PL6.E3A0      #004=KSC$UPDATE File=KSC$COMMANDS2.:E05TSI                         WED 07/30/97 01:48 Page:546
     2921        1        /*T***********************************************************/
     2922        2        /*T*                                                         */
     2923        3        /*T* Copyright (c) Bull HN Information Systems Inc., 1997    */
     2924        4        /*T*                                                         */
     2925        5        /*T***********************************************************/
     2926        6
     2927        7         KSC$UPDATE: PROC (TOP$) ALTRET;
     2928        8             /**/
     2929        9    1       DCL TOP$ PTR;
     2930       10             /**/
     2931       11        %INCLUDE KHA_FNC_E;
     2932      111        %INCLUDE CP_6;
     2933      192        %INCLUDE CP_6_SUBS;
     2934      732        %INCLUDE XU_MACRO_C;
     2935     3838        %INCLUDE KS_MACRO_M;
     2936     4035        %INCLUDE B_ERRORS_C;
     2937     5162        %INCLUDE KL_CONFIG_M;
     2938     5924        %INCLUDE KL_MACRO_C;
     2939     9276        %INCLUDE KS_SUBS_C;
     2940     9519        %INCLUDE KS_DATA_R;
     2941     9534        %INCLUDE KS_PERR_C;
     2942     9601        %INCLUDE KL_CONTROL_C;
     2943     9981        %INCLUDE KL_AFCN_C;
     2944    10082        /**/
     2945    10083        /*entry definitons*/
     2946    10084    1   DCL KSE$ERRMSG ENTRY(4);
     2947    10085    1   DCL KSR$RD_HLPCG ENTRY(1) ALTRET;
     2948    10086    1   DCL KSR$WR_HLPCG ENTRY(1) ALTRET;
     2949    10087    1   DCL KSU$BLD_TERMID ENTRY(3) ALTRET;
     2950    10088    1   DCL KSU$CHK_TRM_RNG ENTRY(2) ALTRET;
     2951    10089    1   DCL XUR$ERRMSG ENTRY(7) ALTRET;
     2952    10090    1   DCL XUR$ERRCNVRT ENTRY(2);
     2953    10091    1   DCL KSW$WRITE ENTRY(11);
     2954    10092    1   DCL KSU$INIT_DEFCNFG ENTRY(1);
     2955    10093    1   DCL KSU$GET_NODE ENTRY(3) ALTRET;
     2956    10094    1   DCL KSU$WRITE_NETCON ENTRY(3) ALTRET;
     2957    10095        %KS$BOX(TITLE="symr variables");
PL6.E3A0      #004=KSC$UPDATE File=KSC$COMMANDS2.:E05TSI                         WED 07/30/97 01:48 Page:547

             10113    1   /***************************************************************************
             10114    1    *                                                                         *
             10115    1    *                               symr variables                            *
             10116    1    *                                                                         *
             10117    1    ***************************************************************************/

     2958    10122    1   DCL 1 PROMPT SYMREF,
     2959    10123    1        2 NODENAME CHAR(8),
     2960    10124    1        2 STAR CHAR(2);
     2961    10125        %KL$NETWORK (NAME=KS_NETWORK,NUM=255,STCLASS=SYMREF);
     2962    10152        %KS$HAND_INFO (NAME=KS_HAND_INFO,LVL=1,STCLASS="(0:0) SYMREF", LAST=";");
     2963    10191        %KS$BOX(TITLE="symd variables");

             10209    1   /***************************************************************************
             10210    1    *                                                                         *
             10211    1    *                               symd variables                            *
             10212    1    *                                                                         *
             10213    1    ***************************************************************************/

     2964    10218        %KS$BOX(TITLE="cons variables");

             10236    1   /***************************************************************************
             10237    1    *                                                                         *
             10238    1    *                               cons variables                            *
             10239    1    *                                                                         *
             10240    1    ***************************************************************************/

     2965    10245    1   DCL HEX_CHARS CHAR(0) CONSTANT INIT('0123456789ABCDEF');
     2966    10246        %KS$BOX(TITLE="stat variables");

             10264    1   /***************************************************************************
             10265    1    *                                                                         *
             10266    1    *                               stat variables                            *
             10267    1    *                                                                         *
             10268    1    ***************************************************************************/

PL6.E3A0      #004=KSC$UPDATE File=KSC$COMMANDS2.:E05TSI                         WED 07/30/97 01:48 Page:548
     2967    10273        %KL$HNDLR_KEY (NAME=KS_HANDLER_KEY,STCLASS=STATIC);
     2968    10292        %KL$DEFAULT_KEY (NAME=KS_DEFAULT_KEY,STCLASS=STATIC);
     2969    10311    1        DCL   DEFAULT$ PTR STATIC INIT(ADDR(DEFAULT_BUF));
     2970    10312    1        DCL   DEFAULT_BUF (0:49) UBIN WORD STATIC INIT(0*0);
     2971    10313    1   DCL CHAR_BUF(0:400) CHAR(1) STATIC;
     2972    10314    1   DCL HANDLER$ PTR STATIC INIT(ADDR(CHAR_BUF));
     2973    10315        %KL_HDR(FPTN=UPDATE,CODE=%IGA_UPDATE,STCLASS="BASED(HDR$)");
     2974    10395    1   DCL HDR$ PTR STATIC INIT(ADDR(KS_MSGBUF));
     2975    10396        %KL$FEPHNDLR (NAME=KS_FEPHNDLR,NUM=20,STCLASS=STATIC);
     2976    10426    1   DCL 1 KS_RFEP_KEY STATIC ALIGNED,
     2977    10427    1         2 CNT UBIN BYTE UNAL INIT(1),
     2978    10428    1         2 TYP UBIN BYTE UNAL INIT(%KS_KEYTYP_RFEP);
     2979    10429    1         DCL   HEX$(0:3)   PTR  STATIC INIT(
     2980    10430    1                                          ADDR(TEMP_LINK.HEX0),
     2981    10431    1                                          ADDR(TEMP_LINK.HEX1),
     2982    10432    1                                          ADDR(TEMP_LINK.HEX2),
     2983    10433    1                                          ADDR(TEMP_LINK.HEX3));
     2984    10434    1   DCL   1  TEMP_LINK   STATIC,
     2985    10435    1            2  *        BIT(1) UNAL,
     2986    10436    1            2  HEX0     UBIN(4) UNAL,
     2987    10437    1            2  HEX1     UBIN(4) UNAL,
     2988    10438    1            2  *        BIT(1)  UNAL,
     2989    10439    1            2  HEX2     UBIN(4) UNAL,
     2990    10440    1            2  HEX3     UBIN(4) UNAL;
     2991    10441        %KL$FEPHNDLR_KEY (NAME=KS_FEPHNDLR_KEY,STCLASS=STATIC);
     2992    10459        %KL$NETWORK (NAME=KS_RFEP,NUM=255,STCLASS=STATIC);
     2993    10486        %KL$LINK_KEY(NAME=KS_LINK_KEY,STCLASS=STATIC);
     2994    10504        %FPT_READ (FPTN=READ_NETCON,DCB=M$NETCON,KEYS=YES);
     2995    10543        %FPT_DELREC (FPTN=DELREC_NETCON,DCB=M$NETCON);
     2996    10562        %FPT_WRITE (FPTN=WRITE_NETCON,DCB=M$NETCON);
     2997    10593        %KS$PARAM (NAME=KS$PARAM,LVL=1,SPECIAL=YES,STCLASS="(0:0) BASED",LAST=";");
     2998    10663        %KL$LINCNFG(NAME=KS_DEFAULT,STCLASS="BASED(DEFAULT$)");
     2999    10821    1   DCL B$PARAMI(0:0) UBIN HALF BASED HALIGNED;
     3000    10822        %KL$NETWORK_KEY (NAME=KS_NETWORK_KEY,STCLASS=STATIC);
     3001    10839    1   DCL M$NETCON DCB;
     3002    10840        %KS$BOX(TITLE="base variables");

PL6.E3A0      #004=KSC$UPDATE File=KSC$COMMANDS2.:E05TSI                         WED 07/30/97 01:48 Page:549
             10858    1   /***************************************************************************
             10859    1    *                                                                         *
             10860    1    *                               base variables                            *
             10861    1    *                                                                         *
             10862    1    ***************************************************************************/

     3003    10867        %KL$HNDLR (NAME=KS_HANDLER,NUM=KL_FIXED_HI,STCLASS="BASED(HANDLER$)");
     3004    10930        %KL_HDR(FPTN=KS$HDR,CODE=%IGA_UPDATE,STCLASS="BASED(HDR$)");
     3005    11010        %PARSE$OUT (NAME=OUT$BLK,STCLASS = "BASED(TOP$)");
     3006    11055        %PARSE$SYM (NAME=OUT$SYM,STCLASS = BASED);
     3007    11093    1   DCL   HEX   UBIN(4)  BASED UNAL;
     3008    11094        %KS$BOX(TITLE="auto variables");

             11112    1   /***************************************************************************
             11113    1    *                                                                         *
             11114    1    *                               auto variables                            *
             11115    1    *                                                                         *
             11116    1    ***************************************************************************/

     3009    11121    1   DCL HDLCX25_IN BIT(1);
     3010    11122    1   DCL OUT$ PTR;
     3011    11123    1   DCL NODENAME CHAR(8);
     3012    11124    1   DCL DFLT$ PTR;
     3013    11125    1   DCL NRLINKS   SBIN;
     3014    11126    1   DCL DFLT_OPT$ PTR;
     3015    11127    1   DCL LINK_LIST(0:10) CHAR(4);
     3016    11128    1   DCL K UBIN;
     3017    11129    1   DCL I UBIN;
     3018    11130    1   DCL L SBIN;
     3019    11131    1   DCL HAND# UBIN;
     3020    11132    1   DCL J UBIN;
     3021    11133    1   DCL TEMP UBIN;
     3022    11134    1   DCL FEX UBIN;
     3023    11135    1   DCL NODETYPE  UBIN;
     3024    11136    1   DCL NEW_CLASS UBIN;
     3025    11137    1   DCL OLD_CLASS UBIN;
     3026    11138    1   DCL CONTROL_NODE CHAR(8);
PL6.E3A0      #004=KSC$UPDATE File=KSC$COMMANDS2.:E05TSI                         WED 07/30/97 01:48 Page:550
     3027    11139         /**/
     3028    11140        %EJECT;
PL6.E3A0      #004=KSC$UPDATE File=KSC$COMMANDS2.:E05TSI                         WED 07/30/97 01:48 Page:551
     3029    11141    1   IF OUT$BLK.NSUBLKS = 0 THEN
     3030    11142    2        DO;
     3031    11143    2           UPDATE.CODE = %IGA_UPDATE;
     3032    11144    2           CALL KSR$WR_HLPCG(VECTOR(UPDATE));
     3033    11145    2        END;
     3034    11146    1   ELSE
     3035    11147    2        DO;
     3036    11148    2           CALL KSU$GET_NODE(OUT$BLK.SUBLK$(0)->OUT$BLK.SUBLK$(0),FEX,NODENAME)
     3037    11149    3              WHENALTRETURN DO;
     3038    11150    3                 ALTRETURN;
     3039    11151    3              END;
     3040    11152    2           READ_NETCON.KEY_ = VECTOR(KS_RFEP_KEY);
     3041    11153    2           READ_NETCON.BUF_ = VECTOR(KS_RFEP);
     3042    11154    3           CALL M$READ(READ_NETCON) WHENALTRETURN DO;
     3043    11155    3              KS_RFEP = KS_NETWORK;
     3044    11156    3              END;  /* WHENALTRETURN */
     3045    11157    2           KS_LINK_KEY.NODE = FEX;
     3046    11158    2           READ_NETCON.KEY_ = VECTOR(KS_LINK_KEY);
     3047    11159    2           READ_NETCON.BUF_ = VECTOR(KS_MSGBUF);
     3048    11160    2           CALL M$READ(READ_NETCON)
     3049    11161    3              WHENALTRETURN DO;
     3050    11162    3                 KS_LINK.LINKS# = 0;
     3051    11163    3              END;
     3052    11164    2           NODETYPE = KS_RFEP.NODE.TYPE(FEX);
     3053    11165    2           CONTROL_NODE = KS_NETWORK.NODE.CONTROL_NODE(FEX);
     3054    11166    2           NRLINKS = 0;
     3055    11167
     3056    11168    3           DO I= 1 TO OUT$BLK.NSUBLKS - 1;
     3057    11169    4              DO CASE (OUT$BLK.SUBLK$(I)->OUT$BLK.CODE);
     3058    11170    4                 CASE (%KS_NAME);
     3059    11171    4                    NODENAME = OUT$BLK.SUBLK$(I)->OUT$BLK.SUBLK$(0)->OUT$SYM.TEXT;
     3060    11172    4                 CASE (%KS_TYPE);
     3061    11173    4                    NODETYPE = OUT$BLK.SUBLK$(I)->OUT$BLK.SUBLK$(0)->OUT$BLK.CODE;
     3062    11174    4                 CASE (%KS_CONT);
     3063    11175    4                    CONTROL_NODE = OUT$BLK.SUBLK$(I)->OUT$BLK.SUBLK$(0)->OUT$SYM.TEXT;
     3064    11176    4                 CASE (%KS_LINK);
     3065    11177    4                    NRLINKS = OUT$BLK.SUBLK$(I)->OUT$BLK.NSUBLKS;
PL6.E3A0      #004=KSC$UPDATE File=KSC$COMMANDS2.:E05TSI                         WED 07/30/97 01:48 Page:552
     3066    11178    5                    DO J = 0 TO NRLINKS - 1;
     3067    11179    5                       LINK_LIST(J) = OUT$BLK.SUBLK$(I)->OUT$BLK.SUBLK$(J)->OUT$SYM.
             11179                                TEXT;
     3068    11180    5                    END;
     3069    11181    4              END;
     3070    11182    3           END;
     3071    11183
     3072    11184    2           IF NODETYPE = %KS_HOST OR NODETYPE = %KS_ME THEN
     3073    11185    2              NEW_CLASS = %KS_HOST;
     3074    11186    2           ELSE
     3075    11187    2              NEW_CLASS = %KS_FEP;
     3076    11188    2           IF KS_NETWORK.NODE.TYPE(FEX) = %KS_HOST OR
     3077    11189    2              KS_NETWORK.NODE.TYPE(FEX) = %KS_ME THEN
     3078    11190    2              OLD_CLASS = %KS_HOST;
     3079    11191    2           ELSE
     3080    11192    2              OLD_CLASS = %KS_FEP;
     3081    11193    2           IF OLD_CLASS ~= NEW_CLASS THEN
     3082    11194    3              DO;
     3083    11195    3                 CALL KSE$ERRMSG (%E$KS_CANT_INTCHG_FEP_AND_HOST);
     3084    11196                      /*E* ERROR: KSN-E$KS_CANT_INTCHG_FEP_AND_HOST-0
     3085    11197         MESSAGE: It is illegal to update a fep type node to a host type node or a host type
             11197         node to a fep type node.*/
     3086    11198    3                 KS_SUB_BUF_1.COUNT = SIZEC(KS_NETWORK.NODE.NODE(FEX));
     3087    11199    3                 KS_SUB_BUF_1.TEXT = KS_NETWORK.NODE.NODE(I);
     3088    11200    3                 CALL KSE$ERRMSG (%E$KS_NO_UPDATE,VECTOR(KS_SUB_BUF_1));
     3089    11201                      /*E* ERROR: KSN-E$KS_NO_UPDATE-0
     3090    11202                           MESSAGE: Node %U1 has not been updated. */
     3091    11203    3                 RETURN;
     3092    11204    3              END;
     3093    11205
     3094    11206    2           IF NEW_CLASS = %KS_HOST THEN
     3095    11207    3              DO;
     3096    11208    3                 IF CONTROL_NODE ~= ' ' THEN
     3097    11209    4                    DO;
     3098    11210    4                       CALL KSE$ERRMSG (%E$KS_CNTRL_NOSENSE_ON_HOST);
     3099    11211                            /*E* ERROR: KSN-E$KS_CNTRL_NOSENSE_ON_HOST
     3100    11212                     MESSAGE: It makes no sense to specify a control node on a host node. */
PL6.E3A0      #004=KSC$UPDATE File=KSC$COMMANDS2.:E05TSI                         WED 07/30/97 01:48 Page:553
     3101    11213    4                       KS_SUB_BUF_1.COUNT = SIZEC(KS_NETWORK.NODE.NODE(FEX));
     3102    11214    4                       KS_SUB_BUF_1.TEXT = KS_NETWORK.NODE.NODE(I);
     3103    11215    4                       CALL KSE$ERRMSG (%E$KS_NO_UPDATE,VECTOR(KS_SUB_BUF_1));
     3104    11216    4                       RETURN;
     3105    11217    4                    END;
     3106    11218    3                 IF KS_LINK.LINKS# + NRLINKS ~= 0 THEN
     3107    11219    4                    DO;
     3108    11220    4                       CALL KSE$ERRMSG (%E$KS_LINKS_NOSENSE_ON_HOST);
     3109    11221                            /*E* ERROR: KSN-E$KS_LINKS_NOSENSE_ON_HOST-0
     3110    11222                             MESSAGE: It makes no sense to specify a link on a host node. */
     3111    11223    4                       KS_SUB_BUF_1.COUNT = SIZEC(KS_NETWORK.NODE.NODE(FEX));
     3112    11224    4                       KS_SUB_BUF_1.TEXT = KS_NETWORK.NODE.NODE(I);
     3113    11225    4                       CALL KSE$ERRMSG (%E$KS_NO_UPDATE,VECTOR(KS_SUB_BUF_1));
     3114    11226    4                       RETURN;
     3115    11227    4                    END;
     3116    11228    3              END;
     3117    11229
     3118    11230    2           IF NODENAME ~= KS_NETWORK.NODE.NODE(FEX) THEN
     3119    11231    3              DO I = 0 TO KS_NETWORK.NODE#;
     3120    11232    3                 IF KS_NETWORK.NODE.NODE(I) = NODENAME THEN
     3121    11233    4                    DO;
     3122    11234    4                       KS_SUB_BUF_1.COUNT = SIZEC(KS_NETWORK.NODE.NODE(I));
     3123    11235    4                       KS_SUB_BUF_1.TEXT = KS_NETWORK.NODE.NODE(I);
     3124    11236    4                       CALL KSE$ERRMSG(%E$KS_DUP_NODE,VECTOR(KS_SUB_BUF_1));
     3125    11237    4                       RETURN;
     3126    11238    4                    END;
     3127    11239    3              END;
     3128    11240
     3129    11241    2           IF NODETYPE = %KS_RFEP AND (KS_LINK.LINKS# + NRLINKS = 0) THEN
     3130    11242    3              DO;
     3131    11243    3                 KS_SUB_BUF_1.TEXT = KS_NETWORK.NODE.NODE(I);
     3132    11244    3                 KS_SUB_BUF_1.COUNT = SIZEC(KS_NETWORK.NODE.NODE(I));
     3133    11245    3                 CALL KSE$ERRMSG(%E$KS_RFEP_WITH_NO_LINKS);
     3134    11246    3                 CALL KSE$ERRMSG(%E$KS_NO_UPDATE,VECTOR(KS_SUB_BUF_1));
     3135    11247    3                 RETURN;
     3136    11248    3              END;
     3137    11249    3           DO I = 0 TO KS_NETWORK.NODE#;
PL6.E3A0      #004=KSC$UPDATE File=KSC$COMMANDS2.:E05TSI                         WED 07/30/97 01:48 Page:554
     3138    11250    3              IF I~= FEX THEN
     3139    11251    4                 DO;
     3140    11252    4                    IF NEW_CLASS = %KS_HOST AND KS_NETWORK.NODE.NODE(FEX) ~= NODENAME
             11252                             AND
     3141    11253    4                       KS_NETWORK.NODE.CONTROL_NODE(I) = KS_NETWORK.NODE.NODE(FEX) THEN
     3142    11254    5                       DO;
     3143    11255    5                          KS_SUB_BUF_1.TEXT = KS_NETWORK.NODE.NODE(I);
     3144    11256    5                          KS_SUB_BUF_2.TEXT = KS_NETWORK.NODE.CONTROL_NODE(I);
     3145    11257    5                          KS_SUB_BUF_3.TEXT = KS_NETWORK.NODE.NODE(FEX);
     3146    11258    5                          KS_SUB_BUF_1.COUNT = SIZEC(KS_NETWORK.NODE.NODE(I));
     3147    11259    5                          KS_SUB_BUF_2.COUNT = SIZEC(KS_NETWORK.NODE.CONTROL_NODE(I));
     3148    11260    5                          KS_SUB_BUF_3.COUNT = SIZEC(KS_NETWORK.NODE.NODE(FEX));
     3149    11261    5                          CALL KSE$ERRMSG (%E$KS_CONTROLS_NAME_CHANGED,VECTOR(
             11261                                   KS_SUB_BUF_1),VECTOR(KS_SUB_BUF_2),VECTOR(KS_SUB_BUF_3));
     3150    11262        /*E* ERROR: KSN-E$KS_CONTROLS_NAME_CHANGED-0
     3151    11263         MESSAGE: WARNING - Node %U1 knows this node by the name %U2.  Its control node may
             11263        need to be changed to %U3. */
     3152    11264    5                       END;
     3153    11265    4                    IF NEW_CLASS = %KS_FEP AND KS_NETWORK.NODE.CONTROL_NODE(I) =
             11265                             NODENAME THEN
     3154    11266    5                       DO;
     3155    11267    5                          KS_SUB_BUF_1.TEXT = KS_NETWORK.NODE.NODE(I);
     3156    11268    5                          CALL KSE$ERRMSG (%E$KS_NODE_NOT_CNTRL,VECTOR(KS_SUB_BUF_1));
     3157    11269    5                       END;
     3158    11270    4                    IF CONTROL_NODE = KS_NETWORK.NODE.NODE(I) AND
     3159    11271    4                       CONTROL_NODE ~= ' ' AND
     3160    11272    4                      (KS_NETWORK.NODE.TYPE(I) ~= %KS_HOST AND
     3161    11273    4                      (KS_NETWORK.NODE.TYPE(I) ~= %KS_ME)) THEN
     3162    11274    5                       DO;
     3163    11275    5                          CALL KSE$ERRMSG (%E$KS_CNTRL_NOT_HOST);
     3164    11276    5                       END;
     3165    11277    4                 END;
     3166    11278    3           END;
     3167    11279    2           IF KS_NODE = FEX THEN
     3168    11280    3              DO;
     3169    11281    3                 KS_NODENAME = NODENAME;
     3170    11282    3                 PROMPT.NODENAME = NODENAME;
PL6.E3A0      #004=KSC$UPDATE File=KSC$COMMANDS2.:E05TSI                         WED 07/30/97 01:48 Page:555
     3171    11283    3              END;
     3172    11284    2           KS_NETWORK.NODE.TYPE(FEX) = NODETYPE;
     3173    11285    2           KS_RFEP.NODE.TYPE(FEX) = NODETYPE;
     3174    11286    2           IF NODETYPE = %KS_RFEP THEN
     3175    11287    2              KS_NETWORK.NODE.TYPE(FEX) = %KS_FEP;
     3176    11288    2           KS_NETWORK.NODE.NODE(FEX) = NODENAME;
     3177    11289    2           KS_NETWORK.NODE.CONTROL_NODE(FEX) = CONTROL_NODE;
     3178    11290    2           WRITE_NETCON.KEY_ = VECTOR(KS_NETWORK_KEY);
     3179    11291    2           WRITE_NETCON.BUF_ = VECTOR(KS_NETWORK);
     3180    11292    2           WRITE_NETCON.BUF_.BOUND = SIZEV(KS_NETWORK) - SIZEC(KS_NETWORK.NODE) +
     3181    11293    2                 KS_NETWORK.NODE#*SIZEC(KS_NETWORK.NODE(0));
     3182    11294    2           CALL M$WRITE(WRITE_NETCON)
     3183    11295    3              WHENALTRETURN DO;
     3184    11296    3                 CALL KSE$ERRMSG(0);
     3185    11297    3              END;
     3186    11298    2           WRITE_NETCON.KEY_ = VECTOR(KS_RFEP_KEY);
     3187    11299    2           WRITE_NETCON.BUF_ = VECTOR(KS_RFEP);
     3188    11300    2           WRITE_NETCON.BUF_.BOUND = SIZEV(KS_RFEP) - SIZEC(KS_RFEP.NODE)
     3189    11301    2                                + KS_RFEP.NODE# * SIZEC(KS_RFEP.NODE(0));
     3190    11302    2           CALL M$WRITE(WRITE_NETCON)
     3191    11303    3              WHENALTRETURN DO;
     3192    11304    3                 CALL KSE$ERRMSG(0);
     3193    11305    3              END;
     3194    11306
     3195    11307    3           DO I = 0 TO NRLINKS - 1;
     3196    11308    3              K = 3;
     3197    11309    3              TEMP_LINK = '0'B;
     3198    11310    4              DO L = 3 DOWNTO 0;
     3199    11311    4                 IF SUBSTR(LINK_LIST(I),L,1) ~= ' ' THEN
     3200    11312    5                    DO;
     3201    11313    5                       CALL INDEX (TEMP,SUBSTR(LINK_LIST(I),L,1),HEX_CHARS);
     3202    11314    5                       HEX$(K)->HEX = TEMP;
     3203    11315    5                       K = K - 1;
     3204    11316    5                    END;
     3205    11317    4              END;
     3206    11318    4   LINK_LOOP: DO J = 0 TO KS_LINK.LINKS# - 1;
     3207    11319    4                 IF TEMP_LINK = KS_LINK.CHANNEL(J) THEN
PL6.E3A0      #004=KSC$UPDATE File=KSC$COMMANDS2.:E05TSI                         WED 07/30/97 01:48 Page:556
     3208    11320    4                    EXIT LINK_LOOP;
     3209    11321    4              END;
     3210    11322
     3211    11323    3              IF J = KS_LINK.LINKS# THEN
     3212    11324    4                 DO;
     3213    11325    4                    KS_LINK.CHANNEL(KS_LINK.LINKS#) = TEMP_LINK;
     3214    11326    4                    KS_LINK.LINKS# = KS_LINK.LINKS# + 1;
     3215    11327    4                 END;
     3216    11328    3           END;
     3217    11329
     3218    11330    2           KS_LINK_KEY.NODE = FEX;
     3219    11331    2           WRITE_NETCON.BUF_ = VECTOR(KS_MSGBUF);
     3220    11332    2           WRITE_NETCON.KEY_ = VECTOR(KS_LINK_KEY);
     3221    11333    2           WRITE_NETCON.BUF_.BOUND = SIZEC(KS_LINK.LINKS#) +
     3222    11334    2                                    (SIZEC(KS_LINK.CHANNEL(0)) *
     3223    11335    2                                     KS_LINK.LINKS#) - 1;
     3224    11336    2           CALL M$WRITE(WRITE_NETCON);
     3225    11337
     3226    11338    2           KS_FEPHNDLR_KEY.NODE = FEX;
     3227    11339    2           READ_NETCON.BUF_ = VECTOR(KS_FEPHNDLR);
     3228    11340    2           READ_NETCON.KEY_ = VECTOR(KS_FEPHNDLR_KEY);
     3229    11341    2           CALL M$READ(READ_NETCON)
     3230    11342    3              WHENALTRETURN DO;
     3231    11343    3                 CALL KSE$ERRMSG(0);
     3232    11344    3              END;
     3233    11345    2           IF KS_RFEP.NODE.TYPE(FEX) = %KS_RFEP THEN
     3234    11346    3              DO;
     3235    11347    3                 J = 0;
     3236    11348    4                 DO I = 0 TO KS_FEPHNDLR.NHANDLERS - 1;
     3237    11349    4                    IF KS_FEPHNDLR.HANDLER(I) = 'COUPLER' THEN
     3238    11350    5                       DO;
     3239    11351    5                          KS_HANDLER_KEY.HNDLR = 'COUPLER';
     3240    11352    5                          KS_HANDLER_KEY.NODE = FEX;
     3241    11353    5                          DELREC_NETCON.KEY_ = VECTOR(KS_HANDLER_KEY);
     3242    11354    5                          CALL M$DELREC(DELREC_NETCON);
     3243    11355    5                          KS_DEFAULT_KEY.NODE = FEX;
     3244    11356    5                          KS_DEFAULT_KEY.HNDLR = 'COUPLER';
PL6.E3A0      #004=KSC$UPDATE File=KSC$COMMANDS2.:E05TSI                         WED 07/30/97 01:48 Page:557
     3245    11357    5                          DELREC_NETCON.KEY_ = VECTOR(KS_DEFAULT_KEY);
     3246    11358    5                          CALL M$DELREC(DELREC_NETCON);
     3247    11359    5                       END;
     3248    11360    4                    ELSE
     3249    11361    5                       DO;
     3250    11362    5                          IF KS_FEPHNDLR.HANDLER(I) ~= 'NODEADMN' AND
     3251    11363    5                             KS_FEPHNDLR.HANDLER(I) ~= 'HDLCX25'  THEN
     3252    11364    5                             KS_FEPHNDLR.BOOTIME(J) = '0'B;
     3253    11365    5                          IF KS_FEPHNDLR.HANDLER(I) = 'HDLCX25'  THEN
     3254    11366    5                             HDLCX25_IN = '1'B;
     3255    11367    5                          KS_FEPHNDLR.HANDLER(J) = KS_FEPHNDLR.HANDLER(I);
     3256    11368    5                          J = J + 1;
     3257    11369    5                       END;
     3258    11370    4                 END;
     3259    11371    3                 KS_FEPHNDLR.NHANDLERS = J;
     3260    11372    3                 IF ~HDLCX25_IN THEN
     3261    11373    4                    DO;
     3262    11374    4                       KS_FEPHNDLR.NHANDLERS = KS_FEPHNDLR.NHANDLERS + 1;
     3263    11375    4                       KS_FEPHNDLR.HANDLER(J) = 'HDLCX25';
     3264    11376    4                       KS_FEPHNDLR.BOOTIME(J) = '1'B;
     3265    11377    4                       KS_DEFAULT_KEY.HNDLR = KS_FEPHNDLR.HANDLER(J);
     3266    11378    4                       CALL KSU$INIT_DEFCNFG(KS_DEFAULT);
     3267    11379    4                       CALL KSU$WRITE_NETCON(VECTOR(KS_DEFAULT_KEY),VECTOR(KS_DEFAULT))
             11379                                ;
     3268    11380    4                       KS_HANDLER = '0'B;
     3269    11381    4                       KS_HANDLER_KEY.HNDLR = KS_FEPHNDLR.HANDLER(J);
     3270    11382    4                       KS_HANDLER.HNDLRFID = KS_FEPHNDLR.HANDLER(J);
     3271    11383    4                       CALL INDEX(TEMP,' ',KS_HANDLER.HNDLRFID);
     3272    11384    4                       CALL INSERT(KS_HANDLER.HNDLRFID,TEMP,,'.:SYS');
     3273    11385    4                       KS_HANDLER.HNDLRNAME = KS_FEPHNDLR.HANDLER(J);
     3274    11386    5                        DO HAND# = 0 TO 7;
     3275    11387    5                             IF KS_HAND_INFO.TEXT(HAND#) = KS_HANDLER_KEY.HNDLR
     3276    11388    5                             THEN
     3277    11389    5                                  EXIT;
     3278    11390    5                             END;
     3279    11391    4                       KS_HANDLER.TYPE = KS_HAND_INFO.TYPE(HAND#);
     3280    11392
PL6.E3A0      #004=KSC$UPDATE File=KSC$COMMANDS2.:E05TSI                         WED 07/30/97 01:48 Page:558
     3281    11393    4                       DFLT$ = KS_HAND_INFO.PARAMS$(HAND#);
     3282    11394
     3283    11395    4                       IF KS_HAND_INFO.SZ(HAND#) <= %KL_FIXED_HI
     3284    11396    4                       THEN KS_HANDLER.NPARAMS = KS_HAND_INFO.SZ(HAND#);
     3285    11397    4                       ELSE KS_HANDLER.NPARAMS = %KL_FIXED_HI;
     3286    11398
     3287    11399    5                       DO K=0 TO KS_HANDLER.NPARAMS-1;
     3288    11400    5                          KS_HANDLER.PARAMS(K) = DFLT$->KS$PARAM.DEFAULT(K);
     3289    11401    5                          END;
     3290    11402
     3291    11403    4                       IF KS_HAND_INFO.SZ(HAND#) > %KL_FIXED_HI
     3292    11404    5                       THEN DO;
     3293    11405    5                             KS_HANDLER.NPARAMI = KS_HAND_INFO.SZ(HAND#) - %KL_FIXED_HI
             11405                                      ;
     3294    11406    5                            OUT$ = PINCRW(ADDR(KS_HANDLER),SIZEW(KS_HANDLER));
     3295    11407
     3296    11408    6                            DO K = %KL_ASYNC_BLOCK TO KS_HAND_INFO.SZ(HAND#)-1;
     3297    11409    6                               DFLT_OPT$ = DFLT$->KS$PARAM.SPCL_TBL$(K);
     3298    11410    6                               KS_HANDLER.IPARAM.OFFSET(K - %KL_ASYNC_BLOCK) = POFFW(
             11410                                        OUT$,ADDR(KS_HANDLER));
     3299    11411    6                               KS_HANDLER.IPARAM.ARRAY_SZ(K - %KL_ASYNC_BLOCK) =
             11411                                        KS_HAND_INFO.PARAMS$(HAND#)->KS$PARAM.ARRAY_SZ(K);
     3300    11412
     3301    11413    7                               DO I = 0 TO KS_HANDLER.IPARAM.ARRAY_SZ(K - %
             11413                                        KL_ASYNC_BLOCK);
     3302    11414    7                               OUT$->B$PARAMI(I) = DFLT_OPT$->KS$PARAM.DEFAULT(I);
     3303    11415    7                                 END;
     3304    11416
     3305    11417    6                               OUT$ = PINCRW(OUT$,(KS_HANDLER.IPARAM.ARRAY_SZ(K - %
             11417                                        KL_ASYNC_BLOCK)+2)/2);
     3306    11418    6                               END;  /* DO K - # of indexed params */
     3307    11419    5                           END;  /* DO IF ANY INDEXED PARAMS */
     3308    11420
     3309    11421    4                       WRITE_NETCON.KEY_ = VECTOR(KS_HANDLER_KEY);
     3310    11422    4                       WRITE_NETCON.BUF_ = VECTOR(KS_HANDLER);
     3311    11423    4                       IF KS_HANDLER.NPARAMI = 0
     3312    11424    5                       THEN DO;
PL6.E3A0      #004=KSC$UPDATE File=KSC$COMMANDS2.:E05TSI                         WED 07/30/97 01:48 Page:559
     3313    11425    5                          OUT$ = ADDR(KS_HANDLER);
     3314    11426    5                          OUT$ = PINCRW(OUT$,SIZEW(KS_HANDLER) + 1);
     3315    11427    5                       END;
     3316    11428
     3317    11429    4                       WRITE_NETCON.BUF_.BOUND = POFFC(OUT$,ADDR(KS_HANDLER))-1;
     3318    11430    4                       CALL M$WRITE(WRITE_NETCON)
     3319    11431    5                          WHENALTRETURN DO;
     3320    11432    5                             CALL KSE$ERRMSG(0);
     3321    11433    5                             ALTRETURN;
     3322    11434    5                          END;
     3323    11435    4                    END;
     3324    11436    3              WRITE_NETCON.KEY_ = VECTOR(KS_FEPHNDLR_KEY);
     3325    11437    3              WRITE_NETCON.BUF_ = VECTOR(KS_FEPHNDLR);
     3326    11438
     3327    11439
     3328    11440
     3329    11441
     3330    11442    3                 WRITE_NETCON.BUF_.BOUND = SIZEC(KS_FEPHNDLR.NHANDLERS) + SIZEC(
             11442                          KS_FEPHNDLR.DEFLIBACCT) + 4  /* bootime */
     3331    11443    3                                           + SIZEC(KS_FEPHNDLR.HANDLER(0)) *
             11443                                                    KS_FEPHNDLR.NHANDLERS - 1;
     3332    11444    3              CALL M$WRITE(WRITE_NETCON)
     3333    11445    4                 WHENALTRETURN DO;
     3334    11446    4                    CALL KSE$ERRMSG(0);
     3335    11447    4                    ALTRETURN;
     3336    11448    4                 END;
     3337    11449    3           END;
     3338    11450    2        END;
     3339    11451    1   END KSC$UPDATE;

PL6.E3A0      #004=KSC$UPDATE File=KSC$COMMANDS2.:E05TSI                         WED 07/30/97 01:48 Page:560
--  Include file information  --

   KL_AFCN_C.:E05TOU  is referenced.
   KL_CONTROL_C.:E05TOU  is referenced.
   KS_PERR_C.:E05TOU  is referenced.
   KS_DATA_R.:E05TOU  cannot be made into a system file and is referenced.
   KS_SUBS_C.:E05TOU  is referenced.
   KL_MACRO_C.:E05TOU  is referenced.
   KL_CONFIG_M.:E05TOU  is referenced.
   B_ERRORS_C.:E05TOU  is referenced.
   KS_MACRO_M.:E05TOU  is referenced.
   XU_MACRO_C.:E05TOU  is referenced.
   CP_6_SUBS.:E05TOU  is referenced.
   CP_6.:E05TOU  cannot be made into a system file and is referenced.
   KHA_FNC_E.:E05TOU  is referenced.
   B$JIT_C.:E05TOU  was found in the system file and is never referenced.
   CP_6_C.:E05TOU  was found in the system file and is referenced.
      No diagnostics issued in procedure KSC$UPDATE.

   Procedure KSC$UPDATE requires 866 words for executable code.
   Procedure KSC$UPDATE requires 38 words of local(AUTO) storage.

    No errors detected in file KSC$COMMANDS2.:E05TSI    .

PL6.E3A0      #004=KSC$UPDATE File=KSC$COMMANDS2.:E05TSI                         WED 07/30/97 01:48 Page:561

 Object Unit name= KSC$UPDATE                                 File name= KSC$COMMANDS2.:E05TOU
 UTS= JUL 30 '97 01:48:46.16 WED                              Compiler= PL-6/E31         Sev=      00
 SharedLib= :SHARED_SYSTEM                                    Alt SharedLib=


    ****  Control sections  ****

 Sect   Type Bound  Init  Size OctSiz  Section name(segment info)
    0   DCB   even  none     0      0  M$UC
    1  RoData even  UTS     12     14  KSC$UPDATE
    2   Data  even  none  1533   2775  KSC$UPDATE
    3   DCB   even  none     0      0  M$NETCON
    4   Proc  even  none   866   1542  KSC$UPDATE
    5  RoData even  none    58     72  KSC$UPDATE

    ****  Entry defs  ****

                              Check   Calling
                             calling  sequence
  Sect OctLoc Primary Altret sequence   type   Parms  Name
     4      0   yes    yes     yes      Std        1  KSC$UPDATE

  ****  Entry refs  ****

         Check        Calling
        calling       sequence
Altret sequence SRef   type   Args  Name
 yes     yes           Std       1 KSR$WR_HLPCG
 yes     yes           Std       3 KSU$GET_NODE
         yes           Std       1 KSU$INIT_DEFCNFG
 yes     yes           Std       3 KSU$WRITE_NETCON
         yes           Std       4 KSE$ERRMSG
                       nStd      0 X66_AUTO_1
                       Std       0 B_CONSPOOL_D
                       nStd      0 X66_AALT
                       nStd      0 X66_ARET
PL6.E3A0      #004=KSC$UPDATE File=KSC$COMMANDS2.:E05TSI                         WED 07/30/97 01:48 Page:562

  ****  Data refs  ****

  Flags:  r = read only, s = secondary
Flgs Name                             Flgs Name                             Flgs Name
     M$UC                                  KS_MYSTATION                          KS_NODENAME
     KS_NODE                               KS_MSGBUF                             KS_MSGBUF$
     KS_SUB_BUF_1                          KS_SUB_BUF_2                          KS_SUB_BUF_3
     PROMPT                                KS_NETWORK                            KS_HAND_INFO
     M$NETCON                              B_VECTNIL

  ****  Segment refs  ****

  Flags:  r = read only, s = secondary
Flgs Name                             Flgs Name                             Flgs Name
     ISSID                                 NULLSID
PL6.E3A0      #004=KSC$UPDATE File=KSC$COMMANDS2.:E05TSI                         WED 07/30/97 01:48 Page:563


     2921        1        /*T***********************************************************/
     2922        2        /*T*                                                         */
     2923        3        /*T* Copyright (c) Bull HN Information Systems Inc., 1997    */
     2924        4        /*T*                                                         */
     2925        5        /*T***********************************************************/
     2926        6
     2927        7         KSC$UPDATE: PROC (TOP$) ALTRET;

      7  4 000000   000000 700200 xent  KSC$UPDATE   TSX0  ! X66_AUTO_1
         4 000001   000046 000001                    ZERO    38,1

     2928        8             /**/
     2929        9    1       DCL TOP$ PTR;
     2930       10             /**/
     2931       11        %INCLUDE KHA_FNC_E;
     2932      111        %INCLUDE CP_6;
     2933      192        %INCLUDE CP_6_SUBS;
     2934      732        %INCLUDE XU_MACRO_C;
     2935     3838        %INCLUDE KS_MACRO_M;
     2936     4035        %INCLUDE B_ERRORS_C;
     2937     5162        %INCLUDE KL_CONFIG_M;
     2938     5924        %INCLUDE KL_MACRO_C;
     2939     9276        %INCLUDE KS_SUBS_C;
     2940     9519        %INCLUDE KS_DATA_R;
     2941     9534        %INCLUDE KS_PERR_C;
     2942     9601        %INCLUDE KL_CONTROL_C;
     2943     9981        %INCLUDE KL_AFCN_C;
     2944    10082        /**/
     2945    10083        /*entry definitons*/
     2946    10084    1   DCL KSE$ERRMSG ENTRY(4);
     2947    10085    1   DCL KSR$RD_HLPCG ENTRY(1) ALTRET;
     2948    10086    1   DCL KSR$WR_HLPCG ENTRY(1) ALTRET;
     2949    10087    1   DCL KSU$BLD_TERMID ENTRY(3) ALTRET;
     2950    10088    1   DCL KSU$CHK_TRM_RNG ENTRY(2) ALTRET;
     2951    10089    1   DCL XUR$ERRMSG ENTRY(7) ALTRET;
     2952    10090    1   DCL XUR$ERRCNVRT ENTRY(2);
PL6.E3A0      #004=KSC$UPDATE File=KSC$COMMANDS2.:E05TSI                         WED 07/30/97 01:48 Page:564
     2953    10091    1   DCL KSW$WRITE ENTRY(11);
     2954    10092    1   DCL KSU$INIT_DEFCNFG ENTRY(1);
     2955    10093    1   DCL KSU$GET_NODE ENTRY(3) ALTRET;
     2956    10094    1   DCL KSU$WRITE_NETCON ENTRY(3) ALTRET;
     2957    10095        %KS$BOX(TITLE="symr variables");

             10113    1   /***************************************************************************
             10114    1    *                                                                         *
             10115    1    *                               symr variables                            *
             10116    1    *                                                                         *
             10117    1    ***************************************************************************/

     2958    10122    1   DCL 1 PROMPT SYMREF,
     2959    10123    1        2 NODENAME CHAR(8),
     2960    10124    1        2 STAR CHAR(2);
     2961    10125        %KL$NETWORK (NAME=KS_NETWORK,NUM=255,STCLASS=SYMREF);
     2962    10152        %KS$HAND_INFO (NAME=KS_HAND_INFO,LVL=1,STCLASS="(0:0) SYMREF", LAST=";");
     2963    10191        %KS$BOX(TITLE="symd variables");

             10209    1   /***************************************************************************
             10210    1    *                                                                         *
             10211    1    *                               symd variables                            *
             10212    1    *                                                                         *
             10213    1    ***************************************************************************/

     2964    10218        %KS$BOX(TITLE="cons variables");

             10236    1   /***************************************************************************
             10237    1    *                                                                         *
             10238    1    *                               cons variables                            *
             10239    1    *                                                                         *
             10240    1    ***************************************************************************/

     2965    10245    1   DCL HEX_CHARS CHAR(0) CONSTANT INIT('0123456789ABCDEF');
     2966    10246        %KS$BOX(TITLE="stat variables");

             10264    1   /***************************************************************************
PL6.E3A0      #004=KSC$UPDATE File=KSC$COMMANDS2.:E05TSI                         WED 07/30/97 01:48 Page:565
             10265    1    *                                                                         *
             10266    1    *                               stat variables                            *
             10267    1    *                                                                         *
             10268    1    ***************************************************************************/

     2967    10273        %KL$HNDLR_KEY (NAME=KS_HANDLER_KEY,STCLASS=STATIC);
     2968    10292        %KL$DEFAULT_KEY (NAME=KS_DEFAULT_KEY,STCLASS=STATIC);
     2969    10311    1        DCL   DEFAULT$ PTR STATIC INIT(ADDR(DEFAULT_BUF));
     2970    10312    1        DCL   DEFAULT_BUF (0:49) UBIN WORD STATIC INIT(0*0);
     2971    10313    1   DCL CHAR_BUF(0:400) CHAR(1) STATIC;
     2972    10314    1   DCL HANDLER$ PTR STATIC INIT(ADDR(CHAR_BUF));
     2973    10315        %KL_HDR(FPTN=UPDATE,CODE=%IGA_UPDATE,STCLASS="BASED(HDR$)");
     2974    10395    1   DCL HDR$ PTR STATIC INIT(ADDR(KS_MSGBUF));
     2975    10396        %KL$FEPHNDLR (NAME=KS_FEPHNDLR,NUM=20,STCLASS=STATIC);
     2976    10426    1   DCL 1 KS_RFEP_KEY STATIC ALIGNED,
     2977    10427    1         2 CNT UBIN BYTE UNAL INIT(1),
     2978    10428    1         2 TYP UBIN BYTE UNAL INIT(%KS_KEYTYP_RFEP);
     2979    10429    1         DCL   HEX$(0:3)   PTR  STATIC INIT(
     2980    10430    1                                          ADDR(TEMP_LINK.HEX0),
     2981    10431    1                                          ADDR(TEMP_LINK.HEX1),
     2982    10432    1                                          ADDR(TEMP_LINK.HEX2),
     2983    10433    1                                          ADDR(TEMP_LINK.HEX3));
     2984    10434    1   DCL   1  TEMP_LINK   STATIC,
     2985    10435    1            2  *        BIT(1) UNAL,
     2986    10436    1            2  HEX0     UBIN(4) UNAL,
     2987    10437    1            2  HEX1     UBIN(4) UNAL,
     2988    10438    1            2  *        BIT(1)  UNAL,
     2989    10439    1            2  HEX2     UBIN(4) UNAL,
     2990    10440    1            2  HEX3     UBIN(4) UNAL;
     2991    10441        %KL$FEPHNDLR_KEY (NAME=KS_FEPHNDLR_KEY,STCLASS=STATIC);
     2992    10459        %KL$NETWORK (NAME=KS_RFEP,NUM=255,STCLASS=STATIC);
     2993    10486        %KL$LINK_KEY(NAME=KS_LINK_KEY,STCLASS=STATIC);
     2994    10504        %FPT_READ (FPTN=READ_NETCON,DCB=M$NETCON,KEYS=YES);
     2995    10543        %FPT_DELREC (FPTN=DELREC_NETCON,DCB=M$NETCON);
     2996    10562        %FPT_WRITE (FPTN=WRITE_NETCON,DCB=M$NETCON);
     2997    10593        %KS$PARAM (NAME=KS$PARAM,LVL=1,SPECIAL=YES,STCLASS="(0:0) BASED",LAST=";");
     2998    10663        %KL$LINCNFG(NAME=KS_DEFAULT,STCLASS="BASED(DEFAULT$)");
PL6.E3A0      #004=KSC$UPDATE File=KSC$COMMANDS2.:E05TSI                         WED 07/30/97 01:48 Page:566
     2999    10821    1   DCL B$PARAMI(0:0) UBIN HALF BASED HALIGNED;
     3000    10822        %KL$NETWORK_KEY (NAME=KS_NETWORK_KEY,STCLASS=STATIC);
     3001    10839    1   DCL M$NETCON DCB;
     3002    10840        %KS$BOX(TITLE="base variables");

             10858    1   /***************************************************************************
             10859    1    *                                                                         *
             10860    1    *                               base variables                            *
             10861    1    *                                                                         *
             10862    1    ***************************************************************************/

     3003    10867        %KL$HNDLR (NAME=KS_HANDLER,NUM=KL_FIXED_HI,STCLASS="BASED(HANDLER$)");
     3004    10930        %KL_HDR(FPTN=KS$HDR,CODE=%IGA_UPDATE,STCLASS="BASED(HDR$)");
     3005    11010        %PARSE$OUT (NAME=OUT$BLK,STCLASS = "BASED(TOP$)");
     3006    11055        %PARSE$SYM (NAME=OUT$SYM,STCLASS = BASED);
     3007    11093    1   DCL   HEX   UBIN(4)  BASED UNAL;
     3008    11094        %KS$BOX(TITLE="auto variables");

             11112    1   /***************************************************************************
             11113    1    *                                                                         *
             11114    1    *                               auto variables                            *
             11115    1    *                                                                         *
             11116    1    ***************************************************************************/

     3009    11121    1   DCL HDLCX25_IN BIT(1);
     3010    11122    1   DCL OUT$ PTR;
     3011    11123    1   DCL NODENAME CHAR(8);
     3012    11124    1   DCL DFLT$ PTR;
     3013    11125    1   DCL NRLINKS   SBIN;
     3014    11126    1   DCL DFLT_OPT$ PTR;
     3015    11127    1   DCL LINK_LIST(0:10) CHAR(4);
     3016    11128    1   DCL K UBIN;
     3017    11129    1   DCL I UBIN;
     3018    11130    1   DCL L SBIN;
     3019    11131    1   DCL HAND# UBIN;
     3020    11132    1   DCL J UBIN;
     3021    11133    1   DCL TEMP UBIN;
PL6.E3A0      #004=KSC$UPDATE File=KSC$COMMANDS2.:E05TSI                         WED 07/30/97 01:48 Page:567
     3022    11134    1   DCL FEX UBIN;
     3023    11135    1   DCL NODETYPE  UBIN;
     3024    11136    1   DCL NEW_CLASS UBIN;
     3025    11137    1   DCL OLD_CLASS UBIN;
     3026    11138    1   DCL CONTROL_NODE CHAR(8);
     3027    11139         /**/
     3028    11140        %EJECT;
PL6.E3A0      #004=KSC$UPDATE File=KSC$COMMANDS2.:E05TSI                         WED 07/30/97 01:48 Page:568
     3029    11141    1   IF OUT$BLK.NSUBLKS = 0 THEN

  11141  4 000002   200003 470500                    LDP0    @TOP$,,AUTO
         4 000003   000000 471500                    LDP1    0,,PR0
         4 000004   100001 220100                    LDX0    1,,PR1
         4 000005   000023 601000 4                  TNZ     s:11148

     3030    11142    2        DO;

     3031    11143    2           UPDATE.CODE = %IGA_UPDATE;

  11143  4 000006   000237 473400 2                  LDP3    HDR$
         4 000007   026000 236003                    LDQ     11264,DU
         4 000010   300000 552140                    STBQ    0,'40'O,PR3

     3032    11144    2           CALL KSR$WR_HLPCG(VECTOR(UPDATE));

  11144  4 000011   000000 235000 5                  LDA     0
         4 000012   000237 236000 2                  LDQ     HDR$
         4 000013   200042 757100                    STAQ    CONTROL_NODE+2,,AUTO
         4 000014   200042 631500                    EPPR1   CONTROL_NODE+2,,AUTO
         4 000015   200044 451500                    STP1    CONTROL_NODE+4,,AUTO
         4 000016   200044 630500                    EPPR0   CONTROL_NODE+4,,AUTO
         4 000017   000017 631400 xsym               EPPR1   B_VECTNIL+15
         4 000020   000000 701000 xent               TSX1    KSR$WR_HLPCG
         4 000021   000000 011000                    NOP     0

     3033    11145    2        END;

  11145  4 000022   001541 710000 4                  TRA     s:11451

     3034    11146    1   ELSE
     3035    11147    2        DO;

     3036    11148    2           CALL KSU$GET_NODE(OUT$BLK.SUBLK$(0)->OUT$BLK.SUBLK$(0),FEX,NODENAME)

  11148  4 000023   100003 473500                    LDP3    3,,PR1
PL6.E3A0      #004=KSC$UPDATE File=KSC$COMMANDS2.:E05TSI                         WED 07/30/97 01:48 Page:569
         4 000024   200006 634500                    EPPR4   NODENAME,,AUTO
         4 000025   200044 454500                    STP4    CONTROL_NODE+4,,AUTO
         4 000026   200034 631500                    EPPR1   FEX,,AUTO
         4 000027   200043 451500                    STP1    CONTROL_NODE+3,,AUTO
         4 000030   300003 635500                    EPPR5   3,,PR3
         4 000031   200042 455500                    STP5    CONTROL_NODE+2,,AUTO
         4 000032   200042 630500                    EPPR0   CONTROL_NODE+2,,AUTO
         4 000033   000021 631400 xsym               EPPR1   B_VECTNIL+17
         4 000034   000000 701000 xent               TSX1    KSU$GET_NODE
         4 000035   000037 702000 4                  TSX2    s:11150
         4 000036   000040 710000 4                  TRA     s:11152

     3037    11149    3              WHENALTRETURN DO;

     3038    11150    3                 ALTRETURN;

  11150  4 000037   000000 702200 xent               TSX2  ! X66_AALT

     3039    11151    3              END;
     3040    11152    2           READ_NETCON.KEY_ = VECTOR(KS_RFEP_KEY);

  11152  4 000040   000002 237000 5                  LDAQ    2
         4 000041   002732 757000 2                  STAQ    READ_NETCON+2

     3041    11153    2           READ_NETCON.BUF_ = VECTOR(KS_RFEP);

  11153  4 000042   000004 237000 5                  LDAQ    4
         4 000043   002734 757000 2                  STAQ    READ_NETCON+4

     3042    11154    3           CALL M$READ(READ_NETCON) WHENALTRETURN DO;

  11154  4 000044   002730 630400 2                  EPPR0   READ_NETCON
         4 000045   440000 713400                    CLIMB   alt,read
         4 000046   401400 401760                    pmme    nvectors=4
         4 000047   000051 702000 4                  TSX2    s:11155
         4 000050   000055 710000 4                  TRA     s:11157

PL6.E3A0      #004=KSC$UPDATE File=KSC$COMMANDS2.:E05TSI                         WED 07/30/97 01:48 Page:570
     3043    11155    3              KS_RFEP = KS_NETWORK;

  11155  4 000051   012004 220003                    LDX0    5124,DU
         4 000052   000040 100440                    MLR     fill='000'O
         4 000053   000000 000010 xsym               ADSC9   KS_NETWORK               cn=0,n=*X0
         4 000054   000325 000010 2                  ADSC9   KS_RFEP                  cn=0,n=*X0

     3044    11156    3              END;  /* WHENALTRETURN */

     3045    11157    2           KS_LINK_KEY.NODE = FEX;

  11157  4 000055   200034 236100                    LDQ     FEX,,AUTO
         4 000056   000011 736000                    QLS     9
         4 000057   002726 552010 2                  STBQ    KS_LINK_KEY,'10'O

     3046    11158    2           READ_NETCON.KEY_ = VECTOR(KS_LINK_KEY);

  11158  4 000060   000006 237000 5                  LDAQ    6
         4 000061   002732 757000 2                  STAQ    READ_NETCON+2

     3047    11159    2           READ_NETCON.BUF_ = VECTOR(KS_MSGBUF);

  11159  4 000062   000010 237000 5                  LDAQ    8
         4 000063   002734 757000 2                  STAQ    READ_NETCON+4

     3048    11160    2           CALL M$READ(READ_NETCON)

  11160  4 000064   002730 630400 2                  EPPR0   READ_NETCON
         4 000065   440000 713400                    CLIMB   alt,read
         4 000066   401400 401760                    pmme    nvectors=4
         4 000067   000071 702000 4                  TSX2    s:11162
         4 000070   000073 710000 4                  TRA     s:11164

     3049    11161    3              WHENALTRETURN DO;

     3050    11162    3                 KS_LINK.LINKS# = 0;

PL6.E3A0      #004=KSC$UPDATE File=KSC$COMMANDS2.:E05TSI                         WED 07/30/97 01:48 Page:571
  11162  4 000071   000000 470400 xsym               LDP0    KS_MSGBUF$
         4 000072   000000 450100                    STZ     0,,PR0

     3051    11163    3              END;

     3052    11164    2           NODETYPE = KS_RFEP.NODE.TYPE(FEX);

  11164  4 000073   200034 236100                    LDQ     FEX,,AUTO
         4 000074   000005 402007                    MPY     5,DL
         4 000075   000326 235006 2                  LDA     KS_RFEP+1,QL
         4 000076   200035 755100                    STA     NODETYPE,,AUTO

     3053    11165    2           CONTROL_NODE = KS_NETWORK.NODE.CONTROL_NODE(FEX);

  11165  4 000077   200034 236100                    LDQ     FEX,,AUTO
         4 000100   000024 402007                    MPY     20,DL
         4 000101   040100 100406                    MLR     fill='040'O
         4 000102   000004 000010 xsym               ADSC9   KS_NETWORK+4,Q           cn=0,n=8
         4 000103   200040 000010                    ADSC9   CONTROL_NODE,,AUTO       cn=0,n=8

     3054    11166    2           NRLINKS = 0;

  11166  4 000104   200011 450100                    STZ     NRLINKS,,AUTO

     3055    11167
     3056    11168    3           DO I= 1 TO OUT$BLK.NSUBLKS - 1;

  11168  4 000105   000001 235007                    LDA     1,DL
         4 000106   200027 755100                    STA     I,,AUTO
         4 000107   000207 710000 4                  TRA     s:11182+3

     3057    11169    4              DO CASE (OUT$BLK.SUBLK$(I)->OUT$BLK.CODE);

  11169  4 000110   200003 470500                    LDP0    @TOP$,,AUTO
         4 000111   000000 471500                    LDP1    0,,PR0
         4 000112   200027 720100                    LXL0    I,,AUTO
         4 000113   100003 473510                    LDP3    3,X0,PR1
PL6.E3A0      #004=KSC$UPDATE File=KSC$COMMANDS2.:E05TSI                         WED 07/30/97 01:48 Page:572
         4 000114   300000 721100                    LXL1    0,,PR3
         4 000115   000005 101003                    CMPX1   5,DU
         4 000116   000120 602011 4                  TNC     s:11169+8,X1
         4 000117   000204 710000 4                  TRA     s:11182
         4 000120   000204 710000 4                  TRA     s:11182
         4 000121   000125 710000 4                  TRA     s:11171
         4 000122   000135 710000 4                  TRA     s:11173
         4 000123   000142 710000 4                  TRA     s:11175
         4 000124   000152 710000 4                  TRA     s:11177

     3058    11170    4                 CASE (%KS_NAME);

     3059    11171    4                    NODENAME = OUT$BLK.SUBLK$(I)->OUT$BLK.SUBLK$(0)->OUT$SYM.TEXT;

  11171  4 000125   300003 474500                    LDP4    3,,PR3
         4 000126   400004 236100                    LDQ     4,,PR4
         4 000127   000033 772000                    QRL     27
         4 000130   000000 622006                    EAX2    0,QL
         4 000131   040100 100540                    MLR     fill='040'O
         4 000132   400004 200012                    ADSC9   4,,PR4                   cn=1,n=*X2
         4 000133   200006 000010                    ADSC9   NODENAME,,AUTO           cn=0,n=8
         4 000134   000204 710000 4                  TRA     s:11182

     3060    11172    4                 CASE (%KS_TYPE);

     3061    11173    4                    NODETYPE = OUT$BLK.SUBLK$(I)->OUT$BLK.SUBLK$(0)->OUT$BLK.CODE;

  11173  4 000135   300003 474500                    LDP4    3,,PR3
         4 000136   400000 236100                    LDQ     0,,PR4
         4 000137   777777 376007                    ANQ     -1,DL
         4 000140   200035 756100                    STQ     NODETYPE,,AUTO
         4 000141   000204 710000 4                  TRA     s:11182

     3062    11174    4                 CASE (%KS_CONT);

     3063    11175    4                    CONTROL_NODE = OUT$BLK.SUBLK$(I)->OUT$BLK.SUBLK$(0)->OUT$SYM.TEXT;

PL6.E3A0      #004=KSC$UPDATE File=KSC$COMMANDS2.:E05TSI                         WED 07/30/97 01:48 Page:573
  11175  4 000142   300003 474500                    LDP4    3,,PR3
         4 000143   400004 236100                    LDQ     4,,PR4
         4 000144   000033 772000                    QRL     27
         4 000145   000000 622006                    EAX2    0,QL
         4 000146   040100 100540                    MLR     fill='040'O
         4 000147   400004 200012                    ADSC9   4,,PR4                   cn=1,n=*X2
         4 000150   200040 000010                    ADSC9   CONTROL_NODE,,AUTO       cn=0,n=8
         4 000151   000204 710000 4                  TRA     s:11182

     3064    11176    4                 CASE (%KS_LINK);

     3065    11177    4                    NRLINKS = OUT$BLK.SUBLK$(I)->OUT$BLK.NSUBLKS;

  11177  4 000152   300001 236100                    LDQ     1,,PR3
         4 000153   000022 772000                    QRL     18
         4 000154   200011 756100                    STQ     NRLINKS,,AUTO

     3066    11178    5                    DO J = 0 TO NRLINKS - 1;

  11178  4 000155   200032 450100                    STZ     J,,AUTO
         4 000156   000200 710000 4                  TRA     s:11180+3

     3067    11179    5                       LINK_LIST(J) = OUT$BLK.SUBLK$(I)->OUT$BLK.SUBLK$(J)->OUT$SYM.
             11179                                TEXT;

  11179  4 000157   200003 470500                    LDP0    @TOP$,,AUTO
         4 000160   000000 471500                    LDP1    0,,PR0
         4 000161   200027 720100                    LXL0    I,,AUTO
         4 000162   100003 473510                    LDP3    3,X0,PR1
         4 000163   200032 721100                    LXL1    J,,AUTO
         4 000164   300003 474511                    LDP4    3,X1,PR3
         4 000165   400004 236100                    LDQ     4,,PR4
         4 000166   000033 772000                    QRL     27
         4 000167   200032 235100                    LDA     J,,AUTO
         4 000170   000002 735000                    ALS     2
         4 000171   000000 622006                    EAX2    0,QL
         4 000172   040105 100540                    MLR     fill='040'O
PL6.E3A0      #004=KSC$UPDATE File=KSC$COMMANDS2.:E05TSI                         WED 07/30/97 01:48 Page:574
         4 000173   400004 200012                    ADSC9   4,,PR4                   cn=1,n=*X2
         4 000174   200013 000004                    ADSC9   LINK_LIST,A,AUTO         cn=0,n=4

     3068    11180    5                    END;

  11180  4 000175   200032 235100                    LDA     J,,AUTO
         4 000176   000001 035007                    ADLA    1,DL
         4 000177   200032 755100                    STA     J,,AUTO
         4 000200   200032 236100                    LDQ     J,,AUTO
         4 000201   000204 604000 4                  TMI     s:11182
         4 000202   200011 116100                    CMPQ    NRLINKS,,AUTO
         4 000203   000157 604000 4                  TMI     s:11179

     3069    11181    4              END;

     3070    11182    3           END;

  11182  4 000204   200027 235100                    LDA     I,,AUTO
         4 000205   000001 035007                    ADLA    1,DL
         4 000206   200027 755100                    STA     I,,AUTO
         4 000207   200003 470500                    LDP0    @TOP$,,AUTO
         4 000210   000000 471500                    LDP1    0,,PR0
         4 000211   100001 236100                    LDQ     1,,PR1
         4 000212   000022 772000                    QRL     18
         4 000213   200027 116100                    CMPQ    I,,AUTO
         4 000214   000216 600000 4                  TZE     s:11184
         4 000215   000110 603000 4                  TRC     s:11169

     3071    11183
     3072    11184    2           IF NODETYPE = %KS_HOST OR NODETYPE = %KS_ME THEN

  11184  4 000216   200035 235100                    LDA     NODETYPE,,AUTO
         4 000217   000001 115007                    CMPA    1,DL
         4 000220   000223 600000 4                  TZE     s:11185
         4 000221   000003 115007                    CMPA    3,DL
         4 000222   000226 601000 4                  TNZ     s:11187

PL6.E3A0      #004=KSC$UPDATE File=KSC$COMMANDS2.:E05TSI                         WED 07/30/97 01:48 Page:575
     3073    11185    2              NEW_CLASS = %KS_HOST;

  11185  4 000223   000001 235007                    LDA     1,DL
         4 000224   200036 755100                    STA     NEW_CLASS,,AUTO
         4 000225   000230 710000 4                  TRA     s:11188

     3074    11186    2           ELSE
     3075    11187    2              NEW_CLASS = %KS_FEP;

  11187  4 000226   000002 235007                    LDA     2,DL
         4 000227   200036 755100                    STA     NEW_CLASS,,AUTO

     3076    11188    2           IF KS_NETWORK.NODE.TYPE(FEX) = %KS_HOST OR

  11188  4 000230   200034 236100                    LDQ     FEX,,AUTO
         4 000231   000005 402007                    MPY     5,DL
         4 000232   000001 235006 xsym               LDA     KS_NETWORK+1,QL
         4 000233   000001 115007                    CMPA    1,DL
         4 000234   000237 600000 4                  TZE     s:11190
         4 000235   000003 115007                    CMPA    3,DL
         4 000236   000242 601000 4                  TNZ     s:11192

     3077    11189    2              KS_NETWORK.NODE.TYPE(FEX) = %KS_ME THEN
     3078    11190    2              OLD_CLASS = %KS_HOST;

  11190  4 000237   000001 235007                    LDA     1,DL
         4 000240   200037 755100                    STA     OLD_CLASS,,AUTO
         4 000241   000244 710000 4                  TRA     s:11193

     3079    11191    2           ELSE
     3080    11192    2              OLD_CLASS = %KS_FEP;

  11192  4 000242   000002 235007                    LDA     2,DL
         4 000243   200037 755100                    STA     OLD_CLASS,,AUTO

     3081    11193    2           IF OLD_CLASS ~= NEW_CLASS THEN

PL6.E3A0      #004=KSC$UPDATE File=KSC$COMMANDS2.:E05TSI                         WED 07/30/97 01:48 Page:576
  11193  4 000244   200037 236100                    LDQ     OLD_CLASS,,AUTO
         4 000245   200036 116100                    CMPQ    NEW_CLASS,,AUTO
         4 000246   000267 600000 4                  TZE     s:11206

     3082    11194    3              DO;

     3083    11195    3                 CALL KSE$ERRMSG (%E$KS_CANT_INTCHG_FEP_AND_HOST);

  11195  4 000247   000012 630400 5                  EPPR0   10
         4 000250   000017 631400 xsym               EPPR1   B_VECTNIL+15
         4 000251   000000 701000 xent               TSX1    KSE$ERRMSG
         4 000252   000000 011000                    NOP     0

     3084    11196                      /*E* ERROR: KSN-E$KS_CANT_INTCHG_FEP_AND_HOST-0
     3085    11197        MESSAGE: It is illegal to update a fep type node to a host type node or a host type
             11197         node to a fep type node.*/
     3086    11198    3                 KS_SUB_BUF_1.COUNT = SIZEC(KS_NETWORK.NODE.NODE(FEX));

  11198  4 000253   010000 236003                    LDQ     4096,DU
         4 000254   000000 552040 xsym               STBQ    KS_SUB_BUF_1,'40'O

     3087    11199    3                 KS_SUB_BUF_1.TEXT = KS_NETWORK.NODE.NODE(I);

  11199  4 000255   200027 236100                    LDQ     I,,AUTO
         4 000256   000024 402007                    MPY     20,DL
         4 000257   040000 100406                    MLR     fill='040'O
         4 000260   000002 000010 xsym               ADSC9   KS_NETWORK+2,Q           cn=0,n=8
         4 000261   000000 200037 xsym               ADSC9   KS_SUB_BUF_1             cn=1,n=31

     3088    11200    3                 CALL KSE$ERRMSG (%E$KS_NO_UPDATE,VECTOR(KS_SUB_BUF_1));

  11200  4 000262   000017 630400 5                  EPPR0   15
         4 000263   000020 631400 xsym               EPPR1   B_VECTNIL+16
         4 000264   000000 701000 xent               TSX1    KSE$ERRMSG
         4 000265   000000 011000                    NOP     0

     3089    11201                      /*E* ERROR: KSN-E$KS_NO_UPDATE-0
PL6.E3A0      #004=KSC$UPDATE File=KSC$COMMANDS2.:E05TSI                         WED 07/30/97 01:48 Page:577
     3090    11202                           MESSAGE: Node %U1 has not been updated. */
     3091    11203    3                 RETURN;

  11203  4 000266   000000 702200 xent               TSX2  ! X66_ARET

     3092    11204    3              END;
     3093    11205
     3094    11206    2           IF NEW_CLASS = %KS_HOST THEN

  11206  4 000267   200036 235100                    LDA     NEW_CLASS,,AUTO
         4 000270   000001 115007                    CMPA    1,DL
         4 000271   000341 601000 4                  TNZ     s:11230

     3095    11207    3              DO;

     3096    11208    3                 IF CONTROL_NODE ~= ' ' THEN

  11208  4 000272   200040 237100                    LDAQ    CONTROL_NODE,,AUTO
         4 000273   000022 117000 5                  CMPAQ   18
         4 000274   000315 600000 4                  TZE     s:11218

     3097    11209    4                    DO;

     3098    11210    4                       CALL KSE$ERRMSG (%E$KS_CNTRL_NOSENSE_ON_HOST);

  11210  4 000275   000025 630400 5                  EPPR0   21
         4 000276   000017 631400 xsym               EPPR1   B_VECTNIL+15
         4 000277   000000 701000 xent               TSX1    KSE$ERRMSG
         4 000300   000000 011000                    NOP     0

     3099    11211                            /*E* ERROR: KSN-E$KS_CNTRL_NOSENSE_ON_HOST
     3100    11212                    MESSAGE: It makes no sense to specify a control node on a host node. */
     3101    11213    4                       KS_SUB_BUF_1.COUNT = SIZEC(KS_NETWORK.NODE.NODE(FEX));

  11213  4 000301   010000 236003                    LDQ     4096,DU
         4 000302   000000 552040 xsym               STBQ    KS_SUB_BUF_1,'40'O

PL6.E3A0      #004=KSC$UPDATE File=KSC$COMMANDS2.:E05TSI                         WED 07/30/97 01:48 Page:578
     3102    11214    4                       KS_SUB_BUF_1.TEXT = KS_NETWORK.NODE.NODE(I);

  11214  4 000303   200027 236100                    LDQ     I,,AUTO
         4 000304   000024 402007                    MPY     20,DL
         4 000305   040000 100406                    MLR     fill='040'O
         4 000306   000002 000010 xsym               ADSC9   KS_NETWORK+2,Q           cn=0,n=8
         4 000307   000000 200037 xsym               ADSC9   KS_SUB_BUF_1             cn=1,n=31

     3103    11215    4                       CALL KSE$ERRMSG (%E$KS_NO_UPDATE,VECTOR(KS_SUB_BUF_1));

  11215  4 000310   000017 630400 5                  EPPR0   15
         4 000311   000020 631400 xsym               EPPR1   B_VECTNIL+16
         4 000312   000000 701000 xent               TSX1    KSE$ERRMSG
         4 000313   000000 011000                    NOP     0

     3104    11216    4                       RETURN;

  11216  4 000314   000000 702200 xent               TSX2  ! X66_ARET

     3105    11217    4                    END;
     3106    11218    3                 IF KS_LINK.LINKS# + NRLINKS ~= 0 THEN

  11218  4 000315   000000 473400 xsym               LDP3    KS_MSGBUF$
         4 000316   300000 236100                    LDQ     0,,PR3
         4 000317   200011 036100                    ADLQ    NRLINKS,,AUTO
         4 000320   000341 600000 4                  TZE     s:11230

     3107    11219    4                    DO;

     3108    11220    4                       CALL KSE$ERRMSG (%E$KS_LINKS_NOSENSE_ON_HOST);

  11220  4 000321   000027 630400 5                  EPPR0   23
         4 000322   000017 631400 xsym               EPPR1   B_VECTNIL+15
         4 000323   000000 701000 xent               TSX1    KSE$ERRMSG
         4 000324   000000 011000                    NOP     0

     3109    11221                            /*E* ERROR: KSN-E$KS_LINKS_NOSENSE_ON_HOST-0
PL6.E3A0      #004=KSC$UPDATE File=KSC$COMMANDS2.:E05TSI                         WED 07/30/97 01:48 Page:579
     3110    11222                            MESSAGE: It makes no sense to specify a link on a host node. */
     3111    11223    4                       KS_SUB_BUF_1.COUNT = SIZEC(KS_NETWORK.NODE.NODE(FEX));

  11223  4 000325   010000 236003                    LDQ     4096,DU
         4 000326   000000 552040 xsym               STBQ    KS_SUB_BUF_1,'40'O

     3112    11224    4                       KS_SUB_BUF_1.TEXT = KS_NETWORK.NODE.NODE(I);

  11224  4 000327   200027 236100                    LDQ     I,,AUTO
         4 000330   000024 402007                    MPY     20,DL
         4 000331   040000 100406                    MLR     fill='040'O
         4 000332   000002 000010 xsym               ADSC9   KS_NETWORK+2,Q           cn=0,n=8
         4 000333   000000 200037 xsym               ADSC9   KS_SUB_BUF_1             cn=1,n=31

     3113    11225    4                       CALL KSE$ERRMSG (%E$KS_NO_UPDATE,VECTOR(KS_SUB_BUF_1));

  11225  4 000334   000017 630400 5                  EPPR0   15
         4 000335   000020 631400 xsym               EPPR1   B_VECTNIL+16
         4 000336   000000 701000 xent               TSX1    KSE$ERRMSG
         4 000337   000000 011000                    NOP     0

     3114    11226    4                       RETURN;

  11226  4 000340   000000 702200 xent               TSX2  ! X66_ARET

     3115    11227    4                    END;
     3116    11228    3              END;
     3117    11229
     3118    11230    2           IF NODENAME ~= KS_NETWORK.NODE.NODE(FEX) THEN

  11230  4 000341   200034 236100                    LDQ     FEX,,AUTO
         4 000342   000024 402007                    MPY     20,DL
         4 000343   040006 106500                    CMPC    fill='040'O
         4 000344   200006 000010                    ADSC9   NODENAME,,AUTO           cn=0,n=8
         4 000345   000002 000010 xsym               ADSC9   KS_NETWORK+2,Q           cn=0,n=8
         4 000346   000401 600000 4                  TZE     s:11241

PL6.E3A0      #004=KSC$UPDATE File=KSC$COMMANDS2.:E05TSI                         WED 07/30/97 01:48 Page:580
     3119    11231    3              DO I = 0 TO KS_NETWORK.NODE#;

  11231  4 000347   200027 450100                    STZ     I,,AUTO
         4 000350   000376 710000 4                  TRA     s:11239+3

     3120    11232    3                 IF KS_NETWORK.NODE.NODE(I) = NODENAME THEN

  11232  4 000351   200027 236100                    LDQ     I,,AUTO
         4 000352   000024 402007                    MPY     20,DL
         4 000353   040100 106406                    CMPC    fill='040'O
         4 000354   000002 000010 xsym               ADSC9   KS_NETWORK+2,Q           cn=0,n=8
         4 000355   200006 000010                    ADSC9   NODENAME,,AUTO           cn=0,n=8
         4 000356   000373 601000 4                  TNZ     s:11239

     3121    11233    4                    DO;

     3122    11234    4                       KS_SUB_BUF_1.COUNT = SIZEC(KS_NETWORK.NODE.NODE(I));

  11234  4 000357   010000 236003                    LDQ     4096,DU
         4 000360   000000 552040 xsym               STBQ    KS_SUB_BUF_1,'40'O

     3123    11235    4                       KS_SUB_BUF_1.TEXT = KS_NETWORK.NODE.NODE(I);

  11235  4 000361   200027 236100                    LDQ     I,,AUTO
         4 000362   000024 402007                    MPY     20,DL
         4 000363   040000 100406                    MLR     fill='040'O
         4 000364   000002 000010 xsym               ADSC9   KS_NETWORK+2,Q           cn=0,n=8
         4 000365   000000 200037 xsym               ADSC9   KS_SUB_BUF_1             cn=1,n=31

     3124    11236    4                       CALL KSE$ERRMSG(%E$KS_DUP_NODE,VECTOR(KS_SUB_BUF_1));

  11236  4 000366   000031 630400 5                  EPPR0   25
         4 000367   000020 631400 xsym               EPPR1   B_VECTNIL+16
         4 000370   000000 701000 xent               TSX1    KSE$ERRMSG
         4 000371   000000 011000                    NOP     0

     3125    11237    4                       RETURN;
PL6.E3A0      #004=KSC$UPDATE File=KSC$COMMANDS2.:E05TSI                         WED 07/30/97 01:48 Page:581

  11237  4 000372   000000 702200 xent               TSX2  ! X66_ARET

     3126    11238    4                    END;
     3127    11239    3              END;

  11239  4 000373   200027 235100                    LDA     I,,AUTO
         4 000374   000001 035007                    ADLA    1,DL
         4 000375   200027 755100                    STA     I,,AUTO
         4 000376   000000 236000 xsym               LDQ     KS_NETWORK
         4 000377   200027 116100                    CMPQ    I,,AUTO
         4 000400   000351 603000 4                  TRC     s:11232

     3128    11240
     3129    11241    2           IF NODETYPE = %KS_RFEP AND (KS_LINK.LINKS# + NRLINKS = 0) THEN

  11241  4 000401   200035 235100                    LDA     NODETYPE,,AUTO
         4 000402   000005 115007                    CMPA    5,DL
         4 000403   000430 601000 4                  TNZ     s:11249
         4 000404   000000 470400 xsym               LDP0    KS_MSGBUF$
         4 000405   000000 236100                    LDQ     0,,PR0
         4 000406   200011 036100                    ADLQ    NRLINKS,,AUTO
         4 000407   000430 601000 4                  TNZ     s:11249

     3130    11242    3              DO;

     3131    11243    3                 KS_SUB_BUF_1.TEXT = KS_NETWORK.NODE.NODE(I);

  11243  4 000410   200027 236100                    LDQ     I,,AUTO
         4 000411   000024 402007                    MPY     20,DL
         4 000412   040000 100406                    MLR     fill='040'O
         4 000413   000002 000010 xsym               ADSC9   KS_NETWORK+2,Q           cn=0,n=8
         4 000414   000000 200037 xsym               ADSC9   KS_SUB_BUF_1             cn=1,n=31

     3132    11244    3                 KS_SUB_BUF_1.COUNT = SIZEC(KS_NETWORK.NODE.NODE(I));

  11244  4 000415   010000 236003                    LDQ     4096,DU
PL6.E3A0      #004=KSC$UPDATE File=KSC$COMMANDS2.:E05TSI                         WED 07/30/97 01:48 Page:582
         4 000416   000000 552040 xsym               STBQ    KS_SUB_BUF_1,'40'O

     3133    11245    3                 CALL KSE$ERRMSG(%E$KS_RFEP_WITH_NO_LINKS);

  11245  4 000417   000034 630400 5                  EPPR0   28
         4 000420   000017 631400 xsym               EPPR1   B_VECTNIL+15
         4 000421   000000 701000 xent               TSX1    KSE$ERRMSG
         4 000422   000000 011000                    NOP     0

     3134    11246    3                 CALL KSE$ERRMSG(%E$KS_NO_UPDATE,VECTOR(KS_SUB_BUF_1));

  11246  4 000423   000017 630400 5                  EPPR0   15
         4 000424   000020 631400 xsym               EPPR1   B_VECTNIL+16
         4 000425   000000 701000 xent               TSX1    KSE$ERRMSG
         4 000426   000000 011000                    NOP     0

     3135    11247    3                 RETURN;

  11247  4 000427   000000 702200 xent               TSX2  ! X66_ARET

     3136    11248    3              END;
     3137    11249    3           DO I = 0 TO KS_NETWORK.NODE#;

  11249  4 000430   200027 450100                    STZ     I,,AUTO
         4 000431   000554 710000 4                  TRA     s:11278+3

     3138    11250    3              IF I~= FEX THEN

  11250  4 000432   200027 236100                    LDQ     I,,AUTO
         4 000433   200034 116100                    CMPQ    FEX,,AUTO
         4 000434   000551 600000 4                  TZE     s:11278

     3139    11251    4                 DO;

     3140    11252    4                    IF NEW_CLASS = %KS_HOST AND KS_NETWORK.NODE.NODE(FEX) ~= NODENAME
             11252                             AND

PL6.E3A0      #004=KSC$UPDATE File=KSC$COMMANDS2.:E05TSI                         WED 07/30/97 01:48 Page:583
  11252  4 000435   200036 235100                    LDA     NEW_CLASS,,AUTO
         4 000436   000001 115007                    CMPA    1,DL
         4 000437   000505 601000 4                  TNZ     s:11265
         4 000440   200034 236100                    LDQ     FEX,,AUTO
         4 000441   000024 402007                    MPY     20,DL
         4 000442   040100 106406                    CMPC    fill='040'O
         4 000443   000002 000010 xsym               ADSC9   KS_NETWORK+2,Q           cn=0,n=8
         4 000444   200006 000010                    ADSC9   NODENAME,,AUTO           cn=0,n=8
         4 000445   000505 600000 4                  TZE     s:11265
         4 000446   200027 236100                    LDQ     I,,AUTO
         4 000447   000024 402007                    MPY     20,DL
         4 000450   200042 756100                    STQ     CONTROL_NODE+2,,AUTO
         4 000451   200034 236100                    LDQ     FEX,,AUTO
         4 000452   000024 402007                    MPY     20,DL
         4 000453   200042 235100                    LDA     CONTROL_NODE+2,,AUTO
         4 000454   040006 106405                    CMPC    fill='040'O
         4 000455   000004 000010 xsym               ADSC9   KS_NETWORK+4,A           cn=0,n=8
         4 000456   000002 000010 xsym               ADSC9   KS_NETWORK+2,Q           cn=0,n=8
         4 000457   000505 601000 4                  TNZ     s:11265

     3141    11253    4                      KS_NETWORK.NODE.CONTROL_NODE(I) = KS_NETWORK.NODE.NODE(FEX) THEN
     3142    11254    5                       DO;

     3143    11255    5                          KS_SUB_BUF_1.TEXT = KS_NETWORK.NODE.NODE(I);

  11255  4 000460   200027 236100                    LDQ     I,,AUTO
         4 000461   000024 402007                    MPY     20,DL
         4 000462   040000 100406                    MLR     fill='040'O
         4 000463   000002 000010 xsym               ADSC9   KS_NETWORK+2,Q           cn=0,n=8
         4 000464   000000 200037 xsym               ADSC9   KS_SUB_BUF_1             cn=1,n=31

     3144    11256    5                          KS_SUB_BUF_2.TEXT = KS_NETWORK.NODE.CONTROL_NODE(I);

  11256  4 000465   040000 100406                    MLR     fill='040'O
         4 000466   000004 000010 xsym               ADSC9   KS_NETWORK+4,Q           cn=0,n=8
         4 000467   000000 200037 xsym               ADSC9   KS_SUB_BUF_2             cn=1,n=31

PL6.E3A0      #004=KSC$UPDATE File=KSC$COMMANDS2.:E05TSI                         WED 07/30/97 01:48 Page:584
     3145    11257    5                          KS_SUB_BUF_3.TEXT = KS_NETWORK.NODE.NODE(FEX);

  11257  4 000470   200034 236100                    LDQ     FEX,,AUTO
         4 000471   000024 402007                    MPY     20,DL
         4 000472   040000 100406                    MLR     fill='040'O
         4 000473   000002 000010 xsym               ADSC9   KS_NETWORK+2,Q           cn=0,n=8
         4 000474   000000 200037 xsym               ADSC9   KS_SUB_BUF_3             cn=1,n=31

     3146    11258    5                          KS_SUB_BUF_1.COUNT = SIZEC(KS_NETWORK.NODE.NODE(I));

  11258  4 000475   010000 236003                    LDQ     4096,DU
         4 000476   000000 552040 xsym               STBQ    KS_SUB_BUF_1,'40'O

     3147    11259    5                          KS_SUB_BUF_2.COUNT = SIZEC(KS_NETWORK.NODE.CONTROL_NODE(I));

  11259  4 000477   000000 552040 xsym               STBQ    KS_SUB_BUF_2,'40'O

     3148    11260    5                          KS_SUB_BUF_3.COUNT = SIZEC(KS_NETWORK.NODE.NODE(FEX));

  11260  4 000500   000000 552040 xsym               STBQ    KS_SUB_BUF_3,'40'O

     3149    11261    5                          CALL KSE$ERRMSG (%E$KS_CONTROLS_NAME_CHANGED,VECTOR(
             11261                                  KS_SUB_BUF_1),VECTOR(KS_SUB_BUF_2),VECTOR(KS_SUB_BUF_3));

  11261  4 000501   000043 630400 5                  EPPR0   35
         4 000502   000022 631400 xsym               EPPR1   B_VECTNIL+18
         4 000503   000000 701000 xent               TSX1    KSE$ERRMSG
         4 000504   000000 011000                    NOP     0

     3150    11262        /*E* ERROR: KSN-E$KS_CONTROLS_NAME_CHANGED-0
     3151    11263         MESSAGE: WARNING - Node %U1 knows this node by the name %U2.  Its control node may
             11263        need to be changed to %U3. */
     3152    11264    5                       END;

     3153    11265    4                    IF NEW_CLASS = %KS_FEP AND KS_NETWORK.NODE.CONTROL_NODE(I) =
             11265                             NODENAME THEN

PL6.E3A0      #004=KSC$UPDATE File=KSC$COMMANDS2.:E05TSI                         WED 07/30/97 01:48 Page:585
  11265  4 000505   200036 235100                    LDA     NEW_CLASS,,AUTO
         4 000506   000002 115007                    CMPA    2,DL
         4 000507   000525 601000 4                  TNZ     s:11270
         4 000510   200027 236100                    LDQ     I,,AUTO
         4 000511   000024 402007                    MPY     20,DL
         4 000512   040100 106406                    CMPC    fill='040'O
         4 000513   000004 000010 xsym               ADSC9   KS_NETWORK+4,Q           cn=0,n=8
         4 000514   200006 000010                    ADSC9   NODENAME,,AUTO           cn=0,n=8
         4 000515   000525 601000 4                  TNZ     s:11270

     3154    11266    5                       DO;

     3155    11267    5                          KS_SUB_BUF_1.TEXT = KS_NETWORK.NODE.NODE(I);

  11267  4 000516   040000 100406                    MLR     fill='040'O
         4 000517   000002 000010 xsym               ADSC9   KS_NETWORK+2,Q           cn=0,n=8
         4 000520   000000 200037 xsym               ADSC9   KS_SUB_BUF_1             cn=1,n=31

     3156    11268    5                          CALL KSE$ERRMSG (%E$KS_NODE_NOT_CNTRL,VECTOR(KS_SUB_BUF_1));

  11268  4 000521   000047 630400 5                  EPPR0   39
         4 000522   000020 631400 xsym               EPPR1   B_VECTNIL+16
         4 000523   000000 701000 xent               TSX1    KSE$ERRMSG
         4 000524   000000 011000                    NOP     0

     3157    11269    5                       END;

     3158    11270    4                    IF CONTROL_NODE = KS_NETWORK.NODE.NODE(I) AND

  11270  4 000525   200027 236100                    LDQ     I,,AUTO
         4 000526   000024 402007                    MPY     20,DL
         4 000527   040006 106500                    CMPC    fill='040'O
         4 000530   200040 000010                    ADSC9   CONTROL_NODE,,AUTO       cn=0,n=8
         4 000531   000002 000010 xsym               ADSC9   KS_NETWORK+2,Q           cn=0,n=8
         4 000532   000551 601000 4                  TNZ     s:11278
         4 000533   200040 237100                    LDAQ    CONTROL_NODE,,AUTO
         4 000534   000022 117000 5                  CMPAQ   18
PL6.E3A0      #004=KSC$UPDATE File=KSC$COMMANDS2.:E05TSI                         WED 07/30/97 01:48 Page:586
         4 000535   000551 600000 4                  TZE     s:11278
         4 000536   200027 236100                    LDQ     I,,AUTO
         4 000537   000005 402007                    MPY     5,DL
         4 000540   000001 235006 xsym               LDA     KS_NETWORK+1,QL
         4 000541   000001 115007                    CMPA    1,DL
         4 000542   000551 600000 4                  TZE     s:11278
         4 000543   000003 115007                    CMPA    3,DL
         4 000544   000551 600000 4                  TZE     s:11278

     3159    11271    4                       CONTROL_NODE ~= ' ' AND
     3160    11272    4                      (KS_NETWORK.NODE.TYPE(I) ~= %KS_HOST AND
     3161    11273    4                      (KS_NETWORK.NODE.TYPE(I) ~= %KS_ME)) THEN
     3162    11274    5                       DO;

     3163    11275    5                          CALL KSE$ERRMSG (%E$KS_CNTRL_NOT_HOST);

  11275  4 000545   000051 630400 5                  EPPR0   41
         4 000546   000017 631400 xsym               EPPR1   B_VECTNIL+15
         4 000547   000000 701000 xent               TSX1    KSE$ERRMSG
         4 000550   000000 011000                    NOP     0

     3164    11276    5                       END;

     3165    11277    4                 END;

     3166    11278    3           END;

  11278  4 000551   200027 235100                    LDA     I,,AUTO
         4 000552   000001 035007                    ADLA    1,DL
         4 000553   200027 755100                    STA     I,,AUTO
         4 000554   000000 236000 xsym               LDQ     KS_NETWORK
         4 000555   200027 116100                    CMPQ    I,,AUTO
         4 000556   000432 603000 4                  TRC     s:11250

     3167    11279    2           IF KS_NODE = FEX THEN

  11279  4 000557   000000 236000 xsym               LDQ     KS_NODE
PL6.E3A0      #004=KSC$UPDATE File=KSC$COMMANDS2.:E05TSI                         WED 07/30/97 01:48 Page:587
         4 000560   000571 604000 4                  TMI     s:11284
         4 000561   200034 116100                    CMPQ    FEX,,AUTO
         4 000562   000571 601000 4                  TNZ     s:11284

     3168    11280    3              DO;

     3169    11281    3                 KS_NODENAME = NODENAME;

  11281  4 000563   200006 237100                    LDAQ    NODENAME,,AUTO
         4 000564   000000 755000 xsym               STA     KS_NODENAME
         4 000565   000001 756000 xsym               STQ     KS_NODENAME+1

     3170    11282    3                 PROMPT.NODENAME = NODENAME;

  11282  4 000566   200006 237100                    LDAQ    NODENAME,,AUTO
         4 000567   000000 755000 xsym               STA     PROMPT
         4 000570   000001 756000 xsym               STQ     PROMPT+1

     3171    11283    3              END;

     3172    11284    2           KS_NETWORK.NODE.TYPE(FEX) = NODETYPE;

  11284  4 000571   200034 236100                    LDQ     FEX,,AUTO
         4 000572   000005 402007                    MPY     5,DL
         4 000573   200035 235100                    LDA     NODETYPE,,AUTO
         4 000574   000001 755006 xsym               STA     KS_NETWORK+1,QL

     3173    11285    2           KS_RFEP.NODE.TYPE(FEX) = NODETYPE;

  11285  4 000575   000326 755006 2                  STA     KS_RFEP+1,QL

     3174    11286    2           IF NODETYPE = %KS_RFEP THEN

  11286  4 000576   000005 115007                    CMPA    5,DL
         4 000577   000602 601000 4                  TNZ     s:11288

     3175    11287    2              KS_NETWORK.NODE.TYPE(FEX) = %KS_FEP;
PL6.E3A0      #004=KSC$UPDATE File=KSC$COMMANDS2.:E05TSI                         WED 07/30/97 01:48 Page:588

  11287  4 000600   000002 235007                    LDA     2,DL
         4 000601   000001 755006 xsym               STA     KS_NETWORK+1,QL

     3176    11288    2           KS_NETWORK.NODE.NODE(FEX) = NODENAME;

  11288  4 000602   000000 620006                    EAX0    0,QL
         4 000603   000000 621006                    EAX1    0,QL
         4 000604   200006 237100                    LDAQ    NODENAME,,AUTO
         4 000605   000002 755010 xsym               STA     KS_NETWORK+2,X0
         4 000606   000003 756011 xsym               STQ     KS_NETWORK+3,X1

     3177    11289    2           KS_NETWORK.NODE.CONTROL_NODE(FEX) = CONTROL_NODE;

  11289  4 000607   200040 237100                    LDAQ    CONTROL_NODE,,AUTO
         4 000610   000004 755010 xsym               STA     KS_NETWORK+4,X0
         4 000611   000005 756010 xsym               STQ     KS_NETWORK+5,X0

     3178    11290    2           WRITE_NETCON.KEY_ = VECTOR(KS_NETWORK_KEY);

  11290  4 000612   000052 237000 5                  LDAQ    42
         4 000613   002762 757000 2                  STAQ    WRITE_NETCON+2

     3179    11291    2           WRITE_NETCON.BUF_ = VECTOR(KS_NETWORK);

  11291  4 000614   000054 237000 5                  LDAQ    44
         4 000615   002764 757000 2                  STAQ    WRITE_NETCON+4

     3180    11292    2           WRITE_NETCON.BUF_.BOUND = SIZEV(KS_NETWORK) - SIZEC(KS_NETWORK.NODE) +

  11292  4 000616   000000 236000 xsym               LDQ     KS_NETWORK
         4 000617   000024 402007                    MPY     20,DL
         4 000620   000003 036007                    ADLQ    3,DL
         4 000621   000020 736000                    QLS     16
         4 000622   002764 676000 2                  ERQ     WRITE_NETCON+4
         4 000623   000034 376000 xsym               ANQ     B_VECTNIL+28
         4 000624   002764 656000 2                  ERSQ    WRITE_NETCON+4
PL6.E3A0      #004=KSC$UPDATE File=KSC$COMMANDS2.:E05TSI                         WED 07/30/97 01:48 Page:589

     3181    11293    2                 KS_NETWORK.NODE#*SIZEC(KS_NETWORK.NODE(0));
     3182    11294    2           CALL M$WRITE(WRITE_NETCON)

  11294  4 000625   002760 630400 2                  EPPR0   WRITE_NETCON
         4 000626   440001 713400                    CLIMB   alt,write
         4 000627   401400 401760                    pmme    nvectors=4
         4 000630   000632 702000 4                  TSX2    s:11296
         4 000631   000636 710000 4                  TRA     s:11298

     3183    11295    3              WHENALTRETURN DO;

     3184    11296    3                 CALL KSE$ERRMSG(0);

  11296  4 000632   000056 630400 5                  EPPR0   46
         4 000633   000017 631400 xsym               EPPR1   B_VECTNIL+15
         4 000634   000000 701000 xent               TSX1    KSE$ERRMSG
         4 000635   000000 011000                    NOP     0

     3185    11297    3              END;

     3186    11298    2           WRITE_NETCON.KEY_ = VECTOR(KS_RFEP_KEY);

  11298  4 000636   000002 237000 5                  LDAQ    2
         4 000637   002762 757000 2                  STAQ    WRITE_NETCON+2

     3187    11299    2           WRITE_NETCON.BUF_ = VECTOR(KS_RFEP);

  11299  4 000640   000004 237000 5                  LDAQ    4
         4 000641   002764 757000 2                  STAQ    WRITE_NETCON+4

     3188    11300    2           WRITE_NETCON.BUF_.BOUND = SIZEV(KS_RFEP) - SIZEC(KS_RFEP.NODE)

  11300  4 000642   000325 236000 2                  LDQ     KS_RFEP
         4 000643   000024 402007                    MPY     20,DL
         4 000644   000003 036007                    ADLQ    3,DL
         4 000645   000020 736000                    QLS     16
PL6.E3A0      #004=KSC$UPDATE File=KSC$COMMANDS2.:E05TSI                         WED 07/30/97 01:48 Page:590
         4 000646   002764 676000 2                  ERQ     WRITE_NETCON+4
         4 000647   000034 376000 xsym               ANQ     B_VECTNIL+28
         4 000650   002764 656000 2                  ERSQ    WRITE_NETCON+4

     3189    11301    2                                + KS_RFEP.NODE# * SIZEC(KS_RFEP.NODE(0));
     3190    11302    2           CALL M$WRITE(WRITE_NETCON)

  11302  4 000651   002760 630400 2                  EPPR0   WRITE_NETCON
         4 000652   440001 713400                    CLIMB   alt,write
         4 000653   401400 401760                    pmme    nvectors=4
         4 000654   000656 702000 4                  TSX2    s:11304
         4 000655   000662 710000 4                  TRA     s:11307

     3191    11303    3              WHENALTRETURN DO;

     3192    11304    3                 CALL KSE$ERRMSG(0);

  11304  4 000656   000056 630400 5                  EPPR0   46
         4 000657   000017 631400 xsym               EPPR1   B_VECTNIL+15
         4 000660   000000 701000 xent               TSX1    KSE$ERRMSG
         4 000661   000000 011000                    NOP     0

     3193    11305    3              END;

     3194    11306
     3195    11307    3           DO I = 0 TO NRLINKS - 1;

  11307  4 000662   200027 450100                    STZ     I,,AUTO
         4 000663   000761 710000 4                  TRA     s:11328+3

     3196    11308    3              K = 3;

  11308  4 000664   000003 235007                    LDA     3,DL
         4 000665   200026 755100                    STA     K,,AUTO

     3197    11309    3              TEMP_LINK = '0'B;

PL6.E3A0      #004=KSC$UPDATE File=KSC$COMMANDS2.:E05TSI                         WED 07/30/97 01:48 Page:591
  11309  4 000666   000000 220003                    LDX0    0,DU
         4 000667   000323 740000 2                  STX0    TEMP_LINK

     3198    11310    4              DO L = 3 DOWNTO 0;

  11310  4 000670   200030 755100                    STA     L,,AUTO

     3199    11311    4                 IF SUBSTR(LINK_LIST(I),L,1) ~= ' ' THEN

  11311  4 000671   200027 236100                    LDQ     I,,AUTO
         4 000672   000002 736000                    QLS     2
         4 000673   200030 036100                    ADLQ    L,,AUTO
         4 000674   040000 106506                    CMPC    fill='040'O
         4 000675   200013 000001                    ADSC9   LINK_LIST,Q,AUTO         cn=0,n=1
         4 000676   000035 000001 xsym               ADSC9   B_VECTNIL+29             cn=0,n=1
         4 000677   000717 600000 4                  TZE     s:11317

     3200    11312    5                    DO;

     3201    11313    5                       CALL INDEX (TEMP,SUBSTR(LINK_LIST(I),L,1),HEX_CHARS);

  11313  4 000700   200027 236100                    LDQ     I,,AUTO
         4 000701   000002 736000                    QLS     2
         4 000702   200030 036100                    ADLQ    L,,AUTO
         4 000703   000106 124400                    SCM     mask='000'O
         4 000704   000000 000020 1                  ADSC9   HEX_CHARS                cn=0,n=16
         4 000705   200013 000001                    ADSC9   LINK_LIST,Q,AUTO         cn=0,n=1
         4 000706   200033 000100                    ARG     TEMP,,AUTO

     3202    11314    5                       HEX$(K)->HEX = TEMP;

  11314  4 000707   200026 720100                    LXL0    K,,AUTO
         4 000710   000317 470410 2                  LDP0    HEX$,X0
         4 000711   003100 061500                    CSR     bolr='003'O
         4 000712   200033 000044                    BDSC    TEMP,,AUTO               by=0,bit=0,n=36
         4 000713   000000 000004                    BDSC    0,,PR0                   by=0,bit=0,n=4

PL6.E3A0      #004=KSC$UPDATE File=KSC$COMMANDS2.:E05TSI                         WED 07/30/97 01:48 Page:592
     3203    11315    5                       K = K - 1;

  11315  4 000714   200026 235100                    LDA     K,,AUTO
         4 000715   000001 135007                    SBLA    1,DL
         4 000716   200026 755100                    STA     K,,AUTO

     3204    11316    5                    END;

     3205    11317    4              END;

  11317  4 000717   000001 336007                    LCQ     1,DL
         4 000720   200030 056100                    ASQ     L,,AUTO
         4 000721   000671 605000 4                  TPL     s:11311

     3206    11318    4   LINK_LOOP: DO J = 0 TO KS_LINK.LINKS# - 1;

  11318  4 000722   200032 450100       LINK_LOOP    STZ     J,,AUTO
         4 000723   000736 710000 4                  TRA     s:11321+3

     3207    11319    4                 IF TEMP_LINK = KS_LINK.CHANNEL(J) THEN

  11319  4 000724   200032 235100                    LDA     J,,AUTO
         4 000725   000001 735000                    ALS     1
         4 000726   000000 470400 xsym               LDP0    KS_MSGBUF$
         4 000727   000105 106400                    CMPC    fill='000'O
         4 000730   000323 000002 2                  ADSC9   TEMP_LINK                cn=0,n=2
         4 000731   000001 000002                    ADSC9   1,A,PR0                  cn=0,n=2
         4 000732   000742 600000 4                  TZE     s:11323

     3208    11320    4                    EXIT LINK_LOOP;
     3209    11321    4              END;

  11321  4 000733   200032 236100                    LDQ     J,,AUTO
         4 000734   000001 036007                    ADLQ    1,DL
         4 000735   200032 756100                    STQ     J,,AUTO
         4 000736   000000 470400 xsym               LDP0    KS_MSGBUF$
         4 000737   200032 236100                    LDQ     J,,AUTO
PL6.E3A0      #004=KSC$UPDATE File=KSC$COMMANDS2.:E05TSI                         WED 07/30/97 01:48 Page:593
         4 000740   000000 116100                    CMPQ    0,,PR0
         4 000741   000724 602000 4                  TNC     s:11319

     3210    11322
     3211    11323    3              IF J = KS_LINK.LINKS# THEN

  11323  4 000742   200032 236100                    LDQ     J,,AUTO
         4 000743   000000 116100                    CMPQ    0,,PR0
         4 000744   000756 601000 4                  TNZ     s:11328

     3212    11324    4                 DO;

     3213    11325    4                    KS_LINK.CHANNEL(KS_LINK.LINKS#) = TEMP_LINK;

  11325  4 000745   000000 235100                    LDA     0,,PR0
         4 000746   000001 735000                    ALS     1
         4 000747   000105 100400                    MLR     fill='000'O
         4 000750   000323 000002 2                  ADSC9   TEMP_LINK                cn=0,n=2
         4 000751   000001 000002                    ADSC9   1,A,PR0                  cn=0,n=2

     3214    11326    4                    KS_LINK.LINKS# = KS_LINK.LINKS# + 1;

  11326  4 000752   000000 470400 xsym               LDP0    KS_MSGBUF$
         4 000753   000000 235100                    LDA     0,,PR0
         4 000754   000001 035007                    ADLA    1,DL
         4 000755   000000 755100                    STA     0,,PR0

     3215    11327    4                 END;

     3216    11328    3           END;

  11328  4 000756   200027 235100                    LDA     I,,AUTO
         4 000757   000001 035007                    ADLA    1,DL
         4 000760   200027 755100                    STA     I,,AUTO
         4 000761   200027 236100                    LDQ     I,,AUTO
         4 000762   000765 604000 4                  TMI     s:11330
         4 000763   200011 116100                    CMPQ    NRLINKS,,AUTO
PL6.E3A0      #004=KSC$UPDATE File=KSC$COMMANDS2.:E05TSI                         WED 07/30/97 01:48 Page:594
         4 000764   000664 604000 4                  TMI     s:11308

     3217    11329
     3218    11330    2           KS_LINK_KEY.NODE = FEX;

  11330  4 000765   200034 236100                    LDQ     FEX,,AUTO
         4 000766   000011 736000                    QLS     9
         4 000767   002726 552010 2                  STBQ    KS_LINK_KEY,'10'O

     3219    11331    2           WRITE_NETCON.BUF_ = VECTOR(KS_MSGBUF);

  11331  4 000770   000010 237000 5                  LDAQ    8
         4 000771   002764 757000 2                  STAQ    WRITE_NETCON+4

     3220    11332    2           WRITE_NETCON.KEY_ = VECTOR(KS_LINK_KEY);

  11332  4 000772   000006 237000 5                  LDAQ    6
         4 000773   002762 757000 2                  STAQ    WRITE_NETCON+2

     3221    11333    2           WRITE_NETCON.BUF_.BOUND = SIZEC(KS_LINK.LINKS#) +

  11333  4 000774   000000 470400 xsym               LDP0    KS_MSGBUF$
         4 000775   000000 236100                    LDQ     0,,PR0
         4 000776   000001 736000                    QLS     1
         4 000777   000003 036007                    ADLQ    3,DL
         4 001000   000020 736000                    QLS     16
         4 001001   002764 676000 2                  ERQ     WRITE_NETCON+4
         4 001002   000034 376000 xsym               ANQ     B_VECTNIL+28
         4 001003   002764 656000 2                  ERSQ    WRITE_NETCON+4

     3222    11334    2                                    (SIZEC(KS_LINK.CHANNEL(0)) *
     3223    11335    2                                     KS_LINK.LINKS#) - 1;
     3224    11336    2           CALL M$WRITE(WRITE_NETCON);

  11336  4 001004   002760 630400 2                  EPPR0   WRITE_NETCON
         4 001005   040001 713400                    CLIMB   write
         4 001006   401400 401760                    pmme    nvectors=4
PL6.E3A0      #004=KSC$UPDATE File=KSC$COMMANDS2.:E05TSI                         WED 07/30/97 01:48 Page:595

     3225    11337
     3226    11338    2           KS_FEPHNDLR_KEY.NODE = FEX;

  11338  4 001007   200034 236100                    LDQ     FEX,,AUTO
         4 001010   000011 736000                    QLS     9
         4 001011   000324 552010 2                  STBQ    KS_FEPHNDLR_KEY,'10'O

     3227    11339    2           READ_NETCON.BUF_ = VECTOR(KS_FEPHNDLR);

  11339  4 001012   000060 237000 5                  LDAQ    48
         4 001013   002734 757000 2                  STAQ    READ_NETCON+4

     3228    11340    2           READ_NETCON.KEY_ = VECTOR(KS_FEPHNDLR_KEY);

  11340  4 001014   000062 237000 5                  LDAQ    50
         4 001015   002732 757000 2                  STAQ    READ_NETCON+2

     3229    11341    2           CALL M$READ(READ_NETCON)

  11341  4 001016   002730 630400 2                  EPPR0   READ_NETCON
         4 001017   440000 713400                    CLIMB   alt,read
         4 001020   401400 401760                    pmme    nvectors=4
         4 001021   001023 702000 4                  TSX2    s:11343
         4 001022   001027 710000 4                  TRA     s:11345

     3230    11342    3              WHENALTRETURN DO;

     3231    11343    3                 CALL KSE$ERRMSG(0);

  11343  4 001023   000056 630400 5                  EPPR0   46
         4 001024   000017 631400 xsym               EPPR1   B_VECTNIL+15
         4 001025   000000 701000 xent               TSX1    KSE$ERRMSG
         4 001026   000000 011000                    NOP     0

     3232    11344    3              END;

PL6.E3A0      #004=KSC$UPDATE File=KSC$COMMANDS2.:E05TSI                         WED 07/30/97 01:48 Page:596
     3233    11345    2           IF KS_RFEP.NODE.TYPE(FEX) = %KS_RFEP THEN

  11345  4 001027   200034 236100                    LDQ     FEX,,AUTO
         4 001030   000005 402007                    MPY     5,DL
         4 001031   000326 235006 2                  LDA     KS_RFEP+1,QL
         4 001032   000005 115007                    CMPA    5,DL
         4 001033   001541 601000 4                  TNZ     s:11451

     3234    11346    3              DO;

     3235    11347    3                 J = 0;

  11347  4 001034   200032 450100                    STZ     J,,AUTO

     3236    11348    4                 DO I = 0 TO KS_FEPHNDLR.NHANDLERS - 1;

  11348  4 001035   200027 450100                    STZ     I,,AUTO
         4 001036   001140 710000 4                  TRA     s:11370+3

     3237    11349    4                    IF KS_FEPHNDLR.HANDLER(I) = 'COUPLER' THEN

  11349  4 001037   200027 235100                    LDA     I,,AUTO
         4 001040   000003 735000                    ALS     3
         4 001041   040000 106405                    CMPC    fill='040'O
         4 001042   000244 000010 2                  ADSC9   KS_FEPHNDLR+4,A          cn=0,n=8
         4 001043   000004 000007 1                  ADSC9   HEX_CHARS+4              cn=0,n=7
         4 001044   001074 601000 4                  TNZ     s:11362

     3238    11350    5                       DO;

     3239    11351    5                          KS_HANDLER_KEY.HNDLR = 'COUPLER';

  11351  4 001045   040000 100400                    MLR     fill='040'O
         4 001046   000004 000007 1                  ADSC9   HEX_CHARS+4              cn=0,n=7
         4 001047   000000 600010 2                  ADSC9   KS_HANDLER_KEY           cn=3,n=8

     3240    11352    5                          KS_HANDLER_KEY.NODE = FEX;
PL6.E3A0      #004=KSC$UPDATE File=KSC$COMMANDS2.:E05TSI                         WED 07/30/97 01:48 Page:597

  11352  4 001050   200034 236100                    LDQ     FEX,,AUTO
         4 001051   000011 736000                    QLS     9
         4 001052   000000 552010 2                  STBQ    KS_HANDLER_KEY,'10'O

     3241    11353    5                          DELREC_NETCON.KEY_ = VECTOR(KS_HANDLER_KEY);

  11353  4 001053   000064 237000 5                  LDAQ    52
         4 001054   002750 757000 2                  STAQ    DELREC_NETCON+2

     3242    11354    5                          CALL M$DELREC(DELREC_NETCON);

  11354  4 001055   002746 630400 2                  EPPR0   DELREC_NETCON
         4 001056   040002 713400                    CLIMB   16386
         4 001057   401400 401760                    pmme    nvectors=4

     3243    11355    5                          KS_DEFAULT_KEY.NODE = FEX;

  11355  4 001060   200034 236100                    LDQ     FEX,,AUTO
         4 001061   000011 736000                    QLS     9
         4 001062   000003 552010 2                  STBQ    KS_DEFAULT_KEY,'10'O

     3244    11356    5                          KS_DEFAULT_KEY.HNDLR = 'COUPLER';

  11356  4 001063   040000 100400                    MLR     fill='040'O
         4 001064   000004 000007 1                  ADSC9   HEX_CHARS+4              cn=0,n=7
         4 001065   000003 600010 2                  ADSC9   KS_DEFAULT_KEY           cn=3,n=8

     3245    11357    5                          DELREC_NETCON.KEY_ = VECTOR(KS_DEFAULT_KEY);

  11357  4 001066   000066 237000 5                  LDAQ    54
         4 001067   002750 757000 2                  STAQ    DELREC_NETCON+2

     3246    11358    5                          CALL M$DELREC(DELREC_NETCON);

  11358  4 001070   002746 630400 2                  EPPR0   DELREC_NETCON
         4 001071   040002 713400                    CLIMB   16386
PL6.E3A0      #004=KSC$UPDATE File=KSC$COMMANDS2.:E05TSI                         WED 07/30/97 01:48 Page:598
         4 001072   401400 401760                    pmme    nvectors=4

     3247    11359    5                       END;

  11359  4 001073   001135 710000 4                  TRA     s:11370

     3248    11360    4                    ELSE
     3249    11361    5                       DO;

     3250    11362    5                          IF KS_FEPHNDLR.HANDLER(I) ~= 'NODEADMN' AND

  11362  4 001074   200027 236100                    LDQ     I,,AUTO
         4 001075   000001 736000                    QLS     1
         4 001076   000244 237006 2                  LDAQ    KS_FEPHNDLR+4,QL
         4 001077   000006 117000 1                  CMPAQ   HEX_CHARS+6
         4 001100   001113 600000 4                  TZE     s:11365
         4 001101   200027 235100                    LDA     I,,AUTO
         4 001102   000003 735000                    ALS     3
         4 001103   040000 106405                    CMPC    fill='040'O
         4 001104   000244 000010 2                  ADSC9   KS_FEPHNDLR+4,A          cn=0,n=8
         4 001105   000010 000007 1                  ADSC9   HEX_CHARS+8              cn=0,n=7
         4 001106   001113 600000 4                  TZE     s:11365

     3251    11363    5                             KS_FEPHNDLR.HANDLER(I) ~= 'HDLCX25'  THEN
     3252    11364    5                             KS_FEPHNDLR.BOOTIME(J) = '0'B;

  11364  4 001107   200032 236100                    LDQ     J,,AUTO
         4 001110   003006 060400                    CSL     bolr='003'O
         4 001111   000002 000001 xsym               BDSC    B_VECTNIL+2              by=0,bit=0,n=1
         4 001112   000243 000001 2                  BDSC    KS_FEPHNDLR+3,Q          by=0,bit=0,n=1

     3253    11365    5                          IF KS_FEPHNDLR.HANDLER(I) = 'HDLCX25'  THEN

  11365  4 001113   200027 235100                    LDA     I,,AUTO
         4 001114   000003 735000                    ALS     3
         4 001115   040000 106405                    CMPC    fill='040'O
         4 001116   000244 000010 2                  ADSC9   KS_FEPHNDLR+4,A          cn=0,n=8
PL6.E3A0      #004=KSC$UPDATE File=KSC$COMMANDS2.:E05TSI                         WED 07/30/97 01:48 Page:599
         4 001117   000010 000007 1                  ADSC9   HEX_CHARS+8              cn=0,n=7
         4 001120   001123 601000 4                  TNZ     s:11367

     3254    11366    5                             HDLCX25_IN = '1'B;

  11366  4 001121   400000 236003                    LDQ     -131072,DU
         4 001122   200004 756100                    STQ     HDLCX25_IN,,AUTO

     3255    11367    5                          KS_FEPHNDLR.HANDLER(J) = KS_FEPHNDLR.HANDLER(I);

  11367  4 001123   200032 236100                    LDQ     J,,AUTO
         4 001124   000001 736000                    QLS     1
         4 001125   200027 235100                    LDA     I,,AUTO
         4 001126   000001 735000                    ALS     1
         4 001127   000000 620006                    EAX0    0,QL
         4 001130   000244 237005 2                  LDAQ    KS_FEPHNDLR+4,AL
         4 001131   000244 757010 2                  STAQ    KS_FEPHNDLR+4,X0

     3256    11368    5                          J = J + 1;

  11368  4 001132   200032 235100                    LDA     J,,AUTO
         4 001133   000001 035007                    ADLA    1,DL
         4 001134   200032 755100                    STA     J,,AUTO

     3257    11369    5                       END;

     3258    11370    4                 END;

  11370  4 001135   200027 235100                    LDA     I,,AUTO
         4 001136   000001 035007                    ADLA    1,DL
         4 001137   200027 755100                    STA     I,,AUTO
         4 001140   200027 236100                    LDQ     I,,AUTO
         4 001141   000240 116000 2                  CMPQ    KS_FEPHNDLR
         4 001142   001037 602000 4                  TNC     s:11349

     3259    11371    3                 KS_FEPHNDLR.NHANDLERS = J;

PL6.E3A0      #004=KSC$UPDATE File=KSC$COMMANDS2.:E05TSI                         WED 07/30/97 01:48 Page:600
  11371  4 001143   200032 235100                    LDA     J,,AUTO
         4 001144   000240 755000 2                  STA     KS_FEPHNDLR

     3260    11372    3                 IF ~HDLCX25_IN THEN

  11372  4 001145   200004 236100                    LDQ     HDLCX25_IN,,AUTO
         4 001146   400000 376003                    ANQ     -131072,DU
         4 001147   400000 676003                    ERQ     -131072,DU
         4 001150   001514 600000 4                  TZE     s:11436

     3261    11373    4                    DO;

     3262    11374    4                       KS_FEPHNDLR.NHANDLERS = KS_FEPHNDLR.NHANDLERS + 1;

  11374  4 001151   000001 035007                    ADLA    1,DL
         4 001152   000240 755000 2                  STA     KS_FEPHNDLR

     3263    11375    4                       KS_FEPHNDLR.HANDLER(J) = 'HDLCX25';

  11375  4 001153   200032 236100                    LDQ     J,,AUTO
         4 001154   000001 736000                    QLS     1
         4 001155   000002 736000                    QLS     2
         4 001156   040006 100400                    MLR     fill='040'O
         4 001157   000010 000007 1                  ADSC9   HEX_CHARS+8              cn=0,n=7
         4 001160   000244 000010 2                  ADSC9   KS_FEPHNDLR+4,Q          cn=0,n=8

     3264    11376    4                       KS_FEPHNDLR.BOOTIME(J) = '1'B;

  11376  4 001161   200032 235100                    LDA     J,,AUTO
         4 001162   003005 060400                    CSL     bolr='003'O
         4 001163   000030 000001 xsym               BDSC    B_VECTNIL+24             by=0,bit=0,n=1
         4 001164   000243 000001 2                  BDSC    KS_FEPHNDLR+3,A          by=0,bit=0,n=1

     3265    11377    4                       KS_DEFAULT_KEY.HNDLR = KS_FEPHNDLR.HANDLER(J);

  11377  4 001165   000003 735000                    ALS     3
         4 001166   040000 100405                    MLR     fill='040'O
PL6.E3A0      #004=KSC$UPDATE File=KSC$COMMANDS2.:E05TSI                         WED 07/30/97 01:48 Page:601
         4 001167   000244 000010 2                  ADSC9   KS_FEPHNDLR+4,A          cn=0,n=8
         4 001170   000003 600010 2                  ADSC9   KS_DEFAULT_KEY           cn=3,n=8

     3266    11378    4                       CALL KSU$INIT_DEFCNFG(KS_DEFAULT);

  11378  4 001171   000006 630400 2                  EPPR0   DEFAULT$
         4 001172   000017 631400 xsym               EPPR1   B_VECTNIL+15
         4 001173   000000 701000 xent               TSX1    KSU$INIT_DEFCNFG
         4 001174   000000 011000                    NOP     0

     3267    11379    4                      CALL KSU$WRITE_NETCON(VECTOR(KS_DEFAULT_KEY),VECTOR(KS_DEFAULT))
             11379                                ;

  11379  4 001175   000006 470400 2                  LDP0    DEFAULT$
         4 001176   000012 236100                    LDQ     10,,PR0
         4 001177   000011 772000                    QRL     9
         4 001200   000777 376007                    ANQ     511,DL
         4 001201   000053 620006                    EAX0    43,QL
         4 001202   000000 635010                    EAA     0,X0
         4 001203   000002 771000                    ARL     2
         4 001204   000140 135007                    SBLA    96,DL
         4 001205   000006 236000 2                  LDQ     DEFAULT$
         4 001206   200042 757100                    STAQ    CONTROL_NODE+2,,AUTO
         4 001207   200042 631500                    EPPR1   CONTROL_NODE+2,,AUTO
         4 001210   200045 451500                    STP1    CONTROL_NODE+5,,AUTO
         4 001211   000070 236000 5                  LDQ     56
         4 001212   200044 756100                    STQ     CONTROL_NODE+4,,AUTO
         4 001213   200044 630500                    EPPR0   CONTROL_NODE+4,,AUTO
         4 001214   000020 631400 xsym               EPPR1   B_VECTNIL+16
         4 001215   000000 701000 xent               TSX1    KSU$WRITE_NETCON
         4 001216   000000 011000                    NOP     0

     3268    11380    4                       KS_HANDLER = '0'B;

  11380  4 001217   000236 470400 2                  LDP0    HANDLER$
         4 001220   000100 100400                    MLR     fill='000'O
         4 001221   000002 000001 xsym               ADSC9   B_VECTNIL+2              cn=0,n=1
PL6.E3A0      #004=KSC$UPDATE File=KSC$COMMANDS2.:E05TSI                         WED 07/30/97 01:48 Page:602
         4 001222   000000 000166                    ADSC9   0,,PR0                   cn=0,n=118

     3269    11381    4                       KS_HANDLER_KEY.HNDLR = KS_FEPHNDLR.HANDLER(J);

  11381  4 001223   200032 235100                    LDA     J,,AUTO
         4 001224   000003 735000                    ALS     3
         4 001225   040000 100405                    MLR     fill='040'O
         4 001226   000244 000010 2                  ADSC9   KS_FEPHNDLR+4,A          cn=0,n=8
         4 001227   000000 600010 2                  ADSC9   KS_HANDLER_KEY           cn=3,n=8

     3270    11382    4                       KS_HANDLER.HNDLRFID = KS_FEPHNDLR.HANDLER(J);

  11382  4 001230   040100 100405                    MLR     fill='040'O
         4 001231   000244 000010 2                  ADSC9   KS_FEPHNDLR+4,A          cn=0,n=8
         4 001232   000000 000050                    ADSC9   0,,PR0                   cn=0,n=40

     3271    11383    4                       CALL INDEX(TEMP,' ',KS_HANDLER.HNDLRFID);

  11383  4 001233   000000 124500                    SCM     mask='000'O
         4 001234   000000 000050                    ADSC9   0,,PR0                   cn=0,n=40
         4 001235   000035 000001 xsym               ADSC9   B_VECTNIL+29             cn=0,n=1
         4 001236   200033 000100                    ARG     TEMP,,AUTO

     3272    11384    4                       CALL INSERT(KS_HANDLER.HNDLRFID,TEMP,,'.:SYS');

  11384  4 001237   200033 720100                    LXL0    TEMP,,AUTO
         4 001240   777727 620010                    EAX0    -41,X0
         4 001241   777777 660003                    ERX0    -1,DU
         4 001242   200033 236100                    LDQ     TEMP,,AUTO
         4 001243   040146 100400                    MLR     fill='040'O
         4 001244   000012 000005 1                  ADSC9   HEX_CHARS+10             cn=0,n=5
         4 001245   000000 000010                    ADSC9   0,Q,PR0                  cn=0,n=*X0

     3273    11385    4                       KS_HANDLER.HNDLRNAME = KS_FEPHNDLR.HANDLER(J);

  11385  4 001246   200032 235100                    LDA     J,,AUTO
         4 001247   000001 735000                    ALS     1
PL6.E3A0      #004=KSC$UPDATE File=KSC$COMMANDS2.:E05TSI                         WED 07/30/97 01:48 Page:603
         4 001250   000244 237005 2                  LDAQ    KS_FEPHNDLR+4,AL
         4 001251   000012 755100                    STA     10,,PR0
         4 001252   000013 756100                    STQ     11,,PR0

     3274    11386    5                        DO HAND# = 0 TO 7;

  11386  4 001253   200031 450100                    STZ     HAND#,,AUTO

     3275    11387    5                             IF KS_HAND_INFO.TEXT(HAND#) = KS_HANDLER_KEY.HNDLR

  11387  4 001254   200031 236100                    LDQ     HAND#,,AUTO
         4 001255   000024 402007                    MPY     20,DL
         4 001256   040000 106406                    CMPC    fill='040'O
         4 001257   000000 000010 xsym               ADSC9   KS_HAND_INFO,Q           cn=0,n=8
         4 001260   000000 600010 2                  ADSC9   KS_HANDLER_KEY           cn=3,n=8
         4 001261   001267 600000 4                  TZE     s:11391

     3276    11388    5                             THEN
     3277    11389    5                                  EXIT;
     3278    11390    5                             END;

  11390  4 001262   200031 235100                    LDA     HAND#,,AUTO
         4 001263   000001 035007                    ADLA    1,DL
         4 001264   200031 755100                    STA     HAND#,,AUTO
         4 001265   000010 115007                    CMPA    8,DL
         4 001266   001254 602000 4                  TNC     s:11387

     3279    11391    4                       KS_HANDLER.TYPE = KS_HAND_INFO.TYPE(HAND#);

  11391  4 001267   200031 236100                    LDQ     HAND#,,AUTO
         4 001270   000005 402007                    MPY     5,DL
         4 001271   000236 470400 2                  LDP0    HANDLER$
         4 001272   000002 236006 xsym               LDQ     KS_HAND_INFO+2,QL
         4 001273   000033 736000                    QLS     27
         4 001274   000014 552140                    STBQ    12,'40'O,PR0

     3280    11392
PL6.E3A0      #004=KSC$UPDATE File=KSC$COMMANDS2.:E05TSI                         WED 07/30/97 01:48 Page:604
     3281    11393    4                       DFLT$ = KS_HAND_INFO.PARAMS$(HAND#);

  11393  4 001275   200031 236100                    LDQ     HAND#,,AUTO
         4 001276   000005 402007                    MPY     5,DL
         4 001277   000004 236006 xsym               LDQ     KS_HAND_INFO+4,QL
         4 001300   200010 756100                    STQ     DFLT$,,AUTO

     3282    11394
     3283    11395    4                       IF KS_HAND_INFO.SZ(HAND#) <= %KL_FIXED_HI

  11395  4 001301   200031 236100                    LDQ     HAND#,,AUTO
         4 001302   000005 402007                    MPY     5,DL
         4 001303   000003 235006 xsym               LDA     KS_HAND_INFO+3,QL
         4 001304   000036 115007                    CMPA    30,DL
         4 001305   001312 603000 4                  TRC     s:11397

     3284    11396    4                       THEN KS_HANDLER.NPARAMS = KS_HAND_INFO.SZ(HAND#);

  11396  4 001306   000003 236006 xsym               LDQ     KS_HAND_INFO+3,QL
         4 001307   000011 736000                    QLS     9
         4 001310   000014 552110                    STBQ    12,'10'O,PR0
         4 001311   001314 710000 4                  TRA     s:11399

     3285    11397    4                       ELSE KS_HANDLER.NPARAMS = %KL_FIXED_HI;

  11397  4 001312   035000 236007                    LDQ     14848,DL
         4 001313   000014 552110                    STBQ    12,'10'O,PR0

     3286    11398
     3287    11399    5                       DO K=0 TO KS_HANDLER.NPARAMS-1;

  11399  4 001314   200026 450100                    STZ     K,,AUTO
         4 001315   001332 710000 4                  TRA     s:11401+3

     3288    11400    5                          KS_HANDLER.PARAMS(K) = DFLT$->KS$PARAM.DEFAULT(K);

  11400  4 001316   200026 235100                    LDA     K,,AUTO
PL6.E3A0      #004=KSC$UPDATE File=KSC$COMMANDS2.:E05TSI                         WED 07/30/97 01:48 Page:605
         4 001317   000004 735000                    ALS     4
         4 001320   200026 236100                    LDQ     K,,AUTO
         4 001321   000001 736000                    QLS     1
         4 001322   200010 470500                    LDP0    DFLT$,,AUTO
         4 001323   000236 471400 2                  LDP1    HANDLER$
         4 001324   000106 101505                    MRL     fill='000'O
         4 001325   000003 000004                    ADSC9   3,A,PR0                  cn=0,n=4
         4 001326   100015 000002                    ADSC9   13,Q,PR1                 cn=0,n=2

     3289    11401    5                          END;

  11401  4 001327   200026 235100                    LDA     K,,AUTO
         4 001330   000001 035007                    ADLA    1,DL
         4 001331   200026 755100                    STA     K,,AUTO
         4 001332   000236 470400 2                  LDP0    HANDLER$
         4 001333   000014 236100                    LDQ     12,,PR0
         4 001334   000011 772000                    QRL     9
         4 001335   000777 376007                    ANQ     511,DL
         4 001336   200026 116100                    CMPQ    K,,AUTO
         4 001337   001341 600000 4                  TZE     s:11403
         4 001340   001316 603000 4                  TRC     s:11400

     3290    11402
     3291    11403    4                       IF KS_HAND_INFO.SZ(HAND#) > %KL_FIXED_HI

  11403  4 001341   200031 236100                    LDQ     HAND#,,AUTO
         4 001342   000005 402007                    MPY     5,DL
         4 001343   000003 235006 xsym               LDA     KS_HAND_INFO+3,QL
         4 001344   000036 115007                    CMPA    30,DL
         4 001345   001453 602000 4                  TNC     s:11421

     3292    11404    5                       THEN DO;

     3293    11405    5                            KS_HANDLER.NPARAMI = KS_HAND_INFO.SZ(HAND#) - %KL_FIXED_HI
             11405                                      ;

  11405  4 001346   000003 236006 xsym               LDQ     KS_HAND_INFO+3,QL
PL6.E3A0      #004=KSC$UPDATE File=KSC$COMMANDS2.:E05TSI                         WED 07/30/97 01:48 Page:606
         4 001347   000035 136007                    SBLQ    29,DL
         4 001350   000014 552104                    STBQ    12,'04'O,PR0

     3294    11406    5                            OUT$ = PINCRW(ADDR(KS_HANDLER),SIZEW(KS_HANDLER));

  11406  4 001351   000236 236000 2                  LDQ     HANDLER$
         4 001352   000036 036003                    ADLQ    30,DU
         4 001353   200005 756100                    STQ     OUT$,,AUTO

     3295    11407
     3296    11408    6                            DO K = %KL_ASYNC_BLOCK TO KS_HAND_INFO.SZ(HAND#)-1;

  11408  4 001354   000035 235007                    LDA     29,DL
         4 001355   200026 755100                    STA     K,,AUTO
         4 001356   001445 710000 4                  TRA     s:11418+3

     3297    11409    6                               DFLT_OPT$ = DFLT$->KS$PARAM.SPCL_TBL$(K);

  11409  4 001357   200026 235100                    LDA     K,,AUTO
         4 001360   000002 735000                    ALS     2
         4 001361   200010 470500                    LDP0    DFLT$,,AUTO
         4 001362   000002 236105                    LDQ     2,AL,PR0
         4 001363   200012 756100                    STQ     DFLT_OPT$,,AUTO

     3298    11410    6                               KS_HANDLER.IPARAM.OFFSET(K - %KL_ASYNC_BLOCK) = POFFW(
             11410                                        OUT$,ADDR(KS_HANDLER));

  11410  4 001364   000236 236000 2                  LDQ     HANDLER$
         4 001365   000022 772000                    QRL     18
         4 001366   200042 756100                    STQ     CONTROL_NODE+2,,AUTO
         4 001367   200005 236100                    LDQ     OUT$,,AUTO
         4 001370   000022 772000                    QRL     18
         4 001371   200042 136100                    SBLQ    CONTROL_NODE+2,,AUTO
         4 001372   000000 620006                    EAX0    0,QL
         4 001373   000236 471400 2                  LDP1    HANDLER$
         4 001374   200026 721100                    LXL1    K,,AUTO
         4 001375   177777 740111                    STX0    -1,X1,PR1
PL6.E3A0      #004=KSC$UPDATE File=KSC$COMMANDS2.:E05TSI                         WED 07/30/97 01:48 Page:607

     3299    11411    6                               KS_HANDLER.IPARAM.ARRAY_SZ(K - %KL_ASYNC_BLOCK) =
             11411                                        KS_HAND_INFO.PARAMS$(HAND#)->KS$PARAM.ARRAY_SZ(K);

  11411  4 001376   200031 236100                    LDQ     HAND#,,AUTO
         4 001377   000005 402007                    MPY     5,DL
         4 001400   000004 473406 xsym               LDP3    KS_HAND_INFO+4,QL
         4 001401   200026 235100                    LDA     K,,AUTO
         4 001402   000002 735000                    ALS     2
         4 001403   300001 236105                    LDQ     1,AL,PR3
         4 001404   000011 736000                    QLS     9
         4 001405   177776 676111                    ERQ     -2,X1,PR1
         4 001406   777000 376007                    ANQ     -512,DL
         4 001407   177776 656111                    ERSQ    -2,X1,PR1

     3300    11412
     3301    11413    7                               DO I = 0 TO KS_HANDLER.IPARAM.ARRAY_SZ(K - %
             11413                                        KL_ASYNC_BLOCK);

  11413  4 001410   200027 450100                    STZ     I,,AUTO
         4 001411   001426 710000 4                  TRA     s:11415+3

     3302    11414    7                               OUT$->B$PARAMI(I) = DFLT_OPT$->KS$PARAM.DEFAULT(I);

  11414  4 001412   200027 235100                    LDA     I,,AUTO
         4 001413   000004 735000                    ALS     4
         4 001414   200027 236100                    LDQ     I,,AUTO
         4 001415   000001 736000                    QLS     1
         4 001416   200012 470500                    LDP0    DFLT_OPT$,,AUTO
         4 001417   200005 471500                    LDP1    OUT$,,AUTO
         4 001420   000106 101505                    MRL     fill='000'O
         4 001421   000003 000004                    ADSC9   3,A,PR0                  cn=0,n=4
         4 001422   100000 000002                    ADSC9   0,Q,PR1                  cn=0,n=2

     3303    11415    7                                 END;

  11415  4 001423   200027 235100                    LDA     I,,AUTO
PL6.E3A0      #004=KSC$UPDATE File=KSC$COMMANDS2.:E05TSI                         WED 07/30/97 01:48 Page:608
         4 001424   000001 035007                    ADLA    1,DL
         4 001425   200027 755100                    STA     I,,AUTO
         4 001426   000236 470400 2                  LDP0    HANDLER$
         4 001427   200026 720100                    LXL0    K,,AUTO
         4 001430   077776 236110                    LDQ     -2,X0,PR0
         4 001431   000011 772000                    QRL     9
         4 001432   000777 376007                    ANQ     511,DL
         4 001433   200027 116100                    CMPQ    I,,AUTO
         4 001434   001412 603000 4                  TRC     s:11414

     3304    11416
     3305    11417    6                               OUT$ = PINCRW(OUT$,(KS_HANDLER.IPARAM.ARRAY_SZ(K - %
             11417                                        KL_ASYNC_BLOCK)+2)/2);

  11417  4 001435   000002 036007                    ADLQ    2,DL
         4 001436   000001 772000                    QRL     1
         4 001437   000022 736000                    QLS     18
         4 001440   200005 036100                    ADLQ    OUT$,,AUTO
         4 001441   200005 756100                    STQ     OUT$,,AUTO

     3306    11418    6                               END;  /* DO K - # of indexed params */

  11418  4 001442   200026 235100                    LDA     K,,AUTO
         4 001443   000001 035007                    ADLA    1,DL
         4 001444   200026 755100                    STA     K,,AUTO
         4 001445   200031 236100                    LDQ     HAND#,,AUTO
         4 001446   000005 402007                    MPY     5,DL
         4 001447   000003 236006 xsym               LDQ     KS_HAND_INFO+3,QL
         4 001450   200026 116100                    CMPQ    K,,AUTO
         4 001451   001453 600000 4                  TZE     s:11421
         4 001452   001357 603000 4                  TRC     s:11409

     3307    11419    5                           END;  /* DO IF ANY INDEXED PARAMS */

     3308    11420
     3309    11421    4                       WRITE_NETCON.KEY_ = VECTOR(KS_HANDLER_KEY);

PL6.E3A0      #004=KSC$UPDATE File=KSC$COMMANDS2.:E05TSI                         WED 07/30/97 01:48 Page:609
  11421  4 001453   000064 237000 5                  LDAQ    52
         4 001454   002762 757000 2                  STAQ    WRITE_NETCON+2

     3310    11422    4                       WRITE_NETCON.BUF_ = VECTOR(KS_HANDLER);

  11422  4 001455   000071 235000 5                  LDA     57
         4 001456   000236 236000 2                  LDQ     HANDLER$
         4 001457   002764 757000 2                  STAQ    WRITE_NETCON+4

     3311    11423    4                       IF KS_HANDLER.NPARAMI = 0

  11423  4 001460   000014 236100                    LDQ     12,,PR0
         4 001461   000777 316007                    CANQ    511,DL
         4 001462   001467 601000 4                  TNZ     s:11429

     3312    11424    5                       THEN DO;

     3313    11425    5                          OUT$ = ADDR(KS_HANDLER);

  11425  4 001463   000236 236000 2                  LDQ     HANDLER$
         4 001464   200005 756100                    STQ     OUT$,,AUTO

     3314    11426    5                          OUT$ = PINCRW(OUT$,SIZEW(KS_HANDLER) + 1);

  11426  4 001465   000037 036003                    ADLQ    31,DU
         4 001466   200005 756100                    STQ     OUT$,,AUTO

     3315    11427    5                       END;

     3316    11428
     3317    11429    4                       WRITE_NETCON.BUF_.BOUND = POFFC(OUT$,ADDR(KS_HANDLER))-1;

  11429  4 001467   000236 236000 2                  LDQ     HANDLER$
         4 001470   000020 772000                    QRL     16
         4 001471   200042 756100                    STQ     CONTROL_NODE+2,,AUTO
         4 001472   200005 236100                    LDQ     OUT$,,AUTO
         4 001473   000020 772000                    QRL     16
PL6.E3A0      #004=KSC$UPDATE File=KSC$COMMANDS2.:E05TSI                         WED 07/30/97 01:48 Page:610
         4 001474   200042 136100                    SBLQ    CONTROL_NODE+2,,AUTO
         4 001475   000001 136007                    SBLQ    1,DL
         4 001476   000020 736000                    QLS     16
         4 001477   002764 676000 2                  ERQ     WRITE_NETCON+4
         4 001500   000034 376000 xsym               ANQ     B_VECTNIL+28
         4 001501   002764 656000 2                  ERSQ    WRITE_NETCON+4

     3318    11430    4                       CALL M$WRITE(WRITE_NETCON)

  11430  4 001502   002760 630400 2                  EPPR0   WRITE_NETCON
         4 001503   440001 713400                    CLIMB   alt,write
         4 001504   401400 401760                    pmme    nvectors=4
         4 001505   001507 702000 4                  TSX2    s:11432
         4 001506   001514 710000 4                  TRA     s:11436

     3319    11431    5                          WHENALTRETURN DO;

     3320    11432    5                             CALL KSE$ERRMSG(0);

  11432  4 001507   000056 630400 5                  EPPR0   46
         4 001510   000017 631400 xsym               EPPR1   B_VECTNIL+15
         4 001511   000000 701000 xent               TSX1    KSE$ERRMSG
         4 001512   000000 011000                    NOP     0

     3321    11433    5                             ALTRETURN;

  11433  4 001513   000000 702200 xent               TSX2  ! X66_AALT

     3322    11434    5                          END;
     3323    11435    4                    END;

     3324    11436    3              WRITE_NETCON.KEY_ = VECTOR(KS_FEPHNDLR_KEY);

  11436  4 001514   000062 237000 5                  LDAQ    50
         4 001515   002762 757000 2                  STAQ    WRITE_NETCON+2

     3325    11437    3              WRITE_NETCON.BUF_ = VECTOR(KS_FEPHNDLR);
PL6.E3A0      #004=KSC$UPDATE File=KSC$COMMANDS2.:E05TSI                         WED 07/30/97 01:48 Page:611

  11437  4 001516   000060 237000 5                  LDAQ    48
         4 001517   002764 757000 2                  STAQ    WRITE_NETCON+4

     3326    11438
     3327    11439
     3328    11440
     3329    11441
     3330    11442    3                 WRITE_NETCON.BUF_.BOUND = SIZEC(KS_FEPHNDLR.NHANDLERS) + SIZEC(
             11442                          KS_FEPHNDLR.DEFLIBACCT) + 4  /* bootime */

  11442  4 001520   000240 236000 2                  LDQ     KS_FEPHNDLR
         4 001521   000003 736000                    QLS     3
         4 001522   000017 036007                    ADLQ    15,DL
         4 001523   000020 736000                    QLS     16
         4 001524   002764 676000 2                  ERQ     WRITE_NETCON+4
         4 001525   000034 376000 xsym               ANQ     B_VECTNIL+28
         4 001526   002764 656000 2                  ERSQ    WRITE_NETCON+4

     3331    11443    3                                           + SIZEC(KS_FEPHNDLR.HANDLER(0)) *
             11443                                                    KS_FEPHNDLR.NHANDLERS - 1;
     3332    11444    3              CALL M$WRITE(WRITE_NETCON)

  11444  4 001527   002760 630400 2                  EPPR0   WRITE_NETCON
         4 001530   440001 713400                    CLIMB   alt,write
         4 001531   401400 401760                    pmme    nvectors=4
         4 001532   001534 702000 4                  TSX2    s:11446
         4 001533   001541 710000 4                  TRA     s:11451

     3333    11445    4                 WHENALTRETURN DO;

     3334    11446    4                    CALL KSE$ERRMSG(0);

  11446  4 001534   000056 630400 5                  EPPR0   46
         4 001535   000017 631400 xsym               EPPR1   B_VECTNIL+15
         4 001536   000000 701000 xent               TSX1    KSE$ERRMSG
         4 001537   000000 011000                    NOP     0
PL6.E3A0      #004=KSC$UPDATE File=KSC$COMMANDS2.:E05TSI                         WED 07/30/97 01:48 Page:612

     3335    11447    4                    ALTRETURN;

  11447  4 001540   000000 702200 xent               TSX2  ! X66_AALT

     3336    11448    4                 END;
     3337    11449    3           END;

     3338    11450    2        END;

     3339    11451    1   END KSC$UPDATE;

  11451  4 001541   000000 702200 xent               TSX2  ! X66_ARET

PL6.E3A0      #004=KSC$UPDATE File=KSC$COMMANDS2.:E05TSI                         WED 07/30/97 01:48 Page:613
--  Include file information  --

   KL_AFCN_C.:E05TOU  is referenced.
   KL_CONTROL_C.:E05TOU  is referenced.
   KS_PERR_C.:E05TOU  is referenced.
   KS_DATA_R.:E05TOU  cannot be made into a system file and is referenced.
   KS_SUBS_C.:E05TOU  is referenced.
   KL_MACRO_C.:E05TOU  is referenced.
   KL_CONFIG_M.:E05TOU  is referenced.
   B_ERRORS_C.:E05TOU  is referenced.
   KS_MACRO_M.:E05TOU  is referenced.
   XU_MACRO_C.:E05TOU  is referenced.
   CP_6_SUBS.:E05TOU  is referenced.
   CP_6.:E05TOU  cannot be made into a system file and is referenced.
   KHA_FNC_E.:E05TOU  is referenced.
   B$JIT_C.:E05TOU  was found in the system file and is never referenced.
   CP_6_C.:E05TOU  was found in the system file and is referenced.
      No diagnostics issued in procedure KSC$UPDATE.
PL6.E3A0      #004=KSC$UPDATE File=KSC$COMMANDS2.:E05TSI                         WED 07/30/97 01:48 Page:614

 **** Variables and constants ****

  ****  Section 001 RoData KSC$UPDATE

  ****  Scalars and arrays  ****
OctLoc.c.b A Datatyp(siz) R M Lvl/name                 OctLoc.c.b A Datatyp(siz) R M Lvl/name

     0-0-0/c CHAR(16)    r     1 HEX_CHARS

  ****  Section 002  Data  KSC$UPDATE

  ****  Scalars and arrays  ****
OctLoc.c.b A Datatyp(siz) R M Lvl/name                 OctLoc.c.b A Datatyp(siz) R M Lvl/name

    71-0-0/c CHAR        r     1 CHAR_BUF(0:400)            6-0-0/w PTR         r     1 DEFAULT$
     7-0-0/w UBIN        r     1 DEFAULT_BUF(0:49)
  2746-0-0/d STRC(360)   r     1 DELREC_NETCON            236-0-0/w PTR         r     1 HANDLER$
   237-0-0/w PTR         r     1 HDR$                     317-0-0/w PTR         r     1 HEX$(0:3)
     3-0-0/w STRC(99)    r     1 KS_DEFAULT_KEY           240-0-0/w STRC(1656)  r     1 KS_FEPHNDLR
   324-0-0/w STRC(27)    r     1 KS_FEPHNDLR_KEY            0-0-0/w STRC(99)    r     1 KS_HANDLER_KEY
  2726-0-0/w STRC(27)    r     1 KS_LINK_KEY             2774-0-0/w STRC(18)    r     1 KS_NETWORK_KEY
   325-0-0/w STRC(46116) r     1 KS_RFEP                  316-0-0/w STRC(18)    r     1 KS_RFEP_KEY
  2730-0-0/d STRC(504)   r     1 READ_NETCON              323-0-0/b STRC(18)    r     1 TEMP_LINK
  2760-0-0/d STRC(432)   r     1 WRITE_NETCON

  ****  Auto variables  ****

  ****  Scalars and arrays  ****
OctLoc.c.b A Datatyp(siz) R M Lvl/name                 OctLoc.c.b A Datatyp(siz) R M Lvl/name

     3-0-0/w PTR         r     1 @TOP$                     40-0-0/c CHAR(8)     r     1 CONTROL_NODE
    10-0-0/w PTR         r     1 DFLT$                     12-0-0/w PTR         r     1 DFLT_OPT$
    34-0-0/w UBIN        r     1 FEX                       31-0-0/w UBIN        r     1 HAND#
     4-0-0/b BIT         r     1 HDLCX25_IN                27-0-0/w UBIN        r     1 I
    32-0-0/w UBIN        r     1 J                         26-0-0/w UBIN        r     1 K
    30-0-0/w SBIN        r     1 L
    13-0-0/c CHAR(4)     r     1 LINK_LIST(0:10)
PL6.E3A0      #004=KSC$UPDATE File=KSC$COMMANDS2.:E05TSI                         WED 07/30/97 01:48 Page:615
    36-0-0/w UBIN        r     1 NEW_CLASS                  6-0-0/c CHAR(8)     r     1 NODENAME
    35-0-0/w UBIN        r     1 NODETYPE                  11-0-0/w SBIN        r     1 NRLINKS
    37-0-0/w UBIN        r     1 OLD_CLASS                  5-0-0/w PTR         r     1 OUT$
    33-0-0/w UBIN        r     1 TEMP                      *0-0-0/w PTR         r     1 TOP$

  ****  SYMREF variables  ****

  ****  Scalars and arrays  ****
OctLoc.c.b A Datatyp(siz) R M Lvl/name                 OctLoc.c.b A Datatyp(siz) R M Lvl/name

     0-0-0/w STRC(180)   r     1 KS_HAND_INFO(0:0)
     0-0-0/c CHAR(400)   r     1 KS_MSGBUF                  0-0-0/w PTR         r     1 KS_MSGBUF$
     0-0-0/w STRC(46116) r     1 KS_NETWORK                 0-0-0/w SBIN        r     1 KS_NODE
     0-0-0/c CHAR(8)     r     1 KS_NODENAME                0-0-0/w STRC(288)   r     1 KS_SUB_BUF_1
     0-0-0/w STRC(288)   r     1 KS_SUB_BUF_2               0-0-0/w STRC(288)   r     1 KS_SUB_BUF_3
     0-0-0/c STRC(90)    r     1 PROMPT

  ****  BASED and DCB variables  ****

  ****  Scalars and arrays  ****
OctLoc.c.b A Datatyp(siz) R M Lvl/name                 OctLoc.c.b A Datatyp(siz) R M Lvl/name

     0-0-0/h UBIN(18)    r     1 B$PARAMI(0:0)
     0-0-0/b UBIN(4)     r     1 HEX
     0-0-0/w STRC(144)   r     1 KS$PARAM(0:0)
     0-0-0/w ASTR(387)   r     1 KS_DEFAULT                 0-0-0/w STRC(1062)  r     1 KS_HANDLER
     0-0-0/w STRC(54)    r     1 KS_LINK                    0-0-0N  NULL        r     1 M$NETCON
     0-0-0/w STRC(144)   r     1 OUT$BLK                    0-0-0/w ASTR(153)   r     1 OUT$SYM
     0-0-0/w STRC(306)   r     1 UPDATE


   Procedure KSC$UPDATE requires 866 words for executable code.
   Procedure KSC$UPDATE requires 38 words of local(AUTO) storage.

    No errors detected in file KSC$COMMANDS2.:E05TSI    .
PL6.E3A0      #004=KSC$UPDATE File=KSC$COMMANDS2.:E05TSI                         WED 07/30/97 01:48 Page:616
          *** CROSS REFERENCE LISTING ***
**     DENOTES     IDENTIFIER DEFINITION
<<                 IDENTIFIER'S VALUE SET
>>                 IDENTIFIER'S VALUE USED
<>                 IDENTIFIER SET AND/OR USED
--                 IDENTIFIER REFERENCED
PL6.E3A0      #004=KSC$UPDATE File=KSC$COMMANDS2.:E05TSI                         WED 07/30/97 01:48 Page:617
          MINI XREF LISTING

B$PARAMI
     10821**DCL     11414<<ASSIGN
CHAR_BUF
     10313**DCL     10314--DCLINIT
CONTROL_NODE
     11138**DCL     11165<<ASSIGN  11175<<ASSIGN  11208>>IF      11270>>IF      11270>>IF      11289>>ASSIGN
DEFAULT$
     10311**DCL     10681--IMP-PTR 11378>>CALL    11378>>CALL    11379>>CALL    11379>>CALL
DEFAULT_BUF
     10312**DCL     10311--DCLINIT
DELREC_NETCON
     10554**DCL     11354<>CALL    11358<>CALL
DELREC_NETCON.KEY_
     10554**DCL     11353<<ASSIGN  11357<<ASSIGN
DELREC_NETCON.V
     10557**DCL     10554--DCLINIT
DFLT$
     11124**DCL     11393<<ASSIGN  11400>>ASSIGN  11409>>ASSIGN
DFLT_OPT$
     11126**DCL     11409<<ASSIGN  11414>>ASSIGN
FEX
     11134**DCL     11148<>CALL    11157>>ASSIGN  11164>>ASSIGN  11165>>ASSIGN  11188>>IF      11188>>IF
     11198>>ASSIGN  11213>>ASSIGN  11223>>ASSIGN  11230>>IF      11250>>IF      11252>>IF      11252>>IF
     11257>>ASSIGN  11260>>ASSIGN  11279>>IF      11284>>ASSIGN  11285>>ASSIGN  11287>>ASSIGN  11288>>ASSIGN
     11289>>ASSIGN  11330>>ASSIGN  11338>>ASSIGN  11345>>IF      11352>>ASSIGN  11355>>ASSIGN
HAND#
     11131**DCL     11386<<DOINDEX 11387>>IF      11391>>ASSIGN  11393>>ASSIGN  11395>>IF      11396>>ASSIGN
     11403>>IF      11405>>ASSIGN  11408>>DOINDEX 11411>>ASSIGN
HANDLER$
     10314**DCL     10882--IMP-PTR 11380>>ASSIGN  11382>>ASSIGN  11383>>CALLBLT 11384>>CALLBLT 11385>>ASSIGN
     11391>>ASSIGN  11396>>ASSIGN  11397>>ASSIGN  11399>>DOINDEX 11400>>ASSIGN  11405>>ASSIGN  11406>>ASSIGN
     11410>>ASSIGN  11410>>ASSIGN  11411>>ASSIGN  11413>>DOINDEX 11417>>ASSIGN  11422>>ASSIGN  11423>>IF
PL6.E3A0      #004=KSC$UPDATE File=KSC$COMMANDS2.:E05TSI                         WED 07/30/97 01:48 Page:618
     11425>>ASSIGN  11429>>ASSIGN
HDLCX25_IN
     11121**DCL     11366<<ASSIGN  11372>>IF
HDR$
     10395**DCL     10331--IMP-PTR 10946--IMP-PTR 11143>>ASSIGN  11144>>CALL
HEX
     11093**DCL     11314<<ASSIGN
HEX$
     10429**DCL     11314>>ASSIGN
HEX_CHARS
     10245**DCL     11313>>CALLBLT
I
     11129**DCL     11168<<DOINDEX 11169>>DOCASE  11171>>ASSIGN  11171>>ASSIGN  11173>>ASSIGN  11175>>ASSIGN
     11175>>ASSIGN  11177>>ASSIGN  11179>>ASSIGN  11179>>ASSIGN  11199>>ASSIGN  11214>>ASSIGN  11224>>ASSIGN
     11231<<DOINDEX 11232>>IF      11234>>ASSIGN  11235>>ASSIGN  11243>>ASSIGN  11244>>ASSIGN  11249<<DOINDEX
     11250>>IF      11252>>IF      11255>>ASSIGN  11256>>ASSIGN  11258>>ASSIGN  11259>>ASSIGN  11265>>IF
     11267>>ASSIGN  11270>>IF      11270>>IF      11270>>IF      11307<<DOINDEX 11311>>IF      11313>>CALLBLT
     11348<<DOINDEX 11349>>IF      11362>>IF      11362>>IF      11365>>IF      11367>>ASSIGN  11413<<DOINDEX
     11414>>ASSIGN  11414>>ASSIGN
J
     11132**DCL     11178<<DOINDEX 11179>>ASSIGN  11179>>ASSIGN  11179>>ASSIGN  11318<<DOINDEX 11319>>IF
     11323>>IF      11347<<ASSIGN  11364>>ASSIGN  11367>>ASSIGN  11368<<ASSIGN  11368>>ASSIGN  11371>>ASSIGN
     11375>>ASSIGN  11376>>ASSIGN  11377>>ASSIGN  11381>>ASSIGN  11382>>ASSIGN  11385>>ASSIGN
K
     11128**DCL     11308<<ASSIGN  11314>>ASSIGN  11315<<ASSIGN  11315>>ASSIGN  11399<<DOINDEX 11400>>ASSIGN
     11400>>ASSIGN  11408<<DOINDEX 11409>>ASSIGN  11410>>ASSIGN  11411>>ASSIGN  11411>>ASSIGN  11413>>DOINDEX
     11417>>ASSIGN
KS$PARAM.ARRAY_SZ
     10634**DCL     11411>>ASSIGN
KS$PARAM.DEFAULT
     10658**DCL     11400>>ASSIGN  11414>>ASSIGN
KS$PARAM.SPCL_TBL$
     10651**DCL     11409>>ASSIGN
KSE$ERRMSG
     10084**DCL-ENT 11195--CALL    11200--CALL    11210--CALL    11215--CALL    11220--CALL    11225--CALL
     11236--CALL    11245--CALL    11246--CALL    11261--CALL    11268--CALL    11275--CALL    11296--CALL
PL6.E3A0      #004=KSC$UPDATE File=KSC$COMMANDS2.:E05TSI                         WED 07/30/97 01:48 Page:619
     11304--CALL    11343--CALL    11432--CALL    11446--CALL
KSR$WR_HLPCG
     10086**DCL-ENT 11144--CALL
KSU$GET_NODE
     10093**DCL-ENT 11148--CALL
KSU$INIT_DEFCNFG
     10092**DCL-ENT 11378--CALL
KSU$WRITE_NETCON
     10094**DCL-ENT 11379--CALL
KS_DEFAULT
     10681**DCL     11378<>CALL    11379--CALL
KS_DEFAULT.LGN.LGNSIZE
     10818**DCL     10819--IMP-SIZ 11378>>CALL    11379>>CALL
KS_DEFAULT_KEY
     10305**DCL     11357--ASSIGN  11379--CALL
KS_DEFAULT_KEY.HNDLR
     10309**DCL     11356<<ASSIGN  11377<<ASSIGN
KS_DEFAULT_KEY.NODE
     10308**DCL     11355<<ASSIGN
KS_FEPHNDLR
     10409**DCL     11339--ASSIGN  11437--ASSIGN
KS_FEPHNDLR.BOOTIME
     10416**DCL     11364<<ASSIGN  11376<<ASSIGN
KS_FEPHNDLR.DEFLIBACCT
     10413**DCL     11442--ASSIGN
KS_FEPHNDLR.HANDLER
     10420**DCL     11349>>IF      11362>>IF      11362>>IF      11365>>IF      11367<<ASSIGN  11367>>ASSIGN
     11375<<ASSIGN  11377>>ASSIGN  11381>>ASSIGN  11382>>ASSIGN  11385>>ASSIGN  11442--ASSIGN
KS_FEPHNDLR.NHANDLERS
     10410**DCL     11348>>DOINDEX 11371<<ASSIGN  11374<<ASSIGN  11374>>ASSIGN  11442--ASSIGN  11442>>ASSIGN
KS_FEPHNDLR_KEY
     10454**DCL     11340--ASSIGN  11436--ASSIGN
KS_FEPHNDLR_KEY.NODE
     10457**DCL     11338<<ASSIGN
KS_HANDLER
     10882**DCL     11380<<ASSIGN  11406--ASSIGN  11406--ASSIGN  11410--ASSIGN  11422--ASSIGN  11425--ASSIGN
PL6.E3A0      #004=KSC$UPDATE File=KSC$COMMANDS2.:E05TSI                         WED 07/30/97 01:48 Page:620
     11426--ASSIGN  11429--ASSIGN
KS_HANDLER.HNDLRFID
     10883**DCL     11382<<ASSIGN  11383>>CALLBLT 11384<<CALLBLT
KS_HANDLER.HNDLRNAME
     10886**DCL     11385<<ASSIGN
KS_HANDLER.IPARAM.ARRAY_SZ
     10915**DCL     11411<<ASSIGN  11413>>DOINDEX 11417>>ASSIGN
KS_HANDLER.IPARAM.OFFSET
     10924**DCL     11410<<ASSIGN
KS_HANDLER.NPARAMI
     10904**DCL     11405<<ASSIGN  11423>>IF
KS_HANDLER.NPARAMS
     10899**DCL     11396<<ASSIGN  11397<<ASSIGN  11399>>DOINDEX
KS_HANDLER.PARAMS
     10909**DCL     11400<<ASSIGN
KS_HANDLER.TYPE
     10890**DCL     11391<<ASSIGN
KS_HANDLER_KEY
     10286**DCL     11353--ASSIGN  11421--ASSIGN
KS_HANDLER_KEY.HNDLR
     10290**DCL     11351<<ASSIGN  11381<<ASSIGN  11387>>IF
KS_HANDLER_KEY.NODE
     10289**DCL     11352<<ASSIGN
KS_HAND_INFO.PARAMS$
     10185**DCL     11393>>ASSIGN  11411>>ASSIGN
KS_HAND_INFO.SZ
     10180**DCL     11395>>IF      11396>>ASSIGN  11403>>IF      11405>>ASSIGN  11408>>DOINDEX
KS_HAND_INFO.TEXT
     10170**DCL     11387>>IF
KS_HAND_INFO.TYPE
     10174**DCL     11391>>ASSIGN
KS_LINK.CHANNEL
      9532**DCL     11319>>IF      11325<<ASSIGN  11333--ASSIGN
KS_LINK.LINKS#
      9531**DCL     11162<<ASSIGN  11218>>IF      11241>>IF      11318>>DOINDEX 11323>>IF      11325>>ASSIGN
     11326<<ASSIGN  11326>>ASSIGN  11333>>ASSIGN  11333--ASSIGN
PL6.E3A0      #004=KSC$UPDATE File=KSC$COMMANDS2.:E05TSI                         WED 07/30/97 01:48 Page:621
KS_LINK_KEY
     10499**DCL     11158--ASSIGN  11332--ASSIGN
KS_LINK_KEY.NODE
     10502**DCL     11157<<ASSIGN  11330<<ASSIGN
KS_MSGBUF
      9531**DCL     10395--DCLINIT 11159--ASSIGN  11331--ASSIGN
KS_MSGBUF$
      9531**DCL      9531--IMP-PTR 11162>>ASSIGN  11218>>IF      11241>>IF      11318>>DOINDEX 11319>>IF
     11323>>IF      11325>>ASSIGN  11325>>ASSIGN  11326>>ASSIGN  11326>>ASSIGN  11333>>ASSIGN
KS_MYSTATION
      9527**DCL      9527--REDEF
KS_NETWORK
     10138**DCL     11155>>ASSIGN  11291--ASSIGN  11292--ASSIGN
KS_NETWORK.NODE
     10141**DCL     11292--ASSIGN  11292--ASSIGN
KS_NETWORK.NODE.CONTROL_NODE
     10148**DCL     11165>>ASSIGN  11252>>IF      11256>>ASSIGN  11259--ASSIGN  11265>>IF      11289<<ASSIGN
KS_NETWORK.NODE.NODE
     10147**DCL     11198--ASSIGN  11199>>ASSIGN  11213--ASSIGN  11214>>ASSIGN  11223--ASSIGN  11224>>ASSIGN
     11230>>IF      11232>>IF      11234--ASSIGN  11235>>ASSIGN  11243>>ASSIGN  11244--ASSIGN  11252>>IF
     11252>>IF      11255>>ASSIGN  11257>>ASSIGN  11258--ASSIGN  11260--ASSIGN  11267>>ASSIGN  11270>>IF
     11288<<ASSIGN
KS_NETWORK.NODE.TYPE
     10144**DCL     11188>>IF      11188>>IF      11270>>IF      11270>>IF      11284<<ASSIGN  11287<<ASSIGN
KS_NETWORK.NODE#
     10139**DCL     11231>>DOINDEX 11249>>DOINDEX 11292>>ASSIGN
KS_NETWORK_KEY
     10835**DCL     11290--ASSIGN
KS_NODE
      9528**DCL     11279>>IF
KS_NODENAME
      9527**DCL     11281<<ASSIGN
KS_RFEP
     10472**DCL     11153--ASSIGN  11155<<ASSIGN  11299--ASSIGN  11300--ASSIGN
KS_RFEP.NODE
     10475**DCL     11300--ASSIGN  11300--ASSIGN
PL6.E3A0      #004=KSC$UPDATE File=KSC$COMMANDS2.:E05TSI                         WED 07/30/97 01:48 Page:622
KS_RFEP.NODE.TYPE
     10478**DCL     11164>>ASSIGN  11285<<ASSIGN  11345>>IF
KS_RFEP.NODE#
     10473**DCL     11300>>ASSIGN
KS_RFEP_KEY
     10426**DCL     11152--ASSIGN  11298--ASSIGN
KS_SUB_BUF_1
      9532**DCL     11200--CALL    11215--CALL    11225--CALL    11236--CALL    11246--CALL    11261--CALL
     11268--CALL
KS_SUB_BUF_1.COUNT
      9532**DCL     11198<<ASSIGN  11213<<ASSIGN  11223<<ASSIGN  11234<<ASSIGN  11244<<ASSIGN  11258<<ASSIGN
KS_SUB_BUF_1.TEXT
      9532**DCL     11199<<ASSIGN  11214<<ASSIGN  11224<<ASSIGN  11235<<ASSIGN  11243<<ASSIGN  11255<<ASSIGN
     11267<<ASSIGN
KS_SUB_BUF_2
      9532**DCL     11261--CALL
KS_SUB_BUF_2.COUNT
      9533**DCL     11259<<ASSIGN
KS_SUB_BUF_2.TEXT
      9533**DCL     11256<<ASSIGN
KS_SUB_BUF_3
      9533**DCL     11261--CALL
KS_SUB_BUF_3.COUNT
      9533**DCL     11260<<ASSIGN
KS_SUB_BUF_3.TEXT
      9533**DCL     11257<<ASSIGN
L
     11130**DCL     11310<<DOINDEX 11311>>IF      11313>>CALLBLT
LINK_LIST
     11127**DCL     11179<<ASSIGN  11311>>IF      11313>>CALLBLT
LINK_LOOP
     11318**LABEL   11320--EXIT
M$DELREC
       122**DCL-ENT 11354--CALL    11358--CALL
M$READ
       121**DCL-ENT 11154--CALL    11160--CALL    11341--CALL
PL6.E3A0      #004=KSC$UPDATE File=KSC$COMMANDS2.:E05TSI                         WED 07/30/97 01:48 Page:623
M$WRITE
       121**DCL-ENT 11294--CALL    11302--CALL    11336--CALL    11430--CALL    11444--CALL
NEW_CLASS
     11136**DCL     11185<<ASSIGN  11187<<ASSIGN  11193>>IF      11206>>IF      11252>>IF      11265>>IF
NODENAME
     11123**DCL     11148<>CALL    11171<<ASSIGN  11230>>IF      11232>>IF      11252>>IF      11265>>IF
     11281>>ASSIGN  11282>>ASSIGN  11288>>ASSIGN
NODETYPE
     11135**DCL     11164<<ASSIGN  11173<<ASSIGN  11184>>IF      11184>>IF      11241>>IF      11284>>ASSIGN
     11285>>ASSIGN  11286>>IF
NRLINKS
     11125**DCL     11166<<ASSIGN  11177<<ASSIGN  11178>>DOINDEX 11218>>IF      11241>>IF      11307>>DOINDEX
OLD_CLASS
     11137**DCL     11190<<ASSIGN  11192<<ASSIGN  11193>>IF
OUT$
     11122**DCL     11406<<ASSIGN  11410>>ASSIGN  11414>>ASSIGN  11417<<ASSIGN  11417>>ASSIGN  11425<<ASSIGN
     11426<<ASSIGN  11426>>ASSIGN  11429>>ASSIGN
OUT$BLK.CODE
     11024**DCL     11169>>DOCASE  11173>>ASSIGN
OUT$BLK.NSUBLKS
     11028**DCL     11141>>IF      11168>>DOINDEX 11177>>ASSIGN
OUT$BLK.SUBLK$
     11049**DCL     11148>>CALL    11148<>CALL    11169>>DOCASE  11171>>ASSIGN  11171>>ASSIGN  11171>>ASSIGN
     11171>>ASSIGN  11173>>ASSIGN  11173>>ASSIGN  11175>>ASSIGN  11175>>ASSIGN  11175>>ASSIGN  11175>>ASSIGN
     11177>>ASSIGN  11179>>ASSIGN  11179>>ASSIGN  11179>>ASSIGN  11179>>ASSIGN
OUT$SYM.COUNT
     11085**DCL     11088--IMP-SIZ 11171>>ASSIGN  11175>>ASSIGN  11179>>ASSIGN
OUT$SYM.TEXT
     11088**DCL     11171>>ASSIGN  11175>>ASSIGN  11179>>ASSIGN
PROMPT.NODENAME
     10123**DCL     11282<<ASSIGN
READ_NETCON
     10521**DCL     11154<>CALL    11160<>CALL    11341<>CALL
READ_NETCON.BUF_
     10523**DCL     11153<<ASSIGN  11159<<ASSIGN  11339<<ASSIGN
READ_NETCON.KEY_
PL6.E3A0      #004=KSC$UPDATE File=KSC$COMMANDS2.:E05TSI                         WED 07/30/97 01:48 Page:624
     10521**DCL     11152<<ASSIGN  11158<<ASSIGN  11340<<ASSIGN
READ_NETCON.STATION_
     10524**DCL     10525--REDEF
READ_NETCON.V
     10525**DCL     10521--DCLINIT
READ_NETCON.V.DVBYTE.REREAD#
     10536**DCL     10536--REDEF
READ_NETCON.V.INDX#
     10534**DCL     10534--REDEF
TEMP
     11133**DCL     11313<<CALLBLT 11314>>ASSIGN  11383<<CALLBLT 11384>>CALLBLT
TEMP_LINK
     10434**DCL     11309<<ASSIGN  11319>>IF      11325>>ASSIGN
TEMP_LINK.HEX0
     10436**DCL     10430--DCLINIT
TEMP_LINK.HEX1
     10437**DCL     10431--DCLINIT
TEMP_LINK.HEX2
     10439**DCL     10432--DCLINIT
TEMP_LINK.HEX3
     10440**DCL     10433--DCLINIT
TOP$
         9**DCL         7--PROC    11016--IMP-PTR 11141>>IF      11148>>CALL    11168>>DOINDEX 11169>>DOCASE
     11171>>ASSIGN  11171>>ASSIGN  11173>>ASSIGN  11175>>ASSIGN  11175>>ASSIGN  11177>>ASSIGN  11179>>ASSIGN
     11179>>ASSIGN
UPDATE
     10331**DCL     11144--CALL
UPDATE.CODE
     10336**DCL     11143<<ASSIGN
WRITE_NETCON
     10579**DCL     11294<>CALL    11302<>CALL    11336<>CALL    11430<>CALL    11444<>CALL
WRITE_NETCON.BUF_
     10579**DCL     11291<<ASSIGN  11299<<ASSIGN  11331<<ASSIGN  11422<<ASSIGN  11437<<ASSIGN
WRITE_NETCON.BUF_.BOUND
     10579**DCL     11292<<ASSIGN  11300<<ASSIGN  11333<<ASSIGN  11429<<ASSIGN  11442<<ASSIGN
WRITE_NETCON.KEY_
PL6.E3A0      #004=KSC$UPDATE File=KSC$COMMANDS2.:E05TSI                         WED 07/30/97 01:48 Page:625
     10579**DCL     11290<<ASSIGN  11298<<ASSIGN  11332<<ASSIGN  11421<<ASSIGN  11436<<ASSIGN
WRITE_NETCON.STATION_
     10581**DCL     10581--REDEF
WRITE_NETCON.V
     10582**DCL     10579--DCLINIT
WRITE_NETCON.V.DVBYTE.VFC#
     10588**DCL     10588--REDEF
