PL6.E3A0      #003=KSC$DEFINE File=KSC$COMMANDS2.:E05TSI                         WED 07/30/97 01:47 Page:445
     2396        1        /*T***********************************************************/
     2397        2        /*T*                                                         */
     2398        3        /*T* Copyright (c) Bull HN Information Systems Inc., 1997    */
     2399        4        /*T*                                                         */
     2400        5        /*T***********************************************************/
     2401        6        KSC$DEFINE: PROC(TOP$) ALTRET;
     2402        7        /**/
     2403        8    1   DCL TOP$ PTR;
     2404        9        /**/
     2405       10        %INCLUDE CP_6;
     2406       91        %INCLUDE KL_MACRO_C;
     2407     3443        %INCLUDE KL_CONFIG_M;
     2408     4205        %INCLUDE KL_CONTROL_C;
     2409     4585        %INCLUDE GI_BOOT_C;
     2410     4696        %INCLUDE KS_MACRO_M;
     2411     4893        %INCLUDE KS_SUBS_C;
     2412     5136        %INCLUDE KS_DATA_R;
     2413     5151        %INCLUDE KS_PERR_C;
     2414     5218        %INCLUDE F$DCB;
     2415     5267        %INCLUDE XU_MACRO_C;
     2416     8373        %INCLUDE B_ERRORS_C;
     2417     9500        %INCLUDE CP_6_SUBS;
     2418    10040        %INCLUDE            KL_AFCN_C;
     2419    10141        %KS$BOX(TITLE="entry defs");

             10159    1   /***************************************************************************
             10160    1    *                                                                         *
             10161    1    *                                 entry defs                              *
             10162    1    *                                                                         *
             10163    1    ***************************************************************************/

     2420    10168    1   DCL KSE$ERRMSG ENTRY(4);
     2421    10169    1   DCL                 KSR$WR_HLPCG ENTRY(1) ALTRET;
     2422    10170    1   DCL KSU$INIT_DEFCNFG ENTRY(1);
     2423    10171    1   DCL KSU$WRITE_NETCON ENTRY(3) ALTRET;
     2424    10172        %KS$BOX(TITLE="symref variables");

PL6.E3A0      #003=KSC$DEFINE File=KSC$COMMANDS2.:E05TSI                         WED 07/30/97 01:47 Page:446
             10190    1   /***************************************************************************
             10191    1    *                                                                         *
             10192    1    *                              symref variables                           *
             10193    1    *                                                                         *
             10194    1    ***************************************************************************/

     2425    10199        %KS$HAND_INFO (NAME=KS_HAND_INFO,LVL=1,STCLASS="(0:0) SYMREF",LAST=YES);
     2426    10238    1   DCL B$TCB$ PTR SYMREF;
     2427    10239    1   DCL KS_TBL(0:0) PTR SYMREF;
     2428    10240        %KS$BOX(TITLE="symdef variables");

             10258    1   /***************************************************************************
             10259    1    *                                                                         *
             10260    1    *                              symdef variables                           *
             10261    1    *                                                                         *
             10262    1    ***************************************************************************/

     2429    10267        %KL$NETWORK (NAME=KS_NETWORK,NUM=255,STCLASS="STATIC SYMDEF");
     2430    10294        %KS$BOX(TITLE="constant variables");

             10312    1   /***************************************************************************
             10313    1    *                                                                         *
             10314    1    *                             constant variables                          *
             10315    1    *                                                                         *
             10316    1    ***************************************************************************/

     2431    10321    1   DCL HEX_CHARS CHAR(0) CONSTANT INIT('0123456789ABCDEF');
     2432    10322        %KS$BOX(TITLE="static variables");

             10340    1   /***************************************************************************
             10341    1    *                                                                         *
             10342    1    *                              static variables                           *
             10343    1    *                                                                         *
             10344    1    ***************************************************************************/

     2433    10349        %KL$HNDLR_KEY (NAME=KS_HANDLER_KEY,STCLASS=STATIC);
     2434    10368        %KL$LINK_KEY (NAME=KS_LINK_KEY,STCLASS=STATIC);
PL6.E3A0      #003=KSC$DEFINE File=KSC$COMMANDS2.:E05TSI                         WED 07/30/97 01:47 Page:447
     2435    10386        %KL$FEPBOOT (NAME=KS_FEPBOOT,NUM=GI_BOOT_HI,STCLASS=STATIC);
     2436    10411        %KL$FEPBOOT_KEY (NAME=KS_FEPBOOT_KEY,STCLASS=STATIC);
     2437    10429    1         DCL   HEX$(0:3)   PTR  STATIC INIT(
     2438    10430    1                                          ADDR(TEMP_LINK.HEX0),
     2439    10431    1                                          ADDR(TEMP_LINK.HEX1),
     2440    10432    1                                          ADDR(TEMP_LINK.HEX2),
     2441    10433    1                                          ADDR(TEMP_LINK.HEX3));
     2442    10434    1   DCL   1  TEMP_LINK   STATIC,
     2443    10435    1            2  *        BIT(1) UNAL,
     2444    10436    1            2  HEX0     UBIN(4) UNAL,
     2445    10437    1            2  HEX1     UBIN(4) UNAL,
     2446    10438    1            2  *        BIT(1)  UNAL,
     2447    10439    1            2  HEX2     UBIN(4) UNAL,
     2448    10440    1            2  HEX3     UBIN(4) UNAL;
     2449    10441        %KL$FEPCTL (NAME=KS_FEPCTL,NUM=GI_CNTL_BOOTHI,STCLASS=STATIC);
     2450    10461        %KL$FEPCTL_KEY (NAME=KS_FEPCTL_KEY,STCLASS=STATIC);
     2451    10479        %KL$FEPHNDLR (NAME=KS_FEPHNDLR,NUM=20,STCLASS=STATIC);
     2452    10509        %KL$FEPHNDLR_KEY (NAME=KS_FEPHNDLR_KEY,STCLASS=STATIC);
     2453    10527        %KL$PSEUDO (NAME=KS_PSEUDO,NUM=50,STCLASS=STATIC);
     2454    10571        %KL$PSEUDO_KEY (NAME=KS_PSEUDO_KEY,STCLASS=STATIC);
     2455    10589        %KL$NODEINFO (NAME=KS_NODEINFO,STCLASS=STATIC);
     2456    10606        %KL$NODEINFO_KEY (NAME=KS_NODEINFO_KEY,STCLASS=STATIC);
     2457    10623        %KL$DEFAULT_KEY (NAME=KS_DEFAULT_KEY,STCLASS=STATIC);
     2458    10642    1        DCL   DEFAULT_BUF (0:49) UBIN WORD STATIC INIT(0*0);
     2459    10643    1        DCL   DEFAULT$ PTR STATIC INIT(ADDR(DEFAULT_BUF));
     2460    10644    1   DCL HNDLR$ PTR STATIC INIT(ADDR(HNDLR_BUF));
     2461    10645    1   DCL HNDLR_BUF(0:400) CHAR(1) STATIC;
     2462    10646        %KL$NETWORK_KEY (NAME=KS_NETWORK_KEY,STCLASS=STATIC);
     2463    10663    1   DCL 1 KS_RFEP_KEY STATIC ALIGNED,
     2464    10664    1        2  CNT UBIN BYTE UNAL INIT(1),
     2465    10665    1       2  TYP UBIN BYTE UNAL INIT(%KS_KEYTYP_RFEP);
     2466    10666        %KL$NETWORK         (NAME=KS_RFEP,NUM=255,STCLASS=STATIC);
     2467    10693    1   DCL                 HDR$ PTR STATIC INIT(ADDR(KS_MSGBUF));
     2468    10694        %KS$BOX(TITLE="based variables");

             10712    1   /***************************************************************************
             10713    1    *                                                                         *
PL6.E3A0      #003=KSC$DEFINE File=KSC$COMMANDS2.:E05TSI                         WED 07/30/97 01:47 Page:448
             10714    1    *                              based variables                            *
             10715    1    *                                                                         *
             10716    1    ***************************************************************************/

     2469    10721    1   DCL B$PARAMI(0:0) UBIN HALF BASED HALIGNED;
     2470    10722
     2471    10723        %KS$PARAM(NAME=KS$PARAM,LVL=1,SPECIAL=YES,STCLASS="(0:0) BASED",LAST=";");
     2472    10793        %KL$LINCNFG(NAME=KS_DEFAULT,STCLASS="BASED(DEFAULT$)");
     2473    10951        %B$TCB;
     2474    10954        %B$ALT;
     2475    10962        %PARSE$OUT (NAME=OUT$BLK,STCLASS="BASED(TOP$)");
     2476    11007        %PARSE$SYM (NAME=OUT$SYM,STCLASS=BASED);
     2477    11045        %KL$HNDLR (NAME=KS_HANDLER,NUM=KL_FIXED_HI,STCLASS="BASED(HNDLR$)");
     2478    11108    1   DCL   HEX   UBIN(4)  BASED UNAL;
     2479    11109        %KL_HDR(FPTN=UPDATE,CODE=%IGA_UPDATE,STCLASS="BASED(HDR$)");
     2480    11189        %KS$BOX(TITLE="auto variables",PAGE=YES);

PL6.E3A0      #003=KSC$DEFINE File=KSC$COMMANDS2.:E05TSI                         WED 07/30/97 01:47 Page:449
             11207    1   /***************************************************************************
             11208    1    *                                                                         *
             11209    1    *                               auto variables                            *
             11210    1    *                                                                         *
             11211    1    ***************************************************************************/

     2481    11216    1   DCL NODENAME CHAR(8);
     2482    11217    1   DCL                 NRLINKS SBIN;
     2483    11218    1   DCL                 LINK_LIST(0:10)  CHAR(4);
     2484    11219    1   DCL I UBIN;
     2485    11220    1   DCL FEX UBIN;
     2486    11221    1   DCL NODETYPE UBIN;
     2487    11222    1   DCL CONTROL_NODE CHAR(8);
     2488    11223    1   DCL OUT$ PTR;
     2489    11224    1   DCL DFLT$ PTR;
     2490    11225    1   DCL DFLT_OPT$ PTR;
     2491    11226    1   DCL K UBIN;
     2492    11227    1   DCL HAND# UBIN;
     2493    11228    1   DCL L UBIN;
     2494    11229    1   DCL J SBIN;
     2495    11230    1   DCL TEMP UBIN;
     2496    11231    1   DCL   LNKS  UBIN;
     2497    11232    1   DCL   OFFSET   UBIN;
     2498    11233    1       DCL LINK_NR CHAR(1);
     2499    11234        %KS$BOX(TITLE="FPTs, VLPs and such",PAGE=YES);

PL6.E3A0      #003=KSC$DEFINE File=KSC$COMMANDS2.:E05TSI                         WED 07/30/97 01:47 Page:450
             11252    1   /***************************************************************************
             11253    1    *                                                                         *
             11254    1    *                            FPTs, VLPs and such                          *
             11255    1    *                                                                         *
             11256    1    ***************************************************************************/

     2500    11261        %FPT_READ (FPTN=READ_NETCON,
     2501    11262                   DCB=M$NETCON,
     2502    11263                   KEYS=YES);
     2503    11302        %FPT_WRITE (FPTN=WRITE_NETCON,
     2504    11303                    DCB=M$NETCON);
     2505    11334        %FPT_MONINFO(FPTN = KS_MONINFO,
     2506    11335                     MONINFO = KS_MONINFO_V);
     2507    11350        %VLR_MONINFO(FPTN = KS_MONINFO_V);
     2508    11368        %KS$BOX(TITLE="DCBs");

             11386    1   /***************************************************************************
             11387    1    *                                                                         *
             11388    1    *                                    DCBs                                 *
             11389    1    *                                                                         *
             11390    1    ***************************************************************************/

     2509    11395    1   DCL M$NETCON DCB;
     2510    11396        %EJECT;
PL6.E3A0      #003=KSC$DEFINE File=KSC$COMMANDS2.:E05TSI                         WED 07/30/97 01:47 Page:451
     2511    11397    2        DO CASE(OUT$BLK.CODE);
     2512    11398    2           CASE(%KS_NODE);
     2513    11399    2              CALL CHARBIN(FEX,OUT$BLK.SUBLK$(0)->OUT$SYM.TEXT);
     2514    11400    2              CALL BINCHAR(NODENAME,FEX);
     2515    11401    2              SUBSTR(NODENAME,0,4) = 'NODE';
     2516    11402    2              NODETYPE = %KS_FEP;
     2517    11403    2              CALL M$MONINFO(KS_MONINFO) ALTRET(DEF_ERR);
     2518    11404    2              CONTROL_NODE = KS_MONINFO_V.NODE_NAME;
     2519    11405    2             NRLINKS = 0;
     2520    11406
     2521    11407    3              DO I = 1 TO OUT$BLK.NSUBLKS-1;
     2522    11408    4                 DO CASE (OUT$BLK.SUBLK$(I)->OUT$BLK.CODE);
     2523    11409
     2524    11410    4                  CASE (%KS_NAME);
     2525    11411    4                    NODENAME = OUT$BLK.SUBLK$(I)->OUT$BLK.SUBLK$(0)->OUT$SYM.TEXT;
     2526    11412
     2527    11413    4                  CASE (%KS_TYPE);
     2528    11414    4                    NODETYPE = OUT$BLK.SUBLK$(I)->OUT$BLK.SUBLK$(0)->OUT$BLK.CODE;
     2529    11415
     2530    11416    4                  CASE (%KS_CONT);
     2531    11417    4                    CONTROL_NODE = OUT$BLK.SUBLK$(I)->OUT$BLK.SUBLK$(0)->OUT$SYM.TEXT;
     2532    11418    4                   CASE (%KS_LINK);
     2533    11419    4                      NRLINKS = OUT$BLK.SUBLK$(I)->OUT$BLK.NSUBLKS;
     2534    11420    5                      DO J = 0 TO NRLINKS - 1;
     2535    11421    5                         LINK_LIST(J) = OUT$BLK.SUBLK$(I)->OUT$BLK.SUBLK$(J)->OUT$SYM.
             11421                                  TEXT;
     2536    11422    5                      END;
     2537    11423
     2538    11424    4                  END;
     2539    11425    3                 END;
     2540    11426
     2541    11427    2              KS_SUB_BUF_1.TEXT = NODENAME;
     2542    11428    2              KS_SUB_BUF_1.COUNT = SIZEC(NODENAME);
     2543    11429    2              IF NODETYPE = %KS_RFEP AND NRLINKS = 0 THEN
     2544    11430    3                DO;
     2545    11431    3                   CALL KSE$ERRMSG (%E$KS_RFEP_WITH_NO_LINKS-0,VECTOR(KS_SUB_BUF_1));
     2546    11432                         /*E* ERROR:  KSN-E$KS_RFEP_WITH_NO_LINKS_0
PL6.E3A0      #003=KSC$DEFINE File=KSC$COMMANDS2.:E05TSI                         WED 07/30/97 01:47 Page:452
     2547    11433          MESSAGE: A link must be defined on a RFEP node.  Node %U1 has not been defined. */
     2548    11434    3                   RETURN;
     2549    11435    3                END;
     2550    11436    2              IF NODETYPE = %KS_ME OR NODETYPE = %KS_HOST THEN
     2551    11437    2                 CONTROL_NODE = ' ';
     2552    11438    2     IF FEX > KS_MONINFO_V.NUM_NODES - 1 THEN
     2553    11439    3                DO;
     2554    11440    3                 CALL BINCHAR(KS_SUB_BUF_1.TEXT,KS_MONINFO_V.NUM_NODES - 1);
     2555    11441    3                 KS_SUB_BUF_1.TEXT = SUBSTR(KS_SUB_BUF_1.TEXT,28,3);
     2556    11442    3                   KS_SUB_BUF_1.COUNT = 3;
     2557    11443    3                   CALL KSE$ERRMSG (%E$KS_MAX_NODE-0,VECTOR(KS_SUB_BUF_1));
     2558    11444                         /*E* ERROR:  KSN-E$KS_MAX_NODE-0
     2559    11445                              MESSAGE: Node %U1 is the largest node that may be defined.
     2560    11446                              DESCRIPTION: The largest node number is set in TIGR
     2561    11447                                  above which NETCON can not define a node. */
     2562    11448    3                   RETURN;
     2563    11449    3                END;
     2564    11450    2              READ_NETCON.KEY_ = VECTOR(KS_NETWORK_KEY);
     2565    11451    2              READ_NETCON.BUF_ = VECTOR(KS_NETWORK);
     2566    11452    3              CALL M$READ(READ_NETCON) WHENALTRETURN DO;
     2567    11453    3                 IF B$TCB$->B$TCB.ALT$->B$ALT.ERR.CODE ~= %E$NOKEY
     2568    11454    3                    THEN GOTO DEF_ERR;
     2569    11455    3                 END;  /* WHENALTRETURN */
     2570    11456    2             READ_NETCON.KEY_ = VECTOR(KS_RFEP_KEY);
     2571    11457    2             READ_NETCON.BUF_ = VECTOR(KS_RFEP);
     2572    11458    3             CALL M$READ(READ_NETCON) WHENALTRETURN DO;
     2573    11459    3                KS_RFEP = KS_NETWORK;
     2574    11460    3                END;  /* WHENALTRETURN */
     2575    11461    2              IF KS_NETWORK.NODE.NODE(FEX) ~= ' ' THEN
     2576    11462    3                 DO;
     2577    11463    3                    KS_SUB_BUF_1.COUNT = SIZEC(OUT$BLK.SUBLK$(0)->OUT$SYM.TEXT);
     2578    11464    3                    KS_SUB_BUF_1.TEXT = OUT$BLK.SUBLK$(0)->OUT$SYM.TEXT;
     2579    11465    3                    CALL KSE$ERRMSG(%E$KS_DUP_NODE,VECTOR(KS_SUB_BUF_1));
     2580    11466                         /*E* ERROR: KSN-E$KS_DUP_NODE-0
     2581    11467                              MESSAGE: Node %U1 is already defined.
     2582    11468                              DESCRIPTION: SEE MESSAGE */
     2583    11469    3                    RETURN;
PL6.E3A0      #003=KSC$DEFINE File=KSC$COMMANDS2.:E05TSI                         WED 07/30/97 01:47 Page:453
     2584    11470    3                 END;  /* IF */
     2585    11471    2              KS_NETWORK.NODE# = KS_MONINFO_V.NUM_NODES;
     2586    11472    3              DO I = 0 TO KS_NETWORK.NODE#;
     2587    11473    3                 IF KS_NETWORK.NODE.NODE(I) = NODENAME
     2588    11474    3                    THEN
     2589    11475    4                    DO;
     2590    11476    4                       KS_SUB_BUF_1.COUNT = SIZEC(KS_NETWORK.NODE.NODE(I));
     2591    11477    4                       KS_SUB_BUF_1.TEXT = KS_NETWORK.NODE.NODE(I);
     2592    11478    4                       CALL KSE$ERRMSG(%E$KS_DUP_NODE,VECTOR(KS_SUB_BUF_1));
     2593    11479    4                       RETURN;
     2594    11480    4                    END;  /* IF */
     2595    11481    3                 ELSE IF CONTROL_NODE = KS_NETWORK.NODE.NODE(I) AND
     2596    11482    3                        CONTROL_NODE ~= ' ' AND
     2597    11483    3                      (KS_NETWORK.NODE.TYPE(I) ~= %KS_HOST AND
     2598    11484    3                      (KS_NETWORK.NODE.TYPE(I) ~= %KS_ME)) THEN
     2599    11485    4                         DO;
     2600    11486    4                            CALL KSE$ERRMSG (%E$KS_CNTRL_NOT_HOST);
     2601    11487                                 /*E* ERROR:  KSN-E$KS_CNTRL_NOT_HOST-0
     2602    11488                     MESSAGE: WARNING: The control node specified is not of type host or me.
     2603    11489                                      DESCRIPTION:  SEE MESSAGE */
     2604    11490    4                         END;
     2605    11491    3                  ELSE IF KS_NETWORK.NODE.CONTROL_NODE(I) = NODENAME AND
     2606    11492    3                       (NODETYPE ~= %KS_HOST AND NODETYPE ~=%KS_ME) THEN
     2607    11493    4                          DO;
     2608    11494    4                       KS_SUB_BUF_1.COUNT = SIZEC(KS_NETWORK.NODE.NODE(I));
     2609    11495    4                       KS_SUB_BUF_1.TEXT = KS_NETWORK.NODE.NODE(I);
     2610    11496    4                             CALL KSE$ERRMSG (%E$KS_NODE_NOT_CNTRL, VECTOR(KS_SUB_BUF_1
             11496                                      ));
     2611    11497                                  /*E* ERROR: KSN-E$KS_NODE_NOT_CNTRL-0
     2612    11498         MESSAGE: WARNING: %U1 specifies this node as a control node, but this node is not H
             11498        OST or ME.
     2613    11499                                       DESCRIPTION:  SEE MESSAGE */
     2614    11500    4                          END;
     2615    11501    3               END;
     2616    11502
     2617    11503    2              IF FEX > KS_NETWORK.NODE#
     2618    11504    3              THEN DO;
PL6.E3A0      #003=KSC$DEFINE File=KSC$COMMANDS2.:E05TSI                         WED 07/30/97 01:47 Page:454
     2619    11505    4                 DO I = KS_NETWORK.NODE#+1 TO FEX;
     2620    11506    4                    KS_NETWORK.NODE.TYPE(I) = 0;
     2621    11507    4                    KS_NETWORK.NODE.NODE(I) = ' ';
     2622    11508    4                   KS_RFEP.NODE.TYPE(I) = 0;
     2623    11509    4                   KS_RFEP.NODE.NODE(I) = ' ';
     2624    11510    4                    END;
     2625    11511    3                 KS_NETWORK.NODE# = FEX;
     2626    11512    3                KS_RFEP.NODE# = FEX;
     2627    11513    3                 END;
     2628    11514    2             KS_NETWORK.NODE.TYPE(FEX) = NODETYPE;
     2629    11515    2             KS_RFEP.NODE.TYPE(FEX) = NODETYPE;
     2630    11516    2              IF NODETYPE = %KS_RFEP THEN
     2631    11517    2                KS_NETWORK.NODE.TYPE(FEX) = %KS_FEP;
     2632    11518    2             KS_NETWORK.NODE.NODE(FEX) = NODENAME;
     2633    11519    2             KS_NETWORK.NODE.CONTROL_NODE(FEX) = CONTROL_NODE;
     2634    11520    2             WRITE_NETCON.KEY_ = VECTOR(KS_NETWORK_KEY);
     2635    11521    2             WRITE_NETCON.BUF_ = VECTOR(KS_NETWORK);
     2636    11522    2                 WRITE_NETCON.BUF_.BOUND = SIZEV(KS_NETWORK) - SIZEC(KS_NETWORK.NODE) +
     2637    11523    2                   KS_NETWORK.NODE#*SIZEC(KS_NETWORK.NODE(0));
     2638    11524    2             CALL M$WRITE(WRITE_NETCON) ALTRET(DEF_ERR);
     2639    11525    2             WRITE_NETCON.KEY_ = VECTOR(KS_RFEP_KEY);
     2640    11526    2             WRITE_NETCON.BUF_ = VECTOR(KS_RFEP);
     2641    11527    2                 WRITE_NETCON.BUF_.BOUND = SIZEV(KS_RFEP) - SIZEC(KS_RFEP.NODE) +
     2642    11528    2                   KS_RFEP.NODE#*SIZEC(KS_RFEP.NODE(0));
     2643    11529    2             CALL M$WRITE(WRITE_NETCON) ALTRET(DEF_ERR);
     2644    11530
     2645    11531    2              KS_FEPBOOT_KEY.NODE = FEX;
     2646    11532    2              KS_FEPCTL_KEY.NODE = FEX;
     2647    11533    2              KS_FEPHNDLR_KEY.NODE = FEX;
     2648    11534    2              KS_HANDLER_KEY.NODE = FEX;
     2649    11535    2              KS_DEFAULT_KEY.NODE = FEX;
     2650    11536
     2651    11537
     2652    11538        /* Do Case depending on node type */
     2653    11539    3              DO CASE (NODETYPE);
     2654    11540
     2655    11541    3              CASE (%KS_FEP,%KS_NODETYPE_DEBUG,%KS_RFEP);
PL6.E3A0      #003=KSC$DEFINE File=KSC$COMMANDS2.:E05TSI                         WED 07/30/97 01:47 Page:455
     2656    11542                   /* Write default FEPBOOT record */
     2657    11543    3              KS_FEPBOOT.BOOTFID = 'M:FEP.:SYS';
     2658    11544    3              KS_FEPBOOT.BOOTPARAMS = '0'B;
     2659    11545    4              DO I=0 TO %GI_BOOT_HI;
     2660    11546    4                 KS_FEPBOOT.BOOTPARAMS(I) = KS_TBL(%KS_BOOT_PARAM)->KS$PARAM.DEFAULT(I)
             11546                          ;
     2661    11547    4                 END;
     2662    11548    3              KS_FEPBOOT.BOOTPARAMS(%GI_BOOT_LDCT) = %GI_LDCT#;
     2663    11549    3              KS_FEPBOOT.BOOTPARAMS(%GI_BOOT_IOP) = %GI_IOP#;
     2664    11550    3              KS_FEPBOOT.BOOTPARAMS(%GI_BOOT_HMI) = %GI_HMI#;
     2665    11551    3              KS_FEPBOOT.BOOTPARAMS(%GI_BOOT_APESSN) = %GI_APESSN#;
     2666    11552    3              KS_FEPBOOT.BOOTPARAMS(%GI_BOOT_SPROC) = %GI_SPROC#;
     2667    11553    3                 KS_FEPBOOT.BOOTPARAMS(%GI_BOOT_ACCTS) = %GI_ACCTS#;
     2668    11554    3              KS_FEPBOOT.BOOTPARAMS(%GI_BOOT_MUIS) = %GI_MUIS#;
     2669    11555    3                 KS_FEPBOOT.BOOTPARAMS(%GI_BOOT_NSHUF) = %GI_NSHUF#;
     2670    11556    3                KS_FEPBOOT.BOOTPARAMS(%GI_BOOT_TCTX) = %GI_TCTX#;
     2671    11557    3             KS_FEPBOOT.BOOTPARAMS(%GI_BOOT_CBUFFER) = %GI_CBUFFER#;
     2672    11558    3                 KS_FEPBOOT.BOOTPARAMS(%GI_BOOT_NODES) = %GI_NODES#;
     2673    11559    3                 KS_FEPBOOT.BOOTPARAMS(%GI_BOOT_LINKS) = %GI_LINKS#;
     2674    11560    3                 KS_FEPBOOT.BOOTPARAMS(%GI_BOOT_DEVICES) = %GI_DEVICES#;
     2675    11561    3                 KS_FEPBOOT.BOOTPARAMS(%GI_BOOT_PCHANS) = %GI_PCHANS#;
     2676    11562    3              WRITE_NETCON.KEY_ = VECTOR(KS_FEPBOOT_KEY);
     2677    11563    3              WRITE_NETCON.BUF_ = VECTOR(KS_FEPBOOT);
     2678    11564    3              CALL M$WRITE(WRITE_NETCON) ALTRET(DEF_ERR);
     2679    11565
     2680    11566                   /* Write default FEPCTL record */
     2681    11567    4              DO I=0 TO %GI_CNTL_BOOTHI;
     2682    11568    4                 KS_FEPCTL.PARAMS(I) = KS_TBL(%KS_LCP6_PARAM) -> KS$PARAM.DEFAULT(I);
     2683    11569    4                 END;
     2684    11570    3              KS_FEPCTL.NPARAMS = %GI_CNTL_BOOTHI;
     2685    11571
     2686    11572    3              WRITE_NETCON.KEY_ = VECTOR(KS_FEPCTL_KEY);
     2687    11573    3              WRITE_NETCON.BUF_ = VECTOR(KS_FEPCTL);
     2688    11574    3              CALL M$WRITE(WRITE_NETCON) ALTRET(DEF_ERR);
     2689    11575
     2690    11576                   /* Write default FEPHNDLR record */
     2691    11577    3   IF NODETYPE = %KS_RFEP THEN
PL6.E3A0      #003=KSC$DEFINE File=KSC$COMMANDS2.:E05TSI                         WED 07/30/97 01:47 Page:456
     2692    11578    4       DO;
     2693    11579    4          KS_FEPHNDLR.NHANDLERS = 3; /* NA, HDLCX25, ASYNC */
     2694    11580    4          KS_FEPHNDLR.HANDLER(0) = 'NODEADMN';
     2695    11581    4          KS_FEPHNDLR.HANDLER(1) = 'HDLCX25';
     2696    11582    4          KS_FEPHNDLR.HANDLER(2) = 'ASYNC';
     2697    11583    4          KS_FEPHNDLR.DEFLIBACCT = ':SYS    ';
     2698    11584    4          KS_FEPHNDLR.BOOTIME(0) = '1'B;  /* load nodeadmn at bootime */
     2699    11585    4          KS_FEPHNDLR.BOOTIME(1) = '1'B;  /* load hdlcx25 at bootime */
     2700    11586    4          KS_FEPHNDLR.BOOTIME(2) = '0'B;  /* don't load async until later*/
     2701    11587    4       END;
     2702    11588    3   ELSE
     2703    11589    4       DO;
     2704    11590    4          KS_FEPHNDLR.NHANDLERS = 3; /* NA, FEI, ASYNC */
     2705    11591    4          KS_FEPHNDLR.HANDLER(0) = 'NODEADMN';
     2706    11592    4          KS_FEPHNDLR.HANDLER(1) = 'COUPLER';
     2707    11593    4          KS_FEPHNDLR.HANDLER(2) = 'ASYNC';
     2708    11594    4          KS_FEPHNDLR.DEFLIBACCT = ':SYS    ';
     2709    11595    4          KS_FEPHNDLR.BOOTIME(0) = '1'B;  /* load nodeadmn at bootime */
     2710    11596    4          KS_FEPHNDLR.BOOTIME(1) = '1'B;  /* load coupler at bootime */
     2711    11597    4          KS_FEPHNDLR.BOOTIME(2) = '1'B;  /* load async at bootime */
     2712    11598    4       END;
     2713    11599    3              WRITE_NETCON.KEY_ = VECTOR(KS_FEPHNDLR_KEY);
     2714    11600    3              WRITE_NETCON.BUF_ = VECTOR(KS_FEPHNDLR);
     2715    11601
     2716    11602
     2717    11603
     2718    11604
     2719    11605    3                 WRITE_NETCON.BUF_.BOUND = SIZEC(KS_FEPHNDLR.NHANDLERS) + SIZEC(
             11605                          KS_FEPHNDLR.DEFLIBACCT) + 4  /* bootime */
     2720    11606    3                                           + SIZEC(KS_FEPHNDLR.HANDLER(0)) *
             11606                                                    KS_FEPHNDLR.NHANDLERS - 1;
     2721    11607    3              CALL M$WRITE(WRITE_NETCON) ALTRET(DEF_ERR);
     2722    11608
     2723    11609                   /* Write default HNDLR records */
     2724    11610    4              DO J = 1 TO KS_FEPHNDLR.NHANDLERS;
     2725    11611    4                 KS_DEFAULT_KEY.HNDLR = KS_FEPHNDLR.HANDLER(J-1);
     2726    11612    4                 CALL KSU$INIT_DEFCNFG(KS_DEFAULT);
PL6.E3A0      #003=KSC$DEFINE File=KSC$COMMANDS2.:E05TSI                         WED 07/30/97 01:47 Page:457
     2727    11613    4                 CALL KSU$WRITE_NETCON(VECTOR(KS_DEFAULT_KEY),VECTOR(KS_DEFAULT));
     2728    11614    4                 KS_HANDLER = '0'B;
     2729    11615    4                 KS_HANDLER_KEY.HNDLR = KS_FEPHNDLR.HANDLER(J-1);
     2730    11616    4                 KS_HANDLER.HNDLRFID = KS_FEPHNDLR.HANDLER(J-1);
     2731    11617    4                 CALL INDEX(TEMP,' ',KS_HANDLER.HNDLRFID);
     2732    11618    4                 CALL INSERT(KS_HANDLER.HNDLRFID,TEMP,,'.:SYS');
     2733    11619    4                 KS_HANDLER.HNDLRNAME = KS_FEPHNDLR.HANDLER(J-1);
     2734    11620    5                  DO HAND# = 0 TO 7;
     2735    11621    5                       IF KS_HAND_INFO.TEXT(HAND#) = KS_HANDLER_KEY.HNDLR
     2736    11622    5                       THEN
     2737    11623    5                            EXIT;
     2738    11624    5                       END;
     2739    11625    4                 KS_HANDLER.TYPE = KS_HAND_INFO.TYPE(HAND#);
     2740    11626
     2741    11627    4                 DFLT$ = KS_HAND_INFO.PARAMS$(HAND#);
     2742    11628
     2743    11629    4                 IF KS_HAND_INFO.SZ(HAND#) <= %KL_FIXED_HI
     2744    11630    4                 THEN KS_HANDLER.NPARAMS = KS_HAND_INFO.SZ(HAND#);
     2745    11631    4                 ELSE KS_HANDLER.NPARAMS = %KL_FIXED_HI;
     2746    11632
     2747    11633    5                 DO K=0 TO KS_HANDLER.NPARAMS-1;
     2748    11634    5                    KS_HANDLER.PARAMS(K) = DFLT$->KS$PARAM.DEFAULT(K);
     2749    11635    5                    END;
     2750    11636
     2751    11637    4                 IF KS_HAND_INFO.SZ(HAND#) > %KL_FIXED_HI
     2752    11638    5                 THEN DO;
     2753    11639    5                       KS_HANDLER.NPARAMI = KS_HAND_INFO.SZ(HAND#) - %KL_FIXED_HI;
     2754    11640    5                      OUT$ = PINCRW(ADDR(KS_HANDLER),SIZEW(KS_HANDLER));
     2755    11641
     2756    11642    6                     DO K = %KL_HNDLRPARM_BLOCK TO KS_HAND_INFO.SZ(HAND#)-1;
     2757    11643    6                         DFLT_OPT$ = DFLT$->KS$PARAM.SPCL_TBL$(K);
     2758    11644    6                        KS_HANDLER.IPARAM.OFFSET(K - %KL_HNDLRPARM_BLOCK) = POFFW(OUT$,
             11644                                 ADDR(KS_HANDLER));
     2759    11645    6                        KS_HANDLER.IPARAM.ARRAY_SZ(K - %KL_HNDLRPARM_BLOCK) =
             11645                                 KS_HAND_INFO.PARAMS$(HAND#)->KS$PARAM.ARRAY_SZ(K);
     2760    11646
     2761    11647    7                        DO I = 0 TO KS_HANDLER.IPARAM.ARRAY_SZ(K - %KL_HNDLRPARM_BLOCK)
PL6.E3A0      #003=KSC$DEFINE File=KSC$COMMANDS2.:E05TSI                         WED 07/30/97 01:47 Page:458
             11647                                 ;
     2762    11648    7                         OUT$->B$PARAMI(I) = DFLT_OPT$->KS$PARAM.DEFAULT(I);
     2763    11649    7                           END;
     2764    11650
     2765    11651    6                        OUT$ = PINCRW(OUT$,(KS_HANDLER.IPARAM.ARRAY_SZ(K - %
             11651                                 KL_HNDLRPARM_BLOCK)+2)/2);
     2766    11652    6                         END;  /* DO K - # of indexed params */
     2767    11653    5                     END;  /* DO IF ANY INDEXED PARAMS */
     2768    11654
     2769    11655    4                 WRITE_NETCON.KEY_ = VECTOR(KS_HANDLER_KEY);
     2770    11656    4                 WRITE_NETCON.BUF_ = VECTOR(KS_HANDLER);
     2771    11657    4                 IF KS_HANDLER.NPARAMI = 0
     2772    11658    5                 THEN DO;
     2773    11659    5                    OUT$ = ADDR(KS_HANDLER);
     2774    11660    5                    OUT$ = PINCRW(OUT$,SIZEW(KS_HANDLER) + 1);
     2775    11661    5                 END;
     2776    11662
     2777    11663    4                 WRITE_NETCON.BUF_.BOUND = POFFC(OUT$,ADDR(KS_HANDLER))-1;
     2778    11664    4                 CALL M$WRITE(WRITE_NETCON) ALTRET(DEF_ERR);
     2779    11665    4                 END;  /* DO J - # of handlers */
     2780    11666
     2781    11667             /* Write a link record for the FEP */
     2782    11668    3       KS_LINK.LINKS# = 0;
     2783    11669    4       DO I = 0 TO NRLINKS - 1;
     2784    11670    4          K = 3;
     2785    11671    4          TEMP_LINK = '0'B;
     2786    11672    5          DO J = 3 DOWNTO 0;
     2787    11673    5              IF SUBSTR(LINK_LIST(I),J,1) ~= ' ' THEN
     2788    11674    6                DO;
     2789    11675    6                   CALL INDEX (TEMP,SUBSTR(LINK_LIST(I),J,1),HEX_CHARS);
     2790    11676    6                   HEX$(K)->HEX = TEMP;
     2791    11677    6                   K = K - 1;
     2792    11678    6                END;
     2793    11679    5          END;
     2794    11680    4           IF I = 0 THEN
     2795    11681    5             DO;
     2796    11682    5                KS_LINK.CHANNEL(0)= TEMP_LINK;
PL6.E3A0      #003=KSC$DEFINE File=KSC$COMMANDS2.:E05TSI                         WED 07/30/97 01:47 Page:459
     2797    11683    5                KS_LINK.LINKS# = KS_LINK.LINKS# + 1;
     2798    11684    5             END;
     2799    11685    4           ELSE
     2800    11686    5             DO;
     2801    11687    6   CHECK_DUP:             DO J = 0 TO KS_LINK.LINKS# - 1;
     2802    11688    6                    IF TEMP_LINK = KS_LINK.CHANNEL(J) THEN
     2803    11689    6                      EXIT CHECK_DUP;
     2804    11690    6                END;
     2805    11691    5                 IF J = KS_LINK.LINKS# THEN
     2806    11692    6                   DO;
     2807    11693    6                      KS_LINK.CHANNEL(KS_LINK.LINKS#) = TEMP_LINK;
     2808    11694    6                      KS_LINK.LINKS# = KS_LINK.LINKS# + 1;
     2809    11695    6                   END;
     2810    11696    5             END;
     2811    11697    4       END;
     2812    11698    3       KS_LINK_KEY.NODE = FEX;
     2813    11699    3       WRITE_NETCON.BUF_ = VECTOR(KS_MSGBUF);
     2814    11700    3       WRITE_NETCON.KEY_ = VECTOR(KS_LINK_KEY);
     2815    11701    3        WRITE_NETCON.BUF_.BOUND = SIZEC(KS_LINK.LINKS#) +
     2816    11702    3                                 (SIZEC(KS_LINK.CHANNEL(0)) *
     2817    11703    3                                 KS_LINK.LINKS#) - 1;
     2818    11704    3       CALL M$WRITE(WRITE_NETCON) ALTRET(DEF_ERR);
     2819    11705
     2820    11706        %EJECT;
PL6.E3A0      #003=KSC$DEFINE File=KSC$COMMANDS2.:E05TSI                         WED 07/30/97 01:47 Page:460
     2821    11707    3               CASE (%KS_HOST);
     2822    11708
     2823    11709    3               CASE (%KS_ME);
     2824    11710    3                 KS_NODEINFO.NODE# = FEX;
     2825    11711    3                 KS_NODEINFO.NODENAME = NODENAME;
     2826    11712    3                 WRITE_NETCON.BUF_ = VECTOR(KS_NODEINFO);
     2827    11713    3                 WRITE_NETCON.KEY_ = VECTOR(KS_NODEINFO_KEY);
     2828    11714    3                 CALL M$WRITE (WRITE_NETCON) ALTRET(DEF_ERR);
     2829    11715
     2830    11716    3               END /* END CASES */;
     2831    11717    2   UPDATE.CODE = %IGA_UPDATE;
     2832    11718    3   CALL KSR$WR_HLPCG(VECTOR(UPDATE)) WHENALTRETURN DO; END;
     2833    11719
     2834    11720    2              RETURN;
     2835    11721    2         DEF_ERR:;
     2836    11722    2              CALL KSE$ERRMSG(0);
     2837    11723    2              CALL KSE$ERRMSG(%E$KS_CANTDEFNODE,VECTOR(KS_SUB_BUF_1));
     2838    11724                   /*E* ERROR: KSN-E$KS_CANTDEFNODE-0
     2839    11725                        MESSAGE: Unable to DEFINE node %U1.
     2840    11726                        DESCRIPTION: SEE MESSAGE */
     2841    11727        %EJECT;
PL6.E3A0      #003=KSC$DEFINE File=KSC$COMMANDS2.:E05TSI                         WED 07/30/97 01:47 Page:461
     2842    11728    2            CASE (%KS_LINKS);
     2843    11729    2              KS_FEPBOOT_KEY.NODE = KS_NODE;
     2844    11730    2              READ_NETCON.BUF_ = VECTOR(KS_FEPBOOT);
     2845    11731    2              READ_NETCON.KEY_ = VECTOR(KS_FEPBOOT_KEY);
     2846    11732    3             CALL M$READ(READ_NETCON) WHENALTRETURN DO;
     2847    11733    3                CALL KSE$ERRMSG (%E$KS_BAD_NODE_TYPE-0);
     2848    11734    3                RETURN;
     2849    11735    3             END;
     2850    11736    2               LNKS = KS_FEPBOOT.BOOTPARAMS(%GI_BOOT_LINKS);
     2851    11737
     2852    11738    2              KS_LINK_KEY.NODE = KS_NODE;
     2853    11739    2              READ_NETCON.BUF_ = VECTOR(KS_MSGBUF);
     2854    11740    2              READ_NETCON.KEY_ = VECTOR(KS_LINK_KEY);
     2855    11741    3              CALL M$READ(READ_NETCON)  WHENALTRETURN DO;
     2856    11742                      /*
     2857    11743                         a link record does not exist for this node
     2858    11744                      */
     2859    11745    3                 KS_LINK = '0'B;
     2860    11746    3                 END;  /* whenaltreturn  */
     2861    11747
     2862    11748    3               DO K = 0 TO OUT$BLK.NSUBLKS - 1;
     2863    11749    3                  OUT$ = OUT$BLK.SUBLK$(K);
     2864    11750    3                  IF KS_LINK.LINKS# >= LNKS THEN
     2865    11751    4                     DO;
     2866    11752    4                        KS_SUB_BUF_1.COUNT = SIZEC(LNKS);
     2867    11753    4                        CALL BINCHAR (KS_SUB_BUF_1.TEXT,LNKS);
     2868    11754    4                        KS_SUB_BUF_2.COUNT = OUT$->OUT$SYM.COUNT;
     2869    11755    4                        KS_SUB_BUF_2.TEXT = OUT$->OUT$SYM.TEXT;
     2870    11756    4                        CALL KSE$ERRMSG(%E$KS_TOOMANYLINKS,VECTOR(KS_SUB_BUF_1),VECTOR(
             11756                                 KS_SUB_BUF_2));
     2871    11757              /*E* ERROR:    KSN-E$KS_TOOMANYLINKS-0
     2872    11758         MESSAGE: Only %U1 links may be defined for this node.  Link .%U2 has not been defin
             11758        ed.
     2873    11759                  MESSAGE1: In order to define more links, set MAXLINKS to a higher value.*/
     2874    11760    4                     END;
     2875    11761    3                  ELSE
     2876    11762    4                     DO;
PL6.E3A0      #003=KSC$DEFINE File=KSC$COMMANDS2.:E05TSI                         WED 07/30/97 01:47 Page:462
     2877    11763    4                        TEMP_LINK = '0'B;
     2878    11764    4                        OFFSET = 4 - OUT$->OUT$SYM.COUNT;
     2879    11765    5                        DO J = OFFSET TO 3;
     2880    11766    5                           CALL INDEX (TEMP,SUBSTR(OUT$->OUT$SYM.TEXT,J-OFFSET,1),
             11766                                    HEX_CHARS);
     2881    11767    5                           HEX$(J)->HEX = TEMP;
     2882    11768    5                        END;
     2883    11769    5   DUP_LINK_LOOP:       DO J = 0 TO KS_LINK.LINKS# - 1;
     2884    11770    5                           IF TEMP_LINK = KS_LINK.CHANNEL(J) THEN
     2885    11771    5                              EXIT DUP_LINK_LOOP;
     2886    11772    5                        END;
     2887    11773
     2888    11774    4                        IF J = KS_LINK.LINKS# THEN
     2889    11775    5                           DO;
     2890    11776    5                              KS_LINK.CHANNEL(KS_LINK.LINKS#) = TEMP_LINK;
     2891    11777    5                              KS_LINK.LINKS# = KS_LINK.LINKS# + 1;
     2892    11778    5                           END;
     2893    11779    4                        ELSE
     2894    11780    5                           DO;
     2895    11781    5                              KS_SUB_BUF_1.COUNT = OUT$->OUT$SYM.COUNT;
     2896    11782    5                              KS_SUB_BUF_1.TEXT = OUT$->OUT$SYM.TEXT;
     2897    11783    5                             CALL BINCHAR (LINK_NR,J);
     2898    11784    5                             KS_SUB_BUF_2.TEXT = LINK_NR;
     2899    11785    5                             KS_SUB_BUF_2.COUNT = SIZEC(LINK_NR);
     2900    11786    5                              CALL KSE$ERRMSG(%E$KS_DUPLICATELINKS,
     2901    11787    5                                              VECTOR(KS_SUB_BUF_1),
     2902    11788    5                                              VECTOR(KS_SUB_BUF_2));
     2903    11789
     2904    11790                 /*E*  ERROR: KSN-E$KS_DUPLICATELINKS-0
     2905    11791                       MESSAGE:  .%U1 is a duplicate of link # %U2 */
     2906    11792    5                           END;
     2907    11793    4                     END;
     2908    11794    3               END;
     2909    11795    2              WRITE_NETCON.BUF_ = VECTOR(KS_MSGBUF);
     2910    11796    2              WRITE_NETCON.KEY_ = VECTOR(KS_LINK_KEY);
     2911    11797    2              IF KS_LINK.LINKS# <= 0 THEN
     2912    11798    2                 WRITE_NETCON.BUF_.BOUND = SIZEC(KS_LINK.LINKS#) - 1;
PL6.E3A0      #003=KSC$DEFINE File=KSC$COMMANDS2.:E05TSI                         WED 07/30/97 01:47 Page:463
     2913    11799    2              ELSE
     2914    11800    2                 WRITE_NETCON.BUF_.BOUND = SIZEC(KS_LINK.LINKS#) +
     2915    11801    2                                           (SIZEC(KS_LINK.CHANNEL(0)) * KS_LINK.LINKS#)
             11801                                                    - 1;
     2916    11802    2              CALL M$WRITE (WRITE_NETCON) ALTRET(DEF_ERR);
     2917    11803
     2918    11804    2           END;  /* DO CASE */
     2919    11805    1   END KSC$DEFINE;
     2920    11806         %EOD;

PL6.E3A0      #003=KSC$DEFINE File=KSC$COMMANDS2.:E05TSI                         WED 07/30/97 01:47 Page:464
--  Include file information  --

   KL_AFCN_C.:E05TOU  is referenced.
   CP_6_SUBS.:E05TOU  is referenced.
   B_ERRORS_C.:E05TOU  is referenced.
   XU_MACRO_C.:E05TOU  is referenced.
   F$DCB.:E05TOU  cannot be made into a system file and is referenced.
   KS_PERR_C.:E05TOU  is referenced.
   KS_DATA_R.:E05TOU  cannot be made into a system file and is referenced.
   KS_SUBS_C.:E05TOU  is referenced.
   KS_MACRO_M.:E05TOU  is referenced.
   GI_BOOT_C.:E05TOU  is referenced.
   KL_CONTROL_C.:E05TOU  is referenced.
   KL_CONFIG_M.:E05TOU  is referenced.
   KL_MACRO_C.:E05TOU  is referenced.
   CP_6.:E05TOU  cannot be made into a system file and is referenced.
   B$JIT_C.:E05TOU  was found in the system file and is never referenced.
   CP_6_C.:E05TOU  was found in the system file and is referenced.
      No diagnostics issued in procedure KSC$DEFINE.

   Procedure KSC$DEFINE requires 1042 words for executable code.
   Procedure KSC$DEFINE requires 38 words of local(AUTO) storage.

PL6.E3A0      #003=KSC$DEFINE File=KSC$COMMANDS2.:E05TSI                         WED 07/30/97 01:47 Page:465

 Object Unit name= KSC$DEFINE                                 File name= KSC$COMMANDS2.:E05TOU
 UTS= JUL 30 '97 01:47:26.24 WED                              Compiler= PL-6/E31         Sev=      00
 SharedLib= :SHARED_SYSTEM                                    Alt SharedLib=


    ****  Control sections  ****

 Sect   Type Bound  Init  Size OctSiz  Section name(segment info)
    0   DCB   even  none     0      0  M$UC
    1   Data  even  none  3244   6254  KSC$DEFINE
    2  RoData even  UTS     20     24  KSC$DEFINE
    3   DCB   even  none     0      0  M$NETCON
    4   Proc  even  none  1042   2022  KSC$DEFINE
    5  RoData even  none    66    102  KSC$DEFINE

    ****  Entry defs  ****

                              Check   Calling
                             calling  sequence
  Sect OctLoc Primary Altret sequence   type   Parms  Name
     4      0   yes    yes     yes      Std        1  KSC$DEFINE

  ****  Data defs  ****

 Sect OctLoc  Name                           Sect OctLoc  Name
    1      0  KS_NETWORK
PL6.E3A0      #003=KSC$DEFINE File=KSC$COMMANDS2.:E05TSI                         WED 07/30/97 01:47 Page:466

  ****  Entry refs  ****

         Check        Calling
        calling       sequence
Altret sequence SRef   type   Args  Name
         yes           Std       1 KSU$INIT_DEFCNFG
         yes           Std       4 KSE$ERRMSG
 yes     yes           Std       3 KSU$WRITE_NETCON
 yes     yes           Std       1 KSR$WR_HLPCG
                       nStd      0 X66_AUTO_1
                       Std       0 B_CONSPOOL_D
                       nStd      0 X66_ARET

  ****  Data refs  ****

  Flags:  r = read only, s = secondary
Flgs Name                             Flgs Name                             Flgs Name
     M$UC                                  KS_MYSTATION                          KS_NODE
     KS_MSGBUF                             KS_MSGBUF$                            KS_SUB_BUF_1
     KS_SUB_BUF_2                          KS_HAND_INFO                          B$TCB$
     KS_TBL                                M$NETCON                              B_VECTNIL

  ****  Segment refs  ****

  Flags:  r = read only, s = secondary
Flgs Name                             Flgs Name                             Flgs Name
     ISSID                                 NULLSID
PL6.E3A0      #003=KSC$DEFINE File=KSC$COMMANDS2.:E05TSI                         WED 07/30/97 01:47 Page:467


     2396        1        /*T***********************************************************/
     2397        2        /*T*                                                         */
     2398        3        /*T* Copyright (c) Bull HN Information Systems Inc., 1997    */
     2399        4        /*T*                                                         */
     2400        5        /*T***********************************************************/
     2401        6        KSC$DEFINE: PROC(TOP$) ALTRET;

      6  4 000000   000000 700200 xent  KSC$DEFINE   TSX0  ! X66_AUTO_1
         4 000001   000046 000001                    ZERO    38,1

     2402        7        /**/
     2403        8    1   DCL TOP$ PTR;
     2404        9        /**/
     2405       10        %INCLUDE CP_6;
     2406       91        %INCLUDE KL_MACRO_C;
     2407     3443        %INCLUDE KL_CONFIG_M;
     2408     4205        %INCLUDE KL_CONTROL_C;
     2409     4585        %INCLUDE GI_BOOT_C;
     2410     4696        %INCLUDE KS_MACRO_M;
     2411     4893        %INCLUDE KS_SUBS_C;
     2412     5136        %INCLUDE KS_DATA_R;
     2413     5151        %INCLUDE KS_PERR_C;
     2414     5218        %INCLUDE F$DCB;
     2415     5267        %INCLUDE XU_MACRO_C;
     2416     8373        %INCLUDE B_ERRORS_C;
     2417     9500        %INCLUDE CP_6_SUBS;
     2418    10040        %INCLUDE            KL_AFCN_C;
     2419    10141        %KS$BOX(TITLE="entry defs");

             10159    1   /***************************************************************************
             10160    1    *                                                                         *
             10161    1    *                                 entry defs                              *
             10162    1    *                                                                         *
             10163    1    ***************************************************************************/

     2420    10168    1   DCL KSE$ERRMSG ENTRY(4);
PL6.E3A0      #003=KSC$DEFINE File=KSC$COMMANDS2.:E05TSI                         WED 07/30/97 01:47 Page:468
     2421    10169    1   DCL                 KSR$WR_HLPCG ENTRY(1) ALTRET;
     2422    10170    1   DCL KSU$INIT_DEFCNFG ENTRY(1);
     2423    10171    1   DCL KSU$WRITE_NETCON ENTRY(3) ALTRET;
     2424    10172        %KS$BOX(TITLE="symref variables");

             10190    1   /***************************************************************************
             10191    1    *                                                                         *
             10192    1    *                              symref variables                           *
             10193    1    *                                                                         *
             10194    1    ***************************************************************************/

     2425    10199        %KS$HAND_INFO (NAME=KS_HAND_INFO,LVL=1,STCLASS="(0:0) SYMREF",LAST=YES);
     2426    10238    1   DCL B$TCB$ PTR SYMREF;
     2427    10239    1   DCL KS_TBL(0:0) PTR SYMREF;
     2428    10240        %KS$BOX(TITLE="symdef variables");

             10258    1   /***************************************************************************
             10259    1    *                                                                         *
             10260    1    *                              symdef variables                           *
             10261    1    *                                                                         *
             10262    1    ***************************************************************************/

     2429    10267        %KL$NETWORK (NAME=KS_NETWORK,NUM=255,STCLASS="STATIC SYMDEF");
     2430    10294        %KS$BOX(TITLE="constant variables");

             10312    1   /***************************************************************************
             10313    1    *                                                                         *
             10314    1    *                             constant variables                          *
             10315    1    *                                                                         *
             10316    1    ***************************************************************************/

     2431    10321    1   DCL HEX_CHARS CHAR(0) CONSTANT INIT('0123456789ABCDEF');
     2432    10322        %KS$BOX(TITLE="static variables");

             10340    1   /***************************************************************************
             10341    1    *                                                                         *
             10342    1    *                              static variables                           *
PL6.E3A0      #003=KSC$DEFINE File=KSC$COMMANDS2.:E05TSI                         WED 07/30/97 01:47 Page:469
             10343    1    *                                                                         *
             10344    1    ***************************************************************************/

     2433    10349        %KL$HNDLR_KEY (NAME=KS_HANDLER_KEY,STCLASS=STATIC);
     2434    10368        %KL$LINK_KEY (NAME=KS_LINK_KEY,STCLASS=STATIC);
     2435    10386        %KL$FEPBOOT (NAME=KS_FEPBOOT,NUM=GI_BOOT_HI,STCLASS=STATIC);
     2436    10411        %KL$FEPBOOT_KEY (NAME=KS_FEPBOOT_KEY,STCLASS=STATIC);
     2437    10429    1         DCL   HEX$(0:3)   PTR  STATIC INIT(
     2438    10430    1                                          ADDR(TEMP_LINK.HEX0),
     2439    10431    1                                          ADDR(TEMP_LINK.HEX1),
     2440    10432    1                                          ADDR(TEMP_LINK.HEX2),
     2441    10433    1                                          ADDR(TEMP_LINK.HEX3));
     2442    10434    1   DCL   1  TEMP_LINK   STATIC,
     2443    10435    1            2  *        BIT(1) UNAL,
     2444    10436    1            2  HEX0     UBIN(4) UNAL,
     2445    10437    1            2  HEX1     UBIN(4) UNAL,
     2446    10438    1            2  *        BIT(1)  UNAL,
     2447    10439    1            2  HEX2     UBIN(4) UNAL,
     2448    10440    1            2  HEX3     UBIN(4) UNAL;
     2449    10441        %KL$FEPCTL (NAME=KS_FEPCTL,NUM=GI_CNTL_BOOTHI,STCLASS=STATIC);
     2450    10461        %KL$FEPCTL_KEY (NAME=KS_FEPCTL_KEY,STCLASS=STATIC);
     2451    10479        %KL$FEPHNDLR (NAME=KS_FEPHNDLR,NUM=20,STCLASS=STATIC);
     2452    10509        %KL$FEPHNDLR_KEY (NAME=KS_FEPHNDLR_KEY,STCLASS=STATIC);
     2453    10527        %KL$PSEUDO (NAME=KS_PSEUDO,NUM=50,STCLASS=STATIC);
     2454    10571        %KL$PSEUDO_KEY (NAME=KS_PSEUDO_KEY,STCLASS=STATIC);
     2455    10589        %KL$NODEINFO (NAME=KS_NODEINFO,STCLASS=STATIC);
     2456    10606        %KL$NODEINFO_KEY (NAME=KS_NODEINFO_KEY,STCLASS=STATIC);
     2457    10623        %KL$DEFAULT_KEY (NAME=KS_DEFAULT_KEY,STCLASS=STATIC);
     2458    10642    1        DCL   DEFAULT_BUF (0:49) UBIN WORD STATIC INIT(0*0);
     2459    10643    1        DCL   DEFAULT$ PTR STATIC INIT(ADDR(DEFAULT_BUF));
     2460    10644    1   DCL HNDLR$ PTR STATIC INIT(ADDR(HNDLR_BUF));
     2461    10645    1   DCL HNDLR_BUF(0:400) CHAR(1) STATIC;
     2462    10646        %KL$NETWORK_KEY (NAME=KS_NETWORK_KEY,STCLASS=STATIC);
     2463    10663    1   DCL 1 KS_RFEP_KEY STATIC ALIGNED,
     2464    10664    1        2  CNT UBIN BYTE UNAL INIT(1),
     2465    10665    1       2  TYP UBIN BYTE UNAL INIT(%KS_KEYTYP_RFEP);
     2466    10666        %KL$NETWORK         (NAME=KS_RFEP,NUM=255,STCLASS=STATIC);
PL6.E3A0      #003=KSC$DEFINE File=KSC$COMMANDS2.:E05TSI                         WED 07/30/97 01:47 Page:470
     2467    10693    1   DCL                 HDR$ PTR STATIC INIT(ADDR(KS_MSGBUF));
     2468    10694        %KS$BOX(TITLE="based variables");

             10712    1   /***************************************************************************
             10713    1    *                                                                         *
             10714    1    *                              based variables                            *
             10715    1    *                                                                         *
             10716    1    ***************************************************************************/

     2469    10721    1   DCL B$PARAMI(0:0) UBIN HALF BASED HALIGNED;
     2470    10722
     2471    10723        %KS$PARAM(NAME=KS$PARAM,LVL=1,SPECIAL=YES,STCLASS="(0:0) BASED",LAST=";");
     2472    10793        %KL$LINCNFG(NAME=KS_DEFAULT,STCLASS="BASED(DEFAULT$)");
     2473    10951        %B$TCB;
     2474    10954        %B$ALT;
     2475    10962        %PARSE$OUT (NAME=OUT$BLK,STCLASS="BASED(TOP$)");
     2476    11007        %PARSE$SYM (NAME=OUT$SYM,STCLASS=BASED);
     2477    11045        %KL$HNDLR (NAME=KS_HANDLER,NUM=KL_FIXED_HI,STCLASS="BASED(HNDLR$)");
     2478    11108    1   DCL   HEX   UBIN(4)  BASED UNAL;
     2479    11109        %KL_HDR(FPTN=UPDATE,CODE=%IGA_UPDATE,STCLASS="BASED(HDR$)");
     2480    11189        %KS$BOX(TITLE="auto variables",PAGE=YES);

PL6.E3A0      #003=KSC$DEFINE File=KSC$COMMANDS2.:E05TSI                         WED 07/30/97 01:47 Page:471
             11207    1   /***************************************************************************
             11208    1    *                                                                         *
             11209    1    *                               auto variables                            *
             11210    1    *                                                                         *
             11211    1    ***************************************************************************/

     2481    11216    1   DCL NODENAME CHAR(8);
     2482    11217    1   DCL                 NRLINKS SBIN;
     2483    11218    1   DCL                 LINK_LIST(0:10)  CHAR(4);
     2484    11219    1   DCL I UBIN;
     2485    11220    1   DCL FEX UBIN;
     2486    11221    1   DCL NODETYPE UBIN;
     2487    11222    1   DCL CONTROL_NODE CHAR(8);
     2488    11223    1   DCL OUT$ PTR;
     2489    11224    1   DCL DFLT$ PTR;
     2490    11225    1   DCL DFLT_OPT$ PTR;
     2491    11226    1   DCL K UBIN;
     2492    11227    1   DCL HAND# UBIN;
     2493    11228    1   DCL L UBIN;
     2494    11229    1   DCL J SBIN;
     2495    11230    1   DCL TEMP UBIN;
     2496    11231    1   DCL   LNKS  UBIN;
     2497    11232    1   DCL   OFFSET   UBIN;
     2498    11233    1       DCL LINK_NR CHAR(1);
     2499    11234        %KS$BOX(TITLE="FPTs, VLPs and such",PAGE=YES);

PL6.E3A0      #003=KSC$DEFINE File=KSC$COMMANDS2.:E05TSI                         WED 07/30/97 01:47 Page:472
             11252    1   /***************************************************************************
             11253    1    *                                                                         *
             11254    1    *                            FPTs, VLPs and such                          *
             11255    1    *                                                                         *
             11256    1    ***************************************************************************/

     2500    11261        %FPT_READ (FPTN=READ_NETCON,
     2501    11262                   DCB=M$NETCON,
     2502    11263                   KEYS=YES);
     2503    11302        %FPT_WRITE (FPTN=WRITE_NETCON,
     2504    11303                    DCB=M$NETCON);
     2505    11334        %FPT_MONINFO(FPTN = KS_MONINFO,
     2506    11335                     MONINFO = KS_MONINFO_V);
     2507    11350        %VLR_MONINFO(FPTN = KS_MONINFO_V);
     2508    11368        %KS$BOX(TITLE="DCBs");

             11386    1   /***************************************************************************
             11387    1    *                                                                         *
             11388    1    *                                    DCBs                                 *
             11389    1    *                                                                         *
             11390    1    ***************************************************************************/

     2509    11395    1   DCL M$NETCON DCB;
     2510    11396        %EJECT;
PL6.E3A0      #003=KSC$DEFINE File=KSC$COMMANDS2.:E05TSI                         WED 07/30/97 01:47 Page:473
     2511    11397    2        DO CASE(OUT$BLK.CODE);

  11397  4 000002   200003 470500                    LDP0    @TOP$,,AUTO
         4 000003   000000 471500                    LDP1    0,,PR0
         4 000004   100000 720100                    LXL0    0,,PR1
         4 000005   000007 100003                    CMPX0   7,DU
         4 000006   000010 602010 4                  TNC     s:11397+6,X0
         4 000007   002021 710000 4                  TRA     s:11805
         4 000010   002021 710000 4                  TRA     s:11805
         4 000011   000017 710000 4                  TRA     s:11399
         4 000012   002021 710000 4                  TRA     s:11805
         4 000013   002021 710000 4                  TRA     s:11805
         4 000014   002021 710000 4                  TRA     s:11805
         4 000015   002021 710000 4                  TRA     s:11805
         4 000016   001536 710000 4                  TRA     s:11729

     2512    11398    2           CASE(%KS_NODE);

     2513    11399    2              CALL CHARBIN(FEX,OUT$BLK.SUBLK$(0)->OUT$SYM.TEXT);

  11399  4 000017   100003 473500                    LDP3    3,,PR1
         4 000020   300004 236100                    LDQ     4,,PR3
         4 000021   000033 772000                    QRL     27
         4 000022   000000 621006                    EAX1    0,QL
         4 000023   000100 305540                    DTB
         4 000024   300004 230011                    NDSC9   4,,PR3                   cn=1,s=nosgn,sf=0,n=*X1
         4 000025   200042 000010                    NDSC9   LINK_NR+1,,AUTO          cn=0,s=lsgnf,sf=0,n=8
         4 000026   200043 235100                    LDA     LINK_NR+2,,AUTO
         4 000027   200023 755100                    STA     FEX,,AUTO

     2514    11400    2              CALL BINCHAR(NODENAME,FEX);

  11400  4 000030   000044 773000                    LRL     36
         4 000031   200042 757100                    STAQ    LINK_NR+1,,AUTO
         4 000032   000100 301500                    BTD
         4 000033   200042 000010                    NDSC9   LINK_NR+1,,AUTO          cn=0,s=lsgnf,sf=0,n=8
         4 000034   200004 030010                    NDSC9   NODENAME,,AUTO           cn=0,s=nosgn,sf=0,n=8
PL6.E3A0      #003=KSC$DEFINE File=KSC$COMMANDS2.:E05TSI                         WED 07/30/97 01:47 Page:474

     2515    11401    2              SUBSTR(NODENAME,0,4) = 'NODE';

  11401  4 000035   000004 236000 2                  LDQ     HEX_CHARS+4
         4 000036   200004 756100                    STQ     NODENAME,,AUTO

     2516    11402    2              NODETYPE = %KS_FEP;

  11402  4 000037   000002 235007                    LDA     2,DL
         4 000040   200024 755100                    STA     NODETYPE,,AUTO

     2517    11403    2              CALL M$MONINFO(KS_MONINFO) ALTRET(DEF_ERR);

  11403  4 000041   006220 630400 1                  EPPR0   KS_MONINFO
         4 000042   420023 713400                    CLIMB   alt,+8211
         4 000043   402400 401760                    pmme    nvectors=6
         4 000044   001525 702000 4                  TSX2    DEF_ERR

     2518    11404    2              CONTROL_NODE = KS_MONINFO_V.NODE_NAME;

  11404  4 000045   006246 237000 1                  LDAQ    KS_MONINFO_V+10
         4 000046   200025 755100                    STA     CONTROL_NODE,,AUTO
         4 000047   200026 756100                    STQ     CONTROL_NODE+1,,AUTO

     2519    11405    2             NRLINKS = 0;

  11405  4 000050   200006 450100                    STZ     NRLINKS,,AUTO

     2520    11406
     2521    11407    3              DO I = 1 TO OUT$BLK.NSUBLKS-1;

  11407  4 000051   000001 235007                    LDA     1,DL
         4 000052   200022 755100                    STA     I,,AUTO
         4 000053   000150 710000 4                  TRA     s:11425+3

     2522    11408    4                 DO CASE (OUT$BLK.SUBLK$(I)->OUT$BLK.CODE);

PL6.E3A0      #003=KSC$DEFINE File=KSC$COMMANDS2.:E05TSI                         WED 07/30/97 01:47 Page:475
  11408  4 000054   200003 470500                    LDP0    @TOP$,,AUTO
         4 000055   000000 471500                    LDP1    0,,PR0
         4 000056   200022 720100                    LXL0    I,,AUTO
         4 000057   100003 473510                    LDP3    3,X0,PR1
         4 000060   300000 721100                    LXL1    0,,PR3
         4 000061   000005 101003                    CMPX1   5,DU
         4 000062   000064 602011 4                  TNC     s:11408+8,X1
         4 000063   000145 710000 4                  TRA     s:11425
         4 000064   000145 710000 4                  TRA     s:11425
         4 000065   000071 710000 4                  TRA     s:11411
         4 000066   000101 710000 4                  TRA     s:11414
         4 000067   000106 710000 4                  TRA     s:11417
         4 000070   000116 710000 4                  TRA     s:11419

     2523    11409
     2524    11410    4                  CASE (%KS_NAME);

     2525    11411    4                    NODENAME = OUT$BLK.SUBLK$(I)->OUT$BLK.SUBLK$(0)->OUT$SYM.TEXT;

  11411  4 000071   300003 474500                    LDP4    3,,PR3
         4 000072   400004 236100                    LDQ     4,,PR4
         4 000073   000033 772000                    QRL     27
         4 000074   000000 622006                    EAX2    0,QL
         4 000075   040100 100540                    MLR     fill='040'O
         4 000076   400004 200012                    ADSC9   4,,PR4                   cn=1,n=*X2
         4 000077   200004 000010                    ADSC9   NODENAME,,AUTO           cn=0,n=8
         4 000100   000145 710000 4                  TRA     s:11425

     2526    11412
     2527    11413    4                  CASE (%KS_TYPE);

     2528    11414    4                    NODETYPE = OUT$BLK.SUBLK$(I)->OUT$BLK.SUBLK$(0)->OUT$BLK.CODE;

  11414  4 000101   300003 474500                    LDP4    3,,PR3
         4 000102   400000 236100                    LDQ     0,,PR4
         4 000103   777777 376007                    ANQ     -1,DL
         4 000104   200024 756100                    STQ     NODETYPE,,AUTO
PL6.E3A0      #003=KSC$DEFINE File=KSC$COMMANDS2.:E05TSI                         WED 07/30/97 01:47 Page:476
         4 000105   000145 710000 4                  TRA     s:11425

     2529    11415
     2530    11416    4                  CASE (%KS_CONT);

     2531    11417    4                    CONTROL_NODE = OUT$BLK.SUBLK$(I)->OUT$BLK.SUBLK$(0)->OUT$SYM.TEXT;

  11417  4 000106   300003 474500                    LDP4    3,,PR3
         4 000107   400004 236100                    LDQ     4,,PR4
         4 000110   000033 772000                    QRL     27
         4 000111   000000 622006                    EAX2    0,QL
         4 000112   040100 100540                    MLR     fill='040'O
         4 000113   400004 200012                    ADSC9   4,,PR4                   cn=1,n=*X2
         4 000114   200025 000010                    ADSC9   CONTROL_NODE,,AUTO       cn=0,n=8
         4 000115   000145 710000 4                  TRA     s:11425

     2532    11418    4                   CASE (%KS_LINK);

     2533    11419    4                      NRLINKS = OUT$BLK.SUBLK$(I)->OUT$BLK.NSUBLKS;

  11419  4 000116   300001 236100                    LDQ     1,,PR3
         4 000117   000022 772000                    QRL     18
         4 000120   200006 756100                    STQ     NRLINKS,,AUTO

     2534    11420    5                      DO J = 0 TO NRLINKS - 1;

  11420  4 000121   200035 450100                    STZ     J,,AUTO
         4 000122   000142 710000 4                  TRA     s:11422+1

     2535    11421    5                         LINK_LIST(J) = OUT$BLK.SUBLK$(I)->OUT$BLK.SUBLK$(J)->OUT$SYM.
             11421                                  TEXT;

  11421  4 000123   200003 470500                    LDP0    @TOP$,,AUTO
         4 000124   000000 471500                    LDP1    0,,PR0
         4 000125   200022 720100                    LXL0    I,,AUTO
         4 000126   100003 473510                    LDP3    3,X0,PR1
         4 000127   200035 721100                    LXL1    J,,AUTO
PL6.E3A0      #003=KSC$DEFINE File=KSC$COMMANDS2.:E05TSI                         WED 07/30/97 01:47 Page:477
         4 000130   300003 474511                    LDP4    3,X1,PR3
         4 000131   400004 236100                    LDQ     4,,PR4
         4 000132   000033 772000                    QRL     27
         4 000133   200035 235100                    LDA     J,,AUTO
         4 000134   000002 735000                    ALS     2
         4 000135   000000 622006                    EAX2    0,QL
         4 000136   040105 100540                    MLR     fill='040'O
         4 000137   400004 200012                    ADSC9   4,,PR4                   cn=1,n=*X2
         4 000140   200007 000004                    ADSC9   LINK_LIST,A,AUTO         cn=0,n=4

     2536    11422    5                      END;

  11422  4 000141   200035 054100                    AOS     J,,AUTO
         4 000142   200035 236100                    LDQ     J,,AUTO
         4 000143   200006 116100                    CMPQ    NRLINKS,,AUTO
         4 000144   000123 604000 4                  TMI     s:11421

     2537    11423
     2538    11424    4                  END;

     2539    11425    3                 END;

  11425  4 000145   200022 235100                    LDA     I,,AUTO
         4 000146   000001 035007                    ADLA    1,DL
         4 000147   200022 755100                    STA     I,,AUTO
         4 000150   200003 470500                    LDP0    @TOP$,,AUTO
         4 000151   000000 471500                    LDP1    0,,PR0
         4 000152   100001 236100                    LDQ     1,,PR1
         4 000153   000022 772000                    QRL     18
         4 000154   200022 116100                    CMPQ    I,,AUTO
         4 000155   000157 600000 4                  TZE     s:11427
         4 000156   000054 603000 4                  TRC     s:11408

     2540    11426
     2541    11427    2              KS_SUB_BUF_1.TEXT = NODENAME;

  11427  4 000157   040000 100500                    MLR     fill='040'O
PL6.E3A0      #003=KSC$DEFINE File=KSC$COMMANDS2.:E05TSI                         WED 07/30/97 01:47 Page:478
         4 000160   200004 000010                    ADSC9   NODENAME,,AUTO           cn=0,n=8
         4 000161   000000 200037 xsym               ADSC9   KS_SUB_BUF_1             cn=1,n=31

     2542    11428    2              KS_SUB_BUF_1.COUNT = SIZEC(NODENAME);

  11428  4 000162   010000 236003                    LDQ     4096,DU
         4 000163   000000 552040 xsym               STBQ    KS_SUB_BUF_1,'40'O

     2543    11429    2              IF NODETYPE = %KS_RFEP AND NRLINKS = 0 THEN

  11429  4 000164   200024 235100                    LDA     NODETYPE,,AUTO
         4 000165   000005 115007                    CMPA    5,DL
         4 000166   000176 601000 4                  TNZ     s:11436
         4 000167   200006 235100                    LDA     NRLINKS,,AUTO
         4 000170   000176 601000 4                  TNZ     s:11436

     2544    11430    3                DO;

     2545    11431    3                   CALL KSE$ERRMSG (%E$KS_RFEP_WITH_NO_LINKS-0,VECTOR(KS_SUB_BUF_1));

  11431  4 000171   000003 630400 5                  EPPR0   3
         4 000172   000020 631400 xsym               EPPR1   B_VECTNIL+16
         4 000173   000000 701000 xent               TSX1    KSE$ERRMSG
         4 000174   000000 011000                    NOP     0

     2546    11432                         /*E* ERROR:  KSN-E$KS_RFEP_WITH_NO_LINKS_0
     2547    11433          MESSAGE: A link must be defined on a RFEP node. Node %U1 has not been defined. */
     2548    11434    3                   RETURN;

  11434  4 000175   000000 702200 xent               TSX2  ! X66_ARET

     2549    11435    3                END;
     2550    11436    2              IF NODETYPE = %KS_ME OR NODETYPE = %KS_HOST THEN

  11436  4 000176   200024 235100                    LDA     NODETYPE,,AUTO
         4 000177   000003 115007                    CMPA    3,DL
         4 000200   000203 600000 4                  TZE     s:11437
PL6.E3A0      #003=KSC$DEFINE File=KSC$COMMANDS2.:E05TSI                         WED 07/30/97 01:47 Page:479
         4 000201   000001 115007                    CMPA    1,DL
         4 000202   000207 601000 4                  TNZ     s:11438

     2551    11437    2                 CONTROL_NODE = ' ';

  11437  4 000203   000035 235000 xsym               LDA     B_VECTNIL+29
         4 000204   000035 236000 xsym               LDQ     B_VECTNIL+29
         4 000205   200025 755100                    STA     CONTROL_NODE,,AUTO
         4 000206   200026 756100                    STQ     CONTROL_NODE+1,,AUTO

     2552    11438    2     IF FEX > KS_MONINFO_V.NUM_NODES - 1 THEN

  11438  4 000207   200023 236100                    LDQ     FEX,,AUTO
         4 000210   006250 116000 1                  CMPQ    KS_MONINFO_V+12
         4 000211   000232 602000 4                  TNC     s:11450

     2553    11439    3                DO;

     2554    11440    3                 CALL BINCHAR(KS_SUB_BUF_1.TEXT,KS_MONINFO_V.NUM_NODES - 1);

  11440  4 000212   006250 235000 1                  LDA     KS_MONINFO_V+12
         4 000213   000001 135007                    SBLA    1,DL
         4 000214   200042 755100                    STA     LINK_NR+1,,AUTO
         4 000215   000000 301500                    BTD
         4 000216   200042 000004                    NDSC9   LINK_NR+1,,AUTO          cn=0,s=lsgnf,sf=0,n=4
         4 000217   000000 230037 xsym               NDSC9   KS_SUB_BUF_1             cn=1,s=nosgn,sf=0,n=31

     2555    11441    3                 KS_SUB_BUF_1.TEXT = SUBSTR(KS_SUB_BUF_1.TEXT,28,3);

  11441  4 000220   040000 100400                    MLR     fill='040'O
         4 000221   000007 200003 xsym               ADSC9   KS_SUB_BUF_1+7           cn=1,n=3
         4 000222   000000 200037 xsym               ADSC9   KS_SUB_BUF_1             cn=1,n=31

     2556    11442    3                   KS_SUB_BUF_1.COUNT = 3;

  11442  4 000223   003000 236003                    LDQ     1536,DU
         4 000224   000000 552040 xsym               STBQ    KS_SUB_BUF_1,'40'O
PL6.E3A0      #003=KSC$DEFINE File=KSC$COMMANDS2.:E05TSI                         WED 07/30/97 01:47 Page:480

     2557    11443    3                   CALL KSE$ERRMSG (%E$KS_MAX_NODE-0,VECTOR(KS_SUB_BUF_1));

  11443  4 000225   000006 630400 5                  EPPR0   6
         4 000226   000020 631400 xsym               EPPR1   B_VECTNIL+16
         4 000227   000000 701000 xent               TSX1    KSE$ERRMSG
         4 000230   000000 011000                    NOP     0

     2558    11444                         /*E* ERROR:  KSN-E$KS_MAX_NODE-0
     2559    11445                              MESSAGE: Node %U1 is the largest node that may be defined.
     2560    11446                              DESCRIPTION: The largest node number is set in TIGR
     2561    11447                                  above which NETCON can not define a node. */
     2562    11448    3                   RETURN;

  11448  4 000231   000000 702200 xent               TSX2  ! X66_ARET

     2563    11449    3                END;
     2564    11450    2              READ_NETCON.KEY_ = VECTOR(KS_NETWORK_KEY);

  11450  4 000232   000010 237000 5                  LDAQ    8
         4 000233   006170 757000 1                  STAQ    READ_NETCON+2

     2565    11451    2              READ_NETCON.BUF_ = VECTOR(KS_NETWORK);

  11451  4 000234   000012 237000 5                  LDAQ    10
         4 000235   006172 757000 1                  STAQ    READ_NETCON+4

     2566    11452    3              CALL M$READ(READ_NETCON) WHENALTRETURN DO;

  11452  4 000236   006166 630400 1                  EPPR0   READ_NETCON
         4 000237   440000 713400                    CLIMB   alt,read
         4 000240   401400 401760                    pmme    nvectors=4
         4 000241   000243 702000 4                  TSX2    s:11453
         4 000242   000251 710000 4                  TRA     s:11456

     2567    11453    3                 IF B$TCB$->B$TCB.ALT$->B$ALT.ERR.CODE ~= %E$NOKEY

PL6.E3A0      #003=KSC$DEFINE File=KSC$COMMANDS2.:E05TSI                         WED 07/30/97 01:47 Page:481
  11453  4 000243   000000 470400 xsym               LDP0    B$TCB$
         4 000244   000000 471500                    LDP1    0,,PR0
         4 000245   100102 236100                    LDQ     66,,PR1
         4 000246   377770 376007                    ANQ     131064,DL
         4 000247   001020 116007                    CMPQ    528,DL
         4 000250   001525 601000 4                  TNZ     DEF_ERR

     2568    11454    3                    THEN GOTO DEF_ERR;
     2569    11455    3                 END;  /* WHENALTRETURN */

     2570    11456    2             READ_NETCON.KEY_ = VECTOR(KS_RFEP_KEY);

  11456  4 000251   000014 237000 5                  LDAQ    12
         4 000252   006170 757000 1                  STAQ    READ_NETCON+2

     2571    11457    2             READ_NETCON.BUF_ = VECTOR(KS_RFEP);

  11457  4 000253   000016 237000 5                  LDAQ    14
         4 000254   006172 757000 1                  STAQ    READ_NETCON+4

     2572    11458    3             CALL M$READ(READ_NETCON) WHENALTRETURN DO;

  11458  4 000255   006166 630400 1                  EPPR0   READ_NETCON
         4 000256   440000 713400                    CLIMB   alt,read
         4 000257   401400 401760                    pmme    nvectors=4
         4 000260   000262 702000 4                  TSX2    s:11459
         4 000261   000266 710000 4                  TRA     s:11461

     2573    11459    3                KS_RFEP = KS_NETWORK;

  11459  4 000262   012004 220003                    LDX0    5124,DU
         4 000263   000040 100440                    MLR     fill='000'O
         4 000264   000000 000010 1                  ADSC9   KS_NETWORK               cn=0,n=*X0
         4 000265   003564 000010 1                  ADSC9   KS_RFEP                  cn=0,n=*X0

     2574    11460    3                END;  /* WHENALTRETURN */

PL6.E3A0      #003=KSC$DEFINE File=KSC$COMMANDS2.:E05TSI                         WED 07/30/97 01:47 Page:482
     2575    11461    2              IF KS_NETWORK.NODE.NODE(FEX) ~= ' ' THEN

  11461  4 000266   200023 236100                    LDQ     FEX,,AUTO
         4 000267   000024 402007                    MPY     20,DL
         4 000270   040000 106406                    CMPC    fill='040'O
         4 000271   000002 000010 1                  ADSC9   KS_NETWORK+2,Q           cn=0,n=8
         4 000272   000035 000001 xsym               ADSC9   B_VECTNIL+29             cn=0,n=1
         4 000273   000320 600000 4                  TZE     s:11471

     2576    11462    3                 DO;

     2577    11463    3                    KS_SUB_BUF_1.COUNT = SIZEC(OUT$BLK.SUBLK$(0)->OUT$SYM.TEXT);

  11463  4 000274   200003 470500                    LDP0    @TOP$,,AUTO
         4 000275   000000 471500                    LDP1    0,,PR0
         4 000276   100003 473500                    LDP3    3,,PR1
         4 000277   300004 236100                    LDQ     4,,PR3
         4 000300   000033 772000                    QRL     27
         4 000301   000033 736000                    QLS     27
         4 000302   000000 552040 xsym               STBQ    KS_SUB_BUF_1,'40'O

     2578    11464    3                    KS_SUB_BUF_1.TEXT = OUT$BLK.SUBLK$(0)->OUT$SYM.TEXT;

  11464  4 000303   000000 471500                    LDP1    0,,PR0
         4 000304   100003 473500                    LDP3    3,,PR1
         4 000305   300004 236100                    LDQ     4,,PR3
         4 000306   000033 772000                    QRL     27
         4 000307   000000 620006                    EAX0    0,QL
         4 000310   040000 100540                    MLR     fill='040'O
         4 000311   300004 200010                    ADSC9   4,,PR3                   cn=1,n=*X0
         4 000312   000000 200037 xsym               ADSC9   KS_SUB_BUF_1             cn=1,n=31

     2579    11465    3                    CALL KSE$ERRMSG(%E$KS_DUP_NODE,VECTOR(KS_SUB_BUF_1));

  11465  4 000313   000021 630400 5                  EPPR0   17
         4 000314   000020 631400 xsym               EPPR1   B_VECTNIL+16
         4 000315   000000 701000 xent               TSX1    KSE$ERRMSG
PL6.E3A0      #003=KSC$DEFINE File=KSC$COMMANDS2.:E05TSI                         WED 07/30/97 01:47 Page:483
         4 000316   000000 011000                    NOP     0

     2580    11466                         /*E* ERROR: KSN-E$KS_DUP_NODE-0
     2581    11467                              MESSAGE: Node %U1 is already defined.
     2582    11468                              DESCRIPTION: SEE MESSAGE */
     2583    11469    3                    RETURN;

  11469  4 000317   000000 702200 xent               TSX2  ! X66_ARET

     2584    11470    3                 END;  /* IF */
     2585    11471    2              KS_NETWORK.NODE# = KS_MONINFO_V.NUM_NODES;

  11471  4 000320   006250 235000 1                  LDA     KS_MONINFO_V+12
         4 000321   000000 755000 1                  STA     KS_NETWORK

     2586    11472    3              DO I = 0 TO KS_NETWORK.NODE#;

  11472  4 000322   200022 450100                    STZ     I,,AUTO
         4 000323   000423 710000 4                  TRA     s:11501+3

     2587    11473    3                 IF KS_NETWORK.NODE.NODE(I) = NODENAME

  11473  4 000324   200022 236100                    LDQ     I,,AUTO
         4 000325   000024 402007                    MPY     20,DL
         4 000326   040100 106406                    CMPC    fill='040'O
         4 000327   000002 000010 1                  ADSC9   KS_NETWORK+2,Q           cn=0,n=8
         4 000330   200004 000010                    ADSC9   NODENAME,,AUTO           cn=0,n=8
         4 000331   000346 601000 4                  TNZ     s:11481

     2588    11474    3                    THEN
     2589    11475    4                    DO;

     2590    11476    4                       KS_SUB_BUF_1.COUNT = SIZEC(KS_NETWORK.NODE.NODE(I));

  11476  4 000332   010000 236003                    LDQ     4096,DU
         4 000333   000000 552040 xsym               STBQ    KS_SUB_BUF_1,'40'O

PL6.E3A0      #003=KSC$DEFINE File=KSC$COMMANDS2.:E05TSI                         WED 07/30/97 01:47 Page:484
     2591    11477    4                       KS_SUB_BUF_1.TEXT = KS_NETWORK.NODE.NODE(I);

  11477  4 000334   200022 236100                    LDQ     I,,AUTO
         4 000335   000024 402007                    MPY     20,DL
         4 000336   040000 100406                    MLR     fill='040'O
         4 000337   000002 000010 1                  ADSC9   KS_NETWORK+2,Q           cn=0,n=8
         4 000340   000000 200037 xsym               ADSC9   KS_SUB_BUF_1             cn=1,n=31

     2592    11478    4                       CALL KSE$ERRMSG(%E$KS_DUP_NODE,VECTOR(KS_SUB_BUF_1));

  11478  4 000341   000021 630400 5                  EPPR0   17
         4 000342   000020 631400 xsym               EPPR1   B_VECTNIL+16
         4 000343   000000 701000 xent               TSX1    KSE$ERRMSG
         4 000344   000000 011000                    NOP     0

     2593    11479    4                       RETURN;

  11479  4 000345   000000 702200 xent               TSX2  ! X66_ARET

     2594    11480    4                    END;  /* IF */
     2595    11481    3                 ELSE IF CONTROL_NODE = KS_NETWORK.NODE.NODE(I) AND

  11481  4 000346   040006 106500                    CMPC    fill='040'O
         4 000347   200025 000010                    ADSC9   CONTROL_NODE,,AUTO       cn=0,n=8
         4 000350   000002 000010 1                  ADSC9   KS_NETWORK+2,Q           cn=0,n=8
         4 000351   000372 601000 4                  TNZ     s:11491
         4 000352   040000 106500                    CMPC    fill='040'O
         4 000353   200025 000010                    ADSC9   CONTROL_NODE,,AUTO       cn=0,n=8
         4 000354   000035 000001 xsym               ADSC9   B_VECTNIL+29             cn=0,n=1
         4 000355   000372 600000 4                  TZE     s:11491
         4 000356   200022 236100                    LDQ     I,,AUTO
         4 000357   000005 402007                    MPY     5,DL
         4 000360   000001 235006 1                  LDA     KS_NETWORK+1,QL
         4 000361   000001 115007                    CMPA    1,DL
         4 000362   000372 600000 4                  TZE     s:11491
         4 000363   000003 115007                    CMPA    3,DL
         4 000364   000372 600000 4                  TZE     s:11491
PL6.E3A0      #003=KSC$DEFINE File=KSC$COMMANDS2.:E05TSI                         WED 07/30/97 01:47 Page:485

     2596    11482    3                        CONTROL_NODE ~= ' ' AND
     2597    11483    3                      (KS_NETWORK.NODE.TYPE(I) ~= %KS_HOST AND
     2598    11484    3                      (KS_NETWORK.NODE.TYPE(I) ~= %KS_ME)) THEN
     2599    11485    4                         DO;

     2600    11486    4                            CALL KSE$ERRMSG (%E$KS_CNTRL_NOT_HOST);

  11486  4 000365   000023 630400 5                  EPPR0   19
         4 000366   000017 631400 xsym               EPPR1   B_VECTNIL+15
         4 000367   000000 701000 xent               TSX1    KSE$ERRMSG
         4 000370   000000 011000                    NOP     0

     2601    11487                                 /*E* ERROR:  KSN-E$KS_CNTRL_NOT_HOST-0
     2602    11488                    MESSAGE: WARNING: The control node specified is not of type host or me.
     2603    11489                                      DESCRIPTION:  SEE MESSAGE */
     2604    11490    4                         END;

  11490  4 000371   000420 710000 4                  TRA     s:11501

     2605    11491    3                  ELSE IF KS_NETWORK.NODE.CONTROL_NODE(I) = NODENAME AND

  11491  4 000372   200022 236100                    LDQ     I,,AUTO
         4 000373   000024 402007                    MPY     20,DL
         4 000374   040100 106406                    CMPC    fill='040'O
         4 000375   000004 000010 1                  ADSC9   KS_NETWORK+4,Q           cn=0,n=8
         4 000376   200004 000010                    ADSC9   NODENAME,,AUTO           cn=0,n=8
         4 000377   000420 601000 4                  TNZ     s:11501
         4 000400   200024 235100                    LDA     NODETYPE,,AUTO
         4 000401   000001 115007                    CMPA    1,DL
         4 000402   000420 600000 4                  TZE     s:11501
         4 000403   000003 115007                    CMPA    3,DL
         4 000404   000420 600000 4                  TZE     s:11501

     2606    11492    3                       (NODETYPE ~= %KS_HOST AND NODETYPE ~=%KS_ME) THEN
     2607    11493    4                          DO;

PL6.E3A0      #003=KSC$DEFINE File=KSC$COMMANDS2.:E05TSI                         WED 07/30/97 01:47 Page:486
     2608    11494    4                       KS_SUB_BUF_1.COUNT = SIZEC(KS_NETWORK.NODE.NODE(I));

  11494  4 000405   010000 236003                    LDQ     4096,DU
         4 000406   000000 552040 xsym               STBQ    KS_SUB_BUF_1,'40'O

     2609    11495    4                       KS_SUB_BUF_1.TEXT = KS_NETWORK.NODE.NODE(I);

  11495  4 000407   200022 236100                    LDQ     I,,AUTO
         4 000410   000024 402007                    MPY     20,DL
         4 000411   040000 100406                    MLR     fill='040'O
         4 000412   000002 000010 1                  ADSC9   KS_NETWORK+2,Q           cn=0,n=8
         4 000413   000000 200037 xsym               ADSC9   KS_SUB_BUF_1             cn=1,n=31

     2610    11496    4                            CALL KSE$ERRMSG (%E$KS_NODE_NOT_CNTRL, VECTOR(KS_SUB_BUF_1
             11496                                      ));

  11496  4 000414   000024 630400 5                  EPPR0   20
         4 000415   000020 631400 xsym               EPPR1   B_VECTNIL+16
         4 000416   000000 701000 xent               TSX1    KSE$ERRMSG
         4 000417   000000 011000                    NOP     0

     2611    11497                                  /*E* ERROR: KSN-E$KS_NODE_NOT_CNTRL-0
     2612    11498        MESSAGE: WARNING: %U1 specifies this node as a control node, but this node is not H
             11498        OST or ME.
     2613    11499                                       DESCRIPTION:  SEE MESSAGE */
     2614    11500    4                          END;

     2615    11501    3               END;

  11501  4 000420   200022 235100                    LDA     I,,AUTO
         4 000421   000001 035007                    ADLA    1,DL
         4 000422   200022 755100                    STA     I,,AUTO
         4 000423   000000 236000 1                  LDQ     KS_NETWORK
         4 000424   200022 116100                    CMPQ    I,,AUTO
         4 000425   000324 603000 4                  TRC     s:11473

     2616    11502
PL6.E3A0      #003=KSC$DEFINE File=KSC$COMMANDS2.:E05TSI                         WED 07/30/97 01:47 Page:487
     2617    11503    2              IF FEX > KS_NETWORK.NODE#

  11503  4 000426   200023 116100                    CMPQ    FEX,,AUTO
         4 000427   000461 603000 4                  TRC     s:11514

     2618    11504    3              THEN DO;

     2619    11505    4                 DO I = KS_NETWORK.NODE#+1 TO FEX;

  11505  4 000430   000001 036007                    ADLQ    1,DL
         4 000431   200022 756100                    STQ     I,,AUTO
         4 000432   000454 710000 4                  TRA     s:11510+3

     2620    11506    4                    KS_NETWORK.NODE.TYPE(I) = 0;

  11506  4 000433   200022 236100                    LDQ     I,,AUTO
         4 000434   000005 402007                    MPY     5,DL
         4 000435   000001 450006 1                  STZ     KS_NETWORK+1,QL

     2621    11507    4                    KS_NETWORK.NODE.NODE(I) = ' ';

  11507  4 000436   000000 620006                    EAX0    0,QL
         4 000437   000000 621006                    EAX1    0,QL
         4 000440   000035 235000 xsym               LDA     B_VECTNIL+29
         4 000441   000035 236000 xsym               LDQ     B_VECTNIL+29
         4 000442   000002 755010 1                  STA     KS_NETWORK+2,X0
         4 000443   000003 756011 1                  STQ     KS_NETWORK+3,X1

     2622    11508    4                   KS_RFEP.NODE.TYPE(I) = 0;

  11508  4 000444   003565 450010 1                  STZ     KS_RFEP+1,X0

     2623    11509    4                   KS_RFEP.NODE.NODE(I) = ' ';

  11509  4 000445   000035 235000 xsym               LDA     B_VECTNIL+29
         4 000446   000035 236000 xsym               LDQ     B_VECTNIL+29
         4 000447   003566 755010 1                  STA     KS_RFEP+2,X0
PL6.E3A0      #003=KSC$DEFINE File=KSC$COMMANDS2.:E05TSI                         WED 07/30/97 01:47 Page:488
         4 000450   003567 756010 1                  STQ     KS_RFEP+3,X0

     2624    11510    4                    END;

  11510  4 000451   200022 235100                    LDA     I,,AUTO
         4 000452   000001 035007                    ADLA    1,DL
         4 000453   200022 755100                    STA     I,,AUTO
         4 000454   200023 236100                    LDQ     FEX,,AUTO
         4 000455   200022 116100                    CMPQ    I,,AUTO
         4 000456   000433 603000 4                  TRC     s:11506

     2625    11511    3                 KS_NETWORK.NODE# = FEX;

  11511  4 000457   000000 756000 1                  STQ     KS_NETWORK

     2626    11512    3                KS_RFEP.NODE# = FEX;

  11512  4 000460   003564 756000 1                  STQ     KS_RFEP

     2627    11513    3                 END;

     2628    11514    2             KS_NETWORK.NODE.TYPE(FEX) = NODETYPE;

  11514  4 000461   200023 236100                    LDQ     FEX,,AUTO
         4 000462   000005 402007                    MPY     5,DL
         4 000463   200024 235100                    LDA     NODETYPE,,AUTO
         4 000464   000001 755006 1                  STA     KS_NETWORK+1,QL

     2629    11515    2             KS_RFEP.NODE.TYPE(FEX) = NODETYPE;

  11515  4 000465   003565 755006 1                  STA     KS_RFEP+1,QL

     2630    11516    2              IF NODETYPE = %KS_RFEP THEN

  11516  4 000466   000005 115007                    CMPA    5,DL
         4 000467   000472 601000 4                  TNZ     s:11518

PL6.E3A0      #003=KSC$DEFINE File=KSC$COMMANDS2.:E05TSI                         WED 07/30/97 01:47 Page:489
     2631    11517    2                KS_NETWORK.NODE.TYPE(FEX) = %KS_FEP;

  11517  4 000470   000002 235007                    LDA     2,DL
         4 000471   000001 755006 1                  STA     KS_NETWORK+1,QL

     2632    11518    2             KS_NETWORK.NODE.NODE(FEX) = NODENAME;

  11518  4 000472   000000 620006                    EAX0    0,QL
         4 000473   000000 621006                    EAX1    0,QL
         4 000474   200004 237100                    LDAQ    NODENAME,,AUTO
         4 000475   000002 755010 1                  STA     KS_NETWORK+2,X0
         4 000476   000003 756011 1                  STQ     KS_NETWORK+3,X1

     2633    11519    2             KS_NETWORK.NODE.CONTROL_NODE(FEX) = CONTROL_NODE;

  11519  4 000477   000000 635010                    EAA     0,X0
         4 000500   000020 771000                    ARL     16
         4 000501   040005 100500                    MLR     fill='040'O
         4 000502   200025 000010                    ADSC9   CONTROL_NODE,,AUTO       cn=0,n=8
         4 000503   000004 000010 1                  ADSC9   KS_NETWORK+4,A           cn=0,n=8

     2634    11520    2             WRITE_NETCON.KEY_ = VECTOR(KS_NETWORK_KEY);

  11520  4 000504   000010 237000 5                  LDAQ    8
         4 000505   006206 757000 1                  STAQ    WRITE_NETCON+2

     2635    11521    2             WRITE_NETCON.BUF_ = VECTOR(KS_NETWORK);

  11521  4 000506   000012 237000 5                  LDAQ    10
         4 000507   006210 757000 1                  STAQ    WRITE_NETCON+4

     2636    11522    2                WRITE_NETCON.BUF_.BOUND = SIZEV(KS_NETWORK) - SIZEC(KS_NETWORK.NODE) +

  11522  4 000510   000000 236000 1                  LDQ     KS_NETWORK
         4 000511   000024 402007                    MPY     20,DL
         4 000512   000003 036007                    ADLQ    3,DL
         4 000513   000020 736000                    QLS     16
PL6.E3A0      #003=KSC$DEFINE File=KSC$COMMANDS2.:E05TSI                         WED 07/30/97 01:47 Page:490
         4 000514   006210 676000 1                  ERQ     WRITE_NETCON+4
         4 000515   000034 376000 xsym               ANQ     B_VECTNIL+28
         4 000516   006210 656000 1                  ERSQ    WRITE_NETCON+4

     2637    11523    2                   KS_NETWORK.NODE#*SIZEC(KS_NETWORK.NODE(0));
     2638    11524    2             CALL M$WRITE(WRITE_NETCON) ALTRET(DEF_ERR);

  11524  4 000517   006204 630400 1                  EPPR0   WRITE_NETCON
         4 000520   440001 713400                    CLIMB   alt,write
         4 000521   401400 401760                    pmme    nvectors=4
         4 000522   001525 702000 4                  TSX2    DEF_ERR

     2639    11525    2             WRITE_NETCON.KEY_ = VECTOR(KS_RFEP_KEY);

  11525  4 000523   000014 237000 5                  LDAQ    12
         4 000524   006206 757000 1                  STAQ    WRITE_NETCON+2

     2640    11526    2             WRITE_NETCON.BUF_ = VECTOR(KS_RFEP);

  11526  4 000525   000016 237000 5                  LDAQ    14
         4 000526   006210 757000 1                  STAQ    WRITE_NETCON+4

     2641    11527    2                 WRITE_NETCON.BUF_.BOUND = SIZEV(KS_RFEP) - SIZEC(KS_RFEP.NODE) +

  11527  4 000527   003564 236000 1                  LDQ     KS_RFEP
         4 000530   000024 402007                    MPY     20,DL
         4 000531   000003 036007                    ADLQ    3,DL
         4 000532   000020 736000                    QLS     16
         4 000533   006210 676000 1                  ERQ     WRITE_NETCON+4
         4 000534   000034 376000 xsym               ANQ     B_VECTNIL+28
         4 000535   006210 656000 1                  ERSQ    WRITE_NETCON+4

     2642    11528    2                   KS_RFEP.NODE#*SIZEC(KS_RFEP.NODE(0));
     2643    11529    2             CALL M$WRITE(WRITE_NETCON) ALTRET(DEF_ERR);

  11529  4 000536   006204 630400 1                  EPPR0   WRITE_NETCON
         4 000537   440001 713400                    CLIMB   alt,write
PL6.E3A0      #003=KSC$DEFINE File=KSC$COMMANDS2.:E05TSI                         WED 07/30/97 01:47 Page:491
         4 000540   401400 401760                    pmme    nvectors=4
         4 000541   001525 702000 4                  TSX2    DEF_ERR

     2644    11530
     2645    11531    2              KS_FEPBOOT_KEY.NODE = FEX;

  11531  4 000542   200023 236100                    LDQ     FEX,,AUTO
         4 000543   000011 736000                    QLS     9
         4 000544   002437 552010 1                  STBQ    KS_FEPBOOT_KEY,'10'O

     2646    11532    2              KS_FEPCTL_KEY.NODE = FEX;

  11532  4 000545   200023 236100                    LDQ     FEX,,AUTO
         4 000546   000011 736000                    QLS     9
         4 000547   002473 552010 1                  STBQ    KS_FEPCTL_KEY,'10'O

     2647    11533    2              KS_FEPHNDLR_KEY.NODE = FEX;

  11533  4 000550   200023 236100                    LDQ     FEX,,AUTO
         4 000551   000011 736000                    QLS     9
         4 000552   002552 552010 1                  STBQ    KS_FEPHNDLR_KEY,'10'O

     2648    11534    2              KS_HANDLER_KEY.NODE = FEX;

  11534  4 000553   200023 236100                    LDQ     FEX,,AUTO
         4 000554   000011 736000                    QLS     9
         4 000555   002401 552010 1                  STBQ    KS_HANDLER_KEY,'10'O

     2649    11535    2              KS_DEFAULT_KEY.NODE = FEX;

  11535  4 000556   200023 236100                    LDQ     FEX,,AUTO
         4 000557   000011 736000                    QLS     9
         4 000560   003326 552010 1                  STBQ    KS_DEFAULT_KEY,'10'O

     2650    11536
     2651    11537
     2652    11538        /* Do Case depending on node type */
PL6.E3A0      #003=KSC$DEFINE File=KSC$COMMANDS2.:E05TSI                         WED 07/30/97 01:47 Page:492
     2653    11539    3              DO CASE (NODETYPE);

  11539  4 000561   200024 235100                    LDA     NODETYPE,,AUTO
         4 000562   000006 115007                    CMPA    6,DL
         4 000563   000565 602005 4                  TNC     s:11539+4,AL
         4 000564   001507 710000 4                  TRA     s:11717
         4 000565   001507 710000 4                  TRA     s:11717
         4 000566   001507 710000 4                  TRA     s:11717
         4 000567   000573 710000 4                  TRA     s:11543
         4 000570   001472 710000 4                  TRA     s:11710
         4 000571   000573 710000 4                  TRA     s:11543
         4 000572   000573 710000 4                  TRA     s:11543

     2654    11540
     2655    11541    3              CASE (%KS_FEP,%KS_NODETYPE_DEBUG,%KS_RFEP);

     2656    11542                   /* Write default FEPBOOT record */
     2657    11543    3              KS_FEPBOOT.BOOTFID = 'M:FEP.:SYS';

  11543  4 000573   040000 100400                    MLR     fill='040'O
         4 000574   000005 000012 2                  ADSC9   HEX_CHARS+5              cn=0,n=10
         4 000575   002405 000050 1                  ADSC9   KS_FEPBOOT               cn=0,n=40

     2658    11544    3              KS_FEPBOOT.BOOTPARAMS = '0'B;

  11544  4 000576   000000 100400                    MLR     fill='000'O
         4 000577   000002 000001 xsym               ADSC9   B_VECTNIL+2              cn=0,n=1
         4 000600   002417 000100 1                  ADSC9   KS_FEPBOOT+10            cn=0,n=64

     2659    11545    4              DO I=0 TO %GI_BOOT_HI;

  11545  4 000601   200022 450100                    STZ     I,,AUTO

     2660    11546    4                KS_FEPBOOT.BOOTPARAMS(I) = KS_TBL(%KS_BOOT_PARAM)->KS$PARAM.DEFAULT(I)
             11546                          ;

  11546  4 000602   200022 235100                    LDA     I,,AUTO
PL6.E3A0      #003=KSC$DEFINE File=KSC$COMMANDS2.:E05TSI                         WED 07/30/97 01:47 Page:493
         4 000603   000002 735000                    ALS     2
         4 000604   000001 470400 xsym               LDP0    KS_TBL+1
         4 000605   200022 720100                    LXL0    I,,AUTO
         4 000606   000003 235105                    LDA     3,AL,PR0
         4 000607   002417 755010 1                  STA     KS_FEPBOOT+10,X0

     2661    11547    4                 END;

  11547  4 000610   200022 236100                    LDQ     I,,AUTO
         4 000611   000001 036007                    ADLQ    1,DL
         4 000612   200022 756100                    STQ     I,,AUTO
         4 000613   000020 116007                    CMPQ    16,DL
         4 000614   000602 602000 4                  TNC     s:11546

     2662    11548    3              KS_FEPBOOT.BOOTPARAMS(%GI_BOOT_LDCT) = %GI_LDCT#;

  11548  4 000615   000226 235007                    LDA     150,DL
         4 000616   002417 755000 1                  STA     KS_FEPBOOT+10

     2663    11549    3              KS_FEPBOOT.BOOTPARAMS(%GI_BOOT_IOP) = %GI_IOP#;

  11549  4 000617   000050 235007                    LDA     40,DL
         4 000620   002420 755000 1                  STA     KS_FEPBOOT+11

     2664    11550    3              KS_FEPBOOT.BOOTPARAMS(%GI_BOOT_HMI) = %GI_HMI#;

  11550  4 000621   000024 235007                    LDA     20,DL
         4 000622   002421 755000 1                  STA     KS_FEPBOOT+12

     2665    11551    3              KS_FEPBOOT.BOOTPARAMS(%GI_BOOT_APESSN) = %GI_APESSN#;

  11551  4 000623   000050 235007                    LDA     40,DL
         4 000624   002422 755000 1                  STA     KS_FEPBOOT+13

     2666    11552    3              KS_FEPBOOT.BOOTPARAMS(%GI_BOOT_SPROC) = %GI_SPROC#;

  11552  4 000625   000017 235007                    LDA     15,DL
PL6.E3A0      #003=KSC$DEFINE File=KSC$COMMANDS2.:E05TSI                         WED 07/30/97 01:47 Page:494
         4 000626   002425 755000 1                  STA     KS_FEPBOOT+16

     2667    11553    3                 KS_FEPBOOT.BOOTPARAMS(%GI_BOOT_ACCTS) = %GI_ACCTS#;

  11553  4 000627   002433 755000 1                  STA     KS_FEPBOOT+22

     2668    11554    3              KS_FEPBOOT.BOOTPARAMS(%GI_BOOT_MUIS) = %GI_MUIS#;

  11554  4 000630   000024 235007                    LDA     20,DL
         4 000631   002426 755000 1                  STA     KS_FEPBOOT+17

     2669    11555    3                 KS_FEPBOOT.BOOTPARAMS(%GI_BOOT_NSHUF) = %GI_NSHUF#;

  11555  4 000632   002427 450000 1                  STZ     KS_FEPBOOT+18

     2670    11556    3                KS_FEPBOOT.BOOTPARAMS(%GI_BOOT_TCTX) = %GI_TCTX#;

  11556  4 000633   000040 235007                    LDA     32,DL
         4 000634   002423 755000 1                  STA     KS_FEPBOOT+14

     2671    11557    3             KS_FEPBOOT.BOOTPARAMS(%GI_BOOT_CBUFFER) = %GI_CBUFFER#;

  11557  4 000635   000144 235007                    LDA     100,DL
         4 000636   002424 755000 1                  STA     KS_FEPBOOT+15

     2672    11558    3                 KS_FEPBOOT.BOOTPARAMS(%GI_BOOT_NODES) = %GI_NODES#;

  11558  4 000637   000020 235007                    LDA     16,DL
         4 000640   002430 755000 1                  STA     KS_FEPBOOT+19

     2673    11559    3                 KS_FEPBOOT.BOOTPARAMS(%GI_BOOT_LINKS) = %GI_LINKS#;

  11559  4 000641   000005 235007                    LDA     5,DL
         4 000642   002431 755000 1                  STA     KS_FEPBOOT+20

     2674    11560    3                 KS_FEPBOOT.BOOTPARAMS(%GI_BOOT_DEVICES) = %GI_DEVICES#;

PL6.E3A0      #003=KSC$DEFINE File=KSC$COMMANDS2.:E05TSI                         WED 07/30/97 01:47 Page:495
  11560  4 000643   000062 235007                    LDA     50,DL
         4 000644   002432 755000 1                  STA     KS_FEPBOOT+21

     2675    11561    3                 KS_FEPBOOT.BOOTPARAMS(%GI_BOOT_PCHANS) = %GI_PCHANS#;

  11561  4 000645   000012 235007                    LDA     10,DL
         4 000646   002434 755000 1                  STA     KS_FEPBOOT+23

     2676    11562    3              WRITE_NETCON.KEY_ = VECTOR(KS_FEPBOOT_KEY);

  11562  4 000647   000026 237000 5                  LDAQ    22
         4 000650   006206 757000 1                  STAQ    WRITE_NETCON+2

     2677    11563    3              WRITE_NETCON.BUF_ = VECTOR(KS_FEPBOOT);

  11563  4 000651   000030 237000 5                  LDAQ    24
         4 000652   006210 757000 1                  STAQ    WRITE_NETCON+4

     2678    11564    3              CALL M$WRITE(WRITE_NETCON) ALTRET(DEF_ERR);

  11564  4 000653   006204 630400 1                  EPPR0   WRITE_NETCON
         4 000654   440001 713400                    CLIMB   alt,write
         4 000655   401400 401760                    pmme    nvectors=4
         4 000656   001525 702000 4                  TSX2    DEF_ERR

     2679    11565
     2680    11566                   /* Write default FEPCTL record */
     2681    11567    4              DO I=0 TO %GI_CNTL_BOOTHI;

  11567  4 000657   200022 450100                    STZ     I,,AUTO

     2682    11568    4                 KS_FEPCTL.PARAMS(I) = KS_TBL(%KS_LCP6_PARAM) -> KS$PARAM.DEFAULT(I);

  11568  4 000660   200022 235100                    LDA     I,,AUTO
         4 000661   000002 735000                    ALS     2
         4 000662   000002 470400 xsym               LDP0    KS_TBL+2
         4 000663   200022 720100                    LXL0    I,,AUTO
PL6.E3A0      #003=KSC$DEFINE File=KSC$COMMANDS2.:E05TSI                         WED 07/30/97 01:47 Page:496
         4 000664   000003 235105                    LDA     3,AL,PR0
         4 000665   002446 755010 1                  STA     KS_FEPCTL+1,X0

     2683    11569    4                 END;

  11569  4 000666   200022 236100                    LDQ     I,,AUTO
         4 000667   000001 036007                    ADLQ    1,DL
         4 000670   200022 756100                    STQ     I,,AUTO
         4 000671   000025 116007                    CMPQ    21,DL
         4 000672   000660 602000 4                  TNC     s:11568

     2684    11570    3              KS_FEPCTL.NPARAMS = %GI_CNTL_BOOTHI;

  11570  4 000673   000024 235007                    LDA     20,DL
         4 000674   002445 755000 1                  STA     KS_FEPCTL

     2685    11571
     2686    11572    3              WRITE_NETCON.KEY_ = VECTOR(KS_FEPCTL_KEY);

  11572  4 000675   000032 237000 5                  LDAQ    26
         4 000676   006206 757000 1                  STAQ    WRITE_NETCON+2

     2687    11573    3              WRITE_NETCON.BUF_ = VECTOR(KS_FEPCTL);

  11573  4 000677   000034 237000 5                  LDAQ    28
         4 000700   006210 757000 1                  STAQ    WRITE_NETCON+4

     2688    11574    3              CALL M$WRITE(WRITE_NETCON) ALTRET(DEF_ERR);

  11574  4 000701   006204 630400 1                  EPPR0   WRITE_NETCON
         4 000702   440001 713400                    CLIMB   alt,write
         4 000703   401400 401760                    pmme    nvectors=4
         4 000704   001525 702000 4                  TSX2    DEF_ERR

     2689    11575
     2690    11576                   /* Write default FEPHNDLR record */
     2691    11577    3   IF NODETYPE = %KS_RFEP THEN
PL6.E3A0      #003=KSC$DEFINE File=KSC$COMMANDS2.:E05TSI                         WED 07/30/97 01:47 Page:497

  11577  4 000705   200024 235100                    LDA     NODETYPE,,AUTO
         4 000706   000005 115007                    CMPA    5,DL
         4 000707   000734 601000 4                  TNZ     s:11590

     2692    11578    4       DO;

     2693    11579    4          KS_FEPHNDLR.NHANDLERS = 3; /* NA, HDLCX25, ASYNC */

  11579  4 000710   000003 236007                    LDQ     3,DL
         4 000711   002474 756000 1                  STQ     KS_FEPHNDLR

     2694    11580    4          KS_FEPHNDLR.HANDLER(0) = 'NODEADMN';

  11580  4 000712   000010 237000 2                  LDAQ    HEX_CHARS+8
         4 000713   002500 757000 1                  STAQ    KS_FEPHNDLR+4

     2695    11581    4          KS_FEPHNDLR.HANDLER(1) = 'HDLCX25';

  11581  4 000714   040000 100400                    MLR     fill='040'O
         4 000715   000012 000007 2                  ADSC9   HEX_CHARS+10             cn=0,n=7
         4 000716   002502 000010 1                  ADSC9   KS_FEPHNDLR+6            cn=0,n=8

     2696    11582    4          KS_FEPHNDLR.HANDLER(2) = 'ASYNC';

  11582  4 000717   040000 100400                    MLR     fill='040'O
         4 000720   000014 000005 2                  ADSC9   HEX_CHARS+12             cn=0,n=5
         4 000721   002504 000010 1                  ADSC9   KS_FEPHNDLR+8            cn=0,n=8

     2697    11583    4          KS_FEPHNDLR.DEFLIBACCT = ':SYS    ';

  11583  4 000722   000016 237000 2                  LDAQ    HEX_CHARS+14
         4 000723   002475 755000 1                  STA     KS_FEPHNDLR+1
         4 000724   002476 756000 1                  STQ     KS_FEPHNDLR+2

     2698    11584    4          KS_FEPHNDLR.BOOTIME(0) = '1'B;  /* load nodeadmn at bootime */

PL6.E3A0      #003=KSC$DEFINE File=KSC$COMMANDS2.:E05TSI                         WED 07/30/97 01:47 Page:498
  11584  4 000725   400000 236003                    LDQ     -131072,DU
         4 000726   002477 256000 1                  ORSQ    KS_FEPHNDLR+3

     2699    11585    4          KS_FEPHNDLR.BOOTIME(1) = '1'B;  /* load hdlcx25 at bootime */

  11585  4 000727   200000 236003                    LDQ     65536,DU
         4 000730   002477 256000 1                  ORSQ    KS_FEPHNDLR+3

     2700    11586    4          KS_FEPHNDLR.BOOTIME(2) = '0'B;  /* don't load async until later*/

  11586  4 000731   000036 236000 5                  LDQ     30
         4 000732   002477 356000 1                  ANSQ    KS_FEPHNDLR+3

     2701    11587    4       END;

  11587  4 000733   000757 710000 4                  TRA     s:11599

     2702    11588    3   ELSE
     2703    11589    4       DO;

     2704    11590    4          KS_FEPHNDLR.NHANDLERS = 3; /* NA, FEI, ASYNC */

  11590  4 000734   000003 236007                    LDQ     3,DL
         4 000735   002474 756000 1                  STQ     KS_FEPHNDLR

     2705    11591    4          KS_FEPHNDLR.HANDLER(0) = 'NODEADMN';

  11591  4 000736   000010 237000 2                  LDAQ    HEX_CHARS+8
         4 000737   002500 757000 1                  STAQ    KS_FEPHNDLR+4

     2706    11592    4          KS_FEPHNDLR.HANDLER(1) = 'COUPLER';

  11592  4 000740   040000 100400                    MLR     fill='040'O
         4 000741   000020 000007 2                  ADSC9   HEX_CHARS+16             cn=0,n=7
         4 000742   002502 000010 1                  ADSC9   KS_FEPHNDLR+6            cn=0,n=8

     2707    11593    4          KS_FEPHNDLR.HANDLER(2) = 'ASYNC';
PL6.E3A0      #003=KSC$DEFINE File=KSC$COMMANDS2.:E05TSI                         WED 07/30/97 01:47 Page:499

  11593  4 000743   040000 100400                    MLR     fill='040'O
         4 000744   000014 000005 2                  ADSC9   HEX_CHARS+12             cn=0,n=5
         4 000745   002504 000010 1                  ADSC9   KS_FEPHNDLR+8            cn=0,n=8

     2708    11594    4          KS_FEPHNDLR.DEFLIBACCT = ':SYS    ';

  11594  4 000746   000016 237000 2                  LDAQ    HEX_CHARS+14
         4 000747   002475 755000 1                  STA     KS_FEPHNDLR+1
         4 000750   002476 756000 1                  STQ     KS_FEPHNDLR+2

     2709    11595    4          KS_FEPHNDLR.BOOTIME(0) = '1'B;  /* load nodeadmn at bootime */

  11595  4 000751   400000 236003                    LDQ     -131072,DU
         4 000752   002477 256000 1                  ORSQ    KS_FEPHNDLR+3

     2710    11596    4          KS_FEPHNDLR.BOOTIME(1) = '1'B;  /* load coupler at bootime */

  11596  4 000753   200000 236003                    LDQ     65536,DU
         4 000754   002477 256000 1                  ORSQ    KS_FEPHNDLR+3

     2711    11597    4          KS_FEPHNDLR.BOOTIME(2) = '1'B;  /* load async at bootime */

  11597  4 000755   100000 236003                    LDQ     32768,DU
         4 000756   002477 256000 1                  ORSQ    KS_FEPHNDLR+3

     2712    11598    4       END;

     2713    11599    3              WRITE_NETCON.KEY_ = VECTOR(KS_FEPHNDLR_KEY);

  11599  4 000757   000040 237000 5                  LDAQ    32
         4 000760   006206 757000 1                  STAQ    WRITE_NETCON+2

     2714    11600    3              WRITE_NETCON.BUF_ = VECTOR(KS_FEPHNDLR);

  11600  4 000761   000042 237000 5                  LDAQ    34
         4 000762   006210 757000 1                  STAQ    WRITE_NETCON+4
PL6.E3A0      #003=KSC$DEFINE File=KSC$COMMANDS2.:E05TSI                         WED 07/30/97 01:47 Page:500

     2715    11601
     2716    11602
     2717    11603
     2718    11604
     2719    11605    3                 WRITE_NETCON.BUF_.BOUND = SIZEC(KS_FEPHNDLR.NHANDLERS) + SIZEC(
             11605                          KS_FEPHNDLR.DEFLIBACCT) + 4  /* bootime */

  11605  4 000763   002474 236000 1                  LDQ     KS_FEPHNDLR
         4 000764   000003 736000                    QLS     3
         4 000765   000017 036007                    ADLQ    15,DL
         4 000766   000020 736000                    QLS     16
         4 000767   006210 676000 1                  ERQ     WRITE_NETCON+4
         4 000770   000034 376000 xsym               ANQ     B_VECTNIL+28
         4 000771   006210 656000 1                  ERSQ    WRITE_NETCON+4

     2720    11606    3                                           + SIZEC(KS_FEPHNDLR.HANDLER(0)) *
             11606                                                    KS_FEPHNDLR.NHANDLERS - 1;
     2721    11607    3              CALL M$WRITE(WRITE_NETCON) ALTRET(DEF_ERR);

  11607  4 000772   006204 630400 1                  EPPR0   WRITE_NETCON
         4 000773   440001 713400                    CLIMB   alt,write
         4 000774   401400 401760                    pmme    nvectors=4
         4 000775   001525 702000 4                  TSX2    DEF_ERR

     2722    11608
     2723    11609                   /* Write default HNDLR records */
     2724    11610    4              DO J = 1 TO KS_FEPHNDLR.NHANDLERS;

  11610  4 000776   000001 235007                    LDA     1,DL
         4 000777   200035 755100                    STA     J,,AUTO
         4 001000   001324 710000 4                  TRA     s:11665+1

     2725    11611    4                 KS_DEFAULT_KEY.HNDLR = KS_FEPHNDLR.HANDLER(J-1);

  11611  4 001001   200035 235100                    LDA     J,,AUTO
         4 001002   000003 735000                    ALS     3
PL6.E3A0      #003=KSC$DEFINE File=KSC$COMMANDS2.:E05TSI                         WED 07/30/97 01:47 Page:501
         4 001003   040000 100405                    MLR     fill='040'O
         4 001004   002476 000010 1                  ADSC9   KS_FEPHNDLR+2,A          cn=0,n=8
         4 001005   003326 600010 1                  ADSC9   KS_DEFAULT_KEY           cn=3,n=8

     2726    11612    4                 CALL KSU$INIT_DEFCNFG(KS_DEFAULT);

  11612  4 001006   003413 630400 1                  EPPR0   DEFAULT$
         4 001007   000017 631400 xsym               EPPR1   B_VECTNIL+15
         4 001010   000000 701000 xent               TSX1    KSU$INIT_DEFCNFG
         4 001011   000000 011000                    NOP     0

     2727    11613    4                 CALL KSU$WRITE_NETCON(VECTOR(KS_DEFAULT_KEY),VECTOR(KS_DEFAULT));

  11613  4 001012   003413 470400 1                  LDP0    DEFAULT$
         4 001013   000012 236100                    LDQ     10,,PR0
         4 001014   000011 772000                    QRL     9
         4 001015   000777 376007                    ANQ     511,DL
         4 001016   000053 620006                    EAX0    43,QL
         4 001017   000000 635010                    EAA     0,X0
         4 001020   000002 771000                    ARL     2
         4 001021   000140 135007                    SBLA    96,DL
         4 001022   003413 236000 1                  LDQ     DEFAULT$
         4 001023   200042 757100                    STAQ    LINK_NR+1,,AUTO
         4 001024   200042 631500                    EPPR1   LINK_NR+1,,AUTO
         4 001025   200045 451500                    STP1    LINK_NR+4,,AUTO
         4 001026   000037 236000 5                  LDQ     31
         4 001027   200044 756100                    STQ     LINK_NR+3,,AUTO
         4 001030   200044 630500                    EPPR0   LINK_NR+3,,AUTO
         4 001031   000020 631400 xsym               EPPR1   B_VECTNIL+16
         4 001032   000000 701000 xent               TSX1    KSU$WRITE_NETCON
         4 001033   000000 011000                    NOP     0

     2728    11614    4                 KS_HANDLER = '0'B;

  11614  4 001034   003414 470400 1                  LDP0    HNDLR$
         4 001035   000100 100400                    MLR     fill='000'O
         4 001036   000002 000001 xsym               ADSC9   B_VECTNIL+2              cn=0,n=1
PL6.E3A0      #003=KSC$DEFINE File=KSC$COMMANDS2.:E05TSI                         WED 07/30/97 01:47 Page:502
         4 001037   000000 000166                    ADSC9   0,,PR0                   cn=0,n=118

     2729    11615    4                 KS_HANDLER_KEY.HNDLR = KS_FEPHNDLR.HANDLER(J-1);

  11615  4 001040   200035 235100                    LDA     J,,AUTO
         4 001041   000003 735000                    ALS     3
         4 001042   040000 100405                    MLR     fill='040'O
         4 001043   002476 000010 1                  ADSC9   KS_FEPHNDLR+2,A          cn=0,n=8
         4 001044   002401 600010 1                  ADSC9   KS_HANDLER_KEY           cn=3,n=8

     2730    11616    4                 KS_HANDLER.HNDLRFID = KS_FEPHNDLR.HANDLER(J-1);

  11616  4 001045   040100 100405                    MLR     fill='040'O
         4 001046   002476 000010 1                  ADSC9   KS_FEPHNDLR+2,A          cn=0,n=8
         4 001047   000000 000050                    ADSC9   0,,PR0                   cn=0,n=40

     2731    11617    4                 CALL INDEX(TEMP,' ',KS_HANDLER.HNDLRFID);

  11617  4 001050   000000 124500                    SCM     mask='000'O
         4 001051   000000 000050                    ADSC9   0,,PR0                   cn=0,n=40
         4 001052   000035 000001 xsym               ADSC9   B_VECTNIL+29             cn=0,n=1
         4 001053   200036 000100                    ARG     TEMP,,AUTO

     2732    11618    4                 CALL INSERT(KS_HANDLER.HNDLRFID,TEMP,,'.:SYS');

  11618  4 001054   200036 720100                    LXL0    TEMP,,AUTO
         4 001055   777727 620010                    EAX0    -41,X0
         4 001056   777777 660003                    ERX0    -1,DU
         4 001057   200036 236100                    LDQ     TEMP,,AUTO
         4 001060   040146 100400                    MLR     fill='040'O
         4 001061   000022 000005 2                  ADSC9   HEX_CHARS+18             cn=0,n=5
         4 001062   000000 000010                    ADSC9   0,Q,PR0                  cn=0,n=*X0

     2733    11619    4                 KS_HANDLER.HNDLRNAME = KS_FEPHNDLR.HANDLER(J-1);

  11619  4 001063   200035 235100                    LDA     J,,AUTO
         4 001064   000001 735000                    ALS     1
PL6.E3A0      #003=KSC$DEFINE File=KSC$COMMANDS2.:E05TSI                         WED 07/30/97 01:47 Page:503
         4 001065   002476 237005 1                  LDAQ    KS_FEPHNDLR+2,AL
         4 001066   000012 755100                    STA     10,,PR0
         4 001067   000013 756100                    STQ     11,,PR0

     2734    11620    5                  DO HAND# = 0 TO 7;

  11620  4 001070   200033 450100                    STZ     HAND#,,AUTO

     2735    11621    5                       IF KS_HAND_INFO.TEXT(HAND#) = KS_HANDLER_KEY.HNDLR

  11621  4 001071   200033 236100                    LDQ     HAND#,,AUTO
         4 001072   000024 402007                    MPY     20,DL
         4 001073   040000 106406                    CMPC    fill='040'O
         4 001074   000000 000010 xsym               ADSC9   KS_HAND_INFO,Q           cn=0,n=8
         4 001075   002401 600010 1                  ADSC9   KS_HANDLER_KEY           cn=3,n=8
         4 001076   001104 600000 4                  TZE     s:11625

     2736    11622    5                       THEN
     2737    11623    5                            EXIT;
     2738    11624    5                       END;

  11624  4 001077   200033 235100                    LDA     HAND#,,AUTO
         4 001100   000001 035007                    ADLA    1,DL
         4 001101   200033 755100                    STA     HAND#,,AUTO
         4 001102   000010 115007                    CMPA    8,DL
         4 001103   001071 602000 4                  TNC     s:11621

     2739    11625    4                 KS_HANDLER.TYPE = KS_HAND_INFO.TYPE(HAND#);

  11625  4 001104   200033 236100                    LDQ     HAND#,,AUTO
         4 001105   000005 402007                    MPY     5,DL
         4 001106   003414 470400 1                  LDP0    HNDLR$
         4 001107   000002 236006 xsym               LDQ     KS_HAND_INFO+2,QL
         4 001110   000033 736000                    QLS     27
         4 001111   000014 552140                    STBQ    12,'40'O,PR0

     2740    11626
PL6.E3A0      #003=KSC$DEFINE File=KSC$COMMANDS2.:E05TSI                         WED 07/30/97 01:47 Page:504
     2741    11627    4                 DFLT$ = KS_HAND_INFO.PARAMS$(HAND#);

  11627  4 001112   200033 236100                    LDQ     HAND#,,AUTO
         4 001113   000005 402007                    MPY     5,DL
         4 001114   000004 236006 xsym               LDQ     KS_HAND_INFO+4,QL
         4 001115   200030 756100                    STQ     DFLT$,,AUTO

     2742    11628
     2743    11629    4                 IF KS_HAND_INFO.SZ(HAND#) <= %KL_FIXED_HI

  11629  4 001116   200033 236100                    LDQ     HAND#,,AUTO
         4 001117   000005 402007                    MPY     5,DL
         4 001120   000003 235006 xsym               LDA     KS_HAND_INFO+3,QL
         4 001121   000036 115007                    CMPA    30,DL
         4 001122   001127 603000 4                  TRC     s:11631

     2744    11630    4                 THEN KS_HANDLER.NPARAMS = KS_HAND_INFO.SZ(HAND#);

  11630  4 001123   000003 236006 xsym               LDQ     KS_HAND_INFO+3,QL
         4 001124   000011 736000                    QLS     9
         4 001125   000014 552110                    STBQ    12,'10'O,PR0
         4 001126   001131 710000 4                  TRA     s:11633

     2745    11631    4                 ELSE KS_HANDLER.NPARAMS = %KL_FIXED_HI;

  11631  4 001127   035000 236007                    LDQ     14848,DL
         4 001130   000014 552110                    STBQ    12,'10'O,PR0

     2746    11632
     2747    11633    5                 DO K=0 TO KS_HANDLER.NPARAMS-1;

  11633  4 001131   200032 450100                    STZ     K,,AUTO
         4 001132   001147 710000 4                  TRA     s:11635+3

     2748    11634    5                    KS_HANDLER.PARAMS(K) = DFLT$->KS$PARAM.DEFAULT(K);

  11634  4 001133   200032 235100                    LDA     K,,AUTO
PL6.E3A0      #003=KSC$DEFINE File=KSC$COMMANDS2.:E05TSI                         WED 07/30/97 01:47 Page:505
         4 001134   000004 735000                    ALS     4
         4 001135   200032 236100                    LDQ     K,,AUTO
         4 001136   000001 736000                    QLS     1
         4 001137   200030 470500                    LDP0    DFLT$,,AUTO
         4 001140   003414 471400 1                  LDP1    HNDLR$
         4 001141   000106 101505                    MRL     fill='000'O
         4 001142   000003 000004                    ADSC9   3,A,PR0                  cn=0,n=4
         4 001143   100015 000002                    ADSC9   13,Q,PR1                 cn=0,n=2

     2749    11635    5                    END;

  11635  4 001144   200032 235100                    LDA     K,,AUTO
         4 001145   000001 035007                    ADLA    1,DL
         4 001146   200032 755100                    STA     K,,AUTO
         4 001147   003414 470400 1                  LDP0    HNDLR$
         4 001150   000014 236100                    LDQ     12,,PR0
         4 001151   000011 772000                    QRL     9
         4 001152   000777 376007                    ANQ     511,DL
         4 001153   200032 116100                    CMPQ    K,,AUTO
         4 001154   001156 600000 4                  TZE     s:11637
         4 001155   001133 603000 4                  TRC     s:11634

     2750    11636
     2751    11637    4                 IF KS_HAND_INFO.SZ(HAND#) > %KL_FIXED_HI

  11637  4 001156   200033 236100                    LDQ     HAND#,,AUTO
         4 001157   000005 402007                    MPY     5,DL
         4 001160   000003 235006 xsym               LDA     KS_HAND_INFO+3,QL
         4 001161   000036 115007                    CMPA    30,DL
         4 001162   001270 602000 4                  TNC     s:11655

     2752    11638    5                 THEN DO;

     2753    11639    5                       KS_HANDLER.NPARAMI = KS_HAND_INFO.SZ(HAND#) - %KL_FIXED_HI;

  11639  4 001163   000003 236006 xsym               LDQ     KS_HAND_INFO+3,QL
         4 001164   000035 136007                    SBLQ    29,DL
PL6.E3A0      #003=KSC$DEFINE File=KSC$COMMANDS2.:E05TSI                         WED 07/30/97 01:47 Page:506
         4 001165   000014 552104                    STBQ    12,'04'O,PR0

     2754    11640    5                      OUT$ = PINCRW(ADDR(KS_HANDLER),SIZEW(KS_HANDLER));

  11640  4 001166   003414 236000 1                  LDQ     HNDLR$
         4 001167   000036 036003                    ADLQ    30,DU
         4 001170   200027 756100                    STQ     OUT$,,AUTO

     2755    11641
     2756    11642    6                     DO K = %KL_HNDLRPARM_BLOCK TO KS_HAND_INFO.SZ(HAND#)-1;

  11642  4 001171   000035 235007                    LDA     29,DL
         4 001172   200032 755100                    STA     K,,AUTO
         4 001173   001262 710000 4                  TRA     s:11652+3

     2757    11643    6                         DFLT_OPT$ = DFLT$->KS$PARAM.SPCL_TBL$(K);

  11643  4 001174   200032 235100                    LDA     K,,AUTO
         4 001175   000002 735000                    ALS     2
         4 001176   200030 470500                    LDP0    DFLT$,,AUTO
         4 001177   000002 236105                    LDQ     2,AL,PR0
         4 001200   200031 756100                    STQ     DFLT_OPT$,,AUTO

     2758    11644    6                       KS_HANDLER.IPARAM.OFFSET(K - %KL_HNDLRPARM_BLOCK) = POFFW(OUT$,
             11644                                 ADDR(KS_HANDLER));

  11644  4 001201   003414 236000 1                  LDQ     HNDLR$
         4 001202   000022 772000                    QRL     18
         4 001203   200042 756100                    STQ     LINK_NR+1,,AUTO
         4 001204   200027 236100                    LDQ     OUT$,,AUTO
         4 001205   000022 772000                    QRL     18
         4 001206   200042 136100                    SBLQ    LINK_NR+1,,AUTO
         4 001207   000000 620006                    EAX0    0,QL
         4 001210   003414 471400 1                  LDP1    HNDLR$
         4 001211   200032 721100                    LXL1    K,,AUTO
         4 001212   177777 740111                    STX0    -1,X1,PR1

PL6.E3A0      #003=KSC$DEFINE File=KSC$COMMANDS2.:E05TSI                         WED 07/30/97 01:47 Page:507
     2759    11645    6                        KS_HANDLER.IPARAM.ARRAY_SZ(K - %KL_HNDLRPARM_BLOCK) =
             11645                                 KS_HAND_INFO.PARAMS$(HAND#)->KS$PARAM.ARRAY_SZ(K);

  11645  4 001213   200033 236100                    LDQ     HAND#,,AUTO
         4 001214   000005 402007                    MPY     5,DL
         4 001215   000004 473406 xsym               LDP3    KS_HAND_INFO+4,QL
         4 001216   200032 235100                    LDA     K,,AUTO
         4 001217   000002 735000                    ALS     2
         4 001220   300001 236105                    LDQ     1,AL,PR3
         4 001221   000011 736000                    QLS     9
         4 001222   177776 676111                    ERQ     -2,X1,PR1
         4 001223   777000 376007                    ANQ     -512,DL
         4 001224   177776 656111                    ERSQ    -2,X1,PR1

     2760    11646
     2761    11647    7                       DO I = 0 TO KS_HANDLER.IPARAM.ARRAY_SZ(K - %KL_HNDLRPARM_BLOCK)
             11647                                 ;

  11647  4 001225   200022 450100                    STZ     I,,AUTO
         4 001226   001243 710000 4                  TRA     s:11649+3

     2762    11648    7                         OUT$->B$PARAMI(I) = DFLT_OPT$->KS$PARAM.DEFAULT(I);

  11648  4 001227   200022 235100                    LDA     I,,AUTO
         4 001230   000004 735000                    ALS     4
         4 001231   200022 236100                    LDQ     I,,AUTO
         4 001232   000001 736000                    QLS     1
         4 001233   200031 470500                    LDP0    DFLT_OPT$,,AUTO
         4 001234   200027 471500                    LDP1    OUT$,,AUTO
         4 001235   000106 101505                    MRL     fill='000'O
         4 001236   000003 000004                    ADSC9   3,A,PR0                  cn=0,n=4
         4 001237   100000 000002                    ADSC9   0,Q,PR1                  cn=0,n=2

     2763    11649    7                           END;

  11649  4 001240   200022 235100                    LDA     I,,AUTO
         4 001241   000001 035007                    ADLA    1,DL
PL6.E3A0      #003=KSC$DEFINE File=KSC$COMMANDS2.:E05TSI                         WED 07/30/97 01:47 Page:508
         4 001242   200022 755100                    STA     I,,AUTO
         4 001243   003414 470400 1                  LDP0    HNDLR$
         4 001244   200032 720100                    LXL0    K,,AUTO
         4 001245   077776 236110                    LDQ     -2,X0,PR0
         4 001246   000011 772000                    QRL     9
         4 001247   000777 376007                    ANQ     511,DL
         4 001250   200022 116100                    CMPQ    I,,AUTO
         4 001251   001227 603000 4                  TRC     s:11648

     2764    11650
     2765    11651    6                        OUT$ = PINCRW(OUT$,(KS_HANDLER.IPARAM.ARRAY_SZ(K - %
             11651                                 KL_HNDLRPARM_BLOCK)+2)/2);

  11651  4 001252   000002 036007                    ADLQ    2,DL
         4 001253   000001 772000                    QRL     1
         4 001254   000022 736000                    QLS     18
         4 001255   200027 036100                    ADLQ    OUT$,,AUTO
         4 001256   200027 756100                    STQ     OUT$,,AUTO

     2766    11652    6                         END;  /* DO K - # of indexed params */

  11652  4 001257   200032 235100                    LDA     K,,AUTO
         4 001260   000001 035007                    ADLA    1,DL
         4 001261   200032 755100                    STA     K,,AUTO
         4 001262   200033 236100                    LDQ     HAND#,,AUTO
         4 001263   000005 402007                    MPY     5,DL
         4 001264   000003 236006 xsym               LDQ     KS_HAND_INFO+3,QL
         4 001265   200032 116100                    CMPQ    K,,AUTO
         4 001266   001270 600000 4                  TZE     s:11655
         4 001267   001174 603000 4                  TRC     s:11643

     2767    11653    5                     END;  /* DO IF ANY INDEXED PARAMS */

     2768    11654
     2769    11655    4                 WRITE_NETCON.KEY_ = VECTOR(KS_HANDLER_KEY);

  11655  4 001270   000046 237000 5                  LDAQ    38
PL6.E3A0      #003=KSC$DEFINE File=KSC$COMMANDS2.:E05TSI                         WED 07/30/97 01:47 Page:509
         4 001271   006206 757000 1                  STAQ    WRITE_NETCON+2

     2770    11656    4                 WRITE_NETCON.BUF_ = VECTOR(KS_HANDLER);

  11656  4 001272   000050 235000 5                  LDA     40
         4 001273   003414 236000 1                  LDQ     HNDLR$
         4 001274   006210 757000 1                  STAQ    WRITE_NETCON+4

     2771    11657    4                 IF KS_HANDLER.NPARAMI = 0

  11657  4 001275   000014 236100                    LDQ     12,,PR0
         4 001276   000777 316007                    CANQ    511,DL
         4 001277   001304 601000 4                  TNZ     s:11663

     2772    11658    5                 THEN DO;

     2773    11659    5                    OUT$ = ADDR(KS_HANDLER);

  11659  4 001300   003414 236000 1                  LDQ     HNDLR$
         4 001301   200027 756100                    STQ     OUT$,,AUTO

     2774    11660    5                    OUT$ = PINCRW(OUT$,SIZEW(KS_HANDLER) + 1);

  11660  4 001302   000037 036003                    ADLQ    31,DU
         4 001303   200027 756100                    STQ     OUT$,,AUTO

     2775    11661    5                 END;

     2776    11662
     2777    11663    4                 WRITE_NETCON.BUF_.BOUND = POFFC(OUT$,ADDR(KS_HANDLER))-1;

  11663  4 001304   003414 236000 1                  LDQ     HNDLR$
         4 001305   000020 772000                    QRL     16
         4 001306   200042 756100                    STQ     LINK_NR+1,,AUTO
         4 001307   200027 236100                    LDQ     OUT$,,AUTO
         4 001310   000020 772000                    QRL     16
         4 001311   200042 136100                    SBLQ    LINK_NR+1,,AUTO
PL6.E3A0      #003=KSC$DEFINE File=KSC$COMMANDS2.:E05TSI                         WED 07/30/97 01:47 Page:510
         4 001312   000001 136007                    SBLQ    1,DL
         4 001313   000020 736000                    QLS     16
         4 001314   006210 676000 1                  ERQ     WRITE_NETCON+4
         4 001315   000034 376000 xsym               ANQ     B_VECTNIL+28
         4 001316   006210 656000 1                  ERSQ    WRITE_NETCON+4

     2778    11664    4                 CALL M$WRITE(WRITE_NETCON) ALTRET(DEF_ERR);

  11664  4 001317   006204 630400 1                  EPPR0   WRITE_NETCON
         4 001320   440001 713400                    CLIMB   alt,write
         4 001321   401400 401760                    pmme    nvectors=4
         4 001322   001525 702000 4                  TSX2    DEF_ERR

     2779    11665    4                 END;  /* DO J - # of handlers */

  11665  4 001323   200035 054100                    AOS     J,,AUTO
         4 001324   002474 236000 1                  LDQ     KS_FEPHNDLR
         4 001325   001001 604000 4                  TMI     s:11611
         4 001326   200035 116100                    CMPQ    J,,AUTO
         4 001327   001001 605000 4                  TPL     s:11611

     2780    11666
     2781    11667             /* Write a link record for the FEP */
     2782    11668    3       KS_LINK.LINKS# = 0;

  11668  4 001330   000000 470400 xsym               LDP0    KS_MSGBUF$
         4 001331   000000 450100                    STZ     0,,PR0

     2783    11669    4       DO I = 0 TO NRLINKS - 1;

  11669  4 001332   200022 450100                    STZ     I,,AUTO
         4 001333   001442 710000 4                  TRA     s:11697+3

     2784    11670    4          K = 3;

  11670  4 001334   000003 235007                    LDA     3,DL
         4 001335   200032 755100                    STA     K,,AUTO
PL6.E3A0      #003=KSC$DEFINE File=KSC$COMMANDS2.:E05TSI                         WED 07/30/97 01:47 Page:511

     2785    11671    4          TEMP_LINK = '0'B;

  11671  4 001336   000000 220003                    LDX0    0,DU
         4 001337   002444 740000 1                  STX0    TEMP_LINK

     2786    11672    5          DO J = 3 DOWNTO 0;

  11672  4 001340   200035 755100                    STA     J,,AUTO

     2787    11673    5              IF SUBSTR(LINK_LIST(I),J,1) ~= ' ' THEN

  11673  4 001341   200022 236100                    LDQ     I,,AUTO
         4 001342   000002 736000                    QLS     2
         4 001343   200035 036100                    ADLQ    J,,AUTO
         4 001344   040000 106506                    CMPC    fill='040'O
         4 001345   200007 000001                    ADSC9   LINK_LIST,Q,AUTO         cn=0,n=1
         4 001346   000035 000001 xsym               ADSC9   B_VECTNIL+29             cn=0,n=1
         4 001347   001367 600000 4                  TZE     s:11679

     2788    11674    6                DO;

     2789    11675    6                   CALL INDEX (TEMP,SUBSTR(LINK_LIST(I),J,1),HEX_CHARS);

  11675  4 001350   200022 236100                    LDQ     I,,AUTO
         4 001351   000002 736000                    QLS     2
         4 001352   200035 036100                    ADLQ    J,,AUTO
         4 001353   000106 124400                    SCM     mask='000'O
         4 001354   000000 000020 2                  ADSC9   HEX_CHARS                cn=0,n=16
         4 001355   200007 000001                    ADSC9   LINK_LIST,Q,AUTO         cn=0,n=1
         4 001356   200036 000100                    ARG     TEMP,,AUTO

     2790    11676    6                   HEX$(K)->HEX = TEMP;

  11676  4 001357   200032 720100                    LXL0    K,,AUTO
         4 001360   002440 470410 1                  LDP0    HEX$,X0
         4 001361   003100 061500                    CSR     bolr='003'O
PL6.E3A0      #003=KSC$DEFINE File=KSC$COMMANDS2.:E05TSI                         WED 07/30/97 01:47 Page:512
         4 001362   200036 000044                    BDSC    TEMP,,AUTO               by=0,bit=0,n=36
         4 001363   000000 000004                    BDSC    0,,PR0                   by=0,bit=0,n=4

     2791    11677    6                   K = K - 1;

  11677  4 001364   200032 235100                    LDA     K,,AUTO
         4 001365   000001 135007                    SBLA    1,DL
         4 001366   200032 755100                    STA     K,,AUTO

     2792    11678    6                END;

     2793    11679    5          END;

  11679  4 001367   000001 336007                    LCQ     1,DL
         4 001370   200035 056100                    ASQ     J,,AUTO
         4 001371   001341 605000 4                  TPL     s:11673

     2794    11680    4           IF I = 0 THEN

  11680  4 001372   200022 235100                    LDA     I,,AUTO
         4 001373   001403 601000 4                  TNZ     CHECK_DUP

     2795    11681    5             DO;

     2796    11682    5                KS_LINK.CHANNEL(0)= TEMP_LINK;

  11682  4 001374   002444 220000 1                  LDX0    TEMP_LINK
         4 001375   000000 470400 xsym               LDP0    KS_MSGBUF$
         4 001376   000001 740100                    STX0    1,,PR0

     2797    11683    5                KS_LINK.LINKS# = KS_LINK.LINKS# + 1;

  11683  4 001377   000000 235100                    LDA     0,,PR0
         4 001400   000001 035007                    ADLA    1,DL
         4 001401   000000 755100                    STA     0,,PR0

     2798    11684    5             END;
PL6.E3A0      #003=KSC$DEFINE File=KSC$COMMANDS2.:E05TSI                         WED 07/30/97 01:47 Page:513

  11684  4 001402   001437 710000 4                  TRA     s:11697

     2799    11685    4           ELSE
     2800    11686    5             DO;

     2801    11687    6   CHECK_DUP:             DO J = 0 TO KS_LINK.LINKS# - 1;

  11687  4 001403   200035 450100       CHECK_DUP    STZ     J,,AUTO
         4 001404   001415 710000 4                  TRA     s:11690+1

     2802    11688    6                    IF TEMP_LINK = KS_LINK.CHANNEL(J) THEN

  11688  4 001405   200035 235100                    LDA     J,,AUTO
         4 001406   000001 735000                    ALS     1
         4 001407   000000 470400 xsym               LDP0    KS_MSGBUF$
         4 001410   000105 106400                    CMPC    fill='000'O
         4 001411   002444 000002 1                  ADSC9   TEMP_LINK                cn=0,n=2
         4 001412   000001 000002                    ADSC9   1,A,PR0                  cn=0,n=2
         4 001413   001422 600000 4                  TZE     s:11691

     2803    11689    6                      EXIT CHECK_DUP;
     2804    11690    6                END;

  11690  4 001414   200035 054100                    AOS     J,,AUTO
         4 001415   000000 470400 xsym               LDP0    KS_MSGBUF$
         4 001416   200035 236100                    LDQ     J,,AUTO
         4 001417   001405 604000 4                  TMI     s:11688
         4 001420   000000 116100                    CMPQ    0,,PR0
         4 001421   001405 602000 4                  TNC     s:11688

     2805    11691    5                 IF J = KS_LINK.LINKS# THEN

  11691  4 001422   200035 236100                    LDQ     J,,AUTO
         4 001423   001437 604000 4                  TMI     s:11697
         4 001424   000000 116100                    CMPQ    0,,PR0
         4 001425   001437 601000 4                  TNZ     s:11697
PL6.E3A0      #003=KSC$DEFINE File=KSC$COMMANDS2.:E05TSI                         WED 07/30/97 01:47 Page:514

     2806    11692    6                   DO;

     2807    11693    6                      KS_LINK.CHANNEL(KS_LINK.LINKS#) = TEMP_LINK;

  11693  4 001426   000000 235100                    LDA     0,,PR0
         4 001427   000001 735000                    ALS     1
         4 001430   000105 100400                    MLR     fill='000'O
         4 001431   002444 000002 1                  ADSC9   TEMP_LINK                cn=0,n=2
         4 001432   000001 000002                    ADSC9   1,A,PR0                  cn=0,n=2

     2808    11694    6                      KS_LINK.LINKS# = KS_LINK.LINKS# + 1;

  11694  4 001433   000000 470400 xsym               LDP0    KS_MSGBUF$
         4 001434   000000 235100                    LDA     0,,PR0
         4 001435   000001 035007                    ADLA    1,DL
         4 001436   000000 755100                    STA     0,,PR0

     2809    11695    6                   END;

     2810    11696    5             END;

     2811    11697    4       END;

  11697  4 001437   200022 235100                    LDA     I,,AUTO
         4 001440   000001 035007                    ADLA    1,DL
         4 001441   200022 755100                    STA     I,,AUTO
         4 001442   200022 236100                    LDQ     I,,AUTO
         4 001443   001446 604000 4                  TMI     s:11698
         4 001444   200006 116100                    CMPQ    NRLINKS,,AUTO
         4 001445   001334 604000 4                  TMI     s:11670

     2812    11698    3       KS_LINK_KEY.NODE = FEX;

  11698  4 001446   200023 236100                    LDQ     FEX,,AUTO
         4 001447   000011 736000                    QLS     9
         4 001450   002404 552010 1                  STBQ    KS_LINK_KEY,'10'O
PL6.E3A0      #003=KSC$DEFINE File=KSC$COMMANDS2.:E05TSI                         WED 07/30/97 01:47 Page:515

     2813    11699    3       WRITE_NETCON.BUF_ = VECTOR(KS_MSGBUF);

  11699  4 001451   000052 237000 5                  LDAQ    42
         4 001452   006210 757000 1                  STAQ    WRITE_NETCON+4

     2814    11700    3       WRITE_NETCON.KEY_ = VECTOR(KS_LINK_KEY);

  11700  4 001453   000054 237000 5                  LDAQ    44
         4 001454   006206 757000 1                  STAQ    WRITE_NETCON+2

     2815    11701    3        WRITE_NETCON.BUF_.BOUND = SIZEC(KS_LINK.LINKS#) +

  11701  4 001455   000000 470400 xsym               LDP0    KS_MSGBUF$
         4 001456   000000 236100                    LDQ     0,,PR0
         4 001457   000001 736000                    QLS     1
         4 001460   000003 036007                    ADLQ    3,DL
         4 001461   000020 736000                    QLS     16
         4 001462   006210 676000 1                  ERQ     WRITE_NETCON+4
         4 001463   000034 376000 xsym               ANQ     B_VECTNIL+28
         4 001464   006210 656000 1                  ERSQ    WRITE_NETCON+4

     2816    11702    3                                 (SIZEC(KS_LINK.CHANNEL(0)) *
     2817    11703    3                                 KS_LINK.LINKS#) - 1;
     2818    11704    3       CALL M$WRITE(WRITE_NETCON) ALTRET(DEF_ERR);

  11704  4 001465   006204 630400 1                  EPPR0   WRITE_NETCON
         4 001466   440001 713400                    CLIMB   alt,write
         4 001467   401400 401760                    pmme    nvectors=4
         4 001470   001525 702000 4                  TSX2    DEF_ERR
         4 001471   001507 710000 4                  TRA     s:11717

     2819    11705
     2820    11706        %EJECT;
PL6.E3A0      #003=KSC$DEFINE File=KSC$COMMANDS2.:E05TSI                         WED 07/30/97 01:47 Page:516
     2821    11707    3               CASE (%KS_HOST);

     2822    11708
     2823    11709    3               CASE (%KS_ME);

     2824    11710    3                 KS_NODEINFO.NODE# = FEX;

  11710  4 001472   200023 236100                    LDQ     FEX,,AUTO
         4 001473   003322 756000 1                  STQ     KS_NODEINFO

     2825    11711    3                 KS_NODEINFO.NODENAME = NODENAME;

  11711  4 001474   200004 237100                    LDAQ    NODENAME,,AUTO
         4 001475   003323 755000 1                  STA     KS_NODEINFO+1
         4 001476   003324 756000 1                  STQ     KS_NODEINFO+2

     2826    11712    3                 WRITE_NETCON.BUF_ = VECTOR(KS_NODEINFO);

  11712  4 001477   000056 237000 5                  LDAQ    46
         4 001500   006210 757000 1                  STAQ    WRITE_NETCON+4

     2827    11713    3                 WRITE_NETCON.KEY_ = VECTOR(KS_NODEINFO_KEY);

  11713  4 001501   000060 237000 5                  LDAQ    48
         4 001502   006206 757000 1                  STAQ    WRITE_NETCON+2

     2828    11714    3                 CALL M$WRITE (WRITE_NETCON) ALTRET(DEF_ERR);

  11714  4 001503   006204 630400 1                  EPPR0   WRITE_NETCON
         4 001504   440001 713400                    CLIMB   alt,write
         4 001505   401400 401760                    pmme    nvectors=4
         4 001506   001525 702000 4                  TSX2    DEF_ERR

     2829    11715
     2830    11716    3               END /* END CASES */;

     2831    11717    2   UPDATE.CODE = %IGA_UPDATE;
PL6.E3A0      #003=KSC$DEFINE File=KSC$COMMANDS2.:E05TSI                         WED 07/30/97 01:47 Page:517

  11717  4 001507   006165 470400 1                  LDP0    HDR$
         4 001510   026000 236003                    LDQ     11264,DU
         4 001511   000000 552140                    STBQ    0,'40'O,PR0

     2832    11718    3   CALL KSR$WR_HLPCG(VECTOR(UPDATE)) WHENALTRETURN DO; END;

  11718  4 001512   000051 235000 5                  LDA     41
         4 001513   006165 236000 1                  LDQ     HDR$
         4 001514   200042 757100                    STAQ    LINK_NR+1,,AUTO
         4 001515   200042 631500                    EPPR1   LINK_NR+1,,AUTO
         4 001516   200044 451500                    STP1    LINK_NR+3,,AUTO
         4 001517   200044 630500                    EPPR0   LINK_NR+3,,AUTO
         4 001520   000017 631400 xsym               EPPR1   B_VECTNIL+15
         4 001521   000000 701000 xent               TSX1    KSR$WR_HLPCG
         4 001522   001524 702000 4                  TSX2    s:11720
         4 001523   001524 710000 4                  TRA     s:11720

     2833    11719
     2834    11720    2              RETURN;

  11720  4 001524   000000 702200 xent               TSX2  ! X66_ARET

  11717  4 001525                       DEF_ERR      null
     2835    11721    2         DEF_ERR:;
     2836    11722    2              CALL KSE$ERRMSG(0);

  11722  4 001525   000062 630400 5                  EPPR0   50
         4 001526   000017 631400 xsym               EPPR1   B_VECTNIL+15
         4 001527   000000 701000 xent               TSX1    KSE$ERRMSG
         4 001530   000000 011000                    NOP     0

     2837    11723    2              CALL KSE$ERRMSG(%E$KS_CANTDEFNODE,VECTOR(KS_SUB_BUF_1));

  11723  4 001531   000064 630400 5                  EPPR0   52
         4 001532   000020 631400 xsym               EPPR1   B_VECTNIL+16
         4 001533   000000 701000 xent               TSX1    KSE$ERRMSG
PL6.E3A0      #003=KSC$DEFINE File=KSC$COMMANDS2.:E05TSI                         WED 07/30/97 01:47 Page:518
         4 001534   000000 011000                    NOP     0
         4 001535   002021 710000 4                  TRA     s:11805

     2838    11724                   /*E* ERROR: KSN-E$KS_CANTDEFNODE-0
     2839    11725                        MESSAGE: Unable to DEFINE node %U1.
     2840    11726                        DESCRIPTION: SEE MESSAGE */
     2841    11727        %EJECT;
PL6.E3A0      #003=KSC$DEFINE File=KSC$COMMANDS2.:E05TSI                         WED 07/30/97 01:47 Page:519
     2842    11728    2            CASE (%KS_LINKS);

     2843    11729    2              KS_FEPBOOT_KEY.NODE = KS_NODE;

  11729  4 001536   000000 236000 xsym               LDQ     KS_NODE
         4 001537   000011 736000                    QLS     9
         4 001540   002437 552010 1                  STBQ    KS_FEPBOOT_KEY,'10'O

     2844    11730    2              READ_NETCON.BUF_ = VECTOR(KS_FEPBOOT);

  11730  4 001541   000030 237000 5                  LDAQ    24
         4 001542   006172 757000 1                  STAQ    READ_NETCON+4

     2845    11731    2              READ_NETCON.KEY_ = VECTOR(KS_FEPBOOT_KEY);

  11731  4 001543   000026 237000 5                  LDAQ    22
         4 001544   006170 757000 1                  STAQ    READ_NETCON+2

     2846    11732    3             CALL M$READ(READ_NETCON) WHENALTRETURN DO;

  11732  4 001545   006166 630400 1                  EPPR0   READ_NETCON
         4 001546   440000 713400                    CLIMB   alt,read
         4 001547   401400 401760                    pmme    nvectors=4
         4 001550   001552 702000 4                  TSX2    s:11733
         4 001551   001557 710000 4                  TRA     s:11736

     2847    11733    3                CALL KSE$ERRMSG (%E$KS_BAD_NODE_TYPE-0);

  11733  4 001552   000067 630400 5                  EPPR0   55
         4 001553   000017 631400 xsym               EPPR1   B_VECTNIL+15
         4 001554   000000 701000 xent               TSX1    KSE$ERRMSG
         4 001555   000000 011000                    NOP     0

     2848    11734    3                RETURN;

  11734  4 001556   000000 702200 xent               TSX2  ! X66_ARET

PL6.E3A0      #003=KSC$DEFINE File=KSC$COMMANDS2.:E05TSI                         WED 07/30/97 01:47 Page:520
     2849    11735    3             END;
     2850    11736    2               LNKS = KS_FEPBOOT.BOOTPARAMS(%GI_BOOT_LINKS);

  11736  4 001557   002431 235000 1                  LDA     KS_FEPBOOT+20
         4 001560   200037 755100                    STA     LNKS,,AUTO

     2851    11737
     2852    11738    2              KS_LINK_KEY.NODE = KS_NODE;

  11738  4 001561   000000 236000 xsym               LDQ     KS_NODE
         4 001562   000011 736000                    QLS     9
         4 001563   002404 552010 1                  STBQ    KS_LINK_KEY,'10'O

     2853    11739    2              READ_NETCON.BUF_ = VECTOR(KS_MSGBUF);

  11739  4 001564   000052 237000 5                  LDAQ    42
         4 001565   006172 757000 1                  STAQ    READ_NETCON+4

     2854    11740    2              READ_NETCON.KEY_ = VECTOR(KS_LINK_KEY);

  11740  4 001566   000054 237000 5                  LDAQ    44
         4 001567   006170 757000 1                  STAQ    READ_NETCON+2

     2855    11741    3              CALL M$READ(READ_NETCON)  WHENALTRETURN DO;

  11741  4 001570   006166 630400 1                  EPPR0   READ_NETCON
         4 001571   440000 713400                    CLIMB   alt,read
         4 001572   401400 401760                    pmme    nvectors=4
         4 001573   001575 702000 4                  TSX2    s:11745
         4 001574   001600 710000 4                  TRA     s:11748

     2856    11742                      /*
     2857    11743                         a link record does not exist for this node
     2858    11744                      */
     2859    11745    3                 KS_LINK = '0'B;

  11745  4 001575   000000 470400 xsym               LDP0    KS_MSGBUF$
PL6.E3A0      #003=KSC$DEFINE File=KSC$COMMANDS2.:E05TSI                         WED 07/30/97 01:47 Page:521
         4 001576   000000 450100                    STZ     0,,PR0
         4 001577   000001 450100                    STZ     1,,PR0

     2860    11746    3                 END;  /* whenaltreturn  */

     2861    11747
     2862    11748    3               DO K = 0 TO OUT$BLK.NSUBLKS - 1;

  11748  4 001600   200032 450100                    STZ     K,,AUTO
         4 001601   001763 710000 4                  TRA     s:11794+3

     2863    11749    3                  OUT$ = OUT$BLK.SUBLK$(K);

  11749  4 001602   200003 470500                    LDP0    @TOP$,,AUTO
         4 001603   000000 471500                    LDP1    0,,PR0
         4 001604   200032 720100                    LXL0    K,,AUTO
         4 001605   100003 236110                    LDQ     3,X0,PR1
         4 001606   200027 756100                    STQ     OUT$,,AUTO

     2864    11750    3                  IF KS_LINK.LINKS# >= LNKS THEN

  11750  4 001607   000000 473400 xsym               LDP3    KS_MSGBUF$
         4 001610   300000 236100                    LDQ     0,,PR3
         4 001611   200037 116100                    CMPQ    LNKS,,AUTO
         4 001612   001641 602000 4                  TNC     s:11763

     2865    11751    4                     DO;

     2866    11752    4                        KS_SUB_BUF_1.COUNT = SIZEC(LNKS);

  11752  4 001613   004000 236003                    LDQ     2048,DU
         4 001614   000000 552040 xsym               STBQ    KS_SUB_BUF_1,'40'O

     2867    11753    4                        CALL BINCHAR (KS_SUB_BUF_1.TEXT,LNKS);

  11753  4 001615   200037 235100                    LDA     LNKS,,AUTO
         4 001616   000044 773000                    LRL     36
PL6.E3A0      #003=KSC$DEFINE File=KSC$COMMANDS2.:E05TSI                         WED 07/30/97 01:47 Page:522
         4 001617   200042 757100                    STAQ    LINK_NR+1,,AUTO
         4 001620   000000 301500                    BTD
         4 001621   200042 000010                    NDSC9   LINK_NR+1,,AUTO          cn=0,s=lsgnf,sf=0,n=8
         4 001622   000000 230037 xsym               NDSC9   KS_SUB_BUF_1             cn=1,s=nosgn,sf=0,n=31

     2868    11754    4                        KS_SUB_BUF_2.COUNT = OUT$->OUT$SYM.COUNT;

  11754  4 001623   200027 471500                    LDP1    OUT$,,AUTO
         4 001624   100004 236100                    LDQ     4,,PR1
         4 001625   000000 552040 xsym               STBQ    KS_SUB_BUF_2,'40'O

     2869    11755    4                        KS_SUB_BUF_2.TEXT = OUT$->OUT$SYM.TEXT;

  11755  4 001626   100004 236100                    LDQ     4,,PR1
         4 001627   000033 772000                    QRL     27
         4 001630   000000 621006                    EAX1    0,QL
         4 001631   040000 100540                    MLR     fill='040'O
         4 001632   100004 200011                    ADSC9   4,,PR1                   cn=1,n=*X1
         4 001633   000000 200037 xsym               ADSC9   KS_SUB_BUF_2             cn=1,n=31

     2870    11756    4                       CALL KSE$ERRMSG(%E$KS_TOOMANYLINKS,VECTOR(KS_SUB_BUF_1),VECTOR(
             11756                                 KS_SUB_BUF_2));

  11756  4 001634   000073 630400 5                  EPPR0   59
         4 001635   000021 631400 xsym               EPPR1   B_VECTNIL+17
         4 001636   000000 701000 xent               TSX1    KSE$ERRMSG
         4 001637   000000 011000                    NOP     0

     2871    11757              /*E* ERROR:    KSN-E$KS_TOOMANYLINKS-0
     2872    11758         MESSAGE: Only %U1 links may be defined for this node. Link .%U2 has not been defin
             11758        ed.
     2873    11759                 MESSAGE1: In order to define more links, set MAXLINKS to a higher value.*/
     2874    11760    4                     END;

  11760  4 001640   001760 710000 4                  TRA     s:11794

     2875    11761    3                  ELSE
PL6.E3A0      #003=KSC$DEFINE File=KSC$COMMANDS2.:E05TSI                         WED 07/30/97 01:47 Page:523
     2876    11762    4                     DO;

     2877    11763    4                        TEMP_LINK = '0'B;

  11763  4 001641   000000 221003                    LDX1    0,DU
         4 001642   002444 741000 1                  STX1    TEMP_LINK

     2878    11764    4                        OFFSET = 4 - OUT$->OUT$SYM.COUNT;

  11764  4 001643   200027 471500                    LDP1    OUT$,,AUTO
         4 001644   100004 236100                    LDQ     4,,PR1
         4 001645   000033 772000                    QRL     27
         4 001646   000027 676000 xsym               ERQ     B_VECTNIL+23
         4 001647   000005 036007                    ADLQ    5,DL
         4 001650   200040 756100                    STQ     OFFSET,,AUTO

     2879    11765    5                        DO J = OFFSET TO 3;

  11765  4 001651   200035 756100                    STQ     J,,AUTO
         4 001652   001673 710000 4                  TRA     s:11768+1

     2880    11766    5                           CALL INDEX (TEMP,SUBSTR(OUT$->OUT$SYM.TEXT,J-OFFSET,1),
             11766                                    HEX_CHARS);

  11766  4 001653   200027 470500                    LDP0    OUT$,,AUTO
         4 001654   000004 236100                    LDQ     4,,PR0
         4 001655   000033 772000                    QRL     27
         4 001656   000000 620006                    EAX0    0,QL
         4 001657   200035 236100                    LDQ     J,,AUTO
         4 001660   200040 136100                    SBLQ    OFFSET,,AUTO
         4 001661   000106 124400                    SCM     mask='000'O
         4 001662   000000 000020 2                  ADSC9   HEX_CHARS                cn=0,n=16
         4 001663   000004 200001                    ADSC9   4,Q,PR0                  cn=1,n=1
         4 001664   200036 000100                    ARG     TEMP,,AUTO

     2881    11767    5                           HEX$(J)->HEX = TEMP;

PL6.E3A0      #003=KSC$DEFINE File=KSC$COMMANDS2.:E05TSI                         WED 07/30/97 01:47 Page:524
  11767  4 001665   200035 721100                    LXL1    J,,AUTO
         4 001666   002440 471411 1                  LDP1    HEX$,X1
         4 001667   003100 061500                    CSR     bolr='003'O
         4 001670   200036 000044                    BDSC    TEMP,,AUTO               by=0,bit=0,n=36
         4 001671   100000 000004                    BDSC    0,,PR1                   by=0,bit=0,n=4

     2882    11768    5                        END;

  11768  4 001672   200035 054100                    AOS     J,,AUTO
         4 001673   200035 235100                    LDA     J,,AUTO
         4 001674   000003 115007                    CMPA    3,DL
         4 001675   001653 604400 4                  TMOZ    s:11766

     2883    11769    5   DUP_LINK_LOOP:       DO J = 0 TO KS_LINK.LINKS# - 1;

  11769  4 001676   200035 450100       DUP_LINK_LO* STZ     J,,AUTO
         4 001677   001710 710000 4                  TRA     s:11772+1

     2884    11770    5                           IF TEMP_LINK = KS_LINK.CHANNEL(J) THEN

  11770  4 001700   200035 235100                    LDA     J,,AUTO
         4 001701   000001 735000                    ALS     1
         4 001702   000000 470400 xsym               LDP0    KS_MSGBUF$
         4 001703   000105 106400                    CMPC    fill='000'O
         4 001704   002444 000002 1                  ADSC9   TEMP_LINK                cn=0,n=2
         4 001705   000001 000002                    ADSC9   1,A,PR0                  cn=0,n=2
         4 001706   001715 600000 4                  TZE     s:11774

     2885    11771    5                              EXIT DUP_LINK_LOOP;
     2886    11772    5                        END;

  11772  4 001707   200035 054100                    AOS     J,,AUTO
         4 001710   000000 470400 xsym               LDP0    KS_MSGBUF$
         4 001711   200035 236100                    LDQ     J,,AUTO
         4 001712   001700 604000 4                  TMI     s:11770
         4 001713   000000 116100                    CMPQ    0,,PR0
         4 001714   001700 602000 4                  TNC     s:11770
PL6.E3A0      #003=KSC$DEFINE File=KSC$COMMANDS2.:E05TSI                         WED 07/30/97 01:47 Page:525

     2887    11773
     2888    11774    4                        IF J = KS_LINK.LINKS# THEN

  11774  4 001715   200035 236100                    LDQ     J,,AUTO
         4 001716   001733 604000 4                  TMI     s:11781
         4 001717   000000 116100                    CMPQ    0,,PR0
         4 001720   001733 601000 4                  TNZ     s:11781

     2889    11775    5                           DO;

     2890    11776    5                              KS_LINK.CHANNEL(KS_LINK.LINKS#) = TEMP_LINK;

  11776  4 001721   000000 235100                    LDA     0,,PR0
         4 001722   000001 735000                    ALS     1
         4 001723   000105 100400                    MLR     fill='000'O
         4 001724   002444 000002 1                  ADSC9   TEMP_LINK                cn=0,n=2
         4 001725   000001 000002                    ADSC9   1,A,PR0                  cn=0,n=2

     2891    11777    5                              KS_LINK.LINKS# = KS_LINK.LINKS# + 1;

  11777  4 001726   000000 470400 xsym               LDP0    KS_MSGBUF$
         4 001727   000000 235100                    LDA     0,,PR0
         4 001730   000001 035007                    ADLA    1,DL
         4 001731   000000 755100                    STA     0,,PR0

     2892    11778    5                           END;

  11778  4 001732   001760 710000 4                  TRA     s:11794

     2893    11779    4                        ELSE
     2894    11780    5                           DO;

     2895    11781    5                              KS_SUB_BUF_1.COUNT = OUT$->OUT$SYM.COUNT;

  11781  4 001733   200027 471500                    LDP1    OUT$,,AUTO
         4 001734   100004 236100                    LDQ     4,,PR1
PL6.E3A0      #003=KSC$DEFINE File=KSC$COMMANDS2.:E05TSI                         WED 07/30/97 01:47 Page:526
         4 001735   000000 552040 xsym               STBQ    KS_SUB_BUF_1,'40'O

     2896    11782    5                              KS_SUB_BUF_1.TEXT = OUT$->OUT$SYM.TEXT;

  11782  4 001736   100004 236100                    LDQ     4,,PR1
         4 001737   000033 772000                    QRL     27
         4 001740   000000 620006                    EAX0    0,QL
         4 001741   040000 100540                    MLR     fill='040'O
         4 001742   100004 200010                    ADSC9   4,,PR1                   cn=1,n=*X0
         4 001743   000000 200037 xsym               ADSC9   KS_SUB_BUF_1             cn=1,n=31

     2897    11783    5                             CALL BINCHAR (LINK_NR,J);

  11783  4 001744   000100 301500                    BTD
         4 001745   200035 000004                    NDSC9   J,,AUTO                  cn=0,s=lsgnf,sf=0,n=4
         4 001746   200041 030001                    NDSC9   LINK_NR,,AUTO            cn=0,s=nosgn,sf=0,n=1

     2898    11784    5                             KS_SUB_BUF_2.TEXT = LINK_NR;

  11784  4 001747   040000 100500                    MLR     fill='040'O
         4 001750   200041 000001                    ADSC9   LINK_NR,,AUTO            cn=0,n=1
         4 001751   000000 200037 xsym               ADSC9   KS_SUB_BUF_2             cn=1,n=31

     2899    11785    5                             KS_SUB_BUF_2.COUNT = SIZEC(LINK_NR);

  11785  4 001752   001000 236003                    LDQ     512,DU
         4 001753   000000 552040 xsym               STBQ    KS_SUB_BUF_2,'40'O

     2900    11786    5                              CALL KSE$ERRMSG(%E$KS_DUPLICATELINKS,

  11786  4 001754   000077 630400 5                  EPPR0   63
         4 001755   000021 631400 xsym               EPPR1   B_VECTNIL+17
         4 001756   000000 701000 xent               TSX1    KSE$ERRMSG
         4 001757   000000 011000                    NOP     0

     2901    11787    5                                              VECTOR(KS_SUB_BUF_1),
     2902    11788    5                                              VECTOR(KS_SUB_BUF_2));
PL6.E3A0      #003=KSC$DEFINE File=KSC$COMMANDS2.:E05TSI                         WED 07/30/97 01:47 Page:527
     2903    11789
     2904    11790                 /*E*  ERROR: KSN-E$KS_DUPLICATELINKS-0
     2905    11791                       MESSAGE:  .%U1 is a duplicate of link # %U2 */
     2906    11792    5                           END;

     2907    11793    4                     END;

     2908    11794    3               END;

  11794  4 001760   200032 235100                    LDA     K,,AUTO
         4 001761   000001 035007                    ADLA    1,DL
         4 001762   200032 755100                    STA     K,,AUTO
         4 001763   200003 470500                    LDP0    @TOP$,,AUTO
         4 001764   000000 471500                    LDP1    0,,PR0
         4 001765   100001 236100                    LDQ     1,,PR1
         4 001766   000022 772000                    QRL     18
         4 001767   200032 116100                    CMPQ    K,,AUTO
         4 001770   001772 600000 4                  TZE     s:11795
         4 001771   001602 603000 4                  TRC     s:11749

     2909    11795    2              WRITE_NETCON.BUF_ = VECTOR(KS_MSGBUF);

  11795  4 001772   000052 237000 5                  LDAQ    42
         4 001773   006210 757000 1                  STAQ    WRITE_NETCON+4

     2910    11796    2              WRITE_NETCON.KEY_ = VECTOR(KS_LINK_KEY);

  11796  4 001774   000054 237000 5                  LDAQ    44
         4 001775   006206 757000 1                  STAQ    WRITE_NETCON+2

     2911    11797    2              IF KS_LINK.LINKS# <= 0 THEN

  11797  4 001776   000000 471400 xsym               LDP1    KS_MSGBUF$
         4 001777   100000 235100                    LDA     0,,PR1
         4 002000   002006 601000 4                  TNZ     s:11800

     2912    11798    2                 WRITE_NETCON.BUF_.BOUND = SIZEC(KS_LINK.LINKS#) - 1;
PL6.E3A0      #003=KSC$DEFINE File=KSC$COMMANDS2.:E05TSI                         WED 07/30/97 01:47 Page:528

  11798  4 002001   006210 236000 1                  LDQ     WRITE_NETCON+4
         4 002002   177777 376007                    ANQ     65535,DL
         4 002003   600000 276007                    ORQ     -65536,DL
         4 002004   006210 756000 1                  STQ     WRITE_NETCON+4
         4 002005   002015 710000 4                  TRA     s:11802

     2913    11799    2              ELSE
     2914    11800    2                 WRITE_NETCON.BUF_.BOUND = SIZEC(KS_LINK.LINKS#) +

  11800  4 002006   100000 236100                    LDQ     0,,PR1
         4 002007   000001 736000                    QLS     1
         4 002010   000003 036007                    ADLQ    3,DL
         4 002011   000020 736000                    QLS     16
         4 002012   006210 676000 1                  ERQ     WRITE_NETCON+4
         4 002013   000034 376000 xsym               ANQ     B_VECTNIL+28
         4 002014   006210 656000 1                  ERSQ    WRITE_NETCON+4

     2915    11801    2                                          (SIZEC(KS_LINK.CHANNEL(0)) * KS_LINK.LINKS#)
             11801                                                    - 1;
     2916    11802    2              CALL M$WRITE (WRITE_NETCON) ALTRET(DEF_ERR);

  11802  4 002015   006204 630400 1                  EPPR0   WRITE_NETCON
         4 002016   440001 713400                    CLIMB   alt,write
         4 002017   401400 401760                    pmme    nvectors=4
         4 002020   001525 702000 4                  TSX2    DEF_ERR

     2917    11803
     2918    11804    2           END;  /* DO CASE */

     2919    11805    1   END KSC$DEFINE;

  11805  4 002021   000000 702200 xent               TSX2  ! X66_ARET
     2920    11806         %EOD;

PL6.E3A0      #003=KSC$DEFINE File=KSC$COMMANDS2.:E05TSI                         WED 07/30/97 01:47 Page:529
--  Include file information  --

   KL_AFCN_C.:E05TOU  is referenced.
   CP_6_SUBS.:E05TOU  is referenced.
   B_ERRORS_C.:E05TOU  is referenced.
   XU_MACRO_C.:E05TOU  is referenced.
   F$DCB.:E05TOU  cannot be made into a system file and is referenced.
   KS_PERR_C.:E05TOU  is referenced.
   KS_DATA_R.:E05TOU  cannot be made into a system file and is referenced.
   KS_SUBS_C.:E05TOU  is referenced.
   KS_MACRO_M.:E05TOU  is referenced.
   GI_BOOT_C.:E05TOU  is referenced.
   KL_CONTROL_C.:E05TOU  is referenced.
   KL_CONFIG_M.:E05TOU  is referenced.
   KL_MACRO_C.:E05TOU  is referenced.
   CP_6.:E05TOU  cannot be made into a system file and is referenced.
   B$JIT_C.:E05TOU  was found in the system file and is never referenced.
   CP_6_C.:E05TOU  was found in the system file and is referenced.
      No diagnostics issued in procedure KSC$DEFINE.
PL6.E3A0      #003=KSC$DEFINE File=KSC$COMMANDS2.:E05TSI                         WED 07/30/97 01:47 Page:530

 **** Variables and constants ****

  ****  Section 001  Data  KSC$DEFINE

  ****  Scalars and arrays  ****
OctLoc.c.b A Datatyp(siz) R M Lvl/name                 OctLoc.c.b A Datatyp(siz) R M Lvl/name

  3413-0-0/w PTR         r     1 DEFAULT$
  3331-0-0/w UBIN        r     1 DEFAULT_BUF(0:49)
  6165-0-0/w PTR         r     1 HDR$                    2440-0-0/w PTR         r     1 HEX$(0:3)
  3414-0-0/w PTR         r     1 HNDLR$
  3415-0-0/c CHAR        r     1 HNDLR_BUF(0:400)
  3326-0-0/w STRC(99)    r     1 KS_DEFAULT_KEY          2405-0-0/w STRC(936)   r     1 KS_FEPBOOT
  2437-0-0/w STRC(27)    r     1 KS_FEPBOOT_KEY          2445-0-0/w STRC(792)   r     1 KS_FEPCTL
  2473-0-0/w STRC(27)    r     1 KS_FEPCTL_KEY           2474-0-0/w STRC(1656)  r     1 KS_FEPHNDLR
  2552-0-0/w STRC(27)    r     1 KS_FEPHNDLR_KEY         2401-0-0/w STRC(99)    r     1 KS_HANDLER_KEY
  2404-0-0/w STRC(27)    r     1 KS_LINK_KEY             6220-0-0/d STRC(432)   r     1 KS_MONINFO
  6234-0-0/d STRC(540)   r     1 KS_MONINFO_V               0-0-0/w STRC(46116) r     1 KS_NETWORK
  3562-0-0/w STRC(18)    r     1 KS_NETWORK_KEY          3322-0-0/w STRC(108)   r     1 KS_NODEINFO
  3325-0-0/w STRC(18)    r     1 KS_NODEINFO_KEY         3564-0-0/w STRC(46116) r     1 KS_RFEP
  3563-0-0/w STRC(18)    r     1 KS_RFEP_KEY             6166-0-0/d STRC(504)   r     1 READ_NETCON
  2444-0-0/b STRC(18)    r     1 TEMP_LINK               6204-0-0/d STRC(432)   r     1 WRITE_NETCON

  ****  Section 002 RoData KSC$DEFINE

  ****  Scalars and arrays  ****
OctLoc.c.b A Datatyp(siz) R M Lvl/name                 OctLoc.c.b A Datatyp(siz) R M Lvl/name

     0-0-0/c CHAR(16)    r     1 HEX_CHARS

  ****  Auto variables  ****

  ****  Scalars and arrays  ****
OctLoc.c.b A Datatyp(siz) R M Lvl/name                 OctLoc.c.b A Datatyp(siz) R M Lvl/name

     3-0-0/w PTR         r     1 @TOP$                     25-0-0/c CHAR(8)     r     1 CONTROL_NODE
    30-0-0/w PTR         r     1 DFLT$                     31-0-0/w PTR         r     1 DFLT_OPT$
PL6.E3A0      #003=KSC$DEFINE File=KSC$COMMANDS2.:E05TSI                         WED 07/30/97 01:47 Page:531
    23-0-0/w UBIN        r     1 FEX                       33-0-0/w UBIN        r     1 HAND#
    22-0-0/w UBIN        r     1 I                         35-0-0/w SBIN        r     1 J
    32-0-0/w UBIN        r     1 K
     7-0-0/c CHAR(4)     r     1 LINK_LIST(0:10)
    41-0-0/c CHAR        r     1 LINK_NR                   37-0-0/w UBIN        r     1 LNKS
     4-0-0/c CHAR(8)     r     1 NODENAME                  24-0-0/w UBIN        r     1 NODETYPE
     6-0-0/w SBIN        r     1 NRLINKS                   40-0-0/w UBIN        r     1 OFFSET
    27-0-0/w PTR         r     1 OUT$                      36-0-0/w UBIN        r     1 TEMP
    *0-0-0/w PTR         r     1 TOP$

  ****  SYMREF variables  ****

  ****  Scalars and arrays  ****
OctLoc.c.b A Datatyp(siz) R M Lvl/name                 OctLoc.c.b A Datatyp(siz) R M Lvl/name

     0-0-0/w PTR         r     1 B$TCB$
     0-0-0/w STRC(180)   r     1 KS_HAND_INFO(0:0)
     0-0-0/c CHAR(400)   r     1 KS_MSGBUF                  0-0-0/w PTR         r     1 KS_MSGBUF$
     0-0-0/w SBIN        r     1 KS_NODE                    0-0-0/w STRC(288)   r     1 KS_SUB_BUF_1
     0-0-0/w STRC(288)   r     1 KS_SUB_BUF_2               0-0-0/w PTR         r     1 KS_TBL(0:0)

  ****  BASED and DCB variables  ****

  ****  Scalars and arrays  ****
OctLoc.c.b A Datatyp(siz) R M Lvl/name                 OctLoc.c.b A Datatyp(siz) R M Lvl/name

     0-0-0/w STRC(2448)  r     1 B$ALT
     0-0-0/h UBIN(18)    r     1 B$PARAMI(0:0)
     0-0-0/w STRC(144)   r     1 B$TCB                      0-0-0/d ASTR(3528)  r     1 F$DCB
     0-0-0/b UBIN(4)     r     1 HEX
     0-0-0/w STRC(144)   r     1 KS$PARAM(0:0)
     0-0-0/w ASTR(387)   r     1 KS_DEFAULT                 0-0-0/w STRC(1062)  r     1 KS_HANDLER
     0-0-0/w STRC(54)    r     1 KS_LINK                    0-0-0N  NULL        r     1 M$NETCON
     0-0-0/w STRC(144)   r     1 OUT$BLK                    0-0-0/w ASTR(153)   r     1 OUT$SYM
     0-0-0/w STRC(306)   r     1 UPDATE

PL6.E3A0      #003=KSC$DEFINE File=KSC$COMMANDS2.:E05TSI                         WED 07/30/97 01:47 Page:532

   Procedure KSC$DEFINE requires 1042 words for executable code.
   Procedure KSC$DEFINE requires 38 words of local(AUTO) storage.
PL6.E3A0      #003=KSC$DEFINE File=KSC$COMMANDS2.:E05TSI                         WED 07/30/97 01:47 Page:533
          *** CROSS REFERENCE LISTING ***
**     DENOTES     IDENTIFIER DEFINITION
<<                 IDENTIFIER'S VALUE SET
>>                 IDENTIFIER'S VALUE USED
<>                 IDENTIFIER SET AND/OR USED
--                 IDENTIFIER REFERENCED
PL6.E3A0      #003=KSC$DEFINE File=KSC$COMMANDS2.:E05TSI                         WED 07/30/97 01:47 Page:534
          MINI XREF LISTING

B$ALT.CODE
     10956**DCL     10956--REDEF   10957--REDEF   10957--REDEF
B$ALT.ERR.CODE
     10958**DCL     11453>>IF
B$ALT.ERR.ERR#
     10958**DCL     10958--REDEF
B$ALT.EVID
     10957**DCL     10957--REDEF   10957--REDEF
B$PARAMI
     10721**DCL     11648<<ASSIGN
B$TCB.ALT$
     10952**DCL     11453>>IF
B$TCB$
     10238**DCL     11453>>IF
CHECK_DUP
     11687**LABEL   11689--EXIT
CONTROL_NODE
     11222**DCL     11404<<ASSIGN  11417<<ASSIGN  11437<<ASSIGN  11481>>IF      11481>>IF      11519>>ASSIGN
DEFAULT$
     10643**DCL     10811--IMP-PTR 11612>>CALL    11612>>CALL    11613>>CALL    11613>>CALL
DEFAULT_BUF
     10642**DCL     10643--DCLINIT
DEF_ERR
     11717**LABEL   11403--CALLALT 11454--GOTO    11524--CALLALT 11529--CALLALT 11564--CALLALT 11574--CALLALT
     11607--CALLALT 11664--CALLALT 11704--CALLALT 11714--CALLALT 11802--CALLALT
DFLT$
     11224**DCL     11627<<ASSIGN  11634>>ASSIGN  11643>>ASSIGN
DFLT_OPT$
     11225**DCL     11643<<ASSIGN  11648>>ASSIGN
DUP_LINK_LOOP
     11769**LABEL   11771--EXIT
F$DCB.ACTPOS
PL6.E3A0      #003=KSC$DEFINE File=KSC$COMMANDS2.:E05TSI                         WED 07/30/97 01:47 Page:535
      5244**DCL      5244--REDEF
F$DCB.ARS
      5219**DCL      5219--REDEF
F$DCB.ATTR
      5237**DCL      5238--REDEF
F$DCB.BORROW
      5252**DCL      5252--REDEF    5252--REDEF    5252--REDEF
F$DCB.DCBNAME.L
      5266**DCL      5266--IMP-SIZ
F$DCB.EOMCHAR
      5223**DCL      5223--REDEF
F$DCB.FLDID
      5247**DCL      5247--REDEF
F$DCB.FORM$
      5241**DCL      5241--REDEF
F$DCB.FSECT
      5257**DCL      5257--REDEF
F$DCB.FSN
      5234**DCL      5234--REDEF    5234--REDEF    5235--REDEF
F$DCB.HEADER$
      5240**DCL      5240--REDEF
F$DCB.IXTNSIZE
      5238**DCL      5238--REDEF
F$DCB.LASTSTA$
      5228**DCL      5228--REDEF
F$DCB.LVL
      5253**DCL      5253--REDEF
F$DCB.NAME.C
      5228**DCL      5228--REDEF
F$DCB.NOEOF
      5249**DCL      5249--REDEF
F$DCB.NRECS
      5239**DCL      5239--REDEF
F$DCB.NRECX
      5258**DCL      5258--REDEF
F$DCB.OHDR
PL6.E3A0      #003=KSC$DEFINE File=KSC$COMMANDS2.:E05TSI                         WED 07/30/97 01:47 Page:536
      5250**DCL      5250--REDEF
F$DCB.ORG
      5233**DCL      5233--REDEF
F$DCB.PRECNO
      5256**DCL      5256--REDEF
F$DCB.RCSZ
      5261**DCL      5261--REDEF
F$DCB.RES
      5229**DCL      5229--REDEF
F$DCB.SETX
      5241**DCL      5241--REDEF
F$DCB.TAB$
      5240**DCL      5241--REDEF
F$DCB.TDA
      5255**DCL      5255--REDEF
F$DCB.WSN
      5230**DCL      5230--REDEF
FEX
     11220**DCL     11399<<CALLBLT 11400>>CALLBLT 11438>>IF      11461>>IF      11503>>IF      11505>>DOINDEX
     11511>>ASSIGN  11512>>ASSIGN  11514>>ASSIGN  11515>>ASSIGN  11517>>ASSIGN  11518>>ASSIGN  11519>>ASSIGN
     11531>>ASSIGN  11532>>ASSIGN  11533>>ASSIGN  11534>>ASSIGN  11535>>ASSIGN  11698>>ASSIGN  11710>>ASSIGN
HAND#
     11227**DCL     11620<<DOINDEX 11621>>IF      11625>>ASSIGN  11627>>ASSIGN  11629>>IF      11630>>ASSIGN
     11637>>IF      11639>>ASSIGN  11642>>DOINDEX 11645>>ASSIGN
HDR$
     10693**DCL     11125--IMP-PTR 11717>>ASSIGN  11718>>CALL
HEX
     11108**DCL     11676<<ASSIGN  11767<<ASSIGN
HEX$
     10429**DCL     11676>>ASSIGN  11767>>ASSIGN
HEX_CHARS
     10321**DCL     11675>>CALLBLT 11766>>CALLBLT
HNDLR$
     10644**DCL     11060--IMP-PTR 11614>>ASSIGN  11616>>ASSIGN  11617>>CALLBLT 11618>>CALLBLT 11619>>ASSIGN
     11625>>ASSIGN  11630>>ASSIGN  11631>>ASSIGN  11633>>DOINDEX 11634>>ASSIGN  11639>>ASSIGN  11640>>ASSIGN
     11644>>ASSIGN  11644>>ASSIGN  11645>>ASSIGN  11647>>DOINDEX 11651>>ASSIGN  11656>>ASSIGN  11657>>IF
PL6.E3A0      #003=KSC$DEFINE File=KSC$COMMANDS2.:E05TSI                         WED 07/30/97 01:47 Page:537
     11659>>ASSIGN  11663>>ASSIGN
HNDLR_BUF
     10645**DCL     10644--DCLINIT
I
     11219**DCL     11407<<DOINDEX 11408>>DOCASE  11411>>ASSIGN  11411>>ASSIGN  11414>>ASSIGN  11417>>ASSIGN
     11417>>ASSIGN  11419>>ASSIGN  11421>>ASSIGN  11421>>ASSIGN  11472<<DOINDEX 11473>>IF      11476>>ASSIGN
     11477>>ASSIGN  11481>>IF      11481>>IF      11481>>IF      11491>>IF      11494>>ASSIGN  11495>>ASSIGN
     11505<<DOINDEX 11506>>ASSIGN  11507>>ASSIGN  11508>>ASSIGN  11509>>ASSIGN  11545<<DOINDEX 11546>>ASSIGN
     11546>>ASSIGN  11567<<DOINDEX 11568>>ASSIGN  11568>>ASSIGN  11647<<DOINDEX 11648>>ASSIGN  11648>>ASSIGN
     11669<<DOINDEX 11673>>IF      11675>>CALLBLT 11680>>IF
J
     11229**DCL     11420<<DOINDEX 11421>>ASSIGN  11421>>ASSIGN  11421>>ASSIGN  11610<<DOINDEX 11611>>ASSIGN
     11615>>ASSIGN  11616>>ASSIGN  11619>>ASSIGN  11672<<DOINDEX 11673>>IF      11675>>CALLBLT 11687<<DOINDEX
     11688>>IF      11691>>IF      11765<<DOINDEX 11766>>CALLBLT 11767>>ASSIGN  11769<<DOINDEX 11770>>IF
     11774>>IF      11783>>CALLBLT
K
     11226**DCL     11633<<DOINDEX 11634>>ASSIGN  11634>>ASSIGN  11642<<DOINDEX 11643>>ASSIGN  11644>>ASSIGN
     11645>>ASSIGN  11645>>ASSIGN  11647>>DOINDEX 11651>>ASSIGN  11670<<ASSIGN  11676>>ASSIGN  11677<<ASSIGN
     11677>>ASSIGN  11748<<DOINDEX 11749>>ASSIGN
KS$PARAM.ARRAY_SZ
     10764**DCL     11645>>ASSIGN
KS$PARAM.DEFAULT
     10788**DCL     11546>>ASSIGN  11568>>ASSIGN  11634>>ASSIGN  11648>>ASSIGN
KS$PARAM.SPCL_TBL$
     10781**DCL     11643>>ASSIGN
KSE$ERRMSG
     10168**DCL-ENT 11431--CALL    11443--CALL    11465--CALL    11478--CALL    11486--CALL    11496--CALL
     11722--CALL    11723--CALL    11733--CALL    11756--CALL    11786--CALL
KSR$WR_HLPCG
     10169**DCL-ENT 11718--CALL
KSU$INIT_DEFCNFG
     10170**DCL-ENT 11612--CALL
KSU$WRITE_NETCON
     10171**DCL-ENT 11613--CALL
KS_DEFAULT
     10811**DCL     11612<>CALL    11613--CALL
PL6.E3A0      #003=KSC$DEFINE File=KSC$COMMANDS2.:E05TSI                         WED 07/30/97 01:47 Page:538
KS_DEFAULT.LGN.LGNSIZE
     10948**DCL     10949--IMP-SIZ 11612>>CALL    11613>>CALL
KS_DEFAULT_KEY
     10636**DCL     11613--CALL
KS_DEFAULT_KEY.HNDLR
     10640**DCL     11611<<ASSIGN
KS_DEFAULT_KEY.NODE
     10639**DCL     11535<<ASSIGN
KS_FEPBOOT
     10399**DCL     11563--ASSIGN  11730--ASSIGN
KS_FEPBOOT.BOOTFID
     10400**DCL     11543<<ASSIGN
KS_FEPBOOT.BOOTPARAMS
     10406**DCL     11544<<ASSIGN  11546<<ASSIGN  11548<<ASSIGN  11549<<ASSIGN  11550<<ASSIGN  11551<<ASSIGN
     11552<<ASSIGN  11553<<ASSIGN  11554<<ASSIGN  11555<<ASSIGN  11556<<ASSIGN  11557<<ASSIGN  11558<<ASSIGN
     11559<<ASSIGN  11560<<ASSIGN  11561<<ASSIGN  11736>>ASSIGN
KS_FEPBOOT_KEY
     10424**DCL     11562--ASSIGN  11731--ASSIGN
KS_FEPBOOT_KEY.NODE
     10427**DCL     11531<<ASSIGN  11729<<ASSIGN
KS_FEPCTL
     10454**DCL     11573--ASSIGN
KS_FEPCTL.NPARAMS
     10455**DCL     11570<<ASSIGN
KS_FEPCTL.PARAMS
     10457**DCL     11568<<ASSIGN
KS_FEPCTL_KEY
     10474**DCL     11572--ASSIGN
KS_FEPCTL_KEY.NODE
     10477**DCL     11532<<ASSIGN
KS_FEPHNDLR
     10492**DCL     11600--ASSIGN
KS_FEPHNDLR.BOOTIME
     10499**DCL     11584<<ASSIGN  11585<<ASSIGN  11586<<ASSIGN  11595<<ASSIGN  11596<<ASSIGN  11597<<ASSIGN
KS_FEPHNDLR.DEFLIBACCT
     10496**DCL     11583<<ASSIGN  11594<<ASSIGN  11605--ASSIGN
PL6.E3A0      #003=KSC$DEFINE File=KSC$COMMANDS2.:E05TSI                         WED 07/30/97 01:47 Page:539
KS_FEPHNDLR.HANDLER
     10503**DCL     11580<<ASSIGN  11581<<ASSIGN  11582<<ASSIGN  11591<<ASSIGN  11592<<ASSIGN  11593<<ASSIGN
     11605--ASSIGN  11611>>ASSIGN  11615>>ASSIGN  11616>>ASSIGN  11619>>ASSIGN
KS_FEPHNDLR.NHANDLERS
     10493**DCL     11579<<ASSIGN  11590<<ASSIGN  11605--ASSIGN  11605>>ASSIGN  11610>>DOINDEX
KS_FEPHNDLR_KEY
     10522**DCL     11599--ASSIGN
KS_FEPHNDLR_KEY.NODE
     10525**DCL     11533<<ASSIGN
KS_HANDLER
     11060**DCL     11614<<ASSIGN  11640--ASSIGN  11640--ASSIGN  11644--ASSIGN  11656--ASSIGN  11659--ASSIGN
     11660--ASSIGN  11663--ASSIGN
KS_HANDLER.HNDLRFID
     11061**DCL     11616<<ASSIGN  11617>>CALLBLT 11618<<CALLBLT
KS_HANDLER.HNDLRNAME
     11064**DCL     11619<<ASSIGN
KS_HANDLER.IPARAM.ARRAY_SZ
     11093**DCL     11645<<ASSIGN  11647>>DOINDEX 11651>>ASSIGN
KS_HANDLER.IPARAM.OFFSET
     11102**DCL     11644<<ASSIGN
KS_HANDLER.NPARAMI
     11082**DCL     11639<<ASSIGN  11657>>IF
KS_HANDLER.NPARAMS
     11077**DCL     11630<<ASSIGN  11631<<ASSIGN  11633>>DOINDEX
KS_HANDLER.PARAMS
     11087**DCL     11634<<ASSIGN
KS_HANDLER.TYPE
     11068**DCL     11625<<ASSIGN
KS_HANDLER_KEY
     10362**DCL     11655--ASSIGN
KS_HANDLER_KEY.HNDLR
     10366**DCL     11615<<ASSIGN  11621>>IF
KS_HANDLER_KEY.NODE
     10365**DCL     11534<<ASSIGN
KS_HAND_INFO.PARAMS$
     10232**DCL     11627>>ASSIGN  11645>>ASSIGN
PL6.E3A0      #003=KSC$DEFINE File=KSC$COMMANDS2.:E05TSI                         WED 07/30/97 01:47 Page:540
KS_HAND_INFO.SZ
     10227**DCL     11629>>IF      11630>>ASSIGN  11637>>IF      11639>>ASSIGN  11642>>DOINDEX
KS_HAND_INFO.TEXT
     10217**DCL     11621>>IF
KS_HAND_INFO.TYPE
     10221**DCL     11625>>ASSIGN
KS_LINK
      5148**DCL     11745<<ASSIGN
KS_LINK.CHANNEL
      5149**DCL     11682<<ASSIGN  11688>>IF      11693<<ASSIGN  11701--ASSIGN  11770>>IF      11776<<ASSIGN
     11800--ASSIGN
KS_LINK.LINKS#
      5148**DCL     11668<<ASSIGN  11683<<ASSIGN  11683>>ASSIGN  11687>>DOINDEX 11691>>IF      11693>>ASSIGN
     11694<<ASSIGN  11694>>ASSIGN  11701>>ASSIGN  11701--ASSIGN  11750>>IF      11769>>DOINDEX 11774>>IF
     11776>>ASSIGN  11777<<ASSIGN  11777>>ASSIGN  11797>>IF      11798--ASSIGN  11800>>ASSIGN  11800--ASSIGN
KS_LINK_KEY
     10381**DCL     11700--ASSIGN  11740--ASSIGN  11796--ASSIGN
KS_LINK_KEY.NODE
     10384**DCL     11698<<ASSIGN  11738<<ASSIGN
KS_MONINFO
     11346**DCL     11403<>CALL
KS_MONINFO_V
     11361**DCL     11346--DCLINIT
KS_MONINFO_V.NODE_NAME
     11364**DCL     11404>>ASSIGN
KS_MONINFO_V.NUM_NODES
     11365**DCL     11438>>IF      11440>>CALLBLT 11471>>ASSIGN
KS_MSGBUF
      5148**DCL     10693--DCLINIT 11699--ASSIGN  11739--ASSIGN  11795--ASSIGN
KS_MSGBUF$
      5148**DCL      5148--IMP-PTR 11668>>ASSIGN  11682>>ASSIGN  11683>>ASSIGN  11683>>ASSIGN  11687>>DOINDEX
     11688>>IF      11691>>IF      11693>>ASSIGN  11693>>ASSIGN  11694>>ASSIGN  11694>>ASSIGN  11701>>ASSIGN
     11745>>ASSIGN  11750>>IF      11769>>DOINDEX 11770>>IF      11774>>IF      11776>>ASSIGN  11776>>ASSIGN
     11777>>ASSIGN  11777>>ASSIGN  11797>>IF      11800>>ASSIGN
KS_MYSTATION
      5144**DCL      5144--REDEF
PL6.E3A0      #003=KSC$DEFINE File=KSC$COMMANDS2.:E05TSI                         WED 07/30/97 01:47 Page:541
KS_NETWORK
     10280**DCL     11451--ASSIGN  11459>>ASSIGN  11521--ASSIGN  11522--ASSIGN
KS_NETWORK.NODE
     10283**DCL     11522--ASSIGN  11522--ASSIGN
KS_NETWORK.NODE.CONTROL_NODE
     10290**DCL     11491>>IF      11519<<ASSIGN
KS_NETWORK.NODE.NODE
     10289**DCL     11461>>IF      11473>>IF      11476--ASSIGN  11477>>ASSIGN  11481>>IF      11494--ASSIGN
     11495>>ASSIGN  11507<<ASSIGN  11518<<ASSIGN
KS_NETWORK.NODE.TYPE
     10286**DCL     11481>>IF      11481>>IF      11506<<ASSIGN  11514<<ASSIGN  11517<<ASSIGN
KS_NETWORK.NODE#
     10281**DCL     11471<<ASSIGN  11472>>DOINDEX 11503>>IF      11505>>DOINDEX 11511<<ASSIGN  11522>>ASSIGN
KS_NETWORK_KEY
     10659**DCL     11450--ASSIGN  11520--ASSIGN
KS_NODE
      5145**DCL     11729>>ASSIGN  11738>>ASSIGN
KS_NODEINFO
     10602**DCL     11712--ASSIGN
KS_NODEINFO.NODE#
     10603**DCL     11710<<ASSIGN
KS_NODEINFO.NODENAME
     10604**DCL     11711<<ASSIGN
KS_NODEINFO_KEY
     10619**DCL     11713--ASSIGN
KS_RFEP
     10679**DCL     11457--ASSIGN  11459<<ASSIGN  11526--ASSIGN  11527--ASSIGN
KS_RFEP.NODE
     10682**DCL     11527--ASSIGN  11527--ASSIGN
KS_RFEP.NODE.NODE
     10688**DCL     11509<<ASSIGN
KS_RFEP.NODE.TYPE
     10685**DCL     11508<<ASSIGN  11515<<ASSIGN
KS_RFEP.NODE#
     10680**DCL     11512<<ASSIGN  11527>>ASSIGN
KS_RFEP_KEY
PL6.E3A0      #003=KSC$DEFINE File=KSC$COMMANDS2.:E05TSI                         WED 07/30/97 01:47 Page:542
     10663**DCL     11456--ASSIGN  11525--ASSIGN
KS_SUB_BUF_1
      5149**DCL     11431--CALL    11443--CALL    11465--CALL    11478--CALL    11496--CALL    11723--CALL
     11756--CALL    11786--CALL
KS_SUB_BUF_1.COUNT
      5149**DCL     11428<<ASSIGN  11442<<ASSIGN  11463<<ASSIGN  11476<<ASSIGN  11494<<ASSIGN  11752<<ASSIGN
     11781<<ASSIGN
KS_SUB_BUF_1.TEXT
      5149**DCL     11427<<ASSIGN  11440<<CALLBLT 11441<<ASSIGN  11441>>ASSIGN  11464<<ASSIGN  11477<<ASSIGN
     11495<<ASSIGN  11753<<CALLBLT 11782<<ASSIGN
KS_SUB_BUF_2
      5149**DCL     11756--CALL    11786--CALL
KS_SUB_BUF_2.COUNT
      5150**DCL     11754<<ASSIGN  11785<<ASSIGN
KS_SUB_BUF_2.TEXT
      5150**DCL     11755<<ASSIGN  11784<<ASSIGN
KS_TBL
     10239**DCL     11546>>ASSIGN  11568>>ASSIGN
LINK_LIST
     11218**DCL     11421<<ASSIGN  11673>>IF      11675>>CALLBLT
LINK_NR
     11233**DCL     11783<<CALLBLT 11784>>ASSIGN  11785--ASSIGN
LNKS
     11231**DCL     11736<<ASSIGN  11750>>IF      11752--ASSIGN  11753>>CALLBLT
M$MONINFO
        87**DCL-ENT 11403--CALL
M$READ
        20**DCL-ENT 11452--CALL    11458--CALL    11732--CALL    11741--CALL
M$WRITE
        20**DCL-ENT 11524--CALL    11529--CALL    11564--CALL    11574--CALL    11607--CALL    11664--CALL
     11704--CALL    11714--CALL    11802--CALL
NODENAME
     11216**DCL     11400<<CALLBLT 11401<<ASSIGN  11411<<ASSIGN  11427>>ASSIGN  11428--ASSIGN  11473>>IF
     11491>>IF      11518>>ASSIGN  11711>>ASSIGN
NODETYPE
     11221**DCL     11402<<ASSIGN  11414<<ASSIGN  11429>>IF      11436>>IF      11436>>IF      11491>>IF
PL6.E3A0      #003=KSC$DEFINE File=KSC$COMMANDS2.:E05TSI                         WED 07/30/97 01:47 Page:543
     11491>>IF      11514>>ASSIGN  11515>>ASSIGN  11516>>IF      11539>>DOCASE  11577>>IF
NRLINKS
     11217**DCL     11405<<ASSIGN  11419<<ASSIGN  11420>>DOINDEX 11429>>IF      11669>>DOINDEX
OFFSET
     11232**DCL     11764<<ASSIGN  11765>>DOINDEX 11766>>CALLBLT
OUT$
     11223**DCL     11640<<ASSIGN  11644>>ASSIGN  11648>>ASSIGN  11651<<ASSIGN  11651>>ASSIGN  11659<<ASSIGN
     11660<<ASSIGN  11660>>ASSIGN  11663>>ASSIGN  11749<<ASSIGN  11754>>ASSIGN  11755>>ASSIGN  11755>>ASSIGN
     11764>>ASSIGN  11766>>CALLBLT 11766>>CALLBLT 11781>>ASSIGN  11782>>ASSIGN  11782>>ASSIGN
OUT$BLK.CODE
     10976**DCL     11397>>DOCASE  11408>>DOCASE  11414>>ASSIGN
OUT$BLK.NSUBLKS
     10980**DCL     11407>>DOINDEX 11419>>ASSIGN  11748>>DOINDEX
OUT$BLK.SUBLK$
     11001**DCL     11399>>CALLBLT 11399>>CALLBLT 11408>>DOCASE  11411>>ASSIGN  11411>>ASSIGN  11411>>ASSIGN
     11411>>ASSIGN  11414>>ASSIGN  11414>>ASSIGN  11417>>ASSIGN  11417>>ASSIGN  11417>>ASSIGN  11417>>ASSIGN
     11419>>ASSIGN  11421>>ASSIGN  11421>>ASSIGN  11421>>ASSIGN  11421>>ASSIGN  11463>>ASSIGN  11463>>ASSIGN
     11464>>ASSIGN  11464>>ASSIGN  11749>>ASSIGN
OUT$SYM.COUNT
     11037**DCL     11040--IMP-SIZ 11399>>CALLBLT 11411>>ASSIGN  11417>>ASSIGN  11421>>ASSIGN  11463>>ASSIGN
     11464>>ASSIGN  11754>>ASSIGN  11755>>ASSIGN  11764>>ASSIGN  11766>>CALLBLT 11781>>ASSIGN  11782>>ASSIGN
OUT$SYM.TEXT
     11040**DCL     11399>>CALLBLT 11411>>ASSIGN  11417>>ASSIGN  11421>>ASSIGN  11463--ASSIGN  11464>>ASSIGN
     11755>>ASSIGN  11766>>CALLBLT 11782>>ASSIGN
READ_NETCON
     11280**DCL     11452<>CALL    11458<>CALL    11732<>CALL    11741<>CALL
READ_NETCON.BUF_
     11282**DCL     11451<<ASSIGN  11457<<ASSIGN  11730<<ASSIGN  11739<<ASSIGN
READ_NETCON.KEY_
     11280**DCL     11450<<ASSIGN  11456<<ASSIGN  11731<<ASSIGN  11740<<ASSIGN
READ_NETCON.STATION_
     11283**DCL     11284--REDEF
READ_NETCON.V
     11284**DCL     11280--DCLINIT
READ_NETCON.V.DVBYTE.REREAD#
     11295**DCL     11295--REDEF
PL6.E3A0      #003=KSC$DEFINE File=KSC$COMMANDS2.:E05TSI                         WED 07/30/97 01:47 Page:544
READ_NETCON.V.INDX#
     11293**DCL     11293--REDEF
TEMP
     11230**DCL     11617<<CALLBLT 11618>>CALLBLT 11675<<CALLBLT 11676>>ASSIGN  11766<<CALLBLT 11767>>ASSIGN
TEMP_LINK
     10434**DCL     11671<<ASSIGN  11682>>ASSIGN  11688>>IF      11693>>ASSIGN  11763<<ASSIGN  11770>>IF
     11776>>ASSIGN
TEMP_LINK.HEX0
     10436**DCL     10430--DCLINIT
TEMP_LINK.HEX1
     10437**DCL     10431--DCLINIT
TEMP_LINK.HEX2
     10439**DCL     10432--DCLINIT
TEMP_LINK.HEX3
     10440**DCL     10433--DCLINIT
TOP$
         8**DCL         6--PROC    10968--IMP-PTR 11397>>DOCASE  11399>>CALLBLT 11399>>CALLBLT 11407>>DOINDEX
     11408>>DOCASE  11411>>ASSIGN  11411>>ASSIGN  11414>>ASSIGN  11417>>ASSIGN  11417>>ASSIGN  11419>>ASSIGN
     11421>>ASSIGN  11421>>ASSIGN  11463>>ASSIGN  11463>>ASSIGN  11464>>ASSIGN  11464>>ASSIGN  11748>>DOINDEX
     11749>>ASSIGN
UPDATE
     11125**DCL     11718--CALL
UPDATE.CODE
     11130**DCL     11717<<ASSIGN
WRITE_NETCON
     11320**DCL     11524<>CALL    11529<>CALL    11564<>CALL    11574<>CALL    11607<>CALL    11664<>CALL
     11704<>CALL    11714<>CALL    11802<>CALL
WRITE_NETCON.BUF_
     11320**DCL     11521<<ASSIGN  11526<<ASSIGN  11563<<ASSIGN  11573<<ASSIGN  11600<<ASSIGN  11656<<ASSIGN
     11699<<ASSIGN  11712<<ASSIGN  11795<<ASSIGN
WRITE_NETCON.BUF_.BOUND
     11320**DCL     11522<<ASSIGN  11527<<ASSIGN  11605<<ASSIGN  11663<<ASSIGN  11701<<ASSIGN  11798<<ASSIGN
     11800<<ASSIGN
WRITE_NETCON.KEY_
     11320**DCL     11520<<ASSIGN  11525<<ASSIGN  11562<<ASSIGN  11572<<ASSIGN  11599<<ASSIGN  11655<<ASSIGN
     11700<<ASSIGN  11713<<ASSIGN  11796<<ASSIGN
PL6.E3A0      #003=KSC$DEFINE File=KSC$COMMANDS2.:E05TSI                         WED 07/30/97 01:47 Page:545
WRITE_NETCON.STATION_
     11322**DCL     11322--REDEF
WRITE_NETCON.V
     11323**DCL     11320--DCLINIT
WRITE_NETCON.V.DVBYTE.VFC#
     11329**DCL     11329--REDEF

