PL6.E3A0      #002=KSC$DELETE File=KSC$COMMANDS2.:E05TSI                         WED 07/30/97 01:46 Page:370
     2006        1        /*T***********************************************************/
     2007        2        /*T*                                                         */
     2008        3        /*T* Copyright (c) Bull HN Information Systems Inc., 1997    */
     2009        4        /*T*                                                         */
     2010        5        /*T***********************************************************/
     2011        6        KSC$DELETE: PROC(TOP$) ALTRET;
     2012        7        /**/
     2013        8    1   DCL TOP$ PTR;
     2014        9        /**/
     2015       10        %INCLUDE CP_6;
     2016       91        %INCLUDE KL_MACRO_C;
     2017     3443        %INCLUDE KL_CONFIG_M;
     2018     4205        %INCLUDE KS_MACRO_M;
     2019     4402        %INCLUDE KS_SUBS_C;
     2020     4645        %INCLUDE KS_DATA_R;
     2021     4660        %INCLUDE KS_PERR_C;
     2022     4727        %INCLUDE XU_MACRO_C;
     2023     7833        %INCLUDE B_ERRORS_C;
     2024     8960        %INCLUDE F$DCB;
     2025     9009        %INCLUDE            KL_AFCN_C;
     2026     9110        /**/
     2027     9111        %KS$BOX(TITLE="entry defs");

              9129    1   /***************************************************************************
              9130    1    *                                                                         *
              9131    1    *                                 entry defs                              *
              9132    1    *                                                                         *
              9133    1    ***************************************************************************/

     2028     9138    1   DCL KSE$ERRMSG ENTRY(4);
     2029     9139    1   DCL                 KSR$WR_HLPCG ENTRY(1) ALTRET;
     2030     9140    1   DCL KSU$READ_NETCON ENTRY(2) ALTRET;
     2031     9141    1   DCL KSU$BLD_TERMID  ENTRY(3) ALTRET;
     2032     9142    1   DCL KSU$CHK_TRM_RNG ENTRY(2) ALTRET;
     2033     9143        %KS$BOX(TITLE="symref variables");

              9161    1   /***************************************************************************
PL6.E3A0      #002=KSC$DELETE File=KSC$COMMANDS2.:E05TSI                         WED 07/30/97 01:46 Page:371
              9162    1    *                                                                         *
              9163    1    *                              symref variables                           *
              9164    1    *                                                                         *
              9165    1    ***************************************************************************/

     2034     9170    1   DCL B$TCB$ PTR SYMREF;
     2035     9171        %KS$BOX(TITLE="symdef variables");

              9189    1   /***************************************************************************
              9190    1    *                                                                         *
              9191    1    *                              symdef variables                           *
              9192    1    *                                                                         *
              9193    1    ***************************************************************************/

     2036     9198        %KS$BOX(TITLE="constant variables");

              9216    1   /***************************************************************************
              9217    1    *                                                                         *
              9218    1    *                             constant variables                          *
              9219    1    *                                                                         *
              9220    1    ***************************************************************************/

     2037     9225    1   DCL HEX_CHARS CHAR(0) CONSTANT INIT('0123456789ABCDEF');
     2038     9226        %KS$BOX(TITLE="static variables");

              9244    1   /***************************************************************************
              9245    1    *                                                                         *
              9246    1    *                              static variables                           *
              9247    1    *                                                                         *
              9248    1    ***************************************************************************/

     2039     9253    1   DCL 1 PROMPT SYMREF,
     2040     9254    1        2 NODENAME CHAR(8),
     2041     9255    1        2 STAR CHAR(2);
     2042     9256        %KL$HNDLR_KEY(NAME = KS_HNDLR_KEY,STCLASS=STATIC);
     2043     9275        %KL$HNDLR_KEY(NAME = KS_HNDLR_LKEY,STCLASS=STATIC);
     2044     9294        %KL$DEFAULT_KEY(NAME = KS_DFLT_KEY,STCLASS=STATIC);
PL6.E3A0      #002=KSC$DELETE File=KSC$COMMANDS2.:E05TSI                         WED 07/30/97 01:46 Page:372
     2045     9313        %KL$DEFAULT_KEY(NAME = KS_DFLT_LKEY,STCLASS=STATIC);
     2046     9332        %KL$CONFIG_KEY(NAME = KS_CONFIG_LKEY,STCLASS=STATIC);
     2047     9379        %KL$FEPBOOT_KEY(NAME = KS_FEPBOOT_KEY,STCLASS=STATIC);
     2048     9397        %KL$FEPHNDLR_KEY(NAME = KS_FEPHNDLR_KEY,STCLASS=STATIC);
     2049     9415        %KL$FEPCTL_KEY(NAME = KS_FEPCTL_KEY,STCLASS=STATIC);
     2050     9433        %KL$LINK_KEY(NAME = KS_LINK_KEY,STCLASS=STATIC);
     2051     9451        %KL$PSEUDO (NAME=KS_PSEUDO,NUM=50,STCLASS=STATIC);
     2052     9495        %KL$PSEUDO_KEY (NAME=KS_PSEUDO_KEY,STCLASS=STATIC);
     2053     9513        %KL$CONFIG_KEY(NAME = KS_CONFIG_KEY,STCLASS=STATIC);
     2054     9560        %KL$NETWORK (NAME=KS_NETWORK,NUM=255,STCLASS=STATIC);
     2055     9587        %KL$NETWORK_KEY (NAME=KS_NETWORK_KEY,STCLASS=STATIC);
     2056     9604    1   DCL 1 KS_RFEP_KEY STATIC ALIGNED,
     2057     9605    1        2  CNT UBIN BYTE UNAL INIT(1),
     2058     9606    1       2  TYP UBIN BYTE UNAL INIT(%KS_KEYTYP_RFEP);
     2059     9607        %KL$NETWORK         (NAME=KS_RFEP,NUM=255,STCLASS=STATIC);
     2060     9634    1   DCL                 HDR$ PTR STATIC INIT(ADDR(KS_MSGBUF));
     2061     9635        %KS$BOX(TITLE="based variables");

              9653    1   /***************************************************************************
              9654    1    *                                                                         *
              9655    1    *                              based variables                            *
              9656    1    *                                                                         *
              9657    1    ***************************************************************************/

     2062     9662    1   DCL   HEX   UBIN(4)  BASED UNAL;
     2063     9663        %PARSE$OUT (NAME=OUT$BLK,STCLASS="BASED(TOP$)");
     2064     9708        %PARSE$SYM (NAME=OUT$SYM,STCLASS=BASED);
     2065     9746        %B$TCB;
     2066     9749        %B$ALT;
     2067     9757        %KL_HDR(FPTN=UPDATE,CODE=%IGA_UPDATE,STCLASS="BASED(HDR$)");
     2068     9837        %KS$BOX(TITLE="auto variables",PAGE=YES);

PL6.E3A0      #002=KSC$DELETE File=KSC$COMMANDS2.:E05TSI                         WED 07/30/97 01:46 Page:373
              9855    1   /***************************************************************************
              9856    1    *                                                                         *
              9857    1    *                               auto variables                            *
              9858    1    *                                                                         *
              9859    1    ***************************************************************************/

     2069     9864    1   DCL LINK# UBIN;
     2070     9865    1   DCL   1  TEMP_LINK   STATIC,
     2071     9866    1            2  *        BIT(1) UNAL,
     2072     9867    1            2  HEX0     UBIN(4) UNAL,
     2073     9868    1            2  HEX1     UBIN(4) UNAL,
     2074     9869    1            2  *        BIT(1)  UNAL,
     2075     9870    1            2  HEX2     UBIN(4) UNAL,
     2076     9871    1            2  HEX3     UBIN(4) UNAL;
     2077     9872    1         DCL   HEX$(0:3)   PTR  STATIC INIT(
     2078     9873    1                                          ADDR(TEMP_LINK.HEX0),
     2079     9874    1                                          ADDR(TEMP_LINK.HEX1),
     2080     9875    1                                          ADDR(TEMP_LINK.HEX2),
     2081     9876    1                                          ADDR(TEMP_LINK.HEX3));
     2082     9877    1   DCL OFFSET UBIN;
     2083     9878    1   DCL TEMP   UBIN;
     2084     9879    1   DCL IN$ PTR;
     2085     9880    1   DCL NODE UBIN;
     2086     9881    1   DCL S SBIN;
     2087     9882    1   DCL I UBIN;
     2088     9883    1   DCL J UBIN;
     2089     9884    1   DCL K UBIN;
     2090     9885    1   DCL DELINDX UBIN;
     2091     9886    1   DCL PSEUDO_NAME CHAR(8);
     2092     9887    1   DCL NODENAME CHAR(8);
     2093     9888    1   DCL FOUND BIT(1);
     2094     9889        %KS$BOX(TITLE="FPTs, VLPs and such");

              9907    1   /***************************************************************************
              9908    1    *                                                                         *
              9909    1    *                            FPTs, VLPs and such                          *
              9910    1    *                                                                         *
PL6.E3A0      #002=KSC$DELETE File=KSC$COMMANDS2.:E05TSI                         WED 07/30/97 01:46 Page:374
              9911    1    ***************************************************************************/

     2095     9916        %FPT_READ (FPTN=READ_NETCON,
     2096     9917                   DCB=M$NETCON,
     2097     9918                   KEYS=YES);
     2098     9957        %FPT_WRITE (FPTN=WRITE_NETCON,
     2099     9958                    DCB=M$NETCON);
     2100     9989        %FPT_DELREC(FPTN=DELETE_NETCON,
     2101     9990                    DCB = M$NETCON);
     2102    10009
     2103    10010        %KS$BOX(TITLE="DCBs");

             10028    1   /***************************************************************************
             10029    1    *                                                                         *
             10030    1    *                                    DCBs                                 *
             10031    1    *                                                                         *
             10032    1    ***************************************************************************/

     2104    10037    1   DCL M$NETCON DCB;
     2105    10038        %EJECT;
PL6.E3A0      #002=KSC$DELETE File=KSC$COMMANDS2.:E05TSI                         WED 07/30/97 01:46 Page:375
     2106    10039    2        DO CASE(OUT$BLK.CODE);
     2107    10040    2           CASE(%KS_PSEUDO);
     2108    10041    3              IF KS_NODENAME = 'HOST' THEN DO;
     2109    10042    3                 CALL KSE$ERRMSG(%E$KS_NONODE);
     2110    10043    3                 RETURN;
     2111    10044    3                 END;  /* IF KS_NODENAME = 'HOST' */
     2112    10045    2           CALL KSU$READ_NETCON(VECTOR(KS_NETWORK_KEY),VECTOR(KS_NETWORK))
     2113    10046    2              ALTRET(DEL_ERR);
     2114    10047    2           IF KS_NETWORK.NODE.TYPE(KS_NODE) = %KS_HOST OR
     2115    10048    2              KS_NETWORK.NODE.TYPE(KS_NODE) = %KS_ME THEN
     2116    10049    3              DO;
     2117    10050    3                 CALL KSE$ERRMSG (%E$KS_BAD_NODE_TYPE-0);
     2118    10051    3                 RETURN;
     2119    10052    3              END;
     2120    10053
     2121    10054    2              KS_PSEUDO_KEY.NODE = KS_NODE;
     2122    10055    2              READ_NETCON.KEY_ = VECTOR(KS_PSEUDO_KEY);
     2123    10056    2              READ_NETCON.BUF_ = VECTOR(KS_PSEUDO);
     2124    10057    3              CALL M$READ(READ_NETCON) WHENALTRETURN DO;
     2125    10058    3                 IF B$TCB$->B$TCB.ALT$->B$ALT.ERR.CODE ~= %E$NOKEY
     2126    10059    3                    THEN GOTO DEL_ERR;
     2127    10060    3                 KS_SUB_BUF_1.COUNT = SIZEC(KS_NODENAME);
     2128    10061    3                 KS_SUB_BUF_1.TEXT = KS_NODENAME;
     2129    10062    3                 CALL KSE$ERRMSG(%E$KS_NOPSEUDOS,VECTOR(KS_SUB_BUF_1));
     2130    10063    3                 RETURN;
     2131    10064    3                 END;  /* WHENALTRETURN */
     2132    10065    2              PSEUDO_NAME = OUT$BLK.SUBLK$(0)->OUT$SYM.TEXT;
     2133    10066    2              FOUND = '0'B;
     2134    10067    3              DO I = 0 TO KS_PSEUDO.PSEUDO# - 1;
     2135    10068    4                 IF KS_PSEUDO.PSEUDO.NAME(I) = PSEUDO_NAME THEN DO;
     2136    10069    4                    FOUND = '1'B;
     2137    10070    4                    DELINDX = I;
     2138    10071    4                    END;  /* IF FOUND */
     2139    10072    3                 END;  /* DO I */
     2140    10073    3              IF NOT FOUND THEN DO;
     2141    10074    3                 KS_SUB_BUF_1.COUNT = OUT$BLK.SUBLK$(0)->OUT$SYM.COUNT;
     2142    10075    3                 KS_SUB_BUF_1.TEXT = PSEUDO_NAME;
PL6.E3A0      #002=KSC$DELETE File=KSC$COMMANDS2.:E05TSI                         WED 07/30/97 01:46 Page:376
     2143    10076    3                 KS_SUB_BUF_2.COUNT = SIZEC(KS_NODENAME);
     2144    10077    3                 KS_SUB_BUF_2.TEXT = KS_NODENAME;
     2145    10078    3                 CALL KSE$ERRMSG(%E$KS_BAD_PSEUDO,VECTOR(KS_SUB_BUF_1),VECTOR(
             10078                          KS_SUB_BUF_2));
     2146    10079                      /*E* ERROR: KSN-E$KS_BAD_PSEUDO-0
     2147    10080                           MESSAGE: %U1 has not been defined for node %U2
     2148    10081                           DESCRIPTION: NO SUCH PSEUDO */
     2149    10082    3                 RETURN;
     2150    10083    3                 END;  /* IF NOT FOUND */
     2151    10084    3              DO I = DELINDX TO KS_PSEUDO.PSEUDO# - 1;
     2152    10085    3                 KS_PSEUDO.PSEUDO(I) = KS_PSEUDO.PSEUDO(I+1);
     2153    10086    3                 END;  /* DO I */
     2154    10087    2              KS_PSEUDO.PSEUDO# = KS_PSEUDO.PSEUDO# - 1;
     2155    10088    2              WRITE_NETCON.KEY_ = VECTOR(KS_PSEUDO_KEY);
     2156    10089    2              WRITE_NETCON.BUF_ = VECTOR(KS_PSEUDO);
     2157    10090    2              WRITE_NETCON.BUF_.BOUND = KS_PSEUDO.PSEUDO# * 28 + 4 - 1;
     2158    10091    2              CALL M$WRITE(WRITE_NETCON) ALTRET(DEL_ERR);
     2159    10092    2           CASE(%KS_NODE);
     2160    10093    2              READ_NETCON.KEY_ = VECTOR(KS_NETWORK_KEY);
     2161    10094    2              READ_NETCON.BUF_ = VECTOR(KS_NETWORK);
     2162    10095    3              CALL M$READ(READ_NETCON) WHENALTRETURN DO;
     2163    10096    3                 IF B$TCB$->B$TCB.ALT$->B$ALT.ERR.CODE ~= %E$NOKEY
     2164    10097    3                    THEN GOTO DEL_ERR;
     2165    10098    3                 KS_NETWORK = '0'B;
     2166    10099    3                 END;  /* WHENALTRETURN */
     2167    10100    2             READ_NETCON.KEY_ = VECTOR(KS_RFEP_KEY);
     2168    10101    2             READ_NETCON.BUF_ = VECTOR(KS_RFEP);
     2169    10102    3             CALL M$READ(READ_NETCON) WHENALTRETURN DO;
     2170    10103    3                KS_RFEP = KS_NETWORK;
     2171    10104    3             END;
     2172    10105    3              IF KS_NETWORK.NODE# = 0 THEN DO;
     2173    10106    3                 CALL KSE$ERRMSG(%E$KS_NO_NETWORK);
     2174    10107    3                 END;  /* IF NODE# = 0 */
     2175    10108    3              ELSE DO;
     2176    10109    3                 FOUND = '0'B;
     2177    10110    3                 CALL CHARBIN(NODE,OUT$BLK.SUBLK$(0)->OUT$SYM.TEXT);
     2178    10111    4      NDSRCH:    DO I = 0 TO KS_NETWORK.NODE#;
PL6.E3A0      #002=KSC$DELETE File=KSC$COMMANDS2.:E05TSI                         WED 07/30/97 01:46 Page:377
     2179    10112    5                    IF I = NODE THEN DO;
     2180    10113    5                       NODENAME = KS_NETWORK.NODE.NODE(I);
     2181    10114    5                       FOUND = '1'B;
     2182    10115    5                       DELINDX = I;
     2183    10116    5                       EXIT NDSRCH;
     2184    10117    5                       END;   /* IF */
     2185    10118    4                    END;  /* DO I */
     2186    10119    4                 IF NOT FOUND THEN DO;
     2187    10120    4                    KS_SUB_BUF_1.COUNT = OUT$BLK.SUBLK$(0)->OUT$SYM.COUNT;
     2188    10121    4                    KS_SUB_BUF_1.TEXT = NODENAME;
     2189    10122    4                    CALL KSE$ERRMSG(%E$KS_UNDEFNODE,VECTOR(KS_SUB_BUF_1));
     2190    10123                         /*E* ERROR: KSN-E$KS_UNDEFNODE-0
     2191    10124                              MESSAGE: Node %U1 has not been defined.
     2192    10125                              DESCRIPTION: SEE MESSAGE */
     2193    10126    4                    RETURN;
     2194    10127    4                    END;  /* IF NOT FOUND */
     2195    10128    3                 KS_NETWORK.NODE.TYPE (DELINDX) = 0;
     2196    10129    3                 KS_NETWORK.NODE.NODE (DELINDX) = ' ';
     2197    10130    3                 WRITE_NETCON.KEY_ = VECTOR(KS_NETWORK_KEY);
     2198    10131    3                 WRITE_NETCON.BUF_ = VECTOR(KS_NETWORK);
     2199    10132    3                 WRITE_NETCON.BUF_.BOUND = SIZEV(KS_NETWORK) - SIZEC(KS_NETWORK.NODE) +
             10132                          KS_NETWORK.NODE# * SIZEC(KS_NETWORK.NODE(0));
     2200    10133    3                 CALL M$WRITE(WRITE_NETCON) ALTRET(DEL_ERR);
     2201    10134    3                KS_RFEP.NODE.TYPE (DELINDX) = 0;
     2202    10135    3                WRITE_NETCON.KEY_ = VECTOR(KS_RFEP_KEY);
     2203    10136    3                WRITE_NETCON.BUF_ = VECTOR(KS_RFEP);
     2204    10137    3                WRITE_NETCON.BUF_.BOUND = SIZEV(KS_RFEP) - SIZEC(KS_RFEP.NODE) +
             10137                         KS_RFEP.NODE# * SIZEC(KS_RFEP.NODE(0));
     2205    10138    3                CALL M$WRITE(WRITE_NETCON) ALTRET(DEL_ERR);
     2206    10139        /*
     2207    10140                delete all of the configuration records (if any) associated
     2208    10141                with this node.  However, if the node is 0 and the channel
     2209    10142                is 0 then this key belongs to SUPER and we should leave it
     2210    10143                alone.
     2211    10144        */
     2212    10145    3                 IF NODE ~= 0 THEN
     2213    10146    4                    DO;   /* dont delete configs if node = 0 */
PL6.E3A0      #002=KSC$DELETE File=KSC$COMMANDS2.:E05TSI                         WED 07/30/97 01:46 Page:378
     2214    10147    4                 KS_CONFIG_KEY.NODE = NODE;
     2215    10148    4                 KS_CONFIG_KEY.TERMID = '0'B;
     2216    10149                         /* delete config records */
     2217    10150                         /* change prompt if same as deleted node */
     2218    10151
     2219    10152    4                    IF NODE = KS_NODE THEN
     2220    10153    5                       DO;
     2221    10154    5                       KS_NODE = 0;
     2222    10155    5                       KS_NODENAME = KS_NETWORK.NODE.NODE(0);
     2223    10156    5                       KS_NODENAME_SV = ' ';
     2224    10157    5                       PROMPT.NODENAME = 'HOST';
     2225    10158    5                       END;
     2226    10159    4                    KS_CONFIG_KEY.TERMID.TERM.TERM_NAME = ' ';
     2227    10160    4                    KS_CONFIG_KEY.NODE = NODE;
     2228    10161    4                    DELETE_NETCON.KEY_ = VECTOR (KS_CONFIG_KEY);
     2229    10162    4                    KS_CONFIG_LKEY.NODE = NODE;
     2230    10163    4                    KS_CONFIG_LKEY.TERMID.TTYP = BITBIN('777'O);
     2231    10164    4                    KS_CONFIG_LKEY.TERMID.LEV = BITBIN('777'O);
     2232    10165    4                    DELETE_NETCON.LKEY_ = VECTOR (KS_CONFIG_LKEY);
     2233    10166    4                    CALL M$DELREC(DELETE_NETCON);
     2234    10167    4                       END;  /* dont delete config records if node=0 */
     2235    10168                         /* delete default records */
     2236    10169    3                    KS_DFLT_KEY.NODE = NODE;
     2237    10170    3                    KS_DFLT_KEY.HNDLR = ' ';
     2238    10171    3                    KS_DFLT_LKEY = KS_DFLT_KEY;
     2239    10172    3                    KS_DFLT_LKEY.HNDLR = '~~~~~';
     2240    10173    3                    DELETE_NETCON.KEY_ = VECTOR(KS_DFLT_KEY);
     2241    10174    3                    DELETE_NETCON.LKEY_ = VECTOR(KS_DFLT_LKEY);
     2242    10175    3                    CALL M$DELREC(DELETE_NETCON);
     2243    10176                         /* delete handler records  */
     2244    10177    3                    KS_HNDLR_KEY.NODE = NODE;
     2245    10178    3                    KS_HNDLR_KEY.HNDLR = ' ';
     2246    10179    3                    KS_HNDLR_LKEY.HNDLR = '~~~~~~~';
     2247    10180    3                    KS_HNDLR_LKEY.NODE = NODE;
     2248    10181    3                    DELETE_NETCON.KEY_ = VECTOR(KS_HNDLR_KEY);
     2249    10182    3                    DELETE_NETCON.LKEY_ = VECTOR(KS_HNDLR_LKEY);
     2250    10183    3                    CALL M$DELREC (DELETE_NETCON);
PL6.E3A0      #002=KSC$DELETE File=KSC$COMMANDS2.:E05TSI                         WED 07/30/97 01:46 Page:379
     2251    10184                         /* delete boot record */
     2252    10185    3                    KS_FEPBOOT_KEY.NODE = NODE;
     2253    10186    3                    DELETE_NETCON.KEY_ = VECTOR(KS_FEPBOOT_KEY);
     2254    10187    3                    DELETE_NETCON.LKEY_ = VECTOR(KS_FEPBOOT_KEY);
     2255    10188    3                    CALL M$DELREC (DELETE_NETCON);
     2256    10189                         /* delete fep hndlr record */
     2257    10190    3                    KS_FEPHNDLR_KEY.NODE = NODE;
     2258    10191    3                    DELETE_NETCON.KEY_ = VECTOR(KS_FEPHNDLR_KEY);
     2259    10192    3                    DELETE_NETCON.LKEY_ = VECTOR(KS_FEPHNDLR_KEY);
     2260    10193    3                    CALL M$DELREC(DELETE_NETCON);
     2261    10194
     2262    10195    3                    KS_FEPCTL_KEY.NODE = NODE;
     2263    10196    3                    DELETE_NETCON.KEY_ = VECTOR(KS_FEPCTL_KEY);
     2264    10197    3                    DELETE_NETCON.LKEY_ = VECTOR(KS_FEPCTL_KEY);
     2265    10198    3                    CALL M$DELREC(DELETE_NETCON);
     2266    10199    3                    KS_LINK_KEY.NODE = NODE;
     2267    10200    3                    DELETE_NETCON.KEY_ = VECTOR(KS_LINK_KEY);
     2268    10201    3                    DELETE_NETCON.LKEY_ = VECTOR(KS_LINK_KEY);
     2269    10202    3                    CALL M$DELREC(DELETE_NETCON);
     2270    10203    3                    KS_PSEUDO_KEY.NODE = NODE;
     2271    10204    3                    DELETE_NETCON.KEY_ = VECTOR(KS_PSEUDO_KEY);
     2272    10205    3                    DELETE_NETCON.LKEY_ = VECTOR(KS_PSEUDO_KEY);
     2273    10206    3                    CALL M$DELREC(DELETE_NETCON);
     2274    10207    3   UPDATE.CODE = %IGA_UPDATE;
     2275    10208    4   CALL KSR$WR_HLPCG(VECTOR(UPDATE)) WHENALTRETURN DO; END;
     2276    10209
     2277    10210    3                 END;                      /* ELSE                               */
     2278    10211        %EJECT;
PL6.E3A0      #002=KSC$DELETE File=KSC$COMMANDS2.:E05TSI                         WED 07/30/97 01:46 Page:380
     2279    10212    2   CASE (%KS_LINKS);
     2280    10213    3              IF KS_NODENAME = 'HOST' THEN DO;
     2281    10214    3                 CALL KSE$ERRMSG(%E$KS_NONODE);
     2282    10215    3                 RETURN;
     2283    10216    3                 END;  /* IF KS_NODENAME = 'HOST' */
     2284    10217    2           CALL KSU$READ_NETCON(VECTOR(KS_NETWORK_KEY),VECTOR(KS_NETWORK))
     2285    10218    2              ALTRET(DEL_ERR);
     2286    10219    2           IF KS_NETWORK.NODE.TYPE(KS_NODE) = %KS_HOST OR
     2287    10220    2              KS_NETWORK.NODE.TYPE(KS_NODE) = %KS_ME THEN
     2288    10221    3              DO;
     2289    10222    3                 CALL KSE$ERRMSG (%E$KS_BAD_NODE_TYPE-0);
     2290    10223    3                 RETURN;
     2291    10224    3              END;
     2292    10225
     2293    10226    2         KS_LINK_KEY.NODE = KS_NODE;
     2294    10227
     2295    10228    2         IF OUT$BLK.NSUBLKS = 0  THEN        /*DELETE LINKS ALL*/
     2296    10229    2            KS_LINK.LINKS# = 0;
     2297    10230    2         ELSE
     2298    10231    3            DO;
     2299    10232    3               READ_NETCON.BUF_ = VECTOR(KS_MSGBUF);
     2300    10233    3               READ_NETCON.KEY_ = VECTOR(KS_LINK_KEY);
     2301    10234    3               CALL M$READ(READ_NETCON) WHENALTRETURN
     2302    10235    4                  DO;
     2303    10236                     /*N* do error message which indicates to links defined for this node */
     2304    10237    4                  END;
     2305    10238    4               DO I = 0 TO OUT$BLK.NSUBLKS - 1;
     2306    10239    4                  IN$ = OUT$BLK.SUBLK$(I);
     2307    10240    4                  TEMP_LINK = '0'B;
     2308    10241    4                  OFFSET = 4 - IN$->OUT$SYM.COUNT;
     2309    10242    5                  DO J = OFFSET TO 3;
     2310    10243    5                     CALL INDEX (TEMP,SUBSTR(IN$->OUT$SYM.TEXT,J-OFFSET,1),HEX_CHARS);
     2311    10244    5                     HEX$(J)->HEX = TEMP;
     2312    10245    5                  END;
     2313    10246
     2314    10247    4   FIND_LINK_LOOP:
     2315    10248    5                  DO J = 0 TO KS_LINK.LINKS# - 1;
PL6.E3A0      #002=KSC$DELETE File=KSC$COMMANDS2.:E05TSI                         WED 07/30/97 01:46 Page:381
     2316    10249    5                     IF TEMP_LINK = KS_LINK.CHANNEL(J) THEN
     2317    10250    5                        EXIT FIND_LINK_LOOP;
     2318    10251    5                  END;
     2319    10252
     2320    10253    4                  IF J < KS_LINK.LINKS# THEN
     2321    10254    5                     DO;
     2322    10255    6                        DO K = J TO KS_LINK.LINKS# - 2;
     2323    10256    6                           KS_LINK.CHANNEL(K) = KS_LINK.CHANNEL(K+1);
     2324    10257    6                        END;
     2325    10258    5                        KS_LINK.LINKS# = KS_LINK.LINKS# - 1;
     2326    10259    5                     END;
     2327    10260    4               END;
     2328    10261    3            END;
     2329    10262    2     WRITE_NETCON.BUF_ = VECTOR(KS_MSGBUF);
     2330    10263    2     WRITE_NETCON.KEY_ = VECTOR(KS_LINK_KEY);
     2331    10264    2     IF KS_LINK.LINKS# <= 0 THEN
     2332    10265    2        WRITE_NETCON.BUF_.BOUND = SIZEC(KS_LINK.LINKS#) - 1;
     2333    10266    2     ELSE
     2334    10267    2        WRITE_NETCON.BUF_.BOUND = SIZEC(KS_LINK.LINKS#) +
     2335    10268    2                                  (SIZEC(KS_LINK.CHANNEL(0)) * KS_LINK.LINKS#) - 1;
     2336    10269    2     CALL M$WRITE(WRITE_NETCON) ALTRET(DEL_ERR);
     2337    10270        %EJECT;
PL6.E3A0      #002=KSC$DELETE File=KSC$COMMANDS2.:E05TSI                         WED 07/30/97 01:46 Page:382
     2338    10271    2        CASE (%KS_CONFIG);
     2339    10272    3              IF KS_NODENAME = 'HOST' THEN DO;
     2340    10273    3                 CALL KSE$ERRMSG(%E$KS_NONODE);
     2341    10274    3                 RETURN;
     2342    10275    3                 END;  /* IF KS_NODENAME = 'HOST' */
     2343    10276    2           CALL KSU$READ_NETCON(VECTOR(KS_NETWORK_KEY),VECTOR(KS_NETWORK))
     2344    10277    2              ALTRET(DEL_ERR);
     2345    10278    2           IF KS_NETWORK.NODE.TYPE(KS_NODE) = %KS_HOST OR
     2346    10279    2              KS_NETWORK.NODE.TYPE(KS_NODE) = %KS_ME THEN
     2347    10280    3              DO;
     2348    10281    3                 CALL KSE$ERRMSG (%E$KS_BAD_NODE_TYPE-0);
     2349    10282    3                 RETURN;
     2350    10283    3              END;
     2351    10284
     2352    10285    2           KS_CONFIG_KEY.NODE = KS_NODE;
     2353    10286    2           KS_CONFIG_LKEY.NODE = KS_NODE;
     2354    10287    2           KS_CONFIG_KEY.TERMID = '0'B;
     2355    10288
     2356    10289    2           IF OUT$BLK.NSUBLKS = 0 THEN
     2357    10290    3              DO;
     2358    10291    3                 KS_CONFIG_LKEY.TERMID.TTYP = BITBIN ('777'O);
     2359    10292    3                 KS_CONFIG_LKEY.TERMID.LEV  = BITBIN ('777'O);
     2360    10293    3              END;
     2361    10294    2           ELSE
     2362    10295    3              DO;
     2363    10296    3                 CALL KSU$BLD_TERMID(OUT$BLK.SUBLK$(0)->OUT$BLK.SUBLK$(0),KS_CONFIG_KEY
             10296                          .TERMID) ALTRET(NO_ERR);
     2364    10297    3                 IF OUT$BLK.SUBLK$(0)->OUT$BLK.NSUBLKS = 2 THEN
     2365    10298    4                    DO;
     2366    10299    4                       CALL KSU$BLD_TERMID(OUT$BLK.SUBLK$(0)->OUT$BLK.SUBLK$(1),
             10299                                KS_CONFIG_LKEY.TERMID) ALTRET(NO_ERR);
     2367    10300    4                       CALL KSU$CHK_TRM_RNG(KS_CONFIG_KEY.TERMID,KS_CONFIG_LKEY.TERMID)
     2368    10301    5                          WHENALTRETURN DO;
     2369    10302    5                             CALL KSE$ERRMSG (%E$KS_BAD_TRM_RANGE);
     2370    10303    5                             GOTO NO_ERR;
     2371    10304    5                          END;
     2372    10305    4                    END;
PL6.E3A0      #002=KSC$DELETE File=KSC$COMMANDS2.:E05TSI                         WED 07/30/97 01:46 Page:383
     2373    10306    3                 ELSE
     2374    10307    3                    KS_CONFIG_LKEY.TERMID = KS_CONFIG_KEY.TERMID;
     2375    10308    3              END;
     2376    10309    2        IF KS_CONFIG_KEY.TERMID.TERM.TERM_NAME ~= ' ' THEN
     2377    10310    3           DO;
     2378    10311    3              KS_CONFIG_KEY.NODE = 0;
     2379    10312    3              KS_CONFIG_KEY.TERMID.TERM.CHANNEL = '0'B;
     2380    10313    3              KS_CONFIG_LKEY.NODE = 0;
     2381    10314    3              KS_CONFIG_LKEY.TERMID.TERM.CHANNEL = '0'B;
     2382    10315    3           END;
     2383    10316
     2384    10317    2           DELETE_NETCON.KEY_ = VECTOR(KS_CONFIG_KEY);
     2385    10318    2           DELETE_NETCON.LKEY_ = VECTOR(KS_CONFIG_LKEY);
     2386    10319    2           CALL M$DELREC(DELETE_NETCON);
     2387    10320    2              END;  /* DO CASE(CODE) */
     2388    10321    2        DO WHILE('0'B);
     2389    10322    2   DEL_ERR:;
     2390    10323    2           CALL KSE$ERRMSG(0);
     2391    10324    2           END;  /* DO NEVER */
     2392    10325    1     NO_ERR:;
     2393    10326    1        RETURN;
     2394    10327    1   END KSC$DELETE;
     2395    10328        %EOD;

PL6.E3A0      #002=KSC$DELETE File=KSC$COMMANDS2.:E05TSI                         WED 07/30/97 01:46 Page:384
--  Include file information  --

   KL_AFCN_C.:E05TOU  is referenced.
   F$DCB.:E05TOU  cannot be made into a system file and is referenced.
   B_ERRORS_C.:E05TOU  is referenced.
   XU_MACRO_C.:E05TOU  is referenced.
   KS_PERR_C.:E05TOU  is referenced.
   KS_DATA_R.:E05TOU  cannot be made into a system file and is referenced.
   KS_SUBS_C.:E05TOU  is referenced.
   KS_MACRO_M.:E05TOU  is referenced.
   KL_CONFIG_M.:E05TOU  is referenced.
   KL_MACRO_C.:E05TOU  is referenced.
   CP_6.:E05TOU  cannot be made into a system file and is referenced.
   B$JIT_C.:E05TOU  was found in the system file and is never referenced.
   CP_6_C.:E05TOU  was found in the system file and is referenced.
      No diagnostics issued in procedure KSC$DELETE.

   Procedure KSC$DELETE requires 678 words for executable code.
   Procedure KSC$DELETE requires 24 words of local(AUTO) storage.

PL6.E3A0      #002=KSC$DELETE File=KSC$COMMANDS2.:E05TSI                         WED 07/30/97 01:46 Page:385

 Object Unit name= KSC$DELETE                                 File name= KSC$COMMANDS2.:E05TOU
 UTS= JUL 30 '97 01:46:17.52 WED                              Compiler= PL-6/E31         Sev=      00
 SharedLib= :SHARED_SYSTEM                                    Alt SharedLib=


    ****  Control sections  ****

 Sect   Type Bound  Init  Size OctSiz  Section name(segment info)
    0   DCB   even  none     0      0  M$UC
    1  RoData even  UTS      9     11  KSC$DELETE
    2   Data  even  none  2992   5660  KSC$DELETE
    3   DCB   even  none     0      0  M$NETCON
    4   Proc  even  none   678   1246  KSC$DELETE
    5  RoData even  none    66    102  KSC$DELETE

    ****  Entry defs  ****

                              Check   Calling
                             calling  sequence
  Sect OctLoc Primary Altret sequence   type   Parms  Name
     4      0   yes    yes     yes      Std        1  KSC$DELETE

  ****  Entry refs  ****

         Check        Calling
        calling       sequence
Altret sequence SRef   type   Args  Name
         yes           Std       4 KSE$ERRMSG
 yes     yes           Std       2 KSU$READ_NETCON
 yes     yes           Std       2 KSU$CHK_TRM_RNG
 yes     yes           Std       1 KSR$WR_HLPCG
 yes     yes           Std       3 KSU$BLD_TERMID
                       nStd      0 X66_AUTO_1
                       Std       0 B_CONSPOOL_D
                       nStd      0 X66_ARET
PL6.E3A0      #002=KSC$DELETE File=KSC$COMMANDS2.:E05TSI                         WED 07/30/97 01:46 Page:386

  ****  Data refs  ****

  Flags:  r = read only, s = secondary
Flgs Name                             Flgs Name                             Flgs Name
     M$UC                                  KS_MYSTATION                          KS_NODENAME
     KS_NODE                               KS_NODENAME_SV                        KS_MSGBUF
     KS_MSGBUF$                            KS_SUB_BUF_1                          KS_SUB_BUF_2
     B$TCB$                                PROMPT                                M$NETCON
     B_VECTNIL

  ****  Segment refs  ****

  Flags:  r = read only, s = secondary
Flgs Name                             Flgs Name                             Flgs Name
     ISSID                                 NULLSID
PL6.E3A0      #002=KSC$DELETE File=KSC$COMMANDS2.:E05TSI                         WED 07/30/97 01:46 Page:387


     2006        1        /*T***********************************************************/
     2007        2        /*T*                                                         */
     2008        3        /*T* Copyright (c) Bull HN Information Systems Inc., 1997    */
     2009        4        /*T*                                                         */
     2010        5        /*T***********************************************************/
     2011        6        KSC$DELETE: PROC(TOP$) ALTRET;

      6  4 000000   000000 700200 xent  KSC$DELETE   TSX0  ! X66_AUTO_1
         4 000001   000030 000001                    ZERO    24,1

     2012        7        /**/
     2013        8    1   DCL TOP$ PTR;
     2014        9        /**/
     2015       10        %INCLUDE CP_6;
     2016       91        %INCLUDE KL_MACRO_C;
     2017     3443        %INCLUDE KL_CONFIG_M;
     2018     4205        %INCLUDE KS_MACRO_M;
     2019     4402        %INCLUDE KS_SUBS_C;
     2020     4645        %INCLUDE KS_DATA_R;
     2021     4660        %INCLUDE KS_PERR_C;
     2022     4727        %INCLUDE XU_MACRO_C;
     2023     7833        %INCLUDE B_ERRORS_C;
     2024     8960        %INCLUDE F$DCB;
     2025     9009        %INCLUDE            KL_AFCN_C;
     2026     9110        /**/
     2027     9111        %KS$BOX(TITLE="entry defs");

              9129    1   /***************************************************************************
              9130    1    *                                                                         *
              9131    1    *                                 entry defs                              *
              9132    1    *                                                                         *
              9133    1    ***************************************************************************/

     2028     9138    1   DCL KSE$ERRMSG ENTRY(4);
     2029     9139    1   DCL                 KSR$WR_HLPCG ENTRY(1) ALTRET;
     2030     9140    1   DCL KSU$READ_NETCON ENTRY(2) ALTRET;
PL6.E3A0      #002=KSC$DELETE File=KSC$COMMANDS2.:E05TSI                         WED 07/30/97 01:46 Page:388
     2031     9141    1   DCL KSU$BLD_TERMID  ENTRY(3) ALTRET;
     2032     9142    1   DCL KSU$CHK_TRM_RNG ENTRY(2) ALTRET;
     2033     9143        %KS$BOX(TITLE="symref variables");

              9161    1   /***************************************************************************
              9162    1    *                                                                         *
              9163    1    *                              symref variables                           *
              9164    1    *                                                                         *
              9165    1    ***************************************************************************/

     2034     9170    1   DCL B$TCB$ PTR SYMREF;
     2035     9171        %KS$BOX(TITLE="symdef variables");

              9189    1   /***************************************************************************
              9190    1    *                                                                         *
              9191    1    *                              symdef variables                           *
              9192    1    *                                                                         *
              9193    1    ***************************************************************************/

     2036     9198        %KS$BOX(TITLE="constant variables");

              9216    1   /***************************************************************************
              9217    1    *                                                                         *
              9218    1    *                             constant variables                          *
              9219    1    *                                                                         *
              9220    1    ***************************************************************************/

     2037     9225    1   DCL HEX_CHARS CHAR(0) CONSTANT INIT('0123456789ABCDEF');
     2038     9226        %KS$BOX(TITLE="static variables");

              9244    1   /***************************************************************************
              9245    1    *                                                                         *
              9246    1    *                              static variables                           *
              9247    1    *                                                                         *
              9248    1    ***************************************************************************/

     2039     9253    1   DCL 1 PROMPT SYMREF,
PL6.E3A0      #002=KSC$DELETE File=KSC$COMMANDS2.:E05TSI                         WED 07/30/97 01:46 Page:389
     2040     9254    1        2 NODENAME CHAR(8),
     2041     9255    1        2 STAR CHAR(2);
     2042     9256        %KL$HNDLR_KEY(NAME = KS_HNDLR_KEY,STCLASS=STATIC);
     2043     9275        %KL$HNDLR_KEY(NAME = KS_HNDLR_LKEY,STCLASS=STATIC);
     2044     9294        %KL$DEFAULT_KEY(NAME = KS_DFLT_KEY,STCLASS=STATIC);
     2045     9313        %KL$DEFAULT_KEY(NAME = KS_DFLT_LKEY,STCLASS=STATIC);
     2046     9332        %KL$CONFIG_KEY(NAME = KS_CONFIG_LKEY,STCLASS=STATIC);
     2047     9379        %KL$FEPBOOT_KEY(NAME = KS_FEPBOOT_KEY,STCLASS=STATIC);
     2048     9397        %KL$FEPHNDLR_KEY(NAME = KS_FEPHNDLR_KEY,STCLASS=STATIC);
     2049     9415        %KL$FEPCTL_KEY(NAME = KS_FEPCTL_KEY,STCLASS=STATIC);
     2050     9433        %KL$LINK_KEY(NAME = KS_LINK_KEY,STCLASS=STATIC);
     2051     9451        %KL$PSEUDO (NAME=KS_PSEUDO,NUM=50,STCLASS=STATIC);
     2052     9495        %KL$PSEUDO_KEY (NAME=KS_PSEUDO_KEY,STCLASS=STATIC);
     2053     9513        %KL$CONFIG_KEY(NAME = KS_CONFIG_KEY,STCLASS=STATIC);
     2054     9560        %KL$NETWORK (NAME=KS_NETWORK,NUM=255,STCLASS=STATIC);
     2055     9587        %KL$NETWORK_KEY (NAME=KS_NETWORK_KEY,STCLASS=STATIC);
     2056     9604    1   DCL 1 KS_RFEP_KEY STATIC ALIGNED,
     2057     9605    1        2  CNT UBIN BYTE UNAL INIT(1),
     2058     9606    1       2  TYP UBIN BYTE UNAL INIT(%KS_KEYTYP_RFEP);
     2059     9607        %KL$NETWORK         (NAME=KS_RFEP,NUM=255,STCLASS=STATIC);
     2060     9634    1   DCL                 HDR$ PTR STATIC INIT(ADDR(KS_MSGBUF));
     2061     9635        %KS$BOX(TITLE="based variables");

              9653    1   /***************************************************************************
              9654    1    *                                                                         *
              9655    1    *                              based variables                            *
              9656    1    *                                                                         *
              9657    1    ***************************************************************************/

     2062     9662    1   DCL   HEX   UBIN(4)  BASED UNAL;
     2063     9663        %PARSE$OUT (NAME=OUT$BLK,STCLASS="BASED(TOP$)");
     2064     9708        %PARSE$SYM (NAME=OUT$SYM,STCLASS=BASED);
     2065     9746        %B$TCB;
     2066     9749        %B$ALT;
     2067     9757        %KL_HDR(FPTN=UPDATE,CODE=%IGA_UPDATE,STCLASS="BASED(HDR$)");
     2068     9837        %KS$BOX(TITLE="auto variables",PAGE=YES);

PL6.E3A0      #002=KSC$DELETE File=KSC$COMMANDS2.:E05TSI                         WED 07/30/97 01:46 Page:390
              9855    1   /***************************************************************************
              9856    1    *                                                                         *
              9857    1    *                               auto variables                            *
              9858    1    *                                                                         *
              9859    1    ***************************************************************************/

     2069     9864    1   DCL LINK# UBIN;
     2070     9865    1   DCL   1  TEMP_LINK   STATIC,
     2071     9866    1            2  *        BIT(1) UNAL,
     2072     9867    1            2  HEX0     UBIN(4) UNAL,
     2073     9868    1            2  HEX1     UBIN(4) UNAL,
     2074     9869    1            2  *        BIT(1)  UNAL,
     2075     9870    1            2  HEX2     UBIN(4) UNAL,
     2076     9871    1            2  HEX3     UBIN(4) UNAL;
     2077     9872    1         DCL   HEX$(0:3)   PTR  STATIC INIT(
     2078     9873    1                                          ADDR(TEMP_LINK.HEX0),
     2079     9874    1                                          ADDR(TEMP_LINK.HEX1),
     2080     9875    1                                          ADDR(TEMP_LINK.HEX2),
     2081     9876    1                                          ADDR(TEMP_LINK.HEX3));
     2082     9877    1   DCL OFFSET UBIN;
     2083     9878    1   DCL TEMP   UBIN;
     2084     9879    1   DCL IN$ PTR;
     2085     9880    1   DCL NODE UBIN;
     2086     9881    1   DCL S SBIN;
     2087     9882    1   DCL I UBIN;
     2088     9883    1   DCL J UBIN;
     2089     9884    1   DCL K UBIN;
     2090     9885    1   DCL DELINDX UBIN;
     2091     9886    1   DCL PSEUDO_NAME CHAR(8);
     2092     9887    1   DCL NODENAME CHAR(8);
     2093     9888    1   DCL FOUND BIT(1);
     2094     9889        %KS$BOX(TITLE="FPTs, VLPs and such");

              9907    1   /***************************************************************************
              9908    1    *                                                                         *
              9909    1    *                            FPTs, VLPs and such                          *
              9910    1    *                                                                         *
PL6.E3A0      #002=KSC$DELETE File=KSC$COMMANDS2.:E05TSI                         WED 07/30/97 01:46 Page:391
              9911    1    ***************************************************************************/

     2095     9916        %FPT_READ (FPTN=READ_NETCON,
     2096     9917                   DCB=M$NETCON,
     2097     9918                   KEYS=YES);
     2098     9957        %FPT_WRITE (FPTN=WRITE_NETCON,
     2099     9958                    DCB=M$NETCON);
     2100     9989        %FPT_DELREC(FPTN=DELETE_NETCON,
     2101     9990                    DCB = M$NETCON);
     2102    10009
     2103    10010        %KS$BOX(TITLE="DCBs");

             10028    1   /***************************************************************************
             10029    1    *                                                                         *
             10030    1    *                                    DCBs                                 *
             10031    1    *                                                                         *
             10032    1    ***************************************************************************/

     2104    10037    1   DCL M$NETCON DCB;
     2105    10038        %EJECT;
PL6.E3A0      #002=KSC$DELETE File=KSC$COMMANDS2.:E05TSI                         WED 07/30/97 01:46 Page:392
     2106    10039    2        DO CASE(OUT$BLK.CODE);

  10039  4 000002   200003 470500                    LDP0    @TOP$,,AUTO
         4 000003   000000 471500                    LDP1    0,,PR0
         4 000004   100000 720100                    LXL0    0,,PR1
         4 000005   000007 100003                    CMPX0   7,DU
         4 000006   000010 602010 4                  TNC     s:10039+6,X0
         4 000007   001240 710000 4                  TRA     s:10321
         4 000010   001240 710000 4                  TRA     s:10321
         4 000011   000225 710000 4                  TRA     s:10093
         4 000012   000017 710000 4                  TRA     s:10041
         4 000013   001240 710000 4                  TRA     s:10321
         4 000014   001240 710000 4                  TRA     s:10321
         4 000015   001100 710000 4                  TRA     s:10272
         4 000016   000645 710000 4                  TRA     s:10213

     2107    10040    2           CASE(%KS_PSEUDO);

     2108    10041    3              IF KS_NODENAME = 'HOST' THEN DO;

  10041  4 000017   040000 106400                    CMPC    fill='040'O
         4 000020   000000 000010 xsym               ADSC9   KS_NODENAME              cn=0,n=8
         4 000021   000004 000004 1                  ADSC9   HEX_CHARS+4              cn=0,n=4
         4 000022   000030 601000 4                  TNZ     s:10045

     2109    10042    3                 CALL KSE$ERRMSG(%E$KS_NONODE);

  10042  4 000023   000000 630400 5                  EPPR0   0
         4 000024   000017 631400 xsym               EPPR1   B_VECTNIL+15
         4 000025   000000 701000 xent               TSX1    KSE$ERRMSG
         4 000026   000000 011000                    NOP     0

     2110    10043    3                 RETURN;

  10043  4 000027   000000 702200 xent               TSX2  ! X66_ARET

     2111    10044    3                 END;  /* IF KS_NODENAME = 'HOST' */
PL6.E3A0      #002=KSC$DELETE File=KSC$COMMANDS2.:E05TSI                         WED 07/30/97 01:46 Page:393
     2112    10045    2           CALL KSU$READ_NETCON(VECTOR(KS_NETWORK_KEY),VECTOR(KS_NETWORK))

  10045  4 000030   000006 630400 5                  EPPR0   6
         4 000031   000020 631400 xsym               EPPR1   B_VECTNIL+16
         4 000032   000000 701000 xent               TSX1    KSU$READ_NETCON
         4 000033   001241 702000 4                  TSX2    DEL_ERR

     2113    10046    2              ALTRET(DEL_ERR);
     2114    10047    2           IF KS_NETWORK.NODE.TYPE(KS_NODE) = %KS_HOST OR

  10047  4 000034   000000 236000 xsym               LDQ     KS_NODE
         4 000035   000005 402007                    MPY     5,DL
         4 000036   000602 235006 2                  LDA     KS_NETWORK+1,QL
         4 000037   000001 115007                    CMPA    1,DL
         4 000040   000043 600000 4                  TZE     s:10050
         4 000041   000003 115007                    CMPA    3,DL
         4 000042   000050 601000 4                  TNZ     s:10054

     2115    10048    2              KS_NETWORK.NODE.TYPE(KS_NODE) = %KS_ME THEN
     2116    10049    3              DO;

     2117    10050    3                 CALL KSE$ERRMSG (%E$KS_BAD_NODE_TYPE-0);

  10050  4 000043   000011 630400 5                  EPPR0   9
         4 000044   000017 631400 xsym               EPPR1   B_VECTNIL+15
         4 000045   000000 701000 xent               TSX1    KSE$ERRMSG
         4 000046   000000 011000                    NOP     0

     2118    10051    3                 RETURN;

  10051  4 000047   000000 702200 xent               TSX2  ! X66_ARET

     2119    10052    3              END;
     2120    10053
     2121    10054    2              KS_PSEUDO_KEY.NODE = KS_NODE;

  10054  4 000050   000000 236000 xsym               LDQ     KS_NODE
PL6.E3A0      #002=KSC$DELETE File=KSC$COMMANDS2.:E05TSI                         WED 07/30/97 01:46 Page:394
         4 000051   000011 736000                    QLS     9
         4 000052   000573 552010 2                  STBQ    KS_PSEUDO_KEY,'10'O

     2122    10055    2              READ_NETCON.KEY_ = VECTOR(KS_PSEUDO_KEY);

  10055  4 000053   000012 237000 5                  LDAQ    10
         4 000054   005616 757000 2                  STAQ    READ_NETCON+2

     2123    10056    2              READ_NETCON.BUF_ = VECTOR(KS_PSEUDO);

  10056  4 000055   000014 237000 5                  LDAQ    12
         4 000056   005620 757000 2                  STAQ    READ_NETCON+4

     2124    10057    3              CALL M$READ(READ_NETCON) WHENALTRETURN DO;

  10057  4 000057   005614 630400 2                  EPPR0   READ_NETCON
         4 000060   440000 713400                    CLIMB   alt,read
         4 000061   401400 401760                    pmme    nvectors=4
         4 000062   000064 702000 4                  TSX2    s:10058
         4 000063   000104 710000 4                  TRA     s:10065

     2125    10058    3                 IF B$TCB$->B$TCB.ALT$->B$ALT.ERR.CODE ~= %E$NOKEY

  10058  4 000064   000000 470400 xsym               LDP0    B$TCB$
         4 000065   000000 471500                    LDP1    0,,PR0
         4 000066   100102 236100                    LDQ     66,,PR1
         4 000067   377770 376007                    ANQ     131064,DL
         4 000070   001020 116007                    CMPQ    528,DL
         4 000071   001241 601000 4                  TNZ     DEL_ERR

     2126    10059    3                    THEN GOTO DEL_ERR;
     2127    10060    3                 KS_SUB_BUF_1.COUNT = SIZEC(KS_NODENAME);

  10060  4 000072   010000 236003                    LDQ     4096,DU
         4 000073   000000 552040 xsym               STBQ    KS_SUB_BUF_1,'40'O

     2128    10061    3                 KS_SUB_BUF_1.TEXT = KS_NODENAME;
PL6.E3A0      #002=KSC$DELETE File=KSC$COMMANDS2.:E05TSI                         WED 07/30/97 01:46 Page:395

  10061  4 000074   040000 100400                    MLR     fill='040'O
         4 000075   000000 000010 xsym               ADSC9   KS_NODENAME              cn=0,n=8
         4 000076   000000 200037 xsym               ADSC9   KS_SUB_BUF_1             cn=1,n=31

     2129    10062    3                 CALL KSE$ERRMSG(%E$KS_NOPSEUDOS,VECTOR(KS_SUB_BUF_1));

  10062  4 000077   000021 630400 5                  EPPR0   17
         4 000100   000020 631400 xsym               EPPR1   B_VECTNIL+16
         4 000101   000000 701000 xent               TSX1    KSE$ERRMSG
         4 000102   000000 011000                    NOP     0

     2130    10063    3                 RETURN;

  10063  4 000103   000000 702200 xent               TSX2  ! X66_ARET

     2131    10064    3                 END;  /* WHENALTRETURN */
     2132    10065    2              PSEUDO_NAME = OUT$BLK.SUBLK$(0)->OUT$SYM.TEXT;

  10065  4 000104   200003 470500                    LDP0    @TOP$,,AUTO
         4 000105   000000 471500                    LDP1    0,,PR0
         4 000106   100003 473500                    LDP3    3,,PR1
         4 000107   300004 236100                    LDQ     4,,PR3
         4 000110   000033 772000                    QRL     27
         4 000111   000000 620006                    EAX0    0,QL
         4 000112   040100 100540                    MLR     fill='040'O
         4 000113   300004 200010                    ADSC9   4,,PR3                   cn=1,n=*X0
         4 000114   200016 000010                    ADSC9   PSEUDO_NAME,,AUTO        cn=0,n=8

     2133    10066    2              FOUND = '0'B;

  10066  4 000115   200022 450100                    STZ     FOUND,,AUTO

     2134    10067    3              DO I = 0 TO KS_PSEUDO.PSEUDO# - 1;

  10067  4 000116   200012 450100                    STZ     I,,AUTO
         4 000117   000135 710000 4                  TRA     s:10072+3
PL6.E3A0      #002=KSC$DELETE File=KSC$COMMANDS2.:E05TSI                         WED 07/30/97 01:46 Page:396

     2135    10068    4                 IF KS_PSEUDO.PSEUDO.NAME(I) = PSEUDO_NAME THEN DO;

  10068  4 000120   200012 236100                    LDQ     I,,AUTO
         4 000121   000034 402007                    MPY     28,DL
         4 000122   040100 106406                    CMPC    fill='040'O
         4 000123   000026 000010 2                  ADSC9   KS_PSEUDO+1,Q            cn=0,n=8
         4 000124   200016 000010                    ADSC9   PSEUDO_NAME,,AUTO        cn=0,n=8
         4 000125   000132 601000 4                  TNZ     s:10072

     2136    10069    4                    FOUND = '1'B;

  10069  4 000126   400000 236003                    LDQ     -131072,DU
         4 000127   200022 756100                    STQ     FOUND,,AUTO

     2137    10070    4                    DELINDX = I;

  10070  4 000130   200012 235100                    LDA     I,,AUTO
         4 000131   200015 755100                    STA     DELINDX,,AUTO

     2138    10071    4                    END;  /* IF FOUND */

     2139    10072    3                 END;  /* DO I */

  10072  4 000132   200012 235100                    LDA     I,,AUTO
         4 000133   000001 035007                    ADLA    1,DL
         4 000134   200012 755100                    STA     I,,AUTO
         4 000135   200012 236100                    LDQ     I,,AUTO
         4 000136   000025 116000 2                  CMPQ    KS_PSEUDO
         4 000137   000120 602000 4                  TNC     s:10068

     2140    10073    3              IF NOT FOUND THEN DO;

  10073  4 000140   200022 234100                    SZN     FOUND,,AUTO
         4 000141   000164 604000 4                  TMI     s:10084

     2141    10074    3                 KS_SUB_BUF_1.COUNT = OUT$BLK.SUBLK$(0)->OUT$SYM.COUNT;
PL6.E3A0      #002=KSC$DELETE File=KSC$COMMANDS2.:E05TSI                         WED 07/30/97 01:46 Page:397

  10074  4 000142   200003 470500                    LDP0    @TOP$,,AUTO
         4 000143   000000 471500                    LDP1    0,,PR0
         4 000144   100003 473500                    LDP3    3,,PR1
         4 000145   300004 236100                    LDQ     4,,PR3
         4 000146   000000 552040 xsym               STBQ    KS_SUB_BUF_1,'40'O

     2142    10075    3                 KS_SUB_BUF_1.TEXT = PSEUDO_NAME;

  10075  4 000147   040000 100500                    MLR     fill='040'O
         4 000150   200016 000010                    ADSC9   PSEUDO_NAME,,AUTO        cn=0,n=8
         4 000151   000000 200037 xsym               ADSC9   KS_SUB_BUF_1             cn=1,n=31

     2143    10076    3                 KS_SUB_BUF_2.COUNT = SIZEC(KS_NODENAME);

  10076  4 000152   010000 236003                    LDQ     4096,DU
         4 000153   000000 552040 xsym               STBQ    KS_SUB_BUF_2,'40'O

     2144    10077    3                 KS_SUB_BUF_2.TEXT = KS_NODENAME;

  10077  4 000154   040000 100400                    MLR     fill='040'O
         4 000155   000000 000010 xsym               ADSC9   KS_NODENAME              cn=0,n=8
         4 000156   000000 200037 xsym               ADSC9   KS_SUB_BUF_2             cn=1,n=31

     2145    10078    3                 CALL KSE$ERRMSG(%E$KS_BAD_PSEUDO,VECTOR(KS_SUB_BUF_1),VECTOR(
             10078                          KS_SUB_BUF_2));

  10078  4 000157   000027 630400 5                  EPPR0   23
         4 000160   000021 631400 xsym               EPPR1   B_VECTNIL+17
         4 000161   000000 701000 xent               TSX1    KSE$ERRMSG
         4 000162   000000 011000                    NOP     0

     2146    10079                      /*E* ERROR: KSN-E$KS_BAD_PSEUDO-0
     2147    10080                           MESSAGE: %U1 has not been defined for node %U2
     2148    10081                           DESCRIPTION: NO SUCH PSEUDO */
     2149    10082    3                 RETURN;

PL6.E3A0      #002=KSC$DELETE File=KSC$COMMANDS2.:E05TSI                         WED 07/30/97 01:46 Page:398
  10082  4 000163   000000 702200 xent               TSX2  ! X66_ARET

     2150    10083    3                 END;  /* IF NOT FOUND */
     2151    10084    3              DO I = DELINDX TO KS_PSEUDO.PSEUDO# - 1;

  10084  4 000164   200015 235100                    LDA     DELINDX,,AUTO
         4 000165   200012 755100                    STA     I,,AUTO
         4 000166   000177 710000 4                  TRA     s:10086+3

     2152    10085    3                 KS_PSEUDO.PSEUDO(I) = KS_PSEUDO.PSEUDO(I+1);

  10085  4 000167   200012 236100                    LDQ     I,,AUTO
         4 000170   000034 402007                    MPY     28,DL
         4 000171   000006 100406                    MLR     fill='000'O
         4 000172   000035 000034 2                  ADSC9   KS_PSEUDO+8,Q            cn=0,n=28
         4 000173   000026 000034 2                  ADSC9   KS_PSEUDO+1,Q            cn=0,n=28

     2153    10086    3                 END;  /* DO I */

  10086  4 000174   200012 235100                    LDA     I,,AUTO
         4 000175   000001 035007                    ADLA    1,DL
         4 000176   200012 755100                    STA     I,,AUTO
         4 000177   200012 236100                    LDQ     I,,AUTO
         4 000200   000025 116000 2                  CMPQ    KS_PSEUDO
         4 000201   000167 602000 4                  TNC     s:10085

     2154    10087    2              KS_PSEUDO.PSEUDO# = KS_PSEUDO.PSEUDO# - 1;

  10087  4 000202   000025 235000 2                  LDA     KS_PSEUDO
         4 000203   000001 135007                    SBLA    1,DL
         4 000204   000025 755000 2                  STA     KS_PSEUDO

     2155    10088    2              WRITE_NETCON.KEY_ = VECTOR(KS_PSEUDO_KEY);

  10088  4 000205   000012 237000 5                  LDAQ    10
         4 000206   005634 757000 2                  STAQ    WRITE_NETCON+2

PL6.E3A0      #002=KSC$DELETE File=KSC$COMMANDS2.:E05TSI                         WED 07/30/97 01:46 Page:399
     2156    10089    2              WRITE_NETCON.BUF_ = VECTOR(KS_PSEUDO);

  10089  4 000207   000014 237000 5                  LDAQ    12
         4 000210   005636 757000 2                  STAQ    WRITE_NETCON+4

     2157    10090    2              WRITE_NETCON.BUF_.BOUND = KS_PSEUDO.PSEUDO# * 28 + 4 - 1;

  10090  4 000211   000025 236000 2                  LDQ     KS_PSEUDO
         4 000212   000034 402007                    MPY     28,DL
         4 000213   000003 036007                    ADLQ    3,DL
         4 000214   000020 736000                    QLS     16
         4 000215   005636 676000 2                  ERQ     WRITE_NETCON+4
         4 000216   000034 376000 xsym               ANQ     B_VECTNIL+28
         4 000217   005636 656000 2                  ERSQ    WRITE_NETCON+4

     2158    10091    2              CALL M$WRITE(WRITE_NETCON) ALTRET(DEL_ERR);

  10091  4 000220   005632 630400 2                  EPPR0   WRITE_NETCON
         4 000221   440001 713400                    CLIMB   alt,write
         4 000222   401400 401760                    pmme    nvectors=4
         4 000223   001241 702000 4                  TSX2    DEL_ERR
         4 000224   001240 710000 4                  TRA     s:10321

     2159    10092    2           CASE(%KS_NODE);

     2160    10093    2              READ_NETCON.KEY_ = VECTOR(KS_NETWORK_KEY);

  10093  4 000225   000002 237000 5                  LDAQ    2
         4 000226   005616 757000 2                  STAQ    READ_NETCON+2

     2161    10094    2              READ_NETCON.BUF_ = VECTOR(KS_NETWORK);

  10094  4 000227   000004 237000 5                  LDAQ    4
         4 000230   005620 757000 2                  STAQ    READ_NETCON+4

     2162    10095    3              CALL M$READ(READ_NETCON) WHENALTRETURN DO;

PL6.E3A0      #002=KSC$DELETE File=KSC$COMMANDS2.:E05TSI                         WED 07/30/97 01:46 Page:400
  10095  4 000231   005614 630400 2                  EPPR0   READ_NETCON
         4 000232   440000 713400                    CLIMB   alt,read
         4 000233   401400 401760                    pmme    nvectors=4
         4 000234   000236 702000 4                  TSX2    s:10096
         4 000235   000250 710000 4                  TRA     s:10100

     2163    10096    3                 IF B$TCB$->B$TCB.ALT$->B$ALT.ERR.CODE ~= %E$NOKEY

  10096  4 000236   000000 470400 xsym               LDP0    B$TCB$
         4 000237   000000 471500                    LDP1    0,,PR0
         4 000240   100102 236100                    LDQ     66,,PR1
         4 000241   377770 376007                    ANQ     131064,DL
         4 000242   001020 116007                    CMPQ    528,DL
         4 000243   001241 601000 4                  TNZ     DEL_ERR

     2164    10097    3                    THEN GOTO DEL_ERR;
     2165    10098    3                 KS_NETWORK = '0'B;

  10098  4 000244   012004 220003                    LDX0    5124,DU
         4 000245   000040 100400                    MLR     fill='000'O
         4 000246   000002 000001 xsym               ADSC9   B_VECTNIL+2              cn=0,n=1
         4 000247   000601 000010 2                  ADSC9   KS_NETWORK               cn=0,n=*X0

     2166    10099    3                 END;  /* WHENALTRETURN */

     2167    10100    2             READ_NETCON.KEY_ = VECTOR(KS_RFEP_KEY);

  10100  4 000250   000032 237000 5                  LDAQ    26
         4 000251   005616 757000 2                  STAQ    READ_NETCON+2

     2168    10101    2             READ_NETCON.BUF_ = VECTOR(KS_RFEP);

  10101  4 000252   000034 237000 5                  LDAQ    28
         4 000253   005620 757000 2                  STAQ    READ_NETCON+4

     2169    10102    3             CALL M$READ(READ_NETCON) WHENALTRETURN DO;

PL6.E3A0      #002=KSC$DELETE File=KSC$COMMANDS2.:E05TSI                         WED 07/30/97 01:46 Page:401
  10102  4 000254   005614 630400 2                  EPPR0   READ_NETCON
         4 000255   440000 713400                    CLIMB   alt,read
         4 000256   401400 401760                    pmme    nvectors=4
         4 000257   000261 702000 4                  TSX2    s:10103
         4 000260   000265 710000 4                  TRA     s:10105

     2170    10103    3                KS_RFEP = KS_NETWORK;

  10103  4 000261   012004 220003                    LDX0    5124,DU
         4 000262   000040 100440                    MLR     fill='000'O
         4 000263   000601 000010 2                  ADSC9   KS_NETWORK               cn=0,n=*X0
         4 000264   003204 000010 2                  ADSC9   KS_RFEP                  cn=0,n=*X0

     2171    10104    3             END;

     2172    10105    3              IF KS_NETWORK.NODE# = 0 THEN DO;

  10105  4 000265   000601 235000 2                  LDA     KS_NETWORK
         4 000266   000274 601000 4                  TNZ     s:10109

     2173    10106    3                 CALL KSE$ERRMSG(%E$KS_NO_NETWORK);

  10106  4 000267   000037 630400 5                  EPPR0   31
         4 000270   000017 631400 xsym               EPPR1   B_VECTNIL+15
         4 000271   000000 701000 xent               TSX1    KSE$ERRMSG
         4 000272   000000 011000                    NOP     0

     2174    10107    3                 END;  /* IF NODE# = 0 */

  10107  4 000273   001240 710000 4                  TRA     s:10321

     2175    10108    3              ELSE DO;

     2176    10109    3                 FOUND = '0'B;

  10109  4 000274   200022 450100                    STZ     FOUND,,AUTO

PL6.E3A0      #002=KSC$DELETE File=KSC$COMMANDS2.:E05TSI                         WED 07/30/97 01:46 Page:402
     2177    10110    3                 CALL CHARBIN(NODE,OUT$BLK.SUBLK$(0)->OUT$SYM.TEXT);

  10110  4 000275   200003 470500                    LDP0    @TOP$,,AUTO
         4 000276   000000 471500                    LDP1    0,,PR0
         4 000277   100003 473500                    LDP3    3,,PR1
         4 000300   300004 236100                    LDQ     4,,PR3
         4 000301   000033 772000                    QRL     27
         4 000302   000000 620006                    EAX0    0,QL
         4 000303   000100 305540                    DTB
         4 000304   300004 230010                    NDSC9   4,,PR3                   cn=1,s=nosgn,sf=0,n=*X0
         4 000305   200024 000010                    NDSC9   FOUND+2,,AUTO            cn=0,s=lsgnf,sf=0,n=8
         4 000306   200025 236100                    LDQ     FOUND+3,,AUTO
         4 000307   200010 756100                    STQ     NODE,,AUTO

     2178    10111    4      NDSRCH:    DO I = 0 TO KS_NETWORK.NODE#;

  10111  4 000310   200012 450100       NDSRCH       STZ     I,,AUTO
         4 000311   000330 710000 4                  TRA     s:10118+2

     2179    10112    5                    IF I = NODE THEN DO;

  10112  4 000312   200012 236100                    LDQ     I,,AUTO
         4 000313   200010 116100                    CMPQ    NODE,,AUTO
         4 000314   000326 601000 4                  TNZ     s:10118

     2180    10113    5                       NODENAME = KS_NETWORK.NODE.NODE(I);

  10113  4 000315   000024 402007                    MPY     20,DL
         4 000316   040100 100406                    MLR     fill='040'O
         4 000317   000603 000010 2                  ADSC9   KS_NETWORK+2,Q           cn=0,n=8
         4 000320   200020 000010                    ADSC9   NODENAME,,AUTO           cn=0,n=8

     2181    10114    5                       FOUND = '1'B;

  10114  4 000321   400000 236003                    LDQ     -131072,DU
         4 000322   200022 756100                    STQ     FOUND,,AUTO

PL6.E3A0      #002=KSC$DELETE File=KSC$COMMANDS2.:E05TSI                         WED 07/30/97 01:46 Page:403
     2182    10115    5                       DELINDX = I;

  10115  4 000323   200012 235100                    LDA     I,,AUTO
         4 000324   200015 755100                    STA     DELINDX,,AUTO

     2183    10116    5                       EXIT NDSRCH;

  10116  4 000325   000333 710000 4                  TRA     s:10119

     2184    10117    5                       END;   /* IF */
     2185    10118    4                    END;  /* DO I */

  10118  4 000326   000001 036007                    ADLQ    1,DL
         4 000327   200012 756100                    STQ     I,,AUTO
         4 000330   000601 236000 2                  LDQ     KS_NETWORK
         4 000331   200012 116100                    CMPQ    I,,AUTO
         4 000332   000312 603000 4                  TRC     s:10112

     2186    10119    4                 IF NOT FOUND THEN DO;

  10119  4 000333   200022 234100                    SZN     FOUND,,AUTO
         4 000334   000352 604000 4                  TMI     s:10128

     2187    10120    4                    KS_SUB_BUF_1.COUNT = OUT$BLK.SUBLK$(0)->OUT$SYM.COUNT;

  10120  4 000335   200003 470500                    LDP0    @TOP$,,AUTO
         4 000336   000000 471500                    LDP1    0,,PR0
         4 000337   100003 473500                    LDP3    3,,PR1
         4 000340   300004 236100                    LDQ     4,,PR3
         4 000341   000000 552040 xsym               STBQ    KS_SUB_BUF_1,'40'O

     2188    10121    4                    KS_SUB_BUF_1.TEXT = NODENAME;

  10121  4 000342   040000 100500                    MLR     fill='040'O
         4 000343   200020 000010                    ADSC9   NODENAME,,AUTO           cn=0,n=8
         4 000344   000000 200037 xsym               ADSC9   KS_SUB_BUF_1             cn=1,n=31

PL6.E3A0      #002=KSC$DELETE File=KSC$COMMANDS2.:E05TSI                         WED 07/30/97 01:46 Page:404
     2189    10122    4                    CALL KSE$ERRMSG(%E$KS_UNDEFNODE,VECTOR(KS_SUB_BUF_1));

  10122  4 000345   000041 630400 5                  EPPR0   33
         4 000346   000020 631400 xsym               EPPR1   B_VECTNIL+16
         4 000347   000000 701000 xent               TSX1    KSE$ERRMSG
         4 000350   000000 011000                    NOP     0

     2190    10123                         /*E* ERROR: KSN-E$KS_UNDEFNODE-0
     2191    10124                              MESSAGE: Node %U1 has not been defined.
     2192    10125                              DESCRIPTION: SEE MESSAGE */
     2193    10126    4                    RETURN;

  10126  4 000351   000000 702200 xent               TSX2  ! X66_ARET

     2194    10127    4                    END;  /* IF NOT FOUND */
     2195    10128    3                 KS_NETWORK.NODE.TYPE (DELINDX) = 0;

  10128  4 000352   200015 236100                    LDQ     DELINDX,,AUTO
         4 000353   000005 402007                    MPY     5,DL
         4 000354   000602 450006 2                  STZ     KS_NETWORK+1,QL

     2196    10129    3                 KS_NETWORK.NODE.NODE (DELINDX) = ' ';

  10129  4 000355   000000 620006                    EAX0    0,QL
         4 000356   000000 621006                    EAX1    0,QL
         4 000357   000035 235000 xsym               LDA     B_VECTNIL+29
         4 000360   000035 236000 xsym               LDQ     B_VECTNIL+29
         4 000361   000603 755010 2                  STA     KS_NETWORK+2,X0
         4 000362   000604 756011 2                  STQ     KS_NETWORK+3,X1

     2197    10130    3                 WRITE_NETCON.KEY_ = VECTOR(KS_NETWORK_KEY);

  10130  4 000363   000002 237000 5                  LDAQ    2
         4 000364   005634 757000 2                  STAQ    WRITE_NETCON+2

     2198    10131    3                 WRITE_NETCON.BUF_ = VECTOR(KS_NETWORK);

PL6.E3A0      #002=KSC$DELETE File=KSC$COMMANDS2.:E05TSI                         WED 07/30/97 01:46 Page:405
  10131  4 000365   000004 237000 5                  LDAQ    4
         4 000366   005636 757000 2                  STAQ    WRITE_NETCON+4

     2199    10132    3                WRITE_NETCON.BUF_.BOUND = SIZEV(KS_NETWORK) - SIZEC(KS_NETWORK.NODE) +
             10132                          KS_NETWORK.NODE# * SIZEC(KS_NETWORK.NODE(0));

  10132  4 000367   000601 236000 2                  LDQ     KS_NETWORK
         4 000370   000024 402007                    MPY     20,DL
         4 000371   000003 036007                    ADLQ    3,DL
         4 000372   000020 736000                    QLS     16
         4 000373   005636 676000 2                  ERQ     WRITE_NETCON+4
         4 000374   000034 376000 xsym               ANQ     B_VECTNIL+28
         4 000375   005636 656000 2                  ERSQ    WRITE_NETCON+4

     2200    10133    3                 CALL M$WRITE(WRITE_NETCON) ALTRET(DEL_ERR);

  10133  4 000376   005632 630400 2                  EPPR0   WRITE_NETCON
         4 000377   440001 713400                    CLIMB   alt,write
         4 000400   401400 401760                    pmme    nvectors=4
         4 000401   001241 702000 4                  TSX2    DEL_ERR

     2201    10134    3                KS_RFEP.NODE.TYPE (DELINDX) = 0;

  10134  4 000402   200015 236100                    LDQ     DELINDX,,AUTO
         4 000403   000005 402007                    MPY     5,DL
         4 000404   003205 450006 2                  STZ     KS_RFEP+1,QL

     2202    10135    3                WRITE_NETCON.KEY_ = VECTOR(KS_RFEP_KEY);

  10135  4 000405   000032 237000 5                  LDAQ    26
         4 000406   005634 757000 2                  STAQ    WRITE_NETCON+2

     2203    10136    3                WRITE_NETCON.BUF_ = VECTOR(KS_RFEP);

  10136  4 000407   000034 237000 5                  LDAQ    28
         4 000410   005636 757000 2                  STAQ    WRITE_NETCON+4

PL6.E3A0      #002=KSC$DELETE File=KSC$COMMANDS2.:E05TSI                         WED 07/30/97 01:46 Page:406
     2204    10137    3                WRITE_NETCON.BUF_.BOUND = SIZEV(KS_RFEP) - SIZEC(KS_RFEP.NODE) +
             10137                         KS_RFEP.NODE# * SIZEC(KS_RFEP.NODE(0));

  10137  4 000411   003204 236000 2                  LDQ     KS_RFEP
         4 000412   000024 402007                    MPY     20,DL
         4 000413   000003 036007                    ADLQ    3,DL
         4 000414   000020 736000                    QLS     16
         4 000415   005636 676000 2                  ERQ     WRITE_NETCON+4
         4 000416   000034 376000 xsym               ANQ     B_VECTNIL+28
         4 000417   005636 656000 2                  ERSQ    WRITE_NETCON+4

     2205    10138    3                CALL M$WRITE(WRITE_NETCON) ALTRET(DEL_ERR);

  10138  4 000420   005632 630400 2                  EPPR0   WRITE_NETCON
         4 000421   440001 713400                    CLIMB   alt,write
         4 000422   401400 401760                    pmme    nvectors=4
         4 000423   001241 702000 4                  TSX2    DEL_ERR

     2206    10139        /*
     2207    10140                delete all of the configuration records (if any) associated
     2208    10141                with this node.  However, if the node is 0 and the channel
     2209    10142                is 0 then this key belongs to SUPER and we should leave it
     2210    10143                alone.
     2211    10144        */
     2212    10145    3                 IF NODE ~= 0 THEN

  10145  4 000424   200010 235100                    LDA     NODE,,AUTO
         4 000425   000477 600000 4                  TZE     s:10169

     2213    10146    4                    DO;   /* dont delete configs if node = 0 */

     2214    10147    4                 KS_CONFIG_KEY.NODE = NODE;

  10147  4 000426   200010 236100                    LDQ     NODE,,AUTO
         4 000427   000011 736000                    QLS     9
         4 000430   000574 552010 2                  STBQ    KS_CONFIG_KEY,'10'O

PL6.E3A0      #002=KSC$DELETE File=KSC$COMMANDS2.:E05TSI                         WED 07/30/97 01:46 Page:407
     2215    10148    4                 KS_CONFIG_KEY.TERMID = '0'B;

  10148  4 000431   000000 100400                    MLR     fill='000'O
         4 000432   000002 000001 xsym               ADSC9   B_VECTNIL+2              cn=0,n=1
         4 000433   000574 600020 2                  ADSC9   KS_CONFIG_KEY            cn=3,n=16

     2216    10149                         /* delete config records */
     2217    10150                         /* change prompt if same as deleted node */
     2218    10151
     2219    10152    4                    IF NODE = KS_NODE THEN

  10152  4 000434   200010 236100                    LDQ     NODE,,AUTO
         4 000435   000453 604000 4                  TMI     s:10159
         4 000436   000000 116000 xsym               CMPQ    KS_NODE
         4 000437   000453 601000 4                  TNZ     s:10159

     2220    10153    5                       DO;

     2221    10154    5                       KS_NODE = 0;

  10154  4 000440   000000 450000 xsym               STZ     KS_NODE

     2222    10155    5                       KS_NODENAME = KS_NETWORK.NODE.NODE(0);

  10155  4 000441   040000 100400                    MLR     fill='040'O
         4 000442   000603 000010 2                  ADSC9   KS_NETWORK+2             cn=0,n=8
         4 000443   000000 000010 xsym               ADSC9   KS_NODENAME              cn=0,n=8

     2223    10156    5                       KS_NODENAME_SV = ' ';

  10156  4 000444   000035 235000 xsym               LDA     B_VECTNIL+29
         4 000445   000035 236000 xsym               LDQ     B_VECTNIL+29
         4 000446   000000 755000 xsym               STA     KS_NODENAME_SV
         4 000447   000001 756000 xsym               STQ     KS_NODENAME_SV+1

     2224    10157    5                       PROMPT.NODENAME = 'HOST';

PL6.E3A0      #002=KSC$DELETE File=KSC$COMMANDS2.:E05TSI                         WED 07/30/97 01:46 Page:408
  10157  4 000450   040000 100400                    MLR     fill='040'O
         4 000451   000004 000004 1                  ADSC9   HEX_CHARS+4              cn=0,n=4
         4 000452   000000 000010 xsym               ADSC9   PROMPT                   cn=0,n=8

     2225    10158    5                       END;

     2226    10159    4                    KS_CONFIG_KEY.TERMID.TERM.TERM_NAME = ' ';

  10159  4 000453   040000 100400                    MLR     fill='040'O
         4 000454   000035 000001 xsym               ADSC9   B_VECTNIL+29             cn=0,n=1
         4 000455   000576 600010 2                  ADSC9   KS_CONFIG_KEY+2          cn=3,n=8

     2227    10160    4                    KS_CONFIG_KEY.NODE = NODE;

  10160  4 000456   200010 236100                    LDQ     NODE,,AUTO
         4 000457   000011 736000                    QLS     9
         4 000460   000574 552010 2                  STBQ    KS_CONFIG_KEY,'10'O

     2228    10161    4                    DELETE_NETCON.KEY_ = VECTOR (KS_CONFIG_KEY);

  10161  4 000461   000044 237000 5                  LDAQ    36
         4 000462   005650 757000 2                  STAQ    DELETE_NETCON+2

     2229    10162    4                    KS_CONFIG_LKEY.NODE = NODE;

  10162  4 000463   200010 236100                    LDQ     NODE,,AUTO
         4 000464   000011 736000                    QLS     9
         4 000465   000014 552010 2                  STBQ    KS_CONFIG_LKEY,'10'O

     2230    10163    4                    KS_CONFIG_LKEY.TERMID.TTYP = BITBIN('777'O);

  10163  4 000466   000777 236007                    LDQ     511,DL
         4 000467   000014 552004 2                  STBQ    KS_CONFIG_LKEY,'04'O

     2231    10164    4                    KS_CONFIG_LKEY.TERMID.LEV = BITBIN('777'O);

  10164  4 000470   777000 236003                    LDQ     -512,DU
PL6.E3A0      #002=KSC$DELETE File=KSC$COMMANDS2.:E05TSI                         WED 07/30/97 01:46 Page:409
         4 000471   000015 552040 2                  STBQ    KS_CONFIG_LKEY+1,'40'O

     2232    10165    4                    DELETE_NETCON.LKEY_ = VECTOR (KS_CONFIG_LKEY);

  10165  4 000472   000046 237000 5                  LDAQ    38
         4 000473   005652 757000 2                  STAQ    DELETE_NETCON+4

     2233    10166    4                    CALL M$DELREC(DELETE_NETCON);

  10166  4 000474   005646 630400 2                  EPPR0   DELETE_NETCON
         4 000475   040002 713400                    CLIMB   16386
         4 000476   401400 401760                    pmme    nvectors=4

     2234    10167    4                       END;  /* dont delete config records if node=0 */

     2235    10168                         /* delete default records */
     2236    10169    3                    KS_DFLT_KEY.NODE = NODE;

  10169  4 000477   200010 236100                    LDQ     NODE,,AUTO
         4 000500   000011 736000                    QLS     9
         4 000501   000006 552010 2                  STBQ    KS_DFLT_KEY,'10'O

     2237    10170    3                    KS_DFLT_KEY.HNDLR = ' ';

  10170  4 000502   040000 100400                    MLR     fill='040'O
         4 000503   000035 000001 xsym               ADSC9   B_VECTNIL+29             cn=0,n=1
         4 000504   000006 600010 2                  ADSC9   KS_DFLT_KEY              cn=3,n=8

     2238    10171    3                    KS_DFLT_LKEY = KS_DFLT_KEY;

  10171  4 000505   000000 100400                    MLR     fill='000'O
         4 000506   000006 000013 2                  ADSC9   KS_DFLT_KEY              cn=0,n=11
         4 000507   000011 000013 2                  ADSC9   KS_DFLT_LKEY             cn=0,n=11

     2239    10172    3                    KS_DFLT_LKEY.HNDLR = '~~~~~';

  10172  4 000510   040000 100400                    MLR     fill='040'O
PL6.E3A0      #002=KSC$DELETE File=KSC$COMMANDS2.:E05TSI                         WED 07/30/97 01:46 Page:410
         4 000511   000005 000005 1                  ADSC9   HEX_CHARS+5              cn=0,n=5
         4 000512   000011 600010 2                  ADSC9   KS_DFLT_LKEY             cn=3,n=8

     2240    10173    3                    DELETE_NETCON.KEY_ = VECTOR(KS_DFLT_KEY);

  10173  4 000513   000050 237000 5                  LDAQ    40
         4 000514   005650 757000 2                  STAQ    DELETE_NETCON+2

     2241    10174    3                    DELETE_NETCON.LKEY_ = VECTOR(KS_DFLT_LKEY);

  10174  4 000515   000052 237000 5                  LDAQ    42
         4 000516   005652 757000 2                  STAQ    DELETE_NETCON+4

     2242    10175    3                    CALL M$DELREC(DELETE_NETCON);

  10175  4 000517   005646 630400 2                  EPPR0   DELETE_NETCON
         4 000520   040002 713400                    CLIMB   16386
         4 000521   401400 401760                    pmme    nvectors=4

     2243    10176                         /* delete handler records  */
     2244    10177    3                    KS_HNDLR_KEY.NODE = NODE;

  10177  4 000522   200010 236100                    LDQ     NODE,,AUTO
         4 000523   000011 736000                    QLS     9
         4 000524   000000 552010 2                  STBQ    KS_HNDLR_KEY,'10'O

     2245    10178    3                    KS_HNDLR_KEY.HNDLR = ' ';

  10178  4 000525   040000 100400                    MLR     fill='040'O
         4 000526   000035 000001 xsym               ADSC9   B_VECTNIL+29             cn=0,n=1
         4 000527   000000 600010 2                  ADSC9   KS_HNDLR_KEY             cn=3,n=8

     2246    10179    3                    KS_HNDLR_LKEY.HNDLR = '~~~~~~~';

  10179  4 000530   040000 100400                    MLR     fill='040'O
         4 000531   000007 000007 1                  ADSC9   HEX_CHARS+7              cn=0,n=7
         4 000532   000003 600010 2                  ADSC9   KS_HNDLR_LKEY            cn=3,n=8
PL6.E3A0      #002=KSC$DELETE File=KSC$COMMANDS2.:E05TSI                         WED 07/30/97 01:46 Page:411

     2247    10180    3                    KS_HNDLR_LKEY.NODE = NODE;

  10180  4 000533   200010 236100                    LDQ     NODE,,AUTO
         4 000534   000011 736000                    QLS     9
         4 000535   000003 552010 2                  STBQ    KS_HNDLR_LKEY,'10'O

     2248    10181    3                    DELETE_NETCON.KEY_ = VECTOR(KS_HNDLR_KEY);

  10181  4 000536   000054 237000 5                  LDAQ    44
         4 000537   005650 757000 2                  STAQ    DELETE_NETCON+2

     2249    10182    3                    DELETE_NETCON.LKEY_ = VECTOR(KS_HNDLR_LKEY);

  10182  4 000540   000056 237000 5                  LDAQ    46
         4 000541   005652 757000 2                  STAQ    DELETE_NETCON+4

     2250    10183    3                    CALL M$DELREC (DELETE_NETCON);

  10183  4 000542   005646 630400 2                  EPPR0   DELETE_NETCON
         4 000543   040002 713400                    CLIMB   16386
         4 000544   401400 401760                    pmme    nvectors=4

     2251    10184                         /* delete boot record */
     2252    10185    3                    KS_FEPBOOT_KEY.NODE = NODE;

  10185  4 000545   200010 236100                    LDQ     NODE,,AUTO
         4 000546   000011 736000                    QLS     9
         4 000547   000021 552010 2                  STBQ    KS_FEPBOOT_KEY,'10'O

     2253    10186    3                    DELETE_NETCON.KEY_ = VECTOR(KS_FEPBOOT_KEY);

  10186  4 000550   000060 237000 5                  LDAQ    48
         4 000551   005650 757000 2                  STAQ    DELETE_NETCON+2

     2254    10187    3                    DELETE_NETCON.LKEY_ = VECTOR(KS_FEPBOOT_KEY);

PL6.E3A0      #002=KSC$DELETE File=KSC$COMMANDS2.:E05TSI                         WED 07/30/97 01:46 Page:412
  10187  4 000552   000060 237000 5                  LDAQ    48
         4 000553   005652 757000 2                  STAQ    DELETE_NETCON+4

     2255    10188    3                    CALL M$DELREC (DELETE_NETCON);

  10188  4 000554   005646 630400 2                  EPPR0   DELETE_NETCON
         4 000555   040002 713400                    CLIMB   16386
         4 000556   401400 401760                    pmme    nvectors=4

     2256    10189                         /* delete fep hndlr record */
     2257    10190    3                    KS_FEPHNDLR_KEY.NODE = NODE;

  10190  4 000557   200010 236100                    LDQ     NODE,,AUTO
         4 000560   000011 736000                    QLS     9
         4 000561   000022 552010 2                  STBQ    KS_FEPHNDLR_KEY,'10'O

     2258    10191    3                    DELETE_NETCON.KEY_ = VECTOR(KS_FEPHNDLR_KEY);

  10191  4 000562   000062 237000 5                  LDAQ    50
         4 000563   005650 757000 2                  STAQ    DELETE_NETCON+2

     2259    10192    3                    DELETE_NETCON.LKEY_ = VECTOR(KS_FEPHNDLR_KEY);

  10192  4 000564   000062 237000 5                  LDAQ    50
         4 000565   005652 757000 2                  STAQ    DELETE_NETCON+4

     2260    10193    3                    CALL M$DELREC(DELETE_NETCON);

  10193  4 000566   005646 630400 2                  EPPR0   DELETE_NETCON
         4 000567   040002 713400                    CLIMB   16386
         4 000570   401400 401760                    pmme    nvectors=4

     2261    10194
     2262    10195    3                    KS_FEPCTL_KEY.NODE = NODE;

  10195  4 000571   200010 236100                    LDQ     NODE,,AUTO
         4 000572   000011 736000                    QLS     9
PL6.E3A0      #002=KSC$DELETE File=KSC$COMMANDS2.:E05TSI                         WED 07/30/97 01:46 Page:413
         4 000573   000023 552010 2                  STBQ    KS_FEPCTL_KEY,'10'O

     2263    10196    3                    DELETE_NETCON.KEY_ = VECTOR(KS_FEPCTL_KEY);

  10196  4 000574   000064 237000 5                  LDAQ    52
         4 000575   005650 757000 2                  STAQ    DELETE_NETCON+2

     2264    10197    3                    DELETE_NETCON.LKEY_ = VECTOR(KS_FEPCTL_KEY);

  10197  4 000576   000064 237000 5                  LDAQ    52
         4 000577   005652 757000 2                  STAQ    DELETE_NETCON+4

     2265    10198    3                    CALL M$DELREC(DELETE_NETCON);

  10198  4 000600   005646 630400 2                  EPPR0   DELETE_NETCON
         4 000601   040002 713400                    CLIMB   16386
         4 000602   401400 401760                    pmme    nvectors=4

     2266    10199    3                    KS_LINK_KEY.NODE = NODE;

  10199  4 000603   200010 236100                    LDQ     NODE,,AUTO
         4 000604   000011 736000                    QLS     9
         4 000605   000024 552010 2                  STBQ    KS_LINK_KEY,'10'O

     2267    10200    3                    DELETE_NETCON.KEY_ = VECTOR(KS_LINK_KEY);

  10200  4 000606   000066 237000 5                  LDAQ    54
         4 000607   005650 757000 2                  STAQ    DELETE_NETCON+2

     2268    10201    3                    DELETE_NETCON.LKEY_ = VECTOR(KS_LINK_KEY);

  10201  4 000610   000066 237000 5                  LDAQ    54
         4 000611   005652 757000 2                  STAQ    DELETE_NETCON+4

     2269    10202    3                    CALL M$DELREC(DELETE_NETCON);

  10202  4 000612   005646 630400 2                  EPPR0   DELETE_NETCON
PL6.E3A0      #002=KSC$DELETE File=KSC$COMMANDS2.:E05TSI                         WED 07/30/97 01:46 Page:414
         4 000613   040002 713400                    CLIMB   16386
         4 000614   401400 401760                    pmme    nvectors=4

     2270    10203    3                    KS_PSEUDO_KEY.NODE = NODE;

  10203  4 000615   200010 236100                    LDQ     NODE,,AUTO
         4 000616   000011 736000                    QLS     9
         4 000617   000573 552010 2                  STBQ    KS_PSEUDO_KEY,'10'O

     2271    10204    3                    DELETE_NETCON.KEY_ = VECTOR(KS_PSEUDO_KEY);

  10204  4 000620   000012 237000 5                  LDAQ    10
         4 000621   005650 757000 2                  STAQ    DELETE_NETCON+2

     2272    10205    3                    DELETE_NETCON.LKEY_ = VECTOR(KS_PSEUDO_KEY);

  10205  4 000622   000012 237000 5                  LDAQ    10
         4 000623   005652 757000 2                  STAQ    DELETE_NETCON+4

     2273    10206    3                    CALL M$DELREC(DELETE_NETCON);

  10206  4 000624   005646 630400 2                  EPPR0   DELETE_NETCON
         4 000625   040002 713400                    CLIMB   16386
         4 000626   401400 401760                    pmme    nvectors=4

     2274    10207    3   UPDATE.CODE = %IGA_UPDATE;

  10207  4 000627   005605 470400 2                  LDP0    HDR$
         4 000630   026000 236003                    LDQ     11264,DU
         4 000631   000000 552140                    STBQ    0,'40'O,PR0

     2275    10208    4   CALL KSR$WR_HLPCG(VECTOR(UPDATE)) WHENALTRETURN DO; END;

  10208  4 000632   000070 235000 5                  LDA     56
         4 000633   005605 236000 2                  LDQ     HDR$
         4 000634   200024 757100                    STAQ    FOUND+2,,AUTO
         4 000635   200024 631500                    EPPR1   FOUND+2,,AUTO
PL6.E3A0      #002=KSC$DELETE File=KSC$COMMANDS2.:E05TSI                         WED 07/30/97 01:46 Page:415
         4 000636   200026 451500                    STP1    FOUND+4,,AUTO
         4 000637   200026 630500                    EPPR0   FOUND+4,,AUTO
         4 000640   000017 631400 xsym               EPPR1   B_VECTNIL+15
         4 000641   000000 701000 xent               TSX1    KSR$WR_HLPCG
         4 000642   000644 702000 4                  TSX2    s:10210
         4 000643   000644 710000 4                  TRA     s:10210

     2276    10209
     2277    10210    3                 END;                      /* ELSE                               */

  10210  4 000644   001240 710000 4                  TRA     s:10321

     2278    10211        %EJECT;
PL6.E3A0      #002=KSC$DELETE File=KSC$COMMANDS2.:E05TSI                         WED 07/30/97 01:46 Page:416
     2279    10212    2   CASE (%KS_LINKS);

     2280    10213    3              IF KS_NODENAME = 'HOST' THEN DO;

  10213  4 000645   040000 106400                    CMPC    fill='040'O
         4 000646   000000 000010 xsym               ADSC9   KS_NODENAME              cn=0,n=8
         4 000647   000004 000004 1                  ADSC9   HEX_CHARS+4              cn=0,n=4
         4 000650   000656 601000 4                  TNZ     s:10217

     2281    10214    3                 CALL KSE$ERRMSG(%E$KS_NONODE);

  10214  4 000651   000000 630400 5                  EPPR0   0
         4 000652   000017 631400 xsym               EPPR1   B_VECTNIL+15
         4 000653   000000 701000 xent               TSX1    KSE$ERRMSG
         4 000654   000000 011000                    NOP     0

     2282    10215    3                 RETURN;

  10215  4 000655   000000 702200 xent               TSX2  ! X66_ARET

     2283    10216    3                 END;  /* IF KS_NODENAME = 'HOST' */
     2284    10217    2           CALL KSU$READ_NETCON(VECTOR(KS_NETWORK_KEY),VECTOR(KS_NETWORK))

  10217  4 000656   000006 630400 5                  EPPR0   6
         4 000657   000020 631400 xsym               EPPR1   B_VECTNIL+16
         4 000660   000000 701000 xent               TSX1    KSU$READ_NETCON
         4 000661   001241 702000 4                  TSX2    DEL_ERR

     2285    10218    2              ALTRET(DEL_ERR);
     2286    10219    2           IF KS_NETWORK.NODE.TYPE(KS_NODE) = %KS_HOST OR

  10219  4 000662   000000 236000 xsym               LDQ     KS_NODE
         4 000663   000005 402007                    MPY     5,DL
         4 000664   000602 235006 2                  LDA     KS_NETWORK+1,QL
         4 000665   000001 115007                    CMPA    1,DL
         4 000666   000671 600000 4                  TZE     s:10222
         4 000667   000003 115007                    CMPA    3,DL
PL6.E3A0      #002=KSC$DELETE File=KSC$COMMANDS2.:E05TSI                         WED 07/30/97 01:46 Page:417
         4 000670   000676 601000 4                  TNZ     s:10226

     2287    10220    2              KS_NETWORK.NODE.TYPE(KS_NODE) = %KS_ME THEN
     2288    10221    3              DO;

     2289    10222    3                 CALL KSE$ERRMSG (%E$KS_BAD_NODE_TYPE-0);

  10222  4 000671   000011 630400 5                  EPPR0   9
         4 000672   000017 631400 xsym               EPPR1   B_VECTNIL+15
         4 000673   000000 701000 xent               TSX1    KSE$ERRMSG
         4 000674   000000 011000                    NOP     0

     2290    10223    3                 RETURN;

  10223  4 000675   000000 702200 xent               TSX2  ! X66_ARET

     2291    10224    3              END;
     2292    10225
     2293    10226    2         KS_LINK_KEY.NODE = KS_NODE;

  10226  4 000676   000000 236000 xsym               LDQ     KS_NODE
         4 000677   000011 736000                    QLS     9
         4 000700   000024 552010 2                  STBQ    KS_LINK_KEY,'10'O

     2294    10227
     2295    10228    2         IF OUT$BLK.NSUBLKS = 0  THEN        /*DELETE LINKS ALL*/

  10228  4 000701   200003 470500                    LDP0    @TOP$,,AUTO
         4 000702   000000 471500                    LDP1    0,,PR0
         4 000703   100001 220100                    LDX0    1,,PR1
         4 000704   000710 601000 4                  TNZ     s:10232

     2296    10229    2            KS_LINK.LINKS# = 0;

  10229  4 000705   000000 473400 xsym               LDP3    KS_MSGBUF$
         4 000706   300000 450100                    STZ     0,,PR3
         4 000707   001050 710000 4                  TRA     s:10262
PL6.E3A0      #002=KSC$DELETE File=KSC$COMMANDS2.:E05TSI                         WED 07/30/97 01:46 Page:418

     2297    10230    2         ELSE
     2298    10231    3            DO;

     2299    10232    3               READ_NETCON.BUF_ = VECTOR(KS_MSGBUF);

  10232  4 000710   000072 237000 5                  LDAQ    58
         4 000711   005620 757000 2                  STAQ    READ_NETCON+4

     2300    10233    3               READ_NETCON.KEY_ = VECTOR(KS_LINK_KEY);

  10233  4 000712   000066 237000 5                  LDAQ    54
         4 000713   005616 757000 2                  STAQ    READ_NETCON+2

     2301    10234    3               CALL M$READ(READ_NETCON) WHENALTRETURN

  10234  4 000714   005614 630400 2                  EPPR0   READ_NETCON
         4 000715   440000 713400                    CLIMB   alt,read
         4 000716   401400 401760                    pmme    nvectors=4
         4 000717   000721 702000 4                  TSX2    s:10238
         4 000720   000721 710000 4                  TRA     s:10238

     2302    10235    4                  DO;

     2303    10236                    /*N* do error message which indicates to links defined for this node */
     2304    10237    4                  END;

     2305    10238    4               DO I = 0 TO OUT$BLK.NSUBLKS - 1;

  10238  4 000721   200012 450100                    STZ     I,,AUTO
         4 000722   001041 710000 4                  TRA     s:10260+3

     2306    10239    4                  IN$ = OUT$BLK.SUBLK$(I);

  10239  4 000723   200003 470500                    LDP0    @TOP$,,AUTO
         4 000724   000000 471500                    LDP1    0,,PR0
         4 000725   200012 720100                    LXL0    I,,AUTO
PL6.E3A0      #002=KSC$DELETE File=KSC$COMMANDS2.:E05TSI                         WED 07/30/97 01:46 Page:419
         4 000726   100003 236110                    LDQ     3,X0,PR1
         4 000727   200007 756100                    STQ     IN$,,AUTO

     2307    10240    4                  TEMP_LINK = '0'B;

  10240  4 000730   000000 221003                    LDX1    0,DU
         4 000731   005606 741000 2                  STX1    TEMP_LINK

     2308    10241    4                  OFFSET = 4 - IN$->OUT$SYM.COUNT;

  10241  4 000732   200007 471500                    LDP1    IN$,,AUTO
         4 000733   100004 236100                    LDQ     4,,PR1
         4 000734   000033 772000                    QRL     27
         4 000735   000027 676000 xsym               ERQ     B_VECTNIL+23
         4 000736   000005 036007                    ADLQ    5,DL
         4 000737   200005 756100                    STQ     OFFSET,,AUTO

     2309    10242    5                  DO J = OFFSET TO 3;

  10242  4 000740   200013 756100                    STQ     J,,AUTO
         4 000741   000764 710000 4                  TRA     s:10245+3

     2310    10243    5                     CALL INDEX (TEMP,SUBSTR(IN$->OUT$SYM.TEXT,J-OFFSET,1),HEX_CHARS);

  10243  4 000742   200007 470500                    LDP0    IN$,,AUTO
         4 000743   000004 236100                    LDQ     4,,PR0
         4 000744   000033 772000                    QRL     27
         4 000745   000000 620006                    EAX0    0,QL
         4 000746   200013 236100                    LDQ     J,,AUTO
         4 000747   200005 136100                    SBLQ    OFFSET,,AUTO
         4 000750   000106 124400                    SCM     mask='000'O
         4 000751   000000 000020 1                  ADSC9   HEX_CHARS                cn=0,n=16
         4 000752   000004 200001                    ADSC9   4,Q,PR0                  cn=1,n=1
         4 000753   200006 000100                    ARG     TEMP,,AUTO

     2311    10244    5                     HEX$(J)->HEX = TEMP;

PL6.E3A0      #002=KSC$DELETE File=KSC$COMMANDS2.:E05TSI                         WED 07/30/97 01:46 Page:420
  10244  4 000754   200013 721100                    LXL1    J,,AUTO
         4 000755   005607 471411 2                  LDP1    HEX$,X1
         4 000756   003100 061500                    CSR     bolr='003'O
         4 000757   200006 000044                    BDSC    TEMP,,AUTO               by=0,bit=0,n=36
         4 000760   100000 000004                    BDSC    0,,PR1                   by=0,bit=0,n=4

     2312    10245    5                  END;

  10245  4 000761   200013 235100                    LDA     J,,AUTO
         4 000762   000001 035007                    ADLA    1,DL
         4 000763   200013 755100                    STA     J,,AUTO
         4 000764   200013 235100                    LDA     J,,AUTO
         4 000765   000004 115007                    CMPA    4,DL
         4 000766   000742 602000 4                  TNC     s:10243

     2313    10246
     2314    10247    4   FIND_LINK_LOOP:
     2315    10248    5                  DO J = 0 TO KS_LINK.LINKS# - 1;

  10248  4 000767   200013 450100       FIND_LINK_L* STZ     J,,AUTO
         4 000770   001003 710000 4                  TRA     s:10251+3

     2316    10249    5                     IF TEMP_LINK = KS_LINK.CHANNEL(J) THEN

  10249  4 000771   200013 235100                    LDA     J,,AUTO
         4 000772   000001 735000                    ALS     1
         4 000773   000000 470400 xsym               LDP0    KS_MSGBUF$
         4 000774   000105 106400                    CMPC    fill='000'O
         4 000775   005606 000002 2                  ADSC9   TEMP_LINK                cn=0,n=2
         4 000776   000001 000002                    ADSC9   1,A,PR0                  cn=0,n=2
         4 000777   001007 600000 4                  TZE     s:10253

     2317    10250    5                        EXIT FIND_LINK_LOOP;
     2318    10251    5                  END;

  10251  4 001000   200013 236100                    LDQ     J,,AUTO
         4 001001   000001 036007                    ADLQ    1,DL
PL6.E3A0      #002=KSC$DELETE File=KSC$COMMANDS2.:E05TSI                         WED 07/30/97 01:46 Page:421
         4 001002   200013 756100                    STQ     J,,AUTO
         4 001003   000000 470400 xsym               LDP0    KS_MSGBUF$
         4 001004   200013 236100                    LDQ     J,,AUTO
         4 001005   000000 116100                    CMPQ    0,,PR0
         4 001006   000771 602000 4                  TNC     s:10249

     2319    10252
     2320    10253    4                  IF J < KS_LINK.LINKS# THEN

  10253  4 001007   200013 236100                    LDQ     J,,AUTO
         4 001010   000000 116100                    CMPQ    0,,PR0
         4 001011   001036 603000 4                  TRC     s:10260

     2321    10254    5                     DO;

     2322    10255    6                        DO K = J TO KS_LINK.LINKS# - 2;

  10255  4 001012   200014 756100                    STQ     K,,AUTO
         4 001013   001025 710000 4                  TRA     s:10257+3

     2323    10256    6                           KS_LINK.CHANNEL(K) = KS_LINK.CHANNEL(K+1);

  10256  4 001014   200014 235100                    LDA     K,,AUTO
         4 001015   000001 735000                    ALS     1
         4 001016   000000 470400 xsym               LDP0    KS_MSGBUF$
         4 001017   000105 100505                    MLR     fill='000'O
         4 001020   000001 400002                    ADSC9   1,A,PR0                  cn=2,n=2
         4 001021   000001 000002                    ADSC9   1,A,PR0                  cn=0,n=2

     2324    10257    6                        END;

  10257  4 001022   200014 236100                    LDQ     K,,AUTO
         4 001023   000001 036007                    ADLQ    1,DL
         4 001024   200014 756100                    STQ     K,,AUTO
         4 001025   000000 470400 xsym               LDP0    KS_MSGBUF$
         4 001026   000000 236100                    LDQ     0,,PR0
         4 001027   000002 136007                    SBLQ    2,DL
PL6.E3A0      #002=KSC$DELETE File=KSC$COMMANDS2.:E05TSI                         WED 07/30/97 01:46 Page:422
         4 001030   001033 604000 4                  TMI     s:10258
         4 001031   200014 116100                    CMPQ    K,,AUTO
         4 001032   001014 603000 4                  TRC     s:10256

     2325    10258    5                        KS_LINK.LINKS# = KS_LINK.LINKS# - 1;

  10258  4 001033   000000 235100                    LDA     0,,PR0
         4 001034   000001 135007                    SBLA    1,DL
         4 001035   000000 755100                    STA     0,,PR0

     2326    10259    5                     END;

     2327    10260    4               END;

  10260  4 001036   200012 235100                    LDA     I,,AUTO
         4 001037   000001 035007                    ADLA    1,DL
         4 001040   200012 755100                    STA     I,,AUTO
         4 001041   200003 470500                    LDP0    @TOP$,,AUTO
         4 001042   000000 471500                    LDP1    0,,PR0
         4 001043   100001 236100                    LDQ     1,,PR1
         4 001044   000022 772000                    QRL     18
         4 001045   200012 116100                    CMPQ    I,,AUTO
         4 001046   001050 600000 4                  TZE     s:10262
         4 001047   000723 603000 4                  TRC     s:10239

     2328    10261    3            END;

     2329    10262    2     WRITE_NETCON.BUF_ = VECTOR(KS_MSGBUF);

  10262  4 001050   000072 237000 5                  LDAQ    58
         4 001051   005636 757000 2                  STAQ    WRITE_NETCON+4

     2330    10263    2     WRITE_NETCON.KEY_ = VECTOR(KS_LINK_KEY);

  10263  4 001052   000066 237000 5                  LDAQ    54
         4 001053   005634 757000 2                  STAQ    WRITE_NETCON+2

PL6.E3A0      #002=KSC$DELETE File=KSC$COMMANDS2.:E05TSI                         WED 07/30/97 01:46 Page:423
     2331    10264    2     IF KS_LINK.LINKS# <= 0 THEN

  10264  4 001054   000000 471400 xsym               LDP1    KS_MSGBUF$
         4 001055   100000 235100                    LDA     0,,PR1
         4 001056   001064 601000 4                  TNZ     s:10267

     2332    10265    2        WRITE_NETCON.BUF_.BOUND = SIZEC(KS_LINK.LINKS#) - 1;

  10265  4 001057   005636 236000 2                  LDQ     WRITE_NETCON+4
         4 001060   177777 376007                    ANQ     65535,DL
         4 001061   600000 276007                    ORQ     -65536,DL
         4 001062   005636 756000 2                  STQ     WRITE_NETCON+4
         4 001063   001073 710000 4                  TRA     s:10269

     2333    10266    2     ELSE
     2334    10267    2        WRITE_NETCON.BUF_.BOUND = SIZEC(KS_LINK.LINKS#) +

  10267  4 001064   100000 236100                    LDQ     0,,PR1
         4 001065   000001 736000                    QLS     1
         4 001066   000003 036007                    ADLQ    3,DL
         4 001067   000020 736000                    QLS     16
         4 001070   005636 676000 2                  ERQ     WRITE_NETCON+4
         4 001071   000034 376000 xsym               ANQ     B_VECTNIL+28
         4 001072   005636 656000 2                  ERSQ    WRITE_NETCON+4

     2335    10268    2                                  (SIZEC(KS_LINK.CHANNEL(0)) * KS_LINK.LINKS#) - 1;
     2336    10269    2     CALL M$WRITE(WRITE_NETCON) ALTRET(DEL_ERR);

  10269  4 001073   005632 630400 2                  EPPR0   WRITE_NETCON
         4 001074   440001 713400                    CLIMB   alt,write
         4 001075   401400 401760                    pmme    nvectors=4
         4 001076   001241 702000 4                  TSX2    DEL_ERR
         4 001077   001240 710000 4                  TRA     s:10321

     2337    10270        %EJECT;
PL6.E3A0      #002=KSC$DELETE File=KSC$COMMANDS2.:E05TSI                         WED 07/30/97 01:46 Page:424
     2338    10271    2        CASE (%KS_CONFIG);

     2339    10272    3              IF KS_NODENAME = 'HOST' THEN DO;

  10272  4 001100   040000 106400                    CMPC    fill='040'O
         4 001101   000000 000010 xsym               ADSC9   KS_NODENAME              cn=0,n=8
         4 001102   000004 000004 1                  ADSC9   HEX_CHARS+4              cn=0,n=4
         4 001103   001111 601000 4                  TNZ     s:10276

     2340    10273    3                 CALL KSE$ERRMSG(%E$KS_NONODE);

  10273  4 001104   000000 630400 5                  EPPR0   0
         4 001105   000017 631400 xsym               EPPR1   B_VECTNIL+15
         4 001106   000000 701000 xent               TSX1    KSE$ERRMSG
         4 001107   000000 011000                    NOP     0

     2341    10274    3                 RETURN;

  10274  4 001110   000000 702200 xent               TSX2  ! X66_ARET

     2342    10275    3                 END;  /* IF KS_NODENAME = 'HOST' */
     2343    10276    2           CALL KSU$READ_NETCON(VECTOR(KS_NETWORK_KEY),VECTOR(KS_NETWORK))

  10276  4 001111   000006 630400 5                  EPPR0   6
         4 001112   000020 631400 xsym               EPPR1   B_VECTNIL+16
         4 001113   000000 701000 xent               TSX1    KSU$READ_NETCON
         4 001114   001241 702000 4                  TSX2    DEL_ERR

     2344    10277    2              ALTRET(DEL_ERR);
     2345    10278    2           IF KS_NETWORK.NODE.TYPE(KS_NODE) = %KS_HOST OR

  10278  4 001115   000000 236000 xsym               LDQ     KS_NODE
         4 001116   000005 402007                    MPY     5,DL
         4 001117   000602 235006 2                  LDA     KS_NETWORK+1,QL
         4 001120   000001 115007                    CMPA    1,DL
         4 001121   001124 600000 4                  TZE     s:10281
         4 001122   000003 115007                    CMPA    3,DL
PL6.E3A0      #002=KSC$DELETE File=KSC$COMMANDS2.:E05TSI                         WED 07/30/97 01:46 Page:425
         4 001123   001131 601000 4                  TNZ     s:10285

     2346    10279    2              KS_NETWORK.NODE.TYPE(KS_NODE) = %KS_ME THEN
     2347    10280    3              DO;

     2348    10281    3                 CALL KSE$ERRMSG (%E$KS_BAD_NODE_TYPE-0);

  10281  4 001124   000011 630400 5                  EPPR0   9
         4 001125   000017 631400 xsym               EPPR1   B_VECTNIL+15
         4 001126   000000 701000 xent               TSX1    KSE$ERRMSG
         4 001127   000000 011000                    NOP     0

     2349    10282    3                 RETURN;

  10282  4 001130   000000 702200 xent               TSX2  ! X66_ARET

     2350    10283    3              END;
     2351    10284
     2352    10285    2           KS_CONFIG_KEY.NODE = KS_NODE;

  10285  4 001131   000000 236000 xsym               LDQ     KS_NODE
         4 001132   000011 736000                    QLS     9
         4 001133   000574 552010 2                  STBQ    KS_CONFIG_KEY,'10'O

     2353    10286    2           KS_CONFIG_LKEY.NODE = KS_NODE;

  10286  4 001134   000000 236000 xsym               LDQ     KS_NODE
         4 001135   000011 736000                    QLS     9
         4 001136   000014 552010 2                  STBQ    KS_CONFIG_LKEY,'10'O

     2354    10287    2           KS_CONFIG_KEY.TERMID = '0'B;

  10287  4 001137   000000 100400                    MLR     fill='000'O
         4 001140   000002 000001 xsym               ADSC9   B_VECTNIL+2              cn=0,n=1
         4 001141   000574 600020 2                  ADSC9   KS_CONFIG_KEY            cn=3,n=16

     2355    10288
PL6.E3A0      #002=KSC$DELETE File=KSC$COMMANDS2.:E05TSI                         WED 07/30/97 01:46 Page:426
     2356    10289    2           IF OUT$BLK.NSUBLKS = 0 THEN

  10289  4 001142   200003 470500                    LDP0    @TOP$,,AUTO
         4 001143   000000 471500                    LDP1    0,,PR0
         4 001144   100001 220100                    LDX0    1,,PR1
         4 001145   001153 601000 4                  TNZ     s:10296

     2357    10290    3              DO;

     2358    10291    3                 KS_CONFIG_LKEY.TERMID.TTYP = BITBIN ('777'O);

  10291  4 001146   000777 236007                    LDQ     511,DL
         4 001147   000014 552004 2                  STBQ    KS_CONFIG_LKEY,'04'O

     2359    10292    3                 KS_CONFIG_LKEY.TERMID.LEV  = BITBIN ('777'O);

  10292  4 001150   777000 236003                    LDQ     -512,DU
         4 001151   000015 552040 2                  STBQ    KS_CONFIG_LKEY+1,'40'O

     2360    10293    3              END;

  10293  4 001152   001220 710000 4                  TRA     s:10309

     2361    10294    2           ELSE
     2362    10295    3              DO;

     2363    10296    3                CALL KSU$BLD_TERMID(OUT$BLK.SUBLK$(0)->OUT$BLK.SUBLK$(0),KS_CONFIG_KEY
             10296                          .TERMID) ALTRET(NO_ERR);

  10296  4 001153   100003 473500                    LDP3    3,,PR1
         4 001154   000071 236000 5                  LDQ     57
         4 001155   200025 756100                    STQ     FOUND+3,,AUTO
         4 001156   300003 631500                    EPPR1   3,,PR3
         4 001157   200024 451500                    STP1    FOUND+2,,AUTO
         4 001160   200024 630500                    EPPR0   FOUND+2,,AUTO
         4 001161   000020 631400 xsym               EPPR1   B_VECTNIL+16
         4 001162   000000 701000 xent               TSX1    KSU$BLD_TERMID
PL6.E3A0      #002=KSC$DELETE File=KSC$COMMANDS2.:E05TSI                         WED 07/30/97 01:46 Page:427
         4 001163   001245 702000 4                  TSX2    NO_ERR

     2364    10297    3                 IF OUT$BLK.SUBLK$(0)->OUT$BLK.NSUBLKS = 2 THEN

  10297  4 001164   200003 470500                    LDP0    @TOP$,,AUTO
         4 001165   000000 471500                    LDP1    0,,PR0
         4 001166   100003 473500                    LDP3    3,,PR1
         4 001167   300001 220100                    LDX0    1,,PR3
         4 001170   000002 100003                    CMPX0   2,DU
         4 001171   001215 601000 4                  TNZ     s:10307

     2365    10298    4                    DO;

     2366    10299    4                       CALL KSU$BLD_TERMID(OUT$BLK.SUBLK$(0)->OUT$BLK.SUBLK$(1),
             10299                                KS_CONFIG_LKEY.TERMID) ALTRET(NO_ERR);

  10299  4 001172   000074 236000 5                  LDQ     60
         4 001173   200025 756100                    STQ     FOUND+3,,AUTO
         4 001174   300004 631500                    EPPR1   4,,PR3
         4 001175   200024 451500                    STP1    FOUND+2,,AUTO
         4 001176   200024 630500                    EPPR0   FOUND+2,,AUTO
         4 001177   000020 631400 xsym               EPPR1   B_VECTNIL+16
         4 001200   000000 701000 xent               TSX1    KSU$BLD_TERMID
         4 001201   001245 702000 4                  TSX2    NO_ERR

     2367    10300    4                      CALL KSU$CHK_TRM_RNG(KS_CONFIG_KEY.TERMID,KS_CONFIG_LKEY.TERMID)

  10300  4 001202   000075 630400 5                  EPPR0   61
         4 001203   000020 631400 xsym               EPPR1   B_VECTNIL+16
         4 001204   000000 701000 xent               TSX1    KSU$CHK_TRM_RNG
         4 001205   001207 702000 4                  TSX2    s:10302
         4 001206   001214 710000 4                  TRA     s:10305

     2368    10301    5                          WHENALTRETURN DO;

     2369    10302    5                             CALL KSE$ERRMSG (%E$KS_BAD_TRM_RANGE);

PL6.E3A0      #002=KSC$DELETE File=KSC$COMMANDS2.:E05TSI                         WED 07/30/97 01:46 Page:428
  10302  4 001207   000100 630400 5                  EPPR0   64
         4 001210   000017 631400 xsym               EPPR1   B_VECTNIL+15
         4 001211   000000 701000 xent               TSX1    KSE$ERRMSG
         4 001212   000000 011000                    NOP     0

     2370    10303    5                             GOTO NO_ERR;

  10303  4 001213   001245 710000 4                  TRA     NO_ERR

     2371    10304    5                          END;
     2372    10305    4                    END;

  10305  4 001214   001220 710000 4                  TRA     s:10309

     2373    10306    3                 ELSE
     2374    10307    3                    KS_CONFIG_LKEY.TERMID = KS_CONFIG_KEY.TERMID;

  10307  4 001215   000000 100400                    MLR     fill='000'O
         4 001216   000574 600020 2                  ADSC9   KS_CONFIG_KEY            cn=3,n=16
         4 001217   000014 600020 2                  ADSC9   KS_CONFIG_LKEY           cn=3,n=16

     2375    10308    3              END;

     2376    10309    2        IF KS_CONFIG_KEY.TERMID.TERM.TERM_NAME ~= ' ' THEN

  10309  4 001220   040000 106400                    CMPC    fill='040'O
         4 001221   000576 600010 2                  ADSC9   KS_CONFIG_KEY+2          cn=3,n=8
         4 001222   000035 000001 xsym               ADSC9   B_VECTNIL+29             cn=0,n=1
         4 001223   001231 600000 4                  TZE     s:10317

     2377    10310    3           DO;

     2378    10311    3              KS_CONFIG_KEY.NODE = 0;

  10311  4 001224   000000 236003                    LDQ     0,DU
         4 001225   000574 552010 2                  STBQ    KS_CONFIG_KEY,'10'O

PL6.E3A0      #002=KSC$DELETE File=KSC$COMMANDS2.:E05TSI                         WED 07/30/97 01:46 Page:429
     2379    10312    3              KS_CONFIG_KEY.TERMID.TERM.CHANNEL = '0'B;

  10312  4 001226   000575 552030 2                  STBQ    KS_CONFIG_KEY+1,'30'O

     2380    10313    3              KS_CONFIG_LKEY.NODE = 0;

  10313  4 001227   000014 552010 2                  STBQ    KS_CONFIG_LKEY,'10'O

     2381    10314    3              KS_CONFIG_LKEY.TERMID.TERM.CHANNEL = '0'B;

  10314  4 001230   000015 552030 2                  STBQ    KS_CONFIG_LKEY+1,'30'O

     2382    10315    3           END;

     2383    10316
     2384    10317    2           DELETE_NETCON.KEY_ = VECTOR(KS_CONFIG_KEY);

  10317  4 001231   000044 237000 5                  LDAQ    36
         4 001232   005650 757000 2                  STAQ    DELETE_NETCON+2

     2385    10318    2           DELETE_NETCON.LKEY_ = VECTOR(KS_CONFIG_LKEY);

  10318  4 001233   000046 237000 5                  LDAQ    38
         4 001234   005652 757000 2                  STAQ    DELETE_NETCON+4

     2386    10319    2           CALL M$DELREC(DELETE_NETCON);

  10319  4 001235   005646 630400 2                  EPPR0   DELETE_NETCON
         4 001236   040002 713400                    CLIMB   16386
         4 001237   401400 401760                    pmme    nvectors=4

     2387    10320    2              END;  /* DO CASE(CODE) */

     2388    10321    2        DO WHILE('0'B);

  10321  4 001240   001245 710000 4                  TRA     NO_ERR

PL6.E3A0      #002=KSC$DELETE File=KSC$COMMANDS2.:E05TSI                         WED 07/30/97 01:46 Page:430
  10320  4 001241                       DEL_ERR      null
     2389    10322    2   DEL_ERR:;
     2390    10323    2           CALL KSE$ERRMSG(0);

  10323  4 001241   000101 630400 5                  EPPR0   65
         4 001242   000017 631400 xsym               EPPR1   B_VECTNIL+15
         4 001243   000000 701000 xent               TSX1    KSE$ERRMSG
         4 001244   000000 011000                    NOP     0

     2391    10324    2           END;  /* DO NEVER */

  10322  4 001245                       NO_ERR       null
     2392    10325    1     NO_ERR:;
     2393    10326    1        RETURN;

  10326  4 001245   000000 702200 xent               TSX2  ! X66_ARET
     2394    10327    1   END KSC$DELETE;
     2395    10328        %EOD;

PL6.E3A0      #002=KSC$DELETE File=KSC$COMMANDS2.:E05TSI                         WED 07/30/97 01:46 Page:431
--  Include file information  --

   KL_AFCN_C.:E05TOU  is referenced.
   F$DCB.:E05TOU  cannot be made into a system file and is referenced.
   B_ERRORS_C.:E05TOU  is referenced.
   XU_MACRO_C.:E05TOU  is referenced.
   KS_PERR_C.:E05TOU  is referenced.
   KS_DATA_R.:E05TOU  cannot be made into a system file and is referenced.
   KS_SUBS_C.:E05TOU  is referenced.
   KS_MACRO_M.:E05TOU  is referenced.
   KL_CONFIG_M.:E05TOU  is referenced.
   KL_MACRO_C.:E05TOU  is referenced.
   CP_6.:E05TOU  cannot be made into a system file and is referenced.
   B$JIT_C.:E05TOU  was found in the system file and is never referenced.
   CP_6_C.:E05TOU  was found in the system file and is referenced.
      No diagnostics issued in procedure KSC$DELETE.
PL6.E3A0      #002=KSC$DELETE File=KSC$COMMANDS2.:E05TSI                         WED 07/30/97 01:46 Page:432

 **** Variables and constants ****

  ****  Section 001 RoData KSC$DELETE

  ****  Scalars and arrays  ****
OctLoc.c.b A Datatyp(siz) R M Lvl/name                 OctLoc.c.b A Datatyp(siz) R M Lvl/name

     0-0-0/c CHAR(16)    r     1 HEX_CHARS

  ****  Section 002  Data  KSC$DELETE

  ****  Scalars and arrays  ****
OctLoc.c.b A Datatyp(siz) R M Lvl/name                 OctLoc.c.b A Datatyp(siz) R M Lvl/name

  5646-0-0/d STRC(360)   r     1 DELETE_NETCON           5605-0-0/w PTR         r     1 HDR$
  5607-0-0/w PTR         r     1 HEX$(0:3)                574-0-0/c STRC(171)   r     1 KS_CONFIG_KEY
    14-0-0/c STRC(171)   r     1 KS_CONFIG_LKEY             6-0-0/w STRC(99)    r     1 KS_DFLT_KEY
    11-0-0/w STRC(99)    r     1 KS_DFLT_LKEY              21-0-0/w STRC(27)    r     1 KS_FEPBOOT_KEY
    23-0-0/w STRC(27)    r     1 KS_FEPCTL_KEY             22-0-0/w STRC(27)    r     1 KS_FEPHNDLR_KEY
     0-0-0/w STRC(99)    r     1 KS_HNDLR_KEY               3-0-0/w STRC(99)    r     1 KS_HNDLR_LKEY
    24-0-0/w STRC(27)    r     1 KS_LINK_KEY              601-0-0/w STRC(46116) r     1 KS_NETWORK
  3202-0-0/w STRC(18)    r     1 KS_NETWORK_KEY            25-0-0/w STRC(12888) r     1 KS_PSEUDO
   573-0-0/w STRC(27)    r     1 KS_PSEUDO_KEY           3204-0-0/w STRC(46116) r     1 KS_RFEP
  3203-0-0/w STRC(18)    r     1 KS_RFEP_KEY             5614-0-0/d STRC(504)   r     1 READ_NETCON
  5606-0-0/b STRC(18)    r     1 TEMP_LINK               5632-0-0/d STRC(432)   r     1 WRITE_NETCON

  ****  Auto variables  ****

  ****  Scalars and arrays  ****
OctLoc.c.b A Datatyp(siz) R M Lvl/name                 OctLoc.c.b A Datatyp(siz) R M Lvl/name

     3-0-0/w PTR         r     1 @TOP$                     15-0-0/w UBIN        r     1 DELINDX
    22-0-0/b BIT         r     1 FOUND                     12-0-0/w UBIN        r     1 I
     7-0-0/w PTR         r     1 IN$                       13-0-0/w UBIN        r     1 J
    14-0-0/w UBIN        r     1 K                         10-0-0/w UBIN        r     1 NODE
    20-0-0/c CHAR(8)     r     1 NODENAME                   5-0-0/w UBIN        r     1 OFFSET
    16-0-0/c CHAR(8)     r     1 PSEUDO_NAME                6-0-0/w UBIN        r     1 TEMP
PL6.E3A0      #002=KSC$DELETE File=KSC$COMMANDS2.:E05TSI                         WED 07/30/97 01:46 Page:433
    *0-0-0/w PTR         r     1 TOP$

  ****  SYMREF variables  ****

  ****  Scalars and arrays  ****
OctLoc.c.b A Datatyp(siz) R M Lvl/name                 OctLoc.c.b A Datatyp(siz) R M Lvl/name

     0-0-0/w PTR         r     1 B$TCB$                     0-0-0/c CHAR(400)   r     1 KS_MSGBUF
     0-0-0/w PTR         r     1 KS_MSGBUF$                 0-0-0/w SBIN        r     1 KS_NODE
     0-0-0/c CHAR(8)     r     1 KS_NODENAME                0-0-0/c CHAR(8)     r     1 KS_NODENAME_SV
     0-0-0/w STRC(288)   r     1 KS_SUB_BUF_1               0-0-0/w STRC(288)   r     1 KS_SUB_BUF_2
     0-0-0/c STRC(90)    r     1 PROMPT

  ****  BASED and DCB variables  ****

  ****  Scalars and arrays  ****
OctLoc.c.b A Datatyp(siz) R M Lvl/name                 OctLoc.c.b A Datatyp(siz) R M Lvl/name

     0-0-0/w STRC(2448)  r     1 B$ALT                      0-0-0/w STRC(144)   r     1 B$TCB
     0-0-0/d ASTR(3528)  r     1 F$DCB                      0-0-0/b UBIN(4)     r     1 HEX
     0-0-0/w STRC(54)    r     1 KS_LINK                    0-0-0N  NULL        r     1 M$NETCON
     0-0-0/w STRC(144)   r     1 OUT$BLK                    0-0-0/w ASTR(153)   r     1 OUT$SYM
     0-0-0/w STRC(306)   r     1 UPDATE


   Procedure KSC$DELETE requires 678 words for executable code.
   Procedure KSC$DELETE requires 24 words of local(AUTO) storage.
PL6.E3A0      #002=KSC$DELETE File=KSC$COMMANDS2.:E05TSI                         WED 07/30/97 01:46 Page:434
          *** CROSS REFERENCE LISTING ***
**     DENOTES     IDENTIFIER DEFINITION
<<                 IDENTIFIER'S VALUE SET
>>                 IDENTIFIER'S VALUE USED
<>                 IDENTIFIER SET AND/OR USED
--                 IDENTIFIER REFERENCED
PL6.E3A0      #002=KSC$DELETE File=KSC$COMMANDS2.:E05TSI                         WED 07/30/97 01:46 Page:435
          MINI XREF LISTING

B$ALT.CODE
      9751**DCL      9751--REDEF    9752--REDEF    9752--REDEF
B$ALT.ERR.CODE
      9753**DCL     10058>>IF      10096>>IF
B$ALT.ERR.ERR#
      9753**DCL      9753--REDEF
B$ALT.EVID
      9752**DCL      9752--REDEF    9752--REDEF
B$TCB.ALT$
      9747**DCL     10058>>IF      10096>>IF
B$TCB$
      9170**DCL     10058>>IF      10096>>IF
DELETE_NETCON
     10001**DCL     10166<>CALL    10175<>CALL    10183<>CALL    10188<>CALL    10193<>CALL    10198<>CALL
     10202<>CALL    10206<>CALL    10319<>CALL
DELETE_NETCON.KEY_
     10001**DCL     10161<<ASSIGN  10173<<ASSIGN  10181<<ASSIGN  10186<<ASSIGN  10191<<ASSIGN  10196<<ASSIGN
     10200<<ASSIGN  10204<<ASSIGN  10317<<ASSIGN
DELETE_NETCON.LKEY_
     10003**DCL     10165<<ASSIGN  10174<<ASSIGN  10182<<ASSIGN  10187<<ASSIGN  10192<<ASSIGN  10197<<ASSIGN
     10201<<ASSIGN  10205<<ASSIGN  10318<<ASSIGN
DELETE_NETCON.V
     10004**DCL     10001--DCLINIT
DELINDX
      9885**DCL     10070<<ASSIGN  10084>>DOINDEX 10115<<ASSIGN  10128>>ASSIGN  10129>>ASSIGN  10134>>ASSIGN
DEL_ERR
     10320**LABEL   10045--CALLALT 10059--GOTO    10091--CALLALT 10097--GOTO    10133--CALLALT 10138--CALLALT
     10217--CALLALT 10269--CALLALT 10276--CALLALT
F$DCB.ACTPOS
      8986**DCL      8986--REDEF
F$DCB.ARS
      8961**DCL      8961--REDEF
PL6.E3A0      #002=KSC$DELETE File=KSC$COMMANDS2.:E05TSI                         WED 07/30/97 01:46 Page:436
F$DCB.ATTR
      8979**DCL      8980--REDEF
F$DCB.BORROW
      8994**DCL      8994--REDEF    8994--REDEF    8994--REDEF
F$DCB.DCBNAME.L
      9008**DCL      9008--IMP-SIZ
F$DCB.EOMCHAR
      8965**DCL      8965--REDEF
F$DCB.FLDID
      8989**DCL      8989--REDEF
F$DCB.FORM$
      8983**DCL      8983--REDEF
F$DCB.FSECT
      8999**DCL      8999--REDEF
F$DCB.FSN
      8976**DCL      8976--REDEF    8976--REDEF    8977--REDEF
F$DCB.HEADER$
      8982**DCL      8982--REDEF
F$DCB.IXTNSIZE
      8980**DCL      8980--REDEF
F$DCB.LASTSTA$
      8970**DCL      8970--REDEF
F$DCB.LVL
      8995**DCL      8995--REDEF
F$DCB.NAME.C
      8970**DCL      8970--REDEF
F$DCB.NOEOF
      8991**DCL      8991--REDEF
F$DCB.NRECS
      8981**DCL      8981--REDEF
F$DCB.NRECX
      9000**DCL      9000--REDEF
F$DCB.OHDR
      8992**DCL      8992--REDEF
F$DCB.ORG
      8975**DCL      8975--REDEF
PL6.E3A0      #002=KSC$DELETE File=KSC$COMMANDS2.:E05TSI                         WED 07/30/97 01:46 Page:437
F$DCB.PRECNO
      8998**DCL      8998--REDEF
F$DCB.RCSZ
      9003**DCL      9003--REDEF
F$DCB.RES
      8971**DCL      8971--REDEF
F$DCB.SETX
      8983**DCL      8983--REDEF
F$DCB.TAB$
      8982**DCL      8983--REDEF
F$DCB.TDA
      8997**DCL      8997--REDEF
F$DCB.WSN
      8972**DCL      8972--REDEF
FIND_LINK_LOOP
     10248**LABEL   10250--EXIT
FOUND
      9888**DCL     10066<<ASSIGN  10069<<ASSIGN  10073>>IF      10109<<ASSIGN  10114<<ASSIGN  10119>>IF
HDR$
      9634**DCL      9773--IMP-PTR 10207>>ASSIGN  10208>>CALL
HEX
      9662**DCL     10244<<ASSIGN
HEX$
      9872**DCL     10244>>ASSIGN
HEX_CHARS
      9225**DCL     10243>>CALLBLT
I
      9882**DCL     10067<<DOINDEX 10068>>IF      10070>>ASSIGN  10084<<DOINDEX 10085>>ASSIGN  10085>>ASSIGN
     10111<<DOINDEX 10112>>IF      10113>>ASSIGN  10115>>ASSIGN  10238<<DOINDEX 10239>>ASSIGN
IN$
      9879**DCL     10239<<ASSIGN  10241>>ASSIGN  10243>>CALLBLT 10243>>CALLBLT
J
      9883**DCL     10242<<DOINDEX 10243>>CALLBLT 10244>>ASSIGN  10248<<DOINDEX 10249>>IF      10253>>IF
     10255>>DOINDEX
K
      9884**DCL     10255<<DOINDEX 10256>>ASSIGN  10256>>ASSIGN
PL6.E3A0      #002=KSC$DELETE File=KSC$COMMANDS2.:E05TSI                         WED 07/30/97 01:46 Page:438
KSE$ERRMSG
      9138**DCL-ENT 10042--CALL    10050--CALL    10062--CALL    10078--CALL    10106--CALL    10122--CALL
     10214--CALL    10222--CALL    10273--CALL    10281--CALL    10302--CALL    10323--CALL
KSR$WR_HLPCG
      9139**DCL-ENT 10208--CALL
KSU$BLD_TERMID
      9141**DCL-ENT 10296--CALL    10299--CALL
KSU$CHK_TRM_RNG
      9142**DCL-ENT 10300--CALL
KSU$READ_NETCON
      9140**DCL-ENT 10045--CALL    10217--CALL    10276--CALL
KS_CONFIG_KEY
      9526**DCL     10161--ASSIGN  10317--ASSIGN
KS_CONFIG_KEY.NODE
      9529**DCL     10147<<ASSIGN  10160<<ASSIGN  10285<<ASSIGN  10311<<ASSIGN
KS_CONFIG_KEY.TERMID
      9546**DCL     10148<<ASSIGN  10287<<ASSIGN  10296<>CALL    10300<>CALL    10307>>ASSIGN
KS_CONFIG_KEY.TERMID.TERM
      9548**DCL      9557--REDEF
KS_CONFIG_KEY.TERMID.TERM.CHANNEL
      9550**DCL     10312<<ASSIGN
KS_CONFIG_KEY.TERMID.TERM.TERM_NAME
      9557**DCL     10159<<ASSIGN  10309>>IF
KS_CONFIG_LKEY
      9345**DCL     10165--ASSIGN  10318--ASSIGN
KS_CONFIG_LKEY.NODE
      9348**DCL     10162<<ASSIGN  10286<<ASSIGN  10313<<ASSIGN
KS_CONFIG_LKEY.TERMID
      9365**DCL     10299<>CALL    10300<>CALL    10307<<ASSIGN
KS_CONFIG_LKEY.TERMID.LEV
      9367**DCL     10164<<ASSIGN  10292<<ASSIGN
KS_CONFIG_LKEY.TERMID.TERM
      9367**DCL      9376--REDEF
KS_CONFIG_LKEY.TERMID.TERM.CHANNEL
      9369**DCL     10314<<ASSIGN
KS_CONFIG_LKEY.TERMID.TTYP
PL6.E3A0      #002=KSC$DELETE File=KSC$COMMANDS2.:E05TSI                         WED 07/30/97 01:46 Page:439
      9367**DCL     10163<<ASSIGN  10291<<ASSIGN
KS_DFLT_KEY
      9307**DCL     10171>>ASSIGN  10173--ASSIGN
KS_DFLT_KEY.HNDLR
      9311**DCL     10170<<ASSIGN
KS_DFLT_KEY.NODE
      9310**DCL     10169<<ASSIGN
KS_DFLT_LKEY
      9326**DCL     10171<<ASSIGN  10174--ASSIGN
KS_DFLT_LKEY.HNDLR
      9330**DCL     10172<<ASSIGN
KS_FEPBOOT_KEY
      9392**DCL     10186--ASSIGN  10187--ASSIGN
KS_FEPBOOT_KEY.NODE
      9395**DCL     10185<<ASSIGN
KS_FEPCTL_KEY
      9428**DCL     10196--ASSIGN  10197--ASSIGN
KS_FEPCTL_KEY.NODE
      9431**DCL     10195<<ASSIGN
KS_FEPHNDLR_KEY
      9410**DCL     10191--ASSIGN  10192--ASSIGN
KS_FEPHNDLR_KEY.NODE
      9413**DCL     10190<<ASSIGN
KS_HNDLR_KEY
      9269**DCL     10181--ASSIGN
KS_HNDLR_KEY.HNDLR
      9273**DCL     10178<<ASSIGN
KS_HNDLR_KEY.NODE
      9272**DCL     10177<<ASSIGN
KS_HNDLR_LKEY
      9288**DCL     10182--ASSIGN
KS_HNDLR_LKEY.HNDLR
      9292**DCL     10179<<ASSIGN
KS_HNDLR_LKEY.NODE
      9291**DCL     10180<<ASSIGN
KS_LINK.CHANNEL
PL6.E3A0      #002=KSC$DELETE File=KSC$COMMANDS2.:E05TSI                         WED 07/30/97 01:46 Page:440
      4658**DCL     10249>>IF      10256<<ASSIGN  10256>>ASSIGN  10267--ASSIGN
KS_LINK.LINKS#
      4657**DCL     10229<<ASSIGN  10248>>DOINDEX 10253>>IF      10255>>DOINDEX 10258<<ASSIGN  10258>>ASSIGN
     10264>>IF      10265--ASSIGN  10267>>ASSIGN  10267--ASSIGN
KS_LINK_KEY
      9446**DCL     10200--ASSIGN  10201--ASSIGN  10233--ASSIGN  10263--ASSIGN
KS_LINK_KEY.NODE
      9449**DCL     10199<<ASSIGN  10226<<ASSIGN
KS_MSGBUF
      4657**DCL      9634--DCLINIT 10232--ASSIGN  10262--ASSIGN
KS_MSGBUF$
      4657**DCL      4657--IMP-PTR 10229>>ASSIGN  10248>>DOINDEX 10249>>IF      10253>>IF      10255>>DOINDEX
     10256>>ASSIGN  10256>>ASSIGN  10258>>ASSIGN  10258>>ASSIGN  10264>>IF      10267>>ASSIGN
KS_MYSTATION
      4653**DCL      4653--REDEF
KS_NETWORK
      9573**DCL     10045--CALL    10094--ASSIGN  10098<<ASSIGN  10103>>ASSIGN  10131--ASSIGN  10132--ASSIGN
     10217--CALL    10276--CALL
KS_NETWORK.NODE
      9576**DCL     10132--ASSIGN  10132--ASSIGN
KS_NETWORK.NODE.NODE
      9582**DCL     10113>>ASSIGN  10129<<ASSIGN  10155>>ASSIGN
KS_NETWORK.NODE.TYPE
      9579**DCL     10047>>IF      10047>>IF      10128<<ASSIGN  10219>>IF      10219>>IF      10278>>IF
     10278>>IF
KS_NETWORK.NODE#
      9574**DCL     10105>>IF      10111>>DOINDEX 10132>>ASSIGN
KS_NETWORK_KEY
      9600**DCL     10045--CALL    10093--ASSIGN  10130--ASSIGN  10217--CALL    10276--CALL
KS_NODE
      4654**DCL     10047>>IF      10047>>IF      10054>>ASSIGN  10152>>IF      10154<<ASSIGN  10219>>IF
     10219>>IF      10226>>ASSIGN  10278>>IF      10278>>IF      10285>>ASSIGN  10286>>ASSIGN
KS_NODENAME
      4653**DCL     10041>>IF      10060--ASSIGN  10061>>ASSIGN  10076--ASSIGN  10077>>ASSIGN  10155<<ASSIGN
     10213>>IF      10272>>IF
KS_NODENAME_SV
PL6.E3A0      #002=KSC$DELETE File=KSC$COMMANDS2.:E05TSI                         WED 07/30/97 01:46 Page:441
      4654**DCL     10156<<ASSIGN
KS_PSEUDO
      9464**DCL     10056--ASSIGN  10089--ASSIGN
KS_PSEUDO.PSEUDO
      9467**DCL     10085<<ASSIGN  10085>>ASSIGN
KS_PSEUDO.PSEUDO.NAME
      9468**DCL     10068>>IF
KS_PSEUDO.PSEUDO#
      9465**DCL     10067>>DOINDEX 10084>>DOINDEX 10087<<ASSIGN  10087>>ASSIGN  10090>>ASSIGN
KS_PSEUDO_KEY
      9508**DCL     10055--ASSIGN  10088--ASSIGN  10204--ASSIGN  10205--ASSIGN
KS_PSEUDO_KEY.NODE
      9511**DCL     10054<<ASSIGN  10203<<ASSIGN
KS_RFEP
      9620**DCL     10101--ASSIGN  10103<<ASSIGN  10136--ASSIGN  10137--ASSIGN
KS_RFEP.NODE
      9623**DCL     10137--ASSIGN  10137--ASSIGN
KS_RFEP.NODE.TYPE
      9626**DCL     10134<<ASSIGN
KS_RFEP.NODE#
      9621**DCL     10137>>ASSIGN
KS_RFEP_KEY
      9604**DCL     10100--ASSIGN  10135--ASSIGN
KS_SUB_BUF_1
      4658**DCL     10062--CALL    10078--CALL    10122--CALL
KS_SUB_BUF_1.COUNT
      4658**DCL     10060<<ASSIGN  10074<<ASSIGN  10120<<ASSIGN
KS_SUB_BUF_1.TEXT
      4658**DCL     10061<<ASSIGN  10075<<ASSIGN  10121<<ASSIGN
KS_SUB_BUF_2
      4658**DCL     10078--CALL
KS_SUB_BUF_2.COUNT
      4659**DCL     10076<<ASSIGN
KS_SUB_BUF_2.TEXT
      4659**DCL     10077<<ASSIGN
M$DELREC
PL6.E3A0      #002=KSC$DELETE File=KSC$COMMANDS2.:E05TSI                         WED 07/30/97 01:46 Page:442
        21**DCL-ENT 10166--CALL    10175--CALL    10183--CALL    10188--CALL    10193--CALL    10198--CALL
     10202--CALL    10206--CALL    10319--CALL
M$READ
        20**DCL-ENT 10057--CALL    10095--CALL    10102--CALL    10234--CALL
M$WRITE
        20**DCL-ENT 10091--CALL    10133--CALL    10138--CALL    10269--CALL
NDSRCH
     10111**LABEL   10116--EXIT
NODE
      9880**DCL     10110<<CALLBLT 10112>>IF      10145>>IF      10147>>ASSIGN  10152>>IF      10160>>ASSIGN
     10162>>ASSIGN  10169>>ASSIGN  10177>>ASSIGN  10180>>ASSIGN  10185>>ASSIGN  10190>>ASSIGN  10195>>ASSIGN
     10199>>ASSIGN  10203>>ASSIGN
NODENAME
      9887**DCL     10113<<ASSIGN  10121>>ASSIGN
NO_ERR
     10322**LABEL   10296--CALLALT 10299--CALLALT 10303--GOTO
OFFSET
      9877**DCL     10241<<ASSIGN  10242>>DOINDEX 10243>>CALLBLT
OUT$BLK.CODE
      9677**DCL     10039>>DOCASE
OUT$BLK.NSUBLKS
      9681**DCL     10228>>IF      10238>>DOINDEX 10289>>IF      10297>>IF
OUT$BLK.SUBLK$
      9702**DCL     10065>>ASSIGN  10065>>ASSIGN  10074>>ASSIGN  10110>>CALLBLT 10110>>CALLBLT 10120>>ASSIGN
     10239>>ASSIGN  10296>>CALL    10296<>CALL    10297>>IF      10299>>CALL    10299<>CALL
OUT$SYM.COUNT
      9738**DCL      9741--IMP-SIZ 10065>>ASSIGN  10074>>ASSIGN  10110>>CALLBLT 10120>>ASSIGN  10241>>ASSIGN
     10243>>CALLBLT
OUT$SYM.TEXT
      9741**DCL     10065>>ASSIGN  10110>>CALLBLT 10243>>CALLBLT
PROMPT.NODENAME
      9254**DCL     10157<<ASSIGN
PSEUDO_NAME
      9886**DCL     10065<<ASSIGN  10068>>IF      10075>>ASSIGN
READ_NETCON
      9935**DCL     10057<>CALL    10095<>CALL    10102<>CALL    10234<>CALL
PL6.E3A0      #002=KSC$DELETE File=KSC$COMMANDS2.:E05TSI                         WED 07/30/97 01:46 Page:443
READ_NETCON.BUF_
      9937**DCL     10056<<ASSIGN  10094<<ASSIGN  10101<<ASSIGN  10232<<ASSIGN
READ_NETCON.KEY_
      9935**DCL     10055<<ASSIGN  10093<<ASSIGN  10100<<ASSIGN  10233<<ASSIGN
READ_NETCON.STATION_
      9938**DCL      9939--REDEF
READ_NETCON.V
      9939**DCL      9935--DCLINIT
READ_NETCON.V.DVBYTE.REREAD#
      9950**DCL      9950--REDEF
READ_NETCON.V.INDX#
      9948**DCL      9948--REDEF
TEMP
      9878**DCL     10243<<CALLBLT 10244>>ASSIGN
TEMP_LINK
      9865**DCL     10240<<ASSIGN  10249>>IF
TEMP_LINK.HEX0
      9867**DCL      9873--DCLINIT
TEMP_LINK.HEX1
      9868**DCL      9874--DCLINIT
TEMP_LINK.HEX2
      9870**DCL      9875--DCLINIT
TEMP_LINK.HEX3
      9871**DCL      9876--DCLINIT
TOP$
         8**DCL         6--PROC     9669--IMP-PTR 10039>>DOCASE  10065>>ASSIGN  10065>>ASSIGN  10074>>ASSIGN
     10110>>CALLBLT 10110>>CALLBLT 10120>>ASSIGN  10228>>IF      10238>>DOINDEX 10239>>ASSIGN  10289>>IF
     10296>>CALL    10297>>IF      10299>>CALL
UPDATE
      9773**DCL     10208--CALL
UPDATE.CODE
      9778**DCL     10207<<ASSIGN
WRITE_NETCON
      9975**DCL     10091<>CALL    10133<>CALL    10138<>CALL    10269<>CALL
WRITE_NETCON.BUF_
      9975**DCL     10089<<ASSIGN  10131<<ASSIGN  10136<<ASSIGN  10262<<ASSIGN
PL6.E3A0      #002=KSC$DELETE File=KSC$COMMANDS2.:E05TSI                         WED 07/30/97 01:46 Page:444
WRITE_NETCON.BUF_.BOUND
      9975**DCL     10090<<ASSIGN  10132<<ASSIGN  10137<<ASSIGN  10265<<ASSIGN  10267<<ASSIGN
WRITE_NETCON.KEY_
      9975**DCL     10088<<ASSIGN  10130<<ASSIGN  10135<<ASSIGN  10263<<ASSIGN
WRITE_NETCON.STATION_
      9977**DCL      9977--REDEF
WRITE_NETCON.V
      9978**DCL      9975--DCLINIT
WRITE_NETCON.V.DVBYTE.VFC#
      9984**DCL      9984--REDEF

