VERSION E05

PL6.E3A0      #001=KSN$NETCON File=KSN$NETCON.:E05TSI                            WED 07/30/97 01:43 Page:1
        1        1        /*T***********************************************************/
        2        2        /*T*                                                         */
        3        3        /*T* Copyright (c) Bull HN Information Systems Inc., 1997    */
        4        4        /*T*                                                         */
        5        5        /*T***********************************************************/
        6        6        /*X*/
        7        7        /*M* KSN$NETCON - Main module for NETCON */
        8        8        KSN$NETCON: PROC MAIN;
        9        9        /**/
       10       10        %INCLUDE CP_6;
       11       91        %INCLUDE B$JIT;
       12      381        %INCLUDE XU_MACRO_C;
       13     3487        %INCLUDE KL_MACRO_C;
       14     6839        %INCLUDE KS_MACRO_M;
       15     7036        %INCLUDE KS_SUBS_C;
       16     7279        %INCLUDE KS_DATA_R;
       17     7294        %INCLUDE KS_PERR_C;
       18     7361        %INCLUDE B_ERRORS_C;
       19     8488        %KS$BOX(TITLE="entry points");

              8506    1   /***************************************************************************
              8507    1    *                                                                         *
              8508    1    *                                entry points                             *
              8509    1    *                                                                         *
              8510    1    ***************************************************************************/

       20     8515    1   DCL KSN$BREAK ENTRY;
       21     8516    1   DCL KSC$COMMANDS ENTRY(1);
       22     8517    1   DCL KSE$ERRMSG ENTRY(4);
       23     8518    1   DCL KSW$WRITE ENTRY(11);
       24     8519    1   DCL XUR$GETCMD ENTRY(6) ALTRET;
       25     8520    1   DCL XUR$ERRMSG ENTRY(7) ALTRET;
       26     8521    1   DCL XUR$ERRPTR ENTRY(2) ALTRET;
       27     8522    1   DCL XUR$BREAK ENTRY ASYNC;
       28     8523    1   DCL XUR$INIT ENTRY(3) ALTRET;
       29     8524    1   DCL XUR$ECHOIF ENTRY(1) ALTRET;
       30     8525        %KS$BOX(TITLE="symref variables");
PL6.E3A0      #001=KSN$NETCON File=KSN$NETCON.:E05TSI                            WED 07/30/97 01:43 Page:2

              8543    1   /***************************************************************************
              8544    1    *                                                                         *
              8545    1    *                              symref variables                           *
              8546    1    *                                                                         *
              8547    1    ***************************************************************************/

       31     8552    1   DCL KS_CMD SBIN SYMREF;
       32     8553    1   DCL B$JIT$ PTR SYMREF;
       33     8554        %KS$BOX(TITLE="constant variables");

              8572    1   /***************************************************************************
              8573    1    *                                                                         *
              8574    1    *                             constant variables                          *
              8575    1    *                                                                         *
              8576    1    ***************************************************************************/

       34     8581    1   DCL 1 HI_FMT STATIC,
       35     8582    1         2 C_ UBIN BYTE CALIGNED,
       36     8583    1         2 T_ CHAR (20) CALIGNED;
       37     8584    1   DCL B_VERSION CHAR(1) SYMREF;
       38     8585    1   DCL 1 B$VERSIONB BASED,
       39     8586    1        2 C_ UBIN BYTE CALIGNED,
       40     8587    1        2 T_ CHAR(B$VERSIONB.C_) CALIGNED;
       41     8588    1   DCL B_TEMP SBIN;
       42     8589        %KS$BOX(TITLE="static variables");

              8607    1   /***************************************************************************
              8608    1    *                                                                         *
              8609    1    *                              static variables                           *
              8610    1    *                                                                         *
              8611    1    ***************************************************************************/

       43     8616    1   DCL HI_VEC BIT(72) STATIC INIT(VECTOR(HI_FMT));
       44     8617    1   DCL P_PCB$ PTR STATIC SYMDEF INIT(ADDR(P_PCB));
       45     8618        %P_PCB;
       46     8817    1   DCL 1 PROMPT STATIC  SYMDEF,
PL6.E3A0      #001=KSN$NETCON File=KSN$NETCON.:E05TSI                            WED 07/30/97 01:43 Page:3
       47     8818    1        2 NODENAME CHAR(8) INIT(' '),
       48     8819    1        2 STAR CHAR(2) INIT('* ');
       49     8820        %KS$BOX(TITLE="FPTs and VLPs",PAGE=YES);

PL6.E3A0      #001=KSN$NETCON File=KSN$NETCON.:E05TSI                            WED 07/30/97 01:43 Page:4
              8838    1   /***************************************************************************
              8839    1    *                                                                         *
              8840    1    *                               FPTs and VLPs                             *
              8841    1    *                                                                         *
              8842    1    ***************************************************************************/

       50     8847    1   DCL XTX$ADAPT ENTRY(2) ALTRET;
       51     8848        %XUR_INIT (ABORT=KSN$BREAK,PCB=P_PCB,PASS=MODE,GOODCMD=YES,SYNTAX=YES,COMMANDS=YES,
              8848            ADAPT=XTX$ADAPT);
       52     8947        %FPT_PRIV (PRIV="%(PR_MFEP# | PR_MAXMEM#)");
       53     8962        %FPT_PRIV (FPTN = PPR_NETCON, PPRIV = YES, PRIV= %PPR_NETCON#);
       54     8977        %FPT_INT (UENTRY=XUR$BREAK,
       55     8978                  STCLASS=CONSTANT);
       56     8992        %FPT_OPEN (FPTN=OPEN_HLPCG,
       57     8993                   DCB=M$HLPCG,
       58     8994                   NAME=HLPCG,
       59     8995                   ACCT=SYSACCT,
       60     8996                   ASN=COMGROUP,
       61     8997                   SETSTA=VLP_SETSTA,
       62     8998                   FUN=UPDATE,
       63     8999                   ORG=CONSEC,
       64     9000                   SHARE=ALL);
       65     9109        %FPT_OPEN (FPTN=OPEN_NETCON,
       66     9110                   DCB=M$NETCON,
       67     9111                   NAME=NETCON,
       68     9112                   ACCT=NETACCT,
       69     9113                   ORG=KEYED,
       70     9114                   SHARE=ALL,
       71     9115                   ASN=FILE,
       72     9116                   FUN=CREATE,
       73     9117                   EXIST=OLDFILE,
       74     9118                   CTG=YES,
       75     9119                   ACS=DIRECT,
       76     9120                   ACSVEH=NETCON_ACSVEH);
       77     9229        %FPT_OPEN (FPTN=OPEN_FILE,ASN=FILE,FUN=IN,SHARE=ALL,ACCT=SYSACCT);
       78     9338        %FPT_OPEN(FPTN=OPEN_LO,FUN=CREATE,EXIST=NEWFILE,DCB=M$LO);
       79     9447        %FPT_CLOSE (FPTN=CLOSE_NETCON,
PL6.E3A0      #001=KSN$NETCON File=KSN$NETCON.:E05TSI                            WED 07/30/97 01:43 Page:5
       80     9448                    DCB=M$NETCON);
       81     9490        %FPT_CLOSE (FPTN=CLOSE_LO,DISP=SAVE,DCB=M$LO);
       82     9532        %FPT_CLOSE (FPTN=CLOSE_HLPCG,
       83     9533                    DCB=M$HLPCG);
       84     9575        %FPT_MONINFO(STCLASS=STATIC,MONINFO=VLR_MONINFO,SITEINFO=VLR_SITEINFO);
       85     9590        %VLR_MONINFO;
       86     9608        %VLR_SITEINFO;
       87     9627        %VLP_ATTR (FPTN=NETCON_ACSVEH);
       88     9641        %VLP_ACSVEH (READ=YES,UPD=YES,WNEW=YES,DELR=YES,VEHICLE='NETCON?');
       89     9658        %VLP_ACSVEH (READ=YES,UPD=YES,WNEW=YES,DELR=YES,VEHICLE='SUPER?');
       90     9675        %VLP_ACSVEH (READ=YES,UPD=YES,WNEW=YES,VEHICLE='PIGETTE?');
       91     9692        %VLP_ACSVEH (READ=YES,VEHICLE='ELAN?');
       92     9709        %VLP_ACSVEH (READ=YES,UPD=YES,WNEW=YES,VEHICLE='SLUG',LAST=";");
       93     9726        %VLP_ACCT   (FPTN=SYSACCT,STCLASS="CONSTANT SYMDEF",ACCT=':SYS');
       94     9739        %VLP_ACCT   (FPTN=NETACCT,STCLASS="CONSTANT SYMDEF",ACCT=':SYS');
       95     9752        %VLP_NAME (FPTN=HLPNAME,NAME=':HLP');
       96     9779        %VLP_NAME (FPTN=PRONAME,NAME=':PRO');
       97     9806        %VLP_NAME (FPTN=NETCON,
       98     9807                   NAME=':NETCON');
       99     9834        %VLP_SETSTA;
      100     9862        %VLP_NAME (FPTN=HLPCG,
      101     9863                   NAME='HLPCG');
      102     9890        %KS$BOX(TITLE="auto variables",PAGE=YES);

PL6.E3A0      #001=KSN$NETCON File=KSN$NETCON.:E05TSI                            WED 07/30/97 01:43 Page:6
              9908    1   /***************************************************************************
              9909    1    *                                                                         *
              9910    1    *                               auto variables                            *
              9911    1    *                                                                         *
              9912    1    ***************************************************************************/

      103     9917    1   DCL TOP$ PTR;
      104     9918        %VLP_ERRCODE (STCLASS = "REDEF TOP$");
      105     9963    1   DCL PARSE_CODE REDEF TOP$ BIT(36);
      106     9964    1   DCL M$LO DCB;
      107     9965    1   DCL M$SI DCB;
      108     9966    1   DCL M$DO DCB;
      109     9967    1   DCL M$HLPCG DCB;
      110     9968    1   DCL M$NETCON DCB;
      111     9969    1   DCL M$HLPF DCB;
      112     9970    1   DCL M$PROF DCB;
      113     9971    1        CALL CONCAT(HI_FMT.T_,'NETCON ',ADDR(B_VERSION)->
      114     9972    1             B$VERSIONB.T_,' HERE');
      115     9973    2        CALL M$SPRIV(PPR_NETCON) WHENALTRETURN DO;
      116     9974    2           CALL KSE$ERRMSG(%E$KS_NO_PRIV);
      117     9975                /*E* ERROR: KSN-E$KS_NO_PRIV-0
      118     9976                     MESSAGE: Insufficient privilege to run NETCON.
      119     9977                     MESSAGE1: User must have NETCON processor privilege to use NETCON.
      120     9978                     DESCRIPTION: SEE MESSAGES */
      121     9979    2           RETURN;
      122     9980    2           END;  /* WHENALTRETURN */
      123     9981    1        CALL XUR$INIT(XUR_INIT,P_PCB$);
      124     9982    1        CALL M$SPRIV ( FPT_PRIV );
      125     9983    1        CALL BINCHAR(KS_MYSTATION.SYSID,B$JIT.SYSID);
      126     9984    1        VLP_SETSTA.MYSTATION# = KS_MYSTATION_C;
      127     9985    2        CALL M$OPEN(OPEN_HLPCG) WHENALTRETURN DO;
      128     9986    2           CALL KSE$ERRMSG(0);
      129     9987    2           END;  /* WHENALTRETURN */
      130     9988    2        CALL M$OPEN(OPEN_NETCON) WHENALTRETURN DO;
      131     9989    2           CALL KSE$ERRMSG(0);
      132     9990    2           GOTO BAG_IT;
      133     9991    2           END;  /* WHENALTRETURN */
PL6.E3A0      #001=KSN$NETCON File=KSN$NETCON.:E05TSI                            WED 07/30/97 01:43 Page:7
      134     9992    1           OPEN_FILE.V.DCB# = DCBNUM(M$PROF);
      135     9993    1           OPEN_FILE.NAME_ = VECTOR(PRONAME);
      136     9994    1           CALL M$OPEN (OPEN_FILE)
      137     9995    2           WHENALTRETURN DO;
      138     9996    2              CALL KSE$ERRMSG(0);
      139     9997    2              END;
      140     9998    1           OPEN_FILE.V.DCB# = DCBNUM(M$HLPF);
      141     9999    1           OPEN_FILE.NAME_ = VECTOR(HLPNAME);
      142    10000    1           CALL M$OPEN (OPEN_FILE)
      143    10001    2           WHENALTRETURN DO;
      144    10002    2              CALL KSE$ERRMSG(0);
      145    10003    2              END;
      146    10004    1        CALL M$OPEN(OPEN_LO);
      147    10005    1        CALL KSW$WRITE(HI_VEC);
      148    10006    1        REMEMBER ERR_RETURN IN KS_ERR_RETURN;
      149    10007    1        CALL M$INT(FPT_INT);
      150    10008    1        KS_END_FLG = '0'B;
      151    10009    2        CALL M$MONINFO(FPT_MONINFO) WHENRETURN DO;
      152    10010    2           PROMPT.NODENAME = VLR_MONINFO.NODE_NAME;
      153    10011    2           END;
      154    10012    2        WHENALTRETURN DO;
      155    10013    2           PROMPT.NODENAME = 'HOST';
      156    10014    2           END;
      157    10015    2        DO WHILE(NOT KS_END_FLG);
      158    10016    3           CALL XUR$GETCMD(KS_CMD,TOP$,VECTOR(PROMPT)) WHENRETURN DO;
      159    10017    3              CALL XUR$ECHOIF;
      160    10018    3              CALL KSC$COMMANDS(TOP$);
      161    10019    3              END;  /* WHENRETURN */
      162    10020    3           WHENALTRETURN DO;
      163    10021    3                  CALL XUR$ERRMSG(TOP$);
      164    10022    3                  IF VLP_ERRCODE.ERR# = %E$EOF
      165    10023    3                    OR VLP_ERRCODE.ERR# = %E$NOFILE THEN
      166    10024    3                     GOTO BAG_IT;
      167    10025    3                  UNWIND TO KS_ERR_RETURN;
      168    10026    3               END;
      169    10027    2   ERR_RETURN:;
      170    10028    2           END;  /* DO WHILE NOT KS_END_FLG */
PL6.E3A0      #001=KSN$NETCON File=KSN$NETCON.:E05TSI                            WED 07/30/97 01:43 Page:8
      171    10029    1   BAG_IT:;
      172    10030    1        CALL M$CLOSE(CLOSE_NETCON);
      173    10031    1        CALL M$CLOSE(CLOSE_HLPCG);
      174    10032    1        CALL M$CLOSE(CLOSE_LO);
      175    10033    1        RETURN;
      176    10034    1   END KSN$NETCON;
      177    10035        %EOD;

PL6.E3A0      #001=KSN$NETCON File=KSN$NETCON.:E05TSI                            WED 07/30/97 01:43 Page:9
--  Include file information  --

   B_ERRORS_C.:E05TOU  is referenced.
   KS_PERR_C.:E05TOU  is referenced.
   KS_DATA_R.:E05TOU  cannot be made into a system file and is referenced.
   KS_SUBS_C.:E05TOU  is referenced.
   KS_MACRO_M.:E05TOU  is referenced.
   KL_MACRO_C.:E05TOU  is referenced.
   XU_MACRO_C.:E05TOU  is referenced.
   B$JIT.:E05TOU  cannot be made into a system file and is referenced.
   CP_6.:E05TOU  cannot be made into a system file and is referenced.
   B$JIT_C.:E05TOU  was found in the system file and is referenced.
   CP_6_C.:E05TOU  was found in the system file and is referenced.
      No diagnostics issued in procedure KSN$NETCON.

   Procedure KSN$NETCON requires 166 words for executable code.
   Procedure KSN$NETCON requires 10 words of local(AUTO) storage.

PL6.E3A0      #001=KSN$NETCON File=KSN$NETCON.:E05TSI                            WED 07/30/97 01:43 Page:10

 Object Unit name= KSN$NETCON                                 File name= KSN$NETCON.:E05TOU
 UTS= JUL 30 '97 01:43:20.52 WED                              Compiler= PL-6/E31         Sev=      00
 SharedLib= :SHARED_SYSTEM                                    Alt SharedLib=


    ****  Control sections  ****

 Sect   Type Bound  Init  Size OctSiz  Section name(segment info)
    0   DCB   even  none     0      0  M$UC
    1   Data  even  none   519   1007  KSN$NETCON
    2  RoData even  UTS     13     15  KSN$NETCON
    3   DCB   even  none     0      0  M$LO
    4   DCB   even  none     0      0  M$SI
    5   DCB   even  none     0      0  M$DO
    6   DCB   even  none     0      0  M$HLPCG
    7   DCB   even  none     0      0  M$NETCON
    8   DCB   even  none     0      0  M$HLPF
    9   DCB   even  none     0      0  M$PROF
   10   Proc  even  none   166    246  KSN$NETCON
   11  RoData even  none    14     16  KSN$NETCON

    ****  Entry defs  ****

                              Check   Calling
                             calling  sequence
  Sect OctLoc Primary Altret sequence   type   Parms  Name
    10      0   yes            yes      Main       0  KSN$NETCON

  ****  Data defs  ****

 Sect OctLoc  Name                           Sect OctLoc  Name
    1     10  P_PCB$                             1     11  P_PCB
    1     27  PROMPT                             2      4  SYSACCT
    2      6  NETACCT
PL6.E3A0      #001=KSN$NETCON File=KSN$NETCON.:E05TSI                            WED 07/30/97 01:43 Page:11

  ****  Entry refs  ****

         Check        Calling
        calling       sequence
Altret sequence SRef   type   Args  Name
         yes           Std       0 KSN$BREAK
         yes           Std       1 KSC$COMMANDS
 yes     yes           Std       2 XTX$ADAPT
         yes          Async      0 XUR$BREAK
 yes     yes           Std       6 XUR$GETCMD
 yes     yes           Std       1 XUR$ECHOIF
         yes           Std       4 KSE$ERRMSG
         yes           Std      11 KSW$WRITE
 yes     yes           Std       3 XUR$INIT
 yes     yes           Std       7 XUR$ERRMSG
                       nStd      0 X66_MAUTO
                       Std       0 B_CONSPOOL_D
                       nStd      0 X66_MARET
                       nStd      0 X66_MAUNWIND

  ****  Data refs  ****

  Flags:  r = read only, s = secondary
Flgs Name                             Flgs Name                             Flgs Name
     M$UC                                  KS_MYSTATION                          KS_END_FLG
     KS_ERR_RETURN                         KS_MSGBUF$                            KS_CMD
     B$JIT$                                B_VERSION                             M$LO
     M$SI                                  M$DO                                  M$HLPCG
     M$NETCON                              M$HLPF                                M$PROF
     B_VECTNIL

  ****  Segment refs  ****

  Flags:  r = read only, s = secondary
Flgs Name                             Flgs Name                             Flgs Name
     ISSID                                 NULLSID
PL6.E3A0      #001=KSN$NETCON File=KSN$NETCON.:E05TSI                            WED 07/30/97 01:43 Page:12


        1        1        /*T***********************************************************/
        2        2        /*T*                                                         */
        3        3        /*T* Copyright (c) Bull HN Information Systems Inc., 1997    */
        4        4        /*T*                                                         */
        5        5        /*T***********************************************************/
        6        6        /*X*/
        7        7        /*M* KSN$NETCON - Main module for NETCON */
        8        8        KSN$NETCON: PROC MAIN;

      8 10 000000   000000 700200 xent  KSN$NETCON   TSX0  ! X66_MAUTO
        10 000001   000012 000000                    ZERO    10,0

        9        9        /**/
       10       10        %INCLUDE CP_6;
       11       91        %INCLUDE B$JIT;
       12      381        %INCLUDE XU_MACRO_C;
       13     3487        %INCLUDE KL_MACRO_C;
       14     6839        %INCLUDE KS_MACRO_M;
       15     7036        %INCLUDE KS_SUBS_C;
       16     7279        %INCLUDE KS_DATA_R;
       17     7294        %INCLUDE KS_PERR_C;
       18     7361        %INCLUDE B_ERRORS_C;
       19     8488        %KS$BOX(TITLE="entry points");

              8506    1   /***************************************************************************
              8507    1    *                                                                         *
              8508    1    *                                entry points                             *
              8509    1    *                                                                         *
              8510    1    ***************************************************************************/

       20     8515    1   DCL KSN$BREAK ENTRY;
       21     8516    1   DCL KSC$COMMANDS ENTRY(1);
       22     8517    1   DCL KSE$ERRMSG ENTRY(4);
       23     8518    1   DCL KSW$WRITE ENTRY(11);
       24     8519    1   DCL XUR$GETCMD ENTRY(6) ALTRET;
       25     8520    1   DCL XUR$ERRMSG ENTRY(7) ALTRET;
PL6.E3A0      #001=KSN$NETCON File=KSN$NETCON.:E05TSI                            WED 07/30/97 01:43 Page:13
       26     8521    1   DCL XUR$ERRPTR ENTRY(2) ALTRET;
       27     8522    1   DCL XUR$BREAK ENTRY ASYNC;
       28     8523    1   DCL XUR$INIT ENTRY(3) ALTRET;
       29     8524    1   DCL XUR$ECHOIF ENTRY(1) ALTRET;
       30     8525        %KS$BOX(TITLE="symref variables");

              8543    1   /***************************************************************************
              8544    1    *                                                                         *
              8545    1    *                              symref variables                           *
              8546    1    *                                                                         *
              8547    1    ***************************************************************************/

       31     8552    1   DCL KS_CMD SBIN SYMREF;
       32     8553    1   DCL B$JIT$ PTR SYMREF;
       33     8554        %KS$BOX(TITLE="constant variables");

              8572    1   /***************************************************************************
              8573    1    *                                                                         *
              8574    1    *                             constant variables                          *
              8575    1    *                                                                         *
              8576    1    ***************************************************************************/

       34     8581    1   DCL 1 HI_FMT STATIC,
       35     8582    1         2 C_ UBIN BYTE CALIGNED,
       36     8583    1         2 T_ CHAR (20) CALIGNED;
       37     8584    1   DCL B_VERSION CHAR(1) SYMREF;
       38     8585    1   DCL 1 B$VERSIONB BASED,
       39     8586    1        2 C_ UBIN BYTE CALIGNED,
       40     8587    1        2 T_ CHAR(B$VERSIONB.C_) CALIGNED;
       41     8588    1   DCL B_TEMP SBIN;
       42     8589        %KS$BOX(TITLE="static variables");

              8607    1   /***************************************************************************
              8608    1    *                                                                         *
              8609    1    *                              static variables                           *
              8610    1    *                                                                         *
              8611    1    ***************************************************************************/
PL6.E3A0      #001=KSN$NETCON File=KSN$NETCON.:E05TSI                            WED 07/30/97 01:43 Page:14

       43     8616    1   DCL HI_VEC BIT(72) STATIC INIT(VECTOR(HI_FMT));
       44     8617    1   DCL P_PCB$ PTR STATIC SYMDEF INIT(ADDR(P_PCB));
       45     8618        %P_PCB;
       46     8817    1   DCL 1 PROMPT STATIC  SYMDEF,
       47     8818    1        2 NODENAME CHAR(8) INIT(' '),
       48     8819    1        2 STAR CHAR(2) INIT('* ');
       49     8820        %KS$BOX(TITLE="FPTs and VLPs",PAGE=YES);

PL6.E3A0      #001=KSN$NETCON File=KSN$NETCON.:E05TSI                            WED 07/30/97 01:43 Page:15
              8838    1   /***************************************************************************
              8839    1    *                                                                         *
              8840    1    *                               FPTs and VLPs                             *
              8841    1    *                                                                         *
              8842    1    ***************************************************************************/

       50     8847    1   DCL XTX$ADAPT ENTRY(2) ALTRET;
       51     8848        %XUR_INIT (ABORT=KSN$BREAK,PCB=P_PCB,PASS=MODE,GOODCMD=YES,SYNTAX=YES,COMMANDS=YES,
              8848            ADAPT=XTX$ADAPT);
       52     8947        %FPT_PRIV (PRIV="%(PR_MFEP# | PR_MAXMEM#)");
       53     8962        %FPT_PRIV (FPTN = PPR_NETCON, PPRIV = YES, PRIV= %PPR_NETCON#);
       54     8977        %FPT_INT (UENTRY=XUR$BREAK,
       55     8978                  STCLASS=CONSTANT);
       56     8992        %FPT_OPEN (FPTN=OPEN_HLPCG,
       57     8993                   DCB=M$HLPCG,
       58     8994                   NAME=HLPCG,
       59     8995                   ACCT=SYSACCT,
       60     8996                   ASN=COMGROUP,
       61     8997                   SETSTA=VLP_SETSTA,
       62     8998                   FUN=UPDATE,
       63     8999                   ORG=CONSEC,
       64     9000                   SHARE=ALL);
       65     9109        %FPT_OPEN (FPTN=OPEN_NETCON,
       66     9110                   DCB=M$NETCON,
       67     9111                   NAME=NETCON,
       68     9112                   ACCT=NETACCT,
       69     9113                   ORG=KEYED,
       70     9114                   SHARE=ALL,
       71     9115                   ASN=FILE,
       72     9116                   FUN=CREATE,
       73     9117                   EXIST=OLDFILE,
       74     9118                   CTG=YES,
       75     9119                   ACS=DIRECT,
       76     9120                   ACSVEH=NETCON_ACSVEH);
       77     9229        %FPT_OPEN (FPTN=OPEN_FILE,ASN=FILE,FUN=IN,SHARE=ALL,ACCT=SYSACCT);
       78     9338        %FPT_OPEN(FPTN=OPEN_LO,FUN=CREATE,EXIST=NEWFILE,DCB=M$LO);
       79     9447        %FPT_CLOSE (FPTN=CLOSE_NETCON,
PL6.E3A0      #001=KSN$NETCON File=KSN$NETCON.:E05TSI                            WED 07/30/97 01:43 Page:16
       80     9448                    DCB=M$NETCON);
       81     9490        %FPT_CLOSE (FPTN=CLOSE_LO,DISP=SAVE,DCB=M$LO);
       82     9532        %FPT_CLOSE (FPTN=CLOSE_HLPCG,
       83     9533                    DCB=M$HLPCG);
       84     9575        %FPT_MONINFO(STCLASS=STATIC,MONINFO=VLR_MONINFO,SITEINFO=VLR_SITEINFO);
       85     9590        %VLR_MONINFO;
       86     9608        %VLR_SITEINFO;
       87     9627        %VLP_ATTR (FPTN=NETCON_ACSVEH);
       88     9641        %VLP_ACSVEH (READ=YES,UPD=YES,WNEW=YES,DELR=YES,VEHICLE='NETCON?');
       89     9658        %VLP_ACSVEH (READ=YES,UPD=YES,WNEW=YES,DELR=YES,VEHICLE='SUPER?');
       90     9675        %VLP_ACSVEH (READ=YES,UPD=YES,WNEW=YES,VEHICLE='PIGETTE?');
       91     9692        %VLP_ACSVEH (READ=YES,VEHICLE='ELAN?');
       92     9709        %VLP_ACSVEH (READ=YES,UPD=YES,WNEW=YES,VEHICLE='SLUG',LAST=";");
       93     9726        %VLP_ACCT   (FPTN=SYSACCT,STCLASS="CONSTANT SYMDEF",ACCT=':SYS');
       94     9739        %VLP_ACCT   (FPTN=NETACCT,STCLASS="CONSTANT SYMDEF",ACCT=':SYS');
       95     9752        %VLP_NAME (FPTN=HLPNAME,NAME=':HLP');
       96     9779        %VLP_NAME (FPTN=PRONAME,NAME=':PRO');
       97     9806        %VLP_NAME (FPTN=NETCON,
       98     9807                   NAME=':NETCON');
       99     9834        %VLP_SETSTA;
      100     9862        %VLP_NAME (FPTN=HLPCG,
      101     9863                   NAME='HLPCG');
      102     9890        %KS$BOX(TITLE="auto variables",PAGE=YES);

PL6.E3A0      #001=KSN$NETCON File=KSN$NETCON.:E05TSI                            WED 07/30/97 01:43 Page:17
              9908    1   /***************************************************************************
              9909    1    *                                                                         *
              9910    1    *                               auto variables                            *
              9911    1    *                                                                         *
              9912    1    ***************************************************************************/

      103     9917    1   DCL TOP$ PTR;
      104     9918        %VLP_ERRCODE (STCLASS = "REDEF TOP$");
      105     9963    1   DCL PARSE_CODE REDEF TOP$ BIT(36);
      106     9964    1   DCL M$LO DCB;
      107     9965    1   DCL M$SI DCB;
      108     9966    1   DCL M$DO DCB;
      109     9967    1   DCL M$HLPCG DCB;
      110     9968    1   DCL M$NETCON DCB;
      111     9969    1   DCL M$HLPF DCB;
      112     9970    1   DCL M$PROF DCB;
      113     9971    1        CALL CONCAT(HI_FMT.T_,'NETCON ',ADDR(B_VERSION)->

   9971 10 000002   000000 236000 xsym               LDQ     B_VERSION
        10 000003   000033 772000                    QRL     27
        10 000004   040000 100400                    MLR     fill='040'O
        10 000005   000010 000007 2                  ADSC9   NETACCT+2                cn=0,n=7
        10 000006   000000 200007 1                  ADSC9   HI_FMT                   cn=1,n=7
        10 000007   000000 620006                    EAX0    0,QL
        10 000010   040000 100440                    MLR     fill='040'O
        10 000011   000000 200010 xsym               ADSC9   B_VERSION                cn=1,n=*X0
        10 000012   000002 000015 1                  ADSC9   HI_FMT+2                 cn=0,n=13
        10 000013   000015 116007                    CMPQ    13,DL
        10 000014   000022 603000 10                 TRC     s:9973
        10 000015   777762 621006                    EAX1    -14,QL
        10 000016   777777 661003                    ERX1    -1,DU
        10 000017   040046 100400                    MLR     fill='040'O
        10 000020   000012 000005 2                  ADSC9   NETACCT+4                cn=0,n=5
        10 000021   000002 000011 1                  ADSC9   HI_FMT+2,Q               cn=0,n=*X1

      114     9972    1             B$VERSIONB.T_,' HERE');
      115     9973    2        CALL M$SPRIV(PPR_NETCON) WHENALTRETURN DO;
PL6.E3A0      #001=KSN$NETCON File=KSN$NETCON.:E05TSI                            WED 07/30/97 01:43 Page:18

   9973 10 000022   000106 630400 1                  EPPR0   PPR_NETCON
        10 000023   420012 713400                    CLIMB   alt,+8202
        10 000024   400000 401760                    pmme    nvectors=1
        10 000025   000027 702000 10                 TSX2    s:9974
        10 000026   000034 710000 10                 TRA     s:9981

      116     9974    2           CALL KSE$ERRMSG(%E$KS_NO_PRIV);

   9974 10 000027   000000 630400 11                 EPPR0   0
        10 000030   000017 631400 xsym               EPPR1   B_VECTNIL+15
        10 000031   000000 701000 xent               TSX1    KSE$ERRMSG
        10 000032   000000 011000                    NOP     0

      117     9975                /*E* ERROR: KSN-E$KS_NO_PRIV-0
      118     9976                     MESSAGE: Insufficient privilege to run NETCON.
      119     9977                     MESSAGE1: User must have NETCON processor privilege to use NETCON.
      120     9978                     DESCRIPTION: SEE MESSAGES */
      121     9979    2           RETURN;

   9979 10 000033   000000 702200 xent               TSX2  ! X66_MARET

      122     9980    2           END;  /* WHENALTRETURN */
      123     9981    1        CALL XUR$INIT(XUR_INIT,P_PCB$);

   9981 10 000034   000001 630400 11                 EPPR0   1
        10 000035   000020 631400 xsym               EPPR1   B_VECTNIL+16
        10 000036   000000 701000 xent               TSX1    XUR$INIT
        10 000037   000000 011000                    NOP     0

      124     9982    1        CALL M$SPRIV ( FPT_PRIV );

   9982 10 000040   000102 630400 1                  EPPR0   FPT_PRIV
        10 000041   020012 713400                    CLIMB   8202
        10 000042   400000 401760                    pmme    nvectors=1

      125     9983    1        CALL BINCHAR(KS_MYSTATION.SYSID,B$JIT.SYSID);
PL6.E3A0      #001=KSN$NETCON File=KSN$NETCON.:E05TSI                            WED 07/30/97 01:43 Page:19

   9983 10 000043   000000 470400 xsym               LDP0    B$JIT$
        10 000044   000000 236100                    LDQ     0,,PR0
        10 000045   777777 376007                    ANQ     -1,DL
        10 000046   000000 235003                    LDA     0,DU
        10 000047   200006 757100                    STAQ    TOP$+2,,AUTO
        10 000050   000000 301500                    BTD
        10 000051   200006 000010                    NDSC9   TOP$+2,,AUTO             cn=0,s=lsgnf,sf=0,n=8
        10 000052   000000 430006 xsym               NDSC9   KS_MYSTATION             cn=2,s=nosgn,sf=0,n=6

      126     9984    1        VLP_SETSTA.MYSTATION# = KS_MYSTATION_C;

   9984 10 000053   040000 100400                    MLR     fill='040'O
        10 000054   000000 000010 xsym               ADSC9   KS_MYSTATION             cn=0,n=8
        10 000055   000771 000010 1                  ADSC9   VLP_SETSTA               cn=0,n=8

      127     9985    2        CALL M$OPEN(OPEN_HLPCG) WHENALTRETURN DO;

   9985 10 000056   000112 630400 1                  EPPR0   OPEN_HLPCG
        10 000057   450000 713400                    CLIMB   alt,open
        10 000060   410400 401760                    pmme    nvectors=18
        10 000061   000063 702000 10                 TSX2    s:9986
        10 000062   000067 710000 10                 TRA     s:9988

      128     9986    2           CALL KSE$ERRMSG(0);

   9986 10 000063   000003 630400 11                 EPPR0   3
        10 000064   000017 631400 xsym               EPPR1   B_VECTNIL+15
        10 000065   000000 701000 xent               TSX1    KSE$ERRMSG
        10 000066   000000 011000                    NOP     0

      129     9987    2           END;  /* WHENALTRETURN */

      130     9988    2        CALL M$OPEN(OPEN_NETCON) WHENALTRETURN DO;

   9988 10 000067   000204 630400 1                  EPPR0   OPEN_NETCON
        10 000070   450000 713400                    CLIMB   alt,open
PL6.E3A0      #001=KSN$NETCON File=KSN$NETCON.:E05TSI                            WED 07/30/97 01:43 Page:20
        10 000071   410400 401760                    pmme    nvectors=18
        10 000072   000074 702000 10                 TSX2    s:9989
        10 000073   000101 710000 10                 TRA     s:9992

      131     9989    2           CALL KSE$ERRMSG(0);

   9989 10 000074   000003 630400 11                 EPPR0   3
        10 000075   000017 631400 xsym               EPPR1   B_VECTNIL+15
        10 000076   000000 701000 xent               TSX1    KSE$ERRMSG
        10 000077   000000 011000                    NOP     0

      132     9990    2           GOTO BAG_IT;

   9990 10 000100   000234 710000 10                 TRA     BAG_IT

      133     9991    2           END;  /* WHENALTRETURN */
      134     9992    1           OPEN_FILE.V.DCB# = DCBNUM(M$PROF);

   9992 10 000101   000000 236007 xsym               LDQ     M$PROF,DL
        10 000102   000000 620006                    EAX0    0,QL
        10 000103   000342 740000 1                  STX0    OPEN_FILE+36

      135     9993    1           OPEN_FILE.NAME_ = VECTOR(PRONAME);

   9993 10 000104   000004 237000 11                 LDAQ    4
        10 000105   000304 757000 1                  STAQ    OPEN_FILE+6

      136     9994    1           CALL M$OPEN (OPEN_FILE)

   9994 10 000106   000276 630400 1                  EPPR0   OPEN_FILE
        10 000107   450000 713400                    CLIMB   alt,open
        10 000110   410400 401760                    pmme    nvectors=18
        10 000111   000113 702000 10                 TSX2    s:9996
        10 000112   000117 710000 10                 TRA     s:9998

      137     9995    2           WHENALTRETURN DO;

PL6.E3A0      #001=KSN$NETCON File=KSN$NETCON.:E05TSI                            WED 07/30/97 01:43 Page:21
      138     9996    2              CALL KSE$ERRMSG(0);

   9996 10 000113   000003 630400 11                 EPPR0   3
        10 000114   000017 631400 xsym               EPPR1   B_VECTNIL+15
        10 000115   000000 701000 xent               TSX1    KSE$ERRMSG
        10 000116   000000 011000                    NOP     0

      139     9997    2              END;

      140     9998    1           OPEN_FILE.V.DCB# = DCBNUM(M$HLPF);

   9998 10 000117   000000 236007 xsym               LDQ     M$HLPF,DL
        10 000120   000000 620006                    EAX0    0,QL
        10 000121   000342 740000 1                  STX0    OPEN_FILE+36

      141     9999    1           OPEN_FILE.NAME_ = VECTOR(HLPNAME);

   9999 10 000122   000006 237000 11                 LDAQ    6
        10 000123   000304 757000 1                  STAQ    OPEN_FILE+6

      142    10000    1           CALL M$OPEN (OPEN_FILE)

  10000 10 000124   000276 630400 1                  EPPR0   OPEN_FILE
        10 000125   450000 713400                    CLIMB   alt,open
        10 000126   410400 401760                    pmme    nvectors=18
        10 000127   000131 702000 10                 TSX2    s:10002
        10 000130   000135 710000 10                 TRA     s:10004

      143    10001    2           WHENALTRETURN DO;

      144    10002    2              CALL KSE$ERRMSG(0);

  10002 10 000131   000003 630400 11                 EPPR0   3
        10 000132   000017 631400 xsym               EPPR1   B_VECTNIL+15
        10 000133   000000 701000 xent               TSX1    KSE$ERRMSG
        10 000134   000000 011000                    NOP     0

PL6.E3A0      #001=KSN$NETCON File=KSN$NETCON.:E05TSI                            WED 07/30/97 01:43 Page:22
      145    10003    2              END;

      146    10004    1        CALL M$OPEN(OPEN_LO);

  10004 10 000135   000370 630400 1                  EPPR0   OPEN_LO
        10 000136   050000 713400                    CLIMB   open
        10 000137   410400 401760                    pmme    nvectors=18

      147    10005    1        CALL KSW$WRITE(HI_VEC);

  10005 10 000140   000010 630400 11                 EPPR0   8
        10 000141   000017 631400 xsym               EPPR1   B_VECTNIL+15
        10 000142   000000 701000 xent               TSX1    KSW$WRITE
        10 000143   000000 011000                    NOP     0

      148    10006    1        REMEMBER ERR_RETURN IN KS_ERR_RETURN;

  10006 10 000144   000232 635000 10                 EAA     ERR_RETURN
        10 000145   000000 452400 xsym               STP2    KS_ERR_RETURN
        10 000146   000001 755000 xsym               STA     KS_ERR_RETURN+1

      149    10007    1        CALL M$INT(FPT_INT);

  10007 10 000147   000000 630400 2                  EPPR0   FPT_INT
        10 000150   010002 713400                    CLIMB   4098
        10 000151   400000 401760                    pmme    nvectors=1

      150    10008    1        KS_END_FLG = '0'B;

  10008 10 000152   000000 450000 xsym               STZ     KS_END_FLG

      151    10009    2        CALL M$MONINFO(FPT_MONINFO) WHENRETURN DO;

  10009 10 000153   000614 630400 1                  EPPR0   FPT_MONINFO
        10 000154   420023 713400                    CLIMB   alt,+8211
        10 000155   402400 401760                    pmme    nvectors=6
        10 000156   000163 702000 10                 TSX2    s:10013
PL6.E3A0      #001=KSN$NETCON File=KSN$NETCON.:E05TSI                            WED 07/30/97 01:43 Page:23

      152    10010    2           PROMPT.NODENAME = VLR_MONINFO.NODE_NAME;

  10010 10 000157   000642 237000 1                  LDAQ    VLR_MONINFO+10
        10 000160   000027 755000 1                  STA     PROMPT
        10 000161   000030 756000 1                  STQ     PROMPT+1

      153    10011    2           END;

  10011 10 000162   000166 710000 10                 TRA     s:10015

      154    10012    2        WHENALTRETURN DO;

      155    10013    2           PROMPT.NODENAME = 'HOST';

  10013 10 000163   040000 100400                    MLR     fill='040'O
        10 000164   000014 000004 2                  ADSC9   NETACCT+6                cn=0,n=4
        10 000165   000027 000010 1                  ADSC9   PROMPT                   cn=0,n=8

      156    10014    2           END;

      157    10015    2        DO WHILE(NOT KS_END_FLG);

  10015 10 000166   000232 710000 10                 TRA     ERR_RETURN

      158    10016    3           CALL XUR$GETCMD(KS_CMD,TOP$,VECTOR(PROMPT)) WHENRETURN DO;

  10016 10 000167   000014 236000 11                 LDQ     12
        10 000170   200010 756100                    STQ     TOP$+4,,AUTO
        10 000171   200004 630500                    EPPR0   TOP$,,AUTO
        10 000172   200007 450500                    STP0    TOP$+3,,AUTO
        10 000173   000015 236000 11                 LDQ     13
        10 000174   200006 756100                    STQ     TOP$+2,,AUTO
        10 000175   200006 630500                    EPPR0   TOP$+2,,AUTO
        10 000176   000021 631400 xsym               EPPR1   B_VECTNIL+17
        10 000177   000000 701000 xent               TSX1    XUR$GETCMD
        10 000200   000213 702000 10                 TSX2    s:10021
PL6.E3A0      #001=KSN$NETCON File=KSN$NETCON.:E05TSI                            WED 07/30/97 01:43 Page:24

      159    10017    3              CALL XUR$ECHOIF;

  10017 10 000201   000002 631400 xsym               EPPR1   B_VECTNIL+2
        10 000202   000000 701000 xent               TSX1    XUR$ECHOIF
        10 000203   000000 011000                    NOP     0

      160    10018    3              CALL KSC$COMMANDS(TOP$);

  10018 10 000204   200004 630500                    EPPR0   TOP$,,AUTO
        10 000205   200006 450500                    STP0    TOP$+2,,AUTO
        10 000206   200006 630500                    EPPR0   TOP$+2,,AUTO
        10 000207   000017 631400 xsym               EPPR1   B_VECTNIL+15
        10 000210   000000 701000 xent               TSX1    KSC$COMMANDS
        10 000211   000000 011000                    NOP     0

      161    10019    3              END;  /* WHENRETURN */

  10019 10 000212   000232 710000 10                 TRA     ERR_RETURN

      162    10020    3           WHENALTRETURN DO;

      163    10021    3                  CALL XUR$ERRMSG(TOP$);

  10021 10 000213   200004 630500                    EPPR0   TOP$,,AUTO
        10 000214   200006 450500                    STP0    TOP$+2,,AUTO
        10 000215   200006 630500                    EPPR0   TOP$+2,,AUTO
        10 000216   000017 631400 xsym               EPPR1   B_VECTNIL+15
        10 000217   000000 701000 xent               TSX1    XUR$ERRMSG
        10 000220   000000 011000                    NOP     0

      164    10022    3                  IF VLP_ERRCODE.ERR# = %E$EOF

  10022 10 000221   200004 236100                    LDQ     TOP$,,AUTO
        10 000222   377770 376007                    ANQ     131064,DL
        10 000223   000060 116007                    CMPQ    48,DL
        10 000224   000234 600000 10                 TZE     BAG_IT
PL6.E3A0      #001=KSN$NETCON File=KSN$NETCON.:E05TSI                            WED 07/30/97 01:43 Page:25
        10 000225   001610 116007                    CMPQ    904,DL
        10 000226   000234 600000 10                 TZE     BAG_IT

      165    10023    3                    OR VLP_ERRCODE.ERR# = %E$NOFILE THEN
      166    10024    3                     GOTO BAG_IT;
      167    10025    3                  UNWIND TO KS_ERR_RETURN;

  10025 10 000227   000000 237200 xsym               LDAQ  ! KS_ERR_RETURN
        10 000230   000000 700200 xent               TSX0  ! X66_MAUNWIND
        10 000231   000000 000200                    ZERO    0,128

  10016 10 000232                       ERR_RETURN   null
      168    10026    3               END;
      169    10027    2   ERR_RETURN:;
      170    10028    2           END;  /* DO WHILE NOT KS_END_FLG */

  10028 10 000232   000000 234000 xsym               SZN     KS_END_FLG
        10 000233   000167 605000 10                 TPL     s:10016

  10025 10 000234                       BAG_IT       null
      171    10029    1   BAG_IT:;
      172    10030    1        CALL M$CLOSE(CLOSE_NETCON);

  10030 10 000234   000462 630400 1                  EPPR0   CLOSE_NETCON
        10 000235   050001 713400                    CLIMB   close
        10 000236   406000 401760                    pmme    nvectors=13

      173    10031    1        CALL M$CLOSE(CLOSE_HLPCG);

  10031 10 000237   000556 630400 1                  EPPR0   CLOSE_HLPCG
        10 000240   050001 713400                    CLIMB   close
        10 000241   406000 401760                    pmme    nvectors=13

      174    10032    1        CALL M$CLOSE(CLOSE_LO);

  10032 10 000242   000520 630400 1                  EPPR0   CLOSE_LO
        10 000243   050001 713400                    CLIMB   close
PL6.E3A0      #001=KSN$NETCON File=KSN$NETCON.:E05TSI                            WED 07/30/97 01:43 Page:26
        10 000244   406000 401760                    pmme    nvectors=13

      175    10033    1        RETURN;

  10033 10 000245   000000 702200 xent               TSX2  ! X66_MARET
      176    10034    1   END KSN$NETCON;
      177    10035        %EOD;

PL6.E3A0      #001=KSN$NETCON File=KSN$NETCON.:E05TSI                            WED 07/30/97 01:43 Page:27
--  Include file information  --

   B_ERRORS_C.:E05TOU  is referenced.
   KS_PERR_C.:E05TOU  is referenced.
   KS_DATA_R.:E05TOU  cannot be made into a system file and is referenced.
   KS_SUBS_C.:E05TOU  is referenced.
   KS_MACRO_M.:E05TOU  is referenced.
   KL_MACRO_C.:E05TOU  is referenced.
   XU_MACRO_C.:E05TOU  is referenced.
   B$JIT.:E05TOU  cannot be made into a system file and is referenced.
   CP_6.:E05TOU  cannot be made into a system file and is referenced.
   B$JIT_C.:E05TOU  was found in the system file and is referenced.
   CP_6_C.:E05TOU  was found in the system file and is referenced.
      No diagnostics issued in procedure KSN$NETCON.
PL6.E3A0      #001=KSN$NETCON File=KSN$NETCON.:E05TSI                            WED 07/30/97 01:43 Page:28

 **** Variables and constants ****

  ****  Section 001  Data  KSN$NETCON

  ****  Scalars and arrays  ****
OctLoc.c.b A Datatyp(siz) R M Lvl/name                 OctLoc.c.b A Datatyp(siz) R M Lvl/name

   556-0-0/d STRC(1080)  r     1 CLOSE_HLPCG              520-0-0/d STRC(1080)  r     1 CLOSE_LO
   462-0-0/d STRC(1080)  r     1 CLOSE_NETCON             614-0-0/d STRC(432)   r     1 FPT_MONINFO
   102-0-0/d STRC(144)   r     1 FPT_PRIV                   0-0-0/c STRC(189)   r     1 HI_FMT
     6-0-0/b BIT (72)    r     1 HI_VEC                  1005-0-0/c STRC(54)    r     1 HLPCG
   763-0-0/c STRC(45)    r     1 HLPNAME                  767-0-0/c STRC(72)    r     1 NETCON
   746-0-0/w STRC(441)   r     1 NETCON_ACSVEH            276-0-0/d STRC(2088)  r     1 OPEN_FILE
   112-0-0/d STRC(2088)  r     1 OPEN_HLPCG               370-0-0/d STRC(2088)  r     1 OPEN_LO
   204-0-0/d STRC(2088)  r     1 OPEN_NETCON              106-0-0/d STRC(144)   r     1 PPR_NETCON
    27-0-0/c STRC(90)    r     1 PROMPT                   765-0-0/c STRC(45)    r     1 PRONAME
    11-0-0/w STRC(504)   r     1 P_PCB                     10-0-0/w PTR         r     1 P_PCB$
   771-0-0/w STRC(432)   r     1 VLP_SETSTA               630-0-0/d STRC(540)   r     1 VLR_MONINFO
   650-0-0/d STRC(2232)  r     1 VLR_SITEINFO              32-0-0/d STRC(1404)  r     1 XUR_INIT

  ****  Section 002 RoData KSN$NETCON

  ****  Scalars and arrays  ****
OctLoc.c.b A Datatyp(siz) R M Lvl/name                 OctLoc.c.b A Datatyp(siz) R M Lvl/name

     0-0-0/d STRC(144)   r     1 FPT_INT                    6-0-0/c STRC(72)    r     1 NETACCT
     4-0-0/c STRC(72)    r     1 SYSACCT

  ****  Auto variables  ****

  ****  Scalars and arrays  ****
OctLoc.c.b A Datatyp(siz) R M Lvl/name                 OctLoc.c.b A Datatyp(siz) R M Lvl/name

     4-0-0/w PTR         r     1 TOP$                       4-0-0/w STRC        r     1 VLP_ERRCODE

  ****  SYMREF variables  ****

PL6.E3A0      #001=KSN$NETCON File=KSN$NETCON.:E05TSI                            WED 07/30/97 01:43 Page:29
  ****  Scalars and arrays  ****
OctLoc.c.b A Datatyp(siz) R M Lvl/name                 OctLoc.c.b A Datatyp(siz) R M Lvl/name

     0-0-0/w PTR         r     1 B$JIT$                     0-0-0/c CHAR        r     1 B_VERSION
     0-0-0/w SBIN        r     1 KS_CMD                     0-0-0/b BIT         r     1 KS_END_FLG
     0-0-0/d REMB        r     1 KS_ERR_RETURN              0-0-0/w PTR         r     1 KS_MSGBUF$
     0-0-0/w STRC(72)    r     1 KS_MYSTATION               0-0-0/w CHAR(8)     r     1 KS_MYSTATION_C

  ****  BASED and DCB variables  ****

  ****  Scalars and arrays  ****
OctLoc.c.b A Datatyp(siz) R M Lvl/name                 OctLoc.c.b A Datatyp(siz) R M Lvl/name

     0-0-0/d STRC(8856)  r     1 B$JIT                      0-0-0/c ASTR(9)     r     1 B$VERSIONB
     0-0-0N  NULL        r     1 M$HLPCG                    0-0-0N  NULL        r     1 M$HLPF
     0-0-0N  NULL        r     1 M$LO                       0-0-0N  NULL        r     1 M$NETCON
     0-0-0N  NULL        r     1 M$PROF


   Procedure KSN$NETCON requires 166 words for executable code.
   Procedure KSN$NETCON requires 10 words of local(AUTO) storage.
PL6.E3A0      #001=KSN$NETCON File=KSN$NETCON.:E05TSI                            WED 07/30/97 01:43 Page:30
          *** CROSS REFERENCE LISTING ***
**     DENOTES     IDENTIFIER DEFINITION
<<                 IDENTIFIER'S VALUE SET
>>                 IDENTIFIER'S VALUE USED
<>                 IDENTIFIER SET AND/OR USED
--                 IDENTIFIER REFERENCED
PL6.E3A0      #001=KSN$NETCON File=KSN$NETCON.:E05TSI                            WED 07/30/97 01:43 Page:31
          MINI XREF LISTING

B$JIT.CPFLAGS1.SLEAZE
       199**DCL       199--REDEF
B$JIT.ERR.MID
       106**DCL       106--REDEF
B$JIT.JRESPEAK
       267**DCL       268--REDEF
B$JIT.ORIGINATOR_PORT.FROM_CR
       376**DCL       376--REDEF     377--REDEF
B$JIT.PNR
       280**DCL       280--REDEF
B$JIT.SYSID
       105**DCL      9983>>CALLBLT
B$JIT.TSLINE
       374**DCL       375--REDEF
B$JIT$
      8553**DCL       100--IMP-PTR  9983>>CALLBLT
B$VERSIONB.C_
      8586**DCL      8587--IMP-SIZ  9971>>CALLBLT
B$VERSIONB.T_
      8587**DCL      9971>>CALLBLT
BAG_IT
     10025**LABEL    9990--GOTO    10024--GOTO
B_VERSION
      8584**DCL      9971--CALLBLT  9971--CALLBLT
CLOSE_HLPCG
      9556**DCL     10031<>CALL
CLOSE_HLPCG.SN_
      9556**DCL      9556--REDEF
CLOSE_HLPCG.UTL_
      9557**DCL      9557--REDEF
CLOSE_HLPCG.V
      9561**DCL      9556--DCLINIT
PL6.E3A0      #001=KSN$NETCON File=KSN$NETCON.:E05TSI                            WED 07/30/97 01:43 Page:32
CLOSE_HLPCG.V.EXPIRE#
      9571**DCL      9571--REDEF
CLOSE_HLPCG.V.TYPE#
      9569**DCL      9569--REDEF
CLOSE_HLPCG.V.XTNSIZE#
      9566**DCL      9566--REDEF    9568--REDEF
CLOSE_LO
      9513**DCL     10032<>CALL
CLOSE_LO.SN_
      9513**DCL      9513--REDEF
CLOSE_LO.UTL_
      9514**DCL      9514--REDEF
CLOSE_LO.V
      9518**DCL      9513--DCLINIT
CLOSE_LO.V.EXPIRE#
      9528**DCL      9528--REDEF
CLOSE_LO.V.TYPE#
      9526**DCL      9526--REDEF
CLOSE_LO.V.XTNSIZE#
      9523**DCL      9523--REDEF    9525--REDEF
CLOSE_NETCON
      9471**DCL     10030<>CALL
CLOSE_NETCON.SN_
      9471**DCL      9471--REDEF
CLOSE_NETCON.UTL_
      9472**DCL      9472--REDEF
CLOSE_NETCON.V
      9476**DCL      9471--DCLINIT
CLOSE_NETCON.V.EXPIRE#
      9486**DCL      9486--REDEF
CLOSE_NETCON.V.TYPE#
      9484**DCL      9484--REDEF
CLOSE_NETCON.V.XTNSIZE#
      9481**DCL      9481--REDEF    9483--REDEF
ERR_RETURN
     10016**LABEL   10006--REMEMBR
PL6.E3A0      #001=KSN$NETCON File=KSN$NETCON.:E05TSI                            WED 07/30/97 01:43 Page:33
FPT_INT
      8989**DCL     10007<>CALL
FPT_INT.V
      8989**DCL      8989--DCLINIT
FPT_MONINFO
      9586**DCL     10009<>CALL
FPT_PRIV
      8958**DCL      9982<>CALL
FPT_PRIV.V
      8958**DCL      8958--DCLINIT
HI_FMT
      8581**DCL      8616--DCLINIT
HI_FMT.T_
      8583**DCL      9971<<CALLBLT
HI_VEC
      8616**DCL     10005<>CALL
HLPCG
      9888**DCL      9066--DCLINIT
HLPNAME
      9777**DCL      9999--ASSIGN
KSC$COMMANDS
      8516**DCL-ENT 10018--CALL
KSE$ERRMSG
      8517**DCL-ENT  9974--CALL     9986--CALL     9989--CALL     9996--CALL    10002--CALL
KSN$BREAK
      8515**DCL-ENT  8880--DCLINIT
KSW$WRITE
      8518**DCL-ENT 10005--CALL
KS_CMD
      8552**DCL     10016<>CALL
KS_END_FLG
      7289**DCL     10008<<ASSIGN  10015>>DOWHILE
KS_ERR_RETURN
      7290**DCL     10006<<REMEMBR 10025>>UNWIND
KS_MSGBUF$
      7291**DCL      7291--IMP-PTR
PL6.E3A0      #001=KSN$NETCON File=KSN$NETCON.:E05TSI                            WED 07/30/97 01:43 Page:34
KS_MYSTATION
      7287**DCL      7287--REDEF
KS_MYSTATION.SYSID
      7287**DCL      9983<<CALLBLT
KS_MYSTATION_C
      7287**DCL      9984>>ASSIGN
M$CLOSE
        19**DCL-ENT 10030--CALL    10031--CALL    10032--CALL
M$HLPF
      9969**DCL      9998>>ASSIGN
M$INT
        74**DCL-ENT 10007--CALL
M$MONINFO
        87**DCL-ENT 10009--CALL
M$OPEN
        19**DCL-ENT  9985--CALL     9988--CALL     9994--CALL    10000--CALL    10004--CALL
M$PROF
      9970**DCL      9992>>ASSIGN
M$SPRIV
        78**DCL-ENT  9973--CALL     9982--CALL
NETACCT
      9750**DCL      9190--DCLINIT
NETCON
      9832**DCL      9186--DCLINIT
NETCON_ACSVEH
      9638**DCL      9188--DCLINIT
NETCON_ACSVEH.Q
      9639**DCL      9638--DCLINIT
OPEN_FILE
      9294**DCL      9994<>CALL    10000<>CALL
OPEN_FILE.ACSVEH_
      9296**DCL      9297--REDEF
OPEN_FILE.ALTKEYS_
      9302**DCL      9303--REDEF    9303--REDEF
OPEN_FILE.HDR_
      9301**DCL      9302--REDEF
PL6.E3A0      #001=KSN$NETCON File=KSN$NETCON.:E05TSI                            WED 07/30/97 01:43 Page:35
OPEN_FILE.NAME_
      9295**DCL      9993<<ASSIGN   9999<<ASSIGN
OPEN_FILE.TAB_
      9300**DCL      9301--REDEF
OPEN_FILE.UHL_
      9294**DCL      9295--REDEF    9295--REDEF
OPEN_FILE.V
      9303**DCL      9294--DCLINIT
OPEN_FILE.V.DCB#
      9303**DCL      9992<<ASSIGN   9998<<ASSIGN
OPEN_FILE.V.FSN#
      9334**DCL      9334--REDEF    9334--REDEF
OPEN_FILE.WSN_
      9300**DCL      9300--REDEF
OPEN_HLPCG
      9065**DCL      9985<>CALL
OPEN_HLPCG.ACSVEH_
      9067**DCL      9068--REDEF
OPEN_HLPCG.ALTKEYS_
      9073**DCL      9074--REDEF    9074--REDEF
OPEN_HLPCG.HDR_
      9072**DCL      9073--REDEF
OPEN_HLPCG.TAB_
      9071**DCL      9072--REDEF
OPEN_HLPCG.UHL_
      9065**DCL      9066--REDEF    9066--REDEF
OPEN_HLPCG.V
      9074**DCL      9065--DCLINIT
OPEN_HLPCG.V.FSN#
      9105**DCL      9105--REDEF    9105--REDEF
OPEN_HLPCG.WSN_
      9071**DCL      9071--REDEF
OPEN_LO
      9403**DCL     10004<>CALL
OPEN_LO.ACSVEH_
      9405**DCL      9406--REDEF
PL6.E3A0      #001=KSN$NETCON File=KSN$NETCON.:E05TSI                            WED 07/30/97 01:43 Page:36
OPEN_LO.ALTKEYS_
      9411**DCL      9412--REDEF    9412--REDEF
OPEN_LO.HDR_
      9410**DCL      9411--REDEF
OPEN_LO.TAB_
      9409**DCL      9410--REDEF
OPEN_LO.UHL_
      9403**DCL      9404--REDEF    9404--REDEF
OPEN_LO.V
      9412**DCL      9403--DCLINIT
OPEN_LO.V.FSN#
      9443**DCL      9443--REDEF    9443--REDEF
OPEN_LO.WSN_
      9409**DCL      9409--REDEF
OPEN_NETCON
      9185**DCL      9988<>CALL
OPEN_NETCON.ACSVEH_
      9187**DCL      9188--REDEF
OPEN_NETCON.ALTKEYS_
      9193**DCL      9194--REDEF    9194--REDEF
OPEN_NETCON.HDR_
      9192**DCL      9193--REDEF
OPEN_NETCON.TAB_
      9191**DCL      9192--REDEF
OPEN_NETCON.UHL_
      9185**DCL      9186--REDEF    9186--REDEF
OPEN_NETCON.V
      9194**DCL      9185--DCLINIT
OPEN_NETCON.V.FSN#
      9225**DCL      9225--REDEF    9225--REDEF
OPEN_NETCON.WSN_
      9191**DCL      9191--REDEF
PPR_NETCON
      8973**DCL      9973<>CALL
PPR_NETCON.V
      8973**DCL      8973--DCLINIT
PL6.E3A0      #001=KSN$NETCON File=KSN$NETCON.:E05TSI                            WED 07/30/97 01:43 Page:37
PROMPT
      8817**DCL     10016--CALL
PROMPT.NODENAME
      8818**DCL     10010<<ASSIGN  10013<<ASSIGN
PRONAME
      9804**DCL      9993--ASSIGN
P_PCB
      8636**DCL      8617--DCLINIT  8883--DCLINIT
P_PCB$
      8617**DCL      9981<>CALL
SYSACCT
      9737**DCL      9070--DCLINIT  9299--DCLINIT
TOP$
      9917**DCL      9930--REDEF    9963--REDEF   10016<>CALL    10018<>CALL    10021<>CALL
VLP_ERRCODE.ERR#
      9960**DCL     10022>>IF      10022>>IF
VLP_SETSTA
      9846**DCL      9066--DCLINIT
VLP_SETSTA.MYSTATION#
      9850**DCL      9984<<ASSIGN
VLR_MONINFO
      9601**DCL      9586--DCLINIT
VLR_MONINFO.NODE_NAME
      9604**DCL     10010>>ASSIGN
VLR_SITEINFO
      9619**DCL      9586--DCLINIT
XTX$ADAPT
      8847**DCL-ENT  8944--DCLINIT
XUR$BREAK
      8522**DCL-ENT  8989--DCLINIT
XUR$ECHOIF
      8524**DCL-ENT 10017--CALL
XUR$ERRMSG
      8520**DCL-ENT 10021--CALL
XUR$GETCMD
      8519**DCL-ENT 10016--CALL
PL6.E3A0      #001=KSN$NETCON File=KSN$NETCON.:E05TSI                            WED 07/30/97 01:43 Page:38
XUR$INIT
      8523**DCL-ENT  9981--CALL
XUR_INIT
      8870**DCL      9981<>CALL
XUR_INIT.WORKR_
      8884**DCL      8885--REDEF

PL6.E3A0      #002=KSN$BREAK File=KSN$NETCON.:E05TSI                             WED 07/30/97 01:44 Page:39
      178        1        /*M* KSN$BREAK - Break control for NETCON */
      179        2        /*T***********************************************************/
      180        3        /*T*                                                         */
      181        4        /*T* Copyright (c) Bull HN Information Systems Inc., 1997    */
      182        5        /*T*                                                         */
      183        6        /*T***********************************************************/
      184        7        KSN$BREAK: PROC;
      185        8        /**/
      186        9        %INCLUDE CP_6;
      187       90        %INCLUDE KL_MACRO_C;
      188     3442        %INCLUDE KS_MACRO_M;
      189     3639        %INCLUDE KS_SUBS_C;
      190     3882        %INCLUDE KS_DATA_R;
      191     3897        /**/
      192     3898    1         CALL M$CLRSTK;
      193     3899    2        IF KS_NODENAME_SV ~= ' ' THEN DO;
      194     3900    2           KS_NODENAME = KS_NODENAME_SV;
      195     3901    2           KS_NODENAME_SV = ' ';
      196     3902    2           END;  /* IF */
      197     3903    1        UNWIND TO KS_ERR_RETURN;
      198     3904    1   END KSN$BREAK;

PL6.E3A0      #002=KSN$BREAK File=KSN$NETCON.:E05TSI                             WED 07/30/97 01:44 Page:40
--  Include file information  --

   KS_DATA_R.:E05TOU  cannot be made into a system file and is referenced.
   KS_SUBS_C.:E05TOU  is referenced.
   KS_MACRO_M.:E05TOU  is referenced.
   KL_MACRO_C.:E05TOU  is referenced.
   CP_6.:E05TOU  cannot be made into a system file and is referenced.
   B$JIT_C.:E05TOU  was found in the system file and is never referenced.
   CP_6_C.:E05TOU  was found in the system file and is referenced.
      No diagnostics issued in procedure KSN$BREAK.

   Procedure KSN$BREAK requires 18 words for executable code.
   Procedure KSN$BREAK requires 4 words of local(AUTO) storage.

    No errors detected in file KSN$NETCON.:E05TSI    .

PL6.E3A0      #002=KSN$BREAK File=KSN$NETCON.:E05TSI                             WED 07/30/97 01:44 Page:41

 Object Unit name= KSN$BREAK                                  File name= KSN$NETCON.:E05TOU
 UTS= JUL 30 '97 01:44:37.08 WED                              Compiler= PL-6/E31         Sev=      00
 SharedLib= :SHARED_SYSTEM                                    Alt SharedLib=


    ****  Control sections  ****

 Sect   Type Bound  Init  Size OctSiz  Section name(segment info)
    0   DCB   even  none     0      0  M$UC
    1   Proc  even  none    18     22  KSN$BREAK

    ****  Entry defs  ****

                              Check   Calling
                             calling  sequence
  Sect OctLoc Primary Altret sequence   type   Parms  Name
     1      0   yes            yes      Std        0  KSN$BREAK

  ****  Entry refs  ****

         Check        Calling
        calling       sequence
Altret sequence SRef   type   Args  Name
                       nStd      0 X66_AUTO_0
                       Std       0 B_CONSPOOL_D
                       nStd      0 X66_AUNWIND

  ****  Data refs  ****

  Flags:  r = read only, s = secondary
Flgs Name                             Flgs Name                             Flgs Name
     M$UC                                  KS_MYSTATION                          KS_NODENAME
     KS_NODENAME_SV                        KS_ERR_RETURN                         KS_MSGBUF$
     B_VECTNIL
PL6.E3A0      #002=KSN$BREAK File=KSN$NETCON.:E05TSI                             WED 07/30/97 01:44 Page:42


      178        1        /*M* KSN$BREAK - Break control for NETCON */
      179        2        /*T***********************************************************/
      180        3        /*T*                                                         */
      181        4        /*T* Copyright (c) Bull HN Information Systems Inc., 1997    */
      182        5        /*T*                                                         */
      183        6        /*T***********************************************************/
      184        7        KSN$BREAK: PROC;

      7  1 000000   000000 700200 xent  KSN$BREAK    TSX0  ! X66_AUTO_0
         1 000001   000004 000000                    ZERO    4,0

      185        8        /**/
      186        9        %INCLUDE CP_6;
      187       90        %INCLUDE KL_MACRO_C;
      188     3442        %INCLUDE KS_MACRO_M;
      189     3639        %INCLUDE KS_SUBS_C;
      190     3882        %INCLUDE KS_DATA_R;
      191     3897        /**/
      192     3898    1         CALL M$CLRSTK;

   3898  1 000002   010013 713400                    CLIMB   4107
         1 000003   000000 401760                    pmme    nvectors=0

      193     3899    2        IF KS_NODENAME_SV ~= ' ' THEN DO;

   3899  1 000004   040000 106400                    CMPC    fill='040'O
         1 000005   000000 000010 xsym               ADSC9   KS_NODENAME_SV           cn=0,n=8
         1 000006   000035 000001 xsym               ADSC9   B_VECTNIL+29             cn=0,n=1
         1 000007   000017 600000 1                  TZE     s:3903

      194     3900    2           KS_NODENAME = KS_NODENAME_SV;

   3900  1 000010   040000 100400                    MLR     fill='040'O
         1 000011   000000 000010 xsym               ADSC9   KS_NODENAME_SV           cn=0,n=8
         1 000012   000000 000010 xsym               ADSC9   KS_NODENAME              cn=0,n=8

PL6.E3A0      #002=KSN$BREAK File=KSN$NETCON.:E05TSI                             WED 07/30/97 01:44 Page:43
      195     3901    2           KS_NODENAME_SV = ' ';

   3901  1 000013   000035 235000 xsym               LDA     B_VECTNIL+29
         1 000014   000035 236000 xsym               LDQ     B_VECTNIL+29
         1 000015   000000 755000 xsym               STA     KS_NODENAME_SV
         1 000016   000001 756000 xsym               STQ     KS_NODENAME_SV+1

      196     3902    2           END;  /* IF */

      197     3903    1        UNWIND TO KS_ERR_RETURN;

   3903  1 000017   000000 237200 xsym               LDAQ  ! KS_ERR_RETURN
         1 000020   000000 700200 xent               TSX0  ! X66_AUNWIND
         1 000021   000000 000200                    ZERO    0,128
      198     3904    1   END KSN$BREAK;

PL6.E3A0      #002=KSN$BREAK File=KSN$NETCON.:E05TSI                             WED 07/30/97 01:44 Page:44
--  Include file information  --

   KS_DATA_R.:E05TOU  cannot be made into a system file and is referenced.
   KS_SUBS_C.:E05TOU  is referenced.
   KS_MACRO_M.:E05TOU  is referenced.
   KL_MACRO_C.:E05TOU  is referenced.
   CP_6.:E05TOU  cannot be made into a system file and is referenced.
   B$JIT_C.:E05TOU  was found in the system file and is never referenced.
   CP_6_C.:E05TOU  was found in the system file and is referenced.
      No diagnostics issued in procedure KSN$BREAK.
PL6.E3A0      #002=KSN$BREAK File=KSN$NETCON.:E05TSI                             WED 07/30/97 01:44 Page:45

 **** Variables and constants ****

  ****  SYMREF variables  ****

  ****  Scalars and arrays  ****
OctLoc.c.b A Datatyp(siz) R M Lvl/name                 OctLoc.c.b A Datatyp(siz) R M Lvl/name

     0-0-0/d REMB        r     1 KS_ERR_RETURN              0-0-0/w PTR         r     1 KS_MSGBUF$
     0-0-0/c CHAR(8)     r     1 KS_NODENAME                0-0-0/c CHAR(8)     r     1 KS_NODENAME_SV


   Procedure KSN$BREAK requires 18 words for executable code.
   Procedure KSN$BREAK requires 4 words of local(AUTO) storage.

    No errors detected in file KSN$NETCON.:E05TSI    .
PL6.E3A0      #002=KSN$BREAK File=KSN$NETCON.:E05TSI                             WED 07/30/97 01:44 Page:46
          *** CROSS REFERENCE LISTING ***
**     DENOTES     IDENTIFIER DEFINITION
<<                 IDENTIFIER'S VALUE SET
>>                 IDENTIFIER'S VALUE USED
<>                 IDENTIFIER SET AND/OR USED
--                 IDENTIFIER REFERENCED
PL6.E3A0      #002=KSN$BREAK File=KSN$NETCON.:E05TSI                             WED 07/30/97 01:44 Page:47
          MINI XREF LISTING

KS_ERR_RETURN
      3893**DCL      3903>>UNWIND
KS_MSGBUF$
      3894**DCL      3894--IMP-PTR
KS_MYSTATION
      3890**DCL      3890--REDEF
KS_NODENAME
      3890**DCL      3900<<ASSIGN
KS_NODENAME_SV
      3891**DCL      3899>>IF       3900>>ASSIGN   3901<<ASSIGN
M$CLRSTK
        76**DCL-ENT  3898--CALL
