VERSION E05

PL6.E3A0      #001=KSR$RD_HLPCG File=KSR$RDWRCG.:E05TSI                          WED 07/30/97 01:45 Page:1
        1        1        /*M* KSR$RD_HLPCG - read from HLPCG */
        2        2        /*T***********************************************************/
        3        3        /*T*                                                         */
        4        4        /*T* Copyright (c) Bull HN Information Systems Inc., 1997    */
        5        5        /*T*                                                         */
        6        6        /*T***********************************************************/
        7        7        /*X*/
        8        8        KSR$RD_HLPCG: PROC(PRINT_ERROR) ALTRET;
        9        9        /**/
       10       10        /*       INCLUDE FILES       */
       11       11        /**/
       12       12        %INCLUDE CP_6;
       13       93        %INCLUDE CP_6_SUBS;
       14      633        %INCLUDE KL_MACRO_C;
       15     3985 S      %INCLUDE B$JIT_C;
       16     3986        %INCLUDE F$DCB;
       17     4035        %INCLUDE KS_MACRO_M;
       18     4232        %INCLUDE KS_SUBS_C;
       19     4475        %INCLUDE KS_DATA_R;
       20     4490        /**/
       21     4491    1   DCL XUR$ERRCNVRT ENTRY(2);
       22     4492    1   DCL XUR$ERRMSG ENTRY(7) ALTRET;
       23     4493        %B$TCB;
       24     4496        %B$ALT;
       25     4504        /**/
       26     4505    1   DCL M$HLPCG DCB;
       27     4506        /**/
       28     4507    1   DCL ERR# BIT(36);
       29     4508    1   DCL PRINT_ERROR BIT(1) PARAM ALIGNED;
       30     4509    1   DCL MSG# UBIN WORD;
       31     4510    1   DCL B$JIT$ PTR SYMREF;
       32     4511    1   DCL B$TCB$ PTR SYMREF;
       33     4512        /**/
       34     4513        %FPT_READ (FPTN=READ_HLPCG,
       35     4514                   DCB=M$HLPCG,
       36     4515                   BUF=KS_MSGBUF,
       37     4516                   STATION=VLP_STATION);
PL6.E3A0      #001=KSR$RD_HLPCG File=KSR$RDWRCG.:E05TSI                          WED 07/30/97 01:45 Page:2
       38     4555        %VLP_STATION (DIRONLY=YES);
       39     4582        %VLP_STATION (FPTN=VLP_STA,STCLASS=BASED);
       40     4609        %KL_HDR (FPTN=KS_HDR,STCLASS="BASED(BUF$)");
       41     4689    1   DCL BUF$ PTR STATIC INIT(ADDR(KS_MSGBUF));
       42     4690        /**/
       43     4691        %EJECT;
PL6.E3A0      #001=KSR$RD_HLPCG File=KSR$RDWRCG.:E05TSI                          WED 07/30/97 01:45 Page:3
       44     4692    1   REREAD:;
       45     4693    1        CALL M$READ(READ_HLPCG) ALTRET(ALT);
       46     4694    1        MSG# = KS_HDR.MSG#;
       47     4695    1        IF MSG# ~= KS_LASTMSG# THEN GOTO REREAD;
       48     4696    1         IF KS_HDR.RESULTS ~= '0'B THEN
       49     4697    2            DO;
       50     4698    2               CALL XUR$ERRCNVRT (KS_HDR.RESULTS,ERR#);
       51     4699    2               KS_HDR.RESULTS = ERR#;
       52     4700    2               IF ADDR(PRINT_ERROR) ~= ADDR(NIL) THEN
       53     4701    2                  IF PRINT_ERROR = '0'B THEN
       54     4702    2                     ALTRETURN;
       55     4703
       56     4704    2   ALT:        CALL XUR$ERRMSG(ERR#) WHENALTRETURN
       57     4705    3                  DO;
       58     4706    3                     ERR# = B$TCB$->B$TCB.ALT$->B$ALT.ERR;
       59     4707    3                     KS_HDR.RESULTS = ERR#;
       60     4708    3                     GOTO ALT;
       61     4709    3                  END;
       62     4710    2               ALTRETURN;
       63     4711    2            END;
       64     4712    1   END KSR$RD_HLPCG;
       65     4713        %EOD;

PL6.E3A0      #001=KSR$RD_HLPCG File=KSR$RDWRCG.:E05TSI                          WED 07/30/97 01:45 Page:4
--  Include file information  --

   KS_DATA_R.:E05TOU  cannot be made into a system file and is referenced.
   KS_SUBS_C.:E05TOU  is referenced.
   KS_MACRO_M.:E05TOU  is referenced.
   F$DCB.:E05TOU  cannot be made into a system file and is referenced.
   KL_MACRO_C.:E05TOU  is referenced.
   CP_6_SUBS.:E05TOU  is referenced.
   CP_6.:E05TOU  cannot be made into a system file and is referenced.
   B$JIT_C.:E05TOU  was found in the system file and is referenced.
   CP_6_C.:E05TOU  was found in the system file and is referenced.
      No diagnostics issued in procedure KSR$RD_HLPCG.

   Procedure KSR$RD_HLPCG requires 49 words for executable code.
   Procedure KSR$RD_HLPCG requires 8 words of local(AUTO) storage.

PL6.E3A0      #001=KSR$RD_HLPCG File=KSR$RDWRCG.:E05TSI                          WED 07/30/97 01:45 Page:5

 Object Unit name= KSR$RD_HLPCG                               File name= KSR$RDWRCG.:E05TOU
 UTS= JUL 30 '97 01:45:12.56 WED                              Compiler= PL-6/E31         Sev=      00
 SharedLib= :SHARED_SYSTEM                                    Alt SharedLib=


    ****  Control sections  ****

 Sect   Type Bound  Init  Size OctSiz  Section name(segment info)
    0   DCB   even  none     0      0  M$UC
    1   DCB   even  none     0      0  M$HLPCG
    2   Data  even  none    23     27  KSR$RD_HLPCG
    3   Proc  even  none    49     61  KSR$RD_HLPCG

    ****  Entry defs  ****

                              Check   Calling
                             calling  sequence
  Sect OctLoc Primary Altret sequence   type   Parms  Name
     3      0   yes    yes     yes      Std        1  KSR$RD_HLPCG

  ****  Entry refs  ****

         Check        Calling
        calling       sequence
Altret sequence SRef   type   Args  Name
         yes           Std       2 XUR$ERRCNVRT
 yes     yes           Std       7 XUR$ERRMSG
                       nStd      0 X66_AUTO_1
                       Std       0 B_CONSPOOL_D
                       nStd      0 X66_AALT
                       nStd      0 X66_ARET
PL6.E3A0      #001=KSR$RD_HLPCG File=KSR$RDWRCG.:E05TSI                          WED 07/30/97 01:45 Page:6

  ****  Data refs  ****

  Flags:  r = read only, s = secondary
Flgs Name                             Flgs Name                             Flgs Name
     M$UC                                  KS_MYSTATION                          KS_LASTMSG#
     KS_MSGBUF                             KS_MSGBUF$                            M$HLPCG
     B$TCB$                                B_VECTNIL

  ****  Segment refs  ****

  Flags:  r = read only, s = secondary
Flgs Name                             Flgs Name                             Flgs Name
     ISSID                                 NULLSID
PL6.E3A0      #001=KSR$RD_HLPCG File=KSR$RDWRCG.:E05TSI                          WED 07/30/97 01:45 Page:7


        1        1        /*M* KSR$RD_HLPCG - read from HLPCG */
        2        2        /*T***********************************************************/
        3        3        /*T*                                                         */
        4        4        /*T* Copyright (c) Bull HN Information Systems Inc., 1997    */
        5        5        /*T*                                                         */
        6        6        /*T***********************************************************/
        7        7        /*X*/
        8        8        KSR$RD_HLPCG: PROC(PRINT_ERROR) ALTRET;

      8  3 000000   000000 700200 xent  KSR$RD_HLPCG TSX0  ! X66_AUTO_1
         3 000001   000010 000001                    ZERO    8,1

        9        9        /**/
       10       10        /*       INCLUDE FILES       */
       11       11        /**/
       12       12        %INCLUDE CP_6;
       13       93        %INCLUDE CP_6_SUBS;
       14      633        %INCLUDE KL_MACRO_C;
       15     3985 S      %INCLUDE B$JIT_C;
       16     3986        %INCLUDE F$DCB;
       17     4035        %INCLUDE KS_MACRO_M;
       18     4232        %INCLUDE KS_SUBS_C;
       19     4475        %INCLUDE KS_DATA_R;
       20     4490        /**/
       21     4491    1   DCL XUR$ERRCNVRT ENTRY(2);
       22     4492    1   DCL XUR$ERRMSG ENTRY(7) ALTRET;
       23     4493        %B$TCB;
       24     4496        %B$ALT;
       25     4504        /**/
       26     4505    1   DCL M$HLPCG DCB;
       27     4506        /**/
       28     4507    1   DCL ERR# BIT(36);
       29     4508    1   DCL PRINT_ERROR BIT(1) PARAM ALIGNED;
       30     4509    1   DCL MSG# UBIN WORD;
       31     4510    1   DCL B$JIT$ PTR SYMREF;
       32     4511    1   DCL B$TCB$ PTR SYMREF;
PL6.E3A0      #001=KSR$RD_HLPCG File=KSR$RDWRCG.:E05TSI                          WED 07/30/97 01:45 Page:8
       33     4512        /**/
       34     4513        %FPT_READ (FPTN=READ_HLPCG,
       35     4514                   DCB=M$HLPCG,
       36     4515                   BUF=KS_MSGBUF,
       37     4516                   STATION=VLP_STATION);
       38     4555        %VLP_STATION (DIRONLY=YES);
       39     4582        %VLP_STATION (FPTN=VLP_STA,STCLASS=BASED);
       40     4609        %KL_HDR (FPTN=KS_HDR,STCLASS="BASED(BUF$)");
       41     4689    1   DCL BUF$ PTR STATIC INIT(ADDR(KS_MSGBUF));

   4689  3 000002                       REREAD       null
       42     4690        /**/
       43     4691        %EJECT;
PL6.E3A0      #001=KSR$RD_HLPCG File=KSR$RDWRCG.:E05TSI                          WED 07/30/97 01:45 Page:9
       44     4692    1   REREAD:;
       45     4693    1        CALL M$READ(READ_HLPCG) ALTRET(ALT);

   4693  3 000002   000000 630400 2                  EPPR0   READ_HLPCG
         3 000003   440000 713400                    CLIMB   alt,read
         3 000004   401400 401760                    pmme    nvectors=4
         3 000005   000041 702000 3                  TSX2    ALT

       46     4694    1        MSG# = KS_HDR.MSG#;

   4694  3 000006   000026 470400 2                  LDP0    BUF$
         3 000007   000010 236100                    LDQ     8,,PR0
         3 000010   000022 772000                    QRL     18
         3 000011   200005 756100                    STQ     MSG#,,AUTO

       47     4695    1        IF MSG# ~= KS_LASTMSG# THEN GOTO REREAD;

   4695  3 000012   000000 116000 xsym               CMPQ    KS_LASTMSG#
         3 000013   000002 601000 3                  TNZ     REREAD

       48     4696    1         IF KS_HDR.RESULTS ~= '0'B THEN

   4696  3 000014   000007 235100                    LDA     7,,PR0
         3 000015   000060 600000 3                  TZE     s:4712

       49     4697    2            DO;

       50     4698    2               CALL XUR$ERRCNVRT (KS_HDR.RESULTS,ERR#);

   4698  3 000016   200004 631500                    EPPR1   ERR#,,AUTO
         3 000017   200007 451500                    STP1    MSG#+2,,AUTO
         3 000020   000026 236000 2                  LDQ     BUF$
         3 000021   000007 036003                    ADLQ    7,DU
         3 000022   200006 756100                    STQ     MSG#+1,,AUTO
         3 000023   200006 630500                    EPPR0   MSG#+1,,AUTO
         3 000024   000020 631400 xsym               EPPR1   B_VECTNIL+16
         3 000025   000000 701000 xent               TSX1    XUR$ERRCNVRT
PL6.E3A0      #001=KSR$RD_HLPCG File=KSR$RDWRCG.:E05TSI                          WED 07/30/97 01:45 Page:10
         3 000026   000000 011000                    NOP     0

       51     4699    2               KS_HDR.RESULTS = ERR#;

   4699  3 000027   200004 236100                    LDQ     ERR#,,AUTO
         3 000030   000026 470400 2                  LDP0    BUF$
         3 000031   000007 756100                    STQ     7,,PR0

       52     4700    2               IF ADDR(PRINT_ERROR) ~= ADDR(NIL) THEN

   4700  3 000032   200003 236100                    LDQ     @PRINT_ERROR,,AUTO
         3 000033   000001 116000 xsym               CMPQ    B_VECTNIL+1
         3 000034   000041 600000 3                  TZE     ALT

       53     4701    2                  IF PRINT_ERROR = '0'B THEN

   4701  3 000035   200003 471500                    LDP1    @PRINT_ERROR,,AUTO
         3 000036   100000 234100                    SZN     0,,PR1
         3 000037   000041 604000 3                  TMI     ALT

       54     4702    2                     ALTRETURN;

   4702  3 000040   000000 702200 xent               TSX2  ! X66_AALT

       55     4703
       56     4704    2   ALT:        CALL XUR$ERRMSG(ERR#) WHENALTRETURN

   4704  3 000041   200004 630500       ALT          EPPR0   ERR#,,AUTO
         3 000042   200006 450500                    STP0    MSG#+1,,AUTO
         3 000043   200006 630500                    EPPR0   MSG#+1,,AUTO
         3 000044   000017 631400 xsym               EPPR1   B_VECTNIL+15
         3 000045   000000 701000 xent               TSX1    XUR$ERRMSG
         3 000046   000050 702000 3                  TSX2    s:4706
         3 000047   000057 710000 3                  TRA     s:4710

       57     4705    3                  DO;

PL6.E3A0      #001=KSR$RD_HLPCG File=KSR$RDWRCG.:E05TSI                          WED 07/30/97 01:45 Page:11
       58     4706    3                     ERR# = B$TCB$->B$TCB.ALT$->B$ALT.ERR;

   4706  3 000050   000000 470400 xsym               LDP0    B$TCB$
         3 000051   000000 471500                    LDP1    0,,PR0
         3 000052   100102 236100                    LDQ     66,,PR1
         3 000053   200004 756100                    STQ     ERR#,,AUTO

       59     4707    3                     KS_HDR.RESULTS = ERR#;

   4707  3 000054   000026 471400 2                  LDP1    BUF$
         3 000055   100007 756100                    STQ     7,,PR1

       60     4708    3                     GOTO ALT;

   4708  3 000056   000041 710000 3                  TRA     ALT

       61     4709    3                  END;
       62     4710    2               ALTRETURN;

   4710  3 000057   000000 702200 xent               TSX2  ! X66_AALT

       63     4711    2            END;
       64     4712    1   END KSR$RD_HLPCG;

   4712  3 000060   000000 702200 xent               TSX2  ! X66_ARET
       65     4713        %EOD;

PL6.E3A0      #001=KSR$RD_HLPCG File=KSR$RDWRCG.:E05TSI                          WED 07/30/97 01:45 Page:12
--  Include file information  --

   KS_DATA_R.:E05TOU  cannot be made into a system file and is referenced.
   KS_SUBS_C.:E05TOU  is referenced.
   KS_MACRO_M.:E05TOU  is referenced.
   F$DCB.:E05TOU  cannot be made into a system file and is referenced.
   KL_MACRO_C.:E05TOU  is referenced.
   CP_6_SUBS.:E05TOU  is referenced.
   CP_6.:E05TOU  cannot be made into a system file and is referenced.
   B$JIT_C.:E05TOU  was found in the system file and is referenced.
   CP_6_C.:E05TOU  was found in the system file and is referenced.
      No diagnostics issued in procedure KSR$RD_HLPCG.
PL6.E3A0      #001=KSR$RD_HLPCG File=KSR$RDWRCG.:E05TSI                          WED 07/30/97 01:45 Page:13

 **** Variables and constants ****

  ****  Section 002  Data  KSR$RD_HLPCG

  ****  Scalars and arrays  ****
OctLoc.c.b A Datatyp(siz) R M Lvl/name                 OctLoc.c.b A Datatyp(siz) R M Lvl/name

    26-0-0/w PTR         r     1 BUF$                       0-0-0/d STRC(504)   r     1 READ_HLPCG
    16-0-0/w STRC(288)   r     1 VLP_STATION

  ****  Auto variables  ****

  ****  Scalars and arrays  ****
OctLoc.c.b A Datatyp(siz) R M Lvl/name                 OctLoc.c.b A Datatyp(siz) R M Lvl/name

     3-0-0/w PTR         r     1 @PRINT_ERROR               4-0-0/b BIT         r     1 ERR#
     5-0-0/w UBIN        r     1 MSG#                      *0-0-0/w BIT         r     1 PRINT_ERROR

  ****  SYMREF variables  ****

  ****  Scalars and arrays  ****
OctLoc.c.b A Datatyp(siz) R M Lvl/name                 OctLoc.c.b A Datatyp(siz) R M Lvl/name

     0-0-0/w PTR         r     1 B$TCB$                     0-0-0/w UBIN        r     1 KS_LASTMSG#
     0-0-0/c CHAR(400)   r     1 KS_MSGBUF                  0-0-0/w PTR         r     1 KS_MSGBUF$

  ****  BASED and DCB variables  ****

  ****  Scalars and arrays  ****
OctLoc.c.b A Datatyp(siz) R M Lvl/name                 OctLoc.c.b A Datatyp(siz) R M Lvl/name

     0-0-0/w STRC(2448)  r     1 B$ALT                      0-0-0/w STRC(144)   r     1 B$TCB
     0-0-0/d ASTR(3528)  r     1 F$DCB                      0-0-0/w STRC(306)   r     1 KS_HDR
     0-0-0N  NULL        r     1 M$HLPCG

PL6.E3A0      #001=KSR$RD_HLPCG File=KSR$RDWRCG.:E05TSI                          WED 07/30/97 01:45 Page:14

   Procedure KSR$RD_HLPCG requires 49 words for executable code.
   Procedure KSR$RD_HLPCG requires 8 words of local(AUTO) storage.
PL6.E3A0      #001=KSR$RD_HLPCG File=KSR$RDWRCG.:E05TSI                          WED 07/30/97 01:45 Page:15
          *** CROSS REFERENCE LISTING ***
**     DENOTES     IDENTIFIER DEFINITION
<<                 IDENTIFIER'S VALUE SET
>>                 IDENTIFIER'S VALUE USED
<>                 IDENTIFIER SET AND/OR USED
--                 IDENTIFIER REFERENCED
PL6.E3A0      #001=KSR$RD_HLPCG File=KSR$RDWRCG.:E05TSI                          WED 07/30/97 01:45 Page:16
          MINI XREF LISTING

ALT
      4704**LABEL    4693--CALLALT  4708--GOTO
B$ALT.CODE
      4498**DCL      4498--REDEF    4499--REDEF    4499--REDEF
B$ALT.ERR
      4499**DCL      4706>>ASSIGN
B$ALT.ERR.ERR#
      4500**DCL      4500--REDEF
B$ALT.EVID
      4499**DCL      4499--REDEF    4499--REDEF
B$TCB.ALT$
      4494**DCL      4706>>ASSIGN
B$TCB$
      4511**DCL      4706>>ASSIGN
BUF$
      4689**DCL      4625--IMP-PTR  4694>>ASSIGN   4696>>IF       4698>>CALL     4699>>ASSIGN   4707>>ASSIGN
ERR#
      4507**DCL      4698<>CALL     4699>>ASSIGN   4704<>CALL     4706<<ASSIGN   4707>>ASSIGN
F$DCB.ACTPOS
      4012**DCL      4012--REDEF
F$DCB.ARS
      3987**DCL      3987--REDEF
F$DCB.ATTR
      4005**DCL      4006--REDEF
F$DCB.BORROW
      4020**DCL      4020--REDEF    4020--REDEF    4020--REDEF
F$DCB.DCBNAME.L
      4034**DCL      4034--IMP-SIZ
F$DCB.EOMCHAR
      3991**DCL      3991--REDEF
F$DCB.FLDID
      4015**DCL      4015--REDEF
PL6.E3A0      #001=KSR$RD_HLPCG File=KSR$RDWRCG.:E05TSI                          WED 07/30/97 01:45 Page:17
F$DCB.FORM$
      4009**DCL      4009--REDEF
F$DCB.FSECT
      4025**DCL      4025--REDEF
F$DCB.FSN
      4002**DCL      4002--REDEF    4002--REDEF    4003--REDEF
F$DCB.HEADER$
      4008**DCL      4008--REDEF
F$DCB.IXTNSIZE
      4006**DCL      4006--REDEF
F$DCB.LASTSTA$
      3996**DCL      3996--REDEF
F$DCB.LVL
      4021**DCL      4021--REDEF
F$DCB.NAME.C
      3996**DCL      3996--REDEF
F$DCB.NOEOF
      4017**DCL      4017--REDEF
F$DCB.NRECS
      4007**DCL      4007--REDEF
F$DCB.NRECX
      4026**DCL      4026--REDEF
F$DCB.OHDR
      4018**DCL      4018--REDEF
F$DCB.ORG
      4001**DCL      4001--REDEF
F$DCB.PRECNO
      4024**DCL      4024--REDEF
F$DCB.RCSZ
      4029**DCL      4029--REDEF
F$DCB.RES
      3997**DCL      3997--REDEF
F$DCB.SETX
      4009**DCL      4009--REDEF
F$DCB.TAB$
      4008**DCL      4009--REDEF
PL6.E3A0      #001=KSR$RD_HLPCG File=KSR$RDWRCG.:E05TSI                          WED 07/30/97 01:45 Page:18
F$DCB.TDA
      4023**DCL      4023--REDEF
F$DCB.WSN
      3998**DCL      3998--REDEF
KS_HDR.MSG#
      4686**DCL      4694>>ASSIGN
KS_HDR.RESULTS
      4655**DCL      4696>>IF       4698<>CALL     4699<<ASSIGN   4707<<ASSIGN
KS_LASTMSG#
      4486**DCL      4695>>IF
KS_MSGBUF
      4487**DCL      4535--DCLINIT  4536--DCLINIT  4689--DCLINIT
KS_MSGBUF$
      4487**DCL      4487--IMP-PTR
KS_MYSTATION
      4483**DCL      4483--REDEF
M$READ
        22**DCL-ENT  4693--CALL
MSG#
      4509**DCL      4694<<ASSIGN   4695>>IF
PRINT_ERROR
      4508**DCL         8--PROC     4700--IF       4701>>IF
READ_HLPCG
      4533**DCL      4693<>CALL
READ_HLPCG.STATION_
      4536**DCL      4537--REDEF
READ_HLPCG.V
      4537**DCL      4533--DCLINIT
READ_HLPCG.V.DVBYTE.REREAD#
      4548**DCL      4548--REDEF
READ_HLPCG.V.INDX#
      4546**DCL      4546--REDEF
REREAD
      4689**LABEL    4695--GOTO
VLP_STA.MSGIDXT
      4604**DCL      4607--REDEF
PL6.E3A0      #001=KSR$RD_HLPCG File=KSR$RDWRCG.:E05TSI                          WED 07/30/97 01:45 Page:19
VLP_STATION
      4567**DCL      4536--DCLINIT
VLP_STATION.MSGIDXT
      4577**DCL      4580--REDEF
XUR$ERRCNVRT
      4491**DCL-ENT  4698--CALL
XUR$ERRMSG
      4492**DCL-ENT  4704--CALL

PL6.E3A0      #002=KSR$WR_HLPCG File=KSR$RDWRCG.:E05TSI                          WED 07/30/97 01:45 Page:20
       66        1        /*M* KSR$WR_HLPCG - write to HLPCG */
       67        2        /*T***********************************************************/
       68        3        /*T*                                                         */
       69        4        /*T* Copyright (c) Bull HN Information Systems Inc., 1997    */
       70        5        /*T*                                                         */
       71        6        /*T***********************************************************/
       72        7        /**/
       73        8        KSR$WR_HLPCG: PROC(BUF_VEC) ALTRET;
       74        9        /**/
       75       10    1   DCL BUF_VEC VECTOR;
       76       11        /**/
       77       12        /*       INCLUDE FILES       */
       78       13        /**/
       79       14        %INCLUDE CP_6;
       80       95        %INCLUDE CP_6_SUBS;
       81      635        %INCLUDE KL_MACRO_C;
       82     3987        %INCLUDE B_ERRORS_C;
       83     5114 S      %INCLUDE B$JIT_C;
       84     5115        %INCLUDE KS_MACRO_M;
       85     5312        %INCLUDE KS_SUBS_C;
       86     5555        %INCLUDE KS_DATA_R;
       87     5570        /**/
       88     5571        %B$TCB;
       89     5574        %B$ALT;
       90     5582        /**/
       91     5583    1   DCL M$HLPCG DCB;
       92     5584    1   DCL HLPADMIN CHAR(8) STATIC INIT('HLPADMIN');
       93     5585    1   DCL BUF$ PTR;
       94     5586        /**/
       95     5587    1   DCL B$TCB$ PTR SYMREF;
       96     5588        /**/
       97     5589        %FPT_WRITE (FPTN=WRITE_HLPCG,
       98     5590                    DCB=M$HLPCG,
       99     5591                    STATION=VLP_STATION);
      100     5622        %VLP_STATION;
      101     5649        %KL_HDR (FPTN=KS_HDR,STCLASS="BASED(BUF$)");
      102     5729        /**/
PL6.E3A0      #002=KSR$WR_HLPCG File=KSR$RDWRCG.:E05TSI                          WED 07/30/97 01:45 Page:21
      103     5730        %EJECT;
PL6.E3A0      #002=KSR$WR_HLPCG File=KSR$RDWRCG.:E05TSI                          WED 07/30/97 01:45 Page:22
      104     5731    1        BUF$ = VBASE(BUF_VEC);
      105     5732    1        VLP_STATION.STATION# = HLPADMIN;
      106     5733    1        KS_LASTMSG# = KS_LASTMSG# + 1;
      107     5734    1        IF KS_LASTMSG# >= 255 THEN
      108     5735    1           KS_LASTMSG# = 0;
      109     5736    1        KS_HDR.MSG# = KS_LASTMSG#;
      110     5737    1        KS_HDR.ORIGIN = KS_MYSTATION_C;
      111     5738    1        IF KS_NODENAME = ' ' THEN
      112     5739    1           KS_HDR.NODE = KS_NODENAME_SV;
      113     5740    1        ELSE
      114     5741    1           KS_HDR.NODE = KS_NODENAME;
      115     5742    1        WRITE_HLPCG.BUF_ = BUF_VEC;
      116     5743    1        CALL M$WRITE(WRITE_HLPCG) ALTRET(ALT);
      117     5744    1        RETURN;
      118     5745        /**/
      119     5746    1   ALT:;
      120     5747    1        ALTRETURN;
      121     5748    1   END KSR$WR_HLPCG;

PL6.E3A0      #002=KSR$WR_HLPCG File=KSR$RDWRCG.:E05TSI                          WED 07/30/97 01:45 Page:23
--  Include file information  --

   KS_DATA_R.:E05TOU  cannot be made into a system file and is referenced.
   KS_SUBS_C.:E05TOU  is referenced.
   KS_MACRO_M.:E05TOU  is referenced.
   B_ERRORS_C.:E05TOU  is referenced.
   KL_MACRO_C.:E05TOU  is referenced.
   CP_6_SUBS.:E05TOU  is referenced.
   CP_6.:E05TOU  cannot be made into a system file and is referenced.
   B$JIT_C.:E05TOU  was found in the system file and is referenced.
   CP_6_C.:E05TOU  was found in the system file and is referenced.
      No diagnostics issued in procedure KSR$WR_HLPCG.

   Procedure KSR$WR_HLPCG requires 38 words for executable code.
   Procedure KSR$WR_HLPCG requires 6 words of local(AUTO) storage.

    No errors detected in file KSR$RDWRCG.:E05TSI    .

PL6.E3A0      #002=KSR$WR_HLPCG File=KSR$RDWRCG.:E05TSI                          WED 07/30/97 01:45 Page:24

 Object Unit name= KSR$WR_HLPCG                               File name= KSR$RDWRCG.:E05TOU
 UTS= JUL 30 '97 01:45:40.56 WED                              Compiler= PL-6/E31         Sev=      00
 SharedLib= :SHARED_SYSTEM                                    Alt SharedLib=


    ****  Control sections  ****

 Sect   Type Bound  Init  Size OctSiz  Section name(segment info)
    0   DCB   even  none     0      0  M$UC
    1   DCB   even  none     0      0  M$HLPCG
    2   Data  even  none    22     26  KSR$WR_HLPCG
    3   Proc  even  none    38     46  KSR$WR_HLPCG

    ****  Entry defs  ****

                              Check   Calling
                             calling  sequence
  Sect OctLoc Primary Altret sequence   type   Parms  Name
     3      0   yes    yes     yes      Std        1  KSR$WR_HLPCG

  ****  Entry refs  ****

         Check        Calling
        calling       sequence
Altret sequence SRef   type   Args  Name
                       nStd      0 X66_AUTO_1
                       Std       0 B_CONSPOOL_D
                       nStd      0 X66_ARET
                       nStd      0 X66_AALT
PL6.E3A0      #002=KSR$WR_HLPCG File=KSR$RDWRCG.:E05TSI                          WED 07/30/97 01:45 Page:25

  ****  Data refs  ****

  Flags:  r = read only, s = secondary
Flgs Name                             Flgs Name                             Flgs Name
     M$UC                                  KS_MYSTATION                          KS_NODENAME
     KS_NODENAME_SV                        KS_LASTMSG#                           KS_MSGBUF$
     M$HLPCG                               B_VECTNIL

  ****  Segment refs  ****

  Flags:  r = read only, s = secondary
Flgs Name                             Flgs Name                             Flgs Name
     ISSID                                 NULLSID
PL6.E3A0      #002=KSR$WR_HLPCG File=KSR$RDWRCG.:E05TSI                          WED 07/30/97 01:45 Page:26


       66        1        /*M* KSR$WR_HLPCG - write to HLPCG */
       67        2        /*T***********************************************************/
       68        3        /*T*                                                         */
       69        4        /*T* Copyright (c) Bull HN Information Systems Inc., 1997    */
       70        5        /*T*                                                         */
       71        6        /*T***********************************************************/
       72        7        /**/
       73        8        KSR$WR_HLPCG: PROC(BUF_VEC) ALTRET;

      8  3 000000   000000 700200 xent  KSR$WR_HLPCG TSX0  ! X66_AUTO_1
         3 000001   000006 000001                    ZERO    6,1

       74        9        /**/
       75       10    1   DCL BUF_VEC VECTOR;
       76       11        /**/
       77       12        /*       INCLUDE FILES       */
       78       13        /**/
       79       14        %INCLUDE CP_6;
       80       95        %INCLUDE CP_6_SUBS;
       81      635        %INCLUDE KL_MACRO_C;
       82     3987        %INCLUDE B_ERRORS_C;
       83     5114 S      %INCLUDE B$JIT_C;
       84     5115        %INCLUDE KS_MACRO_M;
       85     5312        %INCLUDE KS_SUBS_C;
       86     5555        %INCLUDE KS_DATA_R;
       87     5570        /**/
       88     5571        %B$TCB;
       89     5574        %B$ALT;
       90     5582        /**/
       91     5583    1   DCL M$HLPCG DCB;
       92     5584    1   DCL HLPADMIN CHAR(8) STATIC INIT('HLPADMIN');
       93     5585    1   DCL BUF$ PTR;
       94     5586        /**/
       95     5587    1   DCL B$TCB$ PTR SYMREF;
       96     5588        /**/
       97     5589        %FPT_WRITE (FPTN=WRITE_HLPCG,
PL6.E3A0      #002=KSR$WR_HLPCG File=KSR$RDWRCG.:E05TSI                          WED 07/30/97 01:45 Page:27
       98     5590                    DCB=M$HLPCG,
       99     5591                    STATION=VLP_STATION);
      100     5622        %VLP_STATION;
      101     5649        %KL_HDR (FPTN=KS_HDR,STCLASS="BASED(BUF$)");
      102     5729        /**/
      103     5730        %EJECT;
PL6.E3A0      #002=KSR$WR_HLPCG File=KSR$RDWRCG.:E05TSI                          WED 07/30/97 01:45 Page:28
      104     5731    1        BUF$ = VBASE(BUF_VEC);

   5731  3 000002   200003 470500                    LDP0    @BUF_VEC,,AUTO
         3 000003   000001 236100                    LDQ     1,,PR0
         3 000004   200004 756100                    STQ     BUF$,,AUTO

      105     5732    1        VLP_STATION.STATION# = HLPADMIN;

   5732  3 000005   000000 237000 2                  LDAQ    HLPADMIN
         3 000006   000016 757000 2                  STAQ    VLP_STATION

      106     5733    1        KS_LASTMSG# = KS_LASTMSG# + 1;

   5733  3 000007   000000 235000 xsym               LDA     KS_LASTMSG#
         3 000010   000001 035007                    ADLA    1,DL
         3 000011   000000 755000 xsym               STA     KS_LASTMSG#

      107     5734    1        IF KS_LASTMSG# >= 255 THEN

   5734  3 000012   000377 115007                    CMPA    255,DL
         3 000013   000015 602000 3                  TNC     s:5736

      108     5735    1           KS_LASTMSG# = 0;

   5735  3 000014   000000 450000 xsym               STZ     KS_LASTMSG#

      109     5736    1        KS_HDR.MSG# = KS_LASTMSG#;

   5736  3 000015   000000 720000 xsym               LXL0    KS_LASTMSG#
         3 000016   200004 471500                    LDP1    BUF$,,AUTO
         3 000017   100010 740100                    STX0    8,,PR1

      110     5737    1        KS_HDR.ORIGIN = KS_MYSTATION_C;

   5737  3 000020   040100 100400                    MLR     fill='040'O
         3 000021   000000 000010 xsym               ADSC9   KS_MYSTATION             cn=0,n=8
         3 000022   100003 000010                    ADSC9   3,,PR1                   cn=0,n=8
PL6.E3A0      #002=KSR$WR_HLPCG File=KSR$RDWRCG.:E05TSI                          WED 07/30/97 01:45 Page:29

      111     5738    1        IF KS_NODENAME = ' ' THEN

   5738  3 000023   040000 106400                    CMPC    fill='040'O
         3 000024   000000 000010 xsym               ADSC9   KS_NODENAME              cn=0,n=8
         3 000025   000035 000001 xsym               ADSC9   B_VECTNIL+29             cn=0,n=1
         3 000026   000033 601000 3                  TNZ     s:5741

      112     5739    1           KS_HDR.NODE = KS_NODENAME_SV;

   5739  3 000027   040100 100400                    MLR     fill='040'O
         3 000030   000000 000010 xsym               ADSC9   KS_NODENAME_SV           cn=0,n=8
         3 000031   100005 000010                    ADSC9   5,,PR1                   cn=0,n=8
         3 000032   000036 710000 3                  TRA     s:5742

      113     5740    1        ELSE
      114     5741    1           KS_HDR.NODE = KS_NODENAME;

   5741  3 000033   040100 100400                    MLR     fill='040'O
         3 000034   000000 000010 xsym               ADSC9   KS_NODENAME              cn=0,n=8
         3 000035   100005 000010                    ADSC9   5,,PR1                   cn=0,n=8

      115     5742    1        WRITE_HLPCG.BUF_ = BUF_VEC;

   5742  3 000036   000000 237100                    LDAQ    0,,PR0
         3 000037   000006 757000 2                  STAQ    WRITE_HLPCG+4

      116     5743    1        CALL M$WRITE(WRITE_HLPCG) ALTRET(ALT);

   5743  3 000040   000002 630400 2                  EPPR0   WRITE_HLPCG
         3 000041   440001 713400                    CLIMB   alt,write
         3 000042   401400 401760                    pmme    nvectors=4
         3 000043   000045 702000 3                  TSX2    ALT

      117     5744    1        RETURN;

   5744  3 000044   000000 702200 xent               TSX2  ! X66_ARET
PL6.E3A0      #002=KSR$WR_HLPCG File=KSR$RDWRCG.:E05TSI                          WED 07/30/97 01:45 Page:30

   5742  3 000045                       ALT          null
      118     5745        /**/
      119     5746    1   ALT:;
      120     5747    1        ALTRETURN;

   5747  3 000045   000000 702200 xent               TSX2  ! X66_AALT
      121     5748    1   END KSR$WR_HLPCG;

PL6.E3A0      #002=KSR$WR_HLPCG File=KSR$RDWRCG.:E05TSI                          WED 07/30/97 01:45 Page:31
--  Include file information  --

   KS_DATA_R.:E05TOU  cannot be made into a system file and is referenced.
   KS_SUBS_C.:E05TOU  is referenced.
   KS_MACRO_M.:E05TOU  is referenced.
   B_ERRORS_C.:E05TOU  is referenced.
   KL_MACRO_C.:E05TOU  is referenced.
   CP_6_SUBS.:E05TOU  is referenced.
   CP_6.:E05TOU  cannot be made into a system file and is referenced.
   B$JIT_C.:E05TOU  was found in the system file and is referenced.
   CP_6_C.:E05TOU  was found in the system file and is referenced.
      No diagnostics issued in procedure KSR$WR_HLPCG.
PL6.E3A0      #002=KSR$WR_HLPCG File=KSR$RDWRCG.:E05TSI                          WED 07/30/97 01:45 Page:32

 **** Variables and constants ****

  ****  Section 002  Data  KSR$WR_HLPCG

  ****  Scalars and arrays  ****
OctLoc.c.b A Datatyp(siz) R M Lvl/name                 OctLoc.c.b A Datatyp(siz) R M Lvl/name

     0-0-0/c CHAR(8)     r     1 HLPADMIN                  16-0-0/w STRC(288)   r     1 VLP_STATION
     2-0-0/d STRC(432)   r     1 WRITE_HLPCG

  ****  Auto variables  ****

  ****  Scalars and arrays  ****
OctLoc.c.b A Datatyp(siz) R M Lvl/name                 OctLoc.c.b A Datatyp(siz) R M Lvl/name

     3-0-0/w PTR         r     1 @BUF_VEC                   4-0-0/w PTR         r     1 BUF$
    *0-0-0/d VECT        r     1 BUF_VEC

  ****  SYMREF variables  ****

  ****  Scalars and arrays  ****
OctLoc.c.b A Datatyp(siz) R M Lvl/name                 OctLoc.c.b A Datatyp(siz) R M Lvl/name

     0-0-0/w UBIN        r     1 KS_LASTMSG#                0-0-0/w PTR         r     1 KS_MSGBUF$
     0-0-0/w STRC(72)    r     1 KS_MYSTATION               0-0-0/w CHAR(8)     r     1 KS_MYSTATION_C
     0-0-0/c CHAR(8)     r     1 KS_NODENAME                0-0-0/c CHAR(8)     r     1 KS_NODENAME_SV

  ****  BASED and DCB variables  ****

  ****  Scalars and arrays  ****
OctLoc.c.b A Datatyp(siz) R M Lvl/name                 OctLoc.c.b A Datatyp(siz) R M Lvl/name

     0-0-0/w STRC(306)   r     1 KS_HDR                     0-0-0N  NULL        r     1 M$HLPCG


   Procedure KSR$WR_HLPCG requires 38 words for executable code.
PL6.E3A0      #002=KSR$WR_HLPCG File=KSR$RDWRCG.:E05TSI                          WED 07/30/97 01:45 Page:33
   Procedure KSR$WR_HLPCG requires 6 words of local(AUTO) storage.

    No errors detected in file KSR$RDWRCG.:E05TSI    .
PL6.E3A0      #002=KSR$WR_HLPCG File=KSR$RDWRCG.:E05TSI                          WED 07/30/97 01:45 Page:34
          *** CROSS REFERENCE LISTING ***
**     DENOTES     IDENTIFIER DEFINITION
<<                 IDENTIFIER'S VALUE SET
>>                 IDENTIFIER'S VALUE USED
<>                 IDENTIFIER SET AND/OR USED
--                 IDENTIFIER REFERENCED
PL6.E3A0      #002=KSR$WR_HLPCG File=KSR$RDWRCG.:E05TSI                          WED 07/30/97 01:45 Page:35
          MINI XREF LISTING

ALT
      5742**LABEL    5743--CALLALT
B$ALT.CODE
      5576**DCL      5576--REDEF    5577--REDEF    5577--REDEF
B$ALT.ERR.ERR#
      5578**DCL      5578--REDEF
B$ALT.EVID
      5577**DCL      5577--REDEF    5577--REDEF
BUF$
      5585**DCL      5665--IMP-PTR  5731<<ASSIGN   5736>>ASSIGN   5737>>ASSIGN   5739>>ASSIGN   5741>>ASSIGN
BUF_VEC
        10**DCL         8--PROC     5731>>ASSIGN   5742>>ASSIGN
HLPADMIN
      5584**DCL      5732>>ASSIGN
KS_HDR.MSG#
      5726**DCL      5736<<ASSIGN
KS_HDR.NODE
      5676**DCL      5739<<ASSIGN   5741<<ASSIGN
KS_HDR.ORIGIN
      5675**DCL      5737<<ASSIGN
KS_LASTMSG#
      5566**DCL      5733<<ASSIGN   5733>>ASSIGN   5734>>IF       5735<<ASSIGN   5736>>ASSIGN
KS_MSGBUF$
      5567**DCL      5567--IMP-PTR
KS_MYSTATION
      5563**DCL      5563--REDEF
KS_MYSTATION_C
      5563**DCL      5737>>ASSIGN
KS_NODENAME
      5563**DCL      5738>>IF       5741>>ASSIGN
KS_NODENAME_SV
      5564**DCL      5739>>ASSIGN
PL6.E3A0      #002=KSR$WR_HLPCG File=KSR$RDWRCG.:E05TSI                          WED 07/30/97 01:45 Page:36
M$WRITE
        24**DCL-ENT  5743--CALL
VLP_STATION
      5634**DCL      5610--DCLINIT
VLP_STATION.MSGIDXT
      5644**DCL      5647--REDEF
VLP_STATION.STATION#
      5638**DCL      5732<<ASSIGN
WRITE_HLPCG
      5608**DCL      5743<>CALL
WRITE_HLPCG.BUF_
      5608**DCL      5742<<ASSIGN
WRITE_HLPCG.STATION_
      5610**DCL      5610--REDEF
WRITE_HLPCG.V
      5611**DCL      5608--DCLINIT
WRITE_HLPCG.V.DVBYTE.VFC#
      5617**DCL      5617--REDEF
