PL6.E3A0      #013=KSU$CHK_TRM_RNG File=KSU$UTIL.:E05TSI                         WED 07/30/97 01:49 Page:210
      782        1        /*M* KSU$CHK_TRM_RNG - Routine to check for legal range of TERMIDs */
      783        2        /*T***********************************************************/
      784        3        /*T*                                                         */
      785        4        /*T* Copyright (c) Bull HN Information Systems Inc., 1997    */
      786        5        /*T*                                                         */
      787        6        /*T***********************************************************/
      788        7        /*F* NAME: KSU$CHK_TRM_RNG
      789        8             PURPOSE: This routine is called when NETCON receives a range of
      790        9                      termid specs.  This routine validates that the two termids
      791       10                      constitute a valid range according to the rules defined
      792       11                      below.
      793       12             DESCRIPTION: This routine validates that the two termids passed
      794       13                          constitute a valid range according to the following
      795       14                          rules:
      796       15
      797       16                         1. TERMLO.LEV = TERMHI.LEV
      798       17
      799       18                         2. IF LEV = 1
      800       19                               TERMLO.CHAN <= TERMHI.CHAN
      801       20
      802       21                         3. IF LEV = 2
      803       22                               TERMLO.CHAN = TERMHI.CHAN
      804       23                               TERMLO.SUB <= TERMHI.SUB
      805       24
      806       25                         4. IF LEV = 3
      807       26                               TERMLO.CHAN = TERMHI.CHAN
      808       27                               TERMLO.SUB = TERMHI.SUB
      809       28                               TERMLO.SUBSUB <= TERMHI.SUBSUB
      810       29
      811       30                         If any of the specified conditions are not met, the
      812       31                         altreturn is taken.  Else, return.
      813       32             CALL: CALL KSU$CHK_TRM_RNG(TERMLO,TERMHI) ALTRET(label);
      814       33             INPUT: TERMLO, TERMHI - the two termids making up the range.  See
      815       34                    the B$TERMINAL_ID macro in CP_6.
      816       35             OUTPUT: None.  If the range is valid we return, else altreturn.
      817       36        */
      818       37        KSU$CHK_TRM_RNG: PROC(TERMLO,TERMHI) ALTRET;
PL6.E3A0      #013=KSU$CHK_TRM_RNG File=KSU$UTIL.:E05TSI                         WED 07/30/97 01:49 Page:211
      819       38        /**/
      820       39        %INCLUDE CP_6;
      821      120        %INCLUDE CP_6_SUBS;
      822      660        %INCLUDE KL_MACRO_C;
      823     4012        /**/
      824     4013        %B$TERMINAL_ID (FPTN=TERMLO,STCLASS=PARAM);
      825     4042        %B$TERMINAL_ID (FPTN=TERMHI,STCLASS=PARAM);
      826     4071        %EJECT;
PL6.E3A0      #013=KSU$CHK_TRM_RNG File=KSU$UTIL.:E05TSI                         WED 07/30/97 01:49 Page:212
      827     4072    1        IF TERMLO.LEV ~= TERMHI.LEV
      828     4073    1           THEN ALTRETURN;
      829     4074    2        DO CASE(TERMLO.LEV);
      830     4075    2           CASE(%TERMINAL_ID_LEV_CHAN#);
      831     4076    2              IF TERMLO.TERM.CHANNEL > TERMHI.TERM.CHANNEL
      832     4077    2                 THEN ALTRETURN;
      833     4078    2           CASE(%TERMINAL_ID_LEV_SUBCHAN#);
      834     4079    2              IF TERMLO.TERM.CHANNEL ~= TERMHI.TERM.CHANNEL OR
      835     4080    2                 TERMLO.TERM.SUBDEVICE > TERMHI.TERM.SUBDEVICE
      836     4081    2                 THEN ALTRETURN;
      837     4082    2           CASE(%TERMINAL_ID_LEV_SUBSUBCHAN#);
      838     4083    2              IF TERMLO.TERM.CHANNEL ~= TERMHI.TERM.CHANNEL OR
      839     4084    2                 TERMLO.TERM.SUBDEVICE ~= TERMHI.TERM.SUBDEVICE OR
      840     4085    2                 TERMLO.TERM.SUBSUBDEVICE > TERMHI.TERM.SUBSUBDEVICE
      841     4086    2                 THEN ALTRETURN;
      842     4087    2           END;  /* DO CASE */
      843     4088    1        RETURN;
      844     4089    1   END KSU$CHK_TRM_RNG;
      845     4090        %EOD;

PL6.E3A0      #013=KSU$CHK_TRM_RNG File=KSU$UTIL.:E05TSI                         WED 07/30/97 01:49 Page:213
--  Include file information  --

   KL_MACRO_C.:E05TOU  is referenced.
   CP_6_SUBS.:E05TOU  is referenced.
   CP_6.:E05TOU  cannot be made into a system file and is referenced.
   B$JIT_C.:E05TOU  was found in the system file and is never referenced.
   CP_6_C.:E05TOU  was found in the system file and is referenced.
      No diagnostics issued in procedure KSU$CHK_TRM_RNG.

   Procedure KSU$CHK_TRM_RNG requires 53 words for executable code.
   Procedure KSU$CHK_TRM_RNG requires 8 words of local(AUTO) storage.

PL6.E3A0      #013=KSU$CHK_TRM_RNG File=KSU$UTIL.:E05TSI                         WED 07/30/97 01:49 Page:214

 Object Unit name= KSU$CHK_TRM_RNG                            File name= KSU$UTIL.:E05TOU
 UTS= JUL 30 '97 01:49:53.60 WED                              Compiler= PL-6/E31         Sev=      00
 SharedLib= :SHARED_SYSTEM                                    Alt SharedLib=


    ****  Control sections  ****

 Sect   Type Bound  Init  Size OctSiz  Section name(segment info)
    0   DCB   even  none     0      0  M$UC
    1   Proc  even  none    53     65  KSU$CHK_TRM_RNG

    ****  Entry defs  ****

                              Check   Calling
                             calling  sequence
  Sect OctLoc Primary Altret sequence   type   Parms  Name
     1      0   yes    yes     yes      Std        2  KSU$CHK_TRM_RNG

  ****  Entry refs  ****

         Check        Calling
        calling       sequence
Altret sequence SRef   type   Args  Name
                       nStd      0 X66_AUTO_2
                       nStd      0 X66_AALT
                       nStd      0 X66_ARET

  ****  Data refs  ****

  Flags:  r = read only, s = secondary
Flgs Name                             Flgs Name                             Flgs Name
     M$UC
PL6.E3A0      #013=KSU$CHK_TRM_RNG File=KSU$UTIL.:E05TSI                         WED 07/30/97 01:49 Page:215


      782        1        /*M* KSU$CHK_TRM_RNG - Routine to check for legal range of TERMIDs */
      783        2        /*T***********************************************************/
      784        3        /*T*                                                         */
      785        4        /*T* Copyright (c) Bull HN Information Systems Inc., 1997    */
      786        5        /*T*                                                         */
      787        6        /*T***********************************************************/
      788        7        /*F* NAME: KSU$CHK_TRM_RNG
      789        8             PURPOSE: This routine is called when NETCON receives a range of
      790        9                      termid specs.  This routine validates that the two termids
      791       10                      constitute a valid range according to the rules defined
      792       11                      below.
      793       12             DESCRIPTION: This routine validates that the two termids passed
      794       13                          constitute a valid range according to the following
      795       14                          rules:
      796       15
      797       16                         1. TERMLO.LEV = TERMHI.LEV
      798       17
      799       18                         2. IF LEV = 1
      800       19                               TERMLO.CHAN <= TERMHI.CHAN
      801       20
      802       21                         3. IF LEV = 2
      803       22                               TERMLO.CHAN = TERMHI.CHAN
      804       23                               TERMLO.SUB <= TERMHI.SUB
      805       24
      806       25                         4. IF LEV = 3
      807       26                               TERMLO.CHAN = TERMHI.CHAN
      808       27                               TERMLO.SUB = TERMHI.SUB
      809       28                               TERMLO.SUBSUB <= TERMHI.SUBSUB
      810       29
      811       30                         If any of the specified conditions are not met, the
      812       31                         altreturn is taken.  Else, return.
      813       32             CALL: CALL KSU$CHK_TRM_RNG(TERMLO,TERMHI) ALTRET(label);
      814       33             INPUT: TERMLO, TERMHI - the two termids making up the range.  See
      815       34                    the B$TERMINAL_ID macro in CP_6.
      816       35             OUTPUT: None.  If the range is valid we return, else altreturn.
      817       36        */
PL6.E3A0      #013=KSU$CHK_TRM_RNG File=KSU$UTIL.:E05TSI                         WED 07/30/97 01:49 Page:216
      818       37        KSU$CHK_TRM_RNG: PROC(TERMLO,TERMHI) ALTRET;

     37  1 000000   000000 700200 xent  KSU$CHK_TRM* TSX0  ! X66_AUTO_2
         1 000001   000010 000002                    ZERO    8,2

      819       38        /**/
      820       39        %INCLUDE CP_6;
      821      120        %INCLUDE CP_6_SUBS;
      822      660        %INCLUDE KL_MACRO_C;
      823     4012        /**/
      824     4013        %B$TERMINAL_ID (FPTN=TERMLO,STCLASS=PARAM);
      825     4042        %B$TERMINAL_ID (FPTN=TERMHI,STCLASS=PARAM);
      826     4071        %EJECT;
PL6.E3A0      #013=KSU$CHK_TRM_RNG File=KSU$UTIL.:E05TSI                         WED 07/30/97 01:49 Page:217
      827     4072    1        IF TERMLO.LEV ~= TERMHI.LEV

   4072  1 000002   200004 470500                    LDP0    @TERMHI,,AUTO
         1 000003   000100 101500                    MRL     fill='000'O
         1 000004   000000 200001                    ADSC9   0,,PR0                   cn=1,n=1
         1 000005   200006 000004                    ADSC9   @TERMHI+2,,AUTO          cn=0,n=4
         1 000006   200003 471500                    LDP1    @TERMLO,,AUTO
         1 000007   000100 101500                    MRL     fill='000'O
         1 000010   100000 200001                    ADSC9   0,,PR1                   cn=1,n=1
         1 000011   200007 000004                    ADSC9   @TERMHI+3,,AUTO          cn=0,n=4
         1 000012   200007 236100                    LDQ     @TERMHI+3,,AUTO
         1 000013   200006 116100                    CMPQ    @TERMHI+2,,AUTO
         1 000014   000016 600000 1                  TZE     s:4074

      828     4073    1           THEN ALTRETURN;

   4073  1 000015   000000 702200 xent               TSX2  ! X66_AALT

      829     4074    2        DO CASE(TERMLO.LEV);

   4074  1 000016   000100 101500                    MRL     fill='000'O
         1 000017   100000 200001                    ADSC9   0,,PR1                   cn=1,n=1
         1 000020   200006 000002                    ADSC9   @TERMHI+2,,AUTO          cn=0,n=2
         1 000021   200006 220100                    LDX0    @TERMHI+2,,AUTO
         1 000022   000004 100003                    CMPX0   4,DU
         1 000023   000025 602010 1                  TNC     s:4074+7,X0
         1 000024   000064 710000 1                  TRA     s:4088
         1 000025   000064 710000 1                  TRA     s:4088
         1 000026   000031 710000 1                  TRA     s:4076
         1 000027   000036 710000 1                  TRA     s:4079
         1 000030   000047 710000 1                  TRA     s:4083

      830     4075    2           CASE(%TERMINAL_ID_LEV_CHAN#);

      831     4076    2              IF TERMLO.TERM.CHANNEL > TERMHI.TERM.CHANNEL

   4076  1 000031   000100 106500                    CMPC    fill='000'O
PL6.E3A0      #013=KSU$CHK_TRM_RNG File=KSU$UTIL.:E05TSI                         WED 07/30/97 01:49 Page:218
         1 000032   000000 400002                    ADSC9   0,,PR0                   cn=2,n=2
         1 000033   100000 400002                    ADSC9   0,,PR1                   cn=2,n=2
         1 000034   000064 603000 1                  TRC     s:4088

      832     4077    2                 THEN ALTRETURN;

   4077  1 000035   000000 702200 xent               TSX2  ! X66_AALT

      833     4078    2           CASE(%TERMINAL_ID_LEV_SUBCHAN#);

      834     4079    2              IF TERMLO.TERM.CHANNEL ~= TERMHI.TERM.CHANNEL OR

   4079  1 000036   000100 106500                    CMPC    fill='000'O
         1 000037   100000 400002                    ADSC9   0,,PR1                   cn=2,n=2
         1 000040   000000 400002                    ADSC9   0,,PR0                   cn=2,n=2
         1 000041   000046 601000 1                  TNZ     s:4081
         1 000042   000100 106500                    CMPC    fill='000'O
         1 000043   000001 000002                    ADSC9   1,,PR0                   cn=0,n=2
         1 000044   100001 000002                    ADSC9   1,,PR1                   cn=0,n=2
         1 000045   000064 603000 1                  TRC     s:4088

      835     4080    2                 TERMLO.TERM.SUBDEVICE > TERMHI.TERM.SUBDEVICE
      836     4081    2                 THEN ALTRETURN;

   4081  1 000046   000000 702200 xent               TSX2  ! X66_AALT

      837     4082    2           CASE(%TERMINAL_ID_LEV_SUBSUBCHAN#);

      838     4083    2              IF TERMLO.TERM.CHANNEL ~= TERMHI.TERM.CHANNEL OR

   4083  1 000047   000100 106500                    CMPC    fill='000'O
         1 000050   100000 400002                    ADSC9   0,,PR1                   cn=2,n=2
         1 000051   000000 400002                    ADSC9   0,,PR0                   cn=2,n=2
         1 000052   000063 601000 1                  TNZ     s:4086
         1 000053   000100 106500                    CMPC    fill='000'O
         1 000054   100001 000002                    ADSC9   1,,PR1                   cn=0,n=2
         1 000055   000001 000002                    ADSC9   1,,PR0                   cn=0,n=2
PL6.E3A0      #013=KSU$CHK_TRM_RNG File=KSU$UTIL.:E05TSI                         WED 07/30/97 01:49 Page:219
         1 000056   000063 601000 1                  TNZ     s:4086
         1 000057   000100 106500                    CMPC    fill='000'O
         1 000060   000001 400002                    ADSC9   1,,PR0                   cn=2,n=2
         1 000061   100001 400002                    ADSC9   1,,PR1                   cn=2,n=2
         1 000062   000064 603000 1                  TRC     s:4088

      839     4084    2                 TERMLO.TERM.SUBDEVICE ~= TERMHI.TERM.SUBDEVICE OR
      840     4085    2                 TERMLO.TERM.SUBSUBDEVICE > TERMHI.TERM.SUBSUBDEVICE
      841     4086    2                 THEN ALTRETURN;

   4086  1 000063   000000 702200 xent               TSX2  ! X66_AALT

      842     4087    2           END;  /* DO CASE */

      843     4088    1        RETURN;

   4088  1 000064   000000 702200 xent               TSX2  ! X66_ARET
      844     4089    1   END KSU$CHK_TRM_RNG;
      845     4090        %EOD;

PL6.E3A0      #013=KSU$CHK_TRM_RNG File=KSU$UTIL.:E05TSI                         WED 07/30/97 01:49 Page:220
--  Include file information  --

   KL_MACRO_C.:E05TOU  is referenced.
   CP_6_SUBS.:E05TOU  is referenced.
   CP_6.:E05TOU  cannot be made into a system file and is referenced.
   B$JIT_C.:E05TOU  was found in the system file and is never referenced.
   CP_6_C.:E05TOU  was found in the system file and is referenced.
      No diagnostics issued in procedure KSU$CHK_TRM_RNG.
PL6.E3A0      #013=KSU$CHK_TRM_RNG File=KSU$UTIL.:E05TSI                         WED 07/30/97 01:49 Page:221

 **** Variables and constants ****

  ****  Auto variables  ****

  ****  Scalars and arrays  ****
OctLoc.c.b A Datatyp(siz) R M Lvl/name                 OctLoc.c.b A Datatyp(siz) R M Lvl/name

     4-0-0/w PTR         r     1 @TERMHI                    3-0-0/w PTR         r     1 @TERMLO
    *0-0-0/c STRC(144)   r     1 TERMHI                    *0-0-0/c STRC(144)   r     1 TERMLO


   Procedure KSU$CHK_TRM_RNG requires 53 words for executable code.
   Procedure KSU$CHK_TRM_RNG requires 8 words of local(AUTO) storage.
PL6.E3A0      #013=KSU$CHK_TRM_RNG File=KSU$UTIL.:E05TSI                         WED 07/30/97 01:49 Page:222
          *** CROSS REFERENCE LISTING ***
**     DENOTES     IDENTIFIER DEFINITION
<<                 IDENTIFIER'S VALUE SET
>>                 IDENTIFIER'S VALUE USED
<>                 IDENTIFIER SET AND/OR USED
--                 IDENTIFIER REFERENCED
PL6.E3A0      #013=KSU$CHK_TRM_RNG File=KSU$UTIL.:E05TSI                         WED 07/30/97 01:49 Page:223
          MINI XREF LISTING

TERMHI
      4056**DCL        37--PROC
TERMHI.LEV
      4060**DCL      4072>>IF
TERMHI.TERM
      4060**DCL      4069--REDEF
TERMHI.TERM.CHANNEL
      4062**DCL      4076>>IF       4079>>IF       4083>>IF
TERMHI.TERM.SUBDEVICE
      4062**DCL      4079>>IF       4083>>IF
TERMHI.TERM.SUBSUBDEVICE
      4063**DCL      4083>>IF
TERMLO
      4027**DCL        37--PROC
TERMLO.LEV
      4031**DCL      4072>>IF       4074>>DOCASE
TERMLO.TERM
      4031**DCL      4040--REDEF
TERMLO.TERM.CHANNEL
      4033**DCL      4076>>IF       4079>>IF       4083>>IF
TERMLO.TERM.SUBDEVICE
      4033**DCL      4079>>IF       4083>>IF
TERMLO.TERM.SUBSUBDEVICE
      4034**DCL      4083>>IF

PL6.E3A0      #014=KSU$READ_NETCON File=KSU$UTIL.:E05TSI                         WED 07/30/97 01:50 Page:224
      846        1        /*M* KSU$READ_NETCON - routine to set up a key and buffer and read theNETCON file*/
      847        2        /*T***********************************************************/
      848        3        /*T*                                                         */
      849        4        /*T* Copyright (c) Bull HN Information Systems Inc., 1997    */
      850        5        /*T*                                                         */
      851        6        /*T***********************************************************/
      852        7        KSU$READ_NETCON: PROC (KEY_,BUF_) ALTRET;
      853        8
      854        9              %INCLUDE CP_6;
      855       90              %INCLUDE CP_6_SUBS;
      856      630    1         DCL KEY_ VECTOR;
      857      631    1         DCL BUF_ VECTOR;
      858      632
      859      633              %FPT_READ(FPTN=READ_NETCON,DCB=M$NETCON,KEYS=YES);
      860      672
      861      673    1         DCL M$NETCON DCB;
      862      674
      863      675    1         READ_NETCON.KEY_ = KEY_;
      864      676    1         READ_NETCON.BUF_ = BUF_;
      865      677
      866      678    1         CALL M$READ (READ_NETCON) WHENALTRETURN
      867      679    2            DO;
      868      680    2               ALTRETURN;
      869      681    2            END;
      870      682    1   END KSU$READ_NETCON;
      871      683        %EOD;

PL6.E3A0      #014=KSU$READ_NETCON File=KSU$UTIL.:E05TSI                         WED 07/30/97 01:50 Page:225
--  Include file information  --

   CP_6_SUBS.:E05TOU  is referenced.
   CP_6.:E05TOU  cannot be made into a system file and is referenced.
   B$JIT_C.:E05TOU  was found in the system file and is never referenced.
   CP_6_C.:E05TOU  was found in the system file and is referenced.
      No diagnostics issued in procedure KSU$READ_NETCON.

   Procedure KSU$READ_NETCON requires 15 words for executable code.
   Procedure KSU$READ_NETCON requires 6 words of local(AUTO) storage.

PL6.E3A0      #014=KSU$READ_NETCON File=KSU$UTIL.:E05TSI                         WED 07/30/97 01:50 Page:226

 Object Unit name= KSU$READ_NETCON                            File name= KSU$UTIL.:E05TOU
 UTS= JUL 30 '97 01:50:08.32 WED                              Compiler= PL-6/E31         Sev=      00
 SharedLib= :SHARED_SYSTEM                                    Alt SharedLib=


    ****  Control sections  ****

 Sect   Type Bound  Init  Size OctSiz  Section name(segment info)
    0   DCB   even  none     0      0  M$UC
    1   Data  even  none    14     16  KSU$READ_NETCON
    2   DCB   even  none     0      0  M$NETCON
    3   Proc  even  none    15     17  KSU$READ_NETCON

    ****  Entry defs  ****

                              Check   Calling
                             calling  sequence
  Sect OctLoc Primary Altret sequence   type   Parms  Name
     3      0   yes    yes     yes      Std        2  KSU$READ_NETCON

  ****  Entry refs  ****

         Check        Calling
        calling       sequence
Altret sequence SRef   type   Args  Name
                       nStd      0 X66_AUTO_2
                       nStd      0 X66_AALT
                       nStd      0 X66_ARET

  ****  Data refs  ****

  Flags:  r = read only, s = secondary
Flgs Name                             Flgs Name                             Flgs Name
     M$UC                                  M$NETCON
PL6.E3A0      #014=KSU$READ_NETCON File=KSU$UTIL.:E05TSI                         WED 07/30/97 01:50 Page:227

  ****  Segment refs  ****

  Flags:  r = read only, s = secondary
Flgs Name                             Flgs Name                             Flgs Name
     ISSID                                 NULLSID
PL6.E3A0      #014=KSU$READ_NETCON File=KSU$UTIL.:E05TSI                         WED 07/30/97 01:50 Page:228


      846        1        /*M* KSU$READ_NETCON - routine to set up a key and buffer and read theNETCON file*/
      847        2        /*T***********************************************************/
      848        3        /*T*                                                         */
      849        4        /*T* Copyright (c) Bull HN Information Systems Inc., 1997    */
      850        5        /*T*                                                         */
      851        6        /*T***********************************************************/
      852        7        KSU$READ_NETCON: PROC (KEY_,BUF_) ALTRET;

      7  3 000000   000000 700200 xent  KSU$READ_NE* TSX0  ! X66_AUTO_2
         3 000001   000006 000002                    ZERO    6,2

      853        8
      854        9              %INCLUDE CP_6;
      855       90              %INCLUDE CP_6_SUBS;
      856      630    1         DCL KEY_ VECTOR;
      857      631    1         DCL BUF_ VECTOR;
      858      632
      859      633              %FPT_READ(FPTN=READ_NETCON,DCB=M$NETCON,KEYS=YES);
      860      672
      861      673    1         DCL M$NETCON DCB;
      862      674
      863      675    1         READ_NETCON.KEY_ = KEY_;

    675  3 000002   200003 470500                    LDP0    @KEY_,,AUTO
         3 000003   000000 237100                    LDAQ    0,,PR0
         3 000004   000002 757000 1                  STAQ    READ_NETCON+2

      864      676    1         READ_NETCON.BUF_ = BUF_;

    676  3 000005   200004 471500                    LDP1    @BUF_,,AUTO
         3 000006   100000 237100                    LDAQ    0,,PR1
         3 000007   000004 757000 1                  STAQ    READ_NETCON+4

      865      677
      866      678    1         CALL M$READ (READ_NETCON) WHENALTRETURN

PL6.E3A0      #014=KSU$READ_NETCON File=KSU$UTIL.:E05TSI                         WED 07/30/97 01:50 Page:229
    678  3 000010   000000 630400 1                  EPPR0   READ_NETCON
         3 000011   440000 713400                    CLIMB   alt,read
         3 000012   401400 401760                    pmme    nvectors=4
         3 000013   000015 702000 3                  TSX2    s:680
         3 000014   000016 710000 3                  TRA     s:682

      867      679    2            DO;

      868      680    2               ALTRETURN;

    680  3 000015   000000 702200 xent               TSX2  ! X66_AALT

      869      681    2            END;
      870      682    1   END KSU$READ_NETCON;

    682  3 000016   000000 702200 xent               TSX2  ! X66_ARET
      871      683        %EOD;

PL6.E3A0      #014=KSU$READ_NETCON File=KSU$UTIL.:E05TSI                         WED 07/30/97 01:50 Page:230
--  Include file information  --

   CP_6_SUBS.:E05TOU  is referenced.
   CP_6.:E05TOU  cannot be made into a system file and is referenced.
   B$JIT_C.:E05TOU  was found in the system file and is never referenced.
   CP_6_C.:E05TOU  was found in the system file and is referenced.
      No diagnostics issued in procedure KSU$READ_NETCON.
PL6.E3A0      #014=KSU$READ_NETCON File=KSU$UTIL.:E05TSI                         WED 07/30/97 01:50 Page:231

 **** Variables and constants ****

  ****  Section 001  Data  KSU$READ_NETCON

  ****  Scalars and arrays  ****
OctLoc.c.b A Datatyp(siz) R M Lvl/name                 OctLoc.c.b A Datatyp(siz) R M Lvl/name

     0-0-0/d STRC(504)   r     1 READ_NETCON

  ****  Auto variables  ****

  ****  Scalars and arrays  ****
OctLoc.c.b A Datatyp(siz) R M Lvl/name                 OctLoc.c.b A Datatyp(siz) R M Lvl/name

     4-0-0/w PTR         r     1 @BUF_                      3-0-0/w PTR         r     1 @KEY_
    *0-0-0/d VECT        r     1 BUF_                      *0-0-0/d VECT        r     1 KEY_

  ****  BASED and DCB variables  ****

  ****  Scalars and arrays  ****
OctLoc.c.b A Datatyp(siz) R M Lvl/name                 OctLoc.c.b A Datatyp(siz) R M Lvl/name

     0-0-0N  NULL        r     1 M$NETCON


   Procedure KSU$READ_NETCON requires 15 words for executable code.
   Procedure KSU$READ_NETCON requires 6 words of local(AUTO) storage.
PL6.E3A0      #014=KSU$READ_NETCON File=KSU$UTIL.:E05TSI                         WED 07/30/97 01:50 Page:232
          *** CROSS REFERENCE LISTING ***
**     DENOTES     IDENTIFIER DEFINITION
<<                 IDENTIFIER'S VALUE SET
>>                 IDENTIFIER'S VALUE USED
<>                 IDENTIFIER SET AND/OR USED
--                 IDENTIFIER REFERENCED
PL6.E3A0      #014=KSU$READ_NETCON File=KSU$UTIL.:E05TSI                         WED 07/30/97 01:50 Page:233
          MINI XREF LISTING

BUF_
       631**DCL         7--PROC      676>>ASSIGN
KEY_
       630**DCL         7--PROC      675>>ASSIGN
M$READ
        19**DCL-ENT   678--CALL
READ_NETCON
       650**DCL       678<>CALL
READ_NETCON.BUF_
       652**DCL       676<<ASSIGN
READ_NETCON.KEY_
       650**DCL       675<<ASSIGN
READ_NETCON.STATION_
       653**DCL       654--REDEF
READ_NETCON.V
       654**DCL       650--DCLINIT
READ_NETCON.V.DVBYTE.REREAD#
       665**DCL       665--REDEF
READ_NETCON.V.INDX#
       663**DCL       663--REDEF

PL6.E3A0      #015=KSU$BLD_KL_CONTROL File=KSU$UTIL.:E05TSI                      WED 07/30/97 01:50 Page:234
      872        1        /*T***********************************************************/
      873        2        /*T*                                                         */
      874        3        /*T* Copyright (c) Bull HN Information Systems Inc., 1997    */
      875        4        /*T*                                                         */
      876        5        /*T***********************************************************/
      877        6
      878        7        KSU$BLD_KL_CONTROL: PROC(KL_CONTROL,HANDLER,CMD,PARMX,INDX);
      879        8
      880        9              %INCLUDE CP_6;
      881       90              %INCLUDE CP_6_SUBS;
      882      630              %INCLUDE KL_MACRO_C;
      883     3982
      884     3983    1         DCL HANDLER CHAR(8);
      885     3984    1         DCL CMD     UBIN;
      886     3985    1         DCL PARMX   UBIN;
      887     3986    1         DCL INDX    UBIN;
      888     3987
      889     3988              %KL_CONTROL (STCLASS=PARAM);
      890     4124
      891     4125    1         KL_CONTROL.HANDLER =HANDLER;
      892     4126    1         KL_CONTROL.CMD     =CMD;
      893     4127    1         KL_CONTROL.PARMX   =PARMX;
      894     4128    1         KL_CONTROL.INDX    =INDX;
      895     4129    1   END KSU$BLD_KL_CONTROL;
      896     4130        %EOD;

PL6.E3A0      #015=KSU$BLD_KL_CONTROL File=KSU$UTIL.:E05TSI                      WED 07/30/97 01:50 Page:235
--  Include file information  --

   KL_MACRO_C.:E05TOU  is referenced.
   CP_6_SUBS.:E05TOU  is referenced.
   CP_6.:E05TOU  cannot be made into a system file and is referenced.
   B$JIT_C.:E05TOU  was found in the system file and is never referenced.
   CP_6_C.:E05TOU  was found in the system file and is referenced.
      No diagnostics issued in procedure KSU$BLD_KL_CONTROL.

   Procedure KSU$BLD_KL_CONTROL requires 17 words for executable code.
   Procedure KSU$BLD_KL_CONTROL requires 8 words of local(AUTO) storage.

PL6.E3A0      #015=KSU$BLD_KL_CONTROL File=KSU$UTIL.:E05TSI                      WED 07/30/97 01:50 Page:236

 Object Unit name= KSU$BLD_KL_CONTROL                         File name= KSU$UTIL.:E05TOU
 UTS= JUL 30 '97 01:50:15.76 WED                              Compiler= PL-6/E31         Sev=      00
 SharedLib= :SHARED_SYSTEM                                    Alt SharedLib=


    ****  Control sections  ****

 Sect   Type Bound  Init  Size OctSiz  Section name(segment info)
    0   DCB   even  none     0      0  M$UC
    1   Proc  even  none    17     21  KSU$BLD_KL_CONTROL

    ****  Entry defs  ****

                              Check   Calling
                             calling  sequence
  Sect OctLoc Primary Altret sequence   type   Parms  Name
     1      0   yes            yes      Std        5  KSU$BLD_KL_CONTROL

  ****  Entry refs  ****

         Check        Calling
        calling       sequence
Altret sequence SRef   type   Args  Name
                       nStd      0 X66_AUTO_5
                       nStd      0 X66_ARET

  ****  Data refs  ****

  Flags:  r = read only, s = secondary
Flgs Name                             Flgs Name                             Flgs Name
     M$UC
PL6.E3A0      #015=KSU$BLD_KL_CONTROL File=KSU$UTIL.:E05TSI                      WED 07/30/97 01:50 Page:237


      872        1        /*T***********************************************************/
      873        2        /*T*                                                         */
      874        3        /*T* Copyright (c) Bull HN Information Systems Inc., 1997    */
      875        4        /*T*                                                         */
      876        5        /*T***********************************************************/
      877        6
      878        7        KSU$BLD_KL_CONTROL: PROC(KL_CONTROL,HANDLER,CMD,PARMX,INDX);

      7  1 000000   000000 700200 xent  KSU$BLD_KL_* TSX0  ! X66_AUTO_5
         1 000001   000010 000005                    ZERO    8,5

      879        8
      880        9              %INCLUDE CP_6;
      881       90              %INCLUDE CP_6_SUBS;
      882      630              %INCLUDE KL_MACRO_C;
      883     3982
      884     3983    1         DCL HANDLER CHAR(8);
      885     3984    1         DCL CMD     UBIN;
      886     3985    1         DCL PARMX   UBIN;
      887     3986    1         DCL INDX    UBIN;
      888     3987
      889     3988              %KL_CONTROL (STCLASS=PARAM);
      890     4124
      891     4125    1         KL_CONTROL.HANDLER =HANDLER;

   4125  1 000002   200004 470500                    LDP0    @HANDLER,,AUTO
         1 000003   200003 471500                    LDP1    @KL_CONTROL,,AUTO
         1 000004   040100 100500                    MLR     fill='040'O
         1 000005   000000 000010                    ADSC9   0,,PR0                   cn=0,n=8
         1 000006   100001 000010                    ADSC9   1,,PR1                   cn=0,n=8

      892     4126    1         KL_CONTROL.CMD     =CMD;

   4126  1 000007   200005 473500                    LDP3    @CMD,,AUTO
         1 000010   300000 720100                    LXL0    0,,PR3
         1 000011   100010 440100                    SXL0    8,,PR1
PL6.E3A0      #015=KSU$BLD_KL_CONTROL File=KSU$UTIL.:E05TSI                      WED 07/30/97 01:50 Page:238

      893     4127    1         KL_CONTROL.PARMX   =PARMX;

   4127  1 000012   200006 474500                    LDP4    @PARMX,,AUTO
         1 000013   400000 721100                    LXL1    0,,PR4
         1 000014   100011 741100                    STX1    9,,PR1

      894     4128    1         KL_CONTROL.INDX    =INDX;

   4128  1 000015   200007 475500                    LDP5    @INDX,,AUTO
         1 000016   500000 722100                    LXL2    0,,PR5
         1 000017   100011 442100                    SXL2    9,,PR1

      895     4129    1   END KSU$BLD_KL_CONTROL;

   4129  1 000020   000000 702200 xent               TSX2  ! X66_ARET
      896     4130        %EOD;

PL6.E3A0      #015=KSU$BLD_KL_CONTROL File=KSU$UTIL.:E05TSI                      WED 07/30/97 01:50 Page:239
--  Include file information  --

   KL_MACRO_C.:E05TOU  is referenced.
   CP_6_SUBS.:E05TOU  is referenced.
   CP_6.:E05TOU  cannot be made into a system file and is referenced.
   B$JIT_C.:E05TOU  was found in the system file and is never referenced.
   CP_6_C.:E05TOU  was found in the system file and is referenced.
      No diagnostics issued in procedure KSU$BLD_KL_CONTROL.
PL6.E3A0      #015=KSU$BLD_KL_CONTROL File=KSU$UTIL.:E05TSI                      WED 07/30/97 01:50 Page:240

 **** Variables and constants ****

  ****  Auto variables  ****

  ****  Scalars and arrays  ****
OctLoc.c.b A Datatyp(siz) R M Lvl/name                 OctLoc.c.b A Datatyp(siz) R M Lvl/name

     5-0-0/w PTR         r     1 @CMD                       4-0-0/w PTR         r     1 @HANDLER
     7-0-0/w PTR         r     1 @INDX                      3-0-0/w PTR         r     1 @KL_CONTROL
     6-0-0/w PTR         r     1 @PARMX                    *0-0-0/w UBIN        r     1 CMD
    *0-0-0/c CHAR(8)     r     1 HANDLER                   *0-0-0/w UBIN        r     1 INDX
    *0-0-0/w STRC(396)   r     1 KL_CONTROL                *0-0-0/w UBIN        r     1 PARMX


   Procedure KSU$BLD_KL_CONTROL requires 17 words for executable code.
   Procedure KSU$BLD_KL_CONTROL requires 8 words of local(AUTO) storage.
PL6.E3A0      #015=KSU$BLD_KL_CONTROL File=KSU$UTIL.:E05TSI                      WED 07/30/97 01:50 Page:241
          *** CROSS REFERENCE LISTING ***
**     DENOTES     IDENTIFIER DEFINITION
<<                 IDENTIFIER'S VALUE SET
>>                 IDENTIFIER'S VALUE USED
<>                 IDENTIFIER SET AND/OR USED
--                 IDENTIFIER REFERENCED
PL6.E3A0      #015=KSU$BLD_KL_CONTROL File=KSU$UTIL.:E05TSI                      WED 07/30/97 01:50 Page:242
          MINI XREF LISTING

CMD
      3984**DCL         7--PROC     4126>>ASSIGN
HANDLER
      3983**DCL         7--PROC     4125>>ASSIGN
INDX
      3986**DCL         7--PROC     4128>>ASSIGN
KL_CONTROL
      4019**DCL         7--PROC
KL_CONTROL.CMD
      4090**DCL      4126<<ASSIGN
KL_CONTROL.HANDLER
      4028**DCL      4125<<ASSIGN
KL_CONTROL.INDX
      4106**DCL      4128<<ASSIGN
KL_CONTROL.PARMX
      4100**DCL      4127<<ASSIGN
PARMX
      3985**DCL         7--PROC     4127>>ASSIGN

PL6.E3A0      #016=KSU$WRITE_NETCON File=KSU$UTIL.:E05TSI                        WED 07/30/97 01:50 Page:243
      897        1        /*M* KSU$WRITE_NETCON - routine to set up a key and buffer and write to the :NETCON
                 1        file*/
      898        2        /*T***********************************************************/
      899        3        /*T*                                                         */
      900        4        /*T* Copyright (c) Bull HN Information Systems Inc., 1997    */
      901        5        /*T*                                                         */
      902        6        /*T***********************************************************/
      903        7        KSU$WRITE_NETCON: PROC (KEY_,BUF_,BOUND) ALTRET;
      904        8
      905        9              %INCLUDE CP_6;
      906       90              %INCLUDE CP_6_SUBS;
      907      630    1         DCL KEY_ VECTOR;
      908      631    1         DCL BUF_ VECTOR;
      909      632    1         DCL BOUND    UBIN;
      910      633
      911      634              %FPT_WRITE(FPTN=WRITE_NETCON,DCB=M$NETCON);
      912      665
      913      666    1         DCL M$NETCON DCB;
      914      667
      915      668    1         WRITE_NETCON.KEY_ = KEY_;
      916      669    1         WRITE_NETCON.BUF_ = BUF_;
      917      670    1         IF ADDR(BOUND) ~= ADDR(NIL) THEN
      918      671    1            WRITE_NETCON.BUF_.BOUND = BOUND;
      919      672
      920      673    1         CALL M$WRITE (WRITE_NETCON) WHENALTRETURN
      921      674    2            DO;
      922      675    2               ALTRETURN;
      923      676    2            END;
      924      677    1   END KSU$WRITE_NETCON;
      925      678        %EOD;

PL6.E3A0      #016=KSU$WRITE_NETCON File=KSU$UTIL.:E05TSI                        WED 07/30/97 01:50 Page:244
--  Include file information  --

   CP_6_SUBS.:E05TOU  is referenced.
   CP_6.:E05TOU  cannot be made into a system file and is referenced.
   B$JIT_C.:E05TOU  was found in the system file and is never referenced.
   CP_6_C.:E05TOU  was found in the system file and is referenced.
      No diagnostics issued in procedure KSU$WRITE_NETCON.

   Procedure KSU$WRITE_NETCON requires 24 words for executable code.
   Procedure KSU$WRITE_NETCON requires 6 words of local(AUTO) storage.

PL6.E3A0      #016=KSU$WRITE_NETCON File=KSU$UTIL.:E05TSI                        WED 07/30/97 01:50 Page:245

 Object Unit name= KSU$WRITE_NETCON                           File name= KSU$UTIL.:E05TOU
 UTS= JUL 30 '97 01:50:30.60 WED                              Compiler= PL-6/E31         Sev=      00
 SharedLib= :SHARED_SYSTEM                                    Alt SharedLib=


    ****  Control sections  ****

 Sect   Type Bound  Init  Size OctSiz  Section name(segment info)
    0   DCB   even  none     0      0  M$UC
    1   Data  even  none    12     14  KSU$WRITE_NETCON
    2   DCB   even  none     0      0  M$NETCON
    3   Proc  even  none    24     30  KSU$WRITE_NETCON

    ****  Entry defs  ****

                              Check   Calling
                             calling  sequence
  Sect OctLoc Primary Altret sequence   type   Parms  Name
     3      0   yes    yes     yes      Std        3  KSU$WRITE_NETCON

  ****  Entry refs  ****

         Check        Calling
        calling       sequence
Altret sequence SRef   type   Args  Name
                       nStd      0 X66_AUTO_3
                       Std       0 B_CONSPOOL_D
                       nStd      0 X66_AALT
                       nStd      0 X66_ARET

  ****  Data refs  ****

  Flags:  r = read only, s = secondary
Flgs Name                             Flgs Name                             Flgs Name
     M$UC                                  M$NETCON                              B_VECTNIL
PL6.E3A0      #016=KSU$WRITE_NETCON File=KSU$UTIL.:E05TSI                        WED 07/30/97 01:50 Page:246

  ****  Segment refs  ****

  Flags:  r = read only, s = secondary
Flgs Name                             Flgs Name                             Flgs Name
     ISSID                                 NULLSID
PL6.E3A0      #016=KSU$WRITE_NETCON File=KSU$UTIL.:E05TSI                        WED 07/30/97 01:50 Page:247


      897        1        /*M* KSU$WRITE_NETCON - routine to set up a key and buffer and write to the :NETCON
                 1        file*/
      898        2        /*T***********************************************************/
      899        3        /*T*                                                         */
      900        4        /*T* Copyright (c) Bull HN Information Systems Inc., 1997    */
      901        5        /*T*                                                         */
      902        6        /*T***********************************************************/
      903        7        KSU$WRITE_NETCON: PROC (KEY_,BUF_,BOUND) ALTRET;

      7  3 000000   000000 700200 xent  KSU$WRITE_N* TSX0  ! X66_AUTO_3
         3 000001   000006 000003                    ZERO    6,3

      904        8
      905        9              %INCLUDE CP_6;
      906       90              %INCLUDE CP_6_SUBS;
      907      630    1         DCL KEY_ VECTOR;
      908      631    1         DCL BUF_ VECTOR;
      909      632    1         DCL BOUND    UBIN;
      910      633
      911      634              %FPT_WRITE(FPTN=WRITE_NETCON,DCB=M$NETCON);
      912      665
      913      666    1         DCL M$NETCON DCB;
      914      667
      915      668    1         WRITE_NETCON.KEY_ = KEY_;

    668  3 000002   200003 470500                    LDP0    @KEY_,,AUTO
         3 000003   000000 237100                    LDAQ    0,,PR0
         3 000004   000002 757000 1                  STAQ    WRITE_NETCON+2

      916      669    1         WRITE_NETCON.BUF_ = BUF_;

    669  3 000005   200004 471500                    LDP1    @BUF_,,AUTO
         3 000006   100000 237100                    LDAQ    0,,PR1
         3 000007   000004 757000 1                  STAQ    WRITE_NETCON+4

      917      670    1         IF ADDR(BOUND) ~= ADDR(NIL) THEN
PL6.E3A0      #016=KSU$WRITE_NETCON File=KSU$UTIL.:E05TSI                        WED 07/30/97 01:50 Page:248

    670  3 000010   200005 236100                    LDQ     @BOUND,,AUTO
         3 000011   000001 116000 xsym               CMPQ    B_VECTNIL+1
         3 000012   000021 600000 3                  TZE     s:673

      918      671    1            WRITE_NETCON.BUF_.BOUND = BOUND;

    671  3 000013   200005 473500                    LDP3    @BOUND,,AUTO
         3 000014   300000 236100                    LDQ     0,,PR3
         3 000015   000020 736000                    QLS     16
         3 000016   000004 676000 1                  ERQ     WRITE_NETCON+4
         3 000017   000034 376000 xsym               ANQ     B_VECTNIL+28
         3 000020   000004 656000 1                  ERSQ    WRITE_NETCON+4

      919      672
      920      673    1         CALL M$WRITE (WRITE_NETCON) WHENALTRETURN

    673  3 000021   000000 630400 1                  EPPR0   WRITE_NETCON
         3 000022   440001 713400                    CLIMB   alt,write
         3 000023   401400 401760                    pmme    nvectors=4
         3 000024   000026 702000 3                  TSX2    s:675
         3 000025   000027 710000 3                  TRA     s:677

      921      674    2            DO;

      922      675    2               ALTRETURN;

    675  3 000026   000000 702200 xent               TSX2  ! X66_AALT

      923      676    2            END;
      924      677    1   END KSU$WRITE_NETCON;

    677  3 000027   000000 702200 xent               TSX2  ! X66_ARET
      925      678        %EOD;

PL6.E3A0      #016=KSU$WRITE_NETCON File=KSU$UTIL.:E05TSI                        WED 07/30/97 01:50 Page:249
--  Include file information  --

   CP_6_SUBS.:E05TOU  is referenced.
   CP_6.:E05TOU  cannot be made into a system file and is referenced.
   B$JIT_C.:E05TOU  was found in the system file and is never referenced.
   CP_6_C.:E05TOU  was found in the system file and is referenced.
      No diagnostics issued in procedure KSU$WRITE_NETCON.
PL6.E3A0      #016=KSU$WRITE_NETCON File=KSU$UTIL.:E05TSI                        WED 07/30/97 01:50 Page:250

 **** Variables and constants ****

  ****  Section 001  Data  KSU$WRITE_NETCON

  ****  Scalars and arrays  ****
OctLoc.c.b A Datatyp(siz) R M Lvl/name                 OctLoc.c.b A Datatyp(siz) R M Lvl/name

     0-0-0/d STRC(432)   r     1 WRITE_NETCON

  ****  Auto variables  ****

  ****  Scalars and arrays  ****
OctLoc.c.b A Datatyp(siz) R M Lvl/name                 OctLoc.c.b A Datatyp(siz) R M Lvl/name

     5-0-0/w PTR         r     1 @BOUND                     4-0-0/w PTR         r     1 @BUF_
     3-0-0/w PTR         r     1 @KEY_                     *0-0-0/w UBIN        r     1 BOUND
    *0-0-0/d VECT        r     1 BUF_                      *0-0-0/d VECT        r     1 KEY_

  ****  BASED and DCB variables  ****

  ****  Scalars and arrays  ****
OctLoc.c.b A Datatyp(siz) R M Lvl/name                 OctLoc.c.b A Datatyp(siz) R M Lvl/name

     0-0-0N  NULL        r     1 M$NETCON


   Procedure KSU$WRITE_NETCON requires 24 words for executable code.
   Procedure KSU$WRITE_NETCON requires 6 words of local(AUTO) storage.
PL6.E3A0      #016=KSU$WRITE_NETCON File=KSU$UTIL.:E05TSI                        WED 07/30/97 01:50 Page:251
          *** CROSS REFERENCE LISTING ***
**     DENOTES     IDENTIFIER DEFINITION
<<                 IDENTIFIER'S VALUE SET
>>                 IDENTIFIER'S VALUE USED
<>                 IDENTIFIER SET AND/OR USED
--                 IDENTIFIER REFERENCED
PL6.E3A0      #016=KSU$WRITE_NETCON File=KSU$UTIL.:E05TSI                        WED 07/30/97 01:50 Page:252
          MINI XREF LISTING

BOUND
       632**DCL         7--PROC      670--IF        671>>ASSIGN
BUF_
       631**DCL         7--PROC      669>>ASSIGN
KEY_
       630**DCL         7--PROC      668>>ASSIGN
M$WRITE
        19**DCL-ENT   673--CALL
WRITE_NETCON
       651**DCL       673<>CALL
WRITE_NETCON.BUF_
       651**DCL       669<<ASSIGN
WRITE_NETCON.BUF_.BOUND
       651**DCL       671<<ASSIGN
WRITE_NETCON.KEY_
       651**DCL       668<<ASSIGN
WRITE_NETCON.STATION_
       653**DCL       653--REDEF
WRITE_NETCON.V
       654**DCL       651--DCLINIT
WRITE_NETCON.V.DVBYTE.VFC#
       660**DCL       660--REDEF

PL6.E3A0      #017=KSU$BINHEX File=KSU$UTIL.:E05TSI                              WED 07/30/97 01:50 Page:253
      926        1        /*M* KSU$BINHEX - routine to convert a ubin number to a hex string*/
      927        2        /*T***********************************************************/
      928        3        /*T*                                                         */
      929        4        /*T* Copyright (c) Bull HN Information Systems Inc., 1997    */
      930        5        /*T*                                                         */
      931        6        /*T***********************************************************/
      932        7        KSU$BINHEX: PROC (HEX_STR,BIN_NR);
      933        8
      934        9    1   DCL HEX_STR   CHAR(4);
      935       10    1   DCL BIN_NR    UBIN;
      936       11    1   DCL HEX_DIGITS CHAR(16) CONSTANT INIT ('0123456789ABCDEF');
      937       12    1   DCL DIVISOR   SBIN;
      938       13    1   DCL INDX      SBIN;
      939       14    1   DCL TEMP      SBIN;
      940       15    1   DCL I         UBIN;
      941       16
      942       17    1        TEMP = BIN_NR;
      943       18    1        DIVISOR = 4096;
      944       19    2        DO I = 0 TO 3;
      945       20    2           INDX = TEMP / DIVISOR;
      946       21    2           SUBSTR(HEX_STR,I,1) = SUBSTR(HEX_DIGITS,INDX,1);
      947       22    2           TEMP = TEMP - INDX * DIVISOR;
      948       23    2           DIVISOR = DIVISOR / 16;
      949       24    2        END;
      950       25    1   END KSU$BINHEX;
      951       26        %EOD;

PL6.E3A0      #017=KSU$BINHEX File=KSU$UTIL.:E05TSI                              WED 07/30/97 01:50 Page:254
--  Include file information  --

   B$JIT_C.:E05TOU  was found in the system file and is never referenced.
   CP_6_C.:E05TOU  was found in the system file and is never referenced.
      No diagnostics issued in procedure KSU$BINHEX.

   Procedure KSU$BINHEX requires 30 words for executable code.
   Procedure KSU$BINHEX requires 12 words of local(AUTO) storage.

PL6.E3A0      #017=KSU$BINHEX File=KSU$UTIL.:E05TSI                              WED 07/30/97 01:50 Page:255

 Object Unit name= KSU$BINHEX                                 File name= KSU$UTIL.:E05TOU
 UTS= JUL 30 '97 01:50:38.48 WED                              Compiler= PL-6/E31         Sev=      00
 SharedLib= :SHARED_SYSTEM                                    Alt SharedLib=


    ****  Control sections  ****

 Sect   Type Bound  Init  Size OctSiz  Section name(segment info)
    0  RoData even  UTS      4      4  KSU$BINHEX
    1   Proc  even  none    30     36  KSU$BINHEX

    ****  Entry defs  ****

                              Check   Calling
                             calling  sequence
  Sect OctLoc Primary Altret sequence   type   Parms  Name
     1      0   yes            yes      Std        2  KSU$BINHEX

  ****  Entry refs  ****

         Check        Calling
        calling       sequence
Altret sequence SRef   type   Args  Name
                       nStd      0 X66_AUTO_2
                       nStd      0 X66_ARET
PL6.E3A0      #017=KSU$BINHEX File=KSU$UTIL.:E05TSI                              WED 07/30/97 01:50 Page:256


      926        1        /*M* KSU$BINHEX - routine to convert a ubin number to a hex string*/
      927        2        /*T***********************************************************/
      928        3        /*T*                                                         */
      929        4        /*T* Copyright (c) Bull HN Information Systems Inc., 1997    */
      930        5        /*T*                                                         */
      931        6        /*T***********************************************************/
      932        7        KSU$BINHEX: PROC (HEX_STR,BIN_NR);

      7  1 000000   000000 700200 xent  KSU$BINHEX   TSX0  ! X66_AUTO_2
         1 000001   000014 000002                    ZERO    12,2

      933        8
      934        9    1   DCL HEX_STR   CHAR(4);
      935       10    1   DCL BIN_NR    UBIN;
      936       11    1   DCL HEX_DIGITS CHAR(16) CONSTANT INIT ('0123456789ABCDEF');
      937       12    1   DCL DIVISOR   SBIN;
      938       13    1   DCL INDX      SBIN;
      939       14    1   DCL TEMP      SBIN;
      940       15    1   DCL I         UBIN;
      941       16
      942       17    1        TEMP = BIN_NR;

     17  1 000002   200004 470500                    LDP0    @BIN_NR,,AUTO
         1 000003   000000 235100                    LDA     0,,PR0
         1 000004   200007 755100                    STA     TEMP,,AUTO

      943       18    1        DIVISOR = 4096;

     18  1 000005   010000 236007                    LDQ     4096,DL
         1 000006   200005 756100                    STQ     DIVISOR,,AUTO

      944       19    2        DO I = 0 TO 3;

     19  1 000007   200010 450100                    STZ     I,,AUTO

      945       20    2           INDX = TEMP / DIVISOR;
PL6.E3A0      #017=KSU$BINHEX File=KSU$UTIL.:E05TSI                              WED 07/30/97 01:50 Page:257

     20  1 000010   200007 236100                    LDQ     TEMP,,AUTO
         1 000011   200005 506100                    DIV     DIVISOR,,AUTO
         1 000012   200006 756100                    STQ     INDX,,AUTO

      946       21    2           SUBSTR(HEX_STR,I,1) = SUBSTR(HEX_DIGITS,INDX,1);

     21  1 000013   200003 470500                    LDP0    @HEX_STR,,AUTO
         1 000014   200010 235100                    LDA     I,,AUTO
         1 000015   040105 100406                    MLR     fill='040'O
         1 000016   000000 000001 0                  ADSC9   HEX_DIGITS,Q             cn=0,n=1
         1 000017   000000 000001                    ADSC9   0,A,PR0                  cn=0,n=1

      947       22    2           TEMP = TEMP - INDX * DIVISOR;

     22  1 000020   200005 402100                    MPY     DIVISOR,,AUTO
         1 000021   200012 756100                    STQ     I+2,,AUTO
         1 000022   200007 236100                    LDQ     TEMP,,AUTO
         1 000023   200012 136100                    SBLQ    I+2,,AUTO
         1 000024   200007 756100                    STQ     TEMP,,AUTO

      948       23    2           DIVISOR = DIVISOR / 16;

     23  1 000025   200005 236100                    LDQ     DIVISOR,,AUTO
         1 000026   000020 506007                    DIV     16,DL
         1 000027   200005 756100                    STQ     DIVISOR,,AUTO

      949       24    2        END;

     24  1 000030   200010 235100                    LDA     I,,AUTO
         1 000031   000001 035007                    ADLA    1,DL
         1 000032   200010 755100                    STA     I,,AUTO
         1 000033   000004 115007                    CMPA    4,DL
         1 000034   000010 602000 1                  TNC     s:20

      950       25    1   END KSU$BINHEX;

PL6.E3A0      #017=KSU$BINHEX File=KSU$UTIL.:E05TSI                              WED 07/30/97 01:50 Page:258
     25  1 000035   000000 702200 xent               TSX2  ! X66_ARET
      951       26        %EOD;

PL6.E3A0      #017=KSU$BINHEX File=KSU$UTIL.:E05TSI                              WED 07/30/97 01:50 Page:259
--  Include file information  --

   B$JIT_C.:E05TOU  was found in the system file and is never referenced.
   CP_6_C.:E05TOU  was found in the system file and is never referenced.
      No diagnostics issued in procedure KSU$BINHEX.
PL6.E3A0      #017=KSU$BINHEX File=KSU$UTIL.:E05TSI                              WED 07/30/97 01:50 Page:260

 **** Variables and constants ****

  ****  Section 000 RoData KSU$BINHEX

  ****  Scalars and arrays  ****
OctLoc.c.b A Datatyp(siz) R M Lvl/name                 OctLoc.c.b A Datatyp(siz) R M Lvl/name

     0-0-0/c CHAR(16)    r     1 HEX_DIGITS

  ****  Auto variables  ****

  ****  Scalars and arrays  ****
OctLoc.c.b A Datatyp(siz) R M Lvl/name                 OctLoc.c.b A Datatyp(siz) R M Lvl/name

     4-0-0/w PTR         r     1 @BIN_NR                    3-0-0/w PTR         r     1 @HEX_STR
    *0-0-0/w UBIN        r     1 BIN_NR                     5-0-0/w SBIN        r     1 DIVISOR
    *0-0-0/c CHAR(4)     r     1 HEX_STR                   10-0-0/w UBIN        r     1 I
     6-0-0/w SBIN        r     1 INDX                       7-0-0/w SBIN        r     1 TEMP


   Procedure KSU$BINHEX requires 30 words for executable code.
   Procedure KSU$BINHEX requires 12 words of local(AUTO) storage.
PL6.E3A0      #017=KSU$BINHEX File=KSU$UTIL.:E05TSI                              WED 07/30/97 01:50 Page:261
          *** CROSS REFERENCE LISTING ***
**     DENOTES     IDENTIFIER DEFINITION
<<                 IDENTIFIER'S VALUE SET
>>                 IDENTIFIER'S VALUE USED
<>                 IDENTIFIER SET AND/OR USED
--                 IDENTIFIER REFERENCED
PL6.E3A0      #017=KSU$BINHEX File=KSU$UTIL.:E05TSI                              WED 07/30/97 01:50 Page:262
          MINI XREF LISTING

BIN_NR
        10**DCL         7--PROC       17>>ASSIGN
DIVISOR
        12**DCL        18<<ASSIGN     20>>ASSIGN     22>>ASSIGN     23<<ASSIGN     23>>ASSIGN
HEX_DIGITS
        11**DCL        21>>ASSIGN
HEX_STR
         9**DCL         7--PROC       21<<ASSIGN
I
        15**DCL        19<<DOINDEX    21>>ASSIGN
INDX
        13**DCL        20<<ASSIGN     21>>ASSIGN     22>>ASSIGN
TEMP
        14**DCL        17<<ASSIGN     20>>ASSIGN     22<<ASSIGN     22>>ASSIGN

PL6.E3A0      #018=KSU$STRIP_ZEROS File=KSU$UTIL.:E05TSI                         WED 07/30/97 01:50 Page:263
      952        1        /*T***********************************************************/
      953        2        /*T*                                                         */
      954        3        /*T* Copyright (c) Bull HN Information Systems Inc., 1997    */
      955        4        /*T*                                                         */
      956        5        /*T***********************************************************/
      957        6        KSU$STRIP_ZEROS:  PROC (NUMBER,BUFFER,COUNT);
      958        7
      959        8        %INCLUDE B$TABLES_C;
      960      116        %B$SR_NON_ZERO;
      961      120
      962      121    1        DCL NUMBER  UBIN;
      963      122    1        DCL BUFFER  CHAR(31) UNAL;
      964      123    1        DCL COUNT   UBIN BYTE;
      965      124
      966      125    1        DCL START   UBIN;
      967      126    1        DCL TABLEVAL UBIN;
      968      127    1        DCL I       UBIN;
      969      128    1        DCL TEXT    CHAR(31);
      970      129
      971      130    1        CALL BINCHAR (TEXT,NUMBER);
      972      131    1        CALL SEARCH (I,TABLEVAL,B$SR_NON_ZERO,TEXT)
      973      132    2           WHENALTRETURN DO;
      974      133    2              I = 30;
      975      134    2           END;
      976      135
      977      136    1        COUNT = 31 - I;
      978      137    1        SUBSTR(BUFFER,0,COUNT) = SUBSTR(TEXT,I,COUNT);
      979      138    1   END KSU$STRIP_ZEROS;
      980      139        %EOD;

PL6.E3A0      #018=KSU$STRIP_ZEROS File=KSU$UTIL.:E05TSI                         WED 07/30/97 01:50 Page:264
--  Include file information  --

   B$TABLES_C.:E05TOU  cannot be made into a system file and is referenced.
   B$JIT_C.:E05TOU  was found in the system file and is never referenced.
   CP_6_C.:E05TOU  was found in the system file and is never referenced.
      No diagnostics issued in procedure KSU$STRIP_ZEROS.

   Procedure KSU$STRIP_ZEROS requires 39 words for executable code.
   Procedure KSU$STRIP_ZEROS requires 20 words of local(AUTO) storage.

PL6.E3A0      #018=KSU$STRIP_ZEROS File=KSU$UTIL.:E05TSI                         WED 07/30/97 01:50 Page:265

 Object Unit name= KSU$STRIP_ZEROS                            File name= KSU$UTIL.:E05TOU
 UTS= JUL 30 '97 01:50:42.40 WED                              Compiler= PL-6/E31         Sev=      00
 SharedLib= :SHARED_SYSTEM                                    Alt SharedLib=


    ****  Control sections  ****

 Sect   Type Bound  Init  Size OctSiz  Section name(segment info)
    0   Proc  even  none    39     47  KSU$STRIP_ZEROS

    ****  Entry defs  ****

                              Check   Calling
                             calling  sequence
  Sect OctLoc Primary Altret sequence   type   Parms  Name
     0      0   yes            yes      Std        3  KSU$STRIP_ZEROS

  ****  Entry refs  ****

         Check        Calling
        calling       sequence
Altret sequence SRef   type   Args  Name
         yes          ~proc      0 B_POINTER
                       nStd      0 X66_AUTO_3
                       nStd      0 X66_ARET

  ****  Data refs  ****

  Flags:  r = read only, s = secondary
Flgs Name                             Flgs Name                             Flgs Name
r    B$SR_NON_ZERO$
PL6.E3A0      #018=KSU$STRIP_ZEROS File=KSU$UTIL.:E05TSI                         WED 07/30/97 01:50 Page:266


      952        1        /*T***********************************************************/
      953        2        /*T*                                                         */
      954        3        /*T* Copyright (c) Bull HN Information Systems Inc., 1997    */
      955        4        /*T*                                                         */
      956        5        /*T***********************************************************/
      957        6        KSU$STRIP_ZEROS:  PROC (NUMBER,BUFFER,COUNT);

      6  0 000000   000000 700200 xent  KSU$STRIP_Z* TSX0  ! X66_AUTO_3
         0 000001   000024 000003                    ZERO    20,3

      958        7
      959        8        %INCLUDE B$TABLES_C;
      960      116        %B$SR_NON_ZERO;
      961      120
      962      121    1        DCL NUMBER  UBIN;
      963      122    1        DCL BUFFER  CHAR(31) UNAL;
      964      123    1        DCL COUNT   UBIN BYTE;
      965      124
      966      125    1        DCL START   UBIN;
      967      126    1        DCL TABLEVAL UBIN;
      968      127    1        DCL I       UBIN;
      969      128    1        DCL TEXT    CHAR(31);
      970      129
      971      130    1        CALL BINCHAR (TEXT,NUMBER);

    130  0 000002   200003 470500                    LDP0    @NUMBER,,AUTO
         0 000003   000000 235100                    LDA     0,,PR0
         0 000004   000044 773000                    LRL     36
         0 000005   200022 757100                    STAQ    TEXT+9,,AUTO
         0 000006   000100 301500                    BTD
         0 000007   200022 000010                    NDSC9   TEXT+9,,AUTO             cn=0,s=lsgnf,sf=0,n=8
         0 000010   200011 030037                    NDSC9   TEXT,,AUTO               cn=0,s=nosgn,sf=0,n=31

      972      131    1        CALL SEARCH (I,TABLEVAL,B$SR_NON_ZERO,TEXT)

    131  0 000011   000000 471400 xsym               LDP1    B$SR_NON_ZERO$
PL6.E3A0      #018=KSU$STRIP_ZEROS File=KSU$UTIL.:E05TSI                         WED 07/30/97 01:50 Page:267
         0 000012   000000 164500                    TCT
         0 000013   200011 000037                    ADSC9   TEXT,,AUTO               cn=0,n=31
         0 000014   100000 000100                    ARG     0,,PR1
         0 000015   200010 000100                    ARG     I,,AUTO
         0 000016   200010 235100                    LDA     I,,AUTO
         0 000017   000033 771000                    ARL     27
         0 000020   200007 755100                    STA     TABLEVAL,,AUTO
         0 000021   200010 551140                    STBA    I,'40'O,AUTO
         0 000022   000024 606400 0                  TTN     s:133
         0 000023   000026 710000 0                  TRA     s:136

      973      132    2           WHENALTRETURN DO;

      974      133    2              I = 30;

    133  0 000024   000036 235007                    LDA     30,DL
         0 000025   200010 755100                    STA     I,,AUTO

      975      134    2           END;

      976      135
      977      136    1        COUNT = 31 - I;

    136  0 000026   200005 470500                    LDP0    @COUNT,,AUTO
         0 000027   000037 235007                    LDA     31,DL
         0 000030   200010 135100                    SBLA    I,,AUTO
         0 000031   000033 735000                    ALS     27
         0 000032   000000 755100                    STA     0,,PR0

      978      137    1        SUBSTR(BUFFER,0,COUNT) = SUBSTR(TEXT,I,COUNT);

    137  0 000033   000000 236100                    LDQ     0,,PR0
         0 000034   000033 772000                    QRL     27
         0 000035   000000 620006                    EAX0    0,QL
         0 000036   000000 236100                    LDQ     0,,PR0
         0 000037   000033 772000                    QRL     27
         0 000040   000000 621006                    EAX1    0,QL
PL6.E3A0      #018=KSU$STRIP_ZEROS File=KSU$UTIL.:E05TSI                         WED 07/30/97 01:50 Page:268
         0 000041   200010 236100                    LDQ     I,,AUTO
         0 000042   200004 471500                    LDP1    @BUFFER,,AUTO
         0 000043   040140 100546                    MLR     fill='040'O
         0 000044   200011 000011                    ADSC9   TEXT,Q,AUTO              cn=0,n=*X1
         0 000045   100000 000010                    ADSC9   0,,PR1                   cn=0,n=*X0

      979      138    1   END KSU$STRIP_ZEROS;

    138  0 000046   000000 702200 xent               TSX2  ! X66_ARET
      980      139        %EOD;

PL6.E3A0      #018=KSU$STRIP_ZEROS File=KSU$UTIL.:E05TSI                         WED 07/30/97 01:50 Page:269
--  Include file information  --

   B$TABLES_C.:E05TOU  cannot be made into a system file and is referenced.
   B$JIT_C.:E05TOU  was found in the system file and is never referenced.
   CP_6_C.:E05TOU  was found in the system file and is never referenced.
      No diagnostics issued in procedure KSU$STRIP_ZEROS.
PL6.E3A0      #018=KSU$STRIP_ZEROS File=KSU$UTIL.:E05TSI                         WED 07/30/97 01:50 Page:270

 **** Variables and constants ****

  ****  Auto variables  ****

  ****  Scalars and arrays  ****
OctLoc.c.b A Datatyp(siz) R M Lvl/name                 OctLoc.c.b A Datatyp(siz) R M Lvl/name

     4-0-0/w PTR         r     1 @BUFFER                    5-0-0/w PTR         r     1 @COUNT
     3-0-0/w PTR         r     1 @NUMBER                   *0-0-0/c CHAR(31)    r     1 BUFFER
    *0-0-0/w UBIN(9)     r     1 COUNT                     10-0-0/w UBIN        r     1 I
    *0-0-0/w UBIN        r     1 NUMBER                     7-0-0/w UBIN        r     1 TABLEVAL
    11-0-0/c CHAR(31)    r     1 TEXT

  ****  SYMREF variables  ****

  ****  Scalars and arrays  ****
OctLoc.c.b A Datatyp(siz) R M Lvl/name                 OctLoc.c.b A Datatyp(siz) R M Lvl/name

     0-0-0/w PTR         r     1 B$SR_NON_ZERO$

  ****  BASED and DCB variables  ****

  ****  Scalars and arrays  ****
OctLoc.c.b A Datatyp(siz) R M Lvl/name                 OctLoc.c.b A Datatyp(siz) R M Lvl/name

     0-0-0/d STRC(4608)  r     1 B$SR_NON_ZERO


   Procedure KSU$STRIP_ZEROS requires 39 words for executable code.
   Procedure KSU$STRIP_ZEROS requires 20 words of local(AUTO) storage.
PL6.E3A0      #018=KSU$STRIP_ZEROS File=KSU$UTIL.:E05TSI                         WED 07/30/97 01:50 Page:271
          *** CROSS REFERENCE LISTING ***
**     DENOTES     IDENTIFIER DEFINITION
<<                 IDENTIFIER'S VALUE SET
>>                 IDENTIFIER'S VALUE USED
<>                 IDENTIFIER SET AND/OR USED
--                 IDENTIFIER REFERENCED
PL6.E3A0      #018=KSU$STRIP_ZEROS File=KSU$UTIL.:E05TSI                         WED 07/30/97 01:50 Page:272
          MINI XREF LISTING

B$SR_NON_ZERO
       118**DCL       131>>CALLBLT
B$SR_NON_ZERO$
       117**DCL       118--IMP-PTR   131>>CALLBLT
BUFFER
       122**DCL         6--PROC      137<<ASSIGN
COUNT
       123**DCL         6--PROC      136<<ASSIGN    137>>ASSIGN    137>>ASSIGN
I
       127**DCL       131<<CALLBLT   133<<ASSIGN    136>>ASSIGN    137>>ASSIGN
NUMBER
       121**DCL         6--PROC      130>>CALLBLT
TABLEVAL
       126**DCL       131<<CALLBLT
TEXT
       128**DCL       130<<CALLBLT   131>>CALLBLT   137>>ASSIGN

PL6.E3A0      #019=KSU$GET_NODE File=KSU$UTIL.:E05TSI                            WED 07/30/97 01:50 Page:273
      981        1        /*T***********************************************************/
      982        2        /*T*                                                         */
      983        3        /*T* Copyright (c) Bull HN Information Systems Inc., 1997    */
      984        4        /*T*                                                         */
      985        5        /*T***********************************************************/
      986        6        KSU$GET_NODE: PROC(PTR$,FEPNODE,FEPNAME) ALTRET;
      987        7    1           DCL PTR$ PTR;
      988        8    1           DCL FEPNAME CHAR(8);
      989        9    1           DCL FEPNODE SBIN;
      990       10        %INCLUDE CP_6;
      991       91        %INCLUDE XU_MACRO_C;
      992     3197        %INCLUDE KL_CONFIG_M;
      993     3959        %INCLUDE KS_DATA_R;
      994     3974        %INCLUDE KS_PERR_C;
      995     4041        %INCLUDE KS_SUBS_C;
      996     4284        %FPT_READ (FPTN=READ_NETWORK,KEYS=YES,DCB=M$NETCON,KEY=KS_NETWORK_KEY,BUF=KS_NETWORK
              4284            );
      997     4323        %KL$NETWORK_KEY (NAME=KS_NETWORK_KEY,STCLASS=STATIC);
      998     4340        %KL$NETWORK(NAME=KS_NETWORK,NUM=255,STCLASS=SYMREF);
      999     4367        %PARSE$OUT (NAME=OUT$BLK,STCLASS="BASED(PTR$)");
     1000     4412        %PARSE$SYM (NAME=OUT$SYM,STCLASS="BASED(PTR$)");
     1001     4450    1           DCL KSE$ERRMSG ENTRY(4);
     1002     4451    1           DCL M$NETCON DCB;
     1003     4452    1           DCL I SBIN;
     1004     4453
     1005     4454    1           CALL M$READ(READ_NETWORK);
     1006     4455
     1007     4456    2           DO CASE(PTR$->OUT$BLK.CODE);
     1008     4457
     1009     4458    2            CASE (%KS_TEXTVAL);
     1010     4459    2              FEPNAME = PTR$->OUT$SYM.TEXT;
     1011     4460    2              FEPNODE = -1;
     1012     4461    3              DO I = 0 TO KS_NETWORK.NODE#;
     1013     4462    3                 IF FEPNAME = KS_NETWORK.NODE.NODE(I)
     1014     4463    3                 THEN
     1015     4464    3                    FEPNODE = I;
     1016     4465    3                 END;
PL6.E3A0      #019=KSU$GET_NODE File=KSU$UTIL.:E05TSI                            WED 07/30/97 01:50 Page:274
     1017     4466
     1018     4467    2            CASE (%KS_DECVAL);
     1019     4468    2              CALL CHARBIN(FEPNODE,PTR$->OUT$SYM.TEXT);
     1020     4469    2              IF FEPNODE <= KS_NETWORK.NODE#
     1021     4470    2              THEN
     1022     4471    2                 FEPNAME = KS_NETWORK.NODE.NODE(FEPNODE);
     1023     4472
     1024     4473    2            END;
     1025     4474    1           IF FEPNODE = -1 OR FEPNODE > KS_NETWORK.NODE# OR
     1026     4475    1              FEPNAME = ' ' THEN
     1027     4476    2              DO;
     1028     4477    2              FEPNAME = KS_NODENAME;
     1029     4478    2              FEPNODE = KS_NODE;
     1030     4479    2              CALL KSE$ERRMSG(%E$KS_BAD_SELECT);
     1031     4480    2              ALTRETURN;
     1032     4481    2              END;
     1033     4482
     1034     4483    1           RETURN;
     1035     4484
     1036     4485    1   END KSU$GET_NODE;

PL6.E3A0      #019=KSU$GET_NODE File=KSU$UTIL.:E05TSI                            WED 07/30/97 01:50 Page:275
--  Include file information  --

   KS_SUBS_C.:E05TOU  is referenced.
   KS_PERR_C.:E05TOU  is referenced.
   KS_DATA_R.:E05TOU  cannot be made into a system file and is referenced.
   KL_CONFIG_M.:E05TOU  is referenced.
   XU_MACRO_C.:E05TOU  is referenced.
   CP_6.:E05TOU  cannot be made into a system file and is referenced.
   B$JIT_C.:E05TOU  was found in the system file and is never referenced.
   CP_6_C.:E05TOU  was found in the system file and is referenced.
      No diagnostics issued in procedure KSU$GET_NODE.

   Procedure KSU$GET_NODE requires 84 words for executable code.
   Procedure KSU$GET_NODE requires 8 words of local(AUTO) storage.

    No errors detected in file KSU$UTIL.:E05TSI    .

PL6.E3A0      #019=KSU$GET_NODE File=KSU$UTIL.:E05TSI                            WED 07/30/97 01:50 Page:276

 Object Unit name= KSU$GET_NODE                               File name= KSU$UTIL.:E05TOU
 UTS= JUL 30 '97 01:50:46.32 WED                              Compiler= PL-6/E31         Sev=      00
 SharedLib= :SHARED_SYSTEM                                    Alt SharedLib=


    ****  Control sections  ****

 Sect   Type Bound  Init  Size OctSiz  Section name(segment info)
    0   DCB   even  none     0      0  M$UC
    1   Data  even  none    15     17  KSU$GET_NODE
    2   DCB   even  none     0      0  M$NETCON
    3   Proc  even  none    84    124  KSU$GET_NODE
    4  RoData even  none     2      2  KSU$GET_NODE

    ****  Entry defs  ****

                              Check   Calling
                             calling  sequence
  Sect OctLoc Primary Altret sequence   type   Parms  Name
     3      0   yes    yes     yes      Std        3  KSU$GET_NODE

  ****  Entry refs  ****

         Check        Calling
        calling       sequence
Altret sequence SRef   type   Args  Name
         yes           Std       4 KSE$ERRMSG
                       nStd      0 X66_AUTO_3
                       Std       0 B_CONSPOOL_D
                       nStd      0 X66_AALT
                       nStd      0 X66_ARET
PL6.E3A0      #019=KSU$GET_NODE File=KSU$UTIL.:E05TSI                            WED 07/30/97 01:50 Page:277

  ****  Data refs  ****

  Flags:  r = read only, s = secondary
Flgs Name                             Flgs Name                             Flgs Name
     M$UC                                  KS_MYSTATION                          KS_NODENAME
     KS_NODE                               KS_MSGBUF$                            KS_NETWORK
     M$NETCON                              B_VECTNIL

  ****  Segment refs  ****

  Flags:  r = read only, s = secondary
Flgs Name                             Flgs Name                             Flgs Name
     ISSID                                 NULLSID
PL6.E3A0      #019=KSU$GET_NODE File=KSU$UTIL.:E05TSI                            WED 07/30/97 01:50 Page:278


      981        1        /*T***********************************************************/
      982        2        /*T*                                                         */
      983        3        /*T* Copyright (c) Bull HN Information Systems Inc., 1997    */
      984        4        /*T*                                                         */
      985        5        /*T***********************************************************/
      986        6        KSU$GET_NODE: PROC(PTR$,FEPNODE,FEPNAME) ALTRET;

      6  3 000000   000000 700200 xent  KSU$GET_NODE TSX0  ! X66_AUTO_3
         3 000001   000010 000003                    ZERO    8,3

      987        7    1           DCL PTR$ PTR;
      988        8    1           DCL FEPNAME CHAR(8);
      989        9    1           DCL FEPNODE SBIN;
      990       10        %INCLUDE CP_6;
      991       91        %INCLUDE XU_MACRO_C;
      992     3197        %INCLUDE KL_CONFIG_M;
      993     3959        %INCLUDE KS_DATA_R;
      994     3974        %INCLUDE KS_PERR_C;
      995     4041        %INCLUDE KS_SUBS_C;
      996     4284       %FPT_READ (FPTN=READ_NETWORK,KEYS=YES,DCB=M$NETCON,KEY=KS_NETWORK_KEY,BUF=KS_NETWORK
              4284            );
      997     4323        %KL$NETWORK_KEY (NAME=KS_NETWORK_KEY,STCLASS=STATIC);
      998     4340        %KL$NETWORK(NAME=KS_NETWORK,NUM=255,STCLASS=SYMREF);
      999     4367        %PARSE$OUT (NAME=OUT$BLK,STCLASS="BASED(PTR$)");
     1000     4412        %PARSE$SYM (NAME=OUT$SYM,STCLASS="BASED(PTR$)");
     1001     4450    1           DCL KSE$ERRMSG ENTRY(4);
     1002     4451    1           DCL M$NETCON DCB;
     1003     4452    1           DCL I SBIN;
     1004     4453
     1005     4454    1           CALL M$READ(READ_NETWORK);

   4454  3 000002   000000 630400 1                  EPPR0   READ_NETWORK
         3 000003   040000 713400                    CLIMB   read
         3 000004   401400 401760                    pmme    nvectors=4

     1006     4455
PL6.E3A0      #019=KSU$GET_NODE File=KSU$UTIL.:E05TSI                            WED 07/30/97 01:50 Page:279
     1007     4456    2           DO CASE(PTR$->OUT$BLK.CODE);

   4456  3 000005   200003 470500                    LDP0    @PTR$,,AUTO
         3 000006   000000 471500                    LDP1    0,,PR0
         3 000007   100000 720100                    LXL0    0,,PR1
         3 000010   000002 100003                    CMPX0   2,DU
         3 000011   000013 602010 3                  TNC     s:4456+6,X0
         3 000012   000073 710000 3                  TRA     s:4474
         3 000013   000015 710000 3                  TRA     s:4459
         3 000014   000051 710000 3                  TRA     s:4468

     1008     4457
     1009     4458    2            CASE (%KS_TEXTVAL);

     1010     4459    2              FEPNAME = PTR$->OUT$SYM.TEXT;

   4459  3 000015   100004 236100                    LDQ     4,,PR1
         3 000016   000033 772000                    QRL     27
         3 000017   000000 621006                    EAX1    0,QL
         3 000020   200005 473500                    LDP3    @FEPNAME,,AUTO
         3 000021   040100 100540                    MLR     fill='040'O
         3 000022   100004 200011                    ADSC9   4,,PR1                   cn=1,n=*X1
         3 000023   300000 000010                    ADSC9   0,,PR3                   cn=0,n=8

     1011     4460    2              FEPNODE = -1;

   4460  3 000024   000001 335007                    LCA     1,DL
         3 000025   200004 471500                    LDP1    @FEPNODE,,AUTO
         3 000026   100000 755100                    STA     0,,PR1

     1012     4461    3              DO I = 0 TO KS_NETWORK.NODE#;

   4461  3 000027   200006 450100                    STZ     I,,AUTO
         3 000030   000044 710000 3                  TRA     s:4465+1

     1013     4462    3                 IF FEPNAME = KS_NETWORK.NODE.NODE(I)

PL6.E3A0      #019=KSU$GET_NODE File=KSU$UTIL.:E05TSI                            WED 07/30/97 01:50 Page:280
   4462  3 000031   200006 236100                    LDQ     I,,AUTO
         3 000032   000024 402007                    MPY     20,DL
         3 000033   200005 470500                    LDP0    @FEPNAME,,AUTO
         3 000034   040006 106500                    CMPC    fill='040'O
         3 000035   000000 000010                    ADSC9   0,,PR0                   cn=0,n=8
         3 000036   000002 000010 xsym               ADSC9   KS_NETWORK+2,Q           cn=0,n=8
         3 000037   000043 601000 3                  TNZ     s:4465

     1014     4463    3                 THEN
     1015     4464    3                    FEPNODE = I;

   4464  3 000040   200004 471500                    LDP1    @FEPNODE,,AUTO
         3 000041   200006 235100                    LDA     I,,AUTO
         3 000042   100000 755100                    STA     0,,PR1

     1016     4465    3                 END;

   4465  3 000043   200006 054100                    AOS     I,,AUTO
         3 000044   000000 236000 xsym               LDQ     KS_NETWORK
         3 000045   000031 604000 3                  TMI     s:4462
         3 000046   200006 116100                    CMPQ    I,,AUTO
         3 000047   000031 605000 3                  TPL     s:4462
         3 000050   000073 710000 3                  TRA     s:4474

     1017     4466
     1018     4467    2            CASE (%KS_DECVAL);

     1019     4468    2              CALL CHARBIN(FEPNODE,PTR$->OUT$SYM.TEXT);

   4468  3 000051   100004 236100                    LDQ     4,,PR1
         3 000052   000033 772000                    QRL     27
         3 000053   200004 473500                    LDP3    @FEPNODE,,AUTO
         3 000054   000000 621006                    EAX1    0,QL
         3 000055   000100 305540                    DTB
         3 000056   100004 230011                    NDSC9   4,,PR1                   cn=1,s=nosgn,sf=0,n=*X1
         3 000057   300000 000004                    NDSC9   0,,PR3                   cn=0,s=lsgnf,sf=0,n=4

PL6.E3A0      #019=KSU$GET_NODE File=KSU$UTIL.:E05TSI                            WED 07/30/97 01:50 Page:281
     1020     4469    2              IF FEPNODE <= KS_NETWORK.NODE#

   4469  3 000060   000000 236000 xsym               LDQ     KS_NETWORK
         3 000061   000064 604000 3                  TMI     s:4471
         3 000062   300000 116100                    CMPQ    0,,PR3
         3 000063   000073 604000 3                  TMI     s:4474

     1021     4470    2              THEN
     1022     4471    2                 FEPNAME = KS_NETWORK.NODE.NODE(FEPNODE);

   4471  3 000064   300000 236100                    LDQ     0,,PR3
         3 000065   000005 402007                    MPY     5,DL
         3 000066   000002 736000                    QLS     2
         3 000067   200005 471500                    LDP1    @FEPNAME,,AUTO
         3 000070   040100 100406                    MLR     fill='040'O
         3 000071   000002 000010 xsym               ADSC9   KS_NETWORK+2,Q           cn=0,n=8
         3 000072   100000 000010                    ADSC9   0,,PR1                   cn=0,n=8

     1023     4472
     1024     4473    2            END;

     1025     4474    1           IF FEPNODE = -1 OR FEPNODE > KS_NETWORK.NODE# OR

   4474  3 000073   200004 470500                    LDP0    @FEPNODE,,AUTO
         3 000074   000000 235100                    LDA     0,,PR0
         3 000075   000027 115000 xsym               CMPA    B_VECTNIL+23
         3 000076   000110 600000 3                  TZE     s:4477
         3 000077   000000 236000 xsym               LDQ     KS_NETWORK
         3 000100   000103 604000 3                  TMI     s:4474+8
         3 000101   000000 116100                    CMPQ    0,,PR0
         3 000102   000110 604000 3                  TMI     s:4477
         3 000103   200005 471500                    LDP1    @FEPNAME,,AUTO
         3 000104   040000 106500                    CMPC    fill='040'O
         3 000105   100000 000010                    ADSC9   0,,PR1                   cn=0,n=8
         3 000106   000035 000001 xsym               ADSC9   B_VECTNIL+29             cn=0,n=1
         3 000107   000123 601000 3                  TNZ     s:4483

PL6.E3A0      #019=KSU$GET_NODE File=KSU$UTIL.:E05TSI                            WED 07/30/97 01:50 Page:282
     1026     4475    1              FEPNAME = ' ' THEN
     1027     4476    2              DO;

     1028     4477    2              FEPNAME = KS_NODENAME;

   4477  3 000110   200005 471500                    LDP1    @FEPNAME,,AUTO
         3 000111   040100 100400                    MLR     fill='040'O
         3 000112   000000 000010 xsym               ADSC9   KS_NODENAME              cn=0,n=8
         3 000113   100000 000010                    ADSC9   0,,PR1                   cn=0,n=8

     1029     4478    2              FEPNODE = KS_NODE;

   4478  3 000114   000000 235000 xsym               LDA     KS_NODE
         3 000115   000000 755100                    STA     0,,PR0

     1030     4479    2              CALL KSE$ERRMSG(%E$KS_BAD_SELECT);

   4479  3 000116   000001 630400 4                  EPPR0   1
         3 000117   000017 631400 xsym               EPPR1   B_VECTNIL+15
         3 000120   000000 701000 xent               TSX1    KSE$ERRMSG
         3 000121   000000 011000                    NOP     0

     1031     4480    2              ALTRETURN;

   4480  3 000122   000000 702200 xent               TSX2  ! X66_AALT

     1032     4481    2              END;
     1033     4482
     1034     4483    1           RETURN;

   4483  3 000123   000000 702200 xent               TSX2  ! X66_ARET
     1035     4484
     1036     4485    1   END KSU$GET_NODE;

PL6.E3A0      #019=KSU$GET_NODE File=KSU$UTIL.:E05TSI                            WED 07/30/97 01:50 Page:283
--  Include file information  --

   KS_SUBS_C.:E05TOU  is referenced.
   KS_PERR_C.:E05TOU  is referenced.
   KS_DATA_R.:E05TOU  cannot be made into a system file and is referenced.
   KL_CONFIG_M.:E05TOU  is referenced.
   XU_MACRO_C.:E05TOU  is referenced.
   CP_6.:E05TOU  cannot be made into a system file and is referenced.
   B$JIT_C.:E05TOU  was found in the system file and is never referenced.
   CP_6_C.:E05TOU  was found in the system file and is referenced.
      No diagnostics issued in procedure KSU$GET_NODE.
PL6.E3A0      #019=KSU$GET_NODE File=KSU$UTIL.:E05TSI                            WED 07/30/97 01:50 Page:284

 **** Variables and constants ****

  ****  Section 001  Data  KSU$GET_NODE

  ****  Scalars and arrays  ****
OctLoc.c.b A Datatyp(siz) R M Lvl/name                 OctLoc.c.b A Datatyp(siz) R M Lvl/name

    16-0-0/w STRC(18)    r     1 KS_NETWORK_KEY             0-0-0/d STRC(504)   r     1 READ_NETWORK

  ****  Auto variables  ****

  ****  Scalars and arrays  ****
OctLoc.c.b A Datatyp(siz) R M Lvl/name                 OctLoc.c.b A Datatyp(siz) R M Lvl/name

     5-0-0/w PTR         r     1 @FEPNAME                   4-0-0/w PTR         r     1 @FEPNODE
     3-0-0/w PTR         r     1 @PTR$                     *0-0-0/c CHAR(8)     r     1 FEPNAME
    *0-0-0/w SBIN        r     1 FEPNODE                    6-0-0/w SBIN        r     1 I
    *0-0-0/w PTR         r     1 PTR$

  ****  SYMREF variables  ****

  ****  Scalars and arrays  ****
OctLoc.c.b A Datatyp(siz) R M Lvl/name                 OctLoc.c.b A Datatyp(siz) R M Lvl/name

     0-0-0/w PTR         r     1 KS_MSGBUF$                 0-0-0/w STRC(46116) r     1 KS_NETWORK
     0-0-0/w SBIN        r     1 KS_NODE                    0-0-0/c CHAR(8)     r     1 KS_NODENAME

  ****  BASED and DCB variables  ****

  ****  Scalars and arrays  ****
OctLoc.c.b A Datatyp(siz) R M Lvl/name                 OctLoc.c.b A Datatyp(siz) R M Lvl/name

     0-0-0N  NULL        r     1 M$NETCON                   0-0-0/w STRC(144)   r     1 OUT$BLK
     0-0-0/w ASTR(153)   r     1 OUT$SYM

PL6.E3A0      #019=KSU$GET_NODE File=KSU$UTIL.:E05TSI                            WED 07/30/97 01:50 Page:285

   Procedure KSU$GET_NODE requires 84 words for executable code.
   Procedure KSU$GET_NODE requires 8 words of local(AUTO) storage.

    No errors detected in file KSU$UTIL.:E05TSI    .
PL6.E3A0      #019=KSU$GET_NODE File=KSU$UTIL.:E05TSI                            WED 07/30/97 01:50 Page:286
          *** CROSS REFERENCE LISTING ***
**     DENOTES     IDENTIFIER DEFINITION
<<                 IDENTIFIER'S VALUE SET
>>                 IDENTIFIER'S VALUE USED
<>                 IDENTIFIER SET AND/OR USED
--                 IDENTIFIER REFERENCED
PL6.E3A0      #019=KSU$GET_NODE File=KSU$UTIL.:E05TSI                            WED 07/30/97 01:50 Page:287
          MINI XREF LISTING

FEPNAME
         8**DCL         6--PROC     4459<<ASSIGN   4462>>IF       4471<<ASSIGN   4474>>IF       4477<<ASSIGN
FEPNODE
         9**DCL         6--PROC     4460<<ASSIGN   4464<<ASSIGN   4468<<CALLBLT  4469>>IF       4471>>ASSIGN
      4474>>IF       4474>>IF       4478<<ASSIGN
I
      4452**DCL      4461<<DOINDEX  4462>>IF       4464>>ASSIGN
KSE$ERRMSG
      4450**DCL-ENT  4479--CALL
KS_MSGBUF$
      3971**DCL      3971--IMP-PTR
KS_MYSTATION
      3967**DCL      3967--REDEF
KS_NETWORK
      4353**DCL      4303--DCLINIT  4304--DCLINIT
KS_NETWORK.NODE.NODE
      4362**DCL      4462>>IF       4471>>ASSIGN
KS_NETWORK.NODE#
      4354**DCL      4461>>DOINDEX  4469>>IF       4474>>IF
KS_NETWORK_KEY
      4336**DCL      4301--DCLINIT  4302--DCLINIT
KS_NODE
      3968**DCL      4478>>ASSIGN
KS_NODENAME
      3967**DCL      4477>>ASSIGN
M$READ
        20**DCL-ENT  4454--CALL
OUT$BLK.CODE
      4381**DCL      4456>>DOCASE
OUT$SYM.COUNT
      4442**DCL      4445--IMP-SIZ  4459>>ASSIGN   4468>>CALLBLT
OUT$SYM.TEXT
PL6.E3A0      #019=KSU$GET_NODE File=KSU$UTIL.:E05TSI                            WED 07/30/97 01:50 Page:288
      4445**DCL      4459>>ASSIGN   4468>>CALLBLT
PTR$
         7**DCL         6--PROC     4373--IMP-PTR  4419--IMP-PTR  4456>>DOCASE   4459>>ASSIGN   4459>>ASSIGN
      4468>>CALLBLT  4468>>CALLBLT
READ_NETWORK
      4301**DCL      4454<>CALL
READ_NETWORK.STATION_
      4304**DCL      4305--REDEF
READ_NETWORK.V
      4305**DCL      4301--DCLINIT
READ_NETWORK.V.DVBYTE.REREAD#
      4316**DCL      4316--REDEF
READ_NETWORK.V.INDX#
      4314**DCL      4314--REDEF
