VERSION E05

PL6.E3A0      #001=KS_TABLES_D File=KS_TABLES_D.:E05TSI                          WED 07/30/97 01:51 Page:1
        1        1        /*M* KS_TABLES_D - Constant tables for NETCON.      */
        2        2        /*T***********************************************************/
        3        3        /*T*                                                         */
        4        4        /*T* Copyright (c) Bull HN Information Systems Inc., 1997    */
        5        5        /*T*                                                         */
        6        6        /*T***********************************************************/
        7        7        /*X* MEC,MOC,EXM=20,CLM=30,CRM=100    */
        8        8
        9        9
       10       10                            /*F*  NAME: KS_TABLES_D
       11       11
       12       12                            This module contains the tables that define the
       13       13                            parameters and the defaults for those parameters
       14       14                            that may be specified at boot-time (BOOTPARAMS),
       15       15                            that are controlable (LCP6PARAMS), and that apply
       16       16                            to the standard set of LCP-6 handlers (HANDPARAMS).
       17       17
       18       18                            Note that these tables are not included in KS_DATA_D
       19       19                            as they are not in acceptable format for DTOR.
       20       20                            */
       21       21
       22       22
       23       23        KS_TABLES_D: PROC NOAUTO;
       24       24
       25       25        %INCLUDE KS_SUBS_C;
       26      268        %INCLUDE KS_MACRO_M;
       27      465        %INCLUDE KL_CONTROL_C;
       28      845        %INCLUDE GI_BOOT_C;
       29      956        %INCLUDE CP_6;
       30     6515
       31     6516                            /*F*  NAME: KS_TBL
       32     6517
       33     6518                            This table contains the addresses of all the
       34     6519                            various parameter tables.
       35     6520                            */
       36     6521
       37     6522    1   DCL KS_TBL(0:9) PTR STATIC SYMDEF INIT(ADDR(NIL),
PL6.E3A0      #001=KS_TABLES_D File=KS_TABLES_D.:E05TSI                          WED 07/30/97 01:51 Page:2
       38     6523    1                     ADDR(KS_BOOT_TBL),
       39     6524    1                     ADDR(KS_LCP6_TBL),
       40     6525    1                     ADDR(KS_HNDLR_TBL),
       41     6526    1                     ADDR(KS_ASYNC_TBL),
       42     6527    1                     ADDR(KS_BISYNC_TBL),
       43     6528    1                     ADDR(KS_COUPLER_TBL),
       44     6529    1                     ADDR(KS_HDLCX25_TBL),
       45     6530    1                     ADDR(KS_NODEADMIN_TBL),
       46     6531    1                     ADDR(KS_UNITREC_TBL));
       47     6532
       48     6533
       49     6534
       50     6535
       51     6536
       52     6537                            /*F*  NAME: KS_HAND_INFO
       53     6538
       54     6539                            This table contains the names of the set of system defined
       55     6540                           handlers and the address of the parameter table for each handler.
       56     6541
       57     6542                            Entry zero contains a name set to all blanks and the address
       58     6543                            of the default parameter table.
       59     6544                            */
       60     6545
       61     6546    1   DCL 1 KS_HAND_INFO STATIC SYMDEF ALIGNED,
       62     6547        %KS$HAND_INFO (TEXTNAME=' ', TYPE=%KS_HAND_USER,
       63     6548                       PARAMS=KS_HNDLR_TBL,SIZ=%KL_HNDLRPARM_HI);
       64     6587        %KS$HAND_INFO (TEXTNAME='ASYNC', TYPE=%KS_HAND_ASYNC,
       65     6588                       PARAMS=KS_ASYNC_TBL,SIZ=%KL_ASYNC_HI);
       66     6627        %KS$HAND_INFO (TEXTNAME='BISYNC', TYPE=%KS_HAND_BISYNC,
       67     6628                       PARAMS=KS_BISYNC_TBL,SIZ=%KL_BISYNC_HI);
       68     6667        %KS$HAND_INFO (TEXTNAME='COUPLER', TYPE=%KS_HAND_COUPLER,
       69     6668                       PARAMS=KS_COUPLER_TBL,SIZ=%KL_FEI_HI);
       70     6707        %KS$HAND_INFO (TEXTNAME='HDLCX25', TYPE=%KS_HAND_HDLCX25,
       71     6708                       PARAMS=KS_HDLCX25_TBL,SIZ=%KL_HDLCX25_HI);
       72     6747        %KS$HAND_INFO (TEXTNAME='NODEADMN', TYPE=%KS_HAND_NODEADMIN,
       73     6748                       PARAMS=KS_NODEADMIN_TBL,SIZ=%KL_NA_HI);
       74     6787        %KS$HAND_INFO (TEXTNAME='UNITREC', TYPE=%KS_HAND_UNITREC,
PL6.E3A0      #001=KS_TABLES_D File=KS_TABLES_D.:E05TSI                          WED 07/30/97 01:51 Page:3
       75     6788                       PARAMS=KS_UNITREC_TBL,SIZ=%KL_HNDLRPARM_STD_HI);
       76     6827        %KS$HAND_INFO(TEXTNAME=' ',TYPE=%KS_HAND_USER,
       77     6828                      PARAMS=KS_HNDLR_TBL,SIZ=%KL_HNDLRPARM_HI,LAST=YES);
       78     6867
       79     6868
       80     6869
       81     6870
       82     6871                            /*F*  NAME: KS_BOOT_TBL
       83     6872
       84     6873                            This table contains the information required
       85     6874                            for BOOTPARAMS.
       86     6875                            */
       87     6876
       88     6877    1   DCL 1 KS_BOOT_TBL STATIC SYMDEF ALIGNED,
       89     6878        %KS$PARAM (NAME=LDCT,TEXTNAME=LDCT,
       90     6879                DEFAULT=%GI_LDCT#);
       91     6949        %KS$PARAM (NAME=IOP,TEXTNAME=IOP,
       92     6950                DEFAULT=%GI_IOP#);
       93     7020        %KS$PARAM (NAME=HMI,TEXTNAME=HMI,
       94     7021                DEFAULT=%GI_HMI#);
       95     7091        %KS$PARAM (NAME=APESSN,TEXTNAME=APESSN,
       96     7092               DEFAULT=%GI_APESSN#);
       97     7162        %KS$PARAM (NAME=TCTX,TEXTNAME=TCTX,MIN=1,
       98     7163               DEFAULT=%GI_TCTX#);
       99     7233        %KS$PARAM (NAME=CBUFFER,TEXTNAME=CBUFFER,MIN=1,MAX=256,
      100     7234               DEFAULT=%GI_CBUFFER#);
      101     7304        %KS$PARAM (NAME=SFILE,TEXTNAME=SFILE,MIN=2,MAX=255,
      102     7305               DEFAULT=%GI_SPROC#);
      103     7375        %KS$PARAM (NAME=MUIS,TEXTNAME=MUIS,
      104     7376               DEFAULT=%GI_MUIS#);
      105     7446        %KS$PARAM (NAME=NSHUF,TEXTNAME=NSHUF,
      106     7447               DEFAULT=%GI_NSHUF#);
      107     7517        %KS$PARAM (NAME=SPARE2,TEXTNAME=SPARE);
      108     7587        %KS$PARAM (NAME=MAXLINKS,TEXTNAME=MAXLINKS,MIN=1,
      109     7588               DEFAULT=%GI_LINKS#);
      110     7658        %KS$PARAM (NAME=DEVICES,TEXTNAME=DEVICES,
      111     7659               DEFAULT=%GI_DEVICES#);
PL6.E3A0      #001=KS_TABLES_D File=KS_TABLES_D.:E05TSI                          WED 07/30/97 01:51 Page:4
      112     7729        %KS$PARAM (NAME=ACCTS,TEXTNAME=ACCTS,MIN=1,
      113     7730               DEFAULT=%GI_ACCTS#);
      114     7800        %KS$PARAM (NAME=PCHANS,TEXTNAME=PCHANS,DEFAULT=%GI_PCHANS#);
      115     7870        %KS$PARAM (NAME=OSIROUTES,TEXTNAME=OSIROUTES,DEFAULT=%GI_OSIROUTES#);
      116     7940        %KS$PARAM (NAME=DPS8000FLG,TEXTNAME=DPS8000FLG);
      117     8010    1           2 SZ UBIN WORD INIT(%GI_BOOT_HI);
      118     8011
      119     8012
      120     8013
      121     8014
      122     8015                            /*F*  NAME: KS_LCP6_TBL
      123     8016
      124     8017                            This table contains the information required
      125     8018                            for the LCP6PARAMS.
      126     8019                            */
      127     8020    1   DCL 1 KS_LCP6_TBL STATIC SYMDEF ALIGNED,
      128     8021        %KS$PARAM (NAME=QMIN,TEXTNAME=QMIN,MIN=1,
      129     8022                       DEFAULT=%GI_QMIN#);
      130     8092        %KS$PARAM (NAME=QUAN,TEXTNAME=QUAN,MIN=5,
      131     8093                       DEFAULT=%GI_QUAN#);
      132     8163        %KS$PARAM (NAME=XCONTIME,TEXTNAME=XCONTIME,MIN=5,
      133     8164                       DEFAULT=%GI_XCONTIME#);
      134     8234        %KS$PARAM (NAME=MUSR,TEXTNAME=MUSR,
      135     8235                       DEFAULT=%GI_MUSR#);
      136     8305        %KS$PARAM (NAME=MUSR_USER,TEXTNAME=MUSR_USER,MIN=3,
      137     8306                       DEFAULT=%GI_MUSR_USER#);
      138     8376        %KS$PARAM (NAME=MUSR_CG,TEXTNAME=MUSR_CG,
      139     8377                       DEFAULT=%GI_MUSR_CG#);
      140     8447        %KS$PARAM (NAME=MUSR_HAND,TEXTNAME=MUSR_HAND,
      141     8448                       DEFAULT=%GI_MUSR_HAND#);
      142     8518        %KS$PARAM (NAME=MUSR_GHST,TEXTNAME=MUSR_GHST,
      143     8519                       DEFAULT=%GI_MUSR_GHST#);
      144     8589        %KS$PARAM (NAME=MMEM,TEXTNAME=MMEM,
      145     8590                       DEFAULT=%GI_MMEM#);
      146     8660        %KS$PARAM (NAME=MMEM_USER,TEXTNAME=MMEM_USER,
      147     8661                       DEFAULT=%GI_MMEM_USER#);
      148     8731        %KS$PARAM (NAME=MMEM_CG,TEXTNAME=MMEM_CG,
PL6.E3A0      #001=KS_TABLES_D File=KS_TABLES_D.:E05TSI                          WED 07/30/97 01:51 Page:5
      149     8732                       DEFAULT=%GI_MMEM_CG#);
      150     8802        %KS$PARAM (NAME=MMEM_HAND,TEXTNAME=MMEM_HAND,
      151     8803                       DEFAULT=%GI_MMEM_HAND#);
      152     8873        %KS$PARAM (NAME=MMEM_GHST,TEXTNAME=MMEM_GHST,
      153     8874                       DEFAULT=%GI_MMEM_GHST#);
      154     8944        %KS$PARAM (NAME=DUMP,TEXTNAME=DUMP,DEFAULT=%GI_DUMP#,MAX=1);
      155     9014        %KS$PARAM (NAME=KEEPDELTA,TEXTNAME=KEEPDELTA,DEFAULT=%GI_KEEPDELTA#,
      156     9015                       MAX=1);
      157     9085        %KS$PARAM (NAME=SFILE_DATA,TEXTNAME=SFILE_DATA,DEFAULT=%GI_SFILEDATA#);
      158     9155        %KS$PARAM (NAME=SPARE1,TEXTNAME=SPARE,DEFAULT=0);
      159     9225        %KS$PARAM (NAME=SPARE2,TEXTNAME=SPARE,DEFAULT=0);
      160     9295        %KS$PARAM (NAME=SPARE3,TEXTNAME=SPARE,DEFAULT=0);
      161     9365        %KS$PARAM (NAME=SPARE4,TEXTNAME=SPARE,DEFAULT=0);
      162     9435        %KS$PARAM (NAME=CUSR,TEXTNAME=CUSR,DISPONLY=YES);
      163     9505        %KS$PARAM (NAME=CUSR_USER,TEXTNAME=CUSR_USER,DISPONLY=YES);
      164     9575        %KS$PARAM (NAME=CUSR_CG,TEXTNAME=CUSR_CG,DISPONLY=YES);
      165     9645        %KS$PARAM (NAME=CUSR_HAND,TEXTNAME=CUSR_HAND,DISPONLY=YES);
      166     9715        %KS$PARAM (NAME=CUSR_GHST,TEXTNAME=CUSR_GHST,DISPONLY=YES);
      167     9785        %KS$PARAM (NAME=CMEM,TEXTNAME=CMEM,DISPONLY=YES);
      168     9855        %KS$PARAM (NAME=CMEM_USER,TEXTNAME=CMEM_USER,DISPONLY=YES);
      169     9925        %KS$PARAM (NAME=CMEM_CG,TEXTNAME=CMEM_CG,DISPONLY=YES);
      170     9995        %KS$PARAM (NAME=CMEM_HAND,TEXTNAME=CMEM_HAND,DISPONLY=YES);
      171    10065        %KS$PARAM (NAME=CMEM_GHST,TEXTNAME=CMEM_GHST,DISPONLY=YES);
      172    10135    1           2 SZ UBIN WORD INIT(%GI_CNTL_BOOTHI);
      173    10136
      174    10137
      175    10138
      176    10139
      177    10140
      178    10141                            /*F*  NAME: KS_HNDLR_TBL
      179    10142
      180    10143                            This table contains the names, minimum and maximum acceptable
      181    10144                            values, and special processing flags for the standard set of
      182    10145                            handler parameters.  The default values for each of
      183    10146                            the parameters will be in the KS_HND_DFLT table or
      184    10147                            one of the KS_handler_name_DFLT tables.
      185    10148
PL6.E3A0      #001=KS_TABLES_D File=KS_TABLES_D.:E05TSI                          WED 07/30/97 01:51 Page:6
      186    10149                            Also included in this table are entries for the parameters
      187    10150                            unique to NODEADMIN, COUPLER, and ASYNC.
      188    10151                            */
      189    10152
      190    10153    1   DCL 1 KS_HNDLR_TBL STATIC SYMDEF ALIGNED,
      191    10154        %KS$PARAM (NAME=INTLVL,TEXTNAME=INTLVL,MIN=12,MAX=60,
      192    10155               DEFAULT=%KL_DFLT_INTLVL);
      193    10225        %KS$PARAM (NAME=MEM,TEXTNAME=MEM,MAX=2304,
      194    10226             DEFAULT=%KL_DFLT_MEM);
      195    10296        %KS$PARAM (NAME=IOMEM,TEXTNAME=IOMEM,ASYNC=NO,BISYNC=NO,COUPLER=NO,NODEADMIN=NO,
             10296            UNITREC=NO,MAX=2048,
      196    10297               DEFAULT=%KL_DFLT_IOMEM);
      197    10367        %KS$PARAM (NAME=RES,TEXTNAME=RES,
      198    10368             DEFAULT=%KL_DFLT_RES);
      199    10438        %KS$PARAM (NAME=ATTR,TEXTNAME=ATTR,
      200    10439             DEFAULT=%KL_DFLT_ATTR);
      201    10509        %KS$PARAM (NAME=TYPAHDBFRLMT,TEXTNAME=TYPAHDBFRLMT,MIN=1,MAX=254,
      202    10510                DEFAULT=%KL_DFLT_TYPAHDBFRLMT);
      203    10580        %KS$PARAM (NAME=LINERRLOGLMT,TEXTNAME=LINERRLOGLMT,MAX=255,
      204    10581                DEFAULT=%KL_DFLT_LINERRLOGLMT);
      205    10651        %KS$PARAM (NAME=LINERRDSCLMT,TEXTNAME=LINERRDSCLMT,MAX=255,
      206    10652                DEFAULT=%KL_DFLT_LINERRDSCLMT);
      207    10722        %KS$PARAM (NAME=TRC,TEXTNAME=TRC,DEFAULT=%KL_DFLT_TRC,NODEADMIN=NO,COUPLER=NO,
             10722            UNITREC=NO,ASYNC=NO,HDLCX25=NO,BISYNC=NO);
      208    10792        %KS$PARAM (NAME=VDHTRC,TEXTNAME=VDHTRC,
      209    10793                DEFAULT=%KL_DFLT_VDHTRC);
      210    10863        %KS$PARAM (NAME=ERRSND,TEXTNAME=ERRSND,MAX=7,
      211    10864                DEFAULT=%KL_DFLT_ERRSND);
      212    10934        %KS$PARAM (NAME=TRCBFR,TEXTNAME=TRCBFR,NODEADMIN=NO,COUPLER=NO,BISYNC=NO,ASYNC=NO,
             10934            HDLCX25=NO,UNITREC=NO,
      213    10935                DEFAULT=%KL_DFLT_TRCBFR);
      214    11005        %KS$PARAM (NAME=RCVCQBYTSIZ,TEXTNAME=RCVCQBYTSIZ,MAX=63500,MIN=2100,
      215    11006                DEFAULT=%KL_DFLT_RCVCQBYTSIZ);
      216    11076        %KS$PARAM (NAME=SNDCQBYTSIZ,TEXTNAME=SNDCQBYTSIZ,MAX=63500,MIN=2100,
      217    11077                DEFAULT=%KL_DFLT_SNDCQBYTSIZ);
      218    11147        %KS$PARAM (NAME=MMRINTCHC,TEXTNAME=MMRINTCHC,
      219    11148                DEFAULT=%KL_DFLT_MMRINTCHC);
PL6.E3A0      #001=KS_TABLES_D File=KS_TABLES_D.:E05TSI                          WED 07/30/97 01:51 Page:7
      220    11218        %KS$PARAM (NAME=IOBUF,TEXTNAME=IOBUF,DEFAULT = %KL_HDLCX25_IOBUF, NODEADMIN=NO,
             11218            COUPLER=NO,BISYNC=NO,UNITREC=NO,ASYNC=NO,MIN=1,MAX=14);
      221    11288        %KS$PARAM (NAME=LINERRLOGBFRLMT,TEXTNAME=LINERRLOGBFRLMT,DEFAULT =
             11288            %KL_HDLCX25_LINERRLOGBFRLMT,MIN=0,MAX=65535,
      222    11289                   NODEADMIN=NO,COUPLER=NO,BISYNC=NO,UNITREC=NO,ASYNC=NO);
      223    11359        %KS$PARAM (NAME=X29MLTMR,TEXTNAME=X29MLTMR,DEFAULT = %KL_HDLCX25_X29MLTMR,MIN=0,MAX=
             11359            255,
      224    11360                   NODEADMIN=NO,COUPLER=NO,BISYNC=NO,UNITREC=NO,ASYNC=NO);
      225    11430        %KS$PARAM (NAME=MAXICQTIME,TEXTNAME=MAXICQTIME,MIN=1,MAX=120,
      226    11431                   DEFAULT=%KL_DFLT_MAXICQTIME,NODEADMIN=NO,ASYNC=NO,BISYNC=NO,UNITREC=NO,
             11431                       HDLCX25=NO);
      227    11501        %KS$PARAM (NAME=OCQDBLKSIZ,TEXTNAME=OCQDBLKSIZ,
      228    11502                 DEFAULT=%KL_DFLT_OCQDBLKSIZ,NODEADMIN=NO,ASYNC=NO,BISYNC=NO,UNITREC=NO,
             11502                     HDLCX25=NO);
      229    11572        %KS$PARAM (NAME=LGNRTRYNUM,TEXTNAME=LGNRTRYNUM,MIN=0,MAX=255,
      230    11573                 DEFAULT=%KL_DFLT_LGNRTRYNUM,USER=NO,COUPLER=NO,ASYNC=NO,BISYNC=NO,UNITREC=
             11573                     NO,HDLCX25=NO);
      231    11643        %KS$PARAM (NAME=HOPCOST,TEXTNAME=HOPCOST,MIN=0,MAX=255,
      232    11644                 DEFAULT=%KL_DFLT_HOPCOST,USER=NO,COUPLER=NO,ASYNC=NO,BISYNC=NO,UNITREC=NO,
             11644                     HDLCX25=NO);
      233    11714        %KS$PARAM (NAME=OTPBFRBYTSIZSML,TEXTNAME=OTPBFRBYTSIZSML,MIN=32,MAX=1024,
      234    11715                 DEFAULT=%KL_DFLT_OTPBFRBYTSIZSML,NODEADMIN=NO,COUPLER=NO,BISYNC=NO,UNITREC=
             11715                     NO,HDLCX25=NO);
      235    11785        %KS$PARAM (NAME=OTPBFRBYTSIZBIG,TEXTNAME=OTPBFRBYTSIZBIG,MIN=32,MAX=1024,
      236    11786                DEFAULT=%KL_DFLT_OTPBFRBYTSIZBIG,NODEADMIN=NO,COUPLER=NO,BISYNC=NO,UNITREC=
             11786                    NO,HDLCX25=NO);
      237    11856        %KS$PARAM (NAME=SSNMAX,TEXTNAME=SSNMAX,MIN=1,MAX=256,
      238    11857                DEFAULT=%KL_ASYNC_DFLT_SSNMAX,NODEADMIN=NO,COUPLER=NO,BISYNC=YES,UNITREC=NO,
             11857                    HDLCX25=YES);
      239    11927        %KS$PARAM (NAME=IMPTBLMAX,TEXTNAME=IMPTBLMAX,MAX=32767,DEFAULT=%KL_DFLT_IMPTBLMAX,
             11927            NODEADMIN=NO,COUPLER=NO,UNITREC=NO);
      240    11997        %KS$PARAM (NAME=SPARE1,TEXTNAME=SPARE,NODEADMIN=NO,COUPLER=NO,BISYNC=NO,UNITREC=NO,
             11997            HDLCX25=NO,ASYNC=NO);
      241    12067        %KS$PARAM (NAME=SPARE2,TEXTNAME=SPARE,NODEADMIN=NO,COUPLER=NO,BISYNC=NO,UNITREC=NO,
             12067            HDLCX25=NO,ASYNC=NO);
      242    12137        %KS$PARAM (NAME=SPARE3,TEXTNAME=SPARE,NODEADMIN=NO,COUPLER=NO,BISYNC=NO,UNITREC=NO,
             12137            HDLCX25=NO,ASYNC=NO);
PL6.E3A0      #001=KS_TABLES_D File=KS_TABLES_D.:E05TSI                          WED 07/30/97 01:51 Page:8
      243    12207        %KS$PARAM (NAME=BLOCK,TEXTNAME=BLOCK,SPECIAL=YES,SPCL_TBL=KS_BLOCK_TBL,ARRAY_SZ =
             12207            %KL_BLOCK_HI,
      244    12208               DEFAULT=%KL_DFLT_BLOCK,INDX = YES,NODEADMIN=NO,COUPLER=NO,BISYNC=NO,UNITREC=
             12208                   NO);
      245    12278        %KS$PARAM (NAME=UNBLOCK,TEXTNAME=UNBLOCK,SPECIAL=YES,SPCL_TBL=KS_BLOCK_TBL,ARRAY_SZ
             12278            = %KL_UNBLOCK_HI,
      246    12279                 DEFAULT=%KL_DFLT_UNBLOCK,INDX = YES,NODEADMIN=NO,COUPLER=NO,BISYNC=NO,
             12279                     UNITREC=NO);
      247    12349        %KS$PARAM (NAME=USRPARM1,TEXTNAME=USRPARM1,SPECIAL=YES,INDX=YES,SPCL_TBL=
             12349            KS_USRPARM1_TBL,ARRAY_SZ=%KL_USRPARM1_HI,
      248    12350              DEFAULT=%KL_DFLT_USRPARM1,NODEADMIN=NO,COUPLER=NO,BISYNC=NO,UNITREC=NO,ASYNC=
             12350                  NO,HDLCX25=NO);
      249    12420        %KS$PARAM (NAME=USRPARM2,TEXTNAME=USRPARM2,SPECIAL=YES,INDX=YES,SPCL_TBL=
             12420            KS_USRPARM2_TBL,ARRAY_SZ=%KL_USRPARM2_HI,
      250    12421              DEFAULT=%KL_DFLT_USRPARM2,NODEADMIN=NO,COUPLER=NO,BISYNC=NO,UNITREC=NO,ASYNC=
             12421                  NO,HDLCX25=NO);
      251    12491        /*%KS$PARAM (NAME=USRPARM3,TEXTNAME=USRPARM3,
      252    12492              DEFAULT=%KL_DFLT_USRPARM3);
      253    12493        %KS$PARAM (NAME=USRPARM4,TEXTNAME=USRPARM4,
      254    12494              DEFAULT=%KL_DFLT_USRPARM4);
      255    12495        %KS$PARAM (NAME=USRPARM5,TEXTNAME=USRPARM5,
      256    12496              DEFAULT=%KL_DFLT_USRPARM5);
      257    12497        %KS$PARAM (NAME=USRPARM6,TEXTNAME=USRPARM6,
      258    12498              DEFAULT=%KL_DFLT_USRPARM6);
      259    12499        %KS$PARAM (NAME=USRPARM7,TEXTNAME=USRPARM7,
      260    12500              DEFAULT=%KL_DFLT_USRPARM7);
      261    12501        %KS$PARAM (NAME=USRPARM8,TEXTNAME=USRPARM8,
      262    12502              DEFAULT=%KL_DFLT_USRPARM8);
      263    12503        %KS$PARAM (NAME=USRPARM9,TEXTNAME=USRPARM9,
      264    12504              DEFAULT=%KL_DFLT_USRPARM9);
      265    12505        %KS$PARAM (NAME=USRPARM10,TEXTNAME=USRPARM10,
      266    12506              DEFAULT=%KL_DFLT_USRPARM10);*/
      267    12507    1           2 SZ UBIN WORD INIT(%KL_HNDLRPARM_HI);
      268    12508
      269    12509
      270    12510                            /*F*  NAME: KS_ASYNC_TBL
      271    12511
PL6.E3A0      #001=KS_TABLES_D File=KS_TABLES_D.:E05TSI                          WED 07/30/97 01:51 Page:9
      272    12512                            This table contains the defaults for the handler
      273    12513                            parameters for ASYNC.
      274    12514                            */
      275    12515    1   DCL 1 KS_ASYNC_TBL STATIC SYMDEF ALIGNED,
      276    12516        %KS$PARAM (NAME=INTLVL,TEXTNAME=INTLVL,MIN=12,MAX=60,
      277    12517                    DEFAULT=%KL_ASYNC_INTLVL);
      278    12587        %KS$PARAM (NAME=MEM,TEXTNAME=MEM,MAX=2304,
      279    12588                    DEFAULT=%KL_ASYNC_MEM);
      280    12658        %KS$PARAM (NAME=IOMEM,TEXTNAME=IOMEM,ASYNC=NO,BISYNC=NO,COUPLER=NO,NODEADMIN=NO,
             12658            UNITREC=NO,
      281    12659                    DEFAULT=%KL_DFLT_IOMEM);
      282    12729        %KS$PARAM (NAME=RES,TEXTNAME=RES,
      283    12730                    DEFAULT=%KL_ASYNC_RES);
      284    12800        %KS$PARAM (NAME=ATTR,TEXTNAME=ATTR,
      285    12801                    DEFAULT=%KL_ASYNC_ATTR);
      286    12871        %KS$PARAM (NAME=TYPAHDBFRLMT,TEXTNAME=TYPAHDBFRLMT,MIN=1,MAX=254,
      287    12872                    DEFAULT=%KL_DFLT_TYPAHDBFRLMT);
      288    12942        %KS$PARAM (NAME=LINERRLOGLMT,TEXTNAME=LINERRLOGLMT,MAX=255,
      289    12943                    DEFAULT=%KL_DFLT_LINERRLOGLMT);
      290    13013        %KS$PARAM (NAME=LINERRDSCLMT,TEXTNAME=LINERRDSCLMT,MAX=255,
      291    13014                    DEFAULT=%KL_DFLT_LINERRDSCLMT);
      292    13084        %KS$PARAM (NAME=TRC,TEXTNAME=TRC,DEFAULT=%KL_DFLT_TRC,NODEADMIN=NO,COUPLER=NO,
             13084            UNITREC=NO,ASYNC=NO,HDLCX25=NO,BISYNC=NO);
      293    13154        %KS$PARAM (NAME=VDHTRC,TEXTNAME=VDHTRC,
      294    13155                    DEFAULT=%KL_ASYNC_VDHTRC);
      295    13225        %KS$PARAM (NAME=ERRSND,TEXTNAME=ERRSND,MAX=7,
      296    13226                    DEFAULT=%KL_DFLT_ERRSND);
      297    13296        %KS$PARAM (NAME=TRCBFR,TEXTNAME=TRCBFR,NODEADMIN=NO,COUPLER=NO,BISYNC=NO,ASYNC=NO,
             13296            HDLCX25=NO,UNITREC=NO,
      298    13297                    DEFAULT=%KL_DFLT_TRCBFR);
      299    13367        %KS$PARAM (NAME=RCVCQBYTSIZ,TEXTNAME=RCVCQBYTSIZ,MAX=63500,MIN=2100,
      300    13368                    DEFAULT=%KL_ASYNC_RCVCQBYTSIZ);
      301    13438        %KS$PARAM (NAME=SNDCQBYTSIZ,TEXTNAME=SNDCQBYTSIZ,MAX=63500,MIN=2100,
      302    13439                    DEFAULT=%KL_ASYNC_SNDCQBYTSIZ);
      303    13509        %KS$PARAM (NAME=MMRINTCHC,TEXTNAME=MMRINTCHC,
      304    13510                    DEFAULT=%KL_DFLT_MMRINTCHC);
      305    13580        %KS$PARAM (NAME=IOBUF,TEXTNAME=IOBUF,DEFAULT = %KL_HDLCX25_IOBUF, NODEADMIN=NO,
PL6.E3A0      #001=KS_TABLES_D File=KS_TABLES_D.:E05TSI                          WED 07/30/97 01:51 Page:10
             13580            COUPLER=NO,BISYNC=NO,UNITREC=NO,ASYNC=NO,MIN=1,MAX=14);
      306    13650        %KS$PARAM (NAME=LINERRLOGBFRLMT,TEXTNAME=LINERRLOGBFRLMT,DEFAULT =
             13650            %KL_HDLCX25_LINERRLOGBFRLMT,MIN=0,MAX=65535,
      307    13651                   NODEADMIN=NO,COUPLER=NO,BISYNC=NO,UNITREC=NO,ASYNC=NO);
      308    13721        %KS$PARAM (NAME=X29MLTMR,TEXTNAME=X29MLTMR,DEFAULT = %KL_HDLCX25_X29MLTMR,MIN=0,MAX=
             13721            255,
      309    13722                   NODEADMIN=NO,COUPLER=NO,BISYNC=NO,UNITREC=NO,ASYNC=NO);
      310    13792        %KS$PARAM (NAME=MAXICQTIME,TEXTNAME=MAXICQTIME,MIN=1,MAX=120,
      311    13793                    DEFAULT=%KL_DFLT_MAXICQTIME);
      312    13863        %KS$PARAM (NAME=OCQDBLKSIZ,TEXTNAME=OCQDBLKSIZ,MIN=1024,MAX=32768,
      313    13864                    DEFAULT=%KL_DFLT_OCQDBLKSIZ);
      314    13934        %KS$PARAM (NAME=LGNRTRYNUM,TEXTNAME=LGNRTRYNUM,MIN=0,MAX=255,
      315    13935                    DEFAULT=%KL_DFLT_LGNRTRYNUM);
      316    14005        %KS$PARAM (NAME=HOPCOST,TEXTNAME=HOPCOST,MIN=0,MAX=255,
      317    14006                    DEFAULT=%KL_DFLT_HOPCOST);
      318    14076        %KS$PARAM (NAME=OTPBFRBYTSIZSML,TEXTNAME=OTPBFRBYTSIZSML,MIN=32,MAX=1024,
      319    14077                    DEFAULT=%KL_DFLT_OTPBFRBYTSIZSML);
      320    14147        %KS$PARAM (NAME=OTPBFRBYTSIZBIG,TEXTNAME=OTPBFRBYTSIZBIG,MIN=32,MAX=1024,
      321    14148                    DEFAULT=%KL_DFLT_OTPBFRBYTSIZBIG);
      322    14218        %KS$PARAM (NAME=SSNMAX,TEXTNAME=SSNMAX,MIN=1,MAX=256,
      323    14219                    DEFAULT=%KL_ASYNC_DFLT_SSNMAX);
      324    14289        %KS$PARAM (NAME=IMPTBLMAX,TEXTNAME=IMPTBLMAX,MAX=32767,DEFAULT=%KL_DFLT_IMPTBLMAX,
             14289            NODEADMIN=NO,COUPLER=NO,UNITREC=NO);
      325    14359        %KS$PARAM (NAME=SPARE1,TEXTNAME=SPARE,NODEADMIN=NO,COUPLER=NO,BISYNC=NO,UNITREC=NO,
             14359            HDLCX25=NO,ASYNC=NO);
      326    14429        %KS$PARAM (NAME=SPARE2,TEXTNAME=SPARE,NODEADMIN=NO,COUPLER=NO,BISYNC=NO,UNITREC=NO,
             14429            HDLCX25=NO,ASYNC=NO);
      327    14499        %KS$PARAM (NAME=SPARE3,TEXTNAME=SPARE,NODEADMIN=NO,COUPLER=NO,BISYNC=NO,UNITREC=NO,
             14499            HDLCX25=NO,ASYNC=NO);
      328    14569        %KS$PARAM (NAME=BLOCK,TEXTNAME=BLOCK,SPECIAL=YES,ARRAY_SZ=%KL_BLOCK_HI,
      329    14570                    INDX=YES,SPCL_TBL=KS_BLOCK_TBL);
      330    14640        %KS$PARAM (NAME=UNBLOCK,TEXTNAME=UNBLOCK,SPECIAL=YES,ARRAY_SZ=%KL_UNBLOCK_HI,
      331    14641                    INDX=YES,SPCL_TBL=KS_UNBLOCK_TBL);
      332    14711    1           2 SZ UBIN WORD INIT(%KL_ASYNC_HI);
      333    14712
      334    14713                            /*F*  NAME: KS_BLOCK_TBL
      335    14714
PL6.E3A0      #001=KS_TABLES_D File=KS_TABLES_D.:E05TSI                          WED 07/30/97 01:51 Page:11
      336    14715                            This table contains the names, minimum and
      337    14716                            maximum values and the default value for the
      338    14717                            options of the BLOCK parameter.
      339    14718                            */
      340    14719
      341    14720    1   DCL 1 KS_BLOCK_TBL STATIC SYMDEF ALIGNED,
      342    14721        %KS$PARAM (NAME=S50,TEXTNAME=S50,MIN=1,
      343    14722             DEFAULT=%KL_BLOCK_50);
      344    14792        %KS$PARAM (NAME=S75,TEXTNAME=S75,MIN=1,
      345    14793             DEFAULT=%KL_BLOCK_75);
      346    14863        %KS$PARAM (NAME=S110,TEXTNAME=S110,MIN=1,
      347    14864             DEFAULT=%KL_BLOCK_110);
      348    14934        %KS$PARAM (NAME=S134,TEXTNAME=S134,MIN=1,
      349    14935             DEFAULT=%KL_BLOCK_134);
      350    15005        %KS$PARAM (NAME=S150,TEXTNAME=S150,MIN=1,
      351    15006             DEFAULT=%KL_BLOCK_150);
      352    15076        %KS$PARAM (NAME=S200,TEXTNAME=S200,MIN=1,
      353    15077             DEFAULT=%KL_BLOCK_200);
      354    15147        %KS$PARAM (NAME=S300,TEXTNAME=S300,MIN=1,
      355    15148             DEFAULT=%KL_BLOCK_300);
      356    15218        %KS$PARAM (NAME=S600,TEXTNAME=S600,MIN=1,
      357    15219             DEFAULT=%KL_BLOCK_600);
      358    15289        %KS$PARAM (NAME=S1050,TEXTNAME=S1050,MIN=1,
      359    15290             DEFAULT=%KL_BLOCK_1050);
      360    15360        %KS$PARAM (NAME=S1200,TEXTNAME=S1200,MIN=1,
      361    15361             DEFAULT=%KL_BLOCK_1200);
      362    15431        %KS$PARAM (NAME=S1800,TEXTNAME=S1800,MIN=1,
      363    15432             DEFAULT=%KL_BLOCK_1800);
      364    15502        %KS$PARAM (NAME=S2000,TEXTNAME=S2000,MIN=1,
      365    15503             DEFAULT=%KL_BLOCK_2000);
      366    15573        %KS$PARAM (NAME=S2400,TEXTNAME=S2400,MIN=1,
      367    15574             DEFAULT=%KL_BLOCK_2400);
      368    15644        %KS$PARAM (NAME=S4800,TEXTNAME=S4800,MIN=1,
      369    15645             DEFAULT=%KL_BLOCK_4800);
      370    15715        %KS$PARAM (NAME=S9600,TEXTNAME=S9600,MIN=1,
      371    15716             DEFAULT=%KL_BLOCK_9600);
      372    15786        %KS$PARAM (NAME=S19200,TEXTNAME=S19200,MIN=1,
PL6.E3A0      #001=KS_TABLES_D File=KS_TABLES_D.:E05TSI                          WED 07/30/97 01:51 Page:12
      373    15787             DEFAULT=%KL_BLOCK_19200);
      374    15857    1           2 SZ UBIN WORD INIT(%KL_BLOCK_HI);
      375    15858
      376    15859
      377    15860
      378    15861
      379    15862
      380    15863                            /*F*  NAME: KS_UNBLOCK_TBL
      381    15864
      382    15865                            This table contains the names, minimum and
      383    15866                            maximum values and the default value for the
      384    15867                            options of the BLOCK parameter.
      385    15868                            */
      386    15869
      387    15870    1   DCL 1 KS_UNBLOCK_TBL STATIC SYMDEF ALIGNED,
      388    15871        %KS$PARAM (NAME=S50,TEXTNAME=S50,MIN=1,
      389    15872             DEFAULT=%KL_UNBLOCK_50);
      390    15942        %KS$PARAM (NAME=S75,TEXTNAME=S75,MIN=1,
      391    15943             DEFAULT=%KL_UNBLOCK_75);
      392    16013        %KS$PARAM (NAME=S110,TEXTNAME=S110,MIN=1,
      393    16014             DEFAULT=%KL_UNBLOCK_110);
      394    16084        %KS$PARAM (NAME=S134,TEXTNAME=S134,MIN=1,
      395    16085             DEFAULT=%KL_UNBLOCK_134);
      396    16155        %KS$PARAM (NAME=S150,TEXTNAME=S150,MIN=1,
      397    16156             DEFAULT=%KL_UNBLOCK_150);
      398    16226        %KS$PARAM (NAME=S200,TEXTNAME=S200,MIN=1,
      399    16227             DEFAULT=%KL_UNBLOCK_200);
      400    16297        %KS$PARAM (NAME=S300,TEXTNAME=S300,MIN=1,
      401    16298             DEFAULT=%KL_UNBLOCK_300);
      402    16368        %KS$PARAM (NAME=S600,TEXTNAME=S600,MIN=1,
      403    16369             DEFAULT=%KL_UNBLOCK_600);
      404    16439        %KS$PARAM (NAME=S1050,TEXTNAME=S1050,MIN=1,
      405    16440             DEFAULT=%KL_UNBLOCK_1050);
      406    16510        %KS$PARAM (NAME=S1200,TEXTNAME=S1200,MIN=1,
      407    16511             DEFAULT=%KL_UNBLOCK_1200);
      408    16581        %KS$PARAM (NAME=S1800,TEXTNAME=S1800,MIN=1,
      409    16582             DEFAULT=%KL_UNBLOCK_1800);
PL6.E3A0      #001=KS_TABLES_D File=KS_TABLES_D.:E05TSI                          WED 07/30/97 01:51 Page:13
      410    16652        %KS$PARAM (NAME=S2000,TEXTNAME=S2000,MIN=1,
      411    16653             DEFAULT=%KL_UNBLOCK_2000);
      412    16723        %KS$PARAM (NAME=S2400,TEXTNAME=S2400,MIN=1,
      413    16724             DEFAULT=%KL_UNBLOCK_2400);
      414    16794        %KS$PARAM (NAME=S4800,TEXTNAME=S4800,MIN=1,
      415    16795             DEFAULT=%KL_UNBLOCK_4800);
      416    16865        %KS$PARAM (NAME=S9600,TEXTNAME=S9600,MIN=1,
      417    16866             DEFAULT=%KL_UNBLOCK_9600);
      418    16936        %KS$PARAM (NAME=S19200,TEXTNAME=S19200,MIN=1,
      419    16937             DEFAULT=%KL_UNBLOCK_19200);
      420    17007    1           2 SZ UBIN WORD INIT(%KL_UNBLOCK_HI);
      421    17008
      422    17009                            /*F* NAME: KS_USRPARM1_TBL
      423    17010
      424    17011                                  This table contains the names, min and max
      425    17012                                  and default values for the usrparm1 parameter
      426    17013                            */
      427    17014
      428    17015    1   DCL 1 KS_USRPARM1_TBL STATIC SYMDEF ALIGNED,
      429    17016        %KS$PARAM(NAME=USRPRM1,TEXTNAME=USRPRM1,DEFAULT=%KL_USRPRM_DFLT);
      430    17086        %KS$PARAM(NAME=USRPRM2,TEXTNAME=USRPRM2,DEFAULT=%KL_USRPRM_DFLT);
      431    17156        %KS$PARAM(NAME=USRPRM3,TEXTNAME=USRPRM3,DEFAULT=%KL_USRPRM_DFLT);
      432    17226        %KS$PARAM(NAME=USRPRM4,TEXTNAME=USRPRM4,DEFAULT=%KL_USRPRM_DFLT);
      433    17296        %KS$PARAM(NAME=USRPRM5,TEXTNAME=USRPRM5,DEFAULT=%KL_USRPRM_DFLT);
      434    17366        %KS$PARAM(NAME=USRPRM6,TEXTNAME=USRPRM6,DEFAULT=%KL_USRPRM_DFLT);
      435    17436        %KS$PARAM(NAME=USRPRM7,TEXTNAME=USRPRM7,DEFAULT=%KL_USRPRM_DFLT);
      436    17506        %KS$PARAM(NAME=USRPRM8,TEXTNAME=USRPRM8,DEFAULT=%KL_USRPRM_DFLT);
      437    17576    1         2 SZ UBIN WORD INIT(%KL_USRPARM1_HI);
      438    17577                            /*F* NAME: KS_USRPARM2_TBL
      439    17578
      440    17579                                  This table contains the names, min and max
      441    17580                                  and default values for the usrparm1 parameter
      442    17581                            */
      443    17582
      444    17583    1   DCL 1 KS_USRPARM2_TBL STATIC SYMDEF ALIGNED,
      445    17584        %KS$PARAM(NAME=USRPRM1,TEXTNAME=USRPRM1,DEFAULT=%KL_USRPRM_DFLT);
      446    17654        %KS$PARAM(NAME=USRPRM2,TEXTNAME=USRPRM2,DEFAULT=%KL_USRPRM_DFLT);
PL6.E3A0      #001=KS_TABLES_D File=KS_TABLES_D.:E05TSI                          WED 07/30/97 01:51 Page:14
      447    17724        %KS$PARAM(NAME=USRPRM3,TEXTNAME=USRPRM3,DEFAULT=%KL_USRPRM_DFLT);
      448    17794        %KS$PARAM(NAME=USRPRM4,TEXTNAME=USRPRM4,DEFAULT=%KL_USRPRM_DFLT);
      449    17864        %KS$PARAM(NAME=USRPRM5,TEXTNAME=USRPRM5,DEFAULT=%KL_USRPRM_DFLT);
      450    17934        %KS$PARAM(NAME=USRPRM6,TEXTNAME=USRPRM6,DEFAULT=%KL_USRPRM_DFLT);
      451    18004        %KS$PARAM(NAME=USRPRM7,TEXTNAME=USRPRM7,DEFAULT=%KL_USRPRM_DFLT);
      452    18074        %KS$PARAM(NAME=USRPRM8,TEXTNAME=USRPRM8,DEFAULT=%KL_USRPRM_DFLT);
      453    18144    1         2 SZ UBIN WORD INIT(%KL_USRPARM2_HI);
      454    18145
      455    18146                            /*F*  NAME: KS_BISYNC_TBL
      456    18147
      457    18148                            This table contains the defaults for the handler
      458    18149                            parameters for BISYNC.
      459    18150                            */
      460    18151
      461    18152    1   DCL 1 KS_BISYNC_TBL STATIC SYMDEF ALIGNED,
      462    18153        %KS$PARAM (NAME=INTLVL,TEXTNAME=INTLVL,MIN=12,MAX=60,
      463    18154             DEFAULT=%KL_BISYNC_INTLVL);
      464    18224        %KS$PARAM (NAME=MEM,TEXTNAME=MEM,MAX=2304,
      465    18225             DEFAULT=%KL_BISYNC_MEM);
      466    18295        %KS$PARAM (NAME=IOMEM,TEXTNAME=IOMEM,ASYNC=NO,BISYNC=NO,COUPLER=NO,NODEADMIN=NO,
             18295            UNITREC=NO,
      467    18296             DEFAULT=%KL_DFLT_IOMEM);
      468    18366        %KS$PARAM (NAME=RES,TEXTNAME=RES,
      469    18367             DEFAULT=%KL_BISYNC_RES);
      470    18437        %KS$PARAM (NAME=ATTR,TEXTNAME=ATTR,
      471    18438             DEFAULT=%KL_BISYNC_ATTR);
      472    18508        %KS$PARAM (NAME=TYPAHDBFRLMT,TEXTNAME=TYPAHDBFRLMT,MIN=1,MAX=254,
      473    18509             DEFAULT=%KL_DFLT_TYPAHDBFRLMT);
      474    18579        %KS$PARAM (NAME=LINERRLOGLMT,TEXTNAME=LINERRLOGLMT,MAX=255,
      475    18580             DEFAULT=%KL_DFLT_LINERRLOGLMT);
      476    18650        %KS$PARAM (NAME=LINERRDSCLMT,TEXTNAME=LINERRDSCLMT,MAX=255,
      477    18651             DEFAULT=%KL_DFLT_LINERRDSCLMT);
      478    18721        %KS$PARAM (NAME=TRC,TEXTNAME=TRC,DEFAULT=%KL_DFLT_TRC,NODEADMIN=NO,COUPLER=NO,
             18721            UNITREC=NO,ASYNC=NO,HDLCX25=NO,BISYNC=NO);
      479    18791        %KS$PARAM (NAME=VDHTRC,TEXTNAME=VDHTRC,
      480    18792             DEFAULT=%KL_BISYNC_VDHTRC);
      481    18862        %KS$PARAM (NAME=ERRSND,TEXTNAME=ERRSND,MAX=7,
PL6.E3A0      #001=KS_TABLES_D File=KS_TABLES_D.:E05TSI                          WED 07/30/97 01:51 Page:15
      482    18863             DEFAULT=%KL_DFLT_ERRSND);
      483    18933        %KS$PARAM (NAME=TRCBFR,TEXTNAME=TRCBFR,NODEADMIN=NO,COUPLER=NO,BISYNC=NO,ASYNC=NO,
             18933            HDLCX25=NO,UNITREC=NO,
      484    18934             DEFAULT=%KL_DFLT_TRCBFR);
      485    19004        %KS$PARAM (NAME=RCVCQBYTSIZ,TEXTNAME=RCVCQBYTSIZ,MAX=63500,MIN=2100,
      486    19005             DEFAULT=%KL_BISYNC_RCVCQBYTSIZ);
      487    19075        %KS$PARAM (NAME=SNDCQBYTSIZ,TEXTNAME=SNDCQBYTSIZ,MAX=63500,MIN=2100,
      488    19076             DEFAULT=%KL_BISYNC_SNDCQBYTSIZ);
      489    19146        %KS$PARAM (NAME=MMRINTCHC,TEXTNAME=MMRINTCHC,
      490    19147             DEFAULT=%KL_DFLT_MMRINTCHC);
      491    19217        %KS$PARAM (NAME=IOBUF,TEXTNAME=IOBUF,DEFAULT = %KL_HDLCX25_IOBUF, NODEADMIN=NO,
             19217            COUPLER=NO,BISYNC=NO,UNITREC=NO,ASYNC=NO,MIN=1,MAX=14);
      492    19287        %KS$PARAM (NAME=LINERRLOGBFRLMT,TEXTNAME=LINERRLOGBFRLMT,DEFAULT =
             19287            %KL_HDLCX25_LINERRLOGBFRLMT,MIN=0,MAX=65535,
      493    19288                   NODEADMIN=NO,COUPLER=NO,BISYNC=NO,UNITREC=NO,ASYNC=NO);
      494    19358        %KS$PARAM (NAME=X29MLTMR,TEXTNAME=X29MLTMR,DEFAULT = %KL_HDLCX25_X29MLTMR,MIN=0,MAX=
             19358            255,
      495    19359                   NODEADMIN=NO,COUPLER=NO,BISYNC=NO,UNITREC=NO,ASYNC=NO);
      496    19429        %KS$PARAM (NAME=MAXICQTIME,TEXTNAME=MAXICQTIME,MIN=1,MAX=120,
      497    19430                    DEFAULT=%KL_DFLT_MAXICQTIME);
      498    19500        %KS$PARAM (NAME=OCQDBLKSIZ,TEXTNAME=OCQDBLKSIZ,MIN=1024,MAX=32768,
      499    19501                    DEFAULT=%KL_DFLT_OCQDBLKSIZ);
      500    19571        %KS$PARAM (NAME=LGNRTRYNUM,TEXTNAME=LGNRTRYNUM,MIN=0,MAX=255,
      501    19572                    DEFAULT=%KL_DFLT_LGNRTRYNUM);
      502    19642        %KS$PARAM (NAME=HOPCOST,TEXTNAME=HOPCOST,MIN=0,MAX=255,
      503    19643                    DEFAULT=%KL_DFLT_HOPCOST);
      504    19713        %KS$PARAM (NAME=OTPBFRBYTSIZSML,TEXTNAME=OTPBFRBYTSIZSML,MIN=32,MAX=1024,
      505    19714                    DEFAULT=%KL_DFLT_OTPBFRBYTSIZSML);
      506    19784        %KS$PARAM (NAME=OTPBFRBYTSIZBIG,TEXTNAME=OTPBFRBYTSIZBIG,MIN=32,MAX=1024,
      507    19785                    DEFAULT=%KL_DFLT_OTPBFRBYTSIZBIG);
      508    19855        %KS$PARAM (NAME=SSNMAX,TEXTNAME=SSNMAX,MIN=1,MAX=256,
      509    19856                    DEFAULT=%KL_ASYNC_DFLT_SSNMAX);
      510    19926        %KS$PARAM (NAME=IMPTBLMAX,TEXTNAME=IMPTBLMAX,MAX=32767,DEFAULT=%KL_DFLT_IMPTBLMAX,
             19926            NODEADMIN=NO,COUPLER=NO,UNITREC=NO);
      511    19996    1           2 SZ UBIN WORD INIT(%KL_BISYNC_HI);
      512    19997
      513    19998
PL6.E3A0      #001=KS_TABLES_D File=KS_TABLES_D.:E05TSI                          WED 07/30/97 01:51 Page:16
      514    19999
      515    20000
      516    20001
      517    20002                            /*F*  NAME: KS_COUPLER_TBL
      518    20003
      519    20004                            This table contains the defaults for the handler
      520    20005                            parameters for COUPLER.
      521    20006                            */
      522    20007
      523    20008    1   DCL 1 KS_COUPLER_TBL STATIC SYMDEF ALIGNED,
      524    20009        %KS$PARAM (NAME=INTLVL,TEXTNAME=INTLVL,MIN=12,MAX=60,
      525    20010               DEFAULT=%KL_COUPLER_INTLVL);
      526    20080        %KS$PARAM (NAME=MEM,TEXTNAME=MEM,MAX=2304,
      527    20081               DEFAULT=%KL_COUPLER_MEM);
      528    20151        %KS$PARAM (NAME=IOMEM,TEXTNAME=IOMEM,ASYNC=NO,BISYNC=NO,COUPLER=NO,NODEADMIN=NO,
             20151            UNITREC=NO,
      529    20152               DEFAULT=%KL_DFLT_IOMEM);
      530    20222        %KS$PARAM (NAME=RES,TEXTNAME=RES,
      531    20223               DEFAULT=%KL_COUPLER_RES);
      532    20293        %KS$PARAM (NAME=ATTR,TEXTNAME=ATTR,
      533    20294               DEFAULT=%KL_COUPLER_ATTR);
      534    20364        %KS$PARAM (NAME=TYPAHDBFRLMT,TEXTNAME=TYPAHDBFRLMT,MIN=1,MAX=254,
      535    20365               DEFAULT=%KL_DFLT_TYPAHDBFRLMT);
      536    20435        %KS$PARAM (NAME=LINERRLOGLMT,TEXTNAME=LINERRLOGLMT,MAX=255,
      537    20436               DEFAULT=%KL_DFLT_LINERRLOGLMT);
      538    20506        %KS$PARAM (NAME=LINERRDSCLMT,TEXTNAME=LINERRDSCLMT,MAX=255,
      539    20507               DEFAULT=%KL_DFLT_LINERRDSCLMT);
      540    20577        %KS$PARAM (NAME=TRC,TEXTNAME=TRC,DEFAULT=%KL_DFLT_TRC,NODEADMIN=NO,COUPLER=NO,
             20577            UNITREC=NO,ASYNC=NO,HDLCX25=NO,BISYNC=NO);
      541    20647        %KS$PARAM (NAME=VDHTRC,TEXTNAME=VDHTRC,
      542    20648               DEFAULT=%KL_DFLT_VDHTRC);
      543    20718        %KS$PARAM (NAME=ERRSND,TEXTNAME=ERRSND,MAX=7,
      544    20719               DEFAULT=%KL_DFLT_ERRSND);
      545    20789        %KS$PARAM (NAME=TRCBFR,TEXTNAME=TRCBFR,NODEADMIN=NO,COUPLER=NO,BISYNC=NO,ASYNC=NO,
             20789            HDLCX25=NO,UNITREC=NO,
      546    20790               DEFAULT=%KL_DFLT_TRCBFR);
      547    20860        %KS$PARAM (NAME=RCVCQBYTSIZ,TEXTNAME=RCVCQBYTSIZ,MAX=32767,MIN=2100,
PL6.E3A0      #001=KS_TABLES_D File=KS_TABLES_D.:E05TSI                          WED 07/30/97 01:51 Page:17
      548    20861               DEFAULT=%KL_COUPLER_RCVCQBYTSIZ);
      549    20931        %KS$PARAM (NAME=SNDCQBYTSIZ,TEXTNAME=SNDCQBYTSIZ,MAX=32767,MIN=2100,
      550    20932               DEFAULT=%KL_COUPLER_SNDCQBYTSIZ);
      551    21002        %KS$PARAM (NAME=MMRINTCHC,TEXTNAME=MMRINTCHC,
      552    21003               DEFAULT=%KL_DFLT_MMRINTCHC);
      553    21073        %KS$PARAM (NAME=IOBUF,TEXTNAME=IOBUF,DEFAULT = %KL_HDLCX25_IOBUF, NODEADMIN=NO,
             21073            COUPLER=NO,BISYNC=NO,UNITREC=NO,ASYNC=NO,MIN=1,MAX=14);
      554    21143        %KS$PARAM (NAME=LINERRLOGBFRLMT,TEXTNAME=LINERRLOGBFRLMT,DEFAULT =
             21143            %KL_HDLCX25_LINERRLOGBFRLMT,MIN=0,MAX=65535,
      555    21144                   NODEADMIN=NO,COUPLER=NO,BISYNC=NO,UNITREC=NO,ASYNC=NO);
      556    21214        %KS$PARAM (NAME=X29MLTMR,TEXTNAME=X29MLTMR,DEFAULT = %KL_HDLCX25_X29MLTMR,MIN=0,MAX=
             21214            255,
      557    21215                   NODEADMIN=NO,COUPLER=NO,BISYNC=NO,UNITREC=NO,ASYNC=NO);
      558    21285        %KS$PARAM (NAME=MAXICQTIME,TEXTNAME=MAXICQTIME,MIN=1,MAX=120,
      559    21286               DEFAULT=%KL_DFLT_MAXICQTIME);
      560    21356        %KS$PARAM (NAME=OCQDBLKSIZ,TEXTNAME=OCQDBLKSIZ,MIN=1024,MAX=32768,
      561    21357               DEFAULT=%KL_DFLT_OCQDBLKSIZ);
      562    21427    1           2 SZ UBIN WORD INIT(%KL_FEI_HI);
      563    21428
      564    21429
      565    21430
      566    21431
      567    21432
      568    21433                            /*F*  NAME: KS_HDLCX25_TBL
      569    21434
      570    21435                            This table contains the defaults for the handler
      571    21436                            parameters for HDLC.
      572    21437                            */
      573    21438
      574    21439    1   DCL 1 KS_HDLCX25_TBL STATIC SYMDEF ALIGNED,
      575    21440        %KS$PARAM (NAME=INTLVL,TEXTNAME=INTLVL,MIN=12,MAX=60,
      576    21441              DEFAULT=%KL_HDLCX25_INTLVL);
      577    21511        %KS$PARAM (NAME=MEM,TEXTNAME=MEM,MAX=2048,
      578    21512              DEFAULT=%KL_HDLCX25_MEM);
      579    21582        %KS$PARAM (NAME=IOMEM,TEXTNAME=IOMEM,ASYNC=NO,BISYNC=NO,COUPLER=NO,NODEADMIN=NO,
             21582            UNITREC=NO,MAX=2048,
      580    21583              DEFAULT=%KL_HDLCX25_IOMEM);
PL6.E3A0      #001=KS_TABLES_D File=KS_TABLES_D.:E05TSI                          WED 07/30/97 01:51 Page:18
      581    21653        %KS$PARAM (NAME=RES,TEXTNAME=RES,
      582    21654              DEFAULT=%KL_HDLCX25_RES);
      583    21724        %KS$PARAM (NAME=ATTR,TEXTNAME=ATTR,
      584    21725              DEFAULT=%KL_HDLCX25_ATTR);
      585    21795        %KS$PARAM (NAME=TYPAHDBFRLMT,TEXTNAME=TYPAHDBFRLMT,MIN=1,MAX=254,
      586    21796              DEFAULT=%KL_DFLT_TYPAHDBFRLMT);
      587    21866        %KS$PARAM (NAME=LINERRLOGLMT,TEXTNAME=LINERRLOGLMT,MAX=255,
      588    21867              DEFAULT=%KL_DFLT_LINERRLOGLMT);
      589    21937        %KS$PARAM (NAME=LINERRDSCLMT,TEXTNAME=LINERRDSCLMT,MAX=255,
      590    21938              DEFAULT=%KL_DFLT_HDLCX25_LINERRDSCLMT);
      591    22008        %KS$PARAM (NAME=TRC,TEXTNAME=TRC,DEFAULT=%KL_DFLT_TRC,NODEADMIN=NO,COUPLER=NO,
             22008            UNITREC=NO,ASYNC=NO,HDLCX25=NO,BISYNC=NO);
      592    22078        %KS$PARAM (NAME=VDHTRC,TEXTNAME=VDHTRC,
      593    22079              DEFAULT=%KL_DFLT_VDHTRC);
      594    22149        %KS$PARAM (NAME=ERRSND,TEXTNAME=ERRSND,MAX=7,
      595    22150              DEFAULT=%KL_DFLT_ERRSND);
      596    22220        %KS$PARAM (NAME=TRCBFR,TEXTNAME=TRCBFR,NODEADMIN=NO,COUPLER=NO,BISYNC=NO,ASYNC=NO,
             22220            HDLCX25=NO,UNITREC=NO,
      597    22221              DEFAULT=%KL_DFLT_TRCBFR);
      598    22291        %KS$PARAM (NAME=RCVCQBYTSIZ,TEXTNAME=RCVCQBYTSIZ,MAX=63500,MIN=2100,
      599    22292              DEFAULT=%KL_HDLCX25_RCVCQBYTSIZ);
      600    22362        %KS$PARAM (NAME=SNDCQBYTSIZ,TEXTNAME=SNDCQBYTSIZ,MAX=63500,MIN=2100,
      601    22363              DEFAULT=%KL_HDLCX25_SNDCQBYTSIZ);
      602    22433        %KS$PARAM (NAME=MMRINTCHC,TEXTNAME=MMRINTCHC,
      603    22434              DEFAULT=%KL_DFLT_MMRINTCHC);
      604    22504        %KS$PARAM (NAME=IOBUF,TEXTNAME=IOBUF,DEFAULT = %KL_HDLCX25_IOBUF, NODEADMIN=NO,
             22504            COUPLER=NO,BISYNC=NO,UNITREC=NO,ASYNC=NO,MIN=1,MAX=14);
      605    22574        %KS$PARAM (NAME=LINERRLOGBFRLMT,TEXTNAME=LINERRLOGBFRLMT,DEFAULT =
             22574            %KL_HDLCX25_LINERRLOGBFRLMT,MIN=0,MAX=65535,
      606    22575                   NODEADMIN=NO,COUPLER=NO,BISYNC=NO,UNITREC=NO,ASYNC=NO);
      607    22645        %KS$PARAM (NAME=X29MLTMR,TEXTNAME=X29MLTMR,DEFAULT = %KL_HDLCX25_X29MLTMR,MIN=0,MAX=
             22645            255,
      608    22646                   NODEADMIN=NO,COUPLER=NO,BISYNC=NO,UNITREC=NO,ASYNC=NO);
      609    22716        %KS$PARAM (NAME=MAXICQTIME,TEXTNAME=MAXICQTIME,MIN=1,MAX=120,
      610    22717                    DEFAULT=%KL_DFLT_MAXICQTIME);
      611    22787        %KS$PARAM (NAME=OCQDBLKSIZ,TEXTNAME=OCQDBLKSIZ,MIN=1024,MAX=32768,
      612    22788                    DEFAULT=%KL_DFLT_OCQDBLKSIZ);
PL6.E3A0      #001=KS_TABLES_D File=KS_TABLES_D.:E05TSI                          WED 07/30/97 01:51 Page:19
      613    22858        %KS$PARAM (NAME=LGNRTRYNUM,TEXTNAME=LGNRTRYNUM,MIN=0,MAX=255,
      614    22859                    DEFAULT=%KL_DFLT_LGNRTRYNUM);
      615    22929        %KS$PARAM (NAME=HOPCOST,TEXTNAME=HOPCOST,MIN=0,MAX=255,
      616    22930                    DEFAULT=%KL_DFLT_HOPCOST);
      617    23000        %KS$PARAM (NAME=OTPBFRBYTSIZSML,TEXTNAME=OTPBFRBYTSIZSML,MIN=32,MAX=1024,
      618    23001                    DEFAULT=%KL_DFLT_OTPBFRBYTSIZSML);
      619    23071        %KS$PARAM (NAME=OTPBFRBYTSIZBIG,TEXTNAME=OTPBFRBYTSIZBIG,MIN=32,MAX=1024,
      620    23072                    DEFAULT=%KL_DFLT_OTPBFRBYTSIZBIG);
      621    23142        %KS$PARAM (NAME=SSNMAX,TEXTNAME=SSNMAX,MIN=1,MAX=256,
      622    23143                    DEFAULT=%KL_ASYNC_DFLT_SSNMAX);
      623    23213        %KS$PARAM (NAME=IMPTBLMAX,TEXTNAME=IMPTBLMAX,MAX=32767,DEFAULT=%KL_DFLT_IMPTBLMAX,
             23213            NODEADMIN=NO,COUPLER=NO,UNITREC=NO);
      624    23283        %KS$PARAM (NAME=SPARE1,TEXTNAME=SPARE,NODEADMIN=NO,COUPLER=NO,BISYNC=NO,UNITREC=NO,
             23283            HDLCX25=NO,ASYNC=NO);
      625    23353        %KS$PARAM (NAME=SPARE2,TEXTNAME=SPARE,NODEADMIN=NO,COUPLER=NO,BISYNC=NO,UNITREC=NO,
             23353            HDLCX25=NO,ASYNC=NO);
      626    23423        %KS$PARAM (NAME=SPARE3,TEXTNAME=SPARE,NODEADMIN=NO,COUPLER=NO,BISYNC=NO,UNITREC=NO,
             23423            HDLCX25=NO,ASYNC=NO);
      627    23493        %KS$PARAM (NAME=BLOCK,TEXTNAME=BLOCK,SPECIAL=YES,ARRAY_SZ=%KL_BLOCK_HI,
      628    23494                    INDX=YES,SPCL_TBL=KS_BLOCK_TBL);
      629    23564        %KS$PARAM (NAME=UNBLOCK,TEXTNAME=UNBLOCK,SPECIAL=YES,ARRAY_SZ=%KL_UNBLOCK_HI,
      630    23565                    INDX=YES,SPCL_TBL=KS_UNBLOCK_TBL);
      631    23635    1           2 SZ UBIN WORD INIT(%KL_HDLCX25_HI);
      632    23636
      633    23637
      634    23638
      635    23639
      636    23640
      637    23641                            /*F*  NAME: KS_NODEADMIN_TBL
      638    23642
      639    23643                            This table contains the defaults for the handler
      640    23644                            parameters for NODEADMIN.
      641    23645                            */
      642    23646
      643    23647    1   DCL 1 KS_NODEADMIN_TBL STATIC SYMDEF ALIGNED,
      644    23648        %KS$PARAM (NAME=INTLVL,TEXTNAME=INTLVL,MIN=%KL_NODEADMIN_INTLVL,MAX=
             23648            %KL_NODEADMIN_INTLVL,
PL6.E3A0      #001=KS_TABLES_D File=KS_TABLES_D.:E05TSI                          WED 07/30/97 01:51 Page:20
      645    23649                DEFAULT=%KL_NODEADMIN_INTLVL);
      646    23719        %KS$PARAM (NAME=MEM,TEXTNAME=MEM,MAX=2304,
      647    23720                DEFAULT=%KL_NODEADMIN_MEM);
      648    23790        %KS$PARAM (NAME=IOMEM,TEXTNAME=IOMEM,ASYNC=NO,BISYNC=NO,COUPLER=NO,NODEADMIN=NO,
             23790            UNITREC=NO,
      649    23791                DEFAULT=%KL_DFLT_IOMEM);
      650    23861        %KS$PARAM (NAME=RES,TEXTNAME=RES,
      651    23862                DEFAULT=%KL_DFLT_RES);
      652    23932        %KS$PARAM (NAME=ATTR,TEXTNAME=ATTR,
      653    23933                DEFAULT=%KL_DFLT_ATTR);
      654    24003        %KS$PARAM (NAME=TYPAHDBFRLMT,TEXTNAME=TYPAHDBFRLMT,MIN=1,MAX=254,
      655    24004                DEFAULT=%KL_DFLT_TYPAHDBFRLMT);
      656    24074        %KS$PARAM (NAME=LINERRLOGLMT,TEXTNAME=LINERRLOGLMT,MAX=255,
      657    24075                DEFAULT=%KL_DFLT_LINERRLOGLMT);
      658    24145        %KS$PARAM (NAME=LINERRDSCLMT,TEXTNAME=LINERRDSCLMT,MAX=255,
      659    24146                DEFAULT=%KL_DFLT_LINERRDSCLMT);
      660    24216        %KS$PARAM (NAME=TRC,TEXTNAME=TRC,DEFAULT=%KL_DFLT_TRC,NODEADMIN=NO,COUPLER=NO,
             24216            UNITREC=NO,ASYNC=NO,HDLCX25=NO,BISYNC=NO);
      661    24286        %KS$PARAM (NAME=VDHTRC,TEXTNAME=VDHTRC,
      662    24287                DEFAULT=%KL_DFLT_VDHTRC);
      663    24357        %KS$PARAM (NAME=ERRSND,TEXTNAME=ERRSND,MAX=7,
      664    24358                DEFAULT=%KL_DFLT_ERRSND);
      665    24428        %KS$PARAM (NAME=TRCBFR,TEXTNAME=TRCBFR,NODEADMIN=NO,COUPLER=NO,BISYNC=NO,ASYNC=NO,
             24428            HDLCX25=NO,UNITREC=NO,
      666    24429                DEFAULT=%KL_DFLT_TRCBFR);
      667    24499        %KS$PARAM (NAME=RCVCQBYTSIZ,TEXTNAME=RCVCQBYTSIZ,MAX=63500,MIN=2100,
      668    24500                DEFAULT=%KL_NODEADMIN_RCVCQBYTSIZ);
      669    24570        %KS$PARAM (NAME=SNDCQBYTSIZ,TEXTNAME=SNDCQBYTSIZ,MAX=63500,MIN=2100,
      670    24571                DEFAULT=%KL_NODEADMIN_SNDCQBYTSIZ);
      671    24641        %KS$PARAM (NAME=MMRINTCHC,TEXTNAME=MMRINTCHC,
      672    24642                DEFAULT=%KL_DFLT_MMRINTCHC);
      673    24712        %KS$PARAM (NAME=IOBUF,TEXTNAME=IOBUF,DEFAULT = %KL_HDLCX25_IOBUF, NODEADMIN=NO,
             24712            COUPLER=NO,BISYNC=NO,UNITREC=NO,ASYNC=NO,MIN=1,MAX=14);
      674    24782        %KS$PARAM (NAME=LINERRLOGBFRLMT,TEXTNAME=LINERRLOGBFRLMT,DEFAULT =
             24782            %KL_HDLCX25_LINERRLOGBFRLMT,MIN=0,MAX=65535,
      675    24783                   NODEADMIN=NO,COUPLER=NO,BISYNC=NO,UNITREC=NO,ASYNC=NO);
      676    24853        %KS$PARAM (NAME=X29MLTMR,TEXTNAME=X29MLTMR,DEFAULT = %KL_HDLCX25_X29MLTMR,MIN=0,MAX=
PL6.E3A0      #001=KS_TABLES_D File=KS_TABLES_D.:E05TSI                          WED 07/30/97 01:51 Page:21
             24853            255,
      677    24854                   NODEADMIN=NO,COUPLER=NO,BISYNC=NO,UNITREC=NO,ASYNC=NO);
      678    24924        %KS$PARAM (NAME=MAXICQTIME,TEXTNAME=MAXICQTIME,MIN=1,MAX=120,
      679    24925                DEFAULT=%KL_DFLT_MAXICQTIME);
      680    24995        %KS$PARAM (NAME=OCQDBLKSIZ,TEXTNAME=OCQDBLKSIZ,MIN=1024,MAX=32768,
      681    24996                DEFAULT=%KL_DFLT_OCQDBLKSIZ);
      682    25066        %KS$PARAM (NAME=LGNRTRYNUM,TEXTNAME=LGNRTRYNUM,MIN=0,MAX=255,
      683    25067                DEFAULT=%KL_DFLT_LGNRTRYNUM);
      684    25137        %KS$PARAM (NAME=HOPCOST,TEXTNAME=HOPCOST,MIN=0,MAX=255,
      685    25138                DEFAULT=%KL_DFLT_HOPCOST);
      686    25208    1           2 SZ UBIN WORD INIT(%KL_NA_HI);
      687    25209
      688    25210
      689    25211
      690    25212
      691    25213
      692    25214                            /*F*  NAME: KS_UNITREC_TBL
      693    25215
      694    25216                            This table contains the defaults for the handler
      695    25217                            parameters for UNITREC.
      696    25218                            */
      697    25219
      698    25220    1   DCL 1 KS_UNITREC_TBL STATIC SYMDEF ALIGNED,
      699    25221        %KS$PARAM (NAME=INTLVL,TEXTNAME=INTLVL,MIN=12,MAX=60,
      700    25222               DEFAULT=%KL_UNITREC_INTLVL);
      701    25292        %KS$PARAM (NAME=MEM,TEXTNAME=MEM,MAX=2304,
      702    25293               DEFAULT=%KL_UNITREC_MEM);
      703    25363        %KS$PARAM (NAME=IOMEM,TEXTNAME=IOMEM,ASYNC=NO,BISYNC=NO,COUPLER=NO,NODEADMIN=NO,
             25363            UNITREC=NO,
      704    25364               DEFAULT=%KL_DFLT_IOMEM);
      705    25434        %KS$PARAM (NAME=RES,TEXTNAME=RES,
      706    25435               DEFAULT=%KL_UNITREC_RES);
      707    25505        %KS$PARAM (NAME=ATTR,TEXTNAME=ATTR,
      708    25506               DEFAULT=%KL_UNITREC_ATTR);
      709    25576        %KS$PARAM (NAME=TYPAHDBFRLMT,TEXTNAME=TYPAHDBFRLMT,MIN=1,MAX=254,
      710    25577               DEFAULT=%KL_DFLT_TYPAHDBFRLMT);
      711    25647        %KS$PARAM (NAME=LINERRLOGLMT,TEXTNAME=LINERRLOGLMT,MAX=255,
PL6.E3A0      #001=KS_TABLES_D File=KS_TABLES_D.:E05TSI                          WED 07/30/97 01:51 Page:22
      712    25648               DEFAULT=%KL_DFLT_LINERRLOGLMT);
      713    25718        %KS$PARAM (NAME=LINERRDSCLMT,TEXTNAME=LINERRDSCLMT,MAX=255,
      714    25719               DEFAULT=%KL_DFLT_LINERRDSCLMT);
      715    25789        %KS$PARAM (NAME=TRC,TEXTNAME=TRC,DEFAULT=%KL_DFLT_TRC,NODEADMIN=NO,COUPLER=NO,
             25789            UNITREC=NO,ASYNC=NO,HDLCX25=NO,BISYNC=NO);
      716    25859        %KS$PARAM (NAME=VDHTRC,TEXTNAME=VDHTRC,
      717    25860               DEFAULT=%KL_DFLT_VDHTRC);
      718    25930        %KS$PARAM (NAME=ERRSND,TEXTNAME=ERRSND,MAX=7,
      719    25931               DEFAULT=%KL_DFLT_ERRSND);
      720    26001        %KS$PARAM (NAME=TRCBFR,TEXTNAME=TRCBFR,NODEADMIN=NO,COUPLER=NO,BISYNC=NO,ASYNC=NO,
             26001            HDLCX25=NO,UNITREC=NO,
      721    26002               DEFAULT=%KL_DFLT_TRCBFR);
      722    26072        %KS$PARAM (NAME=RCVCQBYTSIZ,TEXTNAME=RCVCQBYTSIZ,MAX=63500,MIN=2100,
      723    26073               DEFAULT=%KL_UNITREC_RCVCQBYTSIZ);
      724    26143        %KS$PARAM (NAME=SNDCQBYTSIZ,TEXTNAME=SNDCQBYTSIZ,MAX=63500,MIN=2100,
      725    26144               DEFAULT=%KL_UNITREC_SNDCQBYTSIZ);
      726    26214        %KS$PARAM (NAME=MMRINTCHC,TEXTNAME=MMRINTCHC,
      727    26215               DEFAULT=%KL_DFLT_MMRINTCHC);
      728    26285    1           2 SZ UBIN WORD INIT(%KL_HNDLRPARM_STD_HI);
      729    26286
      730    26287
      731    26288
      732    26289                            /*F* NAME: PARAMETER NAMES
      733    26290
      734    26291                            What follows is a list of all the parameter
      735    26292                            names known to NETCON.
      736    26293                            */
      737    26294
      738    26295        /* BOOTPARAMS Parameters.
      739    26296        */
      740    26297        %VLP_NAME (FPTN=LDCT,NAME='LDCT');
      741    26324        %VLP_NAME (FPTN=IOP,NAME='IOP');
      742    26351        %VLP_NAME (FPTN=HMI,NAME='HMI');
      743    26378        %VLP_NAME (FPTN=APESSN,NAME='APESSN');
      744    26405        %VLP_NAME (FPTN=TCTX,NAME='TCTX');
      745    26432        %VLP_NAME (FPTN=CBUFFER,NAME='CBUFFER');
      746    26459        %VLP_NAME (FPTN=SFILE,NAME='SFILE');
PL6.E3A0      #001=KS_TABLES_D File=KS_TABLES_D.:E05TSI                          WED 07/30/97 01:51 Page:23
      747    26486        %VLP_NAME (FPTN=MUIS,NAME='MUIS');
      748    26513        %VLP_NAME (FPTN=NSHUF,NAME='NSHUF');
      749    26540        %VLP_NAME (FPTN=MAXLINKS,NAME='MAXLINKS');
      750    26567        %VLP_NAME (FPTN=DEVICES,NAME='DEVICES');
      751    26594        %VLP_NAME (FPTN=ACCTS,NAME='ACCTS');
      752    26621        %VLP_NAME (FPTN=PCHANS,NAME='PCHANS');
      753    26648        %VLP_NAME (FPTN=OSIROUTES,NAME='OSIROUTES');
      754    26675        %VLP_NAME (FPTN=DPS8000FLG,NAME='DPS8000FLG');
      755    26702
      756    26703
      757    26704        /* LCP6PARAMS parameters.
      758    26705        */
      759    26706        %VLP_NAME (FPTN=QMIN,NAME='QMIN');
      760    26733        %VLP_NAME (FPTN=QUAN,NAME='QUAN');
      761    26760        %VLP_NAME (FPTN=XCONTIME,NAME='XCONTIME');
      762    26787        %VLP_NAME (FPTN=MUSR,NAME='MUSR');
      763    26814        %VLP_NAME (FPTN=MUSR_USER,NAME='MUSR_USER');
      764    26841        %VLP_NAME (FPTN=MUSR_CG,NAME='MUSR_CG');
      765    26868        %VLP_NAME (FPTN=MUSR_HAND,NAME='MUSR_HAND');
      766    26895        %VLP_NAME (FPTN=MUSR_GHST,NAME='MUSR_GHST');
      767    26922        %VLP_NAME (FPTN=MMEM,NAME='MMEM');
      768    26949        %VLP_NAME (FPTN=MMEM_USER,NAME='MMEM_USER');
      769    26976        %VLP_NAME (FPTN=MMEM_CG,NAME='MMEM_CG');
      770    27003        %VLP_NAME (FPTN=MMEM_HAND,NAME='MMEM_HAND');
      771    27030        %VLP_NAME (FPTN=MMEM_GHST,NAME='MMEM_GHST');
      772    27057        %VLP_NAME (FPTN=DUMP,NAME='DUMP');
      773    27084        %VLP_NAME (FPTN=KEEPDELTA,NAME='KEEPDELTA');
      774    27111        %VLP_NAME (FPTN=SFILE_DATA,NAME='SFILE_DATA');
      775    27138        %VLP_NAME (FPTN=CUSR,NAME='CUSR');
      776    27165        %VLP_NAME (FPTN=CUSR_USER,NAME='CUSR_USER');
      777    27192        %VLP_NAME (FPTN=CUSR_CG,NAME='CUSR_CG');
      778    27219        %VLP_NAME (FPTN=CUSR_HAND,NAME='CUSR_HAND');
      779    27246        %VLP_NAME (FPTN=CUSR_GHST,NAME='CUSR_GHST');
      780    27273        %VLP_NAME (FPTN=CMEM,NAME='CMEM');
      781    27300        %VLP_NAME (FPTN=CMEM_USER,NAME='CMEM_USER');
      782    27327        %VLP_NAME (FPTN=CMEM_CG,NAME='CMEM_CG');
      783    27354        %VLP_NAME (FPTN=CMEM_HAND,NAME='CMEM_HAND');
PL6.E3A0      #001=KS_TABLES_D File=KS_TABLES_D.:E05TSI                          WED 07/30/97 01:51 Page:24
      784    27381        %VLP_NAME (FPTN=CMEM_GHST,NAME='CMEM_GHST');
      785    27408
      786    27409
      787    27410        /* HANDPARAMS Parameters.
      788    27411        */
      789    27412        %VLP_NAME (FPTN=INTLVL,NAME='INTLVL');
      790    27439        %VLP_NAME (FPTN=MEM,NAME='MEM');
      791    27466        %VLP_NAME (FPTN=IOMEM,NAME='IOMEM');
      792    27493        %VLP_NAME (FPTN=RES,NAME='RES');
      793    27520        %VLP_NAME (FPTN=ATTR,NAME='ATTR');
      794    27547        %VLP_NAME (FPTN=TYPAHDBFRLMT,NAME='TYPAHDBFRLMT');
      795    27574        %VLP_NAME (FPTN=LINERRLOGLMT,NAME='LINERRLOGLMT');
      796    27601        %VLP_NAME (FPTN=LINERRDSCLMT,NAME='LINERRDSCLMT');
      797    27628        %VLP_NAME (FPTN=TRC,NAME='TRC');
      798    27655        %VLP_NAME (FPTN=VDHTRC,NAME='VDHTRC');
      799    27682        %VLP_NAME (FPTN=ERRSND,NAME='ERRSND');
      800    27709        %VLP_NAME (FPTN=TRCBFR,NAME='TRCBFR');
      801    27736        %VLP_NAME (FPTN=RCVCQBYTSIZ,NAME='RCVCQBYTSIZ');
      802    27763        %VLP_NAME (FPTN=SNDCQBYTSIZ,NAME='SNDCQBYTSIZ');
      803    27790        %VLP_NAME (FPTN=MMRINTCHC,NAME='MMRINTCHC');
      804    27817        %VLP_NAME (FPTN=MAXICQTIME,NAME='MAXICQTIME');
      805    27844        %VLP_NAME (FPTN=OCQDBLKSIZ,NAME='OCQDBLKSIZ');
      806    27871        %VLP_NAME (FPTN=LGNRTRYNUM,NAME='LGNRTRYNUM');
      807    27898        %VLP_NAME (FPTN=HOPCOST,NAME='HOPCOST');
      808    27925        %VLP_NAME (FPTN=OTPBFRBYTSIZSML,NAME='OTPBFRBYTSIZSML');
      809    27952        %VLP_NAME (FPTN=OTPBFRBYTSIZBIG,NAME='OTPBFRBYTSIZBIG');
      810    27979        %VLP_NAME (FPTN=SSNMAX,NAME='SSNMAX');
      811    28006        %VLP_NAME (FPTN=SPARE,NAME='SPARE');
      812    28033        %VLP_NAME (FPTN=IOBUF,NAME='IOBUF');
      813    28060        %VLP_NAME (FPTN=LINERRLOGBFRLMT,NAME='LINERRLOGBFRLMT');
      814    28087        %VLP_NAME (FPTN=X29MLTMR,NAME='X29MLTMR');
      815    28114        %VLP_NAME (FPTN=IMPTBLMAX,NAME='IMPTBLMAX');
      816    28141        %VLP_NAME (FPTN=BLOCK,NAME='BLOCK');
      817    28168        %VLP_NAME (FPTN=UNBLOCK,NAME='UNBLOCK');
      818    28195        %VLP_NAME (FPTN=USRPARM1,NAME='USRPARM1');
      819    28222        %VLP_NAME (FPTN=USRPARM2,NAME='USRPARM2');
      820    28249        /*%VLP_NAME (FPTN=USRPARM3,NAME='USRPARM3');
PL6.E3A0      #001=KS_TABLES_D File=KS_TABLES_D.:E05TSI                          WED 07/30/97 01:51 Page:25
      821    28250        %VLP_NAME (FPTN=USRPARM4,NAME='USRPARM4');
      822    28251        %VLP_NAME (FPTN=USRPARM5,NAME='USRPARM5');
      823    28252        %VLP_NAME (FPTN=USRPARM6,NAME='USRPARM6');
      824    28253        %VLP_NAME (FPTN=USRPARM7,NAME='USRPARM7');
      825    28254        %VLP_NAME (FPTN=USRPARM8,NAME='USRPARM8');
      826    28255        %VLP_NAME (FPTN=USRPARM9,NAME='USRPARM9');
      827    28256        %VLP_NAME (FPTN=USRPARM10,NAME='USRPARM10');*/
      828    28257
      829    28258        /* usrparm options */
      830    28259
      831    28260        %VLP_NAME ( FPTN = USRPRM1,NAME='USRPRM1');
      832    28287        %VLP_NAME ( FPTN = USRPRM2,NAME='USRPRM2');
      833    28314        %VLP_NAME ( FPTN = USRPRM3,NAME='USRPRM3');
      834    28341        %VLP_NAME ( FPTN = USRPRM4,NAME='USRPRM4');
      835    28368        %VLP_NAME ( FPTN = USRPRM5,NAME='USRPRM5');
      836    28395        %VLP_NAME ( FPTN = USRPRM6,NAME='USRPRM6');
      837    28422        %VLP_NAME ( FPTN = USRPRM7,NAME='USRPRM7');
      838    28449        %VLP_NAME ( FPTN = USRPRM8,NAME='USRPRM8');
      839    28476
      840    28477
      841    28478        /* BLOCK and UNBLOCK Options.
      842    28479        */
      843    28480        %VLP_NAME (FPTN=S50,NAME='S50');
      844    28507        %VLP_NAME (FPTN=S75,NAME='S75');
      845    28534        %VLP_NAME (FPTN=S110,NAME='S110');
      846    28561        %VLP_NAME (FPTN=S134,NAME='S134');
      847    28588        %VLP_NAME (FPTN=S150,NAME='S150');
      848    28615        %VLP_NAME (FPTN=S200,NAME='S200');
      849    28642        %VLP_NAME (FPTN=S300,NAME='S300');
      850    28669        %VLP_NAME (FPTN=S600,NAME='S600');
      851    28696        %VLP_NAME (FPTN=S1050,NAME='S1050');
      852    28723        %VLP_NAME (FPTN=S1200,NAME='S1200');
      853    28750        %VLP_NAME (FPTN=S1800,NAME='S1800');
      854    28777        %VLP_NAME (FPTN=S2000,NAME='S2000');
      855    28804        %VLP_NAME (FPTN=S2400,NAME='S2400');
      856    28831        %VLP_NAME (FPTN=S4800,NAME='S4800');
      857    28858        %VLP_NAME (FPTN=S9600,NAME='S9600');
PL6.E3A0      #001=KS_TABLES_D File=KS_TABLES_D.:E05TSI                          WED 07/30/97 01:51 Page:26
      858    28885        %VLP_NAME (FPTN=S19200,NAME='S19200');
      859    28912    1   END KS_TABLES_D;

PL6.E3A0      #001=KS_TABLES_D File=KS_TABLES_D.:E05TSI                          WED 07/30/97 01:51 Page:27
--  Include file information  --

   CP_6_C.:E05TOU  is referenced.
   CP_6.:E05TOU  cannot be made into a system file and is referenced.
   GI_BOOT_C.:E05TOU  is referenced.
   KL_CONTROL_C.:E05TOU  is referenced.
   KS_MACRO_M.:E05TOU  is referenced.
   KS_SUBS_C.:E05TOU  is referenced.
      No diagnostics issued in procedure KS_TABLES_D.

   No code generated for procedure KS_TABLES_D .
   Procedure KS_TABLES_D is declared NOAUTO and requires 1378 words of local(STATIC) storage.

    No errors detected in file KS_TABLES_D.:E05TSI    .

PL6.E3A0      #001=KS_TABLES_D File=KS_TABLES_D.:E05TSI                          WED 07/30/97 01:51 Page:28

 Object Unit name= KS_TABLES_D                                File name= KS_TABLES_D.:E05TOU
 UTS= JUL 30 '97 01:51:30.00 WED                              Compiler= PL-6/E31         Sev=      00
 SharedLib= :SHARED_SYSTEM                                    Alt SharedLib=


    ****  Control sections  ****

 Sect   Type Bound  Init  Size OctSiz  Section name(segment info)
    0   Data  even  none  1378   2542  KS_TABLES_D
    1   DCB   even  none     0      0  M$UC
    2   Proc  even  none     0      0  KS_TABLES_D

    ****  Entry defs  ****

                              Check   Calling
                             calling  sequence
  Sect OctLoc Primary Altret sequence   type   Parms  Name
     2      0   yes            yes     ~proc       0  KS_TABLES_D

  ****  Data defs  ****

 Sect OctLoc  Name                           Sect OctLoc  Name
    0      1  KS_TBL                             0     13  KS_HAND_INFO
    0     63  KS_BOOT_TBL                        0    164  KS_LCP6_TBL
    0    355  KS_HNDLR_TBL                       0    562  KS_ASYNC_TBL
    0    757  KS_BLOCK_TBL                       0   1060  KS_UNBLOCK_TBL
    0   1161  KS_USRPARM1_TBL                    0   1222  KS_USRPARM2_TBL
    0   1263  KS_BISYNC_TBL                      0   1434  KS_COUPLER_TBL
    0   1555  KS_HDLCX25_TBL                     0   1752  KS_NODEADMIN_TBL
    0   2103  KS_UNITREC_TBL

  ****  Data refs  ****

  Flags:  r = read only, s = secondary
Flgs Name                             Flgs Name                             Flgs Name
     M$UC
PL6.E3A0      #001=KS_TABLES_D File=KS_TABLES_D.:E05TSI                          WED 07/30/97 01:51 Page:29

  ****  Segment refs  ****

  Flags:  r = read only, s = secondary
Flgs Name                             Flgs Name                             Flgs Name
     NULLSID                               ISSID
PL6.E3A0      #001=KS_TABLES_D File=KS_TABLES_D.:E05TSI                          WED 07/30/97 01:51 Page:30

        1        1        /*M* KS_TABLES_D - Constant tables for NETCON.      */
        2        2        /*T***********************************************************/
        3        3        /*T*                                                         */
        4        4        /*T* Copyright (c) Bull HN Information Systems Inc., 1997    */
        5        5        /*T*                                                         */
        6        6        /*T***********************************************************/
        7        7        /*X* MEC,MOC,EXM=20,CLM=30,CRM=100    */
        8        8
        9        9
       10       10                            /*F*  NAME: KS_TABLES_D
       11       11
       12       12                            This module contains the tables that define the
       13       13                            parameters and the defaults for those parameters
       14       14                            that may be specified at boot-time (BOOTPARAMS),
       15       15                            that are controlable (LCP6PARAMS), and that apply
       16       16                            to the standard set of LCP-6 handlers (HANDPARAMS).
       17       17
       18       18                            Note that these tables are not included in KS_DATA_D
       19       19                            as they are not in acceptable format for DTOR.
       20       20                            */
       21       21
       22       22
       23       23        KS_TABLES_D: PROC NOAUTO;
       24       24
       25       25        %INCLUDE KS_SUBS_C;
       26      268        %INCLUDE KS_MACRO_M;
       27      465        %INCLUDE KL_CONTROL_C;
       28      845        %INCLUDE GI_BOOT_C;
       29      956        %INCLUDE CP_6;
       30     6515
       31     6516                            /*F*  NAME: KS_TBL
       32     6517
       33     6518                            This table contains the addresses of all the
       34     6519                            various parameter tables.
       35     6520                            */
       36     6521
       37     6522    1   DCL KS_TBL(0:9) PTR STATIC SYMDEF INIT(ADDR(NIL),
PL6.E3A0      #001=KS_TABLES_D File=KS_TABLES_D.:E05TSI                          WED 07/30/97 01:51 Page:31
       38     6523    1                     ADDR(KS_BOOT_TBL),
       39     6524    1                     ADDR(KS_LCP6_TBL),
       40     6525    1                     ADDR(KS_HNDLR_TBL),
       41     6526    1                     ADDR(KS_ASYNC_TBL),
       42     6527    1                     ADDR(KS_BISYNC_TBL),
       43     6528    1                     ADDR(KS_COUPLER_TBL),
       44     6529    1                     ADDR(KS_HDLCX25_TBL),
       45     6530    1                     ADDR(KS_NODEADMIN_TBL),
       46     6531    1                     ADDR(KS_UNITREC_TBL));
       47     6532
       48     6533
       49     6534
       50     6535
       51     6536
       52     6537                            /*F*  NAME: KS_HAND_INFO
       53     6538
       54     6539                            This table contains the names of the set of system defined
       55     6540                          handlers and the address of the parameter table for each handler.
       56     6541
       57     6542                            Entry zero contains a name set to all blanks and the address
       58     6543                            of the default parameter table.
       59     6544                            */
       60     6545
       61     6546    1   DCL 1 KS_HAND_INFO STATIC SYMDEF ALIGNED,
       62     6547        %KS$HAND_INFO (TEXTNAME=' ', TYPE=%KS_HAND_USER,
       63     6548                       PARAMS=KS_HNDLR_TBL,SIZ=%KL_HNDLRPARM_HI);
       64     6587        %KS$HAND_INFO (TEXTNAME='ASYNC', TYPE=%KS_HAND_ASYNC,
       65     6588                       PARAMS=KS_ASYNC_TBL,SIZ=%KL_ASYNC_HI);
       66     6627        %KS$HAND_INFO (TEXTNAME='BISYNC', TYPE=%KS_HAND_BISYNC,
       67     6628                       PARAMS=KS_BISYNC_TBL,SIZ=%KL_BISYNC_HI);
       68     6667        %KS$HAND_INFO (TEXTNAME='COUPLER', TYPE=%KS_HAND_COUPLER,
       69     6668                       PARAMS=KS_COUPLER_TBL,SIZ=%KL_FEI_HI);
       70     6707        %KS$HAND_INFO (TEXTNAME='HDLCX25', TYPE=%KS_HAND_HDLCX25,
       71     6708                       PARAMS=KS_HDLCX25_TBL,SIZ=%KL_HDLCX25_HI);
       72     6747        %KS$HAND_INFO (TEXTNAME='NODEADMN', TYPE=%KS_HAND_NODEADMIN,
       73     6748                       PARAMS=KS_NODEADMIN_TBL,SIZ=%KL_NA_HI);
       74     6787        %KS$HAND_INFO (TEXTNAME='UNITREC', TYPE=%KS_HAND_UNITREC,
PL6.E3A0      #001=KS_TABLES_D File=KS_TABLES_D.:E05TSI                          WED 07/30/97 01:51 Page:32
       75     6788                       PARAMS=KS_UNITREC_TBL,SIZ=%KL_HNDLRPARM_STD_HI);
       76     6827        %KS$HAND_INFO(TEXTNAME=' ',TYPE=%KS_HAND_USER,
       77     6828                      PARAMS=KS_HNDLR_TBL,SIZ=%KL_HNDLRPARM_HI,LAST=YES);
       78     6867
       79     6868
       80     6869
       81     6870
       82     6871                            /*F*  NAME: KS_BOOT_TBL
       83     6872
       84     6873                            This table contains the information required
       85     6874                            for BOOTPARAMS.
       86     6875                            */
       87     6876
       88     6877    1   DCL 1 KS_BOOT_TBL STATIC SYMDEF ALIGNED,
       89     6878        %KS$PARAM (NAME=LDCT,TEXTNAME=LDCT,
       90     6879                DEFAULT=%GI_LDCT#);
       91     6949        %KS$PARAM (NAME=IOP,TEXTNAME=IOP,
       92     6950                DEFAULT=%GI_IOP#);
       93     7020        %KS$PARAM (NAME=HMI,TEXTNAME=HMI,
       94     7021                DEFAULT=%GI_HMI#);
       95     7091        %KS$PARAM (NAME=APESSN,TEXTNAME=APESSN,
       96     7092               DEFAULT=%GI_APESSN#);
       97     7162        %KS$PARAM (NAME=TCTX,TEXTNAME=TCTX,MIN=1,
       98     7163               DEFAULT=%GI_TCTX#);
       99     7233        %KS$PARAM (NAME=CBUFFER,TEXTNAME=CBUFFER,MIN=1,MAX=256,
      100     7234               DEFAULT=%GI_CBUFFER#);
      101     7304        %KS$PARAM (NAME=SFILE,TEXTNAME=SFILE,MIN=2,MAX=255,
      102     7305               DEFAULT=%GI_SPROC#);
      103     7375        %KS$PARAM (NAME=MUIS,TEXTNAME=MUIS,
      104     7376               DEFAULT=%GI_MUIS#);
      105     7446        %KS$PARAM (NAME=NSHUF,TEXTNAME=NSHUF,
      106     7447               DEFAULT=%GI_NSHUF#);
      107     7517        %KS$PARAM (NAME=SPARE2,TEXTNAME=SPARE);
      108     7587        %KS$PARAM (NAME=MAXLINKS,TEXTNAME=MAXLINKS,MIN=1,
      109     7588               DEFAULT=%GI_LINKS#);
      110     7658        %KS$PARAM (NAME=DEVICES,TEXTNAME=DEVICES,
      111     7659               DEFAULT=%GI_DEVICES#);
PL6.E3A0      #001=KS_TABLES_D File=KS_TABLES_D.:E05TSI                          WED 07/30/97 01:51 Page:33
      112     7729        %KS$PARAM (NAME=ACCTS,TEXTNAME=ACCTS,MIN=1,
      113     7730               DEFAULT=%GI_ACCTS#);
      114     7800        %KS$PARAM (NAME=PCHANS,TEXTNAME=PCHANS,DEFAULT=%GI_PCHANS#);
      115     7870        %KS$PARAM (NAME=OSIROUTES,TEXTNAME=OSIROUTES,DEFAULT=%GI_OSIROUTES#);
      116     7940        %KS$PARAM (NAME=DPS8000FLG,TEXTNAME=DPS8000FLG);
      117     8010    1           2 SZ UBIN WORD INIT(%GI_BOOT_HI);
      118     8011
      119     8012
      120     8013
      121     8014
      122     8015                            /*F*  NAME: KS_LCP6_TBL
      123     8016
      124     8017                            This table contains the information required
      125     8018                            for the LCP6PARAMS.
      126     8019                            */
      127     8020    1   DCL 1 KS_LCP6_TBL STATIC SYMDEF ALIGNED,
      128     8021        %KS$PARAM (NAME=QMIN,TEXTNAME=QMIN,MIN=1,
      129     8022                       DEFAULT=%GI_QMIN#);
      130     8092        %KS$PARAM (NAME=QUAN,TEXTNAME=QUAN,MIN=5,
      131     8093                       DEFAULT=%GI_QUAN#);
      132     8163        %KS$PARAM (NAME=XCONTIME,TEXTNAME=XCONTIME,MIN=5,
      133     8164                       DEFAULT=%GI_XCONTIME#);
      134     8234        %KS$PARAM (NAME=MUSR,TEXTNAME=MUSR,
      135     8235                       DEFAULT=%GI_MUSR#);
      136     8305        %KS$PARAM (NAME=MUSR_USER,TEXTNAME=MUSR_USER,MIN=3,
      137     8306                       DEFAULT=%GI_MUSR_USER#);
      138     8376        %KS$PARAM (NAME=MUSR_CG,TEXTNAME=MUSR_CG,
      139     8377                       DEFAULT=%GI_MUSR_CG#);
      140     8447        %KS$PARAM (NAME=MUSR_HAND,TEXTNAME=MUSR_HAND,
      141     8448                       DEFAULT=%GI_MUSR_HAND#);
      142     8518        %KS$PARAM (NAME=MUSR_GHST,TEXTNAME=MUSR_GHST,
      143     8519                       DEFAULT=%GI_MUSR_GHST#);
      144     8589        %KS$PARAM (NAME=MMEM,TEXTNAME=MMEM,
      145     8590                       DEFAULT=%GI_MMEM#);
      146     8660        %KS$PARAM (NAME=MMEM_USER,TEXTNAME=MMEM_USER,
      147     8661                       DEFAULT=%GI_MMEM_USER#);
      148     8731        %KS$PARAM (NAME=MMEM_CG,TEXTNAME=MMEM_CG,
PL6.E3A0      #001=KS_TABLES_D File=KS_TABLES_D.:E05TSI                          WED 07/30/97 01:51 Page:34
      149     8732                       DEFAULT=%GI_MMEM_CG#);
      150     8802        %KS$PARAM (NAME=MMEM_HAND,TEXTNAME=MMEM_HAND,
      151     8803                       DEFAULT=%GI_MMEM_HAND#);
      152     8873        %KS$PARAM (NAME=MMEM_GHST,TEXTNAME=MMEM_GHST,
      153     8874                       DEFAULT=%GI_MMEM_GHST#);
      154     8944        %KS$PARAM (NAME=DUMP,TEXTNAME=DUMP,DEFAULT=%GI_DUMP#,MAX=1);
      155     9014        %KS$PARAM (NAME=KEEPDELTA,TEXTNAME=KEEPDELTA,DEFAULT=%GI_KEEPDELTA#,
      156     9015                       MAX=1);
      157     9085        %KS$PARAM (NAME=SFILE_DATA,TEXTNAME=SFILE_DATA,DEFAULT=%GI_SFILEDATA#);
      158     9155        %KS$PARAM (NAME=SPARE1,TEXTNAME=SPARE,DEFAULT=0);
      159     9225        %KS$PARAM (NAME=SPARE2,TEXTNAME=SPARE,DEFAULT=0);
      160     9295        %KS$PARAM (NAME=SPARE3,TEXTNAME=SPARE,DEFAULT=0);
      161     9365        %KS$PARAM (NAME=SPARE4,TEXTNAME=SPARE,DEFAULT=0);
      162     9435        %KS$PARAM (NAME=CUSR,TEXTNAME=CUSR,DISPONLY=YES);
      163     9505        %KS$PARAM (NAME=CUSR_USER,TEXTNAME=CUSR_USER,DISPONLY=YES);
      164     9575        %KS$PARAM (NAME=CUSR_CG,TEXTNAME=CUSR_CG,DISPONLY=YES);
      165     9645        %KS$PARAM (NAME=CUSR_HAND,TEXTNAME=CUSR_HAND,DISPONLY=YES);
      166     9715        %KS$PARAM (NAME=CUSR_GHST,TEXTNAME=CUSR_GHST,DISPONLY=YES);
      167     9785        %KS$PARAM (NAME=CMEM,TEXTNAME=CMEM,DISPONLY=YES);
      168     9855        %KS$PARAM (NAME=CMEM_USER,TEXTNAME=CMEM_USER,DISPONLY=YES);
      169     9925        %KS$PARAM (NAME=CMEM_CG,TEXTNAME=CMEM_CG,DISPONLY=YES);
      170     9995        %KS$PARAM (NAME=CMEM_HAND,TEXTNAME=CMEM_HAND,DISPONLY=YES);
      171    10065        %KS$PARAM (NAME=CMEM_GHST,TEXTNAME=CMEM_GHST,DISPONLY=YES);
      172    10135    1           2 SZ UBIN WORD INIT(%GI_CNTL_BOOTHI);
      173    10136
      174    10137
      175    10138
      176    10139
      177    10140
      178    10141                            /*F*  NAME: KS_HNDLR_TBL
      179    10142
      180    10143                            This table contains the names, minimum and maximum acceptable
      181    10144                            values, and special processing flags for the standard set of
      182    10145                            handler parameters.  The default values for each of
      183    10146                            the parameters will be in the KS_HND_DFLT table or
      184    10147                            one of the KS_handler_name_DFLT tables.
      185    10148
PL6.E3A0      #001=KS_TABLES_D File=KS_TABLES_D.:E05TSI                          WED 07/30/97 01:51 Page:35
      186    10149                            Also included in this table are entries for the parameters
      187    10150                            unique to NODEADMIN, COUPLER, and ASYNC.
      188    10151                            */
      189    10152
      190    10153    1   DCL 1 KS_HNDLR_TBL STATIC SYMDEF ALIGNED,
      191    10154        %KS$PARAM (NAME=INTLVL,TEXTNAME=INTLVL,MIN=12,MAX=60,
      192    10155               DEFAULT=%KL_DFLT_INTLVL);
      193    10225        %KS$PARAM (NAME=MEM,TEXTNAME=MEM,MAX=2304,
      194    10226             DEFAULT=%KL_DFLT_MEM);
      195    10296        %KS$PARAM (NAME=IOMEM,TEXTNAME=IOMEM,ASYNC=NO,BISYNC=NO,COUPLER=NO,NODEADMIN=NO,
             10296            UNITREC=NO,MAX=2048,
      196    10297               DEFAULT=%KL_DFLT_IOMEM);
      197    10367        %KS$PARAM (NAME=RES,TEXTNAME=RES,
      198    10368             DEFAULT=%KL_DFLT_RES);
      199    10438        %KS$PARAM (NAME=ATTR,TEXTNAME=ATTR,
      200    10439             DEFAULT=%KL_DFLT_ATTR);
      201    10509        %KS$PARAM (NAME=TYPAHDBFRLMT,TEXTNAME=TYPAHDBFRLMT,MIN=1,MAX=254,
      202    10510                DEFAULT=%KL_DFLT_TYPAHDBFRLMT);
      203    10580        %KS$PARAM (NAME=LINERRLOGLMT,TEXTNAME=LINERRLOGLMT,MAX=255,
      204    10581                DEFAULT=%KL_DFLT_LINERRLOGLMT);
      205    10651        %KS$PARAM (NAME=LINERRDSCLMT,TEXTNAME=LINERRDSCLMT,MAX=255,
      206    10652                DEFAULT=%KL_DFLT_LINERRDSCLMT);
      207    10722        %KS$PARAM (NAME=TRC,TEXTNAME=TRC,DEFAULT=%KL_DFLT_TRC,NODEADMIN=NO,COUPLER=NO,
             10722            UNITREC=NO,ASYNC=NO,HDLCX25=NO,BISYNC=NO);
      208    10792        %KS$PARAM (NAME=VDHTRC,TEXTNAME=VDHTRC,
      209    10793                DEFAULT=%KL_DFLT_VDHTRC);
      210    10863        %KS$PARAM (NAME=ERRSND,TEXTNAME=ERRSND,MAX=7,
      211    10864                DEFAULT=%KL_DFLT_ERRSND);
      212    10934        %KS$PARAM (NAME=TRCBFR,TEXTNAME=TRCBFR,NODEADMIN=NO,COUPLER=NO,BISYNC=NO,ASYNC=NO,
             10934            HDLCX25=NO,UNITREC=NO,
      213    10935                DEFAULT=%KL_DFLT_TRCBFR);
      214    11005        %KS$PARAM (NAME=RCVCQBYTSIZ,TEXTNAME=RCVCQBYTSIZ,MAX=63500,MIN=2100,
      215    11006                DEFAULT=%KL_DFLT_RCVCQBYTSIZ);
      216    11076        %KS$PARAM (NAME=SNDCQBYTSIZ,TEXTNAME=SNDCQBYTSIZ,MAX=63500,MIN=2100,
      217    11077                DEFAULT=%KL_DFLT_SNDCQBYTSIZ);
      218    11147        %KS$PARAM (NAME=MMRINTCHC,TEXTNAME=MMRINTCHC,
      219    11148                DEFAULT=%KL_DFLT_MMRINTCHC);
PL6.E3A0      #001=KS_TABLES_D File=KS_TABLES_D.:E05TSI                          WED 07/30/97 01:51 Page:36
      220    11218        %KS$PARAM (NAME=IOBUF,TEXTNAME=IOBUF,DEFAULT = %KL_HDLCX25_IOBUF, NODEADMIN=NO,
             11218            COUPLER=NO,BISYNC=NO,UNITREC=NO,ASYNC=NO,MIN=1,MAX=14);
      221    11288        %KS$PARAM (NAME=LINERRLOGBFRLMT,TEXTNAME=LINERRLOGBFRLMT,DEFAULT =
             11288            %KL_HDLCX25_LINERRLOGBFRLMT,MIN=0,MAX=65535,
      222    11289                   NODEADMIN=NO,COUPLER=NO,BISYNC=NO,UNITREC=NO,ASYNC=NO);
      223    11359       %KS$PARAM (NAME=X29MLTMR,TEXTNAME=X29MLTMR,DEFAULT = %KL_HDLCX25_X29MLTMR,MIN=0,MAX=
             11359            255,
      224    11360                   NODEADMIN=NO,COUPLER=NO,BISYNC=NO,UNITREC=NO,ASYNC=NO);
      225    11430        %KS$PARAM (NAME=MAXICQTIME,TEXTNAME=MAXICQTIME,MIN=1,MAX=120,
      226    11431                   DEFAULT=%KL_DFLT_MAXICQTIME,NODEADMIN=NO,ASYNC=NO,BISYNC=NO,UNITREC=NO,
             11431                       HDLCX25=NO);
      227    11501        %KS$PARAM (NAME=OCQDBLKSIZ,TEXTNAME=OCQDBLKSIZ,
      228    11502                 DEFAULT=%KL_DFLT_OCQDBLKSIZ,NODEADMIN=NO,ASYNC=NO,BISYNC=NO,UNITREC=NO,
             11502                     HDLCX25=NO);
      229    11572        %KS$PARAM (NAME=LGNRTRYNUM,TEXTNAME=LGNRTRYNUM,MIN=0,MAX=255,
      230    11573                 DEFAULT=%KL_DFLT_LGNRTRYNUM,USER=NO,COUPLER=NO,ASYNC=NO,BISYNC=NO,UNITREC=
             11573                     NO,HDLCX25=NO);
      231    11643        %KS$PARAM (NAME=HOPCOST,TEXTNAME=HOPCOST,MIN=0,MAX=255,
      232    11644                 DEFAULT=%KL_DFLT_HOPCOST,USER=NO,COUPLER=NO,ASYNC=NO,BISYNC=NO,UNITREC=NO,
             11644                     HDLCX25=NO);
      233    11714        %KS$PARAM (NAME=OTPBFRBYTSIZSML,TEXTNAME=OTPBFRBYTSIZSML,MIN=32,MAX=1024,
      234    11715                DEFAULT=%KL_DFLT_OTPBFRBYTSIZSML,NODEADMIN=NO,COUPLER=NO,BISYNC=NO,UNITREC=
             11715                     NO,HDLCX25=NO);
      235    11785        %KS$PARAM (NAME=OTPBFRBYTSIZBIG,TEXTNAME=OTPBFRBYTSIZBIG,MIN=32,MAX=1024,
      236    11786                DEFAULT=%KL_DFLT_OTPBFRBYTSIZBIG,NODEADMIN=NO,COUPLER=NO,BISYNC=NO,UNITREC=
             11786                    NO,HDLCX25=NO);
      237    11856        %KS$PARAM (NAME=SSNMAX,TEXTNAME=SSNMAX,MIN=1,MAX=256,
      238    11857               DEFAULT=%KL_ASYNC_DFLT_SSNMAX,NODEADMIN=NO,COUPLER=NO,BISYNC=YES,UNITREC=NO,
             11857                    HDLCX25=YES);
      239    11927        %KS$PARAM (NAME=IMPTBLMAX,TEXTNAME=IMPTBLMAX,MAX=32767,DEFAULT=%KL_DFLT_IMPTBLMAX,
             11927            NODEADMIN=NO,COUPLER=NO,UNITREC=NO);
      240    11997        %KS$PARAM (NAME=SPARE1,TEXTNAME=SPARE,NODEADMIN=NO,COUPLER=NO,BISYNC=NO,UNITREC=NO,
             11997            HDLCX25=NO,ASYNC=NO);
      241    12067        %KS$PARAM (NAME=SPARE2,TEXTNAME=SPARE,NODEADMIN=NO,COUPLER=NO,BISYNC=NO,UNITREC=NO,
             12067            HDLCX25=NO,ASYNC=NO);
      242    12137        %KS$PARAM (NAME=SPARE3,TEXTNAME=SPARE,NODEADMIN=NO,COUPLER=NO,BISYNC=NO,UNITREC=NO,
             12137            HDLCX25=NO,ASYNC=NO);
PL6.E3A0      #001=KS_TABLES_D File=KS_TABLES_D.:E05TSI                          WED 07/30/97 01:51 Page:37
      243    12207        %KS$PARAM (NAME=BLOCK,TEXTNAME=BLOCK,SPECIAL=YES,SPCL_TBL=KS_BLOCK_TBL,ARRAY_SZ =
             12207            %KL_BLOCK_HI,
      244    12208               DEFAULT=%KL_DFLT_BLOCK,INDX = YES,NODEADMIN=NO,COUPLER=NO,BISYNC=NO,UNITREC=
             12208                   NO);
      245    12278        %KS$PARAM (NAME=UNBLOCK,TEXTNAME=UNBLOCK,SPECIAL=YES,SPCL_TBL=KS_BLOCK_TBL,ARRAY_SZ
             12278            = %KL_UNBLOCK_HI,
      246    12279                 DEFAULT=%KL_DFLT_UNBLOCK,INDX = YES,NODEADMIN=NO,COUPLER=NO,BISYNC=NO,
             12279                     UNITREC=NO);
      247    12349        %KS$PARAM (NAME=USRPARM1,TEXTNAME=USRPARM1,SPECIAL=YES,INDX=YES,SPCL_TBL=
             12349            KS_USRPARM1_TBL,ARRAY_SZ=%KL_USRPARM1_HI,
      248    12350              DEFAULT=%KL_DFLT_USRPARM1,NODEADMIN=NO,COUPLER=NO,BISYNC=NO,UNITREC=NO,ASYNC=
             12350                  NO,HDLCX25=NO);
      249    12420        %KS$PARAM (NAME=USRPARM2,TEXTNAME=USRPARM2,SPECIAL=YES,INDX=YES,SPCL_TBL=
             12420            KS_USRPARM2_TBL,ARRAY_SZ=%KL_USRPARM2_HI,
      250    12421              DEFAULT=%KL_DFLT_USRPARM2,NODEADMIN=NO,COUPLER=NO,BISYNC=NO,UNITREC=NO,ASYNC=
             12421                  NO,HDLCX25=NO);
      251    12491        /*%KS$PARAM (NAME=USRPARM3,TEXTNAME=USRPARM3,
      252    12492              DEFAULT=%KL_DFLT_USRPARM3);
      253    12493        %KS$PARAM (NAME=USRPARM4,TEXTNAME=USRPARM4,
      254    12494              DEFAULT=%KL_DFLT_USRPARM4);
      255    12495        %KS$PARAM (NAME=USRPARM5,TEXTNAME=USRPARM5,
      256    12496              DEFAULT=%KL_DFLT_USRPARM5);
      257    12497        %KS$PARAM (NAME=USRPARM6,TEXTNAME=USRPARM6,
      258    12498              DEFAULT=%KL_DFLT_USRPARM6);
      259    12499        %KS$PARAM (NAME=USRPARM7,TEXTNAME=USRPARM7,
      260    12500              DEFAULT=%KL_DFLT_USRPARM7);
      261    12501        %KS$PARAM (NAME=USRPARM8,TEXTNAME=USRPARM8,
      262    12502              DEFAULT=%KL_DFLT_USRPARM8);
      263    12503        %KS$PARAM (NAME=USRPARM9,TEXTNAME=USRPARM9,
      264    12504              DEFAULT=%KL_DFLT_USRPARM9);
      265    12505        %KS$PARAM (NAME=USRPARM10,TEXTNAME=USRPARM10,
      266    12506              DEFAULT=%KL_DFLT_USRPARM10);*/
      267    12507    1           2 SZ UBIN WORD INIT(%KL_HNDLRPARM_HI);
      268    12508
      269    12509
      270    12510                            /*F*  NAME: KS_ASYNC_TBL
      271    12511
PL6.E3A0      #001=KS_TABLES_D File=KS_TABLES_D.:E05TSI                          WED 07/30/97 01:51 Page:38
      272    12512                            This table contains the defaults for the handler
      273    12513                            parameters for ASYNC.
      274    12514                            */
      275    12515    1   DCL 1 KS_ASYNC_TBL STATIC SYMDEF ALIGNED,
      276    12516        %KS$PARAM (NAME=INTLVL,TEXTNAME=INTLVL,MIN=12,MAX=60,
      277    12517                    DEFAULT=%KL_ASYNC_INTLVL);
      278    12587        %KS$PARAM (NAME=MEM,TEXTNAME=MEM,MAX=2304,
      279    12588                    DEFAULT=%KL_ASYNC_MEM);
      280    12658        %KS$PARAM (NAME=IOMEM,TEXTNAME=IOMEM,ASYNC=NO,BISYNC=NO,COUPLER=NO,NODEADMIN=NO,
             12658            UNITREC=NO,
      281    12659                    DEFAULT=%KL_DFLT_IOMEM);
      282    12729        %KS$PARAM (NAME=RES,TEXTNAME=RES,
      283    12730                    DEFAULT=%KL_ASYNC_RES);
      284    12800        %KS$PARAM (NAME=ATTR,TEXTNAME=ATTR,
      285    12801                    DEFAULT=%KL_ASYNC_ATTR);
      286    12871        %KS$PARAM (NAME=TYPAHDBFRLMT,TEXTNAME=TYPAHDBFRLMT,MIN=1,MAX=254,
      287    12872                    DEFAULT=%KL_DFLT_TYPAHDBFRLMT);
      288    12942        %KS$PARAM (NAME=LINERRLOGLMT,TEXTNAME=LINERRLOGLMT,MAX=255,
      289    12943                    DEFAULT=%KL_DFLT_LINERRLOGLMT);
      290    13013        %KS$PARAM (NAME=LINERRDSCLMT,TEXTNAME=LINERRDSCLMT,MAX=255,
      291    13014                    DEFAULT=%KL_DFLT_LINERRDSCLMT);
      292    13084        %KS$PARAM (NAME=TRC,TEXTNAME=TRC,DEFAULT=%KL_DFLT_TRC,NODEADMIN=NO,COUPLER=NO,
             13084            UNITREC=NO,ASYNC=NO,HDLCX25=NO,BISYNC=NO);
      293    13154        %KS$PARAM (NAME=VDHTRC,TEXTNAME=VDHTRC,
      294    13155                    DEFAULT=%KL_ASYNC_VDHTRC);
      295    13225        %KS$PARAM (NAME=ERRSND,TEXTNAME=ERRSND,MAX=7,
      296    13226                    DEFAULT=%KL_DFLT_ERRSND);
      297    13296        %KS$PARAM (NAME=TRCBFR,TEXTNAME=TRCBFR,NODEADMIN=NO,COUPLER=NO,BISYNC=NO,ASYNC=NO,
             13296            HDLCX25=NO,UNITREC=NO,
      298    13297                    DEFAULT=%KL_DFLT_TRCBFR);
      299    13367        %KS$PARAM (NAME=RCVCQBYTSIZ,TEXTNAME=RCVCQBYTSIZ,MAX=63500,MIN=2100,
      300    13368                    DEFAULT=%KL_ASYNC_RCVCQBYTSIZ);
      301    13438        %KS$PARAM (NAME=SNDCQBYTSIZ,TEXTNAME=SNDCQBYTSIZ,MAX=63500,MIN=2100,
      302    13439                    DEFAULT=%KL_ASYNC_SNDCQBYTSIZ);
      303    13509        %KS$PARAM (NAME=MMRINTCHC,TEXTNAME=MMRINTCHC,
      304    13510                    DEFAULT=%KL_DFLT_MMRINTCHC);
      305    13580        %KS$PARAM (NAME=IOBUF,TEXTNAME=IOBUF,DEFAULT = %KL_HDLCX25_IOBUF, NODEADMIN=NO,
PL6.E3A0      #001=KS_TABLES_D File=KS_TABLES_D.:E05TSI                          WED 07/30/97 01:51 Page:39
             13580            COUPLER=NO,BISYNC=NO,UNITREC=NO,ASYNC=NO,MIN=1,MAX=14);
      306    13650        %KS$PARAM (NAME=LINERRLOGBFRLMT,TEXTNAME=LINERRLOGBFRLMT,DEFAULT =
             13650            %KL_HDLCX25_LINERRLOGBFRLMT,MIN=0,MAX=65535,
      307    13651                   NODEADMIN=NO,COUPLER=NO,BISYNC=NO,UNITREC=NO,ASYNC=NO);
      308    13721       %KS$PARAM (NAME=X29MLTMR,TEXTNAME=X29MLTMR,DEFAULT = %KL_HDLCX25_X29MLTMR,MIN=0,MAX=
             13721            255,
      309    13722                   NODEADMIN=NO,COUPLER=NO,BISYNC=NO,UNITREC=NO,ASYNC=NO);
      310    13792        %KS$PARAM (NAME=MAXICQTIME,TEXTNAME=MAXICQTIME,MIN=1,MAX=120,
      311    13793                    DEFAULT=%KL_DFLT_MAXICQTIME);
      312    13863        %KS$PARAM (NAME=OCQDBLKSIZ,TEXTNAME=OCQDBLKSIZ,MIN=1024,MAX=32768,
      313    13864                    DEFAULT=%KL_DFLT_OCQDBLKSIZ);
      314    13934        %KS$PARAM (NAME=LGNRTRYNUM,TEXTNAME=LGNRTRYNUM,MIN=0,MAX=255,
      315    13935                    DEFAULT=%KL_DFLT_LGNRTRYNUM);
      316    14005        %KS$PARAM (NAME=HOPCOST,TEXTNAME=HOPCOST,MIN=0,MAX=255,
      317    14006                    DEFAULT=%KL_DFLT_HOPCOST);
      318    14076        %KS$PARAM (NAME=OTPBFRBYTSIZSML,TEXTNAME=OTPBFRBYTSIZSML,MIN=32,MAX=1024,
      319    14077                    DEFAULT=%KL_DFLT_OTPBFRBYTSIZSML);
      320    14147        %KS$PARAM (NAME=OTPBFRBYTSIZBIG,TEXTNAME=OTPBFRBYTSIZBIG,MIN=32,MAX=1024,
      321    14148                    DEFAULT=%KL_DFLT_OTPBFRBYTSIZBIG);
      322    14218        %KS$PARAM (NAME=SSNMAX,TEXTNAME=SSNMAX,MIN=1,MAX=256,
      323    14219                    DEFAULT=%KL_ASYNC_DFLT_SSNMAX);
      324    14289        %KS$PARAM (NAME=IMPTBLMAX,TEXTNAME=IMPTBLMAX,MAX=32767,DEFAULT=%KL_DFLT_IMPTBLMAX,
             14289            NODEADMIN=NO,COUPLER=NO,UNITREC=NO);
      325    14359        %KS$PARAM (NAME=SPARE1,TEXTNAME=SPARE,NODEADMIN=NO,COUPLER=NO,BISYNC=NO,UNITREC=NO,
             14359            HDLCX25=NO,ASYNC=NO);
      326    14429        %KS$PARAM (NAME=SPARE2,TEXTNAME=SPARE,NODEADMIN=NO,COUPLER=NO,BISYNC=NO,UNITREC=NO,
             14429            HDLCX25=NO,ASYNC=NO);
      327    14499        %KS$PARAM (NAME=SPARE3,TEXTNAME=SPARE,NODEADMIN=NO,COUPLER=NO,BISYNC=NO,UNITREC=NO,
             14499            HDLCX25=NO,ASYNC=NO);
      328    14569        %KS$PARAM (NAME=BLOCK,TEXTNAME=BLOCK,SPECIAL=YES,ARRAY_SZ=%KL_BLOCK_HI,
      329    14570                    INDX=YES,SPCL_TBL=KS_BLOCK_TBL);
      330    14640        %KS$PARAM (NAME=UNBLOCK,TEXTNAME=UNBLOCK,SPECIAL=YES,ARRAY_SZ=%KL_UNBLOCK_HI,
      331    14641                    INDX=YES,SPCL_TBL=KS_UNBLOCK_TBL);
      332    14711    1           2 SZ UBIN WORD INIT(%KL_ASYNC_HI);
      333    14712
      334    14713                            /*F*  NAME: KS_BLOCK_TBL
      335    14714
PL6.E3A0      #001=KS_TABLES_D File=KS_TABLES_D.:E05TSI                          WED 07/30/97 01:51 Page:40
      336    14715                            This table contains the names, minimum and
      337    14716                            maximum values and the default value for the
      338    14717                            options of the BLOCK parameter.
      339    14718                            */
      340    14719
      341    14720    1   DCL 1 KS_BLOCK_TBL STATIC SYMDEF ALIGNED,
      342    14721        %KS$PARAM (NAME=S50,TEXTNAME=S50,MIN=1,
      343    14722             DEFAULT=%KL_BLOCK_50);
      344    14792        %KS$PARAM (NAME=S75,TEXTNAME=S75,MIN=1,
      345    14793             DEFAULT=%KL_BLOCK_75);
      346    14863        %KS$PARAM (NAME=S110,TEXTNAME=S110,MIN=1,
      347    14864             DEFAULT=%KL_BLOCK_110);
      348    14934        %KS$PARAM (NAME=S134,TEXTNAME=S134,MIN=1,
      349    14935             DEFAULT=%KL_BLOCK_134);
      350    15005        %KS$PARAM (NAME=S150,TEXTNAME=S150,MIN=1,
      351    15006             DEFAULT=%KL_BLOCK_150);
      352    15076        %KS$PARAM (NAME=S200,TEXTNAME=S200,MIN=1,
      353    15077             DEFAULT=%KL_BLOCK_200);
      354    15147        %KS$PARAM (NAME=S300,TEXTNAME=S300,MIN=1,
      355    15148             DEFAULT=%KL_BLOCK_300);
      356    15218        %KS$PARAM (NAME=S600,TEXTNAME=S600,MIN=1,
      357    15219             DEFAULT=%KL_BLOCK_600);
      358    15289        %KS$PARAM (NAME=S1050,TEXTNAME=S1050,MIN=1,
      359    15290             DEFAULT=%KL_BLOCK_1050);
      360    15360        %KS$PARAM (NAME=S1200,TEXTNAME=S1200,MIN=1,
      361    15361             DEFAULT=%KL_BLOCK_1200);
      362    15431        %KS$PARAM (NAME=S1800,TEXTNAME=S1800,MIN=1,
      363    15432             DEFAULT=%KL_BLOCK_1800);
      364    15502        %KS$PARAM (NAME=S2000,TEXTNAME=S2000,MIN=1,
      365    15503             DEFAULT=%KL_BLOCK_2000);
      366    15573        %KS$PARAM (NAME=S2400,TEXTNAME=S2400,MIN=1,
      367    15574             DEFAULT=%KL_BLOCK_2400);
      368    15644        %KS$PARAM (NAME=S4800,TEXTNAME=S4800,MIN=1,
      369    15645             DEFAULT=%KL_BLOCK_4800);
      370    15715        %KS$PARAM (NAME=S9600,TEXTNAME=S9600,MIN=1,
      371    15716             DEFAULT=%KL_BLOCK_9600);
      372    15786        %KS$PARAM (NAME=S19200,TEXTNAME=S19200,MIN=1,
PL6.E3A0      #001=KS_TABLES_D File=KS_TABLES_D.:E05TSI                          WED 07/30/97 01:51 Page:41
      373    15787             DEFAULT=%KL_BLOCK_19200);
      374    15857    1           2 SZ UBIN WORD INIT(%KL_BLOCK_HI);
      375    15858
      376    15859
      377    15860
      378    15861
      379    15862
      380    15863                            /*F*  NAME: KS_UNBLOCK_TBL
      381    15864
      382    15865                            This table contains the names, minimum and
      383    15866                            maximum values and the default value for the
      384    15867                            options of the BLOCK parameter.
      385    15868                            */
      386    15869
      387    15870    1   DCL 1 KS_UNBLOCK_TBL STATIC SYMDEF ALIGNED,
      388    15871        %KS$PARAM (NAME=S50,TEXTNAME=S50,MIN=1,
      389    15872             DEFAULT=%KL_UNBLOCK_50);
      390    15942        %KS$PARAM (NAME=S75,TEXTNAME=S75,MIN=1,
      391    15943             DEFAULT=%KL_UNBLOCK_75);
      392    16013        %KS$PARAM (NAME=S110,TEXTNAME=S110,MIN=1,
      393    16014             DEFAULT=%KL_UNBLOCK_110);
      394    16084        %KS$PARAM (NAME=S134,TEXTNAME=S134,MIN=1,
      395    16085             DEFAULT=%KL_UNBLOCK_134);
      396    16155        %KS$PARAM (NAME=S150,TEXTNAME=S150,MIN=1,
      397    16156             DEFAULT=%KL_UNBLOCK_150);
      398    16226        %KS$PARAM (NAME=S200,TEXTNAME=S200,MIN=1,
      399    16227             DEFAULT=%KL_UNBLOCK_200);
      400    16297        %KS$PARAM (NAME=S300,TEXTNAME=S300,MIN=1,
      401    16298             DEFAULT=%KL_UNBLOCK_300);
      402    16368        %KS$PARAM (NAME=S600,TEXTNAME=S600,MIN=1,
      403    16369             DEFAULT=%KL_UNBLOCK_600);
      404    16439        %KS$PARAM (NAME=S1050,TEXTNAME=S1050,MIN=1,
      405    16440             DEFAULT=%KL_UNBLOCK_1050);
      406    16510        %KS$PARAM (NAME=S1200,TEXTNAME=S1200,MIN=1,
      407    16511             DEFAULT=%KL_UNBLOCK_1200);
      408    16581        %KS$PARAM (NAME=S1800,TEXTNAME=S1800,MIN=1,
      409    16582             DEFAULT=%KL_UNBLOCK_1800);
PL6.E3A0      #001=KS_TABLES_D File=KS_TABLES_D.:E05TSI                          WED 07/30/97 01:51 Page:42
      410    16652        %KS$PARAM (NAME=S2000,TEXTNAME=S2000,MIN=1,
      411    16653             DEFAULT=%KL_UNBLOCK_2000);
      412    16723        %KS$PARAM (NAME=S2400,TEXTNAME=S2400,MIN=1,
      413    16724             DEFAULT=%KL_UNBLOCK_2400);
      414    16794        %KS$PARAM (NAME=S4800,TEXTNAME=S4800,MIN=1,
      415    16795             DEFAULT=%KL_UNBLOCK_4800);
      416    16865        %KS$PARAM (NAME=S9600,TEXTNAME=S9600,MIN=1,
      417    16866             DEFAULT=%KL_UNBLOCK_9600);
      418    16936        %KS$PARAM (NAME=S19200,TEXTNAME=S19200,MIN=1,
      419    16937             DEFAULT=%KL_UNBLOCK_19200);
      420    17007    1           2 SZ UBIN WORD INIT(%KL_UNBLOCK_HI);
      421    17008
      422    17009                            /*F* NAME: KS_USRPARM1_TBL
      423    17010
      424    17011                                  This table contains the names, min and max
      425    17012                                  and default values for the usrparm1 parameter
      426    17013                            */
      427    17014
      428    17015    1   DCL 1 KS_USRPARM1_TBL STATIC SYMDEF ALIGNED,
      429    17016        %KS$PARAM(NAME=USRPRM1,TEXTNAME=USRPRM1,DEFAULT=%KL_USRPRM_DFLT);
      430    17086        %KS$PARAM(NAME=USRPRM2,TEXTNAME=USRPRM2,DEFAULT=%KL_USRPRM_DFLT);
      431    17156        %KS$PARAM(NAME=USRPRM3,TEXTNAME=USRPRM3,DEFAULT=%KL_USRPRM_DFLT);
      432    17226        %KS$PARAM(NAME=USRPRM4,TEXTNAME=USRPRM4,DEFAULT=%KL_USRPRM_DFLT);
      433    17296        %KS$PARAM(NAME=USRPRM5,TEXTNAME=USRPRM5,DEFAULT=%KL_USRPRM_DFLT);
      434    17366        %KS$PARAM(NAME=USRPRM6,TEXTNAME=USRPRM6,DEFAULT=%KL_USRPRM_DFLT);
      435    17436        %KS$PARAM(NAME=USRPRM7,TEXTNAME=USRPRM7,DEFAULT=%KL_USRPRM_DFLT);
      436    17506        %KS$PARAM(NAME=USRPRM8,TEXTNAME=USRPRM8,DEFAULT=%KL_USRPRM_DFLT);
      437    17576    1         2 SZ UBIN WORD INIT(%KL_USRPARM1_HI);
      438    17577                            /*F* NAME: KS_USRPARM2_TBL
      439    17578
      440    17579                                  This table contains the names, min and max
      441    17580                                  and default values for the usrparm1 parameter
      442    17581                            */
      443    17582
      444    17583    1   DCL 1 KS_USRPARM2_TBL STATIC SYMDEF ALIGNED,
      445    17584        %KS$PARAM(NAME=USRPRM1,TEXTNAME=USRPRM1,DEFAULT=%KL_USRPRM_DFLT);
      446    17654        %KS$PARAM(NAME=USRPRM2,TEXTNAME=USRPRM2,DEFAULT=%KL_USRPRM_DFLT);
PL6.E3A0      #001=KS_TABLES_D File=KS_TABLES_D.:E05TSI                          WED 07/30/97 01:51 Page:43
      447    17724        %KS$PARAM(NAME=USRPRM3,TEXTNAME=USRPRM3,DEFAULT=%KL_USRPRM_DFLT);
      448    17794        %KS$PARAM(NAME=USRPRM4,TEXTNAME=USRPRM4,DEFAULT=%KL_USRPRM_DFLT);
      449    17864        %KS$PARAM(NAME=USRPRM5,TEXTNAME=USRPRM5,DEFAULT=%KL_USRPRM_DFLT);
      450    17934        %KS$PARAM(NAME=USRPRM6,TEXTNAME=USRPRM6,DEFAULT=%KL_USRPRM_DFLT);
      451    18004        %KS$PARAM(NAME=USRPRM7,TEXTNAME=USRPRM7,DEFAULT=%KL_USRPRM_DFLT);
      452    18074        %KS$PARAM(NAME=USRPRM8,TEXTNAME=USRPRM8,DEFAULT=%KL_USRPRM_DFLT);
      453    18144    1         2 SZ UBIN WORD INIT(%KL_USRPARM2_HI);
      454    18145
      455    18146                            /*F*  NAME: KS_BISYNC_TBL
      456    18147
      457    18148                            This table contains the defaults for the handler
      458    18149                            parameters for BISYNC.
      459    18150                            */
      460    18151
      461    18152    1   DCL 1 KS_BISYNC_TBL STATIC SYMDEF ALIGNED,
      462    18153        %KS$PARAM (NAME=INTLVL,TEXTNAME=INTLVL,MIN=12,MAX=60,
      463    18154             DEFAULT=%KL_BISYNC_INTLVL);
      464    18224        %KS$PARAM (NAME=MEM,TEXTNAME=MEM,MAX=2304,
      465    18225             DEFAULT=%KL_BISYNC_MEM);
      466    18295        %KS$PARAM (NAME=IOMEM,TEXTNAME=IOMEM,ASYNC=NO,BISYNC=NO,COUPLER=NO,NODEADMIN=NO,
             18295            UNITREC=NO,
      467    18296             DEFAULT=%KL_DFLT_IOMEM);
      468    18366        %KS$PARAM (NAME=RES,TEXTNAME=RES,
      469    18367             DEFAULT=%KL_BISYNC_RES);
      470    18437        %KS$PARAM (NAME=ATTR,TEXTNAME=ATTR,
      471    18438             DEFAULT=%KL_BISYNC_ATTR);
      472    18508        %KS$PARAM (NAME=TYPAHDBFRLMT,TEXTNAME=TYPAHDBFRLMT,MIN=1,MAX=254,
      473    18509             DEFAULT=%KL_DFLT_TYPAHDBFRLMT);
      474    18579        %KS$PARAM (NAME=LINERRLOGLMT,TEXTNAME=LINERRLOGLMT,MAX=255,
      475    18580             DEFAULT=%KL_DFLT_LINERRLOGLMT);
      476    18650        %KS$PARAM (NAME=LINERRDSCLMT,TEXTNAME=LINERRDSCLMT,MAX=255,
      477    18651             DEFAULT=%KL_DFLT_LINERRDSCLMT);
      478    18721        %KS$PARAM (NAME=TRC,TEXTNAME=TRC,DEFAULT=%KL_DFLT_TRC,NODEADMIN=NO,COUPLER=NO,
             18721            UNITREC=NO,ASYNC=NO,HDLCX25=NO,BISYNC=NO);
      479    18791        %KS$PARAM (NAME=VDHTRC,TEXTNAME=VDHTRC,
      480    18792             DEFAULT=%KL_BISYNC_VDHTRC);
      481    18862        %KS$PARAM (NAME=ERRSND,TEXTNAME=ERRSND,MAX=7,
PL6.E3A0      #001=KS_TABLES_D File=KS_TABLES_D.:E05TSI                          WED 07/30/97 01:51 Page:44
      482    18863             DEFAULT=%KL_DFLT_ERRSND);
      483    18933        %KS$PARAM (NAME=TRCBFR,TEXTNAME=TRCBFR,NODEADMIN=NO,COUPLER=NO,BISYNC=NO,ASYNC=NO,
             18933            HDLCX25=NO,UNITREC=NO,
      484    18934             DEFAULT=%KL_DFLT_TRCBFR);
      485    19004        %KS$PARAM (NAME=RCVCQBYTSIZ,TEXTNAME=RCVCQBYTSIZ,MAX=63500,MIN=2100,
      486    19005             DEFAULT=%KL_BISYNC_RCVCQBYTSIZ);
      487    19075        %KS$PARAM (NAME=SNDCQBYTSIZ,TEXTNAME=SNDCQBYTSIZ,MAX=63500,MIN=2100,
      488    19076             DEFAULT=%KL_BISYNC_SNDCQBYTSIZ);
      489    19146        %KS$PARAM (NAME=MMRINTCHC,TEXTNAME=MMRINTCHC,
      490    19147             DEFAULT=%KL_DFLT_MMRINTCHC);
      491    19217        %KS$PARAM (NAME=IOBUF,TEXTNAME=IOBUF,DEFAULT = %KL_HDLCX25_IOBUF, NODEADMIN=NO,
             19217            COUPLER=NO,BISYNC=NO,UNITREC=NO,ASYNC=NO,MIN=1,MAX=14);
      492    19287        %KS$PARAM (NAME=LINERRLOGBFRLMT,TEXTNAME=LINERRLOGBFRLMT,DEFAULT =
             19287            %KL_HDLCX25_LINERRLOGBFRLMT,MIN=0,MAX=65535,
      493    19288                   NODEADMIN=NO,COUPLER=NO,BISYNC=NO,UNITREC=NO,ASYNC=NO);
      494    19358       %KS$PARAM (NAME=X29MLTMR,TEXTNAME=X29MLTMR,DEFAULT = %KL_HDLCX25_X29MLTMR,MIN=0,MAX=
             19358            255,
      495    19359                   NODEADMIN=NO,COUPLER=NO,BISYNC=NO,UNITREC=NO,ASYNC=NO);
      496    19429        %KS$PARAM (NAME=MAXICQTIME,TEXTNAME=MAXICQTIME,MIN=1,MAX=120,
      497    19430                    DEFAULT=%KL_DFLT_MAXICQTIME);
      498    19500        %KS$PARAM (NAME=OCQDBLKSIZ,TEXTNAME=OCQDBLKSIZ,MIN=1024,MAX=32768,
      499    19501                    DEFAULT=%KL_DFLT_OCQDBLKSIZ);
      500    19571        %KS$PARAM (NAME=LGNRTRYNUM,TEXTNAME=LGNRTRYNUM,MIN=0,MAX=255,
      501    19572                    DEFAULT=%KL_DFLT_LGNRTRYNUM);
      502    19642        %KS$PARAM (NAME=HOPCOST,TEXTNAME=HOPCOST,MIN=0,MAX=255,
      503    19643                    DEFAULT=%KL_DFLT_HOPCOST);
      504    19713        %KS$PARAM (NAME=OTPBFRBYTSIZSML,TEXTNAME=OTPBFRBYTSIZSML,MIN=32,MAX=1024,
      505    19714                    DEFAULT=%KL_DFLT_OTPBFRBYTSIZSML);
      506    19784        %KS$PARAM (NAME=OTPBFRBYTSIZBIG,TEXTNAME=OTPBFRBYTSIZBIG,MIN=32,MAX=1024,
      507    19785                    DEFAULT=%KL_DFLT_OTPBFRBYTSIZBIG);
      508    19855        %KS$PARAM (NAME=SSNMAX,TEXTNAME=SSNMAX,MIN=1,MAX=256,
      509    19856                    DEFAULT=%KL_ASYNC_DFLT_SSNMAX);
      510    19926        %KS$PARAM (NAME=IMPTBLMAX,TEXTNAME=IMPTBLMAX,MAX=32767,DEFAULT=%KL_DFLT_IMPTBLMAX,
             19926            NODEADMIN=NO,COUPLER=NO,UNITREC=NO);
      511    19996    1           2 SZ UBIN WORD INIT(%KL_BISYNC_HI);
      512    19997
      513    19998
PL6.E3A0      #001=KS_TABLES_D File=KS_TABLES_D.:E05TSI                          WED 07/30/97 01:51 Page:45
      514    19999
      515    20000
      516    20001
      517    20002                            /*F*  NAME: KS_COUPLER_TBL
      518    20003
      519    20004                            This table contains the defaults for the handler
      520    20005                            parameters for COUPLER.
      521    20006                            */
      522    20007
      523    20008    1   DCL 1 KS_COUPLER_TBL STATIC SYMDEF ALIGNED,
      524    20009        %KS$PARAM (NAME=INTLVL,TEXTNAME=INTLVL,MIN=12,MAX=60,
      525    20010               DEFAULT=%KL_COUPLER_INTLVL);
      526    20080        %KS$PARAM (NAME=MEM,TEXTNAME=MEM,MAX=2304,
      527    20081               DEFAULT=%KL_COUPLER_MEM);
      528    20151        %KS$PARAM (NAME=IOMEM,TEXTNAME=IOMEM,ASYNC=NO,BISYNC=NO,COUPLER=NO,NODEADMIN=NO,
             20151            UNITREC=NO,
      529    20152               DEFAULT=%KL_DFLT_IOMEM);
      530    20222        %KS$PARAM (NAME=RES,TEXTNAME=RES,
      531    20223               DEFAULT=%KL_COUPLER_RES);
      532    20293        %KS$PARAM (NAME=ATTR,TEXTNAME=ATTR,
      533    20294               DEFAULT=%KL_COUPLER_ATTR);
      534    20364        %KS$PARAM (NAME=TYPAHDBFRLMT,TEXTNAME=TYPAHDBFRLMT,MIN=1,MAX=254,
      535    20365               DEFAULT=%KL_DFLT_TYPAHDBFRLMT);
      536    20435        %KS$PARAM (NAME=LINERRLOGLMT,TEXTNAME=LINERRLOGLMT,MAX=255,
      537    20436               DEFAULT=%KL_DFLT_LINERRLOGLMT);
      538    20506        %KS$PARAM (NAME=LINERRDSCLMT,TEXTNAME=LINERRDSCLMT,MAX=255,
      539    20507               DEFAULT=%KL_DFLT_LINERRDSCLMT);
      540    20577        %KS$PARAM (NAME=TRC,TEXTNAME=TRC,DEFAULT=%KL_DFLT_TRC,NODEADMIN=NO,COUPLER=NO,
             20577            UNITREC=NO,ASYNC=NO,HDLCX25=NO,BISYNC=NO);
      541    20647        %KS$PARAM (NAME=VDHTRC,TEXTNAME=VDHTRC,
      542    20648               DEFAULT=%KL_DFLT_VDHTRC);
      543    20718        %KS$PARAM (NAME=ERRSND,TEXTNAME=ERRSND,MAX=7,
      544    20719               DEFAULT=%KL_DFLT_ERRSND);
      545    20789        %KS$PARAM (NAME=TRCBFR,TEXTNAME=TRCBFR,NODEADMIN=NO,COUPLER=NO,BISYNC=NO,ASYNC=NO,
             20789            HDLCX25=NO,UNITREC=NO,
      546    20790               DEFAULT=%KL_DFLT_TRCBFR);
      547    20860        %KS$PARAM (NAME=RCVCQBYTSIZ,TEXTNAME=RCVCQBYTSIZ,MAX=32767,MIN=2100,
PL6.E3A0      #001=KS_TABLES_D File=KS_TABLES_D.:E05TSI                          WED 07/30/97 01:51 Page:46
      548    20861               DEFAULT=%KL_COUPLER_RCVCQBYTSIZ);
      549    20931        %KS$PARAM (NAME=SNDCQBYTSIZ,TEXTNAME=SNDCQBYTSIZ,MAX=32767,MIN=2100,
      550    20932               DEFAULT=%KL_COUPLER_SNDCQBYTSIZ);
      551    21002        %KS$PARAM (NAME=MMRINTCHC,TEXTNAME=MMRINTCHC,
      552    21003               DEFAULT=%KL_DFLT_MMRINTCHC);
      553    21073        %KS$PARAM (NAME=IOBUF,TEXTNAME=IOBUF,DEFAULT = %KL_HDLCX25_IOBUF, NODEADMIN=NO,
             21073            COUPLER=NO,BISYNC=NO,UNITREC=NO,ASYNC=NO,MIN=1,MAX=14);
      554    21143        %KS$PARAM (NAME=LINERRLOGBFRLMT,TEXTNAME=LINERRLOGBFRLMT,DEFAULT =
             21143            %KL_HDLCX25_LINERRLOGBFRLMT,MIN=0,MAX=65535,
      555    21144                   NODEADMIN=NO,COUPLER=NO,BISYNC=NO,UNITREC=NO,ASYNC=NO);
      556    21214       %KS$PARAM (NAME=X29MLTMR,TEXTNAME=X29MLTMR,DEFAULT = %KL_HDLCX25_X29MLTMR,MIN=0,MAX=
             21214            255,
      557    21215                   NODEADMIN=NO,COUPLER=NO,BISYNC=NO,UNITREC=NO,ASYNC=NO);
      558    21285        %KS$PARAM (NAME=MAXICQTIME,TEXTNAME=MAXICQTIME,MIN=1,MAX=120,
      559    21286               DEFAULT=%KL_DFLT_MAXICQTIME);
      560    21356        %KS$PARAM (NAME=OCQDBLKSIZ,TEXTNAME=OCQDBLKSIZ,MIN=1024,MAX=32768,
      561    21357               DEFAULT=%KL_DFLT_OCQDBLKSIZ);
      562    21427    1           2 SZ UBIN WORD INIT(%KL_FEI_HI);
      563    21428
      564    21429
      565    21430
      566    21431
      567    21432
      568    21433                            /*F*  NAME: KS_HDLCX25_TBL
      569    21434
      570    21435                            This table contains the defaults for the handler
      571    21436                            parameters for HDLC.
      572    21437                            */
      573    21438
      574    21439    1   DCL 1 KS_HDLCX25_TBL STATIC SYMDEF ALIGNED,
      575    21440        %KS$PARAM (NAME=INTLVL,TEXTNAME=INTLVL,MIN=12,MAX=60,
      576    21441              DEFAULT=%KL_HDLCX25_INTLVL);
      577    21511        %KS$PARAM (NAME=MEM,TEXTNAME=MEM,MAX=2048,
      578    21512              DEFAULT=%KL_HDLCX25_MEM);
      579    21582        %KS$PARAM (NAME=IOMEM,TEXTNAME=IOMEM,ASYNC=NO,BISYNC=NO,COUPLER=NO,NODEADMIN=NO,
             21582            UNITREC=NO,MAX=2048,
      580    21583              DEFAULT=%KL_HDLCX25_IOMEM);
PL6.E3A0      #001=KS_TABLES_D File=KS_TABLES_D.:E05TSI                          WED 07/30/97 01:51 Page:47
      581    21653        %KS$PARAM (NAME=RES,TEXTNAME=RES,
      582    21654              DEFAULT=%KL_HDLCX25_RES);
      583    21724        %KS$PARAM (NAME=ATTR,TEXTNAME=ATTR,
      584    21725              DEFAULT=%KL_HDLCX25_ATTR);
      585    21795        %KS$PARAM (NAME=TYPAHDBFRLMT,TEXTNAME=TYPAHDBFRLMT,MIN=1,MAX=254,
      586    21796              DEFAULT=%KL_DFLT_TYPAHDBFRLMT);
      587    21866        %KS$PARAM (NAME=LINERRLOGLMT,TEXTNAME=LINERRLOGLMT,MAX=255,
      588    21867              DEFAULT=%KL_DFLT_LINERRLOGLMT);
      589    21937        %KS$PARAM (NAME=LINERRDSCLMT,TEXTNAME=LINERRDSCLMT,MAX=255,
      590    21938              DEFAULT=%KL_DFLT_HDLCX25_LINERRDSCLMT);
      591    22008        %KS$PARAM (NAME=TRC,TEXTNAME=TRC,DEFAULT=%KL_DFLT_TRC,NODEADMIN=NO,COUPLER=NO,
             22008            UNITREC=NO,ASYNC=NO,HDLCX25=NO,BISYNC=NO);
      592    22078        %KS$PARAM (NAME=VDHTRC,TEXTNAME=VDHTRC,
      593    22079              DEFAULT=%KL_DFLT_VDHTRC);
      594    22149        %KS$PARAM (NAME=ERRSND,TEXTNAME=ERRSND,MAX=7,
      595    22150              DEFAULT=%KL_DFLT_ERRSND);
      596    22220        %KS$PARAM (NAME=TRCBFR,TEXTNAME=TRCBFR,NODEADMIN=NO,COUPLER=NO,BISYNC=NO,ASYNC=NO,
             22220            HDLCX25=NO,UNITREC=NO,
      597    22221              DEFAULT=%KL_DFLT_TRCBFR);
      598    22291        %KS$PARAM (NAME=RCVCQBYTSIZ,TEXTNAME=RCVCQBYTSIZ,MAX=63500,MIN=2100,
      599    22292              DEFAULT=%KL_HDLCX25_RCVCQBYTSIZ);
      600    22362        %KS$PARAM (NAME=SNDCQBYTSIZ,TEXTNAME=SNDCQBYTSIZ,MAX=63500,MIN=2100,
      601    22363              DEFAULT=%KL_HDLCX25_SNDCQBYTSIZ);
      602    22433        %KS$PARAM (NAME=MMRINTCHC,TEXTNAME=MMRINTCHC,
      603    22434              DEFAULT=%KL_DFLT_MMRINTCHC);
      604    22504        %KS$PARAM (NAME=IOBUF,TEXTNAME=IOBUF,DEFAULT = %KL_HDLCX25_IOBUF, NODEADMIN=NO,
             22504            COUPLER=NO,BISYNC=NO,UNITREC=NO,ASYNC=NO,MIN=1,MAX=14);
      605    22574        %KS$PARAM (NAME=LINERRLOGBFRLMT,TEXTNAME=LINERRLOGBFRLMT,DEFAULT =
             22574            %KL_HDLCX25_LINERRLOGBFRLMT,MIN=0,MAX=65535,
      606    22575                   NODEADMIN=NO,COUPLER=NO,BISYNC=NO,UNITREC=NO,ASYNC=NO);
      607    22645       %KS$PARAM (NAME=X29MLTMR,TEXTNAME=X29MLTMR,DEFAULT = %KL_HDLCX25_X29MLTMR,MIN=0,MAX=
             22645            255,
      608    22646                   NODEADMIN=NO,COUPLER=NO,BISYNC=NO,UNITREC=NO,ASYNC=NO);
      609    22716        %KS$PARAM (NAME=MAXICQTIME,TEXTNAME=MAXICQTIME,MIN=1,MAX=120,
      610    22717                    DEFAULT=%KL_DFLT_MAXICQTIME);
      611    22787        %KS$PARAM (NAME=OCQDBLKSIZ,TEXTNAME=OCQDBLKSIZ,MIN=1024,MAX=32768,
      612    22788                    DEFAULT=%KL_DFLT_OCQDBLKSIZ);
PL6.E3A0      #001=KS_TABLES_D File=KS_TABLES_D.:E05TSI                          WED 07/30/97 01:51 Page:48
      613    22858        %KS$PARAM (NAME=LGNRTRYNUM,TEXTNAME=LGNRTRYNUM,MIN=0,MAX=255,
      614    22859                    DEFAULT=%KL_DFLT_LGNRTRYNUM);
      615    22929        %KS$PARAM (NAME=HOPCOST,TEXTNAME=HOPCOST,MIN=0,MAX=255,
      616    22930                    DEFAULT=%KL_DFLT_HOPCOST);
      617    23000        %KS$PARAM (NAME=OTPBFRBYTSIZSML,TEXTNAME=OTPBFRBYTSIZSML,MIN=32,MAX=1024,
      618    23001                    DEFAULT=%KL_DFLT_OTPBFRBYTSIZSML);
      619    23071        %KS$PARAM (NAME=OTPBFRBYTSIZBIG,TEXTNAME=OTPBFRBYTSIZBIG,MIN=32,MAX=1024,
      620    23072                    DEFAULT=%KL_DFLT_OTPBFRBYTSIZBIG);
      621    23142        %KS$PARAM (NAME=SSNMAX,TEXTNAME=SSNMAX,MIN=1,MAX=256,
      622    23143                    DEFAULT=%KL_ASYNC_DFLT_SSNMAX);
      623    23213        %KS$PARAM (NAME=IMPTBLMAX,TEXTNAME=IMPTBLMAX,MAX=32767,DEFAULT=%KL_DFLT_IMPTBLMAX,
             23213            NODEADMIN=NO,COUPLER=NO,UNITREC=NO);
      624    23283        %KS$PARAM (NAME=SPARE1,TEXTNAME=SPARE,NODEADMIN=NO,COUPLER=NO,BISYNC=NO,UNITREC=NO,
             23283            HDLCX25=NO,ASYNC=NO);
      625    23353        %KS$PARAM (NAME=SPARE2,TEXTNAME=SPARE,NODEADMIN=NO,COUPLER=NO,BISYNC=NO,UNITREC=NO,
             23353            HDLCX25=NO,ASYNC=NO);
      626    23423        %KS$PARAM (NAME=SPARE3,TEXTNAME=SPARE,NODEADMIN=NO,COUPLER=NO,BISYNC=NO,UNITREC=NO,
             23423            HDLCX25=NO,ASYNC=NO);
      627    23493        %KS$PARAM (NAME=BLOCK,TEXTNAME=BLOCK,SPECIAL=YES,ARRAY_SZ=%KL_BLOCK_HI,
      628    23494                    INDX=YES,SPCL_TBL=KS_BLOCK_TBL);
      629    23564        %KS$PARAM (NAME=UNBLOCK,TEXTNAME=UNBLOCK,SPECIAL=YES,ARRAY_SZ=%KL_UNBLOCK_HI,
      630    23565                    INDX=YES,SPCL_TBL=KS_UNBLOCK_TBL);
      631    23635    1           2 SZ UBIN WORD INIT(%KL_HDLCX25_HI);
      632    23636
      633    23637
      634    23638
      635    23639
      636    23640
      637    23641                            /*F*  NAME: KS_NODEADMIN_TBL
      638    23642
      639    23643                            This table contains the defaults for the handler
      640    23644                            parameters for NODEADMIN.
      641    23645                            */
      642    23646
      643    23647    1   DCL 1 KS_NODEADMIN_TBL STATIC SYMDEF ALIGNED,
      644    23648        %KS$PARAM (NAME=INTLVL,TEXTNAME=INTLVL,MIN=%KL_NODEADMIN_INTLVL,MAX=
             23648            %KL_NODEADMIN_INTLVL,
PL6.E3A0      #001=KS_TABLES_D File=KS_TABLES_D.:E05TSI                          WED 07/30/97 01:51 Page:49
      645    23649                DEFAULT=%KL_NODEADMIN_INTLVL);
      646    23719        %KS$PARAM (NAME=MEM,TEXTNAME=MEM,MAX=2304,
      647    23720                DEFAULT=%KL_NODEADMIN_MEM);
      648    23790        %KS$PARAM (NAME=IOMEM,TEXTNAME=IOMEM,ASYNC=NO,BISYNC=NO,COUPLER=NO,NODEADMIN=NO,
             23790            UNITREC=NO,
      649    23791                DEFAULT=%KL_DFLT_IOMEM);
      650    23861        %KS$PARAM (NAME=RES,TEXTNAME=RES,
      651    23862                DEFAULT=%KL_DFLT_RES);
      652    23932        %KS$PARAM (NAME=ATTR,TEXTNAME=ATTR,
      653    23933                DEFAULT=%KL_DFLT_ATTR);
      654    24003        %KS$PARAM (NAME=TYPAHDBFRLMT,TEXTNAME=TYPAHDBFRLMT,MIN=1,MAX=254,
      655    24004                DEFAULT=%KL_DFLT_TYPAHDBFRLMT);
      656    24074        %KS$PARAM (NAME=LINERRLOGLMT,TEXTNAME=LINERRLOGLMT,MAX=255,
      657    24075                DEFAULT=%KL_DFLT_LINERRLOGLMT);
      658    24145        %KS$PARAM (NAME=LINERRDSCLMT,TEXTNAME=LINERRDSCLMT,MAX=255,
      659    24146                DEFAULT=%KL_DFLT_LINERRDSCLMT);
      660    24216        %KS$PARAM (NAME=TRC,TEXTNAME=TRC,DEFAULT=%KL_DFLT_TRC,NODEADMIN=NO,COUPLER=NO,
             24216            UNITREC=NO,ASYNC=NO,HDLCX25=NO,BISYNC=NO);
      661    24286        %KS$PARAM (NAME=VDHTRC,TEXTNAME=VDHTRC,
      662    24287                DEFAULT=%KL_DFLT_VDHTRC);
      663    24357        %KS$PARAM (NAME=ERRSND,TEXTNAME=ERRSND,MAX=7,
      664    24358                DEFAULT=%KL_DFLT_ERRSND);
      665    24428        %KS$PARAM (NAME=TRCBFR,TEXTNAME=TRCBFR,NODEADMIN=NO,COUPLER=NO,BISYNC=NO,ASYNC=NO,
             24428            HDLCX25=NO,UNITREC=NO,
      666    24429                DEFAULT=%KL_DFLT_TRCBFR);
      667    24499        %KS$PARAM (NAME=RCVCQBYTSIZ,TEXTNAME=RCVCQBYTSIZ,MAX=63500,MIN=2100,
      668    24500                DEFAULT=%KL_NODEADMIN_RCVCQBYTSIZ);
      669    24570        %KS$PARAM (NAME=SNDCQBYTSIZ,TEXTNAME=SNDCQBYTSIZ,MAX=63500,MIN=2100,
      670    24571                DEFAULT=%KL_NODEADMIN_SNDCQBYTSIZ);
      671    24641        %KS$PARAM (NAME=MMRINTCHC,TEXTNAME=MMRINTCHC,
      672    24642                DEFAULT=%KL_DFLT_MMRINTCHC);
      673    24712        %KS$PARAM (NAME=IOBUF,TEXTNAME=IOBUF,DEFAULT = %KL_HDLCX25_IOBUF, NODEADMIN=NO,
             24712            COUPLER=NO,BISYNC=NO,UNITREC=NO,ASYNC=NO,MIN=1,MAX=14);
      674    24782        %KS$PARAM (NAME=LINERRLOGBFRLMT,TEXTNAME=LINERRLOGBFRLMT,DEFAULT =
             24782            %KL_HDLCX25_LINERRLOGBFRLMT,MIN=0,MAX=65535,
      675    24783                   NODEADMIN=NO,COUPLER=NO,BISYNC=NO,UNITREC=NO,ASYNC=NO);
      676    24853       %KS$PARAM (NAME=X29MLTMR,TEXTNAME=X29MLTMR,DEFAULT = %KL_HDLCX25_X29MLTMR,MIN=0,MAX=
PL6.E3A0      #001=KS_TABLES_D File=KS_TABLES_D.:E05TSI                          WED 07/30/97 01:51 Page:50
             24853            255,
      677    24854                   NODEADMIN=NO,COUPLER=NO,BISYNC=NO,UNITREC=NO,ASYNC=NO);
      678    24924        %KS$PARAM (NAME=MAXICQTIME,TEXTNAME=MAXICQTIME,MIN=1,MAX=120,
      679    24925                DEFAULT=%KL_DFLT_MAXICQTIME);
      680    24995        %KS$PARAM (NAME=OCQDBLKSIZ,TEXTNAME=OCQDBLKSIZ,MIN=1024,MAX=32768,
      681    24996                DEFAULT=%KL_DFLT_OCQDBLKSIZ);
      682    25066        %KS$PARAM (NAME=LGNRTRYNUM,TEXTNAME=LGNRTRYNUM,MIN=0,MAX=255,
      683    25067                DEFAULT=%KL_DFLT_LGNRTRYNUM);
      684    25137        %KS$PARAM (NAME=HOPCOST,TEXTNAME=HOPCOST,MIN=0,MAX=255,
      685    25138                DEFAULT=%KL_DFLT_HOPCOST);
      686    25208    1           2 SZ UBIN WORD INIT(%KL_NA_HI);
      687    25209
      688    25210
      689    25211
      690    25212
      691    25213
      692    25214                            /*F*  NAME: KS_UNITREC_TBL
      693    25215
      694    25216                            This table contains the defaults for the handler
      695    25217                            parameters for UNITREC.
      696    25218                            */
      697    25219
      698    25220    1   DCL 1 KS_UNITREC_TBL STATIC SYMDEF ALIGNED,
      699    25221        %KS$PARAM (NAME=INTLVL,TEXTNAME=INTLVL,MIN=12,MAX=60,
      700    25222               DEFAULT=%KL_UNITREC_INTLVL);
      701    25292        %KS$PARAM (NAME=MEM,TEXTNAME=MEM,MAX=2304,
      702    25293               DEFAULT=%KL_UNITREC_MEM);
      703    25363        %KS$PARAM (NAME=IOMEM,TEXTNAME=IOMEM,ASYNC=NO,BISYNC=NO,COUPLER=NO,NODEADMIN=NO,
             25363            UNITREC=NO,
      704    25364               DEFAULT=%KL_DFLT_IOMEM);
      705    25434        %KS$PARAM (NAME=RES,TEXTNAME=RES,
      706    25435               DEFAULT=%KL_UNITREC_RES);
      707    25505        %KS$PARAM (NAME=ATTR,TEXTNAME=ATTR,
      708    25506               DEFAULT=%KL_UNITREC_ATTR);
      709    25576        %KS$PARAM (NAME=TYPAHDBFRLMT,TEXTNAME=TYPAHDBFRLMT,MIN=1,MAX=254,
      710    25577               DEFAULT=%KL_DFLT_TYPAHDBFRLMT);
      711    25647        %KS$PARAM (NAME=LINERRLOGLMT,TEXTNAME=LINERRLOGLMT,MAX=255,
PL6.E3A0      #001=KS_TABLES_D File=KS_TABLES_D.:E05TSI                          WED 07/30/97 01:51 Page:51
      712    25648               DEFAULT=%KL_DFLT_LINERRLOGLMT);
      713    25718        %KS$PARAM (NAME=LINERRDSCLMT,TEXTNAME=LINERRDSCLMT,MAX=255,
      714    25719               DEFAULT=%KL_DFLT_LINERRDSCLMT);
      715    25789        %KS$PARAM (NAME=TRC,TEXTNAME=TRC,DEFAULT=%KL_DFLT_TRC,NODEADMIN=NO,COUPLER=NO,
             25789            UNITREC=NO,ASYNC=NO,HDLCX25=NO,BISYNC=NO);
      716    25859        %KS$PARAM (NAME=VDHTRC,TEXTNAME=VDHTRC,
      717    25860               DEFAULT=%KL_DFLT_VDHTRC);
      718    25930        %KS$PARAM (NAME=ERRSND,TEXTNAME=ERRSND,MAX=7,
      719    25931               DEFAULT=%KL_DFLT_ERRSND);
      720    26001        %KS$PARAM (NAME=TRCBFR,TEXTNAME=TRCBFR,NODEADMIN=NO,COUPLER=NO,BISYNC=NO,ASYNC=NO,
             26001            HDLCX25=NO,UNITREC=NO,
      721    26002               DEFAULT=%KL_DFLT_TRCBFR);
      722    26072        %KS$PARAM (NAME=RCVCQBYTSIZ,TEXTNAME=RCVCQBYTSIZ,MAX=63500,MIN=2100,
      723    26073               DEFAULT=%KL_UNITREC_RCVCQBYTSIZ);
      724    26143        %KS$PARAM (NAME=SNDCQBYTSIZ,TEXTNAME=SNDCQBYTSIZ,MAX=63500,MIN=2100,
      725    26144               DEFAULT=%KL_UNITREC_SNDCQBYTSIZ);
      726    26214        %KS$PARAM (NAME=MMRINTCHC,TEXTNAME=MMRINTCHC,
      727    26215               DEFAULT=%KL_DFLT_MMRINTCHC);
      728    26285    1           2 SZ UBIN WORD INIT(%KL_HNDLRPARM_STD_HI);
      729    26286
      730    26287
      731    26288
      732    26289                            /*F* NAME: PARAMETER NAMES
      733    26290
      734    26291                            What follows is a list of all the parameter
      735    26292                            names known to NETCON.
      736    26293                            */
      737    26294
      738    26295        /* BOOTPARAMS Parameters.
      739    26296        */
      740    26297        %VLP_NAME (FPTN=LDCT,NAME='LDCT');
      741    26324        %VLP_NAME (FPTN=IOP,NAME='IOP');
      742    26351        %VLP_NAME (FPTN=HMI,NAME='HMI');
      743    26378        %VLP_NAME (FPTN=APESSN,NAME='APESSN');
      744    26405        %VLP_NAME (FPTN=TCTX,NAME='TCTX');
      745    26432        %VLP_NAME (FPTN=CBUFFER,NAME='CBUFFER');
      746    26459        %VLP_NAME (FPTN=SFILE,NAME='SFILE');
PL6.E3A0      #001=KS_TABLES_D File=KS_TABLES_D.:E05TSI                          WED 07/30/97 01:51 Page:52
      747    26486        %VLP_NAME (FPTN=MUIS,NAME='MUIS');
      748    26513        %VLP_NAME (FPTN=NSHUF,NAME='NSHUF');
      749    26540        %VLP_NAME (FPTN=MAXLINKS,NAME='MAXLINKS');
      750    26567        %VLP_NAME (FPTN=DEVICES,NAME='DEVICES');
      751    26594        %VLP_NAME (FPTN=ACCTS,NAME='ACCTS');
      752    26621        %VLP_NAME (FPTN=PCHANS,NAME='PCHANS');
      753    26648        %VLP_NAME (FPTN=OSIROUTES,NAME='OSIROUTES');
      754    26675        %VLP_NAME (FPTN=DPS8000FLG,NAME='DPS8000FLG');
      755    26702
      756    26703
      757    26704        /* LCP6PARAMS parameters.
      758    26705        */
      759    26706        %VLP_NAME (FPTN=QMIN,NAME='QMIN');
      760    26733        %VLP_NAME (FPTN=QUAN,NAME='QUAN');
      761    26760        %VLP_NAME (FPTN=XCONTIME,NAME='XCONTIME');
      762    26787        %VLP_NAME (FPTN=MUSR,NAME='MUSR');
      763    26814        %VLP_NAME (FPTN=MUSR_USER,NAME='MUSR_USER');
      764    26841        %VLP_NAME (FPTN=MUSR_CG,NAME='MUSR_CG');
      765    26868        %VLP_NAME (FPTN=MUSR_HAND,NAME='MUSR_HAND');
      766    26895        %VLP_NAME (FPTN=MUSR_GHST,NAME='MUSR_GHST');
      767    26922        %VLP_NAME (FPTN=MMEM,NAME='MMEM');
      768    26949        %VLP_NAME (FPTN=MMEM_USER,NAME='MMEM_USER');
      769    26976        %VLP_NAME (FPTN=MMEM_CG,NAME='MMEM_CG');
      770    27003        %VLP_NAME (FPTN=MMEM_HAND,NAME='MMEM_HAND');
      771    27030        %VLP_NAME (FPTN=MMEM_GHST,NAME='MMEM_GHST');
      772    27057        %VLP_NAME (FPTN=DUMP,NAME='DUMP');
      773    27084        %VLP_NAME (FPTN=KEEPDELTA,NAME='KEEPDELTA');
      774    27111        %VLP_NAME (FPTN=SFILE_DATA,NAME='SFILE_DATA');
      775    27138        %VLP_NAME (FPTN=CUSR,NAME='CUSR');
      776    27165        %VLP_NAME (FPTN=CUSR_USER,NAME='CUSR_USER');
      777    27192        %VLP_NAME (FPTN=CUSR_CG,NAME='CUSR_CG');
      778    27219        %VLP_NAME (FPTN=CUSR_HAND,NAME='CUSR_HAND');
      779    27246        %VLP_NAME (FPTN=CUSR_GHST,NAME='CUSR_GHST');
      780    27273        %VLP_NAME (FPTN=CMEM,NAME='CMEM');
      781    27300        %VLP_NAME (FPTN=CMEM_USER,NAME='CMEM_USER');
      782    27327        %VLP_NAME (FPTN=CMEM_CG,NAME='CMEM_CG');
      783    27354        %VLP_NAME (FPTN=CMEM_HAND,NAME='CMEM_HAND');
PL6.E3A0      #001=KS_TABLES_D File=KS_TABLES_D.:E05TSI                          WED 07/30/97 01:51 Page:53
      784    27381        %VLP_NAME (FPTN=CMEM_GHST,NAME='CMEM_GHST');
      785    27408
      786    27409
      787    27410        /* HANDPARAMS Parameters.
      788    27411        */
      789    27412        %VLP_NAME (FPTN=INTLVL,NAME='INTLVL');
      790    27439        %VLP_NAME (FPTN=MEM,NAME='MEM');
      791    27466        %VLP_NAME (FPTN=IOMEM,NAME='IOMEM');
      792    27493        %VLP_NAME (FPTN=RES,NAME='RES');
      793    27520        %VLP_NAME (FPTN=ATTR,NAME='ATTR');
      794    27547        %VLP_NAME (FPTN=TYPAHDBFRLMT,NAME='TYPAHDBFRLMT');
      795    27574        %VLP_NAME (FPTN=LINERRLOGLMT,NAME='LINERRLOGLMT');
      796    27601        %VLP_NAME (FPTN=LINERRDSCLMT,NAME='LINERRDSCLMT');
      797    27628        %VLP_NAME (FPTN=TRC,NAME='TRC');
      798    27655        %VLP_NAME (FPTN=VDHTRC,NAME='VDHTRC');
      799    27682        %VLP_NAME (FPTN=ERRSND,NAME='ERRSND');
      800    27709        %VLP_NAME (FPTN=TRCBFR,NAME='TRCBFR');
      801    27736        %VLP_NAME (FPTN=RCVCQBYTSIZ,NAME='RCVCQBYTSIZ');
      802    27763        %VLP_NAME (FPTN=SNDCQBYTSIZ,NAME='SNDCQBYTSIZ');
      803    27790        %VLP_NAME (FPTN=MMRINTCHC,NAME='MMRINTCHC');
      804    27817        %VLP_NAME (FPTN=MAXICQTIME,NAME='MAXICQTIME');
      805    27844        %VLP_NAME (FPTN=OCQDBLKSIZ,NAME='OCQDBLKSIZ');
      806    27871        %VLP_NAME (FPTN=LGNRTRYNUM,NAME='LGNRTRYNUM');
      807    27898        %VLP_NAME (FPTN=HOPCOST,NAME='HOPCOST');
      808    27925        %VLP_NAME (FPTN=OTPBFRBYTSIZSML,NAME='OTPBFRBYTSIZSML');
      809    27952        %VLP_NAME (FPTN=OTPBFRBYTSIZBIG,NAME='OTPBFRBYTSIZBIG');
      810    27979        %VLP_NAME (FPTN=SSNMAX,NAME='SSNMAX');
      811    28006        %VLP_NAME (FPTN=SPARE,NAME='SPARE');
      812    28033        %VLP_NAME (FPTN=IOBUF,NAME='IOBUF');
      813    28060        %VLP_NAME (FPTN=LINERRLOGBFRLMT,NAME='LINERRLOGBFRLMT');
      814    28087        %VLP_NAME (FPTN=X29MLTMR,NAME='X29MLTMR');
      815    28114        %VLP_NAME (FPTN=IMPTBLMAX,NAME='IMPTBLMAX');
      816    28141        %VLP_NAME (FPTN=BLOCK,NAME='BLOCK');
      817    28168        %VLP_NAME (FPTN=UNBLOCK,NAME='UNBLOCK');
      818    28195        %VLP_NAME (FPTN=USRPARM1,NAME='USRPARM1');
      819    28222        %VLP_NAME (FPTN=USRPARM2,NAME='USRPARM2');
      820    28249        /*%VLP_NAME (FPTN=USRPARM3,NAME='USRPARM3');
PL6.E3A0      #001=KS_TABLES_D File=KS_TABLES_D.:E05TSI                          WED 07/30/97 01:51 Page:54
      821    28250        %VLP_NAME (FPTN=USRPARM4,NAME='USRPARM4');
      822    28251        %VLP_NAME (FPTN=USRPARM5,NAME='USRPARM5');
      823    28252        %VLP_NAME (FPTN=USRPARM6,NAME='USRPARM6');
      824    28253        %VLP_NAME (FPTN=USRPARM7,NAME='USRPARM7');
      825    28254        %VLP_NAME (FPTN=USRPARM8,NAME='USRPARM8');
      826    28255        %VLP_NAME (FPTN=USRPARM9,NAME='USRPARM9');
      827    28256        %VLP_NAME (FPTN=USRPARM10,NAME='USRPARM10');*/
      828    28257
      829    28258        /* usrparm options */
      830    28259
      831    28260        %VLP_NAME ( FPTN = USRPRM1,NAME='USRPRM1');
      832    28287        %VLP_NAME ( FPTN = USRPRM2,NAME='USRPRM2');
      833    28314        %VLP_NAME ( FPTN = USRPRM3,NAME='USRPRM3');
      834    28341        %VLP_NAME ( FPTN = USRPRM4,NAME='USRPRM4');
      835    28368        %VLP_NAME ( FPTN = USRPRM5,NAME='USRPRM5');
      836    28395        %VLP_NAME ( FPTN = USRPRM6,NAME='USRPRM6');
      837    28422        %VLP_NAME ( FPTN = USRPRM7,NAME='USRPRM7');
      838    28449        %VLP_NAME ( FPTN = USRPRM8,NAME='USRPRM8');
      839    28476
      840    28477
      841    28478        /* BLOCK and UNBLOCK Options.
      842    28479        */
      843    28480        %VLP_NAME (FPTN=S50,NAME='S50');
      844    28507        %VLP_NAME (FPTN=S75,NAME='S75');
      845    28534        %VLP_NAME (FPTN=S110,NAME='S110');
      846    28561        %VLP_NAME (FPTN=S134,NAME='S134');
      847    28588        %VLP_NAME (FPTN=S150,NAME='S150');
      848    28615        %VLP_NAME (FPTN=S200,NAME='S200');
      849    28642        %VLP_NAME (FPTN=S300,NAME='S300');
      850    28669        %VLP_NAME (FPTN=S600,NAME='S600');
      851    28696        %VLP_NAME (FPTN=S1050,NAME='S1050');
      852    28723        %VLP_NAME (FPTN=S1200,NAME='S1200');
      853    28750        %VLP_NAME (FPTN=S1800,NAME='S1800');
      854    28777        %VLP_NAME (FPTN=S2000,NAME='S2000');
      855    28804        %VLP_NAME (FPTN=S2400,NAME='S2400');
      856    28831        %VLP_NAME (FPTN=S4800,NAME='S4800');
      857    28858        %VLP_NAME (FPTN=S9600,NAME='S9600');
PL6.E3A0      #001=KS_TABLES_D File=KS_TABLES_D.:E05TSI                          WED 07/30/97 01:51 Page:55
      858    28885        %VLP_NAME (FPTN=S19200,NAME='S19200');
      859    28912    1   END KS_TABLES_D;

PL6.E3A0      #001=KS_TABLES_D File=KS_TABLES_D.:E05TSI                          WED 07/30/97 01:51 Page:56
--  Include file information  --

   CP_6_C.:E05TOU  is referenced.
   CP_6.:E05TOU  cannot be made into a system file and is referenced.
   GI_BOOT_C.:E05TOU  is referenced.
   KL_CONTROL_C.:E05TOU  is referenced.
   KS_MACRO_M.:E05TOU  is referenced.
   KS_SUBS_C.:E05TOU  is referenced.
      No diagnostics issued in procedure KS_TABLES_D.
PL6.E3A0      #001=KS_TABLES_D File=KS_TABLES_D.:E05TSI                          WED 07/30/97 01:51 Page:57

 **** Variables and constants ****

  ****  Section 000  Data  KS_TABLES_D

  ****  Scalars and arrays  ****
OctLoc.c.b A Datatyp(siz) R M Lvl/name                 OctLoc.c.b A Datatyp(siz) R M Lvl/name

  2225-0-0/c STRC(54)    r     1 ACCTS                   2204-0-0/c STRC(63)    r     1 APESSN
  2350-0-0/c STRC(45)    r     1 ATTR                    2451-0-0/c STRC(54)    r     1 BLOCK
  2210-0-0/c STRC(72)    r     1 CBUFFER                 2325-0-0/c STRC(45)    r     1 CMEM
  2332-0-0/c STRC(72)    r     1 CMEM_CG                 2337-0-0/c STRC(90)    r     1 CMEM_GHST
  2334-0-0/c STRC(90)    r     1 CMEM_HAND               2327-0-0/c STRC(90)    r     1 CMEM_USER
  2310-0-0/c STRC(45)    r     1 CUSR                    2315-0-0/c STRC(72)    r     1 CUSR_CG
  2322-0-0/c STRC(90)    r     1 CUSR_GHST               2317-0-0/c STRC(90)    r     1 CUSR_HAND
  2312-0-0/c STRC(90)    r     1 CUSR_USER               2223-0-0/c STRC(72)    r     1 DEVICES
  2234-0-0/c STRC(99)    r     1 DPS8000FLG              2300-0-0/c STRC(45)    r     1 DUMP
  2371-0-0/c STRC(63)    r     1 ERRSND                  2203-0-0/c STRC        r     1 HMI
  2417-0-0/c STRC(72)    r     1 HOPCOST                 2446-0-0/c STRC(90)    r     1 IMPTBLMAX
  2342-0-0/c STRC(63)    r     1 INTLVL                  2435-0-0/c STRC(54)    r     1 IOBUF
  2345-0-0/c STRC(54)    r     1 IOMEM                   2202-0-0/c STRC        r     1 IOP
  2302-0-0/c STRC(90)    r     1 KEEPDELTA                562-0-0/w STRC(4500)  r     1 KS_ASYNC_TBL
  1263-0-0/w STRC(3780)  r     1 KS_BISYNC_TBL            757-0-0/w STRC(2340)  r     1 KS_BLOCK_TBL
    63-0-0/w STRC(2340)  r     1 KS_BOOT_TBL             1434-0-0/w STRC(2916)  r     1 KS_COUPLER_TBL
  1555-0-0/w STRC(4500)  r     1 KS_HDLCX25_TBL           355-0-0/w STRC(4788)  r     1 KS_HNDLR_TBL
   164-0-0/w STRC(4356)  r     1 KS_LCP6_TBL             1752-0-0/w STRC(3204)  r     1 KS_NODEADMIN_TBL
  1060-0-0/w STRC(2340)  r     1 KS_UNBLOCK_TBL          2103-0-0/w STRC(2196)  r     1 KS_UNITREC_TBL
  1161-0-0/w STRC(1188)  r     1 KS_USRPARM1_TBL         1222-0-0/w STRC(1188)  r     1 KS_USRPARM2_TBL
  2200-0-0/c STRC(45)    r     1 LDCT                    2414-0-0/c STRC(99)    r     1 LGNRTRYNUM
  2362-0-0/c STRC(117)   r     1 LINERRDSCLMT            2437-0-0/c STRC(144)   r     1 LINERRLOGBFRLMT
  2356-0-0/c STRC(117)   r     1 LINERRLOGLMT            2406-0-0/c STRC(99)    r     1 MAXICQTIME
  2220-0-0/c STRC(81)    r     1 MAXLINKS                2344-0-0/c STRC        r     1 MEM
  2263-0-0/c STRC(45)    r     1 MMEM                    2270-0-0/c STRC(72)    r     1 MMEM_CG
  2275-0-0/c STRC(90)    r     1 MMEM_GHST               2272-0-0/c STRC(90)    r     1 MMEM_HAND
  2265-0-0/c STRC(90)    r     1 MMEM_USER               2403-0-0/c STRC(90)    r     1 MMRINTCHC
  2214-0-0/c STRC(45)    r     1 MUIS                    2246-0-0/c STRC(45)    r     1 MUSR
  2253-0-0/c STRC(72)    r     1 MUSR_CG                 2260-0-0/c STRC(90)    r     1 MUSR_GHST
  2255-0-0/c STRC(90)    r     1 MUSR_HAND               2250-0-0/c STRC(90)    r     1 MUSR_USER
PL6.E3A0      #001=KS_TABLES_D File=KS_TABLES_D.:E05TSI                          WED 07/30/97 01:51 Page:58
  2216-0-0/c STRC(54)    r     1 NSHUF                   2411-0-0/c STRC(99)    r     1 OCQDBLKSIZ
  2231-0-0/c STRC(90)    r     1 OSIROUTES               2425-0-0/c STRC(144)   r     1 OTPBFRBYTSIZBIG
  2421-0-0/c STRC(144)   r     1 OTPBFRBYTSIZSML         2227-0-0/c STRC(63)    r     1 PCHANS
  2237-0-0/c STRC(45)    r     1 QMIN                    2241-0-0/c STRC(45)    r     1 QUAN
  2375-0-0/c STRC(108)   r     1 RCVCQBYTSIZ             2347-0-0/c STRC        r     1 RES
  2521-0-0/c STRC(54)    r     1 S1050                   2505-0-0/c STRC(45)    r     1 S110
  2523-0-0/c STRC(54)    r     1 S1200                   2507-0-0/c STRC(45)    r     1 S134
  2511-0-0/c STRC(45)    r     1 S150                    2525-0-0/c STRC(54)    r     1 S1800
  2537-0-0/c STRC(63)    r     1 S19200                  2513-0-0/c STRC(45)    r     1 S200
  2527-0-0/c STRC(54)    r     1 S2000                   2531-0-0/c STRC(54)    r     1 S2400
  2515-0-0/c STRC(45)    r     1 S300                    2533-0-0/c STRC(54)    r     1 S4800
  2503-0-0/c STRC        r     1 S50                     2517-0-0/c STRC(45)    r     1 S600
  2504-0-0/c STRC        r     1 S75                     2535-0-0/c STRC(54)    r     1 S9600
  2212-0-0/c STRC(54)    r     1 SFILE                   2305-0-0/c STRC(99)    r     1 SFILE_DATA
  2400-0-0/c STRC(108)   r     1 SNDCQBYTSIZ             2433-0-0/c STRC(54)    r     1 SPARE
  2431-0-0/c STRC(63)    r     1 SSNMAX                  2206-0-0/c STRC(45)    r     1 TCTX
  2366-0-0/c STRC        r     1 TRC                     2373-0-0/c STRC(63)    r     1 TRCBFR
  2352-0-0/c STRC(117)   r     1 TYPAHDBFRLMT            2453-0-0/c STRC(72)    r     1 UNBLOCK
  2455-0-0/c STRC(81)    r     1 USRPARM1                2460-0-0/c STRC(81)    r     1 USRPARM2
  2463-0-0/c STRC(72)    r     1 USRPRM1                 2465-0-0/c STRC(72)    r     1 USRPRM2
  2467-0-0/c STRC(72)    r     1 USRPRM3                 2471-0-0/c STRC(72)    r     1 USRPRM4
  2473-0-0/c STRC(72)    r     1 USRPRM5                 2475-0-0/c STRC(72)    r     1 USRPRM6
  2477-0-0/c STRC(72)    r     1 USRPRM7                 2501-0-0/c STRC(72)    r     1 USRPRM8
  2367-0-0/c STRC(63)    r     1 VDHTRC                  2443-0-0/c STRC(81)    r     1 X29MLTMR
  2243-0-0/c STRC(81)    r     1 XCONTIME


   No code generated for procedure KS_TABLES_D .
   Procedure KS_TABLES_D is declared NOAUTO and requires 1378 words of local(STATIC) storage.

    No errors detected in file KS_TABLES_D.:E05TSI    .
PL6.E3A0      #001=KS_TABLES_D File=KS_TABLES_D.:E05TSI                          WED 07/30/97 01:51 Page:59
          *** CROSS REFERENCE LISTING ***
**     DENOTES     IDENTIFIER DEFINITION
<<                 IDENTIFIER'S VALUE SET
>>                 IDENTIFIER'S VALUE USED
<>                 IDENTIFIER SET AND/OR USED
--                 IDENTIFIER REFERENCED
PL6.E3A0      #001=KS_TABLES_D File=KS_TABLES_D.:E05TSI                          WED 07/30/97 01:51 Page:60
          MINI XREF LISTING

ACCTS
     26619**DCL      7748--DCLINIT
APESSN
     26403**DCL      7110--DCLINIT
ATTR
     27545**DCL     10457--DCLINIT 12819--DCLINIT 18456--DCLINIT 20312--DCLINIT 21743--DCLINIT 23951--DCLINIT
     25524--DCLINIT
BLOCK
     28166**DCL     12226--DCLINIT 14588--DCLINIT 23512--DCLINIT
CBUFFER
     26457**DCL      7252--DCLINIT
CMEM
     27298**DCL      9803--DCLINIT
CMEM_CG
     27352**DCL      9943--DCLINIT
CMEM_GHST
     27406**DCL     10083--DCLINIT
CMEM_HAND
     27379**DCL     10013--DCLINIT
CMEM_USER
     27325**DCL      9873--DCLINIT
CUSR
     27163**DCL      9453--DCLINIT
CUSR_CG
     27217**DCL      9593--DCLINIT
CUSR_GHST
     27271**DCL      9733--DCLINIT
CUSR_HAND
     27244**DCL      9663--DCLINIT
CUSR_USER
     27190**DCL      9523--DCLINIT
DEVICES
PL6.E3A0      #001=KS_TABLES_D File=KS_TABLES_D.:E05TSI                          WED 07/30/97 01:51 Page:61
     26592**DCL      7677--DCLINIT
DPS8000FLG
     26700**DCL      7958--DCLINIT
DUMP
     27082**DCL      8962--DCLINIT
ERRSND
     27707**DCL     10882--DCLINIT 13244--DCLINIT 18881--DCLINIT 20737--DCLINIT 22168--DCLINIT 24376--DCLINIT
     25949--DCLINIT
HMI
     26376**DCL      7039--DCLINIT
HOPCOST
     27923**DCL     11662--DCLINIT 14024--DCLINIT 19661--DCLINIT 22948--DCLINIT 25156--DCLINIT
IMPTBLMAX
     28139**DCL     11945--DCLINIT 14307--DCLINIT 19944--DCLINIT 23231--DCLINIT
INTLVL
     27437**DCL     10173--DCLINIT 12535--DCLINIT 18172--DCLINIT 20028--DCLINIT 21459--DCLINIT 23667--DCLINIT
     25240--DCLINIT
IOBUF
     28058**DCL     11236--DCLINIT 13598--DCLINIT 19235--DCLINIT 21091--DCLINIT 22522--DCLINIT 24730--DCLINIT
IOMEM
     27491**DCL     10315--DCLINIT 12677--DCLINIT 18314--DCLINIT 20170--DCLINIT 21601--DCLINIT 23809--DCLINIT
     25382--DCLINIT
IOP
     26349**DCL      6968--DCLINIT
KEEPDELTA
     27109**DCL      9033--DCLINIT
KS_ASYNC_TBL
     12515**DCL      6526--DCLINIT  6621--DCLINIT
KS_BISYNC_TBL
     18152**DCL      6527--DCLINIT  6661--DCLINIT
KS_BLOCK_TBL
     14720**DCL     12266--DCLINIT 12337--DCLINIT 14628--DCLINIT 23552--DCLINIT
KS_BOOT_TBL
      6877**DCL      6523--DCLINIT
KS_COUPLER_TBL
     20008**DCL      6528--DCLINIT  6701--DCLINIT
PL6.E3A0      #001=KS_TABLES_D File=KS_TABLES_D.:E05TSI                          WED 07/30/97 01:51 Page:62
KS_HDLCX25_TBL
     21439**DCL      6529--DCLINIT  6741--DCLINIT
KS_HNDLR_TBL
     10153**DCL      6525--DCLINIT  6581--DCLINIT  6861--DCLINIT
KS_LCP6_TBL
      8020**DCL      6524--DCLINIT
KS_NODEADMIN_TBL
     23647**DCL      6530--DCLINIT  6781--DCLINIT
KS_UNBLOCK_TBL
     15870**DCL     14699--DCLINIT 23623--DCLINIT
KS_UNITREC_TBL
     25220**DCL      6531--DCLINIT  6821--DCLINIT
KS_USRPARM1_TBL
     17015**DCL     12408--DCLINIT
KS_USRPARM2_TBL
     17583**DCL     12479--DCLINIT
LDCT
     26322**DCL      6897--DCLINIT
LGNRTRYNUM
     27896**DCL     11591--DCLINIT 13953--DCLINIT 19590--DCLINIT 22877--DCLINIT 25085--DCLINIT
LINERRDSCLMT
     27626**DCL     10670--DCLINIT 13032--DCLINIT 18669--DCLINIT 20525--DCLINIT 21956--DCLINIT 24164--DCLINIT
     25737--DCLINIT
LINERRLOGBFRLMT
     28085**DCL     11307--DCLINIT 13669--DCLINIT 19306--DCLINIT 21162--DCLINIT 22593--DCLINIT 24801--DCLINIT
LINERRLOGLMT
     27599**DCL     10599--DCLINIT 12961--DCLINIT 18598--DCLINIT 20454--DCLINIT 21885--DCLINIT 24093--DCLINIT
     25666--DCLINIT
MAXICQTIME
     27842**DCL     11449--DCLINIT 13811--DCLINIT 19448--DCLINIT 21304--DCLINIT 22735--DCLINIT 24943--DCLINIT
MAXLINKS
     26565**DCL      7606--DCLINIT
MEM
     27464**DCL     10244--DCLINIT 12606--DCLINIT 18243--DCLINIT 20099--DCLINIT 21530--DCLINIT 23738--DCLINIT
     25311--DCLINIT
MMEM
PL6.E3A0      #001=KS_TABLES_D File=KS_TABLES_D.:E05TSI                          WED 07/30/97 01:51 Page:63
     26947**DCL      8608--DCLINIT
MMEM_CG
     27001**DCL      8750--DCLINIT
MMEM_GHST
     27055**DCL      8892--DCLINIT
MMEM_HAND
     27028**DCL      8821--DCLINIT
MMEM_USER
     26974**DCL      8679--DCLINIT
MMRINTCHC
     27815**DCL     11166--DCLINIT 13528--DCLINIT 19165--DCLINIT 21021--DCLINIT 22452--DCLINIT 24660--DCLINIT
     26233--DCLINIT
MUIS
     26511**DCL      7394--DCLINIT
MUSR
     26812**DCL      8253--DCLINIT
MUSR_CG
     26866**DCL      8395--DCLINIT
MUSR_GHST
     26920**DCL      8537--DCLINIT
MUSR_HAND
     26893**DCL      8466--DCLINIT
MUSR_USER
     26839**DCL      8324--DCLINIT
NSHUF
     26538**DCL      7465--DCLINIT
OCQDBLKSIZ
     27869**DCL     11520--DCLINIT 13882--DCLINIT 19519--DCLINIT 21375--DCLINIT 22806--DCLINIT 25014--DCLINIT
OSIROUTES
     26673**DCL      7888--DCLINIT
OTPBFRBYTSIZBIG
     27977**DCL     11804--DCLINIT 14166--DCLINIT 19803--DCLINIT 23090--DCLINIT
OTPBFRBYTSIZSML
     27950**DCL     11733--DCLINIT 14095--DCLINIT 19732--DCLINIT 23019--DCLINIT
PCHANS
     26646**DCL      7818--DCLINIT
PL6.E3A0      #001=KS_TABLES_D File=KS_TABLES_D.:E05TSI                          WED 07/30/97 01:51 Page:64
QMIN
     26731**DCL      8040--DCLINIT
QUAN
     26758**DCL      8111--DCLINIT
RCVCQBYTSIZ
     27761**DCL     11024--DCLINIT 13386--DCLINIT 19023--DCLINIT 20879--DCLINIT 22310--DCLINIT 24518--DCLINIT
     26091--DCLINIT
RES
     27518**DCL     10386--DCLINIT 12748--DCLINIT 18385--DCLINIT 20241--DCLINIT 21672--DCLINIT 23880--DCLINIT
     25453--DCLINIT
S1050
     28721**DCL     15308--DCLINIT 16458--DCLINIT
S110
     28559**DCL     14882--DCLINIT 16032--DCLINIT
S1200
     28748**DCL     15379--DCLINIT 16529--DCLINIT
S134
     28586**DCL     14953--DCLINIT 16103--DCLINIT
S150
     28613**DCL     15024--DCLINIT 16174--DCLINIT
S1800
     28775**DCL     15450--DCLINIT 16600--DCLINIT
S19200
     28910**DCL     15805--DCLINIT 16955--DCLINIT
S200
     28640**DCL     15095--DCLINIT 16245--DCLINIT
S2000
     28802**DCL     15521--DCLINIT 16671--DCLINIT
S2400
     28829**DCL     15592--DCLINIT 16742--DCLINIT
S300
     28667**DCL     15166--DCLINIT 16316--DCLINIT
S4800
     28856**DCL     15663--DCLINIT 16813--DCLINIT
S50
     28505**DCL     14740--DCLINIT 15890--DCLINIT
PL6.E3A0      #001=KS_TABLES_D File=KS_TABLES_D.:E05TSI                          WED 07/30/97 01:51 Page:65
S600
     28694**DCL     15237--DCLINIT 16387--DCLINIT
S75
     28532**DCL     14811--DCLINIT 15961--DCLINIT
S9600
     28883**DCL     15734--DCLINIT 16884--DCLINIT
SFILE
     26484**DCL      7323--DCLINIT
SFILE_DATA
     27136**DCL      9103--DCLINIT
SNDCQBYTSIZ
     27788**DCL     11095--DCLINIT 13457--DCLINIT 19094--DCLINIT 20950--DCLINIT 22381--DCLINIT 24589--DCLINIT
     26162--DCLINIT
SPARE
     28031**DCL      7535--DCLINIT  9173--DCLINIT  9243--DCLINIT  9313--DCLINIT  9383--DCLINIT 12015--DCLINIT
     12085--DCLINIT 12155--DCLINIT 14377--DCLINIT 14447--DCLINIT 14517--DCLINIT 23301--DCLINIT 23371--DCLINIT
     23441--DCLINIT
SSNMAX
     28004**DCL     11875--DCLINIT 14237--DCLINIT 19874--DCLINIT 23161--DCLINIT
TCTX
     26430**DCL      7181--DCLINIT
TRC
     27653**DCL     10740--DCLINIT 13102--DCLINIT 18739--DCLINIT 20595--DCLINIT 22026--DCLINIT 24234--DCLINIT
     25807--DCLINIT
TRCBFR
     27734**DCL     10953--DCLINIT 13315--DCLINIT 18952--DCLINIT 20808--DCLINIT 22239--DCLINIT 24447--DCLINIT
     26020--DCLINIT
TYPAHDBFRLMT
     27572**DCL     10528--DCLINIT 12890--DCLINIT 18527--DCLINIT 20383--DCLINIT 21814--DCLINIT 24022--DCLINIT
     25595--DCLINIT
UNBLOCK
     28193**DCL     12297--DCLINIT 14659--DCLINIT 23583--DCLINIT
USRPARM1
     28220**DCL     12368--DCLINIT
USRPARM2
     28247**DCL     12439--DCLINIT
PL6.E3A0      #001=KS_TABLES_D File=KS_TABLES_D.:E05TSI                          WED 07/30/97 01:51 Page:66
USRPRM1
     28285**DCL     17034--DCLINIT 17602--DCLINIT
USRPRM2
     28312**DCL     17104--DCLINIT 17672--DCLINIT
USRPRM3
     28339**DCL     17174--DCLINIT 17742--DCLINIT
USRPRM4
     28366**DCL     17244--DCLINIT 17812--DCLINIT
USRPRM5
     28393**DCL     17314--DCLINIT 17882--DCLINIT
USRPRM6
     28420**DCL     17384--DCLINIT 17952--DCLINIT
USRPRM7
     28447**DCL     17454--DCLINIT 18022--DCLINIT
USRPRM8
     28474**DCL     17524--DCLINIT 18092--DCLINIT
VDHTRC
     27680**DCL     10811--DCLINIT 13173--DCLINIT 18810--DCLINIT 20666--DCLINIT 22097--DCLINIT 24305--DCLINIT
     25878--DCLINIT
X29MLTMR
     28112**DCL     11378--DCLINIT 13740--DCLINIT 19377--DCLINIT 21233--DCLINIT 22664--DCLINIT 24872--DCLINIT
XCONTIME
     26785**DCL      8182--DCLINIT
