PL6.E3A0      #002=KVC$ADJWND File=KVC$CNC.:E05TSI                               WED 07/30/97 01:56 Page:147
      827        1        /*T***********************************************************/
      828        2        /*T*                                                         */
      829        3        /*T* Copyright (c) Bull HN Information Systems Inc., 1997    */
      830        4        /*T*                                                         */
      831        5        /*T***********************************************************/
      832        6        /*X*     NSO,PLM=3,SQB=Y,AND=Y,ENI=0,SDI=3,MCL=10,CSI=0,ECI=0,IND=0,IAD=3 */
      833        7        KVC$ADJWND: PROC (PRM_WINDOW) ALTRET;
      834        8        /*F* NAME: KVC$ADJWND.
      835        9             PURPOSE: Adjusts the size of the current SRD according to the
      836       10             values in the parameter VLP_WINDOW, all of which are now in
      837       11             incremental form. */
      838       12
      839       13 S      %INCLUDE KV$GLB;
      840       14 S      %INCLUDE KV$GLBCTX;
      841       15 S      %INCLUDE KV_GLBCNS_E;
      842       16 S      %INCLUDE KV$INT;
      843       17 S      %INCLUDE KV$USR;
      844       18        %INCLUDE LCP_6;
      845      209
      846      210        %KV$MRD;
      847      257        %KV$MVD;
      848      301        %KV$MVD (NAME=Y@MVD, STCLASS="BASED(Y@MVD$)");
      849      345        %KV#VD_ORG_E;
      850      353        %KV$RCRLST (NAME=Y@RCRLST);
      851      389        %EQU KV_RCRLST=CHARTEXT('Y@MVD.LINLST$->Y@RCRLST');
      852      390        %KV$PTR;
      853      433        %KV$VDI;
      854      504        %KV$SRD (STCLASS="BASED(Y@SRD$)");
      855      779        %EQU KV_SRD=CHARTEXT('KV$SRD');
      856      780        %KV$SRD (NAME=Y@SRD, STCLASS="BASED(VLP@WINDOW.FWINDOW$)");
      857     1055        %KV$SSN;
      858     1134        %KV$STR;
      859     1221        %KV$USR_ERS (NAME=KV_USR_ERS, STCLASS=SYMREF);
      860     1325    1   DCL KVC$DRWBRD ENTRY;
      861     1326    1   DCL KVV$CALUSR ENTRY(1) ALTRET;
      862     1327
      863     1328        %VLP_WINDOW (FPTN=PRM_WINDOW, STCLASS=PARAM);
PL6.E3A0      #002=KVC$ADJWND File=KVC$CNC.:E05TSI                               WED 07/30/97 01:56 Page:148
      864     1372    1   DCL Y@MVD$ PTR;
      865     1373    1   DCL Y@SRD$ PTR;
      866     1374    1   DCL U$ PTR;                             /* Ptr to various things              */
      867     1375    1   DCL T$ PTR;                             /* Ptr to other things                */
      868     1376
      869     1377        %VLP_WINDOW (FPTN=VLP@WINDOW, STCLASS=AUTO, FILCHRS=0);
      870     1421    1   DCL Y@S$(0:15) PTR;
      871     1422    1   DCL Y@ORG(0:15) BIT(1) UNAL;
      872     1423    1   DCL Y@X SBIN;
      873     1424        %KV$USR_ERS (NAME=KV@USR_ERS, STCLASS=AUTO);
      874     1528        %EJECT;
PL6.E3A0      #002=KVC$ADJWND File=KVC$CNC.:E05TSI                               WED 07/30/97 01:56 Page:149
      875     1529    1      Y@MVD$ = KV$PTR.MVD$;
      876     1530    1      Y@SRD$ = KV$PTR.SRD$;
      877     1531
      878     1532        /* First make sure erases happen for existing empty windows. */
      879     1533
      880     1534    1      IF %KV_SRD.WDT=0 OR %KV_SRD.LNG=0 THEN %KV_SRD.UNKPST = '1'B;
      881     1535    1      IF Y@MVD.SRD$=Y@SRD$
      882     1536
      883     1537        /* Not called from here (to make/take space in another window */
      884     1538
      885     1539    2      THEN IF PRM_WINDOW.POSITION~=0 THEN DO;
      886     1540
      887     1541        /* This is the first time for this window. We know where to get the space. */
      888     1542
      889     1543    2         VLP@WINDOW.FWINDOW$ = PRM_WINDOW.FWINDOW$;
      890     1544    2         VLP@WINDOW.POSITION = 5-PRM_WINDOW.POSITION;
      891     1545    2         IF VLP@WINDOW.POSITION=%G_POSITION_TOP#
      892     1546    2           OR VLP@WINDOW.POSITION=%G_POSITION_BOTTOM#
      893     1547    2         THEN IF PRM_WINDOW.LENGTH<=0
      894     1548    2           OR PRM_WINDOW.LENGTH>VLP@WINDOW.FWINDOW$->KV$SRD.LNG
      895     1549    2         THEN PRM_WINDOW.LENGTH=VLP@WINDOW.FWINDOW$->KV$SRD.LNG-1;
      896     1550    2         ELSE;
      897     1551    2         ELSE IF PRM_WINDOW.WIDTH<=0
      898     1552    2           OR PRM_WINDOW.WIDTH>VLP@WINDOW.FWINDOW$->KV$SRD.WDT
      899     1553    2         THEN PRM_WINDOW.WIDTH=(VLP@WINDOW.FWINDOW$->KV$SRD.SRDEND.CLM -
      900     1554    2           VLP@WINDOW.FWINDOW$->KV$SRD.ORG.CLM)/2;
      901     1555    2         %KV_SRD.UNKPST = '0'B;  /* New windows don't erase if the cursors in it */
      902     1556    2      END;
      903     1557    2      ELSE DO;
      904     1558
      905     1559        /* Modify specifying an existing window as "where to get it from". */
      906     1560
      907     1561    2         VLP@WINDOW.POSITION = 0;
      908     1562    2         VLP@WINDOW.FWINDOW$ = PRM_WINDOW.FWINDOW$;
      909     1563    2         IF VLP@WINDOW.FWINDOW$~=Y@SRD$ AND VLP@WINDOW.FWINDOW$~=ADDR(NIL)
      910     1564    3         THEN IF PRM_WINDOW.LENGTH~=0 THEN DO;
      911     1565    3            IF Y@SRD.ORG.CLM=%KV_SRD.ORG.CLM
PL6.E3A0      #002=KVC$ADJWND File=KVC$CNC.:E05TSI                               WED 07/30/97 01:56 Page:150
      912     1566    3              AND Y@SRD.SRDEND.CLM=%KV_SRD.SRDEND.CLM
      913     1567        /* Anything non-zero will do ... Y$FNDSPCLNG will get it right. */
      914     1568    3            THEN VLP@WINDOW.POSITION = %G_POSITION_TOP#;
      915     1569    3         END;
      916     1570    2         ELSE IF Y@SRD.ORG.LIN=%KV_SRD.ORG.LIN
      917     1571    2           AND Y@SRD.SRDEND.LIN=%KV_SRD.SRDEND.LIN
      918     1572        /* Anything non-zero will do ... Y$FNDSPCWDT will get it right. */
      919     1573    2         THEN VLP@WINDOW.POSITION = %G_POSITION_LEFT#;
      920     1574    2      END;
      921     1575    2      ELSE DO;
      922     1576    2         Y@MVD$ = %KV_MRD.MVD$;
      923     1577    3         DO WHILE Y@MVD.SRD$~=Y@SRD$;
      924     1578    3            Y@MVD$ = Y@MVD.LNK$;
      925     1579    3         END;
      926     1580    2         VLP@WINDOW.POSITION = 5-PRM_WINDOW.POSITION;
      927     1581    2         VLP@WINDOW.FWINDOW$ = ADDR(NIL);
      928     1582    2      END;
      929     1583
      930     1584    1      KV@USR_ERS = KV_USR_ERS;
      931     1585    1      KV@USR_ERS.TOPLFT_PST = %KV_SRD.ORG_PST+%BITBIN('10001'X);
      932     1586    1      KV@USR_ERS.BTMRHT = %KV_SRD.SRDEND;
      933     1587
      934     1588    2      IF PRM_WINDOW.LENGTH~=0 THEN DO;
      935     1589
      936     1590        /* Adjust the length. */
      937     1591
      938     1592    2         VLP@WINDOW.LENGTH = -PRM_WINDOW.LENGTH;
      939     1593    2         VLP@WINDOW.WIDTH = 0;
      940     1594    2         IF %KV_SRD.LNG-VLP@WINDOW.LENGTH<%KV_SRD.MINLNG
      941     1595    2         THEN IF %KV_SRD.OPT
      942     1596    2         THEN VLP@WINDOW.LENGTH = %KV_SRD.SRDEND.LIN-%KV_SRD.ORG.LIN;
      943     1597    2         ELSE VLP@WINDOW.LENGTH = %KV_SRD.LNG-%KV_SRD.MINLNG;
      944     1598
      945     1599    2         IF KV$PTR.MVD$=Y@MVD$ THEN CALL Y$FNDSPCLNG;
      946     1600
      947     1601    2         IF Y@MVD.ORG=%KV#VD_ORG_SE AND %KV_RCRLST.LSTRCR>=0
      948     1602    2         THEN %KV_RCRLST.LSTRCR = %KV_RCRLST.FRSRCR-1;
PL6.E3A0      #002=KVC$ADJWND File=KVC$CNC.:E05TSI                               WED 07/30/97 01:56 Page:151
      949     1603    3         IF VLP@WINDOW.POSITION=%G_POSITION_TOP# THEN DO;
      950     1604
      951     1605        /* The adjustment is to be done on ORG_PST. */
      952     1606
      953     1607    3            IF Y@MVD.ORG=%KV#VD_ORG_FORM THEN VLP@WINDOW.LENGTH = 0;
      954     1608    3            KV@USR_ERS.BTMRHT.LIN = %KV_SRD.TOPLFT.LIN-1;
      955     1609    3            KV@USR_ERS.TOPLFT.LIN = KV@USR_ERS.TOPLFT.LIN+VLP@WINDOW.LENGTH;
      956     1610    3            %KV_SRD.ORG.LIN = KV@USR_ERS.TOPLFT.LIN-1;
      957     1611    3            %KV_SRD.TOPLFT.LIN = KV@USR_ERS.TOPLFT.LIN;
      958     1612    3            IF %KV_SRD.TOPBRD
      959     1613    3            THEN %KV_SRD.TOPLFT.LIN = %KV_SRD.TOPLFT.LIN+%KV_SRD.HBRDSIZ;
      960     1614    3            Y@X = %KV_SRD.TOPLFT.LIN-%KV_SRD.DVCLINBIS;
      961     1615    3            IF %KV_SRD.CRT.LIN<Y@X
      962     1616    3              OR %KV_SRD.HI_NONBLN.LIN<Y@X
      963     1617    3              OR %KV_SRD.CRTVRTLINPHSLIN<Y@X
      964     1618    3            THEN %KV_SRD.UNKPST = '1'B;
      965     1619    3            ELSE IF %KV_SRD.DVCLINBIS>0
      966     1620    3              AND (%KV_SRD.CRT.LIN<%KV_SRD.TOPLFT.LIN
      967     1621    3              OR %KV_SRD.CRTVRTLINPHSLIN<%KV_SRD.TOPLFT.LIN)
      968     1622    4            THEN DO;
      969     1623    4               Y@X = %KV_SRD.TOPLFT.LIN
      970     1624    4                 -MINIMUM(%KV_SRD.CRT.LIN,%KV_SRD.CRTVRTLINPHSLIN);
      971     1625    4               %KV_SRD.CRT.LIN = %KV_SRD.CRT.LIN+Y@X;
      972     1626    4               %KV_SRD.CRTVRTLINPHSLIN = %KV_SRD.CRTVRTLINPHSLIN+Y@X;
      973     1627    4               %KV_SRD.HI_NONBLN.LIN = %KV_SRD.HI_NONBLN.LIN+Y@X;
      974     1628    4               %KV_SRD.DVCLINBIS = %KV_SRD.DVCLINBIS-Y@X;
      975     1629    4            END;
      976     1630    3         END;
      977     1631    3         ELSE DO;
      978     1632        /* Adjust BTMRHT */
      979     1633
      980     1634    3            KV@USR_ERS.TOPLFT.LIN = %KV_SRD.BTMRHT.LIN+1;
      981     1635    3            KV@USR_ERS.BTMRHT.LIN = KV@USR_ERS.BTMRHT.LIN-VLP@WINDOW.LENGTH;
      982     1636    3            %KV_SRD.BTMRHT.LIN = %KV_SRD.BTMRHT.LIN-VLP@WINDOW.LENGTH;
      983     1637    3            %KV_SRD.SRDEND.LIN = KV@USR_ERS.BTMRHT.LIN;
      984     1638    3            Y@X = %KV_SRD.BTMRHT.LIN-%KV_SRD.DVCLINBIS;
      985     1639    3            IF %KV_SRD.CRT.LIN>Y@X
PL6.E3A0      #002=KVC$ADJWND File=KVC$CNC.:E05TSI                               WED 07/30/97 01:56 Page:152
      986     1640    3              OR %KV_SRD.HI_NONBLN.LIN>Y@X
      987     1641    3              OR %KV_SRD.CRTVRTLINPHSLIN>Y@X
      988     1642    3            THEN %KV_SRD.UNKPST = '1'B;
      989     1643    3         END;
      990     1644    2         CALL Y$FIXWDT;                    /* Decide whether to scroll           */
      991     1645    2         PRM_WINDOW.LENGTH = -VLP@WINDOW.LENGTH;
      992     1646    2         IF VLP@WINDOW.LENGTH=0 THEN ALTRETURN;
      993     1647    2         IF %KV_SRD.BTMRHT.LIN<%KV_SRD.TOPLFT.LIN THEN %KV_SRD.LNG = 0;
      994     1648    2         ELSE %KV_SRD.LNG = %KV_SRD.BTMRHT.LIN-%KV_SRD.TOPLFT.LIN+1;
      995     1649    2         IF PRM_WINDOW.LENGTH<=0 OR %KV_SRD.LNG=0 THEN GOTO NO_ERASE;
      996     1650    2      END; ELSE IF PRM_WINDOW.WIDTH~=0 THEN DO;
      997     1651
      998     1652        /* Adjust the width. */
      999     1653
     1000     1654    2         VLP@WINDOW.WIDTH = -PRM_WINDOW.WIDTH;
     1001     1655    2         VLP@WINDOW.LENGTH = 0;
     1002     1656    2         IF %KV_SRD.WDT-VLP@WINDOW.WIDTH<%KV_SRD.MINWDT
     1003     1657    2         THEN IF %KV_SRD.OPT OR %KV_SRD.MINWDT=0
     1004     1658    2         THEN VLP@WINDOW.WIDTH = %KV_SRD.SRDEND.CLM-%KV_SRD.ORG.CLM;
     1005     1659    2         ELSE VLP@WINDOW.WIDTH = %KV_SRD.WDT-%KV_SRD.MINWDT;
     1006     1660
     1007     1661    2         IF KV$PTR.MVD$=Y@MVD$ THEN CALL Y$FNDSPCWDT;
     1008     1662
     1009     1663    2         IF Y@MVD.ORG=%KV#VD_ORG_SE AND %KV_RCRLST.LSTRCR>=0
     1010     1664    2         THEN %KV_RCRLST.LSTRCR = %KV_RCRLST.FRSRCR-1;
     1011     1665    3         IF VLP@WINDOW.POSITION=%G_POSITION_LEFT# THEN DO;
     1012     1666
     1013     1667        /* The adjustment is to be done on ORG_PST. */
     1014     1668
     1015     1669    3            KV@USR_ERS.BTMRHT.CLM = KV@USR_ERS.TOPLFT.CLM-1;
     1016     1670    3            KV@USR_ERS.TOPLFT.CLM = KV@USR_ERS.TOPLFT.CLM+VLP@WINDOW.WIDTH;
     1017     1671    3            %KV_SRD.ORG.CLM = KV@USR_ERS.TOPLFT.CLM-1;
     1018     1672    3            %KV_SRD.TOPLFT.CLM = %KV_SRD.TOPLFT.CLM+VLP@WINDOW.WIDTH;
     1019     1673    3            IF %KV_SRD.CRT.CLM<KV@USR_ERS.TOPLFT.CLM
     1020     1674    3              OR %KV_SRD.HI_NONBLN.CLM<KV@USR_ERS.TOPLFT.CLM
     1021     1675    3            THEN %KV_SRD.UNKPST = '1'B;
     1022     1676    3         END;
PL6.E3A0      #002=KVC$ADJWND File=KVC$CNC.:E05TSI                               WED 07/30/97 01:56 Page:153
     1023     1677    3         ELSE DO;
     1024     1678        /* Adjust BTMRHT */
     1025     1679
     1026     1680    3            KV@USR_ERS.TOPLFT.CLM = %KV_SRD.BTMRHT.CLM+1;
     1027     1681    3            KV@USR_ERS.BTMRHT.CLM = KV@USR_ERS.BTMRHT.CLM-VLP@WINDOW.WIDTH;
     1028     1682    3            %KV_SRD.BTMRHT.CLM = %KV_SRD.BTMRHT.CLM-VLP@WINDOW.WIDTH;
     1029     1683    3            %KV_SRD.SRDEND.CLM = KV@USR_ERS.BTMRHT.CLM;
     1030     1684    3            IF %KV_SRD.CRT.CLM>%KV_SRD.BTMRHT.CLM
     1031     1685    3              OR %KV_SRD.HI_NONBLN.CLM>%KV_SRD.BTMRHT.CLM
     1032     1686    3            THEN %KV_SRD.UNKPST = '1'B;
     1033     1687    3         END;
     1034     1688    2         IF %KV_SRD.BTMRHT.CLM>=%KV_SRD.TOPLFT.CLM
     1035     1689    2         THEN %KV_SRD.WDT = %KV_SRD.BTMRHT.CLM-%KV_SRD.TOPLFT.CLM+1;
     1036     1690    2         ELSE %KV_SRD.WDT = 0;
     1037     1691        /* Fix the MVDs, too. */
     1038     1692    2         CALL Y$FIXWDT;
     1039     1693    2         PRM_WINDOW.WIDTH = -VLP@WINDOW.WIDTH;
     1040     1694    2         IF VLP@WINDOW.WIDTH=0 THEN ALTRETURN;
     1041     1695    2         IF PRM_WINDOW.WIDTH<=0 OR %KV_SRD.WDT=0 THEN GOTO NO_ERASE;
     1042     1696    3         IF %KV_SRD.UNKPST THEN DO;
     1043     1697
     1044     1698        /* The cursor went nuts. fix it. */
     1045     1699
     1046     1700    3            %KV_SRD.CRT.CLM = %KV_SRD.TOPLFT.CLM;
     1047     1701    3         END;
     1048     1702    2      END;
     1049     1703        /* We extended the window, and it wasn't empty.  Erase the added space. */
     1050     1704
     1051     1705    1      KV@USR_ERS.BGNPHSCLM = KV@USR_ERS.TOPLFT.CLM;
     1052     1706    1      KV@USR_ERS.ENDPHSCLM = KV@USR_ERS.BTMRHT.CLM;
     1053     1707    1      %KV_SRD.HI_NONBLN.LIN = %KV_SRD.HI_NONBLN.LIN+127;
     1054     1708    2      IF %KV_SRD.BRDEXS THEN DO;
     1055     1709        /* Make sure we can position to all the extension area */
     1056     1710    2         %KV_SRD.BTMRHT = %KV_SRD.SRDEND;
     1057     1711    2         %KV_SRD.TOPLFT_PST = %KV_SRD.ORG_PST+%BITBIN('10001'X);
     1058     1712        /* KVC$DRWBRD will fix up the boundaries later */
     1059     1713    2      END;
PL6.E3A0      #002=KVC$ADJWND File=KVC$CNC.:E05TSI                               WED 07/30/97 01:56 Page:154
     1060     1714    1      CALL KVV$CALUSR (KV@USR_ERS);
     1061     1715    1      %KV_SRD.HI_NONBLN.LIN = %KV_SRD.HI_NONBLN.LIN-127;
     1062     1716    1   NO_ERASE:;
     1063     1717    2      IF %KV_SRD.UNKPST THEN DO;
     1064     1718
     1065     1719        /* The cursor went nuts. fix it. */
     1066     1720    2         CALL Y$FIXPST;
     1067     1721    2      END;
     1068     1722    1      IF PRM_WINDOW.LENGTH~=0 OR PRM_WINDOW.WIDTH~=0
     1069     1723    2      THEN IF Y@MVD$~=KV$PTR.MVD$ AND %KV_SRD.BRDEXS THEN DO;
     1070     1724    2         Y@SRD$ = KV$PTR.MVD$;
     1071     1725    2         KV$PTR.MVD$ = Y@MVD$;
     1072     1726    2         CALL KVC$DRWBRD;
     1073     1727    2         KV$PTR.MVD$ = Y@SRD$;
     1074     1728    2      END;
     1075     1729    1      ELSE IF %KV_SRD.BRDEXS THEN %KV_SRD.BRDUPD = '1'B;
     1076     1730    1      RETURN;
     1077     1731        %EJECT;
PL6.E3A0      #002=KVC$ADJWND File=KVC$CNC.:E05TSI                               WED 07/30/97 01:56 Page:155
     1078     1732    1   Y$FIXWDT: PROC;
     1079     1733        %EQU Y_MVD=CHARTEXT('Y@MVD');
     1080     1734        %EQU Y_SRD=CHARTEXT('KV$SRD');
     1081     1735        %EQU Y_MRD=CHARTEXT('KV$SRD.MRD$->KV$MRD');
     1082     1736
     1083     1737        /* Notices changes in width affecting the ability to scroll */
     1084     1738
     1085     1739    2      %Y_SRD.UNKRGN = '1'B;
     1086     1740    2      %Y_MVD.WDT = %Y_SRD.WDT;
     1087     1741    3      IF %Y_SRD.BTMRHT.CLM=%Y_MRD.WDT THEN DO;
     1088     1742    3         %Y_SRD.FSTERS = %Y_MRD.FSTERS;
     1089     1743    3         IF %Y_SRD.BTMRHT.CLM=%Y_SRD.WDT THEN %Y_SRD.VRTSCR = '1'B;
     1090     1744    3         ELSE %Y_SRD.VRTSCR = '0'B;
     1091     1745    3      END; ELSE DO;
     1092     1746    3         %Y_SRD.FSTERS = '0'B;
     1093     1747    3         %Y_SRD.VRTSCR = '0'B;
     1094     1748    3      END;
     1095     1749    2      IF %Y_SRD.SCROLL AND (NOT %Y_SRD.VRTSCR
     1096     1750    3        OR NOT %Y_MRD.VRTSCR AND (%Y_SRD.BRDEXS OR %Y_MRD.USRCNT>1)) THEN DO;
     1097     1751    3         %Y_SRD.VRTSCR = '0'B;
     1098     1752    3         %Y_SRD.SCROLL = '0'B;
     1099     1753    3         %Y_SRD.UNKPST = '1'B;
     1100     1754    3         %Y_SRD.CRT.LIN = 0;          /* A bad value so KVC$DRWBRD notices it    */
     1101     1755    3      END; ELSE IF %Y_SRD.VRTSCR AND %Y_SRD.SAVSCROLL THEN DO;
     1102     1756        /* Scrolling might be possible, and it was on originally */
     1103     1757    3         %Y_SRD.VRTSCR = %Y_MRD.VRTSCR;
     1104     1758    3         IF (%Y_SRD.BRDEXS OR %Y_MRD.DSPHEIGHT~=%Y_SRD.BTMRHT.LIN-%Y_SRD.ORG.LIN)
     1105     1759    3           AND NOT %Y_SRD.VRTSCR THEN EXIT;
     1106     1760    3         %Y_SRD.SCROLL = '1'B;
     1107     1761    2      END; ELSE IF %Y_SRD.VRTSCR THEN %Y_SRD.VRTSCR = %Y_MRD.VRTSCR;
     1108     1762    2      RETURN;
     1109     1763        %EJECT;
PL6.E3A0      #002=KVC$ADJWND File=KVC$CNC.:E05TSI                               WED 07/30/97 01:56 Page:156
     1110     1764    2   Y$FIXPST: ENTRY;
     1111     1765
     1112     1766        /* Recovers from invalid position parameters by positioning thru SCREND */
     1113     1767
     1114     1768    3      IF %Y_MVD.ORG>%KV#VD_ORG_X364 THEN DO;
     1115     1769    3         %Y_SRD.UNKPST = '0'B;
     1116     1770    3         RETURN;
     1117     1771    3      END;
     1118     1772    2      IF NOT %Y_SRD.SCROLL THEN %Y_SRD.DVCLINBIS=0;
     1119     1773    2      ELSE %Y_SRD.DVCLINBIS = %Y_SRD.BTMRHT.LIN-%Y_SRD.TOPLFT.LIN;
     1120     1774    2      %Y_SRD.CRT.LIN = %Y_SRD.BTMRHT.LIN-%Y_SRD.DVCLINBIS;
     1121     1775    2      IF %Y_MVD.ORG~=%KV#VD_ORG_X364
     1122     1776    2      THEN %Y_SRD.CRTVRTLINPHSLIN = %Y_SRD.CRT.LIN+1;
     1123     1777    3      ELSE DO;
     1124     1778    3         %Y_SRD.CRTVRTLINPHSLIN = %Y_SRD.CRT.LIN;
     1125     1779    3         %Y_MVD.VRTLIN = %Y_SRD.LNG;
     1126     1780    3      END;
     1127     1781    2      %Y_SRD.HI_NONBLN = %Y_SRD.CRT;
     1128     1782    2      %Y_SRD.VRTPSTOK = '0'B;
     1129     1783    2      %Y_SRD.NXTNONBLNLIN = 255;
     1130     1784    3      IF Y@MVD$=KV$PTR.MVD$ THEN DO;
     1131     1785    3         %Y_SRD.UNKPST = '0'B;
     1132     1786    3         %Y_MVD.VRTCLM = 1;
     1133     1787    3      END;
     1134     1788    2      RETURN;
     1135     1789    2   END Y$FIXWDT;
     1136     1790        %EJECT;
PL6.E3A0      #002=KVC$ADJWND File=KVC$CNC.:E05TSI                               WED 07/30/97 01:56 Page:157
     1137     1791    1   KVC$FIXWDT: ENTRY (PRM_WINDOW) ALTRET;
     1138     1792    1      Y@MVD$ = ADDR(PRM_WINDOW);
     1139     1793    1      Y@SRD$ = Y@MVD.SRD$;
     1140     1794    1      CALL Y$FIXWDT;
     1141     1795    1      RETURN;
     1142     1796
     1143     1797    1   KVC$FIXPST: ENTRY (PRM_WINDOW) ALTRET;
     1144     1798    1      Y@MVD$ = ADDR(PRM_WINDOW);
     1145     1799    1      Y@SRD$ = Y@MVD.SRD$;
     1146     1800    1      CALL Y$FIXPST;
     1147     1801    1      RETURN;
     1148     1802
     1149     1803        %EJECT;
PL6.E3A0      #002=KVC$ADJWND File=KVC$CNC.:E05TSI                               WED 07/30/97 01:56 Page:158
     1150     1804    1   Y$FNDSPCLNG: PROC;
     1151     1805
     1152     1806        /* Finds adjacent windows above and below, building a list of them */
     1153     1807
     1154     1808    2   DCL Y@WDTPLS1 SBIN;
     1155     1809    2   DCL Y@WDTMNS1 SBIN;
     1156     1810    2   DCL Y@TMP SBIN;
     1157     1811    2   DCL Y@RQS SBIN;
     1158     1812    2   DCL Y@DLT SBIN;
     1159     1813    2   DCL Y@DLTU REDEF Y@DLT UBIN;            /* For division by 2                  */
     1160     1814    2   DCL Y@CRT(0:1) SBIN;
     1161     1815    2   DCL Y@CRTU REDEF Y@CRT UBIN(32);
     1162     1816    2   DCL Y@AVL(0:1) SBIN;
     1163     1817    2   DCL 1 Y@T1 REDEF Y@AVL,
     1164     1818    2          2 F(0:15) BIT(1) UNAL,
     1165     1819    2          2 S SBIN;
     1166     1820    2   DCL Y@NSS(0:1) SBIN;
     1167     1821    2   DCL 1 Y@T2 REDEF Y@NSS,
     1168     1822    2          2 T SBIN,
     1169     1823    2          2 F(0:15) REDEF T BIT(1) UNAL,
     1170     1824    2          2 S SBIN;
     1171     1825    2   DCL Y@ORGCLM SBIN;
     1172     1826    2   DCL Y@ENDCLM SBIN;
     1173     1827    2   DCL Y@ORGLIN SBIN;
     1174     1828    2   DCL Y@ENDLIN SBIN;
     1175     1829    2      Y@WDTPLS1 = 0;
     1176     1830    2      Y@WDTMNS1 = 0;
     1177     1831    2      Y@TMP = %Y_MRD.LNG;
     1178     1832    2      Y@RQS = -VLP@WINDOW.LENGTH;
     1179     1833    2      GOTO COMMON;
     1180     1834    2   Y$FNDSPCWDT: ENTRY;
     1181     1835
     1182     1836        /* Same as Y$FNDSPCLNG, but for width modification.
     1183     1837           This code is written for length.  For width use, pointers are adjusted
     1184     1838           to point at the other half of KV$PST items. */
     1185     1839
     1186     1840    2      Y@WDTPLS1 = 1;
PL6.E3A0      #002=KVC$ADJWND File=KVC$CNC.:E05TSI                               WED 07/30/97 01:56 Page:159
     1187     1841    2      Y@WDTMNS1 = -1;
     1188     1842    2      Y@TMP = %Y_MRD.WDT;
     1189     1843    2      Y@RQS = -VLP@WINDOW.WIDTH;
     1190     1844    2   COMMON:;
     1191     1845
     1192     1846        /* First make sure we're not trying to go off the screen. */
     1193     1847
     1194     1848    2      T$ = PINCRW(Y@SRD$,Y@WDTPLS1);
     1195     1849    2      Y@ORGLIN = T$->Y@SRD.ORG.LIN;
     1196     1850    2      Y@ENDLIN = T$->Y@SRD.SRDEND.LIN;
     1197     1851
     1198     1852    2      T$ = PINCRW(Y@SRD$,Y@WDTMNS1);
     1199     1853    2      Y@ORGCLM = T$->Y@SRD.ORG.CLM;
     1200     1854    2      Y@ENDCLM = T$->Y@SRD.SRDEND.CLM;
     1201     1855    2      Y@ORG = '0'B;
     1202     1856    2      Y@NSS = '0'B;
     1203     1857    2      Y@X = 0;
     1204     1858    2      Y@AVL(1) = Y@ORGLIN;
     1205     1859        /* Don't acquire space outside the display area. */
     1206     1860    2      IF Y@WDTMNS1=0 THEN Y@AVL(1) = Y@AVL(1)+%Y_MRD.DSPHEIGHT-Y@TMP;
     1207     1861    2      Y@AVL(0) = Y@TMP-Y@ENDLIN;
     1208     1862    2      Y@CRTU = %BITBIN('7FFF7FFF'X);
     1209     1863    3      IF VLP@WINDOW.POSITION~=0 THEN DO;
     1210     1864    3         Y@X = Y@X+1;
     1211     1865    3         Y@S$(0) = VLP@WINDOW.FWINDOW$;
     1212     1866    3      END;
     1213     1867
     1214     1868        /* Look at all the windows for adjacent ones */
     1215     1869
     1216     1870    2      T$ = %Y_MRD.MVD$;
     1217     1871    3      DO UNTIL T$=ADDR(NIL);
     1218     1872    3         VLP@WINDOW.FWINDOW$ = PINCRW(T$->Y@MVD.SRD$,Y@WDTMNS1);
     1219     1873    3         IF T$~=Y@MVD$ AND Y@SRD.ORG.CLM<Y@ENDCLM
     1220     1874    4           AND Y@SRD.SRDEND.CLM>Y@ORGCLM THEN DO;
     1221     1875
     1222     1876        /* It occupies some of the modification space. */
     1223     1877         /* Set a flag if it doesn't overlap an edge. */
PL6.E3A0      #002=KVC$ADJWND File=KVC$CNC.:E05TSI                               WED 07/30/97 01:56 Page:160
     1224     1878
     1225     1879    4            Y@TMP = 0;
     1226     1880    4            IF Y@SRD.ORG.CLM>=Y@ORGCLM
     1227     1881    4              AND Y@SRD.SRDEND.CLM<=Y@ENDCLM THEN Y@TMP = -1;
     1228     1882
     1229     1883        /* Now see how close it is, and how much we can get from or put into it */
     1230     1884
     1231     1885    4            VLP@WINDOW.FWINDOW$ = PINCRW(T$->Y@MVD.SRD$,Y@WDTPLS1);
     1232     1886    4            Y@DLT = Y@ENDLIN-Y@SRD.ORG.LIN; /* <=0 if past us                    */
     1233     1887    4            IF Y@DLT>0 THEN Y@DLT = Y@ORGLIN-Y@SRD.SRDEND.LIN+1;
     1234     1888
     1235     1889        /* If its adjacent and not overlapping, see how modifyable it is.
     1236     1890           If not, we won't extend into it */
     1237     1891
     1238     1892    5            IF Y@DLTU/2=0 THEN DO;
     1239     1893
     1240     1894        /* First check for moving ORG_PST in a form - we can't handle that. */
     1241     1895
     1242     1896    5               IF T$->Y@MVD.ORG=%KV#VD_ORG_FORM AND Y@DLT=0 THEN EXIT;
     1243     1897
     1244     1898        /* Ignore expansion into overlapping ones, Y@AVL will get set ok below. */
     1245     1899
     1246     1900    5               IF Y@SRD.SRDEND.LIN-Y@SRD.ORG.LIN>0 AND Y@TMP=0 THEN EXIT;
     1247     1901        /* Remember the smallest adjacent one for choosing which way to go. */
     1248     1902
     1249     1903    5               Y@TMP = Y@SRD.SRDEND.LIN-Y@SRD.ORG.LIN;
     1250     1904
     1251     1905        /* Ignore empty windows if this one is also empty, they'll be on t'other side */
     1252     1906
     1253     1907    5               IF Y@TMP=0 AND Y@ENDLIN=Y@ORGLIN THEN GOTO SKIP_IT;
     1254     1908    5               IF Y@DLT=0 THEN Y@CRT(0) = MINIMUM(Y@CRT(0),Y@TMP);
     1255     1909    5               ELSE Y@CRT(1) = MINIMUM(Y@CRT(1),Y@TMP);
     1256     1910
     1257     1911        /* Find out how much we can reduce it. */
     1258     1912
     1259     1913    5               IF NOT T$->Y@MVD.SRD$->Y@SRD.OPT THEN IF Y@WDTPLS1>0
     1260     1914    5               THEN Y@TMP = T$->Y@MVD.SRD$->Y@SRD.WDT-T$->Y@MVD.SRD$->Y@SRD.MINWDT;
PL6.E3A0      #002=KVC$ADJWND File=KVC$CNC.:E05TSI                               WED 07/30/97 01:56 Page:161
     1261     1915    5               ELSE Y@TMP = T$->Y@MVD.SRD$->Y@SRD.LNG-T$->Y@MVD.SRD$->Y@SRD.MINLNG;
     1262     1916
     1263     1917        /* If there's nothing doing here, don't bother */
     1264     1918
     1265     1919    5               IF Y@TMP=0 AND Y@RQS>0
     1266     1920    5                 OR Y@X>SIZEW(Y@S$)/2 AND T$->Y@MVD.SRD$~=Y@S$(0) THEN EXIT;
     1267     1921
     1268     1922
     1269     1923        /* Check whether it is part of our session, then put in the list. */
     1270     1924
     1271     1925    5               VLP@WINDOW.FWINDOW$ = %KV_SSN.STR$;
     1272     1926    6               DO WHILE VLP@WINDOW.FWINDOW$~=ADDR(NIL);
     1273     1927    6                  IF VLP@WINDOW.FWINDOW$->KV$STR.MVD$=T$ THEN EXIT;
     1274     1928    6                  VLP@WINDOW.FWINDOW$ = VLP@WINDOW.FWINDOW$->KV$STR.LNK$;
     1275     1929    6               END;
     1276     1930    5               IF VLP@WINDOW.FWINDOW$=ADDR(NIL) THEN Y@NSS(Y@DLT) = Y@NSS(Y@DLT)+1;
     1277     1931    6               IF T$->Y@MVD.SRD$~=Y@S$(0) OR Y@X=0 THEN DO;
     1278     1932    6                  Y@S$(Y@X) = T$->Y@MVD.SRD$;
     1279     1933    6                  Y@X = Y@X+1;
     1280     1934    6               END;
     1281     1935    6               IF Y@DLT~=0 THEN DO;
     1282     1936    6                  Y@DLT = Y@DLT+Y@TMP;
     1283     1937    6                  IF T$->Y@MVD.SRD$~=Y@S$(0)
     1284     1938    6                  THEN Y@ORG(Y@X-1) = '1'B;
     1285     1939    6                  ELSE Y@ORG(0) = '1'B;
     1286     1940    5               END; ELSE Y@DLT = -Y@TMP;
     1287     1941    5            END;                           /* If adjacent, non-overlapping       */
     1288     1942    4            ELSE IF T$->Y@MVD.SRD$=Y@S$(0) AND Y@X>0
     1289     1943        /* Do nothing if the FWINDOW specification isn't an adjacent window. */
     1290     1944    4            THEN Y@RQS = 0;
     1291     1945    4            Y@DLT = -Y@DLT;
     1292     1946    5            IF Y@DLT<0 THEN DO;
     1293     1947    5               Y@DLT = -Y@DLT-1;
     1294     1948    5               IF Y@DLT<Y@AVL(1) THEN Y@AVL(1) = Y@DLT;
     1295     1949    4            END; ELSE IF Y@DLT<Y@AVL(0) THEN Y@AVL(0) = Y@DLT;
     1296     1950    4         END;                         /* If any overlapping of modification area */
     1297     1951    3   SKIP_IT:;
PL6.E3A0      #002=KVC$ADJWND File=KVC$CNC.:E05TSI                               WED 07/30/97 01:56 Page:162
     1298     1952    3         T$ = T$->Y@MVD.LNK$;
     1299     1953    3      END;
     1300     1954
     1301     1955        /* Now lets see what is available, and pick the best one */
     1302     1956
     1303     1957    2      Y@DLT = 0;
     1304     1958    2      IF %KV_SRD.ADJTOPLFT THEN Y@DLT = Y@DLT-1;
     1305     1959    2      IF Y@NSS(0)~=Y@NSS(1)
     1306     1960    2      THEN IF Y@NSS(0)=0 THEN Y@DLT = 0;
     1307     1961    2      ELSE IF Y@NSS(1)=0 THEN Y@DLT = Y@DLT-1;
     1308     1962    3      IF Y@RQS>0 AND Y@AVL(0)~=Y@AVL(1) THEN DO;
     1309     1963    3         IF Y@AVL(1)=0 THEN Y@DLT = 0;
     1310     1964    3         IF Y@AVL(0)=0 THEN Y@DLT = Y@DLT-1;
     1311     1965    3         IF MINIMUM(Y@AVL(0),Y@AVL(1))>=Y@RQS THEN EXIT;
     1312     1966    3         IF Y@AVL(0)>Y@AVL(1) THEN Y@DLT = 0;
     1313     1967    3         ELSE Y@DLT = Y@DLT-1;
     1314     1968    3      END; ELSE DO;
     1315     1969    3         IF Y@CRT(0)=%BITBIN('7FFF'X)
     1316     1970    3         THEN IF Y@CRT(0)=Y@CRT(1) THEN Y@RQS = 0; /* No shrink if no others     */
     1317     1971    3         ELSE Y@DLT = Y@DLT-1;
     1318     1972    3         ELSE IF Y@CRT(1)=%BITBIN('7FFF'X) THEN Y@DLT = 0;
     1319     1973    3      END;
     1320     1974    2      IF VLP@WINDOW.POSITION=0 AND Y@DLT=0
     1321     1975    3        OR VLP@WINDOW.POSITION~=0 AND NOT Y@ORG(0) THEN DO;
     1322     1976    3         IF Y@AVL(0)<Y@RQS THEN Y@RQS = Y@AVL(0);
     1323     1977    3         Y@T2.T = 0;                  /* Make a mask for the ones that matter    */
     1324     1978    3         Y@T2.F(Y@X-1) = '1'B;
     1325     1979    3         Y@T2.T = -Y@T2.T;                 /* Y@T2.T and Y@T2.F are REDEFs       */
     1326     1980    3         Y@ORG = Y@ORG\Y@T2.F;             /* Pick only the BTMRHT ones.         */
     1327     1981    3         VLP@WINDOW.POSITION = %G_POSITION_BOTTOM#-Y@WDTPLS1;
     1328     1982    3      END; ELSE DO;
     1329     1983    3         IF Y@AVL(1)<Y@RQS THEN Y@RQS = Y@AVL(1);
     1330     1984    3         VLP@WINDOW.POSITION = %G_POSITION_TOP#+Y@WDTPLS1;
     1331     1985    3         Y@CRT(0) = Y@CRT(1);
     1332     1986    3      END;
     1333     1987
     1334     1988        /* If we're shrinking from empty windows, make sure we only do one for each
PL6.E3A0      #002=KVC$ADJWND File=KVC$CNC.:E05TSI                               WED 07/30/97 01:56 Page:163
     1335     1989           position along the edge, since they all look ok. */
     1336     1990
     1337     1991    2      IF Y@CRT(0)>0 OR Y@X=1 THEN GOTO DO_MODS;
     1338     1992        /* First sort by starting position along the edge,
     1339     1993           noting the empty ones in Y@T1.F, and resetting Y@ORG for non_empty ones that
     1340     1994           overlap empty ones, and for empty ones that overlap the edges of this one. */
     1341     1995    2      Y@T1 = '0'B;
     1342     1996    3      DO Y@TMP=0 TO Y@X-1;
     1343     1997    4         IF Y@ORG(Y@TMP) THEN DO;
     1344     1998    4            U$ = PINCRW(Y@S$(Y@TMP),Y@WDTMNS1);
     1345     1999    5            DO Y@DLT=Y@TMP+1 TO Y@X-1;
     1346     2000    5               IF Y@ORG(Y@DLT)
     1347     2001    5               THEN IF PINCRW(Y@S$(Y@DLT),Y@WDTMNS1)->Y@SRD.ORG.CLM
     1348     2002    6                 < U$->Y@SRD.ORG.CLM THEN DO;
     1349     2003    6                  T$ = U$;
     1350     2004    6                  U$ = PINCRW(Y@S$(Y@DLT),Y@WDTMNS1);
     1351     2005    6                  Y@S$(Y@DLT) = PINCRW(T$,Y@WDTPLS1);
     1352     2006    6               END;                        /* if CLM(Y@DLT) < CLM(Y@TMP)         */
     1353     2007    5            END;                           /* index on Y@DLT                     */
     1354     2008    4            Y@S$(Y@TMP) = PINCRW(U$,Y@WDTPLS1);
     1355     2009    4            T$ = PINCRW(Y@S$(Y@TMP),Y@WDTPLS1);
     1356     2010    5            IF T$->Y@SRD.SRDEND.LIN=T$->Y@SRD.ORG.LIN THEN DO;
     1357     2011    5               Y@T1.F(Y@TMP) = '1'B;
     1358     2012    5               IF Y@TMP>0 AND NOT Y@T1.F(Y@TMP-1)
     1359     2013    5                 AND Y@T1.S>U$->Y@SRD.ORG.CLM
     1360     2014    5               THEN Y@ORG(Y@TMP-1) = '0'B; /* This empty overlaps that non_empty. */
     1361     2015    5               IF U$->Y@SRD.ORG.CLM<Y@ORGCLM OR U$->Y@SRD.SRDEND.CLM>Y@ENDCLM
     1362     2016    5               THEN Y@ORG(Y@TMP) = '0'B;
     1363     2017    5            END;
     1364     2018    4            ELSE IF Y@T1.S>U$->Y@SRD.ORG.CLM
     1365     2019    4            THEN Y@ORG(Y@TMP) = '0'B; /* This non_empty overlaps that empty.     */
     1366     2020    4            IF U$->Y@SRD.SRDEND.CLM>Y@T1.S THEN Y@T1.S = U$->Y@SRD.SRDEND.CLM;
     1367     2021    4         END;                              /* if Y@ORG(Y@TMP)                    */
     1368     2022    3      END; /* index on Y@TMP */
     1369     2023    2      IF NOT Y@ORG THEN Y@RQS = 0;         /* Nothing left to adjust             */
     1370     2024    2      IF NOT Y@ORG OR NOT Y@T1.F THEN GOTO DO_MODS;
     1371     2025        /* Now go through and pick out a set that doesn't overlap. */
PL6.E3A0      #002=KVC$ADJWND File=KVC$CNC.:E05TSI                               WED 07/30/97 01:56 Page:164
     1372     2026    2      Y@T2.F = Y@ORG;                      /* Pick one with a maximal effect     */
     1373     2027    2      Y@T2.S = 0;
     1374     2028    2      Y@ORG = '0'B;
     1375     2029    3      DO UNTIL NOT Y@T2.F;
     1376     2030    3         Y@T1.F = Y@T2.F;
     1377     2031    3         Y@DLT = 0;
     1378     2032    3         Y@T1.S = 511;
     1379     2033    4         DO UNTIL Y@TMP=0;
     1380     2034    4            Y@TMP = Y@TMP-1;
     1381     2035    5            IF Y@T2.F(Y@TMP) THEN DO;
     1382     2036    5               T$ = PINCRW(Y@S$(Y@TMP),Y@WDTMNS1);
     1383     2037    5               IF T$->Y@SRD.SRDEND.CLM>=Y@T1.S
     1384     2038    5               THEN Y@T1.F(Y@TMP) = '0'B;
     1385     2039    6               ELSE DO;
     1386     2040    6                  Y@T1.S = T$->Y@SRD.ORG.CLM+1;
     1387     2041    6                  Y@DLT = Y@DLT+T$->Y@SRD.SRDEND.CLM-T$->Y@SRD.ORG.CLM;
     1388     2042    6                  Y@T2.F(Y@TMP) = '0'B;
     1389     2043    6               END;
     1390     2044    5            END;
     1391     2045    4         END;
     1392     2046    4         IF Y@DLT>=Y@T2.S THEN DO;
     1393     2047    4            Y@T2.S = Y@DLT;
     1394     2048    4            Y@ORG = Y@T1.F;
     1395     2049    4         END;
     1396     2050    3         Y@TMP = Y@X;
     1397     2051    3      END;
     1398     2052    2   DO_MODS:;
     1399     2053
     1400     2054        /* Do the modification(s) */
     1401     2055
     1402     2056    2      IF Y@WDTPLS1~=0 THEN VLP@WINDOW.WIDTH = -Y@RQS;
     1403     2057    2      ELSE VLP@WINDOW.LENGTH = -Y@RQS;
     1404     2058    3      IF Y@RQS~=0 THEN DO WHILE Y@X>0;
     1405     2059    3         Y@X = Y@X-1;
     1406     2060    3         KV$PTR.SRD$ = Y@S$(Y@X);
     1407     2061    3         IF Y@ORG(Y@X) THEN CALL KVC$ADJWND(VLP@WINDOW);
     1408     2062    3      END;
PL6.E3A0      #002=KVC$ADJWND File=KVC$CNC.:E05TSI                               WED 07/30/97 01:56 Page:165
     1409     2063    2      KV$PTR.SRD$ = Y@SRD$;
     1410     2064    2      RETURN;
     1411     2065    2   END Y$FNDSPCLNG;
     1412     2066        %EJECT;
PL6.E3A0      #002=KVC$ADJWND File=KVC$CNC.:E05TSI                               WED 07/30/97 01:56 Page:166
     1413     2067        /*F* NAME: KVC$RLSWND.
     1414     2068             PURPOSE: Releases the screen space occuppied by an SRD. */
     1415     2069
     1416     2070    1   KVC$RLSWND: ENTRY ALTRET;
     1417     2071
     1418     2072        /* Just make a VLP@WINDOW that shrinks this SRD to nothing. */
     1419     2073
     1420     2074    1      Y@SRD$ = KV$PTR.SRD$;
     1421     2075    1      VLP@WINDOW.FWINDOW$ = KV$PTR.SRD$;
     1422     2076    2      IF %KV_MRD.USRCNT=2 THEN DO;
     1423     2077        /*
     1424     2078           If its the penultimate one, make sure the other one will recover all
     1425     2079           the space.
     1426     2080        */
     1427     2081    2         IF %KV_SRD.LNK$=ADDR(NIL) THEN Y@MVD$ = %KV_MRD.SRD$;
     1428     2082    2         ELSE Y@MVD$ = %KV_SRD.LNK$;
     1429     2083    2         IF Y@MVD$->Y@SRD.SRDEND.CLM-Y@MVD$->Y@SRD.ORG.CLM=%KV_MRD.WDT
     1430     2084    2           AND %KV_SRD.SRDEND.CLM-%KV_SRD.ORG.CLM=%KV_MRD.WDT
     1431     2085    2           AND (Y@MVD$->Y@SRD.SRDEND.LIN-%KV_SRD.ORG.LIN>=%KV_MRD.DSPHEIGHT
     1432     2086    2           OR %KV_SRD.SRDEND.LIN-Y@MVD$->Y@SRD.ORG.LIN>=%KV_MRD.DSPHEIGHT)
     1433     2087    2           AND (Y@MVD$->Y@SRD.SRDEND.LIN=%KV_SRD.ORG.LIN
     1434     2088    2           OR Y@MVD$->Y@SRD.ORG.LIN=%KV_SRD.SRDEND.LIN) THEN EXIT;
     1435     2089    2         IF Y@MVD$->Y@SRD.SRDEND.LIN-Y@MVD$->Y@SRD.ORG.LIN>=%KV_MRD.DSPHEIGHT
     1436     2090    2           AND %KV_SRD.ORG.LIN=Y@MVD$->Y@SRD.ORG.LIN
     1437     2091    2           AND %KV_SRD.SRDEND.LIN=Y@MVD$->Y@SRD.SRDEND.LIN
     1438     2092    2           AND (Y@MVD$->Y@SRD.SRDEND.CLM-%KV_SRD.ORG.CLM=%KV_MRD.WDT
     1439     2093    2           OR %KV_SRD.SRDEND.CLM-Y@MVD$->Y@SRD.ORG.CLM>=%KV_MRD.WDT)
     1440     2094    2           AND (Y@MVD$->Y@SRD.SRDEND.CLM=%KV_SRD.ORG.CLM
     1441     2095    2           OR Y@MVD$->Y@SRD.ORG.CLM=%KV_SRD.SRDEND.CLM) THEN EXIT;
     1442     2096        /*
     1443     2097           It wont work.  Make it happen by putting the last one past the last column.
     1444     2098        */
     1445     2099    2         Y@MVD$->Y@SRD.LNG = %KV_MRD.DSPHEIGHT;
     1446     2100    2         Y@MVD$->Y@SRD.SRDEND.LIN = %KV_MRD.LNG;
     1447     2101    2         Y@MVD$->Y@SRD.ORG.LIN = Y@MVD$->Y@SRD.SRDEND.LIN-Y@MVD$->Y@SRD.LNG;
     1448     2102    2         %KV_SRD.ORG.LIN = Y@MVD$->Y@SRD.ORG.LIN;
     1449     2103    2         Y@MVD$->Y@SRD.SRDEND.CLM = %KV_MRD.WDT;
PL6.E3A0      #002=KVC$ADJWND File=KVC$CNC.:E05TSI                               WED 07/30/97 01:56 Page:167
     1450     2104    2         Y@MVD$->Y@SRD.ORG.CLM = Y@MVD$->Y@SRD.SRDEND.CLM;
     1451     2105    2         %KV_SRD.ORG.CLM = 0;
     1452     2106    2         Y@MVD$->Y@SRD.BTMRHT_PST = Y@MVD$->Y@SRD.SRDEND_PST;
     1453     2107    2         %KV_SRD.SRDEND_PST = Y@MVD$->Y@SRD.SRDEND_PST;
     1454     2108    2         Y@MVD$->Y@SRD.TOPLFT_PST = Y@MVD$->Y@SRD.ORG_PST+%BITBIN('10001'X);
     1455     2109    2         Y@MVD$->Y@SRD.WDT = 0;
     1456     2110    2      END;
     1457     2111    1      %KV_SRD.TOPLFT_PST = %KV_SRD.ORG_PST+%BITBIN('10001'X);
     1458     2112    1      %KV_SRD.BTMRHT = %KV_SRD.SRDEND;
     1459     2113    1      %KV_SRD.WDT = %KV_SRD.SRDEND.CLM-%KV_SRD.ORG.CLM;
     1460     2114    1      %KV_SRD.LNG = %KV_SRD.SRDEND.LIN-%KV_SRD.ORG.LIN;
     1461     2115    1      VLP@WINDOW.LENGTH = -%KV_SRD.LNG;
     1462     2116    1      VLP@WINDOW.WIDTH = -%KV_SRD.WDT;
     1463     2117    1      VLP@WINDOW.POSITION = 0;
     1464     2118    1      %KV_SRD.OPT = '1'B;
     1465     2119    1      CALL KVC$ADJWND (VLP@WINDOW);
     1466     2120    2      IF %KV_SRD.LNG~=0 THEN DO;
     1467     2121    2         VLP@WINDOW.LENGTH = 0;       /* That didn't work - try pushing sideways */
     1468     2122    2         CALL KVC$ADJWND (VLP@WINDOW);
     1469     2123    2      END;
     1470     2124    1      RETURN;
     1471     2125    1   END KVC$ADJWND;
     1472     2126        %EOD;

PL6.E3A0      #002=KVC$ADJWND File=KVC$CNC.:E05TSI                               WED 07/30/97 01:56 Page:168
--  Include file information  --

   LCP_6.:E05TOU  cannot be made into a system file and is referenced.
   KV_PRMID_E.:E05TOU  was found in the system file and is never referenced.
   KV_GLBCNS_E.:E05TOU  was found in the system file and is referenced.
   KV$VDO.:E05TOU  was found in the system file and is never referenced.
   KV$VDH.:E05TOU  was found in the system file and is never referenced.
   KV$USR.:E05TOU  was found in the system file and is referenced.
   KV$SND.:E05TOU  was found in the system file and is never referenced.
   KV$INT.:E05TOU  was found in the system file and is referenced.
   KV$GLBCTX.:E05TOU  was found in the system file and is referenced.
   KV$GLB.:E05TOU  was found in the system file and is referenced.
   G_LCP6_E.:E05TOU  was found in the system file and is referenced.
   GT_LCP6_M.:E05TOU  was found in the system file and is referenced.
   KI_CP6.:E05TOU  was found in the system file and is referenced.
   GF_LCP6_M.:E05TOU  was found in the system file and is referenced.
   GM_LCP6_M.:E05TOU  was found in the system file and is referenced.
   GU_LCP6_M.:E05TOU  was found in the system file and is referenced.
   GJ_LCP6_M.:E05TOU  was found in the system file and is referenced.
   GH_LCP6_M.:E05TOU  was found in the system file and is referenced.
      No diagnostics issued in procedure KVC$ADJWND.

   Procedure KVC$ADJWND requires 2178 words for executable code.
   Procedure KVC$ADJWND requires 86 words of local(AUTO) storage.

PL6.E3A0      #002=KVC$ADJWND File=KVC$CNC.:E05TSI                               WED 07/30/97 01:56 Page:169

 Object Unit name= KVC$ADJWND                                 File name= KVC$CNC.:E05TOU
 UTS= JUL 30 '97 01:56:35.44 WED                              Compiler= PL-6/E31         Sev=      00
 SharedLib= :SHARED_LCP6_SYSTEM                               Alt SharedLib=


    ****  Control sections  ****

 Sect   Type Bound  Init  Size HexSiz  Section name
    0   Proc  even  none  2178    882  KVC$ADJWND

    ****  Entry defs  ****

                              Check   Calling
                             calling  sequence
  Sect HexLoc Primary Altret sequence   type   Parms  Name
     0      0   yes    yes     yes      Std        1  KVC$ADJWND
     0    3F6          yes     yes      Std        1  KVC$FIXWDT
     0    408          yes     yes      Std        1  KVC$FIXPST
     0    788          yes     yes      Std        0  KVC$RLSWND

  ****  Entry refs  ****

         Check        Calling
        calling       sequence
Altret sequence SRef   type   Args  Name
 yes     yes           Std       1 KVV$CALUSR
         yes           Std       0 KVC$DRWBRD
                       nStd      0 X6A_AUTO_1
                       nStd      0 X6A_AALT
                       nStd      0 X6A_ARET

  ****  Data refs  ****

  Flags:  r = read only, s = secondary
Flgs Name                             Flgs Name                             Flgs Name
     KV$PTR$                               KV_USR_ERS                       r    G$ROS$
PL6.E3A0      #002=KVC$ADJWND File=KVC$CNC.:E05TSI                               WED 07/30/97 01:56 Page:170


      827        1        /*T***********************************************************/
      828        2        /*T*                                                         */
      829        3        /*T* Copyright (c) Bull HN Information Systems Inc., 1997    */
      830        4        /*T*                                                         */
      831        5        /*T***********************************************************/
      832        6        /*X*     NSO,PLM=3,SQB=Y,AND=Y,ENI=0,SDI=3,MCL=10,CSI=0,ECI=0,IND=0,IAD=3 */
      833        7        KVC$ADJWND: PROC (PRM_WINDOW) ALTRET;

      7   0 000000  D380 0000 0000  xent KVC$ADJWND      LNJ,B5   X6A_AUTO_1
          0 000003       0056 0001                       DC       86,1

      834        8        /*F* NAME: KVC$ADJWND.
      835        9             PURPOSE: Adjusts the size of the current SRD according to the
      836       10             values in the parameter VLP_WINDOW, all of which are now in
      837       11             incremental form. */
      838       12
      839       13 S      %INCLUDE KV$GLB;
      840       14 S      %INCLUDE KV$GLBCTX;
      841       15 S      %INCLUDE KV_GLBCNS_E;
      842       16 S      %INCLUDE KV$INT;
      843       17 S      %INCLUDE KV$USR;
      844       18        %INCLUDE LCP_6;
      845      209
      846      210        %KV$MRD;
      847      257        %KV$MVD;
      848      301        %KV$MVD (NAME=Y@MVD, STCLASS="BASED(Y@MVD$)");
      849      345        %KV#VD_ORG_E;
      850      353        %KV$RCRLST (NAME=Y@RCRLST);
      851      389        %EQU KV_RCRLST=CHARTEXT('Y@MVD.LINLST$->Y@RCRLST');
      852      390        %KV$PTR;
      853      433        %KV$VDI;
      854      504        %KV$SRD (STCLASS="BASED(Y@SRD$)");
      855      779        %EQU KV_SRD=CHARTEXT('KV$SRD');
      856      780        %KV$SRD (NAME=Y@SRD, STCLASS="BASED(VLP@WINDOW.FWINDOW$)");
      857     1055        %KV$SSN;
      858     1134        %KV$STR;
PL6.E3A0      #002=KVC$ADJWND File=KVC$CNC.:E05TSI                               WED 07/30/97 01:56 Page:171
      859     1221        %KV$USR_ERS (NAME=KV_USR_ERS, STCLASS=SYMREF);
      860     1325    1   DCL KVC$DRWBRD ENTRY;
      861     1326    1   DCL KVV$CALUSR ENTRY(1) ALTRET;
      862     1327
      863     1328        %VLP_WINDOW (FPTN=PRM_WINDOW, STCLASS=PARAM);
      864     1372    1   DCL Y@MVD$ PTR;
      865     1373    1   DCL Y@SRD$ PTR;
      866     1374    1   DCL U$ PTR;                             /* Ptr to various things              */
      867     1375    1   DCL T$ PTR;                             /* Ptr to other things                */
      868     1376
      869     1377        %VLP_WINDOW (FPTN=VLP@WINDOW, STCLASS=AUTO, FILCHRS=0);
      870     1421    1   DCL Y@S$(0:15) PTR;
      871     1422    1   DCL Y@ORG(0:15) BIT(1) UNAL;
      872     1423    1   DCL Y@X SBIN;
      873     1424        %KV$USR_ERS (NAME=KV@USR_ERS, STCLASS=AUTO);
      874     1528        %EJECT;
PL6.E3A0      #002=KVC$ADJWND File=KVC$CNC.:E05TSI                               WED 07/30/97 01:56 Page:172
      875     1529    1      Y@MVD$ = KV$PTR.MVD$;

   1529   0 000005  EC80 0000 0000  xsym                 LDB,B6   KV$PTR$
          0 000008  DCC6 0006                            LDB,B5   6,B6
          0 00000A  DFC7 0006                            STB,B5   Y@MVD$,AUTO

      876     1530    1      Y@SRD$ = KV$PTR.SRD$;

   1530   0 00000C  CCC6 000A                            LDB,B4   10,B6
          0 00000E  CFC7 0008                            STB,B4   Y@SRD$,AUTO

      877     1531
      878     1532        /* First make sure erases happen for existing empty windows. */
      879     1533
      880     1534    1      IF %KV_SRD.WDT=0 OR %KV_SRD.LNG=0 THEN %KV_SRD.UNKPST = '1'B;

   1534   0 000010  E844 000D                            LDR,R6   13,B4
          0 000012  6901 0005                            BEZ,R6   s:1534+8,PREL
          0 000014  D2C4 000E                            LLH,R5   14,B4
          0 000016  5981 0004                            BNEZ,R5  s:1535,PREL

   1534   0 000018  8944 001C                            LBT,'4000'X       28,B4
   1534   0 00001A       4000

      881     1535    1      IF Y@MVD.SRD$=Y@SRD$

   1535   0 00001B  BC85                                 LDB,B3   ,B5
          0 00001C  BDC7 0008                            CMB,B3   Y@SRD$,AUTO
          0 00001E  0981 0073                            BNE      s:1576,PREL

      882     1536
      883     1537        /* Not called from here (to make/take space in another window */
      884     1538
      885     1539    2      THEN IF PRM_WINDOW.POSITION~=0 THEN DO;

   1539   0 000020  ACC7 0004                            LDB,B2   @PRM_WINDOW,AUTO
          0 000022  D2C2 0004                            LLH,R5   4,B2
PL6.E3A0      #002=KVC$ADJWND File=KVC$CNC.:E05TSI                               WED 07/30/97 01:56 Page:173
          0 000024  5901 003A                            BEZ,R5   s:1561,PREL

      886     1540
      887     1541        /* This is the first time for this window. We know where to get the space. */
      888     1542
      889     1543    2         VLP@WINDOW.FWINDOW$ = PRM_WINDOW.FWINDOW$;

   1543   0 000026  9C82                                 LDB,B1   ,B2
          0 000027  9FC7 000E                            STB,B1   VLP@WINDOW,AUTO

      890     1544    2         VLP@WINDOW.POSITION = 5-PRM_WINDOW.POSITION;

   1544   0 000029  E2C2 0004                            LLH,R6   4,B2
          0 00002B  8256                                 NEG      R6
          0 00002C  6E05                                 ADV,R6   5
          0 00002D  E7C7 0012                            STH,R6   VLP@WINDOW+4,AUTO

      891     1545    2         IF VLP@WINDOW.POSITION=%G_POSITION_TOP#

   1545   0 00002F  E2C7 0012                            LLH,R6   VLP@WINDOW+4,AUTO
          0 000031  6D01                                 CMV,R6   1
          0 000032  0901 0004                            BE       s:1547,PREL
          0 000034  6D04                                 CMV,R6   4
          0 000035  0981 0011                            BNE      s:1551,PREL

      892     1546    2           OR VLP@WINDOW.POSITION=%G_POSITION_BOTTOM#
      893     1547    2         THEN IF PRM_WINDOW.LENGTH<=0

   1547   0 000037  D842 0002                            LDR,R5   2,B2
          0 000039  5A81 0006                            BLEZ,R5  s:1549,PREL
          0 00003B  C2C1 000E                            LLH,R4   14,B1
          0 00003D  C955                                 CMR,R4   R5
          0 00003E  0881 001B                            BAGE     s:1555,PREL

      894     1548    2           OR PRM_WINDOW.LENGTH>VLP@WINDOW.FWINDOW$->KV$SRD.LNG
      895     1549    2         THEN PRM_WINDOW.LENGTH=VLP@WINDOW.FWINDOW$->KV$SRD.LNG-1;

PL6.E3A0      #002=KVC$ADJWND File=KVC$CNC.:E05TSI                               WED 07/30/97 01:56 Page:174
   1549   0 000040  D2C1 000E                            LLH,R5   14,B1
          0 000042  5EFF                                 ADV,R5   -1
          0 000043  DF42 0002                            STR,R5   2,B2
          0 000045  0F81 0014                            B        s:1555,PREL

      896     1550    2         ELSE;
      897     1551    2         ELSE IF PRM_WINDOW.WIDTH<=0

   1551   0 000047  D842 0003                            LDR,R5   3,B2
          0 000049  5A81 0007                            BLEZ,R5  s:1553,PREL
          0 00004B  5801 000E                            BLZ,R5   s:1555,PREL
          0 00004D  D941 000D                            CMR,R5   13,B1
          0 00004F  0381 000A                            BLE      s:1555,PREL

      898     1552    2           OR PRM_WINDOW.WIDTH>VLP@WINDOW.FWINDOW$->KV$SRD.WDT
      899     1553    2         THEN PRM_WINDOW.WIDTH=(VLP@WINDOW.FWINDOW$->KV$SRD.SRDEND.CLM -

   1553   0 000051  C841 001B                            LDR,R4   27,B1
          0 000053  C241 0008                            SUB,R4   8,B1
          0 000055  C370 0002                            DIV,R4   2,IMO
          0 000057  D854                                 LDR,R5   R4
          0 000058  DF42 0003                            STR,R5   3,B2

      900     1554    2           VLP@WINDOW.FWINDOW$->KV$SRD.ORG.CLM)/2;
      901     1555    2         %KV_SRD.UNKPST = '0'B;  /* New windows don't erase if the cursors in it */

   1555   0 00005A  8844 001C                            LBF,'4000'X       28,B4
   1555   0 00005C       4000

      902     1556    2      END;

   1556   0 00005D  0F81 0056                            B        s:1584,PREL

      903     1557    2      ELSE DO;

      904     1558
      905     1559        /* Modify specifying an existing window as "where to get it from". */
PL6.E3A0      #002=KVC$ADJWND File=KVC$CNC.:E05TSI                               WED 07/30/97 01:56 Page:175
      906     1560
      907     1561    2         VLP@WINDOW.POSITION = 0;

   1561   0 00005F  87C7 0012                            CLH      VLP@WINDOW+4,AUTO

      908     1562    2         VLP@WINDOW.FWINDOW$ = PRM_WINDOW.FWINDOW$;

   1562   0 000061  BC82                                 LDB,B3   ,B2
          0 000062  BFC7 000E                            STB,B3   VLP@WINDOW,AUTO

      909     1563    2         IF VLP@WINDOW.FWINDOW$~=Y@SRD$ AND VLP@WINDOW.FWINDOW$~=ADDR(NIL)

   1563   0 000064  BDC7 0008                            CMB,B3   Y@SRD$,AUTO
          0 000066  0901 004D                            BE       s:1584,PREL
          0 000068  8DC7 000E                            CMN      VLP@WINDOW,AUTO
          0 00006A  0901 0049                            BE       s:1584,PREL

      910     1564    3         THEN IF PRM_WINDOW.LENGTH~=0 THEN DO;

   1564   0 00006C  E842 0002                            LDR,R6   2,B2
          0 00006E  6901 0012                            BEZ,R6   s:1570,PREL

      911     1565    3            IF Y@SRD.ORG.CLM=%KV_SRD.ORG.CLM

   1565   0 000070  D843 0008                            LDR,R5   8,B3
          0 000072  D944 0008                            CMR,R5   8,B4
          0 000074  0981 003F                            BNE      s:1584,PREL
          0 000076  C843 001B                            LDR,R4   27,B3
          0 000078  C944 001B                            CMR,R4   27,B4
          0 00007A  0981 0039                            BNE      s:1584,PREL

      912     1566    3              AND Y@SRD.SRDEND.CLM=%KV_SRD.SRDEND.CLM
      913     1567        /* Anything non-zero will do ... Y$FNDSPCLNG will get it right. */
      914     1568    3            THEN VLP@WINDOW.POSITION = %G_POSITION_TOP#;

   1568   0 00007C  3C01                                 LDV,R3   1
          0 00007D  B7C7 0012                            STH,R3   VLP@WINDOW+4,AUTO
PL6.E3A0      #002=KVC$ADJWND File=KVC$CNC.:E05TSI                               WED 07/30/97 01:56 Page:176

      915     1569    3         END;

   1569   0 00007F  0F81 0034                            B        s:1584,PREL

      916     1570    2         ELSE IF Y@SRD.ORG.LIN=%KV_SRD.ORG.LIN

   1570   0 000081  D843 0007                            LDR,R5   7,B3
          0 000083  D944 0007                            CMR,R5   7,B4
          0 000085  0981 002E                            BNE      s:1584,PREL
          0 000087  C843 001A                            LDR,R4   26,B3
          0 000089  C944 001A                            CMR,R4   26,B4
          0 00008B  0981 0028                            BNE      s:1584,PREL

      917     1571    2           AND Y@SRD.SRDEND.LIN=%KV_SRD.SRDEND.LIN
      918     1572        /* Anything non-zero will do ... Y$FNDSPCWDT will get it right. */
      919     1573    2         THEN VLP@WINDOW.POSITION = %G_POSITION_LEFT#;

   1573   0 00008D  3C02                                 LDV,R3   2
          0 00008E  B7C7 0012                            STH,R3   VLP@WINDOW+4,AUTO

      920     1574    2      END;

   1574   0 000090  0F81 0023                            B        s:1584,PREL

      921     1575    2      ELSE DO;

      922     1576    2         Y@MVD$ = %KV_MRD.MVD$;

   1576   0 000092  ACC6 0008                            LDB,B2   8,B6
          0 000094  9CC2 000D                            LDB,B1   13,B2
          0 000096  9FC7 0006                            STB,B1   Y@MVD$,AUTO

      923     1577    3         DO WHILE Y@MVD.SRD$~=Y@SRD$;

   1577   0 000098  DC81                                 LDB,B5   ,B1
          0 000099  DDC7 0008                            CMB,B5   Y@SRD$,AUTO
PL6.E3A0      #002=KVC$ADJWND File=KVC$CNC.:E05TSI                               WED 07/30/97 01:56 Page:177
          0 00009B  0901 000B                            BE       s:1580,PREL

      924     1578    3            Y@MVD$ = Y@MVD.LNK$;

   1578   0 00009D  ECC7 0006                            LDB,B6   Y@MVD$,AUTO
          0 00009F  DCC6 0002                            LDB,B5   2,B6
          0 0000A1  DFC7 0006                            STB,B5   Y@MVD$,AUTO

      925     1579    3         END;

   1579   0 0000A3  EC85                                 LDB,B6   ,B5
          0 0000A4  EDC7 0008                            CMB,B6   Y@SRD$,AUTO
          0 0000A6  09F7                                 BNE      s:1578,SPREL

      926     1580    2         VLP@WINDOW.POSITION = 5-PRM_WINDOW.POSITION;

   1580   0 0000A7  ECC7 0004                            LDB,B6   @PRM_WINDOW,AUTO
          0 0000A9  E2C6 0004                            LLH,R6   4,B6
          0 0000AB  8256                                 NEG      R6
          0 0000AC  6E05                                 ADV,R6   5
          0 0000AD  E7C7 0012                            STH,R6   VLP@WINDOW+4,AUTO

      927     1581    2         VLP@WINDOW.FWINDOW$ = ADDR(NIL);

   1581   0 0000AF  DB80 0000 0000                       LAB,B5   0
          0 0000B2  DFC7 000E                            STB,B5   VLP@WINDOW,AUTO

      928     1582    2      END;

      929     1583
      930     1584    1      KV@USR_ERS = KV_USR_ERS;

   1584   0 0000B4  AB80 0000 0000  xsym                 LAB,B2   KV_USR_ERS
          0 0000B7  2C00                                 LDV,R2   0
          0 0000B8  6C0E                                 LDV,R6   14
          0 0000B9  BB87                                 LAB,B3   ,AUTO
          0 0000BA  3C74                                 LDV,R3   116
PL6.E3A0      #002=KVC$ADJWND File=KVC$CNC.:E05TSI                               WED 07/30/97 01:56 Page:178
          0 0000BB  0008                                 MMM

      931     1585    1      KV@USR_ERS.TOPLFT_PST = %KV_SRD.ORG_PST+%BITBIN('10001'X);

   1585   0 0000BC  ECC7 0008                            LDB,B6   Y@SRD$,AUTO
          0 0000BE  8CC6 0007                            LDI      7,B6
          0 0000C0  8470 0001 0001                       AID      65537,IMO
          0 0000C3  8D47 003B                            SDI      KV@USR_ERS+1,AUTO

      932     1586    1      KV@USR_ERS.BTMRHT = %KV_SRD.SRDEND;

   1586   0 0000C5  8CC6 001A                            LDI      26,B6
          0 0000C7  8D47 003D                            SDI      KV@USR_ERS+3,AUTO

      933     1587
      934     1588    2      IF PRM_WINDOW.LENGTH~=0 THEN DO;

   1588   0 0000C9  DCC7 0004                            LDB,B5   @PRM_WINDOW,AUTO
          0 0000CB  D845 0002                            LDR,R5   2,B5
          0 0000CD  5901 0109                            BEZ,R5   s:1650+2,PREL

      935     1589
      936     1590        /* Adjust the length. */
      937     1591
      938     1592    2         VLP@WINDOW.LENGTH = -PRM_WINDOW.LENGTH;

   1592   0 0000CF  8255                                 NEG      R5
          0 0000D0  DF47 0010                            STR,R5   VLP@WINDOW+2,AUTO

      939     1593    2         VLP@WINDOW.WIDTH = 0;

   1593   0 0000D2  8747 0011                            CL       VLP@WINDOW+3,AUTO

      940     1594    2         IF %KV_SRD.LNG-VLP@WINDOW.LENGTH<%KV_SRD.MINLNG

   1594   0 0000D4  C2C6 000E                            LLH,R4   14,B6
          0 0000D6  C255                                 SUB,R4   R5
PL6.E3A0      #002=KVC$ADJWND File=KVC$CNC.:E05TSI                               WED 07/30/97 01:56 Page:179
          0 0000D7  B846 001E                            LDR,R3   30,B6
          0 0000D9  B570 00FF                            AND,R3   255,IMO
          0 0000DB  B954                                 CMR,R3   R4
          0 0000DC  0A81 0014                            BALE     s:1599,PREL

      941     1595    2         THEN IF %KV_SRD.OPT

   1595   0 0000DE  89C6 001C                            CMZ      28,B6
          0 0000E0  0881 000A                            BAGE     s:1597,PREL

      942     1596    2         THEN VLP@WINDOW.LENGTH = %KV_SRD.SRDEND.LIN-%KV_SRD.ORG.LIN;

   1596   0 0000E2  C846 001A                            LDR,R4   26,B6
          0 0000E4  C246 0007                            SUB,R4   7,B6
          0 0000E6  D854                                 LDR,R5   R4
          0 0000E7  DF47 0010                            STR,R5   VLP@WINDOW+2,AUTO
          0 0000E9  0F81 0007                            B        s:1599,PREL

      943     1597    2         ELSE VLP@WINDOW.LENGTH = %KV_SRD.LNG-%KV_SRD.MINLNG;

   1597   0 0000EB  C2C6 000E                            LLH,R4   14,B6
          0 0000ED  C253                                 SUB,R4   R3
          0 0000EE  D854                                 LDR,R5   R4
          0 0000EF  DF47 0010                            STR,R5   VLP@WINDOW+2,AUTO

      944     1598
      945     1599    2         IF KV$PTR.MVD$=Y@MVD$ THEN CALL Y$FNDSPCLNG;

   1599   0 0000F1  CC80 0000 0000  xsym                 LDB,B4   KV$PTR$
          0 0000F4  ACC4 0006                            LDB,B2   6,B4
          0 0000F6  ADC7 0006                            CMB,B2   Y@MVD$,AUTO
          0 0000F8  0981 0004                            BNE      s:1601,PREL

   1599   0 0000FA  E3C0 031F                            LNJ,B6   s:0,PREL
          0 0000FC       0001                            DC       s:1601,PREL

      946     1600
PL6.E3A0      #002=KVC$ADJWND File=KVC$CNC.:E05TSI                               WED 07/30/97 01:56 Page:180
      947     1601    2         IF Y@MVD.ORG=%KV#VD_ORG_SE AND %KV_RCRLST.LSTRCR>=0

   1601   0 0000FD  ECC7 0006                            LDB,B6   Y@MVD$,AUTO
          0 0000FF  E2C6 0015                            LLH,R6   21,B6
          0 000101  6D05                                 CMV,R6   5
          0 000102  0981 000C                            BNE      s:1603,PREL
          0 000104  DCC6 0010                            LDB,B5   16,B6
          0 000106  D845 0005                            LDR,R5   5,B5
          0 000108  5801 0006                            BLZ,R5   s:1603,PREL

      948     1602    2         THEN %KV_RCRLST.LSTRCR = %KV_RCRLST.FRSRCR-1;

   1602   0 00010A  D845 0004                            LDR,R5   4,B5
          0 00010C  5EFF                                 ADV,R5   -1
          0 00010D  DF45 0005                            STR,R5   5,B5

      949     1603    3         IF VLP@WINDOW.POSITION=%G_POSITION_TOP# THEN DO;

   1603   0 00010F  E2C7 0012                            LLH,R6   VLP@WINDOW+4,AUTO
          0 000111  6D01                                 CMV,R6   1
          0 000112  0981 006E                            BNE      s:1634,PREL

      950     1604
      951     1605        /* The adjustment is to be done on ORG_PST. */
      952     1606
      953     1607    3            IF Y@MVD.ORG=%KV#VD_ORG_FORM THEN VLP@WINDOW.LENGTH = 0;

   1607   0 000114  D2C6 0015                            LLH,R5   21,B6
          0 000116  5D04                                 CMV,R5   4
          0 000117  0981 0003                            BNE      s:1608,PREL

   1607   0 000119  8747 0010                            CL       VLP@WINDOW+2,AUTO

      954     1608    3            KV@USR_ERS.BTMRHT.LIN = %KV_SRD.TOPLFT.LIN-1;

   1608   0 00011B  DCC7 0008                            LDB,B5   Y@SRD$,AUTO
          0 00011D  C845 0009                            LDR,R4   9,B5
PL6.E3A0      #002=KVC$ADJWND File=KVC$CNC.:E05TSI                               WED 07/30/97 01:56 Page:181
          0 00011F  4EFF                                 ADV,R4   -1
          0 000120  CF47 003D                            STR,R4   KV@USR_ERS+3,AUTO

      955     1609    3            KV@USR_ERS.TOPLFT.LIN = KV@USR_ERS.TOPLFT.LIN+VLP@WINDOW.LENGTH;

   1609   0 000122  D847 003B                            LDR,R5   KV@USR_ERS+1,AUTO
          0 000124  DA47 0010                            ADD,R5   VLP@WINDOW+2,AUTO
          0 000126  DF47 003B                            STR,R5   KV@USR_ERS+1,AUTO

      956     1610    3            %KV_SRD.ORG.LIN = KV@USR_ERS.TOPLFT.LIN-1;

   1610   0 000128  5EFF                                 ADV,R5   -1
          0 000129  DF45 0007                            STR,R5   7,B5

      957     1611    3            %KV_SRD.TOPLFT.LIN = KV@USR_ERS.TOPLFT.LIN;

   1611   0 00012B  E847 003B                            LDR,R6   KV@USR_ERS+1,AUTO
          0 00012D  EF45 0009                            STR,R6   9,B5

      958     1612    3            IF %KV_SRD.TOPBRD

   1612   0 00012F  82C5 001C                            LB,'2000'X        28,B5
   1612   0 000131       2000
          0 000132  0581 000A                            BBF      s:1614,PREL

      959     1613    3            THEN %KV_SRD.TOPLFT.LIN = %KV_SRD.TOPLFT.LIN+%KV_SRD.HBRDSIZ;

   1613   0 000134  C845 001C                            LDR,R4   28,B5
          0 000136  4048                                 SOR,R4   8
          0 000137  C570 000F                            AND,R4   15,IMO
          0 000139  CA56                                 ADD,R4   R6
          0 00013A  E854                                 LDR,R6   R4
          0 00013B  EF45 0009                            STR,R6   9,B5

      960     1614    3            Y@X = %KV_SRD.TOPLFT.LIN-%KV_SRD.DVCLINBIS;

   1614   0 00013D  E245 0019                            SUB,R6   25,B5
PL6.E3A0      #002=KVC$ADJWND File=KVC$CNC.:E05TSI                               WED 07/30/97 01:56 Page:182
          0 00013F  EF47 0039                            STR,R6   Y@X,AUTO

      961     1615    3            IF %KV_SRD.CRT.LIN<Y@X

   1615   0 000141  E945 0015                            CMR,R6   21,B5
          0 000143  0A01 0009                            BAG      s:1618,PREL
          0 000145  E945 0017                            CMR,R6   23,B5
          0 000147  0A01 0005                            BAG      s:1618,PREL
          0 000149  E945 0013                            CMR,R6   19,B5
          0 00014B  0A81 0006                            BALE     s:1619,PREL

      962     1616    3              OR %KV_SRD.HI_NONBLN.LIN<Y@X
      963     1617    3              OR %KV_SRD.CRTVRTLINPHSLIN<Y@X
      964     1618    3            THEN %KV_SRD.UNKPST = '1'B;

   1618   0 00014D  8945 001C                            LBT,'4000'X       28,B5
   1618   0 00014F       4000
          0 000150  0F81 005A                            B        s:1644,PREL

      965     1619    3            ELSE IF %KV_SRD.DVCLINBIS>0

   1619   0 000152  C845 0019                            LDR,R4   25,B5
          0 000154  4A81 0056                            BLEZ,R4  s:1644,PREL
          0 000156  B845 0015                            LDR,R3   21,B5
          0 000158  B945 0009                            CMR,R3   9,B5
          0 00015A  0801 0007                            BAL      s:1623,PREL
          0 00015C  A845 0013                            LDR,R2   19,B5
          0 00015E  A945 0009                            CMR,R2   9,B5
          0 000160  0881 004A                            BAGE     s:1644,PREL

      966     1620    3              AND (%KV_SRD.CRT.LIN<%KV_SRD.TOPLFT.LIN
      967     1621    3              OR %KV_SRD.CRTVRTLINPHSLIN<%KV_SRD.TOPLFT.LIN)
      968     1622    4            THEN DO;

      969     1623    4               Y@X = %KV_SRD.TOPLFT.LIN

   1623   0 000162  A845 0013                            LDR,R2   19,B5
PL6.E3A0      #002=KVC$ADJWND File=KVC$CNC.:E05TSI                               WED 07/30/97 01:56 Page:183
          0 000164  A953                                 CMR,R2   R3
          0 000165  0A81 0002                            BALE     s:1623+6,PREL
          0 000167  A853                                 LDR,R2   R3
          0 000168  A245 0009                            SUB,R2   9,B5
          0 00016A  E852                                 LDR,R6   R2
          0 00016B  8256                                 NEG      R6
          0 00016C  EF47 0039                            STR,R6   Y@X,AUTO

      970     1624    4                 -MINIMUM(%KV_SRD.CRT.LIN,%KV_SRD.CRTVRTLINPHSLIN);
      971     1625    4               %KV_SRD.CRT.LIN = %KV_SRD.CRT.LIN+Y@X;

   1625   0 00016E  BA56                                 ADD,R3   R6
          0 00016F  BF45 0015                            STR,R3   21,B5

      972     1626    4               %KV_SRD.CRTVRTLINPHSLIN = %KV_SRD.CRTVRTLINPHSLIN+Y@X;

   1626   0 000171  EA45 0013                            ADD,R6   19,B5
          0 000173  EF45 0013                            STR,R6   19,B5

      973     1627    4               %KV_SRD.HI_NONBLN.LIN = %KV_SRD.HI_NONBLN.LIN+Y@X;

   1627   0 000175  A845 0017                            LDR,R2   23,B5
          0 000177  AA47 0039                            ADD,R2   Y@X,AUTO
          0 000179  AF45 0017                            STR,R2   23,B5

      974     1628    4               %KV_SRD.DVCLINBIS = %KV_SRD.DVCLINBIS-Y@X;

   1628   0 00017B  C247 0039                            SUB,R4   Y@X,AUTO
          0 00017D  CF45 0019                            STR,R4   25,B5

      975     1629    4            END;

      976     1630    3         END;

   1630   0 00017F  0F81 002B                            B        s:1644,PREL

      977     1631    3         ELSE DO;
PL6.E3A0      #002=KVC$ADJWND File=KVC$CNC.:E05TSI                               WED 07/30/97 01:56 Page:184

      978     1632        /* Adjust BTMRHT */
      979     1633
      980     1634    3            KV@USR_ERS.TOPLFT.LIN = %KV_SRD.BTMRHT.LIN+1;

   1634   0 000181  DCC7 0008                            LDB,B5   Y@SRD$,AUTO
          0 000183  D845 000B                            LDR,R5   11,B5
          0 000185  5E01                                 ADV,R5   1
          0 000186  DF47 003B                            STR,R5   KV@USR_ERS+1,AUTO

      981     1635    3            KV@USR_ERS.BTMRHT.LIN = KV@USR_ERS.BTMRHT.LIN-VLP@WINDOW.LENGTH;

   1635   0 000188  C847 003D                            LDR,R4   KV@USR_ERS+3,AUTO
          0 00018A  C247 0010                            SUB,R4   VLP@WINDOW+2,AUTO
          0 00018C  CF47 003D                            STR,R4   KV@USR_ERS+3,AUTO

      982     1636    3            %KV_SRD.BTMRHT.LIN = %KV_SRD.BTMRHT.LIN-VLP@WINDOW.LENGTH;

   1636   0 00018E  B845 000B                            LDR,R3   11,B5
          0 000190  B247 0010                            SUB,R3   VLP@WINDOW+2,AUTO
          0 000192  BF45 000B                            STR,R3   11,B5

      983     1637    3            %KV_SRD.SRDEND.LIN = KV@USR_ERS.BTMRHT.LIN;

   1637   0 000194  E847 003D                            LDR,R6   KV@USR_ERS+3,AUTO
          0 000196  EF45 001A                            STR,R6   26,B5

      984     1638    3            Y@X = %KV_SRD.BTMRHT.LIN-%KV_SRD.DVCLINBIS;

   1638   0 000198  B245 0019                            SUB,R3   25,B5
          0 00019A  BF47 0039                            STR,R3   Y@X,AUTO

      985     1639    3            IF %KV_SRD.CRT.LIN>Y@X

   1639   0 00019C  B945 0015                            CMR,R3   21,B5
          0 00019E  0801 0009                            BAL      s:1642,PREL
          0 0001A0  B945 0017                            CMR,R3   23,B5
PL6.E3A0      #002=KVC$ADJWND File=KVC$CNC.:E05TSI                               WED 07/30/97 01:56 Page:185
          0 0001A2  0801 0005                            BAL      s:1642,PREL
          0 0001A4  B945 0013                            CMR,R3   19,B5
          0 0001A6  0881 0004                            BAGE     s:1644,PREL

      986     1640    3              OR %KV_SRD.HI_NONBLN.LIN>Y@X
      987     1641    3              OR %KV_SRD.CRTVRTLINPHSLIN>Y@X
      988     1642    3            THEN %KV_SRD.UNKPST = '1'B;

   1642   0 0001A8  8945 001C                            LBT,'4000'X       28,B5
   1642   0 0001AA       4000

      989     1643    3         END;

      990     1644    2         CALL Y$FIXWDT;                    /* Decide whether to scroll           */

   1644   0 0001AB  E3C0 0164                            LNJ,B6   s:0,PREL
          0 0001AD       0001                            DC       s:1645,PREL

      991     1645    2         PRM_WINDOW.LENGTH = -VLP@WINDOW.LENGTH;

   1645   0 0001AE  ECC7 0004                            LDB,B6   @PRM_WINDOW,AUTO
          0 0001B0  E847 0010                            LDR,R6   VLP@WINDOW+2,AUTO
          0 0001B2  8256                                 NEG      R6
          0 0001B3  EF46 0002                            STR,R6   2,B6

      992     1646    2         IF VLP@WINDOW.LENGTH=0 THEN ALTRETURN;

   1646   0 0001B5  D847 0010                            LDR,R5   VLP@WINDOW+2,AUTO
          0 0001B7  5981 0004                            BNEZ,R5  s:1647,PREL

   1646   0 0001B9  C380 0000 0000  xent                 LNJ,B4   X6A_AALT

      993     1647    2         IF %KV_SRD.BTMRHT.LIN<%KV_SRD.TOPLFT.LIN THEN %KV_SRD.LNG = 0;

   1647   0 0001BC  DCC7 0008                            LDB,B5   Y@SRD$,AUTO
          0 0001BE  C845 000B                            LDR,R4   11,B5
          0 0001C0  C945 0009                            CMR,R4   9,B5
PL6.E3A0      #002=KVC$ADJWND File=KVC$CNC.:E05TSI                               WED 07/30/97 01:56 Page:186
          0 0001C2  0881 0005                            BAGE     s:1648,PREL

   1647   0 0001C4  87C5 000E                            CLH      14,B5
          0 0001C6  0F81 0006                            B        s:1649,PREL

      994     1648    2         ELSE %KV_SRD.LNG = %KV_SRD.BTMRHT.LIN-%KV_SRD.TOPLFT.LIN+1;

   1648   0 0001C8  C245 0009                            SUB,R4   9,B5
          0 0001CA  4E01                                 ADV,R4   1
          0 0001CB  C7C5 000E                            STH,R4   14,B5

      995     1649    2         IF PRM_WINDOW.LENGTH<=0 OR %KV_SRD.LNG=0 THEN GOTO NO_ERASE;

   1649   0 0001CD  E846 0002                            LDR,R6   2,B6
          0 0001CF  6A81 00FA                            BLEZ,R6  s:1715,PREL
          0 0001D1  D2C5 000E                            LLH,R5   14,B5
          0 0001D3  5901 00F6                            BEZ,R5   s:1715,PREL

      996     1650    2      END; ELSE IF PRM_WINDOW.WIDTH~=0 THEN DO;

   1650   0 0001D5  0F81 00C2                            B        s:1705,PREL

   1650   0 0001D7  C845 0003                            LDR,R4   3,B5
          0 0001D9  4901 00BE                            BEZ,R4   s:1705,PREL

      997     1651
      998     1652        /* Adjust the width. */
      999     1653
     1000     1654    2         VLP@WINDOW.WIDTH = -PRM_WINDOW.WIDTH;

   1654   0 0001DB  8254                                 NEG      R4
          0 0001DC  CF47 0011                            STR,R4   VLP@WINDOW+3,AUTO

     1001     1655    2         VLP@WINDOW.LENGTH = 0;

   1655   0 0001DE  8747 0010                            CL       VLP@WINDOW+2,AUTO

PL6.E3A0      #002=KVC$ADJWND File=KVC$CNC.:E05TSI                               WED 07/30/97 01:56 Page:187
     1002     1656    2         IF %KV_SRD.WDT-VLP@WINDOW.WIDTH<%KV_SRD.MINWDT

   1656   0 0001E0  C246 000D                            SUB,R4   13,B6
          0 0001E2  8254                                 NEG      R4
          0 0001E3  D2C6 001E                            LLH,R5   30,B6
          0 0001E5  C955                                 CMR,R4   R5
          0 0001E6  0881 0014                            BAGE     s:1661,PREL

     1003     1657    2         THEN IF %KV_SRD.OPT OR %KV_SRD.MINWDT=0

   1657   0 0001E8  89C6 001C                            CMZ      28,B6
          0 0001EA  0801 0003                            BAL      s:1658,PREL
          0 0001EC  5981 0009                            BNEZ,R5  s:1659,PREL

     1004     1658    2         THEN VLP@WINDOW.WIDTH = %KV_SRD.SRDEND.CLM-%KV_SRD.ORG.CLM;

   1658   0 0001EE  C846 001B                            LDR,R4   27,B6
          0 0001F0  C246 0008                            SUB,R4   8,B6
          0 0001F2  CF47 0011                            STR,R4   VLP@WINDOW+3,AUTO
          0 0001F4  0F81 0006                            B        s:1661,PREL

     1005     1659    2         ELSE VLP@WINDOW.WIDTH = %KV_SRD.WDT-%KV_SRD.MINWDT;

   1659   0 0001F6  D246 000D                            SUB,R5   13,B6
          0 0001F8  8255                                 NEG      R5
          0 0001F9  DF47 0011                            STR,R5   VLP@WINDOW+3,AUTO

     1006     1660
     1007     1661    2         IF KV$PTR.MVD$=Y@MVD$ THEN CALL Y$FNDSPCWDT;

   1661   0 0001FB  CC80 0000 0000  xsym                 LDB,B4   KV$PTR$
          0 0001FE  ACC4 0006                            LDB,B2   6,B4
          0 000200  ADC7 0006                            CMB,B2   Y@MVD$,AUTO
          0 000202  0981 0004                            BNE      s:1663,PREL

   1661   0 000204  E3C0 0229                            LNJ,B6   s:0,PREL
          0 000206       0001                            DC       s:1663,PREL
PL6.E3A0      #002=KVC$ADJWND File=KVC$CNC.:E05TSI                               WED 07/30/97 01:56 Page:188

     1008     1662
     1009     1663    2         IF Y@MVD.ORG=%KV#VD_ORG_SE AND %KV_RCRLST.LSTRCR>=0

   1663   0 000207  ECC7 0006                            LDB,B6   Y@MVD$,AUTO
          0 000209  E2C6 0015                            LLH,R6   21,B6
          0 00020B  6D05                                 CMV,R6   5
          0 00020C  0981 000C                            BNE      s:1665,PREL
          0 00020E  DCC6 0010                            LDB,B5   16,B6
          0 000210  D845 0005                            LDR,R5   5,B5
          0 000212  5801 0006                            BLZ,R5   s:1665,PREL

     1010     1664    2         THEN %KV_RCRLST.LSTRCR = %KV_RCRLST.FRSRCR-1;

   1664   0 000214  D845 0004                            LDR,R5   4,B5
          0 000216  5EFF                                 ADV,R5   -1
          0 000217  DF45 0005                            STR,R5   5,B5

     1011     1665    3         IF VLP@WINDOW.POSITION=%G_POSITION_LEFT# THEN DO;

   1665   0 000219  E2C7 0012                            LLH,R6   VLP@WINDOW+4,AUTO
          0 00021B  6D02                                 CMV,R6   2
          0 00021C  0981 0028                            BNE      s:1680,PREL

     1012     1666
     1013     1667        /* The adjustment is to be done on ORG_PST. */
     1014     1668
     1015     1669    3            KV@USR_ERS.BTMRHT.CLM = KV@USR_ERS.TOPLFT.CLM-1;

   1669   0 00021E  D847 003C                            LDR,R5   KV@USR_ERS+2,AUTO
          0 000220  5EFF                                 ADV,R5   -1
          0 000221  DF47 003E                            STR,R5   KV@USR_ERS+4,AUTO

     1016     1670    3            KV@USR_ERS.TOPLFT.CLM = KV@USR_ERS.TOPLFT.CLM+VLP@WINDOW.WIDTH;

   1670   0 000223  C847 003C                            LDR,R4   KV@USR_ERS+2,AUTO
          0 000225  CA47 0011                            ADD,R4   VLP@WINDOW+3,AUTO
PL6.E3A0      #002=KVC$ADJWND File=KVC$CNC.:E05TSI                               WED 07/30/97 01:56 Page:189
          0 000227  CF47 003C                            STR,R4   KV@USR_ERS+2,AUTO

     1017     1671    3            %KV_SRD.ORG.CLM = KV@USR_ERS.TOPLFT.CLM-1;

   1671   0 000229  DCC7 0008                            LDB,B5   Y@SRD$,AUTO
          0 00022B  4EFF                                 ADV,R4   -1
          0 00022C  CF45 0008                            STR,R4   8,B5

     1018     1672    3            %KV_SRD.TOPLFT.CLM = %KV_SRD.TOPLFT.CLM+VLP@WINDOW.WIDTH;

   1672   0 00022E  E845 000A                            LDR,R6   10,B5
          0 000230  EA47 0011                            ADD,R6   VLP@WINDOW+3,AUTO
          0 000232  EF45 000A                            STR,R6   10,B5

     1019     1673    3            IF %KV_SRD.CRT.CLM<KV@USR_ERS.TOPLFT.CLM

   1673   0 000234  D845 0016                            LDR,R5   22,B5
          0 000236  D947 003C                            CMR,R5   KV@USR_ERS+2,AUTO
          0 000238  0801 0007                            BAL      s:1675,PREL
          0 00023A  B845 0018                            LDR,R3   24,B5
          0 00023C  B947 003C                            CMR,R3   KV@USR_ERS+2,AUTO
          0 00023E  0881 0028                            BAGE     s:1688,PREL

     1020     1674    3              OR %KV_SRD.HI_NONBLN.CLM<KV@USR_ERS.TOPLFT.CLM
     1021     1675    3            THEN %KV_SRD.UNKPST = '1'B;

   1675   0 000240  8945 001C                            LBT,'4000'X       28,B5
   1675   0 000242       4000

     1022     1676    3         END;

   1676   0 000243  0F81 0023                            B        s:1688,PREL

     1023     1677    3         ELSE DO;

     1024     1678        /* Adjust BTMRHT */
     1025     1679
PL6.E3A0      #002=KVC$ADJWND File=KVC$CNC.:E05TSI                               WED 07/30/97 01:56 Page:190
     1026     1680    3            KV@USR_ERS.TOPLFT.CLM = %KV_SRD.BTMRHT.CLM+1;

   1680   0 000245  DCC7 0008                            LDB,B5   Y@SRD$,AUTO
          0 000247  D845 000C                            LDR,R5   12,B5
          0 000249  5E01                                 ADV,R5   1
          0 00024A  DF47 003C                            STR,R5   KV@USR_ERS+2,AUTO

     1027     1681    3            KV@USR_ERS.BTMRHT.CLM = KV@USR_ERS.BTMRHT.CLM-VLP@WINDOW.WIDTH;

   1681   0 00024C  C847 003E                            LDR,R4   KV@USR_ERS+4,AUTO
          0 00024E  C247 0011                            SUB,R4   VLP@WINDOW+3,AUTO
          0 000250  CF47 003E                            STR,R4   KV@USR_ERS+4,AUTO

     1028     1682    3            %KV_SRD.BTMRHT.CLM = %KV_SRD.BTMRHT.CLM-VLP@WINDOW.WIDTH;

   1682   0 000252  B845 000C                            LDR,R3   12,B5
          0 000254  B247 0011                            SUB,R3   VLP@WINDOW+3,AUTO
          0 000256  BF45 000C                            STR,R3   12,B5

     1029     1683    3            %KV_SRD.SRDEND.CLM = KV@USR_ERS.BTMRHT.CLM;

   1683   0 000258  E847 003E                            LDR,R6   KV@USR_ERS+4,AUTO
          0 00025A  EF45 001B                            STR,R6   27,B5

     1030     1684    3            IF %KV_SRD.CRT.CLM>%KV_SRD.BTMRHT.CLM

   1684   0 00025C  B945 0016                            CMR,R3   22,B5
          0 00025E  0801 0005                            BAL      s:1686,PREL
          0 000260  B945 0018                            CMR,R3   24,B5
          0 000262  0881 0004                            BAGE     s:1688,PREL

     1031     1685    3              OR %KV_SRD.HI_NONBLN.CLM>%KV_SRD.BTMRHT.CLM
     1032     1686    3            THEN %KV_SRD.UNKPST = '1'B;

   1686   0 000264  8945 001C                            LBT,'4000'X       28,B5
   1686   0 000266       4000

PL6.E3A0      #002=KVC$ADJWND File=KVC$CNC.:E05TSI                               WED 07/30/97 01:56 Page:191
     1033     1687    3         END;

     1034     1688    2         IF %KV_SRD.BTMRHT.CLM>=%KV_SRD.TOPLFT.CLM

   1688   0 000267  E845 000C                            LDR,R6   12,B5
          0 000269  E945 000A                            CMR,R6   10,B5
          0 00026B  0801 0008                            BAL      s:1690,PREL

     1035     1689    2         THEN %KV_SRD.WDT = %KV_SRD.BTMRHT.CLM-%KV_SRD.TOPLFT.CLM+1;

   1689   0 00026D  E245 000A                            SUB,R6   10,B5
          0 00026F  6E01                                 ADV,R6   1
          0 000270  EF45 000D                            STR,R6   13,B5
          0 000272  0F81 0003                            B        s:1692,PREL

     1036     1690    2         ELSE %KV_SRD.WDT = 0;

   1690   0 000274  8745 000D                            CL       13,B5

     1037     1691        /* Fix the MVDs, too. */
     1038     1692    2         CALL Y$FIXWDT;

   1692   0 000276  E3C0 0099                            LNJ,B6   s:0,PREL
          0 000278       0001                            DC       s:1693,PREL

     1039     1693    2         PRM_WINDOW.WIDTH = -VLP@WINDOW.WIDTH;

   1693   0 000279  ECC7 0004                            LDB,B6   @PRM_WINDOW,AUTO
          0 00027B  E847 0011                            LDR,R6   VLP@WINDOW+3,AUTO
          0 00027D  8256                                 NEG      R6
          0 00027E  EF46 0003                            STR,R6   3,B6

     1040     1694    2         IF VLP@WINDOW.WIDTH=0 THEN ALTRETURN;

   1694   0 000280  D847 0011                            LDR,R5   VLP@WINDOW+3,AUTO
          0 000282  5981 0004                            BNEZ,R5  s:1695,PREL

PL6.E3A0      #002=KVC$ADJWND File=KVC$CNC.:E05TSI                               WED 07/30/97 01:56 Page:192
   1694   0 000284  C380 0000 0000  xent                 LNJ,B4   X6A_AALT

     1041     1695    2         IF PRM_WINDOW.WIDTH<=0 OR %KV_SRD.WDT=0 THEN GOTO NO_ERASE;

   1695   0 000287  6A81 0042                            BLEZ,R6  s:1715,PREL
          0 000289  DCC7 0008                            LDB,B5   Y@SRD$,AUTO
          0 00028B  C845 000D                            LDR,R4   13,B5
          0 00028D  4901 003C                            BEZ,R4   s:1715,PREL

     1042     1696    3         IF %KV_SRD.UNKPST THEN DO;

   1696   0 00028F  82C5 001C                            LB,'4000'X        28,B5
   1696   0 000291       4000
          0 000292  0581 0005                            BBF      s:1705,PREL

     1043     1697
     1044     1698        /* The cursor went nuts. fix it. */
     1045     1699
     1046     1700    3            %KV_SRD.CRT.CLM = %KV_SRD.TOPLFT.CLM;

   1700   0 000294  B845 000A                            LDR,R3   10,B5
          0 000296  BF45 0016                            STR,R3   22,B5

     1047     1701    3         END;

     1048     1702    2      END;

     1049     1703        /* We extended the window, and it wasn't empty.  Erase the added space. */
     1050     1704
     1051     1705    1      KV@USR_ERS.BGNPHSCLM = KV@USR_ERS.TOPLFT.CLM;

   1705   0 000298  E847 003C                            LDR,R6   KV@USR_ERS+2,AUTO
          0 00029A  EF47 003F                            STR,R6   KV@USR_ERS+5,AUTO

     1052     1706    1      KV@USR_ERS.ENDPHSCLM = KV@USR_ERS.BTMRHT.CLM;

   1706   0 00029C  D847 003E                            LDR,R5   KV@USR_ERS+4,AUTO
PL6.E3A0      #002=KVC$ADJWND File=KVC$CNC.:E05TSI                               WED 07/30/97 01:56 Page:193
          0 00029E  DF47 0040                            STR,R5   KV@USR_ERS+6,AUTO

     1053     1707    1      %KV_SRD.HI_NONBLN.LIN = %KV_SRD.HI_NONBLN.LIN+127;

   1707   0 0002A0  ECC7 0008                            LDB,B6   Y@SRD$,AUTO
          0 0002A2  C846 0017                            LDR,R4   23,B6
          0 0002A4  4E7F                                 ADV,R4   127
          0 0002A5  CF46 0017                            STR,R4   23,B6

     1054     1708    2      IF %KV_SRD.BRDEXS THEN DO;

   1708   0 0002A7  82C6 000F                            LB,'0020'X        15,B6
   1708   0 0002A9       0020
          0 0002AA  0581 000C                            BBF      s:1714,PREL

     1055     1709        /* Make sure we can position to all the extension area */
     1056     1710    2         %KV_SRD.BTMRHT = %KV_SRD.SRDEND;

   1710   0 0002AC  8CC6 001A                            LDI      26,B6
          0 0002AE  8D46 000B                            SDI      11,B6

     1057     1711    2         %KV_SRD.TOPLFT_PST = %KV_SRD.ORG_PST+%BITBIN('10001'X);

   1711   0 0002B0  8CC6 0007                            LDI      7,B6
          0 0002B2  8470 0001 0001                       AID      65537,IMO
          0 0002B5  8D46 0009                            SDI      9,B6

     1058     1712        /* KVC$DRWBRD will fix up the boundaries later */
     1059     1713    2      END;

     1060     1714    1      CALL KVV$CALUSR (KV@USR_ERS);

   1714   0 0002B7  DBC7 003A                            LAB,B5   KV@USR_ERS,AUTO
          0 0002B9  DFC7 0054                            STB,B5   Y@ENDLIN+2,AUTO
          0 0002BB  BBC7 0054                            LAB,B3   Y@ENDLIN+2,AUTO
          0 0002BD  CBF0 0100                            LAB,B4   256,IMO
          0 0002BF  E380 0000 0000  xent                 LNJ,B6   KVV$CALUSR
PL6.E3A0      #002=KVC$ADJWND File=KVC$CNC.:E05TSI                               WED 07/30/97 01:56 Page:194
          0 0002C2       0001                            DC       s:1715,PREL

     1061     1715    1      %KV_SRD.HI_NONBLN.LIN = %KV_SRD.HI_NONBLN.LIN-127;

   1715   0 0002C3  ECC7 0008                            LDB,B6   Y@SRD$,AUTO
          0 0002C5  E846 0017                            LDR,R6   23,B6
          0 0002C7  6E81                                 ADV,R6   -127
          0 0002C8  EF46 0017                            STR,R6   23,B6

   1715   0                              NO_ERASE        null
     1062     1716    1   NO_ERASE:;
     1063     1717    2      IF %KV_SRD.UNKPST THEN DO;

   1717   0 0002CA  ECC7 0008            NO_ERASE        LDB,B6   Y@SRD$,AUTO
          0 0002CC  82C6 001C                            LB,'4000'X        28,B6
          0 0002CE       4000
          0 0002CF  0581 0004                            BBF      s:1722,PREL

     1064     1718
     1065     1719        /* The cursor went nuts. fix it. */
     1066     1720    2         CALL Y$FIXPST;

   1720   0 0002D1  E3C0 00CF                            LNJ,B6   s:0,PREL
          0 0002D3       0001                            DC       s:1722,PREL

     1067     1721    2      END;

     1068     1722    1      IF PRM_WINDOW.LENGTH~=0 OR PRM_WINDOW.WIDTH~=0

   1722   0 0002D4  ECC7 0004                            LDB,B6   @PRM_WINDOW,AUTO
          0 0002D6  E846 0002                            LDR,R6   2,B6
          0 0002D8  6981 0005                            BNEZ,R6  s:1723,PREL
          0 0002DA  D846 0003                            LDR,R5   3,B6
          0 0002DC  5901 0030                            BEZ,R5   s:1730,PREL

     1069     1723    2      THEN IF Y@MVD$~=KV$PTR.MVD$ AND %KV_SRD.BRDEXS THEN DO;

PL6.E3A0      #002=KVC$ADJWND File=KVC$CNC.:E05TSI                               WED 07/30/97 01:56 Page:195
   1723   0 0002DE  DCC7 0006                            LDB,B5   Y@MVD$,AUTO
          0 0002E0  CC80 0000 0000  xsym                 LDB,B4   KV$PTR$
          0 0002E3  DDC4 0006                            CMB,B5   6,B4
          0 0002E5  0901 001D                            BE       s:1729,PREL
          0 0002E7  BCC7 0008                            LDB,B3   Y@SRD$,AUTO
          0 0002E9  82C3 000F                            LB,'0020'X        15,B3
          0 0002EB       0020
          0 0002EC  0581 0016                            BBF      s:1729,PREL

     1070     1724    2         Y@SRD$ = KV$PTR.MVD$;

   1724   0 0002EE  ACC4 0006                            LDB,B2   6,B4
          0 0002F0  AFC7 0008                            STB,B2   Y@SRD$,AUTO

     1071     1725    2         KV$PTR.MVD$ = Y@MVD$;

   1725   0 0002F2  DFC4 0006                            STB,B5   6,B4

     1072     1726    2         CALL KVC$DRWBRD;

   1726   0 0002F4  CBF0 0000                            LAB,B4   0,IMO
          0 0002F6  E380 0000 0000  xent                 LNJ,B6   KVC$DRWBRD
          0 0002F9       0001                            DC       s:1727,PREL

     1073     1727    2         KV$PTR.MVD$ = Y@SRD$;

   1727   0 0002FA  ECC7 0008                            LDB,B6   Y@SRD$,AUTO
          0 0002FC  DC80 0000 0000  xsym                 LDB,B5   KV$PTR$
          0 0002FF  EFC5 0006                            STB,B6   6,B5

     1074     1728    2      END;

   1728   0 000301  0F81 000B                            B        s:1730,PREL

     1075     1729    1      ELSE IF %KV_SRD.BRDEXS THEN %KV_SRD.BRDUPD = '1'B;

   1729   0 000303  BCC7 0008                            LDB,B3   Y@SRD$,AUTO
PL6.E3A0      #002=KVC$ADJWND File=KVC$CNC.:E05TSI                               WED 07/30/97 01:56 Page:196
          0 000305  82C3 000F                            LB,'0020'X        15,B3
          0 000307       0020
          0 000308  0581 0004                            BBF      s:1730,PREL

   1729   0 00030A  8943 000F                            LBT,'0010'X       15,B3
   1729   0 00030C       0010

     1076     1730    1      RETURN;

   1730   0 00030D  C380 0000 0000  xent                 LNJ,B4   X6A_ARET

     1077     1731        %EJECT;
PL6.E3A0      #002=KVC$ADJWND File=KVC$CNC.:E05TSI                               WED 07/30/97 01:56 Page:197
     1078     1732    1   Y$FIXWDT: PROC;

   1732   0 000310  EFC7 0042            Y$FIXWDT        STB,B6   KV@USR_ERS+8,AUTO

     1079     1733        %EQU Y_MVD=CHARTEXT('Y@MVD');
     1080     1734        %EQU Y_SRD=CHARTEXT('KV$SRD');
     1081     1735        %EQU Y_MRD=CHARTEXT('KV$SRD.MRD$->KV$MRD');
     1082     1736
     1083     1737        /* Notices changes in width affecting the ability to scroll */
     1084     1738
     1085     1739    2      %Y_SRD.UNKRGN = '1'B;

   1739   0 000312  DCC7 0008                            LDB,B5   Y@SRD$,AUTO
          0 000314  8945 000F                            LBT,'0002'X       15,B5
          0 000316       0002

     1086     1740    2      %Y_MVD.WDT = %Y_SRD.WDT;

   1740   0 000317  ECC7 0006                            LDB,B6   Y@MVD$,AUTO
          0 000319  E845 000D                            LDR,R6   13,B5
          0 00031B  EF46 0013                            STR,R6   19,B6

     1087     1741    3      IF %Y_SRD.BTMRHT.CLM=%Y_MRD.WDT THEN DO;

   1741   0 00031D  CC85                                 LDB,B4   ,B5
          0 00031E  D845 000C                            LDR,R5   12,B5
          0 000320  5801 001B                            BLZ,R5   s:1746,PREL
          0 000322  D944 000B                            CMR,R5   11,B4
          0 000324  0981 0017                            BNE      s:1746,PREL

     1088     1742    3         %Y_SRD.FSTERS = %Y_MRD.FSTERS;

   1742   0 000326  C844 0017                            LDR,R4   23,B4
          0 000328  4006                                 SOL,R4   6
          0 000329  CAC5 000F                            SRM,R4,'0040'X    15,B5
          0 00032B       0040

PL6.E3A0      #002=KVC$ADJWND File=KVC$CNC.:E05TSI                               WED 07/30/97 01:56 Page:198
     1089     1743    3         IF %Y_SRD.BTMRHT.CLM=%Y_SRD.WDT THEN %Y_SRD.VRTSCR = '1'B;

   1743   0 00032C  5801 000A                            BLZ,R5   s:1744,PREL
          0 00032E  D945 000D                            CMR,R5   13,B5
          0 000330  0981 0006                            BNE      s:1744,PREL

   1743   0 000332  8945 001D                            LBT,'4000'X       29,B5
   1743   0 000334       4000
          0 000335  0F81 000C                            B        s:1749,PREL

     1090     1744    3         ELSE %Y_SRD.VRTSCR = '0'B;

   1744   0 000337  8845 001D                            LBF,'4000'X       29,B5
   1744   0 000339       4000

     1091     1745    3      END; ELSE DO;

   1745   0 00033A  0F81 0007                            B        s:1749,PREL

     1092     1746    3         %Y_SRD.FSTERS = '0'B;

   1746   0 00033C  8845 000F                            LBF,'0040'X       15,B5
   1746   0 00033E       0040

     1093     1747    3         %Y_SRD.VRTSCR = '0'B;

   1747   0 00033F  8845 001D                            LBF,'4000'X       29,B5
   1747   0 000341       4000

     1094     1748    3      END;

     1095     1749    2      IF %Y_SRD.SCROLL AND (NOT %Y_SRD.VRTSCR

   1749   0 000342  82C5 000E                            LB,'0008'X        14,B5
   1749   0 000344       0008
          0 000345  0581 0024                            BBF      s:1755+2,PREL
          0 000347  82C5 001D                            LB,'4000'X        29,B5
PL6.E3A0      #002=KVC$ADJWND File=KVC$CNC.:E05TSI                               WED 07/30/97 01:56 Page:199
          0 000349       4000
          0 00034A  0581 0012                            BBF      s:1751,PREL
          0 00034C  82C4 0018                            LB,'0020'X        24,B4
          0 00034E       0020
          0 00034F  0501 001A                            BBT      s:1755+2,PREL
          0 000351  82C5 000F                            LB,'0020'X        15,B5
          0 000353       0020
          0 000354  0501 0008                            BBT      s:1751,PREL
          0 000356  E844 000A                            LDR,R6   10,B4
          0 000358  E570 00FF                            AND,R6   255,IMO
          0 00035A  6D01                                 CMV,R6   1
          0 00035B  0381 000E                            BLE      s:1755+2,PREL

     1096     1750    3        OR NOT %Y_MRD.VRTSCR AND (%Y_SRD.BRDEXS OR %Y_MRD.USRCNT>1)) THEN DO;

     1097     1751    3         %Y_SRD.VRTSCR = '0'B;

   1751   0 00035D  8845 001D                            LBF,'4000'X       29,B5
   1751   0 00035F       4000

     1098     1752    3         %Y_SRD.SCROLL = '0'B;

   1752   0 000360  8845 000E                            LBF,'0008'X       14,B5
   1752   0 000362       0008

     1099     1753    3         %Y_SRD.UNKPST = '1'B;

   1753   0 000363  8945 001C                            LBT,'4000'X       28,B5
   1753   0 000365       4000

     1100     1754    3         %Y_SRD.CRT.LIN = 0;          /* A bad value so KVC$DRWBRD notices it    */

   1754   0 000366  8745 0015                            CL       21,B5

     1101     1755    3      END; ELSE IF %Y_SRD.VRTSCR AND %Y_SRD.SAVSCROLL THEN DO;

   1755   0 000368  0F81 0034                            B        s:1762,PREL
PL6.E3A0      #002=KVC$ADJWND File=KVC$CNC.:E05TSI                               WED 07/30/97 01:56 Page:200

   1755   0 00036A  82C5 001D                            LB,'4000'X        29,B5
   1755   0 00036C       4000
          0 00036D  0581 0024                            BBF      s:1761+2,PREL
          0 00036F  82C5 000F                            LB,'0001'X        15,B5
          0 000371       0001
          0 000372  0581 001F                            BBF      s:1761+2,PREL

     1102     1756        /* Scrolling might be possible, and it was on originally */
     1103     1757    3         %Y_SRD.VRTSCR = %Y_MRD.VRTSCR;

   1757   0 000374  E844 0018                            LDR,R6   24,B4
          0 000376  6009                                 SOL,R6   9
          0 000377  EAC5 001D                            SRM,R6,'4000'X    29,B5
          0 000379       4000

     1104     1758    3         IF (%Y_SRD.BRDEXS OR %Y_MRD.DSPHEIGHT~=%Y_SRD.BTMRHT.LIN-%Y_SRD.ORG.LIN)

   1758   0 00037A  82C5 000F                            LB,'0020'X        15,B5
   1758   0 00037C       0020
          0 00037D  0501 000A                            BBT      s:1758+14,PREL
          0 00037F  E845 000B                            LDR,R6   11,B5
          0 000381  E245 0007                            SUB,R6   7,B5
          0 000383  C2C4 000A                            LLH,R4   10,B4
          0 000385  C956                                 CMR,R4   R6
          0 000386  0901 0006                            BE       s:1760,PREL
          0 000388  82C5 001D                            LB,'4000'X        29,B5
          0 00038A       4000
          0 00038B  0581 0004                            BBF      s:1761,PREL

     1105     1759    3           AND NOT %Y_SRD.VRTSCR THEN EXIT;
     1106     1760    3         %Y_SRD.SCROLL = '1'B;

   1760   0 00038D  8945 000E                            LBT,'0008'X       14,B5
   1760   0 00038F       0008

     1107     1761    2      END; ELSE IF %Y_SRD.VRTSCR THEN %Y_SRD.VRTSCR = %Y_MRD.VRTSCR;
PL6.E3A0      #002=KVC$ADJWND File=KVC$CNC.:E05TSI                               WED 07/30/97 01:56 Page:201

   1761   0 000390  0F81 000C                            B        s:1762,PREL

   1761   0 000392  82C5 001D                            LB,'4000'X        29,B5
   1761   0 000394       4000
          0 000395  0581 0007                            BBF      s:1762,PREL

   1761   0 000397  E844 0018                            LDR,R6   24,B4
          0 000399  6009                                 SOL,R6   9
          0 00039A  EAC5 001D                            SRM,R6,'4000'X    29,B5
          0 00039C       4000

     1108     1762    2      RETURN;

   1762   0 00039D  ECC7 0042                            LDB,B6   KV@USR_ERS+8,AUTO
          0 00039F  C3C6 0001                            LNJ,B4   1,B6

     1109     1763        %EJECT;
PL6.E3A0      #002=KVC$ADJWND File=KVC$CNC.:E05TSI                               WED 07/30/97 01:56 Page:202
     1110     1764    2   Y$FIXPST: ENTRY;

   1764   0 0003A1  EFC7 0042            Y$FIXPST        STB,B6   KV@USR_ERS+8,AUTO

     1111     1765
     1112     1766        /* Recovers from invalid position parameters by positioning thru SCREND */
     1113     1767
     1114     1768    3      IF %Y_MVD.ORG>%KV#VD_ORG_X364 THEN DO;

   1768   0 0003A3  DCC7 0006                            LDB,B5   Y@MVD$,AUTO
          0 0003A5  E2C5 0015                            LLH,R6   21,B5
          0 0003A7  6D02                                 CMV,R6   2
          0 0003A8  0381 000A                            BLE      s:1772,PREL

     1115     1769    3         %Y_SRD.UNKPST = '0'B;

   1769   0 0003AA  CCC7 0008                            LDB,B4   Y@SRD$,AUTO
          0 0003AC  8844 001C                            LBF,'4000'X       28,B4
          0 0003AE       4000

     1116     1770    3         RETURN;

   1770   0 0003AF  ECC7 0042                            LDB,B6   KV@USR_ERS+8,AUTO
          0 0003B1  C3C6 0001                            LNJ,B4   1,B6

     1117     1771    3      END;
     1118     1772    2      IF NOT %Y_SRD.SCROLL THEN %Y_SRD.DVCLINBIS=0;

   1772   0 0003B3  CCC7 0008                            LDB,B4   Y@SRD$,AUTO
          0 0003B5  82C4 000E                            LB,'0008'X        14,B4
          0 0003B7       0008
          0 0003B8  0501 0005                            BBT      s:1773,PREL

   1772   0 0003BA  8744 0019                            CL       25,B4
          0 0003BC  0F81 0007                            B        s:1774,PREL

     1119     1773    2      ELSE %Y_SRD.DVCLINBIS = %Y_SRD.BTMRHT.LIN-%Y_SRD.TOPLFT.LIN;
PL6.E3A0      #002=KVC$ADJWND File=KVC$CNC.:E05TSI                               WED 07/30/97 01:56 Page:203

   1773   0 0003BE  D844 000B                            LDR,R5   11,B4
          0 0003C0  D244 0009                            SUB,R5   9,B4
          0 0003C2  DF44 0019                            STR,R5   25,B4

     1120     1774    2      %Y_SRD.CRT.LIN = %Y_SRD.BTMRHT.LIN-%Y_SRD.DVCLINBIS;

   1774   0 0003C4  E844 000B                            LDR,R6   11,B4
          0 0003C6  E244 0019                            SUB,R6   25,B4
          0 0003C8  EF44 0015                            STR,R6   21,B4

     1121     1775    2      IF %Y_MVD.ORG~=%KV#VD_ORG_X364

   1775   0 0003CA  D2C5 0015                            LLH,R5   21,B5
          0 0003CC  5D02                                 CMV,R5   2
          0 0003CD  0901 0006                            BE       s:1778,PREL

     1122     1776    2      THEN %Y_SRD.CRTVRTLINPHSLIN = %Y_SRD.CRT.LIN+1;

   1776   0 0003CF  6E01                                 ADV,R6   1
          0 0003D0  EF44 0013                            STR,R6   19,B4
          0 0003D2  0F81 0007                            B        s:1781,PREL

     1123     1777    3      ELSE DO;

     1124     1778    3         %Y_SRD.CRTVRTLINPHSLIN = %Y_SRD.CRT.LIN;

   1778   0 0003D4  EF44 0013                            STR,R6   19,B4

     1125     1779    3         %Y_MVD.VRTLIN = %Y_SRD.LNG;

   1779   0 0003D6  D2C4 000E                            LLH,R5   14,B4
          0 0003D8  DF45 001A                            STR,R5   26,B5

     1126     1780    3      END;

     1127     1781    2      %Y_SRD.HI_NONBLN = %Y_SRD.CRT;
PL6.E3A0      #002=KVC$ADJWND File=KVC$CNC.:E05TSI                               WED 07/30/97 01:56 Page:204

   1781   0 0003DA  8CC4 0015                            LDI      21,B4
          0 0003DC  8D44 0017                            SDI      23,B4

     1128     1782    2      %Y_SRD.VRTPSTOK = '0'B;

   1782   0 0003DE  8844 000E                            LBF,'0010'X       14,B4
   1782   0 0003E0       0010

     1129     1783    2      %Y_SRD.NXTNONBLNLIN = 255;

   1783   0 0003E1  D870 00FF                            LDR,R5   255,IMO
          0 0003E3  DF44 0014                            STR,R5   20,B4

     1130     1784    3      IF Y@MVD$=KV$PTR.MVD$ THEN DO;

   1784   0 0003E5  EC80 0000 0000  xsym                 LDB,B6   KV$PTR$
          0 0003E8  DDC6 0006                            CMB,B5   6,B6
          0 0003EA  0981 0007                            BNE      s:1788,PREL

     1131     1785    3         %Y_SRD.UNKPST = '0'B;

   1785   0 0003EC  8844 001C                            LBF,'4000'X       28,B4
   1785   0 0003EE       4000

     1132     1786    3         %Y_MVD.VRTCLM = 1;

   1786   0 0003EF  4C01                                 LDV,R4   1
          0 0003F0  CF45 001B                            STR,R4   27,B5

     1133     1787    3      END;

     1134     1788    2      RETURN;

   1788   0 0003F2  ECC7 0042                            LDB,B6   KV@USR_ERS+8,AUTO
          0 0003F4  C3C6 0001                            LNJ,B4   1,B6

PL6.E3A0      #002=KVC$ADJWND File=KVC$CNC.:E05TSI                               WED 07/30/97 01:56 Page:205
     1135     1789    2   END Y$FIXWDT;
     1136     1790        %EJECT;
PL6.E3A0      #002=KVC$ADJWND File=KVC$CNC.:E05TSI                               WED 07/30/97 01:56 Page:206
     1137     1791    1   KVC$FIXWDT: ENTRY (PRM_WINDOW) ALTRET;

   1791   0 0003F6  D380 0000 0000  xent KVC$FIXWDT      LNJ,B5   X6A_AUTO_1
          0 0003F9       0056 0001                       DC       86,1

     1138     1792    1      Y@MVD$ = ADDR(PRM_WINDOW);

   1792   0 0003FB  ECC7 0004                            LDB,B6   @PRM_WINDOW,AUTO
          0 0003FD  EFC7 0006                            STB,B6   Y@MVD$,AUTO

     1139     1793    1      Y@SRD$ = Y@MVD.SRD$;

   1793   0 0003FF  DC86                                 LDB,B5   ,B6
          0 000400  DFC7 0008                            STB,B5   Y@SRD$,AUTO

     1140     1794    1      CALL Y$FIXWDT;

   1794   0 000402  E3C0 FF0D                            LNJ,B6   s:0,PREL
          0 000404       0001                            DC       s:1795,PREL

     1141     1795    1      RETURN;

   1795   0 000405  C380 0000 0000  xent                 LNJ,B4   X6A_ARET

     1142     1796
     1143     1797    1   KVC$FIXPST: ENTRY (PRM_WINDOW) ALTRET;

   1797   0 000408  D380 0000 0000  xent KVC$FIXPST      LNJ,B5   X6A_AUTO_1
          0 00040B       0056 0001                       DC       86,1

     1144     1798    1      Y@MVD$ = ADDR(PRM_WINDOW);

   1798   0 00040D  ECC7 0004                            LDB,B6   @PRM_WINDOW,AUTO
          0 00040F  EFC7 0006                            STB,B6   Y@MVD$,AUTO

     1145     1799    1      Y@SRD$ = Y@MVD.SRD$;

PL6.E3A0      #002=KVC$ADJWND File=KVC$CNC.:E05TSI                               WED 07/30/97 01:56 Page:207
   1799   0 000411  DC86                                 LDB,B5   ,B6
          0 000412  DFC7 0008                            STB,B5   Y@SRD$,AUTO

     1146     1800    1      CALL Y$FIXPST;

   1800   0 000414  E3C0 FF8C                            LNJ,B6   s:0,PREL
          0 000416       0001                            DC       s:1801,PREL

     1147     1801    1      RETURN;

   1801   0 000417  C380 0000 0000  xent                 LNJ,B4   X6A_ARET

     1148     1802
     1149     1803        %EJECT;
PL6.E3A0      #002=KVC$ADJWND File=KVC$CNC.:E05TSI                               WED 07/30/97 01:56 Page:208
     1150     1804    1   Y$FNDSPCLNG: PROC;

   1804   0 00041A  EFC7 0042            Y$FNDSPCLNG     STB,B6   KV@USR_ERS+8,AUTO

     1151     1805
     1152     1806        /* Finds adjacent windows above and below, building a list of them */
     1153     1807
     1154     1808    2   DCL Y@WDTPLS1 SBIN;
     1155     1809    2   DCL Y@WDTMNS1 SBIN;
     1156     1810    2   DCL Y@TMP SBIN;
     1157     1811    2   DCL Y@RQS SBIN;
     1158     1812    2   DCL Y@DLT SBIN;
     1159     1813    2   DCL Y@DLTU REDEF Y@DLT UBIN;            /* For division by 2                  */
     1160     1814    2   DCL Y@CRT(0:1) SBIN;
     1161     1815    2   DCL Y@CRTU REDEF Y@CRT UBIN(32);
     1162     1816    2   DCL Y@AVL(0:1) SBIN;
     1163     1817    2   DCL 1 Y@T1 REDEF Y@AVL,
     1164     1818    2          2 F(0:15) BIT(1) UNAL,
     1165     1819    2          2 S SBIN;
     1166     1820    2   DCL Y@NSS(0:1) SBIN;
     1167     1821    2   DCL 1 Y@T2 REDEF Y@NSS,
     1168     1822    2          2 T SBIN,
     1169     1823    2          2 F(0:15) REDEF T BIT(1) UNAL,
     1170     1824    2          2 S SBIN;
     1171     1825    2   DCL Y@ORGCLM SBIN;
     1172     1826    2   DCL Y@ENDCLM SBIN;
     1173     1827    2   DCL Y@ORGLIN SBIN;
     1174     1828    2   DCL Y@ENDLIN SBIN;
     1175     1829    2      Y@WDTPLS1 = 0;

   1829   0 00041C  8747 0044                            CL       Y@WDTPLS1,AUTO

     1176     1830    2      Y@WDTMNS1 = 0;

   1830   0 00041E  8747 0045                            CL       Y@WDTMNS1,AUTO

     1177     1831    2      Y@TMP = %Y_MRD.LNG;
PL6.E3A0      #002=KVC$ADJWND File=KVC$CNC.:E05TSI                               WED 07/30/97 01:56 Page:209

   1831   0 000420  DCC7 0008                            LDB,B5   Y@SRD$,AUTO
          0 000422  CC85                                 LDB,B4   ,B5
          0 000423  E2C4 0015                            LLH,R6   21,B4
          0 000425  EF47 0046                            STR,R6   Y@TMP,AUTO

     1178     1832    2      Y@RQS = -VLP@WINDOW.LENGTH;

   1832   0 000427  D847 0010                            LDR,R5   VLP@WINDOW+2,AUTO
          0 000429  8255                                 NEG      R5
          0 00042A  DF47 0047                            STR,R5   Y@RQS,AUTO

     1179     1833    2      GOTO COMMON;

   1833   0 00042C  0F81 0015                            B        s:1843,PREL

     1180     1834    2   Y$FNDSPCWDT: ENTRY;

   1834   0 00042E  EFC7 0042            Y$FNDSPCWDT     STB,B6   KV@USR_ERS+8,AUTO

     1181     1835
     1182     1836        /* Same as Y$FNDSPCLNG, but for width modification.
     1183     1837           This code is written for length.  For width use, pointers are adjusted
     1184     1838           to point at the other half of KV$PST items. */
     1185     1839
     1186     1840    2      Y@WDTPLS1 = 1;

   1840   0 000430  6C01                                 LDV,R6   1
          0 000431  EF47 0044                            STR,R6   Y@WDTPLS1,AUTO

     1187     1841    2      Y@WDTMNS1 = -1;

   1841   0 000433  8947 0045                            LBT,'FFFF'X       Y@WDTMNS1,AUTO
   1841   0 000435       FFFF

     1188     1842    2      Y@TMP = %Y_MRD.WDT;

PL6.E3A0      #002=KVC$ADJWND File=KVC$CNC.:E05TSI                               WED 07/30/97 01:56 Page:210
   1842   0 000436  DCC7 0008                            LDB,B5   Y@SRD$,AUTO
          0 000438  CC85                                 LDB,B4   ,B5
          0 000439  D844 000B                            LDR,R5   11,B4
          0 00043B  DF47 0046                            STR,R5   Y@TMP,AUTO

     1189     1843    2      Y@RQS = -VLP@WINDOW.WIDTH;

   1843   0 00043D  C847 0011                            LDR,R4   VLP@WINDOW+3,AUTO
          0 00043F  8254                                 NEG      R4
          0 000440  CF47 0047                            STR,R4   Y@RQS,AUTO

   1843   0                              COMMON          null
     1190     1844    2   COMMON:;
     1191     1845
     1192     1846        /* First make sure we're not trying to go off the screen. */
     1193     1847
     1194     1848    2      T$ = PINCRW(Y@SRD$,Y@WDTPLS1);

   1848   0 000442  B847 0044            COMMON          LDR,R3   Y@WDTPLS1,AUTO
          0 000444  BBB5                                 LAB,B3   ,B5,R3
          0 000445  BFC7 000C                            STB,B3   T$,AUTO

     1195     1849    2      Y@ORGLIN = T$->Y@SRD.ORG.LIN;

   1849   0 000447  E843 0007                            LDR,R6   7,B3
          0 000449  EF47 0051                            STR,R6   Y@ORGLIN,AUTO

     1196     1850    2      Y@ENDLIN = T$->Y@SRD.SRDEND.LIN;

   1850   0 00044B  D843 001A                            LDR,R5   26,B3
          0 00044D  DF47 0052                            STR,R5   Y@ENDLIN,AUTO

     1197     1851
     1198     1852    2      T$ = PINCRW(Y@SRD$,Y@WDTMNS1);

   1852   0 00044F  A847 0045                            LDR,R2   Y@WDTMNS1,AUTO
          0 000451  ABA5                                 LAB,B2   ,B5,R2
PL6.E3A0      #002=KVC$ADJWND File=KVC$CNC.:E05TSI                               WED 07/30/97 01:56 Page:211
          0 000452  AFC7 000C                            STB,B2   T$,AUTO

     1199     1853    2      Y@ORGCLM = T$->Y@SRD.ORG.CLM;

   1853   0 000454  C842 0008                            LDR,R4   8,B2
          0 000456  CF47 004F                            STR,R4   Y@ORGCLM,AUTO

     1200     1854    2      Y@ENDCLM = T$->Y@SRD.SRDEND.CLM;

   1854   0 000458  9842 001B                            LDR,R1   27,B2
          0 00045A  9F47 0050                            STR,R1   Y@ENDCLM,AUTO

     1201     1855    2      Y@ORG = '0'B;

   1855   0 00045C  8747 0038                            CL       Y@ORG,AUTO

     1202     1856    2      Y@NSS = '0'B;

   1856   0 00045E  8747 004D                            CL       Y@NSS,AUTO
          0 000460  8747 004E                            CL       Y@NSS+1,AUTO

     1203     1857    2      Y@X = 0;

   1857   0 000462  8747 0039                            CL       Y@X,AUTO

     1204     1858    2      Y@AVL(1) = Y@ORGLIN;

   1858   0 000464  EF47 004C                            STR,R6   Y@AVL+1,AUTO

     1205     1859        /* Don't acquire space outside the display area. */
     1206     1860    2      IF Y@WDTMNS1=0 THEN Y@AVL(1) = Y@AVL(1)+%Y_MRD.DSPHEIGHT-Y@TMP;

   1860   0 000466  2981 0009                            BNEZ,R2  s:1861,PREL

   1860   0 000468  E2C4 000A                            LLH,R6   10,B4
          0 00046A  EA47 004C                            ADD,R6   Y@AVL+1,AUTO
          0 00046C  E247 0046                            SUB,R6   Y@TMP,AUTO
PL6.E3A0      #002=KVC$ADJWND File=KVC$CNC.:E05TSI                               WED 07/30/97 01:56 Page:212
          0 00046E  EF47 004C                            STR,R6   Y@AVL+1,AUTO

     1207     1861    2      Y@AVL(0) = Y@TMP-Y@ENDLIN;

   1861   0 000470  D247 0046                            SUB,R5   Y@TMP,AUTO
          0 000472  8255                                 NEG      R5
          0 000473  DF47 004B                            STR,R5   Y@AVL,AUTO

     1208     1862    2      Y@CRTU = %BITBIN('7FFF7FFF'X);

   1862   0 000475  8CF0 7FFF 7FFF                       LDI      2147450879,IMO
          0 000478  8D47 0049                            SDI      Y@CRT,AUTO

     1209     1863    3      IF VLP@WINDOW.POSITION~=0 THEN DO;

   1863   0 00047A  E2C7 0012                            LLH,R6   VLP@WINDOW+4,AUTO
          0 00047C  6901 0007                            BEZ,R6   s:1870,PREL

     1210     1864    3         Y@X = Y@X+1;

   1864   0 00047E  8AC7 0039                            INC      Y@X,AUTO

     1211     1865    3         Y@S$(0) = VLP@WINDOW.FWINDOW$;

   1865   0 000480  BCC7 000E                            LDB,B3   VLP@WINDOW,AUTO
          0 000482  BFC7 0018                            STB,B3   Y@S$,AUTO

     1212     1866    3      END;

     1213     1867
     1214     1868        /* Look at all the windows for adjacent ones */
     1215     1869
     1216     1870    2      T$ = %Y_MRD.MVD$;

   1870   0 000484  BCC4 000D                            LDB,B3   13,B4
          0 000486  BFC7 000C                            STB,B3   T$,AUTO

PL6.E3A0      #002=KVC$ADJWND File=KVC$CNC.:E05TSI                               WED 07/30/97 01:56 Page:213
     1217     1871    3      DO UNTIL T$=ADDR(NIL);

     1218     1872    3         VLP@WINDOW.FWINDOW$ = PINCRW(T$->Y@MVD.SRD$,Y@WDTMNS1);

   1872   0 000488  ECC7 000C                            LDB,B6   T$,AUTO
          0 00048A  DC86                                 LDB,B5   ,B6
          0 00048B  B847 0045                            LDR,R3   Y@WDTMNS1,AUTO
          0 00048D  CBB5                                 LAB,B4   ,B5,R3
          0 00048E  CFC7 000E                            STB,B4   VLP@WINDOW,AUTO

     1219     1873    3         IF T$~=Y@MVD$ AND Y@SRD.ORG.CLM<Y@ENDCLM

   1873   0 000490  EDC7 0006                            CMB,B6   Y@MVD$,AUTO
          0 000492  0901 0106                            BE       s:1950,PREL
          0 000494  E844 0008                            LDR,R6   8,B4
          0 000496  E947 0050                            CMR,R6   Y@ENDCLM,AUTO
          0 000498  0881 0100                            BAGE     s:1950,PREL
          0 00049A  D844 001B                            LDR,R5   27,B4
          0 00049C  D947 004F                            CMR,R5   Y@ORGCLM,AUTO
          0 00049E  0A81 00FA                            BALE     s:1950,PREL

     1220     1874    4           AND Y@SRD.SRDEND.CLM>Y@ORGCLM THEN DO;

     1221     1875
     1222     1876        /* It occupies some of the modification space. */
     1223     1877         /* Set a flag if it doesn't overlap an edge. */
     1224     1878
     1225     1879    4            Y@TMP = 0;

   1879   0 0004A0  8747 0046                            CL       Y@TMP,AUTO

     1226     1880    4            IF Y@SRD.ORG.CLM>=Y@ORGCLM

   1880   0 0004A2  E947 004F                            CMR,R6   Y@ORGCLM,AUTO
          0 0004A4  0801 0008                            BAL      s:1885,PREL
          0 0004A6  D947 0050                            CMR,R5   Y@ENDCLM,AUTO
          0 0004A8  0A01 0004                            BAG      s:1885,PREL
PL6.E3A0      #002=KVC$ADJWND File=KVC$CNC.:E05TSI                               WED 07/30/97 01:56 Page:214

     1227     1881    4              AND Y@SRD.SRDEND.CLM<=Y@ENDCLM THEN Y@TMP = -1;

   1881   0 0004AA  8947 0046                            LBT,'FFFF'X       Y@TMP,AUTO
   1881   0 0004AC       FFFF

     1228     1882
     1229     1883        /* Now see how close it is, and how much we can get from or put into it */
     1230     1884
     1231     1885    4            VLP@WINDOW.FWINDOW$ = PINCRW(T$->Y@MVD.SRD$,Y@WDTPLS1);

   1885   0 0004AD  DC86                                 LDB,B5   ,B6
          0 0004AE  A847 0044                            LDR,R2   Y@WDTPLS1,AUTO
          0 0004B0  BBA5                                 LAB,B3   ,B5,R2
          0 0004B1  BFC7 000E                            STB,B3   VLP@WINDOW,AUTO

     1232     1886    4            Y@DLT = Y@ENDLIN-Y@SRD.ORG.LIN; /* <=0 if past us                    */

   1886   0 0004B3  E847 0052                            LDR,R6   Y@ENDLIN,AUTO
          0 0004B5  E243 0007                            SUB,R6   7,B3
          0 0004B7  EF47 0048                            STR,R6   Y@DLT,AUTO

     1233     1887    4            IF Y@DLT>0 THEN Y@DLT = Y@ORGLIN-Y@SRD.SRDEND.LIN+1;

   1887   0 0004B9  6A81 0009                            BLEZ,R6  s:1892,PREL

   1887   0 0004BB  D847 0051                            LDR,R5   Y@ORGLIN,AUTO
          0 0004BD  D243 001A                            SUB,R5   26,B3
          0 0004BF  E855                                 LDR,R6   R5
          0 0004C0  6E01                                 ADV,R6   1
          0 0004C1  EF47 0048                            STR,R6   Y@DLT,AUTO

     1234     1888
     1235     1889        /* If its adjacent and not overlapping, see how modifyable it is.
     1236     1890           If not, we won't extend into it */
     1237     1891
     1238     1892    5            IF Y@DLTU/2=0 THEN DO;
PL6.E3A0      #002=KVC$ADJWND File=KVC$CNC.:E05TSI                               WED 07/30/97 01:56 Page:215

   1892   0 0004C3  D847 0048                            LDR,R5   Y@DLT,AUTO
          0 0004C5  5041                                 SOR,R5   1
          0 0004C6  5981 00B1                            BNEZ,R5  s:1942,PREL

     1239     1893
     1240     1894        /* First check for moving ORG_PST in a form - we can't handle that. */
     1241     1895
     1242     1896    5               IF T$->Y@MVD.ORG=%KV#VD_ORG_FORM AND Y@DLT=0 THEN EXIT;

   1896   0 0004C8  D2C6 0015                            LLH,R5   21,B6
          0 0004CA  5D04                                 CMV,R5   4
          0 0004CB  0981 0003                            BNE      s:1900,PREL
          0 0004CD  6901 00A8                            BEZ,R6   s:1941,PREL

     1243     1897
     1244     1898        /* Ignore expansion into overlapping ones, Y@AVL will get set ok below. */
     1245     1899
     1246     1900    5               IF Y@SRD.SRDEND.LIN-Y@SRD.ORG.LIN>0 AND Y@TMP=0 THEN EXIT;

   1900   0 0004CF  C843 001A                            LDR,R4   26,B3
          0 0004D1  C243 0007                            SUB,R4   7,B3
          0 0004D3  4A81 0005                            BLEZ,R4  s:1903,PREL
          0 0004D5  C847 0046                            LDR,R4   Y@TMP,AUTO
          0 0004D7  4901 009E                            BEZ,R4   s:1941,PREL

     1247     1901        /* Remember the smallest adjacent one for choosing which way to go. */
     1248     1902
     1249     1903    5               Y@TMP = Y@SRD.SRDEND.LIN-Y@SRD.ORG.LIN;

   1903   0 0004D9  C843 001A                            LDR,R4   26,B3
          0 0004DB  C243 0007                            SUB,R4   7,B3
          0 0004DD  CF47 0046                            STR,R4   Y@TMP,AUTO

     1250     1904
     1251     1905        /* Ignore empty windows if this one is also empty, they'll be on t'other side */
     1252     1906
PL6.E3A0      #002=KVC$ADJWND File=KVC$CNC.:E05TSI                               WED 07/30/97 01:56 Page:216
     1253     1907    5               IF Y@TMP=0 AND Y@ENDLIN=Y@ORGLIN THEN GOTO SKIP_IT;

   1907   0 0004DF  4981 0007                            BNEZ,R4  s:1908,PREL
          0 0004E1  9847 0052                            LDR,R1   Y@ENDLIN,AUTO
          0 0004E3  9947 0051                            CMR,R1   Y@ORGLIN,AUTO
          0 0004E5  0901 00B3                            BE       s:1950,PREL

     1254     1908    5               IF Y@DLT=0 THEN Y@CRT(0) = MINIMUM(Y@CRT(0),Y@TMP);

   1908   0 0004E7  6981 000B                            BNEZ,R6  s:1909,PREL

   1908   0 0004E9  C947 0049                            CMR,R4   Y@CRT,AUTO
          0 0004EB  0A81 0003                            BALE     s:1908+8,PREL
          0 0004ED  C847 0049                            LDR,R4   Y@CRT,AUTO
          0 0004EF  CF47 0049                            STR,R4   Y@CRT,AUTO
          0 0004F1  0F81 0009                            B        s:1913,PREL

     1255     1909    5               ELSE Y@CRT(1) = MINIMUM(Y@CRT(1),Y@TMP);

   1909   0 0004F3  C947 004A                            CMR,R4   Y@CRT+1,AUTO
          0 0004F5  0A81 0003                            BALE     s:1909+6,PREL
          0 0004F7  C847 004A                            LDR,R4   Y@CRT+1,AUTO
          0 0004F9  CF47 004A                            STR,R4   Y@CRT+1,AUTO

     1256     1910
     1257     1911        /* Find out how much we can reduce it. */
     1258     1912
     1259     1913    5               IF NOT T$->Y@MVD.SRD$->Y@SRD.OPT THEN IF Y@WDTPLS1>0

   1913   0 0004FB  DC86                                 LDB,B5   ,B6
          0 0004FC  89C5 001C                            CMZ      28,B5
          0 0004FE  0801 0015                            BAL      s:1919,PREL

   1913   0 000500  2A81 000A                            BLEZ,R2  s:1915,PREL

     1260     1914    5               THEN Y@TMP = T$->Y@MVD.SRD$->Y@SRD.WDT-T$->Y@MVD.SRD$->Y@SRD.MINWDT;

PL6.E3A0      #002=KVC$ADJWND File=KVC$CNC.:E05TSI                               WED 07/30/97 01:56 Page:217
   1914   0 000502  C2C5 001E                            LLH,R4   30,B5
          0 000504  C245 000D                            SUB,R4   13,B5
          0 000506  8254                                 NEG      R4
          0 000507  CF47 0046                            STR,R4   Y@TMP,AUTO
          0 000509  0F81 000A                            B        s:1919,PREL

     1261     1915    5               ELSE Y@TMP = T$->Y@MVD.SRD$->Y@SRD.LNG-T$->Y@MVD.SRD$->Y@SRD.MINLNG;

   1915   0 00050B  C2C5 000E                            LLH,R4   14,B5
          0 00050D  9845 001E                            LDR,R1   30,B5
          0 00050F  9570 00FF                            AND,R1   255,IMO
          0 000511  C251                                 SUB,R4   R1
          0 000512  CF47 0046                            STR,R4   Y@TMP,AUTO

     1262     1916
     1263     1917        /* If there's nothing doing here, don't bother */
     1264     1918
     1265     1919    5               IF Y@TMP=0 AND Y@RQS>0

   1919   0 000514  C847 0046                            LDR,R4   Y@TMP,AUTO
          0 000516  4981 0005                            BNEZ,R4  s:1919+8,PREL
          0 000518  9847 0047                            LDR,R1   Y@RQS,AUTO
          0 00051A  1A01 005B                            BGZ,R1   s:1941,PREL
          0 00051C  9847 0039                            LDR,R1   Y@X,AUTO
          0 00051E  1D10                                 CMV,R1   16
          0 00051F  0A81 0005                            BALE     s:1925,PREL
          0 000521  DDC7 0018                            CMB,B5   Y@S$,AUTO
          0 000523  0981 0052                            BNE      s:1941,PREL

     1266     1920    5                 OR Y@X>SIZEW(Y@S$)/2 AND T$->Y@MVD.SRD$~=Y@S$(0) THEN EXIT;
     1267     1921
     1268     1922
     1269     1923        /* Check whether it is part of our session, then put in the list. */
     1270     1924
     1271     1925    5               VLP@WINDOW.FWINDOW$ = %KV_SSN.STR$;

   1925   0 000525  CC80 0000 0000  xsym                 LDB,B4   KV$PTR$
PL6.E3A0      #002=KVC$ADJWND File=KVC$CNC.:E05TSI                               WED 07/30/97 01:56 Page:218
          0 000528  ACC4 0002                            LDB,B2   2,B4
          0 00052A  9CC2 0004                            LDB,B1   4,B2
          0 00052C  9FC7 000E                            STB,B1   VLP@WINDOW,AUTO

     1272     1926    6               DO WHILE VLP@WINDOW.FWINDOW$~=ADDR(NIL);

   1926   0 00052E  0F81 000D                            B        s:1929,PREL

     1273     1927    6                  IF VLP@WINDOW.FWINDOW$->KV$STR.MVD$=T$ THEN EXIT;

   1927   0 000530  ECC7 000E                            LDB,B6   VLP@WINDOW,AUTO
          0 000532  DCC6 0004                            LDB,B5   4,B6
          0 000534  DDC7 000C                            CMB,B5   T$,AUTO
          0 000536  0901 0008                            BE       s:1930,PREL

     1274     1928    6                  VLP@WINDOW.FWINDOW$ = VLP@WINDOW.FWINDOW$->KV$STR.LNK$;

   1928   0 000538  CCC6 0002                            LDB,B4   2,B6
          0 00053A  CFC7 000E                            STB,B4   VLP@WINDOW,AUTO

     1275     1929    6               END;

   1929   0 00053C  8DC7 000E                            CMN      VLP@WINDOW,AUTO
          0 00053E  09F2                                 BNE      s:1927,SPREL

     1276     1930    5               IF VLP@WINDOW.FWINDOW$=ADDR(NIL) THEN Y@NSS(Y@DLT) = Y@NSS(Y@DLT)+1;

   1930   0 00053F  8DC7 000E                            CMN      VLP@WINDOW,AUTO
          0 000541  0981 0005                            BNE      s:1931,PREL

   1930   0 000543  B847 0048                            LDR,R3   Y@DLT,AUTO
          0 000545  3E4D                                 ADV,R3   77
          0 000546  8AB7                                 INC      ,AUTO,R3

     1277     1931    6               IF T$->Y@MVD.SRD$~=Y@S$(0) OR Y@X=0 THEN DO;

   1931   0 000547  ECC7 000C                            LDB,B6   T$,AUTO
PL6.E3A0      #002=KVC$ADJWND File=KVC$CNC.:E05TSI                               WED 07/30/97 01:56 Page:219
          0 000549  DC86                                 LDB,B5   ,B6
          0 00054A  DDC7 0018                            CMB,B5   Y@S$,AUTO
          0 00054C  0981 0005                            BNE      s:1932,PREL
          0 00054E  E847 0039                            LDR,R6   Y@X,AUTO
          0 000550  6981 0007                            BNEZ,R6  s:1935,PREL

     1278     1932    6                  Y@S$(Y@X) = T$->Y@MVD.SRD$;

   1932   0 000552  B847 0039                            LDR,R3   Y@X,AUTO
          0 000554  3E0C                                 ADV,R3   12
          0 000555  DFB7                                 STB,B5   ,AUTO,R3

     1279     1933    6                  Y@X = Y@X+1;

   1933   0 000556  8AC7 0039                            INC      Y@X,AUTO

     1280     1934    6               END;

     1281     1935    6               IF Y@DLT~=0 THEN DO;

   1935   0 000558  E847 0048                            LDR,R6   Y@DLT,AUTO
          0 00055A  6901 0016                            BEZ,R6   s:1940+2,PREL

     1282     1936    6                  Y@DLT = Y@DLT+Y@TMP;

   1936   0 00055C  EA47 0046                            ADD,R6   Y@TMP,AUTO
          0 00055E  EF47 0048                            STR,R6   Y@DLT,AUTO

     1283     1937    6                  IF T$->Y@MVD.SRD$~=Y@S$(0)

   1937   0 000560  DDC7 0018                            CMB,B5   Y@S$,AUTO
          0 000562  0901 0009                            BE       s:1939,PREL

     1284     1938    6                  THEN Y@ORG(Y@X-1) = '1'B;

   1938   0 000564  CBC7 0037                            LAB,B4   Y@S$+31,AUTO
          0 000566  B847 0039                            LDR,R3   Y@X,AUTO
PL6.E3A0      #002=KVC$ADJWND File=KVC$CNC.:E05TSI                               WED 07/30/97 01:56 Page:220
          0 000568  3E0F                                 ADV,R3   15
          0 000569  8934                                 LBT      ,B4,R3
          0 00056A  0F81 0018                            B        s:1945,PREL

     1285     1939    6                  ELSE Y@ORG(0) = '1'B;

   1939   0 00056C  8947 0038                            LBT,'8000'X       Y@ORG,AUTO
   1939   0 00056E       8000

     1286     1940    5               END; ELSE Y@DLT = -Y@TMP;

   1940   0 00056F  0F81 0013                            B        s:1945,PREL

   1940   0 000571  E847 0046                            LDR,R6   Y@TMP,AUTO
          0 000573  8256                                 NEG      R6
          0 000574  EF47 0048                            STR,R6   Y@DLT,AUTO

     1287     1941    5            END;                           /* If adjacent, non-overlapping       */

   1941   0 000576  0F81 000C                            B        s:1945,PREL

     1288     1942    4            ELSE IF T$->Y@MVD.SRD$=Y@S$(0) AND Y@X>0

   1942   0 000578  DC86                                 LDB,B5   ,B6
          0 000579  DDC7 0018                            CMB,B5   Y@S$,AUTO
          0 00057B  0981 0007                            BNE      s:1945,PREL
          0 00057D  D847 0039                            LDR,R5   Y@X,AUTO
          0 00057F  5A81 0003                            BLEZ,R5  s:1945,PREL

     1289     1943        /* Do nothing if the FWINDOW specification isn't an adjacent window. */
     1290     1944    4            THEN Y@RQS = 0;

   1944   0 000581  8747 0047                            CL       Y@RQS,AUTO

     1291     1945    4            Y@DLT = -Y@DLT;

   1945   0 000583  8256                                 NEG      R6
PL6.E3A0      #002=KVC$ADJWND File=KVC$CNC.:E05TSI                               WED 07/30/97 01:56 Page:221
          0 000584  EF47 0048                            STR,R6   Y@DLT,AUTO

     1292     1946    5            IF Y@DLT<0 THEN DO;

   1946   0 000586  6881 000C                            BGEZ,R6  s:1949+2,PREL

     1293     1947    5               Y@DLT = -Y@DLT-1;

   1947   0 000588  8656                                 CPL      R6
          0 000589  EF47 0048                            STR,R6   Y@DLT,AUTO

     1294     1948    5               IF Y@DLT<Y@AVL(1) THEN Y@AVL(1) = Y@DLT;

   1948   0 00058B  E947 004C                            CMR,R6   Y@AVL+1,AUTO
          0 00058D  0881 000B                            BAGE     s:1950,PREL

   1948   0 00058F  EF47 004C                            STR,R6   Y@AVL+1,AUTO

     1295     1949    4            END; ELSE IF Y@DLT<Y@AVL(0) THEN Y@AVL(0) = Y@DLT;

   1949   0 000591  0F81 0007                            B        s:1950,PREL

   1949   0 000593  E947 004B                            CMR,R6   Y@AVL,AUTO
          0 000595  0881 0003                            BAGE     s:1950,PREL

   1949   0 000597  EF47 004B                            STR,R6   Y@AVL,AUTO

     1296     1950    4         END;                         /* If any overlapping of modification area */

   1949   0                              SKIP_IT         null
     1297     1951    3   SKIP_IT:;
     1298     1952    3         T$ = T$->Y@MVD.LNK$;

   1952   0 000599  DCC6 0002            SKIP_IT         LDB,B5   2,B6
          0 00059B  DFC7 000C                            STB,B5   T$,AUTO

     1299     1953    3      END;
PL6.E3A0      #002=KVC$ADJWND File=KVC$CNC.:E05TSI                               WED 07/30/97 01:56 Page:222

   1953   0 00059D  8DC7 000C                            CMN      T$,AUTO
          0 00059F  0981 FEE8                            BNE      s:1872,PREL

     1300     1954
     1301     1955        /* Now lets see what is available, and pick the best one */
     1302     1956
     1303     1957    2      Y@DLT = 0;

   1957   0 0005A1  8747 0048                            CL       Y@DLT,AUTO

     1304     1958    2      IF %KV_SRD.ADJTOPLFT THEN Y@DLT = Y@DLT-1;

   1958   0 0005A3  ECC7 0008                            LDB,B6   Y@SRD$,AUTO
          0 0005A5  82C6 000F                            LB,'0008'X        15,B6
          0 0005A7       0008
          0 0005A8  0581 0003                            BBF      s:1959,PREL

   1958   0 0005AA  88C7 0048                            DEC      Y@DLT,AUTO

     1305     1959    2      IF Y@NSS(0)~=Y@NSS(1)

   1959   0 0005AC  E847 004D                            LDR,R6   Y@NSS,AUTO
          0 0005AE  E947 004E                            CMR,R6   Y@NSS+1,AUTO
          0 0005B0  0901 000D                            BE       s:1962,PREL

     1306     1960    2      THEN IF Y@NSS(0)=0 THEN Y@DLT = 0;

   1960   0 0005B2  6981 0005                            BNEZ,R6  s:1961,PREL

   1960   0 0005B4  8747 0048                            CL       Y@DLT,AUTO
          0 0005B6  0F81 0007                            B        s:1962,PREL

     1307     1961    2      ELSE IF Y@NSS(1)=0 THEN Y@DLT = Y@DLT-1;

   1961   0 0005B8  D847 004E                            LDR,R5   Y@NSS+1,AUTO
          0 0005BA  5981 0003                            BNEZ,R5  s:1962,PREL
PL6.E3A0      #002=KVC$ADJWND File=KVC$CNC.:E05TSI                               WED 07/30/97 01:56 Page:223

   1961   0 0005BC  88C7 0048                            DEC      Y@DLT,AUTO

     1308     1962    3      IF Y@RQS>0 AND Y@AVL(0)~=Y@AVL(1) THEN DO;

   1962   0 0005BE  D847 0047                            LDR,R5   Y@RQS,AUTO
          0 0005C0  5A81 0024                            BLEZ,R5  s:1969,PREL
          0 0005C2  C847 004B                            LDR,R4   Y@AVL,AUTO
          0 0005C4  C947 004C                            CMR,R4   Y@AVL+1,AUTO
          0 0005C6  0901 001E                            BE       s:1969,PREL

     1309     1963    3         IF Y@AVL(1)=0 THEN Y@DLT = 0;

   1963   0 0005C8  B847 004C                            LDR,R3   Y@AVL+1,AUTO
          0 0005CA  3981 0003                            BNEZ,R3  s:1964,PREL

   1963   0 0005CC  8747 0048                            CL       Y@DLT,AUTO

     1310     1964    3         IF Y@AVL(0)=0 THEN Y@DLT = Y@DLT-1;

   1964   0 0005CE  4981 0003                            BNEZ,R4  s:1965,PREL

   1964   0 0005D0  88C7 0048                            DEC      Y@DLT,AUTO

     1311     1965    3         IF MINIMUM(Y@AVL(0),Y@AVL(1))>=Y@RQS THEN EXIT;

   1965   0 0005D2  B954                                 CMR,R3   R4
          0 0005D3  0A81 0002                            BALE     s:1965+4,PREL
          0 0005D5  B854                                 LDR,R3   R4
          0 0005D6  B955                                 CMR,R3   R5
          0 0005D7  0881 000B                            BAGE     s:1968,PREL

     1312     1966    3         IF Y@AVL(0)>Y@AVL(1) THEN Y@DLT = 0;

   1966   0 0005D9  C947 004C                            CMR,R4   Y@AVL+1,AUTO
          0 0005DB  0A81 0005                            BALE     s:1967,PREL

PL6.E3A0      #002=KVC$ADJWND File=KVC$CNC.:E05TSI                               WED 07/30/97 01:56 Page:224
   1966   0 0005DD  8747 0048                            CL       Y@DLT,AUTO
          0 0005DF  0F81 001F                            B        s:1974,PREL

     1313     1967    3         ELSE Y@DLT = Y@DLT-1;

   1967   0 0005E1  88C7 0048                            DEC      Y@DLT,AUTO

     1314     1968    3      END; ELSE DO;

   1968   0 0005E3  0F81 001B                            B        s:1974,PREL

     1315     1969    3         IF Y@CRT(0)=%BITBIN('7FFF'X)

   1969   0 0005E5  C847 0049                            LDR,R4   Y@CRT,AUTO
          0 0005E7  C970 7FFF                            CMR,R4   32767,IMO
          0 0005E9  0981 000D                            BNE      s:1972,PREL

     1316     1970    3         THEN IF Y@CRT(0)=Y@CRT(1) THEN Y@RQS = 0; /* No shrink if no others     */

   1970   0 0005EB  C947 004A                            CMR,R4   Y@CRT+1,AUTO
          0 0005ED  0981 0005                            BNE      s:1971,PREL

   1970   0 0005EF  8747 0047                            CL       Y@RQS,AUTO
          0 0005F1  0F81 000D                            B        s:1974,PREL

     1317     1971    3         ELSE Y@DLT = Y@DLT-1;

   1971   0 0005F3  88C7 0048                            DEC      Y@DLT,AUTO
          0 0005F5  0F81 0009                            B        s:1974,PREL

     1318     1972    3         ELSE IF Y@CRT(1)=%BITBIN('7FFF'X) THEN Y@DLT = 0;

   1972   0 0005F7  B847 004A                            LDR,R3   Y@CRT+1,AUTO
          0 0005F9  B970 7FFF                            CMR,R3   32767,IMO
          0 0005FB  0981 0003                            BNE      s:1974,PREL

   1972   0 0005FD  8747 0048                            CL       Y@DLT,AUTO
PL6.E3A0      #002=KVC$ADJWND File=KVC$CNC.:E05TSI                               WED 07/30/97 01:56 Page:225

     1319     1973    3      END;

     1320     1974    2      IF VLP@WINDOW.POSITION=0 AND Y@DLT=0

   1974   0 0005FF  D2C7 0012                            LLH,R5   VLP@WINDOW+4,AUTO
          0 000601  5981 0005                            BNEZ,R5  s:1974+8,PREL
          0 000603  C847 0048                            LDR,R4   Y@DLT,AUTO
          0 000605  4901 0007                            BEZ,R4   s:1976,PREL
          0 000607  5901 0028                            BEZ,R5   s:1983,PREL
          0 000609  89C7 0038                            CMZ      Y@ORG,AUTO
          0 00060B  0801 0024                            BAL      s:1983,PREL

     1321     1975    3        OR VLP@WINDOW.POSITION~=0 AND NOT Y@ORG(0) THEN DO;

     1322     1976    3         IF Y@AVL(0)<Y@RQS THEN Y@RQS = Y@AVL(0);

   1976   0 00060D  C847 004B                            LDR,R4   Y@AVL,AUTO
          0 00060F  C947 0047                            CMR,R4   Y@RQS,AUTO
          0 000611  0881 0003                            BAGE     s:1977,PREL

   1976   0 000613  CF47 0047                            STR,R4   Y@RQS,AUTO

     1323     1977    3         Y@T2.T = 0;                  /* Make a mask for the ones that matter    */

   1977   0 000615  8747 004D                            CL       Y@NSS,AUTO

     1324     1978    3         Y@T2.F(Y@X-1) = '1'B;

   1978   0 000617  CBC7 004C                            LAB,B4   Y@AVL+1,AUTO
          0 000619  B847 0039                            LDR,R3   Y@X,AUTO
          0 00061B  3E0F                                 ADV,R3   15
          0 00061C  8934                                 LBT      ,B4,R3

     1325     1979    3         Y@T2.T = -Y@T2.T;                 /* Y@T2.T and Y@T2.F are REDEFs       */

   1979   0 00061D  E847 004D                            LDR,R6   Y@NSS,AUTO
PL6.E3A0      #002=KVC$ADJWND File=KVC$CNC.:E05TSI                               WED 07/30/97 01:56 Page:226
          0 00061F  8256                                 NEG      R6
          0 000620  EF47 004D                            STR,R6   Y@NSS,AUTO

     1326     1980    3         Y@ORG = Y@ORG\Y@T2.F;             /* Pick only the BTMRHT ones.         */

   1980   0 000622  A847 0038                            LDR,R2   Y@ORG,AUTO
          0 000624  A647 004D                            XOR,R2   Y@NSS,AUTO
          0 000626  AF47 0038                            STR,R2   Y@ORG,AUTO

     1327     1981    3         VLP@WINDOW.POSITION = %G_POSITION_BOTTOM#-Y@WDTPLS1;

   1981   0 000628  9847 0044                            LDR,R1   Y@WDTPLS1,AUTO
          0 00062A  8251                                 NEG      R1
          0 00062B  1E04                                 ADV,R1   4
          0 00062C  97C7 0012                            STH,R1   VLP@WINDOW+4,AUTO

     1328     1982    3      END; ELSE DO;

   1982   0 00062E  0F81 0012                            B        s:1991,PREL

     1329     1983    3         IF Y@AVL(1)<Y@RQS THEN Y@RQS = Y@AVL(1);

   1983   0 000630  C847 004C                            LDR,R4   Y@AVL+1,AUTO
          0 000632  C947 0047                            CMR,R4   Y@RQS,AUTO
          0 000634  0881 0003                            BAGE     s:1984,PREL

   1983   0 000636  CF47 0047                            STR,R4   Y@RQS,AUTO

     1330     1984    3         VLP@WINDOW.POSITION = %G_POSITION_TOP#+Y@WDTPLS1;

   1984   0 000638  B847 0044                            LDR,R3   Y@WDTPLS1,AUTO
          0 00063A  3E01                                 ADV,R3   1
          0 00063B  B7C7 0012                            STH,R3   VLP@WINDOW+4,AUTO

     1331     1985    3         Y@CRT(0) = Y@CRT(1);

   1985   0 00063D  D847 004A                            LDR,R5   Y@CRT+1,AUTO
PL6.E3A0      #002=KVC$ADJWND File=KVC$CNC.:E05TSI                               WED 07/30/97 01:56 Page:227
          0 00063F  DF47 0049                            STR,R5   Y@CRT,AUTO

     1332     1986    3      END;

     1333     1987
     1334     1988        /* If we're shrinking from empty windows, make sure we only do one for each
     1335     1989           position along the edge, since they all look ok. */
     1336     1990
     1337     1991    2      IF Y@CRT(0)>0 OR Y@X=1 THEN GOTO DO_MODS;

   1991   0 000641  D847 0049                            LDR,R5   Y@CRT,AUTO
          0 000643  5A01 0101                            BGZ,R5   s:2051,PREL
          0 000645  C847 0039                            LDR,R4   Y@X,AUTO
          0 000647  4D01                                 CMV,R4   1
          0 000648  0901 00FC                            BE       s:2051,PREL

     1338     1992        /* First sort by starting position along the edge,
     1339     1993           noting the empty ones in Y@T1.F, and resetting Y@ORG for non_empty ones that
     1340     1994           overlap empty ones, and for empty ones that overlap the edges of this one. */
     1341     1995    2      Y@T1 = '0'B;

   1995   0 00064A  8747 004B                            CL       Y@AVL,AUTO
          0 00064C  8747 004C                            CL       Y@AVL+1,AUTO

     1342     1996    3      DO Y@TMP=0 TO Y@X-1;

   1996   0 00064E  8747 0046                            CL       Y@TMP,AUTO
          0 000650  0F81 008E                            B        s:2022+2,PREL

     1343     1997    4         IF Y@ORG(Y@TMP) THEN DO;

   1997   0 000652  EBC7 0038                            LAB,B6   Y@ORG,AUTO
          0 000654  B847 0046                            LDR,R3   Y@TMP,AUTO
          0 000656  82B6                                 LB       ,B6,R3
          0 000657  0581 0085                            BBF      s:2022,PREL

     1344     1998    4            U$ = PINCRW(Y@S$(Y@TMP),Y@WDTMNS1);
PL6.E3A0      #002=KVC$ADJWND File=KVC$CNC.:E05TSI                               WED 07/30/97 01:56 Page:228

   1998   0 000659  3E0C                                 ADV,R3   12
          0 00065A  ECB7                                 LDB,B6   ,AUTO,R3
          0 00065B  A847 0045                            LDR,R2   Y@WDTMNS1,AUTO
          0 00065D  DBA6                                 LAB,B5   ,B6,R2
          0 00065E  DFC7 000A                            STB,B5   U$,AUTO

     1345     1999    5            DO Y@DLT=Y@TMP+1 TO Y@X-1;

   1999   0 000660  E847 0046                            LDR,R6   Y@TMP,AUTO
          0 000662  6E01                                 ADV,R6   1
          0 000663  EF47 0048                            STR,R6   Y@DLT,AUTO
          0 000665  0F81 0024                            B        s:2007+2,PREL

     1346     2000    5               IF Y@ORG(Y@DLT)

   2000   0 000667  EBC7 0038                            LAB,B6   Y@ORG,AUTO
          0 000669  B847 0048                            LDR,R3   Y@DLT,AUTO
          0 00066B  82B6                                 LB       ,B6,R3
          0 00066C  0581 001B                            BBF      s:2007,PREL

     1347     2001    5               THEN IF PINCRW(Y@S$(Y@DLT),Y@WDTMNS1)->Y@SRD.ORG.CLM

   2001   0 00066E  3E0C                                 ADV,R3   12
          0 00066F  ECB7                                 LDB,B6   ,AUTO,R3
          0 000670  A847 0045                            LDR,R2   Y@WDTMNS1,AUTO
          0 000672  2E08                                 ADV,R2   8
          0 000673  DCC7 000A                            LDB,B5   U$,AUTO
          0 000675  E826                                 LDR,R6   ,B6,R2
          0 000676  E945 0008                            CMR,R6   8,B5
          0 000678  0881 000F                            BAGE     s:2007,PREL

     1348     2002    6                 < U$->Y@SRD.ORG.CLM THEN DO;

     1349     2003    6                  T$ = U$;

   2003   0 00067A  DFC7 000C                            STB,B5   T$,AUTO
PL6.E3A0      #002=KVC$ADJWND File=KVC$CNC.:E05TSI                               WED 07/30/97 01:56 Page:229

     1350     2004    6                  U$ = PINCRW(Y@S$(Y@DLT),Y@WDTMNS1);

   2004   0 00067C  9847 0045                            LDR,R1   Y@WDTMNS1,AUTO
          0 00067E  CB96                                 LAB,B4   ,B6,R1
          0 00067F  CFC7 000A                            STB,B4   U$,AUTO

     1351     2005    6                  Y@S$(Y@DLT) = PINCRW(T$,Y@WDTPLS1);

   2005   0 000681  B847 0044                            LDR,R3   Y@WDTPLS1,AUTO
          0 000683  EBB5                                 LAB,B6   ,B5,R3
          0 000684  B847 0048                            LDR,R3   Y@DLT,AUTO
          0 000686  3E0C                                 ADV,R3   12
          0 000687  EFB7                                 STB,B6   ,AUTO,R3

     1352     2006    6               END;                        /* if CLM(Y@DLT) < CLM(Y@TMP)         */

     1353     2007    5            END;                           /* index on Y@DLT                     */

   2007   0 000688  8AC7 0048                            INC      Y@DLT,AUTO
          0 00068A  E847 0048                            LDR,R6   Y@DLT,AUTO
          0 00068C  E947 0039                            CMR,R6   Y@X,AUTO
          0 00068E  0859                                 BAL      s:2000,SPREL

     1354     2008    4            Y@S$(Y@TMP) = PINCRW(U$,Y@WDTPLS1);

   2008   0 00068F  ECC7 000A                            LDB,B6   U$,AUTO
          0 000691  B847 0044                            LDR,R3   Y@WDTPLS1,AUTO
          0 000693  DBB6                                 LAB,B5   ,B6,R3
          0 000694  A847 0046                            LDR,R2   Y@TMP,AUTO
          0 000696  2E0C                                 ADV,R2   12
          0 000697  DFA7                                 STB,B5   ,AUTO,R2

     1355     2009    4            T$ = PINCRW(Y@S$(Y@TMP),Y@WDTPLS1);

   2009   0 000698  CBB5                                 LAB,B4   ,B5,R3
          0 000699  CFC7 000C                            STB,B4   T$,AUTO
PL6.E3A0      #002=KVC$ADJWND File=KVC$CNC.:E05TSI                               WED 07/30/97 01:56 Page:230

     1356     2010    5            IF T$->Y@SRD.SRDEND.LIN=T$->Y@SRD.ORG.LIN THEN DO;

   2010   0 00069B  D844 001A                            LDR,R5   26,B4
          0 00069D  D944 0007                            CMR,R5   7,B4
          0 00069F  0981 002A                            BNE      s:2018,PREL

     1357     2011    5               Y@T1.F(Y@TMP) = '1'B;

   2011   0 0006A1  BBC7 004B                            LAB,B3   Y@AVL,AUTO
          0 0006A3  9847 0046                            LDR,R1   Y@TMP,AUTO
          0 0006A5  8913                                 LBT      ,B3,R1

     1358     2012    5               IF Y@TMP>0 AND NOT Y@T1.F(Y@TMP-1)

   2012   0 0006A6  1A81 0010                            BLEZ,R1  s:2015,PREL
          0 0006A8  BBC7 004A                            LAB,B3   Y@CRT+1,AUTO
          0 0006AA  1E0F                                 ADV,R1   15
          0 0006AB  8293                                 LB       ,B3,R1
          0 0006AC  0501 000A                            BBT      s:2015,PREL
          0 0006AE  C847 004C                            LDR,R4   Y@AVL+1,AUTO
          0 0006B0  C946 0008                            CMR,R4   8,B6
          0 0006B2  0A81 0004                            BALE     s:2015,PREL

     1359     2013    5                 AND Y@T1.S>U$->Y@SRD.ORG.CLM
     1360     2014    5               THEN Y@ORG(Y@TMP-1) = '0'B; /* This empty overlaps that non_empty. */

   2014   0 0006B4  BBC7 0037                            LAB,B3   Y@S$+31,AUTO
          0 0006B6  8813                                 LBF      ,B3,R1

     1361     2015    5               IF U$->Y@SRD.ORG.CLM<Y@ORGCLM OR U$->Y@SRD.SRDEND.CLM>Y@ENDCLM

   2015   0 0006B7  C846 0008                            LDR,R4   8,B6
          0 0006B9  C947 004F                            CMR,R4   Y@ORGCLM,AUTO
          0 0006BB  0801 0007                            BAL      s:2016,PREL
          0 0006BD  9846 001B                            LDR,R1   27,B6
          0 0006BF  9947 0050                            CMR,R1   Y@ENDCLM,AUTO
PL6.E3A0      #002=KVC$ADJWND File=KVC$CNC.:E05TSI                               WED 07/30/97 01:56 Page:231
          0 0006C1  0A81 0013                            BALE     s:2020,PREL

     1362     2016    5               THEN Y@ORG(Y@TMP) = '0'B;

   2016   0 0006C3  BBC7 0038                            LAB,B3   Y@ORG,AUTO
          0 0006C5  9847 0046                            LDR,R1   Y@TMP,AUTO
          0 0006C7  8813                                 LBF      ,B3,R1

     1363     2017    5            END;

   2017   0 0006C8  0F81 000C                            B        s:2020,PREL

     1364     2018    4            ELSE IF Y@T1.S>U$->Y@SRD.ORG.CLM

   2018   0 0006CA  C847 004C                            LDR,R4   Y@AVL+1,AUTO
          0 0006CC  C946 0008                            CMR,R4   8,B6
          0 0006CE  0A81 0006                            BALE     s:2020,PREL

     1365     2019    4            THEN Y@ORG(Y@TMP) = '0'B; /* This non_empty overlaps that empty.     */

   2019   0 0006D0  BBC7 0038                            LAB,B3   Y@ORG,AUTO
          0 0006D2  9847 0046                            LDR,R1   Y@TMP,AUTO
          0 0006D4  8813                                 LBF      ,B3,R1

     1366     2020    4            IF U$->Y@SRD.SRDEND.CLM>Y@T1.S THEN Y@T1.S = U$->Y@SRD.SRDEND.CLM;

   2020   0 0006D5  C846 001B                            LDR,R4   27,B6
          0 0006D7  C947 004C                            CMR,R4   Y@AVL+1,AUTO
          0 0006D9  0A81 0003                            BALE     s:2022,PREL

   2020   0 0006DB  CF47 004C                            STR,R4   Y@AVL+1,AUTO

     1367     2021    4         END;                              /* if Y@ORG(Y@TMP)                    */

     1368     2022    3      END; /* index on Y@TMP */

   2022   0 0006DD  8AC7 0046                            INC      Y@TMP,AUTO
PL6.E3A0      #002=KVC$ADJWND File=KVC$CNC.:E05TSI                               WED 07/30/97 01:56 Page:232
          0 0006DF  E847 0046                            LDR,R6   Y@TMP,AUTO
          0 0006E1  E947 0039                            CMR,R6   Y@X,AUTO
          0 0006E3  0801 FF6E                            BAL      s:1997,PREL

     1369     2023    2      IF NOT Y@ORG THEN Y@RQS = 0;         /* Nothing left to adjust             */

   2023   0 0006E5  D847 0038                            LDR,R5   Y@ORG,AUTO
          0 0006E7  5981 0003                            BNEZ,R5  s:2024,PREL

   2023   0 0006E9  8747 0047                            CL       Y@RQS,AUTO

     1370     2024    2      IF NOT Y@ORG OR NOT Y@T1.F THEN GOTO DO_MODS;

   2024   0 0006EB  5901 0059                            BEZ,R5   s:2051,PREL
          0 0006ED  C847 004B                            LDR,R4   Y@AVL,AUTO
          0 0006EF  4901 0055                            BEZ,R4   s:2051,PREL

     1371     2025        /* Now go through and pick out a set that doesn't overlap. */
     1372     2026    2      Y@T2.F = Y@ORG;                      /* Pick one with a maximal effect     */

   2026   0 0006F1  DF47 004D                            STR,R5   Y@NSS,AUTO

     1373     2027    2      Y@T2.S = 0;

   2027   0 0006F3  8747 004E                            CL       Y@NSS+1,AUTO

     1374     2028    2      Y@ORG = '0'B;

   2028   0 0006F5  8747 0038                            CL       Y@ORG,AUTO

     1375     2029    3      DO UNTIL NOT Y@T2.F;

     1376     2030    3         Y@T1.F = Y@T2.F;

   2030   0 0006F7  E847 004D                            LDR,R6   Y@NSS,AUTO
          0 0006F9  EF47 004B                            STR,R6   Y@AVL,AUTO

PL6.E3A0      #002=KVC$ADJWND File=KVC$CNC.:E05TSI                               WED 07/30/97 01:56 Page:233
     1377     2031    3         Y@DLT = 0;

   2031   0 0006FB  8747 0048                            CL       Y@DLT,AUTO

     1378     2032    3         Y@T1.S = 511;

   2032   0 0006FD  D870 01FF                            LDR,R5   511,IMO
          0 0006FF  DF47 004C                            STR,R5   Y@AVL+1,AUTO

     1379     2033    4         DO UNTIL Y@TMP=0;

     1380     2034    4            Y@TMP = Y@TMP-1;

   2034   0 000701  88C7 0046                            DEC      Y@TMP,AUTO

     1381     2035    5            IF Y@T2.F(Y@TMP) THEN DO;

   2035   0 000703  EBC7 004D                            LAB,B6   Y@NSS,AUTO
          0 000705  B847 0046                            LDR,R3   Y@TMP,AUTO
          0 000707  82B6                                 LB       ,B6,R3
          0 000708  0581 0025                            BBF      s:2045,PREL

     1382     2036    5               T$ = PINCRW(Y@S$(Y@TMP),Y@WDTMNS1);

   2036   0 00070A  3E0C                                 ADV,R3   12
          0 00070B  ECB7                                 LDB,B6   ,AUTO,R3
          0 00070C  A847 0045                            LDR,R2   Y@WDTMNS1,AUTO
          0 00070E  DBA6                                 LAB,B5   ,B6,R2
          0 00070F  DFC7 000C                            STB,B5   T$,AUTO

     1383     2037    5               IF T$->Y@SRD.SRDEND.CLM>=Y@T1.S

   2037   0 000711  E845 001B                            LDR,R6   27,B5
          0 000713  E947 004C                            CMR,R6   Y@AVL+1,AUTO
          0 000715  0801 0008                            BAL      s:2040,PREL

     1384     2038    5               THEN Y@T1.F(Y@TMP) = '0'B;
PL6.E3A0      #002=KVC$ADJWND File=KVC$CNC.:E05TSI                               WED 07/30/97 01:56 Page:234

   2038   0 000717  CBC7 004B                            LAB,B4   Y@AVL,AUTO
          0 000719  9847 0046                            LDR,R1   Y@TMP,AUTO
          0 00071B  8814                                 LBF      ,B4,R1
          0 00071C  0F81 0011                            B        s:2045,PREL

     1385     2039    6               ELSE DO;

     1386     2040    6                  Y@T1.S = T$->Y@SRD.ORG.CLM+1;

   2040   0 00071E  D845 0008                            LDR,R5   8,B5
          0 000720  5E01                                 ADV,R5   1
          0 000721  DF47 004C                            STR,R5   Y@AVL+1,AUTO

     1387     2041    6                  Y@DLT = Y@DLT+T$->Y@SRD.SRDEND.CLM-T$->Y@SRD.ORG.CLM;

   2041   0 000723  EA47 0048                            ADD,R6   Y@DLT,AUTO
          0 000725  E245 0008                            SUB,R6   8,B5
          0 000727  EF47 0048                            STR,R6   Y@DLT,AUTO

     1388     2042    6                  Y@T2.F(Y@TMP) = '0'B;

   2042   0 000729  CBC7 004D                            LAB,B4   Y@NSS,AUTO
          0 00072B  9847 0046                            LDR,R1   Y@TMP,AUTO
          0 00072D  8814                                 LBF      ,B4,R1

     1389     2043    6               END;

     1390     2044    5            END;

     1391     2045    4         END;

   2045   0 00072E  E847 0046                            LDR,R6   Y@TMP,AUTO
          0 000730  69D1                                 BNEZ,R6  s:2034,SPREL

     1392     2046    4         IF Y@DLT>=Y@T2.S THEN DO;

PL6.E3A0      #002=KVC$ADJWND File=KVC$CNC.:E05TSI                               WED 07/30/97 01:56 Page:235
   2046   0 000731  D847 0048                            LDR,R5   Y@DLT,AUTO
          0 000733  D947 004E                            CMR,R5   Y@NSS+1,AUTO
          0 000735  0801 0007                            BAL      s:2050,PREL

     1393     2047    4            Y@T2.S = Y@DLT;

   2047   0 000737  DF47 004E                            STR,R5   Y@NSS+1,AUTO

     1394     2048    4            Y@ORG = Y@T1.F;

   2048   0 000739  C847 004B                            LDR,R4   Y@AVL,AUTO
          0 00073B  CF47 0038                            STR,R4   Y@ORG,AUTO

     1395     2049    4         END;

     1396     2050    3         Y@TMP = Y@X;

   2050   0 00073D  E847 0039                            LDR,R6   Y@X,AUTO
          0 00073F  EF47 0046                            STR,R6   Y@TMP,AUTO

     1397     2051    3      END;

   2051   0 000741  C847 004D                            LDR,R4   Y@NSS,AUTO
          0 000743  4981 FFB3                            BNEZ,R4  s:2030,PREL

   2051   0                              DO_MODS         null
     1398     2052    2   DO_MODS:;
     1399     2053
     1400     2054        /* Do the modification(s) */
     1401     2055
     1402     2056    2      IF Y@WDTPLS1~=0 THEN VLP@WINDOW.WIDTH = -Y@RQS;

   2056   0 000745  E847 0044            DO_MODS         LDR,R6   Y@WDTPLS1,AUTO
          0 000747  6901 0008                            BEZ,R6   s:2057,PREL

   2056   0 000749  D847 0047                            LDR,R5   Y@RQS,AUTO
          0 00074B  8255                                 NEG      R5
PL6.E3A0      #002=KVC$ADJWND File=KVC$CNC.:E05TSI                               WED 07/30/97 01:56 Page:236
          0 00074C  DF47 0011                            STR,R5   VLP@WINDOW+3,AUTO
          0 00074E  0F81 0006                            B        s:2058,PREL

     1403     2057    2      ELSE VLP@WINDOW.LENGTH = -Y@RQS;

   2057   0 000750  D847 0047                            LDR,R5   Y@RQS,AUTO
          0 000752  8255                                 NEG      R5
          0 000753  DF47 0010                            STR,R5   VLP@WINDOW+2,AUTO

     1404     2058    3      IF Y@RQS~=0 THEN DO WHILE Y@X>0;

   2058   0 000755  C847 0047                            LDR,R4   Y@RQS,AUTO
          0 000757  4901 0025                            BEZ,R4   s:2063,PREL

   2058   0 000759  B847 0039                            LDR,R3   Y@X,AUTO
          0 00075B  3A81 0021                            BLEZ,R3  s:2063,PREL

     1405     2059    3         Y@X = Y@X-1;

   2059   0 00075D  88C7 0039                            DEC      Y@X,AUTO

     1406     2060    3         KV$PTR.SRD$ = Y@S$(Y@X);

   2060   0 00075F  B847 0039                            LDR,R3   Y@X,AUTO
          0 000761  3E0C                                 ADV,R3   12
          0 000762  ECB7                                 LDB,B6   ,AUTO,R3
          0 000763  DC80 0000 0000  xsym                 LDB,B5   KV$PTR$
          0 000766  EFC5 000A                            STB,B6   10,B5

     1407     2061    3         IF Y@ORG(Y@X) THEN CALL KVC$ADJWND(VLP@WINDOW);

   2061   0 000768  CBC7 0038                            LAB,B4   Y@ORG,AUTO
          0 00076A  A847 0039                            LDR,R2   Y@X,AUTO
          0 00076C  82A4                                 LB       ,B4,R2
          0 00076D  0581 000C                            BBF      s:2062,PREL

   2061   0 00076F  CBC7 000E                            LAB,B4   VLP@WINDOW,AUTO
PL6.E3A0      #002=KVC$ADJWND File=KVC$CNC.:E05TSI                               WED 07/30/97 01:56 Page:237
          0 000771  CFC7 0054                            STB,B4   Y@ENDLIN+2,AUTO
          0 000773  BBC7 0054                            LAB,B3   Y@ENDLIN+2,AUTO
          0 000775  CBF0 0100                            LAB,B4   256,IMO
          0 000777  E3C0 F888                            LNJ,B6   s:7,PREL
          0 000779       0001                            DC       s:2062,PREL

     1408     2062    3      END;

   2062   0 00077A  E847 0039                            LDR,R6   Y@X,AUTO
          0 00077C  6A61                                 BGZ,R6   s:2059,SPREL

     1409     2063    2      KV$PTR.SRD$ = Y@SRD$;

   2063   0 00077D  ECC7 0008                            LDB,B6   Y@SRD$,AUTO
          0 00077F  DC80 0000 0000  xsym                 LDB,B5   KV$PTR$
          0 000782  EFC5 000A                            STB,B6   10,B5

     1410     2064    2      RETURN;

   2064   0 000784  ECC7 0042                            LDB,B6   KV@USR_ERS+8,AUTO
          0 000786  C3C6 0001                            LNJ,B4   1,B6

     1411     2065    2   END Y$FNDSPCLNG;
     1412     2066        %EJECT;
PL6.E3A0      #002=KVC$ADJWND File=KVC$CNC.:E05TSI                               WED 07/30/97 01:56 Page:238
     1413     2067        /*F* NAME: KVC$RLSWND.
     1414     2068             PURPOSE: Releases the screen space occuppied by an SRD. */
     1415     2069
     1416     2070    1   KVC$RLSWND: ENTRY ALTRET;

   2070   0 000788  D380 0000 0000  xent KVC$RLSWND      LNJ,B5   X6A_AUTO_1
          0 00078B       0056 0001                       DC       86,1

     1417     2071
     1418     2072        /* Just make a VLP@WINDOW that shrinks this SRD to nothing. */
     1419     2073
     1420     2074    1      Y@SRD$ = KV$PTR.SRD$;

   2074   0 00078D  EC80 0000 0000  xsym                 LDB,B6   KV$PTR$
          0 000790  DCC6 000A                            LDB,B5   10,B6
          0 000792  DFC7 0008                            STB,B5   Y@SRD$,AUTO

     1421     2075    1      VLP@WINDOW.FWINDOW$ = KV$PTR.SRD$;

   2075   0 000794  DFC7 000E                            STB,B5   VLP@WINDOW,AUTO

     1422     2076    2      IF %KV_MRD.USRCNT=2 THEN DO;

   2076   0 000796  CCC6 0008                            LDB,B4   8,B6
          0 000798  E844 000A                            LDR,R6   10,B4
          0 00079A  E570 00FF                            AND,R6   255,IMO
          0 00079C  6D02                                 CMV,R6   2
          0 00079D  0981 009D                            BNE      s:2111,PREL

     1423     2077        /*
     1424     2078           If its the penultimate one, make sure the other one will recover all
     1425     2079           the space.
     1426     2080        */
     1427     2081    2         IF %KV_SRD.LNK$=ADDR(NIL) THEN Y@MVD$ = %KV_MRD.SRD$;

   2081   0 00079F  8DC5 0002                            CMN      2,B5
          0 0007A1  0981 0007                            BNE      s:2082,PREL
PL6.E3A0      #002=KVC$ADJWND File=KVC$CNC.:E05TSI                               WED 07/30/97 01:56 Page:239

   2081   0 0007A3  BCC4 0002                            LDB,B3   2,B4
          0 0007A5  BFC7 0006                            STB,B3   Y@MVD$,AUTO
          0 0007A7  0F81 0005                            B        s:2083,PREL

     1428     2082    2         ELSE Y@MVD$ = %KV_SRD.LNK$;

   2082   0 0007A9  BCC5 0002                            LDB,B3   2,B5
          0 0007AB  BFC7 0006                            STB,B3   Y@MVD$,AUTO

     1429     2083    2         IF Y@MVD$->Y@SRD.SRDEND.CLM-Y@MVD$->Y@SRD.ORG.CLM=%KV_MRD.WDT

   2083   0 0007AD  D843 001B                            LDR,R5   27,B3
          0 0007AF  D243 0008                            SUB,R5   8,B3
          0 0007B1  5801 002B                            BLZ,R5   s:2089,PREL
          0 0007B3  D944 000B                            CMR,R5   11,B4
          0 0007B5  0981 0027                            BNE      s:2089,PREL
          0 0007B7  D845 001B                            LDR,R5   27,B5
          0 0007B9  D245 0008                            SUB,R5   8,B5
          0 0007BB  5801 0021                            BLZ,R5   s:2089,PREL
          0 0007BD  D944 000B                            CMR,R5   11,B4
          0 0007BF  0981 001D                            BNE      s:2089,PREL
          0 0007C1  D843 001A                            LDR,R5   26,B3
          0 0007C3  D245 0007                            SUB,R5   7,B5
          0 0007C5  C2C4 000A                            LLH,R4   10,B4
          0 0007C7  C955                                 CMR,R4   R5
          0 0007C8  0A81 0008                            BALE     s:2083+36,PREL
          0 0007CA  D845 001A                            LDR,R5   26,B5
          0 0007CC  D243 0007                            SUB,R5   7,B3
          0 0007CE  C955                                 CMR,R4   R5
          0 0007CF  0A01 000D                            BAG      s:2089,PREL
          0 0007D1  D843 001A                            LDR,R5   26,B3
          0 0007D3  D945 0007                            CMR,R5   7,B5
          0 0007D5  0901 0065                            BE       s:2111,PREL
          0 0007D7  B843 0007                            LDR,R3   7,B3
          0 0007D9  B945 001A                            CMR,R3   26,B5
          0 0007DB  0901 005F                            BE       s:2111,PREL
PL6.E3A0      #002=KVC$ADJWND File=KVC$CNC.:E05TSI                               WED 07/30/97 01:56 Page:240

     1430     2084    2           AND %KV_SRD.SRDEND.CLM-%KV_SRD.ORG.CLM=%KV_MRD.WDT
     1431     2085    2           AND (Y@MVD$->Y@SRD.SRDEND.LIN-%KV_SRD.ORG.LIN>=%KV_MRD.DSPHEIGHT
     1432     2086    2           OR %KV_SRD.SRDEND.LIN-Y@MVD$->Y@SRD.ORG.LIN>=%KV_MRD.DSPHEIGHT)
     1433     2087    2           AND (Y@MVD$->Y@SRD.SRDEND.LIN=%KV_SRD.ORG.LIN
     1434     2088    2           OR Y@MVD$->Y@SRD.ORG.LIN=%KV_SRD.SRDEND.LIN) THEN EXIT;
     1435     2089    2         IF Y@MVD$->Y@SRD.SRDEND.LIN-Y@MVD$->Y@SRD.ORG.LIN>=%KV_MRD.DSPHEIGHT

   2089   0 0007DD  D843 001A                            LDR,R5   26,B3
          0 0007DF  D243 0007                            SUB,R5   7,B3
          0 0007E1  C2C4 000A                            LLH,R4   10,B4
          0 0007E3  C955                                 CMR,R4   R5
          0 0007E4  0A01 002D                            BAG      s:2099,PREL
          0 0007E6  D845 0007                            LDR,R5   7,B5
          0 0007E8  D943 0007                            CMR,R5   7,B3
          0 0007EA  0981 0027                            BNE      s:2099,PREL
          0 0007EC  B845 001A                            LDR,R3   26,B5
          0 0007EE  B943 001A                            CMR,R3   26,B3
          0 0007F0  0981 0021                            BNE      s:2099,PREL
          0 0007F2  A843 001B                            LDR,R2   27,B3
          0 0007F4  A245 0008                            SUB,R2   8,B5
          0 0007F6  2801 0005                            BLZ,R2   s:2089+31,PREL
          0 0007F8  A944 000B                            CMR,R2   11,B4
          0 0007FA  0901 000B                            BE       s:2089+41,PREL
          0 0007FC  A845 001B                            LDR,R2   27,B5
          0 0007FE  A243 0008                            SUB,R2   8,B3
          0 000800  2801 0011                            BLZ,R2   s:2099,PREL
          0 000802  A944 000B                            CMR,R2   11,B4
          0 000804  0201 000D                            BL       s:2099,PREL
          0 000806  A843 001B                            LDR,R2   27,B3
          0 000808  A945 0008                            CMR,R2   8,B5
          0 00080A  0901 0030                            BE       s:2111,PREL
          0 00080C  9843 0008                            LDR,R1   8,B3
          0 00080E  9945 001B                            CMR,R1   27,B5
          0 000810  0901 002A                            BE       s:2111,PREL

     1436     2090    2           AND %KV_SRD.ORG.LIN=Y@MVD$->Y@SRD.ORG.LIN
PL6.E3A0      #002=KVC$ADJWND File=KVC$CNC.:E05TSI                               WED 07/30/97 01:56 Page:241
     1437     2091    2           AND %KV_SRD.SRDEND.LIN=Y@MVD$->Y@SRD.SRDEND.LIN
     1438     2092    2           AND (Y@MVD$->Y@SRD.SRDEND.CLM-%KV_SRD.ORG.CLM=%KV_MRD.WDT
     1439     2093    2           OR %KV_SRD.SRDEND.CLM-Y@MVD$->Y@SRD.ORG.CLM>=%KV_MRD.WDT)
     1440     2094    2           AND (Y@MVD$->Y@SRD.SRDEND.CLM=%KV_SRD.ORG.CLM
     1441     2095    2           OR Y@MVD$->Y@SRD.ORG.CLM=%KV_SRD.SRDEND.CLM) THEN EXIT;
     1442     2096        /*
     1443     2097           It wont work.  Make it happen by putting the last one past the last column.
     1444     2098        */
     1445     2099    2         Y@MVD$->Y@SRD.LNG = %KV_MRD.DSPHEIGHT;

   2099   0 000812  C7C3 000E                            STH,R4   14,B3

     1446     2100    2         Y@MVD$->Y@SRD.SRDEND.LIN = %KV_MRD.LNG;

   2100   0 000814  CCC6 0008                            LDB,B4   8,B6
          0 000816  E2C4 0015                            LLH,R6   21,B4
          0 000818  EF43 001A                            STR,R6   26,B3

     1447     2101    2         Y@MVD$->Y@SRD.ORG.LIN = Y@MVD$->Y@SRD.SRDEND.LIN-Y@MVD$->Y@SRD.LNG;

   2101   0 00081A  D2C3 000E                            LLH,R5   14,B3
          0 00081C  D256                                 SUB,R5   R6
          0 00081D  8255                                 NEG      R5
          0 00081E  DF43 0007                            STR,R5   7,B3

     1448     2102    2         %KV_SRD.ORG.LIN = Y@MVD$->Y@SRD.ORG.LIN;

   2102   0 000820  DF45 0007                            STR,R5   7,B5

     1449     2103    2         Y@MVD$->Y@SRD.SRDEND.CLM = %KV_MRD.WDT;

   2103   0 000822  CCC6 0008                            LDB,B4   8,B6
          0 000824  E844 000B                            LDR,R6   11,B4
          0 000826  EF43 001B                            STR,R6   27,B3

     1450     2104    2         Y@MVD$->Y@SRD.ORG.CLM = Y@MVD$->Y@SRD.SRDEND.CLM;

PL6.E3A0      #002=KVC$ADJWND File=KVC$CNC.:E05TSI                               WED 07/30/97 01:56 Page:242
   2104   0 000828  EF43 0008                            STR,R6   8,B3

     1451     2105    2         %KV_SRD.ORG.CLM = 0;

   2105   0 00082A  8745 0008                            CL       8,B5

     1452     2106    2         Y@MVD$->Y@SRD.BTMRHT_PST = Y@MVD$->Y@SRD.SRDEND_PST;

   2106   0 00082C  8CC3 001A                            LDI      26,B3
          0 00082E  8D43 000B                            SDI      11,B3

     1453     2107    2         %KV_SRD.SRDEND_PST = Y@MVD$->Y@SRD.SRDEND_PST;

   2107   0 000830  8D45 001A                            SDI      26,B5

     1454     2108    2         Y@MVD$->Y@SRD.TOPLFT_PST = Y@MVD$->Y@SRD.ORG_PST+%BITBIN('10001'X);

   2108   0 000832  8CC3 0007                            LDI      7,B3
          0 000834  8470 0001 0001                       AID      65537,IMO
          0 000837  8D43 0009                            SDI      9,B3

     1455     2109    2         Y@MVD$->Y@SRD.WDT = 0;

   2109   0 000839  8743 000D                            CL       13,B3

     1456     2110    2      END;

     1457     2111    1      %KV_SRD.TOPLFT_PST = %KV_SRD.ORG_PST+%BITBIN('10001'X);

   2111   0 00083B  8CC5 0007                            LDI      7,B5
          0 00083D  8470 0001 0001                       AID      65537,IMO
          0 000840  8D45 0009                            SDI      9,B5

     1458     2112    1      %KV_SRD.BTMRHT = %KV_SRD.SRDEND;

   2112   0 000842  8CC5 001A                            LDI      26,B5
          0 000844  8D45 000B                            SDI      11,B5
PL6.E3A0      #002=KVC$ADJWND File=KVC$CNC.:E05TSI                               WED 07/30/97 01:56 Page:243

     1459     2113    1      %KV_SRD.WDT = %KV_SRD.SRDEND.CLM-%KV_SRD.ORG.CLM;

   2113   0 000846  D845 001B                            LDR,R5   27,B5
          0 000848  D245 0008                            SUB,R5   8,B5
          0 00084A  DF45 000D                            STR,R5   13,B5

     1460     2114    1      %KV_SRD.LNG = %KV_SRD.SRDEND.LIN-%KV_SRD.ORG.LIN;

   2114   0 00084C  C845 001A                            LDR,R4   26,B5
          0 00084E  C245 0007                            SUB,R4   7,B5
          0 000850  C7C5 000E                            STH,R4   14,B5

     1461     2115    1      VLP@WINDOW.LENGTH = -%KV_SRD.LNG;

   2115   0 000852  C2C5 000E                            LLH,R4   14,B5
          0 000854  8254                                 NEG      R4
          0 000855  CF47 0010                            STR,R4   VLP@WINDOW+2,AUTO

     1462     2116    1      VLP@WINDOW.WIDTH = -%KV_SRD.WDT;

   2116   0 000857  D845 000D                            LDR,R5   13,B5
          0 000859  8255                                 NEG      R5
          0 00085A  DF47 0011                            STR,R5   VLP@WINDOW+3,AUTO

     1463     2117    1      VLP@WINDOW.POSITION = 0;

   2117   0 00085C  87C7 0012                            CLH      VLP@WINDOW+4,AUTO

     1464     2118    1      %KV_SRD.OPT = '1'B;

   2118   0 00085E  8945 001C                            LBT,'8000'X       28,B5
   2118   0 000860       8000

     1465     2119    1      CALL KVC$ADJWND (VLP@WINDOW);

   2119   0 000861  CBC7 000E                            LAB,B4   VLP@WINDOW,AUTO
PL6.E3A0      #002=KVC$ADJWND File=KVC$CNC.:E05TSI                               WED 07/30/97 01:56 Page:244
          0 000863  CFC7 0054                            STB,B4   Y@ENDLIN+2,AUTO
          0 000865  BBC7 0054                            LAB,B3   Y@ENDLIN+2,AUTO
          0 000867  CBF0 0100                            LAB,B4   256,IMO
          0 000869  E3C0 F796                            LNJ,B6   s:7,PREL
          0 00086B       0001                            DC       s:2120,PREL

     1466     2120    2      IF %KV_SRD.LNG~=0 THEN DO;

   2120   0 00086C  ECC7 0008                            LDB,B6   Y@SRD$,AUTO
          0 00086E  E2C6 000E                            LLH,R6   14,B6
          0 000870  6901 000E                            BEZ,R6   s:2124,PREL

     1467     2121    2         VLP@WINDOW.LENGTH = 0;       /* That didn't work - try pushing sideways */

   2121   0 000872  8747 0010                            CL       VLP@WINDOW+2,AUTO

     1468     2122    2         CALL KVC$ADJWND (VLP@WINDOW);

   2122   0 000874  DBC7 000E                            LAB,B5   VLP@WINDOW,AUTO
          0 000876  DFC7 0054                            STB,B5   Y@ENDLIN+2,AUTO
          0 000878  BBC7 0054                            LAB,B3   Y@ENDLIN+2,AUTO
          0 00087A  CBF0 0100                            LAB,B4   256,IMO
          0 00087C  E3C0 F783                            LNJ,B6   s:7,PREL
          0 00087E       0001                            DC       s:2124,PREL

     1469     2123    2      END;

     1470     2124    1      RETURN;

   2124   0 00087F  C380 0000 0000  xent                 LNJ,B4   X6A_ARET
     1471     2125    1   END KVC$ADJWND;
     1472     2126        %EOD;

PL6.E3A0      #002=KVC$ADJWND File=KVC$CNC.:E05TSI                               WED 07/30/97 01:56 Page:245
--  Include file information  --

   LCP_6.:E05TOU  cannot be made into a system file and is referenced.
   KV_PRMID_E.:E05TOU  was found in the system file and is never referenced.
   KV_GLBCNS_E.:E05TOU  was found in the system file and is referenced.
   KV$VDO.:E05TOU  was found in the system file and is never referenced.
   KV$VDH.:E05TOU  was found in the system file and is never referenced.
   KV$USR.:E05TOU  was found in the system file and is referenced.
   KV$SND.:E05TOU  was found in the system file and is never referenced.
   KV$INT.:E05TOU  was found in the system file and is referenced.
   KV$GLBCTX.:E05TOU  was found in the system file and is referenced.
   KV$GLB.:E05TOU  was found in the system file and is referenced.
   G_LCP6_E.:E05TOU  was found in the system file and is referenced.
   GT_LCP6_M.:E05TOU  was found in the system file and is referenced.
   KI_CP6.:E05TOU  was found in the system file and is referenced.
   GF_LCP6_M.:E05TOU  was found in the system file and is referenced.
   GM_LCP6_M.:E05TOU  was found in the system file and is referenced.
   GU_LCP6_M.:E05TOU  was found in the system file and is referenced.
   GJ_LCP6_M.:E05TOU  was found in the system file and is referenced.
   GH_LCP6_M.:E05TOU  was found in the system file and is referenced.
      No diagnostics issued in procedure KVC$ADJWND.
PL6.E3A0      #002=KVC$ADJWND File=KVC$CNC.:E05TSI                               WED 07/30/97 01:56 Page:246

 **** Variables and constants ****

  ****  Auto variables  ****

  ****  Scalars and arrays  ****
HexLoc.c.b A Datatyp(siz) R M Lvl/name                 HexLoc.c.b A Datatyp(siz) R M Lvl/name

     4-0-0/w PTR         r     1 @PRM_WINDOW               3A-0-0/w STRC(112)   r     1 KV@USR_ERS
    *0-0-0/w STRC(256)   r     1 PRM_WINDOW                 C-0-0/w PTR         r     1 T$
     A-0-0/w PTR         r     1 U$                         E-0-0/w STRC(152)   r     1 VLP@WINDOW
    4B-0-0/w SBIN(16)    r     1 Y@AVL(0:1)                49-0-0/w SBIN(16)    r     1 Y@CRT(0:1)
    49-0-0/w UBIN(32)    r     1 Y@CRTU                    48-0-0/w SBIN(16)    r     1 Y@DLT
    48-0-0/w UBIN(16)    r     1 Y@DLTU                    50-0-0/w SBIN(16)    r     1 Y@ENDCLM
    52-0-0/w SBIN(16)    r     1 Y@ENDLIN                   6-0-0/w PTR         r     1 Y@MVD$
    4D-0-0/w SBIN(16)    r     1 Y@NSS(0:1)                38-0-0/b BIT         r     1 Y@ORG(0:15)
    4F-0-0/w SBIN(16)    r     1 Y@ORGCLM                  51-0-0/w SBIN(16)    r     1 Y@ORGLIN
    47-0-0/w SBIN(16)    r     1 Y@RQS                     18-0-0/w PTR         r     1 Y@S$(0:15)
     8-0-0/w PTR         r     1 Y@SRD$                    4B-0-0/w STRC(32)    r     1 Y@T1
    4D-0-0/w STRC(32)    r     1 Y@T2                      46-0-0/w SBIN(16)    r     1 Y@TMP
    45-0-0/w SBIN(16)    r     1 Y@WDTMNS1                 44-0-0/w SBIN(16)    r     1 Y@WDTPLS1
    39-0-0/w SBIN(16)    r     1 Y@X

  ****  SYMREF variables  ****

  ****  Scalars and arrays  ****
HexLoc.c.b A Datatyp(siz) R M Lvl/name                 HexLoc.c.b A Datatyp(siz) R M Lvl/name

     0-0-0/w PTR         r     1 KV$PTR$                    0-0-0/w STRC(112)   r     1 KV_USR_ERS

  ****  BASED and DCB variables  ****

  ****  Scalars and arrays  ****
HexLoc.c.b A Datatyp(siz) R M Lvl/name                 HexLoc.c.b A Datatyp(siz) R M Lvl/name

     0-0-0/w STRC(512)   r     1 KV$MRD                     0-0-0/w STRC(480)   r     1 KV$PTR
     0-0-0/w STRC(496)   r     1 KV$SRD                     0-0-0/w STRC(1024)  r     1 KV$SSN
     0-0-0/w STRC(512)   r     1 KV$STR                     0-0-0/w STRC(512)   r     1 Y@MVD
PL6.E3A0      #002=KVC$ADJWND File=KVC$CNC.:E05TSI                               WED 07/30/97 01:56 Page:247
     0-0-0/w STRC(288)   r     1 Y@RCRLST                   0-0-0/w STRC(496)   r     1 Y@SRD


   Procedure KVC$ADJWND requires 2178 words for executable code.
   Procedure KVC$ADJWND requires 86 words of local(AUTO) storage.
PL6.E3A0      #002=KVC$ADJWND File=KVC$CNC.:E05TSI                               WED 07/30/97 01:56 Page:248
          *** CROSS REFERENCE LISTING ***
**     DENOTES     IDENTIFIER DEFINITION
<<                 IDENTIFIER'S VALUE SET
>>                 IDENTIFIER'S VALUE USED
<>                 IDENTIFIER SET AND/OR USED
--                 IDENTIFIER REFERENCED
PL6.E3A0      #002=KVC$ADJWND File=KVC$CNC.:E05TSI                               WED 07/30/97 01:56 Page:249
          MINI XREF LISTING

COMMON IN PROCEDURE Y$FNDSPCLNG
      1843**LABEL    1833--GOTO
DO_MODS IN PROCEDURE Y$FNDSPCLNG
      2051**LABEL    1991--GOTO     2024--GOTO
KV$MRD.DSPHEIGHT
       233**DCL      1758>>IF       1860>>ASSIGN   2083>>IF       2083>>IF       2089>>IF       2099>>ASSIGN
KV$MRD.FSTERS
       243**DCL      1742>>ASSIGN
KV$MRD.LNG
       236**DCL      1831>>ASSIGN   2100>>ASSIGN
KV$MRD.MVD$
       235**DCL      1576>>ASSIGN   1870>>ASSIGN
KV$MRD.SRD$
       231**DCL      2081>>ASSIGN
KV$MRD.USRCNT
       233**DCL      1749>>IF       2076>>IF
KV$MRD.VRTSCR
       246**DCL      1749>>IF       1757>>ASSIGN   1761>>ASSIGN
KV$MRD.WDT
       233**DCL      1741>>IF       1842>>ASSIGN   2083>>IF       2083>>IF       2089>>IF       2089>>IF
      2103>>ASSIGN
KV$PTR.INPCNDPND
       417**DCL       426--REDEF     430--REDEF
KV$PTR.LINLST$
       413**DCL       414--REDEF
KV$PTR.MRD$
       412**DCL      1576>>ASSIGN   2076>>IF       2081>>ASSIGN   2083>>IF       2083>>IF       2083>>IF
      2083>>IF       2089>>IF       2089>>IF       2089>>IF       2099>>ASSIGN   2100>>ASSIGN   2103>>ASSIGN
KV$PTR.MVD$
       412**DCL      1529>>ASSIGN   1599>>IF       1661>>IF       1723>>IF       1724>>ASSIGN   1725<<ASSIGN
      1727<<ASSIGN   1784>>IF
KV$PTR.SRD$
PL6.E3A0      #002=KVC$ADJWND File=KVC$CNC.:E05TSI                               WED 07/30/97 01:56 Page:250
       413**DCL      1530>>ASSIGN   2060<<ASSIGN   2063<<ASSIGN   2074>>ASSIGN   2075>>ASSIGN
KV$PTR.SSN$
       411**DCL      1925>>ASSIGN
KV$PTR$
       405**DCL       411--IMP-PTR  1529>>ASSIGN   1530>>ASSIGN   1576>>ASSIGN   1599>>IF       1661>>IF
      1723>>IF       1724>>ASSIGN   1725>>ASSIGN   1727>>ASSIGN   1784>>IF       1925>>ASSIGN   2060>>ASSIGN
      2063>>ASSIGN   2074>>ASSIGN   2075>>ASSIGN   2076>>IF       2081>>ASSIGN   2083>>IF       2083>>IF
      2083>>IF       2083>>IF       2089>>IF       2089>>IF       2089>>IF       2099>>ASSIGN   2100>>ASSIGN
      2103>>ASSIGN
KV$SRD.ADJTOPLFT
       633**DCL      1958>>IF
KV$SRD.BRDEXS
       632**DCL      1708>>IF       1723>>IF       1729>>IF       1749>>IF       1758>>IF
KV$SRD.BRDUPD
       633**DCL      1729<<ASSIGN
KV$SRD.BTMRHT
       621**DCL       626--REDEF    1710<<ASSIGN   2112<<ASSIGN
KV$SRD.BTMRHT.CLM
       623**DCL      1680>>ASSIGN   1682<<ASSIGN   1682>>ASSIGN   1684>>IF       1684>>IF       1688>>IF
      1689>>ASSIGN   1741>>IF       1743>>IF
KV$SRD.BTMRHT.LIN
       623**DCL      1634>>ASSIGN   1636<<ASSIGN   1636>>ASSIGN   1638>>ASSIGN   1647>>IF       1648>>ASSIGN
      1758>>IF       1773>>ASSIGN   1774>>ASSIGN
KV$SRD.CRT
       697**DCL       702--REDEF    1781>>ASSIGN
KV$SRD.CRT.CLM
       699**DCL      1673>>IF       1684>>IF       1700<<ASSIGN
KV$SRD.CRT.LIN
       699**DCL      1615>>IF       1619>>IF       1623>>ASSIGN   1625<<ASSIGN   1625>>ASSIGN   1639>>IF
      1754<<ASSIGN   1774<<ASSIGN   1776>>ASSIGN   1778>>ASSIGN
KV$SRD.CRTVRTLINPHSLIN
       669**DCL      1615>>IF       1619>>IF       1623>>ASSIGN   1626<<ASSIGN   1626>>ASSIGN   1639>>IF
      1776<<ASSIGN   1778<<ASSIGN
KV$SRD.DVCLINBIS
       739**DCL      1614>>ASSIGN   1619>>IF       1628<<ASSIGN   1628>>ASSIGN   1638>>ASSIGN   1772<<ASSIGN
      1773<<ASSIGN   1774>>ASSIGN
PL6.E3A0      #002=KVC$ADJWND File=KVC$CNC.:E05TSI                               WED 07/30/97 01:56 Page:251
KV$SRD.FLDEND
       661**DCL       666--REDEF
KV$SRD.FSTERS
       632**DCL      1742<<ASSIGN   1746<<ASSIGN
KV$SRD.HBRDSIZ
       775**DCL      1613>>ASSIGN
KV$SRD.HI_NONBLN
       731**DCL       736--REDEF    1781<<ASSIGN
KV$SRD.HI_NONBLN.CLM
       733**DCL      1673>>IF       1684>>IF
KV$SRD.HI_NONBLN.LIN
       733**DCL      1615>>IF       1627<<ASSIGN   1627>>ASSIGN   1639>>IF       1707<<ASSIGN   1707>>ASSIGN
      1715<<ASSIGN   1715>>ASSIGN
KV$SRD.LNG
       629**DCL      1534>>IF       1547>>IF       1549>>ASSIGN   1594>>IF       1597>>ASSIGN   1647<<ASSIGN
      1648<<ASSIGN   1649>>IF       1779>>ASSIGN   2114<<ASSIGN   2115>>ASSIGN   2120>>IF
KV$SRD.LNK$
       525**DCL      2081>>IF       2082>>ASSIGN
KV$SRD.MINLNG
       777**DCL      1594>>IF       1597>>ASSIGN
KV$SRD.MINWDT
       777**DCL      1656>>IF       1657>>IF       1659>>ASSIGN
KV$SRD.MRD$
       525**DCL      1741>>IF       1742>>ASSIGN   1749>>IF       1749>>IF       1757>>ASSIGN   1758>>IF
      1761>>ASSIGN   1831>>ASSIGN   1842>>ASSIGN   1860>>ASSIGN   1870>>ASSIGN
KV$SRD.NXTNONBLNLIN
       669**DCL      1783<<ASSIGN
KV$SRD.OPT
       774**DCL      1595>>IF       1657>>IF       2118<<ASSIGN
KV$SRD.ORG
       553**DCL       558--REDEF
KV$SRD.ORG.CLM
       555**DCL      1553>>ASSIGN   1565>>IF       1658>>ASSIGN   1671<<ASSIGN   2083>>IF       2089>>IF
      2089>>IF       2105<<ASSIGN   2113>>ASSIGN
KV$SRD.ORG.LIN
       555**DCL      1570>>IF       1596>>ASSIGN   1610<<ASSIGN   1758>>IF       2083>>IF       2083>>IF
PL6.E3A0      #002=KVC$ADJWND File=KVC$CNC.:E05TSI                               WED 07/30/97 01:56 Page:252
      2089>>IF       2102<<ASSIGN   2114>>ASSIGN
KV$SRD.ORG_PST
       558**DCL      1585>>ASSIGN   1711>>ASSIGN   2111>>ASSIGN
KV$SRD.SAVSCROLL
       634**DCL      1755>>IF
KV$SRD.SCROLL
       630**DCL      1749>>IF       1752<<ASSIGN   1760<<ASSIGN   1772>>IF
KV$SRD.SRDEND
       766**DCL       771--REDEF    1586>>ASSIGN   1710>>ASSIGN   2112>>ASSIGN
KV$SRD.SRDEND.CLM
       768**DCL      1553>>ASSIGN   1565>>IF       1658>>ASSIGN   1683<<ASSIGN   2083>>IF       2089>>IF
      2089>>IF       2113>>ASSIGN
KV$SRD.SRDEND.LIN
       768**DCL      1570>>IF       1596>>ASSIGN   1637<<ASSIGN   2083>>IF       2083>>IF       2089>>IF
      2114>>ASSIGN
KV$SRD.SRDEND_PST
       771**DCL      2107<<ASSIGN
KV$SRD.TOPBRD
       774**DCL      1612>>IF
KV$SRD.TOPLFT
       587**DCL       592--REDEF
KV$SRD.TOPLFT.CLM
       589**DCL      1672<<ASSIGN   1672>>ASSIGN   1688>>IF       1689>>ASSIGN   1700>>ASSIGN
KV$SRD.TOPLFT.LIN
       589**DCL      1608>>ASSIGN   1611<<ASSIGN   1613<<ASSIGN   1613>>ASSIGN   1614>>ASSIGN   1619>>IF
      1619>>IF       1623>>ASSIGN   1647>>IF       1648>>ASSIGN   1773>>ASSIGN
KV$SRD.TOPLFT_PST
       592**DCL      1711<<ASSIGN   2111<<ASSIGN
KV$SRD.UNKPST
       774**DCL      1534<<ASSIGN   1555<<ASSIGN   1618<<ASSIGN   1642<<ASSIGN   1675<<ASSIGN   1686<<ASSIGN
      1696>>IF       1717>>IF       1753<<ASSIGN   1769<<ASSIGN   1785<<ASSIGN
KV$SRD.UNKRGN
       633**DCL      1739<<ASSIGN
KV$SRD.VRTPSTOK
       630**DCL      1782<<ASSIGN
KV$SRD.VRTSCR
PL6.E3A0      #002=KVC$ADJWND File=KVC$CNC.:E05TSI                               WED 07/30/97 01:56 Page:253
       775**DCL      1743<<ASSIGN   1744<<ASSIGN   1747<<ASSIGN   1749>>IF       1751<<ASSIGN   1755>>IF
      1757<<ASSIGN   1758>>IF       1761>>IF       1761<<ASSIGN
KV$SRD.WDT
       629**DCL      1534>>IF       1551>>IF       1656>>IF       1659>>ASSIGN   1689<<ASSIGN   1690<<ASSIGN
      1695>>IF       1740>>ASSIGN   1743>>IF       2113<<ASSIGN   2116>>ASSIGN
KV$SSN.REDRSPCNT
      1084**DCL      1085--REDEF
KV$SSN.STR$
      1078**DCL      1925>>ASSIGN
KV$STR.LNK$
      1155**DCL      1928>>ASSIGN
KV$STR.MVD$
      1155**DCL      1927>>IF
KV@USR_ERS
      1451**DCL      1584<<ASSIGN   1714<>CALL
KV@USR_ERS.BGNPHSCLM
      1526**DCL      1705<<ASSIGN
KV@USR_ERS.BTMRHT
      1518**DCL      1523--REDEF    1586<<ASSIGN
KV@USR_ERS.BTMRHT.CLM
      1520**DCL      1669<<ASSIGN   1681<<ASSIGN   1681>>ASSIGN   1683>>ASSIGN   1706>>ASSIGN
KV@USR_ERS.BTMRHT.LIN
      1520**DCL      1608<<ASSIGN   1635<<ASSIGN   1635>>ASSIGN   1637>>ASSIGN
KV@USR_ERS.ENDPHSCLM
      1526**DCL      1706<<ASSIGN
KV@USR_ERS.TOPLFT
      1484**DCL      1489--REDEF
KV@USR_ERS.TOPLFT.CLM
      1486**DCL      1669>>ASSIGN   1670<<ASSIGN   1670>>ASSIGN   1671>>ASSIGN   1673>>IF       1673>>IF
      1680<<ASSIGN   1705>>ASSIGN
KV@USR_ERS.TOPLFT.LIN
      1486**DCL      1609<<ASSIGN   1609>>ASSIGN   1610>>ASSIGN   1611>>ASSIGN   1634<<ASSIGN
KV@USR_ERS.TOPLFT_PST
      1489**DCL      1585<<ASSIGN
KVC$ADJWND
         7**PROC     2061--CALL     2119--CALL     2122--CALL
PL6.E3A0      #002=KVC$ADJWND File=KVC$CNC.:E05TSI                               WED 07/30/97 01:56 Page:254
KVC$DRWBRD
      1325**DCL-ENT  1726--CALL
KVV$CALUSR
      1326**DCL-ENT  1714--CALL
KV_USR_ERS
      1248**DCL      1584>>ASSIGN
KV_USR_ERS.BTMRHT
      1315**DCL      1320--REDEF
KV_USR_ERS.TOPLFT
      1281**DCL      1286--REDEF
NO_ERASE
      1715**LABEL    1649--GOTO     1695--GOTO
PRM_WINDOW
      1346**DCL         7--PROC     1791--ENTRY    1792--ASSIGN   1797--ENTRY    1798--ASSIGN
PRM_WINDOW.FWINDOW
      1346**DCL      1346--REDEF    1347--REDEF
PRM_WINDOW.FWINDOW$
      1347**DCL      1543>>ASSIGN   1562>>ASSIGN
PRM_WINDOW.LENGTH
      1360**DCL      1547>>IF       1547>>IF       1549<<ASSIGN   1564>>IF       1588>>IF       1592>>ASSIGN
      1645<<ASSIGN   1649>>IF       1722>>IF
PRM_WINDOW.POSITION
      1360**DCL      1539>>IF       1544>>ASSIGN   1580>>ASSIGN
PRM_WINDOW.WIDTH
      1360**DCL      1551>>IF       1551>>IF       1553<<ASSIGN   1650>>IF       1654>>ASSIGN   1693<<ASSIGN
      1695>>IF       1722>>IF
SKIP_IT IN PROCEDURE Y$FNDSPCLNG
      1949**LABEL    1907--GOTO
T$
      1375**DCL      1848<<ASSIGN   1849>>ASSIGN   1850>>ASSIGN   1852<<ASSIGN   1853>>ASSIGN   1854>>ASSIGN
      1870<<ASSIGN   1871>>DOUNTIL  1872>>ASSIGN   1873>>IF       1885>>ASSIGN   1896>>IF       1913>>IF
      1914>>ASSIGN   1914>>ASSIGN   1915>>ASSIGN   1915>>ASSIGN   1919>>IF       1927>>IF       1931>>IF
      1932>>ASSIGN   1937>>IF       1942>>IF       1952<<ASSIGN   1952>>ASSIGN   2003<<ASSIGN   2005>>ASSIGN
      2009<<ASSIGN   2010>>IF       2010>>IF       2036<<ASSIGN   2037>>IF       2040>>ASSIGN   2041>>ASSIGN
      2041>>ASSIGN
U$
PL6.E3A0      #002=KVC$ADJWND File=KVC$CNC.:E05TSI                               WED 07/30/97 01:56 Page:255
      1374**DCL      1998<<ASSIGN   2001>>IF       2003>>ASSIGN   2004<<ASSIGN   2008>>ASSIGN   2012>>IF
      2015>>IF       2015>>IF       2018>>IF       2020>>IF       2020>>ASSIGN
VLP@WINDOW
      1395**DCL      2061<>CALL     2119<>CALL     2122<>CALL
VLP@WINDOW.FWINDOW
      1395**DCL      1395--REDEF    1396--REDEF
VLP@WINDOW.FWINDOW$
      1396**DCL       801--IMP-PTR  1543<<ASSIGN   1547>>IF       1549>>ASSIGN   1551>>IF       1553>>ASSIGN
      1553>>ASSIGN   1562<<ASSIGN   1563>>IF       1563>>IF       1565>>IF       1565>>IF       1570>>IF
      1570>>IF       1581<<ASSIGN   1865>>ASSIGN   1872<<ASSIGN   1873>>IF       1873>>IF       1880>>IF
      1880>>IF       1885<<ASSIGN   1886>>ASSIGN   1887>>ASSIGN   1900>>IF       1900>>IF       1903>>ASSIGN
      1903>>ASSIGN   1925<<ASSIGN   1926>>DOWHILE  1927>>IF       1928<<ASSIGN   1928>>ASSIGN   1930>>IF
      2075<<ASSIGN
VLP@WINDOW.LENGTH
      1409**DCL      1592<<ASSIGN   1594>>IF       1596<<ASSIGN   1597<<ASSIGN   1607<<ASSIGN   1609>>ASSIGN
      1635>>ASSIGN   1636>>ASSIGN   1645>>ASSIGN   1646>>IF       1655<<ASSIGN   1832>>ASSIGN   2057<<ASSIGN
      2115<<ASSIGN   2121<<ASSIGN
VLP@WINDOW.POSITION
      1409**DCL      1544<<ASSIGN   1545>>IF       1545>>IF       1561<<ASSIGN   1568<<ASSIGN   1573<<ASSIGN
      1580<<ASSIGN   1603>>IF       1665>>IF       1863>>IF       1974>>IF       1974>>IF       1981<<ASSIGN
      1984<<ASSIGN   2117<<ASSIGN
VLP@WINDOW.WIDTH
      1409**DCL      1593<<ASSIGN   1654<<ASSIGN   1656>>IF       1658<<ASSIGN   1659<<ASSIGN   1670>>ASSIGN
      1672>>ASSIGN   1681>>ASSIGN   1682>>ASSIGN   1693>>ASSIGN   1694>>IF       1843>>ASSIGN   2056<<ASSIGN
      2116<<ASSIGN
Y$FIXPST IN PROCEDURE Y$FIXWDT
      1764**ENTRY    1720--CALL     1800--CALL
Y$FIXWDT
      1732**PROC     1644--CALL     1692--CALL     1794--CALL
Y$FNDSPCLNG
      1804**PROC     1599--CALL
Y$FNDSPCWDT IN PROCEDURE Y$FNDSPCLNG
      1834**ENTRY    1661--CALL
Y@AVL IN PROCEDURE Y$FNDSPCLNG
      1816**DCL      1817--REDEF    1858<<ASSIGN   1860<<ASSIGN   1860>>ASSIGN   1861<<ASSIGN   1948>>IF
      1948<<ASSIGN   1949>>IF       1949<<ASSIGN   1962>>IF       1962>>IF       1963>>IF       1964>>IF
PL6.E3A0      #002=KVC$ADJWND File=KVC$CNC.:E05TSI                               WED 07/30/97 01:56 Page:256
      1965>>IF       1965>>IF       1966>>IF       1966>>IF       1976>>IF       1976>>ASSIGN   1983>>IF
      1983>>ASSIGN
Y@CRT IN PROCEDURE Y$FNDSPCLNG
      1814**DCL      1815--REDEF    1908<<ASSIGN   1908>>ASSIGN   1909<<ASSIGN   1909>>ASSIGN   1969>>IF
      1970>>IF       1970>>IF       1972>>IF       1985<<ASSIGN   1985>>ASSIGN   1991>>IF
Y@CRTU IN PROCEDURE Y$FNDSPCLNG
      1815**DCL      1862<<ASSIGN
Y@DLT IN PROCEDURE Y$FNDSPCLNG
      1812**DCL      1813--REDEF    1886<<ASSIGN   1887>>IF       1887<<ASSIGN   1896>>IF       1908>>IF
      1930>>ASSIGN   1930>>ASSIGN   1935>>IF       1936<<ASSIGN   1936>>ASSIGN   1940<<ASSIGN   1945<<ASSIGN
      1945>>ASSIGN   1946>>IF       1947<<ASSIGN   1947>>ASSIGN   1948>>IF       1948>>ASSIGN   1949>>IF
      1949>>ASSIGN   1957<<ASSIGN   1958<<ASSIGN   1958>>ASSIGN   1960<<ASSIGN   1961<<ASSIGN   1961>>ASSIGN
      1963<<ASSIGN   1964<<ASSIGN   1964>>ASSIGN   1966<<ASSIGN   1967<<ASSIGN   1967>>ASSIGN   1971<<ASSIGN
      1971>>ASSIGN   1972<<ASSIGN   1974>>IF       1999<<DOINDEX  2000>>IF       2001>>IF       2004>>ASSIGN
      2005>>ASSIGN   2031<<ASSIGN   2041<<ASSIGN   2041>>ASSIGN   2046>>IF       2047>>ASSIGN
Y@DLTU IN PROCEDURE Y$FNDSPCLNG
      1813**DCL      1892>>IF
Y@ENDCLM IN PROCEDURE Y$FNDSPCLNG
      1826**DCL      1854<<ASSIGN   1873>>IF       1880>>IF       2015>>IF
Y@ENDLIN IN PROCEDURE Y$FNDSPCLNG
      1828**DCL      1850<<ASSIGN   1861>>ASSIGN   1886>>ASSIGN   1907>>IF
Y@MVD.LINLST$
       326**DCL      1601>>IF       1602>>ASSIGN   1602>>ASSIGN   1663>>IF       1664>>ASSIGN   1664>>ASSIGN
Y@MVD.LNK$
       323**DCL      1578>>ASSIGN   1952>>ASSIGN
Y@MVD.ORG
       328**DCL      1601>>IF       1607>>IF       1663>>IF       1768>>IF       1775>>IF       1896>>IF
Y@MVD.SRD$
       323**DCL      1535>>IF       1577>>DOWHILE  1793>>ASSIGN   1799>>ASSIGN   1872>>ASSIGN   1885>>ASSIGN
      1913>>IF       1914>>ASSIGN   1914>>ASSIGN   1915>>ASSIGN   1915>>ASSIGN   1919>>IF       1931>>IF
      1932>>ASSIGN   1937>>IF       1942>>IF
Y@MVD.VRTCLM
       340**DCL      1786<<ASSIGN
Y@MVD.VRTLIN
       340**DCL      1779<<ASSIGN
Y@MVD.WDT
PL6.E3A0      #002=KVC$ADJWND File=KVC$CNC.:E05TSI                               WED 07/30/97 01:56 Page:257
       327**DCL      1740<<ASSIGN
Y@MVD$
      1372**DCL       323--IMP-PTR  1529<<ASSIGN   1535>>IF       1576<<ASSIGN   1577>>DOWHILE  1578<<ASSIGN
      1578>>ASSIGN   1599>>IF       1601>>IF       1601>>IF       1602>>ASSIGN   1602>>ASSIGN   1607>>IF
      1661>>IF       1663>>IF       1663>>IF       1664>>ASSIGN   1664>>ASSIGN   1723>>IF       1725>>ASSIGN
      1740>>ASSIGN   1768>>IF       1775>>IF       1779>>ASSIGN   1784>>IF       1786>>ASSIGN   1792<<ASSIGN
      1793>>ASSIGN   1798<<ASSIGN   1799>>ASSIGN   1873>>IF       2081<<ASSIGN   2082<<ASSIGN   2083>>IF
      2083>>IF       2083>>IF       2083>>IF       2083>>IF       2083>>IF       2089>>IF       2089>>IF
      2089>>IF       2089>>IF       2089>>IF       2089>>IF       2089>>IF       2089>>IF       2099>>ASSIGN
      2100>>ASSIGN   2101>>ASSIGN   2101>>ASSIGN   2101>>ASSIGN   2102>>ASSIGN   2103>>ASSIGN   2104>>ASSIGN
      2104>>ASSIGN   2106>>ASSIGN   2106>>ASSIGN   2107>>ASSIGN   2108>>ASSIGN   2108>>ASSIGN   2109>>ASSIGN
Y@NSS IN PROCEDURE Y$FNDSPCLNG
      1820**DCL      1821--REDEF    1856<<ASSIGN   1930<<ASSIGN   1930>>ASSIGN   1959>>IF       1959>>IF
      1960>>IF       1961>>IF
Y@ORG
      1422**DCL      1855<<ASSIGN   1938<<ASSIGN   1939<<ASSIGN   1974>>IF       1980<<ASSIGN   1980>>ASSIGN
      1997>>IF       2000>>IF       2014<<ASSIGN   2016<<ASSIGN   2019<<ASSIGN   2023>>IF       2024>>IF
      2026>>ASSIGN   2028<<ASSIGN   2048<<ASSIGN   2061>>IF
Y@ORGCLM IN PROCEDURE Y$FNDSPCLNG
      1825**DCL      1853<<ASSIGN   1873>>IF       1880>>IF       2015>>IF
Y@ORGLIN IN PROCEDURE Y$FNDSPCLNG
      1827**DCL      1849<<ASSIGN   1858>>ASSIGN   1887>>ASSIGN   1907>>IF
Y@RCRLST.FRSRCR
       376**DCL      1602>>ASSIGN   1664>>ASSIGN
Y@RCRLST.LSTRCR
       377**DCL      1601>>IF       1602<<ASSIGN   1663>>IF       1664<<ASSIGN
Y@RQS IN PROCEDURE Y$FNDSPCLNG
      1811**DCL      1832<<ASSIGN   1843<<ASSIGN   1919>>IF       1944<<ASSIGN   1962>>IF       1965>>IF
      1970<<ASSIGN   1976>>IF       1976<<ASSIGN   1983>>IF       1983<<ASSIGN   2023<<ASSIGN   2056>>ASSIGN
      2057>>ASSIGN   2058>>IF
Y@S$
      1421**DCL      1865<<ASSIGN   1919--IF       1919>>IF       1931>>IF       1932<<ASSIGN   1937>>IF
      1942>>IF       1998>>ASSIGN   2001>>IF       2004>>ASSIGN   2005<<ASSIGN   2008<<ASSIGN   2009>>ASSIGN
      2036>>ASSIGN   2060>>ASSIGN
Y@SRD.BTMRHT
       897**DCL       902--REDEF
PL6.E3A0      #002=KVC$ADJWND File=KVC$CNC.:E05TSI                               WED 07/30/97 01:56 Page:258
Y@SRD.BTMRHT_PST
       902**DCL      2106<<ASSIGN
Y@SRD.CRT
       973**DCL       978--REDEF
Y@SRD.FLDEND
       937**DCL       942--REDEF
Y@SRD.HI_NONBLN
      1007**DCL      1012--REDEF
Y@SRD.LNG
       905**DCL      1915>>ASSIGN   2099<<ASSIGN   2101>>ASSIGN
Y@SRD.MINLNG
      1053**DCL      1915>>ASSIGN
Y@SRD.MINWDT
      1053**DCL      1914>>ASSIGN
Y@SRD.OPT
      1050**DCL      1913>>IF
Y@SRD.ORG
       829**DCL       834--REDEF
Y@SRD.ORG.CLM
       831**DCL      1565>>IF       1853>>ASSIGN   1873>>IF       1880>>IF       2001>>IF       2001>>IF
      2012>>IF       2015>>IF       2018>>IF       2040>>ASSIGN   2041>>ASSIGN   2083>>IF       2089>>IF
      2089>>IF       2104<<ASSIGN
Y@SRD.ORG.LIN
       831**DCL      1570>>IF       1849>>ASSIGN   1886>>ASSIGN   1900>>IF       1903>>ASSIGN   2010>>IF
      2083>>IF       2083>>IF       2089>>IF       2089>>IF       2101<<ASSIGN   2102>>ASSIGN
Y@SRD.ORG_PST
       834**DCL      2108>>ASSIGN
Y@SRD.SRDEND
      1042**DCL      1047--REDEF
Y@SRD.SRDEND.CLM
      1044**DCL      1565>>IF       1854>>ASSIGN   1873>>IF       1880>>IF       2015>>IF       2020>>IF
      2020>>ASSIGN   2037>>IF       2041>>ASSIGN   2083>>IF       2089>>IF       2089>>IF       2103<<ASSIGN
      2104>>ASSIGN
Y@SRD.SRDEND.LIN
      1044**DCL      1570>>IF       1850>>ASSIGN   1887>>ASSIGN   1900>>IF       1903>>ASSIGN   2010>>IF
      2083>>IF       2083>>IF       2089>>IF       2089>>IF       2100<<ASSIGN   2101>>ASSIGN
PL6.E3A0      #002=KVC$ADJWND File=KVC$CNC.:E05TSI                               WED 07/30/97 01:56 Page:259
Y@SRD.SRDEND_PST
      1047**DCL      2106>>ASSIGN   2107>>ASSIGN
Y@SRD.TOPLFT
       863**DCL       868--REDEF
Y@SRD.TOPLFT_PST
       868**DCL      2108<<ASSIGN
Y@SRD.WDT
       905**DCL      1914>>ASSIGN   2109<<ASSIGN
Y@SRD$
      1373**DCL       525--IMP-PTR  1530<<ASSIGN   1534>>IF       1534>>IF       1534>>ASSIGN   1535>>IF
      1555>>ASSIGN   1563>>IF       1565>>IF       1565>>IF       1570>>IF       1570>>IF       1577>>DOWHILE
      1585>>ASSIGN   1586>>ASSIGN   1594>>IF       1594>>IF       1595>>IF       1596>>ASSIGN   1596>>ASSIGN
      1597>>ASSIGN   1597>>ASSIGN   1608>>ASSIGN   1610>>ASSIGN   1611>>ASSIGN   1612>>IF       1613>>ASSIGN
      1613>>ASSIGN   1613>>ASSIGN   1614>>ASSIGN   1614>>ASSIGN   1615>>IF       1615>>IF       1615>>IF
      1618>>ASSIGN   1619>>IF       1619>>IF       1619>>IF       1619>>IF       1619>>IF       1623>>ASSIGN
      1623>>ASSIGN   1623>>ASSIGN   1625>>ASSIGN   1625>>ASSIGN   1626>>ASSIGN   1626>>ASSIGN   1627>>ASSIGN
      1627>>ASSIGN   1628>>ASSIGN   1628>>ASSIGN   1634>>ASSIGN   1636>>ASSIGN   1636>>ASSIGN   1637>>ASSIGN
      1638>>ASSIGN   1638>>ASSIGN   1639>>IF       1639>>IF       1639>>IF       1642>>ASSIGN   1647>>IF
      1647>>IF       1647>>ASSIGN   1648>>ASSIGN   1648>>ASSIGN   1648>>ASSIGN   1649>>IF       1656>>IF
      1656>>IF       1657>>IF       1657>>IF       1658>>ASSIGN   1658>>ASSIGN   1659>>ASSIGN   1659>>ASSIGN
      1671>>ASSIGN   1672>>ASSIGN   1672>>ASSIGN   1673>>IF       1673>>IF       1675>>ASSIGN   1680>>ASSIGN
      1682>>ASSIGN   1682>>ASSIGN   1683>>ASSIGN   1684>>IF       1684>>IF       1684>>IF       1684>>IF
      1686>>ASSIGN   1688>>IF       1688>>IF       1689>>ASSIGN   1689>>ASSIGN   1689>>ASSIGN   1690>>ASSIGN
      1695>>IF       1696>>IF       1700>>ASSIGN   1700>>ASSIGN   1707>>ASSIGN   1707>>ASSIGN   1708>>IF
      1710>>ASSIGN   1710>>ASSIGN   1711>>ASSIGN   1711>>ASSIGN   1715>>ASSIGN   1715>>ASSIGN   1717>>IF
      1723>>IF       1724<<ASSIGN   1727>>ASSIGN   1729>>IF       1729>>ASSIGN   1739>>ASSIGN   1740>>ASSIGN
      1741>>IF       1741>>IF       1742>>ASSIGN   1742>>ASSIGN   1743>>IF       1743>>IF       1743>>ASSIGN
      1744>>ASSIGN   1746>>ASSIGN   1747>>ASSIGN   1749>>IF       1749>>IF       1749>>IF       1749>>IF
      1749>>IF       1751>>ASSIGN   1752>>ASSIGN   1753>>ASSIGN   1754>>ASSIGN   1755>>IF       1755>>IF
      1757>>ASSIGN   1757>>ASSIGN   1758>>IF       1758>>IF       1758>>IF       1758>>IF       1758>>IF
      1760>>ASSIGN   1761>>IF       1761>>ASSIGN   1761>>ASSIGN   1769>>ASSIGN   1772>>IF       1772>>ASSIGN
      1773>>ASSIGN   1773>>ASSIGN   1773>>ASSIGN   1774>>ASSIGN   1774>>ASSIGN   1774>>ASSIGN   1776>>ASSIGN
      1776>>ASSIGN   1778>>ASSIGN   1778>>ASSIGN   1779>>ASSIGN   1781>>ASSIGN   1781>>ASSIGN   1782>>ASSIGN
      1783>>ASSIGN   1785>>ASSIGN   1793<<ASSIGN   1799<<ASSIGN   1831>>ASSIGN   1842>>ASSIGN   1848>>ASSIGN
      1852>>ASSIGN   1860>>ASSIGN   1870>>ASSIGN   1958>>IF       2063>>ASSIGN   2074<<ASSIGN   2081>>IF
      2082>>ASSIGN   2083>>IF       2083>>IF       2083>>IF       2083>>IF       2083>>IF       2083>>IF
PL6.E3A0      #002=KVC$ADJWND File=KVC$CNC.:E05TSI                               WED 07/30/97 01:56 Page:260
      2089>>IF       2089>>IF       2089>>IF       2089>>IF       2089>>IF       2089>>IF       2102>>ASSIGN
      2105>>ASSIGN   2107>>ASSIGN   2111>>ASSIGN   2111>>ASSIGN   2112>>ASSIGN   2112>>ASSIGN   2113>>ASSIGN
      2113>>ASSIGN   2113>>ASSIGN   2114>>ASSIGN   2114>>ASSIGN   2114>>ASSIGN   2115>>ASSIGN   2116>>ASSIGN
      2118>>ASSIGN   2120>>IF
Y@T1 IN PROCEDURE Y$FNDSPCLNG
      1817**DCL      1995<<ASSIGN
Y@T1.F IN PROCEDURE Y$FNDSPCLNG
      1818**DCL      2011<<ASSIGN   2012>>IF       2024>>IF       2030<<ASSIGN   2038<<ASSIGN   2048>>ASSIGN
Y@T1.S IN PROCEDURE Y$FNDSPCLNG
      1819**DCL      2012>>IF       2018>>IF       2020>>IF       2020<<ASSIGN   2032<<ASSIGN   2037>>IF
      2040<<ASSIGN
Y@T2.F IN PROCEDURE Y$FNDSPCLNG
      1823**DCL      1978<<ASSIGN   1980>>ASSIGN   2026<<ASSIGN   2029>>DOUNTIL  2030>>ASSIGN   2035>>IF
      2042<<ASSIGN
Y@T2.S IN PROCEDURE Y$FNDSPCLNG
      1824**DCL      2027<<ASSIGN   2046>>IF       2047<<ASSIGN
Y@T2.T IN PROCEDURE Y$FNDSPCLNG
      1822**DCL      1823--REDEF    1977<<ASSIGN   1979<<ASSIGN   1979>>ASSIGN
Y@TMP IN PROCEDURE Y$FNDSPCLNG
      1810**DCL      1831<<ASSIGN   1842<<ASSIGN   1860>>ASSIGN   1861>>ASSIGN   1879<<ASSIGN   1881<<ASSIGN
      1900>>IF       1903<<ASSIGN   1907>>IF       1908>>ASSIGN   1909>>ASSIGN   1914<<ASSIGN   1915<<ASSIGN
      1919>>IF       1936>>ASSIGN   1940>>ASSIGN   1996<<DOINDEX  1997>>IF       1998>>ASSIGN   1999>>DOINDEX
      2008>>ASSIGN   2009>>ASSIGN   2011>>ASSIGN   2012>>IF       2012>>IF       2014>>ASSIGN   2016>>ASSIGN
      2019>>ASSIGN   2033>>DOUNTIL  2034<<ASSIGN   2034>>ASSIGN   2035>>IF       2036>>ASSIGN   2038>>ASSIGN
      2042>>ASSIGN   2050<<ASSIGN
Y@WDTMNS1 IN PROCEDURE Y$FNDSPCLNG
      1809**DCL      1830<<ASSIGN   1841<<ASSIGN   1852>>ASSIGN   1860>>IF       1872>>ASSIGN   1998>>ASSIGN
      2001>>IF       2004>>ASSIGN   2036>>ASSIGN
Y@WDTPLS1 IN PROCEDURE Y$FNDSPCLNG
      1808**DCL      1829<<ASSIGN   1840<<ASSIGN   1848>>ASSIGN   1885>>ASSIGN   1913>>IF       1981>>ASSIGN
      1984>>ASSIGN   2005>>ASSIGN   2008>>ASSIGN   2009>>ASSIGN   2056>>IF
Y@X
      1423**DCL      1614<<ASSIGN   1615>>IF       1615>>IF       1615>>IF       1623<<ASSIGN   1625>>ASSIGN
      1626>>ASSIGN   1627>>ASSIGN   1628>>ASSIGN   1638<<ASSIGN   1639>>IF       1639>>IF       1639>>IF
      1857<<ASSIGN   1864<<ASSIGN   1864>>ASSIGN   1919>>IF       1931>>IF       1932>>ASSIGN   1933<<ASSIGN
      1933>>ASSIGN   1938>>ASSIGN   1942>>IF       1978>>ASSIGN   1991>>IF       1996>>DOINDEX  1999>>DOINDEX
PL6.E3A0      #002=KVC$ADJWND File=KVC$CNC.:E05TSI                               WED 07/30/97 01:56 Page:261
      2050>>ASSIGN   2058>>DOWHILE  2059<<ASSIGN   2059>>ASSIGN   2060>>ASSIGN   2061>>IF

