PL6.E3A0      #003=KVC$DRWBRD File=KVC$CNC.:E05TSI                               WED 07/30/97 01:57 Page:262
     1473        1        /*T***********************************************************/
     1474        2        /*T*                                                         */
     1475        3        /*T* Copyright (c) Bull HN Information Systems Inc., 1997    */
     1476        4        /*T*                                                         */
     1477        5        /*T***********************************************************/
     1478        6        /*X*     NSO,PLM=3,SQB=Y,AND=Y,ENI=0,SDI=3,MCL=10,CSI=0,ECI=0,IND=0,IAD=3 */
     1479        7        /*F* NAME: KVC$DRWBRD.
     1480        8             PURPOSE: Draws the borders for the SRD pointed to by KV$PTR.SRD$.
     1481        9        */
     1482       10        KVC$DRWBRD: PROC;
     1483       11
     1484       12 S      %INCLUDE KV$GLB;
     1485       13 S      %INCLUDE KV$GLBCTX;
     1486       14 S      %INCLUDE KV$INT;
     1487       15 S      %INCLUDE KV$VDH;
     1488       16 S      %INCLUDE KV_GLBCNS_E;
     1489       17        %KV#VD_ORG_E;
     1490       25        %KV_PHSPSTMOD_E;
     1491       32        %KV$LINLST;
     1492       59        %KV$MRD;
     1493      106        %KV$MVD;
     1494      150        %KV$PTR;
     1495      193        %KV$SRD (STCLASS="BASED(Y@SRD$)");
     1496      468        %KV$VDI;
     1497      539        %EQU KV_SRD=CHARTEXT('KV$SRD');
     1498      540
     1499      541    1   DCL KVC$FIXPST ENTRY(1) ALTRET;
     1500      542    1   DCL KVC$FIXWDT ENTRY(1) ALTRET;
     1501      543    1   DCL KVO$OTPLCL ENTRY(1);
     1502      544    1   DCL KVV$CALUSR ENTRY(1) ALTRET;
     1503      545    1   DCL KVV$CALUSR_PST ENTRY ALTRET;
     1504      546
     1505      547    1   DCL Y@SRD$ PTR;
     1506      548        %KV$PST (NAME=Y@CRT, STCLASS=AUTO);
     1507      582        %KV$PST (NAME=Y@NONBLN, STCLASS=AUTO);
     1508      616    1   DCL Y@SCROLL BIT(1);
     1509      617    1   DCL Y@DVCLINBIS SBIN;
PL6.E3A0      #003=KVC$DRWBRD File=KVC$CNC.:E05TSI                               WED 07/30/97 01:57 Page:263
     1510      618    1   DCL Y@TOPLIN SBIN;
     1511      619    1   DCL Y@BTMLIN SBIN;
     1512      620    1   DCL OLDTOP SBIN;
     1513      621    1   DCL OLDLFT SBIN;
     1514      622    1   DCL OLDRHT SBIN;
     1515      623    1   DCL OLDBTM SBIN;
     1516      624    1   DCL BUFC CHAR(80);
     1517      625    1   DCL 1 BUF REDEF BUFC,
     1518      626    1          2 C(0:79) CHAR(1),
     1519      627    1          2 B(0:79) REDEF C UBIN(8) UNAL,
     1520      628    1          2 W(0:39) REDEF C UBIN,
     1521      629    1          2 D(0:19) REDEF C UBIN(32);
     1522      630        %KV$VDH_OTPLCL (NAME=Y@VDH_OTPLCL, STCLASS=AUTO);
     1523      703        %KV$VDH_OTPLCL (NAME=KV_VDH_OTPLCL, STCLASS=SYMREF);
     1524      776    1   DCL KV_USR_SETATR UBIN SYMREF;
     1525      777        %EJECT;
PL6.E3A0      #003=KVC$DRWBRD File=KVC$CNC.:E05TSI                               WED 07/30/97 01:57 Page:264
     1526      778    1      Y@SRD$ = KV$PTR.SRD$;
     1527      779    1      %KV_SRD.BRDUPD = '0'B;
     1528      780    2      IF %KV_MVD.ORG=%KV#VD_ORG_FORM THEN DO;
     1529      781    2         %KV_SRD.TOPBRD = '0'B;
     1530      782    2         %KV_SRD.LFTBRD = '0'B;
     1531      783    2         %KV_SRD.BTMBRD = '0'B;
     1532      784    2         %KV_SRD.RHTBRD = '0'B;
     1533      785    2         IF %KV_MVD.LINLST$->KV$LINLST.FRMDSP THEN RETURN;
     1534      786    2      END;
     1535      787    1      OLDTOP = %KV_SRD.TOPLFT.LIN-%KV_SRD.ORG.LIN-1;
     1536      788    1      OLDLFT = %KV_SRD.TOPLFT.CLM-%KV_SRD.ORG.CLM-%KV_SRD.LFTMRGCLM;
     1537      789    1      OLDRHT = %KV_SRD.SRDEND.CLM-%KV_SRD.BTMRHT.CLM;
     1538      790    1      OLDBTM = %KV_SRD.SRDEND.LIN-%KV_SRD.BTMRHT.LIN;
     1539      791    1      %KV_SRD.TOPLFT_PST = %KV_SRD.ORG_PST+%BITBIN('10001'X);
     1540      792    1      %KV_SRD.BTMRHT = %KV_SRD.SRDEND;
     1541      793    1      Y@TOPLIN = %KV_SRD.TOPLFT.LIN;
     1542      794    1      Y@BTMLIN = %KV_SRD.BTMRHT.LIN;
     1543      795    1      IF %KV_SRD.HBRDSIZ~=0 AND (%KV_SRD.TOPBRD OR %KV_SRD.BTMBRD)
     1544      796    2        OR %KV_SRD.VBRDSIZ~=0 AND (%KV_SRD.LFTBRD OR %KV_SRD.RHTBRD) THEN DO;
     1545      797    2         %KV_SRD.BRDEXS = '1'B;
     1546      798    2         %KV_SRD.UNKRGN = '1'B;
     1547      799    2         IF %KV_SRD.TOPBRD THEN Y@TOPLIN = Y@TOPLIN+%KV_SRD.HBRDSIZ;
     1548      800    2         IF %KV_SRD.BTMBRD THEN Y@BTMLIN = Y@BTMLIN-%KV_SRD.HBRDSIZ;
     1549      801    2         IF %KV_SRD.LFTBRD THEN OLDLFT = 0;
     1550      802    2         IF %KV_SRD.RHTBRD THEN OLDRHT = 0;
     1551      803    2      END; ELSE DO;
     1552      804    2         %KV_SRD.BRDEXS = '0'B;
     1553      805    2         %KV_SRD.WDT = MAXIMUM(%KV_SRD.SRDEND.CLM-%KV_SRD.ORG.CLM,0);
     1554      806    2         %KV_SRD.LNG = MAXIMUM(%KV_SRD.SRDEND.LIN-%KV_SRD.ORG.LIN,0);
     1555      807    2         CALL KVC$FIXWDT (%KV_MVD);
     1556      808    2         IF %KV_SRD.CRT.LIN=0 THEN CALL KVC$FIXPST (%KV_MVD);
     1557      809    2         IF OLDTOP+OLDRHT+OLDBTM>0 OR OLDLFT>0 THEN EXIT;
     1558      810    2         RETURN;
     1559      811    2      END;
     1560      812    1      IF %KV_SRD.SRDEND.LIN<=%KV_SRD.ORG.LIN
     1561      813    1        OR %KV_SRD.SRDEND.CLM<=%KV_SRD.ORG.CLM THEN RETURN;
     1562      814    1      IF %KV_MRD.DCLATRWHNOTP AND %KV_MRD.DVCATR~='0'B
PL6.E3A0      #003=KVC$DRWBRD File=KVC$CNC.:E05TSI                               WED 07/30/97 01:57 Page:265
     1563      815    1      THEN CALL KVV$CALUSR (KV_USR_SETATR);
     1564      816    1      Y@VDH_OTPLCL = KV_VDH_OTPLCL;
     1565      817    1      Y@VDH_OTPLCL.BFR_.ADR$ = ADDR(BUF);
     1566      818    1      Y@VDH_OTPLCL.NONVRT = '1'B;
     1567      819    1      Y@NONBLN = %KV_SRD.HI_NONBLN;
     1568      820    1      Y@CRT = %KV_SRD.CRT;
     1569      821    1      Y@SCROLL = %KV_SRD.SCROLL;
     1570      822    1      Y@DVCLINBIS = %KV_SRD.DVCLINBIS;
     1571      823    1      %KV_SRD.SCROLL = '0'B;
     1572      824    1      %KV_SRD.DVCLINBIS = 0;
     1573      825    1      %KV_SRD.FLDEND.CLM = 0;
     1574      826    1      %KV_SRD.HI_NONBLN = %KV_SRD.SRDEND;
     1575      827    1      CALL Y$PSTSKP;
     1576      828    1      %KV_SRD.CRT_PST = %KV_SRD.TOPLFT_PST;
     1577      829    1      %KV_SRD.BTMRHT.CLM = %KV_SRD.BTMRHT.CLM+1;
     1578      830    1      IF %KV_SRD.CRT.LIN<Y@TOPLIN THEN CALL Y$HRZBRD;
     1579      831    1      ELSE IF OLDTOP>0 THEN CALL Y$HRZBLN;
     1580      832    1      BUFC = ' ';
     1581      833    1      IF OLDLFT<=0 THEN BUF.B(0) = ASCBIN(%KV_SRD.VBRDCHR);
     1582      834    1      IF OLDRHT<=0 THEN BUF.C(79) = %KV_SRD.VBRDCHR;
     1583      835    1      Y@VDH_OTPLCL.BFR_.BYTSIZ =
     1584      836    1        MINIMUM(%KV_SRD.VBRDSIZ,%KV_SRD.SRDEND.CLM-%KV_SRD.ORG.CLM);
     1585      837    2      DO WHILE %KV_SRD.CRT.LIN<=%KV_SRD.SRDEND.LIN;
     1586      838    2         Y@VDH_OTPLCL.BFR_.BYTX = 0;
     1587      839    2         IF %KV_SRD.CRT.LIN=%KV_SRD.SRDEND.LIN
     1588      840    3           AND (%KV_SRD.CRT.LIN>Y@BTMLIN OR OLDBTM>0) THEN DO;
     1589      841    3            IF %KV_SRD.CRT.LIN>Y@BTMLIN THEN CALL Y$HRZBRD;
     1590      842    3            ELSE CALL Y$HRZBLN;
     1591      843    3         END;
     1592      844    3         ELSE DO;
     1593      845    3            IF (%KV_SRD.LFTBRD OR OLDLFT>0)
     1594      846    4              AND Y@VDH_OTPLCL.BFR_.BYTSIZ~=0 THEN DO;
     1595      847    4               CALL KVO$OTPLCL (Y@VDH_OTPLCL);
     1596      848    4               CALL Y$PSTSKP;
     1597      849    4            END;
     1598      850    4            IF %KV_SRD.CRT.LIN<Y@TOPLIN OR %KV_SRD.CRT.LIN>Y@BTMLIN THEN DO;
     1599      851    4               IF %KV_SRD.CRT.CLM=%KV_SRD.TOPLFT.CLM THEN CALL KVV$CALUSR_PST;
PL6.E3A0      #003=KVC$DRWBRD File=KVC$CNC.:E05TSI                               WED 07/30/97 01:57 Page:266
     1600      852    4               %KV_VDI.OTPCNDPND.PST = %KV_PHSPSTMOD_BLN;
     1601      853    4            END;
     1602      854    3            %KV_SRD.CRT.CLM = %KV_SRD.BTMRHT.CLM;
     1603      855    3            IF (%KV_SRD.RHTBRD OR OLDRHT>0)
     1604      856    4              AND Y@VDH_OTPLCL.BFR_.BYTSIZ~=0 THEN DO;
     1605      857    4               %KV_SRD.CRT.CLM = %KV_SRD.CRT.CLM-Y@VDH_OTPLCL.BFR_.BYTSIZ;
     1606      858    4               Y@VDH_OTPLCL.BFR_.BYTX = 80-Y@VDH_OTPLCL.BFR_.BYTSIZ;
     1607      859    4               IF %KV_SRD.CRT.LIN=%KV_MRD.LNG AND %KV_MRD.AUTONL
     1608      860    4                 AND %KV_MRD.DEVSCROLL AND %KV_SRD.SRDEND.CLM=%KV_MRD.WDT
     1609      861    4               THEN Y@VDH_OTPLCL.BFR_.BYTSIZ = Y@VDH_OTPLCL.BFR_.BYTSIZ-1;
     1610      862    4               CALL KVO$OTPLCL (Y@VDH_OTPLCL);
     1611      863    4            END;
     1612      864    3            CALL Y$PSTSKP;
     1613      865    3            %KV_SRD.CRT.CLM = %KV_SRD.TOPLFT.CLM;
     1614      866    3            %KV_SRD.CRT.LIN = %KV_SRD.CRT.LIN+1;
     1615      867    3         END;
     1616      868    2      END;
     1617      869    1      %KV_VDI.OTPCNDPND.PST = 0;
     1618      870    1      %KV_SRD.CRT = Y@CRT;
     1619      871    1      %KV_SRD.HI_NONBLN = Y@NONBLN;
     1620      872    1      %KV_SRD.SCROLL = Y@SCROLL;
     1621      873    1      %KV_SRD.DVCLINBIS = Y@DVCLINBIS;
     1622      874    1      IF %KV_SRD.LFTBRD
     1623      875    1      THEN %KV_SRD.TOPLFT.CLM = %KV_SRD.TOPLFT.CLM+%KV_SRD.VBRDSIZ;
     1624      876    1      IF %KV_SRD.RHTBRD
     1625      877    1      THEN %KV_SRD.BTMRHT.CLM = %KV_SRD.SRDEND.CLM-%KV_SRD.VBRDSIZ;
     1626      878    1      ELSE %KV_SRD.BTMRHT.CLM = %KV_SRD.SRDEND.CLM;
     1627      879    1      %KV_SRD.TOPLFT.LIN = Y@TOPLIN;
     1628      880    1      %KV_SRD.BTMRHT.LIN = Y@BTMLIN;
     1629      881    1      %KV_SRD.LNG = MAXIMUM(%KV_SRD.BTMRHT.LIN-%KV_SRD.TOPLFT.LIN+1,0);
     1630      882    1      IF %KV_SRD.LFTMRGCLM>1
     1631      883    1        AND %KV_SRD.TOPLFT.CLM+%KV_SRD.LFTMRGCLM<=%KV_SRD.BTMRHT.CLM
     1632      884    1      THEN %KV_SRD.TOPLFT.CLM = %KV_SRD.TOPLFT.CLM+%KV_SRD.LFTMRGCLM-1;
     1633      885    1      %KV_SRD.WDT = MAXIMUM(%KV_SRD.BTMRHT.CLM-%KV_SRD.TOPLFT.CLM+1,0);
     1634      886    1      CALL KVC$FIXWDT (%KV_MVD);
     1635      887    1      IF %KV_SRD.CRT.LIN<%KV_SRD.TOPLFT.LIN OR Y@CRT.CLM<%KV_SRD.TOPLFT.CLM
     1636      888    1        OR %KV_SRD.CRT.LIN>%KV_SRD.BTMRHT.LIN OR Y@CRT.CLM>%KV_SRD.BTMRHT.CLM
PL6.E3A0      #003=KVC$DRWBRD File=KVC$CNC.:E05TSI                               WED 07/30/97 01:57 Page:267
     1637      889    1        OR Y@NONBLN.LIN>%KV_SRD.BTMRHT.LIN OR Y@NONBLN.CLM>%KV_SRD.BTMRHT.CLM
     1638      890    1      THEN CALL KVC$FIXPST (%KV_MVD);
     1639      891
     1640      892    1      RETURN;
     1641      893        %EJECT;
PL6.E3A0      #003=KVC$DRWBRD File=KVC$CNC.:E05TSI                               WED 07/30/97 01:57 Page:268
     1642      894        /*I* NAME: Y$HRZBRD.
     1643      895             Draws a horizontal border line.
     1644      896        */
     1645      897    1   Y$HRZBRD: PROC;
     1646      898
     1647      899    2   DCL Y@WDT UBIN;
     1648      900
     1649      901    2      BUF.W(1) = ASCBIN(%KV_SRD.HBRDCHR);
     1650      902    2      GOTO CMN;
     1651      903    2   Y$HRZBLN: ENTRY;
     1652      904    2      BUF.W(1) = ASCBIN(' ');
     1653      905    2   CMN:;
     1654      906    2      BUF.B(2) = BUF.W(1);
     1655      907    2      BUF.W(0) = BUF.W(1);
     1656      908    2      BUF.D(1) = BUF.D(0);
     1657      909    2      SUBSTR(BUFC,8,72) = SUBSTR(BUFC,0,72);
     1658      910    2      Y@WDT = %KV_SRD.SRDEND.CLM-%KV_SRD.ORG.CLM;
     1659      911    2      IF Y@WDT>80 THEN Y@VDH_OTPLCL.BFR_.BYTSIZ = 79;
     1660      912    2      ELSE Y@VDH_OTPLCL.BFR_.BYTSIZ = Y@WDT;
     1661      913    3      IF %KV_SRD.VBRDCHR~=' ' AND %KV_SRD.VBRDSIZ>0 THEN DO;
     1662      914    3         IF %KV_SRD.LFTBRD THEN BUF.C(0) = %KV_SRD.VBRDCHR;
     1663      915    3         IF %KV_SRD.RHTBRD THEN IF Y@WDT>80 THEN BUF.C(79) = %KV_SRD.VBRDCHR;
     1664      916    3         ELSE BUF.C(Y@WDT-1) = %KV_SRD.VBRDCHR;
     1665      917    3      END;
     1666      918    2      IF %KV_SRD.CRT.LIN=%KV_MRD.LNG AND %KV_MRD.AUTONL AND %KV_MRD.DEVSCROLL
     1667      919    3        AND %KV_SRD.SRDEND.CLM=%KV_MRD.WDT THEN DO;
     1668      920    3         BUF.C(79) = %KV_SRD.HBRDCHR;
     1669      921    3         Y@WDT = Y@WDT-1;
     1670      922    3         Y@VDH_OTPLCL.BFR_.BYTSIZ = Y@VDH_OTPLCL.BFR_.BYTSIZ-1;
     1671      923    3      END;
     1672      924    2      CALL KVV$CALUSR_PST;
     1673      925    2      CALL KVO$OTPLCL (Y@VDH_OTPLCL);
     1674      926    3      DO WHILE Y@WDT>Y@VDH_OTPLCL.BFR_.BYTSIZ;
     1675      927    3         Y@WDT = Y@WDT-Y@VDH_OTPLCL.BFR_.BYTSIZ;
     1676      928    4         IF Y@WDT>79 THEN DO;
     1677      929    4            Y@VDH_OTPLCL.BFR_.BYTX = 1;
     1678      930    4            Y@VDH_OTPLCL.BFR_.BYTSIZ = 78;
PL6.E3A0      #003=KVC$DRWBRD File=KVC$CNC.:E05TSI                               WED 07/30/97 01:57 Page:269
     1679      931    4         END; ELSE DO;
     1680      932    4            Y@VDH_OTPLCL.BFR_.BYTX = 80-Y@WDT;
     1681      933    4            Y@VDH_OTPLCL.BFR_.BYTSIZ = Y@WDT;
     1682      934    4         END;
     1683      935    3         CALL KVO$OTPLCL (Y@VDH_OTPLCL);
     1684      936    3      END;
     1685      937    2      CALL Y$PSTSKP;
     1686      938    2      %KV_SRD.CRT.CLM = %KV_SRD.TOPLFT.CLM;
     1687      939    2      %KV_SRD.CRT.LIN = %KV_SRD.CRT.LIN+1;
     1688      940    2      RETURN;
     1689      941    2   END Y$HRZBRD;
     1690      942        %EJECT;
PL6.E3A0      #003=KVC$DRWBRD File=KVC$CNC.:E05TSI                               WED 07/30/97 01:57 Page:270
     1691      943        /*I* NAME: Y$PSTSKP.
     1692      944             DESCRIPTION: Sets position-pending - skip-mode.  Finishes any pending
     1693      945             blanking first.
     1694      946        */
     1695      947    1   Y$PSTSKP: PROC;
     1696      948    2      IF %KV_VDI.OTPCNDPND.PST=%KV_PHSPSTMOD_BLN THEN CALL KVV$CALUSR_PST;
     1697      949    2      %KV_VDI.OTPCNDPND.PST = %KV_PHSPSTMOD_SKP;
     1698      950    2      RETURN;
     1699      951    2   END Y$PSTSKP;
     1700      952    1   END KVC$DRWBRD;

PL6.E3A0      #003=KVC$DRWBRD File=KVC$CNC.:E05TSI                               WED 07/30/97 01:57 Page:271
--  Include file information  --

   KV_PRMID_E.:E05TOU  was found in the system file and is never referenced.
   KV_GLBCNS_E.:E05TOU  was found in the system file and is referenced.
   KV$VDO.:E05TOU  was found in the system file and is never referenced.
   KV$VDH.:E05TOU  was found in the system file and is referenced.
   KV$USR.:E05TOU  was found in the system file and is never referenced.
   KV$SND.:E05TOU  was found in the system file and is never referenced.
   KV$INT.:E05TOU  was found in the system file and is referenced.
   KV$GLBCTX.:E05TOU  was found in the system file and is referenced.
   KV$GLB.:E05TOU  was found in the system file and is referenced.
   G_LCP6_E.:E05TOU  was found in the system file and is never referenced.
   GT_LCP6_M.:E05TOU  was found in the system file and is never referenced.
   KI_CP6.:E05TOU  was found in the system file and is never referenced.
   GF_LCP6_M.:E05TOU  was found in the system file and is never referenced.
   GM_LCP6_M.:E05TOU  was found in the system file and is never referenced.
   GU_LCP6_M.:E05TOU  was found in the system file and is never referenced.
   GJ_LCP6_M.:E05TOU  was found in the system file and is never referenced.
   GH_LCP6_M.:E05TOU  was found in the system file and is never referenced.
      No diagnostics issued in procedure KVC$DRWBRD.

   Procedure KVC$DRWBRD requires 1000 words for executable code.
   Procedure KVC$DRWBRD requires 72 words of local(AUTO) storage.

    No errors detected in file KVC$CNC.:E05TSI    .

PL6.E3A0      #003=KVC$DRWBRD File=KVC$CNC.:E05TSI                               WED 07/30/97 01:57 Page:272

 Object Unit name= KVC$DRWBRD                                 File name= KVC$CNC.:E05TOU
 UTS= JUL 30 '97 01:57:49.28 WED                              Compiler= PL-6/E31         Sev=      00
 SharedLib= :SHARED_LCP6_SYSTEM                               Alt SharedLib=


    ****  Control sections  ****

 Sect   Type Bound  Init  Size HexSiz  Section name
    0   Proc  even  none  1000    3E8  KVC$DRWBRD
    1  RoData even  none     2      2  KVC$DRWBRD

    ****  Entry defs  ****

                              Check   Calling
                             calling  sequence
  Sect HexLoc Primary Altret sequence   type   Parms  Name
     0      0   yes            yes      Std        0  KVC$DRWBRD

  ****  Entry refs  ****

         Check        Calling
        calling       sequence
Altret sequence SRef   type   Args  Name
 yes     yes           Std       1 KVC$FIXWDT
 yes     yes           Std       0 KVV$CALUSR_PST
 yes     yes           Std       1 KVC$FIXPST
 yes     yes           Std       1 KVV$CALUSR
         yes           Std       1 KVO$OTPLCL
                       nStd      0 X6A_AUTO_0
                       nStd      0 X6A_ARET
PL6.E3A0      #003=KVC$DRWBRD File=KVC$CNC.:E05TSI                               WED 07/30/97 01:57 Page:273

  ****  Data refs  ****

  Flags:  r = read only, s = secondary
Flgs Name                             Flgs Name                             Flgs Name
     KV$PTR$                               KV_VDH_OTPLCL                         KV_USR_SETATR
r    G$ROS$
PL6.E3A0      #003=KVC$DRWBRD File=KVC$CNC.:E05TSI                               WED 07/30/97 01:57 Page:274


     1473        1        /*T***********************************************************/
     1474        2        /*T*                                                         */
     1475        3        /*T* Copyright (c) Bull HN Information Systems Inc., 1997    */
     1476        4        /*T*                                                         */
     1477        5        /*T***********************************************************/
     1478        6        /*X*     NSO,PLM=3,SQB=Y,AND=Y,ENI=0,SDI=3,MCL=10,CSI=0,ECI=0,IND=0,IAD=3 */
     1479        7        /*F* NAME: KVC$DRWBRD.
     1480        8             PURPOSE: Draws the borders for the SRD pointed to by KV$PTR.SRD$.
     1481        9        */
     1482       10        KVC$DRWBRD: PROC;

     10   0 000000  D380 0000 0000  xent KVC$DRWBRD      LNJ,B5   X6A_AUTO_0
          0 000003       0048 0000                       DC       72,0

     1483       11
     1484       12 S      %INCLUDE KV$GLB;
     1485       13 S      %INCLUDE KV$GLBCTX;
     1486       14 S      %INCLUDE KV$INT;
     1487       15 S      %INCLUDE KV$VDH;
     1488       16 S      %INCLUDE KV_GLBCNS_E;
     1489       17        %KV#VD_ORG_E;
     1490       25        %KV_PHSPSTMOD_E;
     1491       32        %KV$LINLST;
     1492       59        %KV$MRD;
     1493      106        %KV$MVD;
     1494      150        %KV$PTR;
     1495      193        %KV$SRD (STCLASS="BASED(Y@SRD$)");
     1496      468        %KV$VDI;
     1497      539        %EQU KV_SRD=CHARTEXT('KV$SRD');
     1498      540
     1499      541    1   DCL KVC$FIXPST ENTRY(1) ALTRET;
     1500      542    1   DCL KVC$FIXWDT ENTRY(1) ALTRET;
     1501      543    1   DCL KVO$OTPLCL ENTRY(1);
     1502      544    1   DCL KVV$CALUSR ENTRY(1) ALTRET;
     1503      545    1   DCL KVV$CALUSR_PST ENTRY ALTRET;
     1504      546
PL6.E3A0      #003=KVC$DRWBRD File=KVC$CNC.:E05TSI                               WED 07/30/97 01:57 Page:275
     1505      547    1   DCL Y@SRD$ PTR;
     1506      548        %KV$PST (NAME=Y@CRT, STCLASS=AUTO);
     1507      582        %KV$PST (NAME=Y@NONBLN, STCLASS=AUTO);
     1508      616    1   DCL Y@SCROLL BIT(1);
     1509      617    1   DCL Y@DVCLINBIS SBIN;
     1510      618    1   DCL Y@TOPLIN SBIN;
     1511      619    1   DCL Y@BTMLIN SBIN;
     1512      620    1   DCL OLDTOP SBIN;
     1513      621    1   DCL OLDLFT SBIN;
     1514      622    1   DCL OLDRHT SBIN;
     1515      623    1   DCL OLDBTM SBIN;
     1516      624    1   DCL BUFC CHAR(80);
     1517      625    1   DCL 1 BUF REDEF BUFC,
     1518      626    1          2 C(0:79) CHAR(1),
     1519      627    1          2 B(0:79) REDEF C UBIN(8) UNAL,
     1520      628    1          2 W(0:39) REDEF C UBIN,
     1521      629    1          2 D(0:19) REDEF C UBIN(32);
     1522      630        %KV$VDH_OTPLCL (NAME=Y@VDH_OTPLCL, STCLASS=AUTO);
     1523      703        %KV$VDH_OTPLCL (NAME=KV_VDH_OTPLCL, STCLASS=SYMREF);
     1524      776    1   DCL KV_USR_SETATR UBIN SYMREF;
     1525      777        %EJECT;
PL6.E3A0      #003=KVC$DRWBRD File=KVC$CNC.:E05TSI                               WED 07/30/97 01:57 Page:276
     1526      778    1      Y@SRD$ = KV$PTR.SRD$;

    778   0 000005  EC80 0000 0000  xsym                 LDB,B6   KV$PTR$
          0 000008  DCC6 000A                            LDB,B5   10,B6
          0 00000A  DFC7 0004                            STB,B5   Y@SRD$,AUTO

     1527      779    1      %KV_SRD.BRDUPD = '0'B;

    779   0 00000C  8845 000F                            LBF,'0010'X       15,B5
    779   0 00000E       0010

     1528      780    2      IF %KV_MVD.ORG=%KV#VD_ORG_FORM THEN DO;

    780   0 00000F  CCC6 0006                            LDB,B4   6,B6
          0 000011  E2C4 0015                            LLH,R6   21,B4
          0 000013  6D04                                 CMV,R6   4
          0 000014  0981 0019                            BNE      s:787,PREL

     1529      781    2         %KV_SRD.TOPBRD = '0'B;

    781   0 000016  8845 001C                            LBF,'2000'X       28,B5
    781   0 000018       2000

     1530      782    2         %KV_SRD.LFTBRD = '0'B;

    782   0 000019  8845 001D                            LBF,'2000'X       29,B5
    782   0 00001B       2000

     1531      783    2         %KV_SRD.BTMBRD = '0'B;

    783   0 00001C  8845 001C                            LBF,'1000'X       28,B5
    783   0 00001E       1000

     1532      784    2         %KV_SRD.RHTBRD = '0'B;

    784   0 00001F  8845 001D                            LBF,'1000'X       29,B5
    784   0 000021       1000
PL6.E3A0      #003=KVC$DRWBRD File=KVC$CNC.:E05TSI                               WED 07/30/97 01:57 Page:277

     1533      785    2         IF %KV_MVD.LINLST$->KV$LINLST.FRMDSP THEN RETURN;

    785   0 000022  CCC6 0006                            LDB,B4   6,B6
          0 000024  BCC4 0010                            LDB,B3   16,B4
          0 000026  82C3 0005                            LB,'0040'X        5,B3
          0 000028       0040
          0 000029  0581 0004                            BBF      s:787,PREL

    785   0 00002B  C380 0000 0000  xent                 LNJ,B4   X6A_ARET

     1534      786    2      END;
     1535      787    1      OLDTOP = %KV_SRD.TOPLFT.LIN-%KV_SRD.ORG.LIN-1;

    787   0 00002E  E845 0009                            LDR,R6   9,B5
          0 000030  E245 0007                            SUB,R6   7,B5
          0 000032  6EFF                                 ADV,R6   -1
          0 000033  EF47 000E                            STR,R6   OLDTOP,AUTO

     1536      788    1      OLDLFT = %KV_SRD.TOPLFT.CLM-%KV_SRD.ORG.CLM-%KV_SRD.LFTMRGCLM;

    788   0 000035  D845 000A                            LDR,R5   10,B5
          0 000037  D245 0008                            SUB,R5   8,B5
          0 000039  C2C5 000F                            LLH,R4   15,B5
          0 00003B  C255                                 SUB,R4   R5
          0 00003C  8254                                 NEG      R4
          0 00003D  CF47 000F                            STR,R4   OLDLFT,AUTO

     1537      789    1      OLDRHT = %KV_SRD.SRDEND.CLM-%KV_SRD.BTMRHT.CLM;

    789   0 00003F  D845 001B                            LDR,R5   27,B5
          0 000041  D245 000C                            SUB,R5   12,B5
          0 000043  DF47 0010                            STR,R5   OLDRHT,AUTO

     1538      790    1      OLDBTM = %KV_SRD.SRDEND.LIN-%KV_SRD.BTMRHT.LIN;

    790   0 000045  B845 001A                            LDR,R3   26,B5
PL6.E3A0      #003=KVC$DRWBRD File=KVC$CNC.:E05TSI                               WED 07/30/97 01:57 Page:278
          0 000047  B245 000B                            SUB,R3   11,B5
          0 000049  BF47 0011                            STR,R3   OLDBTM,AUTO

     1539      791    1      %KV_SRD.TOPLFT_PST = %KV_SRD.ORG_PST+%BITBIN('10001'X);

    791   0 00004B  8CC5 0007                            LDI      7,B5
          0 00004D  8470 0001 0001                       AID      65537,IMO
          0 000050  8D45 0009                            SDI      9,B5

     1540      792    1      %KV_SRD.BTMRHT = %KV_SRD.SRDEND;

    792   0 000052  8CC5 001A                            LDI      26,B5
          0 000054  8D45 000B                            SDI      11,B5

     1541      793    1      Y@TOPLIN = %KV_SRD.TOPLFT.LIN;

    793   0 000056  A845 0009                            LDR,R2   9,B5
          0 000058  AF47 000C                            STR,R2   Y@TOPLIN,AUTO

     1542      794    1      Y@BTMLIN = %KV_SRD.BTMRHT.LIN;

    794   0 00005A  9845 000B                            LDR,R1   11,B5
          0 00005C  9F47 000D                            STR,R1   Y@BTMLIN,AUTO

     1543      795    1      IF %KV_SRD.HBRDSIZ~=0 AND (%KV_SRD.TOPBRD OR %KV_SRD.BTMBRD)

    795   0 00005E  82C5 001C                            LB,'0F00'X        28,B5
    795   0 000060       0F00
          0 000061  0581 000B                            BBF      s:795+15,PREL
          0 000063  82C5 001C                            LB,'2000'X        28,B5
          0 000065       2000
          0 000066  0501 0015                            BBT      s:797,PREL
          0 000068  82C5 001C                            LB,'1000'X        28,B5
          0 00006A       1000
          0 00006B  0501 0010                            BBT      s:797,PREL
          0 00006D  82C5 001D                            LB,'0F00'X        29,B5
          0 00006F       0F00
PL6.E3A0      #003=KVC$DRWBRD File=KVC$CNC.:E05TSI                               WED 07/30/97 01:57 Page:279
          0 000070  0581 003E                            BBF      s:804,PREL
          0 000072  82C5 001D                            LB,'2000'X        29,B5
          0 000074       2000
          0 000075  0501 0006                            BBT      s:797,PREL
          0 000077  82C5 001D                            LB,'1000'X        29,B5
          0 000079       1000
          0 00007A  0581 0034                            BBF      s:804,PREL

     1544      796    2        OR %KV_SRD.VBRDSIZ~=0 AND (%KV_SRD.LFTBRD OR %KV_SRD.RHTBRD) THEN DO;

     1545      797    2         %KV_SRD.BRDEXS = '1'B;

    797   0 00007C  8945 000F                            LBT,'0020'X       15,B5
    797   0 00007E       0020

     1546      798    2         %KV_SRD.UNKRGN = '1'B;

    798   0 00007F  8945 000F                            LBT,'0002'X       15,B5
    798   0 000081       0002

     1547      799    2         IF %KV_SRD.TOPBRD THEN Y@TOPLIN = Y@TOPLIN+%KV_SRD.HBRDSIZ;

    799   0 000082  82C5 001C                            LB,'2000'X        28,B5
    799   0 000084       2000
          0 000085  0581 000A                            BBF      s:800,PREL

    799   0 000087  E845 001C                            LDR,R6   28,B5
          0 000089  6048                                 SOR,R6   8
          0 00008A  E570 000F                            AND,R6   15,IMO
          0 00008C  EA52                                 ADD,R6   R2
          0 00008D  A856                                 LDR,R2   R6
          0 00008E  AF47 000C                            STR,R2   Y@TOPLIN,AUTO

     1548      800    2         IF %KV_SRD.BTMBRD THEN Y@BTMLIN = Y@BTMLIN-%KV_SRD.HBRDSIZ;

    800   0 000090  82C5 001C                            LB,'1000'X        28,B5
    800   0 000092       1000
PL6.E3A0      #003=KVC$DRWBRD File=KVC$CNC.:E05TSI                               WED 07/30/97 01:57 Page:280
          0 000093  0581 000B                            BBF      s:801,PREL

    800   0 000095  E845 001C                            LDR,R6   28,B5
          0 000097  6048                                 SOR,R6   8
          0 000098  E570 000F                            AND,R6   15,IMO
          0 00009A  E251                                 SUB,R6   R1
          0 00009B  9856                                 LDR,R1   R6
          0 00009C  8251                                 NEG      R1
          0 00009D  9F47 000D                            STR,R1   Y@BTMLIN,AUTO

     1549      801    2         IF %KV_SRD.LFTBRD THEN OLDLFT = 0;

    801   0 00009F  82C5 001D                            LB,'2000'X        29,B5
    801   0 0000A1       2000
          0 0000A2  0581 0003                            BBF      s:802,PREL

    801   0 0000A4  8747 000F                            CL       OLDLFT,AUTO

     1550      802    2         IF %KV_SRD.RHTBRD THEN OLDRHT = 0;

    802   0 0000A6  82C5 001D                            LB,'1000'X        29,B5
    802   0 0000A8       1000
          0 0000A9  0581 004E                            BBF      s:812,PREL

    802   0 0000AB  8747 0010                            CL       OLDRHT,AUTO

     1551      803    2      END; ELSE DO;

    803   0 0000AD  0F81 004A                            B        s:812,PREL

     1552      804    2         %KV_SRD.BRDEXS = '0'B;

    804   0 0000AF  8845 000F                            LBF,'0020'X       15,B5
    804   0 0000B1       0020

     1553      805    2         %KV_SRD.WDT = MAXIMUM(%KV_SRD.SRDEND.CLM-%KV_SRD.ORG.CLM,0);

PL6.E3A0      #003=KVC$DRWBRD File=KVC$CNC.:E05TSI                               WED 07/30/97 01:57 Page:281
    805   0 0000B2  E845 001B                            LDR,R6   27,B5
          0 0000B4  E245 0008                            SUB,R6   8,B5
          0 0000B6  E970 0000                            CMR,R6   0,IMO
          0 0000B8  0881 0002                            BAGE     s:805+9,PREL
          0 0000BA  6C00                                 LDV,R6   0
          0 0000BB  EF45 000D                            STR,R6   13,B5

     1554      806    2         %KV_SRD.LNG = MAXIMUM(%KV_SRD.SRDEND.LIN-%KV_SRD.ORG.LIN,0);

    806   0 0000BD  E845 001A                            LDR,R6   26,B5
          0 0000BF  E245 0007                            SUB,R6   7,B5
          0 0000C1  E970 0000                            CMR,R6   0,IMO
          0 0000C3  0881 0002                            BAGE     s:806+9,PREL
          0 0000C5  6C00                                 LDV,R6   0
          0 0000C6  E7C5 000E                            STH,R6   14,B5

     1555      807    2         CALL KVC$FIXWDT (%KV_MVD);

    807   0 0000C8  CCC6 0006                            LDB,B4   6,B6
          0 0000CA  CFC7 0046                            STB,B4   Y@WDT+4,AUTO
          0 0000CC  BBC7 0046                            LAB,B3   Y@WDT+4,AUTO
          0 0000CE  CBF0 0100                            LAB,B4   256,IMO
          0 0000D0  E380 0000 0000  xent                 LNJ,B6   KVC$FIXWDT
          0 0000D3       0001                            DC       s:808,PREL

     1556      808    2         IF %KV_SRD.CRT.LIN=0 THEN CALL KVC$FIXPST (%KV_MVD);

    808   0 0000D4  ECC7 0004                            LDB,B6   Y@SRD$,AUTO
          0 0000D6  E846 0015                            LDR,R6   21,B6
          0 0000D8  6981 0010                            BNEZ,R6  s:809,PREL

    808   0 0000DA  DC80 0000 0000  xsym                 LDB,B5   KV$PTR$
          0 0000DD  CCC5 0006                            LDB,B4   6,B5
          0 0000DF  CFC7 0046                            STB,B4   Y@WDT+4,AUTO
          0 0000E1  BBC7 0046                            LAB,B3   Y@WDT+4,AUTO
          0 0000E3  CBF0 0100                            LAB,B4   256,IMO
          0 0000E5  E380 0000 0000  xent                 LNJ,B6   KVC$FIXPST
PL6.E3A0      #003=KVC$DRWBRD File=KVC$CNC.:E05TSI                               WED 07/30/97 01:57 Page:282
          0 0000E8       0001                            DC       s:809,PREL

     1557      809    2         IF OLDTOP+OLDRHT+OLDBTM>0 OR OLDLFT>0 THEN EXIT;

    809   0 0000E9  E847 000E                            LDR,R6   OLDTOP,AUTO
          0 0000EB  EA47 0010                            ADD,R6   OLDRHT,AUTO
          0 0000ED  EA47 0011                            ADD,R6   OLDBTM,AUTO
          0 0000EF  6A01 0008                            BGZ,R6   s:812,PREL
          0 0000F1  E847 000F                            LDR,R6   OLDLFT,AUTO
          0 0000F3  6A01 0004                            BGZ,R6   s:812,PREL

     1558      810    2         RETURN;

    810   0 0000F5  C380 0000 0000  xent                 LNJ,B4   X6A_ARET

     1559      811    2      END;
     1560      812    1      IF %KV_SRD.SRDEND.LIN<=%KV_SRD.ORG.LIN

    812   0 0000F8  ECC7 0004                            LDB,B6   Y@SRD$,AUTO
          0 0000FA  E846 001A                            LDR,R6   26,B6
          0 0000FC  E946 0007                            CMR,R6   7,B6
          0 0000FE  0A81 0007                            BALE     s:813,PREL
          0 000100  D846 001B                            LDR,R5   27,B6
          0 000102  D946 0008                            CMR,R5   8,B6
          0 000104  0A01 0004                            BAG      s:814,PREL

     1561      813    1        OR %KV_SRD.SRDEND.CLM<=%KV_SRD.ORG.CLM THEN RETURN;

    813   0 000106  C380 0000 0000  xent                 LNJ,B4   X6A_ARET

     1562      814    1      IF %KV_MRD.DCLATRWHNOTP AND %KV_MRD.DVCATR~='0'B

    814   0 000109  DC80 0000 0000  xsym                 LDB,B5   KV$PTR$
          0 00010C  CCC5 0008                            LDB,B4   8,B5
          0 00010E  82C4 0018                            LB,'0200'X        24,B4
          0 000110       0200
          0 000111  0581 000F                            BBF      s:816,PREL
PL6.E3A0      #003=KVC$DRWBRD File=KVC$CNC.:E05TSI                               WED 07/30/97 01:57 Page:283
          0 000113  C2C4 001F                            LLH,R4   31,B4
          0 000115  4008                                 SOL,R4   8
          0 000116  4901 000A                            BEZ,R4   s:816,PREL

     1563      815    1      THEN CALL KVV$CALUSR (KV_USR_SETATR);

    815   0 000118  BB80 0000 0000  01                   LAB,B3   0
          0 00011B  CBF0 0100                            LAB,B4   256,IMO
          0 00011D  E380 0000 0000  xent                 LNJ,B6   KVV$CALUSR
          0 000120       0001                            DC       s:816,PREL

     1564      816    1      Y@VDH_OTPLCL = KV_VDH_OTPLCL;

    816   0 000121  AB80 0000 0000  xsym                 LAB,B2   KV_VDH_OTPLCL
          0 000124  2C00                                 LDV,R2   0
          0 000125  6C0A                                 LDV,R6   10
          0 000126  BB87                                 LAB,B3   ,AUTO
          0 000127  3C74                                 LDV,R3   116
          0 000128  0008                                 MMM

     1565      817    1      Y@VDH_OTPLCL.BFR_.ADR$ = ADDR(BUF);

    817   0 000129  EBC7 0012                            LAB,B6   BUFC,AUTO
          0 00012B  EFC7 003B                            STB,B6   Y@VDH_OTPLCL+1,AUTO

     1566      818    1      Y@VDH_OTPLCL.NONVRT = '1'B;

    818   0 00012D  8947 003A                            LBT,'0080'X       Y@VDH_OTPLCL,AUTO
    818   0 00012F       0080

     1567      819    1      Y@NONBLN = %KV_SRD.HI_NONBLN;

    819   0 000130  DCC7 0004                            LDB,B5   Y@SRD$,AUTO
          0 000132  8CC5 0017                            LDI      23,B5
          0 000134  8D47 0008                            SDI      Y@NONBLN,AUTO

     1568      820    1      Y@CRT = %KV_SRD.CRT;
PL6.E3A0      #003=KVC$DRWBRD File=KVC$CNC.:E05TSI                               WED 07/30/97 01:57 Page:284

    820   0 000136  8CC5 0015                            LDI      21,B5
          0 000138  8D47 0006                            SDI      Y@CRT,AUTO

     1569      821    1      Y@SCROLL = %KV_SRD.SCROLL;

    821   0 00013A  D845 000E                            LDR,R5   14,B5
          0 00013C  500C                                 SOL,R5   12
          0 00013D  D570 8000                            AND,R5   -32768,IMO
          0 00013F  DF47 000A                            STR,R5   Y@SCROLL,AUTO

     1570      822    1      Y@DVCLINBIS = %KV_SRD.DVCLINBIS;

    822   0 000141  C845 0019                            LDR,R4   25,B5
          0 000143  CF47 000B                            STR,R4   Y@DVCLINBIS,AUTO

     1571      823    1      %KV_SRD.SCROLL = '0'B;

    823   0 000145  8845 000E                            LBF,'0008'X       14,B5
    823   0 000147       0008

     1572      824    1      %KV_SRD.DVCLINBIS = 0;

    824   0 000148  8745 0019                            CL       25,B5

     1573      825    1      %KV_SRD.FLDEND.CLM = 0;

    825   0 00014A  8745 0011                            CL       17,B5

     1574      826    1      %KV_SRD.HI_NONBLN = %KV_SRD.SRDEND;

    826   0 00014C  8CC5 001A                            LDI      26,B5
          0 00014E  8D45 0017                            SDI      23,B5

     1575      827    1      CALL Y$PSTSKP;

    827   0 000150  E3C0 027B                            LNJ,B6   s:0,PREL
PL6.E3A0      #003=KVC$DRWBRD File=KVC$CNC.:E05TSI                               WED 07/30/97 01:57 Page:285
          0 000152       0001                            DC       s:828,PREL

     1576      828    1      %KV_SRD.CRT_PST = %KV_SRD.TOPLFT_PST;

    828   0 000153  ECC7 0004                            LDB,B6   Y@SRD$,AUTO
          0 000155  8CC6 0009                            LDI      9,B6
          0 000157  8D46 0015                            SDI      21,B6

     1577      829    1      %KV_SRD.BTMRHT.CLM = %KV_SRD.BTMRHT.CLM+1;

    829   0 000159  8AC6 000C                            INC      12,B6

     1578      830    1      IF %KV_SRD.CRT.LIN<Y@TOPLIN THEN CALL Y$HRZBRD;

    830   0 00015B  D846 0015                            LDR,R5   21,B6
          0 00015D  D947 000C                            CMR,R5   Y@TOPLIN,AUTO
          0 00015F  0881 0006                            BAGE     s:831,PREL

    830   0 000161  E3C0 019B                            LNJ,B6   s:0,PREL
          0 000163       0001                            DC       s:830+9,PREL
          0 000164  0F81 0008                            B        s:832,PREL

     1579      831    1      ELSE IF OLDTOP>0 THEN CALL Y$HRZBLN;

    831   0 000166  C847 000E                            LDR,R4   OLDTOP,AUTO
          0 000168  4A81 0004                            BLEZ,R4  s:832,PREL

    831   0 00016A  E3C0 019E                            LNJ,B6   s:0,PREL
          0 00016C       0001                            DC       s:832,PREL

     1580      832    1      BUFC = ' ';

    832   0 00016D  D870 2050                            LDR,R5   8272,IMO
          0 00016F  0021                                 ALR      ;
          0 000170       4178 2000                                ALPHANUM('2000'X,IMO,,1),;
          0 000172       4007 0012                                ALPHANUM(BUFC,AUTO,,R5,FILL)

PL6.E3A0      #003=KVC$DRWBRD File=KVC$CNC.:E05TSI                               WED 07/30/97 01:57 Page:286
     1581      833    1      IF OLDLFT<=0 THEN BUF.B(0) = ASCBIN(%KV_SRD.VBRDCHR);

    833   0 000174  E847 000F                            LDR,R6   OLDLFT,AUTO
          0 000176  437F                                 CSYNC    s:833+1,SPREL
          0 000177  6A01 0009                            BGZ,R6   s:834,PREL

    833   0 000179  ECC7 0004                            LDB,B6   Y@SRD$,AUTO
          0 00017B  C846 001D                            LDR,R4   29,B6
          0 00017D  C570 00FF                            AND,R4   255,IMO
          0 00017F  C7C7 0012                            STH,R4   BUFC,AUTO

     1582      834    1      IF OLDRHT<=0 THEN BUF.C(79) = %KV_SRD.VBRDCHR;

    834   0 000181  C847 0010                            LDR,R4   OLDRHT,AUTO
          0 000183  4A01 0008                            BGZ,R4   s:835,PREL

    834   0 000185  ECC7 0004                            LDB,B6   Y@SRD$,AUTO
          0 000187  B846 001D                            LDR,R3   29,B6
          0 000189  BAC7 0039                            SRM,R3,'00FF'X    BUFC+39,AUTO
          0 00018B       00FF

     1583      835    1      Y@VDH_OTPLCL.BFR_.BYTSIZ =

    835   0 00018C  ECC7 0004                            LDB,B6   Y@SRD$,AUTO
          0 00018E  B846 001B                            LDR,R3   27,B6
          0 000190  B246 0008                            SUB,R3   8,B6
          0 000192  A846 001D                            LDR,R2   29,B6
          0 000194  2048                                 SOR,R2   8
          0 000195  A570 000F                            AND,R2   15,IMO
          0 000197  A953                                 CMR,R2   R3
          0 000198  0881 0002                            BAGE     s:835+15,PREL
          0 00019A  B852                                 LDR,R3   R2
          0 00019B  BF47 003E                            STR,R3   Y@VDH_OTPLCL+4,AUTO

     1584      836    1        MINIMUM(%KV_SRD.VBRDSIZ,%KV_SRD.SRDEND.CLM-%KV_SRD.ORG.CLM);
     1585      837    2      DO WHILE %KV_SRD.CRT.LIN<=%KV_SRD.SRDEND.LIN;

PL6.E3A0      #003=KVC$DRWBRD File=KVC$CNC.:E05TSI                               WED 07/30/97 01:57 Page:287
    837   0 00019D  A846 0015                            LDR,R2   21,B6
          0 00019F  A946 001A                            CMR,R2   26,B6
          0 0001A1  0A01 00B4                            BAG      s:869,PREL

     1586      838    2         Y@VDH_OTPLCL.BFR_.BYTX = 0;

    838   0 0001A3  8747 003D                            CL       Y@VDH_OTPLCL+3,AUTO

     1587      839    2         IF %KV_SRD.CRT.LIN=%KV_SRD.SRDEND.LIN

    839   0 0001A5  ECC7 0004                            LDB,B6   Y@SRD$,AUTO
          0 0001A7  E846 0015                            LDR,R6   21,B6
          0 0001A9  E946 001A                            CMR,R6   26,B6
          0 0001AB  0981 0015                            BNE      s:845,PREL
          0 0001AD  E947 000D                            CMR,R6   Y@BTMLIN,AUTO
          0 0001AF  0A01 0005                            BAG      s:841,PREL
          0 0001B1  D847 0011                            LDR,R5   OLDBTM,AUTO
          0 0001B3  5A81 000D                            BLEZ,R5  s:845,PREL

     1588      840    3           AND (%KV_SRD.CRT.LIN>Y@BTMLIN OR OLDBTM>0) THEN DO;

     1589      841    3            IF %KV_SRD.CRT.LIN>Y@BTMLIN THEN CALL Y$HRZBRD;

    841   0 0001B5  0A81 0006                            BALE     s:842,PREL

    841   0 0001B7  E3C0 0145                            LNJ,B6   s:0,PREL
          0 0001B9       0001                            DC       s:841+5,PREL
          0 0001BA  0F81 0093                            B        s:868,PREL

     1590      842    3            ELSE CALL Y$HRZBLN;

    842   0 0001BC  E3C0 014C                            LNJ,B6   s:0,PREL
          0 0001BE       0001                            DC       s:843,PREL

     1591      843    3         END;

    843   0 0001BF  0F81 008E                            B        s:868,PREL
PL6.E3A0      #003=KVC$DRWBRD File=KVC$CNC.:E05TSI                               WED 07/30/97 01:57 Page:288

     1592      844    3         ELSE DO;

     1593      845    3            IF (%KV_SRD.LFTBRD OR OLDLFT>0)

    845   0 0001C1  82C6 001D                            LB,'2000'X        29,B6
    845   0 0001C3       2000
          0 0001C4  0501 0005                            BBT      s:845+9,PREL
          0 0001C6  D847 000F                            LDR,R5   OLDLFT,AUTO
          0 0001C8  5A81 0014                            BLEZ,R5  s:850,PREL
          0 0001CA  D847 003E                            LDR,R5   Y@VDH_OTPLCL+4,AUTO
          0 0001CC  5901 0010                            BEZ,R5   s:850,PREL

     1594      846    4              AND Y@VDH_OTPLCL.BFR_.BYTSIZ~=0 THEN DO;

     1595      847    4               CALL KVO$OTPLCL (Y@VDH_OTPLCL);

    847   0 0001CE  DBC7 003A                            LAB,B5   Y@VDH_OTPLCL,AUTO
          0 0001D0  DFC7 0046                            STB,B5   Y@WDT+4,AUTO
          0 0001D2  BBC7 0046                            LAB,B3   Y@WDT+4,AUTO
          0 0001D4  CBF0 0100                            LAB,B4   256,IMO
          0 0001D6  E380 0000 0000  xent                 LNJ,B6   KVO$OTPLCL
          0 0001D9       0001                            DC       s:848,PREL

     1596      848    4               CALL Y$PSTSKP;

    848   0 0001DA  E3C0 01F1                            LNJ,B6   s:0,PREL
          0 0001DC       0001                            DC       s:850,PREL

     1597      849    4            END;

     1598      850    4            IF %KV_SRD.CRT.LIN<Y@TOPLIN OR %KV_SRD.CRT.LIN>Y@BTMLIN THEN DO;

    850   0 0001DD  ECC7 0004                            LDB,B6   Y@SRD$,AUTO
          0 0001DF  E846 0015                            LDR,R6   21,B6
          0 0001E1  E947 000C                            CMR,R6   Y@TOPLIN,AUTO
          0 0001E3  0801 0005                            BAL      s:851,PREL
PL6.E3A0      #003=KVC$DRWBRD File=KVC$CNC.:E05TSI                               WED 07/30/97 01:57 Page:289
          0 0001E5  E947 000D                            CMR,R6   Y@BTMLIN,AUTO
          0 0001E7  0A81 0014                            BALE     s:854,PREL

     1599      851    4               IF %KV_SRD.CRT.CLM=%KV_SRD.TOPLFT.CLM THEN CALL KVV$CALUSR_PST;

    851   0 0001E9  D846 0016                            LDR,R5   22,B6
          0 0001EB  D946 000A                            CMR,R5   10,B6
          0 0001ED  0981 0007                            BNE      s:852,PREL

    851   0 0001EF  CBF0 0000                            LAB,B4   0,IMO
          0 0001F1  E380 0000 0000  xent                 LNJ,B6   KVV$CALUSR_PST
          0 0001F4       0001                            DC       s:852,PREL

     1600      852    4               %KV_VDI.OTPCNDPND.PST = %KV_PHSPSTMOD_BLN;

    852   0 0001F5  EC80 0000 0000  xsym                 LDB,B6   KV$PTR$
          0 0001F8  DC86                                 LDB,B5   ,B6
          0 0001F9  6C02                                 LDV,R6   2
          0 0001FA  EF45 001A                            STR,R6   26,B5

     1601      853    4            END;

     1602      854    3            %KV_SRD.CRT.CLM = %KV_SRD.BTMRHT.CLM;

    854   0 0001FC  ECC7 0004                            LDB,B6   Y@SRD$,AUTO
          0 0001FE  E846 000C                            LDR,R6   12,B6
          0 000200  EF46 0016                            STR,R6   22,B6

     1603      855    3            IF (%KV_SRD.RHTBRD OR OLDRHT>0)

    855   0 000202  82C6 001D                            LB,'1000'X        29,B6
    855   0 000204       1000
          0 000205  0501 0005                            BBT      s:855+9,PREL
          0 000207  D847 0010                            LDR,R5   OLDRHT,AUTO
          0 000209  5A81 0039                            BLEZ,R5  s:864,PREL
          0 00020B  D847 003E                            LDR,R5   Y@VDH_OTPLCL+4,AUTO
          0 00020D  5901 0035                            BEZ,R5   s:864,PREL
PL6.E3A0      #003=KVC$DRWBRD File=KVC$CNC.:E05TSI                               WED 07/30/97 01:57 Page:290

     1604      856    4              AND Y@VDH_OTPLCL.BFR_.BYTSIZ~=0 THEN DO;

     1605      857    4               %KV_SRD.CRT.CLM = %KV_SRD.CRT.CLM-Y@VDH_OTPLCL.BFR_.BYTSIZ;

    857   0 00020F  E255                                 SUB,R6   R5
          0 000210  EF46 0016                            STR,R6   22,B6

     1606      858    4               Y@VDH_OTPLCL.BFR_.BYTX = 80-Y@VDH_OTPLCL.BFR_.BYTSIZ;

    858   0 000212  D847 003E                            LDR,R5   Y@VDH_OTPLCL+4,AUTO
          0 000214  8255                                 NEG      R5
          0 000215  5E50                                 ADV,R5   80
          0 000216  DF47 003D                            STR,R5   Y@VDH_OTPLCL+3,AUTO

     1607      859    4               IF %KV_SRD.CRT.LIN=%KV_MRD.LNG AND %KV_MRD.AUTONL

    859   0 000218  DC80 0000 0000  xsym                 LDB,B5   KV$PTR$
          0 00021B  CCC5 0008                            LDB,B4   8,B5
          0 00021D  E2C4 0015                            LLH,R6   21,B4
          0 00021F  E946 0015                            CMR,R6   21,B6
          0 000221  0981 0015                            BNE      s:862,PREL
          0 000223  82C4 0017                            LB,'1000'X        23,B4
          0 000225       1000
          0 000226  0581 0010                            BBF      s:862,PREL
          0 000228  82C4 0017                            LB,'0200'X        23,B4
          0 00022A       0200
          0 00022B  0581 000B                            BBF      s:862,PREL
          0 00022D  C846 001B                            LDR,R4   27,B6
          0 00022F  4801 0007                            BLZ,R4   s:862,PREL
          0 000231  C944 000B                            CMR,R4   11,B4
          0 000233  0981 0003                            BNE      s:862,PREL

     1608      860    4                 AND %KV_MRD.DEVSCROLL AND %KV_SRD.SRDEND.CLM=%KV_MRD.WDT
     1609      861    4               THEN Y@VDH_OTPLCL.BFR_.BYTSIZ = Y@VDH_OTPLCL.BFR_.BYTSIZ-1;

    861   0 000235  88C7 003E                            DEC      Y@VDH_OTPLCL+4,AUTO
PL6.E3A0      #003=KVC$DRWBRD File=KVC$CNC.:E05TSI                               WED 07/30/97 01:57 Page:291

     1610      862    4               CALL KVO$OTPLCL (Y@VDH_OTPLCL);

    862   0 000237  CBC7 003A                            LAB,B4   Y@VDH_OTPLCL,AUTO
          0 000239  CFC7 0046                            STB,B4   Y@WDT+4,AUTO
          0 00023B  BBC7 0046                            LAB,B3   Y@WDT+4,AUTO
          0 00023D  CBF0 0100                            LAB,B4   256,IMO
          0 00023F  E380 0000 0000  xent                 LNJ,B6   KVO$OTPLCL
          0 000242       0001                            DC       s:864,PREL

     1611      863    4            END;

     1612      864    3            CALL Y$PSTSKP;

    864   0 000243  E3C0 0188                            LNJ,B6   s:0,PREL
          0 000245       0001                            DC       s:865,PREL

     1613      865    3            %KV_SRD.CRT.CLM = %KV_SRD.TOPLFT.CLM;

    865   0 000246  ECC7 0004                            LDB,B6   Y@SRD$,AUTO
          0 000248  E846 000A                            LDR,R6   10,B6
          0 00024A  EF46 0016                            STR,R6   22,B6

     1614      866    3            %KV_SRD.CRT.LIN = %KV_SRD.CRT.LIN+1;

    866   0 00024C  8AC6 0015                            INC      21,B6

     1615      867    3         END;

     1616      868    2      END;

    868   0 00024E  ECC7 0004                            LDB,B6   Y@SRD$,AUTO
          0 000250  E846 0015                            LDR,R6   21,B6
          0 000252  E946 001A                            CMR,R6   26,B6
          0 000254  0A81 FF4E                            BALE     s:838,PREL

     1617      869    1      %KV_VDI.OTPCNDPND.PST = 0;
PL6.E3A0      #003=KVC$DRWBRD File=KVC$CNC.:E05TSI                               WED 07/30/97 01:57 Page:292

    869   0 000256  DC80 0000 0000  xsym                 LDB,B5   KV$PTR$
          0 000259  CC85                                 LDB,B4   ,B5
          0 00025A  8744 001A                            CL       26,B4

     1618      870    1      %KV_SRD.CRT = Y@CRT;

    870   0 00025C  8CC7 0006                            LDI      Y@CRT,AUTO
          0 00025E  8D46 0015                            SDI      21,B6

     1619      871    1      %KV_SRD.HI_NONBLN = Y@NONBLN;

    871   0 000260  8CC7 0008                            LDI      Y@NONBLN,AUTO
          0 000262  8D46 0017                            SDI      23,B6

     1620      872    1      %KV_SRD.SCROLL = Y@SCROLL;

    872   0 000264  D847 000A                            LDR,R5   Y@SCROLL,AUTO
          0 000266  504C                                 SOR,R5   12
          0 000267  DAC6 000E                            SRM,R5,'0008'X    14,B6
          0 000269       0008

     1621      873    1      %KV_SRD.DVCLINBIS = Y@DVCLINBIS;

    873   0 00026A  D847 000B                            LDR,R5   Y@DVCLINBIS,AUTO
          0 00026C  DF46 0019                            STR,R5   25,B6

     1622      874    1      IF %KV_SRD.LFTBRD

    874   0 00026E  82C6 001D                            LB,'2000'X        29,B6
    874   0 000270       2000
          0 000271  0581 000A                            BBF      s:876,PREL

     1623      875    1      THEN %KV_SRD.TOPLFT.CLM = %KV_SRD.TOPLFT.CLM+%KV_SRD.VBRDSIZ;

    875   0 000273  C846 001D                            LDR,R4   29,B6
          0 000275  4048                                 SOR,R4   8
PL6.E3A0      #003=KVC$DRWBRD File=KVC$CNC.:E05TSI                               WED 07/30/97 01:57 Page:293
          0 000276  C570 000F                            AND,R4   15,IMO
          0 000278  CA46 000A                            ADD,R4   10,B6
          0 00027A  CF46 000A                            STR,R4   10,B6

     1624      876    1      IF %KV_SRD.RHTBRD

    876   0 00027C  82C6 001D                            LB,'1000'X        29,B6
    876   0 00027E       1000
          0 00027F  0581 000D                            BBF      s:878,PREL

     1625      877    1      THEN %KV_SRD.BTMRHT.CLM = %KV_SRD.SRDEND.CLM-%KV_SRD.VBRDSIZ;

    877   0 000281  C846 001D                            LDR,R4   29,B6
          0 000283  4048                                 SOR,R4   8
          0 000284  C570 000F                            AND,R4   15,IMO
          0 000286  C246 001B                            SUB,R4   27,B6
          0 000288  8254                                 NEG      R4
          0 000289  CF46 000C                            STR,R4   12,B6
          0 00028B  0F81 0005                            B        s:879,PREL

     1626      878    1      ELSE %KV_SRD.BTMRHT.CLM = %KV_SRD.SRDEND.CLM;

    878   0 00028D  C846 001B                            LDR,R4   27,B6
          0 00028F  CF46 000C                            STR,R4   12,B6

     1627      879    1      %KV_SRD.TOPLFT.LIN = Y@TOPLIN;

    879   0 000291  B847 000C                            LDR,R3   Y@TOPLIN,AUTO
          0 000293  BF46 0009                            STR,R3   9,B6

     1628      880    1      %KV_SRD.BTMRHT.LIN = Y@BTMLIN;

    880   0 000295  A847 000D                            LDR,R2   Y@BTMLIN,AUTO
          0 000297  AF46 000B                            STR,R2   11,B6

     1629      881    1      %KV_SRD.LNG = MAXIMUM(%KV_SRD.BTMRHT.LIN-%KV_SRD.TOPLFT.LIN+1,0);

PL6.E3A0      #003=KVC$DRWBRD File=KVC$CNC.:E05TSI                               WED 07/30/97 01:57 Page:294
    881   0 000299  A253                                 SUB,R2   R3
          0 00029A  2E01                                 ADV,R2   1
          0 00029B  A970 0000                            CMR,R2   0,IMO
          0 00029D  0881 0002                            BAGE     s:881+7,PREL
          0 00029F  2C00                                 LDV,R2   0
          0 0002A0  A7C6 000E                            STH,R2   14,B6

     1630      882    1      IF %KV_SRD.LFTMRGCLM>1

    882   0 0002A2  A2C6 000F                            LLH,R2   15,B6
          0 0002A4  2D01                                 CMV,R2   1
          0 0002A5  0381 000D                            BLE      s:885,PREL
          0 0002A7  AA46 000A                            ADD,R2   10,B6
          0 0002A9  A954                                 CMR,R2   R4
          0 0002AA  0A01 0008                            BAG      s:885,PREL

     1631      883    1        AND %KV_SRD.TOPLFT.CLM+%KV_SRD.LFTMRGCLM<=%KV_SRD.BTMRHT.CLM
     1632      884    1      THEN %KV_SRD.TOPLFT.CLM = %KV_SRD.TOPLFT.CLM+%KV_SRD.LFTMRGCLM-1;

    884   0 0002AC  A2C6 000F                            LLH,R2   15,B6
          0 0002AE  AA46 000A                            ADD,R2   10,B6
          0 0002B0  2EFF                                 ADV,R2   -1
          0 0002B1  AF46 000A                            STR,R2   10,B6

     1633      885    1      %KV_SRD.WDT = MAXIMUM(%KV_SRD.BTMRHT.CLM-%KV_SRD.TOPLFT.CLM+1,0);

    885   0 0002B3  C246 000A                            SUB,R4   10,B6
          0 0002B5  4E01                                 ADV,R4   1
          0 0002B6  C970 0000                            CMR,R4   0,IMO
          0 0002B8  0881 0002                            BAGE     s:885+8,PREL
          0 0002BA  4C00                                 LDV,R4   0
          0 0002BB  CF46 000D                            STR,R4   13,B6

     1634      886    1      CALL KVC$FIXWDT (%KV_MVD);

    886   0 0002BD  CCC5 0006                            LDB,B4   6,B5
          0 0002BF  CFC7 0046                            STB,B4   Y@WDT+4,AUTO
PL6.E3A0      #003=KVC$DRWBRD File=KVC$CNC.:E05TSI                               WED 07/30/97 01:57 Page:295
          0 0002C1  BBC7 0046                            LAB,B3   Y@WDT+4,AUTO
          0 0002C3  CBF0 0100                            LAB,B4   256,IMO
          0 0002C5  E380 0000 0000  xent                 LNJ,B6   KVC$FIXWDT
          0 0002C8       0001                            DC       s:887,PREL

     1635      887    1      IF %KV_SRD.CRT.LIN<%KV_SRD.TOPLFT.LIN OR Y@CRT.CLM<%KV_SRD.TOPLFT.CLM

    887   0 0002C9  ECC7 0004                            LDB,B6   Y@SRD$,AUTO
          0 0002CB  E846 0015                            LDR,R6   21,B6
          0 0002CD  E946 0009                            CMR,R6   9,B6
          0 0002CF  0801 001B                            BAL      s:890,PREL
          0 0002D1  D847 0007                            LDR,R5   Y@CRT+1,AUTO
          0 0002D3  D946 000A                            CMR,R5   10,B6
          0 0002D5  0801 0015                            BAL      s:890,PREL
          0 0002D7  E946 000B                            CMR,R6   11,B6
          0 0002D9  0A01 0011                            BAG      s:890,PREL
          0 0002DB  D946 000C                            CMR,R5   12,B6
          0 0002DD  0A01 000D                            BAG      s:890,PREL
          0 0002DF  C847 0008                            LDR,R4   Y@NONBLN,AUTO
          0 0002E1  C946 000B                            CMR,R4   11,B6
          0 0002E3  0A01 0007                            BAG      s:890,PREL
          0 0002E5  B847 0009                            LDR,R3   Y@NONBLN+1,AUTO
          0 0002E7  B946 000C                            CMR,R3   12,B6
          0 0002E9  0A81 0010                            BALE     s:892,PREL

     1636      888    1        OR %KV_SRD.CRT.LIN>%KV_SRD.BTMRHT.LIN OR Y@CRT.CLM>%KV_SRD.BTMRHT.CLM
     1637      889    1        OR Y@NONBLN.LIN>%KV_SRD.BTMRHT.LIN OR Y@NONBLN.CLM>%KV_SRD.BTMRHT.CLM
     1638      890    1      THEN CALL KVC$FIXPST (%KV_MVD);

    890   0 0002EB  DC80 0000 0000  xsym                 LDB,B5   KV$PTR$
          0 0002EE  CCC5 0006                            LDB,B4   6,B5
          0 0002F0  CFC7 0046                            STB,B4   Y@WDT+4,AUTO
          0 0002F2  BBC7 0046                            LAB,B3   Y@WDT+4,AUTO
          0 0002F4  CBF0 0100                            LAB,B4   256,IMO
          0 0002F6  E380 0000 0000  xent                 LNJ,B6   KVC$FIXPST
          0 0002F9       0001                            DC       s:892,PREL

PL6.E3A0      #003=KVC$DRWBRD File=KVC$CNC.:E05TSI                               WED 07/30/97 01:57 Page:296
     1639      891
     1640      892    1      RETURN;

    892   0 0002FA  C380 0000 0000  xent                 LNJ,B4   X6A_ARET

     1641      893        %EJECT;
PL6.E3A0      #003=KVC$DRWBRD File=KVC$CNC.:E05TSI                               WED 07/30/97 01:57 Page:297
     1642      894        /*I* NAME: Y$HRZBRD.
     1643      895             Draws a horizontal border line.
     1644      896        */
     1645      897    1   Y$HRZBRD: PROC;

    897   0 0002FD  EFC7 0040            Y$HRZBRD        STB,B6   Y@VDH_OTPLCL+6,AUTO

     1646      898
     1647      899    2   DCL Y@WDT UBIN;
     1648      900
     1649      901    2      BUF.W(1) = ASCBIN(%KV_SRD.HBRDCHR);

    901   0 0002FF  DCC7 0004                            LDB,B5   Y@SRD$,AUTO
          0 000301  E845 001C                            LDR,R6   28,B5
          0 000303  E570 00FF                            AND,R6   255,IMO
          0 000305  EF47 0013                            STR,R6   BUFC+1,AUTO

     1650      902    2      GOTO CMN;

    902   0 000307  0F81 0006                            B        s:904,PREL

     1651      903    2   Y$HRZBLN: ENTRY;

    903   0 000309  EFC7 0040            Y$HRZBLN        STB,B6   Y@VDH_OTPLCL+6,AUTO

     1652      904    2      BUF.W(1) = ASCBIN(' ');

    904   0 00030B  6C20                                 LDV,R6   32
          0 00030C  EF47 0013                            STR,R6   BUFC+1,AUTO

    904   0                              CMN             null
     1653      905    2   CMN:;
     1654      906    2      BUF.B(2) = BUF.W(1);

    906   0 00030E  E7C7 0013            CMN             STH,R6   BUFC+1,AUTO

     1655      907    2      BUF.W(0) = BUF.W(1);
PL6.E3A0      #003=KVC$DRWBRD File=KVC$CNC.:E05TSI                               WED 07/30/97 01:57 Page:298

    907   0 000310  E847 0013                            LDR,R6   BUFC+1,AUTO
          0 000312  EF47 0012                            STR,R6   BUFC,AUTO

     1656      908    2      BUF.D(1) = BUF.D(0);

    908   0 000314  8CC7 0012                            LDI      BUFC,AUTO
          0 000316  8D47 0014                            SDI      BUFC+2,AUTO

     1657      909    2      SUBSTR(BUFC,8,72) = SUBSTR(BUFC,0,72);

    909   0 000318  AB87                                 LAB,B2   ,AUTO
          0 000319  2C24                                 LDV,R2   36
          0 00031A  6C48                                 LDV,R6   72
          0 00031B  BB87                                 LAB,B3   ,AUTO
          0 00031C  3C2C                                 LDV,R3   44
          0 00031D  0008                                 MMM

     1658      910    2      Y@WDT = %KV_SRD.SRDEND.CLM-%KV_SRD.ORG.CLM;

    910   0 00031E  ECC7 0004                            LDB,B6   Y@SRD$,AUTO
          0 000320  E846 001B                            LDR,R6   27,B6
          0 000322  E246 0008                            SUB,R6   8,B6
          0 000324  EF47 0042                            STR,R6   Y@WDT,AUTO

     1659      911    2      IF Y@WDT>80 THEN Y@VDH_OTPLCL.BFR_.BYTSIZ = 79;

    911   0 000326  6D50                                 CMV,R6   80
          0 000327  0381 0006                            BLE      s:912,PREL

    911   0 000329  5C4F                                 LDV,R5   79
          0 00032A  DF47 003E                            STR,R5   Y@VDH_OTPLCL+4,AUTO
          0 00032C  0F81 0003                            B        s:913,PREL

     1660      912    2      ELSE Y@VDH_OTPLCL.BFR_.BYTSIZ = Y@WDT;

    912   0 00032E  EF47 003E                            STR,R6   Y@VDH_OTPLCL+4,AUTO
PL6.E3A0      #003=KVC$DRWBRD File=KVC$CNC.:E05TSI                               WED 07/30/97 01:57 Page:299

     1661      913    3      IF %KV_SRD.VBRDCHR~=' ' AND %KV_SRD.VBRDSIZ>0 THEN DO;

    913   0 000330  D846 001D                            LDR,R5   29,B6
          0 000332  5008                                 SOL,R5   8
          0 000333  5068                                 SAR,R5   8
          0 000334  5D20                                 CMV,R5   32
          0 000335  0901 001F                            BE       s:918,PREL
          0 000337  82C6 001D                            LB,'0F00'X        29,B6
          0 000339       0F00
          0 00033A  0581 001A                            BBF      s:918,PREL

     1662      914    3         IF %KV_SRD.LFTBRD THEN BUF.C(0) = %KV_SRD.VBRDCHR;

    914   0 00033C  82C6 001D                            LB,'2000'X        29,B6
    914   0 00033E       2000
          0 00033F  0581 0003                            BBF      s:915,PREL

    914   0 000341  D7C7 0012                            STH,R5   BUFC,AUTO

     1663      915    3         IF %KV_SRD.RHTBRD THEN IF Y@WDT>80 THEN BUF.C(79) = %KV_SRD.VBRDCHR;

    915   0 000343  82C6 001D                            LB,'1000'X        29,B6
    915   0 000345       1000
          0 000346  0581 000E                            BBF      s:918,PREL

    915   0 000348  6D50                                 CMV,R6   80
          0 000349  0381 0008                            BLE      s:916,PREL

    915   0 00034B  C846 001D                            LDR,R4   29,B6
          0 00034D  CAC7 0039                            SRM,R4,'00FF'X    BUFC+39,AUTO
          0 00034F       00FF
          0 000350  0F81 0004                            B        s:918,PREL

     1664      916    3         ELSE BUF.C(Y@WDT-1) = %KV_SRD.VBRDCHR;

    916   0 000352  B856                                 LDR,R3   R6
PL6.E3A0      #003=KVC$DRWBRD File=KVC$CNC.:E05TSI                               WED 07/30/97 01:57 Page:300
          0 000353  3E23                                 ADV,R3   35
          0 000354  D7B7                                 STH,R5   ,AUTO,R3

     1665      917    3      END;

     1666      918    2      IF %KV_SRD.CRT.LIN=%KV_MRD.LNG AND %KV_MRD.AUTONL AND %KV_MRD.DEVSCROLL

    918   0 000355  DC80 0000 0000  xsym                 LDB,B5   KV$PTR$
          0 000358  CCC5 0008                            LDB,B4   8,B5
          0 00035A  D2C4 0015                            LLH,R5   21,B4
          0 00035C  D946 0015                            CMR,R5   21,B6
          0 00035E  0981 001C                            BNE      s:924,PREL
          0 000360  82C4 0017                            LB,'1000'X        23,B4
          0 000362       1000
          0 000363  0581 0017                            BBF      s:924,PREL
          0 000365  82C4 0017                            LB,'0200'X        23,B4
          0 000367       0200
          0 000368  0581 0012                            BBF      s:924,PREL
          0 00036A  C846 001B                            LDR,R4   27,B6
          0 00036C  4801 000E                            BLZ,R4   s:924,PREL
          0 00036E  C944 000B                            CMR,R4   11,B4
          0 000370  0981 000A                            BNE      s:924,PREL

     1667      919    3        AND %KV_SRD.SRDEND.CLM=%KV_MRD.WDT THEN DO;

     1668      920    3         BUF.C(79) = %KV_SRD.HBRDCHR;

    920   0 000372  B846 001C                            LDR,R3   28,B6
          0 000374  BAC7 0039                            SRM,R3,'00FF'X    BUFC+39,AUTO
          0 000376       00FF

     1669      921    3         Y@WDT = Y@WDT-1;

    921   0 000377  88C7 0042                            DEC      Y@WDT,AUTO

     1670      922    3         Y@VDH_OTPLCL.BFR_.BYTSIZ = Y@VDH_OTPLCL.BFR_.BYTSIZ-1;

PL6.E3A0      #003=KVC$DRWBRD File=KVC$CNC.:E05TSI                               WED 07/30/97 01:57 Page:301
    922   0 000379  88C7 003E                            DEC      Y@VDH_OTPLCL+4,AUTO

     1671      923    3      END;

     1672      924    2      CALL KVV$CALUSR_PST;

    924   0 00037B  CBF0 0000                            LAB,B4   0,IMO
          0 00037D  E380 0000 0000  xent                 LNJ,B6   KVV$CALUSR_PST
          0 000380       0001                            DC       s:925,PREL

     1673      925    2      CALL KVO$OTPLCL (Y@VDH_OTPLCL);

    925   0 000381  EBC7 003A                            LAB,B6   Y@VDH_OTPLCL,AUTO
          0 000383  EFC7 0046                            STB,B6   Y@WDT+4,AUTO
          0 000385  BBC7 0046                            LAB,B3   Y@WDT+4,AUTO
          0 000387  CBF0 0100                            LAB,B4   256,IMO
          0 000389  E380 0000 0000  xent                 LNJ,B6   KVO$OTPLCL
          0 00038C       0001                            DC       s:926,PREL

     1674      926    3      DO WHILE Y@WDT>Y@VDH_OTPLCL.BFR_.BYTSIZ;

    926   0 00038D  E847 0042                            LDR,R6   Y@WDT,AUTO
          0 00038F  E947 003E                            CMR,R6   Y@VDH_OTPLCL+4,AUTO
          0 000391  0381 002B                            BLE      s:937,PREL

     1675      927    3         Y@WDT = Y@WDT-Y@VDH_OTPLCL.BFR_.BYTSIZ;

    927   0 000393  E847 0042                            LDR,R6   Y@WDT,AUTO
          0 000395  E247 003E                            SUB,R6   Y@VDH_OTPLCL+4,AUTO
          0 000397  EF47 0042                            STR,R6   Y@WDT,AUTO

     1676      928    4         IF Y@WDT>79 THEN DO;

    928   0 000399  6D4F                                 CMV,R6   79
          0 00039A  0381 0009                            BLE      s:932,PREL

     1677      929    4            Y@VDH_OTPLCL.BFR_.BYTX = 1;
PL6.E3A0      #003=KVC$DRWBRD File=KVC$CNC.:E05TSI                               WED 07/30/97 01:57 Page:302

    929   0 00039C  5C01                                 LDV,R5   1
          0 00039D  DF47 003D                            STR,R5   Y@VDH_OTPLCL+3,AUTO

     1678      930    4            Y@VDH_OTPLCL.BFR_.BYTSIZ = 78;

    930   0 00039F  4C4E                                 LDV,R4   78
          0 0003A0  CF47 003E                            STR,R4   Y@VDH_OTPLCL+4,AUTO

     1679      931    4         END; ELSE DO;

    931   0 0003A2  0F81 0009                            B        s:935,PREL

     1680      932    4            Y@VDH_OTPLCL.BFR_.BYTX = 80-Y@WDT;

    932   0 0003A4  8256                                 NEG      R6
          0 0003A5  6E50                                 ADV,R6   80
          0 0003A6  EF47 003D                            STR,R6   Y@VDH_OTPLCL+3,AUTO

     1681      933    4            Y@VDH_OTPLCL.BFR_.BYTSIZ = Y@WDT;

    933   0 0003A8  D847 0042                            LDR,R5   Y@WDT,AUTO
          0 0003AA  DF47 003E                            STR,R5   Y@VDH_OTPLCL+4,AUTO

     1682      934    4         END;

     1683      935    3         CALL KVO$OTPLCL (Y@VDH_OTPLCL);

    935   0 0003AC  EBC7 003A                            LAB,B6   Y@VDH_OTPLCL,AUTO
          0 0003AE  EFC7 0046                            STB,B6   Y@WDT+4,AUTO
          0 0003B0  BBC7 0046                            LAB,B3   Y@WDT+4,AUTO
          0 0003B2  CBF0 0100                            LAB,B4   256,IMO
          0 0003B4  E380 0000 0000  xent                 LNJ,B6   KVO$OTPLCL
          0 0003B7       0001                            DC       s:936,PREL

     1684      936    3      END;

PL6.E3A0      #003=KVC$DRWBRD File=KVC$CNC.:E05TSI                               WED 07/30/97 01:57 Page:303
    936   0 0003B8  E847 0042                            LDR,R6   Y@WDT,AUTO
          0 0003BA  E947 003E                            CMR,R6   Y@VDH_OTPLCL+4,AUTO
          0 0003BC  0357                                 BG       s:927,SPREL

     1685      937    2      CALL Y$PSTSKP;

    937   0 0003BD  E3C0 000E                            LNJ,B6   s:0,PREL
          0 0003BF       0001                            DC       s:938,PREL

     1686      938    2      %KV_SRD.CRT.CLM = %KV_SRD.TOPLFT.CLM;

    938   0 0003C0  ECC7 0004                            LDB,B6   Y@SRD$,AUTO
          0 0003C2  E846 000A                            LDR,R6   10,B6
          0 0003C4  EF46 0016                            STR,R6   22,B6

     1687      939    2      %KV_SRD.CRT.LIN = %KV_SRD.CRT.LIN+1;

    939   0 0003C6  8AC6 0015                            INC      21,B6

     1688      940    2      RETURN;

    940   0 0003C8  ECC7 0040                            LDB,B6   Y@VDH_OTPLCL+6,AUTO
          0 0003CA  C3C6 0001                            LNJ,B4   1,B6

     1689      941    2   END Y$HRZBRD;
     1690      942        %EJECT;
PL6.E3A0      #003=KVC$DRWBRD File=KVC$CNC.:E05TSI                               WED 07/30/97 01:57 Page:304
     1691      943        /*I* NAME: Y$PSTSKP.
     1692      944             DESCRIPTION: Sets position-pending - skip-mode.  Finishes any pending
     1693      945             blanking first.
     1694      946        */
     1695      947    1   Y$PSTSKP: PROC;

    947   0 0003CC  EFC7 0044            Y$PSTSKP        STB,B6   Y@WDT+2,AUTO

     1696      948    2      IF %KV_VDI.OTPCNDPND.PST=%KV_PHSPSTMOD_BLN THEN CALL KVV$CALUSR_PST;

    948   0 0003CE  DC80 0000 0000  xsym                 LDB,B5   KV$PTR$
          0 0003D1  CC85                                 LDB,B4   ,B5
          0 0003D2  E844 001A                            LDR,R6   26,B4
          0 0003D4  6D02                                 CMV,R6   2
          0 0003D5  0981 0007                            BNE      s:949,PREL

    948   0 0003D7  CBF0 0000                            LAB,B4   0,IMO
          0 0003D9  E380 0000 0000  xent                 LNJ,B6   KVV$CALUSR_PST
          0 0003DC       0001                            DC       s:949,PREL

     1697      949    2      %KV_VDI.OTPCNDPND.PST = %KV_PHSPSTMOD_SKP;

    949   0 0003DD  EC80 0000 0000  xsym                 LDB,B6   KV$PTR$
          0 0003E0  DC86                                 LDB,B5   ,B6
          0 0003E1  6C01                                 LDV,R6   1
          0 0003E2  EF45 001A                            STR,R6   26,B5

     1698      950    2      RETURN;

    950   0 0003E4  ECC7 0044                            LDB,B6   Y@WDT+2,AUTO
          0 0003E6  C3C6 0001                            LNJ,B4   1,B6
     1699      951    2   END Y$PSTSKP;
     1700      952    1   END KVC$DRWBRD;

PL6.E3A0      #003=KVC$DRWBRD File=KVC$CNC.:E05TSI                               WED 07/30/97 01:57 Page:305
--  Include file information  --

   KV_PRMID_E.:E05TOU  was found in the system file and is never referenced.
   KV_GLBCNS_E.:E05TOU  was found in the system file and is referenced.
   KV$VDO.:E05TOU  was found in the system file and is never referenced.
   KV$VDH.:E05TOU  was found in the system file and is referenced.
   KV$USR.:E05TOU  was found in the system file and is never referenced.
   KV$SND.:E05TOU  was found in the system file and is never referenced.
   KV$INT.:E05TOU  was found in the system file and is referenced.
   KV$GLBCTX.:E05TOU  was found in the system file and is referenced.
   KV$GLB.:E05TOU  was found in the system file and is referenced.
   G_LCP6_E.:E05TOU  was found in the system file and is never referenced.
   GT_LCP6_M.:E05TOU  was found in the system file and is never referenced.
   KI_CP6.:E05TOU  was found in the system file and is never referenced.
   GF_LCP6_M.:E05TOU  was found in the system file and is never referenced.
   GM_LCP6_M.:E05TOU  was found in the system file and is never referenced.
   GU_LCP6_M.:E05TOU  was found in the system file and is never referenced.
   GJ_LCP6_M.:E05TOU  was found in the system file and is never referenced.
   GH_LCP6_M.:E05TOU  was found in the system file and is never referenced.
      No diagnostics issued in procedure KVC$DRWBRD.
PL6.E3A0      #003=KVC$DRWBRD File=KVC$CNC.:E05TSI                               WED 07/30/97 01:57 Page:306

 **** Variables and constants ****

  ****  Auto variables  ****

  ****  Scalars and arrays  ****
HexLoc.c.b A Datatyp(siz) R M Lvl/name                 HexLoc.c.b A Datatyp(siz) R M Lvl/name

    12-0-0/w STRC(640)   r     1 BUF                       12-0-0/w CHAR(80)    r     1 BUFC
    11-0-0/w SBIN(16)    r     1 OLDBTM                     F-0-0/w SBIN(16)    r     1 OLDLFT
    10-0-0/w SBIN(16)    r     1 OLDRHT                     E-0-0/w SBIN(16)    r     1 OLDTOP
     D-0-0/w SBIN(16)    r     1 Y@BTMLIN                   6-0-0/w STRC(32)    r     1 Y@CRT
     B-0-0/w SBIN(16)    r     1 Y@DVCLINBIS                8-0-0/w STRC(32)    r     1 Y@NONBLN
     A-0-0/b BIT         r     1 Y@SCROLL                   4-0-0/w PTR         r     1 Y@SRD$
     C-0-0/w SBIN(16)    r     1 Y@TOPLIN                  3A-0-0/w STRC(80)    r     1 Y@VDH_OTPLCL
    42-0-0/w UBIN(16)    r     1 Y@WDT

  ****  SYMREF variables  ****

  ****  Scalars and arrays  ****
HexLoc.c.b A Datatyp(siz) R M Lvl/name                 HexLoc.c.b A Datatyp(siz) R M Lvl/name

     0-0-0/w PTR         r     1 KV$PTR$                    0-0-0/w UBIN(16)    r     1 KV_USR_SETATR
     0-0-0/w STRC(80)    r     1 KV_VDH_OTPLCL

  ****  BASED and DCB variables  ****

  ****  Scalars and arrays  ****
HexLoc.c.b A Datatyp(siz) R M Lvl/name                 HexLoc.c.b A Datatyp(siz) R M Lvl/name

     0-0-0/w STRC(128)   r     1 KV$LINLST                  0-0-0/w STRC(512)   r     1 KV$MRD
     0-0-0/w STRC(512)   r     1 KV$MVD                     0-0-0/w STRC(480)   r     1 KV$PTR
     0-0-0/w STRC(496)   r     1 KV$SRD                     0-0-0/w STRC(512)   r     1 KV$VDI


   Procedure KVC$DRWBRD requires 1000 words for executable code.
   Procedure KVC$DRWBRD requires 72 words of local(AUTO) storage.
PL6.E3A0      #003=KVC$DRWBRD File=KVC$CNC.:E05TSI                               WED 07/30/97 01:57 Page:307

    No errors detected in file KVC$CNC.:E05TSI    .
PL6.E3A0      #003=KVC$DRWBRD File=KVC$CNC.:E05TSI                               WED 07/30/97 01:57 Page:308
          *** CROSS REFERENCE LISTING ***
**     DENOTES     IDENTIFIER DEFINITION
<<                 IDENTIFIER'S VALUE SET
>>                 IDENTIFIER'S VALUE USED
<>                 IDENTIFIER SET AND/OR USED
--                 IDENTIFIER REFERENCED
PL6.E3A0      #003=KVC$DRWBRD File=KVC$CNC.:E05TSI                               WED 07/30/97 01:57 Page:309
          MINI XREF LISTING

BUF
       625**DCL       817--ASSIGN
BUF.B
       627**DCL       833<<ASSIGN    906<<ASSIGN
BUF.C
       626**DCL       627--REDEF     628--REDEF     629--REDEF     834<<ASSIGN    914<<ASSIGN    915<<ASSIGN
       916<<ASSIGN    920<<ASSIGN
BUF.D
       629**DCL       908<<ASSIGN    908>>ASSIGN
BUF.W
       628**DCL       901<<ASSIGN    904<<ASSIGN    906>>ASSIGN    907<<ASSIGN    907>>ASSIGN
BUFC
       624**DCL       625--REDEF     832<<ASSIGN    909<<ASSIGN    909>>ASSIGN
CMN IN PROCEDURE Y$HRZBRD
       904**LABEL     902--GOTO
KV$LINLST.FRMDSP
        55**DCL       785>>IF
KV$MRD.AUTONL
        89**DCL       859>>IF        918>>IF
KV$MRD.DCLATRWHNOTP
        94**DCL       814>>IF
KV$MRD.DEVSCROLL
        90**DCL       859>>IF        918>>IF
KV$MRD.DVCATR
       103**DCL       814>>IF
KV$MRD.LNG
        85**DCL       859>>IF        918>>IF
KV$MRD.WDT
        82**DCL       859>>IF        918>>IF
KV$MVD
       128**DCL       807<>CALL      808<>CALL      886<>CALL      890<>CALL
KV$MVD.LINLST$
PL6.E3A0      #003=KVC$DRWBRD File=KVC$CNC.:E05TSI                               WED 07/30/97 01:57 Page:310
       131**DCL       785>>IF
KV$MVD.ORG
       133**DCL       780>>IF
KV$PTR.INPCNDPND
       177**DCL       186--REDEF     190--REDEF
KV$PTR.LINLST$
       173**DCL       174--REDEF
KV$PTR.MRD$
       172**DCL       814>>IF        814>>IF        859>>IF        859>>IF        859>>IF        859>>IF
       918>>IF        918>>IF        918>>IF        918>>IF
KV$PTR.MVD$
       172**DCL       780>>IF        785>>IF        807>>CALL      808>>CALL      886>>CALL      890>>CALL
KV$PTR.SRD$
       173**DCL       778>>ASSIGN
KV$PTR.VDI$
       171**DCL       852>>ASSIGN    869>>ASSIGN    948>>IF        949>>ASSIGN
KV$PTR$
       165**DCL       171--IMP-PTR   778>>ASSIGN    780>>IF        785>>IF        807>>CALL      808>>CALL
       814>>IF        814>>IF        852>>ASSIGN    859>>IF        859>>IF        859>>IF        859>>IF
       869>>ASSIGN    886>>CALL      890>>CALL      918>>IF        918>>IF        918>>IF        918>>IF
       948>>IF        949>>ASSIGN
KV$SRD.BRDEXS
       321**DCL       797<<ASSIGN    804<<ASSIGN
KV$SRD.BRDUPD
       322**DCL       779<<ASSIGN
KV$SRD.BTMBRD
       463**DCL       783<<ASSIGN    795>>IF        800>>IF
KV$SRD.BTMRHT
       310**DCL       315--REDEF     792<<ASSIGN
KV$SRD.BTMRHT.CLM
       312**DCL       789>>ASSIGN    829<<ASSIGN    829>>ASSIGN    854>>ASSIGN    877<<ASSIGN    878<<ASSIGN
       882>>IF        885>>ASSIGN    887>>IF        887>>IF
KV$SRD.BTMRHT.LIN
       312**DCL       790>>ASSIGN    794>>ASSIGN    880<<ASSIGN    881>>ASSIGN    887>>IF        887>>IF
KV$SRD.CRT
       386**DCL       391--REDEF     820>>ASSIGN    870<<ASSIGN
PL6.E3A0      #003=KVC$DRWBRD File=KVC$CNC.:E05TSI                               WED 07/30/97 01:57 Page:311
KV$SRD.CRT.CLM
       388**DCL       851>>IF        854<<ASSIGN    857<<ASSIGN    857>>ASSIGN    865<<ASSIGN    938<<ASSIGN
KV$SRD.CRT.LIN
       388**DCL       808>>IF        830>>IF        837>>DOWHILE   839>>IF        839>>IF        841>>IF
       850>>IF        850>>IF        859>>IF        866<<ASSIGN    866>>ASSIGN    887>>IF        887>>IF
       918>>IF        939<<ASSIGN    939>>ASSIGN
KV$SRD.CRT_PST
       391**DCL       828<<ASSIGN
KV$SRD.DVCLINBIS
       428**DCL       822>>ASSIGN    824<<ASSIGN    873<<ASSIGN
KV$SRD.FLDEND
       350**DCL       355--REDEF
KV$SRD.FLDEND.CLM
       352**DCL       825<<ASSIGN
KV$SRD.HBRDCHR
       464**DCL       901>>ASSIGN    920>>ASSIGN
KV$SRD.HBRDSIZ
       464**DCL       795>>IF        799>>ASSIGN    800>>ASSIGN
KV$SRD.HI_NONBLN
       420**DCL       425--REDEF     819>>ASSIGN    826<<ASSIGN    871<<ASSIGN
KV$SRD.LFTBRD
       465**DCL       782<<ASSIGN    795>>IF        801>>IF        845>>IF        874>>IF        914>>IF
KV$SRD.LFTMRGCLM
       320**DCL       788>>ASSIGN    882>>IF        882>>IF        884>>ASSIGN
KV$SRD.LNG
       318**DCL       806<<ASSIGN    881<<ASSIGN
KV$SRD.ORG
       242**DCL       247--REDEF
KV$SRD.ORG.CLM
       244**DCL       788>>ASSIGN    805>>ASSIGN    812>>IF        835>>ASSIGN    910>>ASSIGN
KV$SRD.ORG.LIN
       244**DCL       787>>ASSIGN    806>>ASSIGN    812>>IF
KV$SRD.ORG_PST
       247**DCL       791>>ASSIGN
KV$SRD.RHTBRD
       465**DCL       784<<ASSIGN    795>>IF        802>>IF        855>>IF        876>>IF        915>>IF
PL6.E3A0      #003=KVC$DRWBRD File=KVC$CNC.:E05TSI                               WED 07/30/97 01:57 Page:312
KV$SRD.SCROLL
       319**DCL       821>>ASSIGN    823<<ASSIGN    872<<ASSIGN
KV$SRD.SRDEND
       455**DCL       460--REDEF     792>>ASSIGN    826>>ASSIGN
KV$SRD.SRDEND.CLM
       457**DCL       789>>ASSIGN    805>>ASSIGN    812>>IF        835>>ASSIGN    859>>IF        877>>ASSIGN
       878>>ASSIGN    910>>ASSIGN    918>>IF
KV$SRD.SRDEND.LIN
       457**DCL       790>>ASSIGN    806>>ASSIGN    812>>IF        837>>DOWHILE   839>>IF
KV$SRD.TOPBRD
       463**DCL       781<<ASSIGN    795>>IF        799>>IF
KV$SRD.TOPLFT
       276**DCL       281--REDEF
KV$SRD.TOPLFT.CLM
       278**DCL       788>>ASSIGN    851>>IF        865>>ASSIGN    875<<ASSIGN    875>>ASSIGN    882>>IF
       884<<ASSIGN    884>>ASSIGN    885>>ASSIGN    887>>IF        938>>ASSIGN
KV$SRD.TOPLFT.LIN
       278**DCL       787>>ASSIGN    793>>ASSIGN    879<<ASSIGN    881>>ASSIGN    887>>IF
KV$SRD.TOPLFT_PST
       281**DCL       791<<ASSIGN    828>>ASSIGN
KV$SRD.UNKRGN
       322**DCL       798<<ASSIGN
KV$SRD.VBRDCHR
       465**DCL       833>>ASSIGN    834>>ASSIGN    913>>IF        914>>ASSIGN    915>>ASSIGN    916>>ASSIGN
KV$SRD.VBRDSIZ
       465**DCL       795>>IF        835>>ASSIGN    875>>ASSIGN    877>>ASSIGN    913>>IF
KV$SRD.WDT
       318**DCL       805<<ASSIGN    885<<ASSIGN
KV$VDI.OTPCNDPND.PST
       526**DCL       852<<ASSIGN    869<<ASSIGN    948>>IF        949<<ASSIGN
KVC$FIXPST
       541**DCL-ENT   808--CALL      890--CALL
KVC$FIXWDT
       542**DCL-ENT   807--CALL      886--CALL
KVO$OTPLCL
       543**DCL-ENT   847--CALL      862--CALL      925--CALL      935--CALL
PL6.E3A0      #003=KVC$DRWBRD File=KVC$CNC.:E05TSI                               WED 07/30/97 01:57 Page:313
KVV$CALUSR
       544**DCL-ENT   815--CALL
KVV$CALUSR_PST
       545**DCL-ENT   851--CALL      924--CALL      948--CALL
KV_USR_SETATR
       776**DCL       815<>CALL
KV_VDH_OTPLCL
       739**DCL       816>>ASSIGN
OLDBTM
       623**DCL       790<<ASSIGN    809>>IF        839>>IF
OLDLFT
       621**DCL       788<<ASSIGN    801<<ASSIGN    809>>IF        833>>IF        845>>IF
OLDRHT
       622**DCL       789<<ASSIGN    802<<ASSIGN    809>>IF        834>>IF        855>>IF
OLDTOP
       620**DCL       787<<ASSIGN    809>>IF        831>>IF
Y$HRZBLN IN PROCEDURE Y$HRZBRD
       903**ENTRY     831--CALL      842--CALL
Y$HRZBRD
       897**PROC      830--CALL      841--CALL
Y$PSTSKP
       947**PROC      827--CALL      848--CALL      864--CALL      937--CALL
Y@BTMLIN
       619**DCL       794<<ASSIGN    800<<ASSIGN    800>>ASSIGN    839>>IF        841>>IF        850>>IF
       880>>ASSIGN
Y@CRT
       572**DCL       820<<ASSIGN    870>>ASSIGN
Y@CRT.CLM
       576**DCL       887>>IF        887>>IF
Y@DVCLINBIS
       617**DCL       822<<ASSIGN    873>>ASSIGN
Y@NONBLN
       606**DCL       819<<ASSIGN    871>>ASSIGN
Y@NONBLN.CLM
       610**DCL       887>>IF
Y@NONBLN.LIN
PL6.E3A0      #003=KVC$DRWBRD File=KVC$CNC.:E05TSI                               WED 07/30/97 01:57 Page:314
       610**DCL       887>>IF
Y@SCROLL
       616**DCL       821<<ASSIGN    872>>ASSIGN
Y@SRD$
       547**DCL       214--IMP-PTR   778<<ASSIGN    779>>ASSIGN    781>>ASSIGN    782>>ASSIGN    783>>ASSIGN
       784>>ASSIGN    787>>ASSIGN    787>>ASSIGN    788>>ASSIGN    788>>ASSIGN    788>>ASSIGN    789>>ASSIGN
       789>>ASSIGN    790>>ASSIGN    790>>ASSIGN    791>>ASSIGN    791>>ASSIGN    792>>ASSIGN    792>>ASSIGN
       793>>ASSIGN    794>>ASSIGN    795>>IF        795>>IF        795>>IF        795>>IF        795>>IF
       795>>IF        797>>ASSIGN    798>>ASSIGN    799>>IF        799>>ASSIGN    800>>IF        800>>ASSIGN
       801>>IF        802>>IF        804>>ASSIGN    805>>ASSIGN    805>>ASSIGN    805>>ASSIGN    806>>ASSIGN
       806>>ASSIGN    806>>ASSIGN    808>>IF        812>>IF        812>>IF        812>>IF        812>>IF
       819>>ASSIGN    820>>ASSIGN    821>>ASSIGN    822>>ASSIGN    823>>ASSIGN    824>>ASSIGN    825>>ASSIGN
       826>>ASSIGN    826>>ASSIGN    828>>ASSIGN    828>>ASSIGN    829>>ASSIGN    829>>ASSIGN    830>>IF
       833>>ASSIGN    834>>ASSIGN    835>>ASSIGN    835>>ASSIGN    835>>ASSIGN    837>>DOWHILE   837>>DOWHILE
       839>>IF        839>>IF        839>>IF        841>>IF        845>>IF        850>>IF        850>>IF
       851>>IF        851>>IF        854>>ASSIGN    854>>ASSIGN    855>>IF        857>>ASSIGN    857>>ASSIGN
       859>>IF        859>>IF        865>>ASSIGN    865>>ASSIGN    866>>ASSIGN    866>>ASSIGN    870>>ASSIGN
       871>>ASSIGN    872>>ASSIGN    873>>ASSIGN    874>>IF        875>>ASSIGN    875>>ASSIGN    875>>ASSIGN
       876>>IF        877>>ASSIGN    877>>ASSIGN    877>>ASSIGN    878>>ASSIGN    878>>ASSIGN    879>>ASSIGN
       880>>ASSIGN    881>>ASSIGN    881>>ASSIGN    881>>ASSIGN    882>>IF        882>>IF        882>>IF
       882>>IF        884>>ASSIGN    884>>ASSIGN    884>>ASSIGN    885>>ASSIGN    885>>ASSIGN    885>>ASSIGN
       887>>IF        887>>IF        887>>IF        887>>IF        887>>IF        887>>IF        887>>IF
       887>>IF        901>>ASSIGN    910>>ASSIGN    910>>ASSIGN    913>>IF        913>>IF        914>>IF
       914>>ASSIGN    915>>IF        915>>ASSIGN    916>>ASSIGN    918>>IF        918>>IF        920>>ASSIGN
       938>>ASSIGN    938>>ASSIGN    939>>ASSIGN    939>>ASSIGN
Y@TOPLIN
       618**DCL       793<<ASSIGN    799<<ASSIGN    799>>ASSIGN    830>>IF        850>>IF        879>>ASSIGN
Y@VDH_OTPLCL
       666**DCL       816<<ASSIGN    847<>CALL      862<>CALL      925<>CALL      935<>CALL
Y@VDH_OTPLCL.BFR_.ADR$
       699**DCL       817<<ASSIGN
Y@VDH_OTPLCL.BFR_.BYTSIZ
       699**DCL       835<<ASSIGN    845>>IF        855>>IF        857>>ASSIGN    858>>ASSIGN    861<<ASSIGN
       861>>ASSIGN    911<<ASSIGN    912<<ASSIGN    922<<ASSIGN    922>>ASSIGN    926>>DOWHILE   927>>ASSIGN
       930<<ASSIGN    933<<ASSIGN
Y@VDH_OTPLCL.BFR_.BYTX
PL6.E3A0      #003=KVC$DRWBRD File=KVC$CNC.:E05TSI                               WED 07/30/97 01:57 Page:315
       699**DCL       838<<ASSIGN    858<<ASSIGN    929<<ASSIGN    932<<ASSIGN
Y@VDH_OTPLCL.NONVRT
       672**DCL       818<<ASSIGN
Y@WDT IN PROCEDURE Y$HRZBRD
       899**DCL       910<<ASSIGN    911>>IF        912>>ASSIGN    915>>IF        916>>ASSIGN    921<<ASSIGN
       921>>ASSIGN    926>>DOWHILE   927<<ASSIGN    927>>ASSIGN    928>>IF        932>>ASSIGN    933>>ASSIGN
