VERSION E05

PL6.E3A0      #001=KVC$CNC File=KVC$CNC.:E05TSI                                  WED 07/30/97 01:54 Page:1
        1        1        /*M* KVC$CNC - Initialize VDI context                                         */
        2        2        /*T***********************************************************/
        3        3        /*T*                                                         */
        4        4        /*T* Copyright (c) Bull HN Information Systems Inc., 1997    */
        5        5        /*T*                                                         */
        6        6        /*T***********************************************************/
        7        7        /*X*     NSO,PLM=3,SQB=Y,AND=Y,ENI=0,SDI=3,MCL=10,CSI=0,ECI=0,IND=0,IAD=3 */
        8        8        KVC$CNC: PROC (PRM) ALTRET;
        9        9
       10       10        /*F* NAME: KVC$CNC                                                            */
       11       11        /*F*                                                                          */
       12       12        /*F* KVC$CNC initializes the context needed for a VDH user. In its            */
       13       13        /*F* current state it will set up the entire context, but in later            */
       14       14        /*F* releases there will be seperate calls to initialize different            */
       15       15        /*F* sections of the context.                                                 */
       16       16
       17       17        %INCLUDE F_ERRORS_C;
       18      257        %INCLUDE KL_AFCN_C;
       19      358        %INCLUDE KL_MACRO_C;
       20     3710        %INCLUDE KV_ERRORS_C;
       21     3770 S      %INCLUDE KV_GLBCNS_E;
       22     3771        %KV_STRTYP_E;
       23     3809        %KV_VDH_EVT_ID_E;
       24     3815        %KV_USR_EVT_ID_E;
       25     3835        %INCLUDE KV$BPC;
       26     3864 S      %INCLUDE KV$GLBCTX;
       27     3865 S      %INCLUDE KV$GLB;
       28     3866        %INCLUDE KV$INPFNC;
       29     4425 S      %INCLUDE KV$INT;
       30     4426 S      %INCLUDE KV$SND;
       31     4427        %KV_SND_FNC_E;
       32     4443 S      %INCLUDE KV$VDH;
       33     4444 S      %INCLUDE KV$VDO;
       34     4445 S      %INCLUDE KV$USR;
       35     4446        %INCLUDE KV_INT_M;
       36     4589 S      %INCLUDE KV_PRMID_E;
       37     4590        %INCLUDE LCP_6;
PL6.E3A0      #001=KVC$CNC File=KVC$CNC.:E05TSI                                  WED 07/30/97 01:54 Page:2
       38     4781        %INCLUDE K_ID_E;
       39     4831        %K#ENTID_E;
       40     4850        %K#LYRID_E;
       41     4857        %KV_PRMID_E;
       42     5013        %KV_BFRRLSDSP_E;
       43     5019        %KV#VD_ORG_E;
       44     5027        %KV_SCP_E;
       45     5037        %KV_PHSPSTMOD_E;
       46     5044
       47     5045        %KV$BPC (STCLASS="BASED(KV_B_POOL$)");
       48     5067        %KV$INPFNCTBL;
       49     5151        %KV$LIN;
       50     5175        %KV$LIN (NAME=KV_LIN, STCLASS=SYMREF READONLY);
       51     5199        %KV$LINLST (STCLASS="BASED(KV@VDH_GETBFR.BFR$)");
       52     5226        %EQU KV_LINLST=CHARTEXT('KV$LINLST');
       53     5227        %KV$MRD;                                /*  MASTER REAL DEVICE CONTEXT BLOCK  */
       54     5274        %KV$PTR;                                /*  VDH POINTER BLOCK                 */
       55     5317        %KV$RCRLST (STCLASS="BASED(KV@VDH_GETBFR.BFR$)");
       56     5353        %EQU KV_RCRLST=CHARTEXT('KV$RCRLST');
       57     5354        %KV$RCRLST (NAME=KV_RCRLST, STCLASS=CONSTANT SYMDEF);
       58     5390        %KV$VDI;                                /*  VDI CONTEXT BLOCK                 */
       59     5461        %KV$SSN;                                /*  SESSION BLOCK                     */
       60     5540        %KV$STR;                                /*  STREAM CONTEXT BLOCK              */
       61     5627        %KV$STT;
       62     6021        %KV$MVD;                                /*  MASTER VIRTUAL DEVICE             */
       63     6065        %KV$SRD;                                /*  SECONDARY REAL DEVICE             */
       64     6340        %KV$TRCBFR;
       65     6398        %KV$TRCENT;
       66     6427        %KV$USRPRM;
       67     6478        %KV$SHRBFR;                             /*  SHARED BUFFER FORMAT              */
       68     6510    1   DCL KV_ACTCHRTBLNRM UBIN SYMREF;
       69     6511
       70     6512    1   DCL Y$PTR$ PTR BASED;
       71     6513
       72     6514    1   DCL CHR8 CHAR(8) BASED;
       73     6515    1   DCL KV_SSNCNT UBIN SYMREF;
       74     6516    1   DCL KV_SSNMAX UBIN SYMREF;
PL6.E3A0      #001=KVC$CNC File=KVC$CNC.:E05TSI                                  WED 07/30/97 01:54 Page:3
       75     6517
       76     6518    1   DCL KVC$ADJWND ENTRY(1) ALTRET;
       77     6519    1   DCL KVC$DRWBRD ENTRY;
       78     6520    1   DCL KVC$RLSFRM ENTRY;
       79     6521    1   DCL KVC$RLSSSNNO_CNC ENTRY;
       80     6522    1   DCL KVC$RLSMVD ENTRY;
       81     6523    1   DCL KVC$RLSSTR ENTRY;
       82     6524    1   DCL KVI$NEWINPFNCTBL ENTRY;
       83     6525    1   DCL KVO$ERSSRD ENTRY;
       84     6526    1   DCL KVP$SETPRM ENTRY(1);
       85     6527    1   DCL KVS$GETBFR ENTRY(1) ALTRET;
       86     6528    1   DCL KVS$RLSBFR ENTRY(1) ALTRET;
       87     6529    1   DCL KVV$CALUSR_EVT ENTRY(1) ALTRET;
       88     6530    1   DCL KVV$CALUSR_PST ENTRY ALTRET;
       89     6531    1   DCL KVM$SND ENTRY(1) ALTRET;
       90     6532
       91     6533    1   DCL KV_B_POOL$ PTR SYMREF;
       92     6534        %KV$VDH_GETBFR(NAME = KV_VDH_GETBFR, STCLASS = "SYMREF READONLY");
       93     6599        %KV$VDH_RLSBFR(NAME = KV_VDH_RLSBFR, STCLASS = "SYMREF READONLY");
       94     6635        %KV$VDH_SETPRM(NAME = KV_VDH_SETPRM, STCLASS = "SYMREF READONLY");
       95     6697        %KV$SND_CNC (NAME=KV_SND_CNC, STCLASS=SYMREF READONLY);
       96     6785
       97     6786        /* LOCAL VARIABLES                                                            */
       98     6787
       99     6788    1   DCL PRM CHAR(PRM_STRID);                /* Dummy parameter for redefs         */
      100     6789        %KV$VDH_CNC (NAME=PRM_VDH_CNC, STCLASS=REDEF PRM); /*  VDH CONNECT PARAMETER  */
      101     6881    1   DCL PRM_STRID REDEF PRM UBIN;
      102     6882        %VLP_WINDOW (FPTN=PRM_WINDOW, STCLASS=REDEF PRM);
      103     6926        %SET KV_VDO_FNC_OPNSTR = 0;
      104     6927        %KV$VDO_OPNSTR (NAME=PRM_VDO_OPNSTR, STCLASS=REDEF PRM);
      105     6970        %KV$VDH_GETBFR(NAME = KV@VDH_GETBFR, STCLASS = AUTO);
      106     7035        %KV$VDH_RLSBFR;
      107     7071        %EQU VDH_RLSBFR = CHARTEXT('ADDR(KV@VDH_GETBFR)->KV$VDH_RLSBFR');
      108     7072        %KV$VDH_SETPRM(NAME = KV@VDH_SETPRM, STCLASS = AUTO);
      109     7134        %KV$SND_CNC(NAME = KV@SND_CNC, STCLASS = AUTO);
      110     7222    1   DCL ORGPTR$ PTR;                        /* Original KV$PTR$                   */
      111     7223    1   DCL TEMP UBIN;
PL6.E3A0      #001=KVC$CNC File=KVC$CNC.:E05TSI                                  WED 07/30/97 01:54 Page:4
      112     7224    1   DCL STEMP REDEF TEMP SBIN;
      113     7225        %EJECT;
PL6.E3A0      #001=KVC$CNC File=KVC$CNC.:E05TSI                                  WED 07/30/97 01:54 Page:5
      114     7226
      115     7227        /* First check that there's a bit of memory left. */
      116     7228    1      TEMP = KV$BPC.USE/16;
      117     7229    1      IF KV_SSNCNT>0 THEN TEMP=TEMP/KV_SSNCNT;
      118     7230    1      IF KV$BPC.TOT-KV$BPC.USE<64*TEMP THEN GOTO CANTGETCTX;
      119     7231
      120     7232    1      ORGPTR$ = KV$PTR$;
      121     7233    1      KV@VDH_GETBFR = KV_VDH_GETBFR;
      122     7234    1      KV@VDH_GETBFR.SCRNO_MMR = '0'B;
      123     7235
      124     7236        /* Get KV$PTR for session, unless this is the first.                          */
      125     7237    2      IF KV$PTR.SSN$~=ADDR(NIL) THEN DO;
      126     7238    3         IF %KV_VDI.SSNCNT=KV_SSNMAX THEN DO;
      127     7239    3            IF KV$PTR.STR$~=ADDR(NIL)
      128     7240    3            THEN %KV_STR.ERR.COD = %E$TOOMANYSSNS;
      129     7241        /*E* ERROR: KVC-E$TOOMANYSSNS-C
      130     7242             MESSAGE: Too many sessions on the device to start another.
      131     7243        */
      132     7244    3            GOTO ERRXIT;
      133     7245    3         END;
      134     7246    2         KV@VDH_GETBFR.STRTYP = %KV_STRTYP_PTR;
      135     7247    2         CALL KVS$GETBFR(KV@VDH_GETBFR) ALTRET(CANTGETCTX);
      136     7248
      137     7249        /* Set up the new session's synchronous KV$PTR.                               */
      138     7250
      139     7251    2         KV$PTR$ = KV@VDH_GETBFR.BFR$;
      140     7252    2         KV$PTR.VDI$ = ORGPTR$->KV$PTR.VDI$;
      141     7253    2         CALL CALUSRGETSTR;
      142     7254    2      END;
      143     7255
      144     7256        /* Get session context.                                                       */
      145     7257
      146     7258    1      KV@VDH_GETBFR.STRTYP = %KV_STRTYP_SSN;
      147     7259    2      CALL KVS$GETBFR(KV@VDH_GETBFR) WHENALTRETURN DO; /* GET SSN CONTEXT BLOCK  */
      148     7260    2         KV@VDH_GETBFR.STRTYP = %KV_STRTYP_PTR;
      149     7261    2         KV@VDH_GETBFR.BFR$ = KV$PTR$;
      150     7262    2         KV$PTR$ = ORGPTR$;
PL6.E3A0      #001=KVC$CNC File=KVC$CNC.:E05TSI                                  WED 07/30/97 01:54 Page:6
      151     7263    2         IF ORGPTR$~=KV@VDH_GETBFR.BFR$
      152     7264    2         THEN CALL KVS$RLSBFR (KV@VDH_GETBFR);
      153     7265    2         GOTO CANTGETCTX;
      154     7266    2      END;
      155     7267
      156     7268        /* Link the new KV$SSN in at the head of the KV$SSN chain. */
      157     7269
      158     7270    1      KV@VDH_GETBFR.BFR$->KV$SSN.LNK$ = %KV_VDI.SSN$;
      159     7271    1      %KV_VDI.SSN$ = KV@VDH_GETBFR.BFR$;
      160     7272    1      KV$PTR.SSN$ = KV@VDH_GETBFR.BFR$;
      161     7273    1      KV@VDH_GETBFR.BFR$->KV$SSN.SNCPTR$ = KV$PTR$;
      162     7274    1      KV@VDH_GETBFR.BFR$->KV$SSN.VDI$ = KV$PTR.VDI$;
      163     7275    1      CALL CALUSRGETSTR;
      164     7276
      165     7277    2      IF %KV_VDI.TRCBFR$ ~= ADDR(NIL) THEN DO;
      166     7278        /*
      167     7279        KV$VDI has a trace buffer.
      168     7280        */
      169     7281    3         IF %KV_VDI.SHRTRCBFR THEN DO;
      170     7282        /*
      171     7283        We're to share trace buffers between KV$VDI and KV$SSN.
      172     7284        */
      173     7285    3            %KV_SSN.TRCBFR$ = %KV_VDI.TRCBFR$;
      174     7286    3         END; ELSE DO;                     /* ELSE IF NOT SHRTRCBFR              */
      175     7287        /*
      176     7288        We're to get a separate trace buffer for this session.
      177     7289        */
      178     7290    3            KV@VDH_GETBFR.STRTYP = %KV_STRTYP_TRCBFR;
      179     7291    3            KV@VDH_GETBFR.BYTSIZ = %KV_VDI.TRCBFRBYTSIZ;
      180     7292    3            CALL KVS$GETBFR(KV@VDH_GETBFR)
      181     7293    4            WHENRETURN DO;
      182     7294    4               %KV_SSN.TRCBFR$ = KV@VDH_GETBFR.BFR$;
      183     7295    4            END;                           /* END WHENRETURN                     */
      184     7296    3         END;                              /* END ELSE IF SHRTRCBFR              */
      185     7297    2      END; /* END IF KV$VDI.TRCBFR$ ~= NIL */
      186     7298    2      IF PRM_VDH_CNC.SSNCNCINT THEN DO;
      187     7299        /*
PL6.E3A0      #001=KVC$CNC File=KVC$CNC.:E05TSI                                  WED 07/30/97 01:54 Page:7
      188     7300        We're initiating the session connection (as opposed to
      189     7301        processing a received session-initiation/connection request).
      190     7302        */
      191     7303    2         %KV_SSN.SSNCNCINT = '1'B;
      192     7304    2         %KV_VDI.LINSPD = PRM_VDH_CNC.LINSPD;
      193     7305    2      END; /* END IF PRM_VDH_CNC.SSNCNCINT */
      194     7306    1      ELSE IF PRM_VDH_CNC.NEWSSN THEN %KV_SSN.SSNCNCINT = '1'B;
      195     7307    1      ELSE %KV_SSN.SSNCNCID = PRM_VDH_CNC.DSTNTWADR.LDCTX;
      196     7308
      197     7309    2      IF %KV_SSN.LNK$ = ADDR(NIL) THEN DO;
      198     7310        /*
      199     7311        This is the first session on this chain of sessions.
      200     7312        Allocate some context that would otherwise be shared among
      201     7313        the sessions.
      202     7314        */
      203     7315
      204     7316        /* GET KV$MVD                                                                 */
      205     7317
      206     7318    2         KV@VDH_GETBFR.STRTYP = %KV_STRTYP_MVD;
      207     7319    2         CALL KVS$GETBFR(KV@VDH_GETBFR) ALTRET(BUMMER);
      208     7320
      209     7321    2         KV$PTR.MVD$ = KV@VDH_GETBFR.BFR$;
      210     7322
      211     7323    2         IF %KV_USRPRM.INPFNCTBLHEDPTR$~=ADDR(NIL)
      212     7324    2         THEN KV@VDH_GETBFR.BFR$->KV$MVD.SSTINPFNCTBL$ =
      213     7325    2           %KV_USRPRM.INPFNCTBLHEDPTR$->Y$PTR$;
      214     7326        /* Set the default translate table, in case there's no profile */
      215     7327    2         IF %KV_USRPRM.TRNTBLHEDPTR$~=ADDR(NIL)
      216     7328    2         THEN KV@VDH_GETBFR.BFR$->KV$MVD.TRNTBL$ =
      217     7329    2           %KV_USRPRM.TRNTBLHEDPTR$->Y$PTR$;
      218     7330    2         CALL CALUSRGETSTR;
      219     7331
      220     7332        /* GET KV$SRD                                                                 */
      221     7333
      222     7334    2         KV@VDH_GETBFR.STRTYP = %KV_STRTYP_SRD;
      223     7335    2         CALL KVS$GETBFR(KV@VDH_GETBFR) ALTRET(BUMMER);
      224     7336
PL6.E3A0      #001=KVC$CNC File=KVC$CNC.:E05TSI                                  WED 07/30/97 01:54 Page:8
      225     7337    2         KV$PTR.SRD$ = KV@VDH_GETBFR.BFR$;
      226     7338    2         %KV_MVD.SRD$ = KV@VDH_GETBFR.BFR$;
      227     7339    2         CALL CALUSRGETSTR;
      228     7340
      229     7341        /* GET KV$MRD FOR DEVICE                                                      */
      230     7342
      231     7343    2         KV@VDH_GETBFR.STRTYP = %KV_STRTYP_MRD;
      232     7344    2         CALL KVS$GETBFR(KV@VDH_GETBFR) ALTRET(BUMMER);
      233     7345
      234     7346    2         KV$PTR.MRD$ = KV@VDH_GETBFR.BFR$;
      235     7347    2         KV@VDH_GETBFR.BFR$->KV$MRD.SRD$ = KV$PTR.SRD$;
      236     7348    2         KV@VDH_GETBFR.BFR$->KV$MRD.MVD$ = KV$PTR.MVD$;
      237     7349    2         IF %KV_USRPRM.PRFFNCTBL$~=ADDR(NIL)
      238     7350    2         THEN KV@VDH_GETBFR.BFR$->KV$MRD.PRFINPFNCTBL$ = %KV_USRPRM.PRFFNCTBL$;
      239     7351    2         %KV_SRD.MRD$ = KV@VDH_GETBFR.BFR$;
      240     7352    2         CALL CALUSRGETSTR;
      241     7353    2         CALL KVI$NEWINPFNCTBL;
      242     7354    2      END; ELSE DO;
      243     7355        /*
      244     7356        We're adding another session to this instance of VDI.
      245     7357        Share some context we'd otherwise allocate.
      246     7358        */
      247     7359    2         KV@VDH_GETBFR.BFR$ = %KV_SSN.LNK$;
      248     7360    2         KV$PTR.MRD$ = ORGPTR$->KV$PTR.MRD$;
      249     7361    2         KV$PTR.SRD$ = ORGPTR$->KV$PTR.SRD$;
      250     7362    2         KV$PTR.MVD$ = ORGPTR$->KV$PTR.MVD$;
      251     7363        /*
      252     7364           Compute a unique SSNID for this session.
      253     7365        */
      254     7366    2         TEMP = 1;
      255     7367    3         DO WHILE KV@VDH_GETBFR.BFR$~=ADDR(NIL);
      256     7368    4            IF TEMP=KV@VDH_GETBFR.BFR$->KV$SSN.SSNID THEN DO;
      257     7369    4               TEMP = TEMP+1;
      258     7370    4               KV@VDH_GETBFR.BFR$ = KV$PTR.SSN$;
      259     7371    4            END;
      260     7372    3            KV@VDH_GETBFR.BFR$ = KV@VDH_GETBFR.BFR$->KV$SSN.LNK$;
      261     7373    3         END;
PL6.E3A0      #001=KVC$CNC File=KVC$CNC.:E05TSI                                  WED 07/30/97 01:54 Page:9
      262     7374    2         %KV_SSN.SSNID = TEMP;
      263     7375    2      END; /* END ELSE IF %KV_SSN.LNK$ = ADR(NIL) */
      264     7376
      265     7377        /* Get type-ahead buffer.                                                     */
      266     7378
      267     7379    1      KV@VDH_GETBFR.STRTYP = %KV_STRTYP_TYPAHDBFR;
      268     7380    1      CALL KVS$GETBFR(KV@VDH_GETBFR) ALTRET(BUMMER);
      269     7381
      270     7382    1      %KV_SSN.TYPAHDBFRHED$ = KV@VDH_GETBFR.BFR$;
      271     7383    1      %KV_SSN.TYPAHDBFRINS$ = KV@VDH_GETBFR.BFR$;
      272     7384    1      %KV_SSN.TYPAHDBFRCNT = 1;
      273     7385
      274     7386        /* GET ONE STREAM                                                              */
      275     7387
      276     7388    1      IF NOT PRM_VDH_CNC.NEWSSN            /* Unless we already have one to use. */
      277     7389    1      THEN CALL Y$GETSTR(1) ALTRET(BUMMER);
      278     7390    2      ELSE DO;
      279     7391    2         %KV_SSN.STR$ = ORGPTR$->KV$PTR.STR$;
      280     7392    2         KV$PTR.STR$ = ORGPTR$->KV$PTR.STR$;
      281     7393    2         %KV_STR.SSN$ = KV$PTR.SSN$;
      282     7394    2         %KV_STR.ID = 1;
      283     7395    2         KV$PTR.SSN$ = ORGPTR$->KV$PTR.SSN$;
      284     7396    2         CALL KVC$RLSSTR;                  /* Unchain from the old session       */
      285     7397    2         KV$PTR.SSN$ = %KV_STR.SSN$;
      286     7398        /*N* Account for moved structures. Put a valid stream into ORGPTR. */
      287     7399    2      END;
      288     7400
      289     7401    2      IF PRM_VDH_CNC.PRF_.ADR$~=ADDR(NIL) THEN DO;
      290     7402
      291     7403        /* SET PROFILE FOR THIS USER                                                  */
      292     7404
      293     7405    2         KV@VDH_SETPRM = KV_VDH_SETPRM;
      294     7406    2         KV@VDH_SETPRM.PRMID = %KV_PRMID_TYPLNG;
      295     7407    2         KV@VDH_SETPRM.VAL_ = PRM_VDH_CNC.PRF_;
      296     7408    2         CALL KVP$SETPRM(KV@VDH_SETPRM);
      297     7409    2      END; /* END IF PRM_VDH_CNC.PRF_.ADR$~=ADDR(NIL) */
      298     7410
PL6.E3A0      #001=KVC$CNC File=KVC$CNC.:E05TSI                                  WED 07/30/97 01:54 Page:10
      299     7411        /* CALL KVM$SND to start the connection protocol. */
      300     7412
      301     7413    1      KV@SND_CNC = KV_SND_CNC;
      302     7414    1      KV@SND_CNC.LGN_ = PRM_VDH_CNC.LGN_;
      303     7415    1      KV@SND_CNC.SCNENDPNTID = PRM_VDH_CNC.LCLENDPNTID;
      304     7416        /*N* Need to get SCN/LCLENDPNDID from user, via GETPRM */
      305     7417        /*N* Get PRF_ from user, via GETPRM? */
      306     7418    1      KV@SND_CNC.LINSPD = %KV_VDI.LINSPD;
      307     7419    1      IF (PRM_VDH_CNC.DSTNTWRSR = ' ')
      308     7420    2        AND (PRM_VDH_CNC.DSTNTWADR = '0'B) THEN DO;
      309     7421        /*
      310     7422        The destination network resource is blanks, and there is no
      311     7423        destination network address being passed.  Connect to the
      312     7424        logon process, by default.
      313     7425        */
      314     7426    2         KV@SND_CNC.DSTNTWRSR = 'LOGON';
      315     7427    2         %KV_SSN.LGN = '1'B;
      316     7428    2      END; ELSE DO;
      317     7429        /*
      318     7430        Connect to whatever the caller specified.
      319     7431        */
      320     7432    2         KV@SND_CNC.DSTNTWADR = PRM_VDH_CNC.DSTNTWADR;
      321     7433    2         KV@SND_CNC.DSTNTWRSR = PRM_VDH_CNC.DSTNTWRSR;
      322     7434    2      END; /* END ELSE IF DSTNTWRSR = ' ' ... */
      323     7435    1      CALL KVM$SND (KV@SND_CNC) ALTRET(BUMMER);
      324     7436
      325     7437    2      IF ORGPTR$=KV$PTR$ THEN DO;
      326     7438
      327     7439        /* This is the first session to be allocated. */
      328     7440        /* We succeeded in connecting. Disable KV_VDH_EVT_ID_RLSVDI.                  */
      329     7441        /* We'll set it later if we want it on again.                                 */
      330     7442
      331     7443    2         %KV_VDI.VDHEVTENB(%KV_VDH_EVT_ID_RLSVDI) = '0'B;
      332     7444
      333     7445    2      END;
      334     7446    1      IF %KV_SSN.SSNCNCINT
      335     7447        /* Restore the original context unless this is a received INIT message. */
PL6.E3A0      #001=KVC$CNC File=KVC$CNC.:E05TSI                                  WED 07/30/97 01:54 Page:11
      336     7448    1      THEN KV$PTR$ = ORGPTR$;
      337     7449    1      IF %KV_STR.SSN$~=KV$PTR.SSN$
      338     7450        /*
      339     7451           We just made a new session for an existing VDI. STR$ is bad.
      340     7452        */
      341     7453    1      THEN KV$PTR.STR$ = ADDR(NIL);
      342     7454
      343     7455    1      KV_SSNCNT = KV_SSNCNT+1;   /* Count active SSNs for memory check purposes. */
      344     7456    1      %KV_VDI.SSNCNT = %KV_VDI.SSNCNT+1;
      345     7457    1      %KV_STT.CNCEVTCNT = %KV_STT.CNCEVTCNT+1;
      346     7458    1      RETURN;
      347     7459
      348     7460
      349     7461        /* SOME ERROR HAS OCCURED. WE MUST RELEASE ALL CONTEXT WE MIGHT HAVE          */
      350     7462        /* GOTTEN.                                                                    */
      351     7463
      352     7464    1   BUMMER:
      353     7465    1      CALL KVC$RLSSSNNO_CNC;
      354     7466
      355     7467    1      KV$PTR$ = ORGPTR$;
      356     7468    1   CANTGETCTX:;
      357     7469    1      IF KV$PTR.STR$~=ADDR(NIL)
      358     7470    1      THEN %KV_STR.ERR.COD = %E$CANTGETCTX;
      359     7471         /*E*  ERROR: KVC-E$CANTGETCTX-E
      360     7472                 MESSAGE:Insufficient communications handler memory available.
      361     7473                 MESSAGE1:Communications handler memory insufficient.  Your system
      362     7474                          manager may want to adjust the handler's boot parameters.
      363     7475           */
      364     7476    1   ERRXIT:;
      365     7477        /*
      366     7478           Send INIT_ACK if that seems to be appropriate.
      367     7479        */
      368     7480    2      IF PRM_VDH_CNC.DSTNTWADR AND KV$PTR.SSN$~=ADDR(NIL) THEN DO;
      369     7481    2         KV@SND_CNC = KV_SND_CNC;
      370     7482    2         KV@SND_CNC.DSTNTWADR = PRM_VDH_CNC.DSTNTWADR;
      371     7483    2         KV@SND_CNC.ERR = '1'B;
      372     7484    2         %KV_SSN.SSNCNCINT = '0'B;
PL6.E3A0      #001=KVC$CNC File=KVC$CNC.:E05TSI                                  WED 07/30/97 01:54 Page:12
      373     7485    2         CALL KVM$SND (KV@SND_CNC);
      374     7486    2      END;
      375     7487    1      ALTRETURN;
      376     7488
      377     7489        %EJECT;
PL6.E3A0      #001=KVC$CNC File=KVC$CNC.:E05TSI                                  WED 07/30/97 01:54 Page:13
      378     7490    1   KVC$WINDOW1: ENTRY (PRM) ALTRET;
      379     7491
      380     7492        /*F* NAME: KVC$WINDOW1, KVC$WINDOW2.
      381     7493             PURPOSE: Creates(-1) or modifies(-2) a window.  The parameter is a
      382     7494             VLP_WINDOW specifying the new parameters to be established.
      383     7495             KVC$WINDOW1 modifies some items in VLP_WINDOW for later use by
      384     7496             KVC$WINDOW2, so it must be writable, and KVC$WINDOW1 must not be
      385     7497             called more than once with the same VLP_WINDOW. */
      386     7498
      387     7499        /* First check that windows are permitted on the device. */
      388     7500
      389     7501    1      IF NOT %KV_MRD.BLANKERASES AND NOT %KV_MRD.FSTERS
      390     7502    1        OR NOT %KV_MRD.PHSFRM
      391     7503    1        OR NOT %KV_MRD.CURSORUP THEN ALTRETURN;
      392     7504    1      ORGPTR$ = %KV_SSN.STR$;
      393     7505    2      DO WHILE ORGPTR$~=ADDR(NIL);
      394     7506    2         IF ORGPTR$->KV$STR.ID=PRM_WINDOW.FSTR.ID THEN EXIT;
      395     7507    2         ORGPTR$ = ORGPTR$->KV$STR.LNK$;
      396     7508    2      END;
      397     7509    1      IF ORGPTR$=ADDR(NIL) THEN PRM_WINDOW.FWINDOW$ = ORGPTR$;
      398     7510    1      ELSE PRM_WINDOW.FWINDOW$ = ORGPTR$->KV$STR.MVD$->KV$MVD.SRD$;
      399     7511
      400     7512        /* Get a MVD-SRD pair if we need one. */
      401     7513
      402     7514    2      IF %KV_MVD.USRCNT>1 AND PRM_WINDOW.POSITION~=0 THEN DO;
      403     7515
      404     7516    2         ORGPTR$ = KV$PTR.MVD$;            /* In case we don't succeed.          */
      405     7517    2         IF %KV_VDI.OTPCNDPND.PST=%KV_PHSPSTMOD_BLN THEN CALL KVV$CALUSR_PST;
      406     7518    2         KV@VDH_GETBFR = KV_VDH_GETBFR;
      407     7519    2         CALL Y$GETMVD ALTRET(NO_CTX);
      408     7520    2         CALL CALUSRGETSTR;
      409     7521    3         CALL Y$GETSRD WHENALTRETURN DO;
      410     7522    3            CALL KVC$RLSMVD;
      411     7523    3            %KV_STR.MVD$ = ORGPTR$;
      412     7524    3            KV$PTR.MVD$ = ORGPTR$;
      413     7525    3            %KV_MVD.USRCNT = %KV_MVD.USRCNT+1;
      414     7526    3            GOTO NO_CTX;
PL6.E3A0      #001=KVC$CNC File=KVC$CNC.:E05TSI                                  WED 07/30/97 01:54 Page:14
      415     7527    3         END;
      416     7528    2         CALL CALUSRGETSTR;
      417     7529    2      END;
      418     7530    2      ELSE DO;
      419     7531    2         PRM_WINDOW.POSITION = 0;
      420     7532    2      END;
      421     7533    1      RETURN;
      422     7534        %EJECT;
PL6.E3A0      #001=KVC$CNC File=KVC$CNC.:E05TSI                                  WED 07/30/97 01:54 Page:15
      423     7535    1   KVC$WINDOW2: ENTRY (PRM) ALTRET;
      424     7536
      425     7537        /* Findchange in length required. */
      426     7538
      427     7539    1      IF PRM_WINDOW.POSITION~=%G_POSITION_LEFT#
      428     7540    2        AND PRM_WINDOW.POSITION~=%G_POSITION_RIGHT# THEN DO;
      429     7541    3         IF PRM_WINDOW.LENGTH>%G_WINDOW_PERCENT# THEN DO;
      430     7542    3            IF PRM_WINDOW.POSITION~=0 THEN TEMP = %KV_MRD.LNG;
      431     7543    3            ELSE IF PRM_WINDOW.FWINDOW$~=ADDR(NIL)
      432     7544    3            THEN TEMP = PRM_WINDOW.FWINDOW$->KV$SRD.SRDEND.LIN-
      433     7545    3              PRM_WINDOW.FWINDOW$->KV$SRD.ORG.LIN;
      434     7546    3            ELSE TEMP = %KV_SRD.SRDEND.LIN-%KV_SRD.ORG.LIN;
      435     7547    3            PRM_WINDOW.LENGTH = TEMP*(PRM_WINDOW.LENGTH-%G_WINDOW_PERCENT#)
      436     7548    3              /100-%KV_SRD.SRDEND.LIN+%KV_SRD.ORG.LIN;
      437     7549    2         END; ELSE IF PRM_WINDOW.LENGTH>=%G_WINDOW_ABSVAL#
      438     7550    2         THEN PRM_WINDOW.LENGTH =
      439     7551    2           PRM_WINDOW.LENGTH-%G_WINDOW_ABSVAL#-%KV_SRD.SRDEND.LIN+%KV_SRD.ORG.LIN;
      440     7552    2      END;
      441     7553    1      ELSE PRM_WINDOW.LENGTH = 0;
      442     7554
      443     7555        /* Compute the change in width required. */
      444     7556
      445     7557    1      IF PRM_WINDOW.POSITION~=%G_POSITION_TOP#
      446     7558    2        AND PRM_WINDOW.POSITION~=%G_POSITION_BOTTOM# THEN DO;
      447     7559    3         IF PRM_WINDOW.WIDTH>%G_WINDOW_PERCENT# THEN DO;
      448     7560    3            IF PRM_WINDOW.POSITION~=0 THEN TEMP = %KV_MRD.WDT;
      449     7561    3            ELSE IF PRM_WINDOW.FWINDOW$~=ADDR(NIL)
      450     7562    3            THEN TEMP = PRM_WINDOW.FWINDOW$->KV$SRD.WDT;
      451     7563    3            ELSE TEMP = %KV_SRD.SRDEND.CLM-%KV_SRD.ORG.CLM;
      452     7564    3            PRM_WINDOW.WIDTH = TEMP*(PRM_WINDOW.WIDTH-%G_WINDOW_PERCENT#)
      453     7565    3              /100-%KV_SRD.SRDEND.CLM+%KV_SRD.ORG.CLM;
      454     7566    2         END; ELSE IF PRM_WINDOW.WIDTH>=%G_WINDOW_ABSVAL#
      455     7567    2         THEN PRM_WINDOW.WIDTH =
      456     7568    2           PRM_WINDOW.WIDTH-%G_WINDOW_ABSVAL#-%KV_SRD.SRDEND.CLM+%KV_SRD.ORG.CLM;
      457     7569    2      END;
      458     7570    1      ELSE PRM_WINDOW.WIDTH = 0;
      459     7571
PL6.E3A0      #001=KVC$CNC File=KVC$CNC.:E05TSI                                  WED 07/30/97 01:54 Page:16
      460     7572        /* Now call the recursive size changer. */
      461     7573
      462     7574    2      IF PRM_WINDOW.LENGTH~=0 OR PRM_WINDOW.POSITION~=0 THEN DO;
      463     7575    2         CALL KVC$ADJWND (PRM);
      464     7576    2         PRM_WINDOW.LENGTH = 0;
      465     7577    2      END;
      466     7578    1      IF PRM_WINDOW.WIDTH~=0 AND PRM_WINDOW.POSITION=0 THEN CALL KVC$ADJWND (PRM);
      467     7579    1      RETURN;
      468     7580        %EJECT;
PL6.E3A0      #001=KVC$CNC File=KVC$CNC.:E05TSI                                  WED 07/30/97 01:54 Page:17
      469     7581        /*F* NAME: KVC$DCLSTR.
      470     7582             PURPOSE: Adds another stream to an existing session.
      471     7583             CALL: The single parameter is a UBIN stream-id. */
      472     7584    1   KVC$DCLSTR: ENTRY (PRM) ALTRET;
      473     7585
      474     7586    1      ORGPTR$ = KV$PTR.STR$;
      475     7587    1      KV@VDH_GETBFR = KV_VDH_GETBFR;
      476     7588    2      CALL Y$GETSTR (PRM_VDH_CNC) WHENALTRETURN DO;
      477     7589    2   NO_CTX:;
      478     7590    2         %KV_STR.ERR.COD = %E$CANTGETCTX;
      479     7591    2         ALTRETURN;
      480     7592    2      END;
      481     7593    1      KV$PTR.STR$ = ORGPTR$;
      482     7594    1      RETURN;
      483     7595        %EJECT;
PL6.E3A0      #001=KVC$CNC File=KVC$CNC.:E05TSI                                  WED 07/30/97 01:54 Page:18
      484     7596    1   KVC$OPNFRM: ENTRY (PRM) ALTRET;
      485     7597        /*F* NAME: KVC$OPNFRM
      486     7598
      487     7599           PURPOSE: KVC$OPNFRM initializes the context needed for a forms,
      488     7600        X3.64 or editing window.                                                          */
      489     7601
      490     7602    1      KV@VDH_GETBFR.BFR$ = KV$PTR.LINLST$;
      491     7603    1      IF %KV_MVD.ORG=PRM_VDO_OPNSTR.ORG
      492     7604    1      THEN IF %KV_MVD.ORG~=%KV#VD_ORG_SE
      493     7605    1        OR (PRM_VDO_OPNSTR.NRECS=0 OR %KV_RCRLST.MAXRCR>=PRM_VDO_OPNSTR.NRECS)
      494     7606    1        AND (PRM_VDO_OPNSTR.KEYL=0 OR %KV_RCRLST.KEYLNG=PRM_VDO_OPNSTR.KEYL)
      495     7607    1        AND (PRM_VDO_OPNSTR.SPARE=0 OR %KV_RCRLST.SPRCNT=PRM_VDO_OPNSTR.SPARE)
      496     7608    1      THEN RETURN;                         /* That was easy                      */
      497     7609    1      KV@VDH_SETPRM = KV_VDH_SETPRM;
      498     7610    1      KV@VDH_SETPRM.SCP = %KV_SCP_ONE_ONLY;
      499     7611
      500     7612    1      KV@VDH_GETBFR = KV_VDH_GETBFR;       /* Sets up RLSBFR ok, too.            */
      501     7613    1      IF %KV_MVD.LINLST$~=ADDR(NIL) THEN CALL KVC$RLSFRM;
      502     7614
      503     7615        /* Release the unusable MVD appendages. */
      504     7616
      505     7617    2      IF PRM_VDO_OPNSTR.ORG=%KV#VD_ORG_FORM THEN DO;
      506     7618    2         IF %KV_SRD.WDT~=%KV_MRD.WDT AND %KV_MRD.MAXATRPERLIN<%KV_MRD.WDT
      507     7619    2           AND NOT %KV_MRD.DCLATRWHNOTP OR %KV_SRD.LNG=0 THEN GOTO NOTCOM_ERR;
      508     7620    2         %KV_SRD.MINWDT = %KV_SRD.WDT;
      509     7621    2         %KV_SRD.MINLNG = %KV_SRD.LNG;
      510     7622    2         %KV_SRD.OPT = '0'B;
      511     7623        /* Run short screens in hard-copy (scrolling) mode. */
      512     7624    2         IF NOT %KV_MRD.CURSORUP THEN %KV_MVD.RETYPOVR = '0'B;
      513     7625    3         IF NOT %KV_MVD.RETYPOVR AND %KV_MVD.USRCNT>1 THEN DO;
      514     7626    3            CALL Y$GETMVD ALTRET(NO_CTX); /* Get another MVD for the FORM stream */
      515     7627    4            IF NOT %KV_MRD.PHSFRM THEN DO;
      516     7628
      517     7629        /* The paper is not fixed length, use a sensible value (not 255).             */
      518     7630
      519     7631    4               %KV_SRD.MINLNG = 24;
      520     7632    4            END /* IF */;
PL6.E3A0      #001=KVC$CNC File=KVC$CNC.:E05TSI                                  WED 07/30/97 01:54 Page:19
      521     7633    3         END /* IF NOT RETYPOVR */;
      522     7634
      523     7635    2         %VDH_RLSBFR.BFR$ = %KV_MVD.INPTAB$;
      524     7636    2         %VDH_RLSBFR.STRTYP = %KV_STRTYP_INPTAB;
      525     7637    2         %KV_MVD.INPTAB$ = ADDR(NIL);
      526     7638    2         CALL KVS$RLSBFR (%VDH_RLSBFR);
      527     7639    2      END;
      528     7640    1      ELSE IF NOT %KV_MVD.RETYPOVR OR NOT %KV_MRD.CURSORUP THEN GOTO NOTCOM_ERR;
      529     7641         /*E*  ERROR:KV-E$ORGNOTCOM-E
      530     7642                 MESSAGE:SE, FORM, or X364 needs RETYPOVR. FORM needs wide window.
      531     7643                 MESSAGE1:For ORG=SE, FORM, or X364, RETYPOVR=YES and HEIGHT>=24
      532     7644                          must be true. For C00 FORMs, the window must be full width.
      533     7645           */
      534     7646
      535     7647    2      IF PRM_VDO_OPNSTR.ORG~=%KV#VD_ORG_X364 THEN DO;
      536     7648    3         IF %KV_MVD.USRCNT>1 THEN DO;
      537     7649    3   NOTCOM_ERR:;
      538     7650    3            %KV_STR.ERR.COD = %E$ORGNOTCOM;
      539     7651    3            ALTRETURN;
      540     7652    3         END;
      541     7653    2         IF NOT %KV_MVD.RETYPOVR THEN EXIT;
      542     7654    2         %KV_SRD.TRUNCATE = '0'B;
      543     7655        /* No scroll for FORM or SE */
      544     7656    2         IF NOT %KV_SRD.SCROLL THEN EXIT;
      545     7657    2         KV@VDH_SETPRM.PRMID = %KV_PRMID_SCROLL;
      546     7658    2         CALL KVP$SETPRM (KV@VDH_SETPRM);
      547     7659    2      END;
      548     7660
      549     7661    1      %KV_SRD.NXTNONBLNLIN = 255;
      550     7662    2      IF %KV_MVD.RETYPOVR THEN DO;
      551     7663    2         %KV_SRD.NOOPTMIZ = '0'B;
      552     7664    2         %KV_MVD.EDITOVR = '1'B;
      553     7665    2      END;
      554     7666    1      %VDH_RLSBFR.BFR$ = %KV_MVD.VFU$;
      555     7667    1      %VDH_RLSBFR.STRTYP = %KV_STRTYP_VFU;
      556     7668    1      CALL KVS$RLSBFR (%VDH_RLSBFR);
      557     7669    1      %KV_MVD.VFU$ = ADDR(NIL);
PL6.E3A0      #001=KVC$CNC File=KVC$CNC.:E05TSI                                  WED 07/30/97 01:54 Page:20
      558     7670        /* strip the form stream                                                      */
      559     7671
      560     7672    1      CALL Y$STRSTR;
      561     7673    1      %KV_STR.ACTCHRTBL$ = ADDR(KV_ACTCHRTBLNRM);
      562     7674
      563     7675    1      %KV_MVD.WDT = %KV_SRD.WDT;
      564     7676    1      %KV_MVD.LNG = 0;
      565     7677
      566     7678        /* Now get the LINLST area. */
      567     7679
      568     7680    2      DO CASE PRM_VDO_OPNSTR.ORG;
      569     7681    2      CASE %KV#VD_ORG_FORM;
      570     7682    2         KV@VDH_GETBFR.STRTYP = %KV_STRTYP_LINLST;
      571     7683    2         KV@VDH_GETBFR.BYTSIZ = 2*SIZEW(KV$LINLST)+2*SIZEW(KV$LIN)*%KV_SRD.MINLNG;
      572     7684    2      CASE %KV#VD_ORG_SE;
      573     7685    2         KV@VDH_GETBFR.STRTYP = %KV_STRTYP_RCRLST;
      574     7686    2         TEMP = MAXIMUM (%KV_MRD.DSPHEIGHT+10, MINIMUM (50,
      575     7687    2           MAXIMUM (PRM_VDO_OPNSTR.NRECS, %KV_SRD.LNG*2)));
      576     7688    2         KV@VDH_GETBFR.BYTSIZ = SIZEC(KV$RCRLST)+SIZEC(KV$RCRLST.RCR$)*(TEMP-1);
      577     7689    2      CASE %KV#VD_ORG_X364;
      578     7690    2         KV@VDH_GETBFR.STRTYP = %KV_STRTYP_X364;
      579     7691    2      END; /* END DO CASE .ORG */
      580     7692    1      CALL KVS$GETBFR (KV@VDH_GETBFR) ALTRET(NO_CTX);
      581     7693    1      %KV_MVD.LINLST$ = KV@VDH_GETBFR.BFR$;
      582     7694    1      KV$PTR.LINLST$ = KV@VDH_GETBFR.BFR$;
      583     7695    2      IF KV@VDH_GETBFR.STRTYP=%KV_STRTYP_LINLST THEN DO;
      584     7696    2         %KV_LINLST = '0'B;
      585     7697    2         %KV_LINLST.LSTCELWRDX = KV@VDH_GETBFR.BYTSIZ/2-1;
      586     7698    2         %KV_LINLST.LSTENTWRDX = SIZEW(KV$LINLST)+(%KV_SRD.MINLNG-1)*SIZEW(KV$LIN);
      587     7699    2         STEMP = SIZEW(KV$LINLST);
      588     7700    3         DO UNTIL STEMP > %KV_LINLST.LSTENTWRDX;
      589     7701
      590     7702        /* This loop is traversed for each KV$LIN entry in the KV$LINLST              */
      591     7703        /* table initialized.                                                         */
      592     7704
      593     7705    3            PINCRW(ADDR(%KV_LINLST),STEMP)->KV$LIN = KV_LIN;
      594     7706    3            PINCRW(ADDR(%KV_LINLST),STEMP)->KV$LIN.VRTLIN =
PL6.E3A0      #001=KVC$CNC File=KVC$CNC.:E05TSI                                  WED 07/30/97 01:54 Page:21
      595     7707    3              TEMP/SIZEW(KV$LIN) - SIZEW(KV$LINLST)/SIZEW(KV$LIN) + 1;
      596     7708    3            STEMP = STEMP+SIZEW(KV$LIN);
      597     7709    3         END /* LOOP */;
      598     7710    2      END;
      599     7711    2      ELSE IF KV@VDH_GETBFR.STRTYP=%KV_STRTYP_RCRLST THEN DO;
      600     7712    2         %KV_RCRLST = KV_RCRLST;
      601     7713    2         %KV_RCRLST.STRBYTSIZ = KV@VDH_GETBFR.BYTSIZ;
      602     7714    2         %KV_RCRLST.MAXRCR = TEMP;
      603     7715    2         IF PRM_VDO_OPNSTR.KEYL~=0
      604     7716    2         THEN %KV_RCRLST.KEYLNG = MINIMUM(4, PRM_VDO_OPNSTR.KEYL);
      605     7717    2         IF PRM_VDO_OPNSTR.SPARE>1
      606     7718    2         THEN %KV_RCRLST.SPRCNT = MINIMUM(TEMP/2, PRM_VDO_OPNSTR.SPARE);
      607     7719    2         ELSE %KV_RCRLST.SPRCNT = MAXIMUM(TEMP/4,1);
      608     7720    2      END;
      609     7721    1      %KV_MVD.ORG = PRM_VDO_OPNSTR.ORG;
      610     7722
      611     7723        /* Set up the set-parameter request structure for setting the                 */
      612     7724        /* system input function table associated with the forms virtual              */
      613     7725        /* device to "FRM1".                                                          */
      614     7726
      615     7727    2      DO SELECT KV@VDH_GETBFR.STRTYP;
      616     7728    2         SELECT %KV_STRTYP_LINLST;
      617     7729    2         ADDR(KV@SND_CNC)->CHR8 = 'FRM1';
      618     7730    2         SELECT %KV_STRTYP_RCRLST;
      619     7731    2         ADDR(KV@SND_CNC)->CHR8 = 'SE1';
      620     7732    2         IF PRM_VDO_OPNSTR.SPARE>99 THEN SUBSTR(ADDR(KV@SND_CNC)->CHR8,2,1) = '2';
      621     7733    2         SELECT %KV_STRTYP_X364;
      622     7734    2         ADDR(KV@SND_CNC)->CHR8 = 'X364';
      623     7735    2      END; /* END DO SELECT .STRTYP */
      624     7736    1      KV@VDH_SETPRM.VAL_.ADR$ = ADDR(KV@SND_CNC);
      625     7737    1      KV@VDH_SETPRM.VAL_.BYTSIZ = 8;
      626     7738    1      KV@VDH_SETPRM.PRMID = %KV_PRMID_FCNTBL;
      627     7739    1      CALL KVP$SETPRM(KV@VDH_SETPRM) ;
      628     7740    2      IF %KV_MVD.RETYPOVR THEN DO;
      629     7741    2         IF %KV_MVD.ORG=%KV#VD_ORG_FORM THEN CALL KVC$DRWBRD;
      630     7742        /* Get rid of any borders for ORG=FORM */
      631     7743    2         CALL KVO$ERSSRD;
PL6.E3A0      #001=KVC$CNC File=KVC$CNC.:E05TSI                                  WED 07/30/97 01:54 Page:22
      632     7744    2      END;
      633     7745    1      IF PRM_VDO_OPNSTR.ORG~=%KV#VD_ORG_X364 AND %KV_SSN.LSTEDTBFRSTRID=%KV_STR.ID
      634     7746    1      THEN %KV_SSN.LSTEDTBFRSTRID = 1;
      635     7747    1      RETURN;
      636     7748        %EJECT;
PL6.E3A0      #001=KVC$CNC File=KVC$CNC.:E05TSI                                  WED 07/30/97 01:54 Page:23
      637     7749    1   Y$GETSTR: PROC(ID) ALTRET;
      638     7750        /* Gets a stream structure (KV$STR)                                           */
      639     7751    2   DCL ID UBIN;
      640     7752    2   DCL KV_SHRBFR_PRM1 UBIN SYMREF;
      641     7753    2   DCL KV_SHRBFR_PRM2 UBIN SYMREF;
      642     7754    2   DCL KV_SHRBFR_PRM3 UBIN SYMREF;
      643     7755    2   DCL PRMPTRS(0:3) PTR CONSTANT
      644     7756    2    INIT(ADDR(KV_SHRBFR_PRM1)*2,ADDR(KV_SHRBFR_PRM2),ADDR(KV_SHRBFR_PRM3));
      645     7757        /* Reports get-structure event to user                                        */
      646     7758
      647     7759        /* LOCAL                                                                      */
      648     7760
      649     7761        %KV$USR_EVT(NAME = KV@USR_EVT, STCLASS = AUTO);
      650     7796        %KV$USR_EVT(NAME = KV_USR_EVT, STCLASS = "SYMREF READONLY");
      651     7831        %KV$STR (NAME=Y@STR, STCLASS="BASED(KV@VDH_GETBFR.BFR$)");
      652     7918
      653     7919    2      KV@VDH_GETBFR.STRTYP = %KV_STRTYP_STR;
      654     7920    3      CALL KVS$GETBFR(KV@VDH_GETBFR) WHENALTRETURN DO; ALTRETURN; END;
      655     7921
      656     7922    3      IF KV$PTR.STR$~=ADDR(NIL) THEN DO;
      657     7923    3         Y@STR.ACTONTRN = %KV_STR.ACTONTRN;
      658     7924    3         Y@STR.AUTTABCLM = %KV_STR.AUTTABCLM;
      659     7925    3         Y@STR.WRDWRPCLM = %KV_STR.WRDWRPCLM;
      660     7926    3         Y@STR.WRDWRP = %KV_STR.WRDWRP;
      661     7927    3         Y@STR.OTPTAB$ = %KV_STR.OTPTAB$;
      662     7928    3         CALL Y$INCSHRBFR (Y@STR.OTPTAB$->KV$SHRBFR);
      663     7929    3         Y@STR.LFTMRGCLM = %KV_STR.LFTMRGCLM;
      664     7930    3         Y@STR.LNK$ = %KV_SSN.STR$->KV$STR.LNK$;
      665     7931    3         %KV_SSN.STR$->KV$STR.LNK$ = KV@VDH_GETBFR.BFR$;
      666     7932    3      END;
      667     7933    3      ELSE DO;
      668     7934    3         %KV_SSN.STR$ = KV@VDH_GETBFR.BFR$;
      669     7935    3      END;
      670     7936    2      Y@STR.SSN$ = KV$PTR.SSN$;
      671     7937    2      Y@STR.ID = ID;
      672     7938    2      Y@STR.MVD$ = KV$PTR.MVD$;
      673     7939    2      KV$PTR.STR$ = KV@VDH_GETBFR.BFR$;
PL6.E3A0      #001=KVC$CNC File=KVC$CNC.:E05TSI                                  WED 07/30/97 01:54 Page:24
      674     7940    2      %KV_MVD.USRCNT = %KV_MVD.USRCNT+1;
      675     7941    2      IF ID<4 THEN Y@STR.PRM$ = PRMPTRS(ID);
      676     7942
      677     7943    2   CALUSRGETSTR: ENTRY ALTRET;
      678     7944        /* Reports get-structure event to user                                        */
      679     7945
      680     7946        /* CHECK TO SEE IF USER WANTS EVENT FOR PARTICULAR STRUCTURE                  */
      681     7947
      682     7948    3      IF %KV_USRPRM.STREVTENB(KV@VDH_GETBFR.STRTYP) THEN DO;
      683     7949
      684     7950        /* WE MUST TELL THE USER                                                      */
      685     7951    3         KV@USR_EVT = KV_USR_EVT;
      686     7952    3         KV@USR_EVT.ID = %KV_USR_EVT_ID_GETSTR;
      687     7953    3         KV@USR_EVT.PRM = KV@VDH_GETBFR.STRTYP;
      688     7954    3         CALL KVV$CALUSR_EVT (KV@USR_EVT);
      689     7955    3      END /* IF */;
      690     7956    2   END /* SUBROUTINE */;
      691     7957        %EJECT;
PL6.E3A0      #001=KVC$CNC File=KVC$CNC.:E05TSI                                  WED 07/30/97 01:54 Page:25
      692     7958        /* Strip a stream of its appendages.                                          */
      693     7959
      694     7960
      695     7961    1   Y$STRSTR: PROC;
      696     7962
      697     7963        /* Release the prompt buffer.                                                 */
      698     7964
      699     7965    2      %VDH_RLSBFR.BFR$ = %KV_STR.PRM$;
      700     7966    2      %VDH_RLSBFR.STRTYP = %KV_STRTYP_PRM;
      701     7967    2      CALL KVS$RLSBFR(%VDH_RLSBFR);
      702     7968    2      %KV_STR.PRM$ = ADDR(NIL);
      703     7969
      704     7970        /* Release the edit buffer, if there is one.                                  */
      705     7971
      706     7972    2      %VDH_RLSBFR.STRTYP = %KV_STRTYP_REDBFR;
      707     7973    2      %VDH_RLSBFR.BFR$ = %KV_STR.EDTBFR__.ADR$;
      708     7974    2      %VDH_RLSBFR.BYTSIZ = %KV_STR.EDTBFR__.BFRBYTSIZ;
      709     7975    2      IF %KV_STR.EDTBFR__.BFRRLSDSP~=%KV_BFRRLSDSP_NON
      710     7976    2      THEN CALL KVS$RLSBFR(%VDH_RLSBFR);
      711     7977    2      %KV_STR.EDTBFR__ = '0'B;
      712     7978
      713     7979        /* strip activation character set                                             */
      714     7980
      715     7981    2      %VDH_RLSBFR.STRTYP = %KV_STRTYP_ACTCHR;
      716     7982    2      %VDH_RLSBFR.BFR$ = %KV_STR.ACTCHRTBL$;
      717     7983    2      CALL KVS$RLSBFR(%VDH_RLSBFR);
      718     7984    2      %KV_STR.ACTCHRTBL$ = ADDR(NIL);
      719     7985    2      %VDH_RLSBFR.STRTYP = %KV_STRTYP_OTPTAB;
      720     7986    2      %VDH_RLSBFR.BFR$ = %KV_STR.OTPTAB$;
      721     7987    2      %KV_STR.OTPTAB$ = ADDR(NIL);
      722     7988    2      CALL KVS$RLSBFR(%VDH_RLSBFR);
      723     7989
      724     7990    2   END /* SUBROUTINE */;
      725     7991        %EJECT;
PL6.E3A0      #001=KVC$CNC File=KVC$CNC.:E05TSI                                  WED 07/30/97 01:54 Page:26
      726     7992    1   Y$GETMVD: PROC ALTRET;
      727     7993        %KV$MVD (NAME=Y@MVD, STCLASS="BASED(KV@VDH_GETBFR.BFR$)");
      728     8037
      729     8038    2      KV@VDH_GETBFR.STRTYP = %KV_STRTYP_MVD;
      730     8039    2      CALL KVS$GETBFR (KV@VDH_GETBFR)
      731     8040    3      WHENALTRETURN DO;
      732     8041
      733     8042        /* We got an error return on the request to get memory for the                */
      734     8043        /* KV$MVD structure.                                                          */
      735     8044
      736     8045    3         ALTRETURN;
      737     8046    3      END /* IF */;
      738     8047    2      Y@MVD = %KV_MVD;                     /* Initialize from the current one.   */
      739     8048    2      %KV_MVD.USRCNT = %KV_MVD.USRCNT-1;
      740     8049    2      %KV_STR.MVD$ = KV@VDH_GETBFR.BFR$;
      741     8050    2      Y@MVD.SRD$ = KV$PTR.SRD$;
      742     8051    2      %KV_SRD.USRCNT = %KV_SRD.USRCNT+1;
      743     8052    2      Y@MVD.LNK$ = %KV_MRD.MVD$;
      744     8053    2      %KV_MRD.MVD$ = KV@VDH_GETBFR.BFR$;
      745     8054    2      Y@MVD.ORG = %KV#VD_ORG_UR;
      746     8055    2      Y@MVD.USRCNT = 1;
      747     8056    2      Y@MVD.LINLST$ = ADDR(NIL);
      748     8057    2      Y@MVD.PAGBRKPND = '0'B;
      749     8058    2      Y@MVD.FRMSCNINH = '0'B;
      750     8059    2      CALL Y$INCSHRBFR (Y@MVD.INPTAB$->KV$SHRBFR);
      751     8060    2      Y@MVD.INPFNCCPY = '11'B;
      752     8061    2      CALL Y$INCSHRBFR (Y@MVD.USRINPFNCTBL$->KV$SHRBFR);
      753     8062    2      CALL Y$INCSHRBFR (Y@MVD.SSTINPFNCTBL$->KV$SHRBFR);
      754     8063    2      CALL Y$INCSHRBFR (Y@MVD.VFU$->KV$SHRBFR);
      755     8064    2      CALL Y$INCSHRBFR (Y@MVD.TRNTBL$->KV$SHRBFR);
      756     8065    2      CALL Y$INCSHRBFR (Y@MVD.DCBHDN$->KV$SHRBFR);
      757     8066
      758     8067    2      KV$PTR.MVD$ = KV@VDH_GETBFR.BFR$;
      759     8068
      760     8069    2   END /* SUBROUTINE */;
      761     8070        %EJECT;
PL6.E3A0      #001=KVC$CNC File=KVC$CNC.:E05TSI                                  WED 07/30/97 01:54 Page:27
      762     8071    1   Y$INCSHRBFR: PROC(Y@SHRBFR);
      763     8072        %KV$SHRBFR (NAME=Y@SHRBFR, STCLASS=);
      764     8104
      765     8105    2      IF ADDR(Y@SHRBFR)~=ADDR(NIL)
      766     8106    2      THEN IF Y@SHRBFR.USRCNT~=%KV_SHRBFR_CNSUSRCNT
      767     8107    2      THEN Y@SHRBFR.USRCNT = Y@SHRBFR.USRCNT+1;
      768     8108    2   END Y$INCSHRBFR;
      769     8109        %EJECT;
PL6.E3A0      #001=KVC$CNC File=KVC$CNC.:E05TSI                                  WED 07/30/97 01:54 Page:28
      770     8110    1   Y$GETSRD: PROC ALTRET;
      771     8111
      772     8112        /* Get a new subordinate real device.                                           */
      773     8113
      774     8114        %KV$SRD (NAME=Y@SRD, STCLASS="BASED(KV@VDH_GETBFR.BFR$)");
      775     8389
      776     8390    2      KV@VDH_GETBFR.STRTYP = %KV_STRTYP_SRD;
      777     8391    2      CALL KVS$GETBFR(KV@VDH_GETBFR)
      778     8392    3      WHENALTRETURN DO;
      779     8393
      780     8394        /* We got an error return on the request to get memory for the                */
      781     8395        /* KV$SRD structure.                                                          */
      782     8396
      783     8397    3         ALTRETURN;
      784     8398    3      END /* IF */;
      785     8399    2      IF PRM_WINDOW.FWINDOW$=ADDR(NIL)
      786     8400    2      THEN PRM_WINDOW.FWINDOW$ = KV$PTR.SRD$;
      787     8401    2      Y@SRD = PRM_WINDOW.FWINDOW$->Y@SRD;
      788     8402    2      Y@SRD.LNK$ = %KV_MRD.SRD$;
      789     8403    2      %KV_MRD.SRD$ = KV@VDH_GETBFR.BFR$;
      790     8404    2      %KV_MRD.USRCNT = %KV_MRD.USRCNT+1;
      791     8405    2      Y@SRD.USRCNT = 1;
      792     8406    2      %KV_SRD.USRCNT = %KV_SRD.USRCNT-1;
      793     8407    2      Y@SRD.VRTPSTOK = '0'B;
      794     8408    2      Y@SRD.ADJTOPLFT = '0'B;
      795     8409    3      DO CASE (PRM_WINDOW.POSITION);
      796     8410    3      CASE (%G_POSITION_TOP#);
      797     8411    3         Y@SRD.SRDEND.LIN = Y@SRD.ORG.LIN;
      798     8412    3      CASE (%G_POSITION_LEFT#);
      799     8413    3         Y@SRD.SRDEND.CLM = Y@SRD.ORG.CLM;
      800     8414    3      CASE (%G_POSITION_RIGHT#);
      801     8415    3         Y@SRD.ORG.CLM = Y@SRD.SRDEND.CLM;
      802     8416    3         Y@SRD.ADJTOPLFT = '1'B;
      803     8417    3      CASE (%G_POSITION_BOTTOM#);
      804     8418    3         Y@SRD.ORG.LIN = Y@SRD.SRDEND.LIN;
      805     8419    3         Y@SRD.ADJTOPLFT = '1'B;
      806     8420    3      END;
PL6.E3A0      #001=KVC$CNC File=KVC$CNC.:E05TSI                                  WED 07/30/97 01:54 Page:29
      807     8421    2      Y@SRD.LNG = Y@SRD.SRDEND.LIN-Y@SRD.ORG.LIN;
      808     8422    2      Y@SRD.WDT = Y@SRD.SRDEND.CLM-Y@SRD.ORG.CLM;
      809     8423    2      Y@SRD.CRT.LIN = Y@SRD.TOPLFT.LIN+Y@SRD.DVCLINBIS;
      810     8424    2      Y@SRD.CRTVRTLINPHSLIN = Y@SRD.CRT.LIN;
      811     8425    2      Y@SRD.ENTSRDCHR$ = ADDR(NIL);
      812     8426    2      Y@SRD.DVCLINBIS = 0;
      813     8427    2      Y@SRD.TOPLFT_PST = Y@SRD.ORG_PST+%BITBIN('10001'X);
      814     8428    2      %KV_MVD.WDT = Y@SRD.WDT;
      815     8429    2      Y@SRD.BTMRHT = Y@SRD.SRDEND;
      816     8430    2      Y@SRD.BRDUPD = Y@SRD.BRDEXS;
      817     8431    2      Y@SRD.HI_NONBLN = Y@SRD.BTMRHT;
      818     8432    2      Y@SRD.FLDEND = '0'B;
      819     8433    2      KV$PTR.SRD$ = KV@VDH_GETBFR.BFR$;
      820     8434    2      Y@SRD.MRD$ = KV$PTR.MRD$;
      821     8435    2      %KV_MVD.SRD$ = KV@VDH_GETBFR.BFR$;
      822     8436    2      IF %KV_MRD.USRCNT=2
      823     8437    2      THEN Y@SRD.LNK$->Y@SRD.ADJTOPLFT = ~Y@SRD.ADJTOPLFT;
      824     8438    2   END /* SUBROUTINE */;
      825     8439    1   END;
      826     8440        %EOD;

PL6.E3A0      #001=KVC$CNC File=KVC$CNC.:E05TSI                                  WED 07/30/97 01:54 Page:30
--  Include file information  --

   K_ID_E.:E05TOU  is referenced.
   LCP_6.:E05TOU  cannot be made into a system file and is referenced.
   KV_INT_M.:E05TOU  is referenced.
   KV$INPFNC.:E05TOU  is referenced.
   KV$BPC.:E05TOU  is referenced.
   KV_ERRORS_C.:E05TOU  is referenced.
   KL_MACRO_C.:E05TOU  is referenced.
   KL_AFCN_C.:E05TOU  is referenced.
   F_ERRORS_C.:E05TOU  is referenced.
   KV_PRMID_E.:E05TOU  was found in the system file and is referenced.
   KV_GLBCNS_E.:E05TOU  was found in the system file and is referenced.
   KV$VDO.:E05TOU  was found in the system file and is referenced.
   KV$VDH.:E05TOU  was found in the system file and is referenced.
   KV$USR.:E05TOU  was found in the system file and is referenced.
   KV$SND.:E05TOU  was found in the system file and is referenced.
   KV$INT.:E05TOU  was found in the system file and is referenced.
   KV$GLBCTX.:E05TOU  was found in the system file and is referenced.
   KV$GLB.:E05TOU  was found in the system file and is referenced.
   G_LCP6_E.:E05TOU  was found in the system file and is referenced.
   GT_LCP6_M.:E05TOU  was found in the system file and is referenced.
   KI_CP6.:E05TOU  was found in the system file and is referenced.
   GF_LCP6_M.:E05TOU  was found in the system file and is referenced.
   GM_LCP6_M.:E05TOU  was found in the system file and is referenced.
   GU_LCP6_M.:E05TOU  was found in the system file and is referenced.
   GJ_LCP6_M.:E05TOU  was found in the system file and is referenced.
   GH_LCP6_M.:E05TOU  was found in the system file and is referenced.
      No diagnostics issued in procedure KVC$CNC.

   Procedure KVC$CNC requires 2783 words for executable code.
   Procedure KVC$CNC requires 74 words of local(AUTO) storage.

PL6.E3A0      #001=KVC$CNC File=KVC$CNC.:E05TSI                                  WED 07/30/97 01:54 Page:31

 Object Unit name= KVC$CNC                                    File name= KVC$CNC.:E05TOU
 UTS= JUL 30 '97 01:54:49.00 WED                              Compiler= PL-6/E31         Sev=      00
 SharedLib= :SHARED_LCP6_SYSTEM                               Alt SharedLib=


    ****  Control sections  ****

 Sect   Type Bound  Init  Size HexSiz  Section name
    0  RoData even  UTS     35     23  KVC$CNC
    1   Proc  even  none  2783    ADF  KVC$CNC
    2  RoData even  none     2      2  KVC$CNC

    ****  Entry defs  ****

                              Check   Calling
                             calling  sequence
  Sect HexLoc Primary Altret sequence   type   Parms  Name
     1      0   yes    yes     yes      Std        1  KVC$CNC
     1    34B          yes     yes      Std        1  KVC$WINDOW1
     1    3EA          yes     yes      Std        1  KVC$WINDOW2
     1    4C4          yes     yes      Std        1  KVC$DCLSTR
     1    4F7          yes     yes      Std        1  KVC$OPNFRM

  ****  Data defs  ****

 Sect HexLoc  Name                           Sect HexLoc  Name
    0      0  KV_RCRLST
PL6.E3A0      #001=KVC$CNC File=KVC$CNC.:E05TSI                                  WED 07/30/97 01:54 Page:32

  ****  Entry refs  ****

         Check        Calling
        calling       sequence
Altret sequence SRef   type   Args  Name
 yes     yes           Std       1 KVS$GETBFR
 yes     yes           Std       0 KVV$CALUSR_PST
         yes           Std       0 KVO$ERSSRD
 yes     yes           Std       1 KVS$RLSBFR
         yes           Std       0 KVI$NEWINPFNCTBL
         yes           Std       0 KVC$RLSSTR
 yes     yes           Std       1 KVC$ADJWND
         yes           Std       1 KVP$SETPRM
         yes           Std       0 KVC$RLSSSNNO_CNC
         yes           Std       0 KVC$RLSFRM
 yes     yes           Std       1 KVM$SND
         yes           Std       0 KVC$RLSMVD
         yes           Std       0 KVC$DRWBRD
 yes     yes           Std       1 KVV$CALUSR_EVT
                       nStd      0 X6A_AUTO_1
                       nStd      0 X6A_ARET
                       nStd      0 X6A_AALT

  ****  Data refs  ****

  Flags:  r = read only, s = secondary
Flgs Name                             Flgs Name                             Flgs Name
r    KV_LIN                                KV$PTR$                               KV_ACTCHRTBLNRM
     KV_SSNCNT                             KV_SSNMAX                             KV_B_POOL$
r    KV_VDH_GETBFR                    r    KV_VDH_SETPRM                    r    KV_SND_CNC
     KV_SHRBFR_PRM1                        KV_SHRBFR_PRM2                        KV_SHRBFR_PRM3
r    KV_USR_EVT                       r    G$ROS$
PL6.E3A0      #001=KVC$CNC File=KVC$CNC.:E05TSI                                  WED 07/30/97 01:54 Page:33


        1        1        /*M* KVC$CNC - Initialize VDI context                                         */
        2        2        /*T***********************************************************/
        3        3        /*T*                                                         */
        4        4        /*T* Copyright (c) Bull HN Information Systems Inc., 1997    */
        5        5        /*T*                                                         */
        6        6        /*T***********************************************************/
        7        7        /*X*     NSO,PLM=3,SQB=Y,AND=Y,ENI=0,SDI=3,MCL=10,CSI=0,ECI=0,IND=0,IAD=3 */
        8        8        KVC$CNC: PROC (PRM) ALTRET;

      8   1 000000  D380 0000 0000  xent KVC$CNC         LNJ,B5   X6A_AUTO_1
          1 000003       004A 0001                       DC       74,1

        9        9
       10       10        /*F* NAME: KVC$CNC                                                            */
       11       11        /*F*                                                                          */
       12       12        /*F* KVC$CNC initializes the context needed for a VDH user. In its            */
       13       13        /*F* current state it will set up the entire context, but in later            */
       14       14        /*F* releases there will be seperate calls to initialize different            */
       15       15        /*F* sections of the context.                                                 */
       16       16
       17       17        %INCLUDE F_ERRORS_C;
       18      257        %INCLUDE KL_AFCN_C;
       19      358        %INCLUDE KL_MACRO_C;
       20     3710        %INCLUDE KV_ERRORS_C;
       21     3770 S      %INCLUDE KV_GLBCNS_E;
       22     3771        %KV_STRTYP_E;
       23     3809        %KV_VDH_EVT_ID_E;
       24     3815        %KV_USR_EVT_ID_E;
       25     3835        %INCLUDE KV$BPC;
       26     3864 S      %INCLUDE KV$GLBCTX;
       27     3865 S      %INCLUDE KV$GLB;
       28     3866        %INCLUDE KV$INPFNC;
       29     4425 S      %INCLUDE KV$INT;
       30     4426 S      %INCLUDE KV$SND;
       31     4427        %KV_SND_FNC_E;
       32     4443 S      %INCLUDE KV$VDH;
PL6.E3A0      #001=KVC$CNC File=KVC$CNC.:E05TSI                                  WED 07/30/97 01:54 Page:34
       33     4444 S      %INCLUDE KV$VDO;
       34     4445 S      %INCLUDE KV$USR;
       35     4446        %INCLUDE KV_INT_M;
       36     4589 S      %INCLUDE KV_PRMID_E;
       37     4590        %INCLUDE LCP_6;
       38     4781        %INCLUDE K_ID_E;
       39     4831        %K#ENTID_E;
       40     4850        %K#LYRID_E;
       41     4857        %KV_PRMID_E;
       42     5013        %KV_BFRRLSDSP_E;
       43     5019        %KV#VD_ORG_E;
       44     5027        %KV_SCP_E;
       45     5037        %KV_PHSPSTMOD_E;
       46     5044
       47     5045        %KV$BPC (STCLASS="BASED(KV_B_POOL$)");
       48     5067        %KV$INPFNCTBL;
       49     5151        %KV$LIN;
       50     5175        %KV$LIN (NAME=KV_LIN, STCLASS=SYMREF READONLY);
       51     5199        %KV$LINLST (STCLASS="BASED(KV@VDH_GETBFR.BFR$)");
       52     5226        %EQU KV_LINLST=CHARTEXT('KV$LINLST');
       53     5227        %KV$MRD;                                /*  MASTER REAL DEVICE CONTEXT BLOCK  */
       54     5274        %KV$PTR;                                /*  VDH POINTER BLOCK                 */
       55     5317        %KV$RCRLST (STCLASS="BASED(KV@VDH_GETBFR.BFR$)");
       56     5353        %EQU KV_RCRLST=CHARTEXT('KV$RCRLST');
       57     5354        %KV$RCRLST (NAME=KV_RCRLST, STCLASS=CONSTANT SYMDEF);
       58     5390        %KV$VDI;                                /*  VDI CONTEXT BLOCK                 */
       59     5461        %KV$SSN;                                /*  SESSION BLOCK                     */
       60     5540        %KV$STR;                                /*  STREAM CONTEXT BLOCK              */
       61     5627        %KV$STT;
       62     6021        %KV$MVD;                                /*  MASTER VIRTUAL DEVICE             */
       63     6065        %KV$SRD;                                /*  SECONDARY REAL DEVICE             */
       64     6340        %KV$TRCBFR;
       65     6398        %KV$TRCENT;
       66     6427        %KV$USRPRM;
       67     6478        %KV$SHRBFR;                             /*  SHARED BUFFER FORMAT              */
       68     6510    1   DCL KV_ACTCHRTBLNRM UBIN SYMREF;
       69     6511
PL6.E3A0      #001=KVC$CNC File=KVC$CNC.:E05TSI                                  WED 07/30/97 01:54 Page:35
       70     6512    1   DCL Y$PTR$ PTR BASED;
       71     6513
       72     6514    1   DCL CHR8 CHAR(8) BASED;
       73     6515    1   DCL KV_SSNCNT UBIN SYMREF;
       74     6516    1   DCL KV_SSNMAX UBIN SYMREF;
       75     6517
       76     6518    1   DCL KVC$ADJWND ENTRY(1) ALTRET;
       77     6519    1   DCL KVC$DRWBRD ENTRY;
       78     6520    1   DCL KVC$RLSFRM ENTRY;
       79     6521    1   DCL KVC$RLSSSNNO_CNC ENTRY;
       80     6522    1   DCL KVC$RLSMVD ENTRY;
       81     6523    1   DCL KVC$RLSSTR ENTRY;
       82     6524    1   DCL KVI$NEWINPFNCTBL ENTRY;
       83     6525    1   DCL KVO$ERSSRD ENTRY;
       84     6526    1   DCL KVP$SETPRM ENTRY(1);
       85     6527    1   DCL KVS$GETBFR ENTRY(1) ALTRET;
       86     6528    1   DCL KVS$RLSBFR ENTRY(1) ALTRET;
       87     6529    1   DCL KVV$CALUSR_EVT ENTRY(1) ALTRET;
       88     6530    1   DCL KVV$CALUSR_PST ENTRY ALTRET;
       89     6531    1   DCL KVM$SND ENTRY(1) ALTRET;
       90     6532
       91     6533    1   DCL KV_B_POOL$ PTR SYMREF;
       92     6534        %KV$VDH_GETBFR(NAME = KV_VDH_GETBFR, STCLASS = "SYMREF READONLY");
       93     6599        %KV$VDH_RLSBFR(NAME = KV_VDH_RLSBFR, STCLASS = "SYMREF READONLY");
       94     6635        %KV$VDH_SETPRM(NAME = KV_VDH_SETPRM, STCLASS = "SYMREF READONLY");
       95     6697        %KV$SND_CNC (NAME=KV_SND_CNC, STCLASS=SYMREF READONLY);
       96     6785
       97     6786        /* LOCAL VARIABLES                                                            */
       98     6787
       99     6788    1   DCL PRM CHAR(PRM_STRID);                /* Dummy parameter for redefs         */
      100     6789        %KV$VDH_CNC (NAME=PRM_VDH_CNC, STCLASS=REDEF PRM); /*  VDH CONNECT PARAMETER  */
      101     6881    1   DCL PRM_STRID REDEF PRM UBIN;
      102     6882        %VLP_WINDOW (FPTN=PRM_WINDOW, STCLASS=REDEF PRM);
      103     6926        %SET KV_VDO_FNC_OPNSTR = 0;
      104     6927        %KV$VDO_OPNSTR (NAME=PRM_VDO_OPNSTR, STCLASS=REDEF PRM);
      105     6970        %KV$VDH_GETBFR(NAME = KV@VDH_GETBFR, STCLASS = AUTO);
      106     7035        %KV$VDH_RLSBFR;
PL6.E3A0      #001=KVC$CNC File=KVC$CNC.:E05TSI                                  WED 07/30/97 01:54 Page:36
      107     7071        %EQU VDH_RLSBFR = CHARTEXT('ADDR(KV@VDH_GETBFR)->KV$VDH_RLSBFR');
      108     7072        %KV$VDH_SETPRM(NAME = KV@VDH_SETPRM, STCLASS = AUTO);
      109     7134        %KV$SND_CNC(NAME = KV@SND_CNC, STCLASS = AUTO);
      110     7222    1   DCL ORGPTR$ PTR;                        /* Original KV$PTR$                   */
      111     7223    1   DCL TEMP UBIN;
      112     7224    1   DCL STEMP REDEF TEMP SBIN;
      113     7225        %EJECT;
PL6.E3A0      #001=KVC$CNC File=KVC$CNC.:E05TSI                                  WED 07/30/97 01:54 Page:37
      114     7226
      115     7227        /* First check that there's a bit of memory left. */
      116     7228    1      TEMP = KV$BPC.USE/16;

   7228   1 000005  EC80 0000 0000  xsym                 LDB,B6   KV_B_POOL$
          1 000008  8CC6 0002                            LDI      2,B6
          1 00000A  70C4                                 DOR,R7   4
          1 00000B  E857                                 LDR,R6   R7
          1 00000C  EF47 003D                            STR,R6   TEMP,AUTO

      117     7229    1      IF KV_SSNCNT>0 THEN TEMP=TEMP/KV_SSNCNT;

   7229   1 00000E  D800 0000 0000  xsym                 LDR,R5   KV_SSNCNT
          1 000011  5901 0007                            BEZ,R5   s:7230,PREL

   7229   1 000013  F856                                 LDR,R7   R6
          1 000014  6C00                                 LDV,R6   0
          1 000015  F355                                 DIV,R7   R5
          1 000016  E857                                 LDR,R6   R7
          1 000017  EF47 003D                            STR,R6   TEMP,AUTO

      118     7230    1      IF KV$BPC.TOT-KV$BPC.USE<64*TEMP THEN GOTO CANTGETCTX;

   7230   1 000019  8C86                                 LDI      ,B6
          1 00001A  84C6 0002                            SID      2,B6
          1 00001C  8D47 0048                            SDI      @Y@SHRBFR+2,AUTO
          1 00001E  F847 003D                            LDR,R7   TEMP,AUTO
          1 000020  6C00                                 LDV,R6   0
          1 000021  7086                                 DOL,R7   6
          1 000022  84C7 0048                            SID      @Y@SHRBFR+2,AUTO
          1 000024  6A01 02E2                            BGZ,R6   s:7467,PREL
          1 000026  6801 0003                            BLZ,R6   s:7232,PREL
          1 000028  7981 02DE                            BNEZ,R7  s:7467,PREL

      119     7231
      120     7232    1      ORGPTR$ = KV$PTR$;

PL6.E3A0      #001=KVC$CNC File=KVC$CNC.:E05TSI                                  WED 07/30/97 01:54 Page:38
   7232   1 00002A  DC80 0000 0000  xsym                 LDB,B5   KV$PTR$
          1 00002D  DFC7 003B                            STB,B5   ORGPTR$,AUTO

      121     7233    1      KV@VDH_GETBFR = KV_VDH_GETBFR;

   7233   1 00002F  AB80 0000 0000  xsym                 LAB,B2   KV_VDH_GETBFR
          1 000032  2C00                                 LDV,R2   0
          1 000033  6C16                                 LDV,R6   22
          1 000034  BB87                                 LAB,B3   ,AUTO
          1 000035  3C0C                                 LDV,R3   12
          1 000036  0008                                 MMM

      122     7234    1      KV@VDH_GETBFR.SCRNO_MMR = '0'B;

   7234   1 000037  8847 000C                            LBF,'0001'X       KV@VDH_GETBFR+6,AUTO
   7234   1 000039       0001

      123     7235
      124     7236        /* Get KV$PTR for session, unless this is the first.                          */
      125     7237    2      IF KV$PTR.SSN$~=ADDR(NIL) THEN DO;

   7237   1 00003A  EC80 0000 0000  xsym                 LDB,B6   KV$PTR$
          1 00003D  8DC6 0002                            CMN      2,B6
          1 00003F  0901 0030                            BE       s:7258,PREL

      126     7238    3         IF %KV_VDI.SSNCNT=KV_SSNMAX THEN DO;

   7238   1 000041  DC86                                 LDB,B5   ,B6
          1 000042  E845 000E                            LDR,R6   14,B5
          1 000044  E900 0000 0000  xsym                 CMR,R6   KV_SSNMAX
          1 000047  0981 000D                            BNE      s:7246,PREL

      127     7239    3            IF KV$PTR.STR$~=ADDR(NIL)

   7239   1 000049  8DC6 0004                            CMN      4,B6
          1 00004B  0901 0007                            BE       s:7244,PREL

PL6.E3A0      #001=KVC$CNC File=KVC$CNC.:E05TSI                                  WED 07/30/97 01:54 Page:39
      128     7240    3            THEN %KV_STR.ERR.COD = %E$TOOMANYSSNS;

   7240   1 00004D  CCC6 0004                            LDB,B4   4,B6
          1 00004F  D870 05C6                            LDR,R5   1478,IMO
          1 000051  DF44 0013                            STR,R5   19,B4

      129     7241        /*E* ERROR: KVC-E$TOOMANYSSNS-C
      130     7242             MESSAGE: Too many sessions on the device to start another.
      131     7243        */
      132     7244    3            GOTO ERRXIT;

   7244   1 000053  0F81 02C0                            B        s:7469,PREL

      133     7245    3         END;
      134     7246    2         KV@VDH_GETBFR.STRTYP = %KV_STRTYP_PTR;

   7246   1 000055  5C10                                 LDV,R5   16
          1 000056  D7C7 000C                            STH,R5   KV@VDH_GETBFR+6,AUTO

      135     7247    2         CALL KVS$GETBFR(KV@VDH_GETBFR) ALTRET(CANTGETCTX);

   7247   1 000058  DBC7 0006                            LAB,B5   KV@VDH_GETBFR,AUTO
          1 00005A  DFC7 0048                            STB,B5   @Y@SHRBFR+2,AUTO
          1 00005C  BBC7 0048                            LAB,B3   @Y@SHRBFR+2,AUTO
          1 00005E  CBF0 0100                            LAB,B4   256,IMO
          1 000060  E380 0000 0000  xent                 LNJ,B6   KVS$GETBFR
          1 000063       02A4                            DC       s:7467,PREL

      136     7248
      137     7249        /* Set up the new session's synchronous KV$PTR.                               */
      138     7250
      139     7251    2         KV$PTR$ = KV@VDH_GETBFR.BFR$;

   7251   1 000064  ECC7 0007                            LDB,B6   KV@VDH_GETBFR+1,AUTO
          1 000066  EF80 0000 0000  xsym                 STB,B6   KV$PTR$

      140     7252    2         KV$PTR.VDI$ = ORGPTR$->KV$PTR.VDI$;
PL6.E3A0      #001=KVC$CNC File=KVC$CNC.:E05TSI                                  WED 07/30/97 01:54 Page:40

   7252   1 000069  DCC7 003B                            LDB,B5   ORGPTR$,AUTO
          1 00006B  CC85                                 LDB,B4   ,B5
          1 00006C  CF86                                 STB,B4   ,B6

      141     7253    2         CALL CALUSRGETSTR;

   7253   1 00006D  E3C0 081A                            LNJ,B6   s:0,PREL
          1 00006F       0001                            DC       s:7258,PREL

      142     7254    2      END;

      143     7255
      144     7256        /* Get session context.                                                       */
      145     7257
      146     7258    1      KV@VDH_GETBFR.STRTYP = %KV_STRTYP_SSN;

   7258   1 000070  6C13                                 LDV,R6   19
          1 000071  E7C7 000C                            STH,R6   KV@VDH_GETBFR+6,AUTO

      147     7259    2      CALL KVS$GETBFR(KV@VDH_GETBFR) WHENALTRETURN DO; /* GET SSN CONTEXT BLOCK  */

   7259   1 000073  EBC7 0006                            LAB,B6   KV@VDH_GETBFR,AUTO
          1 000075  EFC7 0048                            STB,B6   @Y@SHRBFR+2,AUTO
          1 000077  BBC7 0048                            LAB,B3   @Y@SHRBFR+2,AUTO
          1 000079  CBF0 0100                            LAB,B4   256,IMO
          1 00007B  E380 0000 0000  xent                 LNJ,B6   KVS$GETBFR
          1 00007E       0003                            DC       s:7260,PREL
          1 00007F  0F81 0020                            B        s:7270,PREL

      148     7260    2         KV@VDH_GETBFR.STRTYP = %KV_STRTYP_PTR;

   7260   1 000081  6C10                                 LDV,R6   16
          1 000082  E7C7 000C                            STH,R6   KV@VDH_GETBFR+6,AUTO

      149     7261    2         KV@VDH_GETBFR.BFR$ = KV$PTR$;

PL6.E3A0      #001=KVC$CNC File=KVC$CNC.:E05TSI                                  WED 07/30/97 01:54 Page:41
   7261   1 000084  EC80 0000 0000  xsym                 LDB,B6   KV$PTR$
          1 000087  EFC7 0007                            STB,B6   KV@VDH_GETBFR+1,AUTO

      150     7262    2         KV$PTR$ = ORGPTR$;

   7262   1 000089  DCC7 003B                            LDB,B5   ORGPTR$,AUTO
          1 00008B  DF80 0000 0000  xsym                 STB,B5   KV$PTR$

      151     7263    2         IF ORGPTR$~=KV@VDH_GETBFR.BFR$

   7263   1 00008E  DDC7 0007                            CMB,B5   KV@VDH_GETBFR+1,AUTO
          1 000090  0901 000D                            BE       s:7265,PREL

      152     7264    2         THEN CALL KVS$RLSBFR (KV@VDH_GETBFR);

   7264   1 000092  CBC7 0006                            LAB,B4   KV@VDH_GETBFR,AUTO
          1 000094  CFC7 0048                            STB,B4   @Y@SHRBFR+2,AUTO
          1 000096  BBC7 0048                            LAB,B3   @Y@SHRBFR+2,AUTO
          1 000098  CBF0 0100                            LAB,B4   256,IMO
          1 00009A  E380 0000 0000  xent                 LNJ,B6   KVS$RLSBFR
          1 00009D       0001                            DC       s:7265,PREL

      153     7265    2         GOTO CANTGETCTX;

   7265   1 00009E  0F81 0268                            B        s:7467,PREL

      154     7266    2      END;
      155     7267
      156     7268        /* Link the new KV$SSN in at the head of the KV$SSN chain. */
      157     7269
      158     7270    1      KV@VDH_GETBFR.BFR$->KV$SSN.LNK$ = %KV_VDI.SSN$;

   7270   1 0000A0  EC80 0000 0000  xsym                 LDB,B6   KV$PTR$
          1 0000A3  DC86                                 LDB,B5   ,B6
          1 0000A4  CCC5 0004                            LDB,B4   4,B5
          1 0000A6  BCC7 0007                            LDB,B3   KV@VDH_GETBFR+1,AUTO
          1 0000A8  CFC3 0002                            STB,B4   2,B3
PL6.E3A0      #001=KVC$CNC File=KVC$CNC.:E05TSI                                  WED 07/30/97 01:54 Page:42

      159     7271    1      %KV_VDI.SSN$ = KV@VDH_GETBFR.BFR$;

   7271   1 0000AA  DC86                                 LDB,B5   ,B6
          1 0000AB  CCC7 0007                            LDB,B4   KV@VDH_GETBFR+1,AUTO
          1 0000AD  CFC5 0004                            STB,B4   4,B5

      160     7272    1      KV$PTR.SSN$ = KV@VDH_GETBFR.BFR$;

   7272   1 0000AF  DCC7 0007                            LDB,B5   KV@VDH_GETBFR+1,AUTO
          1 0000B1  DFC6 0002                            STB,B5   2,B6

      161     7273    1      KV@VDH_GETBFR.BFR$->KV$SSN.SNCPTR$ = KV$PTR$;

   7273   1 0000B3  CCC7 0007                            LDB,B4   KV@VDH_GETBFR+1,AUTO
          1 0000B5  EFC4 0008                            STB,B6   8,B4

      162     7274    1      KV@VDH_GETBFR.BFR$->KV$SSN.VDI$ = KV$PTR.VDI$;

   7274   1 0000B7  DC86                                 LDB,B5   ,B6
          1 0000B8  CCC7 0007                            LDB,B4   KV@VDH_GETBFR+1,AUTO
          1 0000BA  DF84                                 STB,B5   ,B4

      163     7275    1      CALL CALUSRGETSTR;

   7275   1 0000BB  E3C0 07CC                            LNJ,B6   s:0,PREL
          1 0000BD       0001                            DC       s:7277,PREL

      164     7276
      165     7277    2      IF %KV_VDI.TRCBFR$ ~= ADDR(NIL) THEN DO;

   7277   1 0000BE  EC80 0000 0000  xsym                 LDB,B6   KV$PTR$
          1 0000C1  DC86                                 LDB,B5   ,B6
          1 0000C2  8DC5 0012                            CMN      18,B5
          1 0000C4  0901 002B                            BE       s:7298,PREL

      166     7278        /*
PL6.E3A0      #001=KVC$CNC File=KVC$CNC.:E05TSI                                  WED 07/30/97 01:54 Page:43
      167     7279        KV$VDI has a trace buffer.
      168     7280        */
      169     7281    3         IF %KV_VDI.SHRTRCBFR THEN DO;

   7281   1 0000C6  82C5 001D                            LB,'0002'X        29,B5
   7281   1 0000C8       0002
          1 0000C9  0581 0009                            BBF      s:7290,PREL

      170     7282        /*
      171     7283        We're to share trace buffers between KV$VDI and KV$SSN.
      172     7284        */
      173     7285    3            %KV_SSN.TRCBFR$ = %KV_VDI.TRCBFR$;

   7285   1 0000CB  CCC6 0002                            LDB,B4   2,B6
          1 0000CD  BCC5 0012                            LDB,B3   18,B5
          1 0000CF  BFC4 0010                            STB,B3   16,B4

      174     7286    3         END; ELSE DO;                     /* ELSE IF NOT SHRTRCBFR              */

   7286   1 0000D1  0F81 001E                            B        s:7298,PREL

      175     7287        /*
      176     7288        We're to get a separate trace buffer for this session.
      177     7289        */
      178     7290    3            KV@VDH_GETBFR.STRTYP = %KV_STRTYP_TRCBFR;

   7290   1 0000D3  6C21                                 LDV,R6   33
          1 0000D4  E7C7 000C                            STH,R6   KV@VDH_GETBFR+6,AUTO

      179     7291    3            KV@VDH_GETBFR.BYTSIZ = %KV_VDI.TRCBFRBYTSIZ;

   7291   1 0000D6  DC86                                 LDB,B5   ,B6
          1 0000D7  D845 0014                            LDR,R5   20,B5
          1 0000D9  DF47 0009                            STR,R5   KV@VDH_GETBFR+3,AUTO

      180     7292    3            CALL KVS$GETBFR(KV@VDH_GETBFR)

PL6.E3A0      #001=KVC$CNC File=KVC$CNC.:E05TSI                                  WED 07/30/97 01:54 Page:44
   7292   1 0000DB  DBC7 0006                            LAB,B5   KV@VDH_GETBFR,AUTO
          1 0000DD  DFC7 0048                            STB,B5   @Y@SHRBFR+2,AUTO
          1 0000DF  BBC7 0048                            LAB,B3   @Y@SHRBFR+2,AUTO
          1 0000E1  CBF0 0100                            LAB,B4   256,IMO
          1 0000E3  E380 0000 0000  xent                 LNJ,B6   KVS$GETBFR
          1 0000E6       000A                            DC       s:7298,PREL

      181     7293    4            WHENRETURN DO;

      182     7294    4               %KV_SSN.TRCBFR$ = KV@VDH_GETBFR.BFR$;

   7294   1 0000E7  EC80 0000 0000  xsym                 LDB,B6   KV$PTR$
          1 0000EA  DCC6 0002                            LDB,B5   2,B6
          1 0000EC  CCC7 0007                            LDB,B4   KV@VDH_GETBFR+1,AUTO
          1 0000EE  CFC5 0010                            STB,B4   16,B5

      183     7295    4            END;                           /* END WHENRETURN                     */

      184     7296    3         END;                              /* END ELSE IF SHRTRCBFR              */

      185     7297    2      END; /* END IF KV$VDI.TRCBFR$ ~= NIL */

      186     7298    2      IF PRM_VDH_CNC.SSNCNCINT THEN DO;

   7298   1 0000F0  ECC7 0004                            LDB,B6   @PRM,AUTO
          1 0000F2  89C6 000A                            CMZ      10,B6
          1 0000F4  0881 0012                            BAGE     s:7306,PREL

      187     7299        /*
      188     7300        We're initiating the session connection (as opposed to
      189     7301        processing a received session-initiation/connection request).
      190     7302        */
      191     7303    2         %KV_SSN.SSNCNCINT = '1'B;

   7303   1 0000F6  DC80 0000 0000  xsym                 LDB,B5   KV$PTR$
          1 0000F9  CCC5 0002                            LDB,B4   2,B5
          1 0000FB  8944 0028                            LBT,'0008'X       40,B4
PL6.E3A0      #001=KVC$CNC File=KVC$CNC.:E05TSI                                  WED 07/30/97 01:54 Page:45
          1 0000FD       0008

      192     7304    2         %KV_VDI.LINSPD = PRM_VDH_CNC.LINSPD;

   7304   1 0000FE  CC85                                 LDB,B4   ,B5
          1 0000FF  E846 000A                            LDR,R6   10,B6
          1 000101  E570 00FF                            AND,R6   255,IMO
          1 000103  E7C4 001E                            STH,R6   30,B4

      193     7305    2      END; /* END IF PRM_VDH_CNC.SSNCNCINT */

   7305   1 000105  0F81 0019                            B        s:7309,PREL

      194     7306    1      ELSE IF PRM_VDH_CNC.NEWSSN THEN %KV_SSN.SSNCNCINT = '1'B;

   7306   1 000107  82C6 000A                            LB,'4000'X        10,B6
   7306   1 000109       4000
          1 00010A  0581 000B                            BBF      s:7307,PREL

   7306   1 00010C  DC80 0000 0000  xsym                 LDB,B5   KV$PTR$
          1 00010F  CCC5 0002                            LDB,B4   2,B5
          1 000111  8944 0028                            LBT,'0008'X       40,B4
          1 000113       0008
          1 000114  0F81 000A                            B        s:7309,PREL

      195     7307    1      ELSE %KV_SSN.SSNCNCID = PRM_VDH_CNC.DSTNTWADR.LDCTX;

   7307   1 000116  DC80 0000 0000  xsym                 LDB,B5   KV$PTR$
          1 000119  CCC5 0002                            LDB,B4   2,B5
          1 00011B  E846 0014                            LDR,R6   20,B6
          1 00011D  EF44 0024                            STR,R6   36,B4

      196     7308
      197     7309    2      IF %KV_SSN.LNK$ = ADDR(NIL) THEN DO;

   7309   1 00011F  CCC5 0002                            LDB,B4   2,B5
          1 000121  8DC4 0002                            CMN      2,B4
PL6.E3A0      #001=KVC$CNC File=KVC$CNC.:E05TSI                                  WED 07/30/97 01:54 Page:46
          1 000123  0981 008F                            BNE      s:7359,PREL

      198     7310        /*
      199     7311        This is the first session on this chain of sessions.
      200     7312        Allocate some context that would otherwise be shared among
      201     7313        the sessions.
      202     7314        */
      203     7315
      204     7316        /* GET KV$MVD                                                                 */
      205     7317
      206     7318    2         KV@VDH_GETBFR.STRTYP = %KV_STRTYP_MVD;

   7318   1 000125  6C0C                                 LDV,R6   12
          1 000126  E7C7 000C                            STH,R6   KV@VDH_GETBFR+6,AUTO

      207     7319    2         CALL KVS$GETBFR(KV@VDH_GETBFR) ALTRET(BUMMER);

   7319   1 000128  CBC7 0006                            LAB,B4   KV@VDH_GETBFR,AUTO
          1 00012A  CFC7 0048                            STB,B4   @Y@SHRBFR+2,AUTO
          1 00012C  BBC7 0048                            LAB,B3   @Y@SHRBFR+2,AUTO
          1 00012E  CBF0 0100                            LAB,B4   256,IMO
          1 000130  E380 0000 0000  xent                 LNJ,B6   KVS$GETBFR
          1 000133       01C9                            DC       s:7465,PREL

      208     7320
      209     7321    2         KV$PTR.MVD$ = KV@VDH_GETBFR.BFR$;

   7321   1 000134  ECC7 0007                            LDB,B6   KV@VDH_GETBFR+1,AUTO
          1 000136  DC80 0000 0000  xsym                 LDB,B5   KV$PTR$
          1 000139  EFC5 0006                            STB,B6   6,B5

      210     7322
      211     7323    2         IF %KV_USRPRM.INPFNCTBLHEDPTR$~=ADDR(NIL)

   7323   1 00013B  CC85                                 LDB,B4   ,B5
          1 00013C  BCC4 0008                            LDB,B3   8,B4
          1 00013E  8DC3 002F                            CMN      47,B3
PL6.E3A0      #001=KVC$CNC File=KVC$CNC.:E05TSI                                  WED 07/30/97 01:54 Page:47
          1 000140  0901 0008                            BE       s:7327,PREL

      212     7324    2         THEN KV@VDH_GETBFR.BFR$->KV$MVD.SSTINPFNCTBL$ =

   7324   1 000142  ACC3 002F                            LDB,B2   47,B3
          1 000144  9C82                                 LDB,B1   ,B2
          1 000145  ECC7 0007                            LDB,B6   KV@VDH_GETBFR+1,AUTO
          1 000147  9FC6 000A                            STB,B1   10,B6

      213     7325    2           %KV_USRPRM.INPFNCTBLHEDPTR$->Y$PTR$;
      214     7326        /* Set the default translate table, in case there's no profile */
      215     7327    2         IF %KV_USRPRM.TRNTBLHEDPTR$~=ADDR(NIL)

   7327   1 000149  EC85                                 LDB,B6   ,B5
          1 00014A  CCC6 0008                            LDB,B4   8,B6
          1 00014C  8DC4 0031                            CMN      49,B4
          1 00014E  0901 0008                            BE       s:7330,PREL

      216     7328    2         THEN KV@VDH_GETBFR.BFR$->KV$MVD.TRNTBL$ =

   7328   1 000150  BCC4 0031                            LDB,B3   49,B4
          1 000152  AC83                                 LDB,B2   ,B3
          1 000153  9CC7 0007                            LDB,B1   KV@VDH_GETBFR+1,AUTO
          1 000155  AFC1 000E                            STB,B2   14,B1

      217     7329    2           %KV_USRPRM.TRNTBLHEDPTR$->Y$PTR$;
      218     7330    2         CALL CALUSRGETSTR;

   7330   1 000157  E3C0 0730                            LNJ,B6   s:0,PREL
          1 000159       0001                            DC       s:7334,PREL

      219     7331
      220     7332        /* GET KV$SRD                                                                 */
      221     7333
      222     7334    2         KV@VDH_GETBFR.STRTYP = %KV_STRTYP_SRD;

   7334   1 00015A  6C12                                 LDV,R6   18
PL6.E3A0      #001=KVC$CNC File=KVC$CNC.:E05TSI                                  WED 07/30/97 01:54 Page:48
          1 00015B  E7C7 000C                            STH,R6   KV@VDH_GETBFR+6,AUTO

      223     7335    2         CALL KVS$GETBFR(KV@VDH_GETBFR) ALTRET(BUMMER);

   7335   1 00015D  EBC7 0006                            LAB,B6   KV@VDH_GETBFR,AUTO
          1 00015F  EFC7 0048                            STB,B6   @Y@SHRBFR+2,AUTO
          1 000161  BBC7 0048                            LAB,B3   @Y@SHRBFR+2,AUTO
          1 000163  CBF0 0100                            LAB,B4   256,IMO
          1 000165  E380 0000 0000  xent                 LNJ,B6   KVS$GETBFR
          1 000168       0194                            DC       s:7465,PREL

      224     7336
      225     7337    2         KV$PTR.SRD$ = KV@VDH_GETBFR.BFR$;

   7337   1 000169  ECC7 0007                            LDB,B6   KV@VDH_GETBFR+1,AUTO
          1 00016B  DC80 0000 0000  xsym                 LDB,B5   KV$PTR$
          1 00016E  EFC5 000A                            STB,B6   10,B5

      226     7338    2         %KV_MVD.SRD$ = KV@VDH_GETBFR.BFR$;

   7338   1 000170  CCC5 0006                            LDB,B4   6,B5
          1 000172  EF84                                 STB,B6   ,B4

      227     7339    2         CALL CALUSRGETSTR;

   7339   1 000173  E3C0 0714                            LNJ,B6   s:0,PREL
          1 000175       0001                            DC       s:7343,PREL

      228     7340
      229     7341        /* GET KV$MRD FOR DEVICE                                                      */
      230     7342
      231     7343    2         KV@VDH_GETBFR.STRTYP = %KV_STRTYP_MRD;

   7343   1 000176  6C0A                                 LDV,R6   10
          1 000177  E7C7 000C                            STH,R6   KV@VDH_GETBFR+6,AUTO

      232     7344    2         CALL KVS$GETBFR(KV@VDH_GETBFR) ALTRET(BUMMER);
PL6.E3A0      #001=KVC$CNC File=KVC$CNC.:E05TSI                                  WED 07/30/97 01:54 Page:49

   7344   1 000179  EBC7 0006                            LAB,B6   KV@VDH_GETBFR,AUTO
          1 00017B  EFC7 0048                            STB,B6   @Y@SHRBFR+2,AUTO
          1 00017D  BBC7 0048                            LAB,B3   @Y@SHRBFR+2,AUTO
          1 00017F  CBF0 0100                            LAB,B4   256,IMO
          1 000181  E380 0000 0000  xent                 LNJ,B6   KVS$GETBFR
          1 000184       0178                            DC       s:7465,PREL

      233     7345
      234     7346    2         KV$PTR.MRD$ = KV@VDH_GETBFR.BFR$;

   7346   1 000185  ECC7 0007                            LDB,B6   KV@VDH_GETBFR+1,AUTO
          1 000187  DC80 0000 0000  xsym                 LDB,B5   KV$PTR$
          1 00018A  EFC5 0008                            STB,B6   8,B5

      235     7347    2         KV@VDH_GETBFR.BFR$->KV$MRD.SRD$ = KV$PTR.SRD$;

   7347   1 00018C  CCC5 000A                            LDB,B4   10,B5
          1 00018E  BCC7 0007                            LDB,B3   KV@VDH_GETBFR+1,AUTO
          1 000190  CFC3 0002                            STB,B4   2,B3

      236     7348    2         KV@VDH_GETBFR.BFR$->KV$MRD.MVD$ = KV$PTR.MVD$;

   7348   1 000192  ECC5 0006                            LDB,B6   6,B5
          1 000194  CCC7 0007                            LDB,B4   KV@VDH_GETBFR+1,AUTO
          1 000196  EFC4 000D                            STB,B6   13,B4

      237     7349    2         IF %KV_USRPRM.PRFFNCTBL$~=ADDR(NIL)

   7349   1 000198  BC85                                 LDB,B3   ,B5
          1 000199  ACC3 0008                            LDB,B2   8,B3
          1 00019B  8DC2 0037                            CMN      55,B2
          1 00019D  0901 0005                            BE       s:7351,PREL

      238     7350    2         THEN KV@VDH_GETBFR.BFR$->KV$MRD.PRFINPFNCTBL$ = %KV_USRPRM.PRFFNCTBL$;

   7350   1 00019F  9CC2 0037                            LDB,B1   55,B2
PL6.E3A0      #001=KVC$CNC File=KVC$CNC.:E05TSI                                  WED 07/30/97 01:54 Page:50
          1 0001A1  9FC4 0006                            STB,B1   6,B4

      239     7351    2         %KV_SRD.MRD$ = KV@VDH_GETBFR.BFR$;

   7351   1 0001A3  ECC5 000A                            LDB,B6   10,B5
          1 0001A5  CCC7 0007                            LDB,B4   KV@VDH_GETBFR+1,AUTO
          1 0001A7  CF86                                 STB,B4   ,B6

      240     7352    2         CALL CALUSRGETSTR;

   7352   1 0001A8  E3C0 06DF                            LNJ,B6   s:0,PREL
          1 0001AA       0001                            DC       s:7353,PREL

      241     7353    2         CALL KVI$NEWINPFNCTBL;

   7353   1 0001AB  CBF0 0000                            LAB,B4   0,IMO
          1 0001AD  E380 0000 0000  xent                 LNJ,B6   KVI$NEWINPFNCTBL
          1 0001B0       0001                            DC       s:7354,PREL

      242     7354    2      END; ELSE DO;

   7354   1 0001B1  0F81 003B                            B        s:7379,PREL

      243     7355        /*
      244     7356        We're adding another session to this instance of VDI.
      245     7357        Share some context we'd otherwise allocate.
      246     7358        */
      247     7359    2         KV@VDH_GETBFR.BFR$ = %KV_SSN.LNK$;

   7359   1 0001B3  BCC4 0002                            LDB,B3   2,B4
          1 0001B5  BFC7 0007                            STB,B3   KV@VDH_GETBFR+1,AUTO

      248     7360    2         KV$PTR.MRD$ = ORGPTR$->KV$PTR.MRD$;

   7360   1 0001B7  CCC7 003B                            LDB,B4   ORGPTR$,AUTO
          1 0001B9  ACC4 0008                            LDB,B2   8,B4
          1 0001BB  AFC5 0008                            STB,B2   8,B5
PL6.E3A0      #001=KVC$CNC File=KVC$CNC.:E05TSI                                  WED 07/30/97 01:54 Page:51

      249     7361    2         KV$PTR.SRD$ = ORGPTR$->KV$PTR.SRD$;

   7361   1 0001BD  BCC4 000A                            LDB,B3   10,B4
          1 0001BF  BFC5 000A                            STB,B3   10,B5

      250     7362    2         KV$PTR.MVD$ = ORGPTR$->KV$PTR.MVD$;

   7362   1 0001C1  9CC4 0006                            LDB,B1   6,B4
          1 0001C3  9FC5 0006                            STB,B1   6,B5

      251     7363        /*
      252     7364           Compute a unique SSNID for this session.
      253     7365        */
      254     7366    2         TEMP = 1;

   7366   1 0001C5  6C01                                 LDV,R6   1
          1 0001C6  EF47 003D                            STR,R6   TEMP,AUTO

      255     7367    3         DO WHILE KV@VDH_GETBFR.BFR$~=ADDR(NIL);

   7367   1 0001C8  0F81 0018                            B        s:7373,PREL

      256     7368    4            IF TEMP=KV@VDH_GETBFR.BFR$->KV$SSN.SSNID THEN DO;

   7368   1 0001CA  ECC7 0007                            LDB,B6   KV@VDH_GETBFR+1,AUTO
          1 0001CC  E2C6 0037                            LLH,R6   55,B6
          1 0001CE  E947 003D                            CMR,R6   TEMP,AUTO
          1 0001D0  0981 000A                            BNE      s:7372,PREL

      257     7369    4               TEMP = TEMP+1;

   7369   1 0001D2  8AC7 003D                            INC      TEMP,AUTO

      258     7370    4               KV@VDH_GETBFR.BFR$ = KV$PTR.SSN$;

   7370   1 0001D4  DC80 0000 0000  xsym                 LDB,B5   KV$PTR$
PL6.E3A0      #001=KVC$CNC File=KVC$CNC.:E05TSI                                  WED 07/30/97 01:54 Page:52
          1 0001D7  CCC5 0002                            LDB,B4   2,B5
          1 0001D9  CFC7 0007                            STB,B4   KV@VDH_GETBFR+1,AUTO

      259     7371    4            END;

      260     7372    3            KV@VDH_GETBFR.BFR$ = KV@VDH_GETBFR.BFR$->KV$SSN.LNK$;

   7372   1 0001DB  ECC7 0007                            LDB,B6   KV@VDH_GETBFR+1,AUTO
          1 0001DD  DCC6 0002                            LDB,B5   2,B6
          1 0001DF  DFC7 0007                            STB,B5   KV@VDH_GETBFR+1,AUTO

      261     7373    3         END;

   7373   1 0001E1  8DC7 0007                            CMN      KV@VDH_GETBFR+1,AUTO
          1 0001E3  09E7                                 BNE      s:7368,SPREL

      262     7374    2         %KV_SSN.SSNID = TEMP;

   7374   1 0001E4  EC80 0000 0000  xsym                 LDB,B6   KV$PTR$
          1 0001E7  DCC6 0002                            LDB,B5   2,B6
          1 0001E9  E847 003D                            LDR,R6   TEMP,AUTO
          1 0001EB  E7C5 0037                            STH,R6   55,B5

      263     7375    2      END; /* END ELSE IF %KV_SSN.LNK$ = ADR(NIL) */

      264     7376
      265     7377        /* Get type-ahead buffer.                                                     */
      266     7378
      267     7379    1      KV@VDH_GETBFR.STRTYP = %KV_STRTYP_TYPAHDBFR;

   7379   1 0001ED  6C19                                 LDV,R6   25
          1 0001EE  E7C7 000C                            STH,R6   KV@VDH_GETBFR+6,AUTO

      268     7380    1      CALL KVS$GETBFR(KV@VDH_GETBFR) ALTRET(BUMMER);

   7380   1 0001F0  EBC7 0006                            LAB,B6   KV@VDH_GETBFR,AUTO
          1 0001F2  EFC7 0048                            STB,B6   @Y@SHRBFR+2,AUTO
PL6.E3A0      #001=KVC$CNC File=KVC$CNC.:E05TSI                                  WED 07/30/97 01:54 Page:53
          1 0001F4  BBC7 0048                            LAB,B3   @Y@SHRBFR+2,AUTO
          1 0001F6  CBF0 0100                            LAB,B4   256,IMO
          1 0001F8  E380 0000 0000  xent                 LNJ,B6   KVS$GETBFR
          1 0001FB       0101                            DC       s:7465,PREL

      269     7381
      270     7382    1      %KV_SSN.TYPAHDBFRHED$ = KV@VDH_GETBFR.BFR$;

   7382   1 0001FC  EC80 0000 0000  xsym                 LDB,B6   KV$PTR$
          1 0001FF  DCC6 0002                            LDB,B5   2,B6
          1 000201  CCC7 0007                            LDB,B4   KV@VDH_GETBFR+1,AUTO
          1 000203  CFC5 000A                            STB,B4   10,B5

      271     7383    1      %KV_SSN.TYPAHDBFRINS$ = KV@VDH_GETBFR.BFR$;

   7383   1 000205  DCC6 0002                            LDB,B5   2,B6
          1 000207  CFC5 000E                            STB,B4   14,B5

      272     7384    1      %KV_SSN.TYPAHDBFRCNT = 1;

   7384   1 000209  DCC6 0002                            LDB,B5   2,B6
          1 00020B  6C01                                 LDV,R6   1
          1 00020C  E7C5 0027                            STH,R6   39,B5

      273     7385
      274     7386        /* GET ONE STREAM                                                              */
      275     7387
      276     7388    1      IF NOT PRM_VDH_CNC.NEWSSN            /* Unless we already have one to use. */

   7388   1 00020E  DCC7 0004                            LDB,B5   @PRM,AUTO
          1 000210  82C5 000A                            LB,'4000'X        10,B5
          1 000212       4000
          1 000213  0501 000A                            BBT      s:7391,PREL

      277     7389    1      THEN CALL Y$GETSTR(1) ALTRET(BUMMER);

   7389   1 000215  BBF0 0001                            LAB,B3   1,IMO
PL6.E3A0      #001=KVC$CNC File=KVC$CNC.:E05TSI                                  WED 07/30/97 01:54 Page:54
          1 000217  BFC7 0040                            STB,B3   TEMP+3,AUTO
          1 000219  E3C0 05D9                            LNJ,B6   s:0,PREL
          1 00021B       00E1                            DC       s:7465,PREL
          1 00021C  0F81 0029                            B        s:7401,PREL

      278     7390    2      ELSE DO;

      279     7391    2         %KV_SSN.STR$ = ORGPTR$->KV$PTR.STR$;

   7391   1 00021E  BCC6 0002                            LDB,B3   2,B6
          1 000220  ACC7 003B                            LDB,B2   ORGPTR$,AUTO
          1 000222  9CC2 0004                            LDB,B1   4,B2
          1 000224  9FC3 0004                            STB,B1   4,B3

      280     7392    2         KV$PTR.STR$ = ORGPTR$->KV$PTR.STR$;

   7392   1 000226  CCC2 0004                            LDB,B4   4,B2
          1 000228  CFC6 0004                            STB,B4   4,B6

      281     7393    2         %KV_STR.SSN$ = KV$PTR.SSN$;

   7393   1 00022A  BCC6 0002                            LDB,B3   2,B6
          1 00022C  BF84                                 STB,B3   ,B4

      282     7394    2         %KV_STR.ID = 1;

   7394   1 00022D  EC80 0000 0000  xsym                 LDB,B6   KV$PTR$
          1 000230  CCC6 0004                            LDB,B4   4,B6
          1 000232  E7C4 001C                            STH,R6   28,B4

      283     7395    2         KV$PTR.SSN$ = ORGPTR$->KV$PTR.SSN$;

   7395   1 000234  CCC2 0002                            LDB,B4   2,B2
          1 000236  CFC6 0002                            STB,B4   2,B6

      284     7396    2         CALL KVC$RLSSTR;                  /* Unchain from the old session       */

PL6.E3A0      #001=KVC$CNC File=KVC$CNC.:E05TSI                                  WED 07/30/97 01:54 Page:55
   7396   1 000238  CBF0 0000                            LAB,B4   0,IMO
          1 00023A  E380 0000 0000  xent                 LNJ,B6   KVC$RLSSTR
          1 00023D       0001                            DC       s:7397,PREL

      285     7397    2         KV$PTR.SSN$ = %KV_STR.SSN$;

   7397   1 00023E  EC80 0000 0000  xsym                 LDB,B6   KV$PTR$
          1 000241  DCC6 0004                            LDB,B5   4,B6
          1 000243  CC85                                 LDB,B4   ,B5
          1 000244  CFC6 0002                            STB,B4   2,B6

      286     7398        /*N* Account for moved structures. Put a valid stream into ORGPTR. */
      287     7399    2      END;

      288     7400
      289     7401    2      IF PRM_VDH_CNC.PRF_.ADR$~=ADDR(NIL) THEN DO;

   7401   1 000246  ECC7 0004                            LDB,B6   @PRM,AUTO
          1 000248  8DC6 0001                            CMN      1,B6
          1 00024A  0901 001E                            BE       s:7413,PREL

      290     7402
      291     7403        /* SET PROFILE FOR THIS USER                                                  */
      292     7404
      293     7405    2         KV@VDH_SETPRM = KV_VDH_SETPRM;

   7405   1 00024C  AB80 0000 0000  xsym                 LAB,B2   KV_VDH_SETPRM
          1 00024F  2C00                                 LDV,R2   0
          1 000250  6C10                                 LDV,R6   16
          1 000251  BB87                                 LAB,B3   ,AUTO
          1 000252  3C22                                 LDV,R3   34
          1 000253  0008                                 MMM

      294     7406    2         KV@VDH_SETPRM.PRMID = %KV_PRMID_TYPLNG;

   7406   1 000254  6C3F                                 LDV,R6   63
          1 000255  EF47 0012                            STR,R6   KV@VDH_SETPRM+1,AUTO
PL6.E3A0      #001=KVC$CNC File=KVC$CNC.:E05TSI                                  WED 07/30/97 01:54 Page:56

      295     7407    2         KV@VDH_SETPRM.VAL_ = PRM_VDH_CNC.PRF_;

   7407   1 000257  AB86                                 LAB,B2   ,B6
          1 000258  2C02                                 LDV,R2   2
          1 000259  6C08                                 LDV,R6   8
          1 00025A  BB87                                 LAB,B3   ,AUTO
          1 00025B  3C28                                 LDV,R3   40
          1 00025C  0008                                 MMM

      296     7408    2         CALL KVP$SETPRM(KV@VDH_SETPRM);

   7408   1 00025D  DBC7 0011                            LAB,B5   KV@VDH_SETPRM,AUTO
          1 00025F  DFC7 0048                            STB,B5   @Y@SHRBFR+2,AUTO
          1 000261  BBC7 0048                            LAB,B3   @Y@SHRBFR+2,AUTO
          1 000263  CBF0 0100                            LAB,B4   256,IMO
          1 000265  E380 0000 0000  xent                 LNJ,B6   KVP$SETPRM
          1 000268       0001                            DC       s:7413,PREL

      297     7409    2      END; /* END IF PRM_VDH_CNC.PRF_.ADR$~=ADDR(NIL) */

      298     7410
      299     7411        /* CALL KVM$SND to start the connection protocol. */
      300     7412
      301     7413    1      KV@SND_CNC = KV_SND_CNC;

   7413   1 000269  AB80 0000 0000  xsym                 LAB,B2   KV_SND_CNC
          1 00026C  2C00                                 LDV,R2   0
          1 00026D  6C44                                 LDV,R6   68
          1 00026E  BB87                                 LAB,B3   ,AUTO
          1 00026F  3C32                                 LDV,R3   50
          1 000270  0008                                 MMM

      302     7414    1      KV@SND_CNC.LGN_ = PRM_VDH_CNC.LGN_;

   7414   1 000271  ACC7 0004                            LDB,B2   @PRM,AUTO
          1 000273  2C0E                                 LDV,R2   14
PL6.E3A0      #001=KVC$CNC File=KVC$CNC.:E05TSI                                  WED 07/30/97 01:54 Page:57
          1 000274  6C06                                 LDV,R6   6
          1 000275  BB87                                 LAB,B3   ,AUTO
          1 000276  3C52                                 LDV,R3   82
          1 000277  0008                                 MMM

      303     7415    1      KV@SND_CNC.SCNENDPNTID = PRM_VDH_CNC.LCLENDPNTID;

   7415   1 000278  2C16                                 LDV,R2   22
          1 000279  6C10                                 LDV,R6   16
          1 00027A  BB87                                 LAB,B3   ,AUTO
          1 00027B  3C5A                                 LDV,R3   90
          1 00027C  0008                                 MMM

      304     7416        /*N* Need to get SCN/LCLENDPNDID from user, via GETPRM */
      305     7417        /*N* Get PRF_ from user, via GETPRM? */
      306     7418    1      KV@SND_CNC.LINSPD = %KV_VDI.LINSPD;

   7418   1 00027D  EC80 0000 0000  xsym                 LDB,B6   KV$PTR$
          1 000280  DC86                                 LDB,B5   ,B6
          1 000281  E2C5 001E                            LLH,R6   30,B5
          1 000283  EAC7 002C                            SRM,R6,'00FF'X    KV@SND_CNC+19,AUTO
          1 000285       00FF

      307     7419    1      IF (PRM_VDH_CNC.DSTNTWRSR = ' ')

   7419   1 000286  DB80 0000 0000  02                   LAB,B5   0
          1 000289  0022                                 ACM      ;
          1 00028A       4802 0015                                ALPHANUM(21,B2,,8,FILL),;
          1 00028C       4105 0000                                ALPHANUM(0,B5,,1,FILL)
          1 00028E  5301 001C                            CBNE     s:7432,PREL
          1 000290  DB80 0000 0000  02                   LAB,B5   0
          1 000293  5C01                                 LDV,R5   1
          1 000294  0022                                 ACM      ;
          1 000295       4402 0013                                ALPHANUM(19,B2,,4,FILL),;
          1 000297       4005 0001                                ALPHANUM(1,B5,,R5,FILL)
          1 000299  5301 0011                            CBNE     s:7432,PREL

PL6.E3A0      #001=KVC$CNC File=KVC$CNC.:E05TSI                                  WED 07/30/97 01:54 Page:58
      308     7420    2        AND (PRM_VDH_CNC.DSTNTWADR = '0'B) THEN DO;

      309     7421        /*
      310     7422        The destination network resource is blanks, and there is no
      311     7423        destination network address being passed.  Connect to the
      312     7424        logon process, by default.
      313     7425        */
      314     7426    2         KV@SND_CNC.DSTNTWRSR = 'LOGON';

   7426   1 00029B  DB80 0000 0000  00                   LAB,B5   KV_RCRLST
          1 00029E  0021                                 ALR      ;
          1 00029F       4505 001A                                ALPHANUM(26,B5,,5),;
          1 0002A1       4807 0037                                ALPHANUM(KV@SND_CNC+30,AUTO,,8,FILL)

      315     7427    2         %KV_SSN.LGN = '1'B;

   7427   1 0002A3  437F                                 CSYNC    s:7426+7,SPREL
          1 0002A4  DCC6 0002                            LDB,B5   2,B6
          1 0002A6  8945 0027                            LBT,'0001'X       39,B5
          1 0002A8       0001

      316     7428    2      END; ELSE DO;

   7428   1 0002A9  0F81 000A                            B        s:7435,PREL

      317     7429        /*
      318     7430        Connect to whatever the caller specified.
      319     7431        */
      320     7432    2         KV@SND_CNC.DSTNTWADR = PRM_VDH_CNC.DSTNTWADR;

   7432   1 0002AB  8CC2 0013                            LDI      19,B2
          1 0002AD  8D47 0035                            SDI      KV@SND_CNC+28,AUTO

      321     7433    2         KV@SND_CNC.DSTNTWRSR = PRM_VDH_CNC.DSTNTWRSR;

   7433   1 0002AF  2C2A                                 LDV,R2   42
          1 0002B0  6C08                                 LDV,R6   8
PL6.E3A0      #001=KVC$CNC File=KVC$CNC.:E05TSI                                  WED 07/30/97 01:54 Page:59
          1 0002B1  BB87                                 LAB,B3   ,AUTO
          1 0002B2  3C6E                                 LDV,R3   110
          1 0002B3  0008                                 MMM

      322     7434    2      END; /* END ELSE IF DSTNTWRSR = ' ' ... */

      323     7435    1      CALL KVM$SND (KV@SND_CNC) ALTRET(BUMMER);

   7435   1 0002B4  EBC7 0019                            LAB,B6   KV@SND_CNC,AUTO
          1 0002B6  EFC7 0048                            STB,B6   @Y@SHRBFR+2,AUTO
          1 0002B8  BBC7 0048                            LAB,B3   @Y@SHRBFR+2,AUTO
          1 0002BA  CBF0 0100                            LAB,B4   256,IMO
          1 0002BC  E380 0000 0000  xent                 LNJ,B6   KVM$SND
          1 0002BF       003D                            DC       s:7465,PREL

      324     7436
      325     7437    2      IF ORGPTR$=KV$PTR$ THEN DO;

   7437   1 0002C0  ECC7 003B                            LDB,B6   ORGPTR$,AUTO
          1 0002C2  ED80 0000 0000  xsym                 CMB,B6   KV$PTR$
          1 0002C5  0981 0008                            BNE      s:7446,PREL

      326     7438
      327     7439        /* This is the first session to be allocated. */
      328     7440        /* We succeeded in connecting. Disable KV_VDH_EVT_ID_RLSVDI.                  */
      329     7441        /* We'll set it later if we want it on again.                                 */
      330     7442
      331     7443    2         %KV_VDI.VDHEVTENB(%KV_VDH_EVT_ID_RLSVDI) = '0'B;

   7443   1 0002C7  DC80 0000 0000  xsym                 LDB,B5   KV$PTR$
          1 0002CA  CC85                                 LDB,B4   ,B5
          1 0002CB  8844 001F                            LBF,'0002'X       31,B4
          1 0002CD       0002

      332     7444
      333     7445    2      END;

PL6.E3A0      #001=KVC$CNC File=KVC$CNC.:E05TSI                                  WED 07/30/97 01:54 Page:60
      334     7446    1      IF %KV_SSN.SSNCNCINT

   7446   1 0002CE  DC80 0000 0000  xsym                 LDB,B5   KV$PTR$
          1 0002D1  CCC5 0002                            LDB,B4   2,B5
          1 0002D3  82C4 0028                            LB,'0008'X        40,B4
          1 0002D5       0008
          1 0002D6  0581 0004                            BBF      s:7449,PREL

      335     7447        /* Restore the original context unless this is a received INIT message. */
      336     7448    1      THEN KV$PTR$ = ORGPTR$;

   7448   1 0002D8  EF80 0000 0000  xsym                 STB,B6   KV$PTR$

      337     7449    1      IF %KV_STR.SSN$~=KV$PTR.SSN$

   7449   1 0002DB  DC80 0000 0000  xsym                 LDB,B5   KV$PTR$
          1 0002DE  CCC5 0004                            LDB,B4   4,B5
          1 0002E0  BC84                                 LDB,B3   ,B4
          1 0002E1  BDC5 0002                            CMB,B3   2,B5
          1 0002E3  0901 0006                            BE       s:7455,PREL

      338     7450        /*
      339     7451           We just made a new session for an existing VDI. STR$ is bad.
      340     7452        */
      341     7453    1      THEN KV$PTR.STR$ = ADDR(NIL);

   7453   1 0002E5  AB80 0000 0000                       LAB,B2   0
          1 0002E8  AFC5 0004                            STB,B2   4,B5

      342     7454
      343     7455    1      KV_SSNCNT = KV_SSNCNT+1;   /* Count active SSNs for memory check purposes. */

   7455   1 0002EA  8A80 0000 0000  xsym                 INC      KV_SSNCNT

      344     7456    1      %KV_VDI.SSNCNT = %KV_VDI.SSNCNT+1;

   7456   1 0002ED  CC85                                 LDB,B4   ,B5
PL6.E3A0      #001=KVC$CNC File=KVC$CNC.:E05TSI                                  WED 07/30/97 01:54 Page:61
          1 0002EE  8AC4 000E                            INC      14,B4

      345     7457    1      %KV_STT.CNCEVTCNT = %KV_STT.CNCEVTCNT+1;

   7457   1 0002F0  CC85                                 LDB,B4   ,B5
          1 0002F1  BCC4 0008                            LDB,B3   8,B4
          1 0002F3  ACC3 0033                            LDB,B2   51,B3
          1 0002F5  8AC2 0037                            INC      55,B2
          1 0002F7  8EC2 0036                            CAD      54,B2

      346     7458    1      RETURN;

   7458   1 0002F9  C380 0000 0000  xent                 LNJ,B4   X6A_ARET

      347     7459
      348     7460
      349     7461        /* SOME ERROR HAS OCCURED. WE MUST RELEASE ALL CONTEXT WE MIGHT HAVE          */
      350     7462        /* GOTTEN.                                                                    */
      351     7463
      352     7464    1   BUMMER:
      353     7465    1      CALL KVC$RLSSSNNO_CNC;

   7465   1 0002FC  CBF0 0000            BUMMER          LAB,B4   0,IMO
          1 0002FE  E380 0000 0000  xent                 LNJ,B6   KVC$RLSSSNNO_CNC
          1 000301       0001                            DC       s:7467,PREL

      354     7466
      355     7467    1      KV$PTR$ = ORGPTR$;

   7467   1 000302  ECC7 003B                            LDB,B6   ORGPTR$,AUTO
          1 000304  EF80 0000 0000  xsym                 STB,B6   KV$PTR$

   7467   1                              CANTGETCTX      null
      356     7468    1   CANTGETCTX:;
      357     7469    1      IF KV$PTR.STR$~=ADDR(NIL)

   7469   1 000307  EC80 0000 0000  xsym CANTGETCTX      LDB,B6   KV$PTR$
PL6.E3A0      #001=KVC$CNC File=KVC$CNC.:E05TSI                                  WED 07/30/97 01:54 Page:62
          1 00030A  8DC6 0004                            CMN      4,B6
          1 00030C  0901 0007                            BE       s:7469,PREL

      358     7470    1      THEN %KV_STR.ERR.COD = %E$CANTGETCTX;

   7470   1 00030E  DCC6 0004                            LDB,B5   4,B6
          1 000310  E870 05C8                            LDR,R6   1480,IMO
          1 000312  EF45 0013                            STR,R6   19,B5

   7469   1                              ERRXIT          null
      359     7471         /*E*  ERROR: KVC-E$CANTGETCTX-E
      360     7472                 MESSAGE:Insufficient communications handler memory available.
      361     7473                 MESSAGE1:Communications handler memory insufficient.  Your system
      362     7474                          manager may want to adjust the handler's boot parameters.
      363     7475           */
      364     7476    1   ERRXIT:;
      365     7477        /*
      366     7478           Send INIT_ACK if that seems to be appropriate.
      367     7479        */
      368     7480    2      IF PRM_VDH_CNC.DSTNTWADR AND KV$PTR.SSN$~=ADDR(NIL) THEN DO;

   7480   1 000314  DCC7 0004            ERRXIT          LDB,B5   @PRM,AUTO
          1 000316  CB80 0000 0000  02                   LAB,B4   0
          1 000319  5C01                                 LDV,R5   1
          1 00031A  0022                                 ACM      ;
          1 00031B       4405 0013                                ALPHANUM(19,B5,,4,FILL),;
          1 00031D       4004 0001                                ALPHANUM(1,B4,,R5,FILL)
          1 00031F  5381 0028                            CBE      s:7487,PREL
          1 000321  8DC6 0002                            CMN      2,B6
          1 000323  0901 0024                            BE       s:7487,PREL

      369     7481    2         KV@SND_CNC = KV_SND_CNC;

   7481   1 000325  AB80 0000 0000  xsym                 LAB,B2   KV_SND_CNC
          1 000328  2C00                                 LDV,R2   0
          1 000329  6C44                                 LDV,R6   68
          1 00032A  BB87                                 LAB,B3   ,AUTO
PL6.E3A0      #001=KVC$CNC File=KVC$CNC.:E05TSI                                  WED 07/30/97 01:54 Page:63
          1 00032B  3C32                                 LDV,R3   50
          1 00032C  0008                                 MMM

      370     7482    2         KV@SND_CNC.DSTNTWADR = PRM_VDH_CNC.DSTNTWADR;

   7482   1 00032D  8CC5 0013                            LDI      19,B5
          1 00032F  8D47 0035                            SDI      KV@SND_CNC+28,AUTO

      371     7483    2         KV@SND_CNC.ERR = '1'B;

   7483   1 000331  8947 0028                            LBT,'8000'X       KV@SND_CNC+15,AUTO
   7483   1 000333       8000

      372     7484    2         %KV_SSN.SSNCNCINT = '0'B;

   7484   1 000334  EC80 0000 0000  xsym                 LDB,B6   KV$PTR$
          1 000337  CCC6 0002                            LDB,B4   2,B6
          1 000339  8844 0028                            LBF,'0008'X       40,B4
          1 00033B       0008

      373     7485    2         CALL KVM$SND (KV@SND_CNC);

   7485   1 00033C  CBC7 0019                            LAB,B4   KV@SND_CNC,AUTO
          1 00033E  CFC7 0048                            STB,B4   @Y@SHRBFR+2,AUTO
          1 000340  BBC7 0048                            LAB,B3   @Y@SHRBFR+2,AUTO
          1 000342  CBF0 0100                            LAB,B4   256,IMO
          1 000344  E380 0000 0000  xent                 LNJ,B6   KVM$SND
          1 000347       0001                            DC       s:7487,PREL

      374     7486    2      END;

      375     7487    1      ALTRETURN;

   7487   1 000348  C380 0000 0000  xent                 LNJ,B4   X6A_AALT

      376     7488
      377     7489        %EJECT;
PL6.E3A0      #001=KVC$CNC File=KVC$CNC.:E05TSI                                  WED 07/30/97 01:54 Page:64
      378     7490    1   KVC$WINDOW1: ENTRY (PRM) ALTRET;

   7490   1 00034B  D380 0000 0000  xent KVC$WINDOW1     LNJ,B5   X6A_AUTO_1
          1 00034E       004A 0001                       DC       74,1

      379     7491
      380     7492        /*F* NAME: KVC$WINDOW1, KVC$WINDOW2.
      381     7493             PURPOSE: Creates(-1) or modifies(-2) a window.  The parameter is a
      382     7494             VLP_WINDOW specifying the new parameters to be established.
      383     7495             KVC$WINDOW1 modifies some items in VLP_WINDOW for later use by
      384     7496             KVC$WINDOW2, so it must be writable, and KVC$WINDOW1 must not be
      385     7497             called more than once with the same VLP_WINDOW. */
      386     7498
      387     7499        /* First check that windows are permitted on the device. */
      388     7500
      389     7501    1      IF NOT %KV_MRD.BLANKERASES AND NOT %KV_MRD.FSTERS

   7501   1 000350  EC80 0000 0000  xsym                 LDB,B6   KV$PTR$
          1 000353  DCC6 0008                            LDB,B5   8,B6
          1 000355  82C5 0016                            LB,'0002'X        22,B5
          1 000357       0002
          1 000358  0501 0006                            BBT      s:7501+15,PREL
          1 00035A  82C5 0017                            LB,'0001'X        23,B5
          1 00035C       0001
          1 00035D  0581 000B                            BBF      s:7503,PREL
          1 00035F  82C5 0018                            LB,'0400'X        24,B5
          1 000361       0400
          1 000362  0581 0006                            BBF      s:7503,PREL
          1 000364  82C5 0017                            LB,'0002'X        23,B5
          1 000366       0002
          1 000367  0501 0004                            BBT      s:7504,PREL

      390     7502    1        OR NOT %KV_MRD.PHSFRM
      391     7503    1        OR NOT %KV_MRD.CURSORUP THEN ALTRETURN;

   7503   1 000369  C380 0000 0000  xent                 LNJ,B4   X6A_AALT

PL6.E3A0      #001=KVC$CNC File=KVC$CNC.:E05TSI                                  WED 07/30/97 01:54 Page:65
      392     7504    1      ORGPTR$ = %KV_SSN.STR$;

   7504   1 00036C  CCC6 0002                            LDB,B4   2,B6
          1 00036E  BCC4 0004                            LDB,B3   4,B4
          1 000370  BFC7 003B                            STB,B3   ORGPTR$,AUTO

      393     7505    2      DO WHILE ORGPTR$~=ADDR(NIL);

   7505   1 000372  0F81 000F                            B        s:7508,PREL

      394     7506    2         IF ORGPTR$->KV$STR.ID=PRM_WINDOW.FSTR.ID THEN EXIT;

   7506   1 000374  ECC7 003B                            LDB,B6   ORGPTR$,AUTO
          1 000376  E2C6 001C                            LLH,R6   28,B6
          1 000378  DCC7 0004                            LDB,B5   @PRM,AUTO
          1 00037A  D285                                 LLH,R5   ,B5
          1 00037B  E955                                 CMR,R6   R5
          1 00037C  0901 0008                            BE       s:7509,PREL

      395     7507    2         ORGPTR$ = ORGPTR$->KV$STR.LNK$;

   7507   1 00037E  CCC6 0002                            LDB,B4   2,B6
          1 000380  CFC7 003B                            STB,B4   ORGPTR$,AUTO

      396     7508    2      END;

   7508   1 000382  8DC7 003B                            CMN      ORGPTR$,AUTO
          1 000384  09F0                                 BNE      s:7506,SPREL

      397     7509    1      IF ORGPTR$=ADDR(NIL) THEN PRM_WINDOW.FWINDOW$ = ORGPTR$;

   7509   1 000385  8DC7 003B                            CMN      ORGPTR$,AUTO
          1 000387  0981 0008                            BNE      s:7510,PREL

   7509   1 000389  ECC7 003B                            LDB,B6   ORGPTR$,AUTO
          1 00038B  DCC7 0004                            LDB,B5   @PRM,AUTO
          1 00038D  EF85                                 STB,B6   ,B5
PL6.E3A0      #001=KVC$CNC File=KVC$CNC.:E05TSI                                  WED 07/30/97 01:54 Page:66
          1 00038E  0F81 0009                            B        s:7514,PREL

      398     7510    1      ELSE PRM_WINDOW.FWINDOW$ = ORGPTR$->KV$STR.MVD$->KV$MVD.SRD$;

   7510   1 000390  ECC7 003B                            LDB,B6   ORGPTR$,AUTO
          1 000392  DCC6 0004                            LDB,B5   4,B6
          1 000394  CC85                                 LDB,B4   ,B5
          1 000395  BCC7 0004                            LDB,B3   @PRM,AUTO
          1 000397  CF83                                 STB,B4   ,B3

      399     7511
      400     7512        /* Get a MVD-SRD pair if we need one. */
      401     7513
      402     7514    2      IF %KV_MVD.USRCNT>1 AND PRM_WINDOW.POSITION~=0 THEN DO;

   7514   1 000398  DC80 0000 0000  xsym                 LDB,B5   KV$PTR$
          1 00039B  CCC5 0006                            LDB,B4   6,B5
          1 00039D  E844 0012                            LDR,R6   18,B4
          1 00039F  6D01                                 CMV,R6   1
          1 0003A0  0381 0042                            BLE      s:7531,PREL
          1 0003A2  BCC7 0004                            LDB,B3   @PRM,AUTO
          1 0003A4  D2C3 0004                            LLH,R5   4,B3
          1 0003A6  5901 003C                            BEZ,R5   s:7531,PREL

      403     7515
      404     7516    2         ORGPTR$ = KV$PTR.MVD$;            /* In case we don't succeed.          */

   7516   1 0003A8  CFC7 003B                            STB,B4   ORGPTR$,AUTO

      405     7517    2         IF %KV_VDI.OTPCNDPND.PST=%KV_PHSPSTMOD_BLN THEN CALL KVV$CALUSR_PST;

   7517   1 0003AA  EC85                                 LDB,B6   ,B5
          1 0003AB  C846 001A                            LDR,R4   26,B6
          1 0003AD  4D02                                 CMV,R4   2
          1 0003AE  0981 0007                            BNE      s:7518,PREL

   7517   1 0003B0  CBF0 0000                            LAB,B4   0,IMO
PL6.E3A0      #001=KVC$CNC File=KVC$CNC.:E05TSI                                  WED 07/30/97 01:54 Page:67
          1 0003B2  E380 0000 0000  xent                 LNJ,B6   KVV$CALUSR_PST
          1 0003B5       0001                            DC       s:7518,PREL

      406     7518    2         KV@VDH_GETBFR = KV_VDH_GETBFR;

   7518   1 0003B6  AB80 0000 0000  xsym                 LAB,B2   KV_VDH_GETBFR
          1 0003B9  2C00                                 LDV,R2   0
          1 0003BA  6C16                                 LDV,R6   22
          1 0003BB  BB87                                 LAB,B3   ,AUTO
          1 0003BC  3C0C                                 LDV,R3   12
          1 0003BD  0008                                 MMM

      407     7519    2         CALL Y$GETMVD ALTRET(NO_CTX);

   7519   1 0003BE  E3C0 0584                            LNJ,B6   s:0,PREL
          1 0003C0       0121                            DC       s:7589,PREL

      408     7520    2         CALL CALUSRGETSTR;

   7520   1 0003C1  E3C0 04C6                            LNJ,B6   s:0,PREL
          1 0003C3       0001                            DC       s:7521,PREL

      409     7521    3         CALL Y$GETSRD WHENALTRETURN DO;

   7521   1 0003C4  E3C0 062D                            LNJ,B6   s:0,PREL
          1 0003C6       0003                            DC       s:7522,PREL
          1 0003C7  0F81 0016                            B        s:7528,PREL

      410     7522    3            CALL KVC$RLSMVD;

   7522   1 0003C9  CBF0 0000                            LAB,B4   0,IMO
          1 0003CB  E380 0000 0000  xent                 LNJ,B6   KVC$RLSMVD
          1 0003CE       0001                            DC       s:7523,PREL

      411     7523    3            %KV_STR.MVD$ = ORGPTR$;

   7523   1 0003CF  EC80 0000 0000  xsym                 LDB,B6   KV$PTR$
PL6.E3A0      #001=KVC$CNC File=KVC$CNC.:E05TSI                                  WED 07/30/97 01:54 Page:68
          1 0003D2  DCC6 0004                            LDB,B5   4,B6
          1 0003D4  CCC7 003B                            LDB,B4   ORGPTR$,AUTO
          1 0003D6  CFC5 0004                            STB,B4   4,B5

      412     7524    3            KV$PTR.MVD$ = ORGPTR$;

   7524   1 0003D8  CFC6 0006                            STB,B4   6,B6

      413     7525    3            %KV_MVD.USRCNT = %KV_MVD.USRCNT+1;

   7525   1 0003DA  8AC4 0012                            INC      18,B4

      414     7526    3            GOTO NO_CTX;

   7526   1 0003DC  0F81 0104                            B        s:7589,PREL

      415     7527    3         END;
      416     7528    2         CALL CALUSRGETSTR;

   7528   1 0003DE  E3C0 04A9                            LNJ,B6   s:0,PREL
          1 0003E0       0001                            DC       s:7529,PREL

      417     7529    2      END;

   7529   1 0003E1  0F81 0005                            B        s:7533,PREL

      418     7530    2      ELSE DO;

      419     7531    2         PRM_WINDOW.POSITION = 0;

   7531   1 0003E3  BCC7 0004                            LDB,B3   @PRM,AUTO
          1 0003E5  87C3 0004                            CLH      4,B3

      420     7532    2      END;

      421     7533    1      RETURN;

PL6.E3A0      #001=KVC$CNC File=KVC$CNC.:E05TSI                                  WED 07/30/97 01:54 Page:69
   7533   1 0003E7  C380 0000 0000  xent                 LNJ,B4   X6A_ARET

      422     7534        %EJECT;
PL6.E3A0      #001=KVC$CNC File=KVC$CNC.:E05TSI                                  WED 07/30/97 01:54 Page:70
      423     7535    1   KVC$WINDOW2: ENTRY (PRM) ALTRET;

   7535   1 0003EA  D380 0000 0000  xent KVC$WINDOW2     LNJ,B5   X6A_AUTO_1
          1 0003ED       004A 0001                       DC       74,1

      424     7536
      425     7537        /* Findchange in length required. */
      426     7538
      427     7539    1      IF PRM_WINDOW.POSITION~=%G_POSITION_LEFT#

   7539   1 0003EF  ECC7 0004                            LDB,B6   @PRM,AUTO
          1 0003F1  E2C6 0004                            LLH,R6   4,B6
          1 0003F3  6D02                                 CMV,R6   2
          1 0003F4  0901 0053                            BE       s:7553,PREL
          1 0003F6  6D03                                 CMV,R6   3
          1 0003F7  0901 0050                            BE       s:7553,PREL

      428     7540    2        AND PRM_WINDOW.POSITION~=%G_POSITION_RIGHT# THEN DO;

      429     7541    3         IF PRM_WINDOW.LENGTH>%G_WINDOW_PERCENT# THEN DO;

   7541   1 0003F9  D846 0002                            LDR,R5   2,B6
          1 0003FB  D970 4000                            CMR,R5   16384,IMO
          1 0003FD  0A81 0037                            BALE     s:7549+2,PREL

      430     7542    3            IF PRM_WINDOW.POSITION~=0 THEN TEMP = %KV_MRD.LNG;

   7542   1 0003FF  6901 000C                            BEZ,R6   s:7543,PREL

   7542   1 000401  DC80 0000 0000  xsym                 LDB,B5   KV$PTR$
          1 000404  CCC5 0008                            LDB,B4   8,B5
          1 000406  C2C4 0015                            LLH,R4   21,B4
          1 000408  CF47 003D                            STR,R4   TEMP,AUTO
          1 00040A  0F81 0018                            B        s:7547,PREL

      431     7543    3            ELSE IF PRM_WINDOW.FWINDOW$~=ADDR(NIL)

PL6.E3A0      #001=KVC$CNC File=KVC$CNC.:E05TSI                                  WED 07/30/97 01:54 Page:71
   7543   1 00040C  8D86                                 CMN      ,B6
          1 00040D  0901 000A                            BE       s:7546,PREL

      432     7544    3            THEN TEMP = PRM_WINDOW.FWINDOW$->KV$SRD.SRDEND.LIN-

   7544   1 00040F  DC86                                 LDB,B5   ,B6
          1 000410  C845 001A                            LDR,R4   26,B5
          1 000412  C245 0007                            SUB,R4   7,B5
          1 000414  CF47 003D                            STR,R4   TEMP,AUTO
          1 000416  0F81 000C                            B        s:7547,PREL

      433     7545    3              PRM_WINDOW.FWINDOW$->KV$SRD.ORG.LIN;
      434     7546    3            ELSE TEMP = %KV_SRD.SRDEND.LIN-%KV_SRD.ORG.LIN;

   7546   1 000418  DC80 0000 0000  xsym                 LDB,B5   KV$PTR$
          1 00041B  CCC5 000A                            LDB,B4   10,B5
          1 00041D  C844 001A                            LDR,R4   26,B4
          1 00041F  C244 0007                            SUB,R4   7,B4
          1 000421  CF47 003D                            STR,R4   TEMP,AUTO

      435     7547    3            PRM_WINDOW.LENGTH = TEMP*(PRM_WINDOW.LENGTH-%G_WINDOW_PERCENT#)

   7547   1 000423  DA70 C000                            ADD,R5   -16384,IMO
          1 000425  DB54                                 MUL,R5   R4
          1 000426  D370 0064                            DIV,R5   100,IMO
          1 000428  DC80 0000 0000  xsym                 LDB,B5   KV$PTR$
          1 00042B  CCC5 000A                            LDB,B4   10,B5
          1 00042D  D244 001A                            SUB,R5   26,B4
          1 00042F  DA44 0007                            ADD,R5   7,B4
          1 000431  DF46 0002                            STR,R5   2,B6

      436     7548    3              /100-%KV_SRD.SRDEND.LIN+%KV_SRD.ORG.LIN;
      437     7549    2         END; ELSE IF PRM_WINDOW.LENGTH>=%G_WINDOW_ABSVAL#

   7549   1 000433  0F81 0016                            B        s:7557,PREL

   7549   1 000435  D970 2000                            CMR,R5   8192,IMO
PL6.E3A0      #001=KVC$CNC File=KVC$CNC.:E05TSI                                  WED 07/30/97 01:54 Page:72
          1 000437  0801 0012                            BAL      s:7557,PREL

      438     7550    2         THEN PRM_WINDOW.LENGTH =

   7550   1 000439  DC80 0000 0000  xsym                 LDB,B5   KV$PTR$
          1 00043C  CCC5 000A                            LDB,B4   10,B5
          1 00043E  D244 001A                            SUB,R5   26,B4
          1 000440  DA44 0007                            ADD,R5   7,B4
          1 000442  DA70 E000                            ADD,R5   -8192,IMO
          1 000444  DF46 0002                            STR,R5   2,B6

      439     7551    2           PRM_WINDOW.LENGTH-%G_WINDOW_ABSVAL#-%KV_SRD.SRDEND.LIN+%KV_SRD.ORG.LIN;
      440     7552    2      END;

   7552   1 000446  0F81 0003                            B        s:7557,PREL

      441     7553    1      ELSE PRM_WINDOW.LENGTH = 0;

   7553   1 000448  8746 0002                            CL       2,B6

      442     7554
      443     7555        /* Compute the change in width required. */
      444     7556
      445     7557    1      IF PRM_WINDOW.POSITION~=%G_POSITION_TOP#

   7557   1 00044A  6D01                                 CMV,R6   1
          1 00044B  0901 0051                            BE       s:7570,PREL
          1 00044D  6D04                                 CMV,R6   4
          1 00044E  0901 004E                            BE       s:7570,PREL

      446     7558    2        AND PRM_WINDOW.POSITION~=%G_POSITION_BOTTOM# THEN DO;

      447     7559    3         IF PRM_WINDOW.WIDTH>%G_WINDOW_PERCENT# THEN DO;

   7559   1 000450  D846 0003                            LDR,R5   3,B6
          1 000452  D970 4000                            CMR,R5   16384,IMO
          1 000454  0A81 0035                            BALE     s:7566+2,PREL
PL6.E3A0      #001=KVC$CNC File=KVC$CNC.:E05TSI                                  WED 07/30/97 01:54 Page:73

      448     7560    3            IF PRM_WINDOW.POSITION~=0 THEN TEMP = %KV_MRD.WDT;

   7560   1 000456  6901 000C                            BEZ,R6   s:7561,PREL

   7560   1 000458  DC80 0000 0000  xsym                 LDB,B5   KV$PTR$
          1 00045B  CCC5 0008                            LDB,B4   8,B5
          1 00045D  C844 000B                            LDR,R4   11,B4
          1 00045F  CF47 003D                            STR,R4   TEMP,AUTO
          1 000461  0F81 0016                            B        s:7564,PREL

      449     7561    3            ELSE IF PRM_WINDOW.FWINDOW$~=ADDR(NIL)

   7561   1 000463  8D86                                 CMN      ,B6
          1 000464  0901 0008                            BE       s:7563,PREL

      450     7562    3            THEN TEMP = PRM_WINDOW.FWINDOW$->KV$SRD.WDT;

   7562   1 000466  DC86                                 LDB,B5   ,B6
          1 000467  C845 000D                            LDR,R4   13,B5
          1 000469  CF47 003D                            STR,R4   TEMP,AUTO
          1 00046B  0F81 000C                            B        s:7564,PREL

      451     7563    3            ELSE TEMP = %KV_SRD.SRDEND.CLM-%KV_SRD.ORG.CLM;

   7563   1 00046D  DC80 0000 0000  xsym                 LDB,B5   KV$PTR$
          1 000470  CCC5 000A                            LDB,B4   10,B5
          1 000472  C844 001B                            LDR,R4   27,B4
          1 000474  C244 0008                            SUB,R4   8,B4
          1 000476  CF47 003D                            STR,R4   TEMP,AUTO

      452     7564    3            PRM_WINDOW.WIDTH = TEMP*(PRM_WINDOW.WIDTH-%G_WINDOW_PERCENT#)

   7564   1 000478  DA70 C000                            ADD,R5   -16384,IMO
          1 00047A  DB54                                 MUL,R5   R4
          1 00047B  D370 0064                            DIV,R5   100,IMO
          1 00047D  DC80 0000 0000  xsym                 LDB,B5   KV$PTR$
PL6.E3A0      #001=KVC$CNC File=KVC$CNC.:E05TSI                                  WED 07/30/97 01:54 Page:74
          1 000480  CCC5 000A                            LDB,B4   10,B5
          1 000482  D244 001B                            SUB,R5   27,B4
          1 000484  DA44 0008                            ADD,R5   8,B4
          1 000486  DF46 0003                            STR,R5   3,B6

      453     7565    3              /100-%KV_SRD.SRDEND.CLM+%KV_SRD.ORG.CLM;
      454     7566    2         END; ELSE IF PRM_WINDOW.WIDTH>=%G_WINDOW_ABSVAL#

   7566   1 000488  0F81 0016                            B        s:7574,PREL

   7566   1 00048A  D970 2000                            CMR,R5   8192,IMO
          1 00048C  0801 0012                            BAL      s:7574,PREL

      455     7567    2         THEN PRM_WINDOW.WIDTH =

   7567   1 00048E  DC80 0000 0000  xsym                 LDB,B5   KV$PTR$
          1 000491  CCC5 000A                            LDB,B4   10,B5
          1 000493  D244 001B                            SUB,R5   27,B4
          1 000495  DA44 0008                            ADD,R5   8,B4
          1 000497  DA70 E000                            ADD,R5   -8192,IMO
          1 000499  DF46 0003                            STR,R5   3,B6

      456     7568    2           PRM_WINDOW.WIDTH-%G_WINDOW_ABSVAL#-%KV_SRD.SRDEND.CLM+%KV_SRD.ORG.CLM;
      457     7569    2      END;

   7569   1 00049B  0F81 0003                            B        s:7574,PREL

      458     7570    1      ELSE PRM_WINDOW.WIDTH = 0;

   7570   1 00049D  8746 0003                            CL       3,B6

      459     7571
      460     7572        /* Now call the recursive size changer. */
      461     7573
      462     7574    2      IF PRM_WINDOW.LENGTH~=0 OR PRM_WINDOW.POSITION~=0 THEN DO;

   7574   1 00049F  D846 0002                            LDR,R5   2,B6
PL6.E3A0      #001=KVC$CNC File=KVC$CNC.:E05TSI                                  WED 07/30/97 01:54 Page:75
          1 0004A1  5981 0003                            BNEZ,R5  s:7575,PREL
          1 0004A3  6901 000D                            BEZ,R6   s:7578,PREL

      463     7575    2         CALL KVC$ADJWND (PRM);

   7575   1 0004A5  BBC7 0004                            LAB,B3   @PRM,AUTO
          1 0004A7  CBF0 0100                            LAB,B4   256,IMO
          1 0004A9  E380 0000 0000  xent                 LNJ,B6   KVC$ADJWND
          1 0004AC       0001                            DC       s:7576,PREL

      464     7576    2         PRM_WINDOW.LENGTH = 0;

   7576   1 0004AD  ECC7 0004                            LDB,B6   @PRM,AUTO
          1 0004AF  8746 0002                            CL       2,B6

      465     7577    2      END;

      466     7578    1      IF PRM_WINDOW.WIDTH~=0 AND PRM_WINDOW.POSITION=0 THEN CALL KVC$ADJWND (PRM);

   7578   1 0004B1  E846 0003                            LDR,R6   3,B6
          1 0004B3  6901 000D                            BEZ,R6   s:7579,PREL
          1 0004B5  D2C6 0004                            LLH,R5   4,B6
          1 0004B7  5981 0009                            BNEZ,R5  s:7579,PREL

   7578   1 0004B9  BBC7 0004                            LAB,B3   @PRM,AUTO
          1 0004BB  CBF0 0100                            LAB,B4   256,IMO
          1 0004BD  E380 0000 0000  xent                 LNJ,B6   KVC$ADJWND
          1 0004C0       0001                            DC       s:7579,PREL

      467     7579    1      RETURN;

   7579   1 0004C1  C380 0000 0000  xent                 LNJ,B4   X6A_ARET

      468     7580        %EJECT;
PL6.E3A0      #001=KVC$CNC File=KVC$CNC.:E05TSI                                  WED 07/30/97 01:54 Page:76
      469     7581        /*F* NAME: KVC$DCLSTR.
      470     7582             PURPOSE: Adds another stream to an existing session.
      471     7583             CALL: The single parameter is a UBIN stream-id. */
      472     7584    1   KVC$DCLSTR: ENTRY (PRM) ALTRET;

   7584   1 0004C4  D380 0000 0000  xent KVC$DCLSTR      LNJ,B5   X6A_AUTO_1
          1 0004C7       004A 0001                       DC       74,1

      473     7585
      474     7586    1      ORGPTR$ = KV$PTR.STR$;

   7586   1 0004C9  EC80 0000 0000  xsym                 LDB,B6   KV$PTR$
          1 0004CC  DCC6 0004                            LDB,B5   4,B6
          1 0004CE  DFC7 003B                            STB,B5   ORGPTR$,AUTO

      475     7587    1      KV@VDH_GETBFR = KV_VDH_GETBFR;

   7587   1 0004D0  AB80 0000 0000  xsym                 LAB,B2   KV_VDH_GETBFR
          1 0004D3  2C00                                 LDV,R2   0
          1 0004D4  6C16                                 LDV,R6   22
          1 0004D5  BB87                                 LAB,B3   ,AUTO
          1 0004D6  3C0C                                 LDV,R3   12
          1 0004D7  0008                                 MMM

      476     7588    2      CALL Y$GETSTR (PRM_VDH_CNC) WHENALTRETURN DO;

   7588   1 0004D8  ECC7 0004                            LDB,B6   @PRM,AUTO
          1 0004DA  EFC7 0040                            STB,B6   TEMP+3,AUTO
          1 0004DC  E3C0 0316                            LNJ,B6   s:0,PREL
          1 0004DE       0003                            DC       s:7589,PREL
          1 0004DF  0F81 000D                            B        s:7593,PREL

      477     7589    2   NO_CTX:;

   7589   1                              NO_CTX          null
      478     7590    2         %KV_STR.ERR.COD = %E$CANTGETCTX;

PL6.E3A0      #001=KVC$CNC File=KVC$CNC.:E05TSI                                  WED 07/30/97 01:54 Page:77
   7590   1 0004E1  EC80 0000 0000  xsym NO_CTX          LDB,B6   KV$PTR$
          1 0004E4  DCC6 0004                            LDB,B5   4,B6
          1 0004E6  E870 05C8                            LDR,R6   1480,IMO
          1 0004E8  EF45 0013                            STR,R6   19,B5

      479     7591    2         ALTRETURN;

   7591   1 0004EA  C380 0000 0000  xent                 LNJ,B4   X6A_AALT

      480     7592    2      END;
      481     7593    1      KV$PTR.STR$ = ORGPTR$;

   7593   1 0004ED  ECC7 003B                            LDB,B6   ORGPTR$,AUTO
          1 0004EF  DC80 0000 0000  xsym                 LDB,B5   KV$PTR$
          1 0004F2  EFC5 0004                            STB,B6   4,B5

      482     7594    1      RETURN;

   7594   1 0004F4  C380 0000 0000  xent                 LNJ,B4   X6A_ARET

      483     7595        %EJECT;
PL6.E3A0      #001=KVC$CNC File=KVC$CNC.:E05TSI                                  WED 07/30/97 01:54 Page:78
      484     7596    1   KVC$OPNFRM: ENTRY (PRM) ALTRET;

   7596   1 0004F7  D380 0000 0000  xent KVC$OPNFRM      LNJ,B5   X6A_AUTO_1
          1 0004FA       004A 0001                       DC       74,1

      485     7597        /*F* NAME: KVC$OPNFRM
      486     7598
      487     7599           PURPOSE: KVC$OPNFRM initializes the context needed for a forms,
      488     7600        X3.64 or editing window.                                                         */
      489     7601
      490     7602    1      KV@VDH_GETBFR.BFR$ = KV$PTR.LINLST$;

   7602   1 0004FC  EC80 0000 0000  xsym                 LDB,B6   KV$PTR$
          1 0004FF  DCC6 000E                            LDB,B5   14,B6
          1 000501  DFC7 0007                            STB,B5   KV@VDH_GETBFR+1,AUTO

      491     7603    1      IF %KV_MVD.ORG=PRM_VDO_OPNSTR.ORG

   7603   1 000503  CCC6 0006                            LDB,B4   6,B6
          1 000505  E2C4 0015                            LLH,R6   21,B4
          1 000507  BCC7 0004                            LDB,B3   @PRM,AUTO
          1 000509  D2C3 0001                            LLH,R5   1,B3
          1 00050B  E955                                 CMR,R6   R5
          1 00050C  0981 002D                            BNE      s:7609,PREL

      492     7604    1      THEN IF %KV_MVD.ORG~=%KV#VD_ORG_SE

   7604   1 00050E  6D05                                 CMV,R6   5
          1 00050F  0981 0027                            BNE      s:7608,PREL
          1 000511  82C3 0001                            LB,'00FF'X        1,B3
          1 000513       00FF
          1 000514  0581 0009                            BBF      s:7604+16,PREL
          1 000516  C843 0001                            LDR,R4   1,B3
          1 000518  C570 00FF                            AND,R4   255,IMO
          1 00051A  C945 0002                            CMR,R4   2,B5
          1 00051C  0A01 001D                            BAG      s:7609,PREL
          1 00051E  C2C3 0002                            LLH,R4   2,B3
PL6.E3A0      #001=KVC$CNC File=KVC$CNC.:E05TSI                                  WED 07/30/97 01:54 Page:79
          1 000520  4901 0006                            BEZ,R4   s:7604+25,PREL
          1 000522  B2C5 000B                            LLH,R3   11,B5
          1 000524  B954                                 CMR,R3   R4
          1 000525  0981 0014                            BNE      s:7609,PREL
          1 000527  82C3 0002                            LB,'00FF'X        2,B3
          1 000529       00FF
          1 00052A  0581 000C                            BBF      s:7608,PREL
          1 00052C  B845 000B                            LDR,R3   11,B5
          1 00052E  B570 00FF                            AND,R3   255,IMO
          1 000530  A843 0002                            LDR,R2   2,B3
          1 000532  A570 00FF                            AND,R2   255,IMO
          1 000534  B952                                 CMR,R3   R2
          1 000535  0981 0004                            BNE      s:7609,PREL

      493     7605    1        OR (PRM_VDO_OPNSTR.NRECS=0 OR %KV_RCRLST.MAXRCR>=PRM_VDO_OPNSTR.NRECS)
      494     7606    1        AND (PRM_VDO_OPNSTR.KEYL=0 OR %KV_RCRLST.KEYLNG=PRM_VDO_OPNSTR.KEYL)
      495     7607    1        AND (PRM_VDO_OPNSTR.SPARE=0 OR %KV_RCRLST.SPRCNT=PRM_VDO_OPNSTR.SPARE)
      496     7608    1      THEN RETURN;                         /* That was easy                      */

   7608   1 000537  C380 0000 0000  xent                 LNJ,B4   X6A_ARET

      497     7609    1      KV@VDH_SETPRM = KV_VDH_SETPRM;

   7609   1 00053A  AB80 0000 0000  xsym                 LAB,B2   KV_VDH_SETPRM
          1 00053D  2C00                                 LDV,R2   0
          1 00053E  6C10                                 LDV,R6   16
          1 00053F  BB87                                 LAB,B3   ,AUTO
          1 000540  3C22                                 LDV,R3   34
          1 000541  0008                                 MMM

      498     7610    1      KV@VDH_SETPRM.SCP = %KV_SCP_ONE_ONLY;

   7610   1 000542  6C08                                 LDV,R6   8
          1 000543  E7C7 0018                            STH,R6   KV@VDH_SETPRM+7,AUTO

      499     7611
      500     7612    1      KV@VDH_GETBFR = KV_VDH_GETBFR;       /* Sets up RLSBFR ok, too.            */
PL6.E3A0      #001=KVC$CNC File=KVC$CNC.:E05TSI                                  WED 07/30/97 01:54 Page:80

   7612   1 000545  AB80 0000 0000  xsym                 LAB,B2   KV_VDH_GETBFR
          1 000548  2C00                                 LDV,R2   0
          1 000549  6C16                                 LDV,R6   22
          1 00054A  BB87                                 LAB,B3   ,AUTO
          1 00054B  3C0C                                 LDV,R3   12
          1 00054C  0008                                 MMM

      501     7613    1      IF %KV_MVD.LINLST$~=ADDR(NIL) THEN CALL KVC$RLSFRM;

   7613   1 00054D  EC80 0000 0000  xsym                 LDB,B6   KV$PTR$
          1 000550  DCC6 0006                            LDB,B5   6,B6
          1 000552  8DC5 0010                            CMN      16,B5
          1 000554  0901 0007                            BE       s:7617,PREL

   7613   1 000556  CBF0 0000                            LAB,B4   0,IMO
          1 000558  E380 0000 0000  xent                 LNJ,B6   KVC$RLSFRM
          1 00055B       0001                            DC       s:7617,PREL

      502     7614
      503     7615        /* Release the unusable MVD appendages. */
      504     7616
      505     7617    2      IF PRM_VDO_OPNSTR.ORG=%KV#VD_ORG_FORM THEN DO;

   7617   1 00055C  ECC7 0004                            LDB,B6   @PRM,AUTO
          1 00055E  E2C6 0001                            LLH,R6   1,B6
          1 000560  6D04                                 CMV,R6   4
          1 000561  0981 0077                            BNE      s:7640,PREL

      506     7618    2         IF %KV_SRD.WDT~=%KV_MRD.WDT AND %KV_MRD.MAXATRPERLIN<%KV_MRD.WDT

   7618   1 000563  DC80 0000 0000  xsym                 LDB,B5   KV$PTR$
          1 000566  CCC5 000A                            LDB,B4   10,B5
          1 000568  BCC5 0008                            LDB,B3   8,B5
          1 00056A  D844 000D                            LDR,R5   13,B4
          1 00056C  D943 000B                            CMR,R5   11,B3
          1 00056E  0901 000C                            BE       s:7618+24,PREL
PL6.E3A0      #001=KVC$CNC File=KVC$CNC.:E05TSI                                  WED 07/30/97 01:54 Page:81
          1 000570  C2C3 0016                            LLH,R4   22,B3
          1 000572  C943 000B                            CMR,R4   11,B3
          1 000574  0281 0006                            BGE      s:7618+24,PREL
          1 000576  82C3 0018                            LB,'0200'X        24,B3
          1 000578       0200
          1 000579  0581 0081                            BBF      s:7649,PREL
          1 00057B  C2C4 000E                            LLH,R4   14,B4
          1 00057D  4901 007D                            BEZ,R4   s:7649,PREL

      507     7619    2           AND NOT %KV_MRD.DCLATRWHNOTP OR %KV_SRD.LNG=0 THEN GOTO NOTCOM_ERR;
      508     7620    2         %KV_SRD.MINWDT = %KV_SRD.WDT;

   7620   1 00057F  D7C4 001E                            STH,R5   30,B4

      509     7621    2         %KV_SRD.MINLNG = %KV_SRD.LNG;

   7621   1 000581  CCC5 000A                            LDB,B4   10,B5
          1 000583  E2C4 000E                            LLH,R6   14,B4
          1 000585  EAC4 001E                            SRM,R6,'00FF'X    30,B4
          1 000587       00FF

      510     7622    2         %KV_SRD.OPT = '0'B;

   7622   1 000588  CCC5 000A                            LDB,B4   10,B5
          1 00058A  8844 001C                            LBF,'8000'X       28,B4
          1 00058C       8000

      511     7623        /* Run short screens in hard-copy (scrolling) mode. */
      512     7624    2         IF NOT %KV_MRD.CURSORUP THEN %KV_MVD.RETYPOVR = '0'B;

   7624   1 00058D  CCC5 0008                            LDB,B4   8,B5
          1 00058F  82C4 0017                            LB,'0002'X        23,B4
          1 000591       0002
          1 000592  0501 0006                            BBT      s:7625,PREL

   7624   1 000594  BCC5 0006                            LDB,B3   6,B5
          1 000596  8843 0016                            LBF,'0080'X       22,B3
PL6.E3A0      #001=KVC$CNC File=KVC$CNC.:E05TSI                                  WED 07/30/97 01:54 Page:82
          1 000598       0080

      513     7625    3         IF NOT %KV_MVD.RETYPOVR AND %KV_MVD.USRCNT>1 THEN DO;

   7625   1 000599  CCC5 0006                            LDB,B4   6,B5
          1 00059B  82C4 0016                            LB,'0080'X        22,B4
          1 00059D       0080
          1 00059E  0501 0019                            BBT      s:7635,PREL
          1 0005A0  E844 0012                            LDR,R6   18,B4
          1 0005A2  6D01                                 CMV,R6   1
          1 0005A3  0381 0014                            BLE      s:7635,PREL

      514     7626    3            CALL Y$GETMVD ALTRET(NO_CTX); /* Get another MVD for the FORM stream */

   7626   1 0005A5  E3C0 039D                            LNJ,B6   s:0,PREL
          1 0005A7       FF3A                            DC       s:7589,PREL

      515     7627    4            IF NOT %KV_MRD.PHSFRM THEN DO;

   7627   1 0005A8  EC80 0000 0000  xsym                 LDB,B6   KV$PTR$
          1 0005AB  DCC6 0008                            LDB,B5   8,B6
          1 0005AD  82C5 0018                            LB,'0400'X        24,B5
          1 0005AF       0400
          1 0005B0  0501 0007                            BBT      s:7635,PREL

      516     7628
      517     7629        /* The paper is not fixed length, use a sensible value (not 255).             */
      518     7630
      519     7631    4               %KV_SRD.MINLNG = 24;

   7631   1 0005B2  CCC6 000A                            LDB,B4   10,B6
          1 0005B4  6C18                                 LDV,R6   24
          1 0005B5  EAC4 001E                            SRM,R6,'00FF'X    30,B4
          1 0005B7       00FF

      520     7632    4            END /* IF */;

PL6.E3A0      #001=KVC$CNC File=KVC$CNC.:E05TSI                                  WED 07/30/97 01:54 Page:83
      521     7633    3         END /* IF NOT RETYPOVR */;

      522     7634
      523     7635    2         %VDH_RLSBFR.BFR$ = %KV_MVD.INPTAB$;

   7635   1 0005B8  EC80 0000 0000  xsym                 LDB,B6   KV$PTR$
          1 0005BB  DCC6 0006                            LDB,B5   6,B6
          1 0005BD  CCC5 0004                            LDB,B4   4,B5
          1 0005BF  CFC7 0007                            STB,B4   KV@VDH_GETBFR+1,AUTO

      524     7636    2         %VDH_RLSBFR.STRTYP = %KV_STRTYP_INPTAB;

   7636   1 0005C1  6C07                                 LDV,R6   7
          1 0005C2  E7C7 000C                            STH,R6   KV@VDH_GETBFR+6,AUTO

      525     7637    2         %KV_MVD.INPTAB$ = ADDR(NIL);

   7637   1 0005C4  DCC6 0006                            LDB,B5   6,B6
          1 0005C6  BB80 0000 0000                       LAB,B3   0
          1 0005C9  BFC5 0004                            STB,B3   4,B5

      526     7638    2         CALL KVS$RLSBFR (%VDH_RLSBFR);

   7638   1 0005CB  DBC7 0006                            LAB,B5   KV@VDH_GETBFR,AUTO
          1 0005CD  DFC7 0048                            STB,B5   @Y@SHRBFR+2,AUTO
          1 0005CF  BBC7 0048                            LAB,B3   @Y@SHRBFR+2,AUTO
          1 0005D1  CBF0 0100                            LAB,B4   256,IMO
          1 0005D3  E380 0000 0000  xent                 LNJ,B6   KVS$RLSBFR
          1 0005D6       0001                            DC       s:7639,PREL

      527     7639    2      END;

   7639   1 0005D7  0F81 0012                            B        s:7647,PREL

      528     7640    1      ELSE IF NOT %KV_MVD.RETYPOVR OR NOT %KV_MRD.CURSORUP THEN GOTO NOTCOM_ERR;

   7640   1 0005D9  DC80 0000 0000  xsym                 LDB,B5   KV$PTR$
PL6.E3A0      #001=KVC$CNC File=KVC$CNC.:E05TSI                                  WED 07/30/97 01:54 Page:84
          1 0005DC  CCC5 0006                            LDB,B4   6,B5
          1 0005DE  82C4 0016                            LB,'0080'X        22,B4
          1 0005E0       0080
          1 0005E1  0581 0019                            BBF      s:7649,PREL
          1 0005E3  BCC5 0008                            LDB,B3   8,B5
          1 0005E5  82C3 0017                            LB,'0002'X        23,B3
          1 0005E7       0002
          1 0005E8  0581 0012                            BBF      s:7649,PREL

      529     7641         /*E*  ERROR:KV-E$ORGNOTCOM-E
      530     7642                 MESSAGE:SE, FORM, or X364 needs RETYPOVR. FORM needs wide window.
      531     7643                 MESSAGE1:For ORG=SE, FORM, or X364, RETYPOVR=YES and HEIGHT>=24
      532     7644                          must be true. For C00 FORMs, the window must be full width.
      533     7645           */
      534     7646
      535     7647    2      IF PRM_VDO_OPNSTR.ORG~=%KV#VD_ORG_X364 THEN DO;

   7647   1 0005EA  ECC7 0004                            LDB,B6   @PRM,AUTO
          1 0005EC  E2C6 0001                            LLH,R6   1,B6
          1 0005EE  6D02                                 CMV,R6   2
          1 0005EF  0901 0034                            BE       s:7661,PREL

      536     7648    3         IF %KV_MVD.USRCNT>1 THEN DO;

   7648   1 0005F1  DC80 0000 0000  xsym                 LDB,B5   KV$PTR$
          1 0005F4  CCC5 0006                            LDB,B4   6,B5
          1 0005F6  D844 0012                            LDR,R5   18,B4
          1 0005F8  5D01                                 CMV,R5   1
          1 0005F9  0381 000A                            BLE      s:7653,PREL

      537     7649    3   NOTCOM_ERR:;

   7649   1                              NOTCOM_ERR      null
      538     7650    3            %KV_STR.ERR.COD = %E$ORGNOTCOM;

   7650   1 0005FB  CCC5 0004            NOTCOM_ERR      LDB,B4   4,B5
          1 0005FD  D870 030F                            LDR,R5   783,IMO
PL6.E3A0      #001=KVC$CNC File=KVC$CNC.:E05TSI                                  WED 07/30/97 01:54 Page:85
          1 0005FF  DF44 0013                            STR,R5   19,B4

      539     7651    3            ALTRETURN;

   7651   1 000601  C380 0000 0000  xent                 LNJ,B4   X6A_AALT

      540     7652    3         END;
      541     7653    2         IF NOT %KV_MVD.RETYPOVR THEN EXIT;

   7653   1 000604  82C4 0016                            LB,'0080'X        22,B4
   7653   1 000606       0080
          1 000607  0581 001C                            BBF      s:7661,PREL

      542     7654    2         %KV_SRD.TRUNCATE = '0'B;

   7654   1 000609  BCC5 000A                            LDB,B3   10,B5
          1 00060B  8843 000E                            LBF,'0004'X       14,B3
          1 00060D       0004

      543     7655        /* No scroll for FORM or SE */
      544     7656    2         IF NOT %KV_SRD.SCROLL THEN EXIT;

   7656   1 00060E  CCC5 000A                            LDB,B4   10,B5
          1 000610  82C4 000E                            LB,'0008'X        14,B4
          1 000612       0008
          1 000613  0581 0010                            BBF      s:7661,PREL

      545     7657    2         KV@VDH_SETPRM.PRMID = %KV_PRMID_SCROLL;

   7657   1 000615  6C4F                                 LDV,R6   79
          1 000616  EF47 0012                            STR,R6   KV@VDH_SETPRM+1,AUTO

      546     7658    2         CALL KVP$SETPRM (KV@VDH_SETPRM);

   7658   1 000618  CBC7 0011                            LAB,B4   KV@VDH_SETPRM,AUTO
          1 00061A  CFC7 0048                            STB,B4   @Y@SHRBFR+2,AUTO
          1 00061C  BBC7 0048                            LAB,B3   @Y@SHRBFR+2,AUTO
PL6.E3A0      #001=KVC$CNC File=KVC$CNC.:E05TSI                                  WED 07/30/97 01:54 Page:86
          1 00061E  CBF0 0100                            LAB,B4   256,IMO
          1 000620  E380 0000 0000  xent                 LNJ,B6   KVP$SETPRM
          1 000623       0001                            DC       s:7661,PREL

      547     7659    2      END;

      548     7660
      549     7661    1      %KV_SRD.NXTNONBLNLIN = 255;

   7661   1 000624  EC80 0000 0000  xsym                 LDB,B6   KV$PTR$
          1 000627  DCC6 000A                            LDB,B5   10,B6
          1 000629  E870 00FF                            LDR,R6   255,IMO
          1 00062B  EF45 0014                            STR,R6   20,B5

      550     7662    2      IF %KV_MVD.RETYPOVR THEN DO;

   7662   1 00062D  DCC6 0006                            LDB,B5   6,B6
          1 00062F  82C5 0016                            LB,'0080'X        22,B5
          1 000631       0080
          1 000632  0581 000B                            BBF      s:7666,PREL

      551     7663    2         %KV_SRD.NOOPTMIZ = '0'B;

   7663   1 000634  CCC6 000A                            LDB,B4   10,B6
          1 000636  8844 001D                            LBF,'8000'X       29,B4
          1 000638       8000

      552     7664    2         %KV_MVD.EDITOVR = '1'B;

   7664   1 000639  DCC6 0006                            LDB,B5   6,B6
          1 00063B  8945 0016                            LBT,'0040'X       22,B5
          1 00063D       0040

      553     7665    2      END;

      554     7666    1      %VDH_RLSBFR.BFR$ = %KV_MVD.VFU$;

PL6.E3A0      #001=KVC$CNC File=KVC$CNC.:E05TSI                                  WED 07/30/97 01:54 Page:87
   7666   1 00063E  DCC6 0006                            LDB,B5   6,B6
          1 000640  CCC5 000C                            LDB,B4   12,B5
          1 000642  CFC7 0007                            STB,B4   KV@VDH_GETBFR+1,AUTO

      555     7667    1      %VDH_RLSBFR.STRTYP = %KV_STRTYP_VFU;

   7667   1 000644  5C1E                                 LDV,R5   30
          1 000645  D7C7 000C                            STH,R5   KV@VDH_GETBFR+6,AUTO

      556     7668    1      CALL KVS$RLSBFR (%VDH_RLSBFR);

   7668   1 000647  DBC7 0006                            LAB,B5   KV@VDH_GETBFR,AUTO
          1 000649  DFC7 0048                            STB,B5   @Y@SHRBFR+2,AUTO
          1 00064B  BBC7 0048                            LAB,B3   @Y@SHRBFR+2,AUTO
          1 00064D  CBF0 0100                            LAB,B4   256,IMO
          1 00064F  E380 0000 0000  xent                 LNJ,B6   KVS$RLSBFR
          1 000652       0001                            DC       s:7669,PREL

      557     7669    1      %KV_MVD.VFU$ = ADDR(NIL);

   7669   1 000653  EC80 0000 0000  xsym                 LDB,B6   KV$PTR$
          1 000656  DCC6 0006                            LDB,B5   6,B6
          1 000658  CB80 0000 0000                       LAB,B4   0
          1 00065B  CFC5 000C                            STB,B4   12,B5

      558     7670        /* strip the form stream                                                      */
      559     7671
      560     7672    1      CALL Y$STRSTR;

   7672   1 00065D  E3C0 0254                            LNJ,B6   s:0,PREL
          1 00065F       0001                            DC       s:7673,PREL

      561     7673    1      %KV_STR.ACTCHRTBL$ = ADDR(KV_ACTCHRTBLNRM);

   7673   1 000660  EC80 0000 0000  xsym                 LDB,B6   KV$PTR$
          1 000663  DCC6 0004                            LDB,B5   4,B6
          1 000665  CB80 0000 0000  xsym                 LAB,B4   KV_ACTCHRTBLNRM
PL6.E3A0      #001=KVC$CNC File=KVC$CNC.:E05TSI                                  WED 07/30/97 01:54 Page:88
          1 000668  CFC5 000A                            STB,B4   10,B5

      562     7674
      563     7675    1      %KV_MVD.WDT = %KV_SRD.WDT;

   7675   1 00066A  DCC6 0006                            LDB,B5   6,B6
          1 00066C  CCC6 000A                            LDB,B4   10,B6
          1 00066E  E844 000D                            LDR,R6   13,B4
          1 000670  EF45 0013                            STR,R6   19,B5

      564     7676    1      %KV_MVD.LNG = 0;

   7676   1 000672  DCC6 0006                            LDB,B5   6,B6
          1 000674  87C5 0014                            CLH      20,B5

      565     7677
      566     7678        /* Now get the LINLST area. */
      567     7679
      568     7680    2      DO CASE PRM_VDO_OPNSTR.ORG;

   7680   1 000676  DCC7 0004                            LDB,B5   @PRM,AUTO
          1 000678  B2C5 0001                            LLH,R3   1,B5
          1 00067A  3D06                                 CMV,R3   6
          1 00067B  0281 0045                            BGE      s:7692,PREL
          1 00067D  A830 0000 0683  01                   LDR,R2   s:7680+13,R3
          1 000680  83A0 0000 0689  01                   JMP      s:7682,R2
          1 000683       0038                            DC       s:7692,PREL
          1 000684       0038                            DC       s:7692,PREL
          1 000685       0035                            DC       s:7690,PREL
          1 000686       0038                            DC       s:7692,PREL
          1 000687       0000                            DC       s:7682,PREL
          1 000688       000F                            DC       s:7685,PREL

      569     7681    2      CASE %KV#VD_ORG_FORM;

      570     7682    2         KV@VDH_GETBFR.STRTYP = %KV_STRTYP_LINLST;

PL6.E3A0      #001=KVC$CNC File=KVC$CNC.:E05TSI                                  WED 07/30/97 01:54 Page:89
   7682   1 000689  6C09                                 LDV,R6   9
          1 00068A  E7C7 000C                            STH,R6   KV@VDH_GETBFR+6,AUTO

      571     7683    2         KV@VDH_GETBFR.BYTSIZ = 2*SIZEW(KV$LINLST)+2*SIZEW(KV$LIN)*%KV_SRD.MINLNG;

   7683   1 00068C  CCC6 000A                            LDB,B4   10,B6
          1 00068E  D844 001E                            LDR,R5   30,B4
          1 000690  5003                                 SOL,R5   3
          1 000691  D570 07F8                            AND,R5   2040,IMO
          1 000693  5E10                                 ADV,R5   16
          1 000694  DF47 0009                            STR,R5   KV@VDH_GETBFR+3,AUTO
          1 000696  0F81 002A                            B        s:7692,PREL

      572     7684    2      CASE %KV#VD_ORG_SE;

      573     7685    2         KV@VDH_GETBFR.STRTYP = %KV_STRTYP_RCRLST;

   7685   1 000698  6C24                                 LDV,R6   36
          1 000699  E7C7 000C                            STH,R6   KV@VDH_GETBFR+6,AUTO

      574     7686    2         TEMP = MAXIMUM (%KV_MRD.DSPHEIGHT+10, MINIMUM (50,

   7686   1 00069B  CCC6 000A                            LDB,B4   10,B6
          1 00069D  D2C4 000E                            LLH,R5   14,B4
          1 00069F  5001                                 SOL,R5   1
          1 0006A0  C845 0001                            LDR,R4   1,B5
          1 0006A2  C570 00FF                            AND,R4   255,IMO
          1 0006A4  C955                                 CMR,R4   R5
          1 0006A5  0381 0002                            BLE      s:7686+13,PREL
          1 0006A7  D854                                 LDR,R5   R4
          1 0006A8  D970 0032                            CMR,R5   50,IMO
          1 0006AA  0381 0002                            BLE      s:7686+18,PREL
          1 0006AC  5C32                                 LDV,R5   50
          1 0006AD  BCC6 0008                            LDB,B3   8,B6
          1 0006AF  B2C3 000A                            LLH,R3   10,B3
          1 0006B1  3E0A                                 ADV,R3   10
          1 0006B2  B955                                 CMR,R3   R5
PL6.E3A0      #001=KVC$CNC File=KVC$CNC.:E05TSI                                  WED 07/30/97 01:54 Page:90
          1 0006B3  0381 0002                            BLE      s:7686+27,PREL
          1 0006B5  D853                                 LDR,R5   R3
          1 0006B6  DF47 003D                            STR,R5   TEMP,AUTO

      575     7687    2           MAXIMUM (PRM_VDO_OPNSTR.NRECS, %KV_SRD.LNG*2)));
      576     7688    2         KV@VDH_GETBFR.BYTSIZ = SIZEC(KV$RCRLST)+SIZEC(KV$RCRLST.RCR$)*(TEMP-1);

   7688   1 0006B8  5002                                 SOL,R5   2
          1 0006B9  5E20                                 ADV,R5   32
          1 0006BA  DF47 0009                            STR,R5   KV@VDH_GETBFR+3,AUTO
          1 0006BC  0F81 0004                            B        s:7692,PREL

      577     7689    2      CASE %KV#VD_ORG_X364;

      578     7690    2         KV@VDH_GETBFR.STRTYP = %KV_STRTYP_X364;

   7690   1 0006BE  6C22                                 LDV,R6   34
          1 0006BF  E7C7 000C                            STH,R6   KV@VDH_GETBFR+6,AUTO

      579     7691    2      END; /* END DO CASE .ORG */

      580     7692    1      CALL KVS$GETBFR (KV@VDH_GETBFR) ALTRET(NO_CTX);

   7692   1 0006C1  CBC7 0006                            LAB,B4   KV@VDH_GETBFR,AUTO
          1 0006C3  CFC7 0048                            STB,B4   @Y@SHRBFR+2,AUTO
          1 0006C5  BBC7 0048                            LAB,B3   @Y@SHRBFR+2,AUTO
          1 0006C7  CBF0 0100                            LAB,B4   256,IMO
          1 0006C9  E380 0000 0000  xent                 LNJ,B6   KVS$GETBFR
          1 0006CC       FE15                            DC       s:7589,PREL

      581     7693    1      %KV_MVD.LINLST$ = KV@VDH_GETBFR.BFR$;

   7693   1 0006CD  EC80 0000 0000  xsym                 LDB,B6   KV$PTR$
          1 0006D0  DCC6 0006                            LDB,B5   6,B6
          1 0006D2  CCC7 0007                            LDB,B4   KV@VDH_GETBFR+1,AUTO
          1 0006D4  CFC5 0010                            STB,B4   16,B5

PL6.E3A0      #001=KVC$CNC File=KVC$CNC.:E05TSI                                  WED 07/30/97 01:54 Page:91
      582     7694    1      KV$PTR.LINLST$ = KV@VDH_GETBFR.BFR$;

   7694   1 0006D6  CFC6 000E                            STB,B4   14,B6

      583     7695    2      IF KV@VDH_GETBFR.STRTYP=%KV_STRTYP_LINLST THEN DO;

   7695   1 0006D8  E2C7 000C                            LLH,R6   KV@VDH_GETBFR+6,AUTO
          1 0006DA  6D09                                 CMV,R6   9
          1 0006DB  0981 0042                            BNE      s:7711,PREL

      584     7696    2         %KV_LINLST = '0'B;

   7696   1 0006DD  5C10                                 LDV,R5   16
          1 0006DE  0021                                 ALR      ;
          1 0006DF       4178 0000                                ALPHANUM('0000'X,IMO,,1),;
          1 0006E1       4004 0000                                ALPHANUM(0,B4,,R5,FILL)

      585     7697    2         %KV_LINLST.LSTCELWRDX = KV@VDH_GETBFR.BYTSIZ/2-1;

   7697   1 0006E3  437F                                 CSYNC    s:7696+5,SPREL
          1 0006E4  E847 0009                            LDR,R6   KV@VDH_GETBFR+3,AUTO
          1 0006E6  6041                                 SOR,R6   1
          1 0006E7  ECC7 0007                            LDB,B6   KV@VDH_GETBFR+1,AUTO
          1 0006E9  6EFF                                 ADV,R6   -1
          1 0006EA  EF06                                 STR,R6   ,B6

      586     7698    2         %KV_LINLST.LSTENTWRDX = SIZEW(KV$LINLST)+(%KV_SRD.MINLNG-1)*SIZEW(KV$LIN);

   7698   1 0006EB  EC80 0000 0000  xsym                 LDB,B6   KV$PTR$
          1 0006EE  DCC6 000A                            LDB,B5   10,B6
          1 0006F0  CCC7 0007                            LDB,B4   KV@VDH_GETBFR+1,AUTO
          1 0006F2  E845 001E                            LDR,R6   30,B5
          1 0006F4  6002                                 SOL,R6   2
          1 0006F5  E570 03FC                            AND,R6   1020,IMO
          1 0006F7  6E04                                 ADV,R6   4
          1 0006F8  EF44 0001                            STR,R6   1,B4

PL6.E3A0      #001=KVC$CNC File=KVC$CNC.:E05TSI                                  WED 07/30/97 01:54 Page:92
      587     7699    2         STEMP = SIZEW(KV$LINLST);

   7699   1 0006FA  6C08                                 LDV,R6   8
          1 0006FB  EF47 003D                            STR,R6   TEMP,AUTO

      588     7700    3         DO UNTIL STEMP > %KV_LINLST.LSTENTWRDX;

      589     7701
      590     7702        /* This loop is traversed for each KV$LIN entry in the KV$LINLST              */
      591     7703        /* table initialized.                                                         */
      592     7704
      593     7705    3            PINCRW(ADDR(%KV_LINLST),STEMP)->KV$LIN = KV_LIN;

   7705   1 0006FD  AB80 0000 0000  xsym                 LAB,B2   KV_LIN
          1 000700  2C00                                 LDV,R2   0
          1 000701  6C08                                 LDV,R6   8
          1 000702  BCC7 0007                            LDB,B3   KV@VDH_GETBFR+1,AUTO
          1 000704  B847 003D                            LDR,R3   TEMP,AUTO
          1 000706  3001                                 SOL,R3   1
          1 000707  0008                                 MMM

      594     7706    3            PINCRW(ADDR(%KV_LINLST),STEMP)->KV$LIN.VRTLIN =

   7706   1 000708  E847 003D                            LDR,R6   TEMP,AUTO
          1 00070A  6042                                 SOR,R6   2
          1 00070B  ECC7 0007                            LDB,B6   KV@VDH_GETBFR+1,AUTO
          1 00070D  B847 003D                            LDR,R3   TEMP,AUTO
          1 00070F  3E02                                 ADV,R3   2
          1 000710  6EFF                                 ADV,R6   -1
          1 000711  EF36                                 STR,R6   ,B6,R3

      595     7707    3              TEMP/SIZEW(KV$LIN) - SIZEW(KV$LINLST)/SIZEW(KV$LIN) + 1;
      596     7708    3            STEMP = STEMP+SIZEW(KV$LIN);

   7708   1 000712  E847 003D                            LDR,R6   TEMP,AUTO
          1 000714  6E04                                 ADV,R6   4
          1 000715  EF47 003D                            STR,R6   TEMP,AUTO
PL6.E3A0      #001=KVC$CNC File=KVC$CNC.:E05TSI                                  WED 07/30/97 01:54 Page:93

      597     7709    3         END /* LOOP */;

   7709   1 000717  ECC7 0007                            LDB,B6   KV@VDH_GETBFR+1,AUTO
          1 000719  E946 0001                            CMR,R6   1,B6
          1 00071B  0AE2                                 BALE     s:7705,SPREL

      598     7710    2      END;

   7710   1 00071C  0F81 0044                            B        s:7721,PREL

      599     7711    2      ELSE IF KV@VDH_GETBFR.STRTYP=%KV_STRTYP_RCRLST THEN DO;

   7711   1 00071E  6D24                                 CMV,R6   36
          1 00071F  0981 0041                            BNE      s:7721,PREL

      600     7712    2         %KV_RCRLST = KV_RCRLST;

   7712   1 000721  AB80 0000 0000  00                   LAB,B2   KV_RCRLST
          1 000724  2C00                                 LDV,R2   0
          1 000725  6C24                                 LDV,R6   36
          1 000726  BB84                                 LAB,B3   ,B4
          1 000727  3C00                                 LDV,R3   0
          1 000728  0008                                 MMM

      601     7713    2         %KV_RCRLST.STRBYTSIZ = KV@VDH_GETBFR.BYTSIZ;

   7713   1 000729  ECC7 0007                            LDB,B6   KV@VDH_GETBFR+1,AUTO
          1 00072B  E847 0009                            LDR,R6   KV@VDH_GETBFR+3,AUTO
          1 00072D  EF06                                 STR,R6   ,B6

      602     7714    2         %KV_RCRLST.MAXRCR = TEMP;

   7714   1 00072E  ECC7 0007                            LDB,B6   KV@VDH_GETBFR+1,AUTO
          1 000730  E847 003D                            LDR,R6   TEMP,AUTO
          1 000732  EF46 0002                            STR,R6   2,B6

PL6.E3A0      #001=KVC$CNC File=KVC$CNC.:E05TSI                                  WED 07/30/97 01:54 Page:94
      603     7715    2         IF PRM_VDO_OPNSTR.KEYL~=0

   7715   1 000734  ECC7 0004                            LDB,B6   @PRM,AUTO
          1 000736  D2C6 0002                            LLH,R5   2,B6
          1 000738  5901 000A                            BEZ,R5   s:7717,PREL

      604     7716    2         THEN %KV_RCRLST.KEYLNG = MINIMUM(4, PRM_VDO_OPNSTR.KEYL);

   7716   1 00073A  D970 0004                            CMR,R5   4,IMO
          1 00073C  0381 0002                            BLE      s:7716+5,PREL
          1 00073E  5C04                                 LDV,R5   4
          1 00073F  DCC7 0007                            LDB,B5   KV@VDH_GETBFR+1,AUTO
          1 000741  D7C5 000B                            STH,R5   11,B5

      605     7717    2         IF PRM_VDO_OPNSTR.SPARE>1

   7717   1 000743  D846 0002                            LDR,R5   2,B6
          1 000745  D570 00FF                            AND,R5   255,IMO
          1 000747  5D01                                 CMV,R5   1
          1 000748  0381 000D                            BLE      s:7719,PREL

      606     7718    2         THEN %KV_RCRLST.SPRCNT = MINIMUM(TEMP/2, PRM_VDO_OPNSTR.SPARE);

   7718   1 00074A  6041                                 SOR,R6   1
          1 00074B  D956                                 CMR,R5   R6
          1 00074C  0281 0002                            BGE      s:7718+5,PREL
          1 00074E  E855                                 LDR,R6   R5
          1 00074F  DCC7 0007                            LDB,B5   KV@VDH_GETBFR+1,AUTO
          1 000751  EAC5 000B                            SRM,R6,'00FF'X    11,B5
          1 000753       00FF
          1 000754  0F81 000C                            B        s:7721,PREL

      607     7719    2         ELSE %KV_RCRLST.SPRCNT = MAXIMUM(TEMP/4,1);

   7719   1 000756  6042                                 SOR,R6   2
          1 000757  E970 0001                            CMR,R6   1,IMO
          1 000759  0281 0002                            BGE      s:7719+6,PREL
PL6.E3A0      #001=KVC$CNC File=KVC$CNC.:E05TSI                                  WED 07/30/97 01:54 Page:95
          1 00075B  6C01                                 LDV,R6   1
          1 00075C  DCC7 0007                            LDB,B5   KV@VDH_GETBFR+1,AUTO
          1 00075E  EAC5 000B                            SRM,R6,'00FF'X    11,B5
          1 000760       00FF

      608     7720    2      END;

      609     7721    1      %KV_MVD.ORG = PRM_VDO_OPNSTR.ORG;

   7721   1 000761  EC80 0000 0000  xsym                 LDB,B6   KV$PTR$
          1 000764  DCC6 0006                            LDB,B5   6,B6
          1 000766  CCC7 0004                            LDB,B4   @PRM,AUTO
          1 000768  E2C4 0001                            LLH,R6   1,B4
          1 00076A  E7C5 0015                            STH,R6   21,B5

      610     7722
      611     7723        /* Set up the set-parameter request structure for setting the                 */
      612     7724        /* system input function table associated with the forms virtual              */
      613     7725        /* device to "FRM1".                                                          */
      614     7726
      615     7727    2      DO SELECT KV@VDH_GETBFR.STRTYP;

   7727   1 00076C  E2C7 000C                            LLH,R6   KV@VDH_GETBFR+6,AUTO
          1 00076E  E970 0022                            CMR,R6   34,IMO
          1 000770  0201 0008                            BL       s:7727+13,PREL
          1 000772  0901 002B                            BE       s:7734,PREL
          1 000774  6D24                                 CMV,R6   36
          1 000775  0981 0030                            BNE      s:7736,PREL
          1 000777  0F81 0011                            B        s:7731,PREL
          1 000779  6D09                                 CMV,R6   9
          1 00077A  0981 002B                            BNE      s:7736,PREL
          1 00077C  0F81 0001                            B        s:7729,PREL

      616     7728    2         SELECT %KV_STRTYP_LINLST;

      617     7729    2         ADDR(KV@SND_CNC)->CHR8 = 'FRM1';

PL6.E3A0      #001=KVC$CNC File=KVC$CNC.:E05TSI                                  WED 07/30/97 01:54 Page:96
   7729   1 00077E  DB80 0000 0000  00                   LAB,B5   KV_RCRLST
          1 000781  0021                                 ALR      ;
          1 000782       4405 001D                                ALPHANUM(29,B5,,4),;
          1 000784       4807 0019                                ALPHANUM(KV@SND_CNC,AUTO,,8,FILL)
          1 000786  437F                                 CSYNC    s:7729+7,SPREL
          1 000787  0F81 001E                            B        s:7736,PREL

      618     7730    2         SELECT %KV_STRTYP_RCRLST;

      619     7731    2         ADDR(KV@SND_CNC)->CHR8 = 'SE1';

   7731   1 000789  DB80 0000 0000  00                   LAB,B5   KV_RCRLST
          1 00078C  0021                                 ALR      ;
          1 00078D       4305 001F                                ALPHANUM(31,B5,,3),;
          1 00078F       4807 0019                                ALPHANUM(KV@SND_CNC,AUTO,,8,FILL)

      620     7732    2         IF PRM_VDO_OPNSTR.SPARE>99 THEN SUBSTR(ADDR(KV@SND_CNC)->CHR8,2,1) = '2';

   7732   1 000791  437F                                 CSYNC    s:7731+7,SPREL
          1 000792  D844 0002                            LDR,R5   2,B4
          1 000794  D570 00FF                            AND,R5   255,IMO
          1 000796  5D63                                 CMV,R5   99
          1 000797  0381 000E                            BLE      s:7736,PREL

   7732   1 000799  4C32                                 LDV,R4   50
          1 00079A  C7C7 001A                            STH,R4   KV@SND_CNC+1,AUTO
          1 00079C  0F81 0009                            B        s:7736,PREL

      621     7733    2         SELECT %KV_STRTYP_X364;

      622     7734    2         ADDR(KV@SND_CNC)->CHR8 = 'X364';

   7734   1 00079E  DB80 0000 0000  00                   LAB,B5   KV_RCRLST
          1 0007A1  0021                                 ALR      ;
          1 0007A2       4405 0021                                ALPHANUM(33,B5,,4),;
          1 0007A4       4807 0019                                ALPHANUM(KV@SND_CNC,AUTO,,8,FILL)

PL6.E3A0      #001=KVC$CNC File=KVC$CNC.:E05TSI                                  WED 07/30/97 01:54 Page:97
      623     7735    2      END; /* END DO SELECT .STRTYP */

      624     7736    1      KV@VDH_SETPRM.VAL_.ADR$ = ADDR(KV@SND_CNC);

   7736   1 0007A6  DBC7 0019                            LAB,B5   KV@SND_CNC,AUTO
          1 0007A8  DFC7 0014                            STB,B5   KV@VDH_SETPRM+3,AUTO

      625     7737    1      KV@VDH_SETPRM.VAL_.BYTSIZ = 8;

   7737   1 0007AA  5C08                                 LDV,R5   8
          1 0007AB  DF47 0017                            STR,R5   KV@VDH_SETPRM+6,AUTO

      626     7738    1      KV@VDH_SETPRM.PRMID = %KV_PRMID_FCNTBL;

   7738   1 0007AD  4C7D                                 LDV,R4   125
          1 0007AE  CF47 0012                            STR,R4   KV@VDH_SETPRM+1,AUTO

      627     7739    1      CALL KVP$SETPRM(KV@VDH_SETPRM) ;

   7739   1 0007B0  BBC7 0011                            LAB,B3   KV@VDH_SETPRM,AUTO
          1 0007B2  437F                                 CSYNC    s:7739+1,SPREL
          1 0007B3  BFC7 0048                            STB,B3   @Y@SHRBFR+2,AUTO
          1 0007B5  BBC7 0048                            LAB,B3   @Y@SHRBFR+2,AUTO
          1 0007B7  CBF0 0100                            LAB,B4   256,IMO
          1 0007B9  E380 0000 0000  xent                 LNJ,B6   KVP$SETPRM
          1 0007BC       0001                            DC       s:7740,PREL

      628     7740    2      IF %KV_MVD.RETYPOVR THEN DO;

   7740   1 0007BD  EC80 0000 0000  xsym                 LDB,B6   KV$PTR$
          1 0007C0  DCC6 0006                            LDB,B5   6,B6
          1 0007C2  82C5 0016                            LB,'0080'X        22,B5
          1 0007C4       0080
          1 0007C5  0581 0012                            BBF      s:7745,PREL

      629     7741    2         IF %KV_MVD.ORG=%KV#VD_ORG_FORM THEN CALL KVC$DRWBRD;

PL6.E3A0      #001=KVC$CNC File=KVC$CNC.:E05TSI                                  WED 07/30/97 01:54 Page:98
   7741   1 0007C7  E2C5 0015                            LLH,R6   21,B5
          1 0007C9  6D04                                 CMV,R6   4
          1 0007CA  0981 0007                            BNE      s:7743,PREL

   7741   1 0007CC  CBF0 0000                            LAB,B4   0,IMO
          1 0007CE  E380 0000 0000  xent                 LNJ,B6   KVC$DRWBRD
          1 0007D1       0001                            DC       s:7743,PREL

      630     7742        /* Get rid of any borders for ORG=FORM */
      631     7743    2         CALL KVO$ERSSRD;

   7743   1 0007D2  CBF0 0000                            LAB,B4   0,IMO
          1 0007D4  E380 0000 0000  xent                 LNJ,B6   KVO$ERSSRD
          1 0007D7       0001                            DC       s:7745,PREL

      632     7744    2      END;

      633     7745    1      IF PRM_VDO_OPNSTR.ORG~=%KV#VD_ORG_X364 AND %KV_SSN.LSTEDTBFRSTRID=%KV_STR.ID

   7745   1 0007D8  ECC7 0004                            LDB,B6   @PRM,AUTO
          1 0007DA  E2C6 0001                            LLH,R6   1,B6
          1 0007DC  6D02                                 CMV,R6   2
          1 0007DD  0901 0012                            BE       s:7747,PREL
          1 0007DF  DC80 0000 0000  xsym                 LDB,B5   KV$PTR$
          1 0007E2  CCC5 0002                            LDB,B4   2,B5
          1 0007E4  BCC5 0004                            LDB,B3   4,B5
          1 0007E6  D2C4 0026                            LLH,R5   38,B4
          1 0007E8  C2C3 001C                            LLH,R4   28,B3
          1 0007EA  D954                                 CMR,R5   R4
          1 0007EB  0981 0004                            BNE      s:7747,PREL

      634     7746    1      THEN %KV_SSN.LSTEDTBFRSTRID = 1;

   7746   1 0007ED  3C01                                 LDV,R3   1
          1 0007EE  B7C4 0026                            STH,R3   38,B4

      635     7747    1      RETURN;
PL6.E3A0      #001=KVC$CNC File=KVC$CNC.:E05TSI                                  WED 07/30/97 01:54 Page:99

   7747   1 0007F0  C380 0000 0000  xent                 LNJ,B4   X6A_ARET

      636     7748        %EJECT;
PL6.E3A0      #001=KVC$CNC File=KVC$CNC.:E05TSI                                  WED 07/30/97 01:54 Page:100
      637     7749    1   Y$GETSTR: PROC(ID) ALTRET;

   7749   1 0007F3  EFC7 003E            Y$GETSTR        STB,B6   TEMP+1,AUTO

      638     7750        /* Gets a stream structure (KV$STR)                                           */
      639     7751    2   DCL ID UBIN;
      640     7752    2   DCL KV_SHRBFR_PRM1 UBIN SYMREF;
      641     7753    2   DCL KV_SHRBFR_PRM2 UBIN SYMREF;
      642     7754    2   DCL KV_SHRBFR_PRM3 UBIN SYMREF;
      643     7755    2   DCL PRMPTRS(0:3) PTR CONSTANT
      644     7756    2    INIT(ADDR(KV_SHRBFR_PRM1)*2,ADDR(KV_SHRBFR_PRM2),ADDR(KV_SHRBFR_PRM3));
      645     7757        /* Reports get-structure event to user                                        */
      646     7758
      647     7759        /* LOCAL                                                                      */
      648     7760
      649     7761        %KV$USR_EVT(NAME = KV@USR_EVT, STCLASS = AUTO);
      650     7796        %KV$USR_EVT(NAME = KV_USR_EVT, STCLASS = "SYMREF READONLY");
      651     7831        %KV$STR (NAME=Y@STR, STCLASS="BASED(KV@VDH_GETBFR.BFR$)");
      652     7918
      653     7919    2      KV@VDH_GETBFR.STRTYP = %KV_STRTYP_STR;

   7919   1 0007F5  6C16                                 LDV,R6   22
          1 0007F6  E7C7 000C                            STH,R6   KV@VDH_GETBFR+6,AUTO

      654     7920    3      CALL KVS$GETBFR(KV@VDH_GETBFR) WHENALTRETURN DO; ALTRETURN; END;

   7920   1 0007F8  DBC7 0006                            LAB,B5   KV@VDH_GETBFR,AUTO
          1 0007FA  DFC7 0048                            STB,B5   @Y@SHRBFR+2,AUTO
          1 0007FC  BBC7 0048                            LAB,B3   @Y@SHRBFR+2,AUTO
          1 0007FE  CBF0 0100                            LAB,B4   256,IMO
          1 000800  E380 0000 0000  xent                 LNJ,B6   KVS$GETBFR
          1 000803       0003                            DC       s:7920+14,PREL
          1 000804  0F81 0005                            B        s:7922,PREL

   7920   1 000806  ECC7 003E                            LDB,B6   TEMP+1,AUTO
          1 000808  B806                                 LDR,R3   ,B6
          1 000809  C3B6                                 LNJ,B4   ,B6,R3
PL6.E3A0      #001=KVC$CNC File=KVC$CNC.:E05TSI                                  WED 07/30/97 01:54 Page:101

      655     7921
      656     7922    3      IF KV$PTR.STR$~=ADDR(NIL) THEN DO;

   7922   1 00080A  EC80 0000 0000  xsym                 LDB,B6   KV$PTR$
          1 00080D  8DC6 0004                            CMN      4,B6
          1 00080F  0901 0049                            BE       s:7934,PREL

      657     7923    3         Y@STR.ACTONTRN = %KV_STR.ACTONTRN;

   7923   1 000811  DCC6 0004                            LDB,B5   4,B6
          1 000813  E845 001C                            LDR,R6   28,B5
          1 000815  CCC7 0007                            LDB,B4   KV@VDH_GETBFR+1,AUTO
          1 000817  EAC4 001C                            SRM,R6,'0080'X    28,B4
          1 000819       0080

      658     7924    3         Y@STR.AUTTABCLM = %KV_STR.AUTTABCLM;

   7924   1 00081A  DCC6 0004                            LDB,B5   4,B6
          1 00081C  E2C5 001E                            LLH,R6   30,B5
          1 00081E  E7C4 001E                            STH,R6   30,B4

      659     7925    3         Y@STR.WRDWRPCLM = %KV_STR.WRDWRPCLM;

   7925   1 000820  DCC6 0004                            LDB,B5   4,B6
          1 000822  E2C5 001D                            LLH,R6   29,B5
          1 000824  E7C4 001D                            STH,R6   29,B4

      660     7926    3         Y@STR.WRDWRP = %KV_STR.WRDWRP;

   7926   1 000826  DCC6 0004                            LDB,B5   4,B6
          1 000828  E845 001E                            LDR,R6   30,B5
          1 00082A  EAC4 001E                            SRM,R6,'0040'X    30,B4
          1 00082C       0040

      661     7927    3         Y@STR.OTPTAB$ = %KV_STR.OTPTAB$;

PL6.E3A0      #001=KVC$CNC File=KVC$CNC.:E05TSI                                  WED 07/30/97 01:54 Page:102
   7927   1 00082D  DCC6 0004                            LDB,B5   4,B6
          1 00082F  BCC5 0006                            LDB,B3   6,B5
          1 000831  BFC4 0006                            STB,B3   6,B4

      662     7928    3         CALL Y$INCSHRBFR (Y@STR.OTPTAB$->KV$SHRBFR);

   7928   1 000833  DCC7 0007                            LDB,B5   KV@VDH_GETBFR+1,AUTO
          1 000835  CCC5 0006                            LDB,B4   6,B5
          1 000837  CFC7 0046                            STB,B4   KV@USR_EVT+4,AUTO
          1 000839  E3C0 01A5                            LNJ,B6   s:0,PREL
          1 00083B       0001                            DC       s:7929,PREL

      663     7929    3         Y@STR.LFTMRGCLM = %KV_STR.LFTMRGCLM;

   7929   1 00083C  EC80 0000 0000  xsym                 LDB,B6   KV$PTR$
          1 00083F  DCC6 0004                            LDB,B5   4,B6
          1 000841  CCC7 0007                            LDB,B4   KV@VDH_GETBFR+1,AUTO
          1 000843  E845 001A                            LDR,R6   26,B5
          1 000845  EF44 001A                            STR,R6   26,B4

      664     7930    3         Y@STR.LNK$ = %KV_SSN.STR$->KV$STR.LNK$;

   7930   1 000847  DCC6 0002                            LDB,B5   2,B6
          1 000849  BCC5 0004                            LDB,B3   4,B5
          1 00084B  ACC3 0002                            LDB,B2   2,B3
          1 00084D  AFC4 0002                            STB,B2   2,B4

      665     7931    3         %KV_SSN.STR$->KV$STR.LNK$ = KV@VDH_GETBFR.BFR$;

   7931   1 00084F  DCC6 0002                            LDB,B5   2,B6
          1 000851  CCC5 0004                            LDB,B4   4,B5
          1 000853  BCC7 0007                            LDB,B3   KV@VDH_GETBFR+1,AUTO
          1 000855  BFC4 0002                            STB,B3   2,B4

      666     7932    3      END;

   7932   1 000857  0F81 0007                            B        s:7936,PREL
PL6.E3A0      #001=KVC$CNC File=KVC$CNC.:E05TSI                                  WED 07/30/97 01:54 Page:103

      667     7933    3      ELSE DO;

      668     7934    3         %KV_SSN.STR$ = KV@VDH_GETBFR.BFR$;

   7934   1 000859  DCC6 0002                            LDB,B5   2,B6
          1 00085B  CCC7 0007                            LDB,B4   KV@VDH_GETBFR+1,AUTO
          1 00085D  CFC5 0004                            STB,B4   4,B5

      669     7935    3      END;

      670     7936    2      Y@STR.SSN$ = KV$PTR.SSN$;

   7936   1 00085F  DCC6 0002                            LDB,B5   2,B6
          1 000861  CCC7 0007                            LDB,B4   KV@VDH_GETBFR+1,AUTO
          1 000863  DF84                                 STB,B5   ,B4

      671     7937    2      Y@STR.ID = ID;

   7937   1 000864  ECC7 0040                            LDB,B6   @ID,AUTO
          1 000866  E806                                 LDR,R6   ,B6
          1 000867  DCC7 0007                            LDB,B5   KV@VDH_GETBFR+1,AUTO
          1 000869  E7C5 001C                            STH,R6   28,B5

      672     7938    2      Y@STR.MVD$ = KV$PTR.MVD$;

   7938   1 00086B  CC80 0000 0000  xsym                 LDB,B4   KV$PTR$
          1 00086E  BCC4 0006                            LDB,B3   6,B4
          1 000870  BFC5 0004                            STB,B3   4,B5

      673     7939    2      KV$PTR.STR$ = KV@VDH_GETBFR.BFR$;

   7939   1 000872  DCC7 0007                            LDB,B5   KV@VDH_GETBFR+1,AUTO
          1 000874  DFC4 0004                            STB,B5   4,B4

      674     7940    2      %KV_MVD.USRCNT = %KV_MVD.USRCNT+1;

PL6.E3A0      #001=KVC$CNC File=KVC$CNC.:E05TSI                                  WED 07/30/97 01:54 Page:104
   7940   1 000876  BCC4 0006                            LDB,B3   6,B4
          1 000878  8AC3 0012                            INC      18,B3

      675     7941    2      IF ID<4 THEN Y@STR.PRM$ = PRMPTRS(ID);

   7941   1 00087A  E806                                 LDR,R6   ,B6
          1 00087B  6D04                                 CMV,R6   4
          1 00087C  0281 0009                            BGE      s:7941+12,PREL

   7941   1 00087E  B856                                 LDR,R3   R6
          1 00087F  DCB0 0000 0012  00                   LDB,B5   PRMPTRS,R3
          1 000882  BCC7 0007                            LDB,B3   KV@VDH_GETBFR+1,AUTO
          1 000884  DFC3 0008                            STB,B5   8,B3
          1 000886  0F81 0003                            B        s:7948,PREL

      676     7942
      677     7943    2   CALUSRGETSTR: ENTRY ALTRET;

   7943   1 000888  EFC7 003E            CALUSRGETSTR    STB,B6   TEMP+1,AUTO

      678     7944        /* Reports get-structure event to user                                        */
      679     7945
      680     7946        /* CHECK TO SEE IF USER WANTS EVENT FOR PARTICULAR STRUCTURE                  */
      681     7947
      682     7948    3      IF %KV_USRPRM.STREVTENB(KV@VDH_GETBFR.STRTYP) THEN DO;

   7948   1 00088A  EC80 0000 0000  xsym                 LDB,B6   KV$PTR$
          1 00088D  DC86                                 LDB,B5   ,B6
          1 00088E  CCC5 0008                            LDB,B4   8,B5
          1 000890  BBC4 002B                            LAB,B3   43,B4
          1 000892  B2C7 000C                            LLH,R3   KV@VDH_GETBFR+6,AUTO
          1 000894  82B3                                 LB       ,B3,R3
          1 000895  0581 0018                            BBF      s:7956,PREL

      683     7949
      684     7950        /* WE MUST TELL THE USER                                                      */
      685     7951    3         KV@USR_EVT = KV_USR_EVT;
PL6.E3A0      #001=KVC$CNC File=KVC$CNC.:E05TSI                                  WED 07/30/97 01:54 Page:105

   7951   1 000897  8C80 0000 0000  xsym                 LDI      KV_USR_EVT
          1 00089A  8D47 0042                            SDI      KV@USR_EVT,AUTO

      686     7952    3         KV@USR_EVT.ID = %KV_USR_EVT_ID_GETSTR;

   7952   1 00089C  5C06                                 LDV,R5   6
          1 00089D  DAC7 0042                            SRM,R5,'007F'X    KV@USR_EVT,AUTO
          1 00089F       007F

      687     7953    3         KV@USR_EVT.PRM = KV@VDH_GETBFR.STRTYP;

   7953   1 0008A0  BF47 0043                            STR,R3   KV@USR_EVT+1,AUTO

      688     7954    3         CALL KVV$CALUSR_EVT (KV@USR_EVT);

   7954   1 0008A2  DBC7 0042                            LAB,B5   KV@USR_EVT,AUTO
          1 0008A4  DFC7 0048                            STB,B5   @Y@SHRBFR+2,AUTO
          1 0008A6  BBC7 0048                            LAB,B3   @Y@SHRBFR+2,AUTO
          1 0008A8  CBF0 0100                            LAB,B4   256,IMO
          1 0008AA  E380 0000 0000  xent                 LNJ,B6   KVV$CALUSR_EVT
          1 0008AD       0001                            DC       s:7956,PREL

      689     7955    3      END /* IF */;

      690     7956    2   END /* SUBROUTINE */;

   7956   1 0008AE  ECC7 003E                            LDB,B6   TEMP+1,AUTO
          1 0008B0  C3C6 0001                            LNJ,B4   1,B6

      691     7957        %EJECT;
PL6.E3A0      #001=KVC$CNC File=KVC$CNC.:E05TSI                                  WED 07/30/97 01:54 Page:106
      692     7958        /* Strip a stream of its appendages.                                          */
      693     7959
      694     7960
      695     7961    1   Y$STRSTR: PROC;

   7961   1 0008B2  EFC7 003E            Y$STRSTR        STB,B6   TEMP+1,AUTO

      696     7962
      697     7963        /* Release the prompt buffer.                                                 */
      698     7964
      699     7965    2      %VDH_RLSBFR.BFR$ = %KV_STR.PRM$;

   7965   1 0008B4  DC80 0000 0000  xsym                 LDB,B5   KV$PTR$
          1 0008B7  CCC5 0004                            LDB,B4   4,B5
          1 0008B9  BCC4 0008                            LDB,B3   8,B4
          1 0008BB  BFC7 0007                            STB,B3   KV@VDH_GETBFR+1,AUTO

      700     7966    2      %VDH_RLSBFR.STRTYP = %KV_STRTYP_PRM;

   7966   1 0008BD  6C0F                                 LDV,R6   15
          1 0008BE  E7C7 000C                            STH,R6   KV@VDH_GETBFR+6,AUTO

      701     7967    2      CALL KVS$RLSBFR(%VDH_RLSBFR);

   7967   1 0008C0  CBC7 0006                            LAB,B4   KV@VDH_GETBFR,AUTO
          1 0008C2  CFC7 0048                            STB,B4   @Y@SHRBFR+2,AUTO
          1 0008C4  BBC7 0048                            LAB,B3   @Y@SHRBFR+2,AUTO
          1 0008C6  CBF0 0100                            LAB,B4   256,IMO
          1 0008C8  E380 0000 0000  xent                 LNJ,B6   KVS$RLSBFR
          1 0008CB       0001                            DC       s:7968,PREL

      702     7968    2      %KV_STR.PRM$ = ADDR(NIL);

   7968   1 0008CC  EC80 0000 0000  xsym                 LDB,B6   KV$PTR$
          1 0008CF  DCC6 0004                            LDB,B5   4,B6
          1 0008D1  CB80 0000 0000                       LAB,B4   0
          1 0008D4  CFC5 0008                            STB,B4   8,B5
PL6.E3A0      #001=KVC$CNC File=KVC$CNC.:E05TSI                                  WED 07/30/97 01:54 Page:107

      703     7969
      704     7970        /* Release the edit buffer, if there is one.                                  */
      705     7971
      706     7972    2      %VDH_RLSBFR.STRTYP = %KV_STRTYP_REDBFR;

   7972   1 0008D6  6C11                                 LDV,R6   17
          1 0008D7  E7C7 000C                            STH,R6   KV@VDH_GETBFR+6,AUTO

      707     7973    2      %VDH_RLSBFR.BFR$ = %KV_STR.EDTBFR__.ADR$;

   7973   1 0008D9  DCC6 0004                            LDB,B5   4,B6
          1 0008DB  CCC5 000C                            LDB,B4   12,B5
          1 0008DD  CFC7 0007                            STB,B4   KV@VDH_GETBFR+1,AUTO

      708     7974    2      %VDH_RLSBFR.BYTSIZ = %KV_STR.EDTBFR__.BFRBYTSIZ;

   7974   1 0008DF  DCC6 0004                            LDB,B5   4,B6
          1 0008E1  D845 0010                            LDR,R5   16,B5
          1 0008E3  DF47 0009                            STR,R5   KV@VDH_GETBFR+3,AUTO

      709     7975    2      IF %KV_STR.EDTBFR__.BFRRLSDSP~=%KV_BFRRLSDSP_NON

   7975   1 0008E5  DCC6 0004                            LDB,B5   4,B6
          1 0008E7  82C5 0011                            LB,'00FF'X        17,B5
          1 0008E9       00FF
          1 0008EA  0581 000D                            BBF      s:7977,PREL

      710     7976    2      THEN CALL KVS$RLSBFR(%VDH_RLSBFR);

   7976   1 0008EC  BBC7 0006                            LAB,B3   KV@VDH_GETBFR,AUTO
          1 0008EE  BFC7 0048                            STB,B3   @Y@SHRBFR+2,AUTO
          1 0008F0  BBC7 0048                            LAB,B3   @Y@SHRBFR+2,AUTO
          1 0008F2  CBF0 0100                            LAB,B4   256,IMO
          1 0008F4  E380 0000 0000  xent                 LNJ,B6   KVS$RLSBFR
          1 0008F7       0001                            DC       s:7977,PREL

PL6.E3A0      #001=KVC$CNC File=KVC$CNC.:E05TSI                                  WED 07/30/97 01:54 Page:108
      711     7977    2      %KV_STR.EDTBFR__ = '0'B;

   7977   1 0008F8  EC80 0000 0000  xsym                 LDB,B6   KV$PTR$
          1 0008FB  DCC6 0004                            LDB,B5   4,B6
          1 0008FD  5C0C                                 LDV,R5   12
          1 0008FE  0021                                 ALR      ;
          1 0008FF       4178 0000                                ALPHANUM('0000'X,IMO,,1),;
          1 000901       4005 000C                                ALPHANUM(12,B5,,R5,FILL)

      712     7978
      713     7979        /* strip activation character set                                             */
      714     7980
      715     7981    2      %VDH_RLSBFR.STRTYP = %KV_STRTYP_ACTCHR;

   7981   1 000903  6C01                                 LDV,R6   1
          1 000904  437F                                 CSYNC    s:7981,SPREL
          1 000905  E7C7 000C                            STH,R6   KV@VDH_GETBFR+6,AUTO

      716     7982    2      %VDH_RLSBFR.BFR$ = %KV_STR.ACTCHRTBL$;

   7982   1 000907  DCC6 0004                            LDB,B5   4,B6
          1 000909  CCC5 000A                            LDB,B4   10,B5
          1 00090B  CFC7 0007                            STB,B4   KV@VDH_GETBFR+1,AUTO

      717     7983    2      CALL KVS$RLSBFR(%VDH_RLSBFR);

   7983   1 00090D  DBC7 0006                            LAB,B5   KV@VDH_GETBFR,AUTO
          1 00090F  DFC7 0048                            STB,B5   @Y@SHRBFR+2,AUTO
          1 000911  BBC7 0048                            LAB,B3   @Y@SHRBFR+2,AUTO
          1 000913  CBF0 0100                            LAB,B4   256,IMO
          1 000915  E380 0000 0000  xent                 LNJ,B6   KVS$RLSBFR
          1 000918       0001                            DC       s:7984,PREL

      718     7984    2      %KV_STR.ACTCHRTBL$ = ADDR(NIL);

   7984   1 000919  EC80 0000 0000  xsym                 LDB,B6   KV$PTR$
          1 00091C  DCC6 0004                            LDB,B5   4,B6
PL6.E3A0      #001=KVC$CNC File=KVC$CNC.:E05TSI                                  WED 07/30/97 01:54 Page:109
          1 00091E  CB80 0000 0000                       LAB,B4   0
          1 000921  CFC5 000A                            STB,B4   10,B5

      719     7985    2      %VDH_RLSBFR.STRTYP = %KV_STRTYP_OTPTAB;

   7985   1 000923  6C0D                                 LDV,R6   13
          1 000924  E7C7 000C                            STH,R6   KV@VDH_GETBFR+6,AUTO

      720     7986    2      %VDH_RLSBFR.BFR$ = %KV_STR.OTPTAB$;

   7986   1 000926  DCC6 0004                            LDB,B5   4,B6
          1 000928  CCC5 0006                            LDB,B4   6,B5
          1 00092A  CFC7 0007                            STB,B4   KV@VDH_GETBFR+1,AUTO

      721     7987    2      %KV_STR.OTPTAB$ = ADDR(NIL);

   7987   1 00092C  DCC6 0004                            LDB,B5   4,B6
          1 00092E  BB80 0000 0000                       LAB,B3   0
          1 000931  BFC5 0006                            STB,B3   6,B5

      722     7988    2      CALL KVS$RLSBFR(%VDH_RLSBFR);

   7988   1 000933  DBC7 0006                            LAB,B5   KV@VDH_GETBFR,AUTO
          1 000935  DFC7 0048                            STB,B5   @Y@SHRBFR+2,AUTO
          1 000937  BBC7 0048                            LAB,B3   @Y@SHRBFR+2,AUTO
          1 000939  CBF0 0100                            LAB,B4   256,IMO
          1 00093B  E380 0000 0000  xent                 LNJ,B6   KVS$RLSBFR
          1 00093E       0001                            DC       s:7990,PREL

      723     7989
      724     7990    2   END /* SUBROUTINE */;

   7990   1 00093F  ECC7 003E                            LDB,B6   TEMP+1,AUTO
          1 000941  C3C6 0001                            LNJ,B4   1,B6

      725     7991        %EJECT;
PL6.E3A0      #001=KVC$CNC File=KVC$CNC.:E05TSI                                  WED 07/30/97 01:54 Page:110
      726     7992    1   Y$GETMVD: PROC ALTRET;

   7992   1 000943  EFC7 003E            Y$GETMVD        STB,B6   TEMP+1,AUTO

      727     7993        %KV$MVD (NAME=Y@MVD, STCLASS="BASED(KV@VDH_GETBFR.BFR$)");
      728     8037
      729     8038    2      KV@VDH_GETBFR.STRTYP = %KV_STRTYP_MVD;

   8038   1 000945  6C0C                                 LDV,R6   12
          1 000946  E7C7 000C                            STH,R6   KV@VDH_GETBFR+6,AUTO

      730     8039    2      CALL KVS$GETBFR (KV@VDH_GETBFR)

   8039   1 000948  DBC7 0006                            LAB,B5   KV@VDH_GETBFR,AUTO
          1 00094A  DFC7 0048                            STB,B5   @Y@SHRBFR+2,AUTO
          1 00094C  BBC7 0048                            LAB,B3   @Y@SHRBFR+2,AUTO
          1 00094E  CBF0 0100                            LAB,B4   256,IMO
          1 000950  E380 0000 0000  xent                 LNJ,B6   KVS$GETBFR
          1 000953       0003                            DC       s:8045,PREL
          1 000954  0F81 0005                            B        s:8047,PREL

      731     8040    3      WHENALTRETURN DO;

      732     8041
      733     8042        /* We got an error return on the request to get memory for the                */
      734     8043        /* KV$MVD structure.                                                          */
      735     8044
      736     8045    3         ALTRETURN;

   8045   1 000956  ECC7 003E                            LDB,B6   TEMP+1,AUTO
          1 000958  B806                                 LDR,R3   ,B6
          1 000959  C3B6                                 LNJ,B4   ,B6,R3

      737     8046    3      END /* IF */;
      738     8047    2      Y@MVD = %KV_MVD;                     /* Initialize from the current one.   */

   8047   1 00095A  EC80 0000 0000  xsym                 LDB,B6   KV$PTR$
PL6.E3A0      #001=KVC$CNC File=KVC$CNC.:E05TSI                                  WED 07/30/97 01:54 Page:111
          1 00095D  DCC6 0006                            LDB,B5   6,B6
          1 00095F  AB85                                 LAB,B2   ,B5
          1 000960  2C00                                 LDV,R2   0
          1 000961  6C40                                 LDV,R6   64
          1 000962  BCC7 0007                            LDB,B3   KV@VDH_GETBFR+1,AUTO
          1 000964  3C00                                 LDV,R3   0
          1 000965  0008                                 MMM

      739     8048    2      %KV_MVD.USRCNT = %KV_MVD.USRCNT-1;

   8048   1 000966  EC80 0000 0000  xsym                 LDB,B6   KV$PTR$
          1 000969  CCC6 0006                            LDB,B4   6,B6
          1 00096B  88C4 0012                            DEC      18,B4

      740     8049    2      %KV_STR.MVD$ = KV@VDH_GETBFR.BFR$;

   8049   1 00096D  CCC6 0004                            LDB,B4   4,B6
          1 00096F  BCC7 0007                            LDB,B3   KV@VDH_GETBFR+1,AUTO
          1 000971  BFC4 0004                            STB,B3   4,B4

      741     8050    2      Y@MVD.SRD$ = KV$PTR.SRD$;

   8050   1 000973  CCC6 000A                            LDB,B4   10,B6
          1 000975  BCC7 0007                            LDB,B3   KV@VDH_GETBFR+1,AUTO
          1 000977  CF83                                 STB,B4   ,B3

      742     8051    2      %KV_SRD.USRCNT = %KV_SRD.USRCNT+1;

   8051   1 000978  EC80 0000 0000  xsym                 LDB,B6   KV$PTR$
          1 00097B  CCC6 000A                            LDB,B4   10,B6
          1 00097D  8AC4 0006                            INC      6,B4

      743     8052    2      Y@MVD.LNK$ = %KV_MRD.MVD$;

   8052   1 00097F  CCC6 0008                            LDB,B4   8,B6
          1 000981  BCC4 000D                            LDB,B3   13,B4
          1 000983  9CC7 0007                            LDB,B1   KV@VDH_GETBFR+1,AUTO
PL6.E3A0      #001=KVC$CNC File=KVC$CNC.:E05TSI                                  WED 07/30/97 01:54 Page:112
          1 000985  BFC1 0002                            STB,B3   2,B1

      744     8053    2      %KV_MRD.MVD$ = KV@VDH_GETBFR.BFR$;

   8053   1 000987  CCC6 0008                            LDB,B4   8,B6
          1 000989  BCC7 0007                            LDB,B3   KV@VDH_GETBFR+1,AUTO
          1 00098B  BFC4 000D                            STB,B3   13,B4

      745     8054    2      Y@MVD.ORG = %KV#VD_ORG_UR;

   8054   1 00098D  6C01                                 LDV,R6   1
          1 00098E  E7C3 0015                            STH,R6   21,B3

      746     8055    2      Y@MVD.USRCNT = 1;

   8055   1 000990  EF43 0012                            STR,R6   18,B3

      747     8056    2      Y@MVD.LINLST$ = ADDR(NIL);

   8056   1 000992  CB80 0000 0000                       LAB,B4   0
          1 000995  CFC3 0010                            STB,B4   16,B3

      748     8057    2      Y@MVD.PAGBRKPND = '0'B;

   8057   1 000997  8843 0016                            LBF,'0001'X       22,B3
   8057   1 000999       0001

      749     8058    2      Y@MVD.FRMSCNINH = '0'B;

   8058   1 00099A  8843 0016                            LBF,'0010'X       22,B3
   8058   1 00099C       0010

      750     8059    2      CALL Y$INCSHRBFR (Y@MVD.INPTAB$->KV$SHRBFR);

   8059   1 00099D  9CC3 0004                            LDB,B1   4,B3
          1 00099F  9FC7 0046                            STB,B1   KV@USR_EVT+4,AUTO
          1 0009A1  E3C0 003D                            LNJ,B6   s:0,PREL
PL6.E3A0      #001=KVC$CNC File=KVC$CNC.:E05TSI                                  WED 07/30/97 01:54 Page:113
          1 0009A3       0001                            DC       s:8060,PREL

      751     8060    2      Y@MVD.INPFNCCPY = '11'B;

   8060   1 0009A4  ECC7 0007                            LDB,B6   KV@VDH_GETBFR+1,AUTO
          1 0009A6  8946 001F                            LBT,'0060'X       31,B6
          1 0009A8       0060

      752     8061    2      CALL Y$INCSHRBFR (Y@MVD.USRINPFNCTBL$->KV$SHRBFR);

   8061   1 0009A9  DCC6 0008                            LDB,B5   8,B6
          1 0009AB  DFC7 0046                            STB,B5   KV@USR_EVT+4,AUTO
          1 0009AD  E3C0 0031                            LNJ,B6   s:0,PREL
          1 0009AF       0001                            DC       s:8062,PREL

      753     8062    2      CALL Y$INCSHRBFR (Y@MVD.SSTINPFNCTBL$->KV$SHRBFR);

   8062   1 0009B0  ECC7 0007                            LDB,B6   KV@VDH_GETBFR+1,AUTO
          1 0009B2  DCC6 000A                            LDB,B5   10,B6
          1 0009B4  DFC7 0046                            STB,B5   KV@USR_EVT+4,AUTO
          1 0009B6  E3C0 0028                            LNJ,B6   s:0,PREL
          1 0009B8       0001                            DC       s:8063,PREL

      754     8063    2      CALL Y$INCSHRBFR (Y@MVD.VFU$->KV$SHRBFR);

   8063   1 0009B9  ECC7 0007                            LDB,B6   KV@VDH_GETBFR+1,AUTO
          1 0009BB  DCC6 000C                            LDB,B5   12,B6
          1 0009BD  DFC7 0046                            STB,B5   KV@USR_EVT+4,AUTO
          1 0009BF  E3C0 001F                            LNJ,B6   s:0,PREL
          1 0009C1       0001                            DC       s:8064,PREL

      755     8064    2      CALL Y$INCSHRBFR (Y@MVD.TRNTBL$->KV$SHRBFR);

   8064   1 0009C2  ECC7 0007                            LDB,B6   KV@VDH_GETBFR+1,AUTO
          1 0009C4  DCC6 000E                            LDB,B5   14,B6
          1 0009C6  DFC7 0046                            STB,B5   KV@USR_EVT+4,AUTO
          1 0009C8  E3C0 0016                            LNJ,B6   s:0,PREL
PL6.E3A0      #001=KVC$CNC File=KVC$CNC.:E05TSI                                  WED 07/30/97 01:54 Page:114
          1 0009CA       0001                            DC       s:8065,PREL

      756     8065    2      CALL Y$INCSHRBFR (Y@MVD.DCBHDN$->KV$SHRBFR);

   8065   1 0009CB  ECC7 0007                            LDB,B6   KV@VDH_GETBFR+1,AUTO
          1 0009CD  DCC6 0006                            LDB,B5   6,B6
          1 0009CF  DFC7 0046                            STB,B5   KV@USR_EVT+4,AUTO
          1 0009D1  E3C0 000D                            LNJ,B6   s:0,PREL
          1 0009D3       0001                            DC       s:8067,PREL

      757     8066
      758     8067    2      KV$PTR.MVD$ = KV@VDH_GETBFR.BFR$;

   8067   1 0009D4  ECC7 0007                            LDB,B6   KV@VDH_GETBFR+1,AUTO
          1 0009D6  DC80 0000 0000  xsym                 LDB,B5   KV$PTR$
          1 0009D9  EFC5 0006                            STB,B6   6,B5

      759     8068
      760     8069    2   END /* SUBROUTINE */;

   8069   1 0009DB  ECC7 003E                            LDB,B6   TEMP+1,AUTO
          1 0009DD  C3C6 0001                            LNJ,B4   1,B6

      761     8070        %EJECT;
PL6.E3A0      #001=KVC$CNC File=KVC$CNC.:E05TSI                                  WED 07/30/97 01:54 Page:115
      762     8071    1   Y$INCSHRBFR: PROC(Y@SHRBFR);

   8071   1 0009DF  EFC7 0044            Y$INCSHRBFR     STB,B6   KV@USR_EVT+2,AUTO

      763     8072        %KV$SHRBFR (NAME=Y@SHRBFR, STCLASS=);
      764     8104
      765     8105    2      IF ADDR(Y@SHRBFR)~=ADDR(NIL)

   8105   1 0009E1  DCC7 0046                            LDB,B5   @Y@SHRBFR,AUTO
          1 0009E3  8DD5                                 CMN      B5
          1 0009E4  0901 0009                            BE       s:8108,PREL

      766     8106    2      THEN IF Y@SHRBFR.USRCNT~=%KV_SHRBFR_CNSUSRCNT

   8106   1 0009E6  E845 0003                            LDR,R6   3,B5
          1 0009E8  E970 7FFF                            CMR,R6   32767,IMO
          1 0009EA  0901 0003                            BE       s:8108,PREL

      767     8107    2      THEN Y@SHRBFR.USRCNT = Y@SHRBFR.USRCNT+1;

   8107   1 0009EC  8AC5 0003                            INC      3,B5

      768     8108    2   END Y$INCSHRBFR;

   8108   1 0009EE  ECC7 0044                            LDB,B6   KV@USR_EVT+2,AUTO
          1 0009F0  C3C6 0001                            LNJ,B4   1,B6

      769     8109        %EJECT;
PL6.E3A0      #001=KVC$CNC File=KVC$CNC.:E05TSI                                  WED 07/30/97 01:54 Page:116
      770     8110    1   Y$GETSRD: PROC ALTRET;

   8110   1 0009F2  EFC7 003E            Y$GETSRD        STB,B6   TEMP+1,AUTO

      771     8111
      772     8112        /* Get a new subordinate real device.                                           */
      773     8113
      774     8114        %KV$SRD (NAME=Y@SRD, STCLASS="BASED(KV@VDH_GETBFR.BFR$)");
      775     8389
      776     8390    2      KV@VDH_GETBFR.STRTYP = %KV_STRTYP_SRD;

   8390   1 0009F4  6C12                                 LDV,R6   18
          1 0009F5  E7C7 000C                            STH,R6   KV@VDH_GETBFR+6,AUTO

      777     8391    2      CALL KVS$GETBFR(KV@VDH_GETBFR)

   8391   1 0009F7  DBC7 0006                            LAB,B5   KV@VDH_GETBFR,AUTO
          1 0009F9  DFC7 0048                            STB,B5   @Y@SHRBFR+2,AUTO
          1 0009FB  BBC7 0048                            LAB,B3   @Y@SHRBFR+2,AUTO
          1 0009FD  CBF0 0100                            LAB,B4   256,IMO
          1 0009FF  E380 0000 0000  xent                 LNJ,B6   KVS$GETBFR
          1 000A02       0003                            DC       s:8397,PREL
          1 000A03  0F81 0005                            B        s:8399,PREL

      778     8392    3      WHENALTRETURN DO;

      779     8393
      780     8394        /* We got an error return on the request to get memory for the                */
      781     8395        /* KV$SRD structure.                                                          */
      782     8396
      783     8397    3         ALTRETURN;

   8397   1 000A05  ECC7 003E                            LDB,B6   TEMP+1,AUTO
          1 000A07  B806                                 LDR,R3   ,B6
          1 000A08  C3B6                                 LNJ,B4   ,B6,R3

      784     8398    3      END /* IF */;
PL6.E3A0      #001=KVC$CNC File=KVC$CNC.:E05TSI                                  WED 07/30/97 01:54 Page:117
      785     8399    2      IF PRM_WINDOW.FWINDOW$=ADDR(NIL)

   8399   1 000A09  ECC7 0004                            LDB,B6   @PRM,AUTO
          1 000A0B  8D86                                 CMN      ,B6
          1 000A0C  0981 0007                            BNE      s:8401,PREL

      786     8400    2      THEN PRM_WINDOW.FWINDOW$ = KV$PTR.SRD$;

   8400   1 000A0E  DC80 0000 0000  xsym                 LDB,B5   KV$PTR$
          1 000A11  CCC5 000A                            LDB,B4   10,B5
          1 000A13  CF86                                 STB,B4   ,B6

      787     8401    2      Y@SRD = PRM_WINDOW.FWINDOW$->Y@SRD;

   8401   1 000A14  DC86                                 LDB,B5   ,B6
          1 000A15  AB85                                 LAB,B2   ,B5
          1 000A16  2C00                                 LDV,R2   0
          1 000A17  6C3E                                 LDV,R6   62
          1 000A18  BCC7 0007                            LDB,B3   KV@VDH_GETBFR+1,AUTO
          1 000A1A  3C00                                 LDV,R3   0
          1 000A1B  0008                                 MMM

      788     8402    2      Y@SRD.LNK$ = %KV_MRD.SRD$;

   8402   1 000A1C  CC80 0000 0000  xsym                 LDB,B4   KV$PTR$
          1 000A1F  BCC4 0008                            LDB,B3   8,B4
          1 000A21  9CC3 0002                            LDB,B1   2,B3
          1 000A23  ECC7 0007                            LDB,B6   KV@VDH_GETBFR+1,AUTO
          1 000A25  9FC6 0002                            STB,B1   2,B6

      789     8403    2      %KV_MRD.SRD$ = KV@VDH_GETBFR.BFR$;

   8403   1 000A27  ECC4 0008                            LDB,B6   8,B4
          1 000A29  BCC7 0007                            LDB,B3   KV@VDH_GETBFR+1,AUTO
          1 000A2B  BFC6 0002                            STB,B3   2,B6

      790     8404    2      %KV_MRD.USRCNT = %KV_MRD.USRCNT+1;
PL6.E3A0      #001=KVC$CNC File=KVC$CNC.:E05TSI                                  WED 07/30/97 01:54 Page:118

   8404   1 000A2D  ECC4 0008                            LDB,B6   8,B4
          1 000A2F  E846 000A                            LDR,R6   10,B6
          1 000A31  EA70 0001                            ADD,R6   1,IMO
          1 000A33  EAC6 000A                            SRM,R6,'00FF'X    10,B6
          1 000A35       00FF

      791     8405    2      Y@SRD.USRCNT = 1;

   8405   1 000A36  ECC7 0007                            LDB,B6   KV@VDH_GETBFR+1,AUTO
          1 000A38  6C01                                 LDV,R6   1
          1 000A39  EF46 0006                            STR,R6   6,B6

      792     8406    2      %KV_SRD.USRCNT = %KV_SRD.USRCNT-1;

   8406   1 000A3B  ECC4 000A                            LDB,B6   10,B4
          1 000A3D  88C6 0006                            DEC      6,B6

      793     8407    2      Y@SRD.VRTPSTOK = '0'B;

   8407   1 000A3F  ECC7 0007                            LDB,B6   KV@VDH_GETBFR+1,AUTO
          1 000A41  8846 000E                            LBF,'0010'X       14,B6
          1 000A43       0010

      794     8408    2      Y@SRD.ADJTOPLFT = '0'B;

   8408   1 000A44  8846 000F                            LBF,'0008'X       15,B6
   8408   1 000A46       0008

      795     8409    3      DO CASE (PRM_WINDOW.POSITION);

   8409   1 000A47  BCC7 0004                            LDB,B3   @PRM,AUTO
          1 000A49  B2C3 0004                            LLH,R3   4,B3
          1 000A4B  3D05                                 CMV,R3   5
          1 000A4C  0281 002C                            BGE      s:8421,PREL
          1 000A4E  A830 0000 0A54  01                   LDR,R2   s:8409+13,R3
          1 000A51  83A0 0000 0A59  01                   JMP      s:8411,R2
PL6.E3A0      #001=KVC$CNC File=KVC$CNC.:E05TSI                                  WED 07/30/97 01:54 Page:119
          1 000A54       0020                            DC       s:8421,PREL
          1 000A55       0000                            DC       s:8411,PREL
          1 000A56       0006                            DC       s:8413,PREL
          1 000A57       000C                            DC       s:8415,PREL
          1 000A58       0017                            DC       s:8418,PREL

      796     8410    3      CASE (%G_POSITION_TOP#);

      797     8411    3         Y@SRD.SRDEND.LIN = Y@SRD.ORG.LIN;

   8411   1 000A59  D846 0007                            LDR,R5   7,B6
          1 000A5B  DF46 001A                            STR,R5   26,B6
          1 000A5D  0F81 001B                            B        s:8421,PREL

      798     8412    3      CASE (%G_POSITION_LEFT#);

      799     8413    3         Y@SRD.SRDEND.CLM = Y@SRD.ORG.CLM;

   8413   1 000A5F  D846 0008                            LDR,R5   8,B6
          1 000A61  DF46 001B                            STR,R5   27,B6
          1 000A63  0F81 0015                            B        s:8421,PREL

      800     8414    3      CASE (%G_POSITION_RIGHT#);

      801     8415    3         Y@SRD.ORG.CLM = Y@SRD.SRDEND.CLM;

   8415   1 000A65  D846 001B                            LDR,R5   27,B6
          1 000A67  DF46 0008                            STR,R5   8,B6

      802     8416    3         Y@SRD.ADJTOPLFT = '1'B;

   8416   1 000A69  ECC7 0007                            LDB,B6   KV@VDH_GETBFR+1,AUTO
          1 000A6B  8946 000F                            LBT,'0008'X       15,B6
          1 000A6D       0008
          1 000A6E  0F81 000A                            B        s:8421,PREL

      803     8417    3      CASE (%G_POSITION_BOTTOM#);
PL6.E3A0      #001=KVC$CNC File=KVC$CNC.:E05TSI                                  WED 07/30/97 01:54 Page:120

      804     8418    3         Y@SRD.ORG.LIN = Y@SRD.SRDEND.LIN;

   8418   1 000A70  D846 001A                            LDR,R5   26,B6
          1 000A72  DF46 0007                            STR,R5   7,B6

      805     8419    3         Y@SRD.ADJTOPLFT = '1'B;

   8419   1 000A74  ECC7 0007                            LDB,B6   KV@VDH_GETBFR+1,AUTO
          1 000A76  8946 000F                            LBT,'0008'X       15,B6
          1 000A78       0008

      806     8420    3      END;

      807     8421    2      Y@SRD.LNG = Y@SRD.SRDEND.LIN-Y@SRD.ORG.LIN;

   8421   1 000A79  D846 001A                            LDR,R5   26,B6
          1 000A7B  D246 0007                            SUB,R5   7,B6
          1 000A7D  D7C6 000E                            STH,R5   14,B6

      808     8422    2      Y@SRD.WDT = Y@SRD.SRDEND.CLM-Y@SRD.ORG.CLM;

   8422   1 000A7F  D846 001B                            LDR,R5   27,B6
          1 000A81  D246 0008                            SUB,R5   8,B6
          1 000A83  DF46 000D                            STR,R5   13,B6

      809     8423    2      Y@SRD.CRT.LIN = Y@SRD.TOPLFT.LIN+Y@SRD.DVCLINBIS;

   8423   1 000A85  C846 0009                            LDR,R4   9,B6
          1 000A87  CA46 0019                            ADD,R4   25,B6
          1 000A89  CF46 0015                            STR,R4   21,B6

      810     8424    2      Y@SRD.CRTVRTLINPHSLIN = Y@SRD.CRT.LIN;

   8424   1 000A8B  CF46 0013                            STR,R4   19,B6

      811     8425    2      Y@SRD.ENTSRDCHR$ = ADDR(NIL);
PL6.E3A0      #001=KVC$CNC File=KVC$CNC.:E05TSI                                  WED 07/30/97 01:54 Page:121

   8425   1 000A8D  9B80 0000 0000                       LAB,B1   0
          1 000A90  9FC6 0004                            STB,B1   4,B6

      812     8426    2      Y@SRD.DVCLINBIS = 0;

   8426   1 000A92  ECC7 0007                            LDB,B6   KV@VDH_GETBFR+1,AUTO
          1 000A94  8746 0019                            CL       25,B6

      813     8427    2      Y@SRD.TOPLFT_PST = Y@SRD.ORG_PST+%BITBIN('10001'X);

   8427   1 000A96  8CC6 0007                            LDI      7,B6
          1 000A98  8470 0001 0001                       AID      65537,IMO
          1 000A9B  8D46 0009                            SDI      9,B6

      814     8428    2      %KV_MVD.WDT = Y@SRD.WDT;

   8428   1 000A9D  9CC4 0006                            LDB,B1   6,B4
          1 000A9F  D846 000D                            LDR,R5   13,B6
          1 000AA1  DF41 0013                            STR,R5   19,B1

      815     8429    2      Y@SRD.BTMRHT = Y@SRD.SRDEND;

   8429   1 000AA3  8CC6 001A                            LDI      26,B6
          1 000AA5  8D46 000B                            SDI      11,B6

      816     8430    2      Y@SRD.BRDUPD = Y@SRD.BRDEXS;

   8430   1 000AA7  D846 000F                            LDR,R5   15,B6
          1 000AA9  5041                                 SOR,R5   1
          1 000AAA  DAC6 000F                            SRM,R5,'0010'X    15,B6
          1 000AAC       0010

      817     8431    2      Y@SRD.HI_NONBLN = Y@SRD.BTMRHT;

   8431   1 000AAD  8D46 0017                            SDI      23,B6

PL6.E3A0      #001=KVC$CNC File=KVC$CNC.:E05TSI                                  WED 07/30/97 01:54 Page:122
      818     8432    2      Y@SRD.FLDEND = '0'B;

   8432   1 000AAF  8746 0010                            CL       16,B6
          1 000AB1  8746 0011                            CL       17,B6

      819     8433    2      KV$PTR.SRD$ = KV@VDH_GETBFR.BFR$;

   8433   1 000AB3  EFC4 000A                            STB,B6   10,B4

      820     8434    2      Y@SRD.MRD$ = KV$PTR.MRD$;

   8434   1 000AB5  9CC4 0008                            LDB,B1   8,B4
          1 000AB7  9F86                                 STB,B1   ,B6

      821     8435    2      %KV_MVD.SRD$ = KV@VDH_GETBFR.BFR$;

   8435   1 000AB8  EC80 0000 0000  xsym                 LDB,B6   KV$PTR$
          1 000ABB  CCC6 0006                            LDB,B4   6,B6
          1 000ABD  9CC7 0007                            LDB,B1   KV@VDH_GETBFR+1,AUTO
          1 000ABF  9F84                                 STB,B1   ,B4

      822     8436    2      IF %KV_MRD.USRCNT=2

   8436   1 000AC0  EC80 0000 0000  xsym                 LDB,B6   KV$PTR$
          1 000AC3  CCC6 0008                            LDB,B4   8,B6
          1 000AC5  E844 000A                            LDR,R6   10,B4
          1 000AC7  E570 00FF                            AND,R6   255,IMO
          1 000AC9  6D02                                 CMV,R6   2
          1 000ACA  0981 0010                            BNE      s:8438,PREL

      823     8437    2      THEN Y@SRD.LNK$->Y@SRD.ADJTOPLFT = ~Y@SRD.ADJTOPLFT;

   8437   1 000ACC  9CC7 0007                            LDB,B1   KV@VDH_GETBFR+1,AUTO
          1 000ACE  ECC1 0002                            LDB,B6   2,B1
          1 000AD0  E841 000F                            LDR,R6   15,B1
          1 000AD2  600C                                 SOL,R6   12
          1 000AD3  E570 8000                            AND,R6   -32768,IMO
PL6.E3A0      #001=KVC$CNC File=KVC$CNC.:E05TSI                                  WED 07/30/97 01:54 Page:123
          1 000AD5  E670 8000                            XOR,R6   -32768,IMO
          1 000AD7  604C                                 SOR,R6   12
          1 000AD8  EAC6 000F                            SRM,R6,'0008'X    15,B6
          1 000ADA       0008

      824     8438    2   END /* SUBROUTINE */;

   8438   1 000ADB  ECC7 003E                            LDB,B6   TEMP+1,AUTO
          1 000ADD  C3C6 0001                            LNJ,B4   1,B6
      825     8439    1   END;
      826     8440        %EOD;

PL6.E3A0      #001=KVC$CNC File=KVC$CNC.:E05TSI                                  WED 07/30/97 01:54 Page:124
--  Include file information  --

   K_ID_E.:E05TOU  is referenced.
   LCP_6.:E05TOU  cannot be made into a system file and is referenced.
   KV_INT_M.:E05TOU  is referenced.
   KV$INPFNC.:E05TOU  is referenced.
   KV$BPC.:E05TOU  is referenced.
   KV_ERRORS_C.:E05TOU  is referenced.
   KL_MACRO_C.:E05TOU  is referenced.
   KL_AFCN_C.:E05TOU  is referenced.
   F_ERRORS_C.:E05TOU  is referenced.
   KV_PRMID_E.:E05TOU  was found in the system file and is referenced.
   KV_GLBCNS_E.:E05TOU  was found in the system file and is referenced.
   KV$VDO.:E05TOU  was found in the system file and is referenced.
   KV$VDH.:E05TOU  was found in the system file and is referenced.
   KV$USR.:E05TOU  was found in the system file and is referenced.
   KV$SND.:E05TOU  was found in the system file and is referenced.
   KV$INT.:E05TOU  was found in the system file and is referenced.
   KV$GLBCTX.:E05TOU  was found in the system file and is referenced.
   KV$GLB.:E05TOU  was found in the system file and is referenced.
   G_LCP6_E.:E05TOU  was found in the system file and is referenced.
   GT_LCP6_M.:E05TOU  was found in the system file and is referenced.
   KI_CP6.:E05TOU  was found in the system file and is referenced.
   GF_LCP6_M.:E05TOU  was found in the system file and is referenced.
   GM_LCP6_M.:E05TOU  was found in the system file and is referenced.
   GU_LCP6_M.:E05TOU  was found in the system file and is referenced.
   GJ_LCP6_M.:E05TOU  was found in the system file and is referenced.
   GH_LCP6_M.:E05TOU  was found in the system file and is referenced.
      No diagnostics issued in procedure KVC$CNC.
PL6.E3A0      #001=KVC$CNC File=KVC$CNC.:E05TSI                                  WED 07/30/97 01:54 Page:125

 **** Variables and constants ****

  ****  Section 000 RoData KVC$CNC

  ****  Scalars and arrays  ****
HexLoc.c.b A Datatyp(siz) R M Lvl/name                 HexLoc.c.b A Datatyp(siz) R M Lvl/name

     0-0-0/w STRC(288)   r     1 KV_RCRLST
    12-0-0/w PTR         r     1 PRMPTRS(0:3)

  ****  Auto variables  ****

  ****  Scalars and arrays  ****
HexLoc.c.b A Datatyp(siz) R M Lvl/name                 HexLoc.c.b A Datatyp(siz) R M Lvl/name

    40-0-0/w PTR         r     1 @ID                        4-0-0/w PTR         r     1 @PRM
    46-0-0/w PTR         r     1 @Y@SHRBFR                 *0-0-0/w UBIN(16)    r     1 ID
    19-0-0/w STRC(544)   r     1 KV@SND_CNC                42-0-0/w STRC(32)    r     1 KV@USR_EVT
     6-0-0/w STRC(176)   r     1 KV@VDH_GETBFR             11-0-0/w STRC(128)   r     1 KV@VDH_SETPRM
    3B-0-0/w PTR         r     1 ORGPTR$                   *0-0-0/w ACHR        r     1 PRM
    *0-0-0/w UBIN(16)    r     1 PRM_STRID                 *0-0-0/w STRC(400)   r     1 PRM_VDH_CNC
    *0-0-0/w STRC(48)    r     1 PRM_VDO_OPNSTR            *0-0-0/w STRC(256)   r     1 PRM_WINDOW
    3D-0-0/w SBIN(16)    r     1 STEMP                     3D-0-0/w UBIN(16)    r     1 TEMP
    *0-0-0/w STRC(64)    r     1 Y@SHRBFR

  ****  SYMREF variables  ****

  ****  Scalars and arrays  ****
HexLoc.c.b A Datatyp(siz) R M Lvl/name                 HexLoc.c.b A Datatyp(siz) R M Lvl/name

     0-0-0/w PTR         r     1 KV$PTR$                    0-0-0/w UBIN(16)    r     1 KV_ACTCHRTBLNRM
     0-0-0/w PTR         r     1 KV_B_POOL$                 0-0-0/w STRC(64)    r     1 KV_LIN
     0-0-0/w UBIN(16)    r     1 KV_SHRBFR_PRM1             0-0-0/w UBIN(16)    r     1 KV_SHRBFR_PRM2
     0-0-0/w UBIN(16)    r     1 KV_SHRBFR_PRM3             0-0-0/w STRC(544)   r     1 KV_SND_CNC
     0-0-0/w UBIN(16)    r     1 KV_SSNCNT                  0-0-0/w UBIN(16)    r     1 KV_SSNMAX
     0-0-0/w STRC(32)    r     1 KV_USR_EVT                 0-0-0/w STRC(176)   r     1 KV_VDH_GETBFR
     0-0-0/w STRC(128)   r     1 KV_VDH_SETPRM
PL6.E3A0      #001=KVC$CNC File=KVC$CNC.:E05TSI                                  WED 07/30/97 01:54 Page:126

  ****  BASED and DCB variables  ****

  ****  Scalars and arrays  ****
HexLoc.c.b A Datatyp(siz) R M Lvl/name                 HexLoc.c.b A Datatyp(siz) R M Lvl/name

     0-0-0/c CHAR(8)     r     1 CHR8                       0-0-0/w ASTR(1824)  r     1 KV$BPC
     0-0-0/w STRC(64)    r     1 KV$LIN                     0-0-0/w STRC(128)   r     1 KV$LINLST
     0-0-0/w STRC(512)   r     1 KV$MRD                     0-0-0/w STRC(512)   r     1 KV$MVD
     0-0-0/w STRC(480)   r     1 KV$PTR                     0-0-0/w STRC(288)   r     1 KV$RCRLST
     0-0-0/w STRC(64)    r     1 KV$SHRBFR                  0-0-0/w STRC(496)   r     1 KV$SRD
     0-0-0/w STRC(1024)  r     1 KV$SSN                     0-0-0/w STRC(512)   r     1 KV$STR
     0-0-0/w STRC(8960)  r     1 KV$STT                     0-0-0/w STRC(912)   r     1 KV$USRPRM
     0-0-0/w STRC(112)   r     1 KV$VDH_RLSBFR              0-0-0/w STRC(512)   r     1 KV$VDI
     0-0-0/w PTR         r     1 Y$PTR$                     0-0-0/w STRC(512)   r     1 Y@MVD
     0-0-0/w STRC(496)   r     1 Y@SRD                      0-0-0/w STRC(512)   r     1 Y@STR


   Procedure KVC$CNC requires 2783 words for executable code.
   Procedure KVC$CNC requires 74 words of local(AUTO) storage.
PL6.E3A0      #001=KVC$CNC File=KVC$CNC.:E05TSI                                  WED 07/30/97 01:54 Page:127
          *** CROSS REFERENCE LISTING ***
**     DENOTES     IDENTIFIER DEFINITION
<<                 IDENTIFIER'S VALUE SET
>>                 IDENTIFIER'S VALUE USED
<>                 IDENTIFIER SET AND/OR USED
--                 IDENTIFIER REFERENCED
PL6.E3A0      #001=KVC$CNC File=KVC$CNC.:E05TSI                                  WED 07/30/97 01:54 Page:128
          MINI XREF LISTING

BUMMER
      7465**LABEL    7319--CALLALT  7335--CALLALT  7344--CALLALT  7380--CALLALT  7389--CALLALT  7435--CALLALT
CALUSRGETSTR IN PROCEDURE Y$GETSTR
      7943**ENTRY    7253--CALL     7275--CALL     7330--CALL     7339--CALL     7352--CALL     7520--CALL
      7528--CALL
CANTGETCTX
      7467**LABEL    7230--GOTO     7247--CALLALT  7265--GOTO
CHR8
      6514**DCL      7729<<ASSIGN   7731<<ASSIGN   7732<<ASSIGN   7734<<ASSIGN
ERRXIT
      7469**LABEL    7244--GOTO
ID IN PROCEDURE Y$GETSTR
      7751**DCL      7749--PROC     7937>>ASSIGN   7941>>IF       7941>>ASSIGN
KV$BPC.BITMAPSIZ
      5061**DCL      5064--IMP-SIZ
KV$BPC.TOT
      5054**DCL      7230>>IF
KV$BPC.USE
      5054**DCL      7228>>ASSIGN   7230>>IF
KV$LIN
      5172**DCL      7683--ASSIGN   7698--ASSIGN   7705<<ASSIGN   7706--ASSIGN   7706--ASSIGN   7708--ASSIGN
KV$LIN.VRTLIN
      5172**DCL      7706<<ASSIGN
KV$LINLST
      5220**DCL      7683--ASSIGN   7696<<ASSIGN   7698--ASSIGN   7699--ASSIGN   7705--ASSIGN   7706--ASSIGN
      7706--ASSIGN
KV$LINLST.LSTCELWRDX
      5220**DCL      7697<<ASSIGN
KV$LINLST.LSTENTWRDX
      5220**DCL      7698<<ASSIGN   7700>>DOUNTIL
KV$MRD.BLANKERASES
      5256**DCL      7501>>IF
PL6.E3A0      #001=KVC$CNC File=KVC$CNC.:E05TSI                                  WED 07/30/97 01:54 Page:129
KV$MRD.CURSORUP
      5260**DCL      7501>>IF       7624>>IF       7640>>IF
KV$MRD.DCLATRWHNOTP
      5262**DCL      7618>>IF
KV$MRD.DSPHEIGHT
      5250**DCL      7686>>ASSIGN
KV$MRD.FSTERS
      5260**DCL      7501>>IF
KV$MRD.LNG
      5253**DCL      7542>>ASSIGN
KV$MRD.MAXATRPERLIN
      5254**DCL      7618>>IF
KV$MRD.MVD$
      5252**DCL      7348<<ASSIGN   8052>>ASSIGN   8053<<ASSIGN
KV$MRD.PHSFRM
      5262**DCL      7501>>IF       7627>>IF
KV$MRD.PRFINPFNCTBL$
      5249**DCL      7350<<ASSIGN
KV$MRD.SRD$
      5248**DCL      7347<<ASSIGN   8402>>ASSIGN   8403<<ASSIGN
KV$MRD.USRCNT
      5250**DCL      8404<<ASSIGN   8404>>ASSIGN   8436>>IF
KV$MRD.WDT
      5250**DCL      7560>>ASSIGN   7618>>IF       7618>>IF
KV$MVD
      6043**DCL      8047>>ASSIGN
KV$MVD.EDITOVR
      6051**DCL      7664<<ASSIGN
KV$MVD.INPTAB$
      6043**DCL      7635>>ASSIGN   7637<<ASSIGN
KV$MVD.LINLST$
      6046**DCL      7613>>IF       7693<<ASSIGN
KV$MVD.LNG
      6047**DCL      7676<<ASSIGN
KV$MVD.ORG
      6048**DCL      7603>>IF       7604>>IF       7721<<ASSIGN   7741>>IF
PL6.E3A0      #001=KVC$CNC File=KVC$CNC.:E05TSI                                  WED 07/30/97 01:54 Page:130
KV$MVD.RETYPOVR
      6051**DCL      7624<<ASSIGN   7625>>IF       7640>>IF       7653>>IF       7662>>IF       7740>>IF
KV$MVD.SRD$
      6043**DCL      7338<<ASSIGN   7510>>ASSIGN   8435<<ASSIGN
KV$MVD.SSTINPFNCTBL$
      6045**DCL      7324<<ASSIGN
KV$MVD.TRNTBL$
      6045**DCL      7328<<ASSIGN
KV$MVD.USRCNT
      6046**DCL      7514>>IF       7525<<ASSIGN   7525>>ASSIGN   7625>>IF       7648>>IF       7940<<ASSIGN
      7940>>ASSIGN   8048<<ASSIGN   8048>>ASSIGN
KV$MVD.VFU$
      6045**DCL      7666>>ASSIGN   7669<<ASSIGN
KV$MVD.WDT
      6047**DCL      7675<<ASSIGN   8428<<ASSIGN
KV$PTR.INPCNDPND
      5301**DCL      5310--REDEF    5314--REDEF
KV$PTR.LINLST$
      5297**DCL      5298--REDEF    7602>>ASSIGN   7694<<ASSIGN
KV$PTR.MRD$
      5296**DCL      7346<<ASSIGN   7360<<ASSIGN   7360>>ASSIGN   7501>>IF       7501>>IF       7501>>IF
      7501>>IF       7542>>ASSIGN   7560>>ASSIGN   7618>>IF       7618>>IF       7618>>IF       7618>>IF
      7624>>IF       7627>>IF       7640>>IF       7686>>ASSIGN   8052>>ASSIGN   8053>>ASSIGN   8402>>ASSIGN
      8403>>ASSIGN   8404>>ASSIGN   8404>>ASSIGN   8434>>ASSIGN   8436>>IF
KV$PTR.MVD$
      5296**DCL      7321<<ASSIGN   7338>>ASSIGN   7348>>ASSIGN   7362<<ASSIGN   7362>>ASSIGN   7514>>IF
      7516>>ASSIGN   7524<<ASSIGN   7525>>ASSIGN   7525>>ASSIGN   7603>>IF       7604>>IF       7613>>IF
      7624>>ASSIGN   7625>>IF       7625>>IF       7635>>ASSIGN   7637>>ASSIGN   7640>>IF       7648>>IF
      7653>>IF       7662>>IF       7664>>ASSIGN   7666>>ASSIGN   7669>>ASSIGN   7675>>ASSIGN   7676>>ASSIGN
      7693>>ASSIGN   7721>>ASSIGN   7740>>IF       7741>>IF       7938>>ASSIGN   7940>>ASSIGN   7940>>ASSIGN
      8047>>ASSIGN   8048>>ASSIGN   8048>>ASSIGN   8067<<ASSIGN   8428>>ASSIGN   8435>>ASSIGN
KV$PTR.SRD$
      5297**DCL      7337<<ASSIGN   7347>>ASSIGN   7351>>ASSIGN   7361<<ASSIGN   7361>>ASSIGN   7546>>ASSIGN
      7546>>ASSIGN   7547>>ASSIGN   7547>>ASSIGN   7550>>ASSIGN   7550>>ASSIGN   7563>>ASSIGN   7563>>ASSIGN
      7564>>ASSIGN   7564>>ASSIGN   7567>>ASSIGN   7567>>ASSIGN   7618>>IF       7618>>IF       7620>>ASSIGN
      7620>>ASSIGN   7621>>ASSIGN   7621>>ASSIGN   7622>>ASSIGN   7631>>ASSIGN   7654>>ASSIGN   7656>>IF
PL6.E3A0      #001=KVC$CNC File=KVC$CNC.:E05TSI                                  WED 07/30/97 01:54 Page:131
      7661>>ASSIGN   7663>>ASSIGN   7675>>ASSIGN   7683>>ASSIGN   7686>>ASSIGN   7698>>ASSIGN   8050>>ASSIGN
      8051>>ASSIGN   8051>>ASSIGN   8400>>ASSIGN   8406>>ASSIGN   8406>>ASSIGN   8433<<ASSIGN
KV$PTR.SSN$
      5295**DCL      7237>>IF       7272<<ASSIGN   7285>>ASSIGN   7294>>ASSIGN   7303>>ASSIGN   7306>>ASSIGN
      7307>>ASSIGN   7309>>IF       7359>>ASSIGN   7370>>ASSIGN   7374>>ASSIGN   7382>>ASSIGN   7383>>ASSIGN
      7384>>ASSIGN   7391>>ASSIGN   7393>>ASSIGN   7395<<ASSIGN   7395>>ASSIGN   7397<<ASSIGN   7427>>ASSIGN
      7446>>IF       7449>>IF       7480>>IF       7484>>ASSIGN   7504>>ASSIGN   7745>>IF       7746>>ASSIGN
      7930>>ASSIGN   7931>>ASSIGN   7934>>ASSIGN   7936>>ASSIGN
KV$PTR.STR$
      5295**DCL      7239>>IF       7240>>ASSIGN   7391>>ASSIGN   7392<<ASSIGN   7392>>ASSIGN   7393>>ASSIGN
      7394>>ASSIGN   7397>>ASSIGN   7449>>IF       7453<<ASSIGN   7469>>IF       7470>>ASSIGN   7523>>ASSIGN
      7586>>ASSIGN   7590>>ASSIGN   7593<<ASSIGN   7650>>ASSIGN   7673>>ASSIGN   7745>>IF       7922>>IF
      7923>>ASSIGN   7924>>ASSIGN   7925>>ASSIGN   7926>>ASSIGN   7927>>ASSIGN   7929>>ASSIGN   7939<<ASSIGN
      7965>>ASSIGN   7968>>ASSIGN   7973>>ASSIGN   7974>>ASSIGN   7975>>IF       7977>>ASSIGN   7982>>ASSIGN
      7984>>ASSIGN   7986>>ASSIGN   7987>>ASSIGN   8049>>ASSIGN
KV$PTR.VDI$
      5295**DCL      7238>>IF       7252<<ASSIGN   7252>>ASSIGN   7270>>ASSIGN   7271>>ASSIGN   7274>>ASSIGN
      7277>>IF       7281>>IF       7285>>ASSIGN   7291>>ASSIGN   7304>>ASSIGN   7323>>IF       7324>>ASSIGN
      7327>>IF       7328>>ASSIGN   7349>>IF       7350>>ASSIGN   7418>>ASSIGN   7443>>ASSIGN   7456>>ASSIGN
      7456>>ASSIGN   7457>>ASSIGN   7457>>ASSIGN   7517>>IF       7948>>IF
KV$PTR$
      5289**DCL      5295--IMP-PTR  7232>>ASSIGN   7237>>IF       7238>>IF       7239>>IF       7240>>ASSIGN
      7251<<ASSIGN   7252>>ASSIGN   7261>>ASSIGN   7262<<ASSIGN   7270>>ASSIGN   7271>>ASSIGN   7272>>ASSIGN
      7273>>ASSIGN   7274>>ASSIGN   7277>>IF       7281>>IF       7285>>ASSIGN   7285>>ASSIGN   7291>>ASSIGN
      7294>>ASSIGN   7303>>ASSIGN   7304>>ASSIGN   7306>>ASSIGN   7307>>ASSIGN   7309>>IF       7321>>ASSIGN
      7323>>IF       7324>>ASSIGN   7327>>IF       7328>>ASSIGN   7337>>ASSIGN   7338>>ASSIGN   7346>>ASSIGN
      7347>>ASSIGN   7348>>ASSIGN   7349>>IF       7350>>ASSIGN   7351>>ASSIGN   7359>>ASSIGN   7360>>ASSIGN
      7361>>ASSIGN   7362>>ASSIGN   7370>>ASSIGN   7374>>ASSIGN   7382>>ASSIGN   7383>>ASSIGN   7384>>ASSIGN
      7391>>ASSIGN   7392>>ASSIGN   7393>>ASSIGN   7393>>ASSIGN   7394>>ASSIGN   7395>>ASSIGN   7397>>ASSIGN
      7397>>ASSIGN   7418>>ASSIGN   7427>>ASSIGN   7437>>IF       7443>>ASSIGN   7446>>IF       7448<<ASSIGN
      7449>>IF       7449>>IF       7453>>ASSIGN   7456>>ASSIGN   7456>>ASSIGN   7457>>ASSIGN   7457>>ASSIGN
      7467<<ASSIGN   7469>>IF       7470>>ASSIGN   7480>>IF       7484>>ASSIGN   7501>>IF       7501>>IF
      7501>>IF       7501>>IF       7504>>ASSIGN   7514>>IF       7516>>ASSIGN   7517>>IF       7523>>ASSIGN
      7524>>ASSIGN   7525>>ASSIGN   7525>>ASSIGN   7542>>ASSIGN   7546>>ASSIGN   7546>>ASSIGN   7547>>ASSIGN
      7547>>ASSIGN   7550>>ASSIGN   7550>>ASSIGN   7560>>ASSIGN   7563>>ASSIGN   7563>>ASSIGN   7564>>ASSIGN
      7564>>ASSIGN   7567>>ASSIGN   7567>>ASSIGN   7586>>ASSIGN   7590>>ASSIGN   7593>>ASSIGN   7602>>ASSIGN
PL6.E3A0      #001=KVC$CNC File=KVC$CNC.:E05TSI                                  WED 07/30/97 01:54 Page:132
      7603>>IF       7604>>IF       7613>>IF       7618>>IF       7618>>IF       7618>>IF       7618>>IF
      7618>>IF       7618>>IF       7620>>ASSIGN   7620>>ASSIGN   7621>>ASSIGN   7621>>ASSIGN   7622>>ASSIGN
      7624>>IF       7624>>ASSIGN   7625>>IF       7625>>IF       7627>>IF       7631>>ASSIGN   7635>>ASSIGN
      7637>>ASSIGN   7640>>IF       7640>>IF       7648>>IF       7650>>ASSIGN   7653>>IF       7654>>ASSIGN
      7656>>IF       7661>>ASSIGN   7662>>IF       7663>>ASSIGN   7664>>ASSIGN   7666>>ASSIGN   7669>>ASSIGN
      7673>>ASSIGN   7675>>ASSIGN   7675>>ASSIGN   7676>>ASSIGN   7683>>ASSIGN   7686>>ASSIGN   7686>>ASSIGN
      7693>>ASSIGN   7694>>ASSIGN   7698>>ASSIGN   7721>>ASSIGN   7740>>IF       7741>>IF       7745>>IF
      7745>>IF       7746>>ASSIGN   7922>>IF       7923>>ASSIGN   7924>>ASSIGN   7925>>ASSIGN   7926>>ASSIGN
      7927>>ASSIGN   7929>>ASSIGN   7930>>ASSIGN   7931>>ASSIGN   7934>>ASSIGN   7936>>ASSIGN   7938>>ASSIGN
      7939>>ASSIGN   7940>>ASSIGN   7940>>ASSIGN   7948>>IF       7965>>ASSIGN   7968>>ASSIGN   7973>>ASSIGN
      7974>>ASSIGN   7975>>IF       7977>>ASSIGN   7982>>ASSIGN   7984>>ASSIGN   7986>>ASSIGN   7987>>ASSIGN
      8047>>ASSIGN   8048>>ASSIGN   8048>>ASSIGN   8049>>ASSIGN   8050>>ASSIGN   8051>>ASSIGN   8051>>ASSIGN
      8052>>ASSIGN   8053>>ASSIGN   8067>>ASSIGN   8400>>ASSIGN   8402>>ASSIGN   8403>>ASSIGN   8404>>ASSIGN
      8404>>ASSIGN   8406>>ASSIGN   8406>>ASSIGN   8428>>ASSIGN   8433>>ASSIGN   8434>>ASSIGN   8435>>ASSIGN
      8436>>IF
KV$RCRLST
      5339**DCL      7688--ASSIGN   7712<<ASSIGN
KV$RCRLST.KEYLNG
      5344**DCL      7604>>IF       7716<<ASSIGN
KV$RCRLST.MAXRCR
      5340**DCL      7604>>IF       7714<<ASSIGN
KV$RCRLST.RCR$
      5351**DCL      7688--ASSIGN
KV$RCRLST.SPRCNT
      5344**DCL      7604>>IF       7718<<ASSIGN   7719<<ASSIGN
KV$RCRLST.STRBYTSIZ
      5339**DCL      7713<<ASSIGN
KV$SHRBFR
      6495**DCL      7928<>CALL     8059<>CALL     8061<>CALL     8062<>CALL     8063<>CALL     8064<>CALL
      8065<>CALL
KV$SRD.BTMRHT
      6182**DCL      6187--REDEF
KV$SRD.CRT
      6258**DCL      6263--REDEF
KV$SRD.FLDEND
      6222**DCL      6227--REDEF
PL6.E3A0      #001=KVC$CNC File=KVC$CNC.:E05TSI                                  WED 07/30/97 01:54 Page:133
KV$SRD.HI_NONBLN
      6292**DCL      6297--REDEF
KV$SRD.LNG
      6190**DCL      7618>>IF       7621>>ASSIGN   7686>>ASSIGN
KV$SRD.MINLNG
      6338**DCL      7621<<ASSIGN   7631<<ASSIGN   7683>>ASSIGN   7698>>ASSIGN
KV$SRD.MINWDT
      6338**DCL      7620<<ASSIGN
KV$SRD.MRD$
      6086**DCL      7351<<ASSIGN
KV$SRD.NOOPTMIZ
      6336**DCL      7663<<ASSIGN
KV$SRD.NXTNONBLNLIN
      6230**DCL      7661<<ASSIGN
KV$SRD.OPT
      6335**DCL      7622<<ASSIGN
KV$SRD.ORG
      6114**DCL      6119--REDEF
KV$SRD.ORG.CLM
      6116**DCL      7563>>ASSIGN   7564>>ASSIGN   7567>>ASSIGN
KV$SRD.ORG.LIN
      6116**DCL      7544>>ASSIGN   7546>>ASSIGN   7547>>ASSIGN   7550>>ASSIGN
KV$SRD.SCROLL
      6191**DCL      7656>>IF
KV$SRD.SRDEND
      6327**DCL      6332--REDEF
KV$SRD.SRDEND.CLM
      6329**DCL      7563>>ASSIGN   7564>>ASSIGN   7567>>ASSIGN
KV$SRD.SRDEND.LIN
      6329**DCL      7544>>ASSIGN   7546>>ASSIGN   7547>>ASSIGN   7550>>ASSIGN
KV$SRD.TOPLFT
      6148**DCL      6153--REDEF
KV$SRD.TRUNCATE
      6192**DCL      7654<<ASSIGN
KV$SRD.USRCNT
      6087**DCL      8051<<ASSIGN   8051>>ASSIGN   8406<<ASSIGN   8406>>ASSIGN
PL6.E3A0      #001=KVC$CNC File=KVC$CNC.:E05TSI                                  WED 07/30/97 01:54 Page:134
KV$SRD.WDT
      6190**DCL      7562>>ASSIGN   7618>>IF       7620>>ASSIGN   7675>>ASSIGN
KV$SSN.LGN
      5498**DCL      7427<<ASSIGN
KV$SSN.LNK$
      5484**DCL      7270<<ASSIGN   7309>>IF       7359>>ASSIGN   7372>>ASSIGN
KV$SSN.LSTEDTBFRSTRID
      5495**DCL      7745>>IF       7746<<ASSIGN
KV$SSN.REDRSPCNT
      5490**DCL      5491--REDEF
KV$SSN.SNCPTR$
      5485**DCL      7273<<ASSIGN
KV$SSN.SSNCNCID
      5493**DCL      7307<<ASSIGN
KV$SSN.SSNCNCINT
      5501**DCL      7303<<ASSIGN   7306<<ASSIGN   7446>>IF       7484<<ASSIGN
KV$SSN.SSNID
      5534**DCL      7368>>IF       7374<<ASSIGN
KV$SSN.STR$
      5484**DCL      7391<<ASSIGN   7504>>ASSIGN   7930>>ASSIGN   7931>>ASSIGN   7934<<ASSIGN
KV$SSN.TRCBFR$
      5487**DCL      7285<<ASSIGN   7294<<ASSIGN
KV$SSN.TYPAHDBFRCNT
      5495**DCL      7384<<ASSIGN
KV$SSN.TYPAHDBFRHED$
      5486**DCL      7382<<ASSIGN
KV$SSN.TYPAHDBFRINS$
      5487**DCL      7383<<ASSIGN
KV$SSN.VDI$
      5484**DCL      7274<<ASSIGN
KV$STR.ACTCHRTBL$
      5563**DCL      7673<<ASSIGN   7982>>ASSIGN   7984<<ASSIGN
KV$STR.ACTONTRN
      5621**DCL      7923>>ASSIGN
KV$STR.AUTTABCLM
      5623**DCL      7924>>ASSIGN
PL6.E3A0      #001=KVC$CNC File=KVC$CNC.:E05TSI                                  WED 07/30/97 01:54 Page:135
KV$STR.EDTBFR__
      5585**DCL      7977<<ASSIGN
KV$STR.EDTBFR__.ADR$
      5587**DCL      7973>>ASSIGN
KV$STR.EDTBFR__.BFRBYTSIZ
      5588**DCL      7974>>ASSIGN
KV$STR.EDTBFR__.BFRRLSDSP
      5589**DCL      7975>>IF
KV$STR.ERR.COD
      5615**DCL      7240<<ASSIGN   7470<<ASSIGN   7590<<ASSIGN   7650<<ASSIGN
KV$STR.ID
      5621**DCL      7394<<ASSIGN   7506>>IF       7745>>IF
KV$STR.LFTMRGCLM
      5619**DCL      7929>>ASSIGN
KV$STR.LNK$
      5561**DCL      7507>>ASSIGN   7930>>ASSIGN   7931<<ASSIGN
KV$STR.MVD$
      5561**DCL      7510>>ASSIGN   7523<<ASSIGN   8049<<ASSIGN
KV$STR.OTPTAB$
      5562**DCL      7927>>ASSIGN   7986>>ASSIGN   7987<<ASSIGN
KV$STR.PRM$
      5562**DCL      7965>>ASSIGN   7968<<ASSIGN
KV$STR.SSN$
      5561**DCL      7393<<ASSIGN   7397>>ASSIGN   7449>>IF
KV$STR.WRDWRP
      5624**DCL      7926>>ASSIGN
KV$STR.WRDWRPCLM
      5623**DCL      7925>>ASSIGN
KV$STT.CNCEVTCNT
      6010**DCL      7457<<ASSIGN   7457>>ASSIGN
KV$STT.REQSTATS.DSPMSK
      5900**DCL      5906--REDEF
KV$STT.REQSTATS.SLCMSK
      5941**DCL      5948--REDEF
KV$USRPRM.INPFNCTBLHEDPTR$
      6474**DCL      7323>>IF       7324>>ASSIGN
PL6.E3A0      #001=KVC$CNC File=KVC$CNC.:E05TSI                                  WED 07/30/97 01:54 Page:136
KV$USRPRM.PRFFNCTBL$
      6476**DCL      7349>>IF       7350>>ASSIGN
KV$USRPRM.STREVTENB
      6472**DCL      7948>>IF
KV$USRPRM.STT$
      6475**DCL      7457>>ASSIGN   7457>>ASSIGN
KV$USRPRM.TRNTBLHEDPTR$
      6474**DCL      7327>>IF       7328>>ASSIGN
KV$VDH_RLSBFR
      7062**DCL      7638<>CALL     7668<>CALL     7967<>CALL     7976<>CALL     7983<>CALL     7988<>CALL
KV$VDH_RLSBFR.BFR$
      7068**DCL      7635<<ASSIGN   7666<<ASSIGN   7965<<ASSIGN   7973<<ASSIGN   7982<<ASSIGN   7986<<ASSIGN
KV$VDH_RLSBFR.BYTSIZ
      7068**DCL      7974<<ASSIGN
KV$VDH_RLSBFR.STRTYP
      7068**DCL      7636<<ASSIGN   7667<<ASSIGN   7966<<ASSIGN   7972<<ASSIGN   7981<<ASSIGN   7985<<ASSIGN
KV$VDI.LINSPD
      5453**DCL      7304<<ASSIGN   7418>>ASSIGN
KV$VDI.OTPCNDPND.PST
      5448**DCL      7517>>IF
KV$VDI.SHRTRCBFR
      5453**DCL      7281>>IF
KV$VDI.SSN$
      5411**DCL      7270>>ASSIGN   7271<<ASSIGN
KV$VDI.SSNCNT
      5440**DCL      7238>>IF       7456<<ASSIGN   7456>>ASSIGN
KV$VDI.TRCBFR$
      5441**DCL      7277>>IF       7285>>ASSIGN
KV$VDI.TRCBFRBYTSIZ
      5441**DCL      7291>>ASSIGN
KV$VDI.USRPRM$
      5412**DCL      7323>>IF       7324>>ASSIGN   7327>>IF       7328>>ASSIGN   7349>>IF       7350>>ASSIGN
      7457>>ASSIGN   7457>>ASSIGN   7948>>IF
KV$VDI.VDHEVTENB
      5459**DCL      7443<<ASSIGN
KV@SND_CNC
PL6.E3A0      #001=KVC$CNC File=KVC$CNC.:E05TSI                                  WED 07/30/97 01:54 Page:137
      7148**DCL      7413<<ASSIGN   7435<>CALL     7481<<ASSIGN   7485<>CALL     7729--ASSIGN   7731--ASSIGN
      7732--ASSIGN   7734--ASSIGN   7736--ASSIGN
KV@SND_CNC.DSTNTWADR
      7219**DCL      7432<<ASSIGN   7482<<ASSIGN
KV@SND_CNC.DSTNTWRSR
      7219**DCL      7426<<ASSIGN   7433<<ASSIGN
KV@SND_CNC.ERR
      7188**DCL      7483<<ASSIGN
KV@SND_CNC.LGN_
      7188**DCL      7414<<ASSIGN
KV@SND_CNC.LINSPD
      7189**DCL      7418<<ASSIGN
KV@SND_CNC.SCNENDPNTID
      7206**DCL      7415<<ASSIGN
KV@SND_CNC.SCNENDPNTID.TERM
      7208**DCL      7217--REDEF
KV@SND_CNC.VDOVLP
      7182**DCL      7185--REDEF
KV@USR_EVT IN PROCEDURE Y$GETSTR
      7788**DCL      7951<<ASSIGN   7954<>CALL
KV@USR_EVT.ID IN PROCEDURE Y$GETSTR
      7794**DCL      7952<<ASSIGN
KV@USR_EVT.PRM IN PROCEDURE Y$GETSTR
      7794**DCL      7953<<ASSIGN
KV@VDH_GETBFR
      6997**DCL      7233<<ASSIGN   7247<>CALL     7259<>CALL     7264<>CALL     7292<>CALL     7319<>CALL
      7335<>CALL     7344<>CALL     7380<>CALL     7518<<ASSIGN   7587<<ASSIGN   7612<<ASSIGN   7635--ASSIGN
      7636--ASSIGN   7638--CALL     7666--ASSIGN   7667--ASSIGN   7668--CALL     7692<>CALL     7920<>CALL
      7965--ASSIGN   7966--ASSIGN   7967--CALL     7972--ASSIGN   7973--ASSIGN   7974--ASSIGN   7976--CALL
      7981--ASSIGN   7982--ASSIGN   7983--CALL     7985--ASSIGN   7986--ASSIGN   7988--CALL     8039<>CALL
      8391<>CALL
KV@VDH_GETBFR.BFR$
      7003**DCL      5220--IMP-PTR  5339--IMP-PTR  7251>>ASSIGN   7261<<ASSIGN   7263>>IF       7270>>ASSIGN
      7271>>ASSIGN   7272>>ASSIGN   7273>>ASSIGN   7274>>ASSIGN   7294>>ASSIGN   7321>>ASSIGN   7324>>ASSIGN
      7328>>ASSIGN   7337>>ASSIGN   7338>>ASSIGN   7346>>ASSIGN   7347>>ASSIGN   7348>>ASSIGN   7350>>ASSIGN
      7351>>ASSIGN   7359<<ASSIGN   7367>>DOWHILE  7368>>IF       7370<<ASSIGN   7372<<ASSIGN   7372>>ASSIGN
PL6.E3A0      #001=KVC$CNC File=KVC$CNC.:E05TSI                                  WED 07/30/97 01:54 Page:138
      7382>>ASSIGN   7383>>ASSIGN   7602<<ASSIGN   7604>>IF       7604>>IF       7604>>IF       7693>>ASSIGN
      7694>>ASSIGN   7696>>ASSIGN   7697>>ASSIGN   7698>>ASSIGN   7700>>DOUNTIL  7705>>ASSIGN   7706>>ASSIGN
      7712>>ASSIGN   7713>>ASSIGN   7714>>ASSIGN   7716>>ASSIGN   7718>>ASSIGN   7719>>ASSIGN   7852--IMP-PTR
      7923>>ASSIGN   7924>>ASSIGN   7925>>ASSIGN   7926>>ASSIGN   7927>>ASSIGN   7928>>CALL     7929>>ASSIGN
      7930>>ASSIGN   7931>>ASSIGN   7934>>ASSIGN   7936>>ASSIGN   7937>>ASSIGN   7938>>ASSIGN   7939>>ASSIGN
      7941>>ASSIGN   8015--IMP-PTR  8047>>ASSIGN   8049>>ASSIGN   8050>>ASSIGN   8052>>ASSIGN   8053>>ASSIGN
      8054>>ASSIGN   8055>>ASSIGN   8056>>ASSIGN   8057>>ASSIGN   8058>>ASSIGN   8059>>CALL     8060>>ASSIGN
      8061>>CALL     8062>>CALL     8063>>CALL     8064>>CALL     8065>>CALL     8067>>ASSIGN   8135--IMP-PTR
      8401>>ASSIGN   8402>>ASSIGN   8403>>ASSIGN   8405>>ASSIGN   8407>>ASSIGN   8408>>ASSIGN   8411>>ASSIGN
      8411>>ASSIGN   8413>>ASSIGN   8413>>ASSIGN   8415>>ASSIGN   8415>>ASSIGN   8416>>ASSIGN   8418>>ASSIGN
      8418>>ASSIGN   8419>>ASSIGN   8421>>ASSIGN   8421>>ASSIGN   8421>>ASSIGN   8422>>ASSIGN   8422>>ASSIGN
      8422>>ASSIGN   8423>>ASSIGN   8423>>ASSIGN   8423>>ASSIGN   8424>>ASSIGN   8424>>ASSIGN   8425>>ASSIGN
      8426>>ASSIGN   8427>>ASSIGN   8427>>ASSIGN   8428>>ASSIGN   8429>>ASSIGN   8429>>ASSIGN   8430>>ASSIGN
      8430>>ASSIGN   8431>>ASSIGN   8431>>ASSIGN   8432>>ASSIGN   8433>>ASSIGN   8434>>ASSIGN   8435>>ASSIGN
      8437>>ASSIGN   8437>>ASSIGN
KV@VDH_GETBFR.BYTSIZ
      7003**DCL      7291<<ASSIGN   7683<<ASSIGN   7688<<ASSIGN   7697>>ASSIGN   7713>>ASSIGN
KV@VDH_GETBFR.SCRNO_MMR
      7007**DCL      7234<<ASSIGN
KV@VDH_GETBFR.STRTYP
      7003**DCL      7246<<ASSIGN   7258<<ASSIGN   7260<<ASSIGN   7290<<ASSIGN   7318<<ASSIGN   7334<<ASSIGN
      7343<<ASSIGN   7379<<ASSIGN   7682<<ASSIGN   7685<<ASSIGN   7690<<ASSIGN   7695>>IF       7711>>IF
      7727>>DOSELCT  7919<<ASSIGN   7948>>IF       7953>>ASSIGN   8038<<ASSIGN   8390<<ASSIGN
KV@VDH_SETPRM
      7099**DCL      7405<<ASSIGN   7408<>CALL     7609<<ASSIGN   7658<>CALL     7739<>CALL
KV@VDH_SETPRM.PRMID
      7105**DCL      7406<<ASSIGN   7657<<ASSIGN   7738<<ASSIGN
KV@VDH_SETPRM.SCP
      7132**DCL      7610<<ASSIGN
KV@VDH_SETPRM.VAL_
      7127**DCL      7407<<ASSIGN
KV@VDH_SETPRM.VAL_.ADR$
      7129**DCL      7736<<ASSIGN
KV@VDH_SETPRM.VAL_.BYTSIZ
      7129**DCL      7737<<ASSIGN
KVC$ADJWND
PL6.E3A0      #001=KVC$CNC File=KVC$CNC.:E05TSI                                  WED 07/30/97 01:54 Page:139
      6518**DCL-ENT  7575--CALL     7578--CALL
KVC$DRWBRD
      6519**DCL-ENT  7741--CALL
KVC$RLSFRM
      6520**DCL-ENT  7613--CALL
KVC$RLSMVD
      6522**DCL-ENT  7522--CALL
KVC$RLSSSNNO_CNC
      6521**DCL-ENT  7465--CALL
KVC$RLSSTR
      6523**DCL-ENT  7396--CALL
KVI$NEWINPFNCTBL
      6524**DCL-ENT  7353--CALL
KVM$SND
      6531**DCL-ENT  7435--CALL     7485--CALL
KVO$ERSSRD
      6525**DCL-ENT  7743--CALL
KVP$SETPRM
      6526**DCL-ENT  7408--CALL     7658--CALL     7739--CALL
KVS$GETBFR
      6527**DCL-ENT  7247--CALL     7259--CALL     7292--CALL     7319--CALL     7335--CALL     7344--CALL
      7380--CALL     7692--CALL     7920--CALL     8039--CALL     8391--CALL
KVS$RLSBFR
      6528**DCL-ENT  7264--CALL     7638--CALL     7668--CALL     7967--CALL     7976--CALL     7983--CALL
      7988--CALL
KVV$CALUSR_EVT
      6529**DCL-ENT  7954--CALL
KVV$CALUSR_PST
      6530**DCL-ENT  7517--CALL
KV_ACTCHRTBLNRM
      6510**DCL      7673--ASSIGN
KV_B_POOL$
      6533**DCL      5050--IMP-PTR  7228>>ASSIGN   7230>>IF       7230>>IF
KV_LIN
      5196**DCL      7705>>ASSIGN
KV_RCRLST
PL6.E3A0      #001=KVC$CNC File=KVC$CNC.:E05TSI                                  WED 07/30/97 01:54 Page:140
      5376**DCL      7712>>ASSIGN
KV_SHRBFR_PRM1 IN PROCEDURE Y$GETSTR
      7752**DCL      7756--DCLINIT
KV_SHRBFR_PRM2 IN PROCEDURE Y$GETSTR
      7753**DCL      7756--DCLINIT
KV_SHRBFR_PRM3 IN PROCEDURE Y$GETSTR
      7754**DCL      7756--DCLINIT
KV_SND_CNC
      6711**DCL      7413>>ASSIGN   7481>>ASSIGN
KV_SND_CNC.SCNENDPNTID.TERM
      6771**DCL      6780--REDEF
KV_SND_CNC.VDOVLP
      6745**DCL      6748--REDEF
KV_SSNCNT
      6515**DCL      7229>>IF       7229>>ASSIGN   7455<<ASSIGN   7455>>ASSIGN
KV_SSNMAX
      6516**DCL      7238>>IF
KV_USR_EVT IN PROCEDURE Y$GETSTR
      7823**DCL      7951>>ASSIGN
KV_VDH_GETBFR
      6561**DCL      7233>>ASSIGN   7518>>ASSIGN   7587>>ASSIGN   7612>>ASSIGN
KV_VDH_SETPRM
      6662**DCL      7405>>ASSIGN   7609>>ASSIGN
NOTCOM_ERR
      7649**LABEL    7619--GOTO     7640--GOTO
NO_CTX
      7589**LABEL    7519--CALLALT  7526--GOTO     7626--CALLALT  7692--CALLALT
ORGPTR$
      7222**DCL      7232<<ASSIGN   7252>>ASSIGN   7262>>ASSIGN   7263>>IF       7360>>ASSIGN   7361>>ASSIGN
      7362>>ASSIGN   7391>>ASSIGN   7392>>ASSIGN   7395>>ASSIGN   7437>>IF       7448>>ASSIGN   7467>>ASSIGN
      7504<<ASSIGN   7505>>DOWHILE  7506>>IF       7507<<ASSIGN   7507>>ASSIGN   7509>>IF       7509>>ASSIGN
      7510>>ASSIGN   7516<<ASSIGN   7523>>ASSIGN   7524>>ASSIGN   7586<<ASSIGN   7593>>ASSIGN
PRM
      6788**DCL         8--PROC     6816--REDEF    6881--REDEF    6900--REDEF    6960--REDEF    7490--ENTRY
      7535--ENTRY    7575<>CALL     7578<>CALL     7584--ENTRY    7596--ENTRY
PRMPTRS IN PROCEDURE Y$GETSTR
PL6.E3A0      #001=KVC$CNC File=KVC$CNC.:E05TSI                                  WED 07/30/97 01:54 Page:141
      7755**DCL      7941>>ASSIGN
PRM_STRID
      6881**DCL      6788--IMP-SIZ  7575>>CALL     7578>>CALL
PRM_VDH_CNC
      6816**DCL      7588<>CALL
PRM_VDH_CNC.DSTNTWADR
      6879**DCL      7419>>IF       7432>>ASSIGN   7480>>IF       7482>>ASSIGN
PRM_VDH_CNC.DSTNTWADR.LDCTX
      6879**DCL      7307>>ASSIGN
PRM_VDH_CNC.DSTNTWRSR
      6879**DCL      7419>>IF       7433>>ASSIGN
PRM_VDH_CNC.LCLENDPNTID
      6866**DCL      7415>>ASSIGN
PRM_VDH_CNC.LCLENDPNTID.TERM
      6868**DCL      6877--REDEF
PRM_VDH_CNC.LGN_
      6848**DCL      7414>>ASSIGN
PRM_VDH_CNC.LINSPD
      6849**DCL      7304>>ASSIGN
PRM_VDH_CNC.NEWSSN
      6848**DCL      7306>>IF       7388>>IF
PRM_VDH_CNC.PRF_
      6843**DCL      7407>>ASSIGN
PRM_VDH_CNC.PRF_.ADR$
      6845**DCL      7401>>IF
PRM_VDH_CNC.SSNCNCINT
      6848**DCL      7298>>IF
PRM_VDO_OPNSTR.KEYL
      6968**DCL      7604>>IF       7604>>IF       7715>>IF       7716>>ASSIGN
PRM_VDO_OPNSTR.NRECS
      6967**DCL      7604>>IF       7604>>IF       7686>>ASSIGN
PRM_VDO_OPNSTR.ORG
      6967**DCL      7603>>IF       7617>>IF       7647>>IF       7680>>DOCASE   7721>>ASSIGN   7745>>IF
PRM_VDO_OPNSTR.SPARE
      6968**DCL      7604>>IF       7604>>IF       7717>>IF       7718>>ASSIGN   7732>>IF
PRM_WINDOW.FSTR.ID
PL6.E3A0      #001=KVC$CNC File=KVC$CNC.:E05TSI                                  WED 07/30/97 01:54 Page:142
      6900**DCL      7506>>IF
PRM_WINDOW.FWINDOW
      6900**DCL      6900--REDEF    6901--REDEF
PRM_WINDOW.FWINDOW$
      6901**DCL      7509<<ASSIGN   7510<<ASSIGN   7543>>IF       7544>>ASSIGN   7544>>ASSIGN   7561>>IF
      7562>>ASSIGN   8399>>IF       8400<<ASSIGN   8401>>ASSIGN
PRM_WINDOW.LENGTH
      6914**DCL      7541>>IF       7547<<ASSIGN   7547>>ASSIGN   7549>>IF       7550<<ASSIGN   7550>>ASSIGN
      7553<<ASSIGN   7574>>IF       7576<<ASSIGN
PRM_WINDOW.POSITION
      6914**DCL      7514>>IF       7531<<ASSIGN   7539>>IF       7539>>IF       7542>>IF       7557>>IF
      7557>>IF       7560>>IF       7574>>IF       7578>>IF       8409>>DOCASE
PRM_WINDOW.WIDTH
      6914**DCL      7559>>IF       7564<<ASSIGN   7564>>ASSIGN   7566>>IF       7567<<ASSIGN   7567>>ASSIGN
      7570<<ASSIGN   7578>>IF
STEMP
      7224**DCL      7699<<ASSIGN   7700>>DOUNTIL  7705>>ASSIGN   7706>>ASSIGN   7708<<ASSIGN   7708>>ASSIGN
TEMP
      7223**DCL      7224--REDEF    7228<<ASSIGN   7229<<ASSIGN   7229>>ASSIGN   7230>>IF       7366<<ASSIGN
      7368>>IF       7369<<ASSIGN   7369>>ASSIGN   7374>>ASSIGN   7542<<ASSIGN   7544<<ASSIGN   7546<<ASSIGN
      7547>>ASSIGN   7560<<ASSIGN   7562<<ASSIGN   7563<<ASSIGN   7564>>ASSIGN   7686<<ASSIGN   7688>>ASSIGN
      7706>>ASSIGN   7714>>ASSIGN   7718>>ASSIGN   7719>>ASSIGN
Y$GETMVD
      7992**PROC     7519--CALL     7626--CALL
Y$GETSRD
      8110**PROC     7521--CALL
Y$GETSTR
      7749**PROC     7389--CALL     7588--CALL
Y$INCSHRBFR
      8071**PROC     7928--CALL     8059--CALL     8061--CALL     8062--CALL     8063--CALL     8064--CALL
      8065--CALL
Y$PTR$
      6512**DCL      7324>>ASSIGN   7328>>ASSIGN
Y$STRSTR
      7961**PROC     7672--CALL
Y@MVD IN PROCEDURE Y$GETMVD
PL6.E3A0      #001=KVC$CNC File=KVC$CNC.:E05TSI                                  WED 07/30/97 01:54 Page:143
      8015**DCL      8047<<ASSIGN
Y@MVD.DCBHDN$ IN PROCEDURE Y$GETMVD
      8016**DCL      8065>>CALL
Y@MVD.FRMSCNINH IN PROCEDURE Y$GETMVD
      8024**DCL      8058<<ASSIGN
Y@MVD.INPFNCCPY IN PROCEDURE Y$GETMVD
      8035**DCL      8060<<ASSIGN
Y@MVD.INPTAB$ IN PROCEDURE Y$GETMVD
      8015**DCL      8059>>CALL
Y@MVD.LINLST$ IN PROCEDURE Y$GETMVD
      8018**DCL      8056<<ASSIGN
Y@MVD.LNK$ IN PROCEDURE Y$GETMVD
      8015**DCL      8052<<ASSIGN
Y@MVD.ORG IN PROCEDURE Y$GETMVD
      8020**DCL      8054<<ASSIGN
Y@MVD.PAGBRKPND IN PROCEDURE Y$GETMVD
      8025**DCL      8057<<ASSIGN
Y@MVD.SRD$ IN PROCEDURE Y$GETMVD
      8015**DCL      8050<<ASSIGN
Y@MVD.SSTINPFNCTBL$ IN PROCEDURE Y$GETMVD
      8017**DCL      8062>>CALL
Y@MVD.TRNTBL$ IN PROCEDURE Y$GETMVD
      8017**DCL      8064>>CALL
Y@MVD.USRCNT IN PROCEDURE Y$GETMVD
      8018**DCL      8055<<ASSIGN
Y@MVD.USRINPFNCTBL$ IN PROCEDURE Y$GETMVD
      8016**DCL      8061>>CALL
Y@MVD.VFU$ IN PROCEDURE Y$GETMVD
      8017**DCL      8063>>CALL
Y@SHRBFR IN PROCEDURE Y$INCSHRBFR
      8089**DCL      8071--PROC     8105--IF
Y@SHRBFR.USRCNT IN PROCEDURE Y$INCSHRBFR
      8102**DCL      8106>>IF       8107<<ASSIGN   8107>>ASSIGN
Y@SRD IN PROCEDURE Y$GETSRD
      8135**DCL      8401<<ASSIGN   8401>>ASSIGN
Y@SRD.ADJTOPLFT IN PROCEDURE Y$GETSRD
PL6.E3A0      #001=KVC$CNC File=KVC$CNC.:E05TSI                                  WED 07/30/97 01:54 Page:144
      8243**DCL      8408<<ASSIGN   8416<<ASSIGN   8419<<ASSIGN   8437<<ASSIGN   8437>>ASSIGN
Y@SRD.BRDEXS IN PROCEDURE Y$GETSRD
      8242**DCL      8430>>ASSIGN
Y@SRD.BRDUPD IN PROCEDURE Y$GETSRD
      8243**DCL      8430<<ASSIGN
Y@SRD.BTMRHT IN PROCEDURE Y$GETSRD
      8231**DCL      8236--REDEF    8429<<ASSIGN   8431>>ASSIGN
Y@SRD.CRT IN PROCEDURE Y$GETSRD
      8307**DCL      8312--REDEF
Y@SRD.CRT.LIN IN PROCEDURE Y$GETSRD
      8309**DCL      8423<<ASSIGN   8424>>ASSIGN
Y@SRD.CRTVRTLINPHSLIN IN PROCEDURE Y$GETSRD
      8279**DCL      8424<<ASSIGN
Y@SRD.DVCLINBIS IN PROCEDURE Y$GETSRD
      8349**DCL      8423>>ASSIGN   8426<<ASSIGN
Y@SRD.ENTSRDCHR$ IN PROCEDURE Y$GETSRD
      8135**DCL      8425<<ASSIGN
Y@SRD.FLDEND IN PROCEDURE Y$GETSRD
      8271**DCL      8276--REDEF    8432<<ASSIGN
Y@SRD.HI_NONBLN IN PROCEDURE Y$GETSRD
      8341**DCL      8346--REDEF    8431<<ASSIGN
Y@SRD.LNG IN PROCEDURE Y$GETSRD
      8239**DCL      8421<<ASSIGN
Y@SRD.LNK$ IN PROCEDURE Y$GETSRD
      8135**DCL      8402<<ASSIGN   8437>>ASSIGN
Y@SRD.MRD$ IN PROCEDURE Y$GETSRD
      8135**DCL      8434<<ASSIGN
Y@SRD.ORG IN PROCEDURE Y$GETSRD
      8163**DCL      8168--REDEF
Y@SRD.ORG.CLM IN PROCEDURE Y$GETSRD
      8165**DCL      8413>>ASSIGN   8415<<ASSIGN   8422>>ASSIGN
Y@SRD.ORG.LIN IN PROCEDURE Y$GETSRD
      8165**DCL      8411>>ASSIGN   8418<<ASSIGN   8421>>ASSIGN
Y@SRD.ORG_PST IN PROCEDURE Y$GETSRD
      8168**DCL      8427>>ASSIGN
Y@SRD.SRDEND IN PROCEDURE Y$GETSRD
PL6.E3A0      #001=KVC$CNC File=KVC$CNC.:E05TSI                                  WED 07/30/97 01:54 Page:145
      8376**DCL      8381--REDEF    8429>>ASSIGN
Y@SRD.SRDEND.CLM IN PROCEDURE Y$GETSRD
      8378**DCL      8413<<ASSIGN   8415>>ASSIGN   8422>>ASSIGN
Y@SRD.SRDEND.LIN IN PROCEDURE Y$GETSRD
      8378**DCL      8411<<ASSIGN   8418>>ASSIGN   8421>>ASSIGN
Y@SRD.TOPLFT IN PROCEDURE Y$GETSRD
      8197**DCL      8202--REDEF
Y@SRD.TOPLFT.LIN IN PROCEDURE Y$GETSRD
      8199**DCL      8423>>ASSIGN
Y@SRD.TOPLFT_PST IN PROCEDURE Y$GETSRD
      8202**DCL      8427<<ASSIGN
Y@SRD.USRCNT IN PROCEDURE Y$GETSRD
      8136**DCL      8405<<ASSIGN
Y@SRD.VRTPSTOK IN PROCEDURE Y$GETSRD
      8240**DCL      8407<<ASSIGN
Y@SRD.WDT IN PROCEDURE Y$GETSRD
      8239**DCL      8422<<ASSIGN   8428>>ASSIGN
Y@STR.ACTONTRN IN PROCEDURE Y$GETSTR
      7912**DCL      7923<<ASSIGN
Y@STR.AUTTABCLM IN PROCEDURE Y$GETSTR
      7914**DCL      7924<<ASSIGN
Y@STR.ID IN PROCEDURE Y$GETSTR
      7912**DCL      7937<<ASSIGN
Y@STR.LFTMRGCLM IN PROCEDURE Y$GETSTR
      7910**DCL      7929<<ASSIGN
Y@STR.LNK$ IN PROCEDURE Y$GETSTR
      7852**DCL      7930<<ASSIGN
Y@STR.MVD$ IN PROCEDURE Y$GETSTR
      7852**DCL      7938<<ASSIGN
Y@STR.OTPTAB$ IN PROCEDURE Y$GETSTR
      7853**DCL      7927<<ASSIGN   7928>>CALL
Y@STR.PRM$ IN PROCEDURE Y$GETSTR
      7853**DCL      7941<<ASSIGN
Y@STR.SSN$ IN PROCEDURE Y$GETSTR
      7852**DCL      7936<<ASSIGN
Y@STR.WRDWRP IN PROCEDURE Y$GETSTR
PL6.E3A0      #001=KVC$CNC File=KVC$CNC.:E05TSI                                  WED 07/30/97 01:54 Page:146
      7915**DCL      7926<<ASSIGN
Y@STR.WRDWRPCLM IN PROCEDURE Y$GETSTR
      7914**DCL      7925<<ASSIGN

