PL6.E3A0      #005=KVF$UPDFRM_HRDCPY File=KVF$TBLSCN.:E05TSI                     WED 07/30/97 02:01 Page:164
     1013        1        /*T***********************************************************/
     1014        2        /*T*                                                         */
     1015        3        /*T* Copyright (c) Bull HN Information Systems Inc., 1997    */
     1016        4        /*T*                                                         */
     1017        5        /*T***********************************************************/
     1018        6        /*X*     NSO,PLM=3,SQB=Y,AND=Y,ENI=0,SDI=3,MCL=10,CSI=0,ECI=0,IND=0,IAD=3 */
     1019        7        KVF$UPDFRM_HRDCPY: PROC (PRM_LIN);
     1020        8
     1021        9        /* The purpose of this routine is to do all the necessary positioing,
     1022       10           and display all the necessary fields,  to do a read from a hardcopy
     1023       11           forms device. The current KV$PTR and SRD.NXTNONBLNLIN,  tell
     1024       12           us where we are. KV$LIN.VRTLIN in the argument KV$LIN tells
     1025       13           us what line to go to.                                                    */
     1026       14
     1027       15 S      %INCLUDE KV$GLB;
     1028       16 S      %INCLUDE KV$GLBCTX;
     1029       17 S      %INCLUDE KV_GLBCNS_E;
     1030       18        %INCLUDE KV$INPFNC;
     1031      577 S      %INCLUDE KV$INT;
     1032      578 S      %INCLUDE KV$VDH;
     1033      579        %INCLUDE KV_GLB_M;
     1034      701        %INCLUDE KV_INT_M;
     1035      844
     1036      845        %KV$VDH_OTPLCL;
     1037      918        %KV$VDH_PST;
     1038      992        %KV$FLD;
     1039     1080        %KV$FLDLST;
     1040     1104        %KV$LIN;
     1041     1128        %KV$LINLST;
     1042     1155        %KV$SRD;
     1043     1430        %KV$VDI;
     1044     1501        %KV$PTR;
     1045     1544        %KV$LIN (NAME = PRM_LIN, STCLASS = PARAM);
     1046     1568        %KV_VRTPSTMOD_E;
     1047     1574
     1048     1575    1   DCL KVO$PST ENTRY(1);
     1049     1576    1   DCL KVO$OTPLCL ENTRY(1);
PL6.E3A0      #005=KVF$UPDFRM_HRDCPY File=KVF$TBLSCN.:E05TSI                     WED 07/30/97 02:01 Page:165
     1050     1577
     1051     1578
     1052     1579        %KV$VDH_OTPLCL (NAME = KV@VDH_OTPLCL, STCLASS = AUTO);
     1053     1652        %KV$VDH_OTPLCL (NAME = KV_VDH_OTPLCL, STCLASS = SYMREF READONLY);
     1054     1725        %KV$VDH_PST (NAME = KV@VDH_PST, STCLASS = AUTO);
     1055     1799        %KV$VDH_PST (NAME = KV_VDH_PST_NEWLIN_VRT, STCLASS = SYMREF READONLY);
     1056     1873        /*
     1057     1874        Pointer to the current KV$FLD entry.
     1058     1875        */
     1059     1876    1   DCL Y@FLD$ PTR AUTO;
     1060     1877        /*
     1061     1878        Pointer to the current KV$LIN entry.
     1062     1879        */
     1063     1880    1   DCL Y@LIN$ PTR AUTO;
     1064     1881        /*
     1065     1882        Current KV$FLD's word index into KV$FLDLST.
     1066     1883        */
     1067     1884    1   DCL Y@FLDWRDX UBIN WORD AUTO;
     1068     1885        /*
     1069     1886        Also used in initialization to remember line to go to.
     1070     1887        */
     1071     1888    1   DCL Y@DSTLINX REDEF Y@FLDWRDX UBIN;
     1072     1889        /*
     1073     1890        Current KV$LIN's word index into KV$LINLST.
     1074     1891        */
     1075     1892    1   DCL Y@LINWRDX UBIN WORD AUTO;
     1076     1893
     1077     1894        /* Setup an initialized position structure                                    */
     1078     1895
     1079     1896    1      KV@VDH_PST = KV_VDH_PST_NEWLIN_VRT;
     1080     1897    1      KV@VDH_PST.VRTPSTMOD = %KV_VRTPSTMOD_WHTSPC;
     1081     1898
     1082     1899        /* And one for output                                                         */
     1083     1900
     1084     1901    1      KV@VDH_OTPLCL = KV_VDH_OTPLCL;
     1085     1902
     1086     1903        /* Restore srd margins in case we broke out of a read                         */
PL6.E3A0      #005=KVF$UPDFRM_HRDCPY File=KVF$TBLSCN.:E05TSI                     WED 07/30/97 02:01 Page:166
     1087     1904
     1088     1905    1      %KV_SRD.FLDEND_PST = 0;
     1089     1906    1      Y@LIN$ = KV$PTR.LINLST$;
     1090     1907
     1091     1908    1      Y@DSTLINX = PRM_LIN.VRTLIN;
     1092     1909
     1093     1910        /* If we are at beginning of form,  output all protected and constant
     1094     1911           fields up to the first field to read from                                  */
     1095     1912
     1096     1913    1      Y@LINWRDX = %KV_SRD.NXTNONBLNLIN;
     1097     1914
     1098     1915        /* Start where we left off                                                    */
     1099     1916
     1100     1917    2      IF (Y@LINWRDX <= %KV_SRD.MINLNG) THEN DO;
     1101     1918    2         KV$PTR.VRTLIN = Y@LINWRDX;
     1102     1919    2         IF (Y@DSTLINX ~= Y@LINWRDX)
     1103     1920    3           OR NOT %KV_VDI.USRRQSDAT.RED THEN DO;
     1104     1921
     1105     1922        /* Going to a new line,  display it (at least)                                */
     1106     1923
     1107     1924    3            PRM_LIN.FRMDSP = '0'B;
     1108     1925    3            IF %KV_VDI.USRRQSDAT.RED
     1109     1926    4              OR (Y@DSTLINX = Y@LINWRDX) THEN DO;
     1110     1927    5               IF (Y@DSTLINX < Y@LINWRDX) THEN DO;
     1111     1928
     1112     1929        /* We're going up,  only put out one line (the destination)                   */
     1113     1930
     1114     1931    5                  Y@LINWRDX = Y@DSTLINX;
     1115     1932    5               END; ELSE DO;
     1116     1933    5                  KV$PTR.VRTLIN = KV$PTR.VRTLIN - 1;
     1117     1934    5               END;                        /* IF                                 */
     1118     1935    4            END;                           /* IF                                 */
     1119     1936    3         END; ELSE DO;
     1120     1937    3            RETURN;
     1121     1938    3         END;                              /* IF                                 */
     1122     1939    2         Y@LINWRDX = Y@LINWRDX*SIZEW(KV$LIN);
     1123     1940    2         Y@LINWRDX = Y@LINWRDX + SIZEW(KV$LINLST) - SIZEW(KV$LIN);
PL6.E3A0      #005=KVF$UPDFRM_HRDCPY File=KVF$TBLSCN.:E05TSI                     WED 07/30/97 02:01 Page:167
     1124     1941    2      END; ELSE DO;
     1125     1942
     1126     1943        /* Build a pointer to the first line list entry                               */
     1127     1944
     1128     1945    2         Y@LINWRDX = SIZEW(KV$LINLST);
     1129     1946    2         KV$PTR.VRTLIN = 0;
     1130     1947    2      END; /* IF */
     1131     1948
     1132     1949        /* Dump all lines that have not been displayed up to the line that
     1133     1950           has the first input field on it                                            */
     1134     1951
     1135     1952    2      DO WHILE ('1'B);                     /* LOOP START                         */
     1136     1953
     1137     1954        /* Allways start dumping from first field on line                             */
     1138     1955
     1139     1956    2         Y@FLDWRDX = SIZEW(KV$FLDLST);
     1140     1957
     1141     1958        /* Build a pointer to this KV$LIN entry                                       */
     1142     1959
     1143     1960    2         Y@LIN$ = PINCRW(Y@LIN$, Y@LINWRDX);
     1144     1961
     1145     1962        /* If there are fields on this line,  its a candidate                         */
     1146     1963
     1147     1964
     1148     1965        /* Unless,  of course,  its beyond the desired range of lines                 */
     1149     1966
     1150     1967    2         IF NOT Y@LIN$->KV$LIN.FRMDSP
     1151     1968    3           OR Y@LIN$->KV$LIN.UPDFLDCNT > 0 THEN DO;
     1152     1969    3            Y@LIN$->KV$LIN.UPDFLDCNT = 0;
     1153     1970
     1154     1971    3            Y@LIN$->KV$LIN.FRMDSP = '1'B;
     1155     1972
     1156     1973    4            IF (Y@LIN$->KV$LIN.FLDLST$ ~= ADDR(NIL)) THEN DO;
     1157     1974    5               DO WHILE ('1'B);            /* LOOP START                         */
     1158     1975
     1159     1976        /* Dump the fields on this line                                               */
     1160     1977
PL6.E3A0      #005=KVF$UPDFRM_HRDCPY File=KVF$TBLSCN.:E05TSI                     WED 07/30/97 02:01 Page:168
     1161     1978    5                  Y@FLD$ = Y@LIN$->KV$LIN.FLDLST$;
     1162     1979    5                  IF (Y@FLDWRDX > Y@FLD$->KV$FLDLST.LSTENTWRDX) THEN EXIT;
     1163     1980
     1164     1981        /* Point to the next field                                                    */
     1165     1982
     1166     1983    5                  Y@FLD$ = PINCRW(Y@FLD$, Y@FLDWRDX);
     1167     1984    6                  IF (Y@FLD$->KV$FLD.TXTSIZ ~= 0) AND NOT Y@FLD$->KV$FLD.GRPRND.HDN
              1984                           THEN DO;
     1168     1985
     1169     1986        /* Position to the field                                                      */
     1170     1987
     1171     1988    6                     KV@VDH_PST.PSTVAL.LIN = Y@LIN$->KV$LIN.VRTLIN - KV$PTR.VRTLIN;
     1172     1989    7                     IF (KV@VDH_PST.PSTVAL.LIN < 0) THEN DO;
     1173     1990    7                        KV@VDH_PST.PSTVAL.LIN = 1;
     1174     1991    7                     END;                  /* IF                                 */
     1175     1992    6                     KV$PTR.VRTLIN = Y@LIN$->KV$LIN.VRTLIN;
     1176     1993    6                     KV@VDH_PST.PSTVAL.CLM = Y@FLD$->KV$FLD.VRTCLM;
     1177     1994    6                     CALL KVO$PST(KV@VDH_PST) ;
     1178     1995    6                     KV@VDH_OTPLCL.BFR_.ADR$ = Y@FLD$;
     1179     1996    6                     KV@VDH_OTPLCL.BFR_.BYTSIZ = Y@FLD$->KV$FLD.TXTSIZ;
     1180     1997    6                     KV@VDH_OTPLCL.BFR_.BYTX = LENGTHC(KV$FLD) - 1;
     1181     1998    6                     CALL KVO$OTPLCL(KV@VDH_OTPLCL) ;
     1182     1999    6                  END;                     /* IF                                 */
     1183     2000    5                  Y@FLDWRDX = Y@FLDWRDX + Y@FLD$->KV$FLD.STRWRDSIZ;
     1184     2001    5               END;                        /* LOOP                               */
     1185     2002    4            END;                           /* IF                                 */
     1186     2003    3         END; ELSE DO;
     1187     2004    3            KV$PTR.VRTLIN = KV$PTR.VRTLIN + 1;
     1188     2005    3         END;                              /* IF                                 */
     1189     2006
     1190     2007    3         IF Y@LIN$=ADDR(PRM_LIN) THEN DO;
     1191     2008    3            %KV_SRD.NXTNONBLNLIN = KV$PTR.VRTLIN;
     1192     2009    3            RETURN;
     1193     2010    3         END;                              /* IF                                 */
     1194     2011    2         Y@LINWRDX = Y@LINWRDX + SIZEW(KV$LIN);
     1195     2012    2         Y@LIN$ = KV$PTR.LINLST$;
     1196     2013    3         IF (Y@LINWRDX > Y@LIN$->KV$LINLST.LSTENTWRDX) THEN DO;
PL6.E3A0      #005=KVF$UPDFRM_HRDCPY File=KVF$TBLSCN.:E05TSI                     WED 07/30/97 02:01 Page:169
     1197     2014    3            Y@LINWRDX = SIZEW(KV$LINLST);
     1198     2015    3            KV$PTR.VRTLIN = 0;
     1199     2016    3         END;                              /* IF                                 */
     1200     2017
     1201     2018    2      END; /* LOOP */
     1202     2019    1   END; /* SUBROUTINE */
     1203     2020        %EOD;

PL6.E3A0      #005=KVF$UPDFRM_HRDCPY File=KVF$TBLSCN.:E05TSI                     WED 07/30/97 02:01 Page:170
--  Include file information  --

   KV_INT_M.:E05TOU  is referenced.
   KV_GLB_M.:E05TOU  is referenced.
   KV$INPFNC.:E05TOU  is referenced.
   KV_PRMID_E.:E05TOU  was found in the system file and is never referenced.
   KV_GLBCNS_E.:E05TOU  was found in the system file and is referenced.
   KV$VDO.:E05TOU  was found in the system file and is never referenced.
   KV$VDH.:E05TOU  was found in the system file and is referenced.
   KV$USR.:E05TOU  was found in the system file and is never referenced.
   KV$SND.:E05TOU  was found in the system file and is never referenced.
   KV$INT.:E05TOU  was found in the system file and is referenced.
   KV$GLBCTX.:E05TOU  was found in the system file and is referenced.
   KV$GLB.:E05TOU  was found in the system file and is referenced.
   G_LCP6_E.:E05TOU  was found in the system file and is never referenced.
   GT_LCP6_M.:E05TOU  was found in the system file and is never referenced.
   KI_CP6.:E05TOU  was found in the system file and is never referenced.
   GF_LCP6_M.:E05TOU  was found in the system file and is never referenced.
   GM_LCP6_M.:E05TOU  was found in the system file and is never referenced.
   GU_LCP6_M.:E05TOU  was found in the system file and is never referenced.
   GJ_LCP6_M.:E05TOU  was found in the system file and is never referenced.
   GH_LCP6_M.:E05TOU  was found in the system file and is never referenced.
      No diagnostics issued in procedure KVF$UPDFRM_HRDCPY.

   Procedure KVF$UPDFRM_HRDCPY requires 286 words for executable code.
   Procedure KVF$UPDFRM_HRDCPY requires 24 words of local(AUTO) storage.

PL6.E3A0      #005=KVF$UPDFRM_HRDCPY File=KVF$TBLSCN.:E05TSI                     WED 07/30/97 02:01 Page:171

 Object Unit name= KVF$UPDFRM_HRDCPY                          File name= KVF$TBLSCN.:E05TOU
 UTS= JUL 30 '97 02:01:07.08 WED                              Compiler= PL-6/E31         Sev=      00
 SharedLib= :SHARED_LCP6_SYSTEM                               Alt SharedLib=


    ****  Control sections  ****

 Sect   Type Bound  Init  Size HexSiz  Section name
    0   Proc  even  none   286    11E  KVF$UPDFRM_HRDCPY

    ****  Entry defs  ****

                              Check   Calling
                             calling  sequence
  Sect HexLoc Primary Altret sequence   type   Parms  Name
     0      0   yes            yes      Std        1  KVF$UPDFRM_HRDCPY

  ****  Entry refs  ****

         Check        Calling
        calling       sequence
Altret sequence SRef   type   Args  Name
         yes           Std       1 KVO$PST
         yes           Std       1 KVO$OTPLCL
                       nStd      0 X6A_AUTO_1
                       nStd      0 X6A_ARET

  ****  Data refs  ****

  Flags:  r = read only, s = secondary
Flgs Name                             Flgs Name                             Flgs Name
     KV$PTR$                          r    KV_VDH_OTPLCL                    r    KV_VDH_PST_NEWLIN_VRT
r    G$ROS$
PL6.E3A0      #005=KVF$UPDFRM_HRDCPY File=KVF$TBLSCN.:E05TSI                     WED 07/30/97 02:01 Page:172


     1013        1        /*T***********************************************************/
     1014        2        /*T*                                                         */
     1015        3        /*T* Copyright (c) Bull HN Information Systems Inc., 1997    */
     1016        4        /*T*                                                         */
     1017        5        /*T***********************************************************/
     1018        6        /*X*     NSO,PLM=3,SQB=Y,AND=Y,ENI=0,SDI=3,MCL=10,CSI=0,ECI=0,IND=0,IAD=3 */
     1019        7        KVF$UPDFRM_HRDCPY: PROC (PRM_LIN);

      7   0 000000  D380 0000 0000  xent KVF$UPDFRM_HRDC*LNJ,B5   X6A_AUTO_1
          0 000003       0018 0001                       DC       24,1

     1020        8
     1021        9        /* The purpose of this routine is to do all the necessary positioing,
     1022       10           and display all the necessary fields,  to do a read from a hardcopy
     1023       11           forms device. The current KV$PTR and SRD.NXTNONBLNLIN,  tell
     1024       12           us where we are. KV$LIN.VRTLIN in the argument KV$LIN tells
     1025       13           us what line to go to.                                                    */
     1026       14
     1027       15 S      %INCLUDE KV$GLB;
     1028       16 S      %INCLUDE KV$GLBCTX;
     1029       17 S      %INCLUDE KV_GLBCNS_E;
     1030       18        %INCLUDE KV$INPFNC;
     1031      577 S      %INCLUDE KV$INT;
     1032      578 S      %INCLUDE KV$VDH;
     1033      579        %INCLUDE KV_GLB_M;
     1034      701        %INCLUDE KV_INT_M;
     1035      844
     1036      845        %KV$VDH_OTPLCL;
     1037      918        %KV$VDH_PST;
     1038      992        %KV$FLD;
     1039     1080        %KV$FLDLST;
     1040     1104        %KV$LIN;
     1041     1128        %KV$LINLST;
     1042     1155        %KV$SRD;
     1043     1430        %KV$VDI;
     1044     1501        %KV$PTR;
PL6.E3A0      #005=KVF$UPDFRM_HRDCPY File=KVF$TBLSCN.:E05TSI                     WED 07/30/97 02:01 Page:173
     1045     1544        %KV$LIN (NAME = PRM_LIN, STCLASS = PARAM);
     1046     1568        %KV_VRTPSTMOD_E;
     1047     1574
     1048     1575    1   DCL KVO$PST ENTRY(1);
     1049     1576    1   DCL KVO$OTPLCL ENTRY(1);
     1050     1577
     1051     1578
     1052     1579        %KV$VDH_OTPLCL (NAME = KV@VDH_OTPLCL, STCLASS = AUTO);
     1053     1652        %KV$VDH_OTPLCL (NAME = KV_VDH_OTPLCL, STCLASS = SYMREF READONLY);
     1054     1725        %KV$VDH_PST (NAME = KV@VDH_PST, STCLASS = AUTO);
     1055     1799        %KV$VDH_PST (NAME = KV_VDH_PST_NEWLIN_VRT, STCLASS = SYMREF READONLY);
     1056     1873        /*
     1057     1874        Pointer to the current KV$FLD entry.
     1058     1875        */
     1059     1876    1   DCL Y@FLD$ PTR AUTO;
     1060     1877        /*
     1061     1878        Pointer to the current KV$LIN entry.
     1062     1879        */
     1063     1880    1   DCL Y@LIN$ PTR AUTO;
     1064     1881        /*
     1065     1882        Current KV$FLD's word index into KV$FLDLST.
     1066     1883        */
     1067     1884    1   DCL Y@FLDWRDX UBIN WORD AUTO;
     1068     1885        /*
     1069     1886        Also used in initialization to remember line to go to.
     1070     1887        */
     1071     1888    1   DCL Y@DSTLINX REDEF Y@FLDWRDX UBIN;
     1072     1889        /*
     1073     1890        Current KV$LIN's word index into KV$LINLST.
     1074     1891        */
     1075     1892    1   DCL Y@LINWRDX UBIN WORD AUTO;
     1076     1893
     1077     1894        /* Setup an initialized position structure                                    */
     1078     1895
     1079     1896    1      KV@VDH_PST = KV_VDH_PST_NEWLIN_VRT;

   1896   0 000005  AB80 0000 0000  xsym                 LAB,B2   KV_VDH_PST_NEWLIN_VRT
PL6.E3A0      #005=KVF$UPDFRM_HRDCPY File=KVF$TBLSCN.:E05TSI                     WED 07/30/97 02:01 Page:174
          0 000008  2C00                                 LDV,R2   0
          0 000009  6C08                                 LDV,R6   8
          0 00000A  BB87                                 LAB,B3   ,AUTO
          0 00000B  3C16                                 LDV,R3   22
          0 00000C  0008                                 MMM

     1080     1897    1      KV@VDH_PST.VRTPSTMOD = %KV_VRTPSTMOD_WHTSPC;

   1897   0 00000D  6C20                                 LDV,R6   32
          0 00000E  EAC7 000B                            SRM,R6,'0060'X    KV@VDH_PST,AUTO
          0 000010       0060

     1081     1898
     1082     1899        /* And one for output                                                         */
     1083     1900
     1084     1901    1      KV@VDH_OTPLCL = KV_VDH_OTPLCL;

   1901   0 000011  AB80 0000 0000  xsym                 LAB,B2   KV_VDH_OTPLCL
          0 000014  2C00                                 LDV,R2   0
          0 000015  6C0A                                 LDV,R6   10
          0 000016  BB87                                 LAB,B3   ,AUTO
          0 000017  3C0C                                 LDV,R3   12
          0 000018  0008                                 MMM

     1085     1902
     1086     1903        /* Restore srd margins in case we broke out of a read                         */
     1087     1904
     1088     1905    1      %KV_SRD.FLDEND_PST = 0;

   1905   0 000019  EC80 0000 0000  xsym                 LDB,B6   KV$PTR$
          0 00001C  DCC6 000A                            LDB,B5   10,B6
          0 00001E  8745 0010                            CL       16,B5
          0 000020  8745 0011                            CL       17,B5

     1089     1906    1      Y@LIN$ = KV$PTR.LINLST$;

   1906   0 000022  DCC6 000E                            LDB,B5   14,B6
PL6.E3A0      #005=KVF$UPDFRM_HRDCPY File=KVF$TBLSCN.:E05TSI                     WED 07/30/97 02:01 Page:175
          0 000024  DFC7 0011                            STB,B5   Y@LIN$,AUTO

     1090     1907
     1091     1908    1      Y@DSTLINX = PRM_LIN.VRTLIN;

   1908   0 000026  CCC7 0004                            LDB,B4   @PRM_LIN,AUTO
          0 000028  E844 0002                            LDR,R6   2,B4
          0 00002A  EF47 0013                            STR,R6   Y@FLDWRDX,AUTO

     1092     1909
     1093     1910        /* If we are at beginning of form,  output all protected and constant
     1094     1911           fields up to the first field to read from                                  */
     1095     1912
     1096     1913    1      Y@LINWRDX = %KV_SRD.NXTNONBLNLIN;

   1913   0 00002C  ACC6 000A                            LDB,B2   10,B6
          0 00002E  D842 0014                            LDR,R5   20,B2
          0 000030  DF47 0014                            STR,R5   Y@LINWRDX,AUTO

     1097     1914
     1098     1915        /* Start where we left off                                                    */
     1099     1916
     1100     1917    2      IF (Y@LINWRDX <= %KV_SRD.MINLNG) THEN DO;

   1917   0 000032  C842 001E                            LDR,R4   30,B2
          0 000034  C570 00FF                            AND,R4   255,IMO
          0 000036  C955                                 CMR,R4   R5
          0 000037  0201 002E                            BL       s:1945,PREL

     1101     1918    2         KV$PTR.VRTLIN = Y@LINWRDX;

   1918   0 000039  DF46 0019                            STR,R5   25,B6

     1102     1919    2         IF (Y@DSTLINX ~= Y@LINWRDX)

   1919   0 00003B  E955                                 CMR,R6   R5
          0 00003C  0981 0007                            BNE      s:1924,PREL
PL6.E3A0      #005=KVF$UPDFRM_HRDCPY File=KVF$TBLSCN.:E05TSI                     WED 07/30/97 02:01 Page:176
          0 00003E  9C86                                 LDB,B1   ,B6
          0 00003F  82C1 001D                            LB,'0010'X        29,B1
          0 000041       0010
          0 000042  0501 0018                            BBT      s:1937,PREL

     1103     1920    3           OR NOT %KV_VDI.USRRQSDAT.RED THEN DO;

     1104     1921
     1105     1922        /* Going to a new line,  display it (at least)                                */
     1106     1923
     1107     1924    3            PRM_LIN.FRMDSP = '0'B;

   1924   0 000044  8844 0003                            LBF,'0080'X       3,B4
   1924   0 000046       0080

     1108     1925    3            IF %KV_VDI.USRRQSDAT.RED

   1925   0 000047  AC86                                 LDB,B2   ,B6
          0 000048  82C2 001D                            LB,'0010'X        29,B2
          0 00004A       0010
          0 00004B  0501 0003                            BBT      s:1927,PREL
          0 00004D  0981 0010                            BNE      s:1939,PREL

     1109     1926    4              OR (Y@DSTLINX = Y@LINWRDX) THEN DO;

     1110     1927    5               IF (Y@DSTLINX < Y@LINWRDX) THEN DO;

   1927   0 00004F  E955                                 CMR,R6   R5
          0 000050  0281 0006                            BGE      s:1933,PREL

     1111     1928
     1112     1929        /* We're going up,  only put out one line (the destination)                   */
     1113     1930
     1114     1931    5                  Y@LINWRDX = Y@DSTLINX;

   1931   0 000052  D856                                 LDR,R5   R6
          0 000053  DF47 0014                            STR,R5   Y@LINWRDX,AUTO
PL6.E3A0      #005=KVF$UPDFRM_HRDCPY File=KVF$TBLSCN.:E05TSI                     WED 07/30/97 02:01 Page:177

     1115     1932    5               END; ELSE DO;

   1932   0 000055  0F81 0008                            B        s:1939,PREL

     1116     1933    5                  KV$PTR.VRTLIN = KV$PTR.VRTLIN - 1;

   1933   0 000057  88C6 0019                            DEC      25,B6

     1117     1934    5               END;                        /* IF                                 */

     1118     1935    4            END;                           /* IF                                 */

     1119     1936    3         END; ELSE DO;

   1936   0 000059  0F81 0004                            B        s:1939,PREL

     1120     1937    3            RETURN;

   1937   0 00005B  C380 0000 0000  xent                 LNJ,B4   X6A_ARET

     1121     1938    3         END;                              /* IF                                 */
     1122     1939    2         Y@LINWRDX = Y@LINWRDX*SIZEW(KV$LIN);

   1939   0 00005E  5002                                 SOL,R5   2
          0 00005F  DF47 0014                            STR,R5   Y@LINWRDX,AUTO

     1123     1940    2         Y@LINWRDX = Y@LINWRDX + SIZEW(KV$LINLST) - SIZEW(KV$LIN);

   1940   0 000061  5E04                                 ADV,R5   4
          0 000062  DF47 0014                            STR,R5   Y@LINWRDX,AUTO

     1124     1941    2      END; ELSE DO;

   1941   0 000064  0F81 0006                            B        s:1956,PREL

     1125     1942
PL6.E3A0      #005=KVF$UPDFRM_HRDCPY File=KVF$TBLSCN.:E05TSI                     WED 07/30/97 02:01 Page:178
     1126     1943        /* Build a pointer to the first line list entry                               */
     1127     1944
     1128     1945    2         Y@LINWRDX = SIZEW(KV$LINLST);

   1945   0 000066  5C08                                 LDV,R5   8
          0 000067  DF47 0014                            STR,R5   Y@LINWRDX,AUTO

     1129     1946    2         KV$PTR.VRTLIN = 0;

   1946   0 000069  8746 0019                            CL       25,B6

     1130     1947    2      END; /* IF */

     1131     1948
     1132     1949        /* Dump all lines that have not been displayed up to the line that
     1133     1950           has the first input field on it                                            */
     1134     1951
     1135     1952    2      DO WHILE ('1'B);                     /* LOOP START                         */

     1136     1953
     1137     1954        /* Allways start dumping from first field on line                             */
     1138     1955
     1139     1956    2         Y@FLDWRDX = SIZEW(KV$FLDLST);

   1956   0 00006B  6C03                                 LDV,R6   3
          0 00006C  EF47 0013                            STR,R6   Y@FLDWRDX,AUTO

     1140     1957
     1141     1958        /* Build a pointer to this KV$LIN entry                                       */
     1142     1959
     1143     1960    2         Y@LIN$ = PINCRW(Y@LIN$, Y@LINWRDX);

   1960   0 00006E  F847 0014                            LDR,R7   Y@LINWRDX,AUTO
          0 000070  6C00                                 LDV,R6   0
          0 000071  8447 0011                            AID      Y@LIN$,AUTO
          0 000073  8D47 0011                            SDI      Y@LIN$,AUTO

PL6.E3A0      #005=KVF$UPDFRM_HRDCPY File=KVF$TBLSCN.:E05TSI                     WED 07/30/97 02:01 Page:179
     1144     1961
     1145     1962        /* If there are fields on this line,  its a candidate                         */
     1146     1963
     1147     1964
     1148     1965        /* Unless,  of course,  its beyond the desired range of lines                 */
     1149     1966
     1150     1967    2         IF NOT Y@LIN$->KV$LIN.FRMDSP

   1967   0 000075  ECC7 0011                            LDB,B6   Y@LIN$,AUTO
          0 000077  82C6 0003                            LB,'0080'X        3,B6
          0 000079       0080
          0 00007A  0581 0005                            BBF      s:1969,PREL
          0 00007C  D2C6 0003                            LLH,R5   3,B6
          0 00007E  5901 0071                            BEZ,R5   s:2004,PREL

     1151     1968    3           OR Y@LIN$->KV$LIN.UPDFLDCNT > 0 THEN DO;

     1152     1969    3            Y@LIN$->KV$LIN.UPDFLDCNT = 0;

   1969   0 000080  87C6 0003                            CLH      3,B6

     1153     1970
     1154     1971    3            Y@LIN$->KV$LIN.FRMDSP = '1'B;

   1971   0 000082  8946 0003                            LBT,'0080'X       3,B6
   1971   0 000084       0080

     1155     1972
     1156     1973    4            IF (Y@LIN$->KV$LIN.FLDLST$ ~= ADDR(NIL)) THEN DO;

   1973   0 000085  8D86                                 CMN      ,B6
          0 000086  0901 006E                            BE       s:2007,PREL

     1157     1974    5               DO WHILE ('1'B);            /* LOOP START                         */

     1158     1975
     1159     1976        /* Dump the fields on this line                                               */
PL6.E3A0      #005=KVF$UPDFRM_HRDCPY File=KVF$TBLSCN.:E05TSI                     WED 07/30/97 02:01 Page:180
     1160     1977
     1161     1978    5                  Y@FLD$ = Y@LIN$->KV$LIN.FLDLST$;

   1978   0 000088  ECC7 0011                            LDB,B6   Y@LIN$,AUTO
          0 00008A  DC86                                 LDB,B5   ,B6
          0 00008B  DFC7 000F                            STB,B5   Y@FLD$,AUTO

     1162     1979    5                  IF (Y@FLDWRDX > Y@FLD$->KV$FLDLST.LSTENTWRDX) THEN EXIT;

   1979   0 00008D  E847 0013                            LDR,R6   Y@FLDWRDX,AUTO
          0 00008F  6801 005E                            BLZ,R6   s:2003,PREL
          0 000091  E945 0001                            CMR,R6   1,B5
          0 000093  0A01 005A                            BAG      s:2003,PREL

     1163     1980
     1164     1981        /* Point to the next field                                                    */
     1165     1982
     1166     1983    5                  Y@FLD$ = PINCRW(Y@FLD$, Y@FLDWRDX);

   1983   0 000095  F856                                 LDR,R7   R6
          0 000096  6C00                                 LDV,R6   0
          0 000097  8447 000F                            AID      Y@FLD$,AUTO
          0 000099  8D47 000F                            SDI      Y@FLD$,AUTO

     1167     1984    6                  IF (Y@FLD$->KV$FLD.TXTSIZ ~= 0) AND NOT Y@FLD$->KV$FLD.GRPRND.HDN
              1984                           THEN DO;

   1984   0 00009B  CCC7 000F                            LDB,B4   Y@FLD$,AUTO
          0 00009D  82C4 0005                            LB,'00FF'X        5,B4
          0 00009F       00FF
          0 0000A0  0581 0041                            BBF      s:2000,PREL
          0 0000A2  82C4 0003                            LB,'0040'X        3,B4
          0 0000A4       0040
          0 0000A5  0501 003C                            BBT      s:2000,PREL

     1168     1985
     1169     1986        /* Position to the field                                                      */
PL6.E3A0      #005=KVF$UPDFRM_HRDCPY File=KVF$TBLSCN.:E05TSI                     WED 07/30/97 02:01 Page:181
     1170     1987
     1171     1988    6                     KV@VDH_PST.PSTVAL.LIN = Y@LIN$->KV$LIN.VRTLIN - KV$PTR.VRTLIN;

   1988   0 0000A7  BC80 0000 0000  xsym                 LDB,B3   KV$PTR$
          0 0000AA  D846 0002                            LDR,R5   2,B6
          0 0000AC  D243 0019                            SUB,R5   25,B3
          0 0000AE  DF47 000D                            STR,R5   KV@VDH_PST+2,AUTO

     1172     1989    7                     IF (KV@VDH_PST.PSTVAL.LIN < 0) THEN DO;

   1989   0 0000B0  5881 0004                            BGEZ,R5  s:1992,PREL

     1173     1990    7                        KV@VDH_PST.PSTVAL.LIN = 1;

   1990   0 0000B2  5C01                                 LDV,R5   1
          0 0000B3  DF47 000D                            STR,R5   KV@VDH_PST+2,AUTO

     1174     1991    7                     END;                  /* IF                                 */

     1175     1992    6                     KV$PTR.VRTLIN = Y@LIN$->KV$LIN.VRTLIN;

   1992   0 0000B5  C846 0002                            LDR,R4   2,B6
          0 0000B7  CF43 0019                            STR,R4   25,B3

     1176     1993    6                     KV@VDH_PST.PSTVAL.CLM = Y@FLD$->KV$FLD.VRTCLM;

   1993   0 0000B9  B2C4 0002                            LLH,R3   2,B4
          0 0000BB  BF47 000E                            STR,R3   KV@VDH_PST+3,AUTO

     1177     1994    6                     CALL KVO$PST(KV@VDH_PST) ;

   1994   0 0000BD  DBC7 000B                            LAB,B5   KV@VDH_PST,AUTO
          0 0000BF  DFC7 0016                            STB,B5   Y@LINWRDX+2,AUTO
          0 0000C1  BBC7 0016                            LAB,B3   Y@LINWRDX+2,AUTO
          0 0000C3  CBF0 0100                            LAB,B4   256,IMO
          0 0000C5  E380 0000 0000  xent                 LNJ,B6   KVO$PST
          0 0000C8       0001                            DC       s:1995,PREL
PL6.E3A0      #005=KVF$UPDFRM_HRDCPY File=KVF$TBLSCN.:E05TSI                     WED 07/30/97 02:01 Page:182

     1178     1995    6                     KV@VDH_OTPLCL.BFR_.ADR$ = Y@FLD$;

   1995   0 0000C9  ECC7 000F                            LDB,B6   Y@FLD$,AUTO
          0 0000CB  EFC7 0007                            STB,B6   KV@VDH_OTPLCL+1,AUTO

     1179     1996    6                     KV@VDH_OTPLCL.BFR_.BYTSIZ = Y@FLD$->KV$FLD.TXTSIZ;

   1996   0 0000CD  E846 0005                            LDR,R6   5,B6
          0 0000CF  E570 00FF                            AND,R6   255,IMO
          0 0000D1  EF47 000A                            STR,R6   KV@VDH_OTPLCL+4,AUTO

     1180     1997    6                     KV@VDH_OTPLCL.BFR_.BYTX = LENGTHC(KV$FLD) - 1;

   1997   0 0000D3  5C0C                                 LDV,R5   12
          0 0000D4  DF47 0009                            STR,R5   KV@VDH_OTPLCL+3,AUTO

     1181     1998    6                     CALL KVO$OTPLCL(KV@VDH_OTPLCL) ;

   1998   0 0000D6  DBC7 0006                            LAB,B5   KV@VDH_OTPLCL,AUTO
          0 0000D8  DFC7 0016                            STB,B5   Y@LINWRDX+2,AUTO
          0 0000DA  BBC7 0016                            LAB,B3   Y@LINWRDX+2,AUTO
          0 0000DC  CBF0 0100                            LAB,B4   256,IMO
          0 0000DE  E380 0000 0000  xent                 LNJ,B6   KVO$OTPLCL
          0 0000E1       0001                            DC       s:2000,PREL

     1182     1999    6                  END;                     /* IF                                 */

     1183     2000    5                  Y@FLDWRDX = Y@FLDWRDX + Y@FLD$->KV$FLD.STRWRDSIZ;

   2000   0 0000E2  ECC7 000F                            LDB,B6   Y@FLD$,AUTO
          0 0000E4  E846 0001                            LDR,R6   1,B6
          0 0000E6  6008                                 SOL,R6   8
          0 0000E7  6068                                 SAR,R6   8
          0 0000E8  EA47 0013                            ADD,R6   Y@FLDWRDX,AUTO
          0 0000EA  EF47 0013                            STR,R6   Y@FLDWRDX,AUTO

PL6.E3A0      #005=KVF$UPDFRM_HRDCPY File=KVF$TBLSCN.:E05TSI                     WED 07/30/97 02:01 Page:183
     1184     2001    5               END;                        /* LOOP                               */

   2001   0 0000EC  0F81 FF9B                            B        s:1978,PREL

     1185     2002    4            END;                           /* IF                                 */

     1186     2003    3         END; ELSE DO;

   2003   0 0000EE  0F81 0006                            B        s:2007,PREL

     1187     2004    3            KV$PTR.VRTLIN = KV$PTR.VRTLIN + 1;

   2004   0 0000F0  DC80 0000 0000  xsym                 LDB,B5   KV$PTR$
          0 0000F3  8AC5 0019                            INC      25,B5

     1188     2005    3         END;                              /* IF                                 */

     1189     2006
     1190     2007    3         IF Y@LIN$=ADDR(PRM_LIN) THEN DO;

   2007   0 0000F5  EDC7 0004                            CMB,B6   @PRM_LIN,AUTO
          0 0000F7  0981 000D                            BNE      s:2011,PREL

     1191     2008    3            %KV_SRD.NXTNONBLNLIN = KV$PTR.VRTLIN;

   2008   0 0000F9  DC80 0000 0000  xsym                 LDB,B5   KV$PTR$
          0 0000FC  CCC5 000A                            LDB,B4   10,B5
          0 0000FE  E845 0019                            LDR,R6   25,B5
          0 000100  EF44 0014                            STR,R6   20,B4

     1192     2009    3            RETURN;

   2009   0 000102  C380 0000 0000  xent                 LNJ,B4   X6A_ARET

     1193     2010    3         END;                              /* IF                                 */
     1194     2011    2         Y@LINWRDX = Y@LINWRDX + SIZEW(KV$LIN);

PL6.E3A0      #005=KVF$UPDFRM_HRDCPY File=KVF$TBLSCN.:E05TSI                     WED 07/30/97 02:01 Page:184
   2011   0 000105  E847 0014                            LDR,R6   Y@LINWRDX,AUTO
          0 000107  6E04                                 ADV,R6   4
          0 000108  EF47 0014                            STR,R6   Y@LINWRDX,AUTO

     1195     2012    2         Y@LIN$ = KV$PTR.LINLST$;

   2012   0 00010A  DC80 0000 0000  xsym                 LDB,B5   KV$PTR$
          0 00010D  CCC5 000E                            LDB,B4   14,B5
          0 00010F  CFC7 0011                            STB,B4   Y@LIN$,AUTO

     1196     2013    3         IF (Y@LINWRDX > Y@LIN$->KV$LINLST.LSTENTWRDX) THEN DO;

   2013   0 000111  6801 0005                            BLZ,R6   s:2014,PREL
          0 000113  E944 0001                            CMR,R6   1,B4
          0 000115  0A81 FF55                            BALE     s:1956,PREL

     1197     2014    3            Y@LINWRDX = SIZEW(KV$LINLST);

   2014   0 000117  6C08                                 LDV,R6   8
          0 000118  EF47 0014                            STR,R6   Y@LINWRDX,AUTO

     1198     2015    3            KV$PTR.VRTLIN = 0;

   2015   0 00011A  8745 0019                            CL       25,B5

     1199     2016    3         END;                              /* IF                                 */

     1200     2017
     1201     2018    2      END; /* LOOP */

   2018   0 00011C  0F81 FF4E                            B        s:1956,PREL
     1202     2019    1   END; /* SUBROUTINE */
     1203     2020        %EOD;

PL6.E3A0      #005=KVF$UPDFRM_HRDCPY File=KVF$TBLSCN.:E05TSI                     WED 07/30/97 02:01 Page:185
--  Include file information  --

   KV_INT_M.:E05TOU  is referenced.
   KV_GLB_M.:E05TOU  is referenced.
   KV$INPFNC.:E05TOU  is referenced.
   KV_PRMID_E.:E05TOU  was found in the system file and is never referenced.
   KV_GLBCNS_E.:E05TOU  was found in the system file and is referenced.
   KV$VDO.:E05TOU  was found in the system file and is never referenced.
   KV$VDH.:E05TOU  was found in the system file and is referenced.
   KV$USR.:E05TOU  was found in the system file and is never referenced.
   KV$SND.:E05TOU  was found in the system file and is never referenced.
   KV$INT.:E05TOU  was found in the system file and is referenced.
   KV$GLBCTX.:E05TOU  was found in the system file and is referenced.
   KV$GLB.:E05TOU  was found in the system file and is referenced.
   G_LCP6_E.:E05TOU  was found in the system file and is never referenced.
   GT_LCP6_M.:E05TOU  was found in the system file and is never referenced.
   KI_CP6.:E05TOU  was found in the system file and is never referenced.
   GF_LCP6_M.:E05TOU  was found in the system file and is never referenced.
   GM_LCP6_M.:E05TOU  was found in the system file and is never referenced.
   GU_LCP6_M.:E05TOU  was found in the system file and is never referenced.
   GJ_LCP6_M.:E05TOU  was found in the system file and is never referenced.
   GH_LCP6_M.:E05TOU  was found in the system file and is never referenced.
      No diagnostics issued in procedure KVF$UPDFRM_HRDCPY.
PL6.E3A0      #005=KVF$UPDFRM_HRDCPY File=KVF$TBLSCN.:E05TSI                     WED 07/30/97 02:01 Page:186

 **** Variables and constants ****

  ****  Auto variables  ****

  ****  Scalars and arrays  ****
HexLoc.c.b A Datatyp(siz) R M Lvl/name                 HexLoc.c.b A Datatyp(siz) R M Lvl/name

     4-0-0/w PTR         r     1 @PRM_LIN                   6-0-0/w STRC(80)    r     1 KV@VDH_OTPLCL
     B-0-0/w STRC(64)    r     1 KV@VDH_PST                *0-0-0/w STRC(64)    r     1 PRM_LIN
    13-0-0/w UBIN(16)    r     1 Y@DSTLINX                  F-0-0/w PTR         r     1 Y@FLD$
    13-0-0/w UBIN(16)    r     1 Y@FLDWRDX                 11-0-0/w PTR         r     1 Y@LIN$
    14-0-0/w UBIN(16)    r     1 Y@LINWRDX

  ****  SYMREF variables  ****

  ****  Scalars and arrays  ****
HexLoc.c.b A Datatyp(siz) R M Lvl/name                 HexLoc.c.b A Datatyp(siz) R M Lvl/name

     0-0-0/w PTR         r     1 KV$PTR$                    0-0-0/w STRC(80)    r     1 KV_VDH_OTPLCL
     0-0-0/w STRC(64)    r     1 KV_VDH_PST_NEWLIN_VRT

  ****  BASED and DCB variables  ****

  ****  Scalars and arrays  ****
HexLoc.c.b A Datatyp(siz) R M Lvl/name                 HexLoc.c.b A Datatyp(siz) R M Lvl/name

     0-0-0/w STRC(104)   r     1 KV$FLD                     0-0-0/w STRC(48)    r     1 KV$FLDLST
     0-0-0/w STRC(64)    r     1 KV$LIN                     0-0-0/w STRC(128)   r     1 KV$LINLST
     0-0-0/w STRC(480)   r     1 KV$PTR                     0-0-0/w STRC(496)   r     1 KV$SRD
     0-0-0/w STRC(512)   r     1 KV$VDI


   Procedure KVF$UPDFRM_HRDCPY requires 286 words for executable code.
   Procedure KVF$UPDFRM_HRDCPY requires 24 words of local(AUTO) storage.
PL6.E3A0      #005=KVF$UPDFRM_HRDCPY File=KVF$TBLSCN.:E05TSI                     WED 07/30/97 02:01 Page:187
          *** CROSS REFERENCE LISTING ***
**     DENOTES     IDENTIFIER DEFINITION
<<                 IDENTIFIER'S VALUE SET
>>                 IDENTIFIER'S VALUE USED
<>                 IDENTIFIER SET AND/OR USED
--                 IDENTIFIER REFERENCED
PL6.E3A0      #005=KVF$UPDFRM_HRDCPY File=KVF$TBLSCN.:E05TSI                     WED 07/30/97 02:01 Page:188
          MINI XREF LISTING

KV$FLD
      1013**DCL      1997--ASSIGN
KV$FLD.GRPRND.HDN
      1068**DCL      1984>>IF
KV$FLD.STRWRDSIZ
      1013**DCL      2000>>ASSIGN
KV$FLD.TXTSIZ
      1072**DCL      1984>>IF       1996>>ASSIGN
KV$FLD.VRTCLM
      1014**DCL      1993>>ASSIGN
KV$FLDLST
      1101**DCL      1956--ASSIGN
KV$FLDLST.LSTENTWRDX
      1101**DCL      1979>>IF
KV$LIN
      1125**DCL      1939--ASSIGN   1940--ASSIGN   2011--ASSIGN
KV$LIN.FLDLST$
      1125**DCL      1973>>IF       1978>>ASSIGN
KV$LIN.FRMDSP
      1126**DCL      1967>>IF       1971<<ASSIGN
KV$LIN.UPDFLDCNT
      1126**DCL      1967>>IF       1969<<ASSIGN
KV$LIN.VRTLIN
      1125**DCL      1988>>ASSIGN   1992>>ASSIGN
KV$LINLST
      1149**DCL      1940--ASSIGN   1945--ASSIGN   2014--ASSIGN
KV$LINLST.LSTENTWRDX
      1149**DCL      2013>>IF
KV$PTR.INPCNDPND
      1528**DCL      1537--REDEF    1541--REDEF
KV$PTR.LINLST$
      1524**DCL      1525--REDEF    1906>>ASSIGN   2012>>ASSIGN
PL6.E3A0      #005=KVF$UPDFRM_HRDCPY File=KVF$TBLSCN.:E05TSI                     WED 07/30/97 02:01 Page:189
KV$PTR.SRD$
      1524**DCL      1905>>ASSIGN   1913>>ASSIGN   1917>>IF       2008>>ASSIGN
KV$PTR.VDI$
      1522**DCL      1919>>IF       1925>>IF
KV$PTR.VRTLIN
      1527**DCL      1918<<ASSIGN   1933<<ASSIGN   1933>>ASSIGN   1946<<ASSIGN   1988>>ASSIGN   1992<<ASSIGN
      2004<<ASSIGN   2004>>ASSIGN   2008>>ASSIGN   2015<<ASSIGN
KV$PTR$
      1516**DCL      1522--IMP-PTR  1905>>ASSIGN   1906>>ASSIGN   1913>>ASSIGN   1917>>IF       1918>>ASSIGN
      1919>>IF       1925>>IF       1933>>ASSIGN   1933>>ASSIGN   1946>>ASSIGN   1988>>ASSIGN   1992>>ASSIGN
      2004>>ASSIGN   2004>>ASSIGN   2008>>ASSIGN   2008>>ASSIGN   2012>>ASSIGN   2015>>ASSIGN
KV$SRD.BTMRHT
      1272**DCL      1277--REDEF
KV$SRD.CRT
      1348**DCL      1353--REDEF
KV$SRD.FLDEND
      1312**DCL      1317--REDEF
KV$SRD.FLDEND_PST
      1317**DCL      1905<<ASSIGN
KV$SRD.HI_NONBLN
      1382**DCL      1387--REDEF
KV$SRD.MINLNG
      1428**DCL      1917>>IF
KV$SRD.NXTNONBLNLIN
      1320**DCL      1913>>ASSIGN   2008<<ASSIGN
KV$SRD.ORG
      1204**DCL      1209--REDEF
KV$SRD.SRDEND
      1417**DCL      1422--REDEF
KV$SRD.TOPLFT
      1238**DCL      1243--REDEF
KV$VDH_PST.PSTVAL
       983**DCL       988--REDEF
KV$VDI.USRRQSDAT.RED
      1492**DCL      1919>>IF       1925>>IF
KV@VDH_OTPLCL
PL6.E3A0      #005=KVF$UPDFRM_HRDCPY File=KVF$TBLSCN.:E05TSI                     WED 07/30/97 02:01 Page:190
      1615**DCL      1901<<ASSIGN   1998<>CALL
KV@VDH_OTPLCL.BFR_.ADR$
      1648**DCL      1995<<ASSIGN
KV@VDH_OTPLCL.BFR_.BYTSIZ
      1648**DCL      1996<<ASSIGN
KV@VDH_OTPLCL.BFR_.BYTX
      1648**DCL      1997<<ASSIGN
KV@VDH_PST
      1752**DCL      1896<<ASSIGN   1994<>CALL
KV@VDH_PST.PSTVAL
      1790**DCL      1795--REDEF
KV@VDH_PST.PSTVAL.CLM
      1792**DCL      1993<<ASSIGN
KV@VDH_PST.PSTVAL.LIN
      1792**DCL      1988<<ASSIGN   1989>>IF       1990<<ASSIGN
KV@VDH_PST.VRTPSTMOD
      1758**DCL      1897<<ASSIGN
KVO$OTPLCL
      1576**DCL-ENT  1998--CALL
KVO$PST
      1575**DCL-ENT  1994--CALL
KV_VDH_OTPLCL
      1688**DCL      1901>>ASSIGN
KV_VDH_PST_NEWLIN_VRT
      1826**DCL      1896>>ASSIGN
KV_VDH_PST_NEWLIN_VRT.PSTVAL
      1864**DCL      1869--REDEF
PRM_LIN
      1565**DCL         7--PROC     2007--IF
PRM_LIN.FRMDSP
      1566**DCL      1924<<ASSIGN
PRM_LIN.VRTLIN
      1565**DCL      1908>>ASSIGN
Y@DSTLINX
      1888**DCL      1908<<ASSIGN   1919>>IF       1925>>IF       1927>>IF       1931>>ASSIGN
Y@FLD$
PL6.E3A0      #005=KVF$UPDFRM_HRDCPY File=KVF$TBLSCN.:E05TSI                     WED 07/30/97 02:01 Page:191
      1876**DCL      1978<<ASSIGN   1979>>IF       1983<<ASSIGN   1983>>ASSIGN   1984>>IF       1984>>IF
      1993>>ASSIGN   1995>>ASSIGN   1996>>ASSIGN   2000>>ASSIGN
Y@FLDWRDX
      1884**DCL      1888--REDEF    1956<<ASSIGN   1979>>IF       1983>>ASSIGN   2000<<ASSIGN   2000>>ASSIGN
Y@LIN$
      1880**DCL      1906<<ASSIGN   1960<<ASSIGN   1960>>ASSIGN   1967>>IF       1967>>IF       1969>>ASSIGN
      1971>>ASSIGN   1973>>IF       1978>>ASSIGN   1988>>ASSIGN   1992>>ASSIGN   2007>>IF       2012<<ASSIGN
      2013>>IF
Y@LINWRDX
      1892**DCL      1913<<ASSIGN   1917>>IF       1918>>ASSIGN   1919>>IF       1925>>IF       1927>>IF
      1931<<ASSIGN   1939<<ASSIGN   1939>>ASSIGN   1940<<ASSIGN   1940>>ASSIGN   1945<<ASSIGN   1960>>ASSIGN
      2011<<ASSIGN   2011>>ASSIGN   2013>>IF       2014<<ASSIGN

PL6.E3A0      #006=KVF$REDFRM File=KVF$TBLSCN.:E05TSI                            WED 07/30/97 02:01 Page:192
     1204        1        /*T***********************************************************/
     1205        2        /*T*                                                         */
     1206        3        /*T* Copyright (c) Bull HN Information Systems Inc., 1997    */
     1207        4        /*T*                                                         */
     1208        5        /*T***********************************************************/
     1209        6        /*X*     NSO,PLM=3,SQB=Y,AND=Y,ENI=0,SDI=3,MCL=10,CSI=0,ECI=0,IND=0,IAD=3 */
     1210        7        KVF$REDFRM: PROC;
     1211        8
     1212        9        /* The purpose of this routine is to read a form from a CRT type
     1213       10           device. This routine assumes that the form is allready present
     1214       11           on the device and that all that is basically necessary is to
     1215       12           position to the start of the input field indicated by KV$LINLST.ONEFLDLIN$
     1216       13           and KV$LINLST.ONEFLDWRDX and do the read.                       */
     1217       14
     1218       15 S      %INCLUDE KV$GLB;
     1219       16 S      %INCLUDE KV$GLBCTX;
     1220       17 S      %INCLUDE KV_GLBCNS_E;
     1221       18        %INCLUDE KV$INPFNC;
     1222      577 S      %INCLUDE KV$INT;
     1223      578 S      %INCLUDE KV$USR;
     1224      579 S      %INCLUDE KV$VDH;
     1225      580        %INCLUDE KV_GLB_M;
     1226      702        %INCLUDE KV_INT_M;
     1227      845
     1228      846    1   DCL KVI$RQSDAT ENTRY(1);
     1229      847    1   DCL KVV$CALUSR ENTRY(1) ALTRET;
     1230      848    1   DCL KVV$CALUSR_PST ENTRY ALTRET;
     1231      849
     1232      850        %KV$PTR;
     1233      893        %KV$FLD (STCLASS="BASED(Y@FLD$)");
     1234      981        %EQU KV_FLD=CHARTEXT('KV$FLD');
     1235      982        %KV$LIN;
     1236     1006        %KV$LINLST;
     1237     1033        %KV$MRD (NAME=Y@MRD);
     1238     1080        %EQU KV_MRD=CHARTEXT('KV$SRD.MRD$->Y@MRD');
     1239     1081        %KV$MVD;
     1240     1125        %KV$SRD (STCLASS="BASED(Y@SRD$)");
PL6.E3A0      #006=KVF$REDFRM File=KVF$TBLSCN.:E05TSI                            WED 07/30/97 02:01 Page:193
     1241     1400        %EQU KV_SRD=CHARTEXT('KV$SRD');
     1242     1401        %KV$STR;
     1243     1488        %KV$VDI;
     1244     1559        %KV_INPUNT_E;
     1245     1564        %KV_PHSPSTMOD_E;
     1246     1571
     1247     1572    1   DCL Y@SRD$ PTR;
     1248     1573    1   DCL Y@FLD$ PTR;
     1249     1574        %KV$USR_RQSDAT (NAME = KV@USR_RQSDAT, STCLASS = AUTO);
     1250     1637        %KV$USR_RQSDAT (NAME = KV_USR_RQSDAT, STCLASS = SYMREF READONLY);
     1251     1700        %KV$USR_SETATR (NAME = KV@USR_SETATR, STCLASS = AUTO);
     1252     1823        %KV$USR_SETATR (NAME = KV_USR_SETATR, STCLASS = SYMREF READONLY);
     1253     1946    1   DCL FRSWRD UBIN BASED ALIGNED;
     1254     1947
     1255     1948        /* Set up KV$PTR. */
     1256     1949
     1257     1950    1      KV$PTR.FLDWRDX = %KV_LINLST.ONEFLDWRDX;
     1258     1951    1      KV$PTR.LIN$ = %KV_LINLST.ONEFLDLIN$;
     1259     1952    1      KV$PTR.FLDLST$ = %KV_LIN.FLDLST$;
     1260     1953    1      KV$PTR.FLD$ = PINCRW(KV$PTR.FLDLST$,KV$PTR.FLDWRDX);
     1261     1954    1      Y@FLD$ = KV$PTR.FLD$;
     1262     1955    1      Y@SRD$ = KV$PTR.SRD$;
     1263     1956    1      KV$PTR.VRTLIN = %KV_LIN.VRTLIN;
     1264     1957    1      KV@USR_SETATR.PHSPST.LIN = KV$PTR.VRTLIN+%KV_SRD.ORG.LIN;
     1265     1958    2      IF %KV_FLD.ATRCLM~=0 AND (%KV_MRD.DCLATRWHNOTP OR %KV_FLD.UPD.ATR) THEN DO;
     1266     1959    2         %KV_STR.GRPRND = %KV_FLD.GRPRND;
     1267     1960    2         IF %KV_MRD.DCLATRWHNOTP
     1268     1961    2           AND BITBIN(%KV_FLD.GRPRND)=BITBIN(%KV_MRD.DVCATR) THEN EXIT;
     1269     1962
     1270     1963        /* If we've never set the attribute here . Or ..                             */
     1271     1964
     1272     1965        /* Since this device works that way,  enter the proper screen mode            */
     1273     1966
     1274     1967    2         ADDR(KV@USR_SETATR)->FRSWRD = ADDR(KV_USR_SETATR)->FRSWRD;
     1275     1968    2         KV@USR_SETATR.PHSPST.CLM = %KV_FLD.ATRCLM+%KV_SRD.ORG.CLM;
     1276     1969    2         %KV_FLD.UPD.ATR = '0'B;
     1277     1970    2         KV@USR_SETATR.GRPRND = %KV_FLD.GRPRND;
PL6.E3A0      #006=KVF$REDFRM File=KVF$TBLSCN.:E05TSI                            WED 07/30/97 02:01 Page:194
     1278     1971    2         KV@USR_SETATR.QLF = %KV_FLD.QLF;
     1279     1972    2         CALL KVV$CALUSR (KV@USR_SETATR);
     1280     1973    2      END; /* IF */
     1281     1974    1      ELSE IF %KV_VDI.OTPCNDPND.PST=%KV_PHSPSTMOD_BLN
     1282     1975    1      THEN CALL KVV$CALUSR_PST;
     1283     1976
     1284     1977        /* Setup the SRD structure to get to start of field                      */
     1285     1978
     1286     1979    1      KV@USR_SETATR.PHSPST.CLM = %KV_FLD.VRTCLM+%KV_SRD.ORG.CLM;
     1287     1980    1      IF %KV_MRD.ATRRQRDSPPST
     1288     1981    1      THEN KV@USR_SETATR.PHSPST.CLM = KV@USR_SETATR.PHSPST.CLM+1;
     1289     1982    1      IF NOT %KV_MVD.RETYPOVR
     1290     1983    1      THEN KV@USR_SETATR.PHSPST.LIN = %KV_SRD.CRT.LIN;
     1291     1984    2      ELSE DO;
     1292     1985    2         %KV_SRD.HI_NONBLN.LIN = KV@USR_SETATR.PHSPST.LIN;
     1293     1986    2         %KV_SRD.FLDEND.LIN = KV@USR_SETATR.PHSPST.LIN;
     1294     1987    2         %KV_SRD.HI_NONBLN.CLM = %KV_FLD.HI_NONBLNCLM+%KV_SRD.ORG.CLM;
     1295     1988    2         IF %KV_MRD.SMLHDNATR AND %KV_FLD.GRPRND.HDN
     1296     1989    2         THEN %KV_MVD.DISPINPUT = '0'B;
     1297     1990    2         ELSE %KV_MVD.DISPINPUT = '1'B;
     1298     1991    2      END; /* IF */
     1299     1992    2      IF KV@USR_SETATR.PHSPST_PST~=%KV_SRD.CRT_PST THEN DO;
     1300     1993    2         %KV_SRD.CRT_PST = KV@USR_SETATR.PHSPST_PST;
     1301     1994    2         %KV_VDI.OTPCNDPND.PST = %KV_PHSPSTMOD_SKP;
     1302     1995    2      END;
     1303     1996    1      %KV_MVD.VRTCLM = %KV_SRD.CRT.CLM;
     1304     1997    1      %KV_SRD.FLDEND.CLM = %KV_SRD.CRT.CLM+%KV_FLD.WDT-1;
     1305     1998    1      %KV_SRD.CRTVRTLINPHSLIN = %KV_SRD.CRT.LIN;
     1306     1999
     1307     2000    1      %KV_SRD.VRTPSTOK = '1'B;
     1308     2001    1      %KV_SRD.HI_NONBLNVRT = '1'B;
     1309     2002
     1310     2003        /* Do the read                                                                */
     1311     2004
     1312     2005    1      KV@USR_RQSDAT = KV_USR_RQSDAT;
     1313     2006    1      KV@USR_RQSDAT.BFR_.ADR$ = KV$PTR.FLD$;
     1314     2007    1      KV@USR_RQSDAT.BFR_.BYTX = LENGTHC(KV$FLD) - 1;
PL6.E3A0      #006=KVF$REDFRM File=KVF$TBLSCN.:E05TSI                            WED 07/30/97 02:01 Page:195
     1315     2008    1      KV@USR_RQSDAT.MAXRCRBYTSIZ = %KV_FLD.WDT;
     1316     2009    1      KV@USR_RQSDAT.BFR_.BYTSIZ = %KV_FLD.TXTSIZ;
     1317     2010    1      KV@USR_RQSDAT.RE_RED = '1'B;
     1318     2011    1      CALL KVI$RQSDAT(KV@USR_RQSDAT) ;
     1319     2012    1      RETURN;
     1320     2013    1   END; /* SUBROUTINE */

PL6.E3A0      #006=KVF$REDFRM File=KVF$TBLSCN.:E05TSI                            WED 07/30/97 02:01 Page:196
--  Include file information  --

   KV_INT_M.:E05TOU  is referenced.
   KV_GLB_M.:E05TOU  is referenced.
   KV$INPFNC.:E05TOU  is referenced.
   KV_PRMID_E.:E05TOU  was found in the system file and is never referenced.
   KV_GLBCNS_E.:E05TOU  was found in the system file and is referenced.
   KV$VDO.:E05TOU  was found in the system file and is never referenced.
   KV$VDH.:E05TOU  was found in the system file and is referenced.
   KV$USR.:E05TOU  was found in the system file and is referenced.
   KV$SND.:E05TOU  was found in the system file and is never referenced.
   KV$INT.:E05TOU  was found in the system file and is referenced.
   KV$GLBCTX.:E05TOU  was found in the system file and is referenced.
   KV$GLB.:E05TOU  was found in the system file and is referenced.
   G_LCP6_E.:E05TOU  was found in the system file and is never referenced.
   GT_LCP6_M.:E05TOU  was found in the system file and is never referenced.
   KI_CP6.:E05TOU  was found in the system file and is never referenced.
   GF_LCP6_M.:E05TOU  was found in the system file and is never referenced.
   GM_LCP6_M.:E05TOU  was found in the system file and is never referenced.
   GU_LCP6_M.:E05TOU  was found in the system file and is never referenced.
   GJ_LCP6_M.:E05TOU  was found in the system file and is never referenced.
   GH_LCP6_M.:E05TOU  was found in the system file and is never referenced.
      No diagnostics issued in procedure KVF$REDFRM.

   Procedure KVF$REDFRM requires 285 words for executable code.
   Procedure KVF$REDFRM requires 20 words of local(AUTO) storage.

    No errors detected in file KVF$TBLSCN.:E05TSI    .

PL6.E3A0      #006=KVF$REDFRM File=KVF$TBLSCN.:E05TSI                            WED 07/30/97 02:01 Page:197

 Object Unit name= KVF$REDFRM                                 File name= KVF$TBLSCN.:E05TOU
 UTS= JUL 30 '97 02:01:41.92 WED                              Compiler= PL-6/E31         Sev=      00
 SharedLib= :SHARED_LCP6_SYSTEM                               Alt SharedLib=


    ****  Control sections  ****

 Sect   Type Bound  Init  Size HexSiz  Section name
    0   Proc  even  none   285    11D  KVF$REDFRM

    ****  Entry defs  ****

                              Check   Calling
                             calling  sequence
  Sect HexLoc Primary Altret sequence   type   Parms  Name
     0      0   yes            yes      Std        0  KVF$REDFRM

  ****  Entry refs  ****

         Check        Calling
        calling       sequence
Altret sequence SRef   type   Args  Name
 yes     yes           Std       1 KVV$CALUSR
 yes     yes           Std       0 KVV$CALUSR_PST
         yes           Std       1 KVI$RQSDAT
                       nStd      0 X6A_AUTO_0
                       nStd      0 X6A_ARET

  ****  Data refs  ****

  Flags:  r = read only, s = secondary
Flgs Name                             Flgs Name                             Flgs Name
     KV$PTR$                          r    KV_USR_RQSDAT                    r    KV_USR_SETATR
r    G$ROS$
PL6.E3A0      #006=KVF$REDFRM File=KVF$TBLSCN.:E05TSI                            WED 07/30/97 02:01 Page:198


     1204        1        /*T***********************************************************/
     1205        2        /*T*                                                         */
     1206        3        /*T* Copyright (c) Bull HN Information Systems Inc., 1997    */
     1207        4        /*T*                                                         */
     1208        5        /*T***********************************************************/
     1209        6        /*X*     NSO,PLM=3,SQB=Y,AND=Y,ENI=0,SDI=3,MCL=10,CSI=0,ECI=0,IND=0,IAD=3 */
     1210        7        KVF$REDFRM: PROC;

      7   0 000000  D380 0000 0000  xent KVF$REDFRM      LNJ,B5   X6A_AUTO_0
          0 000003       0014 0000                       DC       20,0

     1211        8
     1212        9        /* The purpose of this routine is to read a form from a CRT type
     1213       10           device. This routine assumes that the form is allready present
     1214       11           on the device and that all that is basically necessary is to
     1215       12           position to the start of the input field indicated by KV$LINLST.ONEFLDLIN$
     1216       13           and KV$LINLST.ONEFLDWRDX and do the read.                       */
     1217       14
     1218       15 S      %INCLUDE KV$GLB;
     1219       16 S      %INCLUDE KV$GLBCTX;
     1220       17 S      %INCLUDE KV_GLBCNS_E;
     1221       18        %INCLUDE KV$INPFNC;
     1222      577 S      %INCLUDE KV$INT;
     1223      578 S      %INCLUDE KV$USR;
     1224      579 S      %INCLUDE KV$VDH;
     1225      580        %INCLUDE KV_GLB_M;
     1226      702        %INCLUDE KV_INT_M;
     1227      845
     1228      846    1   DCL KVI$RQSDAT ENTRY(1);
     1229      847    1   DCL KVV$CALUSR ENTRY(1) ALTRET;
     1230      848    1   DCL KVV$CALUSR_PST ENTRY ALTRET;
     1231      849
     1232      850        %KV$PTR;
     1233      893        %KV$FLD (STCLASS="BASED(Y@FLD$)");
     1234      981        %EQU KV_FLD=CHARTEXT('KV$FLD');
     1235      982        %KV$LIN;
PL6.E3A0      #006=KVF$REDFRM File=KVF$TBLSCN.:E05TSI                            WED 07/30/97 02:01 Page:199
     1236     1006        %KV$LINLST;
     1237     1033        %KV$MRD (NAME=Y@MRD);
     1238     1080        %EQU KV_MRD=CHARTEXT('KV$SRD.MRD$->Y@MRD');
     1239     1081        %KV$MVD;
     1240     1125        %KV$SRD (STCLASS="BASED(Y@SRD$)");
     1241     1400        %EQU KV_SRD=CHARTEXT('KV$SRD');
     1242     1401        %KV$STR;
     1243     1488        %KV$VDI;
     1244     1559        %KV_INPUNT_E;
     1245     1564        %KV_PHSPSTMOD_E;
     1246     1571
     1247     1572    1   DCL Y@SRD$ PTR;
     1248     1573    1   DCL Y@FLD$ PTR;
     1249     1574        %KV$USR_RQSDAT (NAME = KV@USR_RQSDAT, STCLASS = AUTO);
     1250     1637        %KV$USR_RQSDAT (NAME = KV_USR_RQSDAT, STCLASS = SYMREF READONLY);
     1251     1700        %KV$USR_SETATR (NAME = KV@USR_SETATR, STCLASS = AUTO);
     1252     1823        %KV$USR_SETATR (NAME = KV_USR_SETATR, STCLASS = SYMREF READONLY);
     1253     1946    1   DCL FRSWRD UBIN BASED ALIGNED;
     1254     1947
     1255     1948        /* Set up KV$PTR. */
     1256     1949
     1257     1950    1      KV$PTR.FLDWRDX = %KV_LINLST.ONEFLDWRDX;

   1950   0 000005  EC80 0000 0000  xsym                 LDB,B6   KV$PTR$
          0 000008  DCC6 000E                            LDB,B5   14,B6
          0 00000A  E845 0004                            LDR,R6   4,B5
          0 00000C  EF46 0018                            STR,R6   24,B6

     1258     1951    1      KV$PTR.LIN$ = %KV_LINLST.ONEFLDLIN$;

   1951   0 00000E  CCC5 0002                            LDB,B4   2,B5
          0 000010  CFC6 0010                            STB,B4   16,B6

     1259     1952    1      KV$PTR.FLDLST$ = %KV_LIN.FLDLST$;

   1952   0 000012  BC84                                 LDB,B3   ,B4
          0 000013  BFC6 0012                            STB,B3   18,B6
PL6.E3A0      #006=KVF$REDFRM File=KVF$TBLSCN.:E05TSI                            WED 07/30/97 02:01 Page:200

     1260     1953    1      KV$PTR.FLD$ = PINCRW(KV$PTR.FLDLST$,KV$PTR.FLDWRDX);

   1953   0 000015  B856                                 LDR,R3   R6
          0 000016  ABB3                                 LAB,B2   ,B3,R3
          0 000017  AFC6 0014                            STB,B2   20,B6

     1261     1954    1      Y@FLD$ = KV$PTR.FLD$;

   1954   0 000019  AFC7 0006                            STB,B2   Y@FLD$,AUTO

     1262     1955    1      Y@SRD$ = KV$PTR.SRD$;

   1955   0 00001B  9CC6 000A                            LDB,B1   10,B6
          0 00001D  9FC7 0004                            STB,B1   Y@SRD$,AUTO

     1263     1956    1      KV$PTR.VRTLIN = %KV_LIN.VRTLIN;

   1956   0 00001F  D844 0002                            LDR,R5   2,B4
          0 000021  DF46 0019                            STR,R5   25,B6

     1264     1957    1      KV@USR_SETATR.PHSPST.LIN = KV$PTR.VRTLIN+%KV_SRD.ORG.LIN;

   1957   0 000023  DA41 0007                            ADD,R5   7,B1
          0 000025  DF47 000F                            STR,R5   KV@USR_SETATR+1,AUTO

     1265     1958    2      IF %KV_FLD.ATRCLM~=0 AND (%KV_MRD.DCLATRWHNOTP OR %KV_FLD.UPD.ATR) THEN DO;

   1958   0 000027  C2C2 0005                            LLH,R4   5,B2
          0 000029  4901 004A                            BEZ,R4   s:1974,PREL
          0 00002B  DC81                                 LDB,B5   ,B1
          0 00002C  82C5 0018                            LB,'0200'X        24,B5
          0 00002E       0200
          0 00002F  0501 0006                            BBT      s:1959,PREL
          0 000031  82C2 0002                            LB,'0080'X        2,B2
          0 000033       0080
          0 000034  0581 003F                            BBF      s:1974,PREL
PL6.E3A0      #006=KVF$REDFRM File=KVF$TBLSCN.:E05TSI                            WED 07/30/97 02:01 Page:201

     1266     1959    2         %KV_STR.GRPRND = %KV_FLD.GRPRND;

   1959   0 000036  DCC6 0004                            LDB,B5   4,B6
          0 000038  A842 0003                            LDR,R2   3,B2
          0 00003A  2008                                 SOL,R2   8
          0 00003B  2048                                 SOR,R2   8
          0 00003C  A7C5 001F                            STH,R2   31,B5

     1267     1960    2         IF %KV_MRD.DCLATRWHNOTP

   1960   0 00003E  DC81                                 LDB,B5   ,B1
          0 00003F  82C5 0018                            LB,'0200'X        24,B5
          0 000041       0200
          0 000042  0581 000A                            BBF      s:1967,PREL
          0 000044  C842 0003                            LDR,R4   3,B2
          0 000046  C570 00FF                            AND,R4   255,IMO
          0 000048  A2C5 001F                            LLH,R2   31,B5
          0 00004A  C952                                 CMR,R4   R2
          0 00004B  0901 0026                            BE       s:1973,PREL

     1268     1961    2           AND BITBIN(%KV_FLD.GRPRND)=BITBIN(%KV_MRD.DVCATR) THEN EXIT;
     1269     1962
     1270     1963        /* If we've never set the attribute here . Or ..                             */
     1271     1964
     1272     1965        /* Since this device works that way,  enter the proper screen mode            */
     1273     1966
     1274     1967    2         ADDR(KV@USR_SETATR)->FRSWRD = ADDR(KV_USR_SETATR)->FRSWRD;

   1967   0 00004D  C800 0000 0000  xsym                 LDR,R4   KV_USR_SETATR
          0 000050  CF47 000E                            STR,R4   KV@USR_SETATR,AUTO

     1275     1968    2         KV@USR_SETATR.PHSPST.CLM = %KV_FLD.ATRCLM+%KV_SRD.ORG.CLM;

   1968   0 000052  A2C2 0005                            LLH,R2   5,B2
          0 000054  AA41 0008                            ADD,R2   8,B1
          0 000056  AF47 0010                            STR,R2   KV@USR_SETATR+2,AUTO
PL6.E3A0      #006=KVF$REDFRM File=KVF$TBLSCN.:E05TSI                            WED 07/30/97 02:01 Page:202

     1276     1969    2         %KV_FLD.UPD.ATR = '0'B;

   1969   0 000058  8842 0002                            LBF,'0080'X       2,B2
   1969   0 00005A       0080

     1277     1970    2         KV@USR_SETATR.GRPRND = %KV_FLD.GRPRND;

   1970   0 00005B  D842 0003                            LDR,R5   3,B2
          0 00005D  DAC7 0011                            SRM,R5,'00FF'X    KV@USR_SETATR+3,AUTO
          0 00005F       00FF

     1278     1971    2         KV@USR_SETATR.QLF = %KV_FLD.QLF;

   1971   0 000060  D2C2 0003                            LLH,R5   3,B2
          0 000062  5008                                 SOL,R5   8
          0 000063  5048                                 SOR,R5   8
          0 000064  D7C7 0011                            STH,R5   KV@USR_SETATR+3,AUTO

     1279     1972    2         CALL KVV$CALUSR (KV@USR_SETATR);

   1972   0 000066  DBC7 000E                            LAB,B5   KV@USR_SETATR,AUTO
          0 000068  DFC7 0012                            STB,B5   KV@USR_SETATR+4,AUTO
          0 00006A  BBC7 0012                            LAB,B3   KV@USR_SETATR+4,AUTO
          0 00006C  CBF0 0100                            LAB,B4   256,IMO
          0 00006E  E380 0000 0000  xent                 LNJ,B6   KVV$CALUSR
          0 000071       0001                            DC       s:1973,PREL

     1280     1973    2      END; /* IF */

   1973   0 000072  0F81 000D                            B        s:1979,PREL

     1281     1974    1      ELSE IF %KV_VDI.OTPCNDPND.PST=%KV_PHSPSTMOD_BLN

   1974   0 000074  DC86                                 LDB,B5   ,B6
          0 000075  A845 001A                            LDR,R2   26,B5
          0 000077  2D02                                 CMV,R2   2
PL6.E3A0      #006=KVF$REDFRM File=KVF$TBLSCN.:E05TSI                            WED 07/30/97 02:01 Page:203
          0 000078  0981 0007                            BNE      s:1979,PREL

     1282     1975    1      THEN CALL KVV$CALUSR_PST;

   1975   0 00007A  CBF0 0000                            LAB,B4   0,IMO
          0 00007C  E380 0000 0000  xent                 LNJ,B6   KVV$CALUSR_PST
          0 00007F       0001                            DC       s:1979,PREL

     1283     1976
     1284     1977        /* Setup the SRD structure to get to start of field                      */
     1285     1978
     1286     1979    1      KV@USR_SETATR.PHSPST.CLM = %KV_FLD.VRTCLM+%KV_SRD.ORG.CLM;

   1979   0 000080  ECC7 0004                            LDB,B6   Y@SRD$,AUTO
          0 000082  DCC7 0006                            LDB,B5   Y@FLD$,AUTO
          0 000084  E2C5 0002                            LLH,R6   2,B5
          0 000086  EA46 0008                            ADD,R6   8,B6
          0 000088  EF47 0010                            STR,R6   KV@USR_SETATR+2,AUTO

     1287     1980    1      IF %KV_MRD.ATRRQRDSPPST

   1980   0 00008A  CC86                                 LDB,B4   ,B6
          0 00008B  89C4 0018                            CMZ      24,B4
          0 00008D  0881 0003                            BAGE     s:1982,PREL

     1288     1981    1      THEN KV@USR_SETATR.PHSPST.CLM = KV@USR_SETATR.PHSPST.CLM+1;

   1981   0 00008F  8AC7 0010                            INC      KV@USR_SETATR+2,AUTO

     1289     1982    1      IF NOT %KV_MVD.RETYPOVR

   1982   0 000091  CC80 0000 0000  xsym                 LDB,B4   KV$PTR$
          0 000094  BCC4 0006                            LDB,B3   6,B4
          0 000096  82C3 0016                            LB,'0080'X        22,B3
          0 000098       0080
          0 000099  0501 0007                            BBT      s:1985,PREL

PL6.E3A0      #006=KVF$REDFRM File=KVF$TBLSCN.:E05TSI                            WED 07/30/97 02:01 Page:204
     1290     1983    1      THEN KV@USR_SETATR.PHSPST.LIN = %KV_SRD.CRT.LIN;

   1983   0 00009B  E846 0015                            LDR,R6   21,B6
          0 00009D  EF47 000F                            STR,R6   KV@USR_SETATR+1,AUTO
          0 00009F  0F81 0026                            B        s:1992,PREL

     1291     1984    2      ELSE DO;

     1292     1985    2         %KV_SRD.HI_NONBLN.LIN = KV@USR_SETATR.PHSPST.LIN;

   1985   0 0000A1  E847 000F                            LDR,R6   KV@USR_SETATR+1,AUTO
          0 0000A3  EF46 0017                            STR,R6   23,B6

     1293     1986    2         %KV_SRD.FLDEND.LIN = KV@USR_SETATR.PHSPST.LIN;

   1986   0 0000A5  EF46 0010                            STR,R6   16,B6

     1294     1987    2         %KV_SRD.HI_NONBLN.CLM = %KV_FLD.HI_NONBLNCLM+%KV_SRD.ORG.CLM;

   1987   0 0000A7  D845 0004                            LDR,R5   4,B5
          0 0000A9  D570 00FF                            AND,R5   255,IMO
          0 0000AB  DA46 0008                            ADD,R5   8,B6
          0 0000AD  DF46 0018                            STR,R5   24,B6

     1295     1988    2         IF %KV_MRD.SMLHDNATR AND %KV_FLD.GRPRND.HDN

   1988   0 0000AF  BC86                                 LDB,B3   ,B6
          0 0000B0  82C3 0016                            LB,'0040'X        22,B3
          0 0000B2       0040
          0 0000B3  0581 000D                            BBF      s:1990,PREL
          0 0000B5  82C5 0003                            LB,'0040'X        3,B5
          0 0000B7       0040
          0 0000B8  0581 0008                            BBF      s:1990,PREL

     1296     1989    2         THEN %KV_MVD.DISPINPUT = '0'B;

   1989   0 0000BA  ACC4 0006                            LDB,B2   6,B4
PL6.E3A0      #006=KVF$REDFRM File=KVF$TBLSCN.:E05TSI                            WED 07/30/97 02:01 Page:205
          0 0000BC  8842 0015                            LBF,'0080'X       21,B2
          0 0000BE       0080
          0 0000BF  0F81 0006                            B        s:1992,PREL

     1297     1990    2         ELSE %KV_MVD.DISPINPUT = '1'B;

   1990   0 0000C1  ACC4 0006                            LDB,B2   6,B4
          0 0000C3  8942 0015                            LBT,'0080'X       21,B2
          0 0000C5       0080

     1298     1991    2      END; /* IF */

     1299     1992    2      IF KV@USR_SETATR.PHSPST_PST~=%KV_SRD.CRT_PST THEN DO;

   1992   0 0000C6  8CC7 000F                            LDI      KV@USR_SETATR+1,AUTO
          0 0000C8  84C6 0015                            SID      21,B6
          0 0000CA  6981 0003                            BNEZ,R6  s:1993,PREL
          0 0000CC  7901 0009                            BEZ,R7   s:1996,PREL

     1300     1993    2         %KV_SRD.CRT_PST = KV@USR_SETATR.PHSPST_PST;

   1993   0 0000CE  8CC7 000F                            LDI      KV@USR_SETATR+1,AUTO
          0 0000D0  8D46 0015                            SDI      21,B6

     1301     1994    2         %KV_VDI.OTPCNDPND.PST = %KV_PHSPSTMOD_SKP;

   1994   0 0000D2  BC84                                 LDB,B3   ,B4
          0 0000D3  5C01                                 LDV,R5   1
          0 0000D4  DF43 001A                            STR,R5   26,B3

     1302     1995    2      END;

     1303     1996    1      %KV_MVD.VRTCLM = %KV_SRD.CRT.CLM;

   1996   0 0000D6  BCC4 0006                            LDB,B3   6,B4
          0 0000D8  E846 0016                            LDR,R6   22,B6
          0 0000DA  EF43 001B                            STR,R6   27,B3
PL6.E3A0      #006=KVF$REDFRM File=KVF$TBLSCN.:E05TSI                            WED 07/30/97 02:01 Page:206

     1304     1997    1      %KV_SRD.FLDEND.CLM = %KV_SRD.CRT.CLM+%KV_FLD.WDT-1;

   1997   0 0000DC  E2C5 0004                            LLH,R6   4,B5
          0 0000DE  EA46 0016                            ADD,R6   22,B6
          0 0000E0  6EFF                                 ADV,R6   -1
          0 0000E1  EF46 0011                            STR,R6   17,B6

     1305     1998    1      %KV_SRD.CRTVRTLINPHSLIN = %KV_SRD.CRT.LIN;

   1998   0 0000E3  D846 0015                            LDR,R5   21,B6
          0 0000E5  DF46 0013                            STR,R5   19,B6

     1306     1999
     1307     2000    1      %KV_SRD.VRTPSTOK = '1'B;

   2000   0 0000E7  8946 000E                            LBT,'0010'X       14,B6
   2000   0 0000E9       0010

     1308     2001    1      %KV_SRD.HI_NONBLNVRT = '1'B;

   2001   0 0000EA  8946 000E                            LBT,'0002'X       14,B6
   2001   0 0000EC       0002

     1309     2002
     1310     2003        /* Do the read                                                                */
     1311     2004
     1312     2005    1      KV@USR_RQSDAT = KV_USR_RQSDAT;

   2005   0 0000ED  AB80 0000 0000  xsym                 LAB,B2   KV_USR_RQSDAT
          0 0000F0  2C00                                 LDV,R2   0
          0 0000F1  6C0C                                 LDV,R6   12
          0 0000F2  BB87                                 LAB,B3   ,AUTO
          0 0000F3  3C10                                 LDV,R3   16
          0 0000F4  0008                                 MMM

     1313     2006    1      KV@USR_RQSDAT.BFR_.ADR$ = KV$PTR.FLD$;
PL6.E3A0      #006=KVF$REDFRM File=KVF$TBLSCN.:E05TSI                            WED 07/30/97 02:01 Page:207

   2006   0 0000F5  EC80 0000 0000  xsym                 LDB,B6   KV$PTR$
          0 0000F8  DCC6 0014                            LDB,B5   20,B6
          0 0000FA  DFC7 0009                            STB,B5   KV@USR_RQSDAT+1,AUTO

     1314     2007    1      KV@USR_RQSDAT.BFR_.BYTX = LENGTHC(KV$FLD) - 1;

   2007   0 0000FC  6C0C                                 LDV,R6   12
          0 0000FD  EF47 000B                            STR,R6   KV@USR_RQSDAT+3,AUTO

     1315     2008    1      KV@USR_RQSDAT.MAXRCRBYTSIZ = %KV_FLD.WDT;

   2008   0 0000FF  CCC7 0006                            LDB,B4   Y@FLD$,AUTO
          0 000101  D2C4 0004                            LLH,R5   4,B4
          0 000103  DF47 000D                            STR,R5   KV@USR_RQSDAT+5,AUTO

     1316     2009    1      KV@USR_RQSDAT.BFR_.BYTSIZ = %KV_FLD.TXTSIZ;

   2009   0 000105  C844 0005                            LDR,R4   5,B4
          0 000107  C570 00FF                            AND,R4   255,IMO
          0 000109  CF47 000C                            STR,R4   KV@USR_RQSDAT+4,AUTO

     1317     2010    1      KV@USR_RQSDAT.RE_RED = '1'B;

   2010   0 00010B  8947 0008                            LBT,'0080'X       KV@USR_RQSDAT,AUTO
   2010   0 00010D       0080

     1318     2011    1      CALL KVI$RQSDAT(KV@USR_RQSDAT) ;

   2011   0 00010E  ABC7 0008                            LAB,B2   KV@USR_RQSDAT,AUTO
          0 000110  AFC7 0012                            STB,B2   KV@USR_SETATR+4,AUTO
          0 000112  BBC7 0012                            LAB,B3   KV@USR_SETATR+4,AUTO
          0 000114  CBF0 0100                            LAB,B4   256,IMO
          0 000116  E380 0000 0000  xent                 LNJ,B6   KVI$RQSDAT
          0 000119       0001                            DC       s:2012,PREL

     1319     2012    1      RETURN;
PL6.E3A0      #006=KVF$REDFRM File=KVF$TBLSCN.:E05TSI                            WED 07/30/97 02:01 Page:208

   2012   0 00011A  C380 0000 0000  xent                 LNJ,B4   X6A_ARET
     1320     2013    1   END; /* SUBROUTINE */

PL6.E3A0      #006=KVF$REDFRM File=KVF$TBLSCN.:E05TSI                            WED 07/30/97 02:01 Page:209
--  Include file information  --

   KV_INT_M.:E05TOU  is referenced.
   KV_GLB_M.:E05TOU  is referenced.
   KV$INPFNC.:E05TOU  is referenced.
   KV_PRMID_E.:E05TOU  was found in the system file and is never referenced.
   KV_GLBCNS_E.:E05TOU  was found in the system file and is referenced.
   KV$VDO.:E05TOU  was found in the system file and is never referenced.
   KV$VDH.:E05TOU  was found in the system file and is referenced.
   KV$USR.:E05TOU  was found in the system file and is referenced.
   KV$SND.:E05TOU  was found in the system file and is never referenced.
   KV$INT.:E05TOU  was found in the system file and is referenced.
   KV$GLBCTX.:E05TOU  was found in the system file and is referenced.
   KV$GLB.:E05TOU  was found in the system file and is referenced.
   G_LCP6_E.:E05TOU  was found in the system file and is never referenced.
   GT_LCP6_M.:E05TOU  was found in the system file and is never referenced.
   KI_CP6.:E05TOU  was found in the system file and is never referenced.
   GF_LCP6_M.:E05TOU  was found in the system file and is never referenced.
   GM_LCP6_M.:E05TOU  was found in the system file and is never referenced.
   GU_LCP6_M.:E05TOU  was found in the system file and is never referenced.
   GJ_LCP6_M.:E05TOU  was found in the system file and is never referenced.
   GH_LCP6_M.:E05TOU  was found in the system file and is never referenced.
      No diagnostics issued in procedure KVF$REDFRM.
PL6.E3A0      #006=KVF$REDFRM File=KVF$TBLSCN.:E05TSI                            WED 07/30/97 02:01 Page:210

 **** Variables and constants ****

  ****  Auto variables  ****

  ****  Scalars and arrays  ****
HexLoc.c.b A Datatyp(siz) R M Lvl/name                 HexLoc.c.b A Datatyp(siz) R M Lvl/name

     8-0-0/w STRC(96)    r     1 KV@USR_RQSDAT              E-0-0/w STRC(64)    r     1 KV@USR_SETATR
     6-0-0/w PTR         r     1 Y@FLD$                     4-0-0/w PTR         r     1 Y@SRD$

  ****  SYMREF variables  ****

  ****  Scalars and arrays  ****
HexLoc.c.b A Datatyp(siz) R M Lvl/name                 HexLoc.c.b A Datatyp(siz) R M Lvl/name

     0-0-0/w PTR         r     1 KV$PTR$                    0-0-0/w STRC(96)    r     1 KV_USR_RQSDAT
     0-0-0/w STRC(64)    r     1 KV_USR_SETATR

  ****  BASED and DCB variables  ****

  ****  Scalars and arrays  ****
HexLoc.c.b A Datatyp(siz) R M Lvl/name                 HexLoc.c.b A Datatyp(siz) R M Lvl/name

     0-0-0/w UBIN(16)    r     1 FRSWRD                     0-0-0/w STRC(104)   r     1 KV$FLD
     0-0-0/w STRC(64)    r     1 KV$LIN                     0-0-0/w STRC(128)   r     1 KV$LINLST
     0-0-0/w STRC(512)   r     1 KV$MVD                     0-0-0/w STRC(480)   r     1 KV$PTR
     0-0-0/w STRC(496)   r     1 KV$SRD                     0-0-0/w STRC(512)   r     1 KV$STR
     0-0-0/w STRC(512)   r     1 KV$VDI                     0-0-0/w STRC(512)   r     1 Y@MRD


   Procedure KVF$REDFRM requires 285 words for executable code.
   Procedure KVF$REDFRM requires 20 words of local(AUTO) storage.

    No errors detected in file KVF$TBLSCN.:E05TSI    .
PL6.E3A0      #006=KVF$REDFRM File=KVF$TBLSCN.:E05TSI                            WED 07/30/97 02:01 Page:211
          *** CROSS REFERENCE LISTING ***
**     DENOTES     IDENTIFIER DEFINITION
<<                 IDENTIFIER'S VALUE SET
>>                 IDENTIFIER'S VALUE USED
<>                 IDENTIFIER SET AND/OR USED
--                 IDENTIFIER REFERENCED
PL6.E3A0      #006=KVF$REDFRM File=KVF$TBLSCN.:E05TSI                            WED 07/30/97 02:01 Page:212
          MINI XREF LISTING

FRSWRD
      1946**DCL      1967<<ASSIGN   1967>>ASSIGN
KV$FLD
       914**DCL      2007--ASSIGN
KV$FLD.ATRCLM
       973**DCL      1958>>IF       1968>>ASSIGN
KV$FLD.GRPRND
       967**DCL      1959>>ASSIGN   1960>>IF       1970>>ASSIGN
KV$FLD.GRPRND.HDN
       969**DCL      1988>>IF
KV$FLD.HI_NONBLNCLM
       973**DCL      1987>>ASSIGN
KV$FLD.QLF
       939**DCL      1971>>ASSIGN
KV$FLD.TXTSIZ
       973**DCL      2009>>ASSIGN
KV$FLD.UPD.ATR
       915**DCL      1958>>IF       1969<<ASSIGN
KV$FLD.VRTCLM
       915**DCL      1979>>ASSIGN
KV$FLD.WDT
       973**DCL      1997>>ASSIGN   2008>>ASSIGN
KV$LIN.FLDLST$
      1003**DCL      1952>>ASSIGN
KV$LIN.VRTLIN
      1003**DCL      1956>>ASSIGN
KV$LINLST.ONEFLDLIN$
      1028**DCL      1951>>ASSIGN
KV$LINLST.ONEFLDWRDX
      1028**DCL      1950>>ASSIGN
KV$MVD.DISPINPUT
      1108**DCL      1989<<ASSIGN   1990<<ASSIGN
PL6.E3A0      #006=KVF$REDFRM File=KVF$TBLSCN.:E05TSI                            WED 07/30/97 02:01 Page:213
KV$MVD.RETYPOVR
      1111**DCL      1982>>IF
KV$MVD.VRTCLM
      1120**DCL      1996<<ASSIGN
KV$PTR.FLD$
       875**DCL      1953<<ASSIGN   1954>>ASSIGN   2006>>ASSIGN
KV$PTR.FLDLST$
       874**DCL      1952<<ASSIGN   1953>>ASSIGN
KV$PTR.FLDWRDX
       875**DCL      1950<<ASSIGN   1953>>ASSIGN
KV$PTR.INPCNDPND
       877**DCL       886--REDEF     890--REDEF
KV$PTR.LIN$
       874**DCL      1951<<ASSIGN   1952>>ASSIGN   1956>>ASSIGN
KV$PTR.LINLST$
       873**DCL       874--REDEF    1950>>ASSIGN   1951>>ASSIGN
KV$PTR.MVD$
       872**DCL      1982>>IF       1989>>ASSIGN   1990>>ASSIGN   1996>>ASSIGN
KV$PTR.SRD$
       873**DCL      1955>>ASSIGN
KV$PTR.STR$
       871**DCL      1959>>ASSIGN
KV$PTR.VDI$
       871**DCL      1974>>IF       1994>>ASSIGN
KV$PTR.VRTLIN
       876**DCL      1956<<ASSIGN   1957>>ASSIGN
KV$PTR$
       865**DCL       871--IMP-PTR  1950>>ASSIGN   1950>>ASSIGN   1951>>ASSIGN   1951>>ASSIGN   1952>>ASSIGN
      1952>>ASSIGN   1953>>ASSIGN   1953>>ASSIGN   1953>>ASSIGN   1954>>ASSIGN   1955>>ASSIGN   1956>>ASSIGN
      1956>>ASSIGN   1957>>ASSIGN   1959>>ASSIGN   1974>>IF       1982>>IF       1989>>ASSIGN   1990>>ASSIGN
      1994>>ASSIGN   1996>>ASSIGN   2006>>ASSIGN
KV$SRD.BTMRHT
      1242**DCL      1247--REDEF
KV$SRD.CRT
      1318**DCL      1323--REDEF
KV$SRD.CRT.CLM
PL6.E3A0      #006=KVF$REDFRM File=KVF$TBLSCN.:E05TSI                            WED 07/30/97 02:01 Page:214
      1320**DCL      1996>>ASSIGN   1997>>ASSIGN
KV$SRD.CRT.LIN
      1320**DCL      1983>>ASSIGN   1998>>ASSIGN
KV$SRD.CRTVRTLINPHSLIN
      1290**DCL      1998<<ASSIGN
KV$SRD.CRT_PST
      1323**DCL      1992>>IF       1993<<ASSIGN
KV$SRD.FLDEND
      1282**DCL      1287--REDEF
KV$SRD.FLDEND.CLM
      1284**DCL      1997<<ASSIGN
KV$SRD.FLDEND.LIN
      1284**DCL      1986<<ASSIGN
KV$SRD.HI_NONBLN
      1352**DCL      1357--REDEF
KV$SRD.HI_NONBLN.CLM
      1354**DCL      1987<<ASSIGN
KV$SRD.HI_NONBLN.LIN
      1354**DCL      1985<<ASSIGN
KV$SRD.HI_NONBLNVRT
      1252**DCL      2001<<ASSIGN
KV$SRD.MRD$
      1146**DCL      1958>>IF       1960>>IF       1960>>IF       1980>>IF       1988>>IF
KV$SRD.ORG
      1174**DCL      1179--REDEF
KV$SRD.ORG.CLM
      1176**DCL      1968>>ASSIGN   1979>>ASSIGN   1987>>ASSIGN
KV$SRD.ORG.LIN
      1176**DCL      1957>>ASSIGN
KV$SRD.SRDEND
      1387**DCL      1392--REDEF
KV$SRD.TOPLFT
      1208**DCL      1213--REDEF
KV$SRD.VRTPSTOK
      1251**DCL      2000<<ASSIGN
KV$STR.GRPRND
PL6.E3A0      #006=KVF$REDFRM File=KVF$TBLSCN.:E05TSI                            WED 07/30/97 02:01 Page:215
      1486**DCL      1959<<ASSIGN
KV$VDI.OTPCNDPND.PST
      1546**DCL      1974>>IF       1994<<ASSIGN
KV@USR_RQSDAT
      1601**DCL      2005<<ASSIGN   2011<>CALL
KV@USR_RQSDAT.BFR_.ADR$
      1632**DCL      2006<<ASSIGN
KV@USR_RQSDAT.BFR_.BYTSIZ
      1632**DCL      2009<<ASSIGN
KV@USR_RQSDAT.BFR_.BYTX
      1632**DCL      2007<<ASSIGN
KV@USR_RQSDAT.MAXRCRBYTSIZ
      1635**DCL      2008<<ASSIGN
KV@USR_RQSDAT.RE_RED
      1607**DCL      2010<<ASSIGN
KV@USR_SETATR
      1727**DCL      1967--ASSIGN   1972<>CALL
KV@USR_SETATR.GRPRND
      1816**DCL      1970<<ASSIGN
KV@USR_SETATR.PHSPST
      1760**DCL      1765--REDEF
KV@USR_SETATR.PHSPST.CLM
      1762**DCL      1968<<ASSIGN   1979<<ASSIGN   1981<<ASSIGN   1981>>ASSIGN
KV@USR_SETATR.PHSPST.LIN
      1762**DCL      1957<<ASSIGN   1983<<ASSIGN   1985>>ASSIGN   1986>>ASSIGN
KV@USR_SETATR.PHSPST_PST
      1765**DCL      1992>>IF       1993>>ASSIGN
KV@USR_SETATR.QLF
      1789**DCL      1971<<ASSIGN
KVI$RQSDAT
       846**DCL-ENT  2011--CALL
KVV$CALUSR
       847**DCL-ENT  1972--CALL
KVV$CALUSR_PST
       848**DCL-ENT  1975--CALL
KV_USR_RQSDAT
PL6.E3A0      #006=KVF$REDFRM File=KVF$TBLSCN.:E05TSI                            WED 07/30/97 02:01 Page:216
      1664**DCL      2005>>ASSIGN
KV_USR_SETATR
      1850**DCL      1967--ASSIGN
KV_USR_SETATR.PHSPST
      1883**DCL      1888--REDEF
Y@FLD$
      1573**DCL       914--IMP-PTR  1954<<ASSIGN   1958>>IF       1958>>IF       1959>>ASSIGN   1960>>IF
      1968>>ASSIGN   1969>>ASSIGN   1970>>ASSIGN   1971>>ASSIGN   1979>>ASSIGN   1987>>ASSIGN   1988>>IF
      1997>>ASSIGN   2008>>ASSIGN   2009>>ASSIGN
Y@MRD.ATRRQRDSPPST
      1067**DCL      1980>>IF
Y@MRD.DCLATRWHNOTP
      1068**DCL      1958>>IF       1960>>IF
Y@MRD.DVCATR
      1077**DCL      1960>>IF
Y@MRD.SMLHDNATR
      1060**DCL      1988>>IF
Y@SRD$
      1572**DCL      1146--IMP-PTR  1955<<ASSIGN   1957>>ASSIGN   1958>>IF       1960>>IF       1960>>IF
      1968>>ASSIGN   1979>>ASSIGN   1980>>IF       1983>>ASSIGN   1985>>ASSIGN   1986>>ASSIGN   1987>>ASSIGN
      1987>>ASSIGN   1988>>IF       1992>>IF       1993>>ASSIGN   1996>>ASSIGN   1997>>ASSIGN   1997>>ASSIGN
      1998>>ASSIGN   1998>>ASSIGN   2000>>ASSIGN   2001>>ASSIGN
