PL6.E3A0      #002=KVI$NEWINPFNCTBL File=KVI$INT.:E05TSI                         WED 07/30/97 02:04 Page:479
     2602        1        /*T***********************************************************/
     2603        2        /*T*                                                         */
     2604        3        /*T* Copyright (c) Bull HN Information Systems Inc., 1997    */
     2605        4        /*T*                                                         */
     2606        5        /*T***********************************************************/
     2607        6        /*X*     NSO,PLM=3,SQB=Y,AND=Y,ENI=0,SDI=3,MCL=10,CSI=0,ECI=0,IND=0,IAD=3 */
     2608        7        /*F* NAME: KVI$NEWINPFNCTBL.
     2609        8             PURPOSE: Sets up KV$MVD.ESCX to reflect the matchups between
     2610        9             introducer characters for the system and user tables. */
     2611       10
     2612       11        KVI$NEWINPFNCTBL: PROC;
     2613       12
     2614       13 S      %INCLUDE KV$GLB;
     2615       14 S      %INCLUDE KV$GLBCTX;
     2616       15        %INCLUDE KV$INPFNC;
     2617      574
     2618      575        %KV$PTR;
     2619      618        %KV$MRD;
     2620      665        %KV$MVD;
     2621      709        %KV$INPFNCTBL;
     2622      793
     2623      794    1   DCL 1 B BASED ALIGNED,
     2624      795    1          2 B(0:7) BIT(1);
     2625      796
     2626      797    1   DCL 1 BYT BASED ALIGNED,
     2627      798    1          2 B(0:0) BIT(8);
     2628      799
     2629      800    1   DCL FNCTBL$(0:2) PTR;
     2630      801    1   DCL ESCX$ PTR;
     2631      802    1   DCL ESCCNTMSK$ PTR;
     2632      803    1   DCL R0 SBIN;
     2633      804    1   DCL R1 SBIN;
     2634      805    1   DCL R2 SBIN;
     2635      806    1   DCL R3 SBIN;
     2636      807
     2637      808    1      FNCTBL$(0) = %KV_MRD.PRFINPFNCTBL$;
     2638      809    1      FNCTBL$(1) = %KV_MVD.USRINPFNCTBL$;
PL6.E3A0      #002=KVI$NEWINPFNCTBL File=KVI$INT.:E05TSI                         WED 07/30/97 02:04 Page:480
     2639      810    1      FNCTBL$(2) = %KV_MVD.SSTINPFNCTBL$;
     2640      811    1      ESCX$ = ADDR(%KV_MVD.ESCX);
     2641      812    1      ESCCNTMSK$ = ADDR(%KV_MVD.ESCCNTMSK);
     2642      813    1      %KV_MVD.ESCX = '0'B;
     2643      814    1      ESCCNTMSK$->B.B = '0'B;
     2644      815    2      DO R0=0 TO 2;
     2645      816        /* This loop is traversed for the profile, user, and system tables. */
     2646      817
     2647      818    3         IF FNCTBL$(R0)~=ADDR(NIL) THEN DO R1 = 0 TO 1;
     2648      819        /* This loop is traversed once for each level of (R0) (primary/secondary). */
     2649      820
     2650      821    3            IF FNCTBL$(R0)->KV$INPFNCTBL.ESCCNTOK(R1)
     2651      822    3            THEN ESCCNTMSK$->B.B(R1+R0*2) = '1'B;
     2652      823    4            IF R0<2 THEN DO R2 = 0 TO 1;
     2653      824        /* This loop is traversed once per level in the comparison table (R3) */
     2654      825
     2655      826    5               DO R3 = R0 TO 2;
     2656      827        /* This loop is traversed for each kind of table (prf, usr, sst). */
     2657      828
     2658      829    6                  IF FNCTBL$(R3)=ADDR(NIL) THEN DO;
     2659      830    6                     R3 = R3+1;
     2660      831    6                     IF FNCTBL$(R3)=ADDR(NIL) THEN R3 = R3+1;
     2661      832    6                  END;
     2662      833    5                  IF R3>2 THEN EXIT;
     2663      834    5                  IF FNCTBL$(R3)->KV$INPFNCTBL.ESCINT1_CHR(R2)>=0
     2664      835    5                    AND FNCTBL$(R3)->KV$INPFNCTBL.ESCINT1_CHR(R2)=
     2665      836    5                    FNCTBL$(R0)->KV$INPFNCTBL.ESCINT1_CHR(R1)
     2666      837    6                  THEN DO;
     2667      838    6                     IF FNCTBL$(R3)->KV$INPFNCTBL.ESCINT2_CHR(R2)>=0
     2668      839    6                     THEN ESCX$->B.B(R0*16+R1*8+6) = '1'B;
     2669      840    6                     ESCX$->B.B(R0*16+R1*8+R3*2+R2) = '1'B;
     2670      841    6                  END;
     2671      842    5               END /* LOOP */;
     2672      843    4            END /* LOOP */;
     2673      844    3         END /* LOOP */;
     2674      845    2      END /* LOOP */;
     2675      846    2      IF FNCTBL$(0)~=ADDR(NIL) AND FNCTBL$(1)~=ADDR(NIL) THEN DO R0=0 TO 1;
PL6.E3A0      #002=KVI$NEWINPFNCTBL File=KVI$INT.:E05TSI                         WED 07/30/97 02:04 Page:481
     2676      847        /* Disable profile escapes if the introducer is redefined in the user table */
     2677      848    2         IF ESCX$->BYT.B(R0) AND NOT ESCX$->BYT.B(R0)&'30'X
     2678      849    2         THEN IF FNCTBL$(1)->KV$INPFNCTBL.SPCCHR
     2679      850    2           (FNCTBL$(0)->KV$INPFNCTBL.ESCINT1_CHR(R0))
     2680      851    2         THEN ESCX$->BYT.B(R0) = '0'B;
     2681      852    2      END;
     2682      853    1      RETURN;
     2683      854    1   END;
     2684      855        %EOD;

PL6.E3A0      #002=KVI$NEWINPFNCTBL File=KVI$INT.:E05TSI                         WED 07/30/97 02:04 Page:482
--  Include file information  --

   KV$INPFNC.:E05TOU  is referenced.
   KV_PRMID_E.:E05TOU  was found in the system file and is never referenced.
   KV_GLBCNS_E.:E05TOU  was found in the system file and is never referenced.
   KV$VDO.:E05TOU  was found in the system file and is never referenced.
   KV$VDH.:E05TOU  was found in the system file and is never referenced.
   KV$USR.:E05TOU  was found in the system file and is never referenced.
   KV$SND.:E05TOU  was found in the system file and is never referenced.
   KV$INT.:E05TOU  was found in the system file and is never referenced.
   KV$GLBCTX.:E05TOU  was found in the system file and is referenced.
   KV$GLB.:E05TOU  was found in the system file and is referenced.
   G_LCP6_E.:E05TOU  was found in the system file and is never referenced.
   GT_LCP6_M.:E05TOU  was found in the system file and is never referenced.
   KI_CP6.:E05TOU  was found in the system file and is never referenced.
   GF_LCP6_M.:E05TOU  was found in the system file and is never referenced.
   GM_LCP6_M.:E05TOU  was found in the system file and is never referenced.
   GU_LCP6_M.:E05TOU  was found in the system file and is never referenced.
   GJ_LCP6_M.:E05TOU  was found in the system file and is never referenced.
   GH_LCP6_M.:E05TOU  was found in the system file and is never referenced.
      No diagnostics issued in procedure KVI$NEWINPFNCTBL.

   Procedure KVI$NEWINPFNCTBL requires 234 words for executable code.
   Procedure KVI$NEWINPFNCTBL requires 18 words of local(AUTO) storage.

PL6.E3A0      #002=KVI$NEWINPFNCTBL File=KVI$INT.:E05TSI                         WED 07/30/97 02:04 Page:483

 Object Unit name= KVI$NEWINPFNCTBL                           File name= KVI$INT.:E05TOU
 UTS= JUL 30 '97 02:04:33.60 WED                              Compiler= PL-6/E31         Sev=      00
 SharedLib= :SHARED_LCP6_SYSTEM                               Alt SharedLib=


    ****  Control sections  ****

 Sect   Type Bound  Init  Size HexSiz  Section name
    0   Proc  even  none   234     EA  KVI$NEWINPFNCTBL

    ****  Entry defs  ****

                              Check   Calling
                             calling  sequence
  Sect HexLoc Primary Altret sequence   type   Parms  Name
     0      0   yes            yes      Std        0  KVI$NEWINPFNCTBL

  ****  Entry refs  ****

         Check        Calling
        calling       sequence
Altret sequence SRef   type   Args  Name
                       nStd      0 X6A_AUTO_0
                       nStd      0 X6A_ARET

  ****  Data refs  ****

  Flags:  r = read only, s = secondary
Flgs Name                             Flgs Name                             Flgs Name
     KV$PTR$                          r    G$ROS$
PL6.E3A0      #002=KVI$NEWINPFNCTBL File=KVI$INT.:E05TSI                         WED 07/30/97 02:04 Page:484


     2602        1        /*T***********************************************************/
     2603        2        /*T*                                                         */
     2604        3        /*T* Copyright (c) Bull HN Information Systems Inc., 1997    */
     2605        4        /*T*                                                         */
     2606        5        /*T***********************************************************/
     2607        6        /*X*     NSO,PLM=3,SQB=Y,AND=Y,ENI=0,SDI=3,MCL=10,CSI=0,ECI=0,IND=0,IAD=3 */
     2608        7        /*F* NAME: KVI$NEWINPFNCTBL.
     2609        8             PURPOSE: Sets up KV$MVD.ESCX to reflect the matchups between
     2610        9             introducer characters for the system and user tables. */
     2611       10
     2612       11        KVI$NEWINPFNCTBL: PROC;

     11   0 000000  D380 0000 0000  xent KVI$NEWINPFNCTBLLNJ,B5   X6A_AUTO_0
          0 000003       0012 0000                       DC       18,0

     2613       12
     2614       13 S      %INCLUDE KV$GLB;
     2615       14 S      %INCLUDE KV$GLBCTX;
     2616       15        %INCLUDE KV$INPFNC;
     2617      574
     2618      575        %KV$PTR;
     2619      618        %KV$MRD;
     2620      665        %KV$MVD;
     2621      709        %KV$INPFNCTBL;
     2622      793
     2623      794    1   DCL 1 B BASED ALIGNED,
     2624      795    1          2 B(0:7) BIT(1);
     2625      796
     2626      797    1   DCL 1 BYT BASED ALIGNED,
     2627      798    1          2 B(0:0) BIT(8);
     2628      799
     2629      800    1   DCL FNCTBL$(0:2) PTR;
     2630      801    1   DCL ESCX$ PTR;
     2631      802    1   DCL ESCCNTMSK$ PTR;
     2632      803    1   DCL R0 SBIN;
     2633      804    1   DCL R1 SBIN;
PL6.E3A0      #002=KVI$NEWINPFNCTBL File=KVI$INT.:E05TSI                         WED 07/30/97 02:04 Page:485
     2634      805    1   DCL R2 SBIN;
     2635      806    1   DCL R3 SBIN;
     2636      807
     2637      808    1      FNCTBL$(0) = %KV_MRD.PRFINPFNCTBL$;

    808   0 000005  EC80 0000 0000  xsym                 LDB,B6   KV$PTR$
          0 000008  DCC6 0008                            LDB,B5   8,B6
          0 00000A  CCC5 0006                            LDB,B4   6,B5
          0 00000C  CFC7 0004                            STB,B4   FNCTBL$,AUTO

     2638      809    1      FNCTBL$(1) = %KV_MVD.USRINPFNCTBL$;

    809   0 00000E  BCC6 0006                            LDB,B3   6,B6
          0 000010  ACC3 0008                            LDB,B2   8,B3
          0 000012  AFC7 0006                            STB,B2   FNCTBL$+2,AUTO

     2639      810    1      FNCTBL$(2) = %KV_MVD.SSTINPFNCTBL$;

    810   0 000014  9CC3 000A                            LDB,B1   10,B3
          0 000016  9FC7 0008                            STB,B1   FNCTBL$+4,AUTO

     2640      811    1      ESCX$ = ADDR(%KV_MVD.ESCX);

    811   0 000018  EBC3 0018                            LAB,B6   24,B3
          0 00001A  EFC7 000A                            STB,B6   ESCX$,AUTO

     2641      812    1      ESCCNTMSK$ = ADDR(%KV_MVD.ESCCNTMSK);

    812   0 00001C  DC80 0000 0000  xsym                 LDB,B5   KV$PTR$
          0 00001F  BCC5 0006                            LDB,B3   6,B5
          0 000021  EBC3 001C                            LAB,B6   28,B3
          0 000023  EFC7 000C                            STB,B6   ESCCNTMSK$,AUTO

     2642      813    1      %KV_MVD.ESCX = '0'B;

    813   0 000025  8743 0018                            CL       24,B3
          0 000027  8743 0019                            CL       25,B3
PL6.E3A0      #002=KVI$NEWINPFNCTBL File=KVI$INT.:E05TSI                         WED 07/30/97 02:04 Page:486

     2643      814    1      ESCCNTMSK$->B.B = '0'B;

    814   0 000029  8786                                 CLH      ,B6

     2644      815    2      DO R0=0 TO 2;

    815   0 00002A  8747 000E                            CL       R0,AUTO

     2645      816        /* This loop is traversed for the profile, user, and system tables. */
     2646      817
     2647      818    3         IF FNCTBL$(R0)~=ADDR(NIL) THEN DO R1 = 0 TO 1;

    818   0 00002C  B847 000E                            LDR,R3   R0,AUTO
          0 00002E  3E02                                 ADV,R3   2
          0 00002F  8DB7                                 CMN      ,AUTO,R3
          0 000030  0901 0085                            BE       s:845,PREL

    818   0 000032  8747 000F                            CL       R1,AUTO

     2648      819        /* This loop is traversed once for each level of (R0) (primary/secondary). */
     2649      820
     2650      821    3            IF FNCTBL$(R0)->KV$INPFNCTBL.ESCCNTOK(R1)

    821   0 000034  B847 000E                            LDR,R3   R0,AUTO
          0 000036  3E02                                 ADV,R3   2
          0 000037  ECB7                                 LDB,B6   ,AUTO,R3
          0 000038  DBC6 001B                            LAB,B5   27,B6
          0 00003A  A847 000F                            LDR,R2   R1,AUTO
          0 00003C  2E08                                 ADV,R2   8
          0 00003D  82A5                                 LB       ,B5,R2
          0 00003E  0581 000A                            BBF      s:823,PREL

     2651      822    3            THEN ESCCNTMSK$->B.B(R1+R0*2) = '1'B;

    822   0 000040  E847 000E                            LDR,R6   R0,AUTO
          0 000042  6001                                 SOL,R6   1
PL6.E3A0      #002=KVI$NEWINPFNCTBL File=KVI$INT.:E05TSI                         WED 07/30/97 02:04 Page:487
          0 000043  EA47 000F                            ADD,R6   R1,AUTO
          0 000045  DCC7 000C                            LDB,B5   ESCCNTMSK$,AUTO
          0 000047  9856                                 LDR,R1   R6
          0 000048  8915                                 LBT      ,B5,R1

     2652      823    4            IF R0<2 THEN DO R2 = 0 TO 1;

    823   0 000049  E847 000E                            LDR,R6   R0,AUTO
          0 00004B  6D02                                 CMV,R6   2
          0 00004C  0881 0062                            BAGE     s:844,PREL

    823   0 00004E  8747 0010                            CL       R2,AUTO

     2653      824        /* This loop is traversed once per level in the comparison table (R3) */
     2654      825
     2655      826    5               DO R3 = R0 TO 2;

    826   0 000050  E847 000E                            LDR,R6   R0,AUTO
          0 000052  EF47 0011                            STR,R6   R3,AUTO
          0 000054  0F81 004E                            B        s:842+2,PREL

     2656      827        /* This loop is traversed for each kind of table (prf, usr, sst). */
     2657      828
     2658      829    6                  IF FNCTBL$(R3)=ADDR(NIL) THEN DO;

    829   0 000056  B847 0011                            LDR,R3   R3,AUTO
          0 000058  3E02                                 ADV,R3   2
          0 000059  8DB7                                 CMN      ,AUTO,R3
          0 00005A  0981 000B                            BNE      s:833,PREL

     2659      830    6                     R3 = R3+1;

    830   0 00005C  8AC7 0011                            INC      R3,AUTO

     2660      831    6                     IF FNCTBL$(R3)=ADDR(NIL) THEN R3 = R3+1;

    831   0 00005E  B847 0011                            LDR,R3   R3,AUTO
PL6.E3A0      #002=KVI$NEWINPFNCTBL File=KVI$INT.:E05TSI                         WED 07/30/97 02:04 Page:488
          0 000060  3E02                                 ADV,R3   2
          0 000061  8DB7                                 CMN      ,AUTO,R3
          0 000062  0981 0003                            BNE      s:833,PREL

    831   0 000064  8AC7 0011                            INC      R3,AUTO

     2661      832    6                  END;

     2662      833    5                  IF R3>2 THEN EXIT;

    833   0 000066  E847 0011                            LDR,R6   R3,AUTO
          0 000068  6D02                                 CMV,R6   2
          0 000069  0A01 003E                            BAG      s:843,PREL

     2663      834    5                  IF FNCTBL$(R3)->KV$INPFNCTBL.ESCINT1_CHR(R2)>=0

    834   0 00006B  B856                                 LDR,R3   R6
          0 00006C  3E02                                 ADV,R3   2
          0 00006D  ECB7                                 LDB,B6   ,AUTO,R3
          0 00006E  A847 0010                            LDR,R2   R2,AUTO
          0 000070  2E28                                 ADV,R2   40
          0 000071  D826                                 LDR,R5   ,B6,R2
          0 000072  5801 002E                            BLZ,R5   s:842,PREL
          0 000074  9847 000E                            LDR,R1   R0,AUTO
          0 000076  1E02                                 ADV,R1   2
          0 000077  DC97                                 LDB,B5   ,AUTO,R1
          0 000078  B847 000F                            LDR,R3   R1,AUTO
          0 00007A  3E28                                 ADV,R3   40
          0 00007B  D826                                 LDR,R5   ,B6,R2
          0 00007C  D935                                 CMR,R5   ,B5,R3
          0 00007D  0981 0023                            BNE      s:842,PREL

     2664      835    5                    AND FNCTBL$(R3)->KV$INPFNCTBL.ESCINT1_CHR(R2)=
     2665      836    5                    FNCTBL$(R0)->KV$INPFNCTBL.ESCINT1_CHR(R1)
     2666      837    6                  THEN DO;

     2667      838    6                     IF FNCTBL$(R3)->KV$INPFNCTBL.ESCINT2_CHR(R2)>=0
PL6.E3A0      #002=KVI$NEWINPFNCTBL File=KVI$INT.:E05TSI                         WED 07/30/97 02:04 Page:489

    838   0 00007F  B856                                 LDR,R3   R6
          0 000080  3E02                                 ADV,R3   2
          0 000081  ECB7                                 LDB,B6   ,AUTO,R3
          0 000082  B847 0010                            LDR,R3   R2,AUTO
          0 000084  3E2A                                 ADV,R3   42
          0 000085  D836                                 LDR,R5   ,B6,R3
          0 000086  5801 000C                            BLZ,R5   s:840,PREL

     2668      839    6                     THEN ESCX$->B.B(R0*16+R1*8+6) = '1'B;

    839   0 000088  D847 000E                            LDR,R5   R0,AUTO
          0 00008A  5001                                 SOL,R5   1
          0 00008B  DA47 000F                            ADD,R5   R1,AUTO
          0 00008D  ECC7 000A                            LDB,B6   ESCX$,AUTO
          0 00008F  B855                                 LDR,R3   R5
          0 000090  3003                                 SOL,R3   3
          0 000091  3E06                                 ADV,R3   6
          0 000092  8936                                 LBT      ,B6,R3

     2669      840    6                     ESCX$->B.B(R0*16+R1*8+R3*2+R2) = '1'B;

    840   0 000093  D847 000E                            LDR,R5   R0,AUTO
          0 000095  5001                                 SOL,R5   1
          0 000096  DA47 000F                            ADD,R5   R1,AUTO
          0 000098  5002                                 SOL,R5   2
          0 000099  DA56                                 ADD,R5   R6
          0 00009A  5001                                 SOL,R5   1
          0 00009B  DA47 0010                            ADD,R5   R2,AUTO
          0 00009D  ECC7 000A                            LDB,B6   ESCX$,AUTO
          0 00009F  B855                                 LDR,R3   R5
          0 0000A0  8936                                 LBT      ,B6,R3

     2670      841    6                  END;

     2671      842    5               END /* LOOP */;

PL6.E3A0      #002=KVI$NEWINPFNCTBL File=KVI$INT.:E05TSI                         WED 07/30/97 02:04 Page:490
    842   0 0000A1  8AC7 0011                            INC      R3,AUTO
          0 0000A3  E847 0011                            LDR,R6   R3,AUTO
          0 0000A5  6D02                                 CMV,R6   2
          0 0000A6  0A81 FFAF                            BALE     s:829,PREL

     2672      843    4            END /* LOOP */;

    843   0 0000A8  8AC7 0010                            INC      R2,AUTO
          0 0000AA  D847 0010                            LDR,R5   R2,AUTO
          0 0000AC  5D01                                 CMV,R5   1
          0 0000AD  0A81 FFA2                            BALE     s:826,PREL

     2673      844    3         END /* LOOP */;

    844   0 0000AF  8AC7 000F                            INC      R1,AUTO
          0 0000B1  E847 000F                            LDR,R6   R1,AUTO
          0 0000B3  6D01                                 CMV,R6   1
          0 0000B4  0A81 FF7F                            BALE     s:821,PREL

     2674      845    2      END /* LOOP */;

    845   0 0000B6  8AC7 000E                            INC      R0,AUTO
          0 0000B8  E847 000E                            LDR,R6   R0,AUTO
          0 0000BA  6D02                                 CMV,R6   2
          0 0000BB  0A81 FF70                            BALE     s:818,PREL

     2675      846    2      IF FNCTBL$(0)~=ADDR(NIL) AND FNCTBL$(1)~=ADDR(NIL) THEN DO R0=0 TO 1;

    846   0 0000BD  8DC7 0004                            CMN      FNCTBL$,AUTO
          0 0000BF  0901 0027                            BE       s:853,PREL
          0 0000C1  8DC7 0006                            CMN      FNCTBL$+2,AUTO
          0 0000C3  0901 0023                            BE       s:853,PREL

    846   0 0000C5  8747 000E                            CL       R0,AUTO

     2676      847        /* Disable profile escapes if the introducer is redefined in the user table */
     2677      848    2         IF ESCX$->BYT.B(R0) AND NOT ESCX$->BYT.B(R0)&'30'X
PL6.E3A0      #002=KVI$NEWINPFNCTBL File=KVI$INT.:E05TSI                         WED 07/30/97 02:04 Page:491

    848   0 0000C7  ECC7 000A                            LDB,B6   ESCX$,AUTO
          0 0000C9  B847 000E                            LDR,R3   R0,AUTO
          0 0000CB  E2B6                                 LLH,R6   ,B6,R3
          0 0000CC  6008                                 SOL,R6   8
          0 0000CD  6901 0013                            BEZ,R6   s:852,PREL
          0 0000CF  E570 3000                            AND,R6   12288,IMO
          0 0000D1  6981 000F                            BNEZ,R6  s:852,PREL

     2678      849    2         THEN IF FNCTBL$(1)->KV$INPFNCTBL.SPCCHR

    849   0 0000D3  DCC7 0004                            LDB,B5   FNCTBL$,AUTO
          0 0000D5  3E28                                 ADV,R3   40
          0 0000D6  A835                                 LDR,R2   ,B5,R3
          0 0000D7  CCC7 0006                            LDB,B4   FNCTBL$+2,AUTO
          0 0000D9  BBC4 000B                            LAB,B3   11,B4
          0 0000DB  82A3                                 LB       ,B3,R2
          0 0000DC  0581 0004                            BBF      s:852,PREL

     2679      850    2           (FNCTBL$(0)->KV$INPFNCTBL.ESCINT1_CHR(R0))
     2680      851    2         THEN ESCX$->BYT.B(R0) = '0'B;

    851   0 0000DE  9847 000E                            LDR,R1   R0,AUTO
          0 0000E0  8796                                 CLH      ,B6,R1

     2681      852    2      END;

    852   0 0000E1  8AC7 000E                            INC      R0,AUTO
          0 0000E3  E847 000E                            LDR,R6   R0,AUTO
          0 0000E5  6D01                                 CMV,R6   1
          0 0000E6  0AE1                                 BALE     s:848,SPREL

     2682      853    1      RETURN;

    853   0 0000E7  C380 0000 0000  xent                 LNJ,B4   X6A_ARET
     2683      854    1   END;
     2684      855        %EOD;
PL6.E3A0      #002=KVI$NEWINPFNCTBL File=KVI$INT.:E05TSI                         WED 07/30/97 02:04 Page:492

PL6.E3A0      #002=KVI$NEWINPFNCTBL File=KVI$INT.:E05TSI                         WED 07/30/97 02:04 Page:493
--  Include file information  --

   KV$INPFNC.:E05TOU  is referenced.
   KV_PRMID_E.:E05TOU  was found in the system file and is never referenced.
   KV_GLBCNS_E.:E05TOU  was found in the system file and is never referenced.
   KV$VDO.:E05TOU  was found in the system file and is never referenced.
   KV$VDH.:E05TOU  was found in the system file and is never referenced.
   KV$USR.:E05TOU  was found in the system file and is never referenced.
   KV$SND.:E05TOU  was found in the system file and is never referenced.
   KV$INT.:E05TOU  was found in the system file and is never referenced.
   KV$GLBCTX.:E05TOU  was found in the system file and is referenced.
   KV$GLB.:E05TOU  was found in the system file and is referenced.
   G_LCP6_E.:E05TOU  was found in the system file and is never referenced.
   GT_LCP6_M.:E05TOU  was found in the system file and is never referenced.
   KI_CP6.:E05TOU  was found in the system file and is never referenced.
   GF_LCP6_M.:E05TOU  was found in the system file and is never referenced.
   GM_LCP6_M.:E05TOU  was found in the system file and is never referenced.
   GU_LCP6_M.:E05TOU  was found in the system file and is never referenced.
   GJ_LCP6_M.:E05TOU  was found in the system file and is never referenced.
   GH_LCP6_M.:E05TOU  was found in the system file and is never referenced.
      No diagnostics issued in procedure KVI$NEWINPFNCTBL.
PL6.E3A0      #002=KVI$NEWINPFNCTBL File=KVI$INT.:E05TSI                         WED 07/30/97 02:04 Page:494

 **** Variables and constants ****

  ****  Auto variables  ****

  ****  Scalars and arrays  ****
HexLoc.c.b A Datatyp(siz) R M Lvl/name                 HexLoc.c.b A Datatyp(siz) R M Lvl/name

     C-0-0/w PTR         r     1 ESCCNTMSK$                 A-0-0/w PTR         r     1 ESCX$
     4-0-0/w PTR         r     1 FNCTBL$(0:2)
     E-0-0/w SBIN(16)    r     1 R0                         F-0-0/w SBIN(16)    r     1 R1
    10-0-0/w SBIN(16)    r     1 R2                        11-0-0/w SBIN(16)    r     1 R3

  ****  SYMREF variables  ****

  ****  Scalars and arrays  ****
HexLoc.c.b A Datatyp(siz) R M Lvl/name                 HexLoc.c.b A Datatyp(siz) R M Lvl/name

     0-0-0/w PTR         r     1 KV$PTR$

  ****  BASED and DCB variables  ****

  ****  Scalars and arrays  ****
HexLoc.c.b A Datatyp(siz) R M Lvl/name                 HexLoc.c.b A Datatyp(siz) R M Lvl/name

     0-0-0/w STRC(8)     r     1 B                          0-0-0/w STRC(8)     r     1 BYT
     0-0-0/w STRC(736)   r     1 KV$INPFNCTBL               0-0-0/w STRC(512)   r     1 KV$MRD
     0-0-0/w STRC(512)   r     1 KV$MVD                     0-0-0/w STRC(480)   r     1 KV$PTR


   Procedure KVI$NEWINPFNCTBL requires 234 words for executable code.
   Procedure KVI$NEWINPFNCTBL requires 18 words of local(AUTO) storage.
PL6.E3A0      #002=KVI$NEWINPFNCTBL File=KVI$INT.:E05TSI                         WED 07/30/97 02:04 Page:495
          *** CROSS REFERENCE LISTING ***
**     DENOTES     IDENTIFIER DEFINITION
<<                 IDENTIFIER'S VALUE SET
>>                 IDENTIFIER'S VALUE USED
<>                 IDENTIFIER SET AND/OR USED
--                 IDENTIFIER REFERENCED
PL6.E3A0      #002=KVI$NEWINPFNCTBL File=KVI$INT.:E05TSI                         WED 07/30/97 02:04 Page:496
          MINI XREF LISTING

B.B
       795**DCL       814<<ASSIGN    822<<ASSIGN    839<<ASSIGN    840<<ASSIGN
BYT.B
       798**DCL       848>>IF        848>>IF        851<<ASSIGN
ESCCNTMSK$
       802**DCL       812<<ASSIGN    814>>ASSIGN    822>>ASSIGN
ESCX$
       801**DCL       811<<ASSIGN    839>>ASSIGN    840>>ASSIGN    848>>IF        848>>IF        851>>ASSIGN
FNCTBL$
       800**DCL       808<<ASSIGN    809<<ASSIGN    810<<ASSIGN    818>>IF        821>>IF        829>>IF
       831>>IF        834>>IF        834>>IF        834>>IF        838>>IF        846>>IF        846>>IF
       849>>IF        849>>IF
KV$INPFNCTBL.ESCCNTOK
       774**DCL       821>>IF
KV$INPFNCTBL.ESCINT1_CHR
       775**DCL       834>>IF        834>>IF        834>>IF        849>>IF
KV$INPFNCTBL.ESCINT2_CHR
       775**DCL       838>>IF
KV$INPFNCTBL.SPCCHR
       774**DCL       849>>IF
KV$MRD.PRFINPFNCTBL$
       640**DCL       808>>ASSIGN
KV$MVD.ESCCNTMSK
       704**DCL       812--ASSIGN
KV$MVD.ESCX
       700**DCL       811--ASSIGN    813<<ASSIGN
KV$MVD.SSTINPFNCTBL$
       689**DCL       810>>ASSIGN
KV$MVD.USRINPFNCTBL$
       688**DCL       809>>ASSIGN
KV$PTR.INPCNDPND
       602**DCL       611--REDEF     615--REDEF
PL6.E3A0      #002=KVI$NEWINPFNCTBL File=KVI$INT.:E05TSI                         WED 07/30/97 02:04 Page:497
KV$PTR.LINLST$
       598**DCL       599--REDEF
KV$PTR.MRD$
       597**DCL       808>>ASSIGN
KV$PTR.MVD$
       597**DCL       809>>ASSIGN    810>>ASSIGN    811>>ASSIGN    812>>ASSIGN    813>>ASSIGN
KV$PTR$
       590**DCL       596--IMP-PTR   808>>ASSIGN    809>>ASSIGN    810>>ASSIGN    811>>ASSIGN    812>>ASSIGN
       813>>ASSIGN
R0
       803**DCL       815<<DOINDEX   818>>IF        821>>IF        822>>ASSIGN    823>>IF        826>>DOINDEX
       834>>IF        839>>ASSIGN    840>>ASSIGN    846<<DOINDEX   848>>IF        848>>IF        849>>IF
       851>>ASSIGN
R1
       804**DCL       818<<DOINDEX   821>>IF        822>>ASSIGN    834>>IF        839>>ASSIGN    840>>ASSIGN
R2
       805**DCL       823<<DOINDEX   834>>IF        834>>IF        838>>IF        840>>ASSIGN
R3
       806**DCL       826<<DOINDEX   829>>IF        830<<ASSIGN    830>>ASSIGN    831>>IF        831<<ASSIGN
       831>>ASSIGN    833>>IF        834>>IF        834>>IF        838>>IF        840>>ASSIGN

PL6.E3A0      #003=KVI$SETINPFLDBGNATR File=KVI$INT.:E05TSI                      WED 07/30/97 02:04 Page:498
     2685        1        /*T***********************************************************/
     2686        2        /*T*                                                         */
     2687        3        /*T* Copyright (c) Bull HN Information Systems Inc., 1997    */
     2688        4        /*T*                                                         */
     2689        5        /*T***********************************************************/
     2690        6        /*X*     NSO,PLM=3,SQB=Y,AND=Y,ENI=0,SDI=3,MCL=10,CSI=0,ECI=0,IND=0,IAD=3 */
     2691        7        /*F* NAME: KVI$SETINPFLDBGNATR.
     2692        8             PURPOSE: Manipulates the attributes required to create input fields
     2693        9             on a block-mode device.
     2694       10             ENTRY: KVI$RSTINPFLDBGNATR.
     2695       11             ENTRY: KVI$ADJINPFLDBGNATR.
     2696       12             ENTRY: KVI$SETINPFLDENDATR.
     2697       13             ENTRY: KVI$RSTINPFLDENDATR.
     2698       14        */
     2699       15
     2700       16        KVI$SETINPFLDBGNATR: PROC;
     2701       17
     2702       18 S      %INCLUDE KV$GLB;
     2703       19 S      %INCLUDE KV$GLBCTX;
     2704       20 S      %INCLUDE KV$USR;
     2705       21 S      %INCLUDE KV$VDH;
     2706       22 S      %INCLUDE KV_GLBCNS_E;
     2707       23
     2708       24        %KV_ABSGRPRND_E;
     2709       33        %KV$PTR;
     2710       76        %KV$MRD;
     2711      123        %KV$MVD;
     2712      167        %KV$SRD;
     2713      442
     2714      443        %KV$USR_SETATR (NAME=KV_USR_SETATR, STCLASS=SYMREF);
     2715      566        %KV$VDH_PST (NAME=KV_VDH_PST_SPC_VRT, STCLASS=SYMREF);
     2716      640        %KV$USR_SETATR (NAME=KV@USR_SETATR, STCLASS=AUTO);
     2717      763        %EQU USR_SETATR=CHARTEXT('KV@USR_SETATR');
     2718      764
     2719      765        /* Entry is for set, as opposed to reset.                                     */
     2720      766
     2721      767    1   DCL SET BIT(1);
PL6.E3A0      #003=KVI$SETINPFLDBGNATR File=KVI$INT.:E05TSI                      WED 07/30/97 02:04 Page:499
     2722      768
     2723      769        /* Entry is for adjust                                                        */
     2724      770
     2725      771    1   DCL ADJ BIT(1);
     2726      772
     2727      773        /* Word */
     2728      774
     2729      775    1   DCL Y@TMPWRD SBIN;
     2730      776
     2731      777    1   DCL KVO$PST ENTRY(1);
     2732      778    1   DCL KVV$CALUSR ENTRY(1) ALTRET;
     2733      779
     2734      780    1      ADJ = '0'B;
     2735      781    1      SET = '1'B;
     2736      782
     2737      783        /* Reset input field begin attributes.                                        */
     2738      784
     2739      785    1      GOTO BGNATR_SUBCOMMON;               /* LOOK BELOW                         */
     2740      786        %EJECT;
PL6.E3A0      #003=KVI$SETINPFLDBGNATR File=KVI$INT.:E05TSI                      WED 07/30/97 02:04 Page:500
     2741      787    1   KVI$RSTINPFLDBGNATR: ENTRY;
     2742      788    1      SET = '0'B;
     2743      789    1      ADJ = '0'B;
     2744      790
     2745      791        /* Adjust input field begin attributes (after dispinput change).              */
     2746      792
     2747      793    1      GOTO BGNATR_SUBCOMMON;               /* LOOK BELOW                         */
     2748      794        %EJECT;
PL6.E3A0      #003=KVI$SETINPFLDBGNATR File=KVI$INT.:E05TSI                      WED 07/30/97 02:04 Page:501
     2749      795    1   KVI$ADJINPFLDBGNATR: ENTRY;
     2750      796    1      SET = '0'B;
     2751      797    1      ADJ = '1'B;
     2752      798        %EJECT;
PL6.E3A0      #003=KVI$SETINPFLDBGNATR File=KVI$INT.:E05TSI                      WED 07/30/97 02:04 Page:502
     2753      799    1   BGNATR_SUBCOMMON: ;                     /* THERE MUST BE AN ALTENTRY ABOVE ME */
     2754      800    1      %USR_SETATR = KV_USR_SETATR;
     2755      801    1      %USR_SETATR.GRPRND = %KV_MRD.ABSGRPRND(%KV_ABSGRPRND_INPUT);
     2756      802    1      %USR_SETATR.PHSPST.CLM = %KV_SRD.PRMVRTCLM;
     2757      803    2      IF SET THEN DO;
     2758      804        /* This is a set entry.                                                       */
     2759      805
     2760      806    2         IF %KV_MRD.ATRRQRDSPPST THEN %KV_SRD.PRMVRTCLM = %KV_SRD.PRMVRTCLM+1;
     2761      807        /* The attribute requires a display position.                                 */
     2762      808
     2763      809    2         %USR_SETATR.QLF.ACPALL = '1'B;
     2764      810    2      END; ELSE DO;
     2765      811        /* This is the reset or adjust entry.                                        */
     2766      812
     2767      813    2         IF %KV_MRD.ATRRQRDSPPST
     2768      814        /* The attribute requires a display position.                                 */
     2769      815
     2770      816    2         THEN %USR_SETATR.PHSPST.CLM = %USR_SETATR.PHSPST.CLM-1;
     2771      817    2         IF NOT ADJ THEN %USR_SETATR.QLF.PRT = '1'B;
     2772      818    3         ELSE DO;
     2773      819    3            %USR_SETATR.QLF.ACPALL='1'B;
     2774      820    3         END;
     2775      821    2      END /* IF */;
     2776      822    1      %USR_SETATR.PHSPST.LIN =
     2777      823    1        %USR_SETATR.PHSPST.CLM/%KV_SRD.WDT+%KV_SRD.CRTVRTLINPHSLIN;
     2778      824    1      %USR_SETATR.PHSPST.CLM =
     2779      825    1        MOD(%USR_SETATR.PHSPST.CLM,%KV_SRD.WDT)+%KV_SRD.TOPLFT.CLM;
     2780      826    1      IF NOT %KV_MVD.DISPINPUT THEN %USR_SETATR.GRPRND.HDN = '1'B;
     2781      827        /* We aren't to display the input data.                                       */
     2782      828
     2783      829    1      CALL KVV$CALUSR (%USR_SETATR);
     2784      830    2      IF NOT SET AND NOT ADJ THEN DO;
     2785      831    2         %USR_SETATR.DLTFLD = '1'B;
     2786      832    3         IF %KV_SRD.FLDEND.CLM=%KV_SRD.BTMRHT.CLM THEN DO;
     2787      833    3            %KV_SRD.FLDEND.CLM = %KV_SRD.TOPLFT.CLM;
     2788      834    3            %KV_SRD.FLDEND.LIN = %KV_SRD.FLDEND.LIN+1;
     2789      835    2         END; ELSE %KV_SRD.FLDEND.CLM = %KV_SRD.FLDEND.CLM+1;
PL6.E3A0      #003=KVI$SETINPFLDBGNATR File=KVI$INT.:E05TSI                      WED 07/30/97 02:04 Page:503
     2790      836    2      END;
     2791      837    2      IF %KV_SRD.WDT~=%KV_MRD.WDT OR NOT %KV_MRD.NO_FLDTRM THEN DO;
     2792      838    3         DO WHILE %USR_SETATR.PHSPST.LIN<%KV_SRD.FLDEND.LIN;
     2793      839    4            IF %USR_SETATR.DLTFLD AND %KV_MRD.NO_FLDTRM THEN DO;
     2794      840    4               %USR_SETATR.PHSPST.CLM = %KV_SRD.SRDEND.CLM;
     2795      841    4               CALL KVV$CALUSR (%USR_SETATR);
     2796      842    4            END;
     2797      843    3            %USR_SETATR.PHSPST.LIN = %USR_SETATR.PHSPST.LIN+1;
     2798      844    3            %USR_SETATR.PHSPST.CLM = %KV_SRD.ORG.CLM+1;
     2799      845    3            CALL KVV$CALUSR (%USR_SETATR);
     2800      846    3         END;
     2801      847    2         IF NOT %USR_SETATR.DLTFLD OR %KV_SRD.FLDEND.CLM=%KV_SRD.TOPLFT.CLM
     2802      848    2         THEN EXIT;
     2803      849    2         %USR_SETATR.PHSPST.CLM = %KV_SRD.FLDEND.CLM;
     2804      850    2         CALL KVV$CALUSR (%USR_SETATR);
     2805      851    2      END;
     2806      852    1      RETURN;
     2807      853        %EJECT;
PL6.E3A0      #003=KVI$SETINPFLDBGNATR File=KVI$INT.:E05TSI                      WED 07/30/97 02:04 Page:504
     2808      854    1   KVI$SETINPFLDENDATR: ENTRY;
     2809      855
     2810      856        /* Set input field end attributes.                                            */
     2811      857
     2812      858    1      SET = '1'B;
     2813      859
     2814      860    1      GOTO ENDATR_SUBCOMMON;               /* LOOK BELOW                         */
     2815      861        %EJECT;
PL6.E3A0      #003=KVI$SETINPFLDBGNATR File=KVI$INT.:E05TSI                      WED 07/30/97 02:04 Page:505
     2816      862    1   KVI$RSTINPFLDENDATR: ENTRY;
     2817      863
     2818      864        /* Reset input field end attributes.                                          */
     2819      865    1      SET = '0'B;
     2820      866        %EJECT;
PL6.E3A0      #003=KVI$SETINPFLDBGNATR File=KVI$INT.:E05TSI                      WED 07/30/97 02:04 Page:506
     2821      867    1   ENDATR_SUBCOMMON: ;                     /* THERE MUST BE AN ALTENTRY ABOVE ME */
     2822      868    1      %USR_SETATR = KV_USR_SETATR;
     2823      869    1      %USR_SETATR.GRPRND = %KV_MRD.ABSGRPRND(%KV_ABSGRPRND_OUTPUT);
     2824      870    1      %USR_SETATR.QLF.PRT = '1'B;
     2825      871    1      %USR_SETATR.PHSPST = %KV_SRD.CRT;
     2826      872    1      CALL KVV$CALUSR (%USR_SETATR);
     2827      873    2      IF SET THEN DO;
     2828      874        /* This is the set entry.                                                     */
     2829      875
     2830      876    2         IF %USR_SETATR.PHSPST_PST>%KV_SRD.HI_NONBLN_PST
     2831      877        /* The position of the end of the field + 1 is beyond the hi
     2832      878           non-blank position. Adjust ho non-blank to field end + 1
     2833      879           so erases and the placement of text after the field work ok.               */
     2834      880
     2835      881    2         THEN %KV_SRD.HI_NONBLN = %USR_SETATR.PHSPST;
     2836      882    2         %USR_SETATR.PHSPST.CLM = %USR_SETATR.PHSPST.CLM-1;
     2837      883    3         IF %USR_SETATR.PHSPST.CLM<%KV_SRD.TOPLFT.CLM THEN DO;
     2838      884    3            %USR_SETATR.PHSPST.LIN = %USR_SETATR.PHSPST.LIN-1;
     2839      885    3            %USR_SETATR.PHSPST.CLM = %KV_SRD.BTMRHT.CLM;
     2840      886    3         END /* IF */;
     2841      887    2         %KV_SRD.FLDEND = %USR_SETATR.PHSPST;
     2842      888    2         IF %KV_SRD.ORG.CLM~=0 AND %KV_MRD.NO_FLDTRM
     2843      889    3           OR %KV_SRD.SRDEND.CLM~=%KV_MRD.WDT THEN DO;
     2844      890    3            Y@TMPWRD = %KV_SRD.PRMVRTCLM;
     2845      891    3            IF %KV_MRD.ATRRQRDSPPST THEN Y@TMPWRD = Y@TMPWRD-1;
     2846      892    3            Y@TMPWRD = %KV_SRD.CRTVRTLINPHSLIN+Y@TMPWRD/%KV_SRD.WDT;
     2847      893    3            %USR_SETATR.QLF.ACPNMR = '1'B; /* Set autoskip                       */
     2848      894    3            %USR_SETATR.PHSPST.CLM = %KV_SRD.SRDEND.CLM;
     2849      895    4            DO WHILE Y@TMPWRD<%USR_SETATR.PHSPST.LIN;
     2850      896    4               %USR_SETATR.PHSPST.LIN = %USR_SETATR.PHSPST.LIN-1;
     2851      897    4               CALL KVV$CALUSR (%USR_SETATR);
     2852      898    4            END;
     2853      899    3         END;
     2854      900    2      END; ELSE DO;
     2855      901        /* This is the reset entry.                                                   */
     2856      902
     2857      903    2         IF %KV_MRD.ATRRQRDSPPST
PL6.E3A0      #003=KVI$SETINPFLDBGNATR File=KVI$INT.:E05TSI                      WED 07/30/97 02:04 Page:507
     2858      904        /* The attribute declaration requires a display position.
     2859      905           Skip beyond the attribute.                                                 */
     2860      906
     2861      907    2         THEN CALL KVO$PST (KV_VDH_PST_SPC_VRT);
     2862      908    2         %KV_SRD.FLDEND = '0'B;
     2863      909    2      END /* IF */;
     2864      910    1   END;
     2865      911        %EOD;

PL6.E3A0      #003=KVI$SETINPFLDBGNATR File=KVI$INT.:E05TSI                      WED 07/30/97 02:04 Page:508
--  Include file information  --

   KV_PRMID_E.:E05TOU  was found in the system file and is never referenced.
   KV_GLBCNS_E.:E05TOU  was found in the system file and is referenced.
   KV$VDO.:E05TOU  was found in the system file and is never referenced.
   KV$VDH.:E05TOU  was found in the system file and is referenced.
   KV$USR.:E05TOU  was found in the system file and is referenced.
   KV$SND.:E05TOU  was found in the system file and is never referenced.
   KV$INT.:E05TOU  was found in the system file and is never referenced.
   KV$GLBCTX.:E05TOU  was found in the system file and is referenced.
   KV$GLB.:E05TOU  was found in the system file and is referenced.
   G_LCP6_E.:E05TOU  was found in the system file and is never referenced.
   GT_LCP6_M.:E05TOU  was found in the system file and is never referenced.
   KI_CP6.:E05TOU  was found in the system file and is never referenced.
   GF_LCP6_M.:E05TOU  was found in the system file and is never referenced.
   GM_LCP6_M.:E05TOU  was found in the system file and is never referenced.
   GU_LCP6_M.:E05TOU  was found in the system file and is never referenced.
   GJ_LCP6_M.:E05TOU  was found in the system file and is never referenced.
   GH_LCP6_M.:E05TOU  was found in the system file and is never referenced.
      No diagnostics issued in procedure KVI$SETINPFLDBGNATR.

   Procedure KVI$SETINPFLDBGNATR requires 489 words for executable code.
   Procedure KVI$SETINPFLDBGNATR requires 14 words of local(AUTO) storage.

PL6.E3A0      #003=KVI$SETINPFLDBGNATR File=KVI$INT.:E05TSI                      WED 07/30/97 02:04 Page:509

 Object Unit name= KVI$SETINPFLDBGNATR                        File name= KVI$INT.:E05TOU
 UTS= JUL 30 '97 02:04:43.52 WED                              Compiler= PL-6/E31         Sev=      00
 SharedLib= :SHARED_LCP6_SYSTEM                               Alt SharedLib=


    ****  Control sections  ****

 Sect   Type Bound  Init  Size HexSiz  Section name
    0   Proc  even  none   489    1E9  KVI$SETINPFLDBGNATR
    1  RoData even  none     2      2  KVI$SETINPFLDBGNATR

    ****  Entry defs  ****

                              Check   Calling
                             calling  sequence
  Sect HexLoc Primary Altret sequence   type   Parms  Name
     0      0   yes            yes      Std        0  KVI$SETINPFLDBGNATR
     0      C                  yes      Std        0  KVI$RSTINPFLDBGNATR
     0     17                  yes      Std        0  KVI$ADJINPFLDBGNATR
     0    11F                  yes      Std        0  KVI$SETINPFLDENDATR
     0    129                  yes      Std        0  KVI$RSTINPFLDENDATR

  ****  Entry refs  ****

         Check        Calling
        calling       sequence
Altret sequence SRef   type   Args  Name
 yes     yes           Std       1 KVV$CALUSR
         yes           Std       1 KVO$PST
                       nStd      0 X6A_AUTO_0
                       nStd      0 X6A_ARET
PL6.E3A0      #003=KVI$SETINPFLDBGNATR File=KVI$INT.:E05TSI                      WED 07/30/97 02:04 Page:510

  ****  Data refs  ****

  Flags:  r = read only, s = secondary
Flgs Name                             Flgs Name                             Flgs Name
     KV$PTR$                               KV_USR_SETATR                         KV_VDH_PST_SPC_VRT
r    G$ROS$
PL6.E3A0      #003=KVI$SETINPFLDBGNATR File=KVI$INT.:E05TSI                      WED 07/30/97 02:04 Page:511


     2685        1        /*T***********************************************************/
     2686        2        /*T*                                                         */
     2687        3        /*T* Copyright (c) Bull HN Information Systems Inc., 1997    */
     2688        4        /*T*                                                         */
     2689        5        /*T***********************************************************/
     2690        6        /*X*     NSO,PLM=3,SQB=Y,AND=Y,ENI=0,SDI=3,MCL=10,CSI=0,ECI=0,IND=0,IAD=3 */
     2691        7        /*F* NAME: KVI$SETINPFLDBGNATR.
     2692        8             PURPOSE: Manipulates the attributes required to create input fields
     2693        9             on a block-mode device.
     2694       10             ENTRY: KVI$RSTINPFLDBGNATR.
     2695       11             ENTRY: KVI$ADJINPFLDBGNATR.
     2696       12             ENTRY: KVI$SETINPFLDENDATR.
     2697       13             ENTRY: KVI$RSTINPFLDENDATR.
     2698       14        */
     2699       15
     2700       16        KVI$SETINPFLDBGNATR: PROC;

     16   0 000000  D380 0000 0000  xent KVI$SETINPFLDBG*LNJ,B5   X6A_AUTO_0
          0 000003       000E 0000                       DC       14,0

     2701       17
     2702       18 S      %INCLUDE KV$GLB;
     2703       19 S      %INCLUDE KV$GLBCTX;
     2704       20 S      %INCLUDE KV$USR;
     2705       21 S      %INCLUDE KV$VDH;
     2706       22 S      %INCLUDE KV_GLBCNS_E;
     2707       23
     2708       24        %KV_ABSGRPRND_E;
     2709       33        %KV$PTR;
     2710       76        %KV$MRD;
     2711      123        %KV$MVD;
     2712      167        %KV$SRD;
     2713      442
     2714      443        %KV$USR_SETATR (NAME=KV_USR_SETATR, STCLASS=SYMREF);
     2715      566        %KV$VDH_PST (NAME=KV_VDH_PST_SPC_VRT, STCLASS=SYMREF);
     2716      640        %KV$USR_SETATR (NAME=KV@USR_SETATR, STCLASS=AUTO);
PL6.E3A0      #003=KVI$SETINPFLDBGNATR File=KVI$INT.:E05TSI                      WED 07/30/97 02:04 Page:512
     2717      763        %EQU USR_SETATR=CHARTEXT('KV@USR_SETATR');
     2718      764
     2719      765        /* Entry is for set, as opposed to reset.                                     */
     2720      766
     2721      767    1   DCL SET BIT(1);
     2722      768
     2723      769        /* Entry is for adjust                                                        */
     2724      770
     2725      771    1   DCL ADJ BIT(1);
     2726      772
     2727      773        /* Word */
     2728      774
     2729      775    1   DCL Y@TMPWRD SBIN;
     2730      776
     2731      777    1   DCL KVO$PST ENTRY(1);
     2732      778    1   DCL KVV$CALUSR ENTRY(1) ALTRET;
     2733      779
     2734      780    1      ADJ = '0'B;

    780   0 000005  8747 0009                            CL       ADJ,AUTO

     2735      781    1      SET = '1'B;

    781   0 000007  8947 0008                            LBT,'8000'X       SET,AUTO
    781   0 000009       8000

     2736      782
     2737      783        /* Reset input field begin attributes.                                        */
     2738      784
     2739      785    1      GOTO BGNATR_SUBCOMMON;               /* LOOK BELOW                         */

    785   0 00000A  0F81 0016                            B        s:797,PREL

     2740      786        %EJECT;
PL6.E3A0      #003=KVI$SETINPFLDBGNATR File=KVI$INT.:E05TSI                      WED 07/30/97 02:04 Page:513
     2741      787    1   KVI$RSTINPFLDBGNATR: ENTRY;

    787   0 00000C  D380 0000 0000  xent KVI$RSTINPFLDBG*LNJ,B5   X6A_AUTO_0
          0 00000F       000E 0000                       DC       14,0

     2742      788    1      SET = '0'B;

    788   0 000011  8747 0008                            CL       SET,AUTO

     2743      789    1      ADJ = '0'B;

    789   0 000013  8747 0009                            CL       ADJ,AUTO

     2744      790
     2745      791        /* Adjust input field begin attributes (after dispinput change).              */
     2746      792
     2747      793    1      GOTO BGNATR_SUBCOMMON;               /* LOOK BELOW                         */

    793   0 000015  0F81 000B                            B        s:797,PREL

     2748      794        %EJECT;
PL6.E3A0      #003=KVI$SETINPFLDBGNATR File=KVI$INT.:E05TSI                      WED 07/30/97 02:04 Page:514
     2749      795    1   KVI$ADJINPFLDBGNATR: ENTRY;

    795   0 000017  D380 0000 0000  xent KVI$ADJINPFLDBG*LNJ,B5   X6A_AUTO_0
          0 00001A       000E 0000                       DC       14,0

     2750      796    1      SET = '0'B;

    796   0 00001C  8747 0008                            CL       SET,AUTO

     2751      797    1      ADJ = '1'B;

    797   0 00001E  8947 0009                            LBT,'8000'X       ADJ,AUTO
    797   0 000020       8000

    797   0                              BGNATR_SUBCOMMONnull
     2752      798        %EJECT;
PL6.E3A0      #003=KVI$SETINPFLDBGNATR File=KVI$INT.:E05TSI                      WED 07/30/97 02:04 Page:515
     2753      799    1   BGNATR_SUBCOMMON: ;                     /* THERE MUST BE AN ALTENTRY ABOVE ME */
     2754      800    1      %USR_SETATR = KV_USR_SETATR;

    800   0 000021  AB80 0000 0000  xsym BGNATR_SUBCOMMONLAB,B2   KV_USR_SETATR
          0 000024  2C00                                 LDV,R2   0
          0 000025  6C08                                 LDV,R6   8
          0 000026  BB87                                 LAB,B3   ,AUTO
          0 000027  3C08                                 LDV,R3   8
          0 000028  0008                                 MMM

     2755      801    1      %USR_SETATR.GRPRND = %KV_MRD.ABSGRPRND(%KV_ABSGRPRND_INPUT);

    801   0 000029  EC80 0000 0000  xsym                 LDB,B6   KV$PTR$
          0 00002C  DCC6 0008                            LDB,B5   8,B6
          0 00002E  E2C5 001B                            LLH,R6   27,B5
          0 000030  6008                                 SOL,R6   8
          0 000031  6048                                 SOR,R6   8
          0 000032  EAC7 0007                            SRM,R6,'00FF'X    KV@USR_SETATR+3,AUTO
          0 000034       00FF

     2756      802    1      %USR_SETATR.PHSPST.CLM = %KV_SRD.PRMVRTCLM;

    802   0 000035  CCC6 000A                            LDB,B4   10,B6
          0 000037  E844 0012                            LDR,R6   18,B4
          0 000039  EF47 0006                            STR,R6   KV@USR_SETATR+2,AUTO

     2757      803    2      IF SET THEN DO;

    803   0 00003B  89C7 0008                            CMZ      SET,AUTO
          0 00003D  0881 000C                            BAGE     s:813,PREL

     2758      804        /* This is a set entry.                                                       */
     2759      805
     2760      806    2         IF %KV_MRD.ATRRQRDSPPST THEN %KV_SRD.PRMVRTCLM = %KV_SRD.PRMVRTCLM+1;

    806   0 00003F  89C5 0018                            CMZ      24,B5
          0 000041  0881 0003                            BAGE     s:809,PREL
PL6.E3A0      #003=KVI$SETINPFLDBGNATR File=KVI$INT.:E05TSI                      WED 07/30/97 02:04 Page:516

    806   0 000043  8AC4 0012                            INC      18,B4

     2761      807        /* The attribute requires a display position.                                 */
     2762      808
     2763      809    2         %USR_SETATR.QLF.ACPALL = '1'B;

    809   0 000045  8947 0007                            LBT,'8000'X       KV@USR_SETATR+3,AUTO
    809   0 000047       8000

     2764      810    2      END; ELSE DO;

    810   0 000048  0F81 0013                            B        s:822,PREL

     2765      811        /* This is the reset or adjust entry.                                        */
     2766      812
     2767      813    2         IF %KV_MRD.ATRRQRDSPPST

    813   0 00004A  89C5 0018                            CMZ      24,B5
          0 00004C  0881 0003                            BAGE     s:817,PREL

     2768      814        /* The attribute requires a display position.                                 */
     2769      815
     2770      816    2         THEN %USR_SETATR.PHSPST.CLM = %USR_SETATR.PHSPST.CLM-1;

    816   0 00004E  88C7 0006                            DEC      KV@USR_SETATR+2,AUTO

     2771      817    2         IF NOT ADJ THEN %USR_SETATR.QLF.PRT = '1'B;

    817   0 000050  89C7 0009                            CMZ      ADJ,AUTO
          0 000052  0801 0006                            BAL      s:819,PREL

    817   0 000054  8947 0007                            LBT,'0400'X       KV@USR_SETATR+3,AUTO
    817   0 000056       0400
          0 000057  0F81 0004                            B        s:822,PREL

     2772      818    3         ELSE DO;
PL6.E3A0      #003=KVI$SETINPFLDBGNATR File=KVI$INT.:E05TSI                      WED 07/30/97 02:04 Page:517

     2773      819    3            %USR_SETATR.QLF.ACPALL='1'B;

    819   0 000059  8947 0007                            LBT,'8000'X       KV@USR_SETATR+3,AUTO
    819   0 00005B       8000

     2774      820    3         END;

     2775      821    2      END /* IF */;

     2776      822    1      %USR_SETATR.PHSPST.LIN =

    822   0 00005C  DCC6 000A                            LDB,B5   10,B6
          0 00005E  E847 0006                            LDR,R6   KV@USR_SETATR+2,AUTO
          0 000060  E345 000D                            DIV,R6   13,B5
          0 000062  EA45 0013                            ADD,R6   19,B5
          0 000064  EF47 0005                            STR,R6   KV@USR_SETATR+1,AUTO

     2777      823    1        %USR_SETATR.PHSPST.CLM/%KV_SRD.WDT+%KV_SRD.CRTVRTLINPHSLIN;
     2778      824    1      %USR_SETATR.PHSPST.CLM =

    824   0 000066  E847 0006                            LDR,R6   KV@USR_SETATR+2,AUTO
          0 000068  70F0                                 DAR,R7   16
          0 000069  F345 000D                            DIV,R7   13,B5
          0 00006B  EA45 000A                            ADD,R6   10,B5
          0 00006D  EF47 0006                            STR,R6   KV@USR_SETATR+2,AUTO

     2779      825    1        MOD(%USR_SETATR.PHSPST.CLM,%KV_SRD.WDT)+%KV_SRD.TOPLFT.CLM;
     2780      826    1      IF NOT %KV_MVD.DISPINPUT THEN %USR_SETATR.GRPRND.HDN = '1'B;

    826   0 00006F  CCC6 0006                            LDB,B4   6,B6
          0 000071  82C4 0015                            LB,'0080'X        21,B4
          0 000073       0080
          0 000074  0501 0004                            BBT      s:829,PREL

    826   0 000076  8947 0007                            LBT,'0040'X       KV@USR_SETATR+3,AUTO
    826   0 000078       0040
PL6.E3A0      #003=KVI$SETINPFLDBGNATR File=KVI$INT.:E05TSI                      WED 07/30/97 02:04 Page:518

     2781      827        /* We aren't to display the input data.                                       */
     2782      828
     2783      829    1      CALL KVV$CALUSR (%USR_SETATR);

    829   0 000079  CBC7 0004                            LAB,B4   KV@USR_SETATR,AUTO
          0 00007B  CFC7 000C                            STB,B4   Y@TMPWRD+2,AUTO
          0 00007D  BBC7 000C                            LAB,B3   Y@TMPWRD+2,AUTO
          0 00007F  CBF0 0100                            LAB,B4   256,IMO
          0 000081  E380 0000 0000  xent                 LNJ,B6   KVV$CALUSR
          0 000084       0001                            DC       s:830,PREL

     2784      830    2      IF NOT SET AND NOT ADJ THEN DO;

    830   0 000085  89C7 0008                            CMZ      SET,AUTO
          0 000087  0801 001F                            BAL      s:837,PREL
          0 000089  89C7 0009                            CMZ      ADJ,AUTO
          0 00008B  0801 001B                            BAL      s:837,PREL

     2785      831    2         %USR_SETATR.DLTFLD = '1'B;

    831   0 00008D  8947 0004                            LBT,'0040'X       KV@USR_SETATR,AUTO
    831   0 00008F       0040

     2786      832    3         IF %KV_SRD.FLDEND.CLM=%KV_SRD.BTMRHT.CLM THEN DO;

    832   0 000090  EC80 0000 0000  xsym                 LDB,B6   KV$PTR$
          0 000093  DCC6 000A                            LDB,B5   10,B6
          0 000095  E845 0011                            LDR,R6   17,B5
          0 000097  E945 000C                            CMR,R6   12,B5
          0 000099  0981 000B                            BNE      s:835+2,PREL

     2787      833    3            %KV_SRD.FLDEND.CLM = %KV_SRD.TOPLFT.CLM;

    833   0 00009B  E845 000A                            LDR,R6   10,B5
          0 00009D  EF45 0011                            STR,R6   17,B5

PL6.E3A0      #003=KVI$SETINPFLDBGNATR File=KVI$INT.:E05TSI                      WED 07/30/97 02:04 Page:519
     2788      834    3            %KV_SRD.FLDEND.LIN = %KV_SRD.FLDEND.LIN+1;

    834   0 00009F  DCC6 000A                            LDB,B5   10,B6
          0 0000A1  8AC5 0010                            INC      16,B5

     2789      835    2         END; ELSE %KV_SRD.FLDEND.CLM = %KV_SRD.FLDEND.CLM+1;

    835   0 0000A3  0F81 0003                            B        s:837,PREL

    835   0 0000A5  8AC5 0011                            INC      17,B5

     2790      836    2      END;

     2791      837    2      IF %KV_SRD.WDT~=%KV_MRD.WDT OR NOT %KV_MRD.NO_FLDTRM THEN DO;

    837   0 0000A7  EC80 0000 0000  xsym                 LDB,B6   KV$PTR$
          0 0000AA  DCC6 000A                            LDB,B5   10,B6
          0 0000AC  CCC6 0008                            LDB,B4   8,B6
          0 0000AE  E845 000D                            LDR,R6   13,B5
          0 0000B0  E944 000B                            CMR,R6   11,B4
          0 0000B2  0981 0006                            BNE      s:838,PREL
          0 0000B4  82C4 0016                            LB,'0080'X        22,B4
          0 0000B6       0080
          0 0000B7  0501 0064                            BBT      s:852,PREL

     2792      838    3         DO WHILE %USR_SETATR.PHSPST.LIN<%KV_SRD.FLDEND.LIN;

    838   0 0000B9  D847 0005                            LDR,R5   KV@USR_SETATR+1,AUTO
          0 0000BB  D945 0010                            CMR,R5   16,B5
          0 0000BD  0881 0045                            BAGE     s:847,PREL

     2793      839    4            IF %USR_SETATR.DLTFLD AND %KV_MRD.NO_FLDTRM THEN DO;

    839   0 0000BF  82C7 0004                            LB,'0040'X        KV@USR_SETATR,AUTO
    839   0 0000C1       0040
          0 0000C2  0581 001D                            BBF      s:843,PREL
          0 0000C4  EC80 0000 0000  xsym                 LDB,B6   KV$PTR$
PL6.E3A0      #003=KVI$SETINPFLDBGNATR File=KVI$INT.:E05TSI                      WED 07/30/97 02:04 Page:520
          0 0000C7  DCC6 0008                            LDB,B5   8,B6
          0 0000C9  82C5 0016                            LB,'0080'X        22,B5
          0 0000CB       0080
          0 0000CC  0581 0013                            BBF      s:843,PREL

     2794      840    4               %USR_SETATR.PHSPST.CLM = %KV_SRD.SRDEND.CLM;

    840   0 0000CE  CCC6 000A                            LDB,B4   10,B6
          0 0000D0  E844 001B                            LDR,R6   27,B4
          0 0000D2  EF47 0006                            STR,R6   KV@USR_SETATR+2,AUTO

     2795      841    4               CALL KVV$CALUSR (%USR_SETATR);

    841   0 0000D4  BBC7 0004                            LAB,B3   KV@USR_SETATR,AUTO
          0 0000D6  BFC7 000C                            STB,B3   Y@TMPWRD+2,AUTO
          0 0000D8  BBC7 000C                            LAB,B3   Y@TMPWRD+2,AUTO
          0 0000DA  CBF0 0100                            LAB,B4   256,IMO
          0 0000DC  E380 0000 0000  xent                 LNJ,B6   KVV$CALUSR
          0 0000DF       0001                            DC       s:843,PREL

     2796      842    4            END;

     2797      843    3            %USR_SETATR.PHSPST.LIN = %USR_SETATR.PHSPST.LIN+1;

    843   0 0000E0  8AC7 0005                            INC      KV@USR_SETATR+1,AUTO

     2798      844    3            %USR_SETATR.PHSPST.CLM = %KV_SRD.ORG.CLM+1;

    844   0 0000E2  EC80 0000 0000  xsym                 LDB,B6   KV$PTR$
          0 0000E5  DCC6 000A                            LDB,B5   10,B6
          0 0000E7  E845 0008                            LDR,R6   8,B5
          0 0000E9  6E01                                 ADV,R6   1
          0 0000EA  EF47 0006                            STR,R6   KV@USR_SETATR+2,AUTO

     2799      845    3            CALL KVV$CALUSR (%USR_SETATR);

    845   0 0000EC  CBC7 0004                            LAB,B4   KV@USR_SETATR,AUTO
PL6.E3A0      #003=KVI$SETINPFLDBGNATR File=KVI$INT.:E05TSI                      WED 07/30/97 02:04 Page:521
          0 0000EE  CFC7 000C                            STB,B4   Y@TMPWRD+2,AUTO
          0 0000F0  BBC7 000C                            LAB,B3   Y@TMPWRD+2,AUTO
          0 0000F2  CBF0 0100                            LAB,B4   256,IMO
          0 0000F4  E380 0000 0000  xent                 LNJ,B6   KVV$CALUSR
          0 0000F7       0001                            DC       s:846,PREL

     2800      846    3         END;

    846   0 0000F8  EC80 0000 0000  xsym                 LDB,B6   KV$PTR$
          0 0000FB  DCC6 000A                            LDB,B5   10,B6
          0 0000FD  E847 0005                            LDR,R6   KV@USR_SETATR+1,AUTO
          0 0000FF  E945 0010                            CMR,R6   16,B5
          0 000101  0801 FFBD                            BAL      s:839,PREL

     2801      847    2         IF NOT %USR_SETATR.DLTFLD OR %KV_SRD.FLDEND.CLM=%KV_SRD.TOPLFT.CLM

    847   0 000103  82C7 0004                            LB,'0040'X        KV@USR_SETATR,AUTO
    847   0 000105       0040
          0 000106  0581 0015                            BBF      s:852,PREL
          0 000108  E845 0011                            LDR,R6   17,B5
          0 00010A  E945 000A                            CMR,R6   10,B5
          0 00010C  0901 000F                            BE       s:852,PREL

     2802      848    2         THEN EXIT;
     2803      849    2         %USR_SETATR.PHSPST.CLM = %KV_SRD.FLDEND.CLM;

    849   0 00010E  EF47 0006                            STR,R6   KV@USR_SETATR+2,AUTO

     2804      850    2         CALL KVV$CALUSR (%USR_SETATR);

    850   0 000110  CBC7 0004                            LAB,B4   KV@USR_SETATR,AUTO
          0 000112  CFC7 000C                            STB,B4   Y@TMPWRD+2,AUTO
          0 000114  BBC7 000C                            LAB,B3   Y@TMPWRD+2,AUTO
          0 000116  CBF0 0100                            LAB,B4   256,IMO
          0 000118  E380 0000 0000  xent                 LNJ,B6   KVV$CALUSR
          0 00011B       0001                            DC       s:852,PREL

PL6.E3A0      #003=KVI$SETINPFLDBGNATR File=KVI$INT.:E05TSI                      WED 07/30/97 02:04 Page:522
     2805      851    2      END;

     2806      852    1      RETURN;

    852   0 00011C  C380 0000 0000  xent                 LNJ,B4   X6A_ARET

     2807      853        %EJECT;
PL6.E3A0      #003=KVI$SETINPFLDBGNATR File=KVI$INT.:E05TSI                      WED 07/30/97 02:04 Page:523
     2808      854    1   KVI$SETINPFLDENDATR: ENTRY;

    854   0 00011F  D380 0000 0000  xent KVI$SETINPFLDEN*LNJ,B5   X6A_AUTO_0
          0 000122       000E 0000                       DC       14,0

     2809      855
     2810      856        /* Set input field end attributes.                                            */
     2811      857
     2812      858    1      SET = '1'B;

    858   0 000124  8947 0008                            LBT,'8000'X       SET,AUTO
    858   0 000126       8000

     2813      859
     2814      860    1      GOTO ENDATR_SUBCOMMON;               /* LOOK BELOW                         */

    860   0 000127  0F81 0008                            B        s:865,PREL

     2815      861        %EJECT;
PL6.E3A0      #003=KVI$SETINPFLDBGNATR File=KVI$INT.:E05TSI                      WED 07/30/97 02:04 Page:524
     2816      862    1   KVI$RSTINPFLDENDATR: ENTRY;

    862   0 000129  D380 0000 0000  xent KVI$RSTINPFLDEN*LNJ,B5   X6A_AUTO_0
          0 00012C       000E 0000                       DC       14,0

     2817      863
     2818      864        /* Reset input field end attributes.                                          */
     2819      865    1      SET = '0'B;

    865   0 00012E  8747 0008                            CL       SET,AUTO

    865   0                              ENDATR_SUBCOMMONnull
     2820      866        %EJECT;
PL6.E3A0      #003=KVI$SETINPFLDBGNATR File=KVI$INT.:E05TSI                      WED 07/30/97 02:04 Page:525
     2821      867    1   ENDATR_SUBCOMMON: ;                     /* THERE MUST BE AN ALTENTRY ABOVE ME */
     2822      868    1      %USR_SETATR = KV_USR_SETATR;

    868   0 000130  AB80 0000 0000  xsym ENDATR_SUBCOMMONLAB,B2   KV_USR_SETATR
          0 000133  2C00                                 LDV,R2   0
          0 000134  6C08                                 LDV,R6   8
          0 000135  BB87                                 LAB,B3   ,AUTO
          0 000136  3C08                                 LDV,R3   8
          0 000137  0008                                 MMM

     2823      869    1      %USR_SETATR.GRPRND = %KV_MRD.ABSGRPRND(%KV_ABSGRPRND_OUTPUT);

    869   0 000138  EC80 0000 0000  xsym                 LDB,B6   KV$PTR$
          0 00013B  DCC6 0008                            LDB,B5   8,B6
          0 00013D  E845 001B                            LDR,R6   27,B5
          0 00013F  EAC7 0007                            SRM,R6,'00FF'X    KV@USR_SETATR+3,AUTO
          0 000141       00FF

     2824      870    1      %USR_SETATR.QLF.PRT = '1'B;

    870   0 000142  8947 0007                            LBT,'0400'X       KV@USR_SETATR+3,AUTO
    870   0 000144       0400

     2825      871    1      %USR_SETATR.PHSPST = %KV_SRD.CRT;

    871   0 000145  CCC6 000A                            LDB,B4   10,B6
          0 000147  8CC4 0015                            LDI      21,B4
          0 000149  8D47 0005                            SDI      KV@USR_SETATR+1,AUTO

     2826      872    1      CALL KVV$CALUSR (%USR_SETATR);

    872   0 00014B  ABC7 0004                            LAB,B2   KV@USR_SETATR,AUTO
          0 00014D  AFC7 000C                            STB,B2   Y@TMPWRD+2,AUTO
          0 00014F  BBC7 000C                            LAB,B3   Y@TMPWRD+2,AUTO
          0 000151  CBF0 0100                            LAB,B4   256,IMO
          0 000153  E380 0000 0000  xent                 LNJ,B6   KVV$CALUSR
          0 000156       0001                            DC       s:873,PREL
PL6.E3A0      #003=KVI$SETINPFLDBGNATR File=KVI$INT.:E05TSI                      WED 07/30/97 02:04 Page:526

     2827      873    2      IF SET THEN DO;

    873   0 000157  89C7 0008                            CMZ      SET,AUTO
          0 000159  0881 0071                            BAGE     s:903,PREL

     2828      874        /* This is the set entry.                                                     */
     2829      875
     2830      876    2         IF %USR_SETATR.PHSPST_PST>%KV_SRD.HI_NONBLN_PST

    876   0 00015B  EC80 0000 0000  xsym                 LDB,B6   KV$PTR$
          0 00015E  DCC6 000A                            LDB,B5   10,B6
          0 000160  8CC7 0005                            LDI      KV@USR_SETATR+1,AUTO
          0 000162  84C5 0017                            SID      23,B5
          0 000164  6801 0009                            BLZ,R6   s:882,PREL
          0 000166  6A01 0003                            BGZ,R6   s:881,PREL
          0 000168  7901 0005                            BEZ,R7   s:882,PREL

     2831      877        /* The position of the end of the field + 1 is beyond the hi
     2832      878           non-blank position. Adjust ho non-blank to field end + 1
     2833      879           so erases and the placement of text after the field work ok.               */
     2834      880
     2835      881    2         THEN %KV_SRD.HI_NONBLN = %USR_SETATR.PHSPST;

    881   0 00016A  8CC7 0005                            LDI      KV@USR_SETATR+1,AUTO
          0 00016C  8D45 0017                            SDI      23,B5

     2836      882    2         %USR_SETATR.PHSPST.CLM = %USR_SETATR.PHSPST.CLM-1;

    882   0 00016E  88C7 0006                            DEC      KV@USR_SETATR+2,AUTO

     2837      883    3         IF %USR_SETATR.PHSPST.CLM<%KV_SRD.TOPLFT.CLM THEN DO;

    883   0 000170  DCC6 000A                            LDB,B5   10,B6
          0 000172  E847 0006                            LDR,R6   KV@USR_SETATR+2,AUTO
          0 000174  E945 000A                            CMR,R6   10,B5
          0 000176  0881 0007                            BAGE     s:887,PREL
PL6.E3A0      #003=KVI$SETINPFLDBGNATR File=KVI$INT.:E05TSI                      WED 07/30/97 02:04 Page:527

     2838      884    3            %USR_SETATR.PHSPST.LIN = %USR_SETATR.PHSPST.LIN-1;

    884   0 000178  88C7 0005                            DEC      KV@USR_SETATR+1,AUTO

     2839      885    3            %USR_SETATR.PHSPST.CLM = %KV_SRD.BTMRHT.CLM;

    885   0 00017A  E845 000C                            LDR,R6   12,B5
          0 00017C  EF47 0006                            STR,R6   KV@USR_SETATR+2,AUTO

     2840      886    3         END /* IF */;

     2841      887    2         %KV_SRD.FLDEND = %USR_SETATR.PHSPST;

    887   0 00017E  8CC7 0005                            LDI      KV@USR_SETATR+1,AUTO
          0 000180  8D45 0010                            SDI      16,B5

     2842      888    2         IF %KV_SRD.ORG.CLM~=0 AND %KV_MRD.NO_FLDTRM

    888   0 000182  DCC6 000A                            LDB,B5   10,B6
          0 000184  D845 0008                            LDR,R5   8,B5
          0 000186  5901 0008                            BEZ,R5   s:888+13,PREL
          0 000188  CCC6 0008                            LDB,B4   8,B6
          0 00018A  82C4 0016                            LB,'0080'X        22,B4
          0 00018C       0080
          0 00018D  0501 000B                            BBT      s:890,PREL
          0 00018F  CCC6 0008                            LDB,B4   8,B6
          0 000191  C845 001B                            LDR,R4   27,B5
          0 000193  4801 0005                            BLZ,R4   s:890,PREL
          0 000195  C944 000B                            CMR,R4   11,B4
          0 000197  0901 004E                            BE       s:910,PREL

     2843      889    3           OR %KV_SRD.SRDEND.CLM~=%KV_MRD.WDT THEN DO;

     2844      890    3            Y@TMPWRD = %KV_SRD.PRMVRTCLM;

    890   0 000199  C845 0012                            LDR,R4   18,B5
PL6.E3A0      #003=KVI$SETINPFLDBGNATR File=KVI$INT.:E05TSI                      WED 07/30/97 02:04 Page:528
          0 00019B  CF47 000A                            STR,R4   Y@TMPWRD,AUTO

     2845      891    3            IF %KV_MRD.ATRRQRDSPPST THEN Y@TMPWRD = Y@TMPWRD-1;

    891   0 00019D  89C4 0018                            CMZ      24,B4
          0 00019F  0881 0003                            BAGE     s:892,PREL

    891   0 0001A1  88C7 000A                            DEC      Y@TMPWRD,AUTO

     2846      892    3            Y@TMPWRD = %KV_SRD.CRTVRTLINPHSLIN+Y@TMPWRD/%KV_SRD.WDT;

    892   0 0001A3  B847 000A                            LDR,R3   Y@TMPWRD,AUTO
          0 0001A5  B345 000D                            DIV,R3   13,B5
          0 0001A7  BA45 0013                            ADD,R3   19,B5
          0 0001A9  BF47 000A                            STR,R3   Y@TMPWRD,AUTO

     2847      893    3            %USR_SETATR.QLF.ACPNMR = '1'B; /* Set autoskip                       */

    893   0 0001AB  8947 0007                            LBT,'1000'X       KV@USR_SETATR+3,AUTO
    893   0 0001AD       1000

     2848      894    3            %USR_SETATR.PHSPST.CLM = %KV_SRD.SRDEND.CLM;

    894   0 0001AE  A845 001B                            LDR,R2   27,B5
          0 0001B0  AF47 0006                            STR,R2   KV@USR_SETATR+2,AUTO

     2849      895    4            DO WHILE Y@TMPWRD<%USR_SETATR.PHSPST.LIN;

    895   0 0001B2  B947 0005                            CMR,R3   KV@USR_SETATR+1,AUTO
          0 0001B4  0881 0031                            BAGE     s:910,PREL

     2850      896    4               %USR_SETATR.PHSPST.LIN = %USR_SETATR.PHSPST.LIN-1;

    896   0 0001B6  88C7 0005                            DEC      KV@USR_SETATR+1,AUTO

     2851      897    4               CALL KVV$CALUSR (%USR_SETATR);

PL6.E3A0      #003=KVI$SETINPFLDBGNATR File=KVI$INT.:E05TSI                      WED 07/30/97 02:04 Page:529
    897   0 0001B8  EBC7 0004                            LAB,B6   KV@USR_SETATR,AUTO
          0 0001BA  EFC7 000C                            STB,B6   Y@TMPWRD+2,AUTO
          0 0001BC  BBC7 000C                            LAB,B3   Y@TMPWRD+2,AUTO
          0 0001BE  CBF0 0100                            LAB,B4   256,IMO
          0 0001C0  E380 0000 0000  xent                 LNJ,B6   KVV$CALUSR
          0 0001C3       0001                            DC       s:898,PREL

     2852      898    4            END;

    898   0 0001C4  E847 000A                            LDR,R6   Y@TMPWRD,AUTO
          0 0001C6  E947 0005                            CMR,R6   KV@USR_SETATR+1,AUTO
          0 0001C8  086E                                 BAL      s:896,SPREL

     2853      899    3         END;

     2854      900    2      END; ELSE DO;

    900   0 0001C9  0F81 001C                            B        s:910,PREL

     2855      901        /* This is the reset entry.                                                   */
     2856      902
     2857      903    2         IF %KV_MRD.ATRRQRDSPPST

    903   0 0001CB  EC80 0000 0000  xsym                 LDB,B6   KV$PTR$
          0 0001CE  DCC6 0008                            LDB,B5   8,B6
          0 0001D0  89C5 0018                            CMZ      24,B5
          0 0001D2  0881 000A                            BAGE     s:908,PREL

     2858      904        /* The attribute declaration requires a display position.
     2859      905           Skip beyond the attribute.                                                 */
     2860      906
     2861      907    2         THEN CALL KVO$PST (KV_VDH_PST_SPC_VRT);

    907   0 0001D4  BB80 0000 0000  01                   LAB,B3   0
          0 0001D7  CBF0 0100                            LAB,B4   256,IMO
          0 0001D9  E380 0000 0000  xent                 LNJ,B6   KVO$PST
          0 0001DC       0001                            DC       s:908,PREL
PL6.E3A0      #003=KVI$SETINPFLDBGNATR File=KVI$INT.:E05TSI                      WED 07/30/97 02:04 Page:530

     2862      908    2         %KV_SRD.FLDEND = '0'B;

    908   0 0001DD  EC80 0000 0000  xsym                 LDB,B6   KV$PTR$
          0 0001E0  DCC6 000A                            LDB,B5   10,B6
          0 0001E2  8745 0010                            CL       16,B5
          0 0001E4  8745 0011                            CL       17,B5

     2863      909    2      END /* IF */;

     2864      910    1   END;

    910   0 0001E6  C380 0000 0000  xent                 LNJ,B4   X6A_ARET
     2865      911        %EOD;

PL6.E3A0      #003=KVI$SETINPFLDBGNATR File=KVI$INT.:E05TSI                      WED 07/30/97 02:04 Page:531
--  Include file information  --

   KV_PRMID_E.:E05TOU  was found in the system file and is never referenced.
   KV_GLBCNS_E.:E05TOU  was found in the system file and is referenced.
   KV$VDO.:E05TOU  was found in the system file and is never referenced.
   KV$VDH.:E05TOU  was found in the system file and is referenced.
   KV$USR.:E05TOU  was found in the system file and is referenced.
   KV$SND.:E05TOU  was found in the system file and is never referenced.
   KV$INT.:E05TOU  was found in the system file and is never referenced.
   KV$GLBCTX.:E05TOU  was found in the system file and is referenced.
   KV$GLB.:E05TOU  was found in the system file and is referenced.
   G_LCP6_E.:E05TOU  was found in the system file and is never referenced.
   GT_LCP6_M.:E05TOU  was found in the system file and is never referenced.
   KI_CP6.:E05TOU  was found in the system file and is never referenced.
   GF_LCP6_M.:E05TOU  was found in the system file and is never referenced.
   GM_LCP6_M.:E05TOU  was found in the system file and is never referenced.
   GU_LCP6_M.:E05TOU  was found in the system file and is never referenced.
   GJ_LCP6_M.:E05TOU  was found in the system file and is never referenced.
   GH_LCP6_M.:E05TOU  was found in the system file and is never referenced.
      No diagnostics issued in procedure KVI$SETINPFLDBGNATR.
PL6.E3A0      #003=KVI$SETINPFLDBGNATR File=KVI$INT.:E05TSI                      WED 07/30/97 02:04 Page:532

 **** Variables and constants ****

  ****  Auto variables  ****

  ****  Scalars and arrays  ****
HexLoc.c.b A Datatyp(siz) R M Lvl/name                 HexLoc.c.b A Datatyp(siz) R M Lvl/name

     9-0-0/b BIT         r     1 ADJ                        4-0-0/w STRC(64)    r     1 KV@USR_SETATR
     8-0-0/b BIT         r     1 SET                        A-0-0/w SBIN(16)    r     1 Y@TMPWRD

  ****  SYMREF variables  ****

  ****  Scalars and arrays  ****
HexLoc.c.b A Datatyp(siz) R M Lvl/name                 HexLoc.c.b A Datatyp(siz) R M Lvl/name

     0-0-0/w PTR         r     1 KV$PTR$                    0-0-0/w STRC(64)    r     1 KV_USR_SETATR
     0-0-0/w STRC(64)    r     1 KV_VDH_PST_SPC_VRT

  ****  BASED and DCB variables  ****

  ****  Scalars and arrays  ****
HexLoc.c.b A Datatyp(siz) R M Lvl/name                 HexLoc.c.b A Datatyp(siz) R M Lvl/name

     0-0-0/w STRC(512)   r     1 KV$MRD                     0-0-0/w STRC(512)   r     1 KV$MVD
     0-0-0/w STRC(480)   r     1 KV$PTR                     0-0-0/w STRC(496)   r     1 KV$SRD


   Procedure KVI$SETINPFLDBGNATR requires 489 words for executable code.
   Procedure KVI$SETINPFLDBGNATR requires 14 words of local(AUTO) storage.
PL6.E3A0      #003=KVI$SETINPFLDBGNATR File=KVI$INT.:E05TSI                      WED 07/30/97 02:04 Page:533
          *** CROSS REFERENCE LISTING ***
**     DENOTES     IDENTIFIER DEFINITION
<<                 IDENTIFIER'S VALUE SET
>>                 IDENTIFIER'S VALUE USED
<>                 IDENTIFIER SET AND/OR USED
--                 IDENTIFIER REFERENCED
PL6.E3A0      #003=KVI$SETINPFLDBGNATR File=KVI$INT.:E05TSI                      WED 07/30/97 02:04 Page:534
          MINI XREF LISTING

ADJ
       771**DCL       780<<ASSIGN    789<<ASSIGN    797<<ASSIGN    817>>IF        830>>IF
BGNATR_SUBCOMMON
       797**LABEL     785--GOTO      793--GOTO
ENDATR_SUBCOMMON
       865**LABEL     860--GOTO
KV$MRD.ABSGRPRND
       116**DCL       801>>ASSIGN    869>>ASSIGN
KV$MRD.ATRRQRDSPPST
       110**DCL       806>>IF        813>>IF        891>>IF        903>>IF
KV$MRD.NO_FLDTRM
       103**DCL       837>>IF        839>>IF        888>>IF
KV$MRD.WDT
        99**DCL       837>>IF        888>>IF
KV$MVD.DISPINPUT
       150**DCL       826>>IF
KV$PTR.INPCNDPND
        60**DCL        69--REDEF      73--REDEF
KV$PTR.LINLST$
        56**DCL        57--REDEF
KV$PTR.MRD$
        55**DCL       801>>ASSIGN    806>>IF        813>>IF        837>>IF        837>>IF        839>>IF
       869>>ASSIGN    888>>IF        888>>IF        891>>IF        903>>IF
KV$PTR.MVD$
        55**DCL       826>>IF
KV$PTR.SRD$
        56**DCL       802>>ASSIGN    806>>ASSIGN    806>>ASSIGN    822>>ASSIGN    822>>ASSIGN    824>>ASSIGN
       824>>ASSIGN    832>>IF        832>>IF        833>>ASSIGN    833>>ASSIGN    834>>ASSIGN    834>>ASSIGN
       835>>ASSIGN    835>>ASSIGN    837>>IF        838>>DOWHILE   840>>ASSIGN    844>>ASSIGN    847>>IF
       847>>IF        849>>ASSIGN    871>>ASSIGN    876>>IF        881>>ASSIGN    883>>IF        885>>ASSIGN
       887>>ASSIGN    888>>IF        888>>IF        890>>ASSIGN    892>>ASSIGN    892>>ASSIGN    894>>ASSIGN
       908>>ASSIGN
PL6.E3A0      #003=KVI$SETINPFLDBGNATR File=KVI$INT.:E05TSI                      WED 07/30/97 02:04 Page:535
KV$PTR$
        48**DCL        54--IMP-PTR   801>>ASSIGN    802>>ASSIGN    806>>IF        806>>ASSIGN    806>>ASSIGN
       813>>IF        822>>ASSIGN    822>>ASSIGN    824>>ASSIGN    824>>ASSIGN    826>>IF        832>>IF
       832>>IF        833>>ASSIGN    833>>ASSIGN    834>>ASSIGN    834>>ASSIGN    835>>ASSIGN    835>>ASSIGN
       837>>IF        837>>IF        837>>IF        838>>DOWHILE   839>>IF        840>>ASSIGN    844>>ASSIGN
       847>>IF        847>>IF        849>>ASSIGN    869>>ASSIGN    871>>ASSIGN    876>>IF        881>>ASSIGN
       883>>IF        885>>ASSIGN    887>>ASSIGN    888>>IF        888>>IF        888>>IF        888>>IF
       890>>ASSIGN    891>>IF        892>>ASSIGN    892>>ASSIGN    894>>ASSIGN    903>>IF        908>>ASSIGN
KV$SRD.BTMRHT
       284**DCL       289--REDEF
KV$SRD.BTMRHT.CLM
       286**DCL       832>>IF        885>>ASSIGN
KV$SRD.CRT
       360**DCL       365--REDEF     871>>ASSIGN
KV$SRD.CRTVRTLINPHSLIN
       332**DCL       822>>ASSIGN    892>>ASSIGN
KV$SRD.FLDEND
       324**DCL       329--REDEF     887<<ASSIGN    908<<ASSIGN
KV$SRD.FLDEND.CLM
       326**DCL       832>>IF        833<<ASSIGN    835<<ASSIGN    835>>ASSIGN    847>>IF        849>>ASSIGN
KV$SRD.FLDEND.LIN
       326**DCL       834<<ASSIGN    834>>ASSIGN    838>>DOWHILE
KV$SRD.HI_NONBLN
       394**DCL       399--REDEF     881<<ASSIGN
KV$SRD.HI_NONBLN_PST
       399**DCL       876>>IF
KV$SRD.ORG
       216**DCL       221--REDEF
KV$SRD.ORG.CLM
       218**DCL       844>>ASSIGN    888>>IF
KV$SRD.PRMVRTCLM
       332**DCL       802>>ASSIGN    806<<ASSIGN    806>>ASSIGN    890>>ASSIGN
KV$SRD.SRDEND
       429**DCL       434--REDEF
KV$SRD.SRDEND.CLM
       431**DCL       840>>ASSIGN    888>>IF        894>>ASSIGN
PL6.E3A0      #003=KVI$SETINPFLDBGNATR File=KVI$INT.:E05TSI                      WED 07/30/97 02:04 Page:536
KV$SRD.TOPLFT
       250**DCL       255--REDEF
KV$SRD.TOPLFT.CLM
       252**DCL       824>>ASSIGN    833>>ASSIGN    847>>IF        883>>IF
KV$SRD.WDT
       292**DCL       822>>ASSIGN    824>>ASSIGN    837>>IF        892>>ASSIGN
KV@USR_SETATR
       667**DCL       800<<ASSIGN    829<>CALL      841<>CALL      845<>CALL      850<>CALL      868<<ASSIGN
       872<>CALL      897<>CALL
KV@USR_SETATR.DLTFLD
       673**DCL       831<<ASSIGN    839>>IF        847>>IF
KV@USR_SETATR.GRPRND
       756**DCL       801<<ASSIGN    869<<ASSIGN
KV@USR_SETATR.GRPRND.HDN
       758**DCL       826<<ASSIGN
KV@USR_SETATR.PHSPST
       700**DCL       705--REDEF     871<<ASSIGN    881>>ASSIGN    887>>ASSIGN
KV@USR_SETATR.PHSPST.CLM
       702**DCL       802<<ASSIGN    816<<ASSIGN    816>>ASSIGN    822>>ASSIGN    824<<ASSIGN    824>>ASSIGN
       840<<ASSIGN    844<<ASSIGN    849<<ASSIGN    882<<ASSIGN    882>>ASSIGN    883>>IF        885<<ASSIGN
       894<<ASSIGN
KV@USR_SETATR.PHSPST.LIN
       702**DCL       822<<ASSIGN    838>>DOWHILE   843<<ASSIGN    843>>ASSIGN    884<<ASSIGN    884>>ASSIGN
       895>>DOWHILE   896<<ASSIGN    896>>ASSIGN
KV@USR_SETATR.PHSPST_PST
       705**DCL       876>>IF
KV@USR_SETATR.QLF.ACPALL
       731**DCL       809<<ASSIGN    819<<ASSIGN
KV@USR_SETATR.QLF.ACPNMR
       731**DCL       893<<ASSIGN
KV@USR_SETATR.QLF.PRT
       732**DCL       817<<ASSIGN    870<<ASSIGN
KVO$PST
       777**DCL-ENT   907--CALL
KVV$CALUSR
       778**DCL-ENT   829--CALL      841--CALL      845--CALL      850--CALL      872--CALL      897--CALL
PL6.E3A0      #003=KVI$SETINPFLDBGNATR File=KVI$INT.:E05TSI                      WED 07/30/97 02:04 Page:537
KV_USR_SETATR
       470**DCL       800>>ASSIGN    868>>ASSIGN
KV_USR_SETATR.PHSPST
       503**DCL       508--REDEF
KV_VDH_PST_SPC_VRT
       593**DCL       907<>CALL
KV_VDH_PST_SPC_VRT.PSTVAL
       631**DCL       636--REDEF
SET
       767**DCL       781<<ASSIGN    788<<ASSIGN    796<<ASSIGN    803>>IF        830>>IF        858<<ASSIGN
       865<<ASSIGN    873>>IF
Y@TMPWRD
       775**DCL       890<<ASSIGN    891<<ASSIGN    891>>ASSIGN    892<<ASSIGN    892>>ASSIGN    895>>DOWHILE

PL6.E3A0      #004=KVI$INTINPOPRX File=KVI$INT.:E05TSI                           WED 07/30/97 02:04 Page:538
     2866        1        /*T***********************************************************/
     2867        2        /*T*                                                         */
     2868        3        /*T* Copyright (c) Bull HN Information Systems Inc., 1997    */
     2869        4        /*T*                                                         */
     2870        5        /*T***********************************************************/
     2871        6        /*X*     NSO,PLM=3,SQB=Y,AND=Y,ENI=0,SDI=3,MCL=10,CSI=0,ECI=0,IND=0,IAD=3 */
     2872        7        /*F* NAME: KVI$INTINPOPRX
     2873        8             PURPOSE: Set up a call to KVI$INTINPOPR to interpret the input
     2874        9             operators in the system input function table whose index is the
     2875       10             (SBIN) parameter. */
     2876       11
     2877       12        KVI$INTINPOPRX: PROC(INPOPRX);
     2878       13
     2879       14 S      %INCLUDE KV$GLB;
     2880       15 S      %INCLUDE KV$GLBCTX;
     2881       16        %INCLUDE KV$INPFNC;
     2882      575 S      %INCLUDE KV$VDH;
     2883      576        %KV$PTR;
     2884      619        %KV$MVD;
     2885      663        %KV$INPFNCTBL;
     2886      747        %KV$VDH_INTINPOPR (NAME=VDH_INTINPOPR, STCLASS=);
     2887      783        %KV$VDH_INTINPOPR (NAME=KV_VDH_INTINPOPR, STCLASS=SYMREF);
     2888      819
     2889      820    1   DCL INPOPRX SBIN;
     2890      821
     2891      822    1   DCL KVI$INTINPOPR ENTRY(1);
     2892      823
     2893      824        /* Set up the FPT. */
     2894      825
     2895      826    1      VDH_INTINPOPR = KV_VDH_INTINPOPR;
     2896      827    1      VDH_INTINPOPR.INPFNCTBL$ = %KV_MVD.SSTINPFNCTBL$;
     2897      828    1      VDH_INTINPOPR.INPOPRX = INPOPRX +
     2898      829    1        VDH_INTINPOPR.INPFNCTBL$->KV$INPFNCTBL.INPOPROFS;
     2899      830    1      CALL KVI$INTINPOPR (VDH_INTINPOPR);
     2900      831    1      RETURN;
     2901      832    1   END;
     2902      833        %EOD;
PL6.E3A0      #004=KVI$INTINPOPRX File=KVI$INT.:E05TSI                           WED 07/30/97 02:04 Page:539

PL6.E3A0      #004=KVI$INTINPOPRX File=KVI$INT.:E05TSI                           WED 07/30/97 02:04 Page:540
--  Include file information  --

   KV$INPFNC.:E05TOU  is referenced.
   KV_PRMID_E.:E05TOU  was found in the system file and is never referenced.
   KV_GLBCNS_E.:E05TOU  was found in the system file and is never referenced.
   KV$VDO.:E05TOU  was found in the system file and is never referenced.
   KV$VDH.:E05TOU  was found in the system file and is referenced.
   KV$USR.:E05TOU  was found in the system file and is never referenced.
   KV$SND.:E05TOU  was found in the system file and is never referenced.
   KV$INT.:E05TOU  was found in the system file and is never referenced.
   KV$GLBCTX.:E05TOU  was found in the system file and is referenced.
   KV$GLB.:E05TOU  was found in the system file and is referenced.
   G_LCP6_E.:E05TOU  was found in the system file and is never referenced.
   GT_LCP6_M.:E05TOU  was found in the system file and is never referenced.
   KI_CP6.:E05TOU  was found in the system file and is never referenced.
   GF_LCP6_M.:E05TOU  was found in the system file and is never referenced.
   GM_LCP6_M.:E05TOU  was found in the system file and is never referenced.
   GU_LCP6_M.:E05TOU  was found in the system file and is never referenced.
   GJ_LCP6_M.:E05TOU  was found in the system file and is never referenced.
   GH_LCP6_M.:E05TOU  was found in the system file and is never referenced.
      No diagnostics issued in procedure KVI$INTINPOPRX.

   Procedure KVI$INTINPOPRX requires 44 words for executable code.
   Procedure KVI$INTINPOPRX requires 14 words of local(AUTO) storage.

PL6.E3A0      #004=KVI$INTINPOPRX File=KVI$INT.:E05TSI                           WED 07/30/97 02:04 Page:541

 Object Unit name= KVI$INTINPOPRX                             File name= KVI$INT.:E05TOU
 UTS= JUL 30 '97 02:04:58.80 WED                              Compiler= PL-6/E31         Sev=      00
 SharedLib= :SHARED_LCP6_SYSTEM                               Alt SharedLib=


    ****  Control sections  ****

 Sect   Type Bound  Init  Size HexSiz  Section name
    0   Proc  even  none    44     2C  KVI$INTINPOPRX

    ****  Entry defs  ****

                              Check   Calling
                             calling  sequence
  Sect HexLoc Primary Altret sequence   type   Parms  Name
     0      0   yes            yes      Std        1  KVI$INTINPOPRX

  ****  Entry refs  ****

         Check        Calling
        calling       sequence
Altret sequence SRef   type   Args  Name
         yes           Std       1 KVI$INTINPOPR
                       nStd      0 X6A_AUTO_1
                       nStd      0 X6A_ARET

  ****  Data refs  ****

  Flags:  r = read only, s = secondary
Flgs Name                             Flgs Name                             Flgs Name
     KV$PTR$                               KV_VDH_INTINPOPR                 r    G$ROS$
PL6.E3A0      #004=KVI$INTINPOPRX File=KVI$INT.:E05TSI                           WED 07/30/97 02:04 Page:542


     2866        1        /*T***********************************************************/
     2867        2        /*T*                                                         */
     2868        3        /*T* Copyright (c) Bull HN Information Systems Inc., 1997    */
     2869        4        /*T*                                                         */
     2870        5        /*T***********************************************************/
     2871        6        /*X*     NSO,PLM=3,SQB=Y,AND=Y,ENI=0,SDI=3,MCL=10,CSI=0,ECI=0,IND=0,IAD=3 */
     2872        7        /*F* NAME: KVI$INTINPOPRX
     2873        8             PURPOSE: Set up a call to KVI$INTINPOPR to interpret the input
     2874        9             operators in the system input function table whose index is the
     2875       10             (SBIN) parameter. */
     2876       11
     2877       12        KVI$INTINPOPRX: PROC(INPOPRX);

     12   0 000000  D380 0000 0000  xent KVI$INTINPOPRX  LNJ,B5   X6A_AUTO_1
          0 000003       000E 0001                       DC       14,1

     2878       13
     2879       14 S      %INCLUDE KV$GLB;
     2880       15 S      %INCLUDE KV$GLBCTX;
     2881       16        %INCLUDE KV$INPFNC;
     2882      575 S      %INCLUDE KV$VDH;
     2883      576        %KV$PTR;
     2884      619        %KV$MVD;
     2885      663        %KV$INPFNCTBL;
     2886      747        %KV$VDH_INTINPOPR (NAME=VDH_INTINPOPR, STCLASS=);
     2887      783        %KV$VDH_INTINPOPR (NAME=KV_VDH_INTINPOPR, STCLASS=SYMREF);
     2888      819
     2889      820    1   DCL INPOPRX SBIN;
     2890      821
     2891      822    1   DCL KVI$INTINPOPR ENTRY(1);
     2892      823
     2893      824        /* Set up the FPT. */
     2894      825
     2895      826    1      VDH_INTINPOPR = KV_VDH_INTINPOPR;

    826   0 000005  AB80 0000 0000  xsym                 LAB,B2   KV_VDH_INTINPOPR
PL6.E3A0      #004=KVI$INTINPOPRX File=KVI$INT.:E05TSI                           WED 07/30/97 02:04 Page:543
          0 000008  2C00                                 LDV,R2   0
          0 000009  6C0C                                 LDV,R6   12
          0 00000A  BB87                                 LAB,B3   ,AUTO
          0 00000B  3C0C                                 LDV,R3   12
          0 00000C  0008                                 MMM

     2896      827    1      VDH_INTINPOPR.INPFNCTBL$ = %KV_MVD.SSTINPFNCTBL$;

    827   0 00000D  EC80 0000 0000  xsym                 LDB,B6   KV$PTR$
          0 000010  DCC6 0006                            LDB,B5   6,B6
          0 000012  CCC5 000A                            LDB,B4   10,B5
          0 000014  CFC7 0007                            STB,B4   VDH_INTINPOPR+1,AUTO

     2897      828    1      VDH_INTINPOPR.INPOPRX = INPOPRX +

    828   0 000016  DCC7 0004                            LDB,B5   @INPOPRX,AUTO
          0 000018  E805                                 LDR,R6   ,B5
          0 000019  EA44 002C                            ADD,R6   44,B4
          0 00001B  EF47 000A                            STR,R6   VDH_INTINPOPR+4,AUTO

     2898      829    1        VDH_INTINPOPR.INPFNCTBL$->KV$INPFNCTBL.INPOPROFS;
     2899      830    1      CALL KVI$INTINPOPR (VDH_INTINPOPR);

    830   0 00001D  ABC7 0006                            LAB,B2   VDH_INTINPOPR,AUTO
          0 00001F  AFC7 000C                            STB,B2   VDH_INTINPOPR+6,AUTO
          0 000021  BBC7 000C                            LAB,B3   VDH_INTINPOPR+6,AUTO
          0 000023  CBF0 0100                            LAB,B4   256,IMO
          0 000025  E380 0000 0000  xent                 LNJ,B6   KVI$INTINPOPR
          0 000028       0001                            DC       s:831,PREL

     2900      831    1      RETURN;

    831   0 000029  C380 0000 0000  xent                 LNJ,B4   X6A_ARET
     2901      832    1   END;
     2902      833        %EOD;

PL6.E3A0      #004=KVI$INTINPOPRX File=KVI$INT.:E05TSI                           WED 07/30/97 02:04 Page:544
--  Include file information  --

   KV$INPFNC.:E05TOU  is referenced.
   KV_PRMID_E.:E05TOU  was found in the system file and is never referenced.
   KV_GLBCNS_E.:E05TOU  was found in the system file and is never referenced.
   KV$VDO.:E05TOU  was found in the system file and is never referenced.
   KV$VDH.:E05TOU  was found in the system file and is referenced.
   KV$USR.:E05TOU  was found in the system file and is never referenced.
   KV$SND.:E05TOU  was found in the system file and is never referenced.
   KV$INT.:E05TOU  was found in the system file and is never referenced.
   KV$GLBCTX.:E05TOU  was found in the system file and is referenced.
   KV$GLB.:E05TOU  was found in the system file and is referenced.
   G_LCP6_E.:E05TOU  was found in the system file and is never referenced.
   GT_LCP6_M.:E05TOU  was found in the system file and is never referenced.
   KI_CP6.:E05TOU  was found in the system file and is never referenced.
   GF_LCP6_M.:E05TOU  was found in the system file and is never referenced.
   GM_LCP6_M.:E05TOU  was found in the system file and is never referenced.
   GU_LCP6_M.:E05TOU  was found in the system file and is never referenced.
   GJ_LCP6_M.:E05TOU  was found in the system file and is never referenced.
   GH_LCP6_M.:E05TOU  was found in the system file and is never referenced.
      No diagnostics issued in procedure KVI$INTINPOPRX.
PL6.E3A0      #004=KVI$INTINPOPRX File=KVI$INT.:E05TSI                           WED 07/30/97 02:04 Page:545

 **** Variables and constants ****

  ****  Auto variables  ****

  ****  Scalars and arrays  ****
HexLoc.c.b A Datatyp(siz) R M Lvl/name                 HexLoc.c.b A Datatyp(siz) R M Lvl/name

     4-0-0/w PTR         r     1 @INPOPRX                  *0-0-0/w SBIN(16)    r     1 INPOPRX
     6-0-0/w STRC(96)    r     1 VDH_INTINPOPR

  ****  SYMREF variables  ****

  ****  Scalars and arrays  ****
HexLoc.c.b A Datatyp(siz) R M Lvl/name                 HexLoc.c.b A Datatyp(siz) R M Lvl/name

     0-0-0/w PTR         r     1 KV$PTR$                    0-0-0/w STRC(96)    r     1 KV_VDH_INTINPOPR

  ****  BASED and DCB variables  ****

  ****  Scalars and arrays  ****
HexLoc.c.b A Datatyp(siz) R M Lvl/name                 HexLoc.c.b A Datatyp(siz) R M Lvl/name

     0-0-0/w STRC(736)   r     1 KV$INPFNCTBL               0-0-0/w STRC(512)   r     1 KV$MVD
     0-0-0/w STRC(480)   r     1 KV$PTR


   Procedure KVI$INTINPOPRX requires 44 words for executable code.
   Procedure KVI$INTINPOPRX requires 14 words of local(AUTO) storage.
PL6.E3A0      #004=KVI$INTINPOPRX File=KVI$INT.:E05TSI                           WED 07/30/97 02:04 Page:546
          *** CROSS REFERENCE LISTING ***
**     DENOTES     IDENTIFIER DEFINITION
<<                 IDENTIFIER'S VALUE SET
>>                 IDENTIFIER'S VALUE USED
<>                 IDENTIFIER SET AND/OR USED
--                 IDENTIFIER REFERENCED
PL6.E3A0      #004=KVI$INTINPOPRX File=KVI$INT.:E05TSI                           WED 07/30/97 02:04 Page:547
          MINI XREF LISTING

INPOPRX
       820**DCL        12--PROC      828>>ASSIGN
KV$INPFNCTBL.INPOPROFS
       730**DCL       828>>ASSIGN
KV$MVD.SSTINPFNCTBL$
       643**DCL       827>>ASSIGN
KV$PTR.INPCNDPND
       603**DCL       612--REDEF     616--REDEF
KV$PTR.LINLST$
       599**DCL       600--REDEF
KV$PTR.MVD$
       598**DCL       827>>ASSIGN
KV$PTR$
       591**DCL       597--IMP-PTR   827>>ASSIGN
KVI$INTINPOPR
       822**DCL-ENT   830--CALL
KV_VDH_INTINPOPR
       810**DCL       826>>ASSIGN
VDH_INTINPOPR
       774**DCL       826<<ASSIGN    830<>CALL
VDH_INTINPOPR.INPFNCTBL$
       780**DCL       827<<ASSIGN    828>>ASSIGN
VDH_INTINPOPR.INPOPRX
       780**DCL       828<<ASSIGN

PL6.E3A0      #005=KVI$OTPPRTID File=KVI$INT.:E05TSI                             WED 07/30/97 02:05 Page:548
     2903        1        /*T***********************************************************/
     2904        2        /*T*                                                         */
     2905        3        /*T* Copyright (c) Bull HN Information Systems Inc., 1997    */
     2906        4        /*T*                                                         */
     2907        5        /*T***********************************************************/
     2908        6        /*X*     NSO,PLM=3,SQB=Y,AND=Y,ENI=0,SDI=3,MCL=10,CSI=0,ECI=0,IND=0,IAD=3 */
     2909        7        /*F* NAME: KVI$OTPPRTID
     2910        8             PURPOSE: Types the ESC-G response. */
     2911        9
     2912       10        KVI$OTPPRTID: PROC;
     2913       11
     2914       12        %INCLUDE LCP_6;
     2915      203 S      %INCLUDE KV$GLB;
     2916      204 S      %INCLUDE KV$GLBCTX;
     2917      205 S      %INCLUDE KV_GLBCNS_E;
     2918      206 S      %INCLUDE KV$VDH;
     2919      207        %INCLUDE KH$CHN;
     2920      329
     2921      330        %KV$PTR;
     2922      373        %KV$SSN;
     2923      452        %KV$VDI;
     2924      523        %KH$CHN;
     2925      647    1   DCL KH_NODE# UBIN SYMREF;
     2926      648
     2927      649    1   DCL KVO$OTPLCL ENTRY(1);
     2928      650
     2929      651        %EQU PRTID='<NODE=00 SSNID=00 VDI=00000 PORT=0000>';
     2930      652    1   DCL Y_PRTID_TXT CHAR(0) CONSTANT INIT(%PRTID);
     2931      653    1   DCL HEXES CHAR(0) CONSTANT INIT('0123456789ABCDEF');
     2932      654        %KV$VDH_OTPLCL (NAME=KV_VDH_OTPLCL_PRTID, STCLASS=CONSTANT,
     2933      655         BYTSIZ="LENGTHC(Y_PRTID_TXT)", NONVRT=YES);
     2934      728        %KV$VDH_OTPLCL (NAME=VDH_OTPLCL, STCLASS=AUTO);
     2935      801
     2936      802    1   DCL PRTID_TXT CHAR(%(LENGTHC(PRTID)+12));
     2937      803    1   DCL OFFSET SBIN;
     2938      804    1   DCL PTR_VAL PTR;
     2939      805    1   DCL UBIN_VAL REDEF PTR_VAL UBIN(32);
PL6.E3A0      #005=KVI$OTPPRTID File=KVI$INT.:E05TSI                             WED 07/30/97 02:05 Page:549
     2940      806    1   DCL 1 NIBBLE(0:7) REDEF PTR_VAL UBIN(4) UNAL;
     2941      807
     2942      808    1      PRTID_TXT = Y_PRTID_TXT;
     2943      809        /* insert session id */
     2944      810    1      CALL BINCHAR (SUBSTR(PRTID_TXT,15,2), %KV_SSN.SSNID);
     2945      811        /* insert VDI address */
     2946      812    1      OFFSET = 26;
     2947      813    1      PTR_VAL = KV$PTR.VDI$;
     2948      814    1      CALL HEX;
     2949      815        /* insert port number */
     2950      816    1      OFFSET = 36;
     2951      817    1      UBIN_VAL = %KH_CHN.TERMID.TERM.CHANNEL;
     2952      818    1      CALL HEX;
     2953      819        /* insert node number */
     2954      820    1      CALL BINCHAR (SUBSTR(PRTID_TXT,6,2), KH_NODE#);
     2955      821    1      VDH_OTPLCL = KV_VDH_OTPLCL_PRTID;
     2956      822    1      VDH_OTPLCL.BFR_.ADR$ = ADDR(PRTID_TXT);
     2957      823    2      IF %KH_CHN.TERMID.LEV>1 THEN DO;
     2958      824    2         OFFSET = %KH_CHN.TERMID.TERM.SUBDEVICE;
     2959      825    2         CALL SUBDEVICE;
     2960      826    2         IF %KH_CHN.TERMID.LEV = 2 THEN EXIT;
     2961      827    2         OFFSET = %KH_CHN.TERMID.TERM.SUBSUBDEVICE;
     2962      828    2         CALL SUBDEVICE;
     2963      829    2      END;
     2964      830    1      CALL KVO$OTPLCL (VDH_OTPLCL);
     2965      831    1      RETURN;
     2966      832        %EJECT;
PL6.E3A0      #005=KVI$OTPPRTID File=KVI$INT.:E05TSI                             WED 07/30/97 02:05 Page:550
     2967      833    1   SUBDEVICE: PROC;
     2968      834    2   DCL I SBIN;
     2969      835    2      I = 1;
     2970      836    2      IF OFFSET>999 THEN IF OFFSET>9999 THEN I = 5;
     2971      837    2      ELSE I = 4;
     2972      838    2      ELSE IF OFFSET>99 THEN OFFSET = 3;
     2973      839    2      ELSE IF OFFSET>9 THEN OFFSET = 2;
     2974      840    2      SUBSTR (PRTID_TXT, VDH_OTPLCL.BFR_.BYTSIZ-1, 1) = '-';
     2975      841    2      CALL BINCHAR (SUBSTR (PRTID_TXT, VDH_OTPLCL.BFR_.BYTSIZ, I), OFFSET);
     2976      842    2      VDH_OTPLCL.BFR_.BYTSIZ = VDH_OTPLCL.BFR_.BYTSIZ + I + 1;
     2977      843    2      SUBSTR (PRTID_TXT, VDH_OTPLCL.BFR_.BYTSIZ-1, 1) = '>';
     2978      844    2   END SUBDEVICE;
     2979      845
     2980      846    1   HEX: PROC;
     2981      847    3      DO UNTIL UBIN_VAL=0;
     2982      848    3         CALL INSERT (PRTID_TXT,OFFSET,1, SUBSTR(HEXES,NIBBLE(7),1));
     2983      849    3         UBIN_VAL = UBIN_VAL/16;
     2984      850    3         OFFSET = OFFSET-1;
     2985      851    3      END;
     2986      852    2      RETURN;
     2987      853    2   END;
     2988      854    1   END;

PL6.E3A0      #005=KVI$OTPPRTID File=KVI$INT.:E05TSI                             WED 07/30/97 02:05 Page:551
--  Include file information  --

   KH$CHN.:E05TOU  is referenced.
   LCP_6.:E05TOU  cannot be made into a system file and is referenced.
   KV_PRMID_E.:E05TOU  was found in the system file and is never referenced.
   KV_GLBCNS_E.:E05TOU  was found in the system file and is referenced.
   KV$VDO.:E05TOU  was found in the system file and is never referenced.
   KV$VDH.:E05TOU  was found in the system file and is referenced.
   KV$USR.:E05TOU  was found in the system file and is never referenced.
   KV$SND.:E05TOU  was found in the system file and is never referenced.
   KV$INT.:E05TOU  was found in the system file and is never referenced.
   KV$GLBCTX.:E05TOU  was found in the system file and is referenced.
   KV$GLB.:E05TOU  was found in the system file and is referenced.
   G_LCP6_E.:E05TOU  was found in the system file and is referenced.
   GT_LCP6_M.:E05TOU  was found in the system file and is referenced.
   KI_CP6.:E05TOU  was found in the system file and is referenced.
   GF_LCP6_M.:E05TOU  was found in the system file and is referenced.
   GM_LCP6_M.:E05TOU  was found in the system file and is referenced.
   GU_LCP6_M.:E05TOU  was found in the system file and is referenced.
   GJ_LCP6_M.:E05TOU  was found in the system file and is referenced.
   GH_LCP6_M.:E05TOU  was found in the system file and is referenced.
      No diagnostics issued in procedure KVI$OTPPRTID.

   Procedure KVI$OTPPRTID requires 238 words for executable code.
   Procedure KVI$OTPPRTID requires 44 words of local(AUTO) storage.

    No errors detected in file KVI$INT.:E05TSI    .

PL6.E3A0      #005=KVI$OTPPRTID File=KVI$INT.:E05TSI                             WED 07/30/97 02:05 Page:552

 Object Unit name= KVI$OTPPRTID                               File name= KVI$INT.:E05TOU
 UTS= JUL 30 '97 02:05:05.16 WED                              Compiler= PL-6/E31         Sev=      00
 SharedLib= :SHARED_LCP6_SYSTEM                               Alt SharedLib=


    ****  Control sections  ****

 Sect   Type Bound  Init  Size HexSiz  Section name
    0  RoData even  UTS     32     20  KVI$OTPPRTID
    1   Proc  even  none   238     EE  KVI$OTPPRTID

    ****  Entry defs  ****

                              Check   Calling
                             calling  sequence
  Sect HexLoc Primary Altret sequence   type   Parms  Name
     1      0   yes            yes      Std        0  KVI$OTPPRTID

  ****  Entry refs  ****

         Check        Calling
        calling       sequence
Altret sequence SRef   type   Args  Name
         yes           Std       1 KVO$OTPLCL
                       nStd      0 X6A_AUTO_0
                       nStd      0 X6A_ARET

  ****  Data refs  ****

  Flags:  r = read only, s = secondary
Flgs Name                             Flgs Name                             Flgs Name
     KV$PTR$                               KH_NODE#                         r    G$ROS$
PL6.E3A0      #005=KVI$OTPPRTID File=KVI$INT.:E05TSI                             WED 07/30/97 02:05 Page:553


     2903        1        /*T***********************************************************/
     2904        2        /*T*                                                         */
     2905        3        /*T* Copyright (c) Bull HN Information Systems Inc., 1997    */
     2906        4        /*T*                                                         */
     2907        5        /*T***********************************************************/
     2908        6        /*X*     NSO,PLM=3,SQB=Y,AND=Y,ENI=0,SDI=3,MCL=10,CSI=0,ECI=0,IND=0,IAD=3 */
     2909        7        /*F* NAME: KVI$OTPPRTID
     2910        8             PURPOSE: Types the ESC-G response. */
     2911        9
     2912       10        KVI$OTPPRTID: PROC;

     10   1 000000  D380 0000 0000  xent KVI$OTPPRTID    LNJ,B5   X6A_AUTO_0
          1 000003       002C 0000                       DC       44,0

     2913       11
     2914       12        %INCLUDE LCP_6;
     2915      203 S      %INCLUDE KV$GLB;
     2916      204 S      %INCLUDE KV$GLBCTX;
     2917      205 S      %INCLUDE KV_GLBCNS_E;
     2918      206 S      %INCLUDE KV$VDH;
     2919      207        %INCLUDE KH$CHN;
     2920      329
     2921      330        %KV$PTR;
     2922      373        %KV$SSN;
     2923      452        %KV$VDI;
     2924      523        %KH$CHN;
     2925      647    1   DCL KH_NODE# UBIN SYMREF;
     2926      648
     2927      649    1   DCL KVO$OTPLCL ENTRY(1);
     2928      650
     2929      651        %EQU PRTID='<NODE=00 SSNID=00 VDI=00000 PORT=0000>';
     2930      652    1   DCL Y_PRTID_TXT CHAR(0) CONSTANT INIT(%PRTID);
     2931      653    1   DCL HEXES CHAR(0) CONSTANT INIT('0123456789ABCDEF');
     2932      654        %KV$VDH_OTPLCL (NAME=KV_VDH_OTPLCL_PRTID, STCLASS=CONSTANT,
     2933      655         BYTSIZ="LENGTHC(Y_PRTID_TXT)", NONVRT=YES);
     2934      728        %KV$VDH_OTPLCL (NAME=VDH_OTPLCL, STCLASS=AUTO);
PL6.E3A0      #005=KVI$OTPPRTID File=KVI$INT.:E05TSI                             WED 07/30/97 02:05 Page:554
     2935      801
     2936      802    1   DCL PRTID_TXT CHAR(%(LENGTHC(PRTID)+12));
     2937      803    1   DCL OFFSET SBIN;
     2938      804    1   DCL PTR_VAL PTR;
     2939      805    1   DCL UBIN_VAL REDEF PTR_VAL UBIN(32);
     2940      806    1   DCL 1 NIBBLE(0:7) REDEF PTR_VAL UBIN(4) UNAL;
     2941      807
     2942      808    1      PRTID_TXT = Y_PRTID_TXT;

    808   1 000005  EB80 0000 0000  00                   LAB,B6   Y_PRTID_TXT
          1 000008  4C26                                 LDV,R4   38
          1 000009  D870 2032                            LDR,R5   8242,IMO
          1 00000B  0021                                 ALR      ;
          1 00000C       4006 0000                                ALPHANUM(0,B6,,R4),;
          1 00000E       4007 0009                                ALPHANUM(PRTID_TXT,AUTO,,R5,FILL)

     2943      809        /* insert session id */
     2944      810    1      CALL BINCHAR (SUBSTR(PRTID_TXT,15,2), %KV_SSN.SSNID);

    810   1 000010  EC80 0000 0000  xsym                 LDB,B6   KV$PTR$
          1 000013  437F                                 CSYNC    s:810+2,SPREL
          1 000014  DCC6 0002                            LDB,B5   2,B6
          1 000016  F2C5 0037                            LLH,R7   55,B5
          1 000018  6C00                                 LDV,R6   0
          1 000019  8D47 002A                            SDI      I+2,AUTO
          1 00001B  0027                                 CBD      ;
          1 00001C       0407 002A                                BINARY(I+2,AUTO,,4),;
          1 00001E       8207 0010                                UNPACKED(PRTID_TXT+7,AUTO,1,2,UNSIGNED)

     2945      811        /* insert VDI address */
     2946      812    1      OFFSET = 26;

    812   1 000020  3C1A                                 LDV,R3   26
          1 000021  BF47 0022                            STR,R3   OFFSET,AUTO

     2947      813    1      PTR_VAL = KV$PTR.VDI$;

PL6.E3A0      #005=KVI$OTPPRTID File=KVI$INT.:E05TSI                             WED 07/30/97 02:05 Page:555
    813   1 000023  437F                                 CSYNC    s:812+2,SPREL
          1 000024  DC86                                 LDB,B5   ,B6
          1 000025  DFC7 0023                            STB,B5   PTR_VAL,AUTO

     2948      814    1      CALL HEX;

    814   1 000027  E3C0 00A8                            LNJ,B6   s:0,PREL
          1 000029       0001                            DC       s:816,PREL

     2949      815        /* insert port number */
     2950      816    1      OFFSET = 36;

    816   1 00002A  6C24                                 LDV,R6   36
          1 00002B  EF47 0022                            STR,R6   OFFSET,AUTO

     2951      817    1      UBIN_VAL = %KH_CHN.TERMID.TERM.CHANNEL;

    817   1 00002D  EC80 0000 0000  xsym                 LDB,B6   KV$PTR$
          1 000030  DC86                                 LDB,B5   ,B6
          1 000031  CC85                                 LDB,B4   ,B5
          1 000032  F844 0013                            LDR,R7   19,B4
          1 000034  6C00                                 LDV,R6   0
          1 000035  8D47 0023                            SDI      PTR_VAL,AUTO

     2952      818    1      CALL HEX;

    818   1 000037  E3C0 0098                            LNJ,B6   s:0,PREL
          1 000039       0001                            DC       s:820,PREL

     2953      819        /* insert node number */
     2954      820    1      CALL BINCHAR (SUBSTR(PRTID_TXT,6,2), KH_NODE#);

    820   1 00003A  F800 0000 0000  xsym                 LDR,R7   KH_NODE#
          1 00003D  6C00                                 LDV,R6   0
          1 00003E  8D47 002A                            SDI      I+2,AUTO
          1 000040  0027                                 CBD      ;
          1 000041       0407 002A                                BINARY(I+2,AUTO,,4),;
PL6.E3A0      #005=KVI$OTPPRTID File=KVI$INT.:E05TSI                             WED 07/30/97 02:05 Page:556
          1 000043       0207 000C                                UNPACKED(PRTID_TXT+3,AUTO,,2,UNSIGNED)

     2955      821    1      VDH_OTPLCL = KV_VDH_OTPLCL_PRTID;

    821   1 000045  AB80 0000 0000  00                   LAB,B2   Y_PRTID_TXT
          1 000048  2C36                                 LDV,R2   54
          1 000049  6C0A                                 LDV,R6   10
          1 00004A  BB87                                 LAB,B3   ,AUTO
          1 00004B  3C08                                 LDV,R3   8
          1 00004C  437F                                 CSYNC    s:821+6,SPREL
          1 00004D  0008                                 MMM

     2956      822    1      VDH_OTPLCL.BFR_.ADR$ = ADDR(PRTID_TXT);

    822   1 00004E  EBC7 0009                            LAB,B6   PRTID_TXT,AUTO
          1 000050  EFC7 0005                            STB,B6   VDH_OTPLCL+1,AUTO

     2957      823    2      IF %KH_CHN.TERMID.LEV>1 THEN DO;

    823   1 000052  DC80 0000 0000  xsym                 LDB,B5   KV$PTR$
          1 000055  CC85                                 LDB,B4   ,B5
          1 000056  AC84                                 LDB,B2   ,B4
          1 000057  E842 0012                            LDR,R6   18,B2
          1 000059  E570 00FF                            AND,R6   255,IMO
          1 00005B  6D01                                 CMV,R6   1
          1 00005C  0381 001B                            BLE      s:830,PREL

     2958      824    2         OFFSET = %KH_CHN.TERMID.TERM.SUBDEVICE;

    824   1 00005E  D842 0014                            LDR,R5   20,B2
          1 000060  DF47 0022                            STR,R5   OFFSET,AUTO

     2959      825    2         CALL SUBDEVICE;

    825   1 000062  E3C0 0024                            LNJ,B6   s:0,PREL
          1 000064       0001                            DC       s:826,PREL

PL6.E3A0      #005=KVI$OTPPRTID File=KVI$INT.:E05TSI                             WED 07/30/97 02:05 Page:557
     2960      826    2         IF %KH_CHN.TERMID.LEV = 2 THEN EXIT;

    826   1 000065  EC80 0000 0000  xsym                 LDB,B6   KV$PTR$
          1 000068  DC86                                 LDB,B5   ,B6
          1 000069  CC85                                 LDB,B4   ,B5
          1 00006A  E844 0012                            LDR,R6   18,B4
          1 00006C  E570 00FF                            AND,R6   255,IMO
          1 00006E  6D02                                 CMV,R6   2
          1 00006F  0901 0008                            BE       s:830,PREL

     2961      827    2         OFFSET = %KH_CHN.TERMID.TERM.SUBSUBDEVICE;

    827   1 000071  D844 0015                            LDR,R5   21,B4
          1 000073  DF47 0022                            STR,R5   OFFSET,AUTO

     2962      828    2         CALL SUBDEVICE;

    828   1 000075  E3C0 0011                            LNJ,B6   s:0,PREL
          1 000077       0001                            DC       s:830,PREL

     2963      829    2      END;

     2964      830    1      CALL KVO$OTPLCL (VDH_OTPLCL);

    830   1 000078  EBC7 0004                            LAB,B6   VDH_OTPLCL,AUTO
          1 00007A  EFC7 002A                            STB,B6   I+2,AUTO
          1 00007C  BBC7 002A                            LAB,B3   I+2,AUTO
          1 00007E  CBF0 0100                            LAB,B4   256,IMO
          1 000080  E380 0000 0000  xent                 LNJ,B6   KVO$OTPLCL
          1 000083       0001                            DC       s:831,PREL

     2965      831    1      RETURN;

    831   1 000084  C380 0000 0000  xent                 LNJ,B4   X6A_ARET

     2966      832        %EJECT;
PL6.E3A0      #005=KVI$OTPPRTID File=KVI$INT.:E05TSI                             WED 07/30/97 02:05 Page:558
     2967      833    1   SUBDEVICE: PROC;

    833   1 000087  EFC7 0026            SUBDEVICE       STB,B6   PTR_VAL+3,AUTO

     2968      834    2   DCL I SBIN;
     2969      835    2      I = 1;

    835   1 000089  6C01                                 LDV,R6   1
          1 00008A  EF47 0028                            STR,R6   I,AUTO

     2970      836    2      IF OFFSET>999 THEN IF OFFSET>9999 THEN I = 5;

    836   1 00008C  D847 0022                            LDR,R5   OFFSET,AUTO
          1 00008E  D970 03E7                            CMR,R5   999,IMO
          1 000090  0A81 000F                            BALE     s:838,PREL

    836   1 000092  D970 270F                            CMR,R5   9999,IMO
          1 000094  0A81 0006                            BALE     s:837,PREL

    836   1 000096  6C05                                 LDV,R6   5
          1 000097  EF47 0028                            STR,R6   I,AUTO
          1 000099  0F81 0014                            B        s:840,PREL

     2971      837    2      ELSE I = 4;

    837   1 00009B  6C04                                 LDV,R6   4
          1 00009C  EF47 0028                            STR,R6   I,AUTO
          1 00009E  0F81 000F                            B        s:840,PREL

     2972      838    2      ELSE IF OFFSET>99 THEN OFFSET = 3;

    838   1 0000A0  5D63                                 CMV,R5   99
          1 0000A1  0A81 0006                            BALE     s:839,PREL

    838   1 0000A3  5C03                                 LDV,R5   3
          1 0000A4  DF47 0022                            STR,R5   OFFSET,AUTO
          1 0000A6  0F81 0007                            B        s:840,PREL
PL6.E3A0      #005=KVI$OTPPRTID File=KVI$INT.:E05TSI                             WED 07/30/97 02:05 Page:559

     2973      839    2      ELSE IF OFFSET>9 THEN OFFSET = 2;

    839   1 0000A8  5D09                                 CMV,R5   9
          1 0000A9  0A81 0004                            BALE     s:840,PREL

    839   1 0000AB  5C02                                 LDV,R5   2
          1 0000AC  DF47 0022                            STR,R5   OFFSET,AUTO

     2974      840    2      SUBSTR (PRTID_TXT, VDH_OTPLCL.BFR_.BYTSIZ-1, 1) = '-';

    840   1 0000AE  4C2D                                 LDV,R4   45
          1 0000AF  B847 0008                            LDR,R3   VDH_OTPLCL+4,AUTO
          1 0000B1  3E11                                 ADV,R3   17
          1 0000B2  C7B7                                 STH,R4   ,AUTO,R3

     2975      841    2      CALL BINCHAR (SUBSTR (PRTID_TXT, VDH_OTPLCL.BFR_.BYTSIZ, I), OFFSET);

    841   1 0000B3  E855                                 LDR,R6   R5
          1 0000B4  70F0                                 DAR,R7   16
          1 0000B5  8D47 002A                            SDI      I+2,AUTO
          1 0000B7  B847 0008                            LDR,R3   VDH_OTPLCL+4,AUTO
          1 0000B9  D847 0028                            LDR,R5   I,AUTO
          1 0000BB  0027                                 CBD      ;
          1 0000BC       0407 002A                                BINARY(I+2,AUTO,,4),;
          1 0000BE       0037 0009                                UNPACKED(PRTID_TXT,AUTO,R3,,R5,UNSIGNED)

     2976      842    2      VDH_OTPLCL.BFR_.BYTSIZ = VDH_OTPLCL.BFR_.BYTSIZ + I + 1;

    842   1 0000C0  437F                                 CSYNC    s:841+12,SPREL
          1 0000C1  E847 0008                            LDR,R6   VDH_OTPLCL+4,AUTO
          1 0000C3  EA47 0028                            ADD,R6   I,AUTO
          1 0000C5  6E01                                 ADV,R6   1
          1 0000C6  EF47 0008                            STR,R6   VDH_OTPLCL+4,AUTO

     2977      843    2      SUBSTR (PRTID_TXT, VDH_OTPLCL.BFR_.BYTSIZ-1, 1) = '>';

PL6.E3A0      #005=KVI$OTPPRTID File=KVI$INT.:E05TSI                             WED 07/30/97 02:05 Page:560
    843   1 0000C8  5C3E                                 LDV,R5   62
          1 0000C9  B856                                 LDR,R3   R6
          1 0000CA  3E11                                 ADV,R3   17
          1 0000CB  D7B7                                 STH,R5   ,AUTO,R3

     2978      844    2   END SUBDEVICE;

    844   1 0000CC  ECC7 0026                            LDB,B6   PTR_VAL+3,AUTO
          1 0000CE  C3C6 0001                            LNJ,B4   1,B6

     2979      845
     2980      846    1   HEX: PROC;

    846   1 0000D0  EFC7 0026            HEX             STB,B6   PTR_VAL+3,AUTO

     2981      847    3      DO UNTIL UBIN_VAL=0;

     2982      848    3         CALL INSERT (PRTID_TXT,OFFSET,1, SUBSTR(HEXES,NIBBLE(7),1));

    848   1 0000D2  E847 0024                            LDR,R6   PTR_VAL+1,AUTO
          1 0000D4  E570 000F                            AND,R6   15,IMO
          1 0000D6  B856                                 LDR,R3   R6
          1 0000D7  D0B0 0000 0013  00                   LDH,R5   HEXES,R3
          1 0000DA  A847 0022                            LDR,R2   OFFSET,AUTO
          1 0000DC  2E12                                 ADV,R2   18
          1 0000DD  D7A7                                 STH,R5   ,AUTO,R2

     2983      849    3         UBIN_VAL = UBIN_VAL/16;

    849   1 0000DE  8CC7 0023                            LDI      PTR_VAL,AUTO
          1 0000E0  70C4                                 DOR,R7   4
          1 0000E1  8D47 0023                            SDI      PTR_VAL,AUTO

     2984      850    3         OFFSET = OFFSET-1;

    850   1 0000E3  88C7 0022                            DEC      OFFSET,AUTO

PL6.E3A0      #005=KVI$OTPPRTID File=KVI$INT.:E05TSI                             WED 07/30/97 02:05 Page:561
     2985      851    3      END;

    851   1 0000E5  84F0 0000 0000                       SID      0,IMO
          1 0000E8  69EA                                 BNEZ,R6  s:848,SPREL
          1 0000E9  79E9                                 BNEZ,R7  s:848,SPREL

     2986      852    2      RETURN;

    852   1 0000EA  ECC7 0026                            LDB,B6   PTR_VAL+3,AUTO
          1 0000EC  C3C6 0001                            LNJ,B4   1,B6
     2987      853    2   END;
     2988      854    1   END;

PL6.E3A0      #005=KVI$OTPPRTID File=KVI$INT.:E05TSI                             WED 07/30/97 02:05 Page:562
--  Include file information  --

   KH$CHN.:E05TOU  is referenced.
   LCP_6.:E05TOU  cannot be made into a system file and is referenced.
   KV_PRMID_E.:E05TOU  was found in the system file and is never referenced.
   KV_GLBCNS_E.:E05TOU  was found in the system file and is referenced.
   KV$VDO.:E05TOU  was found in the system file and is never referenced.
   KV$VDH.:E05TOU  was found in the system file and is referenced.
   KV$USR.:E05TOU  was found in the system file and is never referenced.
   KV$SND.:E05TOU  was found in the system file and is never referenced.
   KV$INT.:E05TOU  was found in the system file and is never referenced.
   KV$GLBCTX.:E05TOU  was found in the system file and is referenced.
   KV$GLB.:E05TOU  was found in the system file and is referenced.
   G_LCP6_E.:E05TOU  was found in the system file and is referenced.
   GT_LCP6_M.:E05TOU  was found in the system file and is referenced.
   KI_CP6.:E05TOU  was found in the system file and is referenced.
   GF_LCP6_M.:E05TOU  was found in the system file and is referenced.
   GM_LCP6_M.:E05TOU  was found in the system file and is referenced.
   GU_LCP6_M.:E05TOU  was found in the system file and is referenced.
   GJ_LCP6_M.:E05TOU  was found in the system file and is referenced.
   GH_LCP6_M.:E05TOU  was found in the system file and is referenced.
      No diagnostics issued in procedure KVI$OTPPRTID.
PL6.E3A0      #005=KVI$OTPPRTID File=KVI$INT.:E05TSI                             WED 07/30/97 02:05 Page:563

 **** Variables and constants ****

  ****  Section 000 RoData KVI$OTPPRTID

  ****  Scalars and arrays  ****
HexLoc.c.b A Datatyp(siz) R M Lvl/name                 HexLoc.c.b A Datatyp(siz) R M Lvl/name

    13-0-0/c CHAR(16)    r     1 HEXES                     1B-0-0/w STRC(80)    r     1 KV_VDH_OTPLCL_PRTID
     0-0-0/c CHAR(38)    r     1 Y_PRTID_TXT

  ****  Auto variables  ****

  ****  Scalars and arrays  ****
HexLoc.c.b A Datatyp(siz) R M Lvl/name                 HexLoc.c.b A Datatyp(siz) R M Lvl/name

    28-0-0/w SBIN(16)    r     1 I                         23-0-0/w UBIN(4)     r     1 NIBBLE(0:7)
    22-0-0/w SBIN(16)    r     1 OFFSET                     9-0-0/c CHAR(50)    r     1 PRTID_TXT
    23-0-0/w PTR         r     1 PTR_VAL                   23-0-0/w UBIN(32)    r     1 UBIN_VAL
     4-0-0/w STRC(80)    r     1 VDH_OTPLCL

  ****  SYMREF variables  ****

  ****  Scalars and arrays  ****
HexLoc.c.b A Datatyp(siz) R M Lvl/name                 HexLoc.c.b A Datatyp(siz) R M Lvl/name

     0-0-0/w UBIN(16)    r     1 KH_NODE#                   0-0-0/w PTR         r     1 KV$PTR$

  ****  BASED and DCB variables  ****

  ****  Scalars and arrays  ****
HexLoc.c.b A Datatyp(siz) R M Lvl/name                 HexLoc.c.b A Datatyp(siz) R M Lvl/name

     0-0-0/w STRC(512)   r     1 KH$CHN                     0-0-0/w STRC(480)   r     1 KV$PTR
     0-0-0/w STRC(1024)  r     1 KV$SSN                     0-0-0/w STRC(512)   r     1 KV$VDI

PL6.E3A0      #005=KVI$OTPPRTID File=KVI$INT.:E05TSI                             WED 07/30/97 02:05 Page:564

   Procedure KVI$OTPPRTID requires 238 words for executable code.
   Procedure KVI$OTPPRTID requires 44 words of local(AUTO) storage.

    No errors detected in file KVI$INT.:E05TSI    .
PL6.E3A0      #005=KVI$OTPPRTID File=KVI$INT.:E05TSI                             WED 07/30/97 02:05 Page:565
          *** CROSS REFERENCE LISTING ***
**     DENOTES     IDENTIFIER DEFINITION
<<                 IDENTIFIER'S VALUE SET
>>                 IDENTIFIER'S VALUE USED
<>                 IDENTIFIER SET AND/OR USED
--                 IDENTIFIER REFERENCED
PL6.E3A0      #005=KVI$OTPPRTID File=KVI$INT.:E05TSI                             WED 07/30/97 02:05 Page:566
          MINI XREF LISTING

HEX
       846**PROC      814--CALL      818--CALL
HEXES
       653**DCL       848>>CALLBLT
I IN PROCEDURE SUBDEVICE
       834**DCL       835<<ASSIGN    836<<ASSIGN    837<<ASSIGN    841>>CALLBLT   842>>ASSIGN
KH$CHN.TERMID.LEV
       634**DCL       823>>IF        826>>IF
KH$CHN.TERMID.TERM
       634**DCL       643--REDEF
KH$CHN.TERMID.TERM.CHANNEL
       640**DCL       817>>ASSIGN
KH$CHN.TERMID.TERM.SUBDEVICE
       640**DCL       824>>ASSIGN
KH$CHN.TERMID.TERM.SUBSUBDEVICE
       640**DCL       827>>ASSIGN
KH_NODE#
       647**DCL       820>>CALLBLT
KV$PTR.INPCNDPND
       357**DCL       366--REDEF     370--REDEF
KV$PTR.LINLST$
       353**DCL       354--REDEF
KV$PTR.SSN$
       351**DCL       810>>CALLBLT
KV$PTR.VDI$
       351**DCL       813>>ASSIGN    817>>ASSIGN    823>>IF        824>>ASSIGN    826>>IF        827>>ASSIGN
KV$PTR$
       345**DCL       351--IMP-PTR   810>>CALLBLT   813>>ASSIGN    817>>ASSIGN    823>>IF        824>>ASSIGN
       826>>IF        827>>ASSIGN
KV$SSN.REDRSPCNT
       402**DCL       403--REDEF
KV$SSN.SSNID
PL6.E3A0      #005=KVI$OTPPRTID File=KVI$INT.:E05TSI                             WED 07/30/97 02:05 Page:567
       446**DCL       810>>CALLBLT
KV$VDI.CHN$
       473**DCL       817>>ASSIGN    823>>IF        824>>ASSIGN    826>>IF        827>>ASSIGN
KVO$OTPLCL
       649**DCL-ENT   830--CALL
KV_VDH_OTPLCL_PRTID
       691**DCL       821>>ASSIGN
NIBBLE
       806**DCL       848>>CALLBLT
OFFSET
       803**DCL       812<<ASSIGN    816<<ASSIGN    824<<ASSIGN    827<<ASSIGN    836>>IF        836>>IF
       838>>IF        838<<ASSIGN    839>>IF        839<<ASSIGN    841>>CALLBLT   848>>CALLBLT   850<<ASSIGN
       850>>ASSIGN
PRTID_TXT
       802**DCL       808<<ASSIGN    810<<CALLBLT   820<<CALLBLT   822--ASSIGN    840<<ASSIGN    841<<CALLBLT
       843<<ASSIGN    848<<CALLBLT
PTR_VAL
       804**DCL       805--REDEF     806--REDEF     813<<ASSIGN
SUBDEVICE
       833**PROC      825--CALL      828--CALL
UBIN_VAL
       805**DCL       817<<ASSIGN    847>>DOUNTIL   849<<ASSIGN    849>>ASSIGN
VDH_OTPLCL
       764**DCL       821<<ASSIGN    830<>CALL
VDH_OTPLCL.BFR_.ADR$
       797**DCL       822<<ASSIGN
VDH_OTPLCL.BFR_.BYTSIZ
       797**DCL       840>>ASSIGN    841>>CALLBLT   842<<ASSIGN    842>>ASSIGN    843>>ASSIGN
Y_PRTID_TXT
       652**DCL       725--DCLINIT   808>>ASSIGN
