PL6.E3A0      #005=KVI$CPYEDTBFR File=KVI$RED.:E05TSI                            WED 07/30/97 02:05 Page:158
      994        1        /*T***********************************************************/
      995        2        /*T*                                                         */
      996        3        /*T* Copyright (c) Bull HN Information Systems Inc., 1997    */
      997        4        /*T*                                                         */
      998        5        /*T***********************************************************/
      999        6        /*X*     NSO,PLM=3,SQB=Y,AND=Y,ENI=0,SDI=3,MCL=10,CSI=0,ECI=0,IND=0,IAD=3 */
     1000        7        KVI$CPYEDTBFR: PROC;
     1001        8        %INCLUDE KV_INT_M;
     1002      151        %KV$BOX (PAGE = NO, TITLE = "Copy edit buffer to read buffer");

               169        /***************************************************************************
               170         *                                                                         *
               171         *                      Copy edit buffer to read buffer                    *
               172         *                                                                         *
               173         ***************************************************************************/

     1003      178
     1004      179        /*
     1005      180        Declare SYMREFs.
     1006      181        */
     1007      182        /*
     1008      183        Declare external procedures CALLed.
     1009      184        */
     1010      185    1   DCL KVI$EDTX_TO_VRTCLM ENTRY(1);
     1011      186    1   DCL KVI$SCPVRTCLMLOWX ENTRY;
     1012      187    1   DCL KVS$GETREDBFR ENTRY(1) ALTRET;
     1013      188        /*
     1014      189        INCLUDE files, constants, based structures,
     1015      190        and static data contained elsewhere.
     1016      191        */
     1017      192
     1018      193        %INCLUDE KV_INT;
     1019      232
     1020      233 S      %INCLUDE KV_GLBCNS_E;
     1021      234        %KV#VD_ORG_E;
     1022      242 S      %INCLUDE KV$GLB;
     1023      243 S      %INCLUDE KV$GLBCTX;
PL6.E3A0      #005=KVI$CPYEDTBFR File=KVI$RED.:E05TSI                            WED 07/30/97 02:05 Page:159
     1024      244 S      %INCLUDE KV$INT;
     1025      245        %KV$MVD;
     1026      289        %KV$RCR;
     1027      319        %KV$RCRLST;
     1028      355        %KV$PTR;
     1029      398        %KV$SSN;
     1030      477        %KV$STR;
     1031      564        %KV$STR (NAME=Y$STR, STCLASS="BASED(Y@TMPSTR$)");
     1032      651        %KV$VDI;
     1033      722
     1034      723        /*
     1035      724        Character string declaration, for move.
     1036      725        */
     1037      726    1   DCL Y$CHR CHAR(Y@TMPWRD) BASED;
     1038      727
     1039      728        /*
     1040      729        AUTO variables.
     1041      730        */
     1042      731
     1043      732        /* Temporary word */
     1044      733
     1045      734    1   DCL Y@TMPWRD UBIN WORD AUTO;
     1046      735
     1047      736        /* Temporary stream (KV$STR) pointer. */
     1048      737
     1049      738    1   DCL Y@TMPSTR$ PTR AUTO;
     1050      739
     1051      740        /* Edit buffer descriptor.  Copied or built from KV$RCR. */
     1052      741
     1053      742        %KV$BFRDSC (NAME=Y@EDTBFR__, STCLASS=AUTO);
     1054      769
     1055      770    1   KVI$CPYSSNEDTBFRTO_REDBFR: ENTRY;
     1056      771
     1057      772        /* copy the last edit buffer saved for this session to the                    */
     1058      773        /* read buffer.                                                               */
     1059      774
     1060      775    1      Y@TMPSTR$ = %KV_SSN.STR$;
PL6.E3A0      #005=KVI$CPYEDTBFR File=KVI$RED.:E05TSI                            WED 07/30/97 02:05 Page:160
     1061      776    2      DO WHILE Y@TMPSTR$~=ADDR(NIL);
     1062      777        /* Search for the appropriate stream. */
     1063      778
     1064      779    3         IF Y$STR.ID=%KV_SSN.LSTEDTBFRSTRID THEN DO;
     1065      780    3            Y@EDTBFR__ = Y$STR.EDTBFR__;
     1066      781    3            GOTO SUBCOMMON;
     1067      782    3         END;
     1068      783    2         Y@TMPSTR$ = Y$STR.LNK$;
     1069      784    2      END;
     1070      785
     1071      786        /* copy the edit buffer for this stream to the read buffer.                   */
     1072      787
     1073      788    1   KVI$CPYSTREDTBFRTO_REDBFR: ENTRY;
     1074      789    1      Y@EDTBFR__ = %KV_STR.EDTBFR__;
     1075      790    2      IF %KV_MVD.ORG=%KV#VD_ORG_SE AND KV$PTR.INPCNDPND.OPRX~=0 THEN DO;
     1076      791    2         IF %KV_RCRLST.CRTRCR<KV$PTR.INPCNDPND.OPRX
     1077      792    2           OR %KV_RCRLST.CRTRCR-KV$PTR.INPCNDPND.OPRX>=%KV_RCRLST.RCRCNT
     1078      793    2         THEN EXIT;
     1079      794    2         Y@TMPSTR$ = %KV_RCRLST.RCR$(%KV_RCRLST.CRTRCR-KV$PTR.INPCNDPND.OPRX);
     1080      795    2         Y@EDTBFR__.ADR$ = Y@TMPSTR$;
     1081      796    2         Y@EDTBFR__.BYTX = %KV_RCRLST.KEYLNG+LENGTHV(KV$RCR);
     1082      797    2         Y@EDTBFR__.DATBYTSIZ = Y@TMPSTR$->KV$RCR.RCRBYTSIZ;
     1083      798    2      END;
     1084      799    1      Y@TMPSTR$ = KV$PTR.STR$;
     1085      800    1   SUBCOMMON:
     1086      801    2      IF Y$STR.EDTBFR__.ADR$~=ADDR(NIL) THEN DO;
     1087      802
     1088      803        /* there is an edit buffer.                                                   */
     1089      804
     1090      805    2         Y@TMPWRD = MAXIMUM(Y@EDTBFR__.DATBYTSIZ, Y$STR.RE_REDCLM-1);
     1091      806    2         %KV_SSN.RE_REDCLM = Y$STR.RE_REDCLM;
     1092      807    3         IF (Y@TMPWRD >= %KV_STR.MAXRCRBYTSIZ) THEN DO;
     1093      808
     1094      809        /* the input edit buffer's text size is sufficient to cause activation on     */
     1095      810        /* size (if the code actually worked that way). we'll have to                 */
     1096      811        /* truncate the size to just below the activation-on-size point.              */
     1097      812
PL6.E3A0      #005=KVI$CPYEDTBFR File=KVI$RED.:E05TSI                            WED 07/30/97 02:05 Page:161
     1098      813    3            Y@TMPWRD = %KV_STR.MAXRCRBYTSIZ;
     1099      814    4            IF %KV_MVD.ORG=%KV#VD_ORG_UR OR Y$STR.RE_REDCLM=0 THEN DO;
     1100      815    4               Y@TMPWRD = Y@TMPWRD-1;
     1101      816    4            END;                           /* IF                                 */
     1102      817    3            IF Y@TMPWRD<%KV_SSN.RE_REDCLM
     1103      818    3            THEN %KV_SSN.RE_REDCLM = Y@TMPWRD;
     1104      819    3         END;                              /* IF                                 */
     1105      820    2         IF Y@TMPWRD>%KV_SSN.REDBFR__.BFRBYTSIZ-%KV_SSN.REDBFR__.BYTX
     1106      821    2           OR %KV_SSN.REDBFR__.ADR$=ADDR(NIL)
     1107      822        /* Get a big enough buffer. */
     1108      823
     1109      824    3         THEN CALL KVS$GETREDBFR(Y@TMPWRD) WHENALTRETURN DO; RETURN; END;
     1110      825    2         %KV_SSN.REDBFR__.DATBYTSIZ = Y@TMPWRD;
     1111      826    3         IF Y@TMPWRD>Y@EDTBFR__.DATBYTSIZ THEN DO;
     1112      827    3            SUBSTR(%KV_SSN.REDBFR__.ADR$->Y$CHR,
     1113      828    3              %KV_SSN.REDBFR__.BYTX+Y@EDTBFR__.DATBYTSIZ,
     1114      829    3              Y@TMPWRD-Y@EDTBFR__.DATBYTSIZ) = ' ';
     1115      830    3            Y@TMPWRD = Y@EDTBFR__.DATBYTSIZ;
     1116      831    3         END;
     1117      832    2         PINCRC (%KV_SSN.REDBFR__.ADR$, %KV_SSN.REDBFR__.BYTX)->Y$CHR =
     1118      833    2           PINCRC (Y@EDTBFR__.ADR$, Y@EDTBFR__.BYTX)->Y$CHR;
     1119      834    2         %KV_SSN.REDBFR.INSLOWX = %KV_SSN.REDBFR__.BYTX;
     1120      835    2         %KV_VDI.RE_DSPLOWX = %KV_SSN.REDBFR__.BYTX;
     1121      836    2         Y@TMPWRD = Y@TMPWRD+%KV_SSN.REDBFR__.BYTX;
     1122      837    2         %KV_SSN.REDBFR.NXTX = Y@TMPWRD;
     1123      838    2         %KV_SSN.REDBFR.INSMODX = Y@TMPWRD;
     1124      839    2         %KV_SSN.REDBFR.EDTLOWX = Y@TMPWRD;
     1125      840    2         %KV_SSN.CLMIS_BYTX = '0'B;
     1126      841    2         CALL KVI$EDTX_TO_VRTCLM (Y@TMPSTR$); /* Set CLMIS_BYTX properly         */
     1127      842    2         IF %KV_SSN.RE_REDCLM~=0
     1128      843    2         THEN Y@TMPWRD = %KV_SSN.RE_REDCLM-1+%KV_SSN.REDBFR__.BYTX;
     1129      844    2         %KV_SSN.REDBFR.EDTLOWX = Y@TMPWRD;
     1130      845    2         CALL KVI$SCPVRTCLMLOWX;
     1131      846    2      END;                                 /* IF                                 */
     1132      847    1   END KVI$CPYEDTBFR;

PL6.E3A0      #005=KVI$CPYEDTBFR File=KVI$RED.:E05TSI                            WED 07/30/97 02:05 Page:162
--  Include file information  --

   KV_INT.:E05TOU  is referenced.
   KV_INT_M.:E05TOU  is referenced.
   KV_PRMID_E.:E05TOU  was found in the system file and is never referenced.
   KV_GLBCNS_E.:E05TOU  was found in the system file and is referenced.
   KV$VDO.:E05TOU  was found in the system file and is never referenced.
   KV$VDH.:E05TOU  was found in the system file and is never referenced.
   KV$USR.:E05TOU  was found in the system file and is never referenced.
   KV$SND.:E05TOU  was found in the system file and is never referenced.
   KV$INT.:E05TOU  was found in the system file and is referenced.
   KV$GLBCTX.:E05TOU  was found in the system file and is referenced.
   KV$GLB.:E05TOU  was found in the system file and is referenced.
   G_LCP6_E.:E05TOU  was found in the system file and is never referenced.
   GT_LCP6_M.:E05TOU  was found in the system file and is never referenced.
   KI_CP6.:E05TOU  was found in the system file and is never referenced.
   GF_LCP6_M.:E05TOU  was found in the system file and is never referenced.
   GM_LCP6_M.:E05TOU  was found in the system file and is never referenced.
   GU_LCP6_M.:E05TOU  was found in the system file and is never referenced.
   GJ_LCP6_M.:E05TOU  was found in the system file and is never referenced.
   GH_LCP6_M.:E05TOU  was found in the system file and is never referenced.
      No diagnostics issued in procedure KVI$CPYEDTBFR.

   Procedure KVI$CPYEDTBFR requires 362 words for executable code.
   Procedure KVI$CPYEDTBFR requires 18 words of local(AUTO) storage.

    No errors detected in file KVI$RED.:E05TSI    .

PL6.E3A0      #005=KVI$CPYEDTBFR File=KVI$RED.:E05TSI                            WED 07/30/97 02:05 Page:163

 Object Unit name= KVI$CPYEDTBFR                              File name= KVI$RED.:E05TOU
 UTS= JUL 30 '97 02:05:10.64 WED                              Compiler= PL-6/E31         Sev=      00
 SharedLib= :SHARED_LCP6_SYSTEM                               Alt SharedLib=


    ****  Control sections  ****

 Sect   Type Bound  Init  Size HexSiz  Section name
    0   Proc  even  none   362    16A  KVI$CPYEDTBFR
    1  RoData even  none     1      1  KVI$CPYEDTBFR

    ****  Entry defs  ****

                              Check   Calling
                             calling  sequence
  Sect HexLoc Primary Altret sequence   type   Parms  Name
     0      0   yes            yes      Std        0  KVI$CPYEDTBFR
     0      7                  yes      Std        0  KVI$CPYSSNEDTBFRTO_REDBFR
     0     36                  yes      Std        0  KVI$CPYSTREDTBFRTO_REDBFR

  ****  Entry refs  ****

         Check        Calling
        calling       sequence
Altret sequence SRef   type   Args  Name
 yes     yes           Std       1 KVS$GETREDBFR
         yes           Std       1 KVI$EDTX_TO_VRTCLM
         yes           Std       0 KVI$SCPVRTCLMLOWX
                       nStd      0 X6A_AUTO_0
                       nStd      0 X6A_ARET
                       nStd      0 X6C_ALR
PL6.E3A0      #005=KVI$CPYEDTBFR File=KVI$RED.:E05TSI                            WED 07/30/97 02:05 Page:164

  ****  Data refs  ****

  Flags:  r = read only, s = secondary
Flgs Name                             Flgs Name                             Flgs Name
     KV$PTR$                          r    G$ROS$
PL6.E3A0      #005=KVI$CPYEDTBFR File=KVI$RED.:E05TSI                            WED 07/30/97 02:05 Page:165


      994        1        /*T***********************************************************/
      995        2        /*T*                                                         */
      996        3        /*T* Copyright (c) Bull HN Information Systems Inc., 1997    */
      997        4        /*T*                                                         */
      998        5        /*T***********************************************************/
      999        6        /*X*     NSO,PLM=3,SQB=Y,AND=Y,ENI=0,SDI=3,MCL=10,CSI=0,ECI=0,IND=0,IAD=3 */
     1000        7        KVI$CPYEDTBFR: PROC;

      7   0 000000  D380 0000 0000  xent KVI$CPYEDTBFR   LNJ,B5   X6A_AUTO_0
          0 000003       0012 0000                       DC       18,0
          0 000005  0F81 0006                            B        s:775,PREL

     1001        8        %INCLUDE KV_INT_M;
     1002      151        %KV$BOX (PAGE = NO, TITLE = "Copy edit buffer to read buffer");

               169        /***************************************************************************
               170         *                                                                         *
               171         *                      Copy edit buffer to read buffer                    *
               172         *                                                                         *
               173         ***************************************************************************/

     1003      178
     1004      179        /*
     1005      180        Declare SYMREFs.
     1006      181        */
     1007      182        /*
     1008      183        Declare external procedures CALLed.
     1009      184        */
     1010      185    1   DCL KVI$EDTX_TO_VRTCLM ENTRY(1);
     1011      186    1   DCL KVI$SCPVRTCLMLOWX ENTRY;
     1012      187    1   DCL KVS$GETREDBFR ENTRY(1) ALTRET;
     1013      188        /*
     1014      189        INCLUDE files, constants, based structures,
     1015      190        and static data contained elsewhere.
     1016      191        */
     1017      192
PL6.E3A0      #005=KVI$CPYEDTBFR File=KVI$RED.:E05TSI                            WED 07/30/97 02:05 Page:166
     1018      193        %INCLUDE KV_INT;
     1019      232
     1020      233 S      %INCLUDE KV_GLBCNS_E;
     1021      234        %KV#VD_ORG_E;
     1022      242 S      %INCLUDE KV$GLB;
     1023      243 S      %INCLUDE KV$GLBCTX;
     1024      244 S      %INCLUDE KV$INT;
     1025      245        %KV$MVD;
     1026      289        %KV$RCR;
     1027      319        %KV$RCRLST;
     1028      355        %KV$PTR;
     1029      398        %KV$SSN;
     1030      477        %KV$STR;
     1031      564        %KV$STR (NAME=Y$STR, STCLASS="BASED(Y@TMPSTR$)");
     1032      651        %KV$VDI;
     1033      722
     1034      723        /*
     1035      724        Character string declaration, for move.
     1036      725        */
     1037      726    1   DCL Y$CHR CHAR(Y@TMPWRD) BASED;
     1038      727
     1039      728        /*
     1040      729        AUTO variables.
     1041      730        */
     1042      731
     1043      732        /* Temporary word */
     1044      733
     1045      734    1   DCL Y@TMPWRD UBIN WORD AUTO;
     1046      735
     1047      736        /* Temporary stream (KV$STR) pointer. */
     1048      737
     1049      738    1   DCL Y@TMPSTR$ PTR AUTO;
     1050      739
     1051      740        /* Edit buffer descriptor.  Copied or built from KV$RCR. */
     1052      741
     1053      742        %KV$BFRDSC (NAME=Y@EDTBFR__, STCLASS=AUTO);
     1054      769
PL6.E3A0      #005=KVI$CPYEDTBFR File=KVI$RED.:E05TSI                            WED 07/30/97 02:05 Page:167
     1055      770    1   KVI$CPYSSNEDTBFRTO_REDBFR: ENTRY;

    770   0 000007  D380 0000 0000  xent KVI$CPYSSNEDTBF*LNJ,B5   X6A_AUTO_0
          0 00000A       0012 0000                       DC       18,0

     1056      771
     1057      772        /* copy the last edit buffer saved for this session to the                    */
     1058      773        /* read buffer.                                                               */
     1059      774
     1060      775    1      Y@TMPSTR$ = %KV_SSN.STR$;

    775   0 00000C  EC80 0000 0000  xsym                 LDB,B6   KV$PTR$
          0 00000F  DCC6 0002                            LDB,B5   2,B6
          0 000011  CCC5 0004                            LDB,B4   4,B5
          0 000013  CFC7 0005                            STB,B4   Y@TMPSTR$,AUTO

     1061      776    2      DO WHILE Y@TMPSTR$~=ADDR(NIL);

    776   0 000015  0F81 001B                            B        s:784,PREL

     1062      777        /* Search for the appropriate stream. */
     1063      778
     1064      779    3         IF Y$STR.ID=%KV_SSN.LSTEDTBFRSTRID THEN DO;

    779   0 000017  EC80 0000 0000  xsym                 LDB,B6   KV$PTR$
          0 00001A  DCC6 0002                            LDB,B5   2,B6
          0 00001C  CCC7 0005                            LDB,B4   Y@TMPSTR$,AUTO
          0 00001E  E2C4 001C                            LLH,R6   28,B4
          0 000020  D2C5 0026                            LLH,R5   38,B5
          0 000022  E955                                 CMR,R6   R5
          0 000023  0981 0009                            BNE      s:783,PREL

     1065      780    3            Y@EDTBFR__ = Y$STR.EDTBFR__;

    780   0 000025  AB84                                 LAB,B2   ,B4
          0 000026  2C18                                 LDV,R2   24
          0 000027  6C0C                                 LDV,R6   12
PL6.E3A0      #005=KVI$CPYEDTBFR File=KVI$RED.:E05TSI                            WED 07/30/97 02:05 Page:168
          0 000028  BB87                                 LAB,B3   ,AUTO
          0 000029  3C0E                                 LDV,R3   14
          0 00002A  0008                                 MMM

     1066      781    3            GOTO SUBCOMMON;

    781   0 00002B  0F81 0055                            B        s:801,PREL

     1067      782    3         END;
     1068      783    2         Y@TMPSTR$ = Y$STR.LNK$;

    783   0 00002D  BCC4 0002                            LDB,B3   2,B4
          0 00002F  BFC7 0005                            STB,B3   Y@TMPSTR$,AUTO

     1069      784    2      END;

    784   0 000031  8DC7 0005                            CMN      Y@TMPSTR$,AUTO
          0 000033  09E4                                 BNE      s:779,SPREL
          0 000034  0F81 0006                            B        s:789,PREL

     1070      785
     1071      786        /* copy the edit buffer for this stream to the read buffer.                   */
     1072      787
     1073      788    1   KVI$CPYSTREDTBFRTO_REDBFR: ENTRY;

    788   0 000036  D380 0000 0000  xent KVI$CPYSTREDTBF*LNJ,B5   X6A_AUTO_0
          0 000039       0012 0000                       DC       18,0

     1074      789    1      Y@EDTBFR__ = %KV_STR.EDTBFR__;

    789   0 00003B  EC80 0000 0000  xsym                 LDB,B6   KV$PTR$
          0 00003E  DCC6 0004                            LDB,B5   4,B6
          0 000040  AB85                                 LAB,B2   ,B5
          0 000041  2C18                                 LDV,R2   24
          0 000042  6C0C                                 LDV,R6   12
          0 000043  BB87                                 LAB,B3   ,AUTO
          0 000044  3C0E                                 LDV,R3   14
PL6.E3A0      #005=KVI$CPYEDTBFR File=KVI$RED.:E05TSI                            WED 07/30/97 02:05 Page:169
          0 000045  0008                                 MMM

     1075      790    2      IF %KV_MVD.ORG=%KV#VD_ORG_SE AND KV$PTR.INPCNDPND.OPRX~=0 THEN DO;

    790   0 000046  EC80 0000 0000  xsym                 LDB,B6   KV$PTR$
          0 000049  CCC6 0006                            LDB,B4   6,B6
          0 00004B  E2C4 0015                            LLH,R6   21,B4
          0 00004D  6D05                                 CMV,R6   5
          0 00004E  0981 002B                            BNE      s:799,PREL
          0 000050  D846 001C                            LDR,R5   28,B6
          0 000052  5901 0027                            BEZ,R5   s:799,PREL

     1076      791    2         IF %KV_RCRLST.CRTRCR<KV$PTR.INPCNDPND.OPRX

    791   0 000054  9CC6 000E                            LDB,B1   14,B6
          0 000056  D941 0006                            CMR,R5   6,B1
          0 000058  0A01 0021                            BAG      s:799,PREL
          0 00005A  D241 0006                            SUB,R5   6,B1
          0 00005C  8255                                 NEG      R5
          0 00005D  D941 0001                            CMR,R5   1,B1
          0 00005F  0881 001A                            BAGE     s:799,PREL

     1077      792    2           OR %KV_RCRLST.CRTRCR-KV$PTR.INPCNDPND.OPRX>=%KV_RCRLST.RCRCNT
     1078      793    2         THEN EXIT;
     1079      794    2         Y@TMPSTR$ = %KV_RCRLST.RCR$(%KV_RCRLST.CRTRCR-KV$PTR.INPCNDPND.OPRX);

    794   0 000061  D841 0006                            LDR,R5   6,B1
          0 000063  D246 001C                            SUB,R5   28,B6
          0 000065  B855                                 LDR,R3   R5
          0 000066  3E08                                 ADV,R3   8
          0 000067  ECB1                                 LDB,B6   ,B1,R3
          0 000068  EFC7 0005                            STB,B6   Y@TMPSTR$,AUTO

     1080      795    2         Y@EDTBFR__.ADR$ = Y@TMPSTR$;

    795   0 00006A  EFC7 0007                            STB,B6   Y@EDTBFR__,AUTO

PL6.E3A0      #005=KVI$CPYEDTBFR File=KVI$RED.:E05TSI                            WED 07/30/97 02:05 Page:170
     1081      796    2         Y@EDTBFR__.BYTX = %KV_RCRLST.KEYLNG+LENGTHV(KV$RCR);

    796   0 00006C  CC80 0000 0000  xsym                 LDB,B4   KV$PTR$
          0 00006F  9CC4 000E                            LDB,B1   14,B4
          0 000071  E2C1 000B                            LLH,R6   11,B1
          0 000073  6E06                                 ADV,R6   6
          0 000074  EF47 0009                            STR,R6   Y@EDTBFR__+2,AUTO

     1082      797    2         Y@EDTBFR__.DATBYTSIZ = Y@TMPSTR$->KV$RCR.RCRBYTSIZ;

    797   0 000076  D846 0001                            LDR,R5   1,B6
          0 000078  DF47 000A                            STR,R5   Y@EDTBFR__+3,AUTO

     1083      798    2      END;

     1084      799    1      Y@TMPSTR$ = KV$PTR.STR$;

    799   0 00007A  EC80 0000 0000  xsym                 LDB,B6   KV$PTR$
          0 00007D  CCC6 0004                            LDB,B4   4,B6
          0 00007F  CFC7 0005                            STB,B4   Y@TMPSTR$,AUTO

     1085      800    1   SUBCOMMON:
     1086      801    2      IF Y$STR.EDTBFR__.ADR$~=ADDR(NIL) THEN DO;

    801   0 000081  ECC7 0005            SUBCOMMON       LDB,B6   Y@TMPSTR$,AUTO
          0 000083  8DC6 000C                            CMN      12,B6
          0 000085  0901 00E1                            BE       s:847,PREL

     1087      802
     1088      803        /* there is an edit buffer.                                                   */
     1089      804
     1090      805    2         Y@TMPWRD = MAXIMUM(Y@EDTBFR__.DATBYTSIZ, Y$STR.RE_REDCLM-1);

    805   0 000087  E846 0012                            LDR,R6   18,B6
          0 000089  6EFF                                 ADV,R6   -1
          0 00008A  E947 000A                            CMR,R6   Y@EDTBFR__+3,AUTO
          0 00008C  0881 0003                            BAGE     s:805+9,PREL
PL6.E3A0      #005=KVI$CPYEDTBFR File=KVI$RED.:E05TSI                            WED 07/30/97 02:05 Page:171
          0 00008E  E847 000A                            LDR,R6   Y@EDTBFR__+3,AUTO
          0 000090  EF47 0004                            STR,R6   Y@TMPWRD,AUTO

     1091      806    2         %KV_SSN.RE_REDCLM = Y$STR.RE_REDCLM;

    806   0 000092  DC80 0000 0000  xsym                 LDB,B5   KV$PTR$
          0 000095  CCC5 0002                            LDB,B4   2,B5
          0 000097  D846 0012                            LDR,R5   18,B6
          0 000099  DF44 0036                            STR,R5   54,B4

     1092      807    3         IF (Y@TMPWRD >= %KV_STR.MAXRCRBYTSIZ) THEN DO;

    807   0 00009B  CCC5 0004                            LDB,B4   4,B5
          0 00009D  E944 0015                            CMR,R6   21,B4
          0 00009F  0201 001C                            BL       s:820,PREL

     1093      808
     1094      809        /* the input edit buffer's text size is sufficient to cause activation on     */
     1095      810        /* size (if the code actually worked that way). we'll have to                 */
     1096      811        /* truncate the size to just below the activation-on-size point.              */
     1097      812
     1098      813    3            Y@TMPWRD = %KV_STR.MAXRCRBYTSIZ;

    813   0 0000A1  E844 0015                            LDR,R6   21,B4
          0 0000A3  EF47 0004                            STR,R6   Y@TMPWRD,AUTO

     1099      814    4            IF %KV_MVD.ORG=%KV#VD_ORG_UR OR Y$STR.RE_REDCLM=0 THEN DO;

    814   0 0000A5  CCC5 0006                            LDB,B4   6,B5
          0 0000A7  D2C4 0015                            LLH,R5   21,B4
          0 0000A9  5D01                                 CMV,R5   1
          0 0000AA  0901 0005                            BE       s:815,PREL
          0 0000AC  C846 0012                            LDR,R4   18,B6
          0 0000AE  4981 0003                            BNEZ,R4  s:817,PREL

     1100      815    4               Y@TMPWRD = Y@TMPWRD-1;

PL6.E3A0      #005=KVI$CPYEDTBFR File=KVI$RED.:E05TSI                            WED 07/30/97 02:05 Page:172
    815   0 0000B0  88C7 0004                            DEC      Y@TMPWRD,AUTO

     1101      816    4            END;                           /* IF                                 */

     1102      817    3            IF Y@TMPWRD<%KV_SSN.RE_REDCLM

    817   0 0000B2  ACC5 0002                            LDB,B2   2,B5
          0 0000B4  E847 0004                            LDR,R6   Y@TMPWRD,AUTO
          0 0000B6  E942 0036                            CMR,R6   54,B2
          0 0000B8  0281 0003                            BGE      s:820,PREL

     1103      818    3            THEN %KV_SSN.RE_REDCLM = Y@TMPWRD;

    818   0 0000BA  EF42 0036                            STR,R6   54,B2

     1104      819    3         END;                              /* IF                                 */

     1105      820    2         IF Y@TMPWRD>%KV_SSN.REDBFR__.BFRBYTSIZ-%KV_SSN.REDBFR__.BYTX

    820   0 0000BC  CCC5 0002                            LDB,B4   2,B5
          0 0000BE  D844 0034                            LDR,R5   52,B4
          0 0000C0  D244 0032                            SUB,R5   50,B4
          0 0000C2  5801 0008                            BLZ,R5   s:824,PREL
          0 0000C4  D956                                 CMR,R5   R6
          0 0000C5  0201 0005                            BL       s:824,PREL
          0 0000C7  8DC4 0030                            CMN      48,B4
          0 0000C9  0981 0012                            BNE      s:825,PREL

     1106      821    2           OR %KV_SSN.REDBFR__.ADR$=ADDR(NIL)
     1107      822        /* Get a big enough buffer. */
     1108      823
     1109      824    3         THEN CALL KVS$GETREDBFR(Y@TMPWRD) WHENALTRETURN DO; RETURN; END;

    824   0 0000CB  ABC7 0004                            LAB,B2   Y@TMPWRD,AUTO
          0 0000CD  AFC7 000E                            STB,B2   Y@EDTBFR__+7,AUTO
          0 0000CF  BBC7 000E                            LAB,B3   Y@EDTBFR__+7,AUTO
          0 0000D1  CBF0 0100                            LAB,B4   256,IMO
PL6.E3A0      #005=KVI$CPYEDTBFR File=KVI$RED.:E05TSI                            WED 07/30/97 02:05 Page:173
          0 0000D3  E380 0000 0000  xent                 LNJ,B6   KVS$GETREDBFR
          0 0000D6       0003                            DC       s:824+14,PREL
          0 0000D7  0F81 0004                            B        s:825,PREL

    824   0 0000D9  C380 0000 0000  xent                 LNJ,B4   X6A_ARET

     1110      825    2         %KV_SSN.REDBFR__.DATBYTSIZ = Y@TMPWRD;

    825   0 0000DC  EC80 0000 0000  xsym                 LDB,B6   KV$PTR$
          0 0000DF  DCC6 0002                            LDB,B5   2,B6
          0 0000E1  E847 0004                            LDR,R6   Y@TMPWRD,AUTO
          0 0000E3  EF45 0033                            STR,R6   51,B5

     1111      826    3         IF Y@TMPWRD>Y@EDTBFR__.DATBYTSIZ THEN DO;

    826   0 0000E5  E947 000A                            CMR,R6   Y@EDTBFR__+3,AUTO
          0 0000E7  0381 0021                            BLE      s:832,PREL

     1112      827    3            SUBSTR(%KV_SSN.REDBFR__.ADR$->Y$CHR,

    827   0 0000E9  DCC6 0002                            LDB,B5   2,B6
          0 0000EB  CCC5 0030                            LDB,B4   48,B5
          0 0000ED  D845 0032                            LDR,R5   50,B5
          0 0000EF  DA47 000A                            ADD,R5   Y@EDTBFR__+3,AUTO
          0 0000F1  E247 000A                            SUB,R6   Y@EDTBFR__+3,AUTO
          0 0000F3  DF47 000E                            STR,R5   Y@EDTBFR__+7,AUTO
          0 0000F5  EF47 000F                            STR,R6   Y@EDTBFR__+8,AUTO
          0 0000F7  CFC7 0010                            STB,B4   Y@EDTBFR__+9,AUTO
          0 0000F9  AB80 0000 0000  01                   LAB,B2   0
          0 0000FC  2C00                                 LDV,R2   0
          0 0000FD  6C01                                 LDV,R6   1
          0 0000FE  BB84                                 LAB,B3   ,B4
          0 0000FF  B855                                 LDR,R3   R5
          0 000100  F847 000F                            LDR,R7   Y@EDTBFR__+8,AUTO
          0 000102  D380 0000 0000  xent                 LNJ,B5   X6C_ALR

     1113      828    3              %KV_SSN.REDBFR__.BYTX+Y@EDTBFR__.DATBYTSIZ,
PL6.E3A0      #005=KVI$CPYEDTBFR File=KVI$RED.:E05TSI                            WED 07/30/97 02:05 Page:174
     1114      829    3              Y@TMPWRD-Y@EDTBFR__.DATBYTSIZ) = ' ';
     1115      830    3            Y@TMPWRD = Y@EDTBFR__.DATBYTSIZ;

    830   0 000105  E847 000A                            LDR,R6   Y@EDTBFR__+3,AUTO
          0 000107  EF47 0004                            STR,R6   Y@TMPWRD,AUTO

     1116      831    3         END;

     1117      832    2         PINCRC (%KV_SSN.REDBFR__.ADR$, %KV_SSN.REDBFR__.BYTX)->Y$CHR =

    832   0 000109  EC80 0000 0000  xsym                 LDB,B6   KV$PTR$
          0 00010C  DCC6 0002                            LDB,B5   2,B6
          0 00010E  B845 0032                            LDR,R3   50,B5
          0 000110  CCC5 0030                            LDB,B4   48,B5
          0 000112  ACC7 0007                            LDB,B2   Y@EDTBFR__,AUTO
          0 000114  A847 0009                            LDR,R2   Y@EDTBFR__+2,AUTO
          0 000116  BB84                                 LAB,B3   ,B4
          0 000117  0008                                 MMM

     1118      833    2           PINCRC (Y@EDTBFR__.ADR$, Y@EDTBFR__.BYTX)->Y$CHR;
     1119      834    2         %KV_SSN.REDBFR.INSLOWX = %KV_SSN.REDBFR__.BYTX;

    834   0 000118  EC80 0000 0000  xsym                 LDB,B6   KV$PTR$
          0 00011B  DCC6 0002                            LDB,B5   2,B6
          0 00011D  E845 0032                            LDR,R6   50,B5
          0 00011F  EF45 002D                            STR,R6   45,B5

     1120      835    2         %KV_VDI.RE_DSPLOWX = %KV_SSN.REDBFR__.BYTX;

    835   0 000121  DC86                                 LDB,B5   ,B6
          0 000122  ACC6 0002                            LDB,B2   2,B6
          0 000124  E842 0032                            LDR,R6   50,B2
          0 000126  EF45 0016                            STR,R6   22,B5

     1121      836    2         Y@TMPWRD = Y@TMPWRD+%KV_SSN.REDBFR__.BYTX;

    836   0 000128  DCC6 0002                            LDB,B5   2,B6
PL6.E3A0      #005=KVI$CPYEDTBFR File=KVI$RED.:E05TSI                            WED 07/30/97 02:05 Page:175
          0 00012A  E847 0004                            LDR,R6   Y@TMPWRD,AUTO
          0 00012C  EA45 0032                            ADD,R6   50,B5
          0 00012E  EF47 0004                            STR,R6   Y@TMPWRD,AUTO

     1122      837    2         %KV_SSN.REDBFR.NXTX = Y@TMPWRD;

    837   0 000130  DCC6 0002                            LDB,B5   2,B6
          0 000132  EF45 002A                            STR,R6   42,B5

     1123      838    2         %KV_SSN.REDBFR.INSMODX = Y@TMPWRD;

    838   0 000134  DCC6 0002                            LDB,B5   2,B6
          0 000136  EF45 002E                            STR,R6   46,B5

     1124      839    2         %KV_SSN.REDBFR.EDTLOWX = Y@TMPWRD;

    839   0 000138  DCC6 0002                            LDB,B5   2,B6
          0 00013A  EF45 002B                            STR,R6   43,B5

     1125      840    2         %KV_SSN.CLMIS_BYTX = '0'B;

    840   0 00013C  DCC6 0002                            LDB,B5   2,B6
          0 00013E  8845 0037                            LBF,'0080'X       55,B5
          0 000140       0080

     1126      841    2         CALL KVI$EDTX_TO_VRTCLM (Y@TMPSTR$); /* Set CLMIS_BYTX properly         */

    841   0 000141  DBC7 0005                            LAB,B5   Y@TMPSTR$,AUTO
          0 000143  DFC7 000E                            STB,B5   Y@EDTBFR__+7,AUTO
          0 000145  BBC7 000E                            LAB,B3   Y@EDTBFR__+7,AUTO
          0 000147  CBF0 0100                            LAB,B4   256,IMO
          0 000149  E380 0000 0000  xent                 LNJ,B6   KVI$EDTX_TO_VRTCLM
          0 00014C       0001                            DC       s:842,PREL

     1127      842    2         IF %KV_SSN.RE_REDCLM~=0

    842   0 00014D  EC80 0000 0000  xsym                 LDB,B6   KV$PTR$
PL6.E3A0      #005=KVI$CPYEDTBFR File=KVI$RED.:E05TSI                            WED 07/30/97 02:05 Page:176
          0 000150  DCC6 0002                            LDB,B5   2,B6
          0 000152  E845 0036                            LDR,R6   54,B5
          0 000154  6901 0006                            BEZ,R6   s:844,PREL

     1128      843    2         THEN Y@TMPWRD = %KV_SSN.RE_REDCLM-1+%KV_SSN.REDBFR__.BYTX;

    843   0 000156  EA45 0032                            ADD,R6   50,B5
          0 000158  6EFF                                 ADV,R6   -1
          0 000159  EF47 0004                            STR,R6   Y@TMPWRD,AUTO

     1129      844    2         %KV_SSN.REDBFR.EDTLOWX = Y@TMPWRD;

    844   0 00015B  DCC6 0002                            LDB,B5   2,B6
          0 00015D  E847 0004                            LDR,R6   Y@TMPWRD,AUTO
          0 00015F  EF45 002B                            STR,R6   43,B5

     1130      845    2         CALL KVI$SCPVRTCLMLOWX;

    845   0 000161  CBF0 0000                            LAB,B4   0,IMO
          0 000163  E380 0000 0000  xent                 LNJ,B6   KVI$SCPVRTCLMLOWX
          0 000166       0001                            DC       s:847,PREL

     1131      846    2      END;                                 /* IF                                 */

     1132      847    1   END KVI$CPYEDTBFR;

    847   0 000167  C380 0000 0000  xent                 LNJ,B4   X6A_ARET

PL6.E3A0      #005=KVI$CPYEDTBFR File=KVI$RED.:E05TSI                            WED 07/30/97 02:05 Page:177
--  Include file information  --

   KV_INT.:E05TOU  is referenced.
   KV_INT_M.:E05TOU  is referenced.
   KV_PRMID_E.:E05TOU  was found in the system file and is never referenced.
   KV_GLBCNS_E.:E05TOU  was found in the system file and is referenced.
   KV$VDO.:E05TOU  was found in the system file and is never referenced.
   KV$VDH.:E05TOU  was found in the system file and is never referenced.
   KV$USR.:E05TOU  was found in the system file and is never referenced.
   KV$SND.:E05TOU  was found in the system file and is never referenced.
   KV$INT.:E05TOU  was found in the system file and is referenced.
   KV$GLBCTX.:E05TOU  was found in the system file and is referenced.
   KV$GLB.:E05TOU  was found in the system file and is referenced.
   G_LCP6_E.:E05TOU  was found in the system file and is never referenced.
   GT_LCP6_M.:E05TOU  was found in the system file and is never referenced.
   KI_CP6.:E05TOU  was found in the system file and is never referenced.
   GF_LCP6_M.:E05TOU  was found in the system file and is never referenced.
   GM_LCP6_M.:E05TOU  was found in the system file and is never referenced.
   GU_LCP6_M.:E05TOU  was found in the system file and is never referenced.
   GJ_LCP6_M.:E05TOU  was found in the system file and is never referenced.
   GH_LCP6_M.:E05TOU  was found in the system file and is never referenced.
      No diagnostics issued in procedure KVI$CPYEDTBFR.
PL6.E3A0      #005=KVI$CPYEDTBFR File=KVI$RED.:E05TSI                            WED 07/30/97 02:05 Page:178

 **** Variables and constants ****

  ****  Auto variables  ****

  ****  Scalars and arrays  ****
HexLoc.c.b A Datatyp(siz) R M Lvl/name                 HexLoc.c.b A Datatyp(siz) R M Lvl/name

     7-0-0/w STRC(96)    r     1 Y@EDTBFR__                 5-0-0/w PTR         r     1 Y@TMPSTR$
     4-0-0/w UBIN(16)    r     1 Y@TMPWRD

  ****  SYMREF variables  ****

  ****  Scalars and arrays  ****
HexLoc.c.b A Datatyp(siz) R M Lvl/name                 HexLoc.c.b A Datatyp(siz) R M Lvl/name

     0-0-0/w PTR         r     1 KV$PTR$

  ****  BASED and DCB variables  ****

  ****  Scalars and arrays  ****
HexLoc.c.b A Datatyp(siz) R M Lvl/name                 HexLoc.c.b A Datatyp(siz) R M Lvl/name

     0-0-0/w STRC(512)   r     1 KV$MVD                     0-0-0/w STRC(480)   r     1 KV$PTR
     0-0-0/w STRC(56)    r     1 KV$RCR                     0-0-0/w STRC(288)   r     1 KV$RCRLST
     0-0-0/w STRC(1024)  r     1 KV$SSN                     0-0-0/w STRC(512)   r     1 KV$STR
     0-0-0/w STRC(512)   r     1 KV$VDI                     0-0-0/c ACHR        r     1 Y$CHR
     0-0-0/w STRC(512)   r     1 Y$STR


   Procedure KVI$CPYEDTBFR requires 362 words for executable code.
   Procedure KVI$CPYEDTBFR requires 18 words of local(AUTO) storage.

    No errors detected in file KVI$RED.:E05TSI    .
PL6.E3A0      #005=KVI$CPYEDTBFR File=KVI$RED.:E05TSI                            WED 07/30/97 02:05 Page:179
          *** CROSS REFERENCE LISTING ***
**     DENOTES     IDENTIFIER DEFINITION
<<                 IDENTIFIER'S VALUE SET
>>                 IDENTIFIER'S VALUE USED
<>                 IDENTIFIER SET AND/OR USED
--                 IDENTIFIER REFERENCED
PL6.E3A0      #005=KVI$CPYEDTBFR File=KVI$RED.:E05TSI                            WED 07/30/97 02:05 Page:180
          MINI XREF LISTING

KV$MVD.ORG
       272**DCL       790>>IF        814>>IF
KV$PTR.INPCNDPND
       382**DCL       391--REDEF     395--REDEF
KV$PTR.INPCNDPND.OPRX
       391**DCL       790>>IF        791>>IF        791>>IF        794>>ASSIGN
KV$PTR.LINLST$
       378**DCL       379--REDEF
KV$PTR.MVD$
       377**DCL       790>>IF        814>>IF
KV$PTR.RCRLST$
       379**DCL       791>>IF        791>>IF        791>>IF        794>>ASSIGN    794>>ASSIGN    796>>ASSIGN
KV$PTR.SSN$
       376**DCL       775>>ASSIGN    779>>IF        806>>ASSIGN    817>>IF        818>>ASSIGN    820>>IF
       820>>IF        820>>IF        825>>ASSIGN    827>>ASSIGN    827>>ASSIGN    832>>ASSIGN    832>>ASSIGN
       834>>ASSIGN    834>>ASSIGN    835>>ASSIGN    836>>ASSIGN    837>>ASSIGN    838>>ASSIGN    839>>ASSIGN
       840>>ASSIGN    842>>IF        843>>ASSIGN    843>>ASSIGN    844>>ASSIGN
KV$PTR.STR$
       376**DCL       789>>ASSIGN    799>>ASSIGN    807>>IF        813>>ASSIGN
KV$PTR.VDI$
       376**DCL       835>>ASSIGN
KV$PTR$
       370**DCL       376--IMP-PTR   775>>ASSIGN    779>>IF        789>>ASSIGN    790>>IF        790>>IF
       791>>IF        791>>IF        791>>IF        791>>IF        791>>IF        794>>ASSIGN    794>>ASSIGN
       794>>ASSIGN    796>>ASSIGN    799>>ASSIGN    806>>ASSIGN    807>>IF        813>>ASSIGN    814>>IF
       817>>IF        818>>ASSIGN    820>>IF        820>>IF        820>>IF        825>>ASSIGN    827>>ASSIGN
       827>>ASSIGN    832>>ASSIGN    832>>ASSIGN    834>>ASSIGN    834>>ASSIGN    835>>ASSIGN    835>>ASSIGN
       836>>ASSIGN    837>>ASSIGN    838>>ASSIGN    839>>ASSIGN    840>>ASSIGN    842>>IF        843>>ASSIGN
       843>>ASSIGN    844>>ASSIGN
KV$RCR
       310**DCL       796--ASSIGN
KV$RCR.RCRBYTSIZ
PL6.E3A0      #005=KVI$CPYEDTBFR File=KVI$RED.:E05TSI                            WED 07/30/97 02:05 Page:181
       310**DCL       797>>ASSIGN
KV$RCRLST.CRTRCR
       343**DCL       791>>IF        791>>IF        794>>ASSIGN
KV$RCRLST.KEYLNG
       346**DCL       796>>ASSIGN
KV$RCRLST.RCR$
       353**DCL       794>>ASSIGN
KV$RCRLST.RCRCNT
       341**DCL       791>>IF
KV$SSN.CLMIS_BYTX
       471**DCL       840<<ASSIGN
KV$SSN.LSTEDTBFRSTRID
       432**DCL       779>>IF
KV$SSN.REDBFR.EDTLOWX
       441**DCL       839<<ASSIGN    844<<ASSIGN
KV$SSN.REDBFR.INSLOWX
       442**DCL       834<<ASSIGN
KV$SSN.REDBFR.INSMODX
       442**DCL       838<<ASSIGN
KV$SSN.REDBFR.NXTX
       440**DCL       837<<ASSIGN
KV$SSN.REDBFR__.ADR$
       467**DCL       820>>IF        827>>ASSIGN    832>>ASSIGN
KV$SSN.REDBFR__.BFRBYTSIZ
       468**DCL       820>>IF
KV$SSN.REDBFR__.BYTX
       467**DCL       820>>IF        827>>ASSIGN    832>>ASSIGN    834>>ASSIGN    835>>ASSIGN    836>>ASSIGN
       843>>ASSIGN
KV$SSN.REDBFR__.DATBYTSIZ
       467**DCL       825<<ASSIGN
KV$SSN.REDRSPCNT
       427**DCL       428--REDEF
KV$SSN.RE_REDCLM
       471**DCL       806<<ASSIGN    817>>IF        818<<ASSIGN    842>>IF        843>>ASSIGN
KV$SSN.STR$
       421**DCL       775>>ASSIGN
PL6.E3A0      #005=KVI$CPYEDTBFR File=KVI$RED.:E05TSI                            WED 07/30/97 02:05 Page:182
KV$STR.EDTBFR__
       522**DCL       789>>ASSIGN
KV$STR.MAXRCRBYTSIZ
       555**DCL       807>>IF        813>>ASSIGN
KV$VDI.RE_DSPLOWX
       703**DCL       835<<ASSIGN
KVI$EDTX_TO_VRTCLM
       185**DCL-ENT   841--CALL
KVI$SCPVRTCLMLOWX
       186**DCL-ENT   845--CALL
KVS$GETREDBFR
       187**DCL-ENT   824--CALL
SUBCOMMON
       801**LABEL     781--GOTO
Y$CHR
       726**DCL       827<<ASSIGN    832<<ASSIGN    832>>ASSIGN
Y$STR.EDTBFR__
       609**DCL       780>>ASSIGN
Y$STR.EDTBFR__.ADR$
       611**DCL       801>>IF
Y$STR.ID
       645**DCL       779>>IF
Y$STR.LNK$
       585**DCL       783>>ASSIGN
Y$STR.RE_REDCLM
       615**DCL       805>>ASSIGN    806>>ASSIGN    814>>IF
Y@EDTBFR__
       761**DCL       780<<ASSIGN    789<<ASSIGN
Y@EDTBFR__.ADR$
       765**DCL       795<<ASSIGN    832>>ASSIGN
Y@EDTBFR__.BYTX
       765**DCL       796<<ASSIGN    832>>ASSIGN
Y@EDTBFR__.DATBYTSIZ
       765**DCL       797<<ASSIGN    805>>ASSIGN    826>>IF        827>>ASSIGN    827>>ASSIGN    830>>ASSIGN
Y@TMPSTR$
       738**DCL       585--IMP-PTR   775<<ASSIGN    776>>DOWHILE   779>>IF        780>>ASSIGN    783<<ASSIGN
PL6.E3A0      #005=KVI$CPYEDTBFR File=KVI$RED.:E05TSI                            WED 07/30/97 02:05 Page:183
       783>>ASSIGN    794<<ASSIGN    795>>ASSIGN    797>>ASSIGN    799<<ASSIGN    801>>IF        805>>ASSIGN
       806>>ASSIGN    814>>IF        841<>CALL
Y@TMPWRD
       734**DCL       726--IMP-SIZ   805<<ASSIGN    807>>IF        813<<ASSIGN    815<<ASSIGN    815>>ASSIGN
       817>>IF        818>>ASSIGN    820>>IF        824<>CALL      825>>ASSIGN    826>>IF        827>>ASSIGN
       827>>ASSIGN    830<<ASSIGN    832>>ASSIGN    832>>ASSIGN    836<<ASSIGN    836>>ASSIGN    837>>ASSIGN
       838>>ASSIGN    839>>ASSIGN    843<<ASSIGN    844>>ASSIGN
