VERSION E05

PL6.E3A0      #001=KVQ_FAST_E File=KVQ_FAST_E.:E05TSI                            TUE 07/29/97 07:24 Page:1
        1        1        /*M* KVQ_FAST_E - EQUs for KVQ$FAST. */
        2        2        /*T***********************************************************/
        3        3        /*T*                                                         */
        4        4        /*T* Copyright (c) Bull HN Information Systems Inc., 1997    */
        5        5        /*T*                                                         */
        6        6        /*T***********************************************************/
        7        7        /*F* NAME: KVQ_FAST_E
        8        8             DESCRIPTION: The output of DRAW.X on the OU created from this source
        9        9                          is a collection of equates needed to compile KVQ$FAST.
       10       10                          PL6 options are MSCH and OU (at least).  DRAW options
       11       11                          are EQ=3, MA=3.
       12       12        */
       13       13        KVQ_FAST_E: PROC;
       14       14 S      %INCLUDE KV$GLB;
       15       15 S      %INCLUDE KV$GLBCTX;
       16       16 S      %INCLUDE KV$INT;
       17       17 S      %INCLUDE KV$VDH;
       18       18        %KV$PTR;
       19       61        %KV$STR;
       20      148        %KV$TRNTBL (STCLASS=AUTO);
       21      206        %KV$SSN;
       22      285        %KV$MVD;
       23      329        %KV$VDH_DAT (STCLASS=AUTO);
       24      409        %KV$SHRBFR (STCLASS=AUTO, LAST=",");
       25      441    1    2 DAT UBIN;
       26      442    1      IF 1<
       27      443    1        SIZEB(KV$PTR.MVD$)+
       28      444    1        SIZEB(KV$PTR.SSN$)+
       29      445    1        SIZEB(KV$PTR.STR$)+
       30      446    1        SIZEB(KV$STR.ACTONTRN)+
       31      447    1        SIZEB(KV$STR.ACTCHRTBL$)+
       32      448    1        SIZEB(KV$STR.MAXRCRBYTSIZ)+
       33      449    1        SIZEB(KV$SHRBFR.DAT)+
       34      450    1        SIZEB(KV$SSN.REDBFR.NXTX)+
       35      451    1        SIZEB(KV$SSN.REDBFR.EDTLOWX)+
       36      452    1        SIZEB(KV$SSN.REDBFR.EDTHI_X)+
       37      453    1        SIZEB(KV$SSN.REDBFR.INSMODX)+
PL6.E3A0      #001=KVQ_FAST_E File=KVQ_FAST_E.:E05TSI                            TUE 07/29/97 07:24 Page:2
       38      454    1        SIZEB(KV$SSN.REDBFR__.ADR$)+
       39      455    1        SIZEB(KV$SSN.REDBFR__.BFRBYTSIZ)+
       40      456    1        SIZEB(KV$SSN.REDBFR__.DATBYTSIZ)+
       41      457    1        SIZEB(KV$SSN.INPCHR)+
       42      458    1        SIZEB(KV$MVD.ORG)+
       43      459    1        SIZEB(KV$MVD.TRNTBL$)+
       44      460    1        SIZEB(KV$TRNTBL.INPCTRSTRINTCHR)+
       45      461    1        SIZEB(KV$VDH_DAT.DAT__.ADR$)+
       46      462    1        SIZEB(KV$VDH_DAT.DAT__.BYTX)+
       47      463    1      1 THEN RETURN;
       48      464    1   END;

PL6.E3A0      #001=KVQ_FAST_E File=KVQ_FAST_E.:E05TSI                            TUE 07/29/97 07:24 Page:3
--  Include file information  --

   KV_PRMID_E.:E05TOU  was found in the system file and is never referenced.
   KV_GLBCNS_E.:E05TOU  was found in the system file and is never referenced.
   KV$VDO.:E05TOU  was found in the system file and is never referenced.
   KV$VDH.:E05TOU  was found in the system file and is referenced.
   KV$USR.:E05TOU  was found in the system file and is never referenced.
   KV$SND.:E05TOU  was found in the system file and is never referenced.
   KV$INT.:E05TOU  was found in the system file and is referenced.
   KV$GLBCTX.:E05TOU  was found in the system file and is referenced.
   KV$GLB.:E05TOU  was found in the system file and is referenced.
   G_LCP6_E.:E05TOU  was found in the system file and is never referenced.
   GT_LCP6_M.:E05TOU  was found in the system file and is never referenced.
   KI_CP6.:E05TOU  was found in the system file and is never referenced.
   GF_LCP6_M.:E05TOU  was found in the system file and is never referenced.
   GM_LCP6_M.:E05TOU  was found in the system file and is never referenced.
   GU_LCP6_M.:E05TOU  was found in the system file and is never referenced.
   GJ_LCP6_M.:E05TOU  was found in the system file and is never referenced.
   GH_LCP6_M.:E05TOU  was found in the system file and is never referenced.
      No diagnostics issued in procedure KVQ_FAST_E.

   Procedure KVQ_FAST_E requires 8 words for executable code.
   Procedure KVQ_FAST_E requires 50 words of local(AUTO) storage.

    No errors detected in file KVQ_FAST_E.:E05TSI    .

PL6.E3A0      #001=KVQ_FAST_E File=KVQ_FAST_E.:E05TSI                            TUE 07/29/97 07:24 Page:4
          *** CROSS REFERENCE LISTING ***
**     DENOTES     IDENTIFIER DEFINITION
<<                 IDENTIFIER'S VALUE SET
>>                 IDENTIFIER'S VALUE USED
<>                 IDENTIFIER SET AND/OR USED
--                 IDENTIFIER REFERENCED
PL6.E3A0      #001=KVQ_FAST_E File=KVQ_FAST_E.:E05TSI                            TUE 07/29/97 07:24 Page:5
          MINI XREF LISTING

KV$MVD.ORG
       312**DCL       442--IF
KV$MVD.TRNTBL$
       309**DCL       442--IF
KV$PTR.INPCNDPND
        45**DCL        54--REDEF      58--REDEF
KV$PTR.LINLST$
        41**DCL        42--REDEF
KV$PTR.MVD$
        40**DCL       442--IF
KV$PTR.SSN$
        39**DCL       442--IF
KV$PTR.STR$
        39**DCL       442--IF
KV$PTR$
        33**DCL        39--IMP-PTR
KV$SHRBFR.DAT
       441**DCL       442--IF
KV$SSN.INPCHR
       247**DCL       442--IF
KV$SSN.REDBFR.EDTHI_X
       249**DCL       442--IF
KV$SSN.REDBFR.EDTLOWX
       249**DCL       442--IF
KV$SSN.REDBFR.INSMODX
       250**DCL       442--IF
KV$SSN.REDBFR.NXTX
       248**DCL       442--IF
KV$SSN.REDBFR__.ADR$
       275**DCL       442--IF
KV$SSN.REDBFR__.BFRBYTSIZ
       276**DCL       442--IF
PL6.E3A0      #001=KVQ_FAST_E File=KVQ_FAST_E.:E05TSI                            TUE 07/29/97 07:24 Page:6
KV$SSN.REDBFR__.DATBYTSIZ
       275**DCL       442--IF
KV$SSN.REDRSPCNT
       235**DCL       236--REDEF
KV$STR.ACTCHRTBL$
        84**DCL       442--IF
KV$STR.ACTONTRN
       142**DCL       442--IF
KV$STR.MAXRCRBYTSIZ
       139**DCL       442--IF
KV$TRNTBL.INPCTRSTRINTCHR
       202**DCL       442--IF
KV$TRNTBL.OTPESCCHR
       199**DCL       199--REDEF
KV$VDH_DAT.DAT__.ADR$
       398**DCL       442--IF
KV$VDH_DAT.DAT__.BYTX
       398**DCL       442--IF


07:24 JUL 29 '97 KVQ_FAST_E.:E05TOU                                        1
    1      KV$PTR#               EQU     0
    2      KV$PTR_SSN$#          EQU     2
    3      KV$PTR_STR$#          EQU     4
    4      KV$PTR_MVD$#          EQU     6
    5      KV$STR#               EQU     0
    6      KV$STR_ACTCHRTBL$#    EQU    10
    7      KV$STR_MAXRCRBYTSIZ#  EQU    21
    8      KV$STR_MAXRCRBYTSIZ#M# EQU 65535
    9      KV$STR_ACTONTRN#      EQU    28
   10      KV$STR_ACTONTRN#M#    EQU   128
   11      KV$TRNTBL#            EQU     0
   12      KV$TRNTBL_INPCTRSTRINTCHR# EQU    30
   13      KV$TRNTBL_INPCTRSTRINTCHR#M# EQU   255
   14      KV$SSN#               EQU     0
   15      KV$SSN_INPCHR#        EQU    41
   16      KV$SSN_INPCHR#M#      EQU 65280
   17      KV$SSN_REDBFR#        EQU    42
   18      KV$SSN_REDBFR_NXTX#   EQU    42
   19      KV$SSN_REDBFR_NXTX#M# EQU 65535
   20      KV$SSN_REDBFR_EDTLOWX# EQU    43
   21      KV$SSN_REDBFR_EDTLOWX#M# EQU 65535
   22      KV$SSN_REDBFR_EDTHI_X# EQU    44
   23      KV$SSN_REDBFR_EDTHI_X#M# EQU 65535
   24      KV$SSN_REDBFR_INSMODX# EQU    46
   25      KV$SSN_REDBFR_INSMODX#M# EQU 65535
   26      KV$SSN_REDBFR__#      EQU    48
   27      KV$SSN_REDBFR___ADR$# EQU    48
   28      KV$SSN_REDBFR___DATBYTSIZ# EQU    51
   29      KV$SSN_REDBFR___DATBYTSIZ#M# EQU 65535
   30      KV$SSN_REDBFR___BFRBYTSIZ# EQU    52
   31      KV$SSN_REDBFR___BFRBYTSIZ#M# EQU 65535
   32      KV$MVD#               EQU     0
   33      KV$MVD_TRNTBL$#       EQU    14
   34      KV$MVD_ORG#           EQU    21
   35      KV$MVD_ORG#M#         EQU 65280
   36      KV$VDH_DAT#           EQU     0
   37      KV$VDH_DAT_DAT__#     EQU     1
07:24 JUL 29 '97 KVQ_FAST_E.:E05TOU                                        2
   38      KV$VDH_DAT_DAT___ADR$# EQU     1
   39      KV$VDH_DAT_DAT___BYTX# EQU     3
   40      KV$VDH_DAT_DAT___BYTX#M# EQU 65535
   41      KV$SHRBFR#            EQU     0
   42      KV$SHRBFR_DAT#        EQU     4
   43      KV$SHRBFR_DAT#M#      EQU 65535

