PL6.E3A0      #002=KVV$VDHINT File=KVV$VDI.:E05TSI                               WED 07/30/97 02:17 Page:166
     1162        1        /*T***********************************************************/
     1163        2        /*T*                                                         */
     1164        3        /*T* Copyright (c) Bull HN Information Systems Inc., 1997    */
     1165        4        /*T*                                                         */
     1166        5        /*T***********************************************************/
     1167        6        /*X*     NSO,PLM=3,SQB=Y,AND=Y,ENI=0,SDI=3,MCL=10,CSI=0,ECI=0,IND=0,IAD=3 */
     1168        7        KVV$VDHINT: PROC(KV$VDH_VDHINT) ALTRET;
     1169        8        /*F* NAME: KVV$VDHINT - Initialize VDH Buffers and the Circular Queue
     1170        9        The KVV$VDHINT routine is to be called by the handler to initialize
     1171       10        VDH context and buffer pools.
     1172       11
     1173       12        The system default memory pool, which is zero, is initialized by
     1174       13        this routine.
     1175       14        This routine will also create a DCB, M$CQ, that VDH may use to write
     1176       15        messages to the handler's circular queue, and open that DCB.
     1177       16        The alternate return will be taken if the DCB cannot be created or
     1178       17        opened.
     1179       18
     1180       19        The form of this call is:
     1181       20
     1182       21             CALL KVV$VDHINT(kv$vdh_vdhint) ALTRET(label);
     1183       22
     1184       23        where:
     1185       24        */
     1186       25        /*K* kv$vdh_vdhint - is a structure that contains all the necessary
     1187       26        information required to initialize the default memory pool and the
     1188       27        circular queue.
     1189       28
     1190       29        The KV$VDH_VDHINT macro is to be used to generate this structure.
     1191       30        Please refer to the description of that macro for details.
     1192       31        */
     1193       32
     1194       33    1   DCL G$HAND_Q$ PTR SYMREF;
     1195       34
     1196       35        %INCLUDE LCP_6;
     1197      226        %FPT_GETDCB (FPTN=FPT_GETDCB, DCBNAME=VLP_NAME_M$CQ, STCLASS=CONSTANT);
     1198      246        %FPT_GETDCB (FPTN=FPT@GETDCB, STCLASS=AUTO);
PL6.E3A0      #002=KVV$VDHINT File=KVV$VDI.:E05TSI                               WED 07/30/97 02:17 Page:167
     1199      266    1   DCL DCB# UBIN AUTO;
     1200      267        %VLP_NAME (FPTN = VLP_NAME_M$CQ, NAME = 'M$CQ', LEN = 4, STCLASS = CONSTANT);
     1201      282        %FPT_OPEN (FPTN=FPT_OPEN_CQ, ORG=CQ, HMI=VLP_HMI, STCLASS=CONSTANT);
     1202      310        %FPT_OPEN (FPTN=FPT@OPEN_CQ, STCLASS=AUTO);
     1203      338        %FPT_WRTMLT (FPTN = KV_FPT_WRTMLT, STCLASS = SYMREF);
     1204      358
     1205      359        %INCLUDE KNH_MACRO_C;
     1206      642        %KNH$QHDR (FPTN = KNH_QHDR, STCLASS = "BASED(G$HAND_Q$)");
     1207      655        %VLP_HMI (FPTN=VLP_HMI, IO=NO, CTXSIZE=2, STCLASS=CONSTANT);
     1208      671        %VLP_HMI (FPTN=VLP@HMI, STCLASS=AUTO);
     1209      687
     1210      688 S      %INCLUDE KV_GLBCNS_E;
     1211      689 S      %INCLUDE KV$GLB;
     1212      690        %INCLUDE KV_GLB;
     1213      713 S      %INCLUDE KV$GLBCTX;
     1214      714 S      %INCLUDE KV$VDH;
     1215      715        %KV#CQ_HNDID_E;
     1216      720        %KV_CQ;
     1217      736        %KV$USRPRM;
     1218      787        %KV$VDH_VDHINT(STCLASS = );
     1219      806
     1220      807    1   DCL KVB$INT ENTRY(1) ALTRET;
     1221      808
     1222      809        /* Now call other initializers that need it */
     1223      810    1      CALL KVB$INT(KV$VDH_VDHINT);
     1224      811        /* Set up the circular Qs for conversing with the monitor
     1225      812        and session layer */
     1226      813    1      FPT@GETDCB = FPT_GETDCB;
     1227      814    1      FPT@GETDCB.DCBNUM_ = VECTOR (DCB#);
     1228      815    1      VLP@HMI = VLP_HMI;
     1229      816    1      FPT@OPEN_CQ = FPT_OPEN_CQ;
     1230      817    1      VBASE (FPT@OPEN_CQ.V_) = ADDR (FPT@OPEN_CQ.V);
     1231      818    1      VBASE (FPT@OPEN_CQ.HMI_) = ADDR (VLP@HMI);
     1232      819    1      VLP@HMI.SCQSIZE = KV$VDH_VDHINT.SNDCQ_BYTSIZ;
     1233      820    1      VLP@HMI.RCQSIZE = KV$VDH_VDHINT.RCVCQ_BYTSIZ;
     1234      821
     1235      822    1      CALL M$GETDCB (FPT@GETDCB)
PL6.E3A0      #002=KVV$VDHINT File=KVV$VDI.:E05TSI                               WED 07/30/97 02:17 Page:168
     1236      823    2      WHENALTRETURN DO;
     1237      824    2         ALTRETURN;
     1238      825    2      END; /* END WHENALTRETURN DO */
     1239      826
     1240      827    1      KV_FPT_WRTMLT.V.DCB# = DCB#;
     1241      828    1      FPT@OPEN_CQ.V.DCB# = DCB#;
     1242      829
     1243      830    1      CALL M$OPEN(FPT@OPEN_CQ)
     1244      831
     1245      832    2      WHENRETURN DO;
     1246      833    2         KV_SNDCQ_QHDR$ = G$HAND_Q$;
     1247      834    2         KV_RCVCQ$ = PINCRW(G$HAND_Q$, KNH_QHDR.RCQ.OFFSET);
     1248      835    2         RETURN;
     1249      836    2      END; /* END WHENRETURN DO */
     1250      837
     1251      838    2      WHENALTRETURN DO;
     1252      839    2         ALTRETURN;
     1253      840    2      END; /* END WHENALTRETURN DO */
     1254      841    1   END;

PL6.E3A0      #002=KVV$VDHINT File=KVV$VDI.:E05TSI                               WED 07/30/97 02:17 Page:169
--  Include file information  --

   KV_GLB.:E05TOU  is referenced.
   KNH_MACRO_C.:E05TOU  is referenced.
   LCP_6.:E05TOU  cannot be made into a system file and is referenced.
   KV_PRMID_E.:E05TOU  was found in the system file and is never referenced.
   KV_GLBCNS_E.:E05TOU  was found in the system file and is referenced.
   KV$VDO.:E05TOU  was found in the system file and is never referenced.
   KV$VDH.:E05TOU  was found in the system file and is referenced.
   KV$USR.:E05TOU  was found in the system file and is never referenced.
   KV$SND.:E05TOU  was found in the system file and is never referenced.
   KV$INT.:E05TOU  was found in the system file and is never referenced.
   KV$GLBCTX.:E05TOU  was found in the system file and is referenced.
   KV$GLB.:E05TOU  was found in the system file and is referenced.
   G_LCP6_E.:E05TOU  was found in the system file and is referenced.
   GT_LCP6_M.:E05TOU  was found in the system file and is referenced.
   KI_CP6.:E05TOU  was found in the system file and is referenced.
   GF_LCP6_M.:E05TOU  was found in the system file and is referenced.
   GM_LCP6_M.:E05TOU  was found in the system file and is referenced.
   GU_LCP6_M.:E05TOU  was found in the system file and is referenced.
   GJ_LCP6_M.:E05TOU  was found in the system file and is referenced.
   GH_LCP6_M.:E05TOU  was found in the system file and is referenced.
      No diagnostics issued in procedure KVV$VDHINT.

   Procedure KVV$VDHINT requires 116 words for executable code.
   Procedure KVV$VDHINT requires 73 words of local(AUTO) storage.

    No errors detected in file KVV$VDI.:E05TSI    .

PL6.E3A0      #002=KVV$VDHINT File=KVV$VDI.:E05TSI                               WED 07/30/97 02:17 Page:170

 Object Unit name= KVV$VDHINT                                 File name= KVV$VDI.:E05TOU
 UTS= JUL 30 '97 02:17:11.96 WED                              Compiler= PL-6/E31         Sev=      00
 SharedLib= :SHARED_LCP6_SYSTEM                               Alt SharedLib=


    ****  Control sections  ****

 Sect   Type Bound  Init  Size HexSiz  Section name
    0  RoData even  UTS     66     42  KVV$VDHINT
    1   Proc  even  none   116     74  KVV$VDHINT

    ****  Entry defs  ****

                              Check   Calling
                             calling  sequence
  Sect HexLoc Primary Altret sequence   type   Parms  Name
     1      0   yes    yes     yes      Std        1  KVV$VDHINT

  ****  Entry refs  ****

         Check        Calling
        calling       sequence
Altret sequence SRef   type   Args  Name
 yes     yes           Std       1 KVB$INT
                       nStd      0 X6A_AUTO_1
                       nStd      0 X6A_AALT
                       nStd      0 X6A_ARET

  ****  Data refs  ****

  Flags:  r = read only, s = secondary
Flgs Name                             Flgs Name                             Flgs Name
     G$HAND_Q$                             KV_FPT_WRTMLT                         KV_CQ_HNDSBR$
     KV_RCVCQ$                             KV_SNDCQ_QHDR$                   r    G$ROS$
PL6.E3A0      #002=KVV$VDHINT File=KVV$VDI.:E05TSI                               WED 07/30/97 02:17 Page:171


     1162        1        /*T***********************************************************/
     1163        2        /*T*                                                         */
     1164        3        /*T* Copyright (c) Bull HN Information Systems Inc., 1997    */
     1165        4        /*T*                                                         */
     1166        5        /*T***********************************************************/
     1167        6        /*X*     NSO,PLM=3,SQB=Y,AND=Y,ENI=0,SDI=3,MCL=10,CSI=0,ECI=0,IND=0,IAD=3 */
     1168        7        KVV$VDHINT: PROC(KV$VDH_VDHINT) ALTRET;

      7   1 000000  D380 0000 0000  xent KVV$VDHINT      LNJ,B5   X6A_AUTO_1
          1 000003       0049 0001                       DC       73,1

     1169        8        /*F* NAME: KVV$VDHINT - Initialize VDH Buffers and the Circular Queue
     1170        9        The KVV$VDHINT routine is to be called by the handler to initialize
     1171       10        VDH context and buffer pools.
     1172       11
     1173       12        The system default memory pool, which is zero, is initialized by
     1174       13        this routine.
     1175       14        This routine will also create a DCB, M$CQ, that VDH may use to write
     1176       15        messages to the handler's circular queue, and open that DCB.
     1177       16        The alternate return will be taken if the DCB cannot be created or
     1178       17        opened.
     1179       18
     1180       19        The form of this call is:
     1181       20
     1182       21             CALL KVV$VDHINT(kv$vdh_vdhint) ALTRET(label);
     1183       22
     1184       23        where:
     1185       24        */
     1186       25        /*K* kv$vdh_vdhint - is a structure that contains all the necessary
     1187       26        information required to initialize the default memory pool and the
     1188       27        circular queue.
     1189       28
     1190       29        The KV$VDH_VDHINT macro is to be used to generate this structure.
     1191       30        Please refer to the description of that macro for details.
     1192       31        */
     1193       32
PL6.E3A0      #002=KVV$VDHINT File=KVV$VDI.:E05TSI                               WED 07/30/97 02:17 Page:172
     1194       33    1   DCL G$HAND_Q$ PTR SYMREF;
     1195       34
     1196       35        %INCLUDE LCP_6;
     1197      226        %FPT_GETDCB (FPTN=FPT_GETDCB, DCBNAME=VLP_NAME_M$CQ, STCLASS=CONSTANT);
     1198      246        %FPT_GETDCB (FPTN=FPT@GETDCB, STCLASS=AUTO);
     1199      266    1   DCL DCB# UBIN AUTO;
     1200      267        %VLP_NAME (FPTN = VLP_NAME_M$CQ, NAME = 'M$CQ', LEN = 4, STCLASS = CONSTANT);
     1201      282        %FPT_OPEN (FPTN=FPT_OPEN_CQ, ORG=CQ, HMI=VLP_HMI, STCLASS=CONSTANT);
     1202      310        %FPT_OPEN (FPTN=FPT@OPEN_CQ, STCLASS=AUTO);
     1203      338        %FPT_WRTMLT (FPTN = KV_FPT_WRTMLT, STCLASS = SYMREF);
     1204      358
     1205      359        %INCLUDE KNH_MACRO_C;
     1206      642        %KNH$QHDR (FPTN = KNH_QHDR, STCLASS = "BASED(G$HAND_Q$)");
     1207      655        %VLP_HMI (FPTN=VLP_HMI, IO=NO, CTXSIZE=2, STCLASS=CONSTANT);
     1208      671        %VLP_HMI (FPTN=VLP@HMI, STCLASS=AUTO);
     1209      687
     1210      688 S      %INCLUDE KV_GLBCNS_E;
     1211      689 S      %INCLUDE KV$GLB;
     1212      690        %INCLUDE KV_GLB;
     1213      713 S      %INCLUDE KV$GLBCTX;
     1214      714 S      %INCLUDE KV$VDH;
     1215      715        %KV#CQ_HNDID_E;
     1216      720        %KV_CQ;
     1217      736        %KV$USRPRM;
     1218      787        %KV$VDH_VDHINT(STCLASS = );
     1219      806
     1220      807    1   DCL KVB$INT ENTRY(1) ALTRET;
     1221      808
     1222      809        /* Now call other initializers that need it */
     1223      810    1      CALL KVB$INT(KV$VDH_VDHINT);

    810   1 000005  BBC7 0004                            LAB,B3   @KV$VDH_VDHINT,AUTO
          1 000007  CBF0 0100                            LAB,B4   256,IMO
          1 000009  E380 0000 0000  xent                 LNJ,B6   KVB$INT
          1 00000C       0001                            DC       s:813,PREL

     1224      811        /* Set up the circular Qs for conversing with the monitor
PL6.E3A0      #002=KVV$VDHINT File=KVV$VDI.:E05TSI                               WED 07/30/97 02:17 Page:173
     1225      812        and session layer */
     1226      813    1      FPT@GETDCB = FPT_GETDCB;

    813   1 00000D  AB80 0000 0000  00                   LAB,B2   FPT_GETDCB
          1 000010  2C00                                 LDV,R2   0
          1 000011  6C18                                 LDV,R6   24
          1 000012  BB87                                 LAB,B3   ,AUTO
          1 000013  3C0C                                 LDV,R3   12
          1 000014  0008                                 MMM

     1227      814    1      FPT@GETDCB.DCBNUM_ = VECTOR (DCB#);

    814   1 000015  EBC7 0012                            LAB,B6   DCB#,AUTO
          1 000017  EFC7 0047                            STB,B6   VLP@HMI+5,AUTO
          1 000019  6C01                                 LDV,R6   1
          1 00001A  EF47 0046                            STR,R6   VLP@HMI+4,AUTO
          1 00001C  ABC7 0046                            LAB,B2   VLP@HMI+4,AUTO
          1 00001E  2C00                                 LDV,R2   0
          1 00001F  6C06                                 LDV,R6   6
          1 000020  BB87                                 LAB,B3   ,AUTO
          1 000021  3C18                                 LDV,R3   24
          1 000022  0008                                 MMM

     1228      815    1      VLP@HMI = VLP_HMI;

    815   1 000023  AB80 0000 0000  00                   LAB,B2   FPT_GETDCB
          1 000026  2C7C                                 LDV,R2   124
          1 000027  6C08                                 LDV,R6   8
          1 000028  BBC7 0042                            LAB,B3   VLP@HMI,AUTO
          1 00002A  3C00                                 LDV,R3   0
          1 00002B  0008                                 MMM

     1229      816    1      FPT@OPEN_CQ = FPT_OPEN_CQ;

    816   1 00002C  AB80 0000 0000  00                   LAB,B2   FPT_GETDCB
          1 00002F  2C1E                                 LDV,R2   30
          1 000030  6C5E                                 LDV,R6   94
PL6.E3A0      #002=KVV$VDHINT File=KVV$VDI.:E05TSI                               WED 07/30/97 02:17 Page:174
          1 000031  BB87                                 LAB,B3   ,AUTO
          1 000032  3C26                                 LDV,R3   38
          1 000033  0008                                 MMM

     1230      817    1      VBASE (FPT@OPEN_CQ.V_) = ADDR (FPT@OPEN_CQ.V);

    817   1 000034  EBC7 003A                            LAB,B6   FPT@OPEN_CQ+39,AUTO
          1 000036  EFC7 0014                            STB,B6   FPT@OPEN_CQ+1,AUTO

     1231      818    1      VBASE (FPT@OPEN_CQ.HMI_) = ADDR (VLP@HMI);

    818   1 000038  DBC7 0042                            LAB,B5   VLP@HMI,AUTO
          1 00003A  DFC7 0017                            STB,B5   FPT@OPEN_CQ+4,AUTO

     1232      819    1      VLP@HMI.SCQSIZE = KV$VDH_VDHINT.SNDCQ_BYTSIZ;

    819   1 00003C  CCC7 0004                            LDB,B4   @KV$VDH_VDHINT,AUTO
          1 00003E  E844 0007                            LDR,R6   7,B4
          1 000040  EF47 0042                            STR,R6   VLP@HMI,AUTO

     1233      820    1      VLP@HMI.RCQSIZE = KV$VDH_VDHINT.RCVCQ_BYTSIZ;

    820   1 000042  D844 0006                            LDR,R5   6,B4
          1 000044  DF47 0043                            STR,R5   VLP@HMI+1,AUTO

     1234      821
     1235      822    1      CALL M$GETDCB (FPT@GETDCB)

    822   1 000046  BBC7 0006                            LAB,B3   FPT@GETDCB,AUTO
          1 000048  B870 0D45                            LDR,R3   3397,IMO
          1 00004A  0001                                 MCL
          1 00004B       0003                            DC       s:824,PREL
          1 00004C  0F81 0004                            B        s:827,PREL

     1236      823    2      WHENALTRETURN DO;

     1237      824    2         ALTRETURN;
PL6.E3A0      #002=KVV$VDHINT File=KVV$VDI.:E05TSI                               WED 07/30/97 02:17 Page:175

    824   1 00004E  C380 0000 0000  xent                 LNJ,B4   X6A_AALT

     1238      825    2      END; /* END WHENALTRETURN DO */
     1239      826
     1240      827    1      KV_FPT_WRTMLT.V.DCB# = DCB#;

    827   1 000051  E847 0012                            LDR,R6   DCB#,AUTO
          1 000053  E780 0000 000C  xsym                 STH,R6   KV_FPT_WRTMLT+12

     1241      828    1      FPT@OPEN_CQ.V.DCB# = DCB#;

    828   1 000056  E7C7 003A                            STH,R6   FPT@OPEN_CQ+39,AUTO

     1242      829
     1243      830    1      CALL M$OPEN(FPT@OPEN_CQ)

    830   1 000058  BBC7 0013                            LAB,B3   FPT@OPEN_CQ,AUTO
          1 00005A  B870 3540                            LDR,R3   13632,IMO
          1 00005C  0001                                 MCL
          1 00005D       0014                            DC       s:839,PREL

     1244      831
     1245      832    2      WHENRETURN DO;

     1246      833    2         KV_SNDCQ_QHDR$ = G$HAND_Q$;

    833   1 00005E  EC80 0000 0000  xsym                 LDB,B6   G$HAND_Q$
          1 000061  EF80 0000 0000  xsym                 STB,B6   KV_SNDCQ_QHDR$

     1247      834    2         KV_RCVCQ$ = PINCRW(G$HAND_Q$, KNH_QHDR.RCQ.OFFSET);

    834   1 000064  B846 0003                            LDR,R3   3,B6
          1 000066  F853                                 LDR,R7   R3
          1 000067  6C00                                 LDV,R6   0
          1 000068  8400 0000 0000  xsym                 AID      G$HAND_Q$
          1 00006B  8D00 0000 0000  xsym                 SDI      KV_RCVCQ$
PL6.E3A0      #002=KVV$VDHINT File=KVV$VDI.:E05TSI                               WED 07/30/97 02:17 Page:176

     1248      835    2         RETURN;

    835   1 00006E  C380 0000 0000  xent                 LNJ,B4   X6A_ARET

     1249      836    2      END; /* END WHENRETURN DO */
     1250      837
     1251      838    2      WHENALTRETURN DO;

     1252      839    2         ALTRETURN;

    839   1 000071  C380 0000 0000  xent                 LNJ,B4   X6A_AALT
     1253      840    2      END; /* END WHENALTRETURN DO */
     1254      841    1   END;

PL6.E3A0      #002=KVV$VDHINT File=KVV$VDI.:E05TSI                               WED 07/30/97 02:17 Page:177
--  Include file information  --

   KV_GLB.:E05TOU  is referenced.
   KNH_MACRO_C.:E05TOU  is referenced.
   LCP_6.:E05TOU  cannot be made into a system file and is referenced.
   KV_PRMID_E.:E05TOU  was found in the system file and is never referenced.
   KV_GLBCNS_E.:E05TOU  was found in the system file and is referenced.
   KV$VDO.:E05TOU  was found in the system file and is never referenced.
   KV$VDH.:E05TOU  was found in the system file and is referenced.
   KV$USR.:E05TOU  was found in the system file and is never referenced.
   KV$SND.:E05TOU  was found in the system file and is never referenced.
   KV$INT.:E05TOU  was found in the system file and is never referenced.
   KV$GLBCTX.:E05TOU  was found in the system file and is referenced.
   KV$GLB.:E05TOU  was found in the system file and is referenced.
   G_LCP6_E.:E05TOU  was found in the system file and is referenced.
   GT_LCP6_M.:E05TOU  was found in the system file and is referenced.
   KI_CP6.:E05TOU  was found in the system file and is referenced.
   GF_LCP6_M.:E05TOU  was found in the system file and is referenced.
   GM_LCP6_M.:E05TOU  was found in the system file and is referenced.
   GU_LCP6_M.:E05TOU  was found in the system file and is referenced.
   GJ_LCP6_M.:E05TOU  was found in the system file and is referenced.
   GH_LCP6_M.:E05TOU  was found in the system file and is referenced.
      No diagnostics issued in procedure KVV$VDHINT.
PL6.E3A0      #002=KVV$VDHINT File=KVV$VDI.:E05TSI                               WED 07/30/97 02:17 Page:178

 **** Variables and constants ****

  ****  Section 000 RoData KVV$VDHINT

  ****  Scalars and arrays  ****
HexLoc.c.b A Datatyp(siz) R M Lvl/name                 HexLoc.c.b A Datatyp(siz) R M Lvl/name

     0-0-0/w STRC(192)   r     1 FPT_GETDCB                 F-0-0/w STRC(752)   r     1 FPT_OPEN_CQ
    3E-0-0/w STRC(64)    r     1 VLP_HMI                    C-0-0/c STRC(40)    r     1 VLP_NAME_M$CQ

  ****  Auto variables  ****

  ****  Scalars and arrays  ****
HexLoc.c.b A Datatyp(siz) R M Lvl/name                 HexLoc.c.b A Datatyp(siz) R M Lvl/name

     4-0-0/w PTR         r     1 @KV$VDH_VDHINT            12-0-0/w UBIN(16)    r     1 DCB#
     6-0-0/w STRC(192)   r     1 FPT@GETDCB                13-0-0/w STRC(752)   r     1 FPT@OPEN_CQ
    *0-0-0/w STRC(128)   r     1 KV$VDH_VDHINT             42-0-0/w STRC(64)    r     1 VLP@HMI

  ****  SYMREF variables  ****

  ****  Scalars and arrays  ****
HexLoc.c.b A Datatyp(siz) R M Lvl/name                 HexLoc.c.b A Datatyp(siz) R M Lvl/name

     0-0-0/w PTR         r     1 G$HAND_Q$
     0-0-0/w EPTR        r     1 KV_CQ_HNDSBR$(0:2)
     0-0-0/w STRC(207)   r     1 KV_FPT_WRTMLT              0-0-0/w PTR         r     1 KV_RCVCQ$
     0-0-0/w PTR         r     1 KV_SNDCQ_QHDR$

  ****  BASED and DCB variables  ****

  ****  Scalars and arrays  ****
HexLoc.c.b A Datatyp(siz) R M Lvl/name                 HexLoc.c.b A Datatyp(siz) R M Lvl/name

     0-0-0/w STRC(384)   r     1 KNH_QHDR

PL6.E3A0      #002=KVV$VDHINT File=KVV$VDI.:E05TSI                               WED 07/30/97 02:17 Page:179

   Procedure KVV$VDHINT requires 116 words for executable code.
   Procedure KVV$VDHINT requires 73 words of local(AUTO) storage.

    No errors detected in file KVV$VDI.:E05TSI    .
PL6.E3A0      #002=KVV$VDHINT File=KVV$VDI.:E05TSI                               WED 07/30/97 02:17 Page:180
          *** CROSS REFERENCE LISTING ***
**     DENOTES     IDENTIFIER DEFINITION
<<                 IDENTIFIER'S VALUE SET
>>                 IDENTIFIER'S VALUE USED
<>                 IDENTIFIER SET AND/OR USED
--                 IDENTIFIER REFERENCED
PL6.E3A0      #002=KVV$VDHINT File=KVV$VDI.:E05TSI                               WED 07/30/97 02:17 Page:181
          MINI XREF LISTING

DCB#
       266**DCL       814--ASSIGN    827>>ASSIGN    828>>ASSIGN
FPT@GETDCB
       259**DCL       813<<ASSIGN    822<>CALL
FPT@GETDCB.DCBNUM_
       261**DCL       814<<ASSIGN
FPT@OPEN_CQ
       323**DCL       816<<ASSIGN    830<>CALL
FPT@OPEN_CQ.HMI_
       325**DCL       818<<ASSIGN
FPT@OPEN_CQ.V
       331**DCL       817--ASSIGN
FPT@OPEN_CQ.V.DCB#
       331**DCL       828<<ASSIGN
FPT@OPEN_CQ.V_
       325**DCL       817<<ASSIGN
FPT_GETDCB
       239**DCL       813>>ASSIGN
FPT_GETDCB.V
       243**DCL       241--DCLINIT
FPT_OPEN_CQ
       295**DCL       816>>ASSIGN
FPT_OPEN_CQ.V
       303**DCL       297--DCLINIT
G$HAND_Q$
        33**DCL       643--IMP-PTR   833>>ASSIGN    834>>ASSIGN    834>>ASSIGN
KNH_QHDR.RCQ
       643**DCL       643--REDEF
KNH_QHDR.RCQ.OFFSET
       643**DCL       834>>ASSIGN
KV$VDH_VDHINT
       800**DCL         7--PROC      810<>CALL
PL6.E3A0      #002=KVV$VDHINT File=KVV$VDI.:E05TSI                               WED 07/30/97 02:17 Page:182
KV$VDH_VDHINT.RCVCQ_BYTSIZ
       804**DCL       820>>ASSIGN
KV$VDH_VDHINT.SNDCQ_BYTSIZ
       804**DCL       819>>ASSIGN
KVB$INT
       807**DCL-ENT   810--CALL
KV_FPT_WRTMLT.V.DCB#
       356**DCL       827<<ASSIGN
KV_RCVCQ$
       733**DCL       834<<ASSIGN
KV_SNDCQ_QHDR$
       733**DCL       833<<ASSIGN
M$GETDCB
       208**DCL-ENT   822--CALL
M$OPEN
       207**DCL-ENT   830--CALL
VLP@HMI
       684**DCL       815<<ASSIGN    818--ASSIGN
VLP@HMI.RCQSIZE
       684**DCL       820<<ASSIGN
VLP@HMI.SCQSIZE
       684**DCL       819<<ASSIGN
VLP_HMI
       668**DCL       297--DCLINIT   815>>ASSIGN
VLP_NAME_M$CQ
       280**DCL       241--DCLINIT
