VERSION E05

PL6.E3A0      #001=KV_INT_D File=KV_INT_D.:E05TSI                                WED 07/30/97 02:16 Page:1
        1        1        /*M* VDH internal data */
        2        2        /*T***********************************************************/
        3        3        /*T*                                                         */
        4        4        /*T* Copyright (c) Bull HN Information Systems Inc., 1997    */
        5        5        /*T*                                                         */
        6        6        /*T***********************************************************/
        7        7        KV_INT_D: PROC;
        8        8
        9        9 S      %INCLUDE GU_LCP6_M;                     /* For KV$VDP                         */
       10       10
       11       11        %INCLUDE KNH_MACRO_C;                   /* For KV$SP                          */
       12      294
       13      295        %INCLUDE K_CP6_M;                       /* For KV$VDP                         */
       14      491
       15      492 S      %INCLUDE KV_GLBCNS_E;
       16      493    1   DCL KV_RCVSSN$ PTR STATIC SYMDEF;
       17      494
       18      495    1   DCL KV_RCVVDO$ PTR STATIC SYMDEF;
       19      496
       20      497    1   DCL KV$RCVVDO$ PTR STATIC SYMDEF;
       21      498
       22      499    1   DCL KV$RCVSSN$ PTR STATIC SYMDEF;
       23      500
       24      501    1   DCL KV_TYPAHDBFRLMT STATIC SYMDEF UBIN INIT(30);
       25      502    1   DCL KV_SSNCNT STATIC SYMDEF UBIN INIT(10);
       26      503    1   DCL KV_SSNMAX STATIC SYMDEF UBIN INIT(6);
       27      504    1   DCL KV_PSTERRCNT STATIC SYMDEF UBIN INIT(0);
       28      505    1   DCL KV_MAXUFTSIZ STATIC SYMDEF UBIN INIT(1024);
       29      506        %KV#VD_ORG_E;                           /* For KV$VDP                         */
       30      514
       31      515 S      %INCLUDE KV$GLB;                        /* For KV$VDP                         */
       32      516
       33      517
       34      518        %INCLUDE KV_INT;
       35      557        %KV_NONPSTCHR (STCLASS=CONSTANT SYMDEF);
       36      573        %KV_GRPCHR (STCLASS=CONSTANT SYMDEF);
       37      589
PL6.E3A0      #001=KV_INT_D File=KV_INT_D.:E05TSI                                WED 07/30/97 02:16 Page:2
       38      590 S      %INCLUDE KV$INT;
       39      591        %KV$FLD (NAME = KV_FLD, STCLASS = CONSTANT SYMDEF);
       40      679        %KV$LIN (NAME = KV_LIN, STCLASS = CONSTANT SYMDEF);
       41      703
       42      704 S      %INCLUDE KV$VDO;                        /* For KV$VDP                         */
       43      705        %KV_VDO_ALL;                            /* For KV$VDP                         */
       44     2848        %KV_VDOBYTSIZ (STCLASS = CONSTANT SYMDEF);
       45     2868        %KV_VDOVLPBYTSIZ (STCLASS = CONSTANT SYMDEF);
       46     2885
       47     2886        %INCLUDE KV$VDP;
       48     3044        %KV_VDP_ALL (STCLASS = CONSTANT SYMDEF);
       49     4752
       50     4753        %INCLUDE KV$SP;
       51     4824        %KN_SP_ALL (STCLASS = CONSTANT SYMDEF);
       52     5080    1   END;

PL6.E3A0      #001=KV_INT_D File=KV_INT_D.:E05TSI                                WED 07/30/97 02:16 Page:3
--  Include file information  --

   KV$SP.:E05TOU  is referenced.
   KV$VDP.:E05TOU  is referenced.
   KV_INT.:E05TOU  is referenced.
   K_CP6_M.:E05TOU  is referenced.
   KNH_MACRO_C.:E05TOU  is referenced.
   KV_PRMID_E.:E05TOU  was found in the system file and is never referenced.
   KV_GLBCNS_E.:E05TOU  was found in the system file and is referenced.
   KV$VDO.:E05TOU  was found in the system file and is referenced.
   KV$VDH.:E05TOU  was found in the system file and is never referenced.
   KV$USR.:E05TOU  was found in the system file and is never referenced.
   KV$SND.:E05TOU  was found in the system file and is never referenced.
   KV$INT.:E05TOU  was found in the system file and is referenced.
   KV$GLBCTX.:E05TOU  was found in the system file and is never referenced.
   KV$GLB.:E05TOU  was found in the system file and is referenced.
   G_LCP6_E.:E05TOU  was found in the system file and is never referenced.
   GT_LCP6_M.:E05TOU  was found in the system file and is never referenced.
   KI_CP6.:E05TOU  was found in the system file and is never referenced.
   GF_LCP6_M.:E05TOU  was found in the system file and is never referenced.
   GM_LCP6_M.:E05TOU  was found in the system file and is never referenced.
   GU_LCP6_M.:E05TOU  was found in the system file and is referenced.
   GJ_LCP6_M.:E05TOU  was found in the system file and is never referenced.
   GH_LCP6_M.:E05TOU  was found in the system file and is never referenced.
      No diagnostics issued in procedure KV_INT_D.

   No code generated for procedure KV_INT_D .
   Procedure KV_INT_D requires 4 words of local(AUTO) storage.

    No errors detected in file KV_INT_D.:E05TSI    .

PL6.E3A0      #001=KV_INT_D File=KV_INT_D.:E05TSI                                WED 07/30/97 02:16 Page:4

 Object Unit name= KV_INT_D                                   File name= KV_INT_D.:E05TOU
 UTS= JUL 30 '97 02:16:20.16 WED                              Compiler= PL-6/E31         Sev=      00
 SharedLib= :SHARED_LCP6_SYSTEM                               Alt SharedLib=


    ****  Control sections  ****

 Sect   Type Bound  Init  Size HexSiz  Section name
    0   Data  even  none    13      D  KV_INT_D
    1  RoData even  UTS    145     91  KV_INT_D
    2   Proc  even  none     0      0  KV_INT_D

    ****  Entry defs  ****

                              Check   Calling
                             calling  sequence
  Sect HexLoc Primary Altret sequence   type   Parms  Name
     2      0   yes            yes     ~proc       0  KV_INT_D
PL6.E3A0      #001=KV_INT_D File=KV_INT_D.:E05TSI                                WED 07/30/97 02:16 Page:5

  ****  Data defs  ****

 Sect HexLoc  Name                           Sect HexLoc  Name
    0      0  KV_RCVSSN$                         0      2  KV_RCVVDO$
    0      4  KV$RCVVDO$                         0      6  KV$RCVSSN$
    0      8  KV_TYPAHDBFRLMT                    0      9  KV_SSNCNT
    0      A  KV_SSNMAX                          0      B  KV_PSTERRCNT
    0      C  KV_MAXUFTSIZ                       1      0  KV_NONPSTCHR_WRD
    1     10  KV_GRPCHR_WRD                      1     20  KV_FLD
    1     27  KV_LIN                             1     2B  KV_VDOBYTSIZ
    1     3D  KV_VDOVLPBYTSIZ                    1     43  KV_VDP_VDO
    1     89  KN_SP_MSG

  ****  Data refs  ****

  Flags:  r = read only, s = secondary
Flgs Name                             Flgs Name                             Flgs Name
r    G$ROS$
PL6.E3A0      #001=KV_INT_D File=KV_INT_D.:E05TSI                                WED 07/30/97 02:16 Page:6

        1        1        /*M* VDH internal data */
        2        2        /*T***********************************************************/
        3        3        /*T*                                                         */
        4        4        /*T* Copyright (c) Bull HN Information Systems Inc., 1997    */
        5        5        /*T*                                                         */
        6        6        /*T***********************************************************/
        7        7        KV_INT_D: PROC;
        8        8
        9        9 S      %INCLUDE GU_LCP6_M;                     /* For KV$VDP                         */
       10       10
       11       11        %INCLUDE KNH_MACRO_C;                   /* For KV$SP                          */
       12      294
       13      295        %INCLUDE K_CP6_M;                       /* For KV$VDP                         */
       14      491
       15      492 S      %INCLUDE KV_GLBCNS_E;
       16      493    1   DCL KV_RCVSSN$ PTR STATIC SYMDEF;
       17      494
       18      495    1   DCL KV_RCVVDO$ PTR STATIC SYMDEF;
       19      496
       20      497    1   DCL KV$RCVVDO$ PTR STATIC SYMDEF;
       21      498
       22      499    1   DCL KV$RCVSSN$ PTR STATIC SYMDEF;
       23      500
       24      501    1   DCL KV_TYPAHDBFRLMT STATIC SYMDEF UBIN INIT(30);
       25      502    1   DCL KV_SSNCNT STATIC SYMDEF UBIN INIT(10);
       26      503    1   DCL KV_SSNMAX STATIC SYMDEF UBIN INIT(6);
       27      504    1   DCL KV_PSTERRCNT STATIC SYMDEF UBIN INIT(0);
       28      505    1   DCL KV_MAXUFTSIZ STATIC SYMDEF UBIN INIT(1024);
       29      506        %KV#VD_ORG_E;                           /* For KV$VDP                         */
       30      514
       31      515 S      %INCLUDE KV$GLB;                        /* For KV$VDP                         */
       32      516
       33      517
       34      518        %INCLUDE KV_INT;
       35      557        %KV_NONPSTCHR (STCLASS=CONSTANT SYMDEF);
       36      573        %KV_GRPCHR (STCLASS=CONSTANT SYMDEF);
       37      589
PL6.E3A0      #001=KV_INT_D File=KV_INT_D.:E05TSI                                WED 07/30/97 02:16 Page:7
       38      590 S      %INCLUDE KV$INT;
       39      591        %KV$FLD (NAME = KV_FLD, STCLASS = CONSTANT SYMDEF);
       40      679        %KV$LIN (NAME = KV_LIN, STCLASS = CONSTANT SYMDEF);
       41      703
       42      704 S      %INCLUDE KV$VDO;                        /* For KV$VDP                         */
       43      705        %KV_VDO_ALL;                            /* For KV$VDP                         */
       44     2848        %KV_VDOBYTSIZ (STCLASS = CONSTANT SYMDEF);
       45     2868        %KV_VDOVLPBYTSIZ (STCLASS = CONSTANT SYMDEF);
       46     2885
       47     2886        %INCLUDE KV$VDP;
       48     3044        %KV_VDP_ALL (STCLASS = CONSTANT SYMDEF);
       49     4752
       50     4753        %INCLUDE KV$SP;
       51     4824        %KN_SP_ALL (STCLASS = CONSTANT SYMDEF);
       52     5080    1   END;

PL6.E3A0      #001=KV_INT_D File=KV_INT_D.:E05TSI                                WED 07/30/97 02:16 Page:8
--  Include file information  --

   KV$SP.:E05TOU  is referenced.
   KV$VDP.:E05TOU  is referenced.
   KV_INT.:E05TOU  is referenced.
   K_CP6_M.:E05TOU  is referenced.
   KNH_MACRO_C.:E05TOU  is referenced.
   KV_PRMID_E.:E05TOU  was found in the system file and is never referenced.
   KV_GLBCNS_E.:E05TOU  was found in the system file and is referenced.
   KV$VDO.:E05TOU  was found in the system file and is referenced.
   KV$VDH.:E05TOU  was found in the system file and is never referenced.
   KV$USR.:E05TOU  was found in the system file and is never referenced.
   KV$SND.:E05TOU  was found in the system file and is never referenced.
   KV$INT.:E05TOU  was found in the system file and is referenced.
   KV$GLBCTX.:E05TOU  was found in the system file and is never referenced.
   KV$GLB.:E05TOU  was found in the system file and is referenced.
   G_LCP6_E.:E05TOU  was found in the system file and is never referenced.
   GT_LCP6_M.:E05TOU  was found in the system file and is never referenced.
   KI_CP6.:E05TOU  was found in the system file and is never referenced.
   GF_LCP6_M.:E05TOU  was found in the system file and is never referenced.
   GM_LCP6_M.:E05TOU  was found in the system file and is never referenced.
   GU_LCP6_M.:E05TOU  was found in the system file and is referenced.
   GJ_LCP6_M.:E05TOU  was found in the system file and is never referenced.
   GH_LCP6_M.:E05TOU  was found in the system file and is never referenced.
      No diagnostics issued in procedure KV_INT_D.
PL6.E3A0      #001=KV_INT_D File=KV_INT_D.:E05TSI                                WED 07/30/97 02:16 Page:9

 **** Variables and constants ****

  ****  BASED and DCB variables  ****

  ****  Scalars and arrays  ****
HexLoc.c.b A Datatyp(siz) R M Lvl/name                 HexLoc.c.b A Datatyp(siz) R M Lvl/name

     0-0-0/w STRC(32)    r     1 KV$VDOVLP_ACTPOS           0-0-0/w STRC(96)    r     1 KV$VDOVLP_CG_MSGID
     0-0-0/w STRC(96)    r     1 KV$VDOVLP_CG_MSGTYP        0-0-0/w STRC(96)    r     1 KV$VDOVLP_CG_STA
     0-0-0/w STRC(16)    r     1 KV$VDOVLP_DAT1             0-0-0/w STRC(32)    r     1 KV$VDOVLP_DAT2
     0-0-0/w STRC(16)    r     1 KV$VDOVLP_ENTSRD           0-0-0/w STRC(48)    r     1 KV$VDOVLP_ERR
     0-0-0/w STRC(32)    r     1 KV$VDOVLP_FLDID            0-0-0/w STRC(16)    r     1 KV$VDOVLP_KEY
     0-0-0/w STRC(64)    r     1 KV$VDOVLP_MRK              0-0-0/w STRC(48)    r     1 KV$VDO_BLKDAT
     0-0-0/w STRC(32)    r     1 KV$VDO_CLSSSN              0-0-0/w STRC(32)    r     1 KV$VDO_CLSSTR
     0-0-0/w STRC(32)    r     1 KV$VDO_DAT                 0-0-0/w STRC(96)    r     1 KV$VDO_DCLFLD
     0-0-0/w STRC(32)    r     1 KV$VDO_DCLSTR              0-0-0/w STRC(32)    r     1 KV$VDO_DLT
     0-0-0/w STRC(32)    r     1 KV$VDO_DSC                 0-0-0/w STRC(32)    r     1 KV$VDO_ERS
     0-0-0/w STRC(32)    r     1 KV$VDO_EVT                 0-0-0/w STRC(32)    r     1 KV$VDO_HVPS
     0-0-0/w STRC(16)    r     1 KV$VDO_MRK                 0-0-0/w STRC(16)    r     1 KV$VDO_NOP
     0-0-0/w STRC(32)    r     1 KV$VDO_OPNSSN              0-0-0/w STRC(48)    r     1 KV$VDO_OPNSTR
     0-0-0/w STRC(16)    r     1 KV$VDO_PRM                 0-0-0/w STRC(16)    r     1 KV$VDO_RLSFLD
     0-0-0/w STRC(16)    r     1 KV$VDO_RMS                 0-0-0/w STRC(80)    r     1 KV$VDO_RQSDAT
     0-0-0/w STRC(16)    r     1 KV$VDO_RQSMRK              0-0-0/w STRC(48)    r     1 KV$VDO_RQSPRM
     0-0-0/w STRC(16)    r     1 KV$VDO_RQSSTT              0-0-0/w STRC(16)    r     1 KV$VDO_SLCFLD
     0-0-0/w STRC(32)    r     1 KV$VDO_SLCGRPRND           0-0-0/w STRC(32)    r     1 KV$VDO_SLCQLF
     0-0-0/w STRC(32)    r     1 KV$VDO_SMS                 0-0-0/w STRC(16)    r     1 KV$VDO_STT
     0-0-0/w STRC(16)    r     1 KV$VDO_UPDRELDVC


   No code generated for procedure KV_INT_D .
   Procedure KV_INT_D requires 4 words of local(AUTO) storage.

    No errors detected in file KV_INT_D.:E05TSI    .
PL6.E3A0      #001=KV_INT_D File=KV_INT_D.:E05TSI                                WED 07/30/97 02:16 Page:10
          *** CROSS REFERENCE LISTING ***
**     DENOTES     IDENTIFIER DEFINITION
<<                 IDENTIFIER'S VALUE SET
>>                 IDENTIFIER'S VALUE USED
<>                 IDENTIFIER SET AND/OR USED
--                 IDENTIFIER REFERENCED
PL6.E3A0      #001=KV_INT_D File=KV_INT_D.:E05TSI                                WED 07/30/97 02:16 Page:11
          MINI XREF LISTING

KV$VDOVLP_ACTPOS
      2265**DCL      2883--DCLINIT
KV$VDOVLP_CG_MSGID
      2317**DCL      2881--DCLINIT
KV$VDOVLP_CG_MSGTYP
      2370**DCL      2881--DCLINIT
KV$VDOVLP_CG_STA
      2423**DCL      2881--DCLINIT
KV$VDOVLP_DAT1
      2475**DCL      2882--DCLINIT
KV$VDOVLP_DAT2
      2526**DCL      2882--DCLINIT
KV$VDOVLP_ENTSRD
      2577**DCL      2883--DCLINIT
KV$VDOVLP_ERR
      2628**DCL      2882--DCLINIT
KV$VDOVLP_FLDID
      2726**DCL      2882--DCLINIT
KV$VDOVLP_KEY
      2778**DCL      2882--DCLINIT
KV$VDOVLP_MRK
      2829**DCL      2883--DCLINIT
KV$VDO_BLKDAT
       847**DCL      2861--DCLINIT  3208--DCLINIT
KV$VDO_CLSSSN
       891**DCL      2861--DCLINIT  2861--DCLINIT  3256--DCLINIT  3304--DCLINIT
KV$VDO_CLSSTR
       934**DCL      2866--DCLINIT  4744--DCLINIT
KV$VDO_DAT
       978**DCL      2861--DCLINIT  2862--DCLINIT  3352--DCLINIT  3400--DCLINIT
KV$VDO_DCLFLD
      1024**DCL      2862--DCLINIT  3448--DCLINIT
PL6.E3A0      #001=KV_INT_D File=KV_INT_D.:E05TSI                                WED 07/30/97 02:16 Page:12
KV$VDO_DCLSTR
      1151**DCL      2862--DCLINIT  3496--DCLINIT
KV$VDO_DLT
      1195**DCL      2862--DCLINIT  3544--DCLINIT
KV$VDO_DSC
      1241**DCL      2862--DCLINIT  2862--DCLINIT  3592--DCLINIT  3640--DCLINIT
KV$VDO_ERS
      1284**DCL      2862--DCLINIT  3688--DCLINIT
KV$VDO_EVT
      1328**DCL      2863--DCLINIT  3736--DCLINIT
KV$VDO_HVPS
      1371**DCL      2863--DCLINIT  3784--DCLINIT
KV$VDO_MRK
      1414**DCL      2865--DCLINIT  4600--DCLINIT
KV$VDO_NOP
      1456**DCL      2863--DCLINIT  3832--DCLINIT
KV$VDO_OPNSSN
      1498**DCL      2863--DCLINIT  2863--DCLINIT  3880--DCLINIT  3928--DCLINIT
KV$VDO_OPNSTR
      1541**DCL      2866--DCLINIT  4696--DCLINIT
KV$VDO_PRM
      1585**DCL      2863--DCLINIT  2864--DCLINIT  3976--DCLINIT  4024--DCLINIT
KV$VDO_RLSFLD
      1627**DCL      2864--DCLINIT  4072--DCLINIT
KV$VDO_RMS
      1669**DCL      2864--DCLINIT  4120--DCLINIT
KV$VDO_RQSDAT
      1711**DCL      2864--DCLINIT  4168--DCLINIT
KV$VDO_RQSMRK
      1760**DCL      2866--DCLINIT  4648--DCLINIT
KV$VDO_RQSPRM
      1802**DCL      2864--DCLINIT  4216--DCLINIT
KV$VDO_RQSSTT
      1846**DCL      2864--DCLINIT  4264--DCLINIT
KV$VDO_SLCFLD
      1888**DCL      2864--DCLINIT  4312--DCLINIT
PL6.E3A0      #001=KV_INT_D File=KV_INT_D.:E05TSI                                WED 07/30/97 02:16 Page:13
KV$VDO_SLCGRPRND
      1930**DCL      2865--DCLINIT  4360--DCLINIT
KV$VDO_SLCQLF
      2013**DCL      2865--DCLINIT  4408--DCLINIT
KV$VDO_SMS
      2099**DCL      2865--DCLINIT  4456--DCLINIT
KV$VDO_STT
      2142**DCL      2865--DCLINIT  4504--DCLINIT
KV$VDO_UPDRELDVC
      2184**DCL      2865--DCLINIT  4552--DCLINIT
KV_GRPCHR_WRD
       586**DCL       587--REDEF
KV_NONPSTCHR_WRD
       570**DCL       571--REDEF
KV_VDP_VDO.BLKDAT.LGLVD_ORG_BIT
      3200**DCL      3202--REDEF
KV_VDP_VDO.CLSSSN_RQS.LGLVD_ORG_BIT
      3248**DCL      3250--REDEF
KV_VDP_VDO.CLSSSN_RSP.LGLVD_ORG_BIT
      3296**DCL      3298--REDEF
KV_VDP_VDO.CLSSTR.LGLVD_ORG_BIT
      4736**DCL      4738--REDEF
KV_VDP_VDO.DAT.LGLVD_ORG_BIT
      3344**DCL      3346--REDEF
KV_VDP_VDO.DAT_IMD.LGLVD_ORG_BIT
      3392**DCL      3394--REDEF
KV_VDP_VDO.DCLFLD.LGLVD_ORG_BIT
      3440**DCL      3442--REDEF
KV_VDP_VDO.DCLSTR.LGLVD_ORG_BIT
      3488**DCL      3490--REDEF
KV_VDP_VDO.DLT.LGLVD_ORG_BIT
      3536**DCL      3538--REDEF
KV_VDP_VDO.DSC_RQS.LGLVD_ORG_BIT
      3584**DCL      3586--REDEF
KV_VDP_VDO.DSC_RSP.LGLVD_ORG_BIT
      3632**DCL      3634--REDEF
PL6.E3A0      #001=KV_INT_D File=KV_INT_D.:E05TSI                                WED 07/30/97 02:16 Page:14
KV_VDP_VDO.DUM0.LGLVD_ORG_BIT
      3105**DCL      3107--REDEF
KV_VDP_VDO.DUM1.LGLVD_ORG_BIT
      3152**DCL      3154--REDEF
KV_VDP_VDO.ERS.LGLVD_ORG_BIT
      3680**DCL      3682--REDEF
KV_VDP_VDO.EVT.LGLVD_ORG_BIT
      3728**DCL      3730--REDEF
KV_VDP_VDO.HVPS.LGLVD_ORG_BIT
      3776**DCL      3778--REDEF
KV_VDP_VDO.MRK.LGLVD_ORG_BIT
      4592**DCL      4594--REDEF
KV_VDP_VDO.NOP.LGLVD_ORG_BIT
      3824**DCL      3826--REDEF
KV_VDP_VDO.OPNSSN_RQS.LGLVD_ORG_BIT
      3872**DCL      3874--REDEF
KV_VDP_VDO.OPNSSN_RSP.LGLVD_ORG_BIT
      3920**DCL      3922--REDEF
KV_VDP_VDO.OPNSTR.LGLVD_ORG_BIT
      4688**DCL      4690--REDEF
KV_VDP_VDO.PRM_RSP.LGLVD_ORG_BIT
      3968**DCL      3970--REDEF
KV_VDP_VDO.PRM_SET.LGLVD_ORG_BIT
      4016**DCL      4018--REDEF
KV_VDP_VDO.RLSFLD.LGLVD_ORG_BIT
      4064**DCL      4066--REDEF
KV_VDP_VDO.RMS.LGLVD_ORG_BIT
      4112**DCL      4114--REDEF
KV_VDP_VDO.RQSDAT.LGLVD_ORG_BIT
      4160**DCL      4162--REDEF
KV_VDP_VDO.RQSMRK.LGLVD_ORG_BIT
      4640**DCL      4642--REDEF
KV_VDP_VDO.RQSPRM.LGLVD_ORG_BIT
      4208**DCL      4210--REDEF
KV_VDP_VDO.RQSSTT.LGLVD_ORG_BIT
      4256**DCL      4258--REDEF
PL6.E3A0      #001=KV_INT_D File=KV_INT_D.:E05TSI                                WED 07/30/97 02:16 Page:15
KV_VDP_VDO.SLCFLD.LGLVD_ORG_BIT
      4304**DCL      4306--REDEF
KV_VDP_VDO.SLCGRPRND.LGLVD_ORG_BIT
      4352**DCL      4354--REDEF
KV_VDP_VDO.SLCQLF.LGLVD_ORG_BIT
      4400**DCL      4402--REDEF
KV_VDP_VDO.SMS.LGLVD_ORG_BIT
      4448**DCL      4450--REDEF
KV_VDP_VDO.STT.LGLVD_ORG_BIT
      4496**DCL      4498--REDEF
KV_VDP_VDO.UPDRELDVC.LGLVD_ORG_BIT
      4544**DCL      4546--REDEF
