VERSION E05

PL6.E3A0      #001=KV_USR_D File=KV_USR_D.:E05TSI                                WED 07/30/97 02:17 Page:1
        1        1        /*M* KV_USR_D Virtual device handler initialized KV$VDH_... structures */
        2        2        /*T***********************************************************/
        3        3        /*T*                                                         */
        4        4        /*T* Copyright (c) Bull HN Information Systems Inc., 1997    */
        5        5        /*T*                                                         */
        6        6        /*T***********************************************************/
        7        7        /* Initialized copies of GV$USR_... structures.
        8        8        */
        9        9        KV_USR_D: PROC;
       10       10 S      %INCLUDE KV$GLB;
       11       11 S      %INCLUDE KV$VDH; /*N* GET RID OF THIS - MOVE PART OF KV$VDH_DAT TO KV$GLB */
       12       12 S      %INCLUDE KV$USR;
       13       13        %KV$USR_DAT(NAME = KV_USR_DAT, STCLASS = CONSTANT SYMDEF);
       14       97        %KV$USR_ERS(NAME = KV_USR_ERS, STCLASS = CONSTANT SYMDEF);
       15      201        %KV$USR_EVT(NAME = KV_USR_EVT, STCLASS = CONSTANT SYMDEF);
       16      236        %KV$USR_EXTINPTRN(NAME = KV_USR_EXTINPTRN, STCLASS = CONSTANT SYMDEF);
       17      272        %KV$USR_EXTOTPTRN(NAME = KV_USR_EXTOTPTRN, STCLASS = CONSTANT SYMDEF);
       18      308        %KV$USR_GETOTPBFR(NAME = KV_USR_GETOTPBFR, STCLASS = CONSTANT SYMDEF);
       19      343        %KV$USR_GETPRM(NAME = KV_USR_GETPRM, STCLASS = CONSTANT SYMDEF);
       20      404        %KV$USR_INPPRC(NAME = KV_USR_INPPRC, STCLASS = CONSTANT SYMDEF);
       21      440        %KV$USR_OTPMRK(NAME = KV_USR_OTPMRK, STCLASS = CONSTANT SYMDEF);
       22      502        %KV$USR_OTPRPTCHR(NAME = KV_USR_OTPRPTCHR, STCLASS = CONSTANT SYMDEF);
       23      537        %KV$USR_PST(NAME = KV_USR_PST, STCLASS = CONSTANT SYMDEF);
       24      607        %KV$USR_RQSDAT(NAME = KV_USR_RQSDAT, STCLASS = CONSTANT SYMDEF);
       25      670        %KV$USR_SETATR(NAME = KV_USR_SETATR, STCLASS = CONSTANT SYMDEF);
       26      793        %KV$USR_SETPRM(NAME = KV_USR_SETPRM, STCLASS = CONSTANT SYMDEF);
       27      855    1   END;

PL6.E3A0      #001=KV_USR_D File=KV_USR_D.:E05TSI                                WED 07/30/97 02:17 Page:2
--  Include file information  --

   KV_PRMID_E.:E05TOU  was found in the system file and is never referenced.
   KV_GLBCNS_E.:E05TOU  was found in the system file and is never referenced.
   KV$VDO.:E05TOU  was found in the system file and is never referenced.
   KV$VDH.:E05TOU  was found in the system file and is referenced.
   KV$USR.:E05TOU  was found in the system file and is referenced.
   KV$SND.:E05TOU  was found in the system file and is never referenced.
   KV$INT.:E05TOU  was found in the system file and is never referenced.
   KV$GLBCTX.:E05TOU  was found in the system file and is never referenced.
   KV$GLB.:E05TOU  was found in the system file and is referenced.
   G_LCP6_E.:E05TOU  was found in the system file and is never referenced.
   GT_LCP6_M.:E05TOU  was found in the system file and is never referenced.
   KI_CP6.:E05TOU  was found in the system file and is never referenced.
   GF_LCP6_M.:E05TOU  was found in the system file and is never referenced.
   GM_LCP6_M.:E05TOU  was found in the system file and is never referenced.
   GU_LCP6_M.:E05TOU  was found in the system file and is never referenced.
   GJ_LCP6_M.:E05TOU  was found in the system file and is never referenced.
   GH_LCP6_M.:E05TOU  was found in the system file and is never referenced.
      No diagnostics issued in procedure KV_USR_D.

   No code generated for procedure KV_USR_D .
   Procedure KV_USR_D requires 4 words of local(AUTO) storage.

    No errors detected in file KV_USR_D.:E05TSI    .

PL6.E3A0      #001=KV_USR_D File=KV_USR_D.:E05TSI                                WED 07/30/97 02:17 Page:3

 Object Unit name= KV_USR_D                                   File name= KV_USR_D.:E05TOU
 UTS= JUL 30 '97 02:17:21.60 WED                              Compiler= PL-6/E31         Sev=      00
 SharedLib= :SHARED_LCP6_SYSTEM                               Alt SharedLib=


    ****  Control sections  ****

 Sect   Type Bound  Init  Size HexSiz  Section name
    0  RoData even  UTS     63     3F  KV_USR_D
    1   Proc  even  none     0      0  KV_USR_D

    ****  Entry defs  ****

                              Check   Calling
                             calling  sequence
  Sect HexLoc Primary Altret sequence   type   Parms  Name
     1      0   yes            yes     ~proc       0  KV_USR_D

  ****  Data defs  ****

 Sect HexLoc  Name                           Sect HexLoc  Name
    0      0  KV_USR_DAT                         0      8  KV_USR_ERS
    0      F  KV_USR_EVT                         0     11  KV_USR_EXTINPTRN
    0     13  KV_USR_EXTOTPTRN                   0     17  KV_USR_GETOTPBFR
    0     19  KV_USR_GETPRM                      0     20  KV_USR_INPPRC
    0     23  KV_USR_OTPMRK                      0     27  KV_USR_OTPRPTCHR
    0     29  KV_USR_PST                         0     2D  KV_USR_RQSDAT
    0     33  KV_USR_SETATR                      0     37  KV_USR_SETPRM

  ****  Data refs  ****

  Flags:  r = read only, s = secondary
Flgs Name                             Flgs Name                             Flgs Name
r    G$ROS$
PL6.E3A0      #001=KV_USR_D File=KV_USR_D.:E05TSI                                WED 07/30/97 02:17 Page:4

        1        1        /*M* KV_USR_D Virtual device handler initialized KV$VDH_... structures */
        2        2        /*T***********************************************************/
        3        3        /*T*                                                         */
        4        4        /*T* Copyright (c) Bull HN Information Systems Inc., 1997    */
        5        5        /*T*                                                         */
        6        6        /*T***********************************************************/
        7        7        /* Initialized copies of GV$USR_... structures.
        8        8        */
        9        9        KV_USR_D: PROC;
       10       10 S      %INCLUDE KV$GLB;
       11       11 S      %INCLUDE KV$VDH; /*N* GET RID OF THIS - MOVE PART OF KV$VDH_DAT TO KV$GLB */
       12       12 S      %INCLUDE KV$USR;
       13       13        %KV$USR_DAT(NAME = KV_USR_DAT, STCLASS = CONSTANT SYMDEF);
       14       97        %KV$USR_ERS(NAME = KV_USR_ERS, STCLASS = CONSTANT SYMDEF);
       15      201        %KV$USR_EVT(NAME = KV_USR_EVT, STCLASS = CONSTANT SYMDEF);
       16      236        %KV$USR_EXTINPTRN(NAME = KV_USR_EXTINPTRN, STCLASS = CONSTANT SYMDEF);
       17      272        %KV$USR_EXTOTPTRN(NAME = KV_USR_EXTOTPTRN, STCLASS = CONSTANT SYMDEF);
       18      308        %KV$USR_GETOTPBFR(NAME = KV_USR_GETOTPBFR, STCLASS = CONSTANT SYMDEF);
       19      343        %KV$USR_GETPRM(NAME = KV_USR_GETPRM, STCLASS = CONSTANT SYMDEF);
       20      404        %KV$USR_INPPRC(NAME = KV_USR_INPPRC, STCLASS = CONSTANT SYMDEF);
       21      440        %KV$USR_OTPMRK(NAME = KV_USR_OTPMRK, STCLASS = CONSTANT SYMDEF);
       22      502        %KV$USR_OTPRPTCHR(NAME = KV_USR_OTPRPTCHR, STCLASS = CONSTANT SYMDEF);
       23      537        %KV$USR_PST(NAME = KV_USR_PST, STCLASS = CONSTANT SYMDEF);
       24      607        %KV$USR_RQSDAT(NAME = KV_USR_RQSDAT, STCLASS = CONSTANT SYMDEF);
       25      670        %KV$USR_SETATR(NAME = KV_USR_SETATR, STCLASS = CONSTANT SYMDEF);
       26      793        %KV$USR_SETPRM(NAME = KV_USR_SETPRM, STCLASS = CONSTANT SYMDEF);
       27      855    1   END;

PL6.E3A0      #001=KV_USR_D File=KV_USR_D.:E05TSI                                WED 07/30/97 02:17 Page:5
--  Include file information  --

   KV_PRMID_E.:E05TOU  was found in the system file and is never referenced.
   KV_GLBCNS_E.:E05TOU  was found in the system file and is never referenced.
   KV$VDO.:E05TOU  was found in the system file and is never referenced.
   KV$VDH.:E05TOU  was found in the system file and is referenced.
   KV$USR.:E05TOU  was found in the system file and is referenced.
   KV$SND.:E05TOU  was found in the system file and is never referenced.
   KV$INT.:E05TOU  was found in the system file and is never referenced.
   KV$GLBCTX.:E05TOU  was found in the system file and is never referenced.
   KV$GLB.:E05TOU  was found in the system file and is referenced.
   G_LCP6_E.:E05TOU  was found in the system file and is never referenced.
   GT_LCP6_M.:E05TOU  was found in the system file and is never referenced.
   KI_CP6.:E05TOU  was found in the system file and is never referenced.
   GF_LCP6_M.:E05TOU  was found in the system file and is never referenced.
   GM_LCP6_M.:E05TOU  was found in the system file and is never referenced.
   GU_LCP6_M.:E05TOU  was found in the system file and is never referenced.
   GJ_LCP6_M.:E05TOU  was found in the system file and is never referenced.
   GH_LCP6_M.:E05TOU  was found in the system file and is never referenced.
      No diagnostics issued in procedure KV_USR_D.
PL6.E3A0      #001=KV_USR_D File=KV_USR_D.:E05TSI                                WED 07/30/97 02:17 Page:6

 **** Variables and constants ****


   No code generated for procedure KV_USR_D .
   Procedure KV_USR_D requires 4 words of local(AUTO) storage.

    No errors detected in file KV_USR_D.:E05TSI    .
PL6.E3A0      #001=KV_USR_D File=KV_USR_D.:E05TSI                                WED 07/30/97 02:17 Page:7
          *** CROSS REFERENCE LISTING ***
**     DENOTES     IDENTIFIER DEFINITION
<<                 IDENTIFIER'S VALUE SET
>>                 IDENTIFIER'S VALUE USED
<>                 IDENTIFIER SET AND/OR USED
--                 IDENTIFIER REFERENCED
PL6.E3A0      #001=KV_USR_D File=KV_USR_D.:E05TSI                                WED 07/30/97 02:17 Page:8
          MINI XREF LISTING

KV_USR_ERS.BTMRHT
       191**DCL       196--REDEF
KV_USR_ERS.TOPLFT
       157**DCL       162--REDEF
KV_USR_OTPMRK.DAT.ID
       498**DCL       498--REDEF     499--REDEF
KV_USR_PST.PHSPST
       597**DCL       602--REDEF
KV_USR_SETATR.PHSPST
       730**DCL       735--REDEF
