VERSION E05

PL6.E3A0      #001=KV_VDH_D File=KV_VDH_D.:E05TSI                                WED 07/30/97 02:17 Page:1
        1        1        /*M* KV_VDH_D Virtual device handler initialized KV$VDH_... structures */
        2        2        /*T***********************************************************/
        3        3        /*T*                                                         */
        4        4        /*T* Copyright (c) Bull HN Information Systems Inc., 1997    */
        5        5        /*T*                                                         */
        6        6        /*T***********************************************************/
        7        7        KV_VDH_D: PROC;
        8        8        /* Initialized copies of KV$VDH_... structures.
        9        9        */
       10       10        %INCLUDE LCP_6;
       11      201        %INCLUDE KL_MACRO_C;
       12     3553        %INCLUDE KNH_MACRO_C;
       13     3836 S      %INCLUDE KV_GLBCNS_E;
       14     3837        %KV_CMPCOD_E;
       15     3851 S      %INCLUDE KV$GLB;
       16     3852 S      %INCLUDE KV$VDH;
       17     3853 S      %INCLUDE KV$VDO;
       18     3854        %KV_DATCTRCHRTYP_E;
       19     3860        %KV$VDH_CNC(NAME = KV_VDH_CNC, STCLASS = CONSTANT SYMDEF);
       20     3952        %KV$VDH_DAT(NAME = KV_VDH_DAT, STCLASS = CONSTANT SYMDEF);
       21     4032        %KV$VDH_DAT(NAME = KV_VDH_DAT_NRM_ACTCHR, STCLASS = CONSTANT SYMDEF,
       22     4033         DATCTRCHRTYP = %KV_DATCTRCHRTYP_ACT, CMPCOD = %KV_CMPCOD_NRM);
       23     4113        %KV$VDH_DAT(NAME = KV_VDH_DAT_NRM_NO_ACTCHR, STCLASS = CONSTANT SYMDEF,
       24     4114         DATCTRCHRTYP = %KV_DATCTRCHRTYP_NON, CMPCOD = %KV_CMPCOD_NRM);
       25     4194        %KV$VDH_DAT(NAME = KV_VDH_DAT_CLS, STCLASS = CONSTANT SYMDEF,
       26     4195         DATCTRCHRTYP = %KV_DATCTRCHRTYP_NON, CMPCOD = %KV_CMPCOD_CLS);
       27     4275        %KV$VDH_DAT(NAME = KV_VDH_DAT_TIMOUT, STCLASS = CONSTANT SYMDEF,
       28     4276         DATCTRCHRTYP = %KV_DATCTRCHRTYP_NON, CMPCOD = %KV_CMPCOD_REDTIMOUT);
       29     4356        %KV$VDH_DCLLCLPST(NAME = KV_VDH_DCLLCLPST, STCLASS = CONSTANT SYMDEF);
       30     4425        %KV$VDH_DSC(NAME = KV_VDH_DSC, STCLASS = CONSTANT SYMDEF);
       31     4461        %KV$VDH_EVT(NAME = KV_VDH_EVT, STCLASS = CONSTANT SYMDEF);
       32     4496        /*
       33     4497        * Initialized copies of KV$VDH_EVT structures.
       34     4498        */
       35     4499        %KV$VDH_EVT(ID = KV_VDH_EVT_ID_CMPOTP, NAME = KV_VDH_EVT_CMPOTP, STCLASS =
              4499            CONSTANT SYMDEF);
       36     4534
PL6.E3A0      #001=KV_VDH_D File=KV_VDH_D.:E05TSI                                WED 07/30/97 02:17 Page:2
       37     4535        %KV$VDH_EVT(ID = KV_VDH_EVT_ID_RQSOTP, NAME = KV_VDH_EVT_RQSOTP, STCLASS =
              4535            CONSTANT SYMDEF);
       38     4570
       39     4571        %KV$VDH_EVT(ID = KV_VDH_EVT_ID_RLSVDI, NAME = KV_VDH_EVT_RLSVDI, STCLASS =
              4571            CONSTANT SYMDEF);
       40     4606
       41     4607        %KV$VDH_GETBFR(NAME = KV_VDH_GETBFR, STCLASS = CONSTANT SYMDEF);
       42     4672        %KV$VDH_GETPRM(NAME = KV_VDH_GETPRM, STCLASS = CONSTANT SYMDEF);
       43     4734        %KV$VDH_INT(NAME = KV_VDH_INT, STCLASS = CONSTANT SYMDEF);
       44     4771        %KV$VDH_INTINPOPR(NAME = KV_VDH_INTINPOPR, STCLASS = CONSTANT SYMDEF);
       45     4807        %KV$VDH_OTPLCL(NAME = KV_VDH_OTPLCL, STCLASS = CONSTANT SYMDEF);
       46     4880        /*
       47     4881        * Initialized KV$VDH_OTPLCL structures.
       48     4882        */
       49     4883        /* Output local, update virtual position, 1 character. */
       50     4884        %KV$VDH_OTPLCL(NAME = KV_VDH_OTPLCL_UPDVRTPST_1_CHR,
       51     4885                       STCLASS = CONSTANT SYMDEF, BYTSIZ = 1);
       52     4958        /* Output non-virtually. */
       53     4959        %KV$VDH_OTPLCL (NAME=KV_VDH_OTPLCL_NONVRT, NONVRT=YES, STCLASS=CONSTANT SYMDEF);
       54     5032        %KV$VDH_OTPMRK(NAME = KV_VDH_OTPMRK, STCLASS = CONSTANT SYMDEF);
       55     5094        %KV$VDH_PST(NAME = KV_VDH_PST, STCLASS = CONSTANT SYMDEF);
       56     5168        /*
       57     5169        * More initialized copies of KV$VDH_PST.
       58     5170        */
       59     5171        /* Do absolute positioning; position to be filled in at run-time.
       60     5172        */
       61     5173        %KV$VDH_PST(NAME = KV_VDH_PST_ABS, STCLASS = CONSTANT SYMDEF,
       62     5174                       VRT = NO,
       63     5175                       VRTPSTORG = ABS,
       64     5176                       VRTPSTVAL = 0,
       65     5177                       HRZPSTORG = ABS,
       66     5178                       HRZPSTVAL = 0);
       67     5252        /*
       68     5253        * Position home.
       69     5254        */
       70     5255        %KV$VDH_PST(NAME = KV_VDH_PST_HOM, STCLASS = CONSTANT SYMDEF,
       71     5256                       VRT = NO,
PL6.E3A0      #001=KV_VDH_D File=KV_VDH_D.:E05TSI                                WED 07/30/97 02:17 Page:3
       72     5257                       VRTPSTORG = SRD,
       73     5258                       VRTPSTVAL = 1,
       74     5259                       HRZPSTORG = SRD,
       75     5260                       HRZPSTVAL = 1);
       76     5334        /*
       77     5335        * Position SRD relative.
       78     5336        */
       79     5337        %KV$VDH_PST(NAME = KV_VDH_PST_SRD, STCLASS = CONSTANT SYMDEF,
       80     5338                       VRT = NO,
       81     5339                       VRTPSTORG = SRD,
       82     5340                       VRTPSTVAL = 0,
       83     5341                       HRZPSTORG = SRD,
       84     5342                       HRZPSTVAL = 0);
       85     5416        /*
       86     5417        * Position vertically SRD-relative.
       87     5418        */
       88     5419        %KV$VDH_PST(NAME = KV_VDH_PST_VRTSRD, STCLASS = CONSTANT SYMDEF,
       89     5420                       VRT = NO,
       90     5421                       VRTPSTORG = SRD,
       91     5422                       VRTPSTVAL = 0,
       92     5423                       HRZPSTORG = CRTPST,
       93     5424                       HRZPSTVAL = 0,
       94     5425                       PHSPSTMOD = SKP);
       95     5499        /*
       96     5500        * Position vertically, virtually.
       97     5501        */
       98     5502        %KV$VDH_PST(NAME = KV_VDH_PST_VRTVRT, STCLASS = CONSTANT SYMDEF,
       99     5503                       VRT = YES,
      100     5504                       VRTPSTORG = ABS,
      101     5505                       VRTPSTVAL = 0,
      102     5506                       HRZPSTORG = CRTPST,
      103     5507                       HRZPSTVAL = 0,
      104     5508                       PHSPSTMOD = SKP);
      105     5582        /*
      106     5583        * Position absolute, vertically.
      107     5584        */
      108     5585        %KV$VDH_PST(NAME = KV_VDH_PST_ABS_VRT, STCLASS = CONSTANT SYMDEF,
PL6.E3A0      #001=KV_VDH_D File=KV_VDH_D.:E05TSI                                WED 07/30/97 02:17 Page:4
      109     5586                       VRT = YES,
      110     5587                       VRTPSTORG = ABS,
      111     5588                       VRTPSTVAL = 0,
      112     5589                       HRZPSTORG = ABS,
      113     5590                       HRZPSTVAL = 0,
      114     5591                       PHSPSTMOD = SKP);
      115     5665        /*
      116     5666        * Position absolute, virtually, with no vertical scrolling.
      117     5667        */
      118     5668        %KV$VDH_PST(NAME = KV_VDH_PST_ABS_VRT_NO_SCR, STCLASS = CONSTANT SYMDEF,
      119     5669                       VRT = YES,
      120     5670                       VRTPSTORG = ABS,
      121     5671                       VRTPSTVAL = 0,
      122     5672                       HRZPSTORG = ABS,
      123     5673                       HRZPSTVAL = 0,
      124     5674                       PHSPSTMOD = SKP,
      125     5675                       PSTIN_PLC = YES,
      126     5676                       VRTSCRENB = NO);
      127     5750        /*
      128     5751        * Position to white space (for hard copy devices).
      129     5752        */
      130     5753        %KV$VDH_PST(NAME = KV_VDH_PST_WHTSPC, STCLASS = CONSTANT SYMDEF,
      131     5754                       VRT = YES,
      132     5755                       VRTPSTMOD = WHTSPC,
      133     5756                       VRTPSTORG = CRTPST,
      134     5757                       VRTPSTVAL = 0,
      135     5758                       HRZPSTORG = CRTPST,
      136     5759                       HRZPSTVAL = 0,
      137     5760                       PHSPSTMOD = SKP);
      138     5834        /*
      139     5835        * Position to white space (for transition VFC).
      140     5836        */
      141     5837        %KV$VDH_PST(NAME = KV_VDH_PST_WHTSPC_CR, STCLASS = CONSTANT SYMDEF,
      142     5838                       VRT = YES,
      143     5839                       VRTPSTMOD = WHTSPC,
      144     5840                       VRTPSTORG = CRTPST,
      145     5841                       VRTPSTVAL = 0,
PL6.E3A0      #001=KV_VDH_D File=KV_VDH_D.:E05TSI                                WED 07/30/97 02:17 Page:5
      146     5842                       HRZPSTORG = ABS,
      147     5843                       HRZPSTVAL = 1,
      148     5844                       PHSPSTMOD = SKP);
      149     5918        /*
      150     5919        * Restore current virtual position
      151     5920        */
      152     5921        %KV$VDH_PST(NAME = KV_VDH_PST_VRT, STCLASS = CONSTANT SYMDEF,
      153     5922                       VRT = YES,
      154     5923                       VRTPSTMOD = RSTVRTPST,
      155     5924                       VRTPSTORG = CRTPST,
      156     5925                       VRTPSTVAL = 0,
      157     5926                       HRZPSTORG = CRTPST,
      158     5927                       HRZPSTVAL = 0,
      159     5928                       PHSPSTMOD = SKP);
      160     6002        /*
      161     6003        * Position relative to current position.
      162     6004        */
      163     6005        %KV$VDH_PST(NAME = KV_VDH_PST_RLT, STCLASS = CONSTANT SYMDEF,
      164     6006                       VRTPSTORG = CRTPST,
      165     6007                       VRTPSTVAL = 0,
      166     6008                       HRZPSTORG = CRTPST,
      167     6009                       HRZPSTVAL = 0,
      168     6010                       PHSPSTMOD = SKP);
      169     6084        /*
      170     6085        * Do a BS (backspace), using (updating) virtual positioning.
      171     6086        */
      172     6087        %KV$VDH_PST(NAME = KV_VDH_PST_BS_VRT, STCLASS = CONSTANT SYMDEF,
      173     6088                       VRT = YES,
      174     6089                       VRTPSTORG = CRTPST,
      175     6090                       VRTPSTVAL = 0,
      176     6091                       HRZPSTORG = CRTPST,
      177     6092                       HRZPSTVAL = -1);
      178     6166        /*
      179     6167        * Space one column, (skipping), using (updating) virtual positioning.
      180     6168        */
      181     6169        %KV$VDH_PST(NAME = KV_VDH_PST_SPC_VRT, STCLASS = CONSTANT SYMDEF,
      182     6170                       VRT = YES,
PL6.E3A0      #001=KV_VDH_D File=KV_VDH_D.:E05TSI                                WED 07/30/97 02:17 Page:6
      183     6171                       VRTPSTORG = CRTPST,
      184     6172                       VRTPSTVAL = 0,
      185     6173                       HRZPSTORG = CRTPST,
      186     6174                       HRZPSTVAL = 1,
      187     6175                       PHSPSTMOD = SKP);
      188     6249        /*
      189     6250        * Restore virtual position, in place.
      190     6251        */
      191     6252        %KV$VDH_PST(NAME = KV_VDH_PST_0_VRT, STCLASS = CONSTANT SYMDEF,
      192     6253                       VRT = YES,
      193     6254                       VRTPSTORG = CRTPST,
      194     6255                       VRTPSTVAL = 0,
      195     6256                       HRZPSTORG = CRTPST,
      196     6257                       HRZPSTVAL = 0,
      197     6258                       PHSPSTMOD = SKP);
      198     6332        /*
      199     6333        * Do a CR (carriage return).
      200     6334        */
      201     6335        %KV$VDH_PST(NAME = KV_VDH_PST_CR, STCLASS = CONSTANT SYMDEF,
      202     6336                       VRT = NO,
      203     6337                       VRTPSTORG = CRTPST,
      204     6338                       VRTPSTVAL = 0,
      205     6339                       HRZPSTORG = SRD,
      206     6340                       HRZPSTVAL = 1);
      207     6414        /*
      208     6415        * Do a CR (carriage return), using (updating) virtual positioning.
      209     6416        */
      210     6417        %KV$VDH_PST(NAME = KV_VDH_PST_CR_VRT, STCLASS = CONSTANT SYMDEF,
      211     6418                       VRT = YES,
      212     6419                       VRTPSTORG = CRTPST,
      213     6420                       VRTPSTVAL = 0,
      214     6421                       HRZPSTORG = ABS,
      215     6422                       HRZPSTVAL = 1);
      216     6496        /*
      217     6497        * Do an LF (line feed).
      218     6498        */
      219     6499        %KV$VDH_PST(NAME = KV_VDH_PST_LF, STCLASS = CONSTANT SYMDEF,
PL6.E3A0      #001=KV_VDH_D File=KV_VDH_D.:E05TSI                                WED 07/30/97 02:17 Page:7
      220     6500                       VRT = NO,
      221     6501                       VRTPSTORG = CRTPST,
      222     6502                       VRTPSTVAL = 1,
      223     6503                       HRZPSTORG = CRTPST,
      224     6504                       HRZPSTVAL = 0);
      225     6578        /*
      226     6579        * Do a LF (line feed), using (updating) virtual positioning.
      227     6580        */
      228     6581        %KV$VDH_PST(NAME = KV_VDH_PST_LF_VRT, STCLASS = CONSTANT SYMDEF,
      229     6582                       VRT = YES,
      230     6583                       VRTPSTORG = CRTPST,
      231     6584                       VRTPSTVAL = 1,
      232     6585                       HRZPSTORG = CRTPST,
      233     6586                       HRZPSTVAL = 0);
      234     6660        /*
      235     6661        * Do a line wrap (CR and LF) using blank mode (for KVO$OTPLCL).
      236     6662        */
      237     6663        %KV$VDH_PST(NAME = KV_VDH_PST_WRAP, STCLASS = CONSTANT SYMDEF,
      238     6664                       VRT = NO,
      239     6665                       VRTPSTORG = CRTPST,
      240     6666                       VRTPSTVAL = 1,
      241     6667                       HRZPSTORG = SRD,
      242     6668                       HRZPSTVAL = 1,
      243     6669                       PHSPSTMOD = BLN);
      244     6743        /*
      245     6744        * Do a new-line (carriage return and line feed).
      246     6745        */
      247     6746        %KV$VDH_PST(NAME = KV_VDH_PST_NEWLIN, STCLASS = CONSTANT SYMDEF,
      248     6747                       VRT = NO,
      249     6748                       VRTPSTORG = CRTPST,
      250     6749                       VRTPSTVAL = 1,
      251     6750                       HRZPSTORG = SRD,
      252     6751                       HRZPSTVAL = 1);
      253     6825        /*
      254     6826        * Do a new-line (carriage return and line feed), using (updating);
      255     6827        * virtual positioning).
      256     6828        */
PL6.E3A0      #001=KV_VDH_D File=KV_VDH_D.:E05TSI                                WED 07/30/97 02:17 Page:8
      257     6829        %KV$VDH_PST(NAME = KV_VDH_PST_NEWLIN_VRT, STCLASS = CONSTANT SYMDEF,
      258     6830                       VRT = YES,
      259     6831                       VRTPSTORG = CRTPST,
      260     6832                       VRTPSTVAL = 1,
      261     6833                       HRZPSTORG = ABS,
      262     6834                       HRZPSTVAL = 1);
      263     6908        /*
      264     6909        * Space one field forward
      265     6910        */
      266     6911        %KV$VDH_PST(NAME = KV_VDH_PST_SPCFRM, STCLASS = CONSTANT SYMDEF,
      267     6912                       HRZPSTUNT = FLD,
      268     6913                       VRTPSTUNT = FLD,
      269     6914                       HRZPSTORG = CRTPST,
      270     6915                       VRTPSTORG = CRTPST,
      271     6916                       VRTPSTVAL = 0,
      272     6917                       HRZPSTVAL = 1);
      273     6991        /*
      274     6992        * Space one field reverse
      275     6993        */
      276     6994        %KV$VDH_PST(NAME = KV_VDH_PST_BS_FRM, STCLASS = CONSTANT SYMDEF,
      277     6995                       HRZPSTUNT = FLD,
      278     6996                       VRTPSTUNT = FLD,
      279     6997                       HRZPSTORG = CRTPST,
      280     6998                       VRTPSTORG = CRTPST,
      281     6999                       VRTPSTVAL = 0,
      282     7000                       HRZPSTVAL = -1);
      283     7074        /*
      284     7075        * Space to non-existent field (done for activation of forms read);
      285     7076        */
      286     7077        %KV$VDH_PST(NAME = KV_VDH_PST_ENDFRM, STCLASS = CONSTANT SYMDEF,
      287     7078                       HRZPSTUNT = FLD,
      288     7079                       VRTPSTUNT = FLD,
      289     7080                       HRZPSTORG = ABS,
      290     7081                       VRTPSTORG = CRTPST,
      291     7082                       VRTPSTVAL = 0,
      292     7083                       HRZPSTVAL = 0);
      293     7157        %KV$VDH_RLSBFR(NAME = KV_VDH_RLSBFR, STCLASS = CONSTANT SYMDEF);
PL6.E3A0      #001=KV_VDH_D File=KV_VDH_D.:E05TSI                                WED 07/30/97 02:17 Page:9
      294     7193        %KV$VDH_RQSDAT(NAME = KV_VDH_RQSDAT, STCLASS = CONSTANT SYMDEF);
      295     7228        %KV$VDH_SETCLK(NAME = KV_VDH_SETCLK, STCLASS = CONSTANT SYMDEF);
      296     7264        %KV$VDH_SETPRM(NAME = KV_VDH_SETPRM, STCLASS = CONSTANT SYMDEF);
      297     7326    1   END;

PL6.E3A0      #001=KV_VDH_D File=KV_VDH_D.:E05TSI                                WED 07/30/97 02:17 Page:10
--  Include file information  --

   KNH_MACRO_C.:E05TOU  is referenced.
   KL_MACRO_C.:E05TOU  is referenced.
   LCP_6.:E05TOU  cannot be made into a system file and is referenced.
   KV_PRMID_E.:E05TOU  was found in the system file and is never referenced.
   KV_GLBCNS_E.:E05TOU  was found in the system file and is referenced.
   KV$VDO.:E05TOU  was found in the system file and is referenced.
   KV$VDH.:E05TOU  was found in the system file and is referenced.
   KV$USR.:E05TOU  was found in the system file and is never referenced.
   KV$SND.:E05TOU  was found in the system file and is never referenced.
   KV$INT.:E05TOU  was found in the system file and is never referenced.
   KV$GLBCTX.:E05TOU  was found in the system file and is never referenced.
   KV$GLB.:E05TOU  was found in the system file and is referenced.
   G_LCP6_E.:E05TOU  was found in the system file and is referenced.
   GT_LCP6_M.:E05TOU  was found in the system file and is referenced.
   KI_CP6.:E05TOU  was found in the system file and is referenced.
   GF_LCP6_M.:E05TOU  was found in the system file and is referenced.
   GM_LCP6_M.:E05TOU  was found in the system file and is referenced.
   GU_LCP6_M.:E05TOU  was found in the system file and is referenced.
   GJ_LCP6_M.:E05TOU  was found in the system file and is referenced.
   GH_LCP6_M.:E05TOU  was found in the system file and is referenced.
      No diagnostics issued in procedure KV_VDH_D.

   No code generated for procedure KV_VDH_D .
   Procedure KV_VDH_D requires 4 words of local(AUTO) storage.

    No errors detected in file KV_VDH_D.:E05TSI    .

PL6.E3A0      #001=KV_VDH_D File=KV_VDH_D.:E05TSI                                WED 07/30/97 02:17 Page:11

 Object Unit name= KV_VDH_D                                   File name= KV_VDH_D.:E05TOU
 UTS= JUL 30 '97 02:17:32.76 WED                              Compiler= PL-6/E31         Sev=      00
 SharedLib= :SHARED_LCP6_SYSTEM                               Alt SharedLib=


    ****  Control sections  ****

 Sect   Type Bound  Init  Size HexSiz  Section name
    0  RoData even  UTS    256    100  KV_VDH_D
    1   Proc  even  none     0      0  KV_VDH_D

    ****  Entry defs  ****

                              Check   Calling
                             calling  sequence
  Sect HexLoc Primary Altret sequence   type   Parms  Name
     1      0   yes            yes     ~proc       0  KV_VDH_D

  ****  Data defs  ****

 Sect HexLoc  Name                           Sect HexLoc  Name
    0      0  KV_VDH_CNC                         0     19  KV_VDH_DAT
    0     21  KV_VDH_DAT_NRM_ACTCHR              0     29  KV_VDH_DAT_NRM_NO_ACTCHR
    0     31  KV_VDH_DAT_CLS                     0     39  KV_VDH_DAT_TIMOUT
    0     41  KV_VDH_DCLLCLPST                   0     45  KV_VDH_DSC
    0     47  KV_VDH_EVT                         0     49  KV_VDH_EVT_CMPOTP
    0     4B  KV_VDH_EVT_RQSOTP                  0     4D  KV_VDH_EVT_RLSVDI
    0     4F  KV_VDH_GETBFR                      0     5A  KV_VDH_GETPRM
    0     64  KV_VDH_INT                         0     6F  KV_VDH_INTINPOPR
    0     75  KV_VDH_OTPLCL                      0     7A  KV_VDH_OTPLCL_UPDVRTPST_1_CHR
    0     7F  KV_VDH_OTPLCL_NONVRT               0     84  KV_VDH_OTPMRK
    0     89  KV_VDH_PST                         0     8D  KV_VDH_PST_ABS
    0     91  KV_VDH_PST_HOM                     0     95  KV_VDH_PST_SRD
    0     99  KV_VDH_PST_VRTSRD                  0     9D  KV_VDH_PST_VRTVRT
    0     A1  KV_VDH_PST_ABS_VRT                 0     A5  KV_VDH_PST_ABS_VRT_NO_SCR
    0     A9  KV_VDH_PST_WHTSPC                  0     AD  KV_VDH_PST_WHTSPC_CR
    0     B1  KV_VDH_PST_VRT                     0     B5  KV_VDH_PST_RLT
PL6.E3A0      #001=KV_VDH_D File=KV_VDH_D.:E05TSI                                WED 07/30/97 02:17 Page:12
    0     B9  KV_VDH_PST_BS_VRT                  0     BD  KV_VDH_PST_SPC_VRT
    0     C1  KV_VDH_PST_0_VRT                   0     C5  KV_VDH_PST_CR
    0     C9  KV_VDH_PST_CR_VRT                  0     CD  KV_VDH_PST_LF
    0     D1  KV_VDH_PST_LF_VRT                  0     D5  KV_VDH_PST_WRAP
    0     D9  KV_VDH_PST_NEWLIN                  0     DD  KV_VDH_PST_NEWLIN_VRT
    0     E1  KV_VDH_PST_SPCFRM                  0     E5  KV_VDH_PST_BS_FRM
    0     E9  KV_VDH_PST_ENDFRM                  0     ED  KV_VDH_RLSBFR
    0     F4  KV_VDH_RQSDAT                      0     F6  KV_VDH_SETCLK
    0     F8  KV_VDH_SETPRM

  ****  Data refs  ****

  Flags:  r = read only, s = secondary
Flgs Name                             Flgs Name                             Flgs Name
r    G$ROS$
PL6.E3A0      #001=KV_VDH_D File=KV_VDH_D.:E05TSI                                WED 07/30/97 02:17 Page:13

        1        1        /*M* KV_VDH_D Virtual device handler initialized KV$VDH_... structures */
        2        2        /*T***********************************************************/
        3        3        /*T*                                                         */
        4        4        /*T* Copyright (c) Bull HN Information Systems Inc., 1997    */
        5        5        /*T*                                                         */
        6        6        /*T***********************************************************/
        7        7        KV_VDH_D: PROC;
        8        8        /* Initialized copies of KV$VDH_... structures.
        9        9        */
       10       10        %INCLUDE LCP_6;
       11      201        %INCLUDE KL_MACRO_C;
       12     3553        %INCLUDE KNH_MACRO_C;
       13     3836 S      %INCLUDE KV_GLBCNS_E;
       14     3837        %KV_CMPCOD_E;
       15     3851 S      %INCLUDE KV$GLB;
       16     3852 S      %INCLUDE KV$VDH;
       17     3853 S      %INCLUDE KV$VDO;
       18     3854        %KV_DATCTRCHRTYP_E;
       19     3860        %KV$VDH_CNC(NAME = KV_VDH_CNC, STCLASS = CONSTANT SYMDEF);
       20     3952        %KV$VDH_DAT(NAME = KV_VDH_DAT, STCLASS = CONSTANT SYMDEF);
       21     4032        %KV$VDH_DAT(NAME = KV_VDH_DAT_NRM_ACTCHR, STCLASS = CONSTANT SYMDEF,
       22     4033         DATCTRCHRTYP = %KV_DATCTRCHRTYP_ACT, CMPCOD = %KV_CMPCOD_NRM);
       23     4113        %KV$VDH_DAT(NAME = KV_VDH_DAT_NRM_NO_ACTCHR, STCLASS = CONSTANT SYMDEF,
       24     4114         DATCTRCHRTYP = %KV_DATCTRCHRTYP_NON, CMPCOD = %KV_CMPCOD_NRM);
       25     4194        %KV$VDH_DAT(NAME = KV_VDH_DAT_CLS, STCLASS = CONSTANT SYMDEF,
       26     4195         DATCTRCHRTYP = %KV_DATCTRCHRTYP_NON, CMPCOD = %KV_CMPCOD_CLS);
       27     4275        %KV$VDH_DAT(NAME = KV_VDH_DAT_TIMOUT, STCLASS = CONSTANT SYMDEF,
       28     4276         DATCTRCHRTYP = %KV_DATCTRCHRTYP_NON, CMPCOD = %KV_CMPCOD_REDTIMOUT);
       29     4356        %KV$VDH_DCLLCLPST(NAME = KV_VDH_DCLLCLPST, STCLASS = CONSTANT SYMDEF);
       30     4425        %KV$VDH_DSC(NAME = KV_VDH_DSC, STCLASS = CONSTANT SYMDEF);
       31     4461        %KV$VDH_EVT(NAME = KV_VDH_EVT, STCLASS = CONSTANT SYMDEF);
       32     4496        /*
       33     4497        * Initialized copies of KV$VDH_EVT structures.
       34     4498        */
       35     4499        %KV$VDH_EVT(ID = KV_VDH_EVT_ID_CMPOTP, NAME = KV_VDH_EVT_CMPOTP, STCLASS =
              4499            CONSTANT SYMDEF);
       36     4534
PL6.E3A0      #001=KV_VDH_D File=KV_VDH_D.:E05TSI                                WED 07/30/97 02:17 Page:14
       37     4535        %KV$VDH_EVT(ID = KV_VDH_EVT_ID_RQSOTP, NAME = KV_VDH_EVT_RQSOTP, STCLASS =
              4535            CONSTANT SYMDEF);
       38     4570
       39     4571        %KV$VDH_EVT(ID = KV_VDH_EVT_ID_RLSVDI, NAME = KV_VDH_EVT_RLSVDI, STCLASS =
              4571            CONSTANT SYMDEF);
       40     4606
       41     4607        %KV$VDH_GETBFR(NAME = KV_VDH_GETBFR, STCLASS = CONSTANT SYMDEF);
       42     4672        %KV$VDH_GETPRM(NAME = KV_VDH_GETPRM, STCLASS = CONSTANT SYMDEF);
       43     4734        %KV$VDH_INT(NAME = KV_VDH_INT, STCLASS = CONSTANT SYMDEF);
       44     4771        %KV$VDH_INTINPOPR(NAME = KV_VDH_INTINPOPR, STCLASS = CONSTANT SYMDEF);
       45     4807        %KV$VDH_OTPLCL(NAME = KV_VDH_OTPLCL, STCLASS = CONSTANT SYMDEF);
       46     4880        /*
       47     4881        * Initialized KV$VDH_OTPLCL structures.
       48     4882        */
       49     4883        /* Output local, update virtual position, 1 character. */
       50     4884        %KV$VDH_OTPLCL(NAME = KV_VDH_OTPLCL_UPDVRTPST_1_CHR,
       51     4885                       STCLASS = CONSTANT SYMDEF, BYTSIZ = 1);
       52     4958        /* Output non-virtually. */
       53     4959        %KV$VDH_OTPLCL (NAME=KV_VDH_OTPLCL_NONVRT, NONVRT=YES, STCLASS=CONSTANT SYMDEF);
       54     5032        %KV$VDH_OTPMRK(NAME = KV_VDH_OTPMRK, STCLASS = CONSTANT SYMDEF);
       55     5094        %KV$VDH_PST(NAME = KV_VDH_PST, STCLASS = CONSTANT SYMDEF);
       56     5168        /*
       57     5169        * More initialized copies of KV$VDH_PST.
       58     5170        */
       59     5171        /* Do absolute positioning; position to be filled in at run-time.
       60     5172        */
       61     5173        %KV$VDH_PST(NAME = KV_VDH_PST_ABS, STCLASS = CONSTANT SYMDEF,
       62     5174                       VRT = NO,
       63     5175                       VRTPSTORG = ABS,
       64     5176                       VRTPSTVAL = 0,
       65     5177                       HRZPSTORG = ABS,
       66     5178                       HRZPSTVAL = 0);
       67     5252        /*
       68     5253        * Position home.
       69     5254        */
       70     5255        %KV$VDH_PST(NAME = KV_VDH_PST_HOM, STCLASS = CONSTANT SYMDEF,
       71     5256                       VRT = NO,
PL6.E3A0      #001=KV_VDH_D File=KV_VDH_D.:E05TSI                                WED 07/30/97 02:17 Page:15
       72     5257                       VRTPSTORG = SRD,
       73     5258                       VRTPSTVAL = 1,
       74     5259                       HRZPSTORG = SRD,
       75     5260                       HRZPSTVAL = 1);
       76     5334        /*
       77     5335        * Position SRD relative.
       78     5336        */
       79     5337        %KV$VDH_PST(NAME = KV_VDH_PST_SRD, STCLASS = CONSTANT SYMDEF,
       80     5338                       VRT = NO,
       81     5339                       VRTPSTORG = SRD,
       82     5340                       VRTPSTVAL = 0,
       83     5341                       HRZPSTORG = SRD,
       84     5342                       HRZPSTVAL = 0);
       85     5416        /*
       86     5417        * Position vertically SRD-relative.
       87     5418        */
       88     5419        %KV$VDH_PST(NAME = KV_VDH_PST_VRTSRD, STCLASS = CONSTANT SYMDEF,
       89     5420                       VRT = NO,
       90     5421                       VRTPSTORG = SRD,
       91     5422                       VRTPSTVAL = 0,
       92     5423                       HRZPSTORG = CRTPST,
       93     5424                       HRZPSTVAL = 0,
       94     5425                       PHSPSTMOD = SKP);
       95     5499        /*
       96     5500        * Position vertically, virtually.
       97     5501        */
       98     5502        %KV$VDH_PST(NAME = KV_VDH_PST_VRTVRT, STCLASS = CONSTANT SYMDEF,
       99     5503                       VRT = YES,
      100     5504                       VRTPSTORG = ABS,
      101     5505                       VRTPSTVAL = 0,
      102     5506                       HRZPSTORG = CRTPST,
      103     5507                       HRZPSTVAL = 0,
      104     5508                       PHSPSTMOD = SKP);
      105     5582        /*
      106     5583        * Position absolute, vertically.
      107     5584        */
      108     5585        %KV$VDH_PST(NAME = KV_VDH_PST_ABS_VRT, STCLASS = CONSTANT SYMDEF,
PL6.E3A0      #001=KV_VDH_D File=KV_VDH_D.:E05TSI                                WED 07/30/97 02:17 Page:16
      109     5586                       VRT = YES,
      110     5587                       VRTPSTORG = ABS,
      111     5588                       VRTPSTVAL = 0,
      112     5589                       HRZPSTORG = ABS,
      113     5590                       HRZPSTVAL = 0,
      114     5591                       PHSPSTMOD = SKP);
      115     5665        /*
      116     5666        * Position absolute, virtually, with no vertical scrolling.
      117     5667        */
      118     5668        %KV$VDH_PST(NAME = KV_VDH_PST_ABS_VRT_NO_SCR, STCLASS = CONSTANT SYMDEF,
      119     5669                       VRT = YES,
      120     5670                       VRTPSTORG = ABS,
      121     5671                       VRTPSTVAL = 0,
      122     5672                       HRZPSTORG = ABS,
      123     5673                       HRZPSTVAL = 0,
      124     5674                       PHSPSTMOD = SKP,
      125     5675                       PSTIN_PLC = YES,
      126     5676                       VRTSCRENB = NO);
      127     5750        /*
      128     5751        * Position to white space (for hard copy devices).
      129     5752        */
      130     5753        %KV$VDH_PST(NAME = KV_VDH_PST_WHTSPC, STCLASS = CONSTANT SYMDEF,
      131     5754                       VRT = YES,
      132     5755                       VRTPSTMOD = WHTSPC,
      133     5756                       VRTPSTORG = CRTPST,
      134     5757                       VRTPSTVAL = 0,
      135     5758                       HRZPSTORG = CRTPST,
      136     5759                       HRZPSTVAL = 0,
      137     5760                       PHSPSTMOD = SKP);
      138     5834        /*
      139     5835        * Position to white space (for transition VFC).
      140     5836        */
      141     5837        %KV$VDH_PST(NAME = KV_VDH_PST_WHTSPC_CR, STCLASS = CONSTANT SYMDEF,
      142     5838                       VRT = YES,
      143     5839                       VRTPSTMOD = WHTSPC,
      144     5840                       VRTPSTORG = CRTPST,
      145     5841                       VRTPSTVAL = 0,
PL6.E3A0      #001=KV_VDH_D File=KV_VDH_D.:E05TSI                                WED 07/30/97 02:17 Page:17
      146     5842                       HRZPSTORG = ABS,
      147     5843                       HRZPSTVAL = 1,
      148     5844                       PHSPSTMOD = SKP);
      149     5918        /*
      150     5919        * Restore current virtual position
      151     5920        */
      152     5921        %KV$VDH_PST(NAME = KV_VDH_PST_VRT, STCLASS = CONSTANT SYMDEF,
      153     5922                       VRT = YES,
      154     5923                       VRTPSTMOD = RSTVRTPST,
      155     5924                       VRTPSTORG = CRTPST,
      156     5925                       VRTPSTVAL = 0,
      157     5926                       HRZPSTORG = CRTPST,
      158     5927                       HRZPSTVAL = 0,
      159     5928                       PHSPSTMOD = SKP);
      160     6002        /*
      161     6003        * Position relative to current position.
      162     6004        */
      163     6005        %KV$VDH_PST(NAME = KV_VDH_PST_RLT, STCLASS = CONSTANT SYMDEF,
      164     6006                       VRTPSTORG = CRTPST,
      165     6007                       VRTPSTVAL = 0,
      166     6008                       HRZPSTORG = CRTPST,
      167     6009                       HRZPSTVAL = 0,
      168     6010                       PHSPSTMOD = SKP);
      169     6084        /*
      170     6085        * Do a BS (backspace), using (updating) virtual positioning.
      171     6086        */
      172     6087        %KV$VDH_PST(NAME = KV_VDH_PST_BS_VRT, STCLASS = CONSTANT SYMDEF,
      173     6088                       VRT = YES,
      174     6089                       VRTPSTORG = CRTPST,
      175     6090                       VRTPSTVAL = 0,
      176     6091                       HRZPSTORG = CRTPST,
      177     6092                       HRZPSTVAL = -1);
      178     6166        /*
      179     6167        * Space one column, (skipping), using (updating) virtual positioning.
      180     6168        */
      181     6169        %KV$VDH_PST(NAME = KV_VDH_PST_SPC_VRT, STCLASS = CONSTANT SYMDEF,
      182     6170                       VRT = YES,
PL6.E3A0      #001=KV_VDH_D File=KV_VDH_D.:E05TSI                                WED 07/30/97 02:17 Page:18
      183     6171                       VRTPSTORG = CRTPST,
      184     6172                       VRTPSTVAL = 0,
      185     6173                       HRZPSTORG = CRTPST,
      186     6174                       HRZPSTVAL = 1,
      187     6175                       PHSPSTMOD = SKP);
      188     6249        /*
      189     6250        * Restore virtual position, in place.
      190     6251        */
      191     6252        %KV$VDH_PST(NAME = KV_VDH_PST_0_VRT, STCLASS = CONSTANT SYMDEF,
      192     6253                       VRT = YES,
      193     6254                       VRTPSTORG = CRTPST,
      194     6255                       VRTPSTVAL = 0,
      195     6256                       HRZPSTORG = CRTPST,
      196     6257                       HRZPSTVAL = 0,
      197     6258                       PHSPSTMOD = SKP);
      198     6332        /*
      199     6333        * Do a CR (carriage return).
      200     6334        */
      201     6335        %KV$VDH_PST(NAME = KV_VDH_PST_CR, STCLASS = CONSTANT SYMDEF,
      202     6336                       VRT = NO,
      203     6337                       VRTPSTORG = CRTPST,
      204     6338                       VRTPSTVAL = 0,
      205     6339                       HRZPSTORG = SRD,
      206     6340                       HRZPSTVAL = 1);
      207     6414        /*
      208     6415        * Do a CR (carriage return), using (updating) virtual positioning.
      209     6416        */
      210     6417        %KV$VDH_PST(NAME = KV_VDH_PST_CR_VRT, STCLASS = CONSTANT SYMDEF,
      211     6418                       VRT = YES,
      212     6419                       VRTPSTORG = CRTPST,
      213     6420                       VRTPSTVAL = 0,
      214     6421                       HRZPSTORG = ABS,
      215     6422                       HRZPSTVAL = 1);
      216     6496        /*
      217     6497        * Do an LF (line feed).
      218     6498        */
      219     6499        %KV$VDH_PST(NAME = KV_VDH_PST_LF, STCLASS = CONSTANT SYMDEF,
PL6.E3A0      #001=KV_VDH_D File=KV_VDH_D.:E05TSI                                WED 07/30/97 02:17 Page:19
      220     6500                       VRT = NO,
      221     6501                       VRTPSTORG = CRTPST,
      222     6502                       VRTPSTVAL = 1,
      223     6503                       HRZPSTORG = CRTPST,
      224     6504                       HRZPSTVAL = 0);
      225     6578        /*
      226     6579        * Do a LF (line feed), using (updating) virtual positioning.
      227     6580        */
      228     6581        %KV$VDH_PST(NAME = KV_VDH_PST_LF_VRT, STCLASS = CONSTANT SYMDEF,
      229     6582                       VRT = YES,
      230     6583                       VRTPSTORG = CRTPST,
      231     6584                       VRTPSTVAL = 1,
      232     6585                       HRZPSTORG = CRTPST,
      233     6586                       HRZPSTVAL = 0);
      234     6660        /*
      235     6661        * Do a line wrap (CR and LF) using blank mode (for KVO$OTPLCL).
      236     6662        */
      237     6663        %KV$VDH_PST(NAME = KV_VDH_PST_WRAP, STCLASS = CONSTANT SYMDEF,
      238     6664                       VRT = NO,
      239     6665                       VRTPSTORG = CRTPST,
      240     6666                       VRTPSTVAL = 1,
      241     6667                       HRZPSTORG = SRD,
      242     6668                       HRZPSTVAL = 1,
      243     6669                       PHSPSTMOD = BLN);
      244     6743        /*
      245     6744        * Do a new-line (carriage return and line feed).
      246     6745        */
      247     6746        %KV$VDH_PST(NAME = KV_VDH_PST_NEWLIN, STCLASS = CONSTANT SYMDEF,
      248     6747                       VRT = NO,
      249     6748                       VRTPSTORG = CRTPST,
      250     6749                       VRTPSTVAL = 1,
      251     6750                       HRZPSTORG = SRD,
      252     6751                       HRZPSTVAL = 1);
      253     6825        /*
      254     6826        * Do a new-line (carriage return and line feed), using (updating);
      255     6827        * virtual positioning).
      256     6828        */
PL6.E3A0      #001=KV_VDH_D File=KV_VDH_D.:E05TSI                                WED 07/30/97 02:17 Page:20
      257     6829        %KV$VDH_PST(NAME = KV_VDH_PST_NEWLIN_VRT, STCLASS = CONSTANT SYMDEF,
      258     6830                       VRT = YES,
      259     6831                       VRTPSTORG = CRTPST,
      260     6832                       VRTPSTVAL = 1,
      261     6833                       HRZPSTORG = ABS,
      262     6834                       HRZPSTVAL = 1);
      263     6908        /*
      264     6909        * Space one field forward
      265     6910        */
      266     6911        %KV$VDH_PST(NAME = KV_VDH_PST_SPCFRM, STCLASS = CONSTANT SYMDEF,
      267     6912                       HRZPSTUNT = FLD,
      268     6913                       VRTPSTUNT = FLD,
      269     6914                       HRZPSTORG = CRTPST,
      270     6915                       VRTPSTORG = CRTPST,
      271     6916                       VRTPSTVAL = 0,
      272     6917                       HRZPSTVAL = 1);
      273     6991        /*
      274     6992        * Space one field reverse
      275     6993        */
      276     6994        %KV$VDH_PST(NAME = KV_VDH_PST_BS_FRM, STCLASS = CONSTANT SYMDEF,
      277     6995                       HRZPSTUNT = FLD,
      278     6996                       VRTPSTUNT = FLD,
      279     6997                       HRZPSTORG = CRTPST,
      280     6998                       VRTPSTORG = CRTPST,
      281     6999                       VRTPSTVAL = 0,
      282     7000                       HRZPSTVAL = -1);
      283     7074        /*
      284     7075        * Space to non-existent field (done for activation of forms read);
      285     7076        */
      286     7077        %KV$VDH_PST(NAME = KV_VDH_PST_ENDFRM, STCLASS = CONSTANT SYMDEF,
      287     7078                       HRZPSTUNT = FLD,
      288     7079                       VRTPSTUNT = FLD,
      289     7080                       HRZPSTORG = ABS,
      290     7081                       VRTPSTORG = CRTPST,
      291     7082                       VRTPSTVAL = 0,
      292     7083                       HRZPSTVAL = 0);
      293     7157        %KV$VDH_RLSBFR(NAME = KV_VDH_RLSBFR, STCLASS = CONSTANT SYMDEF);
PL6.E3A0      #001=KV_VDH_D File=KV_VDH_D.:E05TSI                                WED 07/30/97 02:17 Page:21
      294     7193        %KV$VDH_RQSDAT(NAME = KV_VDH_RQSDAT, STCLASS = CONSTANT SYMDEF);
      295     7228        %KV$VDH_SETCLK(NAME = KV_VDH_SETCLK, STCLASS = CONSTANT SYMDEF);
      296     7264        %KV$VDH_SETPRM(NAME = KV_VDH_SETPRM, STCLASS = CONSTANT SYMDEF);
      297     7326    1   END;

PL6.E3A0      #001=KV_VDH_D File=KV_VDH_D.:E05TSI                                WED 07/30/97 02:17 Page:22
--  Include file information  --

   KNH_MACRO_C.:E05TOU  is referenced.
   KL_MACRO_C.:E05TOU  is referenced.
   LCP_6.:E05TOU  cannot be made into a system file and is referenced.
   KV_PRMID_E.:E05TOU  was found in the system file and is never referenced.
   KV_GLBCNS_E.:E05TOU  was found in the system file and is referenced.
   KV$VDO.:E05TOU  was found in the system file and is referenced.
   KV$VDH.:E05TOU  was found in the system file and is referenced.
   KV$USR.:E05TOU  was found in the system file and is never referenced.
   KV$SND.:E05TOU  was found in the system file and is never referenced.
   KV$INT.:E05TOU  was found in the system file and is never referenced.
   KV$GLBCTX.:E05TOU  was found in the system file and is never referenced.
   KV$GLB.:E05TOU  was found in the system file and is referenced.
   G_LCP6_E.:E05TOU  was found in the system file and is referenced.
   GT_LCP6_M.:E05TOU  was found in the system file and is referenced.
   KI_CP6.:E05TOU  was found in the system file and is referenced.
   GF_LCP6_M.:E05TOU  was found in the system file and is referenced.
   GM_LCP6_M.:E05TOU  was found in the system file and is referenced.
   GU_LCP6_M.:E05TOU  was found in the system file and is referenced.
   GJ_LCP6_M.:E05TOU  was found in the system file and is referenced.
   GH_LCP6_M.:E05TOU  was found in the system file and is referenced.
      No diagnostics issued in procedure KV_VDH_D.
PL6.E3A0      #001=KV_VDH_D File=KV_VDH_D.:E05TSI                                WED 07/30/97 02:17 Page:23

 **** Variables and constants ****


   No code generated for procedure KV_VDH_D .
   Procedure KV_VDH_D requires 4 words of local(AUTO) storage.

    No errors detected in file KV_VDH_D.:E05TSI    .
PL6.E3A0      #001=KV_VDH_D File=KV_VDH_D.:E05TSI                                WED 07/30/97 02:17 Page:24
          *** CROSS REFERENCE LISTING ***
**     DENOTES     IDENTIFIER DEFINITION
<<                 IDENTIFIER'S VALUE SET
>>                 IDENTIFIER'S VALUE USED
<>                 IDENTIFIER SET AND/OR USED
--                 IDENTIFIER REFERENCED
PL6.E3A0      #001=KV_VDH_D File=KV_VDH_D.:E05TSI                                WED 07/30/97 02:17 Page:25
          MINI XREF LISTING

KV_VDH_CNC.LCLENDPNTID.TERM
      3939**DCL      3948--REDEF
KV_VDH_DCLLCLPST.PHSPST
      4415**DCL      4420--REDEF
KV_VDH_GETPRM.MAXBYTSIZ
      4732**DCL      4732--REDEF
KV_VDH_OTPMRK.DAT.ID
      5089**DCL      5089--REDEF    5090--REDEF
KV_VDH_PST.PSTVAL
      5159**DCL      5164--REDEF
KV_VDH_PST_0_VRT.PSTVAL
      6323**DCL      6328--REDEF
KV_VDH_PST_ABS.PSTVAL
      5243**DCL      5248--REDEF
KV_VDH_PST_ABS_VRT.PSTVAL
      5656**DCL      5661--REDEF
KV_VDH_PST_ABS_VRT_NO_SCR.PSTVAL
      5741**DCL      5746--REDEF
KV_VDH_PST_BS_FRM.PSTVAL
      7065**DCL      7070--REDEF
KV_VDH_PST_BS_VRT.PSTVAL
      6157**DCL      6162--REDEF
KV_VDH_PST_CR.PSTVAL
      6405**DCL      6410--REDEF
KV_VDH_PST_CR_VRT.PSTVAL
      6487**DCL      6492--REDEF
KV_VDH_PST_ENDFRM.PSTVAL
      7148**DCL      7153--REDEF
KV_VDH_PST_HOM.PSTVAL
      5325**DCL      5330--REDEF
KV_VDH_PST_LF.PSTVAL
      6569**DCL      6574--REDEF
PL6.E3A0      #001=KV_VDH_D File=KV_VDH_D.:E05TSI                                WED 07/30/97 02:17 Page:26
KV_VDH_PST_LF_VRT.PSTVAL
      6651**DCL      6656--REDEF
KV_VDH_PST_NEWLIN.PSTVAL
      6816**DCL      6821--REDEF
KV_VDH_PST_NEWLIN_VRT.PSTVAL
      6899**DCL      6904--REDEF
KV_VDH_PST_RLT.PSTVAL
      6075**DCL      6080--REDEF
KV_VDH_PST_SPCFRM.PSTVAL
      6982**DCL      6987--REDEF
KV_VDH_PST_SPC_VRT.PSTVAL
      6240**DCL      6245--REDEF
KV_VDH_PST_SRD.PSTVAL
      5407**DCL      5412--REDEF
KV_VDH_PST_VRT.PSTVAL
      5993**DCL      5998--REDEF
KV_VDH_PST_VRTSRD.PSTVAL
      5490**DCL      5495--REDEF
KV_VDH_PST_VRTVRT.PSTVAL
      5573**DCL      5578--REDEF
KV_VDH_PST_WHTSPC.PSTVAL
      5825**DCL      5830--REDEF
KV_VDH_PST_WHTSPC_CR.PSTVAL
      5909**DCL      5914--REDEF
KV_VDH_PST_WRAP.PSTVAL
      6734**DCL      6739--REDEF
