PL6.E3A0      #001=KXP$PACKET File=KXP$PACKET.:E05TSI                            WED 07/30/97 02:24 Page:549

     4536    26786    5                CALL Y$ER2;

  26786   2 001E99  E3C0 0A0D                            LNJ,B6   s:0,PREL
          2 001E9B       0001                            DC       s:26787,PREL

     4537    26787    5                BYTE_INDEX = BYTE_INDEX + 1;

  26787   2 001E9C  8AC7 0032                            INC      BYTE_INDEX,AUTO

     4538    26788    5                I = I + 1;

  26788   2 001E9E  8AC7 0052                            INC      I,AUTO
          2 001EA0  0F81 000A                            B        s:26797,PREL

     4539    26789
     4540    26790    5                SELECT ( ELSE );

     4541    26791        /*
     4542    26792           Invalid facility. Set byte_index to end of packet.
     4543    26793        */
     4544    26794    5             BYTE_INDEX = KX$DATA.CNT + LENGTHC(KX$DATA);

  26794   2 001EA2  D846 0007                            LDR,R5   7,B6
          2 001EA4  5E10                                 ADV,R5   16
          2 001EA5  DF47 0032                            STR,R5   BYTE_INDEX,AUTO

     4545    26795    5             I = FCLLNG;

  26795   2 001EA7  C847 0054                            LDR,R4   FCLLNG,AUTO
          2 001EA9  CF47 0052                            STR,R4   I,AUTO

     4546    26796    5             END;   /* of select */

     4547    26797    4          END;    /* do loop */

  26797   2 001EAB  8AC7 0052                            INC      I,AUTO
PL6.E3A0      #001=KXP$PACKET File=KXP$PACKET.:E05TSI                            WED 07/30/97 02:24 Page:550
          2 001EAD  E847 0052                            LDR,R6   I,AUTO
          2 001EAF  E947 0054                            CMR,R6   FCLLNG,AUTO
          2 001EB1  0381 FF99                            BLE      s:26750,PREL
          2 001EB3  0F81 008C                            B        s:26868,PREL

     4548    26798
     4549    26799    3          SELECT ( %Y_ID_CLEAR_C# );

     4550    26800
     4551    26801    3          PEVENT = %Y_EV_CLEAR_C#;

  26801   2 001EB5  2C0D                                 LDV,R2   13
          2 001EB6  AF47 002C                            STR,R2   PEVENT,AUTO

     4552    26802    3          TEMP0 = 0;

  26802   2 001EB8  8747 002A                            CL       TEMP0,AUTO

     4553    26803    3          GOTO DECODE_CLR;

  26803   2 001EBA  0F81 FF25                            B        s:26711,PREL

     4554    26804
     4555    26805    3          SELECT ( %Y_ID_INT# );

     4556    26806
     4557    26807        /* Check the length */
     4558    26808
     4559    26809    3          IF ( IN_PKTHDR.GFI ~= %GFI_EXT AND DATACNT ~= %L1 AND DATACNT ~= %L0 )

  26809   2 001EBC  A800 0000 0000  01                   LDR,R2   IN_PKTHDR
          2 001EBF  204C                                 SOR,R2   12
          2 001EC0  A570 0003                            AND,R2   3,IMO
          2 001EC2  2D02                                 CMV,R2   2
          2 001EC3  0901 000E                            BE       s:26813,PREL
          2 001EC5  9847 003F                            LDR,R1   DATACNT,AUTO
          2 001EC7  1D06                                 CMV,R1   6
PL6.E3A0      #001=KXP$PACKET File=KXP$PACKET.:E05TSI                            WED 07/30/97 02:24 Page:551
          2 001EC8  0901 0009                            BE       s:26813,PREL
          2 001ECA  1D05                                 CMV,R1   5
          2 001ECB  0901 0006                            BE       s:26813,PREL

     4560    26810    3             THEN
     4561    26811    3                PEVENT = %Y_EV_UNK_TYPE#;

  26811   2 001ECD  6C15                                 LDV,R6   21
          2 001ECE  EF47 002C                            STR,R6   PEVENT,AUTO
          2 001ED0  0F81 006F                            B        s:26868,PREL

     4562    26812    3             ELSE
     4563    26813    3                PEVENT = %Y_EV_INT#;

  26813   2 001ED2  1C11                                 LDV,R1   17
          2 001ED3  9F47 002C                            STR,R1   PEVENT,AUTO
          2 001ED5  0F81 006A                            B        s:26868,PREL

     4564    26814
     4565    26815    3          SELECT ( %Y_ID_INT_C# );

     4566    26816
     4567    26817    3          IF KX$DATA.CNT ~= %L0

  26817   2 001ED7  DCC7 0006                            LDB,B5   DAT$,AUTO
          2 001ED9  A845 0007                            LDR,R2   7,B5
          2 001EDB  2D05                                 CMV,R2   5
          2 001EDC  0901 0006                            BE       s:26821,PREL

     4568    26818    3             THEN
     4569    26819    3                PEVENT = %Y_EV_UNK_TYPE#;

  26819   2 001EDE  1C15                                 LDV,R1   21
          2 001EDF  9F47 002C                            STR,R1   PEVENT,AUTO
          2 001EE1  0F81 005E                            B        s:26868,PREL

     4570    26820    3             ELSE
PL6.E3A0      #001=KXP$PACKET File=KXP$PACKET.:E05TSI                            WED 07/30/97 02:24 Page:552
     4571    26821    3                IF KX$L3.STATE.CURRENT = %Y_ST_DATA# AND NOT KX$L3.INTPND

  26821   2 001EE3  CCC7 0008                            LDB,B4   L3$,AUTO
          2 001EE5  92C4 0031                            LLH,R1   49,B4
          2 001EE7  1D09                                 CMV,R1   9
          2 001EE8  0981 0016                            BNE      s:26831,PREL
          2 001EEA  82C4 0029                            LB,'4000'X        41,B4
          2 001EEC       4000
          2 001EED  0501 0011                            BBT      s:26831,PREL

     4572    26822    3                   THEN
     4573    26823    4                      DO;

     4574    26824    4                         ERCOD = INV_INTC ;

  26824   2 001EEF  8C80 0000 03BC  00                   LDI      INV_INTC
          2 001EF2  8D47 0022                            SDI      ERCOD,AUTO

     4575    26825    4                         CALL Y$ER ;

  26825   2 001EF4  E3C0 09DA                            LNJ,B6   s:0,PREL
          2 001EF6       0001                            DC       s:26827,PREL

     4576    26826
     4577    26827    4                         DIAG = %KX_RST_DIAG_UIC#;

  26827   2 001EF7  6C2B                                 LDV,R6   43
          2 001EF8  EF47 002F                            STR,R6   DIAG,AUTO

     4578    26828    4                         PEVENT = %Y_EV_BAD_PRS#;

  26828   2 001EFA  5C17                                 LDV,R5   23
          2 001EFB  DF47 002C                            STR,R5   PEVENT,AUTO

     4579    26829    4                      END;

  26829   2 001EFD  0F81 0042                            B        s:26868,PREL
PL6.E3A0      #001=KXP$PACKET File=KXP$PACKET.:E05TSI                            WED 07/30/97 02:24 Page:553

     4580    26830    3                   ELSE
     4581    26831    3                      PEVENT = %Y_EV_INT_C#;

  26831   2 001EFF  6C12                                 LDV,R6   18
          2 001F00  EF47 002C                            STR,R6   PEVENT,AUTO
          2 001F02  0F81 003D                            B        s:26868,PREL

     4582    26832
     4583    26833    3          SELECT ( %Y_ID_RESET# );

     4584    26834
     4585    26835    3          IF DATACNT < %L1

  26835   2 001F04  A847 003F                            LDR,R2   DATACNT,AUTO
          2 001F06  2D06                                 CMV,R2   6
          2 001F07  0281 0008                            BGE      s:26842,PREL

     4586    26836    3             THEN
     4587    26837    4                DO;

     4588    26838    4                   PEVENT = %Y_EV_SHR_PKT#;

  26838   2 001F09  1C1A                                 LDV,R1   26
          2 001F0A  9F47 002C                            STR,R1   PEVENT,AUTO

     4589    26839    4                   RETURN;

  26839   2 001F0C  ECC7 004E                            LDB,B6   TERMID+8,AUTO
          2 001F0E  C3C6 0001                            LNJ,B4   1,B6

     4590    26840    4                END;
     4591    26841    3             ELSE
     4592    26842    3                PEVENT = %Y_EV_RESET#;

  26842   2 001F10  1C13                                 LDV,R1   19
          2 001F11  9F47 002C                            STR,R1   PEVENT,AUTO
PL6.E3A0      #001=KXP$PACKET File=KXP$PACKET.:E05TSI                            WED 07/30/97 02:24 Page:554

     4593    26843    3          KX_STATS_X25.RESETS = KX_STATS_X25.RESETS + 1;

  26843   2 001F13  8A80 0000 0041  xsym                 INC      KX_STATS_X25+65
          2 001F16  8E80 0000 0040  xsym                 CAD      KX_STATS_X25+64

     4594    26844    3          IF ( KX$L3.PVC AND DATACNT > %L0 )

  26844   2 001F19  DCC7 0008                            LDB,B5   L3$,AUTO
          2 001F1B  82C5 0029                            LB,'0100'X        41,B5
          2 001F1D       0100
          2 001F1E  0581 0021                            BBF      s:26868,PREL
          2 001F20  2D05                                 CMV,R2   5
          2 001F21  0381 001E                            BLE      s:26868,PREL

     4595    26845        /*
     4596    26846           For PVCs, we need special case handling of reset packets with cause equal to
     4597    26847           out-of-order or remote-DTE-operational.
     4598    26848        */
     4599    26849    3             THEN
     4600    26850    4                DO;

     4601    26851    4                   IF IN_PKTHDR.CAUSE = %KX_RST_CAUSE_OOO#

  26851   2 001F23  E800 0000 0001  01                   LDR,R6   IN_PKTHDR+1
          2 001F26  E570 00FF                            AND,R6   255,IMO
          2 001F28  6D01                                 CMV,R6   1
          2 001F29  0981 0006                            BNE      s:26855,PREL

     4602    26852    4                      THEN
     4603    26853    4                         PEVENT = %Y_EV_RPVCDWN#; /* remote PVC out-of-order */

  26853   2 001F2B  1C0C                                 LDV,R1   12
          2 001F2C  9F47 002C                            STR,R1   PEVENT,AUTO
          2 001F2E  0F81 0011                            B        s:26868,PREL

     4604    26854    4                      ELSE
PL6.E3A0      #001=KXP$PACKET File=KXP$PACKET.:E05TSI                            WED 07/30/97 02:24 Page:555
     4605    26855    4                         IF IN_PKTHDR.CAUSE = %KX_RST_CAUSE_RDO#

  26855   2 001F30  6D09                                 CMV,R6   9
          2 001F31  0981 000E                            BNE      s:26868,PREL

     4606    26856    4                            THEN
     4607    26857    4                               PEVENT = %Y_EV_RPVCUP#;  /* remote PVC up */

  26857   2 001F33  1C0A                                 LDV,R1   10
          2 001F34  9F47 002C                            STR,R1   PEVENT,AUTO

     4608    26858    4                END;

  26858   2 001F36  0F81 0009                            B        s:26868,PREL

     4609    26859
     4610    26860    3          SELECT ( %Y_ID_RESET_C# );

     4611    26861
     4612    26862    3          PEVENT = %Y_EV_RESET_C#;

  26862   2 001F38  2C14                                 LDV,R2   20
          2 001F39  AF47 002C                            STR,R2   PEVENT,AUTO
          2 001F3B  0F81 0004                            B        s:26868,PREL

     4613    26863
     4614    26864    3          SELECT ( ELSE );

     4615    26865    3       PEVENT = %Y_EV_UNK_TYPE#;

  26865   2 001F3D  2C15                                 LDV,R2   21
          2 001F3E  AF47 002C                            STR,R2   PEVENT,AUTO

     4616    26866
     4617    26867    3       END /* SELECT */;

     4618    26868    2   END /* SUBROUTINE */;
PL6.E3A0      #001=KXP$PACKET File=KXP$PACKET.:E05TSI                            WED 07/30/97 02:24 Page:556

  26868   2 001F40  ECC7 004E                            LDB,B6   TERMID+8,AUTO
          2 001F42  C3C6 0001                            LNJ,B4   1,B6

     4619    26869
     4620    26870        %EJECT;
PL6.E3A0      #001=KXP$PACKET File=KXP$PACKET.:E05TSI                            WED 07/30/97 02:24 Page:557
     4621    26871        /*I* NAME: Y$START_L3S,  Y$STOP_L3S */
     4622    26872        /*I* PURPOSE: Report START or STOP to all the level 3s */
     4623    26873        /*I* CALL: CALL Y$? */
     4624    26874        /*I* INPUT: L2$  ->  line context block*/
     4625    26875        /*I* OUTPUT: None */
     4626    26876
     4627    26877    1   Y$START_L3S: PROC;

  26877   2 001F44  EFC7 004E            Y$START_L3S     STB,B6   TERMID+8,AUTO

     4628    26878
     4629    26879    2   DCL T$ PTR;
     4630    26880        %KX$LINKDEV ( STCLASS = "BASED(T$)" );
     4631    26907        %FPT_X25 ( FPTN = FPT_L3, STCLASS = );
     4632    26951    2   DCL EVENT UBIN;
     4633    26952        %KNH$MESS ( FPTN = KNH_MESS, STCLASS = );
     4634    27001    2   DCL 1 KV@SNDCQ ALIGNED,
     4635    27002    2         2 MSG_ (0:5),
     4636    27003    2           3 ADR$ PTR,
     4637    27004    2           3 BYTX UBIN WORD,
     4638    27005    2           3 BYTSIZ UBIN WORD;
     4639    27006        %FPT_CONNECT ( FPTN = FPT@CONNECT, ADRTYP = NET, STCLASS = );
     4640    27177        %FPT_TERM ( FPTN = FPT@TERM, STCLASS = );
     4641    27199    2   DCL TRY_SNDCQ BIT(1);
     4642    27200        %FPT_CONNECT ( FPTN = FPT_CONNECT_C, STCLASS = SYMREF );
     4643    27269        %FPT_TERM ( FPTN = FPT_TERM_C, STCLASS = SYMREF );
     4644    27291        %KV$VDH_DSC ( NAME = KV@VDH_DSC, STCLASS = AUTO );
     4645    27327        %KV$VDH_DSC ( NAME = KXX_VDH_DSC, STCLASS = SYMREF );
     4646    27363        %KV@USRENT;
     4647    27383        %KV$VDI ( STCLASS = BASED );
     4648    27454        %KV$USRPRM;
     4649    27505        %KV$STT;
     4650    27899        %KV$PTR;
     4651    27942
     4652    27943        /* Report START */
     4653    27944
     4654    27945    2       EVENT = %KX_P_EV_START#;
PL6.E3A0      #001=KXP$PACKET File=KXP$PACKET.:E05TSI                            WED 07/30/97 02:24 Page:558

  27945   2 001F46  6C01                                 LDV,R6   1
          2 001F47  EF47 0062                            STR,R6   EVENT,AUTO

     4655    27946    2       IF KX$L2.DSTSNPA.LNG ~= 0

  27946   2 001F49  DCC7 000C                            LDB,B5   L2$,AUTO
          2 001F4B  D2C5 0062                            LLH,R5   98,B5
          2 001F4D  5901 003B                            BEZ,R5   s:27967,PREL

     4656    27947    2          THEN
     4657    27948    3             DO;

     4658    27949    3                IF KX$L2.TERM_ALTRET

  27949   2 001F4F  82C5 0067                            LB,'0040'X        103,B5
  27949   2 001F51       0040
          2 001F52  0581 0008                            BBF      s:27957,PREL

     4659    27950    3                   THEN
     4660    27951    4                      DO;

     4661    27952    4                         KX$L2.TERM_ALTRET = '0'B;

  27952   2 001F54  8845 0067                            LBF,'0040'X       103,B5
  27952   2 001F56       0040

     4662    27953    4                         TRY_SNDCQ = '0'B;

  27953   2 001F57  8747 00B4                            CL       TRY_SNDCQ,AUTO

     4663    27954    4                      END;

  27954   2 001F59  0F81 0031                            B        s:27971,PREL

     4664    27955    3                   ELSE
     4665    27956    4                      DO;
PL6.E3A0      #001=KXP$PACKET File=KXP$PACKET.:E05TSI                            WED 07/30/97 02:24 Page:559

     4666    27957    4                         FPT@CONNECT = FPT_CONNECT_C;

  27957   2 001F5B  CB80 0000 0000  xsym                 LAB,B4   FPT_CONNECT_C
          2 001F5E  4C26                                 LDV,R4   38
          2 001F5F  5C5A                                 LDV,R5   90
          2 001F60  0021                                 ALR      ;
          2 001F61       4004 0000                                ALPHANUM(0,B4,,R4),;
          2 001F63       4007 0083                                ALPHANUM(FPT@CONNECT,AUTO,,R5,FILL)

     4667    27958    4                         FPT@CONNECT.RLCID.FLAGS.VIRCIR = '0'B;

  27958   2 001F65  437F                                 CSYNC    s:27957+9,SPREL
          2 001F66  8847 0091                            LBF,'4000'X       FPT@CONNECT+14,AUTO
          2 001F68       4000

     4668    27959    4                         FPT@CONNECT.RLCID.NODE = %K_CNC_LINK#;

  27959   2 001F69  8947 0090                            LBT,'FF00'X       FPT@CONNECT+13,AUTO
  27959   2 001F6B       FF00

     4669    27960    4                         FPT@CONNECT.DSTSNPA = KX$L2.DSTSNPA;

  27960   2 001F6C  ABC5 0062                            LAB,B2   98,B5
          2 001F6E  2C00                                 LDV,R2   0
          2 001F6F  6C08                                 LDV,R6   8
          2 001F70  BBC7 00AC                            LAB,B3   FPT@CONNECT+41,AUTO
          2 001F72  3C00                                 LDV,R3   0
          2 001F73  0008                                 MMM

     4670    27961    4                         FPT@CONNECT.SERVICE = KX$L2.QOS;

  27961   2 001F74  ECC7 000C                            LDB,B6   L2$,AUTO
          2 001F76  E2C6 0067                            LLH,R6   103,B6
          2 001F78  EAC7 0093                            SRM,R6,'00FF'X    FPT@CONNECT+16,AUTO
          2 001F7A       00FF

PL6.E3A0      #001=KXP$PACKET File=KXP$PACKET.:E05TSI                            WED 07/30/97 02:24 Page:560
     4671    27962    4                         FPT@CONNECT.TERMINAL_ID = KX$L2.CHN$->KH$CHN.TERMID;

  27962   2 001F7B  DCC6 0002                            LDB,B5   2,B6
          2 001F7D  AB85                                 LAB,B2   ,B5
          2 001F7E  2C24                                 LDV,R2   36
          2 001F7F  6C10                                 LDV,R6   16
          2 001F80  BBC7 0088                            LAB,B3   FPT@CONNECT+5,AUTO
          2 001F82  3C00                                 LDV,R3   0
          2 001F83  0008                                 MMM

     4672    27963    4                         TRY_SNDCQ = '1'B;

  27963   2 001F84  8947 00B4                            LBT,'8000'X       TRY_SNDCQ,AUTO
  27963   2 001F86       8000

     4673    27964    4                      END;

     4674    27965    3             END;

  27965   2 001F87  0F81 0003                            B        s:27971,PREL

     4675    27966    2          ELSE
     4676    27967    2             TRY_SNDCQ = '0'B;

  27967   2 001F89  8747 00B4                            CL       TRY_SNDCQ,AUTO

     4677    27968        /*
     4678    27969           Try to log on all LINKDEVs
     4679    27970        */
     4680    27971    2       T$ = KX$L2.DVC_HEAD$;

  27971   2 001F8B  ECC7 000C                            LDB,B6   L2$,AUTO
          2 001F8D  DCC6 0068                            LDB,B5   104,B6
          2 001F8F  DFC7 0050                            STB,B5   T$,AUTO

     4681    27972    3       DO WHILE ( T$ ~= ADDR(NIL) );

PL6.E3A0      #001=KXP$PACKET File=KXP$PACKET.:E05TSI                            WED 07/30/97 02:24 Page:561
  27972   2 001F91  0F81 0024                            B        s:27985,PREL

     4682    27973    3          IF KX$LINKDEV.VDI$ = ADDR(NIL)

  27973   2 001F93  ECC7 0050                            LDB,B6   T$,AUTO
          2 001F95  8DC6 0002                            CMN      2,B6
          2 001F97  0981 0015                            BNE      s:27983,PREL

     4683    27974    3             THEN
     4684    27975    4                DO;

     4685    27976    4                   CALL KXX$INTCNC ( KX$LINKDEV ) WHENALTRETURN

  27976   2 001F99  BBC7 0050                            LAB,B3   T$,AUTO
          2 001F9B  CBF0 0100                            LAB,B4   256,IMO
          2 001F9D  E380 0000 0000  xent                 LNJ,B6   KXX$INTCNC
          2 001FA0       0003                            DC       s:27978,PREL
          2 001FA1  0F81 0009                            B        s:27981,PREL

     4686    27977    5                         DO;

     4687    27978    5                            ERCOD = DEVLGNFAL;

  27978   2 001FA3  8C80 0000 03A4  00                   LDI      DEVLGNFAL
          2 001FA6  8D47 0022                            SDI      ERCOD,AUTO

     4688    27979    5                            CALL Y$ER;

  27979   2 001FA8  E3C0 0926                            LNJ,B6   s:0,PREL
          2 001FAA       0001                            DC       s:27981,PREL

     4689    27980    5                         END;

     4690    27981    4                END;

  27981   2 001FAB  0F81 0004                            B        s:27984,PREL

PL6.E3A0      #001=KXP$PACKET File=KXP$PACKET.:E05TSI                            WED 07/30/97 02:24 Page:562
     4691    27982    3             ELSE
     4692    27983    3                KX$LINKDEV.RECNC = '1'B; /* assume it's doing disconnect */

  27983   2 001FAD  8946 0017                            LBT,'0008'X       23,B6
  27983   2 001FAF       0008

     4693    27984    3          T$ = KX$LINKDEV.FLNK$;

  27984   2 001FB0  ECC7 0050                            LDB,B6   T$,AUTO
          2 001FB2  DCC6 0006                            LDB,B5   6,B6
          2 001FB4  DFC7 0050                            STB,B5   T$,AUTO

     4694    27985    3       END;

  27985   2 001FB6  8DC7 0050                            CMN      T$,AUTO
          2 001FB8  09DB                                 BNE      s:27973,SPREL

     4695    27986
     4696    27987    2       GOTO SUBCOMMON;

  27987   2 001FB9  0F81 009B                            B        s:28055,PREL

     4697    27988
     4698    27989
     4699    27990    2   Y$DIED_L3S: ENTRY;

  27990   2 001FBB  EFC7 004E            Y$DIED_L3S      STB,B6   TERMID+8,AUTO

     4700    27991
     4701    27992    2       EVENT = %KX_P_EV_DIED#;

  27992   2 001FBD  6C03                                 LDV,R6   3
          2 001FBE  EF47 0062                            STR,R6   EVENT,AUTO

     4702    27993    2       GOTO L_DIED;

  27993   2 001FC0  0F81 0006                            B        s:28001,PREL
PL6.E3A0      #001=KXP$PACKET File=KXP$PACKET.:E05TSI                            WED 07/30/97 02:24 Page:563

     4703    27994
     4704    27995    2   Y$STOP_L3S: ENTRY;

  27995   2 001FC2  EFC7 004E            Y$STOP_L3S      STB,B6   TERMID+8,AUTO

     4705    27996
     4706    27997        /* Report STOP */
     4707    27998
     4708    27999    2       EVENT = %KX_P_EV_STOP#;

  27999   2 001FC4  6C02                                 LDV,R6   2
          2 001FC5  EF47 0062                            STR,R6   EVENT,AUTO

     4709    28000    2   L_DIED:
     4710    28001    2       IF KX$L2.LDCTX ~= 0

  28001   2 001FC7  DCC7 000C            L_DIED          LDB,B5   L2$,AUTO
          2 001FC9  D845 0066                            LDR,R5   102,B5
          2 001FCB  5901 0021                            BEZ,R5   s:28018,PREL

     4711    28002    2          THEN
     4712    28003    3             DO;

     4713    28004    3                IF KX$L2.INIT_ALTRET

  28004   2 001FCD  82C5 0067                            LB,'0080'X        103,B5
  28004   2 001FCF       0080
          2 001FD0  0581 0008                            BBF      s:28012,PREL

     4714    28005    3                   THEN
     4715    28006    4                      DO;

     4716    28007    4                         KX$L2.INIT_ALTRET = '0'B;

  28007   2 001FD2  8845 0067                            LBF,'0080'X       103,B5
  28007   2 001FD4       0080
PL6.E3A0      #001=KXP$PACKET File=KXP$PACKET.:E05TSI                            WED 07/30/97 02:24 Page:564

     4717    28008    4                         TRY_SNDCQ = '0'B;

  28008   2 001FD5  8747 00B4                            CL       TRY_SNDCQ,AUTO

     4718    28009    4                      END;

  28009   2 001FD7  0F81 0017                            B        s:28022,PREL

     4719    28010    3                   ELSE
     4720    28011    4                      DO;

     4721    28012    4                         FPT@TERM = FPT_TERM_C;

  28012   2 001FD9  AB80 0000 0000  xsym                 LAB,B2   FPT_TERM_C
          2 001FDC  2C00                                 LDV,R2   0
          2 001FDD  6C08                                 LDV,R6   8
          2 001FDE  BBC7 00B0                            LAB,B3   FPT@TERM,AUTO
          2 001FE0  3C00                                 LDV,R3   0
          2 001FE1  0008                                 MMM

     4722    28013    4                         FPT@TERM.RLCID.LDCTX = KX$L2.LDCTX;

  28013   2 001FE2  ECC7 000C                            LDB,B6   L2$,AUTO
          2 001FE4  E846 0066                            LDR,R6   102,B6
          2 001FE6  EF47 00B1                            STR,R6   FPT@TERM+1,AUTO

     4723    28014    4                         TRY_SNDCQ = '1'B;

  28014   2 001FE8  8947 00B4                            LBT,'8000'X       TRY_SNDCQ,AUTO
  28014   2 001FEA       8000

     4724    28015    4                      END;

     4725    28016    3             END;

  28016   2 001FEB  0F81 0003                            B        s:28022,PREL
PL6.E3A0      #001=KXP$PACKET File=KXP$PACKET.:E05TSI                            WED 07/30/97 02:24 Page:565

     4726    28017    2          ELSE
     4727    28018    2             TRY_SNDCQ = '0'B;

  28018   2 001FED  8747 00B4                            CL       TRY_SNDCQ,AUTO

     4728    28019        /*
     4729    28020           Log off all LINKDEVs
     4730    28021        */
     4731    28022    2       T$ = KX$L2.DVC_HEAD$;

  28022   2 001FEF  ECC7 000C                            LDB,B6   L2$,AUTO
          2 001FF1  DCC6 0068                            LDB,B5   104,B6
          2 001FF3  DFC7 0050                            STB,B5   T$,AUTO

     4732    28023    2       KV@VDH_DSC = KXX_VDH_DSC;

  28023   2 001FF5  8C80 0000 0000  xsym                 LDI      KXX_VDH_DSC
          2 001FF8  8D47 00B5                            SDI      KV@VDH_DSC,AUTO

     4733    28024    3       DO WHILE ( T$ ~= ADDR(NIL) );

  28024   2 001FFA  0F81 0056                            B        s:28068,PREL

     4734    28025    3          IF KX$LINKDEV.VDI$ ~= ADDR(NIL)

  28025   2 001FFC  ECC7 0050                            LDB,B6   T$,AUTO
          2 001FFE  8DC6 0002                            CMN      2,B6
          2 002000  0901 004A                            BE       s:28066,PREL

     4735    28026    3             THEN
     4736    28027    4                DO;

     4737    28028                        %KV$USRENT ( VDI$ = KX$LINKDEV.VDI$, DFR$ = L_DFR,
     4738    28029                        SCHRSN = %KV_SCHRSN_DFR3 );
             28042    4           KX$LINKDEV.VDI$->KV$VDI.USRPRM$->KV$USRPRM.STT$->KV$STT.USRENTCNT =
             28042                    KX$LINKDEV.VDI$->KV$VDI.USRPRM$->KV$USRPRM.STT$->KV$STT.USRENTCNT + 1;
PL6.E3A0      #001=KXP$PACKET File=KXP$PACKET.:E05TSI                            WED 07/30/97 02:24 Page:566

  28042   2 002002  DCC6 0002                            LDB,B5   2,B6
          2 002004  CCC5 0008                            LDB,B4   8,B5
          2 002006  BCC4 0033                            LDB,B3   51,B4
          2 002008  8AC3 0039                            INC      57,B3
          2 00200A  8EC3 0038                            CAD      56,B3

             28043    5           IF NOT KX$LINKDEV.VDI$->KV$VDI.BSY THEN DO;

  28043   2 00200C  DCC6 0002                            LDB,B5   2,B6
          2 00200E  82C5 0019                            LB,'0080'X        25,B5
          2 002010       0080
          2 002011  0501 0012                            BBT      s:28049,PREL

             28044    5              KX$LINKDEV.VDI$->KV$VDI.BSY = '1'B;

  28044   2 002013  8945 0019                            LBT,'0080'X       25,B5
  28044   2 002015       0080

             28045    5              KV@USRENT.SVDPTR$ = KV$PTR$;

  28045   2 002016  DC80 0000 0000  xsym                 LDB,B5   KV$PTR$
          2 002019  DFC7 00B7                            STB,B5   KV@USRENT,AUTO

             28046    5              KV$PTR$ = KX$LINKDEV.VDI$->KV$VDI.ASNINPPTR$;

  28046   2 00201B  CCC6 0002                            LDB,B4   2,B6
          2 00201D  BCC4 0006                            LDB,B3   6,B4
          2 00201F  BF80 0000 0000  xsym                 STB,B3   KV$PTR$

             28047    5              END;                         /* ELSE IF ~BSY                       */

  28047   2 002022  0F81 0010                            B        s:28055,PREL

             28048    5           ELSE DO;

             28049    5              KX$LINKDEV.VDI$->KV$VDI.DFR.USR(3) = '1'B;
PL6.E3A0      #001=KXP$PACKET File=KXP$PACKET.:E05TSI                            WED 07/30/97 02:24 Page:567

  28049   2 002024  8945 0018                            LBT,'1000'X       24,B5
  28049   2 002026       1000

             28050    5           KX$LINKDEV.VDI$->KV$VDI.USRPRM$->KV$USRPRM.STT$->KV$STT.USRENTDFRCNT =
             28050                   KX$LINKDEV.VDI$->KV$VDI.USRPRM$->KV$USRPRM.STT$->KV$STT.USRENTDFRCNT + 1
             28050                    ;

  28050   2 002027  DCC6 0002                            LDB,B5   2,B6
          2 002029  CCC5 0008                            LDB,B4   8,B5
          2 00202B  BCC4 0033                            LDB,B3   51,B4
          2 00202D  8AC3 003B                            INC      59,B3
          2 00202F  8EC3 003A                            CAD      58,B3

             28051    5              GOTO L_DFR;

  28051   2 002031  0F81 0019                            B        s:28066,PREL

             28052    5              END;                         /* END IF                             */
     4739    28055    4                   CALL KVV$VDI ( KV@VDH_DSC );

  28055   2 002033  ABC7 00B5                            LAB,B2   KV@VDH_DSC,AUTO
          2 002035  AFC7 00BC                            STB,B2   KV@USRENT+5,AUTO
          2 002037  BBC7 00BC                            LAB,B3   KV@USRENT+5,AUTO
          2 002039  CBF0 0100                            LAB,B4   256,IMO
          2 00203B  E380 0000 0000  xent                 LNJ,B6   KVV$VDI
          2 00203E       0001                            DC       s:28062,PREL

     4740    28056                        %KV$USREXT ( VDI$ = KX$LINKDEV.VDI$ );
             28062    4           KV$PTR.VDI$->KV$VDI.BSY = '0'B;

  28062   2 00203F  EC80 0000 0000  xsym                 LDB,B6   KV$PTR$
          2 002042  DC86                                 LDB,B5   ,B6
          2 002043  8845 0019                            LBF,'0080'X       25,B5
          2 002045       0080

             28064    4           KV$PTR$ = KV@USRENT.SVDPTR$;
PL6.E3A0      #001=KXP$PACKET File=KXP$PACKET.:E05TSI                            WED 07/30/97 02:24 Page:568

  28064   2 002046  DCC7 00B7                            LDB,B5   KV@USRENT,AUTO
          2 002048  DF80 0000 0000  xsym                 STB,B5   KV$PTR$

     4741    28066    4                END;

     4742    28067    3   L_DFR: T$ = KX$LINKDEV.FLNK$;

  28067   2 00204B  ECC7 0050            L_DFR           LDB,B6   T$,AUTO
          2 00204D  DCC6 0006                            LDB,B5   6,B6
          2 00204F  DFC7 0050                            STB,B5   T$,AUTO

     4743    28068    3       END;

  28068   2 002051  8DC7 0050                            CMN      T$,AUTO
          2 002053  0981 FFA8                            BNE      s:28025,PREL

  28055   2                              SUBCOMMON       null
     4744    28069
     4745    28070    2   SUBCOMMON: ;                            /* THERE MUST BE AN ALTENTRY ABOVE ME */
     4746    28071
     4747    28072    2       IF TRY_SNDCQ

  28072   2 002055  89C7 00B4            SUBCOMMON       CMZ      TRY_SNDCQ,AUTO
          2 002057  0881 0066                            BAGE     s:28111,PREL

     4748    28073    2          THEN
     4749    28074    3             DO;

     4750    28075    3                KNH_MESS = '0'B;

  28075   2 002059  5C10                                 LDV,R5   16
          2 00205A  0021                                 ALR      ;
          2 00205B       4178 0000                                ALPHANUM('0000'X,IMO,,1),;
          2 00205D       4007 0063                                ALPHANUM(KNH_MESS,AUTO,,R5,FILL)

     4751    28076    3                KNH_MESS.LDCTX = KX$L2.LDCTX;
PL6.E3A0      #001=KXP$PACKET File=KXP$PACKET.:E05TSI                            WED 07/30/97 02:24 Page:569

  28076   2 00205F  ECC7 000C                            LDB,B6   L2$,AUTO
          2 002061  437F                                 CSYNC    s:28076+1,SPREL
          2 002062  E846 0066                            LDR,R6   102,B6
          2 002064  EF47 0064                            STR,R6   KNH_MESS+1,AUTO

     4752    28077    3                KNH_MESS.UID$ = L2$;

  28077   2 002066  EFC7 0065                            STB,B6   KNH_MESS+2,AUTO

     4753    28078    3                KNH_MESS.UIDX.CQ_HNDID = %KV#CQ_HNDID_SL;

  28078   2 002068  4C01                                 LDV,R4   1
          2 002069  C7C7 0065                            STH,R4   KNH_MESS+2,AUTO

     4754    28079    3                KV@SNDCQ = '0'B;

  28079   2 00206B  5C30                                 LDV,R5   48
          2 00206C  0021                                 ALR      ;
          2 00206D       4178 0000                                ALPHANUM('0000'X,IMO,,1),;
          2 00206F       4007 006B                                ALPHANUM(KV@SNDCQ,AUTO,,R5,FILL)

     4755    28080    3                KV@SNDCQ.MSG_.ADR$ (0) = ADDR ( KNH_MESS );

  28080   2 002071  CBC7 0063                            LAB,B4   KNH_MESS,AUTO
          2 002073  437F                                 CSYNC    s:28080+1,SPREL
          2 002074  CFC7 006B                            STB,B4   KV@SNDCQ,AUTO

     4756    28081    3                KV@SNDCQ.MSG_.BYTSIZ (0) = ( LENGTHC (KNH_MESS) + 3 ) / 4 * 4;

  28081   2 002076  3C10                                 LDV,R3   16
          2 002077  BF47 006E                            STR,R3   KV@SNDCQ+3,AUTO

     4757    28082    3                IF EVENT = %KX_P_EV_START#

  28082   2 002079  A847 0062                            LDR,R2   EVENT,AUTO
          2 00207B  2D01                                 CMV,R2   1
PL6.E3A0      #001=KXP$PACKET File=KXP$PACKET.:E05TSI                            WED 07/30/97 02:24 Page:570
          2 00207C  0981 000F                            BNE      s:28092,PREL

     4758    28083    3                   THEN
     4759    28084    4                      DO;

     4760    28085    4                         KNH_MESS.FUNCTION = %KN_FCN_INIT;

  28085   2 00207E  CF47 0063                            STR,R4   KNH_MESS,AUTO

     4761    28086    4                         KNH_MESS.FPTSZ = 2 * SIZEW ( FPT@CONNECT );

  28086   2 002080  1C5A                                 LDV,R1   90
          2 002081  9F47 0069                            STR,R1   KNH_MESS+6,AUTO

     4762    28087    4                         KV@SNDCQ.MSG_.ADR$ (1) = ADDR(FPT@CONNECT);

  28087   2 002083  BBC7 0083                            LAB,B3   FPT@CONNECT,AUTO
          2 002085  BFC7 006F                            STB,B3   KV@SNDCQ+4,AUTO

     4763    28088    4                         KV@SNDCQ.MSG_.BYTSIZ (1) = ( LENGTHC(FPT@CONNECT)+3 )/4*4;

  28088   2 002087  6C5C                                 LDV,R6   92
          2 002088  EF47 0072                            STR,R6   KV@SNDCQ+7,AUTO

     4764    28089    4                      END;

  28089   2 00208A  0F81 0010                            B        s:28098,PREL

     4765    28090    3                   ELSE
     4766    28091    4                      DO;

     4767    28092    4                         KNH_MESS.FUNCTION = %KN_FCN_TERM;

  28092   2 00208C  1C03                                 LDV,R1   3
          2 00208D  9F47 0063                            STR,R1   KNH_MESS,AUTO

     4768    28093    4                         KNH_MESS.FPTSZ = 2 * SIZEW ( FPT@TERM );
PL6.E3A0      #001=KXP$PACKET File=KXP$PACKET.:E05TSI                            WED 07/30/97 02:24 Page:571

  28093   2 00208F  6C08                                 LDV,R6   8
          2 002090  EF47 0069                            STR,R6   KNH_MESS+6,AUTO

     4769    28094    4                         KV@SNDCQ.MSG_.ADR$ (1) = ADDR( FPT@TERM );

  28094   2 002092  BBC7 00B0                            LAB,B3   FPT@TERM,AUTO
          2 002094  BFC7 006F                            STB,B3   KV@SNDCQ+4,AUTO

     4770    28095    4                         KV@SNDCQ.MSG_.BYTSIZ (1) = ( LENGTHC(FPT@TERM)+3 )/4*4;

  28095   2 002096  EF47 0072                            STR,R6   KV@SNDCQ+7,AUTO

     4771    28096    4                         KX$L2.TERMACKPND = '1'B;

  28096   2 002098  8946 0067                            LBT,'0020'X       103,B6
  28096   2 00209A       0020

     4772    28097    4                      END;

     4773    28098    3                CALL KVM$SNDCQ ( KV@SNDCQ ) WHENRETURN

  28098   2 00209B  CBC7 006B                            LAB,B4   KV@SNDCQ,AUTO
          2 00209D  CFC7 00BC                            STB,B4   KV@USRENT+5,AUTO
          2 00209F  BBC7 00BC                            LAB,B3   KV@USRENT+5,AUTO
          2 0020A1  CBF0 0100                            LAB,B4   256,IMO
          2 0020A3  E380 0000 0000  xent                 LNJ,B6   KVM$SNDCQ
          2 0020A6       0007                            DC       s:28104,PREL

     4774    28099    4                      DO;

     4775    28100    4                         KX$L2.LDCTX = 0;

  28100   2 0020A7  ECC7 000C                            LDB,B6   L2$,AUTO
          2 0020A9  8746 0066                            CL       102,B6

     4776    28101    4                      END;
PL6.E3A0      #001=KXP$PACKET File=KXP$PACKET.:E05TSI                            WED 07/30/97 02:24 Page:572

  28101   2 0020AB  0F81 0012                            B        s:28111,PREL

     4777    28102    3                   WHENALTRETURN
     4778    28103    4                      DO;

     4779    28104    4                         IF EVENT = %KX_P_EV_START#

  28104   2 0020AD  E847 0062                            LDR,R6   EVENT,AUTO
          2 0020AF  6D01                                 CMV,R6   1
          2 0020B0  0981 0008                            BNE      s:28108,PREL

     4780    28105    4                            THEN
     4781    28106    4                               KX$L2.INIT_ALTRET = '1'B;

  28106   2 0020B2  ECC7 000C                            LDB,B6   L2$,AUTO
          2 0020B4  8946 0067                            LBT,'0080'X       103,B6
          2 0020B6       0080
          2 0020B7  0F81 0006                            B        s:28111,PREL

     4782    28107    4                            ELSE
     4783    28108    4                               KX$L2.TERM_ALTRET = '1'B;

  28108   2 0020B9  ECC7 000C                            LDB,B6   L2$,AUTO
          2 0020BB  8946 0067                            LBT,'0040'X       103,B6
          2 0020BD       0040

     4784    28109    4                      END;

     4785    28110    3             END;

     4786    28111    2       FPT_L3 = '0'B;

  28111   2 0020BE  5C20                                 LDV,R5   32
          2 0020BF  0021                                 ALR      ;
          2 0020C0       4178 0000                                ALPHANUM('0000'X,IMO,,1),;
          2 0020C2       4007 0052                                ALPHANUM(FPT_L3,AUTO,,R5,FILL)
PL6.E3A0      #001=KXP$PACKET File=KXP$PACKET.:E05TSI                            WED 07/30/97 02:24 Page:573

     4787    28112    2       FPT_L3.EVN = EVENT;

  28112   2 0020C4  437F                                 CSYNC    s:28111+5,SPREL
          2 0020C5  E847 0062                            LDR,R6   EVENT,AUTO
          2 0020C7  EF47 0052                            STR,R6   FPT_L3,AUTO

     4788    28113
     4789    28114    2       L3$ = KX$L2.L3_HEAD$;

  28114   2 0020C9  ECC7 000C                            LDB,B6   L2$,AUTO
          2 0020CB  DCC6 0034                            LDB,B5   52,B6
          2 0020CD  DFC7 0008                            STB,B5   L3$,AUTO

     4790    28115
     4791    28116        /* Loop thru all the level 3s */
     4792    28117
     4793    28118    3       DO WHILE ( L3$ ~= ADDR(NIL) );

  28118   2 0020CF  0F81 0013                            B        s:28126,PREL

     4794    28119
     4795    28120        /* Call this level 3 */
     4796    28121
     4797    28122    3          FPT_L3.RCV$ = L3$;

  28122   2 0020D1  ECC7 0008                            LDB,B6   L3$,AUTO
          2 0020D3  EFC7 0055                            STB,B6   FCLID,AUTO

     4798    28123    3          L3$ = KX$L3.NEXT$;

  28123   2 0020D5  DC86                                 LDB,B5   ,B6
          2 0020D6  DFC7 0008                            STB,B5   L3$,AUTO

     4799    28124    3          CALL KXP$PACKET ( FPT_L3 );

  28124   2 0020D8  CBC7 0052                            LAB,B4   FPT_L3,AUTO
PL6.E3A0      #001=KXP$PACKET File=KXP$PACKET.:E05TSI                            WED 07/30/97 02:24 Page:574
          2 0020DA  CFC7 00BC                            STB,B4   KV@USRENT+5,AUTO
          2 0020DC  BBC7 00BC                            LAB,B3   KV@USRENT+5,AUTO
          2 0020DE  CBF0 0100                            LAB,B4   256,IMO
          2 0020E0  E3C0 DF1F                            LNJ,B6   s:13,PREL
          2 0020E2       0001                            DC       s:28126,PREL

     4800    28125
     4801    28126    3       END /* LOOP */;

  28126   2 0020E3  8DC7 0008                            CMN      L3$,AUTO
          2 0020E5  09EC                                 BNE      s:28122,SPREL

     4802    28127
     4803    28128    2   END /* SUBROUTINE */;

  28128   2 0020E6  ECC7 004E                            LDB,B6   TERMID+8,AUTO
          2 0020E8  C3C6 0001                            LNJ,B4   1,B6

     4804    28129
     4805    28130        %EJECT;
PL6.E3A0      #001=KXP$PACKET File=KXP$PACKET.:E05TSI                            WED 07/30/97 02:24 Page:575
     4806    28131        /*I* NAME: Y$STUFF_FACILITIES
     4807    28132             PURPOSE: To insert the facilities into a Call or
     4808    28133                      Call Confirmation packet
     4809    28134             CALL: CALL Y$STUFF_FACILITIES
     4810    28135             INPUT: BYTE_ARRAY buffer
     4811    28136                    BYTE_INDEX for the starting index
     4812    28137             OUTPUT: Updated BYTE_ARRAY buffer
     4813    28138                     BYTE_INDEX is the index for the next byte   */
     4814    28139
     4815    28140    1   Y$STUFF_FACILITIES: PROC;

  28140   2 0020EA  EFC7 0054            Y$STUFF_FACILIT*STB,B6   FCLLNG,AUTO

     4816    28141
     4817    28142    2   DCL FACILITY_LENGTH_INDEX UBIN;
     4818    28143    2   DCL BFRC CHAR(66) AUTO ;
     4819    28144    2   DCL BFRU(0:65) REDEF BFRC UBIN BYTE CALIGNED ;
     4820    28145    2   DCL CHRBSD CHAR(FACILITY_LENGTH_INDEX) BASED CALIGNED ;
     4821    28146
     4822    28147    2       FACILITY_LENGTH_INDEX = 0 ;

  28147   2 0020EC  8747 0056                            CL       FACILITY_LENGTH_INDEX,AUTO

     4823    28148        /*
     4824    28149                                             Sending packet and window sizes ?
     4825    28150        */
     4826    28151    2       IF (KX$L3.PCKNGT OR SENDING_CALL) AND KX$L3.FSTSLC ~= %KX_FSTSLC_RST#

  28151   2 0020EE  DCC7 0008                            LDB,B5   L3$,AUTO
          2 0020F0  82C5 0076                            LB,'0010'X        118,B5
          2 0020F2       0010
          2 0020F3  0501 0005                            BBT      s:28151+11,PREL
          2 0020F5  89C7 0037                            CMZ      SENDING_CALL,AUTO
          2 0020F7  0881 0041                            BAGE     s:28172,PREL
          2 0020F9  E845 0029                            LDR,R6   41,B5
          2 0020FB  6046                                 SOR,R6   6
          2 0020FC  E570 0003                            AND,R6   3,IMO
PL6.E3A0      #001=KXP$PACKET File=KXP$PACKET.:E05TSI                            WED 07/30/97 02:24 Page:576
          2 0020FE  6D03                                 CMV,R6   3
          2 0020FF  0901 0039                            BE       s:28172,PREL

     4827    28152    2          THEN
     4828    28153    3             DO;

     4829    28154    3                BFRU(FACILITY_LENGTH_INDEX+1) = %KX_FCL_PCKSIZ# ;

  28154   2 002101  5C42                                 LDV,R5   66
          2 002102  CBC7 0057                            LAB,B4   BFRC,AUTO
          2 002104  B847 0056                            LDR,R3   FACILITY_LENGTH_INDEX,AUTO
          2 002106  3E01                                 ADV,R3   1
          2 002107  D7B4                                 STH,R5   ,B4,R3

     4830    28155    3                IF SENDING_CALL

  28155   2 002108  89C7 0037                            CMZ      SENDING_CALL,AUTO
          2 00210A  0881 0017                            BAGE     s:28165,PREL

     4831    28156    3                   THEN
     4832    28157    4                      DO;

     4833    28158    4                         BFRU(FACILITY_LENGTH_INDEX+2) = KX_BUF.LOGSIZ(

  28158   2 00210C  A2C5 0014                            LLH,R2   20,B5
          2 00210E  E820 0000 0024  xsym                 LDR,R6   KX_BUF+36,R2
          2 002111  EBC7 0058                            LAB,B6   BFRC+1,AUTO
          2 002113  9847 0056                            LDR,R1   FACILITY_LENGTH_INDEX,AUTO
          2 002115  E796                                 STH,R6   ,B6,R1

     4834    28159    4                            KX$L3.CALL_OPTS.RCVPCKSIZ);
     4835    28160    4                         BFRU(FACILITY_LENGTH_INDEX+3) = KX_BUF.LOGSIZ(

  28160   2 002116  A845 0015                            LDR,R2   21,B5
          2 002118  A570 00FF                            AND,R2   255,IMO
          2 00211A  E820 0000 0024  xsym                 LDR,R6   KX_BUF+36,R2
          2 00211D  EBC7 0058                            LAB,B6   BFRC+1,AUTO
PL6.E3A0      #001=KXP$PACKET File=KXP$PACKET.:E05TSI                            WED 07/30/97 02:24 Page:577
          2 00211F  E7B6                                 STH,R6   ,B6,R3

     4836    28161    4                            KX$L3.CALL_OPTS.SNDPCKSIZ);
     4837    28162    4                      END;

  28162   2 002120  0F81 0015                            B        s:28170,PREL

     4838    28163    3                   ELSE
     4839    28164    4                      DO;

     4840    28165    4                         BFRU(FACILITY_LENGTH_INDEX+3) = KX_BUF.LOGSIZ(

  28165   2 002122  A2C5 0014                            LLH,R2   20,B5
          2 002124  E820 0000 0024  xsym                 LDR,R6   KX_BUF+36,R2
          2 002127  EBC7 0058                            LAB,B6   BFRC+1,AUTO
          2 002129  E7B6                                 STH,R6   ,B6,R3

     4841    28166    4                            KX$L3.CALL_OPTS.RCVPCKSIZ);
     4842    28167    4                         BFRU(FACILITY_LENGTH_INDEX+2) = KX_BUF.LOGSIZ(

  28167   2 00212A  A845 0015                            LDR,R2   21,B5
          2 00212C  A570 00FF                            AND,R2   255,IMO
          2 00212E  E820 0000 0024  xsym                 LDR,R6   KX_BUF+36,R2
          2 002131  EBC7 0058                            LAB,B6   BFRC+1,AUTO
          2 002133  9847 0056                            LDR,R1   FACILITY_LENGTH_INDEX,AUTO
          2 002135  E796                                 STH,R6   ,B6,R1

     4843    28168    4                            KX$L3.CALL_OPTS.SNDPCKSIZ);
     4844    28169    4                      END;

     4845    28170    3                FACILITY_LENGTH_INDEX = FACILITY_LENGTH_INDEX + 3;

  28170   2 002136  1E03                                 ADV,R1   3
          2 002137  9F47 0056                            STR,R1   FACILITY_LENGTH_INDEX,AUTO

     4846    28171    3             END;

PL6.E3A0      #001=KXP$PACKET File=KXP$PACKET.:E05TSI                            WED 07/30/97 02:24 Page:578
     4847    28172    2       IF (KX$L3.WNDNGT OR SENDING_CALL) AND KX$L3.FSTSLC ~= %KX_FSTSLC_RST#

  28172   2 002139  82C5 0076                            LB,'0020'X        118,B5
  28172   2 00213B       0020
          2 00213C  0501 0005                            BBT      s:28172+9,PREL
          2 00213E  89C7 0037                            CMZ      SENDING_CALL,AUTO
          2 002140  0881 0035                            BAGE     s:28194,PREL
          2 002142  E845 0029                            LDR,R6   41,B5
          2 002144  6046                                 SOR,R6   6
          2 002145  E570 0003                            AND,R6   3,IMO
          2 002147  6D03                                 CMV,R6   3
          2 002148  0901 002D                            BE       s:28194,PREL

     4848    28173    2          THEN
     4849    28174    3             DO;

     4850    28175    3                BFRU(FACILITY_LENGTH_INDEX+1) = %KX_FCL_WNDSIZ# ;

  28175   2 00214A  5C43                                 LDV,R5   67
          2 00214B  EBC7 0057                            LAB,B6   BFRC,AUTO
          2 00214D  B847 0056                            LDR,R3   FACILITY_LENGTH_INDEX,AUTO
          2 00214F  3E01                                 ADV,R3   1
          2 002150  D7B6                                 STH,R5   ,B6,R3

     4851    28176    3                IF SENDING_CALL

  28176   2 002151  89C7 0037                            CMZ      SENDING_CALL,AUTO
          2 002153  0881 0011                            BAGE     s:28184,PREL

     4852    28177    3                   THEN
     4853    28178    4                      DO;

     4854    28179    4                         BFRU(FACILITY_LENGTH_INDEX+2) = KX$L3.CALL_OPTS.RCVWND;

  28179   2 002155  E2C5 0015                            LLH,R6   21,B5
          2 002157  EBC7 0058                            LAB,B6   BFRC+1,AUTO
          2 002159  A847 0056                            LDR,R2   FACILITY_LENGTH_INDEX,AUTO
PL6.E3A0      #001=KXP$PACKET File=KXP$PACKET.:E05TSI                            WED 07/30/97 02:24 Page:579
          2 00215B  E7A6                                 STH,R6   ,B6,R2

     4855    28180    4                         BFRU(FACILITY_LENGTH_INDEX+3) = KX$L3.CALL_OPTS.SNDWND;

  28180   2 00215C  E845 0016                            LDR,R6   22,B5
          2 00215E  E570 00FF                            AND,R6   255,IMO
          2 002160  EBC7 0058                            LAB,B6   BFRC+1,AUTO
          2 002162  E7B6                                 STH,R6   ,B6,R3

     4856    28181    4                      END;

  28181   2 002163  0F81 000F                            B        s:28187,PREL

     4857    28182    3                   ELSE
     4858    28183    4                      DO;

     4859    28184    4                         BFRU(FACILITY_LENGTH_INDEX+3) = KX$L3.CALL_OPTS.RCVWND;

  28184   2 002165  E2C5 0015                            LLH,R6   21,B5
          2 002167  EBC7 0058                            LAB,B6   BFRC+1,AUTO
          2 002169  E7B6                                 STH,R6   ,B6,R3

     4860    28185    4                         BFRU(FACILITY_LENGTH_INDEX+2) = KX$L3.CALL_OPTS.SNDWND;

  28185   2 00216A  E845 0016                            LDR,R6   22,B5
          2 00216C  E570 00FF                            AND,R6   255,IMO
          2 00216E  EBC7 0058                            LAB,B6   BFRC+1,AUTO
          2 002170  A847 0056                            LDR,R2   FACILITY_LENGTH_INDEX,AUTO
          2 002172  E7A6                                 STH,R6   ,B6,R2

     4861    28186    4                      END;

     4862    28187    3                FACILITY_LENGTH_INDEX = FACILITY_LENGTH_INDEX + 3;

  28187   2 002173  2E03                                 ADV,R2   3
          2 002174  AF47 0056                            STR,R2   FACILITY_LENGTH_INDEX,AUTO

PL6.E3A0      #001=KXP$PACKET File=KXP$PACKET.:E05TSI                            WED 07/30/97 02:24 Page:580
     4863    28188    3             END;

     4864    28189        /*
     4865    28190                                             Throughput class is only sent
     4866    28191                                             if something special was
     4867    28192                                             specified.
     4868    28193        */
     4869    28194    2       IF KX$L3.CALL_OPTS.SNDTHR ~= %KLX25_THR_NONE#

  28194   2 002176  E2C5 0016                            LLH,R6   22,B5
          2 002178  6901 002B                            BEZ,R6   s:28215,PREL

     4870    28195    2          THEN
     4871    28196    3             DO;

     4872    28197    3                BFRU(FACILITY_LENGTH_INDEX+1) = %KX_FCL_THRCLS# ;

  28197   2 00217A  5C02                                 LDV,R5   2
          2 00217B  EBC7 0057                            LAB,B6   BFRC,AUTO
          2 00217D  B847 0056                            LDR,R3   FACILITY_LENGTH_INDEX,AUTO
          2 00217F  3E01                                 ADV,R3   1
          2 002180  D7B6                                 STH,R5   ,B6,R3

     4873    28198    3                IF SENDING_CALL

  28198   2 002181  89C7 0037                            CMZ      SENDING_CALL,AUTO
          2 002183  0881 0010                            BAGE     s:28206,PREL

     4874    28199    3                   THEN
     4875    28200    4                      DO;

     4876    28201    4                         BFRU(FACILITY_LENGTH_INDEX+2) = KX$L3.CALL_OPTS.RCVTHR * 16

  28201   2 002185  E845 0014                            LDR,R6   20,B5
          2 002187  6004                                 SOL,R6   4
          2 002188  E570 0FF0                            AND,R6   4080,IMO
          2 00218A  C2C5 0016                            LLH,R4   22,B5
PL6.E3A0      #001=KXP$PACKET File=KXP$PACKET.:E05TSI                            WED 07/30/97 02:24 Page:581
          2 00218C  EA54                                 ADD,R6   R4
          2 00218D  EBC7 0058                            LAB,B6   BFRC+1,AUTO
          2 00218F  A847 0056                            LDR,R2   FACILITY_LENGTH_INDEX,AUTO
          2 002191  E7A6                                 STH,R6   ,B6,R2

     4877    28202    4                            + KX$L3.CALL_OPTS.SNDTHR ;
     4878    28203    4                      END;

  28203   2 002192  0F81 000E                            B        s:28209,PREL

     4879    28204    3                   ELSE
     4880    28205    4                      DO;

     4881    28206    4                         BFRU(FACILITY_LENGTH_INDEX+2) = KX$L3.CALL_OPTS.SNDTHR * 16

  28206   2 002194  E2C5 0016                            LLH,R6   22,B5
          2 002196  6004                                 SOL,R6   4
          2 002197  C845 0014                            LDR,R4   20,B5
          2 002199  C570 00FF                            AND,R4   255,IMO
          2 00219B  EA54                                 ADD,R6   R4
          2 00219C  EBC7 0058                            LAB,B6   BFRC+1,AUTO
          2 00219E  A847 0056                            LDR,R2   FACILITY_LENGTH_INDEX,AUTO
          2 0021A0  E7A6                                 STH,R6   ,B6,R2

     4882    28207    4                            + KX$L3.CALL_OPTS.RCVTHR ;
     4883    28208    4                      END;

     4884    28209    3                FACILITY_LENGTH_INDEX = FACILITY_LENGTH_INDEX + 2;

  28209   2 0021A1  2E02                                 ADV,R2   2
          2 0021A2  AF47 0056                            STR,R2   FACILITY_LENGTH_INDEX,AUTO

     4885    28210    3             END;

     4886    28211        /*
     4887    28212                                             If sending a call, check for CUG, reverse
     4888    28213                                             charging, fast select and transit delay.
PL6.E3A0      #001=KXP$PACKET File=KXP$PACKET.:E05TSI                            WED 07/30/97 02:24 Page:582
     4889    28214        */
     4890    28215    2       IF SENDING_CALL

  28215   2 0021A4  89C7 0037                            CMZ      SENDING_CALL,AUTO
          2 0021A6  0881 0080                            BAGE     s:28256,PREL

     4891    28216    2          THEN
     4892    28217    3             DO;

     4893    28218        /*
     4894    28219                                             Insert Closed User Group if
     4895    28220                                             one was specified.
     4896    28221        */
     4897    28222    3                IF KX$L3.CUGLNG = 1

  28222   2 0021A8  E845 0029                            LDR,R6   41,B5
          2 0021AA  6042                                 SOR,R6   2
          2 0021AB  E570 0003                            AND,R6   3,IMO
          2 0021AD  6D01                                 CMV,R6   1
          2 0021AE  0981 0013                            BNE      s:28229,PREL

     4898    28223    3                   THEN
     4899    28224    4                      DO;

     4900    28225    4                         BFRU(FACILITY_LENGTH_INDEX+1) = %KX_FCL_CUG# ;

  28225   2 0021B0  5C03                                 LDV,R5   3
          2 0021B1  EBC7 0057                            LAB,B6   BFRC,AUTO
          2 0021B3  B847 0056                            LDR,R3   FACILITY_LENGTH_INDEX,AUTO
          2 0021B5  3E01                                 ADV,R3   1
          2 0021B6  D7B6                                 STH,R5   ,B6,R3

     4901    28226    4                         BFRU(FACILITY_LENGTH_INDEX+2) = KX$L3.CUG_BCD.BCDPAIR2;

  28226   2 0021B7  E845 002B                            LDR,R6   43,B5
          2 0021B9  E570 00FF                            AND,R6   255,IMO
          2 0021BB  EBC7 0058                            LAB,B6   BFRC+1,AUTO
PL6.E3A0      #001=KXP$PACKET File=KXP$PACKET.:E05TSI                            WED 07/30/97 02:24 Page:583
          2 0021BD  A847 0056                            LDR,R2   FACILITY_LENGTH_INDEX,AUTO
          2 0021BF  E7A6                                 STH,R6   ,B6,R2

     4902    28227    4                      END;

  28227   2 0021C0  0F81 0019                            B        s:28236,PREL

     4903    28228    3                   ELSE
     4904    28229    3                      IF KX$L3.CUGLNG = 2

  28229   2 0021C2  6D02                                 CMV,R6   2
          2 0021C3  0981 0016                            BNE      s:28236,PREL

     4905    28230    3                         THEN
     4906    28231    4                            DO;

     4907    28232    4                               BFRU(FACILITY_LENGTH_INDEX+1) = %KX_FCL_CUG_EXT#;

  28232   2 0021C5  5C47                                 LDV,R5   71
          2 0021C6  EBC7 0057                            LAB,B6   BFRC,AUTO
          2 0021C8  B847 0056                            LDR,R3   FACILITY_LENGTH_INDEX,AUTO
          2 0021CA  3E01                                 ADV,R3   1
          2 0021CB  D7B6                                 STH,R5   ,B6,R3

     4908    28233    4                               BFRU(FACILITY_LENGTH_INDEX+2) = KX$L3.CUG_BCD.BCDPAIR1;

  28233   2 0021CC  E2C5 002B                            LLH,R6   43,B5
          2 0021CE  EBC7 0058                            LAB,B6   BFRC+1,AUTO
          2 0021D0  A847 0056                            LDR,R2   FACILITY_LENGTH_INDEX,AUTO
          2 0021D2  E7A6                                 STH,R6   ,B6,R2

     4909    28234    4                               BFRU(FACILITY_LENGTH_INDEX+3) = KX$L3.CUG_BCD.BCDPAIR2;

  28234   2 0021D3  E845 002B                            LDR,R6   43,B5
          2 0021D5  E570 00FF                            AND,R6   255,IMO
          2 0021D7  EBC7 0058                            LAB,B6   BFRC+1,AUTO
          2 0021D9  E7B6                                 STH,R6   ,B6,R3
PL6.E3A0      #001=KXP$PACKET File=KXP$PACKET.:E05TSI                            WED 07/30/97 02:24 Page:584

     4910    28235    4                            END;

     4911    28236    3                IF KX$L3.CUGLNG > 0

  28236   2 0021DA  82C5 0029                            LB,'000C'X        41,B5
  28236   2 0021DC       000C
          2 0021DD  0581 000B                            BBF      s:28239,PREL

     4912    28237    3                   THEN
     4913    28238    3                     FACILITY_LENGTH_INDEX = FACILITY_LENGTH_INDEX + 1 + KX$L3.CUGLNG;

  28238   2 0021DF  E845 0029                            LDR,R6   41,B5
          2 0021E1  6042                                 SOR,R6   2
          2 0021E2  E570 0003                            AND,R6   3,IMO
          2 0021E4  EA47 0056                            ADD,R6   FACILITY_LENGTH_INDEX,AUTO
          2 0021E6  6E01                                 ADV,R6   1
          2 0021E7  EF47 0056                            STR,R6   FACILITY_LENGTH_INDEX,AUTO

     4914    28239    3                IF ( KX$L3.RVS OR KX$L3.FSTSLC ~= 0 )

  28239   2 0021E9  82C5 0029                            LB,'0001'X        41,B5
  28239   2 0021EB       0001
          2 0021EC  0501 0006                            BBT      s:28242,PREL
          2 0021EE  82C5 0029                            LB,'00C0'X        41,B5
          2 0021F0       00C0
          2 0021F1  0581 0019                            BBF      s:28247,PREL

     4915    28240    3                   THEN
     4916    28241    4                      DO;

     4917    28242    4                         BFRU(FACILITY_LENGTH_INDEX+1) = %KX_FCL_RVS#;

  28242   2 0021F3  6C01                                 LDV,R6   1
          2 0021F4  EBC7 0057                            LAB,B6   BFRC,AUTO
          2 0021F6  B847 0056                            LDR,R3   FACILITY_LENGTH_INDEX,AUTO
          2 0021F8  3E01                                 ADV,R3   1
PL6.E3A0      #001=KXP$PACKET File=KXP$PACKET.:E05TSI                            WED 07/30/97 02:24 Page:585
          2 0021F9  E7B6                                 STH,R6   ,B6,R3

     4918    28243    4                         BFRU(FACILITY_LENGTH_INDEX+2) = BITBIN(KX$L3.RVS)

  28243   2 0021FA  D845 0029                            LDR,R5   41,B5
          2 0021FC  D570 0001                            AND,R5   1,IMO
          2 0021FE  C845 0029                            LDR,R4   41,B5
          2 002200  C570 00C0                            AND,R4   192,IMO
          2 002202  CA55                                 ADD,R4   R5
          2 002203  EBC7 0058                            LAB,B6   BFRC+1,AUTO
          2 002205  A847 0056                            LDR,R2   FACILITY_LENGTH_INDEX,AUTO
          2 002207  C7A6                                 STH,R4   ,B6,R2

     4919    28244    4                            + KX$L3.FSTSLC*64;
     4920    28245    4                         FACILITY_LENGTH_INDEX = FACILITY_LENGTH_INDEX + 2;

  28245   2 002208  2E02                                 ADV,R2   2
          2 002209  AF47 0056                            STR,R2   FACILITY_LENGTH_INDEX,AUTO

     4921    28246    4                      END;

     4922    28247    3                IF KX$L3.TRNDLY ~= 0

  28247   2 00220B  E845 002C                            LDR,R6   44,B5
          2 00220D  6901 0019                            BEZ,R6   s:28256,PREL

     4923    28248    3                   THEN
     4924    28249    4                      DO;

     4925    28250    4                         BFRU(FACILITY_LENGTH_INDEX+1) = %KX_FCL_DLY#;

  28250   2 00220F  5C49                                 LDV,R5   73
          2 002210  EBC7 0057                            LAB,B6   BFRC,AUTO
          2 002212  B847 0056                            LDR,R3   FACILITY_LENGTH_INDEX,AUTO
          2 002214  3E01                                 ADV,R3   1
          2 002215  D7B6                                 STH,R5   ,B6,R3

PL6.E3A0      #001=KXP$PACKET File=KXP$PACKET.:E05TSI                            WED 07/30/97 02:24 Page:586
     4926    28251    4                         BFRU(FACILITY_LENGTH_INDEX+2) = KX$L3.TRNDLYBYT.LFT;

  28251   2 002216  E2C5 002C                            LLH,R6   44,B5
          2 002218  EBC7 0058                            LAB,B6   BFRC+1,AUTO
          2 00221A  A847 0056                            LDR,R2   FACILITY_LENGTH_INDEX,AUTO
          2 00221C  E7A6                                 STH,R6   ,B6,R2

     4927    28252    4                         BFRU(FACILITY_LENGTH_INDEX+3) = KX$L3.TRNDLYBYT.RGH;

  28252   2 00221D  E845 002C                            LDR,R6   44,B5
          2 00221F  E570 00FF                            AND,R6   255,IMO
          2 002221  EBC7 0058                            LAB,B6   BFRC+1,AUTO
          2 002223  E7B6                                 STH,R6   ,B6,R3

     4928    28253    4                         FACILITY_LENGTH_INDEX = FACILITY_LENGTH_INDEX + 3;

  28253   2 002224  2E03                                 ADV,R2   3
          2 002225  AF47 0056                            STR,R2   FACILITY_LENGTH_INDEX,AUTO

     4929    28254    4                      END;

     4930    28255    3             END;

     4931    28256    2       IF (SENDING_CALL AND KX$L3.CHRINF) OR (NOT SENDING_CALL AND KX$L2.FLG.CHRINF)

  28256   2 002227  89C7 0037                            CMZ      SENDING_CALL,AUTO
          2 002229  0881 0006                            BAGE     s:28256+9,PREL
          2 00222B  82C5 0029                            LB,'0010'X        41,B5
          2 00222D       0010
          2 00222E  0501 000C                            BBT      s:28259,PREL
          2 002230  89C7 0037                            CMZ      SENDING_CALL,AUTO
          2 002232  0801 0018                            BAL      s:28263,PREL
          2 002234  ECC7 000C                            LDB,B6   L2$,AUTO
          2 002236  82C6 002F                            LB,'2000'X        47,B6
          2 002238       2000
          2 002239  0581 0011                            BBF      s:28263,PREL

PL6.E3A0      #001=KXP$PACKET File=KXP$PACKET.:E05TSI                            WED 07/30/97 02:24 Page:587
     4932    28257    2          THEN
     4933    28258    3             DO;

     4934    28259    3                BFRU(FACILITY_LENGTH_INDEX+1) = %KX_FCL_CHR_RQS#;

  28259   2 00223B  6C04                                 LDV,R6   4
          2 00223C  EBC7 0057                            LAB,B6   BFRC,AUTO
          2 00223E  B847 0056                            LDR,R3   FACILITY_LENGTH_INDEX,AUTO
          2 002240  3E01                                 ADV,R3   1
          2 002241  E7B6                                 STH,R6   ,B6,R3

     4935    28260    3                BFRU(FACILITY_LENGTH_INDEX+2) = 1;

  28260   2 002242  5C01                                 LDV,R5   1
          2 002243  EBC7 0058                            LAB,B6   BFRC+1,AUTO
          2 002245  A847 0056                            LDR,R2   FACILITY_LENGTH_INDEX,AUTO
          2 002247  D7A6                                 STH,R5   ,B6,R2

     4936    28261    3                FACILITY_LENGTH_INDEX = FACILITY_LENGTH_INDEX + 2;

  28261   2 002248  2E02                                 ADV,R2   2
          2 002249  AF47 0056                            STR,R2   FACILITY_LENGTH_INDEX,AUTO

     4937    28262    3             END;

     4938    28263    2       IF SENDING_CALL AND KX$L3.LCLNSAP.NSAP.LEN > 0 AND KX$L3.RMTNSAP.NSAP.LEN > 0

  28263   2 00224B  89C7 0037                            CMZ      SENDING_CALL,AUTO
          2 00224D  0881 0062                            BAGE     s:28282,PREL
          2 00224F  E2C5 007B                            LLH,R6   123,B5
          2 002251  6901 005E                            BEZ,R6   s:28282,PREL
          2 002253  D2C5 0086                            LLH,R5   134,B5
          2 002255  5901 005A                            BEZ,R5   s:28282,PREL

     4939    28264    2          THEN
     4940    28265    3             DO;

PL6.E3A0      #001=KXP$PACKET File=KXP$PACKET.:E05TSI                            WED 07/30/97 02:24 Page:588
     4941    28266    3                BFRU(FACILITY_LENGTH_INDEX+1) = %KX_FCL_MRK#;

  28266   2 002257  EBC7 0057                            LAB,B6   BFRC,AUTO
          2 002259  B847 0056                            LDR,R3   FACILITY_LENGTH_INDEX,AUTO
          2 00225B  3E01                                 ADV,R3   1
          2 00225C  87B6                                 CLH      ,B6,R3

     4942    28267    3                BFRU(FACILITY_LENGTH_INDEX+2) = %KX_FCL_MRK_CCITT#;

  28267   2 00225D  6C0F                                 LDV,R6   15
          2 00225E  EBC7 0058                            LAB,B6   BFRC+1,AUTO
          2 002260  A847 0056                            LDR,R2   FACILITY_LENGTH_INDEX,AUTO
          2 002262  E7A6                                 STH,R6   ,B6,R2

     4943    28268    3                BFRU(FACILITY_LENGTH_INDEX+3) = %KX_FCL_CLGADREXT#;

  28268   2 002263  D870 00CB                            LDR,R5   203,IMO
          2 002265  EBC7 0058                            LAB,B6   BFRC+1,AUTO
          2 002267  D7B6                                 STH,R5   ,B6,R3

     4944    28269    3                TEMP0 = (KX$L3.LCLNSAP.NSAP.LEN + 3)/2;

  28269   2 002268  C2C5 007B                            LLH,R4   123,B5
          2 00226A  4E03                                 ADV,R4   3
          2 00226B  4041                                 SOR,R4   1
          2 00226C  CF47 002A                            STR,R4   TEMP0,AUTO

     4945    28270    3                TEMP1 = (KX$L3.RMTNSAP.NSAP.LEN + 3)/2;

  28270   2 00226E  92C5 0086                            LLH,R1   134,B5
          2 002270  1E03                                 ADV,R1   3
          2 002271  1041                                 SOR,R1   1
          2 002272  9F47 002B                            STR,R1   TEMP1,AUTO

     4946    28271    3                BFRU(FACILITY_LENGTH_INDEX+4) = TEMP0;

  28271   2 002274  EBC7 0059                            LAB,B6   FCL_PRESENT,AUTO
PL6.E3A0      #001=KXP$PACKET File=KXP$PACKET.:E05TSI                            WED 07/30/97 02:24 Page:589
          2 002276  C7A6                                 STH,R4   ,B6,R2

     4947    28272    3               SUBSTR(BFRC,FACILITY_LENGTH_INDEX+5,TEMP0) = SUBSTR(KX$L3.LCLNSAP_REDEF
             28272                         .NSAP,0,TEMP0);

  28272   2 002277  ABC5 007B                            LAB,B2   123,B5
          2 002279  2C00                                 LDV,R2   0
          2 00227A  E847 002A                            LDR,R6   TEMP0,AUTO
          2 00227C  BBC7 0059                            LAB,B3   FCL_PRESENT,AUTO
          2 00227E  0008                                 MMM

     4948    28273    3                BFRU(FACILITY_LENGTH_INDEX+5+TEMP0) = %KX_FCL_CLDADREXT#;

  28273   2 00227F  E847 0056                            LDR,R6   FACILITY_LENGTH_INDEX,AUTO
          2 002281  EA47 002A                            ADD,R6   TEMP0,AUTO
          2 002283  C870 00C9                            LDR,R4   201,IMO
          2 002285  EBC7 0059                            LAB,B6   FCL_PRESENT,AUTO
          2 002287  B856                                 LDR,R3   R6
          2 002288  3E01                                 ADV,R3   1
          2 002289  C7B6                                 STH,R4   ,B6,R3

     4949    28274    3                BFRU(FACILITY_LENGTH_INDEX+6+TEMP0) = TEMP1;

  28274   2 00228A  E847 0056                            LDR,R6   FACILITY_LENGTH_INDEX,AUTO
          2 00228C  EA47 002A                            ADD,R6   TEMP0,AUTO
          2 00228E  B847 002B                            LDR,R3   TEMP1,AUTO
          2 002290  EBC7 005A                            LAB,B6   FCL_PRESENT+1,AUTO
          2 002292  A856                                 LDR,R2   R6
          2 002293  B7A6                                 STH,R3   ,B6,R2

     4950    28275    3                SUBSTR(BFRC,FACILITY_LENGTH_INDEX+7+TEMP0,TEMP1) = SUBSTR(KX$L3.
             28275                         RMTNSAP_REDEF.NSAP,0,TEMP1);

  28275   2 002294  E847 0056                            LDR,R6   FACILITY_LENGTH_INDEX,AUTO
          2 002296  EA47 002A                            ADD,R6   TEMP0,AUTO
          2 002298  ACC7 0008                            LDB,B2   L3$,AUTO
          2 00229A  ABC2 0086                            LAB,B2   134,B2
PL6.E3A0      #001=KXP$PACKET File=KXP$PACKET.:E05TSI                            WED 07/30/97 02:24 Page:590
          2 00229C  2C00                                 LDV,R2   0
          2 00229D  EF47 00BC                            STR,R6   KV@USRENT+5,AUTO
          2 00229F  E847 002B                            LDR,R6   TEMP1,AUTO
          2 0022A1  BBC7 005A                            LAB,B3   FCL_PRESENT+1,AUTO
          2 0022A3  B847 00BC                            LDR,R3   KV@USRENT+5,AUTO
          2 0022A5  3E01                                 ADV,R3   1
          2 0022A6  0008                                 MMM

     4951    28276    3                FACILITY_LENGTH_INDEX = FACILITY_LENGTH_INDEX + TEMP0 + TEMP1 + 6;

  28276   2 0022A7  E847 0056                            LDR,R6   FACILITY_LENGTH_INDEX,AUTO
          2 0022A9  EA47 002A                            ADD,R6   TEMP0,AUTO
          2 0022AB  EA47 002B                            ADD,R6   TEMP1,AUTO
          2 0022AD  6E06                                 ADV,R6   6
          2 0022AE  EF47 0056                            STR,R6   FACILITY_LENGTH_INDEX,AUTO

     4952    28277    3             END;

     4953    28278        /*
     4954    28279                                             Now go back and complete the
     4955    28280                                             facility length field.
     4956    28281        */
     4957    28282    2       BFRU(0) = FACILITY_LENGTH_INDEX;

  28282   2 0022B0  E847 0056                            LDR,R6   FACILITY_LENGTH_INDEX,AUTO
          2 0022B2  E7C7 0057                            STH,R6   BFRC,AUTO

     4958    28283    2       FACILITY_LENGTH_INDEX = FACILITY_LENGTH_INDEX + 1;

  28283   2 0022B4  8AC7 0056                            INC      FACILITY_LENGTH_INDEX,AUTO

     4959    28284    2       ADDR(BYTE_ARRAY(BYTE_INDEX))->CHRBSD = ADDR(BFRC)->CHRBSD ;

  28284   2 0022B6  ABC7 0057                            LAB,B2   BFRC,AUTO
          2 0022B8  2C00                                 LDV,R2   0
          2 0022B9  E847 0056                            LDR,R6   FACILITY_LENGTH_INDEX,AUTO
          2 0022BB  BCC7 0006                            LDB,B3   DAT$,AUTO
PL6.E3A0      #001=KXP$PACKET File=KXP$PACKET.:E05TSI                            WED 07/30/97 02:24 Page:591
          2 0022BD  B847 0032                            LDR,R3   BYTE_INDEX,AUTO
          2 0022BF  0008                                 MMM

     4960    28285    2       BYTE_INDEX = BYTE_INDEX + FACILITY_LENGTH_INDEX ;

  28285   2 0022C0  E847 0032                            LDR,R6   BYTE_INDEX,AUTO
          2 0022C2  EA47 0056                            ADD,R6   FACILITY_LENGTH_INDEX,AUTO
          2 0022C4  EF47 0032                            STR,R6   BYTE_INDEX,AUTO

     4961    28286
     4962    28287    2       RETURN;

  28287   2 0022C6  ECC7 0054                            LDB,B6   FCLLNG,AUTO
          2 0022C8  C3C6 0001                            LNJ,B4   1,B6

     4963    28288
     4964    28289    2   END Y$STUFF_FACILITIES;
     4965    28290        %EJECT;
PL6.E3A0      #001=KXP$PACKET File=KXP$PACKET.:E05TSI                            WED 07/30/97 02:24 Page:592
     4966    28291        /*I* NAME: Y$RESTART */
     4967    28292        /*I* PURPOSE: Send a restart packet */
     4968    28293        /*I* CALL: CALL Y$RESTART */
     4969    28294        /*I* INPUT: L2$  ->  line context block*/
     4970    28295        /*I* OUTPUT: None */
     4971    28296
     4972    28297    1   Y$RESTART: PROC;

  28297   2 0022CA  EFC7 0054            Y$RESTART       STB,B6   FCLLNG,AUTO

     4973    28298
     4974    28299        /* Set the restart flag */
     4975    28300
     4976    28301    2       KX$L2.FLG.RESTART = '1'B;

  28301   2 0022CC  DCC7 000C                            LDB,B5   L2$,AUTO
          2 0022CE  8945 002E                            LBT,'0008'X       46,B5
          2 0022D0       0008

     4977    28302    2       ID = %Y_ID_RESTART#;

  28302   2 0022D1  E870 00FB                            LDR,R6   251,IMO
          2 0022D3  EF47 002E                            STR,R6   ID,AUTO

     4978    28303    2       TEMP0 = %L2;

  28303   2 0022D5  5C07                                 LDV,R5   7
          2 0022D6  DF47 002A                            STR,R5   TEMP0,AUTO

     4979    28304    2       GOTO RESTART_COMMON;

  28304   2 0022D8  0F81 000A                            B        s:28313,PREL

     4980    28305
     4981    28306    2   Y$RESTART_C: ENTRY;

  28306   2 0022DA  EFC7 0054            Y$RESTART_C     STB,B6   FCLLNG,AUTO
PL6.E3A0      #001=KXP$PACKET File=KXP$PACKET.:E05TSI                            WED 07/30/97 02:24 Page:593

     4982    28307
     4983    28308    2       ID = %Y_ID_RESTART_C#;

  28308   2 0022DC  E870 00FF                            LDR,R6   255,IMO
          2 0022DE  EF47 002E                            STR,R6   ID,AUTO

     4984    28309    2       TEMP0 = %L0;

  28309   2 0022E0  5C05                                 LDV,R5   5
          2 0022E1  DF47 002A                            STR,R5   TEMP0,AUTO

     4985    28310
     4986    28311    2   RESTART_COMMON:
     4987    28312
     4988    28313    2       TEMP0 = TEMP0 + L2EXT;

  28313   2 0022E3  DA47 003D            RESTART_COMMON  ADD,R5   L2EXT,AUTO
          2 0022E5  DF47 002A                            STR,R5   TEMP0,AUTO

     4989    28314
     4990    28315        /* Is the level 2 machine blocked? */
     4991    28316
     4992    28317    2       IF NOT KX$L2.FLG.OK OR KX$L2.FLG.BLK

  28317   2 0022E7  ECC7 000C                            LDB,B6   L2$,AUTO
          2 0022E9  82C6 002E                            LB,'0800'X        46,B6
          2 0022EB       0800
          2 0022EC  0581 0005                            BBF      s:28323,PREL
          2 0022EE  89C6 002E                            CMZ      46,B6
          2 0022F0  0881 0009                            BAGE     s:28332,PREL

     4993    28318    2          THEN
     4994    28319    3             DO;

     4995    28320
     4996    28321        /* The packet can't be sent now  -  set the flag */
PL6.E3A0      #001=KXP$PACKET File=KXP$PACKET.:E05TSI                            WED 07/30/97 02:24 Page:594
     4997    28322
     4998    28323    3                KX$L2.FLG.RESTART_PEND = '1'B;

  28323   2 0022F2  8946 002E                            LBT,'0004'X       46,B6
  28323   2 0022F4       0004

     4999    28324    3                KX$L2.FLG.DATAVL = '1'B;

  28324   2 0022F5  8946 002E                            LBT,'0002'X       46,B6
  28324   2 0022F7       0002

     5000    28325    3             END;

  28325   2 0022F8  0F81 00B7                            B        s:28370,PREL

     5001    28326
     5002    28327    2          ELSE
     5003    28328    3             DO;

     5004    28329
     5005    28330        /* Send the restart packet now */
     5006    28331
     5007    28332    3                CALL KXS$GETBFR ( 2, TEMP2$ );

  28332   2 0022FA  DBF0 0002                            LAB,B5   2,IMO
          2 0022FC  CBC7 0042                            LAB,B4   TEMP2$,AUTO
          2 0022FE  CFC7 00BE                            STB,B4   KV@USRENT+7,AUTO
          2 002300  DFC7 00BC                            STB,B5   KV@USRENT+5,AUTO
          2 002302  BBC7 00BC                            LAB,B3   KV@USRENT+5,AUTO
          2 002304  CBF0 0200                            LAB,B4   512,IMO
          2 002306  E380 0000 0000  xent                 LNJ,B6   KXS$GETBFR
          2 002309       0001                            DC       s:28333,PREL

     5008    28333    3                DAT$ = TEMP2$;

  28333   2 00230A  ECC7 0042                            LDB,B6   TEMP2$,AUTO
          2 00230C  EFC7 0006                            STB,B6   DAT$,AUTO
PL6.E3A0      #001=KXP$PACKET File=KXP$PACKET.:E05TSI                            WED 07/30/97 02:24 Page:595

     5009    28334    3                KX$DATA.RLS.L3 = '1'B;

  28334   2 00230E  8946 0006                            LBT,'8000'X       6,B6
  28334   2 002310       8000

     5010    28335    3                OUT_PKTHDR.TYPE = ID;

  28335   2 002311  E847 002E                            LDR,R6   ID,AUTO
          2 002313  E780 0000 0004  01                   STH,R6   OUT_PKTHDR+1

     5011    28336    3                OUT_PKTHDR.GFI = %GFI + BITBIN(KX$L2.DFLVCPRF.EXTSEQ#);

  28336   2 002316  ECC7 000C                            LDB,B6   L2$,AUTO
          2 002318  D846 0060                            LDR,R5   96,B6
          2 00231A  504F                                 SOR,R5   15
          2 00231B  5E01                                 ADV,R5   1
          2 00231C  500C                                 SOL,R5   12
          2 00231D  DA80 0000 0003  01                   SRM,R5,'3000'X    OUT_PKTHDR
          2 002320       3000

     5012    28337    3                KX$DATA.CNT = TEMP0;

  28337   2 002321  DCC7 0006                            LDB,B5   DAT$,AUTO
          2 002323  D847 002A                            LDR,R5   TEMP0,AUTO
          2 002325  DF45 0007                            STR,R5   7,B5

     5013    28338    3                ADDR(BYTE_ARRAY(LENGTHC(KX$FRAME)+L2EXT))->XPKTHDR = OUT_PKTHDR_CHR;

  28338   2 002327  AB80 0000 0000  01                   LAB,B2   IN_PKTHDR
          2 00232A  2C06                                 LDV,R2   6
          2 00232B  6C05                                 LDV,R6   5
          2 00232C  BCC7 0006                            LDB,B3   DAT$,AUTO
          2 00232E  B847 003D                            LDR,R3   L2EXT,AUTO
          2 002330  3E12                                 ADV,R3   18
          2 002331  0008                                 MMM

PL6.E3A0      #001=KXP$PACKET File=KXP$PACKET.:E05TSI                            WED 07/30/97 02:24 Page:596
     5014    28339    3                CALL_FPT.EVN = %KX_F_EV_DATA_OUT#;

  28339   2 002332  6C07                                 LDV,R6   7
          2 002333  EF47 0012                            STR,R6   CALL_FPT,AUTO

     5015    28340    3                CALL_FPT.RCV$ = L2$;

  28340   2 002335  ECC7 000C                            LDB,B6   L2$,AUTO
          2 002337  EFC7 0015                            STB,B6   CALL_FPT+3,AUTO

     5016    28341    3                CALL_FPT.PRM1$ = DAT$;

  28341   2 002339  DCC7 0006                            LDB,B5   DAT$,AUTO
          2 00233B  DFC7 0019                            STB,B5   CALL_FPT+7,AUTO

     5017    28342    3                CALL KXF$FRAME ( CALL_FPT );

  28342   2 00233D  CBC7 0012                            LAB,B4   CALL_FPT,AUTO
          2 00233F  CFC7 00BC                            STB,B4   KV@USRENT+5,AUTO
          2 002341  BBC7 00BC                            LAB,B3   KV@USRENT+5,AUTO
          2 002343  CBF0 0100                            LAB,B4   256,IMO
          2 002345  E380 0000 0000  xent                 LNJ,B6   KXF$FRAME
          2 002348       0001                            DC       s:28343,PREL

     5018    28343    3                IF ID = %Y_ID_RESTART#

  28343   2 002349  E847 002E                            LDR,R6   ID,AUTO
          2 00234B  E970 00FB                            CMR,R6   251,IMO
          2 00234D  0981 0062                            BNE      s:28370,PREL

     5019    28344    3                   THEN
     5020    28345    4                      DO;

     5021    28346                              %START_TIMER ( FPTN = KX$L2.T20TMR, PRD = KX$L2.T20 );

  28351   2 00234F  ECC7 000C                            LDB,B6   L2$,AUTO
          2 002351  D2C6 0055                            LLH,R5   85,B6
PL6.E3A0      #001=KXP$PACKET File=KXP$PACKET.:E05TSI                            WED 07/30/97 02:24 Page:597
          2 002353  5901 002E                            BEZ,R5   s:28362+18,PREL

  28351   2 002355  DAC6 0050                            SRM,R5,'00FF'X    80,B6
  28351   2 002357       00FF

  28361   2 002358  89C6 0051                            CMZ      81,B6
          2 00235A  0801 004F                            BAL      s:28366,PREL

  28361   2 00235C  8946 0051                            LBT,'8000'X       81,B6
  28361   2 00235E       8000

  28361   2 00235F  DB80 0000 0000                       LAB,B5   0
          2 002362  DFC6 0048                            STB,B5   72,B6

  28361   2 002364  8D80 0000 0002  xsym                 CMN      KX_TMRBLK+2
          2 002367  0981 0008                            BNE      s:28362,PREL

  28361   2 002369  CBC6 0048                            LAB,B4   72,B6
          2 00236B  CF80 0000 0000  xsym                 STB,B4   KX_TMRBLK
          2 00236E  0F81 0007                            B        s:28362+6,PREL

  28362   2 002370  CBC6 0048                            LAB,B4   72,B6
          2 002372  BC80 0000 0002  xsym                 LDB,B3   KX_TMRBLK+2
          2 002375  CF83                                 STB,B4   ,B3

  28362   2 002376  DC80 0000 0002  xsym                 LDB,B5   KX_TMRBLK+2
          2 002379  DFC6 004A                            STB,B5   74,B6

  28362   2 00237B  CBC6 0048                            LAB,B4   72,B6
          2 00237D  CF80 0000 0002  xsym                 STB,B4   KX_TMRBLK+2

  28362   2 002380  0F81 0029                            B        s:28366,PREL

  28362   2 002382  89C6 0051                            CMZ      81,B6
          2 002384  0881 0025                            BAGE     s:28366,PREL

  28363   2 002386  8846 0051                            LBF,'8000'X       81,B6
PL6.E3A0      #001=KXP$PACKET File=KXP$PACKET.:E05TSI                            WED 07/30/97 02:24 Page:598
  28363   2 002388       8000

  28363   2 002389  8DC6 0048                            CMN      72,B6
          2 00238B  0981 0008                            BNE      s:28363+14,PREL

  28363   2 00238D  DCC6 004A                            LDB,B5   74,B6
          2 00238F  DF80 0000 0002  xsym                 STB,B5   KX_TMRBLK+2
          2 002392  0F81 0007                            B        s:28363+20,PREL

  28363   2 002394  DCC6 0048                            LDB,B5   72,B6
          2 002396  CCC6 004A                            LDB,B4   74,B6
          2 002398  CFC5 0002                            STB,B4   2,B5

  28363   2 00239A  8DC6 004A                            CMN      74,B6
          2 00239C  0981 0008                            BNE      s:28364+7,PREL

  28364   2 00239E  DCC6 0048                            LDB,B5   72,B6
          2 0023A0  DF80 0000 0000  xsym                 STB,B5   KX_TMRBLK
          2 0023A3  0F81 0006                            B        s:28366,PREL

  28364   2 0023A5  DCC6 004A                            LDB,B5   74,B6
          2 0023A7  CCC6 0048                            LDB,B4   72,B6
          2 0023A9  CF85                                 STB,B4   ,B5

     5022    28366    4                         KX_STATS_X25.RESTART_OUT = KX_STATS_X25.RESTART_OUT + 1;

  28366   2 0023AA  8A80 0000 0023  xsym                 INC      KX_STATS_X25+35
          2 0023AD  8E80 0000 0022  xsym                 CAD      KX_STATS_X25+34

     5023    28367    4                      END;

     5024    28368    3             END /* IF */;

     5025    28369
     5026    28370    2   END /* SUBROUTINE */;

  28370   2 0023B0  ECC7 0054                            LDB,B6   FCLLNG,AUTO
PL6.E3A0      #001=KXP$PACKET File=KXP$PACKET.:E05TSI                            WED 07/30/97 02:24 Page:599
          2 0023B2  C3C6 0001                            LNJ,B4   1,B6

     5027    28371
     5028    28372        %EJECT;
PL6.E3A0      #001=KXP$PACKET File=KXP$PACKET.:E05TSI                            WED 07/30/97 02:24 Page:600
     5029    28373        /*I* NAME: Y$CALL */
     5030    28374        /*I* PURPOSE: Send a call packet */
     5031    28375        /*I* CALL: CALL Y$CALL */
     5032    28376        /*I* INPUT: L2$  ->  line context block*/
     5033    28377        /*I* L3$  ->  level 3 context block */
     5034    28378        /*I* OUTPUT: DAT$  -  null if no LCN available */
     5035    28379
     5036    28380    1   Y$CALL: PROC ALTRET;

  28380   2 0023B4  EFC7 004E            Y$CALL          STB,B6   TERMID+8,AUTO

     5037    28381
     5038    28382    2   DCL END_LCN UBIN;
     5039    28383    2   DCL I UBIN;
     5040    28384    2   DCL T$ PTR;
     5041    28385
     5042    28386        /* Assign a logical channel number */
     5043    28387
     5044    28388    2       IF KX$L2.FLG.DCE

  28388   2 0023B6  DCC7 000C                            LDB,B5   L2$,AUTO
          2 0023B8  82C5 002E                            LB,'1000'X        46,B5
          2 0023BA       1000
          2 0023BB  0581 000F                            BBF      s:28396,PREL

     5045    28389    2          THEN  /*                      Start with the lowest number  */
     5046    28390    3             DO;

     5047    28391    3                LCN = KX$L2.LIC;

  28391   2 0023BD  E845 0018                            LDR,R6   24,B5
          2 0023BF  EF47 0028                            STR,R6   LCN,AUTO

     5048    28392    3                END_LCN = MAXIMUM ( KX$L2.HIC, LCN );

  28392   2 0023C1  E945 0019                            CMR,R6   25,B5
          2 0023C3  0281 0003                            BGE      s:28392+6,PREL
PL6.E3A0      #001=KXP$PACKET File=KXP$PACKET.:E05TSI                            WED 07/30/97 02:24 Page:601
          2 0023C5  E845 0019                            LDR,R6   25,B5
          2 0023C7  EF47 0050                            STR,R6   END_LCN,AUTO

     5049    28393    3             END;

  28393   2 0023C9  0F81 000D                            B        s:28402,PREL

     5050    28394    2          ELSE  /*                      DTEs use the largest number  */
     5051    28395    3             DO;

     5052    28396    3                LCN = KX$L2.HOC;

  28396   2 0023CB  E845 001C                            LDR,R6   28,B5
          2 0023CD  EF47 0028                            STR,R6   LCN,AUTO

     5053    28397    3                END_LCN = MINIMUM ( KX$L2.LOC, LCN );

  28397   2 0023CF  E945 001B                            CMR,R6   27,B5
          2 0023D1  0381 0003                            BLE      s:28397+6,PREL
          2 0023D3  E845 001B                            LDR,R6   27,B5
          2 0023D5  EF47 0050                            STR,R6   END_LCN,AUTO

     5054    28398    3             END;

     5055    28399
     5056    28400        /* Get the first level 3 */
     5057    28401
     5058    28402    2       T$ = KX$L2.L3_HEAD$;

  28402   2 0023D7  CCC5 0034                            LDB,B4   52,B5
          2 0023D9  CFC7 0052                            STB,B4   T$,AUTO

     5059    28403
     5060    28404        /* Check each one for this LCN */
     5061    28405
     5062    28406    3   SRCH: DO WHILE ( T$ ~= ADDR(NIL) );

PL6.E3A0      #001=KXP$PACKET File=KXP$PACKET.:E05TSI                            WED 07/30/97 02:24 Page:602
  28406   2 0023DB  0F81 0028            SRCH            B        s:28438,PREL

     5063    28407
     5064    28408    3          IF T$->KX$TL3.LCN# = LCN

  28408   2 0023DD  ECC7 0052                            LDB,B6   T$,AUTO
          2 0023DF  E846 002A                            LDR,R6   42,B6
          2 0023E1  E570 0FFF                            AND,R6   4095,IMO
          2 0023E3  E947 0028                            CMR,R6   LCN,AUTO
          2 0023E5  0981 001B                            BNE      s:28435,PREL

     5065    28409    3             THEN
     5066    28410    4                DO;

     5067    28411
     5068    28412        /* Yes  -  go to the next LCN */
     5069    28413
     5070    28414        /*
     5071    28415                                             If we couldn't get an LCN, just
     5072    28416                                             altreturn and let the caller
     5073    28417                                             figure out what to do.
     5074    28418        */
     5075    28419    4                   IF LCN = END_LCN THEN ALTRETURN;

  28419   2 0023E7  D847 0028                            LDR,R5   LCN,AUTO
          2 0023E9  D947 0050                            CMR,R5   END_LCN,AUTO
          2 0023EB  0981 0005                            BNE      s:28420,PREL

  28419   2 0023ED  ECC7 004E                            LDB,B6   TERMID+8,AUTO
          2 0023EF  B806                                 LDR,R3   ,B6
          2 0023F0  C3B6                                 LNJ,B4   ,B6,R3

     5076    28420    4                   IF LCN < END_LCN

  28420   2 0023F1  0281 0005                            BGE      s:28424,PREL

     5077    28421    4                      THEN
PL6.E3A0      #001=KXP$PACKET File=KXP$PACKET.:E05TSI                            WED 07/30/97 02:24 Page:603
     5078    28422    4                         LCN = LCN + 1;

  28422   2 0023F3  8AC7 0028                            INC      LCN,AUTO
          2 0023F5  0F81 0003                            B        s:28428,PREL

     5079    28423    4                      ELSE
     5080    28424    4                         LCN = LCN - 1;

  28424   2 0023F7  88C7 0028                            DEC      LCN,AUTO

     5081    28425
     5082    28426        /* Restart this loop */
     5083    28427
     5084    28428    4                   T$ = KX$L2.L3_HEAD$;

  28428   2 0023F9  DCC7 000C                            LDB,B5   L2$,AUTO
          2 0023FB  CCC5 0034                            LDB,B4   52,B5
          2 0023FD  CFC7 0052                            STB,B4   T$,AUTO

     5085    28429
     5086    28430    4                END;

  28430   2 0023FF  0F81 0004                            B        s:28438,PREL

     5087    28431    3             ELSE
     5088    28432
     5089    28433        /* No match  -  get the next level 3 */
     5090    28434
     5091    28435    3                T$ = T$ -> KX$TL3.NEXT$;

  28435   2 002401  DC86                                 LDB,B5   ,B6
          2 002402  DFC7 0052                            STB,B5   T$,AUTO

     5092    28436
     5093    28437
     5094    28438    3       END SRCH;

PL6.E3A0      #001=KXP$PACKET File=KXP$PACKET.:E05TSI                            WED 07/30/97 02:24 Page:604
  28438   2 002404  8DC7 0052                            CMN      T$,AUTO
          2 002406  09D7                                 BNE      s:28408,SPREL

     5095    28439
     5096    28440    2       KX$L3.CHN$-> KH$CHN.TERMID.TERM.SUBDEVICE = LCN;

  28440   2 002407  ECC7 0008                            LDB,B6   L3$,AUTO
          2 002409  DCC6 0006                            LDB,B5   6,B6
          2 00240B  E847 0028                            LDR,R6   LCN,AUTO
          2 00240D  EF45 0014                            STR,R6   20,B5

     5097    28441
     5098    28442        /* Getting this far means we got an LCN */
     5099    28443
     5100    28444    2       KX$L3.LCN# = LCN;

  28444   2 00240F  E847 0028                            LDR,R6   LCN,AUTO
          2 002411  EAC6 002A                            SRM,R6,'0FFF'X    42,B6
          2 002413       0FFF

     5101    28445
     5102    28446        /* Get a buffer for the call packet */
     5103    28447
     5104    28448    2       CALL KXS$GETBFR ( 256, TEMP2$ );

  28448   2 002414  DBF0 0100                            LAB,B5   256,IMO
          2 002416  CBC7 0042                            LAB,B4   TEMP2$,AUTO
          2 002418  CFC7 00BE                            STB,B4   KV@USRENT+7,AUTO
          2 00241A  DFC7 00BC                            STB,B5   KV@USRENT+5,AUTO
          2 00241C  BBC7 00BC                            LAB,B3   KV@USRENT+5,AUTO
          2 00241E  CBF0 0200                            LAB,B4   512,IMO
          2 002420  E380 0000 0000  xent                 LNJ,B6   KXS$GETBFR
          2 002423       0001                            DC       s:28449,PREL

     5105    28449    2       DAT$ = TEMP2$;

  28449   2 002424  ECC7 0042                            LDB,B6   TEMP2$,AUTO
PL6.E3A0      #001=KXP$PACKET File=KXP$PACKET.:E05TSI                            WED 07/30/97 02:24 Page:605
          2 002426  EFC7 0006                            STB,B6   DAT$,AUTO

     5106    28450    2       KX$DATA.RLS.L3 = '1'B;

  28450   2 002428  8946 0006                            LBT,'8000'X       6,B6
  28450   2 00242A       8000

     5107    28451        /*
     5108    28452                                             Set up the addresses and call
     5109    28453                                             facilities in the packet.
     5110    28454        */
     5111    28455    2       BYTE_INDEX = LENGTHC(KX$PACKET) + L2EXT;

  28455   2 00242B  E847 003D                            LDR,R6   L2EXT,AUTO
          2 00242D  6E15                                 ADV,R6   21
          2 00242E  EF47 0032                            STR,R6   BYTE_INDEX,AUTO

     5112    28456    2       TEMP0 = KX$L3.LCLADR.SIZ;

  28456   2 002430  ECC7 0008                            LDB,B6   L3$,AUTO
          2 002432  D2C6 0077                            LLH,R5   119,B6
          2 002434  DF47 002A                            STR,R5   TEMP0,AUTO

     5113    28457    2       TEMP1 = KX$L3.CALL_OPTS.RCVADR.SIZ;

  28457   2 002436  C2C6 0017                            LLH,R4   23,B6
          2 002438  CF47 002B                            STR,R4   TEMP1,AUTO

     5114    28458    2       BYTE_ARRAY(BYTE_INDEX) = TEMP0*16 + TEMP1;

  28458   2 00243A  5004                                 SOL,R5   4
          2 00243B  DA54                                 ADD,R5   R4
          2 00243C  DCC7 0006                            LDB,B5   DAT$,AUTO
          2 00243E  B856                                 LDR,R3   R6
          2 00243F  D7B5                                 STH,R5   ,B5,R3

     5115    28459    2       BYTE_INDEX = BYTE_INDEX + 1;
PL6.E3A0      #001=KXP$PACKET File=KXP$PACKET.:E05TSI                            WED 07/30/97 02:24 Page:606

  28459   2 002440  8AC7 0032                            INC      BYTE_INDEX,AUTO

     5116    28460    2       TEMP0 = (TEMP0 + 1 ) / 2 ;

  28460   2 002442  D847 002A                            LDR,R5   TEMP0,AUTO
          2 002444  5E01                                 ADV,R5   1
          2 002445  5041                                 SOR,R5   1
          2 002446  DF47 002A                            STR,R5   TEMP0,AUTO

     5117    28461    2       TEMP1 = (TEMP1 + 1 ) / 2 ;

  28461   2 002448  C847 002B                            LDR,R4   TEMP1,AUTO
          2 00244A  4E01                                 ADV,R4   1
          2 00244B  4041                                 SOR,R4   1
          2 00244C  CF47 002B                            STR,R4   TEMP1,AUTO

     5118    28462    2       SUBSTR(DAT$->STRT1,BYTE_INDEX,TEMP1) = ADDR(KX$L3.CALL_OPTS.RCVADR.ADR_PAIR(0))
             28462                ->STRT1 ;

  28462   2 00244E  AB86                                 LAB,B2   ,B6
          2 00244F  2C2F                                 LDV,R2   47
          2 002450  E854                                 LDR,R6   R4
          2 002451  BCC7 0006                            LDB,B3   DAT$,AUTO
          2 002453  B847 0032                            LDR,R3   BYTE_INDEX,AUTO
          2 002455  0008                                 MMM

     5119    28463    2       IF MOD(KX$L3.CALL_OPTS.RCVADR.SIZ,2) = 0

  28463   2 002456  DCC7 0008                            LDB,B5   L3$,AUTO
          2 002458  E2C5 0017                            LLH,R6   23,B5
          2 00245A  E570 0001                            AND,R6   1,IMO
          2 00245C  6981 0019                            BNEZ,R6  s:28472,PREL

     5120    28464    2          THEN
     5121    28465    3             DO;

PL6.E3A0      #001=KXP$PACKET File=KXP$PACKET.:E05TSI                            WED 07/30/97 02:24 Page:607
     5122    28466    3                BYTE_INDEX = BYTE_INDEX + TEMP1;

  28466   2 00245E  E847 0032                            LDR,R6   BYTE_INDEX,AUTO
          2 002460  EA47 002B                            ADD,R6   TEMP1,AUTO
          2 002462  EF47 0032                            STR,R6   BYTE_INDEX,AUTO

     5123    28467    3               SUBSTR(DAT$->STRT0,BYTE_INDEX,TEMP0) = ADDR(KX$L3.LCLADR.ADR_PAIR(0))->
             28467                         STRT0;

  28467   2 002464  ABC5 0077                            LAB,B2   119,B5
          2 002466  2C01                                 LDV,R2   1
          2 002467  E847 002A                            LDR,R6   TEMP0,AUTO
          2 002469  BCC7 0006                            LDB,B3   DAT$,AUTO
          2 00246B  B847 0032                            LDR,R3   BYTE_INDEX,AUTO
          2 00246D  0008                                 MMM

     5124    28468    3                BYTE_INDEX = BYTE_INDEX + TEMP0;

  28468   2 00246E  E847 0032                            LDR,R6   BYTE_INDEX,AUTO
          2 002470  EA47 002A                            ADD,R6   TEMP0,AUTO
          2 002472  EF47 0032                            STR,R6   BYTE_INDEX,AUTO

     5125    28469    3             END;

  28469   2 002474  0F81 0037                            B        s:28475,PREL

     5126    28470    2          ELSE
     5127    28471    3             DO;

     5128    28472    3                PINCRC(DAT$,KX$L3.CALL_OPTS.RCVADR.SIZ/2+BYTE_INDEX)->ADR2.ADR = ADDR(
             28472                         KX$L3.LCLADR)->ADR1.ADR;

  28472   2 002476  E2C5 0017                            LLH,R6   23,B5
          2 002478  6041                                 SOR,R6   1
          2 002479  EA47 0032                            ADD,R6   BYTE_INDEX,AUTO
          2 00247B  EF47 00BC                            STR,R6   KV@USRENT+5,AUTO
          2 00247D  8CC7 0006                            LDI      DAT$,AUTO
PL6.E3A0      #001=KXP$PACKET File=KXP$PACKET.:E05TSI                            WED 07/30/97 02:24 Page:608
          2 00247F  7031                                 DCL,R7   1
          2 002480  8D47 00BD                            SDI      KV@USRENT+6,AUTO
          2 002482  F847 00BC                            LDR,R7   KV@USRENT+5,AUTO
          2 002484  6C00                                 LDV,R6   0
          2 002485  8447 00BD                            AID      KV@USRENT+6,AUTO
          2 002487  7071                                 DCR,R7   1
          2 002488  B856                                 LDR,R3   R6
          2 002489  E570 7FFF                            AND,R6   32767,IMO
          2 00248B  8D47 00BF                            SDI      KV@USRENT+8,AUTO
          2 00248D  CCC7 00BF                            LDB,B4   KV@USRENT+8,AUTO
          2 00248F  304F                                 SOR,R3   15
          2 002490  BF47 00C1                            STR,R3   KV@USRENT+10,AUTO
          2 002492  CFC7 00C2                            STB,B4   KV@USRENT+11,AUTO
          2 002494  ABC5 0077                            LAB,B2   119,B5
          2 002496  2C08                                 LDV,R2   8
          2 002497  6C38                                 LDV,R6   56
          2 002498  BB84                                 LAB,B3   ,B4
          2 002499  3003                                 SOL,R3   3
          2 00249A  3E04                                 ADV,R3   4
          2 00249B  7C38                                 LDV,R7   56
          2 00249C  D380 0000 0000  xent                 LNJ,B5   X6B_BLR

     5129    28473    3               BYTE_INDEX = BYTE_INDEX + (KX$L3.LCLADR.SIZ+KX$L3.CALL_OPTS.RCVADR.SIZ+
             28473                         1)/2;

  28473   2 00249F  ECC7 0008                            LDB,B6   L3$,AUTO
          2 0024A1  E2C6 0077                            LLH,R6   119,B6
          2 0024A3  D2C6 0017                            LLH,R5   23,B6
          2 0024A5  EA55                                 ADD,R6   R5
          2 0024A6  6E01                                 ADV,R6   1
          2 0024A7  6041                                 SOR,R6   1
          2 0024A8  EA47 0032                            ADD,R6   BYTE_INDEX,AUTO
          2 0024AA  EF47 0032                            STR,R6   BYTE_INDEX,AUTO

     5130    28474    3             END;

     5131    28475    2       SENDING_CALL = '1'B;
PL6.E3A0      #001=KXP$PACKET File=KXP$PACKET.:E05TSI                            WED 07/30/97 02:24 Page:609

  28475   2 0024AC  8947 0037                            LBT,'8000'X       SENDING_CALL,AUTO
  28475   2 0024AE       8000

     5132    28476    2       KX$L3.CALL_OPTS = KX$L3.CM_OPTS;

  28476   2 0024AF  ACC7 0008                            LDB,B2   L3$,AUTO
          2 0024B1  2C36                                 LDV,R2   54
          2 0024B2  6C0E                                 LDV,R6   14
          2 0024B3  BB82                                 LAB,B3   ,B2
          2 0024B4  3C28                                 LDV,R3   40
          2 0024B5  0008                                 MMM

     5133    28477    2       CALL Y$STUFF_FACILITIES;

  28477   2 0024B6  E3C0 FC33                            LNJ,B6   s:0,PREL
          2 0024B8       0001                            DC       s:28482,PREL

     5134    28478        /*
     5135    28479                                             Finish the Call packet by
     5136    28480                                             inserting the user data.
     5137    28481        */
     5138    28482    2       IF FPT_X25.V_.ADR$ ~= ADDR(NIL)

  28482   2 0024B9  ECC7 0004                            LDB,B6   @FPT_X25,AUTO
          2 0024BB  8DC6 000B                            CMN      11,B6
          2 0024BD  0901 0016                            BE       s:28495,PREL

     5139    28483    2          THEN
     5140    28484    3             DO ;

     5141    28485    3                TEMP0 = FPT_X25.V_.BYTSIZ ;

  28485   2 0024BF  E846 000E                            LDR,R6   14,B6
          2 0024C1  EF47 002A                            STR,R6   TEMP0,AUTO

     5142    28486    3                SUBSTR(DAT$->STRT0,BYTE_INDEX,TEMP0) =
PL6.E3A0      #001=KXP$PACKET File=KXP$PACKET.:E05TSI                            WED 07/30/97 02:24 Page:610

  28486   2 0024C3  DCC6 000B                            LDB,B5   11,B6
          2 0024C5  D846 000D                            LDR,R5   13,B6
          2 0024C7  AB85                                 LAB,B2   ,B5
          2 0024C8  A855                                 LDR,R2   R5
          2 0024C9  BCC7 0006                            LDB,B3   DAT$,AUTO
          2 0024CB  B847 0032                            LDR,R3   BYTE_INDEX,AUTO
          2 0024CD  0008                                 MMM

     5143    28487    3                   SUBSTR(FPT_X25.V_.ADR$->STRT0,FPT_X25.V_.BYTX,TEMP0) ;
     5144    28488    3                BYTE_INDEX = BYTE_INDEX + TEMP0 ;

  28488   2 0024CE  E847 0032                            LDR,R6   BYTE_INDEX,AUTO
          2 0024D0  EA47 002A                            ADD,R6   TEMP0,AUTO
          2 0024D2  EF47 0032                            STR,R6   BYTE_INDEX,AUTO

     5145    28489
     5146    28490    3             END;

     5147    28491        /*
     5148    28492                                             Now that the packet is built,
     5149    28493                                             stuff the size.
     5150    28494        */
     5151    28495    2       KX$DATA.CNT = BYTE_INDEX - LENGTHC(KX$DATA);

  28495   2 0024D4  DCC7 0006                            LDB,B5   DAT$,AUTO
          2 0024D6  E847 0032                            LDR,R6   BYTE_INDEX,AUTO
          2 0024D8  6EF0                                 ADV,R6   -16
          2 0024D9  EF45 0007                            STR,R6   7,B5

     5152    28496
     5153    28497    2       OUT_PKTHDR.TYPE = %Y_ID_CALL#;

  28497   2 0024DB  5C0B                                 LDV,R5   11
          2 0024DC  D780 0000 0004  01                   STH,R5   OUT_PKTHDR+1

     5154    28498
PL6.E3A0      #001=KXP$PACKET File=KXP$PACKET.:E05TSI                            WED 07/30/97 02:24 Page:611
     5155    28499        /* Send the packet*/
     5156    28500
     5157    28501    2       CALL Y$PACKET_OUT;

  28501   2 0024DF  E3C0 ED15                            LNJ,B6   s:0,PREL
          2 0024E1       0001                            DC       s:28505,PREL

     5158    28502
     5159    28503        /* Stats*/
     5160    28504
     5161    28505    2       KX_STATS_X25.CALLS_OUT = KX_STATS_X25.CALLS_OUT + 1;

  28505   2 0024E2  8A80 0000 002B  xsym                 INC      KX_STATS_X25+43
          2 0024E5  8E80 0000 002A  xsym                 CAD      KX_STATS_X25+42

     5162    28506
     5163    28507    3       IF KX$L3.RTRCNT = 0 THEN DO;

  28507   2 0024E8  ECC7 0008                            LDB,B6   L3$,AUTO
          2 0024EA  E2C6 0072                            LLH,R6   114,B6
          2 0024EC  6981 0009                            BNEZ,R6  s:28511,PREL

     5164    28508    3                ERCOD = CALL_OUT;

  28508   2 0024EE  8C80 0000 03A6  00                   LDI      CALL_OUT
          2 0024F1  8D47 0022                            SDI      ERCOD,AUTO

     5165    28509    3                CALL Y$ER2;

  28509   2 0024F3  E3C0 03B3                            LNJ,B6   s:0,PREL
          2 0024F5       0001                            DC       s:28511,PREL

     5166    28510    3             END;

     5167    28511    2   END /* SUBROUTINE */;

  28511   2 0024F6  ECC7 004E                            LDB,B6   TERMID+8,AUTO
PL6.E3A0      #001=KXP$PACKET File=KXP$PACKET.:E05TSI                            WED 07/30/97 02:24 Page:612
          2 0024F8  C3C6 0001                            LNJ,B4   1,B6

     5168    28512
     5169    28513
     5170    28514        %EJECT;
PL6.E3A0      #001=KXP$PACKET File=KXP$PACKET.:E05TSI                            WED 07/30/97 02:24 Page:613
     5171    28515        /*I* NAME: Y$GETDAT                                */
     5172    28516        /*I* PURPOSE: To supply data to the Frame level    */
     5173    28517        /*I* CALL: CALL Y$GETDAT                           */
     5174    28518        /*I* INPUT: L2$ -> level 2 context                 */
     5175    28519        /*I* OUTPUT: Data supplied to the Frame level      */
     5176    28520
     5177    28521    1   Y$GETDAT: PROC;

  28521   2 0024FA  EFC7 004E            Y$GETDAT        STB,B6   TERMID+8,AUTO

     5178    28522
     5179    28523    2   DCL FOUND_ONE BIT(1);
     5180    28524        %FPT_X25 ( FPTN = CALL_L2, STCLASS = STATIC, EVN = %KX_F_EV_DATA_OUT#);
     5181    28568        %FPT_X25 ( FPTN = CALL_L3, STCLASS = STATIC);
     5182    28612        %FPT_X25 ( FPTN = CALL_CM, STCLASS = STATIC);
     5183    28656    2   DCL T$ PTR;
     5184    28657    2   DCL Y@BYTE UBIN BYTE UNAL;
     5185    28658    2   DCL 1 PS_PR REDEF Y@BYTE,
     5186    28659    2         2 PR UBIN(3) UNAL,
     5187    28660    2         2 M BIT(1) UNAL,
     5188    28661    2         2 PS UBIN(3) UNAL,
     5189    28662    2         2 * BIT(1) UNAL;
     5190    28663        /*
     5191    28664           CALL_L2.RCV$ is used to prevent re-entrance.
     5192    28665        */
     5193    28666
     5194    28667    2       IF CALL_L2.RCV$ ~= ADDR(NIL)

  28667   2 0024FC  8D80 0000 0019  01                   CMN      CALL_L2+3
          2 0024FF  0901 0005                            BE       s:28670,PREL

     5195    28668    2          THEN
     5196    28669    2             RETURN;

  28669   2 002501  ECC7 004E                            LDB,B6   TERMID+8,AUTO
          2 002503  C3C6 0001                            LNJ,B4   1,B6

PL6.E3A0      #001=KXP$PACKET File=KXP$PACKET.:E05TSI                            WED 07/30/97 02:24 Page:614
     5197    28670    2       CALL_L2.RCV$ = L2$;

  28670   2 002505  DCC7 000C                            LDB,B5   L2$,AUTO
          2 002507  DF80 0000 0019  01                   STB,B5   CALL_L2+3

     5198    28671    2       CALL_L3.CAL$ = L2$;

  28671   2 00250A  DF80 0000 0027  01                   STB,B5   CALL_L3+1

     5199    28672
     5200    28673    2       KX$L2.FLG.DATAVL = '0'B;

  28673   2 00250D  8845 002E                            LBF,'0002'X       46,B5
  28673   2 00250F       0002

     5201    28674        /*
     5202    28675                                             There are several types of data
     5203    28676                                             to check for.  First, a restart
     5204    28677                                             procedure may be pending.  If so,
     5205    28678                                             a Restart or Restart Confirmation
     5206    28679                                             packet will be sent.  Second,
     5207    28680                                             completed packets may be queued
     5208    28681                                             on KL$L3 context blocks.
     5209    28682                                             Third and last, pending data
     5210    28683                                             transmissions are serviced.
     5211    28684        */
     5212    28685    2       IF KX$L2.FLG.RESTART_PEND

  28685   2 002510  82C5 002E                            LB,'0004'X        46,B5
  28685   2 002512       0004
          2 002513  0581 0030                            BBF      s:28715,PREL

     5213    28686    2          THEN
     5214    28687    3             DO;

     5215    28688    3                KX$L2.FLG.RESTART_PEND = '0'B;

PL6.E3A0      #001=KXP$PACKET File=KXP$PACKET.:E05TSI                            WED 07/30/97 02:24 Page:615
  28688   2 002515  8845 002E                            LBF,'0004'X       46,B5
  28688   2 002517       0004

     5216    28689    3                IF KX$L2.FLG.RESTART

  28689   2 002518  82C5 002E                            LB,'0008'X        46,B5
  28689   2 00251A       0008
          2 00251B  0581 0006                            BBF      s:28694,PREL

     5217    28690    3                   THEN  /*             Send a restart packet  */
     5218    28691    3                      CALL Y$RESTART;

  28691   2 00251D  E3C0 FDAC                            LNJ,B6   s:0,PREL
          2 00251F       0001                            DC       s:28691+3,PREL
          2 002520  0F81 0023                            B        s:28715,PREL

     5219    28692    3                   ELSE  /*             Send a Restart_C packet  */
     5220    28693    4                      DO;

     5221    28694    4                         CALL Y$RESTART_C;

  28694   2 002522  E3C0 FDB7                            LNJ,B6   s:0,PREL
          2 002524       0001                            DC       s:28700,PREL

     5222    28695        /*
     5223    28696                                             Since the restart procedure is
     5224    28697                                             now completed, start the level
     5225    28698                                             3 contexts.
     5226    28699        */
     5227    28700    4                         CALL_L3.EVN = %KX_P_EV_START#;

  28700   2 002525  6C01                                 LDV,R6   1
          2 002526  EF00 0000 0026  01                   STR,R6   CALL_L3

     5228    28701    4                         L3$ = KX$L2.L3_HEAD$;

  28701   2 002529  ECC7 000C                            LDB,B6   L2$,AUTO
PL6.E3A0      #001=KXP$PACKET File=KXP$PACKET.:E05TSI                            WED 07/30/97 02:24 Page:616
          2 00252B  DCC6 0034                            LDB,B5   52,B6
          2 00252D  DFC7 0008                            STB,B5   L3$,AUTO

     5229    28702    5                         DO WHILE ( L3$ ~= ADDR(NIL));

  28702   2 00252F  0F81 0011                            B        s:28706,PREL

     5230    28703    5                            CALL_L3.RCV$ = L3$;

  28703   2 002531  ECC7 0008                            LDB,B6   L3$,AUTO
          2 002533  EF80 0000 0029  01                   STB,B6   CALL_L3+3

     5231    28704    5                            L3$ = KX$L3.NEXT$;

  28704   2 002536  DC86                                 LDB,B5   ,B6
          2 002537  DFC7 0008                            STB,B5   L3$,AUTO

     5232    28705    5                            CALL KXP$PACKET ( CALL_L3 );

  28705   2 002539  BB80 0000 0008  03                   LAB,B3   +8
          2 00253C  CBF0 0100                            LAB,B4   256,IMO
          2 00253E  E3C0 DAC1                            LNJ,B6   s:13,PREL
          2 002540       0001                            DC       s:28706,PREL

     5233    28706    5                         END;

  28706   2 002541  8DC7 0008                            CMN      L3$,AUTO
          2 002543  09EE                                 BNE      s:28703,SPREL

     5234    28707    4                      END;

     5235    28708    3             END;

     5236    28709        /*
     5237    28710                                             Now for the second check - any
     5238    28711                                             previously constructed packets
     5239    28712                                             that are still queued to the
PL6.E3A0      #001=KXP$PACKET File=KXP$PACKET.:E05TSI                            WED 07/30/97 02:24 Page:617
     5240    28713                                             L3 context.
     5241    28714        */
     5242    28715    2       IF KX$L2.FLG.BLK OR NOT KX$L2.FLG.OK THEN GOTO L2_BLOCKED;

  28715   2 002544  ECC7 000C                            LDB,B6   L2$,AUTO
          2 002546  89C6 002E                            CMZ      46,B6
          2 002548  0801 01B3                            BAL      s:28866,PREL
          2 00254A  82C6 002E                            LB,'0800'X        46,B6
          2 00254C       0800
          2 00254D  0581 01AE                            BBF      s:28866,PREL

     5243    28716    3       DO UNTIL NOT FOUND_ONE;

     5244    28717    3          FOUND_ONE = '0'B;

  28717   2 00254F  8747 0050                            CL       FOUND_ONE,AUTO

     5245    28718    3          L3$ = KX$L2.L3_HEAD$;

  28718   2 002551  ECC7 000C                            LDB,B6   L2$,AUTO
          2 002553  DCC6 0034                            LDB,B5   52,B6
          2 002555  DFC7 0008                            STB,B5   L3$,AUTO

     5246    28719    4          DO WHILE L3$ ~= ADDR(NIL);

  28719   2 002557  0F81 0107                            B        s:28807,PREL

     5247    28720        /*
     5248    28721                                             Send everything for each context
     5249    28722                                             block, provided level 2 does not
     5250    28723                                             become blocked.
     5251    28724        */
     5252    28725    4             CALL_L2.CAL$ = L3$;

  28725   2 002559  ECC7 0008                            LDB,B6   L3$,AUTO
          2 00255B  EF80 0000 0017  01                   STB,B6   CALL_L2+1

PL6.E3A0      #001=KXP$PACKET File=KXP$PACKET.:E05TSI                            WED 07/30/97 02:24 Page:618
     5253    28726    4             IF KX$L3.CTL_Q_HEAD$ ~= ADDR(NIL)

  28726   2 00255E  8DC6 003F                            CMN      63,B6
          2 002560  0901 0041                            BE       s:28752,PREL

     5254    28727    4                THEN
     5255    28728    5                   DO;

     5256    28729    5                      CALL_L2.PRM1$ = KX$L3.CTL_Q_HEAD$;

  28729   2 002562  DCC6 003F                            LDB,B5   63,B6
          2 002564  DF80 0000 001D  01                   STB,B5   CALL_L2+7

     5257    28730    5                      KX$L3.CTL_Q_HEAD$ = CALL_L2.PRM1$ -> KX$TDATA.L3_LIST$;

  28730   2 002567  CCC5 0004                            LDB,B4   4,B5
          2 002569  CFC6 003F                            STB,B4   63,B6

     5258    28731    5                      IF KX$L3.CTL_Q_HEAD$ = ADDR(NIL)

  28731   2 00256B  8DC6 003F                            CMN      63,B6
          2 00256D  0981 0003                            BNE      s:28734,PREL

     5259    28732    5                         THEN
     5260    28733    5                            KX$L3.CTL_Q_TAIL$ = KX$L3.CTL_Q_HEAD$;

  28733   2 00256F  CFC6 0041                            STB,B4   65,B6

     5261    28734    5                      TEMP1 = LENGTHC(KX$PACKET) + L2EXT - 1;

  28734   2 002571  E847 003D                            LDR,R6   L2EXT,AUTO
          2 002573  6E14                                 ADV,R6   20
          2 002574  EF47 002B                            STR,R6   TEMP1,AUTO

     5262    28735    5                      TEMP2 = MOD ( CALL_L2.PRM1$->BYTE_ARRAY(TEMP1), 16 );

  28735   2 002576  B856                                 LDR,R3   R6
PL6.E3A0      #001=KXP$PACKET File=KXP$PACKET.:E05TSI                            WED 07/30/97 02:24 Page:619
          2 002577  D2B5                                 LLH,R5   ,B5,R3
          2 002578  D570 000F                            AND,R5   15,IMO
          2 00257A  DF47 0044                            STR,R5   TEMP2,AUTO

     5263    28736    5                      IF (TEMP2 = 1 OR TEMP2 = 5)

  28736   2 00257C  5D01                                 CMV,R5   1
          2 00257D  0901 0004                            BE       s:28739,PREL
          2 00257F  5D05                                 CMV,R5   5
          2 002580  0981 001F                            BNE      s:28750,PREL

     5264    28737        /* That's the way to tell if it is RR/RNR or something else */
     5265    28738    5                         THEN
     5266    28739    5                            IF NOT KX$L3.EXTSEQ

  28739   2 002582  82C6 0029                            LB,'0020'X        41,B6
  28739   2 002584       0020
          2 002585  0501 000F                            BBT      s:28747,PREL

     5267    28740    5                               THEN
     5268    28741    6                                  DO;

     5269    28742    6                                     Y@BYTE = CALL_L2.PRM1$->BYTE_ARRAY(TEMP1);

  28742   2 002587  C2B5                                 LLH,R4   ,B5,R3
          2 002588  C7C7 0053                            STH,R4   Y@BYTE,AUTO

     5270    28743    6                                     PS_PR.PR = KX$L3.VR;

  28743   2 00258A  A846 002F                            LDR,R2   47,B6
          2 00258C  200D                                 SOL,R2   13
          2 00258D  AAC7 0053                            SRM,R2,'E000'X    Y@BYTE,AUTO
          2 00258F       E000

     5271    28744    6                                     CALL_L2.PRM1$->BYTE_ARRAY(TEMP1) = Y@BYTE;

  28744   2 002590  A2C7 0053                            LLH,R2   Y@BYTE,AUTO
PL6.E3A0      #001=KXP$PACKET File=KXP$PACKET.:E05TSI                            WED 07/30/97 02:24 Page:620
          2 002592  A7B5                                 STH,R2   ,B5,R3

     5272    28745    6                                  END;

  28745   2 002593  0F81 000C                            B        s:28750,PREL

     5273    28746    5                               ELSE
     5274    28747    5                                  CALL_L2.PRM1$->BYTE_ARRAY(TEMP1+1) =

  28747   2 002595  3E01                                 ADV,R3   1
          2 002596  C2B5                                 LLH,R4   ,B5,R3
          2 002597  C570 0001                            AND,R4   1,IMO
          2 002599  A846 002F                            LDR,R2   47,B6
          2 00259B  2001                                 SOL,R2   1
          2 00259C  A570 01FE                            AND,R2   510,IMO
          2 00259E  AA54                                 ADD,R2   R4
          2 00259F  A7B5                                 STH,R2   ,B5,R3

     5275    28748    5                                     MOD(CALL_L2.PRM1$->BYTE_ARRAY(TEMP1+1),2)+
     5276    28749    5                                     KX$L3.VR*2;
     5277    28750    5                      GOTO CALL_KXF;

  28750   2 0025A0  0F81 008F                            B        s:28794,PREL

     5278    28751    5                   END;
     5279    28752    4             IF NOT KX$L3.BLK AND NOT KX$L3.RNR AND KX$L3.RTR$ ~= ADDR(NIL)

  28752   2 0025A2  82C6 0029                            LB,'2000'X        41,B6
  28752   2 0025A4       2000
          2 0025A5  0501 0096                            BBT      s:28796,PREL
          2 0025A7  82C6 0029                            LB,'0800'X        41,B6
          2 0025A9       0800
          2 0025AA  0501 0091                            BBT      s:28796,PREL
          2 0025AC  8DC6 0043                            CMN      67,B6
          2 0025AE  0901 008D                            BE       s:28796,PREL
          2 0025B0  E2C6 0031                            LLH,R6   49,B6
          2 0025B2  6D09                                 CMV,R6   9
PL6.E3A0      #001=KXP$PACKET File=KXP$PACKET.:E05TSI                            WED 07/30/97 02:24 Page:621
          2 0025B3  0981 0088                            BNE      s:28796,PREL

     5280    28753    4                AND KX$L3.STATE.CURRENT = %Y_ST_DATA#
     5281    28754    4                THEN
     5282    28755    5                   DO;

     5283    28756        /*
     5284    28757          We cannot retransmit a packet that L2 and L1 are not done with. Otherwise
     5285    28758          the L2 queues will be screwed up.
     5286    28759        */
     5287    28760    5                      IF NOT KX$L3.RTR$->KX$TDATA.RLS.L2

  28760   2 0025B5  DCC6 0043                            LDB,B5   67,B6
          2 0025B7  82C5 0006                            LB,'4000'X        6,B5
          2 0025B9       4000
          2 0025BA  0581 0141                            BBF      s:28866,PREL
          2 0025BC  82C5 0006                            LB,'2000'X        6,B5
          2 0025BE       2000
          2 0025BF  0581 013C                            BBF      s:28866,PREL

     5288    28761    5                         OR NOT KX$L3.RTR$->KX$TDATA.RLS.L1
     5289    28762    5                         THEN
     5290    28763    5                            GOTO L2_BLOCKED;
     5291    28764    5                      CALL_L2.PRM1$ = KX$L3.RTR$;

  28764   2 0025C1  DF80 0000 001D  01                   STB,B5   CALL_L2+7

     5292    28765    5                      KX$L3.RTR$ = CALL_L2.PRM1$ -> KX$TDATA.L3_LIST$;

  28765   2 0025C4  CCC5 0004                            LDB,B4   4,B5
          2 0025C6  CFC6 0043                            STB,B4   67,B6

     5293    28766    5                      TEMP1 = LENGTHC(KX$PACKET) + L2EXT - 1;

  28766   2 0025C8  D847 003D                            LDR,R5   L2EXT,AUTO
          2 0025CA  5E14                                 ADV,R5   20
          2 0025CB  DF47 002B                            STR,R5   TEMP1,AUTO
PL6.E3A0      #001=KXP$PACKET File=KXP$PACKET.:E05TSI                            WED 07/30/97 02:24 Page:622

     5294    28767    5                      IF NOT KX$L3.EXTSEQ

  28767   2 0025CD  82C6 0029                            LB,'0020'X        41,B6
  28767   2 0025CF       0020
          2 0025D0  0501 0016                            BBT      s:28777,PREL

     5295    28768    5                         THEN
     5296    28769    6                            DO;

     5297    28770    6                               Y@BYTE = CALL_L2.PRM1$->BYTE_ARRAY(TEMP1);

  28770   2 0025D2  B855                                 LDR,R3   R5
          2 0025D3  C2B5                                 LLH,R4   ,B5,R3
          2 0025D4  C7C7 0053                            STH,R4   Y@BYTE,AUTO

     5298    28771    6                               PS_PR.PR = KX$L3.VR;

  28771   2 0025D6  A846 002F                            LDR,R2   47,B6
          2 0025D8  200D                                 SOL,R2   13
          2 0025D9  AAC7 0053                            SRM,R2,'E000'X    Y@BYTE,AUTO
          2 0025DB       E000

     5299    28772    6                               PS_PR.PS = KX$L3.VS;

  28772   2 0025DC  A2C6 002F                            LLH,R2   47,B6
          2 0025DE  2009                                 SOL,R2   9
          2 0025DF  AAC7 0053                            SRM,R2,'0E00'X    Y@BYTE,AUTO
          2 0025E1       0E00

     5300    28773    6                               CALL_L2.PRM1$->BYTE_ARRAY(TEMP1) = Y@BYTE;

  28773   2 0025E2  A2C7 0053                            LLH,R2   Y@BYTE,AUTO
          2 0025E4  A7B5                                 STH,R2   ,B5,R3

     5301    28774    6                            END;

PL6.E3A0      #001=KXP$PACKET File=KXP$PACKET.:E05TSI                            WED 07/30/97 02:24 Page:623
  28774   2 0025E5  0F81 0016                            B        s:28782,PREL

     5302    28775    5                         ELSE
     5303    28776    6                            DO;

     5304    28777    6                               CALL_L2.PRM1$->BYTE_ARRAY(TEMP1+1) =

  28777   2 0025E7  B855                                 LDR,R3   R5
          2 0025E8  3E01                                 ADV,R3   1
          2 0025E9  C2B5                                 LLH,R4   ,B5,R3
          2 0025EA  C570 0001                            AND,R4   1,IMO
          2 0025EC  A846 002F                            LDR,R2   47,B6
          2 0025EE  2001                                 SOL,R2   1
          2 0025EF  A570 01FE                            AND,R2   510,IMO
          2 0025F1  AA54                                 ADD,R2   R4
          2 0025F2  A7B5                                 STH,R2   ,B5,R3

     5305    28778    6                                  MOD(CALL_L2.PRM1$->BYTE_ARRAY(TEMP1+1),2)+
     5306    28779    6                                  KX$L3.VR*2;
     5307    28780    6                               CALL_L2.PRM1$->BYTE_ARRAY(TEMP1) = KX$L3.VS*2;

  28780   2 0025F3  E2C6 002F                            LLH,R6   47,B6
          2 0025F5  6001                                 SOL,R6   1
          2 0025F6  DC80 0000 001D  01                   LDB,B5   CALL_L2+7
          2 0025F9  A847 002B                            LDR,R2   TEMP1,AUTO
          2 0025FB  E7A5                                 STH,R6   ,B5,R2

     5308    28781    6                            END;

     5309    28782    5                      KX$L3.DCNTP = 0;

  28782   2 0025FC  87C6 0030                            CLH      48,B6

     5310    28783    5                      KX$L3.VS = MOD ( KX$L3.VS + 1, 8+120*BITBIN(KX$L3.EXTSEQ));

  28783   2 0025FE  E846 0029                            LDR,R6   41,B6
          2 002600  6045                                 SOR,R6   5
PL6.E3A0      #001=KXP$PACKET File=KXP$PACKET.:E05TSI                            WED 07/30/97 02:24 Page:624
          2 002601  E570 0001                            AND,R6   1,IMO
          2 002603  F2C6 002F                            LLH,R7   47,B6
          2 002605  EF47 00BC                            STR,R6   KV@USRENT+5,AUTO
          2 002607  6C00                                 LDV,R6   0
          2 002608  8470 0000 0001                       AID      1,IMO
          2 00260B  C847 00BC                            LDR,R4   KV@USRENT+5,AUTO
          2 00260D  4F78                                 MLV,R4   120
          2 00260E  4E08                                 ADV,R4   8
          2 00260F  F354                                 DIV,R7   R4
          2 002610  E7C6 002F                            STH,R6   47,B6

     5311    28784    5                      KX$L3.DCNT = KX$L3.DCNT + 1;

  28784   2 002612  E2C6 002E                            LLH,R6   46,B6
          2 002614  6E01                                 ADV,R6   1
          2 002615  E7C6 002E                            STH,R6   46,B6

     5312    28785    5                      IF KX$L3.DCNT >= KX$L3.CALL_OPTS.SNDWND

  28785   2 002617  E2C6 002E                            LLH,R6   46,B6
          2 002619  B846 0016                            LDR,R3   22,B6
          2 00261B  B570 00FF                            AND,R3   255,IMO
          2 00261D  E953                                 CMR,R6   R3
          2 00261E  0801 000A                            BAL      s:28791,PREL

     5313    28786    5                         THEN
     5314    28787    6                            DO;

     5315    28788    6                               KX$L3.BLK = '1'B;

  28788   2 002620  8946 0029                            LBT,'2000'X       41,B6
  28788   2 002622       2000

     5316    28789    6                               KX_STATS_X25.P_BLK = KX_STATS_X25.P_BLK + 1;

  28789   2 002623  8A80 0000 0035  xsym                 INC      KX_STATS_X25+53
          2 002626  8E80 0000 0034  xsym                 CAD      KX_STATS_X25+52
PL6.E3A0      #001=KXP$PACKET File=KXP$PACKET.:E05TSI                            WED 07/30/97 02:24 Page:625

     5317    28790    6                            END;

     5318    28791    5                      IF NOT KX$L3.TMRBLK.ON

  28791   2 002629  89C6 0056                            CMZ      86,B6
          2 00262B  0801 0004                            BAL      s:28794,PREL

     5319    28792    5                         THEN
     5320    28793    5                            CALL Y$START_DATTMR;

  28793   2 00262D  E3C0 0470                            LNJ,B6   s:0,PREL
          2 00262F       0001                            DC       s:28794,PREL

     5321    28794    5   CALL_KXF:          CALL KXF$FRAME ( CALL_L2 );

  28794   2 002630  BB80 0000 000A  03   CALL_KXF        LAB,B3   +10
          2 002633  CBF0 0100                            LAB,B4   256,IMO
          2 002635  E380 0000 0000  xent                 LNJ,B6   KXF$FRAME
          2 002638       0001                            DC       s:28795,PREL

     5322    28795    5                      FOUND_ONE = '1'B;

  28795   2 002639  8947 0050                            LBT,'8000'X       FOUND_ONE,AUTO
  28795   2 00263B       8000

     5323    28796    5                   END;

     5324    28797        /*
     5325    28798                                             Is this context block to be released?
     5326    28799        */
     5327    28800    4   NXT_L3:
     5328    28801    4             TEMP2$ = L3$;

  28801   2 00263C  ECC7 0008            NXT_L3          LDB,B6   L3$,AUTO
          2 00263E  EFC7 0042                            STB,B6   TEMP2$,AUTO

PL6.E3A0      #001=KXP$PACKET File=KXP$PACKET.:E05TSI                            WED 07/30/97 02:24 Page:626
     5329    28802    4             L3$ = KX$L3.NEXT$;

  28802   2 002640  DC86                                 LDB,B5   ,B6
          2 002641  DFC7 0008                            STB,B5   L3$,AUTO

     5330    28803    4             IF TEMP2$->KX$L3.MAYBE

  28803   2 002643  82C6 0029                            LB,'1000'X        41,B6
  28803   2 002645       1000
          2 002646  0581 000D                            BBF      s:28806,PREL

     5331    28804    4                THEN
     5332    28805    4                   CALL KXS$RLSL3_MAYBE ( TEMP2$ );

  28805   2 002648  CBC7 0042                            LAB,B4   TEMP2$,AUTO
          2 00264A  CFC7 00BC                            STB,B4   KV@USRENT+5,AUTO
          2 00264C  BBC7 00BC                            LAB,B3   KV@USRENT+5,AUTO
          2 00264E  CBF0 0100                            LAB,B4   256,IMO
          2 002650  E380 0000 0000  xent                 LNJ,B6   KXS$RLSL3_MAYBE
          2 002653       0001                            DC       s:28806,PREL

     5333    28806    4             IF KX$L2.FLG.BLK OR NOT KX$L2.FLG.OK THEN GOTO L2_BLOCKED;

  28806   2 002654  ECC7 000C                            LDB,B6   L2$,AUTO
          2 002656  89C6 002E                            CMZ      46,B6
          2 002658  0801 00A3                            BAL      s:28866,PREL
          2 00265A  82C6 002E                            LB,'0800'X        46,B6
          2 00265C       0800
          2 00265D  0581 009E                            BBF      s:28866,PREL

     5334    28807    4          END;

  28807   2 00265F  8DC7 0008                            CMN      L3$,AUTO
          2 002661  0981 FEF7                            BNE      s:28725,PREL

     5335    28808    3       END;   /*  DO UNTIL ... */

PL6.E3A0      #001=KXP$PACKET File=KXP$PACKET.:E05TSI                            WED 07/30/97 02:24 Page:627
  28808   2 002663  89C7 0050                            CMZ      FOUND_ONE,AUTO
          2 002665  0801 FEE9                            BAL      s:28717,PREL

     5336    28809        /*
     5337    28810                                             The last check is for new data
     5338    28811                                             to transmit. There is some added
     5339    28812                                             complexity in this loop since it
     5340    28813                                             is actually traversed several
     5341    28814                                             times.  This allows each L3 a
     5342    28815                                             shot at sending a packet before
     5343    28816                                             one busy L3 hogs the window.
     5344    28817        */
     5345    28818    3       DO UNTIL NOT FOUND_ONE;

     5346    28819    3          IF NOT KX$L2.FLG.BLK THEN KX$L2.FLG.DATAVL = '0'B;

  28819   2 002667  ECC7 000C                            LDB,B6   L2$,AUTO
          2 002669  89C6 002E                            CMZ      46,B6
          2 00266B  0801 0004                            BAL      s:28820,PREL

  28819   2 00266D  8846 002E                            LBF,'0002'X       46,B6
  28819   2 00266F       0002

     5347    28820    3          L3$ = KX$L2.L3_HEAD$;

  28820   2 002670  DCC6 0034                            LDB,B5   52,B6
          2 002672  DFC7 0008                            STB,B5   L3$,AUTO

     5348    28821    3          FOUND_ONE = '0'B;

  28821   2 002674  8747 0050                            CL       FOUND_ONE,AUTO

     5349    28822    4          DO WHILE ( L3$ ~= ADDR(NIL));

  28822   2 002676  0F81 0064                            B        s:28859,PREL

     5350    28823    4             IF NOT KX$L3.BLK AND NOT KX$L3.RNR
PL6.E3A0      #001=KXP$PACKET File=KXP$PACKET.:E05TSI                            WED 07/30/97 02:24 Page:628

  28823   2 002678  ECC7 0008                            LDB,B6   L3$,AUTO
          2 00267A  82C6 0029                            LB,'2000'X        41,B6
          2 00267C       2000
          2 00267D  0501 0058                            BBT      s:28857,PREL
          2 00267F  82C6 0029                            LB,'0800'X        41,B6
          2 002681       0800
          2 002682  0501 0053                            BBT      s:28857,PREL
          2 002684  E2C6 0031                            LLH,R6   49,B6
          2 002686  6D09                                 CMV,R6   9
          2 002687  0981 004E                            BNE      s:28857,PREL

     5351    28824    4                AND KX$L3.STATE.CURRENT = %Y_ST_DATA#
     5352    28825    4                THEN
     5353    28826    5                   DO;

     5354    28827        /*
     5355    28828                                             This inner loop does not check
     5356    28829                                             KX$L2.FLG.BLK.  This allows every
     5357    28830                                             every L3 to construct at least
     5358    28831                                         one data packet, if L3 is not blocked. If the data
     5359    28832                                             could not be sent immediately,
     5360    28833                                             it is queued to the context.
     5361    28834        */
     5362    28835    5                      IF KX$L3.OUT_.ADR$ = ADDR(NIL) /*N* AND KX$L3.DATA */

  28835   2 002689  8DC6 000D                            CMN      13,B6
          2 00268B  0981 0037                            BNE      s:28850,PREL

     5363    28836    5                         THEN /*                Try to get some data  */
     5364    28837    6                            DO;

     5365    28838    6                               CALL_CM.CAL$ = L3$;

  28838   2 00268D  EF80 0000 0037  01                   STB,B6   CALL_CM+1

     5366    28839    6                               CALL_CM.RCV$ = KX$L3.CM$;
PL6.E3A0      #001=KXP$PACKET File=KXP$PACKET.:E05TSI                            WED 07/30/97 02:24 Page:629

  28839   2 002690  DCC6 0004                            LDB,B5   4,B6
          2 002692  DF80 0000 0039  01                   STB,B5   CALL_CM+3

     5367    28840    6                               CALL_CM.EVN = %KX_CM_EV_DATRQS#;

  28840   2 002695  6C0C                                 LDV,R6   12
          2 002696  EF00 0000 0036  01                   STR,R6   CALL_CM

     5368    28841    6                               CALL CALL_CM.RCV$->Y@CNCMNG ( CALL_CM );

  28841   2 002699  BB80 0000 000C  03                   LAB,B3   +12
          2 00269C  9C85                                 LDB,B1   ,B5
          2 00269D  CBF0 0100                            LAB,B4   256,IMO
          2 00269F  E381                                 LNJ,B6   ,B1
          2 0026A0       0001                            DC       s:28842,PREL

     5369    28842    6                               IF CALL_CM.V_.BYTSIZ = 0

  28842   2 0026A1  E800 0000 0044  01                   LDR,R6   CALL_CM+14
          2 0026A4  6901 0031                            BEZ,R6   s:28857,PREL

     5370    28843    6                                  THEN
     5371    28844    6                                     GOTO NO_DATA;
     5372    28845    6                               KX$L3.OUT_ = CALL_CM.V_;

  28845   2 0026A6  EB80 0000 0000  01                   LAB,B6   IN_PKTHDR
          2 0026A9  DCC7 0008                            LDB,B5   L3$,AUTO
          2 0026AB  5C0A                                 LDV,R5   10
          2 0026AC  0021                                 ALR      ;
          2 0026AD       4806 0041                                ALPHANUM(65,B6,,8),;
          2 0026AF       4005 000D                                ALPHANUM(13,B5,,R5,FILL)

     5373    28846    6                               CALL_CM.V_.BYTSIZ = 0;

  28846   2 0026B1  437F                                 CSYNC    s:28845+10,SPREL
          2 0026B2  8700 0000 0044  01                   CL       CALL_CM+14
PL6.E3A0      #001=KXP$PACKET File=KXP$PACKET.:E05TSI                            WED 07/30/97 02:24 Page:630

     5374    28847    6                               KX$L3.OUT_QBIT = CALL_CM.PRS.PRM1;

  28847   2 0026B5  E800 0000 0045  01                   LDR,R6   CALL_CM+15
          2 0026B8  6041                                 SOR,R6   1
          2 0026B9  EAC5 002A                            SRM,R6,'4000'X    42,B5
          2 0026BB       4000

     5375    28848    6                               KX$L3.OUT_MBIT = CALL_CM.PRS.PRM2;

  28848   2 0026BC  E800 0000 0045  01                   LDR,R6   CALL_CM+15
          2 0026BF  6042                                 SOR,R6   2
          2 0026C0  EAC5 002A                            SRM,R6,'1000'X    42,B5
          2 0026C2       1000

     5376    28849    6                            END;

     5377    28850    5                      IF KX$L3.OUT_.ADR$ ~= ADDR(NIL)

  28850   2 0026C3  ECC7 0008                            LDB,B6   L3$,AUTO
          2 0026C5  8DC6 000D                            CMN      13,B6
          2 0026C7  0901 000E                            BE       s:28857,PREL

     5378    28851    5                         THEN
     5379    28852    6                            DO;

     5380    28853    6                               FOUND_ONE = '1'B;

  28853   2 0026C9  8947 0050                            LBT,'8000'X       FOUND_ONE,AUTO
  28853   2 0026CB       8000

     5381    28854    6                               L3EXT = BITBIN(KX$L3.EXTSEQ);

  28854   2 0026CC  E846 0029                            LDR,R6   41,B6
          2 0026CE  6045                                 SOR,R6   5
          2 0026CF  E570 0001                            AND,R6   1,IMO
          2 0026D1  EF47 003E                            STR,R6   L3EXT,AUTO
PL6.E3A0      #001=KXP$PACKET File=KXP$PACKET.:E05TSI                            WED 07/30/97 02:24 Page:631

     5382    28855    6                               CALL Y$DATOUT;

  28855   2 0026D3  E3C0 0226                            LNJ,B6   s:0,PREL
          2 0026D5       0001                            DC       s:28857,PREL

     5383    28856    6                            END;

     5384    28857    5                   END;

     5385    28858    4   NO_DATA:  L3$ = KX$L3.NEXT$;

  28858   2 0026D6  ECC7 0008            NO_DATA         LDB,B6   L3$,AUTO
          2 0026D8  DC86                                 LDB,B5   ,B6
          2 0026D9  DFC7 0008                            STB,B5   L3$,AUTO

     5386    28859    4          END;

  28859   2 0026DB  8DC7 0008                            CMN      L3$,AUTO
          2 0026DD  0981 FF9A                            BNE      s:28823,PREL

     5387    28860    3          IF FOUND_ONE AND ( KX$L2.FLG.BLK OR NOT KX$L2.FLG.OK ) THEN GOTO L2_BLOCKED;

  28860   2 0026DF  89C7 0050                            CMZ      FOUND_ONE,AUTO
          2 0026E1  0881 000C                            BAGE     s:28861,PREL
          2 0026E3  ECC7 000C                            LDB,B6   L2$,AUTO
          2 0026E5  89C6 002E                            CMZ      46,B6
          2 0026E7  0801 0014                            BAL      s:28866,PREL
          2 0026E9  82C6 002E                            LB,'0800'X        46,B6
          2 0026EB       0800
          2 0026EC  0581 000F                            BBF      s:28866,PREL

     5388    28861    3       END;

  28861   2 0026EE  89C7 0050                            CMZ      FOUND_ONE,AUTO
          2 0026F0  0801 FF76                            BAL      s:28819,PREL

PL6.E3A0      #001=KXP$PACKET File=KXP$PACKET.:E05TSI                            WED 07/30/97 02:24 Page:632
     5389    28862
     5390    28863    2       CALL_L2.RCV$ = ADDR(NIL);

  28863   2 0026F2  EB80 0000 0000                       LAB,B6   0
          2 0026F5  EF80 0000 0019  01                   STB,B6   CALL_L2+3

     5391    28864    2       RETURN;

  28864   2 0026F8  ECC7 004E                            LDB,B6   TERMID+8,AUTO
          2 0026FA  C3C6 0001                            LNJ,B4   1,B6

     5392    28865
     5393    28866    2   L2_BLOCKED: KX$L2.FLG.DATAVL = '1'B;

  28866   2 0026FC  ECC7 000C            L2_BLOCKED      LDB,B6   L2$,AUTO
          2 0026FE  8946 002E                            LBT,'0002'X       46,B6
          2 002700       0002

     5394    28867    2       CALL_L2.RCV$ = ADDR(NIL);

  28867   2 002701  DB80 0000 0000                       LAB,B5   0
          2 002704  DF80 0000 0019  01                   STB,B5   CALL_L2+3

     5395    28868    2       KX_STATS_X25.F_BLK = KX_STATS_X25.F_BLK + 1;

  28868   2 002707  8A80 0000 0043  xsym                 INC      KX_STATS_X25+67
          2 00270A  8E80 0000 0042  xsym                 CAD      KX_STATS_X25+66

     5396    28869    2       RETURN;

  28869   2 00270D  ECC7 004E                            LDB,B6   TERMID+8,AUTO
          2 00270F  C3C6 0001                            LNJ,B4   1,B6

     5397    28870    2   END; /* Y$GETDAT */
     5398    28871        %EJECT;
PL6.E3A0      #001=KXP$PACKET File=KXP$PACKET.:E05TSI                            WED 07/30/97 02:24 Page:633
     5399    28872        /*I* NAME: Y$RESET_L3CNTX*/
     5400    28873        /*I* PURPOSE: Get a level 3 context block ready for another call */
     5401    28874        /*I* CALL: CALL Y$RESET_L3CNTX */
     5402    28875        /*I* INPUT: L3$  ->  level 3 context */
     5403    28876        /*I* OUTPUT: None */
     5404    28877
     5405    28878    1   Y$RESET_L3CNTX: PROC;

  28878   2 002711  EFC7 004E            Y$RESET_L3CNTX  STB,B6   TERMID+8,AUTO

     5406    28879        /*
     5407    28880                                             Clear assorted flags
     5408    28881        */
     5409    28882    2       KX$L3.DATA = '0'B;

  28882   2 002713  DCC7 0008                            LDB,B5   L3$,AUTO
          2 002715  8845 0029                            LBF,'8000'X       41,B5
          2 002717       8000

     5410    28883    2       KX$L3.BLK = '0'B;

  28883   2 002718  8845 0029                            LBF,'2000'X       41,B5
  28883   2 00271A       2000

     5411    28884    2       KX$L3.INPBLK = '0'B;

  28884   2 00271B  8845 0029                            LBF,'0200'X       41,B5
  28884   2 00271D       0200

     5412    28885    2       KX$L3.INTPND = '0'B;

  28885   2 00271E  8845 0029                            LBF,'4000'X       41,B5
  28885   2 002720       4000

     5413    28886    2       KX$L3.RNR = '0'B;

  28886   2 002721  8845 0029                            LBF,'0800'X       41,B5
PL6.E3A0      #001=KXP$PACKET File=KXP$PACKET.:E05TSI                            WED 07/30/97 02:24 Page:634
  28886   2 002723       0800

     5414    28887    2       CALL Y$STOP_INTTMR;

  28887   2 002724  E3C0 0319                            LNJ,B6   s:0,PREL
          2 002726       0001                            DC       s:28888,PREL

     5415    28888    2       CALL Y$STOP_DATTMR;

  28888   2 002727  E3C0 0346                            LNJ,B6   s:0,PREL
          2 002729       0001                            DC       s:28895,PREL

     5416    28889        /*
     5417    28890                                             If incoming data was being
     5418    28891                                             reconstructed, it will never
     5419    28892                                             be finished.  Release the buffer
     5420    28893                                             that was in use.
     5421    28894        */
     5422    28895    2       IF KX$L3.IN_.ADR$ ~= ADDR(NIL)

  28895   2 00272A  ECC7 0008                            LDB,B6   L3$,AUTO
          2 00272C  8DC6 0008                            CMN      8,B6
          2 00272E  0901 0037                            BE       s:28910,PREL

     5423    28896    2          THEN
     5424    28897    3             DO;

     5425    28898    3                IF KX$L3.IN_.BFRSIZ = 0

  28898   2 002730  E846 000C                            LDR,R6   12,B6
          2 002732  6981 000F                            BNEZ,R6  s:28902,PREL

     5426    28899    3                   THEN
     5427    28900    3                      CALL KXS$RLSBFR ( KX$L3.IN_.ADR$ );

  28900   2 002734  DBC6 0008                            LAB,B5   8,B6
          2 002736  DFC7 00BC                            STB,B5   KV@USRENT+5,AUTO
PL6.E3A0      #001=KXP$PACKET File=KXP$PACKET.:E05TSI                            WED 07/30/97 02:24 Page:635
          2 002738  BBC7 00BC                            LAB,B3   KV@USRENT+5,AUTO
          2 00273A  CBF0 0100                            LAB,B4   256,IMO
          2 00273C  E380 0000 0000  xent                 LNJ,B6   KXS$RLSBFR
          2 00273F       0001                            DC       s:28900+12,PREL
          2 002740  0F81 0014                            B        s:28903,PREL

     5428    28901    3                   ELSE
     5429    28902    3                      CALL KVB$RLSSYS ( KX$L3.IN_.BFRSIZ/2, KX$L3.IN_.ADR$ );

  28902   2 002742  6041                                 SOR,R6   1
          2 002743  EF47 00BC                            STR,R6   KV@USRENT+5,AUTO
          2 002745  DBC6 0008                            LAB,B5   8,B6
          2 002747  DFC7 00BF                            STB,B5   KV@USRENT+8,AUTO
          2 002749  CBC7 00BC                            LAB,B4   KV@USRENT+5,AUTO
          2 00274B  CFC7 00BD                            STB,B4   KV@USRENT+6,AUTO
          2 00274D  BBC7 00BD                            LAB,B3   KV@USRENT+6,AUTO
          2 00274F  CBF0 0200                            LAB,B4   512,IMO
          2 002751  E380 0000 0000  xent                 LNJ,B6   KVB$RLSSYS
          2 002754       0001                            DC       s:28903,PREL

     5430    28903    3                KX$L3.IN_ = '0'B;

  28903   2 002755  ECC7 0008                            LDB,B6   L3$,AUTO
          2 002757  5C0A                                 LDV,R5   10
          2 002758  0021                                 ALR      ;
          2 002759       4178 0000                                ALPHANUM('0000'X,IMO,,1),;
          2 00275B       4006 0008                                ALPHANUM(8,B6,,R5,FILL)

     5431    28904    3                KX$L3.IN_QBIT = '0'B;

  28904   2 00275D  437F                                 CSYNC    s:28903+7,SPREL
          2 00275E  ECC7 0008                            LDB,B6   L3$,AUTO
          2 002760  8846 002A                            LBF,'8000'X       42,B6
          2 002762       8000

     5432    28905    3                KX$L3.IN_MBIT = '0'B;

PL6.E3A0      #001=KXP$PACKET File=KXP$PACKET.:E05TSI                            WED 07/30/97 02:24 Page:636
  28905   2 002763  8846 002A                            LBF,'2000'X       42,B6
  28905   2 002765       2000

     5433    28906    3             END;

     5434    28907        /*
     5435    28908           Delete any buffered input packets.
     5436    28909        */
     5437    28910    3       DO WHILE (KX$L3.INP_HEAD$ ~= ADDR(NIL));

  28910   2 002766  0F81 0017                            B        s:28914,PREL

     5438    28911    3          DAT$ = KX$L3.INP_HEAD$;

  28911   2 002768  ECC7 0008                            LDB,B6   L3$,AUTO
          2 00276A  DCC6 0049                            LDB,B5   73,B6
          2 00276C  DFC7 0006                            STB,B5   DAT$,AUTO

     5439    28912    3          KX$L3.INP_HEAD$ = KX$DATA.L3_LIST$;

  28912   2 00276E  CCC5 0004                            LDB,B4   4,B5
          2 002770  CFC6 0049                            STB,B4   73,B6

     5440    28913    3          CALL KXS$RLSBFR ( DAT$ );

  28913   2 002772  BBC7 0006                            LAB,B3   DAT$,AUTO
          2 002774  BFC7 00BC                            STB,B3   KV@USRENT+5,AUTO
          2 002776  BBC7 00BC                            LAB,B3   KV@USRENT+5,AUTO
          2 002778  CBF0 0100                            LAB,B4   256,IMO
          2 00277A  E380 0000 0000  xent                 LNJ,B6   KXS$RLSBFR
          2 00277D       0001                            DC       s:28914,PREL

     5441    28914    3       END;

  28914   2 00277E  ECC7 0008                            LDB,B6   L3$,AUTO
          2 002780  8DC6 0049                            CMN      73,B6
          2 002782  09E6                                 BNE      s:28911,SPREL
PL6.E3A0      #001=KXP$PACKET File=KXP$PACKET.:E05TSI                            WED 07/30/97 02:24 Page:637

     5442    28915    2       KX$L3.INP_TAIL$ = ADDR(NIL);

  28915   2 002783  DB80 0000 0000                       LAB,B5   0
          2 002786  DFC6 004B                            STB,B5   75,B6

     5443    28916        /*
     5444    28917                                             The outstanding data packet
     5445    28918                                             counts are back to 0.
     5446    28919        */
     5447    28920    2       KX$L3.DCNTP = 0;

  28920   2 002788  87C6 0030                            CLH      48,B6

     5448    28921    2       KX$L3.DCNT = 0;

  28921   2 00278A  87C6 002E                            CLH      46,B6

     5449    28922        /*
     5450    28923                                             Reset all the window values
     5451    28924        */
     5452    28925    2       KX$L3.PPR = 0;

  28925   2 00278C  8846 002E                            LBF,'00FF'X       46,B6
  28925   2 00278E       00FF

     5453    28926    2       KX$L3.VS = 0;

  28926   2 00278F  87C6 002F                            CLH      47,B6

     5454    28927    2       KX$L3.VR = 0;

  28927   2 002791  8846 002F                            LBF,'00FF'X       47,B6
  28927   2 002793       00FF

     5455    28928        /*
     5456    28929                                             Outstanding data packets must
PL6.E3A0      #001=KXP$PACKET File=KXP$PACKET.:E05TSI                            WED 07/30/97 02:24 Page:638
     5457    28930                                             be released and acknowledged
     5458    28931                                             to CM.
     5459    28932        */
     5460    28933
     5461    28934    2       KX$L2.FLG.DATAVL = '1'B;

  28934   2 002794  CCC7 000C                            LDB,B4   L2$,AUTO
          2 002796  8944 002E                            LBT,'0002'X       46,B4
          2 002798       0002

     5462    28935    2       IF KX$L3.TOACT = %KX_L3_TOACT_RSTRTR#   /* need to retransmit data pkt */

  28935   2 002799  E2C6 0075                            LLH,R6   117,B6
          2 00279B  6D03                                 CMV,R6   3
          2 00279C  0981 000F                            BNE      s:28944,PREL
          2 00279E  D2C6 0031                            LLH,R5   49,B6
          2 0027A0  5D09                                 CMV,R5   9
          2 0027A1  0901 0004                            BE       s:28940,PREL
          2 0027A3  5D0A                                 CMV,R5   10
          2 0027A4  0981 0007                            BNE      s:28944,PREL

     5463    28936    2          AND ( KX$L3.STATE.CURRENT = %Y_ST_DATA#
     5464    28937    2          OR KX$L3.STATE.CURRENT = %Y_ST_RESET# )
     5465    28938    2          THEN
     5466    28939    3             DO;

     5467    28940    3                KX$L3.RTR$ = KX$L3.D_LIST_HEAD$;

  28940   2 0027A6  DCC6 0045                            LDB,B5   69,B6
          2 0027A8  DFC6 0043                            STB,B5   67,B6

     5468    28941    3             END;

  28941   2 0027AA  0F81 003D                            B        s:28962,PREL

     5469    28942    2          ELSE
     5470    28943    3             DO;
PL6.E3A0      #001=KXP$PACKET File=KXP$PACKET.:E05TSI                            WED 07/30/97 02:24 Page:639

     5471    28944    4                DO WHILE ( KX$L3.D_LIST_HEAD$ ~= ADDR(NIL) );

  28944   2 0027AC  0F81 0022                            B        s:28951,PREL

     5472    28945    4                   DAT$ = KX$L3.D_LIST_HEAD$;

  28945   2 0027AE  ECC7 0008                            LDB,B6   L3$,AUTO
          2 0027B0  DCC6 0045                            LDB,B5   69,B6
          2 0027B2  DFC7 0006                            STB,B5   DAT$,AUTO

     5473    28946    4                   KX$L3.D_LIST_HEAD$ = KX$DATA.L3_LIST$;

  28946   2 0027B4  CCC5 0004                            LDB,B4   4,B5
          2 0027B6  CFC6 0045                            STB,B4   69,B6

     5474    28947    4                   KX$DATA.RLS.L3 = '1'B;

  28947   2 0027B8  8945 0006                            LBT,'8000'X       6,B5
  28947   2 0027BA       8000

     5475    28948    4                   IF ( KX$DATA.RLS_STAT = %KX_BFR_RLS_OK# )

  28948   2 0027BB  DCC7 0006                            LDB,B5   DAT$,AUTO
          2 0027BD  E845 0006                            LDR,R6   6,B5
          2 0027BF  604D                                 SOR,R6   13
          2 0027C0  6D07                                 CMV,R6   7
          2 0027C1  0981 000D                            BNE      s:28951,PREL

     5476    28949    4                      THEN
     5477    28950    4                         CALL KXS$RLSBFR ( DAT$ );

  28950   2 0027C3  CBC7 0006                            LAB,B4   DAT$,AUTO
          2 0027C5  CFC7 00BC                            STB,B4   KV@USRENT+5,AUTO
          2 0027C7  BBC7 00BC                            LAB,B3   KV@USRENT+5,AUTO
          2 0027C9  CBF0 0100                            LAB,B4   256,IMO
          2 0027CB  E380 0000 0000  xent                 LNJ,B6   KXS$RLSBFR
PL6.E3A0      #001=KXP$PACKET File=KXP$PACKET.:E05TSI                            WED 07/30/97 02:24 Page:640
          2 0027CE       0001                            DC       s:28951,PREL

     5478    28951    4                END /* LOOP */;

  28951   2 0027CF  ECC7 0008                            LDB,B6   L3$,AUTO
          2 0027D1  8DC6 0045                            CMN      69,B6
          2 0027D3  09DB                                 BNE      s:28945,SPREL

     5479    28952    3                KX$L3.D_LIST_TAIL$ = ADDR(NIL);

  28952   2 0027D4  DB80 0000 0000                       LAB,B5   0
          2 0027D7  DFC6 0047                            STB,B5   71,B6

     5480    28953    3                KX$L3.RTR$ = KX$L3.D_LIST_TAIL$;

  28953   2 0027D9  DFC6 0043                            STB,B5   67,B6

     5481    28954    3                KX$L3.OUT_ = '0'B;

  28954   2 0027DB  5C0A                                 LDV,R5   10
          2 0027DC  0021                                 ALR      ;
          2 0027DD       4178 0000                                ALPHANUM('0000'X,IMO,,1),;
          2 0027DF       4006 000D                                ALPHANUM(13,B6,,R5,FILL)

     5482    28955    3                KX$L3.OUT_QBIT = '0'B;

  28955   2 0027E1  437F                                 CSYNC    s:28954+5,SPREL
          2 0027E2  8846 002A                            LBF,'4000'X       42,B6
          2 0027E4       4000

     5483    28956    3                KX$L3.OUT_MBIT = '0'B;

  28956   2 0027E5  8846 002A                            LBF,'1000'X       42,B6
  28956   2 0027E7       1000

     5484    28957    3             END;

PL6.E3A0      #001=KXP$PACKET File=KXP$PACKET.:E05TSI                            WED 07/30/97 02:24 Page:641
     5485    28958
     5486    28959        /*
     5487    28960           Clear the CTL queue.
     5488    28961        */
     5489    28962    3       DO WHILE ( KX$L3.CTL_Q_HEAD$ ~= ADDR(NIL) );

  28962   2 0027E8  0F81 0017                            B        s:28966,PREL

     5490    28963    3          TEMP2$ = KX$L3.CTL_Q_HEAD$;

  28963   2 0027EA  ECC7 0008                            LDB,B6   L3$,AUTO
          2 0027EC  DCC6 003F                            LDB,B5   63,B6
          2 0027EE  DFC7 0042                            STB,B5   TEMP2$,AUTO

     5491    28964    3          KX$L3.CTL_Q_HEAD$ = TEMP2$ -> KX$TDATA.L3_LIST$;

  28964   2 0027F0  CCC5 0004                            LDB,B4   4,B5
          2 0027F2  CFC6 003F                            STB,B4   63,B6

     5492    28965    3          CALL KXS$RLSBFR ( TEMP2$ );

  28965   2 0027F4  DBC7 0042                            LAB,B5   TEMP2$,AUTO
          2 0027F6  DFC7 00BC                            STB,B5   KV@USRENT+5,AUTO
          2 0027F8  BBC7 00BC                            LAB,B3   KV@USRENT+5,AUTO
          2 0027FA  CBF0 0100                            LAB,B4   256,IMO
          2 0027FC  E380 0000 0000  xent                 LNJ,B6   KXS$RLSBFR
          2 0027FF       0001                            DC       s:28966,PREL

     5493    28966    3       END;

  28966   2 002800  ECC7 0008                            LDB,B6   L3$,AUTO
          2 002802  8DC6 003F                            CMN      63,B6
          2 002804  09E6                                 BNE      s:28963,SPREL

     5494    28967    2       KX$L3.CTL_Q_TAIL$ = ADDR(NIL);

  28967   2 002805  DB80 0000 0000                       LAB,B5   0
PL6.E3A0      #001=KXP$PACKET File=KXP$PACKET.:E05TSI                            WED 07/30/97 02:24 Page:642
          2 002808  DFC6 0041                            STB,B5   65,B6

     5495    28968        /*
     5496    28969           Restore DAT$ for main procedure.
     5497    28970        */
     5498    28971    2       DAT$ = FPT_X25.PRM1$;

  28971   2 00280A  CCC7 0004                            LDB,B4   @FPT_X25,AUTO
          2 00280C  BCC4 0007                            LDB,B3   7,B4
          2 00280E  BFC7 0006                            STB,B3   DAT$,AUTO

     5499    28972        /*
     5500    28973           Update the circuits count in the stats buffer.
     5501    28974        */
     5502    28975    2       IF (KX$L3.STATE.LAST = %Y_ST_DATA# OR KX$L3.STATE.LAST = %Y_ST_RESET#) AND
             28975                ACTION ~= %Y_ACT_RSTRCV#

  28975   2 002810  E846 0031                            LDR,R6   49,B6
          2 002812  E570 00FF                            AND,R6   255,IMO
          2 002814  6D09                                 CMV,R6   9
          2 002815  0901 0004                            BE       s:28975+10,PREL
          2 002817  6D0A                                 CMV,R6   10
          2 002818  0981 0018                            BNE      s:28979,PREL
          2 00281A  D847 0034                            LDR,R5   ACTION,AUTO
          2 00281C  5D17                                 CMV,R5   23
          2 00281D  0901 0013                            BE       s:28979,PREL
          2 00281F  5D14                                 CMV,R5   20
          2 002820  0901 0010                            BE       s:28979,PREL
          2 002822  5D25                                 CMV,R5   37
          2 002823  0901 000D                            BE       s:28979,PREL
          2 002825  5D0A                                 CMV,R5   10
          2 002826  0901 000A                            BE       s:28979,PREL

     5503    28976    2          AND ACTION ~= %Y_ACT_RST_D1# AND ACTION ~= %Y_ACT_VCRST# AND ACTION ~= %
             28976                   Y_ACT_RST_PRS#
     5504    28977    2          THEN
     5505    28978    2             KX_STATS_X25.CIRCUITS = KX_STATS_X25.CIRCUITS - 1;
PL6.E3A0      #001=KXP$PACKET File=KXP$PACKET.:E05TSI                            WED 07/30/97 02:24 Page:643

  28978   2 002828  8C80 0000 003E  xsym                 LDI      KX_STATS_X25+62
          2 00282B  8470 FFFF FFFF                       AID      -1,IMO
          2 00282E  8D00 0000 003E  xsym                 SDI      KX_STATS_X25+62

     5506    28979    2   END /* SUBROUTINE */;

  28979   2 002831  ECC7 004E                            LDB,B6   TERMID+8,AUTO
          2 002833  C3C6 0001                            LNJ,B4   1,B6

     5507    28980        %EJECT;
PL6.E3A0      #001=KXP$PACKET File=KXP$PACKET.:E05TSI                            WED 07/30/97 02:24 Page:644
     5508    28981
     5509    28982    1   Y$ER0:

  28982   2 002835  EFC7 004E            Y$ER0           STB,B6   TERMID+8,AUTO

     5510    28983    1       PROC ;
     5511    28984    2       ERCOD = STOP ;

  28984   2 002837  8C80 0000 0394  00                   LDI      STOP
          2 00283A  8D47 0022                            SDI      ERCOD,AUTO
          2 00283C  0F81 0003                            B        s:28986,PREL

     5512    28985    2   Y$ER0000: ENTRY ;

  28985   2 00283E  EFC7 004E            Y$ER0000        STB,B6   TERMID+8,AUTO

     5513    28986    2       S_VAL0 = PEVENT ;

  28986   2 002840  E847 002C                            LDR,R6   PEVENT,AUTO
          2 002842  EF47 0026                            STR,R6   S_VAL0,AUTO

     5514    28987    2       GOTO L_COMMON ;

  28987   2 002844  0F81 0011                            B        s:29013,PREL

     5515    28988
     5516    28989    2   Y$ER00: ENTRY ;

  28989   2 002846  EFC7 004E            Y$ER00          STB,B6   TERMID+8,AUTO

     5517    28990    2       ERCOD = INV_LCN0 ;

  28990   2 002848  8C80 0000 03AE  00                   LDI      INV_LCN0
          2 00284B  8D47 0022                            SDI      ERCOD,AUTO
          2 00284D  0F81 0003                            B        s:28992,PREL

     5518    28991    2   Y$ER000: ENTRY ;
PL6.E3A0      #001=KXP$PACKET File=KXP$PACKET.:E05TSI                            WED 07/30/97 02:24 Page:645

  28991   2 00284F  EFC7 004E            Y$ER000         STB,B6   TERMID+8,AUTO

     5519    28992    2       S_VAL0 = IN_PKTHDR.TYPE ;

  28992   2 002851  E280 0000 0001  01                   LLH,R6   IN_PKTHDR+1
          2 002854  EF47 0026                            STR,R6   S_VAL0,AUTO

     5520    28993    2   L_COMMON:
     5521    28994            %WRSYSLOG ( ERRCOD = ERCOD ,
     5522    28995            TRMID = "S_TRMID$->KH$CHN.TERMID" ,
     5523    28996            VAL0 = S_VAL0 ,
     5524    28997            VAL2 = LCN ) ;

  29013   2 002856  DBC7 0028            L_COMMON        LAB,B5   LCN,AUTO
          2 002858  DFC7 00C6                            STB,B5   KV@USRENT+15,AUTO
          2 00285A  CB80 0000 0000                       LAB,B4   0
          2 00285D  CFC7 00C4                            STB,B4   KV@USRENT+13,AUTO
          2 00285F  BBC7 0026                            LAB,B3   S_VAL0,AUTO
          2 002861  BFC7 00C2                            STB,B3   KV@USRENT+11,AUTO
          2 002863  AB80 0000 0000                       LAB,B2   0
          2 002866  AFC7 00C0                            STB,B2   KV@USRENT+9,AUTO
          2 002868  9CC7 0024                            LDB,B1   S_TRMID$,AUTO
          2 00286A  EBC1 0012                            LAB,B6   18,B1
          2 00286C  EFC7 00BE                            STB,B6   KV@USRENT+7,AUTO
          2 00286E  EBC7 0022                            LAB,B6   ERCOD,AUTO
          2 002870  EFC7 00BC                            STB,B6   KV@USRENT+5,AUTO
          2 002872  BBC7 00BC                            LAB,B3   KV@USRENT+5,AUTO
          2 002874  CBF0 0600                            LAB,B4   1536,IMO
          2 002876  E380 0000 0000  xent                 LNJ,B6   KXS$SYSLOG
          2 002879       0001                            DC       s:29016,PREL

     5525    29015
     5526    29016    2       RETURN ; END ;

  29016   2 00287A  ECC7 004E                            LDB,B6   TERMID+8,AUTO
          2 00287C  C3C6 0001                            LNJ,B4   1,B6
PL6.E3A0      #001=KXP$PACKET File=KXP$PACKET.:E05TSI                            WED 07/30/97 02:24 Page:646

     5527    29017
     5528    29018    1   Y$ER1:

  29018   2 00287E  EFC7 005A            Y$ER1           STB,B6   FCL_PRESENT+1,AUTO

     5529    29019    1       PROC ;
     5530    29020
     5531    29021               %WRSYSLOG  (  ERRCOD = ERCOD ,
     5532    29022                  TRMID = "S_TRMID$->KH$CHN.TERMID" ,
     5533    29023                  VAL0 = S_VAL0 ,
     5534    29024                  VAL1 = S_VAL1 ,
     5535    29025                  VAL2 = LCN ) ;

  29041   2 002880  DBC7 0028                            LAB,B5   LCN,AUTO
          2 002882  DFC7 00C6                            STB,B5   KV@USRENT+15,AUTO
          2 002884  CBC7 0027                            LAB,B4   S_VAL1,AUTO
          2 002886  CFC7 00C4                            STB,B4   KV@USRENT+13,AUTO
          2 002888  BBC7 0026                            LAB,B3   S_VAL0,AUTO
          2 00288A  BFC7 00C2                            STB,B3   KV@USRENT+11,AUTO
          2 00288C  AB80 0000 0000                       LAB,B2   0
          2 00288F  AFC7 00C0                            STB,B2   KV@USRENT+9,AUTO
          2 002891  9CC7 0024                            LDB,B1   S_TRMID$,AUTO
          2 002893  EBC1 0012                            LAB,B6   18,B1
          2 002895  EFC7 00BE                            STB,B6   KV@USRENT+7,AUTO
          2 002897  EBC7 0022                            LAB,B6   ERCOD,AUTO
          2 002899  EFC7 00BC                            STB,B6   KV@USRENT+5,AUTO
          2 00289B  BBC7 00BC                            LAB,B3   KV@USRENT+5,AUTO
          2 00289D  CBF0 0600                            LAB,B4   1536,IMO
          2 00289F  E380 0000 0000  xent                 LNJ,B6   KXS$SYSLOG
          2 0028A2       0001                            DC       s:29044,PREL

     5536    29043
     5537    29044    2       RETURN ; END ;

  29044   2 0028A3  ECC7 005A                            LDB,B6   FCL_PRESENT+1,AUTO
          2 0028A5  C3C6 0001                            LNJ,B4   1,B6
PL6.E3A0      #001=KXP$PACKET File=KXP$PACKET.:E05TSI                            WED 07/30/97 02:24 Page:647

     5538    29045
     5539    29046    1   Y$ER2:

  29046   2 0028A7  EFC7 005A            Y$ER2           STB,B6   FCL_PRESENT+1,AUTO

     5540    29047    1       PROC ;
     5541    29048
     5542    29049               %WRSYSLOG  (  ERRCOD = ERCOD ,
     5543    29050                  TRMID = "S_TRMID$->KH$CHN.TERMID" ,
     5544    29051                  VAL0 = S_VAL0 ,
     5545    29052                  VAL1 = DIAG ,
     5546    29053                  VAL2 = LCN ,
     5547    29054                  BFR = KX$XPACKET );

  29070   2 0028A9  DBC7 0028                            LAB,B5   LCN,AUTO
          2 0028AB  DFC7 00C6                            STB,B5   KV@USRENT+15,AUTO
          2 0028AD  CBC7 002F                            LAB,B4   DIAG,AUTO
          2 0028AF  CFC7 00C4                            STB,B4   KV@USRENT+13,AUTO
          2 0028B1  BBC7 0026                            LAB,B3   S_VAL0,AUTO
          2 0028B3  BFC7 00C2                            STB,B3   KV@USRENT+11,AUTO
          2 0028B5  ACC7 0006                            LDB,B2   DAT$,AUTO
          2 0028B7  AFC7 00C0                            STB,B2   KV@USRENT+9,AUTO
          2 0028B9  9CC7 0024                            LDB,B1   S_TRMID$,AUTO
          2 0028BB  EBC1 0012                            LAB,B6   18,B1
          2 0028BD  EFC7 00BE                            STB,B6   KV@USRENT+7,AUTO
          2 0028BF  EBC7 0022                            LAB,B6   ERCOD,AUTO
          2 0028C1  EFC7 00BC                            STB,B6   KV@USRENT+5,AUTO
          2 0028C3  BBC7 00BC                            LAB,B3   KV@USRENT+5,AUTO
          2 0028C5  CBF0 0600                            LAB,B4   1536,IMO
          2 0028C7  E380 0000 0000  xent                 LNJ,B6   KXS$SYSLOG
          2 0028CA       0001                            DC       s:29073,PREL

     5548    29072
     5549    29073    2       RETURN ; END ;

  29073   2 0028CB  ECC7 005A                            LDB,B6   FCL_PRESENT+1,AUTO
PL6.E3A0      #001=KXP$PACKET File=KXP$PACKET.:E05TSI                            WED 07/30/97 02:24 Page:648
          2 0028CD  C3C6 0001                            LNJ,B4   1,B6

     5550    29074
     5551    29075    1   Y$ER:

  29075   2 0028CF  EFC7 00BA            Y$ER            STB,B6   KV@USRENT+3,AUTO

     5552    29076    1       PROC ;
     5553    29077
     5554    29078               %WRSYSLOG  (  ERRCOD = ERCOD ,
     5555    29079                  TRMID = "S_TRMID$->KH$CHN.TERMID" ,
     5556    29080                  VAL2 = LCN ) ;

  29096   2 0028D1  DBC7 0028                            LAB,B5   LCN,AUTO
          2 0028D3  DFC7 00C6                            STB,B5   KV@USRENT+15,AUTO
          2 0028D5  CB80 0000 0000                       LAB,B4   0
          2 0028D8  CFC7 00C4                            STB,B4   KV@USRENT+13,AUTO
          2 0028DA  BB80 0000 0000                       LAB,B3   0
          2 0028DD  BFC7 00C2                            STB,B3   KV@USRENT+11,AUTO
          2 0028DF  AB80 0000 0000                       LAB,B2   0
          2 0028E2  AFC7 00C0                            STB,B2   KV@USRENT+9,AUTO
          2 0028E4  9CC7 0024                            LDB,B1   S_TRMID$,AUTO
          2 0028E6  EBC1 0012                            LAB,B6   18,B1
          2 0028E8  EFC7 00BE                            STB,B6   KV@USRENT+7,AUTO
          2 0028EA  EBC7 0022                            LAB,B6   ERCOD,AUTO
          2 0028EC  EFC7 00BC                            STB,B6   KV@USRENT+5,AUTO
          2 0028EE  BBC7 00BC                            LAB,B3   KV@USRENT+5,AUTO
          2 0028F0  CBF0 0600                            LAB,B4   1536,IMO
          2 0028F2  E380 0000 0000  xent                 LNJ,B6   KXS$SYSLOG
          2 0028F5       0001                            DC       s:29099,PREL

     5557    29098
     5558    29099    2       RETURN ; END ;

  29099   2 0028F6  ECC7 00BA                            LDB,B6   KV@USRENT+3,AUTO
          2 0028F8  C3C6 0001                            LNJ,B4   1,B6

PL6.E3A0      #001=KXP$PACKET File=KXP$PACKET.:E05TSI                            WED 07/30/97 02:24 Page:649
     5559    29100
     5560    29101        %EJECT;
PL6.E3A0      #001=KXP$PACKET File=KXP$PACKET.:E05TSI                            WED 07/30/97 02:24 Page:650
     5561    29102
     5562    29103        /*I*
     5563    29104              NAME: Y$DATOUT - send a Data packet
     5564    29105              PURPOSE: Send a Data packet
     5565    29106                       If it didn't all fit,
     5566    29107                          Save information for future packets
     5567    29108                          Set the DATA flag
     5568    29109                       Set the BLK flag if the window is exhausted
     5569    29110        */
     5570    29111    1   Y$DATOUT: PROC;

  29111   2 0028FA  EFC7 0054            Y$DATOUT        STB,B6   FCLLNG,AUTO

     5571    29112    2   DCL SIZ UBIN STATIC;
     5572    29113    2   DCL BFR$ PTR STATIC;
     5573    29114    2   DCL YESBIT BIT(16) CONSTANT INIT('1'B);
     5574    29115
     5575    29116
     5576    29117    2       IF KX$L3.OUT_.BYTSIZ <= KX_BUF.SIZ ( KX$L3.CALL_OPTS.SNDPCKSIZ )

  29117   2 0028FC  DCC7 0008                            LDB,B5   L3$,AUTO
          2 0028FE  B845 0015                            LDR,R3   21,B5
          2 002900  B570 00FF                            AND,R3   255,IMO
          2 002902  E845 0010                            LDR,R6   16,B5
          2 002904  E930 0000 001E  xsym                 CMR,R6   KX_BUF+30,R3
          2 002907  0301 0006                            BG       s:29124,PREL

     5577    29118    2          THEN
     5578    29119    3             DO;

     5579    29120    3                SIZ = KX$L3.OUT_.BYTSIZ;

  29120   2 002909  EF00 0000 0046  01                   STR,R6   SIZ

     5580    29121    3             END;

  29121   2 00290C  0F81 0007                            B        s:29127,PREL
PL6.E3A0      #001=KXP$PACKET File=KXP$PACKET.:E05TSI                            WED 07/30/97 02:24 Page:651

     5581    29122    2          ELSE
     5582    29123    3             DO;

     5583    29124    3                SIZ = KX_BUF.SIZ ( KX$L3.CALL_OPTS.SNDPCKSIZ );

  29124   2 00290E  D830 0000 001E  xsym                 LDR,R5   KX_BUF+30,R3
          2 002911  DF00 0000 0046  01                   STR,R5   SIZ

     5584    29125    3             END;

     5585    29126
     5586    29127    2       CALL KXS$GETBFR ( SIZ, BFR$, YESBIT )

  29127   2 002914  BB80 0000 000E  03                   LAB,B3   +14
          2 002917  CBF0 0300                            LAB,B4   768,IMO
          2 002919  E380 0000 0000  xent                 LNJ,B6   KXS$GETBFR
          2 00291C       0003                            DC       s:29129,PREL
          2 00291D  0F81 000A                            B        s:29132,PREL

     5587    29128    3          WHENALTRETURN DO;

     5588    29129    3                KX$L2.FLG.DATAVL = '1'B;

  29129   2 00291F  ECC7 000C                            LDB,B6   L2$,AUTO
          2 002921  8946 002E                            LBT,'0002'X       46,B6
          2 002923       0002

     5589    29130    3                RETURN; /* No buffers now - just leave the data ready to go */

  29130   2 002924  ECC7 0054                            LDB,B6   FCLLNG,AUTO
          2 002926  C3C6 0001                            LNJ,B4   1,B6

     5590    29131    3             END;
     5591    29132    2       DAT$ = BFR$;

  29132   2 002928  EC80 0000 0047  01                   LDB,B6   BFR$
PL6.E3A0      #001=KXP$PACKET File=KXP$PACKET.:E05TSI                            WED 07/30/97 02:24 Page:652
          2 00292B  EFC7 0006                            STB,B6   DAT$,AUTO

     5592    29133    2       OUT_PKTHDR = '0'B;

  29133   2 00292D  DB80 0000 0000  01                   LAB,B5   IN_PKTHDR
          2 002930  5C05                                 LDV,R5   5
          2 002931  0021                                 ALR      ;
          2 002932       4178 0000                                ALPHANUM('0000'X,IMO,,1),;
          2 002934       4005 0003                                ALPHANUM(3,B5,,R5,FILL)

     5593    29134    2       OUT_PKTHDR.Q_BIT = KX$L3.OUT_QBIT;

  29134   2 002936  437F                                 CSYNC    s:29133+8,SPREL
          2 002937  ECC7 0008                            LDB,B6   L3$,AUTO
          2 002939  E846 002A                            LDR,R6   42,B6
          2 00293B  6001                                 SOL,R6   1
          2 00293C  EA80 0000 0003  01                   SRM,R6,'8000'X    OUT_PKTHDR
          2 00293F       8000

     5594    29135        /*
     5595    29136           P(S) and P(R) are stuffed in Y$PACKET_OUT.
     5596    29137        */
     5597    29138    2       IF KX$L3.TOACT ~= %KX_L3_TOACT_RSTRTR#

  29138   2 002940  E2C6 0075                            LLH,R6   117,B6
          2 002942  6D03                                 CMV,R6   3
          2 002943  0901 0008                            BE       s:29143,PREL

     5598    29139    2          THEN
     5599    29140    2             KX$DATA.RLS.L3 = '1'B;      /* no need to keep this data packet */

  29140   2 002945  DCC7 0006                            LDB,B5   DAT$,AUTO
          2 002947  8945 0006                            LBT,'8000'X       6,B5
          2 002949       8000
          2 00294A  0F81 0015                            B        s:29150,PREL

     5600    29141    2          ELSE
PL6.E3A0      #001=KXP$PACKET File=KXP$PACKET.:E05TSI                            WED 07/30/97 02:24 Page:653
     5601    29142    3             DO;

     5602    29143    3                IF KX$L3.D_LIST_HEAD$ = ADDR(NIL)

  29143   2 00294C  8DC6 0045                            CMN      69,B6
          2 00294E  0981 0007                            BNE      s:29147,PREL

     5603    29144    3                   THEN
     5604    29145    3                      KX$L3.D_LIST_HEAD$ = DAT$;

  29145   2 002950  DCC7 0006                            LDB,B5   DAT$,AUTO
          2 002952  DFC6 0045                            STB,B5   69,B6
          2 002954  0F81 0007                            B        s:29148,PREL

     5605    29146    3                   ELSE
     5606    29147    3                      KX$L3.D_LIST_TAIL$ -> KX$TDATA.L3_LIST$ = DAT$;

  29147   2 002956  DCC6 0047                            LDB,B5   71,B6
          2 002958  CCC7 0006                            LDB,B4   DAT$,AUTO
          2 00295A  CFC5 0004                            STB,B4   4,B5

     5607    29148    3                KX$L3.D_LIST_TAIL$ = DAT$;

  29148   2 00295C  DCC7 0006                            LDB,B5   DAT$,AUTO
          2 00295E  DFC6 0047                            STB,B5   71,B6

     5608    29149    3             END;

     5609    29150    2       KX$DATA.L3_LIST$ = ADDR(NIL);

  29150   2 002960  DB80 0000 0000                       LAB,B5   0
          2 002963  CCC7 0006                            LDB,B4   DAT$,AUTO
          2 002965  DFC4 0004                            STB,B5   4,B4

     5610    29151    2       KX$DATA.CNT = SIZ + %LD + L2EXT + L3EXT;

  29151   2 002967  E800 0000 0046  01                   LDR,R6   SIZ
PL6.E3A0      #001=KXP$PACKET File=KXP$PACKET.:E05TSI                            WED 07/30/97 02:24 Page:654
          2 00296A  EA47 003D                            ADD,R6   L2EXT,AUTO
          2 00296C  EA47 003E                            ADD,R6   L3EXT,AUTO
          2 00296E  DCC7 0006                            LDB,B5   DAT$,AUTO
          2 002970  6E05                                 ADV,R6   5
          2 002971  EF45 0007                            STR,R6   7,B5

     5611    29152    2       STR$ = KX$L3.OUT_.ADR$;

  29152   2 002973  DCC6 000D                            LDB,B5   13,B6
          2 002975  DFC7 0010                            STB,B5   STR$,AUTO

     5612    29153    2       SUBSTR ( DATSTR, LENGTHC(KX$PACKET)+L2EXT+L3EXT, SIZ ) =

  29153   2 002977  E847 003D                            LDR,R6   L2EXT,AUTO
          2 002979  EA47 003E                            ADD,R6   L3EXT,AUTO
          2 00297B  C846 000F                            LDR,R4   15,B6
          2 00297D  AB85                                 LAB,B2   ,B5
          2 00297E  A854                                 LDR,R2   R4
          2 00297F  EF47 00BC                            STR,R6   KV@USRENT+5,AUTO
          2 002981  E800 0000 0046  01                   LDR,R6   SIZ
          2 002984  BCC7 0006                            LDB,B3   DAT$,AUTO
          2 002986  B847 00BC                            LDR,R3   KV@USRENT+5,AUTO
          2 002988  3E15                                 ADV,R3   21
          2 002989  0008                                 MMM

     5613    29154    2          SUBSTR ( OUTSTR, KX$L3.OUT_.BYTX, SIZ );
     5614    29155    2       KX$L3.OUT_.BYTSIZ = KX$L3.OUT_.BYTSIZ - SIZ;

  29155   2 00298A  ECC7 0008                            LDB,B6   L3$,AUTO
          2 00298C  E846 0010                            LDR,R6   16,B6
          2 00298E  E200 0000 0046  01                   SUB,R6   SIZ
          2 002991  EF46 0010                            STR,R6   16,B6

     5615    29156    2       KX$L3.OUT_.BYTX = KX$L3.OUT_.BYTX + SIZ;

  29156   2 002993  B846 000F                            LDR,R3   15,B6
          2 002995  BA00 0000 0046  01                   ADD,R3   SIZ
PL6.E3A0      #001=KXP$PACKET File=KXP$PACKET.:E05TSI                            WED 07/30/97 02:24 Page:655
          2 002998  BF46 000F                            STR,R3   15,B6

     5616    29157    2       IF KX$L3.OUT_.BYTSIZ = 0

  29157   2 00299A  6981 000C                            BNEZ,R6  s:29163,PREL

     5617    29158    2          THEN
     5618    29159    3             DO;

     5619    29160    3                KX$L3.OUT_.ADR$ = ADDR(NIL);

  29160   2 00299C  CB80 0000 0000                       LAB,B4   0
          2 00299F  CFC6 000D                            STB,B4   13,B6

     5620    29161    3                KX_STATS_X25.D_CMPPACKETS_OUT = KX_STATS_X25.D_CMPPACKETS_OUT + 1;

  29161   2 0029A1  8A80 0000 0037  xsym                 INC      KX_STATS_X25+55
          2 0029A4  8E80 0000 0036  xsym                 CAD      KX_STATS_X25+54

     5621    29162    3             END;

     5622    29163    2       IF KX$L3.OUT_.BYTSIZ ~= 0 OR ( KX$L3.NOREASM AND KX$L3.OUT_MBIT )

  29163   2 0029A7  E846 0010                            LDR,R6   16,B6
          2 0029A9  6981 000B                            BNEZ,R6  s:29166,PREL
          2 0029AB  82C6 0076                            LB,'0080'X        118,B6
          2 0029AD       0080
          2 0029AE  0581 0019                            BBF      s:29173,PREL
          2 0029B0  82C6 002A                            LB,'1000'X        42,B6
          2 0029B2       1000
          2 0029B3  0581 0014                            BBF      s:29173,PREL

     5623    29164    2          THEN
     5624    29165    3             DO;

     5625    29166    3                IF L3EXT = 0

PL6.E3A0      #001=KXP$PACKET File=KXP$PACKET.:E05TSI                            WED 07/30/97 02:24 Page:656
  29166   2 0029B5  B847 003E                            LDR,R3   L3EXT,AUTO
          2 0029B7  3981 0007                            BNEZ,R3  s:29170,PREL

     5626    29167    3                   THEN
     5627    29168    3                      OUT_PKTHDR.PR_BITS.M = '1'B;

  29168   2 0029B9  8900 0000 0004  01                   LBT,'1000'X       OUT_PKTHDR+1
  29168   2 0029BC       1000
          2 0029BD  0F81 0005                            B        s:29171,PREL

     5628    29169    3                   ELSE
     5629    29170    3                      OUT_PKTHDR.PR_EXT.M = '1'B;

  29170   2 0029BF  8900 0000 0004  01                   LBT,'0001'X       OUT_PKTHDR+1
  29170   2 0029C2       0001

     5630    29171    3                KX$L2.FLG.DATAVL = '1'B;

  29171   2 0029C3  CCC7 000C                            LDB,B4   L2$,AUTO
          2 0029C5  8944 002E                            LBT,'0002'X       46,B4
          2 0029C7       0002

     5631    29172    3             END;

     5632    29173    2       CALL Y$PACKET_OUT;

  29173   2 0029C8  E3C0 E82C                            LNJ,B6   s:0,PREL
          2 0029CA       0001                            DC       s:29174,PREL

     5633    29174    2       KX_STATS_X25.D_PACKETS_OUT = KX_STATS_X25.D_PACKETS_OUT + 1;

  29174   2 0029CB  8A80 0000 001F  xsym                 INC      KX_STATS_X25+31
          2 0029CE  8E80 0000 001E  xsym                 CAD      KX_STATS_X25+30

     5634    29175    2       KX_STATS_X25.D_BYTES_OUT = KX_STATS_X25.D_BYTES_OUT + SIZ;

  29175   2 0029D1  F800 0000 0046  01                   LDR,R7   SIZ
PL6.E3A0      #001=KXP$PACKET File=KXP$PACKET.:E05TSI                            WED 07/30/97 02:24 Page:657
          2 0029D4  6C00                                 LDV,R6   0
          2 0029D5  8400 0000 0038  xsym                 AID      KX_STATS_X25+56
          2 0029D8  8D00 0000 0038  xsym                 SDI      KX_STATS_X25+56

     5635    29176
     5636    29177    2       RETURN;

  29177   2 0029DB  ECC7 0054                            LDB,B6   FCLLNG,AUTO
          2 0029DD  C3C6 0001                            LNJ,B4   1,B6

     5637    29178    2   END Y$DATOUT;
     5638    29179        %EJECT ;
PL6.E3A0      #001=KXP$PACKET File=KXP$PACKET.:E05TSI                            WED 07/30/97 02:24 Page:658
     5639    29180    1   Y$DVCADM:

  29180   2 0029DF  EFC7 004E            Y$DVCADM        STB,B6   TERMID+8,AUTO

     5640    29181    1       PROC ALTRET ;
     5641    29182    2       IF L3$ ~= ADDR(NIL) THEN

  29182   2 0029E1  8DC7 0008                            CMN      L3$,AUTO
          2 0029E3  0901 0026                            BE       s:29187,PREL

     5642    29183    2             CALL KHA$DVCADM( CODE, KHA_ERROR,

  29183   2 0029E5  DCC7 0008                            LDB,B5   L3$,AUTO
          2 0029E7  CCC5 0006                            LDB,B4   6,B5
          2 0029E9  BBF0 0001                            LAB,B3   1,IMO
          2 0029EB  BFC7 00C6                            STB,B3   KV@USRENT+15,AUTO
          2 0029ED  AB80 0000 0014  03                   LAB,B2   +20
          2 0029F0  AFC7 00C4                            STB,B2   KV@USRENT+13,AUTO
          2 0029F2  9BC4 0012                            LAB,B1   18,B4
          2 0029F4  9FC7 00C2                            STB,B1   KV@USRENT+11,AUTO
          2 0029F6  EBC4 0012                            LAB,B6   18,B4
          2 0029F8  EFC7 00C0                            STB,B6   KV@USRENT+9,AUTO
          2 0029FA  CBC7 0035                            LAB,B4   KHA_ERROR,AUTO
          2 0029FC  CFC7 00BE                            STB,B4   KV@USRENT+7,AUTO
          2 0029FE  EBC7 0029                            LAB,B6   CODE,AUTO
          2 002A00  EFC7 00BC                            STB,B6   KV@USRENT+5,AUTO
          2 002A02  BBC7 00BC                            LAB,B3   KV@USRENT+5,AUTO
          2 002A04  CBF0 0600                            LAB,B4   1536,IMO
          2 002A06  E380 0000 0000  xent                 LNJ,B6   KHA$DVCADM
          2 002A09       0001                            DC       s:29187,PREL

     5643    29184    2                KX$L3.CHN$->KH$CHN.TERMID,
     5644    29185    2                KX$L3.CHN$->KH$CHN.TERMID,
     5645    29186    2                VECTOR(NIL), 1);
     5646    29187    2       RETURN ;

  29187   2 002A0A  ECC7 004E                            LDB,B6   TERMID+8,AUTO
PL6.E3A0      #001=KXP$PACKET File=KXP$PACKET.:E05TSI                            WED 07/30/97 02:24 Page:659
          2 002A0C  C3C6 0001                            LNJ,B4   1,B6

     5647    29188    2   END ;
     5648    29189
     5649    29190    1   Y$STOP_TMR:

  29190   2 002A0E  EFC7 004E            Y$STOP_TMR      STB,B6   TERMID+8,AUTO

     5650    29191    1       PROC ;
     5651    29192                  %STOP_TIMER ( FPTN = KX$L3.TMRBLK );

  29197   2 002A10  DCC7 0008                            LDB,B5   L3$,AUTO
          2 002A12  89C5 0056                            CMZ      86,B5
          2 002A14  0881 0025                            BAGE     s:29201,PREL

  29197   2 002A16  8845 0056                            LBF,'8000'X       86,B5
  29197   2 002A18       8000

  29197   2 002A19  8DC5 004D                            CMN      77,B5
          2 002A1B  0981 0008                            BNE      s:29197+20,PREL

  29197   2 002A1D  CCC5 004F                            LDB,B4   79,B5
          2 002A1F  CF80 0000 0002  xsym                 STB,B4   KX_TMRBLK+2
          2 002A22  0F81 0007                            B        s:29198,PREL

  29197   2 002A24  CCC5 004D                            LDB,B4   77,B5
          2 002A26  BCC5 004F                            LDB,B3   79,B5
          2 002A28  BFC4 0002                            STB,B3   2,B4

  29198   2 002A2A  8DC5 004F                            CMN      79,B5
          2 002A2C  0981 0008                            BNE      s:29198+11,PREL

  29198   2 002A2E  ECC5 004D                            LDB,B6   77,B5
          2 002A30  EF80 0000 0000  xsym                 STB,B6   KX_TMRBLK
          2 002A33  0F81 0006                            B        s:29201,PREL

  29198   2 002A35  ECC5 004F                            LDB,B6   79,B5
PL6.E3A0      #001=KXP$PACKET File=KXP$PACKET.:E05TSI                            WED 07/30/97 02:24 Page:660
          2 002A37  CCC5 004D                            LDB,B4   77,B5
          2 002A39  CF86                                 STB,B4   ,B6

     5652    29201    2       RETURN ;

  29201   2 002A3A  ECC7 004E                            LDB,B6   TERMID+8,AUTO
          2 002A3C  C3C6 0001                            LNJ,B4   1,B6

     5653    29202    2   END ;
     5654    29203    1   Y$STOP_INTTMR:

  29203   2 002A3E  EFC7 0050            Y$STOP_INTTMR   STB,B6   FOUND_ONE,AUTO

     5655    29204    1       PROC ;
     5656    29205                  %STOP_TIMER ( FPTN = KX$L3.INTTMRBLK );

  29210   2 002A40  DCC7 0008                            LDB,B5   L3$,AUTO
          2 002A42  89C5 006A                            CMZ      106,B5
          2 002A44  0881 0025                            BAGE     s:29214,PREL

  29210   2 002A46  8845 006A                            LBF,'8000'X       106,B5
  29210   2 002A48       8000

  29210   2 002A49  8DC5 0061                            CMN      97,B5
          2 002A4B  0981 0008                            BNE      s:29210+20,PREL

  29210   2 002A4D  CCC5 0063                            LDB,B4   99,B5
          2 002A4F  CF80 0000 0002  xsym                 STB,B4   KX_TMRBLK+2
          2 002A52  0F81 0007                            B        s:29211,PREL

  29210   2 002A54  CCC5 0061                            LDB,B4   97,B5
          2 002A56  BCC5 0063                            LDB,B3   99,B5
          2 002A58  BFC4 0002                            STB,B3   2,B4

  29211   2 002A5A  8DC5 0063                            CMN      99,B5
          2 002A5C  0981 0008                            BNE      s:29211+11,PREL

PL6.E3A0      #001=KXP$PACKET File=KXP$PACKET.:E05TSI                            WED 07/30/97 02:24 Page:661
  29211   2 002A5E  ECC5 0061                            LDB,B6   97,B5
          2 002A60  EF80 0000 0000  xsym                 STB,B6   KX_TMRBLK
          2 002A63  0F81 0006                            B        s:29214,PREL

  29211   2 002A65  ECC5 0063                            LDB,B6   99,B5
          2 002A67  CCC5 0061                            LDB,B4   97,B5
          2 002A69  CF86                                 STB,B4   ,B6

     5657    29214    2       RETURN ;

  29214   2 002A6A  ECC7 0050                            LDB,B6   FOUND_ONE,AUTO
          2 002A6C  C3C6 0001                            LNJ,B4   1,B6

     5658    29215    2   END ;
     5659    29216    1   Y$STOP_DATTMR:

  29216   2 002A6E  EFC7 0062            Y$STOP_DATTMR   STB,B6   EVENT,AUTO

     5660    29217    1       PROC ;
     5661    29218                  %STOP_TIMER ( FPTN = KX$L3.DATTMRBLK );

  29223   2 002A70  DCC7 0008                            LDB,B5   L3$,AUTO
          2 002A72  89C5 0060                            CMZ      96,B5
          2 002A74  0881 0025                            BAGE     s:29227,PREL

  29223   2 002A76  8845 0060                            LBF,'8000'X       96,B5
  29223   2 002A78       8000

  29223   2 002A79  8DC5 0057                            CMN      87,B5
          2 002A7B  0981 0008                            BNE      s:29223+20,PREL

  29223   2 002A7D  ECC5 0059                            LDB,B6   89,B5
          2 002A7F  EF80 0000 0002  xsym                 STB,B6   KX_TMRBLK+2
          2 002A82  0F81 0007                            B        s:29224,PREL

  29223   2 002A84  ECC5 0057                            LDB,B6   87,B5
          2 002A86  CCC5 0059                            LDB,B4   89,B5
PL6.E3A0      #001=KXP$PACKET File=KXP$PACKET.:E05TSI                            WED 07/30/97 02:24 Page:662
          2 002A88  CFC6 0002                            STB,B4   2,B6

  29224   2 002A8A  8DC5 0059                            CMN      89,B5
          2 002A8C  0981 0008                            BNE      s:29224+11,PREL

  29224   2 002A8E  ECC5 0057                            LDB,B6   87,B5
          2 002A90  EF80 0000 0000  xsym                 STB,B6   KX_TMRBLK
          2 002A93  0F81 0006                            B        s:29227,PREL

  29224   2 002A95  ECC5 0059                            LDB,B6   89,B5
          2 002A97  CCC5 0057                            LDB,B4   87,B5
          2 002A99  CF86                                 STB,B4   ,B6

     5662    29227    2       RETURN ;

  29227   2 002A9A  ECC7 0062                            LDB,B6   EVENT,AUTO
          2 002A9C  C3C6 0001                            LNJ,B4   1,B6

     5663    29228    2   END ;
     5664    29229
     5665    29230    1   Y$START_DATTMR: PROC;

  29230   2 002A9E  EFC7 0062            Y$START_DATTMR  STB,B6   EVENT,AUTO

     5666    29231             %START_TIMER ( FPTN=KX$L3.DATTMRBLK, PRD=KX$L3.T25 );

  29236   2 002AA0  DCC7 0008                            LDB,B5   L3$,AUTO
          2 002AA2  E845 006E                            LDR,R6   110,B5
          2 002AA4  6901 002E                            BEZ,R6   s:29247+18,PREL

  29236   2 002AA6  EAC5 005F                            SRM,R6,'00FF'X    95,B5
  29236   2 002AA8       00FF

  29246   2 002AA9  89C5 0060                            CMZ      96,B5
          2 002AAB  0801 004F                            BAL      s:29251,PREL

  29246   2 002AAD  8945 0060                            LBT,'8000'X       96,B5
PL6.E3A0      #001=KXP$PACKET File=KXP$PACKET.:E05TSI                            WED 07/30/97 02:24 Page:663
  29246   2 002AAF       8000

  29246   2 002AB0  EB80 0000 0000                       LAB,B6   0
          2 002AB3  EFC5 0057                            STB,B6   87,B5

  29246   2 002AB5  8D80 0000 0002  xsym                 CMN      KX_TMRBLK+2
          2 002AB8  0981 0008                            BNE      s:29247,PREL

  29246   2 002ABA  CBC5 0057                            LAB,B4   87,B5
          2 002ABC  CF80 0000 0000  xsym                 STB,B4   KX_TMRBLK
          2 002ABF  0F81 0007                            B        s:29247+6,PREL

  29247   2 002AC1  CBC5 0057                            LAB,B4   87,B5
          2 002AC3  BC80 0000 0002  xsym                 LDB,B3   KX_TMRBLK+2
          2 002AC6  CF83                                 STB,B4   ,B3

  29247   2 002AC7  EC80 0000 0002  xsym                 LDB,B6   KX_TMRBLK+2
          2 002ACA  EFC5 0059                            STB,B6   89,B5

  29247   2 002ACC  CBC5 0057                            LAB,B4   87,B5
          2 002ACE  CF80 0000 0002  xsym                 STB,B4   KX_TMRBLK+2

  29247   2 002AD1  0F81 0029                            B        s:29251,PREL

  29247   2 002AD3  89C5 0060                            CMZ      96,B5
          2 002AD5  0881 0025                            BAGE     s:29251,PREL

  29248   2 002AD7  8845 0060                            LBF,'8000'X       96,B5
  29248   2 002AD9       8000

  29248   2 002ADA  8DC5 0057                            CMN      87,B5
          2 002ADC  0981 0008                            BNE      s:29248+14,PREL

  29248   2 002ADE  ECC5 0059                            LDB,B6   89,B5
          2 002AE0  EF80 0000 0002  xsym                 STB,B6   KX_TMRBLK+2
          2 002AE3  0F81 0007                            B        s:29248+20,PREL

PL6.E3A0      #001=KXP$PACKET File=KXP$PACKET.:E05TSI                            WED 07/30/97 02:24 Page:664
  29248   2 002AE5  ECC5 0057                            LDB,B6   87,B5
          2 002AE7  CCC5 0059                            LDB,B4   89,B5
          2 002AE9  CFC6 0002                            STB,B4   2,B6

  29248   2 002AEB  8DC5 0059                            CMN      89,B5
          2 002AED  0981 0008                            BNE      s:29249+7,PREL

  29249   2 002AEF  ECC5 0057                            LDB,B6   87,B5
          2 002AF1  EF80 0000 0000  xsym                 STB,B6   KX_TMRBLK
          2 002AF4  0F81 0006                            B        s:29251,PREL

  29249   2 002AF6  ECC5 0059                            LDB,B6   89,B5
          2 002AF8  CCC5 0057                            LDB,B4   87,B5
          2 002AFA  CF86                                 STB,B4   ,B6

     5667    29251    2       RETURN;

  29251   2 002AFB  ECC7 0062                            LDB,B6   EVENT,AUTO
          2 002AFD  C3C6 0001                            LNJ,B4   1,B6

     5668    29252    2   END;
     5669    29253        %EJECT;
PL6.E3A0      #001=KXP$PACKET File=KXP$PACKET.:E05TSI                            WED 07/30/97 02:24 Page:665
     5670    29254
     5671    29255
     5672    29256    1   Y$START_TIMER: PROC ( PRD );

  29256   2 002AFF  EFC7 004E            Y$START_TIMER   STB,B6   TERMID+8,AUTO

     5673    29257
     5674    29258    2   DCL PRD UBIN;
     5675    29259
     5676    29260        /*
     5677    29261            There are so many occurrences of %START_TIMER that it make more
     5678    29262            sense to do what the macro does in an internal routine.
     5679    29263        */
     5680    29264
     5681    29265    2       IF PRD ~= 0

  29265   2 002B01  DCC7 0050                            LDB,B5   @PRD,AUTO
          2 002B03  E805                                 LDR,R6   ,B5
          2 002B04  6901 0030                            BEZ,R6   s:29284,PREL

     5682    29266    2          THEN
     5683    29267    3             DO;

     5684    29268    3                KX$L3.TMRBLK.CNT = PRD;

  29268   2 002B06  CCC7 0008                            LDB,B4   L3$,AUTO
          2 002B08  EAC4 0055                            SRM,R6,'00FF'X    85,B4
          2 002B0A       00FF

     5685    29269    3                IF NOT KX$L3.TMRBLK.ON

  29269   2 002B0B  89C4 0056                            CMZ      86,B4
          2 002B0D  0801 0051                            BAL      s:29300,PREL

     5686    29270    3                   THEN
     5687    29271    4                      DO;

PL6.E3A0      #001=KXP$PACKET File=KXP$PACKET.:E05TSI                            WED 07/30/97 02:24 Page:666
     5688    29272    4                         KX$L3.TMRBLK.ON = '1'B;

  29272   2 002B0F  8944 0056                            LBT,'8000'X       86,B4
  29272   2 002B11       8000

     5689    29273    4                         KX$L3.TMRBLK.FLNK$ = ADDR(NIL);

  29273   2 002B12  BB80 0000 0000                       LAB,B3   0
          2 002B15  BFC4 004D                            STB,B3   77,B4

     5690    29274    4                         IF KX_TMRBLK.QTL$ = ADDR(NIL)

  29274   2 002B17  8D80 0000 0002  xsym                 CMN      KX_TMRBLK+2
          2 002B1A  0981 0008                            BNE      s:29278,PREL

     5691    29275    4                            THEN
     5692    29276    4                               KX_TMRBLK.QHD$ = ADDR ( KX$L3.TMRBLK );

  29276   2 002B1C  EBC4 004D                            LAB,B6   77,B4
          2 002B1E  EF80 0000 0000  xsym                 STB,B6   KX_TMRBLK
          2 002B21  0F81 0007                            B        s:29279,PREL

     5693    29277    4                            ELSE
     5694    29278    4                              KX_TMRBLK.QTL$ -> KX$BTMRBLK.FLNK$ = ADDR ( KX$L3.TMRBLK
             29278                                        );

  29278   2 002B23  EBC4 004D                            LAB,B6   77,B4
          2 002B25  AC80 0000 0002  xsym                 LDB,B2   KX_TMRBLK+2
          2 002B28  EF82                                 STB,B6   ,B2

     5695    29279    4                         KX$L3.TMRBLK.BLNK$ = KX_TMRBLK.QTL$;

  29279   2 002B29  EC80 0000 0002  xsym                 LDB,B6   KX_TMRBLK+2
          2 002B2C  EFC4 004F                            STB,B6   79,B4

     5696    29280    4                         KX_TMRBLK.QTL$ = ADDR ( KX$L3.TMRBLK );

PL6.E3A0      #001=KXP$PACKET File=KXP$PACKET.:E05TSI                            WED 07/30/97 02:24 Page:667
  29280   2 002B2E  BBC4 004D                            LAB,B3   77,B4
          2 002B30  BF80 0000 0002  xsym                 STB,B3   KX_TMRBLK+2

     5697    29281    4                      END;

     5698    29282    3             END;

  29282   2 002B33  0F81 002B                            B        s:29300,PREL

     5699    29283    2          ELSE
     5700    29284    2             IF KX$L3.TMRBLK.ON

  29284   2 002B35  CCC7 0008                            LDB,B4   L3$,AUTO
          2 002B37  89C4 0056                            CMZ      86,B4
          2 002B39  0881 0025                            BAGE     s:29300,PREL

     5701    29285    2                THEN
     5702    29286    3                   DO;

     5703    29287    3                      KX$L3.TMRBLK.ON = '0'B;

  29287   2 002B3B  8844 0056                            LBF,'8000'X       86,B4
  29287   2 002B3D       8000

     5704    29288    3                      IF KX$L3.TMRBLK.FLNK$ = ADDR(NIL)

  29288   2 002B3E  8DC4 004D                            CMN      77,B4
          2 002B40  0981 0008                            BNE      s:29292,PREL

     5705    29289    3                         THEN
     5706    29290    3                            KX_TMRBLK.QTL$ = KX$L3.TMRBLK.BLNK$;

  29290   2 002B42  BCC4 004F                            LDB,B3   79,B4
          2 002B44  BF80 0000 0002  xsym                 STB,B3   KX_TMRBLK+2
          2 002B47  0F81 0007                            B        s:29293,PREL

     5707    29291    3                         ELSE
PL6.E3A0      #001=KXP$PACKET File=KXP$PACKET.:E05TSI                            WED 07/30/97 02:24 Page:668
     5708    29292    3                           KX$L3.TMRBLK.FLNK$ -> KX$BTMRBLK.BLNK$ = KX$L3.TMRBLK.BLNK$
             29292                                     ;

  29292   2 002B49  BCC4 004D                            LDB,B3   77,B4
          2 002B4B  ACC4 004F                            LDB,B2   79,B4
          2 002B4D  AFC3 0002                            STB,B2   2,B3

     5709    29293    3                      IF KX$L3.TMRBLK.BLNK$ = ADDR(NIL)

  29293   2 002B4F  8DC4 004F                            CMN      79,B4
          2 002B51  0981 0008                            BNE      s:29297,PREL

     5710    29294    3                         THEN
     5711    29295    3                            KX_TMRBLK.QHD$ = KX$L3.TMRBLK.FLNK$;

  29295   2 002B53  ECC4 004D                            LDB,B6   77,B4
          2 002B55  EF80 0000 0000  xsym                 STB,B6   KX_TMRBLK
          2 002B58  0F81 0006                            B        s:29300,PREL

     5712    29296    3                         ELSE
     5713    29297    3                           KX$L3.TMRBLK.BLNK$ -> KX$BTMRBLK.FLNK$ = KX$L3.TMRBLK.FLNK$
             29297                                     ;

  29297   2 002B5A  ECC4 004F                            LDB,B6   79,B4
          2 002B5C  BCC4 004D                            LDB,B3   77,B4
          2 002B5E  BF86                                 STB,B3   ,B6

     5714    29298    3                   END;

     5715    29299
     5716    29300    2       RETURN;

  29300   2 002B5F  ECC7 004E                            LDB,B6   TERMID+8,AUTO
          2 002B61  C3C6 0001                            LNJ,B4   1,B6
     5717    29301
     5718    29302    2   END Y$START_TIMER;
     5719    29303    1   END KXP$PACKET;     /* SUBROUTINE */
PL6.E3A0      #001=KXP$PACKET File=KXP$PACKET.:E05TSI                            WED 07/30/97 02:24 Page:669

PL6.E3A0      #001=KXP$PACKET File=KXP$PACKET.:E05TSI                            WED 07/30/97 02:24 Page:670
--  Include file information  --

   KV_GLB_M.:E05TOU  is referenced.
   KV$GLBCTX.:E05TOU  is referenced.
   KV$GLB.:E05TOU  is referenced.
   KV$VDH.:E05TOU  is referenced.
   KNH_MACRO_C.:E05TOU  is referenced.
   K_ADDRESS_M.:E05TOU  is referenced.
   KV_GLBCNS_E.:E05TOU  is referenced.
   KX_MACROS_M.:E05TOU  is referenced.
   KX_DATA_C.:E05TOU  is referenced.
   KX_SCODE_C.:E05TOU  is referenced.
   KX_PERR_C.:E05TOU  is referenced.
   KX_EQUS_E.:E05TOU  is referenced.
   KL_SUPER_C.:E05TOU  is referenced.
   KH_MACRO_C.:E05TOU  is referenced.
   KHA_FNC_E.:E05TOU  is referenced.
   KH$CHN.:E05TOU  is referenced.
   G_JIT_M.:E05TOU  is referenced.
   CP_6_SUBS.:E05TOU  is referenced.
   G_LCP6_E.:E05TOU  is referenced.
   GT_LCP6_M.:E05TOU  is referenced.
   KI_CP6.:E05TOU  is referenced.
   GF_LCP6_M.:E05TOU  is referenced.
   GM_LCP6_M.:E05TOU  is referenced.
   GU_LCP6_M.:E05TOU  is referenced.
   GJ_LCP6_M.:E05TOU  is referenced.
   GH_LCP6_M.:E05TOU  is referenced.
   LCP_6.:E05TOU  cannot be made into a system file and is referenced.
   KL_AFCN_C.:E05TOU  is referenced.
   KL_MACRO_C.:E05TOU  is referenced.
   K_ID_E.:E05TOU  is referenced.
      No diagnostics issued in procedure KXP$PACKET.
PL6.E3A0      #001=KXP$PACKET File=KXP$PACKET.:E05TSI                            WED 07/30/97 02:24 Page:671

 **** Variables and constants ****

  ****  Section 000 RoData KXP$PACKET

  ****  Scalars and arrays  ****
HexLoc.c.b A Datatyp(siz) R M Lvl/name                 HexLoc.c.b A Datatyp(siz) R M Lvl/name

   3A0-0-0/w STRC(32)    r     1 ADDRESS_MODIFIED         3A2-0-0/w STRC(32)    r     1 BAD_CLR_RQS
   3AA-0-0/w STRC(32)    r     1 BAD_GFI                  3AC-0-0/w STRC(32)    r     1 BAD_LCN0_GFI
   3B8-0-0/w STRC(32)    r     1 BAD_PR                   3BA-0-0/w STRC(32)    r     1 BAD_PS
   3A6-0-0/w STRC(32)    r     1 CALL_OUT                 3C8-0-0/w STRC(32)    r     1 CALRTREXH
   3CC-0-0/w STRC(32)    r     1 CALTIMOUT                386-0-0/w STRC(32)    r     1 CLRRCV
   3DC-0-0/w STRC(32)    r     1 CLRTIMOUT                3D0-0-0/w STRC(32)    r     1 CLR_P2
   3D2-0-0/w STRC(32)    r     1 CLR_P3                   3D4-0-0/w STRC(32)    r     1 CLR_P4
   38A-0-0/w STRC(32)    r     1 DCL_EVENT                3A4-0-0/w STRC(32)    r     1 DEVLGNFAL
   38C-0-0/w STRC(32)    r     1 DSB                      3C6-0-0/w STRC(32)    r     1 FTLCLR
   388-0-0/w STRC(32)    r     1 HC_DSC                   3CA-0-0/w STRC(32)    r     1 INVCALPRM
   3BC-0-0/w STRC(32)    r     1 INV_INTC                 3AE-0-0/w STRC(32)    r     1 INV_LCN0
   3C2-0-0/w STRC(32)    r     1 INV_RESTART_C
   3F0-0-0/w UBIN(16)    r     1 LOG_TO_CP6(0:12)
   3C0-0-0/w STRC(32)    r     1 NEW_RESTART              3B2-0-0/w STRC(32)    r     1 NO_L3CTX
   3C4-0-0/w STRC(32)    r     1 NO_LCN                   1C2-0-0/c STRC(7200)  r     1 PVC_STATE_TABLE
   39E-0-0/w STRC(32)    r     1 REDIRECTED_CALL          384-0-0/w STRC(32)    r     1 RESTART
   3B0-0-0/w STRC(32)    r     1 RESTART_LNG              38E-0-0/w STRC(32)    r     1 RLSACT
   390-0-0/w STRC(32)    r     1 RMTDCL                   392-0-0/w STRC(32)    r     1 RSTCMP
   3B4-0-0/w STRC(32)    r     1 RSTRCV                   3D6-0-0/w STRC(32)    r     1 RSTTIMOUT
   3B6-0-0/w STRC(32)    r     1 RST_D1                   3A8-0-0/w STRC(32)    r     1 SHORT_PACKET
     0-0-0/c STRC(7200)  r     1 STATE_TABLE              394-0-0/w STRC(32)    r     1 STOP
   3D8-0-0/w STRC(32)    r     1 UNKLCN                   3DA-0-0/w STRC(32)    r     1 UNKPCK
   396-0-0/w STRC(32)    r     1 VCDWN                    398-0-0/w STRC(32)    r     1 VCLST
   39A-0-0/w STRC(32)    r     1 VCRST                    39C-0-0/w STRC(32)    r     1 VCUP
   3BE-0-0/w STRC(32)    r     1 XTR_INT                  3FD-0-0/b BIT (16)    r     1 YESBIT
   3EA-0-0/w STRC(48)    r     1 Y_ACTSCR                 3E1-0-0/w STRC(48)    r     1 Y_BADCTXPTR
   3E7-0-0/w STRC(48)    r     1 Y_UNKACT                 3E4-0-0/w STRC(48)    r     1 Y_UNKEVT

  ****  Section 001  Data  KXP$PACKET

PL6.E3A0      #001=KXP$PACKET File=KXP$PACKET.:E05TSI                            WED 07/30/97 02:24 Page:672
  ****  Scalars and arrays  ****
HexLoc.c.b A Datatyp(siz) R M Lvl/name                 HexLoc.c.b A Datatyp(siz) R M Lvl/name

    47-0-0/w PTR         r     1 BFR$                      36-0-0/w STRC(256)   r     1 CALL_CM
    16-0-0/w STRC(256)   r     1 CALL_L2                   26-0-0/w STRC(256)   r     1 CALL_L3
     6-0-0/w STRC(256)   r     1 FPT_DATA_OUT               0-0-0/c STRC(40)    r     1 IN_PKTHDR
     0-0-0/c CHAR(5)     r     1 IN_PKTHDR_CHR              3-0-0/c STRC(40)    r     1 OUT_PKTHDR
     3-0-0/c CHAR(5)     r     1 OUT_PKTHDR_CHR            46-0-0/w UBIN(16)    r     1 SIZ

  ****  Auto variables  ****

  ****  Scalars and arrays  ****
HexLoc.c.b A Datatyp(siz) R M Lvl/name                 HexLoc.c.b A Datatyp(siz) R M Lvl/name

     4-0-0/w PTR         r     1 @FPT_X25                  50-0-0/w PTR         r     1 @PRD
    34-0-0/w UBIN(16)    r     1 ACTION                    51-0-0/c STRC(8)     r     1 ADREXT
    51-0-0/c UBIN(8)     r     1 ADREXTBYT                 50-0-0/w UBIN(16)    r     1 ADRLNG
    50-0-0/c STRC(16)    r     1 ADRLNGS                   57-0-0/c CHAR(66)    r     1 BFRC
    57-0-0/c UBIN(8)     r     1 BFRU(0:65)                32-0-0/w UBIN(16)    r     1 BYTE_INDEX
    12-0-0/w STRC(256)   r     1 CALL_FPT                   E-0-0/w PTR         r     1 CHN$
    3A-0-0/w UBIN(16)    r     1 CHR_$$$_X                 3C-0-0/w UBIN(16)    r     1 CHR_DUR_X
    3B-0-0/w UBIN(16)    r     1 CHR_SEG_X                  A-0-0/w PTR         r     1 CM$
    29-0-0/w UBIN(16)    r     1 CODE                       6-0-0/w PTR         r     1 DAT$
    3F-0-0/w UBIN(16)    r     1 DATACNT                   61-0-0/w UBIN(16)    r     1 DCOUNT
    2F-0-0/w UBIN(16)    r     1 DIAG                      50-0-0/w UBIN(16)    r     1 END_LCN
    22-0-0/w STRC(32)    r     1 ERCOD                     62-0-0/w UBIN(16)    r     1 EVENT
    56-0-0/w UBIN(16)    r     1 FACILITY_LENGTH_INDEX
    55-0-0/w UBIN(16)    r     1 FCLID                     54-0-0/w UBIN(16)    r     1 FCLLNG
    59-0-0/b BIT         r     1 FCL_PRESENT(0:13)
    59-0-0/b BIT (14)    r     1 FCL_PRESENT_BITS          50-0-0/b BIT         r     1 FOUND_ONE
    83-0-0/w STRC(720)   r     1 FPT@CONNECT               B0-0-0/w STRC(64)    r     1 FPT@TERM
    52-0-0/w STRC(256)   r     1 FPT_L3                    *0-0-0/w STRC(256)   r     1 FPT_X25
    52-0-0/w UBIN(16)    r     1 I                         2E-0-0/w UBIN(16)    r     1 ID
    40-0-0/w UBIN(16)    r     1 IN_PR                     35-0-0/w UBIN(32)    r     1 KHA_ERROR
    63-0-0/c STRC(128)   r     1 KNH_MESS                  6B-0-0/w STRC(384)   r     1 KV@SNDCQ
    B7-0-0/w STRC(32)    r     1 KV@USRENT                 B5-0-0/w STRC(32)    r     1 KV@VDH_DSC
     C-0-0/w PTR         r     1 L2$                       3D-0-0/w UBIN(16)    r     1 L2EXT
PL6.E3A0      #001=KXP$PACKET File=KXP$PACKET.:E05TSI                            WED 07/30/97 02:24 Page:673
     8-0-0/w PTR         r     1 L3$                       3E-0-0/w UBIN(16)    r     1 L3EXT
    28-0-0/w UBIN(16)    r     1 LCN                       41-0-0/b BIT         r     1 MBIT
    2C-0-0/w UBIN(16)    r     1 PEVENT                    5E-0-0/w UBIN(16)    r     1 PPR
    5F-0-0/w UBIN(16)    r     1 PR                        *0-0-0/w UBIN(16)    r     1 PRD
    45-0-0/w UBIN(16)    r     1 PS                        2D-0-0/w UBIN(16)    r     1 PSTATE
    53-0-0/b STRC(8)     r     1 PS_PR                     37-0-0/b BIT         r     1 SENDING_CALL
    33-0-0/w UBIN(16)    r     1 SIZ                       10-0-0/w PTR         r     1 STR$
    24-0-0/w PTR         r     1 S_TRMID$                  26-0-0/w UBIN(16)    r     1 S_VAL0
    27-0-0/w UBIN(16)    r     1 S_VAL1                    5C-0-0/w PTR         r     1 T$
    50-0-0/w PTR         r     1 T$                        52-0-0/w PTR         r     1 T$
    56-0-0/w UBIN(16)    r     1 TEMP                      2A-0-0/w UBIN(16)    r     1 TEMP0
    2B-0-0/w UBIN(16)    r     1 TEMP1                     44-0-0/w UBIN(16)    r     1 TEMP2
    42-0-0/w PTR         r     1 TEMP2$                    46-0-0/c STRC(128)   r     1 TERMID
    57-0-0/w PTR         r     1 TL3$                      B4-0-0/b BIT         r     1 TRY_SNDCQ
    60-0-0/w UBIN(16)    r     1 VS                        53-0-0/b UBIN(8)     r     1 Y@BYTE
    39-0-0/b BIT         r     1 Y@DFRINP

  ****  SYMREF variables  ****

  ****  Scalars and arrays  ****
HexLoc.c.b A Datatyp(siz) R M Lvl/name                 HexLoc.c.b A Datatyp(siz) R M Lvl/name

     0-0-0/w STRC(304)   r     1 FPT_CONNECT_C              0-0-0/w STRC(64)    r     1 FPT_TERM_C
     0-0-0/w PTR         r     1 G$JIT$                     0-0-0/w PTR         r     1 KV$PTR$
     0-0-0/w STRC(32)    r     1 KXX_VDH_DSC                0-0-0/w STRC(672)   r     1 KX_BUF
     0-0-0/w PTR         r     1 KX_CALLING_CM$             0-0-0/w STRC(64)    r     1 KX_CNTX
     0-0-0/b EPTR        r     1 KX_PM$(0:2)                0-0-0/w STRC(1248)  r     1 KX_STATS_X25
     0-0-0/w STRC(64)    r     1 KX_TMRBLK

  ****  BASED and DCB variables  ****

  ****  Scalars and arrays  ****
HexLoc.c.b A Datatyp(siz) R M Lvl/name                 HexLoc.c.b A Datatyp(siz) R M Lvl/name

     0-0-0/w STRC(288)   r     1 ADMIN_FPT                  0-0-0/c STRC(64)    r     1 ADR1
     0-0-0/c STRC(60)    r     1 ADR2
     0-0-0/c UBIN(8)     r     1 BYTE_ARRAY(0:256)
PL6.E3A0      #001=KXP$PACKET File=KXP$PACKET.:E05TSI                            WED 07/30/97 02:24 Page:674
     0-0-0/c ACHR        r     1 CHRBSD                     0-0-0/c CHAR(100)   r     1 DATSTR
     0-0-0/c CHAR(100)   r     1 INSTR                      0-0-0/w STRC(512)   r     1 KH$CHN
     0-0-0/w STRC(480)   r     1 KV$PTR                     0-0-0/w STRC(8960)  r     1 KV$STT
     0-0-0/w STRC(912)   r     1 KV$USRPRM                  0-0-0/w STRC(512)   r     1 KV$VDI
     0-0-0/w UBIN(16)    r     1 KVB_SIZ                    0-0-0/w STRC(160)   r     1 KX$BTMRBLK
     0-0-0/w STRC(128)   r     1 KX$DATA                    0-0-0/w STRC(144)   r     1 KX$FRAME
     0-0-0/w STRC(352)   r     1 KX$L1                      0-0-0/w STRC(4992)  r     1 KX$L2
     0-0-0/w STRC(2320)  r     1 KX$L3                      0-0-0/w STRC(384)   r     1 KX$LINKDEV
     0-0-0/w STRC(168)   r     1 KX$PACKET                  0-0-0/w STRC(128)   r     1 KX$TDATA
     0-0-0/w STRC(2320)  r     1 KX$TL3                     0-0-0/w STRC(184)   r     1 KX$XPACKET
     0-0-0/c CHAR(100)   r     1 OUTSTR                     0-0-0/c CHAR(8)     r     1 STRT
     0-0-0/c ACHR        r     1 STRT0                      0-0-0/c ACHR        r     1 STRT1
     0-0-0/c CHAR(5)     r     1 XPKTHDR                    0-0-0/w EPTR        r     1 Y@CNCMNG


   Procedure KXP$PACKET requires 11107 words for executable code.
   Procedure KXP$PACKET requires 200 words of local(AUTO) storage.

    No errors detected in file KXP$PACKET.:E05TSI    .
PL6.E3A0      #001=KXP$PACKET File=KXP$PACKET.:E05TSI                            WED 07/30/97 02:24 Page:675
          *** CROSS REFERENCE LISTING ***
**     DENOTES     IDENTIFIER DEFINITION
<<                 IDENTIFIER'S VALUE SET
>>                 IDENTIFIER'S VALUE USED
<>                 IDENTIFIER SET AND/OR USED
--                 IDENTIFIER REFERENCED
PL6.E3A0      #001=KXP$PACKET File=KXP$PACKET.:E05TSI                            WED 07/30/97 02:24 Page:676
          MINI XREF LISTING

ACTION
     20158**DCL     24063<<ASSIGN  24068<<ASSIGN  24081>>ASSIGN  24087>>DOCASE  24177>>IF      24189>>IF
     24271>>IF      25182>>IF      25199>>IF      28975>>IF      28975>>IF      28975>>IF      28975>>IF
ADDRESS_MODIFIED
     18044**DCL     26668>>ASSIGN  26785>>ASSIGN
ADMIN_FPT
     20351**DCL     23826<>CALL
ADMIN_FPT.CHN$
     20478**DCL     23828>>ASSIGN  23830>>ASSIGN  23831>>ASSIGN
ADMIN_FPT.TERMID.TERM
     20375**DCL     20384--REDEF
ADR1.ADR
     22529**DCL     26063<<ASSIGN  26066<<ASSIGN  26066>>ASSIGN  28472>>ASSIGN
ADR2.ADR
     22534**DCL     26063>>ASSIGN  28472<<ASSIGN
ADREXT IN PROCEDURE Y$WHAT_TYPE
     25753**DCL     25756--REDEF
ADREXT.LNG IN PROCEDURE Y$WHAT_TYPE
     25755**DCL     26283>>IF      26286>>ASSIGN  26286>>ASSIGN  26288>>ASSIGN  26289>>ASSIGN  26299>>IF
     26302>>ASSIGN  26302>>ASSIGN  26304>>ASSIGN  26305>>ASSIGN
ADREXTBYT IN PROCEDURE Y$WHAT_TYPE
     25756**DCL     26280<<ASSIGN  26296<<ASSIGN
ADRLNG IN PROCEDURE Y$WHAT_TYPE
     25752**DCL     25964<<ASSIGN  26456<<ASSIGN  26730<<ASSIGN
ADRLNGS IN PROCEDURE Y$WHAT_TYPE
     25748**DCL     25752--REDEF
ADRLNGS.LFT IN PROCEDURE Y$WHAT_TYPE
     25750**DCL     25967>>IF      25980>>ASSIGN  26068>>ASSIGN  26069>>IF      26071>>ASSIGN  26071>>ASSIGN
     26073>>ASSIGN  26459>>IF      26472>>ASSIGN  26733>>ASSIGN
ADRLNGS.RGH IN PROCEDURE Y$WHAT_TYPE
     25751**DCL     25973>>IF      25987>>IF      25987>>IF      25995>>ASSIGN  25998>>IF      26007>>IF
     26015>>IF      26018>>ASSIGN  26018>>ASSIGN  26023>>ASSIGN  26023>>ASSIGN  26059>>ASSIGN  26061>>IF
PL6.E3A0      #001=KXP$PACKET File=KXP$PACKET.:E05TSI                            WED 07/30/97 02:24 Page:677
     26063>>ASSIGN  26066>>ASSIGN  26073>>ASSIGN  26465>>IF      26472>>ASSIGN  26733>>ASSIGN
BAD_CLR_RQS
     18095**DCL     26744>>ASSIGN
BAD_GFI
     18304**DCL     23407>>ASSIGN  25862>>ASSIGN
BAD_LCN0_GFI
     18355**DCL     23430>>ASSIGN
BAD_PR
     18666**DCL     25619<>CALL
BAD_PS
     18717**DCL     25822>>ASSIGN
BFR$ IN PROCEDURE Y$DATOUT
     29113**DCL     29127<>CALL    29132>>ASSIGN
BFRC IN PROCEDURE Y$STUFF_FACILITIES
     28143**DCL     28144--REDEF   28272<<ASSIGN  28275<<ASSIGN  28284--ASSIGN
BFRU IN PROCEDURE Y$STUFF_FACILITIES
     28144**DCL     28154<<ASSIGN  28158<<ASSIGN  28160<<ASSIGN  28165<<ASSIGN  28167<<ASSIGN  28175<<ASSIGN
     28179<<ASSIGN  28180<<ASSIGN  28184<<ASSIGN  28185<<ASSIGN  28197<<ASSIGN  28201<<ASSIGN  28206<<ASSIGN
     28225<<ASSIGN  28226<<ASSIGN  28232<<ASSIGN  28233<<ASSIGN  28234<<ASSIGN  28242<<ASSIGN  28243<<ASSIGN
     28250<<ASSIGN  28251<<ASSIGN  28252<<ASSIGN  28259<<ASSIGN  28260<<ASSIGN  28266<<ASSIGN  28267<<ASSIGN
     28268<<ASSIGN  28271<<ASSIGN  28273<<ASSIGN  28274<<ASSIGN  28282<<ASSIGN
BYTE_ARRAY
     22522**DCL     23392--ASSIGN  25326<<ASSIGN  25964>>ASSIGN  26001>>ASSIGN  26018>>ASSIGN  26018>>ASSIGN
     26023>>ASSIGN  26023>>ASSIGN  26078>>ASSIGN  26097>>ASSIGN  26113>>ASSIGN  26131>>ASSIGN  26135>>ASSIGN
     26151>>ASSIGN  26179>>ASSIGN  26192>>ASSIGN  26215>>ASSIGN  26226>>ASSIGN  26246>>ASSIGN  26258>>ASSIGN
     26269>>ASSIGN  26280>>ASSIGN  26296>>ASSIGN  26347>>ASSIGN  26382>>IF      26419>>IF      26456>>ASSIGN
     26481>>ASSIGN  26499>>ASSIGN  26548>>ASSIGN  26559>>ASSIGN  26579>>ASSIGN  26591>>ASSIGN  26609>>ASSIGN
     26625>>ASSIGN  26651>>ASSIGN  26655>>ASSIGN  26730>>ASSIGN  26738>>ASSIGN  26750>>ASSIGN  26761>>ASSIGN
     28284--ASSIGN  28338--ASSIGN  28458<<ASSIGN  28735>>ASSIGN  28742>>ASSIGN  28744<<ASSIGN  28747<<ASSIGN
     28747>>ASSIGN  28770>>ASSIGN  28773<<ASSIGN  28777<<ASSIGN  28777>>ASSIGN  28780<<ASSIGN
BYTE_INDEX
     20156**DCL     24117>>ASSIGN  24118>>ASSIGN  24206>>ASSIGN  24207>>ASSIGN  24959>>ASSIGN  24960>>ASSIGN
     25325<<ASSIGN  25326>>ASSIGN  25327<<ASSIGN  25327>>ASSIGN  25329>>ASSIGN  25334>>ASSIGN  25959<<ASSIGN
     25964>>ASSIGN  25965<<ASSIGN  25965>>ASSIGN  25987>>IF      26001>>ASSIGN  26018>>ASSIGN  26018>>ASSIGN
     26023>>ASSIGN  26023>>ASSIGN  26060>>ASSIGN  26063>>ASSIGN  26066>>ASSIGN  26073<<ASSIGN  26073>>ASSIGN
     26078>>ASSIGN  26079<<ASSIGN  26079>>ASSIGN  26087>>IF      26097>>ASSIGN  26098<<ASSIGN  26098>>ASSIGN
PL6.E3A0      #001=KXP$PACKET File=KXP$PACKET.:E05TSI                            WED 07/30/97 02:24 Page:678
     26113>>ASSIGN  26114<<ASSIGN  26114>>ASSIGN  26131>>ASSIGN  26132<<ASSIGN  26132>>ASSIGN  26135>>ASSIGN
     26136<<ASSIGN  26136>>ASSIGN  26151>>ASSIGN  26152<<ASSIGN  26152>>ASSIGN  26179>>ASSIGN  26180<<ASSIGN
     26180>>ASSIGN  26192>>ASSIGN  26193<<ASSIGN  26193>>ASSIGN  26215>>ASSIGN  26216<<ASSIGN  26216>>ASSIGN
     26226>>ASSIGN  26227<<ASSIGN  26227>>ASSIGN  26246>>ASSIGN  26247<<ASSIGN  26247>>ASSIGN  26258>>ASSIGN
     26259<<ASSIGN  26259>>ASSIGN  26263<<ASSIGN  26263>>ASSIGN  26269>>ASSIGN  26270<<ASSIGN  26270>>ASSIGN
     26280>>ASSIGN  26281<<ASSIGN  26281>>ASSIGN  26286>>ASSIGN  26288<<ASSIGN  26288>>ASSIGN  26296>>ASSIGN
     26297<<ASSIGN  26297>>ASSIGN  26302>>ASSIGN  26304<<ASSIGN  26304>>ASSIGN  26322<<ASSIGN  26322>>ASSIGN
     26332<<ASSIGN  26332>>ASSIGN  26347>>ASSIGN  26348<<ASSIGN  26348>>ASSIGN  26351<<ASSIGN  26351>>ASSIGN
     26375>>IF      26381>>IF      26382>>IF      26419>>IF      26419>>IF      26446<<ASSIGN  26456>>ASSIGN
     26457<<ASSIGN  26457>>ASSIGN  26472<<ASSIGN  26472>>ASSIGN  26476>>IF      26481>>ASSIGN  26482<<ASSIGN
     26482>>ASSIGN  26490>>IF      26499>>ASSIGN  26500<<ASSIGN  26500>>ASSIGN  26511<<ASSIGN  26511>>ASSIGN
     26522<<ASSIGN  26522>>ASSIGN  26533<<ASSIGN  26533>>ASSIGN  26548>>ASSIGN  26549<<ASSIGN  26549>>ASSIGN
     26559>>ASSIGN  26560<<ASSIGN  26560>>ASSIGN  26579>>ASSIGN  26580<<ASSIGN  26580>>ASSIGN  26591>>ASSIGN
     26592<<ASSIGN  26592>>ASSIGN  26609>>ASSIGN  26610<<ASSIGN  26610>>ASSIGN  26625>>ASSIGN  26626<<ASSIGN
     26626>>ASSIGN  26628<<ASSIGN  26628>>ASSIGN  26639<<ASSIGN  26639>>ASSIGN  26651>>ASSIGN  26652<<ASSIGN
     26652>>ASSIGN  26655>>ASSIGN  26656<<ASSIGN  26656>>ASSIGN  26670<<ASSIGN  26670>>ASSIGN  26676<<ASSIGN
     26676>>ASSIGN  26690>>IF      26718<<ASSIGN  26730>>ASSIGN  26731<<ASSIGN  26731>>ASSIGN  26733<<ASSIGN
     26733>>ASSIGN  26734>>IF      26738>>ASSIGN  26739<<ASSIGN  26739>>ASSIGN  26750>>ASSIGN  26751<<ASSIGN
     26751>>ASSIGN  26758>>ASSIGN  26761>>ASSIGN  26762<<ASSIGN  26762>>ASSIGN  26764<<ASSIGN  26764>>ASSIGN
     26771>>ASSIGN  26778>>ASSIGN  26787<<ASSIGN  26787>>ASSIGN  26794<<ASSIGN  28284>>ASSIGN  28285<<ASSIGN
     28285>>ASSIGN  28455<<ASSIGN  28458>>ASSIGN  28459<<ASSIGN  28459>>ASSIGN  28462>>ASSIGN  28466<<ASSIGN
     28466>>ASSIGN  28467>>ASSIGN  28468<<ASSIGN  28468>>ASSIGN  28472>>ASSIGN  28473<<ASSIGN  28473>>ASSIGN
     28486>>ASSIGN  28488<<ASSIGN  28488>>ASSIGN  28495>>ASSIGN
CALL_CM IN PROCEDURE Y$GETDAT
     28639**DCL     28841<>CALL
CALL_CM.CAL$ IN PROCEDURE Y$GETDAT
     28643**DCL     28838<<ASSIGN
CALL_CM.EVN IN PROCEDURE Y$GETDAT
     28643**DCL     28840<<ASSIGN
CALL_CM.PRM1$ IN PROCEDURE Y$GETDAT
     28644**DCL     28645--REDEF
CALL_CM.PRM2$ IN PROCEDURE Y$GETDAT
     28646**DCL     28646--REDEF
CALL_CM.PRS.PRM1 IN PROCEDURE Y$GETDAT
     28649**DCL     28847>>ASSIGN
CALL_CM.PRS.PRM2 IN PROCEDURE Y$GETDAT
PL6.E3A0      #001=KXP$PACKET File=KXP$PACKET.:E05TSI                            WED 07/30/97 02:24 Page:679
     28649**DCL     28848>>ASSIGN
CALL_CM.RCV$ IN PROCEDURE Y$GETDAT
     28643**DCL     28839<<ASSIGN  28841>>CALL
CALL_CM.V_ IN PROCEDURE Y$GETDAT
     28647**DCL     28845>>ASSIGN
CALL_CM.V_.BYTSIZ IN PROCEDURE Y$GETDAT
     28648**DCL     28842>>IF      28846<<ASSIGN
CALL_FPT
     20079**DCL     23350<<ASSIGN  23665<>CALL    23966<>CALL    23986<>CALL    24008<>CALL    24306<<ASSIGN
     24309<>CALL    25345<<ASSIGN  25408<>CALL    25410<>CALL    28342<>CALL
CALL_FPT.CAL$
     20083**DCL     23557<<ASSIGN  23558<>CALL    23658<<ASSIGN  23825<<ASSIGN  23826<>CALL    23961<<ASSIGN
     23982<<ASSIGN  24005<<ASSIGN  25404<<ASSIGN
CALL_FPT.EVN
     20083**DCL     23654<<ASSIGN  23662<<ASSIGN  23664<<ASSIGN  23940<<ASSIGN  23959<<ASSIGN  23981<<ASSIGN
     24007<<ASSIGN  24114<<ASSIGN  24182<<ASSIGN  24184<<ASSIGN  24224<<ASSIGN  24257<<ASSIGN  24260<<ASSIGN
     24265<<ASSIGN  24286>>DOCASE  24307<<ASSIGN  24360<<ASSIGN  24649<<ASSIGN  24747<<ASSIGN  24782<<ASSIGN
     24815<<ASSIGN  24852<<ASSIGN  24873<<ASSIGN  24925<<ASSIGN  24954<<ASSIGN  24993<<ASSIGN  24999<<ASSIGN
     25033<<ASSIGN  25044<<ASSIGN  25048<<ASSIGN  25120<<ASSIGN  25167<<ASSIGN  25346<<ASSIGN  25365<<ASSIGN
     28339<<ASSIGN
CALL_FPT.PRM1
     20084**DCL     23985<<ASSIGN  24215<<ASSIGN  24365<<ASSIGN  24748<<ASSIGN  24761>>ASSIGN  24824<<ASSIGN
     24930<<ASSIGN  24955<<ASSIGN  24971>>ASSIGN  25007<<ASSIGN  25038<<ASSIGN  25042>>IF      25046>>IF
CALL_FPT.PRM1$
     20084**DCL     20085--REDEF   23965<<ASSIGN  24115<<ASSIGN  24750<<ASSIGN  24956<<ASSIGN  25347<<ASSIGN
     28341<<ASSIGN
CALL_FPT.PRM2
     20084**DCL     24220<<ASSIGN  24370<<ASSIGN  24749<<ASSIGN  24829<<ASSIGN  24935<<ASSIGN  25012<<ASSIGN
     25054<<ASSIGN
CALL_FPT.PRM2$
     20086**DCL     20086--REDEF   24751<<ASSIGN  24957<<ASSIGN
CALL_FPT.PRM3N4.PRM3
     20085**DCL     24208<<ASSIGN
CALL_FPT.PRM3N4.PRM4
     20086**DCL     24209<<ASSIGN
CALL_FPT.PRM5N6.PRM5
PL6.E3A0      #001=KXP$PACKET File=KXP$PACKET.:E05TSI                            WED 07/30/97 02:24 Page:680
     20087**DCL     24210<<ASSIGN
CALL_FPT.PRS
     20089**DCL     24585<<ASSIGN
CALL_FPT.PRS.PRM1
     20089**DCL     23942<<ASSIGN  23984<<ASSIGN  24214<<ASSIGN  24364<<ASSIGN  24651<<ASSIGN  24756>>ASSIGN
     24823<<ASSIGN  24929<<ASSIGN  24966>>ASSIGN  25006<<ASSIGN  25037<<ASSIGN
CALL_FPT.PRS.PRM2
     20089**DCL     23943<<ASSIGN  24219<<ASSIGN  24369<<ASSIGN  24652<<ASSIGN  24653<<ASSIGN  24828<<ASSIGN
     24934<<ASSIGN  25011<<ASSIGN  25053<<ASSIGN
CALL_FPT.PRS.V
     20090**DCL     24193<<ASSIGN  24819<<ASSIGN
CALL_FPT.RCV$
     20083**DCL     23659<<ASSIGN  23960<<ASSIGN  23983<<ASSIGN  24006<<ASSIGN  24308<<ASSIGN  24755>>ASSIGN
     24965>>ASSIGN  25405<<ASSIGN  28340<<ASSIGN
CALL_FPT.V_
     20087**DCL     23941<<ASSIGN  24650<<ASSIGN
CALL_FPT.V_.ADR$
     20087**DCL     24116<<ASSIGN  24205<<ASSIGN  24853<<ASSIGN  24958<<ASSIGN
CALL_FPT.V_.BYTSIZ
     20088**DCL     24118<<ASSIGN  24207<<ASSIGN  24855<<ASSIGN  24960<<ASSIGN
CALL_FPT.V_.BYTX
     20088**DCL     24117<<ASSIGN  24206<<ASSIGN  24854<<ASSIGN  24959<<ASSIGN
CALL_KXF IN PROCEDURE Y$GETDAT
     28794**LABEL   28750--GOTO
CALL_L2 IN PROCEDURE Y$GETDAT
     28551**DCL     28794<>CALL
CALL_L2.CAL$ IN PROCEDURE Y$GETDAT
     28555**DCL     28725<<ASSIGN
CALL_L2.PRM1$ IN PROCEDURE Y$GETDAT
     28556**DCL     28557--REDEF   28729<<ASSIGN  28730>>ASSIGN  28735>>ASSIGN  28742>>ASSIGN  28744>>ASSIGN
     28747>>ASSIGN  28747>>ASSIGN  28764<<ASSIGN  28765>>ASSIGN  28770>>ASSIGN  28773>>ASSIGN  28777>>ASSIGN
     28777>>ASSIGN  28780>>ASSIGN
CALL_L2.PRM2$ IN PROCEDURE Y$GETDAT
     28558**DCL     28558--REDEF
CALL_L2.RCV$ IN PROCEDURE Y$GETDAT
     28555**DCL     28667>>IF      28670<<ASSIGN  28863<<ASSIGN  28867<<ASSIGN
PL6.E3A0      #001=KXP$PACKET File=KXP$PACKET.:E05TSI                            WED 07/30/97 02:24 Page:681
CALL_L3 IN PROCEDURE Y$GETDAT
     28595**DCL     28705<>CALL
CALL_L3.CAL$ IN PROCEDURE Y$GETDAT
     28599**DCL     28671<<ASSIGN
CALL_L3.EVN IN PROCEDURE Y$GETDAT
     28599**DCL     28700<<ASSIGN
CALL_L3.PRM1$ IN PROCEDURE Y$GETDAT
     28600**DCL     28601--REDEF
CALL_L3.PRM2$ IN PROCEDURE Y$GETDAT
     28602**DCL     28602--REDEF
CALL_L3.RCV$ IN PROCEDURE Y$GETDAT
     28599**DCL     28703<<ASSIGN
CALL_OUT
     18197**DCL     28508>>ASSIGN
CALRTREXH
     19079**DCL     24255>>ASSIGN  24400>>ASSIGN
CALTIMOUT
     19182**DCL     24391>>ASSIGN
CHARGING_INFO IN PROCEDURE Y$WHAT_TYPE
     26758**LABEL   26772--GOTO    26779--GOTO
CHN$
     20005**DCL     26029<>CALL    26032<<ASSIGN  26038>>DOWHILE 26038>>DOWHILE 26038>>DOWHILE
CHRBSD IN PROCEDURE Y$STUFF_FACILITIES
     28145**DCL     28284<<ASSIGN  28284>>ASSIGN
CHR_$$$_X
     20163**DCL     23351<<ASSIGN  24208>>ASSIGN  26758<<ASSIGN
CHR_DUR_X
     20165**DCL     23353<<ASSIGN  24210>>ASSIGN  26771<<ASSIGN
CHR_SEG_X
     20164**DCL     23352<<ASSIGN  24209>>ASSIGN  26778<<ASSIGN
CLRRCV
     17376**DCL     24202>>ASSIGN
CLRTIMOUT
     19590**DCL     24526>>ASSIGN
CLR_COMMON
     24334**LABEL   24410--GOTO    24428--GOTO    24448--GOTO    24464--GOTO    24492--GOTO    24508--GOTO
PL6.E3A0      #001=KXP$PACKET File=KXP$PACKET.:E05TSI                            WED 07/30/97 02:24 Page:682
     24554--GOTO
CLR_P2
     19284**DCL     24440>>ASSIGN
CLR_P3
     19335**DCL     24460>>ASSIGN
CLR_P4
     19386**DCL     24487>>ASSIGN
CM$
     20003**DCL     22526--IMP-PTR 23341<<ASSIGN  23347<<ASSIGN  23575<<ASSIGN  23651>>IF      23658>>ASSIGN
     23748<<ASSIGN  23751>>IF      23804<<ASSIGN  23807>>IF      23982>>ASSIGN  24267>>IF      24357>>IF
     24922>>IF      25405>>ASSIGN  25406>>IF      25410>>CALL
CODE
     20146**DCL     23627<<ASSIGN  23629<<ASSIGN  23725<<ASSIGN  23925<<ASSIGN  23927<<ASSIGN  24139<<ASSIGN
     24145<<ASSIGN  24228<<ASSIGN  24403<<ASSIGN  24810<<ASSIGN  25185<<ASSIGN  29183<>CALL
DAT$
     20001**DCL     21372--IMP-PTR 21392--IMP-PTR 21424--IMP-PTR 21458--IMP-PTR 21524--IMP-PTR 22104--IMP-PTR
     22522--IMP-PTR 23391<<ASSIGN  23392>>ASSIGN  23393>>ASSIGN  23453>>ASSIGN  23877<<ASSIGN  23878>>ASSIGN
     23879>>ASSIGN  23881>>ASSIGN  23963<<ASSIGN  23964>>ASSIGN  23965>>ASSIGN  24116>>ASSIGN  24118>>ASSIGN
     24205>>ASSIGN  24207>>ASSIGN  24346<<ASSIGN  24347>>ASSIGN  24348>>ASSIGN  24568>>ASSIGN  24574>>ASSIGN
     24576>>ASSIGN  24577>>ASSIGN  24578>>ASSIGN  24579>>ASSIGN  24590>>ASSIGN  24640>>ASSIGN  24853>>ASSIGN
     24958>>ASSIGN  24960>>ASSIGN  25111<<ASSIGN  25112>>ASSIGN  25113>>ASSIGN  25213<<ASSIGN  25214>>ASSIGN
     25215>>ASSIGN  25229>>ASSIGN  25281<<ASSIGN  25282>>ASSIGN  25283>>ASSIGN  25321<<ASSIGN  25322>>ASSIGN
     25326>>ASSIGN  25329>>ASSIGN  25334>>ASSIGN  25336>>ASSIGN  25336>>ASSIGN  25357<>CALL    25358>>ASSIGN
     25359>>ASSIGN  25372<>CALL    25373>>ASSIGN  25374>>ASSIGN  25476>>ASSIGN  25518>>ASSIGN  25530>>ASSIGN
     25532>>ASSIGN  25533>>ASSIGN  25536>>ASSIGN  25619>>CALL    25690<<ASSIGN  25694>>ASSIGN  25698>>ASSIGN
     25726>>ASSIGN  25726>>ASSIGN  25819>>IF      25832>>IF      25964>>ASSIGN  25987>>IF      26001>>ASSIGN
     26018>>ASSIGN  26018>>ASSIGN  26023>>ASSIGN  26023>>ASSIGN  26060>>ASSIGN  26063>>ASSIGN  26066>>ASSIGN
     26078>>ASSIGN  26087>>IF      26097>>ASSIGN  26113>>ASSIGN  26131>>ASSIGN  26135>>ASSIGN  26151>>ASSIGN
     26179>>ASSIGN  26192>>ASSIGN  26215>>ASSIGN  26226>>ASSIGN  26246>>ASSIGN  26258>>ASSIGN  26269>>ASSIGN
     26280>>ASSIGN  26286>>ASSIGN  26296>>ASSIGN  26302>>ASSIGN  26347>>ASSIGN  26375>>IF      26381>>IF
     26382>>IF      26419>>IF      26419>>IF      26456>>ASSIGN  26476>>IF      26481>>ASSIGN  26490>>IF
     26499>>ASSIGN  26548>>ASSIGN  26559>>ASSIGN  26579>>ASSIGN  26591>>ASSIGN  26609>>ASSIGN  26625>>ASSIGN
     26651>>ASSIGN  26655>>ASSIGN  26690>>IF      26730>>ASSIGN  26738>>ASSIGN  26750>>ASSIGN  26761>>ASSIGN
     26794>>ASSIGN  26817>>IF      28284>>ASSIGN  28333<<ASSIGN  28334>>ASSIGN  28337>>ASSIGN  28338>>ASSIGN
     28341>>ASSIGN  28449<<ASSIGN  28450>>ASSIGN  28458>>ASSIGN  28462>>ASSIGN  28467>>ASSIGN  28472>>ASSIGN
     28486>>ASSIGN  28495>>ASSIGN  28911<<ASSIGN  28912>>ASSIGN  28913<>CALL    28945<<ASSIGN  28946>>ASSIGN
PL6.E3A0      #001=KXP$PACKET File=KXP$PACKET.:E05TSI                            WED 07/30/97 02:24 Page:683
     28947>>ASSIGN  28948>>IF      28950<>CALL    28971<<ASSIGN  29070>>CALL    29132<<ASSIGN  29140>>ASSIGN
     29145>>ASSIGN  29147>>ASSIGN  29148>>ASSIGN  29150>>ASSIGN  29151>>ASSIGN  29153>>ASSIGN
DATACNT
     20168**DCL     23393<<ASSIGN  23394>>IF      23446>>IF      23446>>IF      23446>>IF      23583>>IF
     23587>>IF      24194>>IF      24211>>IF      24216>>IF      24361>>IF      24366>>IF      24549>>IF
     24583>>ASSIGN  24592>>ASSIGN  24636<<ASSIGN  24800>>IF      24820>>IF      24825>>IF      24855>>ASSIGN
     24907>>IF      24926>>IF      24931>>IF      25003>>IF      25008>>IF      25034>>IF      25050>>IF
     25079>>IF      25083>>IF      25094>>IF      25806>>IF      25806>>IF      25816>>IF      25885>>IF
     26447>>IF      26711>>IF      26719>>IF      26734>>IF      26809>>IF      26809>>IF      26835>>IF
     26844>>IF
DATSTR
     22104**DCL     24617<<ASSIGN  24640>>ASSIGN  29153<<ASSIGN
DCL_EVENT
     17481**DCL     24736>>ASSIGN
DCOUNT IN PROCEDURE Y$PR
     25561**DCL     25626<<ASSIGN  25628>>ASSIGN  25672>>IF
DECODE_CLR IN PROCEDURE Y$WHAT_TYPE
     26711**LABEL   26803--GOTO
DEVLGNFAL
     18146**DCL     27978>>ASSIGN
DIAG
     20153**DCL     24351>>ASSIGN  24409<<ASSIGN  24427<<ASSIGN  24445<<ASSIGN  24447<<ASSIGN  24463<<ASSIGN
     24483<<ASSIGN  24489<<ASSIGN  24507<<ASSIGN  24547<<ASSIGN  24551<<ASSIGN  24553<<ASSIGN  25081<<ASSIGN
     25085<<ASSIGN  25092<<ASSIGN  25096<<ASSIGN  25098<<ASSIGN  25102<<ASSIGN  25104<<ASSIGN  25115>>ASSIGN
     25622<<ASSIGN  25828<<ASSIGN  25938<<ASSIGN  25956<<ASSIGN  25970<<ASSIGN  25976<<ASSIGN  25993<<ASSIGN
     26055<<ASSIGN  26084<<ASSIGN  26090<<ASSIGN  26108<<ASSIGN  26157<<ASSIGN  26287<<ASSIGN  26303<<ASSIGN
     26357<<ASSIGN  26378<<ASSIGN  26386<<ASSIGN  26393<<ASSIGN  26399>>IF      26407<<ASSIGN  26441<<ASSIGN
     26462<<ASSIGN  26468<<ASSIGN  26487<<ASSIGN  26493<<ASSIGN  26683<<ASSIGN  26725<<ASSIGN  26827<<ASSIGN
     29070<>CALL
DSB
     17532**DCL     24774>>ASSIGN
END_LCN IN PROCEDURE Y$CALL
     28382**DCL     28392<<ASSIGN  28397<<ASSIGN  28419>>IF      28420>>IF
ERCOD
     20110**DCL     23397<<ASSIGN  23407<<ASSIGN  23430<<ASSIGN  23451<<ASSIGN  23481<<ASSIGN  23493<<ASSIGN
     23508<<ASSIGN  23554<<ASSIGN  23561<<ASSIGN  23863<<ASSIGN  24136<<ASSIGN  24196<<ASSIGN  24202<<ASSIGN
PL6.E3A0      #001=KXP$PACKET File=KXP$PACKET.:E05TSI                            WED 07/30/97 02:24 Page:684
     24255<<ASSIGN  24334<<ASSIGN  24391<<ASSIGN  24400<<ASSIGN  24423<<ASSIGN  24440<<ASSIGN  24460<<ASSIGN
     24487<<ASSIGN  24504<<ASSIGN  24526<<ASSIGN  24541<<ASSIGN  24736<<ASSIGN  24774<<ASSIGN  24804<<ASSIGN
     24911<<ASSIGN  24916<<ASSIGN  24950<<ASSIGN  24991<<ASSIGN  24997<<ASSIGN  25028<<ASSIGN  25076<<ASSIGN
     25201<<ASSIGN  25203<<ASSIGN  25245<<ASSIGN  25260<<ASSIGN  25275<<ASSIGN  25307<<ASSIGN  25822<<ASSIGN
     25862<<ASSIGN  26344<<ASSIGN  26668<<ASSIGN  26744<<ASSIGN  26785<<ASSIGN  26824<<ASSIGN  27978<<ASSIGN
     28508<<ASSIGN  28984<<ASSIGN  28990<<ASSIGN  29013<>CALL    29041<>CALL    29070<>CALL    29096<>CALL
EVENT IN PROCEDURE Y$START_L3S
     26951**DCL     27945<<ASSIGN  27992<<ASSIGN  27999<<ASSIGN  28082>>IF      28104>>IF      28112>>ASSIGN
EXIT_CASE
     24715**LABEL   24614--GOTO
FACILITY_LENGTH_INDEX IN PROCEDURE Y$STUFF_FACILITIES
     28142**DCL     28145--IMP-SIZ 28147<<ASSIGN  28154>>ASSIGN  28158>>ASSIGN  28160>>ASSIGN  28165>>ASSIGN
     28167>>ASSIGN  28170<<ASSIGN  28170>>ASSIGN  28175>>ASSIGN  28179>>ASSIGN  28180>>ASSIGN  28184>>ASSIGN
     28185>>ASSIGN  28187<<ASSIGN  28187>>ASSIGN  28197>>ASSIGN  28201>>ASSIGN  28206>>ASSIGN  28209<<ASSIGN
     28209>>ASSIGN  28225>>ASSIGN  28226>>ASSIGN  28232>>ASSIGN  28233>>ASSIGN  28234>>ASSIGN  28238<<ASSIGN
     28238>>ASSIGN  28242>>ASSIGN  28243>>ASSIGN  28245<<ASSIGN  28245>>ASSIGN  28250>>ASSIGN  28251>>ASSIGN
     28252>>ASSIGN  28253<<ASSIGN  28253>>ASSIGN  28259>>ASSIGN  28260>>ASSIGN  28261<<ASSIGN  28261>>ASSIGN
     28266>>ASSIGN  28267>>ASSIGN  28268>>ASSIGN  28271>>ASSIGN  28272>>ASSIGN  28273>>ASSIGN  28274>>ASSIGN
     28275>>ASSIGN  28276<<ASSIGN  28276>>ASSIGN  28282>>ASSIGN  28283<<ASSIGN  28283>>ASSIGN  28284>>ASSIGN
     28284>>ASSIGN  28285>>ASSIGN
FCLID IN PROCEDURE Y$WHAT_TYPE
     25760**DCL     26097<<ASSIGN  26100>>DOSELCT 26269<<ASSIGN  26273>>DOSELCT 26499<<ASSIGN  26502>>DOSELCT
     26750<<ASSIGN  26753>>DOSELCT
FCLLNG IN PROCEDURE Y$WHAT_TYPE
     25759**DCL     26078<<ASSIGN  26081>>IF      26087>>IF      26095>>DOINDEX 26263>>ASSIGN  26264>>ASSIGN
     26267>>DOWHILE 26481<<ASSIGN  26484>>IF      26490>>IF      26497>>DOINDEX 26676>>ASSIGN  26677>>ASSIGN
     26738<<ASSIGN  26741>>IF      26748>>DOINDEX 26795>>ASSIGN
FCL_PRESENT IN PROCEDURE Y$WHAT_TYPE
     25780**DCL     25781--REDEF   26105>>IF      26111<<ASSIGN  26123>>IF      26129<<ASSIGN  26146>>IF
     26149<<ASSIGN  26173>>IF      26176<<ASSIGN  26210>>IF      26213<<ASSIGN  26275>>IF      26278<<ASSIGN
     26291>>IF      26294<<ASSIGN  26314>>IF      26320<<ASSIGN  26324>>IF      26330<<ASSIGN  26337>>IF
     26343<<ASSIGN  26368>>IF      26368>>IF      26423>>IF      26425>>IF      26507>>IF      26510<<ASSIGN
     26518>>IF      26521<<ASSIGN  26529>>IF      26532<<ASSIGN  26543>>IF      26546<<ASSIGN  26574>>IF
     26577<<ASSIGN  26604>>IF      26607<<ASSIGN  26620>>IF      26623<<ASSIGN  26635>>IF      26638<<ASSIGN
     26646>>IF      26649<<ASSIGN  26664>>IF      26667<<ASSIGN
FCL_PRESENT_BITS IN PROCEDURE Y$WHAT_TYPE
PL6.E3A0      #001=KXP$PACKET File=KXP$PACKET.:E05TSI                            WED 07/30/97 02:24 Page:685
     25781**DCL     26093<<ASSIGN  26453<<ASSIGN
FOUND_ONE IN PROCEDURE Y$GETDAT
     28523**DCL     28716>>DOUNTIL 28717<<ASSIGN  28795<<ASSIGN  28818>>DOUNTIL 28821<<ASSIGN  28853<<ASSIGN
     28860>>IF
FOUND_SUBSUBCHN IN PROCEDURE Y$WHAT_TYPE
     26045**LABEL   25996--GOTO    26048--GOTO
FPT@CONNECT IN PROCEDURE Y$START_L3S
     27020**DCL     27957<<ASSIGN  28086--ASSIGN  28087--ASSIGN  28088--ASSIGN
FPT@CONNECT.DEST.ADDRESS_N IN PROCEDURE Y$START_L3S
     27117**DCL     27118--REDEF
FPT@CONNECT.DSTSNPA IN PROCEDURE Y$START_L3S
     27173**DCL     27960<<ASSIGN
FPT@CONNECT.DSTSNPA.ADR_STRING IN PROCEDURE Y$START_L3S
     27173**DCL     27173--REDEF
FPT@CONNECT.LADR.ADDRESS_N IN PROCEDURE Y$START_L3S
     27169**DCL     27170--REDEF
FPT@CONNECT.RLCID.FLAGS.VIRCIR IN PROCEDURE Y$START_L3S
     27058**DCL     27958<<ASSIGN
FPT@CONNECT.RLCID.GENERATION IN PROCEDURE Y$START_L3S
     27056**DCL     27057--REDEF
FPT@CONNECT.RLCID.LDCTX IN PROCEDURE Y$START_L3S
     27057**DCL     27057--REDEF
FPT@CONNECT.RLCID.NODE IN PROCEDURE Y$START_L3S
     27056**DCL     27959<<ASSIGN
FPT@CONNECT.SERVICE IN PROCEDURE Y$START_L3S
     27059**DCL     27961<<ASSIGN
FPT@CONNECT.TERMINAL_ID IN PROCEDURE Y$START_L3S
     27043**DCL     27962<<ASSIGN
FPT@CONNECT.TERMINAL_ID.TERM IN PROCEDURE Y$START_L3S
     27045**DCL     27054--REDEF
FPT@TERM IN PROCEDURE Y$START_L3S
     27191**DCL     28012<<ASSIGN  28093--ASSIGN  28094--ASSIGN  28095--ASSIGN
FPT@TERM.RLCID.LDCTX IN PROCEDURE Y$START_L3S
     27196**DCL     28013<<ASSIGN
FPT_CONNECT_C IN PROCEDURE Y$START_L3S
     27214**DCL     27957>>ASSIGN
PL6.E3A0      #001=KXP$PACKET File=KXP$PACKET.:E05TSI                            WED 07/30/97 02:24 Page:686
FPT_CONNECT_C.RLCID.GENERATION IN PROCEDURE Y$START_L3S
     27250**DCL     27251--REDEF
FPT_CONNECT_C.RLCID.LDCTX IN PROCEDURE Y$START_L3S
     27251**DCL     27251--REDEF
FPT_CONNECT_C.TERMINAL_ID.TERM IN PROCEDURE Y$START_L3S
     27239**DCL     27248--REDEF
FPT_DATA_OUT IN PROCEDURE Y$PACKET_OUT
     25454**DCL     25540<>CALL
FPT_DATA_OUT.PRM1$ IN PROCEDURE Y$PACKET_OUT
     25459**DCL     25460--REDEF   25476<<ASSIGN
FPT_DATA_OUT.PRM2$ IN PROCEDURE Y$PACKET_OUT
     25461**DCL     25461--REDEF
FPT_DATA_OUT.RCV$ IN PROCEDURE Y$PACKET_OUT
     25458**DCL     25475<<ASSIGN
FPT_L3 IN PROCEDURE Y$START_L3S
     26934**DCL     28111<<ASSIGN  28124<>CALL
FPT_L3.EVN IN PROCEDURE Y$START_L3S
     26938**DCL     28112<<ASSIGN
FPT_L3.PRM1$ IN PROCEDURE Y$START_L3S
     26939**DCL     26940--REDEF
FPT_L3.PRM2$ IN PROCEDURE Y$START_L3S
     26941**DCL     26941--REDEF
FPT_L3.RCV$ IN PROCEDURE Y$START_L3S
     26938**DCL     28122<<ASSIGN
FPT_TERM_C IN PROCEDURE Y$START_L3S
     27283**DCL     28012>>ASSIGN
FPT_X25
     20035**DCL        13--PROC
FPT_X25.CAL$
     20039**DCL     23346>>ASSIGN  23747>>ASSIGN  23748>>ASSIGN  23751>>IF      23803>>ASSIGN  23804>>ASSIGN
     23807>>IF
FPT_X25.EVN
     20039**DCL     23361>>ASSIGN
FPT_X25.PRM1
     20040**DCL     24523<<ASSIGN  25220>>ASSIGN  25288>>ASSIGN
FPT_X25.PRM1$
PL6.E3A0      #001=KXP$PACKET File=KXP$PACKET.:E05TSI                            WED 07/30/97 02:24 Page:687
     20040**DCL     20041--REDEF   20351--IMP-PTR 23391>>ASSIGN  23826>>CALL    23828>>ASSIGN  23830>>ASSIGN
     23831>>ASSIGN  23857<<ASSIGN  23911>>IF      23911>>IF      23919>>ASSIGN  24664<<ASSIGN  24670>>IF
     24686>>IF      24692<<ASSIGN  25140<<ASSIGN  28971>>ASSIGN
FPT_X25.PRM2$
     20042**DCL     20042--REDEF
FPT_X25.PRS.PRM1
     20045**DCL     24522<<ASSIGN  25218>>IF      25286>>IF
FPT_X25.RCV$
     20039**DCL     23335>>ASSIGN
FPT_X25.V_.ADR$
     20043**DCL     23881>>ASSIGN  25229>>ASSIGN  25334>>ASSIGN  28482>>IF      28486>>ASSIGN
FPT_X25.V_.BYTSIZ
     20044**DCL     23853>>IF      23875>>ASSIGN  25210>>ASSIGN  25330>>ASSIGN  28485>>ASSIGN
FPT_X25.V_.BYTX
     20044**DCL     23881>>ASSIGN  25229>>ASSIGN  25334>>ASSIGN  28486>>ASSIGN
FTLCLR
     19028**DCL     24196>>ASSIGN  24804>>ASSIGN  24911>>ASSIGN
G$JIT.ERRLOG
     22449**DCL     22452--REDEF
G$JIT.JSUNIT
     22188**DCL     22189--REDEF
G$JIT.MCLS
     22187**DCL     22187--REDEF
G$JIT.TMRZ
     22456**DCL     22457--REDEF
G$JIT.USER_EXTIME
     22180**DCL     22181--REDEF
G$JIT.USER_MEMTIME
     22183**DCL     22183--REDEF
G$JIT.USER_SVTIME
     22182**DCL     22182--REDEF
G$JIT$
     23235**DCL     22119--IMP-PTR
GET_L3
     23540**LABEL   23543--EXIT
HC_DSC
PL6.E3A0      #001=KXP$PACKET File=KXP$PACKET.:E05TSI                            WED 07/30/97 02:24 Page:688
     17430**DCL     24423>>ASSIGN
I IN PROCEDURE Y$WHAT_TYPE
     25757**DCL     26095<<DOINDEX 26117<<ASSIGN  26117>>ASSIGN  26139<<ASSIGN  26139>>ASSIGN  26165<<ASSIGN
     26165>>ASSIGN  26203<<ASSIGN  26203>>ASSIGN  26238<<ASSIGN  26238>>ASSIGN  26251<<ASSIGN  26251>>ASSIGN
     26263>>ASSIGN  26264<<ASSIGN  26266<<ASSIGN  26266>>ASSIGN  26267>>DOWHILE 26272<<ASSIGN  26272>>ASSIGN
     26289<<ASSIGN  26289>>ASSIGN  26305<<ASSIGN  26305>>ASSIGN  26321<<ASSIGN  26321>>ASSIGN  26331<<ASSIGN
     26331>>ASSIGN  26350<<ASSIGN  26350>>ASSIGN  26497<<DOINDEX 26512<<ASSIGN  26512>>ASSIGN  26523<<ASSIGN
     26523>>ASSIGN  26534<<ASSIGN  26534>>ASSIGN  26568<<ASSIGN  26568>>ASSIGN  26598<<ASSIGN  26598>>ASSIGN
     26614<<ASSIGN  26614>>ASSIGN  26629<<ASSIGN  26629>>ASSIGN  26640<<ASSIGN  26640>>ASSIGN  26658<<ASSIGN
     26658>>ASSIGN  26669<<ASSIGN  26669>>ASSIGN  26676>>ASSIGN  26677<<ASSIGN  26748<<DOINDEX 26765<<ASSIGN
     26765>>ASSIGN  26788<<ASSIGN  26788>>ASSIGN  26795<<ASSIGN
ID
     20152**DCL     23970<<ASSIGN  24176<<ASSIGN  24706<<ASSIGN  24861<<ASSIGN  25062<<ASSIGN  25705>>IF
     25707<<ASSIGN  25713>>ASSIGN  25717>>IF      25717>>IF      28302<<ASSIGN  28308<<ASSIGN  28335>>ASSIGN
     28343>>IF
INSTR
     22102**DCL     24617>>ASSIGN  24640<<ASSIGN
INVCALPRM
     19131**DCL     24334>>ASSIGN
INVFCLPRM IN PROCEDURE Y$WHAT_TYPE
     26157**LABEL   26164--GOTO    26185--GOTO    26198--GOTO    26220--GOTO    26231--GOTO    26285--GOTO
     26301--GOTO    26307--GOTO    26554--GOTO    26565--GOTO    26584--GOTO    26596--GOTO
INV_INTC
     18768**DCL     26824>>ASSIGN
INV_LCN0
     18406**DCL     28990>>ASSIGN
INV_RESTART_C
     18926**DCL     23508>>ASSIGN
IN_PKTHDR
     23236**DCL     23279--REDEF
IN_PKTHDR.CAUSE
     23274**DCL     23275--REDEF   24194>>IF      24215>>ASSIGN  24241>>IF      24241>>IF      24241>>IF
     24241>>IF      24241>>IF      24800>>IF      24824>>ASSIGN  24907>>IF      24930>>ASSIGN  25007>>ASSIGN
     25038>>ASSIGN  26851>>IF      26855>>IF
IN_PKTHDR.DIAG
     23278**DCL     24220>>ASSIGN  24829>>ASSIGN  24935>>ASSIGN  25012>>ASSIGN  25054>>ASSIGN
PL6.E3A0      #001=KXP$PACKET File=KXP$PACKET.:E05TSI                            WED 07/30/97 02:24 Page:689
IN_PKTHDR.D_BIT
     23255**DCL     23427>>IF      25857>>IF
IN_PKTHDR.GFI
     23255**DCL     23402>>IF      23402>>IF      23402>>IF      23402>>IF      25930>>IF      26722>>IF
     26809>>IF
IN_PKTHDR.LCN#
     23255**DCL     23256--REDEF   23422>>ASSIGN  23566>>ASSIGN
IN_PKTHDR.PR_BITS.M
     23268**DCL     25798>>ASSIGN
IN_PKTHDR.PR_BITS.PR
     23268**DCL     25799>>ASSIGN
IN_PKTHDR.PR_EXT.M
     23277**DCL     25792>>ASSIGN
IN_PKTHDR.PR_EXT.PR
     23276**DCL     25793>>ASSIGN
IN_PKTHDR.Q_BIT
     23255**DCL     23427>>IF      24594>>ASSIGN  25845>>IF
IN_PKTHDR.TYPE
     23256**DCL     23256--REDEF   23268--REDEF   23271--REDEF   23412>>IF      23437>>IF      23437>>IF
     23446>>IF      23446>>IF      23452>>ASSIGN  23478>>IF      23490>>IF      23551>>IF      24544>>IF
     24544>>IF      24800>>IF      24816>>IF      25089>>IF      25089>>IF      25857>>IF      25857>>IF
     25913>>DOSELCT 28992>>ASSIGN
IN_PKTHDR.TYPE_BITS.DP
     23264**DCL     25802>>IF
IN_PKTHDR.TYPE_BITS.PS
     23260**DCL     23260--REDEF   25800>>ASSIGN
IN_PKTHDR.TYPE_BITS.PS_BITS.FC
     23264**DCL     25877>>IF
IN_PKTHDR.TYPE_BITS.PS_BITS.FT
     23264**DCL     25889>>DOCASE
IN_PKTHDR.TYPE_EXT.PS
     23272**DCL     25794>>ASSIGN
IN_PKTHDR_CHR
     23279**DCL     23392<<ASSIGN
IN_PR
     20169**DCL     25572>>ASSIGN  25654>>IF      25661>>ASSIGN  25793<<ASSIGN  25799<<ASSIGN
PL6.E3A0      #001=KXP$PACKET File=KXP$PACKET.:E05TSI                            WED 07/30/97 02:24 Page:690
KEEP_BFR
     24692**LABEL   24580--GOTO    24658--GOTO
KH$CHN
     20227**DCL     23608--CALL    23616<<ASSIGN  23616>>ASSIGN  23917--CALL
KH$CHN.CTX$
     20297**DCL     23620<<ASSIGN  23831<<ASSIGN  23920<<ASSIGN  24293<<ASSIGN
KH$CHN.INPBFRBYTSIZ
     20295**DCL     26038>>DOWHILE 26038>>DOWHILE
KH$CHN.SUB$
     20334**DCL     23618<<ASSIGN
KH$CHN.TERMID
     20321**DCL     23567>>ASSIGN  23617<<ASSIGN  25619<>CALL    26014>>ASSIGN  27962>>ASSIGN  29013<>CALL
     29041<>CALL    29070<>CALL    29096<>CALL    29183<>CALL    29183<>CALL
KH$CHN.TERMID.LEV
     20323**DCL     23767>>IF      24180>>IF      24225>>IF
KH$CHN.TERMID.TERM
     20323**DCL     20332--REDEF   26042>>DOWHILE
KH$CHN.TERMID.TERM.SUBDEVICE
     20329**DCL     28440<<ASSIGN
KH$CHN.TERMID.TTYP
     20323**DCL     23830<<ASSIGN
KHA$DVCADM
     16589**DCL-ENT 29183--CALL
KHA$GET_CTX_PTR
     16592**DCL-ENT 23601--CALL    26029--CALL
KHA_ERROR
     20159**DCL     29183<>CALL
KHD$SCREECH
     16590**DCL-ENT 23757--CALL    23810--CALL    24045--CALL    25389--CALL
KNH_MESS IN PROCEDURE Y$START_L3S
     26965**DCL     28075<<ASSIGN  28080--ASSIGN  28081--ASSIGN
KNH_MESS.FPTSZ IN PROCEDURE Y$START_L3S
     26998**DCL     28086<<ASSIGN  28093<<ASSIGN
KNH_MESS.FUNCTION IN PROCEDURE Y$START_L3S
     26965**DCL     26965--REDEF   28085<<ASSIGN  28092<<ASSIGN
KNH_MESS.LDCTX IN PROCEDURE Y$START_L3S
PL6.E3A0      #001=KXP$PACKET File=KXP$PACKET.:E05TSI                            WED 07/30/97 02:24 Page:691
     26970**DCL     28076<<ASSIGN
KNH_MESS.UID IN PROCEDURE Y$START_L3S
     26995**DCL     26995--REDEF   26995--REDEF
KNH_MESS.UID$ IN PROCEDURE Y$START_L3S
     26995**DCL     28077<<ASSIGN
KNH_MESS.UIDX.CQ_HNDID IN PROCEDURE Y$START_L3S
     26996**DCL     28078<<ASSIGN
KV$PTR.INPCNDPND IN PROCEDURE Y$START_L3S
     27926**DCL     27935--REDEF   27939--REDEF
KV$PTR.LINLST$ IN PROCEDURE Y$START_L3S
     27922**DCL     27923--REDEF
KV$PTR.VDI$ IN PROCEDURE Y$START_L3S
     27920**DCL     28062>>ASSIGN
KV$PTR$ IN PROCEDURE Y$START_L3S
     27914**DCL     27920--IMP-PTR 28045>>ASSIGN  28046<<ASSIGN  28062>>ASSIGN  28064<<ASSIGN
KV$STT.REQSTATS.DSPMSK IN PROCEDURE Y$START_L3S
     27778**DCL     27784--REDEF
KV$STT.REQSTATS.SLCMSK IN PROCEDURE Y$START_L3S
     27819**DCL     27826--REDEF
KV$STT.USRENTCNT IN PROCEDURE Y$START_L3S
     27888**DCL     28042<<ASSIGN  28042>>ASSIGN
KV$STT.USRENTDFRCNT IN PROCEDURE Y$START_L3S
     27889**DCL     28050<<ASSIGN  28050>>ASSIGN
KV$USRPRM.STT$ IN PROCEDURE Y$START_L3S
     27502**DCL     28042>>ASSIGN  28042>>ASSIGN  28050>>ASSIGN  28050>>ASSIGN
KV$VDI.ASNINPPTR$ IN PROCEDURE Y$START_L3S
     27405**DCL     28046>>ASSIGN
KV$VDI.BSY IN PROCEDURE Y$START_L3S
     27439**DCL     28043>>IF      28044<<ASSIGN  28062<<ASSIGN
KV$VDI.DFR.USR IN PROCEDURE Y$START_L3S
     27436**DCL     28049<<ASSIGN
KV$VDI.USRPRM$ IN PROCEDURE Y$START_L3S
     27405**DCL     28042>>ASSIGN  28042>>ASSIGN  28050>>ASSIGN  28050>>ASSIGN
KV@SNDCQ IN PROCEDURE Y$START_L3S
     27001**DCL     28079<<ASSIGN  28098<>CALL
KV@SNDCQ.MSG_.ADR$ IN PROCEDURE Y$START_L3S
PL6.E3A0      #001=KXP$PACKET File=KXP$PACKET.:E05TSI                            WED 07/30/97 02:24 Page:692
     27003**DCL     28080<<ASSIGN  28087<<ASSIGN  28094<<ASSIGN
KV@SNDCQ.MSG_.BYTSIZ IN PROCEDURE Y$START_L3S
     27005**DCL     28081<<ASSIGN  28088<<ASSIGN  28095<<ASSIGN
KV@USRENT.SVDPTR$ IN PROCEDURE Y$START_L3S
     27381**DCL     28045<<ASSIGN  28064>>ASSIGN
KV@VDH_DSC IN PROCEDURE Y$START_L3S
     27318**DCL     28023<<ASSIGN  28055<>CALL
KVB$GET2NSYS
     16585**DCL-ENT 24608--CALL
KVB$GETSYS
     16584**DCL-ENT 23608--CALL
KVB$RLSSYS
     16588**DCL-ENT 23612--CALL    23917--CALL    23954--CALL    24626--CALL    24680--CALL    28902--CALL
KVB_SIZ
     22537**DCL     23611<<ASSIGN
KVM$SNDCQ
     16569**DCL-ENT 28098--CALL
KVV$VDI
     16586**DCL-ENT 28055--CALL
KX$BTMRBLK.BLNK$
     22096**DCL     23470<<ASSIGN  23901<<ASSIGN  28363<<ASSIGN  29197<<ASSIGN  29210<<ASSIGN  29223<<ASSIGN
     29248<<ASSIGN  29292<<ASSIGN
KX$BTMRBLK.FLNK$
     22096**DCL     23471<<ASSIGN  23900<<ASSIGN  23902<<ASSIGN  28362<<ASSIGN  28364<<ASSIGN  29198<<ASSIGN
     29211<<ASSIGN  29224<<ASSIGN  29247<<ASSIGN  29249<<ASSIGN  29278<<ASSIGN  29297<<ASSIGN
KX$DATA
     21372**DCL     24118--ASSIGN  24207--ASSIGN  24960--ASSIGN  25329--ASSIGN  26087--IF      26375--IF
     26381--IF      26419--IF      26476--IF      26490--IF      26690--IF      26794--ASSIGN  28495--ASSIGN
KX$DATA.CNT
     21375**DCL     23393>>ASSIGN  23453>>ASSIGN  23879<<ASSIGN  24118>>ASSIGN  24207>>ASSIGN  24348<<ASSIGN
     24960>>ASSIGN  25113<<ASSIGN  25215<<ASSIGN  25283<<ASSIGN  25329<<ASSIGN  25336<<ASSIGN  25336>>ASSIGN
     25359<<ASSIGN  25374<<ASSIGN  25698<<ASSIGN  25726<<ASSIGN  25726>>ASSIGN  26087>>IF      26375>>IF
     26381>>IF      26419>>IF      26476>>IF      26490>>IF      26690>>IF      26794>>ASSIGN  26817>>IF
     28337<<ASSIGN  28495<<ASSIGN  29151<<ASSIGN
KX$DATA.L3_LIST$
     21374**DCL     23964>>ASSIGN  24576<<ASSIGN  24578<<ASSIGN  25536<<ASSIGN  28912>>ASSIGN  28946>>ASSIGN
PL6.E3A0      #001=KXP$PACKET File=KXP$PACKET.:E05TSI                            WED 07/30/97 02:24 Page:693
     29150<<ASSIGN
KX$DATA.RLS.L3
     21375**DCL     23878<<ASSIGN  24347<<ASSIGN  24568>>ASSIGN  24579<<ASSIGN  25112<<ASSIGN  25214<<ASSIGN
     25282<<ASSIGN  25322<<ASSIGN  25358<<ASSIGN  25373<<ASSIGN  25694<<ASSIGN  28334<<ASSIGN  28450<<ASSIGN
     28947<<ASSIGN  29140<<ASSIGN
KX$DATA.RLS_STAT
     21374**DCL     21375--REDEF   28948>>IF
KX$FRAME
     21392**DCL     23392--ASSIGN  25518--ASSIGN  28338--ASSIGN
KX$FRAME.CTL
     21399**DCL     21399--REDEF
KX$FRAME.RLS_STAT
     21394**DCL     21395--REDEF
KX$L1.CHN$
     20580**DCL     23357>>ASSIGN  23567>>ASSIGN  23616>>ASSIGN
KX$L2.BUF_SIZE
     20625**DCL     26187>>IF      26200>>IF
KX$L2.CHN$
     20625**DCL     26014>>ASSIGN  27962>>ASSIGN
KX$L2.DFLVCPRF.EXTSEQ#
     20866**DCL     23402>>IF      23402>>IF      28336>>ASSIGN
KX$L2.DFLVCPRF.TRADEL
     20746**DCL     20756--REDEF
KX$L2.DSTSNPA
     20937**DCL     27960>>ASSIGN
KX$L2.DSTSNPA.ADR_STRING
     20937**DCL     20937--REDEF
KX$L2.DSTSNPA.LNG
     20937**DCL     27946>>IF
KX$L2.DVC_HEAD$
     20943**DCL     27971>>ASSIGN  28022>>ASSIGN
KX$L2.FLG.ACPX25
     20651**DCL     26391>>IF
KX$L2.FLG.ACPX29
     20651**DCL     26384>>IF
KX$L2.FLG.BLK
PL6.E3A0      #001=KXP$PACKET File=KXP$PACKET.:E05TSI                            WED 07/30/97 02:24 Page:694
     20649**DCL     23814>>IF      25519>>IF      28317>>IF      28715>>IF      28806>>IF      28819>>IF
     28860>>IF
KX$L2.FLG.CHRINF
     20653**DCL     28256>>IF
KX$L2.FLG.DATAVL
     20652**DCL     23818<<ASSIGN  25527<<ASSIGN  25649<<ASSIGN  25658<<ASSIGN  28324<<ASSIGN  28673<<ASSIGN
     28819<<ASSIGN  28866<<ASSIGN  28934<<ASSIGN  29129<<ASSIGN  29171<<ASSIGN
KX$L2.FLG.DCE
     20649**DCL     25952>>IF      25952>>IF      26411>>IF      28388>>IF
KX$L2.FLG.EXTSEQ
     20653**DCL     23358>>ASSIGN
KX$L2.FLG.FSTSLCACP
     20653**DCL     26162>>IF
KX$L2.FLG.OK
     20650**DCL     23496>>IF      23814>>IF      25519>>IF      28317>>IF      28715>>IF      28806>>IF
     28860>>IF
KX$L2.FLG.RESTART
     20652**DCL     23474>>IF      23477<<ASSIGN  23528>>IF      28301<<ASSIGN  28689>>IF
KX$L2.FLG.RESTART_PEND
     20652**DCL     23498<<ASSIGN  23528>>IF      28323<<ASSIGN  28685>>IF      28688<<ASSIGN
KX$L2.FLG.REV_CH
     20649**DCL     26154>>IF
KX$L2.FRMR_NSNR
     20723**DCL     20724--REDEF
KX$L2.HIC
     20633**DCL     25952>>IF      28392>>ASSIGN
KX$L2.HOC
     20634**DCL     25952>>IF      28396>>ASSIGN
KX$L2.INIT_ALTRET
     20942**DCL     28004>>IF      28007<<ASSIGN  28106<<ASSIGN
KX$L2.L3_HEAD$
     20655**DCL     23539>>ASSIGN  23995>>ASSIGN  26041>>ASSIGN  28114>>ASSIGN  28402>>ASSIGN  28428>>ASSIGN
     28701>>ASSIGN  28718>>ASSIGN  28820>>ASSIGN
KX$L2.LDCTX
     20938**DCL     28001>>IF      28013>>ASSIGN  28076>>ASSIGN  28100<<ASSIGN
KX$L2.LIC
PL6.E3A0      #001=KXP$PACKET File=KXP$PACKET.:E05TSI                            WED 07/30/97 02:24 Page:695
     20633**DCL     25952>>IF      28391>>ASSIGN
KX$L2.LOC
     20634**DCL     25952>>IF      28397>>ASSIGN
KX$L2.MAXWND
     20633**DCL     26221>>IF      26232>>IF
KX$L2.NEXT$
     20625**DCL     24013>>ASSIGN
KX$L2.NTWADR.ADR_PAIR
     20657**DCL     26002>>IF
KX$L2.NTWADR.ADR_STRING
     20657**DCL     20657--REDEF   25987>>IF
KX$L2.NTWADR.LNG
     20657**DCL     25986>>ASSIGN  25987>>IF      25987>>IF      26007>>IF
KX$L2.QOS
     20938**DCL     27961>>ASSIGN
KX$L2.STATES
     20635**DCL     20635--REDEF
KX$L2.T20
     20725**DCL     28351>>IF      28351>>ASSIGN
KX$L2.T20TMR
     20716**DCL     28361--ASSIGN  28362--ASSIGN  28362--ASSIGN
KX$L2.T20TMR.BLNK$
     20718**DCL     23470>>ASSIGN  23470>>ASSIGN  23471>>IF      23471>>ASSIGN  28362<<ASSIGN  28363>>ASSIGN
     28363>>ASSIGN  28363>>IF      28364>>ASSIGN
KX$L2.T20TMR.CNT
     20720**DCL     28351<<ASSIGN
KX$L2.T20TMR.FLNK$
     20718**DCL     23470>>IF      23470>>ASSIGN  23471>>ASSIGN  23471>>ASSIGN  28361<<ASSIGN  28363>>IF
     28363>>ASSIGN  28364>>ASSIGN  28364>>ASSIGN
KX$L2.T20TMR.ON
     20720**DCL     23470>>IF      23470<<ASSIGN  28361>>IF      28361<<ASSIGN  28362>>IF      28363<<ASSIGN
KX$L2.TERMACKPND
     20942**DCL     28096<<ASSIGN
KX$L2.TERM_ALTRET
     20942**DCL     27949>>IF      27952<<ASSIGN  28108<<ASSIGN
KX$L3
PL6.E3A0      #001=KXP$PACKET File=KXP$PACKET.:E05TSI                            WED 07/30/97 02:24 Page:696
     20975**DCL     23611--ASSIGN  23612<>CALL
KX$L3.BLK
     21088**DCL     24698>>IF      25502<<ASSIGN  25645>>IF      25648<<ASSIGN  28752>>IF      28788<<ASSIGN
     28823>>IF      28883<<ASSIGN
KX$L3.CALDLY
     21206**DCL     24303>>IF      24315<>CALL
KX$L3.CALL_COLLISION
     21209**DCL     24443>>IF      26404>>IF      26410<<ASSIGN
KX$L3.CALL_OPTS
     21010**DCL     24115--ASSIGN  25347--ASSIGN  26372>>ASSIGN  26373>>ASSIGN  28476<<ASSIGN
KX$L3.CALL_OPTS.RCVADR
     21014**DCL     26063--ASSIGN  26066--ASSIGN  26426--ASSIGN
KX$L3.CALL_OPTS.RCVADR.ADR_PAIR
     21015**DCL     26071<<ASSIGN  26071>>ASSIGN  28462--ASSIGN
KX$L3.CALL_OPTS.RCVADR.ADR_STRING
     21015**DCL     21015--REDEF
KX$L3.CALL_OPTS.RCVADR.SIZ
     21015**DCL     25980<<ASSIGN  26068<<ASSIGN  28457>>ASSIGN  28463>>IF      28472>>ASSIGN  28473>>ASSIGN
KX$L3.CALL_OPTS.RCVPCKSIZ
     21012**DCL     23583>>IF      24549>>IF      24606>>ASSIGN  25079>>IF      25094>>IF      25806>>IF
     25816>>IF      26202<<ASSIGN  26551>>IF      26556<<ASSIGN  28158>>ASSIGN  28165>>ASSIGN
KX$L3.CALL_OPTS.RCVTHR
     21012**DCL     26250<<ASSIGN  26612<<ASSIGN  28201>>ASSIGN  28206>>ASSIGN
KX$L3.CALL_OPTS.RCVWND
     21013**DCL     24703>>IF      26235<<ASSIGN  26236>>ASSIGN  26582>>IF      26585<<ASSIGN  26586>>IF
     26588>>ASSIGN  28179>>ASSIGN  28184>>ASSIGN
KX$L3.CALL_OPTS.SNDPCKSIZ
     21013**DCL     26189<<ASSIGN  26562>>IF      26567<<ASSIGN  28160>>ASSIGN  28167>>ASSIGN  29117>>IF
     29124>>ASSIGN
KX$L3.CALL_OPTS.SNDTHR
     21013**DCL     26249<<ASSIGN  26613<<ASSIGN  28194>>IF      28201>>ASSIGN  28206>>ASSIGN
KX$L3.CALL_OPTS.SNDWND
     21014**DCL     25498>>IF      25645>>IF      26223<<ASSIGN  26594>>IF      26597<<ASSIGN  28180>>ASSIGN
     28185>>ASSIGN  28785>>IF
KX$L3.CHN$
     20976**DCL     23595>>IF      23601<>CALL    23608<>CALL    23616>>ASSIGN  23617>>ASSIGN  23618>>ASSIGN
PL6.E3A0      #001=KXP$PACKET File=KXP$PACKET.:E05TSI                            WED 07/30/97 02:24 Page:697
     23620>>ASSIGN  23767>>IF      23828<<ASSIGN  23911>>IF      23917<>CALL    23919<<ASSIGN  23920>>ASSIGN
     24054>>IF      24054>>ASSIGN  24180>>IF      24225>>IF      24293>>ASSIGN  24294<<ASSIGN  24751>>ASSIGN
     24957>>ASSIGN  25619>>CALL    28440>>ASSIGN  29183>>CALL    29183>>CALL
KX$L3.CHRINF
     21090**DCL     28256>>IF
KX$L3.CLRCPND
     21208**DCL     24192<<ASSIGN  24276>>IF      24279<<ASSIGN
KX$L3.CM$
     20975**DCL     23341>>ASSIGN  23575>>ASSIGN  23747<<ASSIGN  23803<<ASSIGN  24005>>ASSIGN  24755<<ASSIGN
     24965<<ASSIGN  25264<<ASSIGN  28839>>ASSIGN
KX$L3.CM_OPTS
     21045**DCL     26373<<ASSIGN  28476>>ASSIGN
KX$L3.CM_OPTS.RCVADR.ADR_STRING
     21050**DCL     21050--REDEF
KX$L3.CTL_Q_HEAD$
     21101**DCL     25528>>IF      25530<<ASSIGN  28726>>IF      28729>>ASSIGN  28730<<ASSIGN  28731>>IF
     28733>>ASSIGN  28962>>DOWHILE 28963>>ASSIGN  28964<<ASSIGN
KX$L3.CTL_Q_TAIL$
     21101**DCL     25532>>ASSIGN  25533<<ASSIGN  28733<<ASSIGN  28967<<ASSIGN
KX$L3.CUG
     21093**DCL     21094--REDEF
KX$L3.CUGLNG
     21090**DCL     26116<<ASSIGN  26138<<ASSIGN  28222>>IF      28229>>IF      28236>>IF      28238>>ASSIGN
KX$L3.CUG_BCD.BCDPAIR1
     21094**DCL     26131<<ASSIGN  28233>>ASSIGN
KX$L3.CUG_BCD.BCDPAIR2
     21094**DCL     26113<<ASSIGN  26135<<ASSIGN  28226>>ASSIGN  28234>>ASSIGN
KX$L3.DATA
     21088**DCL     23799<<ASSIGN  24111<<ASSIGN  25002<<ASSIGN  25031<<ASSIGN  25343<<ASSIGN  28882<<ASSIGN
KX$L3.DATTMRBLK
     21162**DCL     29246--ASSIGN  29247--ASSIGN  29247--ASSIGN
KX$L3.DATTMRBLK.BLNK$
     21164**DCL     29223>>ASSIGN  29223>>ASSIGN  29224>>IF      29224>>ASSIGN  29247<<ASSIGN  29248>>ASSIGN
     29248>>ASSIGN  29248>>IF      29249>>ASSIGN
KX$L3.DATTMRBLK.CNT
     21166**DCL     29236<<ASSIGN
PL6.E3A0      #001=KXP$PACKET File=KXP$PACKET.:E05TSI                            WED 07/30/97 02:24 Page:698
KX$L3.DATTMRBLK.FLNK$
     21164**DCL     29223>>IF      29223>>ASSIGN  29224>>ASSIGN  29224>>ASSIGN  29246<<ASSIGN  29248>>IF
     29248>>ASSIGN  29249>>ASSIGN  29249>>ASSIGN
KX$L3.DATTMRBLK.ON
     21166**DCL     29223>>IF      29223<<ASSIGN  29246>>IF      29246<<ASSIGN  29247>>IF      29248<<ASSIGN
KX$L3.DCNT
     21096**DCL     25497<<ASSIGN  25497>>ASSIGN  25498>>IF      25596>>IF      25619<>CALL    25628<<ASSIGN
     25628>>ASSIGN  25645>>IF      28784<<ASSIGN  28784>>ASSIGN  28785>>IF      28921<<ASSIGN
KX$L3.DCNTP
     21097**DCL     24095>>IF      24697<<ASSIGN  24697>>ASSIGN  24698>>IF      24703>>IF      25496<<ASSIGN
     25728<<ASSIGN  28782<<ASSIGN  28920<<ASSIGN
KX$L3.DFL_OPTS
     21080**DCL     24750--ASSIGN  24956--ASSIGN  26372<<ASSIGN
KX$L3.DFL_OPTS.RCVADR.ADR_STRING
     21085**DCL     21085--REDEF
KX$L3.D_LIST_HEAD$
     21102**DCL     25630>>DOWHILE 25632>>ASSIGN  25633<<ASSIGN  25634>>IF      25666>>IF      28940>>ASSIGN
     28944>>DOWHILE 28945>>ASSIGN  28946<<ASSIGN  29143>>IF      29145<<ASSIGN
KX$L3.D_LIST_TAIL$
     21102**DCL     25636<<ASSIGN  28952<<ASSIGN  28953>>ASSIGN  29147>>ASSIGN  29148<<ASSIGN
KX$L3.EXTSEQ
     21090**DCL     23339>>ASSIGN  23582>>ASSIGN  23853>>IF      24640>>ASSIGN  25720>>IF      25933<<ASSIGN
     25936<<ASSIGN  28739>>IF      28767>>IF      28783>>ASSIGN  28854>>ASSIGN
KX$L3.FSTSLC
     21090**DCL     23730>>IF      25223>>IF      25331>>IF      26161<<ASSIGN  26162>>IF      26368>>IF
     26442>>IF      26690>>IF      26722>>IF      28151>>IF      28172>>IF      28239>>IF      28243>>ASSIGN
KX$L3.HIST.ACT
     21100**DCL     24081<<ASSIGN
KX$L3.HIST.EVT
     21100**DCL     24080<<ASSIGN
KX$L3.HIST.STT
     21100**DCL     24079<<ASSIGN
KX$L3.HIST.X
     21099**DCL     24079>>ASSIGN  24080>>ASSIGN  24081>>ASSIGN  24082<<ASSIGN  24082>>ASSIGN  24083>>IF
     24085<<ASSIGN
KX$L3.IDLCLK
PL6.E3A0      #001=KXP$PACKET File=KXP$PACKET.:E05TSI                            WED 07/30/97 02:24 Page:699
     21208**DCL     24001<<ASSIGN  24001>>ASSIGN  24002>>IF      24073<<ASSIGN
KX$L3.IDLPRD
     21207**DCL     23997>>IF      24073>>ASSIGN
KX$L3.INPBLK
     21089**DCL     23935>>IF      23936<<ASSIGN  23946<<ASSIGN  23967>>IF      24569>>IF      24657<<ASSIGN
     24660<<ASSIGN  25705>>IF      28884<<ASSIGN
KX$L3.INP_HEAD$
     21103**DCL     23962>>DOWHILE 23963>>ASSIGN  23964<<ASSIGN  24572>>IF      24574<<ASSIGN  28910>>DOWHILE
     28911>>ASSIGN  28912<<ASSIGN
KX$L3.INP_TAIL$
     21103**DCL     23969<<ASSIGN  24576>>ASSIGN  24577<<ASSIGN  28915<<ASSIGN
KX$L3.INTPND
     21088**DCL     23860>>IF      23874<<ASSIGN  24872<<ASSIGN  26821>>IF      28885<<ASSIGN
KX$L3.INTTMRBLK
     21194**DCL     23899--ASSIGN  23900--ASSIGN  23900--ASSIGN
KX$L3.INTTMRBLK.BLNK$
     21196**DCL     23900<<ASSIGN  23901>>ASSIGN  23901>>ASSIGN  23901>>IF      23902>>ASSIGN  29210>>ASSIGN
     29210>>ASSIGN  29211>>IF      29211>>ASSIGN
KX$L3.INTTMRBLK.CNT
     21198**DCL     23889<<ASSIGN
KX$L3.INTTMRBLK.FLNK$
     21196**DCL     23899<<ASSIGN  23901>>IF      23901>>ASSIGN  23902>>ASSIGN  23902>>ASSIGN  29210>>IF
     29210>>ASSIGN  29211>>ASSIGN  29211>>ASSIGN
KX$L3.INTTMRBLK.ON
     21198**DCL     23899>>IF      23899<<ASSIGN  23900>>IF      23901<<ASSIGN  29210>>IF      29210<<ASSIGN
KX$L3.IN_
     20976**DCL     23941>>ASSIGN  23955<<ASSIGN  24650>>ASSIGN  28903<<ASSIGN
KX$L3.IN_.ADR$
     20976**DCL     23937>>IF      23952<>CALL    23954<>CALL    24587>>IF      24590<<ASSIGN  24616>>ASSIGN
     24622<>CALL    24626<>CALL    24628<<ASSIGN  24639>>ASSIGN  24670>>IF      24676<>CALL    24680<>CALL
     24683<<ASSIGN  24686>>IF      28895>>IF      28900<>CALL    28902<>CALL
KX$L3.IN_.BFRSIZ
     20978**DCL     23950>>IF      24593<<ASSIGN  24599>>IF      24599>>IF      24619>>IF      24626>>CALL
     24629<<ASSIGN  24673>>IF      24680>>CALL    28898>>IF      28902>>CALL
KX$L3.IN_.BYTSIZ
     20977**DCL     23954>>CALL    24592<<ASSIGN  24599>>IF      24603>>ASSIGN  24617>>ASSIGN  24617>>ASSIGN
PL6.E3A0      #001=KXP$PACKET File=KXP$PACKET.:E05TSI                            WED 07/30/97 02:24 Page:700
     24632>>IF      24640>>ASSIGN  24642<<ASSIGN  24642>>ASSIGN
KX$L3.IN_.BYTX
     20977**DCL     24591<<ASSIGN  24599>>IF      24617>>ASSIGN  24630<<ASSIGN  24640>>ASSIGN
KX$L3.IN_MBIT
     21092**DCL     23943>>ASSIGN  23957<<ASSIGN  24595<<ASSIGN  24652>>ASSIGN  28905<<ASSIGN
KX$L3.IN_QBIT
     21091**DCL     23942>>ASSIGN  23956<<ASSIGN  24594<<ASSIGN  24651>>ASSIGN  28904<<ASSIGN
KX$L3.L2$
     20975**DCL     23340>>ASSIGN
KX$L3.LCLADR
     21209**DCL     26424--ASSIGN  28472--ASSIGN
KX$L3.LCLADR.ADR_PAIR
     21210**DCL     26060--ASSIGN  28467--ASSIGN
KX$L3.LCLADR.ADR_STRING
     21210**DCL     21210--REDEF
KX$L3.LCLADR.SIZ
     21209**DCL     26059<<ASSIGN  28456>>ASSIGN  28473>>ASSIGN
KX$L3.LCLNSAP
     21227**DCL     21283--REDEF   26424--ASSIGN
KX$L3.LCLNSAP.NSAP.ADDRESS_N
     21278**DCL     21279--REDEF
KX$L3.LCLNSAP.NSAP.LEN
     21250**DCL     28263>>IF      28269>>ASSIGN
KX$L3.LCLNSAP_REDEF.NSAP
     21283**DCL     26302<<ASSIGN  28272>>ASSIGN
KX$L3.LCN#
     21092**DCL     21093--REDEF   23342>>ASSIGN  23542>>IF      23566<<ASSIGN  23570>>ASSIGN  24282<<ASSIGN
     24779<<ASSIGN  24809<<ASSIGN  25180<<ASSIGN  25472>>ASSIGN  25952>>IF      25952>>IF      25952>>IF
     25952>>IF      28444<<ASSIGN
KX$L3.MAYBE
     21088**DCL     28803>>IF
KX$L3.NEXT$
     20975**DCL     23544>>ASSIGN  24011>>ASSIGN  28123>>ASSIGN  28704>>ASSIGN  28802>>ASSIGN  28858>>ASSIGN
KX$L3.NOD
     20980**DCL     24748>>ASSIGN  24955>>ASSIGN
KX$L3.NOREASM
PL6.E3A0      #001=KXP$PACKET File=KXP$PACKET.:E05TSI                            WED 07/30/97 02:24 Page:701
     21208**DCL     24645>>IF      24756<<ASSIGN  24966<<ASSIGN  25816>>IF      29163>>IF
KX$L3.OUT_
     20978**DCL     28845<<ASSIGN  28954<<ASSIGN
KX$L3.OUT_.ADR$
     20978**DCL     24698>>IF      28835>>IF      28850>>IF      29152>>ASSIGN  29160<<ASSIGN
KX$L3.OUT_.BYTSIZ
     20979**DCL     29117>>IF      29120>>ASSIGN  29155<<ASSIGN  29155>>ASSIGN  29157>>IF      29163>>IF
KX$L3.OUT_.BYTX
     20979**DCL     29153>>ASSIGN  29156<<ASSIGN  29156>>ASSIGN
KX$L3.OUT_MBIT
     21092**DCL     28848<<ASSIGN  28956<<ASSIGN  29163>>IF
KX$L3.OUT_QBIT
     21092**DCL     28847<<ASSIGN  28955<<ASSIGN  29134>>ASSIGN
KX$L3.PCKNGT
     21209**DCL     26177<<ASSIGN  28151>>IF
KX$L3.PPR
     21096**DCL     25573>>ASSIGN  25654>>IF      25661<<ASSIGN  28925<<ASSIGN
KX$L3.PVC
     21089**DCL     23832>>IF      23997>>IF      24059>>IF      24519>>IF      25039>>IF      25178>>IF
     25317>>IF      25813>>IF      25923>>IF      26703>>IF      26844>>IF
KX$L3.R21
     21203**DCL     24241>>IF      24241>>IF      24396>>IF      24396>>IF
KX$L3.R23
     21204**DCL     24519>>IF
KX$L3.RLSCHN
     21089**DCL     23604<<ASSIGN  23615<<ASSIGN  23624>>IF      23829<<ASSIGN  23911>>IF      23918<<ASSIGN
     24290>>IF
KX$L3.RMTNSAP
     21300**DCL     21356--REDEF   26426--ASSIGN
KX$L3.RMTNSAP.NSAP.ADDRESS_N
     21351**DCL     21352--REDEF
KX$L3.RMTNSAP.NSAP.LEN
     21323**DCL     28263>>IF      28270>>ASSIGN
KX$L3.RMTNSAP_REDEF.NSAP
     21356**DCL     26286<<ASSIGN  28275>>ASSIGN
KX$L3.RNR
PL6.E3A0      #001=KXP$PACKET File=KXP$PACKET.:E05TSI                            WED 07/30/97 02:24 Page:702
     21089**DCL     23645>>IF      25654>>IF      25659<<ASSIGN  25896<<ASSIGN  28752>>IF      28823>>IF
     28886<<ASSIGN
KX$L3.RSPDLY
     21205**DCL     24698>>IF      26236<<ASSIGN  26586>>IF      26588<<ASSIGN
KX$L3.RSPTMR
     21206**DCL     24703>>IF      24713<>CALL
KX$L3.RSPTOCMP
     21091**DCL     24698>>IF
KX$L3.RTR$
     21101**DCL     24698>>IF      25666>>IF      28752>>IF      28760>>IF      28760>>IF      28764>>ASSIGN
     28765<<ASSIGN  28940<<ASSIGN  28953<<ASSIGN
KX$L3.RTRCNT
     21205**DCL     24112<<ASSIGN  24198>>IF      24240<<ASSIGN  24240>>ASSIGN  24241>>IF      24355<<ASSIGN
     24392>>IF      24395<<ASSIGN  24395>>ASSIGN  24396>>IF      24426<<ASSIGN  24518<<ASSIGN  24518>>ASSIGN
     24519>>IF      24740<<ASSIGN  24780<<ASSIGN  25181<<ASSIGN  25206<<ASSIGN  25250<<ASSIGN  25344<<ASSIGN
     28507>>IF
KX$L3.RVS
     21091**DCL     26160<<ASSIGN  28239>>IF      28243>>ASSIGN
KX$L3.STATE.CURRENT
     21099**DCL     23645>>IF      23730>>IF      23834<<ASSIGN  23836<<ASSIGN  23853>>IF      23853>>IF
     23949>>IF      23978>>IF      23997>>IF      24055>>ASSIGN  24075>>ASSIGN  24076<<ASSIGN  24231>>IF
     24301>>IF      24528<<ASSIGN  24635<<ASSIGN  24661>>IF      24694>>IF      24812>>IF      24858>>IF
     24983>>IF      24983>>IF      25059>>IF      25570>>IF      25813>>IF      25941>>IF      25941>>IF
     26402>>IF      26436>>IF      26442>>IF      26821>>IF      28752>>IF      28823>>IF      28935>>IF
     28935>>IF
KX$L3.STATE.LAST
     21099**DCL     24075<<ASSIGN  24198>>IF      24237>>IF      28975>>IF      28975>>IF
KX$L3.STATES
     21098**DCL     21098--REDEF
KX$L3.T21
     21201**DCL     24144<>CALL
KX$L3.T22
     21201**DCL     25118<>CALL    25294<>CALL    25364<>CALL    25379<>CALL
KX$L3.T23
     21202**DCL     24356<>CALL    25234<>CALL
KX$L3.T25
PL6.E3A0      #001=KXP$PACKET File=KXP$PACKET.:E05TSI                            WED 07/30/97 02:24 Page:703
     21202**DCL     24757>>IF      24967>>IF      29236>>IF      29236>>ASSIGN
KX$L3.T26
     21203**DCL     23889>>IF      23889>>ASSIGN
KX$L3.TMRBLK
     21130**DCL     29276--ASSIGN  29278--ASSIGN  29280--ASSIGN
KX$L3.TMRBLK.BLNK$
     21132**DCL     29197>>ASSIGN  29197>>ASSIGN  29198>>IF      29198>>ASSIGN  29279<<ASSIGN  29290>>ASSIGN
     29292>>ASSIGN  29293>>IF      29297>>ASSIGN
KX$L3.TMRBLK.CNT
     21134**DCL     29268<<ASSIGN
KX$L3.TMRBLK.FLNK$
     21132**DCL     29197>>IF      29197>>ASSIGN  29198>>ASSIGN  29198>>ASSIGN  29273<<ASSIGN  29288>>IF
     29292>>ASSIGN  29295>>ASSIGN  29297>>ASSIGN
KX$L3.TMRBLK.ON
     21134**DCL     24312>>IF      24711>>IF      25504>>IF      28791>>IF      29197>>IF      29197<<ASSIGN
     29269>>IF      29272<<ASSIGN  29284>>IF      29287<<ASSIGN
KX$L3.TOACT
     21207**DCL     23648>>DOCASE  24759<<ASSIGN  24761<<ASSIGN  24969<<ASSIGN  24971<<ASSIGN  28935>>IF
     29138>>IF
KX$L3.TRNDLY
     21094**DCL     21095--REDEF   28247>>IF
KX$L3.TRNDLYBYT.LFT
     21095**DCL     28251>>ASSIGN
KX$L3.TRNDLYBYT.RGH
     21095**DCL     28252>>ASSIGN
KX$L3.TRNDLYIND
     21095**DCL     21096--REDEF
KX$L3.TRNDLYINDBYT.LFT
     21096**DCL     26651<<ASSIGN
KX$L3.TRNDLYINDBYT.RGH
     21096**DCL     26655<<ASSIGN
KX$L3.TYP
     20981**DCL     23572<<ASSIGN  24241>>IF      24263>>IF      24318>>IF      24396>>IF      24749>>ASSIGN
     25170>>IF
KX$L3.VR
     21097**DCL     24609>>IF      24611<<ASSIGN  24611>>ASSIGN  24613<<ASSIGN  25486>>ASSIGN  25492>>ASSIGN
PL6.E3A0      #001=KXP$PACKET File=KXP$PACKET.:E05TSI                            WED 07/30/97 02:24 Page:704
     25722>>ASSIGN  25725>>ASSIGN  25819>>IF      25823>>ASSIGN  25834<<ASSIGN  25834>>ASSIGN  28743>>ASSIGN
     28747>>ASSIGN  28771>>ASSIGN  28777>>ASSIGN  28927<<ASSIGN
KX$L3.VS
     21097**DCL     25487>>ASSIGN  25488<<ASSIGN  25488>>ASSIGN  25493>>ASSIGN  25494<<ASSIGN  25494>>ASSIGN
     25574>>ASSIGN  25619<>CALL    28772>>ASSIGN  28780>>ASSIGN  28783<<ASSIGN  28783>>ASSIGN  28926<<ASSIGN
KX$L3.WNDNGT
     21208**DCL     26239<<ASSIGN  28172>>IF
KX$LINKDEV IN PROCEDURE Y$START_L3S
     26898**DCL     27976<>CALL
KX$LINKDEV.FLNK$ IN PROCEDURE Y$START_L3S
     26899**DCL     27984>>ASSIGN  28067>>ASSIGN
KX$LINKDEV.RECNC IN PROCEDURE Y$START_L3S
     26904**DCL     27983<<ASSIGN
KX$LINKDEV.VDI$ IN PROCEDURE Y$START_L3S
     26898**DCL     27973>>IF      28025>>IF      28042>>ASSIGN  28042>>ASSIGN  28043>>IF      28044>>ASSIGN
     28046>>ASSIGN  28049>>ASSIGN  28050>>ASSIGN  28050>>ASSIGN
KX$PACKET
     21458**DCL     23881--ASSIGN  24591--ASSIGN  24640--ASSIGN  24854--ASSIGN  25229--ASSIGN  25325--ASSIGN
     25619<>CALL    25959--ASSIGN  26446--ASSIGN  26718--ASSIGN  28455--ASSIGN  28734--ASSIGN  28766--ASSIGN
     29153--ASSIGN
KX$PACKET.CTL
     21465**DCL     21465--REDEF
KX$PACKET.LCN#
     21494**DCL     21495--REDEF
KX$PACKET.RLS.L3
     21461**DCL     25819>>IF      25832>>IF
KX$PACKET.RLS_STAT
     21460**DCL     21461--REDEF
KX$PACKET.TYPE
     21495**DCL     21495--REDEF   21507--REDEF
KX$PACKET.TYPE_BITS.PS
     21499**DCL     21499--REDEF
KX$TDATA.L3_LIST$
     21595**DCL     25532<<ASSIGN  25633>>ASSIGN  28730>>ASSIGN  28765>>ASSIGN  28964>>ASSIGN  29147<<ASSIGN
KX$TDATA.RLS.L1
     21596**DCL     28760>>IF
PL6.E3A0      #001=KXP$PACKET File=KXP$PACKET.:E05TSI                            WED 07/30/97 02:24 Page:705
KX$TDATA.RLS.L2
     21596**DCL     28760>>IF
KX$TDATA.RLS.L3
     21596**DCL     25637<<ASSIGN
KX$TDATA.RLS_STAT
     21595**DCL     21596--REDEF   25638>>IF
KX$TL3.CALL_OPTS.RCVADR.ADR_STRING
     21660**DCL     21660--REDEF
KX$TL3.CHN$
     21621**DCL     26042>>DOWHILE
KX$TL3.CM_OPTS.RCVADR.ADR_STRING
     21695**DCL     21695--REDEF
KX$TL3.CUG
     21738**DCL     21739--REDEF
KX$TL3.DFL_OPTS.RCVADR.ADR_STRING
     21730**DCL     21730--REDEF
KX$TL3.LCLADR.ADR_STRING
     21855**DCL     21855--REDEF
KX$TL3.LCLNSAP
     21872**DCL     21928--REDEF
KX$TL3.LCLNSAP.NSAP.ADDRESS_N
     21923**DCL     21924--REDEF
KX$TL3.LCN#
     21737**DCL     21738--REDEF   28408>>IF
KX$TL3.NEXT$
     21620**DCL     26044>>ASSIGN  28435>>ASSIGN
KX$TL3.RMTNSAP
     21945**DCL     22001--REDEF
KX$TL3.RMTNSAP.NSAP.ADDRESS_N
     21996**DCL     21997--REDEF
KX$TL3.STATES
     21743**DCL     21743--REDEF
KX$TL3.TRNDLY
     21739**DCL     21740--REDEF
KX$TL3.TRNDLYIND
     21740**DCL     21741--REDEF
PL6.E3A0      #001=KXP$PACKET File=KXP$PACKET.:E05TSI                            WED 07/30/97 02:24 Page:706
KX$TPACKET.CTL
     22023**DCL     22023--REDEF
KX$TPACKET.LCN#
     22052**DCL     22053--REDEF
KX$TPACKET.RLS_STAT
     22018**DCL     22019--REDEF
KX$TPACKET.TYPE
     22053**DCL     22053--REDEF   22065--REDEF
KX$TPACKET.TYPE_BITS.PS
     22057**DCL     22057--REDEF
KX$XFRAME.CTL
     21431**DCL     21431--REDEF
KX$XFRAME.FRMR_NSNR
     21442**DCL     21442--REDEF
KX$XFRAME.RLS_STAT
     21426**DCL     21427--REDEF
KX$XPACKET
     21524**DCL     29070<>CALL
KX$XPACKET.CTL
     21531**DCL     21531--REDEF
KX$XPACKET.LCN#
     21560**DCL     21561--REDEF
KX$XPACKET.RLS_STAT
     21526**DCL     21527--REDEF
KX$XPACKET.TYPE
     21561**DCL     21561--REDEF   21573--REDEF
KX$XPACKET.TYPE_BITS.PS
     21565**DCL     21565--REDEF
KXC$CNCMNG
     16565**DCL-ENT 25408--CALL
KXF$FRAME
     16566**DCL-ENT 25540--CALL    28342--CALL    28794--CALL
KXP$PACKET
        13**PROC    23665--CALL    23966--CALL    23986--CALL    24008--CALL    24309--CALL    28124--CALL
     28705--CALL
KXS$GETBFR
PL6.E3A0      #001=KXP$PACKET File=KXP$PACKET.:E05TSI                            WED 07/30/97 02:24 Page:707
     16567**DCL-ENT 23876--CALL    24345--CALL    25110--CALL    25212--CALL    25280--CALL    25320--CALL
     25357--CALL    25372--CALL    25689--CALL    28332--CALL    28448--CALL    29127--CALL
KXS$GETL3
     16570**DCL-ENT 23558--CALL    23826--CALL
KXS$RLSBFR
     16571**DCL-ENT 23952--CALL    24622--CALL    24676--CALL    25640--CALL    28900--CALL    28913--CALL
     28950--CALL    28965--CALL
KXS$RLSL3
     16572**DCL-ENT 24941--CALL    25174--CALL
KXS$RLSL3_MAYBE
     16573**DCL-ENT 24297--CALL    28805--CALL
KXS$SYSLOG
     16574**DCL-ENT 25619--CALL    29013--CALL    29041--CALL    29070--CALL    29096--CALL
KXX$INTCNC
     16587**DCL-ENT 27976--CALL
KXX_VDH_DSC IN PROCEDURE Y$START_L3S
     27354**DCL     28023>>ASSIGN
KX_BUF.LOGSIZ
     22562**DCL     26182>>IF      26182>>IF      26195>>IF      26195>>IF      26551>>IF      26551>>IF
     26562>>IF      26562>>IF      28158>>ASSIGN  28160>>ASSIGN  28165>>ASSIGN  28167>>ASSIGN
KX_BUF.SIZ
     22561**DCL     23583>>IF      24549>>IF      24606>>ASSIGN  25079>>IF      25094>>IF      25806>>IF
     25816>>IF      29117>>IF      29124>>ASSIGN
KX_CALLING_CM$
     23223**DCL     23744>>IF      23800>>IF      24752<<ASSIGN  24754<<ASSIGN  24962<<ASSIGN  24964<<ASSIGN
KX_CNTX.HD$
     22558**DCL     23993>>ASSIGN
KX_STATS_HDLC.REQSTATS.DSPMSK
     22832**DCL     22838--REDEF
KX_STATS_HDLC.REQSTATS.SLCMSK
     22873**DCL     22880--REDEF
KX_STATS_X25.CALLS_IN
     23212**DCL     25922<<ASSIGN  25922>>ASSIGN
KX_STATS_X25.CALLS_OUT
     23213**DCL     28505<<ASSIGN  28505>>ASSIGN
KX_STATS_X25.CIRCUITS
PL6.E3A0      #001=KXP$PACKET File=KXP$PACKET.:E05TSI                            WED 07/30/97 02:24 Page:708
     23217**DCL     24113<<ASSIGN  24113>>ASSIGN  25340<<ASSIGN  25340>>ASSIGN  28978<<ASSIGN  28978>>ASSIGN
KX_STATS_X25.CLEARS_IN
     23213**DCL     26709<<ASSIGN  26709>>ASSIGN
KX_STATS_X25.CLEARS_OUT
     23214**DCL     24353<<ASSIGN  24353>>ASSIGN
KX_STATS_X25.D_BYTES_IN
     23214**DCL     24584<<ASSIGN  24584>>ASSIGN
KX_STATS_X25.D_BYTES_OUT
     23216**DCL     29175<<ASSIGN  29175>>ASSIGN
KX_STATS_X25.D_CMPPACKETS_IN
     23214**DCL     24648<<ASSIGN  24648>>ASSIGN
KX_STATS_X25.D_CMPPACKETS_OUT
     23215**DCL     29161<<ASSIGN  29161>>ASSIGN
KX_STATS_X25.D_PACKETS_IN
     23210**DCL     24582<<ASSIGN  24582>>ASSIGN
KX_STATS_X25.D_PACKETS_OUT
     23210**DCL     29174<<ASSIGN  29174>>ASSIGN
KX_STATS_X25.F_BLK
     23217**DCL     25537<<ASSIGN  25537>>ASSIGN  28868<<ASSIGN  28868>>ASSIGN
KX_STATS_X25.P_BLK
     23215**DCL     25501<<ASSIGN  25501>>ASSIGN  28789<<ASSIGN  28789>>ASSIGN
KX_STATS_X25.P_FLOW_IN
     23216**DCL     24842<<ASSIGN  24842>>ASSIGN
KX_STATS_X25.P_FLOW_OUT
     23216**DCL     25729<<ASSIGN  25729>>ASSIGN
KX_STATS_X25.REQSTATS.DSPMSK
     23157**DCL     23163--REDEF
KX_STATS_X25.REQSTATS.SLCMSK
     23198**DCL     23205--REDEF
KX_STATS_X25.RESETS
     23217**DCL     25105<<ASSIGN  25105>>ASSIGN  25292<<ASSIGN  25292>>ASSIGN  25363<<ASSIGN  25363>>ASSIGN
     25378<<ASSIGN  25378>>ASSIGN  26843<<ASSIGN  26843>>ASSIGN
KX_STATS_X25.RESTART_IN
     23211**DCL     23483<<ASSIGN  23483>>ASSIGN  23495<<ASSIGN  23495>>ASSIGN
KX_STATS_X25.RESTART_OUT
     23211**DCL     28366<<ASSIGN  28366>>ASSIGN
PL6.E3A0      #001=KXP$PACKET File=KXP$PACKET.:E05TSI                            WED 07/30/97 02:24 Page:709
KX_TMRBLK.QHD$
     22563**DCL     23471<<ASSIGN  23899<<ASSIGN  23902<<ASSIGN  28361<<ASSIGN  28364<<ASSIGN  29198<<ASSIGN
     29211<<ASSIGN  29224<<ASSIGN  29246<<ASSIGN  29249<<ASSIGN  29276<<ASSIGN  29295<<ASSIGN
KX_TMRBLK.QTL$
     22563**DCL     23470<<ASSIGN  23899>>IF      23900>>ASSIGN  23900>>ASSIGN  23900<<ASSIGN  23901<<ASSIGN
     28361>>IF      28362>>ASSIGN  28362>>ASSIGN  28362<<ASSIGN  28363<<ASSIGN  29197<<ASSIGN  29210<<ASSIGN
     29223<<ASSIGN  29246>>IF      29247>>ASSIGN  29247>>ASSIGN  29247<<ASSIGN  29248<<ASSIGN  29274>>IF
     29278>>ASSIGN  29279>>ASSIGN  29280<<ASSIGN  29290<<ASSIGN
L2$
     20004**DCL     20561--IMP-PTR 20606--IMP-PTR 23340<<ASSIGN  23346<<ASSIGN  23354>>IF      23357>>ASSIGN
     23358>>ASSIGN  23402>>IF      23402>>IF      23470>>IF      23470>>ASSIGN  23470>>IF      23470>>ASSIGN
     23470>>ASSIGN  23470>>ASSIGN  23471>>IF      23471>>ASSIGN  23471>>ASSIGN  23471>>ASSIGN  23474>>IF
     23477>>ASSIGN  23496>>IF      23498>>ASSIGN  23528>>IF      23528>>IF      23539>>ASSIGN  23557>>ASSIGN
     23567>>ASSIGN  23616>>ASSIGN  23814>>IF      23814>>IF      23818>>ASSIGN  23825>>ASSIGN  23961>>ASSIGN
     23993<<ASSIGN  23994>>DOWHILE 23995>>ASSIGN  24013<<ASSIGN  24013>>ASSIGN  25475>>ASSIGN  25519>>IF
     25519>>IF      25527>>ASSIGN  25649>>ASSIGN  25658>>ASSIGN  25952>>IF      25952>>IF      25952>>IF
     25952>>IF      25952>>IF      25952>>IF      25986>>ASSIGN  25987>>IF      25987>>IF      25987>>IF
     26002>>IF      26007>>IF      26014>>ASSIGN  26041>>ASSIGN  26154>>IF      26162>>IF      26187>>IF
     26200>>IF      26221>>IF      26232>>IF      26384>>IF      26391>>IF      26411>>IF      27946>>IF
     27949>>IF      27952>>ASSIGN  27960>>ASSIGN  27961>>ASSIGN  27962>>ASSIGN  27971>>ASSIGN  28001>>IF
     28004>>IF      28007>>ASSIGN  28013>>ASSIGN  28022>>ASSIGN  28076>>ASSIGN  28077>>ASSIGN  28096>>ASSIGN
     28100>>ASSIGN  28106>>ASSIGN  28108>>ASSIGN  28114>>ASSIGN  28256>>IF      28301>>ASSIGN  28317>>IF
     28317>>IF      28323>>ASSIGN  28324>>ASSIGN  28336>>ASSIGN  28340>>ASSIGN  28351>>IF      28351>>ASSIGN
     28351>>ASSIGN  28361>>IF      28361>>ASSIGN  28361>>ASSIGN  28361>>ASSIGN  28362>>ASSIGN  28362>>ASSIGN
     28362>>ASSIGN  28362>>IF      28363>>ASSIGN  28363>>IF      28363>>ASSIGN  28363>>ASSIGN  28363>>ASSIGN
     28363>>IF      28364>>ASSIGN  28364>>ASSIGN  28364>>ASSIGN  28388>>IF      28391>>ASSIGN  28392>>ASSIGN
     28396>>ASSIGN  28397>>ASSIGN  28402>>ASSIGN  28428>>ASSIGN  28670>>ASSIGN  28671>>ASSIGN  28673>>ASSIGN
     28685>>IF      28688>>ASSIGN  28689>>IF      28701>>ASSIGN  28715>>IF      28715>>IF      28718>>ASSIGN
     28806>>IF      28806>>IF      28819>>IF      28819>>ASSIGN  28820>>ASSIGN  28860>>IF      28860>>IF
     28866>>ASSIGN  28934>>ASSIGN  29129>>ASSIGN  29171>>ASSIGN
L2EXT
     20166**DCL     23358<<ASSIGN  23392>>ASSIGN  23393>>ASSIGN  23879>>ASSIGN  23881>>ASSIGN  24348>>ASSIGN
     24591>>ASSIGN  24640>>ASSIGN  24854>>ASSIGN  25113>>ASSIGN  25211>>ASSIGN  25229>>ASSIGN  25283>>ASSIGN
     25325>>ASSIGN  25359>>ASSIGN  25374>>ASSIGN  25518>>ASSIGN  25698>>ASSIGN  25959>>ASSIGN  26446>>ASSIGN
     26718>>ASSIGN  28313>>ASSIGN  28338>>ASSIGN  28455>>ASSIGN  28734>>ASSIGN  28766>>ASSIGN  29151>>ASSIGN
     29153>>ASSIGN
PL6.E3A0      #001=KXP$PACKET File=KXP$PACKET.:E05TSI                            WED 07/30/97 02:24 Page:710
L2_BLOCKED IN PROCEDURE Y$GETDAT
     28866**LABEL   28715--GOTO    28763--GOTO    28806--GOTO    28860--GOTO
L3$
     20002**DCL     20975--IMP-PTR 23335<<ASSIGN  23336>>IF      23339>>ASSIGN  23340>>ASSIGN  23341>>ASSIGN
     23342>>ASSIGN  23539<<ASSIGN  23540>>DOWHILE 23542>>IF      23544<<ASSIGN  23544>>ASSIGN  23548>>IF
     23565<<ASSIGN  23566>>ASSIGN  23570>>ASSIGN  23572>>ASSIGN  23575>>ASSIGN  23582>>ASSIGN  23583>>IF
     23595>>IF      23601>>CALL    23604>>ASSIGN  23608>>CALL    23611>>ASSIGN  23612>>CALL    23615>>ASSIGN
     23616>>ASSIGN  23617>>ASSIGN  23618>>ASSIGN  23620>>ASSIGN  23620>>ASSIGN  23624>>IF      23645>>IF
     23645>>IF      23648>>DOCASE  23659>>ASSIGN  23696>>IF      23730>>IF      23730>>IF      23744>>IF
     23747>>ASSIGN  23767>>IF      23799>>ASSIGN  23800>>IF      23803>>ASSIGN  23827<<ASSIGN  23828>>ASSIGN
     23829>>ASSIGN  23831>>ASSIGN  23832>>IF      23834>>ASSIGN  23836>>ASSIGN  23853>>IF      23853>>IF
     23853>>IF      23860>>IF      23874>>ASSIGN  23889>>IF      23889>>ASSIGN  23889>>ASSIGN  23899>>IF
     23899>>ASSIGN  23899>>ASSIGN  23899>>ASSIGN  23900>>ASSIGN  23900>>ASSIGN  23900>>ASSIGN  23900>>IF
     23901>>ASSIGN  23901>>IF      23901>>ASSIGN  23901>>ASSIGN  23901>>ASSIGN  23901>>IF      23902>>ASSIGN
     23902>>ASSIGN  23902>>ASSIGN  23911>>IF      23911>>IF      23911>>IF      23917>>CALL    23918>>ASSIGN
     23919>>ASSIGN  23920>>ASSIGN  23920>>ASSIGN  23935>>IF      23936>>ASSIGN  23937>>IF      23941>>ASSIGN
     23942>>ASSIGN  23943>>ASSIGN  23946>>ASSIGN  23949>>IF      23950>>IF      23952>>CALL    23954>>CALL
     23954>>CALL    23955>>ASSIGN  23956>>ASSIGN  23957>>ASSIGN  23962>>DOWHILE 23963>>ASSIGN  23964>>ASSIGN
     23967>>IF      23969>>ASSIGN  23978>>IF      23983>>ASSIGN  23995<<ASSIGN  23996>>DOWHILE 23997>>IF
     23997>>IF      23997>>IF      24001>>ASSIGN  24001>>ASSIGN  24002>>IF      24005>>ASSIGN  24006>>ASSIGN
     24011<<ASSIGN  24011>>ASSIGN  24054>>IF      24054>>ASSIGN  24055>>ASSIGN  24059>>IF      24073>>ASSIGN
     24073>>ASSIGN  24075>>ASSIGN  24075>>ASSIGN  24076>>ASSIGN  24079>>ASSIGN  24079>>ASSIGN  24080>>ASSIGN
     24080>>ASSIGN  24081>>ASSIGN  24081>>ASSIGN  24082>>ASSIGN  24082>>ASSIGN  24083>>IF      24085>>ASSIGN
     24095>>IF      24111>>ASSIGN  24112>>ASSIGN  24115>>ASSIGN  24144>>CALL    24180>>IF      24192>>ASSIGN
     24198>>IF      24198>>IF      24225>>IF      24231>>IF      24237>>IF      24240>>ASSIGN  24240>>ASSIGN
     24241>>IF      24241>>IF      24241>>IF      24241>>IF      24263>>IF      24276>>IF      24279>>ASSIGN
     24282>>ASSIGN  24290>>IF      24293>>ASSIGN  24294>>ASSIGN  24296>>ASSIGN  24301>>IF      24303>>IF
     24308>>ASSIGN  24312>>IF      24315>>CALL    24318>>IF      24355>>ASSIGN  24356>>CALL    24392>>IF
     24395>>ASSIGN  24395>>ASSIGN  24396>>IF      24396>>IF      24396>>IF      24396>>IF      24426>>ASSIGN
     24443>>IF      24518>>ASSIGN  24518>>ASSIGN  24519>>IF      24519>>IF      24519>>IF      24528>>ASSIGN
     24549>>IF      24569>>IF      24572>>IF      24574>>ASSIGN  24576>>ASSIGN  24577>>ASSIGN  24587>>IF
     24590>>ASSIGN  24591>>ASSIGN  24592>>ASSIGN  24593>>ASSIGN  24594>>ASSIGN  24595>>ASSIGN  24599>>IF
     24599>>IF      24599>>IF      24599>>IF      24603>>ASSIGN  24606>>ASSIGN  24609>>IF      24611>>ASSIGN
     24611>>ASSIGN  24613>>ASSIGN  24616>>ASSIGN  24617>>ASSIGN  24617>>ASSIGN  24617>>ASSIGN  24619>>IF
     24622>>CALL    24626>>CALL    24626>>CALL    24628>>ASSIGN  24629>>ASSIGN  24630>>ASSIGN  24632>>IF
     24635>>ASSIGN  24639>>ASSIGN  24640>>ASSIGN  24640>>ASSIGN  24640>>ASSIGN  24642>>ASSIGN  24642>>ASSIGN
PL6.E3A0      #001=KXP$PACKET File=KXP$PACKET.:E05TSI                            WED 07/30/97 02:24 Page:711
     24645>>IF      24650>>ASSIGN  24651>>ASSIGN  24652>>ASSIGN  24657>>ASSIGN  24660>>ASSIGN  24661>>IF
     24670>>IF      24673>>IF      24676>>CALL    24680>>CALL    24680>>CALL    24683>>ASSIGN  24686>>IF
     24694>>IF      24697>>ASSIGN  24697>>ASSIGN  24698>>IF      24698>>IF      24698>>IF      24698>>IF
     24698>>IF      24698>>IF      24703>>IF      24703>>IF      24703>>IF      24711>>IF      24713>>CALL
     24740>>ASSIGN  24748>>ASSIGN  24749>>ASSIGN  24750>>ASSIGN  24751>>ASSIGN  24752>>ASSIGN  24755>>ASSIGN
     24756>>ASSIGN  24757>>IF      24759>>ASSIGN  24761>>ASSIGN  24779>>ASSIGN  24780>>ASSIGN  24809>>ASSIGN
     24812>>IF      24858>>IF      24872>>ASSIGN  24940>>ASSIGN  24955>>ASSIGN  24956>>ASSIGN  24957>>ASSIGN
     24962>>ASSIGN  24965>>ASSIGN  24966>>ASSIGN  24967>>IF      24969>>ASSIGN  24971>>ASSIGN  24983>>IF
     24983>>IF      25002>>ASSIGN  25031>>ASSIGN  25039>>IF      25059>>IF      25079>>IF      25094>>IF
     25118>>CALL    25170>>IF      25173>>ASSIGN  25178>>IF      25180>>ASSIGN  25181>>ASSIGN  25206>>ASSIGN
     25223>>IF      25234>>CALL    25250>>ASSIGN  25264>>ASSIGN  25294>>CALL    25317>>IF      25331>>IF
     25343>>ASSIGN  25344>>ASSIGN  25347>>ASSIGN  25364>>CALL    25379>>CALL    25404>>ASSIGN  25472>>ASSIGN
     25486>>ASSIGN  25487>>ASSIGN  25488>>ASSIGN  25488>>ASSIGN  25492>>ASSIGN  25493>>ASSIGN  25494>>ASSIGN
     25494>>ASSIGN  25496>>ASSIGN  25497>>ASSIGN  25497>>ASSIGN  25498>>IF      25498>>IF      25502>>ASSIGN
     25504>>IF      25528>>IF      25530>>ASSIGN  25532>>ASSIGN  25533>>ASSIGN  25570>>IF      25573>>ASSIGN
     25574>>ASSIGN  25596>>IF      25619>>CALL    25619>>CALL    25619>>CALL    25628>>ASSIGN  25628>>ASSIGN
     25630>>DOWHILE 25632>>ASSIGN  25633>>ASSIGN  25634>>IF      25636>>ASSIGN  25645>>IF      25645>>IF
     25645>>IF      25648>>ASSIGN  25654>>IF      25654>>IF      25659>>ASSIGN  25661>>ASSIGN  25666>>IF
     25666>>IF      25705>>IF      25720>>IF      25722>>ASSIGN  25725>>ASSIGN  25728>>ASSIGN  25806>>IF
     25813>>IF      25813>>IF      25816>>IF      25816>>IF      25819>>IF      25823>>ASSIGN  25834>>ASSIGN
     25834>>ASSIGN  25896>>ASSIGN  25923>>IF      25933>>ASSIGN  25936>>ASSIGN  25941>>IF      25941>>IF
     25952>>IF      25952>>IF      25952>>IF      25952>>IF      25980>>ASSIGN  26042>>DOWHILE 26046>>IF
     26059>>ASSIGN  26060>>ASSIGN  26063>>ASSIGN  26066>>ASSIGN  26068>>ASSIGN  26071>>ASSIGN  26071>>ASSIGN
     26113>>ASSIGN  26116>>ASSIGN  26131>>ASSIGN  26135>>ASSIGN  26138>>ASSIGN  26160>>ASSIGN  26161>>ASSIGN
     26162>>IF      26177>>ASSIGN  26189>>ASSIGN  26202>>ASSIGN  26223>>ASSIGN  26235>>ASSIGN  26236>>ASSIGN
     26236>>ASSIGN  26239>>ASSIGN  26249>>ASSIGN  26250>>ASSIGN  26286>>ASSIGN  26302>>ASSIGN  26368>>IF
     26372>>ASSIGN  26372>>ASSIGN  26373>>ASSIGN  26373>>ASSIGN  26402>>IF      26404>>IF      26410>>ASSIGN
     26424>>ASSIGN  26424>>ASSIGN  26426>>ASSIGN  26426>>ASSIGN  26436>>IF      26442>>IF      26442>>IF
     26551>>IF      26556>>ASSIGN  26562>>IF      26567>>ASSIGN  26582>>IF      26585>>ASSIGN  26586>>IF
     26586>>IF      26588>>ASSIGN  26588>>ASSIGN  26594>>IF      26597>>ASSIGN  26612>>ASSIGN  26613>>ASSIGN
     26651>>ASSIGN  26655>>ASSIGN  26690>>IF      26703>>IF      26722>>IF      26821>>IF      26821>>IF
     26844>>IF      28114<<ASSIGN  28118>>DOWHILE 28122>>ASSIGN  28123<<ASSIGN  28123>>ASSIGN  28151>>IF
     28151>>IF      28158>>ASSIGN  28160>>ASSIGN  28165>>ASSIGN  28167>>ASSIGN  28172>>IF      28172>>IF
     28179>>ASSIGN  28180>>ASSIGN  28184>>ASSIGN  28185>>ASSIGN  28194>>IF      28201>>ASSIGN  28201>>ASSIGN
     28206>>ASSIGN  28206>>ASSIGN  28222>>IF      28226>>ASSIGN  28229>>IF      28233>>ASSIGN  28234>>ASSIGN
     28236>>IF      28238>>ASSIGN  28239>>IF      28239>>IF      28243>>ASSIGN  28243>>ASSIGN  28247>>IF
PL6.E3A0      #001=KXP$PACKET File=KXP$PACKET.:E05TSI                            WED 07/30/97 02:24 Page:712
     28251>>ASSIGN  28252>>ASSIGN  28256>>IF      28263>>IF      28263>>IF      28269>>ASSIGN  28270>>ASSIGN
     28272>>ASSIGN  28275>>ASSIGN  28440>>ASSIGN  28444>>ASSIGN  28456>>ASSIGN  28457>>ASSIGN  28462>>ASSIGN
     28463>>IF      28467>>ASSIGN  28472>>ASSIGN  28472>>ASSIGN  28473>>ASSIGN  28473>>ASSIGN  28476>>ASSIGN
     28476>>ASSIGN  28507>>IF      28701<<ASSIGN  28702>>DOWHILE 28703>>ASSIGN  28704<<ASSIGN  28704>>ASSIGN
     28718<<ASSIGN  28719>>DOWHILE 28725>>ASSIGN  28726>>IF      28729>>ASSIGN  28730>>ASSIGN  28731>>IF
     28733>>ASSIGN  28733>>ASSIGN  28739>>IF      28743>>ASSIGN  28747>>ASSIGN  28752>>IF      28752>>IF
     28752>>IF      28752>>IF      28760>>IF      28760>>IF      28764>>ASSIGN  28765>>ASSIGN  28767>>IF
     28771>>ASSIGN  28772>>ASSIGN  28777>>ASSIGN  28780>>ASSIGN  28782>>ASSIGN  28783>>ASSIGN  28783>>ASSIGN
     28783>>ASSIGN  28784>>ASSIGN  28784>>ASSIGN  28785>>IF      28785>>IF      28788>>ASSIGN  28791>>IF
     28801>>ASSIGN  28802<<ASSIGN  28802>>ASSIGN  28820<<ASSIGN  28822>>DOWHILE 28823>>IF      28823>>IF
     28823>>IF      28835>>IF      28838>>ASSIGN  28839>>ASSIGN  28845>>ASSIGN  28847>>ASSIGN  28848>>ASSIGN
     28850>>IF      28854>>ASSIGN  28858<<ASSIGN  28858>>ASSIGN  28882>>ASSIGN  28883>>ASSIGN  28884>>ASSIGN
     28885>>ASSIGN  28886>>ASSIGN  28895>>IF      28898>>IF      28900>>CALL    28902>>CALL    28902>>CALL
     28903>>ASSIGN  28904>>ASSIGN  28905>>ASSIGN  28910>>DOWHILE 28911>>ASSIGN  28912>>ASSIGN  28915>>ASSIGN
     28920>>ASSIGN  28921>>ASSIGN  28925>>ASSIGN  28926>>ASSIGN  28927>>ASSIGN  28935>>IF      28935>>IF
     28935>>IF      28940>>ASSIGN  28940>>ASSIGN  28944>>DOWHILE 28945>>ASSIGN  28946>>ASSIGN  28952>>ASSIGN
     28953>>ASSIGN  28953>>ASSIGN  28954>>ASSIGN  28955>>ASSIGN  28956>>ASSIGN  28962>>DOWHILE 28963>>ASSIGN
     28964>>ASSIGN  28967>>ASSIGN  28975>>IF      28975>>IF      29117>>IF      29117>>IF      29120>>ASSIGN
     29124>>ASSIGN  29134>>ASSIGN  29138>>IF      29143>>IF      29145>>ASSIGN  29147>>ASSIGN  29148>>ASSIGN
     29152>>ASSIGN  29153>>ASSIGN  29155>>ASSIGN  29155>>ASSIGN  29156>>ASSIGN  29156>>ASSIGN  29157>>IF
     29160>>ASSIGN  29163>>IF      29163>>IF      29163>>IF      29182>>IF      29183>>CALL    29183>>CALL
     29197>>IF      29197>>ASSIGN  29197>>IF      29197>>ASSIGN  29197>>ASSIGN  29197>>ASSIGN  29198>>IF
     29198>>ASSIGN  29198>>ASSIGN  29198>>ASSIGN  29210>>IF      29210>>ASSIGN  29210>>IF      29210>>ASSIGN
     29210>>ASSIGN  29210>>ASSIGN  29211>>IF      29211>>ASSIGN  29211>>ASSIGN  29211>>ASSIGN  29223>>IF
     29223>>ASSIGN  29223>>IF      29223>>ASSIGN  29223>>ASSIGN  29223>>ASSIGN  29224>>IF      29224>>ASSIGN
     29224>>ASSIGN  29224>>ASSIGN  29236>>IF      29236>>ASSIGN  29236>>ASSIGN  29246>>IF      29246>>ASSIGN
     29246>>ASSIGN  29246>>ASSIGN  29247>>ASSIGN  29247>>ASSIGN  29247>>ASSIGN  29247>>IF      29248>>ASSIGN
     29248>>IF      29248>>ASSIGN  29248>>ASSIGN  29248>>ASSIGN  29248>>IF      29249>>ASSIGN  29249>>ASSIGN
     29249>>ASSIGN  29268>>ASSIGN  29269>>IF      29272>>ASSIGN  29273>>ASSIGN  29276>>ASSIGN  29278>>ASSIGN
     29279>>ASSIGN  29280>>ASSIGN  29284>>IF      29287>>ASSIGN  29288>>IF      29290>>ASSIGN  29292>>ASSIGN
     29292>>ASSIGN  29293>>IF      29295>>ASSIGN  29297>>ASSIGN  29297>>ASSIGN
L3EXT
     20167**DCL     23339<<ASSIGN  23582<<ASSIGN  23583>>IF      24549>>IF      24583>>ASSIGN  24591>>ASSIGN
     24592>>ASSIGN  24613>>ASSIGN  25079>>IF      25083>>IF      25094>>IF      25473>>ASSIGN  25483>>IF
     25512>>IF      25588>>IF      25789>>IF      25806>>IF      25806>>IF      25816>>IF      25834>>ASSIGN
     25885>>IF      25932<<ASSIGN  25935<<ASSIGN  26126>>IF      26218>>IF      26229>>IF      26317>>IF
PL6.E3A0      #001=KXP$PACKET File=KXP$PACKET.:E05TSI                            WED 07/30/97 02:24 Page:713
     26327>>IF      26340>>IF      28854<<ASSIGN  29151>>ASSIGN  29153>>ASSIGN  29166>>IF
LCN
     20145**DCL     23342<<ASSIGN  23348<<ASSIGN  23422<<ASSIGN  23423>>IF      23542>>IF      28391<<ASSIGN
     28392>>ASSIGN  28396<<ASSIGN  28397>>ASSIGN  28408>>IF      28419>>IF      28420>>IF      28422<<ASSIGN
     28422>>ASSIGN  28424<<ASSIGN  28424>>ASSIGN  28440>>ASSIGN  28444>>ASSIGN  29013<>CALL    29041<>CALL
     29070<>CALL    29096<>CALL
LER1
     23432**LABEL   23398--GOTO    23408--GOTO    23555--GOTO
LOG_TO_CP6
     19993**DCL     26186>>ASSIGN  26199>>ASSIGN  26555>>ASSIGN  26566>>ASSIGN
L_CHKCM$
     23744**LABEL   23772--GOTO    23781--GOTO    23790--GOTO
L_CHKL3
     23696**LABEL   23707--GOTO    23715--GOTO
L_CHKX25 IN PROCEDURE Y$WHAT_TYPE
     26391**LABEL   26397--GOTO
L_CLRC
     24267**LABEL   24185--GOTO
L_COMMON IN PROCEDURE Y$ER0
     29013**LABEL   28987--GOTO
L_DFR IN PROCEDURE Y$START_L3S
     28067**LABEL   28051--GOTO
L_DIED IN PROCEDURE Y$START_L3S
     28001**LABEL   27993--GOTO
L_DUPFCL IN PROCEDURE Y$WHAT_TYPE
     26108**LABEL   26125--GOTO    26148--GOTO    26175--GOTO    26212--GOTO    26277--GOTO    26293--GOTO
     26316--GOTO    26326--GOTO    26339--GOTO    26509--GOTO    26520--GOTO    26531--GOTO    26545--GOTO
     26576--GOTO    26606--GOTO    26622--GOTO    26637--GOTO    26648--GOTO    26666--GOTO
L_INVCLDADR IN PROCEDURE Y$WHAT_TYPE
     25993**LABEL   26004--GOTO
L_INVFCLCOD IN PROCEDURE Y$WHAT_TYPE
     26357**LABEL   26128--GOTO    26311--GOTO    26319--GOTO    26329--GOTO    26342--GOTO    26371--GOTO
L_LL IN PROCEDURE Y$WHAT_TYPE
     25862**LABEL   25848--GOTO
L_NO_MEM
     23561**LABEL   23613--GOTO    23826--CALLALT
PL6.E3A0      #001=KXP$PACKET File=KXP$PACKET.:E05TSI                            WED 07/30/97 02:24 Page:714
L_RLSL3
     24290**LABEL   24320--GOTO
L_RST_D1
     25076**LABEL   24637--GOTO
L_SEND_RR
     24706**LABEL   24097--GOTO
L_STOP
     25159**LABEL   24529--GOTO
MBIT
     20170**DCL     24595>>ASSIGN  24604>>IF      24645>>IF      24653>>ASSIGN  24698>>IF      25792<<ASSIGN
     25798<<ASSIGN  25816>>IF      25818<<ASSIGN  25885>>IF
NEW_RESTART
     18875**DCL     23493>>ASSIGN
NO_DATA IN PROCEDURE Y$GETDAT
     28858**LABEL   28844--GOTO
NO_L3CTX
     18508**DCL     23561>>ASSIGN
NO_LCN
     18977**DCL     24136>>ASSIGN
OUTSTR
     22103**DCL     29153>>ASSIGN
OUT_PKTHDR
     23281**DCL     23324--REDEF   23360<<ASSIGN  25518--ASSIGN  25712<<ASSIGN  29133<<ASSIGN
OUT_PKTHDR.CAUSE
     23319**DCL     23320--REDEF   24350<<ASSIGN  24365>>ASSIGN  25217<<ASSIGN  25285<<ASSIGN  25361<<ASSIGN
     25376<<ASSIGN
OUT_PKTHDR.DIAG
     23323**DCL     23511<<ASSIGN  24351<<ASSIGN  24370>>ASSIGN  25115<<ASSIGN  25220<<ASSIGN  25222<<ASSIGN
     25288<<ASSIGN  25290<<ASSIGN
OUT_PKTHDR.GFI
     23300**DCL     25473<<ASSIGN  28336<<ASSIGN
OUT_PKTHDR.LCN#
     23300**DCL     23301--REDEF   25472<<ASSIGN
OUT_PKTHDR.PR_BITS.M
     23313**DCL     29168<<ASSIGN
OUT_PKTHDR.PR_BITS.PR
PL6.E3A0      #001=KXP$PACKET File=KXP$PACKET.:E05TSI                            WED 07/30/97 02:24 Page:715
     23313**DCL     25486<<ASSIGN  25722<<ASSIGN
OUT_PKTHDR.PR_EXT.M
     23322**DCL     29170<<ASSIGN
OUT_PKTHDR.PR_EXT.PR
     23321**DCL     25492<<ASSIGN  25725<<ASSIGN
OUT_PKTHDR.Q_BIT
     23300**DCL     29134<<ASSIGN
OUT_PKTHDR.TYPE
     23301**DCL     23301--REDEF   23313--REDEF   23316--REDEF   23880<<ASSIGN  24349<<ASSIGN  25114<<ASSIGN
     25216<<ASSIGN  25284<<ASSIGN  25324<<ASSIGN  25360<<ASSIGN  25375<<ASSIGN  25508>>IF      25508>>IF
     25512>>IF      25713<<ASSIGN  28335<<ASSIGN  28497<<ASSIGN
OUT_PKTHDR.TYPE_BITS.DP
     23309**DCL     25477>>IF      25512>>IF
OUT_PKTHDR.TYPE_BITS.PS
     23305**DCL     23305--REDEF   25487<<ASSIGN
OUT_PKTHDR.TYPE_EXT.PS
     23317**DCL     25493<<ASSIGN
OUT_PKTHDR_CHR
     23324**DCL     28338>>ASSIGN
PEVENT
     20150**DCL     23361<<ASSIGN  23368>>DOCASE  23585<<ASSIGN  23589<<ASSIGN  23638<<ASSIGN  23660>>IF
     23672<<ASSIGN  23681<<ASSIGN  23688<<ASSIGN  23695<<ASSIGN  23706<<ASSIGN  23714<<ASSIGN  23735<<ASSIGN
     23737<<ASSIGN  23769<<ASSIGN  23771<<ASSIGN  23780<<ASSIGN  23789<<ASSIGN  24027<<ASSIGN  24033<<ASSIGN
     24039<<ASSIGN  24058>>ASSIGN  24080>>ASSIGN  24211>>IF      24361>>IF      24477>>IF      24480>>IF
     24737>>IF      24907>>IF      24926>>IF      24988>>IF      25003>>IF      25087>>IF      25100>>IF
     25621<<ASSIGN  25654>>IF      25654>>IF      25805<<ASSIGN  25810<<ASSIGN  25827<<ASSIGN  25864<<ASSIGN
     25887<<ASSIGN  25891<<ASSIGN  25895<<ASSIGN  25900<<ASSIGN  25926<<ASSIGN  25939<<ASSIGN  25945<<ASSIGN
     26401<<ASSIGN  26406<<ASSIGN  26438<<ASSIGN  26440<<ASSIGN  26450<<ASSIGN  26699<<ASSIGN  26705<<ASSIGN
     26708<<ASSIGN  26714<<ASSIGN  26726<<ASSIGN  26801<<ASSIGN  26811<<ASSIGN  26813<<ASSIGN  26819<<ASSIGN
     26828<<ASSIGN  26831<<ASSIGN  26838<<ASSIGN  26842<<ASSIGN  26853<<ASSIGN  26857<<ASSIGN  26862<<ASSIGN
     26865<<ASSIGN  28986>>ASSIGN
PPR IN PROCEDURE Y$PR
     25558**DCL     25573<<ASSIGN  25586>>IF      25596>>IF      25596>>IF      25626>>ASSIGN  25630>>DOWHILE
     25642<<ASSIGN  25642>>ASSIGN
PR IN PROCEDURE Y$PR
     25559**DCL     25572<<ASSIGN  25589>>IF      25589<<ASSIGN  25589>>ASSIGN  25592>>IF      25592<<ASSIGN
PL6.E3A0      #001=KXP$PACKET File=KXP$PACKET.:E05TSI                            WED 07/30/97 02:24 Page:716
     25592>>ASSIGN  25596>>IF      25596>>IF      25596>>IF      25626>>ASSIGN  25630>>DOWHILE
PRD IN PROCEDURE Y$START_TIMER
     29258**DCL     29256--PROC    29265>>IF      29268>>ASSIGN
PS
     20175**DCL     25794<<ASSIGN  25800<<ASSIGN  25819>>IF      25824>>ASSIGN
PSTATE
     20151**DCL     24055<<ASSIGN  24056>>ASSIGN  24058>>ASSIGN  24062<<ASSIGN  24067<<ASSIGN  24076>>ASSIGN
     24079>>ASSIGN  24231>>IF      24301>>IF      24661>>IF      24694>>IF      24812>>IF      24858>>IF
     25059>>IF
PS_PR.PR IN PROCEDURE Y$GETDAT
     28659**DCL     28743<<ASSIGN  28771<<ASSIGN
PS_PR.PS IN PROCEDURE Y$GETDAT
     28661**DCL     28772<<ASSIGN
PVC_STATE_TABLE.ACTION
     17264**DCL     24068>>ASSIGN
PVC_STATE_TABLE.NEXT_STATE
     17240**DCL     24067>>ASSIGN
REDIRECTED_CALL
     17993**DCL     26344>>ASSIGN
RESTART
     17323**DCL     23481>>ASSIGN
RESTART_COMMON IN PROCEDURE Y$RESTART
     28313**LABEL   28304--GOTO
RESTART_LNG
     18457**DCL     23451>>ASSIGN
RETALT IN PROCEDURE Y$CNCMNG
     25406**LABEL   25408--CALLALT 25410--CALLALT
RLSACT
     17583**DCL     24916>>ASSIGN
RMTDCL
     17634**DCL     24950>>ASSIGN
RSTCMP
     17685**DCL     24997>>ASSIGN
RSTRCV
     18564**DCL     24991>>ASSIGN  25028>>ASSIGN
RSTTIMOUT
PL6.E3A0      #001=KXP$PACKET File=KXP$PACKET.:E05TSI                            WED 07/30/97 02:24 Page:717
     19437**DCL     24504>>ASSIGN
RST_D1
     18615**DCL     25076>>ASSIGN
RST_PRS_ENTRY
     25105**LABEL   25132--GOTO
SENDING_CALL
     20160**DCL     25323<<ASSIGN  28151>>IF      28155>>IF      28172>>IF      28176>>IF      28198>>IF
     28215>>IF      28256>>IF      28256>>IF      28263>>IF      28475<<ASSIGN
SHORT_PACKET
     18253**DCL     23397>>ASSIGN
SIZ
     20157**DCL     24603<<ASSIGN  24606<<ASSIGN  24606>>ASSIGN  24607<<ASSIGN  24607>>ASSIGN  24608<>CALL
     24629>>ASSIGN
SIZ IN PROCEDURE Y$DATOUT
     29112**DCL     29120<<ASSIGN  29124<<ASSIGN  29127<>CALL    29151>>ASSIGN  29153>>ASSIGN  29153>>ASSIGN
     29155>>ASSIGN  29156>>ASSIGN  29175>>ASSIGN
STATE_TABLE.ACTION
     17004**DCL     24063>>ASSIGN
STATE_TABLE.NEXT_STATE
     16781**DCL     24062>>ASSIGN
STOP
     17738**DCL     28984>>ASSIGN
STR$
     20006**DCL     22102--IMP-PTR 22103--IMP-PTR 24616<<ASSIGN  24617>>ASSIGN  24639<<ASSIGN  24640>>ASSIGN
     29152<<ASSIGN  29153>>ASSIGN
STRT
     22519**DCL     25987>>IF      26424<<ASSIGN  26424>>ASSIGN  26426<<ASSIGN  26426>>ASSIGN
STRT0
     22520**DCL     23881<<ASSIGN  23881>>ASSIGN  25229<<ASSIGN  25229>>ASSIGN  25334<<ASSIGN  25334>>ASSIGN
     25518<<ASSIGN  25518>>ASSIGN  26060<<ASSIGN  26060>>ASSIGN  26286>>ASSIGN  26302>>ASSIGN  28467<<ASSIGN
     28467>>ASSIGN  28486<<ASSIGN  28486>>ASSIGN
STRT1
     22521**DCL     28462<<ASSIGN  28462>>ASSIGN
SUBCOMMON IN PROCEDURE Y$START_L3S
     28055**LABEL   27987--GOTO
S_TRMID$
PL6.E3A0      #001=KXP$PACKET File=KXP$PACKET.:E05TSI                            WED 07/30/97 02:24 Page:718
     20142**DCL     23357<<ASSIGN  24054<<ASSIGN  29013>>CALL    29041>>CALL    29070>>CALL    29096>>CALL
S_VAL0
     20143**DCL     23452<<ASSIGN  24056<<ASSIGN  25823<<ASSIGN  28986<<ASSIGN  28992<<ASSIGN  29013<>CALL
     29041<>CALL    29070<>CALL
S_VAL1
     20144**DCL     23453<<ASSIGN  25824<<ASSIGN  29041<>CALL
T$ IN PROCEDURE Y$CALL
     28384**DCL     28402<<ASSIGN  28406>>DOWHILE 28408>>IF      28428<<ASSIGN  28435<<ASSIGN  28435>>ASSIGN
T$ IN PROCEDURE Y$PR
     25557**DCL     25632<<ASSIGN  25633>>ASSIGN  25637>>ASSIGN  25638>>IF      25640<>CALL
T$ IN PROCEDURE Y$START_L3S
     26879**DCL     26898--IMP-PTR 27971<<ASSIGN  27972>>DOWHILE 27973>>IF      27976>>CALL    27983>>ASSIGN
     27984<<ASSIGN  27984>>ASSIGN  28022<<ASSIGN  28024>>DOWHILE 28025>>IF      28042>>ASSIGN  28042>>ASSIGN
     28043>>IF      28044>>ASSIGN  28046>>ASSIGN  28049>>ASSIGN  28050>>ASSIGN  28050>>ASSIGN  28067<<ASSIGN
     28067>>ASSIGN
TEMP IN PROCEDURE Y$WHAT_TYPE
     25761**DCL     26001<<ASSIGN  26002>>IF      26151<<ASSIGN  26154>>IF      26160>>ASSIGN  26161>>ASSIGN
     26179<<ASSIGN  26182>>IF      26182>>IF      26186<<ASSIGN  26186>>ASSIGN  26187>>IF      26189>>ASSIGN
     26192<<ASSIGN  26195>>IF      26195>>IF      26199<<ASSIGN  26199>>ASSIGN  26200>>IF      26202>>ASSIGN
     26215<<ASSIGN  26218>>IF      26218>>IF      26221>>IF      26223>>ASSIGN  26226<<ASSIGN  26229>>IF
     26229>>IF      26232>>IF      26235>>ASSIGN  26246<<ASSIGN  26249>>ASSIGN  26250>>ASSIGN  26258<<ASSIGN
     26261>>DOSELCT 26347<<ASSIGN  26350>>ASSIGN  26351>>ASSIGN  26548<<ASSIGN  26551>>IF      26551>>IF
     26555<<ASSIGN  26555>>ASSIGN  26556>>ASSIGN  26559<<ASSIGN  26562>>IF      26562>>IF      26566<<ASSIGN
     26566>>ASSIGN  26567>>ASSIGN  26579<<ASSIGN  26582>>IF      26582>>IF      26582>>IF      26585>>ASSIGN
     26591<<ASSIGN  26594>>IF      26594>>IF      26594>>IF      26597>>ASSIGN  26609<<ASSIGN  26612>>ASSIGN
     26613>>ASSIGN  26625<<ASSIGN  26628>>ASSIGN  26629>>ASSIGN  26761<<ASSIGN  26764>>ASSIGN  26765>>ASSIGN
TEMP0
     20147**DCL     22520--IMP-SIZ 23875<<ASSIGN  23876<>CALL    23879>>ASSIGN  23881>>ASSIGN  23881>>ASSIGN
     23881>>ASSIGN  23881>>ASSIGN  24583<<ASSIGN  24584>>ASSIGN  24599>>IF      24603>>ASSIGN  24632>>IF
     24640>>ASSIGN  24640>>ASSIGN  24642>>ASSIGN  25210<<ASSIGN  25211>>ASSIGN  25223>>IF      25223>>IF
     25229>>ASSIGN  25229>>ASSIGN  25229>>ASSIGN  25229>>ASSIGN  25330<<ASSIGN  25331>>IF      25331>>IF
     25334>>ASSIGN  25334>>ASSIGN  25334>>ASSIGN  25334>>ASSIGN  25336>>ASSIGN  25510<<ASSIGN  25515<<ASSIGN
     25517<<ASSIGN  25518>>ASSIGN  25518>>ASSIGN  25518>>ASSIGN  25986<<ASSIGN  25987>>IF      25987>>IF
     25995<<ASSIGN  26001>>ASSIGN  26002>>IF      26005<<ASSIGN  26005>>ASSIGN  26010<<ASSIGN  26010>>ASSIGN
     26060>>ASSIGN  26060>>ASSIGN  26060>>ASSIGN  26286>>ASSIGN  26302>>ASSIGN  26710<<ASSIGN  26718>>ASSIGN
     26719>>IF      26802<<ASSIGN  28269<<ASSIGN  28271>>ASSIGN  28272>>ASSIGN  28272>>ASSIGN  28273>>ASSIGN
PL6.E3A0      #001=KXP$PACKET File=KXP$PACKET.:E05TSI                            WED 07/30/97 02:24 Page:719
     28274>>ASSIGN  28275>>ASSIGN  28276>>ASSIGN  28303<<ASSIGN  28309<<ASSIGN  28313<<ASSIGN  28313>>ASSIGN
     28337>>ASSIGN  28456<<ASSIGN  28458>>ASSIGN  28460<<ASSIGN  28460>>ASSIGN  28467>>ASSIGN  28467>>ASSIGN
     28467>>ASSIGN  28468>>ASSIGN  28485<<ASSIGN  28486>>ASSIGN  28486>>ASSIGN  28486>>ASSIGN  28486>>ASSIGN
     28488>>ASSIGN
TEMP1
     20148**DCL     22521--IMP-SIZ 25211<<ASSIGN  25212<>CALL    25215>>ASSIGN  28270<<ASSIGN  28274>>ASSIGN
     28275>>ASSIGN  28275>>ASSIGN  28276>>ASSIGN  28457<<ASSIGN  28458>>ASSIGN  28461<<ASSIGN  28461>>ASSIGN
     28462>>ASSIGN  28462>>ASSIGN  28462>>ASSIGN  28466>>ASSIGN  28734<<ASSIGN  28735>>ASSIGN  28742>>ASSIGN
     28744>>ASSIGN  28747>>ASSIGN  28747>>ASSIGN  28766<<ASSIGN  28770>>ASSIGN  28773>>ASSIGN  28777>>ASSIGN
     28777>>ASSIGN  28780>>ASSIGN
TEMP2
     20173**DCL     24058<<ASSIGN  24062>>ASSIGN  24063>>ASSIGN  24067>>ASSIGN  24068>>ASSIGN  28735<<ASSIGN
     28736>>IF      28736>>IF
TEMP2$
     20172**DCL     23558<>CALL    23565>>ASSIGN  23826<>CALL    23827>>ASSIGN  23876<>CALL    23877>>ASSIGN
     24296<<ASSIGN  24297<>CALL    24345<>CALL    24346>>ASSIGN  24608<>CALL    24617>>ASSIGN  24628>>ASSIGN
     24940<<ASSIGN  24941<>CALL    25110<>CALL    25111>>ASSIGN  25173<<ASSIGN  25174<>CALL    25212<>CALL
     25213>>ASSIGN  25280<>CALL    25281>>ASSIGN  25320<>CALL    25321>>ASSIGN  25689<>CALL    25690>>ASSIGN
     28332<>CALL    28333>>ASSIGN  28448<>CALL    28449>>ASSIGN  28801<<ASSIGN  28803>>IF      28805<>CALL
     28963<<ASSIGN  28964>>ASSIGN  28965<>CALL
TERMID
     20190**DCL     23567<<ASSIGN  23601<>CALL    23617>>ASSIGN  26014<<ASSIGN  26029<>CALL
TERMID.LEV
     20194**DCL     23568<<ASSIGN  26027<<ASSIGN
TERMID.TERM
     20194**DCL     20203--REDEF   26042>>DOWHILE
TERMID.TERM.SUBDEVICE
     20200**DCL     23569<<ASSIGN  26018<<ASSIGN  26023<<ASSIGN  26419>>IF
TERMID.TERM.SUBSUBDEVICE
     20200**DCL     23570<<ASSIGN  26026<<ASSIGN  26037<<ASSIGN  26038>>DOWHILE 26050<<ASSIGN  26050>>ASSIGN
TERMID.TTYP
     20194**DCL     23571<<ASSIGN  26028<<ASSIGN
TL3$ IN PROCEDURE Y$WHAT_TYPE
     25762**DCL     26041<<ASSIGN  26042>>DOWHILE 26042>>DOWHILE 26044<<ASSIGN  26044>>ASSIGN  26046>>IF
TRY_SNDCQ IN PROCEDURE Y$START_L3S
     27199**DCL     27953<<ASSIGN  27963<<ASSIGN  27967<<ASSIGN  28008<<ASSIGN  28014<<ASSIGN  28018<<ASSIGN
PL6.E3A0      #001=KXP$PACKET File=KXP$PACKET.:E05TSI                            WED 07/30/97 02:24 Page:720
     28072>>IF
UNKLCN
     19488**DCL     23554>>ASSIGN
UNKPCK
     19539**DCL     24541>>ASSIGN
VCDWN
     17789**DCL     25201>>ASSIGN  25245>>ASSIGN
VCLST
     17840**DCL     25203>>ASSIGN  25260>>ASSIGN
VCLST_ENTRY
     25206**LABEL   24524--GOTO
VCRST
     17891**DCL     25275>>ASSIGN
VCUP
     17942**DCL     25307>>ASSIGN
VS IN PROCEDURE Y$PR
     25560**DCL     25574<<ASSIGN  25586>>IF      25589>>IF      25590<<ASSIGN  25590>>ASSIGN  25592>>IF
     25593<<ASSIGN  25593>>ASSIGN  25596>>IF
XPKTHDR
     22525**DCL     23392>>ASSIGN  28338<<ASSIGN
XTR_INT
     18819**DCL     23863>>ASSIGN
Y$CALL
     28380**PROC    24129--CALL
Y$CNCMNG
     25395**PROC    23655--CALL    23944--CALL    24119--CALL    24269--CALL    24373--CALL    24654--CALL
     24753--CALL    24783--CALL    24833--CALL    24856--CALL    24874--CALL    24938--CALL    24963--CALL
     25015--CALL    25057--CALL    25121--CALL    25168--CALL    25348--CALL    25366--CALL
Y$DATOUT
     29111**PROC    24727--CALL    28855--CALL
Y$DIED_L3S IN PROCEDURE Y$START_L3S
     27990**ENTRY   24021--CALL
Y$DVCADM
     29181**PROC    23628--CALL    23630--CALL    23726--CALL    23926--CALL    23928--CALL    24140--CALL
     24146--CALL    24229--CALL    24404--CALL    24811--CALL    25186--CALL
Y$ER
PL6.E3A0      #001=KXP$PACKET File=KXP$PACKET.:E05TSI                            WED 07/30/97 02:24 Page:721
     29076**PROC    23509--CALL    23562--CALL    23864--CALL    24137--CALL    24256--CALL    24392--CALL
     24401--CALL    24424--CALL    24505--CALL    24527--CALL    24741--CALL    24775--CALL    24998--CALL
     25204--CALL    25246--CALL    25261--CALL    25276--CALL    25308--CALL    26825--CALL    27979--CALL
Y$ER0
     28983**PROC    25159--CALL
Y$ER00 IN PROCEDURE Y$ER0
     28989**ENTRY   23441--CALL
Y$ER000 IN PROCEDURE Y$ER0
     28991**ENTRY   24441--CALL    24461--CALL    24488--CALL
Y$ER0000 IN PROCEDURE Y$ER0
     28985**ENTRY   24917--CALL
Y$ER1
     29019**PROC    23454--CALL    25825--CALL
Y$ER2
     29047**PROC    23432--CALL    23482--CALL    23494--CALL    24203--CALL    24335--CALL    24542--CALL
     24805--CALL    24912--CALL    24951--CALL    24992--CALL    25029--CALL    25077--CALL    25863--CALL
     26345--CALL    26745--CALL    26786--CALL    28509--CALL
Y$GETDAT
     28521**PROC    23816--CALL    23846--CALL
Y$PACKET_OUT
     25416**PROC    23883--CALL    24352--CALL    25116--CALL    25232--CALL    25291--CALL    25338--CALL
     25362--CALL    25377--CALL    25732--CALL    28501--CALL    29173--CALL
Y$PR
     25546**PROC    25833--CALL    25892--CALL    25897--CALL
Y$RESET_L3CNTX
     28878**PROC    24223--CALL    24344--CALL    24781--CALL    24921--CALL    25030--CALL    25109--CALL
     25165--CALL    25209--CALL    25279--CALL    25356--CALL
Y$RESTART
     28297**PROC    23377--CALL    23512--CALL    24892--CALL    28691--CALL
Y$RESTART_C IN PROCEDURE Y$RESTART
     28306**ENTRY   23501--CALL    28694--CALL
Y$SEND_PACKET
     25677**PROC    23971--CALL    24234--CALL    24280--CALL    24707--CALL    24862--CALL    25063--CALL
Y$START_DATTMR
     29230**PROC    25506--CALL    25674--CALL    28793--CALL
Y$START_L3S
PL6.E3A0      #001=KXP$PACKET File=KXP$PACKET.:E05TSI                            WED 07/30/97 02:24 Page:722
     26877**PROC    23485--CALL    23503--CALL
Y$START_TIMER
     29256**PROC    24144--CALL    24315--CALL    24356--CALL    24713--CALL    25118--CALL    25234--CALL
     25294--CALL    25364--CALL    25379--CALL
Y$STOP_DATTMR
     29217**PROC    25669--CALL    28888--CALL
Y$STOP_INTTMR
     29204**PROC    24875--CALL    28887--CALL
Y$STOP_L3S IN PROCEDURE Y$START_L3S
     27995**ENTRY   23489--CALL    24018--CALL    24891--CALL
Y$STOP_TMR
     29191**PROC    24108--CALL    24187--CALL    24744--CALL    24777--CALL    24807--CALL    24982--CALL
     25163--CALL    25248--CALL    25311--CALL
Y$STUFF_FACILITIES
     28140**PROC    25328--CALL    28477--CALL
Y$WHAT_TYPE
     25736**PROC    23591--CALL
Y@BYTE IN PROCEDURE Y$GETDAT
     28657**DCL     28658--REDEF   28742<<ASSIGN  28744>>ASSIGN  28770<<ASSIGN  28773>>ASSIGN
Y@CNCMNG
     22526**DCL     25410>>CALL    28841>>CALL
Y@DFRINP
     20162**DCL     24568<<ASSIGN  24569>>IF      24670>>IF      24694>>IF
YESBIT IN PROCEDURE Y$DATOUT
     29114**DCL     29127<>CALL
Y_ACTSCR
     19897**DCL     23857--ASSIGN  25140--ASSIGN
Y_BADCTXPTR
     19714**DCL     23757<>CALL    23810<>CALL
Y_UNKACT
     19836**DCL     25389<>CALL
Y_UNKEVT
     19775**DCL     24045<>CALL
