PL6.E3A0      #006=KXS$RLSCNTX File=KXS$SUBS.:E05TSI                             WED 07/30/97 02:28 Page:181
      907        1        /*T***********************************************************/
      908        2        /*T*                                                         */
      909        3        /*T* Copyright (c) Bull HN Information Systems Inc., 1997    */
      910        4        /*T*                                                         */
      911        5        /*T***********************************************************/
      912        6        /*F* NAME: KXS$RLSCNTX               */
      913        7        /*F* PURPOSE: Release a level 2 context block  */
      914        8
      915        9        /*D* NAME: KXS$RLSCNTX               */
      916       10        /*D* PURPOSE: Release a level 2 context block and
      917       11                      all the I/O buffers queued to it  */
      918       12        /*D* CALL: CALL KXS$RLSCNTX ( L2$ ); */
      919       13        /*D* INPUT: L2$ - pointer to the context to be released  */
      920       14        /*D* OUTPUT: none                    */
      921       15
      922       16        KXS$RLSCNTX: PROC ( L2$ );
      923       17
      924       18        /*****************************************************************
      925       19        *                                                                *
      926       20        *                           Include files                        *
      927       21        *                                                                *
      928       22        *****************************************************************/
      929       23
      930       24        %INCLUDE K_ID_E;
      931       74        %K#ENTID_E;
      932       93        %K#LYRID_E;
      933      100        %INCLUDE KL_MACRO_C;
      934     3452        %INCLUDE KL_AFCN_C;
      935     3553        %INCLUDE LCP_6;
      936     7832        %INCLUDE CP_6_SUBS;
      937     8372        %INCLUDE KH$CHN;
      938     8494        %INCLUDE KHA_FNC_E;
      939     8594        %INCLUDE KX_SCODE_C;
      940     8660        %INCLUDE KL_SUPER_C;
      941    11562        %INCLUDE KX_EQUS_E;
      942    12001        %INCLUDE KX_PERR_C;
      943    12130        %INCLUDE KX_DATA_C;
PL6.E3A0      #006=KXS$RLSCNTX File=KXS$SUBS.:E05TSI                             WED 07/30/97 02:28 Page:182
      944    12198        %INCLUDE KX_MACROS_M;
      945    12969        %INCLUDE KV_GLBCNS_E;
      946    13310        %INCLUDE K_ADDRESS_M;
      947    13813        %INCLUDE KNH_MACRO_C;
      948    14096        %KV#CQ_HNDID_E;
      949    14101        %EJECT;
PL6.E3A0      #006=KXS$RLSCNTX File=KXS$SUBS.:E05TSI                             WED 07/30/97 02:28 Page:183
      950    14102        /*****************************************************************
      951    14103        *                                                                *
      952    14104        *                           External References                  *
      953    14105        *                                                                *
      954    14106        *****************************************************************/
      955    14107
      956    14108    1   DCL KHA$DVCADM ENTRY (6) ALTRET;
      957    14109    1   DCL KVB$RLS ENTRY(2) ALTRET;
      958    14110    1   DCL KVB$RLSSYS ENTRY (2) ALTRET;
      959    14111    1   DCL KXS$RLSBFR ENTRY (1);
      960    14112    1   DCL KXX$X29 ENTRY (1);
      961    14113    1   DCL KHD$SCREECH ENTRY (1);
      962    14114    1   DCL KHA$ERRLOG ENTRY (2) ALTRET;
      963    14115        %EJECT;
PL6.E3A0      #006=KXS$RLSCNTX File=KXS$SUBS.:E05TSI                             WED 07/30/97 02:28 Page:184
      964    14116        /*****************************************************************
      965    14117        *                                                                *
      966    14118        *                           Auto                                 *
      967    14119        *                                                                *
      968    14120        *****************************************************************/
      969    14121
      970    14122    1   DCL L2$ PTR;
      971    14123
      972    14124    1   DCL CTX$ PTR;
      973    14125    1   DCL DAT$ PTR;
      974    14126    1   DCL NXTDAT$ PTR;
      975    14127    1   DCL DVC$ PTR;
      976    14128    1   DCL BFRSIZ UBIN;
      977    14129
      978    14130
      979    14131
      980    14132
      981    14133        /*****************************************************************
      982    14134        *                                                                *
      983    14135        *                           Based                                *
      984    14136        *                                                                *
      985    14137        *****************************************************************/
      986    14138
      987    14139        %KH$CHN ( STCLASS = BASED );
      988    14263        %KX$L1 ( STCLASS = "BASED ( CTX$ )" );
      989    14303        %KX$L1 ( FPTN = KX$TL1, STCLASS = BASED );
      990    14343        %KX$L2 ( STCLASS = "BASED ( CTX$ )" );
      991    14710        %KX$L2 (FPTN = KX$L2S, STCLASS = "BASED ( CTX$ )", SLCC = YES );
      992    15107        %KX$LINKDEV ( STCLASS = "BASED(DVC$)" );
      993    15134        %KX$DATA ( STCLASS = "BASED ( DAT$ )" );
      994    15154        %KX$DATA ( FPTN = KX$TDATA, STCLASS = BASED );
      995    15174        %KX$TMRBLK ( FPTN=KX$BTMRBLK, STCLASS=BASED );
      996    15206        %EJECT;
PL6.E3A0      #006=KXS$RLSCNTX File=KXS$SUBS.:E05TSI                             WED 07/30/97 02:28 Page:185
      997    15207        /*****************************************************************
      998    15208        *                                                                *
      999    15209        *                           Static                               *
     1000    15210        *                                                                *
     1001    15211        *****************************************************************/
     1002    15212
     1003    15213        %KX_DATA;
     1004    15903        %EJECT;
PL6.E3A0      #006=KXS$RLSCNTX File=KXS$SUBS.:E05TSI                             WED 07/30/97 02:28 Page:186
     1005    15904        /*****************************************************************
     1006    15905        *                                                                *
     1007    15906        *                           Constant                             *
     1008    15907        *                                                                *
     1009    15908        *****************************************************************/
     1010    15909
     1011    15910        %VLP_SCODE (FPTN=Y_NO_RLS,STCLASS=CONSTANT,FCG=KX,MID=S,ERR#=%S$KX_NO_RLS#);
     1012    15971        %VLP_SCODE (FPTN=Y_KHAALTRET,STCLASS=CONSTANT,FCG=KX,MID=S,ERR#=%S$KX_KHAALTRET#);
     1013    16032        %VLP_SCODE (FPTN=Y_BADL2LIST,STCLASS=CONSTANT,FCG=KX,MID=S,ERR#=%S$KX_BADL2LIST#);
     1014    16093        %EJECT;
PL6.E3A0      #006=KXS$RLSCNTX File=KXS$SUBS.:E05TSI                             WED 07/30/97 02:28 Page:187
     1015    16094        /*****************************************************************
     1016    16095        *                                                                *
     1017    16096        *                           Procedure                            *
     1018    16097        *                                                                *
     1019    16098        *****************************************************************/
     1020    16099
     1021    16100        /*
     1022    16101                                             Delink this context from the
     1023    16102                                             others.
     1024    16103        */
     1025    16104    1       CTX$ = KX_CNTX.HD$;
     1026    16105    1       IF L2$ = CTX$
     1027    16106    1          THEN
     1028    16107    2             DO;
     1029    16108    2                KX_CNTX.HD$ = KX$L1.NEXT$;
     1030    16109    2                IF KX$L1.NEXT$ = ADDR(NIL)
     1031    16110    2                   THEN
     1032    16111    2                      KX_CNTX.TL$ = KX_CNTX.HD$;
     1033    16112    2             END;
     1034    16113    1          ELSE
     1035    16114    2             DO;
     1036    16115    3                DO WHILE CTX$ ~= ADDR(NIL);
     1037    16116    3                   IF KX$L1.NEXT$ = L2$ THEN EXIT;
     1038    16117    3                   CTX$ = KX$L1.NEXT$;
     1039    16118    3                END;
     1040    16119    2                IF CTX$ = ADDR(NIL)
     1041    16120    2                   THEN
     1042    16121    3                      DO;
     1043    16122        /*S* SCREECH_CODE: KXS-S$KX_BADL2LIST#
     1044    16123             MESSAGE: The chain of L2 contexts was corrupted.
     1045    16124        */
     1046    16125    3                         CALL KHD$SCREECH ( Y_BADL2LIST );
     1047    16126    3                      END;
     1048    16127    2                KX$L1.NEXT$ = KX$L1.NEXT$->KX$TL1.NEXT$;
     1049    16128    2                IF KX$L1.NEXT$ = ADDR(NIL)
     1050    16129    2                   THEN
     1051    16130    2                      KX_CNTX.TL$ = CTX$;
PL6.E3A0      #006=KXS$RLSCNTX File=KXS$SUBS.:E05TSI                             WED 07/30/97 02:28 Page:188
     1052    16131    2                CTX$ = L2$;
     1053    16132    2             END;
     1054    16133        /*
     1055    16134                                             Clear the context pointer from
     1056    16135                                             the channel table.
     1057    16136        */
     1058    16137    1       KX$L1.CHN$ -> KH$CHN.CTX$ = ADDR(NIL);
     1059    16138        /*
     1060    16139           Clear the L2$ in link devices. If the link device has logged on, it
     1061    16140           will be released when disconnect thru VDH is done. Otherwise, it should
     1062    16141           be released here.
     1063    16142        */
     1064    16143    2       DO WHILE ( KX$L2.DVC_HEAD$ ~= ADDR(NIL) );
     1065    16144    2          DVC$ = KX$L2.DVC_HEAD$;
     1066    16145    2          KX$L2.DVC_HEAD$ = KX$LINKDEV.FLNK$;
     1067    16146    2          KX$LINKDEV.L2$ = ADDR(NIL);
     1068    16147    2          KX$LINKDEV.CHN$->KH$CHN.CTX$ = ADDR(NIL);
     1069    16148    2          IF KX$LINKDEV.VDI$ = ADDR(NIL)
     1070    16149    2             THEN
     1071    16150    3                DO;
     1072    16151    3                   CALL KVB$RLSSYS ( SIZEW(KX$LINKDEV), DVC$ );
     1073    16152    3                END;
     1074    16153    2       END;
     1075    16154        /*
     1076    16155                                             Release any CCB input buffers.
     1077    16156        */
     1078    16157    1       DAT$ = KX$L1.IN_CCB_HEAD$;
     1079    16158    2       DO WHILE ( DAT$ ~= ADDR(NIL));
     1080    16159    2          KX$L1.IN_CCB_HEAD$ = KX$DATA.NEXT$;
     1081    16160    2          CALL KXS$RLSBFR ( DAT$ );
     1082    16161    2          DAT$ = KX$L1.IN_CCB_HEAD$;
     1083    16162    2       END;
     1084    16163        /*
     1085    16164                                             Release any CCB output buffers.
     1086    16165        */
     1087    16166    1       DAT$ = KX$L1.OUT_CCB_HEAD$;
     1088    16167    2       DO WHILE ( DAT$ ~= ADDR(NIL));
PL6.E3A0      #006=KXS$RLSCNTX File=KXS$SUBS.:E05TSI                             WED 07/30/97 02:28 Page:189
     1089    16168    2          KX$L1.OUT_CCB_HEAD$ = KX$DATA.NEXT$;
     1090    16169    2          CALL KXS$RLSBFR ( DAT$ );
     1091    16170    2          DAT$ = KX$L1.OUT_CCB_HEAD$;
     1092    16171    2       END;
     1093    16172        /*
     1094    16173                                             Release any buffers on the
     1095    16174                                             output queue.
     1096    16175        */
     1097    16176    1       DAT$ = KX$L1.OUT_Q_HEAD$;
     1098    16177    2       DO WHILE ( DAT$ ~= ADDR(NIL));
     1099    16178    2          KX$L1.OUT_Q_HEAD$ = KX$DATA.NEXT$;
     1100    16179    2          CALL KXS$RLSBFR ( DAT$ );
     1101    16180    2          DAT$ = KX$L1.OUT_Q_HEAD$;
     1102    16181    2       END;
     1103    16182        /*
     1104    16183                                             Release any buffers on the
     1105    16184                                             supervisory queue.
     1106    16185        */
     1107    16186    1       DAT$ = KX$L1.SUPV_Q_HEAD$;
     1108    16187    2       DO WHILE ( DAT$ ~= ADDR(NIL));
     1109    16188    2          KX$L1.SUPV_Q_HEAD$ = KX$DATA.NEXT$;
     1110    16189    2          CALL KXS$RLSBFR ( DAT$ );
     1111    16190    2          DAT$ = KX$L1.SUPV_Q_HEAD$;
     1112    16191    2       END;
     1113    16192        /*
     1114    16193                                             Set the CCB counts in the channel
     1115    16194                                             table to 0.
     1116    16195        */
     1117    16196    1       KX$L1.CHN$ -> KH$CHN.INPCCBCNT = 0;
     1118    16197    1       KX$L1.CHN$ -> KH$CHN.OTPCCBCNT = 0;
     1119    16198        /*
     1120    16199           Stop all timers just to be sure.
     1121    16200        */
     1122    16201            %STOP_TIMER ( FPTN = KX$L2.TMRBLK );
     1123    16210            %STOP_TIMER ( FPTN = KX$L2.T20TMR );
     1124    16219        /*
     1125    16220                                             Report DSC to handler common.
PL6.E3A0      #006=KXS$RLSCNTX File=KXS$SUBS.:E05TSI                             WED 07/30/97 02:28 Page:190
     1126    16221        */
     1127    16222    1       CALL KHA$DVCADM ( %KHA_FNC_DISCONNECT_EVT,
     1128    16223    1          BFRSIZ,
     1129    16224    1          KX$L1.CHN$ -> KH$CHN.TERMID,
     1130    16225    1          KX$L1.CHN$ -> KH$CHN.TERMID,
     1131    16226    1          VECTOR(NIL), 1);
     1132    16227        /*
     1133    16228           Update available MEM and IOMEM according to formula
     1134    16229        */
     1135    16230    1       KX_AVL_MEM = KX_AVL_MEM + 400;
     1136    16231    1       KX_AVL_IOMEM = KX_AVL_IOMEM +
     1137    16232    1          (KX$L2.MAXCCB + KX$L2.K) * KX_BUF.SIZ(KX$L2.BUF_SIZE);
     1138    16233        /*
     1139    16234                                             Release the context block.
     1140    16235        */
     1141    16236    2       IF NOT KX$L1.CHN$ -> KH$CHN.ATTR&%G_ATTR_CL_SLCC THEN DO;
     1142    16237    2                BFRSIZ = SIZEW(KX$L2);
     1143    16238    2                CALL KVB$RLSSYS ( BFRSIZ, CTX$ )
     1144    16239    2                   WHENALTRETURN
     1145    16240    3                      DO;
     1146    16241    3                         CALL KHD$SCREECH ( Y_NO_RLS );
     1147    16242    3                      END;
     1148    16243
     1149    16244    2             END;
     1150    16245    1          ELSE
     1151    16246    1             CALL KVB$RLS (KX$L2S.L2SIZ, KX$L2S.L2$);
     1152    16247    1       RETURN;
     1153    16248
     1154    16249    1   END KXS$RLSCNTX;
     1155    16250        %EOD;

PL6.E3A0      #006=KXS$RLSCNTX File=KXS$SUBS.:E05TSI                             WED 07/30/97 02:28 Page:191
--  Include file information  --

   KNH_MACRO_C.:E05TOU  is referenced.
   K_ADDRESS_M.:E05TOU  is referenced.
   KV_GLBCNS_E.:E05TOU  is referenced.
   KX_MACROS_M.:E05TOU  is referenced.
   KX_DATA_C.:E05TOU  is referenced.
   KX_PERR_C.:E05TOU  is referenced.
   KX_EQUS_E.:E05TOU  is referenced.
   KL_SUPER_C.:E05TOU  is referenced.
   KX_SCODE_C.:E05TOU  is referenced.
   KHA_FNC_E.:E05TOU  is referenced.
   KH$CHN.:E05TOU  is referenced.
   CP_6_SUBS.:E05TOU  is referenced.
   G_LCP6_E.:E05TOU  is referenced.
   GT_LCP6_M.:E05TOU  is referenced.
   KI_CP6.:E05TOU  is referenced.
   GF_LCP6_M.:E05TOU  is referenced.
   GM_LCP6_M.:E05TOU  is referenced.
   GU_LCP6_M.:E05TOU  is referenced.
   GJ_LCP6_M.:E05TOU  is referenced.
   GH_LCP6_M.:E05TOU  is referenced.
   LCP_6.:E05TOU  cannot be made into a system file and is referenced.
   KL_AFCN_C.:E05TOU  is referenced.
   KL_MACRO_C.:E05TOU  is referenced.
   K_ID_E.:E05TOU  is referenced.
      No diagnostics issued in procedure KXS$RLSCNTX.

   Procedure KXS$RLSCNTX requires 502 words for executable code.
   Procedure KXS$RLSCNTX requires 28 words of local(AUTO) storage.

PL6.E3A0      #006=KXS$RLSCNTX File=KXS$SUBS.:E05TSI                             WED 07/30/97 02:28 Page:192

 Object Unit name= KXS$RLSCNTX                                File name= KXS$SUBS.:E05TOU
 UTS= JUL 30 '97 02:28:53.28 WED                              Compiler= PL-6/E31         Sev=      00
 SharedLib= :SHARED_LCP6_SYSTEM                               Alt SharedLib=


    ****  Control sections  ****

 Sect   Type Bound  Init  Size HexSiz  Section name
    0  RoData even  UTS      9      9  KXS$RLSCNTX
    1   Proc  even  none   502    1F6  KXS$RLSCNTX
    2  RoData even  none     7      7  KXS$RLSCNTX

    ****  Entry defs  ****

                              Check   Calling
                             calling  sequence
  Sect HexLoc Primary Altret sequence   type   Parms  Name
     1      0   yes            yes      Std        1  KXS$RLSCNTX

  ****  Entry refs  ****

         Check        Calling
        calling       sequence
Altret sequence SRef   type   Args  Name
         yes           Std       1 KHD$SCREECH
 yes     yes           Std       2 KVB$RLSSYS
         yes           Std       1 KXS$RLSBFR
 yes     yes           Std       6 KHA$DVCADM
 yes     yes           Std       2 KVB$RLS
                       nStd      0 X6A_AUTO_1
                       nStd      0 X6A_ARET
PL6.E3A0      #006=KXS$RLSCNTX File=KXS$SUBS.:E05TSI                             WED 07/30/97 02:28 Page:193

  ****  Data refs  ****

  Flags:  r = read only, s = secondary
Flgs Name                             Flgs Name                             Flgs Name
     KX_CNTX                               KX_BUF                                KX_TMRBLK
     KX_AVL_MEM                            KX_AVL_IOMEM                          KX_PM$
r    G$ROS$
PL6.E3A0      #006=KXS$RLSCNTX File=KXS$SUBS.:E05TSI                             WED 07/30/97 02:28 Page:194


      907        1        /*T***********************************************************/
      908        2        /*T*                                                         */
      909        3        /*T* Copyright (c) Bull HN Information Systems Inc., 1997    */
      910        4        /*T*                                                         */
      911        5        /*T***********************************************************/
      912        6        /*F* NAME: KXS$RLSCNTX               */
      913        7        /*F* PURPOSE: Release a level 2 context block  */
      914        8
      915        9        /*D* NAME: KXS$RLSCNTX               */
      916       10        /*D* PURPOSE: Release a level 2 context block and
      917       11                      all the I/O buffers queued to it  */
      918       12        /*D* CALL: CALL KXS$RLSCNTX ( L2$ ); */
      919       13        /*D* INPUT: L2$ - pointer to the context to be released  */
      920       14        /*D* OUTPUT: none                    */
      921       15
      922       16        KXS$RLSCNTX: PROC ( L2$ );

     16   1 000000  D380 0000 0000  xent KXS$RLSCNTX     LNJ,B5   X6A_AUTO_1
          1 000003       001C 0001                       DC       28,1

      923       17
      924       18        /*****************************************************************
      925       19        *                                                                *
      926       20        *                           Include files                        *
      927       21        *                                                                *
      928       22        *****************************************************************/
      929       23
      930       24        %INCLUDE K_ID_E;
      931       74        %K#ENTID_E;
      932       93        %K#LYRID_E;
      933      100        %INCLUDE KL_MACRO_C;
      934     3452        %INCLUDE KL_AFCN_C;
      935     3553        %INCLUDE LCP_6;
      936     7832        %INCLUDE CP_6_SUBS;
      937     8372        %INCLUDE KH$CHN;
      938     8494        %INCLUDE KHA_FNC_E;
PL6.E3A0      #006=KXS$RLSCNTX File=KXS$SUBS.:E05TSI                             WED 07/30/97 02:28 Page:195
      939     8594        %INCLUDE KX_SCODE_C;
      940     8660        %INCLUDE KL_SUPER_C;
      941    11562        %INCLUDE KX_EQUS_E;
      942    12001        %INCLUDE KX_PERR_C;
      943    12130        %INCLUDE KX_DATA_C;
      944    12198        %INCLUDE KX_MACROS_M;
      945    12969        %INCLUDE KV_GLBCNS_E;
      946    13310        %INCLUDE K_ADDRESS_M;
      947    13813        %INCLUDE KNH_MACRO_C;
      948    14096        %KV#CQ_HNDID_E;
      949    14101        %EJECT;
PL6.E3A0      #006=KXS$RLSCNTX File=KXS$SUBS.:E05TSI                             WED 07/30/97 02:28 Page:196
      950    14102        /*****************************************************************
      951    14103        *                                                                *
      952    14104        *                           External References                  *
      953    14105        *                                                                *
      954    14106        *****************************************************************/
      955    14107
      956    14108    1   DCL KHA$DVCADM ENTRY (6) ALTRET;
      957    14109    1   DCL KVB$RLS ENTRY(2) ALTRET;
      958    14110    1   DCL KVB$RLSSYS ENTRY (2) ALTRET;
      959    14111    1   DCL KXS$RLSBFR ENTRY (1);
      960    14112    1   DCL KXX$X29 ENTRY (1);
      961    14113    1   DCL KHD$SCREECH ENTRY (1);
      962    14114    1   DCL KHA$ERRLOG ENTRY (2) ALTRET;
      963    14115        %EJECT;
PL6.E3A0      #006=KXS$RLSCNTX File=KXS$SUBS.:E05TSI                             WED 07/30/97 02:28 Page:197
      964    14116        /*****************************************************************
      965    14117        *                                                                *
      966    14118        *                           Auto                                 *
      967    14119        *                                                                *
      968    14120        *****************************************************************/
      969    14121
      970    14122    1   DCL L2$ PTR;
      971    14123
      972    14124    1   DCL CTX$ PTR;
      973    14125    1   DCL DAT$ PTR;
      974    14126    1   DCL NXTDAT$ PTR;
      975    14127    1   DCL DVC$ PTR;
      976    14128    1   DCL BFRSIZ UBIN;
      977    14129
      978    14130
      979    14131
      980    14132
      981    14133        /*****************************************************************
      982    14134        *                                                                *
      983    14135        *                           Based                                *
      984    14136        *                                                                *
      985    14137        *****************************************************************/
      986    14138
      987    14139        %KH$CHN ( STCLASS = BASED );
      988    14263        %KX$L1 ( STCLASS = "BASED ( CTX$ )" );
      989    14303        %KX$L1 ( FPTN = KX$TL1, STCLASS = BASED );
      990    14343        %KX$L2 ( STCLASS = "BASED ( CTX$ )" );
      991    14710        %KX$L2 (FPTN = KX$L2S, STCLASS = "BASED ( CTX$ )", SLCC = YES );
      992    15107        %KX$LINKDEV ( STCLASS = "BASED(DVC$)" );
      993    15134        %KX$DATA ( STCLASS = "BASED ( DAT$ )" );
      994    15154        %KX$DATA ( FPTN = KX$TDATA, STCLASS = BASED );
      995    15174        %KX$TMRBLK ( FPTN=KX$BTMRBLK, STCLASS=BASED );
      996    15206        %EJECT;
PL6.E3A0      #006=KXS$RLSCNTX File=KXS$SUBS.:E05TSI                             WED 07/30/97 02:28 Page:198
      997    15207        /*****************************************************************
      998    15208        *                                                                *
      999    15209        *                           Static                               *
     1000    15210        *                                                                *
     1001    15211        *****************************************************************/
     1002    15212
     1003    15213        %KX_DATA;
     1004    15903        %EJECT;
PL6.E3A0      #006=KXS$RLSCNTX File=KXS$SUBS.:E05TSI                             WED 07/30/97 02:28 Page:199
     1005    15904        /*****************************************************************
     1006    15905        *                                                                *
     1007    15906        *                           Constant                             *
     1008    15907        *                                                                *
     1009    15908        *****************************************************************/
     1010    15909
     1011    15910        %VLP_SCODE (FPTN=Y_NO_RLS,STCLASS=CONSTANT,FCG=KX,MID=S,ERR#=%S$KX_NO_RLS#);
     1012    15971        %VLP_SCODE (FPTN=Y_KHAALTRET,STCLASS=CONSTANT,FCG=KX,MID=S,ERR#=%S$KX_KHAALTRET#);
     1013    16032        %VLP_SCODE (FPTN=Y_BADL2LIST,STCLASS=CONSTANT,FCG=KX,MID=S,ERR#=%S$KX_BADL2LIST#);
     1014    16093        %EJECT;
PL6.E3A0      #006=KXS$RLSCNTX File=KXS$SUBS.:E05TSI                             WED 07/30/97 02:28 Page:200
     1015    16094        /*****************************************************************
     1016    16095        *                                                                *
     1017    16096        *                           Procedure                            *
     1018    16097        *                                                                *
     1019    16098        *****************************************************************/
     1020    16099
     1021    16100        /*
     1022    16101                                             Delink this context from the
     1023    16102                                             others.
     1024    16103        */
     1025    16104    1       CTX$ = KX_CNTX.HD$;

  16104   1 000005  EC80 0000 0000  xsym                 LDB,B6   KX_CNTX
          1 000008  EFC7 0006                            STB,B6   CTX$,AUTO

     1026    16105    1       IF L2$ = CTX$

  16105   1 00000A  DCC7 0004                            LDB,B5   @L2$,AUTO
          1 00000C  CC85                                 LDB,B4   ,B5
          1 00000D  CDC7 0006                            CMB,B4   CTX$,AUTO
          1 00000F  0981 000D                            BNE      s:16115,PREL

     1027    16106    1          THEN
     1028    16107    2             DO;

     1029    16108    2                KX_CNTX.HD$ = KX$L1.NEXT$;

  16108   1 000011  BC86                                 LDB,B3   ,B6
          1 000012  BF80 0000 0000  xsym                 STB,B3   KX_CNTX

     1030    16109    2                IF KX$L1.NEXT$ = ADDR(NIL)

  16109   1 000015  8D86                                 CMN      ,B6
          1 000016  0981 0034                            BNE      s:16137,PREL

     1031    16110    2                   THEN
     1032    16111    2                      KX_CNTX.TL$ = KX_CNTX.HD$;
PL6.E3A0      #006=KXS$RLSCNTX File=KXS$SUBS.:E05TSI                             WED 07/30/97 02:28 Page:201

  16111   1 000018  BF80 0000 0002  xsym                 STB,B3   KX_CNTX+2

     1033    16112    2             END;

  16112   1 00001B  0F81 002F                            B        s:16137,PREL

     1034    16113    1          ELSE
     1035    16114    2             DO;

     1036    16115    3                DO WHILE CTX$ ~= ADDR(NIL);

  16115   1 00001D  0F81 000B                            B        s:16118,PREL

     1037    16116    3                   IF KX$L1.NEXT$ = L2$ THEN EXIT;

  16116   1 00001F  ECC7 0006                            LDB,B6   CTX$,AUTO
          1 000021  DC86                                 LDB,B5   ,B6
          1 000022  CCC7 0004                            LDB,B4   @L2$,AUTO
          1 000024  DD84                                 CMB,B5   ,B4
          1 000025  0901 0006                            BE       s:16119,PREL

     1038    16117    3                   CTX$ = KX$L1.NEXT$;

  16117   1 000027  DFC7 0006                            STB,B5   CTX$,AUTO

     1039    16118    3                END;

  16118   1 000029  8DC7 0006                            CMN      CTX$,AUTO
          1 00002B  09F4                                 BNE      s:16116,SPREL

     1040    16119    2                IF CTX$ = ADDR(NIL)

  16119   1 00002C  8DC7 0006                            CMN      CTX$,AUTO
          1 00002E  0981 000A                            BNE      s:16127,PREL

     1041    16120    2                   THEN
PL6.E3A0      #006=KXS$RLSCNTX File=KXS$SUBS.:E05TSI                             WED 07/30/97 02:28 Page:202
     1042    16121    3                      DO;

     1043    16122        /*S* SCREECH_CODE: KXS-S$KX_BADL2LIST#
     1044    16123             MESSAGE: The chain of L2 contexts was corrupted.
     1045    16124        */
     1046    16125    3                         CALL KHD$SCREECH ( Y_BADL2LIST );

  16125   1 000030  BB80 0000 0000  02                   LAB,B3   0
          1 000033  CBF0 0100                            LAB,B4   256,IMO
          1 000035  E380 0000 0000  xent                 LNJ,B6   KHD$SCREECH
          1 000038       0001                            DC       s:16127,PREL

     1047    16126    3                      END;

     1048    16127    2                KX$L1.NEXT$ = KX$L1.NEXT$->KX$TL1.NEXT$;

  16127   1 000039  ECC7 0006                            LDB,B6   CTX$,AUTO
          1 00003B  DC86                                 LDB,B5   ,B6
          1 00003C  CC85                                 LDB,B4   ,B5
          1 00003D  CF86                                 STB,B4   ,B6

     1049    16128    2                IF KX$L1.NEXT$ = ADDR(NIL)

  16128   1 00003E  ECC7 0006                            LDB,B6   CTX$,AUTO
          1 000040  8D86                                 CMN      ,B6
          1 000041  0981 0004                            BNE      s:16131,PREL

     1050    16129    2                   THEN
     1051    16130    2                      KX_CNTX.TL$ = CTX$;

  16130   1 000043  EF80 0000 0002  xsym                 STB,B6   KX_CNTX+2

     1052    16131    2                CTX$ = L2$;

  16131   1 000046  DCC7 0004                            LDB,B5   @L2$,AUTO
          1 000048  CC85                                 LDB,B4   ,B5
          1 000049  CFC7 0006                            STB,B4   CTX$,AUTO
PL6.E3A0      #006=KXS$RLSCNTX File=KXS$SUBS.:E05TSI                             WED 07/30/97 02:28 Page:203

     1053    16132    2             END;

     1054    16133        /*
     1055    16134                                             Clear the context pointer from
     1056    16135                                             the channel table.
     1057    16136        */
     1058    16137    1       KX$L1.CHN$ -> KH$CHN.CTX$ = ADDR(NIL);

  16137   1 00004B  ECC7 0006                            LDB,B6   CTX$,AUTO
          1 00004D  CCC6 0002                            LDB,B4   2,B6
          1 00004F  BB80 0000 0000                       LAB,B3   0
          1 000052  BFC4 000C                            STB,B3   12,B4

     1059    16138        /*
     1060    16139           Clear the L2$ in link devices. If the link device has logged on, it
     1061    16140           will be released when disconnect thru VDH is done. Otherwise, it should
     1062    16141           be released here.
     1063    16142        */
     1064    16143    2       DO WHILE ( KX$L2.DVC_HEAD$ ~= ADDR(NIL) );

  16143   1 000054  0F81 002F                            B        s:16153,PREL

     1065    16144    2          DVC$ = KX$L2.DVC_HEAD$;

  16144   1 000056  ECC7 0006                            LDB,B6   CTX$,AUTO
          1 000058  DCC6 0068                            LDB,B5   104,B6
          1 00005A  DFC7 000C                            STB,B5   DVC$,AUTO

     1066    16145    2          KX$L2.DVC_HEAD$ = KX$LINKDEV.FLNK$;

  16145   1 00005C  CCC5 0006                            LDB,B4   6,B5
          1 00005E  CFC6 0068                            STB,B4   104,B6

     1067    16146    2          KX$LINKDEV.L2$ = ADDR(NIL);

  16146   1 000060  BB80 0000 0000                       LAB,B3   0
PL6.E3A0      #006=KXS$RLSCNTX File=KXS$SUBS.:E05TSI                             WED 07/30/97 02:28 Page:204
          1 000063  BFC5 000A                            STB,B3   10,B5

     1068    16147    2          KX$LINKDEV.CHN$->KH$CHN.CTX$ = ADDR(NIL);

  16147   1 000065  DCC7 000C                            LDB,B5   DVC$,AUTO
          1 000067  CCC5 0004                            LDB,B4   4,B5
          1 000069  BB80 0000 0000                       LAB,B3   0
          1 00006C  BFC4 000C                            STB,B3   12,B4

     1069    16148    2          IF KX$LINKDEV.VDI$ = ADDR(NIL)

  16148   1 00006E  DCC7 000C                            LDB,B5   DVC$,AUTO
          1 000070  8DC5 0002                            CMN      2,B5
          1 000072  0981 0011                            BNE      s:16153,PREL

     1070    16149    2             THEN
     1071    16150    3                DO;

     1072    16151    3                   CALL KVB$RLSSYS ( SIZEW(KX$LINKDEV), DVC$ );

  16151   1 000074  CBF0 0018                            LAB,B4   24,IMO
          1 000076  BBC7 000C                            LAB,B3   DVC$,AUTO
          1 000078  BFC7 0012                            STB,B3   BFRSIZ+4,AUTO
          1 00007A  CFC7 0010                            STB,B4   BFRSIZ+2,AUTO
          1 00007C  BBC7 0010                            LAB,B3   BFRSIZ+2,AUTO
          1 00007E  CBF0 0200                            LAB,B4   512,IMO
          1 000080  E380 0000 0000  xent                 LNJ,B6   KVB$RLSSYS
          1 000083       0001                            DC       s:16153,PREL

     1073    16152    3                END;

     1074    16153    2       END;

  16153   1 000084  ECC7 0006                            LDB,B6   CTX$,AUTO
          1 000086  8DC6 0068                            CMN      104,B6
          1 000088  09CE                                 BNE      s:16144,SPREL

PL6.E3A0      #006=KXS$RLSCNTX File=KXS$SUBS.:E05TSI                             WED 07/30/97 02:28 Page:205
     1075    16154        /*
     1076    16155                                             Release any CCB input buffers.
     1077    16156        */
     1078    16157    1       DAT$ = KX$L1.IN_CCB_HEAD$;

  16157   1 000089  DCC6 0006                            LDB,B5   6,B6
          1 00008B  DFC7 0008                            STB,B5   DAT$,AUTO

     1079    16158    2       DO WHILE ( DAT$ ~= ADDR(NIL));

  16158   1 00008D  0F81 001A                            B        s:16162,PREL

     1080    16159    2          KX$L1.IN_CCB_HEAD$ = KX$DATA.NEXT$;

  16159   1 00008F  ECC7 0008                            LDB,B6   DAT$,AUTO
          1 000091  DC86                                 LDB,B5   ,B6
          1 000092  CCC7 0006                            LDB,B4   CTX$,AUTO
          1 000094  DFC4 0006                            STB,B5   6,B4

     1081    16160    2          CALL KXS$RLSBFR ( DAT$ );

  16160   1 000096  EBC7 0008                            LAB,B6   DAT$,AUTO
          1 000098  EFC7 0010                            STB,B6   BFRSIZ+2,AUTO
          1 00009A  BBC7 0010                            LAB,B3   BFRSIZ+2,AUTO
          1 00009C  CBF0 0100                            LAB,B4   256,IMO
          1 00009E  E380 0000 0000  xent                 LNJ,B6   KXS$RLSBFR
          1 0000A1       0001                            DC       s:16161,PREL

     1082    16161    2          DAT$ = KX$L1.IN_CCB_HEAD$;

  16161   1 0000A2  ECC7 0006                            LDB,B6   CTX$,AUTO
          1 0000A4  DCC6 0006                            LDB,B5   6,B6
          1 0000A6  DFC7 0008                            STB,B5   DAT$,AUTO

     1083    16162    2       END;

  16162   1 0000A8  8DC7 0008                            CMN      DAT$,AUTO
PL6.E3A0      #006=KXS$RLSCNTX File=KXS$SUBS.:E05TSI                             WED 07/30/97 02:28 Page:206
          1 0000AA  09E5                                 BNE      s:16159,SPREL

     1084    16163        /*
     1085    16164                                             Release any CCB output buffers.
     1086    16165        */
     1087    16166    1       DAT$ = KX$L1.OUT_CCB_HEAD$;

  16166   1 0000AB  CCC6 000A                            LDB,B4   10,B6
          1 0000AD  CFC7 0008                            STB,B4   DAT$,AUTO

     1088    16167    2       DO WHILE ( DAT$ ~= ADDR(NIL));

  16167   1 0000AF  0F81 001A                            B        s:16171,PREL

     1089    16168    2          KX$L1.OUT_CCB_HEAD$ = KX$DATA.NEXT$;

  16168   1 0000B1  ECC7 0008                            LDB,B6   DAT$,AUTO
          1 0000B3  DC86                                 LDB,B5   ,B6
          1 0000B4  CCC7 0006                            LDB,B4   CTX$,AUTO
          1 0000B6  DFC4 000A                            STB,B5   10,B4

     1090    16169    2          CALL KXS$RLSBFR ( DAT$ );

  16169   1 0000B8  BBC7 0008                            LAB,B3   DAT$,AUTO
          1 0000BA  BFC7 0010                            STB,B3   BFRSIZ+2,AUTO
          1 0000BC  BBC7 0010                            LAB,B3   BFRSIZ+2,AUTO
          1 0000BE  CBF0 0100                            LAB,B4   256,IMO
          1 0000C0  E380 0000 0000  xent                 LNJ,B6   KXS$RLSBFR
          1 0000C3       0001                            DC       s:16170,PREL

     1091    16170    2          DAT$ = KX$L1.OUT_CCB_HEAD$;

  16170   1 0000C4  ECC7 0006                            LDB,B6   CTX$,AUTO
          1 0000C6  DCC6 000A                            LDB,B5   10,B6
          1 0000C8  DFC7 0008                            STB,B5   DAT$,AUTO

     1092    16171    2       END;
PL6.E3A0      #006=KXS$RLSCNTX File=KXS$SUBS.:E05TSI                             WED 07/30/97 02:28 Page:207

  16171   1 0000CA  8DC7 0008                            CMN      DAT$,AUTO
          1 0000CC  09E5                                 BNE      s:16168,SPREL

     1093    16172        /*
     1094    16173                                             Release any buffers on the
     1095    16174                                             output queue.
     1096    16175        */
     1097    16176    1       DAT$ = KX$L1.OUT_Q_HEAD$;

  16176   1 0000CD  DCC6 000E                            LDB,B5   14,B6
          1 0000CF  DFC7 0008                            STB,B5   DAT$,AUTO

     1098    16177    2       DO WHILE ( DAT$ ~= ADDR(NIL));

  16177   1 0000D1  0F81 001A                            B        s:16181,PREL

     1099    16178    2          KX$L1.OUT_Q_HEAD$ = KX$DATA.NEXT$;

  16178   1 0000D3  ECC7 0008                            LDB,B6   DAT$,AUTO
          1 0000D5  DC86                                 LDB,B5   ,B6
          1 0000D6  CCC7 0006                            LDB,B4   CTX$,AUTO
          1 0000D8  DFC4 000E                            STB,B5   14,B4

     1100    16179    2          CALL KXS$RLSBFR ( DAT$ );

  16179   1 0000DA  BBC7 0008                            LAB,B3   DAT$,AUTO
          1 0000DC  BFC7 0010                            STB,B3   BFRSIZ+2,AUTO
          1 0000DE  BBC7 0010                            LAB,B3   BFRSIZ+2,AUTO
          1 0000E0  CBF0 0100                            LAB,B4   256,IMO
          1 0000E2  E380 0000 0000  xent                 LNJ,B6   KXS$RLSBFR
          1 0000E5       0001                            DC       s:16180,PREL

     1101    16180    2          DAT$ = KX$L1.OUT_Q_HEAD$;

  16180   1 0000E6  ECC7 0006                            LDB,B6   CTX$,AUTO
          1 0000E8  DCC6 000E                            LDB,B5   14,B6
PL6.E3A0      #006=KXS$RLSCNTX File=KXS$SUBS.:E05TSI                             WED 07/30/97 02:28 Page:208
          1 0000EA  DFC7 0008                            STB,B5   DAT$,AUTO

     1102    16181    2       END;

  16181   1 0000EC  8DC7 0008                            CMN      DAT$,AUTO
          1 0000EE  09E5                                 BNE      s:16178,SPREL

     1103    16182        /*
     1104    16183                                             Release any buffers on the
     1105    16184                                             supervisory queue.
     1106    16185        */
     1107    16186    1       DAT$ = KX$L1.SUPV_Q_HEAD$;

  16186   1 0000EF  CCC6 0012                            LDB,B4   18,B6
          1 0000F1  CFC7 0008                            STB,B4   DAT$,AUTO

     1108    16187    2       DO WHILE ( DAT$ ~= ADDR(NIL));

  16187   1 0000F3  0F81 001A                            B        s:16191,PREL

     1109    16188    2          KX$L1.SUPV_Q_HEAD$ = KX$DATA.NEXT$;

  16188   1 0000F5  ECC7 0008                            LDB,B6   DAT$,AUTO
          1 0000F7  DC86                                 LDB,B5   ,B6
          1 0000F8  CCC7 0006                            LDB,B4   CTX$,AUTO
          1 0000FA  DFC4 0012                            STB,B5   18,B4

     1110    16189    2          CALL KXS$RLSBFR ( DAT$ );

  16189   1 0000FC  BBC7 0008                            LAB,B3   DAT$,AUTO
          1 0000FE  BFC7 0010                            STB,B3   BFRSIZ+2,AUTO
          1 000100  BBC7 0010                            LAB,B3   BFRSIZ+2,AUTO
          1 000102  CBF0 0100                            LAB,B4   256,IMO
          1 000104  E380 0000 0000  xent                 LNJ,B6   KXS$RLSBFR
          1 000107       0001                            DC       s:16190,PREL

     1111    16190    2          DAT$ = KX$L1.SUPV_Q_HEAD$;
PL6.E3A0      #006=KXS$RLSCNTX File=KXS$SUBS.:E05TSI                             WED 07/30/97 02:28 Page:209

  16190   1 000108  ECC7 0006                            LDB,B6   CTX$,AUTO
          1 00010A  DCC6 0012                            LDB,B5   18,B6
          1 00010C  DFC7 0008                            STB,B5   DAT$,AUTO

     1112    16191    2       END;

  16191   1 00010E  8DC7 0008                            CMN      DAT$,AUTO
          1 000110  09E5                                 BNE      s:16188,SPREL

     1113    16192        /*
     1114    16193                                             Set the CCB counts in the channel
     1115    16194                                             table to 0.
     1116    16195        */
     1117    16196    1       KX$L1.CHN$ -> KH$CHN.INPCCBCNT = 0;

  16196   1 000111  DCC6 0002                            LDB,B5   2,B6
          1 000113  8845 0007                            LBF,'0F00'X       7,B5
          1 000115       0F00

     1118    16197    1       KX$L1.CHN$ -> KH$CHN.OTPCCBCNT = 0;

  16197   1 000116  ECC7 0006                            LDB,B6   CTX$,AUTO
          1 000118  DCC6 0002                            LDB,B5   2,B6
          1 00011A  8845 0007                            LBF,'000F'X       7,B5
          1 00011C       000F

     1119    16198        /*
     1120    16199           Stop all timers just to be sure.
     1121    16200        */
     1122    16201            %STOP_TIMER ( FPTN = KX$L2.TMRBLK );

  16206   1 00011D  ECC7 0006                            LDB,B6   CTX$,AUTO
          1 00011F  89C6 0047                            CMZ      71,B6
          1 000121  0881 0027                            BAGE     s:16215,PREL

  16206   1 000123  8846 0047                            LBF,'8000'X       71,B6
PL6.E3A0      #006=KXS$RLSCNTX File=KXS$SUBS.:E05TSI                             WED 07/30/97 02:28 Page:210
  16206   1 000125       8000

  16206   1 000126  8DC6 003E                            CMN      62,B6
          1 000128  0981 0008                            BNE      s:16206+20,PREL

  16206   1 00012A  DCC6 0040                            LDB,B5   64,B6
          1 00012C  DF80 0000 0002  xsym                 STB,B5   KX_TMRBLK+2
          1 00012F  0F81 0007                            B        s:16207,PREL

  16206   1 000131  DCC6 003E                            LDB,B5   62,B6
          1 000133  CCC6 0040                            LDB,B4   64,B6
          1 000135  CFC5 0002                            STB,B4   2,B5

  16207   1 000137  ECC7 0006                            LDB,B6   CTX$,AUTO
          1 000139  8DC6 0040                            CMN      64,B6
          1 00013B  0981 0008                            BNE      s:16207+13,PREL

  16207   1 00013D  DCC6 003E                            LDB,B5   62,B6
          1 00013F  DF80 0000 0000  xsym                 STB,B5   KX_TMRBLK
          1 000142  0F81 0006                            B        s:16215,PREL

  16207   1 000144  DCC6 0040                            LDB,B5   64,B6
          1 000146  CCC6 003E                            LDB,B4   62,B6
          1 000148  CF85                                 STB,B4   ,B5

     1123    16210            %STOP_TIMER ( FPTN = KX$L2.T20TMR );

  16215   1 000149  ECC7 0006                            LDB,B6   CTX$,AUTO
          1 00014B  89C6 0051                            CMZ      81,B6
          1 00014D  0881 0027                            BAGE     s:16222,PREL

  16215   1 00014F  8846 0051                            LBF,'8000'X       81,B6
  16215   1 000151       8000

  16215   1 000152  8DC6 0048                            CMN      72,B6
          1 000154  0981 0008                            BNE      s:16215+20,PREL

PL6.E3A0      #006=KXS$RLSCNTX File=KXS$SUBS.:E05TSI                             WED 07/30/97 02:28 Page:211
  16215   1 000156  DCC6 004A                            LDB,B5   74,B6
          1 000158  DF80 0000 0002  xsym                 STB,B5   KX_TMRBLK+2
          1 00015B  0F81 0007                            B        s:16216,PREL

  16215   1 00015D  DCC6 0048                            LDB,B5   72,B6
          1 00015F  CCC6 004A                            LDB,B4   74,B6
          1 000161  CFC5 0002                            STB,B4   2,B5

  16216   1 000163  ECC7 0006                            LDB,B6   CTX$,AUTO
          1 000165  8DC6 004A                            CMN      74,B6
          1 000167  0981 0008                            BNE      s:16216+13,PREL

  16216   1 000169  DCC6 0048                            LDB,B5   72,B6
          1 00016B  DF80 0000 0000  xsym                 STB,B5   KX_TMRBLK
          1 00016E  0F81 0006                            B        s:16222,PREL

  16216   1 000170  DCC6 004A                            LDB,B5   74,B6
          1 000172  CCC6 0048                            LDB,B4   72,B6
          1 000174  CF85                                 STB,B4   ,B5

     1124    16219        /*
     1125    16220                                             Report DSC to handler common.
     1126    16221        */
     1127    16222    1       CALL KHA$DVCADM ( %KHA_FNC_DISCONNECT_EVT,

  16222   1 000175  ECC7 0006                            LDB,B6   CTX$,AUTO
          1 000177  DCC6 0002                            LDB,B5   2,B6
          1 000179  CBF0 000C                            LAB,B4   12,IMO
          1 00017B  BBF0 0001                            LAB,B3   1,IMO
          1 00017D  BFC7 001A                            STB,B3   BFRSIZ+12,AUTO
          1 00017F  AB80 0000 0002  02                   LAB,B2   +2
          1 000182  AFC7 0018                            STB,B2   BFRSIZ+10,AUTO
          1 000184  9BC5 0012                            LAB,B1   18,B5
          1 000186  9FC7 0016                            STB,B1   BFRSIZ+8,AUTO
          1 000188  EBC5 0012                            LAB,B6   18,B5
          1 00018A  EFC7 0014                            STB,B6   BFRSIZ+6,AUTO
          1 00018C  DBC7 000E                            LAB,B5   BFRSIZ,AUTO
PL6.E3A0      #006=KXS$RLSCNTX File=KXS$SUBS.:E05TSI                             WED 07/30/97 02:28 Page:212
          1 00018E  DFC7 0012                            STB,B5   BFRSIZ+4,AUTO
          1 000190  CFC7 0010                            STB,B4   BFRSIZ+2,AUTO
          1 000192  BBC7 0010                            LAB,B3   BFRSIZ+2,AUTO
          1 000194  CBF0 0600                            LAB,B4   1536,IMO
          1 000196  E380 0000 0000  xent                 LNJ,B6   KHA$DVCADM
          1 000199       0001                            DC       s:16230,PREL

     1128    16223    1          BFRSIZ,
     1129    16224    1          KX$L1.CHN$ -> KH$CHN.TERMID,
     1130    16225    1          KX$L1.CHN$ -> KH$CHN.TERMID,
     1131    16226    1          VECTOR(NIL), 1);
     1132    16227        /*
     1133    16228           Update available MEM and IOMEM according to formula
     1134    16229        */
     1135    16230    1       KX_AVL_MEM = KX_AVL_MEM + 400;

  16230   1 00019A  8C80 0000 0000  xsym                 LDI      KX_AVL_MEM
          1 00019D  8470 0000 0190                       AID      400,IMO
          1 0001A0  8D00 0000 0000  xsym                 SDI      KX_AVL_MEM

     1136    16231    1       KX_AVL_IOMEM = KX_AVL_IOMEM +

  16231   1 0001A3  ECC7 0006                            LDB,B6   CTX$,AUTO
          1 0001A5  D846 002F                            LDR,R5   47,B6
          1 0001A7  5048                                 SOR,R5   8
          1 0001A8  D570 001F                            AND,R5   31,IMO
          1 0001AA  C2C6 0016                            LLH,R4   22,B6
          1 0001AC  DA54                                 ADD,R5   R4
          1 0001AD  B2C6 0004                            LLH,R3   4,B6
          1 0001AF  F855                                 LDR,R7   R5
          1 0001B0  FB30 0000 001E  xsym                 MUL,R7   KX_BUF+30,R3
          1 0001B3  6C00                                 LDV,R6   0
          1 0001B4  8400 0000 0000  xsym                 AID      KX_AVL_IOMEM
          1 0001B7  8D00 0000 0000  xsym                 SDI      KX_AVL_IOMEM

     1137    16232    1          (KX$L2.MAXCCB + KX$L2.K) * KX_BUF.SIZ(KX$L2.BUF_SIZE);
     1138    16233        /*
PL6.E3A0      #006=KXS$RLSCNTX File=KXS$SUBS.:E05TSI                             WED 07/30/97 02:28 Page:213
     1139    16234                                             Release the context block.
     1140    16235        */
     1141    16236    2       IF NOT KX$L1.CHN$ -> KH$CHN.ATTR&%G_ATTR_CL_SLCC THEN DO;

  16236   1 0001BA  DCC6 0002                            LDB,B5   2,B6
          1 0001BC  D845 0005                            LDR,R5   5,B5
          1 0001BE  D570 0200                            AND,R5   512,IMO
          1 0001C0  5981 0022                            BNEZ,R5  s:16246,PREL

     1142    16237    2                BFRSIZ = SIZEW(KX$L2);

  16237   1 0001C2  D870 0138                            LDR,R5   312,IMO
          1 0001C4  DF47 000E                            STR,R5   BFRSIZ,AUTO

     1143    16238    2                CALL KVB$RLSSYS ( BFRSIZ, CTX$ )

  16238   1 0001C6  DBC7 0006                            LAB,B5   CTX$,AUTO
          1 0001C8  DFC7 0012                            STB,B5   BFRSIZ+4,AUTO
          1 0001CA  CBC7 000E                            LAB,B4   BFRSIZ,AUTO
          1 0001CC  CFC7 0010                            STB,B4   BFRSIZ+2,AUTO
          1 0001CE  BBC7 0010                            LAB,B3   BFRSIZ+2,AUTO
          1 0001D0  CBF0 0200                            LAB,B4   512,IMO
          1 0001D2  E380 0000 0000  xent                 LNJ,B6   KVB$RLSSYS
          1 0001D5       0003                            DC       s:16241,PREL
          1 0001D6  0F81 000A                            B        s:16244,PREL

     1144    16239    2                   WHENALTRETURN
     1145    16240    3                      DO;

     1146    16241    3                         CALL KHD$SCREECH ( Y_NO_RLS );

  16241   1 0001D8  BB80 0000 0005  02                   LAB,B3   +5
          1 0001DB  CBF0 0100                            LAB,B4   256,IMO
          1 0001DD  E380 0000 0000  xent                 LNJ,B6   KHD$SCREECH
          1 0001E0       0001                            DC       s:16244,PREL

     1147    16242    3                      END;
PL6.E3A0      #006=KXS$RLSCNTX File=KXS$SUBS.:E05TSI                             WED 07/30/97 02:28 Page:214

     1148    16243
     1149    16244    2             END;

  16244   1 0001E1  0F81 0011                            B        s:16247,PREL

     1150    16245    1          ELSE
     1151    16246    1             CALL KVB$RLS (KX$L2S.L2SIZ, KX$L2S.L2$);

  16246   1 0001E3  CBC6 006F                            LAB,B4   111,B6
          1 0001E5  CFC7 0012                            STB,B4   BFRSIZ+4,AUTO
          1 0001E7  DBC6 0071                            LAB,B5   113,B6
          1 0001E9  DFC7 0010                            STB,B5   BFRSIZ+2,AUTO
          1 0001EB  BBC7 0010                            LAB,B3   BFRSIZ+2,AUTO
          1 0001ED  CBF0 0200                            LAB,B4   512,IMO
          1 0001EF  E380 0000 0000  xent                 LNJ,B6   KVB$RLS
          1 0001F2       0001                            DC       s:16247,PREL

     1152    16247    1       RETURN;

  16247   1 0001F3  C380 0000 0000  xent                 LNJ,B4   X6A_ARET
     1153    16248
     1154    16249    1   END KXS$RLSCNTX;
     1155    16250        %EOD;

PL6.E3A0      #006=KXS$RLSCNTX File=KXS$SUBS.:E05TSI                             WED 07/30/97 02:28 Page:215
--  Include file information  --

   KNH_MACRO_C.:E05TOU  is referenced.
   K_ADDRESS_M.:E05TOU  is referenced.
   KV_GLBCNS_E.:E05TOU  is referenced.
   KX_MACROS_M.:E05TOU  is referenced.
   KX_DATA_C.:E05TOU  is referenced.
   KX_PERR_C.:E05TOU  is referenced.
   KX_EQUS_E.:E05TOU  is referenced.
   KL_SUPER_C.:E05TOU  is referenced.
   KX_SCODE_C.:E05TOU  is referenced.
   KHA_FNC_E.:E05TOU  is referenced.
   KH$CHN.:E05TOU  is referenced.
   CP_6_SUBS.:E05TOU  is referenced.
   G_LCP6_E.:E05TOU  is referenced.
   GT_LCP6_M.:E05TOU  is referenced.
   KI_CP6.:E05TOU  is referenced.
   GF_LCP6_M.:E05TOU  is referenced.
   GM_LCP6_M.:E05TOU  is referenced.
   GU_LCP6_M.:E05TOU  is referenced.
   GJ_LCP6_M.:E05TOU  is referenced.
   GH_LCP6_M.:E05TOU  is referenced.
   LCP_6.:E05TOU  cannot be made into a system file and is referenced.
   KL_AFCN_C.:E05TOU  is referenced.
   KL_MACRO_C.:E05TOU  is referenced.
   K_ID_E.:E05TOU  is referenced.
      No diagnostics issued in procedure KXS$RLSCNTX.
PL6.E3A0      #006=KXS$RLSCNTX File=KXS$SUBS.:E05TSI                             WED 07/30/97 02:28 Page:216

 **** Variables and constants ****

  ****  Section 000 RoData KXS$RLSCNTX

  ****  Scalars and arrays  ****
HexLoc.c.b A Datatyp(siz) R M Lvl/name                 HexLoc.c.b A Datatyp(siz) R M Lvl/name

     6-0-0/w STRC(48)    r     1 Y_BADL2LIST                0-0-0/w STRC(48)    r     1 Y_NO_RLS

  ****  Auto variables  ****

  ****  Scalars and arrays  ****
HexLoc.c.b A Datatyp(siz) R M Lvl/name                 HexLoc.c.b A Datatyp(siz) R M Lvl/name

     4-0-0/w PTR         r     1 @L2$                       E-0-0/w UBIN(16)    r     1 BFRSIZ
     6-0-0/w PTR         r     1 CTX$                       8-0-0/w PTR         r     1 DAT$
     C-0-0/w PTR         r     1 DVC$                      *0-0-0/w PTR         r     1 L2$

  ****  SYMREF variables  ****

  ****  Scalars and arrays  ****
HexLoc.c.b A Datatyp(siz) R M Lvl/name                 HexLoc.c.b A Datatyp(siz) R M Lvl/name

     0-0-0/w SBIN(32)    r     1 KX_AVL_IOMEM               0-0-0/w SBIN(32)    r     1 KX_AVL_MEM
     0-0-0/w STRC(672)   r     1 KX_BUF                     0-0-0/w STRC(64)    r     1 KX_CNTX
     0-0-0/b EPTR        r     1 KX_PM$(0:2)                0-0-0/w STRC(64)    r     1 KX_TMRBLK

  ****  BASED and DCB variables  ****

  ****  Scalars and arrays  ****
HexLoc.c.b A Datatyp(siz) R M Lvl/name                 HexLoc.c.b A Datatyp(siz) R M Lvl/name

     0-0-0/w STRC(512)   r     1 KH$CHN                     0-0-0/w STRC(160)   r     1 KX$BTMRBLK
     0-0-0/w STRC(128)   r     1 KX$DATA                    0-0-0/w STRC(352)   r     1 KX$L1
     0-0-0/w STRC(4992)  r     1 KX$L2                      0-0-0/w STRC(2032)  r     1 KX$L2S
     0-0-0/w STRC(384)   r     1 KX$LINKDEV                 0-0-0/w STRC(352)   r     1 KX$TL1

PL6.E3A0      #006=KXS$RLSCNTX File=KXS$SUBS.:E05TSI                             WED 07/30/97 02:28 Page:217

   Procedure KXS$RLSCNTX requires 502 words for executable code.
   Procedure KXS$RLSCNTX requires 28 words of local(AUTO) storage.
PL6.E3A0      #006=KXS$RLSCNTX File=KXS$SUBS.:E05TSI                             WED 07/30/97 02:28 Page:218
          *** CROSS REFERENCE LISTING ***
**     DENOTES     IDENTIFIER DEFINITION
<<                 IDENTIFIER'S VALUE SET
>>                 IDENTIFIER'S VALUE USED
<>                 IDENTIFIER SET AND/OR USED
--                 IDENTIFIER REFERENCED
PL6.E3A0      #006=KXS$RLSCNTX File=KXS$SUBS.:E05TSI                             WED 07/30/97 02:28 Page:219
          MINI XREF LISTING

BFRSIZ
     14128**DCL     16222<>CALL    16237<<ASSIGN  16238<>CALL
CTX$
     14124**DCL     14276--IMP-PTR 14361--IMP-PTR 14728--IMP-PTR 16104<<ASSIGN  16105>>IF      16108>>ASSIGN
     16109>>IF      16115>>DOWHILE 16116>>IF      16117<<ASSIGN  16117>>ASSIGN  16119>>IF      16127>>ASSIGN
     16127>>ASSIGN  16128>>IF      16130>>ASSIGN  16131<<ASSIGN  16137>>ASSIGN  16143>>DOWHILE 16144>>ASSIGN
     16145>>ASSIGN  16157>>ASSIGN  16159>>ASSIGN  16161>>ASSIGN  16166>>ASSIGN  16168>>ASSIGN  16170>>ASSIGN
     16176>>ASSIGN  16178>>ASSIGN  16180>>ASSIGN  16186>>ASSIGN  16188>>ASSIGN  16190>>ASSIGN  16196>>ASSIGN
     16197>>ASSIGN  16206>>IF      16206>>ASSIGN  16206>>IF      16206>>ASSIGN  16206>>ASSIGN  16206>>ASSIGN
     16207>>IF      16207>>ASSIGN  16207>>ASSIGN  16207>>ASSIGN  16215>>IF      16215>>ASSIGN  16215>>IF
     16215>>ASSIGN  16215>>ASSIGN  16215>>ASSIGN  16216>>IF      16216>>ASSIGN  16216>>ASSIGN  16216>>ASSIGN
     16222>>CALL    16222>>CALL    16231>>ASSIGN  16231>>ASSIGN  16231>>ASSIGN  16236>>IF      16238<>CALL
     16246>>CALL    16246>>CALL
DAT$
     14125**DCL     15147--IMP-PTR 16157<<ASSIGN  16158>>DOWHILE 16159>>ASSIGN  16160<>CALL    16161<<ASSIGN
     16166<<ASSIGN  16167>>DOWHILE 16168>>ASSIGN  16169<>CALL    16170<<ASSIGN  16176<<ASSIGN  16177>>DOWHILE
     16178>>ASSIGN  16179<>CALL    16180<<ASSIGN  16186<<ASSIGN  16187>>DOWHILE 16188>>ASSIGN  16189<>CALL
     16190<<ASSIGN
DVC$
     14127**DCL     15125--IMP-PTR 16144<<ASSIGN  16145>>ASSIGN  16146>>ASSIGN  16147>>ASSIGN  16148>>IF
     16151<>CALL
KH$CHN.ATTR
     14187**DCL     16236>>IF
KH$CHN.CTX$
     14224**DCL     16137<<ASSIGN  16147<<ASSIGN
KH$CHN.INPCCBCNT
     14193**DCL     16196<<ASSIGN
KH$CHN.OTPCCBCNT
     14198**DCL     16197<<ASSIGN
KH$CHN.TERMID
     14248**DCL     16222<>CALL    16222<>CALL
KH$CHN.TERMID.TERM
PL6.E3A0      #006=KXS$RLSCNTX File=KXS$SUBS.:E05TSI                             WED 07/30/97 02:28 Page:220
     14250**DCL     14259--REDEF
KHA$DVCADM
     14108**DCL-ENT 16222--CALL
KHD$SCREECH
     14113**DCL-ENT 16125--CALL    16241--CALL
KVB$RLS
     14109**DCL-ENT 16246--CALL
KVB$RLSSYS
     14110**DCL-ENT 16151--CALL    16238--CALL
KX$BTMRBLK.BLNK$
     15201**DCL     16206<<ASSIGN  16215<<ASSIGN
KX$BTMRBLK.FLNK$
     15201**DCL     16207<<ASSIGN  16216<<ASSIGN
KX$DATA.NEXT$
     15149**DCL     16159>>ASSIGN  16168>>ASSIGN  16178>>ASSIGN  16188>>ASSIGN
KX$DATA.RLS_STAT
     15149**DCL     15150--REDEF
KX$L1.CHN$
     14295**DCL     16137>>ASSIGN  16196>>ASSIGN  16197>>ASSIGN  16222>>CALL    16222>>CALL    16236>>IF
KX$L1.IN_CCB_HEAD$
     14297**DCL     16157>>ASSIGN  16159<<ASSIGN  16161>>ASSIGN
KX$L1.NEXT$
     14295**DCL     16108>>ASSIGN  16109>>IF      16116>>IF      16117>>ASSIGN  16127<<ASSIGN  16127>>ASSIGN
     16128>>IF
KX$L1.OUT_CCB_HEAD$
     14297**DCL     16166>>ASSIGN  16168<<ASSIGN  16170>>ASSIGN
KX$L1.OUT_Q_HEAD$
     14298**DCL     16176>>ASSIGN  16178<<ASSIGN  16180>>ASSIGN
KX$L1.SUPV_Q_HEAD$
     14299**DCL     16186>>ASSIGN  16188<<ASSIGN  16190>>ASSIGN
KX$L2
     14361**DCL     16237--ASSIGN
KX$L2.BUF_SIZE
     14380**DCL     16231>>ASSIGN
KX$L2.DFLVCPRF.TRADEL
     14501**DCL     14511--REDEF
PL6.E3A0      #006=KXS$RLSCNTX File=KXS$SUBS.:E05TSI                             WED 07/30/97 02:28 Page:221
KX$L2.DSTSNPA.ADR_STRING
     14692**DCL     14692--REDEF
KX$L2.DVC_HEAD$
     14698**DCL     16143>>DOWHILE 16144>>ASSIGN  16145<<ASSIGN
KX$L2.FRMR_NSNR
     14478**DCL     14479--REDEF
KX$L2.K
     14387**DCL     16231>>ASSIGN
KX$L2.MAXCCB
     14409**DCL     16231>>ASSIGN
KX$L2.NTWADR.ADR_STRING
     14412**DCL     14412--REDEF
KX$L2.STATES
     14390**DCL     14390--REDEF
KX$L2.T20TMR.BLNK$
     14473**DCL     16215>>ASSIGN  16215>>ASSIGN  16216>>IF      16216>>ASSIGN
KX$L2.T20TMR.FLNK$
     14473**DCL     16215>>IF      16215>>ASSIGN  16216>>ASSIGN  16216>>ASSIGN
KX$L2.T20TMR.ON
     14475**DCL     16215>>IF      16215<<ASSIGN
KX$L2.TMRBLK.BLNK$
     14441**DCL     16206>>ASSIGN  16206>>ASSIGN  16207>>IF      16207>>ASSIGN
KX$L2.TMRBLK.FLNK$
     14441**DCL     16206>>IF      16206>>ASSIGN  16207>>ASSIGN  16207>>ASSIGN
KX$L2.TMRBLK.ON
     14443**DCL     16206>>IF      16206<<ASSIGN
KX$L2S.DFLVCPRF.TRADEL
     14898**DCL     14908--REDEF
KX$L2S.DSTSNPA.ADR_STRING
     15089**DCL     15089--REDEF
KX$L2S.FRMR_NSNR
     14875**DCL     14876--REDEF
KX$L2S.L2$
     15100**DCL     16246<>CALL
KX$L2S.L2SIZ
     15100**DCL     16246<>CALL
PL6.E3A0      #006=KXS$RLSCNTX File=KXS$SUBS.:E05TSI                             WED 07/30/97 02:28 Page:222
KX$L2S.NTWADR.ADR_STRING
     14809**DCL     14809--REDEF
KX$L2S.P_CCB.LNK$
     14789**DCL     14789--REDEF
KX$L2S.STATES
     14757**DCL     14757--REDEF
KX$LINKDEV
     15125**DCL     16151--CALL
KX$LINKDEV.CHN$
     15125**DCL     16147>>ASSIGN
KX$LINKDEV.FLNK$
     15126**DCL     16145>>ASSIGN
KX$LINKDEV.L2$
     15127**DCL     16146<<ASSIGN
KX$LINKDEV.VDI$
     15125**DCL     16148>>IF
KX$TDATA.RLS_STAT
     15169**DCL     15170--REDEF
KX$TL1.NEXT$
     14335**DCL     16127>>ASSIGN
KXS$RLSBFR
     14111**DCL-ENT 16160--CALL    16169--CALL    16179--CALL    16189--CALL
KX_AVL_IOMEM
     15898**DCL     16231<<ASSIGN  16231>>ASSIGN
KX_AVL_MEM
     15898**DCL     16230<<ASSIGN  16230>>ASSIGN
KX_BUF.SIZ
     15229**DCL     16231>>ASSIGN
KX_CNTX.HD$
     15226**DCL     16104>>ASSIGN  16108<<ASSIGN  16111>>ASSIGN
KX_CNTX.TL$
     15226**DCL     16111<<ASSIGN  16130<<ASSIGN
KX_STATS_HDLC.REQSTATS.DSPMSK
     15500**DCL     15506--REDEF
KX_STATS_HDLC.REQSTATS.SLCMSK
     15541**DCL     15548--REDEF
PL6.E3A0      #006=KXS$RLSCNTX File=KXS$SUBS.:E05TSI                             WED 07/30/97 02:28 Page:223
KX_STATS_X25.REQSTATS.DSPMSK
     15825**DCL     15831--REDEF
KX_STATS_X25.REQSTATS.SLCMSK
     15866**DCL     15873--REDEF
KX_TMRBLK.QHD$
     15231**DCL     16207<<ASSIGN  16216<<ASSIGN
KX_TMRBLK.QTL$
     15231**DCL     16206<<ASSIGN  16215<<ASSIGN
L2$
     14122**DCL        16--PROC    16105>>IF      16116>>IF      16131>>ASSIGN
Y_BADL2LIST
     16059**DCL     16125<>CALL
Y_NO_RLS
     15937**DCL     16241<>CALL

PL6.E3A0      #007=KXS$RLSL3_MAYBE File=KXS$SUBS.:E05TSI                         WED 07/30/97 02:29 Page:224
     1156        1        /*T***********************************************************/
     1157        2        /*T*                                                         */
     1158        3        /*T* Copyright (c) Bull HN Information Systems Inc., 1997    */
     1159        4        /*T*                                                         */
     1160        5        /*T***********************************************************/
     1161        6        /*F* NAME: KXS$RLSL3_MAYBE           */
     1162        7        /*F* PURPOSE: Conditionally release a level 3 context block  */
     1163        8
     1164        9        /*D* NAME: KXS$RLSL3_MAYBE           */
     1165       10        /*D* PURPOSE: Release a level 3 context block if there
     1166       11                      are no buffers on the queue still to be
     1167       12                      transmitted            */
     1168       13        /*D* CALL: CALL KXS$RLSL3_MAYBE ( L3$ );  */
     1169       14        /*D* INPUT: L3$ - pointer to the context to be released  */
     1170       15        /*D* OUTPUT: none                    */
     1171       16
     1172       17        KXS$RLSL3_MAYBE: PROC ( L3$ );
     1173       18
     1174       19        /*****************************************************************
     1175       20        *                                                                *
     1176       21        *                           Includes                             *
     1177       22        *                                                                *
     1178       23        *****************************************************************/
     1179       24
     1180       25        %INCLUDE K_ID_E;
     1181       75        %K#ENTID_E;
     1182       94        %K#LYRID_E;
     1183      101        %INCLUDE KL_MACRO_C;
     1184     3453        %INCLUDE KL_AFCN_C;
     1185     3554        %INCLUDE LCP_6;
     1186     7833        %INCLUDE CP_6_SUBS;
     1187     8373        %INCLUDE KH$CHN;
     1188     8495        %INCLUDE KL_SUPER_C;
     1189    11397        %INCLUDE KX_EQUS_E;
     1190    11836        %INCLUDE KX_PERR_C;
     1191    11965        %INCLUDE KX_SCODE_C;
     1192    12031        %INCLUDE KX_DATA_C;
PL6.E3A0      #007=KXS$RLSL3_MAYBE File=KXS$SUBS.:E05TSI                         WED 07/30/97 02:29 Page:225
     1193    12099        %INCLUDE KX_MACROS_M;
     1194    12870        %INCLUDE KV_GLBCNS_E;
     1195    13211        %INCLUDE K_ADDRESS_M;
     1196    13714        %INCLUDE KNH_MACRO_C;
     1197    13997        %KV#CQ_HNDID_E;
     1198    14002        %EJECT;
PL6.E3A0      #007=KXS$RLSL3_MAYBE File=KXS$SUBS.:E05TSI                         WED 07/30/97 02:29 Page:226
     1199    14003        /*****************************************************************
     1200    14004        *                                                                *
     1201    14005        *                           External References                  *
     1202    14006        *                                                                *
     1203    14007        *****************************************************************/
     1204    14008
     1205    14009    1   DCL KVB$RLSSYS ENTRY (2) ALTRET;
     1206    14010    1   DCL KXS$RLSBFR ENTRY (1);
     1207    14011    1   DCL KXX$X29 ENTRY (1);
     1208    14012    1   DCL KXC$CNCMNG ENTRY (1) ALTRET;
     1209    14013    1   DCL KHD$SCREECH ENTRY (1);
     1210    14014    1   DCL KHA$ERRLOG ENTRY (2) ALTRET;
     1211    14015
     1212    14016
     1213    14017        /*****************************************************************
     1214    14018        *                                                                *
     1215    14019        *                           Auto                                 *
     1216    14020        *                                                                *
     1217    14021        *****************************************************************/
     1218    14022
     1219    14023    1   DCL L3$ PTR;
     1220    14024    1   DCL DAT$ PTR;
     1221    14025    1   DCL PRVDAT$ PTR;
     1222    14026    1   DCL PTR$ PTR;
     1223    14027    1   DCL PRV_PTR$ PTR;
     1224    14028    1   DCL BFRSIZ UBIN;
     1225    14029    1   DCL L2$ PTR;
     1226    14030        %FPT_X25 ( FPTN = CALL_FPT, STCLASS = AUTO );
     1227    14074
     1228    14075        /*****************************************************************
     1229    14076        *                                                                *
     1230    14077        *                           Based                                *
     1231    14078        *                                                                *
     1232    14079        *****************************************************************/
     1233    14080
     1234    14081        %KH$CHN ( STCLASS = BASED );
     1235    14205        %KX$L2 ( STCLASS = "BASED ( L2$ )" );
PL6.E3A0      #007=KXS$RLSL3_MAYBE File=KXS$SUBS.:E05TSI                         WED 07/30/97 02:29 Page:227
     1236    14572        %KX$L3 ( STCLASS = "BASED ( L3$ )" );
     1237    14975        %KX$L3 ( FPTN = KX$TL3, STCLASS = BASED );
     1238    15378        %KX$DATA ( STCLASS = "BASED ( DAT$ )" );
     1239    15398        %KX$TMRBLK ( FPTN = KX$BTMRBLK, STCLASS = BASED );
     1240    15430        %EJECT;
PL6.E3A0      #007=KXS$RLSL3_MAYBE File=KXS$SUBS.:E05TSI                         WED 07/30/97 02:29 Page:228
     1241    15431        /*****************************************************************
     1242    15432        *                                                                *
     1243    15433        *                           Static                               *
     1244    15434        *                                                                *
     1245    15435        *****************************************************************/
     1246    15436
     1247    15437        %KX_DATA;
     1248    16127        %EJECT;
PL6.E3A0      #007=KXS$RLSL3_MAYBE File=KXS$SUBS.:E05TSI                         WED 07/30/97 02:29 Page:229
     1249    16128        /*****************************************************************
     1250    16129        *                                                                *
     1251    16130        *                           Constant                             *
     1252    16131        *                                                                *
     1253    16132        *****************************************************************/
     1254    16133
     1255    16134        %VLP_SCODE (FPTN=Y_BADL3LIST,STCLASS=CONSTANT,FCG=KX,MID=S,ERR#=%S$KX_BADL3LIST#);
     1256    16195        %EJECT;
PL6.E3A0      #007=KXS$RLSL3_MAYBE File=KXS$SUBS.:E05TSI                         WED 07/30/97 02:29 Page:230
     1257    16196        /*****************************************************************
     1258    16197        *                                                                *
     1259    16198        *                           Procedure                            *
     1260    16199        *                                                                *
     1261    16200        *****************************************************************/
     1262    16201
     1263    16202        /*
     1264    16203                                             If the transmit queue is not
     1265    16204                                             empty, mark this context as
     1266    16205                                             release pending and return.
     1267    16206        */
     1268    16207    1       IF KX$L3.CTL_Q_HEAD$ ~= ADDR(NIL) OR KX$L3.RTR$ ~= ADDR(NIL)
     1269    16208    1          THEN
     1270    16209    2             DO;
     1271    16210    2                KX$L3.MAYBE = '1'B;
     1272    16211    2                KX$L3.LCN# = 0;
     1273    16212    2                RETURN;
     1274    16213    2             END;
     1275    16214
     1276    16215        %EJECT;
PL6.E3A0      #007=KXS$RLSL3_MAYBE File=KXS$SUBS.:E05TSI                         WED 07/30/97 02:29 Page:231
     1277    16216        /*F* NAME: KXS$RLSL3                 */
     1278    16217        /*F* PURPOSE: Release a level 3 context block  */
     1279    16218
     1280    16219        /*D* NAME: KXS$RLSL3                 */
     1281    16220        /*D* PURPOSE: Release a level 3 context block  */
     1282    16221        /*D* CALL: CALL KXS$RLSL3 ( L3$ );   */
     1283    16222        /*D* INPUT: L3$ - pointer to the context to be released  */
     1284    16223        /*D* OUTPUT: none                    */
     1285    16224
     1286    16225    1   KXS$RLSL3: ENTRY ( L3$ );
     1287    16226
     1288    16227        %EJECT;
PL6.E3A0      #007=KXS$RLSL3_MAYBE File=KXS$SUBS.:E05TSI                         WED 07/30/97 02:29 Page:232
     1289    16228
     1290    16229        /*
     1291    16230                                             Release the channel table.
     1292    16231        */
     1293    16232    1       IF KX$L3.CHN$ ~= ADDR(NIL)
     1294    16233    1          THEN
     1295    16234    1             KX$L3.CHN$ -> KH$CHN.CTX$ = ADDR (NIL);
     1296    16235    1       IF KX$L3.RLSCHN
     1297    16236    1          THEN
     1298    16237    2             DO;
     1299    16238    2                CALL KVB$RLSSYS ( SIZEW ( KH$CHN ), KX$L3.CHN$ );
     1300    16239    2             END;
     1301    16240        /*
     1302    16241                                             Delink this context from the
     1303    16242                                             others.
     1304    16243        */
     1305    16244    1       L2$ = KX$L3.L2$;
     1306    16245    1       PTR$ = KX$L2.L3_HEAD$;
     1307    16246        /*
     1308    16247           scan from HEAD$ until we find L3$, the cntx we want to delink.
     1309    16248        */
     1310    16249    2       DO WHILE (PTR$ ~= L3$ AND PTR$ ~= ADDR(NIL));
     1311    16250    2          PRV_PTR$ = PTR$;
     1312    16251    2          PTR$ = PTR$ -> KX$TL3.NEXT$;
     1313    16252    2       END;
     1314    16253    1       IF PTR$ = ADDR(NIL)
     1315    16254    1          THEN
     1316    16255    2             DO;
     1317    16256        /*S* SCREECH_CODE: KXS-S$KX_BADL3LIST#
     1318    16257             MESSAGE: The chain of L3 contexts was corrupted.
     1319    16258        */
     1320    16259    2                CALL KHD$SCREECH ( Y_BADL3LIST );
     1321    16260    2             END;
     1322    16261    1       IF PTR$ = KX$L2.L3_HEAD$
     1323    16262        /*
     1324    16263           cntx to delink is the head of the list.
     1325    16264        */
PL6.E3A0      #007=KXS$RLSL3_MAYBE File=KXS$SUBS.:E05TSI                         WED 07/30/97 02:29 Page:233
     1326    16265    1          THEN
     1327    16266    2             DO;
     1328    16267    2                KX$L2.L3_HEAD$ = KX$L3.NEXT$;
     1329    16268    2                IF KX$L2.L3_HEAD$ = ADDR(NIL)
     1330    16269    2                   THEN
     1331    16270    2                      KX$L2.L3_TAIL$ = ADDR(NIL);
     1332    16271    2             END;
     1333    16272    1          ELSE IF PTR$ = KX$L2.L3_TAIL$
     1334    16273        /*
     1335    16274           cntx to delink is the tail of the list.
     1336    16275        */
     1337    16276    1                THEN
     1338    16277    2                   DO;
     1339    16278    2                      PRV_PTR$ -> KX$TL3.NEXT$ = ADDR(NIL);
     1340    16279    2                      KX$L2.L3_TAIL$ = PRV_PTR$;
     1341    16280    2                   END;
     1342    16281    1                ELSE
     1343    16282        /*
     1344    16283           cntx is found somewhere in the middle of the linked list.
     1345    16284        */
     1346    16285    2                   DO;
     1347    16286    2                      PRV_PTR$ -> KX$TL3.NEXT$ = KX$L3.NEXT$;
     1348    16287    2                   END;
     1349    16288    1       DAT$ = KX$L3.CTL_Q_HEAD$;
     1350    16289    2       DO WHILE ( DAT$ ~= ADDR(NIL));
     1351    16290    2          KX$L3.CTL_Q_HEAD$ = KX$DATA.NEXT$;
     1352    16291    2          CALL KXS$RLSBFR ( DAT$ );
     1353    16292    2          DAT$ = KX$L3.CTL_Q_HEAD$;
     1354    16293    2       END;
     1355    16294        /*
     1356    16295           Stop all timers just to be sure.
     1357    16296        */
     1358    16297            %STOP_TIMER ( FPTN = KX$L3.TMRBLK );
     1359    16306            %STOP_TIMER ( FPTN = KX$L3.DATTMRBLK );
     1360    16315        /*
     1361    16316            inform CM that L3 context is being released.
     1362    16317        */
PL6.E3A0      #007=KXS$RLSL3_MAYBE File=KXS$SUBS.:E05TSI                         WED 07/30/97 02:29 Page:234
     1363    16318    1       IF KX$L3.CM$ ~= ADDR(NIL)
     1364    16319    1          THEN
     1365    16320    2             DO;
     1366    16321    2                CALL_FPT = '0'B;
     1367    16322    2                CALL_FPT.EVN = %KX_CM_EV_RLSL3#;
     1368    16323    2                CALL_FPT.CAL$ = L3$;
     1369    16324    2                CALL_FPT.RCV$ = KX$L3.CM$;
     1370    16325    2                CALL KXC$CNCMNG ( CALL_FPT );
     1371    16326    2             END;
     1372    16327
     1373    16328        /*
     1374    16329                                             Release the context block.
     1375    16330        */
     1376    16331    1       BFRSIZ = SIZEW(KX$L3);
     1377    16332    1       CALL KVB$RLSSYS ( BFRSIZ, L3$ );
     1378    16333        /*
     1379    16334           Update available MEM and IOMEM
     1380    16335        */
     1381    16336    1       KX_AVL_IOMEM = KX_AVL_IOMEM + KX_BUF.SIZ(KX$L2.BUF_SIZE);
     1382    16337    1       KX_AVL_MEM = KX_AVL_MEM + 1200;
     1383    16338
     1384    16339    1       RETURN;
     1385    16340
     1386    16341    1   END KXS$RLSL3_MAYBE;
     1387    16342        %EOD;

PL6.E3A0      #007=KXS$RLSL3_MAYBE File=KXS$SUBS.:E05TSI                         WED 07/30/97 02:29 Page:235
--  Include file information  --

   KNH_MACRO_C.:E05TOU  is referenced.
   K_ADDRESS_M.:E05TOU  is referenced.
   KV_GLBCNS_E.:E05TOU  is referenced.
   KX_MACROS_M.:E05TOU  is referenced.
   KX_DATA_C.:E05TOU  is referenced.
   KX_SCODE_C.:E05TOU  is referenced.
   KX_PERR_C.:E05TOU  is referenced.
   KX_EQUS_E.:E05TOU  is referenced.
   KL_SUPER_C.:E05TOU  is referenced.
   KH$CHN.:E05TOU  is referenced.
   CP_6_SUBS.:E05TOU  is referenced.
   G_LCP6_E.:E05TOU  is referenced.
   GT_LCP6_M.:E05TOU  is referenced.
   KI_CP6.:E05TOU  is referenced.
   GF_LCP6_M.:E05TOU  is referenced.
   GM_LCP6_M.:E05TOU  is referenced.
   GU_LCP6_M.:E05TOU  is referenced.
   GJ_LCP6_M.:E05TOU  is referenced.
   GH_LCP6_M.:E05TOU  is referenced.
   LCP_6.:E05TOU  cannot be made into a system file and is referenced.
   KL_AFCN_C.:E05TOU  is referenced.
   KL_MACRO_C.:E05TOU  is referenced.
   K_ID_E.:E05TOU  is referenced.
      No diagnostics issued in procedure KXS$RLSL3_MAYBE.

   Procedure KXS$RLSL3_MAYBE requires 366 words for executable code.
   Procedure KXS$RLSL3_MAYBE requires 38 words of local(AUTO) storage.

PL6.E3A0      #007=KXS$RLSL3_MAYBE File=KXS$SUBS.:E05TSI                         WED 07/30/97 02:29 Page:236

 Object Unit name= KXS$RLSL3_MAYBE                            File name= KXS$SUBS.:E05TOU
 UTS= JUL 30 '97 02:29:41.52 WED                              Compiler= PL-6/E31         Sev=      00
 SharedLib= :SHARED_LCP6_SYSTEM                               Alt SharedLib=


    ****  Control sections  ****

 Sect   Type Bound  Init  Size HexSiz  Section name
    0  RoData even  UTS      3      3  KXS$RLSL3_MAYBE
    1   Proc  even  none   366    16E  KXS$RLSL3_MAYBE
    2  RoData even  none     2      2  KXS$RLSL3_MAYBE

    ****  Entry defs  ****

                              Check   Calling
                             calling  sequence
  Sect HexLoc Primary Altret sequence   type   Parms  Name
     1      0   yes            yes      Std        1  KXS$RLSL3_MAYBE
     1     1C                  yes      Std        1  KXS$RLSL3

  ****  Entry refs  ****

         Check        Calling
        calling       sequence
Altret sequence SRef   type   Args  Name
 yes     yes           Std       2 KVB$RLSSYS
         yes           Std       1 KXS$RLSBFR
 yes     yes           Std       1 KXC$CNCMNG
         yes           Std       1 KHD$SCREECH
                       nStd      0 X6A_AUTO_1
                       nStd      0 X6A_ARET
PL6.E3A0      #007=KXS$RLSL3_MAYBE File=KXS$SUBS.:E05TSI                         WED 07/30/97 02:29 Page:237

  ****  Data refs  ****

  Flags:  r = read only, s = secondary
Flgs Name                             Flgs Name                             Flgs Name
     KX_BUF                                KX_TMRBLK                             KX_AVL_MEM
     KX_AVL_IOMEM                          KX_PM$                           r    G$ROS$
PL6.E3A0      #007=KXS$RLSL3_MAYBE File=KXS$SUBS.:E05TSI                         WED 07/30/97 02:29 Page:238


     1156        1        /*T***********************************************************/
     1157        2        /*T*                                                         */
     1158        3        /*T* Copyright (c) Bull HN Information Systems Inc., 1997    */
     1159        4        /*T*                                                         */
     1160        5        /*T***********************************************************/
     1161        6        /*F* NAME: KXS$RLSL3_MAYBE           */
     1162        7        /*F* PURPOSE: Conditionally release a level 3 context block  */
     1163        8
     1164        9        /*D* NAME: KXS$RLSL3_MAYBE           */
     1165       10        /*D* PURPOSE: Release a level 3 context block if there
     1166       11                      are no buffers on the queue still to be
     1167       12                      transmitted            */
     1168       13        /*D* CALL: CALL KXS$RLSL3_MAYBE ( L3$ );  */
     1169       14        /*D* INPUT: L3$ - pointer to the context to be released  */
     1170       15        /*D* OUTPUT: none                    */
     1171       16
     1172       17        KXS$RLSL3_MAYBE: PROC ( L3$ );

     17   1 000000  D380 0000 0000  xent KXS$RLSL3_MAYBE LNJ,B5   X6A_AUTO_1
          1 000003       0026 0001                       DC       38,1

     1173       18
     1174       19        /*****************************************************************
     1175       20        *                                                                *
     1176       21        *                           Includes                             *
     1177       22        *                                                                *
     1178       23        *****************************************************************/
     1179       24
     1180       25        %INCLUDE K_ID_E;
     1181       75        %K#ENTID_E;
     1182       94        %K#LYRID_E;
     1183      101        %INCLUDE KL_MACRO_C;
     1184     3453        %INCLUDE KL_AFCN_C;
     1185     3554        %INCLUDE LCP_6;
     1186     7833        %INCLUDE CP_6_SUBS;
     1187     8373        %INCLUDE KH$CHN;
PL6.E3A0      #007=KXS$RLSL3_MAYBE File=KXS$SUBS.:E05TSI                         WED 07/30/97 02:29 Page:239
     1188     8495        %INCLUDE KL_SUPER_C;
     1189    11397        %INCLUDE KX_EQUS_E;
     1190    11836        %INCLUDE KX_PERR_C;
     1191    11965        %INCLUDE KX_SCODE_C;
     1192    12031        %INCLUDE KX_DATA_C;
     1193    12099        %INCLUDE KX_MACROS_M;
     1194    12870        %INCLUDE KV_GLBCNS_E;
     1195    13211        %INCLUDE K_ADDRESS_M;
     1196    13714        %INCLUDE KNH_MACRO_C;
     1197    13997        %KV#CQ_HNDID_E;
     1198    14002        %EJECT;
PL6.E3A0      #007=KXS$RLSL3_MAYBE File=KXS$SUBS.:E05TSI                         WED 07/30/97 02:29 Page:240
     1199    14003        /*****************************************************************
     1200    14004        *                                                                *
     1201    14005        *                           External References                  *
     1202    14006        *                                                                *
     1203    14007        *****************************************************************/
     1204    14008
     1205    14009    1   DCL KVB$RLSSYS ENTRY (2) ALTRET;
     1206    14010    1   DCL KXS$RLSBFR ENTRY (1);
     1207    14011    1   DCL KXX$X29 ENTRY (1);
     1208    14012    1   DCL KXC$CNCMNG ENTRY (1) ALTRET;
     1209    14013    1   DCL KHD$SCREECH ENTRY (1);
     1210    14014    1   DCL KHA$ERRLOG ENTRY (2) ALTRET;
     1211    14015
     1212    14016
     1213    14017        /*****************************************************************
     1214    14018        *                                                                *
     1215    14019        *                           Auto                                 *
     1216    14020        *                                                                *
     1217    14021        *****************************************************************/
     1218    14022
     1219    14023    1   DCL L3$ PTR;
     1220    14024    1   DCL DAT$ PTR;
     1221    14025    1   DCL PRVDAT$ PTR;
     1222    14026    1   DCL PTR$ PTR;
     1223    14027    1   DCL PRV_PTR$ PTR;
     1224    14028    1   DCL BFRSIZ UBIN;
     1225    14029    1   DCL L2$ PTR;
     1226    14030        %FPT_X25 ( FPTN = CALL_FPT, STCLASS = AUTO );
     1227    14074
     1228    14075        /*****************************************************************
     1229    14076        *                                                                *
     1230    14077        *                           Based                                *
     1231    14078        *                                                                *
     1232    14079        *****************************************************************/
     1233    14080
     1234    14081        %KH$CHN ( STCLASS = BASED );
     1235    14205        %KX$L2 ( STCLASS = "BASED ( L2$ )" );
PL6.E3A0      #007=KXS$RLSL3_MAYBE File=KXS$SUBS.:E05TSI                         WED 07/30/97 02:29 Page:241
     1236    14572        %KX$L3 ( STCLASS = "BASED ( L3$ )" );
     1237    14975        %KX$L3 ( FPTN = KX$TL3, STCLASS = BASED );
     1238    15378        %KX$DATA ( STCLASS = "BASED ( DAT$ )" );
     1239    15398        %KX$TMRBLK ( FPTN = KX$BTMRBLK, STCLASS = BASED );
     1240    15430        %EJECT;
PL6.E3A0      #007=KXS$RLSL3_MAYBE File=KXS$SUBS.:E05TSI                         WED 07/30/97 02:29 Page:242
     1241    15431        /*****************************************************************
     1242    15432        *                                                                *
     1243    15433        *                           Static                               *
     1244    15434        *                                                                *
     1245    15435        *****************************************************************/
     1246    15436
     1247    15437        %KX_DATA;
     1248    16127        %EJECT;
PL6.E3A0      #007=KXS$RLSL3_MAYBE File=KXS$SUBS.:E05TSI                         WED 07/30/97 02:29 Page:243
     1249    16128        /*****************************************************************
     1250    16129        *                                                                *
     1251    16130        *                           Constant                             *
     1252    16131        *                                                                *
     1253    16132        *****************************************************************/
     1254    16133
     1255    16134        %VLP_SCODE (FPTN=Y_BADL3LIST,STCLASS=CONSTANT,FCG=KX,MID=S,ERR#=%S$KX_BADL3LIST#);
     1256    16195        %EJECT;
PL6.E3A0      #007=KXS$RLSL3_MAYBE File=KXS$SUBS.:E05TSI                         WED 07/30/97 02:29 Page:244
     1257    16196        /*****************************************************************
     1258    16197        *                                                                *
     1259    16198        *                           Procedure                            *
     1260    16199        *                                                                *
     1261    16200        *****************************************************************/
     1262    16201
     1263    16202        /*
     1264    16203                                             If the transmit queue is not
     1265    16204                                             empty, mark this context as
     1266    16205                                             release pending and return.
     1267    16206        */
     1268    16207    1       IF KX$L3.CTL_Q_HEAD$ ~= ADDR(NIL) OR KX$L3.RTR$ ~= ADDR(NIL)

  16207   1 000005  ECC7 0004                            LDB,B6   @L3$,AUTO
          1 000007  DC86                                 LDB,B5   ,B6
          1 000008  8DC5 003F                            CMN      63,B5
          1 00000A  0981 0005                            BNE      s:16210,PREL
          1 00000C  8DC5 0043                            CMN      67,B5
          1 00000E  0901 000B                            BE       s:16212+3,PREL

     1269    16208    1          THEN
     1270    16209    2             DO;

     1271    16210    2                KX$L3.MAYBE = '1'B;

  16210   1 000010  8945 0029                            LBT,'1000'X       41,B5
  16210   1 000012       1000

     1272    16211    2                KX$L3.LCN# = 0;

  16211   1 000013  DC86                                 LDB,B5   ,B6
          1 000014  8845 002A                            LBF,'0FFF'X       42,B5
          1 000016       0FFF

     1273    16212    2                RETURN;

  16212   1 000017  C380 0000 0000  xent                 LNJ,B4   X6A_ARET
PL6.E3A0      #007=KXS$RLSL3_MAYBE File=KXS$SUBS.:E05TSI                         WED 07/30/97 02:29 Page:245
          1 00001A  0F81 0006                            B        s:16232,PREL

     1274    16213    2             END;
     1275    16214
     1276    16215        %EJECT;
PL6.E3A0      #007=KXS$RLSL3_MAYBE File=KXS$SUBS.:E05TSI                         WED 07/30/97 02:29 Page:246
     1277    16216        /*F* NAME: KXS$RLSL3                 */
     1278    16217        /*F* PURPOSE: Release a level 3 context block  */
     1279    16218
     1280    16219        /*D* NAME: KXS$RLSL3                 */
     1281    16220        /*D* PURPOSE: Release a level 3 context block  */
     1282    16221        /*D* CALL: CALL KXS$RLSL3 ( L3$ );   */
     1283    16222        /*D* INPUT: L3$ - pointer to the context to be released  */
     1284    16223        /*D* OUTPUT: none                    */
     1285    16224
     1286    16225    1   KXS$RLSL3: ENTRY ( L3$ );

  16225   1 00001C  D380 0000 0000  xent KXS$RLSL3       LNJ,B5   X6A_AUTO_1
          1 00001F       0026 0001                       DC       38,1

     1287    16226
     1288    16227        %EJECT;
PL6.E3A0      #007=KXS$RLSL3_MAYBE File=KXS$SUBS.:E05TSI                         WED 07/30/97 02:29 Page:247
     1289    16228
     1290    16229        /*
     1291    16230                                             Release the channel table.
     1292    16231        */
     1293    16232    1       IF KX$L3.CHN$ ~= ADDR(NIL)

  16232   1 000021  ECC7 0004                            LDB,B6   @L3$,AUTO
          1 000023  DC86                                 LDB,B5   ,B6
          1 000024  8DC5 0006                            CMN      6,B5
          1 000026  0901 0008                            BE       s:16235,PREL

     1294    16233    1          THEN
     1295    16234    1             KX$L3.CHN$ -> KH$CHN.CTX$ = ADDR (NIL);

  16234   1 000028  CCC5 0006                            LDB,B4   6,B5
          1 00002A  BB80 0000 0000                       LAB,B3   0
          1 00002D  BFC4 000C                            STB,B3   12,B4

     1296    16235    1       IF KX$L3.RLSCHN

  16235   1 00002F  DC86                                 LDB,B5   ,B6
          1 000030  82C5 0029                            LB,'0400'X        41,B5
          1 000032       0400
          1 000033  0581 0011                            BBF      s:16244,PREL

     1297    16236    1          THEN
     1298    16237    2             DO;

     1299    16238    2                CALL KVB$RLSSYS ( SIZEW ( KH$CHN ), KX$L3.CHN$ );

  16238   1 000035  CBF0 0020                            LAB,B4   32,IMO
          1 000037  BBC5 0006                            LAB,B3   6,B5
          1 000039  BFC7 0024                            STB,B3   CALL_FPT+19,AUTO
          1 00003B  CFC7 0022                            STB,B4   CALL_FPT+17,AUTO
          1 00003D  BBC7 0022                            LAB,B3   CALL_FPT+17,AUTO
          1 00003F  CBF0 0200                            LAB,B4   512,IMO
          1 000041  E380 0000 0000  xent                 LNJ,B6   KVB$RLSSYS
PL6.E3A0      #007=KXS$RLSL3_MAYBE File=KXS$SUBS.:E05TSI                         WED 07/30/97 02:29 Page:248
          1 000044       0001                            DC       s:16244,PREL

     1300    16239    2             END;

     1301    16240        /*
     1302    16241                                             Delink this context from the
     1303    16242                                             others.
     1304    16243        */
     1305    16244    1       L2$ = KX$L3.L2$;

  16244   1 000045  ECC7 0004                            LDB,B6   @L3$,AUTO
          1 000047  DC86                                 LDB,B5   ,B6
          1 000048  CCC5 0002                            LDB,B4   2,B5
          1 00004A  CFC7 000F                            STB,B4   L2$,AUTO

     1306    16245    1       PTR$ = KX$L2.L3_HEAD$;

  16245   1 00004C  BCC4 0034                            LDB,B3   52,B4
          1 00004E  BFC7 000A                            STB,B3   PTR$,AUTO

     1307    16246        /*
     1308    16247           scan from HEAD$ until we find L3$, the cntx we want to delink.
     1309    16248        */
     1310    16249    2       DO WHILE (PTR$ ~= L3$ AND PTR$ ~= ADDR(NIL));

  16249   1 000050  0F81 0008                            B        s:16252,PREL

     1311    16250    2          PRV_PTR$ = PTR$;

  16250   1 000052  ECC7 000A                            LDB,B6   PTR$,AUTO
          1 000054  EFC7 000C                            STB,B6   PRV_PTR$,AUTO

     1312    16251    2          PTR$ = PTR$ -> KX$TL3.NEXT$;

  16251   1 000056  DC86                                 LDB,B5   ,B6
          1 000057  DFC7 000A                            STB,B5   PTR$,AUTO

PL6.E3A0      #007=KXS$RLSL3_MAYBE File=KXS$SUBS.:E05TSI                         WED 07/30/97 02:29 Page:249
     1313    16252    2       END;

  16252   1 000059  ECC7 000A                            LDB,B6   PTR$,AUTO
          1 00005B  DCC7 0004                            LDB,B5   @L3$,AUTO
          1 00005D  ED85                                 CMB,B6   ,B5
          1 00005E  0901 0004                            BE       s:16253,PREL
          1 000060  8DC7 000A                            CMN      PTR$,AUTO
          1 000062  09F0                                 BNE      s:16250,SPREL

     1314    16253    1       IF PTR$ = ADDR(NIL)

  16253   1 000063  8DC7 000A                            CMN      PTR$,AUTO
          1 000065  0981 000A                            BNE      s:16261,PREL

     1315    16254    1          THEN
     1316    16255    2             DO;

     1317    16256        /*S* SCREECH_CODE: KXS-S$KX_BADL3LIST#
     1318    16257             MESSAGE: The chain of L3 contexts was corrupted.
     1319    16258        */
     1320    16259    2                CALL KHD$SCREECH ( Y_BADL3LIST );

  16259   1 000067  BB80 0000 0000  02                   LAB,B3   0
          1 00006A  CBF0 0100                            LAB,B4   256,IMO
          1 00006C  E380 0000 0000  xent                 LNJ,B6   KHD$SCREECH
          1 00006F       0001                            DC       s:16261,PREL

     1321    16260    2             END;

     1322    16261    1       IF PTR$ = KX$L2.L3_HEAD$

  16261   1 000070  ECC7 000A                            LDB,B6   PTR$,AUTO
          1 000072  DCC7 000F                            LDB,B5   L2$,AUTO
          1 000074  EDC5 0034                            CMB,B6   52,B5
          1 000076  0981 0012                            BNE      s:16272,PREL

     1323    16262        /*
PL6.E3A0      #007=KXS$RLSL3_MAYBE File=KXS$SUBS.:E05TSI                         WED 07/30/97 02:29 Page:250
     1324    16263           cntx to delink is the head of the list.
     1325    16264        */
     1326    16265    1          THEN
     1327    16266    2             DO;

     1328    16267    2                KX$L2.L3_HEAD$ = KX$L3.NEXT$;

  16267   1 000078  CCC7 0004                            LDB,B4   @L3$,AUTO
          1 00007A  BC84                                 LDB,B3   ,B4
          1 00007B  AC83                                 LDB,B2   ,B3
          1 00007C  AFC5 0034                            STB,B2   52,B5

     1329    16268    2                IF KX$L2.L3_HEAD$ = ADDR(NIL)

  16268   1 00007E  8DC5 0034                            CMN      52,B5
          1 000080  0981 001D                            BNE      s:16288,PREL

     1330    16269    2                   THEN
     1331    16270    2                      KX$L2.L3_TAIL$ = ADDR(NIL);

  16270   1 000082  BB80 0000 0000                       LAB,B3   0
          1 000085  BFC5 0036                            STB,B3   54,B5

     1332    16271    2             END;

  16271   1 000087  0F81 0016                            B        s:16288,PREL

     1333    16272    1          ELSE IF PTR$ = KX$L2.L3_TAIL$

  16272   1 000089  EDC5 0036                            CMB,B6   54,B5
          1 00008B  0981 000B                            BNE      s:16286,PREL

     1334    16273        /*
     1335    16274           cntx to delink is the tail of the list.
     1336    16275        */
     1337    16276    1                THEN
     1338    16277    2                   DO;
PL6.E3A0      #007=KXS$RLSL3_MAYBE File=KXS$SUBS.:E05TSI                         WED 07/30/97 02:29 Page:251

     1339    16278    2                      PRV_PTR$ -> KX$TL3.NEXT$ = ADDR(NIL);

  16278   1 00008D  CB80 0000 0000                       LAB,B4   0
          1 000090  BCC7 000C                            LDB,B3   PRV_PTR$,AUTO
          1 000092  CF83                                 STB,B4   ,B3

     1340    16279    2                      KX$L2.L3_TAIL$ = PRV_PTR$;

  16279   1 000093  BFC5 0036                            STB,B3   54,B5

     1341    16280    2                   END;

  16280   1 000095  0F81 0008                            B        s:16288,PREL

     1342    16281    1                ELSE
     1343    16282        /*
     1344    16283           cntx is found somewhere in the middle of the linked list.
     1345    16284        */
     1346    16285    2                   DO;

     1347    16286    2                      PRV_PTR$ -> KX$TL3.NEXT$ = KX$L3.NEXT$;

  16286   1 000097  CCC7 0004                            LDB,B4   @L3$,AUTO
          1 000099  BC84                                 LDB,B3   ,B4
          1 00009A  AC83                                 LDB,B2   ,B3
          1 00009B  9CC7 000C                            LDB,B1   PRV_PTR$,AUTO
          1 00009D  AF81                                 STB,B2   ,B1

     1348    16287    2                   END;

     1349    16288    1       DAT$ = KX$L3.CTL_Q_HEAD$;

  16288   1 00009E  CCC7 0004                            LDB,B4   @L3$,AUTO
          1 0000A0  BC84                                 LDB,B3   ,B4
          1 0000A1  ACC3 003F                            LDB,B2   63,B3
          1 0000A3  AFC7 0006                            STB,B2   DAT$,AUTO
PL6.E3A0      #007=KXS$RLSL3_MAYBE File=KXS$SUBS.:E05TSI                         WED 07/30/97 02:29 Page:252

     1350    16289    2       DO WHILE ( DAT$ ~= ADDR(NIL));

  16289   1 0000A5  0F81 001C                            B        s:16293,PREL

     1351    16290    2          KX$L3.CTL_Q_HEAD$ = KX$DATA.NEXT$;

  16290   1 0000A7  ECC7 0004                            LDB,B6   @L3$,AUTO
          1 0000A9  DC86                                 LDB,B5   ,B6
          1 0000AA  CCC7 0006                            LDB,B4   DAT$,AUTO
          1 0000AC  BC84                                 LDB,B3   ,B4
          1 0000AD  BFC5 003F                            STB,B3   63,B5

     1352    16291    2          CALL KXS$RLSBFR ( DAT$ );

  16291   1 0000AF  DBC7 0006                            LAB,B5   DAT$,AUTO
          1 0000B1  DFC7 0022                            STB,B5   CALL_FPT+17,AUTO
          1 0000B3  BBC7 0022                            LAB,B3   CALL_FPT+17,AUTO
          1 0000B5  CBF0 0100                            LAB,B4   256,IMO
          1 0000B7  E380 0000 0000  xent                 LNJ,B6   KXS$RLSBFR
          1 0000BA       0001                            DC       s:16292,PREL

     1353    16292    2          DAT$ = KX$L3.CTL_Q_HEAD$;

  16292   1 0000BB  ECC7 0004                            LDB,B6   @L3$,AUTO
          1 0000BD  DC86                                 LDB,B5   ,B6
          1 0000BE  CCC5 003F                            LDB,B4   63,B5
          1 0000C0  CFC7 0006                            STB,B4   DAT$,AUTO

     1354    16293    2       END;

  16293   1 0000C2  8DC7 0006                            CMN      DAT$,AUTO
          1 0000C4  09E3                                 BNE      s:16290,SPREL

     1355    16294        /*
     1356    16295           Stop all timers just to be sure.
     1357    16296        */
PL6.E3A0      #007=KXS$RLSL3_MAYBE File=KXS$SUBS.:E05TSI                         WED 07/30/97 02:29 Page:253
     1358    16297            %STOP_TIMER ( FPTN = KX$L3.TMRBLK );

  16302   1 0000C5  ECC7 0004                            LDB,B6   @L3$,AUTO
          1 0000C7  DC86                                 LDB,B5   ,B6
          1 0000C8  89C5 0056                            CMZ      86,B5
          1 0000CA  0881 0027                            BAGE     s:16311,PREL

  16302   1 0000CC  8845 0056                            LBF,'8000'X       86,B5
  16302   1 0000CE       8000

  16302   1 0000CF  DC86                                 LDB,B5   ,B6
          1 0000D0  8DC5 004D                            CMN      77,B5
          1 0000D2  0981 0008                            BNE      s:16302+22,PREL

  16302   1 0000D4  CCC5 004F                            LDB,B4   79,B5
          1 0000D6  CF80 0000 0002  xsym                 STB,B4   KX_TMRBLK+2
          1 0000D9  0F81 0007                            B        s:16303,PREL

  16302   1 0000DB  CCC5 004D                            LDB,B4   77,B5
          1 0000DD  BCC5 004F                            LDB,B3   79,B5
          1 0000DF  BFC4 0002                            STB,B3   2,B4

  16303   1 0000E1  DC86                                 LDB,B5   ,B6
          1 0000E2  8DC5 004F                            CMN      79,B5
          1 0000E4  0981 0008                            BNE      s:16303+12,PREL

  16303   1 0000E6  CCC5 004D                            LDB,B4   77,B5
          1 0000E8  CF80 0000 0000  xsym                 STB,B4   KX_TMRBLK
          1 0000EB  0F81 0006                            B        s:16311,PREL

  16303   1 0000ED  CCC5 004F                            LDB,B4   79,B5
          1 0000EF  BCC5 004D                            LDB,B3   77,B5
          1 0000F1  BF84                                 STB,B3   ,B4

     1359    16306            %STOP_TIMER ( FPTN = KX$L3.DATTMRBLK );

  16311   1 0000F2  DC86                                 LDB,B5   ,B6
PL6.E3A0      #007=KXS$RLSL3_MAYBE File=KXS$SUBS.:E05TSI                         WED 07/30/97 02:29 Page:254
          1 0000F3  89C5 0060                            CMZ      96,B5
          1 0000F5  0881 0027                            BAGE     s:16318,PREL

  16311   1 0000F7  8845 0060                            LBF,'8000'X       96,B5
  16311   1 0000F9       8000

  16311   1 0000FA  DC86                                 LDB,B5   ,B6
          1 0000FB  8DC5 0057                            CMN      87,B5
          1 0000FD  0981 0008                            BNE      s:16311+20,PREL

  16311   1 0000FF  CCC5 0059                            LDB,B4   89,B5
          1 000101  CF80 0000 0002  xsym                 STB,B4   KX_TMRBLK+2
          1 000104  0F81 0007                            B        s:16312,PREL

  16311   1 000106  CCC5 0057                            LDB,B4   87,B5
          1 000108  BCC5 0059                            LDB,B3   89,B5
          1 00010A  BFC4 0002                            STB,B3   2,B4

  16312   1 00010C  DC86                                 LDB,B5   ,B6
          1 00010D  8DC5 0059                            CMN      89,B5
          1 00010F  0981 0008                            BNE      s:16312+12,PREL

  16312   1 000111  CCC5 0057                            LDB,B4   87,B5
          1 000113  CF80 0000 0000  xsym                 STB,B4   KX_TMRBLK
          1 000116  0F81 0006                            B        s:16318,PREL

  16312   1 000118  CCC5 0059                            LDB,B4   89,B5
          1 00011A  BCC5 0057                            LDB,B3   87,B5
          1 00011C  BF84                                 STB,B3   ,B4

     1360    16315        /*
     1361    16316            inform CM that L3 context is being released.
     1362    16317        */
     1363    16318    1       IF KX$L3.CM$ ~= ADDR(NIL)

  16318   1 00011D  DC86                                 LDB,B5   ,B6
          1 00011E  8DC5 0004                            CMN      4,B5
PL6.E3A0      #007=KXS$RLSL3_MAYBE File=KXS$SUBS.:E05TSI                         WED 07/30/97 02:29 Page:255
          1 000120  0901 001F                            BE       s:16331,PREL

     1364    16319    1          THEN
     1365    16320    2             DO;

     1366    16321    2                CALL_FPT = '0'B;

  16321   1 000122  5C20                                 LDV,R5   32
          1 000123  0021                                 ALR      ;
          1 000124       4178 0000                                ALPHANUM('0000'X,IMO,,1),;
          1 000126       4007 0011                                ALPHANUM(CALL_FPT,AUTO,,R5,FILL)

     1367    16322    2                CALL_FPT.EVN = %KX_CM_EV_RLSL3#;

  16322   1 000128  6C0E                                 LDV,R6   14
          1 000129  437F                                 CSYNC    s:16322,SPREL
          1 00012A  EF47 0011                            STR,R6   CALL_FPT,AUTO

     1368    16323    2                CALL_FPT.CAL$ = L3$;

  16323   1 00012C  DC86                                 LDB,B5   ,B6
          1 00012D  DFC7 0012                            STB,B5   CALL_FPT+1,AUTO

     1369    16324    2                CALL_FPT.RCV$ = KX$L3.CM$;

  16324   1 00012F  CC86                                 LDB,B4   ,B6
          1 000130  BCC4 0004                            LDB,B3   4,B4
          1 000132  BFC7 0014                            STB,B3   CALL_FPT+3,AUTO

     1370    16325    2                CALL KXC$CNCMNG ( CALL_FPT );

  16325   1 000134  CBC7 0011                            LAB,B4   CALL_FPT,AUTO
          1 000136  CFC7 0022                            STB,B4   CALL_FPT+17,AUTO
          1 000138  BBC7 0022                            LAB,B3   CALL_FPT+17,AUTO
          1 00013A  CBF0 0100                            LAB,B4   256,IMO
          1 00013C  E380 0000 0000  xent                 LNJ,B6   KXC$CNCMNG
          1 00013F       0001                            DC       s:16331,PREL
PL6.E3A0      #007=KXS$RLSL3_MAYBE File=KXS$SUBS.:E05TSI                         WED 07/30/97 02:29 Page:256

     1371    16326    2             END;

     1372    16327
     1373    16328        /*
     1374    16329                                             Release the context block.
     1375    16330        */
     1376    16331    1       BFRSIZ = SIZEW(KX$L3);

  16331   1 000140  E870 0091                            LDR,R6   145,IMO
          1 000142  EF47 000E                            STR,R6   BFRSIZ,AUTO

     1377    16332    1       CALL KVB$RLSSYS ( BFRSIZ, L3$ );

  16332   1 000144  ECC7 0004                            LDB,B6   @L3$,AUTO
          1 000146  EFC7 0024                            STB,B6   CALL_FPT+19,AUTO
          1 000148  DBC7 000E                            LAB,B5   BFRSIZ,AUTO
          1 00014A  DFC7 0022                            STB,B5   CALL_FPT+17,AUTO
          1 00014C  BBC7 0022                            LAB,B3   CALL_FPT+17,AUTO
          1 00014E  CBF0 0200                            LAB,B4   512,IMO
          1 000150  E380 0000 0000  xent                 LNJ,B6   KVB$RLSSYS
          1 000153       0001                            DC       s:16336,PREL

     1378    16333        /*
     1379    16334           Update available MEM and IOMEM
     1380    16335        */
     1381    16336    1       KX_AVL_IOMEM = KX_AVL_IOMEM + KX_BUF.SIZ(KX$L2.BUF_SIZE);

  16336   1 000154  ECC7 000F                            LDB,B6   L2$,AUTO
          1 000156  B2C6 0004                            LLH,R3   4,B6
          1 000158  F830 0000 001E  xsym                 LDR,R7   KX_BUF+30,R3
          1 00015B  6C00                                 LDV,R6   0
          1 00015C  8400 0000 0000  xsym                 AID      KX_AVL_IOMEM
          1 00015F  8D00 0000 0000  xsym                 SDI      KX_AVL_IOMEM

     1382    16337    1       KX_AVL_MEM = KX_AVL_MEM + 1200;

PL6.E3A0      #007=KXS$RLSL3_MAYBE File=KXS$SUBS.:E05TSI                         WED 07/30/97 02:29 Page:257
  16337   1 000162  8C80 0000 0000  xsym                 LDI      KX_AVL_MEM
          1 000165  8470 0000 04B0                       AID      1200,IMO
          1 000168  8D00 0000 0000  xsym                 SDI      KX_AVL_MEM

     1383    16338
     1384    16339    1       RETURN;

  16339   1 00016B  C380 0000 0000  xent                 LNJ,B4   X6A_ARET
     1385    16340
     1386    16341    1   END KXS$RLSL3_MAYBE;
     1387    16342        %EOD;

PL6.E3A0      #007=KXS$RLSL3_MAYBE File=KXS$SUBS.:E05TSI                         WED 07/30/97 02:29 Page:258
--  Include file information  --

   KNH_MACRO_C.:E05TOU  is referenced.
   K_ADDRESS_M.:E05TOU  is referenced.
   KV_GLBCNS_E.:E05TOU  is referenced.
   KX_MACROS_M.:E05TOU  is referenced.
   KX_DATA_C.:E05TOU  is referenced.
   KX_SCODE_C.:E05TOU  is referenced.
   KX_PERR_C.:E05TOU  is referenced.
   KX_EQUS_E.:E05TOU  is referenced.
   KL_SUPER_C.:E05TOU  is referenced.
   KH$CHN.:E05TOU  is referenced.
   CP_6_SUBS.:E05TOU  is referenced.
   G_LCP6_E.:E05TOU  is referenced.
   GT_LCP6_M.:E05TOU  is referenced.
   KI_CP6.:E05TOU  is referenced.
   GF_LCP6_M.:E05TOU  is referenced.
   GM_LCP6_M.:E05TOU  is referenced.
   GU_LCP6_M.:E05TOU  is referenced.
   GJ_LCP6_M.:E05TOU  is referenced.
   GH_LCP6_M.:E05TOU  is referenced.
   LCP_6.:E05TOU  cannot be made into a system file and is referenced.
   KL_AFCN_C.:E05TOU  is referenced.
   KL_MACRO_C.:E05TOU  is referenced.
   K_ID_E.:E05TOU  is referenced.
      No diagnostics issued in procedure KXS$RLSL3_MAYBE.
PL6.E3A0      #007=KXS$RLSL3_MAYBE File=KXS$SUBS.:E05TSI                         WED 07/30/97 02:29 Page:259

 **** Variables and constants ****

  ****  Section 000 RoData KXS$RLSL3_MAYBE

  ****  Scalars and arrays  ****
HexLoc.c.b A Datatyp(siz) R M Lvl/name                 HexLoc.c.b A Datatyp(siz) R M Lvl/name

     0-0-0/w STRC(48)    r     1 Y_BADL3LIST

  ****  Auto variables  ****

  ****  Scalars and arrays  ****
HexLoc.c.b A Datatyp(siz) R M Lvl/name                 HexLoc.c.b A Datatyp(siz) R M Lvl/name

     4-0-0/w PTR         r     1 @L3$                       E-0-0/w UBIN(16)    r     1 BFRSIZ
    11-0-0/w STRC(256)   r     1 CALL_FPT                   6-0-0/w PTR         r     1 DAT$
     F-0-0/w PTR         r     1 L2$                       *0-0-0/w PTR         r     1 L3$
     C-0-0/w PTR         r     1 PRV_PTR$                   A-0-0/w PTR         r     1 PTR$

  ****  SYMREF variables  ****

  ****  Scalars and arrays  ****
HexLoc.c.b A Datatyp(siz) R M Lvl/name                 HexLoc.c.b A Datatyp(siz) R M Lvl/name

     0-0-0/w SBIN(32)    r     1 KX_AVL_IOMEM               0-0-0/w SBIN(32)    r     1 KX_AVL_MEM
     0-0-0/w STRC(672)   r     1 KX_BUF                     0-0-0/b EPTR        r     1 KX_PM$(0:2)
     0-0-0/w STRC(64)    r     1 KX_TMRBLK

  ****  BASED and DCB variables  ****

  ****  Scalars and arrays  ****
HexLoc.c.b A Datatyp(siz) R M Lvl/name                 HexLoc.c.b A Datatyp(siz) R M Lvl/name

     0-0-0/w STRC(512)   r     1 KH$CHN                     0-0-0/w STRC(160)   r     1 KX$BTMRBLK
     0-0-0/w STRC(128)   r     1 KX$DATA                    0-0-0/w STRC(4992)  r     1 KX$L2
     0-0-0/w STRC(2320)  r     1 KX$L3                      0-0-0/w STRC(2320)  r     1 KX$TL3

PL6.E3A0      #007=KXS$RLSL3_MAYBE File=KXS$SUBS.:E05TSI                         WED 07/30/97 02:29 Page:260

   Procedure KXS$RLSL3_MAYBE requires 366 words for executable code.
   Procedure KXS$RLSL3_MAYBE requires 38 words of local(AUTO) storage.
PL6.E3A0      #007=KXS$RLSL3_MAYBE File=KXS$SUBS.:E05TSI                         WED 07/30/97 02:29 Page:261
          *** CROSS REFERENCE LISTING ***
**     DENOTES     IDENTIFIER DEFINITION
<<                 IDENTIFIER'S VALUE SET
>>                 IDENTIFIER'S VALUE USED
<>                 IDENTIFIER SET AND/OR USED
--                 IDENTIFIER REFERENCED
PL6.E3A0      #007=KXS$RLSL3_MAYBE File=KXS$SUBS.:E05TSI                         WED 07/30/97 02:29 Page:262
          MINI XREF LISTING

BFRSIZ
     14028**DCL     16331<<ASSIGN  16332<>CALL
CALL_FPT
     14057**DCL     16321<<ASSIGN  16325<>CALL
CALL_FPT.CAL$
     14061**DCL     16323<<ASSIGN
CALL_FPT.EVN
     14061**DCL     16322<<ASSIGN
CALL_FPT.PRM1$
     14062**DCL     14063--REDEF
CALL_FPT.PRM2$
     14064**DCL     14064--REDEF
CALL_FPT.RCV$
     14061**DCL     16324<<ASSIGN
DAT$
     14024**DCL     15391--IMP-PTR 16288<<ASSIGN  16289>>DOWHILE 16290>>ASSIGN  16291<>CALL    16292<<ASSIGN
KH$CHN
     14096**DCL     16238--CALL
KH$CHN.CTX$
     14166**DCL     16234<<ASSIGN
KH$CHN.TERMID.TERM
     14192**DCL     14201--REDEF
KHD$SCREECH
     14013**DCL-ENT 16259--CALL
KVB$RLSSYS
     14009**DCL-ENT 16238--CALL    16332--CALL
KX$BTMRBLK.BLNK$
     15425**DCL     16302<<ASSIGN  16311<<ASSIGN
KX$BTMRBLK.FLNK$
     15425**DCL     16303<<ASSIGN  16312<<ASSIGN
KX$DATA.NEXT$
     15393**DCL     16290>>ASSIGN
PL6.E3A0      #007=KXS$RLSL3_MAYBE File=KXS$SUBS.:E05TSI                         WED 07/30/97 02:29 Page:263
KX$DATA.RLS_STAT
     15393**DCL     15394--REDEF
KX$L2.BUF_SIZE
     14242**DCL     16336>>ASSIGN
KX$L2.DFLVCPRF.TRADEL
     14363**DCL     14373--REDEF
KX$L2.DSTSNPA.ADR_STRING
     14554**DCL     14554--REDEF
KX$L2.FRMR_NSNR
     14340**DCL     14341--REDEF
KX$L2.L3_HEAD$
     14272**DCL     16245>>ASSIGN  16261>>IF      16267<<ASSIGN  16268>>IF
KX$L2.L3_TAIL$
     14273**DCL     16270<<ASSIGN  16272>>IF      16279<<ASSIGN
KX$L2.NTWADR.ADR_STRING
     14274**DCL     14274--REDEF
KX$L2.STATES
     14252**DCL     14252--REDEF
KX$L3
     14592**DCL     16331--ASSIGN
KX$L3.CALL_OPTS.RCVADR.ADR_STRING
     14632**DCL     14632--REDEF
KX$L3.CHN$
     14593**DCL     16232>>IF      16234>>ASSIGN  16238<>CALL
KX$L3.CM$
     14592**DCL     16318>>IF      16324>>ASSIGN
KX$L3.CM_OPTS.RCVADR.ADR_STRING
     14667**DCL     14667--REDEF
KX$L3.CTL_Q_HEAD$
     14718**DCL     16207>>IF      16288>>ASSIGN  16290<<ASSIGN  16292>>ASSIGN
KX$L3.CUG
     14710**DCL     14711--REDEF
KX$L3.DATTMRBLK.BLNK$
     14781**DCL     16311>>ASSIGN  16311>>ASSIGN  16312>>IF      16312>>ASSIGN
KX$L3.DATTMRBLK.FLNK$
     14781**DCL     16311>>IF      16311>>ASSIGN  16312>>ASSIGN  16312>>ASSIGN
PL6.E3A0      #007=KXS$RLSL3_MAYBE File=KXS$SUBS.:E05TSI                         WED 07/30/97 02:29 Page:264
KX$L3.DATTMRBLK.ON
     14783**DCL     16311>>IF      16311<<ASSIGN
KX$L3.DFL_OPTS.RCVADR.ADR_STRING
     14702**DCL     14702--REDEF
KX$L3.L2$
     14592**DCL     16244>>ASSIGN
KX$L3.LCLADR.ADR_STRING
     14827**DCL     14827--REDEF
KX$L3.LCLNSAP
     14844**DCL     14900--REDEF
KX$L3.LCLNSAP.NSAP.ADDRESS_N
     14895**DCL     14896--REDEF
KX$L3.LCN#
     14709**DCL     14710--REDEF   16211<<ASSIGN
KX$L3.MAYBE
     14705**DCL     16210<<ASSIGN
KX$L3.NEXT$
     14592**DCL     16267>>ASSIGN  16286>>ASSIGN
KX$L3.RLSCHN
     14706**DCL     16235>>IF
KX$L3.RMTNSAP
     14917**DCL     14973--REDEF
KX$L3.RMTNSAP.NSAP.ADDRESS_N
     14968**DCL     14969--REDEF
KX$L3.RTR$
     14718**DCL     16207>>IF
KX$L3.STATES
     14715**DCL     14715--REDEF
KX$L3.TMRBLK.BLNK$
     14749**DCL     16302>>ASSIGN  16302>>ASSIGN  16303>>IF      16303>>ASSIGN
KX$L3.TMRBLK.FLNK$
     14749**DCL     16302>>IF      16302>>ASSIGN  16303>>ASSIGN  16303>>ASSIGN
KX$L3.TMRBLK.ON
     14751**DCL     16302>>IF      16302<<ASSIGN
KX$L3.TRNDLY
     14711**DCL     14712--REDEF
PL6.E3A0      #007=KXS$RLSL3_MAYBE File=KXS$SUBS.:E05TSI                         WED 07/30/97 02:29 Page:265
KX$L3.TRNDLYIND
     14712**DCL     14713--REDEF
KX$TL3.CALL_OPTS.RCVADR.ADR_STRING
     15035**DCL     15035--REDEF
KX$TL3.CM_OPTS.RCVADR.ADR_STRING
     15070**DCL     15070--REDEF
KX$TL3.CUG
     15113**DCL     15114--REDEF
KX$TL3.DFL_OPTS.RCVADR.ADR_STRING
     15105**DCL     15105--REDEF
KX$TL3.LCLADR.ADR_STRING
     15230**DCL     15230--REDEF
KX$TL3.LCLNSAP
     15247**DCL     15303--REDEF
KX$TL3.LCLNSAP.NSAP.ADDRESS_N
     15298**DCL     15299--REDEF
KX$TL3.LCN#
     15112**DCL     15113--REDEF
KX$TL3.NEXT$
     14995**DCL     16251>>ASSIGN  16278<<ASSIGN  16286<<ASSIGN
KX$TL3.RMTNSAP
     15320**DCL     15376--REDEF
KX$TL3.RMTNSAP.NSAP.ADDRESS_N
     15371**DCL     15372--REDEF
KX$TL3.STATES
     15118**DCL     15118--REDEF
KX$TL3.TRNDLY
     15114**DCL     15115--REDEF
KX$TL3.TRNDLYIND
     15115**DCL     15116--REDEF
KXC$CNCMNG
     14012**DCL-ENT 16325--CALL
KXS$RLSBFR
     14010**DCL-ENT 16291--CALL
KX_AVL_IOMEM
     16122**DCL     16336<<ASSIGN  16336>>ASSIGN
PL6.E3A0      #007=KXS$RLSL3_MAYBE File=KXS$SUBS.:E05TSI                         WED 07/30/97 02:29 Page:266
KX_AVL_MEM
     16122**DCL     16337<<ASSIGN  16337>>ASSIGN
KX_BUF.SIZ
     15453**DCL     16336>>ASSIGN
KX_STATS_HDLC.REQSTATS.DSPMSK
     15724**DCL     15730--REDEF
KX_STATS_HDLC.REQSTATS.SLCMSK
     15765**DCL     15772--REDEF
KX_STATS_X25.REQSTATS.DSPMSK
     16049**DCL     16055--REDEF
KX_STATS_X25.REQSTATS.SLCMSK
     16090**DCL     16097--REDEF
KX_TMRBLK.QHD$
     15455**DCL     16303<<ASSIGN  16312<<ASSIGN
KX_TMRBLK.QTL$
     15455**DCL     16302<<ASSIGN  16311<<ASSIGN
L2$
     14029**DCL     14223--IMP-PTR 16244<<ASSIGN  16245>>ASSIGN  16261>>IF      16267>>ASSIGN  16268>>IF
     16270>>ASSIGN  16272>>IF      16279>>ASSIGN  16336>>ASSIGN
L3$
     14023**DCL        17--PROC    14592--IMP-PTR 16207>>IF      16207>>IF      16210>>ASSIGN  16211>>ASSIGN
     16225--ENTRY   16232>>IF      16234>>ASSIGN  16235>>IF      16238>>CALL    16244>>ASSIGN  16249>>DOWHILE
     16267>>ASSIGN  16286>>ASSIGN  16288>>ASSIGN  16290>>ASSIGN  16292>>ASSIGN  16302>>IF      16302>>ASSIGN
     16302>>IF      16302>>ASSIGN  16302>>ASSIGN  16302>>ASSIGN  16303>>IF      16303>>ASSIGN  16303>>ASSIGN
     16303>>ASSIGN  16311>>IF      16311>>ASSIGN  16311>>IF      16311>>ASSIGN  16311>>ASSIGN  16311>>ASSIGN
     16312>>IF      16312>>ASSIGN  16312>>ASSIGN  16312>>ASSIGN  16318>>IF      16323>>ASSIGN  16324>>ASSIGN
     16332<>CALL
PRV_PTR$
     14027**DCL     16250<<ASSIGN  16278>>ASSIGN  16279>>ASSIGN  16286>>ASSIGN
PTR$
     14026**DCL     16245<<ASSIGN  16249>>DOWHILE 16249>>DOWHILE 16250>>ASSIGN  16251<<ASSIGN  16251>>ASSIGN
     16253>>IF      16261>>IF      16272>>IF
Y_BADL3LIST
     16161**DCL     16259<>CALL

PL6.E3A0      #008=KXS$TMR File=KXS$SUBS.:E05TSI                                 WED 07/30/97 02:30 Page:267
     1388        1        /*T***********************************************************/
     1389        2        /*T*                                                         */
     1390        3        /*T* Copyright (c) Bull HN Information Systems Inc., 1997    */
     1391        4        /*T*                                                         */
     1392        5        /*T***********************************************************/
     1393        6        /*F* NAME: KXS$TMR                   */
     1394        7        /*F* PURPOSE: Handle X.25 clock event scheduling  */
     1395        8
     1396        9        /*D* NAME: KXS$TMR                   */
     1397       10        /*D* PURPOSE: Handle one second clock events from
     1398       11                      clock management, turning those into
     1399       12                      X.25 events when necessary.  */
     1400       13        /*D* CALL: CALL KXS$TMR ( FPT_EXP );  */
     1401       14        /*D* INPUT: FPT_EXP - not used       */
     1402       15        /*D* OUTPUT: none                    */
     1403       16
     1404       17        KXS$TMR: PROC ( JUNK );
     1405       18
     1406       19        /*****************************************************************
     1407       20        *                           Includes                             *
     1408       21        *                                                                *
     1409       22        *****************************************************************/
     1410       23
     1411       24        %INCLUDE K_ID_E;
     1412       74        %K#ENTID_E;
     1413       93        %K#LYRID_E;
     1414      100        %INCLUDE KL_SUPER_C;
     1415     3002        %INCLUDE KL_MACRO_C;
     1416     6354        %INCLUDE KL_AFCN_C;
     1417     6455        %INCLUDE LCP_6;
     1418    10734        %INCLUDE CP_6_SUBS;
     1419    11274        %INCLUDE KH_MACRO_C;
     1420    12017        %INCLUDE KHA_FNC_E;
     1421    12117        %INCLUDE KL_CONTROL_C;
     1422    12497        %INCLUDE KX_EQUS_E;
     1423    12936        %INCLUDE KX_PERR_C;
     1424    13065        %INCLUDE KX_SCODE_C;
PL6.E3A0      #008=KXS$TMR File=KXS$SUBS.:E05TSI                                 WED 07/30/97 02:30 Page:268
     1425    13131        %INCLUDE KX_DATA_C;
     1426    13199        %INCLUDE KX_MACROS_M;
     1427    13970        %INCLUDE KV_GLBCNS_E;
     1428    14311        %KV#CQ_HNDID_E;
     1429    14316        %INCLUDE KH$CHN;
     1430    14438        %INCLUDE G_JIT_M;
     1431    14703        %INCLUDE K_ADDRESS_M;
     1432    15206        %INCLUDE KNH_MACRO_C;
     1433    15489        %EJECT;
PL6.E3A0      #008=KXS$TMR File=KXS$SUBS.:E05TSI                                 WED 07/30/97 02:30 Page:269
     1434    15490        /*****************************************************************
     1435    15491        *                                                                *
     1436    15492        *                          External References                   *
     1437    15493        *                                                                *
     1438    15494        *****************************************************************/
     1439    15495
     1440    15496    1   DCL KHI$DISABLE ENTRY (1);
     1441    15497    1   DCL KHI$ENABLE ENTRY;
     1442    15498    1   DCL KVB$RLSSYS ENTRY (2) ALTRET;
     1443    15499    1   DCL KVB$RLS2NSYS ENTRY (2) ALTRET;
     1444    15500    1   DCL KXX$X29 ENTRY (1);
     1445    15501    1   DCL KHD$SCREECH ENTRY (1);
     1446    15502    1   DCL KXV$VCNTW ENTRY(1) ALTRET;
     1447    15503    1   DCL KHA$ERRLOG ENTRY (2) ALTRET;
     1448    15504    1   DCL KHA$GET_CTX_PTR ENTRY (2) ALTRET;
     1449    15505    1   DCL KHA$DVCADM ENTRY (6) ALTRET;
     1450    15506    1   DCL KXF$FRAME ENTRY (1) ALTRET;
     1451    15507    1   DCL KXS$SYSLOG ENTRY (7);
     1452    15508    1   DCL KXP$PACKET ENTRY(1) ALTRET;
     1453    15509    1   DCL KVM$SNDCQ ENTRY (1) ALTRET;
     1454    15510        %EJECT;
PL6.E3A0      #008=KXS$TMR File=KXS$SUBS.:E05TSI                                 WED 07/30/97 02:30 Page:270
     1455    15511        /*****************************************************************
     1456    15512        *                                                                *
     1457    15513        *                           Auto                                 *
     1458    15514        *                                                                *
     1459    15515        *****************************************************************/
     1460    15516
     1461    15517    1   DCL JUNK UBIN;
     1462    15518
     1463    15519        %FPT_X25 ( FPTN = CALL_FPT, STCLASS = );
     1464    15563    1   DCL BLK$ PTR;
     1465    15564    1   DCL T$ PTR;
     1466    15565    1   DCL LEVEL UBIN;
     1467    15566    1   DCL KVBSIZ UBIN;
     1468    15567    1   DCL CHN$ PTR;
     1469    15568    1   DCL KHA_ERROR UBIN(32);
     1470    15569        %KNH$MESS ( FPTN = KNH_MESS, STCLASS = );
     1471    15618    1   DCL 1 KV@SNDCQ ALIGNED,
     1472    15619    1         2 MSG_ (0:5),
     1473    15620    1           3 ADR$ PTR,
     1474    15621    1           3 BYTX UBIN WORD,
     1475    15622    1           3 BYTSIZ UBIN WORD;
     1476    15623        %FPT_CONNECT ( FPTN = FPT@CONNECT, ADRTYP = X121, STCLASS = );
     1477    15794        %FPT_TERM ( FPTN = FPT@TERM, STCLASS = );
     1478    15816    1   DCL TRY_SNDCQ BIT (1);
     1479    15817
     1480    15818
     1481    15819        /*****************************************************************
     1482    15820        *                                                                *
     1483    15821        *                           Based                                *
     1484    15822        *                                                                *
     1485    15823        *****************************************************************/
     1486    15824
     1487    15825        %KX$TMRBLK ( STCLASS = "BASED ( BLK$ )" );
     1488    15857        %KX$TMRBLK ( FPTN = KX$BTMRBLK, STCLASS = BASED );
     1489    15889    1   DCL BASED_WORD UBIN BASED;
     1490    15890        %KX$SYSLOG_Q_ENTRY ( STCLASS = "BASED ( T$ )" );
     1491    15984        %KH$CHN ( STCLASS="BASED(CHN$)" );
PL6.E3A0      #008=KXS$TMR File=KXS$SUBS.:E05TSI                                 WED 07/30/97 02:30 Page:271
     1492    16108        %KX$L2 ( STCLASS = BASED );
     1493    16475        %G$JIT ( STCLASS = "BASED(G$JIT$)" );
     1494    16889
     1495    16890
     1496    16891        /*****************************************************************
     1497    16892        *                                                                *
     1498    16893        *                           Static                               *
     1499    16894        *                                                                *
     1500    16895        *****************************************************************/
     1501    16896
     1502    16897        %KH$CTLTBL ( FPTN = KH_CTLTBL, STCLASS = SYMREF );
     1503    17109        %KX_DATA;
     1504    17799    1   DCL ONE_MINUTE UBIN STATIC INIT(60);
     1505    17800        %EJECT;
PL6.E3A0      #008=KXS$TMR File=KXS$SUBS.:E05TSI                                 WED 07/30/97 02:30 Page:272
     1506    17801        /*****************************************************************
     1507    17802        *                                                                *
     1508    17803        *                           Constant                             *
     1509    17804        *                                                                *
     1510    17805        *****************************************************************/
     1511    17806
     1512    17807        %VLP_ERRCODE (STCLASS=CONSTANT,FCG='KX',MID='H',SEV=%G_WRSYSLOG_SEV_GOOD_HARD#,
     1513    17808                           FPTN = HRDERR,
     1514    17809                           ERR# = %E_KXH_HRDERR# );
     1515    17855        %VLP_ERRCODE (STCLASS=CONSTANT,FCG='KX',MID='F',SEV=%G_WRSYSLOG_SEV_SOFT#,
     1516    17856                            FPTN = REJ,
     1517    17857                            ERR# = %E_KXF_REJ# );
     1518    17903        /*E*    ERROR:      KXF-E_KXF_REJ#-3
     1519    17904                MESSAGE:    VAL(0) has #REJ frames received in last minute.
     1520    17905        */
     1521    17906    1   DCL G$JIT$ PTR SYMREF;
     1522    17907        %FPT_CONNECT ( FPTN = FPT_CONNECT_C, STCLASS = SYMREF );
     1523    17976        %FPT_TERM ( FPTN = FPT_TERM_C, STCLASS = SYMREF );
     1524    17998        %EJECT;
PL6.E3A0      #008=KXS$TMR File=KXS$SUBS.:E05TSI                                 WED 07/30/97 02:30 Page:273
     1525    17999        /*****************************************************************
     1526    18000        *                                                                *
     1527    18001        *                           Procedure                            *
     1528    18002        *                                                                *
     1529    18003        *****************************************************************/
     1530    18004
     1531    18005        /*
     1532    18006                                             Since the clock routine runs at
     1533    18007                                             the background level, disable.
     1534    18008        */
     1535    18009            %DISABLE;
     1536    18012
     1537    18013    1       BLK$ = KX_TMRBLK.QHD$;
     1538    18014    2       DO WHILE ( BLK$ ~= ADDR(NIL) );
     1539    18015    2          T$ = KX$TMRBLK.FLNK$;
     1540    18016    2          IF NOT KX$TMRBLK.ON
     1541    18017        /*
     1542    18018           All timer blocks in the chain should be ON. For whatever reason
     1543    18019           this block is here, ignore it and delink it.
     1544    18020        */
     1545    18021    2             THEN
     1546    18022    3                DO;
     1547    18023    3                   KX$TMRBLK.ON = '1'B;
     1548    18024                        %STOP_TIMER ( FPTN = KX$TMRBLK );
     1549    18033    3                END;
     1550    18034    2             ELSE
     1551    18035    3                DO;
     1552    18036    3                   KX$TMRBLK.CNT = KX$TMRBLK.CNT - 1;
     1553    18037    3                   IF KX$TMRBLK.CNT = 0
     1554    18038    3                      THEN
     1555    18039    4                         DO;
     1556    18040                                 %STOP_TIMER ( FPTN = KX$TMRBLK );
     1557    18049    4                            CALL_FPT = '0'B;
     1558    18050    4                            CALL_FPT.EVN = KX$TMRBLK.PRM;
     1559    18051    4                            CALL_FPT.RCV$ = KX$TMRBLK.CTX$;
     1560    18052    4                            CALL KX$TMRBLK.SBR$ ( CALL_FPT );
     1561    18053    4                         END;
PL6.E3A0      #008=KXS$TMR File=KXS$SUBS.:E05TSI                                 WED 07/30/97 02:30 Page:274
     1562    18054    3                END;
     1563    18055    2          BLK$ = T$;
     1564    18056    2       END;
     1565    18057
     1566    18058        /*
     1567    18059           Every second, call KXV$VCNTW so that SL can retry messages
     1568    18060           that failed to make it in the SCQ.
     1569    18061        */
     1570    18062    1       CALL_FPT = '0'B;
     1571    18063    1       IF KX_SLLIST.HD$ ~= ADDR(NIL)
     1572    18064    1          THEN
     1573    18065    2             DO;
     1574    18066    2                CALL_FPT.EVN = %KX_CM_EV_CHKSCQ#;
     1575    18067    2                CALL_FPT.RCV$ = KX_SLLIST.HD$;
     1576    18068    2                CALL KXV$VCNTW ( CALL_FPT );
     1577    18069    2             END;
     1578    18070
     1579    18071    1       TRY_SNDCQ = '1'B;
     1580    18072    1       FPT@CONNECT = FPT_CONNECT_C;
     1581    18073    1       FPT@CONNECT.RLCID.FLAGS.VIRCIR = '0'B;
     1582    18074    1       FPT@TERM = FPT_TERM_C;
     1583    18075    1       KNH_MESS = '0'B;
     1584    18076    1       KV@SNDCQ = '0'B;
     1585    18077    1       KV@SNDCQ.MSG_.ADR$ (0) = ADDR ( KNH_MESS );
     1586    18078    1       KV@SNDCQ.MSG_.BYTSIZ (0) = ( LENGTHC (KNH_MESS) + 3 ) / 4 * 4;
     1587    18079        /*
     1588    18080           check need for link assurance.
     1589    18081            Also check the need to send any INIT or TERM.
     1590    18082        */
     1591    18083    1       ONE_MINUTE = ONE_MINUTE - 1;
     1592    18084    1       IF ONE_MINUTE = 0 THEN ONE_MINUTE = 60;
     1593    18085    1       CALL_FPT.EVN = %KX_F_EV_TO#;
     1594    18086    1       T$ = KX_CNTX.HD$;
     1595    18087    2       DO WHILE ( T$ ~= ADDR(NIL) );
     1596    18088    2          IF T$->KX$L2.IDL_PRD ~= 0 AND T$->KX$L2.STATE.CURRENT = 4
     1597    18089    2             AND NOT T$->KX$L2.CHN$->KH$CHN.ATTR&%G_ATTR_CL_SLCC
     1598    18090    2             AND NOT T$->KX$L2.TMRBLK.ON
PL6.E3A0      #008=KXS$TMR File=KXS$SUBS.:E05TSI                                 WED 07/30/97 02:30 Page:275
     1599    18091    2             THEN
     1600    18092    3                DO;
     1601    18093    3                   T$->KX$L2.IDL_CLK = T$->KX$L2.IDL_CLK - 1;
     1602    18094    3                   IF T$->KX$L2.IDL_CLK = 0
     1603    18095    3                      THEN
     1604    18096    4                         DO;
     1605    18097    4                            KX_STATS_HDLC.TIMEOUTS = KX_STATS_HDLC.TIMEOUTS - 1;
     1606    18098    4                            CALL_FPT.RCV$ = T$;
     1607    18099    4                            CALL KXF$FRAME ( CALL_FPT );
     1608    18100    4                         END;
     1609    18101    3                END;
     1610    18102        /*
     1611    18103           Check for need to log REJ frames.
     1612    18104        */
     1613    18105    2          IF ONE_MINUTE = 60 AND T$->KX$L2.REJ_CNT > 0
     1614    18106    2             THEN
     1615    18107    3                DO;
     1616    18108                        %WRSYSLOG ( ERRCOD = REJ,
     1617    18109                        TRMID = "T$->KX$L2.CHN$->KH$CHN.TERMID",
     1618    18110                        VAL0 = "T$->KX$L2.REJ_CNT" );
     1619    18128    3                   T$->KX$L2.REJ_CNT = 0;
     1620    18129    3                END;
     1621    18130    2          IF T$->KX$L2.INIT_ALTRET AND TRY_SNDCQ
     1622    18131    2             THEN
     1623    18132    3                DO;
     1624    18133    3                   FPT@CONNECT.TERMINAL_ID = T$->KX$L2.CHN$->KH$CHN.TERMID;
     1625    18134    3                   FPT@CONNECT.DSTSNPA = T$->KX$L2.DSTSNPA;
     1626    18135    3                   KNH_MESS.FUNCTION = %KN_FCN_INIT;
     1627    18136    3                   KNH_MESS.FPTSZ = 2 * SIZEW ( FPT@CONNECT );
     1628    18137    3                   KV@SNDCQ.MSG_.ADR$ (1) = ADDR ( FPT@CONNECT );
     1629    18138    3                   KV@SNDCQ.MSG_.BYTSIZ (1) = ( LENGTHC(FPT@CONNECT)+3 )/4*4;
     1630    18139    3                   CALL KVM$SNDCQ ( KV@SNDCQ ) WHENRETURN
     1631    18140    4                         DO;
     1632    18141    4                            T$->KX$L2.INIT_ALTRET = '0'B;
     1633    18142    4                         END;
     1634    18143    3                      WHENALTRETURN
     1635    18144    4                         DO;
PL6.E3A0      #008=KXS$TMR File=KXS$SUBS.:E05TSI                                 WED 07/30/97 02:30 Page:276
     1636    18145    4                            TRY_SNDCQ = '0'B;
     1637    18146    4                         END;
     1638    18147    3                END;
     1639    18148    2          IF T$->KX$L2.TERM_ALTRET AND TRY_SNDCQ
     1640    18149    2             THEN
     1641    18150    3                DO;
     1642    18151    3                   FPT@TERM.RLCID.LDCTX =  T$->KX$L2.LDCTX;
     1643    18152    3                   KNH_MESS.FUNCTION = %KN_FCN_TERM;
     1644    18153    3                   KNH_MESS.FPTSZ = 2 * SIZEW ( FPT@TERM );
     1645    18154    3                   KV@SNDCQ.MSG_.ADR$ (1) = ADDR ( FPT@TERM );
     1646    18155    3                   KV@SNDCQ.MSG_.BYTSIZ (1) = ( LENGTHC(FPT@TERM)+3 )/4*4;
     1647    18156    3                   CALL KVM$SNDCQ ( KV@SNDCQ ) WHENRETURN
     1648    18157    4                         DO;
     1649    18158    4                            T$->KX$L2.TERM_ALTRET = '0'B;
     1650    18159    4                         END;
     1651    18160    3                      WHENALTRETURN
     1652    18161    4                         DO;
     1653    18162    4                            TRY_SNDCQ = '0'B;
     1654    18163    4                         END;
     1655    18164    3                END;
     1656    18165    2          T$ = T$->KX$L2.NEXT$;
     1657    18166    2       END;
     1658    18167        /*
     1659    18168           Call kxp to look for idle circuits.
     1660    18169        */
     1661    18170    1       CALL_FPT.EVN = %KX_P_EV_IDLCLK#;
     1662    18171    1       CALL_FPT.RCV$ = ADDR(NIL);
     1663    18172    1       CALL KXP$PACKET ( CALL_FPT );
     1664    18173        /*
     1665    18174                                             If any syslogs could not be
     1666    18175                                             processed off of an inhibited
     1667    18176                                             level, they are queued and
     1668    18177                                             should be sent now.
     1669    18178        */
     1670    18179    2   SYSLOG_LOOP: DO WHILE ( KX_SYSLOG.HD$ ~= ADDR(NIL) );
     1671    18180    2          T$ = KX_SYSLOG.HD$;
     1672    18181    2          KVBSIZ = SIZEW ( KX$SYSLOG_Q_ENTRY );
PL6.E3A0      #008=KXS$TMR File=KXS$SUBS.:E05TSI                                 WED 07/30/97 02:30 Page:277
     1673    18182    2          IF KX$SYSLOG_Q_ENTRY.FPT.V.ERRCOD = HRDERR
     1674    18183    2             THEN
     1675    18184    3                DO;
     1676    18185    3                   IF ( KX$SYSLOG_Q_ENTRY.NXT$ = ADDR(NIL) )
     1677    18186    3                      THEN
     1678    18187    4                         DO;
     1679    18188    4                            KX$SYSLOG_Q_ENTRY.FPT.V.VALUES(0) =
     1680    18189    4                               KX$SYSLOG_Q_ENTRY.FPT.V.VALUES(0) + 1;
     1681    18190    4                            IF ( KX$SYSLOG_Q_ENTRY.FPT.V.VALUES(0) < 60 )
     1682    18191    4                               THEN
     1683    18192    4                                  EXIT SYSLOG_LOOP;
     1684    18193    4                               ELSE
     1685    18194    4                                  GOTO KILL_LINK;
     1686    18195    4                         END;
     1687    18196    3                      ELSE
     1688    18197    3   KILL_LINK:            IF ( KX_LINERRDSCLMT ~= 255 ) AND
     1689    18198    3                            ( KX$SYSLOG_Q_ENTRY.FPT.V.VALUES(2) > KX_LINERRDSCLMT )
     1690    18199    3                            THEN
     1691    18200    4                               DO;
     1692    18201    4                                  CALL KHA$GET_CTX_PTR ( KX$SYSLOG_Q_ENTRY.FPT.V.TRMID,
             18201                                           CHN$ )
     1693    18202    5                                     WHENALTRETURN DO;
     1694    18203    5                                           KX_SYSLOG.HD$ = KX$SYSLOG_Q_ENTRY.NXT$;
     1695    18204    5                                           GOTO RLS;
     1696    18205    5                                        END;
     1697    18206    5                                  IF KH$CHN.CTX$ ~= ADDR(NIL) THEN DO;
     1698    18207    5                                           CALL KHA$DVCADM ( %KHA_FNC_KILL,
     1699    18208    5                                              KHA_ERROR,
     1700    18209    5                                              KH$CHN.TERMID,
     1701    18210    5                                              KH$CHN.TERMID, ,1 );
     1702    18211    5                                        END;
     1703    18212        /* Change the errlog to say LINERRDSC */
     1704    18213    4                                  KX$SYSLOG_Q_ENTRY.FPT.V.ERRCOD.ERR# = %
             18213                                           E_KXH_LINERRDSC#;
     1705    18214    4                               END;
     1706    18215    3                END;
     1707    18216    2          KX_SYSLOG.HD$ = KX$SYSLOG_Q_ENTRY.NXT$;
PL6.E3A0      #008=KXS$TMR File=KXS$SUBS.:E05TSI                                 WED 07/30/97 02:30 Page:278
     1708    18217    2          CALL KHA$ERRLOG ( KX$SYSLOG_Q_ENTRY.FPT, 1 )
     1709    18218    2             WHENALTRETURN
     1710    18219    3                DO;
     1711    18220    3                   KX_SYSLOG.HD$ = T$;
     1712    18221    3                   EXIT SYSLOG_LOOP;
     1713    18222    3                END;
     1714    18223        /*
     1715    18224           KX$SYSLOG_Q_ENTRY has a variable size char array at the end.
     1716    18225           But SIZEW still calculates the right size for you.
     1717    18226        */
     1718    18227    2          IF KX$SYSLOG_Q_ENTRY.FPT.V.TRMID.LEV = %TERMINAL_ID_LEV_CHAN# THEN
     1719    18228    2                CALL KHA$GET_CTX_PTR ( KX$SYSLOG_Q_ENTRY.FPT.V.TRMID, CHN$ )
     1720    18229    2                   WHENRETURN
     1721    18230    3                      DO;
     1722    18231    4                         IF KH$CHN.CTX$ ~= ADDR(NIL) THEN DO;
     1723    18232    4                                  KH$CHN.CTX$->KX$L2.ERRLOGWRDCNT =
     1724    18233    4                                     KH$CHN.CTX$->KX$L2.ERRLOGWRDCNT - KVBSIZ;
     1725    18234    4                               END;
     1726    18235    3                      END;
     1727    18236    3                   WHENALTRETURN DO; /*N* Do we care? */ END;
     1728    18237    2   RLS:   CALL KVB$RLSSYS ( KVBSIZ, T$ );
     1729    18238    2       END;
     1730    18239    1       IF KX_SYSLOG.HD$ = ADDR(NIL)
     1731    18240    1          THEN
     1732    18241    1             KX_SYSLOG.TL$ = ADDR(NIL);
     1733    18242
     1734    18243            %ENABLE;
     1735    18246
     1736    18247    1       RETURN;
     1737    18248
     1738    18249    1   END KXS$TMR;
     1739    18250        %EOD;

PL6.E3A0      #008=KXS$TMR File=KXS$SUBS.:E05TSI                                 WED 07/30/97 02:30 Page:279
--  Include file information  --

   KNH_MACRO_C.:E05TOU  is referenced.
   K_ADDRESS_M.:E05TOU  is referenced.
   G_JIT_M.:E05TOU  is referenced.
   KH$CHN.:E05TOU  is referenced.
   KV_GLBCNS_E.:E05TOU  is referenced.
   KX_MACROS_M.:E05TOU  is referenced.
   KX_DATA_C.:E05TOU  is referenced.
   KX_SCODE_C.:E05TOU  is referenced.
   KX_PERR_C.:E05TOU  is referenced.
   KX_EQUS_E.:E05TOU  is referenced.
   KL_CONTROL_C.:E05TOU  is referenced.
   KHA_FNC_E.:E05TOU  is referenced.
   KH_MACRO_C.:E05TOU  is referenced.
   CP_6_SUBS.:E05TOU  is referenced.
   G_LCP6_E.:E05TOU  is referenced.
   GT_LCP6_M.:E05TOU  is referenced.
   KI_CP6.:E05TOU  is referenced.
   GF_LCP6_M.:E05TOU  is referenced.
   GM_LCP6_M.:E05TOU  is referenced.
   GU_LCP6_M.:E05TOU  is referenced.
   GJ_LCP6_M.:E05TOU  is referenced.
   GH_LCP6_M.:E05TOU  is referenced.
   LCP_6.:E05TOU  cannot be made into a system file and is referenced.
   KL_AFCN_C.:E05TOU  is referenced.
   KL_MACRO_C.:E05TOU  is referenced.
   KL_SUPER_C.:E05TOU  is referenced.
   K_ID_E.:E05TOU  is referenced.
      No diagnostics issued in procedure KXS$TMR.

   Procedure KXS$TMR requires 751 words for executable code.
   Procedure KXS$TMR requires 126 words of local(AUTO) storage.

PL6.E3A0      #008=KXS$TMR File=KXS$SUBS.:E05TSI                                 WED 07/30/97 02:30 Page:280

 Object Unit name= KXS$TMR                                    File name= KXS$SUBS.:E05TOU
 UTS= JUL 30 '97 02:30:51.00 WED                              Compiler= PL-6/E31         Sev=      00
 SharedLib= :SHARED_LCP6_SYSTEM                               Alt SharedLib=


    ****  Control sections  ****

 Sect   Type Bound  Init  Size HexSiz  Section name
    0   Data  even  none     1      1  KXS$TMR
    1  RoData even  UTS      4      4  KXS$TMR
    2   Proc  even  none   751    2EF  KXS$TMR

    ****  Entry defs  ****

                              Check   Calling
                             calling  sequence
  Sect HexLoc Primary Altret sequence   type   Parms  Name
     2      0   yes            yes      Std        1  KXS$TMR

  ****  Entry refs  ****

         Check        Calling
        calling       sequence
Altret sequence SRef   type   Args  Name
         yes           Std       1 KHI$DISABLE
 yes     yes           Std       1 KXF$FRAME
         yes           Std       7 KXS$SYSLOG
 yes     yes           Std       1 KXP$PACKET
 yes     yes           Std       2 KHA$GET_CTX_PTR
 yes     yes           Std       6 KHA$DVCADM
         yes           Std       0 KHI$ENABLE
 yes     yes           Std       2 KHA$ERRLOG
 yes     yes           Std       1 KXV$VCNTW
 yes     yes           Std       2 KVB$RLSSYS
 yes     yes           Std       1 KVM$SNDCQ
                       nStd      0 X6A_AUTO_1
                       nStd      0 X6A_ARET
PL6.E3A0      #008=KXS$TMR File=KXS$SUBS.:E05TSI                                 WED 07/30/97 02:30 Page:281

  ****  Data refs  ****

  Flags:  r = read only, s = secondary
Flgs Name                             Flgs Name                             Flgs Name
     KH_CTLTBL                             KX_CNTX                               KX_SLLIST
     KX_TMRBLK                             KX_STATS_HDLC                         KX_LINERRDSCLMT
     KX_SYSLOG                             KX_PM$                                G$JIT$
     FPT_CONNECT_C                         FPT_TERM_C                       r    G$ROS$
PL6.E3A0      #008=KXS$TMR File=KXS$SUBS.:E05TSI                                 WED 07/30/97 02:30 Page:282


     1388        1        /*T***********************************************************/
     1389        2        /*T*                                                         */
     1390        3        /*T* Copyright (c) Bull HN Information Systems Inc., 1997    */
     1391        4        /*T*                                                         */
     1392        5        /*T***********************************************************/
     1393        6        /*F* NAME: KXS$TMR                   */
     1394        7        /*F* PURPOSE: Handle X.25 clock event scheduling  */
     1395        8
     1396        9        /*D* NAME: KXS$TMR                   */
     1397       10        /*D* PURPOSE: Handle one second clock events from
     1398       11                      clock management, turning those into
     1399       12                      X.25 events when necessary.  */
     1400       13        /*D* CALL: CALL KXS$TMR ( FPT_EXP );  */
     1401       14        /*D* INPUT: FPT_EXP - not used       */
     1402       15        /*D* OUTPUT: none                    */
     1403       16
     1404       17        KXS$TMR: PROC ( JUNK );

     17   2 000000  D380 0000 0000  xent KXS$TMR         LNJ,B5   X6A_AUTO_1
          2 000003       007E 0001                       DC       126,1

     1405       18
     1406       19        /*****************************************************************
     1407       20        *                           Includes                             *
     1408       21        *                                                                *
     1409       22        *****************************************************************/
     1410       23
     1411       24        %INCLUDE K_ID_E;
     1412       74        %K#ENTID_E;
     1413       93        %K#LYRID_E;
     1414      100        %INCLUDE KL_SUPER_C;
     1415     3002        %INCLUDE KL_MACRO_C;
     1416     6354        %INCLUDE KL_AFCN_C;
     1417     6455        %INCLUDE LCP_6;
     1418    10734        %INCLUDE CP_6_SUBS;
     1419    11274        %INCLUDE KH_MACRO_C;
PL6.E3A0      #008=KXS$TMR File=KXS$SUBS.:E05TSI                                 WED 07/30/97 02:30 Page:283
     1420    12017        %INCLUDE KHA_FNC_E;
     1421    12117        %INCLUDE KL_CONTROL_C;
     1422    12497        %INCLUDE KX_EQUS_E;
     1423    12936        %INCLUDE KX_PERR_C;
     1424    13065        %INCLUDE KX_SCODE_C;
     1425    13131        %INCLUDE KX_DATA_C;
     1426    13199        %INCLUDE KX_MACROS_M;
     1427    13970        %INCLUDE KV_GLBCNS_E;
     1428    14311        %KV#CQ_HNDID_E;
     1429    14316        %INCLUDE KH$CHN;
     1430    14438        %INCLUDE G_JIT_M;
     1431    14703        %INCLUDE K_ADDRESS_M;
     1432    15206        %INCLUDE KNH_MACRO_C;
     1433    15489        %EJECT;
PL6.E3A0      #008=KXS$TMR File=KXS$SUBS.:E05TSI                                 WED 07/30/97 02:30 Page:284
     1434    15490        /*****************************************************************
     1435    15491        *                                                                *
     1436    15492        *                          External References                   *
     1437    15493        *                                                                *
     1438    15494        *****************************************************************/
     1439    15495
     1440    15496    1   DCL KHI$DISABLE ENTRY (1);
     1441    15497    1   DCL KHI$ENABLE ENTRY;
     1442    15498    1   DCL KVB$RLSSYS ENTRY (2) ALTRET;
     1443    15499    1   DCL KVB$RLS2NSYS ENTRY (2) ALTRET;
     1444    15500    1   DCL KXX$X29 ENTRY (1);
     1445    15501    1   DCL KHD$SCREECH ENTRY (1);
     1446    15502    1   DCL KXV$VCNTW ENTRY(1) ALTRET;
     1447    15503    1   DCL KHA$ERRLOG ENTRY (2) ALTRET;
     1448    15504    1   DCL KHA$GET_CTX_PTR ENTRY (2) ALTRET;
     1449    15505    1   DCL KHA$DVCADM ENTRY (6) ALTRET;
     1450    15506    1   DCL KXF$FRAME ENTRY (1) ALTRET;
     1451    15507    1   DCL KXS$SYSLOG ENTRY (7);
     1452    15508    1   DCL KXP$PACKET ENTRY(1) ALTRET;
     1453    15509    1   DCL KVM$SNDCQ ENTRY (1) ALTRET;
     1454    15510        %EJECT;
PL6.E3A0      #008=KXS$TMR File=KXS$SUBS.:E05TSI                                 WED 07/30/97 02:30 Page:285
     1455    15511        /*****************************************************************
     1456    15512        *                                                                *
     1457    15513        *                           Auto                                 *
     1458    15514        *                                                                *
     1459    15515        *****************************************************************/
     1460    15516
     1461    15517    1   DCL JUNK UBIN;
     1462    15518
     1463    15519        %FPT_X25 ( FPTN = CALL_FPT, STCLASS = );
     1464    15563    1   DCL BLK$ PTR;
     1465    15564    1   DCL T$ PTR;
     1466    15565    1   DCL LEVEL UBIN;
     1467    15566    1   DCL KVBSIZ UBIN;
     1468    15567    1   DCL CHN$ PTR;
     1469    15568    1   DCL KHA_ERROR UBIN(32);
     1470    15569        %KNH$MESS ( FPTN = KNH_MESS, STCLASS = );
     1471    15618    1   DCL 1 KV@SNDCQ ALIGNED,
     1472    15619    1         2 MSG_ (0:5),
     1473    15620    1           3 ADR$ PTR,
     1474    15621    1           3 BYTX UBIN WORD,
     1475    15622    1           3 BYTSIZ UBIN WORD;
     1476    15623        %FPT_CONNECT ( FPTN = FPT@CONNECT, ADRTYP = X121, STCLASS = );
     1477    15794        %FPT_TERM ( FPTN = FPT@TERM, STCLASS = );
     1478    15816    1   DCL TRY_SNDCQ BIT (1);
     1479    15817
     1480    15818
     1481    15819        /*****************************************************************
     1482    15820        *                                                                *
     1483    15821        *                           Based                                *
     1484    15822        *                                                                *
     1485    15823        *****************************************************************/
     1486    15824
     1487    15825        %KX$TMRBLK ( STCLASS = "BASED ( BLK$ )" );
     1488    15857        %KX$TMRBLK ( FPTN = KX$BTMRBLK, STCLASS = BASED );
     1489    15889    1   DCL BASED_WORD UBIN BASED;
     1490    15890        %KX$SYSLOG_Q_ENTRY ( STCLASS = "BASED ( T$ )" );
     1491    15984        %KH$CHN ( STCLASS="BASED(CHN$)" );
PL6.E3A0      #008=KXS$TMR File=KXS$SUBS.:E05TSI                                 WED 07/30/97 02:30 Page:286
     1492    16108        %KX$L2 ( STCLASS = BASED );
     1493    16475        %G$JIT ( STCLASS = "BASED(G$JIT$)" );
     1494    16889
     1495    16890
     1496    16891        /*****************************************************************
     1497    16892        *                                                                *
     1498    16893        *                           Static                               *
     1499    16894        *                                                                *
     1500    16895        *****************************************************************/
     1501    16896
     1502    16897        %KH$CTLTBL ( FPTN = KH_CTLTBL, STCLASS = SYMREF );
     1503    17109        %KX_DATA;
     1504    17799    1   DCL ONE_MINUTE UBIN STATIC INIT(60);
     1505    17800        %EJECT;
PL6.E3A0      #008=KXS$TMR File=KXS$SUBS.:E05TSI                                 WED 07/30/97 02:30 Page:287
     1506    17801        /*****************************************************************
     1507    17802        *                                                                *
     1508    17803        *                           Constant                             *
     1509    17804        *                                                                *
     1510    17805        *****************************************************************/
     1511    17806
     1512    17807        %VLP_ERRCODE (STCLASS=CONSTANT,FCG='KX',MID='H',SEV=%G_WRSYSLOG_SEV_GOOD_HARD#,
     1513    17808                           FPTN = HRDERR,
     1514    17809                           ERR# = %E_KXH_HRDERR# );
     1515    17855        %VLP_ERRCODE (STCLASS=CONSTANT,FCG='KX',MID='F',SEV=%G_WRSYSLOG_SEV_SOFT#,
     1516    17856                            FPTN = REJ,
     1517    17857                            ERR# = %E_KXF_REJ# );
     1518    17903        /*E*    ERROR:      KXF-E_KXF_REJ#-3
     1519    17904                MESSAGE:    VAL(0) has #REJ frames received in last minute.
     1520    17905        */
     1521    17906    1   DCL G$JIT$ PTR SYMREF;
     1522    17907        %FPT_CONNECT ( FPTN = FPT_CONNECT_C, STCLASS = SYMREF );
     1523    17976        %FPT_TERM ( FPTN = FPT_TERM_C, STCLASS = SYMREF );
     1524    17998        %EJECT;
PL6.E3A0      #008=KXS$TMR File=KXS$SUBS.:E05TSI                                 WED 07/30/97 02:30 Page:288
     1525    17999        /*****************************************************************
     1526    18000        *                                                                *
     1527    18001        *                           Procedure                            *
     1528    18002        *                                                                *
     1529    18003        *****************************************************************/
     1530    18004
     1531    18005        /*
     1532    18006                                             Since the clock routine runs at
     1533    18007                                             the background level, disable.
     1534    18008        */
     1535    18009            %DISABLE;

  18010   2 000005  EC80 0000 0002  xsym                 LDB,B6   KH_CTLTBL+2
          2 000008  E806                                 LDR,R6   ,B6
          2 000009  EF47 001A                            STR,R6   LEVEL,AUTO

  18010   2 00000B  DBC7 001A                            LAB,B5   LEVEL,AUTO
          2 00000D  DFC7 0072                            STB,B5   TRY_SNDCQ+1,AUTO
          2 00000F  BBC7 0072                            LAB,B3   TRY_SNDCQ+1,AUTO
          2 000011  CBF0 0100                            LAB,B4   256,IMO
          2 000013  E380 0000 0000  xent                 LNJ,B6   KHI$DISABLE
          2 000016       0001                            DC       s:18013,PREL

     1536    18012
     1537    18013    1       BLK$ = KX_TMRBLK.QHD$;

  18013   2 000017  EC80 0000 0000  xsym                 LDB,B6   KX_TMRBLK
          2 00001A  EFC7 0016                            STB,B6   BLK$,AUTO

     1538    18014    2       DO WHILE ( BLK$ ~= ADDR(NIL) );

  18014   2 00001C  0F81 0084                            B        s:18056,PREL

     1539    18015    2          T$ = KX$TMRBLK.FLNK$;

  18015   2 00001E  ECC7 0016                            LDB,B6   BLK$,AUTO
          2 000020  DC86                                 LDB,B5   ,B6
PL6.E3A0      #008=KXS$TMR File=KXS$SUBS.:E05TSI                                 WED 07/30/97 02:30 Page:289
          2 000021  DFC7 0018                            STB,B5   T$,AUTO

     1540    18016    2          IF NOT KX$TMRBLK.ON

  18016   2 000023  89C6 0009                            CMZ      9,B6
          2 000025  0801 002A                            BAL      s:18036,PREL

     1541    18017        /*
     1542    18018           All timer blocks in the chain should be ON. For whatever reason
     1543    18019           this block is here, ignore it and delink it.
     1544    18020        */
     1545    18021    2             THEN
     1546    18022    3                DO;

     1547    18023    3                   KX$TMRBLK.ON = '1'B;

  18023   2 000027  8946 0009                            LBT,'8000'X       9,B6
  18023   2 000029       8000

     1548    18024                        %STOP_TIMER ( FPTN = KX$TMRBLK );

  18029   2 00002A  89C6 0009                            CMZ      9,B6
          2 00002C  0881 0070                            BAGE     s:18055,PREL

  18029   2 00002E  8846 0009                            LBF,'8000'X       9,B6
  18029   2 000030       8000

  18029   2 000031  8D86                                 CMN      ,B6
          2 000032  0981 0008                            BNE      s:18029+17,PREL

  18029   2 000034  DCC6 0002                            LDB,B5   2,B6
          2 000036  DF80 0000 0002  xsym                 STB,B5   KX_TMRBLK+2
          2 000039  0F81 0006                            B        s:18030,PREL

  18029   2 00003B  DC86                                 LDB,B5   ,B6
          2 00003C  CCC6 0002                            LDB,B4   2,B6
          2 00003E  CFC5 0002                            STB,B4   2,B5
PL6.E3A0      #008=KXS$TMR File=KXS$SUBS.:E05TSI                                 WED 07/30/97 02:30 Page:290

  18030   2 000040  8DC6 0002                            CMN      2,B6
          2 000042  0981 0007                            BNE      s:18030+10,PREL

  18030   2 000044  DC86                                 LDB,B5   ,B6
          2 000045  DF80 0000 0000  xsym                 STB,B5   KX_TMRBLK
          2 000048  0F81 0054                            B        s:18055,PREL

  18030   2 00004A  DCC6 0002                            LDB,B5   2,B6
          2 00004C  CC86                                 LDB,B4   ,B6
          2 00004D  CF85                                 STB,B4   ,B5

     1549    18033    3                END;

  18033   2 00004E  0F81 004E                            B        s:18055,PREL

     1550    18034    2             ELSE
     1551    18035    3                DO;

     1552    18036    3                   KX$TMRBLK.CNT = KX$TMRBLK.CNT - 1;

  18036   2 000050  E846 0008                            LDR,R6   8,B6
          2 000052  EA70 00FF                            ADD,R6   255,IMO
          2 000054  EAC6 0008                            SRM,R6,'00FF'X    8,B6
          2 000056       00FF

     1553    18037    3                   IF KX$TMRBLK.CNT = 0

  18037   2 000057  82C6 0008                            LB,'00FF'X        8,B6
  18037   2 000059       00FF
          2 00005A  0501 0042                            BBT      s:18055,PREL

     1554    18038    3                      THEN
     1555    18039    4                         DO;

     1556    18040                                 %STOP_TIMER ( FPTN = KX$TMRBLK );

PL6.E3A0      #008=KXS$TMR File=KXS$SUBS.:E05TSI                                 WED 07/30/97 02:30 Page:291
  18045   2 00005C  89C6 0009                            CMZ      9,B6
          2 00005E  0881 0021                            BAGE     s:18049,PREL

  18045   2 000060  8846 0009                            LBF,'8000'X       9,B6
  18045   2 000062       8000

  18045   2 000063  8D86                                 CMN      ,B6
          2 000064  0981 0008                            BNE      s:18045+17,PREL

  18045   2 000066  DCC6 0002                            LDB,B5   2,B6
          2 000068  DF80 0000 0002  xsym                 STB,B5   KX_TMRBLK+2
          2 00006B  0F81 0006                            B        s:18046,PREL

  18045   2 00006D  DC86                                 LDB,B5   ,B6
          2 00006E  CCC6 0002                            LDB,B4   2,B6
          2 000070  CFC5 0002                            STB,B4   2,B5

  18046   2 000072  8DC6 0002                            CMN      2,B6
          2 000074  0981 0007                            BNE      s:18046+10,PREL

  18046   2 000076  DC86                                 LDB,B5   ,B6
          2 000077  DF80 0000 0000  xsym                 STB,B5   KX_TMRBLK
          2 00007A  0F81 0005                            B        s:18049,PREL

  18046   2 00007C  DCC6 0002                            LDB,B5   2,B6
          2 00007E  CC86                                 LDB,B4   ,B6
          2 00007F  CF85                                 STB,B4   ,B5

     1557    18049    4                            CALL_FPT = '0'B;

  18049   2 000080  5C20                                 LDV,R5   32
          2 000081  0021                                 ALR      ;
          2 000082       4178 0000                                ALPHANUM('0000'X,IMO,,1),;
          2 000084       4007 0006                                ALPHANUM(CALL_FPT,AUTO,,R5,FILL)

     1558    18050    4                            CALL_FPT.EVN = KX$TMRBLK.PRM;

PL6.E3A0      #008=KXS$TMR File=KXS$SUBS.:E05TSI                                 WED 07/30/97 02:30 Page:292
  18050   2 000086  437F                                 CSYNC    s:18049+5,SPREL
          2 000087  ECC7 0016                            LDB,B6   BLK$,AUTO
          2 000089  E2C6 0008                            LLH,R6   8,B6
          2 00008B  EF47 0006                            STR,R6   CALL_FPT,AUTO

     1559    18051    4                            CALL_FPT.RCV$ = KX$TMRBLK.CTX$;

  18051   2 00008D  DCC6 0004                            LDB,B5   4,B6
          2 00008F  DFC7 0009                            STB,B5   CALL_FPT+3,AUTO

     1560    18052    4                            CALL KX$TMRBLK.SBR$ ( CALL_FPT );

  18052   2 000091  CBC7 0006                            LAB,B4   CALL_FPT,AUTO
          2 000093  CFC7 0072                            STB,B4   TRY_SNDCQ+1,AUTO
          2 000095  BBC7 0072                            LAB,B3   TRY_SNDCQ+1,AUTO
          2 000097  9CC6 0006                            LDB,B1   6,B6
          2 000099  CBF0 0100                            LAB,B4   256,IMO
          2 00009B  E381                                 LNJ,B6   ,B1
          2 00009C       0001                            DC       s:18055,PREL

     1561    18053    4                         END;

     1562    18054    3                END;

     1563    18055    2          BLK$ = T$;

  18055   2 00009D  ECC7 0018                            LDB,B6   T$,AUTO
          2 00009F  EFC7 0016                            STB,B6   BLK$,AUTO

     1564    18056    2       END;

  18056   2 0000A1  8DC7 0016                            CMN      BLK$,AUTO
          2 0000A3  0981 FF7A                            BNE      s:18015,PREL

     1565    18057
     1566    18058        /*
     1567    18059           Every second, call KXV$VCNTW so that SL can retry messages
PL6.E3A0      #008=KXS$TMR File=KXS$SUBS.:E05TSI                                 WED 07/30/97 02:30 Page:293
     1568    18060           that failed to make it in the SCQ.
     1569    18061        */
     1570    18062    1       CALL_FPT = '0'B;

  18062   2 0000A5  5C20                                 LDV,R5   32
          2 0000A6  0021                                 ALR      ;
          2 0000A7       4178 0000                                ALPHANUM('0000'X,IMO,,1),;
          2 0000A9       4007 0006                                ALPHANUM(CALL_FPT,AUTO,,R5,FILL)

     1571    18063    1       IF KX_SLLIST.HD$ ~= ADDR(NIL)

  18063   2 0000AB  8D80 0000 0000  xsym                 CMN      KX_SLLIST
          2 0000AE  437F                                 CSYNC    s:18063+2,SPREL
          2 0000AF  0901 0015                            BE       s:18071,PREL

     1572    18064    1          THEN
     1573    18065    2             DO;

     1574    18066    2                CALL_FPT.EVN = %KX_CM_EV_CHKSCQ#;

  18066   2 0000B1  6C16                                 LDV,R6   22
          2 0000B2  EF47 0006                            STR,R6   CALL_FPT,AUTO

     1575    18067    2                CALL_FPT.RCV$ = KX_SLLIST.HD$;

  18067   2 0000B4  EC80 0000 0000  xsym                 LDB,B6   KX_SLLIST
          2 0000B7  EFC7 0009                            STB,B6   CALL_FPT+3,AUTO

     1576    18068    2                CALL KXV$VCNTW ( CALL_FPT );

  18068   2 0000B9  DBC7 0006                            LAB,B5   CALL_FPT,AUTO
          2 0000BB  DFC7 0072                            STB,B5   TRY_SNDCQ+1,AUTO
          2 0000BD  BBC7 0072                            LAB,B3   TRY_SNDCQ+1,AUTO
          2 0000BF  CBF0 0100                            LAB,B4   256,IMO
          2 0000C1  E380 0000 0000  xent                 LNJ,B6   KXV$VCNTW
          2 0000C4       0001                            DC       s:18071,PREL

PL6.E3A0      #008=KXS$TMR File=KXS$SUBS.:E05TSI                                 WED 07/30/97 02:30 Page:294
     1577    18069    2             END;

     1578    18070
     1579    18071    1       TRY_SNDCQ = '1'B;

  18071   2 0000C5  8947 0071                            LBT,'8000'X       TRY_SNDCQ,AUTO
  18071   2 0000C7       8000

     1580    18072    1       FPT@CONNECT = FPT_CONNECT_C;

  18072   2 0000C8  EB80 0000 0000  xsym                 LAB,B6   FPT_CONNECT_C
          2 0000CB  4C26                                 LDV,R4   38
          2 0000CC  5C5A                                 LDV,R5   90
          2 0000CD  0021                                 ALR      ;
          2 0000CE       4006 0000                                ALPHANUM(0,B6,,R4),;
          2 0000D0       4007 0040                                ALPHANUM(FPT@CONNECT,AUTO,,R5,FILL)

     1581    18073    1       FPT@CONNECT.RLCID.FLAGS.VIRCIR = '0'B;

  18073   2 0000D2  437F                                 CSYNC    s:18072+9,SPREL
          2 0000D3  8847 004E                            LBF,'4000'X       FPT@CONNECT+14,AUTO
          2 0000D5       4000

     1582    18074    1       FPT@TERM = FPT_TERM_C;

  18074   2 0000D6  AB80 0000 0000  xsym                 LAB,B2   FPT_TERM_C
          2 0000D9  2C00                                 LDV,R2   0
          2 0000DA  6C08                                 LDV,R6   8
          2 0000DB  BBC7 006D                            LAB,B3   FPT@TERM,AUTO
          2 0000DD  3C00                                 LDV,R3   0
          2 0000DE  0008                                 MMM

     1583    18075    1       KNH_MESS = '0'B;

  18075   2 0000DF  5C10                                 LDV,R5   16
          2 0000E0  0021                                 ALR      ;
          2 0000E1       4178 0000                                ALPHANUM('0000'X,IMO,,1),;
PL6.E3A0      #008=KXS$TMR File=KXS$SUBS.:E05TSI                                 WED 07/30/97 02:30 Page:295
          2 0000E3       4007 0020                                ALPHANUM(KNH_MESS,AUTO,,R5,FILL)

     1584    18076    1       KV@SNDCQ = '0'B;

  18076   2 0000E5  5C30                                 LDV,R5   48
          2 0000E6  0021                                 ALR      ;
          2 0000E7       4178 0000                                ALPHANUM('0000'X,IMO,,1),;
          2 0000E9       4007 0028                                ALPHANUM(KV@SNDCQ,AUTO,,R5,FILL)

     1585    18077    1       KV@SNDCQ.MSG_.ADR$ (0) = ADDR ( KNH_MESS );

  18077   2 0000EB  EBC7 0020                            LAB,B6   KNH_MESS,AUTO
          2 0000ED  437F                                 CSYNC    s:18077+1,SPREL
          2 0000EE  EFC7 0028                            STB,B6   KV@SNDCQ,AUTO

     1586    18078    1       KV@SNDCQ.MSG_.BYTSIZ (0) = ( LENGTHC (KNH_MESS) + 3 ) / 4 * 4;

  18078   2 0000F0  6C10                                 LDV,R6   16
          2 0000F1  EF47 002B                            STR,R6   KV@SNDCQ+3,AUTO

     1587    18079        /*
     1588    18080           check need for link assurance.
     1589    18081            Also check the need to send any INIT or TERM.
     1590    18082        */
     1591    18083    1       ONE_MINUTE = ONE_MINUTE - 1;

  18083   2 0000F3  8880 0000 0000  00                   DEC      ONE_MINUTE

     1592    18084    1       IF ONE_MINUTE = 0 THEN ONE_MINUTE = 60;

  18084   2 0000F6  B800 0000 0000  00                   LDR,R3   ONE_MINUTE
          2 0000F9  3981 0005                            BNEZ,R3  s:18085,PREL

  18084   2 0000FB  3C3C                                 LDV,R3   60
          2 0000FC  BF00 0000 0000  00                   STR,R3   ONE_MINUTE

     1593    18085    1       CALL_FPT.EVN = %KX_F_EV_TO#;
PL6.E3A0      #008=KXS$TMR File=KXS$SUBS.:E05TSI                                 WED 07/30/97 02:30 Page:296

  18085   2 0000FF  2C03                                 LDV,R2   3
          2 000100  AF47 0006                            STR,R2   CALL_FPT,AUTO

     1594    18086    1       T$ = KX_CNTX.HD$;

  18086   2 000102  DC80 0000 0000  xsym                 LDB,B5   KX_CNTX
          2 000105  DFC7 0018                            STB,B5   T$,AUTO

     1595    18087    2       DO WHILE ( T$ ~= ADDR(NIL) );

  18087   2 000107  0F81 00DA                            B        s:18166,PREL

     1596    18088    2          IF T$->KX$L2.IDL_PRD ~= 0 AND T$->KX$L2.STATE.CURRENT = 4

  18088   2 000109  ECC7 0018                            LDB,B6   T$,AUTO
          2 00010B  82C6 0055                            LB,'00FF'X        85,B6
          2 00010D       00FF
          2 00010E  0581 0032                            BBF      s:18105,PREL
          2 000110  E2C6 001D                            LLH,R6   29,B6
          2 000112  6D04                                 CMV,R6   4
          2 000113  0981 002D                            BNE      s:18105,PREL
          2 000115  DCC6 0002                            LDB,B5   2,B6
          2 000117  D845 0005                            LDR,R5   5,B5
          2 000119  D570 0200                            AND,R5   512,IMO
          2 00011B  5981 0025                            BNEZ,R5  s:18105,PREL
          2 00011D  89C6 0047                            CMZ      71,B6
          2 00011F  0801 0021                            BAL      s:18105,PREL

     1597    18089    2             AND NOT T$->KX$L2.CHN$->KH$CHN.ATTR&%G_ATTR_CL_SLCC
     1598    18090    2             AND NOT T$->KX$L2.TMRBLK.ON
     1599    18091    2             THEN
     1600    18092    3                DO;

     1601    18093    3                   T$->KX$L2.IDL_CLK = T$->KX$L2.IDL_CLK - 1;

  18093   2 000121  D2C6 0056                            LLH,R5   86,B6
PL6.E3A0      #008=KXS$TMR File=KXS$SUBS.:E05TSI                                 WED 07/30/97 02:30 Page:297
          2 000123  5EFF                                 ADV,R5   -1
          2 000124  D7C6 0056                            STH,R5   86,B6

     1602    18094    3                   IF T$->KX$L2.IDL_CLK = 0

  18094   2 000126  D2C6 0056                            LLH,R5   86,B6
          2 000128  5981 0018                            BNEZ,R5  s:18105,PREL

     1603    18095    3                      THEN
     1604    18096    4                         DO;

     1605    18097    4                            KX_STATS_HDLC.TIMEOUTS = KX_STATS_HDLC.TIMEOUTS - 1;

  18097   2 00012A  8C80 0000 0022  xsym                 LDI      KX_STATS_HDLC+34
          2 00012D  8470 FFFF FFFF                       AID      -1,IMO
          2 000130  8D00 0000 0022  xsym                 SDI      KX_STATS_HDLC+34

     1606    18098    4                            CALL_FPT.RCV$ = T$;

  18098   2 000133  EFC7 0009                            STB,B6   CALL_FPT+3,AUTO

     1607    18099    4                            CALL KXF$FRAME ( CALL_FPT );

  18099   2 000135  DBC7 0006                            LAB,B5   CALL_FPT,AUTO
          2 000137  DFC7 0072                            STB,B5   TRY_SNDCQ+1,AUTO
          2 000139  BBC7 0072                            LAB,B3   TRY_SNDCQ+1,AUTO
          2 00013B  CBF0 0100                            LAB,B4   256,IMO
          2 00013D  E380 0000 0000  xent                 LNJ,B6   KXF$FRAME
          2 000140       0001                            DC       s:18105,PREL

     1608    18100    4                         END;

     1609    18101    3                END;

     1610    18102        /*
     1611    18103           Check for need to log REJ frames.
     1612    18104        */
PL6.E3A0      #008=KXS$TMR File=KXS$SUBS.:E05TSI                                 WED 07/30/97 02:30 Page:298
     1613    18105    2          IF ONE_MINUTE = 60 AND T$->KX$L2.REJ_CNT > 0

  18105   2 000141  E800 0000 0000  00                   LDR,R6   ONE_MINUTE
          2 000144  6D3C                                 CMV,R6   60
          2 000145  0981 0027                            BNE      s:18130,PREL
          2 000147  ECC7 0018                            LDB,B6   T$,AUTO
          2 000149  D846 0057                            LDR,R5   87,B6
          2 00014B  5901 0021                            BEZ,R5   s:18130,PREL

     1614    18106    2             THEN
     1615    18107    3                DO;

     1616    18108                        %WRSYSLOG ( ERRCOD = REJ,
     1617    18109                        TRMID = "T$->KX$L2.CHN$->KH$CHN.TERMID",
     1618    18110                        VAL0 = "T$->KX$L2.REJ_CNT" );

  18126   2 00014D  DCC6 0002                            LDB,B5   2,B6
          2 00014F  CBC6 0057                            LAB,B4   87,B6
          2 000151  CFC7 0078                            STB,B4   TRY_SNDCQ+7,AUTO
          2 000153  BB80 0000 0000                       LAB,B3   0
          2 000156  BFC7 0076                            STB,B3   TRY_SNDCQ+5,AUTO
          2 000158  ABC5 0012                            LAB,B2   18,B5
          2 00015A  AFC7 0074                            STB,B2   TRY_SNDCQ+3,AUTO
          2 00015C  DB80 0000 0002  01                   LAB,B5   REJ
          2 00015F  DFC7 0072                            STB,B5   TRY_SNDCQ+1,AUTO
          2 000161  BBC7 0072                            LAB,B3   TRY_SNDCQ+1,AUTO
          2 000163  CBF0 0400                            LAB,B4   1024,IMO
          2 000165  E380 0000 0000  xent                 LNJ,B6   KXS$SYSLOG
          2 000168       0001                            DC       s:18128,PREL

     1619    18128    3                   T$->KX$L2.REJ_CNT = 0;

  18128   2 000169  ECC7 0018                            LDB,B6   T$,AUTO
          2 00016B  8746 0057                            CL       87,B6

     1620    18129    3                END;

PL6.E3A0      #008=KXS$TMR File=KXS$SUBS.:E05TSI                                 WED 07/30/97 02:30 Page:299
     1621    18130    2          IF T$->KX$L2.INIT_ALTRET AND TRY_SNDCQ

  18130   2 00016D  ECC7 0018                            LDB,B6   T$,AUTO
          2 00016F  82C6 0067                            LB,'0080'X        103,B6
          2 000171       0080
          2 000172  0581 003A                            BBF      s:18148,PREL
          2 000174  89C7 0071                            CMZ      TRY_SNDCQ,AUTO
          2 000176  0881 0036                            BAGE     s:18148,PREL

     1622    18131    2             THEN
     1623    18132    3                DO;

     1624    18133    3                   FPT@CONNECT.TERMINAL_ID = T$->KX$L2.CHN$->KH$CHN.TERMID;

  18133   2 000178  DCC6 0002                            LDB,B5   2,B6
          2 00017A  AB85                                 LAB,B2   ,B5
          2 00017B  2C24                                 LDV,R2   36
          2 00017C  6C10                                 LDV,R6   16
          2 00017D  BBC7 0045                            LAB,B3   FPT@CONNECT+5,AUTO
          2 00017F  3C00                                 LDV,R3   0
          2 000180  0008                                 MMM

     1625    18134    3                   FPT@CONNECT.DSTSNPA = T$->KX$L2.DSTSNPA;

  18134   2 000181  ACC7 0018                            LDB,B2   T$,AUTO
          2 000183  ABC2 0062                            LAB,B2   98,B2
          2 000185  2C00                                 LDV,R2   0
          2 000186  6C08                                 LDV,R6   8
          2 000187  BBC7 0069                            LAB,B3   FPT@CONNECT+41,AUTO
          2 000189  3C00                                 LDV,R3   0
          2 00018A  0008                                 MMM

     1626    18135    3                   KNH_MESS.FUNCTION = %KN_FCN_INIT;

  18135   2 00018B  6C01                                 LDV,R6   1
          2 00018C  EF47 0020                            STR,R6   KNH_MESS,AUTO

PL6.E3A0      #008=KXS$TMR File=KXS$SUBS.:E05TSI                                 WED 07/30/97 02:30 Page:300
     1627    18136    3                   KNH_MESS.FPTSZ = 2 * SIZEW ( FPT@CONNECT );

  18136   2 00018E  5C5A                                 LDV,R5   90
          2 00018F  DF47 0026                            STR,R5   KNH_MESS+6,AUTO

     1628    18137    3                   KV@SNDCQ.MSG_.ADR$ (1) = ADDR ( FPT@CONNECT );

  18137   2 000191  EBC7 0040                            LAB,B6   FPT@CONNECT,AUTO
          2 000193  EFC7 002C                            STB,B6   KV@SNDCQ+4,AUTO

     1629    18138    3                   KV@SNDCQ.MSG_.BYTSIZ (1) = ( LENGTHC(FPT@CONNECT)+3 )/4*4;

  18138   2 000195  4C5C                                 LDV,R4   92
          2 000196  CF47 002F                            STR,R4   KV@SNDCQ+7,AUTO

     1630    18139    3                   CALL KVM$SNDCQ ( KV@SNDCQ ) WHENRETURN

  18139   2 000198  CBC7 0028                            LAB,B4   KV@SNDCQ,AUTO
          2 00019A  CFC7 0072                            STB,B4   TRY_SNDCQ+1,AUTO
          2 00019C  BBC7 0072                            LAB,B3   TRY_SNDCQ+1,AUTO
          2 00019E  CBF0 0100                            LAB,B4   256,IMO
          2 0001A0  E380 0000 0000  xent                 LNJ,B6   KVM$SNDCQ
          2 0001A3       0008                            DC       s:18145,PREL

     1631    18140    4                         DO;

     1632    18141    4                            T$->KX$L2.INIT_ALTRET = '0'B;

  18141   2 0001A4  ECC7 0018                            LDB,B6   T$,AUTO
          2 0001A6  8846 0067                            LBF,'0080'X       103,B6
          2 0001A8       0080

     1633    18142    4                         END;

  18142   2 0001A9  0F81 0003                            B        s:18148,PREL

     1634    18143    3                      WHENALTRETURN
PL6.E3A0      #008=KXS$TMR File=KXS$SUBS.:E05TSI                                 WED 07/30/97 02:30 Page:301
     1635    18144    4                         DO;

     1636    18145    4                            TRY_SNDCQ = '0'B;

  18145   2 0001AB  8747 0071                            CL       TRY_SNDCQ,AUTO

     1637    18146    4                         END;

     1638    18147    3                END;

     1639    18148    2          IF T$->KX$L2.TERM_ALTRET AND TRY_SNDCQ

  18148   2 0001AD  ECC7 0018                            LDB,B6   T$,AUTO
          2 0001AF  82C6 0067                            LB,'0040'X        103,B6
          2 0001B1       0040
          2 0001B2  0581 002A                            BBF      s:18165,PREL
          2 0001B4  89C7 0071                            CMZ      TRY_SNDCQ,AUTO
          2 0001B6  0881 0026                            BAGE     s:18165,PREL

     1640    18149    2             THEN
     1641    18150    3                DO;

     1642    18151    3                   FPT@TERM.RLCID.LDCTX =  T$->KX$L2.LDCTX;

  18151   2 0001B8  E846 0066                            LDR,R6   102,B6
          2 0001BA  EF47 006E                            STR,R6   FPT@TERM+1,AUTO

     1643    18152    3                   KNH_MESS.FUNCTION = %KN_FCN_TERM;

  18152   2 0001BC  5C03                                 LDV,R5   3
          2 0001BD  DF47 0020                            STR,R5   KNH_MESS,AUTO

     1644    18153    3                   KNH_MESS.FPTSZ = 2 * SIZEW ( FPT@TERM );

  18153   2 0001BF  4C08                                 LDV,R4   8
          2 0001C0  CF47 0026                            STR,R4   KNH_MESS+6,AUTO

PL6.E3A0      #008=KXS$TMR File=KXS$SUBS.:E05TSI                                 WED 07/30/97 02:30 Page:302
     1645    18154    3                   KV@SNDCQ.MSG_.ADR$ (1) = ADDR ( FPT@TERM );

  18154   2 0001C2  DBC7 006D                            LAB,B5   FPT@TERM,AUTO
          2 0001C4  DFC7 002C                            STB,B5   KV@SNDCQ+4,AUTO

     1646    18155    3                   KV@SNDCQ.MSG_.BYTSIZ (1) = ( LENGTHC(FPT@TERM)+3 )/4*4;

  18155   2 0001C6  CF47 002F                            STR,R4   KV@SNDCQ+7,AUTO

     1647    18156    3                   CALL KVM$SNDCQ ( KV@SNDCQ ) WHENRETURN

  18156   2 0001C8  CBC7 0028                            LAB,B4   KV@SNDCQ,AUTO
          2 0001CA  CFC7 0072                            STB,B4   TRY_SNDCQ+1,AUTO
          2 0001CC  BBC7 0072                            LAB,B3   TRY_SNDCQ+1,AUTO
          2 0001CE  CBF0 0100                            LAB,B4   256,IMO
          2 0001D0  E380 0000 0000  xent                 LNJ,B6   KVM$SNDCQ
          2 0001D3       0008                            DC       s:18162,PREL

     1648    18157    4                         DO;

     1649    18158    4                            T$->KX$L2.TERM_ALTRET = '0'B;

  18158   2 0001D4  ECC7 0018                            LDB,B6   T$,AUTO
          2 0001D6  8846 0067                            LBF,'0040'X       103,B6
          2 0001D8       0040

     1650    18159    4                         END;

  18159   2 0001D9  0F81 0003                            B        s:18165,PREL

     1651    18160    3                      WHENALTRETURN
     1652    18161    4                         DO;

     1653    18162    4                            TRY_SNDCQ = '0'B;

  18162   2 0001DB  8747 0071                            CL       TRY_SNDCQ,AUTO

PL6.E3A0      #008=KXS$TMR File=KXS$SUBS.:E05TSI                                 WED 07/30/97 02:30 Page:303
     1654    18163    4                         END;

     1655    18164    3                END;

     1656    18165    2          T$ = T$->KX$L2.NEXT$;

  18165   2 0001DD  ECC7 0018                            LDB,B6   T$,AUTO
          2 0001DF  DC86                                 LDB,B5   ,B6
          2 0001E0  DFC7 0018                            STB,B5   T$,AUTO

     1657    18166    2       END;

  18166   2 0001E2  8DC7 0018                            CMN      T$,AUTO
          2 0001E4  0981 FF24                            BNE      s:18088,PREL

     1658    18167        /*
     1659    18168           Call kxp to look for idle circuits.
     1660    18169        */
     1661    18170    1       CALL_FPT.EVN = %KX_P_EV_IDLCLK#;

  18170   2 0001E6  6C17                                 LDV,R6   23
          2 0001E7  EF47 0006                            STR,R6   CALL_FPT,AUTO

     1662    18171    1       CALL_FPT.RCV$ = ADDR(NIL);

  18171   2 0001E9  EB80 0000 0000                       LAB,B6   0
          2 0001EC  EFC7 0009                            STB,B6   CALL_FPT+3,AUTO

     1663    18172    1       CALL KXP$PACKET ( CALL_FPT );

  18172   2 0001EE  CBC7 0006                            LAB,B4   CALL_FPT,AUTO
          2 0001F0  CFC7 0072                            STB,B4   TRY_SNDCQ+1,AUTO
          2 0001F2  BBC7 0072                            LAB,B3   TRY_SNDCQ+1,AUTO
          2 0001F4  CBF0 0100                            LAB,B4   256,IMO
          2 0001F6  E380 0000 0000  xent                 LNJ,B6   KXP$PACKET
          2 0001F9       0001                            DC       s:18179,PREL

PL6.E3A0      #008=KXS$TMR File=KXS$SUBS.:E05TSI                                 WED 07/30/97 02:30 Page:304
     1664    18173        /*
     1665    18174                                             If any syslogs could not be
     1666    18175                                             processed off of an inhibited
     1667    18176                                             level, they are queued and
     1668    18177                                             should be sent now.
     1669    18178        */
     1670    18179    2   SYSLOG_LOOP: DO WHILE ( KX_SYSLOG.HD$ ~= ADDR(NIL) );

  18179   2 0001FA  0F81 00D3            SYSLOG_LOOP     B        s:18238,PREL

     1671    18180    2          T$ = KX_SYSLOG.HD$;

  18180   2 0001FC  EC80 0000 0000  xsym                 LDB,B6   KX_SYSLOG
          2 0001FF  EFC7 0018                            STB,B6   T$,AUTO

     1672    18181    2          KVBSIZ = SIZEW ( KX$SYSLOG_Q_ENTRY );

  18181   2 000201  E846 0017                            LDR,R6   23,B6
          2 000203  6003                                 SOL,R6   3
          2 000204  EA70 018F                            ADD,R6   399,IMO
          2 000206  6044                                 SOR,R6   4
          2 000207  EF47 001B                            STR,R6   KVBSIZ,AUTO

     1673    18182    2          IF KX$SYSLOG_Q_ENTRY.FPT.V.ERRCOD = HRDERR

  18182   2 000209  DB80 0000 0000  01                   LAB,B5   HRDERR
          2 00020C  5C04                                 LDV,R5   4
          2 00020D  0022                                 ACM      ;
          2 00020E       4406 0008                                ALPHANUM(8,B6,,4,FILL),;
          2 000210       4005 0000                                ALPHANUM(0,B5,,R5,FILL)
          2 000212  5301 0063                            CBNE     s:18216,PREL

     1674    18183    2             THEN
     1675    18184    3                DO;

     1676    18185    3                   IF ( KX$SYSLOG_Q_ENTRY.NXT$ = ADDR(NIL) )

PL6.E3A0      #008=KXS$TMR File=KXS$SUBS.:E05TSI                                 WED 07/30/97 02:30 Page:305
  18185   2 000214  8D86                                 CMN      ,B6
          2 000215  0981 000C                            BNE      s:18197,PREL

     1677    18186    3                      THEN
     1678    18187    4                         DO;

     1679    18188    4                            KX$SYSLOG_Q_ENTRY.FPT.V.VALUES(0) =

  18188   2 000217  8AC6 0012                            INC      18,B6

     1680    18189    4                               KX$SYSLOG_Q_ENTRY.FPT.V.VALUES(0) + 1;
     1681    18190    4                            IF ( KX$SYSLOG_Q_ENTRY.FPT.V.VALUES(0) < 60 )

  18190   2 000219  DCC7 0018                            LDB,B5   T$,AUTO
          2 00021B  E845 0012                            LDR,R6   18,B5
          2 00021D  6D3C                                 CMV,R6   60
          2 00021E  0201 00B4                            BL       s:18239,PREL

     1682    18191    4                               THEN
     1683    18192    4                                  EXIT SYSLOG_LOOP;
     1684    18193    4                               ELSE
     1685    18194    4                                  GOTO KILL_LINK;

  18194   2 000220  0F81 0001                            B        s:18197,PREL

     1686    18195    4                         END;
     1687    18196    3                      ELSE
     1688    18197    3   KILL_LINK:            IF ( KX_LINERRDSCLMT ~= 255 ) AND

  18197   2 000222  E800 0000 0000  xsym KILL_LINK       LDR,R6   KX_LINERRDSCLMT
          2 000225  E970 00FF                            CMR,R6   255,IMO
          2 000227  0901 004E                            BE       s:18216,PREL
          2 000229  DCC7 0018                            LDB,B5   T$,AUTO
          2 00022B  E945 0014                            CMR,R6   20,B5
          2 00022D  0281 0048                            BGE      s:18216,PREL

     1689    18198    3                            ( KX$SYSLOG_Q_ENTRY.FPT.V.VALUES(2) > KX_LINERRDSCLMT )
PL6.E3A0      #008=KXS$TMR File=KXS$SUBS.:E05TSI                                 WED 07/30/97 02:30 Page:306
     1690    18199    3                            THEN
     1691    18200    4                               DO;

     1692    18201    4                                 CALL KHA$GET_CTX_PTR ( KX$SYSLOG_Q_ENTRY.FPT.V.TRMID,
             18201                                           CHN$ )

  18201   2 00022F  CBC7 001C                            LAB,B4   CHN$,AUTO
          2 000231  CFC7 0074                            STB,B4   TRY_SNDCQ+3,AUTO
          2 000233  BBC5 000A                            LAB,B3   10,B5
          2 000235  BFC7 0072                            STB,B3   TRY_SNDCQ+1,AUTO
          2 000237  BBC7 0072                            LAB,B3   TRY_SNDCQ+1,AUTO
          2 000239  CBF0 0200                            LAB,B4   512,IMO
          2 00023B  E380 0000 0000  xent                 LNJ,B6   KHA$GET_CTX_PTR
          2 00023E       0003                            DC       s:18203,PREL
          2 00023F  0F81 0009                            B        s:18206,PREL

     1693    18202    5                                     WHENALTRETURN DO;

     1694    18203    5                                           KX_SYSLOG.HD$ = KX$SYSLOG_Q_ENTRY.NXT$;

  18203   2 000241  ECC7 0018                            LDB,B6   T$,AUTO
          2 000243  DC86                                 LDB,B5   ,B6
          2 000244  DF80 0000 0000  xsym                 STB,B5   KX_SYSLOG

     1695    18204    5                                           GOTO RLS;

  18204   2 000247  0F81 0076                            B        s:18236,PREL

     1696    18205    5                                        END;
     1697    18206    5                                  IF KH$CHN.CTX$ ~= ADDR(NIL) THEN DO;

  18206   2 000249  ECC7 001C                            LDB,B6   CHN$,AUTO
          2 00024B  8DC6 000C                            CMN      12,B6
          2 00024D  0901 0022                            BE       s:18213,PREL

     1698    18207    5                                           CALL KHA$DVCADM ( %KHA_FNC_KILL,

PL6.E3A0      #008=KXS$TMR File=KXS$SUBS.:E05TSI                                 WED 07/30/97 02:30 Page:307
  18207   2 00024F  DBF0 0003                            LAB,B5   3,IMO
          2 000251  CBF0 0001                            LAB,B4   1,IMO
          2 000253  CFC7 007C                            STB,B4   TRY_SNDCQ+11,AUTO
          2 000255  BB80 0000 0000                       LAB,B3   0
          2 000258  BFC7 007A                            STB,B3   TRY_SNDCQ+9,AUTO
          2 00025A  ABC6 0012                            LAB,B2   18,B6
          2 00025C  AFC7 0078                            STB,B2   TRY_SNDCQ+7,AUTO
          2 00025E  9BC6 0012                            LAB,B1   18,B6
          2 000260  9FC7 0076                            STB,B1   TRY_SNDCQ+5,AUTO
          2 000262  EBC7 001E                            LAB,B6   KHA_ERROR,AUTO
          2 000264  EFC7 0074                            STB,B6   TRY_SNDCQ+3,AUTO
          2 000266  DFC7 0072                            STB,B5   TRY_SNDCQ+1,AUTO
          2 000268  BBC7 0072                            LAB,B3   TRY_SNDCQ+1,AUTO
          2 00026A  CBF0 0600                            LAB,B4   1536,IMO
          2 00026C  E380 0000 0000  xent                 LNJ,B6   KHA$DVCADM
          2 00026F       0001                            DC       s:18213,PREL

     1699    18208    5                                              KHA_ERROR,
     1700    18209    5                                              KH$CHN.TERMID,
     1701    18210    5                                              KH$CHN.TERMID, ,1 );
     1702    18211    5                                        END;

     1703    18212        /* Change the errlog to say LINERRDSC */
     1704    18213    4                                  KX$SYSLOG_Q_ENTRY.FPT.V.ERRCOD.ERR# = %
             18213                                           E_KXH_LINERRDSC#;

  18213   2 000270  6C40                                 LDV,R6   64
          2 000271  ECC7 0018                            LDB,B6   T$,AUTO
          2 000273  EAC6 0009                            SRM,R6,'FFF8'X    9,B6
          2 000275       FFF8

     1705    18214    4                               END;

     1706    18215    3                END;

     1707    18216    2          KX_SYSLOG.HD$ = KX$SYSLOG_Q_ENTRY.NXT$;

PL6.E3A0      #008=KXS$TMR File=KXS$SUBS.:E05TSI                                 WED 07/30/97 02:30 Page:308
  18216   2 000276  ECC7 0018                            LDB,B6   T$,AUTO
          2 000278  DC86                                 LDB,B5   ,B6
          2 000279  DF80 0000 0000  xsym                 STB,B5   KX_SYSLOG

     1708    18217    2          CALL KHA$ERRLOG ( KX$SYSLOG_Q_ENTRY.FPT, 1 )

  18217   2 00027C  CBF0 0001                            LAB,B4   1,IMO
          2 00027E  CFC7 0074                            STB,B4   TRY_SNDCQ+3,AUTO
          2 000280  BBC6 0002                            LAB,B3   2,B6
          2 000282  BFC7 0072                            STB,B3   TRY_SNDCQ+1,AUTO
          2 000284  BBC7 0072                            LAB,B3   TRY_SNDCQ+1,AUTO
          2 000286  CBF0 0200                            LAB,B4   512,IMO
          2 000288  E380 0000 0000  xent                 LNJ,B6   KHA$ERRLOG
          2 00028B       0003                            DC       s:18220,PREL
          2 00028C  0F81 0008                            B        s:18227,PREL

     1709    18218    2             WHENALTRETURN
     1710    18219    3                DO;

     1711    18220    3                   KX_SYSLOG.HD$ = T$;

  18220   2 00028E  ECC7 0018                            LDB,B6   T$,AUTO
          2 000290  EF80 0000 0000  xsym                 STB,B6   KX_SYSLOG

     1712    18221    3                   EXIT SYSLOG_LOOP;

  18221   2 000293  0F81 003F                            B        s:18239,PREL

     1713    18222    3                END;
     1714    18223        /*
     1715    18224           KX$SYSLOG_Q_ENTRY has a variable size char array at the end.
     1716    18225           But SIZEW still calculates the right size for you.
     1717    18226        */
     1718    18227    2          IF KX$SYSLOG_Q_ENTRY.FPT.V.TRMID.LEV = %TERMINAL_ID_LEV_CHAN# THEN

  18227   2 000295  ECC7 0018                            LDB,B6   T$,AUTO
          2 000297  E846 000A                            LDR,R6   10,B6
PL6.E3A0      #008=KXS$TMR File=KXS$SUBS.:E05TSI                                 WED 07/30/97 02:30 Page:309
          2 000299  E570 00FF                            AND,R6   255,IMO
          2 00029B  6D01                                 CMV,R6   1
          2 00029C  0981 0021                            BNE      s:18236,PREL

     1719    18228    2                CALL KHA$GET_CTX_PTR ( KX$SYSLOG_Q_ENTRY.FPT.V.TRMID, CHN$ )

  18228   2 00029E  DBC7 001C                            LAB,B5   CHN$,AUTO
          2 0002A0  DFC7 0074                            STB,B5   TRY_SNDCQ+3,AUTO
          2 0002A2  CBC6 000A                            LAB,B4   10,B6
          2 0002A4  CFC7 0072                            STB,B4   TRY_SNDCQ+1,AUTO
          2 0002A6  BBC7 0072                            LAB,B3   TRY_SNDCQ+1,AUTO
          2 0002A8  CBF0 0200                            LAB,B4   512,IMO
          2 0002AA  E380 0000 0000  xent                 LNJ,B6   KHA$GET_CTX_PTR
          2 0002AD       0011                            DC       s:18236,PREL

     1720    18229    2                   WHENRETURN
     1721    18230    3                      DO;

     1722    18231    4                         IF KH$CHN.CTX$ ~= ADDR(NIL) THEN DO;

  18231   2 0002AE  ECC7 001C                            LDB,B6   CHN$,AUTO
          2 0002B0  8DC6 000C                            CMN      12,B6
          2 0002B2  0901 0009                            BE       s:18235,PREL

     1723    18232    4                                  KH$CHN.CTX$->KX$L2.ERRLOGWRDCNT =

  18232   2 0002B4  DCC6 000C                            LDB,B5   12,B6
          2 0002B6  E845 0052                            LDR,R6   82,B5
          2 0002B8  E247 001B                            SUB,R6   KVBSIZ,AUTO
          2 0002BA  EF45 0052                            STR,R6   82,B5

     1724    18233    4                                     KH$CHN.CTX$->KX$L2.ERRLOGWRDCNT - KVBSIZ;
     1725    18234    4                               END;

     1726    18235    3                      END;

  18235   2 0002BC  0F81 0001                            B        s:18236,PREL
PL6.E3A0      #008=KXS$TMR File=KXS$SUBS.:E05TSI                                 WED 07/30/97 02:30 Page:310

     1727    18236    3                   WHENALTRETURN DO; /*N* Do we care? */ END;

     1728    18237    2   RLS:   CALL KVB$RLSSYS ( KVBSIZ, T$ );

  18237   2 0002BE  EBC7 0018            RLS             LAB,B6   T$,AUTO
          2 0002C0  EFC7 0074                            STB,B6   TRY_SNDCQ+3,AUTO
          2 0002C2  DBC7 001B                            LAB,B5   KVBSIZ,AUTO
          2 0002C4  DFC7 0072                            STB,B5   TRY_SNDCQ+1,AUTO
          2 0002C6  BBC7 0072                            LAB,B3   TRY_SNDCQ+1,AUTO
          2 0002C8  CBF0 0200                            LAB,B4   512,IMO
          2 0002CA  E380 0000 0000  xent                 LNJ,B6   KVB$RLSSYS
          2 0002CD       0001                            DC       s:18238,PREL

     1729    18238    2       END;

  18238   2 0002CE  8D80 0000 0000  xsym                 CMN      KX_SYSLOG
          2 0002D1  0981 FF2A                            BNE      s:18180,PREL

     1730    18239    1       IF KX_SYSLOG.HD$ = ADDR(NIL)

  18239   2 0002D3  8D80 0000 0000  xsym                 CMN      KX_SYSLOG
          2 0002D6  0981 0007                            BNE      s:18244,PREL

     1731    18240    1          THEN
     1732    18241    1             KX_SYSLOG.TL$ = ADDR(NIL);

  18241   2 0002D8  EB80 0000 0000                       LAB,B6   0
          2 0002DB  EF80 0000 0002  xsym                 STB,B6   KX_SYSLOG+2

     1733    18242
     1734    18243            %ENABLE;

  18244   2 0002DE  EC80 0000 0002  xsym                 LDB,B6   KH_CTLTBL+2
          2 0002E1  E847 001A                            LDR,R6   LEVEL,AUTO
          2 0002E3  E906                                 CMR,R6   ,B6
          2 0002E4  0901 0007                            BE       s:18247,PREL
PL6.E3A0      #008=KXS$TMR File=KXS$SUBS.:E05TSI                                 WED 07/30/97 02:30 Page:311

  18244   2 0002E6  CBF0 0000                            LAB,B4   0,IMO
          2 0002E8  E380 0000 0000  xent                 LNJ,B6   KHI$ENABLE
          2 0002EB       0001                            DC       s:18247,PREL

     1735    18246
     1736    18247    1       RETURN;

  18247   2 0002EC  C380 0000 0000  xent                 LNJ,B4   X6A_ARET
     1737    18248
     1738    18249    1   END KXS$TMR;
     1739    18250        %EOD;

PL6.E3A0      #008=KXS$TMR File=KXS$SUBS.:E05TSI                                 WED 07/30/97 02:30 Page:312
--  Include file information  --

   KNH_MACRO_C.:E05TOU  is referenced.
   K_ADDRESS_M.:E05TOU  is referenced.
   G_JIT_M.:E05TOU  is referenced.
   KH$CHN.:E05TOU  is referenced.
   KV_GLBCNS_E.:E05TOU  is referenced.
   KX_MACROS_M.:E05TOU  is referenced.
   KX_DATA_C.:E05TOU  is referenced.
   KX_SCODE_C.:E05TOU  is referenced.
   KX_PERR_C.:E05TOU  is referenced.
   KX_EQUS_E.:E05TOU  is referenced.
   KL_CONTROL_C.:E05TOU  is referenced.
   KHA_FNC_E.:E05TOU  is referenced.
   KH_MACRO_C.:E05TOU  is referenced.
   CP_6_SUBS.:E05TOU  is referenced.
   G_LCP6_E.:E05TOU  is referenced.
   GT_LCP6_M.:E05TOU  is referenced.
   KI_CP6.:E05TOU  is referenced.
   GF_LCP6_M.:E05TOU  is referenced.
   GM_LCP6_M.:E05TOU  is referenced.
   GU_LCP6_M.:E05TOU  is referenced.
   GJ_LCP6_M.:E05TOU  is referenced.
   GH_LCP6_M.:E05TOU  is referenced.
   LCP_6.:E05TOU  cannot be made into a system file and is referenced.
   KL_AFCN_C.:E05TOU  is referenced.
   KL_MACRO_C.:E05TOU  is referenced.
   KL_SUPER_C.:E05TOU  is referenced.
   K_ID_E.:E05TOU  is referenced.
      No diagnostics issued in procedure KXS$TMR.
PL6.E3A0      #008=KXS$TMR File=KXS$SUBS.:E05TSI                                 WED 07/30/97 02:30 Page:313

 **** Variables and constants ****

  ****  Section 000  Data  KXS$TMR

  ****  Scalars and arrays  ****
HexLoc.c.b A Datatyp(siz) R M Lvl/name                 HexLoc.c.b A Datatyp(siz) R M Lvl/name

     0-0-0/w UBIN(16)    r     1 ONE_MINUTE

  ****  Section 001 RoData KXS$TMR

  ****  Scalars and arrays  ****
HexLoc.c.b A Datatyp(siz) R M Lvl/name                 HexLoc.c.b A Datatyp(siz) R M Lvl/name

     0-0-0/w STRC(32)    r     1 HRDERR                     2-0-0/w STRC(32)    r     1 REJ

  ****  Auto variables  ****

  ****  Scalars and arrays  ****
HexLoc.c.b A Datatyp(siz) R M Lvl/name                 HexLoc.c.b A Datatyp(siz) R M Lvl/name

     4-0-0/w PTR         r     1 @JUNK                     16-0-0/w PTR         r     1 BLK$
     6-0-0/w STRC(256)   r     1 CALL_FPT                  1C-0-0/w PTR         r     1 CHN$
    40-0-0/w STRC(720)   r     1 FPT@CONNECT               6D-0-0/w STRC(64)    r     1 FPT@TERM
    *0-0-0/w UBIN(16)    r     1 JUNK                      1E-0-0/w UBIN(32)    r     1 KHA_ERROR
    20-0-0/c STRC(128)   r     1 KNH_MESS                  28-0-0/w STRC(384)   r     1 KV@SNDCQ
    1B-0-0/w UBIN(16)    r     1 KVBSIZ                    1A-0-0/w UBIN(16)    r     1 LEVEL
    18-0-0/w PTR         r     1 T$                        71-0-0/b BIT         r     1 TRY_SNDCQ

  ****  SYMREF variables  ****

  ****  Scalars and arrays  ****
HexLoc.c.b A Datatyp(siz) R M Lvl/name                 HexLoc.c.b A Datatyp(siz) R M Lvl/name

     0-0-0/w STRC(304)   r     1 FPT_CONNECT_C              0-0-0/w STRC(64)    r     1 FPT_TERM_C
     0-0-0/w PTR         r     1 G$JIT$                     0-0-0/w STRC(64)    r     1 KH_CTLTBL
     0-0-0/w STRC(64)    r     1 KX_CNTX                    0-0-0/w UBIN(16)    r     1 KX_LINERRDSCLMT
PL6.E3A0      #008=KXS$TMR File=KXS$SUBS.:E05TSI                                 WED 07/30/97 02:30 Page:314
     0-0-0/b EPTR        r     1 KX_PM$(0:2)                0-0-0/w STRC(64)    r     1 KX_SLLIST
     0-0-0/w STRC(800)   r     1 KX_STATS_HDLC              0-0-0/w STRC(64)    r     1 KX_SYSLOG
     0-0-0/w STRC(64)    r     1 KX_TMRBLK

  ****  BASED and DCB variables  ****

  ****  Scalars and arrays  ****
HexLoc.c.b A Datatyp(siz) R M Lvl/name                 HexLoc.c.b A Datatyp(siz) R M Lvl/name

     0-0-0/w UBIN(16)    r     1 BASED_WORD                 0-0-0/w STRC(512)   r     1 KH$CHN
     0-0-0/w STRC(160)   r     1 KX$BTMRBLK                 0-0-0/w STRC(4992)  r     1 KX$L2
     0-0-0/w ASTR(384)   r     1 KX$SYSLOG_Q_ENTRY          0-0-0/w STRC(160)   r     1 KX$TMRBLK


   Procedure KXS$TMR requires 751 words for executable code.
   Procedure KXS$TMR requires 126 words of local(AUTO) storage.
PL6.E3A0      #008=KXS$TMR File=KXS$SUBS.:E05TSI                                 WED 07/30/97 02:30 Page:315
          *** CROSS REFERENCE LISTING ***
**     DENOTES     IDENTIFIER DEFINITION
<<                 IDENTIFIER'S VALUE SET
>>                 IDENTIFIER'S VALUE USED
<>                 IDENTIFIER SET AND/OR USED
--                 IDENTIFIER REFERENCED
PL6.E3A0      #008=KXS$TMR File=KXS$SUBS.:E05TSI                                 WED 07/30/97 02:30 Page:316
          MINI XREF LISTING

BASED_WORD
     15889**DCL     18010>>ASSIGN  18244>>IF
BLK$
     15563**DCL     15848--IMP-PTR 18013<<ASSIGN  18014>>DOWHILE 18015>>ASSIGN  18016>>IF      18023>>ASSIGN
     18029>>IF      18029>>ASSIGN  18029>>IF      18029>>ASSIGN  18029>>ASSIGN  18029>>ASSIGN  18030>>IF
     18030>>ASSIGN  18030>>ASSIGN  18030>>ASSIGN  18036>>ASSIGN  18036>>ASSIGN  18037>>IF      18045>>IF
     18045>>ASSIGN  18045>>IF      18045>>ASSIGN  18045>>ASSIGN  18045>>ASSIGN  18046>>IF      18046>>ASSIGN
     18046>>ASSIGN  18046>>ASSIGN  18050>>ASSIGN  18051>>ASSIGN  18052>>CALL    18055<<ASSIGN
CALL_FPT
     15546**DCL     18049<<ASSIGN  18052<>CALL    18062<<ASSIGN  18068<>CALL    18099<>CALL    18172<>CALL
CALL_FPT.EVN
     15550**DCL     18050<<ASSIGN  18066<<ASSIGN  18085<<ASSIGN  18170<<ASSIGN
CALL_FPT.PRM1$
     15551**DCL     15552--REDEF
CALL_FPT.PRM2$
     15553**DCL     15553--REDEF
CALL_FPT.RCV$
     15550**DCL     18051<<ASSIGN  18067<<ASSIGN  18098<<ASSIGN  18171<<ASSIGN
CHN$
     15567**DCL     15999--IMP-PTR 18201<>CALL    18206>>IF      18207>>CALL    18207>>CALL    18228<>CALL
     18231>>IF      18232>>ASSIGN  18232>>ASSIGN
FPT@CONNECT
     15637**DCL     18072<<ASSIGN  18136--ASSIGN  18137--ASSIGN  18138--ASSIGN
FPT@CONNECT.DEST.ADDRESS
     15713**DCL     15714--REDEF
FPT@CONNECT.DSTSNPA
     15790**DCL     18134<<ASSIGN
FPT@CONNECT.DSTSNPA.ADR_STRING
     15790**DCL     15790--REDEF
FPT@CONNECT.LADR.ADDRESS
     15765**DCL     15766--REDEF
FPT@CONNECT.RLCID.FLAGS.VIRCIR
PL6.E3A0      #008=KXS$TMR File=KXS$SUBS.:E05TSI                                 WED 07/30/97 02:30 Page:317
     15675**DCL     18073<<ASSIGN
FPT@CONNECT.RLCID.GENERATION
     15673**DCL     15674--REDEF
FPT@CONNECT.RLCID.LDCTX
     15674**DCL     15674--REDEF
FPT@CONNECT.TERMINAL_ID
     15660**DCL     18133<<ASSIGN
FPT@CONNECT.TERMINAL_ID.TERM
     15662**DCL     15671--REDEF
FPT@TERM
     15808**DCL     18074<<ASSIGN  18153--ASSIGN  18154--ASSIGN  18155--ASSIGN
FPT@TERM.RLCID.LDCTX
     15813**DCL     18151<<ASSIGN
FPT_CONNECT_C
     17921**DCL     18072>>ASSIGN
FPT_CONNECT_C.RLCID.GENERATION
     17957**DCL     17958--REDEF
FPT_CONNECT_C.RLCID.LDCTX
     17958**DCL     17958--REDEF
FPT_CONNECT_C.TERMINAL_ID.TERM
     17946**DCL     17955--REDEF
FPT_TERM_C
     17990**DCL     18074>>ASSIGN
G$JIT.ERRLOG
     16819**DCL     16822--REDEF
G$JIT.JSUNIT
     16558**DCL     16559--REDEF
G$JIT.MCLS
     16557**DCL     16557--REDEF
G$JIT.TMRZ
     16826**DCL     16827--REDEF
G$JIT.USER_EXTIME
     16550**DCL     16551--REDEF
G$JIT.USER_MEMTIME
     16553**DCL     16553--REDEF
G$JIT.USER_SVTIME
PL6.E3A0      #008=KXS$TMR File=KXS$SUBS.:E05TSI                                 WED 07/30/97 02:30 Page:318
     16552**DCL     16552--REDEF
G$JIT$
     17906**DCL     16489--IMP-PTR
HRDERR
     17823**DCL     18182>>IF
JUNK
     15517**DCL        17--PROC
KH$CHN.ATTR
     16032**DCL     18088>>IF
KH$CHN.CTX$
     16069**DCL     18206>>IF      18231>>IF      18232>>ASSIGN  18232>>ASSIGN
KH$CHN.TERMID
     16093**DCL     18126<>CALL    18133>>ASSIGN  18207<>CALL    18207<>CALL
KH$CHN.TERMID.TERM
     16095**DCL     16104--REDEF
KHA$DVCADM
     15505**DCL-ENT 18207--CALL
KHA$ERRLOG
     15503**DCL-ENT 18217--CALL
KHA$GET_CTX_PTR
     15504**DCL-ENT 18201--CALL    18228--CALL
KHA_ERROR
     15568**DCL     18207<>CALL
KHI$DISABLE
     15496**DCL-ENT 18010--CALL
KHI$ENABLE
     15497**DCL-ENT 18244--CALL
KH_CTLTBL.PARM.PTR$
     17040**DCL     18010>>ASSIGN  18244>>IF
KILL_LINK
     18197**LABEL   18194--GOTO
KNH_MESS
     15582**DCL     18075<<ASSIGN  18077--ASSIGN  18078--ASSIGN
KNH_MESS.FPTSZ
     15615**DCL     18136<<ASSIGN  18153<<ASSIGN
KNH_MESS.FUNCTION
PL6.E3A0      #008=KXS$TMR File=KXS$SUBS.:E05TSI                                 WED 07/30/97 02:30 Page:319
     15582**DCL     15582--REDEF   18135<<ASSIGN  18152<<ASSIGN
KNH_MESS.UID
     15612**DCL     15612--REDEF   15612--REDEF
KV@SNDCQ
     15618**DCL     18076<<ASSIGN  18139<>CALL    18156<>CALL
KV@SNDCQ.MSG_.ADR$
     15620**DCL     18077<<ASSIGN  18137<<ASSIGN  18154<<ASSIGN
KV@SNDCQ.MSG_.BYTSIZ
     15622**DCL     18078<<ASSIGN  18138<<ASSIGN  18155<<ASSIGN
KVB$RLSSYS
     15498**DCL-ENT 18237--CALL
KVBSIZ
     15566**DCL     18181<<ASSIGN  18232>>ASSIGN  18237<>CALL
KVM$SNDCQ
     15509**DCL-ENT 18139--CALL    18156--CALL
KX$BTMRBLK.BLNK$
     15884**DCL     18029<<ASSIGN  18045<<ASSIGN
KX$BTMRBLK.FLNK$
     15884**DCL     18030<<ASSIGN  18046<<ASSIGN
KX$L2.CHN$
     16145**DCL     18088>>IF      18126>>CALL    18133>>ASSIGN
KX$L2.DFLVCPRF.TRADEL
     16266**DCL     16276--REDEF
KX$L2.DSTSNPA
     16457**DCL     18134>>ASSIGN
KX$L2.DSTSNPA.ADR_STRING
     16457**DCL     16457--REDEF
KX$L2.ERRLOGWRDCNT
     16243**DCL     18232<<ASSIGN  18232>>ASSIGN
KX$L2.FRMR_NSNR
     16243**DCL     16244--REDEF
KX$L2.IDL_CLK
     16246**DCL     18093<<ASSIGN  18093>>ASSIGN  18094>>IF
KX$L2.IDL_PRD
     16245**DCL     18088>>IF
KX$L2.INIT_ALTRET
PL6.E3A0      #008=KXS$TMR File=KXS$SUBS.:E05TSI                                 WED 07/30/97 02:30 Page:320
     16462**DCL     18130>>IF      18141<<ASSIGN
KX$L2.LDCTX
     16458**DCL     18151>>ASSIGN
KX$L2.NEXT$
     16145**DCL     18165>>ASSIGN
KX$L2.NTWADR.ADR_STRING
     16177**DCL     16177--REDEF
KX$L2.REJ_CNT
     16246**DCL     18105>>IF      18126<>CALL    18128<<ASSIGN
KX$L2.STATE.CURRENT
     16156**DCL     18088>>IF
KX$L2.STATES
     16155**DCL     16155--REDEF
KX$L2.TERM_ALTRET
     16462**DCL     18148>>IF      18158<<ASSIGN
KX$L2.TMRBLK.ON
     16208**DCL     18088>>IF
KX$SYSLOG_Q_ENTRY
     15905**DCL     18181--ASSIGN
KX$SYSLOG_Q_ENTRY.BUF.SIZ
     15981**DCL     15981--IMP-SIZ 18181>>ASSIGN
KX$SYSLOG_Q_ENTRY.FPT
     15905**DCL     18217<>CALL
KX$SYSLOG_Q_ENTRY.FPT.V.ERRCOD
     15922**DCL     18182>>IF
KX$SYSLOG_Q_ENTRY.FPT.V.ERRCOD.ERR#
     15949**DCL     18213<<ASSIGN
KX$SYSLOG_Q_ENTRY.FPT.V.TRMID
     15968**DCL     18201<>CALL    18228<>CALL
KX$SYSLOG_Q_ENTRY.FPT.V.TRMID.LEV
     15970**DCL     18227>>IF
KX$SYSLOG_Q_ENTRY.FPT.V.TRMID.TERM
     15970**DCL     15979--REDEF
KX$SYSLOG_Q_ENTRY.FPT.V.VALUES
     15981**DCL     18188<<ASSIGN  18188>>ASSIGN  18190>>IF      18197>>IF
KX$SYSLOG_Q_ENTRY.NXT$
PL6.E3A0      #008=KXS$TMR File=KXS$SUBS.:E05TSI                                 WED 07/30/97 02:30 Page:321
     15905**DCL     18185>>IF      18203>>ASSIGN  18216>>ASSIGN
KX$TMRBLK.BLNK$
     15852**DCL     18029>>ASSIGN  18029>>ASSIGN  18030>>IF      18030>>ASSIGN  18045>>ASSIGN  18045>>ASSIGN
     18046>>IF      18046>>ASSIGN
KX$TMRBLK.CNT
     15854**DCL     18036<<ASSIGN  18036>>ASSIGN  18037>>IF
KX$TMRBLK.CTX$
     15852**DCL     18051>>ASSIGN
KX$TMRBLK.FLNK$
     15852**DCL     18015>>ASSIGN  18029>>IF      18029>>ASSIGN  18030>>ASSIGN  18030>>ASSIGN  18045>>IF
     18045>>ASSIGN  18046>>ASSIGN  18046>>ASSIGN
KX$TMRBLK.ON
     15854**DCL     18016>>IF      18023<<ASSIGN  18029>>IF      18029<<ASSIGN  18045>>IF      18045<<ASSIGN
KX$TMRBLK.PRM
     15853**DCL     18050>>ASSIGN
KX$TMRBLK.SBR$
     15853**DCL     18052>>CALL
KXF$FRAME
     15506**DCL-ENT 18099--CALL
KXP$PACKET
     15508**DCL-ENT 18172--CALL
KXS$SYSLOG
     15507**DCL-ENT 18126--CALL
KXV$VCNTW
     15502**DCL-ENT 18068--CALL
KX_CNTX.HD$
     17122**DCL     18086>>ASSIGN
KX_LINERRDSCLMT
     17790**DCL     18197>>IF      18197>>IF
KX_SLLIST.HD$
     17122**DCL     18063>>IF      18067>>ASSIGN
KX_STATS_HDLC.REQSTATS.DSPMSK
     17396**DCL     17402--REDEF
KX_STATS_HDLC.REQSTATS.SLCMSK
     17437**DCL     17444--REDEF
KX_STATS_HDLC.TIMEOUTS
PL6.E3A0      #008=KXS$TMR File=KXS$SUBS.:E05TSI                                 WED 07/30/97 02:30 Page:322
     17450**DCL     18097<<ASSIGN  18097>>ASSIGN
KX_STATS_X25.REQSTATS.DSPMSK
     17721**DCL     17727--REDEF
KX_STATS_X25.REQSTATS.SLCMSK
     17762**DCL     17769--REDEF
KX_SYSLOG.HD$
     17795**DCL     18179>>DOWHILE 18180>>ASSIGN  18203<<ASSIGN  18216<<ASSIGN  18220<<ASSIGN  18239>>IF
KX_SYSLOG.TL$
     17795**DCL     18241<<ASSIGN
KX_TMRBLK.QHD$
     17127**DCL     18013>>ASSIGN  18030<<ASSIGN  18046<<ASSIGN
KX_TMRBLK.QTL$
     17127**DCL     18029<<ASSIGN  18045<<ASSIGN
LEVEL
     15565**DCL     18010<<ASSIGN  18010<>CALL    18244>>IF
ONE_MINUTE
     17799**DCL     18083<<ASSIGN  18083>>ASSIGN  18084>>IF      18084<<ASSIGN  18105>>IF
REJ
     17871**DCL     18126<>CALL
RLS
     18237**LABEL   18204--GOTO
SYSLOG_LOOP
     18179**LABEL   18192--EXIT    18221--EXIT
T$
     15564**DCL     15905--IMP-PTR 18015<<ASSIGN  18055>>ASSIGN  18086<<ASSIGN  18087>>DOWHILE 18088>>IF
     18088>>IF      18088>>IF      18088>>IF      18093>>ASSIGN  18093>>ASSIGN  18094>>IF      18098>>ASSIGN
     18105>>IF      18126>>CALL    18126>>CALL    18128>>ASSIGN  18130>>IF      18133>>ASSIGN  18134>>ASSIGN
     18141>>ASSIGN  18148>>IF      18151>>ASSIGN  18158>>ASSIGN  18165<<ASSIGN  18165>>ASSIGN  18180<<ASSIGN
     18181>>ASSIGN  18181>>ASSIGN  18182>>IF      18185>>IF      18188>>ASSIGN  18188>>ASSIGN  18190>>IF
     18197>>IF      18201>>CALL    18203>>ASSIGN  18213>>ASSIGN  18216>>ASSIGN  18217>>CALL    18220>>ASSIGN
     18227>>IF      18228>>CALL    18237<>CALL
TRY_SNDCQ
     15816**DCL     18071<<ASSIGN  18130>>IF      18145<<ASSIGN  18148>>IF      18162<<ASSIGN

PL6.E3A0      #009=KXS$Q_SYSLOG File=KXS$SUBS.:E05TSI                            WED 07/30/97 02:32 Page:323
     1740        1        /*T***********************************************************/
     1741        2        /*T*                                                         */
     1742        3        /*T* Copyright (c) Bull HN Information Systems Inc., 1997    */
     1743        4        /*T*                                                         */
     1744        5        /*T***********************************************************/
     1745        6        /*F* NAME: KXS$Q_SYSLOG              */
     1746        7        /*F* PURPOSE: Queue a wrsyslog entry for later reporting.  */
     1747        8
     1748        9        /*D* NAME: KXS$Q_SYSLOG              */
     1749       10        /*D* PURPOSE: Whenever an interrupt-level routine
     1750       11                      is unable to report a syslog, it is
     1751       12                      queued and will be reported later by
     1752       13                      the one second clock routine, KXS$TMR.  */
     1753       14        /*D* CALL: CALL KXS$Q_SYSLOG ( FPT_WRSYSLOG );  */
     1754       15        /*D* INPUT: FPT_WRSYSLOG - the obvious  */
     1755       16        /*D* OUTPUT: none                    */
     1756       17
     1757       18        KXS$Q_SYSLOG: PROC ( FPT_WRSYSLOG );
     1758       19
     1759       20
     1760       21        /*****************************************************************
     1761       22        *                                                                *
     1762       23        *                           Includes                             *
     1763       24        *                                                                *
     1764       25        *****************************************************************/
     1765       26
     1766       27        %INCLUDE K_ID_E;
     1767       77        %K#ENTID_E;
     1768       96        %K#LYRID_E;
     1769      103        %INCLUDE KL_SUPER_C;
     1770     3005        %INCLUDE KL_MACRO_C;
     1771     6357        %INCLUDE KL_AFCN_C;
     1772     6458        %INCLUDE LCP_6;
     1773    10737        %INCLUDE CP_6_SUBS;
     1774    11277        %INCLUDE KX_EQUS_E;
     1775    11716        %INCLUDE KX_PERR_C;
     1776    11845        %INCLUDE KX_SCODE_C;
PL6.E3A0      #009=KXS$Q_SYSLOG File=KXS$SUBS.:E05TSI                            WED 07/30/97 02:32 Page:324
     1777    11911        %INCLUDE KX_DATA_C;
     1778    11979        %INCLUDE KX_MACROS_M;
     1779    12750        %INCLUDE KV_GLBCNS_E;
     1780    13091        %KV#CQ_HNDID_E;
     1781    13096        %INCLUDE KH$CHN;
     1782    13218        %INCLUDE K_ADDRESS_M;
     1783    13721        %INCLUDE KNH_MACRO_C;
     1784    14004        %EJECT;
PL6.E3A0      #009=KXS$Q_SYSLOG File=KXS$SUBS.:E05TSI                            WED 07/30/97 02:32 Page:325
     1785    14005        /*****************************************************************
     1786    14006        *                                                                *
     1787    14007        *                           External References                  *
     1788    14008        *                                                                *
     1789    14009        *****************************************************************/
     1790    14010
     1791    14011    1   DCL KVB$GETSYS ENTRY (2) ALTRET;
     1792    14012    1   DCL KVB$GET2NSYS ENTRY(2) ALTRET;
     1793    14013    1   DCL KXX$X29 ENTRY (1);
     1794    14014    1   DCL KHD$SCREECH ENTRY (1);
     1795    14015    1   DCL KHA$ERRLOG ENTRY (2) ALTRET;
     1796    14016    1   DCL KHA$GET_CTX_PTR ENTRY (2) ALTRET;
     1797    14017    1   DCL KVB$RLSSYS ENTRY (2) ALTRET;
     1798    14018    1   DCL KVB$RLS2NSYS ENTRY(2) ALTRET;
     1799    14019
     1800    14020        /*****************************************************************
     1801    14021        *                                                                *
     1802    14022        *                           Auto                                 *
     1803    14023        *                                                                *
     1804    14024        *****************************************************************/
     1805    14025
     1806    14026        %FPT_WRSYSLOG ( STCLASS = );
     1807    14121
     1808    14122    1   DCL BFRSIZ UBIN;
     1809    14123    1   DCL DATSIZ UBIN;
     1810    14124    1   DCL ENTRY$ PTR;
     1811    14125    1   DCL CDAT$ CPTR;  /* just to get around PL6 */
     1812    14126    1   DCL DAT$ REDEF CDAT$ PTR;
     1813    14127    1   DCL CHN$ PTR;
     1814    14128        %EJECT;
PL6.E3A0      #009=KXS$Q_SYSLOG File=KXS$SUBS.:E05TSI                            WED 07/30/97 02:32 Page:326
     1815    14129        /*****************************************************************
     1816    14130        *                                                                *
     1817    14131        *                           Based                                *
     1818    14132        *                                                                *
     1819    14133        *****************************************************************/
     1820    14134
     1821    14135        %KX$SYSLOG_Q_ENTRY ( STCLASS = "BASED ( ENTRY$ )" );
     1822    14229        %KX$SYSLOG_Q_ENTRY ( FPTN = KX$TSYSLOG_Q_ENTRY, STCLASS = BASED );
     1823    14323    1   DCL STR CHAR(100) BASED;
     1824    14324        %KH$CHN ( STCLASS = " BASED(CHN$) " );
     1825    14448        %KX$L2 ( STCLASS = BASED );
     1826    14815
     1827    14816        /*****************************************************************
     1828    14817        *                                                                *
     1829    14818        *                           Constant                             *
     1830    14819        *                                                                *
     1831    14820        *****************************************************************/
     1832    14821
     1833    14822        %KX$SYSLOG_Q_ENTRY ( FPTN = KX_SYSLOG_Q_ENTRY, STCLASS = CONSTANT );
     1834    14916
     1835    14917        %VLP_SCODE (FPTN=Y_NO_GET,STCLASS=CONSTANT,FCG=KX,MID=S,ERR#=%S$KX_NO_GET#);
     1836    14978        %VLP_ERRCODE (STCLASS=CONSTANT,FCG='KX',MID='H',SEV=%G_WRSYSLOG_SEV_GOOD_HARD#,
     1837    14979                           FPTN = HRDERR,
     1838    14980                           ERR# = %E_KXH_HRDERR# );
     1839    15026        %EJECT;
PL6.E3A0      #009=KXS$Q_SYSLOG File=KXS$SUBS.:E05TSI                            WED 07/30/97 02:32 Page:327
     1840    15027        /*****************************************************************
     1841    15028        *                                                                *
     1842    15029        *                           Static                               *
     1843    15030        *                                                                *
     1844    15031        *****************************************************************/
     1845    15032
     1846    15033        %KX_DATA;
     1847    15723        %EJECT;
PL6.E3A0      #009=KXS$Q_SYSLOG File=KXS$SUBS.:E05TSI                            WED 07/30/97 02:32 Page:328
     1848    15724        /*****************************************************************
     1849    15725        *                                                                *
     1850    15726        *                           Procedure                            *
     1851    15727        *                                                                *
     1852    15728        *****************************************************************/
     1853    15729
     1854    15730    1       IF FPT_WRSYSLOG.V.ERRCODE = HRDERR
     1855    15731    1          THEN
     1856    15732    2             DO;
     1857    15733    2                FPT_WRSYSLOG.V.VALUES(0) = 0;
     1858    15734    2                FPT_WRSYSLOG.V.VALUES(2) = 0;
     1859    15735    2                ENTRY$ = KX_SYSLOG.HD$;
     1860    15736    3                DO WHILE ( ENTRY$ ~= ADDR(NIL) );
     1861    15737    3                   IF ( KX$SYSLOG_Q_ENTRY.FPT.V.ERRCOD
     1862    15738    3                      = FPT_WRSYSLOG.V.ERRCODE) AND
     1863    15739    3                      ( KX$SYSLOG_Q_ENTRY.FPT.V.TRMID
     1864    15740    3                      = FPT_WRSYSLOG.V.TERMID )
     1865    15741    3                      THEN
     1866    15742    4                         DO;
     1867    15743    4                            KX$SYSLOG_Q_ENTRY.FPT.V.VALUES(2) =
     1868    15744    4                               KX$SYSLOG_Q_ENTRY.FPT.V.VALUES(2) + 1;
     1869    15745    4                            RETURN;
     1870    15746    4                         END;
     1871    15747    3                   ENTRY$ = KX$SYSLOG_Q_ENTRY.NXT$;
     1872    15748    3                END;
     1873    15749    2             END;
     1874    15750        /*
     1875    15751                                             Get memory for the queue entry.
     1876    15752        */
     1877    15753    1       IF VBASE ( FPT_WRSYSLOG.BUF_ ) = ADDR(NIL)
     1878    15754    1          THEN
     1879    15755    1             DATSIZ = 0;
     1880    15756    1          ELSE
     1881    15757    1             DATSIZ = VBOUND ( FPT_WRSYSLOG.BUF_ ) + 1;
     1882    15758    1       BFRSIZ = ( DATSIZ + 1 ) / 2 + SIZEW ( KX_SYSLOG_Q_ENTRY ) - 1;
     1883    15759    1       IF BFRSIZ > KX_LINERRLOGBFRLMT
     1884    15760    1          THEN
PL6.E3A0      #009=KXS$Q_SYSLOG File=KXS$SUBS.:E05TSI                            WED 07/30/97 02:32 Page:329
     1885    15761    1   RET:      RETURN;
     1886    15762    1       IF FPT_WRSYSLOG.V.TERMID.LEV = %TERMINAL_ID_LEV_CHAN#
     1887    15763    1          THEN
     1888    15764    2             DO;
     1889    15765    2                CALL KHA$GET_CTX_PTR ( FPT_WRSYSLOG.V.TERMID, CHN$ )
     1890    15766    2                   ALTRET ( RET );  /* Don't know what channel it is */
     1891    15767    2                IF KH$CHN.CTX$ = ADDR(NIL) THEN RETURN;
     1892    15768    2                KH$CHN.CTX$->KX$L2.ERRLOGWRDCNT = KH$CHN.CTX$->KX$L2.ERRLOGWRDCNT +
             15768                         BFRSIZ;
     1893    15769    3                DO WHILE ( KH$CHN.CTX$->KX$L2.ERRLOGWRDCNT > KX_LINERRLOGBFRLMT );
     1894    15770    3                   CALL Y$RLSOLD ALTRET ( GETBFR );
     1895    15771    3                END;
     1896    15772    2             END;
     1897    15773    1   GETBFR:
     1898    15774    1       CALL KVB$GETSYS ( BFRSIZ, ENTRY$ ) ALTRET ( RET );
     1899    15775        /*
     1900    15776                                             Fill in the FPT area.
     1901    15777        */
     1902    15778    1       KX$SYSLOG_Q_ENTRY.FPT = FPT_WRSYSLOG;
     1903    15779    1       KX$SYSLOG_Q_ENTRY.FPT.V_ = VECTOR ( KX$SYSLOG_Q_ENTRY.FPT.V );
     1904    15780        /*
     1905    15781                                             Move any data into the buffer.
     1906    15782        */
     1907    15783    1       KX$SYSLOG_Q_ENTRY.BUF.SIZ = DATSIZ;
     1908    15784    1       CDAT$ = VBASE ( FPT_WRSYSLOG.BUF_ );
     1909    15785    1       IF DAT$ ~= ADDR(NIL)
     1910    15786    1          THEN
     1911    15787    2             DO;
     1912    15788    2                SUBSTR ( KX$SYSLOG_Q_ENTRY.BUF.DAT, 0, DATSIZ ) =
     1913    15789    2                   SUBSTR ( DAT$ -> STR, 0, DATSIZ );
     1914    15790        /*
     1915    15791                                             Set up the vector to the data.
     1916    15792        */
     1917    15793    2                KX$SYSLOG_Q_ENTRY.FPT.BUF_ = VECTOR ( KX$SYSLOG_Q_ENTRY.BUF.DAT );
     1918    15794    2             END;
     1919    15795    1          ELSE
     1920    15796    2             DO;
PL6.E3A0      #009=KXS$Q_SYSLOG File=KXS$SUBS.:E05TSI                            WED 07/30/97 02:32 Page:330
     1921    15797    2                KX$SYSLOG_Q_ENTRY.FPT.BUF_ = VECTOR(NIL);
     1922    15798    2             END;
     1923    15799        /*
     1924    15800                                             Add this entry to the queue.
     1925    15801        */
     1926    15802    1       IF KX_SYSLOG.HD$ = ADDR(NIL)
     1927    15803    1          THEN
     1928    15804    1             KX_SYSLOG.HD$ = ENTRY$;
     1929    15805    1          ELSE
     1930    15806    1             KX_SYSLOG.TL$ -> KX$TSYSLOG_Q_ENTRY.NXT$ = ENTRY$;
     1931    15807    1       KX_SYSLOG.TL$ = ENTRY$;
     1932    15808
     1933    15809    1       KX$SYSLOG_Q_ENTRY.NXT$ = ADDR(NIL);
     1934    15810    1       RETURN;
     1935    15811
     1936    15812        /*
     1937    15813           Internal procedure to release the oldest errlog entry for the
     1938    15814           current channel. If the current entry is not link type errlog,
     1939    15815           just release the oldest entry in the queue.
     1940    15816        */
     1941    15817    1   Y$RLSOLD: PROC ALTRET;
     1942    15818
     1943    15819    2   DCL P1$ PTR;
     1944    15820    2   DCL P2$ PTR;
     1945    15821    2   DCL SAVCHN$ PTR;
     1946    15822    2   DCL RLSSIZ UBIN;
     1947    15823
     1948    15824    2       SAVCHN$ = CHN$;
     1949    15825    2       P1$ = KX_SYSLOG.HD$;
     1950    15826    2       IF P1$ = ADDR(NIL) THEN ALTRETURN;
     1951    15827    2       P2$ = ADDR(NIL);
     1952    15828    2       IF CHN$ ~= ADDR(NIL)
     1953    15829    2          THEN
     1954    15830    3             DO WHILE ( P1$ ~= ADDR(NIL) AND
     1955    15831    3          P1$ -> KX$TSYSLOG_Q_ENTRY.FPT.V.TRMID ~= KH$CHN.TERMID );
     1956    15832    3                P2$ = P1$;
     1957    15833    3                P1$ = P1$ -> KX$TSYSLOG_Q_ENTRY.NXT$;
PL6.E3A0      #009=KXS$Q_SYSLOG File=KXS$SUBS.:E05TSI                            WED 07/30/97 02:32 Page:331
     1958    15834    3             END;
     1959    15835    2       IF P1$ = ADDR(NIL)
     1960    15836    2          THEN
     1961    15837    3             DO;
     1962    15838    3                IF CHN$ ~= ADDR(NIL)
     1963    15839    3                   THEN
     1964    15840    3                      KH$CHN.CTX$ -> KX$L2.ERRLOGWRDCNT = 0;
     1965    15841    3                ALTRETURN;
     1966    15842    3             END;
     1967    15843    2       IF P1$ = KX_SYSLOG.HD$
     1968    15844    2          THEN
     1969    15845    2             KX_SYSLOG.HD$ = P1$ -> KX$TSYSLOG_Q_ENTRY.NXT$;
     1970    15846    2       IF P1$ = KX_SYSLOG.TL$
     1971    15847    2          THEN
     1972    15848    2             KX_SYSLOG.TL$ = P2$;
     1973    15849    2       IF P2$ ~= ADDR(NIL)
     1974    15850    2          THEN
     1975    15851    2             P2$ -> KX$TSYSLOG_Q_ENTRY.NXT$ = P1$ -> KX$TSYSLOG_Q_ENTRY.NXT$;
     1976    15852    2       RLSSIZ = SIZEW ( P1$ -> KX$TSYSLOG_Q_ENTRY );
     1977    15853    2       IF CHN$ = ADDR(NIL) AND P1$->KX$TSYSLOG_Q_ENTRY.FPT.V.TRMID.LEV =
     1978    15854    2          %TERMINAL_ID_LEV_CHAN#
     1979    15855    2          THEN
     1980    15856    2             CALL KHA$GET_CTX_PTR ( P1$->KX$TSYSLOG_Q_ENTRY.FPT.V.TRMID, CHN$ )
     1981    15857    2                ALTRET ( KVBRLS );
     1982    15858    2       IF CHN$ ~= ADDR(NIL)
     1983    15859    2          THEN
     1984    15860    2             IF KH$CHN.CTX$ ~= ADDR(NIL)
     1985    15861    2                THEN
     1986    15862    2                   KH$CHN.CTX$ -> KX$L2.ERRLOGWRDCNT = KH$CHN.CTX$ -> KX$L2.
             15862                            ERRLOGWRDCNT - RLSSIZ;
     1987    15863    2   KVBRLS:
     1988    15864    2       CALL KVB$RLSSYS ( RLSSIZ, P1$ );
     1989    15865    2       CHN$ = SAVCHN$;
     1990    15866    2       RETURN;
     1991    15867
     1992    15868    2   END Y$RLSOLD;
     1993    15869    1   END KXS$Q_SYSLOG;
PL6.E3A0      #009=KXS$Q_SYSLOG File=KXS$SUBS.:E05TSI                            WED 07/30/97 02:32 Page:332
     1994    15870
     1995    15871        %EOD;

PL6.E3A0      #009=KXS$Q_SYSLOG File=KXS$SUBS.:E05TSI                            WED 07/30/97 02:32 Page:333
--  Include file information  --

   KNH_MACRO_C.:E05TOU  is referenced.
   K_ADDRESS_M.:E05TOU  is referenced.
   KH$CHN.:E05TOU  is referenced.
   KV_GLBCNS_E.:E05TOU  is referenced.
   KX_MACROS_M.:E05TOU  is referenced.
   KX_DATA_C.:E05TOU  is referenced.
   KX_SCODE_C.:E05TOU  is referenced.
   KX_PERR_C.:E05TOU  is referenced.
   KX_EQUS_E.:E05TOU  is referenced.
   CP_6_SUBS.:E05TOU  is referenced.
   G_LCP6_E.:E05TOU  is referenced.
   GT_LCP6_M.:E05TOU  is referenced.
   KI_CP6.:E05TOU  is referenced.
   GF_LCP6_M.:E05TOU  is referenced.
   GM_LCP6_M.:E05TOU  is referenced.
   GU_LCP6_M.:E05TOU  is referenced.
   GJ_LCP6_M.:E05TOU  is referenced.
   GH_LCP6_M.:E05TOU  is referenced.
   LCP_6.:E05TOU  cannot be made into a system file and is referenced.
   KL_AFCN_C.:E05TOU  is referenced.
   KL_MACRO_C.:E05TOU  is referenced.
   KL_SUPER_C.:E05TOU  is referenced.
   K_ID_E.:E05TOU  is referenced.
      No diagnostics issued in procedure KXS$Q_SYSLOG.

   Procedure KXS$Q_SYSLOG requires 459 words for executable code.
   Procedure KXS$Q_SYSLOG requires 28 words of local(AUTO) storage.

PL6.E3A0      #009=KXS$Q_SYSLOG File=KXS$SUBS.:E05TSI                            WED 07/30/97 02:32 Page:334

 Object Unit name= KXS$Q_SYSLOG                               File name= KXS$SUBS.:E05TOU
 UTS= JUL 30 '97 02:32:14.84 WED                              Compiler= PL-6/E31         Sev=      00
 SharedLib= :SHARED_LCP6_SYSTEM                               Alt SharedLib=


    ****  Control sections  ****

 Sect   Type Bound  Init  Size HexSiz  Section name
    0  RoData even  UTS     30     1E  KXS$Q_SYSLOG
    1   Proc  even  none   459    1CB  KXS$Q_SYSLOG
    2  RoData even  none     3      3  KXS$Q_SYSLOG

    ****  Entry defs  ****

                              Check   Calling
                             calling  sequence
  Sect HexLoc Primary Altret sequence   type   Parms  Name
     1      0   yes            yes      Std        1  KXS$Q_SYSLOG

  ****  Entry refs  ****

         Check        Calling
        calling       sequence
Altret sequence SRef   type   Args  Name
 yes     yes           Std       2 KHA$GET_CTX_PTR
 yes     yes           Std       2 KVB$GETSYS
 yes     yes           Std       2 KVB$RLSSYS
                       nStd      0 X6A_AUTO_1
                       nStd      0 X6A_ARET

  ****  Data refs  ****

  Flags:  r = read only, s = secondary
Flgs Name                             Flgs Name                             Flgs Name
     KX_LINERRLOGBFRLMT                    KX_SYSLOG                             KX_PM$
r    G$ROS$
PL6.E3A0      #009=KXS$Q_SYSLOG File=KXS$SUBS.:E05TSI                            WED 07/30/97 02:32 Page:335


     1740        1        /*T***********************************************************/
     1741        2        /*T*                                                         */
     1742        3        /*T* Copyright (c) Bull HN Information Systems Inc., 1997    */
     1743        4        /*T*                                                         */
     1744        5        /*T***********************************************************/
     1745        6        /*F* NAME: KXS$Q_SYSLOG              */
     1746        7        /*F* PURPOSE: Queue a wrsyslog entry for later reporting.  */
     1747        8
     1748        9        /*D* NAME: KXS$Q_SYSLOG              */
     1749       10        /*D* PURPOSE: Whenever an interrupt-level routine
     1750       11                      is unable to report a syslog, it is
     1751       12                      queued and will be reported later by
     1752       13                      the one second clock routine, KXS$TMR.  */
     1753       14        /*D* CALL: CALL KXS$Q_SYSLOG ( FPT_WRSYSLOG );  */
     1754       15        /*D* INPUT: FPT_WRSYSLOG - the obvious  */
     1755       16        /*D* OUTPUT: none                    */
     1756       17
     1757       18        KXS$Q_SYSLOG: PROC ( FPT_WRSYSLOG );

     18   1 000000  D380 0000 0000  xent KXS$Q_SYSLOG    LNJ,B5   X6A_AUTO_1
          1 000003       001C 0001                       DC       28,1

     1758       19
     1759       20
     1760       21        /*****************************************************************
     1761       22        *                                                                *
     1762       23        *                           Includes                             *
     1763       24        *                                                                *
     1764       25        *****************************************************************/
     1765       26
     1766       27        %INCLUDE K_ID_E;
     1767       77        %K#ENTID_E;
     1768       96        %K#LYRID_E;
     1769      103        %INCLUDE KL_SUPER_C;
     1770     3005        %INCLUDE KL_MACRO_C;
     1771     6357        %INCLUDE KL_AFCN_C;
PL6.E3A0      #009=KXS$Q_SYSLOG File=KXS$SUBS.:E05TSI                            WED 07/30/97 02:32 Page:336
     1772     6458        %INCLUDE LCP_6;
     1773    10737        %INCLUDE CP_6_SUBS;
     1774    11277        %INCLUDE KX_EQUS_E;
     1775    11716        %INCLUDE KX_PERR_C;
     1776    11845        %INCLUDE KX_SCODE_C;
     1777    11911        %INCLUDE KX_DATA_C;
     1778    11979        %INCLUDE KX_MACROS_M;
     1779    12750        %INCLUDE KV_GLBCNS_E;
     1780    13091        %KV#CQ_HNDID_E;
     1781    13096        %INCLUDE KH$CHN;
     1782    13218        %INCLUDE K_ADDRESS_M;
     1783    13721        %INCLUDE KNH_MACRO_C;
     1784    14004        %EJECT;
PL6.E3A0      #009=KXS$Q_SYSLOG File=KXS$SUBS.:E05TSI                            WED 07/30/97 02:32 Page:337
     1785    14005        /*****************************************************************
     1786    14006        *                                                                *
     1787    14007        *                           External References                  *
     1788    14008        *                                                                *
     1789    14009        *****************************************************************/
     1790    14010
     1791    14011    1   DCL KVB$GETSYS ENTRY (2) ALTRET;
     1792    14012    1   DCL KVB$GET2NSYS ENTRY(2) ALTRET;
     1793    14013    1   DCL KXX$X29 ENTRY (1);
     1794    14014    1   DCL KHD$SCREECH ENTRY (1);
     1795    14015    1   DCL KHA$ERRLOG ENTRY (2) ALTRET;
     1796    14016    1   DCL KHA$GET_CTX_PTR ENTRY (2) ALTRET;
     1797    14017    1   DCL KVB$RLSSYS ENTRY (2) ALTRET;
     1798    14018    1   DCL KVB$RLS2NSYS ENTRY(2) ALTRET;
     1799    14019
     1800    14020        /*****************************************************************
     1801    14021        *                                                                *
     1802    14022        *                           Auto                                 *
     1803    14023        *                                                                *
     1804    14024        *****************************************************************/
     1805    14025
     1806    14026        %FPT_WRSYSLOG ( STCLASS = );
     1807    14121
     1808    14122    1   DCL BFRSIZ UBIN;
     1809    14123    1   DCL DATSIZ UBIN;
     1810    14124    1   DCL ENTRY$ PTR;
     1811    14125    1   DCL CDAT$ CPTR;  /* just to get around PL6 */
     1812    14126    1   DCL DAT$ REDEF CDAT$ PTR;
     1813    14127    1   DCL CHN$ PTR;
     1814    14128        %EJECT;
PL6.E3A0      #009=KXS$Q_SYSLOG File=KXS$SUBS.:E05TSI                            WED 07/30/97 02:32 Page:338
     1815    14129        /*****************************************************************
     1816    14130        *                                                                *
     1817    14131        *                           Based                                *
     1818    14132        *                                                                *
     1819    14133        *****************************************************************/
     1820    14134
     1821    14135        %KX$SYSLOG_Q_ENTRY ( STCLASS = "BASED ( ENTRY$ )" );
     1822    14229        %KX$SYSLOG_Q_ENTRY ( FPTN = KX$TSYSLOG_Q_ENTRY, STCLASS = BASED );
     1823    14323    1   DCL STR CHAR(100) BASED;
     1824    14324        %KH$CHN ( STCLASS = " BASED(CHN$) " );
     1825    14448        %KX$L2 ( STCLASS = BASED );
     1826    14815
     1827    14816        /*****************************************************************
     1828    14817        *                                                                *
     1829    14818        *                           Constant                             *
     1830    14819        *                                                                *
     1831    14820        *****************************************************************/
     1832    14821
     1833    14822        %KX$SYSLOG_Q_ENTRY ( FPTN = KX_SYSLOG_Q_ENTRY, STCLASS = CONSTANT );
     1834    14916
     1835    14917        %VLP_SCODE (FPTN=Y_NO_GET,STCLASS=CONSTANT,FCG=KX,MID=S,ERR#=%S$KX_NO_GET#);
     1836    14978        %VLP_ERRCODE (STCLASS=CONSTANT,FCG='KX',MID='H',SEV=%G_WRSYSLOG_SEV_GOOD_HARD#,
     1837    14979                           FPTN = HRDERR,
     1838    14980                           ERR# = %E_KXH_HRDERR# );
     1839    15026        %EJECT;
PL6.E3A0      #009=KXS$Q_SYSLOG File=KXS$SUBS.:E05TSI                            WED 07/30/97 02:32 Page:339
     1840    15027        /*****************************************************************
     1841    15028        *                                                                *
     1842    15029        *                           Static                               *
     1843    15030        *                                                                *
     1844    15031        *****************************************************************/
     1845    15032
     1846    15033        %KX_DATA;
     1847    15723        %EJECT;
PL6.E3A0      #009=KXS$Q_SYSLOG File=KXS$SUBS.:E05TSI                            WED 07/30/97 02:32 Page:340
     1848    15724        /*****************************************************************
     1849    15725        *                                                                *
     1850    15726        *                           Procedure                            *
     1851    15727        *                                                                *
     1852    15728        *****************************************************************/
     1853    15729
     1854    15730    1       IF FPT_WRSYSLOG.V.ERRCODE = HRDERR

  15730   1 000005  ECC7 0004                            LDB,B6   @FPT_WRSYSLOG,AUTO
          1 000007  DB80 0000 0000  00                   LAB,B5   KX_SYSLOG_Q_ENTRY
          1 00000A  5C04                                 LDV,R5   4
          1 00000B  0022                                 ACM      ;
          1 00000C       4406 0006                                ALPHANUM(6,B6,,4,FILL),;
          1 00000E       4005 001C                                ALPHANUM(28,B5,,R5,FILL)
          1 000010  5301 002B                            CBNE     s:15753,PREL

     1855    15731    1          THEN
     1856    15732    2             DO;

     1857    15733    2                FPT_WRSYSLOG.V.VALUES(0) = 0;

  15733   1 000012  8746 0010                            CL       16,B6

     1858    15734    2                FPT_WRSYSLOG.V.VALUES(2) = 0;

  15734   1 000014  8746 0012                            CL       18,B6

     1859    15735    2                ENTRY$ = KX_SYSLOG.HD$;

  15735   1 000016  DC80 0000 0000  xsym                 LDB,B5   KX_SYSLOG
          1 000019  DFC7 0008                            STB,B5   ENTRY$,AUTO

     1860    15736    3                DO WHILE ( ENTRY$ ~= ADDR(NIL) );

  15736   1 00001B  0F81 001D                            B        s:15748,PREL

     1861    15737    3                   IF ( KX$SYSLOG_Q_ENTRY.FPT.V.ERRCOD
PL6.E3A0      #009=KXS$Q_SYSLOG File=KXS$SUBS.:E05TSI                            WED 07/30/97 02:32 Page:341

  15737   1 00001D  ECC7 0008                            LDB,B6   ENTRY$,AUTO
          1 00001F  DCC7 0004                            LDB,B5   @FPT_WRSYSLOG,AUTO
          1 000021  5C04                                 LDV,R5   4
          1 000022  0022                                 ACM      ;
          1 000023       4406 0008                                ALPHANUM(8,B6,,4,FILL),;
          1 000025       4005 0006                                ALPHANUM(6,B5,,R5,FILL)
          1 000027  5301 000E                            CBNE     s:15747,PREL
          1 000029  5C10                                 LDV,R5   16
          1 00002A  0022                                 ACM      ;
          1 00002B       5006 000A                                ALPHANUM(10,B6,,16,FILL),;
          1 00002D       4005 0008                                ALPHANUM(8,B5,,R5,FILL)
          1 00002F  5301 0006                            CBNE     s:15747,PREL

     1862    15738    3                      = FPT_WRSYSLOG.V.ERRCODE) AND
     1863    15739    3                      ( KX$SYSLOG_Q_ENTRY.FPT.V.TRMID
     1864    15740    3                      = FPT_WRSYSLOG.V.TERMID )
     1865    15741    3                      THEN
     1866    15742    4                         DO;

     1867    15743    4                            KX$SYSLOG_Q_ENTRY.FPT.V.VALUES(2) =

  15743   1 000031  8AC6 0014                            INC      20,B6

     1868    15744    4                               KX$SYSLOG_Q_ENTRY.FPT.V.VALUES(2) + 1;
     1869    15745    4                            RETURN;

  15745   1 000033  C380 0000 0000  xent                 LNJ,B4   X6A_ARET

     1870    15746    4                         END;
     1871    15747    3                   ENTRY$ = KX$SYSLOG_Q_ENTRY.NXT$;

  15747   1 000036  CC86                                 LDB,B4   ,B6
          1 000037  CFC7 0008                            STB,B4   ENTRY$,AUTO

     1872    15748    3                END;

PL6.E3A0      #009=KXS$Q_SYSLOG File=KXS$SUBS.:E05TSI                            WED 07/30/97 02:32 Page:342
  15748   1 000039  8DC7 0008                            CMN      ENTRY$,AUTO
          1 00003B  09E2                                 BNE      s:15737,SPREL

     1873    15749    2             END;

     1874    15750        /*
     1875    15751                                             Get memory for the queue entry.
     1876    15752        */
     1877    15753    1       IF VBASE ( FPT_WRSYSLOG.BUF_ ) = ADDR(NIL)

  15753   1 00003C  ECC7 0004                            LDB,B6   @FPT_WRSYSLOG,AUTO
          1 00003E  8DC6 0004                            CMN      4,B6
          1 000040  0981 0005                            BNE      s:15757,PREL

     1878    15754    1          THEN
     1879    15755    1             DATSIZ = 0;

  15755   1 000042  8747 0007                            CL       DATSIZ,AUTO
          1 000044  0F81 0006                            B        s:15758,PREL

     1880    15756    1          ELSE
     1881    15757    1             DATSIZ = VBOUND ( FPT_WRSYSLOG.BUF_ ) + 1;

  15757   1 000046  E846 0003                            LDR,R6   3,B6
          1 000048  6E01                                 ADV,R6   1
          1 000049  EF47 0007                            STR,R6   DATSIZ,AUTO

     1882    15758    1       BFRSIZ = ( DATSIZ + 1 ) / 2 + SIZEW ( KX_SYSLOG_Q_ENTRY ) - 1;

  15758   1 00004B  E847 0007                            LDR,R6   DATSIZ,AUTO
          1 00004D  6E01                                 ADV,R6   1
          1 00004E  6041                                 SOR,R6   1
          1 00004F  6E18                                 ADV,R6   24
          1 000050  EF47 0006                            STR,R6   BFRSIZ,AUTO

     1883    15759    1       IF BFRSIZ > KX_LINERRLOGBFRLMT

PL6.E3A0      #009=KXS$Q_SYSLOG File=KXS$SUBS.:E05TSI                            WED 07/30/97 02:32 Page:343
  15759   1 000052  E900 0000 0000  xsym                 CMR,R6   KX_LINERRLOGBFRLMT
          1 000055  0381 0004                            BLE      s:15762,PREL

     1884    15760    1          THEN
     1885    15761    1   RET:      RETURN;

  15761   1 000057  C380 0000 0000  xent RET             LNJ,B4   X6A_ARET

     1886    15762    1       IF FPT_WRSYSLOG.V.TERMID.LEV = %TERMINAL_ID_LEV_CHAN#

  15762   1 00005A  D846 0008                            LDR,R5   8,B6
          1 00005C  D570 00FF                            AND,R5   255,IMO
          1 00005E  5D01                                 CMV,R5   1
          1 00005F  0981 0038                            BNE      s:15772,PREL

     1887    15763    1          THEN
     1888    15764    2             DO;

     1889    15765    2                CALL KHA$GET_CTX_PTR ( FPT_WRSYSLOG.V.TERMID, CHN$ )

  15765   1 000061  DBC7 000C                            LAB,B5   CHN$,AUTO
          1 000063  DFC7 001A                            STB,B5   RLSSIZ+4,AUTO
          1 000065  CBC6 0008                            LAB,B4   8,B6
          1 000067  CFC7 0018                            STB,B4   RLSSIZ+2,AUTO
          1 000069  BBC7 0018                            LAB,B3   RLSSIZ+2,AUTO
          1 00006B  CBF0 0200                            LAB,B4   512,IMO
          1 00006D  E380 0000 0000  xent                 LNJ,B6   KHA$GET_CTX_PTR
          1 000070       FFE7                            DC       s:15761,PREL

     1890    15766    2                   ALTRET ( RET );  /* Don't know what channel it is */
     1891    15767    2                IF KH$CHN.CTX$ = ADDR(NIL) THEN RETURN;

  15767   1 000071  ECC7 000C                            LDB,B6   CHN$,AUTO
          1 000073  8DC6 000C                            CMN      12,B6
          1 000075  0981 0004                            BNE      s:15768,PREL

  15767   1 000077  C380 0000 0000  xent                 LNJ,B4   X6A_ARET
PL6.E3A0      #009=KXS$Q_SYSLOG File=KXS$SUBS.:E05TSI                            WED 07/30/97 02:32 Page:344

     1892    15768    2                KH$CHN.CTX$->KX$L2.ERRLOGWRDCNT = KH$CHN.CTX$->KX$L2.ERRLOGWRDCNT +
             15768                         BFRSIZ;

  15768   1 00007A  DCC6 000C                            LDB,B5   12,B6
          1 00007C  E845 0052                            LDR,R6   82,B5
          1 00007E  EA47 0006                            ADD,R6   BFRSIZ,AUTO
          1 000080  EF45 0052                            STR,R6   82,B5

     1893    15769    3                DO WHILE ( KH$CHN.CTX$->KX$L2.ERRLOGWRDCNT > KX_LINERRLOGBFRLMT );

  15769   1 000082  DCC6 000C                            LDB,B5   12,B6
          1 000084  E845 0052                            LDR,R6   82,B5
          1 000086  E900 0000 0000  xsym                 CMR,R6   KX_LINERRLOGBFRLMT
          1 000089  0381 000E                            BLE      s:15772,PREL

     1894    15770    3                   CALL Y$RLSOLD ALTRET ( GETBFR );

  15770   1 00008B  E3C0 008D                            LNJ,B6   s:0,PREL
          1 00008D       000B                            DC       s:15772,PREL

     1895    15771    3                END;

  15771   1 00008E  ECC7 000C                            LDB,B6   CHN$,AUTO
          1 000090  DCC6 000C                            LDB,B5   12,B6
          1 000092  E845 0052                            LDR,R6   82,B5
          1 000094  E900 0000 0000  xsym                 CMR,R6   KX_LINERRLOGBFRLMT
          1 000097  0374                                 BG       s:15770,SPREL

     1896    15772    2             END;

     1897    15773    1   GETBFR:
     1898    15774    1       CALL KVB$GETSYS ( BFRSIZ, ENTRY$ ) ALTRET ( RET );

  15774   1 000098  EBC7 0008            GETBFR          LAB,B6   ENTRY$,AUTO
          1 00009A  EFC7 001A                            STB,B6   RLSSIZ+4,AUTO
          1 00009C  DBC7 0006                            LAB,B5   BFRSIZ,AUTO
PL6.E3A0      #009=KXS$Q_SYSLOG File=KXS$SUBS.:E05TSI                            WED 07/30/97 02:32 Page:345
          1 00009E  DFC7 0018                            STB,B5   RLSSIZ+2,AUTO
          1 0000A0  BBC7 0018                            LAB,B3   RLSSIZ+2,AUTO
          1 0000A2  CBF0 0200                            LAB,B4   512,IMO
          1 0000A4  E380 0000 0000  xent                 LNJ,B6   KVB$GETSYS
          1 0000A7       FFB0                            DC       s:15761,PREL

     1899    15775        /*
     1900    15776                                             Fill in the FPT area.
     1901    15777        */
     1902    15778    1       KX$SYSLOG_Q_ENTRY.FPT = FPT_WRSYSLOG;

  15778   1 0000A8  ACC7 0004                            LDB,B2   @FPT_WRSYSLOG,AUTO
          1 0000AA  2C00                                 LDV,R2   0
          1 0000AB  6C2A                                 LDV,R6   42
          1 0000AC  BCC7 0008                            LDB,B3   ENTRY$,AUTO
          1 0000AE  3C04                                 LDV,R3   4
          1 0000AF  0008                                 MMM

     1903    15779    1       KX$SYSLOG_Q_ENTRY.FPT.V_ = VECTOR ( KX$SYSLOG_Q_ENTRY.FPT.V );

  15779   1 0000B0  ECC7 0008                            LDB,B6   ENTRY$,AUTO
          1 0000B2  DBC6 0008                            LAB,B5   8,B6
          1 0000B4  DFC7 0019                            STB,B5   RLSSIZ+3,AUTO
          1 0000B6  6C1D                                 LDV,R6   29
          1 0000B7  EF47 0018                            STR,R6   RLSSIZ+2,AUTO
          1 0000B9  ABC7 0018                            LAB,B2   RLSSIZ+2,AUTO
          1 0000BB  2C00                                 LDV,R2   0
          1 0000BC  6C06                                 LDV,R6   6
          1 0000BD  BB86                                 LAB,B3   ,B6
          1 0000BE  3C04                                 LDV,R3   4
          1 0000BF  0008                                 MMM

     1904    15780        /*
     1905    15781                                             Move any data into the buffer.
     1906    15782        */
     1907    15783    1       KX$SYSLOG_Q_ENTRY.BUF.SIZ = DATSIZ;

PL6.E3A0      #009=KXS$Q_SYSLOG File=KXS$SUBS.:E05TSI                            WED 07/30/97 02:32 Page:346
  15783   1 0000C0  DCC7 0008                            LDB,B5   ENTRY$,AUTO
          1 0000C2  E847 0007                            LDR,R6   DATSIZ,AUTO
          1 0000C4  EF45 0017                            STR,R6   23,B5

     1908    15784    1       CDAT$ = VBASE ( FPT_WRSYSLOG.BUF_ );

  15784   1 0000C6  CCC7 0004                            LDB,B4   @FPT_WRSYSLOG,AUTO
          1 0000C8  8CC4 0004                            LDI      4,B4
          1 0000CA  8D47 000A                            SDI      CDAT$,AUTO

     1909    15785    1       IF DAT$ ~= ADDR(NIL)

  15785   1 0000CC  8DC7 000A                            CMN      CDAT$,AUTO
          1 0000CE  0901 0024                            BE       s:15797,PREL

     1910    15786    1          THEN
     1911    15787    2             DO;

     1912    15788    2                SUBSTR ( KX$SYSLOG_Q_ENTRY.BUF.DAT, 0, DATSIZ ) =

  15788   1 0000D0  D845 0017                            LDR,R5   23,B5
          1 0000D2  ACC7 000A                            LDB,B2   CDAT$,AUTO
          1 0000D4  2C00                                 LDV,R2   0
          1 0000D5  E847 0007                            LDR,R6   DATSIZ,AUTO
          1 0000D7  BB85                                 LAB,B3   ,B5
          1 0000D8  3C30                                 LDV,R3   48
          1 0000D9  0008                                 MMM

     1913    15789    2                   SUBSTR ( DAT$ -> STR, 0, DATSIZ );
     1914    15790        /*
     1915    15791                                             Set up the vector to the data.
     1916    15792        */
     1917    15793    2                KX$SYSLOG_Q_ENTRY.FPT.BUF_ = VECTOR ( KX$SYSLOG_Q_ENTRY.BUF.DAT );

  15793   1 0000DA  ACC7 0008                            LDB,B2   ENTRY$,AUTO
          1 0000DC  E842 0017                            LDR,R6   23,B2
          1 0000DE  9BC2 0018                            LAB,B1   24,B2
PL6.E3A0      #009=KXS$Q_SYSLOG File=KXS$SUBS.:E05TSI                            WED 07/30/97 02:32 Page:347
          1 0000E0  9FC7 0019                            STB,B1   RLSSIZ+3,AUTO
          1 0000E2  6003                                 SOL,R6   3
          1 0000E3  6E0F                                 ADV,R6   15
          1 0000E4  6044                                 SOR,R6   4
          1 0000E5  6001                                 SOL,R6   1
          1 0000E6  6EFF                                 ADV,R6   -1
          1 0000E7  EF47 0018                            STR,R6   RLSSIZ+2,AUTO
          1 0000E9  ABC7 0018                            LAB,B2   RLSSIZ+2,AUTO
          1 0000EB  2C00                                 LDV,R2   0
          1 0000EC  6C06                                 LDV,R6   6
          1 0000ED  BCC7 0008                            LDB,B3   ENTRY$,AUTO
          1 0000EF  3C0A                                 LDV,R3   10
          1 0000F0  0008                                 MMM

     1918    15794    2             END;

  15794   1 0000F1  0F81 0009                            B        s:15802,PREL

     1919    15795    1          ELSE
     1920    15796    2             DO;

     1921    15797    2                KX$SYSLOG_Q_ENTRY.FPT.BUF_ = VECTOR(NIL);

  15797   1 0000F3  AB80 0000 0000  02                   LAB,B2   0
          1 0000F6  2C00                                 LDV,R2   0
          1 0000F7  6C06                                 LDV,R6   6
          1 0000F8  BB85                                 LAB,B3   ,B5
          1 0000F9  3C0A                                 LDV,R3   10
          1 0000FA  0008                                 MMM

     1922    15798    2             END;

     1923    15799        /*
     1924    15800                                             Add this entry to the queue.
     1925    15801        */
     1926    15802    1       IF KX_SYSLOG.HD$ = ADDR(NIL)

PL6.E3A0      #009=KXS$Q_SYSLOG File=KXS$SUBS.:E05TSI                            WED 07/30/97 02:32 Page:348
  15802   1 0000FB  8D80 0000 0000  xsym                 CMN      KX_SYSLOG
          1 0000FE  0981 0008                            BNE      s:15806,PREL

     1927    15803    1          THEN
     1928    15804    1             KX_SYSLOG.HD$ = ENTRY$;

  15804   1 000100  BCC7 0008                            LDB,B3   ENTRY$,AUTO
          1 000102  BF80 0000 0000  xsym                 STB,B3   KX_SYSLOG
          1 000105  0F81 0007                            B        s:15807,PREL

     1929    15805    1          ELSE
     1930    15806    1             KX_SYSLOG.TL$ -> KX$TSYSLOG_Q_ENTRY.NXT$ = ENTRY$;

  15806   1 000107  BCC7 0008                            LDB,B3   ENTRY$,AUTO
          1 000109  AC80 0000 0002  xsym                 LDB,B2   KX_SYSLOG+2
          1 00010C  BF82                                 STB,B3   ,B2

     1931    15807    1       KX_SYSLOG.TL$ = ENTRY$;

  15807   1 00010D  BCC7 0008                            LDB,B3   ENTRY$,AUTO
          1 00010F  BF80 0000 0002  xsym                 STB,B3   KX_SYSLOG+2

     1932    15808
     1933    15809    1       KX$SYSLOG_Q_ENTRY.NXT$ = ADDR(NIL);

  15809   1 000112  AB80 0000 0000                       LAB,B2   0
          1 000115  AF83                                 STB,B2   ,B3

     1934    15810    1       RETURN;

  15810   1 000116  C380 0000 0000  xent                 LNJ,B4   X6A_ARET

     1935    15811
     1936    15812        /*
     1937    15813           Internal procedure to release the oldest errlog entry for the
     1938    15814           current channel. If the current entry is not link type errlog,
     1939    15815           just release the oldest entry in the queue.
PL6.E3A0      #009=KXS$Q_SYSLOG File=KXS$SUBS.:E05TSI                            WED 07/30/97 02:32 Page:349
     1940    15816        */
     1941    15817    1   Y$RLSOLD: PROC ALTRET;

  15817   1 000119  EFC7 000E            Y$RLSOLD        STB,B6   CHN$+2,AUTO

     1942    15818
     1943    15819    2   DCL P1$ PTR;
     1944    15820    2   DCL P2$ PTR;
     1945    15821    2   DCL SAVCHN$ PTR;
     1946    15822    2   DCL RLSSIZ UBIN;
     1947    15823
     1948    15824    2       SAVCHN$ = CHN$;

  15824   1 00011B  DCC7 000C                            LDB,B5   CHN$,AUTO
          1 00011D  DFC7 0014                            STB,B5   SAVCHN$,AUTO

     1949    15825    2       P1$ = KX_SYSLOG.HD$;

  15825   1 00011F  CC80 0000 0000  xsym                 LDB,B4   KX_SYSLOG
          1 000122  CFC7 0010                            STB,B4   P1$,AUTO

     1950    15826    2       IF P1$ = ADDR(NIL) THEN ALTRETURN;

  15826   1 000124  8DC7 0010                            CMN      P1$,AUTO
          1 000126  0981 0005                            BNE      s:15827,PREL

  15826   1 000128  ECC7 000E                            LDB,B6   CHN$+2,AUTO
          1 00012A  B806                                 LDR,R3   ,B6
          1 00012B  C3B6                                 LNJ,B4   ,B6,R3

     1951    15827    2       P2$ = ADDR(NIL);

  15827   1 00012C  BB80 0000 0000                       LAB,B3   0
          1 00012F  BFC7 0012                            STB,B3   P2$,AUTO

     1952    15828    2       IF CHN$ ~= ADDR(NIL)

PL6.E3A0      #009=KXS$Q_SYSLOG File=KXS$SUBS.:E05TSI                            WED 07/30/97 02:32 Page:350
  15828   1 000131  8DC7 000C                            CMN      CHN$,AUTO
          1 000133  0901 0019                            BE       s:15835,PREL

     1953    15829    2          THEN
     1954    15830    3             DO WHILE ( P1$ ~= ADDR(NIL) AND

  15830   1 000135  0F81 0008                            B        s:15834,PREL

     1955    15831    3          P1$ -> KX$TSYSLOG_Q_ENTRY.FPT.V.TRMID ~= KH$CHN.TERMID );
     1956    15832    3                P2$ = P1$;

  15832   1 000137  ECC7 0010                            LDB,B6   P1$,AUTO
          1 000139  EFC7 0012                            STB,B6   P2$,AUTO

     1957    15833    3                P1$ = P1$ -> KX$TSYSLOG_Q_ENTRY.NXT$;

  15833   1 00013B  DC86                                 LDB,B5   ,B6
          1 00013C  DFC7 0010                            STB,B5   P1$,AUTO

     1958    15834    3             END;

  15834   1 00013E  8DC7 0010                            CMN      P1$,AUTO
          1 000140  0901 000C                            BE       s:15835,PREL
          1 000142  ECC7 0010                            LDB,B6   P1$,AUTO
          1 000144  DCC7 000C                            LDB,B5   CHN$,AUTO
          1 000146  5C10                                 LDV,R5   16
          1 000147  0022                                 ACM      ;
          1 000148       5006 000A                                ALPHANUM(10,B6,,16,FILL),;
          1 00014A       4005 0012                                ALPHANUM(18,B5,,R5,FILL)
          1 00014C  536B                                 CBNE     s:15832,SPREL

     1959    15835    2       IF P1$ = ADDR(NIL)

  15835   1 00014D  8DC7 0010                            CMN      P1$,AUTO
          1 00014F  0981 000F                            BNE      s:15843,PREL

     1960    15836    2          THEN
PL6.E3A0      #009=KXS$Q_SYSLOG File=KXS$SUBS.:E05TSI                            WED 07/30/97 02:32 Page:351
     1961    15837    3             DO;

     1962    15838    3                IF CHN$ ~= ADDR(NIL)

  15838   1 000151  8DC7 000C                            CMN      CHN$,AUTO
          1 000153  0901 0007                            BE       s:15841,PREL

     1963    15839    3                   THEN
     1964    15840    3                      KH$CHN.CTX$ -> KX$L2.ERRLOGWRDCNT = 0;

  15840   1 000155  ECC7 000C                            LDB,B6   CHN$,AUTO
          1 000157  DCC6 000C                            LDB,B5   12,B6
          1 000159  8745 0052                            CL       82,B5

     1965    15841    3                ALTRETURN;

  15841   1 00015B  ECC7 000E                            LDB,B6   CHN$+2,AUTO
          1 00015D  B806                                 LDR,R3   ,B6
          1 00015E  C3B6                                 LNJ,B4   ,B6,R3

     1966    15842    3             END;
     1967    15843    2       IF P1$ = KX_SYSLOG.HD$

  15843   1 00015F  ECC7 0010                            LDB,B6   P1$,AUTO
          1 000161  ED80 0000 0000  xsym                 CMB,B6   KX_SYSLOG
          1 000164  0981 0005                            BNE      s:15846,PREL

     1968    15844    2          THEN
     1969    15845    2             KX_SYSLOG.HD$ = P1$ -> KX$TSYSLOG_Q_ENTRY.NXT$;

  15845   1 000166  DC86                                 LDB,B5   ,B6
          1 000167  DF80 0000 0000  xsym                 STB,B5   KX_SYSLOG

     1970    15846    2       IF P1$ = KX_SYSLOG.TL$

  15846   1 00016A  ED80 0000 0002  xsym                 CMB,B6   KX_SYSLOG+2
          1 00016D  0981 0006                            BNE      s:15849,PREL
PL6.E3A0      #009=KXS$Q_SYSLOG File=KXS$SUBS.:E05TSI                            WED 07/30/97 02:32 Page:352

     1971    15847    2          THEN
     1972    15848    2             KX_SYSLOG.TL$ = P2$;

  15848   1 00016F  DCC7 0012                            LDB,B5   P2$,AUTO
          1 000171  DF80 0000 0002  xsym                 STB,B5   KX_SYSLOG+2

     1973    15849    2       IF P2$ ~= ADDR(NIL)

  15849   1 000174  8DC7 0012                            CMN      P2$,AUTO
          1 000176  0901 0005                            BE       s:15852,PREL

     1974    15850    2          THEN
     1975    15851    2             P2$ -> KX$TSYSLOG_Q_ENTRY.NXT$ = P1$ -> KX$TSYSLOG_Q_ENTRY.NXT$;

  15851   1 000178  DC86                                 LDB,B5   ,B6
          1 000179  CCC7 0012                            LDB,B4   P2$,AUTO
          1 00017B  DF84                                 STB,B5   ,B4

     1976    15852    2       RLSSIZ = SIZEW ( P1$ -> KX$TSYSLOG_Q_ENTRY );

  15852   1 00017C  ECC7 0010                            LDB,B6   P1$,AUTO
          1 00017E  E846 0017                            LDR,R6   23,B6
          1 000180  6003                                 SOL,R6   3
          1 000181  EA70 018F                            ADD,R6   399,IMO
          1 000183  6044                                 SOR,R6   4
          1 000184  EF47 0016                            STR,R6   RLSSIZ,AUTO

     1977    15853    2       IF CHN$ = ADDR(NIL) AND P1$->KX$TSYSLOG_Q_ENTRY.FPT.V.TRMID.LEV =

  15853   1 000186  8DC7 000C                            CMN      CHN$,AUTO
          1 000188  0981 0018                            BNE      s:15858,PREL
          1 00018A  D846 000A                            LDR,R5   10,B6
          1 00018C  D570 00FF                            AND,R5   255,IMO
          1 00018E  5D01                                 CMV,R5   1
          1 00018F  0981 0011                            BNE      s:15858,PREL

PL6.E3A0      #009=KXS$Q_SYSLOG File=KXS$SUBS.:E05TSI                            WED 07/30/97 02:32 Page:353
     1978    15854    2          %TERMINAL_ID_LEV_CHAN#
     1979    15855    2          THEN
     1980    15856    2             CALL KHA$GET_CTX_PTR ( P1$->KX$TSYSLOG_Q_ENTRY.FPT.V.TRMID, CHN$ )

  15856   1 000191  DBC7 000C                            LAB,B5   CHN$,AUTO
          1 000193  DFC7 001A                            STB,B5   RLSSIZ+4,AUTO
          1 000195  CBC6 000A                            LAB,B4   10,B6
          1 000197  CFC7 0018                            STB,B4   RLSSIZ+2,AUTO
          1 000199  BBC7 0018                            LAB,B3   RLSSIZ+2,AUTO
          1 00019B  CBF0 0200                            LAB,B4   512,IMO
          1 00019D  E380 0000 0000  xent                 LNJ,B6   KHA$GET_CTX_PTR
          1 0001A0       0013                            DC       s:15864,PREL

     1981    15857    2                ALTRET ( KVBRLS );
     1982    15858    2       IF CHN$ ~= ADDR(NIL)

  15858   1 0001A1  8DC7 000C                            CMN      CHN$,AUTO
          1 0001A3  0901 000F                            BE       s:15864,PREL

     1983    15859    2          THEN
     1984    15860    2             IF KH$CHN.CTX$ ~= ADDR(NIL)

  15860   1 0001A5  ECC7 000C                            LDB,B6   CHN$,AUTO
          1 0001A7  8DC6 000C                            CMN      12,B6
          1 0001A9  0901 0009                            BE       s:15864,PREL

     1985    15861    2                THEN
     1986    15862    2                   KH$CHN.CTX$ -> KX$L2.ERRLOGWRDCNT = KH$CHN.CTX$ -> KX$L2.
             15862                            ERRLOGWRDCNT - RLSSIZ;

  15862   1 0001AB  DCC6 000C                            LDB,B5   12,B6
          1 0001AD  E845 0052                            LDR,R6   82,B5
          1 0001AF  E247 0016                            SUB,R6   RLSSIZ,AUTO
          1 0001B1  EF45 0052                            STR,R6   82,B5

     1987    15863    2   KVBRLS:
     1988    15864    2       CALL KVB$RLSSYS ( RLSSIZ, P1$ );
PL6.E3A0      #009=KXS$Q_SYSLOG File=KXS$SUBS.:E05TSI                            WED 07/30/97 02:32 Page:354

  15864   1 0001B3  EBC7 0010            KVBRLS          LAB,B6   P1$,AUTO
          1 0001B5  EFC7 001A                            STB,B6   RLSSIZ+4,AUTO
          1 0001B7  DBC7 0016                            LAB,B5   RLSSIZ,AUTO
          1 0001B9  DFC7 0018                            STB,B5   RLSSIZ+2,AUTO
          1 0001BB  BBC7 0018                            LAB,B3   RLSSIZ+2,AUTO
          1 0001BD  CBF0 0200                            LAB,B4   512,IMO
          1 0001BF  E380 0000 0000  xent                 LNJ,B6   KVB$RLSSYS
          1 0001C2       0001                            DC       s:15865,PREL

     1989    15865    2       CHN$ = SAVCHN$;

  15865   1 0001C3  ECC7 0014                            LDB,B6   SAVCHN$,AUTO
          1 0001C5  EFC7 000C                            STB,B6   CHN$,AUTO

     1990    15866    2       RETURN;

  15866   1 0001C7  ECC7 000E                            LDB,B6   CHN$+2,AUTO
          1 0001C9  C3C6 0001                            LNJ,B4   1,B6
     1991    15867
     1992    15868    2   END Y$RLSOLD;
     1993    15869    1   END KXS$Q_SYSLOG;
     1994    15870
     1995    15871        %EOD;

PL6.E3A0      #009=KXS$Q_SYSLOG File=KXS$SUBS.:E05TSI                            WED 07/30/97 02:32 Page:355
--  Include file information  --

   KNH_MACRO_C.:E05TOU  is referenced.
   K_ADDRESS_M.:E05TOU  is referenced.
   KH$CHN.:E05TOU  is referenced.
   KV_GLBCNS_E.:E05TOU  is referenced.
   KX_MACROS_M.:E05TOU  is referenced.
   KX_DATA_C.:E05TOU  is referenced.
   KX_SCODE_C.:E05TOU  is referenced.
   KX_PERR_C.:E05TOU  is referenced.
   KX_EQUS_E.:E05TOU  is referenced.
   CP_6_SUBS.:E05TOU  is referenced.
   G_LCP6_E.:E05TOU  is referenced.
   GT_LCP6_M.:E05TOU  is referenced.
   KI_CP6.:E05TOU  is referenced.
   GF_LCP6_M.:E05TOU  is referenced.
   GM_LCP6_M.:E05TOU  is referenced.
   GU_LCP6_M.:E05TOU  is referenced.
   GJ_LCP6_M.:E05TOU  is referenced.
   GH_LCP6_M.:E05TOU  is referenced.
   LCP_6.:E05TOU  cannot be made into a system file and is referenced.
   KL_AFCN_C.:E05TOU  is referenced.
   KL_MACRO_C.:E05TOU  is referenced.
   KL_SUPER_C.:E05TOU  is referenced.
   K_ID_E.:E05TOU  is referenced.
      No diagnostics issued in procedure KXS$Q_SYSLOG.
PL6.E3A0      #009=KXS$Q_SYSLOG File=KXS$SUBS.:E05TSI                            WED 07/30/97 02:32 Page:356

 **** Variables and constants ****

  ****  Section 000 RoData KXS$Q_SYSLOG

  ****  Scalars and arrays  ****
HexLoc.c.b A Datatyp(siz) R M Lvl/name                 HexLoc.c.b A Datatyp(siz) R M Lvl/name

    1C-0-0/w STRC(32)    r     1 HRDERR                     0-0-0/w STRC(400)   r     1 KX_SYSLOG_Q_ENTRY

  ****  Auto variables  ****

  ****  Scalars and arrays  ****
HexLoc.c.b A Datatyp(siz) R M Lvl/name                 HexLoc.c.b A Datatyp(siz) R M Lvl/name

     4-0-0/w PTR         r     1 @FPT_WRSYSLOG              6-0-0/w UBIN(16)    r     1 BFRSIZ
     A-0-0/w PTR         r     1 CDAT$                      C-0-0/w PTR         r     1 CHN$
     A-0-0/w PTR         r     1 DAT$                       7-0-0/w UBIN(16)    r     1 DATSIZ
     8-0-0/w PTR         r     1 ENTRY$                    *0-0-0/w STRC(336)   r     1 FPT_WRSYSLOG
    10-0-0/w PTR         r     1 P1$                       12-0-0/w PTR         r     1 P2$
    16-0-0/w UBIN(16)    r     1 RLSSIZ                    14-0-0/w PTR         r     1 SAVCHN$

  ****  SYMREF variables  ****

  ****  Scalars and arrays  ****
HexLoc.c.b A Datatyp(siz) R M Lvl/name                 HexLoc.c.b A Datatyp(siz) R M Lvl/name

     0-0-0/w UBIN(16)    r     1 KX_LINERRLOGBFRLMT         0-0-0/b EPTR        r     1 KX_PM$(0:2)
     0-0-0/w STRC(64)    r     1 KX_SYSLOG

  ****  BASED and DCB variables  ****

  ****  Scalars and arrays  ****
HexLoc.c.b A Datatyp(siz) R M Lvl/name                 HexLoc.c.b A Datatyp(siz) R M Lvl/name

     0-0-0/w STRC(512)   r     1 KH$CHN                     0-0-0/w STRC(4992)  r     1 KX$L2
     0-0-0/w ASTR(384)   r     1 KX$SYSLOG_Q_ENTRY          0-0-0/w ASTR(384)   r     1 KX$TSYSLOG_Q_ENTRY
     0-0-0/c CHAR(100)   r     1 STR
PL6.E3A0      #009=KXS$Q_SYSLOG File=KXS$SUBS.:E05TSI                            WED 07/30/97 02:32 Page:357


   Procedure KXS$Q_SYSLOG requires 459 words for executable code.
   Procedure KXS$Q_SYSLOG requires 28 words of local(AUTO) storage.
PL6.E3A0      #009=KXS$Q_SYSLOG File=KXS$SUBS.:E05TSI                            WED 07/30/97 02:32 Page:358
          *** CROSS REFERENCE LISTING ***
**     DENOTES     IDENTIFIER DEFINITION
<<                 IDENTIFIER'S VALUE SET
>>                 IDENTIFIER'S VALUE USED
<>                 IDENTIFIER SET AND/OR USED
--                 IDENTIFIER REFERENCED
PL6.E3A0      #009=KXS$Q_SYSLOG File=KXS$SUBS.:E05TSI                            WED 07/30/97 02:32 Page:359
          MINI XREF LISTING

BFRSIZ
     14122**DCL     15758<<ASSIGN  15759>>IF      15768>>ASSIGN  15774<>CALL
CDAT$
     14125**DCL     14126--REDEF   15784<<ASSIGN
CHN$
     14127**DCL     14339--IMP-PTR 15765<>CALL    15767>>IF      15768>>ASSIGN  15768>>ASSIGN  15769>>DOWHILE
     15824>>ASSIGN  15828>>IF      15830>>DOWHILE 15838>>IF      15840>>ASSIGN  15853>>IF      15856<>CALL
     15858>>IF      15860>>IF      15862>>ASSIGN  15862>>ASSIGN  15865<<ASSIGN
DAT$
     14126**DCL     15785>>IF      15788>>ASSIGN
DATSIZ
     14123**DCL     15755<<ASSIGN  15757<<ASSIGN  15758>>ASSIGN  15783>>ASSIGN  15788>>ASSIGN  15788>>ASSIGN
ENTRY$
     14124**DCL     14150--IMP-PTR 15735<<ASSIGN  15736>>DOWHILE 15737>>IF      15737>>IF      15743>>ASSIGN
     15743>>ASSIGN  15747<<ASSIGN  15747>>ASSIGN  15774<>CALL    15778>>ASSIGN  15779>>ASSIGN  15779>>ASSIGN
     15783>>ASSIGN  15788>>ASSIGN  15788>>ASSIGN  15793>>ASSIGN  15793>>ASSIGN  15793>>ASSIGN  15797>>ASSIGN
     15804>>ASSIGN  15806>>ASSIGN  15807>>ASSIGN  15809>>ASSIGN
FPT_WRSYSLOG
     14039**DCL        18--PROC    15778>>ASSIGN
FPT_WRSYSLOG.BUF_
     14041**DCL     15753>>IF      15757>>ASSIGN  15784>>ASSIGN
FPT_WRSYSLOG.V.ERRCODE
     14060**DCL     15730>>IF      15737>>IF
FPT_WRSYSLOG.V.TERMID
     14106**DCL     15737>>IF      15765<>CALL
FPT_WRSYSLOG.V.TERMID.LEV
     14108**DCL     15762>>IF
FPT_WRSYSLOG.V.TERMID.TERM
     14108**DCL     14117--REDEF
FPT_WRSYSLOG.V.VALUES
     14119**DCL     15733<<ASSIGN  15734<<ASSIGN
GETBFR
PL6.E3A0      #009=KXS$Q_SYSLOG File=KXS$SUBS.:E05TSI                            WED 07/30/97 02:32 Page:360
     15774**LABEL   15770--CALLALT
HRDERR
     14994**DCL     15730>>IF
KH$CHN.CTX$
     14409**DCL     15767>>IF      15768>>ASSIGN  15768>>ASSIGN  15769>>DOWHILE 15840>>ASSIGN  15860>>IF
     15862>>ASSIGN  15862>>ASSIGN
KH$CHN.TERMID
     14433**DCL     15830>>DOWHILE
KH$CHN.TERMID.TERM
     14435**DCL     14444--REDEF
KHA$GET_CTX_PTR
     14016**DCL-ENT 15765--CALL    15856--CALL
KVB$GETSYS
     14011**DCL-ENT 15774--CALL
KVB$RLSSYS
     14017**DCL-ENT 15864--CALL
KVBRLS IN PROCEDURE Y$RLSOLD
     15864**LABEL   15856--CALLALT
KX$L2.DFLVCPRF.TRADEL
     14606**DCL     14616--REDEF
KX$L2.DSTSNPA.ADR_STRING
     14797**DCL     14797--REDEF
KX$L2.ERRLOGWRDCNT
     14583**DCL     15768<<ASSIGN  15768>>ASSIGN  15769>>DOWHILE 15840<<ASSIGN  15862<<ASSIGN  15862>>ASSIGN
KX$L2.FRMR_NSNR
     14583**DCL     14584--REDEF
KX$L2.NTWADR.ADR_STRING
     14517**DCL     14517--REDEF
KX$L2.STATES
     14495**DCL     14495--REDEF
KX$SYSLOG_Q_ENTRY.BUF.DAT
     14226**DCL     15788<<ASSIGN  15793--ASSIGN
KX$SYSLOG_Q_ENTRY.BUF.SIZ
     14226**DCL     14226--IMP-SIZ 15783<<ASSIGN  15788>>ASSIGN  15793>>ASSIGN
KX$SYSLOG_Q_ENTRY.FPT
     14150**DCL     15778<<ASSIGN
PL6.E3A0      #009=KXS$Q_SYSLOG File=KXS$SUBS.:E05TSI                            WED 07/30/97 02:32 Page:361
KX$SYSLOG_Q_ENTRY.FPT.BUF_
     14150**DCL     15793<<ASSIGN  15797<<ASSIGN
KX$SYSLOG_Q_ENTRY.FPT.V
     14150**DCL     15779--ASSIGN
KX$SYSLOG_Q_ENTRY.FPT.V.ERRCOD
     14167**DCL     15737>>IF
KX$SYSLOG_Q_ENTRY.FPT.V.TRMID
     14213**DCL     15737>>IF
KX$SYSLOG_Q_ENTRY.FPT.V.TRMID.TERM
     14215**DCL     14224--REDEF
KX$SYSLOG_Q_ENTRY.FPT.V.VALUES
     14226**DCL     15743<<ASSIGN  15743>>ASSIGN
KX$SYSLOG_Q_ENTRY.FPT.V_
     14150**DCL     15779<<ASSIGN
KX$SYSLOG_Q_ENTRY.NXT$
     14150**DCL     15747>>ASSIGN  15809<<ASSIGN
KX$TSYSLOG_Q_ENTRY
     14244**DCL     15852--ASSIGN
KX$TSYSLOG_Q_ENTRY.BUF.SIZ
     14320**DCL     14320--IMP-SIZ 15852>>ASSIGN
KX$TSYSLOG_Q_ENTRY.FPT.V.TRMID
     14307**DCL     15830>>DOWHILE 15856<>CALL
KX$TSYSLOG_Q_ENTRY.FPT.V.TRMID.LEV
     14309**DCL     15853>>IF
KX$TSYSLOG_Q_ENTRY.FPT.V.TRMID.TERM
     14309**DCL     14318--REDEF
KX$TSYSLOG_Q_ENTRY.NXT$
     14244**DCL     15806<<ASSIGN  15833>>ASSIGN  15845>>ASSIGN  15851<<ASSIGN  15851>>ASSIGN
KX_LINERRLOGBFRLMT
     15714**DCL     15759>>IF      15769>>DOWHILE
KX_STATS_HDLC.REQSTATS.DSPMSK
     15320**DCL     15326--REDEF
KX_STATS_HDLC.REQSTATS.SLCMSK
     15361**DCL     15368--REDEF
KX_STATS_X25.REQSTATS.DSPMSK
     15645**DCL     15651--REDEF
PL6.E3A0      #009=KXS$Q_SYSLOG File=KXS$SUBS.:E05TSI                            WED 07/30/97 02:32 Page:362
KX_STATS_X25.REQSTATS.SLCMSK
     15686**DCL     15693--REDEF
KX_SYSLOG.HD$
     15719**DCL     15735>>ASSIGN  15802>>IF      15804<<ASSIGN  15825>>ASSIGN  15843>>IF      15845<<ASSIGN
KX_SYSLOG.TL$
     15719**DCL     15806>>ASSIGN  15807<<ASSIGN  15846>>IF      15848<<ASSIGN
KX_SYSLOG_Q_ENTRY
     14837**DCL     15758--ASSIGN
KX_SYSLOG_Q_ENTRY.FPT.V.TRMID.TERM
     14902**DCL     14911--REDEF
P1$ IN PROCEDURE Y$RLSOLD
     15819**DCL     15825<<ASSIGN  15826>>IF      15830>>DOWHILE 15830>>DOWHILE 15832>>ASSIGN  15833<<ASSIGN
     15833>>ASSIGN  15835>>IF      15843>>IF      15845>>ASSIGN  15846>>IF      15851>>ASSIGN  15852>>ASSIGN
     15852>>ASSIGN  15853>>IF      15856>>CALL    15864<>CALL
P2$ IN PROCEDURE Y$RLSOLD
     15820**DCL     15827<<ASSIGN  15832<<ASSIGN  15848>>ASSIGN  15849>>IF      15851>>ASSIGN
RET
     15761**LABEL   15765--CALLALT 15774--CALLALT
RLSSIZ IN PROCEDURE Y$RLSOLD
     15822**DCL     15852<<ASSIGN  15862>>ASSIGN  15864<>CALL
SAVCHN$ IN PROCEDURE Y$RLSOLD
     15821**DCL     15824<<ASSIGN  15865>>ASSIGN
STR
     14323**DCL     15788>>ASSIGN
Y$RLSOLD
     15817**PROC    15770--CALL

