PL6.E3A0      #010=KXS$SYSLOG File=KXS$SUBS.:E05TSI                              WED 07/30/97 02:33 Page:363
     1996        1        /*T***********************************************************/
     1997        2        /*T*                                                         */
     1998        3        /*T* Copyright (c) Bull HN Information Systems Inc., 1997    */
     1999        4        /*T*                                                         */
     2000        5        /*T***********************************************************/
     2001        6        %EJECT;
PL6.E3A0      #010=KXS$SYSLOG File=KXS$SUBS.:E05TSI                              WED 07/30/97 02:33 Page:364
     2002        7        /*F* NAME: KXS$SYSLOG              */
     2003        8        /*F* PURPOSE: Do a wrsyslog.  */
     2004        9
     2005       10        /*D* NAME: KXS$SYSLOG              */
     2006       11        /*D* PURPOSE: Do a wrsyslog   */
     2007       12        /*D* CALL: CALL KXS$SYSLOG ( ERRCOD,TRMID,BFR,VAL0,VAL1,VAL2,VAL3);  */
     2008       13
     2009       14        KXS$SYSLOG: PROC (ERRCOD,TRMID,BFR,VAL0,VAL1,VAL2,VAL3);
     2010       15
     2011       16
     2012       17        /*****************************************************************
     2013       18        *                                                                *
     2014       19        *                           Includes                             *
     2015       20        *                                                                *
     2016       21        *****************************************************************/
     2017       22
     2018       23        %INCLUDE LCP_6;
     2019     4302        %INCLUDE KX_EQUS_E;
     2020     4741        %INCLUDE KX_PERR_C;
     2021     4870        %INCLUDE KV_GLBCNS_E;
     2022     5211          %KV#CQ_HNDID_E;
     2023     5216        %INCLUDE KX_MACROS_M;
     2024     5987        %INCLUDE K_ID_E;
     2025     6037          %K#ENTID_E;
     2026     6056          %K#LYRID_E;
     2027     6063        %INCLUDE KL_MACRO_C;
     2028     9415        %INCLUDE KL_AFCN_C;
     2029     9516        %INCLUDE KX_DATA_C;
     2030     9584
     2031     9585
     2032     9586        /*****************************************************************
     2033     9587        *                                                                *
     2034     9588        *                           External References                  *
     2035     9589        *                                                                *
     2036     9590        *****************************************************************/
     2037     9591
     2038     9592    1   DCL KXS$Q_SYSLOG ENTRY (1);
PL6.E3A0      #010=KXS$SYSLOG File=KXS$SUBS.:E05TSI                              WED 07/30/97 02:33 Page:365
     2039     9593    1   DCL KHA$ERRLOG ENTRY (2) ALTRET;
     2040     9594
     2041     9595
     2042     9596        /*****************************************************************
     2043     9597        *                                                                *
     2044     9598        *                           Auto/param                           *
     2045     9599        *                                                                *
     2046     9600        *****************************************************************/
     2047     9601
     2048     9602        %FPT_WRSYSLOG ( STCLASS = );
     2049     9697        %B$TERMINAL_ID ( FPTN = TRMID, ALGN = ALIGNED, STCLASS = );
     2050     9726        %VLP_ERRCODE ( FPTN = ERRCOD, STCLASS = );
     2051     9772    1   DCL BFR CHAR(200) ALIGNED;
     2052     9773    1   DCL VAL0 UBIN ALIGNED;
     2053     9774    1   DCL VAL1 UBIN ALIGNED;
     2054     9775    1   DCL VAL2 UBIN ALIGNED;
     2055     9776    1   DCL VAL3 UBIN ALIGNED;
     2056     9777    1   DCL T$ PTR;
     2057     9778
     2058     9779        /*****************************************************************
     2059     9780        *                                                                *
     2060     9781        *                           Constant                             *
     2061     9782        *                                                                *
     2062     9783        *****************************************************************/
     2063     9784        %VLP_ERRCODE (STCLASS=CONSTANT,FCG='KX',MID='H',SEV=%G_WRSYSLOG_SEV_GOOD_HARD#,
     2064     9785                           FPTN = HRDERR,
     2065     9786                           ERR# = %E_KXH_HRDERR# );
     2066     9832        /*****************************************************************
     2067     9833        *                                                                *
     2068     9834        *                           Static                               *
     2069     9835        *                                                                *
     2070     9836        *****************************************************************/
     2071     9837        %KX_DATA;
     2072    10527
     2073    10528        /*****************************************************************
     2074    10529        *                                                                *
     2075    10530        *                           Based                                *
PL6.E3A0      #010=KXS$SYSLOG File=KXS$SUBS.:E05TSI                              WED 07/30/97 02:33 Page:366
     2076    10531        *                                                                *
     2077    10532        *****************************************************************/
     2078    10533        %KX$SYSLOG_Q_ENTRY ( STCLASS="BASED(T$)" );
     2079    10627        %KX$DATA;
     2080    10647
     2081    10648        %EJECT;
PL6.E3A0      #010=KXS$SYSLOG File=KXS$SUBS.:E05TSI                              WED 07/30/97 02:33 Page:367
     2082    10649        /*****************************************************************
     2083    10650        *                                                                *
     2084    10651        *                           Procedure                            *
     2085    10652        *                                                                *
     2086    10653        *****************************************************************/
     2087    10654
     2088    10655    1       FPT_WRSYSLOG = '0'B;
     2089    10656    1       FPT_WRSYSLOG.V_ = VECTOR ( FPT_WRSYSLOG.V );
     2090    10657    1       FPT_WRSYSLOG.V.ERRCODE = ERRCOD;
     2091    10658    1       FPT_WRSYSLOG.V.TERMID = TRMID;
     2092    10659    1       IF ADDR(BFR) ~= ADDR(NIL)
     2093    10660    1          THEN
     2094    10661    1             FPT_WRSYSLOG.BUF_ = VECTOR (BFR);
     2095    10662    1       IF ADDR(VAL0) ~= ADDR(NIL)
     2096    10663    1          THEN
     2097    10664    1             FPT_WRSYSLOG.V.VALUES(0) = VAL0;
     2098    10665    1       IF ADDR(VAL1) ~= ADDR(NIL)
     2099    10666    1          THEN
     2100    10667    1             FPT_WRSYSLOG.V.VALUES(1) = VAL1;
     2101    10668    1       IF ADDR(VAL2) ~= ADDR(NIL)
     2102    10669    1          THEN
     2103    10670    1             FPT_WRSYSLOG.V.VALUES(2) = VAL2;
     2104    10671    1       IF ADDR(VAL3) ~= ADDR(NIL)
     2105    10672    1          THEN
     2106    10673    1             FPT_WRSYSLOG.V.VALUES(3) = VAL3;
     2107    10674
     2108    10675    1       IF (ERRCOD = HRDERR)
     2109    10676    1          THEN
     2110    10677    2             DO;
     2111    10678    2   Q_SYSLOG:    CALL KXS$Q_SYSLOG ( FPT_WRSYSLOG );
     2112    10679    2                RETURN;
     2113    10680    2             END;
     2114    10681    1       T$ = KX_SYSLOG.HD$;
     2115    10682    2       DO WHILE ( T$ ~= ADDR(NIL) );
     2116    10683    2          IF KX$SYSLOG_Q_ENTRY.FPT.V.ERRCOD ~= HRDERR
     2117    10684    2             THEN
     2118    10685    2                GOTO Q_SYSLOG;
PL6.E3A0      #010=KXS$SYSLOG File=KXS$SUBS.:E05TSI                              WED 07/30/97 02:33 Page:368
     2119    10686    2          T$ = KX$SYSLOG_Q_ENTRY.NXT$;
     2120    10687    2       END;
     2121    10688    1       CALL KHA$ERRLOG ( FPT_WRSYSLOG, 1 ) ALTRET ( Q_SYSLOG );
     2122    10689    1       RETURN;
     2123    10690    1   END KXS$SYSLOG;

PL6.E3A0      #010=KXS$SYSLOG File=KXS$SUBS.:E05TSI                              WED 07/30/97 02:33 Page:369
--  Include file information  --

   KX_DATA_C.:E05TOU  is referenced.
   KL_AFCN_C.:E05TOU  is referenced.
   KL_MACRO_C.:E05TOU  is referenced.
   K_ID_E.:E05TOU  is referenced.
   KX_MACROS_M.:E05TOU  is referenced.
   KV_GLBCNS_E.:E05TOU  is referenced.
   KX_PERR_C.:E05TOU  is referenced.
   KX_EQUS_E.:E05TOU  is referenced.
   G_LCP6_E.:E05TOU  is referenced.
   GT_LCP6_M.:E05TOU  is referenced.
   KI_CP6.:E05TOU  is referenced.
   GF_LCP6_M.:E05TOU  is referenced.
   GM_LCP6_M.:E05TOU  is referenced.
   GU_LCP6_M.:E05TOU  is referenced.
   GJ_LCP6_M.:E05TOU  is referenced.
   GH_LCP6_M.:E05TOU  is referenced.
   LCP_6.:E05TOU  cannot be made into a system file and is referenced.
      No diagnostics issued in procedure KXS$SYSLOG.

   Procedure KXS$SYSLOG requires 160 words for executable code.
   Procedure KXS$SYSLOG requires 46 words of local(AUTO) storage.

    No errors detected in file KXS$SUBS.:E05TSI    .

PL6.E3A0      #010=KXS$SYSLOG File=KXS$SUBS.:E05TSI                              WED 07/30/97 02:33 Page:370

 Object Unit name= KXS$SYSLOG                                 File name= KXS$SUBS.:E05TOU
 UTS= JUL 30 '97 02:33:33.48 WED                              Compiler= PL-6/E31         Sev=      00
 SharedLib= :SHARED_LCP6_SYSTEM                               Alt SharedLib=


    ****  Control sections  ****

 Sect   Type Bound  Init  Size HexSiz  Section name
    0  RoData even  UTS      2      2  KXS$SYSLOG
    1   Proc  even  none   160     A0  KXS$SYSLOG

    ****  Entry defs  ****

                              Check   Calling
                             calling  sequence
  Sect HexLoc Primary Altret sequence   type   Parms  Name
     1      0   yes            yes      Std        7  KXS$SYSLOG

  ****  Entry refs  ****

         Check        Calling
        calling       sequence
Altret sequence SRef   type   Args  Name
         yes           Std       1 KXS$Q_SYSLOG
 yes     yes           Std       2 KHA$ERRLOG
                       nStd      0 X6A_AUTO_N
                       nStd      0 X6A_ARET

  ****  Data refs  ****

  Flags:  r = read only, s = secondary
Flgs Name                             Flgs Name                             Flgs Name
     KX_SYSLOG                             KX_PM$                           r    G$ROS$
PL6.E3A0      #010=KXS$SYSLOG File=KXS$SUBS.:E05TSI                              WED 07/30/97 02:33 Page:371


     1996        1        /*T***********************************************************/
     1997        2        /*T*                                                         */
     1998        3        /*T* Copyright (c) Bull HN Information Systems Inc., 1997    */
     1999        4        /*T*                                                         */
     2000        5        /*T***********************************************************/
     2001        6        %EJECT;
PL6.E3A0      #010=KXS$SYSLOG File=KXS$SUBS.:E05TSI                              WED 07/30/97 02:33 Page:372
     2002        7        /*F* NAME: KXS$SYSLOG              */
     2003        8        /*F* PURPOSE: Do a wrsyslog.  */
     2004        9
     2005       10        /*D* NAME: KXS$SYSLOG              */
     2006       11        /*D* PURPOSE: Do a wrsyslog   */
     2007       12        /*D* CALL: CALL KXS$SYSLOG ( ERRCOD,TRMID,BFR,VAL0,VAL1,VAL2,VAL3);  */
     2008       13
     2009       14        KXS$SYSLOG: PROC (ERRCOD,TRMID,BFR,VAL0,VAL1,VAL2,VAL3);

     14   1 000000  D380 0000 0000  xent KXS$SYSLOG      LNJ,B5   X6A_AUTO_N
          1 000003       002E 0007                       DC       46,7

     2010       15
     2011       16
     2012       17        /*****************************************************************
     2013       18        *                                                                *
     2014       19        *                           Includes                             *
     2015       20        *                                                                *
     2016       21        *****************************************************************/
     2017       22
     2018       23        %INCLUDE LCP_6;
     2019     4302        %INCLUDE KX_EQUS_E;
     2020     4741        %INCLUDE KX_PERR_C;
     2021     4870        %INCLUDE KV_GLBCNS_E;
     2022     5211          %KV#CQ_HNDID_E;
     2023     5216        %INCLUDE KX_MACROS_M;
     2024     5987        %INCLUDE K_ID_E;
     2025     6037          %K#ENTID_E;
     2026     6056          %K#LYRID_E;
     2027     6063        %INCLUDE KL_MACRO_C;
     2028     9415        %INCLUDE KL_AFCN_C;
     2029     9516        %INCLUDE KX_DATA_C;
     2030     9584
     2031     9585
     2032     9586        /*****************************************************************
     2033     9587        *                                                                *
     2034     9588        *                           External References                  *
PL6.E3A0      #010=KXS$SYSLOG File=KXS$SUBS.:E05TSI                              WED 07/30/97 02:33 Page:373
     2035     9589        *                                                                *
     2036     9590        *****************************************************************/
     2037     9591
     2038     9592    1   DCL KXS$Q_SYSLOG ENTRY (1);
     2039     9593    1   DCL KHA$ERRLOG ENTRY (2) ALTRET;
     2040     9594
     2041     9595
     2042     9596        /*****************************************************************
     2043     9597        *                                                                *
     2044     9598        *                           Auto/param                           *
     2045     9599        *                                                                *
     2046     9600        *****************************************************************/
     2047     9601
     2048     9602        %FPT_WRSYSLOG ( STCLASS = );
     2049     9697        %B$TERMINAL_ID ( FPTN = TRMID, ALGN = ALIGNED, STCLASS = );
     2050     9726        %VLP_ERRCODE ( FPTN = ERRCOD, STCLASS = );
     2051     9772    1   DCL BFR CHAR(200) ALIGNED;
     2052     9773    1   DCL VAL0 UBIN ALIGNED;
     2053     9774    1   DCL VAL1 UBIN ALIGNED;
     2054     9775    1   DCL VAL2 UBIN ALIGNED;
     2055     9776    1   DCL VAL3 UBIN ALIGNED;
     2056     9777    1   DCL T$ PTR;
     2057     9778
     2058     9779        /*****************************************************************
     2059     9780        *                                                                *
     2060     9781        *                           Constant                             *
     2061     9782        *                                                                *
     2062     9783        *****************************************************************/
     2063     9784        %VLP_ERRCODE (STCLASS=CONSTANT,FCG='KX',MID='H',SEV=%G_WRSYSLOG_SEV_GOOD_HARD#,
     2064     9785                           FPTN = HRDERR,
     2065     9786                           ERR# = %E_KXH_HRDERR# );
     2066     9832        /*****************************************************************
     2067     9833        *                                                                *
     2068     9834        *                           Static                               *
     2069     9835        *                                                                *
     2070     9836        *****************************************************************/
     2071     9837        %KX_DATA;
PL6.E3A0      #010=KXS$SYSLOG File=KXS$SUBS.:E05TSI                              WED 07/30/97 02:33 Page:374
     2072    10527
     2073    10528        /*****************************************************************
     2074    10529        *                                                                *
     2075    10530        *                           Based                                *
     2076    10531        *                                                                *
     2077    10532        *****************************************************************/
     2078    10533        %KX$SYSLOG_Q_ENTRY ( STCLASS="BASED(T$)" );
     2079    10627        %KX$DATA;
     2080    10647
     2081    10648        %EJECT;
PL6.E3A0      #010=KXS$SYSLOG File=KXS$SUBS.:E05TSI                              WED 07/30/97 02:33 Page:375
     2082    10649        /*****************************************************************
     2083    10650        *                                                                *
     2084    10651        *                           Procedure                            *
     2085    10652        *                                                                *
     2086    10653        *****************************************************************/
     2087    10654
     2088    10655    1       FPT_WRSYSLOG = '0'B;

  10655   1 000005  5C2A                                 LDV,R5   42
          1 000006  0021                                 ALR      ;
          1 000007       4178 0000                                ALPHANUM('0000'X,IMO,,1),;
          1 000009       4007 0012                                ALPHANUM(FPT_WRSYSLOG,AUTO,,R5,FILL)

     2089    10656    1       FPT_WRSYSLOG.V_ = VECTOR ( FPT_WRSYSLOG.V );

  10656   1 00000B  EBC7 0018                            LAB,B6   FPT_WRSYSLOG+6,AUTO
          1 00000D  437F                                 CSYNC    s:10656+1,SPREL
          1 00000E  EFC7 002B                            STB,B6   T$+4,AUTO
          1 000010  6C1D                                 LDV,R6   29
          1 000011  EF47 002A                            STR,R6   T$+3,AUTO
          1 000013  ABC7 002A                            LAB,B2   T$+3,AUTO
          1 000015  2C00                                 LDV,R2   0
          1 000016  6C06                                 LDV,R6   6
          1 000017  BB87                                 LAB,B3   ,AUTO
          1 000018  3C24                                 LDV,R3   36
          1 000019  0008                                 MMM

     2090    10657    1       FPT_WRSYSLOG.V.ERRCODE = ERRCOD;

  10657   1 00001A  ECC7 0004                            LDB,B6   @ERRCOD,AUTO
          1 00001C  8C86                                 LDI      ,B6
          1 00001D  8D47 0018                            SDI      FPT_WRSYSLOG+6,AUTO

     2091    10658    1       FPT_WRSYSLOG.V.TERMID = TRMID;

  10658   1 00001F  ACC7 0006                            LDB,B2   @TRMID,AUTO
          1 000021  2C00                                 LDV,R2   0
PL6.E3A0      #010=KXS$SYSLOG File=KXS$SUBS.:E05TSI                              WED 07/30/97 02:33 Page:376
          1 000022  6C10                                 LDV,R6   16
          1 000023  BB87                                 LAB,B3   ,AUTO
          1 000024  3C34                                 LDV,R3   52
          1 000025  0008                                 MMM

     2092    10659    1       IF ADDR(BFR) ~= ADDR(NIL)

  10659   1 000026  DCC7 0008                            LDB,B5   @BFR,AUTO
          1 000028  8DD5                                 CMN      B5
          1 000029  0901 000E                            BE       s:10662,PREL

     2093    10660    1          THEN
     2094    10661    1             FPT_WRSYSLOG.BUF_ = VECTOR (BFR);

  10661   1 00002B  DFC7 002B                            STB,B5   T$+4,AUTO
          1 00002D  E870 00C7                            LDR,R6   199,IMO
          1 00002F  EF47 002A                            STR,R6   T$+3,AUTO
          1 000031  ABC7 002A                            LAB,B2   T$+3,AUTO
          1 000033  2C00                                 LDV,R2   0
          1 000034  6C06                                 LDV,R6   6
          1 000035  BB87                                 LAB,B3   ,AUTO
          1 000036  3C2A                                 LDV,R3   42
          1 000037  0008                                 MMM

     2095    10662    1       IF ADDR(VAL0) ~= ADDR(NIL)

  10662   1 000038  CCC7 000A                            LDB,B4   @VAL0,AUTO
          1 00003A  8DD4                                 CMN      B4
          1 00003B  0901 0004                            BE       s:10665,PREL

     2096    10663    1          THEN
     2097    10664    1             FPT_WRSYSLOG.V.VALUES(0) = VAL0;

  10664   1 00003D  E804                                 LDR,R6   ,B4
          1 00003E  EF47 0022                            STR,R6   FPT_WRSYSLOG+16,AUTO

     2098    10665    1       IF ADDR(VAL1) ~= ADDR(NIL)
PL6.E3A0      #010=KXS$SYSLOG File=KXS$SUBS.:E05TSI                              WED 07/30/97 02:33 Page:377

  10665   1 000040  ACC7 000C                            LDB,B2   @VAL1,AUTO
          1 000042  8DD2                                 CMN      B2
          1 000043  0901 0004                            BE       s:10668,PREL

     2099    10666    1          THEN
     2100    10667    1             FPT_WRSYSLOG.V.VALUES(1) = VAL1;

  10667   1 000045  E802                                 LDR,R6   ,B2
          1 000046  EF47 0023                            STR,R6   FPT_WRSYSLOG+17,AUTO

     2101    10668    1       IF ADDR(VAL2) ~= ADDR(NIL)

  10668   1 000048  9CC7 000E                            LDB,B1   @VAL2,AUTO
          1 00004A  8DD1                                 CMN      B1
          1 00004B  0901 0004                            BE       s:10671,PREL

     2102    10669    1          THEN
     2103    10670    1             FPT_WRSYSLOG.V.VALUES(2) = VAL2;

  10670   1 00004D  E801                                 LDR,R6   ,B1
          1 00004E  EF47 0024                            STR,R6   FPT_WRSYSLOG+18,AUTO

     2104    10671    1       IF ADDR(VAL3) ~= ADDR(NIL)

  10671   1 000050  ECC7 0010                            LDB,B6   @VAL3,AUTO
          1 000052  8DD6                                 CMN      B6
          1 000053  0901 0004                            BE       s:10675,PREL

     2105    10672    1          THEN
     2106    10673    1             FPT_WRSYSLOG.V.VALUES(3) = VAL3;

  10673   1 000055  E806                                 LDR,R6   ,B6
          1 000056  EF47 0025                            STR,R6   FPT_WRSYSLOG+19,AUTO

     2107    10674
     2108    10675    1       IF (ERRCOD = HRDERR)
PL6.E3A0      #010=KXS$SYSLOG File=KXS$SUBS.:E05TSI                              WED 07/30/97 02:33 Page:378

  10675   1 000058  ECC7 0004                            LDB,B6   @ERRCOD,AUTO
          1 00005A  DB80 0000 0000  00                   LAB,B5   HRDERR
          1 00005D  5C04                                 LDV,R5   4
          1 00005E  0022                                 ACM      ;
          1 00005F       4406 0000                                ALPHANUM(0,B6,,4,FILL),;
          1 000061       4005 0000                                ALPHANUM(0,B5,,R5,FILL)
          1 000063  5301 0010                            CBNE     s:10681,PREL

     2109    10676    1          THEN
     2110    10677    2             DO;

     2111    10678    2   Q_SYSLOG:    CALL KXS$Q_SYSLOG ( FPT_WRSYSLOG );

  10678   1 000065  EBC7 0012            Q_SYSLOG        LAB,B6   FPT_WRSYSLOG,AUTO
          1 000067  EFC7 002A                            STB,B6   T$+3,AUTO
          1 000069  BBC7 002A                            LAB,B3   T$+3,AUTO
          1 00006B  CBF0 0100                            LAB,B4   256,IMO
          1 00006D  E380 0000 0000  xent                 LNJ,B6   KXS$Q_SYSLOG
          1 000070       0001                            DC       s:10679,PREL

     2112    10679    2                RETURN;

  10679   1 000071  C380 0000 0000  xent                 LNJ,B4   X6A_ARET

     2113    10680    2             END;
     2114    10681    1       T$ = KX_SYSLOG.HD$;

  10681   1 000074  DC80 0000 0000  xsym                 LDB,B5   KX_SYSLOG
          1 000077  DFC7 0027                            STB,B5   T$,AUTO

     2115    10682    2       DO WHILE ( T$ ~= ADDR(NIL) );

  10682   1 000079  0F81 0010                            B        s:10687,PREL

     2116    10683    2          IF KX$SYSLOG_Q_ENTRY.FPT.V.ERRCOD ~= HRDERR

PL6.E3A0      #010=KXS$SYSLOG File=KXS$SUBS.:E05TSI                              WED 07/30/97 02:33 Page:379
  10683   1 00007B  ECC7 0027                            LDB,B6   T$,AUTO
          1 00007D  DB80 0000 0000  00                   LAB,B5   HRDERR
          1 000080  5C04                                 LDV,R5   4
          1 000081  0022                                 ACM      ;
          1 000082       4406 0008                                ALPHANUM(8,B6,,4,FILL),;
          1 000084       4005 0000                                ALPHANUM(0,B5,,R5,FILL)
          1 000086  535F                                 CBNE     s:10677,SPREL

     2117    10684    2             THEN
     2118    10685    2                GOTO Q_SYSLOG;
     2119    10686    2          T$ = KX$SYSLOG_Q_ENTRY.NXT$;

  10686   1 000087  DC86                                 LDB,B5   ,B6
          1 000088  DFC7 0027                            STB,B5   T$,AUTO

     2120    10687    2       END;

  10687   1 00008A  8DC7 0027                            CMN      T$,AUTO
          1 00008C  09EF                                 BNE      s:10683,SPREL

     2121    10688    1       CALL KHA$ERRLOG ( FPT_WRSYSLOG, 1 ) ALTRET ( Q_SYSLOG );

  10688   1 00008D  EBF0 0001                            LAB,B6   1,IMO
          1 00008F  EFC7 002C                            STB,B6   T$+5,AUTO
          1 000091  CBC7 0012                            LAB,B4   FPT_WRSYSLOG,AUTO
          1 000093  CFC7 002A                            STB,B4   T$+3,AUTO
          1 000095  BBC7 002A                            LAB,B3   T$+3,AUTO
          1 000097  CBF0 0200                            LAB,B4   512,IMO
          1 000099  E380 0000 0000  xent                 LNJ,B6   KHA$ERRLOG
          1 00009C       FFC9                            DC       s:10677,PREL

     2122    10689    1       RETURN;

  10689   1 00009D  C380 0000 0000  xent                 LNJ,B4   X6A_ARET
     2123    10690    1   END KXS$SYSLOG;

PL6.E3A0      #010=KXS$SYSLOG File=KXS$SUBS.:E05TSI                              WED 07/30/97 02:33 Page:380
--  Include file information  --

   KX_DATA_C.:E05TOU  is referenced.
   KL_AFCN_C.:E05TOU  is referenced.
   KL_MACRO_C.:E05TOU  is referenced.
   K_ID_E.:E05TOU  is referenced.
   KX_MACROS_M.:E05TOU  is referenced.
   KV_GLBCNS_E.:E05TOU  is referenced.
   KX_PERR_C.:E05TOU  is referenced.
   KX_EQUS_E.:E05TOU  is referenced.
   G_LCP6_E.:E05TOU  is referenced.
   GT_LCP6_M.:E05TOU  is referenced.
   KI_CP6.:E05TOU  is referenced.
   GF_LCP6_M.:E05TOU  is referenced.
   GM_LCP6_M.:E05TOU  is referenced.
   GU_LCP6_M.:E05TOU  is referenced.
   GJ_LCP6_M.:E05TOU  is referenced.
   GH_LCP6_M.:E05TOU  is referenced.
   LCP_6.:E05TOU  cannot be made into a system file and is referenced.
      No diagnostics issued in procedure KXS$SYSLOG.
PL6.E3A0      #010=KXS$SYSLOG File=KXS$SUBS.:E05TSI                              WED 07/30/97 02:33 Page:381

 **** Variables and constants ****

  ****  Section 000 RoData KXS$SYSLOG

  ****  Scalars and arrays  ****
HexLoc.c.b A Datatyp(siz) R M Lvl/name                 HexLoc.c.b A Datatyp(siz) R M Lvl/name

     0-0-0/w STRC(32)    r     1 HRDERR

  ****  Auto variables  ****

  ****  Scalars and arrays  ****
HexLoc.c.b A Datatyp(siz) R M Lvl/name                 HexLoc.c.b A Datatyp(siz) R M Lvl/name

     8-0-0/w PTR         r     1 @BFR                       4-0-0/w PTR         r     1 @ERRCOD
     6-0-0/w PTR         r     1 @TRMID                     A-0-0/w PTR         r     1 @VAL0
     C-0-0/w PTR         r     1 @VAL1                      E-0-0/w PTR         r     1 @VAL2
    10-0-0/w PTR         r     1 @VAL3                     *0-0-0/w CHAR(200)   r     1 BFR
    *0-0-0/w STRC(32)    r     1 ERRCOD                    12-0-0/w STRC(336)   r     1 FPT_WRSYSLOG
    27-0-0/w PTR         r     1 T$                        *0-0-0/w STRC(128)   r     1 TRMID
    *0-0-0/w UBIN(16)    r     1 VAL0                      *0-0-0/w UBIN(16)    r     1 VAL1
    *0-0-0/w UBIN(16)    r     1 VAL2                      *0-0-0/w UBIN(16)    r     1 VAL3

  ****  SYMREF variables  ****

  ****  Scalars and arrays  ****
HexLoc.c.b A Datatyp(siz) R M Lvl/name                 HexLoc.c.b A Datatyp(siz) R M Lvl/name

     0-0-0/b EPTR        r     1 KX_PM$(0:2)                0-0-0/w STRC(64)    r     1 KX_SYSLOG

  ****  BASED and DCB variables  ****

  ****  Scalars and arrays  ****
HexLoc.c.b A Datatyp(siz) R M Lvl/name                 HexLoc.c.b A Datatyp(siz) R M Lvl/name

     0-0-0/w ASTR(384)   r     1 KX$SYSLOG_Q_ENTRY

PL6.E3A0      #010=KXS$SYSLOG File=KXS$SUBS.:E05TSI                              WED 07/30/97 02:33 Page:382

   Procedure KXS$SYSLOG requires 160 words for executable code.
   Procedure KXS$SYSLOG requires 46 words of local(AUTO) storage.

    No errors detected in file KXS$SUBS.:E05TSI    .
PL6.E3A0      #010=KXS$SYSLOG File=KXS$SUBS.:E05TSI                              WED 07/30/97 02:33 Page:383
          *** CROSS REFERENCE LISTING ***
**     DENOTES     IDENTIFIER DEFINITION
<<                 IDENTIFIER'S VALUE SET
>>                 IDENTIFIER'S VALUE USED
<>                 IDENTIFIER SET AND/OR USED
--                 IDENTIFIER REFERENCED
PL6.E3A0      #010=KXS$SYSLOG File=KXS$SUBS.:E05TSI                              WED 07/30/97 02:33 Page:384
          MINI XREF LISTING

BFR
      9772**DCL        14--PROC    10659--IF      10661--ASSIGN
ERRCOD
      9740**DCL        14--PROC    10657>>ASSIGN  10675>>IF
FPT_WRSYSLOG
      9615**DCL     10655<<ASSIGN  10678<>CALL    10688<>CALL
FPT_WRSYSLOG.BUF_
      9617**DCL     10661<<ASSIGN
FPT_WRSYSLOG.V
      9619**DCL     10656--ASSIGN
FPT_WRSYSLOG.V.ERRCODE
      9636**DCL     10657<<ASSIGN
FPT_WRSYSLOG.V.TERMID
      9682**DCL     10658<<ASSIGN
FPT_WRSYSLOG.V.TERMID.TERM
      9684**DCL      9693--REDEF
FPT_WRSYSLOG.V.VALUES
      9695**DCL     10664<<ASSIGN  10667<<ASSIGN  10670<<ASSIGN  10673<<ASSIGN
FPT_WRSYSLOG.V_
      9617**DCL     10656<<ASSIGN
HRDERR
      9800**DCL     10675>>IF      10683>>IF
KHA$ERRLOG
      9593**DCL-ENT 10688--CALL
KX$DATA.RLS_STAT
     10642**DCL     10643--REDEF
KX$SYSLOG_Q_ENTRY.BUF.SIZ
     10624**DCL     10624--IMP-SIZ
KX$SYSLOG_Q_ENTRY.FPT.V.ERRCOD
     10565**DCL     10683>>IF
KX$SYSLOG_Q_ENTRY.FPT.V.TRMID.TERM
     10613**DCL     10622--REDEF
PL6.E3A0      #010=KXS$SYSLOG File=KXS$SUBS.:E05TSI                              WED 07/30/97 02:33 Page:385
KX$SYSLOG_Q_ENTRY.NXT$
     10548**DCL     10686>>ASSIGN
KXS$Q_SYSLOG
      9592**DCL-ENT 10678--CALL
KX_STATS_HDLC.REQSTATS.DSPMSK
     10124**DCL     10130--REDEF
KX_STATS_HDLC.REQSTATS.SLCMSK
     10165**DCL     10172--REDEF
KX_STATS_X25.REQSTATS.DSPMSK
     10449**DCL     10455--REDEF
KX_STATS_X25.REQSTATS.SLCMSK
     10490**DCL     10497--REDEF
KX_SYSLOG.HD$
     10523**DCL     10681>>ASSIGN
Q_SYSLOG
     10678**LABEL   10685--GOTO    10688--CALLALT
T$
      9777**DCL     10548--IMP-PTR 10681<<ASSIGN  10682>>DOWHILE 10683>>IF      10686<<ASSIGN  10686>>ASSIGN
TRMID
      9711**DCL        14--PROC    10658>>ASSIGN
TRMID.TERM
      9715**DCL      9724--REDEF
VAL0
      9773**DCL        14--PROC    10662--IF      10664>>ASSIGN
VAL1
      9774**DCL        14--PROC    10665--IF      10667>>ASSIGN
VAL2
      9775**DCL        14--PROC    10668--IF      10670>>ASSIGN
VAL3
      9776**DCL        14--PROC    10671--IF      10673>>ASSIGN
