VERSION E05

PL6.E3A0      #001=KXS$EXPAUT File=KXS$SUBS.:E05TSI                              WED 07/30/97 02:25 Page:1
        1        1        /*M* KXS$SUBS - X.25 handler subroutines  */
        2        2        /*T***********************************************************/
        3        3        /*T*                                                         */
        4        4        /*T* Copyright (c) Bull HN Information Systems Inc., 1997    */
        5        5        /*T*                                                         */
        6        6        /*T***********************************************************/
        7        7        /*X*   PLM = 4, IND=3, CTI=3, DCI=6, IAD=0, DTI=6, AND=Y, CSI=3, THI=3, STI=3, DMC=Y
                 7         */
        8        8        /*P* NAME: KXS$SUBS
        9        9             PURPOSE: This module contains miscellaneous routines
       10       10                      for the X.25 handler.
       11       11                        KXS$EXPAUT
       12       12                        KXS$GETBFR
       13       13                        KXS$GETCNTX
       14       14                        KXS$GETL3
       15       15                        KXS$RLSBFR
       16       16                        KXS$RLSCNTX
       17       17                        KXS$RLSL3
       18       18                        KXS$TMR
       19       19                        KXS$Q_SYSLOG
       20       20        */
       21       21
       22       22        %EJECT;
PL6.E3A0      #001=KXS$EXPAUT File=KXS$SUBS.:E05TSI                              WED 07/30/97 02:25 Page:2
       23       23        /*F* NAME: KXS$EXPAUT
       24       24             PURPOSE: Pumps up the auto segment so an interrupt doesn't have to do it.
       25       25        */
       26       26        KXS$EXPAUT: PROC;
       27       27    1   DCL XXX(0:%(9*256)) UBIN WORD;   /* We already have one page, so get 9 more */
       28       28    1       RETURN;
       29       29    1   END KXS$EXPAUT;
       30       30        %EOD;

PL6.E3A0      #001=KXS$EXPAUT File=KXS$SUBS.:E05TSI                              WED 07/30/97 02:25 Page:3
      No diagnostics issued in procedure KXS$EXPAUT.

   Procedure KXS$EXPAUT requires 8 words for executable code.
   Procedure KXS$EXPAUT requires 2310 words of local(AUTO) storage.

PL6.E3A0      #001=KXS$EXPAUT File=KXS$SUBS.:E05TSI                              WED 07/30/97 02:25 Page:4

 Object Unit name= KXS$EXPAUT                                 File name= KXS$SUBS.:E05TOU
 UTS= JUL 30 '97 02:25:47.12 WED                              Compiler= PL-6/E31         Sev=      00
 SharedLib= :SHARED_LCP6_SYSTEM                               Alt SharedLib=


    ****  Control sections  ****

 Sect   Type Bound  Init  Size HexSiz  Section name
    0   Proc  even  none     8      8  KXS$EXPAUT

    ****  Entry defs  ****

                              Check   Calling
                             calling  sequence
  Sect HexLoc Primary Altret sequence   type   Parms  Name
     0      0   yes            yes      Std        0  KXS$EXPAUT

  ****  Entry refs  ****

         Check        Calling
        calling       sequence
Altret sequence SRef   type   Args  Name
                       nStd      0 X6A_AUTO_0
                       nStd      0 X6A_ARET

  ****  Data refs  ****

  Flags:  r = read only, s = secondary
Flgs Name                             Flgs Name                             Flgs Name
r    G$ROS$
PL6.E3A0      #001=KXS$EXPAUT File=KXS$SUBS.:E05TSI                              WED 07/30/97 02:25 Page:5


        1        1        /*M* KXS$SUBS - X.25 handler subroutines  */
        2        2        /*T***********************************************************/
        3        3        /*T*                                                         */
        4        4        /*T* Copyright (c) Bull HN Information Systems Inc., 1997    */
        5        5        /*T*                                                         */
        6        6        /*T***********************************************************/
        7        7        /*X*  PLM = 4, IND=3, CTI=3, DCI=6, IAD=0, DTI=6, AND=Y, CSI=3, THI=3, STI=3, DMC=Y
                 7         */
        8        8        /*P* NAME: KXS$SUBS
        9        9             PURPOSE: This module contains miscellaneous routines
       10       10                      for the X.25 handler.
       11       11                        KXS$EXPAUT
       12       12                        KXS$GETBFR
       13       13                        KXS$GETCNTX
       14       14                        KXS$GETL3
       15       15                        KXS$RLSBFR
       16       16                        KXS$RLSCNTX
       17       17                        KXS$RLSL3
       18       18                        KXS$TMR
       19       19                        KXS$Q_SYSLOG
       20       20        */
       21       21
       22       22        %EJECT;
PL6.E3A0      #001=KXS$EXPAUT File=KXS$SUBS.:E05TSI                              WED 07/30/97 02:25 Page:6
       23       23        /*F* NAME: KXS$EXPAUT
       24       24             PURPOSE: Pumps up the auto segment so an interrupt doesn't have to do it.
       25       25        */
       26       26        KXS$EXPAUT: PROC;

     26   0 000000  D380 0000 0000  xent KXS$EXPAUT      LNJ,B5   X6A_AUTO_0
          0 000003       0906 0000                       DC       2310,0

       27       27    1   DCL XXX(0:%(9*256)) UBIN WORD;   /* We already have one page, so get 9 more */
       28       28    1       RETURN;

     28   0 000005  C380 0000 0000  xent                 LNJ,B4   X6A_ARET
       29       29    1   END KXS$EXPAUT;
       30       30        %EOD;

PL6.E3A0      #001=KXS$EXPAUT File=KXS$SUBS.:E05TSI                              WED 07/30/97 02:25 Page:7
      No diagnostics issued in procedure KXS$EXPAUT.
PL6.E3A0      #001=KXS$EXPAUT File=KXS$SUBS.:E05TSI                              WED 07/30/97 02:25 Page:8

 **** Variables and constants ****


   Procedure KXS$EXPAUT requires 8 words for executable code.
   Procedure KXS$EXPAUT requires 2310 words of local(AUTO) storage.
PL6.E3A0      #001=KXS$EXPAUT File=KXS$SUBS.:E05TSI                              WED 07/30/97 02:25 Page:9
          *** CROSS REFERENCE LISTING ***
**     DENOTES     IDENTIFIER DEFINITION
<<                 IDENTIFIER'S VALUE SET
>>                 IDENTIFIER'S VALUE USED
<>                 IDENTIFIER SET AND/OR USED
--                 IDENTIFIER REFERENCED
PL6.E3A0      #001=KXS$EXPAUT File=KXS$SUBS.:E05TSI                              WED 07/30/97 02:25 Page:10
          MINI XREF LISTING


PL6.E3A0      #002=KXS$GETBFR File=KXS$SUBS.:E05TSI                              WED 07/30/97 02:25 Page:11
       31        1        /*T***********************************************************/
       32        2        /*T*                                                         */
       33        3        /*T* Copyright (c) Bull HN Information Systems Inc., 1997    */
       34        4        /*T*                                                         */
       35        5        /*T***********************************************************/
       36        6        /*F* NAME: KXS$GETBFR                */
       37        7        /*F* PURPOSE: Allocate an I/O buffer */
       38        8
       39        9        /*D* NAME: KXS$GETBFR                */
       40       10        /*D* PURPOSE: Allocate an I/O buffer of the
       41       11                      appropriate size from the pool
       42       12                      of I/O buffers.        */
       43       13        /*D* CALL: CALL KXS$GETBFR ( SIZ, PTR$ )  */
       44       14        /*D* INPUT: SIZ - The size in bytes of just the
       45       15                          data portion of the X.25 packet
       46       16                          to be sent.        */
       47       17        /*D* OUTPUT: PTR$ - The returned pointer to the buffer  */
       48       18
       49       19        KXS$GETBFR: PROC ( SIZ, PTR_PRM$,DNT_SCREECH ) ALTRET;
       50       20
       51       21        /*****************************************************************
       52       22        *                                                                *
       53       23        *                           Include files                        *
       54       24        *                                                                *
       55       25        *****************************************************************/
       56       26
       57       27        %INCLUDE K_ID_E;
       58       77        %K#ENTID_E;
       59       96        %K#LYRID_E;
       60      103        %INCLUDE LCP_6;
       61     4382        %INCLUDE KL_MACRO_C;
       62     7734        %INCLUDE KL_AFCN_C;
       63     7835        %INCLUDE KX_EQUS_E;
       64     8274        %INCLUDE KX_PERR_C;
       65     8403        %INCLUDE KX_SCODE_C;
       66     8469        %INCLUDE KX_DATA_C;
       67     8537        %INCLUDE KX_MACROS_M;
PL6.E3A0      #002=KXS$GETBFR File=KXS$SUBS.:E05TSI                              WED 07/30/97 02:25 Page:12
       68     9308        %INCLUDE KV_GLBCNS_E;
       69     9649        %KV#CQ_HNDID_E;
       70     9654        %EJECT;
PL6.E3A0      #002=KXS$GETBFR File=KXS$SUBS.:E05TSI                              WED 07/30/97 02:25 Page:13
       71     9655        /*****************************************************************
       72     9656        *                                                                *
       73     9657        *                           External References                  *
       74     9658        *                                                                *
       75     9659        *****************************************************************/
       76     9660
       77     9661    1   DCL KVB$GET ENTRY (2) ALTRET;
       78     9662    1   DCL KVB$RLS ENTRY (2) ALTRET;
       79     9663    1   DCL KXX$X29 ENTRY (1);
       80     9664    1   DCL KHD$SCREECH ENTRY (1);
       81     9665    1   DCL KHA$ERRLOG ENTRY (2) ALTRET;
       82     9666        %EJECT;
PL6.E3A0      #002=KXS$GETBFR File=KXS$SUBS.:E05TSI                              WED 07/30/97 02:25 Page:14
       83     9667        /*****************************************************************
       84     9668        *                                                                *
       85     9669        *                           Auto                                 *
       86     9670        *                                                                *
       87     9671        *****************************************************************/
       88     9672
       89     9673    1   DCL SIZ UBIN;
       90     9674    1   DCL PTR$ PTR;
       91     9675    1   DCL DNT_SCREECH ALIGNED BIT(1);
       92     9676    1   DCL PTR_PRM$ PTR;
       93     9677    1   DCL T$ PTR;
       94     9678    1   DCL KVBSIZ UBIN;
       95     9679    1   DCL BFRX UBIN;
       96     9680    1   DCL RLSBFRX UBIN;
       97     9681        %EJECT;
PL6.E3A0      #002=KXS$GETBFR File=KXS$SUBS.:E05TSI                              WED 07/30/97 02:25 Page:15
       98     9682        /*****************************************************************
       99     9683        *                                                                *
      100     9684        *                           Based                                *
      101     9685        *                                                                *
      102     9686        *****************************************************************/
      103     9687
      104     9688        %KX$DATA ( STCLASS = "BASED ( PTR$ )" );
      105     9708        %KX$FRAME ( STCLASS = "BASED ( PTR$ )" );
      106     9740        %KX$PACKET ( STCLASS = "BASED ( PTR$ )" );
      107     9806        %EJECT;
PL6.E3A0      #002=KXS$GETBFR File=KXS$SUBS.:E05TSI                              WED 07/30/97 02:25 Page:16
      108     9807        /*****************************************************************
      109     9808        *                                                                *
      110     9809        *                           Static                               *
      111     9810        *                                                                *
      112     9811        *****************************************************************/
      113     9812
      114     9813        %KX_DATA;
      115    10503        %EJECT;
PL6.E3A0      #002=KXS$GETBFR File=KXS$SUBS.:E05TSI                              WED 07/30/97 02:25 Page:17
      116    10504        /*****************************************************************
      117    10505        *                                                                *
      118    10506        *                           Constant                             *
      119    10507        *                                                                *
      120    10508        *****************************************************************/
      121    10509
      122    10510        %VLP_SCODE (FPTN=Y_NO_RLS,STCLASS=CONSTANT,FCG=KX,MID=S,ERR#=%S$KX_NO_RLS#);
      123    10571        %VLP_SCODE (FPTN=Y_TOOBIGBFR,STCLASS=CONSTANT,FCG=KX,MID=S,ERR#=%S$KX_TOOBIGBFR#);
      124    10632        %VLP_SCODE (FPTN=Y_NO_GET,STCLASS=CONSTANT,FCG=KX,MID=S,ERR#=%S$KX_NO_GET#);
      125    10693        /*****************************************************************
      126    10694        *                                                                *
      127    10695        *                           Procedure                            *
      128    10696        *                                                                *
      129    10697        *****************************************************************/
      130    10698
      131    10699        /*
      132    10700                                             First find the index for the
      133    10701                                             smallest buffer that satisfies
      134    10702                                             this request.
      135    10703        */
      136    10704    1       BFRX = 0;
      137    10705    2       DO WHILE (( SIZ > KX_BUF.SIZ ( BFRX )) AND ( BFRX <= %KX_S_BUF_MAX# ));
      138    10706    2          BFRX = BFRX + 1;
      139    10707    2       END;
      140    10708    1       IF BFRX > %KX_S_BUF_MAX#
      141    10709    1          THEN
      142    10710    2             DO;
      143    10711        /*S* SCREECH_CODE: KXS-S$KX_TOOBIGBFR#
      144    10712             MESSAGE: The buffer is larger than is allowed.
      145    10713        */
      146    10714    2                IF ADDR(DNT_SCREECH) ~= ADDR(NIL) THEN
      147    10715    2                      IF DNT_SCREECH = '1'B THEN
      148    10716    2                            ALTRETURN;
      149    10717    2                         ELSE
      150    10718    2                            CALL KHD$SCREECH ( Y_TOOBIGBFR );
      151    10719    2                   ELSE
      152    10720    2                      CALL KHD$SCREECH (Y_TOOBIGBFR);
PL6.E3A0      #002=KXS$GETBFR File=KXS$SUBS.:E05TSI                              WED 07/30/97 02:25 Page:18
      153    10721    2             END;
      154    10722    1       KX_STATS_X25.KXSGET = KX_STATS_X25.KXSGET + 1;
      155    10723        /*
      156    10724                                             If a buffer of this size is
      157    10725                                             available, then everything is
      158    10726                                             easy.  If not, then hopefully
      159    10727                                             KVB can supply one.  If that
      160    10728                                             also is not true, then try
      161    10729                                             releasing buffers until KVB can
      162    10730                                             allocate one.
      163    10731        */
      164    10732    1       IF KX_BUF.HEAD$ ( BFRX ) ~= ADDR(NIL)
      165    10733    1          THEN
      166    10734    2             DO;
      167    10735    2                PTR$ = KX_BUF.HEAD$ ( BFRX );
      168    10736    2                KX_BUF.CNT ( BFRX ) = KX_BUF.CNT ( BFRX ) - 1;
      169    10737    2                KX_BUF.HEAD$ ( BFRX ) = KX$DATA.NEXT$;
      170    10738    2             END;
      171    10739    1          ELSE
      172    10740    2             DO;
      173    10741    2                KX_STATS_X25.KVBGET = KX_STATS_X25.KVBGET + 1;
      174    10742    2                KVBSIZ = ( KX_BUF.SIZ(BFRX) + LENGTHC(KX$PACKET) + 1 ) / 2;
      175    10743    2                CALL KVB$GET ( KVBSIZ, PTR$ )
      176    10744    2                   WHENALTRETURN
      177    10745    3                      DO;
      178    10746        /*
      179    10747                                             Try giving back a larger buffer.
      180    10748        */
      181    10749    3                         RLSBFRX = BFRX + 1;
      182    10750    4                         DO WHILE (( RLSBFRX <= %KX_S_BUF_MAX# ) AND
      183    10751    4                            ( KX_BUF.HEAD$ ( RLSBFRX ) = ADDR(NIL)));
      184    10752    4                            RLSBFRX = RLSBFRX + 1;
      185    10753    4                         END;
      186    10754    3                         IF RLSBFRX <= %KX_S_BUF_MAX#
      187    10755    3                            THEN
      188    10756    4                               DO;
      189    10757    4                                  PTR$ = KX_BUF.HEAD$ ( RLSBFRX );
PL6.E3A0      #002=KXS$GETBFR File=KXS$SUBS.:E05TSI                              WED 07/30/97 02:25 Page:19
      190    10758    4                                  KX_BUF.HEAD$ ( RLSBFRX ) = KX$DATA.NEXT$;
      191    10759    4                                  KX_BUF.CNT ( RLSBFRX ) = KX_BUF.CNT ( RLSBFRX ) - 1;
      192    10760    4                                  IF KX_BUF.HEAD$ ( RLSBFRX ) = ADDR(NIL)
      193    10761    4                                     THEN
      194    10762    4                                        KX_BUF.TAIL$ ( RLSBFRX ) = ADDR(NIL);
      195    10763    4                                  KVBSIZ = ( KX_BUF.SIZ ( RLSBFRX ) + LENGTHC(KX$PACKET
             10763                                           ) + 1 ) / 2;
      196    10764    4                                  CALL KVB$RLS ( KVBSIZ, PTR$ )
      197    10765    4                                     WHENALTRETURN
      198    10766    5                                        DO;
      199    10767    5                                           IF ADDR(DNT_SCREECH) ~= ADDR(NIL) THEN
      200    10768    5                                                 IF DNT_SCREECH = '1'B THEN
      201    10769    5                                                       ALTRETURN;
      202    10770    5                                                    ELSE
      203    10771    5                                                       CALL KHD$SCREECH ( Y_NO_RLS );
      204    10772    5                                              ELSE
      205    10773    5                                                 CALL KHD$SCREECH (Y_NO_RLS);
      206    10774    5                                        END;
      207    10775    4                                  KVBSIZ = ( KX_BUF.SIZ(BFRX) + LENGTHC(KX$PACKET) + 1
             10775                                           ) / 2;
      208    10776    4                                  CALL KVB$GET ( KVBSIZ, PTR$ )
      209    10777    4                                     WHENALTRETURN
      210    10778    5                                        DO;
      211    10779        /*S* SCREECH_CODE: KXS-S$KX_NO_GET#
      212    10780             MESSAGE: KVB$GET(SYS) altreturned.
      213    10781        */
      214    10782    5                                           IF ADDR(DNT_SCREECH) ~= ADDR(NIL) THEN
      215    10783    5                                                 IF DNT_SCREECH = '1'B THEN
      216    10784    5                                                       ALTRETURN;
      217    10785    5                                                    ELSE
      218    10786    5                                                       CALL KHD$SCREECH ( Y_NO_GET );
      219    10787    5                                              ELSE
      220    10788    5                                                 CALL KHD$SCREECH (Y_NO_GET);
      221    10789    5                                        END;
      222    10790    4                               END;
      223    10791    3                            ELSE
      224    10792    4                               DO;
PL6.E3A0      #002=KXS$GETBFR File=KXS$SUBS.:E05TSI                              WED 07/30/97 02:25 Page:20
      225    10793        /*
      226    10794                                             There weren't any larger buffers
      227    10795                                             to return, so return every one
      228    10796                                             of the smaller buffers and hope
      229    10797                                             for the best.
      230    10798        */
      231    10799    4                                  RLSBFRX = 0;
      232    10800    5                                  DO WHILE ( RLSBFRX <= %KX_S_BUF_MAX# );
      233    10801    5                                     PTR$ = KX_BUF.HEAD$ ( RLSBFRX );
      234    10802    6                                     DO WHILE ( PTR$ ~= ADDR(NIL) );
      235    10803    6                                        T$ = KX$DATA.NEXT$;
      236    10804    6                                        KVBSIZ = ( KX_BUF.SIZ ( RLSBFRX ) + LENGTHC(
             10804                                                 KX$PACKET) + 1 ) / 2;
      237    10805    6                                        CALL KVB$RLS ( KVBSIZ, PTR$ )
      238    10806    6                                           WHENALTRETURN
      239    10807    7                                              DO;
      240    10808    7                                                 IF ADDR(DNT_SCREECH) ~= ADDR(NIL) THEN
      241    10809    7                                                       IF DNT_SCREECH = '1'B THEN
      242    10810    7                                                             ALTRETURN;
      243    10811    7                                                          ELSE
      244    10812    7                                                             CALL KHD$SCREECH (
             10812                                                                      Y_NO_RLS );
      245    10813    7                                                    ELSE
      246    10814    7                                                       CALL KHD$SCREECH (Y_NO_RLS);
      247    10815    7                                              END;
      248    10816    6                                        PTR$ = T$;
      249    10817    6                                     END;
      250    10818    5                                     KX_BUF.CNT ( RLSBFRX ) = 0;
      251    10819    5                                     KX_BUF.HEAD$ ( RLSBFRX ) = ADDR(NIL);
      252    10820    5                                     RLSBFRX = RLSBFRX + 1;
      253    10821    5                                  END;
      254    10822    4                                  KVBSIZ = ( KX_BUF.SIZ(BFRX) + LENGTHC(KX$PACKET) + 1
             10822                                           ) / 2;
      255    10823    4                                  CALL KVB$GET ( KVBSIZ, PTR$ )
      256    10824    4                                     WHENALTRETURN
      257    10825    5                                        DO;
      258    10826        /*
PL6.E3A0      #002=KXS$GETBFR File=KXS$SUBS.:E05TSI                              WED 07/30/97 02:25 Page:21
      259    10827                                             There really isn't any memory.
      260    10828        */
      261    10829    5                                           IF ADDR(DNT_SCREECH) ~= ADDR(NIL) THEN
      262    10830    5                                                 IF DNT_SCREECH = '1'B THEN
      263    10831    5                                                       ALTRETURN;
      264    10832    5                                                    ELSE
      265    10833    5                                                       CALL KHD$SCREECH ( Y_NO_GET );
      266    10834    5                                              ELSE
      267    10835    5                                                 CALL KHD$SCREECH (Y_NO_GET);
      268    10836    5                                        END;
      269    10837    4                               END;
      270    10838    3                      END;
      271    10839    2             END;
      272    10840        /*
      273    10841                                             Initialize the buffer.
      274    10842        */
      275    10843    1       KX$PACKET = '0'B;
      276    10844    1       KX$DATA.BFRSIZ = BFRX;
      277    10845    1       PTR_PRM$ = PTR$;
      278    10846
      279    10847    1       RETURN;
      280    10848
      281    10849    1   END KXS$GETBFR;
      282    10850        %EOD;

PL6.E3A0      #002=KXS$GETBFR File=KXS$SUBS.:E05TSI                              WED 07/30/97 02:25 Page:22
--  Include file information  --

   KV_GLBCNS_E.:E05TOU  is referenced.
   KX_MACROS_M.:E05TOU  is referenced.
   KX_DATA_C.:E05TOU  is referenced.
   KX_SCODE_C.:E05TOU  is referenced.
   KX_PERR_C.:E05TOU  is referenced.
   KX_EQUS_E.:E05TOU  is referenced.
   KL_AFCN_C.:E05TOU  is referenced.
   KL_MACRO_C.:E05TOU  is referenced.
   G_LCP6_E.:E05TOU  is referenced.
   GT_LCP6_M.:E05TOU  is referenced.
   KI_CP6.:E05TOU  is referenced.
   GF_LCP6_M.:E05TOU  is referenced.
   GM_LCP6_M.:E05TOU  is referenced.
   GU_LCP6_M.:E05TOU  is referenced.
   GJ_LCP6_M.:E05TOU  is referenced.
   GH_LCP6_M.:E05TOU  is referenced.
   LCP_6.:E05TOU  cannot be made into a system file and is referenced.
   K_ID_E.:E05TOU  is referenced.
      No diagnostics issued in procedure KXS$GETBFR.

   Procedure KXS$GETBFR requires 464 words for executable code.
   Procedure KXS$GETBFR requires 22 words of local(AUTO) storage.

PL6.E3A0      #002=KXS$GETBFR File=KXS$SUBS.:E05TSI                              WED 07/30/97 02:25 Page:23

 Object Unit name= KXS$GETBFR                                 File name= KXS$SUBS.:E05TOU
 UTS= JUL 30 '97 02:25:49.60 WED                              Compiler= PL-6/E31         Sev=      00
 SharedLib= :SHARED_LCP6_SYSTEM                               Alt SharedLib=


    ****  Control sections  ****

 Sect   Type Bound  Init  Size HexSiz  Section name
    0  RoData even  UTS      9      9  KXS$GETBFR
    1   Proc  even  none   464    1D0  KXS$GETBFR
    2  RoData even  none     6      6  KXS$GETBFR

    ****  Entry defs  ****

                              Check   Calling
                             calling  sequence
  Sect HexLoc Primary Altret sequence   type   Parms  Name
     1      0   yes    yes     yes      Std        3  KXS$GETBFR

  ****  Entry refs  ****

         Check        Calling
        calling       sequence
Altret sequence SRef   type   Args  Name
         yes           Std       1 KHD$SCREECH
 yes     yes           Std       2 KVB$GET
 yes     yes           Std       2 KVB$RLS
                       nStd      0 X6A_AUTO_3
                       nStd      0 X6A_AALT
                       nStd      0 X6A_ARET
PL6.E3A0      #002=KXS$GETBFR File=KXS$SUBS.:E05TSI                              WED 07/30/97 02:25 Page:24

  ****  Data refs  ****

  Flags:  r = read only, s = secondary
Flgs Name                             Flgs Name                             Flgs Name
     KX_BUF                                KX_STATS_X25                          KX_PM$
r    G$ROS$
PL6.E3A0      #002=KXS$GETBFR File=KXS$SUBS.:E05TSI                              WED 07/30/97 02:25 Page:25


       31        1        /*T***********************************************************/
       32        2        /*T*                                                         */
       33        3        /*T* Copyright (c) Bull HN Information Systems Inc., 1997    */
       34        4        /*T*                                                         */
       35        5        /*T***********************************************************/
       36        6        /*F* NAME: KXS$GETBFR                */
       37        7        /*F* PURPOSE: Allocate an I/O buffer */
       38        8
       39        9        /*D* NAME: KXS$GETBFR                */
       40       10        /*D* PURPOSE: Allocate an I/O buffer of the
       41       11                      appropriate size from the pool
       42       12                      of I/O buffers.        */
       43       13        /*D* CALL: CALL KXS$GETBFR ( SIZ, PTR$ )  */
       44       14        /*D* INPUT: SIZ - The size in bytes of just the
       45       15                          data portion of the X.25 packet
       46       16                          to be sent.        */
       47       17        /*D* OUTPUT: PTR$ - The returned pointer to the buffer  */
       48       18
       49       19        KXS$GETBFR: PROC ( SIZ, PTR_PRM$,DNT_SCREECH ) ALTRET;

     19   1 000000  D380 0000 0000  xent KXS$GETBFR      LNJ,B5   X6A_AUTO_3
          1 000003       0016 0003                       DC       22,3

       50       20
       51       21        /*****************************************************************
       52       22        *                                                                *
       53       23        *                           Include files                        *
       54       24        *                                                                *
       55       25        *****************************************************************/
       56       26
       57       27        %INCLUDE K_ID_E;
       58       77        %K#ENTID_E;
       59       96        %K#LYRID_E;
       60      103        %INCLUDE LCP_6;
       61     4382        %INCLUDE KL_MACRO_C;
       62     7734        %INCLUDE KL_AFCN_C;
PL6.E3A0      #002=KXS$GETBFR File=KXS$SUBS.:E05TSI                              WED 07/30/97 02:25 Page:26
       63     7835        %INCLUDE KX_EQUS_E;
       64     8274        %INCLUDE KX_PERR_C;
       65     8403        %INCLUDE KX_SCODE_C;
       66     8469        %INCLUDE KX_DATA_C;
       67     8537        %INCLUDE KX_MACROS_M;
       68     9308        %INCLUDE KV_GLBCNS_E;
       69     9649        %KV#CQ_HNDID_E;
       70     9654        %EJECT;
PL6.E3A0      #002=KXS$GETBFR File=KXS$SUBS.:E05TSI                              WED 07/30/97 02:25 Page:27
       71     9655        /*****************************************************************
       72     9656        *                                                                *
       73     9657        *                           External References                  *
       74     9658        *                                                                *
       75     9659        *****************************************************************/
       76     9660
       77     9661    1   DCL KVB$GET ENTRY (2) ALTRET;
       78     9662    1   DCL KVB$RLS ENTRY (2) ALTRET;
       79     9663    1   DCL KXX$X29 ENTRY (1);
       80     9664    1   DCL KHD$SCREECH ENTRY (1);
       81     9665    1   DCL KHA$ERRLOG ENTRY (2) ALTRET;
       82     9666        %EJECT;
PL6.E3A0      #002=KXS$GETBFR File=KXS$SUBS.:E05TSI                              WED 07/30/97 02:25 Page:28
       83     9667        /*****************************************************************
       84     9668        *                                                                *
       85     9669        *                           Auto                                 *
       86     9670        *                                                                *
       87     9671        *****************************************************************/
       88     9672
       89     9673    1   DCL SIZ UBIN;
       90     9674    1   DCL PTR$ PTR;
       91     9675    1   DCL DNT_SCREECH ALIGNED BIT(1);
       92     9676    1   DCL PTR_PRM$ PTR;
       93     9677    1   DCL T$ PTR;
       94     9678    1   DCL KVBSIZ UBIN;
       95     9679    1   DCL BFRX UBIN;
       96     9680    1   DCL RLSBFRX UBIN;
       97     9681        %EJECT;
PL6.E3A0      #002=KXS$GETBFR File=KXS$SUBS.:E05TSI                              WED 07/30/97 02:25 Page:29
       98     9682        /*****************************************************************
       99     9683        *                                                                *
      100     9684        *                           Based                                *
      101     9685        *                                                                *
      102     9686        *****************************************************************/
      103     9687
      104     9688        %KX$DATA ( STCLASS = "BASED ( PTR$ )" );
      105     9708        %KX$FRAME ( STCLASS = "BASED ( PTR$ )" );
      106     9740        %KX$PACKET ( STCLASS = "BASED ( PTR$ )" );
      107     9806        %EJECT;
PL6.E3A0      #002=KXS$GETBFR File=KXS$SUBS.:E05TSI                              WED 07/30/97 02:25 Page:30
      108     9807        /*****************************************************************
      109     9808        *                                                                *
      110     9809        *                           Static                               *
      111     9810        *                                                                *
      112     9811        *****************************************************************/
      113     9812
      114     9813        %KX_DATA;
      115    10503        %EJECT;
PL6.E3A0      #002=KXS$GETBFR File=KXS$SUBS.:E05TSI                              WED 07/30/97 02:25 Page:31
      116    10504        /*****************************************************************
      117    10505        *                                                                *
      118    10506        *                           Constant                             *
      119    10507        *                                                                *
      120    10508        *****************************************************************/
      121    10509
      122    10510        %VLP_SCODE (FPTN=Y_NO_RLS,STCLASS=CONSTANT,FCG=KX,MID=S,ERR#=%S$KX_NO_RLS#);
      123    10571        %VLP_SCODE (FPTN=Y_TOOBIGBFR,STCLASS=CONSTANT,FCG=KX,MID=S,ERR#=%S$KX_TOOBIGBFR#);
      124    10632        %VLP_SCODE (FPTN=Y_NO_GET,STCLASS=CONSTANT,FCG=KX,MID=S,ERR#=%S$KX_NO_GET#);
      125    10693        /*****************************************************************
      126    10694        *                                                                *
      127    10695        *                           Procedure                            *
      128    10696        *                                                                *
      129    10697        *****************************************************************/
      130    10698
      131    10699        /*
      132    10700                                             First find the index for the
      133    10701                                             smallest buffer that satisfies
      134    10702                                             this request.
      135    10703        */
      136    10704    1       BFRX = 0;

  10704   1 000005  8747 000F                            CL       BFRX,AUTO

      137    10705    2       DO WHILE (( SIZ > KX_BUF.SIZ ( BFRX )) AND ( BFRX <= %KX_S_BUF_MAX# ));

  10705   1 000007  0F81 0003                            B        s:10707,PREL

      138    10706    2          BFRX = BFRX + 1;

  10706   1 000009  8AC7 000F                            INC      BFRX,AUTO

      139    10707    2       END;

  10707   1 00000B  ECC7 0004                            LDB,B6   @SIZ,AUTO
          1 00000D  B847 000F                            LDR,R3   BFRX,AUTO
          1 00000F  E806                                 LDR,R6   ,B6
PL6.E3A0      #002=KXS$GETBFR File=KXS$SUBS.:E05TSI                              WED 07/30/97 02:25 Page:32
          1 000010  E930 0000 001E  xsym                 CMR,R6   KX_BUF+30,R3
          1 000013  0381 0003                            BLE      s:10708,PREL
          1 000015  3D05                                 CMV,R3   5
          1 000016  03F3                                 BLE      s:10706,SPREL

      140    10708    1       IF BFRX > %KX_S_BUF_MAX#

  10708   1 000017  3D05                                 CMV,R3   5
          1 000018  0381 0020                            BLE      s:10722,PREL

      141    10709    1          THEN
      142    10710    2             DO;

      143    10711        /*S* SCREECH_CODE: KXS-S$KX_TOOBIGBFR#
      144    10712             MESSAGE: The buffer is larger than is allowed.
      145    10713        */
      146    10714    2                IF ADDR(DNT_SCREECH) ~= ADDR(NIL) THEN

  10714   1 00001A  DCC7 0008                            LDB,B5   @DNT_SCREECH,AUTO
          1 00001C  8DD5                                 CMN      B5
          1 00001D  0901 0012                            BE       s:10720,PREL

      147    10715    2                      IF DNT_SCREECH = '1'B THEN

  10715   1 00001F  8985                                 CMZ      ,B5
          1 000020  0881 0004                            BAGE     s:10718,PREL

      148    10716    2                            ALTRETURN;

  10716   1 000022  C380 0000 0000  xent                 LNJ,B4   X6A_AALT

      149    10717    2                         ELSE
      150    10718    2                            CALL KHD$SCREECH ( Y_TOOBIGBFR );

  10718   1 000025  BB80 0000 0000  02                   LAB,B3   0
          1 000028  CBF0 0100                            LAB,B4   256,IMO
          1 00002A  E380 0000 0000  xent                 LNJ,B6   KHD$SCREECH
PL6.E3A0      #002=KXS$GETBFR File=KXS$SUBS.:E05TSI                              WED 07/30/97 02:25 Page:33
          1 00002D       0001                            DC       s:10718+9,PREL
          1 00002E  0F81 000A                            B        s:10722,PREL

      151    10719    2                   ELSE
      152    10720    2                      CALL KHD$SCREECH (Y_TOOBIGBFR);

  10720   1 000030  BB80 0000 0000  02                   LAB,B3   0
          1 000033  CBF0 0100                            LAB,B4   256,IMO
          1 000035  E380 0000 0000  xent                 LNJ,B6   KHD$SCREECH
          1 000038       0001                            DC       s:10722,PREL

      153    10721    2             END;

      154    10722    1       KX_STATS_X25.KXSGET = KX_STATS_X25.KXSGET + 1;

  10722   1 000039  8A80 0000 0045  xsym                 INC      KX_STATS_X25+69
          1 00003C  8E80 0000 0044  xsym                 CAD      KX_STATS_X25+68

      155    10723        /*
      156    10724                                             If a buffer of this size is
      157    10725                                             available, then everything is
      158    10726                                             easy.  If not, then hopefully
      159    10727                                             KVB can supply one.  If that
      160    10728                                             also is not true, then try
      161    10729                                             releasing buffers until KVB can
      162    10730                                             allocate one.
      163    10731        */
      164    10732    1       IF KX_BUF.HEAD$ ( BFRX ) ~= ADDR(NIL)

  10732   1 00003F  B847 000F                            LDR,R3   BFRX,AUTO
          1 000041  8DB0 0000 0000  xsym                 CMN      KX_BUF,R3
          1 000044  0901 000F                            BE       s:10741,PREL

      165    10733    1          THEN
      166    10734    2             DO;

      167    10735    2                PTR$ = KX_BUF.HEAD$ ( BFRX );
PL6.E3A0      #002=KXS$GETBFR File=KXS$SUBS.:E05TSI                              WED 07/30/97 02:25 Page:34

  10735   1 000046  ECB0 0000 0000  xsym                 LDB,B6   KX_BUF,R3
          1 000049  EFC7 000A                            STB,B6   PTR$,AUTO

      168    10736    2                KX_BUF.CNT ( BFRX ) = KX_BUF.CNT ( BFRX ) - 1;

  10736   1 00004B  88B0 0000 0018  xsym                 DEC      KX_BUF+24,R3

      169    10737    2                KX_BUF.HEAD$ ( BFRX ) = KX$DATA.NEXT$;

  10737   1 00004E  DC86                                 LDB,B5   ,B6
          1 00004F  DFB0 0000 0000  xsym                 STB,B5   KX_BUF,R3

      170    10738    2             END;

  10738   1 000052  0F81 0165                            B        s:10843,PREL

      171    10739    1          ELSE
      172    10740    2             DO;

      173    10741    2                KX_STATS_X25.KVBGET = KX_STATS_X25.KVBGET + 1;

  10741   1 000054  8A80 0000 0047  xsym                 INC      KX_STATS_X25+71
          1 000057  8E80 0000 0046  xsym                 CAD      KX_STATS_X25+70

      174    10742    2                KVBSIZ = ( KX_BUF.SIZ(BFRX) + LENGTHC(KX$PACKET) + 1 ) / 2;

  10742   1 00005A  E830 0000 001E  xsym                 LDR,R6   KX_BUF+30,R3
          1 00005D  6E16                                 ADV,R6   22
          1 00005E  6041                                 SOR,R6   1
          1 00005F  EF47 000E                            STR,R6   KVBSIZ,AUTO

      175    10743    2                CALL KVB$GET ( KVBSIZ, PTR$ )

  10743   1 000061  EBC7 000A                            LAB,B6   PTR$,AUTO
          1 000063  EFC7 0014                            STB,B6   RLSBFRX+4,AUTO
          1 000065  DBC7 000E                            LAB,B5   KVBSIZ,AUTO
PL6.E3A0      #002=KXS$GETBFR File=KXS$SUBS.:E05TSI                              WED 07/30/97 02:25 Page:35
          1 000067  DFC7 0012                            STB,B5   RLSBFRX+2,AUTO
          1 000069  BBC7 0012                            LAB,B3   RLSBFRX+2,AUTO
          1 00006B  CBF0 0200                            LAB,B4   512,IMO
          1 00006D  E380 0000 0000  xent                 LNJ,B6   KVB$GET
          1 000070       0003                            DC       s:10749,PREL
          1 000071  0F81 0146                            B        s:10843,PREL

      176    10744    2                   WHENALTRETURN
      177    10745    3                      DO;

      178    10746        /*
      179    10747                                             Try giving back a larger buffer.
      180    10748        */
      181    10749    3                         RLSBFRX = BFRX + 1;

  10749   1 000073  E847 000F                            LDR,R6   BFRX,AUTO
          1 000075  6E01                                 ADV,R6   1
          1 000076  EF47 0010                            STR,R6   RLSBFRX,AUTO

      182    10750    4                         DO WHILE (( RLSBFRX <= %KX_S_BUF_MAX# ) AND

  10750   1 000078  0F81 0003                            B        s:10753,PREL

      183    10751    4                            ( KX_BUF.HEAD$ ( RLSBFRX ) = ADDR(NIL)));
      184    10752    4                            RLSBFRX = RLSBFRX + 1;

  10752   1 00007A  8AC7 0010                            INC      RLSBFRX,AUTO

      185    10753    4                         END;

  10753   1 00007C  E847 0010                            LDR,R6   RLSBFRX,AUTO
          1 00007E  6D05                                 CMV,R6   5
          1 00007F  0301 0006                            BG       s:10754,PREL
          1 000081  B856                                 LDR,R3   R6
          1 000082  8DB0 0000 0000  xsym                 CMN      KX_BUF,R3
          1 000085  0975                                 BE       s:10752,SPREL

PL6.E3A0      #002=KXS$GETBFR File=KXS$SUBS.:E05TSI                              WED 07/30/97 02:25 Page:36
      186    10754    3                         IF RLSBFRX <= %KX_S_BUF_MAX#

  10754   1 000086  6D05                                 CMV,R6   5
          1 000087  0301 008D                            BG       s:10799,PREL

      187    10755    3                            THEN
      188    10756    4                               DO;

      189    10757    4                                  PTR$ = KX_BUF.HEAD$ ( RLSBFRX );

  10757   1 000089  B856                                 LDR,R3   R6
          1 00008A  ECB0 0000 0000  xsym                 LDB,B6   KX_BUF,R3
          1 00008D  EFC7 000A                            STB,B6   PTR$,AUTO

      190    10758    4                                  KX_BUF.HEAD$ ( RLSBFRX ) = KX$DATA.NEXT$;

  10758   1 00008F  DC86                                 LDB,B5   ,B6
          1 000090  DFB0 0000 0000  xsym                 STB,B5   KX_BUF,R3

      191    10759    4                                  KX_BUF.CNT ( RLSBFRX ) = KX_BUF.CNT ( RLSBFRX ) - 1;

  10759   1 000093  88B0 0000 0018  xsym                 DEC      KX_BUF+24,R3

      192    10760    4                                  IF KX_BUF.HEAD$ ( RLSBFRX ) = ADDR(NIL)

  10760   1 000096  8DB0 0000 0000  xsym                 CMN      KX_BUF,R3
          1 000099  0981 0007                            BNE      s:10763,PREL

      193    10761    4                                     THEN
      194    10762    4                                        KX_BUF.TAIL$ ( RLSBFRX ) = ADDR(NIL);

  10762   1 00009B  DB80 0000 0000                       LAB,B5   0
          1 00009E  DFB0 0000 000C  xsym                 STB,B5   KX_BUF+12,R3

      195    10763    4                                 KVBSIZ = ( KX_BUF.SIZ ( RLSBFRX ) + LENGTHC(KX$PACKET
             10763                                           ) + 1 ) / 2;

PL6.E3A0      #002=KXS$GETBFR File=KXS$SUBS.:E05TSI                              WED 07/30/97 02:25 Page:37
  10763   1 0000A1  D830 0000 001E  xsym                 LDR,R5   KX_BUF+30,R3
          1 0000A4  5E16                                 ADV,R5   22
          1 0000A5  5041                                 SOR,R5   1
          1 0000A6  DF47 000E                            STR,R5   KVBSIZ,AUTO

      196    10764    4                                  CALL KVB$RLS ( KVBSIZ, PTR$ )

  10764   1 0000A8  DBC7 000A                            LAB,B5   PTR$,AUTO
          1 0000AA  DFC7 0014                            STB,B5   RLSBFRX+4,AUTO
          1 0000AC  CBC7 000E                            LAB,B4   KVBSIZ,AUTO
          1 0000AE  CFC7 0012                            STB,B4   RLSBFRX+2,AUTO
          1 0000B0  BBC7 0012                            LAB,B3   RLSBFRX+2,AUTO
          1 0000B2  CBF0 0200                            LAB,B4   512,IMO
          1 0000B4  E380 0000 0000  xent                 LNJ,B6   KVB$RLS
          1 0000B7       0003                            DC       s:10767,PREL
          1 0000B8  0F81 0020                            B        s:10775,PREL

      197    10765    4                                     WHENALTRETURN
      198    10766    5                                        DO;

      199    10767    5                                           IF ADDR(DNT_SCREECH) ~= ADDR(NIL) THEN

  10767   1 0000BA  ECC7 0008                            LDB,B6   @DNT_SCREECH,AUTO
          1 0000BC  8DD6                                 CMN      B6
          1 0000BD  0901 0012                            BE       s:10773,PREL

      200    10768    5                                                 IF DNT_SCREECH = '1'B THEN

  10768   1 0000BF  8986                                 CMZ      ,B6
          1 0000C0  0881 0004                            BAGE     s:10771,PREL

      201    10769    5                                                       ALTRETURN;

  10769   1 0000C2  C380 0000 0000  xent                 LNJ,B4   X6A_AALT

      202    10770    5                                                    ELSE
      203    10771    5                                                       CALL KHD$SCREECH ( Y_NO_RLS );
PL6.E3A0      #002=KXS$GETBFR File=KXS$SUBS.:E05TSI                              WED 07/30/97 02:25 Page:38

  10771   1 0000C5  BB80 0000 0002  02                   LAB,B3   +2
          1 0000C8  CBF0 0100                            LAB,B4   256,IMO
          1 0000CA  E380 0000 0000  xent                 LNJ,B6   KHD$SCREECH
          1 0000CD       0001                            DC       s:10771+9,PREL
          1 0000CE  0F81 000A                            B        s:10775,PREL

      204    10772    5                                              ELSE
      205    10773    5                                                 CALL KHD$SCREECH (Y_NO_RLS);

  10773   1 0000D0  BB80 0000 0002  02                   LAB,B3   +2
          1 0000D3  CBF0 0100                            LAB,B4   256,IMO
          1 0000D5  E380 0000 0000  xent                 LNJ,B6   KHD$SCREECH
          1 0000D8       0001                            DC       s:10775,PREL

      206    10774    5                                        END;

      207    10775    4                                  KVBSIZ = ( KX_BUF.SIZ(BFRX) + LENGTHC(KX$PACKET) + 1
             10775                                           ) / 2;

  10775   1 0000D9  B847 000F                            LDR,R3   BFRX,AUTO
          1 0000DB  E830 0000 001E  xsym                 LDR,R6   KX_BUF+30,R3
          1 0000DE  6E16                                 ADV,R6   22
          1 0000DF  6041                                 SOR,R6   1
          1 0000E0  EF47 000E                            STR,R6   KVBSIZ,AUTO

      208    10776    4                                  CALL KVB$GET ( KVBSIZ, PTR$ )

  10776   1 0000E2  EBC7 000A                            LAB,B6   PTR$,AUTO
          1 0000E4  EFC7 0014                            STB,B6   RLSBFRX+4,AUTO
          1 0000E6  DBC7 000E                            LAB,B5   KVBSIZ,AUTO
          1 0000E8  DFC7 0012                            STB,B5   RLSBFRX+2,AUTO
          1 0000EA  BBC7 0012                            LAB,B3   RLSBFRX+2,AUTO
          1 0000EC  CBF0 0200                            LAB,B4   512,IMO
          1 0000EE  E380 0000 0000  xent                 LNJ,B6   KVB$GET
          1 0000F1       0003                            DC       s:10782,PREL
          1 0000F2  0F81 0020                            B        s:10790,PREL
PL6.E3A0      #002=KXS$GETBFR File=KXS$SUBS.:E05TSI                              WED 07/30/97 02:25 Page:39

      209    10777    4                                     WHENALTRETURN
      210    10778    5                                        DO;

      211    10779        /*S* SCREECH_CODE: KXS-S$KX_NO_GET#
      212    10780             MESSAGE: KVB$GET(SYS) altreturned.
      213    10781        */
      214    10782    5                                           IF ADDR(DNT_SCREECH) ~= ADDR(NIL) THEN

  10782   1 0000F4  ECC7 0008                            LDB,B6   @DNT_SCREECH,AUTO
          1 0000F6  8DD6                                 CMN      B6
          1 0000F7  0901 0012                            BE       s:10788,PREL

      215    10783    5                                                 IF DNT_SCREECH = '1'B THEN

  10783   1 0000F9  8986                                 CMZ      ,B6
          1 0000FA  0881 0004                            BAGE     s:10786,PREL

      216    10784    5                                                       ALTRETURN;

  10784   1 0000FC  C380 0000 0000  xent                 LNJ,B4   X6A_AALT

      217    10785    5                                                    ELSE
      218    10786    5                                                       CALL KHD$SCREECH ( Y_NO_GET );

  10786   1 0000FF  BB80 0000 0004  02                   LAB,B3   +4
          1 000102  CBF0 0100                            LAB,B4   256,IMO
          1 000104  E380 0000 0000  xent                 LNJ,B6   KHD$SCREECH
          1 000107       0001                            DC       s:10786+9,PREL
          1 000108  0F81 000A                            B        s:10790,PREL

      219    10787    5                                              ELSE
      220    10788    5                                                 CALL KHD$SCREECH (Y_NO_GET);

  10788   1 00010A  BB80 0000 0004  02                   LAB,B3   +4
          1 00010D  CBF0 0100                            LAB,B4   256,IMO
          1 00010F  E380 0000 0000  xent                 LNJ,B6   KHD$SCREECH
PL6.E3A0      #002=KXS$GETBFR File=KXS$SUBS.:E05TSI                              WED 07/30/97 02:25 Page:40
          1 000112       0001                            DC       s:10790,PREL

      221    10789    5                                        END;

      222    10790    4                               END;

  10790   1 000113  0F81 00A4                            B        s:10843,PREL

      223    10791    3                            ELSE
      224    10792    4                               DO;

      225    10793        /*
      226    10794                                             There weren't any larger buffers
      227    10795                                             to return, so return every one
      228    10796                                             of the smaller buffers and hope
      229    10797                                             for the best.
      230    10798        */
      231    10799    4                                  RLSBFRX = 0;

  10799   1 000115  8747 0010                            CL       RLSBFRX,AUTO

      232    10800    5                                  DO WHILE ( RLSBFRX <= %KX_S_BUF_MAX# );

  10800   1 000117  E847 0010                            LDR,R6   RLSBFRX,AUTO
          1 000119  6D05                                 CMV,R6   5
          1 00011A  0301 0063                            BG       s:10822,PREL

      233    10801    5                                     PTR$ = KX_BUF.HEAD$ ( RLSBFRX );

  10801   1 00011C  B847 0010                            LDR,R3   RLSBFRX,AUTO
          1 00011E  ECB0 0000 0000  xsym                 LDB,B6   KX_BUF,R3
          1 000121  EFC7 000A                            STB,B6   PTR$,AUTO

      234    10802    6                                     DO WHILE ( PTR$ ~= ADDR(NIL) );

  10802   1 000123  0F81 0044                            B        s:10817,PREL

PL6.E3A0      #002=KXS$GETBFR File=KXS$SUBS.:E05TSI                              WED 07/30/97 02:25 Page:41
      235    10803    6                                        T$ = KX$DATA.NEXT$;

  10803   1 000125  ECC7 000A                            LDB,B6   PTR$,AUTO
          1 000127  DC86                                 LDB,B5   ,B6
          1 000128  DFC7 000C                            STB,B5   T$,AUTO

      236    10804    6                                        KVBSIZ = ( KX_BUF.SIZ ( RLSBFRX ) + LENGTHC(
             10804                                                 KX$PACKET) + 1 ) / 2;

  10804   1 00012A  B847 0010                            LDR,R3   RLSBFRX,AUTO
          1 00012C  E830 0000 001E  xsym                 LDR,R6   KX_BUF+30,R3
          1 00012F  6E16                                 ADV,R6   22
          1 000130  6041                                 SOR,R6   1
          1 000131  EF47 000E                            STR,R6   KVBSIZ,AUTO

      237    10805    6                                        CALL KVB$RLS ( KVBSIZ, PTR$ )

  10805   1 000133  CBC7 000A                            LAB,B4   PTR$,AUTO
          1 000135  CFC7 0014                            STB,B4   RLSBFRX+4,AUTO
          1 000137  BBC7 000E                            LAB,B3   KVBSIZ,AUTO
          1 000139  BFC7 0012                            STB,B3   RLSBFRX+2,AUTO
          1 00013B  BBC7 0012                            LAB,B3   RLSBFRX+2,AUTO
          1 00013D  CBF0 0200                            LAB,B4   512,IMO
          1 00013F  E380 0000 0000  xent                 LNJ,B6   KVB$RLS
          1 000142       0003                            DC       s:10808,PREL
          1 000143  0F81 0020                            B        s:10816,PREL

      238    10806    6                                           WHENALTRETURN
      239    10807    7                                              DO;

      240    10808    7                                                IF ADDR(DNT_SCREECH) ~= ADDR(NIL) THEN

  10808   1 000145  ECC7 0008                            LDB,B6   @DNT_SCREECH,AUTO
          1 000147  8DD6                                 CMN      B6
          1 000148  0901 0012                            BE       s:10814,PREL

      241    10809    7                                                       IF DNT_SCREECH = '1'B THEN
PL6.E3A0      #002=KXS$GETBFR File=KXS$SUBS.:E05TSI                              WED 07/30/97 02:25 Page:42

  10809   1 00014A  8986                                 CMZ      ,B6
          1 00014B  0881 0004                            BAGE     s:10812,PREL

      242    10810    7                                                             ALTRETURN;

  10810   1 00014D  C380 0000 0000  xent                 LNJ,B4   X6A_AALT

      243    10811    7                                                          ELSE
      244    10812    7                                                             CALL KHD$SCREECH (
             10812                                                                      Y_NO_RLS );

  10812   1 000150  BB80 0000 0002  02                   LAB,B3   +2
          1 000153  CBF0 0100                            LAB,B4   256,IMO
          1 000155  E380 0000 0000  xent                 LNJ,B6   KHD$SCREECH
          1 000158       0001                            DC       s:10812+9,PREL
          1 000159  0F81 000A                            B        s:10816,PREL

      245    10813    7                                                    ELSE
      246    10814    7                                                       CALL KHD$SCREECH (Y_NO_RLS);

  10814   1 00015B  BB80 0000 0002  02                   LAB,B3   +2
          1 00015E  CBF0 0100                            LAB,B4   256,IMO
          1 000160  E380 0000 0000  xent                 LNJ,B6   KHD$SCREECH
          1 000163       0001                            DC       s:10816,PREL

      247    10815    7                                              END;

      248    10816    6                                        PTR$ = T$;

  10816   1 000164  ECC7 000C                            LDB,B6   T$,AUTO
          1 000166  EFC7 000A                            STB,B6   PTR$,AUTO

      249    10817    6                                     END;

  10817   1 000168  8DC7 000A                            CMN      PTR$,AUTO
          1 00016A  0981 FFBA                            BNE      s:10803,PREL
PL6.E3A0      #002=KXS$GETBFR File=KXS$SUBS.:E05TSI                              WED 07/30/97 02:25 Page:43

      250    10818    5                                     KX_BUF.CNT ( RLSBFRX ) = 0;

  10818   1 00016C  B847 0010                            LDR,R3   RLSBFRX,AUTO
          1 00016E  8730 0000 0018  xsym                 CL       KX_BUF+24,R3

      251    10819    5                                     KX_BUF.HEAD$ ( RLSBFRX ) = ADDR(NIL);

  10819   1 000171  DB80 0000 0000                       LAB,B5   0
          1 000174  DFB0 0000 0000  xsym                 STB,B5   KX_BUF,R3

      252    10820    5                                     RLSBFRX = RLSBFRX + 1;

  10820   1 000177  8AC7 0010                            INC      RLSBFRX,AUTO

      253    10821    5                                  END;

  10821   1 000179  E847 0010                            LDR,R6   RLSBFRX,AUTO
          1 00017B  6D05                                 CMV,R6   5
          1 00017C  0381 FF9F                            BLE      s:10801,PREL

      254    10822    4                                  KVBSIZ = ( KX_BUF.SIZ(BFRX) + LENGTHC(KX$PACKET) + 1
             10822                                           ) / 2;

  10822   1 00017E  B847 000F                            LDR,R3   BFRX,AUTO
          1 000180  D830 0000 001E  xsym                 LDR,R5   KX_BUF+30,R3
          1 000183  5E16                                 ADV,R5   22
          1 000184  5041                                 SOR,R5   1
          1 000185  DF47 000E                            STR,R5   KVBSIZ,AUTO

      255    10823    4                                  CALL KVB$GET ( KVBSIZ, PTR$ )

  10823   1 000187  EBC7 000A                            LAB,B6   PTR$,AUTO
          1 000189  EFC7 0014                            STB,B6   RLSBFRX+4,AUTO
          1 00018B  DBC7 000E                            LAB,B5   KVBSIZ,AUTO
          1 00018D  DFC7 0012                            STB,B5   RLSBFRX+2,AUTO
          1 00018F  BBC7 0012                            LAB,B3   RLSBFRX+2,AUTO
PL6.E3A0      #002=KXS$GETBFR File=KXS$SUBS.:E05TSI                              WED 07/30/97 02:25 Page:44
          1 000191  CBF0 0200                            LAB,B4   512,IMO
          1 000193  E380 0000 0000  xent                 LNJ,B6   KVB$GET
          1 000196       0003                            DC       s:10829,PREL
          1 000197  0F81 0020                            B        s:10843,PREL

      256    10824    4                                     WHENALTRETURN
      257    10825    5                                        DO;

      258    10826        /*
      259    10827                                             There really isn't any memory.
      260    10828        */
      261    10829    5                                           IF ADDR(DNT_SCREECH) ~= ADDR(NIL) THEN

  10829   1 000199  ECC7 0008                            LDB,B6   @DNT_SCREECH,AUTO
          1 00019B  8DD6                                 CMN      B6
          1 00019C  0901 0012                            BE       s:10835,PREL

      262    10830    5                                                 IF DNT_SCREECH = '1'B THEN

  10830   1 00019E  8986                                 CMZ      ,B6
          1 00019F  0881 0004                            BAGE     s:10833,PREL

      263    10831    5                                                       ALTRETURN;

  10831   1 0001A1  C380 0000 0000  xent                 LNJ,B4   X6A_AALT

      264    10832    5                                                    ELSE
      265    10833    5                                                       CALL KHD$SCREECH ( Y_NO_GET );

  10833   1 0001A4  BB80 0000 0004  02                   LAB,B3   +4
          1 0001A7  CBF0 0100                            LAB,B4   256,IMO
          1 0001A9  E380 0000 0000  xent                 LNJ,B6   KHD$SCREECH
          1 0001AC       0001                            DC       s:10833+9,PREL
          1 0001AD  0F81 000A                            B        s:10843,PREL

      266    10834    5                                              ELSE
      267    10835    5                                                 CALL KHD$SCREECH (Y_NO_GET);
PL6.E3A0      #002=KXS$GETBFR File=KXS$SUBS.:E05TSI                              WED 07/30/97 02:25 Page:45

  10835   1 0001AF  BB80 0000 0004  02                   LAB,B3   +4
          1 0001B2  CBF0 0100                            LAB,B4   256,IMO
          1 0001B4  E380 0000 0000  xent                 LNJ,B6   KHD$SCREECH
          1 0001B7       0001                            DC       s:10843,PREL

      268    10836    5                                        END;

      269    10837    4                               END;

      270    10838    3                      END;

      271    10839    2             END;

      272    10840        /*
      273    10841                                             Initialize the buffer.
      274    10842        */
      275    10843    1       KX$PACKET = '0'B;

  10843   1 0001B8  ECC7 000A                            LDB,B6   PTR$,AUTO
          1 0001BA  5C15                                 LDV,R5   21
          1 0001BB  0021                                 ALR      ;
          1 0001BC       4178 0000                                ALPHANUM('0000'X,IMO,,1),;
          1 0001BE       4006 0000                                ALPHANUM(0,B6,,R5,FILL)

      276    10844    1       KX$DATA.BFRSIZ = BFRX;

  10844   1 0001C0  437F                                 CSYNC    s:10843+7,SPREL
          1 0001C1  E847 000F                            LDR,R6   BFRX,AUTO
          1 0001C3  ECC7 000A                            LDB,B6   PTR$,AUTO
          1 0001C5  EAC6 0006                            SRM,R6,'1FFF'X    6,B6
          1 0001C7       1FFF

      277    10845    1       PTR_PRM$ = PTR$;

  10845   1 0001C8  ECC7 000A                            LDB,B6   PTR$,AUTO
          1 0001CA  DCC7 0006                            LDB,B5   @PTR_PRM$,AUTO
PL6.E3A0      #002=KXS$GETBFR File=KXS$SUBS.:E05TSI                              WED 07/30/97 02:25 Page:46
          1 0001CC  EF85                                 STB,B6   ,B5

      278    10846
      279    10847    1       RETURN;

  10847   1 0001CD  C380 0000 0000  xent                 LNJ,B4   X6A_ARET
      280    10848
      281    10849    1   END KXS$GETBFR;
      282    10850        %EOD;

PL6.E3A0      #002=KXS$GETBFR File=KXS$SUBS.:E05TSI                              WED 07/30/97 02:25 Page:47
--  Include file information  --

   KV_GLBCNS_E.:E05TOU  is referenced.
   KX_MACROS_M.:E05TOU  is referenced.
   KX_DATA_C.:E05TOU  is referenced.
   KX_SCODE_C.:E05TOU  is referenced.
   KX_PERR_C.:E05TOU  is referenced.
   KX_EQUS_E.:E05TOU  is referenced.
   KL_AFCN_C.:E05TOU  is referenced.
   KL_MACRO_C.:E05TOU  is referenced.
   G_LCP6_E.:E05TOU  is referenced.
   GT_LCP6_M.:E05TOU  is referenced.
   KI_CP6.:E05TOU  is referenced.
   GF_LCP6_M.:E05TOU  is referenced.
   GM_LCP6_M.:E05TOU  is referenced.
   GU_LCP6_M.:E05TOU  is referenced.
   GJ_LCP6_M.:E05TOU  is referenced.
   GH_LCP6_M.:E05TOU  is referenced.
   LCP_6.:E05TOU  cannot be made into a system file and is referenced.
   K_ID_E.:E05TOU  is referenced.
      No diagnostics issued in procedure KXS$GETBFR.
PL6.E3A0      #002=KXS$GETBFR File=KXS$SUBS.:E05TSI                              WED 07/30/97 02:25 Page:48

 **** Variables and constants ****

  ****  Section 000 RoData KXS$GETBFR

  ****  Scalars and arrays  ****
HexLoc.c.b A Datatyp(siz) R M Lvl/name                 HexLoc.c.b A Datatyp(siz) R M Lvl/name

     6-0-0/w STRC(48)    r     1 Y_NO_GET                   0-0-0/w STRC(48)    r     1 Y_NO_RLS
     3-0-0/w STRC(48)    r     1 Y_TOOBIGBFR

  ****  Auto variables  ****

  ****  Scalars and arrays  ****
HexLoc.c.b A Datatyp(siz) R M Lvl/name                 HexLoc.c.b A Datatyp(siz) R M Lvl/name

     8-0-0/w PTR         r     1 @DNT_SCREECH               6-0-0/w PTR         r     1 @PTR_PRM$
     4-0-0/w PTR         r     1 @SIZ                       F-0-0/w UBIN(16)    r     1 BFRX
    *0-0-0/w BIT         r     1 DNT_SCREECH                E-0-0/w UBIN(16)    r     1 KVBSIZ
     A-0-0/w PTR         r     1 PTR$                      *0-0-0/w PTR         r     1 PTR_PRM$
    10-0-0/w UBIN(16)    r     1 RLSBFRX                   *0-0-0/w UBIN(16)    r     1 SIZ
     C-0-0/w PTR         r     1 T$

  ****  SYMREF variables  ****

  ****  Scalars and arrays  ****
HexLoc.c.b A Datatyp(siz) R M Lvl/name                 HexLoc.c.b A Datatyp(siz) R M Lvl/name

     0-0-0/w STRC(672)   r     1 KX_BUF                     0-0-0/b EPTR        r     1 KX_PM$(0:2)
     0-0-0/w STRC(1248)  r     1 KX_STATS_X25

  ****  BASED and DCB variables  ****

  ****  Scalars and arrays  ****
HexLoc.c.b A Datatyp(siz) R M Lvl/name                 HexLoc.c.b A Datatyp(siz) R M Lvl/name

     0-0-0/w STRC(128)   r     1 KX$DATA                    0-0-0/w STRC(168)   r     1 KX$PACKET

PL6.E3A0      #002=KXS$GETBFR File=KXS$SUBS.:E05TSI                              WED 07/30/97 02:25 Page:49

   Procedure KXS$GETBFR requires 464 words for executable code.
   Procedure KXS$GETBFR requires 22 words of local(AUTO) storage.
PL6.E3A0      #002=KXS$GETBFR File=KXS$SUBS.:E05TSI                              WED 07/30/97 02:25 Page:50
          *** CROSS REFERENCE LISTING ***
**     DENOTES     IDENTIFIER DEFINITION
<<                 IDENTIFIER'S VALUE SET
>>                 IDENTIFIER'S VALUE USED
<>                 IDENTIFIER SET AND/OR USED
--                 IDENTIFIER REFERENCED
PL6.E3A0      #002=KXS$GETBFR File=KXS$SUBS.:E05TSI                              WED 07/30/97 02:25 Page:51
          MINI XREF LISTING

BFRX
      9679**DCL     10704<<ASSIGN  10705>>DOWHILE 10705>>DOWHILE 10706<<ASSIGN  10706>>ASSIGN  10708>>IF
     10732>>IF      10735>>ASSIGN  10736>>ASSIGN  10736>>ASSIGN  10737>>ASSIGN  10742>>ASSIGN  10749>>ASSIGN
     10775>>ASSIGN  10822>>ASSIGN  10844>>ASSIGN
DNT_SCREECH
      9675**DCL        19--PROC    10714--IF      10715>>IF      10767--IF      10768>>IF      10782--IF
     10783>>IF      10808--IF      10809>>IF      10829--IF      10830>>IF
KHD$SCREECH
      9664**DCL-ENT 10718--CALL    10720--CALL    10771--CALL    10773--CALL    10786--CALL    10788--CALL
     10812--CALL    10814--CALL    10833--CALL    10835--CALL
KVB$GET
      9661**DCL-ENT 10743--CALL    10776--CALL    10823--CALL
KVB$RLS
      9662**DCL-ENT 10764--CALL    10805--CALL
KVBSIZ
      9678**DCL     10742<<ASSIGN  10743<>CALL    10763<<ASSIGN  10764<>CALL    10775<<ASSIGN  10776<>CALL
     10804<<ASSIGN  10805<>CALL    10822<<ASSIGN  10823<>CALL
KX$DATA.BFRSIZ
      9704**DCL     10844<<ASSIGN
KX$DATA.NEXT$
      9703**DCL     10737>>ASSIGN  10758>>ASSIGN  10803>>ASSIGN
KX$DATA.RLS_STAT
      9703**DCL      9704--REDEF
KX$FRAME.CTL
      9728**DCL      9728--REDEF
KX$FRAME.RLS_STAT
      9723**DCL      9724--REDEF
KX$PACKET
      9753**DCL     10742--ASSIGN  10763--ASSIGN  10775--ASSIGN  10804--ASSIGN  10822--ASSIGN  10843<<ASSIGN
KX$PACKET.CTL
      9760**DCL      9760--REDEF
KX$PACKET.LCN#
PL6.E3A0      #002=KXS$GETBFR File=KXS$SUBS.:E05TSI                              WED 07/30/97 02:25 Page:52
      9789**DCL      9790--REDEF
KX$PACKET.RLS_STAT
      9755**DCL      9756--REDEF
KX$PACKET.TYPE
      9790**DCL      9790--REDEF    9802--REDEF
KX$PACKET.TYPE_BITS.PS
      9794**DCL      9794--REDEF
KX_BUF.CNT
      9829**DCL     10736<<ASSIGN  10736>>ASSIGN  10759<<ASSIGN  10759>>ASSIGN  10818<<ASSIGN
KX_BUF.HEAD$
      9828**DCL     10732>>IF      10735>>ASSIGN  10737<<ASSIGN  10750>>DOWHILE 10757>>ASSIGN  10758<<ASSIGN
     10760>>IF      10801>>ASSIGN  10819<<ASSIGN
KX_BUF.SIZ
      9829**DCL     10705>>DOWHILE 10742>>ASSIGN  10763>>ASSIGN  10775>>ASSIGN  10804>>ASSIGN  10822>>ASSIGN
KX_BUF.TAIL$
      9829**DCL     10762<<ASSIGN
KX_STATS_HDLC.REQSTATS.DSPMSK
     10100**DCL     10106--REDEF
KX_STATS_HDLC.REQSTATS.SLCMSK
     10141**DCL     10148--REDEF
KX_STATS_X25.KVBGET
     10486**DCL     10741<<ASSIGN  10741>>ASSIGN
KX_STATS_X25.KXSGET
     10486**DCL     10722<<ASSIGN  10722>>ASSIGN
KX_STATS_X25.REQSTATS.DSPMSK
     10425**DCL     10431--REDEF
KX_STATS_X25.REQSTATS.SLCMSK
     10466**DCL     10473--REDEF
PTR$
      9674**DCL      9701--IMP-PTR  9721--IMP-PTR  9753--IMP-PTR 10735<<ASSIGN  10737>>ASSIGN  10743<>CALL
     10757<<ASSIGN  10758>>ASSIGN  10764<>CALL    10776<>CALL    10801<<ASSIGN  10802>>DOWHILE 10803>>ASSIGN
     10805<>CALL    10816<<ASSIGN  10823<>CALL    10843>>ASSIGN  10844>>ASSIGN  10845>>ASSIGN
PTR_PRM$
      9676**DCL        19--PROC    10845<<ASSIGN
RLSBFRX
      9680**DCL     10749<<ASSIGN  10750>>DOWHILE 10750>>DOWHILE 10752<<ASSIGN  10752>>ASSIGN  10754>>IF
PL6.E3A0      #002=KXS$GETBFR File=KXS$SUBS.:E05TSI                              WED 07/30/97 02:25 Page:53
     10757>>ASSIGN  10758>>ASSIGN  10759>>ASSIGN  10759>>ASSIGN  10760>>IF      10762>>ASSIGN  10763>>ASSIGN
     10799<<ASSIGN  10800>>DOWHILE 10801>>ASSIGN  10804>>ASSIGN  10818>>ASSIGN  10819>>ASSIGN  10820<<ASSIGN
     10820>>ASSIGN
SIZ
      9673**DCL        19--PROC    10705>>DOWHILE
T$
      9677**DCL     10803<<ASSIGN  10816>>ASSIGN
Y_NO_GET
     10659**DCL     10786<>CALL    10788<>CALL    10833<>CALL    10835<>CALL
Y_NO_RLS
     10537**DCL     10771<>CALL    10773<>CALL    10812<>CALL    10814<>CALL
Y_TOOBIGBFR
     10598**DCL     10718<>CALL    10720<>CALL

PL6.E3A0      #003=KXS$GETCNTX File=KXS$SUBS.:E05TSI                             WED 07/30/97 02:26 Page:54
      283        1        /*T***********************************************************/
      284        2        /*T*                                                         */
      285        3        /*T* Copyright (c) Bull HN Information Systems Inc., 1997    */
      286        4        /*T*                                                         */
      287        5        /*T***********************************************************/
      288        6        /*F* NAME: KXS$GETCNTX               */
      289        7        /*F* PURPOSE: Allocate and initialize an L1/L2 context block  */
      290        8
      291        9        /*D* NAME: KXS$GETCNTX               */
      292       10        /*D* PURPOSE: Allocate and initialize an L1/L2 context
      293       11                      block, including the parsing of the SUPER
      294       12                      definitions.           */
      295       13        /*D* CALL: CALL KXS$GETCNTX ( ADMIN_FPT, CNTX$ ) ALTRET ( label )  */
      296       14        /*D* INPUT: ADMIN_FPT - the fpt supplied by handler common  */
      297       15        /*D* OUTPUT: CNTX$ - pointer to the new context block  */
      298       16
      299       17        KXS$GETCNTX: PROC ( ADMIN_FPT, CTX$ ) ALTRET;
      300       18
      301       19        /*****************************************************************
      302       20        *                                                                *
      303       21        *                           Include files                        *
      304       22        *                                                                *
      305       23        *****************************************************************/
      306       24
      307       25        %INCLUDE K_ID_E;
      308       75        %K#ENTID_E;
      309       94        %K#LYRID_E;
      310      101        %INCLUDE KL_MACRO_C;
      311     3453        %INCLUDE KL_AFCN_C;
      312     3554        %INCLUDE LCP_6;
      313     7833        %INCLUDE CP_6_SUBS;
      314     8373        %INCLUDE KH$CHN;
      315     8495        %INCLUDE KH_MACRO_C;
      316     9238        %INCLUDE KL_SUPER_C;
      317    12140        %INCLUDE KX_EQUS_E;
      318    12579        %INCLUDE KX_L2_E;
      319    12747        %INCLUDE KX_PERR_C;
PL6.E3A0      #003=KXS$GETCNTX File=KXS$SUBS.:E05TSI                             WED 07/30/97 02:26 Page:55
      320    12876        %INCLUDE KX_SCODE_C;
      321    12942        %INCLUDE KX_DATA_C;
      322    13010        %INCLUDE KX_MACROS_M;
      323    13781        %INCLUDE KV_GLBCNS_E;
      324    14122        %KV#CQ_HNDID_E;
      325    14127        %INCLUDE K_ADDRESS_M;
      326    14630        %INCLUDE KNH_MACRO_C;
      327    14913        %EJECT;
PL6.E3A0      #003=KXS$GETCNTX File=KXS$SUBS.:E05TSI                             WED 07/30/97 02:26 Page:56
      328    14914        /*****************************************************************
      329    14915        *                                                                *
      330    14916        *                           External References                  *
      331    14917        *                                                                *
      332    14918        *****************************************************************/
      333    14919
      334    14920    1   DCL KHA$DVCADM ENTRY (6) ALTRET;
      335    14921    1   DCL KVB$GET ENTRY(2) ALTRET;
      336    14922    1   DCL KVB$GETSYS ENTRY (2) ALTRET;
      337    14923    1   DCL KXF$FRAME ENTRY (1) ALTRET;
      338    14924    1   DCL KXX$X29 ENTRY (1);
      339    14925    1   DCL KHD$SCREECH ENTRY (1);
      340    14926    1   DCL KHA$ERRLOG ENTRY (2) ALTRET;
      341    14927    1   DCL KXS$SYSLOG ENTRY(7);
      342    14928    1   DCL KXS$Q_SYSLOG ENTRY(1);
      343    14929        %EJECT;
PL6.E3A0      #003=KXS$GETCNTX File=KXS$SUBS.:E05TSI                             WED 07/30/97 02:26 Page:57
      344    14930        /*****************************************************************
      345    14931        *                                                                *
      346    14932        *                           Auto                                 *
      347    14933        *                                                                *
      348    14934        *****************************************************************/
      349    14935
      350    14936        %KH$ADMIN_FPT ( FPTN = ADMIN_FPT, STCLASS = );
      351    15147    1   DCL CTX$ PTR;
      352    15148    1   DCL CTXW REDEF CTX$ UBIN(32);
      353    15149    1   DCL C$ PTR;
      354    15150    1   DCL CW REDEF C$ UBIN(32);
      355    15151
      356    15152    1   DCL SIZ UBIN;
      357    15153    1   DCL T$ PTR;
      358    15154    1   DCL T1$ PTR;
      359    15155        %KL_LINK (NAME=LINKPRF , STCLASS=AUTO);
      360    15251        %EJECT;
PL6.E3A0      #003=KXS$GETCNTX File=KXS$SUBS.:E05TSI                             WED 07/30/97 02:26 Page:58
      361    15252        /*****************************************************************
      362    15253        *                                                                *
      363    15254        *                           Based                                *
      364    15255        *                                                                *
      365    15256        *****************************************************************/
      366    15257
      367    15258        %KH$CHN ( STCLASS = BASED );
      368    15382        %KL_BLKHDR ( NAME = BLKHDR, STCLASS = "BASED ( T$ )" );
      369    15477        %KL_LNK ( NAME = LNK, STCLASS = "BASED ( T$ )" );
      370    15701        %KL_LINK ( NAME = LNKPRF, STCLASS = "BASED ( T$ )" );
      371    15797        %KL_VIRCIR ( NAME=DFLVCPRF, STCLASS=BASED );
      372    16006
      373    16007        %KX$L1 ( STCLASS = "BASED ( CTX$ )" );
      374    16047        %KX$L2 ( STCLASS = "BASED ( CTX$ )" );
      375    16414        %KX$L2 ( FPTN = KX$L2S, SLCC = YES, STCLASS = "BASED (CTX$)" );
      376    16811        %KX$CCB (STCLASS = BASED);
      377    16842
      378    16843        %KX$L1 ( FPTN = KX$TL1, STCLASS = BASED );
      379    16883    1   DCL BCHR CHAR(200) BASED;
      380    16884        %EJECT;
PL6.E3A0      #003=KXS$GETCNTX File=KXS$SUBS.:E05TSI                             WED 07/30/97 02:26 Page:59
      381    16885        /*****************************************************************
      382    16886        *                                                                *
      383    16887        *                           Constant                             *
      384    16888        *                                                                *
      385    16889        *****************************************************************/
      386    16890
      387    16891        %KX$L2 ( FPTN = KX_L2, STCLASS = CONSTANT );
      388    17258        %KX$L2 ( FPTN = KX_L2S, SLCC = YES, STCLASS = CONSTANT );
      389    17655    1   DCL KX_SLCCRCVCCBS SBIN SYMREF;
      390    17656
      391    17657        %VLP_ERRCODE (FPTN=NO_L2CTX_MEM,STCLASS=CONSTANT,FCG=KX,MID=S,
      392    17658                      SEV=%G_WRSYSLOG_SEV_SOFT#,
      393    17659                      ERR#=%E_KXF_NO_L2CTX_MEM#);
      394    17705        /*E*    ERROR:      KXF-E_KXF_NO_L2CTX_MEM#-3
      395    17706                MESSAGE:    No more memory to start new link.
      396    17707        */
      397    17708        %EJECT;
PL6.E3A0      #003=KXS$GETCNTX File=KXS$SUBS.:E05TSI                             WED 07/30/97 02:26 Page:60
      398    17709        /*****************************************************************
      399    17710        *                                                                *
      400    17711        *                           Static                               *
      401    17712        *                                                                *
      402    17713        *****************************************************************/
      403    17714
      404    17715        %KX_DATA;
      405    18405        %EJECT;
PL6.E3A0      #003=KXS$GETCNTX File=KXS$SUBS.:E05TSI                             WED 07/30/97 02:26 Page:61
      406    18406        /*****************************************************************
      407    18407        *                                                                *
      408    18408        *                           Procedure                            *
      409    18409        *                                                                *
      410    18410        *****************************************************************/
      411    18411
      412    18412    1       T$ = ADMIN_FPT.CTX$;
      413    18413
      414    18414        /*
      415    18415                                            Move the profile information into
      416    18416                                            auto for easier access.
      417    18417        */
      418    18418    1       LINKPRF = PINCRW (T$, (BLKHDR.PROOFFSET+16)/2) -> LNKPRF;
      419    18419    1       T1$ = PINCRW ( T$, BLKHDR.PROOFFSET/2+16+SIZEW(LNKPRF) );
      420    18420    1       IF ADMIN_FPT.CHN$ -> KH$CHN.ATTR&%G_ATTR_CL_SLCC
      421    18421    1          THEN
      422    18422    2             DO;
      423    18423    2                SIZ = 8 * (LINKPRF.WND# + MINIMUM(LINKPRF.WND#,KX_SLCCRCVCCBS)) +
      424    18424    2                   SIZEW (KX_L2S)+7;
      425    18425    2                CALL KVB$GET (SIZ, CTX$) ALTRET (NO_GET);
      426    18426    2                C$ = CTX$;
      427    18427        /*
      428    18428                                            Make sure CTX is at a half_page bound
      429    18429        */
      430    18430    2                CTXW = (CTXW+127)/128*128;
      431    18431    2                KX$L2S = KX_L2S;
      432    18432    2                KX$L2S.P_CCB.DATA_ADR = %KX_L2_P_FRAME#/8+CTXW*2;
      433    18433    2                KX$L2S.L2$ = C$;
      434    18434    2                KX$L2S.L2SIZ = SIZ;
      435    18435    2                KX$L2S.T1S = LINKPRF.TMT#*60; /* The poor SLCC can't multiply. */
      436    18436    2                CW = (CW+7)/8*8;    /* Put CCBs on 8-word bound. */
      437    18437    2                KX$L2S.MAXCCB = MINIMUM(LINKPRF.WND#,KX_SLCCRCVCCBS,31);
      438    18438    3                DO WHILE C$<PINCRW (KX$L2S.L2$,KX$L2S.L2SIZ);
      439    18439    4                   IF C$=CTX$ THEN DO;
      440    18440    4                            C$ = PINCRW(C$,(SIZEW(KX$L2S)+7)/8*8);
      441    18441    4                            IF KX$L2S.CCBHD$=ADDR(NIL)
      442    18442    4                               THEN EXIT;
PL6.E3A0      #003=KXS$GETCNTX File=KXS$SUBS.:E05TSI                             WED 07/30/97 02:26 Page:62
      443    18443    4                            PINCRW(CTX$,-8)->KX$CCB.LNK$ = C$;
      444    18444    4                         END;
      445    18445    3                   IF KX$L2S.CCBHD$ = ADDR(NIL)
      446    18446    3                      THEN
      447    18447    3                         KX$L2S.CCBHD$ = C$;
      448    18448    3                   C$->KX$CCB.LNK$ = PINCRW(C$,8);
      449    18449    3                   C$ = C$->KX$CCB.LNK$;
      450    18450    3                END;
      451    18451    2                PINCRW(C$,-8)->KX$CCB.LNK$ = ADDR(NIL);
      452    18452    2             END;
      453    18453    2          ELSE DO;
      454    18454    2                SIZ = SIZEW(KX$L2);
      455    18455    2                CALL KVB$GETSYS ( SIZ, CTX$ )
      456    18456    2                   WHENALTRETURN
      457    18457    3                      DO;
      458    18458    3   NO_GET:               ;
      459    18459                              %WRSYSLOG ( ERRCOD = NO_L2CTX_MEM,
      460    18460                              TRMID = "ADMIN_FPT.CHN$->KH$CHN.TERMID" );
      461    18478    3                         ALTRETURN;
      462    18479    3                      END;
      463    18480    2                KX$L2 = KX_L2;
      464    18481    2                KX$L2.TMRBLK.CTX$ = CTX$;
      465    18482    2                IF ADMIN_FPT.CHN$->KH$CHN.DVCID = '2978'X
      466    18483    2                   THEN
      467    18484    2                      KX$L2.MAXCCB = 8;
      468    18485    2             END;
      469    18486    1       KX$L2.T20TMR.CTX$ = CTX$;
      470    18487    1       KX$L2.T20 = LINKPRF.RESTIM#;
      471    18488    1       KX$L2.R20 = LINKPRF.RESRTY#;
      472    18489    1       KX$L2.IDL_PRD = LINKPRF.IDLTIM#;
      473    18490         /*
      474    18491                                             Move the information from
      475    18492                                             ADMIN_FPT into the context.
      476    18493        */
      477    18494    1       KX$L1.CHN$ = ADMIN_FPT.CHN$;
      478    18495        /*
      479    18496                                             Move the information from the
PL6.E3A0      #003=KXS$GETCNTX File=KXS$SUBS.:E05TSI                             WED 07/30/97 02:26 Page:63
      480    18497                                             LNK definition into the context.
      481    18498        */
      482    18499    1       KX$L2.NTWADR = LNK.ADR;
      483    18500        /*
      484    18501                                             Move the information from the
      485    18502                                             profile into the context.
      486    18503        */
      487    18504    1       IF ( LINKPRF.CLS# = %KLX25_CLS_X25# ) OR ( LINKPRF.CLS# = %KLX25_CLS_ALL# )
      488    18505    1          THEN
      489    18506    1             KX$L2.FLG.ACPX25 = '1'B;
      490    18507    1          ELSE
      491    18508    1             KX$L2.FLG.ACPX25 = '0'B;
      492    18509    1       IF ( LINKPRF.CLS# = %KLX25_CLS_X29# ) OR ( LINKPRF.CLS# = %KLX25_CLS_ALL# )
      493    18510    1          THEN
      494    18511    1             KX$L2.FLG.ACPX29 = '1'B;
      495    18512    1          ELSE
      496    18513    1             KX$L2.FLG.ACPX29 = '0'B;
      497    18514    1       KX$L2.LIC = LNK.LIC;
      498    18515    1       KX$L2.HIC = LNK.HIC;
      499    18516    1       KX$L2.LOC = LNK.LOC;
      500    18517    1       KX$L2.HOC = LNK.HOC;
      501    18518    1       KX$L2.FLG.FSTSLCACP = LINKPRF.FSA#;
      502    18519    1       KX$L2.FLG.CHRINF = LINKPRF.CHARGE#;
      503    18520    1       KX$L2.FLG.EXTSEQ = LINKPRF.EXTSEQ#;
      504    18521    1       KX$L2.T1 = LINKPRF.TMT#;
      505    18522    1       KX$L2.N2 = LINKPRF.RTR#;
      506    18523    1       KX$L1.BUF_SIZE = LINKPRF.FRMSIZ#;
      507    18524    1       KX$L2.MAXWND = LINKPRF.MAXWND#;
      508    18525    1       IF LNK.MODE# = %KLX25_MOD_DTE#
      509    18526    1          THEN
      510    18527    2             DO;
      511    18528    2                KX$L2.FLG.DCE = '0'B;
      512    18529    2                KX$L2.ADR_CMND = 1;
      513    18530    2                KX$L2.ADR_RESP = 3;
      514    18531    2                IF KX$L2.IDL_PRD ~= 0 THEN
      515    18532    2                      KX$L2.IDL_PRD = MAXIMUM(KX$L2.T1+2, KX$L2.IDL_PRD + 2);
      516    18533    2             END;
PL6.E3A0      #003=KXS$GETCNTX File=KXS$SUBS.:E05TSI                             WED 07/30/97 02:26 Page:64
      517    18534    1          ELSE
      518    18535    2             DO;
      519    18536    2                KX$L2.FLG.DCE = '1'B;
      520    18537    2                KX$L2.ADR_CMND = 3;
      521    18538    2                KX$L2.ADR_RESP = 1;
      522    18539    2                IF KX$L2.IDL_PRD ~= 0 THEN
      523    18540    2                      KX$L2.IDL_PRD = MAXIMUM ( KX$L2.T1+1, KX$L2.IDL_PRD );
      524    18541    2             END;
      525    18542    1       KX$L2.IDL_CLK = KX$L2.IDL_PRD;
      526    18543    1       KX$L2.RSPDLY = LINKPRF.RSPDLY#;
      527    18544    1       KX$L2.FLG.REV_CH = LINKPRF.RVR#;
      528    18545    1       KX$L2.K = LINKPRF.WND#;
      529    18546    1       KX$L2.DFLVCPRF = T1$ -> DFLVCPRF;
      530    18547    1       KX$L2.DSTSNPA = LNK.DEST;
      531    18548    1       KX$L2.QOS = LNK.QOS#;
      532    18549        /*
      533    18550                                             Add this context to the list.
      534    18551        */
      535    18552    1       IF KX_CNTX.HD$ = ADDR(NIL)
      536    18553    1          THEN
      537    18554    2             DO;
      538    18555    2                KX_CNTX.HD$ = CTX$;
      539    18556    2             END;
      540    18557    1          ELSE
      541    18558    2             DO;
      542    18559    2                KX_CNTX.TL$ -> KX$TL1.NEXT$ = CTX$;
      543    18560    2             END;
      544    18561    1       KX_CNTX.TL$ = CTX$;
      545    18562        /*
      546    18563                                             Stuff the context pointer into
      547    18564                                             the channel table.
      548    18565        */
      549    18566    1       ADMIN_FPT.CHN$ -> KH$CHN.CTX$ = CTX$;
      550    18567
      551    18568        /*
      552    18569           Update available MEM and IOMEM according to formula
      553    18570        */
PL6.E3A0      #003=KXS$GETCNTX File=KXS$SUBS.:E05TSI                             WED 07/30/97 02:26 Page:65
      554    18571    1       KX_AVL_MEM = KX_AVL_MEM - 400;
      555    18572    1       KX_AVL_IOMEM = KX_AVL_IOMEM -
      556    18573    1          (KX$L2.MAXCCB + KX$L2.K) * KX_BUF.SIZ(KX$L2.BUF_SIZE);
      557    18574    1       RETURN;
      558    18575
      559    18576    1   END KXS$GETCNTX;
      560    18577        %EOD;

PL6.E3A0      #003=KXS$GETCNTX File=KXS$SUBS.:E05TSI                             WED 07/30/97 02:26 Page:66
--  Include file information  --

   KNH_MACRO_C.:E05TOU  is referenced.
   K_ADDRESS_M.:E05TOU  is referenced.
   KV_GLBCNS_E.:E05TOU  is referenced.
   KX_MACROS_M.:E05TOU  is referenced.
   KX_DATA_C.:E05TOU  is referenced.
   KX_SCODE_C.:E05TOU  is referenced.
   KX_PERR_C.:E05TOU  is referenced.
   KX_L2_E.:E05TOU  is referenced.
   KX_EQUS_E.:E05TOU  is referenced.
   KL_SUPER_C.:E05TOU  is referenced.
   KH_MACRO_C.:E05TOU  is referenced.
   KH$CHN.:E05TOU  is referenced.
   CP_6_SUBS.:E05TOU  is referenced.
   G_LCP6_E.:E05TOU  is referenced.
   GT_LCP6_M.:E05TOU  is referenced.
   KI_CP6.:E05TOU  is referenced.
   GF_LCP6_M.:E05TOU  is referenced.
   GM_LCP6_M.:E05TOU  is referenced.
   GU_LCP6_M.:E05TOU  is referenced.
   GJ_LCP6_M.:E05TOU  is referenced.
   GH_LCP6_M.:E05TOU  is referenced.
   LCP_6.:E05TOU  cannot be made into a system file and is referenced.
   KL_AFCN_C.:E05TOU  is referenced.
   KL_MACRO_C.:E05TOU  is referenced.
   K_ID_E.:E05TOU  is referenced.
      No diagnostics issued in procedure KXS$GETCNTX.

   Procedure KXS$GETCNTX requires 654 words for executable code.
   Procedure KXS$GETCNTX requires 26 words of local(AUTO) storage.

PL6.E3A0      #003=KXS$GETCNTX File=KXS$SUBS.:E05TSI                             WED 07/30/97 02:26 Page:67

 Object Unit name= KXS$GETCNTX                                File name= KXS$SUBS.:E05TOU
 UTS= JUL 30 '97 02:26:26.72 WED                              Compiler= PL-6/E31         Sev=      00
 SharedLib= :SHARED_LCP6_SYSTEM                               Alt SharedLib=


    ****  Control sections  ****

 Sect   Type Bound  Init  Size HexSiz  Section name
    0  RoData even  UTS    441    1B9  KXS$GETCNTX
    1   Proc  even  none   654    28E  KXS$GETCNTX

    ****  Entry defs  ****

                              Check   Calling
                             calling  sequence
  Sect HexLoc Primary Altret sequence   type   Parms  Name
     1      0   yes    yes     yes      Std        2  KXS$GETCNTX

  ****  Entry refs  ****

         Check        Calling
        calling       sequence
Altret sequence SRef   type   Args  Name
 yes     yes           Std       1 KXF$FRAME
 yes     yes           Std       2 KVB$GETSYS
         yes           Std       7 KXS$SYSLOG
 yes     yes           Std       2 KVB$GET
                       nStd      0 X6A_AUTO_2
                       nStd      0 X6A_AALT
                       nStd      0 X6A_ARET
PL6.E3A0      #003=KXS$GETCNTX File=KXS$SUBS.:E05TSI                             WED 07/30/97 02:26 Page:68

  ****  Data refs  ****

  Flags:  r = read only, s = secondary
Flgs Name                             Flgs Name                             Flgs Name
     KX_SLCCRCVCCBS                        KX_CNTX                               KX_BUF
     KX_AVL_MEM                            KX_AVL_IOMEM                          KX_PM$
r    G$ROS$
PL6.E3A0      #003=KXS$GETCNTX File=KXS$SUBS.:E05TSI                             WED 07/30/97 02:26 Page:69


      283        1        /*T***********************************************************/
      284        2        /*T*                                                         */
      285        3        /*T* Copyright (c) Bull HN Information Systems Inc., 1997    */
      286        4        /*T*                                                         */
      287        5        /*T***********************************************************/
      288        6        /*F* NAME: KXS$GETCNTX               */
      289        7        /*F* PURPOSE: Allocate and initialize an L1/L2 context block  */
      290        8
      291        9        /*D* NAME: KXS$GETCNTX               */
      292       10        /*D* PURPOSE: Allocate and initialize an L1/L2 context
      293       11                      block, including the parsing of the SUPER
      294       12                      definitions.           */
      295       13        /*D* CALL: CALL KXS$GETCNTX ( ADMIN_FPT, CNTX$ ) ALTRET ( label )  */
      296       14        /*D* INPUT: ADMIN_FPT - the fpt supplied by handler common  */
      297       15        /*D* OUTPUT: CNTX$ - pointer to the new context block  */
      298       16
      299       17        KXS$GETCNTX: PROC ( ADMIN_FPT, CTX$ ) ALTRET;

     17   1 000000  D380 0000 0000  xent KXS$GETCNTX     LNJ,B5   X6A_AUTO_2
          1 000003       001A 0002                       DC       26,2

      300       18
      301       19        /*****************************************************************
      302       20        *                                                                *
      303       21        *                           Include files                        *
      304       22        *                                                                *
      305       23        *****************************************************************/
      306       24
      307       25        %INCLUDE K_ID_E;
      308       75        %K#ENTID_E;
      309       94        %K#LYRID_E;
      310      101        %INCLUDE KL_MACRO_C;
      311     3453        %INCLUDE KL_AFCN_C;
      312     3554        %INCLUDE LCP_6;
      313     7833        %INCLUDE CP_6_SUBS;
      314     8373        %INCLUDE KH$CHN;
PL6.E3A0      #003=KXS$GETCNTX File=KXS$SUBS.:E05TSI                             WED 07/30/97 02:26 Page:70
      315     8495        %INCLUDE KH_MACRO_C;
      316     9238        %INCLUDE KL_SUPER_C;
      317    12140        %INCLUDE KX_EQUS_E;
      318    12579        %INCLUDE KX_L2_E;
      319    12747        %INCLUDE KX_PERR_C;
      320    12876        %INCLUDE KX_SCODE_C;
      321    12942        %INCLUDE KX_DATA_C;
      322    13010        %INCLUDE KX_MACROS_M;
      323    13781        %INCLUDE KV_GLBCNS_E;
      324    14122        %KV#CQ_HNDID_E;
      325    14127        %INCLUDE K_ADDRESS_M;
      326    14630        %INCLUDE KNH_MACRO_C;
      327    14913        %EJECT;
PL6.E3A0      #003=KXS$GETCNTX File=KXS$SUBS.:E05TSI                             WED 07/30/97 02:26 Page:71
      328    14914        /*****************************************************************
      329    14915        *                                                                *
      330    14916        *                           External References                  *
      331    14917        *                                                                *
      332    14918        *****************************************************************/
      333    14919
      334    14920    1   DCL KHA$DVCADM ENTRY (6) ALTRET;
      335    14921    1   DCL KVB$GET ENTRY(2) ALTRET;
      336    14922    1   DCL KVB$GETSYS ENTRY (2) ALTRET;
      337    14923    1   DCL KXF$FRAME ENTRY (1) ALTRET;
      338    14924    1   DCL KXX$X29 ENTRY (1);
      339    14925    1   DCL KHD$SCREECH ENTRY (1);
      340    14926    1   DCL KHA$ERRLOG ENTRY (2) ALTRET;
      341    14927    1   DCL KXS$SYSLOG ENTRY(7);
      342    14928    1   DCL KXS$Q_SYSLOG ENTRY(1);
      343    14929        %EJECT;
PL6.E3A0      #003=KXS$GETCNTX File=KXS$SUBS.:E05TSI                             WED 07/30/97 02:26 Page:72
      344    14930        /*****************************************************************
      345    14931        *                                                                *
      346    14932        *                           Auto                                 *
      347    14933        *                                                                *
      348    14934        *****************************************************************/
      349    14935
      350    14936        %KH$ADMIN_FPT ( FPTN = ADMIN_FPT, STCLASS = );
      351    15147    1   DCL CTX$ PTR;
      352    15148    1   DCL CTXW REDEF CTX$ UBIN(32);
      353    15149    1   DCL C$ PTR;
      354    15150    1   DCL CW REDEF C$ UBIN(32);
      355    15151
      356    15152    1   DCL SIZ UBIN;
      357    15153    1   DCL T$ PTR;
      358    15154    1   DCL T1$ PTR;
      359    15155        %KL_LINK (NAME=LINKPRF , STCLASS=AUTO);
      360    15251        %EJECT;
PL6.E3A0      #003=KXS$GETCNTX File=KXS$SUBS.:E05TSI                             WED 07/30/97 02:26 Page:73
      361    15252        /*****************************************************************
      362    15253        *                                                                *
      363    15254        *                           Based                                *
      364    15255        *                                                                *
      365    15256        *****************************************************************/
      366    15257
      367    15258        %KH$CHN ( STCLASS = BASED );
      368    15382        %KL_BLKHDR ( NAME = BLKHDR, STCLASS = "BASED ( T$ )" );
      369    15477        %KL_LNK ( NAME = LNK, STCLASS = "BASED ( T$ )" );
      370    15701        %KL_LINK ( NAME = LNKPRF, STCLASS = "BASED ( T$ )" );
      371    15797        %KL_VIRCIR ( NAME=DFLVCPRF, STCLASS=BASED );
      372    16006
      373    16007        %KX$L1 ( STCLASS = "BASED ( CTX$ )" );
      374    16047        %KX$L2 ( STCLASS = "BASED ( CTX$ )" );
      375    16414        %KX$L2 ( FPTN = KX$L2S, SLCC = YES, STCLASS = "BASED (CTX$)" );
      376    16811        %KX$CCB (STCLASS = BASED);
      377    16842
      378    16843        %KX$L1 ( FPTN = KX$TL1, STCLASS = BASED );
      379    16883    1   DCL BCHR CHAR(200) BASED;
      380    16884        %EJECT;
PL6.E3A0      #003=KXS$GETCNTX File=KXS$SUBS.:E05TSI                             WED 07/30/97 02:26 Page:74
      381    16885        /*****************************************************************
      382    16886        *                                                                *
      383    16887        *                           Constant                             *
      384    16888        *                                                                *
      385    16889        *****************************************************************/
      386    16890
      387    16891        %KX$L2 ( FPTN = KX_L2, STCLASS = CONSTANT );
      388    17258        %KX$L2 ( FPTN = KX_L2S, SLCC = YES, STCLASS = CONSTANT );
      389    17655    1   DCL KX_SLCCRCVCCBS SBIN SYMREF;
      390    17656
      391    17657        %VLP_ERRCODE (FPTN=NO_L2CTX_MEM,STCLASS=CONSTANT,FCG=KX,MID=S,
      392    17658                      SEV=%G_WRSYSLOG_SEV_SOFT#,
      393    17659                      ERR#=%E_KXF_NO_L2CTX_MEM#);
      394    17705        /*E*    ERROR:      KXF-E_KXF_NO_L2CTX_MEM#-3
      395    17706                MESSAGE:    No more memory to start new link.
      396    17707        */
      397    17708        %EJECT;
PL6.E3A0      #003=KXS$GETCNTX File=KXS$SUBS.:E05TSI                             WED 07/30/97 02:26 Page:75
      398    17709        /*****************************************************************
      399    17710        *                                                                *
      400    17711        *                           Static                               *
      401    17712        *                                                                *
      402    17713        *****************************************************************/
      403    17714
      404    17715        %KX_DATA;
      405    18405        %EJECT;
PL6.E3A0      #003=KXS$GETCNTX File=KXS$SUBS.:E05TSI                             WED 07/30/97 02:26 Page:76
      406    18406        /*****************************************************************
      407    18407        *                                                                *
      408    18408        *                           Procedure                            *
      409    18409        *                                                                *
      410    18410        *****************************************************************/
      411    18411
      412    18412    1       T$ = ADMIN_FPT.CTX$;

  18412   1 000005  ECC7 0004                            LDB,B6   @ADMIN_FPT,AUTO
          1 000007  DCC6 0009                            LDB,B5   9,B6
          1 000009  DFC7 000B                            STB,B5   T$,AUTO

      413    18413
      414    18414        /*
      415    18415                                            Move the profile information into
      416    18416                                            auto for easier access.
      417    18417        */
      418    18418    1       LINKPRF = PINCRW (T$, (BLKHDR.PROOFFSET+16)/2) -> LNKPRF;

  18418   1 00000B  E845 0002                            LDR,R6   2,B5
          1 00000D  E570 00FF                            AND,R6   255,IMO
          1 00000F  6E10                                 ADV,R6   16
          1 000010  6041                                 SOR,R6   1
          1 000011  F856                                 LDR,R7   R6
          1 000012  6C00                                 LDV,R6   0
          1 000013  8447 000B                            AID      T$,AUTO
          1 000015  8D47 0014                            SDI      LINKPRF+5,AUTO
          1 000017  ACC7 0014                            LDB,B2   LINKPRF+5,AUTO
          1 000019  2C00                                 LDV,R2   0
          1 00001A  6C0A                                 LDV,R6   10
          1 00001B  BB87                                 LAB,B3   ,AUTO
          1 00001C  3C1E                                 LDV,R3   30
          1 00001D  0008                                 MMM

      419    18419    1       T1$ = PINCRW ( T$, BLKHDR.PROOFFSET/2+16+SIZEW(LNKPRF) );

  18419   1 00001E  DCC7 000B                            LDB,B5   T$,AUTO
PL6.E3A0      #003=KXS$GETCNTX File=KXS$SUBS.:E05TSI                             WED 07/30/97 02:26 Page:77
          1 000020  E845 0002                            LDR,R6   2,B5
          1 000022  E570 00FF                            AND,R6   255,IMO
          1 000024  6041                                 SOR,R6   1
          1 000025  F856                                 LDR,R7   R6
          1 000026  6C00                                 LDV,R6   0
          1 000027  8447 000B                            AID      T$,AUTO
          1 000029  8470 0000 0015                       AID      21,IMO
          1 00002C  8D47 000D                            SDI      T1$,AUTO

      420    18420    1       IF ADMIN_FPT.CHN$ -> KH$CHN.ATTR&%G_ATTR_CL_SLCC

  18420   1 00002E  CCC6 000B                            LDB,B4   11,B6
          1 000030  D844 0005                            LDR,R5   5,B4
          1 000032  D570 0200                            AND,R5   512,IMO
          1 000034  5901 00B3                            BEZ,R5   s:18454,PREL

      421    18421    1          THEN
      422    18422    2             DO;

      423    18423    2                SIZ = 8 * (LINKPRF.WND# + MINIMUM(LINKPRF.WND#,KX_SLCCRCVCCBS)) +

  18423   1 000036  D800 0000 0000  xsym                 LDR,R5   KX_SLCCRCVCCBS
          1 000039  C847 0011                            LDR,R4   LINKPRF+2,AUTO
          1 00003B  C570 00FF                            AND,R4   255,IMO
          1 00003D  C955                                 CMR,R4   R5
          1 00003E  0881 0002                            BAGE     s:18423+11,PREL
          1 000040  D854                                 LDR,R5   R4
          1 000041  CA55                                 ADD,R4   R5
          1 000042  4003                                 SOL,R4   3
          1 000043  CA70 0086                            ADD,R4   134,IMO
          1 000045  CF47 000A                            STR,R4   SIZ,AUTO

      424    18424    2                   SIZEW (KX_L2S)+7;
      425    18425    2                CALL KVB$GET (SIZ, CTX$) ALTRET (NO_GET);

  18425   1 000047  ACC7 0006                            LDB,B2   @CTX$,AUTO
          1 000049  AFC7 0016                            STB,B2   LINKPRF+7,AUTO
PL6.E3A0      #003=KXS$GETCNTX File=KXS$SUBS.:E05TSI                             WED 07/30/97 02:26 Page:78
          1 00004B  CBC7 000A                            LAB,B4   SIZ,AUTO
          1 00004D  CFC7 0014                            STB,B4   LINKPRF+5,AUTO
          1 00004F  BBC7 0014                            LAB,B3   LINKPRF+5,AUTO
          1 000051  CBF0 0200                            LAB,B4   512,IMO
          1 000053  E380 0000 0000  xent                 LNJ,B6   KVB$GET
          1 000056       00A8                            DC       s:18457,PREL

      426    18426    2                C$ = CTX$;

  18426   1 000057  ECC7 0006                            LDB,B6   @CTX$,AUTO
          1 000059  DC86                                 LDB,B5   ,B6
          1 00005A  DFC7 0008                            STB,B5   C$,AUTO

      427    18427        /*
      428    18428                                            Make sure CTX is at a half_page bound
      429    18429        */
      430    18430    2                CTXW = (CTXW+127)/128*128;

  18430   1 00005C  8C86                                 LDI      ,B6
          1 00005D  8470 0000 007F                       AID      127,IMO
          1 000060  70C7                                 DOR,R7   7
          1 000061  7087                                 DOL,R7   7
          1 000062  8D06                                 SDI      ,B6

      431    18431    2                KX$L2S = KX_L2S;

  18431   1 000063  CC86                                 LDB,B4   ,B6
          1 000064  AB80 0000 0138  00                   LAB,B2   KX_L2S
          1 000067  2C00                                 LDV,R2   0
          1 000068  E870 00FE                            LDR,R6   254,IMO
          1 00006A  BB84                                 LAB,B3   ,B4
          1 00006B  3C00                                 LDV,R3   0
          1 00006C  0008                                 MMM

      432    18432    2                KX$L2S.P_CCB.DATA_ADR = %KX_L2_P_FRAME#/8+CTXW*2;

  18432   1 00006D  DC86                                 LDB,B5   ,B6
PL6.E3A0      #003=KXS$GETCNTX File=KXS$SUBS.:E05TSI                             WED 07/30/97 02:26 Page:79
          1 00006E  8C86                                 LDI      ,B6
          1 00006F  7081                                 DOL,R7   1
          1 000070  8470 0000 004E                       AID      78,IMO
          1 000073  E857                                 LDR,R6   R7
          1 000074  EF45 0021                            STR,R6   33,B5

      433    18433    2                KX$L2S.L2$ = C$;

  18433   1 000076  DC86                                 LDB,B5   ,B6
          1 000077  ACC7 0008                            LDB,B2   C$,AUTO
          1 000079  AFC5 006F                            STB,B2   111,B5

      434    18434    2                KX$L2S.L2SIZ = SIZ;

  18434   1 00007B  DC86                                 LDB,B5   ,B6
          1 00007C  E847 000A                            LDR,R6   SIZ,AUTO
          1 00007E  EF45 0071                            STR,R6   113,B5

      435    18435    2                KX$L2S.T1S = LINKPRF.TMT#*60; /* The poor SLCC can't multiply. */

  18435   1 000080  DC86                                 LDB,B5   ,B6
          1 000081  D2C7 0011                            LLH,R5   LINKPRF+2,AUTO
          1 000083  5F3C                                 MLV,R5   60
          1 000084  DF45 002B                            STR,R5   43,B5

      436    18436    2                CW = (CW+7)/8*8;    /* Put CCBs on 8-word bound. */

  18436   1 000086  8CC7 0008                            LDI      C$,AUTO
          1 000088  8470 0000 0007                       AID      7,IMO
          1 00008B  70C3                                 DOR,R7   3
          1 00008C  7083                                 DOL,R7   3
          1 00008D  8D47 0008                            SDI      C$,AUTO

      437    18437    2                KX$L2S.MAXCCB = MINIMUM(LINKPRF.WND#,KX_SLCCRCVCCBS,31);

  18437   1 00008F  DC86                                 LDB,B5   ,B6
          1 000090  4C1F                                 LDV,R4   31
PL6.E3A0      #003=KXS$GETCNTX File=KXS$SUBS.:E05TSI                             WED 07/30/97 02:26 Page:80
          1 000091  C900 0000 0000  xsym                 CMR,R4   KX_SLCCRCVCCBS
          1 000094  0A81 0004                            BALE     s:18437+10,PREL
          1 000096  C800 0000 0000  xsym                 LDR,R4   KX_SLCCRCVCCBS
          1 000099  B847 0011                            LDR,R3   LINKPRF+2,AUTO
          1 00009B  B570 00FF                            AND,R3   255,IMO
          1 00009D  B954                                 CMR,R3   R4
          1 00009E  0881 0002                            BAGE     s:18437+18,PREL
          1 0000A0  C853                                 LDR,R4   R3
          1 0000A1  4008                                 SOL,R4   8
          1 0000A2  CAC5 002F                            SRM,R4,'1F00'X    47,B5
          1 0000A4       1F00

      438    18438    3                DO WHILE C$<PINCRW (KX$L2S.L2$,KX$L2S.L2SIZ);

  18438   1 0000A5  0F81 0023                            B        s:18450,PREL

      439    18439    4                   IF C$=CTX$ THEN DO;

  18439   1 0000A7  ECC7 0008                            LDB,B6   C$,AUTO
          1 0000A9  DCC7 0006                            LDB,B5   @CTX$,AUTO
          1 0000AB  ED85                                 CMB,B6   ,B5
          1 0000AC  0981 000C                            BNE      s:18445,PREL

      440    18440    4                            C$ = PINCRW(C$,(SIZEW(KX$L2S)+7)/8*8);

  18440   1 0000AE  CBC6 0080                            LAB,B4   128,B6
          1 0000B0  CFC7 0008                            STB,B4   C$,AUTO

      441    18441    4                            IF KX$L2S.CCBHD$=ADDR(NIL)

  18441   1 0000B2  EC85                                 LDB,B6   ,B5
          1 0000B3  8DC6 002C                            CMN      44,B6
          1 0000B5  0901 0003                            BE       s:18445,PREL

      442    18442    4                               THEN EXIT;
      443    18443    4                            PINCRW(CTX$,-8)->KX$CCB.LNK$ = C$;

PL6.E3A0      #003=KXS$GETCNTX File=KXS$SUBS.:E05TSI                             WED 07/30/97 02:26 Page:81
  18443   1 0000B7  CFC6 FFF8                            STB,B4   -8,B6

      444    18444    4                         END;

      445    18445    3                   IF KX$L2S.CCBHD$ = ADDR(NIL)

  18445   1 0000B9  EC85                                 LDB,B6   ,B5
          1 0000BA  8DC6 002C                            CMN      44,B6
          1 0000BC  0981 0005                            BNE      s:18448,PREL

      446    18446    3                      THEN
      447    18447    3                         KX$L2S.CCBHD$ = C$;

  18447   1 0000BE  CCC7 0008                            LDB,B4   C$,AUTO
          1 0000C0  CFC6 002C                            STB,B4   44,B6

      448    18448    3                   C$->KX$CCB.LNK$ = PINCRW(C$,8);

  18448   1 0000C2  ECC7 0008                            LDB,B6   C$,AUTO
          1 0000C4  CBC6 0008                            LAB,B4   8,B6
          1 0000C6  CF86                                 STB,B4   ,B6

      449    18449    3                   C$ = C$->KX$CCB.LNK$;

  18449   1 0000C7  CFC7 0008                            STB,B4   C$,AUTO

      450    18450    3                END;

  18450   1 0000C9  ECC7 0006                            LDB,B6   @CTX$,AUTO
          1 0000CB  DC86                                 LDB,B5   ,B6
          1 0000CC  B845 0071                            LDR,R3   113,B5
          1 0000CE  CCC5 006F                            LDB,B4   111,B5
          1 0000D0  CFC7 0014                            STB,B4   LINKPRF+5,AUTO
          1 0000D2  F853                                 LDR,R7   R3
          1 0000D3  6C00                                 LDV,R6   0
          1 0000D4  8447 0014                            AID      LINKPRF+5,AUTO
          1 0000D6  DCC7 0008                            LDB,B5   C$,AUTO
PL6.E3A0      #003=KXS$GETCNTX File=KXS$SUBS.:E05TSI                             WED 07/30/97 02:26 Page:82
          1 0000D8  8D47 0016                            SDI      LINKPRF+7,AUTO
          1 0000DA  BCC7 0016                            LDB,B3   LINKPRF+7,AUTO
          1 0000DC  BFC7 0018                            STB,B3   LINKPRF+9,AUTO
          1 0000DE  DDC7 0018                            CMB,B5   LINKPRF+9,AUTO
          1 0000E0  0247                                 BL       s:18439,SPREL

      451    18451    2                PINCRW(C$,-8)->KX$CCB.LNK$ = ADDR(NIL);

  18451   1 0000E1  AB80 0000 0000                       LAB,B2   0
          1 0000E4  AFC5 FFF8                            STB,B2   -8,B5

      452    18452    2             END;

  18452   1 0000E6  0F81 0053                            B        s:18486,PREL

      453    18453    2          ELSE DO;

      454    18454    2                SIZ = SIZEW(KX$L2);

  18454   1 0000E8  D870 0138                            LDR,R5   312,IMO
          1 0000EA  DF47 000A                            STR,R5   SIZ,AUTO

      455    18455    2                CALL KVB$GETSYS ( SIZ, CTX$ )

  18455   1 0000EC  ACC7 0006                            LDB,B2   @CTX$,AUTO
          1 0000EE  AFC7 0016                            STB,B2   LINKPRF+7,AUTO
          1 0000F0  CBC7 000A                            LAB,B4   SIZ,AUTO
          1 0000F2  CFC7 0014                            STB,B4   LINKPRF+5,AUTO
          1 0000F4  BBC7 0014                            LAB,B3   LINKPRF+5,AUTO
          1 0000F6  CBF0 0200                            LAB,B4   512,IMO
          1 0000F8  E380 0000 0000  xent                 LNJ,B6   KVB$GETSYS
          1 0000FB       0003                            DC       s:18457,PREL
          1 0000FC  0F81 001E                            B        s:18480,PREL

      456    18456    2                   WHENALTRETURN
      457    18457    3                      DO;

PL6.E3A0      #003=KXS$GETCNTX File=KXS$SUBS.:E05TSI                             WED 07/30/97 02:26 Page:83
  18451   1                              NO_GET          null
      458    18458    3   NO_GET:               ;
      459    18459                              %WRSYSLOG ( ERRCOD = NO_L2CTX_MEM,
      460    18460                              TRMID = "ADMIN_FPT.CHN$->KH$CHN.TERMID" );

  18476   1 0000FE  ECC7 0004            NO_GET          LDB,B6   @ADMIN_FPT,AUTO
          1 000100  DCC6 000B                            LDB,B5   11,B6
          1 000102  CB80 0000 0000                       LAB,B4   0
          1 000105  CFC7 0018                            STB,B4   LINKPRF+9,AUTO
          1 000107  BBC5 0012                            LAB,B3   18,B5
          1 000109  BFC7 0016                            STB,B3   LINKPRF+7,AUTO
          1 00010B  DB80 0000 01B7  00                   LAB,B5   NO_L2CTX_MEM
          1 00010E  DFC7 0014                            STB,B5   LINKPRF+5,AUTO
          1 000110  BBC7 0014                            LAB,B3   LINKPRF+5,AUTO
          1 000112  CBF0 0300                            LAB,B4   768,IMO
          1 000114  E380 0000 0000  xent                 LNJ,B6   KXS$SYSLOG
          1 000117       0001                            DC       s:18478,PREL

      461    18478    3                         ALTRETURN;

  18478   1 000118  C380 0000 0000  xent                 LNJ,B4   X6A_AALT

      462    18479    3                      END;
      463    18480    2                KX$L2 = KX_L2;

  18480   1 00011B  ECC7 0006                            LDB,B6   @CTX$,AUTO
          1 00011D  DC86                                 LDB,B5   ,B6
          1 00011E  AB80 0000 0000  00                   LAB,B2   KX_L2
          1 000121  2C00                                 LDV,R2   0
          1 000122  E870 0270                            LDR,R6   624,IMO
          1 000124  BB85                                 LAB,B3   ,B5
          1 000125  3C00                                 LDV,R3   0
          1 000126  0008                                 MMM

      464    18481    2                KX$L2.TMRBLK.CTX$ = CTX$;

  18481   1 000127  CC86                                 LDB,B4   ,B6
PL6.E3A0      #003=KXS$GETCNTX File=KXS$SUBS.:E05TSI                             WED 07/30/97 02:26 Page:84
          1 000128  CFC4 0042                            STB,B4   66,B4

      465    18482    2                IF ADMIN_FPT.CHN$->KH$CHN.DVCID = '2978'X

  18482   1 00012A  CCC7 0004                            LDB,B4   @ADMIN_FPT,AUTO
          1 00012C  ACC4 000B                            LDB,B2   11,B4
          1 00012E  E842 0002                            LDR,R6   2,B2
          1 000130  E970 2978                            CMR,R6   10616,IMO
          1 000132  0981 0007                            BNE      s:18486,PREL

      466    18483    2                   THEN
      467    18484    2                      KX$L2.MAXCCB = 8;

  18484   1 000134  9C86                                 LDB,B1   ,B6
          1 000135  D870 0800                            LDR,R5   2048,IMO
          1 000137  DAC1 002F                            SRM,R5,'1F00'X    47,B1
          1 000139       1F00

      468    18485    2             END;

      469    18486    1       KX$L2.T20TMR.CTX$ = CTX$;

  18486   1 00013A  DC86                                 LDB,B5   ,B6
          1 00013B  DFC5 004C                            STB,B5   76,B5

      470    18487    1       KX$L2.T20 = LINKPRF.RESTIM#;

  18487   1 00013D  DC86                                 LDB,B5   ,B6
          1 00013E  E2C7 0012                            LLH,R6   LINKPRF+3,AUTO
          1 000140  E7C5 0055                            STH,R6   85,B5

      471    18488    1       KX$L2.R20 = LINKPRF.RESRTY#;

  18488   1 000142  DC86                                 LDB,B5   ,B6
          1 000143  D847 0012                            LDR,R5   LINKPRF+3,AUTO
          1 000145  DAC5 0054                            SRM,R5,'00FF'X    84,B5
          1 000147       00FF
PL6.E3A0      #003=KXS$GETCNTX File=KXS$SUBS.:E05TSI                             WED 07/30/97 02:26 Page:85

      472    18489    1       KX$L2.IDL_PRD = LINKPRF.IDLTIM#;

  18489   1 000148  DC86                                 LDB,B5   ,B6
          1 000149  C2C7 0013                            LLH,R4   LINKPRF+4,AUTO
          1 00014B  CAC5 0055                            SRM,R4,'00FF'X    85,B5
          1 00014D       00FF

      473    18490         /*
      474    18491                                             Move the information from
      475    18492                                             ADMIN_FPT into the context.
      476    18493        */
      477    18494    1       KX$L1.CHN$ = ADMIN_FPT.CHN$;

  18494   1 00014E  DC86                                 LDB,B5   ,B6
          1 00014F  CCC7 0004                            LDB,B4   @ADMIN_FPT,AUTO
          1 000151  BCC4 000B                            LDB,B3   11,B4
          1 000153  BFC5 0002                            STB,B3   2,B5

      478    18495        /*
      479    18496                                             Move the information from the
      480    18497                                             LNK definition into the context.
      481    18498        */
      482    18499    1       KX$L2.NTWADR = LNK.ADR;

  18499   1 000155  DC86                                 LDB,B5   ,B6
          1 000156  ACC7 000B                            LDB,B2   T$,AUTO
          1 000158  2C08                                 LDV,R2   8
          1 000159  6C08                                 LDV,R6   8
          1 00015A  BB85                                 LAB,B3   ,B5
          1 00015B  3C73                                 LDV,R3   115
          1 00015C  0008                                 MMM

      483    18500        /*
      484    18501                                             Move the information from the
      485    18502                                             profile into the context.
      486    18503        */
PL6.E3A0      #003=KXS$GETCNTX File=KXS$SUBS.:E05TSI                             WED 07/30/97 02:26 Page:86
      487    18504    1       IF ( LINKPRF.CLS# = %KLX25_CLS_X25# ) OR ( LINKPRF.CLS# = %KLX25_CLS_ALL# )

  18504   1 00015D  E847 000F                            LDR,R6   LINKPRF,AUTO
          1 00015F  604E                                 SOR,R6   14
          1 000160  6D01                                 CMV,R6   1
          1 000161  0901 0004                            BE       s:18506,PREL
          1 000163  6D03                                 CMV,R6   3
          1 000164  0981 0007                            BNE      s:18508,PREL

      488    18505    1          THEN
      489    18506    1             KX$L2.FLG.ACPX25 = '1'B;

  18506   1 000166  AC86                                 LDB,B2   ,B6
          1 000167  8942 002E                            LBT,'0020'X       46,B2
          1 000169       0020
          1 00016A  0F81 0005                            B        s:18509,PREL

      490    18507    1          ELSE
      491    18508    1             KX$L2.FLG.ACPX25 = '0'B;

  18508   1 00016C  AC86                                 LDB,B2   ,B6
          1 00016D  8842 002E                            LBF,'0020'X       46,B2
          1 00016F       0020

      492    18509    1       IF ( LINKPRF.CLS# = %KLX25_CLS_X29# ) OR ( LINKPRF.CLS# = %KLX25_CLS_ALL# )

  18509   1 000170  6D02                                 CMV,R6   2
          1 000171  0901 0004                            BE       s:18511,PREL
          1 000173  6D03                                 CMV,R6   3
          1 000174  0981 0007                            BNE      s:18513,PREL

      493    18510    1          THEN
      494    18511    1             KX$L2.FLG.ACPX29 = '1'B;

  18511   1 000176  AC86                                 LDB,B2   ,B6
          1 000177  8942 002E                            LBT,'0010'X       46,B2
          1 000179       0010
PL6.E3A0      #003=KXS$GETCNTX File=KXS$SUBS.:E05TSI                             WED 07/30/97 02:26 Page:87
          1 00017A  0F81 0005                            B        s:18514,PREL

      495    18512    1          ELSE
      496    18513    1             KX$L2.FLG.ACPX29 = '0'B;

  18513   1 00017C  AC86                                 LDB,B2   ,B6
          1 00017D  8842 002E                            LBF,'0010'X       46,B2
          1 00017F       0010

      497    18514    1       KX$L2.LIC = LNK.LIC;

  18514   1 000180  AC86                                 LDB,B2   ,B6
          1 000181  9CC7 000B                            LDB,B1   T$,AUTO
          1 000183  D841 0008                            LDR,R5   8,B1
          1 000185  DF42 0018                            STR,R5   24,B2

      498    18515    1       KX$L2.HIC = LNK.HIC;

  18515   1 000187  AC86                                 LDB,B2   ,B6
          1 000188  D841 0009                            LDR,R5   9,B1
          1 00018A  DF42 0019                            STR,R5   25,B2

      499    18516    1       KX$L2.LOC = LNK.LOC;

  18516   1 00018C  AC86                                 LDB,B2   ,B6
          1 00018D  D841 000A                            LDR,R5   10,B1
          1 00018F  DF42 001B                            STR,R5   27,B2

      500    18517    1       KX$L2.HOC = LNK.HOC;

  18517   1 000191  AC86                                 LDB,B2   ,B6
          1 000192  D841 000B                            LDR,R5   11,B1
          1 000194  DF42 001C                            STR,R5   28,B2

      501    18518    1       KX$L2.FLG.FSTSLCACP = LINKPRF.FSA#;

  18518   1 000196  AC86                                 LDB,B2   ,B6
PL6.E3A0      #003=KXS$GETCNTX File=KXS$SUBS.:E05TSI                             WED 07/30/97 02:26 Page:88
          1 000197  D847 000F                            LDR,R5   LINKPRF,AUTO
          1 000199  5006                                 SOL,R5   6
          1 00019A  DAC2 002F                            SRM,R5,'4000'X    47,B2
          1 00019C       4000

      502    18519    1       KX$L2.FLG.CHRINF = LINKPRF.CHARGE#;

  18519   1 00019D  AC86                                 LDB,B2   ,B6
          1 00019E  D847 000F                            LDR,R5   LINKPRF,AUTO
          1 0001A0  5006                                 SOL,R5   6
          1 0001A1  DAC2 002F                            SRM,R5,'2000'X    47,B2
          1 0001A3       2000

      503    18520    1       KX$L2.FLG.EXTSEQ = LINKPRF.EXTSEQ#;

  18520   1 0001A4  AC86                                 LDB,B2   ,B6
          1 0001A5  D847 0010                            LDR,R5   LINKPRF+1,AUTO
          1 0001A7  DAC2 002F                            SRM,R5,'8000'X    47,B2
          1 0001A9       8000

      504    18521    1       KX$L2.T1 = LINKPRF.TMT#;

  18521   1 0001AA  AC86                                 LDB,B2   ,B6
          1 0001AB  C2C7 0011                            LLH,R4   LINKPRF+2,AUTO
          1 0001AD  CAC2 0016                            SRM,R4,'00FF'X    22,B2
          1 0001AF       00FF

      505    18522    1       KX$L2.N2 = LINKPRF.RTR#;

  18522   1 0001B0  AC86                                 LDB,B2   ,B6
          1 0001B1  B847 0010                            LDR,R3   LINKPRF+1,AUTO
          1 0001B3  B570 00FF                            AND,R3   255,IMO
          1 0001B5  B7C2 0017                            STH,R3   23,B2

      506    18523    1       KX$L1.BUF_SIZE = LINKPRF.FRMSIZ#;

  18523   1 0001B7  AC86                                 LDB,B2   ,B6
PL6.E3A0      #003=KXS$GETCNTX File=KXS$SUBS.:E05TSI                             WED 07/30/97 02:26 Page:89
          1 0001B8  A847 000F                            LDR,R2   LINKPRF,AUTO
          1 0001BA  204A                                 SOR,R2   10
          1 0001BB  A570 000F                            AND,R2   15,IMO
          1 0001BD  A7C2 0004                            STH,R2   4,B2

      507    18524    1       KX$L2.MAXWND = LINKPRF.MAXWND#;

  18524   1 0001BF  AC86                                 LDB,B2   ,B6
          1 0001C0  9847 0010                            LDR,R1   LINKPRF+1,AUTO
          1 0001C2  1048                                 SOR,R1   8
          1 0001C3  9570 007F                            AND,R1   127,IMO
          1 0001C5  97C2 001A                            STH,R1   26,B2

      508    18525    1       IF LNK.MODE# = %KLX25_MOD_DTE#

  18525   1 0001C7  89C1 000C                            CMZ      12,B1
          1 0001C9  0801 0027                            BAL      s:18536,PREL

      509    18526    1          THEN
      510    18527    2             DO;

      511    18528    2                KX$L2.FLG.DCE = '0'B;

  18528   1 0001CB  AC86                                 LDB,B2   ,B6
          1 0001CC  8842 002E                            LBF,'1000'X       46,B2
          1 0001CE       1000

      512    18529    2                KX$L2.ADR_CMND = 1;

  18529   1 0001CF  AC86                                 LDB,B2   ,B6
          1 0001D0  6C01                                 LDV,R6   1
          1 0001D1  E7C2 001E                            STH,R6   30,B2

      513    18530    2                KX$L2.ADR_RESP = 3;

  18530   1 0001D3  AC86                                 LDB,B2   ,B6
          1 0001D4  6C03                                 LDV,R6   3
PL6.E3A0      #003=KXS$GETCNTX File=KXS$SUBS.:E05TSI                             WED 07/30/97 02:26 Page:90
          1 0001D5  EAC2 001E                            SRM,R6,'00FF'X    30,B2
          1 0001D7       00FF

      514    18531    2                IF KX$L2.IDL_PRD ~= 0 THEN

  18531   1 0001D8  AC86                                 LDB,B2   ,B6
          1 0001D9  82C2 0055                            LB,'00FF'X        85,B2
          1 0001DB       00FF
          1 0001DC  0581 0037                            BBF      s:18542,PREL

      515    18532    2                      KX$L2.IDL_PRD = MAXIMUM(KX$L2.T1+2, KX$L2.IDL_PRD + 2);

  18532   1 0001DE  E842 0055                            LDR,R6   85,B2
          1 0001E0  E570 00FF                            AND,R6   255,IMO
          1 0001E2  6E02                                 ADV,R6   2
          1 0001E3  D842 0016                            LDR,R5   22,B2
          1 0001E5  D570 00FF                            AND,R5   255,IMO
          1 0001E7  5E02                                 ADV,R5   2
          1 0001E8  D956                                 CMR,R5   R6
          1 0001E9  0381 0002                            BLE      s:18532+14,PREL
          1 0001EB  E855                                 LDR,R6   R5
          1 0001EC  EAC2 0055                            SRM,R6,'00FF'X    85,B2
          1 0001EE       00FF

      516    18533    2             END;

  18533   1 0001EF  0F81 0024                            B        s:18542,PREL

      517    18534    1          ELSE
      518    18535    2             DO;

      519    18536    2                KX$L2.FLG.DCE = '1'B;

  18536   1 0001F1  AC86                                 LDB,B2   ,B6
          1 0001F2  8942 002E                            LBT,'1000'X       46,B2
          1 0001F4       1000

PL6.E3A0      #003=KXS$GETCNTX File=KXS$SUBS.:E05TSI                             WED 07/30/97 02:26 Page:91
      520    18537    2                KX$L2.ADR_CMND = 3;

  18537   1 0001F5  AC86                                 LDB,B2   ,B6
          1 0001F6  6C03                                 LDV,R6   3
          1 0001F7  E7C2 001E                            STH,R6   30,B2

      521    18538    2                KX$L2.ADR_RESP = 1;

  18538   1 0001F9  AC86                                 LDB,B2   ,B6
          1 0001FA  6C01                                 LDV,R6   1
          1 0001FB  EAC2 001E                            SRM,R6,'00FF'X    30,B2
          1 0001FD       00FF

      522    18539    2                IF KX$L2.IDL_PRD ~= 0 THEN

  18539   1 0001FE  AC86                                 LDB,B2   ,B6
          1 0001FF  82C2 0055                            LB,'00FF'X        85,B2
          1 000201       00FF
          1 000202  0581 0011                            BBF      s:18542,PREL

      523    18540    2                      KX$L2.IDL_PRD = MAXIMUM ( KX$L2.T1+1, KX$L2.IDL_PRD );

  18540   1 000204  E842 0055                            LDR,R6   85,B2
          1 000206  E570 00FF                            AND,R6   255,IMO
          1 000208  D842 0016                            LDR,R5   22,B2
          1 00020A  D570 00FF                            AND,R5   255,IMO
          1 00020C  5E01                                 ADV,R5   1
          1 00020D  D956                                 CMR,R5   R6
          1 00020E  0381 0002                            BLE      s:18540+13,PREL
          1 000210  E855                                 LDR,R6   R5
          1 000211  EAC2 0055                            SRM,R6,'00FF'X    85,B2
          1 000213       00FF

      524    18541    2             END;

      525    18542    1       KX$L2.IDL_CLK = KX$L2.IDL_PRD;

PL6.E3A0      #003=KXS$GETCNTX File=KXS$SUBS.:E05TSI                             WED 07/30/97 02:26 Page:92
  18542   1 000214  AC86                                 LDB,B2   ,B6
          1 000215  E842 0055                            LDR,R6   85,B2
          1 000217  E570 00FF                            AND,R6   255,IMO
          1 000219  E7C2 0056                            STH,R6   86,B2

      526    18543    1       KX$L2.RSPDLY = LINKPRF.RSPDLY#;

  18543   1 00021B  AC86                                 LDB,B2   ,B6
          1 00021C  E847 000F                            LDR,R6   LINKPRF,AUTO
          1 00021E  E570 007F                            AND,R6   127,IMO
          1 000220  EAC2 001A                            SRM,R6,'00FF'X    26,B2
          1 000222       00FF

      527    18544    1       KX$L2.FLG.REV_CH = LINKPRF.RVR#;

  18544   1 000223  AC86                                 LDB,B2   ,B6
          1 000224  E847 000F                            LDR,R6   LINKPRF,AUTO
          1 000226  6004                                 SOL,R6   4
          1 000227  EAC2 002E                            SRM,R6,'2000'X    46,B2
          1 000229       2000

      528    18545    1       KX$L2.K = LINKPRF.WND#;

  18545   1 00022A  AC86                                 LDB,B2   ,B6
          1 00022B  E847 0011                            LDR,R6   LINKPRF+2,AUTO
          1 00022D  E570 00FF                            AND,R6   255,IMO
          1 00022F  E7C2 0016                            STH,R6   22,B2

      529    18546    1       KX$L2.DFLVCPRF = T1$ -> DFLVCPRF;

  18546   1 000231  AC86                                 LDB,B2   ,B6
          1 000232  AFC7 0014                            STB,B2   LINKPRF+5,AUTO
          1 000234  ACC7 000D                            LDB,B2   T1$,AUTO
          1 000236  2C00                                 LDV,R2   0
          1 000237  6C14                                 LDV,R6   20
          1 000238  BCC7 0014                            LDB,B3   LINKPRF+5,AUTO
          1 00023A  BBC3 0058                            LAB,B3   88,B3
PL6.E3A0      #003=KXS$GETCNTX File=KXS$SUBS.:E05TSI                             WED 07/30/97 02:26 Page:93
          1 00023C  3C00                                 LDV,R3   0
          1 00023D  0008                                 MMM

      530    18547    1       KX$L2.DSTSNPA = LNK.DEST;

  18547   1 00023E  BC86                                 LDB,B3   ,B6
          1 00023F  ACC7 000B                            LDB,B2   T$,AUTO
          1 000241  2C26                                 LDV,R2   38
          1 000242  6C08                                 LDV,R6   8
          1 000243  BBC3 0062                            LAB,B3   98,B3
          1 000245  3C00                                 LDV,R3   0
          1 000246  0008                                 MMM

      531    18548    1       KX$L2.QOS = LNK.QOS#;

  18548   1 000247  BC86                                 LDB,B3   ,B6
          1 000248  ACC7 000B                            LDB,B2   T$,AUTO
          1 00024A  E2C2 0017                            LLH,R6   23,B2
          1 00024C  E7C3 0067                            STH,R6   103,B3

      532    18549        /*
      533    18550                                             Add this context to the list.
      534    18551        */
      535    18552    1       IF KX_CNTX.HD$ = ADDR(NIL)

  18552   1 00024E  8D80 0000 0000  xsym                 CMN      KX_CNTX
          1 000251  0981 0007                            BNE      s:18559,PREL

      536    18553    1          THEN
      537    18554    2             DO;

      538    18555    2                KX_CNTX.HD$ = CTX$;

  18555   1 000253  BC86                                 LDB,B3   ,B6
          1 000254  BF80 0000 0000  xsym                 STB,B3   KX_CNTX

      539    18556    2             END;
PL6.E3A0      #003=KXS$GETCNTX File=KXS$SUBS.:E05TSI                             WED 07/30/97 02:26 Page:94

  18556   1 000257  0F81 0006                            B        s:18561,PREL

      540    18557    1          ELSE
      541    18558    2             DO;

      542    18559    2                KX_CNTX.TL$ -> KX$TL1.NEXT$ = CTX$;

  18559   1 000259  BC86                                 LDB,B3   ,B6
          1 00025A  9C80 0000 0002  xsym                 LDB,B1   KX_CNTX+2
          1 00025D  BF81                                 STB,B3   ,B1

      543    18560    2             END;

      544    18561    1       KX_CNTX.TL$ = CTX$;

  18561   1 00025E  BC86                                 LDB,B3   ,B6
          1 00025F  BF80 0000 0002  xsym                 STB,B3   KX_CNTX+2

      545    18562        /*
      546    18563                                             Stuff the context pointer into
      547    18564                                             the channel table.
      548    18565        */
      549    18566    1       ADMIN_FPT.CHN$ -> KH$CHN.CTX$ = CTX$;

  18566   1 000262  9CC4 000B                            LDB,B1   11,B4
          1 000264  DC86                                 LDB,B5   ,B6
          1 000265  DFC1 000C                            STB,B5   12,B1

      550    18567
      551    18568        /*
      552    18569           Update available MEM and IOMEM according to formula
      553    18570        */
      554    18571    1       KX_AVL_MEM = KX_AVL_MEM - 400;

  18571   1 000267  8C80 0000 0000  xsym                 LDI      KX_AVL_MEM
          1 00026A  8470 FFFF FE70                       AID      -400,IMO
PL6.E3A0      #003=KXS$GETCNTX File=KXS$SUBS.:E05TSI                             WED 07/30/97 02:26 Page:95
          1 00026D  8D00 0000 0000  xsym                 SDI      KX_AVL_MEM

      555    18572    1       KX_AVL_IOMEM = KX_AVL_IOMEM -

  18572   1 000270  DC86                                 LDB,B5   ,B6
          1 000271  D845 002F                            LDR,R5   47,B5
          1 000273  5048                                 SOR,R5   8
          1 000274  D570 001F                            AND,R5   31,IMO
          1 000276  C2C5 0016                            LLH,R4   22,B5
          1 000278  DA54                                 ADD,R5   R4
          1 000279  B2C5 0004                            LLH,R3   4,B5
          1 00027B  F855                                 LDR,R7   R5
          1 00027C  FB30 0000 001E  xsym                 MUL,R7   KX_BUF+30,R3
          1 00027F  6C00                                 LDV,R6   0
          1 000280  8480 0000 0000  xsym                 SID      KX_AVL_IOMEM
          1 000283  8656                                 CPL      R6
          1 000284  8657                                 CPL      R7
          1 000285  8470 0000 0001                       AID      1,IMO
          1 000288  8D00 0000 0000  xsym                 SDI      KX_AVL_IOMEM

      556    18573    1          (KX$L2.MAXCCB + KX$L2.K) * KX_BUF.SIZ(KX$L2.BUF_SIZE);
      557    18574    1       RETURN;

  18574   1 00028B  C380 0000 0000  xent                 LNJ,B4   X6A_ARET
      558    18575
      559    18576    1   END KXS$GETCNTX;
      560    18577        %EOD;

PL6.E3A0      #003=KXS$GETCNTX File=KXS$SUBS.:E05TSI                             WED 07/30/97 02:26 Page:96
--  Include file information  --

   KNH_MACRO_C.:E05TOU  is referenced.
   K_ADDRESS_M.:E05TOU  is referenced.
   KV_GLBCNS_E.:E05TOU  is referenced.
   KX_MACROS_M.:E05TOU  is referenced.
   KX_DATA_C.:E05TOU  is referenced.
   KX_SCODE_C.:E05TOU  is referenced.
   KX_PERR_C.:E05TOU  is referenced.
   KX_L2_E.:E05TOU  is referenced.
   KX_EQUS_E.:E05TOU  is referenced.
   KL_SUPER_C.:E05TOU  is referenced.
   KH_MACRO_C.:E05TOU  is referenced.
   KH$CHN.:E05TOU  is referenced.
   CP_6_SUBS.:E05TOU  is referenced.
   G_LCP6_E.:E05TOU  is referenced.
   GT_LCP6_M.:E05TOU  is referenced.
   KI_CP6.:E05TOU  is referenced.
   GF_LCP6_M.:E05TOU  is referenced.
   GM_LCP6_M.:E05TOU  is referenced.
   GU_LCP6_M.:E05TOU  is referenced.
   GJ_LCP6_M.:E05TOU  is referenced.
   GH_LCP6_M.:E05TOU  is referenced.
   LCP_6.:E05TOU  cannot be made into a system file and is referenced.
   KL_AFCN_C.:E05TOU  is referenced.
   KL_MACRO_C.:E05TOU  is referenced.
   K_ID_E.:E05TOU  is referenced.
      No diagnostics issued in procedure KXS$GETCNTX.
PL6.E3A0      #003=KXS$GETCNTX File=KXS$SUBS.:E05TSI                             WED 07/30/97 02:26 Page:97

 **** Variables and constants ****

  ****  Section 000 RoData KXS$GETCNTX

  ****  Scalars and arrays  ****
HexLoc.c.b A Datatyp(siz) R M Lvl/name                 HexLoc.c.b A Datatyp(siz) R M Lvl/name

     0-0-0/w STRC(4992)  r     1 KX_L2                    138-0-0/w STRC(2032)  r     1 KX_L2S
   1B7-0-0/w STRC(32)    r     1 NO_L2CTX_MEM

  ****  Auto variables  ****

  ****  Scalars and arrays  ****
HexLoc.c.b A Datatyp(siz) R M Lvl/name                 HexLoc.c.b A Datatyp(siz) R M Lvl/name

     4-0-0/w PTR         r     1 @ADMIN_FPT                 6-0-0/w PTR         r     1 @CTX$
    *0-0-0/w STRC(288)   r     1 ADMIN_FPT                  8-0-0/w PTR         r     1 C$
    *0-0-0/w PTR         r     1 CTX$                      *0-0-0/w UBIN(32)    r     1 CTXW
     8-0-0/w UBIN(32)    r     1 CW                         F-0-0/c STRC(80)    r     1 LINKPRF
     A-0-0/w UBIN(16)    r     1 SIZ                        B-0-0/w PTR         r     1 T$
     D-0-0/w PTR         r     1 T1$

  ****  SYMREF variables  ****

  ****  Scalars and arrays  ****
HexLoc.c.b A Datatyp(siz) R M Lvl/name                 HexLoc.c.b A Datatyp(siz) R M Lvl/name

     0-0-0/w SBIN(32)    r     1 KX_AVL_IOMEM               0-0-0/w SBIN(32)    r     1 KX_AVL_MEM
     0-0-0/w STRC(672)   r     1 KX_BUF                     0-0-0/w STRC(64)    r     1 KX_CNTX
     0-0-0/b EPTR        r     1 KX_PM$(0:2)                0-0-0/w SBIN(16)    r     1 KX_SLCCRCVCCBS

  ****  BASED and DCB variables  ****

  ****  Scalars and arrays  ****
HexLoc.c.b A Datatyp(siz) R M Lvl/name                 HexLoc.c.b A Datatyp(siz) R M Lvl/name

     0-0-0/w STRC(64)    r     1 BLKHDR                     0-0-0/w STRC(160)   r     1 DFLVCPRF
PL6.E3A0      #003=KXS$GETCNTX File=KXS$SUBS.:E05TSI                             WED 07/30/97 02:26 Page:98
     0-0-0/w STRC(512)   r     1 KH$CHN                     0-0-0/w STRC(128)   r     1 KX$CCB
     0-0-0/w STRC(352)   r     1 KX$L1                      0-0-0/w STRC(4992)  r     1 KX$L2
     0-0-0/w STRC(2032)  r     1 KX$L2S                     0-0-0/w STRC(352)   r     1 KX$TL1
     0-0-0/w STRC(384)   r     1 LNK                        0-0-0/c STRC(80)    r     1 LNKPRF


   Procedure KXS$GETCNTX requires 654 words for executable code.
   Procedure KXS$GETCNTX requires 26 words of local(AUTO) storage.
PL6.E3A0      #003=KXS$GETCNTX File=KXS$SUBS.:E05TSI                             WED 07/30/97 02:26 Page:99
          *** CROSS REFERENCE LISTING ***
**     DENOTES     IDENTIFIER DEFINITION
<<                 IDENTIFIER'S VALUE SET
>>                 IDENTIFIER'S VALUE USED
<>                 IDENTIFIER SET AND/OR USED
--                 IDENTIFIER REFERENCED
PL6.E3A0      #003=KXS$GETCNTX File=KXS$SUBS.:E05TSI                             WED 07/30/97 02:26 Page:100
          MINI XREF LISTING

ADMIN_FPT
     14951**DCL        17--PROC
ADMIN_FPT.CHN$
     15078**DCL     18420>>IF      18476>>CALL    18482>>IF      18494>>ASSIGN  18566>>ASSIGN
ADMIN_FPT.CTX$
     15007**DCL     18412>>ASSIGN
ADMIN_FPT.TERMID.TERM
     14975**DCL     14984--REDEF
BLKHDR.PROOFFSET
     15447**DCL     18418>>ASSIGN  18419>>ASSIGN
C$
     15149**DCL     15150--REDEF   18426<<ASSIGN  18433>>ASSIGN  18438>>DOWHILE 18439>>IF      18440<<ASSIGN
     18440>>ASSIGN  18443>>ASSIGN  18447>>ASSIGN  18448>>ASSIGN  18448>>ASSIGN  18449<<ASSIGN  18449>>ASSIGN
     18451>>ASSIGN
CTX$
     15147**DCL        17--PROC    15148--REDEF   16020--IMP-PTR 16065--IMP-PTR 16432--IMP-PTR 18425<>CALL
     18426>>ASSIGN  18431>>ASSIGN  18432>>ASSIGN  18433>>ASSIGN  18434>>ASSIGN  18435>>ASSIGN  18437>>ASSIGN
     18438>>DOWHILE 18438>>DOWHILE 18439>>IF      18441>>IF      18443>>ASSIGN  18445>>IF      18447>>ASSIGN
     18455<>CALL    18480>>ASSIGN  18481>>ASSIGN  18481>>ASSIGN  18484>>ASSIGN  18486>>ASSIGN  18486>>ASSIGN
     18487>>ASSIGN  18488>>ASSIGN  18489>>ASSIGN  18494>>ASSIGN  18499>>ASSIGN  18506>>ASSIGN  18508>>ASSIGN
     18511>>ASSIGN  18513>>ASSIGN  18514>>ASSIGN  18515>>ASSIGN  18516>>ASSIGN  18517>>ASSIGN  18518>>ASSIGN
     18519>>ASSIGN  18520>>ASSIGN  18521>>ASSIGN  18522>>ASSIGN  18523>>ASSIGN  18524>>ASSIGN  18528>>ASSIGN
     18529>>ASSIGN  18530>>ASSIGN  18531>>IF      18532>>ASSIGN  18532>>ASSIGN  18532>>ASSIGN  18536>>ASSIGN
     18537>>ASSIGN  18538>>ASSIGN  18539>>IF      18540>>ASSIGN  18540>>ASSIGN  18540>>ASSIGN  18542>>ASSIGN
     18542>>ASSIGN  18543>>ASSIGN  18544>>ASSIGN  18545>>ASSIGN  18546>>ASSIGN  18547>>ASSIGN  18548>>ASSIGN
     18555>>ASSIGN  18559>>ASSIGN  18561>>ASSIGN  18566>>ASSIGN  18572>>ASSIGN  18572>>ASSIGN  18572>>ASSIGN
CTXW
     15148**DCL     18430<<ASSIGN  18430>>ASSIGN  18432>>ASSIGN
CW
     15150**DCL     18436<<ASSIGN  18436>>ASSIGN
DFLVCPRF
     15811**DCL     18546>>ASSIGN
PL6.E3A0      #003=KXS$GETCNTX File=KXS$SUBS.:E05TSI                             WED 07/30/97 02:26 Page:101
DFLVCPRF.TRADEL
     15815**DCL     15825--REDEF
KH$CHN.ATTR
     15306**DCL     18420>>IF
KH$CHN.CTX$
     15343**DCL     18566<<ASSIGN
KH$CHN.DVCID
     15299**DCL     18482>>IF
KH$CHN.TERMID
     15367**DCL     18476<>CALL
KH$CHN.TERMID.TERM
     15369**DCL     15378--REDEF
KVB$GET
     14921**DCL-ENT 18425--CALL
KVB$GETSYS
     14922**DCL-ENT 18455--CALL
KX$CCB.LNK$
     16835**DCL     16835--REDEF   18443<<ASSIGN  18448<<ASSIGN  18449>>ASSIGN  18451<<ASSIGN
KX$L1.BUF_SIZE
     16039**DCL     18523<<ASSIGN
KX$L1.CHN$
     16039**DCL     18494<<ASSIGN
KX$L2
     16065**DCL     18454--ASSIGN  18480<<ASSIGN
KX$L2.ADR_CMND
     16095**DCL     18529<<ASSIGN  18537<<ASSIGN
KX$L2.ADR_RESP
     16095**DCL     18530<<ASSIGN  18538<<ASSIGN
KX$L2.BUF_SIZE
     16084**DCL     18572>>ASSIGN
KX$L2.DFLVCPRF
     16203**DCL     18546<<ASSIGN
KX$L2.DFLVCPRF.TRADEL
     16205**DCL     16215--REDEF
KX$L2.DSTSNPA
     16396**DCL     18547<<ASSIGN
PL6.E3A0      #003=KXS$GETCNTX File=KXS$SUBS.:E05TSI                             WED 07/30/97 02:26 Page:102
KX$L2.DSTSNPA.ADR_STRING
     16396**DCL     16396--REDEF
KX$L2.FLG.ACPX25
     16110**DCL     18506<<ASSIGN  18508<<ASSIGN
KX$L2.FLG.ACPX29
     16110**DCL     18511<<ASSIGN  18513<<ASSIGN
KX$L2.FLG.CHRINF
     16112**DCL     18519<<ASSIGN
KX$L2.FLG.DCE
     16108**DCL     18528<<ASSIGN  18536<<ASSIGN
KX$L2.FLG.EXTSEQ
     16112**DCL     18520<<ASSIGN
KX$L2.FLG.FSTSLCACP
     16112**DCL     18518<<ASSIGN
KX$L2.FLG.REV_CH
     16108**DCL     18544<<ASSIGN
KX$L2.FRMR_NSNR
     16182**DCL     16183--REDEF
KX$L2.HIC
     16092**DCL     18515<<ASSIGN
KX$L2.HOC
     16093**DCL     18517<<ASSIGN
KX$L2.IDL_CLK
     16185**DCL     18542<<ASSIGN
KX$L2.IDL_PRD
     16184**DCL     18489<<ASSIGN  18531>>IF      18532<<ASSIGN  18532>>ASSIGN  18539>>IF      18540<<ASSIGN
     18540>>ASSIGN  18542>>ASSIGN
KX$L2.K
     16091**DCL     18545<<ASSIGN  18572>>ASSIGN
KX$L2.LIC
     16092**DCL     18514<<ASSIGN
KX$L2.LOC
     16093**DCL     18516<<ASSIGN
KX$L2.MAXCCB
     16113**DCL     18484<<ASSIGN  18572>>ASSIGN
KX$L2.MAXWND
PL6.E3A0      #003=KXS$GETCNTX File=KXS$SUBS.:E05TSI                             WED 07/30/97 02:26 Page:103
     16092**DCL     18524<<ASSIGN
KX$L2.N2
     16091**DCL     18522<<ASSIGN
KX$L2.NTWADR
     16116**DCL     18499<<ASSIGN
KX$L2.NTWADR.ADR_STRING
     16116**DCL     16116--REDEF
KX$L2.QOS
     16397**DCL     18548<<ASSIGN
KX$L2.R20
     16183**DCL     18488<<ASSIGN
KX$L2.RSPDLY
     16093**DCL     18543<<ASSIGN
KX$L2.STATES
     16094**DCL     16094--REDEF
KX$L2.T1
     16091**DCL     18521<<ASSIGN  18532>>ASSIGN  18540>>ASSIGN
KX$L2.T20
     16184**DCL     18487<<ASSIGN
KX$L2.T20TMR.CTX$
     16177**DCL     18486<<ASSIGN
KX$L2.TMRBLK.CTX$
     16145**DCL     18481<<ASSIGN
KX$L2S
     16432**DCL     18431<<ASSIGN  18440--ASSIGN
KX$L2S.CCBHD$
     16503**DCL     18441>>IF      18445>>IF      18447<<ASSIGN
KX$L2S.DFLVCPRF.TRADEL
     16602**DCL     16612--REDEF
KX$L2S.DSTSNPA.ADR_STRING
     16793**DCL     16793--REDEF
KX$L2S.FRMR_NSNR
     16579**DCL     16580--REDEF
KX$L2S.L2$
     16804**DCL     18433<<ASSIGN  18438>>DOWHILE
KX$L2S.L2SIZ
PL6.E3A0      #003=KXS$GETCNTX File=KXS$SUBS.:E05TSI                             WED 07/30/97 02:26 Page:104
     16804**DCL     18434<<ASSIGN  18438>>DOWHILE
KX$L2S.MAXCCB
     16510**DCL     18437<<ASSIGN
KX$L2S.NTWADR.ADR_STRING
     16513**DCL     16513--REDEF
KX$L2S.P_CCB.DATA_ADR
     16494**DCL     18432<<ASSIGN
KX$L2S.P_CCB.LNK$
     16493**DCL     16493--REDEF
KX$L2S.STATES
     16461**DCL     16461--REDEF
KX$L2S.T1S
     16502**DCL     18435<<ASSIGN
KX$TL1.NEXT$
     16875**DCL     18559<<ASSIGN
KXF$FRAME
     14923**DCL-ENT 16990--DCLINIT 17022--DCLINIT 17387--DCLINIT 17419--DCLINIT
KXS$SYSLOG
     14927**DCL-ENT 18476--CALL
KX_AVL_IOMEM
     18400**DCL     18572<<ASSIGN  18572>>ASSIGN
KX_AVL_MEM
     18400**DCL     18571<<ASSIGN  18571>>ASSIGN
KX_BUF.SIZ
     17731**DCL     18572>>ASSIGN
KX_CNTX.HD$
     17728**DCL     18552>>IF      18555<<ASSIGN
KX_CNTX.TL$
     17728**DCL     18559>>ASSIGN  18561<<ASSIGN
KX_L2
     16909**DCL     18480>>ASSIGN
KX_L2.DFLVCPRF.TRADEL
     17049**DCL     17059--REDEF
KX_L2.DSTSNPA.ADR_STRING
     17240**DCL     17240--REDEF
KX_L2.FRMR_NSNR
PL6.E3A0      #003=KXS$GETCNTX File=KXS$SUBS.:E05TSI                             WED 07/30/97 02:26 Page:105
     17026**DCL     17027--REDEF
KX_L2.NTWADR.ADR_STRING
     16960**DCL     16960--REDEF
KX_L2.STATES
     16938**DCL     16938--REDEF
KX_L2S
     17276**DCL     18423--ASSIGN  18431>>ASSIGN
KX_L2S.DFLVCPRF.TRADEL
     17446**DCL     17456--REDEF
KX_L2S.DSTSNPA.ADR_STRING
     17637**DCL     17637--REDEF
KX_L2S.FRMR_NSNR
     17423**DCL     17424--REDEF
KX_L2S.NTWADR.ADR_STRING
     17357**DCL     17357--REDEF
KX_L2S.P_CCB.LNK$
     17337**DCL     17337--REDEF
KX_L2S.STATES
     17305**DCL     17305--REDEF
KX_SLCCRCVCCBS
     17655**DCL     18423>>ASSIGN  18437>>ASSIGN
KX_STATS_HDLC.REQSTATS.DSPMSK
     18002**DCL     18008--REDEF
KX_STATS_HDLC.REQSTATS.SLCMSK
     18043**DCL     18050--REDEF
KX_STATS_X25.REQSTATS.DSPMSK
     18327**DCL     18333--REDEF
KX_STATS_X25.REQSTATS.SLCMSK
     18368**DCL     18375--REDEF
LINKPRF
     15169**DCL     18418<<ASSIGN
LINKPRF.CHARGE#
     15211**DCL     18519>>ASSIGN
LINKPRF.CLS#
     15176**DCL     18504>>IF      18504>>IF      18509>>IF      18509>>IF
LINKPRF.EXTSEQ#
PL6.E3A0      #003=KXS$GETCNTX File=KXS$SUBS.:E05TSI                             WED 07/30/97 02:26 Page:106
     15224**DCL     18520>>ASSIGN
LINKPRF.FRMSIZ#
     15187**DCL     18523>>ASSIGN
LINKPRF.FSA#
     15204**DCL     18518>>ASSIGN
LINKPRF.IDLTIM#
     15248**DCL     18489>>ASSIGN
LINKPRF.MAXWND#
     15228**DCL     18524>>ASSIGN
LINKPRF.RESRTY#
     15247**DCL     18488>>ASSIGN
LINKPRF.RESTIM#
     15246**DCL     18487>>ASSIGN
LINKPRF.RSPDLY#
     15216**DCL     18543>>ASSIGN
LINKPRF.RTR#
     15233**DCL     18522>>ASSIGN
LINKPRF.RVR#
     15200**DCL     18544>>ASSIGN
LINKPRF.TMT#
     15237**DCL     18435>>ASSIGN  18521>>ASSIGN
LINKPRF.WND#
     15242**DCL     18423>>ASSIGN  18423>>ASSIGN  18437>>ASSIGN  18545>>ASSIGN
LNK.ADR
     15603**DCL     18499>>ASSIGN
LNK.DEST
     15676**DCL     18547>>ASSIGN
LNK.HIC
     15634**DCL     18515>>ASSIGN
LNK.HOC
     15644**DCL     18517>>ASSIGN
LNK.LIC
     15629**DCL     18514>>ASSIGN
LNK.LOC
     15639**DCL     18516>>ASSIGN
LNK.MODE#
PL6.E3A0      #003=KXS$GETCNTX File=KXS$SUBS.:E05TSI                             WED 07/30/97 02:26 Page:107
     15649**DCL     18525>>IF
LNK.QOS#
     15690**DCL     18548>>ASSIGN
LNKPRF
     15715**DCL     18418>>ASSIGN  18419--ASSIGN
NO_GET
     18451**LABEL   18425--CALLALT
NO_L2CTX_MEM
     17673**DCL     18476<>CALL
SIZ
     15152**DCL     18423<<ASSIGN  18425<>CALL    18434>>ASSIGN  18454<<ASSIGN  18455<>CALL
T$
     15153**DCL     15396--IMP-PTR 15494--IMP-PTR 15715--IMP-PTR 18412<<ASSIGN  18418>>ASSIGN  18418>>ASSIGN
     18419>>ASSIGN  18419>>ASSIGN  18499>>ASSIGN  18514>>ASSIGN  18515>>ASSIGN  18516>>ASSIGN  18517>>ASSIGN
     18525>>IF      18547>>ASSIGN  18548>>ASSIGN
T1$
     15154**DCL     18419<<ASSIGN  18546>>ASSIGN

PL6.E3A0      #004=KXS$GETL3 File=KXS$SUBS.:E05TSI                               WED 07/30/97 02:27 Page:108
      561        1        /*T***********************************************************/
      562        2        /*T*                                                         */
      563        3        /*T* Copyright (c) Bull HN Information Systems Inc., 1997    */
      564        4        /*T*                                                         */
      565        5        /*T***********************************************************/
      566        6        /*F* NAME: KXS$GETL3                 */
      567        7        /*F* PURPOSE: Allocate a KX$L3 context block  */
      568        8
      569        9        /*D* NAME: KXS$GETL3                 */
      570       10        /*D* PURPOSE: Allocate a KX$L3 context block,
      571       11                      including parsing the SUPER supplied
      572       12                      information.           */
      573       13        /*D* CALL: CALL KXS$GETL3 ( L2$, L3$, KH$ADMIN_FPT ) ALTRET ( label );  */
      574       14        /*D* INPUT: L2$ - pointer to the level 2 context for this level 3
      575       15                    KH$ADMIN_FPT - optional handler common fpt  */
      576       16        /*D* OUTPUT: L3$ - pointer to new context  */
      577       17
      578       18        KXS$GETL3: PROC ( L2$, L3$, ADMIN_FPT ) ALTRET;
      579       19
      580       20        /*****************************************************************
      581       21        *                                                                *
      582       22        *                           Includes                             *
      583       23        *                                                                *
      584       24        *****************************************************************/
      585       25
      586       26        %INCLUDE K_ID_E;
      587       76        %K#ENTID_E;
      588       95        %K#LYRID_E;
      589      102        %INCLUDE KL_MACRO_C;
      590     3454        %INCLUDE KL_AFCN_C;
      591     3555        %INCLUDE LCP_6;
      592     7834        %INCLUDE CP_6_SUBS;
      593     8374        %INCLUDE KH_MACRO_C;
      594     9117        %INCLUDE KL_SUPER_C;
      595    12019        %INCLUDE KX_EQUS_E;
      596    12458        %INCLUDE KX_PERR_C;
      597    12587        %INCLUDE KX_SCODE_C;
PL6.E3A0      #004=KXS$GETL3 File=KXS$SUBS.:E05TSI                               WED 07/30/97 02:27 Page:109
      598    12653        %INCLUDE KX_DATA_C;
      599    12721        %INCLUDE KX_MACROS_M;
      600    13492        %INCLUDE KV_GLBCNS_E;
      601    13833        %INCLUDE K_ADDRESS_M;
      602    14336        %INCLUDE KNH_MACRO_C;
      603    14619        %KV#CQ_HNDID_E;
      604    14624        %EJECT;
PL6.E3A0      #004=KXS$GETL3 File=KXS$SUBS.:E05TSI                               WED 07/30/97 02:27 Page:110
      605    14625        /*****************************************************************
      606    14626        *                                                                *
      607    14627        *                           External References                  *
      608    14628        *                                                                *
      609    14629        *****************************************************************/
      610    14630
      611    14631    1   DCL KVB$GETSYS ENTRY (2) ALTRET;
      612    14632    1   DCL KXX$X29 ENTRY (1);
      613    14633    1   DCL KXP$PACKET ENTRY (1) ALTRET;
      614    14634    1   DCL KHD$SCREECH ENTRY (1);
      615    14635    1   DCL KHA$ERRLOG ENTRY (2) ALTRET;
      616    14636        %EJECT;
PL6.E3A0      #004=KXS$GETL3 File=KXS$SUBS.:E05TSI                               WED 07/30/97 02:27 Page:111
      617    14637        /*****************************************************************
      618    14638        *                                                                *
      619    14639        *                           Auto                                 *
      620    14640        *                                                                *
      621    14641        *****************************************************************/
      622    14642
      623    14643    1   DCL L2$ PTR;
      624    14644    1   DCL L3$ PTR;
      625    14645        %KH$ADMIN_FPT ( FPTN = ADMIN_FPT, STCLASS = );
      626    14856
      627    14857    1   DCL T$ CPTR;
      628    14858    1   DCL SIZ UBIN;
      629    14859    1   DCL PRM_DUMMY UBIN;
      630    14860        %KL_VIRCIR (NAME=VICPRF , STCLASS=AUTO) ;
      631    15069        %EJECT;
PL6.E3A0      #004=KXS$GETL3 File=KXS$SUBS.:E05TSI                               WED 07/30/97 02:27 Page:112
      632    15070        /*****************************************************************
      633    15071        *                                                                *
      634    15072        *                           Based                                *
      635    15073        *                                                                *
      636    15074        *****************************************************************/
      637    15075
      638    15076        %KL_BLKHDR ( NAME = BLKHDR, STCLASS = "BASED ( T$ )" );
      639    15171        %KL_LNKVC ( NAME = LNKVC, STCLASS = "BASED ( T$ )" );
      640    15395        %KL_VIRCIR ( NAME = VCPRF, STCLASS = "BASED ( T$ )" );
      641    15604
      642    15605        %KX$L1 ( STCLASS = "BASED ( L2$ )" );
      643    15645        %KX$L2 ( STCLASS = "BASED ( L2$ )" );
      644    16012        %KX$L3 ( STCLASS = "BASED ( L3$ )" );
      645    16415        %KX$L3 ( FPTN = KX$TL3, STCLASS = BASED );
      646    16818        %EJECT;
PL6.E3A0      #004=KXS$GETL3 File=KXS$SUBS.:E05TSI                               WED 07/30/97 02:27 Page:113
      647    16819        /*****************************************************************
      648    16820        *                                                                *
      649    16821        *                           Constant                             *
      650    16822        *                                                                *
      651    16823        *****************************************************************/
      652    16824
      653    16825        %KX$L3 ( FPTN = KX_L3, STCLASS = CONSTANT );
      654    17228    1   DCL KX_WNDMLT SBIN SYMREF;
      655    17229
      656    17230        %EJECT;
PL6.E3A0      #004=KXS$GETL3 File=KXS$SUBS.:E05TSI                               WED 07/30/97 02:27 Page:114
      657    17231        /*****************************************************************
      658    17232        *                                                                *
      659    17233        *                           Static                               *
      660    17234        *                                                                *
      661    17235        *****************************************************************/
      662    17236
      663    17237        %KX_DATA;
      664    17927        %EJECT;
PL6.E3A0      #004=KXS$GETL3 File=KXS$SUBS.:E05TSI                               WED 07/30/97 02:27 Page:115
      665    17928        /*****************************************************************
      666    17929        *                                                                *
      667    17930        *                           Procedure                            *
      668    17931        *                                                                *
      669    17932        *****************************************************************/
      670    17933
      671    17934        /*
      672    17935                                             Non-SUPER-defined VCs won't have
      673    17936                                             an ADMIN_FPT.  If there is one,
      674    17937                                             it must be for a VC.
      675    17938        */
      676    17939    1       IF ADDR( ADMIN_FPT ) ~= ADDR(NIL)
      677    17940    1          THEN
      678    17941    2             DO;
      679    17942    2                T$ = ADMIN_FPT.CTX$;
      680    17943    2             END;
      681    17944    1          ELSE
      682    17945    2             DO;
      683    17946    2                T$ = ADDR(NIL);
      684    17947    2                VICPRF = KX$L2.DFLVCPRF;
      685    17948    2                IF KX_AVL_IOMEM < KX_BUF.SIZ(KX$L2.BUF_SIZE) OR
      686    17949    2                   KX_AVL_MEM < 1200
      687    17950    2                   THEN
      688    17951    2   L_NOMEM:           ALTRETURN;
      689    17952    2             END;
      690    17953        /*
      691    17954                                             Get memory for the context, and
      692    17955                                             initialize it from the default
      693    17956                                             context block.
      694    17957        */
      695    17958    1       SIZ = SIZEW(KX$L3);
      696    17959    1       CALL KVB$GETSYS ( SIZ, L3$ ) ALTRET ( L_NOMEM );
      697    17960    1       KX$L3 = KX_L3;
      698    17961    1       KX$L3.L2$ = L2$;
      699    17962    1       KX$L3.TMRBLK.CTX$ = L3$;
      700    17963    1       KX$L3.DATTMRBLK.CTX$ = L3$;
      701    17964    1       KX$L3.INTTMRBLK.CTX$ = L3$;
PL6.E3A0      #004=KXS$GETL3 File=KXS$SUBS.:E05TSI                               WED 07/30/97 02:27 Page:116
      702    17965        /*
      703    17966                                             Now fill in the context with
      704    17967                                             parameters for either this link
      705    17968                                             (no ADMIN_FPT), or for this VC.
      706    17969        */
      707    17970    1       IF T$ ~= ADDR(NIL)
      708    17971    1          THEN
      709    17972    2             DO;
      710    17973    2                KX$L3.CUGLNG = LNKVC.CUG.LNG#;
      711    17974    2                KX$L3.CUG = LNKVC.CUG_REDEF.BCDS;
      712    17975    2                KX$L3.DFL_OPTS.RCVADR = LNKVC.ADR;
      713    17976    2                KX$L3.NOD = LNKVC.NODE#;
      714    17977    2                KX$L3.QOS = LNKVC.QOS#;
      715    17978    2                IF LNKVC.PERMANENT
      716    17979    2                   THEN
      717    17980    3                      DO;
      718    17981    3                         KX$L3.PVC = LNKVC.PERMANENT;
      719    17982    3                         KX$L3.LCN# = LNKVC.VIRCIR#;
      720    17983    3                      END;
      721    17984    2                T$ = PINCRC ( T$, BLKHDR.PROOFFSET + 16 );
      722    17985    2                VICPRF = VCPRF;
      723    17986    2             END;
      724    17987
      725    17988    1       KX$L3.RSPTMR = VICPRF.RSPTMR#;
      726    17989    1       KX$L3.DFL_OPTS.RCVPCKSIZ = MINIMUM(KX$L2.BUF_SIZE,VICPRF.RCVSIZ#);
      727    17990    1       KX$L3.DFL_OPTS.RCVTHR = VICPRF.RCVTHR#;
      728    17991    1       KX$L3.DFL_OPTS.RCVWND = MINIMUM(KX$L2.MAXWND,VICPRF.RCVWND#);
      729    17992    1       IF KX$L3.DFL_OPTS.RCVWND >= VICPRF.RSPDLY#
      730    17993    1          THEN
      731    17994    1             KX$L3.RSPDLY = VICPRF.RSPDLY#;
      732    17995    1          ELSE
      733    17996    1             KX$L3.RSPDLY = KX$L3.DFL_OPTS.RCVWND;
      734    17997    1       KX$L3.DFL_OPTS.SNDTHR = VICPRF.SNDTHR#;
      735    17998    1       KX$L3.DFL_OPTS.SNDWND = MINIMUM(KX$L2.MAXWND,VICPRF.SNDWND#);
      736    17999    1       KX$L3.RSPTOCMP = VICPRF.RSPTOCMP#;
      737    18000    1       KX$L3.DFL_OPTS.SNDPCKSIZ = MINIMUM(KX$L2.BUF_SIZE,VICPRF.SNDSIZ#);
      738    18001    1       IF VICPRF.RVR# = %KLX25_RVR_NO#
PL6.E3A0      #004=KXS$GETL3 File=KXS$SUBS.:E05TSI                               WED 07/30/97 02:27 Page:117
      739    18002    1          THEN
      740    18003    1             KX$L3.RVS = '0'B;
      741    18004    1          ELSE
      742    18005    1             KX$L3.RVS = '1'B;
      743    18006    1       KX$L3.TRNDLY = VICPRF.TRADEL#;
      744    18007    1       KX$L3.CALDLY = VICPRF.CDLY#;
      745    18008    1       KX$L3.T21 = VICPRF.CTMT#;
      746    18009    1       KX$L3.R21 = VICPRF.CRTR#;
      747    18010    1       KX$L3.T22 = VICPRF.RESTIM#;
      748    18011    1       KX$L3.R22 = VICPRF.RESRET#;
      749    18012    1       KX$L3.T23 = VICPRF.CLRTIM#;
      750    18013    1       KX$L3.R23 = VICPRF.CLRRET#;
      751    18014    1       KX$L3.T25 = VICPRF.DATTIM#;
      752    18015    1       KX$L3.R25 = VICPRF.DATRET#;
      753    18016    1       KX$L3.T26 = VICPRF.INTTIM#;
      754    18017    1       KX$L3.EXTSEQ = VICPRF.EXTSEQ#;
      755    18018    1       KX$L3.CHRINF = VICPRF.CHARGE#;
      756    18019    1       KX$L3.IDLPRD = VICPRF.IDLTIM#;
      757    18020    1       KX$L3.IDLCLK = KX$L3.IDLPRD;
      758    18021    1       KX$L3.LCLADR = KX$L2.NTWADR;
      759    18022    1       KX$L3.CALL_OPTS = KX$L3.DFL_OPTS;
      760    18023    1       KX$L3.CM_OPTS = KX$L3.DFL_OPTS;
      761    18024        /*
      762    18025                                             Chain this context to the rest.
      763    18026        */
      764    18027    1       IF KX$L2.L3_HEAD$ = ADDR(NIL)
      765    18028    1          THEN
      766    18029    1             KX$L2.L3_HEAD$ = L3$;
      767    18030    1          ELSE
      768    18031    1             KX$L2.L3_TAIL$ -> KX$TL3.NEXT$ = L3$;
      769    18032    1       KX$L2.L3_TAIL$ = L3$;
      770    18033
      771    18034        /*
      772    18035           Update available MEM and IOMEM
      773    18036        */
      774    18037    1       KX_AVL_IOMEM = KX_AVL_IOMEM - KX_BUF.SIZ(KX$L2.BUF_SIZE);
      775    18038    1       KX_AVL_MEM = KX_AVL_MEM - 1200;
PL6.E3A0      #004=KXS$GETL3 File=KXS$SUBS.:E05TSI                               WED 07/30/97 02:27 Page:118
      776    18039    1       RETURN;
      777    18040
      778    18041    1   END KXS$GETL3;
      779    18042        %EOD;

PL6.E3A0      #004=KXS$GETL3 File=KXS$SUBS.:E05TSI                               WED 07/30/97 02:27 Page:119
--  Include file information  --

   KNH_MACRO_C.:E05TOU  is referenced.
   K_ADDRESS_M.:E05TOU  is referenced.
   KV_GLBCNS_E.:E05TOU  is referenced.
   KX_MACROS_M.:E05TOU  is referenced.
   KX_DATA_C.:E05TOU  is referenced.
   KX_SCODE_C.:E05TOU  is referenced.
   KX_PERR_C.:E05TOU  is referenced.
   KX_EQUS_E.:E05TOU  is referenced.
   KL_SUPER_C.:E05TOU  is referenced.
   KH_MACRO_C.:E05TOU  is referenced.
   CP_6_SUBS.:E05TOU  is referenced.
   G_LCP6_E.:E05TOU  is referenced.
   GT_LCP6_M.:E05TOU  is referenced.
   KI_CP6.:E05TOU  is referenced.
   GF_LCP6_M.:E05TOU  is referenced.
   GM_LCP6_M.:E05TOU  is referenced.
   GU_LCP6_M.:E05TOU  is referenced.
   GJ_LCP6_M.:E05TOU  is referenced.
   GH_LCP6_M.:E05TOU  is referenced.
   LCP_6.:E05TOU  cannot be made into a system file and is referenced.
   KL_AFCN_C.:E05TOU  is referenced.
   KL_MACRO_C.:E05TOU  is referenced.
   K_ID_E.:E05TOU  is referenced.
      No diagnostics issued in procedure KXS$GETL3.

   Procedure KXS$GETL3 requires 500 words for executable code.
   Procedure KXS$GETL3 requires 28 words of local(AUTO) storage.

PL6.E3A0      #004=KXS$GETL3 File=KXS$SUBS.:E05TSI                               WED 07/30/97 02:27 Page:120

 Object Unit name= KXS$GETL3                                  File name= KXS$SUBS.:E05TOU
 UTS= JUL 30 '97 02:27:30.24 WED                              Compiler= PL-6/E31         Sev=      00
 SharedLib= :SHARED_LCP6_SYSTEM                               Alt SharedLib=


    ****  Control sections  ****

 Sect   Type Bound  Init  Size HexSiz  Section name
    0  RoData even  UTS    145     91  KXS$GETL3
    1   Proc  even  none   500    1F4  KXS$GETL3

    ****  Entry defs  ****

                              Check   Calling
                             calling  sequence
  Sect HexLoc Primary Altret sequence   type   Parms  Name
     1      0   yes    yes     yes      Std        3  KXS$GETL3

  ****  Entry refs  ****

         Check        Calling
        calling       sequence
Altret sequence SRef   type   Args  Name
 yes     yes           Std       1 KXP$PACKET
 yes     yes           Std       2 KVB$GETSYS
                       nStd      0 X6A_AUTO_3
                       nStd      0 X6A_AALT
                       nStd      0 X6A_ARET

  ****  Data refs  ****

  Flags:  r = read only, s = secondary
Flgs Name                             Flgs Name                             Flgs Name
     KX_BUF                                KX_AVL_MEM                            KX_AVL_IOMEM
     KX_PM$                           r    G$ROS$
PL6.E3A0      #004=KXS$GETL3 File=KXS$SUBS.:E05TSI                               WED 07/30/97 02:27 Page:121


      561        1        /*T***********************************************************/
      562        2        /*T*                                                         */
      563        3        /*T* Copyright (c) Bull HN Information Systems Inc., 1997    */
      564        4        /*T*                                                         */
      565        5        /*T***********************************************************/
      566        6        /*F* NAME: KXS$GETL3                 */
      567        7        /*F* PURPOSE: Allocate a KX$L3 context block  */
      568        8
      569        9        /*D* NAME: KXS$GETL3                 */
      570       10        /*D* PURPOSE: Allocate a KX$L3 context block,
      571       11                      including parsing the SUPER supplied
      572       12                      information.           */
      573       13        /*D* CALL: CALL KXS$GETL3 ( L2$, L3$, KH$ADMIN_FPT ) ALTRET ( label );  */
      574       14        /*D* INPUT: L2$ - pointer to the level 2 context for this level 3
      575       15                    KH$ADMIN_FPT - optional handler common fpt  */
      576       16        /*D* OUTPUT: L3$ - pointer to new context  */
      577       17
      578       18        KXS$GETL3: PROC ( L2$, L3$, ADMIN_FPT ) ALTRET;

     18   1 000000  D380 0000 0000  xent KXS$GETL3       LNJ,B5   X6A_AUTO_3
          1 000003       001C 0003                       DC       28,3

      579       19
      580       20        /*****************************************************************
      581       21        *                                                                *
      582       22        *                           Includes                             *
      583       23        *                                                                *
      584       24        *****************************************************************/
      585       25
      586       26        %INCLUDE K_ID_E;
      587       76        %K#ENTID_E;
      588       95        %K#LYRID_E;
      589      102        %INCLUDE KL_MACRO_C;
      590     3454        %INCLUDE KL_AFCN_C;
      591     3555        %INCLUDE LCP_6;
      592     7834        %INCLUDE CP_6_SUBS;
PL6.E3A0      #004=KXS$GETL3 File=KXS$SUBS.:E05TSI                               WED 07/30/97 02:27 Page:122
      593     8374        %INCLUDE KH_MACRO_C;
      594     9117        %INCLUDE KL_SUPER_C;
      595    12019        %INCLUDE KX_EQUS_E;
      596    12458        %INCLUDE KX_PERR_C;
      597    12587        %INCLUDE KX_SCODE_C;
      598    12653        %INCLUDE KX_DATA_C;
      599    12721        %INCLUDE KX_MACROS_M;
      600    13492        %INCLUDE KV_GLBCNS_E;
      601    13833        %INCLUDE K_ADDRESS_M;
      602    14336        %INCLUDE KNH_MACRO_C;
      603    14619        %KV#CQ_HNDID_E;
      604    14624        %EJECT;
PL6.E3A0      #004=KXS$GETL3 File=KXS$SUBS.:E05TSI                               WED 07/30/97 02:27 Page:123
      605    14625        /*****************************************************************
      606    14626        *                                                                *
      607    14627        *                           External References                  *
      608    14628        *                                                                *
      609    14629        *****************************************************************/
      610    14630
      611    14631    1   DCL KVB$GETSYS ENTRY (2) ALTRET;
      612    14632    1   DCL KXX$X29 ENTRY (1);
      613    14633    1   DCL KXP$PACKET ENTRY (1) ALTRET;
      614    14634    1   DCL KHD$SCREECH ENTRY (1);
      615    14635    1   DCL KHA$ERRLOG ENTRY (2) ALTRET;
      616    14636        %EJECT;
PL6.E3A0      #004=KXS$GETL3 File=KXS$SUBS.:E05TSI                               WED 07/30/97 02:27 Page:124
      617    14637        /*****************************************************************
      618    14638        *                                                                *
      619    14639        *                           Auto                                 *
      620    14640        *                                                                *
      621    14641        *****************************************************************/
      622    14642
      623    14643    1   DCL L2$ PTR;
      624    14644    1   DCL L3$ PTR;
      625    14645        %KH$ADMIN_FPT ( FPTN = ADMIN_FPT, STCLASS = );
      626    14856
      627    14857    1   DCL T$ CPTR;
      628    14858    1   DCL SIZ UBIN;
      629    14859    1   DCL PRM_DUMMY UBIN;
      630    14860        %KL_VIRCIR (NAME=VICPRF , STCLASS=AUTO) ;
      631    15069        %EJECT;
PL6.E3A0      #004=KXS$GETL3 File=KXS$SUBS.:E05TSI                               WED 07/30/97 02:27 Page:125
      632    15070        /*****************************************************************
      633    15071        *                                                                *
      634    15072        *                           Based                                *
      635    15073        *                                                                *
      636    15074        *****************************************************************/
      637    15075
      638    15076        %KL_BLKHDR ( NAME = BLKHDR, STCLASS = "BASED ( T$ )" );
      639    15171        %KL_LNKVC ( NAME = LNKVC, STCLASS = "BASED ( T$ )" );
      640    15395        %KL_VIRCIR ( NAME = VCPRF, STCLASS = "BASED ( T$ )" );
      641    15604
      642    15605        %KX$L1 ( STCLASS = "BASED ( L2$ )" );
      643    15645        %KX$L2 ( STCLASS = "BASED ( L2$ )" );
      644    16012        %KX$L3 ( STCLASS = "BASED ( L3$ )" );
      645    16415        %KX$L3 ( FPTN = KX$TL3, STCLASS = BASED );
      646    16818        %EJECT;
PL6.E3A0      #004=KXS$GETL3 File=KXS$SUBS.:E05TSI                               WED 07/30/97 02:27 Page:126
      647    16819        /*****************************************************************
      648    16820        *                                                                *
      649    16821        *                           Constant                             *
      650    16822        *                                                                *
      651    16823        *****************************************************************/
      652    16824
      653    16825        %KX$L3 ( FPTN = KX_L3, STCLASS = CONSTANT );
      654    17228    1   DCL KX_WNDMLT SBIN SYMREF;
      655    17229
      656    17230        %EJECT;
PL6.E3A0      #004=KXS$GETL3 File=KXS$SUBS.:E05TSI                               WED 07/30/97 02:27 Page:127
      657    17231        /*****************************************************************
      658    17232        *                                                                *
      659    17233        *                           Static                               *
      660    17234        *                                                                *
      661    17235        *****************************************************************/
      662    17236
      663    17237        %KX_DATA;
      664    17927        %EJECT;
PL6.E3A0      #004=KXS$GETL3 File=KXS$SUBS.:E05TSI                               WED 07/30/97 02:27 Page:128
      665    17928        /*****************************************************************
      666    17929        *                                                                *
      667    17930        *                           Procedure                            *
      668    17931        *                                                                *
      669    17932        *****************************************************************/
      670    17933
      671    17934        /*
      672    17935                                             Non-SUPER-defined VCs won't have
      673    17936                                             an ADMIN_FPT.  If there is one,
      674    17937                                             it must be for a VC.
      675    17938        */
      676    17939    1       IF ADDR( ADMIN_FPT ) ~= ADDR(NIL)

  17939   1 000005  ECC7 0008                            LDB,B6   @ADMIN_FPT,AUTO
          1 000007  8DD6                                 CMN      B6
          1 000008  0901 0007                            BE       s:17946,PREL

      677    17940    1          THEN
      678    17941    2             DO;

      679    17942    2                T$ = ADMIN_FPT.CTX$;

  17942   1 00000A  DCC6 0009                            LDB,B5   9,B6
          1 00000C  DFC7 000A                            STB,B5   T$,AUTO

      680    17943    2             END;

  17943   1 00000E  0F81 002B                            B        s:17958,PREL

      681    17944    1          ELSE
      682    17945    2             DO;

      683    17946    2                T$ = ADDR(NIL);

  17946   1 000010  DB80 0000 0000                       LAB,B5   0
          1 000013  DFC7 000A                            STB,B5   T$,AUTO

PL6.E3A0      #004=KXS$GETL3 File=KXS$SUBS.:E05TSI                               WED 07/30/97 02:27 Page:129
      684    17947    2                VICPRF = KX$L2.DFLVCPRF;

  17947   1 000015  CCC7 0004                            LDB,B4   @L2$,AUTO
          1 000017  BC84                                 LDB,B3   ,B4
          1 000018  ABC3 0058                            LAB,B2   88,B3
          1 00001A  2C00                                 LDV,R2   0
          1 00001B  6C14                                 LDV,R6   20
          1 00001C  BB87                                 LAB,B3   ,AUTO
          1 00001D  3C1C                                 LDV,R3   28
          1 00001E  0008                                 MMM

      685    17948    2                IF KX_AVL_IOMEM < KX_BUF.SIZ(KX$L2.BUF_SIZE) OR

  17948   1 00001F  DC84                                 LDB,B5   ,B4
          1 000020  B2C5 0004                            LLH,R3   4,B5
          1 000022  F830 0000 001E  xsym                 LDR,R7   KX_BUF+30,R3
          1 000025  6C00                                 LDV,R6   0
          1 000026  8480 0000 0000  xsym                 SID      KX_AVL_IOMEM
          1 000029  6A01 000D                            BGZ,R6   s:17951,PREL
          1 00002B  6801 0003                            BLZ,R6   s:17948+16,PREL
          1 00002D  7981 0009                            BNEZ,R7  s:17951,PREL
          1 00002F  8C80 0000 0000  xsym                 LDI      KX_AVL_MEM
          1 000032  84F0 0000 04B0                       SID      1200,IMO
          1 000035  6881 0004                            BGEZ,R6  s:17958,PREL

      686    17949    2                   KX_AVL_MEM < 1200
      687    17950    2                   THEN
      688    17951    2   L_NOMEM:           ALTRETURN;

  17951   1 000037  C380 0000 0000  xent L_NOMEM         LNJ,B4   X6A_AALT

      689    17952    2             END;
      690    17953        /*
      691    17954                                             Get memory for the context, and
      692    17955                                             initialize it from the default
      693    17956                                             context block.
      694    17957        */
PL6.E3A0      #004=KXS$GETL3 File=KXS$SUBS.:E05TSI                               WED 07/30/97 02:27 Page:130
      695    17958    1       SIZ = SIZEW(KX$L3);

  17958   1 00003A  E870 0091                            LDR,R6   145,IMO
          1 00003C  EF47 000C                            STR,R6   SIZ,AUTO

      696    17959    1       CALL KVB$GETSYS ( SIZ, L3$ ) ALTRET ( L_NOMEM );

  17959   1 00003E  DCC7 0006                            LDB,B5   @L3$,AUTO
          1 000040  DFC7 001A                            STB,B5   VICPRF+12,AUTO
          1 000042  CBC7 000C                            LAB,B4   SIZ,AUTO
          1 000044  CFC7 0018                            STB,B4   VICPRF+10,AUTO
          1 000046  BBC7 0018                            LAB,B3   VICPRF+10,AUTO
          1 000048  CBF0 0200                            LAB,B4   512,IMO
          1 00004A  E380 0000 0000  xent                 LNJ,B6   KVB$GETSYS
          1 00004D       FFEA                            DC       s:17951,PREL

      697    17960    1       KX$L3 = KX_L3;

  17960   1 00004E  ECC7 0006                            LDB,B6   @L3$,AUTO
          1 000050  DC86                                 LDB,B5   ,B6
          1 000051  AB80 0000 0000  00                   LAB,B2   KX_L3
          1 000054  2C00                                 LDV,R2   0
          1 000055  E870 0122                            LDR,R6   290,IMO
          1 000057  BB85                                 LAB,B3   ,B5
          1 000058  3C00                                 LDV,R3   0
          1 000059  0008                                 MMM

      698    17961    1       KX$L3.L2$ = L2$;

  17961   1 00005A  CC86                                 LDB,B4   ,B6
          1 00005B  ACC7 0004                            LDB,B2   @L2$,AUTO
          1 00005D  9C82                                 LDB,B1   ,B2
          1 00005E  9FC4 0002                            STB,B1   2,B4

      699    17962    1       KX$L3.TMRBLK.CTX$ = L3$;

  17962   1 000060  CC86                                 LDB,B4   ,B6
PL6.E3A0      #004=KXS$GETL3 File=KXS$SUBS.:E05TSI                               WED 07/30/97 02:27 Page:131
          1 000061  CFC4 0051                            STB,B4   81,B4

      700    17963    1       KX$L3.DATTMRBLK.CTX$ = L3$;

  17963   1 000063  CC86                                 LDB,B4   ,B6
          1 000064  CFC4 005B                            STB,B4   91,B4

      701    17964    1       KX$L3.INTTMRBLK.CTX$ = L3$;

  17964   1 000066  CC86                                 LDB,B4   ,B6
          1 000067  CFC4 0065                            STB,B4   101,B4

      702    17965        /*
      703    17966                                             Now fill in the context with
      704    17967                                             parameters for either this link
      705    17968                                             (no ADMIN_FPT), or for this VC.
      706    17969        */
      707    17970    1       IF T$ ~= ADDR(NIL)

  17970   1 000069  8DC7 000A                            CMN      T$,AUTO
          1 00006B  0901 0058                            BE       s:17988,PREL

      708    17971    1          THEN
      709    17972    2             DO;

      710    17973    2                KX$L3.CUGLNG = LNKVC.CUG.LNG#;

  17973   1 00006D  CC86                                 LDB,B4   ,B6
          1 00006E  9CC7 000A                            LDB,B1   T$,AUTO
          1 000070  E841 0004                            LDR,R6   4,B1
          1 000072  604C                                 SOR,R6   12
          1 000073  EAC4 0029                            SRM,R6,'000C'X    41,B4
          1 000075       000C

      711    17974    2                KX$L3.CUG = LNKVC.CUG_REDEF.BCDS;

  17974   1 000076  CC86                                 LDB,B4   ,B6
PL6.E3A0      #004=KXS$GETL3 File=KXS$SUBS.:E05TSI                               WED 07/30/97 02:27 Page:132
          1 000077  AB81                                 LAB,B2   ,B1
          1 000078  2C09                                 LDV,R2   9
          1 000079  6C02                                 LDV,R6   2
          1 00007A  BB84                                 LAB,B3   ,B4
          1 00007B  3C56                                 LDV,R3   86
          1 00007C  0008                                 MMM

      712    17975    2                KX$L3.DFL_OPTS.RCVADR = LNKVC.ADR;

  17975   1 00007D  DC86                                 LDB,B5   ,B6
          1 00007E  ACC7 000A                            LDB,B2   T$,AUTO
          1 000080  2C0B                                 LDV,R2   11
          1 000081  6C08                                 LDV,R6   8
          1 000082  BB85                                 LAB,B3   ,B5
          1 000083  3C4A                                 LDV,R3   74
          1 000084  0008                                 MMM

      713    17976    2                KX$L3.NOD = LNKVC.NODE#;

  17976   1 000085  AC86                                 LDB,B2   ,B6
          1 000086  ECC7 000A                            LDB,B6   T$,AUTO
          1 000088  E846 0014                            LDR,R6   20,B6
          1 00008A  E570 00FF                            AND,R6   255,IMO
          1 00008C  E7C2 0012                            STH,R6   18,B2

      714    17977    2                KX$L3.QOS = LNKVC.QOS#;

  17977   1 00008E  ACC7 0006                            LDB,B2   @L3$,AUTO
          1 000090  EC82                                 LDB,B6   ,B2
          1 000091  DCC7 000A                            LDB,B5   T$,AUTO
          1 000093  E2C5 0016                            LLH,R6   22,B5
          1 000095  EAC6 0012                            SRM,R6,'00FF'X    18,B6
          1 000097       00FF

      715    17978    2                IF LNKVC.PERMANENT

  17978   1 000098  82C5 0016                            LB,'0080'X        22,B5
PL6.E3A0      #004=KXS$GETL3 File=KXS$SUBS.:E05TSI                               WED 07/30/97 02:27 Page:133
  17978   1 00009A       0080
          1 00009B  0581 000E                            BBF      s:17984,PREL

      716    17979    2                   THEN
      717    17980    3                      DO;

      718    17981    3                         KX$L3.PVC = LNKVC.PERMANENT;

  17981   1 00009D  EC82                                 LDB,B6   ,B2
          1 00009E  E845 0016                            LDR,R6   22,B5
          1 0000A0  6001                                 SOL,R6   1
          1 0000A1  EAC6 0029                            SRM,R6,'0100'X    41,B6
          1 0000A3       0100

      719    17982    3                         KX$L3.LCN# = LNKVC.VIRCIR#;

  17982   1 0000A4  EC82                                 LDB,B6   ,B2
          1 0000A5  E845 0015                            LDR,R6   21,B5
          1 0000A7  EAC6 002A                            SRM,R6,'0FFF'X    42,B6
          1 0000A9       0FFF

      720    17983    3                      END;

      721    17984    2                T$ = PINCRC ( T$, BLKHDR.PROOFFSET + 16 );

  17984   1 0000AA  B845 0002                            LDR,R3   2,B5
          1 0000AC  B570 00FF                            AND,R3   255,IMO
          1 0000AE  8CC7 000A                            LDI      T$,AUTO
          1 0000B0  7031                                 DCL,R7   1
          1 0000B1  8D47 0018                            SDI      VICPRF+10,AUTO
          1 0000B3  F853                                 LDR,R7   R3
          1 0000B4  6C00                                 LDV,R6   0
          1 0000B5  8447 0018                            AID      VICPRF+10,AUTO
          1 0000B7  7071                                 DCR,R7   1
          1 0000B8  8470 0000 0008                       AID      8,IMO
          1 0000BB  8D47 000A                            SDI      T$,AUTO

PL6.E3A0      #004=KXS$GETL3 File=KXS$SUBS.:E05TSI                               WED 07/30/97 02:27 Page:134
      722    17985    2                VICPRF = VCPRF;

  17985   1 0000BD  ACC7 000A                            LDB,B2   T$,AUTO
          1 0000BF  2C00                                 LDV,R2   0
          1 0000C0  6C14                                 LDV,R6   20
          1 0000C1  BB87                                 LAB,B3   ,AUTO
          1 0000C2  3C1C                                 LDV,R3   28
          1 0000C3  0008                                 MMM

      723    17986    2             END;

      724    17987
      725    17988    1       KX$L3.RSPTMR = VICPRF.RSPTMR#;

  17988   1 0000C4  ECC7 0006                            LDB,B6   @L3$,AUTO
          1 0000C6  DC86                                 LDB,B5   ,B6
          1 0000C7  E847 0014                            LDR,R6   VICPRF+6,AUTO
          1 0000C9  E570 00FF                            AND,R6   255,IMO
          1 0000CB  EF45 0073                            STR,R6   115,B5

      726    17989    1       KX$L3.DFL_OPTS.RCVPCKSIZ = MINIMUM(KX$L2.BUF_SIZE,VICPRF.RCVSIZ#);

  17989   1 0000CD  DC86                                 LDB,B5   ,B6
          1 0000CE  CCC7 0004                            LDB,B4   @L2$,AUTO
          1 0000D0  BC84                                 LDB,B3   ,B4
          1 0000D1  D847 0015                            LDR,R5   VICPRF+7,AUTO
          1 0000D3  504C                                 SOR,R5   12
          1 0000D4  C2C3 0004                            LLH,R4   4,B3
          1 0000D6  C955                                 CMR,R4   R5
          1 0000D7  0281 0002                            BGE      s:17989+13,PREL
          1 0000D9  D854                                 LDR,R5   R4
          1 0000DA  D7C5 0022                            STH,R5   34,B5

      727    17990    1       KX$L3.DFL_OPTS.RCVTHR = VICPRF.RCVTHR#;

  17990   1 0000DC  DC86                                 LDB,B5   ,B6
          1 0000DD  D847 0015                            LDR,R5   VICPRF+7,AUTO
PL6.E3A0      #004=KXS$GETL3 File=KXS$SUBS.:E05TSI                               WED 07/30/97 02:27 Page:135
          1 0000DF  D570 0F00                            AND,R5   3840,IMO
          1 0000E1  5048                                 SOR,R5   8
          1 0000E2  DAC5 0022                            SRM,R5,'00FF'X    34,B5
          1 0000E4       00FF

      728    17991    1       KX$L3.DFL_OPTS.RCVWND = MINIMUM(KX$L2.MAXWND,VICPRF.RCVWND#);

  17991   1 0000E5  DC86                                 LDB,B5   ,B6
          1 0000E6  BC84                                 LDB,B3   ,B4
          1 0000E7  D847 0015                            LDR,R5   VICPRF+7,AUTO
          1 0000E9  D570 007F                            AND,R5   127,IMO
          1 0000EB  C2C3 001A                            LLH,R4   26,B3
          1 0000ED  C955                                 CMR,R4   R5
          1 0000EE  0281 0002                            BGE      s:17991+12,PREL
          1 0000F0  D854                                 LDR,R5   R4
          1 0000F1  D7C5 0023                            STH,R5   35,B5

      729    17992    1       IF KX$L3.DFL_OPTS.RCVWND >= VICPRF.RSPDLY#

  17992   1 0000F3  DC86                                 LDB,B5   ,B6
          1 0000F4  D2C5 0023                            LLH,R5   35,B5
          1 0000F6  C847 0016                            LDR,R4   VICPRF+8,AUTO
          1 0000F8  4048                                 SOR,R4   8
          1 0000F9  C570 007F                            AND,R4   127,IMO
          1 0000FB  D954                                 CMR,R5   R4
          1 0000FC  0801 000B                            BAL      s:17996,PREL

      730    17993    1          THEN
      731    17994    1             KX$L3.RSPDLY = VICPRF.RSPDLY#;

  17994   1 0000FE  B847 0016                            LDR,R3   VICPRF+8,AUTO
          1 000100  B570 7F00                            AND,R3   32512,IMO
          1 000102  3048                                 SOR,R3   8
          1 000103  BAC5 0072                            SRM,R3,'00FF'X    114,B5
          1 000105       00FF
          1 000106  0F81 0004                            B        s:17997,PREL

PL6.E3A0      #004=KXS$GETL3 File=KXS$SUBS.:E05TSI                               WED 07/30/97 02:27 Page:136
      732    17995    1          ELSE
      733    17996    1             KX$L3.RSPDLY = KX$L3.DFL_OPTS.RCVWND;

  17996   1 000108  DAC5 0072                            SRM,R5,'00FF'X    114,B5
  17996   1 00010A       00FF

      734    17997    1       KX$L3.DFL_OPTS.SNDTHR = VICPRF.SNDTHR#;

  17997   1 00010B  DC86                                 LDB,B5   ,B6
          1 00010C  D847 0016                            LDR,R5   VICPRF+8,AUTO
          1 00010E  5044                                 SOR,R5   4
          1 00010F  D570 000F                            AND,R5   15,IMO
          1 000111  D7C5 0024                            STH,R5   36,B5

      735    17998    1       KX$L3.DFL_OPTS.SNDWND = MINIMUM(KX$L2.MAXWND,VICPRF.SNDWND#);

  17998   1 000113  DC86                                 LDB,B5   ,B6
          1 000114  BC84                                 LDB,B3   ,B4
          1 000115  B847 0017                            LDR,R3   VICPRF+9,AUTO
          1 000117  3048                                 SOR,R3   8
          1 000118  B570 007F                            AND,R3   127,IMO
          1 00011A  A2C3 001A                            LLH,R2   26,B3
          1 00011C  A953                                 CMR,R2   R3
          1 00011D  0281 0002                            BGE      s:17998+13,PREL
          1 00011F  B852                                 LDR,R3   R2
          1 000120  BAC5 0024                            SRM,R3,'00FF'X    36,B5
          1 000122       00FF

      736    17999    1       KX$L3.RSPTOCMP = VICPRF.RSPTOCMP#;

  17999   1 000123  DC86                                 LDB,B5   ,B6
          1 000124  B847 0015                            LDR,R3   VICPRF+7,AUTO
          1 000126  3046                                 SOR,R3   6
          1 000127  BAC5 0029                            SRM,R3,'0002'X    41,B5
          1 000129       0002

      737    18000    1       KX$L3.DFL_OPTS.SNDPCKSIZ = MINIMUM(KX$L2.BUF_SIZE,VICPRF.SNDSIZ#);
PL6.E3A0      #004=KXS$GETL3 File=KXS$SUBS.:E05TSI                               WED 07/30/97 02:27 Page:137

  18000   1 00012A  DC86                                 LDB,B5   ,B6
          1 00012B  BC84                                 LDB,B3   ,B4
          1 00012C  B847 0016                            LDR,R3   VICPRF+8,AUTO
          1 00012E  B570 000F                            AND,R3   15,IMO
          1 000130  A2C3 0004                            LLH,R2   4,B3
          1 000132  A953                                 CMR,R2   R3
          1 000133  0281 0002                            BGE      s:18000+12,PREL
          1 000135  B852                                 LDR,R3   R2
          1 000136  BAC5 0023                            SRM,R3,'00FF'X    35,B5
          1 000138       00FF

      738    18001    1       IF VICPRF.RVR# = %KLX25_RVR_NO#

  18001   1 000139  B847 0017                            LDR,R3   VICPRF+9,AUTO
          1 00013B  3046                                 SOR,R3   6
          1 00013C  B570 0003                            AND,R3   3,IMO
          1 00013E  3D02                                 CMV,R3   2
          1 00013F  0981 0007                            BNE      s:18005,PREL

      739    18002    1          THEN
      740    18003    1             KX$L3.RVS = '0'B;

  18003   1 000141  DC86                                 LDB,B5   ,B6
          1 000142  8845 0029                            LBF,'0001'X       41,B5
          1 000144       0001
          1 000145  0F81 0005                            B        s:18006,PREL

      741    18004    1          ELSE
      742    18005    1             KX$L3.RVS = '1'B;

  18005   1 000147  DC86                                 LDB,B5   ,B6
          1 000148  8945 0029                            LBT,'0001'X       41,B5
          1 00014A       0001

      743    18006    1       KX$L3.TRNDLY = VICPRF.TRADEL#;

PL6.E3A0      #004=KXS$GETL3 File=KXS$SUBS.:E05TSI                               WED 07/30/97 02:27 Page:138
  18006   1 00014B  DC86                                 LDB,B5   ,B6
          1 00014C  A847 000E                            LDR,R2   VICPRF,AUTO
          1 00014E  AF45 002C                            STR,R2   44,B5

      744    18007    1       KX$L3.CALDLY = VICPRF.CDLY#;

  18007   1 000150  DC86                                 LDB,B5   ,B6
          1 000151  92C7 0013                            LLH,R1   VICPRF+5,AUTO
          1 000153  9F45 0074                            STR,R1   116,B5

      745    18008    1       KX$L3.T21 = VICPRF.CTMT#;

  18008   1 000155  DC86                                 LDB,B5   ,B6
          1 000156  E2C7 0014                            LLH,R6   VICPRF+6,AUTO
          1 000158  EF45 006B                            STR,R6   107,B5

      746    18009    1       KX$L3.R21 = VICPRF.CRTR#;

  18009   1 00015A  DC86                                 LDB,B5   ,B6
          1 00015B  E847 0013                            LDR,R6   VICPRF+5,AUTO
          1 00015D  E570 00FF                            AND,R6   255,IMO
          1 00015F  E7C5 0070                            STH,R6   112,B5

      747    18010    1       KX$L3.T22 = VICPRF.RESTIM#;

  18010   1 000161  DC86                                 LDB,B5   ,B6
          1 000162  E2C7 000F                            LLH,R6   VICPRF+1,AUTO
          1 000164  EF45 006C                            STR,R6   108,B5

      748    18011    1       KX$L3.R22 = VICPRF.RESRET#;

  18011   1 000166  DC86                                 LDB,B5   ,B6
          1 000167  E847 000F                            LDR,R6   VICPRF+1,AUTO
          1 000169  EAC5 0070                            SRM,R6,'00FF'X    112,B5
          1 00016B       00FF

      749    18012    1       KX$L3.T23 = VICPRF.CLRTIM#;
PL6.E3A0      #004=KXS$GETL3 File=KXS$SUBS.:E05TSI                               WED 07/30/97 02:27 Page:139

  18012   1 00016C  DC86                                 LDB,B5   ,B6
          1 00016D  E2C7 0010                            LLH,R6   VICPRF+2,AUTO
          1 00016F  EF45 006D                            STR,R6   109,B5

      750    18013    1       KX$L3.R23 = VICPRF.CLRRET#;

  18013   1 000171  DC86                                 LDB,B5   ,B6
          1 000172  E847 0010                            LDR,R6   VICPRF+2,AUTO
          1 000174  E570 00FF                            AND,R6   255,IMO
          1 000176  E7C5 0071                            STH,R6   113,B5

      751    18014    1       KX$L3.T25 = VICPRF.DATTIM#;

  18014   1 000178  DC86                                 LDB,B5   ,B6
          1 000179  E2C7 0011                            LLH,R6   VICPRF+3,AUTO
          1 00017B  EF45 006E                            STR,R6   110,B5

      752    18015    1       KX$L3.R25 = VICPRF.DATRET#;

  18015   1 00017D  DC86                                 LDB,B5   ,B6
          1 00017E  E847 0011                            LDR,R6   VICPRF+3,AUTO
          1 000180  EAC5 0071                            SRM,R6,'00FF'X    113,B5
          1 000182       00FF

      753    18016    1       KX$L3.T26 = VICPRF.INTTIM#;

  18016   1 000183  DC86                                 LDB,B5   ,B6
          1 000184  E2C7 0012                            LLH,R6   VICPRF+4,AUTO
          1 000186  EF45 006F                            STR,R6   111,B5

      754    18017    1       KX$L3.EXTSEQ = VICPRF.EXTSEQ#;

  18017   1 000188  DC86                                 LDB,B5   ,B6
          1 000189  E847 0016                            LDR,R6   VICPRF+8,AUTO
          1 00018B  604A                                 SOR,R6   10
          1 00018C  EAC5 0029                            SRM,R6,'0020'X    41,B5
PL6.E3A0      #004=KXS$GETL3 File=KXS$SUBS.:E05TSI                               WED 07/30/97 02:27 Page:140
          1 00018E       0020

      755    18018    1       KX$L3.CHRINF = VICPRF.CHARGE#;

  18018   1 00018F  DC86                                 LDB,B5   ,B6
          1 000190  E847 0017                            LDR,R6   VICPRF+9,AUTO
          1 000192  604B                                 SOR,R6   11
          1 000193  EAC5 0029                            SRM,R6,'0010'X    41,B5
          1 000195       0010

      756    18019    1       KX$L3.IDLPRD = VICPRF.IDLTIM#;

  18019   1 000196  DC86                                 LDB,B5   ,B6
          1 000197  E847 0012                            LDR,R6   VICPRF+4,AUTO
          1 000199  EAC5 0075                            SRM,R6,'00FF'X    117,B5
          1 00019B       00FF

      757    18020    1       KX$L3.IDLCLK = KX$L3.IDLPRD;

  18020   1 00019C  DC86                                 LDB,B5   ,B6
          1 00019D  E845 0075                            LDR,R6   117,B5
          1 00019F  E570 00FF                            AND,R6   255,IMO
          1 0001A1  E7C5 0076                            STH,R6   118,B5

      758    18021    1       KX$L3.LCLADR = KX$L2.NTWADR;

  18021   1 0001A3  DC86                                 LDB,B5   ,B6
          1 0001A4  BC84                                 LDB,B3   ,B4
          1 0001A5  AB83                                 LAB,B2   ,B3
          1 0001A6  2C73                                 LDV,R2   115
          1 0001A7  6C08                                 LDV,R6   8
          1 0001A8  BBC5 0077                            LAB,B3   119,B5
          1 0001AA  3C00                                 LDV,R3   0
          1 0001AB  0008                                 MMM

      759    18022    1       KX$L3.CALL_OPTS = KX$L3.DFL_OPTS;

PL6.E3A0      #004=KXS$GETL3 File=KXS$SUBS.:E05TSI                               WED 07/30/97 02:27 Page:141
  18022   1 0001AC  DC86                                 LDB,B5   ,B6
          1 0001AD  AB85                                 LAB,B2   ,B5
          1 0001AE  2C44                                 LDV,R2   68
          1 0001AF  6C0E                                 LDV,R6   14
          1 0001B0  BB85                                 LAB,B3   ,B5
          1 0001B1  3C28                                 LDV,R3   40
          1 0001B2  0008                                 MMM

      760    18023    1       KX$L3.CM_OPTS = KX$L3.DFL_OPTS;

  18023   1 0001B3  9C86                                 LDB,B1   ,B6
          1 0001B4  AB81                                 LAB,B2   ,B1
          1 0001B5  2C44                                 LDV,R2   68
          1 0001B6  6C0E                                 LDV,R6   14
          1 0001B7  BB81                                 LAB,B3   ,B1
          1 0001B8  3C36                                 LDV,R3   54
          1 0001B9  0008                                 MMM

      761    18024        /*
      762    18025                                             Chain this context to the rest.
      763    18026        */
      764    18027    1       IF KX$L2.L3_HEAD$ = ADDR(NIL)

  18027   1 0001BA  EC84                                 LDB,B6   ,B4
          1 0001BB  8DC6 0034                            CMN      52,B6
          1 0001BD  0981 0008                            BNE      s:18031,PREL

      765    18028    1          THEN
      766    18029    1             KX$L2.L3_HEAD$ = L3$;

  18029   1 0001BF  DCC7 0006                            LDB,B5   @L3$,AUTO
          1 0001C1  CC85                                 LDB,B4   ,B5
          1 0001C2  CFC6 0034                            STB,B4   52,B6
          1 0001C4  0F81 0007                            B        s:18032,PREL

      767    18030    1          ELSE
      768    18031    1             KX$L2.L3_TAIL$ -> KX$TL3.NEXT$ = L3$;
PL6.E3A0      #004=KXS$GETL3 File=KXS$SUBS.:E05TSI                               WED 07/30/97 02:27 Page:142

  18031   1 0001C6  DCC6 0036                            LDB,B5   54,B6
          1 0001C8  ECC7 0006                            LDB,B6   @L3$,AUTO
          1 0001CA  CC86                                 LDB,B4   ,B6
          1 0001CB  CF85                                 STB,B4   ,B5

      769    18032    1       KX$L2.L3_TAIL$ = L3$;

  18032   1 0001CC  ECC7 0004                            LDB,B6   @L2$,AUTO
          1 0001CE  DC86                                 LDB,B5   ,B6
          1 0001CF  CCC7 0006                            LDB,B4   @L3$,AUTO
          1 0001D1  EC84                                 LDB,B6   ,B4
          1 0001D2  EFC5 0036                            STB,B6   54,B5

      770    18033
      771    18034        /*
      772    18035           Update available MEM and IOMEM
      773    18036        */
      774    18037    1       KX_AVL_IOMEM = KX_AVL_IOMEM - KX_BUF.SIZ(KX$L2.BUF_SIZE);

  18037   1 0001D4  ECC7 0004                            LDB,B6   @L2$,AUTO
          1 0001D6  DC86                                 LDB,B5   ,B6
          1 0001D7  B2C5 0004                            LLH,R3   4,B5
          1 0001D9  F830 0000 001E  xsym                 LDR,R7   KX_BUF+30,R3
          1 0001DC  6C00                                 LDV,R6   0
          1 0001DD  8480 0000 0000  xsym                 SID      KX_AVL_IOMEM
          1 0001E0  8656                                 CPL      R6
          1 0001E1  8657                                 CPL      R7
          1 0001E2  8470 0000 0001                       AID      1,IMO
          1 0001E5  8D00 0000 0000  xsym                 SDI      KX_AVL_IOMEM

      775    18038    1       KX_AVL_MEM = KX_AVL_MEM - 1200;

  18038   1 0001E8  8C80 0000 0000  xsym                 LDI      KX_AVL_MEM
          1 0001EB  8470 FFFF FB50                       AID      -1200,IMO
          1 0001EE  8D00 0000 0000  xsym                 SDI      KX_AVL_MEM

PL6.E3A0      #004=KXS$GETL3 File=KXS$SUBS.:E05TSI                               WED 07/30/97 02:27 Page:143
      776    18039    1       RETURN;

  18039   1 0001F1  C380 0000 0000  xent                 LNJ,B4   X6A_ARET
      777    18040
      778    18041    1   END KXS$GETL3;
      779    18042        %EOD;

PL6.E3A0      #004=KXS$GETL3 File=KXS$SUBS.:E05TSI                               WED 07/30/97 02:27 Page:144
--  Include file information  --

   KNH_MACRO_C.:E05TOU  is referenced.
   K_ADDRESS_M.:E05TOU  is referenced.
   KV_GLBCNS_E.:E05TOU  is referenced.
   KX_MACROS_M.:E05TOU  is referenced.
   KX_DATA_C.:E05TOU  is referenced.
   KX_SCODE_C.:E05TOU  is referenced.
   KX_PERR_C.:E05TOU  is referenced.
   KX_EQUS_E.:E05TOU  is referenced.
   KL_SUPER_C.:E05TOU  is referenced.
   KH_MACRO_C.:E05TOU  is referenced.
   CP_6_SUBS.:E05TOU  is referenced.
   G_LCP6_E.:E05TOU  is referenced.
   GT_LCP6_M.:E05TOU  is referenced.
   KI_CP6.:E05TOU  is referenced.
   GF_LCP6_M.:E05TOU  is referenced.
   GM_LCP6_M.:E05TOU  is referenced.
   GU_LCP6_M.:E05TOU  is referenced.
   GJ_LCP6_M.:E05TOU  is referenced.
   GH_LCP6_M.:E05TOU  is referenced.
   LCP_6.:E05TOU  cannot be made into a system file and is referenced.
   KL_AFCN_C.:E05TOU  is referenced.
   KL_MACRO_C.:E05TOU  is referenced.
   K_ID_E.:E05TOU  is referenced.
      No diagnostics issued in procedure KXS$GETL3.
PL6.E3A0      #004=KXS$GETL3 File=KXS$SUBS.:E05TSI                               WED 07/30/97 02:27 Page:145

 **** Variables and constants ****

  ****  Section 000 RoData KXS$GETL3

  ****  Scalars and arrays  ****
HexLoc.c.b A Datatyp(siz) R M Lvl/name                 HexLoc.c.b A Datatyp(siz) R M Lvl/name

     0-0-0/w STRC(2320)  r     1 KX_L3

  ****  Auto variables  ****

  ****  Scalars and arrays  ****
HexLoc.c.b A Datatyp(siz) R M Lvl/name                 HexLoc.c.b A Datatyp(siz) R M Lvl/name

     8-0-0/w PTR         r     1 @ADMIN_FPT                 4-0-0/w PTR         r     1 @L2$
     6-0-0/w PTR         r     1 @L3$                      *0-0-0/w STRC(288)   r     1 ADMIN_FPT
    *0-0-0/w PTR         r     1 L2$                       *0-0-0/w PTR         r     1 L3$
     C-0-0/w UBIN(16)    r     1 SIZ                        A-0-0/w PTR         r     1 T$
     E-0-0/w STRC(160)   r     1 VICPRF

  ****  SYMREF variables  ****

  ****  Scalars and arrays  ****
HexLoc.c.b A Datatyp(siz) R M Lvl/name                 HexLoc.c.b A Datatyp(siz) R M Lvl/name

     0-0-0/w SBIN(32)    r     1 KX_AVL_IOMEM               0-0-0/w SBIN(32)    r     1 KX_AVL_MEM
     0-0-0/w STRC(672)   r     1 KX_BUF                     0-0-0/b EPTR        r     1 KX_PM$(0:2)

  ****  BASED and DCB variables  ****

  ****  Scalars and arrays  ****
HexLoc.c.b A Datatyp(siz) R M Lvl/name                 HexLoc.c.b A Datatyp(siz) R M Lvl/name

     0-0-0/w STRC(64)    r     1 BLKHDR                     0-0-0/w STRC(4992)  r     1 KX$L2
     0-0-0/w STRC(2320)  r     1 KX$L3                      0-0-0/w STRC(2320)  r     1 KX$TL3
     0-0-0/w STRC(384)   r     1 LNKVC                      0-0-0/w STRC(160)   r     1 VCPRF

PL6.E3A0      #004=KXS$GETL3 File=KXS$SUBS.:E05TSI                               WED 07/30/97 02:27 Page:146

   Procedure KXS$GETL3 requires 500 words for executable code.
   Procedure KXS$GETL3 requires 28 words of local(AUTO) storage.
PL6.E3A0      #004=KXS$GETL3 File=KXS$SUBS.:E05TSI                               WED 07/30/97 02:27 Page:147
          *** CROSS REFERENCE LISTING ***
**     DENOTES     IDENTIFIER DEFINITION
<<                 IDENTIFIER'S VALUE SET
>>                 IDENTIFIER'S VALUE USED
<>                 IDENTIFIER SET AND/OR USED
--                 IDENTIFIER REFERENCED
PL6.E3A0      #004=KXS$GETL3 File=KXS$SUBS.:E05TSI                               WED 07/30/97 02:27 Page:148
          MINI XREF LISTING

ADMIN_FPT
     14660**DCL        18--PROC    17939--IF
ADMIN_FPT.CTX$
     14716**DCL     17942>>ASSIGN
ADMIN_FPT.TERMID.TERM
     14684**DCL     14693--REDEF
BLKHDR.PROOFFSET
     15141**DCL     17984>>ASSIGN
KVB$GETSYS
     14631**DCL-ENT 17959--CALL
KX$L2.BUF_SIZE
     15682**DCL     17948>>IF      17989>>ASSIGN  18000>>ASSIGN  18037>>ASSIGN
KX$L2.DFLVCPRF
     15801**DCL     17947>>ASSIGN
KX$L2.DFLVCPRF.TRADEL
     15803**DCL     15813--REDEF
KX$L2.DSTSNPA.ADR_STRING
     15994**DCL     15994--REDEF
KX$L2.FRMR_NSNR
     15780**DCL     15781--REDEF
KX$L2.L3_HEAD$
     15712**DCL     18027>>IF      18029<<ASSIGN
KX$L2.L3_TAIL$
     15713**DCL     18031>>ASSIGN  18032<<ASSIGN
KX$L2.MAXWND
     15690**DCL     17991>>ASSIGN  17998>>ASSIGN
KX$L2.NTWADR
     15714**DCL     18021>>ASSIGN
KX$L2.NTWADR.ADR_STRING
     15714**DCL     15714--REDEF
KX$L2.STATES
     15692**DCL     15692--REDEF
PL6.E3A0      #004=KXS$GETL3 File=KXS$SUBS.:E05TSI                               WED 07/30/97 02:27 Page:149
KX$L3
     16032**DCL     17958--ASSIGN  17960<<ASSIGN
KX$L3.CALDLY
     16263**DCL     18007<<ASSIGN
KX$L3.CALL_OPTS
     16067**DCL     18022<<ASSIGN
KX$L3.CALL_OPTS.RCVADR.ADR_STRING
     16072**DCL     16072--REDEF
KX$L3.CHRINF
     16147**DCL     18018<<ASSIGN
KX$L3.CM_OPTS
     16102**DCL     18023<<ASSIGN
KX$L3.CM_OPTS.RCVADR.ADR_STRING
     16107**DCL     16107--REDEF
KX$L3.CUG
     16150**DCL     16151--REDEF   17974<<ASSIGN
KX$L3.CUGLNG
     16147**DCL     17973<<ASSIGN
KX$L3.DATTMRBLK.CTX$
     16221**DCL     17963<<ASSIGN
KX$L3.DFL_OPTS
     16137**DCL     18022>>ASSIGN  18023>>ASSIGN
KX$L3.DFL_OPTS.RCVADR
     16141**DCL     17975<<ASSIGN
KX$L3.DFL_OPTS.RCVADR.ADR_STRING
     16142**DCL     16142--REDEF
KX$L3.DFL_OPTS.RCVPCKSIZ
     16139**DCL     17989<<ASSIGN
KX$L3.DFL_OPTS.RCVTHR
     16139**DCL     17990<<ASSIGN
KX$L3.DFL_OPTS.RCVWND
     16140**DCL     17991<<ASSIGN  17992>>IF      17996>>ASSIGN
KX$L3.DFL_OPTS.SNDPCKSIZ
     16140**DCL     18000<<ASSIGN
KX$L3.DFL_OPTS.SNDTHR
     16140**DCL     17997<<ASSIGN
PL6.E3A0      #004=KXS$GETL3 File=KXS$SUBS.:E05TSI                               WED 07/30/97 02:27 Page:150
KX$L3.DFL_OPTS.SNDWND
     16141**DCL     17998<<ASSIGN
KX$L3.EXTSEQ
     16147**DCL     18017<<ASSIGN
KX$L3.IDLCLK
     16265**DCL     18020<<ASSIGN
KX$L3.IDLPRD
     16264**DCL     18019<<ASSIGN  18020>>ASSIGN
KX$L3.INTTMRBLK.CTX$
     16253**DCL     17964<<ASSIGN
KX$L3.L2$
     16032**DCL     17961<<ASSIGN
KX$L3.LCLADR
     16266**DCL     18021<<ASSIGN
KX$L3.LCLADR.ADR_STRING
     16267**DCL     16267--REDEF
KX$L3.LCLNSAP
     16284**DCL     16340--REDEF
KX$L3.LCLNSAP.NSAP.ADDRESS_N
     16335**DCL     16336--REDEF
KX$L3.LCN#
     16149**DCL     16150--REDEF   17982<<ASSIGN
KX$L3.NOD
     16037**DCL     17976<<ASSIGN
KX$L3.PVC
     16146**DCL     17981<<ASSIGN
KX$L3.QOS
     16038**DCL     17977<<ASSIGN
KX$L3.R21
     16260**DCL     18009<<ASSIGN
KX$L3.R22
     16261**DCL     18011<<ASSIGN
KX$L3.R23
     16261**DCL     18013<<ASSIGN
KX$L3.R25
     16262**DCL     18015<<ASSIGN
PL6.E3A0      #004=KXS$GETL3 File=KXS$SUBS.:E05TSI                               WED 07/30/97 02:27 Page:151
KX$L3.RMTNSAP
     16357**DCL     16413--REDEF
KX$L3.RMTNSAP.NSAP.ADDRESS_N
     16408**DCL     16409--REDEF
KX$L3.RSPDLY
     16262**DCL     17994<<ASSIGN  17996<<ASSIGN
KX$L3.RSPTMR
     16263**DCL     17988<<ASSIGN
KX$L3.RSPTOCMP
     16148**DCL     17999<<ASSIGN
KX$L3.RVS
     16148**DCL     18003<<ASSIGN  18005<<ASSIGN
KX$L3.STATES
     16155**DCL     16155--REDEF
KX$L3.T21
     16258**DCL     18008<<ASSIGN
KX$L3.T22
     16258**DCL     18010<<ASSIGN
KX$L3.T23
     16259**DCL     18012<<ASSIGN
KX$L3.T25
     16259**DCL     18014<<ASSIGN
KX$L3.T26
     16260**DCL     18016<<ASSIGN
KX$L3.TMRBLK.CTX$
     16189**DCL     17962<<ASSIGN
KX$L3.TRNDLY
     16151**DCL     16152--REDEF   18006<<ASSIGN
KX$L3.TRNDLYIND
     16152**DCL     16153--REDEF
KX$TL3.CALL_OPTS.RCVADR.ADR_STRING
     16475**DCL     16475--REDEF
KX$TL3.CM_OPTS.RCVADR.ADR_STRING
     16510**DCL     16510--REDEF
KX$TL3.CUG
     16553**DCL     16554--REDEF
PL6.E3A0      #004=KXS$GETL3 File=KXS$SUBS.:E05TSI                               WED 07/30/97 02:27 Page:152
KX$TL3.DFL_OPTS.RCVADR.ADR_STRING
     16545**DCL     16545--REDEF
KX$TL3.LCLADR.ADR_STRING
     16670**DCL     16670--REDEF
KX$TL3.LCLNSAP
     16687**DCL     16743--REDEF
KX$TL3.LCLNSAP.NSAP.ADDRESS_N
     16738**DCL     16739--REDEF
KX$TL3.LCN#
     16552**DCL     16553--REDEF
KX$TL3.NEXT$
     16435**DCL     18031<<ASSIGN
KX$TL3.RMTNSAP
     16760**DCL     16816--REDEF
KX$TL3.RMTNSAP.NSAP.ADDRESS_N
     16811**DCL     16812--REDEF
KX$TL3.STATES
     16558**DCL     16558--REDEF
KX$TL3.TRNDLY
     16554**DCL     16555--REDEF
KX$TL3.TRNDLYIND
     16555**DCL     16556--REDEF
KXP$PACKET
     14633**DCL-ENT 17003--DCLINIT 17035--DCLINIT 17067--DCLINIT
KX_AVL_IOMEM
     17922**DCL     17948>>IF      18037<<ASSIGN  18037>>ASSIGN
KX_AVL_MEM
     17922**DCL     17948>>IF      18038<<ASSIGN  18038>>ASSIGN
KX_BUF.SIZ
     17253**DCL     17948>>IF      18037>>ASSIGN
KX_L3
     16845**DCL     17960>>ASSIGN
KX_L3.CALL_OPTS.RCVADR.ADR_STRING
     16885**DCL     16885--REDEF
KX_L3.CM_OPTS.RCVADR.ADR_STRING
     16920**DCL     16920--REDEF
PL6.E3A0      #004=KXS$GETL3 File=KXS$SUBS.:E05TSI                               WED 07/30/97 02:27 Page:153
KX_L3.CUG
     16963**DCL     16964--REDEF
KX_L3.DFL_OPTS.RCVADR.ADR_STRING
     16955**DCL     16955--REDEF
KX_L3.LCLADR.ADR_STRING
     17080**DCL     17080--REDEF
KX_L3.LCLNSAP
     17097**DCL     17153--REDEF
KX_L3.LCLNSAP.NSAP.ADDRESS_N
     17148**DCL     17149--REDEF
KX_L3.LCN#
     16962**DCL     16963--REDEF
KX_L3.RMTNSAP
     17170**DCL     17226--REDEF
KX_L3.RMTNSAP.NSAP.ADDRESS_N
     17221**DCL     17222--REDEF
KX_L3.STATES
     16968**DCL     16968--REDEF
KX_L3.TRNDLY
     16964**DCL     16965--REDEF
KX_L3.TRNDLYIND
     16965**DCL     16966--REDEF
KX_STATS_HDLC.REQSTATS.DSPMSK
     17524**DCL     17530--REDEF
KX_STATS_HDLC.REQSTATS.SLCMSK
     17565**DCL     17572--REDEF
KX_STATS_X25.REQSTATS.DSPMSK
     17849**DCL     17855--REDEF
KX_STATS_X25.REQSTATS.SLCMSK
     17890**DCL     17897--REDEF
L2$
     14643**DCL        18--PROC    15618--IMP-PTR 15663--IMP-PTR 17947>>ASSIGN  17948>>IF      17961>>ASSIGN
     17989>>ASSIGN  17991>>ASSIGN  17998>>ASSIGN  18000>>ASSIGN  18021>>ASSIGN  18027>>IF      18029>>ASSIGN
     18031>>ASSIGN  18032>>ASSIGN  18037>>ASSIGN
L3$
     14644**DCL        18--PROC    16032--IMP-PTR 17959<>CALL    17960>>ASSIGN  17961>>ASSIGN  17962>>ASSIGN
PL6.E3A0      #004=KXS$GETL3 File=KXS$SUBS.:E05TSI                               WED 07/30/97 02:27 Page:154
     17962>>ASSIGN  17963>>ASSIGN  17963>>ASSIGN  17964>>ASSIGN  17964>>ASSIGN  17973>>ASSIGN  17974>>ASSIGN
     17975>>ASSIGN  17976>>ASSIGN  17977>>ASSIGN  17981>>ASSIGN  17982>>ASSIGN  17988>>ASSIGN  17989>>ASSIGN
     17990>>ASSIGN  17991>>ASSIGN  17992>>IF      17994>>ASSIGN  17996>>ASSIGN  17996>>ASSIGN  17997>>ASSIGN
     17998>>ASSIGN  17999>>ASSIGN  18000>>ASSIGN  18003>>ASSIGN  18005>>ASSIGN  18006>>ASSIGN  18007>>ASSIGN
     18008>>ASSIGN  18009>>ASSIGN  18010>>ASSIGN  18011>>ASSIGN  18012>>ASSIGN  18013>>ASSIGN  18014>>ASSIGN
     18015>>ASSIGN  18016>>ASSIGN  18017>>ASSIGN  18018>>ASSIGN  18019>>ASSIGN  18020>>ASSIGN  18020>>ASSIGN
     18021>>ASSIGN  18022>>ASSIGN  18022>>ASSIGN  18023>>ASSIGN  18023>>ASSIGN  18029>>ASSIGN  18031>>ASSIGN
     18032>>ASSIGN
LNKVC.ADR
     15332**DCL     17975>>ASSIGN
LNKVC.CUG
     15285**DCL     15329--REDEF
LNKVC.CUG.LNG#
     15300**DCL     17973>>ASSIGN
LNKVC.CUG_REDEF.BCDS
     15331**DCL     17974>>ASSIGN
LNKVC.NODE#
     15372**DCL     17976>>ASSIGN
LNKVC.PERMANENT
     15391**DCL     17978>>IF      17981>>ASSIGN
LNKVC.QOS#
     15384**DCL     17977>>ASSIGN
LNKVC.VIRCIR#
     15379**DCL     17982>>ASSIGN
L_NOMEM
     17951**LABEL   17959--CALLALT
SIZ
     14858**DCL     17958<<ASSIGN  17959<>CALL
T$
     14857**DCL     15090--IMP-PTR 15186--IMP-PTR 15409--IMP-PTR 17942<<ASSIGN  17946<<ASSIGN  17970>>IF
     17973>>ASSIGN  17974>>ASSIGN  17975>>ASSIGN  17976>>ASSIGN  17977>>ASSIGN  17978>>IF      17981>>ASSIGN
     17982>>ASSIGN  17984<<ASSIGN  17984>>ASSIGN  17984>>ASSIGN  17985>>ASSIGN
VCPRF
     15409**DCL     17985>>ASSIGN
VCPRF.TRADEL
     15413**DCL     15423--REDEF
PL6.E3A0      #004=KXS$GETL3 File=KXS$SUBS.:E05TSI                               WED 07/30/97 02:27 Page:155
VICPRF
     14874**DCL     17947<<ASSIGN  17985<<ASSIGN
VICPRF.CDLY#
     14930**DCL     18007>>ASSIGN
VICPRF.CHARGE#
     15045**DCL     18018>>ASSIGN
VICPRF.CLRRET#
     14905**DCL     18013>>ASSIGN
VICPRF.CLRTIM#
     14900**DCL     18012>>ASSIGN
VICPRF.CRTR#
     14935**DCL     18009>>ASSIGN
VICPRF.CTMT#
     14940**DCL     18008>>ASSIGN
VICPRF.DATRET#
     14915**DCL     18015>>ASSIGN
VICPRF.DATTIM#
     14910**DCL     18014>>ASSIGN
VICPRF.EXTSEQ#
     14998**DCL     18017>>ASSIGN
VICPRF.IDLTIM#
     14925**DCL     18019>>ASSIGN
VICPRF.INTTIM#
     14920**DCL     18016>>ASSIGN
VICPRF.RCVSIZ#
     14953**DCL     17989>>ASSIGN
VICPRF.RCVTHR#
     14966**DCL     17990>>ASSIGN
VICPRF.RCVWND#
     14991**DCL     17991>>ASSIGN
VICPRF.RESRET#
     14895**DCL     18011>>ASSIGN
VICPRF.RESTIM#
     14890**DCL     18010>>ASSIGN
VICPRF.RSPDLY#
     15002**DCL     17992>>IF      17994>>ASSIGN
PL6.E3A0      #004=KXS$GETL3 File=KXS$SUBS.:E05TSI                               WED 07/30/97 02:27 Page:156
VICPRF.RSPTMR#
     14945**DCL     17988>>ASSIGN
VICPRF.RSPTOCMP#
     14987**DCL     17999>>ASSIGN
VICPRF.RVR#
     15057**DCL     18001>>IF
VICPRF.SNDSIZ#
     15029**DCL     18000>>ASSIGN
VICPRF.SNDTHR#
     15010**DCL     17997>>ASSIGN
VICPRF.SNDWND#
     15050**DCL     17998>>ASSIGN
VICPRF.TRADEL
     14878**DCL     14888--REDEF
VICPRF.TRADEL#
     14888**DCL     18006>>ASSIGN

PL6.E3A0      #005=KXS$RLSBFR File=KXS$SUBS.:E05TSI                              WED 07/30/97 02:28 Page:157
      780        1        /*T***********************************************************/
      781        2        /*T*                                                         */
      782        3        /*T* Copyright (c) Bull HN Information Systems Inc., 1997    */
      783        4        /*T*                                                         */
      784        5        /*T***********************************************************/
      785        6        /*F* NAME: KXS$RLSBFR                */
      786        7        /*F* PURPOSE: Release an I/O buffer  */
      787        8
      788        9        /*D* NAME: KXS$RLSBFR                */
      789       10        /*D* PURPOSE: Release an I/O buffer  */
      790       11        /*D* CALL: CALL KXS$RLSBFR ( DAT$ )  */
      791       12        /*D* INPUT: DAT$ - pointer to the buffer to be released  */
      792       13        /*D* OUTPUT: none                    */
      793       14
      794       15        KXS$RLSBFR: PROC ( DAT$ );
      795       16
      796       17        /*****************************************************************
      797       18        *                                                                *
      798       19        *                           Include files                        *
      799       20        *                                                                *
      800       21        *****************************************************************/
      801       22
      802       23        %INCLUDE K_ID_E;
      803       73        %K#ENTID_E;
      804       92        %K#LYRID_E;
      805       99        %INCLUDE LCP_6;
      806     4378        %INCLUDE KL_MACRO_C;
      807     7730        %INCLUDE KL_AFCN_C;
      808     7831        %INCLUDE KX_EQUS_E;
      809     8270        %INCLUDE KX_PERR_C;
      810     8399        %INCLUDE KX_SCODE_C;
      811     8465        %INCLUDE KX_DATA_C;
      812     8533        %INCLUDE KX_MACROS_M;
      813     9304        %INCLUDE KV_GLBCNS_E;
      814     9645        %KV#CQ_HNDID_E;
      815     9650        %EJECT;
PL6.E3A0      #005=KXS$RLSBFR File=KXS$SUBS.:E05TSI                              WED 07/30/97 02:28 Page:158
      816     9651        /*****************************************************************
      817     9652        *                                                                *
      818     9653        *                           External References                  *
      819     9654        *                                                                *
      820     9655        *****************************************************************/
      821     9656
      822     9657    1   DCL KVB$RLS ENTRY (2) ALTRET;
      823     9658    1   DCL KXX$X29 ENTRY (1);
      824     9659    1   DCL KHD$SCREECH ENTRY (1);
      825     9660    1   DCL KHA$ERRLOG ENTRY (2) ALTRET;
      826     9661        %EJECT;
PL6.E3A0      #005=KXS$RLSBFR File=KXS$SUBS.:E05TSI                              WED 07/30/97 02:28 Page:159
      827     9662        /*****************************************************************
      828     9663        *                                                                *
      829     9664        *                           Auto                                 *
      830     9665        *                                                                *
      831     9666        *****************************************************************/
      832     9667
      833     9668    1   DCL DAT$ PTR;
      834     9669    1   DCL BFRSIZ UBIN;
      835     9670
      836     9671
      837     9672
      838     9673
      839     9674        /*****************************************************************
      840     9675        *                                                                *
      841     9676        *                           Based                                *
      842     9677        *                                                                *
      843     9678        *****************************************************************/
      844     9679
      845     9680        %KX$DATA ( STCLASS = "BASED ( DAT$ )" );
      846     9700        %KX$DATA ( FPTN = KX$TDATA, STCLASS = BASED );
      847     9720        %KX$PACKET;
      848     9786        %EJECT;
PL6.E3A0      #005=KXS$RLSBFR File=KXS$SUBS.:E05TSI                              WED 07/30/97 02:28 Page:160
      849     9787        /*****************************************************************
      850     9788        *                                                                *
      851     9789        *                           Static                               *
      852     9790        *                                                                *
      853     9791        *****************************************************************/
      854     9792
      855     9793        %KX_DATA;
      856    10483        %EJECT;
PL6.E3A0      #005=KXS$RLSBFR File=KXS$SUBS.:E05TSI                              WED 07/30/97 02:28 Page:161
      857    10484        /*****************************************************************
      858    10485        *                                                                *
      859    10486        *                           Constant                             *
      860    10487        *                                                                *
      861    10488        *****************************************************************/
      862    10489
      863    10490        %VLP_SCODE (FPTN=Y_NO_RLS,STCLASS=CONSTANT,FCG=KX,MID=S,ERR#=%S$KX_NO_GET#);
      864    10551        %EJECT;
PL6.E3A0      #005=KXS$RLSBFR File=KXS$SUBS.:E05TSI                              WED 07/30/97 02:28 Page:162
      865    10552        /*****************************************************************
      866    10553        *                                                                *
      867    10554        *                           Procedure                            *
      868    10555        *                                                                *
      869    10556        *****************************************************************/
      870    10557
      871    10558        /*
      872    10559                                             If the buffer count for this size
      873    10560                                             buffer is not greater than the
      874    10561                                             number that are supposed to be
      875    10562                                             maintained internally, add it to
      876    10563                                             the internal queue.  Otherwise,
      877    10564                                             give the buffer back to the buddy
      878    10565                                             space manager.
      879    10566        */
      880    10567    1       BFRSIZ = KX$DATA.BFRSIZ;
      881    10568    1       IF ( KX_BUF.CNT ( BFRSIZ ) < KX_IOBFRS )
      882    10569    1          THEN
      883    10570    2             DO;
      884    10571    2                KX$DATA = '0'B;
      885    10572    2                IF KX_BUF.HEAD$ ( BFRSIZ ) = ADDR(NIL)
      886    10573    2                   THEN
      887    10574    2                      KX_BUF.HEAD$ ( BFRSIZ ) = DAT$;
      888    10575    2                   ELSE
      889    10576    2                      KX_BUF.TAIL$ ( BFRSIZ ) -> KX$TDATA.NEXT$ = DAT$;
      890    10577    2                KX_BUF.TAIL$ ( BFRSIZ ) = DAT$;
      891    10578    2                KX_BUF.CNT ( BFRSIZ ) = KX_BUF.CNT ( BFRSIZ ) + 1;
      892    10579    2             END;
      893    10580    1          ELSE
      894    10581    2             DO;
      895    10582    2                BFRSIZ = ( KX_BUF.SIZ ( BFRSIZ ) + LENGTHC(KX$PACKET) + 1 ) / 2;
      896    10583    2                CALL KVB$RLS ( BFRSIZ, DAT$ )
      897    10584    2                   WHENALTRETURN
      898    10585    3                      DO;
      899    10586    3                         CALL KHD$SCREECH ( Y_NO_RLS );
      900    10587    3                      END;
      901    10588    2             END;
PL6.E3A0      #005=KXS$RLSBFR File=KXS$SUBS.:E05TSI                              WED 07/30/97 02:28 Page:163
      902    10589
      903    10590    1       RETURN;
      904    10591
      905    10592    1   END KXS$RLSBFR;
      906    10593        %EOD;

PL6.E3A0      #005=KXS$RLSBFR File=KXS$SUBS.:E05TSI                              WED 07/30/97 02:28 Page:164
--  Include file information  --

   KV_GLBCNS_E.:E05TOU  is referenced.
   KX_MACROS_M.:E05TOU  is referenced.
   KX_DATA_C.:E05TOU  is referenced.
   KX_SCODE_C.:E05TOU  is referenced.
   KX_PERR_C.:E05TOU  is referenced.
   KX_EQUS_E.:E05TOU  is referenced.
   KL_AFCN_C.:E05TOU  is referenced.
   KL_MACRO_C.:E05TOU  is referenced.
   G_LCP6_E.:E05TOU  is referenced.
   GT_LCP6_M.:E05TOU  is referenced.
   KI_CP6.:E05TOU  is referenced.
   GF_LCP6_M.:E05TOU  is referenced.
   GM_LCP6_M.:E05TOU  is referenced.
   GU_LCP6_M.:E05TOU  is referenced.
   GJ_LCP6_M.:E05TOU  is referenced.
   GH_LCP6_M.:E05TOU  is referenced.
   LCP_6.:E05TOU  cannot be made into a system file and is referenced.
   K_ID_E.:E05TOU  is referenced.
      No diagnostics issued in procedure KXS$RLSBFR.

   Procedure KXS$RLSBFR requires 96 words for executable code.
   Procedure KXS$RLSBFR requires 12 words of local(AUTO) storage.

PL6.E3A0      #005=KXS$RLSBFR File=KXS$SUBS.:E05TSI                              WED 07/30/97 02:28 Page:165

 Object Unit name= KXS$RLSBFR                                 File name= KXS$SUBS.:E05TOU
 UTS= JUL 30 '97 02:28:29.16 WED                              Compiler= PL-6/E31         Sev=      00
 SharedLib= :SHARED_LCP6_SYSTEM                               Alt SharedLib=


    ****  Control sections  ****

 Sect   Type Bound  Init  Size HexSiz  Section name
    0  RoData even  UTS      3      3  KXS$RLSBFR
    1   Proc  even  none    96     60  KXS$RLSBFR
    2  RoData even  none     2      2  KXS$RLSBFR

    ****  Entry defs  ****

                              Check   Calling
                             calling  sequence
  Sect HexLoc Primary Altret sequence   type   Parms  Name
     1      0   yes            yes      Std        1  KXS$RLSBFR

  ****  Entry refs  ****

         Check        Calling
        calling       sequence
Altret sequence SRef   type   Args  Name
 yes     yes           Std       2 KVB$RLS
         yes           Std       1 KHD$SCREECH
                       nStd      0 X6A_AUTO_1
                       nStd      0 X6A_ARET

  ****  Data refs  ****

  Flags:  r = read only, s = secondary
Flgs Name                             Flgs Name                             Flgs Name
     KX_BUF                                KX_IOBFRS                             KX_PM$
r    G$ROS$
PL6.E3A0      #005=KXS$RLSBFR File=KXS$SUBS.:E05TSI                              WED 07/30/97 02:28 Page:166


      780        1        /*T***********************************************************/
      781        2        /*T*                                                         */
      782        3        /*T* Copyright (c) Bull HN Information Systems Inc., 1997    */
      783        4        /*T*                                                         */
      784        5        /*T***********************************************************/
      785        6        /*F* NAME: KXS$RLSBFR                */
      786        7        /*F* PURPOSE: Release an I/O buffer  */
      787        8
      788        9        /*D* NAME: KXS$RLSBFR                */
      789       10        /*D* PURPOSE: Release an I/O buffer  */
      790       11        /*D* CALL: CALL KXS$RLSBFR ( DAT$ )  */
      791       12        /*D* INPUT: DAT$ - pointer to the buffer to be released  */
      792       13        /*D* OUTPUT: none                    */
      793       14
      794       15        KXS$RLSBFR: PROC ( DAT$ );

     15   1 000000  D380 0000 0000  xent KXS$RLSBFR      LNJ,B5   X6A_AUTO_1
          1 000003       000C 0001                       DC       12,1

      795       16
      796       17        /*****************************************************************
      797       18        *                                                                *
      798       19        *                           Include files                        *
      799       20        *                                                                *
      800       21        *****************************************************************/
      801       22
      802       23        %INCLUDE K_ID_E;
      803       73        %K#ENTID_E;
      804       92        %K#LYRID_E;
      805       99        %INCLUDE LCP_6;
      806     4378        %INCLUDE KL_MACRO_C;
      807     7730        %INCLUDE KL_AFCN_C;
      808     7831        %INCLUDE KX_EQUS_E;
      809     8270        %INCLUDE KX_PERR_C;
      810     8399        %INCLUDE KX_SCODE_C;
      811     8465        %INCLUDE KX_DATA_C;
PL6.E3A0      #005=KXS$RLSBFR File=KXS$SUBS.:E05TSI                              WED 07/30/97 02:28 Page:167
      812     8533        %INCLUDE KX_MACROS_M;
      813     9304        %INCLUDE KV_GLBCNS_E;
      814     9645        %KV#CQ_HNDID_E;
      815     9650        %EJECT;
PL6.E3A0      #005=KXS$RLSBFR File=KXS$SUBS.:E05TSI                              WED 07/30/97 02:28 Page:168
      816     9651        /*****************************************************************
      817     9652        *                                                                *
      818     9653        *                           External References                  *
      819     9654        *                                                                *
      820     9655        *****************************************************************/
      821     9656
      822     9657    1   DCL KVB$RLS ENTRY (2) ALTRET;
      823     9658    1   DCL KXX$X29 ENTRY (1);
      824     9659    1   DCL KHD$SCREECH ENTRY (1);
      825     9660    1   DCL KHA$ERRLOG ENTRY (2) ALTRET;
      826     9661        %EJECT;
PL6.E3A0      #005=KXS$RLSBFR File=KXS$SUBS.:E05TSI                              WED 07/30/97 02:28 Page:169
      827     9662        /*****************************************************************
      828     9663        *                                                                *
      829     9664        *                           Auto                                 *
      830     9665        *                                                                *
      831     9666        *****************************************************************/
      832     9667
      833     9668    1   DCL DAT$ PTR;
      834     9669    1   DCL BFRSIZ UBIN;
      835     9670
      836     9671
      837     9672
      838     9673
      839     9674        /*****************************************************************
      840     9675        *                                                                *
      841     9676        *                           Based                                *
      842     9677        *                                                                *
      843     9678        *****************************************************************/
      844     9679
      845     9680        %KX$DATA ( STCLASS = "BASED ( DAT$ )" );
      846     9700        %KX$DATA ( FPTN = KX$TDATA, STCLASS = BASED );
      847     9720        %KX$PACKET;
      848     9786        %EJECT;
PL6.E3A0      #005=KXS$RLSBFR File=KXS$SUBS.:E05TSI                              WED 07/30/97 02:28 Page:170
      849     9787        /*****************************************************************
      850     9788        *                                                                *
      851     9789        *                           Static                               *
      852     9790        *                                                                *
      853     9791        *****************************************************************/
      854     9792
      855     9793        %KX_DATA;
      856    10483        %EJECT;
PL6.E3A0      #005=KXS$RLSBFR File=KXS$SUBS.:E05TSI                              WED 07/30/97 02:28 Page:171
      857    10484        /*****************************************************************
      858    10485        *                                                                *
      859    10486        *                           Constant                             *
      860    10487        *                                                                *
      861    10488        *****************************************************************/
      862    10489
      863    10490        %VLP_SCODE (FPTN=Y_NO_RLS,STCLASS=CONSTANT,FCG=KX,MID=S,ERR#=%S$KX_NO_GET#);
      864    10551        %EJECT;
PL6.E3A0      #005=KXS$RLSBFR File=KXS$SUBS.:E05TSI                              WED 07/30/97 02:28 Page:172
      865    10552        /*****************************************************************
      866    10553        *                                                                *
      867    10554        *                           Procedure                            *
      868    10555        *                                                                *
      869    10556        *****************************************************************/
      870    10557
      871    10558        /*
      872    10559                                             If the buffer count for this size
      873    10560                                             buffer is not greater than the
      874    10561                                             number that are supposed to be
      875    10562                                             maintained internally, add it to
      876    10563                                             the internal queue.  Otherwise,
      877    10564                                             give the buffer back to the buddy
      878    10565                                             space manager.
      879    10566        */
      880    10567    1       BFRSIZ = KX$DATA.BFRSIZ;

  10567   1 000005  ECC7 0004                            LDB,B6   @DAT$,AUTO
          1 000007  DC86                                 LDB,B5   ,B6
          1 000008  E845 0006                            LDR,R6   6,B5
          1 00000A  E570 1FFF                            AND,R6   8191,IMO
          1 00000C  EF47 0006                            STR,R6   BFRSIZ,AUTO

      881    10568    1       IF ( KX_BUF.CNT ( BFRSIZ ) < KX_IOBFRS )

  10568   1 00000E  B856                                 LDR,R3   R6
          1 00000F  D830 0000 0018  xsym                 LDR,R5   KX_BUF+24,R3
          1 000012  D900 0000 0000  xsym                 CMR,R5   KX_IOBFRS
          1 000015  0281 0026                            BGE      s:10582,PREL

      882    10569    1          THEN
      883    10570    2             DO;

      884    10571    2                KX$DATA = '0'B;

  10571   1 000017  DC86                                 LDB,B5   ,B6
          1 000018  5C10                                 LDV,R5   16
PL6.E3A0      #005=KXS$RLSBFR File=KXS$SUBS.:E05TSI                              WED 07/30/97 02:28 Page:173
          1 000019  0021                                 ALR      ;
          1 00001A       4178 0000                                ALPHANUM('0000'X,IMO,,1),;
          1 00001C       4005 0000                                ALPHANUM(0,B5,,R5,FILL)

      885    10572    2                IF KX_BUF.HEAD$ ( BFRSIZ ) = ADDR(NIL)

  10572   1 00001E  437F                                 CSYNC    s:10571+6,SPREL
          1 00001F  A847 0006                            LDR,R2   BFRSIZ,AUTO
          1 000021  8DA0 0000 0000  xsym                 CMN      KX_BUF,R2
          1 000024  0981 0007                            BNE      s:10576,PREL

      886    10573    2                   THEN
      887    10574    2                      KX_BUF.HEAD$ ( BFRSIZ ) = DAT$;

  10574   1 000026  DC86                                 LDB,B5   ,B6
          1 000027  DFA0 0000 0000  xsym                 STB,B5   KX_BUF,R2
          1 00002A  0F81 0006                            B        s:10577,PREL

      888    10575    2                   ELSE
      889    10576    2                      KX_BUF.TAIL$ ( BFRSIZ ) -> KX$TDATA.NEXT$ = DAT$;

  10576   1 00002C  DCA0 0000 000C  xsym                 LDB,B5   KX_BUF+12,R2
          1 00002F  CC86                                 LDB,B4   ,B6
          1 000030  CF85                                 STB,B4   ,B5

      890    10577    2                KX_BUF.TAIL$ ( BFRSIZ ) = DAT$;

  10577   1 000031  DC86                                 LDB,B5   ,B6
          1 000032  A847 0006                            LDR,R2   BFRSIZ,AUTO
          1 000034  DFA0 0000 000C  xsym                 STB,B5   KX_BUF+12,R2

      891    10578    2                KX_BUF.CNT ( BFRSIZ ) = KX_BUF.CNT ( BFRSIZ ) + 1;

  10578   1 000037  8AA0 0000 0018  xsym                 INC      KX_BUF+24,R2

      892    10579    2             END;

PL6.E3A0      #005=KXS$RLSBFR File=KXS$SUBS.:E05TSI                              WED 07/30/97 02:28 Page:174
  10579   1 00003A  0F81 0022                            B        s:10590,PREL

      893    10580    1          ELSE
      894    10581    2             DO;

      895    10582    2                BFRSIZ = ( KX_BUF.SIZ ( BFRSIZ ) + LENGTHC(KX$PACKET) + 1 ) / 2;

  10582   1 00003C  C830 0000 001E  xsym                 LDR,R4   KX_BUF+30,R3
          1 00003F  4E16                                 ADV,R4   22
          1 000040  4041                                 SOR,R4   1
          1 000041  B854                                 LDR,R3   R4
          1 000042  BF47 0006                            STR,R3   BFRSIZ,AUTO

      896    10583    2                CALL KVB$RLS ( BFRSIZ, DAT$ )

  10583   1 000044  EFC7 000A                            STB,B6   BFRSIZ+4,AUTO
          1 000046  DBC7 0006                            LAB,B5   BFRSIZ,AUTO
          1 000048  DFC7 0008                            STB,B5   BFRSIZ+2,AUTO
          1 00004A  BBC7 0008                            LAB,B3   BFRSIZ+2,AUTO
          1 00004C  CBF0 0200                            LAB,B4   512,IMO
          1 00004E  E380 0000 0000  xent                 LNJ,B6   KVB$RLS
          1 000051       0003                            DC       s:10586,PREL
          1 000052  0F81 000A                            B        s:10590,PREL

      897    10584    2                   WHENALTRETURN
      898    10585    3                      DO;

      899    10586    3                         CALL KHD$SCREECH ( Y_NO_RLS );

  10586   1 000054  BB80 0000 0000  02                   LAB,B3   0
          1 000057  CBF0 0100                            LAB,B4   256,IMO
          1 000059  E380 0000 0000  xent                 LNJ,B6   KHD$SCREECH
          1 00005C       0001                            DC       s:10590,PREL

      900    10587    3                      END;

      901    10588    2             END;
PL6.E3A0      #005=KXS$RLSBFR File=KXS$SUBS.:E05TSI                              WED 07/30/97 02:28 Page:175

      902    10589
      903    10590    1       RETURN;

  10590   1 00005D  C380 0000 0000  xent                 LNJ,B4   X6A_ARET
      904    10591
      905    10592    1   END KXS$RLSBFR;
      906    10593        %EOD;

PL6.E3A0      #005=KXS$RLSBFR File=KXS$SUBS.:E05TSI                              WED 07/30/97 02:28 Page:176
--  Include file information  --

   KV_GLBCNS_E.:E05TOU  is referenced.
   KX_MACROS_M.:E05TOU  is referenced.
   KX_DATA_C.:E05TOU  is referenced.
   KX_SCODE_C.:E05TOU  is referenced.
   KX_PERR_C.:E05TOU  is referenced.
   KX_EQUS_E.:E05TOU  is referenced.
   KL_AFCN_C.:E05TOU  is referenced.
   KL_MACRO_C.:E05TOU  is referenced.
   G_LCP6_E.:E05TOU  is referenced.
   GT_LCP6_M.:E05TOU  is referenced.
   KI_CP6.:E05TOU  is referenced.
   GF_LCP6_M.:E05TOU  is referenced.
   GM_LCP6_M.:E05TOU  is referenced.
   GU_LCP6_M.:E05TOU  is referenced.
   GJ_LCP6_M.:E05TOU  is referenced.
   GH_LCP6_M.:E05TOU  is referenced.
   LCP_6.:E05TOU  cannot be made into a system file and is referenced.
   K_ID_E.:E05TOU  is referenced.
      No diagnostics issued in procedure KXS$RLSBFR.
PL6.E3A0      #005=KXS$RLSBFR File=KXS$SUBS.:E05TSI                              WED 07/30/97 02:28 Page:177

 **** Variables and constants ****

  ****  Section 000 RoData KXS$RLSBFR

  ****  Scalars and arrays  ****
HexLoc.c.b A Datatyp(siz) R M Lvl/name                 HexLoc.c.b A Datatyp(siz) R M Lvl/name

     0-0-0/w STRC(48)    r     1 Y_NO_RLS

  ****  Auto variables  ****

  ****  Scalars and arrays  ****
HexLoc.c.b A Datatyp(siz) R M Lvl/name                 HexLoc.c.b A Datatyp(siz) R M Lvl/name

     4-0-0/w PTR         r     1 @DAT$                      6-0-0/w UBIN(16)    r     1 BFRSIZ
    *0-0-0/w PTR         r     1 DAT$

  ****  SYMREF variables  ****

  ****  Scalars and arrays  ****
HexLoc.c.b A Datatyp(siz) R M Lvl/name                 HexLoc.c.b A Datatyp(siz) R M Lvl/name

     0-0-0/w STRC(672)   r     1 KX_BUF                     0-0-0/w UBIN(16)    r     1 KX_IOBFRS
     0-0-0/b EPTR        r     1 KX_PM$(0:2)

  ****  BASED and DCB variables  ****

  ****  Scalars and arrays  ****
HexLoc.c.b A Datatyp(siz) R M Lvl/name                 HexLoc.c.b A Datatyp(siz) R M Lvl/name

     0-0-0/w STRC(128)   r     1 KX$DATA                    0-0-0/w STRC(168)   r     1 KX$PACKET
     0-0-0/w STRC(128)   r     1 KX$TDATA


   Procedure KXS$RLSBFR requires 96 words for executable code.
   Procedure KXS$RLSBFR requires 12 words of local(AUTO) storage.
PL6.E3A0      #005=KXS$RLSBFR File=KXS$SUBS.:E05TSI                              WED 07/30/97 02:28 Page:178
          *** CROSS REFERENCE LISTING ***
**     DENOTES     IDENTIFIER DEFINITION
<<                 IDENTIFIER'S VALUE SET
>>                 IDENTIFIER'S VALUE USED
<>                 IDENTIFIER SET AND/OR USED
--                 IDENTIFIER REFERENCED
PL6.E3A0      #005=KXS$RLSBFR File=KXS$SUBS.:E05TSI                              WED 07/30/97 02:28 Page:179
          MINI XREF LISTING

BFRSIZ
      9669**DCL     10567<<ASSIGN  10568>>IF      10572>>IF      10574>>ASSIGN  10576>>ASSIGN  10577>>ASSIGN
     10578>>ASSIGN  10578>>ASSIGN  10582<<ASSIGN  10582>>ASSIGN  10583<>CALL
DAT$
      9668**DCL        15--PROC     9693--IMP-PTR 10567>>ASSIGN  10571>>ASSIGN  10574>>ASSIGN  10576>>ASSIGN
     10577>>ASSIGN  10583<>CALL
KHD$SCREECH
      9659**DCL-ENT 10586--CALL
KVB$RLS
      9657**DCL-ENT 10583--CALL
KX$DATA
      9693**DCL     10571<<ASSIGN
KX$DATA.BFRSIZ
      9696**DCL     10567>>ASSIGN
KX$DATA.RLS_STAT
      9695**DCL      9696--REDEF
KX$PACKET
      9733**DCL     10582--ASSIGN
KX$PACKET.CTL
      9740**DCL      9740--REDEF
KX$PACKET.LCN#
      9769**DCL      9770--REDEF
KX$PACKET.RLS_STAT
      9735**DCL      9736--REDEF
KX$PACKET.TYPE
      9770**DCL      9770--REDEF    9782--REDEF
KX$PACKET.TYPE_BITS.PS
      9774**DCL      9774--REDEF
KX$TDATA.NEXT$
      9715**DCL     10576<<ASSIGN
KX$TDATA.RLS_STAT
      9715**DCL      9716--REDEF
PL6.E3A0      #005=KXS$RLSBFR File=KXS$SUBS.:E05TSI                              WED 07/30/97 02:28 Page:180
KX_BUF.CNT
      9809**DCL     10568>>IF      10578<<ASSIGN  10578>>ASSIGN
KX_BUF.HEAD$
      9808**DCL     10572>>IF      10574<<ASSIGN
KX_BUF.SIZ
      9809**DCL     10582>>ASSIGN
KX_BUF.TAIL$
      9809**DCL     10576>>ASSIGN  10577<<ASSIGN
KX_IOBFRS
     10477**DCL     10568>>IF
KX_STATS_HDLC.REQSTATS.DSPMSK
     10080**DCL     10086--REDEF
KX_STATS_HDLC.REQSTATS.SLCMSK
     10121**DCL     10128--REDEF
KX_STATS_X25.REQSTATS.DSPMSK
     10405**DCL     10411--REDEF
KX_STATS_X25.REQSTATS.SLCMSK
     10446**DCL     10453--REDEF
Y_NO_RLS
     10517**DCL     10586<>CALL

