VERSION E05

PL6.E3A0      #001=KXX_DATA_D File=KXX_DATA_D.:E05TSI                            WED 07/30/97 02:37 Page:1
        1        1        /*M* KXX_DATA_D    X.29 handler global data */
        2        2        /*T***********************************************************/
        3        3        /*T*                                                         */
        4        4        /*T* Copyright (c) Bull HN Information Systems Inc., 1997    */
        5        5        /*T*                                                         */
        6        6        /*T***********************************************************/
        7        7        KXX_DATA_D: PROC;
        8        8        /*
        9        9        INCLUDEs.
       10       10        */
       11       11        %INCLUDE LCP_6;
       12     4290        %INCLUDE KH$STT;  /* For KX_STATS_X29 */
       13     4320        %INCLUDE KL_AFCN_C;  /* For KX_STATS_X29/KV$STT */
       14     4421        %INCLUDE KL_MACRO_C;  /* For KX_STATS_X29/KV$STT */
       15     7773        %INCLUDE K_ID_E;  /* For KX_STATS_X29/KV$STT */
       16     7823        %K#ENTID_E;  /* For KX_STATS_X29/KV$STT */
       17     7842        %K#LYRID_E;  /* For KX_STATS_X29/KV$STT */
       18     7849        %INCLUDE KV_GLB_M;
       19     7971        %INCLUDE KV_GLBASM_E;
       20     7989        %INCLUDE KV_GLBCNS_E;
       21     8330        %KV_STRTYP_E;
       22     8368        %KV_PRTTYP_E;
       23     8375        %INCLUDE KV_ASCCHR_E;
       24     8512        %KV_INPOPRX_E;
       25     8524        %INCLUDE KV_PRMID_E;
       26     8698        %KV_PRMID_E;
       27     8854        %INCLUDE KV$VDH;
       28     9285        %INCLUDE KV$GLBCTX;
       29     9730        %INCLUDE KV$GLB;
       30    10149        %INCLUDE KA_GLB;
       31    10226        %INCLUDE KA_GLB_E;
       32    10304        %KA_HLTOTP_E;
       33    10313        %INCLUDE KX_MACROS_M;
       34    11084        %INCLUDE KXX_MACROS_M;
       35    11426        %INCLUDE KX_DATA_C;
       36    11494        %INCLUDE KV$INT;
       37    12126        /*
PL6.E3A0      #001=KXX_DATA_D File=KXX_DATA_D.:E05TSI                            WED 07/30/97 02:37 Page:2
       38    12127        External declarations.
       39    12128        */
       40    12129    1   DCL KXX$VDI ENTRY(1) ALTRET;
       41    12130    1   DCL KA_ASC95 UBIN WORD SYMREF READONLY;
       42    12131    1   DCL KA_APLBF UBIN WORD SYMREF READONLY;
       43    12132    1   DCL KA_APLBP UBIN WORD SYMREF READONLY;
       44    12133    1   DCL KA_APLTF UBIN WORD SYMREF READONLY;
       45    12134    1   DCL KA_APLTP UBIN WORD SYMREF READONLY;
       46    12135    1   DCL KA_INPFNCTBLHED$ PTR SYMREF READONLY;
       47    12136        /*
       48    12137        Invoke structures/data items to build static initialized copies.
       49    12138        */
       50    12139        %KX_STATS_X29 (FPTN = KX_STATS_X29, STCLASS = STATIC SYMDEF);
       51    12480        %KV$STT (NAME = KV_STT, STCLASS = STATIC SYMDEF);
       52    12874        %KA_MSC (STCLASS = STATIC SYMDEF);
       53    12896        %KA_TRNTBL_MSC (STCLASS = STATIC SYMDEF);
       54    12917        %KX_PRTTBL ( STCLASS = CONSTANT SYMDEF );
       55    12945        /*
       56    12946        Initialize the KV$USRPRM structure.
       57    12947        */
       58    12948        %KV$USRPRM_INT;
       59    12962
       60    12963        %KV$SETPRMPSTPRC (PRMID = KV_PRMID_CTRCHR);
       61    12976        %KV$SETPRMPSTPRC (PRMID = KV_PRMID_HALFDUPLEXPAPERTAPE);
       62    12989        %KV$SETPRMPSTPRC (PRMID = KV_PRMID_FULLDUPLEXPAPERTAPE);
       63    13002        %KV$SETPRMPSTPRC (PRMID = KV_PRMID_LOCALECHO);
       64    13015        %KV$SETPRMPSTPRC (PRMID = KV_PRMID_DISPINPUT);
       65    13028        %KV$SETPRMPSTPRC (PRMID = KV_PRMID_DVCFLWCTRALG);
       66    13041
       67    13042        %KV$STREVTENB (STRTYP = KV_STRTYP_MRD);
       68    13047        %KV$STREVTENB (STRTYP = KV_STRTYP_VDI);
       69    13052
       70    13053        %KV$USRPRM (NAME = KX_USRPRM, STCLASS = STATIC SYMDEF,
       71    13054        TRNTBLHEDPTR$ = KA_TRNTBLHED$,
       72    13055        INPFNCTBLHEDPTR$ = KA_INPFNCTBLHED$,
       73    13056        USRSBR = KXX$VDI,
       74    13057        STT = KV_STT);
PL6.E3A0      #001=KXX_DATA_D File=KXX_DATA_D.:E05TSI                            WED 07/30/97 02:37 Page:3
       75    13108
       76    13109    1   DCL KA_TRNTBLHED$ PTR INIT(ADDR(KA_ASC95)) STATIC;
       77    13110    1   DCL KX_X29_ERR_PAD_LMT UBIN INIT(20) CONSTANT SYMDEF;
       78    13111    1   DCL KX_X3_INT_EQ_BRK(0:31) BIT(1) CONSTANT SYMDEF UNAL
       79    13112    1     INIT('0'B,'1'B,'0'B*6,'0'B,'1'B,'0'B*6,
       80    13113    1          '0'B,'1'B,'0'B*6,'0'B,'1'B,'0'B*6);
       81    13114    1   DCL KX_X3_RST_EQ_BRK(0:31) BIT(1) CONSTANT SYMDEF UNAL
       82    13115    1     INIT('0'B*2,'1'B*2,'0'B*4,
       83    13116    1          '0'B*2,'1'B*2,'0'B*4,
       84    13117    1          '0'B*2,'1'B*2,'0'B*4,
       85    13118    1          '0'B*2,'1'B*2,'0'B*4);
       86    13119    1   DCL KX_X3_IND_EQ_BRK(0:31) BIT(1) CONSTANT SYMDEF UNAL
       87    13120    1     INIT('0'B*4,'1'B*4,'0'B*4,'1'B*4,
       88    13121    1          '0'B*4,'1'B*4,'0'B*4,'1'B*4);
       89    13122    1   DCL KX_BFR_BRK BIT(16) ALIGNED CONSTANT SYMDEF INIT('FE01'X);
       90    13123    1   DCL KX_LINSPDX_X3_TO_CP6(0:18) UBIN BYTE CALIGNED CONSTANT SYMDEF INIT(
       91    13124    1     2,3,6,9,7,1,4,10,5,2,0,9,12,13,14,15,15,15,15 );
       92    13125    1   END KXX_DATA_D;

PL6.E3A0      #001=KXX_DATA_D File=KXX_DATA_D.:E05TSI                            WED 07/30/97 02:37 Page:4
--  Include file information  --

   KV$INT.:E05TOU  is referenced.
   KX_DATA_C.:E05TOU  is referenced.
   KXX_MACROS_M.:E05TOU  is referenced.
   KX_MACROS_M.:E05TOU  is referenced.
   KA_GLB_E.:E05TOU  is referenced.
   KA_GLB.:E05TOU  is referenced.
   KV$GLB.:E05TOU  is referenced.
   KV$GLBCTX.:E05TOU  is referenced.
   KV$VDH.:E05TOU  is referenced.
   KV_PRMID_E.:E05TOU  is referenced.
   KV_ASCCHR_E.:E05TOU  is referenced.
   KV_GLBCNS_E.:E05TOU  is referenced.
   KV_GLBASM_E.:E05TOU  is referenced.
   KV_GLB_M.:E05TOU  is referenced.
   K_ID_E.:E05TOU  is referenced.
   KL_MACRO_C.:E05TOU  is referenced.
   KL_AFCN_C.:E05TOU  is referenced.
   KH$STT.:E05TOU  is referenced.
   G_LCP6_E.:E05TOU  is referenced.
   GT_LCP6_M.:E05TOU  is referenced.
   KI_CP6.:E05TOU  is referenced.
   GF_LCP6_M.:E05TOU  is referenced.
   GM_LCP6_M.:E05TOU  is referenced.
   GU_LCP6_M.:E05TOU  is referenced.
   GJ_LCP6_M.:E05TOU  is referenced.
   GH_LCP6_M.:E05TOU  is referenced.
   LCP_6.:E05TOU  cannot be made into a system file and is referenced.
      No diagnostics issued in procedure KXX_DATA_D.

   No code generated for procedure KXX_DATA_D .
   Procedure KXX_DATA_D requires 4 words of local(AUTO) storage.

    No errors detected in file KXX_DATA_D.:E05TSI    .
PL6.E3A0      #001=KXX_DATA_D File=KXX_DATA_D.:E05TSI                            WED 07/30/97 02:37 Page:5

PL6.E3A0      #001=KXX_DATA_D File=KXX_DATA_D.:E05TSI                            WED 07/30/97 02:37 Page:6

 Object Unit name= KXX_DATA_D                                 File name= KXX_DATA_D.:E05TOU
 UTS= JUL 30 '97 02:37:58.92 WED                              Compiler= PL-6/E31         Sev=      00
 SharedLib= :SHARED_LCP6_SYSTEM                               Alt SharedLib=


    ****  Control sections  ****

 Sect   Type Bound  Init  Size HexSiz  Section name
    0   Data  even  none   788    314  KXX_DATA_D
    1  RoData even  UTS    220     DC  KXX_DATA_D
    2   Proc  even  none     0      0  KXX_DATA_D

    ****  Entry defs  ****

                              Check   Calling
                             calling  sequence
  Sect HexLoc Primary Altret sequence   type   Parms  Name
     2      0   yes            yes     ~proc       0  KXX_DATA_D
PL6.E3A0      #001=KXX_DATA_D File=KXX_DATA_D.:E05TSI                            WED 07/30/97 02:37 Page:7

  ****  Data defs  ****

 Sect HexLoc  Name                           Sect HexLoc  Name
    0      0  KX_STATS_X29                       0     4E  KV_STT
    0    27E  KA_OTPBFRBYTSIZ_BIG                0    27F  KA_OTPBFRBYTSIZ_BIGLOG2
    0    280  KA_OTPBFRBYTSIZ_SML                0    281  KA_OTPBFRBYTSIZ_SMLLOG2
    0    282  KA_OTPUN_BLKLMT                    0    292  KA_OTPBLKLMT
    0    2A2  KA_MINSP_FORPST                    0    2B2  KA_INPLVL
    0    2B3  KA_OTPLVL                          0    2B4  KA_VDHTRCBFRBYTSIZ
    0    2B5  KA_DVCFLWCTRCHR                    0    2B9  KA_LINERRDSCLMT
    0    2BA  KA_LINERRLOGLMT                    0    2BB  KA_TRNTBLCHNCHR_ASC
    0    2BD  KA_TRNTBLCHNCHR_APLB               0    2BF  KA_TRNTBLCHNCHR_APLT
    0    2C1  KA_TRNTBLCHNCHR$                   0    2C9  KA_TRNTBL_FUL$
    0    2D1  KA_TRNTBL_PRT$                     1      0  KX_PRTTBL_ODD
    1     40  KX_PRTTBL_EVN                      1     80  KX_PRTTBL_ONE
    1     C0  KX_PRT_$                           0    2D9  KX_USRPRM
    1     CA  KX_X29_ERR_PAD_LMT                 1     CB  KX_X3_INT_EQ_BRK
    1     CD  KX_X3_RST_EQ_BRK                   1     CF  KX_X3_IND_EQ_BRK
    1     D1  KX_BFR_BRK                         1     D2  KX_LINSPDX_X3_TO_CP6

  ****  Entry refs  ****

         Check        Calling
        calling       sequence
Altret sequence SRef   type   Args  Name
 yes     yes           Std       1 KXX$VDI

  ****  Data refs  ****

  Flags:  r = read only, s = secondary
Flgs Name                             Flgs Name                             Flgs Name
r    KA_ASC95                         r    KA_APLBF                         r    KA_APLBP
r    KA_APLTF                         r    KA_APLTP                         r    KA_INPFNCTBLHED$
r    G$ROS$
PL6.E3A0      #001=KXX_DATA_D File=KXX_DATA_D.:E05TSI                            WED 07/30/97 02:37 Page:8

        1        1        /*M* KXX_DATA_D    X.29 handler global data */
        2        2        /*T***********************************************************/
        3        3        /*T*                                                         */
        4        4        /*T* Copyright (c) Bull HN Information Systems Inc., 1997    */
        5        5        /*T*                                                         */
        6        6        /*T***********************************************************/
        7        7        KXX_DATA_D: PROC;
        8        8        /*
        9        9        INCLUDEs.
       10       10        */
       11       11        %INCLUDE LCP_6;
       12     4290        %INCLUDE KH$STT;  /* For KX_STATS_X29 */
       13     4320        %INCLUDE KL_AFCN_C;  /* For KX_STATS_X29/KV$STT */
       14     4421        %INCLUDE KL_MACRO_C;  /* For KX_STATS_X29/KV$STT */
       15     7773        %INCLUDE K_ID_E;  /* For KX_STATS_X29/KV$STT */
       16     7823        %K#ENTID_E;  /* For KX_STATS_X29/KV$STT */
       17     7842        %K#LYRID_E;  /* For KX_STATS_X29/KV$STT */
       18     7849        %INCLUDE KV_GLB_M;
       19     7971        %INCLUDE KV_GLBASM_E;
       20     7989        %INCLUDE KV_GLBCNS_E;
       21     8330        %KV_STRTYP_E;
       22     8368        %KV_PRTTYP_E;
       23     8375        %INCLUDE KV_ASCCHR_E;
       24     8512        %KV_INPOPRX_E;
       25     8524        %INCLUDE KV_PRMID_E;
       26     8698        %KV_PRMID_E;
       27     8854        %INCLUDE KV$VDH;
       28     9285        %INCLUDE KV$GLBCTX;
       29     9730        %INCLUDE KV$GLB;
       30    10149        %INCLUDE KA_GLB;
       31    10226        %INCLUDE KA_GLB_E;
       32    10304        %KA_HLTOTP_E;
       33    10313        %INCLUDE KX_MACROS_M;
       34    11084        %INCLUDE KXX_MACROS_M;
       35    11426        %INCLUDE KX_DATA_C;
       36    11494        %INCLUDE KV$INT;
       37    12126        /*
PL6.E3A0      #001=KXX_DATA_D File=KXX_DATA_D.:E05TSI                            WED 07/30/97 02:37 Page:9
       38    12127        External declarations.
       39    12128        */
       40    12129    1   DCL KXX$VDI ENTRY(1) ALTRET;
       41    12130    1   DCL KA_ASC95 UBIN WORD SYMREF READONLY;
       42    12131    1   DCL KA_APLBF UBIN WORD SYMREF READONLY;
       43    12132    1   DCL KA_APLBP UBIN WORD SYMREF READONLY;
       44    12133    1   DCL KA_APLTF UBIN WORD SYMREF READONLY;
       45    12134    1   DCL KA_APLTP UBIN WORD SYMREF READONLY;
       46    12135    1   DCL KA_INPFNCTBLHED$ PTR SYMREF READONLY;
       47    12136        /*
       48    12137        Invoke structures/data items to build static initialized copies.
       49    12138        */
       50    12139        %KX_STATS_X29 (FPTN = KX_STATS_X29, STCLASS = STATIC SYMDEF);
       51    12480        %KV$STT (NAME = KV_STT, STCLASS = STATIC SYMDEF);
       52    12874        %KA_MSC (STCLASS = STATIC SYMDEF);
       53    12896        %KA_TRNTBL_MSC (STCLASS = STATIC SYMDEF);
       54    12917        %KX_PRTTBL ( STCLASS = CONSTANT SYMDEF );
       55    12945        /*
       56    12946        Initialize the KV$USRPRM structure.
       57    12947        */
       58    12948        %KV$USRPRM_INT;
       59    12962
       60    12963        %KV$SETPRMPSTPRC (PRMID = KV_PRMID_CTRCHR);
       61    12976        %KV$SETPRMPSTPRC (PRMID = KV_PRMID_HALFDUPLEXPAPERTAPE);
       62    12989        %KV$SETPRMPSTPRC (PRMID = KV_PRMID_FULLDUPLEXPAPERTAPE);
       63    13002        %KV$SETPRMPSTPRC (PRMID = KV_PRMID_LOCALECHO);
       64    13015        %KV$SETPRMPSTPRC (PRMID = KV_PRMID_DISPINPUT);
       65    13028        %KV$SETPRMPSTPRC (PRMID = KV_PRMID_DVCFLWCTRALG);
       66    13041
       67    13042        %KV$STREVTENB (STRTYP = KV_STRTYP_MRD);
       68    13047        %KV$STREVTENB (STRTYP = KV_STRTYP_VDI);
       69    13052
       70    13053        %KV$USRPRM (NAME = KX_USRPRM, STCLASS = STATIC SYMDEF,
       71    13054        TRNTBLHEDPTR$ = KA_TRNTBLHED$,
       72    13055        INPFNCTBLHEDPTR$ = KA_INPFNCTBLHED$,
       73    13056        USRSBR = KXX$VDI,
       74    13057        STT = KV_STT);
PL6.E3A0      #001=KXX_DATA_D File=KXX_DATA_D.:E05TSI                            WED 07/30/97 02:37 Page:10
       75    13108
       76    13109    1   DCL KA_TRNTBLHED$ PTR INIT(ADDR(KA_ASC95)) STATIC;
       77    13110    1   DCL KX_X29_ERR_PAD_LMT UBIN INIT(20) CONSTANT SYMDEF;
       78    13111    1   DCL KX_X3_INT_EQ_BRK(0:31) BIT(1) CONSTANT SYMDEF UNAL
       79    13112    1     INIT('0'B,'1'B,'0'B*6,'0'B,'1'B,'0'B*6,
       80    13113    1          '0'B,'1'B,'0'B*6,'0'B,'1'B,'0'B*6);
       81    13114    1   DCL KX_X3_RST_EQ_BRK(0:31) BIT(1) CONSTANT SYMDEF UNAL
       82    13115    1     INIT('0'B*2,'1'B*2,'0'B*4,
       83    13116    1          '0'B*2,'1'B*2,'0'B*4,
       84    13117    1          '0'B*2,'1'B*2,'0'B*4,
       85    13118    1          '0'B*2,'1'B*2,'0'B*4);
       86    13119    1   DCL KX_X3_IND_EQ_BRK(0:31) BIT(1) CONSTANT SYMDEF UNAL
       87    13120    1     INIT('0'B*4,'1'B*4,'0'B*4,'1'B*4,
       88    13121    1          '0'B*4,'1'B*4,'0'B*4,'1'B*4);
       89    13122    1   DCL KX_BFR_BRK BIT(16) ALIGNED CONSTANT SYMDEF INIT('FE01'X);
       90    13123    1   DCL KX_LINSPDX_X3_TO_CP6(0:18) UBIN BYTE CALIGNED CONSTANT SYMDEF INIT(
       91    13124    1     2,3,6,9,7,1,4,10,5,2,0,9,12,13,14,15,15,15,15 );
       92    13125    1   END KXX_DATA_D;

PL6.E3A0      #001=KXX_DATA_D File=KXX_DATA_D.:E05TSI                            WED 07/30/97 02:37 Page:11
--  Include file information  --

   KV$INT.:E05TOU  is referenced.
   KX_DATA_C.:E05TOU  is referenced.
   KXX_MACROS_M.:E05TOU  is referenced.
   KX_MACROS_M.:E05TOU  is referenced.
   KA_GLB_E.:E05TOU  is referenced.
   KA_GLB.:E05TOU  is referenced.
   KV$GLB.:E05TOU  is referenced.
   KV$GLBCTX.:E05TOU  is referenced.
   KV$VDH.:E05TOU  is referenced.
   KV_PRMID_E.:E05TOU  is referenced.
   KV_ASCCHR_E.:E05TOU  is referenced.
   KV_GLBCNS_E.:E05TOU  is referenced.
   KV_GLBASM_E.:E05TOU  is referenced.
   KV_GLB_M.:E05TOU  is referenced.
   K_ID_E.:E05TOU  is referenced.
   KL_MACRO_C.:E05TOU  is referenced.
   KL_AFCN_C.:E05TOU  is referenced.
   KH$STT.:E05TOU  is referenced.
   G_LCP6_E.:E05TOU  is referenced.
   GT_LCP6_M.:E05TOU  is referenced.
   KI_CP6.:E05TOU  is referenced.
   GF_LCP6_M.:E05TOU  is referenced.
   GM_LCP6_M.:E05TOU  is referenced.
   GU_LCP6_M.:E05TOU  is referenced.
   GJ_LCP6_M.:E05TOU  is referenced.
   GH_LCP6_M.:E05TOU  is referenced.
   LCP_6.:E05TOU  cannot be made into a system file and is referenced.
      No diagnostics issued in procedure KXX_DATA_D.
PL6.E3A0      #001=KXX_DATA_D File=KXX_DATA_D.:E05TSI                            WED 07/30/97 02:37 Page:12

 **** Variables and constants ****

  ****  Section 000  Data  KXX_DATA_D

  ****  Scalars and arrays  ****
HexLoc.c.b A Datatyp(siz) R M Lvl/name                 HexLoc.c.b A Datatyp(siz) R M Lvl/name

   2BD-0-0/b UBIN(8)     r     1 KA_TRNTBLCHNCHR_APLB(0:3)
   2BF-0-0/b UBIN(8)     r     1 KA_TRNTBLCHNCHR_APLT(0:3)
   2BB-0-0/b UBIN(8)     r     1 KA_TRNTBLCHNCHR_ASC(0:3)
   312-0-0/w PTR         r     1 KA_TRNTBLHED$             4E-0-0/w STRC(8960)  r     1 KV_STT

  ****  Section 001 RoData KXX_DATA_D

  ****  Scalars and arrays  ****
HexLoc.c.b A Datatyp(siz) R M Lvl/name                 HexLoc.c.b A Datatyp(siz) R M Lvl/name

    40-0-0/c UBIN(8)     r     1 KX_PRTTBL_EVN(0:127)
     0-0-0/c UBIN(8)     r     1 KX_PRTTBL_ODD(0:127)
    80-0-0/c UBIN(8)     r     1 KX_PRTTBL_ONE(0:127)

  ****  SYMREF variables  ****

  ****  Scalars and arrays  ****
HexLoc.c.b A Datatyp(siz) R M Lvl/name                 HexLoc.c.b A Datatyp(siz) R M Lvl/name

     0-0-0/w UBIN(16)    r     1 KA_APLBF                   0-0-0/w UBIN(16)    r     1 KA_APLBP
     0-0-0/w UBIN(16)    r     1 KA_APLTF                   0-0-0/w UBIN(16)    r     1 KA_APLTP
     0-0-0/w UBIN(16)    r     1 KA_ASC95                   0-0-0/w PTR         r     1 KA_INPFNCTBLHED$


   No code generated for procedure KXX_DATA_D .
   Procedure KXX_DATA_D requires 4 words of local(AUTO) storage.

    No errors detected in file KXX_DATA_D.:E05TSI    .
PL6.E3A0      #001=KXX_DATA_D File=KXX_DATA_D.:E05TSI                            WED 07/30/97 02:37 Page:13
          *** CROSS REFERENCE LISTING ***
**     DENOTES     IDENTIFIER DEFINITION
<<                 IDENTIFIER'S VALUE SET
>>                 IDENTIFIER'S VALUE USED
<>                 IDENTIFIER SET AND/OR USED
--                 IDENTIFIER REFERENCED
PL6.E3A0      #001=KXX_DATA_D File=KXX_DATA_D.:E05TSI                            WED 07/30/97 02:37 Page:14
          MINI XREF LISTING

KA_APLBF
     12131**DCL     12913--DCLINIT
KA_APLBP
     12132**DCL     12914--DCLINIT
KA_APLTF
     12133**DCL     12913--DCLINIT
KA_APLTP
     12134**DCL     12914--DCLINIT
KA_ASC95
     12130**DCL     12913--DCLINIT 12914--DCLINIT 13109--DCLINIT
KA_INPFNCTBLHED$
     12135**DCL     13104--DCLINIT
KA_TRNTBLCHNCHR_APLB
     12909**DCL     12912--DCLINIT
KA_TRNTBLCHNCHR_APLT
     12910**DCL     12912--DCLINIT
KA_TRNTBLCHNCHR_ASC
     12909**DCL     12912--DCLINIT
KA_TRNTBLHED$
     13109**DCL     13105--DCLINIT
KV_STT
     12507**DCL     13105--DCLINIT
KV_STT.REQSTATS.DSPMSK
     12753**DCL     12759--REDEF
KV_STT.REQSTATS.SLCMSK
     12794**DCL     12801--REDEF
KXX$VDI
     12129**DCL-ENT 13105--DCLINIT
KX_PRTTBL_EVN
     12934**DCL     12943--DCLINIT
KX_PRTTBL_ODD
     12930**DCL     12942--DCLINIT
PL6.E3A0      #001=KXX_DATA_D File=KXX_DATA_D.:E05TSI                            WED 07/30/97 02:37 Page:15
KX_PRTTBL_ONE
     12938**DCL     12943--DCLINIT
KX_STATS_X29.REQSTATS.DSPMSK
     12400**DCL     12406--REDEF
KX_STATS_X29.REQSTATS.SLCMSK
     12441**DCL     12448--REDEF
