VERSION E05

PL6.E3A0      #001=KX_DATA_D File=KX_DATA_D.:E05TSI                              WED 07/30/97 02:38 Page:1
        1        1        /*M* KX_DATA_D - Static data generation for the X25 handler  */
        2        2        /*T***********************************************************/
        3        3        /*T*                                                         */
        4        4        /*T* Copyright (c) Bull HN Information Systems Inc., 1997    */
        5        5        /*T*                                                         */
        6        6        /*T***********************************************************/
        7        7        /*X*   PLM = 4, IND=3, CTI=3, DCI=6, IAD=0, DTI=6, AND=Y, CSI=3, THI=3, STI=3, DMC=Y
                 7         */
        8        8        /*P* NAME: KX_DATA_D                 */
        9        9        /*P* PURPOSE: Generation of static data for the X.25 handler  */
       10       10
       11       11        KX_DATA_D: PROC;
       12       12
       13       13        /*F* NAME: KX_DATA_D                 */
       14       14        /*F* PURPOSE: Generation of static data for the X.25 handler  */
       15       15
       16       16        /*D* NAME: KX_DATA_D                 */
       17       17        /*D* PURPOSE: This routine is a dummy routine that
       18       18                      exists for the generation of static
       19       19                      data for the X.25 handler that is
       20       20                      SYMREFed in other modules.  */
       21       21        /*D* CALL: none                      */
       22       22        /*D* INPUT: none                     */
       23       23        /*D* OUTPUT: none                    */
       24       24        %EJECT;
PL6.E3A0      #001=KX_DATA_D File=KX_DATA_D.:E05TSI                              WED 07/30/97 02:38 Page:2
       25       25        /*****************************************************************
       26       26        *                                                                *
       27       27        *                           Includes                             *
       28       28        *                                                                *
       29       29        *****************************************************************/
       30       30
       31       31        %INCLUDE K_ID_E;   /*  needed for KX_STATS */
       32       81        %K#ENTID_E;
       33      100        %K#LYRID_E;
       34      107        %INCLUDE LCP_6;
       35     4386        %INCLUDE KL_MACRO_C;
       36     7738        %INCLUDE KL_AFCN_C;
       37     7839        %INCLUDE KX_EQUS_E;
       38     8278        %INCLUDE KX_MACROS_M;
       39     9049        %INCLUDE KX_DATA_C;
       40     9117        %INCLUDE KV_GLBCNS_E;
       41     9458        %KV#CQ_HNDID_E;
       42     9463        %EJECT;
PL6.E3A0      #001=KX_DATA_D File=KX_DATA_D.:E05TSI                              WED 07/30/97 02:38 Page:3
       43     9464        /*****************************************************************
       44     9465        *                                                                *
       45     9466        *                           External References                  *
       46     9467        *                                                                *
       47     9468        *****************************************************************/
       48     9469
       49     9470    1   DCL KXV$VCNTW ENTRY (1) ALTRET;
       50     9471    1   DCL KXX$X29 ENTRY (1);
       51     9472        %EJECT
       52     9473        /*****************************************************************
       53     9474        *                                                                *
       54     9475        *                           Static                               *
       55     9476        *                                                                *
       56     9477        *****************************************************************/
       57     9478
       58     9479        %KX_DATA ( STCLASS = "STATIC SYMDEF" );
       59    10169        %EJECT;
PL6.E3A0      #001=KX_DATA_D File=KX_DATA_D.:E05TSI                              WED 07/30/97 02:38 Page:4
       60    10170        /*****************************************************************
       61    10171        *                                                                *
       62    10172        *                           Procedure                            *
       63    10173        *                                                                *
       64    10174        *****************************************************************/
       65    10175
       66    10176        /*
       67    10177                                             This is just dummy procedure -
       68    10178                                             this routine is never called.
       69    10179        */
       70    10180
       71    10181    1   END KX_DATA_D;

PL6.E3A0      #001=KX_DATA_D File=KX_DATA_D.:E05TSI                              WED 07/30/97 02:38 Page:5
--  Include file information  --

   KV_GLBCNS_E.:E05TOU  is referenced.
   KX_DATA_C.:E05TOU  is referenced.
   KX_MACROS_M.:E05TOU  is referenced.
   KX_EQUS_E.:E05TOU  is referenced.
   KL_AFCN_C.:E05TOU  is referenced.
   KL_MACRO_C.:E05TOU  is referenced.
   G_LCP6_E.:E05TOU  is referenced.
   GT_LCP6_M.:E05TOU  is referenced.
   KI_CP6.:E05TOU  is referenced.
   GF_LCP6_M.:E05TOU  is referenced.
   GM_LCP6_M.:E05TOU  is referenced.
   GU_LCP6_M.:E05TOU  is referenced.
   GJ_LCP6_M.:E05TOU  is referenced.
   GH_LCP6_M.:E05TOU  is referenced.
   LCP_6.:E05TOU  cannot be made into a system file and is referenced.
   K_ID_E.:E05TOU  is referenced.
      No diagnostics issued in procedure KX_DATA_D.

   No code generated for procedure KX_DATA_D .
   Procedure KX_DATA_D requires 4 words of local(AUTO) storage.

    No errors detected in file KX_DATA_D.:E05TSI    .

PL6.E3A0      #001=KX_DATA_D File=KX_DATA_D.:E05TSI                              WED 07/30/97 02:38 Page:6

 Object Unit name= KX_DATA_D                                  File name= KX_DATA_D.:E05TOU
 UTS= JUL 30 '97 02:38:15.16 WED                              Compiler= PL-6/E31         Sev=      00
 SharedLib= :SHARED_LCP6_SYSTEM                               Alt SharedLib=


    ****  Control sections  ****

 Sect   Type Bound  Init  Size HexSiz  Section name
    0   Data  even  none   234     EA  KX_DATA_D
    1   Proc  even  none     0      0  KX_DATA_D

    ****  Entry defs  ****

                              Check   Calling
                             calling  sequence
  Sect HexLoc Primary Altret sequence   type   Parms  Name
     1      0   yes            yes     ~proc       0  KX_DATA_D

  ****  Data defs  ****

 Sect HexLoc  Name                           Sect HexLoc  Name
    0      0  KX_CNTX                            0      4  KX_SLLIST
    0      8  KX_ERRORS                          0      9  KX_INPUT_TCB$
    0      B  KX_OUTPUT_TCB$                     0      D  KX_BUF
    0     37  KX_RSV_INCCB$                      0     43  KX_TMRBLK
    0     47  KX_STATS_HDLC                      0     79  KX_STATS_X25
    0     C7  KX_CALLING_CM$                     0     C9  KX_INHLVL
    0     CA  KX_MEM                             0     CB  KX_IOMEM
    0     CC  KX_RSC                             0     CD  KX_ATR
    0     CE  KX_TYPAHDBFRLMT                    0     CF  KX_LINERRLOGLMT
    0     D0  KX_LINERRLOGBFRLMT                 0     D1  KX_LINERRDSCLMT
    0     D2  KX_X29MLTMR                        0     D3  KX_TRC
    0     D4  KX_VDHTRC                          0     D5  KX_WRSYSLOGMSK
    0     D6  KX_TRCBFR                          0     D7  KX_RCVQSIZ
    0     D8  KX_SNDQSIZ                         0     D9  KX_MEMBITS
    0     DA  KX_IOBFRS                          0     DB  KX_AVL_MEM
    0     DD  KX_AVL_IOMEM                       0     DF  KX_SYSLOG
PL6.E3A0      #001=KX_DATA_D File=KX_DATA_D.:E05TSI                              WED 07/30/97 02:38 Page:7
    0     E3  KX_PM_CQHNDID                      0     E4  KX_PM$

  ****  Entry refs  ****

         Check        Calling
        calling       sequence
Altret sequence SRef   type   Args  Name
 yes     yes           Std       1 KXV$VCNTW

  ****  Data refs  ****

  Flags:  r = read only, s = secondary
Flgs Name                             Flgs Name                             Flgs Name
r    G$ROS$
PL6.E3A0      #001=KX_DATA_D File=KX_DATA_D.:E05TSI                              WED 07/30/97 02:38 Page:8

        1        1        /*M* KX_DATA_D - Static data generation for the X25 handler  */
        2        2        /*T***********************************************************/
        3        3        /*T*                                                         */
        4        4        /*T* Copyright (c) Bull HN Information Systems Inc., 1997    */
        5        5        /*T*                                                         */
        6        6        /*T***********************************************************/
        7        7        /*X*  PLM = 4, IND=3, CTI=3, DCI=6, IAD=0, DTI=6, AND=Y, CSI=3, THI=3, STI=3, DMC=Y
                 7         */
        8        8        /*P* NAME: KX_DATA_D                 */
        9        9        /*P* PURPOSE: Generation of static data for the X.25 handler  */
       10       10
       11       11        KX_DATA_D: PROC;
       12       12
       13       13        /*F* NAME: KX_DATA_D                 */
       14       14        /*F* PURPOSE: Generation of static data for the X.25 handler  */
       15       15
       16       16        /*D* NAME: KX_DATA_D                 */
       17       17        /*D* PURPOSE: This routine is a dummy routine that
       18       18                      exists for the generation of static
       19       19                      data for the X.25 handler that is
       20       20                      SYMREFed in other modules.  */
       21       21        /*D* CALL: none                      */
       22       22        /*D* INPUT: none                     */
       23       23        /*D* OUTPUT: none                    */
       24       24        %EJECT;
PL6.E3A0      #001=KX_DATA_D File=KX_DATA_D.:E05TSI                              WED 07/30/97 02:38 Page:9
       25       25        /*****************************************************************
       26       26        *                                                                *
       27       27        *                           Includes                             *
       28       28        *                                                                *
       29       29        *****************************************************************/
       30       30
       31       31        %INCLUDE K_ID_E;   /*  needed for KX_STATS */
       32       81        %K#ENTID_E;
       33      100        %K#LYRID_E;
       34      107        %INCLUDE LCP_6;
       35     4386        %INCLUDE KL_MACRO_C;
       36     7738        %INCLUDE KL_AFCN_C;
       37     7839        %INCLUDE KX_EQUS_E;
       38     8278        %INCLUDE KX_MACROS_M;
       39     9049        %INCLUDE KX_DATA_C;
       40     9117        %INCLUDE KV_GLBCNS_E;
       41     9458        %KV#CQ_HNDID_E;
       42     9463        %EJECT;
PL6.E3A0      #001=KX_DATA_D File=KX_DATA_D.:E05TSI                              WED 07/30/97 02:38 Page:10
       43     9464        /*****************************************************************
       44     9465        *                                                                *
       45     9466        *                           External References                  *
       46     9467        *                                                                *
       47     9468        *****************************************************************/
       48     9469
       49     9470    1   DCL KXV$VCNTW ENTRY (1) ALTRET;
       50     9471    1   DCL KXX$X29 ENTRY (1);
       51     9472        %EJECT
       52     9473        /*****************************************************************
       53     9474        *                                                                *
       54     9475        *                           Static                               *
       55     9476        *                                                                *
       56     9477        *****************************************************************/
       57     9478
       58     9479        %KX_DATA ( STCLASS = "STATIC SYMDEF" );
       59    10169        %EJECT;
PL6.E3A0      #001=KX_DATA_D File=KX_DATA_D.:E05TSI                              WED 07/30/97 02:38 Page:11
       60    10170        /*****************************************************************
       61    10171        *                                                                *
       62    10172        *                           Procedure                            *
       63    10173        *                                                                *
       64    10174        *****************************************************************/
       65    10175
       66    10176        /*
       67    10177                                             This is just dummy procedure -
       68    10178                                             this routine is never called.
       69    10179        */
       70    10180
       71    10181    1   END KX_DATA_D;

PL6.E3A0      #001=KX_DATA_D File=KX_DATA_D.:E05TSI                              WED 07/30/97 02:38 Page:12
--  Include file information  --

   KV_GLBCNS_E.:E05TOU  is referenced.
   KX_DATA_C.:E05TOU  is referenced.
   KX_MACROS_M.:E05TOU  is referenced.
   KX_EQUS_E.:E05TOU  is referenced.
   KL_AFCN_C.:E05TOU  is referenced.
   KL_MACRO_C.:E05TOU  is referenced.
   G_LCP6_E.:E05TOU  is referenced.
   GT_LCP6_M.:E05TOU  is referenced.
   KI_CP6.:E05TOU  is referenced.
   GF_LCP6_M.:E05TOU  is referenced.
   GM_LCP6_M.:E05TOU  is referenced.
   GU_LCP6_M.:E05TOU  is referenced.
   GJ_LCP6_M.:E05TOU  is referenced.
   GH_LCP6_M.:E05TOU  is referenced.
   LCP_6.:E05TOU  cannot be made into a system file and is referenced.
   K_ID_E.:E05TOU  is referenced.
      No diagnostics issued in procedure KX_DATA_D.
PL6.E3A0      #001=KX_DATA_D File=KX_DATA_D.:E05TSI                              WED 07/30/97 02:38 Page:13

 **** Variables and constants ****

  ****  Section 000  Data  KX_DATA_D

  ****  Scalars and arrays  ****
HexLoc.c.b A Datatyp(siz) R M Lvl/name                 HexLoc.c.b A Datatyp(siz) R M Lvl/name

    E4-0-0/b EPTR        r     1 KX_PM$(0:2)


   No code generated for procedure KX_DATA_D .
   Procedure KX_DATA_D requires 4 words of local(AUTO) storage.

    No errors detected in file KX_DATA_D.:E05TSI    .
PL6.E3A0      #001=KX_DATA_D File=KX_DATA_D.:E05TSI                              WED 07/30/97 02:38 Page:14
          *** CROSS REFERENCE LISTING ***
**     DENOTES     IDENTIFIER DEFINITION
<<                 IDENTIFIER'S VALUE SET
>>                 IDENTIFIER'S VALUE USED
<>                 IDENTIFIER SET AND/OR USED
--                 IDENTIFIER REFERENCED
PL6.E3A0      #001=KX_DATA_D File=KX_DATA_D.:E05TSI                              WED 07/30/97 02:38 Page:15
          MINI XREF LISTING

KXV$VCNTW
      9470**DCL-ENT 10167--DCLINIT
KX_STATS_HDLC.REQSTATS.DSPMSK
      9766**DCL      9772--REDEF
KX_STATS_HDLC.REQSTATS.SLCMSK
      9807**DCL      9814--REDEF
KX_STATS_X25.REQSTATS.DSPMSK
     10091**DCL     10097--REDEF
KX_STATS_X25.REQSTATS.SLCMSK
     10132**DCL     10139--REDEF
