VERSION E05

PL6.E3A0      #001=KA_ASC_D File=KX_TRNTBL_D.:E05TSI                             WED 07/30/97 02:39 Page:1
        1        1        /*M* ASCII Async translate tables - including APL ones. */
        2        2        /*T***********************************************************/
        3        3        /*T*                                                         */
        4        4        /*T* Copyright (c) Bull HN Information Systems Inc., 1997    */
        5        5        /*T*                                                         */
        6        6        /*T***********************************************************/
        7        7        %SUB KA_OTPCTRSTRCHR_2='00'X;
        8        8        %INCLUDE KA_ASC_D;

PL6.E3A0      #001=KA_ASC_D File=KX_TRNTBL_D.:E05TSI                             WED 07/30/97 02:39 Page:2
--  Include file information  --

   KV_TRNTBL_M.:E05TOU  is referenced.
   KA_GLBASM_E.:E05TOU  is referenced.
   KA_GLB_E.:E05TOU  is referenced.
   KV_GLBCNS_E.:E05TOU  is referenced.
   KV_ASCCHR_E.:E05TOU  is referenced.
   KV_APLCHR_E.:E05TOU  is referenced.
   KV$GLB.:E05TOU  is referenced.
   KV$INT.:E05TOU  is referenced.
   KA_ASC_D.:E05TOU  cannot be made into a system file and is referenced.
      No diagnostics issued in procedure KA_ASC_D.

   No code generated for procedure KA_ASC_D .
   Procedure KA_ASC_D requires 4 words of local(AUTO) storage.

    No errors detected in file KX_TRNTBL_D.:E05TSI    .

PL6.E3A0      #001=KA_ASC_D File=KX_TRNTBL_D.:E05TSI                             WED 07/30/97 02:39 Page:3

 Object Unit name= KA_ASC_D                                   File name= KX_TRNTBL_D.:E05TOU
 UTS= JUL 30 '97 02:39:04.56 WED                              Compiler= PL-6/E31         Sev=      00
 SharedLib= :SHARED_LCP6_SYSTEM                               Alt SharedLib=


    ****  Control sections  ****

 Sect   Type Bound  Init  Size HexSiz  Section name
    0  RoData even  UTS   1495    5D7  KA_ASC_D
    1   Proc  even  none     0      0  KA_ASC_D

    ****  Entry defs  ****

                              Check   Calling
                             calling  sequence
  Sect HexLoc Primary Altret sequence   type   Parms  Name
     1      0   yes            yes     ~proc       0  KA_ASC_D

  ****  Data defs  ****

 Sect HexLoc  Name                           Sect HexLoc  Name
    0    275  KA_ASC95                           0    295  KA_ASC64
    0    2B5  KA_ASC95M                          0    2D5  KA_ASC64B
    0    2F5  KA_ASC64C                          0    315  KA_ASC8I
    0    335  KA_ASC8                            0    355  KA_APLBF
    0    375  KA_APLBP                           0    395  KA_APLTF
    0    3B5  KA_APLTP

  ****  Data refs  ****

  Flags:  r = read only, s = secondary
Flgs Name                             Flgs Name                             Flgs Name
r    G$ROS$
PL6.E3A0      #001=KA_ASC_D File=KX_TRNTBL_D.:E05TSI                             WED 07/30/97 02:39 Page:4

        1        1        /*M* ASCII Async translate tables - including APL ones. */
        2        2        /*T***********************************************************/
        3        3        /*T*                                                         */
        4        4        /*T* Copyright (c) Bull HN Information Systems Inc., 1997    */
        5        5        /*T*                                                         */
        6        6        /*T***********************************************************/
        7        7        %SUB KA_OTPCTRSTRCHR_2='00'X;
        8        8        %INCLUDE KA_ASC_D;

PL6.E3A0      #001=KA_ASC_D File=KX_TRNTBL_D.:E05TSI                             WED 07/30/97 02:39 Page:5
--  Include file information  --

   KV_TRNTBL_M.:E05TOU  is referenced.
   KA_GLBASM_E.:E05TOU  is referenced.
   KA_GLB_E.:E05TOU  is referenced.
   KV_GLBCNS_E.:E05TOU  is referenced.
   KV_ASCCHR_E.:E05TOU  is referenced.
   KV_APLCHR_E.:E05TOU  is referenced.
   KV$GLB.:E05TOU  is referenced.
   KV$INT.:E05TOU  is referenced.
   KA_ASC_D.:E05TOU  cannot be made into a system file and is referenced.
      No diagnostics issued in procedure KA_ASC_D.
PL6.E3A0      #001=KA_ASC_D File=KX_TRNTBL_D.:E05TSI                             WED 07/30/97 02:39 Page:6

 **** Variables and constants ****

  ****  Section 000 RoData KA_ASC_D

  ****  Scalars and arrays  ****
HexLoc.c.b A Datatyp(siz) R M Lvl/name                 HexLoc.c.b A Datatyp(siz) R M Lvl/name

   355-0-0/w STRC(499)   r     1 KA_APLBF                 375-0-0/w STRC(499)   r     1 KA_APLBP
   395-0-0/w STRC(499)   r     1 KA_APLTF                 3B5-0-0/w STRC(499)   r     1 KA_APLTP
   295-0-0/w STRC(499)   r     1 KA_ASC64                 2D5-0-0/w STRC(499)   r     1 KA_ASC64B
   2F5-0-0/w STRC(499)   r     1 KA_ASC64C                335-0-0/w STRC(499)   r     1 KA_ASC8
   315-0-0/w STRC(499)   r     1 KA_ASC8I                 275-0-0/w STRC(499)   r     1 KA_ASC95
   2B5-0-0/w STRC(499)   r     1 KA_ASC95M                54E-0-0/w STRC(216)   r     1 KA_EXTOTPAPL_BF
   55C-0-0/w STRC(216)   r     1 KA_EXTOTPAPL_BP          5AA-0-0/w STRC(712)   r     1 KA_EXTOTPAPL_CMN
   597-0-0/w STRC(296)   r     1 KA_EXTOTPAPL_F           586-0-0/w STRC(272)   r     1 KA_EXTOTPAPL_P
   56A-0-0/w STRC(216)   r     1 KA_EXTOTPAPL_TF          578-0-0/w STRC(216)   r     1 KA_EXTOTPAPL_TP
   3D5-0-0/c STRC(1408)  r     1 KA_TRNINPAPL_1           42D-0-0/c STRC(216)   r     1 KA_TRNINPAPL_2B
   43B-0-0/c STRC(216)   r     1 KA_TRNINPAPL_2T          267-0-0/c STRC(112)   r     1 KA_TRNINPASC64B_2
   26E-0-0/c STRC(112)   r     1 KA_TRNINPASC64C_2        260-0-0/c STRC(112)   r     1 KA_TRNINPASC95M_2
   1B9-0-0/c STRC(2560)  r     1 KA_TRNINPASC95_1         259-0-0/c STRC(112)   r     1 KA_TRNINPASC95_2
   449-0-0/c STRC(2048)  r     1 KA_TRNOTPAPL_1           4C9-0-0/c STRC(2123)  r     1 KA_TRNOTPAPL_2
   1B0-0-0/c STRC(53)    r     1 KA_TRNOTPASC64C_3         80-0-0/c STRC(2048)  r     1 KA_TRNOTPASC64_1
   100-0-0/c STRC(2048)  r     1 KA_TRNOTPASC8_1          1B4-0-0/c STRC(71)    r     1 KA_TRNOTPASC8_3
     0-0-0/c STRC(2048)  r     1 KA_TRNOTPASC95_1         180-0-0/c STRC(701)   r     1 KA_TRNOTPASC95_2
   1AC-0-0/c STRC(53)    r     1 KA_TRNOTPASC95_3


   No code generated for procedure KA_ASC_D .
   Procedure KA_ASC_D requires 4 words of local(AUTO) storage.

    No errors detected in file KX_TRNTBL_D.:E05TSI    .
PL6.E3A0      #001=KA_ASC_D File=KX_TRNTBL_D.:E05TSI                             WED 07/30/97 02:39 Page:7
          *** CROSS REFERENCE LISTING ***
**     DENOTES     IDENTIFIER DEFINITION
<<                 IDENTIFIER'S VALUE SET
>>                 IDENTIFIER'S VALUE USED
<>                 IDENTIFIER SET AND/OR USED
--                 IDENTIFIER REFERENCED
PL6.E3A0      #001=KA_ASC_D File=KX_TRNTBL_D.:E05TSI                             WED 07/30/97 02:39 Page:8
          MINI XREF LISTING

KA_APLBF
     36543**DCL     36383--DCLINIT 36552--DCLINIT
KA_APLBF.OTPESCCHR
     36561**DCL     36561--REDEF
KA_APLBP
     36626**DCL     36547--DCLINIT 36635--DCLINIT
KA_APLBP.OTPESCCHR
     36644**DCL     36644--REDEF
KA_APLTF
     36710**DCL     36630--DCLINIT 36719--DCLINIT
KA_APLTF.OTPESCCHR
     36728**DCL     36728--REDEF
KA_APLTP
     36793**DCL     36714--DCLINIT 36802--DCLINIT
KA_APLTP.OTPESCCHR
     36811**DCL     36811--REDEF
KA_ASC64
     36067**DCL     35993--DCLINIT 36076--DCLINIT
KA_ASC64.OTPESCCHR
     36085**DCL     36085--REDEF
KA_ASC64B
     36223**DCL     36149--DCLINIT 36232--DCLINIT
KA_ASC64B.OTPESCCHR
     36241**DCL     36241--REDEF
KA_ASC64C
     36301**DCL     36227--DCLINIT 36310--DCLINIT
KA_ASC64C.OTPESCCHR
     36319**DCL     36319--REDEF
KA_ASC8
     36458**DCL     36305--DCLINIT 36467--DCLINIT
KA_ASC8.OTPESCCHR
     36476**DCL     36476--REDEF
PL6.E3A0      #001=KA_ASC_D File=KX_TRNTBL_D.:E05TSI                             WED 07/30/97 02:39 Page:9
KA_ASC8I
     36379**DCL     36388--DCLINIT 36462--DCLINIT
KA_ASC8I.OTPESCCHR
     36397**DCL     36397--REDEF
KA_ASC95
     35989**DCL     35998--DCLINIT
KA_ASC95.OTPESCCHR
     36007**DCL     36007--REDEF
KA_ASC95M
     36145**DCL     36071--DCLINIT 36154--DCLINIT
KA_ASC95M.OTPESCCHR
     36163**DCL     36163--REDEF
KA_EXTOTPAPL_BF
     59599**DCL     36560--DCLINIT
KA_EXTOTPAPL_BP
     59937**DCL     36643--DCLINIT
KA_EXTOTPAPL_CMN
     61140**DCL     60976--DCLINIT 61078--DCLINIT
KA_EXTOTPAPL_F
     61038**DCL     59618--DCLINIT 60297--DCLINIT
KA_EXTOTPAPL_P
     60957**DCL     59956--DCLINIT 60635--DCLINIT
KA_EXTOTPAPL_TF
     60278**DCL     36727--DCLINIT
KA_EXTOTPAPL_TP
     60616**DCL     36810--DCLINIT
KA_TRNINPAPL_1
     36826**DCL     36558--DCLINIT 36641--DCLINIT 36725--DCLINIT 36808--DCLINIT
KA_TRNINPAPL_1.TKNTBL
     51788**DCL     36560--DCLINIT 36643--DCLINIT 36727--DCLINIT 36810--DCLINIT
KA_TRNINPAPL_2B
     51803**DCL     36558--DCLINIT 36641--DCLINIT
KA_TRNINPAPL_2T
     52249**DCL     36725--DCLINIT 36808--DCLINIT
KA_TRNINPASC64B_2
     35743**DCL     36238--DCLINIT
PL6.E3A0      #001=KA_ASC_D File=KX_TRNTBL_D.:E05TSI                             WED 07/30/97 02:39 Page:10
KA_TRNINPASC64C_2
     35841**DCL     36316--DCLINIT
KA_TRNINPASC95M_2
     35601**DCL     36160--DCLINIT
KA_TRNINPASC95_1
     24115**DCL     36004--DCLINIT 36082--DCLINIT 36160--DCLINIT 36238--DCLINIT 36316--DCLINIT 36394--DCLINIT
     36473--DCLINIT
KA_TRNINPASC95_1.SPCESC
     35542**DCL     36006--DCLINIT 36084--DCLINIT 36162--DCLINIT 36240--DCLINIT 36318--DCLINIT 36396--DCLINIT
     36475--DCLINIT 36560--DCLINIT 36643--DCLINIT 36727--DCLINIT 36810--DCLINIT
KA_TRNINPASC95_1.TKNTBL
     35538**DCL     36006--DCLINIT 36084--DCLINIT 36162--DCLINIT 36240--DCLINIT 36318--DCLINIT 36396--DCLINIT
     36475--DCLINIT
KA_TRNINPASC95_2
     35554**DCL     36004--DCLINIT 36082--DCLINIT 36394--DCLINIT 36473--DCLINIT
KA_TRNOTPAPL_1
     52698**DCL     36558--DCLINIT 36641--DCLINIT 36725--DCLINIT 36808--DCLINIT
KA_TRNOTPAPL_2
     56751**DCL     36559--DCLINIT 36642--DCLINIT 36726--DCLINIT 36809--DCLINIT
KA_TRNOTPASC64C_3
     23510**DCL     36317--DCLINIT
KA_TRNOTPASC64_1
      7054**DCL     36082--DCLINIT 36238--DCLINIT 36316--DCLINIT
KA_TRNOTPASC8_1
     13845**DCL     36473--DCLINIT
KA_TRNOTPASC8_3
     23753**DCL     36474--DCLINIT
KA_TRNOTPASC95_1
      2314**DCL     36004--DCLINIT 36160--DCLINIT 36394--DCLINIT
KA_TRNOTPASC95_2
     21600**DCL     36005--DCLINIT 36083--DCLINIT 36161--DCLINIT 36239--DCLINIT 36317--DCLINIT 36395--DCLINIT
     36474--DCLINIT
KA_TRNOTPASC95_3
     23278**DCL     36005--DCLINIT 36083--DCLINIT 36161--DCLINIT 36239--DCLINIT 36395--DCLINIT
