VERSION E05

PL6.E3A0      #001=KYM$MAIN File=KYM$MAIN.:E05TSI                                WED 07/30/97 02:43 Page:1
        1        1        /*M* KYM$MAIN - Main routine for the URP handler */
        2        2        /*T***********************************************************/
        3        3        /*T*                                                         */
        4        4        /*T* Copyright (c) Bull HN Information Systems Inc., 1997    */
        5        5        /*T*                                                         */
        6        6        /*T***********************************************************/
        7        7        /*X*   DMR,PLM=7,IND=3,CTI=3,SDI=3,MCL=10,CSI=3,DTI=3,DCI=6,
        8        8               ECI=0,DIN=7,CSU=3,AND      */
        9        9        KYM$MAIN: PROC MAIN;
       10       10        /**/
       11       11        %INCLUDE G_JIT_M;
       12      276        %G$JIT_E;
       13      338        %INCLUDE LCP_6;
       14     4617        %INCLUDE GH_HARDWARE_M;
       15     4715        %INCLUDE KH_MACRO_C;
       16     5458        %INCLUDE KL_CONTROL_C;
       17     5838        %INCLUDE KL_AFCN_C;
       18     5939        %INCLUDE KL_MACRO_C;
       19     9291        %INCLUDE K_ID_E;
       20     9341        %K#ENTID_E;
       21     9360        %K#LYRID_E;
       22     9367        %INCLUDE KV_GLBCNS_E;
       23     9708        %INCLUDE KV_PRMID_E;
       24     9882        %INCLUDE KV$VDH;
       25    10313        %INCLUDE KV$GLB;
       26    10732        %INCLUDE KV$GLBCTX;
       27    11177        %INCLUDE KV$PRM;
       28    11390        %INCLUDE KV$USR;
       29    11702        %INCLUDE KY_URP_M;
       30    11997        %INCLUDE KY_SUBS_C;
       31    12086        %INCLUDE KH$STT;
       32    12116        %INCLUDE KV_GLB_M;
       33    12238        %INCLUDE KY_DATA_R;
       34    13033        %INCLUDE KH$CLK;
       35    13403        %INCLUDE KH_CLKFNC_E;
       36    13448        %INCLUDE KY_SCODE_C;
       37    13462        %INCLUDE KH_SCREECH_M;
PL6.E3A0      #001=KYM$MAIN File=KYM$MAIN.:E05TSI                                WED 07/30/97 02:43 Page:2
       38    13473        /**/
       39    13474        %KV$VDH_VDHINT (STCLASS=STATIC);
       40    13493    1          DCL PRIVS BIT(32) CONSTANT INIT(
       41    13494    1   %(G_PR_MSYS#|G_PR_INTCON#|G_PR_CQ#|G_PR_SCREECH#|G_PR_SNAP#|G_PR_EXMM#|G_PR_SPCLMM#)
             13494            );
       42    13495        %FPT_SPRIV (AUTH=YES,PRC=YES,PRIV=PRIVS);
       43    13518        %FPT_INTCON (IENTRY=KYN$INTR_HNDLR,
       44    13519                     PRIVILEGED=YES);
       45    13540        %FPT_GDS (RESULTS=SEGMENT,
       46    13541                  IOBUF=YES);
       47    13565        %VLP_SEGMENT (FPTN=SEGMENT);
       48    13586        %VLP_SCODE (FPTN = BADCLK, FCG = KY, MID = M, ERR# = S$KY_BADCLK, STCLASS=CONSTANT);
       49    13647        %KV_PRMID_E;
       50    13803        %KV_STRTYP_E;
       51    13841        /**/
       52    13842    1          DCL KYA$ADMIN ENTRY(1) ALTRET;
       53    13843        %KH_ENTDEFS;
       54    13850    1          DCL KYN$INTR_HNDLR ENTRY ASYNC;
       55    13851    1          DCL KYV$VDI ENTRY(1);
       56    13852    1          DCL KVV$VDHINT ENTRY(1) ALTRET;
       57    13853    1          DCL KHC$CLOCK ENTRY(1) ALTRET;
       58    13854    1          DCL KHD$SCREECH ENTRY(1);
       59    13855    1          DCL KVM$RCV ENTRY;
       60    13856    1          DCL KYT$TIMETICK ENTRY(1);
       61    13857        /**/
       62    13858    1          DCL KY_ASC95 UBIN WORD SYMREF;   /* Only need address of this */
       63    13859    1          DCL KY_ASC95$ PTR STATIC INIT(ADDR(KY_ASC95));
       64    13860    1          DCL KY_INPFNCTBLHED$ PTR CONSTANT INIT(ADDR(NIL));
       65    13861        %KH$CTLTBL (FPTN=KH_CTLTBL,STCLASS="STATIC SYMDEF",
       66    13862               INTLVL = KY_INT_LEV,
       67    13863               MEM = KY_MEM,
       68    13864               RES = KY_RES,
       69    13865               ATTR = KY_ATTR,
       70    13866               RCVCQBYTSIZ = KV$VDH_VDHINT.RCVCQ_BYTSIZ,
       71    13867               SNDCQBYTSIZ = KV$VDH_VDHINT.SNDCQ_BYTSIZ,
       72    13868               MMRINTCHC = KV$VDH_VDHINT.DBG,
       73    13869               VDHTRC = KY_VDHTRCBFRBYTSIZ,
PL6.E3A0      #001=KYM$MAIN File=KYM$MAIN.:E05TSI                                WED 07/30/97 02:43 Page:3
       74    13870               HIPARM=KL_HNDLRPARM_STD_HI);
       75    14082        /**/
       76    14083        %KH$CLK(FPTN = KH_CLK,STCLASS = CONSTANT ,FNC = %KH#CLK_SETCLK,SBR= KYT$TIMETICK,PRD
             14083            =5,PRDUNT=%KH#C_SEC);
       77    14232        %KH$CLK(FPTN = KH@CLK,STCLASS=AUTO,FNC = %KH#CLK_SETCLK);
       78    14381        %EJECT;
PL6.E3A0      #001=KYM$MAIN File=KYM$MAIN.:E05TSI                                WED 07/30/97 02:43 Page:4
       79    14382    1          CALL KHA$INIT ALTRET(BAG_IT);
       80    14383    1          CALL KHA$INIT_CONTROL(KH_CTLTBL) ALTRET(BAG_IT);
       81    14384    1          FPT_GDS.V.PAGES = KY_MEM;
       82    14385    1          CALL M$GDS(FPT_GDS) ALTRET(BAG_IT);
       83    14386    1          KY_USRPRM.USRSBR$ = ENTADDR(KYV$VDI);
       84    14387    1          KY_USRPRM.STT$=ADDR(KV_STT);
       85    14388    1          KY_USRPRM.STREVTENB(%KV_STRTYP_VDI) = '1'B;
       86    14389    1          KY_USRPRM.TRNTBLHEDPTR$ = ADDR(KY_ASC95$);
       87    14390    1          KY_USRPRM.INPFNCTBLHEDPTR$=ADDR(KY_INPFNCTBLHED$);
       88    14391    1          KY_USRPRM.INHLVL = KY_INT_LEV;
       89    14392    1          CALL M$SPRIV(FPT_SPRIV) ALTRET(BAG_IT);
       90    14393    1          CALL M$SYS ALTRET(BAG_IT);
       91    14394    1          KY_STT_URP.REQSTATS.SLCENT(%KH#ENTID_URP)='1'B;
       92    14395    1          KY_STT_URP.REQSTATS.SLCENT(%KH#ENTID_VDH)='1'B;
       93    14396    1          KY_STT_URP.REQSTATS.DSPENT(%KH#ENTID_URP)='1'B;
       94    14397               /*  */
       95    14398    1          KV_STT.REQSTATS.SLCENT(%KH#ENTID_URP)='1'B;
       96    14399    1          KV_STT.REQSTATS.SLCENT(%KH#ENTID_VDH)='1'B;
       97    14400    1          KV_STT.REQSTATS.DSPENT(%KH#ENTID_VDH)='1'B;
       98    14401    1          KV$VDH_VDHINT.BFRBGN$ = SEGMENT.BASE$;
       99    14402    1          KV$VDH_VDHINT.BFREND$ = PINCRW(SEGMENT.BASE$,SEGMENT.PAGES*256);
      100    14403    1          CALL KVV$VDHINT(KV$VDH_VDHINT) ALTRET(BAG_IT);
      101    14404        /* Establish the interupt connections */
      102    14405    1          FPT_INTCON.V.RUNLEVEL = KY_INT_LEV;
      103    14406    1          FPT_INTCON.V.LEVEL = KY_INT_LEV + 1;
      104    14407    1          CALL M$INTCON(FPT_INTCON) ALTRET(BAG_IT);
      105    14408    1          CALL KHA$INIT_CHANTBL(KY_RES,KY_ATTR,ENTADDR(KYA$ADMIN)) ALTRET(BAG_IT);
      106    14409    1          CALL KHA$INIT_DONE ALTRET(BAG_IT);
      107    14410
      108    14411        /* set system clock to expire at 5 sec. intervals */
      109    14412    1          KH@CLK = KH_CLK;
      110    14413    1          KH@CLK.FNC = %KH#CLK_SETCLKPERM;
      111    14414    2          CALL KHC$CLOCK(KH@CLK) WHENALTRETURN DO;
      112    14415             /*S* SCREECH_CODE: KYM-S$KY_BADCLK
      113    14416                  MESSAGE: Clock services has failed
      114    14417                  %KH$SCREECH(COD=BADCLK); */
      115    14418    2             END;
PL6.E3A0      #001=KYM$MAIN File=KYM$MAIN.:E05TSI                                WED 07/30/97 02:43 Page:5
      116    14419                /* Now exit to VDH - this call never returns */
      117    14420    1          CALL KVM$RCV;
      118    14421    1          RETURN;
      119    14422    1   BAG_IT:;
      120    14423    1          CALL M$XXX;
      121    14424    1   END KYM$MAIN;

PL6.E3A0      #001=KYM$MAIN File=KYM$MAIN.:E05TSI                                WED 07/30/97 02:43 Page:6
--  Include file information  --

   KH_SCREECH_M.:E05TOU  is referenced.
   KY_SCODE_C.:E05TOU  is referenced.
   KH_CLKFNC_E.:E05TOU  is referenced.
   KH$CLK.:E05TOU  is referenced.
   KY_DATA_R.:E05TOU  cannot be made into a system file and is referenced.
   KV_GLB_M.:E05TOU  is referenced.
   KH$STT.:E05TOU  is referenced.
   KY_SUBS_C.:E05TOU  is referenced.
   KY_URP_M.:E05TOU  is referenced.
   KV$USR.:E05TOU  is referenced.
   KV$PRM.:E05TOU  is referenced.
   KV$GLBCTX.:E05TOU  is referenced.
   KV$GLB.:E05TOU  is referenced.
   KV$VDH.:E05TOU  is referenced.
   KV_PRMID_E.:E05TOU  is referenced.
   KV_GLBCNS_E.:E05TOU  is referenced.
   K_ID_E.:E05TOU  is referenced.
   KL_MACRO_C.:E05TOU  is referenced.
   KL_AFCN_C.:E05TOU  is referenced.
   KL_CONTROL_C.:E05TOU  is referenced.
   KH_MACRO_C.:E05TOU  is referenced.
   GH_HARDWARE_M.:E05TOU  is referenced.
   G_LCP6_E.:E05TOU  is referenced.
   GT_LCP6_M.:E05TOU  is referenced.
   KI_CP6.:E05TOU  is referenced.
   GF_LCP6_M.:E05TOU  is referenced.
   GM_LCP6_M.:E05TOU  is referenced.
   GU_LCP6_M.:E05TOU  is referenced.
   GJ_LCP6_M.:E05TOU  is referenced.
   GH_LCP6_M.:E05TOU  is referenced.
   LCP_6.:E05TOU  cannot be made into a system file and is referenced.
   G_JIT_M.:E05TOU  is referenced.
      No diagnostics issued in procedure KYM$MAIN.
PL6.E3A0      #001=KYM$MAIN File=KYM$MAIN.:E05TSI                                WED 07/30/97 02:43 Page:7

   Procedure KYM$MAIN requires 219 words for executable code.
   Procedure KYM$MAIN requires 24 words of local(AUTO) storage.

    No errors detected in file KYM$MAIN.:E05TSI    .

PL6.E3A0      #001=KYM$MAIN File=KYM$MAIN.:E05TSI                                WED 07/30/97 02:43 Page:8

 Object Unit name= KYM$MAIN                                   File name= KYM$MAIN.:E05TOU
 UTS= JUL 30 '97 02:43:25.20 WED                              Compiler= PL-6/E31         Sev=      00
 SharedLib= :SHARED_LCP6_SYSTEM                               Alt SharedLib=


    ****  Control sections  ****

 Sect   Type Bound  Init  Size HexSiz  Section name
    0   Data  even  none    89     59  KYM$MAIN
    1  RoData even  UTS     18     12  KYM$MAIN
    2   Proc  even  none   219     DB  KYM$MAIN
    3  RoData even  none     4      4  KYM$MAIN

    ****  Entry defs  ****

                              Check   Calling
                             calling  sequence
  Sect HexLoc Primary Altret sequence   type   Parms  Name
     2      0   yes            yes      Main       0  KYM$MAIN

  ****  Data defs  ****

 Sect HexLoc  Name                           Sect HexLoc  Name
    0     28  KH_CTLTBL
PL6.E3A0      #001=KYM$MAIN File=KYM$MAIN.:E05TSI                                WED 07/30/97 02:43 Page:9

  ****  Entry refs  ****

         Check        Calling
        calling       sequence
Altret sequence SRef   type   Args  Name
         yes          Async      0 KYN$INTR_HNDLR
         yes           Std       1 KYT$TIMETICK
 yes     yes           Std       3 KHA$INIT
         yes           Std       1 KYV$VDI
 yes     yes           Std       3 KHA$INIT_CHANTBL
 yes     yes           Std       3 KHA$INIT_DONE
 yes     yes           Std       1 KHC$CLOCK
         yes           Std       0 KVM$RCV
 yes     yes           Std       1 KYA$ADMIN
 yes     yes           Std       3 KHA$INIT_CONTROL
 yes     yes           Std       1 KVV$VDHINT
                       nStd      0 X6A_MAUTO
                       nStd      0 X6A_MARET

  ****  Data refs  ****

  Flags:  r = read only, s = secondary
Flgs Name                             Flgs Name                             Flgs Name
     KY_USRPRM                             KY_STT_URP                            KV_STT
     KY_INT_LEV                            KY_MEM                                KY_RES
     KY_ATTR                               KY_VDHTRCBFRBYTSIZ                    KY_ASC95
r    G$ROS$
PL6.E3A0      #001=KYM$MAIN File=KYM$MAIN.:E05TSI                                WED 07/30/97 02:43 Page:10


        1        1        /*M* KYM$MAIN - Main routine for the URP handler */
        2        2        /*T***********************************************************/
        3        3        /*T*                                                         */
        4        4        /*T* Copyright (c) Bull HN Information Systems Inc., 1997    */
        5        5        /*T*                                                         */
        6        6        /*T***********************************************************/
        7        7        /*X*   DMR,PLM=7,IND=3,CTI=3,SDI=3,MCL=10,CSI=3,DTI=3,DCI=6,
        8        8               ECI=0,DIN=7,CSU=3,AND      */
        9        9        KYM$MAIN: PROC MAIN;

      9   2 000000  D380 0000 0000  xent KYM$MAIN        LNJ,B5   X6A_MAUTO
          2 000003       0018 0000                       DC       24,0

       10       10        /**/
       11       11        %INCLUDE G_JIT_M;
       12      276        %G$JIT_E;
       13      338        %INCLUDE LCP_6;
       14     4617        %INCLUDE GH_HARDWARE_M;
       15     4715        %INCLUDE KH_MACRO_C;
       16     5458        %INCLUDE KL_CONTROL_C;
       17     5838        %INCLUDE KL_AFCN_C;
       18     5939        %INCLUDE KL_MACRO_C;
       19     9291        %INCLUDE K_ID_E;
       20     9341        %K#ENTID_E;
       21     9360        %K#LYRID_E;
       22     9367        %INCLUDE KV_GLBCNS_E;
       23     9708        %INCLUDE KV_PRMID_E;
       24     9882        %INCLUDE KV$VDH;
       25    10313        %INCLUDE KV$GLB;
       26    10732        %INCLUDE KV$GLBCTX;
       27    11177        %INCLUDE KV$PRM;
       28    11390        %INCLUDE KV$USR;
       29    11702        %INCLUDE KY_URP_M;
       30    11997        %INCLUDE KY_SUBS_C;
       31    12086        %INCLUDE KH$STT;
       32    12116        %INCLUDE KV_GLB_M;
PL6.E3A0      #001=KYM$MAIN File=KYM$MAIN.:E05TSI                                WED 07/30/97 02:43 Page:11
       33    12238        %INCLUDE KY_DATA_R;
       34    13033        %INCLUDE KH$CLK;
       35    13403        %INCLUDE KH_CLKFNC_E;
       36    13448        %INCLUDE KY_SCODE_C;
       37    13462        %INCLUDE KH_SCREECH_M;
       38    13473        /**/
       39    13474        %KV$VDH_VDHINT (STCLASS=STATIC);
       40    13493    1          DCL PRIVS BIT(32) CONSTANT INIT(
       41    13494    1  %(G_PR_MSYS#|G_PR_INTCON#|G_PR_CQ#|G_PR_SCREECH#|G_PR_SNAP#|G_PR_EXMM#|G_PR_SPCLMM#)
             13494            );
       42    13495        %FPT_SPRIV (AUTH=YES,PRC=YES,PRIV=PRIVS);
       43    13518        %FPT_INTCON (IENTRY=KYN$INTR_HNDLR,
       44    13519                     PRIVILEGED=YES);
       45    13540        %FPT_GDS (RESULTS=SEGMENT,
       46    13541                  IOBUF=YES);
       47    13565        %VLP_SEGMENT (FPTN=SEGMENT);
       48    13586       %VLP_SCODE (FPTN = BADCLK, FCG = KY, MID = M, ERR# = S$KY_BADCLK, STCLASS=CONSTANT);
       49    13647        %KV_PRMID_E;
       50    13803        %KV_STRTYP_E;
       51    13841        /**/
       52    13842    1          DCL KYA$ADMIN ENTRY(1) ALTRET;
       53    13843        %KH_ENTDEFS;
       54    13850    1          DCL KYN$INTR_HNDLR ENTRY ASYNC;
       55    13851    1          DCL KYV$VDI ENTRY(1);
       56    13852    1          DCL KVV$VDHINT ENTRY(1) ALTRET;
       57    13853    1          DCL KHC$CLOCK ENTRY(1) ALTRET;
       58    13854    1          DCL KHD$SCREECH ENTRY(1);
       59    13855    1          DCL KVM$RCV ENTRY;
       60    13856    1          DCL KYT$TIMETICK ENTRY(1);
       61    13857        /**/
       62    13858    1          DCL KY_ASC95 UBIN WORD SYMREF;   /* Only need address of this */
       63    13859    1          DCL KY_ASC95$ PTR STATIC INIT(ADDR(KY_ASC95));
       64    13860    1          DCL KY_INPFNCTBLHED$ PTR CONSTANT INIT(ADDR(NIL));
       65    13861        %KH$CTLTBL (FPTN=KH_CTLTBL,STCLASS="STATIC SYMDEF",
       66    13862               INTLVL = KY_INT_LEV,
       67    13863               MEM = KY_MEM,
       68    13864               RES = KY_RES,
PL6.E3A0      #001=KYM$MAIN File=KYM$MAIN.:E05TSI                                WED 07/30/97 02:43 Page:12
       69    13865               ATTR = KY_ATTR,
       70    13866               RCVCQBYTSIZ = KV$VDH_VDHINT.RCVCQ_BYTSIZ,
       71    13867               SNDCQBYTSIZ = KV$VDH_VDHINT.SNDCQ_BYTSIZ,
       72    13868               MMRINTCHC = KV$VDH_VDHINT.DBG,
       73    13869               VDHTRC = KY_VDHTRCBFRBYTSIZ,
       74    13870               HIPARM=KL_HNDLRPARM_STD_HI);
       75    14082        /**/
       76    14083       %KH$CLK(FPTN = KH_CLK,STCLASS = CONSTANT ,FNC = %KH#CLK_SETCLK,SBR= KYT$TIMETICK,PRD
             14083            =5,PRDUNT=%KH#C_SEC);
       77    14232        %KH$CLK(FPTN = KH@CLK,STCLASS=AUTO,FNC = %KH#CLK_SETCLK);
       78    14381        %EJECT;
PL6.E3A0      #001=KYM$MAIN File=KYM$MAIN.:E05TSI                                WED 07/30/97 02:43 Page:13
       79    14382    1          CALL KHA$INIT ALTRET(BAG_IT);

  14382   2 000005  CBF0 0000                            LAB,B4   0,IMO
          2 000007  E380 0000 0000  xent                 LNJ,B6   KHA$INIT
          2 00000A       00CA                            DC       s:14413,PREL

       80    14383    1          CALL KHA$INIT_CONTROL(KH_CTLTBL) ALTRET(BAG_IT);

  14383   2 00000B  BB80 0000 0000  03                   LAB,B3   0
          2 00000E  CBF0 0100                            LAB,B4   256,IMO
          2 000010  E380 0000 0000  xent                 LNJ,B6   KHA$INIT_CONTROL
          2 000013       00C1                            DC       s:14413,PREL

       81    14384    1          FPT_GDS.V.PAGES = KY_MEM;

  14384   2 000014  E800 0000 0000  xsym                 LDR,R6   KY_MEM
          2 000017  EF00 0000 0021  00                   STR,R6   FPT_GDS+6

       82    14385    1          CALL M$GDS(FPT_GDS) ALTRET(BAG_IT);

  14385   2 00001A  BB80 0000 001B  00                   LAB,B3   FPT_GDS
          2 00001D  B870 0902                            LDR,R3   2306,IMO
          2 00001F  0001                                 MCL
          2 000020       00B4                            DC       s:14413,PREL

       83    14386    1          KY_USRPRM.USRSBR$ = ENTADDR(KYV$VDI);

  14386   2 000021  EB80 0000 0000  xent                 LAB,B6   KYV$VDI
          2 000024  EF80 0000 0035  xsym                 STB,B6   KY_USRPRM+53

       84    14387    1          KY_USRPRM.STT$=ADDR(KV_STT);

  14387   2 000027  DB80 0000 0000  xsym                 LAB,B5   KV_STT
          2 00002A  DF80 0000 0033  xsym                 STB,B5   KY_USRPRM+51

       85    14388    1          KY_USRPRM.STREVTENB(%KV_STRTYP_VDI) = '1'B;

PL6.E3A0      #001=KYM$MAIN File=KYM$MAIN.:E05TSI                                WED 07/30/97 02:43 Page:14
  14388   2 00002D  8900 0000 002C  xsym                 LBT,'0004'X       KY_USRPRM+44
  14388   2 000030       0004

       86    14389    1          KY_USRPRM.TRNTBLHEDPTR$ = ADDR(KY_ASC95$);

  14389   2 000031  CB80 0000 0026  00                   LAB,B4   KY_ASC95$
          2 000034  CF80 0000 0031  xsym                 STB,B4   KY_USRPRM+49

       87    14390    1          KY_USRPRM.INPFNCTBLHEDPTR$=ADDR(KY_INPFNCTBLHED$);

  14390   2 000037  BB80 0000 0005  01                   LAB,B3   KY_INPFNCTBLHED$
          2 00003A  BF80 0000 002F  xsym                 STB,B3   KY_USRPRM+47

       88    14391    1          KY_USRPRM.INHLVL = KY_INT_LEV;

  14391   2 00003D  E800 0000 0000  xsym                 LDR,R6   KY_INT_LEV
          2 000040  EF00 0000 0000  xsym                 STR,R6   KY_USRPRM

       89    14392    1          CALL M$SPRIV(FPT_SPRIV) ALTRET(BAG_IT);

  14392   2 000043  BB80 0000 0008  00                   LAB,B3   FPT_SPRIV
          2 000046  B870 0CD0                            LDR,R3   3280,IMO
          2 000048  0001                                 MCL
          2 000049       008B                            DC       s:14413,PREL

       90    14393    1          CALL M$SYS ALTRET(BAG_IT);

  14393   2 00004A  3C43                                 LDV,R3   67
          2 00004B  0001                                 MCL
          2 00004C       0088                            DC       s:14413,PREL

       91    14394    1          KY_STT_URP.REQSTATS.SLCENT(%KH#ENTID_URP)='1'B;

  14394   2 00004D  8900 0000 0012  xsym                 LBT,'0400'X       KY_STT_URP+18
  14394   2 000050       0400

       92    14395    1          KY_STT_URP.REQSTATS.SLCENT(%KH#ENTID_VDH)='1'B;
PL6.E3A0      #001=KYM$MAIN File=KYM$MAIN.:E05TSI                                WED 07/30/97 02:43 Page:15

  14395   2 000051  8900 0000 0012  xsym                 LBT,'0020'X       KY_STT_URP+18
  14395   2 000054       0020

       93    14396    1          KY_STT_URP.REQSTATS.DSPENT(%KH#ENTID_URP)='1'B;

  14396   2 000055  8900 0000 0010  xsym                 LBT,'0400'X       KY_STT_URP+16
  14396   2 000058       0400

       94    14397               /*  */
       95    14398    1          KV_STT.REQSTATS.SLCENT(%KH#ENTID_URP)='1'B;

  14398   2 000059  8900 0000 0012  xsym                 LBT,'0400'X       KV_STT+18
  14398   2 00005C       0400

       96    14399    1          KV_STT.REQSTATS.SLCENT(%KH#ENTID_VDH)='1'B;

  14399   2 00005D  8900 0000 0012  xsym                 LBT,'0020'X       KV_STT+18
  14399   2 000060       0020

       97    14400    1          KV_STT.REQSTATS.DSPENT(%KH#ENTID_VDH)='1'B;

  14400   2 000061  8900 0000 0010  xsym                 LBT,'0020'X       KV_STT+16
  14400   2 000064       0020

       98    14401    1          KV$VDH_VDHINT.BFRBGN$ = SEGMENT.BASE$;

  14401   2 000065  EC80 0000 0023  00                   LDB,B6   SEGMENT
          2 000068  EF80 0000 0000  00                   STB,B6   KV$VDH_VDHINT

       99    14402    1          KV$VDH_VDHINT.BFREND$ = PINCRW(SEGMENT.BASE$,SEGMENT.PAGES*256);

  14402   2 00006B  F800 0000 0025  00                   LDR,R7   SEGMENT+2
          2 00006E  6C00                                 LDV,R6   0
          2 00006F  7088                                 DOL,R7   8
          2 000070  8400 0000 0023  00                   AID      SEGMENT
          2 000073  8D00 0000 0002  00                   SDI      KV$VDH_VDHINT+2
PL6.E3A0      #001=KYM$MAIN File=KYM$MAIN.:E05TSI                                WED 07/30/97 02:43 Page:16

      100    14403    1          CALL KVV$VDHINT(KV$VDH_VDHINT) ALTRET(BAG_IT);

  14403   2 000076  BB80 0000 0002  03                   LAB,B3   +2
          2 000079  CBF0 0100                            LAB,B4   256,IMO
          2 00007B  E380 0000 0000  xent                 LNJ,B6   KVV$VDHINT
          2 00007E       0056                            DC       s:14413,PREL

      101    14404        /* Establish the interupt connections */
      102    14405    1          FPT_INTCON.V.RUNLEVEL = KY_INT_LEV;

  14405   2 00007F  E800 0000 0000  xsym                 LDR,R6   KY_INT_LEV
          2 000082  EF00 0000 0018  00                   STR,R6   FPT_INTCON+6

      103    14406    1          FPT_INTCON.V.LEVEL = KY_INT_LEV + 1;

  14406   2 000085  6E01                                 ADV,R6   1
          2 000086  EF00 0000 0017  00                   STR,R6   FPT_INTCON+5

      104    14407    1          CALL M$INTCON(FPT_INTCON) ALTRET(BAG_IT);

  14407   2 000089  BB80 0000 0012  00                   LAB,B3   FPT_INTCON
          2 00008C  B870 0441                            LDR,R3   1089,IMO
          2 00008E  0001                                 MCL
          2 00008F       0045                            DC       s:14413,PREL

      105    14408    1          CALL KHA$INIT_CHANTBL(KY_RES,KY_ATTR,ENTADDR(KYA$ADMIN)) ALTRET(BAG_IT);

  14408   2 000090  EB80 0000 0000  xent                 LAB,B6   KYA$ADMIN
          2 000093  EFC7 0010                            STB,B6   KH@CLK+12,AUTO
          2 000095  DBC7 0010                            LAB,B5   KH@CLK+12,AUTO
          2 000097  DFC7 0016                            STB,B5   KH@CLK+18,AUTO
          2 000099  CB80 0000 0000  xsym                 LAB,B4   KY_ATTR
          2 00009C  CFC7 0014                            STB,B4   KH@CLK+16,AUTO
          2 00009E  BB80 0000 0000  xsym                 LAB,B3   KY_RES
          2 0000A1  BFC7 0012                            STB,B3   KH@CLK+14,AUTO
          2 0000A3  BBC7 0012                            LAB,B3   KH@CLK+14,AUTO
PL6.E3A0      #001=KYM$MAIN File=KYM$MAIN.:E05TSI                                WED 07/30/97 02:43 Page:17
          2 0000A5  CBF0 0300                            LAB,B4   768,IMO
          2 0000A7  E380 0000 0000  xent                 LNJ,B6   KHA$INIT_CHANTBL
          2 0000AA       002A                            DC       s:14413,PREL

      106    14409    1          CALL KHA$INIT_DONE ALTRET(BAG_IT);

  14409   2 0000AB  CBF0 0000                            LAB,B4   0,IMO
          2 0000AD  E380 0000 0000  xent                 LNJ,B6   KHA$INIT_DONE
          2 0000B0       0024                            DC       s:14413,PREL

      107    14410
      108    14411        /* set system clock to expire at 5 sec. intervals */
      109    14412    1          KH@CLK = KH_CLK;

  14412   2 0000B1  AB80 0000 0000  01                   LAB,B2   PRIVS
          2 0000B4  2C0E                                 LDV,R2   14
          2 0000B5  6C16                                 LDV,R6   22
          2 0000B6  BB87                                 LAB,B3   ,AUTO
          2 0000B7  3C08                                 LDV,R3   8
          2 0000B8  0008                                 MMM

      110    14413    1          KH@CLK.FNC = %KH#CLK_SETCLKPERM;

  14413   2 0000B9  6C02                                 LDV,R6   2
          2 0000BA  EAC7 0009                            SRM,R6,'00FF'X    KH@CLK+5,AUTO
          2 0000BC       00FF

      111    14414    2          CALL KHC$CLOCK(KH@CLK) WHENALTRETURN DO;

  14414   2 0000BD  EBC7 0004                            LAB,B6   KH@CLK,AUTO
          2 0000BF  EFC7 0010                            STB,B6   KH@CLK+12,AUTO
          2 0000C1  BBC7 0010                            LAB,B3   KH@CLK+12,AUTO
          2 0000C3  CBF0 0100                            LAB,B4   256,IMO
          2 0000C5  E380 0000 0000  xent                 LNJ,B6   KHC$CLOCK
          2 0000C8       0003                            DC       s:14420,PREL
          2 0000C9  0F81 0001                            B        s:14420,PREL

PL6.E3A0      #001=KYM$MAIN File=KYM$MAIN.:E05TSI                                WED 07/30/97 02:43 Page:18
      112    14415             /*S* SCREECH_CODE: KYM-S$KY_BADCLK
      113    14416                  MESSAGE: Clock services has failed
      114    14417                  %KH$SCREECH(COD=BADCLK); */
      115    14418    2             END;

      116    14419                /* Now exit to VDH - this call never returns */
      117    14420    1          CALL KVM$RCV;

  14420   2 0000CB  CBF0 0000                            LAB,B4   0,IMO
          2 0000CD  E380 0000 0000  xent                 LNJ,B6   KVM$RCV
          2 0000D0       0001                            DC       s:14421,PREL

      118    14421    1          RETURN;

  14421   2 0000D1  C380 0000 0000  xent                 LNJ,B4   X6A_MARET

  14413   2                              BAG_IT          null
      119    14422    1   BAG_IT:;
      120    14423    1          CALL M$XXX;

  14423   2 0000D4  B870 0082            BAG_IT          LDR,R3   130,IMO
          2 0000D6  0001                                 MCL
          2 0000D7       0000                            DC       s:14413+3,PREL

      121    14424    1   END KYM$MAIN;

  14424   2 0000D8  C380 0000 0000  xent                 LNJ,B4   X6A_MARET

PL6.E3A0      #001=KYM$MAIN File=KYM$MAIN.:E05TSI                                WED 07/30/97 02:43 Page:19
--  Include file information  --

   KH_SCREECH_M.:E05TOU  is referenced.
   KY_SCODE_C.:E05TOU  is referenced.
   KH_CLKFNC_E.:E05TOU  is referenced.
   KH$CLK.:E05TOU  is referenced.
   KY_DATA_R.:E05TOU  cannot be made into a system file and is referenced.
   KV_GLB_M.:E05TOU  is referenced.
   KH$STT.:E05TOU  is referenced.
   KY_SUBS_C.:E05TOU  is referenced.
   KY_URP_M.:E05TOU  is referenced.
   KV$USR.:E05TOU  is referenced.
   KV$PRM.:E05TOU  is referenced.
   KV$GLBCTX.:E05TOU  is referenced.
   KV$GLB.:E05TOU  is referenced.
   KV$VDH.:E05TOU  is referenced.
   KV_PRMID_E.:E05TOU  is referenced.
   KV_GLBCNS_E.:E05TOU  is referenced.
   K_ID_E.:E05TOU  is referenced.
   KL_MACRO_C.:E05TOU  is referenced.
   KL_AFCN_C.:E05TOU  is referenced.
   KL_CONTROL_C.:E05TOU  is referenced.
   KH_MACRO_C.:E05TOU  is referenced.
   GH_HARDWARE_M.:E05TOU  is referenced.
   G_LCP6_E.:E05TOU  is referenced.
   GT_LCP6_M.:E05TOU  is referenced.
   KI_CP6.:E05TOU  is referenced.
   GF_LCP6_M.:E05TOU  is referenced.
   GM_LCP6_M.:E05TOU  is referenced.
   GU_LCP6_M.:E05TOU  is referenced.
   GJ_LCP6_M.:E05TOU  is referenced.
   GH_LCP6_M.:E05TOU  is referenced.
   LCP_6.:E05TOU  cannot be made into a system file and is referenced.
   G_JIT_M.:E05TOU  is referenced.
      No diagnostics issued in procedure KYM$MAIN.
PL6.E3A0      #001=KYM$MAIN File=KYM$MAIN.:E05TSI                                WED 07/30/97 02:43 Page:20

 **** Variables and constants ****

  ****  Section 000  Data  KYM$MAIN

  ****  Scalars and arrays  ****
HexLoc.c.b A Datatyp(siz) R M Lvl/name                 HexLoc.c.b A Datatyp(siz) R M Lvl/name

    1B-0-0/w STRC(128)   r     1 FPT_GDS                   12-0-0/w STRC(144)   r     1 FPT_INTCON
     8-0-0/w STRC(160)   r     1 FPT_SPRIV                 28-0-0/w STRC(784)   r     1 KH_CTLTBL
     0-0-0/w STRC(128)   r     1 KV$VDH_VDHINT             26-0-0/w PTR         r     1 KY_ASC95$
    23-0-0/w STRC(48)    r     1 SEGMENT

  ****  Section 001 RoData KYM$MAIN

  ****  Scalars and arrays  ****
HexLoc.c.b A Datatyp(siz) R M Lvl/name                 HexLoc.c.b A Datatyp(siz) R M Lvl/name

     7-0-0/w STRC(176)   r     1 KH_CLK                     5-0-0/w PTR         r     1 KY_INPFNCTBLHED$
     0-0-0/b BIT (32)    r     1 PRIVS

  ****  Auto variables  ****

  ****  Scalars and arrays  ****
HexLoc.c.b A Datatyp(siz) R M Lvl/name                 HexLoc.c.b A Datatyp(siz) R M Lvl/name

     4-0-0/w STRC(176)   r     1 KH@CLK

  ****  SYMREF variables  ****

  ****  Scalars and arrays  ****
HexLoc.c.b A Datatyp(siz) R M Lvl/name                 HexLoc.c.b A Datatyp(siz) R M Lvl/name

     0-0-0/w STRC(8960)  r     1 KV_STT                     0-0-0/w UBIN(16)    r     1 KY_ASC95
     0-0-0/b BIT (16)    r     1 KY_ATTR                    0-0-0/w UBIN(16)    r     1 KY_INT_LEV
     0-0-0/w UBIN(16)    r     1 KY_MEM                     0-0-0/w CHAR(2)     r     1 KY_RES
     0-0-0/w STRC(672)   r     1 KY_STT_URP                 0-0-0/w STRC(912)   r     1 KY_USRPRM
     0-0-0/w UBIN(16)    r     1 KY_VDHTRCBFRBYTSIZ
PL6.E3A0      #001=KYM$MAIN File=KYM$MAIN.:E05TSI                                WED 07/30/97 02:43 Page:21


   Procedure KYM$MAIN requires 219 words for executable code.
   Procedure KYM$MAIN requires 24 words of local(AUTO) storage.

    No errors detected in file KYM$MAIN.:E05TSI    .
PL6.E3A0      #001=KYM$MAIN File=KYM$MAIN.:E05TSI                                WED 07/30/97 02:43 Page:22
          *** CROSS REFERENCE LISTING ***
**     DENOTES     IDENTIFIER DEFINITION
<<                 IDENTIFIER'S VALUE SET
>>                 IDENTIFIER'S VALUE USED
<>                 IDENTIFIER SET AND/OR USED
--                 IDENTIFIER REFERENCED
PL6.E3A0      #001=KYM$MAIN File=KYM$MAIN.:E05TSI                                WED 07/30/97 02:43 Page:23
          MINI XREF LISTING

BAG_IT
     14413**LABEL   14382--CALLALT 14383--CALLALT 14385--CALLALT 14392--CALLALT 14393--CALLALT 14403--CALLALT
     14407--CALLALT 14408--CALLALT 14409--CALLALT
FPT_GDS
     13554**DCL     14385<>CALL
FPT_GDS.V
     13557**DCL     13557--DCLINIT
FPT_GDS.V.PAGES
     13561**DCL     14384<<ASSIGN
FPT_INTCON
     13532**DCL     14407<>CALL
FPT_INTCON.V
     13536**DCL     13534--DCLINIT
FPT_INTCON.V.LEVEL
     13536**DCL     14406<<ASSIGN
FPT_INTCON.V.RUNLEVEL
     13536**DCL     14405<<ASSIGN
FPT_SPRIV
     13508**DCL     14392<>CALL
FPT_SPRIV.V
     13510**DCL     13510--DCLINIT
KH@CLK
     14246**DCL     14412<<ASSIGN  14414<>CALL
KH@CLK.FNC
     14288**DCL     14413<<ASSIGN
KH@CLK.UID
     14262**DCL     14263--REDEF   14264--REDEF
KHA$INIT
     13845**DCL-ENT 14382--CALL
KHA$INIT_CHANTBL
     13847**DCL-ENT 14408--CALL
KHA$INIT_CONTROL
PL6.E3A0      #001=KYM$MAIN File=KYM$MAIN.:E05TSI                                WED 07/30/97 02:43 Page:24
     13846**DCL-ENT 14383--CALL
KHA$INIT_DONE
     13848**DCL-ENT 14409--CALL
KHC$CLOCK
     13853**DCL-ENT 14414--CALL
KH_CLK
     14097**DCL     14412>>ASSIGN
KH_CLK.UID
     14113**DCL     14114--REDEF   14115--REDEF
KH_CTLTBL
     13887**DCL     14383<>CALL
KV$VDH_VDHINT
     13487**DCL     14403<>CALL
KV$VDH_VDHINT.BFRBGN$
     13487**DCL     14401<<ASSIGN
KV$VDH_VDHINT.BFREND$
     13487**DCL     14402<<ASSIGN
KV$VDH_VDHINT.DBG
     13488**DCL     14029--DCLINIT
KV$VDH_VDHINT.RCVCQ_BYTSIZ
     13491**DCL     14027--DCLINIT
KV$VDH_VDHINT.SNDCQ_BYTSIZ
     13491**DCL     14028--DCLINIT
KVM$RCV
     13855**DCL-ENT 14420--CALL
KVV$VDHINT
     13852**DCL-ENT 14403--CALL
KV_STT
     12663**DCL     14387--ASSIGN
KV_STT.REQSTATS.DSPENT
     12915**DCL     14400<<ASSIGN
KV_STT.REQSTATS.DSPMSK
     12909**DCL     12915--REDEF
KV_STT.REQSTATS.SLCENT
     12957**DCL     14398<<ASSIGN  14399<<ASSIGN
KV_STT.REQSTATS.SLCMSK
PL6.E3A0      #001=KYM$MAIN File=KYM$MAIN.:E05TSI                                WED 07/30/97 02:43 Page:25
     12950**DCL     12957--REDEF
KYA$ADMIN
     13842**DCL-ENT 14408--CALL
KYN$INTR_HNDLR
     13850**DCL-ENT 13536--DCLINIT
KYT$TIMETICK
     13856**DCL-ENT 14214--DCLINIT
KYV$VDI
     13851**DCL-ENT 14386--ASSIGN
KY_ASC95
     13858**DCL     13859--DCLINIT
KY_ASC95$
     13859**DCL     14389--ASSIGN
KY_ATTR
     13031**DCL     14019--DCLINIT 14408<>CALL
KY_INPFNCTBLHED$
     13860**DCL     14390--ASSIGN
KY_INT_LEV
     13030**DCL     14015--DCLINIT 14391>>ASSIGN  14405>>ASSIGN  14406>>ASSIGN
KY_MEM
     13031**DCL     14016--DCLINIT 14384>>ASSIGN
KY_RES
     13031**DCL     14018--DCLINIT 14408<>CALL
KY_STT_URP.REQSTATS.DSPENT
     12564**DCL     14396<<ASSIGN
KY_STT_URP.REQSTATS.DSPMSK
     12558**DCL     12564--REDEF
KY_STT_URP.REQSTATS.SLCENT
     12606**DCL     14394<<ASSIGN  14395<<ASSIGN
KY_STT_URP.REQSTATS.SLCMSK
     12599**DCL     12606--REDEF
KY_USRPRM.INHLVL
     12267**DCL     14391<<ASSIGN
KY_USRPRM.INPFNCTBLHEDPTR$
     12293**DCL     14390<<ASSIGN
KY_USRPRM.STREVTENB
PL6.E3A0      #001=KYM$MAIN File=KYM$MAIN.:E05TSI                                WED 07/30/97 02:43 Page:26
     12291**DCL     14388<<ASSIGN
KY_USRPRM.STT$
     12294**DCL     14387<<ASSIGN
KY_USRPRM.TRNTBLHEDPTR$
     12293**DCL     14389<<ASSIGN
KY_USRPRM.USRSBR$
     12294**DCL     14386<<ASSIGN
KY_VDHTRCBFRBYTSIZ
     13032**DCL     14024--DCLINIT
M$GDS
      4593**DCL-ENT 14385--CALL
M$INTCON
      4572**DCL-ENT 14407--CALL
M$SPRIV
      4587**DCL-ENT 14392--CALL
M$SYS
      4573**DCL-ENT 14393--CALL
M$XXX
      4576**DCL-ENT 14423--CALL
PRIVS
     13493**DCL     13510--DCLINIT
SEGMENT
     13579**DCL     13557--DCLINIT
SEGMENT.BASE
     13583**DCL     13583--REDEF
SEGMENT.BASE$
     13583**DCL     14401>>ASSIGN  14402>>ASSIGN
SEGMENT.PAGES
     13583**DCL     14402>>ASSIGN
