VERSION E05

PL6.E3A0      #001=KY_DATA_D File=KY_DATA_D.:E05TSI                              WED 07/30/97 02:47 Page:1
        1        1        /*M* KY_DATA_D - global static data for URPs */
        2        2        /*T***********************************************************/
        3        3        /*T*                                                         */
        4        4        /*T* Copyright (c) Bull HN Information Systems Inc., 1997    */
        5        5        /*T*                                                         */
        6        6        /*T***********************************************************/
        7        7        KY_DATA_D: PROC;
        8        8        /*! ! */
        9        9        %INCLUDE LCP_6;
       10     4288        %INCLUDE KV_GLBCNS_E;
       11     4629        %INCLUDE KV$PRM;
       12     4842        %INCLUDE KV_PRMID_E;
       13     5016        %INCLUDE GH_HARDWARE_M;
       14     5114        %INCLUDE KV$GLB;
       15     5533        %INCLUDE KV$GLBCTX;
       16     5978        %INCLUDE KY_URP_M;
       17     6273        %INCLUDE KY_SUBS_C;
       18     6362        %INCLUDE KH$STT;
       19     6392        %INCLUDE KV_GLB_M;
       20     6514        %INCLUDE KL_MACRO_C;
       21     9866        %INCLUDE KL_AFCN_C;
       22     9967        %INCLUDE K_ID_E;
       23    10017        /**/
       24    10018        %KV_PRMID_E;
       25    10174        %K#LYRID_E;
       26    10181        %K#ENTID_E;
       27    10200        %KV$USRPRM_INT;
       28    10214        %KV$SETPRMPSTPRC(PRMID=KV_PRMID_VFU);
       29    10227        %KV$SETPRMPSTPRC(PRMID=KV_PRMID_PLATEN);
       30    10240        /* ! R ! */
       31    10241        %KV$USRPRM (NAME=KY_USRPRM,STCLASS="STATIC SYMDEF");
       32    10292        /*DCL TRACE_CNT UBIN STATIC SYMDEF INIT(0);
       33    10293          DCL 1 TRACE_BUF(0:200) STATIC SYMDEF,
       34    10294             2 WHERE UBIN BYTE,
       35    10295             2 IN$ PTR ALIGNED;*/
       36    10296    1   DCL KY_FIRSTCTX$ PTR STATIC SYMDEF INIT(ADDR(NIL));
       37    10297        %KY$STT_URP(NAME=KY_STT_URP,STCLASS="STATIC SYMDEF");
PL6.E3A0      #001=KY_DATA_D File=KY_DATA_D.:E05TSI                              WED 07/30/97 02:47 Page:2
       38    10635        %KV$STT (NAME=KV_STT,STCLASS=STATIC SYMDEF);
       39    11029    1   DCL KY_BLOCK UBIN WORD STATIC SYMDEF INIT(700);
       40    11030    1   DCL KY_UNBLOCK UBIN WORD STATIC SYMDEF INIT(200);
       41    11031    1   DCL KY_LAST_RANGE UBIN WORD STATIC SYMDEF INIT(0);
       42    11032    1   DCL KY_INT_LEV UBIN WORD STATIC SYMDEF INIT(30);
       43    11033    1   DCL KY_DISABLE_CNT SBIN WORD STATIC SYMDEF INIT(0);
       44    11034    1   DCL KY_INTFLG BIT(1) STATIC SYMDEF INIT('0'B);
       45    11035    1   DCL KY_MEM UBIN WORD STATIC SYMDEF INIT(32);
       46    11036    1   DCL KY_RES CHAR(2) WALIGNED STATIC SYMDEF INIT('UR');
       47    11037    1   DCL KY_ATTR BIT(16) STATIC SYMDEF INIT('0'B);
       48    11038    1   DCL KY_VDHTRCBFRBYTSIZ UBIN WORD STATIC SYMDEF INIT(0);
       49    11039    1   DCL KY_IUR_CALLED SBIN WORD STATIC SYMDEF INIT(0);
       50    11040    1   END KY_DATA_D;

PL6.E3A0      #001=KY_DATA_D File=KY_DATA_D.:E05TSI                              WED 07/30/97 02:47 Page:3
--  Include file information  --

   K_ID_E.:E05TOU  is referenced.
   KL_AFCN_C.:E05TOU  is referenced.
   KL_MACRO_C.:E05TOU  is referenced.
   KV_GLB_M.:E05TOU  is referenced.
   KH$STT.:E05TOU  is referenced.
   KY_SUBS_C.:E05TOU  is referenced.
   KY_URP_M.:E05TOU  is referenced.
   KV$GLBCTX.:E05TOU  is referenced.
   KV$GLB.:E05TOU  is referenced.
   GH_HARDWARE_M.:E05TOU  is referenced.
   KV_PRMID_E.:E05TOU  is referenced.
   KV$PRM.:E05TOU  is referenced.
   KV_GLBCNS_E.:E05TOU  is referenced.
   G_LCP6_E.:E05TOU  is referenced.
   GT_LCP6_M.:E05TOU  is referenced.
   KI_CP6.:E05TOU  is referenced.
   GF_LCP6_M.:E05TOU  is referenced.
   GM_LCP6_M.:E05TOU  is referenced.
   GU_LCP6_M.:E05TOU  is referenced.
   GJ_LCP6_M.:E05TOU  is referenced.
   GH_LCP6_M.:E05TOU  is referenced.
   LCP_6.:E05TOU  cannot be made into a system file and is referenced.
      No diagnostics issued in procedure KY_DATA_D.

   No code generated for procedure KY_DATA_D .
   Procedure KY_DATA_D requires 4 words of local(AUTO) storage.

    No errors detected in file KY_DATA_D.:E05TSI    .

PL6.E3A0      #001=KY_DATA_D File=KY_DATA_D.:E05TSI                              WED 07/30/97 02:47 Page:4

 Object Unit name= KY_DATA_D                                  File name= KY_DATA_D.:E05TOU
 UTS= JUL 30 '97 02:47:24.88 WED                              Compiler= PL-6/E31         Sev=      00
 SharedLib= :SHARED_LCP6_SYSTEM                               Alt SharedLib=


    ****  Control sections  ****

 Sect   Type Bound  Init  Size HexSiz  Section name
    0   Data  even  none   672    2A0  KY_DATA_D
    1   Proc  even  none     0      0  KY_DATA_D

    ****  Entry defs  ****

                              Check   Calling
                             calling  sequence
  Sect HexLoc Primary Altret sequence   type   Parms  Name
     1      0   yes            yes     ~proc       0  KY_DATA_D

  ****  Data defs  ****

 Sect HexLoc  Name                           Sect HexLoc  Name
    0      0  KY_USRPRM                          0     39  KY_FIRSTCTX$
    0     3B  KY_STT_URP                         0     65  KV_STT
    0    295  KY_BLOCK                           0    296  KY_UNBLOCK
    0    297  KY_LAST_RANGE                      0    298  KY_INT_LEV
    0    299  KY_DISABLE_CNT                     0    29A  KY_INTFLG
    0    29B  KY_MEM                             0    29C  KY_RES
    0    29D  KY_ATTR                            0    29E  KY_VDHTRCBFRBYTSIZ
    0    29F  KY_IUR_CALLED

  ****  Data refs  ****

  Flags:  r = read only, s = secondary
Flgs Name                             Flgs Name                             Flgs Name
r    G$ROS$
PL6.E3A0      #001=KY_DATA_D File=KY_DATA_D.:E05TSI                              WED 07/30/97 02:47 Page:5

        1        1        /*M* KY_DATA_D - global static data for URPs */
        2        2        /*T***********************************************************/
        3        3        /*T*                                                         */
        4        4        /*T* Copyright (c) Bull HN Information Systems Inc., 1997    */
        5        5        /*T*                                                         */
        6        6        /*T***********************************************************/
        7        7        KY_DATA_D: PROC;
        8        8        /*! ! */
        9        9        %INCLUDE LCP_6;
       10     4288        %INCLUDE KV_GLBCNS_E;
       11     4629        %INCLUDE KV$PRM;
       12     4842        %INCLUDE KV_PRMID_E;
       13     5016        %INCLUDE GH_HARDWARE_M;
       14     5114        %INCLUDE KV$GLB;
       15     5533        %INCLUDE KV$GLBCTX;
       16     5978        %INCLUDE KY_URP_M;
       17     6273        %INCLUDE KY_SUBS_C;
       18     6362        %INCLUDE KH$STT;
       19     6392        %INCLUDE KV_GLB_M;
       20     6514        %INCLUDE KL_MACRO_C;
       21     9866        %INCLUDE KL_AFCN_C;
       22     9967        %INCLUDE K_ID_E;
       23    10017        /**/
       24    10018        %KV_PRMID_E;
       25    10174        %K#LYRID_E;
       26    10181        %K#ENTID_E;
       27    10200        %KV$USRPRM_INT;
       28    10214        %KV$SETPRMPSTPRC(PRMID=KV_PRMID_VFU);
       29    10227        %KV$SETPRMPSTPRC(PRMID=KV_PRMID_PLATEN);
       30    10240        /* ! R ! */
       31    10241        %KV$USRPRM (NAME=KY_USRPRM,STCLASS="STATIC SYMDEF");
       32    10292        /*DCL TRACE_CNT UBIN STATIC SYMDEF INIT(0);
       33    10293          DCL 1 TRACE_BUF(0:200) STATIC SYMDEF,
       34    10294             2 WHERE UBIN BYTE,
       35    10295             2 IN$ PTR ALIGNED;*/
       36    10296    1   DCL KY_FIRSTCTX$ PTR STATIC SYMDEF INIT(ADDR(NIL));
       37    10297        %KY$STT_URP(NAME=KY_STT_URP,STCLASS="STATIC SYMDEF");
PL6.E3A0      #001=KY_DATA_D File=KY_DATA_D.:E05TSI                              WED 07/30/97 02:47 Page:6
       38    10635        %KV$STT (NAME=KV_STT,STCLASS=STATIC SYMDEF);
       39    11029    1   DCL KY_BLOCK UBIN WORD STATIC SYMDEF INIT(700);
       40    11030    1   DCL KY_UNBLOCK UBIN WORD STATIC SYMDEF INIT(200);
       41    11031    1   DCL KY_LAST_RANGE UBIN WORD STATIC SYMDEF INIT(0);
       42    11032    1   DCL KY_INT_LEV UBIN WORD STATIC SYMDEF INIT(30);
       43    11033    1   DCL KY_DISABLE_CNT SBIN WORD STATIC SYMDEF INIT(0);
       44    11034    1   DCL KY_INTFLG BIT(1) STATIC SYMDEF INIT('0'B);
       45    11035    1   DCL KY_MEM UBIN WORD STATIC SYMDEF INIT(32);
       46    11036    1   DCL KY_RES CHAR(2) WALIGNED STATIC SYMDEF INIT('UR');
       47    11037    1   DCL KY_ATTR BIT(16) STATIC SYMDEF INIT('0'B);
       48    11038    1   DCL KY_VDHTRCBFRBYTSIZ UBIN WORD STATIC SYMDEF INIT(0);
       49    11039    1   DCL KY_IUR_CALLED SBIN WORD STATIC SYMDEF INIT(0);
       50    11040    1   END KY_DATA_D;

PL6.E3A0      #001=KY_DATA_D File=KY_DATA_D.:E05TSI                              WED 07/30/97 02:47 Page:7
--  Include file information  --

   K_ID_E.:E05TOU  is referenced.
   KL_AFCN_C.:E05TOU  is referenced.
   KL_MACRO_C.:E05TOU  is referenced.
   KV_GLB_M.:E05TOU  is referenced.
   KH$STT.:E05TOU  is referenced.
   KY_SUBS_C.:E05TOU  is referenced.
   KY_URP_M.:E05TOU  is referenced.
   KV$GLBCTX.:E05TOU  is referenced.
   KV$GLB.:E05TOU  is referenced.
   GH_HARDWARE_M.:E05TOU  is referenced.
   KV_PRMID_E.:E05TOU  is referenced.
   KV$PRM.:E05TOU  is referenced.
   KV_GLBCNS_E.:E05TOU  is referenced.
   G_LCP6_E.:E05TOU  is referenced.
   GT_LCP6_M.:E05TOU  is referenced.
   KI_CP6.:E05TOU  is referenced.
   GF_LCP6_M.:E05TOU  is referenced.
   GM_LCP6_M.:E05TOU  is referenced.
   GU_LCP6_M.:E05TOU  is referenced.
   GJ_LCP6_M.:E05TOU  is referenced.
   GH_LCP6_M.:E05TOU  is referenced.
   LCP_6.:E05TOU  cannot be made into a system file and is referenced.
      No diagnostics issued in procedure KY_DATA_D.
PL6.E3A0      #001=KY_DATA_D File=KY_DATA_D.:E05TSI                              WED 07/30/97 02:47 Page:8

 **** Variables and constants ****


   No code generated for procedure KY_DATA_D .
   Procedure KY_DATA_D requires 4 words of local(AUTO) storage.

    No errors detected in file KY_DATA_D.:E05TSI    .
PL6.E3A0      #001=KY_DATA_D File=KY_DATA_D.:E05TSI                              WED 07/30/97 02:47 Page:9
          *** CROSS REFERENCE LISTING ***
**     DENOTES     IDENTIFIER DEFINITION
<<                 IDENTIFIER'S VALUE SET
>>                 IDENTIFIER'S VALUE USED
<>                 IDENTIFIER SET AND/OR USED
--                 IDENTIFIER REFERENCED
PL6.E3A0      #001=KY_DATA_D File=KY_DATA_D.:E05TSI                              WED 07/30/97 02:47 Page:10
          MINI XREF LISTING

KV_STT.REQSTATS.DSPMSK
     10908**DCL     10914--REDEF
KV_STT.REQSTATS.SLCMSK
     10949**DCL     10956--REDEF
KY_STT_URP.REQSTATS.DSPMSK
     10557**DCL     10563--REDEF
KY_STT_URP.REQSTATS.SLCMSK
     10598**DCL     10605--REDEF
