VERSION E05

PL6.E3A0      #001=KY_TRNTBL_D File=KY_TRNTBL_D.:E05TSI                          WED 07/30/97 02:48 Page:1
        1        1        /*M* ASCII URP translate tables  */
        2        2        /*T***********************************************************/
        3        3        /*T*                                                         */
        4        4        /*T* Copyright (c) Bull HN Information Systems Inc., 1997    */
        5        5        /*T*                                                         */
        6        6        /*T***********************************************************/
        7        7        KY_TRNTBL_D: PROC;
        8        8        %INCLUDE KV$INT;
        9      640        %INCLUDE KV$GLB;
       10     1059        %INCLUDE KV_TRNTBL_M;
       11     1394        /* Start the table translating everything to '#'        */
       12     1395        %KV_PRMOTPTRN(NAME=KY_TRNOTPASC95_1,DFLTRNCHR='#',
       13     1396        /* Now make the printing characters themselves   */
       14     1397                      FRSCHR=' ',LSTCHR='~');
       15     4703        %KV_PRMOTPTRN(FRSCHR='08'X,TRNCHR=' ');
       16     4809        %KV_PRMOTPTRN(FRSCHR='09'X,LSTCHR='0A'X,TRNCHR='FE'X);
       17     4974        %KV_PRMOTPTRN(FRSCHR='0D'X,TRNCHR='FE'X,LAST=YES);
       18     5087        %KV_PRMOTPTRN(NAME=KY_TRNOTPASC64_1,DFLTRNCHR='#',
       19     5088        /* Only the uppercase is one-to-one */
       20     5089                      FRSCHR=' ',LSTCHR='_');
       21     7341        /* The lowercase columns translate to uppercase */
       22     7342        %KV_PRMOTPTRN(FRSCHR='`',LSTCHR='~',
       23     7343                   TRNCHR='@ABCDEFGHIJKLMNOPQRSTUVWXYZ[\]^');
       24     7419        %KV_PRMOTPTRN(FRSCHR='08'X,TRNCHR=' ');
       25     7525        %KV_PRMOTPTRN(FRSCHR='09'X,LSTCHR='0A'X,TRNCHR='FE'X);
       26     7690        %KV_PRMOTPTRN(FRSCHR='0D'X,TRNCHR='FE'X,LAST=YES);
       27     7803        /* NOW THE SECONDARY TABLES */
       28     7804        /* The secondary table has all the control functions, */
       29     7805        /* and the non-positioning characters */
       30     7806        %KV_SCNOTPTRN(NAME=KY_TRNOTPASC95_2);
       31     7915        %KV_SCNOTPTRN(INPCHR='09'X,TYPE=OTPFNC_HT);
       32     8042        %KV_SCNOTPTRN(INPCHR='0A'X,TYPE=OTPFNC_LF);
       33     8169        %KV_SCNOTPTRN(INPCHR='0D'X,TYPE=OTPFNC_CR,LAST=YES);
       34     8296        /**/
       35     8297        /* Now lets put some actual tables together */
       36     8298        /**/
       37     8299        %LIST;
PL6.E3A0      #001=KY_TRNTBL_D File=KY_TRNTBL_D.:E05TSI                          WED 07/30/97 02:48 Page:2
       38     8300        %KV$TRNTBL(NAME=KY_ASC95,STCLASS=CONSTANT SYMDEF,
       39     8301                   INPTRN1=NIL,
       40     8302                   INPTRN2=NIL,
       41     8303                   OTPTRN1=KY_TRNOTPASC95_1,
       42     8304                   OTPTRN2=KY_TRNOTPASC95_2,
       43     8305                   OTPTRN3=NIL,
       44     8306                   EXTINPTRN=NIL,
       45     8307                   EXTOTPTRN=NIL,
       46     8308                   SPCESC=NIL,
       47     8309                   LNK=KY_ASC64,
       48     8310                   INPCHRMSK='00FF'X,
       49     8311                   OTPESCCHR="BITBIN('FE'X)",
       50     8312                   OTPESCCHR1="BITASC('FE'X)",
       51     8313                   OTPESCCHR2="BITASC('FE'X)",
       52     8314                   NAM='ASC95',
       53     8315                   FNTCLS=ASC,
       54     8316                   SP_CHR=' ');
              8317        %LSET LISTDIR='0'B;
              8349    1   DCL 1 KY_ASC95 CONSTANT SYMDEF ALIGNED,
              8353    1   2 LNK$ PTR INIT(ADDR(KY_ASC64)),
              8358    1   2 BYTSIZ UBIN(16)ALIGNED INIT(SIZEC(KY_ASC95)),
              8362    1   2 USRCNT UBIN(16)ALIGNED INIT(32767) ,2 NAM CHAR(8)INIT('ASC95') ,
              8364    1   2 INPTRN1$ PTR INIT(ADDR(NIL)),2 INPTRN2$ PTR INIT(ADDR(NIL)),2 OTPTRN1$ PTR INIT(
              8364            ADDR(KY_TRNOTPASC95_1)),2
              8365    1   OTPTRN2$ PTR INIT(ADDR(KY_TRNOTPASC95_2)),2 OTPTRN3$ PTR INIT(ADDR(NIL)),2
              8365            EXTINPTRN$ PTR INIT(ADDR(NIL)),2
              8366    1   EXTOTPTRN$ PTR INIT(ADDR(NIL)),2 INPTKN$ PTR INIT(ADDR(NIL)),2 SPCESC$ PTR INIT(ADDR
              8366            (NIL)),2
              8367    1   INPCHRMSK BIT(16)INIT('0000000011111111'B),2 OTPESCCHR UBIN INIT(BITBIN('FE'X)),2
              8367            OTPESC REDEF
              8368    1   OTPESCCHR,3 NONE BIT(8),3 CHR CHAR(1),2 OTPESCCHRBFR1 CHAR(1)INIT(BITASC('FE'X)),2
              8368            OTPESCCHRBFR2 CHAR(1)INIT
              8369    1   (BITASC('FE'X)),2 FNTCLS UBIN BYTE CALIGNED INIT(0),2 SP_CHR CHAR(1)INIT(' '),2
              8370    1   HT_CHR CHAR(1)INIT(BINASC(9)),2 INPCTRSTRINTCHR CHAR(1)INIT(BINASC(0)),2
              8371    1   PRTAPL BIT(1)INIT('0'B),2 DRCOTPTRN BIT(1)INIT('0'B),2 TRNINPCTRSTRID BIT(1)INIT
              8372    1   ('0'B) ;
       55     8374        /**/
PL6.E3A0      #001=KY_TRNTBL_D File=KY_TRNTBL_D.:E05TSI                          WED 07/30/97 02:48 Page:3
       56     8375        %KV$TRNTBL(NAME=KY_ASC64,STCLASS=CONSTANT SYMDEF,
       57     8376                   INPTRN1=NIL,
       58     8377                   INPTRN2=NIL,
       59     8378                   OTPTRN1=KY_TRNOTPASC64_1,
       60     8379                   OTPTRN2=KY_TRNOTPASC95_2,
       61     8380                   OTPTRN3=NIL,
       62     8381                   EXTINPTRN=NIL,
       63     8382                   EXTOTPTRN=NIL,
       64     8383                   SPCESC=NIL,
       65     8384                   LNK=KY_ASC64C,
       66     8385                   INPCHRMSK='00FF'X,
       67     8386                   OTPESCCHR="BITBIN('FE'X)",
       68     8387                   OTPESCCHR1="BITASC('FE'X)",
       69     8388                   OTPESCCHR2="BITASC('FE'X)",
       70     8389                   NAM='ASC64',
       71     8390                   FNTCLS=ASC,
       72     8391                   SP_CHR=' ');
              8392        %LSET LISTDIR='0'B;
              8424    1   DCL 1 KY_ASC64 CONSTANT SYMDEF ALIGNED,
              8428    1   2 LNK$ PTR INIT(ADDR(KY_ASC64C)),
              8433    1   2 BYTSIZ UBIN(16)ALIGNED INIT(SIZEC(KY_ASC64)),
              8437    1   2 USRCNT UBIN(16)ALIGNED INIT(32767) ,2 NAM CHAR(8)INIT('ASC64') ,
              8439    1   2 INPTRN1$ PTR INIT(ADDR(NIL)),2 INPTRN2$ PTR INIT(ADDR(NIL)),2 OTPTRN1$ PTR INIT(
              8439            ADDR(KY_TRNOTPASC64_1)),2
              8440    1   OTPTRN2$ PTR INIT(ADDR(KY_TRNOTPASC95_2)),2 OTPTRN3$ PTR INIT(ADDR(NIL)),2
              8440            EXTINPTRN$ PTR INIT(ADDR(NIL)),2
              8441    1   EXTOTPTRN$ PTR INIT(ADDR(NIL)),2 INPTKN$ PTR INIT(ADDR(NIL)),2 SPCESC$ PTR INIT(ADDR
              8441            (NIL)),2
              8442    1   INPCHRMSK BIT(16)INIT('0000000011111111'B),2 OTPESCCHR UBIN INIT(BITBIN('FE'X)),2
              8442            OTPESC REDEF
              8443    1   OTPESCCHR,3 NONE BIT(8),3 CHR CHAR(1),2 OTPESCCHRBFR1 CHAR(1)INIT(BITASC('FE'X)),2
              8443            OTPESCCHRBFR2 CHAR(1)INIT
              8444    1   (BITASC('FE'X)),2 FNTCLS UBIN BYTE CALIGNED INIT(0),2 SP_CHR CHAR(1)INIT(' '),2
              8445    1   HT_CHR CHAR(1)INIT(BINASC(9)),2 INPCTRSTRINTCHR CHAR(1)INIT(BINASC(0)),2
              8446    1   PRTAPL BIT(1)INIT('0'B),2 DRCOTPTRN BIT(1)INIT('0'B),2 TRNINPCTRSTRID BIT(1)INIT
              8447    1   ('0'B) ;
       73     8449        /**/
PL6.E3A0      #001=KY_TRNTBL_D File=KY_TRNTBL_D.:E05TSI                          WED 07/30/97 02:48 Page:4
       74     8450        %KV$TRNTBL(NAME=KY_ASC64C,STCLASS=CONSTANT SYMDEF,
       75     8451                   INPTRN1=NIL,
       76     8452                   INPTRN2=NIL,
       77     8453                   OTPTRN1=KY_TRNOTPASC64_1,
       78     8454                   OTPTRN2=KY_TRNOTPASC95_2,
       79     8455                   OTPTRN3=NIL,
       80     8456                   EXTINPTRN=NIL,
       81     8457                   EXTOTPTRN=NIL,
       82     8458                   SPCESC=NIL,
       83     8459                   LNK=NIL,
       84     8460                   INPCHRMSK='00FF'X,
       85     8461                   OTPESCCHR="BITBIN('FE'X)",
       86     8462                   OTPESCCHR1="BITASC('FE'X)",
       87     8463                   OTPESCCHR2="BITASC('FE'X)",
       88     8464                   NAM='ASC64C',
       89     8465                   FNTCLS=ASC,
       90     8466                   SP_CHR=' ');
              8467        %LSET LISTDIR='0'B;
              8499    1   DCL 1 KY_ASC64C CONSTANT SYMDEF ALIGNED,
              8503    1   2 LNK$ PTR INIT(ADDR(NIL)),
              8508    1   2 BYTSIZ UBIN(16)ALIGNED INIT(SIZEC(KY_ASC64C)),
              8512    1   2 USRCNT UBIN(16)ALIGNED INIT(32767) ,2 NAM CHAR(8)INIT('ASC64C') ,
              8514    1   2 INPTRN1$ PTR INIT(ADDR(NIL)),2 INPTRN2$ PTR INIT(ADDR(NIL)),2 OTPTRN1$ PTR INIT(
              8514            ADDR(KY_TRNOTPASC64_1)),2
              8515    1   OTPTRN2$ PTR INIT(ADDR(KY_TRNOTPASC95_2)),2 OTPTRN3$ PTR INIT(ADDR(NIL)),2
              8515            EXTINPTRN$ PTR INIT(ADDR(NIL)),2
              8516    1   EXTOTPTRN$ PTR INIT(ADDR(NIL)),2 INPTKN$ PTR INIT(ADDR(NIL)),2 SPCESC$ PTR INIT(ADDR
              8516            (NIL)),2
              8517    1   INPCHRMSK BIT(16)INIT('0000000011111111'B),2 OTPESCCHR UBIN INIT(BITBIN('FE'X)),2
              8517            OTPESC REDEF
              8518    1   OTPESCCHR,3 NONE BIT(8),3 CHR CHAR(1),2 OTPESCCHRBFR1 CHAR(1)INIT(BITASC('FE'X)),2
              8518            OTPESCCHRBFR2 CHAR(1)INIT
              8519    1   (BITASC('FE'X)),2 FNTCLS UBIN BYTE CALIGNED INIT(0),2 SP_CHR CHAR(1)INIT(' '),2
              8520    1   HT_CHR CHAR(1)INIT(BINASC(9)),2 INPCTRSTRINTCHR CHAR(1)INIT(BINASC(0)),2
              8521    1   PRTAPL BIT(1)INIT('0'B),2 DRCOTPTRN BIT(1)INIT('0'B),2 TRNINPCTRSTRID BIT(1)INIT
              8522    1   ('0'B) ;
       91     8524        /**/
PL6.E3A0      #001=KY_TRNTBL_D File=KY_TRNTBL_D.:E05TSI                          WED 07/30/97 02:48 Page:5
       92     8525    1   END;

PL6.E3A0      #001=KY_TRNTBL_D File=KY_TRNTBL_D.:E05TSI                          WED 07/30/97 02:48 Page:6
--  Include file information  --

   KV_TRNTBL_M.:E05TOU  is referenced.
   KV$GLB.:E05TOU  is referenced.
   KV$INT.:E05TOU  is referenced.
      No diagnostics issued in procedure KY_TRNTBL_D.

   No code generated for procedure KY_TRNTBL_D .
   Procedure KY_TRNTBL_D requires 4 words of local(AUTO) storage.

    No errors detected in file KY_TRNTBL_D.:E05TSI    .

PL6.E3A0      #001=KY_TRNTBL_D File=KY_TRNTBL_D.:E05TSI                          WED 07/30/97 02:48 Page:7

 Object Unit name= KY_TRNTBL_D                                File name= KY_TRNTBL_D.:E05TOU
 UTS= JUL 30 '97 02:48:20.48 WED                              Compiler= PL-6/E31         Sev=      00
 SharedLib= :SHARED_LCP6_SYSTEM                               Alt SharedLib=


    ****  Control sections  ****

 Sect   Type Bound  Init  Size HexSiz  Section name
    0  RoData even  UTS    357    165  KY_TRNTBL_D
    1   Proc  even  none     0      0  KY_TRNTBL_D

    ****  Entry defs  ****

                              Check   Calling
                             calling  sequence
  Sect HexLoc Primary Altret sequence   type   Parms  Name
     1      0   yes            yes     ~proc       0  KY_TRNTBL_D

  ****  Data defs  ****

 Sect HexLoc  Name                           Sect HexLoc  Name
    0    105  KY_ASC95                           0    125  KY_ASC64
    0    145  KY_ASC64C

  ****  Data refs  ****

  Flags:  r = read only, s = secondary
Flgs Name                             Flgs Name                             Flgs Name
r    G$ROS$
PL6.E3A0      #001=KY_TRNTBL_D File=KY_TRNTBL_D.:E05TSI                          WED 07/30/97 02:48 Page:8

        1        1        /*M* ASCII URP translate tables  */
        2        2        /*T***********************************************************/
        3        3        /*T*                                                         */
        4        4        /*T* Copyright (c) Bull HN Information Systems Inc., 1997    */
        5        5        /*T*                                                         */
        6        6        /*T***********************************************************/
        7        7        KY_TRNTBL_D: PROC;
        8        8        %INCLUDE KV$INT;
        9      640        %INCLUDE KV$GLB;
       10     1059        %INCLUDE KV_TRNTBL_M;
       11     1394        /* Start the table translating everything to '#'        */
       12     1395        %KV_PRMOTPTRN(NAME=KY_TRNOTPASC95_1,DFLTRNCHR='#',
       13     1396        /* Now make the printing characters themselves   */
       14     1397                      FRSCHR=' ',LSTCHR='~');
       15     4703        %KV_PRMOTPTRN(FRSCHR='08'X,TRNCHR=' ');
       16     4809        %KV_PRMOTPTRN(FRSCHR='09'X,LSTCHR='0A'X,TRNCHR='FE'X);
       17     4974        %KV_PRMOTPTRN(FRSCHR='0D'X,TRNCHR='FE'X,LAST=YES);
       18     5087        %KV_PRMOTPTRN(NAME=KY_TRNOTPASC64_1,DFLTRNCHR='#',
       19     5088        /* Only the uppercase is one-to-one */
       20     5089                      FRSCHR=' ',LSTCHR='_');
       21     7341        /* The lowercase columns translate to uppercase */
       22     7342        %KV_PRMOTPTRN(FRSCHR='`',LSTCHR='~',
       23     7343                   TRNCHR='@ABCDEFGHIJKLMNOPQRSTUVWXYZ[\]^');
       24     7419        %KV_PRMOTPTRN(FRSCHR='08'X,TRNCHR=' ');
       25     7525        %KV_PRMOTPTRN(FRSCHR='09'X,LSTCHR='0A'X,TRNCHR='FE'X);
       26     7690        %KV_PRMOTPTRN(FRSCHR='0D'X,TRNCHR='FE'X,LAST=YES);
       27     7803        /* NOW THE SECONDARY TABLES */
       28     7804        /* The secondary table has all the control functions, */
       29     7805        /* and the non-positioning characters */
       30     7806        %KV_SCNOTPTRN(NAME=KY_TRNOTPASC95_2);
       31     7915        %KV_SCNOTPTRN(INPCHR='09'X,TYPE=OTPFNC_HT);
       32     8042        %KV_SCNOTPTRN(INPCHR='0A'X,TYPE=OTPFNC_LF);
       33     8169        %KV_SCNOTPTRN(INPCHR='0D'X,TYPE=OTPFNC_CR,LAST=YES);
       34     8296        /**/
       35     8297        /* Now lets put some actual tables together */
       36     8298        /**/
       37     8299        %LIST;
PL6.E3A0      #001=KY_TRNTBL_D File=KY_TRNTBL_D.:E05TSI                          WED 07/30/97 02:48 Page:9
       38     8300        %KV$TRNTBL(NAME=KY_ASC95,STCLASS=CONSTANT SYMDEF,
       39     8301                   INPTRN1=NIL,
       40     8302                   INPTRN2=NIL,
       41     8303                   OTPTRN1=KY_TRNOTPASC95_1,
       42     8304                   OTPTRN2=KY_TRNOTPASC95_2,
       43     8305                   OTPTRN3=NIL,
       44     8306                   EXTINPTRN=NIL,
       45     8307                   EXTOTPTRN=NIL,
       46     8308                   SPCESC=NIL,
       47     8309                   LNK=KY_ASC64,
       48     8310                   INPCHRMSK='00FF'X,
       49     8311                   OTPESCCHR="BITBIN('FE'X)",
       50     8312                   OTPESCCHR1="BITASC('FE'X)",
       51     8313                   OTPESCCHR2="BITASC('FE'X)",
       52     8314                   NAM='ASC95',
       53     8315                   FNTCLS=ASC,
       54     8316                   SP_CHR=' ');
              8317        %LSET LISTDIR='0'B;
              8349    1   DCL 1 KY_ASC95 CONSTANT SYMDEF ALIGNED,
              8353    1   2 LNK$ PTR INIT(ADDR(KY_ASC64)),
              8358    1   2 BYTSIZ UBIN(16)ALIGNED INIT(SIZEC(KY_ASC95)),
              8362    1   2 USRCNT UBIN(16)ALIGNED INIT(32767) ,2 NAM CHAR(8)INIT('ASC95') ,
              8364    1   2 INPTRN1$ PTR INIT(ADDR(NIL)),2 INPTRN2$ PTR INIT(ADDR(NIL)),2 OTPTRN1$ PTR INIT(
              8364            ADDR(KY_TRNOTPASC95_1)),2
              8365    1   OTPTRN2$ PTR INIT(ADDR(KY_TRNOTPASC95_2)),2 OTPTRN3$ PTR INIT(ADDR(NIL)),2
              8365            EXTINPTRN$ PTR INIT(ADDR(NIL)),2
              8366    1  EXTOTPTRN$ PTR INIT(ADDR(NIL)),2 INPTKN$ PTR INIT(ADDR(NIL)),2 SPCESC$ PTR INIT(ADDR
              8366            (NIL)),2
              8367    1   INPCHRMSK BIT(16)INIT('0000000011111111'B),2 OTPESCCHR UBIN INIT(BITBIN('FE'X)),2
              8367            OTPESC REDEF
              8368    1   OTPESCCHR,3 NONE BIT(8),3 CHR CHAR(1),2 OTPESCCHRBFR1 CHAR(1)INIT(BITASC('FE'X)),2
              8368            OTPESCCHRBFR2 CHAR(1)INIT
              8369    1   (BITASC('FE'X)),2 FNTCLS UBIN BYTE CALIGNED INIT(0),2 SP_CHR CHAR(1)INIT(' '),2
              8370    1   HT_CHR CHAR(1)INIT(BINASC(9)),2 INPCTRSTRINTCHR CHAR(1)INIT(BINASC(0)),2
              8371    1   PRTAPL BIT(1)INIT('0'B),2 DRCOTPTRN BIT(1)INIT('0'B),2 TRNINPCTRSTRID BIT(1)INIT
              8372    1   ('0'B) ;
       55     8374        /**/
PL6.E3A0      #001=KY_TRNTBL_D File=KY_TRNTBL_D.:E05TSI                          WED 07/30/97 02:48 Page:10
       56     8375        %KV$TRNTBL(NAME=KY_ASC64,STCLASS=CONSTANT SYMDEF,
       57     8376                   INPTRN1=NIL,
       58     8377                   INPTRN2=NIL,
       59     8378                   OTPTRN1=KY_TRNOTPASC64_1,
       60     8379                   OTPTRN2=KY_TRNOTPASC95_2,
       61     8380                   OTPTRN3=NIL,
       62     8381                   EXTINPTRN=NIL,
       63     8382                   EXTOTPTRN=NIL,
       64     8383                   SPCESC=NIL,
       65     8384                   LNK=KY_ASC64C,
       66     8385                   INPCHRMSK='00FF'X,
       67     8386                   OTPESCCHR="BITBIN('FE'X)",
       68     8387                   OTPESCCHR1="BITASC('FE'X)",
       69     8388                   OTPESCCHR2="BITASC('FE'X)",
       70     8389                   NAM='ASC64',
       71     8390                   FNTCLS=ASC,
       72     8391                   SP_CHR=' ');
              8392        %LSET LISTDIR='0'B;
              8424    1   DCL 1 KY_ASC64 CONSTANT SYMDEF ALIGNED,
              8428    1   2 LNK$ PTR INIT(ADDR(KY_ASC64C)),
              8433    1   2 BYTSIZ UBIN(16)ALIGNED INIT(SIZEC(KY_ASC64)),
              8437    1   2 USRCNT UBIN(16)ALIGNED INIT(32767) ,2 NAM CHAR(8)INIT('ASC64') ,
              8439    1   2 INPTRN1$ PTR INIT(ADDR(NIL)),2 INPTRN2$ PTR INIT(ADDR(NIL)),2 OTPTRN1$ PTR INIT(
              8439            ADDR(KY_TRNOTPASC64_1)),2
              8440    1   OTPTRN2$ PTR INIT(ADDR(KY_TRNOTPASC95_2)),2 OTPTRN3$ PTR INIT(ADDR(NIL)),2
              8440            EXTINPTRN$ PTR INIT(ADDR(NIL)),2
              8441    1  EXTOTPTRN$ PTR INIT(ADDR(NIL)),2 INPTKN$ PTR INIT(ADDR(NIL)),2 SPCESC$ PTR INIT(ADDR
              8441            (NIL)),2
              8442    1   INPCHRMSK BIT(16)INIT('0000000011111111'B),2 OTPESCCHR UBIN INIT(BITBIN('FE'X)),2
              8442            OTPESC REDEF
              8443    1   OTPESCCHR,3 NONE BIT(8),3 CHR CHAR(1),2 OTPESCCHRBFR1 CHAR(1)INIT(BITASC('FE'X)),2
              8443            OTPESCCHRBFR2 CHAR(1)INIT
              8444    1   (BITASC('FE'X)),2 FNTCLS UBIN BYTE CALIGNED INIT(0),2 SP_CHR CHAR(1)INIT(' '),2
              8445    1   HT_CHR CHAR(1)INIT(BINASC(9)),2 INPCTRSTRINTCHR CHAR(1)INIT(BINASC(0)),2
              8446    1   PRTAPL BIT(1)INIT('0'B),2 DRCOTPTRN BIT(1)INIT('0'B),2 TRNINPCTRSTRID BIT(1)INIT
              8447    1   ('0'B) ;
       73     8449        /**/
PL6.E3A0      #001=KY_TRNTBL_D File=KY_TRNTBL_D.:E05TSI                          WED 07/30/97 02:48 Page:11
       74     8450        %KV$TRNTBL(NAME=KY_ASC64C,STCLASS=CONSTANT SYMDEF,
       75     8451                   INPTRN1=NIL,
       76     8452                   INPTRN2=NIL,
       77     8453                   OTPTRN1=KY_TRNOTPASC64_1,
       78     8454                   OTPTRN2=KY_TRNOTPASC95_2,
       79     8455                   OTPTRN3=NIL,
       80     8456                   EXTINPTRN=NIL,
       81     8457                   EXTOTPTRN=NIL,
       82     8458                   SPCESC=NIL,
       83     8459                   LNK=NIL,
       84     8460                   INPCHRMSK='00FF'X,
       85     8461                   OTPESCCHR="BITBIN('FE'X)",
       86     8462                   OTPESCCHR1="BITASC('FE'X)",
       87     8463                   OTPESCCHR2="BITASC('FE'X)",
       88     8464                   NAM='ASC64C',
       89     8465                   FNTCLS=ASC,
       90     8466                   SP_CHR=' ');
              8467        %LSET LISTDIR='0'B;
              8499    1   DCL 1 KY_ASC64C CONSTANT SYMDEF ALIGNED,
              8503    1   2 LNK$ PTR INIT(ADDR(NIL)),
              8508    1   2 BYTSIZ UBIN(16)ALIGNED INIT(SIZEC(KY_ASC64C)),
              8512    1   2 USRCNT UBIN(16)ALIGNED INIT(32767) ,2 NAM CHAR(8)INIT('ASC64C') ,
              8514    1   2 INPTRN1$ PTR INIT(ADDR(NIL)),2 INPTRN2$ PTR INIT(ADDR(NIL)),2 OTPTRN1$ PTR INIT(
              8514            ADDR(KY_TRNOTPASC64_1)),2
              8515    1   OTPTRN2$ PTR INIT(ADDR(KY_TRNOTPASC95_2)),2 OTPTRN3$ PTR INIT(ADDR(NIL)),2
              8515            EXTINPTRN$ PTR INIT(ADDR(NIL)),2
              8516    1  EXTOTPTRN$ PTR INIT(ADDR(NIL)),2 INPTKN$ PTR INIT(ADDR(NIL)),2 SPCESC$ PTR INIT(ADDR
              8516            (NIL)),2
              8517    1   INPCHRMSK BIT(16)INIT('0000000011111111'B),2 OTPESCCHR UBIN INIT(BITBIN('FE'X)),2
              8517            OTPESC REDEF
              8518    1   OTPESCCHR,3 NONE BIT(8),3 CHR CHAR(1),2 OTPESCCHRBFR1 CHAR(1)INIT(BITASC('FE'X)),2
              8518            OTPESCCHRBFR2 CHAR(1)INIT
              8519    1   (BITASC('FE'X)),2 FNTCLS UBIN BYTE CALIGNED INIT(0),2 SP_CHR CHAR(1)INIT(' '),2
              8520    1   HT_CHR CHAR(1)INIT(BINASC(9)),2 INPCTRSTRINTCHR CHAR(1)INIT(BINASC(0)),2
              8521    1   PRTAPL BIT(1)INIT('0'B),2 DRCOTPTRN BIT(1)INIT('0'B),2 TRNINPCTRSTRID BIT(1)INIT
              8522    1   ('0'B) ;
       91     8524        /**/
PL6.E3A0      #001=KY_TRNTBL_D File=KY_TRNTBL_D.:E05TSI                          WED 07/30/97 02:48 Page:12
       92     8525    1   END;

PL6.E3A0      #001=KY_TRNTBL_D File=KY_TRNTBL_D.:E05TSI                          WED 07/30/97 02:48 Page:13
--  Include file information  --

   KV_TRNTBL_M.:E05TOU  is referenced.
   KV$GLB.:E05TOU  is referenced.
   KV$INT.:E05TOU  is referenced.
      No diagnostics issued in procedure KY_TRNTBL_D.
PL6.E3A0      #001=KY_TRNTBL_D File=KY_TRNTBL_D.:E05TSI                          WED 07/30/97 02:48 Page:14

 **** Variables and constants ****

  ****  Section 000 RoData KY_TRNTBL_D

  ****  Scalars and arrays  ****
HexLoc.c.b A Datatyp(siz) R M Lvl/name                 HexLoc.c.b A Datatyp(siz) R M Lvl/name

   125-0-0/w STRC(499)   r     1 KY_ASC64                 145-0-0/w STRC(499)   r     1 KY_ASC64C
   105-0-0/w STRC(499)   r     1 KY_ASC95                  80-0-0/c STRC(2048)  r     1 KY_TRNOTPASC64_1
     0-0-0/c STRC(2048)  r     1 KY_TRNOTPASC95_1         100-0-0/c STRC(71)    r     1 KY_TRNOTPASC95_2


   No code generated for procedure KY_TRNTBL_D .
   Procedure KY_TRNTBL_D requires 4 words of local(AUTO) storage.

    No errors detected in file KY_TRNTBL_D.:E05TSI    .
PL6.E3A0      #001=KY_TRNTBL_D File=KY_TRNTBL_D.:E05TSI                          WED 07/30/97 02:48 Page:15
          *** CROSS REFERENCE LISTING ***
**     DENOTES     IDENTIFIER DEFINITION
<<                 IDENTIFIER'S VALUE SET
>>                 IDENTIFIER'S VALUE USED
<>                 IDENTIFIER SET AND/OR USED
--                 IDENTIFIER REFERENCED
PL6.E3A0      #001=KY_TRNTBL_D File=KY_TRNTBL_D.:E05TSI                          WED 07/30/97 02:48 Page:16
          MINI XREF LISTING

KY_ASC64
      8424**DCL      8353--DCLINIT  8433--DCLINIT
KY_ASC64.OTPESCCHR
      8442**DCL      8442--REDEF
KY_ASC64C
      8499**DCL      8428--DCLINIT  8508--DCLINIT
KY_ASC64C.OTPESCCHR
      8517**DCL      8517--REDEF
KY_ASC95
      8349**DCL      8358--DCLINIT
KY_ASC95.OTPESCCHR
      8367**DCL      8367--REDEF
KY_TRNOTPASC64_1
      5092**DCL      8439--DCLINIT  8514--DCLINIT
KY_TRNOTPASC95_1
      1400**DCL      8364--DCLINIT
KY_TRNOTPASC95_2
      7809**DCL      8365--DCLINIT  8440--DCLINIT  8515--DCLINIT
