PL6.E3A0      #002=KZH$HIPSTT File=KZH$HIPIO.:E05TSI                             WED 07/30/97 02:55 Page:209
     1409        1        /*T***********************************************************/
     1410        2        /*T*                                                         */
     1411        3        /*T* Copyright (c) Bull HN Information Systems Inc., 1997    */
     1412        4        /*T*                                                         */
     1413        5        /*T***********************************************************/
     1414        6        %EJECT;
PL6.E3A0      #002=KZH$HIPSTT File=KZH$HIPIO.:E05TSI                             WED 07/30/97 02:55 Page:210
     1415        7        KZH$HIPSTT: PROC(KZ_VDHSTT_V, KZ_HIP_V);
     1416        8
     1417        9        %INCLUDE KZ$3270STT;
     1418       73        %INCLUDE KZ$BSCSTT;
     1419      179        %INCLUDE KZ_HIP_C;
     1420      286        %INCLUDE KH$STT;
     1421      316        %INCLUDE KV$GLB;
     1422      735        %INCLUDE KV_GLBCNS_E;
     1423     1076        %INCLUDE KL_MACRO_C;
     1424     4428        %INCLUDE KZ_HIPTAB_C;
     1425     4670        %INCLUDE KL_AFCN_C;
     1426     4771        %INCLUDE K_ID_E;
     1427     4821        %INCLUDE LCP_6;
     1428     9100
     1429     9101        %K#ENTID_E;
     1430     9120
     1431     9121    1   DCL KZ_VDHSTT_V VECTOR;
     1432     9122    1   DCL KZ_HIP_V VECTOR;
     1433     9123
     1434     9124        %KV$STT;
     1435     9518        %KZ_HIP_HDR(STCLASS=SYMREF);
     1436     9542        %KZ$3270STT;
     1437     9974
     1438     9975    1   DCL KZ_VDHSTT$ PTR SYMREF;
     1439     9976
     1440     9977    1           KZ_VDHSTT_V=VECTOR(KZ_VDHSTT$->KV$STT);
     1441     9978    1           KZ_HIP_V=VECTOR(KZ_HIP_HDR.STTBFR$->KZ$3270STT);
     1442     9979
     1443     9980    1   END;
     1444     9981        %EJECT;
PL6.E3A0      #002=KZH$HIPSTT File=KZH$HIPIO.:E05TSI                             WED 07/30/97 02:55 Page:211

PL6.E3A0      #002=KZH$HIPSTT File=KZH$HIPIO.:E05TSI                             WED 07/30/97 02:55 Page:212
--  Include file information  --

   G_LCP6_E.:E05TOU  is referenced.
   GT_LCP6_M.:E05TOU  is referenced.
   KI_CP6.:E05TOU  is referenced.
   GF_LCP6_M.:E05TOU  is referenced.
   GM_LCP6_M.:E05TOU  is referenced.
   GU_LCP6_M.:E05TOU  is referenced.
   GJ_LCP6_M.:E05TOU  is referenced.
   GH_LCP6_M.:E05TOU  is referenced.
   LCP_6.:E05TOU  cannot be made into a system file and is referenced.
   K_ID_E.:E05TOU  is referenced.
   KL_AFCN_C.:E05TOU  is referenced.
   KZ_HIPTAB_C.:E05TOU  is referenced.
   KL_MACRO_C.:E05TOU  is referenced.
   KV_GLBCNS_E.:E05TOU  is referenced.
   KV$GLB.:E05TOU  is referenced.
   KH$STT.:E05TOU  is referenced.
   KZ_HIP_C.:E05TOU  is referenced.
   KV$BPC.:E05TOU  is referenced.
   KZ$BSCSTT.:E05TOU  is referenced.
   KZ$3270STT.:E05TOU  is referenced.
      No diagnostics issued in procedure KZH$HIPSTT.

   Procedure KZH$HIPSTT requires 42 words for executable code.
   Procedure KZH$HIPSTT requires 11 words of local(AUTO) storage.

    No errors detected in file KZH$HIPIO.:E05TSI    .

PL6.E3A0      #002=KZH$HIPSTT File=KZH$HIPIO.:E05TSI                             WED 07/30/97 02:55 Page:213

 Object Unit name= KZH$HIPSTT                                 File name= KZH$HIPIO.:E05TOU
 UTS= JUL 30 '97 02:55:43.76 WED                              Compiler= PL-6/E31         Sev=      00
 SharedLib= :SHARED_LCP6_SYSTEM                               Alt SharedLib=


    ****  Control sections  ****

 Sect   Type Bound  Init  Size HexSiz  Section name
    0   Proc  even  none    42     2A  KZH$HIPSTT

    ****  Entry defs  ****

                              Check   Calling
                             calling  sequence
  Sect HexLoc Primary Altret sequence   type   Parms  Name
     0      0   yes            yes      Std        2  KZH$HIPSTT

  ****  Entry refs  ****

         Check        Calling
        calling       sequence
Altret sequence SRef   type   Args  Name
                       nStd      0 X6A_AUTO_2
                       nStd      0 X6A_ARET

  ****  Data refs  ****

  Flags:  r = read only, s = secondary
Flgs Name                             Flgs Name                             Flgs Name
     KZ_HIP_HDR                            KZ_VDHSTT$                       r    G$ROS$
PL6.E3A0      #002=KZH$HIPSTT File=KZH$HIPIO.:E05TSI                             WED 07/30/97 02:55 Page:214


     1409        1        /*T***********************************************************/
     1410        2        /*T*                                                         */
     1411        3        /*T* Copyright (c) Bull HN Information Systems Inc., 1997    */
     1412        4        /*T*                                                         */
     1413        5        /*T***********************************************************/
     1414        6        %EJECT;
PL6.E3A0      #002=KZH$HIPSTT File=KZH$HIPIO.:E05TSI                             WED 07/30/97 02:55 Page:215
     1415        7        KZH$HIPSTT: PROC(KZ_VDHSTT_V, KZ_HIP_V);

      7   0 000000  D380 0000 0000  xent KZH$HIPSTT      LNJ,B5   X6A_AUTO_2
          0 000003       000B 0002                       DC       11,2

     1416        8
     1417        9        %INCLUDE KZ$3270STT;
     1418       73        %INCLUDE KZ$BSCSTT;
     1419      179        %INCLUDE KZ_HIP_C;
     1420      286        %INCLUDE KH$STT;
     1421      316        %INCLUDE KV$GLB;
     1422      735        %INCLUDE KV_GLBCNS_E;
     1423     1076        %INCLUDE KL_MACRO_C;
     1424     4428        %INCLUDE KZ_HIPTAB_C;
     1425     4670        %INCLUDE KL_AFCN_C;
     1426     4771        %INCLUDE K_ID_E;
     1427     4821        %INCLUDE LCP_6;
     1428     9100
     1429     9101        %K#ENTID_E;
     1430     9120
     1431     9121    1   DCL KZ_VDHSTT_V VECTOR;
     1432     9122    1   DCL KZ_HIP_V VECTOR;
     1433     9123
     1434     9124        %KV$STT;
     1435     9518        %KZ_HIP_HDR(STCLASS=SYMREF);
     1436     9542        %KZ$3270STT;
     1437     9974
     1438     9975    1   DCL KZ_VDHSTT$ PTR SYMREF;
     1439     9976
     1440     9977    1           KZ_VDHSTT_V=VECTOR(KZ_VDHSTT$->KV$STT);

   9977   0 000005  EC80 0000 0000  xsym                 LDB,B6   KZ_VDHSTT$
          0 000008  EFC7 0009                            STB,B6   @KZ_HIP_V+3,AUTO
          0 00000A  E870 045F                            LDR,R6   1119,IMO
          0 00000C  EF47 0008                            STR,R6   @KZ_HIP_V+2,AUTO
          0 00000E  ABC7 0008                            LAB,B2   @KZ_HIP_V+2,AUTO
          0 000010  2C00                                 LDV,R2   0
PL6.E3A0      #002=KZH$HIPSTT File=KZH$HIPIO.:E05TSI                             WED 07/30/97 02:55 Page:216
          0 000011  6C06                                 LDV,R6   6
          0 000012  BCC7 0004                            LDB,B3   @KZ_VDHSTT_V,AUTO
          0 000014  3C00                                 LDV,R3   0
          0 000015  0008                                 MMM

     1441     9978    1           KZ_HIP_V=VECTOR(KZ_HIP_HDR.STTBFR$->KZ$3270STT);

   9978   0 000016  EC80 0000 0006  xsym                 LDB,B6   KZ_HIP_HDR+6
          0 000019  EFC7 0009                            STB,B6   @KZ_HIP_V+3,AUTO
          0 00001B  E870 014B                            LDR,R6   331,IMO
          0 00001D  EF47 0008                            STR,R6   @KZ_HIP_V+2,AUTO
          0 00001F  ABC7 0008                            LAB,B2   @KZ_HIP_V+2,AUTO
          0 000021  2C00                                 LDV,R2   0
          0 000022  6C06                                 LDV,R6   6
          0 000023  BCC7 0006                            LDB,B3   @KZ_HIP_V,AUTO
          0 000025  3C00                                 LDV,R3   0
          0 000026  0008                                 MMM

     1442     9979
     1443     9980    1   END;

   9980   0 000027  C380 0000 0000  xent                 LNJ,B4   X6A_ARET
     1444     9981        %EJECT;
PL6.E3A0      #002=KZH$HIPSTT File=KZH$HIPIO.:E05TSI                             WED 07/30/97 02:55 Page:217

PL6.E3A0      #002=KZH$HIPSTT File=KZH$HIPIO.:E05TSI                             WED 07/30/97 02:55 Page:218
--  Include file information  --

   G_LCP6_E.:E05TOU  is referenced.
   GT_LCP6_M.:E05TOU  is referenced.
   KI_CP6.:E05TOU  is referenced.
   GF_LCP6_M.:E05TOU  is referenced.
   GM_LCP6_M.:E05TOU  is referenced.
   GU_LCP6_M.:E05TOU  is referenced.
   GJ_LCP6_M.:E05TOU  is referenced.
   GH_LCP6_M.:E05TOU  is referenced.
   LCP_6.:E05TOU  cannot be made into a system file and is referenced.
   K_ID_E.:E05TOU  is referenced.
   KL_AFCN_C.:E05TOU  is referenced.
   KZ_HIPTAB_C.:E05TOU  is referenced.
   KL_MACRO_C.:E05TOU  is referenced.
   KV_GLBCNS_E.:E05TOU  is referenced.
   KV$GLB.:E05TOU  is referenced.
   KH$STT.:E05TOU  is referenced.
   KZ_HIP_C.:E05TOU  is referenced.
   KV$BPC.:E05TOU  is referenced.
   KZ$BSCSTT.:E05TOU  is referenced.
   KZ$3270STT.:E05TOU  is referenced.
      No diagnostics issued in procedure KZH$HIPSTT.
PL6.E3A0      #002=KZH$HIPSTT File=KZH$HIPIO.:E05TSI                             WED 07/30/97 02:55 Page:219

 **** Variables and constants ****

  ****  Auto variables  ****

  ****  Scalars and arrays  ****
HexLoc.c.b A Datatyp(siz) R M Lvl/name                 HexLoc.c.b A Datatyp(siz) R M Lvl/name

     6-0-0/w PTR         r     1 @KZ_HIP_V                  4-0-0/w PTR         r     1 @KZ_VDHSTT_V
    *0-0-0/w VECT        r     1 KZ_HIP_V                  *0-0-0/w VECT        r     1 KZ_VDHSTT_V

  ****  SYMREF variables  ****

  ****  Scalars and arrays  ****
HexLoc.c.b A Datatyp(siz) R M Lvl/name                 HexLoc.c.b A Datatyp(siz) R M Lvl/name

     0-0-0/w STRC(272)   r     1 KZ_HIP_HDR                 0-0-0/w PTR         r     1 KZ_VDHSTT$

  ****  BASED and DCB variables  ****

  ****  Scalars and arrays  ****
HexLoc.c.b A Datatyp(siz) R M Lvl/name                 HexLoc.c.b A Datatyp(siz) R M Lvl/name

     0-0-0/w STRC(8960)  r     1 KV$STT                     0-0-0/w STRC(2656)  r     1 KZ$3270STT


   Procedure KZH$HIPSTT requires 42 words for executable code.
   Procedure KZH$HIPSTT requires 11 words of local(AUTO) storage.

    No errors detected in file KZH$HIPIO.:E05TSI    .
PL6.E3A0      #002=KZH$HIPSTT File=KZH$HIPIO.:E05TSI                             WED 07/30/97 02:55 Page:220
          *** CROSS REFERENCE LISTING ***
**     DENOTES     IDENTIFIER DEFINITION
<<                 IDENTIFIER'S VALUE SET
>>                 IDENTIFIER'S VALUE USED
<>                 IDENTIFIER SET AND/OR USED
--                 IDENTIFIER REFERENCED
PL6.E3A0      #002=KZH$HIPSTT File=KZH$HIPIO.:E05TSI                             WED 07/30/97 02:55 Page:221
          MINI XREF LISTING

KV$STT
      9151**DCL      9977--ASSIGN
KV$STT.REQSTATS.DSPMSK
      9397**DCL      9403--REDEF
KV$STT.REQSTATS.SLCMSK
      9438**DCL      9445--REDEF
KZ$3270STT
      9562**DCL      9978--ASSIGN
KZ$3270STT.REQSTATS.DSPMSK
      9833**DCL      9839--REDEF
KZ$3270STT.REQSTATS.SLCMSK
      9874**DCL      9881--REDEF
KZ_HIP_HDR.STTBFR$
      9534**DCL      9978>>ASSIGN
KZ_HIP_V
      9122**DCL         7--PROC     9978<<ASSIGN
KZ_VDHSTT$
      9975**DCL      9977>>ASSIGN
KZ_VDHSTT_V
      9121**DCL         7--PROC     9977<<ASSIGN
