VERSION E05

PL6.E3A0      #001=KZI$INIT File=KZI$INIT.:E05TSI                                WED 07/30/97 02:54 Page:1
        1        1        /*M* KZI$INIT - Main routine for the ASYNC handler */
        2        2        /*T***********************************************************/
        3        3        /*T*                                                         */
        4        4        /*T* Copyright (c) Bull HN Information Systems Inc., 1997    */
        5        5        /*T*                                                         */
        6        6        /*T***********************************************************/
        7        7        /*X*/
        8        8        KZI$INIT: PROC MAIN;
        9        9        /**/
       10       10        %INCLUDE G_JIT_M;
       11      275        %INCLUDE LCP_6;
       12     4554        %INCLUDE KH_MACRO_C;
       13     5297        %INCLUDE KL_CONTROL_C;
       14     5677        %INCLUDE KV_GLBCNS_E;
       15     6018        %INCLUDE KV_PRMID_E;
       16     6192        %INCLUDE KV$VDH;
       17     6623        %INCLUDE KV$GLB;
       18     7042        %INCLUDE KV$GLBCTX;
       19     7487        %INCLUDE KV$PRM;
       20     7700        %INCLUDE KV$USR;
       21     8012        %INCLUDE KZ$LINCTX;
       22     8632        /**/
       23     8633        %KV$VDH_VDHINT (STCLASS=STATIC);
       24     8652        %FPT_SPRIV (AUTH=YES,PRC=YES,PRIV=PRIVS);
       25     8675        %FPT_INTCON (FPTN = FPT_INTCON_INP,
       26     8676                      IENTRY = KZN$INPCMP,
       27     8677                      PRIVILEGED = YES );
       28     8698        %FPT_INTCON (FPTN = FPT_INTCON_OTP,
       29     8699                      IENTRY = KZN$OTPCMP,
       30     8700                      PRIVILEGED = YES );
       31     8721        %FPT_INTCON ( FPTN=FPT_INTCON_ACT,
       32     8722                      IENTRY = KZN$ACTVTY,
       33     8723                      PRIVILEGED = YES );
       34     8744        %FPT_GDS (RESULTS=SEGMENT,
       35     8745                  IOBUF=YES);
       36     8769        %VLP_SEGMENT (FPTN=SEGMENT);
       37     8790        %G$JIT_E;
PL6.E3A0      #001=KZI$INIT File=KZI$INIT.:E05TSI                                WED 07/30/97 02:54 Page:2
       38     8852        %KV_PRMID_E;
       39     9008        %KV_STRTYP_E;
       40     9046        %KZ$INIT (FPTN=HDR_INIT,STCLASS=STATIC);
       41     9068
       42     9069        /**/
       43     9070    1   DCL KZA$ADMIN ENTRY (1) ALTRET;
       44     9071        %KH_ENTDEFS;
       45     9078    1   DCL KZN$ACTVTY ENTRY ASYNC;
       46     9079    1   DCL KZN$INPCMP ENTRY ASYNC;
       47     9080    1   DCL KZN$OTPCMP ENTRY ASYNC;
       48     9081    1   DCL KZV$VDI ENTRY(1);
       49     9082    1   DCL KVV$VDHINT ENTRY(1) ALTRET;
       50     9083    1   DCL KVM$RCV ENTRY;
       51     9084        /**/
       52     9085        %KH$CTLTBL (FPTN = KH_CTLTBL, STCLASS = "STATIC SYMDEF",
       53     9086                    INTLVL = KZ_INT_LEV,
       54     9087                    MEM = KZ_MEM,
       55     9088                    RES = KZ_RES,
       56     9089                    ATTR = KZ_ATTR,
       57     9090                    VDHTRC = KZ_VDHTRCBFRBYTSIZ,
       58     9091                    RCVCQBYTSIZ = KV$VDH_VDHINT.RCVCQ_BYTSIZ,
       59     9092                    SNDCQBYTSIZ = KV$VDH_VDHINT.SNDCQ_BYTSIZ,
       60     9093                    MMRINTCHC = KV$VDH_VDHINT.DBG,
       61     9094                    LINERRLOGLMT = KZ_LINERRLOGLMT,
       62     9095                    LINERRDSCLMT = KZ_LINERRDSCLMT,
       63     9096                    HIPARM = KL_BISYNC_HI);
       64     9308        /**/
       65     9309        /*N*
       66     9310        DCL the following as SYMREF here. It may be done in an include
       67     9311        file later.
       68     9312        */
       69     9313    1   DCL KZ_INT_LEV UBIN SYMREF;
       70     9314    1   DCL KZ_MEM UBIN STATIC INIT (80);
       71     9315    1   DCL KZ_RES CHAR(2) STATIC INIT ('CL');
       72     9316    1   DCL KZ_ATTR BIT(16) STATIC INIT ('1000'X);
       73     9317    1   DCL KZ_VDHTRCBFRBYTSIZ UBIN SYMREF; /* It's in KZ_DTBLS_D */
       74     9318    1   DCL KZ_LINERRLOGLMT UBIN SYMREF; /* It's in KZ_DTBLS_D */
PL6.E3A0      #001=KZI$INIT File=KZI$INIT.:E05TSI                                WED 07/30/97 02:54 Page:3
       75     9319    1   DCL KZ_LINERRDSCLMT UBIN SYMREF; /* It's in KZ_DTBLS_D */
       76     9320
       77     9321    1   DCL KZ_HDR$(0:13) PTR SYMREF;
       78     9322
       79     9323    1   DCL KZR$RBTINIT ENTRY(1) OPTIONAL;
       80     9324    1   DCL KZT$3270INIT ENTRY(1) OPTIONAL;
       81     9325    1   DCL KZH$HIPINIT ENTRY(1) OPTIONAL;
       82     9326
       83     9327    1   DCL KZO$ABORT ENTRY(1);
       84     9328    1   DCL KZP$CNCDSC ENTRY(1) ALTRET;
       85     9329    1   DCL KZO$ORDERS ENTRY(2);
       86     9330    1   DCL KZP$DRIVER ENTRY(3);
       87     9331    1   DCL KZC$GO ENTRY(1);
       88     9332    1   DCL PRIVS BIT(32) CONSTANT INIT(
       89     9333    1   %(G_PR_MSYS#|G_PR_INTCON#|G_PR_CQ#|G_PR_SCREECH#|G_PR_SNAP#|G_PR_EXMM#|G_PR_SPCLMM#)
              9333            );
       90     9334
       91     9335
       92     9336    1   DCL HTYPE(0:6) EPTR CONSTANT INIT(
       93     9337    1         ENTADDR(KZR$RBTINIT),
       94     9338    1         ENTADDR(KZT$3270INIT),
       95     9339    1         ENTADDR(KZH$HIPINIT),
       96     9340    1         ENTADDR(NIL)*0);
       97     9341
       98     9342    1   DCL R EPTR;
       99     9343    1   DCL I UBIN;
      100     9344
      101     9345        %EJECT;
PL6.E3A0      #001=KZI$INIT File=KZI$INIT.:E05TSI                                WED 07/30/97 02:54 Page:4
      102     9346        /* Turn on the privileges we need */
      103     9347    1        CALL M$SPRIV (FPT_SPRIV);
      104     9348
      105     9349        /*    Determine the types of handlers included in the library and
      106     9350              let them initialize the header table.                        */
      107     9351
      108     9352
      109     9353    2         DO I = 0 TO 6;
      110     9354    3            IF HTYPE(I) ~= ENTADDR(NIL) THEN DO;
      111     9355    3               R=HTYPE(I);
      112     9356    3               CALL R (HDR_INIT);
      113     9357    3               END;
      114     9358    2            END;
      115     9359
      116     9360    1           CALL KHA$INIT ALTRET(SURRENDER);
      117     9361    1           CALL KHA$INIT_CONTROL(KH_CTLTBL) ALTRET(SURRENDER);
      118     9362
      119     9363        /*       set INT_LEV address so clock services can find it         */
      120     9364
      121     9365    1           FPT_GDS.V.PAGES = KZ_MEM;
      122     9366    1           CALL M$GDS(FPT_GDS) ALTRET(SURRENDER);
      123     9367    1           CALL M$SYS ALTRET(SURRENDER);
      124     9368    1           KV$VDH_VDHINT.BFRBGN$ = SEGMENT.BASE$;
      125     9369    1           KV$VDH_VDHINT.BFREND$ = PINCRW(SEGMENT.BASE$,SEGMENT.PAGES*256);
      126     9370    1           CALL KVV$VDHINT(KV$VDH_VDHINT) ALTRET(SURRENDER);
      127     9371        /* Establish the interupt connections */
      128     9372    1           FPT_INTCON_ACT.V.RUNLEVEL = KZ_INT_LEV;
      129     9373    1           FPT_INTCON_ACT.V.LEVEL = KZ_INT_LEV + 1;
      130     9374    1           CALL M$INTCON (FPT_INTCON_ACT) ALTRET (SURRENDER);
      131     9375    1           FPT_INTCON_OTP.V.RUNLEVEL = KZ_INT_LEV;
      132     9376    1           FPT_INTCON_OTP.V.LEVEL = KZ_INT_LEV + 2;
      133     9377    1           CALL M$INTCON(FPT_INTCON_OTP) ALTRET(SURRENDER);
      134     9378    1           FPT_INTCON_INP.V.RUNLEVEL = KZ_INT_LEV;
      135     9379    1           FPT_INTCON_INP.V.LEVEL = KZ_INT_LEV + 3;
      136     9380    1           CALL M$INTCON(FPT_INTCON_INP) ALTRET(SURRENDER);
      137     9381    1           CALL KHA$INIT_CHANTBL(KZ_RES,KZ_ATTR,ENTADDR(KZA$ADMIN)) ALTRET(SURRENDER);
      138     9382    1           CALL KHA$INIT_DONE ALTRET(SURRENDER);
PL6.E3A0      #001=KZI$INIT File=KZI$INIT.:E05TSI                                WED 07/30/97 02:54 Page:5
      139     9383
      140     9384                /* Now exit to VDH - this call never returns */
      141     9385    1           CALL KVM$RCV;
      142     9386    1           RETURN;
      143     9387    1   SURRENDER:;
      144     9388    1           CALL M$XXX;
      145     9389    1   END KZI$INIT;

PL6.E3A0      #001=KZI$INIT File=KZI$INIT.:E05TSI                                WED 07/30/97 02:54 Page:6
--  Include file information  --

   KZ$LINCTX.:E05TOU  is referenced.
   KV$USR.:E05TOU  is referenced.
   KV$PRM.:E05TOU  is referenced.
   KV$GLBCTX.:E05TOU  is referenced.
   KV$GLB.:E05TOU  is referenced.
   KV$VDH.:E05TOU  is referenced.
   KV_PRMID_E.:E05TOU  is referenced.
   KV_GLBCNS_E.:E05TOU  is referenced.
   KL_CONTROL_C.:E05TOU  is referenced.
   KH_MACRO_C.:E05TOU  is referenced.
   G_LCP6_E.:E05TOU  is referenced.
   GT_LCP6_M.:E05TOU  is referenced.
   KI_CP6.:E05TOU  is referenced.
   GF_LCP6_M.:E05TOU  is referenced.
   GM_LCP6_M.:E05TOU  is referenced.
   GU_LCP6_M.:E05TOU  is referenced.
   GJ_LCP6_M.:E05TOU  is referenced.
   GH_LCP6_M.:E05TOU  is referenced.
   LCP_6.:E05TOU  cannot be made into a system file and is referenced.
   G_JIT_M.:E05TOU  is referenced.
      No diagnostics issued in procedure KZI$INIT.

   Procedure KZI$INIT requires 197 words for executable code.
   Procedure KZI$INIT requires 16 words of local(AUTO) storage.

    No errors detected in file KZI$INIT.:E05TSI    .

PL6.E3A0      #001=KZI$INIT File=KZI$INIT.:E05TSI                                WED 07/30/97 02:54 Page:7

 Object Unit name= KZI$INIT                                   File name= KZI$INIT.:E05TOU
 UTS= JUL 30 '97 02:54:14.60 WED                              Compiler= PL-6/E31         Sev=      00
 SharedLib= :SHARED_LCP6_SYSTEM                               Alt SharedLib=


    ****  Control sections  ****

 Sect   Type Bound  Init  Size HexSiz  Section name
    0   Data  even  none   153     99  KZI$INIT
    1  RoData even  UTS     16     10  KZI$INIT
    2   Proc  even  none   197     C5  KZI$INIT
    3  RoData even  none     8      8  KZI$INIT

    ****  Entry defs  ****

                              Check   Calling
                             calling  sequence
  Sect HexLoc Primary Altret sequence   type   Parms  Name
     2      0   yes            yes      Main       0  KZI$INIT

  ****  Data defs  ****

 Sect HexLoc  Name                           Sect HexLoc  Name
    0     44  KH_CTLTBL
PL6.E3A0      #001=KZI$INIT File=KZI$INIT.:E05TSI                                WED 07/30/97 02:54 Page:8

  ****  Entry refs  ****

         Check        Calling
        calling       sequence
Altret sequence SRef   type   Args  Name
         yes          Async      0 KZN$INPCMP
         yes          Async      0 KZN$OTPCMP
 yes     yes           Std       1 KZP$CNCDSC
         yes           Std       3 KZP$DRIVER
 yes     yes           Std       3 KHA$INIT_DONE
         yes    yes    Std       1 KZR$RBTINIT
 yes     yes           Std       3 KHA$INIT_CHANTBL
         yes          Async      0 KZN$ACTVTY
         yes           Std       2 KZO$ORDERS
 yes     yes           Std       1 KZA$ADMIN
         yes    yes    Std       1 KZT$3270INIT
         yes           Std       0 KVM$RCV
         yes    yes    Std       1 KZH$HIPINIT
 yes     yes           Std       3 KHA$INIT
         yes           Std       1 KZO$ABORT
         yes           Std       1 KZC$GO
 yes     yes           Std       1 KVV$VDHINT
 yes     yes           Std       3 KHA$INIT_CONTROL
                       nStd      0 X6A_MAUTO
                       nStd      0 X6A_MARET

  ****  Data refs  ****

  Flags:  r = read only, s = secondary
Flgs Name                             Flgs Name                             Flgs Name
     KZ_INT_LEV                            KZ_VDHTRCBFRBYTSIZ                    KZ_LINERRLOGLMT
     KZ_LINERRDSCLMT                       KZ_HDR$                          r    G$ROS$
PL6.E3A0      #001=KZI$INIT File=KZI$INIT.:E05TSI                                WED 07/30/97 02:54 Page:9


        1        1        /*M* KZI$INIT - Main routine for the ASYNC handler */
        2        2        /*T***********************************************************/
        3        3        /*T*                                                         */
        4        4        /*T* Copyright (c) Bull HN Information Systems Inc., 1997    */
        5        5        /*T*                                                         */
        6        6        /*T***********************************************************/
        7        7        /*X*/
        8        8        KZI$INIT: PROC MAIN;

      8   2 000000  D380 0000 0000  xent KZI$INIT        LNJ,B5   X6A_MAUTO
          2 000003       0010 0000                       DC       16,0

        9        9        /**/
       10       10        %INCLUDE G_JIT_M;
       11      275        %INCLUDE LCP_6;
       12     4554        %INCLUDE KH_MACRO_C;
       13     5297        %INCLUDE KL_CONTROL_C;
       14     5677        %INCLUDE KV_GLBCNS_E;
       15     6018        %INCLUDE KV_PRMID_E;
       16     6192        %INCLUDE KV$VDH;
       17     6623        %INCLUDE KV$GLB;
       18     7042        %INCLUDE KV$GLBCTX;
       19     7487        %INCLUDE KV$PRM;
       20     7700        %INCLUDE KV$USR;
       21     8012        %INCLUDE KZ$LINCTX;
       22     8632        /**/
       23     8633        %KV$VDH_VDHINT (STCLASS=STATIC);
       24     8652        %FPT_SPRIV (AUTH=YES,PRC=YES,PRIV=PRIVS);
       25     8675        %FPT_INTCON (FPTN = FPT_INTCON_INP,
       26     8676                      IENTRY = KZN$INPCMP,
       27     8677                      PRIVILEGED = YES );
       28     8698        %FPT_INTCON (FPTN = FPT_INTCON_OTP,
       29     8699                      IENTRY = KZN$OTPCMP,
       30     8700                      PRIVILEGED = YES );
       31     8721        %FPT_INTCON ( FPTN=FPT_INTCON_ACT,
       32     8722                      IENTRY = KZN$ACTVTY,
PL6.E3A0      #001=KZI$INIT File=KZI$INIT.:E05TSI                                WED 07/30/97 02:54 Page:10
       33     8723                      PRIVILEGED = YES );
       34     8744        %FPT_GDS (RESULTS=SEGMENT,
       35     8745                  IOBUF=YES);
       36     8769        %VLP_SEGMENT (FPTN=SEGMENT);
       37     8790        %G$JIT_E;
       38     8852        %KV_PRMID_E;
       39     9008        %KV_STRTYP_E;
       40     9046        %KZ$INIT (FPTN=HDR_INIT,STCLASS=STATIC);
       41     9068
       42     9069        /**/
       43     9070    1   DCL KZA$ADMIN ENTRY (1) ALTRET;
       44     9071        %KH_ENTDEFS;
       45     9078    1   DCL KZN$ACTVTY ENTRY ASYNC;
       46     9079    1   DCL KZN$INPCMP ENTRY ASYNC;
       47     9080    1   DCL KZN$OTPCMP ENTRY ASYNC;
       48     9081    1   DCL KZV$VDI ENTRY(1);
       49     9082    1   DCL KVV$VDHINT ENTRY(1) ALTRET;
       50     9083    1   DCL KVM$RCV ENTRY;
       51     9084        /**/
       52     9085        %KH$CTLTBL (FPTN = KH_CTLTBL, STCLASS = "STATIC SYMDEF",
       53     9086                    INTLVL = KZ_INT_LEV,
       54     9087                    MEM = KZ_MEM,
       55     9088                    RES = KZ_RES,
       56     9089                    ATTR = KZ_ATTR,
       57     9090                    VDHTRC = KZ_VDHTRCBFRBYTSIZ,
       58     9091                    RCVCQBYTSIZ = KV$VDH_VDHINT.RCVCQ_BYTSIZ,
       59     9092                    SNDCQBYTSIZ = KV$VDH_VDHINT.SNDCQ_BYTSIZ,
       60     9093                    MMRINTCHC = KV$VDH_VDHINT.DBG,
       61     9094                    LINERRLOGLMT = KZ_LINERRLOGLMT,
       62     9095                    LINERRDSCLMT = KZ_LINERRDSCLMT,
       63     9096                    HIPARM = KL_BISYNC_HI);
       64     9308        /**/
       65     9309        /*N*
       66     9310        DCL the following as SYMREF here. It may be done in an include
       67     9311        file later.
       68     9312        */
       69     9313    1   DCL KZ_INT_LEV UBIN SYMREF;
PL6.E3A0      #001=KZI$INIT File=KZI$INIT.:E05TSI                                WED 07/30/97 02:54 Page:11
       70     9314    1   DCL KZ_MEM UBIN STATIC INIT (80);
       71     9315    1   DCL KZ_RES CHAR(2) STATIC INIT ('CL');
       72     9316    1   DCL KZ_ATTR BIT(16) STATIC INIT ('1000'X);
       73     9317    1   DCL KZ_VDHTRCBFRBYTSIZ UBIN SYMREF; /* It's in KZ_DTBLS_D */
       74     9318    1   DCL KZ_LINERRLOGLMT UBIN SYMREF; /* It's in KZ_DTBLS_D */
       75     9319    1   DCL KZ_LINERRDSCLMT UBIN SYMREF; /* It's in KZ_DTBLS_D */
       76     9320
       77     9321    1   DCL KZ_HDR$(0:13) PTR SYMREF;
       78     9322
       79     9323    1   DCL KZR$RBTINIT ENTRY(1) OPTIONAL;
       80     9324    1   DCL KZT$3270INIT ENTRY(1) OPTIONAL;
       81     9325    1   DCL KZH$HIPINIT ENTRY(1) OPTIONAL;
       82     9326
       83     9327    1   DCL KZO$ABORT ENTRY(1);
       84     9328    1   DCL KZP$CNCDSC ENTRY(1) ALTRET;
       85     9329    1   DCL KZO$ORDERS ENTRY(2);
       86     9330    1   DCL KZP$DRIVER ENTRY(3);
       87     9331    1   DCL KZC$GO ENTRY(1);
       88     9332    1   DCL PRIVS BIT(32) CONSTANT INIT(
       89     9333    1  %(G_PR_MSYS#|G_PR_INTCON#|G_PR_CQ#|G_PR_SCREECH#|G_PR_SNAP#|G_PR_EXMM#|G_PR_SPCLMM#)
              9333            );
       90     9334
       91     9335
       92     9336    1   DCL HTYPE(0:6) EPTR CONSTANT INIT(
       93     9337    1         ENTADDR(KZR$RBTINIT),
       94     9338    1         ENTADDR(KZT$3270INIT),
       95     9339    1         ENTADDR(KZH$HIPINIT),
       96     9340    1         ENTADDR(NIL)*0);
       97     9341
       98     9342    1   DCL R EPTR;
       99     9343    1   DCL I UBIN;
      100     9344
      101     9345        %EJECT;
PL6.E3A0      #001=KZI$INIT File=KZI$INIT.:E05TSI                                WED 07/30/97 02:54 Page:12
      102     9346        /* Turn on the privileges we need */
      103     9347    1        CALL M$SPRIV (FPT_SPRIV);

   9347   2 000005  BB80 0000 0008  00                   LAB,B3   FPT_SPRIV
          2 000008  B870 0CD0                            LDR,R3   3280,IMO
          2 00000A  0001                                 MCL
          2 00000B       0000                            DC       s:9347+6,PREL

      104     9348
      105     9349        /*    Determine the types of handlers included in the library and
      106     9350              let them initialize the header table.                        */
      107     9351
      108     9352
      109     9353    2         DO I = 0 TO 6;

   9353   2 00000C  8747 0006                            CL       I,AUTO

      110     9354    3            IF HTYPE(I) ~= ENTADDR(NIL) THEN DO;

   9354   2 00000E  B847 0006                            LDR,R3   I,AUTO
          2 000010  ECB0 0000 0002  01                   LDB,B6   HTYPE,R3
          2 000013  ED80 0000 0000  03                   CMB,B6   0
          2 000016  0901 000B                            BE       s:9358,PREL

      111     9355    3               R=HTYPE(I);

   9355   2 000018  EFC7 0004                            STB,B6   R,AUTO

      112     9356    3               CALL R (HDR_INIT);

   9356   2 00001A  BB80 0000 0002  03                   LAB,B3   +2
          2 00001D  9B86                                 LAB,B1   ,B6
          2 00001E  CBF0 0100                            LAB,B4   256,IMO
          2 000020  E381                                 LNJ,B6   ,B1
          2 000021       0001                            DC       s:9358,PREL

      113     9357    3               END;
PL6.E3A0      #001=KZI$INIT File=KZI$INIT.:E05TSI                                WED 07/30/97 02:54 Page:13

      114     9358    2            END;

   9358   2 000022  8AC7 0006                            INC      I,AUTO
          2 000024  E847 0006                            LDR,R6   I,AUTO
          2 000026  6D06                                 CMV,R6   6
          2 000027  03E7                                 BLE      s:9354,SPREL

      115     9359
      116     9360    1           CALL KHA$INIT ALTRET(SURRENDER);

   9360   2 000028  CBF0 0000                            LAB,B4   0,IMO
          2 00002A  E380 0000 0000  xent                 LNJ,B6   KHA$INIT
          2 00002D       0091                            DC       s:9379,PREL

      117     9361    1           CALL KHA$INIT_CONTROL(KH_CTLTBL) ALTRET(SURRENDER);

   9361   2 00002E  BB80 0000 0004  03                   LAB,B3   +4
          2 000031  CBF0 0100                            LAB,B4   256,IMO
          2 000033  E380 0000 0000  xent                 LNJ,B6   KHA$INIT_CONTROL
          2 000036       0088                            DC       s:9379,PREL

      118     9362
      119     9363        /*       set INT_LEV address so clock services can find it         */
      120     9364
      121     9365    1           FPT_GDS.V.PAGES = KZ_MEM;

   9365   2 000037  E800 0000 0096  00                   LDR,R6   KZ_MEM
          2 00003A  EF00 0000 0033  00                   STR,R6   FPT_GDS+6

      122     9366    1           CALL M$GDS(FPT_GDS) ALTRET(SURRENDER);

   9366   2 00003D  BB80 0000 002D  00                   LAB,B3   FPT_GDS
          2 000040  B870 0902                            LDR,R3   2306,IMO
          2 000042  0001                                 MCL
          2 000043       007B                            DC       s:9379,PREL

PL6.E3A0      #001=KZI$INIT File=KZI$INIT.:E05TSI                                WED 07/30/97 02:54 Page:14
      123     9367    1           CALL M$SYS ALTRET(SURRENDER);

   9367   2 000044  3C43                                 LDV,R3   67
          2 000045  0001                                 MCL
          2 000046       0078                            DC       s:9379,PREL

      124     9368    1           KV$VDH_VDHINT.BFRBGN$ = SEGMENT.BASE$;

   9368   2 000047  EC80 0000 0035  00                   LDB,B6   SEGMENT
          2 00004A  EF80 0000 0000  00                   STB,B6   KV$VDH_VDHINT

      125     9369    1           KV$VDH_VDHINT.BFREND$ = PINCRW(SEGMENT.BASE$,SEGMENT.PAGES*256);

   9369   2 00004D  F800 0000 0037  00                   LDR,R7   SEGMENT+2
          2 000050  6C00                                 LDV,R6   0
          2 000051  7088                                 DOL,R7   8
          2 000052  8400 0000 0035  00                   AID      SEGMENT
          2 000055  8D00 0000 0002  00                   SDI      KV$VDH_VDHINT+2

      126     9370    1           CALL KVV$VDHINT(KV$VDH_VDHINT) ALTRET(SURRENDER);

   9370   2 000058  BB80 0000 0006  03                   LAB,B3   +6
          2 00005B  CBF0 0100                            LAB,B4   256,IMO
          2 00005D  E380 0000 0000  xent                 LNJ,B6   KVV$VDHINT
          2 000060       005E                            DC       s:9379,PREL

      127     9371        /* Establish the interupt connections */
      128     9372    1           FPT_INTCON_ACT.V.RUNLEVEL = KZ_INT_LEV;

   9372   2 000061  E800 0000 0000  xsym                 LDR,R6   KZ_INT_LEV
          2 000064  EF00 0000 002A  00                   STR,R6   FPT_INTCON_ACT+6

      129     9373    1           FPT_INTCON_ACT.V.LEVEL = KZ_INT_LEV + 1;

   9373   2 000067  6E01                                 ADV,R6   1
          2 000068  EF00 0000 0029  00                   STR,R6   FPT_INTCON_ACT+5

PL6.E3A0      #001=KZI$INIT File=KZI$INIT.:E05TSI                                WED 07/30/97 02:54 Page:15
      130     9374    1           CALL M$INTCON (FPT_INTCON_ACT) ALTRET (SURRENDER);

   9374   2 00006B  BB80 0000 0024  00                   LAB,B3   FPT_INTCON_ACT
          2 00006E  B870 0441                            LDR,R3   1089,IMO
          2 000070  0001                                 MCL
          2 000071       004D                            DC       s:9379,PREL

      131     9375    1           FPT_INTCON_OTP.V.RUNLEVEL = KZ_INT_LEV;

   9375   2 000072  E800 0000 0000  xsym                 LDR,R6   KZ_INT_LEV
          2 000075  EF00 0000 0021  00                   STR,R6   FPT_INTCON_OTP+6

      132     9376    1           FPT_INTCON_OTP.V.LEVEL = KZ_INT_LEV + 2;

   9376   2 000078  6E02                                 ADV,R6   2
          2 000079  EF00 0000 0020  00                   STR,R6   FPT_INTCON_OTP+5

      133     9377    1           CALL M$INTCON(FPT_INTCON_OTP) ALTRET(SURRENDER);

   9377   2 00007C  BB80 0000 001B  00                   LAB,B3   FPT_INTCON_OTP
          2 00007F  B870 0441                            LDR,R3   1089,IMO
          2 000081  0001                                 MCL
          2 000082       003C                            DC       s:9379,PREL

      134     9378    1           FPT_INTCON_INP.V.RUNLEVEL = KZ_INT_LEV;

   9378   2 000083  E800 0000 0000  xsym                 LDR,R6   KZ_INT_LEV
          2 000086  EF00 0000 0018  00                   STR,R6   FPT_INTCON_INP+6

      135     9379    1           FPT_INTCON_INP.V.LEVEL = KZ_INT_LEV + 3;

   9379   2 000089  6E03                                 ADV,R6   3
          2 00008A  EF00 0000 0017  00                   STR,R6   FPT_INTCON_INP+5

      136     9380    1           CALL M$INTCON(FPT_INTCON_INP) ALTRET(SURRENDER);

   9380   2 00008D  BB80 0000 0012  00                   LAB,B3   FPT_INTCON_INP
PL6.E3A0      #001=KZI$INIT File=KZI$INIT.:E05TSI                                WED 07/30/97 02:54 Page:16
          2 000090  B870 0441                            LDR,R3   1089,IMO
          2 000092  0001                                 MCL
          2 000093       002B                            DC       s:9379,PREL

      137     9381    1           CALL KHA$INIT_CHANTBL(KZ_RES,KZ_ATTR,ENTADDR(KZA$ADMIN)) ALTRET(SURRENDER);

   9381   2 000094  EB80 0000 0000  xent                 LAB,B6   KZA$ADMIN
          2 000097  EFC7 0008                            STB,B6   I+2,AUTO
          2 000099  DBC7 0008                            LAB,B5   I+2,AUTO
          2 00009B  DFC7 000E                            STB,B5   I+8,AUTO
          2 00009D  CB80 0000 0098  00                   LAB,B4   KZ_ATTR
          2 0000A0  CFC7 000C                            STB,B4   I+6,AUTO
          2 0000A2  BB80 0000 0097  00                   LAB,B3   KZ_RES
          2 0000A5  BFC7 000A                            STB,B3   I+4,AUTO
          2 0000A7  BBC7 000A                            LAB,B3   I+4,AUTO
          2 0000A9  CBF0 0300                            LAB,B4   768,IMO
          2 0000AB  E380 0000 0000  xent                 LNJ,B6   KHA$INIT_CHANTBL
          2 0000AE       0010                            DC       s:9379,PREL

      138     9382    1           CALL KHA$INIT_DONE ALTRET(SURRENDER);

   9382   2 0000AF  CBF0 0000                            LAB,B4   0,IMO
          2 0000B1  E380 0000 0000  xent                 LNJ,B6   KHA$INIT_DONE
          2 0000B4       000A                            DC       s:9379,PREL

      139     9383
      140     9384                /* Now exit to VDH - this call never returns */
      141     9385    1           CALL KVM$RCV;

   9385   2 0000B5  CBF0 0000                            LAB,B4   0,IMO
          2 0000B7  E380 0000 0000  xent                 LNJ,B6   KVM$RCV
          2 0000BA       0001                            DC       s:9386,PREL

      142     9386    1           RETURN;

   9386   2 0000BB  C380 0000 0000  xent                 LNJ,B4   X6A_MARET

PL6.E3A0      #001=KZI$INIT File=KZI$INIT.:E05TSI                                WED 07/30/97 02:54 Page:17
   9379   2                              SURRENDER       null
      143     9387    1   SURRENDER:;
      144     9388    1           CALL M$XXX;

   9388   2 0000BE  B870 0082            SURRENDER       LDR,R3   130,IMO
          2 0000C0  0001                                 MCL
          2 0000C1       0000                            DC       s:9379+3,PREL

      145     9389    1   END KZI$INIT;

   9389   2 0000C2  C380 0000 0000  xent                 LNJ,B4   X6A_MARET

PL6.E3A0      #001=KZI$INIT File=KZI$INIT.:E05TSI                                WED 07/30/97 02:54 Page:18
--  Include file information  --

   KZ$LINCTX.:E05TOU  is referenced.
   KV$USR.:E05TOU  is referenced.
   KV$PRM.:E05TOU  is referenced.
   KV$GLBCTX.:E05TOU  is referenced.
   KV$GLB.:E05TOU  is referenced.
   KV$VDH.:E05TOU  is referenced.
   KV_PRMID_E.:E05TOU  is referenced.
   KV_GLBCNS_E.:E05TOU  is referenced.
   KL_CONTROL_C.:E05TOU  is referenced.
   KH_MACRO_C.:E05TOU  is referenced.
   G_LCP6_E.:E05TOU  is referenced.
   GT_LCP6_M.:E05TOU  is referenced.
   KI_CP6.:E05TOU  is referenced.
   GF_LCP6_M.:E05TOU  is referenced.
   GM_LCP6_M.:E05TOU  is referenced.
   GU_LCP6_M.:E05TOU  is referenced.
   GJ_LCP6_M.:E05TOU  is referenced.
   GH_LCP6_M.:E05TOU  is referenced.
   LCP_6.:E05TOU  cannot be made into a system file and is referenced.
   G_JIT_M.:E05TOU  is referenced.
      No diagnostics issued in procedure KZI$INIT.
PL6.E3A0      #001=KZI$INIT File=KZI$INIT.:E05TSI                                WED 07/30/97 02:54 Page:19

 **** Variables and constants ****

  ****  Section 000  Data  KZI$INIT

  ****  Scalars and arrays  ****
HexLoc.c.b A Datatyp(siz) R M Lvl/name                 HexLoc.c.b A Datatyp(siz) R M Lvl/name

    2D-0-0/w STRC(128)   r     1 FPT_GDS                   24-0-0/w STRC(144)   r     1 FPT_INTCON_ACT
    12-0-0/w STRC(144)   r     1 FPT_INTCON_INP            1B-0-0/w STRC(144)   r     1 FPT_INTCON_OTP
     8-0-0/w STRC(160)   r     1 FPT_SPRIV                 38-0-0/w STRC(192)   r     1 HDR_INIT
    44-0-0/w STRC(1312)  r     1 KH_CTLTBL                  0-0-0/w STRC(128)   r     1 KV$VDH_VDHINT
    98-0-0/b BIT (16)    r     1 KZ_ATTR                   96-0-0/w UBIN(16)    r     1 KZ_MEM
    97-0-0/c CHAR(2)     r     1 KZ_RES                    35-0-0/w STRC(48)    r     1 SEGMENT

  ****  Section 001 RoData KZI$INIT

  ****  Scalars and arrays  ****
HexLoc.c.b A Datatyp(siz) R M Lvl/name                 HexLoc.c.b A Datatyp(siz) R M Lvl/name

     2-0-0/w EPTR        r     1 HTYPE(0:6)                 0-0-0/b BIT (32)    r     1 PRIVS

  ****  Auto variables  ****

  ****  Scalars and arrays  ****
HexLoc.c.b A Datatyp(siz) R M Lvl/name                 HexLoc.c.b A Datatyp(siz) R M Lvl/name

     6-0-0/w UBIN(16)    r     1 I                          4-0-0/w EPTR        r     1 R

  ****  SYMREF variables  ****

  ****  Scalars and arrays  ****
HexLoc.c.b A Datatyp(siz) R M Lvl/name                 HexLoc.c.b A Datatyp(siz) R M Lvl/name

     0-0-0/w PTR         r     1 KZ_HDR$(0:13)              0-0-0/w UBIN(16)    r     1 KZ_INT_LEV
     0-0-0/w UBIN(16)    r     1 KZ_LINERRDSCLMT            0-0-0/w UBIN(16)    r     1 KZ_LINERRLOGLMT
     0-0-0/w UBIN(16)    r     1 KZ_VDHTRCBFRBYTSIZ

PL6.E3A0      #001=KZI$INIT File=KZI$INIT.:E05TSI                                WED 07/30/97 02:54 Page:20

   Procedure KZI$INIT requires 197 words for executable code.
   Procedure KZI$INIT requires 16 words of local(AUTO) storage.

    No errors detected in file KZI$INIT.:E05TSI    .
PL6.E3A0      #001=KZI$INIT File=KZI$INIT.:E05TSI                                WED 07/30/97 02:54 Page:21
          *** CROSS REFERENCE LISTING ***
**     DENOTES     IDENTIFIER DEFINITION
<<                 IDENTIFIER'S VALUE SET
>>                 IDENTIFIER'S VALUE USED
<>                 IDENTIFIER SET AND/OR USED
--                 IDENTIFIER REFERENCED
PL6.E3A0      #001=KZI$INIT File=KZI$INIT.:E05TSI                                WED 07/30/97 02:54 Page:22
          MINI XREF LISTING

FPT_GDS
      8758**DCL      9366<>CALL
FPT_GDS.V
      8761**DCL      8761--DCLINIT
FPT_GDS.V.PAGES
      8765**DCL      9365<<ASSIGN
FPT_INTCON_ACT
      8736**DCL      9374<>CALL
FPT_INTCON_ACT.V
      8740**DCL      8738--DCLINIT
FPT_INTCON_ACT.V.LEVEL
      8740**DCL      9373<<ASSIGN
FPT_INTCON_ACT.V.RUNLEVEL
      8740**DCL      9372<<ASSIGN
FPT_INTCON_INP
      8690**DCL      9380<>CALL
FPT_INTCON_INP.V
      8694**DCL      8692--DCLINIT
FPT_INTCON_INP.V.LEVEL
      8694**DCL      9379<<ASSIGN
FPT_INTCON_INP.V.RUNLEVEL
      8694**DCL      9378<<ASSIGN
FPT_INTCON_OTP
      8713**DCL      9377<>CALL
FPT_INTCON_OTP.V
      8717**DCL      8715--DCLINIT
FPT_INTCON_OTP.V.LEVEL
      8717**DCL      9376<<ASSIGN
FPT_INTCON_OTP.V.RUNLEVEL
      8717**DCL      9375<<ASSIGN
FPT_SPRIV
      8665**DCL      9347<>CALL
PL6.E3A0      #001=KZI$INIT File=KZI$INIT.:E05TSI                                WED 07/30/97 02:54 Page:23
FPT_SPRIV.V
      8667**DCL      8667--DCLINIT
HDR_INIT
      9060**DCL      9356<>CALL
HTYPE
      9336**DCL      9354>>IF       9355>>ASSIGN
I
      9343**DCL      9353<<DOINDEX  9354>>IF       9355>>ASSIGN
KHA$INIT
      9073**DCL-ENT  9360--CALL
KHA$INIT_CHANTBL
      9075**DCL-ENT  9381--CALL
KHA$INIT_CONTROL
      9074**DCL-ENT  9361--CALL
KHA$INIT_DONE
      9076**DCL-ENT  9382--CALL
KH_CTLTBL
      9113**DCL      9361<>CALL
KV$VDH_VDHINT
      8646**DCL      9370<>CALL
KV$VDH_VDHINT.BFRBGN$
      8646**DCL      9368<<ASSIGN
KV$VDH_VDHINT.BFREND$
      8646**DCL      9369<<ASSIGN
KV$VDH_VDHINT.DBG
      8647**DCL      9255--DCLINIT
KV$VDH_VDHINT.RCVCQ_BYTSIZ
      8650**DCL      9253--DCLINIT
KV$VDH_VDHINT.SNDCQ_BYTSIZ
      8650**DCL      9254--DCLINIT
KVM$RCV
      9083**DCL-ENT  9385--CALL
KVV$VDHINT
      9082**DCL-ENT  9370--CALL
KZA$ADMIN
      9070**DCL-ENT  9381--CALL
PL6.E3A0      #001=KZI$INIT File=KZI$INIT.:E05TSI                                WED 07/30/97 02:54 Page:24
KZC$GO
      9331**DCL-ENT  9066--DCLINIT
KZH$HIPINIT
      9325**DCL-ENT  9339--DCLINIT
KZN$ACTVTY
      9078**DCL-ENT  8740--DCLINIT
KZN$INPCMP
      9079**DCL-ENT  8694--DCLINIT
KZN$OTPCMP
      9080**DCL-ENT  8717--DCLINIT
KZO$ABORT
      9327**DCL-ENT  9062--DCLINIT
KZO$ORDERS
      9329**DCL-ENT  9064--DCLINIT
KZP$CNCDSC
      9328**DCL-ENT  9063--DCLINIT
KZP$DRIVER
      9330**DCL-ENT  9065--DCLINIT
KZR$RBTINIT
      9323**DCL-ENT  9337--DCLINIT
KZT$3270INIT
      9324**DCL-ENT  9338--DCLINIT
KZ_ATTR
      9316**DCL      9245--DCLINIT  9381<>CALL
KZ_HDR$
      9321**DCL      9061--DCLINIT
KZ_INT_LEV
      9313**DCL      9241--DCLINIT  9372>>ASSIGN   9373>>ASSIGN   9375>>ASSIGN   9376>>ASSIGN   9378>>ASSIGN
      9379>>ASSIGN
KZ_LINERRDSCLMT
      9319**DCL      9248--DCLINIT
KZ_LINERRLOGLMT
      9318**DCL      9247--DCLINIT
KZ_MEM
      9314**DCL      9242--DCLINIT  9365>>ASSIGN
KZ_RES
PL6.E3A0      #001=KZI$INIT File=KZI$INIT.:E05TSI                                WED 07/30/97 02:54 Page:25
      9315**DCL      9244--DCLINIT  9381<>CALL
KZ_VDHTRCBFRBYTSIZ
      9317**DCL      9250--DCLINIT
M$GDS
      4530**DCL-ENT  9366--CALL
M$INTCON
      4509**DCL-ENT  9374--CALL     9377--CALL     9380--CALL
M$SPRIV
      4524**DCL-ENT  9347--CALL
M$SYS
      4510**DCL-ENT  9367--CALL
M$XXX
      4513**DCL-ENT  9388--CALL
PRIVS
      9332**DCL      8667--DCLINIT
R
      9342**DCL      9355<<ASSIGN   9356>>CALL
SEGMENT
      8783**DCL      8761--DCLINIT
SEGMENT.BASE
      8787**DCL      8787--REDEF
SEGMENT.BASE$
      8787**DCL      9368>>ASSIGN   9369>>ASSIGN
SEGMENT.PAGES
      8787**DCL      9369>>ASSIGN
SURRENDER
      9379**LABEL    9360--CALLALT  9361--CALLALT  9366--CALLALT  9367--CALLALT  9370--CALLALT  9374--CALLALT
      9377--CALLALT  9380--CALLALT  9381--CALLALT  9382--CALLALT
