PL6.E3A0      #003=KZP$INIT File=KZP$PSRV.:E05TSI                                WED 07/30/97 03:01 Page:160
     1079        1        /*T***********************************************************/
     1080        2        /*T*                                                         */
     1081        3        /*T* Copyright (c) Bull HN Information Systems Inc., 1997    */
     1082        4        /*T*                                                         */
     1083        5        /*T***********************************************************/
     1084        6        %EJECT;
PL6.E3A0      #003=KZP$INIT File=KZP$PSRV.:E05TSI                                WED 07/30/97 03:01 Page:161
     1085        7        /*F*     NAME:     KZP$INIT
     1086        8                 PURPOSE:  This is the initial device manager for non-auto
     1087        9                           logged lines.  It is called when the initial ENQ
     1088       10                           comes on the line.  If it were an SOH-ENQ the
     1089       11                           line context is initialized with minimum required
     1090       12                           data to support logging on a HASP line.  If it were
     1091       13                           an ENQ, the line context is initialized for 3780
     1092       14                           protocol.
     1093       15        */
     1094       16        %EJECT;
PL6.E3A0      #003=KZP$INIT File=KZP$PSRV.:E05TSI                                WED 07/30/97 03:01 Page:162
     1095       17        KZP$INIT: PROC ( KZ@LINCTX, KZ@BSCFPT ) ALTRET;
     1096       18
     1097       19           %INCLUDE KH$CHN;
     1098      141           %INCLUDE KZ$LINCTX;
     1099      761           %INCLUDE KZ_BSCFPT;
     1100      791           %INCLUDE KZ_CLM_E;
     1101      963           %INCLUDE KZ_INIT_C;
     1102     1299           %INCLUDE KZ_MLCP_C;
     1103     1374           %INCLUDE KL_SUPER_C;
     1104     4276           %INCLUDE LCP_6;
     1105     8555           %INCLUDE CP_6_SUBS;
     1106     9095
     1107     9096           %KZ$LINCTX         ( NAME = KZ@LINCTX,
     1108     9097                                STCLASS = PARAM );
     1109     9528           %KZ_BSCFPT         ( NAME = KZ@BSCFPT,
     1110     9529                                STCLASS = PARAM );
     1111     9538
     1112     9539           %KZ$EVENT          ( STCLASS = AUTO );
     1113     9621
     1114     9622           %KZ_INIT_HDR       ( NAME = KZ_INIT_HDR,
     1115     9623                                STTHND = NIL,
     1116     9624                                STTBFR = NIL,
     1117     9625                                STCLASS = "CONSTANT SYMDEF" );
     1118     9649
     1119     9650           %KZ_INIT_MAP       ( NAME = KZ_INIT_MAP,
     1120     9651                                STCLASS = "CONSTANT SYMDEF" );
     1121     9699
     1122     9700           %KZ_INIT_STBL      ( NAME = KZ_INIT_STBL,
     1123     9701                                STCLASS = "CONSTANT SYMDEF" );
     1124     9908
     1125     9909           %KZ_INIT_HDR       ( NAME = KZ$HDR,
     1126     9910                                STCLASS = BASED );
     1127     9934
     1128     9935           %KH$CHN;
     1129    10059
     1130    10060           %FPT_WRSYSLOG       ( FPTN = MEMORY_LOG,
     1131    10061                                 STCLASS = SYMREF );
PL6.E3A0      #003=KZP$INIT File=KZP$PSRV.:E05TSI                                WED 07/30/97 03:01 Page:163
     1132    10156
     1133    10157
     1134    10158    1   DCL KHA$ERRLOG ENTRY (2) ALTRET;
     1135    10159    1   DCL KVB$GETSYS ENTRY (2) ALTRET;
     1136    10160    1   DCL KZO$ABORT ENTRY (1);
     1137    10161    1   DCL KZO$ORDERS ENTRY (2);
     1138    10162    1   DCL KZP$CNCDSC ENTRY (1) ALTRET;
     1139    10163
     1140    10164    1   DCL KZ_HDR$(0:13) PTR SYMREF;
     1141    10165    1   DCL KZR_THRTL_BLK UBIN SYMREF;
     1142    10166    1   DCL KZR_THRTL_UNBLK UBIN SYMREF;
     1143    10167    1   DCL SZ UBIN;
     1144    10168        %EJECT;
PL6.E3A0      #003=KZP$INIT File=KZP$PSRV.:E05TSI                                WED 07/30/97 03:01 Page:164
     1145    10169    2         DO CASE ( KZ@BSCFPT.ACT );
     1146    10170
     1147    10171    2          CASE ( %KZ#INTACT_REDBID );
     1148    10172
     1149    10173    2            CALL KZO$ABORT ( KZ@LINCTX );
     1150    10174
     1151    10175    2          CASE ( %KZ#INTACT_HSPMST );
     1152    10176
     1153    10177    2            KZ@LINCTX.BCB.RCV = 15;
     1154    10178    2            CALL SETPRM ( %KLPT_HASP# ) ALTRET ( BAD_SETPRM );
     1155    10179
     1156    10180    2          CASE ( %KZ#INTACT_BSCMST );
     1157    10181
     1158    10182    2            KZ@LINCTX.FLAGS.SETCLK = '1'B;
     1159    10183    2            CALL SETPRM ( %KLPT_3780# ) ALTRET ( BAD_SETPRM );
     1160    10184
     1161    10185    2          END;
     1162    10186
     1163    10187    1         CALL KZO$ORDERS ( %KZ#SEND_NOTHING, KZ@LINCTX );
     1164    10188
     1165    10189    1   BAD_SETPRM:
     1166    10190    1         ALTRETURN;
     1167    10191        %EJECT;
PL6.E3A0      #003=KZP$INIT File=KZP$PSRV.:E05TSI                                WED 07/30/97 03:01 Page:165
     1168    10192        /*    Initialize parameters needed to read signon string.          */
     1169    10193
     1170    10194    1   SETPRM: PROC (PROTYPE) ALTRET;
     1171    10195
     1172    10196    2   DCL PROTYPE UBIN;
     1173    10197
     1174    10198
     1175    10199    2   DCL I SBIN;
     1176    10200    2   DCL BUF$ PTR;
     1177    10201
     1178    10202    2   DCL 1 DFLT(0:1) STATIC,            /* defaults based on bid type */
     1179    10203    2         2 BLKRECS UBIN INIT(0,7),
     1180    10204    2         2 BLKBYTES UBIN INIT(400,256),
     1181    10205    2         2 RETRYS UBIN INIT(15,15),
     1182    10206    2         2 DELAYS UBIN INIT(25,3);
     1183    10207
     1184    10208
     1185    10209    2         IF PROTYPE = %KLPT_HASP# THEN
     1186    10210    2            I=0;
     1187    10211    2         ELSE
     1188    10212    2            I=1;
     1189    10213    2         KZ@LINCTX.PRO.PROTYP = PROTYPE;
     1190    10214    2         KZ@LINCTX.PRO.BLKRECS = DFLT.BLKRECS(I);
     1191    10215    2         KZ@LINCTX.PRO.BLKBYTES = DFLT.BLKBYTES(I);
     1192    10216    2         KZ@LINCTX.PRO.RETRYS = DFLT.RETRYS(I);
     1193    10217    2         KZ@LINCTX.PRO.DELAYS = DFLT.DELAYS(I);
     1194    10218              /*  Get an input buffer for the remote signon string.  */
     1195    10219    2         SZ = 64;
     1196    10220    2         CALL KVB$GETSYS ( SZ, BUF$ )
     1197    10221    3         WHENALTRETURN DO;
     1198    10222    3            MEMORY_LOG.V.TERMID = KZ@LINCTX.LINID;
     1199    10223    3            MEMORY_LOG.V.VALUES (0) = SZ;
     1200    10224    3            CALL KHA$ERRLOG ( MEMORY_LOG ) ALTRET ( IGNORE_MEMORY_LOG_ALTRET );
     1201    10225    3   IGNORE_MEMORY_LOG_ALTRET:
     1202    10226    3            KZ@LINCTX.PRO.PROTYP = 0;
     1203    10227    3            KZ$EVENT = '0'B;
     1204    10228    3            KZ$EVENT.EVENT = %KZ#CLM_EVENT_KILLED;
PL6.E3A0      #003=KZP$INIT File=KZP$PSRV.:E05TSI                                WED 07/30/97 03:01 Page:166
     1205    10229    3            CALL KZP$CNCDSC ( KZ$EVENT );
     1206    10230    3            ALTRETURN;
     1207    10231    3            END;
     1208    10232    2         KZ@LINCTX.INPBFR$ = BUF$;
     1209    10233    2         KZ@LINCTX.INPBFRSIZ = 64;
     1210    10234    2         I = PROTYPE*2;
     1211    10235    2         KZ@LINCTX.STBL$ = KZ_HDR$(I) -> KZ$HDR.STBL$;
     1212    10236    2         KZ@LINCTX.MAP$ = KZ_HDR$(I) -> KZ$HDR.EMAP$;
     1213    10237    2         KZ@LINCTX.LINMGR@ = KZ_HDR$(I) -> KZ$HDR.LINHND@;
     1214    10238    2         KZ@LINCTX.DEVMGR@ = KZ_HDR$(I) -> KZ$HDR.DVCHND@;
     1215    10239    2         KZ@LINCTX.TIMOUT.PRIMARY = 20;
     1216    10240    2         KZ@LINCTX.TIMOUT.SECONDARY = 20;
     1217    10241    3         IF KZ@LINCTX.CHN$->KH$CHN.BLOCK = 0 THEN DO;
     1218    10242    3            KZ@LINCTX.CHN$->KH$CHN.BLOCK = KZR_THRTL_BLK;
     1219    10243    3            KZ@LINCTX.CHN$->KH$CHN.UNBLOCK = KZR_THRTL_UNBLK;
     1220    10244    3            END;
     1221    10245
     1222    10246    2         RETURN;
     1223    10247
     1224    10248    2   END SETPRM;
     1225    10249
     1226    10250    1   END KZP$INIT;

PL6.E3A0      #003=KZP$INIT File=KZP$PSRV.:E05TSI                                WED 07/30/97 03:01 Page:167
--  Include file information  --

   CP_6_SUBS.:E05TOU  is referenced.
   G_LCP6_E.:E05TOU  is referenced.
   GT_LCP6_M.:E05TOU  is referenced.
   KI_CP6.:E05TOU  is referenced.
   GF_LCP6_M.:E05TOU  is referenced.
   GM_LCP6_M.:E05TOU  is referenced.
   GU_LCP6_M.:E05TOU  is referenced.
   GJ_LCP6_M.:E05TOU  is referenced.
   GH_LCP6_M.:E05TOU  is referenced.
   LCP_6.:E05TOU  cannot be made into a system file and is referenced.
   KL_SUPER_C.:E05TOU  is referenced.
   KZ_MLCP_C.:E05TOU  is referenced.
   KZ_INIT_C.:E05TOU  is referenced.
   KZ_CLM_E.:E05TOU  is referenced.
   KZ_BSCFPT.:E05TOU  is referenced.
   KZ$LINCTX.:E05TOU  is referenced.
   KH$CHN.:E05TOU  is referenced.
      No diagnostics issued in procedure KZP$INIT.

   Procedure KZP$INIT requires 262 words for executable code.
   Procedure KZP$INIT requires 36 words of local(AUTO) storage.

    No errors detected in file KZP$PSRV.:E05TSI    .

PL6.E3A0      #003=KZP$INIT File=KZP$PSRV.:E05TSI                                WED 07/30/97 03:01 Page:168

 Object Unit name= KZP$INIT                                   File name= KZP$PSRV.:E05TOU
 UTS= JUL 30 '97 03:01:09.76 WED                              Compiler= PL-6/E31         Sev=      00
 SharedLib= :SHARED_LCP6_SYSTEM                               Alt SharedLib=


    ****  Control sections  ****

 Sect   Type Bound  Init  Size HexSiz  Section name
    0  RoData even  UTS    224     E0  KZP$INIT
    1   Data  even  none     8      8  KZP$INIT
    2   Proc  even  none   262    106  KZP$INIT
    3  RoData even  none     2      2  KZP$INIT

    ****  Entry defs  ****

                              Check   Calling
                             calling  sequence
  Sect HexLoc Primary Altret sequence   type   Parms  Name
     2      0   yes    yes     yes      Std        2  KZP$INIT

  ****  Data defs  ****

 Sect HexLoc  Name                           Sect HexLoc  Name
    0      0  KZ_INIT_HDR                        0     11  KZ_INIT_MAP
    0     23  KZ_INIT_STBL
PL6.E3A0      #003=KZP$INIT File=KZP$PSRV.:E05TSI                                WED 07/30/97 03:01 Page:169

  ****  Entry refs  ****

         Check        Calling
        calling       sequence
Altret sequence SRef   type   Args  Name
         yes           Std       1 KZO$ABORT
         yes           Std       2 KZO$ORDERS
 yes     yes           Std       2 KVB$GETSYS
 yes     yes           Std       2 KHA$ERRLOG
 yes     yes           Std       1 KZP$CNCDSC
 yes     yes           Std       2 KZP$INIT
                       nStd      0 X6A_AUTO_2
                       nStd      0 X6A_AALT

  ****  Data refs  ****

  Flags:  r = read only, s = secondary
Flgs Name                             Flgs Name                             Flgs Name
     MEMORY_LOG                            KZ_HDR$                               KZR_THRTL_BLK
     KZR_THRTL_UNBLK                  r    G$ROS$
PL6.E3A0      #003=KZP$INIT File=KZP$PSRV.:E05TSI                                WED 07/30/97 03:01 Page:170


     1079        1        /*T***********************************************************/
     1080        2        /*T*                                                         */
     1081        3        /*T* Copyright (c) Bull HN Information Systems Inc., 1997    */
     1082        4        /*T*                                                         */
     1083        5        /*T***********************************************************/
     1084        6        %EJECT;
PL6.E3A0      #003=KZP$INIT File=KZP$PSRV.:E05TSI                                WED 07/30/97 03:01 Page:171
     1085        7        /*F*     NAME:     KZP$INIT
     1086        8                 PURPOSE:  This is the initial device manager for non-auto
     1087        9                           logged lines.  It is called when the initial ENQ
     1088       10                           comes on the line.  If it were an SOH-ENQ the
     1089       11                           line context is initialized with minimum required
     1090       12                           data to support logging on a HASP line.  If it were
     1091       13                           an ENQ, the line context is initialized for 3780
     1092       14                           protocol.
     1093       15        */
     1094       16        %EJECT;
PL6.E3A0      #003=KZP$INIT File=KZP$PSRV.:E05TSI                                WED 07/30/97 03:01 Page:172
     1095       17        KZP$INIT: PROC ( KZ@LINCTX, KZ@BSCFPT ) ALTRET;

     17   2 000000  D380 0000 0000  xent KZP$INIT        LNJ,B5   X6A_AUTO_2
          2 000003       0024 0002                       DC       36,2

     1096       18
     1097       19           %INCLUDE KH$CHN;
     1098      141           %INCLUDE KZ$LINCTX;
     1099      761           %INCLUDE KZ_BSCFPT;
     1100      791           %INCLUDE KZ_CLM_E;
     1101      963           %INCLUDE KZ_INIT_C;
     1102     1299           %INCLUDE KZ_MLCP_C;
     1103     1374           %INCLUDE KL_SUPER_C;
     1104     4276           %INCLUDE LCP_6;
     1105     8555           %INCLUDE CP_6_SUBS;
     1106     9095
     1107     9096           %KZ$LINCTX         ( NAME = KZ@LINCTX,
     1108     9097                                STCLASS = PARAM );
     1109     9528           %KZ_BSCFPT         ( NAME = KZ@BSCFPT,
     1110     9529                                STCLASS = PARAM );
     1111     9538
     1112     9539           %KZ$EVENT          ( STCLASS = AUTO );
     1113     9621
     1114     9622           %KZ_INIT_HDR       ( NAME = KZ_INIT_HDR,
     1115     9623                                STTHND = NIL,
     1116     9624                                STTBFR = NIL,
     1117     9625                                STCLASS = "CONSTANT SYMDEF" );
     1118     9649
     1119     9650           %KZ_INIT_MAP       ( NAME = KZ_INIT_MAP,
     1120     9651                                STCLASS = "CONSTANT SYMDEF" );
     1121     9699
     1122     9700           %KZ_INIT_STBL      ( NAME = KZ_INIT_STBL,
     1123     9701                                STCLASS = "CONSTANT SYMDEF" );
     1124     9908
     1125     9909           %KZ_INIT_HDR       ( NAME = KZ$HDR,
     1126     9910                                STCLASS = BASED );
     1127     9934
PL6.E3A0      #003=KZP$INIT File=KZP$PSRV.:E05TSI                                WED 07/30/97 03:01 Page:173
     1128     9935           %KH$CHN;
     1129    10059
     1130    10060           %FPT_WRSYSLOG       ( FPTN = MEMORY_LOG,
     1131    10061                                 STCLASS = SYMREF );
     1132    10156
     1133    10157
     1134    10158    1   DCL KHA$ERRLOG ENTRY (2) ALTRET;
     1135    10159    1   DCL KVB$GETSYS ENTRY (2) ALTRET;
     1136    10160    1   DCL KZO$ABORT ENTRY (1);
     1137    10161    1   DCL KZO$ORDERS ENTRY (2);
     1138    10162    1   DCL KZP$CNCDSC ENTRY (1) ALTRET;
     1139    10163
     1140    10164    1   DCL KZ_HDR$(0:13) PTR SYMREF;
     1141    10165    1   DCL KZR_THRTL_BLK UBIN SYMREF;
     1142    10166    1   DCL KZR_THRTL_UNBLK UBIN SYMREF;
     1143    10167    1   DCL SZ UBIN;
     1144    10168        %EJECT;
PL6.E3A0      #003=KZP$INIT File=KZP$PSRV.:E05TSI                                WED 07/30/97 03:01 Page:174
     1145    10169    2         DO CASE ( KZ@BSCFPT.ACT );

  10169   2 000005  ECC7 0006                            LDB,B6   @KZ@BSCFPT,AUTO
          2 000007  B806                                 LDR,R3   ,B6
          2 000008  3D04                                 CMV,R3   4
          2 000009  0281 002F                            BGE      s:10187,PREL
          2 00000B  A830 0000 0011  02                   LDR,R2   s:10169+12,R3
          2 00000E  83A0 0000 0015  02                   JMP      s:10173,R2
          2 000011       0024                            DC       s:10187,PREL
          2 000012       0000                            DC       s:10173,PREL
          2 000013       000A                            DC       s:10177,PREL
          2 000014       0018                            DC       s:10182,PREL

     1146    10170
     1147    10171    2          CASE ( %KZ#INTACT_REDBID );

     1148    10172
     1149    10173    2            CALL KZO$ABORT ( KZ@LINCTX );

  10173   2 000015  BBC7 0004                            LAB,B3   @KZ@LINCTX,AUTO
          2 000017  CBF0 0100                            LAB,B4   256,IMO
          2 000019  E380 0000 0000  xent                 LNJ,B6   KZO$ABORT
          2 00001C       0001                            DC       s:10173+8,PREL
          2 00001D  0F81 001B                            B        s:10187,PREL

     1150    10174
     1151    10175    2          CASE ( %KZ#INTACT_HSPMST );

     1152    10176
     1153    10177    2            KZ@LINCTX.BCB.RCV = 15;

  10177   2 00001F  6C0F                                 LDV,R6   15
          2 000020  DCC7 0004                            LDB,B5   @KZ@LINCTX,AUTO
          2 000022  E7C5 004D                            STH,R6   77,B5

     1154    10178    2            CALL SETPRM ( %KLPT_HASP# ) ALTRET ( BAD_SETPRM );

PL6.E3A0      #003=KZP$INIT File=KZP$PSRV.:E05TSI                                WED 07/30/97 03:01 Page:175
  10178   2 000024  CBF0 0003                            LAB,B4   3,IMO
          2 000026  CFC7 001A                            STB,B4   SZ+4,AUTO
          2 000028  E3C0 0023                            LNJ,B6   s:0,PREL
          2 00002A       001F                            DC       s:10190,PREL
          2 00002B  0F81 000D                            B        s:10187,PREL

     1155    10179
     1156    10180    2          CASE ( %KZ#INTACT_BSCMST );

     1157    10181
     1158    10182    2            KZ@LINCTX.FLAGS.SETCLK = '1'B;

  10182   2 00002D  DCC7 0004                            LDB,B5   @KZ@LINCTX,AUTO
          2 00002F  8945 0034                            LBT,'0020'X       52,B5
          2 000031       0020

     1159    10183    2            CALL SETPRM ( %KLPT_3780# ) ALTRET ( BAD_SETPRM );

  10183   2 000032  CBF0 0002                            LAB,B4   2,IMO
          2 000034  CFC7 001A                            STB,B4   SZ+4,AUTO
          2 000036  E3C0 0015                            LNJ,B6   s:0,PREL
          2 000038       0011                            DC       s:10190,PREL

     1160    10184
     1161    10185    2          END;

     1162    10186
     1163    10187    1         CALL KZO$ORDERS ( %KZ#SEND_NOTHING, KZ@LINCTX );

  10187   2 000039  EBF0 000C                            LAB,B6   12,IMO
          2 00003B  DCC7 0004                            LDB,B5   @KZ@LINCTX,AUTO
          2 00003D  DFC7 0022                            STB,B5   BUF$+5,AUTO
          2 00003F  EFC7 0020                            STB,B6   BUF$+3,AUTO
          2 000041  BBC7 0020                            LAB,B3   BUF$+3,AUTO
          2 000043  CBF0 0200                            LAB,B4   512,IMO
          2 000045  E380 0000 0000  xent                 LNJ,B6   KZO$ORDERS
          2 000048       0001                            DC       s:10190,PREL
PL6.E3A0      #003=KZP$INIT File=KZP$PSRV.:E05TSI                                WED 07/30/97 03:01 Page:176

     1164    10188
     1165    10189    1   BAD_SETPRM:
     1166    10190    1         ALTRETURN;

  10190   2 000049  C380 0000 0000  xent BAD_SETPRM      LNJ,B4   X6A_AALT

     1167    10191        %EJECT;
PL6.E3A0      #003=KZP$INIT File=KZP$PSRV.:E05TSI                                WED 07/30/97 03:01 Page:177
     1168    10192        /*    Initialize parameters needed to read signon string.          */
     1169    10193
     1170    10194    1   SETPRM: PROC (PROTYPE) ALTRET;

  10194   2 00004C  EFC7 0018            SETPRM          STB,B6   SZ+2,AUTO

     1171    10195
     1172    10196    2   DCL PROTYPE UBIN;
     1173    10197
     1174    10198
     1175    10199    2   DCL I SBIN;
     1176    10200    2   DCL BUF$ PTR;
     1177    10201
     1178    10202    2   DCL 1 DFLT(0:1) STATIC,            /* defaults based on bid type */
     1179    10203    2         2 BLKRECS UBIN INIT(0,7),
     1180    10204    2         2 BLKBYTES UBIN INIT(400,256),
     1181    10205    2         2 RETRYS UBIN INIT(15,15),
     1182    10206    2         2 DELAYS UBIN INIT(25,3);
     1183    10207
     1184    10208
     1185    10209    2         IF PROTYPE = %KLPT_HASP# THEN

  10209   2 00004E  DCC7 001A                            LDB,B5   @PROTYPE,AUTO
          2 000050  E805                                 LDR,R6   ,B5
          2 000051  6D03                                 CMV,R6   3
          2 000052  0981 0005                            BNE      s:10212,PREL

     1186    10210    2            I=0;

  10210   2 000054  8747 001C                            CL       I,AUTO
          2 000056  0F81 0004                            B        s:10213,PREL

     1187    10211    2         ELSE
     1188    10212    2            I=1;

  10212   2 000058  5C01                                 LDV,R5   1
          2 000059  DF47 001C                            STR,R5   I,AUTO
PL6.E3A0      #003=KZP$INIT File=KZP$PSRV.:E05TSI                                WED 07/30/97 03:01 Page:178

     1189    10213    2         KZ@LINCTX.PRO.PROTYP = PROTYPE;

  10213   2 00005B  CCC7 0004                            LDB,B4   @KZ@LINCTX,AUTO
          2 00005D  EF44 003A                            STR,R6   58,B4

     1190    10214    2         KZ@LINCTX.PRO.BLKRECS = DFLT.BLKRECS(I);

  10214   2 00005F  B847 001C                            LDR,R3   I,AUTO
          2 000061  3002                                 SOL,R3   2
          2 000062  D830 0000 0000  01                   LDR,R5   DFLT,R3
          2 000065  DF44 003B                            STR,R5   59,B4

     1191    10215    2         KZ@LINCTX.PRO.BLKBYTES = DFLT.BLKBYTES(I);

  10215   2 000067  C830 0000 0001  01                   LDR,R4   DFLT+1,R3
          2 00006A  CF44 003C                            STR,R4   60,B4

     1192    10216    2         KZ@LINCTX.PRO.RETRYS = DFLT.RETRYS(I);

  10216   2 00006C  A830 0000 0002  01                   LDR,R2   DFLT+2,R3
          2 00006F  AF44 003D                            STR,R2   61,B4

     1193    10217    2         KZ@LINCTX.PRO.DELAYS = DFLT.DELAYS(I);

  10217   2 000071  9830 0000 0003  01                   LDR,R1   DFLT+3,R3
          2 000074  9F44 003E                            STR,R1   62,B4

     1194    10218              /*  Get an input buffer for the remote signon string.  */
     1195    10219    2         SZ = 64;

  10219   2 000076  6C40                                 LDV,R6   64
          2 000077  EF47 0016                            STR,R6   SZ,AUTO

     1196    10220    2         CALL KVB$GETSYS ( SZ, BUF$ )

  10220   2 000079  BBC7 001D                            LAB,B3   BUF$,AUTO
PL6.E3A0      #003=KZP$INIT File=KZP$PSRV.:E05TSI                                WED 07/30/97 03:01 Page:179
          2 00007B  BFC7 0022                            STB,B3   BUF$+5,AUTO
          2 00007D  ABC7 0016                            LAB,B2   SZ,AUTO
          2 00007F  AFC7 0020                            STB,B2   BUF$+3,AUTO
          2 000081  BBC7 0020                            LAB,B3   BUF$+3,AUTO
          2 000083  CBF0 0200                            LAB,B4   512,IMO
          2 000085  E380 0000 0000  xent                 LNJ,B6   KVB$GETSYS
          2 000088       0003                            DC       s:10222,PREL
          2 000089  0F81 0036                            B        s:10232,PREL

     1197    10221    3         WHENALTRETURN DO;

     1198    10222    3            MEMORY_LOG.V.TERMID = KZ@LINCTX.LINID;

  10222   2 00008B  ACC7 0004                            LDB,B2   @KZ@LINCTX,AUTO
          2 00008D  2C08                                 LDV,R2   8
          2 00008E  6C10                                 LDV,R6   16
          2 00008F  BB80 0000 0000  xsym                 LAB,B3   MEMORY_LOG
          2 000092  3C10                                 LDV,R3   16
          2 000093  0008                                 MMM

     1199    10223    3            MEMORY_LOG.V.VALUES (0) = SZ;

  10223   2 000094  E847 0016                            LDR,R6   SZ,AUTO
          2 000096  EF00 0000 0010  xsym                 STR,R6   MEMORY_LOG+16

     1200    10224    3            CALL KHA$ERRLOG ( MEMORY_LOG ) ALTRET ( IGNORE_MEMORY_LOG_ALTRET );

  10224   2 000099  BB80 0000 0000  03                   LAB,B3   0
          2 00009C  CBF0 0100                            LAB,B4   256,IMO
          2 00009E  E380 0000 0000  xent                 LNJ,B6   KHA$ERRLOG
          2 0000A1       0001                            DC       s:10226,PREL

     1201    10225    3   IGNORE_MEMORY_LOG_ALTRET:
     1202    10226    3            KZ@LINCTX.PRO.PROTYP = 0;

  10226   2 0000A2  ECC7 0004            IGNORE_MEMORY_L*LDB,B6   @KZ@LINCTX,AUTO
          2 0000A4  8746 003A                            CL       58,B6
PL6.E3A0      #003=KZP$INIT File=KZP$PSRV.:E05TSI                                WED 07/30/97 03:01 Page:180

     1203    10227    3            KZ$EVENT = '0'B;

  10227   2 0000A6  5C1C                                 LDV,R5   28
          2 0000A7  0021                                 ALR      ;
          2 0000A8       4178 0000                                ALPHANUM('0000'X,IMO,,1),;
          2 0000AA       4007 0008                                ALPHANUM(KZ$EVENT,AUTO,,R5,FILL)

     1204    10228    3            KZ$EVENT.EVENT = %KZ#CLM_EVENT_KILLED;

  10228   2 0000AC  6C07                                 LDV,R6   7
          2 0000AD  437F                                 CSYNC    s:10228,SPREL
          2 0000AE  EF47 0008                            STR,R6   KZ$EVENT,AUTO

     1205    10229    3            CALL KZP$CNCDSC ( KZ$EVENT );

  10229   2 0000B0  DBC7 0008                            LAB,B5   KZ$EVENT,AUTO
          2 0000B2  DFC7 0020                            STB,B5   BUF$+3,AUTO
          2 0000B4  BBC7 0020                            LAB,B3   BUF$+3,AUTO
          2 0000B6  CBF0 0100                            LAB,B4   256,IMO
          2 0000B8  E380 0000 0000  xent                 LNJ,B6   KZP$CNCDSC
          2 0000BB       0001                            DC       s:10230,PREL

     1206    10230    3            ALTRETURN;

  10230   2 0000BC  ECC7 0018                            LDB,B6   SZ+2,AUTO
          2 0000BE  B806                                 LDR,R3   ,B6
          2 0000BF  C3B6                                 LNJ,B4   ,B6,R3

     1207    10231    3            END;
     1208    10232    2         KZ@LINCTX.INPBFR$ = BUF$;

  10232   2 0000C0  ECC7 001D                            LDB,B6   BUF$,AUTO
          2 0000C2  DCC7 0004                            LDB,B5   @KZ@LINCTX,AUTO
          2 0000C4  EFC5 0056                            STB,B6   86,B5

     1209    10233    2         KZ@LINCTX.INPBFRSIZ = 64;
PL6.E3A0      #003=KZP$INIT File=KZP$PSRV.:E05TSI                                WED 07/30/97 03:01 Page:181

  10233   2 0000C6  6C40                                 LDV,R6   64
          2 0000C7  EF45 0058                            STR,R6   88,B5

     1210    10234    2         I = PROTYPE*2;

  10234   2 0000C9  CCC7 001A                            LDB,B4   @PROTYPE,AUTO
          2 0000CB  D804                                 LDR,R5   ,B4
          2 0000CC  5001                                 SOL,R5   1
          2 0000CD  DF47 001C                            STR,R5   I,AUTO

     1211    10235    2         KZ@LINCTX.STBL$ = KZ_HDR$(I) -> KZ$HDR.STBL$;

  10235   2 0000CF  B855                                 LDR,R3   R5
          2 0000D0  BCB0 0000 0000  xsym                 LDB,B3   KZ_HDR$,R3
          2 0000D3  ACC3 000D                            LDB,B2   13,B3
          2 0000D5  AFC5 000F                            STB,B2   15,B5

     1212    10236    2         KZ@LINCTX.MAP$ = KZ_HDR$(I) -> KZ$HDR.EMAP$;

  10236   2 0000D7  BCB0 0000 0000  xsym                 LDB,B3   KZ_HDR$,R3
          2 0000DA  9CC3 000B                            LDB,B1   11,B3
          2 0000DC  9FC5 0011                            STB,B1   17,B5

     1213    10237    2         KZ@LINCTX.LINMGR@ = KZ_HDR$(I) -> KZ$HDR.LINHND@;

  10237   2 0000DE  BCB0 0000 0000  xsym                 LDB,B3   KZ_HDR$,R3
          2 0000E1  EC83                                 LDB,B6   ,B3
          2 0000E2  EFC5 0070                            STB,B6   112,B5

     1214    10238    2         KZ@LINCTX.DEVMGR@ = KZ_HDR$(I) -> KZ$HDR.DVCHND@;

  10238   2 0000E4  BCB0 0000 0000  xsym                 LDB,B3   KZ_HDR$,R3
          2 0000E7  ECC3 0002                            LDB,B6   2,B3
          2 0000E9  EFC5 006E                            STB,B6   110,B5

     1215    10239    2         KZ@LINCTX.TIMOUT.PRIMARY = 20;
PL6.E3A0      #003=KZP$INIT File=KZP$PSRV.:E05TSI                                WED 07/30/97 03:01 Page:182

  10239   2 0000EB  4C14                                 LDV,R4   20
          2 0000EC  CF45 0086                            STR,R4   134,B5

     1216    10240    2         KZ@LINCTX.TIMOUT.SECONDARY = 20;

  10240   2 0000EE  CF45 0087                            STR,R4   135,B5

     1217    10241    3         IF KZ@LINCTX.CHN$->KH$CHN.BLOCK = 0 THEN DO;

  10241   2 0000F0  BCC5 0002                            LDB,B3   2,B5
          2 0000F2  A843 0010                            LDR,R2   16,B3
          2 0000F4  2981 000D                            BNEZ,R2  s:10246,PREL

     1218    10242    3            KZ@LINCTX.CHN$->KH$CHN.BLOCK = KZR_THRTL_BLK;

  10242   2 0000F6  A800 0000 0000  xsym                 LDR,R2   KZR_THRTL_BLK
          2 0000F9  AF43 0010                            STR,R2   16,B3

     1219    10243    3            KZ@LINCTX.CHN$->KH$CHN.UNBLOCK = KZR_THRTL_UNBLK;

  10243   2 0000FB  ECC5 0002                            LDB,B6   2,B5
          2 0000FD  9800 0000 0000  xsym                 LDR,R1   KZR_THRTL_UNBLK
          2 000100  9F46 0011                            STR,R1   17,B6

     1220    10244    3            END;

     1221    10245
     1222    10246    2         RETURN;

  10246   2 000102  ECC7 0018                            LDB,B6   SZ+2,AUTO
          2 000104  C3C6 0001                            LNJ,B4   1,B6
     1223    10247
     1224    10248    2   END SETPRM;
     1225    10249
     1226    10250    1   END KZP$INIT;

PL6.E3A0      #003=KZP$INIT File=KZP$PSRV.:E05TSI                                WED 07/30/97 03:01 Page:183
--  Include file information  --

   CP_6_SUBS.:E05TOU  is referenced.
   G_LCP6_E.:E05TOU  is referenced.
   GT_LCP6_M.:E05TOU  is referenced.
   KI_CP6.:E05TOU  is referenced.
   GF_LCP6_M.:E05TOU  is referenced.
   GM_LCP6_M.:E05TOU  is referenced.
   GU_LCP6_M.:E05TOU  is referenced.
   GJ_LCP6_M.:E05TOU  is referenced.
   GH_LCP6_M.:E05TOU  is referenced.
   LCP_6.:E05TOU  cannot be made into a system file and is referenced.
   KL_SUPER_C.:E05TOU  is referenced.
   KZ_MLCP_C.:E05TOU  is referenced.
   KZ_INIT_C.:E05TOU  is referenced.
   KZ_CLM_E.:E05TOU  is referenced.
   KZ_BSCFPT.:E05TOU  is referenced.
   KZ$LINCTX.:E05TOU  is referenced.
   KH$CHN.:E05TOU  is referenced.
      No diagnostics issued in procedure KZP$INIT.
PL6.E3A0      #003=KZP$INIT File=KZP$PSRV.:E05TSI                                WED 07/30/97 03:01 Page:184

 **** Variables and constants ****

  ****  Section 000 RoData KZP$INIT

  ****  Scalars and arrays  ****
HexLoc.c.b A Datatyp(siz) R M Lvl/name                 HexLoc.c.b A Datatyp(siz) R M Lvl/name

    11-0-0/w STRC(280)   r     1 KZ_INIT_MAP               23-0-0/w STRC(3024)  r     1 KZ_INIT_STBL

  ****  Section 001  Data  KZP$INIT

  ****  Scalars and arrays  ****
HexLoc.c.b A Datatyp(siz) R M Lvl/name                 HexLoc.c.b A Datatyp(siz) R M Lvl/name

     0-0-0/w STRC(64)    r     1 DFLT(0:1)

  ****  Auto variables  ****

  ****  Scalars and arrays  ****
HexLoc.c.b A Datatyp(siz) R M Lvl/name                 HexLoc.c.b A Datatyp(siz) R M Lvl/name

     6-0-0/w PTR         r     1 @KZ@BSCFPT                 4-0-0/w PTR         r     1 @KZ@LINCTX
    1A-0-0/w PTR         r     1 @PROTYPE                  1D-0-0/w PTR         r     1 BUF$
    1C-0-0/w SBIN(16)    r     1 I                          8-0-0/w STRC(224)   r     1 KZ$EVENT
    *0-0-0/w STRC(80)    r     1 KZ@BSCFPT                 *0-0-0/w STRC(2192)  r     1 KZ@LINCTX
    *0-0-0/w UBIN(16)    r     1 PROTYPE                   16-0-0/w UBIN(16)    r     1 SZ

  ****  SYMREF variables  ****

  ****  Scalars and arrays  ****
HexLoc.c.b A Datatyp(siz) R M Lvl/name                 HexLoc.c.b A Datatyp(siz) R M Lvl/name

     0-0-0/w UBIN(16)    r     1 KZR_THRTL_BLK              0-0-0/w UBIN(16)    r     1 KZR_THRTL_UNBLK
     0-0-0/w PTR         r     1 KZ_HDR$(0:13)              0-0-0/w STRC(336)   r     1 MEMORY_LOG

  ****  BASED and DCB variables  ****

PL6.E3A0      #003=KZP$INIT File=KZP$PSRV.:E05TSI                                WED 07/30/97 03:01 Page:185
  ****  Scalars and arrays  ****
HexLoc.c.b A Datatyp(siz) R M Lvl/name                 HexLoc.c.b A Datatyp(siz) R M Lvl/name

     0-0-0/w STRC(512)   r     1 KH$CHN                     0-0-0/w STRC(272)   r     1 KZ$HDR


   Procedure KZP$INIT requires 262 words for executable code.
   Procedure KZP$INIT requires 36 words of local(AUTO) storage.

    No errors detected in file KZP$PSRV.:E05TSI    .
PL6.E3A0      #003=KZP$INIT File=KZP$PSRV.:E05TSI                                WED 07/30/97 03:01 Page:186
          *** CROSS REFERENCE LISTING ***
**     DENOTES     IDENTIFIER DEFINITION
<<                 IDENTIFIER'S VALUE SET
>>                 IDENTIFIER'S VALUE USED
<>                 IDENTIFIER SET AND/OR USED
--                 IDENTIFIER REFERENCED
PL6.E3A0      #003=KZP$INIT File=KZP$PSRV.:E05TSI                                WED 07/30/97 03:01 Page:187
          MINI XREF LISTING

BAD_SETPRM
     10190**LABEL   10178--CALLALT 10183--CALLALT
BUF$ IN PROCEDURE SETPRM
     10200**DCL     10220<>CALL    10232>>ASSIGN
DFLT.BLKBYTES IN PROCEDURE SETPRM
     10204**DCL     10215>>ASSIGN
DFLT.BLKRECS IN PROCEDURE SETPRM
     10203**DCL     10214>>ASSIGN
DFLT.DELAYS IN PROCEDURE SETPRM
     10206**DCL     10217>>ASSIGN
DFLT.RETRYS IN PROCEDURE SETPRM
     10205**DCL     10216>>ASSIGN
I IN PROCEDURE SETPRM
     10199**DCL     10210<<ASSIGN  10212<<ASSIGN  10214>>ASSIGN  10215>>ASSIGN  10216>>ASSIGN  10217>>ASSIGN
     10234<<ASSIGN  10235>>ASSIGN  10236>>ASSIGN  10237>>ASSIGN  10238>>ASSIGN
IGNORE_MEMORY_LOG_ALTRET IN PROCEDURE SETPRM
     10226**LABEL   10224--CALLALT
KH$CHN.BLOCK
     10026**DCL     10241>>IF      10242<<ASSIGN
KH$CHN.TERMID.TERM
     10046**DCL     10055--REDEF
KH$CHN.UNBLOCK
     10026**DCL     10243<<ASSIGN
KHA$ERRLOG
     10158**DCL-ENT 10224--CALL
KVB$GETSYS
     10159**DCL-ENT 10220--CALL
KZ$EVENT
      9553**DCL     10227<<ASSIGN  10229<>CALL
KZ$EVENT.EVENT
      9554**DCL     10228<<ASSIGN
KZ$HDR.DVCHND@
PL6.E3A0      #003=KZP$INIT File=KZP$PSRV.:E05TSI                                WED 07/30/97 03:01 Page:188
      9924**DCL     10238>>ASSIGN
KZ$HDR.EMAP$
      9929**DCL     10236>>ASSIGN
KZ$HDR.LINHND@
      9923**DCL     10237>>ASSIGN
KZ$HDR.STBL$
      9930**DCL     10235>>ASSIGN
KZ@BSCFPT
      9530**DCL        17--PROC
KZ@BSCFPT.ACT
      9531**DCL     10169>>DOCASE
KZ@LINCTX
      9108**DCL        17--PROC    10173<>CALL    10187<>CALL
KZ@LINCTX.BCB.RCV
      9400**DCL     10177<<ASSIGN
KZ@LINCTX.CHN$
      9111**DCL     10241>>IF      10242>>ASSIGN  10243>>ASSIGN
KZ@LINCTX.DEVMGR@
      9471**DCL     10238<<ASSIGN
KZ@LINCTX.FLAGS.SETCLK
      9250**DCL     10182<<ASSIGN
KZ@LINCTX.INPBFR$
      9414**DCL     10232<<ASSIGN
KZ@LINCTX.INPBFRSIZ
      9416**DCL     10233<<ASSIGN
KZ@LINCTX.LINID
      9129**DCL     10222>>ASSIGN
KZ@LINCTX.LINID.TERM
      9131**DCL      9140--REDEF
KZ@LINCTX.LINMGR@
      9473**DCL     10237<<ASSIGN
KZ@LINCTX.MAP$
      9152**DCL     10236<<ASSIGN
KZ@LINCTX.OTPCNT
      9396**DCL      9399--REDEF
KZ@LINCTX.POLSIZ
PL6.E3A0      #003=KZP$INIT File=KZP$PSRV.:E05TSI                                WED 07/30/97 03:01 Page:189
      9442**DCL      9444--REDEF
KZ@LINCTX.PRO.BLKBYTES
      9299**DCL     10215<<ASSIGN
KZ@LINCTX.PRO.BLKRECS
      9295**DCL     10214<<ASSIGN
KZ@LINCTX.PRO.DELAYS
      9307**DCL     10217<<ASSIGN
KZ@LINCTX.PRO.PROTYP
      9292**DCL     10213<<ASSIGN  10226<<ASSIGN
KZ@LINCTX.PRO.RETRYS
      9303**DCL     10216<<ASSIGN
KZ@LINCTX.STBL$
      9150**DCL     10235<<ASSIGN
KZ@LINCTX.TIMOUT.PRIMARY
      9508**DCL     10239<<ASSIGN
KZ@LINCTX.TIMOUT.SECONDARY
      9512**DCL     10240<<ASSIGN
KZO$ABORT
     10160**DCL-ENT 10173--CALL
KZO$ORDERS
     10161**DCL-ENT 10187--CALL
KZP$CNCDSC
     10162**DCL-ENT 10229--CALL
KZP$INIT
        17**PROC     9638--DCLINIT
KZR_THRTL_BLK
     10165**DCL     10242>>ASSIGN
KZR_THRTL_UNBLK
     10166**DCL     10243>>ASSIGN
KZ_HDR$
     10164**DCL     10235>>ASSIGN  10236>>ASSIGN  10237>>ASSIGN  10238>>ASSIGN
KZ_INIT_MAP
      9663**DCL      9644--DCLINIT
KZ_INIT_STBL
      9713**DCL      9645--DCLINIT
KZ_INIT_STBL.PL6ISDUMB
PL6.E3A0      #003=KZP$INIT File=KZP$PSRV.:E05TSI                                WED 07/30/97 03:01 Page:190
      9717**DCL      9904--REDEF
MEMORY_LOG
     10074**DCL     10224<>CALL
MEMORY_LOG.V.TERMID
     10141**DCL     10222<<ASSIGN
MEMORY_LOG.V.TERMID.TERM
     10143**DCL     10152--REDEF
MEMORY_LOG.V.VALUES
     10154**DCL     10223<<ASSIGN
PROTYPE IN PROCEDURE SETPRM
     10196**DCL     10194--PROC    10209>>IF      10213>>ASSIGN  10234>>ASSIGN
SETPRM
     10194**PROC    10178--CALL    10183--CALL
SZ
     10167**DCL     10219<<ASSIGN  10220<>CALL    10223>>ASSIGN
