PL6.E3A0      #003=KZR$RBTINIT File=KZR$RBT.:E05TSI                              WED 07/30/97 03:03 Page:164
     1043        1        /*T***********************************************************/
     1044        2        /*T*                                                         */
     1045        3        /*T* Copyright (c) Bull HN Information Systems Inc., 1997    */
     1046        4        /*T*                                                         */
     1047        5        /*T***********************************************************/
     1048        6        /*F*  NAME: KZR$RBTINIT
     1049        7              PURPOSE:
     1050        8                 To provide initialization for RBT library procedures.
     1051        9              CALL:
     1052       10                 CALL KZR$RBTINIT (header_array);
     1053       11              PARAMETERS:
     1054       12                 Header-array is an array of pointers to the various state
     1055       13                 table headers, arranged by protocol types.
     1056       14              DESCRIPTION:
     1057       15                 This procedure is called by the Common Line Manager during
     1058       16                 initialization.  It initializes each entry in the header
     1059       17                 pointer table with a pointer to the state table header of
     1060       18                 the protocol types that it is designed to handle.
     1061       19                 This guy sets the entries for HASP, NJE, 2780 and 3780 master
     1062       20                 and slave protocols.
     1063       21        DCL I(0:3) UBIN CONSTANT INIT(
     1064       22              %KLPT_2780#,
     1065       23              %KLPT_3780#,
     1066       24              %KLPT_HASP#,
     1067       25              %KLPT_NJE#);
     1068       26        DCL P(0:3) PTR CONSTANT INIT(
     1069       27              ADDR(KZ_BSC_HDR),
     1070       28              ADDR(KZ_BSC_HDR),
     1071       29              ADDR(KZ_HASP_HDR),
     1072       30              ADDR(KZ_HASP_HDR));
     1073       31        DCL PS(0:3) PTR CONSTANT INIT(
     1074       32              ADDR(KZ_BSCS_HDR),
     1075       33              ADDR(KZ_BSCS_HDR),
     1076       34              ADDR(KZ_HASPS_HDR),
     1077       35              ADDR(KZ_HASPS_HDR));
     1078       36                                                                           */
     1079       37
PL6.E3A0      #003=KZR$RBTINIT File=KZR$RBT.:E05TSI                              WED 07/30/97 03:03 Page:165
     1080       38        KZR$RBTINIT: PROC (HDR_INIT);
     1081       39
     1082       40        %INCLUDE KZ$LINCTX;
     1083      660        %INCLUDE KL_SUPER_C;
     1084     3562
     1085     3563    1   DCL KZ_HDR$(0:13) PTR BASED;
     1086     3564
     1087     3565
     1088     3566        %KZ$INIT (FPTN=HDR_INIT,STCLASS="");
     1089     3588
     1090     3589
     1091     3590    1   DCL KZ_BSCS_HDR UBIN SYMREF;
     1092     3591    1   DCL KZ_BSC_HDR UBIN SYMREF;
     1093     3592    1   DCL KZ_HASP_HDR UBIN SYMREF;
     1094     3593    1   DCL KZ_HASPS_HDR UBIN SYMREF;
     1095     3594
     1096     3595    1   DCL KZR_ORDERS@ EPTR SYMREF;
     1097     3596    1   DCL KZR_ABORT@ EPTR SYMREF;
     1098     3597    1   DCL KZR_CNCDSC@ EPTR SYMREF;
     1099     3598    1   DCL KZR_DRIVER@ EPTR SYMREF;
     1100     3599
     1101     3600
     1102     3601    1   DCL I(0:2) UBIN CONSTANT INIT(
     1103     3602    1         %KLPT_2780#,
     1104     3603    1         %KLPT_3780#,
     1105     3604    1         %KLPT_HASP#);
     1106     3605    1   DCL P(0:2) PTR CONSTANT INIT(
     1107     3606    1         ADDR(KZ_BSC_HDR),
     1108     3607    1         ADDR(KZ_BSC_HDR),
     1109     3608    1         ADDR(KZ_HASP_HDR));
     1110     3609    1   DCL PS(0:2) PTR CONSTANT INIT(
     1111     3610    1         ADDR(KZ_BSCS_HDR),
     1112     3611    1         ADDR(KZ_BSCS_HDR),
     1113     3612    1         ADDR(KZ_HASPS_HDR));
     1114     3613    1   DCL J UBIN;
     1115     3614    1   DCL P$ PTR;
     1116     3615
PL6.E3A0      #003=KZR$RBTINIT File=KZR$RBT.:E05TSI                              WED 07/30/97 03:03 Page:166
     1117     3616    1         P$=HDR_INIT.HDR$;
     1118     3617    2         DO J = 0 TO (SIZEW(I)/SIZEW(I(0))-1);
     1119     3618    2            P$->KZ_HDR$(I(J)*2)=P(J);
     1120     3619    2            P$->KZ_HDR$(I(J)*2+1)=PS(J);
     1121     3620    2            END;
     1122     3621    1         KZR_ORDERS@=HDR_INIT.ORDERS;
     1123     3622    1         KZR_CNCDSC@=HDR_INIT.CNCDSC;
     1124     3623    1         KZR_DRIVER@=HDR_INIT.DRIVER;
     1125     3624    1         KZR_ABORT@=HDR_INIT.ABORT;
     1126     3625    1         RETURN;
     1127     3626    1   END;

PL6.E3A0      #003=KZR$RBTINIT File=KZR$RBT.:E05TSI                              WED 07/30/97 03:03 Page:167
--  Include file information  --

   KL_SUPER_C.:E05TOU  is referenced.
   KZ$LINCTX.:E05TOU  is referenced.
      No diagnostics issued in procedure KZR$RBTINIT.

   Procedure KZR$RBTINIT requires 66 words for executable code.
   Procedure KZR$RBTINIT requires 10 words of local(AUTO) storage.

    No errors detected in file KZR$RBT.:E05TSI    .

PL6.E3A0      #003=KZR$RBTINIT File=KZR$RBT.:E05TSI                              WED 07/30/97 03:03 Page:168

 Object Unit name= KZR$RBTINIT                                File name= KZR$RBT.:E05TOU
 UTS= JUL 30 '97 03:03:15.68 WED                              Compiler= PL-6/E31         Sev=      00
 SharedLib= :SHARED_LCP6_SYSTEM                               Alt SharedLib=


    ****  Control sections  ****

 Sect   Type Bound  Init  Size HexSiz  Section name
    0  RoData even  UTS     15      F  KZR$RBTINIT
    1   Proc  even  none    66     42  KZR$RBTINIT

    ****  Entry defs  ****

                              Check   Calling
                             calling  sequence
  Sect HexLoc Primary Altret sequence   type   Parms  Name
     1      0   yes            yes      Std        1  KZR$RBTINIT

  ****  Entry refs  ****

         Check        Calling
        calling       sequence
Altret sequence SRef   type   Args  Name
                       nStd      0 X6A_AUTO_1
                       nStd      0 X6A_ARET

  ****  Data refs  ****

  Flags:  r = read only, s = secondary
Flgs Name                             Flgs Name                             Flgs Name
     KZ_BSCS_HDR                           KZ_BSC_HDR                            KZ_HASP_HDR
     KZ_HASPS_HDR                          KZR_ORDERS@                           KZR_ABORT@
     KZR_CNCDSC@                           KZR_DRIVER@                      r    G$ROS$
PL6.E3A0      #003=KZR$RBTINIT File=KZR$RBT.:E05TSI                              WED 07/30/97 03:03 Page:169


     1043        1        /*T***********************************************************/
     1044        2        /*T*                                                         */
     1045        3        /*T* Copyright (c) Bull HN Information Systems Inc., 1997    */
     1046        4        /*T*                                                         */
     1047        5        /*T***********************************************************/
     1048        6        /*F*  NAME: KZR$RBTINIT
     1049        7              PURPOSE:
     1050        8                 To provide initialization for RBT library procedures.
     1051        9              CALL:
     1052       10                 CALL KZR$RBTINIT (header_array);
     1053       11              PARAMETERS:
     1054       12                 Header-array is an array of pointers to the various state
     1055       13                 table headers, arranged by protocol types.
     1056       14              DESCRIPTION:
     1057       15                 This procedure is called by the Common Line Manager during
     1058       16                 initialization.  It initializes each entry in the header
     1059       17                 pointer table with a pointer to the state table header of
     1060       18                 the protocol types that it is designed to handle.
     1061       19                 This guy sets the entries for HASP, NJE, 2780 and 3780 master
     1062       20                 and slave protocols.
     1063       21        DCL I(0:3) UBIN CONSTANT INIT(
     1064       22              %KLPT_2780#,
     1065       23              %KLPT_3780#,
     1066       24              %KLPT_HASP#,
     1067       25              %KLPT_NJE#);
     1068       26        DCL P(0:3) PTR CONSTANT INIT(
     1069       27              ADDR(KZ_BSC_HDR),
     1070       28              ADDR(KZ_BSC_HDR),
     1071       29              ADDR(KZ_HASP_HDR),
     1072       30              ADDR(KZ_HASP_HDR));
     1073       31        DCL PS(0:3) PTR CONSTANT INIT(
     1074       32              ADDR(KZ_BSCS_HDR),
     1075       33              ADDR(KZ_BSCS_HDR),
     1076       34              ADDR(KZ_HASPS_HDR),
     1077       35              ADDR(KZ_HASPS_HDR));
     1078       36                                                                           */
PL6.E3A0      #003=KZR$RBTINIT File=KZR$RBT.:E05TSI                              WED 07/30/97 03:03 Page:170
     1079       37
     1080       38        KZR$RBTINIT: PROC (HDR_INIT);

     38   1 000000  D380 0000 0000  xent KZR$RBTINIT     LNJ,B5   X6A_AUTO_1
          1 000003       000A 0001                       DC       10,1

     1081       39
     1082       40        %INCLUDE KZ$LINCTX;
     1083      660        %INCLUDE KL_SUPER_C;
     1084     3562
     1085     3563    1   DCL KZ_HDR$(0:13) PTR BASED;
     1086     3564
     1087     3565
     1088     3566        %KZ$INIT (FPTN=HDR_INIT,STCLASS="");
     1089     3588
     1090     3589
     1091     3590    1   DCL KZ_BSCS_HDR UBIN SYMREF;
     1092     3591    1   DCL KZ_BSC_HDR UBIN SYMREF;
     1093     3592    1   DCL KZ_HASP_HDR UBIN SYMREF;
     1094     3593    1   DCL KZ_HASPS_HDR UBIN SYMREF;
     1095     3594
     1096     3595    1   DCL KZR_ORDERS@ EPTR SYMREF;
     1097     3596    1   DCL KZR_ABORT@ EPTR SYMREF;
     1098     3597    1   DCL KZR_CNCDSC@ EPTR SYMREF;
     1099     3598    1   DCL KZR_DRIVER@ EPTR SYMREF;
     1100     3599
     1101     3600
     1102     3601    1   DCL I(0:2) UBIN CONSTANT INIT(
     1103     3602    1         %KLPT_2780#,
     1104     3603    1         %KLPT_3780#,
     1105     3604    1         %KLPT_HASP#);
     1106     3605    1   DCL P(0:2) PTR CONSTANT INIT(
     1107     3606    1         ADDR(KZ_BSC_HDR),
     1108     3607    1         ADDR(KZ_BSC_HDR),
     1109     3608    1         ADDR(KZ_HASP_HDR));
     1110     3609    1   DCL PS(0:2) PTR CONSTANT INIT(
     1111     3610    1         ADDR(KZ_BSCS_HDR),
PL6.E3A0      #003=KZR$RBTINIT File=KZR$RBT.:E05TSI                              WED 07/30/97 03:03 Page:171
     1112     3611    1         ADDR(KZ_BSCS_HDR),
     1113     3612    1         ADDR(KZ_HASPS_HDR));
     1114     3613    1   DCL J UBIN;
     1115     3614    1   DCL P$ PTR;
     1116     3615
     1117     3616    1         P$=HDR_INIT.HDR$;

   3616   1 000005  ECC7 0004                            LDB,B6   @HDR_INIT,AUTO
          1 000007  DC86                                 LDB,B5   ,B6
          1 000008  DFC7 0007                            STB,B5   P$,AUTO

     1118     3617    2         DO J = 0 TO (SIZEW(I)/SIZEW(I(0))-1);

   3617   1 00000A  8747 0006                            CL       J,AUTO
          1 00000C  0F81 0018                            B        s:3620+2,PREL

     1119     3618    2            P$->KZ_HDR$(I(J)*2)=P(J);

   3618   1 00000E  B847 0006                            LDR,R3   J,AUTO
          1 000010  A830 0000 0000  00                   LDR,R2   I,R3
          1 000013  ECB0 0000 0003  00                   LDB,B6   P,R3
          1 000016  DCC7 0007                            LDB,B5   P$,AUTO
          1 000018  2001                                 SOL,R2   1
          1 000019  EFA5                                 STB,B6   ,B5,R2

     1120     3619    2            P$->KZ_HDR$(I(J)*2+1)=PS(J);

   3619   1 00001A  A830 0000 0000  00                   LDR,R2   I,R3
          1 00001D  CCB0 0000 0009  00                   LDB,B4   PS,R3
          1 000020  2001                                 SOL,R2   1
          1 000021  2E01                                 ADV,R2   1
          1 000022  CFA5                                 STB,B4   ,B5,R2

     1121     3620    2            END;

   3620   1 000023  8AC7 0006                            INC      J,AUTO
          1 000025  E847 0006                            LDR,R6   J,AUTO
PL6.E3A0      #003=KZR$RBTINIT File=KZR$RBT.:E05TSI                              WED 07/30/97 03:03 Page:172
          1 000027  6D02                                 CMV,R6   2
          1 000028  03E6                                 BLE      s:3618,SPREL

     1122     3621    1         KZR_ORDERS@=HDR_INIT.ORDERS;

   3621   1 000029  ECC7 0004                            LDB,B6   @HDR_INIT,AUTO
          1 00002B  CCC6 0006                            LDB,B4   6,B6
          1 00002D  CF80 0000 0000  xsym                 STB,B4   KZR_ORDERS@

     1123     3622    1         KZR_CNCDSC@=HDR_INIT.CNCDSC;

   3622   1 000030  BCC6 0004                            LDB,B3   4,B6
          1 000032  BF80 0000 0000  xsym                 STB,B3   KZR_CNCDSC@

     1124     3623    1         KZR_DRIVER@=HDR_INIT.DRIVER;

   3623   1 000035  ACC6 0008                            LDB,B2   8,B6
          1 000037  AF80 0000 0000  xsym                 STB,B2   KZR_DRIVER@

     1125     3624    1         KZR_ABORT@=HDR_INIT.ABORT;

   3624   1 00003A  9CC6 0002                            LDB,B1   2,B6
          1 00003C  9F80 0000 0000  xsym                 STB,B1   KZR_ABORT@

     1126     3625    1         RETURN;

   3625   1 00003F  C380 0000 0000  xent                 LNJ,B4   X6A_ARET
     1127     3626    1   END;

PL6.E3A0      #003=KZR$RBTINIT File=KZR$RBT.:E05TSI                              WED 07/30/97 03:03 Page:173
--  Include file information  --

   KL_SUPER_C.:E05TOU  is referenced.
   KZ$LINCTX.:E05TOU  is referenced.
      No diagnostics issued in procedure KZR$RBTINIT.
PL6.E3A0      #003=KZR$RBTINIT File=KZR$RBT.:E05TSI                              WED 07/30/97 03:03 Page:174

 **** Variables and constants ****

  ****  Section 000 RoData KZR$RBTINIT

  ****  Scalars and arrays  ****
HexLoc.c.b A Datatyp(siz) R M Lvl/name                 HexLoc.c.b A Datatyp(siz) R M Lvl/name

     0-0-0/w UBIN(16)    r     1 I(0:2)                     3-0-0/w PTR         r     1 P(0:2)
     9-0-0/w PTR         r     1 PS(0:2)

  ****  Auto variables  ****

  ****  Scalars and arrays  ****
HexLoc.c.b A Datatyp(siz) R M Lvl/name                 HexLoc.c.b A Datatyp(siz) R M Lvl/name

     4-0-0/w PTR         r     1 @HDR_INIT                 *0-0-0/w STRC(192)   r     1 HDR_INIT
     6-0-0/w UBIN(16)    r     1 J                          7-0-0/w PTR         r     1 P$

  ****  SYMREF variables  ****

  ****  Scalars and arrays  ****
HexLoc.c.b A Datatyp(siz) R M Lvl/name                 HexLoc.c.b A Datatyp(siz) R M Lvl/name

     0-0-0/w EPTR        r     1 KZR_ABORT@                 0-0-0/w EPTR        r     1 KZR_CNCDSC@
     0-0-0/w EPTR        r     1 KZR_DRIVER@                0-0-0/w EPTR        r     1 KZR_ORDERS@
     0-0-0/w UBIN(16)    r     1 KZ_BSCS_HDR                0-0-0/w UBIN(16)    r     1 KZ_BSC_HDR
     0-0-0/w UBIN(16)    r     1 KZ_HASPS_HDR               0-0-0/w UBIN(16)    r     1 KZ_HASP_HDR

  ****  BASED and DCB variables  ****

  ****  Scalars and arrays  ****
HexLoc.c.b A Datatyp(siz) R M Lvl/name                 HexLoc.c.b A Datatyp(siz) R M Lvl/name

     0-0-0/w PTR         r     1 KZ_HDR$(0:13)

PL6.E3A0      #003=KZR$RBTINIT File=KZR$RBT.:E05TSI                              WED 07/30/97 03:03 Page:175

   Procedure KZR$RBTINIT requires 66 words for executable code.
   Procedure KZR$RBTINIT requires 10 words of local(AUTO) storage.

    No errors detected in file KZR$RBT.:E05TSI    .
PL6.E3A0      #003=KZR$RBTINIT File=KZR$RBT.:E05TSI                              WED 07/30/97 03:03 Page:176
          *** CROSS REFERENCE LISTING ***
**     DENOTES     IDENTIFIER DEFINITION
<<                 IDENTIFIER'S VALUE SET
>>                 IDENTIFIER'S VALUE USED
<>                 IDENTIFIER SET AND/OR USED
--                 IDENTIFIER REFERENCED
PL6.E3A0      #003=KZR$RBTINIT File=KZR$RBT.:E05TSI                              WED 07/30/97 03:03 Page:177
          MINI XREF LISTING

HDR_INIT
      3580**DCL        38--PROC
HDR_INIT.ABORT
      3582**DCL      3624>>ASSIGN
HDR_INIT.CNCDSC
      3583**DCL      3622>>ASSIGN
HDR_INIT.DRIVER
      3585**DCL      3623>>ASSIGN
HDR_INIT.HDR$
      3581**DCL      3616>>ASSIGN
HDR_INIT.ORDERS
      3584**DCL      3621>>ASSIGN
I
      3601**DCL      3617--DOINDEX  3617--DOINDEX  3618>>ASSIGN   3619>>ASSIGN
J
      3613**DCL      3617<<DOINDEX  3618>>ASSIGN   3618>>ASSIGN   3619>>ASSIGN   3619>>ASSIGN
KZR_ABORT@
      3596**DCL      3624<<ASSIGN
KZR_CNCDSC@
      3597**DCL      3622<<ASSIGN
KZR_DRIVER@
      3598**DCL      3623<<ASSIGN
KZR_ORDERS@
      3595**DCL      3621<<ASSIGN
KZ_BSCS_HDR
      3590**DCL      3610--DCLINIT  3611--DCLINIT
KZ_BSC_HDR
      3591**DCL      3606--DCLINIT  3607--DCLINIT
KZ_HASPS_HDR
      3593**DCL      3612--DCLINIT
KZ_HASP_HDR
      3592**DCL      3608--DCLINIT
PL6.E3A0      #003=KZR$RBTINIT File=KZR$RBT.:E05TSI                              WED 07/30/97 03:03 Page:178
KZ_HDR$
      3563**DCL      3618<<ASSIGN   3619<<ASSIGN
P
      3605**DCL      3618>>ASSIGN
P$
      3614**DCL      3616<<ASSIGN   3618>>ASSIGN   3619>>ASSIGN
PS
      3609**DCL      3619>>ASSIGN
