VERSION E05

PL6.E3A0      #001=KZ_3270INPFNC_D File=KZ_3270INPFNC_D.:E05TSI                  WED 07/30/97 03:04 Page:1
        1        1        /*M* KZ_3270INPFNC_D 3270 Handler input-function tables */
        2        2        /*T***********************************************************/
        3        3        /*T*                                                         */
        4        4        /*T* Copyright (c) Bull HN Information Systems Inc., 1997    */
        5        5        /*T*                                                         */
        6        6        /*T***********************************************************/
        7        7        KZ_3270INPFNC_D: PROC;
        8        8        %INCLUDE KV$GLB;
        9      427        %INCLUDE KV$INPFNC;
       10      986        %INCLUDE KV_ASCCHR_E;
       11     1123        %INCLUDE KV_GLBCNS_E;
       12     1464        %INCLUDE KV_PRMID_E;
       13     1638        %INCLUDE KZ_3270_C;
       14     1796        %KV_CMPCOD_E;
       15     1810        %KV_INPOPRX_E;
       16     1822        %KV_PRMID_E;
       17     1978        %KV_INPPRC_E;
       18     2030        %KZ_3270_E;
       19     2158    1   DCL KZ_INPFNCTBLHED$ PTR CONSTANT SYMDEF INIT(ADDR(KZ_INPFNC.CP5));
       20     2159        /*
       21     2160           First lets define all the 3270 function keys.
       22     2161        */
       23     2162        %KV_INPFNC_E;
       24     2176        %KV_INPFNCKEY_E;
       25     2438
       26     2439        %KV_FNCID (NAME=KZ_3270PRFFNCTBL, STCLASS=CONSTANT SYMDEF, TYP=CTRSTR,
       27     2440                   ID=KZ#3270ASC_ENTER, TRNCHR=KV_INPFNCKEY_BIS+KV_INPFNCKEY_ENTER);
       28     2527        %KV_FNCID (ID=KZ#3270ASC_PA1, TRNCHR=KV_INPFNCKEY_BIS+KV_INPFNCKEY_PA1);
       29     2614        %KV_FNCID (ID=KZ#3270ASC_PA2, TRNCHR=KV_INPFNCKEY_BIS+KV_INPFNCKEY_PA2);
       30     2701        %KV_FNCID (ID=KZ#3270ASC_PA3, TRNCHR=KV_INPFNCKEY_BIS+KV_INPFNCKEY_PA3);
       31     2788        %KV_FNCID (ID=KZ#3270ASC_CLEAR, TRNCHR=KV_INPFNCKEY_BIS+KV_INPFNCKEY_CLEAR);
       32     2875        %KV_FNCID (ID=KZ#3270ASC_PF1, TRNCHR=KV_INPFNCKEY_BIS+KV_INPFNCKEY_F0+1);
       33     2962        %KV_FNCID (ID=KZ#3270ASC_PF2, TRNCHR=KV_INPFNCKEY_BIS+KV_INPFNCKEY_F0+2);
       34     3049        %KV_FNCID (ID=KZ#3270ASC_PF3, TRNCHR=KV_INPFNCKEY_BIS+KV_INPFNCKEY_F0+3);
       35     3136        %KV_FNCID (ID=KZ#3270ASC_PF4, TRNCHR=KV_INPFNCKEY_BIS+KV_INPFNCKEY_F0+4);
       36     3223        %KV_FNCID (ID=KZ#3270ASC_PF5, TRNCHR=KV_INPFNCKEY_BIS+KV_INPFNCKEY_F0+5);
       37     3310        %KV_FNCID (ID=KZ#3270ASC_PF6, TRNCHR=KV_INPFNCKEY_BIS+KV_INPFNCKEY_F0+6);
PL6.E3A0      #001=KZ_3270INPFNC_D File=KZ_3270INPFNC_D.:E05TSI                  WED 07/30/97 03:04 Page:2
       38     3397        %KV_FNCID (ID=KZ#3270ASC_PF7, TRNCHR=KV_INPFNCKEY_BIS+KV_INPFNCKEY_F0+7);
       39     3484        %KV_FNCID (ID=KZ#3270ASC_PF8, TRNCHR=KV_INPFNCKEY_BIS+KV_INPFNCKEY_F0+8);
       40     3571        %KV_FNCID (ID=KZ#3270ASC_PF9, TRNCHR=KV_INPFNCKEY_BIS+KV_INPFNCKEY_F0+9);
       41     3658        %KV_FNCID (ID=KZ#3270ASC_PF10, TRNCHR=KV_INPFNCKEY_BIS+KV_INPFNCKEY_F0+10);
       42     3745        %KV_FNCID (ID=KZ#3270ASC_PF11, TRNCHR=KV_INPFNCKEY_BIS+KV_INPFNCKEY_F0+11);
       43     3832        %KV_FNCID (ID=KZ#3270ASC_PF12, TRNCHR=KV_INPFNCKEY_BIS+KV_INPFNCKEY_F0+12);
       44     3919        %KV_FNCID (ID=KZ#3270ASC_PF13, TRNCHR=KV_INPFNCKEY_BIS+KV_INPFNCKEY_F0+13);
       45     4006        %KV_FNCID (ID=KZ#3270ASC_PF14, TRNCHR=KV_INPFNCKEY_BIS+KV_INPFNCKEY_F0+14);
       46     4093        %KV_FNCID (ID=KZ#3270ASC_PF15, TRNCHR=KV_INPFNCKEY_BIS+KV_INPFNCKEY_F0+15);
       47     4180        %KV_FNCID (ID=KZ#3270ASC_PF16, TRNCHR=KV_INPFNCKEY_BIS+KV_INPFNCKEY_F0+16);
       48     4267        %KV_FNCID (ID=KZ#3270ASC_PF17, TRNCHR=KV_INPFNCKEY_BIS+KV_INPFNCKEY_F0+17);
       49     4354        %KV_FNCID (ID=KZ#3270ASC_PF18, TRNCHR=KV_INPFNCKEY_BIS+KV_INPFNCKEY_F0+18);
       50     4441        %KV_FNCID (ID=KZ#3270ASC_PF19, TRNCHR=KV_INPFNCKEY_BIS+KV_INPFNCKEY_F0+19);
       51     4528        %KV_FNCID (ID=KZ#3270ASC_PF20, TRNCHR=KV_INPFNCKEY_BIS+KV_INPFNCKEY_F0+20);
       52     4615        %KV_FNCID (ID=KZ#3270ASC_PF21, TRNCHR=KV_INPFNCKEY_BIS+KV_INPFNCKEY_F0+21);
       53     4702        %KV_FNCID (ID=KZ#3270ASC_PF22, TRNCHR=KV_INPFNCKEY_BIS+KV_INPFNCKEY_F0+22);
       54     4789        %KV_FNCID (ID=KZ#3270ASC_PF23, TRNCHR=KV_INPFNCKEY_BIS+KV_INPFNCKEY_F0+23);
       55     4876        %KV_FNCID (ID=KZ#3270ASC_PF24, TRNCHR=KV_INPFNCKEY_BIS+KV_INPFNCKEY_F0+24);
       56     4963
       57     4964        %KV$INPFNCTBL (NAME=TBL, STCLASS=CONSTANT);
       58     5048        %EJECT;
PL6.E3A0      #001=KZ_3270INPFNC_D File=KZ_3270INPFNC_D.:E05TSI                  WED 07/30/97 03:04 Page:3
       59     5049        %EJECT;
PL6.E3A0      #001=KZ_3270INPFNC_D File=KZ_3270INPFNC_D.:E05TSI                  WED 07/30/97 03:04 Page:4
       60     5050        %KV_INPOPR (NAME=KZ_INPFNC, TYP=MSC, RED=); /* Gotta get started somehow      */
       61     5088        /*
       62     5089           INPOPRs used by routines that directly call the
       63     5090           input function interpreter with INPOPR indexes.  These INPOPRs couldn't
       64     5091           be expressed in one word; these are 'branched to' via
       65     5092           JMP INPOPRs below.
       66     5093        */
       67     5094        %EQU Y#INPOPR_RE_RED = KV_INPOPRX;
       68     5095        %KV_INPOPR (TYP=VDHINPPRC, RED=, ID=KV_INPPRC_COPSTREDTBFR);
       69     5133        %EJECT;
PL6.E3A0      #001=KZ_3270INPFNC_D File=KZ_3270INPFNC_D.:E05TSI                  WED 07/30/97 03:04 Page:5
       70     5134        /*
       71     5135           Input operators (INPOPRs) used by routines that directly call the
       72     5136           input function interpreter with INPOPR indexes.
       73     5137           These INPOPRs must have fixed (non-floating) displacements
       74     5138           from the start of the INPOPR table (KV_INPOPR0).
       75     5139        */
       76     5140        %SET KV_INPOPR0 = KV_INPOPRX-1;
       77     5141        %KV_INPOPR (TEST=KV_INPOPRX_INT,
       78     5142             TYP=MSC, RED=); /*          Initialization  after switching inpfnctbls   */
       79     5180        %KV_INPOPR (TEST=KV_INPOPRX_PRGINP,
       80     5181             TYP=MSC, IMD=, DLTINP=);           /*      M$PURGE input                 */
       81     5219        %KV_INPOPR (TEST=KV_INPOPRX_PRGOTP,
       82     5220             TYP=MSC, IMD=, DLTOTP=);           /*      M$PURGE output                */
       83     5258        %KV_INPOPR (TEST=KV_INPOPRX_PRTERR,
       84     5259             TYP=MSC, RED=);
       85     5297        %KV_INPOPR (TEST=KV_INPOPRX_RE_RED,
       86     5298             TYP=JMP, IMD=, RED=, INPOPRX=Y#INPOPR_RE_RED); /*M$READ w/reread         */
       87     5336        %KV_INPOPR (TEST=KV_INPOPRX_RE_TYP,
       88     5337             TYP=MSC, RED=);
       89     5375        %KV_INPOPR (TYP=MSC, IMD=);             /* Spare                              */
       90     5413        %KV_INPOPR (TEST=KV_INPOPRX_REDDATLST,
       91     5414             TYP=ACTRED, RED=, CMPCOD=KV_CMPCOD_BFROVRRUN);
       92     5452        %KV_INPOPR (TEST=KV_INPOPRX_RSTINSMOD,
       93     5453             TYP=MSC, RED=);
       94     5491        %KV_INPOPR (TYP=MSC, IMD=);             /* Spare                              */
       95     5529        %KV_INPOPR (TYP=MSC, IMD=);             /* Spare                              */
       96     5567        %KV_INPOPR (TYP=MSC, IMD=);             /* Spare                              */
       97     5605        %KV_INPOPR (TYP=MSC, IMD=);             /* Spare                              */
       98     5643        %EJECT;
PL6.E3A0      #001=KZ_3270INPFNC_D File=KZ_3270INPFNC_D.:E05TSI                  WED 07/30/97 03:04 Page:6
       99     5644        /*
      100     5645           Input operators (INPOPRs) for special characters (SPCCHRs).
      101     5646           These INPOPRs must have fixed (non-floating) displacements
      102     5647           from the start of the INPOPR table (KV_INPOPR0) because their INPOPRx
      103     5648           values are compiled directly into the translate tables.
      104     5649        */
      105     5650        %EQU Y#ASCII_SBA = KV_INPOPRX;
      106     5651        %KV_INPOPR (TEST=KZ#3270SPCCHR_SBA, TYP=FLWON, IMD=,
      107     5652                    FNCID=KZ#3270ASC_SBA, FNCTYP=SPCCHR);
      108     5776        %KV_INPOPR (TYP=USRINPPRC, RED=, ID=KZ#3270INPPRC_SBA1, CHN=);
      109     5814        %KV_INPOPR (TYP=FLWON, IMD=);
      110     5852        %KV_INPOPR (TYP=USRINPPRC, RED=, ID=KZ#3270INPPRC_SBA2);
      111     5890        /*
      112     5891           End of INPOPRs which must have fixed displacements.
      113     5892        */
      114     5893        /*
      115     5894           Put some way of activating a read into the minimal function table.
      116     5895        */
      117     5896        %EQU Y#ASCII_CR = KV_INPOPRX;
      118     5897        %KV_INPOPR (TYP=VDHINPPRC, RED=, ID=KV_INPPRC_CR, FNCID=KV_INPFNCKEY_ENTER,
      119     5898                    FNCTYP=FNCKEY);
      120     6022        %EQU Y#FNCID_NONE = KV_FNCID_SAV;
      121     6023        %EJECT;
PL6.E3A0      #001=KZ_3270INPFNC_D File=KZ_3270INPFNC_D.:E05TSI                  WED 07/30/97 03:04 Page:7
      122     6024        /*
      123     6025           Input operators (INPOPRs) for special characters (SPCCHRs).
      124     6026           These INPOPRs don't need fixed (non-floating) displacements
      125     6027           from the start of the INPOPR table (KV_INPOPR0).
      126     6028        */
      127     6029        %EQU Y#ASCII_BS = KV_INPOPRX;
      128     6030        %KV_INPOPR (TYP=VDHINPPRC, RED=, ID=KV_INPPRC_PSTLFT, FNCID=ASCIIBS,
      129     6031                    FNCTYP=SPCCHR);
      130     6155        %EQU Y#ASCII_EM = KV_INPOPRX;
      131     6156        %KV_INPOPR (TYP=VDHINPPRC, IMD=, ID=KV_INPPRC_MNTATN, CHN=, FNCID=ASCIIEM);
      132     6280        %KV_INPOPR (TYP=MSC, IMD=, ABRRED=, DLTINP=, DLTOTP=, DLTRED=);
      133     6318        %EQU Y#ASCII_CAN = KV_INPOPRX;
      134     6319        %KV_INPOPR (TYP=MSC, IMD=, DLTINP=, DLTRED=, DLTOTP=, FNCID=ASCIICAN);
      135     6443        %KV_FNCID (INPOPRX=Y#ASCII_CR, ID=ASCIICR);
      136     6530        %EQU Y#ASCII_DC2 = KV_INPOPRX;
      137     6531        %KV_INPOPR (TYP=VDHINPPRC, RED=, ID=KV_INPPRC_PSTRHT, FNCID=ASCIIDC2);
      138     6655        %EQU Y#ASCII_DEL = KV_INPOPRX;
      139     6656        %KV_INPOPR (TYP=VDHINPPRC, RED=, ID=KV_INPPRC_DEL, FNCID=ASCIIDEL);
      140     6780        %EQU Y#ASCII_EOT = KV_INPOPRX;
      141     6781        %KV_INPOPR (TYP=TXT, RED=, DSP=REDBFR, TXT="BITASC(ASCIIEOT)", FNCID=ASCIIEOT);
      142     6905        %EQU Y#ASCII_ESC = KV_INPOPRX;
      143     6906        %KV_INPOPR (TYP=VDHINPPRC, IMD=, RED=, ID=KV_INPPRC_ESC, FNCID=ASCIIESC);
      144     7030        %EQU Y#ASCII_FF = KV_INPOPRX;
      145     7031        %KV_INPOPR (TYP=VDHINPPRC, RED=, ID=KV_INPPRC_SCREND, FNCID=ASCIIFF);
      146     7155        %EQU Y#ASCII_HT = KV_INPOPRX;
      147     7156        %KV_INPOPR (TYP=VDHINPPRC, RED=, ID=KV_INPPRC_TAB, FNCID=ASCIIHT);
      148     7280        %EQU Y#ASCII_LF = KV_INPOPRX;
      149     7281        %KV_INPOPR (TYP=VDHINPPRC, RED=, ID=KV_INPPRC_LF, FNCID=ASCIILF);
      150     7405        %KV_INPOPR (TYP=VDHINPPRC, RED=, ID=KV_INPPRC_COPSSNEDTBFR, FNCID=ASCIISUB);
      151     7529        /*
      152     7530           End of INPOPRs which don't need fixed displacements.
      153     7531        */
      154     7532        %EJECT;
PL6.E3A0      #001=KZ_3270INPFNC_D File=KZ_3270INPFNC_D.:E05TSI                  WED 07/30/97 03:04 Page:8
      155     7533        /*
      156     7534           Input operators (INPOPRs) for escape sequences (PRMESCs).
      157     7535        */
      158     7536        %EQU Y#ESC_STX = KV_INPOPRX;
      159     7537        %KV_INPOPR (TYP=VDHINPPRC, IMD=, ID=KV_INPPRC_BRK, CHN=, FNCID=ASCIISTX,
      160     7538                    FNCTYP=PRMESC);
      161     7662        %KV_INPOPR (TYP=MSC, IMD=, ABRRED=);
      162     7700        %EQU Y#ESC_EOT = KV_INPOPRX;
      163     7701        %KV_INPOPR (TYP=VDHINPPRC, RED=, ID=KV_INPPRC_COPSTREDTBFR, FNCID=ASCIIEOT);
      164     7825        %EQU Y#ESC_CR = KV_INPOPRX;
      165     7826        %KV_INPOPR (TYP=VDHINPPRC, RED=, ID=KV_INPPRC_PSTBGNRED, FNCID=ASCIICR);
      166     7950        %EQU Y#ESC_VT = KV_INPOPRX;
      167     7951        %KV_INPOPR (TYP=VDHINPPRC, RED=, ID=KV_INPPRC_DLTTO_BGN, FNCID=ASCIIVT);
      168     8075        %EQU Y#ESC_ETB = KV_INPOPRX;
      169     8076        %KV_INPOPR (TYP=VDHINPPRC, RED=, ID=KV_INPPRC_DELWRD, FNCID=ASCIIETB);
      170     8200        %EQU Y#ESC_DEL = KV_INPOPRX;
      171     8201        %KV_INPOPR (TYP=VDHINPPRC, RED=, ID=KV_INPPRC_DELLFT, FNCID=ASCIIDEL);
      172     8325        %EQU Y#ESC_LFTPRN = KV_INPOPRX;
      173     8326        %KV_INPOPR (TYP=RSTPRM, RED=, PRMID=KV_PRMID_LOWERCASE, FNCID='(');
      174     8450        %EQU Y#ESC_RHTPRN = KV_INPOPRX;
      175     8451        %KV_INPOPR (TYP=SETPRM, RED=, PRMID=KV_PRMID_LOWERCASE, FNCID="')'");
      176     8575        %EQU Y#ESC_AST = KV_INPOPRX;
      177     8576        %KV_INPOPR (TYP=VDHINPPRC, RED=, ID=KV_INPPRC_SAVEDTWND, FNCID='*');
      178     8700        %EQU Y#ESC_CLN = KV_INPOPRX;
      179     8701        %KV_INPOPR (TYP=VDHINPPRC, RED=, ID=KV_INPPRC_RCLEDTWND, FNCID=':');
      180     8825        %KV_FNCID (ID="';'", INPOPRX=Y#ASCII_CR);
      181     8912        %EQU Y#ESC_LFTARW = KV_INPOPRX;
      182     8913        %KV_INPOPR (TYP=VDHINPPRC, RED=, ID=KV_INPPRC_SETINSLOWX, FNCID='<');
      183     9037        %EQU Y#ESC_RHTARW = KV_INPOPRX;
      184     9038        %KV_INPOPR (TYP=VDHINPPRC, RED=, ID=KV_INPPRC_SETINSHI_X, FNCID='>');
      185     9162        %EQU Y#ESC_A = KV_INPOPRX;
      186     9163        %KV_INPOPR (TYP=TGLPRM, IMD=, PRMID=KV_PRMID_PAGEHALT, FNCID='A');
      187     9287        %EQU Y#ESC_B = KV_INPOPRX;
      188     9288        %KV_INPOPR (TYP=VDHINPPRC, IMD=, ID=KV_INPPRC_BRK, CHN=, FNCID='B');
      189     9412        %KV_INPOPR (TYP=MSC, IMD=, DLTINP=, ABRRED=);
      190     9450        %KV_FNCID (INPOPRX=Y#ESC_CR,                                 ID='C');
      191     9537        %KV_INPOPR (TYP=SETPRM, RED=, PRMID=KV_PRMID_WRDWRPCLM, FNCID='^');
PL6.E3A0      #001=KZ_3270INPFNC_D File=KZ_3270INPFNC_D.:E05TSI                  WED 07/30/97 03:04 Page:9
      192     9661        %EQU Y#ESC_D = KV_INPOPRX;
      193     9662        %KV_INPOPR (TYP=VDHINPPRC, RED=, ID=KV_INPPRC_COPSSNEDTBFR, FNCID='D');
      194     9786        %EQU Y#ESC_E = KV_INPOPRX;
      195     9787        %KV_INPOPR (TYP=TGLPRM, RED=, PRMID=KV_PRMID_DISPINPUT, FNCID='E');
      196     9911        %EQU Y#ESC_F = KV_INPOPRX;
      197     9912        %KV_INPOPR (TYP=ACTRED, RED=, CMPCOD=KV_CMPCOD_EOF, FNCID='F');
      198    10036        %EQU Y#ESC_G = KV_INPOPRX;
      199    10037        %KV_INPOPR (TYP=VDHINPPRC, IMD=, ID=KV_INPPRC_OTPPRTID, FNCID='G');
      200    10161        %EQU Y#ESC_I = KV_INPOPRX;
      201    10162        %KV_INPOPR (TYP=SETPRM, RED=, PRMID=KV_PRMID_AUTTABCLM, FNCID='I');
      202    10286        %EQU Y#ESC_J = KV_INPOPRX;
      203    10287        %KV_INPOPR (TYP=VDHINPPRC, RED=, ID=KV_INPPRC_TGLINSMOD, FNCID='J');
      204    10411        %EQU Y#ESC_K = KV_INPOPRX;
      205    10412        %KV_INPOPR (TYP=VDHINPPRC, RED=, ID=KV_INPPRC_DLTTO_END, FNCID='K');
      206    10536        %EQU Y#ESC_L = KV_INPOPRX;
      207    10537        %KV_INPOPR (TYP=VDHINPPRC, RED=, ID=KV_INPPRC_PAGBRK, FNCID='L');
      208    10661        %EQU Y#ESC_N = KV_INPOPRX;
      209    10662        %KV_INPOPR (TYP=VDHINPPRC, RED=, ID=KV_INPPRC_PSTENDRED, FNCID='N');
      210    10786        %EQU Y#ESC_P = KV_INPOPRX;
      211    10787        %KV_INPOPR (TYP=TGLPRM, IMD=, PRMID=KV_PRMID_WRPPAG, FNCID='P');
      212    10911        %EQU Y#ESC_Q = KV_INPOPRX;
      213    10912        %KV_INPOPR (TYP=VDHINPPRC, IMD=, ID=KV_INPPRC_OTPSTT, FNCID='Q');
      214    11036        %EQU Y#ESC_R = KV_INPOPRX;
      215    11037        %KV_INPOPR (TYP=VDHINPPRC, RED=, ID=KV_INPPRC_RSTINSMOD, FNCID='R');
      216    11161        %KV_FNCID (INPOPRX=Y#ESC_STX,                              ID='S');
      217    11248        %EQU Y#ESC_T = KV_INPOPRX;
      218    11249        %KV_INPOPR (TYP=VDHINPPRC, RED=, ID=KV_INPPRC_INCINPFLDSIZ, FNCID='T');
      219    11373        %EQU Y#ESC_U = KV_INPOPRX;
      220    11374        %KV_INPOPR (TYP=TGLPRM, RED=, PRMID=KV_PRMID_UPPERCASE, FNCID='U');
      221    11498        %EQU Y#ESC_V = KV_INPOPRX;
      222    11499        %KV_INPOPR (TYP=FLWON, IMD=, RED=, FNCID='V');
      223    11623        %KV_INPOPR (TYP=VDHINPPRC, RED=, ID=KV_INPPRC_FNDPSTCHR);
      224    11661        %EQU Y#ESC_W = KV_INPOPRX;
      225    11662        %KV_INPOPR (TYP=TGLPRM, IMD=, PRMID=KV_PRMID_OUTPUTDISCARD, CHN=, FNCID='W');
      226    11786        %KV_INPOPR (TYP=MSC, IMD=, DLTOTP=);
      227    11824        %EQU Y#ESC_X = KV_INPOPRX;
      228    11825        %KV_INPOPR (TYP=MSC, RED=, DLTRED=, FNCID='X');
PL6.E3A0      #001=KZ_3270INPFNC_D File=KZ_3270INPFNC_D.:E05TSI                  WED 07/30/97 03:04 Page:10
      229    11949        %EQU Y#ESC_Y = KV_INPOPRX;
      230    11950        %KV_INPOPR (TYP=VDHINPPRC, IMD=, ID=KV_INPPRC_MNTATN, CHN=, FNCID='Y');
      231    12074        %KV_INPOPR (TYP=MSC, IMD=, DLTINP=, ABRRED=);
      232    12112        %EJECT;
PL6.E3A0      #001=KZ_3270INPFNC_D File=KZ_3270INPFNC_D.:E05TSI                  WED 07/30/97 03:04 Page:11
      233    12113        /*
      234    12114           INPOPRs for escapes with a count in the middle.
      235    12115        */
      236    12116        %KV_INPOPR (TYP=SETPRM, IMD=, PRMID=0, FNCID='S', FNCTYP=SCNESC);
      237    12240        %KV_INPOPR (TYP=RSTPRM, IMD=, PRMID=0, FNCID='R');
      238    12364        %KV_INPOPR (TYP=TGLPRM, IMD=, PRMID=0, FNCID='T');
      239    12488        %KV_FNCID (ID='C', INPOPRX=Y#ASCII_DC2);
      240    12575        %KV_FNCID (ID='D', INPOPRX=Y#ASCII_BS);
      241    12662        %KV_FNCID (ID='I', INPOPRX=Y#ASCII_HT);
      242    12749        %EQU Y#ESC_PRD = KV_INPOPRX;
      243    12750        %KV_INPOPR (TYP=VDHINPPRC, IMD=, ID=KV_INPPRC_NXTSSN, FNCID='.');
      244    12874        %EJECT;
PL6.E3A0      #001=KZ_3270INPFNC_D File=KZ_3270INPFNC_D.:E05TSI                  WED 07/30/97 03:04 Page:12
      245    12875        /*
      246    12876           INPOPRs for function keys
      247    12877        */
      248    12878        %EQU Y#CLEAR = KV_INPOPRX;
      249    12879        %KV_INPOPR (TYP=VDHINPPRC, IMD=,  ID=KV_INPPRC_RE_TYPFRM, FNCID=KV_INPFNCKEY_CLEAR,
      250    12880                    FNCTYP=FNCKEY);
      251    13004        %KV_INPOPR (TYP=VDHINPPRC, IMD=, ID=KV_INPPRC_BLKTYPAHD, FNCID=KV_INPFNCKEY_PA1);
      252    13128        %KV_INPOPR (TYP=VDHINPPRC, IMD=, ID=KV_INPPRC_BRK, CHN=, FNCID=KV_INPFNCKEY_PA2);
      253    13252        %KV_INPOPR (TYP=MSC, IMD=, DLTINP=, DLTOTP=, DLTRED=, ABRRED=);
      254    13290        %KV_FNCID (ID=KV_INPFNCKEY_F0+1, INPOPRX=Y#ESC_D);
      255    13377        %KV_FNCID (ID=KV_INPFNCKEY_F0+2, INPOPRX=Y#ESC_EOT);
      256    13464        %KV_FNCID (ID=KV_INPFNCKEY_F0+3, INPOPRX=Y#ASCII_HT);
      257    13551        %KV_FNCID (ID=KV_INPFNCKEY_F0+4, INPOPRX=Y#ASCII_LF);
      258    13638        %KV_FNCID (ID=KV_INPFNCKEY_F0+5, INPOPRX=Y#ASCII_EOT);
      259    13725        %KV_FNCID (ID=KV_INPFNCKEY_F0+7, INPOPRX=Y#ESC_Q);
      260    13812        %KV_FNCID (ID=KV_INPFNCKEY_F0+8, INPOPRX=Y#ESC_W);
      261    13899        %KV_FNCID (ID=KV_INPFNCKEY_F0+9, INPOPRX=Y#ASCII_CAN);
      262    13986        %KV_FNCID (ID=KV_INPFNCKEY_F0+10, INPOPRX=Y#ESC_B);
      263    14073        %KV_FNCID (ID=KV_INPFNCKEY_F0+11, INPOPRX=Y#ESC_Y);
      264    14160        %KV_FNCID (ID=KV_INPFNCKEY_F0+12, INPOPRX=Y#ASCII_EM);
      265    14247        /* Duplicate those for 13-24, just for kicks. */
      266    14248        %KV_FNCID (ID=KV_INPFNCKEY_F12+1, INPOPRX=Y#ESC_D);
      267    14335        %KV_FNCID (ID=KV_INPFNCKEY_F12+2, INPOPRX=Y#ESC_EOT);
      268    14422        %KV_FNCID (ID=KV_INPFNCKEY_F12+3, INPOPRX=Y#ASCII_HT);
      269    14509        %KV_FNCID (ID=KV_INPFNCKEY_F12+4, INPOPRX=Y#ASCII_LF);
      270    14596        %KV_FNCID (ID=KV_INPFNCKEY_F12+5, INPOPRX=Y#ASCII_EOT);
      271    14683        %KV_FNCID (ID=KV_INPFNCKEY_F12+7, INPOPRX=Y#ESC_Q);
      272    14770        %KV_FNCID (ID=KV_INPFNCKEY_F12+8, INPOPRX=Y#ESC_W);
      273    14857        %KV_FNCID (ID=KV_INPFNCKEY_F12+9, INPOPRX=Y#ASCII_CAN);
      274    14944        %KV_FNCID (ID=KV_INPFNCKEY_F12+10, INPOPRX=Y#ESC_B);
      275    15031        %KV_FNCID (ID=KV_INPFNCKEY_F12+11, INPOPRX=Y#ESC_Y);
      276    15118        %KV_FNCID (ID=KV_INPFNCKEY_F12+12, INPOPRX=Y#ASCII_EM);
      277    15205        /*
      278    15206           Null input function table, for use as the default system
      279    15207           and user input function tables for 3270.  The system table
      280    15208           will always be set to some other system input function table
      281    15209           during the connect, as 3270 always specifies a system input
PL6.E3A0      #001=KZ_3270INPFNC_D File=KZ_3270INPFNC_D.:E05TSI                  WED 07/30/97 03:04 Page:13
      282    15210           function table name in the profile applied during connect.
      283    15211        */
      284    15212        %KV$INPFNCTBL (NAME=NUL, NAM='NO', STCLASS=CONSTANT,
      285    15213                       LNK=KZ_INPFNC.FRM1, LAST=",", FNCID_SAV=Y#FNCID_NONE);
      286    15297        %EJECT;
PL6.E3A0      #001=KZ_3270INPFNC_D File=KZ_3270INPFNC_D.:E05TSI                  WED 07/30/97 03:04 Page:14
      287    15298        /*
      288    15299           PA1     do type-ahead, enable comgroup read
      289    15300           PA2     BREAK
      290    15301           PF1     ESC-D
      291    15302           PF2     ESC-EOT
      292    15303           PF3     ht
      293    15304           PF4     LF
      294    15305           PF5     EOT
      295    15306           PF6     ESC-R (no operation)
      296    15307           PF7     ESC-Q
      297    15308           PF8     ESC-W
      298    15309           PF9     CAN
      299    15310           PF10    ESC-B
      300    15311           PF11    ESC-Y
      301    15312           PF12    EM
      302    15313           ENTER   CR
      303    15314           CLEAR   FF
      304    15315        */
      305    15316        %KV$INPFNCTBL (NAME=CP5, NAM='CP5', PRMINTCHR1=ASCIIESC, STCLASS=CONSTANT,
      306    15317                       SCNINTCHR1=ASCIIESC, ESCCNTOK=S,
      307    15318                    LNK=KZ_INPFNC.NUL, LAST=",");
      308    15402        %EJECT;
PL6.E3A0      #001=KZ_3270INPFNC_D File=KZ_3270INPFNC_D.:E05TSI                  WED 07/30/97 03:04 Page:15
      309    15403        /*
      310    15404           Input function identifiers declaring system primary
      311    15405           escape sequences for the CP-5 compatible table.
      312    15406           NOTE:  The 3270 input translate table translates FM (field
      313    15407           mark) into ASCII ESC.
      314    15408        */
      315    15409        %KV_FNCID (ID=ASCIIVT, INPOPRX=Y#ESC_VT, TYP=PRMESC);
      316    15496        %KV_FNCID (ID=ASCIICR, INPOPRX=Y#ESC_CR);
      317    15583        %KV_FNCID (ID=ASCIIESC, INPOPRX=Y#ESC_Y);
      318    15670        %KV_FNCID (ID='(', INPOPRX=Y#ESC_LFTPRN);
      319    15757        %KV_FNCID (ID="')'", INPOPRX=Y#ESC_RHTPRN);
      320    15844        %KV_FNCID (ID='*', INPOPRX=Y#ESC_AST);
      321    15931        %KV_FNCID (ID=':', INPOPRX=Y#ESC_CLN);
      322    16018        %KV_FNCID (ID='<', INPOPRX=Y#ESC_LFTARW);
      323    16105        %KV_FNCID (ID='>', INPOPRX=Y#ESC_RHTARW);
      324    16192        %KV_FNCID (ID='C', INPOPRX=Y#ESC_CR);
      325    16279        %KV_FNCID (ID='D', INPOPRX=Y#ESC_EOT);
      326    16366        %KV_FNCID (ID='G', INPOPRX=Y#ESC_G);
      327    16453        %KV_FNCID (ID='J', INPOPRX=Y#ESC_J);
      328    16540        %KV_FNCID (ID='K', INPOPRX=Y#ESC_K);
      329    16627        %KV_FNCID (ID='N', INPOPRX=Y#ESC_N);
      330    16714        %KV_FNCID (ID='Q', INPOPRX=Y#ESC_Q);
      331    16801        %KV_FNCID (ID='R', INPOPRX=Y#ESC_R);
      332    16888        %KV_FNCID (ID='U', INPOPRX=Y#ESC_U);
      333    16975        %KV_FNCID (ID='V', INPOPRX=Y#ESC_V);
      334    17062        %KV_FNCID (ID='X', INPOPRX=Y#ESC_X);
      335    17149        %KV_FNCID (ID='Y', INPOPRX=Y#ESC_Y);
      336    17236        %EJECT;
PL6.E3A0      #001=KZ_3270INPFNC_D File=KZ_3270INPFNC_D.:E05TSI                  WED 07/30/97 03:04 Page:16
      337    17237        /*
      338    17238           INPOPRs for escapes with a count in the middle.
      339    17239        */
      340    17240        %KV_FNCID (ID='I', INPOPRX=Y#ASCII_HT, TYP=SCNESC);
      341    17327        %KV_FNCID (ID='.', INPOPRX=Y#ESC_PRD);
      342    17414        %EJECT;
PL6.E3A0      #001=KZ_3270INPFNC_D File=KZ_3270INPFNC_D.:E05TSI                  WED 07/30/97 03:04 Page:17
      343    17415        /*
      344    17416           Input function identifiers declaring special characters (SPCCHRs).
      345    17417        */
      346    17418        %KV_FNCID (ID=ASCIIBS, INPOPRX=Y#ASCII_BS, TYP=SPCCHR);
      347    17505        %KV_FNCID (ID=ASCIIHT, INPOPRX=Y#ASCII_HT);
      348    17592        %EQU Y#FRM_LF = KV_INPOPRX;
      349    17593        %KV_INPOPR (TYP=ACTRED, IMD=, CMPCOD=KV_CMPCOD_NRM, FNCID=ASCIILF);
      350    17717        %KV_FNCID (ID=ASCIICR, INPOPRX=Y#FRM_LF);
      351    17804        %KV_FNCID (ID=KZ#3270ASC_SBA, INPOPRX=Y#ASCII_SBA);
      352    17891        %KV_FNCID (ID=ASCIIDC2, INPOPRX=Y#ASCII_DC2);
      353    17978        %EQU Y#FRM_EM = KV_INPOPRX;
      354    17979        %KV_INPOPR (TYP=VDHINPPRC, IMD=, ID=KV_INPPRC_MNTATN, FNCID=ASCIIEM);
      355    18103        %EQU Y#FRM_CAN = KV_INPOPRX;
      356    18104        %KV_INPOPR (TYP=MSC, IMD=, DLTINP=, DLTRED=, FNCID=ASCIICAN);
      357    18228        %KV_FNCID (ID=ASCIIESC, INPOPRX=Y#ASCII_ESC);
      358    18315        %KV_FNCID (ID=ASCIIDEL, INPOPRX=Y#ASCII_DEL);
      359    18402        /*
      360    18403           Input function IDs for 3270 function keys.
      361    18404        */
      362    18405        %KV_FNCID (ID=KV_INPFNCKEY_ENTER, INPOPRX=Y#FRM_LF, TYP=FNCKEY);
      363    18492        %KV_FNCID (ID=KV_INPFNCKEY_F0+1, INPOPRX=Y#ESC_EOT);
      364    18579        %KV_FNCID (ID=KV_INPFNCKEY_F0+7, INPOPRX=Y#ESC_Q);
      365    18666        %KV_FNCID (ID=KV_INPFNCKEY_F0+9, INPOPRX=Y#FRM_CAN);
      366    18753        %KV_FNCID (ID=KV_INPFNCKEY_F0+11, INPOPRX=Y#ESC_Y);
      367    18840        %KV_FNCID (ID=KV_INPFNCKEY_F0+12, INPOPRX=Y#FRM_EM);
      368    18927        /* Duplicate those for 13-24, just for kicks. */
      369    18928        %KV_FNCID (ID=KV_INPFNCKEY_F12+1, INPOPRX=Y#ESC_EOT);
      370    19015        %KV_FNCID (ID=KV_INPFNCKEY_F12+7, INPOPRX=Y#ESC_Q);
      371    19102        %KV_FNCID (ID=KV_INPFNCKEY_F12+9, INPOPRX=Y#FRM_CAN);
      372    19189        %KV_FNCID (ID=KV_INPFNCKEY_F12+11, INPOPRX=Y#ESC_Y);
      373    19276        %KV_FNCID (ID=KV_INPFNCKEY_F12+12, INPOPRX=Y#FRM_EM);
      374    19363        %KV_FNCID (ID=KV_INPFNCKEY_CLEAR, INPOPRX=Y#CLEAR);
      375    19450        /*
      376    19451           PA1     no operation
      377    19452           PA2     no operation
      378    19453           PF1     ESC-D
      379    19454           PF2     no operation
PL6.E3A0      #001=KZ_3270INPFNC_D File=KZ_3270INPFNC_D.:E05TSI                  WED 07/30/97 03:04 Page:18
      380    19455           PF3     no operation
      381    19456           PF4     no operation
      382    19457           PF5     no operation
      383    19458           PF6     no operation
      384    19459           PF7     ESC-Q
      385    19460           PF8     no operation
      386    19461           PF9     CAN
      387    19462           PF10    no operation
      388    19463           PF11    ESC-Y
      389    19464           PF12    EM
      390    19465           ENTER   end of form input
      391    19466           CLEAR   repaint form
      392    19467        */
      393    19468        %KV$INPFNCTBL (NAME=FRM1, NAM='FRM1', PRMINTCHR1=ASCIIESC, STCLASS=CONSTANT,
      394    19469                       SCNINTCHR1=ASCIIESC, ESCCNTOK=S);
      395    19553    1   END;

PL6.E3A0      #001=KZ_3270INPFNC_D File=KZ_3270INPFNC_D.:E05TSI                  WED 07/30/97 03:04 Page:19
--  Include file information  --

   KZ_3270_C.:E05TOU  is referenced.
   KV_PRMID_E.:E05TOU  is referenced.
   KV_GLBCNS_E.:E05TOU  is referenced.
   KV_ASCCHR_E.:E05TOU  is referenced.
   KV$INPFNC.:E05TOU  is referenced.
   KV$GLB.:E05TOU  is referenced.
      No diagnostics issued in procedure KZ_3270INPFNC_D.

   No code generated for procedure KZ_3270INPFNC_D .
   Procedure KZ_3270INPFNC_D requires 4 words of local(AUTO) storage.

    No errors detected in file KZ_3270INPFNC_D.:E05TSI    .

PL6.E3A0      #001=KZ_3270INPFNC_D File=KZ_3270INPFNC_D.:E05TSI                  WED 07/30/97 03:04 Page:20

 Object Unit name= KZ_3270INPFNC_D                            File name= KZ_3270INPFNC_D.:E05TOU
 UTS= JUL 30 '97 03:04:14.88 WED                              Compiler= PL-6/E31         Sev=      00
 SharedLib= :SHARED_LCP6_SYSTEM                               Alt SharedLib=


    ****  Control sections  ****

 Sect   Type Bound  Init  Size HexSiz  Section name
    0  RoData even  UTS    503    1F7  KZ_3270INPFNC_D
    1   Proc  even  none     0      0  KZ_3270INPFNC_D

    ****  Entry defs  ****

                              Check   Calling
                             calling  sequence
  Sect HexLoc Primary Altret sequence   type   Parms  Name
     1      0   yes            yes     ~proc       0  KZ_3270INPFNC_D

  ****  Data defs  ****

 Sect HexLoc  Name                           Sect HexLoc  Name
    0      0  KZ_INPFNCTBLHED$                   0      2  KZ_3270PRFFNCTBL

  ****  Data refs  ****

  Flags:  r = read only, s = secondary
Flgs Name                             Flgs Name                             Flgs Name
r    G$ROS$
PL6.E3A0      #001=KZ_3270INPFNC_D File=KZ_3270INPFNC_D.:E05TSI                  WED 07/30/97 03:04 Page:21

        1        1        /*M* KZ_3270INPFNC_D 3270 Handler input-function tables */
        2        2        /*T***********************************************************/
        3        3        /*T*                                                         */
        4        4        /*T* Copyright (c) Bull HN Information Systems Inc., 1997    */
        5        5        /*T*                                                         */
        6        6        /*T***********************************************************/
        7        7        KZ_3270INPFNC_D: PROC;
        8        8        %INCLUDE KV$GLB;
        9      427        %INCLUDE KV$INPFNC;
       10      986        %INCLUDE KV_ASCCHR_E;
       11     1123        %INCLUDE KV_GLBCNS_E;
       12     1464        %INCLUDE KV_PRMID_E;
       13     1638        %INCLUDE KZ_3270_C;
       14     1796        %KV_CMPCOD_E;
       15     1810        %KV_INPOPRX_E;
       16     1822        %KV_PRMID_E;
       17     1978        %KV_INPPRC_E;
       18     2030        %KZ_3270_E;
       19     2158    1   DCL KZ_INPFNCTBLHED$ PTR CONSTANT SYMDEF INIT(ADDR(KZ_INPFNC.CP5));
       20     2159        /*
       21     2160           First lets define all the 3270 function keys.
       22     2161        */
       23     2162        %KV_INPFNC_E;
       24     2176        %KV_INPFNCKEY_E;
       25     2438
       26     2439        %KV_FNCID (NAME=KZ_3270PRFFNCTBL, STCLASS=CONSTANT SYMDEF, TYP=CTRSTR,
       27     2440                   ID=KZ#3270ASC_ENTER, TRNCHR=KV_INPFNCKEY_BIS+KV_INPFNCKEY_ENTER);
       28     2527        %KV_FNCID (ID=KZ#3270ASC_PA1, TRNCHR=KV_INPFNCKEY_BIS+KV_INPFNCKEY_PA1);
       29     2614        %KV_FNCID (ID=KZ#3270ASC_PA2, TRNCHR=KV_INPFNCKEY_BIS+KV_INPFNCKEY_PA2);
       30     2701        %KV_FNCID (ID=KZ#3270ASC_PA3, TRNCHR=KV_INPFNCKEY_BIS+KV_INPFNCKEY_PA3);
       31     2788        %KV_FNCID (ID=KZ#3270ASC_CLEAR, TRNCHR=KV_INPFNCKEY_BIS+KV_INPFNCKEY_CLEAR);
       32     2875        %KV_FNCID (ID=KZ#3270ASC_PF1, TRNCHR=KV_INPFNCKEY_BIS+KV_INPFNCKEY_F0+1);
       33     2962        %KV_FNCID (ID=KZ#3270ASC_PF2, TRNCHR=KV_INPFNCKEY_BIS+KV_INPFNCKEY_F0+2);
       34     3049        %KV_FNCID (ID=KZ#3270ASC_PF3, TRNCHR=KV_INPFNCKEY_BIS+KV_INPFNCKEY_F0+3);
       35     3136        %KV_FNCID (ID=KZ#3270ASC_PF4, TRNCHR=KV_INPFNCKEY_BIS+KV_INPFNCKEY_F0+4);
       36     3223        %KV_FNCID (ID=KZ#3270ASC_PF5, TRNCHR=KV_INPFNCKEY_BIS+KV_INPFNCKEY_F0+5);
       37     3310        %KV_FNCID (ID=KZ#3270ASC_PF6, TRNCHR=KV_INPFNCKEY_BIS+KV_INPFNCKEY_F0+6);
PL6.E3A0      #001=KZ_3270INPFNC_D File=KZ_3270INPFNC_D.:E05TSI                  WED 07/30/97 03:04 Page:22
       38     3397        %KV_FNCID (ID=KZ#3270ASC_PF7, TRNCHR=KV_INPFNCKEY_BIS+KV_INPFNCKEY_F0+7);
       39     3484        %KV_FNCID (ID=KZ#3270ASC_PF8, TRNCHR=KV_INPFNCKEY_BIS+KV_INPFNCKEY_F0+8);
       40     3571        %KV_FNCID (ID=KZ#3270ASC_PF9, TRNCHR=KV_INPFNCKEY_BIS+KV_INPFNCKEY_F0+9);
       41     3658        %KV_FNCID (ID=KZ#3270ASC_PF10, TRNCHR=KV_INPFNCKEY_BIS+KV_INPFNCKEY_F0+10);
       42     3745        %KV_FNCID (ID=KZ#3270ASC_PF11, TRNCHR=KV_INPFNCKEY_BIS+KV_INPFNCKEY_F0+11);
       43     3832        %KV_FNCID (ID=KZ#3270ASC_PF12, TRNCHR=KV_INPFNCKEY_BIS+KV_INPFNCKEY_F0+12);
       44     3919        %KV_FNCID (ID=KZ#3270ASC_PF13, TRNCHR=KV_INPFNCKEY_BIS+KV_INPFNCKEY_F0+13);
       45     4006        %KV_FNCID (ID=KZ#3270ASC_PF14, TRNCHR=KV_INPFNCKEY_BIS+KV_INPFNCKEY_F0+14);
       46     4093        %KV_FNCID (ID=KZ#3270ASC_PF15, TRNCHR=KV_INPFNCKEY_BIS+KV_INPFNCKEY_F0+15);
       47     4180        %KV_FNCID (ID=KZ#3270ASC_PF16, TRNCHR=KV_INPFNCKEY_BIS+KV_INPFNCKEY_F0+16);
       48     4267        %KV_FNCID (ID=KZ#3270ASC_PF17, TRNCHR=KV_INPFNCKEY_BIS+KV_INPFNCKEY_F0+17);
       49     4354        %KV_FNCID (ID=KZ#3270ASC_PF18, TRNCHR=KV_INPFNCKEY_BIS+KV_INPFNCKEY_F0+18);
       50     4441        %KV_FNCID (ID=KZ#3270ASC_PF19, TRNCHR=KV_INPFNCKEY_BIS+KV_INPFNCKEY_F0+19);
       51     4528        %KV_FNCID (ID=KZ#3270ASC_PF20, TRNCHR=KV_INPFNCKEY_BIS+KV_INPFNCKEY_F0+20);
       52     4615        %KV_FNCID (ID=KZ#3270ASC_PF21, TRNCHR=KV_INPFNCKEY_BIS+KV_INPFNCKEY_F0+21);
       53     4702        %KV_FNCID (ID=KZ#3270ASC_PF22, TRNCHR=KV_INPFNCKEY_BIS+KV_INPFNCKEY_F0+22);
       54     4789        %KV_FNCID (ID=KZ#3270ASC_PF23, TRNCHR=KV_INPFNCKEY_BIS+KV_INPFNCKEY_F0+23);
       55     4876        %KV_FNCID (ID=KZ#3270ASC_PF24, TRNCHR=KV_INPFNCKEY_BIS+KV_INPFNCKEY_F0+24);
       56     4963
       57     4964        %KV$INPFNCTBL (NAME=TBL, STCLASS=CONSTANT);
       58     5048        %EJECT;
PL6.E3A0      #001=KZ_3270INPFNC_D File=KZ_3270INPFNC_D.:E05TSI                  WED 07/30/97 03:04 Page:23
       59     5049        %EJECT;
PL6.E3A0      #001=KZ_3270INPFNC_D File=KZ_3270INPFNC_D.:E05TSI                  WED 07/30/97 03:04 Page:24
       60     5050        %KV_INPOPR (NAME=KZ_INPFNC, TYP=MSC, RED=); /* Gotta get started somehow      */
       61     5088        /*
       62     5089           INPOPRs used by routines that directly call the
       63     5090           input function interpreter with INPOPR indexes.  These INPOPRs couldn't
       64     5091           be expressed in one word; these are 'branched to' via
       65     5092           JMP INPOPRs below.
       66     5093        */
       67     5094        %EQU Y#INPOPR_RE_RED = KV_INPOPRX;
       68     5095        %KV_INPOPR (TYP=VDHINPPRC, RED=, ID=KV_INPPRC_COPSTREDTBFR);
       69     5133        %EJECT;
PL6.E3A0      #001=KZ_3270INPFNC_D File=KZ_3270INPFNC_D.:E05TSI                  WED 07/30/97 03:04 Page:25
       70     5134        /*
       71     5135           Input operators (INPOPRs) used by routines that directly call the
       72     5136           input function interpreter with INPOPR indexes.
       73     5137           These INPOPRs must have fixed (non-floating) displacements
       74     5138           from the start of the INPOPR table (KV_INPOPR0).
       75     5139        */
       76     5140        %SET KV_INPOPR0 = KV_INPOPRX-1;
       77     5141        %KV_INPOPR (TEST=KV_INPOPRX_INT,
       78     5142             TYP=MSC, RED=); /*          Initialization  after switching inpfnctbls   */
       79     5180        %KV_INPOPR (TEST=KV_INPOPRX_PRGINP,
       80     5181             TYP=MSC, IMD=, DLTINP=);           /*      M$PURGE input                 */
       81     5219        %KV_INPOPR (TEST=KV_INPOPRX_PRGOTP,
       82     5220             TYP=MSC, IMD=, DLTOTP=);           /*      M$PURGE output                */
       83     5258        %KV_INPOPR (TEST=KV_INPOPRX_PRTERR,
       84     5259             TYP=MSC, RED=);
       85     5297        %KV_INPOPR (TEST=KV_INPOPRX_RE_RED,
       86     5298             TYP=JMP, IMD=, RED=, INPOPRX=Y#INPOPR_RE_RED); /*M$READ w/reread         */
       87     5336        %KV_INPOPR (TEST=KV_INPOPRX_RE_TYP,
       88     5337             TYP=MSC, RED=);
       89     5375        %KV_INPOPR (TYP=MSC, IMD=);             /* Spare                              */
       90     5413        %KV_INPOPR (TEST=KV_INPOPRX_REDDATLST,
       91     5414             TYP=ACTRED, RED=, CMPCOD=KV_CMPCOD_BFROVRRUN);
       92     5452        %KV_INPOPR (TEST=KV_INPOPRX_RSTINSMOD,
       93     5453             TYP=MSC, RED=);
       94     5491        %KV_INPOPR (TYP=MSC, IMD=);             /* Spare                              */
       95     5529        %KV_INPOPR (TYP=MSC, IMD=);             /* Spare                              */
       96     5567        %KV_INPOPR (TYP=MSC, IMD=);             /* Spare                              */
       97     5605        %KV_INPOPR (TYP=MSC, IMD=);             /* Spare                              */
       98     5643        %EJECT;
PL6.E3A0      #001=KZ_3270INPFNC_D File=KZ_3270INPFNC_D.:E05TSI                  WED 07/30/97 03:04 Page:26
       99     5644        /*
      100     5645           Input operators (INPOPRs) for special characters (SPCCHRs).
      101     5646           These INPOPRs must have fixed (non-floating) displacements
      102     5647           from the start of the INPOPR table (KV_INPOPR0) because their INPOPRx
      103     5648           values are compiled directly into the translate tables.
      104     5649        */
      105     5650        %EQU Y#ASCII_SBA = KV_INPOPRX;
      106     5651        %KV_INPOPR (TEST=KZ#3270SPCCHR_SBA, TYP=FLWON, IMD=,
      107     5652                    FNCID=KZ#3270ASC_SBA, FNCTYP=SPCCHR);
      108     5776        %KV_INPOPR (TYP=USRINPPRC, RED=, ID=KZ#3270INPPRC_SBA1, CHN=);
      109     5814        %KV_INPOPR (TYP=FLWON, IMD=);
      110     5852        %KV_INPOPR (TYP=USRINPPRC, RED=, ID=KZ#3270INPPRC_SBA2);
      111     5890        /*
      112     5891           End of INPOPRs which must have fixed displacements.
      113     5892        */
      114     5893        /*
      115     5894           Put some way of activating a read into the minimal function table.
      116     5895        */
      117     5896        %EQU Y#ASCII_CR = KV_INPOPRX;
      118     5897        %KV_INPOPR (TYP=VDHINPPRC, RED=, ID=KV_INPPRC_CR, FNCID=KV_INPFNCKEY_ENTER,
      119     5898                    FNCTYP=FNCKEY);
      120     6022        %EQU Y#FNCID_NONE = KV_FNCID_SAV;
      121     6023        %EJECT;
PL6.E3A0      #001=KZ_3270INPFNC_D File=KZ_3270INPFNC_D.:E05TSI                  WED 07/30/97 03:04 Page:27
      122     6024        /*
      123     6025           Input operators (INPOPRs) for special characters (SPCCHRs).
      124     6026           These INPOPRs don't need fixed (non-floating) displacements
      125     6027           from the start of the INPOPR table (KV_INPOPR0).
      126     6028        */
      127     6029        %EQU Y#ASCII_BS = KV_INPOPRX;
      128     6030        %KV_INPOPR (TYP=VDHINPPRC, RED=, ID=KV_INPPRC_PSTLFT, FNCID=ASCIIBS,
      129     6031                    FNCTYP=SPCCHR);
      130     6155        %EQU Y#ASCII_EM = KV_INPOPRX;
      131     6156        %KV_INPOPR (TYP=VDHINPPRC, IMD=, ID=KV_INPPRC_MNTATN, CHN=, FNCID=ASCIIEM);
      132     6280        %KV_INPOPR (TYP=MSC, IMD=, ABRRED=, DLTINP=, DLTOTP=, DLTRED=);
      133     6318        %EQU Y#ASCII_CAN = KV_INPOPRX;
      134     6319        %KV_INPOPR (TYP=MSC, IMD=, DLTINP=, DLTRED=, DLTOTP=, FNCID=ASCIICAN);
      135     6443        %KV_FNCID (INPOPRX=Y#ASCII_CR, ID=ASCIICR);
      136     6530        %EQU Y#ASCII_DC2 = KV_INPOPRX;
      137     6531        %KV_INPOPR (TYP=VDHINPPRC, RED=, ID=KV_INPPRC_PSTRHT, FNCID=ASCIIDC2);
      138     6655        %EQU Y#ASCII_DEL = KV_INPOPRX;
      139     6656        %KV_INPOPR (TYP=VDHINPPRC, RED=, ID=KV_INPPRC_DEL, FNCID=ASCIIDEL);
      140     6780        %EQU Y#ASCII_EOT = KV_INPOPRX;
      141     6781        %KV_INPOPR (TYP=TXT, RED=, DSP=REDBFR, TXT="BITASC(ASCIIEOT)", FNCID=ASCIIEOT);
      142     6905        %EQU Y#ASCII_ESC = KV_INPOPRX;
      143     6906        %KV_INPOPR (TYP=VDHINPPRC, IMD=, RED=, ID=KV_INPPRC_ESC, FNCID=ASCIIESC);
      144     7030        %EQU Y#ASCII_FF = KV_INPOPRX;
      145     7031        %KV_INPOPR (TYP=VDHINPPRC, RED=, ID=KV_INPPRC_SCREND, FNCID=ASCIIFF);
      146     7155        %EQU Y#ASCII_HT = KV_INPOPRX;
      147     7156        %KV_INPOPR (TYP=VDHINPPRC, RED=, ID=KV_INPPRC_TAB, FNCID=ASCIIHT);
      148     7280        %EQU Y#ASCII_LF = KV_INPOPRX;
      149     7281        %KV_INPOPR (TYP=VDHINPPRC, RED=, ID=KV_INPPRC_LF, FNCID=ASCIILF);
      150     7405        %KV_INPOPR (TYP=VDHINPPRC, RED=, ID=KV_INPPRC_COPSSNEDTBFR, FNCID=ASCIISUB);
      151     7529        /*
      152     7530           End of INPOPRs which don't need fixed displacements.
      153     7531        */
      154     7532        %EJECT;
PL6.E3A0      #001=KZ_3270INPFNC_D File=KZ_3270INPFNC_D.:E05TSI                  WED 07/30/97 03:04 Page:28
      155     7533        /*
      156     7534           Input operators (INPOPRs) for escape sequences (PRMESCs).
      157     7535        */
      158     7536        %EQU Y#ESC_STX = KV_INPOPRX;
      159     7537        %KV_INPOPR (TYP=VDHINPPRC, IMD=, ID=KV_INPPRC_BRK, CHN=, FNCID=ASCIISTX,
      160     7538                    FNCTYP=PRMESC);
      161     7662        %KV_INPOPR (TYP=MSC, IMD=, ABRRED=);
      162     7700        %EQU Y#ESC_EOT = KV_INPOPRX;
      163     7701        %KV_INPOPR (TYP=VDHINPPRC, RED=, ID=KV_INPPRC_COPSTREDTBFR, FNCID=ASCIIEOT);
      164     7825        %EQU Y#ESC_CR = KV_INPOPRX;
      165     7826        %KV_INPOPR (TYP=VDHINPPRC, RED=, ID=KV_INPPRC_PSTBGNRED, FNCID=ASCIICR);
      166     7950        %EQU Y#ESC_VT = KV_INPOPRX;
      167     7951        %KV_INPOPR (TYP=VDHINPPRC, RED=, ID=KV_INPPRC_DLTTO_BGN, FNCID=ASCIIVT);
      168     8075        %EQU Y#ESC_ETB = KV_INPOPRX;
      169     8076        %KV_INPOPR (TYP=VDHINPPRC, RED=, ID=KV_INPPRC_DELWRD, FNCID=ASCIIETB);
      170     8200        %EQU Y#ESC_DEL = KV_INPOPRX;
      171     8201        %KV_INPOPR (TYP=VDHINPPRC, RED=, ID=KV_INPPRC_DELLFT, FNCID=ASCIIDEL);
      172     8325        %EQU Y#ESC_LFTPRN = KV_INPOPRX;
      173     8326        %KV_INPOPR (TYP=RSTPRM, RED=, PRMID=KV_PRMID_LOWERCASE, FNCID='(');
      174     8450        %EQU Y#ESC_RHTPRN = KV_INPOPRX;
      175     8451        %KV_INPOPR (TYP=SETPRM, RED=, PRMID=KV_PRMID_LOWERCASE, FNCID="')'");
      176     8575        %EQU Y#ESC_AST = KV_INPOPRX;
      177     8576        %KV_INPOPR (TYP=VDHINPPRC, RED=, ID=KV_INPPRC_SAVEDTWND, FNCID='*');
      178     8700        %EQU Y#ESC_CLN = KV_INPOPRX;
      179     8701        %KV_INPOPR (TYP=VDHINPPRC, RED=, ID=KV_INPPRC_RCLEDTWND, FNCID=':');
      180     8825        %KV_FNCID (ID="';'", INPOPRX=Y#ASCII_CR);
      181     8912        %EQU Y#ESC_LFTARW = KV_INPOPRX;
      182     8913        %KV_INPOPR (TYP=VDHINPPRC, RED=, ID=KV_INPPRC_SETINSLOWX, FNCID='<');
      183     9037        %EQU Y#ESC_RHTARW = KV_INPOPRX;
      184     9038        %KV_INPOPR (TYP=VDHINPPRC, RED=, ID=KV_INPPRC_SETINSHI_X, FNCID='>');
      185     9162        %EQU Y#ESC_A = KV_INPOPRX;
      186     9163        %KV_INPOPR (TYP=TGLPRM, IMD=, PRMID=KV_PRMID_PAGEHALT, FNCID='A');
      187     9287        %EQU Y#ESC_B = KV_INPOPRX;
      188     9288        %KV_INPOPR (TYP=VDHINPPRC, IMD=, ID=KV_INPPRC_BRK, CHN=, FNCID='B');
      189     9412        %KV_INPOPR (TYP=MSC, IMD=, DLTINP=, ABRRED=);
      190     9450        %KV_FNCID (INPOPRX=Y#ESC_CR,                                 ID='C');
      191     9537        %KV_INPOPR (TYP=SETPRM, RED=, PRMID=KV_PRMID_WRDWRPCLM, FNCID='^');
PL6.E3A0      #001=KZ_3270INPFNC_D File=KZ_3270INPFNC_D.:E05TSI                  WED 07/30/97 03:04 Page:29
      192     9661        %EQU Y#ESC_D = KV_INPOPRX;
      193     9662        %KV_INPOPR (TYP=VDHINPPRC, RED=, ID=KV_INPPRC_COPSSNEDTBFR, FNCID='D');
      194     9786        %EQU Y#ESC_E = KV_INPOPRX;
      195     9787        %KV_INPOPR (TYP=TGLPRM, RED=, PRMID=KV_PRMID_DISPINPUT, FNCID='E');
      196     9911        %EQU Y#ESC_F = KV_INPOPRX;
      197     9912        %KV_INPOPR (TYP=ACTRED, RED=, CMPCOD=KV_CMPCOD_EOF, FNCID='F');
      198    10036        %EQU Y#ESC_G = KV_INPOPRX;
      199    10037        %KV_INPOPR (TYP=VDHINPPRC, IMD=, ID=KV_INPPRC_OTPPRTID, FNCID='G');
      200    10161        %EQU Y#ESC_I = KV_INPOPRX;
      201    10162        %KV_INPOPR (TYP=SETPRM, RED=, PRMID=KV_PRMID_AUTTABCLM, FNCID='I');
      202    10286        %EQU Y#ESC_J = KV_INPOPRX;
      203    10287        %KV_INPOPR (TYP=VDHINPPRC, RED=, ID=KV_INPPRC_TGLINSMOD, FNCID='J');
      204    10411        %EQU Y#ESC_K = KV_INPOPRX;
      205    10412        %KV_INPOPR (TYP=VDHINPPRC, RED=, ID=KV_INPPRC_DLTTO_END, FNCID='K');
      206    10536        %EQU Y#ESC_L = KV_INPOPRX;
      207    10537        %KV_INPOPR (TYP=VDHINPPRC, RED=, ID=KV_INPPRC_PAGBRK, FNCID='L');
      208    10661        %EQU Y#ESC_N = KV_INPOPRX;
      209    10662        %KV_INPOPR (TYP=VDHINPPRC, RED=, ID=KV_INPPRC_PSTENDRED, FNCID='N');
      210    10786        %EQU Y#ESC_P = KV_INPOPRX;
      211    10787        %KV_INPOPR (TYP=TGLPRM, IMD=, PRMID=KV_PRMID_WRPPAG, FNCID='P');
      212    10911        %EQU Y#ESC_Q = KV_INPOPRX;
      213    10912        %KV_INPOPR (TYP=VDHINPPRC, IMD=, ID=KV_INPPRC_OTPSTT, FNCID='Q');
      214    11036        %EQU Y#ESC_R = KV_INPOPRX;
      215    11037        %KV_INPOPR (TYP=VDHINPPRC, RED=, ID=KV_INPPRC_RSTINSMOD, FNCID='R');
      216    11161        %KV_FNCID (INPOPRX=Y#ESC_STX,                              ID='S');
      217    11248        %EQU Y#ESC_T = KV_INPOPRX;
      218    11249        %KV_INPOPR (TYP=VDHINPPRC, RED=, ID=KV_INPPRC_INCINPFLDSIZ, FNCID='T');
      219    11373        %EQU Y#ESC_U = KV_INPOPRX;
      220    11374        %KV_INPOPR (TYP=TGLPRM, RED=, PRMID=KV_PRMID_UPPERCASE, FNCID='U');
      221    11498        %EQU Y#ESC_V = KV_INPOPRX;
      222    11499        %KV_INPOPR (TYP=FLWON, IMD=, RED=, FNCID='V');
      223    11623        %KV_INPOPR (TYP=VDHINPPRC, RED=, ID=KV_INPPRC_FNDPSTCHR);
      224    11661        %EQU Y#ESC_W = KV_INPOPRX;
      225    11662        %KV_INPOPR (TYP=TGLPRM, IMD=, PRMID=KV_PRMID_OUTPUTDISCARD, CHN=, FNCID='W');
      226    11786        %KV_INPOPR (TYP=MSC, IMD=, DLTOTP=);
      227    11824        %EQU Y#ESC_X = KV_INPOPRX;
      228    11825        %KV_INPOPR (TYP=MSC, RED=, DLTRED=, FNCID='X');
PL6.E3A0      #001=KZ_3270INPFNC_D File=KZ_3270INPFNC_D.:E05TSI                  WED 07/30/97 03:04 Page:30
      229    11949        %EQU Y#ESC_Y = KV_INPOPRX;
      230    11950        %KV_INPOPR (TYP=VDHINPPRC, IMD=, ID=KV_INPPRC_MNTATN, CHN=, FNCID='Y');
      231    12074        %KV_INPOPR (TYP=MSC, IMD=, DLTINP=, ABRRED=);
      232    12112        %EJECT;
PL6.E3A0      #001=KZ_3270INPFNC_D File=KZ_3270INPFNC_D.:E05TSI                  WED 07/30/97 03:04 Page:31
      233    12113        /*
      234    12114           INPOPRs for escapes with a count in the middle.
      235    12115        */
      236    12116        %KV_INPOPR (TYP=SETPRM, IMD=, PRMID=0, FNCID='S', FNCTYP=SCNESC);
      237    12240        %KV_INPOPR (TYP=RSTPRM, IMD=, PRMID=0, FNCID='R');
      238    12364        %KV_INPOPR (TYP=TGLPRM, IMD=, PRMID=0, FNCID='T');
      239    12488        %KV_FNCID (ID='C', INPOPRX=Y#ASCII_DC2);
      240    12575        %KV_FNCID (ID='D', INPOPRX=Y#ASCII_BS);
      241    12662        %KV_FNCID (ID='I', INPOPRX=Y#ASCII_HT);
      242    12749        %EQU Y#ESC_PRD = KV_INPOPRX;
      243    12750        %KV_INPOPR (TYP=VDHINPPRC, IMD=, ID=KV_INPPRC_NXTSSN, FNCID='.');
      244    12874        %EJECT;
PL6.E3A0      #001=KZ_3270INPFNC_D File=KZ_3270INPFNC_D.:E05TSI                  WED 07/30/97 03:04 Page:32
      245    12875        /*
      246    12876           INPOPRs for function keys
      247    12877        */
      248    12878        %EQU Y#CLEAR = KV_INPOPRX;
      249    12879        %KV_INPOPR (TYP=VDHINPPRC, IMD=,  ID=KV_INPPRC_RE_TYPFRM, FNCID=KV_INPFNCKEY_CLEAR,
      250    12880                    FNCTYP=FNCKEY);
      251    13004        %KV_INPOPR (TYP=VDHINPPRC, IMD=, ID=KV_INPPRC_BLKTYPAHD, FNCID=KV_INPFNCKEY_PA1);
      252    13128        %KV_INPOPR (TYP=VDHINPPRC, IMD=, ID=KV_INPPRC_BRK, CHN=, FNCID=KV_INPFNCKEY_PA2);
      253    13252        %KV_INPOPR (TYP=MSC, IMD=, DLTINP=, DLTOTP=, DLTRED=, ABRRED=);
      254    13290        %KV_FNCID (ID=KV_INPFNCKEY_F0+1, INPOPRX=Y#ESC_D);
      255    13377        %KV_FNCID (ID=KV_INPFNCKEY_F0+2, INPOPRX=Y#ESC_EOT);
      256    13464        %KV_FNCID (ID=KV_INPFNCKEY_F0+3, INPOPRX=Y#ASCII_HT);
      257    13551        %KV_FNCID (ID=KV_INPFNCKEY_F0+4, INPOPRX=Y#ASCII_LF);
      258    13638        %KV_FNCID (ID=KV_INPFNCKEY_F0+5, INPOPRX=Y#ASCII_EOT);
      259    13725        %KV_FNCID (ID=KV_INPFNCKEY_F0+7, INPOPRX=Y#ESC_Q);
      260    13812        %KV_FNCID (ID=KV_INPFNCKEY_F0+8, INPOPRX=Y#ESC_W);
      261    13899        %KV_FNCID (ID=KV_INPFNCKEY_F0+9, INPOPRX=Y#ASCII_CAN);
      262    13986        %KV_FNCID (ID=KV_INPFNCKEY_F0+10, INPOPRX=Y#ESC_B);
      263    14073        %KV_FNCID (ID=KV_INPFNCKEY_F0+11, INPOPRX=Y#ESC_Y);
      264    14160        %KV_FNCID (ID=KV_INPFNCKEY_F0+12, INPOPRX=Y#ASCII_EM);
      265    14247        /* Duplicate those for 13-24, just for kicks. */
      266    14248        %KV_FNCID (ID=KV_INPFNCKEY_F12+1, INPOPRX=Y#ESC_D);
      267    14335        %KV_FNCID (ID=KV_INPFNCKEY_F12+2, INPOPRX=Y#ESC_EOT);
      268    14422        %KV_FNCID (ID=KV_INPFNCKEY_F12+3, INPOPRX=Y#ASCII_HT);
      269    14509        %KV_FNCID (ID=KV_INPFNCKEY_F12+4, INPOPRX=Y#ASCII_LF);
      270    14596        %KV_FNCID (ID=KV_INPFNCKEY_F12+5, INPOPRX=Y#ASCII_EOT);
      271    14683        %KV_FNCID (ID=KV_INPFNCKEY_F12+7, INPOPRX=Y#ESC_Q);
      272    14770        %KV_FNCID (ID=KV_INPFNCKEY_F12+8, INPOPRX=Y#ESC_W);
      273    14857        %KV_FNCID (ID=KV_INPFNCKEY_F12+9, INPOPRX=Y#ASCII_CAN);
      274    14944        %KV_FNCID (ID=KV_INPFNCKEY_F12+10, INPOPRX=Y#ESC_B);
      275    15031        %KV_FNCID (ID=KV_INPFNCKEY_F12+11, INPOPRX=Y#ESC_Y);
      276    15118        %KV_FNCID (ID=KV_INPFNCKEY_F12+12, INPOPRX=Y#ASCII_EM);
      277    15205        /*
      278    15206           Null input function table, for use as the default system
      279    15207           and user input function tables for 3270.  The system table
      280    15208           will always be set to some other system input function table
      281    15209           during the connect, as 3270 always specifies a system input
PL6.E3A0      #001=KZ_3270INPFNC_D File=KZ_3270INPFNC_D.:E05TSI                  WED 07/30/97 03:04 Page:33
      282    15210           function table name in the profile applied during connect.
      283    15211        */
      284    15212        %KV$INPFNCTBL (NAME=NUL, NAM='NO', STCLASS=CONSTANT,
      285    15213                       LNK=KZ_INPFNC.FRM1, LAST=",", FNCID_SAV=Y#FNCID_NONE);
      286    15297        %EJECT;
PL6.E3A0      #001=KZ_3270INPFNC_D File=KZ_3270INPFNC_D.:E05TSI                  WED 07/30/97 03:04 Page:34
      287    15298        /*
      288    15299           PA1     do type-ahead, enable comgroup read
      289    15300           PA2     BREAK
      290    15301           PF1     ESC-D
      291    15302           PF2     ESC-EOT
      292    15303           PF3     ht
      293    15304           PF4     LF
      294    15305           PF5     EOT
      295    15306           PF6     ESC-R (no operation)
      296    15307           PF7     ESC-Q
      297    15308           PF8     ESC-W
      298    15309           PF9     CAN
      299    15310           PF10    ESC-B
      300    15311           PF11    ESC-Y
      301    15312           PF12    EM
      302    15313           ENTER   CR
      303    15314           CLEAR   FF
      304    15315        */
      305    15316        %KV$INPFNCTBL (NAME=CP5, NAM='CP5', PRMINTCHR1=ASCIIESC, STCLASS=CONSTANT,
      306    15317                       SCNINTCHR1=ASCIIESC, ESCCNTOK=S,
      307    15318                    LNK=KZ_INPFNC.NUL, LAST=",");
      308    15402        %EJECT;
PL6.E3A0      #001=KZ_3270INPFNC_D File=KZ_3270INPFNC_D.:E05TSI                  WED 07/30/97 03:04 Page:35
      309    15403        /*
      310    15404           Input function identifiers declaring system primary
      311    15405           escape sequences for the CP-5 compatible table.
      312    15406           NOTE:  The 3270 input translate table translates FM (field
      313    15407           mark) into ASCII ESC.
      314    15408        */
      315    15409        %KV_FNCID (ID=ASCIIVT, INPOPRX=Y#ESC_VT, TYP=PRMESC);
      316    15496        %KV_FNCID (ID=ASCIICR, INPOPRX=Y#ESC_CR);
      317    15583        %KV_FNCID (ID=ASCIIESC, INPOPRX=Y#ESC_Y);
      318    15670        %KV_FNCID (ID='(', INPOPRX=Y#ESC_LFTPRN);
      319    15757        %KV_FNCID (ID="')'", INPOPRX=Y#ESC_RHTPRN);
      320    15844        %KV_FNCID (ID='*', INPOPRX=Y#ESC_AST);
      321    15931        %KV_FNCID (ID=':', INPOPRX=Y#ESC_CLN);
      322    16018        %KV_FNCID (ID='<', INPOPRX=Y#ESC_LFTARW);
      323    16105        %KV_FNCID (ID='>', INPOPRX=Y#ESC_RHTARW);
      324    16192        %KV_FNCID (ID='C', INPOPRX=Y#ESC_CR);
      325    16279        %KV_FNCID (ID='D', INPOPRX=Y#ESC_EOT);
      326    16366        %KV_FNCID (ID='G', INPOPRX=Y#ESC_G);
      327    16453        %KV_FNCID (ID='J', INPOPRX=Y#ESC_J);
      328    16540        %KV_FNCID (ID='K', INPOPRX=Y#ESC_K);
      329    16627        %KV_FNCID (ID='N', INPOPRX=Y#ESC_N);
      330    16714        %KV_FNCID (ID='Q', INPOPRX=Y#ESC_Q);
      331    16801        %KV_FNCID (ID='R', INPOPRX=Y#ESC_R);
      332    16888        %KV_FNCID (ID='U', INPOPRX=Y#ESC_U);
      333    16975        %KV_FNCID (ID='V', INPOPRX=Y#ESC_V);
      334    17062        %KV_FNCID (ID='X', INPOPRX=Y#ESC_X);
      335    17149        %KV_FNCID (ID='Y', INPOPRX=Y#ESC_Y);
      336    17236        %EJECT;
PL6.E3A0      #001=KZ_3270INPFNC_D File=KZ_3270INPFNC_D.:E05TSI                  WED 07/30/97 03:04 Page:36
      337    17237        /*
      338    17238           INPOPRs for escapes with a count in the middle.
      339    17239        */
      340    17240        %KV_FNCID (ID='I', INPOPRX=Y#ASCII_HT, TYP=SCNESC);
      341    17327        %KV_FNCID (ID='.', INPOPRX=Y#ESC_PRD);
      342    17414        %EJECT;
PL6.E3A0      #001=KZ_3270INPFNC_D File=KZ_3270INPFNC_D.:E05TSI                  WED 07/30/97 03:04 Page:37
      343    17415        /*
      344    17416           Input function identifiers declaring special characters (SPCCHRs).
      345    17417        */
      346    17418        %KV_FNCID (ID=ASCIIBS, INPOPRX=Y#ASCII_BS, TYP=SPCCHR);
      347    17505        %KV_FNCID (ID=ASCIIHT, INPOPRX=Y#ASCII_HT);
      348    17592        %EQU Y#FRM_LF = KV_INPOPRX;
      349    17593        %KV_INPOPR (TYP=ACTRED, IMD=, CMPCOD=KV_CMPCOD_NRM, FNCID=ASCIILF);
      350    17717        %KV_FNCID (ID=ASCIICR, INPOPRX=Y#FRM_LF);
      351    17804        %KV_FNCID (ID=KZ#3270ASC_SBA, INPOPRX=Y#ASCII_SBA);
      352    17891        %KV_FNCID (ID=ASCIIDC2, INPOPRX=Y#ASCII_DC2);
      353    17978        %EQU Y#FRM_EM = KV_INPOPRX;
      354    17979        %KV_INPOPR (TYP=VDHINPPRC, IMD=, ID=KV_INPPRC_MNTATN, FNCID=ASCIIEM);
      355    18103        %EQU Y#FRM_CAN = KV_INPOPRX;
      356    18104        %KV_INPOPR (TYP=MSC, IMD=, DLTINP=, DLTRED=, FNCID=ASCIICAN);
      357    18228        %KV_FNCID (ID=ASCIIESC, INPOPRX=Y#ASCII_ESC);
      358    18315        %KV_FNCID (ID=ASCIIDEL, INPOPRX=Y#ASCII_DEL);
      359    18402        /*
      360    18403           Input function IDs for 3270 function keys.
      361    18404        */
      362    18405        %KV_FNCID (ID=KV_INPFNCKEY_ENTER, INPOPRX=Y#FRM_LF, TYP=FNCKEY);
      363    18492        %KV_FNCID (ID=KV_INPFNCKEY_F0+1, INPOPRX=Y#ESC_EOT);
      364    18579        %KV_FNCID (ID=KV_INPFNCKEY_F0+7, INPOPRX=Y#ESC_Q);
      365    18666        %KV_FNCID (ID=KV_INPFNCKEY_F0+9, INPOPRX=Y#FRM_CAN);
      366    18753        %KV_FNCID (ID=KV_INPFNCKEY_F0+11, INPOPRX=Y#ESC_Y);
      367    18840        %KV_FNCID (ID=KV_INPFNCKEY_F0+12, INPOPRX=Y#FRM_EM);
      368    18927        /* Duplicate those for 13-24, just for kicks. */
      369    18928        %KV_FNCID (ID=KV_INPFNCKEY_F12+1, INPOPRX=Y#ESC_EOT);
      370    19015        %KV_FNCID (ID=KV_INPFNCKEY_F12+7, INPOPRX=Y#ESC_Q);
      371    19102        %KV_FNCID (ID=KV_INPFNCKEY_F12+9, INPOPRX=Y#FRM_CAN);
      372    19189        %KV_FNCID (ID=KV_INPFNCKEY_F12+11, INPOPRX=Y#ESC_Y);
      373    19276        %KV_FNCID (ID=KV_INPFNCKEY_F12+12, INPOPRX=Y#FRM_EM);
      374    19363        %KV_FNCID (ID=KV_INPFNCKEY_CLEAR, INPOPRX=Y#CLEAR);
      375    19450        /*
      376    19451           PA1     no operation
      377    19452           PA2     no operation
      378    19453           PF1     ESC-D
      379    19454           PF2     no operation
PL6.E3A0      #001=KZ_3270INPFNC_D File=KZ_3270INPFNC_D.:E05TSI                  WED 07/30/97 03:04 Page:38
      380    19455           PF3     no operation
      381    19456           PF4     no operation
      382    19457           PF5     no operation
      383    19458           PF6     no operation
      384    19459           PF7     ESC-Q
      385    19460           PF8     no operation
      386    19461           PF9     CAN
      387    19462           PF10    no operation
      388    19463           PF11    ESC-Y
      389    19464           PF12    EM
      390    19465           ENTER   end of form input
      391    19466           CLEAR   repaint form
      392    19467        */
      393    19468        %KV$INPFNCTBL (NAME=FRM1, NAM='FRM1', PRMINTCHR1=ASCIIESC, STCLASS=CONSTANT,
      394    19469                       SCNINTCHR1=ASCIIESC, ESCCNTOK=S);
      395    19553    1   END;

PL6.E3A0      #001=KZ_3270INPFNC_D File=KZ_3270INPFNC_D.:E05TSI                  WED 07/30/97 03:04 Page:39
--  Include file information  --

   KZ_3270_C.:E05TOU  is referenced.
   KV_PRMID_E.:E05TOU  is referenced.
   KV_GLBCNS_E.:E05TOU  is referenced.
   KV_ASCCHR_E.:E05TOU  is referenced.
   KV$INPFNC.:E05TOU  is referenced.
   KV$GLB.:E05TOU  is referenced.
      No diagnostics issued in procedure KZ_3270INPFNC_D.
PL6.E3A0      #001=KZ_3270INPFNC_D File=KZ_3270INPFNC_D.:E05TSI                  WED 07/30/97 03:04 Page:40

 **** Variables and constants ****

  ****  Section 000 RoData KZ_3270INPFNC_D

  ****  Scalars and arrays  ****
HexLoc.c.b A Datatyp(siz) R M Lvl/name                 HexLoc.c.b A Datatyp(siz) R M Lvl/name

    5C-0-0/w STRC(6576)  r     1 KZ_INPFNC


   No code generated for procedure KZ_3270INPFNC_D .
   Procedure KZ_3270INPFNC_D requires 4 words of local(AUTO) storage.

    No errors detected in file KZ_3270INPFNC_D.:E05TSI    .
PL6.E3A0      #001=KZ_3270INPFNC_D File=KZ_3270INPFNC_D.:E05TSI                  WED 07/30/97 03:04 Page:41
          *** CROSS REFERENCE LISTING ***
**     DENOTES     IDENTIFIER DEFINITION
<<                 IDENTIFIER'S VALUE SET
>>                 IDENTIFIER'S VALUE USED
<>                 IDENTIFIER SET AND/OR USED
--                 IDENTIFIER REFERENCED
PL6.E3A0      #001=KZ_3270INPFNC_D File=KZ_3270INPFNC_D.:E05TSI                  WED 07/30/97 03:04 Page:42
          MINI XREF LISTING

KZ_INPFNC.CP5
     15368**DCL      2158--DCLINIT
KZ_INPFNC.FRM1
     19519**DCL     15265--DCLINIT
KZ_INPFNC.NUL
     15263**DCL     15370--DCLINIT
