VERSION E05

PL6.E3A0      #001=KZ_3270STBLS_D File=KZ_3270STBLS_D.:E05TSI                    WED 07/30/97 03:04 Page:1
        1        1        /*M*     KZ_3270STBLS_D - State table definitions for 3270            */
        2        2        /*T***********************************************************/
        3        3        /*T*                                                         */
        4        4        /*T* Copyright (c) Bull HN Information Systems Inc., 1997    */
        5        5        /*T*                                                         */
        6        6        /*T***********************************************************/
        7        7
        8        8        /*P*     NAME:     KZ_3270STBLS_D
        9        9                 PURPOSE:  KZ_3270STBLS_D provides the state table definitions
       10       10                           for 3270.                                       */
       11       11
       12       12        KZ_3270STBLS_D: PROC;
       13       13
       14       14        %INCLUDE KZ_3270S_C;
       15      668        %INCLUDE KZ_3270M_C;
       16     1525
       17     1526    1   DCL KZT$3270STT ENTRY(2) OPTIONAL;
       18     1527    1   DCL KZT$3270IO ENTRY(2) ALTRET OPTIONAL;
       19     1528    1   DCL KZV$3270DV ENTRY(2) ALTRET OPTIONAL;
       20     1529    1   DCL KZT$3270 ENTRY(1) ALTRET OPTIONAL;
       21     1530
       22     1531    1   DCL KZ_VDHSTT$ PTR STATIC SYMDEF INIT (ADDR(NIL));
       23     1532    1   DCL KZT_USRPRM$ PTR STATIC SYMDEF INIT (ADDR(NIL));
       24     1533
       25     1534    1   DCL KZT_ORDERS@ EPTR STATIC SYMDEF INIT(ENTADDR(NIL));
       26     1535    1   DCL KZT_GO@ EPTR STATIC SYMDEF INIT(ENTADDR(NIL));
       27     1536    1   DCL KZT_CNCDSC@ EPTR STATIC SYMDEF INIT(ENTADDR(NIL));
       28     1537
       29     1538            %KZ_3270S_HDR       ( STCLASS = "STATIC SYMDEF" ,
       30     1539                                  STTBFR = "NIL" );
       31     1563
       32     1564            %KZ_3270SLV_MAP     ( STCLASS = "CONSTANT SYMDEF" );
       33     1612
       34     1613            %KZ_3270SLV_STBL    ( STCLASS = "CONSTANT SYMDEF" );
       35     2110
       36     2111            %KZ_3270M_HDR       ( STCLASS = "STATIC SYMDEF" ,
       37     2112                                  STTBFR = "NIL" );
PL6.E3A0      #001=KZ_3270STBLS_D File=KZ_3270STBLS_D.:E05TSI                    WED 07/30/97 03:04 Page:2
       38     2136
       39     2137            %KZ_3270MST_MAP     ( STCLASS = "CONSTANT SYMDEF" );
       40     2185
       41     2186            %KZ_3270MST_STBL    ( STCLASS = "CONSTANT SYMDEF" );
       42     2879
       43     2880    1   END KZ_3270STBLS_D;

PL6.E3A0      #001=KZ_3270STBLS_D File=KZ_3270STBLS_D.:E05TSI                    WED 07/30/97 03:04 Page:3
--  Include file information  --

   KZ_3270M_C.:E05TOU  is referenced.
   KZ_3270S_C.:E05TOU  is referenced.
      No diagnostics issued in procedure KZ_3270STBLS_D.

   No code generated for procedure KZ_3270STBLS_D .
   Procedure KZ_3270STBLS_D requires 4 words of local(AUTO) storage.

    No errors detected in file KZ_3270STBLS_D.:E05TSI    .

PL6.E3A0      #001=KZ_3270STBLS_D File=KZ_3270STBLS_D.:E05TSI                    WED 07/30/97 03:04 Page:4

 Object Unit name= KZ_3270STBLS_D                             File name= KZ_3270STBLS_D.:E05TOU
 UTS= JUL 30 '97 03:04:59.56 WED                              Compiler= PL-6/E31         Sev=      00
 SharedLib= :SHARED_LCP6_SYSTEM                               Alt SharedLib=


    ****  Control sections  ****

 Sect   Type Bound  Init  Size HexSiz  Section name
    0   Data  even  none    44     2C  KZ_3270STBLS_D
    1  RoData even  UTS   1190    4A6  KZ_3270STBLS_D
    2   Proc  even  none     0      0  KZ_3270STBLS_D

    ****  Entry defs  ****

                              Check   Calling
                             calling  sequence
  Sect HexLoc Primary Altret sequence   type   Parms  Name
     2      0   yes            yes     ~proc       0  KZ_3270STBLS_D

  ****  Data defs  ****

 Sect HexLoc  Name                           Sect HexLoc  Name
    0      0  KZ_VDHSTT$                         0      2  KZT_USRPRM$
    0      4  KZT_ORDERS@                        0      6  KZT_GO@
    0      8  KZT_CNCDSC@                        0      A  KZ_3270S_HDR
    1      0  KZ_3270SLV_MAP                     1     12  KZ_3270SLV_STBL
    0     1B  KZ_3270M_HDR                       1    1F1  KZ_3270MST_MAP
    1    203  KZ_3270MST_STBL

  ****  Entry refs  ****

         Check        Calling
        calling       sequence
Altret sequence SRef   type   Args  Name
 yes     yes    yes    Std       2 KZT$3270IO
 yes     yes    yes    Std       2 KZV$3270DV
         yes    yes    Std       2 KZT$3270STT
PL6.E3A0      #001=KZ_3270STBLS_D File=KZ_3270STBLS_D.:E05TSI                    WED 07/30/97 03:04 Page:5

  ****  Data refs  ****

  Flags:  r = read only, s = secondary
Flgs Name                             Flgs Name                             Flgs Name
r    G$ROS$
PL6.E3A0      #001=KZ_3270STBLS_D File=KZ_3270STBLS_D.:E05TSI                    WED 07/30/97 03:04 Page:6

        1        1        /*M*     KZ_3270STBLS_D - State table definitions for 3270            */
        2        2        /*T***********************************************************/
        3        3        /*T*                                                         */
        4        4        /*T* Copyright (c) Bull HN Information Systems Inc., 1997    */
        5        5        /*T*                                                         */
        6        6        /*T***********************************************************/
        7        7
        8        8        /*P*     NAME:     KZ_3270STBLS_D
        9        9                 PURPOSE:  KZ_3270STBLS_D provides the state table definitions
       10       10                           for 3270.                                       */
       11       11
       12       12        KZ_3270STBLS_D: PROC;
       13       13
       14       14        %INCLUDE KZ_3270S_C;
       15      668        %INCLUDE KZ_3270M_C;
       16     1525
       17     1526    1   DCL KZT$3270STT ENTRY(2) OPTIONAL;
       18     1527    1   DCL KZT$3270IO ENTRY(2) ALTRET OPTIONAL;
       19     1528    1   DCL KZV$3270DV ENTRY(2) ALTRET OPTIONAL;
       20     1529    1   DCL KZT$3270 ENTRY(1) ALTRET OPTIONAL;
       21     1530
       22     1531    1   DCL KZ_VDHSTT$ PTR STATIC SYMDEF INIT (ADDR(NIL));
       23     1532    1   DCL KZT_USRPRM$ PTR STATIC SYMDEF INIT (ADDR(NIL));
       24     1533
       25     1534    1   DCL KZT_ORDERS@ EPTR STATIC SYMDEF INIT(ENTADDR(NIL));
       26     1535    1   DCL KZT_GO@ EPTR STATIC SYMDEF INIT(ENTADDR(NIL));
       27     1536    1   DCL KZT_CNCDSC@ EPTR STATIC SYMDEF INIT(ENTADDR(NIL));
       28     1537
       29     1538            %KZ_3270S_HDR       ( STCLASS = "STATIC SYMDEF" ,
       30     1539                                  STTBFR = "NIL" );
       31     1563
       32     1564            %KZ_3270SLV_MAP     ( STCLASS = "CONSTANT SYMDEF" );
       33     1612
       34     1613            %KZ_3270SLV_STBL    ( STCLASS = "CONSTANT SYMDEF" );
       35     2110
       36     2111            %KZ_3270M_HDR       ( STCLASS = "STATIC SYMDEF" ,
       37     2112                                  STTBFR = "NIL" );
PL6.E3A0      #001=KZ_3270STBLS_D File=KZ_3270STBLS_D.:E05TSI                    WED 07/30/97 03:04 Page:7
       38     2136
       39     2137            %KZ_3270MST_MAP     ( STCLASS = "CONSTANT SYMDEF" );
       40     2185
       41     2186            %KZ_3270MST_STBL    ( STCLASS = "CONSTANT SYMDEF" );
       42     2879
       43     2880    1   END KZ_3270STBLS_D;

PL6.E3A0      #001=KZ_3270STBLS_D File=KZ_3270STBLS_D.:E05TSI                    WED 07/30/97 03:04 Page:8
--  Include file information  --

   KZ_3270M_C.:E05TOU  is referenced.
   KZ_3270S_C.:E05TOU  is referenced.
      No diagnostics issued in procedure KZ_3270STBLS_D.
PL6.E3A0      #001=KZ_3270STBLS_D File=KZ_3270STBLS_D.:E05TSI                    WED 07/30/97 03:04 Page:9

 **** Variables and constants ****

  ****  Section 000  Data  KZ_3270STBLS_D

  ****  Scalars and arrays  ****
HexLoc.c.b A Datatyp(siz) R M Lvl/name                 HexLoc.c.b A Datatyp(siz) R M Lvl/name

     8-0-0/w EPTR        r     1 KZT_CNCDSC@                6-0-0/w EPTR        r     1 KZT_GO@
     4-0-0/w EPTR        r     1 KZT_ORDERS@

  ****  Section 001 RoData KZ_3270STBLS_D

  ****  Scalars and arrays  ****
HexLoc.c.b A Datatyp(siz) R M Lvl/name                 HexLoc.c.b A Datatyp(siz) R M Lvl/name

   1F1-0-0/w STRC(280)   r     1 KZ_3270MST_MAP           203-0-0/w STRC(10800) r     1 KZ_3270MST_STBL
     0-0-0/w STRC(280)   r     1 KZ_3270SLV_MAP            12-0-0/w STRC(7664)  r     1 KZ_3270SLV_STBL


   No code generated for procedure KZ_3270STBLS_D .
   Procedure KZ_3270STBLS_D requires 4 words of local(AUTO) storage.

    No errors detected in file KZ_3270STBLS_D.:E05TSI    .
PL6.E3A0      #001=KZ_3270STBLS_D File=KZ_3270STBLS_D.:E05TSI                    WED 07/30/97 03:04 Page:10
          *** CROSS REFERENCE LISTING ***
**     DENOTES     IDENTIFIER DEFINITION
<<                 IDENTIFIER'S VALUE SET
>>                 IDENTIFIER'S VALUE USED
<>                 IDENTIFIER SET AND/OR USED
--                 IDENTIFIER REFERENCED
PL6.E3A0      #001=KZ_3270STBLS_D File=KZ_3270STBLS_D.:E05TSI                    WED 07/30/97 03:04 Page:11
          MINI XREF LISTING

KZT$3270IO
      1527**DCL-ENT  1552--DCLINIT  2125--DCLINIT
KZT$3270STT
      1526**DCL-ENT  2127--DCLINIT
KZV$3270DV
      1528**DCL-ENT  1553--DCLINIT  2126--DCLINIT
KZ_3270MST_MAP
      2149**DCL      2131--DCLINIT
KZ_3270MST_STBL
      2198**DCL      2132--DCLINIT
KZ_3270MST_STBL.PL6ISDUMB
      2202**DCL      2875--REDEF
KZ_3270SLV_MAP
      1576**DCL      1558--DCLINIT
KZ_3270SLV_STBL
      1625**DCL      1559--DCLINIT
KZ_3270SLV_STBL.PL6ISDUMB
      1629**DCL      2106--REDEF
