VERSION E05

PL6.E3A0      #001=KZ_3270XLATE_D File=KZ_3270XLATE_D.:E05TSI                    WED 07/30/97 03:05 Page:1
        1        1        /*M* KZ_3270XLATE_D  TRANSLATE TABLES FOR 3270 DEVICES
        2        2        *T***********************************************************
        3        3        *T*                                                         *
        4        4        *T* COPYRIGHT, (C) HONEYWELL INFORMATION SYSTEMS INC., 1981 *
        5        5        *T*                                                         *
        6        6        *T***********************************************************
        7        7        */
        8        8        /*T***********************************************************/
        9        9        /*T*                                                         */
       10       10        /*T* Copyright (c) Bull HN Information Systems Inc., 1997    */
       11       11        /*T*                                                         */
       12       12        /*T***********************************************************/
       13       13        KZ_3270XLATE_D: PROC;
       14       14        %INCLUDE KV$INT;
       15      646        %INCLUDE KV$GLB;
       16     1065        %INCLUDE KV_ASCCHR_E;
       17     1202        %INCLUDE KV_EBCCHR_E;
       18     1311        %INCLUDE KV_TRNTBL_M;
       19     1646        %INCLUDE KV_GLBCNS_E;
       20     1987        %INCLUDE KZ_3270_C;
       21     2145        %KV_INPOPRX_E;
       22     2157        %KZ_3270_E;
       23     2285        %EQU OTPNXTTBL=KZ#3270OTPCTRCHR;
       24     2286        %EJECT;
PL6.E3A0      #001=KZ_3270XLATE_D File=KZ_3270XLATE_D.:E05TSI                    WED 07/30/97 03:05 Page:2
       25     2287        %KV_PRMOTPTRN(NAME=KZ_TRNOTP3270_1, DFLTRNCHR =EBCDICNMB);
       26     2348
       27     2349        %KV_PRMOTPTRN(FRSCHR='07'X,TRNCHR = KZ#3270OTPCTRCHR);
       28     2462        %KV_PRMOTPTRN(FRSCHR='08'X,TRNCHR = KZ#3270OTPCTRCHR);
       29     2575        %KV_PRMOTPTRN(FRSCHR='09'X,TRNCHR = KZ#3270OTPCTRCHR);
       30     2688        %KV_PRMOTPTRN(FRSCHR='0A'X,TRNCHR = KZ#3270OTPCTRCHR);
       31     2801        %KV_PRMOTPTRN(FRSCHR='0D'X,TRNCHR = KZ#3270OTPCTRCHR);
       32     2914        %KV_PRMOTPTRN(FRSCHR='1B'X,TRNCHR = EBCDICFLDMRK);
       33     3027        %KV_PRMOTPTRN(FRSCHR='20'X,TRNCHR = EBCDICSP);
       34     3140
       35     3141        %KV_PRMOTPTRN(FRSCHR="'21'X,'22'X,'23'X,'24'X,'25'X",
       36     3142          TRNCHR ="OTPNXTTBL,EBCDICDBLQOT,OTPNXTTBL,OTPNXTTBL,EBCDICPRC");
       37     3447        %KV_PRMOTPTRN(FRSCHR="'26'X,'27'X,'28'X,'29'X,'2A'X",
       38     3448         TRNCHR ="EBCDICAMP,EBCDICSNGQOT,EBCDICLFTPRN,EBCDICRHTPRN,EBCDICAST");
       39     3753        %KV_PRMOTPTRN(FRSCHR="'2B'X,'2C'X,'2D'X,'2E'X,'2F'X",
       40     3754          TRNCHR ="EBCDICPLS,EBCDICCOM,EBCDICHPH,EBCDICPRD,EBCDICSLS");
       41     4059
       42     4060        %KV_PRMOTPTRN(FRSCHR='01234',
       43     4061             TRNCHR ="EBCDIC0,EBCDIC1,EBCDIC2,EBCDIC3,EBCDIC4");
       44     4331        %KV_PRMOTPTRN(FRSCHR='56789',
       45     4332             TRNCHR ="EBCDIC5,EBCDIC6,EBCDIC7,EBCDIC8,EBCDIC9");
       46     4602
       47     4603        %KV_PRMOTPTRN(FRSCHR="'3A'X,'3B'X,'3C'X,'3D'X,'3E'X",
       48     4604          TRNCHR ="EBCDICCLN,EBCDICSEMCLN,EBCDICLFTARW,EBCDICEQL,EBCDICRHTARW");
       49     4909        %KV_PRMOTPTRN(FRSCHR="'3F'X,'40'X",
       50     4910          TRNCHR ="EBCDICQST,OTPNXTTBL");
       51     5071
       52     5072        %KV_PRMOTPTRN(FRSCHR='ABCDE',
       53     5073             TRNCHR ="EBCDICA,EBCDICB,EBCDICC,EBCDICD,EBCDICE");
       54     5343        %KV_PRMOTPTRN(FRSCHR='FGHIJ',
       55     5344             TRNCHR ="EBCDICF,EBCDICG,EBCDICH,EBCDICI,EBCDICJ");
       56     5614        %KV_PRMOTPTRN(FRSCHR='KLMNO',
       57     5615             TRNCHR ="EBCDICK,EBCDICL,EBCDICM,EBCDICN,EBCDICO");
       58     5885        %KV_PRMOTPTRN(FRSCHR='PQRST',
       59     5886             TRNCHR ="EBCDICP,EBCDICQ,EBCDICR,EBCDICS,EBCDICT");
       60     6156        %KV_PRMOTPTRN(FRSCHR='UVWXY',
       61     6157             TRNCHR ="EBCDICU,EBCDICV,EBCDICW,EBCDICX,EBCDICY");
PL6.E3A0      #001=KZ_3270XLATE_D File=KZ_3270XLATE_D.:E05TSI                    WED 07/30/97 03:05 Page:3
       62     6427        %KV_PRMOTPTRN(FRSCHR='Z',TRNCHR = EBCDICZ);
       63     6533
       64     6534        %KV_PRMOTPTRN(FRSCHR='5B'X,TRNCHR = KZ#3270OTPCTRCHR);
       65     6647        %KV_PRMOTPTRN(FRSCHR='5C'X,TRNCHR = KZ#3270OTPCTRCHR);
       66     6760        %KV_PRMOTPTRN(FRSCHR='5D'X,TRNCHR = KZ#3270OTPCTRCHR);
       67     6873        %KV_PRMOTPTRN(FRSCHR='5E'X,TRNCHR = KZ#3270OTPCTRCHR);
       68     6986        %KV_PRMOTPTRN(FRSCHR='5F'X,TRNCHR = EBCDICUNDSCR);
       69     7099        %KV_PRMOTPTRN(FRSCHR='60'X,TRNCHR = KZ#3270OTPCTRCHR);
       70     7212
       71     7213        %KV_PRMOTPTRN(FRSCHR='abcde',
       72     7214             TRNCHR ="EBCDICLCA,EBCDICLCB,EBCDICLCC,EBCDICLCD,EBCDICLCE");
       73     7484        %KV_PRMOTPTRN(FRSCHR='fghij',
       74     7485             TRNCHR ="EBCDICLCF,EBCDICLCG,EBCDICLCH,EBCDICLCI,EBCDICLCJ");
       75     7755        %KV_PRMOTPTRN(FRSCHR='klmno',
       76     7756             TRNCHR ="EBCDICLCK,EBCDICLCL,EBCDICLCM,EBCDICLCN,EBCDICLCO");
       77     8026        %KV_PRMOTPTRN(FRSCHR='pqrst',
       78     8027             TRNCHR ="EBCDICLCP,EBCDICLCQ,EBCDICLCR,EBCDICLCS,EBCDICLCT");
       79     8297        %KV_PRMOTPTRN(FRSCHR='uvwxy',
       80     8298             TRNCHR ="EBCDICLCU,EBCDICLCV,EBCDICLCW,EBCDICLCX,EBCDICLCY");
       81     8568        %KV_PRMOTPTRN(FRSCHR='z',TRNCHR = EBCDICLCZ);
       82     8674
       83     8675        %KV_PRMOTPTRN(FRSCHR='7B'X,TRNCHR = KZ#3270OTPCTRCHR);
       84     8788        %KV_PRMOTPTRN(FRSCHR='7C'X,TRNCHR = KZ#3270OTPCTRCHR);
       85     8901        %KV_PRMOTPTRN(FRSCHR='7D'X,TRNCHR = KZ#3270OTPCTRCHR);
       86     9014        %KV_PRMOTPTRN(FRSCHR='7E'X,TRNCHR = KZ#3270OTPCTRCHR,
       87     9015          LAST='YES');
       88     9128        %EJECT;
PL6.E3A0      #001=KZ_3270XLATE_D File=KZ_3270XLATE_D.:E05TSI                    WED 07/30/97 03:05 Page:4
       89     9129        %KV_SCNOTPTRN(NAME=KZ_TRNOTP3270_2);
       90     9238
       91     9239        %KV_SCNOTPTRN(INPCHR='07'X,TYPE = EXTTRN);
       92     9366        %KV_SCNOTPTRN(INPCHR='08'X,TYPE = OTPFNC_BS);
       93     9493        %KV_SCNOTPTRN(INPCHR='09'X,TYPE = OTPFNC_HT);
       94     9620        %KV_SCNOTPTRN(INPCHR='0A'X,TYPE = OTPFNC_LF);
       95     9747        %KV_SCNOTPTRN(INPCHR='0D'X,TYPE = OTPFNC_CR);
       96     9874        %KV_SCNOTPTRN(INPCHR='21'X,TRNCHR = EBCDICEXCPNT);
       97    10019        %KV_SCNOTPTRN(INPCHR='23'X,TRNCHR = EBCDICNMB);
       98    10164        %KV_SCNOTPTRN(INPCHR='24'X,TRNCHR = EBCDICDLR);
       99    10309        %KV_SCNOTPTRN(INPCHR='40'X,TRNCHR = EBCDICAT);
      100    10454        %KV_SCNOTPTRN(INPCHR='5B'X,TRNCHR = EBCDICCNT);
      101    10599        %KV_SCNOTPTRN(INPCHR='5C'X,TRNCHR = EBCDICBCKSLS);
      102    10744        %KV_SCNOTPTRN(INPCHR='5D'X,TRNCHR = EBCDICSLDVRTLIN);
      103    10889        %KV_SCNOTPTRN(INPCHR='5E'X,TRNCHR = EBCDICNOT);
      104    11034        %KV_SCNOTPTRN(INPCHR='60'X,TRNCHR = EBCDICGRVACT);
      105    11179        %KV_SCNOTPTRN(INPCHR='7B'X,TRNCHR = EBCDICLFTBRC);
      106    11324        %KV_SCNOTPTRN(INPCHR='7C'X,TRNCHR = EBCDICVRTLIN);
      107    11469        %KV_SCNOTPTRN(INPCHR='7D'X,TRNCHR = EBCDICRHTBRC);
      108    11614        %KV_SCNOTPTRN(INPCHR='7E'X,TRNCHR = EBCDICTLD,
      109    11615          LAST='YES');
      110    11760        %EJECT;
PL6.E3A0      #001=KZ_3270XLATE_D File=KZ_3270XLATE_D.:E05TSI                    WED 07/30/97 03:05 Page:5
      111    11761        %KV_SCNOTPTRN(NAME=KZ_TRNOTP3270_2L);
      112    11870
      113    11871        %KV_SCNOTPTRN(INPCHR='07'X,TYPE = EXTTRN);
      114    11998        %KV_SCNOTPTRN(INPCHR='08'X,TYPE = OTPFNC_BS);
      115    12125        %KV_SCNOTPTRN(INPCHR='09'X,TYPE = OTPFNC_HT);
      116    12252        %KV_SCNOTPTRN(INPCHR='0A'X,TYPE = OTPFNC_LF);
      117    12379        %KV_SCNOTPTRN(INPCHR='0D'X,TYPE = OTPFNC_CR);
      118    12506        %KV_SCNOTPTRN(INPCHR='21'X,TRNCHR = EBCDICEXCPNT);
      119    12651        %KV_SCNOTPTRN(INPCHR='23'X,TRNCHR = EBCDICNMB);
      120    12796        %KV_SCNOTPTRN(INPCHR='24'X,TRNCHR = EBCDICDLR);
      121    12941        %KV_SCNOTPTRN(INPCHR='40'X,TRNCHR = EBCDICAT);
      122    13086        %KV_SCNOTPTRN(INPCHR='5B'X,TRNCHR = EBCDICLFTPRN);
      123    13231        %KV_SCNOTPTRN(INPCHR='5C'X,TRNCHR = EBCDICBCKSLS);
      124    13376        %KV_SCNOTPTRN(INPCHR='5D'X,TRNCHR = EBCDICRHTPRN);
      125    13521        %KV_SCNOTPTRN(INPCHR='5E'X,TRNCHR = EBCDICCNT);
      126    13666        %KV_SCNOTPTRN(INPCHR='60'X,TRNCHR = EBCDICGRVACT);
      127    13811        %KV_SCNOTPTRN(INPCHR='7B'X,TRNCHR = EBCDICLFTBRC);
      128    13956        %KV_SCNOTPTRN(INPCHR='7C'X,TRNCHR = EBCDICSLDVRTLIN);
      129    14101        %KV_SCNOTPTRN(INPCHR='7D'X,TRNCHR = EBCDICRHTBRC);
      130    14246        %KV_SCNOTPTRN(INPCHR='7E'X,TRNCHR = EBCDICNOT,
      131    14247          LAST='YES');
      132    14392        %EJECT;
PL6.E3A0      #001=KZ_3270XLATE_D File=KZ_3270XLATE_D.:E05TSI                    WED 07/30/97 03:05 Page:6
      133    14393        %KV_SCNOTPTRN(NAME=KZ_TRNOTP3270_2LL);
      134    14502
      135    14503        %KV_SCNOTPTRN(INPCHR='07'X,TYPE = EXTTRN);
      136    14630        %KV_SCNOTPTRN(INPCHR='08'X,TYPE = OTPFNC_BS);
      137    14757        %KV_SCNOTPTRN(INPCHR='09'X,TYPE = OTPFNC_HT);
      138    14884        %KV_SCNOTPTRN(INPCHR='0A'X,TYPE = OTPFNC_LF);
      139    15011        %KV_SCNOTPTRN(INPCHR='0D'X,TYPE = OTPFNC_CR);
      140    15138        %KV_SCNOTPTRN(INPCHR='21'X,TRNCHR = EBCDICEXCPNT);
      141    15283        %KV_SCNOTPTRN(INPCHR='23'X,TRNCHR = EBCDICNMB);
      142    15428        %KV_SCNOTPTRN(INPCHR='24'X,TRNCHR = EBCDICDLR);
      143    15573        %KV_SCNOTPTRN(INPCHR='40'X,TRNCHR = EBCDICAT);
      144    15718        %KV_SCNOTPTRN(INPCHR='5B'X,TRNCHR = EBCDICCNT);
      145    15863        %KV_SCNOTPTRN(INPCHR='5C'X,TRNCHR = EBCDICNMB);
      146    16008        %KV_SCNOTPTRN(INPCHR='5D'X,TRNCHR = EBCDICSLDVRTLIN);
      147    16153        %KV_SCNOTPTRN(INPCHR='5E'X,TRNCHR = EBCDICNOT);
      148    16298        %KV_SCNOTPTRN(INPCHR='60'X,TRNCHR = EBCDICNMB);
      149    16443        %KV_SCNOTPTRN(INPCHR='7B'X,TRNCHR = EBCDICLFTPRN);
      150    16588        %KV_SCNOTPTRN(INPCHR='7C'X,TRNCHR = EBCDICVRTLIN);
      151    16733        %KV_SCNOTPTRN(INPCHR='7D'X,TRNCHR = EBCDICRHTPRN);
      152    16878        %KV_SCNOTPTRN(INPCHR='7E'X,TRNCHR = EBCDICTLD,
      153    16879          LAST='YES');
      154    17024        %EJECT;
PL6.E3A0      #001=KZ_3270XLATE_D File=KZ_3270XLATE_D.:E05TSI                    WED 07/30/97 03:05 Page:7
      155    17025        %KV_SCNOTPTRN(NAME=KZ_TRNOTP3270_2E);
      156    17134
      157    17135        %KV_SCNOTPTRN(INPCHR='07'X,TYPE = EXTTRN);
      158    17262        %KV_SCNOTPTRN(INPCHR='08'X,TYPE = OTPFNC_BS);
      159    17389        %KV_SCNOTPTRN(INPCHR='09'X,TYPE = OTPFNC_HT);
      160    17516        %KV_SCNOTPTRN(INPCHR='0A'X,TYPE = OTPFNC_LF);
      161    17643        %KV_SCNOTPTRN(INPCHR='0D'X,TYPE = OTPFNC_CR);
      162    17770        %KV_SCNOTPTRN(INPCHR='21'X,TRNCHR = EBCDICSLDVRTLIN);
      163    17915        %KV_SCNOTPTRN(INPCHR='23'X,TRNCHR = EBCDICCNT);
      164    18060        %KV_SCNOTPTRN(INPCHR='24'X,TRNCHR = EBCDICEXCPNT);
      165    18205        %KV_SCNOTPTRN(INPCHR='40'X,TRNCHR = EBCDICBCKSLS);
      166    18350        %KV_SCNOTPTRN(INPCHR='5B'X,TRNCHR = EBCDICNMB);
      167    18495        %KV_SCNOTPTRN(INPCHR='5C'X,TRNCHR = EBCDICAT);
      168    18640        %KV_SCNOTPTRN(INPCHR='5D'X,TRNCHR = EBCDICDLR);
      169    18785        %KV_SCNOTPTRN(INPCHR='5E'X,TRNCHR = EBCDICNOT);
      170    18930        %KV_SCNOTPTRN(INPCHR='60'X,TRNCHR = EBCDICGRVACT);
      171    19075        %KV_SCNOTPTRN(INPCHR='7B'X,TRNCHR = EBCDICLFTBRC);
      172    19220        %KV_SCNOTPTRN(INPCHR='7C'X,TRNCHR = EBCDICVRTLIN);
      173    19365        %KV_SCNOTPTRN(INPCHR='7D'X,TRNCHR = EBCDICRHTBRC);
      174    19510        %KV_SCNOTPTRN(INPCHR='7E'X,TRNCHR = EBCDICTLD,
      175    19511          LAST='YES');
      176    19656        %EJECT;
PL6.E3A0      #001=KZ_3270XLATE_D File=KZ_3270XLATE_D.:E05TSI                    WED 07/30/97 03:05 Page:8
      177    19657        %KV_PRMINPTRN(NAME=KZ_TRNINP3270_1);
      178    28447        %KV_PRMINPTRN(FRSCHR='00'X,LSTCHR='7F'X,TRNCHR ='#');
      179    32932        %KV_PRMINPTRN(FRSCHR='80'X,LSTCHR='FF'X,TRNCHR ='#');
      180    37417        %KV_PRMINPTRN(FRSCHR=KZ#3270INPCTRCHR,SPCESC=YES);
      181    37555        %KV_PRMINPTRN(FRSCHR='11'X,INPFNC=KZ#3270SPCCHR_SBA);
      182    37693
      183    37694        %KV_PRMINPTRN(FRSCHR=EBCDICDUP, TRNCHR = ASCIISUB);
      184    37850        %KV_PRMINPTRN(FRSCHR=EBCDICFLDMRK,TRNCHR = ASCIIESC);
      185    38006        %KV_PRMINPTRN(FRSCHR='40'X,TRNCHR = ASCIISP);
      186    38162        %KV_PRMINPTRN(FRSCHR='4A'X,NXTTBL=YES);
      187    38300        %KV_PRMINPTRN(FRSCHR='4B'X,TRNCHR = ASCIIPRD);
      188    38456        %KV_PRMINPTRN(FRSCHR='4C'X,TRNCHR = ASCIILFTARW);
      189    38612        %KV_PRMINPTRN(FRSCHR='4D'X,TRNCHR = ASCIILFTPRN);
      190    38768        %KV_PRMINPTRN(FRSCHR='4E'X,TRNCHR = ASCIIPLS);
      191    38924        %KV_PRMINPTRN(FRSCHR='4F'X,NXTTBL=YES);
      192    39062        %KV_PRMINPTRN(FRSCHR='50'X,TRNCHR = ASCIIAMP);
      193    39218        %KV_PRMINPTRN(FRSCHR='5A'X,NXTTBL=YES);
      194    39356        %KV_PRMINPTRN(FRSCHR='5B'X,NXTTBL=YES);
      195    39494        %KV_PRMINPTRN(FRSCHR='5C'X,TRNCHR = ASCIIAST);
      196    39650        %KV_PRMINPTRN(FRSCHR='5D'X,TRNCHR = ASCIIRHTPRN);
      197    39806        %KV_PRMINPTRN(FRSCHR='5E'X,TRNCHR = ASCIISEMCLN);
      198    39962        %KV_PRMINPTRN(FRSCHR='5F'X,NXTTBL=YES);
      199    40100        %KV_PRMINPTRN(FRSCHR='60'X,TRNCHR = ASCIIHPH);
      200    40256        %KV_PRMINPTRN(FRSCHR='61'X,TRNCHR = ASCIISLS);
      201    40412        %KV_PRMINPTRN(FRSCHR='6A'X,LSTCHR='6E'X,
      202    40413          TRNCHR ="ASCIIVRTLIN,ASCIICOM,ASCIIPRC,ASCIIUNDSCR,ASCIIRHTARW");
      203    40581        %KV_PRMINPTRN(FRSCHR='6F'X,TRNCHR = ASCIIQST);
      204    40737        %KV_PRMINPTRN(FRSCHR='79'X,TRNCHR = ASCIIGRVACT);
      205    40893        %KV_PRMINPTRN(FRSCHR='7A'X,TRNCHR=ASCIICLN);
      206    41049        %KV_PRMINPTRN(FRSCHR='7B'X,NXTTBL=YES);
      207    41187        %KV_PRMINPTRN(FRSCHR='7C'X,NXTTBL=YES);
      208    41325        %KV_PRMINPTRN(FRSCHR='7D'X,TRNCHR=ASCIISNGQOT);
      209    41481        %KV_PRMINPTRN(FRSCHR='7E'X,TRNCHR=ASCIIEQL);
      210    41637        %KV_PRMINPTRN(FRSCHR='7F'X,TRNCHR = ASCIIDBLQOT);
      211    41793
      212    41794        %KV_PRMINPTRN(FRSCHR='81'X,LSTCHR='85'X,
      213    41795          TRNCHR ="ASCIILCA,ASCIILCB,ASCIILCC,ASCIILCD,ASCIILCE");
PL6.E3A0      #001=KZ_3270XLATE_D File=KZ_3270XLATE_D.:E05TSI                    WED 07/30/97 03:05 Page:9
      214    41963        %KV_PRMINPTRN(FRSCHR='86'X,LSTCHR='89'X,
      215    41964          TRNCHR ="ASCIILCF,ASCIILCG,ASCIILCH,ASCIILCI");
      216    42125        %KV_PRMINPTRN(FRSCHR='91'X,LSTCHR='95'X,
      217    42126          TRNCHR ="ASCIILCJ,ASCIILCK,ASCIILCL,ASCIILCM,ASCIILCN");
      218    42294        %KV_PRMINPTRN(FRSCHR='96'X,LSTCHR='99'X,
      219    42295          TRNCHR ="ASCIILCO,ASCIILCP,ASCIILCQ,ASCIILCR");
      220    42456        %KV_PRMINPTRN(FRSCHR='A1'X,LSTCHR='A5'X,
      221    42457          TRNCHR ="ASCIITLD,ASCIILCS,ASCIILCT,ASCIILCU,ASCIILCV");
      222    42625        %KV_PRMINPTRN(FRSCHR='A6'X,LSTCHR='A9'X,
      223    42626          TRNCHR ="ASCIILCW,ASCIILCX,ASCIILCY,ASCIILCZ");
      224    42787
      225    42788        %KV_PRMINPTRN(FRSCHR='C0'X,LSTCHR='C4'X,
      226    42789          TRNCHR ="ASCIILFTBRC,ASCIIA,ASCIIB,ASCIIC,ASCIID");
      227    42957        %KV_PRMINPTRN(FRSCHR='C5'X,LSTCHR='C9'X,
      228    42958          TRNCHR ="ASCIIE,ASCIIF,ASCIIG,ASCIIH,ASCIII");
      229    43126        %KV_PRMINPTRN(FRSCHR='D0'X,LSTCHR='D4'X,
      230    43127          TRNCHR ="ASCIIRHTBRC,ASCIIJ,ASCIIK,ASCIIL,ASCIIM");
      231    43295        %KV_PRMINPTRN(FRSCHR='D5'X,LSTCHR='D9'X,
      232    43296          TRNCHR ="ASCIIN,ASCIIO,ASCIIP,ASCIIQ,ASCIIR");
      233    43464        %KV_PRMINPTRN(FRSCHR='E0'X,NXTTBL=YES);
      234    43602        %KV_PRMINPTRN(FRSCHR='E2'X,LSTCHR='E6'X,
      235    43603          TRNCHR ="ASCIIS,ASCIIT,ASCIIU,ASCIIV,ASCIIW");
      236    43771        %KV_PRMINPTRN(FRSCHR='E7'X,LSTCHR='E9'X,
      237    43772          TRNCHR ="ASCIIX,ASCIIY,ASCIIZ");
      238    43926
      239    43927        %KV_PRMINPTRN(FRSCHR='F0'X,LSTCHR='F4'X,
      240    43928          TRNCHR ="ASCII0,ASCII1,ASCII2,ASCII3,ASCII4");
      241    44096        %KV_PRMINPTRN(FRSCHR='F5'X,LSTCHR='F9'X,
      242    44097          TRNCHR ="ASCII5,ASCII6,ASCII7,ASCII8,ASCII9",
      243    44098          LAST ='YES');
      244    44266        %EJECT;
PL6.E3A0      #001=KZ_3270XLATE_D File=KZ_3270XLATE_D.:E05TSI                    WED 07/30/97 03:05 Page:10
      245    44267
      246    44268        %KV_SCNINPTRN(NAME= KZ_TRNINP3270_2,
      247    44269          TRNCHR ='[]!$^#@\',LAST='YES');
      248    44313
      249    44314        %KV_SCNINPTRN(NAME= KZ_TRNINP3270_2L,
      250    44315          TRNCHR ='^|!$~#@\',LAST='YES');
      251    44359
      252    44360        %KV_SCNINPTRN(NAME= KZ_TRNINP3270_2E,
      253    44361          TRNCHR ='#!$]^[\@',LAST='YES');
      254    44405        %EJECT;
PL6.E3A0      #001=KZ_3270XLATE_D File=KZ_3270XLATE_D.:E05TSI                    WED 07/30/97 03:05 Page:11
      255    44406        /*
      256    44407         *
      257    44408         *     3270 - for 3271,3274 and 3277 devices
      258    44409         *
      259    44410         *     same as next table (3276LIM) except for the following:
      260    44411         *
      261    44412         *             EBCDIC                  ASCII
      262    44413         *
      263    44414         *             right paren  <---       right brace
      264    44415         *             left paren   <---       left brace
      265    44416         *             pound sign   <---       accent grave
      266    44417         *             pound sign   <---       backslash
      267    44418         *
      268    44419         */
      269    44420        %KV$TRNTBL(NAME= KZ_3270,STCLASS= CONSTANT SYMDEF,
      270    44421          INPTRN1= KZ_TRNINP3270_1,
      271    44422          INPTRN2= KZ_TRNINP3270_2L,
      272    44423          OTPTRN1= KZ_TRNOTP3270_1,
      273    44424          OTPTRN2= KZ_TRNOTP3270_2LL,
      274    44425          OTPTRN3=NIL,
      275    44426          EXTINPTRN=NIL,
      276    44427          EXTOTPTRN=NIL,
      277    44428          LNK=NIL,
      278    44429          INPCHRMSK='00FF'X,
      279    44430          NAM='3270',
      280    44431          FNTCLS= EBC,
      281    44432          SPCESC=KZ_TRNINP3270_1.SPCESC,
      282    44433          INPTKN=KZ_TRNINP3270_1.TKNTBL,
      283    44434          OTPESCCHR="%BITBIN(%KZ#3270OTPCTRCHR)",
      284    44435          OTPESCCHR1="%BITASC(%KZ#3270OTPCTRCHR)",
      285    44436          OTPESCCHR2="%BINASC(0)",
      286    44437          SP_CHR="%BITASC(EBCDICSP)",
      287    44438          HT_CHR="%BITASC(EBCDICNMB)",
      288    44439          INPCTRSTRINTCHR="%BITASC(%KZ#3270INPCTRCHR)",
      289    44440          PRTAPL='0'B,
      290    44441          DRCOTPTRN='0'B,
      291    44442          TRNINPCTRSTRID='1'B);
PL6.E3A0      #001=KZ_3270XLATE_D File=KZ_3270XLATE_D.:E05TSI                    WED 07/30/97 03:05 Page:12
      292    44500        %EJECT;
PL6.E3A0      #001=KZ_3270XLATE_D File=KZ_3270XLATE_D.:E05TSI                    WED 07/30/97 03:05 Page:13
      293    44501        /*
      294    44502         *
      295    44503         *     3276LIM - limited character set 3276 translate table
      296    44504         *
      297    44505         *     Translation table for limited character set terminals.
      298    44506         *     Note that even users with full character sets may want
      299    44507         *     to use this table.
      300    44508         *
      301    44509         *             EBCDIC                       ASCII
      302    44510         *
      303    44511         *             not sign        <--->        tilde
      304    44512         *             solid-vert-line <--->        broken vert line
      305    44513         *             cent sign       <--->        vertical arrow
      306    44514         *             left paren      <---         left bracket
      307    44515         *             right paren     <---         right bracket
      308    44516         *
      309    44517         */
      310    44518        %KV$TRNTBL(NAME= KZ_3270LIM,STCLASS=CONSTANT SYMDEF,
      311    44519          INPTRN1= KZ_TRNINP3270_1,
      312    44520          INPTRN2= KZ_TRNINP3270_2L,
      313    44521          OTPTRN1= KZ_TRNOTP3270_1,
      314    44522          OTPTRN2= KZ_TRNOTP3270_2L,
      315    44523          OTPTRN3=NIL,
      316    44524          EXTINPTRN=NIL,
      317    44525          EXTOTPTRN=NIL,
      318    44526          LNK= KZ_3270,
      319    44527          INPCHRMSK='00FF'X,
      320    44528          NAM='3276LIM',
      321    44529          FNTCLS= EBC,
      322    44530          SPCESC=KZ_TRNINP3270_1.SPCESC,
      323    44531          INPTKN=KZ_TRNINP3270_1.TKNTBL,
      324    44532          OTPESCCHR="%BITBIN(%KZ#3270OTPCTRCHR)",
      325    44533          OTPESCCHR1="%BITASC(%KZ#3270OTPCTRCHR)",
      326    44534          OTPESCCHR2="%BINASC(0)",
      327    44535          SP_CHR="%BITASC(EBCDICSP)",
      328    44536          HT_CHR="%BITASC(EBCDICNMB)",
      329    44537          INPCTRSTRINTCHR="%BITASC(%KZ#3270INPCTRCHR)",
PL6.E3A0      #001=KZ_3270XLATE_D File=KZ_3270XLATE_D.:E05TSI                    WED 07/30/97 03:05 Page:14
      330    44538          PRTAPL='0'B,
      331    44539          DRCOTPTRN='0'B,
      332    44540          TRNINPCTRSTRID='1'B);
      333    44598        %EJECT;
PL6.E3A0      #001=KZ_3270XLATE_D File=KZ_3270XLATE_D.:E05TSI                    WED 07/30/97 03:05 Page:15
      334    44599        /*  3276STD - standard 3276 translate table
      335    44600        *
      336    44601        *            The standard EBCDIC-ASCII translation with the following
      337    44602        *            for those characters that have no equivalent:
      338    44603        *
      339    44604        *                   EBCDIC                  ASCII
      340    44605        *
      341    44606        *                 not-sign         <-->   vertical-arrow
      342    44607        *                 cent-sign        <-->   left-bracket
      343    44608        *                 solid-vert-line  <-->   right-bracket
      344    44609        */
      345    44610        %KV$TRNTBL( NAME= KZ_3270STD,STCLASS= CONSTANT SYMDEF,
      346    44611          INPTRN1= KZ_TRNINP3270_1,
      347    44612          INPTRN2= KZ_TRNINP3270_2,
      348    44613          OTPTRN1= KZ_TRNOTP3270_1,
      349    44614          OTPTRN2= KZ_TRNOTP3270_2,
      350    44615          OTPTRN3=NIL,
      351    44616          EXTINPTRN=NIL,
      352    44617          EXTOTPTRN=NIL,
      353    44618          LNK= KZ_3270EUR,
      354    44619          INPCHRMSK='00FF'X,
      355    44620          NAM='3276STD',
      356    44621          FNTCLS= EBC,
      357    44622          SPCESC=KZ_TRNINP3270_1.SPCESC,
      358    44623          INPTKN=KZ_TRNINP3270_1.TKNTBL,
      359    44624          OTPESCCHR="%BITBIN(%KZ#3270OTPCTRCHR)",
      360    44625          OTPESCCHR1="%BITASC(%KZ#3270OTPCTRCHR)",
      361    44626          OTPESCCHR2="%BINASC(0)",
      362    44627          SP_CHR="%BITASC(EBCDICSP)",
      363    44628          HT_CHR="%BITASC(EBCDICNMB)",
      364    44629          INPCTRSTRINTCHR="%BITASC(%KZ#3270INPCTRCHR)",
      365    44630          PRTAPL='0'B,
      366    44631          DRCOTPTRN='0'B,
      367    44632          TRNINPCTRSTRID='1'B);
      368    44690        %EJECT;
PL6.E3A0      #001=KZ_3270XLATE_D File=KZ_3270XLATE_D.:E05TSI                    WED 07/30/97 03:05 Page:16
      369    44691        /*  3270EUR - European 3270 translate table
      370    44692        *
      371    44693        *            The standard EBCDIC-ASCII translation with the following
      372    44694        *            for those characters that have no equivalent:
      373    44695        *
      374    44696        *                   EBCDIC                  ASCII
      375    44697        *
      376    44698        *                 not-sign         <-->   vertical-arrow
      377    44699        *                 cent-sign        <-->   left-bracket
      378    44700        *                 solid-vert-line  <-->   right-bracket
      379    44701        *            And the following permutation for European IBM standards:
      380    44702        *
      381    44703        *                US ASCII                   EUROPE ASCII
      382    44704        *
      383    44705        *                ! # $ @ [ \ ]     <-->     $ [ ] \ # @ !
      384    44706        *
      385    44707        */
      386    44708        %KV$TRNTBL( NAME= KZ_3270EUR,STCLASS= CONSTANT SYMDEF,
      387    44709          INPTRN1= KZ_TRNINP3270_1,
      388    44710          INPTRN2= KZ_TRNINP3270_2E,
      389    44711          OTPTRN1= KZ_TRNOTP3270_1,
      390    44712          OTPTRN2= KZ_TRNOTP3270_2E,
      391    44713          OTPTRN3=NIL,
      392    44714          EXTINPTRN=NIL,
      393    44715          EXTOTPTRN=NIL,
      394    44716          LNK= KZ_3270LIM,
      395    44717          INPCHRMSK='00FF'X,
      396    44718          NAM='3270EUR',
      397    44719          FNTCLS= EBC,
      398    44720          SPCESC=KZ_TRNINP3270_1.SPCESC,
      399    44721          INPTKN=KZ_TRNINP3270_1.TKNTBL,
      400    44722          OTPESCCHR="%BITBIN(%KZ#3270OTPCTRCHR)",
      401    44723          OTPESCCHR1="%BITASC(%KZ#3270OTPCTRCHR)",
      402    44724          OTPESCCHR2="%BINASC(0)",
      403    44725          SP_CHR="%BITASC(EBCDICSP)",
      404    44726          HT_CHR="%BITASC(EBCDICNMB)",
      405    44727          INPCTRSTRINTCHR="%BITASC(%KZ#3270INPCTRCHR)",
PL6.E3A0      #001=KZ_3270XLATE_D File=KZ_3270XLATE_D.:E05TSI                    WED 07/30/97 03:05 Page:17
      406    44728          PRTAPL='0'B,
      407    44729          DRCOTPTRN='0'B,
      408    44730          TRNINPCTRSTRID='1'B);
      409    44788    1   END;

PL6.E3A0      #001=KZ_3270XLATE_D File=KZ_3270XLATE_D.:E05TSI                    WED 07/30/97 03:05 Page:18
--  Include file information  --

   KZ_3270_C.:E05TOU  is referenced.
   KV_GLBCNS_E.:E05TOU  is referenced.
   KV_TRNTBL_M.:E05TOU  is referenced.
   KV_EBCCHR_E.:E05TOU  is referenced.
   KV_ASCCHR_E.:E05TOU  is referenced.
   KV$GLB.:E05TOU  is referenced.
   KV$INT.:E05TOU  is referenced.
      No diagnostics issued in procedure KZ_3270XLATE_D.

   No code generated for procedure KZ_3270XLATE_D .
   Procedure KZ_3270XLATE_D requires 4 words of local(AUTO) storage.

    No errors detected in file KZ_3270XLATE_D.:E05TSI    .

PL6.E3A0      #001=KZ_3270XLATE_D File=KZ_3270XLATE_D.:E05TSI                    WED 07/30/97 03:05 Page:19

 Object Unit name= KZ_3270XLATE_D                             File name= KZ_3270XLATE_D.:E05TOU
 UTS= JUL 30 '97 03:05:36.92 WED                              Compiler= PL-6/E31         Sev=      00
 SharedLib= :SHARED_LCP6_SYSTEM                               Alt SharedLib=


    ****  Control sections  ****

 Sect   Type Bound  Init  Size HexSiz  Section name
    0  RoData even  UTS    528    210  KZ_3270XLATE_D
    1   Proc  even  none     0      0  KZ_3270XLATE_D

    ****  Entry defs  ****

                              Check   Calling
                             calling  sequence
  Sect HexLoc Primary Altret sequence   type   Parms  Name
     1      0   yes            yes     ~proc       0  KZ_3270XLATE_D

  ****  Data defs  ****

 Sect HexLoc  Name                           Sect HexLoc  Name
    0    190  KZ_3270                            0    1B0  KZ_3270LIM
    0    1D0  KZ_3270STD                         0    1F0  KZ_3270EUR

  ****  Data refs  ****

  Flags:  r = read only, s = secondary
Flgs Name                             Flgs Name                             Flgs Name
r    G$ROS$
PL6.E3A0      #001=KZ_3270XLATE_D File=KZ_3270XLATE_D.:E05TSI                    WED 07/30/97 03:05 Page:20

        1        1        /*M* KZ_3270XLATE_D  TRANSLATE TABLES FOR 3270 DEVICES
        2        2        *T***********************************************************
        3        3        *T*                                                         *
        4        4        *T* COPYRIGHT, (C) HONEYWELL INFORMATION SYSTEMS INC., 1981 *
        5        5        *T*                                                         *
        6        6        *T***********************************************************
        7        7        */
        8        8        /*T***********************************************************/
        9        9        /*T*                                                         */
       10       10        /*T* Copyright (c) Bull HN Information Systems Inc., 1997    */
       11       11        /*T*                                                         */
       12       12        /*T***********************************************************/
       13       13        KZ_3270XLATE_D: PROC;
       14       14        %INCLUDE KV$INT;
       15      646        %INCLUDE KV$GLB;
       16     1065        %INCLUDE KV_ASCCHR_E;
       17     1202        %INCLUDE KV_EBCCHR_E;
       18     1311        %INCLUDE KV_TRNTBL_M;
       19     1646        %INCLUDE KV_GLBCNS_E;
       20     1987        %INCLUDE KZ_3270_C;
       21     2145        %KV_INPOPRX_E;
       22     2157        %KZ_3270_E;
       23     2285        %EQU OTPNXTTBL=KZ#3270OTPCTRCHR;
       24     2286        %EJECT;
PL6.E3A0      #001=KZ_3270XLATE_D File=KZ_3270XLATE_D.:E05TSI                    WED 07/30/97 03:05 Page:21
       25     2287        %KV_PRMOTPTRN(NAME=KZ_TRNOTP3270_1, DFLTRNCHR =EBCDICNMB);
       26     2348
       27     2349        %KV_PRMOTPTRN(FRSCHR='07'X,TRNCHR = KZ#3270OTPCTRCHR);
       28     2462        %KV_PRMOTPTRN(FRSCHR='08'X,TRNCHR = KZ#3270OTPCTRCHR);
       29     2575        %KV_PRMOTPTRN(FRSCHR='09'X,TRNCHR = KZ#3270OTPCTRCHR);
       30     2688        %KV_PRMOTPTRN(FRSCHR='0A'X,TRNCHR = KZ#3270OTPCTRCHR);
       31     2801        %KV_PRMOTPTRN(FRSCHR='0D'X,TRNCHR = KZ#3270OTPCTRCHR);
       32     2914        %KV_PRMOTPTRN(FRSCHR='1B'X,TRNCHR = EBCDICFLDMRK);
       33     3027        %KV_PRMOTPTRN(FRSCHR='20'X,TRNCHR = EBCDICSP);
       34     3140
       35     3141        %KV_PRMOTPTRN(FRSCHR="'21'X,'22'X,'23'X,'24'X,'25'X",
       36     3142          TRNCHR ="OTPNXTTBL,EBCDICDBLQOT,OTPNXTTBL,OTPNXTTBL,EBCDICPRC");
       37     3447        %KV_PRMOTPTRN(FRSCHR="'26'X,'27'X,'28'X,'29'X,'2A'X",
       38     3448         TRNCHR ="EBCDICAMP,EBCDICSNGQOT,EBCDICLFTPRN,EBCDICRHTPRN,EBCDICAST");
       39     3753        %KV_PRMOTPTRN(FRSCHR="'2B'X,'2C'X,'2D'X,'2E'X,'2F'X",
       40     3754          TRNCHR ="EBCDICPLS,EBCDICCOM,EBCDICHPH,EBCDICPRD,EBCDICSLS");
       41     4059
       42     4060        %KV_PRMOTPTRN(FRSCHR='01234',
       43     4061             TRNCHR ="EBCDIC0,EBCDIC1,EBCDIC2,EBCDIC3,EBCDIC4");
       44     4331        %KV_PRMOTPTRN(FRSCHR='56789',
       45     4332             TRNCHR ="EBCDIC5,EBCDIC6,EBCDIC7,EBCDIC8,EBCDIC9");
       46     4602
       47     4603        %KV_PRMOTPTRN(FRSCHR="'3A'X,'3B'X,'3C'X,'3D'X,'3E'X",
       48     4604          TRNCHR ="EBCDICCLN,EBCDICSEMCLN,EBCDICLFTARW,EBCDICEQL,EBCDICRHTARW");
       49     4909        %KV_PRMOTPTRN(FRSCHR="'3F'X,'40'X",
       50     4910          TRNCHR ="EBCDICQST,OTPNXTTBL");
       51     5071
       52     5072        %KV_PRMOTPTRN(FRSCHR='ABCDE',
       53     5073             TRNCHR ="EBCDICA,EBCDICB,EBCDICC,EBCDICD,EBCDICE");
       54     5343        %KV_PRMOTPTRN(FRSCHR='FGHIJ',
       55     5344             TRNCHR ="EBCDICF,EBCDICG,EBCDICH,EBCDICI,EBCDICJ");
       56     5614        %KV_PRMOTPTRN(FRSCHR='KLMNO',
       57     5615             TRNCHR ="EBCDICK,EBCDICL,EBCDICM,EBCDICN,EBCDICO");
       58     5885        %KV_PRMOTPTRN(FRSCHR='PQRST',
       59     5886             TRNCHR ="EBCDICP,EBCDICQ,EBCDICR,EBCDICS,EBCDICT");
       60     6156        %KV_PRMOTPTRN(FRSCHR='UVWXY',
       61     6157             TRNCHR ="EBCDICU,EBCDICV,EBCDICW,EBCDICX,EBCDICY");
PL6.E3A0      #001=KZ_3270XLATE_D File=KZ_3270XLATE_D.:E05TSI                    WED 07/30/97 03:05 Page:22
       62     6427        %KV_PRMOTPTRN(FRSCHR='Z',TRNCHR = EBCDICZ);
       63     6533
       64     6534        %KV_PRMOTPTRN(FRSCHR='5B'X,TRNCHR = KZ#3270OTPCTRCHR);
       65     6647        %KV_PRMOTPTRN(FRSCHR='5C'X,TRNCHR = KZ#3270OTPCTRCHR);
       66     6760        %KV_PRMOTPTRN(FRSCHR='5D'X,TRNCHR = KZ#3270OTPCTRCHR);
       67     6873        %KV_PRMOTPTRN(FRSCHR='5E'X,TRNCHR = KZ#3270OTPCTRCHR);
       68     6986        %KV_PRMOTPTRN(FRSCHR='5F'X,TRNCHR = EBCDICUNDSCR);
       69     7099        %KV_PRMOTPTRN(FRSCHR='60'X,TRNCHR = KZ#3270OTPCTRCHR);
       70     7212
       71     7213        %KV_PRMOTPTRN(FRSCHR='abcde',
       72     7214             TRNCHR ="EBCDICLCA,EBCDICLCB,EBCDICLCC,EBCDICLCD,EBCDICLCE");
       73     7484        %KV_PRMOTPTRN(FRSCHR='fghij',
       74     7485             TRNCHR ="EBCDICLCF,EBCDICLCG,EBCDICLCH,EBCDICLCI,EBCDICLCJ");
       75     7755        %KV_PRMOTPTRN(FRSCHR='klmno',
       76     7756             TRNCHR ="EBCDICLCK,EBCDICLCL,EBCDICLCM,EBCDICLCN,EBCDICLCO");
       77     8026        %KV_PRMOTPTRN(FRSCHR='pqrst',
       78     8027             TRNCHR ="EBCDICLCP,EBCDICLCQ,EBCDICLCR,EBCDICLCS,EBCDICLCT");
       79     8297        %KV_PRMOTPTRN(FRSCHR='uvwxy',
       80     8298             TRNCHR ="EBCDICLCU,EBCDICLCV,EBCDICLCW,EBCDICLCX,EBCDICLCY");
       81     8568        %KV_PRMOTPTRN(FRSCHR='z',TRNCHR = EBCDICLCZ);
       82     8674
       83     8675        %KV_PRMOTPTRN(FRSCHR='7B'X,TRNCHR = KZ#3270OTPCTRCHR);
       84     8788        %KV_PRMOTPTRN(FRSCHR='7C'X,TRNCHR = KZ#3270OTPCTRCHR);
       85     8901        %KV_PRMOTPTRN(FRSCHR='7D'X,TRNCHR = KZ#3270OTPCTRCHR);
       86     9014        %KV_PRMOTPTRN(FRSCHR='7E'X,TRNCHR = KZ#3270OTPCTRCHR,
       87     9015          LAST='YES');
       88     9128        %EJECT;
PL6.E3A0      #001=KZ_3270XLATE_D File=KZ_3270XLATE_D.:E05TSI                    WED 07/30/97 03:05 Page:23
       89     9129        %KV_SCNOTPTRN(NAME=KZ_TRNOTP3270_2);
       90     9238
       91     9239        %KV_SCNOTPTRN(INPCHR='07'X,TYPE = EXTTRN);
       92     9366        %KV_SCNOTPTRN(INPCHR='08'X,TYPE = OTPFNC_BS);
       93     9493        %KV_SCNOTPTRN(INPCHR='09'X,TYPE = OTPFNC_HT);
       94     9620        %KV_SCNOTPTRN(INPCHR='0A'X,TYPE = OTPFNC_LF);
       95     9747        %KV_SCNOTPTRN(INPCHR='0D'X,TYPE = OTPFNC_CR);
       96     9874        %KV_SCNOTPTRN(INPCHR='21'X,TRNCHR = EBCDICEXCPNT);
       97    10019        %KV_SCNOTPTRN(INPCHR='23'X,TRNCHR = EBCDICNMB);
       98    10164        %KV_SCNOTPTRN(INPCHR='24'X,TRNCHR = EBCDICDLR);
       99    10309        %KV_SCNOTPTRN(INPCHR='40'X,TRNCHR = EBCDICAT);
      100    10454        %KV_SCNOTPTRN(INPCHR='5B'X,TRNCHR = EBCDICCNT);
      101    10599        %KV_SCNOTPTRN(INPCHR='5C'X,TRNCHR = EBCDICBCKSLS);
      102    10744        %KV_SCNOTPTRN(INPCHR='5D'X,TRNCHR = EBCDICSLDVRTLIN);
      103    10889        %KV_SCNOTPTRN(INPCHR='5E'X,TRNCHR = EBCDICNOT);
      104    11034        %KV_SCNOTPTRN(INPCHR='60'X,TRNCHR = EBCDICGRVACT);
      105    11179        %KV_SCNOTPTRN(INPCHR='7B'X,TRNCHR = EBCDICLFTBRC);
      106    11324        %KV_SCNOTPTRN(INPCHR='7C'X,TRNCHR = EBCDICVRTLIN);
      107    11469        %KV_SCNOTPTRN(INPCHR='7D'X,TRNCHR = EBCDICRHTBRC);
      108    11614        %KV_SCNOTPTRN(INPCHR='7E'X,TRNCHR = EBCDICTLD,
      109    11615          LAST='YES');
      110    11760        %EJECT;
PL6.E3A0      #001=KZ_3270XLATE_D File=KZ_3270XLATE_D.:E05TSI                    WED 07/30/97 03:05 Page:24
      111    11761        %KV_SCNOTPTRN(NAME=KZ_TRNOTP3270_2L);
      112    11870
      113    11871        %KV_SCNOTPTRN(INPCHR='07'X,TYPE = EXTTRN);
      114    11998        %KV_SCNOTPTRN(INPCHR='08'X,TYPE = OTPFNC_BS);
      115    12125        %KV_SCNOTPTRN(INPCHR='09'X,TYPE = OTPFNC_HT);
      116    12252        %KV_SCNOTPTRN(INPCHR='0A'X,TYPE = OTPFNC_LF);
      117    12379        %KV_SCNOTPTRN(INPCHR='0D'X,TYPE = OTPFNC_CR);
      118    12506        %KV_SCNOTPTRN(INPCHR='21'X,TRNCHR = EBCDICEXCPNT);
      119    12651        %KV_SCNOTPTRN(INPCHR='23'X,TRNCHR = EBCDICNMB);
      120    12796        %KV_SCNOTPTRN(INPCHR='24'X,TRNCHR = EBCDICDLR);
      121    12941        %KV_SCNOTPTRN(INPCHR='40'X,TRNCHR = EBCDICAT);
      122    13086        %KV_SCNOTPTRN(INPCHR='5B'X,TRNCHR = EBCDICLFTPRN);
      123    13231        %KV_SCNOTPTRN(INPCHR='5C'X,TRNCHR = EBCDICBCKSLS);
      124    13376        %KV_SCNOTPTRN(INPCHR='5D'X,TRNCHR = EBCDICRHTPRN);
      125    13521        %KV_SCNOTPTRN(INPCHR='5E'X,TRNCHR = EBCDICCNT);
      126    13666        %KV_SCNOTPTRN(INPCHR='60'X,TRNCHR = EBCDICGRVACT);
      127    13811        %KV_SCNOTPTRN(INPCHR='7B'X,TRNCHR = EBCDICLFTBRC);
      128    13956        %KV_SCNOTPTRN(INPCHR='7C'X,TRNCHR = EBCDICSLDVRTLIN);
      129    14101        %KV_SCNOTPTRN(INPCHR='7D'X,TRNCHR = EBCDICRHTBRC);
      130    14246        %KV_SCNOTPTRN(INPCHR='7E'X,TRNCHR = EBCDICNOT,
      131    14247          LAST='YES');
      132    14392        %EJECT;
PL6.E3A0      #001=KZ_3270XLATE_D File=KZ_3270XLATE_D.:E05TSI                    WED 07/30/97 03:05 Page:25
      133    14393        %KV_SCNOTPTRN(NAME=KZ_TRNOTP3270_2LL);
      134    14502
      135    14503        %KV_SCNOTPTRN(INPCHR='07'X,TYPE = EXTTRN);
      136    14630        %KV_SCNOTPTRN(INPCHR='08'X,TYPE = OTPFNC_BS);
      137    14757        %KV_SCNOTPTRN(INPCHR='09'X,TYPE = OTPFNC_HT);
      138    14884        %KV_SCNOTPTRN(INPCHR='0A'X,TYPE = OTPFNC_LF);
      139    15011        %KV_SCNOTPTRN(INPCHR='0D'X,TYPE = OTPFNC_CR);
      140    15138        %KV_SCNOTPTRN(INPCHR='21'X,TRNCHR = EBCDICEXCPNT);
      141    15283        %KV_SCNOTPTRN(INPCHR='23'X,TRNCHR = EBCDICNMB);
      142    15428        %KV_SCNOTPTRN(INPCHR='24'X,TRNCHR = EBCDICDLR);
      143    15573        %KV_SCNOTPTRN(INPCHR='40'X,TRNCHR = EBCDICAT);
      144    15718        %KV_SCNOTPTRN(INPCHR='5B'X,TRNCHR = EBCDICCNT);
      145    15863        %KV_SCNOTPTRN(INPCHR='5C'X,TRNCHR = EBCDICNMB);
      146    16008        %KV_SCNOTPTRN(INPCHR='5D'X,TRNCHR = EBCDICSLDVRTLIN);
      147    16153        %KV_SCNOTPTRN(INPCHR='5E'X,TRNCHR = EBCDICNOT);
      148    16298        %KV_SCNOTPTRN(INPCHR='60'X,TRNCHR = EBCDICNMB);
      149    16443        %KV_SCNOTPTRN(INPCHR='7B'X,TRNCHR = EBCDICLFTPRN);
      150    16588        %KV_SCNOTPTRN(INPCHR='7C'X,TRNCHR = EBCDICVRTLIN);
      151    16733        %KV_SCNOTPTRN(INPCHR='7D'X,TRNCHR = EBCDICRHTPRN);
      152    16878        %KV_SCNOTPTRN(INPCHR='7E'X,TRNCHR = EBCDICTLD,
      153    16879          LAST='YES');
      154    17024        %EJECT;
PL6.E3A0      #001=KZ_3270XLATE_D File=KZ_3270XLATE_D.:E05TSI                    WED 07/30/97 03:05 Page:26
      155    17025        %KV_SCNOTPTRN(NAME=KZ_TRNOTP3270_2E);
      156    17134
      157    17135        %KV_SCNOTPTRN(INPCHR='07'X,TYPE = EXTTRN);
      158    17262        %KV_SCNOTPTRN(INPCHR='08'X,TYPE = OTPFNC_BS);
      159    17389        %KV_SCNOTPTRN(INPCHR='09'X,TYPE = OTPFNC_HT);
      160    17516        %KV_SCNOTPTRN(INPCHR='0A'X,TYPE = OTPFNC_LF);
      161    17643        %KV_SCNOTPTRN(INPCHR='0D'X,TYPE = OTPFNC_CR);
      162    17770        %KV_SCNOTPTRN(INPCHR='21'X,TRNCHR = EBCDICSLDVRTLIN);
      163    17915        %KV_SCNOTPTRN(INPCHR='23'X,TRNCHR = EBCDICCNT);
      164    18060        %KV_SCNOTPTRN(INPCHR='24'X,TRNCHR = EBCDICEXCPNT);
      165    18205        %KV_SCNOTPTRN(INPCHR='40'X,TRNCHR = EBCDICBCKSLS);
      166    18350        %KV_SCNOTPTRN(INPCHR='5B'X,TRNCHR = EBCDICNMB);
      167    18495        %KV_SCNOTPTRN(INPCHR='5C'X,TRNCHR = EBCDICAT);
      168    18640        %KV_SCNOTPTRN(INPCHR='5D'X,TRNCHR = EBCDICDLR);
      169    18785        %KV_SCNOTPTRN(INPCHR='5E'X,TRNCHR = EBCDICNOT);
      170    18930        %KV_SCNOTPTRN(INPCHR='60'X,TRNCHR = EBCDICGRVACT);
      171    19075        %KV_SCNOTPTRN(INPCHR='7B'X,TRNCHR = EBCDICLFTBRC);
      172    19220        %KV_SCNOTPTRN(INPCHR='7C'X,TRNCHR = EBCDICVRTLIN);
      173    19365        %KV_SCNOTPTRN(INPCHR='7D'X,TRNCHR = EBCDICRHTBRC);
      174    19510        %KV_SCNOTPTRN(INPCHR='7E'X,TRNCHR = EBCDICTLD,
      175    19511          LAST='YES');
      176    19656        %EJECT;
PL6.E3A0      #001=KZ_3270XLATE_D File=KZ_3270XLATE_D.:E05TSI                    WED 07/30/97 03:05 Page:27
      177    19657        %KV_PRMINPTRN(NAME=KZ_TRNINP3270_1);
      178    28447        %KV_PRMINPTRN(FRSCHR='00'X,LSTCHR='7F'X,TRNCHR ='#');
      179    32932        %KV_PRMINPTRN(FRSCHR='80'X,LSTCHR='FF'X,TRNCHR ='#');
      180    37417        %KV_PRMINPTRN(FRSCHR=KZ#3270INPCTRCHR,SPCESC=YES);
      181    37555        %KV_PRMINPTRN(FRSCHR='11'X,INPFNC=KZ#3270SPCCHR_SBA);
      182    37693
      183    37694        %KV_PRMINPTRN(FRSCHR=EBCDICDUP, TRNCHR = ASCIISUB);
      184    37850        %KV_PRMINPTRN(FRSCHR=EBCDICFLDMRK,TRNCHR = ASCIIESC);
      185    38006        %KV_PRMINPTRN(FRSCHR='40'X,TRNCHR = ASCIISP);
      186    38162        %KV_PRMINPTRN(FRSCHR='4A'X,NXTTBL=YES);
      187    38300        %KV_PRMINPTRN(FRSCHR='4B'X,TRNCHR = ASCIIPRD);
      188    38456        %KV_PRMINPTRN(FRSCHR='4C'X,TRNCHR = ASCIILFTARW);
      189    38612        %KV_PRMINPTRN(FRSCHR='4D'X,TRNCHR = ASCIILFTPRN);
      190    38768        %KV_PRMINPTRN(FRSCHR='4E'X,TRNCHR = ASCIIPLS);
      191    38924        %KV_PRMINPTRN(FRSCHR='4F'X,NXTTBL=YES);
      192    39062        %KV_PRMINPTRN(FRSCHR='50'X,TRNCHR = ASCIIAMP);
      193    39218        %KV_PRMINPTRN(FRSCHR='5A'X,NXTTBL=YES);
      194    39356        %KV_PRMINPTRN(FRSCHR='5B'X,NXTTBL=YES);
      195    39494        %KV_PRMINPTRN(FRSCHR='5C'X,TRNCHR = ASCIIAST);
      196    39650        %KV_PRMINPTRN(FRSCHR='5D'X,TRNCHR = ASCIIRHTPRN);
      197    39806        %KV_PRMINPTRN(FRSCHR='5E'X,TRNCHR = ASCIISEMCLN);
      198    39962        %KV_PRMINPTRN(FRSCHR='5F'X,NXTTBL=YES);
      199    40100        %KV_PRMINPTRN(FRSCHR='60'X,TRNCHR = ASCIIHPH);
      200    40256        %KV_PRMINPTRN(FRSCHR='61'X,TRNCHR = ASCIISLS);
      201    40412        %KV_PRMINPTRN(FRSCHR='6A'X,LSTCHR='6E'X,
      202    40413          TRNCHR ="ASCIIVRTLIN,ASCIICOM,ASCIIPRC,ASCIIUNDSCR,ASCIIRHTARW");
      203    40581        %KV_PRMINPTRN(FRSCHR='6F'X,TRNCHR = ASCIIQST);
      204    40737        %KV_PRMINPTRN(FRSCHR='79'X,TRNCHR = ASCIIGRVACT);
      205    40893        %KV_PRMINPTRN(FRSCHR='7A'X,TRNCHR=ASCIICLN);
      206    41049        %KV_PRMINPTRN(FRSCHR='7B'X,NXTTBL=YES);
      207    41187        %KV_PRMINPTRN(FRSCHR='7C'X,NXTTBL=YES);
      208    41325        %KV_PRMINPTRN(FRSCHR='7D'X,TRNCHR=ASCIISNGQOT);
      209    41481        %KV_PRMINPTRN(FRSCHR='7E'X,TRNCHR=ASCIIEQL);
      210    41637        %KV_PRMINPTRN(FRSCHR='7F'X,TRNCHR = ASCIIDBLQOT);
      211    41793
      212    41794        %KV_PRMINPTRN(FRSCHR='81'X,LSTCHR='85'X,
      213    41795          TRNCHR ="ASCIILCA,ASCIILCB,ASCIILCC,ASCIILCD,ASCIILCE");
PL6.E3A0      #001=KZ_3270XLATE_D File=KZ_3270XLATE_D.:E05TSI                    WED 07/30/97 03:05 Page:28
      214    41963        %KV_PRMINPTRN(FRSCHR='86'X,LSTCHR='89'X,
      215    41964          TRNCHR ="ASCIILCF,ASCIILCG,ASCIILCH,ASCIILCI");
      216    42125        %KV_PRMINPTRN(FRSCHR='91'X,LSTCHR='95'X,
      217    42126          TRNCHR ="ASCIILCJ,ASCIILCK,ASCIILCL,ASCIILCM,ASCIILCN");
      218    42294        %KV_PRMINPTRN(FRSCHR='96'X,LSTCHR='99'X,
      219    42295          TRNCHR ="ASCIILCO,ASCIILCP,ASCIILCQ,ASCIILCR");
      220    42456        %KV_PRMINPTRN(FRSCHR='A1'X,LSTCHR='A5'X,
      221    42457          TRNCHR ="ASCIITLD,ASCIILCS,ASCIILCT,ASCIILCU,ASCIILCV");
      222    42625        %KV_PRMINPTRN(FRSCHR='A6'X,LSTCHR='A9'X,
      223    42626          TRNCHR ="ASCIILCW,ASCIILCX,ASCIILCY,ASCIILCZ");
      224    42787
      225    42788        %KV_PRMINPTRN(FRSCHR='C0'X,LSTCHR='C4'X,
      226    42789          TRNCHR ="ASCIILFTBRC,ASCIIA,ASCIIB,ASCIIC,ASCIID");
      227    42957        %KV_PRMINPTRN(FRSCHR='C5'X,LSTCHR='C9'X,
      228    42958          TRNCHR ="ASCIIE,ASCIIF,ASCIIG,ASCIIH,ASCIII");
      229    43126        %KV_PRMINPTRN(FRSCHR='D0'X,LSTCHR='D4'X,
      230    43127          TRNCHR ="ASCIIRHTBRC,ASCIIJ,ASCIIK,ASCIIL,ASCIIM");
      231    43295        %KV_PRMINPTRN(FRSCHR='D5'X,LSTCHR='D9'X,
      232    43296          TRNCHR ="ASCIIN,ASCIIO,ASCIIP,ASCIIQ,ASCIIR");
      233    43464        %KV_PRMINPTRN(FRSCHR='E0'X,NXTTBL=YES);
      234    43602        %KV_PRMINPTRN(FRSCHR='E2'X,LSTCHR='E6'X,
      235    43603          TRNCHR ="ASCIIS,ASCIIT,ASCIIU,ASCIIV,ASCIIW");
      236    43771        %KV_PRMINPTRN(FRSCHR='E7'X,LSTCHR='E9'X,
      237    43772          TRNCHR ="ASCIIX,ASCIIY,ASCIIZ");
      238    43926
      239    43927        %KV_PRMINPTRN(FRSCHR='F0'X,LSTCHR='F4'X,
      240    43928          TRNCHR ="ASCII0,ASCII1,ASCII2,ASCII3,ASCII4");
      241    44096        %KV_PRMINPTRN(FRSCHR='F5'X,LSTCHR='F9'X,
      242    44097          TRNCHR ="ASCII5,ASCII6,ASCII7,ASCII8,ASCII9",
      243    44098          LAST ='YES');
      244    44266        %EJECT;
PL6.E3A0      #001=KZ_3270XLATE_D File=KZ_3270XLATE_D.:E05TSI                    WED 07/30/97 03:05 Page:29
      245    44267
      246    44268        %KV_SCNINPTRN(NAME= KZ_TRNINP3270_2,
      247    44269          TRNCHR ='[]!$^#@\',LAST='YES');
      248    44313
      249    44314        %KV_SCNINPTRN(NAME= KZ_TRNINP3270_2L,
      250    44315          TRNCHR ='^|!$~#@\',LAST='YES');
      251    44359
      252    44360        %KV_SCNINPTRN(NAME= KZ_TRNINP3270_2E,
      253    44361          TRNCHR ='#!$]^[\@',LAST='YES');
      254    44405        %EJECT;
PL6.E3A0      #001=KZ_3270XLATE_D File=KZ_3270XLATE_D.:E05TSI                    WED 07/30/97 03:05 Page:30
      255    44406        /*
      256    44407         *
      257    44408         *     3270 - for 3271,3274 and 3277 devices
      258    44409         *
      259    44410         *     same as next table (3276LIM) except for the following:
      260    44411         *
      261    44412         *             EBCDIC                  ASCII
      262    44413         *
      263    44414         *             right paren  <---       right brace
      264    44415         *             left paren   <---       left brace
      265    44416         *             pound sign   <---       accent grave
      266    44417         *             pound sign   <---       backslash
      267    44418         *
      268    44419         */
      269    44420        %KV$TRNTBL(NAME= KZ_3270,STCLASS= CONSTANT SYMDEF,
      270    44421          INPTRN1= KZ_TRNINP3270_1,
      271    44422          INPTRN2= KZ_TRNINP3270_2L,
      272    44423          OTPTRN1= KZ_TRNOTP3270_1,
      273    44424          OTPTRN2= KZ_TRNOTP3270_2LL,
      274    44425          OTPTRN3=NIL,
      275    44426          EXTINPTRN=NIL,
      276    44427          EXTOTPTRN=NIL,
      277    44428          LNK=NIL,
      278    44429          INPCHRMSK='00FF'X,
      279    44430          NAM='3270',
      280    44431          FNTCLS= EBC,
      281    44432          SPCESC=KZ_TRNINP3270_1.SPCESC,
      282    44433          INPTKN=KZ_TRNINP3270_1.TKNTBL,
      283    44434          OTPESCCHR="%BITBIN(%KZ#3270OTPCTRCHR)",
      284    44435          OTPESCCHR1="%BITASC(%KZ#3270OTPCTRCHR)",
      285    44436          OTPESCCHR2="%BINASC(0)",
      286    44437          SP_CHR="%BITASC(EBCDICSP)",
      287    44438          HT_CHR="%BITASC(EBCDICNMB)",
      288    44439          INPCTRSTRINTCHR="%BITASC(%KZ#3270INPCTRCHR)",
      289    44440          PRTAPL='0'B,
      290    44441          DRCOTPTRN='0'B,
      291    44442          TRNINPCTRSTRID='1'B);
PL6.E3A0      #001=KZ_3270XLATE_D File=KZ_3270XLATE_D.:E05TSI                    WED 07/30/97 03:05 Page:31
      292    44500        %EJECT;
PL6.E3A0      #001=KZ_3270XLATE_D File=KZ_3270XLATE_D.:E05TSI                    WED 07/30/97 03:05 Page:32
      293    44501        /*
      294    44502         *
      295    44503         *     3276LIM - limited character set 3276 translate table
      296    44504         *
      297    44505         *     Translation table for limited character set terminals.
      298    44506         *     Note that even users with full character sets may want
      299    44507         *     to use this table.
      300    44508         *
      301    44509         *             EBCDIC                       ASCII
      302    44510         *
      303    44511         *             not sign        <--->        tilde
      304    44512         *             solid-vert-line <--->        broken vert line
      305    44513         *             cent sign       <--->        vertical arrow
      306    44514         *             left paren      <---         left bracket
      307    44515         *             right paren     <---         right bracket
      308    44516         *
      309    44517         */
      310    44518        %KV$TRNTBL(NAME= KZ_3270LIM,STCLASS=CONSTANT SYMDEF,
      311    44519          INPTRN1= KZ_TRNINP3270_1,
      312    44520          INPTRN2= KZ_TRNINP3270_2L,
      313    44521          OTPTRN1= KZ_TRNOTP3270_1,
      314    44522          OTPTRN2= KZ_TRNOTP3270_2L,
      315    44523          OTPTRN3=NIL,
      316    44524          EXTINPTRN=NIL,
      317    44525          EXTOTPTRN=NIL,
      318    44526          LNK= KZ_3270,
      319    44527          INPCHRMSK='00FF'X,
      320    44528          NAM='3276LIM',
      321    44529          FNTCLS= EBC,
      322    44530          SPCESC=KZ_TRNINP3270_1.SPCESC,
      323    44531          INPTKN=KZ_TRNINP3270_1.TKNTBL,
      324    44532          OTPESCCHR="%BITBIN(%KZ#3270OTPCTRCHR)",
      325    44533          OTPESCCHR1="%BITASC(%KZ#3270OTPCTRCHR)",
      326    44534          OTPESCCHR2="%BINASC(0)",
      327    44535          SP_CHR="%BITASC(EBCDICSP)",
      328    44536          HT_CHR="%BITASC(EBCDICNMB)",
      329    44537          INPCTRSTRINTCHR="%BITASC(%KZ#3270INPCTRCHR)",
PL6.E3A0      #001=KZ_3270XLATE_D File=KZ_3270XLATE_D.:E05TSI                    WED 07/30/97 03:05 Page:33
      330    44538          PRTAPL='0'B,
      331    44539          DRCOTPTRN='0'B,
      332    44540          TRNINPCTRSTRID='1'B);
      333    44598        %EJECT;
PL6.E3A0      #001=KZ_3270XLATE_D File=KZ_3270XLATE_D.:E05TSI                    WED 07/30/97 03:05 Page:34
      334    44599        /*  3276STD - standard 3276 translate table
      335    44600        *
      336    44601        *            The standard EBCDIC-ASCII translation with the following
      337    44602        *            for those characters that have no equivalent:
      338    44603        *
      339    44604        *                   EBCDIC                  ASCII
      340    44605        *
      341    44606        *                 not-sign         <-->   vertical-arrow
      342    44607        *                 cent-sign        <-->   left-bracket
      343    44608        *                 solid-vert-line  <-->   right-bracket
      344    44609        */
      345    44610        %KV$TRNTBL( NAME= KZ_3270STD,STCLASS= CONSTANT SYMDEF,
      346    44611          INPTRN1= KZ_TRNINP3270_1,
      347    44612          INPTRN2= KZ_TRNINP3270_2,
      348    44613          OTPTRN1= KZ_TRNOTP3270_1,
      349    44614          OTPTRN2= KZ_TRNOTP3270_2,
      350    44615          OTPTRN3=NIL,
      351    44616          EXTINPTRN=NIL,
      352    44617          EXTOTPTRN=NIL,
      353    44618          LNK= KZ_3270EUR,
      354    44619          INPCHRMSK='00FF'X,
      355    44620          NAM='3276STD',
      356    44621          FNTCLS= EBC,
      357    44622          SPCESC=KZ_TRNINP3270_1.SPCESC,
      358    44623          INPTKN=KZ_TRNINP3270_1.TKNTBL,
      359    44624          OTPESCCHR="%BITBIN(%KZ#3270OTPCTRCHR)",
      360    44625          OTPESCCHR1="%BITASC(%KZ#3270OTPCTRCHR)",
      361    44626          OTPESCCHR2="%BINASC(0)",
      362    44627          SP_CHR="%BITASC(EBCDICSP)",
      363    44628          HT_CHR="%BITASC(EBCDICNMB)",
      364    44629          INPCTRSTRINTCHR="%BITASC(%KZ#3270INPCTRCHR)",
      365    44630          PRTAPL='0'B,
      366    44631          DRCOTPTRN='0'B,
      367    44632          TRNINPCTRSTRID='1'B);
      368    44690        %EJECT;
PL6.E3A0      #001=KZ_3270XLATE_D File=KZ_3270XLATE_D.:E05TSI                    WED 07/30/97 03:05 Page:35
      369    44691        /*  3270EUR - European 3270 translate table
      370    44692        *
      371    44693        *            The standard EBCDIC-ASCII translation with the following
      372    44694        *            for those characters that have no equivalent:
      373    44695        *
      374    44696        *                   EBCDIC                  ASCII
      375    44697        *
      376    44698        *                 not-sign         <-->   vertical-arrow
      377    44699        *                 cent-sign        <-->   left-bracket
      378    44700        *                 solid-vert-line  <-->   right-bracket
      379    44701        *            And the following permutation for European IBM standards:
      380    44702        *
      381    44703        *                US ASCII                   EUROPE ASCII
      382    44704        *
      383    44705        *                ! # $ @ [ \ ]     <-->     $ [ ] \ # @ !
      384    44706        *
      385    44707        */
      386    44708        %KV$TRNTBL( NAME= KZ_3270EUR,STCLASS= CONSTANT SYMDEF,
      387    44709          INPTRN1= KZ_TRNINP3270_1,
      388    44710          INPTRN2= KZ_TRNINP3270_2E,
      389    44711          OTPTRN1= KZ_TRNOTP3270_1,
      390    44712          OTPTRN2= KZ_TRNOTP3270_2E,
      391    44713          OTPTRN3=NIL,
      392    44714          EXTINPTRN=NIL,
      393    44715          EXTOTPTRN=NIL,
      394    44716          LNK= KZ_3270LIM,
      395    44717          INPCHRMSK='00FF'X,
      396    44718          NAM='3270EUR',
      397    44719          FNTCLS= EBC,
      398    44720          SPCESC=KZ_TRNINP3270_1.SPCESC,
      399    44721          INPTKN=KZ_TRNINP3270_1.TKNTBL,
      400    44722          OTPESCCHR="%BITBIN(%KZ#3270OTPCTRCHR)",
      401    44723          OTPESCCHR1="%BITASC(%KZ#3270OTPCTRCHR)",
      402    44724          OTPESCCHR2="%BINASC(0)",
      403    44725          SP_CHR="%BITASC(EBCDICSP)",
      404    44726          HT_CHR="%BITASC(EBCDICNMB)",
      405    44727          INPCTRSTRINTCHR="%BITASC(%KZ#3270INPCTRCHR)",
PL6.E3A0      #001=KZ_3270XLATE_D File=KZ_3270XLATE_D.:E05TSI                    WED 07/30/97 03:05 Page:36
      406    44728          PRTAPL='0'B,
      407    44729          DRCOTPTRN='0'B,
      408    44730          TRNINPCTRSTRID='1'B);
      409    44788    1   END;

PL6.E3A0      #001=KZ_3270XLATE_D File=KZ_3270XLATE_D.:E05TSI                    WED 07/30/97 03:05 Page:37
--  Include file information  --

   KZ_3270_C.:E05TOU  is referenced.
   KV_GLBCNS_E.:E05TOU  is referenced.
   KV_TRNTBL_M.:E05TOU  is referenced.
   KV_EBCCHR_E.:E05TOU  is referenced.
   KV_ASCCHR_E.:E05TOU  is referenced.
   KV$GLB.:E05TOU  is referenced.
   KV$INT.:E05TOU  is referenced.
      No diagnostics issued in procedure KZ_3270XLATE_D.
PL6.E3A0      #001=KZ_3270XLATE_D File=KZ_3270XLATE_D.:E05TSI                    WED 07/30/97 03:05 Page:38

 **** Variables and constants ****

  ****  Section 000 RoData KZ_3270XLATE_D

  ****  Scalars and arrays  ****
HexLoc.c.b A Datatyp(siz) R M Lvl/name                 HexLoc.c.b A Datatyp(siz) R M Lvl/name

   190-0-0/w STRC(499)   r     1 KZ_3270                  1F0-0-0/w STRC(499)   r     1 KZ_3270EUR
   1B0-0-0/w STRC(499)   r     1 KZ_3270LIM               1D0-0-0/w STRC(499)   r     1 KZ_3270STD
    D8-0-0/c STRC(2560)  r     1 KZ_TRNINP3270_1          178-0-0/c STRC(128)   r     1 KZ_TRNINP3270_2
   188-0-0/c STRC(128)   r     1 KZ_TRNINP3270_2E         180-0-0/c STRC(128)   r     1 KZ_TRNINP3270_2L
     0-0-0/c STRC(2048)  r     1 KZ_TRNOTP3270_1           80-0-0/c STRC(341)   r     1 KZ_TRNOTP3270_2
    C2-0-0/c STRC(341)   r     1 KZ_TRNOTP3270_2E          96-0-0/c STRC(341)   r     1 KZ_TRNOTP3270_2L
    AC-0-0/c STRC(341)   r     1 KZ_TRNOTP3270_2LL


   No code generated for procedure KZ_3270XLATE_D .
   Procedure KZ_3270XLATE_D requires 4 words of local(AUTO) storage.

    No errors detected in file KZ_3270XLATE_D.:E05TSI    .
PL6.E3A0      #001=KZ_3270XLATE_D File=KZ_3270XLATE_D.:E05TSI                    WED 07/30/97 03:05 Page:39
          *** CROSS REFERENCE LISTING ***
**     DENOTES     IDENTIFIER DEFINITION
<<                 IDENTIFIER'S VALUE SET
>>                 IDENTIFIER'S VALUE USED
<>                 IDENTIFIER SET AND/OR USED
--                 IDENTIFIER REFERENCED
PL6.E3A0      #001=KZ_3270XLATE_D File=KZ_3270XLATE_D.:E05TSI                    WED 07/30/97 03:05 Page:40
          MINI XREF LISTING

KZ_3270
     44475**DCL     44484--DCLINIT 44577--DCLINIT
KZ_3270.OTPESCCHR
     44493**DCL     44493--REDEF
KZ_3270EUR
     44763**DCL     44669--DCLINIT 44772--DCLINIT
KZ_3270EUR.OTPESCCHR
     44781**DCL     44781--REDEF
KZ_3270LIM
     44573**DCL     44582--DCLINIT 44767--DCLINIT
KZ_3270LIM.OTPESCCHR
     44591**DCL     44591--REDEF
KZ_3270STD
     44665**DCL     44674--DCLINIT
KZ_3270STD.OTPESCCHR
     44683**DCL     44683--REDEF
KZ_TRNINP3270_1
     19661**DCL     44490--DCLINIT 44588--DCLINIT 44680--DCLINIT 44778--DCLINIT
KZ_TRNINP3270_1.SPCESC
     44262**DCL     44492--DCLINIT 44590--DCLINIT 44682--DCLINIT 44780--DCLINIT
KZ_TRNINP3270_1.TKNTBL
     44258**DCL     44492--DCLINIT 44590--DCLINIT 44682--DCLINIT 44780--DCLINIT
KZ_TRNINP3270_2
     44272**DCL     44680--DCLINIT
KZ_TRNINP3270_2E
     44364**DCL     44778--DCLINIT
KZ_TRNINP3270_2L
     44318**DCL     44490--DCLINIT 44588--DCLINIT
KZ_TRNOTP3270_1
      2290**DCL     44490--DCLINIT 44588--DCLINIT 44680--DCLINIT 44778--DCLINIT
KZ_TRNOTP3270_2
      9132**DCL     44681--DCLINIT
PL6.E3A0      #001=KZ_3270XLATE_D File=KZ_3270XLATE_D.:E05TSI                    WED 07/30/97 03:05 Page:41
KZ_TRNOTP3270_2E
     17028**DCL     44779--DCLINIT
KZ_TRNOTP3270_2L
     11764**DCL     44589--DCLINIT
KZ_TRNOTP3270_2LL
     14396**DCL     44491--DCLINIT
