VERSION E05

PL6.E3A0      #001=KZ_DTBLS_D File=KZ_DTBLS_D.:E05TSI                            WED 07/30/97 03:05 Page:1
        1        1        /*M* Protocol Specific Data used by Common Line Manager.   */
        2        2        /*T***********************************************************/
        3        3        /*T*                                                         */
        4        4        /*T* Copyright (c) Bull HN Information Systems Inc., 1997    */
        5        5        /*T*                                                         */
        6        6        /*T***********************************************************/
        7        7
        8        8        /*X*     PLM=3,SQB=Y,AND=Y,ENI=0,SDI=3,MCL=10,CSI=0,ECI=0,IND=0,IAD=3,MOC=Y   */
        9        9        /*P* NAME: KZ_DTBLS_D
       10       10             PURPOSE: Define protocol specific data for use by the Common Line
       11       11             Manager.  Specifically, provides a table of pointers to protocol
       12       12             tables and some stats selection and display values for each
       13       13             protocol type.                                              */
       14       14
       15       15
       16       16        KZ_DTBLS_D: PROC;
       17       17
       18       18        %INCLUDE K_ID_E;
       19       68
       20       69
       21       70        %K#ENTID_E;
       22       89
       23       90    1   DCL KZ_NHDR UBIN STATIC SYMDEF INIT(14);
       24       91
       25       92    1   DCL KZ_HDR$(0:13) PTR STATIC SYMDEF INIT(
       26       93    1    ADDR(KZ_INIT_HDR),
       27       94    1    ADDR(NIL)*0);
       28       95
       29       96
       30       97
       31       98         /* Stats select/display definitions for each protocol type */
       32       99
       33      100    1   DCL KZ_SLCENTX(0:13) UBIN BYTE STATIC SYMDEF INIT(
       34      101    1    0,0,0,0,0,0,
       35      102    1    %KH#ENTID_RBT,                         /* 2780, 3780 and HASP select         */
       36      103    1    0,
       37      104    1    %KH#ENTID_3270,
PL6.E3A0      #001=KZ_DTBLS_D File=KZ_DTBLS_D.:E05TSI                            WED 07/30/97 03:05 Page:2
       38      105    1    0,0,0,
       39      106    1    %KH#ENTID_PLDVIP,
       40      107    1    0);
       41      108    1   DCL KZ_INIT_HDR UBIN SYMREF;
       42      109
       43      110    1   DCL KZ_INT_LEV UBIN STATIC SYMDEF INIT(26);
       44      111    1   DCL KZ_VDHTRCBFRBYTSIZ UBIN STATIC SYMDEF INIT(64);
       45      112    1   DCL KZ_LINERRLOGLMT UBIN STATIC SYMDEF INIT(255);
       46      113    1   DCL KZ_LINERRDSCLMT UBIN STATIC SYMDEF INIT(255);
       47      114
       48      115        /*
       49      116             CCP load biases, for MLC-8 (MLCP) and MLC-16 (NMLC).
       50      117             Says where in the controller we relocate/download the CCPs.
       51      118        */
       52      119
       53      120    1   DCL KZ_CCPLODBIS_MLC8 UBIN WORD STATIC SYMDEF INIT(%BITBIN('0200'X));
       54      121    1   DCL KZ_CCPLODBIS_MLC16 UBIN WORD STATIC SYMDEF INIT(%BITBIN('1200'X));
       55      122    1   END;

PL6.E3A0      #001=KZ_DTBLS_D File=KZ_DTBLS_D.:E05TSI                            WED 07/30/97 03:05 Page:3
--  Include file information  --

   K_ID_E.:E05TOU  is referenced.
      No diagnostics issued in procedure KZ_DTBLS_D.

   No code generated for procedure KZ_DTBLS_D .
   Procedure KZ_DTBLS_D requires 4 words of local(AUTO) storage.

    No errors detected in file KZ_DTBLS_D.:E05TSI    .

PL6.E3A0      #001=KZ_DTBLS_D File=KZ_DTBLS_D.:E05TSI                            WED 07/30/97 03:05 Page:4

 Object Unit name= KZ_DTBLS_D                                 File name= KZ_DTBLS_D.:E05TOU
 UTS= JUL 30 '97 03:05:41.08 WED                              Compiler= PL-6/E31         Sev=      00
 SharedLib= :SHARED_LCP6_SYSTEM                               Alt SharedLib=


    ****  Control sections  ****

 Sect   Type Bound  Init  Size HexSiz  Section name
    0   Data  even  none    49     31  KZ_DTBLS_D
    1   Proc  even  none     0      0  KZ_DTBLS_D

    ****  Entry defs  ****

                              Check   Calling
                             calling  sequence
  Sect HexLoc Primary Altret sequence   type   Parms  Name
     1      0   yes            yes     ~proc       0  KZ_DTBLS_D

  ****  Data defs  ****

 Sect HexLoc  Name                           Sect HexLoc  Name
    0      0  KZ_NHDR                            0      1  KZ_HDR$
    0     1D  KZ_SLCENTX                         0     2B  KZ_INT_LEV
    0     2C  KZ_VDHTRCBFRBYTSIZ                 0     2D  KZ_LINERRLOGLMT
    0     2E  KZ_LINERRDSCLMT                    0     2F  KZ_CCPLODBIS_MLC8
    0     30  KZ_CCPLODBIS_MLC16

  ****  Data refs  ****

  Flags:  r = read only, s = secondary
Flgs Name                             Flgs Name                             Flgs Name
     KZ_INIT_HDR                      r    G$ROS$
PL6.E3A0      #001=KZ_DTBLS_D File=KZ_DTBLS_D.:E05TSI                            WED 07/30/97 03:05 Page:5

        1        1        /*M* Protocol Specific Data used by Common Line Manager.   */
        2        2        /*T***********************************************************/
        3        3        /*T*                                                         */
        4        4        /*T* Copyright (c) Bull HN Information Systems Inc., 1997    */
        5        5        /*T*                                                         */
        6        6        /*T***********************************************************/
        7        7
        8        8        /*X*     PLM=3,SQB=Y,AND=Y,ENI=0,SDI=3,MCL=10,CSI=0,ECI=0,IND=0,IAD=3,MOC=Y   */
        9        9        /*P* NAME: KZ_DTBLS_D
       10       10             PURPOSE: Define protocol specific data for use by the Common Line
       11       11             Manager.  Specifically, provides a table of pointers to protocol
       12       12             tables and some stats selection and display values for each
       13       13             protocol type.                                              */
       14       14
       15       15
       16       16        KZ_DTBLS_D: PROC;
       17       17
       18       18        %INCLUDE K_ID_E;
       19       68
       20       69
       21       70        %K#ENTID_E;
       22       89
       23       90    1   DCL KZ_NHDR UBIN STATIC SYMDEF INIT(14);
       24       91
       25       92    1   DCL KZ_HDR$(0:13) PTR STATIC SYMDEF INIT(
       26       93    1    ADDR(KZ_INIT_HDR),
       27       94    1    ADDR(NIL)*0);
       28       95
       29       96
       30       97
       31       98         /* Stats select/display definitions for each protocol type */
       32       99
       33      100    1   DCL KZ_SLCENTX(0:13) UBIN BYTE STATIC SYMDEF INIT(
       34      101    1    0,0,0,0,0,0,
       35      102    1    %KH#ENTID_RBT,                         /* 2780, 3780 and HASP select         */
       36      103    1    0,
       37      104    1    %KH#ENTID_3270,
PL6.E3A0      #001=KZ_DTBLS_D File=KZ_DTBLS_D.:E05TSI                            WED 07/30/97 03:05 Page:6
       38      105    1    0,0,0,
       39      106    1    %KH#ENTID_PLDVIP,
       40      107    1    0);
       41      108    1   DCL KZ_INIT_HDR UBIN SYMREF;
       42      109
       43      110    1   DCL KZ_INT_LEV UBIN STATIC SYMDEF INIT(26);
       44      111    1   DCL KZ_VDHTRCBFRBYTSIZ UBIN STATIC SYMDEF INIT(64);
       45      112    1   DCL KZ_LINERRLOGLMT UBIN STATIC SYMDEF INIT(255);
       46      113    1   DCL KZ_LINERRDSCLMT UBIN STATIC SYMDEF INIT(255);
       47      114
       48      115        /*
       49      116             CCP load biases, for MLC-8 (MLCP) and MLC-16 (NMLC).
       50      117             Says where in the controller we relocate/download the CCPs.
       51      118        */
       52      119
       53      120    1   DCL KZ_CCPLODBIS_MLC8 UBIN WORD STATIC SYMDEF INIT(%BITBIN('0200'X));
       54      121    1   DCL KZ_CCPLODBIS_MLC16 UBIN WORD STATIC SYMDEF INIT(%BITBIN('1200'X));
       55      122    1   END;

PL6.E3A0      #001=KZ_DTBLS_D File=KZ_DTBLS_D.:E05TSI                            WED 07/30/97 03:05 Page:7
--  Include file information  --

   K_ID_E.:E05TOU  is referenced.
      No diagnostics issued in procedure KZ_DTBLS_D.
PL6.E3A0      #001=KZ_DTBLS_D File=KZ_DTBLS_D.:E05TSI                            WED 07/30/97 03:05 Page:8

 **** Variables and constants ****

  ****  SYMREF variables  ****

  ****  Scalars and arrays  ****
HexLoc.c.b A Datatyp(siz) R M Lvl/name                 HexLoc.c.b A Datatyp(siz) R M Lvl/name

     0-0-0/w UBIN(16)    r     1 KZ_INIT_HDR


   No code generated for procedure KZ_DTBLS_D .
   Procedure KZ_DTBLS_D requires 4 words of local(AUTO) storage.

    No errors detected in file KZ_DTBLS_D.:E05TSI    .
PL6.E3A0      #001=KZ_DTBLS_D File=KZ_DTBLS_D.:E05TSI                            WED 07/30/97 03:05 Page:9
          *** CROSS REFERENCE LISTING ***
**     DENOTES     IDENTIFIER DEFINITION
<<                 IDENTIFIER'S VALUE SET
>>                 IDENTIFIER'S VALUE USED
<>                 IDENTIFIER SET AND/OR USED
--                 IDENTIFIER REFERENCED
PL6.E3A0      #001=KZ_DTBLS_D File=KZ_DTBLS_D.:E05TSI                            WED 07/30/97 03:05 Page:10
          MINI XREF LISTING

KZ_INIT_HDR
       108**DCL        93--DCLINIT
