VERSION E05

PL6.E3A0      #001=KZ_INPFNC_D File=KZ_HIPINPFNC_D.:E05TSI                       WED 07/30/97 03:06 Page:1
        1        1        /*M* KZ_INPFNC_D HIP HANDLER INPUT FUNCTION DATA */
        2        2        /*T***********************************************************/
        3        3        /*T*                                                         */
        4        4        /*T* Copyright (c) Bull HN Information Systems Inc., 1997    */
        5        5        /*T*                                                         */
        6        6        /*T***********************************************************/
        7        7        KZ_INPFNC_D: PROC;
        8        8        /*
        9        9           Standard (generally CP-5 compatible) input functions.
       10       10        */
       11       11        %INCLUDE KV_GLBCNS_E;
       12      352        %INCLUDE KV_ASCCHR_E;
       13      489        %INCLUDE KV_PRMID_E;
       14      663        %KV_CMPCOD_E;
       15      677        %KV_INPOPRX_E;
       16      689        %KV_PRMID_E;
       17      845        %INCLUDE KZ_GLBASM_E;
       18      927        %INCLUDE KZ_GLB_E;
       19     1012        %KZ_INPFNC_E;
       20     1064        %INCLUDE KV$INPFNC;
       21     1623        %INCLUDE KV$GLB;
       22     2042        %INCLUDE KV$VDH;
       23     2473        %KV_INPPRC_E;
       24     2525    1   DCL KZ_INPFNCTBLHED$ PTR CONSTANT SYMDEF INIT(ADDR(KZ_INPFNC.CP5));
       25     2526        %EJECT;
PL6.E3A0      #001=KZ_INPFNC_D File=KZ_HIPINPFNC_D.:E05TSI                       WED 07/30/97 03:06 Page:2
       26     2527        /*
       27     2528           CP-5 compatible (almost) system input function table.
       28     2529           Contains all of the CP-5 ESCAPE and control sequences, with
       29     2530           the following changes:
       30     2531
       31     2532           ESC-STX (ESC-CTRL-B) is the same as ESC-B except
       32     2533           that type-ahead is not deleted.
       33     2534
       34     2535           ESC-EOT (ESC-D) is the same as ESC-D except that the last
       35     2536           saved edit buffer for the current stream is recalled.
       36     2537           Host 'domain' is mapped into stream in B02.
       37     2538
       38     2539           ESC-A in CP5 is ESC-$ in CP6.
       39     2540
       40     2541           ESC-D in CP-6 always recalls the last saved input edit buffer.
       41     2542
       42     2543           ESC-G in CP-6 displays internal communications processor
       43     2544           information.
       44     2545
       45     2546           ESC-K in CP-6 deletes from the edit point thru the end of the
       46     2547           input record.
       47     2548
       48     2549           ESC-M (enter column replacement mode) resets ESC-O (enter
       49     2550           logical overstrike mode).  Since the architecture of the
       50     2551           CP-6 HIP handler is significantly different than the CP-5
       51     2552           COC handler, input editing in CP-6 is much more powerful.
       52     2553           As a result, the meaning of ESC-O has changed significantly.
       53     2554
       54     2555           ESC-N in CP-6 positions to the end of the input record.  ESC-D
       55     2556           in CP-5 did this, under some circumstances.
       56     2557
       57     2558           ESC-O has changed.  See ESC-M.
       58     2559
       59     2560           ESC-P (half-duplex paper tape mode) is exited upon receipt of
       60     2561           BREAK, CTRL-Y, ESC-ESC, or ESC-Y.
       61     2562
       62     2563           ESC-Q issues a response from the communications processor
PL6.E3A0      #001=KZ_INPFNC_D File=KZ_HIPINPFNC_D.:E05TSI                       WED 07/30/97 03:06 Page:3
       63     2564           (!HI!) and also (if logged on) from the host (E.G., !SCU!).
       64     2565
       65     2566           ESC-V-CHARACTER in CP-6 positions to the specified character in
       66     2567           the input record.
       67     2568
       68     2569           ESC-Z is not in CP-6 because coupling isn't.
       69     2570
       70     2571           ESC-$ selects the proper translate table.  CP-6 supports
       71     2572           bit-paired APL terminals, in addition to the normal ASCII and
       72     2573           and typewriter-paired APL terminals supported by CP-5.
       73     2574           As a result of ESC-$, two 'other' escapes appear to the normal
       74     2575           ASCII terminal user; they are ESC-X'7C' (ESC-VERTICAL-LINE)
       75     2576           and ESC-X'7E' (ESC-TILDE).  They will put the line into
       76     2577           one of the APL modes.  ESC-$ will return the line to normal
       77     2578           ASCII mode.
       78     2579
       79     2580           ESC-HYPHEN in CP-6 tells the handler that the terminal is
       80     2581           positioned at the perf.
       81     2582        */
       82     2583        %EJECT;
PL6.E3A0      #001=KZ_INPFNC_D File=KZ_HIPINPFNC_D.:E05TSI                       WED 07/30/97 03:06 Page:4
       83     2584        %KV_INPOPR (NAME=KZ_INPFNC, TYP=MSC, RED=); /* Dummy to get started           */
       84     2622        /*
       85     2623          INPOPRs used by routines that directly call the
       86     2624          input function interpreter with INPOPR indexes. These INPOPRs couldn't
       87     2625          be expressed in one word; these are "branched to" via
       88     2626          JMP INPOPRs below.
       89     2627        */
       90     2628        %EQU Y#INPOPR_PRTERR =KV_INPOPRX;
       91     2629        %KV_INPOPR (TYP=USRINPPRC, IMD=, ID=KZ#INPPRC_PRTERR, CHN=);
       92     2667        %KV_INPOPR (TYP=TXT, RED=, DSP=WRT,
       93     2668                       TXT="%CONCAT (BITASC (ASCIIBEL), BITASC (ASCIINMB))", CHN=);
       94     2706        %KV_INPOPR (TYP=ACTRED, RED=, CMPCOD=KV_CMPCOD_PRTERR);
       95     2744        %EQU Y#INPOPR_RE_RED =KV_INPOPRX;
       96     2745        %KV_INPOPR (TYP=VDHINPPRC, RED=, ID=KV_INPPRC_COPSTREDTBFR, CHN=);
       97     2783        %KV_INPOPR (TYP=VDHINPPRC, RED=, ID=KV_INPPRC_RE_TYP);
       98     2821        %EQU Y#INPOPR_RSTINSMOD =KV_INPOPRX;
       99     2822        %KV_INPOPR (TYP=VDHINPPRC, RED=, ID=KV_INPPRC_RSTINSMOD, CHN=);
      100     2860        %EQU Y#INPOPR_RE_TYP =KV_INPOPRX;
      101     2861        %KV_INPOPR (TYP=VDHINPPRC, RED=, ID=KV_INPPRC_RE_PSTRED, CHN=);
      102     2899        %KV_INPOPR (TYP=VDHINPPRC, RED=, ID=KV_INPPRC_RE_TYP);
      103     2937        %EJECT;
PL6.E3A0      #001=KZ_INPFNC_D File=KZ_HIPINPFNC_D.:E05TSI                       WED 07/30/97 03:06 Page:5
      104     2938        /*
      105     2939          INPOPRs for special characters that couldn't
      106     2940          be expressed in one word; these are "branched to" via
      107     2941          JMP INPOPRs below.
      108     2942        */
      109     2943        %EQU Y#ASCIIEM =KV_INPOPRX;
      110     2944        %KV_INPOPR (TYP=VDHINPPRC, IMD=, ID=KV_INPPRC_MNTATN, CHN=);
      111     2982        %KV_INPOPR (TYP=MSC, IMD=, DLTINP=, DLTOTP=, ABRRED=);
      112     3020        %EQU Y#F_MNTATN=KV_INPOPRX;
      113     3021        %KV_INPOPR (TYP=VDHINPPRC, IMD=, ID=KV_INPPRC_MNTATN, CHN=);
      114     3059        %KV_INPOPR (TYP=MSC, IMD=, DLTINP=, ABRRED=);
      115     3097        %EJECT;
PL6.E3A0      #001=KZ_INPFNC_D File=KZ_HIPINPFNC_D.:E05TSI                       WED 07/30/97 03:06 Page:6
      116     3098        %SET KV_INPOPR0=KV_INPOPRX-1;
      117     3099        /*
      118     3100          Input operators (INPOPRs) used by routines that directly call the
      119     3101          input function interpreter with INPOPR indexes.
      120     3102          These INPOPRs must have fixed (non-floating) displacements
      121     3103          from the start of the INPOPR table (KV_INPOPR0).
      122     3104        */
      123     3105        %KV_INPOPR (TEST=KV_INPOPRX_INT,
      124     3106           TYP=MSC, IMD=);            /* Initialization (after switching inpfnctbl's) */
      125     3144        %KV_INPOPR (TEST=KV_INPOPRX_PRGINP,
      126     3145           TYP=MSC, IMD=, DLTINP=);             /* M$PURGE input                      */
      127     3183        %KV_INPOPR (TEST=KV_INPOPRX_PRGOTP,
      128     3184           TYP=MSC, IMD=, DLTOTP=);             /* M$PURGE output                     */
      129     3222        %KV_INPOPR (TEST=KV_INPOPRX_PRTERR,
      130     3223           TYP=JMP, RED=, INPOPRX=Y#INPOPR_PRTERR); /*                                */
      131     3261        %KV_INPOPR (TEST=KV_INPOPRX_RE_RED,
      132     3262           TYP=JMP, IMD=, INPOPRX=Y#INPOPR_RE_RED); /*M$READ w/reread           */
      133     3300        %KV_INPOPR (TEST=KV_INPOPRX_RE_TYP,
      134     3301           TYP=JMP, IMD=, INPOPRX=Y#INPOPR_RE_TYP); /*G#FNCWRTIMD in read       */
      135     3339        %KV_INPOPR (TYP=MSC, RED=);             /* Spare                              */
      136     3377        %KV_INPOPR (TEST=KV_INPOPRX_REDDATLST,
      137     3378           TYP=ACTRED, RED=, CMPCOD=KV_CMPCOD_BFROVRRUN); /*                          */
      138     3416        %KV_INPOPR (TEST=KV_INPOPRX_RSTINSMOD,
      139     3417           TYP=JMP, RED=, INPOPRX=Y#INPOPR_RSTINSMOD); /*Reset insert mode      */
      140     3455        %KV_INPOPR (TYP=MSC, IMD=);             /* Spare 1                            */
      141     3493        %KV_INPOPR (TYP=MSC, IMD=);             /* Spare 2                            */
      142     3531        %KV_INPOPR (TYP=MSC, IMD=);             /* Spare 3                            */
      143     3569        %KV_INPOPR (TYP=MSC, IMD=);             /* Spare 4                            */
      144     3607        %EJECT;
PL6.E3A0      #001=KZ_INPFNC_D File=KZ_HIPINPFNC_D.:E05TSI                       WED 07/30/97 03:06 Page:7
      145     3608        /*
      146     3609           Input operators (INPOPRs) for special characters (SPCCHRs).
      147     3610           These INPOPRs must have fixed (non-floating) displacements
      148     3611           from the start of the INPOPR table (KV_INPOPR0).
      149     3612        */
      150     3613        %EQU Y#ASCIIBS =KV_INPOPRX;
      151     3614        %KV_INPOPR (TEST=KZ#SPCCHR_BS,
      152     3615           TYP=VDHINPPRC, RED=, ID=KV_INPPRC_PSTLFT); /* Ascii bs (backspace)         */
      153     3653        %KV_INPOPR (TEST=KZ#SPCCHR_CAN,
      154     3654           TYP=MSC, IMD=, DLTINP=, DLTRED=, DLTOTP=); /* Ascii can (ctr-x)            */
      155     3692        %KV_INPOPR (TEST=KZ#SPCCHR_CR,
      156     3693           TYP=VDHINPPRC, RED=, ID=KV_INPPRC_CR); /*Ascii cr (carriage return)        */
      157     3731        %KV_INPOPR (TEST=KZ#SPCCHR_DC1,
      158     3732           TYP=MSC, IMD=);
      159     3770        %EQU Y#ASCIIDC2 =KV_INPOPRX;
      160     3771        %KV_INPOPR (TEST=KZ#SPCCHR_DC2,
      161     3772           TYP=VDHINPPRC, RED=, ID=KV_INPPRC_PSTRHT); /* Ascii DC2                    */
      162     3810        %KV_INPOPR (TEST=KZ#SPCCHR_DC3,
      163     3811           TYP=MSC, IMD=);
      164     3849        %KV_INPOPR (TEST=KZ#SPCCHR_DEL,
      165     3850           TYP=VDHINPPRC, RED=, ID=KV_INPPRC_DEL); /*Ascii del (rubout)               */
      166     3888        %KV_INPOPR (TEST=KZ#SPCCHR_EM,
      167     3889           TYP=JMP, IMD=, INPOPRX=Y#ASCIIEM);   /* Ascii em (ctr-y)                   */
      168     3927        %KV_INPOPR (TEST=KZ#SPCCHR_ESC,
      169     3928           TYP=VDHINPPRC, IMD=, RED=, ID=KV_INPPRC_ESC); /*Ascii ESC                  */
      170     3966        %KV_INPOPR (TEST=KZ#SPCCHR_FF,
      171     3967           TYP=VDHINPPRC, RED=, ID=KV_INPPRC_SCREND); /*Ascii ff (ctr-l)              */
      172     4005        %EQU Y#ASCIIHT =KV_INPOPRX;
      173     4006        %KV_INPOPR (TEST=KZ#SPCCHR_HT,
      174     4007           TYP=VDHINPPRC, RED=, ID=KV_INPPRC_TAB); /* Ascii ht, ESC-I, ESC-HT         */
      175     4045        %KV_INPOPR (TEST=KZ#SPCCHR_LF,
      176     4046           TYP=VDHINPPRC, RED=, ID=KV_INPPRC_LF); /* Ascii lf (line feed)             */
      177     4084        /*
      178     4085           End of INPOPRs which must have fixed displacements.
      179     4086        */
      180     4087        %EJECT;
PL6.E3A0      #001=KZ_INPFNC_D File=KZ_HIPINPFNC_D.:E05TSI                       WED 07/30/97 03:06 Page:8
      181     4088        /*
      182     4089           Now we'll reproduce the fixed displacement ones for the forms table,
      183     4090           since ther'ye a little different.
      184     4091        */
      185     4092        /* First save and re-establish the zero point. */
      186     4093        %EQU KZ_CP5_0=KV_INPOPR0;
      187     4094        %SET KV_INPOPR0=KV_INPOPRX-1;
      188     4095        /*
      189     4096          Input operators (INPOPRs) used by routines that directly call the
      190     4097          input function interpreter with INPOPR indexes.
      191     4098          These INPOPRs must have fixed (non-floating) displacements
      192     4099          from the start of the INPOPR table (KV_INPOPR0).
      193     4100        */
      194     4101        %KV_INPOPR (TEST=KV_INPOPRX_INT,
      195     4102           TYP=MSC, IMD=);            /* Initialization (after switching inpfnctbl's) */
      196     4140        %KV_INPOPR (TEST=KV_INPOPRX_PRGINP,
      197     4141           TYP=MSC, IMD=, DLTINP=);             /* M$PURGE input                      */
      198     4179        %KV_INPOPR (TEST=KV_INPOPRX_PRGOTP,
      199     4180           TYP=MSC, IMD=, DLTOTP=);             /* M$PURGE output                     */
      200     4218        %KV_INPOPR (TEST=KV_INPOPRX_PRTERR,
      201     4219           TYP=JMP, RED=, INPOPRX=Y#INPOPR_PRTERR); /*                                */
      202     4257        %KV_INPOPR (TEST=KV_INPOPRX_RE_RED,
      203     4258           TYP=JMP, IMD=, INPOPRX=Y#INPOPR_RE_RED); /*M$READ w/reread           */
      204     4296        %KV_INPOPR (TEST=KV_INPOPRX_RE_TYP,
      205     4297           TYP=JMP, IMD=, INPOPRX=Y#INPOPR_RE_TYP); /*G#FNCWRTIMD in read       */
      206     4335        %KV_INPOPR (TYP=MSC, RED=);             /* Spare                              */
      207     4373        %KV_INPOPR (TEST=KV_INPOPRX_REDDATLST,
      208     4374           TYP=ACTRED, RED=, CMPCOD=KV_CMPCOD_BFROVRRUN); /*                          */
      209     4412        %KV_INPOPR (TEST=KV_INPOPRX_RSTINSMOD,
      210     4413           TYP=JMP, RED=, INPOPRX=Y#INPOPR_RSTINSMOD); /*Reset insert mode      */
      211     4451        %KV_INPOPR (TYP=MSC, IMD=);             /* Spare 1                            */
      212     4489        %KV_INPOPR (TYP=MSC, IMD=);             /* Spare 2                            */
      213     4527        %KV_INPOPR (TYP=MSC, IMD=);             /* Spare 3                            */
      214     4565        %KV_INPOPR (TYP=MSC, IMD=);             /* Spare 4                            */
      215     4603        %EJECT;
PL6.E3A0      #001=KZ_INPFNC_D File=KZ_HIPINPFNC_D.:E05TSI                       WED 07/30/97 03:06 Page:9
      216     4604        /*
      217     4605           Input operators (INPOPRs) for special characters (SPCCHRs).
      218     4606           These INPOPRs must have fixed (non-floating) displacements
      219     4607           from the start of the INPOPR table (KV_INPOPR0).
      220     4608        */
      221     4609        %KV_INPOPR (TEST=KZ#SPCCHR_BS,
      222     4610           TYP=VDHINPPRC, RED=, ID=KV_INPPRC_PSTLFT); /* Ascii bs (backspace)         */
      223     4648        %KV_INPOPR (TEST=KZ#SPCCHR_CAN,
      224     4649           TYP=MSC, IMD=, DLTINP=, DLTRED=);    /* Ascii can (ctr-x)                  */
      225     4687        %KV_INPOPR (TEST=KZ#SPCCHR_CR,
      226     4688           TYP=ACTRED, IMD=, CMPCOD=KV_CMPCOD_NRM); /*Ascii cr (carriage return)      */
      227     4726        %KV_INPOPR (TEST=KZ#SPCCHR_DC1,
      228     4727           TYP=MSC, IMD=);
      229     4765        %KV_INPOPR (TEST=KZ#SPCCHR_DC2,
      230     4766           TYP=VDHINPPRC, RED=, ID=KV_INPPRC_PSTRHT); /* Ascii DC2                    */
      231     4804        %KV_INPOPR (TEST=KZ#SPCCHR_DC3,
      232     4805           TYP=MSC, IMD=);
      233     4843        %KV_INPOPR (TEST=KZ#SPCCHR_DEL,
      234     4844           TYP=VDHINPPRC, RED=, ID=KV_INPPRC_DEL); /*Ascii del (rubout)               */
      235     4882        %KV_INPOPR (TEST=KZ#SPCCHR_EM,
      236     4883           TYP=JMP, IMD=, INPOPRX=Y#F_MNTATN);  /* Ascii em (ctr-y)                   */
      237     4921        %KV_INPOPR (TEST=KZ#SPCCHR_ESC,
      238     4922           TYP=VDHINPPRC, IMD=, RED=, ID=KV_INPPRC_ESC); /*Ascii ESC                  */
      239     4960        %KV_INPOPR (TEST=KZ#SPCCHR_FF,
      240     4961           TYP=MSC, IMD=);
      241     4999        %KV_INPOPR (TEST=KZ#SPCCHR_HT,
      242     5000           TYP=VDHINPPRC, RED=, ID=KV_INPPRC_TAB); /* Ascii ht, ESC-I, ESC-HT         */
      243     5038        %KV_INPOPR (TEST=KZ#SPCCHR_LF,
      244     5039           TYP=ACTRED, RED=, CMPCOD=KV_CMPCOD_NRM); /* Ascii lf (line feed)           */
      245     5077        %EQU KZ_FRM1_0=KV_INPOPR0;
      246     5078        /*
      247     5079           End of INPOPRs which must have fixed displacements.
      248     5080        */
      249     5081        %EJECT;
PL6.E3A0      #001=KZ_INPFNC_D File=KZ_HIPINPFNC_D.:E05TSI                       WED 07/30/97 03:06 Page:10
      250     5082        %SET KV_INPOPR0=KZ_CP5_0;
      251     5083        /*
      252     5084           INPOPRs for control strings
      253     5085        */
      254     5086        %EQU Y#INPCTRSTR_BRK=KV_INPOPRX;
      255     5087        %KV_INPOPR (TYP=VDHINPPRC, IMD=, ID=KV_INPPRC_BRK, CHN=);
      256     5125        %KV_INPOPR (TYP=USRINPPRC, IMD=, ID=KZ#INPPRC_DVCOTPBFRCLR, CHN=);
      257     5163        %KV_INPOPR (TYP=MSC,       IMD=, DLTINP=, DLTOTP=, ABRRED=, CHN=);
      258     5201        %KV_INPOPR (TYP=RSTPRM,    IMD=, PRMID=KV_PRMID_HALFDUPLEXPAPERTAPE);
      259     5239        %EQU Y#INPCTRSTR_CLAOVRRUN=KV_INPOPRX;
      260     5240        %KV_INPOPR (TYP=USRINPPRC, IMD=, ID=KZ#INPPRC_CLAOVRRUN, CHN=);
      261     5278        %KV_INPOPR (TYP=TXT,       RED=, DSP=WRT,
      262     5279                    TXT="%CONCAT (BITASC (ASCIIBEL), BITASC (ASCIINMB))", CHN=);
      263     5317        %KV_INPOPR (TYP=ACTRED,    RED=, CMPCOD=KV_CMPCOD_RATERR);
      264     5355        %EQU Y#INPCTRSTR_DSCLCL = KV_INPOPRX;
      265     5356        %KV_INPOPR (TYP=VDHINPPRC, IMD=, ID=KV_INPPRC_TGLLCLMOD, CHN=);
      266     5394        %EQU Y#INPCTRSTR_DSC=KV_INPOPRX;
      267     5395        %KV_INPOPR (TYP=MSC,       IMD=, DLTINP=, DLTOTP=, ABRRED=, CHN=);
      268     5433        %KV_INPOPR (TYP=VDHINPPRC, IMD=, ID=KV_INPPRC_DSC);
      269     5471        %EJECT;
PL6.E3A0      #001=KZ_INPFNC_D File=KZ_HIPINPFNC_D.:E05TSI                       WED 07/30/97 03:06 Page:11
      270     5472        /*
      271     5473           Input operators (INPOPRs) for ESCAPE sequences (INPFNCs).
      272     5474        */
      273     5475        %EQU Y#ESC_SOH=KV_INPOPRX;
      274     5476        %KV_INPOPR (TYP=TGLPRM,    IMD=, ACK=, PRMID=KV_PRMID_WRPPAG);
      275     5514        %EQU Y#ESC_STX=KV_INPOPRX;
      276     5515        %KV_INPOPR (TYP=VDHINPPRC, IMD=, ID=KV_INPPRC_BRK, CHN=);
      277     5553        %KV_INPOPR (TYP=MSC,       IMD=, ABRRED=);
      278     5591        %EQU Y#ESC_EOT=KV_INPOPRX;
      279     5592        %KV_INPOPR (TYP=VDHINPPRC, RED=, ACK=, ID=KV_INPPRC_COPSTREDTBFR, CHN=);
      280     5630        %KV_INPOPR (TYP=VDHINPPRC, RED=, ID=KV_INPPRC_RE_PSTRED, CHN=);
      281     5668        %KV_INPOPR (TYP=VDHINPPRC, RED=, ID=KV_INPPRC_RE_TYP);
      282     5706        %EQU Y#ESC_LF=KV_INPOPRX;
      283     5707        %KV_INPOPR (TYP=VDHINPPRC, RED=, ID=KV_INPPRC_LCLLF);
      284     5745        %EQU Y#ESC_VT=KV_INPOPRX;
      285     5746        %KV_INPOPR (TYP=VDHINPPRC, RED=, ID=KV_INPPRC_DLTTO_BGN);
      286     5784        %EQU Y#ESC_CR=KV_INPOPRX;
      287     5785        %KV_INPOPR (TYP=VDHINPPRC, RED=, ID=KV_INPPRC_PSTBGNRED);
      288     5823        %EQU Y#ESC_DC2=KV_INPOPRX;
      289     5824        %KV_INPOPR (TYP=VDHINPPRC, RED=, ID=KV_INPPRC_RSTINSMOD);
      290     5862        %EQU Y#ESC_DC4=KV_INPOPRX;
      291     5863        %KV_INPOPR (TYP=TGLPRM,    IMD=, ACK=, PRMID=KV_PRMID_TRUNCATE);
      292     5901        %EQU Y#ESC_LFTPRN=KV_INPOPRX;
      293     5902        %KV_INPOPR (TYP=RSTPRM,    RED=, ACK=, PRMID=KV_PRMID_LOWERCASE);
      294     5940        %EQU Y#ESC_RHTPRN=KV_INPOPRX;
      295     5941        %KV_INPOPR (TYP=SETPRM,    RED=, ACK=, PRMID=KV_PRMID_LOWERCASE);
      296     5979        %EQU Y#ESC_APLDLR=KV_INPOPRX;
      297     5980        %KV_INPOPR (TYP=USRINPPRC, IMD=, ACK=, ID=KZ#INPPRC_SETTRNTBL);
      298     6018        %EQU Y#ESC_HPH=KV_INPOPRX;
      299     6019        %KV_INPOPR (TYP=VDHINPPRC, IMD=, ID=KV_INPPRC_AT_PRF);
      300     6057        %EQU Y#ESC_LFTARW=KV_INPOPRX;
      301     6058        %KV_INPOPR (TYP=VDHINPPRC, RED=, ID=KV_INPPRC_SETINSLOWX);
      302     6096        %EQU Y#ESC_RHTARW=KV_INPOPRX;
      303     6097        %KV_INPOPR (TYP=VDHINPPRC, RED=, ID=KV_INPPRC_SETINSHI_X);
      304     6135        %EQU Y#ESC_A=KV_INPOPRX;
      305     6136        %KV_INPOPR (TYP=TGLPRM,    IMD=, ACK=, PRMID=KV_PRMID_PAGEHALT);
      306     6174        %EQU Y#ESC_B=KV_INPOPRX;
PL6.E3A0      #001=KZ_INPFNC_D File=KZ_HIPINPFNC_D.:E05TSI                       WED 07/30/97 03:06 Page:12
      307     6175        %KV_INPOPR (TYP=VDHINPPRC, IMD=, ID=KV_INPPRC_BRK, CHN=);
      308     6213        %KV_INPOPR (TYP=MSC,       IMD=, DLTINP=, ABRRED=);
      309     6251        %EQU Y#ESC_C=KV_INPOPRX;
      310     6252        %KV_INPOPR (TYP=TGLPRM,    RED=, ACK=, PRMID=KV_PRMID_TABRELATIVE);
      311     6290        %EQU Y#ESC_D=KV_INPOPRX;
      312     6291        %KV_INPOPR (TYP=VDHINPPRC, RED=, ACK=, ID=KV_INPPRC_COPSSNEDTBFR, CHN=);
      313     6329        %KV_INPOPR (TYP=VDHINPPRC, RED=, ID=KV_INPPRC_RE_PSTRED, CHN=);
      314     6367        %KV_INPOPR (TYP=VDHINPPRC, RED=, ID=KV_INPPRC_RE_TYP);
      315     6405        %EQU Y#ESC_E=KV_INPOPRX;
      316     6406        %KV_INPOPR (TYP=TGLPRM,    RED=, ACK=, PRMID=KV_PRMID_DISPINPUT);
      317     6444        %EQU Y#ESC_F=KV_INPOPRX;
      318     6445        %KV_INPOPR (TYP=ACTRED,    RED=, ACK=, CMPCOD=KV_CMPCOD_EOF);
      319     6483        %EQU Y#ESC_G=KV_INPOPRX;
      320     6484        %KV_INPOPR (TYP=VDHINPPRC, IMD=, ID=KV_INPPRC_OTPPRTID);
      321     6522        %EQU Y#ESC_H=KV_INPOPRX;
      322     6523        %KV_INPOPR (TYP=USRINPPRC, IMD=, ID=KZ#INPPRC_HLTOTP);
      323     6561        %EQU Y#ESC_J=KV_INPOPRX;
      324     6562        %KV_INPOPR (TYP=VDHINPPRC, RED=, ID=KV_INPPRC_SETINSHI_X);
      325     6600        %EQU Y#ESC_K=KV_INPOPRX;
      326     6601        %KV_INPOPR (TYP=VDHINPPRC, RED=, ACK=, ID=KV_INPPRC_DLTTO_END);
      327     6639        %EQU Y#ESC_L=KV_INPOPRX;
      328     6640        %KV_INPOPR (TYP=VDHINPPRC, RED=, ID=KV_INPPRC_PAGBRK);
      329     6678        %EQU Y#ESC_M=KV_INPOPRX;
      330     6679        %KV_INPOPR (TYP=RSTPRM,    RED=, PRMID=KV_PRMID_INSMOD, CHN=);
      331     6717        %KV_INPOPR (TYP=RSTPRM,    RED=, PRMID=KV_PRMID_OVRSTR);
      332     6755        %EQU Y#ESC_N=KV_INPOPRX;
      333     6756        %KV_INPOPR (TYP=VDHINPPRC, RED=, ID=KV_INPPRC_PSTENDRED);
      334     6794        %EQU Y#ESC_O=KV_INPOPRX;
      335     6795        %KV_INPOPR (TYP=RSTPRM,    RED=, PRMID=KV_PRMID_INSMOD, CHN=);
      336     6833        %KV_INPOPR (TYP=SETPRM,    RED=, PRMID=KV_PRMID_OVRSTR);
      337     6871        %EQU Y#ESC_Q=KV_INPOPRX;
      338     6872        %KV_INPOPR (TYP=VDHINPPRC, IMD=, ID=KV_INPPRC_OTPSTT);
      339     6910        %EQU Y#ESC_R=KV_INPOPRX;
      340     6911        %KV_INPOPR (TYP=JMP,       RED=, ACK=, INPOPRX=Y#INPOPR_RSTINSMOD);
      341     6949        %EQU Y#ESC_S=KV_INPOPRX;
      342     6950        %KV_INPOPR (TYP=TGLPRM,    RED=, ACK=, PRMID=KV_PRMID_SPACEINSERT);
      343     6988        %EQU Y#ESC_T=KV_INPOPRX;
PL6.E3A0      #001=KZ_INPFNC_D File=KZ_HIPINPFNC_D.:E05TSI                       WED 07/30/97 03:06 Page:13
      344     6989        %KV_INPOPR (TYP=TGLPRM,    RED=, ACK=, PRMID=KV_PRMID_TABSIM);
      345     7027        %EQU Y#ESC_U=KV_INPOPRX;
      346     7028        %KV_INPOPR (TYP=TGLPRM,    RED=, ACK=, PRMID=KV_PRMID_UPPERCASE);
      347     7066        %EQU Y#ESC_V=KV_INPOPRX;
      348     7067        %KV_INPOPR (TYP=FLWON,     IMD=, RED=);
      349     7105        %KV_INPOPR (TYP=VDHINPPRC, RED=, ID=KV_INPPRC_FNDPSTCHR);
      350     7143        %EQU Y#ESC_W=KV_INPOPRX;
      351     7144        %KV_INPOPR (TYP=MSC,       IMD=, DLTOTP=, CHN=);
      352     7182        %KV_INPOPR (TYP=TGLPRM,    IMD=, ACK=, PRMID=KV_PRMID_OUTPUTDISCARD);
      353     7220        %EQU Y#ESC_X=KV_INPOPRX;
      354     7221        %KV_INPOPR (TYP=MSC,       RED=, ACK=, DLTRED=);
      355     7259        %EQU Y#ESC_Y=KV_INPOPRX;
      356     7260        %KV_INPOPR (TYP=VDHINPPRC, IMD=, ID=KV_INPPRC_MNTATN, CHN=);
      357     7298        %KV_INPOPR (TYP=MSC,       IMD=, DLTINP=, ABRRED=);
      358     7336        %EJECT;
PL6.E3A0      #001=KZ_INPFNC_D File=KZ_HIPINPFNC_D.:E05TSI                       WED 07/30/97 03:06 Page:14
      359     7337        /*
      360     7338           A couple of items just for forms.
      361     7339        */
      362     7340        %EQU Y#F_PSTUP =KV_INPOPRX;
      363     7341        %KV_INPOPR (TYP=PST,       RED=, VRTPSTUNT=FLD, VRTPSTVAL=-1, HRZPSTVAL=1);
      364     7452        %EQU Y#F_PSTDWN=KV_INPOPRX;
      365     7453        %KV_INPOPR (TYP=PST,       RED=, VRTPSTUNT=FLD, VRTPSTVAL=1, HRZPSTVAL=1);
      366     7564        %EQU Y#F_RE_DSP=KV_INPOPRX;
      367     7565        %KV_INPOPR (TYP=VDHINPPRC, IMD=, ID=KV_INPPRC_RE_TYPFRM);
      368     7603        /* Spares for patching */
      369     7604    1      2 *(0:20) UBIN INIT(0*0),
      370     7605        %SET KV_INPOPRX=KV_INPOPRX+21;
      371     7606        %EJECT;
PL6.E3A0      #001=KZ_INPFNC_D File=KZ_HIPINPFNC_D.:E05TSI                       WED 07/30/97 03:06 Page:15
      372     7607        /*
      373     7608           First the necessary control strings so that FNC=NONE is ok.
      374     7609        */
      375     7610        %KV_FNCID (ID=KZ#INPCTRSTRCHR_DSC, INPOPRX=Y#INPCTRSTR_DSC, TYP=CTRSTR);
      376     7697        /*
      377     7698           Save the current status. That's all we need for FNC=NONE.
      378     7699        */
      379     7700        %EQU KZ_NUL_FNCID_SAV = KV_FNCID_SAV;
      380     7701
      381     7702        /*
      382     7703           Input function identifiers declaring system primary
      383     7704           ESCAPE sequences for the smallest subset of the CP-5 compatible table.
      384     7705        */
      385     7706        %KV_FNCID (ID=ASCIIEOT, INPOPRX=Y#ESC_EOT, TYP=PRMESC);
      386     7793        %KV_FNCID (ID=ASCIILF, INPOPRX=Y#ESC_LF);
      387     7880        %KV_FNCID (ID=ASCIIVT, INPOPRX=Y#ESC_VT);
      388     7967        %KV_FNCID (ID=ASCIICR, INPOPRX=Y#ESC_CR);
      389     8054        %KV_FNCID (ID=ASCIIDC2, INPOPRX=Y#ESC_DC2);
      390     8141        %KV_FNCID (ID=ASCIIDC4, INPOPRX=Y#ESC_DC4);
      391     8228        %KV_FNCID (ID='<', INPOPRX=Y#ESC_LFTARW);
      392     8315        %KV_FNCID (ID='>', INPOPRX=Y#ESC_RHTARW);
      393     8402        %EQU Y#ESC_QOT=KV_INPOPRX;
      394     8403        %KV_INPOPR (TYP=SETPRM, RED=, PRMID=KV_PRMID_INSMOD, FNCID=ASCIISNGQOT);
      395     8527        %EQU Y#ESC_ETB=KV_INPOPRX;
      396     8528        %KV_INPOPR (TYP=VDHINPPRC, RED=, ID=KV_INPPRC_DELWRD, FNCID=ASCIIETB);
      397     8652        %EQU Y#ESC_DEL=KV_INPOPRX;
      398     8653        %KV_INPOPR (TYP=VDHINPPRC, RED=, ID=KV_INPPRC_DELLFT, FNCID=ASCIIDEL);
      399     8777        %EQU Y#ESC_AST=KV_INPOPRX;
      400     8778        %KV_INPOPR (TYP=VDHINPPRC, RED=, ID=KV_INPPRC_SAVEDTWND, FNCID=ASCIIAST);
      401     8902        %EQU Y#ESC_CLN=KV_INPOPRX;
      402     8903        %KV_INPOPR (TYP=VDHINPPRC, RED=, ID=KV_INPPRC_RCLEDTWND, FNCID=ASCIICLN);
      403     9027        %KV_FNCID (ID='D', INPOPRX=Y#ESC_D);
      404     9114        %KV_FNCID (ID='F', INPOPRX=Y#ESC_F);
      405     9201        %KV_FNCID (ID='G', INPOPRX=Y#ESC_G);
      406     9288        %KV_FNCID (ID='J', INPOPRX=Y#ESC_J);
      407     9375        %KV_FNCID (ID='K', INPOPRX=Y#ESC_K);
      408     9462        %KV_FNCID (ID='N', INPOPRX=Y#ESC_N);
PL6.E3A0      #001=KZ_INPFNC_D File=KZ_HIPINPFNC_D.:E05TSI                       WED 07/30/97 03:06 Page:16
      409     9549        %KV_FNCID (ID='Q', INPOPRX=Y#ESC_Q);
      410     9636        %KV_FNCID (ID='R', INPOPRX=Y#ESC_R);
      411     9723        %KV_FNCID (ID='V', INPOPRX=Y#ESC_V);
      412     9810        %KV_FNCID (ID='X', INPOPRX=Y#ESC_X);
      413     9897        %EQU Y#ESC_Z = KV_INPOPRX;
      414     9898        %KV_INPOPR (TYP=VDHINPPRC, IMD=, ID=KV_INPPRC_TGLLCLMOD, FNCID='Z');
      415    10022        %EJECT;
PL6.E3A0      #001=KZ_INPFNC_D File=KZ_HIPINPFNC_D.:E05TSI                       WED 07/30/97 03:06 Page:17
      416    10023        /*
      417    10024           Secondary ESCAPE functions (permitting numbers) for the smallest subset.
      418    10025           That's the generic set/reset/toggle parameter ones, pstlft-rht, and tab.
      419    10026        */
      420    10027
      421    10028        %EQU Y#SET_PRM=KV_INPOPRX;
      422    10029        %KV_INPOPR (TYP=SETPRM, IMD=, PRMID=0, FNCID='S', FNCTYP=SCNESC);
      423    10153        %EQU Y#RST_PRM=KV_INPOPRX;
      424    10154        %KV_INPOPR (TYP=RSTPRM, IMD=, PRMID=0, FNCID='R');
      425    10278        %EQU Y#TGL_PRM=KV_INPOPRX;
      426    10279        %KV_INPOPR (TYP=TGLPRM, IMD=, ACK=, PRMID=0, FNCID='T');
      427    10403        %KV_FNCID (ID='C', INPOPRX=Y#ASCIIDC2);
      428    10490        %KV_FNCID (ID='D', INPOPRX=Y#ASCIIBS);
      429    10577        %KV_FNCID (ID='I', INPOPRX=Y#ASCIIHT);
      430    10664        %EQU Y#ESC_HT=KV_INPOPRX;
      431    10665        %KV_INPOPR (TYP=SETPRM, RED=, PRMID=KV_PRMID_EDTRHT, FNCID=ASCIIHT);
      432    10789        %EQU Y#ESC_UP_ARW=KV_INPOPRX;
      433    10790        %KV_INPOPR (TYP=SETPRM, RED=, PRMID=KV_PRMID_WRDWRPCLM, FNCID=ASCIIUP_ARW);
      434    10914        %EQU Y#ESC_PRD = KV_INPOPRX;
      435    10915        %KV_INPOPR (TYP=VDHINPPRC, IMD=, ID=KV_INPPRC_NXTSSN, FNCID='.');
      436    11039
      437    11040        /*
      438    11041           Input function identifiers declaring special characters (SPCCHRs).
      439    11042           for the smallest CP-5 subset.
      440    11043        */
      441    11044        %KV_FNCID (ID=ASCIIBS, INPOPRX=KZ_CP5_0+KZ#SPCCHR_BS, TYP=SPCCHR);
      442    11131        %KV_FNCID (ID=ASCIIHT, INPOPRX=KZ_CP5_0+KZ#SPCCHR_HT);
      443    11218        %KV_FNCID (ID=ASCIILF, INPOPRX=KZ_CP5_0+KZ#SPCCHR_LF);
      444    11305        %KV_FNCID (ID=ASCIIFF, INPOPRX=KZ_CP5_0+KZ#SPCCHR_FF);
      445    11392        %KV_FNCID (ID=ASCIICR, INPOPRX=KZ_CP5_0+KZ#SPCCHR_CR);
      446    11479        %KV_FNCID (ID=ASCIIDC2, INPOPRX=KZ_CP5_0+KZ#SPCCHR_DC2);
      447    11566        %KV_FNCID (ID=ASCIICAN, INPOPRX=KZ_CP5_0+KZ#SPCCHR_CAN);
      448    11653        %KV_FNCID (ID=ASCIIESC, INPOPRX=KZ_CP5_0+KZ#SPCCHR_ESC);
      449    11740        %KV_FNCID (ID=ASCIIDEL, INPOPRX=KZ_CP5_0+KZ#SPCCHR_DEL);
      450    11827        %EQU Y#ASCIIETB=KV_INPOPRX;
      451    11828        %KV_INPOPR (TYP=VDHINPPRC, RED=, ID=KV_INPPRC_FNDPSTWRD, FNCID=ASCIIETB);
      452    11952        %EJECT;
PL6.E3A0      #001=KZ_INPFNC_D File=KZ_HIPINPFNC_D.:E05TSI                       WED 07/30/97 03:06 Page:18
      453    11953        /*
      454    11954           And the rest of the ids for async input control strings.
      455    11955        */
      456    11956        %KV_FNCID (ID=KZ#INPCTRSTRCHR_BRK, INPOPRX=Y#INPCTRSTR_BRK, TYP=CTRSTR);
      457    12043        %KV_FNCID (ID=KZ#INPCTRSTRCHR_CLAOVRRUN, INPOPRX=Y#INPCTRSTR_CLAOVRRUN);
      458    12130        %KV_FNCID (ID=KZ#INPCTRSTRCHR_PRTERR, INPOPRX=Y#INPOPR_PRTERR);
      459    12217        %EJECT;
PL6.E3A0      #001=KZ_INPFNC_D File=KZ_HIPINPFNC_D.:E05TSI                       WED 07/30/97 03:06 Page:19
      460    12218        /*
      461    12219           Now let's save those id counts, and add the ones for CP5S1.
      462    12220        */
      463    12221        %SET KZ_CP5S2_FNCID_SAV=KV_FNCID_SAV;
      464    12222        %KV_FNCID (ID=ASCIISOH, INPOPRX=Y#ESC_SOH, TYP=PRMESC);
      465    12309        %KV_FNCID (ID=ASCIISTX, INPOPRX=Y#ESC_STX);
      466    12396        %KV_FNCID (ID=ASCIIESC, INPOPRX=Y#ESC_Y);
      467    12483        %KV_FNCID (ID='$', INPOPRX=Y#ESC_APLDLR);
      468    12570        %KV_FNCID (ID='-', INPOPRX=Y#ESC_HPH);
      469    12657        %KV_FNCID (ID='A', INPOPRX=Y#ESC_A);
      470    12744        %KV_FNCID (ID='B', INPOPRX=Y#ESC_B);
      471    12831        %KV_FNCID (ID='E', INPOPRX=Y#ESC_E);
      472    12918        %KV_FNCID (ID='H', INPOPRX=Y#ESC_H);
      473    13005        %KV_FNCID (ID='L', INPOPRX=Y#ESC_L);
      474    13092        %KV_FNCID (ID='M', INPOPRX=Y#ESC_M);
      475    13179        %KV_FNCID (ID='O', INPOPRX=Y#ESC_O);
      476    13266        %KV_FNCID (ID='U', INPOPRX=Y#ESC_U);
      477    13353        %KV_FNCID (ID='W', INPOPRX=Y#ESC_W);
      478    13440        %KV_FNCID (ID='Y', INPOPRX=Y#ESC_Y);
      479    13527        %KV_FNCID (ID='7C'X, INPOPRX=Y#ESC_APLDLR);
      480    13614        %KV_FNCID (ID='7E'X, INPOPRX=Y#ESC_APLDLR);
      481    13701        %KV_FNCID (ID='C6'X, INPOPRX=Y#ESC_APLDLR);
      482    13788        %KV_FNCID (ID='CF'X, INPOPRX=Y#ESC_APLDLR);
      483    13875        %KV_FNCID (ID='D4'X, INPOPRX=Y#ESC_APLDLR);
      484    13962        %KV_FNCID (ID='0',   INPOPRX=Y#ESC_A);
      485    14049        %KV_FNCID (ID='2',   INPOPRX=Y#ESC_B);
      486    14136        %KV_FNCID (ID='5',   INPOPRX=Y#ESC_STX);
      487    14223        %KV_FNCID (ID='6',   INPOPRX=Y#ESC_D);
      488    14310        %KV_FNCID (ID='7',   INPOPRX=Y#ESC_EOT);
      489    14397        %KV_FNCID (ID='8',   INPOPRX=Y#ESC_F);
      490    14484        %KV_FNCID (ID=':',   INPOPRX=Y#ESC_G);
      491    14571        %KV_FNCID (ID='<',   INPOPRX=Y#ESC_H);
      492    14658        %KV_FNCID (ID='>',   INPOPRX=Y#ESC_Q);
      493    14745        %KV_FNCID (ID='\',   INPOPRX=Y#ESC_C);
      494    14832        %KV_FNCID (ID='^',   INPOPRX=Y#ESC_Y);
      495    14919        %KV_FNCID (ID='_',   INPOPRX=Y#ESC_W);
      496    15006        %EQU Y#SET_HSS=KV_INPOPRX;
PL6.E3A0      #001=KZ_INPFNC_D File=KZ_HIPINPFNC_D.:E05TSI                       WED 07/30/97 03:06 Page:20
      497    15007        %KV_INPOPR (TYP=SETPRM, RED=, PRMID=KV_PRMID_HRZSCRSHF, FNCID='H',
      498    15008                    FNCTYP=SCNESC);
      499    15132        %EQU Y#SET_HSM=KV_INPOPRX;
      500    15133        %KV_INPOPR (TYP=SETPRM, RED=, PRMID=KV_PRMID_HRZSCRMRG, FNCID='M');
      501    15257        %KV_FNCID (ID=ASCIIEM, INPOPRX=KZ_CP5_0+KZ#SPCCHR_EM, TYP=SPCCHR);
      502    15344        %EJECT;
PL6.E3A0      #001=KZ_INPFNC_D File=KZ_HIPINPFNC_D.:E05TSI                       WED 07/30/97 03:06 Page:21
      503    15345        /*
      504    15346           Now we'll save those, and add the rest, to make the full table.
      505    15347        */
      506    15348        %SET KZ_CP5S1_FNCID_SAV=KV_FNCID_SAV;
      507    15349        %KV_FNCID (ID='(', INPOPRX=Y#ESC_LFTPRN, TYP=PRMESC);
      508    15436        %KV_FNCID (ID="')'", INPOPRX=Y#ESC_RHTPRN);
      509    15523        %KV_FNCID (ID='C', INPOPRX=Y#ESC_C);
      510    15610        %KV_FNCID (ID='S', INPOPRX=Y#ESC_S);
      511    15697        %KV_FNCID (ID='T', INPOPRX=Y#ESC_T);
      512    15784        %KV_FNCID (ID=ASCIIDC1, INPOPRX=KZ_CP5_0+KZ#SPCCHR_DC1, TYP=SPCCHR);
      513    15871        %KV_FNCID (ID=ASCIIDC3, INPOPRX=KZ_CP5_0+KZ#SPCCHR_DC3);
      514    15958        %EJECT;
PL6.E3A0      #001=KZ_INPFNC_D File=KZ_HIPINPFNC_D.:E05TSI                       WED 07/30/97 03:06 Page:22
      515    15959        /*
      516    15960           Now lets make some tables.
      517    15961        */
      518    15962        %LIST;
      519    15963        %KV$INPFNCTBL (NAME=NUL, NAM='NO', STCLASS=CONSTANT,
      520    15964                       LNK=KZ_INPFNC.CP5S1, LAST=",", FNCID_SAV=KZ_NUL_FNCID_SAV);
             15965        %LSET LISTDIR='0'B;
             16014    1   2 NUL,
             16016    1   3 LNK$ PTR INIT(ADDR(KZ_INPFNC.CP5S1)),
             16021    1   3 BYTSIZ UBIN(16)ALIGNED INIT(92),
             16025    1   3 USRCNT UBIN(16)ALIGNED INIT(32767) ,3 NAM CHAR(8)INIT('NO') ,
             16033    1   3 * CHAR(38)INIT('                                      '),3 * UBIN BYTE CALIGNED
             16033            INIT(0),3 * BIT(2)INIT('00'B),3 * BIT(1)INIT('0'B),3 * BIT(5)INIT
             16034    1   ('0'B),3 *(0:11)SBIN INIT(106,95,167,91,91,91,107,96,168,92,92,92),3 *(0:3)BIT(16)
             16034            INIT(
             16035    1   '1111111111111111'B,'1111111111111111'B,'1111111111111111'B,'1111111111111111'B),3 *
             16035            (0:1)SBIN INIT
             16036    1   (-158,0)
             16041    1   ,2 * CHAR(0)INIT('    SRTCDI	^.HM      <>''  *:DFGJKNQRVXZ   $-ABEHLMOUWY|~FOT025678
             16041    1   :<>\^_()CST 	            '),2 * CHAR(0)INIT(' = 3 7 s                       B E F G
             16041        H I N O           T X Y [ \ ` c d h l   ? @ m L M P Q W Z ] ^ a g j m L L L L L P Q
             16041        @ T B X Y Z c S m j J K S e f                          ')
             16044    1   ,
      521    16048        %KV$INPFNCTBL (NAME=CP5, NAM='CP5', PRMINTCHR1=ASCIIESC, STCLASS=CONSTANT,
      522    16049                       SCNINTCHR1=ASCIIESC, ESCCNTOK=S,
      523    16050                       LNK=KZ_INPFNC.NUL, LAST=",");
             16051        %LSET LISTDIR='0'B;
             16100    1   2 CP5,
             16102    1   3 LNK$ PTR INIT(ADDR(KZ_INPFNC.NUL)),
             16107    1   3 BYTSIZ UBIN(16)ALIGNED INIT(92),
             16111    1   3 USRCNT UBIN(16)ALIGNED INIT(32767) ,3 NAM CHAR(8)INIT('CP5') ,
             16119    1   3 * CHAR(38)INIT('=      lqP                            '),3 * UBIN BYTE CALIGNED
             16119            INIT(0),3 * BIT(2)INIT('01'B),3 * BIT(1)INIT('0'B),3 * BIT(5)INIT
             16120    1   ('0'B),3 *(0:11)SBIN INIT(-74,-85,-13,-89,-89,-89,-253,-264,-192,-268,-268,-268),3 *
             16120            (0:3)BIT(16)INIT(
             16121    1   '0000000000011011'B,'0000000000011011'B,'1111111111111111'B,'1111111111111111'B),3 *
             16121            (0:1)SBIN INIT
PL6.E3A0      #001=KZ_INPFNC_D File=KZ_HIPINPFNC_D.:E05TSI                       WED 07/30/97 03:06 Page:23
             16122    1   (-338,0)
             16130    1   ,
      524    16134        %KV$INPFNCTBL (NAME=CP5S1, NAM='CP5S1', PRMINTCHR1=ASCIIESC, STCLASS=CONSTANT,
      525    16135                       SCNINTCHR1=ASCIIESC, SBSLVL=1, ESCCNTOK=S,
      526    16136                       LNK=KZ_INPFNC.CP5S2, LAST=",", FNCID_SAV=KZ_CP5S1_FNCID_SAV);
             16137        %LSET LISTDIR='0'B;
             16186    1   2 CP5S1,
             16188    1   3 LNK$ PTR INIT(ADDR(KZ_INPFNC.CP5S2)),
             16193    1   3 BYTSIZ UBIN(16)ALIGNED INIT(92),
             16197    1   3 USRCNT UBIN(16)ALIGNED INIT(32767) ,3 NAM CHAR(8)INIT('CP5S1') ,
             16205    1   3 * CHAR(38)INIT('8      l!P                            '),3 * UBIN BYTE CALIGNED
             16205            INIT(1),3 * BIT(2)INIT('01'B),3 * BIT(1)INIT('0'B),3 * BIT(5)INIT
             16206    1   ('0'B),3 *(0:11)SBIN INIT(-120,-131,-59,-135,-135,-135,-345,-356,-284,-360,-360,-360
             16206            ),3 *(0:3)BIT(16)INIT(
             16207    1   '0000000000011011'B,'0000000000011011'B,'1111111111111111'B,'1111111111111111'B),3 *
             16207            (0:1)SBIN INIT
             16208    1   (-384,0)
             16216    1   ,
      527    16220        %KV$INPFNCTBL (NAME=CP5S2, NAM='CP5S2', PRMINTCHR1=ASCIIESC, STCLASS=CONSTANT,
      528    16221                       SCNINTCHR1=ASCIIESC, SBSLVL=2, ESCCNTOK=S,
      529    16222                       LNK=KZ_INPFNC.FRM1, LAST=",", FNCID_SAV=KZ_CP5S2_FNCID_SAV);
             16223        %LSET LISTDIR='0'B;
             16272    1   2 CP5S2,
             16274    1   3 LNK$ PTR INIT(ADDR(KZ_INPFNC.FRM1)),
             16279    1   3 BYTSIZ UBIN(16)ALIGNED INIT(92),
             16283    1   3 USRCNT UBIN(16)ALIGNED INIT(32767) ,3 NAM CHAR(8)INIT('CP5S2') ,
             16291    1   3 * CHAR(38)INIT(' 	     l!                             '),3 * UBIN BYTE CALIGNED
             16291            INIT(2),3 * BIT(2)INIT('01'B),3 * BIT(1)INIT('0'B),3 * BIT(5)INIT
             16292    1   ('0'B),3 *(0:11)SBIN INIT(-166,-177,-105,-181,-181,-181,-437,-448,-376,-452,-452,
             16292            -452),3 *(0:3)BIT(16)INIT(
             16293    1   '0000000000011011'B,'0000000000011011'B,'1111111111111111'B,'1111111111111111'B),3 *
             16293            (0:1)SBIN INIT
             16294    1   (-430,0)
             16302    1   ,
      530    16306        %PLIST;
      531    16307        %EJECT;
PL6.E3A0      #001=KZ_INPFNC_D File=KZ_HIPINPFNC_D.:E05TSI                       WED 07/30/97 03:06 Page:24
      532    16308        /*
      533    16309           Input function identifiers declaring system primary
      534    16310           ESCAPE sequences for the forms input function table.
      535    16311        */
      536    16312        %SET KV_INPOPR0=KZ_FRM1_0;
      537    16313        %KV_FNCID (ID=ASCIILF, INPOPRX=Y#ESC_CR, TYP=PRMESC);
      538    16400        %KV_FNCID (ID=ASCIIVT, INPOPRX=Y#ESC_VT);
      539    16487        %KV_FNCID (ID=ASCIICR, INPOPRX=Y#ESC_CR);
      540    16574        %KV_FNCID (ID=ASCIIDC2, INPOPRX=Y#ESC_DC2);
      541    16661        %KV_FNCID (ID=ASCIIETB, INPOPRX=Y#ESC_ETB);
      542    16748        %KV_FNCID (ID=ASCIIEOT, INPOPRX=Y#ESC_D);
      543    16835        %KV_FNCID (ID=ASCIIESC, INPOPRX=Y#F_MNTATN);
      544    16922        %KV_FNCID (ID='(', INPOPRX=Y#ESC_LFTPRN);
      545    17009        %KV_FNCID (ID="')'", INPOPRX=Y#ESC_RHTPRN);
      546    17096        %KV_FNCID (ID='<', INPOPRX=Y#ESC_LFTARW);
      547    17183        %KV_FNCID (ID='>', INPOPRX=Y#ESC_RHTARW);
      548    17270        %KV_FNCID (ID='-', INPOPRX=Y#F_RE_DSP);
      549    17357        %KV_FNCID (ID='A', INPOPRX=Y#F_PSTUP);
      550    17444        %KV_FNCID (ID='B', INPOPRX=Y#F_PSTDWN);
      551    17531        %KV_FNCID (ID='D', INPOPRX=Y#ESC_EOT);
      552    17618        %KV_FNCID (ID='G', INPOPRX=Y#ESC_G);
      553    17705        %KV_FNCID (ID='H', INPOPRX=Y#ESC_H);
      554    17792        %KV_FNCID (ID='J', INPOPRX=Y#ESC_J);
      555    17879        %KV_FNCID (ID='K', INPOPRX=Y#ESC_K);
      556    17966        %KV_FNCID (ID='M', INPOPRX=Y#ESC_M);
      557    18053        %KV_FNCID (ID='N', INPOPRX=Y#ESC_N);
      558    18140        %KV_FNCID (ID='O', INPOPRX=Y#ESC_O);
      559    18227        %KV_FNCID (ID='Q', INPOPRX=Y#ESC_Q);
      560    18314        %KV_FNCID (ID='R', INPOPRX=Y#ESC_R);
      561    18401        %KV_FNCID (ID='U', INPOPRX=Y#ESC_U);
      562    18488        %KV_FNCID (ID='V', INPOPRX=Y#ESC_V);
      563    18575        %KV_FNCID (ID='X', INPOPRX=Y#ESC_X);
      564    18662        %KV_FNCID (ID='Y', INPOPRX=Y#F_MNTATN);
      565    18749        %KV_INPOPR (TYP=VDHINPPRC, IMD=, ID=KV_INPPRC_BRK, CHN=, FNCID=ASCIISTX);
      566    18873        %KV_INPOPR (TYP=MSC, IMD=, DLTINP=, ABRRED=);
      567    18911        %KV_FNCID (ID='i', INPOPRX=KZ#SPCCHR_CR+KZ_FRM1_0); /* Often xmit key         */
      568    18998        %KV_FNCID (ID='Z', INPOPRX=Y#ESC_Z);
PL6.E3A0      #001=KZ_INPFNC_D File=KZ_HIPINPFNC_D.:E05TSI                       WED 07/30/97 03:06 Page:25
      569    19085        %KV_FNCID (ID=ASCIISNGQOT, INPOPRX=Y#ESC_QOT);
      570    19172        %KV_FNCID (ID=ASCIIAST, INPOPRX=Y#ESC_AST);
      571    19259        %KV_FNCID (ID=ASCIICLN, INPOPRX=Y#ESC_CLN);
      572    19346        %KV_FNCID (ID=ASCIIDEL, INPOPRX=Y#ESC_DEL);
      573    19433        %EJECT;
PL6.E3A0      #001=KZ_INPFNC_D File=KZ_HIPINPFNC_D.:E05TSI                       WED 07/30/97 03:06 Page:26
      574    19434        /*
      575    19435           Secondary input function for forms.  Put tab here to get a backtab.
      576    19436        */
      577    19437        %KV_FNCID (ID='I', INPOPRX=Y#ASCIIHT, TYP=SCNESC);
      578    19524        %KV_FNCID (ID='.', INPOPRX=Y#ESC_PRD);
      579    19611        %KV_FNCID (ID='R', INPOPRX=Y#RST_PRM);
      580    19698        %KV_FNCID (ID='S', INPOPRX=Y#SET_PRM);
      581    19785        %KV_FNCID (ID='T', INPOPRX=Y#TGL_PRM);
      582    19872        %EJECT;
PL6.E3A0      #001=KZ_INPFNC_D File=KZ_HIPINPFNC_D.:E05TSI                       WED 07/30/97 03:06 Page:27
      583    19873        /*
      584    19874           Input function identifiers declaring special characters (SPCCHRs).
      585    19875           for the forms function table.
      586    19876        */
      587    19877        %KV_FNCID (ID=ASCIIBS, INPOPRX=KZ_FRM1_0+KZ#SPCCHR_BS, TYP=SPCCHR);
      588    19964        %KV_FNCID (ID=ASCIIHT, INPOPRX=KZ_FRM1_0+KZ#SPCCHR_HT);
      589    20051        %KV_FNCID (ID=ASCIIUS, INPOPRX=KZ_FRM1_0+KZ#SPCCHR_HT);
      590    20138        %KV_FNCID (ID=ASCIILF, INPOPRX=KZ_FRM1_0+KZ#SPCCHR_LF);
      591    20225        %KV_FNCID (ID=ASCIICR, INPOPRX=KZ_FRM1_0+KZ#SPCCHR_CR);
      592    20312        %KV_FNCID (ID=ASCIIDC2, INPOPRX=KZ_FRM1_0+KZ#SPCCHR_DC2);
      593    20399        %KV_FNCID (ID=ASCIIETB, INPOPRX=Y#ASCIIETB);
      594    20486        %KV_FNCID (ID=ASCIICAN, INPOPRX=KZ_FRM1_0+KZ#SPCCHR_CAN);
      595    20573        %KV_FNCID (ID=ASCIIEM, INPOPRX=KZ_FRM1_0+KZ#SPCCHR_EM);
      596    20660        %KV_FNCID (ID=ASCIIESC, INPOPRX=KZ_FRM1_0+KZ#SPCCHR_ESC);
      597    20747        %KV_FNCID (ID=ASCIIDEL,  INPOPRX=KZ_FRM1_0+KZ#SPCCHR_DEL);
      598    20834        %EJECT;
PL6.E3A0      #001=KZ_INPFNC_D File=KZ_HIPINPFNC_D.:E05TSI                       WED 07/30/97 03:06 Page:28
      599    20835        /*
      600    20836           Now the forms control strings.  Except for break, they're the same as CP5.
      601    20837        */
      602    20838        %KV_FNCID (ID=KZ#INPCTRSTRCHR_BRK, INPOPRX=KZ_FRM1_0+KZ#SPCCHR_DC1, TYP=CTRSTR);
      603    20925        %KV_FNCID (ID=KZ#INPCTRSTRCHR_CLAOVRRUN, INPOPRX=Y#INPCTRSTR_CLAOVRRUN);
      604    21012        %KV_FNCID (ID=KZ#INPCTRSTRCHR_DSC, INPOPRX=Y#INPCTRSTR_DSC);
      605    21099        %KV_FNCID (ID=KZ#INPCTRSTRCHR_PRTERR, INPOPRX=Y#INPOPR_PRTERR);
      606    21186        %EJECT;
PL6.E3A0      #001=KZ_INPFNC_D File=KZ_HIPINPFNC_D.:E05TSI                       WED 07/30/97 03:06 Page:29
      607    21187        /*
      608    21188            Now let's build the FRM1 table.
      609    21189        */
      610    21190        %LIST;
      611    21191        %KV$INPFNCTBL (NAME=FRM1, NAM='FRM1', PRMINTCHR1=ASCIIESC, STCLASS=CONSTANT,
      612    21192                       SCNINTCHR1=ASCIIESC, ESCCNTOK=S, LAST=",");
             21193        %LSET LISTDIR='0'B;
             21242    1   2 FRM1,
             21244    1   3 LNK$ PTR INIT(ADDR(NIL)),
             21249    1   3 BYTSIZ UBIN(16)ALIGNED INIT(92),
             21253    1   3 USRCNT UBIN(16)ALIGNED INIT(32767) ,3 NAM CHAR(8)INIT('FRM1') ,
             21261    1   3 * CHAR(38)INIT('#      d!Q                            '),3 * UBIN BYTE CALIGNED
             21261            INIT(0),3 * BIT(2)INIT('01'B),3 * BIT(1)INIT('0'B),3 * BIT(5)INIT
             21262    1   ('0'B),3 *(0:11)SBIN INIT(74,109,114,125,74,74,92,127,132,143,92,92),3 *(0:3)BIT(16)
             21262            INIT(
             21263    1   '0000000000011011'B,'0000000000011011'B,'1111111111111111'B,'1111111111111111'B),3 *
             21263            (0:1)SBIN INIT
             21264    1   (-453,0)
             21269    1   ,2 * CHAR(0)INIT('       ()<>-ABDGHJKMNOQRUVXY iZ''*: I.RST 	              '),2 *
             21269            CHAR(0)INIT(' . - . / w ; f 1 2 5 6 ` V [ ) @ A B C E G H J K N O S f C   { v y
             21269        z x     } | ~                           $ Z')
             21272    1   ,
      613    21276        %PLIST;
      614    21277        /*
      615    21278           Finally, a small table of functions for local mode.
      616    21279        */
      617    21280        %KV_FNCID (ID=KZ#INPCTRSTRCHR_DSC, INPOPRX=Y#INPCTRSTR_DSCLCL, TYP=CTRSTR);
      618    21367        %KV_FNCID (ID='Z', INPOPRX=Y#ESC_Z, TYP=PRMESC);
      619    21454        %KV_INPOPR (TYP=VDHINPPRC, IMD=, ID=KV_INPPRC_ADJWND, FNCID=ASCIIESC);
      620    21578        %KV_INPOPR (TYP=VDHINPPRC, IMD=, ID=KV_INPPRC_PSTWND_UP, FNCID='A');
      621    21702        %KV_INPOPR (TYP=VDHINPPRC, IMD=, ID=KV_INPPRC_PSTWND_DWN, FNCID='B');
      622    21826        %KV_INPOPR (TYP=VDHINPPRC, IMD=, ID=KV_INPPRC_PSTWND_LFT, FNCID='D');
      623    21950        %KV_INPOPR (TYP=VDHINPPRC, IMD=, ID=KV_INPPRC_PSTWND_RHT, FNCID='C');
      624    22074        %KV_FNCID (ID='^', INPOPRX=KV_INPOPRX-4, TYP=SPCCHR);
      625    22161        %KV_FNCID (ID=ASCIILF, INPOPRX=KV_INPOPRX-4);
      626    22248        %KV_FNCID (ID=ASCIIBS, INPOPRX=KV_INPOPRX-4);
      627    22335        %KV_FNCID (ID=ASCIIDC2, INPOPRX=KV_INPOPRX-4);
PL6.E3A0      #001=KZ_INPFNC_D File=KZ_HIPINPFNC_D.:E05TSI                       WED 07/30/97 03:06 Page:30
      628    22422        /*
      629    22423           Make the table.
      630    22424        */
      631    22425        %KV$INPFNCTBL (NAME=LCLMOD, PRMINTCHR1=ASCIIESC, STCLASS=CONSTANT);
      632    22509    1   END;

PL6.E3A0      #001=KZ_INPFNC_D File=KZ_HIPINPFNC_D.:E05TSI                       WED 07/30/97 03:06 Page:31
--  Include file information  --

   KV$VDH.:E05TOU  is referenced.
   KV$GLB.:E05TOU  is referenced.
   KV$INPFNC.:E05TOU  is referenced.
   KZ_GLB_E.:E05TOU  is referenced.
   KZ_GLBASM_E.:E05TOU  is referenced.
   KV_PRMID_E.:E05TOU  is referenced.
   KV_ASCCHR_E.:E05TOU  is referenced.
   KV_GLBCNS_E.:E05TOU  is referenced.
      No diagnostics issued in procedure KZ_INPFNC_D.

   No code generated for procedure KZ_INPFNC_D .
   Procedure KZ_INPFNC_D requires 4 words of local(AUTO) storage.

    No errors detected in file KZ_HIPINPFNC_D.:E05TSI    .

PL6.E3A0      #001=KZ_INPFNC_D File=KZ_HIPINPFNC_D.:E05TSI                       WED 07/30/97 03:06 Page:32

 Object Unit name= KZ_INPFNC_D                                File name= KZ_HIPINPFNC_D.:E05TOU
 UTS= JUL 30 '97 03:06:08.64 WED                              Compiler= PL-6/E31         Sev=      00
 SharedLib= :SHARED_LCP6_SYSTEM                               Alt SharedLib=


    ****  Control sections  ****

 Sect   Type Bound  Init  Size HexSiz  Section name
    0  RoData even  UTS    691    2B3  KZ_INPFNC_D
    1   Proc  even  none     0      0  KZ_INPFNC_D

    ****  Entry defs  ****

                              Check   Calling
                             calling  sequence
  Sect HexLoc Primary Altret sequence   type   Parms  Name
     1      0   yes            yes     ~proc       0  KZ_INPFNC_D

  ****  Data defs  ****

 Sect HexLoc  Name                           Sect HexLoc  Name
    0      0  KZ_INPFNCTBLHED$

  ****  Data refs  ****

  Flags:  r = read only, s = secondary
Flgs Name                             Flgs Name                             Flgs Name
r    G$ROS$
PL6.E3A0      #001=KZ_INPFNC_D File=KZ_HIPINPFNC_D.:E05TSI                       WED 07/30/97 03:06 Page:33

        1        1        /*M* KZ_INPFNC_D HIP HANDLER INPUT FUNCTION DATA */
        2        2        /*T***********************************************************/
        3        3        /*T*                                                         */
        4        4        /*T* Copyright (c) Bull HN Information Systems Inc., 1997    */
        5        5        /*T*                                                         */
        6        6        /*T***********************************************************/
        7        7        KZ_INPFNC_D: PROC;
        8        8        /*
        9        9           Standard (generally CP-5 compatible) input functions.
       10       10        */
       11       11        %INCLUDE KV_GLBCNS_E;
       12      352        %INCLUDE KV_ASCCHR_E;
       13      489        %INCLUDE KV_PRMID_E;
       14      663        %KV_CMPCOD_E;
       15      677        %KV_INPOPRX_E;
       16      689        %KV_PRMID_E;
       17      845        %INCLUDE KZ_GLBASM_E;
       18      927        %INCLUDE KZ_GLB_E;
       19     1012        %KZ_INPFNC_E;
       20     1064        %INCLUDE KV$INPFNC;
       21     1623        %INCLUDE KV$GLB;
       22     2042        %INCLUDE KV$VDH;
       23     2473        %KV_INPPRC_E;
       24     2525    1   DCL KZ_INPFNCTBLHED$ PTR CONSTANT SYMDEF INIT(ADDR(KZ_INPFNC.CP5));
       25     2526        %EJECT;
PL6.E3A0      #001=KZ_INPFNC_D File=KZ_HIPINPFNC_D.:E05TSI                       WED 07/30/97 03:06 Page:34
       26     2527        /*
       27     2528           CP-5 compatible (almost) system input function table.
       28     2529           Contains all of the CP-5 ESCAPE and control sequences, with
       29     2530           the following changes:
       30     2531
       31     2532           ESC-STX (ESC-CTRL-B) is the same as ESC-B except
       32     2533           that type-ahead is not deleted.
       33     2534
       34     2535           ESC-EOT (ESC-D) is the same as ESC-D except that the last
       35     2536           saved edit buffer for the current stream is recalled.
       36     2537           Host 'domain' is mapped into stream in B02.
       37     2538
       38     2539           ESC-A in CP5 is ESC-$ in CP6.
       39     2540
       40     2541           ESC-D in CP-6 always recalls the last saved input edit buffer.
       41     2542
       42     2543           ESC-G in CP-6 displays internal communications processor
       43     2544           information.
       44     2545
       45     2546           ESC-K in CP-6 deletes from the edit point thru the end of the
       46     2547           input record.
       47     2548
       48     2549           ESC-M (enter column replacement mode) resets ESC-O (enter
       49     2550           logical overstrike mode).  Since the architecture of the
       50     2551           CP-6 HIP handler is significantly different than the CP-5
       51     2552           COC handler, input editing in CP-6 is much more powerful.
       52     2553           As a result, the meaning of ESC-O has changed significantly.
       53     2554
       54     2555           ESC-N in CP-6 positions to the end of the input record.  ESC-D
       55     2556           in CP-5 did this, under some circumstances.
       56     2557
       57     2558           ESC-O has changed.  See ESC-M.
       58     2559
       59     2560           ESC-P (half-duplex paper tape mode) is exited upon receipt of
       60     2561           BREAK, CTRL-Y, ESC-ESC, or ESC-Y.
       61     2562
       62     2563           ESC-Q issues a response from the communications processor
PL6.E3A0      #001=KZ_INPFNC_D File=KZ_HIPINPFNC_D.:E05TSI                       WED 07/30/97 03:06 Page:35
       63     2564           (!HI!) and also (if logged on) from the host (E.G., !SCU!).
       64     2565
       65     2566           ESC-V-CHARACTER in CP-6 positions to the specified character in
       66     2567           the input record.
       67     2568
       68     2569           ESC-Z is not in CP-6 because coupling isn't.
       69     2570
       70     2571           ESC-$ selects the proper translate table.  CP-6 supports
       71     2572           bit-paired APL terminals, in addition to the normal ASCII and
       72     2573           and typewriter-paired APL terminals supported by CP-5.
       73     2574           As a result of ESC-$, two 'other' escapes appear to the normal
       74     2575           ASCII terminal user; they are ESC-X'7C' (ESC-VERTICAL-LINE)
       75     2576           and ESC-X'7E' (ESC-TILDE).  They will put the line into
       76     2577           one of the APL modes.  ESC-$ will return the line to normal
       77     2578           ASCII mode.
       78     2579
       79     2580           ESC-HYPHEN in CP-6 tells the handler that the terminal is
       80     2581           positioned at the perf.
       81     2582        */
       82     2583        %EJECT;
PL6.E3A0      #001=KZ_INPFNC_D File=KZ_HIPINPFNC_D.:E05TSI                       WED 07/30/97 03:06 Page:36
       83     2584        %KV_INPOPR (NAME=KZ_INPFNC, TYP=MSC, RED=); /* Dummy to get started           */
       84     2622        /*
       85     2623          INPOPRs used by routines that directly call the
       86     2624          input function interpreter with INPOPR indexes. These INPOPRs couldn't
       87     2625          be expressed in one word; these are "branched to" via
       88     2626          JMP INPOPRs below.
       89     2627        */
       90     2628        %EQU Y#INPOPR_PRTERR =KV_INPOPRX;
       91     2629        %KV_INPOPR (TYP=USRINPPRC, IMD=, ID=KZ#INPPRC_PRTERR, CHN=);
       92     2667        %KV_INPOPR (TYP=TXT, RED=, DSP=WRT,
       93     2668                       TXT="%CONCAT (BITASC (ASCIIBEL), BITASC (ASCIINMB))", CHN=);
       94     2706        %KV_INPOPR (TYP=ACTRED, RED=, CMPCOD=KV_CMPCOD_PRTERR);
       95     2744        %EQU Y#INPOPR_RE_RED =KV_INPOPRX;
       96     2745        %KV_INPOPR (TYP=VDHINPPRC, RED=, ID=KV_INPPRC_COPSTREDTBFR, CHN=);
       97     2783        %KV_INPOPR (TYP=VDHINPPRC, RED=, ID=KV_INPPRC_RE_TYP);
       98     2821        %EQU Y#INPOPR_RSTINSMOD =KV_INPOPRX;
       99     2822        %KV_INPOPR (TYP=VDHINPPRC, RED=, ID=KV_INPPRC_RSTINSMOD, CHN=);
      100     2860        %EQU Y#INPOPR_RE_TYP =KV_INPOPRX;
      101     2861        %KV_INPOPR (TYP=VDHINPPRC, RED=, ID=KV_INPPRC_RE_PSTRED, CHN=);
      102     2899        %KV_INPOPR (TYP=VDHINPPRC, RED=, ID=KV_INPPRC_RE_TYP);
      103     2937        %EJECT;
PL6.E3A0      #001=KZ_INPFNC_D File=KZ_HIPINPFNC_D.:E05TSI                       WED 07/30/97 03:06 Page:37
      104     2938        /*
      105     2939          INPOPRs for special characters that couldn't
      106     2940          be expressed in one word; these are "branched to" via
      107     2941          JMP INPOPRs below.
      108     2942        */
      109     2943        %EQU Y#ASCIIEM =KV_INPOPRX;
      110     2944        %KV_INPOPR (TYP=VDHINPPRC, IMD=, ID=KV_INPPRC_MNTATN, CHN=);
      111     2982        %KV_INPOPR (TYP=MSC, IMD=, DLTINP=, DLTOTP=, ABRRED=);
      112     3020        %EQU Y#F_MNTATN=KV_INPOPRX;
      113     3021        %KV_INPOPR (TYP=VDHINPPRC, IMD=, ID=KV_INPPRC_MNTATN, CHN=);
      114     3059        %KV_INPOPR (TYP=MSC, IMD=, DLTINP=, ABRRED=);
      115     3097        %EJECT;
PL6.E3A0      #001=KZ_INPFNC_D File=KZ_HIPINPFNC_D.:E05TSI                       WED 07/30/97 03:06 Page:38
      116     3098        %SET KV_INPOPR0=KV_INPOPRX-1;
      117     3099        /*
      118     3100          Input operators (INPOPRs) used by routines that directly call the
      119     3101          input function interpreter with INPOPR indexes.
      120     3102          These INPOPRs must have fixed (non-floating) displacements
      121     3103          from the start of the INPOPR table (KV_INPOPR0).
      122     3104        */
      123     3105        %KV_INPOPR (TEST=KV_INPOPRX_INT,
      124     3106           TYP=MSC, IMD=);            /* Initialization (after switching inpfnctbl's) */
      125     3144        %KV_INPOPR (TEST=KV_INPOPRX_PRGINP,
      126     3145           TYP=MSC, IMD=, DLTINP=);             /* M$PURGE input                      */
      127     3183        %KV_INPOPR (TEST=KV_INPOPRX_PRGOTP,
      128     3184           TYP=MSC, IMD=, DLTOTP=);             /* M$PURGE output                     */
      129     3222        %KV_INPOPR (TEST=KV_INPOPRX_PRTERR,
      130     3223           TYP=JMP, RED=, INPOPRX=Y#INPOPR_PRTERR); /*                                */
      131     3261        %KV_INPOPR (TEST=KV_INPOPRX_RE_RED,
      132     3262           TYP=JMP, IMD=, INPOPRX=Y#INPOPR_RE_RED); /*M$READ w/reread           */
      133     3300        %KV_INPOPR (TEST=KV_INPOPRX_RE_TYP,
      134     3301           TYP=JMP, IMD=, INPOPRX=Y#INPOPR_RE_TYP); /*G#FNCWRTIMD in read       */
      135     3339        %KV_INPOPR (TYP=MSC, RED=);             /* Spare                              */
      136     3377        %KV_INPOPR (TEST=KV_INPOPRX_REDDATLST,
      137     3378           TYP=ACTRED, RED=, CMPCOD=KV_CMPCOD_BFROVRRUN); /*                          */
      138     3416        %KV_INPOPR (TEST=KV_INPOPRX_RSTINSMOD,
      139     3417           TYP=JMP, RED=, INPOPRX=Y#INPOPR_RSTINSMOD); /*Reset insert mode      */
      140     3455        %KV_INPOPR (TYP=MSC, IMD=);             /* Spare 1                            */
      141     3493        %KV_INPOPR (TYP=MSC, IMD=);             /* Spare 2                            */
      142     3531        %KV_INPOPR (TYP=MSC, IMD=);             /* Spare 3                            */
      143     3569        %KV_INPOPR (TYP=MSC, IMD=);             /* Spare 4                            */
      144     3607        %EJECT;
PL6.E3A0      #001=KZ_INPFNC_D File=KZ_HIPINPFNC_D.:E05TSI                       WED 07/30/97 03:06 Page:39
      145     3608        /*
      146     3609           Input operators (INPOPRs) for special characters (SPCCHRs).
      147     3610           These INPOPRs must have fixed (non-floating) displacements
      148     3611           from the start of the INPOPR table (KV_INPOPR0).
      149     3612        */
      150     3613        %EQU Y#ASCIIBS =KV_INPOPRX;
      151     3614        %KV_INPOPR (TEST=KZ#SPCCHR_BS,
      152     3615           TYP=VDHINPPRC, RED=, ID=KV_INPPRC_PSTLFT); /* Ascii bs (backspace)         */
      153     3653        %KV_INPOPR (TEST=KZ#SPCCHR_CAN,
      154     3654           TYP=MSC, IMD=, DLTINP=, DLTRED=, DLTOTP=); /* Ascii can (ctr-x)            */
      155     3692        %KV_INPOPR (TEST=KZ#SPCCHR_CR,
      156     3693           TYP=VDHINPPRC, RED=, ID=KV_INPPRC_CR); /*Ascii cr (carriage return)        */
      157     3731        %KV_INPOPR (TEST=KZ#SPCCHR_DC1,
      158     3732           TYP=MSC, IMD=);
      159     3770        %EQU Y#ASCIIDC2 =KV_INPOPRX;
      160     3771        %KV_INPOPR (TEST=KZ#SPCCHR_DC2,
      161     3772           TYP=VDHINPPRC, RED=, ID=KV_INPPRC_PSTRHT); /* Ascii DC2                    */
      162     3810        %KV_INPOPR (TEST=KZ#SPCCHR_DC3,
      163     3811           TYP=MSC, IMD=);
      164     3849        %KV_INPOPR (TEST=KZ#SPCCHR_DEL,
      165     3850           TYP=VDHINPPRC, RED=, ID=KV_INPPRC_DEL); /*Ascii del (rubout)               */
      166     3888        %KV_INPOPR (TEST=KZ#SPCCHR_EM,
      167     3889           TYP=JMP, IMD=, INPOPRX=Y#ASCIIEM);   /* Ascii em (ctr-y)                   */
      168     3927        %KV_INPOPR (TEST=KZ#SPCCHR_ESC,
      169     3928           TYP=VDHINPPRC, IMD=, RED=, ID=KV_INPPRC_ESC); /*Ascii ESC                  */
      170     3966        %KV_INPOPR (TEST=KZ#SPCCHR_FF,
      171     3967           TYP=VDHINPPRC, RED=, ID=KV_INPPRC_SCREND); /*Ascii ff (ctr-l)              */
      172     4005        %EQU Y#ASCIIHT =KV_INPOPRX;
      173     4006        %KV_INPOPR (TEST=KZ#SPCCHR_HT,
      174     4007           TYP=VDHINPPRC, RED=, ID=KV_INPPRC_TAB); /* Ascii ht, ESC-I, ESC-HT         */
      175     4045        %KV_INPOPR (TEST=KZ#SPCCHR_LF,
      176     4046           TYP=VDHINPPRC, RED=, ID=KV_INPPRC_LF); /* Ascii lf (line feed)             */
      177     4084        /*
      178     4085           End of INPOPRs which must have fixed displacements.
      179     4086        */
      180     4087        %EJECT;
PL6.E3A0      #001=KZ_INPFNC_D File=KZ_HIPINPFNC_D.:E05TSI                       WED 07/30/97 03:06 Page:40
      181     4088        /*
      182     4089           Now we'll reproduce the fixed displacement ones for the forms table,
      183     4090           since ther'ye a little different.
      184     4091        */
      185     4092        /* First save and re-establish the zero point. */
      186     4093        %EQU KZ_CP5_0=KV_INPOPR0;
      187     4094        %SET KV_INPOPR0=KV_INPOPRX-1;
      188     4095        /*
      189     4096          Input operators (INPOPRs) used by routines that directly call the
      190     4097          input function interpreter with INPOPR indexes.
      191     4098          These INPOPRs must have fixed (non-floating) displacements
      192     4099          from the start of the INPOPR table (KV_INPOPR0).
      193     4100        */
      194     4101        %KV_INPOPR (TEST=KV_INPOPRX_INT,
      195     4102           TYP=MSC, IMD=);            /* Initialization (after switching inpfnctbl's) */
      196     4140        %KV_INPOPR (TEST=KV_INPOPRX_PRGINP,
      197     4141           TYP=MSC, IMD=, DLTINP=);             /* M$PURGE input                      */
      198     4179        %KV_INPOPR (TEST=KV_INPOPRX_PRGOTP,
      199     4180           TYP=MSC, IMD=, DLTOTP=);             /* M$PURGE output                     */
      200     4218        %KV_INPOPR (TEST=KV_INPOPRX_PRTERR,
      201     4219           TYP=JMP, RED=, INPOPRX=Y#INPOPR_PRTERR); /*                                */
      202     4257        %KV_INPOPR (TEST=KV_INPOPRX_RE_RED,
      203     4258           TYP=JMP, IMD=, INPOPRX=Y#INPOPR_RE_RED); /*M$READ w/reread           */
      204     4296        %KV_INPOPR (TEST=KV_INPOPRX_RE_TYP,
      205     4297           TYP=JMP, IMD=, INPOPRX=Y#INPOPR_RE_TYP); /*G#FNCWRTIMD in read       */
      206     4335        %KV_INPOPR (TYP=MSC, RED=);             /* Spare                              */
      207     4373        %KV_INPOPR (TEST=KV_INPOPRX_REDDATLST,
      208     4374           TYP=ACTRED, RED=, CMPCOD=KV_CMPCOD_BFROVRRUN); /*                          */
      209     4412        %KV_INPOPR (TEST=KV_INPOPRX_RSTINSMOD,
      210     4413           TYP=JMP, RED=, INPOPRX=Y#INPOPR_RSTINSMOD); /*Reset insert mode      */
      211     4451        %KV_INPOPR (TYP=MSC, IMD=);             /* Spare 1                            */
      212     4489        %KV_INPOPR (TYP=MSC, IMD=);             /* Spare 2                            */
      213     4527        %KV_INPOPR (TYP=MSC, IMD=);             /* Spare 3                            */
      214     4565        %KV_INPOPR (TYP=MSC, IMD=);             /* Spare 4                            */
      215     4603        %EJECT;
PL6.E3A0      #001=KZ_INPFNC_D File=KZ_HIPINPFNC_D.:E05TSI                       WED 07/30/97 03:06 Page:41
      216     4604        /*
      217     4605           Input operators (INPOPRs) for special characters (SPCCHRs).
      218     4606           These INPOPRs must have fixed (non-floating) displacements
      219     4607           from the start of the INPOPR table (KV_INPOPR0).
      220     4608        */
      221     4609        %KV_INPOPR (TEST=KZ#SPCCHR_BS,
      222     4610           TYP=VDHINPPRC, RED=, ID=KV_INPPRC_PSTLFT); /* Ascii bs (backspace)         */
      223     4648        %KV_INPOPR (TEST=KZ#SPCCHR_CAN,
      224     4649           TYP=MSC, IMD=, DLTINP=, DLTRED=);    /* Ascii can (ctr-x)                  */
      225     4687        %KV_INPOPR (TEST=KZ#SPCCHR_CR,
      226     4688           TYP=ACTRED, IMD=, CMPCOD=KV_CMPCOD_NRM); /*Ascii cr (carriage return)      */
      227     4726        %KV_INPOPR (TEST=KZ#SPCCHR_DC1,
      228     4727           TYP=MSC, IMD=);
      229     4765        %KV_INPOPR (TEST=KZ#SPCCHR_DC2,
      230     4766           TYP=VDHINPPRC, RED=, ID=KV_INPPRC_PSTRHT); /* Ascii DC2                    */
      231     4804        %KV_INPOPR (TEST=KZ#SPCCHR_DC3,
      232     4805           TYP=MSC, IMD=);
      233     4843        %KV_INPOPR (TEST=KZ#SPCCHR_DEL,
      234     4844           TYP=VDHINPPRC, RED=, ID=KV_INPPRC_DEL); /*Ascii del (rubout)               */
      235     4882        %KV_INPOPR (TEST=KZ#SPCCHR_EM,
      236     4883           TYP=JMP, IMD=, INPOPRX=Y#F_MNTATN);  /* Ascii em (ctr-y)                   */
      237     4921        %KV_INPOPR (TEST=KZ#SPCCHR_ESC,
      238     4922           TYP=VDHINPPRC, IMD=, RED=, ID=KV_INPPRC_ESC); /*Ascii ESC                  */
      239     4960        %KV_INPOPR (TEST=KZ#SPCCHR_FF,
      240     4961           TYP=MSC, IMD=);
      241     4999        %KV_INPOPR (TEST=KZ#SPCCHR_HT,
      242     5000           TYP=VDHINPPRC, RED=, ID=KV_INPPRC_TAB); /* Ascii ht, ESC-I, ESC-HT         */
      243     5038        %KV_INPOPR (TEST=KZ#SPCCHR_LF,
      244     5039           TYP=ACTRED, RED=, CMPCOD=KV_CMPCOD_NRM); /* Ascii lf (line feed)           */
      245     5077        %EQU KZ_FRM1_0=KV_INPOPR0;
      246     5078        /*
      247     5079           End of INPOPRs which must have fixed displacements.
      248     5080        */
      249     5081        %EJECT;
PL6.E3A0      #001=KZ_INPFNC_D File=KZ_HIPINPFNC_D.:E05TSI                       WED 07/30/97 03:06 Page:42
      250     5082        %SET KV_INPOPR0=KZ_CP5_0;
      251     5083        /*
      252     5084           INPOPRs for control strings
      253     5085        */
      254     5086        %EQU Y#INPCTRSTR_BRK=KV_INPOPRX;
      255     5087        %KV_INPOPR (TYP=VDHINPPRC, IMD=, ID=KV_INPPRC_BRK, CHN=);
      256     5125        %KV_INPOPR (TYP=USRINPPRC, IMD=, ID=KZ#INPPRC_DVCOTPBFRCLR, CHN=);
      257     5163        %KV_INPOPR (TYP=MSC,       IMD=, DLTINP=, DLTOTP=, ABRRED=, CHN=);
      258     5201        %KV_INPOPR (TYP=RSTPRM,    IMD=, PRMID=KV_PRMID_HALFDUPLEXPAPERTAPE);
      259     5239        %EQU Y#INPCTRSTR_CLAOVRRUN=KV_INPOPRX;
      260     5240        %KV_INPOPR (TYP=USRINPPRC, IMD=, ID=KZ#INPPRC_CLAOVRRUN, CHN=);
      261     5278        %KV_INPOPR (TYP=TXT,       RED=, DSP=WRT,
      262     5279                    TXT="%CONCAT (BITASC (ASCIIBEL), BITASC (ASCIINMB))", CHN=);
      263     5317        %KV_INPOPR (TYP=ACTRED,    RED=, CMPCOD=KV_CMPCOD_RATERR);
      264     5355        %EQU Y#INPCTRSTR_DSCLCL = KV_INPOPRX;
      265     5356        %KV_INPOPR (TYP=VDHINPPRC, IMD=, ID=KV_INPPRC_TGLLCLMOD, CHN=);
      266     5394        %EQU Y#INPCTRSTR_DSC=KV_INPOPRX;
      267     5395        %KV_INPOPR (TYP=MSC,       IMD=, DLTINP=, DLTOTP=, ABRRED=, CHN=);
      268     5433        %KV_INPOPR (TYP=VDHINPPRC, IMD=, ID=KV_INPPRC_DSC);
      269     5471        %EJECT;
PL6.E3A0      #001=KZ_INPFNC_D File=KZ_HIPINPFNC_D.:E05TSI                       WED 07/30/97 03:06 Page:43
      270     5472        /*
      271     5473           Input operators (INPOPRs) for ESCAPE sequences (INPFNCs).
      272     5474        */
      273     5475        %EQU Y#ESC_SOH=KV_INPOPRX;
      274     5476        %KV_INPOPR (TYP=TGLPRM,    IMD=, ACK=, PRMID=KV_PRMID_WRPPAG);
      275     5514        %EQU Y#ESC_STX=KV_INPOPRX;
      276     5515        %KV_INPOPR (TYP=VDHINPPRC, IMD=, ID=KV_INPPRC_BRK, CHN=);
      277     5553        %KV_INPOPR (TYP=MSC,       IMD=, ABRRED=);
      278     5591        %EQU Y#ESC_EOT=KV_INPOPRX;
      279     5592        %KV_INPOPR (TYP=VDHINPPRC, RED=, ACK=, ID=KV_INPPRC_COPSTREDTBFR, CHN=);
      280     5630        %KV_INPOPR (TYP=VDHINPPRC, RED=, ID=KV_INPPRC_RE_PSTRED, CHN=);
      281     5668        %KV_INPOPR (TYP=VDHINPPRC, RED=, ID=KV_INPPRC_RE_TYP);
      282     5706        %EQU Y#ESC_LF=KV_INPOPRX;
      283     5707        %KV_INPOPR (TYP=VDHINPPRC, RED=, ID=KV_INPPRC_LCLLF);
      284     5745        %EQU Y#ESC_VT=KV_INPOPRX;
      285     5746        %KV_INPOPR (TYP=VDHINPPRC, RED=, ID=KV_INPPRC_DLTTO_BGN);
      286     5784        %EQU Y#ESC_CR=KV_INPOPRX;
      287     5785        %KV_INPOPR (TYP=VDHINPPRC, RED=, ID=KV_INPPRC_PSTBGNRED);
      288     5823        %EQU Y#ESC_DC2=KV_INPOPRX;
      289     5824        %KV_INPOPR (TYP=VDHINPPRC, RED=, ID=KV_INPPRC_RSTINSMOD);
      290     5862        %EQU Y#ESC_DC4=KV_INPOPRX;
      291     5863        %KV_INPOPR (TYP=TGLPRM,    IMD=, ACK=, PRMID=KV_PRMID_TRUNCATE);
      292     5901        %EQU Y#ESC_LFTPRN=KV_INPOPRX;
      293     5902        %KV_INPOPR (TYP=RSTPRM,    RED=, ACK=, PRMID=KV_PRMID_LOWERCASE);
      294     5940        %EQU Y#ESC_RHTPRN=KV_INPOPRX;
      295     5941        %KV_INPOPR (TYP=SETPRM,    RED=, ACK=, PRMID=KV_PRMID_LOWERCASE);
      296     5979        %EQU Y#ESC_APLDLR=KV_INPOPRX;
      297     5980        %KV_INPOPR (TYP=USRINPPRC, IMD=, ACK=, ID=KZ#INPPRC_SETTRNTBL);
      298     6018        %EQU Y#ESC_HPH=KV_INPOPRX;
      299     6019        %KV_INPOPR (TYP=VDHINPPRC, IMD=, ID=KV_INPPRC_AT_PRF);
      300     6057        %EQU Y#ESC_LFTARW=KV_INPOPRX;
      301     6058        %KV_INPOPR (TYP=VDHINPPRC, RED=, ID=KV_INPPRC_SETINSLOWX);
      302     6096        %EQU Y#ESC_RHTARW=KV_INPOPRX;
      303     6097        %KV_INPOPR (TYP=VDHINPPRC, RED=, ID=KV_INPPRC_SETINSHI_X);
      304     6135        %EQU Y#ESC_A=KV_INPOPRX;
      305     6136        %KV_INPOPR (TYP=TGLPRM,    IMD=, ACK=, PRMID=KV_PRMID_PAGEHALT);
      306     6174        %EQU Y#ESC_B=KV_INPOPRX;
PL6.E3A0      #001=KZ_INPFNC_D File=KZ_HIPINPFNC_D.:E05TSI                       WED 07/30/97 03:06 Page:44
      307     6175        %KV_INPOPR (TYP=VDHINPPRC, IMD=, ID=KV_INPPRC_BRK, CHN=);
      308     6213        %KV_INPOPR (TYP=MSC,       IMD=, DLTINP=, ABRRED=);
      309     6251        %EQU Y#ESC_C=KV_INPOPRX;
      310     6252        %KV_INPOPR (TYP=TGLPRM,    RED=, ACK=, PRMID=KV_PRMID_TABRELATIVE);
      311     6290        %EQU Y#ESC_D=KV_INPOPRX;
      312     6291        %KV_INPOPR (TYP=VDHINPPRC, RED=, ACK=, ID=KV_INPPRC_COPSSNEDTBFR, CHN=);
      313     6329        %KV_INPOPR (TYP=VDHINPPRC, RED=, ID=KV_INPPRC_RE_PSTRED, CHN=);
      314     6367        %KV_INPOPR (TYP=VDHINPPRC, RED=, ID=KV_INPPRC_RE_TYP);
      315     6405        %EQU Y#ESC_E=KV_INPOPRX;
      316     6406        %KV_INPOPR (TYP=TGLPRM,    RED=, ACK=, PRMID=KV_PRMID_DISPINPUT);
      317     6444        %EQU Y#ESC_F=KV_INPOPRX;
      318     6445        %KV_INPOPR (TYP=ACTRED,    RED=, ACK=, CMPCOD=KV_CMPCOD_EOF);
      319     6483        %EQU Y#ESC_G=KV_INPOPRX;
      320     6484        %KV_INPOPR (TYP=VDHINPPRC, IMD=, ID=KV_INPPRC_OTPPRTID);
      321     6522        %EQU Y#ESC_H=KV_INPOPRX;
      322     6523        %KV_INPOPR (TYP=USRINPPRC, IMD=, ID=KZ#INPPRC_HLTOTP);
      323     6561        %EQU Y#ESC_J=KV_INPOPRX;
      324     6562        %KV_INPOPR (TYP=VDHINPPRC, RED=, ID=KV_INPPRC_SETINSHI_X);
      325     6600        %EQU Y#ESC_K=KV_INPOPRX;
      326     6601        %KV_INPOPR (TYP=VDHINPPRC, RED=, ACK=, ID=KV_INPPRC_DLTTO_END);
      327     6639        %EQU Y#ESC_L=KV_INPOPRX;
      328     6640        %KV_INPOPR (TYP=VDHINPPRC, RED=, ID=KV_INPPRC_PAGBRK);
      329     6678        %EQU Y#ESC_M=KV_INPOPRX;
      330     6679        %KV_INPOPR (TYP=RSTPRM,    RED=, PRMID=KV_PRMID_INSMOD, CHN=);
      331     6717        %KV_INPOPR (TYP=RSTPRM,    RED=, PRMID=KV_PRMID_OVRSTR);
      332     6755        %EQU Y#ESC_N=KV_INPOPRX;
      333     6756        %KV_INPOPR (TYP=VDHINPPRC, RED=, ID=KV_INPPRC_PSTENDRED);
      334     6794        %EQU Y#ESC_O=KV_INPOPRX;
      335     6795        %KV_INPOPR (TYP=RSTPRM,    RED=, PRMID=KV_PRMID_INSMOD, CHN=);
      336     6833        %KV_INPOPR (TYP=SETPRM,    RED=, PRMID=KV_PRMID_OVRSTR);
      337     6871        %EQU Y#ESC_Q=KV_INPOPRX;
      338     6872        %KV_INPOPR (TYP=VDHINPPRC, IMD=, ID=KV_INPPRC_OTPSTT);
      339     6910        %EQU Y#ESC_R=KV_INPOPRX;
      340     6911        %KV_INPOPR (TYP=JMP,       RED=, ACK=, INPOPRX=Y#INPOPR_RSTINSMOD);
      341     6949        %EQU Y#ESC_S=KV_INPOPRX;
      342     6950        %KV_INPOPR (TYP=TGLPRM,    RED=, ACK=, PRMID=KV_PRMID_SPACEINSERT);
      343     6988        %EQU Y#ESC_T=KV_INPOPRX;
PL6.E3A0      #001=KZ_INPFNC_D File=KZ_HIPINPFNC_D.:E05TSI                       WED 07/30/97 03:06 Page:45
      344     6989        %KV_INPOPR (TYP=TGLPRM,    RED=, ACK=, PRMID=KV_PRMID_TABSIM);
      345     7027        %EQU Y#ESC_U=KV_INPOPRX;
      346     7028        %KV_INPOPR (TYP=TGLPRM,    RED=, ACK=, PRMID=KV_PRMID_UPPERCASE);
      347     7066        %EQU Y#ESC_V=KV_INPOPRX;
      348     7067        %KV_INPOPR (TYP=FLWON,     IMD=, RED=);
      349     7105        %KV_INPOPR (TYP=VDHINPPRC, RED=, ID=KV_INPPRC_FNDPSTCHR);
      350     7143        %EQU Y#ESC_W=KV_INPOPRX;
      351     7144        %KV_INPOPR (TYP=MSC,       IMD=, DLTOTP=, CHN=);
      352     7182        %KV_INPOPR (TYP=TGLPRM,    IMD=, ACK=, PRMID=KV_PRMID_OUTPUTDISCARD);
      353     7220        %EQU Y#ESC_X=KV_INPOPRX;
      354     7221        %KV_INPOPR (TYP=MSC,       RED=, ACK=, DLTRED=);
      355     7259        %EQU Y#ESC_Y=KV_INPOPRX;
      356     7260        %KV_INPOPR (TYP=VDHINPPRC, IMD=, ID=KV_INPPRC_MNTATN, CHN=);
      357     7298        %KV_INPOPR (TYP=MSC,       IMD=, DLTINP=, ABRRED=);
      358     7336        %EJECT;
PL6.E3A0      #001=KZ_INPFNC_D File=KZ_HIPINPFNC_D.:E05TSI                       WED 07/30/97 03:06 Page:46
      359     7337        /*
      360     7338           A couple of items just for forms.
      361     7339        */
      362     7340        %EQU Y#F_PSTUP =KV_INPOPRX;
      363     7341        %KV_INPOPR (TYP=PST,       RED=, VRTPSTUNT=FLD, VRTPSTVAL=-1, HRZPSTVAL=1);
      364     7452        %EQU Y#F_PSTDWN=KV_INPOPRX;
      365     7453        %KV_INPOPR (TYP=PST,       RED=, VRTPSTUNT=FLD, VRTPSTVAL=1, HRZPSTVAL=1);
      366     7564        %EQU Y#F_RE_DSP=KV_INPOPRX;
      367     7565        %KV_INPOPR (TYP=VDHINPPRC, IMD=, ID=KV_INPPRC_RE_TYPFRM);
      368     7603        /* Spares for patching */
      369     7604    1      2 *(0:20) UBIN INIT(0*0),
      370     7605        %SET KV_INPOPRX=KV_INPOPRX+21;
      371     7606        %EJECT;
PL6.E3A0      #001=KZ_INPFNC_D File=KZ_HIPINPFNC_D.:E05TSI                       WED 07/30/97 03:06 Page:47
      372     7607        /*
      373     7608           First the necessary control strings so that FNC=NONE is ok.
      374     7609        */
      375     7610        %KV_FNCID (ID=KZ#INPCTRSTRCHR_DSC, INPOPRX=Y#INPCTRSTR_DSC, TYP=CTRSTR);
      376     7697        /*
      377     7698           Save the current status. That's all we need for FNC=NONE.
      378     7699        */
      379     7700        %EQU KZ_NUL_FNCID_SAV = KV_FNCID_SAV;
      380     7701
      381     7702        /*
      382     7703           Input function identifiers declaring system primary
      383     7704           ESCAPE sequences for the smallest subset of the CP-5 compatible table.
      384     7705        */
      385     7706        %KV_FNCID (ID=ASCIIEOT, INPOPRX=Y#ESC_EOT, TYP=PRMESC);
      386     7793        %KV_FNCID (ID=ASCIILF, INPOPRX=Y#ESC_LF);
      387     7880        %KV_FNCID (ID=ASCIIVT, INPOPRX=Y#ESC_VT);
      388     7967        %KV_FNCID (ID=ASCIICR, INPOPRX=Y#ESC_CR);
      389     8054        %KV_FNCID (ID=ASCIIDC2, INPOPRX=Y#ESC_DC2);
      390     8141        %KV_FNCID (ID=ASCIIDC4, INPOPRX=Y#ESC_DC4);
      391     8228        %KV_FNCID (ID='<', INPOPRX=Y#ESC_LFTARW);
      392     8315        %KV_FNCID (ID='>', INPOPRX=Y#ESC_RHTARW);
      393     8402        %EQU Y#ESC_QOT=KV_INPOPRX;
      394     8403        %KV_INPOPR (TYP=SETPRM, RED=, PRMID=KV_PRMID_INSMOD, FNCID=ASCIISNGQOT);
      395     8527        %EQU Y#ESC_ETB=KV_INPOPRX;
      396     8528        %KV_INPOPR (TYP=VDHINPPRC, RED=, ID=KV_INPPRC_DELWRD, FNCID=ASCIIETB);
      397     8652        %EQU Y#ESC_DEL=KV_INPOPRX;
      398     8653        %KV_INPOPR (TYP=VDHINPPRC, RED=, ID=KV_INPPRC_DELLFT, FNCID=ASCIIDEL);
      399     8777        %EQU Y#ESC_AST=KV_INPOPRX;
      400     8778        %KV_INPOPR (TYP=VDHINPPRC, RED=, ID=KV_INPPRC_SAVEDTWND, FNCID=ASCIIAST);
      401     8902        %EQU Y#ESC_CLN=KV_INPOPRX;
      402     8903        %KV_INPOPR (TYP=VDHINPPRC, RED=, ID=KV_INPPRC_RCLEDTWND, FNCID=ASCIICLN);
      403     9027        %KV_FNCID (ID='D', INPOPRX=Y#ESC_D);
      404     9114        %KV_FNCID (ID='F', INPOPRX=Y#ESC_F);
      405     9201        %KV_FNCID (ID='G', INPOPRX=Y#ESC_G);
      406     9288        %KV_FNCID (ID='J', INPOPRX=Y#ESC_J);
      407     9375        %KV_FNCID (ID='K', INPOPRX=Y#ESC_K);
      408     9462        %KV_FNCID (ID='N', INPOPRX=Y#ESC_N);
PL6.E3A0      #001=KZ_INPFNC_D File=KZ_HIPINPFNC_D.:E05TSI                       WED 07/30/97 03:06 Page:48
      409     9549        %KV_FNCID (ID='Q', INPOPRX=Y#ESC_Q);
      410     9636        %KV_FNCID (ID='R', INPOPRX=Y#ESC_R);
      411     9723        %KV_FNCID (ID='V', INPOPRX=Y#ESC_V);
      412     9810        %KV_FNCID (ID='X', INPOPRX=Y#ESC_X);
      413     9897        %EQU Y#ESC_Z = KV_INPOPRX;
      414     9898        %KV_INPOPR (TYP=VDHINPPRC, IMD=, ID=KV_INPPRC_TGLLCLMOD, FNCID='Z');
      415    10022        %EJECT;
PL6.E3A0      #001=KZ_INPFNC_D File=KZ_HIPINPFNC_D.:E05TSI                       WED 07/30/97 03:06 Page:49
      416    10023        /*
      417    10024           Secondary ESCAPE functions (permitting numbers) for the smallest subset.
      418    10025           That's the generic set/reset/toggle parameter ones, pstlft-rht, and tab.
      419    10026        */
      420    10027
      421    10028        %EQU Y#SET_PRM=KV_INPOPRX;
      422    10029        %KV_INPOPR (TYP=SETPRM, IMD=, PRMID=0, FNCID='S', FNCTYP=SCNESC);
      423    10153        %EQU Y#RST_PRM=KV_INPOPRX;
      424    10154        %KV_INPOPR (TYP=RSTPRM, IMD=, PRMID=0, FNCID='R');
      425    10278        %EQU Y#TGL_PRM=KV_INPOPRX;
      426    10279        %KV_INPOPR (TYP=TGLPRM, IMD=, ACK=, PRMID=0, FNCID='T');
      427    10403        %KV_FNCID (ID='C', INPOPRX=Y#ASCIIDC2);
      428    10490        %KV_FNCID (ID='D', INPOPRX=Y#ASCIIBS);
      429    10577        %KV_FNCID (ID='I', INPOPRX=Y#ASCIIHT);
      430    10664        %EQU Y#ESC_HT=KV_INPOPRX;
      431    10665        %KV_INPOPR (TYP=SETPRM, RED=, PRMID=KV_PRMID_EDTRHT, FNCID=ASCIIHT);
      432    10789        %EQU Y#ESC_UP_ARW=KV_INPOPRX;
      433    10790        %KV_INPOPR (TYP=SETPRM, RED=, PRMID=KV_PRMID_WRDWRPCLM, FNCID=ASCIIUP_ARW);
      434    10914        %EQU Y#ESC_PRD = KV_INPOPRX;
      435    10915        %KV_INPOPR (TYP=VDHINPPRC, IMD=, ID=KV_INPPRC_NXTSSN, FNCID='.');
      436    11039
      437    11040        /*
      438    11041           Input function identifiers declaring special characters (SPCCHRs).
      439    11042           for the smallest CP-5 subset.
      440    11043        */
      441    11044        %KV_FNCID (ID=ASCIIBS, INPOPRX=KZ_CP5_0+KZ#SPCCHR_BS, TYP=SPCCHR);
      442    11131        %KV_FNCID (ID=ASCIIHT, INPOPRX=KZ_CP5_0+KZ#SPCCHR_HT);
      443    11218        %KV_FNCID (ID=ASCIILF, INPOPRX=KZ_CP5_0+KZ#SPCCHR_LF);
      444    11305        %KV_FNCID (ID=ASCIIFF, INPOPRX=KZ_CP5_0+KZ#SPCCHR_FF);
      445    11392        %KV_FNCID (ID=ASCIICR, INPOPRX=KZ_CP5_0+KZ#SPCCHR_CR);
      446    11479        %KV_FNCID (ID=ASCIIDC2, INPOPRX=KZ_CP5_0+KZ#SPCCHR_DC2);
      447    11566        %KV_FNCID (ID=ASCIICAN, INPOPRX=KZ_CP5_0+KZ#SPCCHR_CAN);
      448    11653        %KV_FNCID (ID=ASCIIESC, INPOPRX=KZ_CP5_0+KZ#SPCCHR_ESC);
      449    11740        %KV_FNCID (ID=ASCIIDEL, INPOPRX=KZ_CP5_0+KZ#SPCCHR_DEL);
      450    11827        %EQU Y#ASCIIETB=KV_INPOPRX;
      451    11828        %KV_INPOPR (TYP=VDHINPPRC, RED=, ID=KV_INPPRC_FNDPSTWRD, FNCID=ASCIIETB);
      452    11952        %EJECT;
PL6.E3A0      #001=KZ_INPFNC_D File=KZ_HIPINPFNC_D.:E05TSI                       WED 07/30/97 03:06 Page:50
      453    11953        /*
      454    11954           And the rest of the ids for async input control strings.
      455    11955        */
      456    11956        %KV_FNCID (ID=KZ#INPCTRSTRCHR_BRK, INPOPRX=Y#INPCTRSTR_BRK, TYP=CTRSTR);
      457    12043        %KV_FNCID (ID=KZ#INPCTRSTRCHR_CLAOVRRUN, INPOPRX=Y#INPCTRSTR_CLAOVRRUN);
      458    12130        %KV_FNCID (ID=KZ#INPCTRSTRCHR_PRTERR, INPOPRX=Y#INPOPR_PRTERR);
      459    12217        %EJECT;
PL6.E3A0      #001=KZ_INPFNC_D File=KZ_HIPINPFNC_D.:E05TSI                       WED 07/30/97 03:06 Page:51
      460    12218        /*
      461    12219           Now let's save those id counts, and add the ones for CP5S1.
      462    12220        */
      463    12221        %SET KZ_CP5S2_FNCID_SAV=KV_FNCID_SAV;
      464    12222        %KV_FNCID (ID=ASCIISOH, INPOPRX=Y#ESC_SOH, TYP=PRMESC);
      465    12309        %KV_FNCID (ID=ASCIISTX, INPOPRX=Y#ESC_STX);
      466    12396        %KV_FNCID (ID=ASCIIESC, INPOPRX=Y#ESC_Y);
      467    12483        %KV_FNCID (ID='$', INPOPRX=Y#ESC_APLDLR);
      468    12570        %KV_FNCID (ID='-', INPOPRX=Y#ESC_HPH);
      469    12657        %KV_FNCID (ID='A', INPOPRX=Y#ESC_A);
      470    12744        %KV_FNCID (ID='B', INPOPRX=Y#ESC_B);
      471    12831        %KV_FNCID (ID='E', INPOPRX=Y#ESC_E);
      472    12918        %KV_FNCID (ID='H', INPOPRX=Y#ESC_H);
      473    13005        %KV_FNCID (ID='L', INPOPRX=Y#ESC_L);
      474    13092        %KV_FNCID (ID='M', INPOPRX=Y#ESC_M);
      475    13179        %KV_FNCID (ID='O', INPOPRX=Y#ESC_O);
      476    13266        %KV_FNCID (ID='U', INPOPRX=Y#ESC_U);
      477    13353        %KV_FNCID (ID='W', INPOPRX=Y#ESC_W);
      478    13440        %KV_FNCID (ID='Y', INPOPRX=Y#ESC_Y);
      479    13527        %KV_FNCID (ID='7C'X, INPOPRX=Y#ESC_APLDLR);
      480    13614        %KV_FNCID (ID='7E'X, INPOPRX=Y#ESC_APLDLR);
      481    13701        %KV_FNCID (ID='C6'X, INPOPRX=Y#ESC_APLDLR);
      482    13788        %KV_FNCID (ID='CF'X, INPOPRX=Y#ESC_APLDLR);
      483    13875        %KV_FNCID (ID='D4'X, INPOPRX=Y#ESC_APLDLR);
      484    13962        %KV_FNCID (ID='0',   INPOPRX=Y#ESC_A);
      485    14049        %KV_FNCID (ID='2',   INPOPRX=Y#ESC_B);
      486    14136        %KV_FNCID (ID='5',   INPOPRX=Y#ESC_STX);
      487    14223        %KV_FNCID (ID='6',   INPOPRX=Y#ESC_D);
      488    14310        %KV_FNCID (ID='7',   INPOPRX=Y#ESC_EOT);
      489    14397        %KV_FNCID (ID='8',   INPOPRX=Y#ESC_F);
      490    14484        %KV_FNCID (ID=':',   INPOPRX=Y#ESC_G);
      491    14571        %KV_FNCID (ID='<',   INPOPRX=Y#ESC_H);
      492    14658        %KV_FNCID (ID='>',   INPOPRX=Y#ESC_Q);
      493    14745        %KV_FNCID (ID='\',   INPOPRX=Y#ESC_C);
      494    14832        %KV_FNCID (ID='^',   INPOPRX=Y#ESC_Y);
      495    14919        %KV_FNCID (ID='_',   INPOPRX=Y#ESC_W);
      496    15006        %EQU Y#SET_HSS=KV_INPOPRX;
PL6.E3A0      #001=KZ_INPFNC_D File=KZ_HIPINPFNC_D.:E05TSI                       WED 07/30/97 03:06 Page:52
      497    15007        %KV_INPOPR (TYP=SETPRM, RED=, PRMID=KV_PRMID_HRZSCRSHF, FNCID='H',
      498    15008                    FNCTYP=SCNESC);
      499    15132        %EQU Y#SET_HSM=KV_INPOPRX;
      500    15133        %KV_INPOPR (TYP=SETPRM, RED=, PRMID=KV_PRMID_HRZSCRMRG, FNCID='M');
      501    15257        %KV_FNCID (ID=ASCIIEM, INPOPRX=KZ_CP5_0+KZ#SPCCHR_EM, TYP=SPCCHR);
      502    15344        %EJECT;
PL6.E3A0      #001=KZ_INPFNC_D File=KZ_HIPINPFNC_D.:E05TSI                       WED 07/30/97 03:06 Page:53
      503    15345        /*
      504    15346           Now we'll save those, and add the rest, to make the full table.
      505    15347        */
      506    15348        %SET KZ_CP5S1_FNCID_SAV=KV_FNCID_SAV;
      507    15349        %KV_FNCID (ID='(', INPOPRX=Y#ESC_LFTPRN, TYP=PRMESC);
      508    15436        %KV_FNCID (ID="')'", INPOPRX=Y#ESC_RHTPRN);
      509    15523        %KV_FNCID (ID='C', INPOPRX=Y#ESC_C);
      510    15610        %KV_FNCID (ID='S', INPOPRX=Y#ESC_S);
      511    15697        %KV_FNCID (ID='T', INPOPRX=Y#ESC_T);
      512    15784        %KV_FNCID (ID=ASCIIDC1, INPOPRX=KZ_CP5_0+KZ#SPCCHR_DC1, TYP=SPCCHR);
      513    15871        %KV_FNCID (ID=ASCIIDC3, INPOPRX=KZ_CP5_0+KZ#SPCCHR_DC3);
      514    15958        %EJECT;
PL6.E3A0      #001=KZ_INPFNC_D File=KZ_HIPINPFNC_D.:E05TSI                       WED 07/30/97 03:06 Page:54
      515    15959        /*
      516    15960           Now lets make some tables.
      517    15961        */
      518    15962        %LIST;
      519    15963        %KV$INPFNCTBL (NAME=NUL, NAM='NO', STCLASS=CONSTANT,
      520    15964                       LNK=KZ_INPFNC.CP5S1, LAST=",", FNCID_SAV=KZ_NUL_FNCID_SAV);
             15965        %LSET LISTDIR='0'B;
             16014    1   2 NUL,
             16016    1   3 LNK$ PTR INIT(ADDR(KZ_INPFNC.CP5S1)),
             16021    1   3 BYTSIZ UBIN(16)ALIGNED INIT(92),
             16025    1   3 USRCNT UBIN(16)ALIGNED INIT(32767) ,3 NAM CHAR(8)INIT('NO') ,
             16033    1   3 * CHAR(38)INIT('                                      '),3 * UBIN BYTE CALIGNED
             16033            INIT(0),3 * BIT(2)INIT('00'B),3 * BIT(1)INIT('0'B),3 * BIT(5)INIT
             16034    1   ('0'B),3 *(0:11)SBIN INIT(106,95,167,91,91,91,107,96,168,92,92,92),3 *(0:3)BIT(16)
             16034            INIT(
             16035    1  '1111111111111111'B,'1111111111111111'B,'1111111111111111'B,'1111111111111111'B),3 *
             16035            (0:1)SBIN INIT
             16036    1   (-158,0)
             16041    1  ,2 * CHAR(0)INIT('    SRTCDI	^.HM      <>''  *:DFGJKNQRVXZ   $-ABEHLMOUWY|~FOT025678
             16041    1  :<>\^_()CST 	            '),2 * CHAR(0)INIT(' = 3 7 s                       B E F G
             16041       H I N O           T X Y [ \ ` c d h l   ? @ m L M P Q W Z ] ^ a g j m L L L L L P Q
             16041        @ T B X Y Z c S m j J K S e f                          ')
             16044    1   ,
      521    16048        %KV$INPFNCTBL (NAME=CP5, NAM='CP5', PRMINTCHR1=ASCIIESC, STCLASS=CONSTANT,
      522    16049                       SCNINTCHR1=ASCIIESC, ESCCNTOK=S,
      523    16050                       LNK=KZ_INPFNC.NUL, LAST=",");
             16051        %LSET LISTDIR='0'B;
             16100    1   2 CP5,
             16102    1   3 LNK$ PTR INIT(ADDR(KZ_INPFNC.NUL)),
             16107    1   3 BYTSIZ UBIN(16)ALIGNED INIT(92),
             16111    1   3 USRCNT UBIN(16)ALIGNED INIT(32767) ,3 NAM CHAR(8)INIT('CP5') ,
             16119    1   3 * CHAR(38)INIT('=      lqP                            '),3 * UBIN BYTE CALIGNED
             16119            INIT(0),3 * BIT(2)INIT('01'B),3 * BIT(1)INIT('0'B),3 * BIT(5)INIT
             16120    1  ('0'B),3 *(0:11)SBIN INIT(-74,-85,-13,-89,-89,-89,-253,-264,-192,-268,-268,-268),3 *
             16120            (0:3)BIT(16)INIT(
             16121    1  '0000000000011011'B,'0000000000011011'B,'1111111111111111'B,'1111111111111111'B),3 *
             16121            (0:1)SBIN INIT
PL6.E3A0      #001=KZ_INPFNC_D File=KZ_HIPINPFNC_D.:E05TSI                       WED 07/30/97 03:06 Page:55
             16122    1   (-338,0)
             16130    1   ,
      524    16134        %KV$INPFNCTBL (NAME=CP5S1, NAM='CP5S1', PRMINTCHR1=ASCIIESC, STCLASS=CONSTANT,
      525    16135                       SCNINTCHR1=ASCIIESC, SBSLVL=1, ESCCNTOK=S,
      526    16136                       LNK=KZ_INPFNC.CP5S2, LAST=",", FNCID_SAV=KZ_CP5S1_FNCID_SAV);
             16137        %LSET LISTDIR='0'B;
             16186    1   2 CP5S1,
             16188    1   3 LNK$ PTR INIT(ADDR(KZ_INPFNC.CP5S2)),
             16193    1   3 BYTSIZ UBIN(16)ALIGNED INIT(92),
             16197    1   3 USRCNT UBIN(16)ALIGNED INIT(32767) ,3 NAM CHAR(8)INIT('CP5S1') ,
             16205    1   3 * CHAR(38)INIT('8      l!P                            '),3 * UBIN BYTE CALIGNED
             16205            INIT(1),3 * BIT(2)INIT('01'B),3 * BIT(1)INIT('0'B),3 * BIT(5)INIT
             16206    1  ('0'B),3 *(0:11)SBIN INIT(-120,-131,-59,-135,-135,-135,-345,-356,-284,-360,-360,-360
             16206            ),3 *(0:3)BIT(16)INIT(
             16207    1  '0000000000011011'B,'0000000000011011'B,'1111111111111111'B,'1111111111111111'B),3 *
             16207            (0:1)SBIN INIT
             16208    1   (-384,0)
             16216    1   ,
      527    16220        %KV$INPFNCTBL (NAME=CP5S2, NAM='CP5S2', PRMINTCHR1=ASCIIESC, STCLASS=CONSTANT,
      528    16221                       SCNINTCHR1=ASCIIESC, SBSLVL=2, ESCCNTOK=S,
      529    16222                       LNK=KZ_INPFNC.FRM1, LAST=",", FNCID_SAV=KZ_CP5S2_FNCID_SAV);
             16223        %LSET LISTDIR='0'B;
             16272    1   2 CP5S2,
             16274    1   3 LNK$ PTR INIT(ADDR(KZ_INPFNC.FRM1)),
             16279    1   3 BYTSIZ UBIN(16)ALIGNED INIT(92),
             16283    1   3 USRCNT UBIN(16)ALIGNED INIT(32767) ,3 NAM CHAR(8)INIT('CP5S2') ,
             16291    1   3 * CHAR(38)INIT(' 	     l!                             '),3 * UBIN BYTE CALIGNED
             16291            INIT(2),3 * BIT(2)INIT('01'B),3 * BIT(1)INIT('0'B),3 * BIT(5)INIT
             16292    1   ('0'B),3 *(0:11)SBIN INIT(-166,-177,-105,-181,-181,-181,-437,-448,-376,-452,-452,
             16292            -452),3 *(0:3)BIT(16)INIT(
             16293    1  '0000000000011011'B,'0000000000011011'B,'1111111111111111'B,'1111111111111111'B),3 *
             16293            (0:1)SBIN INIT
             16294    1   (-430,0)
             16302    1   ,
      530    16306        %PLIST;
      531    16307        %EJECT;
PL6.E3A0      #001=KZ_INPFNC_D File=KZ_HIPINPFNC_D.:E05TSI                       WED 07/30/97 03:06 Page:56
      532    16308        /*
      533    16309           Input function identifiers declaring system primary
      534    16310           ESCAPE sequences for the forms input function table.
      535    16311        */
      536    16312        %SET KV_INPOPR0=KZ_FRM1_0;
      537    16313        %KV_FNCID (ID=ASCIILF, INPOPRX=Y#ESC_CR, TYP=PRMESC);
      538    16400        %KV_FNCID (ID=ASCIIVT, INPOPRX=Y#ESC_VT);
      539    16487        %KV_FNCID (ID=ASCIICR, INPOPRX=Y#ESC_CR);
      540    16574        %KV_FNCID (ID=ASCIIDC2, INPOPRX=Y#ESC_DC2);
      541    16661        %KV_FNCID (ID=ASCIIETB, INPOPRX=Y#ESC_ETB);
      542    16748        %KV_FNCID (ID=ASCIIEOT, INPOPRX=Y#ESC_D);
      543    16835        %KV_FNCID (ID=ASCIIESC, INPOPRX=Y#F_MNTATN);
      544    16922        %KV_FNCID (ID='(', INPOPRX=Y#ESC_LFTPRN);
      545    17009        %KV_FNCID (ID="')'", INPOPRX=Y#ESC_RHTPRN);
      546    17096        %KV_FNCID (ID='<', INPOPRX=Y#ESC_LFTARW);
      547    17183        %KV_FNCID (ID='>', INPOPRX=Y#ESC_RHTARW);
      548    17270        %KV_FNCID (ID='-', INPOPRX=Y#F_RE_DSP);
      549    17357        %KV_FNCID (ID='A', INPOPRX=Y#F_PSTUP);
      550    17444        %KV_FNCID (ID='B', INPOPRX=Y#F_PSTDWN);
      551    17531        %KV_FNCID (ID='D', INPOPRX=Y#ESC_EOT);
      552    17618        %KV_FNCID (ID='G', INPOPRX=Y#ESC_G);
      553    17705        %KV_FNCID (ID='H', INPOPRX=Y#ESC_H);
      554    17792        %KV_FNCID (ID='J', INPOPRX=Y#ESC_J);
      555    17879        %KV_FNCID (ID='K', INPOPRX=Y#ESC_K);
      556    17966        %KV_FNCID (ID='M', INPOPRX=Y#ESC_M);
      557    18053        %KV_FNCID (ID='N', INPOPRX=Y#ESC_N);
      558    18140        %KV_FNCID (ID='O', INPOPRX=Y#ESC_O);
      559    18227        %KV_FNCID (ID='Q', INPOPRX=Y#ESC_Q);
      560    18314        %KV_FNCID (ID='R', INPOPRX=Y#ESC_R);
      561    18401        %KV_FNCID (ID='U', INPOPRX=Y#ESC_U);
      562    18488        %KV_FNCID (ID='V', INPOPRX=Y#ESC_V);
      563    18575        %KV_FNCID (ID='X', INPOPRX=Y#ESC_X);
      564    18662        %KV_FNCID (ID='Y', INPOPRX=Y#F_MNTATN);
      565    18749        %KV_INPOPR (TYP=VDHINPPRC, IMD=, ID=KV_INPPRC_BRK, CHN=, FNCID=ASCIISTX);
      566    18873        %KV_INPOPR (TYP=MSC, IMD=, DLTINP=, ABRRED=);
      567    18911        %KV_FNCID (ID='i', INPOPRX=KZ#SPCCHR_CR+KZ_FRM1_0); /* Often xmit key         */
      568    18998        %KV_FNCID (ID='Z', INPOPRX=Y#ESC_Z);
PL6.E3A0      #001=KZ_INPFNC_D File=KZ_HIPINPFNC_D.:E05TSI                       WED 07/30/97 03:06 Page:57
      569    19085        %KV_FNCID (ID=ASCIISNGQOT, INPOPRX=Y#ESC_QOT);
      570    19172        %KV_FNCID (ID=ASCIIAST, INPOPRX=Y#ESC_AST);
      571    19259        %KV_FNCID (ID=ASCIICLN, INPOPRX=Y#ESC_CLN);
      572    19346        %KV_FNCID (ID=ASCIIDEL, INPOPRX=Y#ESC_DEL);
      573    19433        %EJECT;
PL6.E3A0      #001=KZ_INPFNC_D File=KZ_HIPINPFNC_D.:E05TSI                       WED 07/30/97 03:06 Page:58
      574    19434        /*
      575    19435           Secondary input function for forms.  Put tab here to get a backtab.
      576    19436        */
      577    19437        %KV_FNCID (ID='I', INPOPRX=Y#ASCIIHT, TYP=SCNESC);
      578    19524        %KV_FNCID (ID='.', INPOPRX=Y#ESC_PRD);
      579    19611        %KV_FNCID (ID='R', INPOPRX=Y#RST_PRM);
      580    19698        %KV_FNCID (ID='S', INPOPRX=Y#SET_PRM);
      581    19785        %KV_FNCID (ID='T', INPOPRX=Y#TGL_PRM);
      582    19872        %EJECT;
PL6.E3A0      #001=KZ_INPFNC_D File=KZ_HIPINPFNC_D.:E05TSI                       WED 07/30/97 03:06 Page:59
      583    19873        /*
      584    19874           Input function identifiers declaring special characters (SPCCHRs).
      585    19875           for the forms function table.
      586    19876        */
      587    19877        %KV_FNCID (ID=ASCIIBS, INPOPRX=KZ_FRM1_0+KZ#SPCCHR_BS, TYP=SPCCHR);
      588    19964        %KV_FNCID (ID=ASCIIHT, INPOPRX=KZ_FRM1_0+KZ#SPCCHR_HT);
      589    20051        %KV_FNCID (ID=ASCIIUS, INPOPRX=KZ_FRM1_0+KZ#SPCCHR_HT);
      590    20138        %KV_FNCID (ID=ASCIILF, INPOPRX=KZ_FRM1_0+KZ#SPCCHR_LF);
      591    20225        %KV_FNCID (ID=ASCIICR, INPOPRX=KZ_FRM1_0+KZ#SPCCHR_CR);
      592    20312        %KV_FNCID (ID=ASCIIDC2, INPOPRX=KZ_FRM1_0+KZ#SPCCHR_DC2);
      593    20399        %KV_FNCID (ID=ASCIIETB, INPOPRX=Y#ASCIIETB);
      594    20486        %KV_FNCID (ID=ASCIICAN, INPOPRX=KZ_FRM1_0+KZ#SPCCHR_CAN);
      595    20573        %KV_FNCID (ID=ASCIIEM, INPOPRX=KZ_FRM1_0+KZ#SPCCHR_EM);
      596    20660        %KV_FNCID (ID=ASCIIESC, INPOPRX=KZ_FRM1_0+KZ#SPCCHR_ESC);
      597    20747        %KV_FNCID (ID=ASCIIDEL,  INPOPRX=KZ_FRM1_0+KZ#SPCCHR_DEL);
      598    20834        %EJECT;
PL6.E3A0      #001=KZ_INPFNC_D File=KZ_HIPINPFNC_D.:E05TSI                       WED 07/30/97 03:06 Page:60
      599    20835        /*
      600    20836           Now the forms control strings.  Except for break, they're the same as CP5.
      601    20837        */
      602    20838        %KV_FNCID (ID=KZ#INPCTRSTRCHR_BRK, INPOPRX=KZ_FRM1_0+KZ#SPCCHR_DC1, TYP=CTRSTR);
      603    20925        %KV_FNCID (ID=KZ#INPCTRSTRCHR_CLAOVRRUN, INPOPRX=Y#INPCTRSTR_CLAOVRRUN);
      604    21012        %KV_FNCID (ID=KZ#INPCTRSTRCHR_DSC, INPOPRX=Y#INPCTRSTR_DSC);
      605    21099        %KV_FNCID (ID=KZ#INPCTRSTRCHR_PRTERR, INPOPRX=Y#INPOPR_PRTERR);
      606    21186        %EJECT;
PL6.E3A0      #001=KZ_INPFNC_D File=KZ_HIPINPFNC_D.:E05TSI                       WED 07/30/97 03:06 Page:61
      607    21187        /*
      608    21188            Now let's build the FRM1 table.
      609    21189        */
      610    21190        %LIST;
      611    21191        %KV$INPFNCTBL (NAME=FRM1, NAM='FRM1', PRMINTCHR1=ASCIIESC, STCLASS=CONSTANT,
      612    21192                       SCNINTCHR1=ASCIIESC, ESCCNTOK=S, LAST=",");
             21193        %LSET LISTDIR='0'B;
             21242    1   2 FRM1,
             21244    1   3 LNK$ PTR INIT(ADDR(NIL)),
             21249    1   3 BYTSIZ UBIN(16)ALIGNED INIT(92),
             21253    1   3 USRCNT UBIN(16)ALIGNED INIT(32767) ,3 NAM CHAR(8)INIT('FRM1') ,
             21261    1   3 * CHAR(38)INIT('#      d!Q                            '),3 * UBIN BYTE CALIGNED
             21261            INIT(0),3 * BIT(2)INIT('01'B),3 * BIT(1)INIT('0'B),3 * BIT(5)INIT
             21262    1  ('0'B),3 *(0:11)SBIN INIT(74,109,114,125,74,74,92,127,132,143,92,92),3 *(0:3)BIT(16)
             21262            INIT(
             21263    1  '0000000000011011'B,'0000000000011011'B,'1111111111111111'B,'1111111111111111'B),3 *
             21263            (0:1)SBIN INIT
             21264    1   (-453,0)
             21269    1   ,2 * CHAR(0)INIT('       ()<>-ABDGHJKMNOQRUVXY iZ''*: I.RST 	              '),2 *
             21269           CHAR(0)INIT(' . - . / w ; f 1 2 5 6 ` V [ ) @ A B C E G H J K N O S f C   { v y
             21269        z x     } | ~                           $ Z')
             21272    1   ,
      613    21276        %PLIST;
      614    21277        /*
      615    21278           Finally, a small table of functions for local mode.
      616    21279        */
      617    21280        %KV_FNCID (ID=KZ#INPCTRSTRCHR_DSC, INPOPRX=Y#INPCTRSTR_DSCLCL, TYP=CTRSTR);
      618    21367        %KV_FNCID (ID='Z', INPOPRX=Y#ESC_Z, TYP=PRMESC);
      619    21454        %KV_INPOPR (TYP=VDHINPPRC, IMD=, ID=KV_INPPRC_ADJWND, FNCID=ASCIIESC);
      620    21578        %KV_INPOPR (TYP=VDHINPPRC, IMD=, ID=KV_INPPRC_PSTWND_UP, FNCID='A');
      621    21702        %KV_INPOPR (TYP=VDHINPPRC, IMD=, ID=KV_INPPRC_PSTWND_DWN, FNCID='B');
      622    21826        %KV_INPOPR (TYP=VDHINPPRC, IMD=, ID=KV_INPPRC_PSTWND_LFT, FNCID='D');
      623    21950        %KV_INPOPR (TYP=VDHINPPRC, IMD=, ID=KV_INPPRC_PSTWND_RHT, FNCID='C');
      624    22074        %KV_FNCID (ID='^', INPOPRX=KV_INPOPRX-4, TYP=SPCCHR);
      625    22161        %KV_FNCID (ID=ASCIILF, INPOPRX=KV_INPOPRX-4);
      626    22248        %KV_FNCID (ID=ASCIIBS, INPOPRX=KV_INPOPRX-4);
      627    22335        %KV_FNCID (ID=ASCIIDC2, INPOPRX=KV_INPOPRX-4);
PL6.E3A0      #001=KZ_INPFNC_D File=KZ_HIPINPFNC_D.:E05TSI                       WED 07/30/97 03:06 Page:62
      628    22422        /*
      629    22423           Make the table.
      630    22424        */
      631    22425        %KV$INPFNCTBL (NAME=LCLMOD, PRMINTCHR1=ASCIIESC, STCLASS=CONSTANT);
      632    22509    1   END;

PL6.E3A0      #001=KZ_INPFNC_D File=KZ_HIPINPFNC_D.:E05TSI                       WED 07/30/97 03:06 Page:63
--  Include file information  --

   KV$VDH.:E05TOU  is referenced.
   KV$GLB.:E05TOU  is referenced.
   KV$INPFNC.:E05TOU  is referenced.
   KZ_GLB_E.:E05TOU  is referenced.
   KZ_GLBASM_E.:E05TOU  is referenced.
   KV_PRMID_E.:E05TOU  is referenced.
   KV_ASCCHR_E.:E05TOU  is referenced.
   KV_GLBCNS_E.:E05TOU  is referenced.
      No diagnostics issued in procedure KZ_INPFNC_D.
PL6.E3A0      #001=KZ_INPFNC_D File=KZ_HIPINPFNC_D.:E05TSI                       WED 07/30/97 03:06 Page:64

 **** Variables and constants ****

  ****  Section 000 RoData KZ_INPFNC_D

  ****  Scalars and arrays  ****
HexLoc.c.b A Datatyp(siz) R M Lvl/name                 HexLoc.c.b A Datatyp(siz) R M Lvl/name

     2-0-0/w STRC(11024) r     1 KZ_INPFNC


   No code generated for procedure KZ_INPFNC_D .
   Procedure KZ_INPFNC_D requires 4 words of local(AUTO) storage.

    No errors detected in file KZ_HIPINPFNC_D.:E05TSI    .
PL6.E3A0      #001=KZ_INPFNC_D File=KZ_HIPINPFNC_D.:E05TSI                       WED 07/30/97 03:06 Page:65
          *** CROSS REFERENCE LISTING ***
**     DENOTES     IDENTIFIER DEFINITION
<<                 IDENTIFIER'S VALUE SET
>>                 IDENTIFIER'S VALUE USED
<>                 IDENTIFIER SET AND/OR USED
--                 IDENTIFIER REFERENCED
PL6.E3A0      #001=KZ_INPFNC_D File=KZ_HIPINPFNC_D.:E05TSI                       WED 07/30/97 03:06 Page:66
          MINI XREF LISTING

KZ_INPFNC.*.PSTVAL
      7546**DCL      7439--REDEF    7551--REDEF
KZ_INPFNC.CP5
     16100**DCL      2525--DCLINIT
KZ_INPFNC.CP5S1
     16186**DCL     16016--DCLINIT
KZ_INPFNC.CP5S2
     16272**DCL     16188--DCLINIT
KZ_INPFNC.FRM1
     21242**DCL     16274--DCLINIT
KZ_INPFNC.NUL
     16014**DCL     16102--DCLINIT
