VERSION E05

PL6.E3A0      #001=KZ_HIPSTBLS_D File=KZ_HIPSTBLS_D.:E05TSI                      WED 07/30/97 03:08 Page:1
        1        1        /*M*     KZ_HIPSTBLS_D - State table definitions for HIP            */
        2        2        /*T***********************************************************/
        3        3        /*T*                                                         */
        4        4        /*T* Copyright (c) Bull HN Information Systems Inc., 1997    */
        5        5        /*T*                                                         */
        6        6        /*T***********************************************************/
        7        7
        8        8        /*P*     NAME:     KZ_HIPSTBLS_D
        9        9                 PURPOSE:  KZ_HIPSTBLS_D provides the state table definitions
       10       10                           for HIP.                                       */
       11       11
       12       12        KZ_HIPSTBLS_D: PROC;
       13       13
       14       14        %INCLUDE KZ_HIPTAB_C;
       15      256
       16      257    1   DCL KZH$HIPSTT ENTRY(2) OPTIONAL;
       17      258    1   DCL KZH$HIPIO ENTRY(2) ALTRET OPTIONAL;
       18      259    1   DCL KZH$HIPDV ENTRY(2) ALTRET OPTIONAL;
       19      260    1   DCL KZH$HIP ENTRY(1) ALTRET OPTIONAL;
       20      261
       21      262        /*DCL KZ_VDHSTT$ PTR STATIC SYMDEF INIT (ADDR(NIL));*/
       22      263    1   DCL KZH_USRPRM$ PTR STATIC SYMDEF INIT (ADDR(NIL));
       23      264
       24      265        /*DCL KZT_ORDERS@ EPTR STATIC SYMDEF INIT(ENTADDR(NIL));*/
       25      266        /*DCL KZT_GO@ EPTR STATIC SYMDEF INIT(ENTADDR(NIL));*/
       26      267        /*DCL KZT_CNCDSC@ EPTR STATIC SYMDEF INIT(ENTADDR(NIL));*/
       27      268
       28      269            %KZ_HIP_HDR       ( STCLASS = "STATIC SYMDEF" ,
       29      270                                  STTBFR = "NIL" );
       30      294
       31      295            %KZ_HIP_MAP     ( STCLASS = "CONSTANT SYMDEF" );
       32      365
       33      366            %KZ_HIP_STBL    ( STCLASS = "CONSTANT SYMDEF" );
       34      462
       35      463    1   END KZ_HIPSTBLS_D;

PL6.E3A0      #001=KZ_HIPSTBLS_D File=KZ_HIPSTBLS_D.:E05TSI                      WED 07/30/97 03:08 Page:2
--  Include file information  --

   KZ_HIPTAB_C.:E05TOU  is referenced.
      No diagnostics issued in procedure KZ_HIPSTBLS_D.

   No code generated for procedure KZ_HIPSTBLS_D .
   Procedure KZ_HIPSTBLS_D requires 4 words of local(AUTO) storage.

    No errors detected in file KZ_HIPSTBLS_D.:E05TSI    .

PL6.E3A0      #001=KZ_HIPSTBLS_D File=KZ_HIPSTBLS_D.:E05TSI                      WED 07/30/97 03:08 Page:3

 Object Unit name= KZ_HIPSTBLS_D                              File name= KZ_HIPSTBLS_D.:E05TOU
 UTS= JUL 30 '97 03:08:17.84 WED                              Compiler= PL-6/E31         Sev=      00
 SharedLib= :SHARED_LCP6_SYSTEM                               Alt SharedLib=


    ****  Control sections  ****

 Sect   Type Bound  Init  Size HexSiz  Section name
    0   Data  even  none    19     13  KZ_HIPSTBLS_D
    1  RoData even  UTS    107     6B  KZ_HIPSTBLS_D
    2   Proc  even  none     0      0  KZ_HIPSTBLS_D

    ****  Entry defs  ****

                              Check   Calling
                             calling  sequence
  Sect HexLoc Primary Altret sequence   type   Parms  Name
     2      0   yes            yes     ~proc       0  KZ_HIPSTBLS_D

  ****  Data defs  ****

 Sect HexLoc  Name                           Sect HexLoc  Name
    0      0  KZH_USRPRM$                        0      2  KZ_HIP_HDR
    1      0  KZ_HIP_MAP                         1     1D  KZ_HIP_STBL

  ****  Entry refs  ****

         Check        Calling
        calling       sequence
Altret sequence SRef   type   Args  Name
 yes     yes    yes    Std       2 KZH$HIPIO
 yes     yes    yes    Std       2 KZH$HIPDV
         yes    yes    Std       2 KZH$HIPSTT
PL6.E3A0      #001=KZ_HIPSTBLS_D File=KZ_HIPSTBLS_D.:E05TSI                      WED 07/30/97 03:08 Page:4

  ****  Data refs  ****

  Flags:  r = read only, s = secondary
Flgs Name                             Flgs Name                             Flgs Name
r    G$ROS$
PL6.E3A0      #001=KZ_HIPSTBLS_D File=KZ_HIPSTBLS_D.:E05TSI                      WED 07/30/97 03:08 Page:5

        1        1        /*M*     KZ_HIPSTBLS_D - State table definitions for HIP            */
        2        2        /*T***********************************************************/
        3        3        /*T*                                                         */
        4        4        /*T* Copyright (c) Bull HN Information Systems Inc., 1997    */
        5        5        /*T*                                                         */
        6        6        /*T***********************************************************/
        7        7
        8        8        /*P*     NAME:     KZ_HIPSTBLS_D
        9        9                 PURPOSE:  KZ_HIPSTBLS_D provides the state table definitions
       10       10                           for HIP.                                       */
       11       11
       12       12        KZ_HIPSTBLS_D: PROC;
       13       13
       14       14        %INCLUDE KZ_HIPTAB_C;
       15      256
       16      257    1   DCL KZH$HIPSTT ENTRY(2) OPTIONAL;
       17      258    1   DCL KZH$HIPIO ENTRY(2) ALTRET OPTIONAL;
       18      259    1   DCL KZH$HIPDV ENTRY(2) ALTRET OPTIONAL;
       19      260    1   DCL KZH$HIP ENTRY(1) ALTRET OPTIONAL;
       20      261
       21      262        /*DCL KZ_VDHSTT$ PTR STATIC SYMDEF INIT (ADDR(NIL));*/
       22      263    1   DCL KZH_USRPRM$ PTR STATIC SYMDEF INIT (ADDR(NIL));
       23      264
       24      265        /*DCL KZT_ORDERS@ EPTR STATIC SYMDEF INIT(ENTADDR(NIL));*/
       25      266        /*DCL KZT_GO@ EPTR STATIC SYMDEF INIT(ENTADDR(NIL));*/
       26      267        /*DCL KZT_CNCDSC@ EPTR STATIC SYMDEF INIT(ENTADDR(NIL));*/
       27      268
       28      269            %KZ_HIP_HDR       ( STCLASS = "STATIC SYMDEF" ,
       29      270                                  STTBFR = "NIL" );
       30      294
       31      295            %KZ_HIP_MAP     ( STCLASS = "CONSTANT SYMDEF" );
       32      365
       33      366            %KZ_HIP_STBL    ( STCLASS = "CONSTANT SYMDEF" );
       34      462
       35      463    1   END KZ_HIPSTBLS_D;

PL6.E3A0      #001=KZ_HIPSTBLS_D File=KZ_HIPSTBLS_D.:E05TSI                      WED 07/30/97 03:08 Page:6
--  Include file information  --

   KZ_HIPTAB_C.:E05TOU  is referenced.
      No diagnostics issued in procedure KZ_HIPSTBLS_D.
PL6.E3A0      #001=KZ_HIPSTBLS_D File=KZ_HIPSTBLS_D.:E05TSI                      WED 07/30/97 03:08 Page:7

 **** Variables and constants ****

  ****  Section 001 RoData KZ_HIPSTBLS_D

  ****  Scalars and arrays  ****
HexLoc.c.b A Datatyp(siz) R M Lvl/name                 HexLoc.c.b A Datatyp(siz) R M Lvl/name

     0-0-0/w STRC(456)   r     1 KZ_HIP_MAP                1D-0-0/w STRC(1248)  r     1 KZ_HIP_STBL


   No code generated for procedure KZ_HIPSTBLS_D .
   Procedure KZ_HIPSTBLS_D requires 4 words of local(AUTO) storage.

    No errors detected in file KZ_HIPSTBLS_D.:E05TSI    .
PL6.E3A0      #001=KZ_HIPSTBLS_D File=KZ_HIPSTBLS_D.:E05TSI                      WED 07/30/97 03:08 Page:8
          *** CROSS REFERENCE LISTING ***
**     DENOTES     IDENTIFIER DEFINITION
<<                 IDENTIFIER'S VALUE SET
>>                 IDENTIFIER'S VALUE USED
<>                 IDENTIFIER SET AND/OR USED
--                 IDENTIFIER REFERENCED
PL6.E3A0      #001=KZ_HIPSTBLS_D File=KZ_HIPSTBLS_D.:E05TSI                      WED 07/30/97 03:08 Page:9
          MINI XREF LISTING

KZH$HIPDV
       259**DCL-ENT   284--DCLINIT
KZH$HIPIO
       258**DCL-ENT   283--DCLINIT
KZH$HIPSTT
       257**DCL-ENT   285--DCLINIT
KZ_HIP_MAP
       307**DCL       289--DCLINIT
KZ_HIP_STBL
       378**DCL       290--DCLINIT
KZ_HIP_STBL.PL6ISDUMB
       382**DCL       458--REDEF
