VERSION E05

PL6.E3A0      #001=KZ_HIPXLATE_D File=KZ_HIPXLATE_D.:E05TSI                      WED 07/30/97 03:08 Page:1
        1        1        /*M* ASCII HIP translate tables. */
        2        2        /*T***********************************************************/
        3        3        /*T*                                                         */
        4        4        /*T* Copyright (c) Bull HN Information Systems Inc., 1997    */
        5        5        /*T*                                                         */
        6        6        /*T***********************************************************/
        7        7        KZ_HIPXLATE_D: PROC;
        8        8        %INCLUDE KV$INT;
        9      640        %INCLUDE KV$GLB;
       10     1059        %INCLUDE KZ_HIPCHR_E;
       11     1196        %INCLUDE KV_GLBCNS_E;
       12     1537        %KV_INPOPRX_E;
       13     1549        %INCLUDE KZ_GLB_E;
       14     1634        %KZ_INPFNC_E;
       15     1686        %INCLUDE KZ_GLBASM_E;
       16     1768        %EQU KZ_INPCTRSTRCHR_INT=BINBIT(KZ#INPCTRSTRCHR_INT,8);
       17     1769        %EQU KZ_OTPCTRSTRCHR_BGN=BINBIT(KZ#OTPCTRSTRCHR_BGN,8);
       18     1770        %INCLUDE KV_TRNTBL_M;
       19     2105        %EJECT;
PL6.E3A0      #001=KZ_HIPXLATE_D File=KZ_HIPXLATE_D.:E05TSI                      WED 07/30/97 03:08 Page:2
       20     2106        /* Start with the output tables. */
       21     2107
       22     2108        /* Beginning with ASC95. */
       23     2109
       24     2110        /* Start the table translating everything to '#'        */
       25     2111
       26     2112        %KV_PRMOTPTRN(NAME=KZ_TRNOTPASC95_1,DFLTRNCHR='#',
       27     2113
       28     2114        /* But making the printing characters themselves   */
       29     2115
       30     2116                      FRSCHR=' ',LSTCHR='}');
       31     5388
       32     5389        /* And DEL, which doesn't position */
       33     5390
       34     5391        %KV_PRMOTPTRN           (FRSCHR='7F'X,TRNCHR=KZ_OTPCTRSTRCHR_BGN);
       35     5504
       36     5505
       37     5506        /* Make '1B', '1C' '1D' transparent */
       38     5507
       39     5508        %KV_PRMOTPTRN(FRSCHR='1B'X,LSTCHR='1D'X,LAST=YES);
       40     5689        %EJECT;
PL6.E3A0      #001=KZ_HIPXLATE_D File=KZ_HIPXLATE_D.:E05TSI                      WED 07/30/97 03:08 Page:3
       41     5690        /* Now all the positioning control characters */
       42     5691        %KV_SCNOTPTRN(NAME=KZ_TRNOTPASC95_2);
       43     5800        %KV_SCNOTPTRN(INPCHR='08'X,TYPE=OTPFNC_BS);
       44     5927        %KV_SCNOTPTRN(INPCHR='09'X,TYPE=OTPFNC_HT);
       45     6054        %KV_SCNOTPTRN(INPCHR='0A'X,TYPE=OTPFNC_LF);
       46     6181        %KV_SCNOTPTRN(INPCHR='0D'X,TYPE=OTPFNC_CR,LAST=YES);
       47     6308        /* Now for some input tables. */
       48     6309
       49     6310        /* The primary table is common and needs to be "full length". */
       50     6311
       51     6312        %KV_PRMINPTRN (NAME=KZ_TRNINPASC95_1, FRSCHR='FF'X, TRNCHR='FF'X);
       52    15172
       53    15173        /* First let's flag the SPCESC chars. */
       54    15174
       55    15175        %KV_PRMINPTRN (FRSCHR="ASCIILF,ASCIILF|'80'X", SPCESC=YES);
       56    15354
       57    15355        /* Now the direct input_function_table translations. */
       58    15356
       59    15357        %KV_PRMINPTRN (FRSCHR=ASCIIBS, INPFNC=KZ#SPCCHR_BS);
       60    15495        %KV_PRMINPTRN (FRSCHR=ASCIIHT, INPFNC=KZ#SPCCHR_HT);
       61    15633        %KV_PRMINPTRN (FRSCHR=ASCIILF, INPFNC=KZ#SPCCHR_LF);
       62    15771        %KV_PRMINPTRN (FRSCHR=ASCIIFF, INPFNC=KZ#SPCCHR_FF);
       63    15909        %KV_PRMINPTRN (FRSCHR=ASCIICR, INPFNC=KZ#SPCCHR_CR, SPCESC=YES);
       64    16047        %KV_PRMINPTRN (FRSCHR=ASCIIESC, INPFNC=KZ#SPCCHR_ESC, LAST=YES);
       65    16185
       66    16186        /**/
       67    16187        /* Now lets put some actual tables together */
       68    16188        /**/
       69    16189        %KV$TRNTBL(NAME=KZ_ASC95,STCLASS=CONSTANT SYMDEF,
       70    16190                   INPTRN1=KZ_TRNINPASC95_1,
       71    16191                   INPTRN2=NIL,
       72    16192                   OTPTRN1=KZ_TRNOTPASC95_1,
       73    16193                   OTPTRN2=KZ_TRNOTPASC95_2,
       74    16194                   OTPTRN3=NIL,
       75    16195                   EXTINPTRN=NIL,
       76    16196                   EXTOTPTRN=NIL,
       77    16197                   SPCESC=KZ_TRNINPASC95_1.SPCESC,
PL6.E3A0      #001=KZ_HIPXLATE_D File=KZ_HIPXLATE_D.:E05TSI                      WED 07/30/97 03:08 Page:4
       78    16198                   INPTKN=KZ_TRNINPASC95_1.TKNTBL,
       79    16199                   LNK=NIL,
       80    16200                   INPCHRMSK='007F'X,
       81    16201                   OTPESCCHR=%KZ#OTPCTRSTRCHR_BGN,
       82    16202        /*         OTPESCCHR1="%BITASC(KZ_OTPCTRSTRCHR_BGN)",*/
       83    16203        /*         OTPESCCHR2="%BITASC(KZ_OTPCTRSTRCHR_BGN)",*/
       84    16204                   NAM='ASC95',
       85    16205                   FNTCLS=ASC,
       86    16206                   SP_CHR=' ',
       87    16207                   HT_CHR="%BITASC(ASCIIHT)");
       88    16265        /*         INPCTRSTRINTCHR="%BITASC(KZ_INPCTRSTRCHR_INT)"); */
       89    16266        %EJECT;
PL6.E3A0      #001=KZ_HIPXLATE_D File=KZ_HIPXLATE_D.:E05TSI                      WED 07/30/97 03:08 Page:5
       90    16267    1   END;

PL6.E3A0      #001=KZ_HIPXLATE_D File=KZ_HIPXLATE_D.:E05TSI                      WED 07/30/97 03:08 Page:6
--  Include file information  --

   KV_TRNTBL_M.:E05TOU  is referenced.
   KZ_GLBASM_E.:E05TOU  is referenced.
   KZ_GLB_E.:E05TOU  is referenced.
   KV_GLBCNS_E.:E05TOU  is referenced.
   KZ_HIPCHR_E.:E05TOU  is referenced.
   KV$GLB.:E05TOU  is referenced.
   KV$INT.:E05TOU  is referenced.
      No diagnostics issued in procedure KZ_HIPXLATE_D.

   No code generated for procedure KZ_HIPXLATE_D .
   Procedure KZ_HIPXLATE_D requires 4 words of local(AUTO) storage.

    No errors detected in file KZ_HIPXLATE_D.:E05TSI    .

PL6.E3A0      #001=KZ_HIPXLATE_D File=KZ_HIPXLATE_D.:E05TSI                      WED 07/30/97 03:08 Page:7

 Object Unit name= KZ_HIPXLATE_D                              File name= KZ_HIPXLATE_D.:E05TOU
 UTS= JUL 30 '97 03:08:23.72 WED                              Compiler= PL-6/E31         Sev=      00
 SharedLib= :SHARED_LCP6_SYSTEM                               Alt SharedLib=


    ****  Control sections  ****

 Sect   Type Bound  Init  Size HexSiz  Section name
    0  RoData even  UTS    326    146  KZ_HIPXLATE_D
    1   Proc  even  none     0      0  KZ_HIPXLATE_D

    ****  Entry defs  ****

                              Check   Calling
                             calling  sequence
  Sect HexLoc Primary Altret sequence   type   Parms  Name
     1      0   yes            yes     ~proc       0  KZ_HIPXLATE_D

  ****  Data defs  ****

 Sect HexLoc  Name                           Sect HexLoc  Name
    0    126  KZ_ASC95

  ****  Data refs  ****

  Flags:  r = read only, s = secondary
Flgs Name                             Flgs Name                             Flgs Name
r    G$ROS$
PL6.E3A0      #001=KZ_HIPXLATE_D File=KZ_HIPXLATE_D.:E05TSI                      WED 07/30/97 03:08 Page:8

        1        1        /*M* ASCII HIP translate tables. */
        2        2        /*T***********************************************************/
        3        3        /*T*                                                         */
        4        4        /*T* Copyright (c) Bull HN Information Systems Inc., 1997    */
        5        5        /*T*                                                         */
        6        6        /*T***********************************************************/
        7        7        KZ_HIPXLATE_D: PROC;
        8        8        %INCLUDE KV$INT;
        9      640        %INCLUDE KV$GLB;
       10     1059        %INCLUDE KZ_HIPCHR_E;
       11     1196        %INCLUDE KV_GLBCNS_E;
       12     1537        %KV_INPOPRX_E;
       13     1549        %INCLUDE KZ_GLB_E;
       14     1634        %KZ_INPFNC_E;
       15     1686        %INCLUDE KZ_GLBASM_E;
       16     1768        %EQU KZ_INPCTRSTRCHR_INT=BINBIT(KZ#INPCTRSTRCHR_INT,8);
       17     1769        %EQU KZ_OTPCTRSTRCHR_BGN=BINBIT(KZ#OTPCTRSTRCHR_BGN,8);
       18     1770        %INCLUDE KV_TRNTBL_M;
       19     2105        %EJECT;
PL6.E3A0      #001=KZ_HIPXLATE_D File=KZ_HIPXLATE_D.:E05TSI                      WED 07/30/97 03:08 Page:9
       20     2106        /* Start with the output tables. */
       21     2107
       22     2108        /* Beginning with ASC95. */
       23     2109
       24     2110        /* Start the table translating everything to '#'        */
       25     2111
       26     2112        %KV_PRMOTPTRN(NAME=KZ_TRNOTPASC95_1,DFLTRNCHR='#',
       27     2113
       28     2114        /* But making the printing characters themselves   */
       29     2115
       30     2116                      FRSCHR=' ',LSTCHR='}');
       31     5388
       32     5389        /* And DEL, which doesn't position */
       33     5390
       34     5391        %KV_PRMOTPTRN           (FRSCHR='7F'X,TRNCHR=KZ_OTPCTRSTRCHR_BGN);
       35     5504
       36     5505
       37     5506        /* Make '1B', '1C' '1D' transparent */
       38     5507
       39     5508        %KV_PRMOTPTRN(FRSCHR='1B'X,LSTCHR='1D'X,LAST=YES);
       40     5689        %EJECT;
PL6.E3A0      #001=KZ_HIPXLATE_D File=KZ_HIPXLATE_D.:E05TSI                      WED 07/30/97 03:08 Page:10
       41     5690        /* Now all the positioning control characters */
       42     5691        %KV_SCNOTPTRN(NAME=KZ_TRNOTPASC95_2);
       43     5800        %KV_SCNOTPTRN(INPCHR='08'X,TYPE=OTPFNC_BS);
       44     5927        %KV_SCNOTPTRN(INPCHR='09'X,TYPE=OTPFNC_HT);
       45     6054        %KV_SCNOTPTRN(INPCHR='0A'X,TYPE=OTPFNC_LF);
       46     6181        %KV_SCNOTPTRN(INPCHR='0D'X,TYPE=OTPFNC_CR,LAST=YES);
       47     6308        /* Now for some input tables. */
       48     6309
       49     6310        /* The primary table is common and needs to be "full length". */
       50     6311
       51     6312        %KV_PRMINPTRN (NAME=KZ_TRNINPASC95_1, FRSCHR='FF'X, TRNCHR='FF'X);
       52    15172
       53    15173        /* First let's flag the SPCESC chars. */
       54    15174
       55    15175        %KV_PRMINPTRN (FRSCHR="ASCIILF,ASCIILF|'80'X", SPCESC=YES);
       56    15354
       57    15355        /* Now the direct input_function_table translations. */
       58    15356
       59    15357        %KV_PRMINPTRN (FRSCHR=ASCIIBS, INPFNC=KZ#SPCCHR_BS);
       60    15495        %KV_PRMINPTRN (FRSCHR=ASCIIHT, INPFNC=KZ#SPCCHR_HT);
       61    15633        %KV_PRMINPTRN (FRSCHR=ASCIILF, INPFNC=KZ#SPCCHR_LF);
       62    15771        %KV_PRMINPTRN (FRSCHR=ASCIIFF, INPFNC=KZ#SPCCHR_FF);
       63    15909        %KV_PRMINPTRN (FRSCHR=ASCIICR, INPFNC=KZ#SPCCHR_CR, SPCESC=YES);
       64    16047        %KV_PRMINPTRN (FRSCHR=ASCIIESC, INPFNC=KZ#SPCCHR_ESC, LAST=YES);
       65    16185
       66    16186        /**/
       67    16187        /* Now lets put some actual tables together */
       68    16188        /**/
       69    16189        %KV$TRNTBL(NAME=KZ_ASC95,STCLASS=CONSTANT SYMDEF,
       70    16190                   INPTRN1=KZ_TRNINPASC95_1,
       71    16191                   INPTRN2=NIL,
       72    16192                   OTPTRN1=KZ_TRNOTPASC95_1,
       73    16193                   OTPTRN2=KZ_TRNOTPASC95_2,
       74    16194                   OTPTRN3=NIL,
       75    16195                   EXTINPTRN=NIL,
       76    16196                   EXTOTPTRN=NIL,
       77    16197                   SPCESC=KZ_TRNINPASC95_1.SPCESC,
PL6.E3A0      #001=KZ_HIPXLATE_D File=KZ_HIPXLATE_D.:E05TSI                      WED 07/30/97 03:08 Page:11
       78    16198                   INPTKN=KZ_TRNINPASC95_1.TKNTBL,
       79    16199                   LNK=NIL,
       80    16200                   INPCHRMSK='007F'X,
       81    16201                   OTPESCCHR=%KZ#OTPCTRSTRCHR_BGN,
       82    16202        /*         OTPESCCHR1="%BITASC(KZ_OTPCTRSTRCHR_BGN)",*/
       83    16203        /*         OTPESCCHR2="%BITASC(KZ_OTPCTRSTRCHR_BGN)",*/
       84    16204                   NAM='ASC95',
       85    16205                   FNTCLS=ASC,
       86    16206                   SP_CHR=' ',
       87    16207                   HT_CHR="%BITASC(ASCIIHT)");
       88    16265        /*         INPCTRSTRINTCHR="%BITASC(KZ_INPCTRSTRCHR_INT)"); */
       89    16266        %EJECT;
PL6.E3A0      #001=KZ_HIPXLATE_D File=KZ_HIPXLATE_D.:E05TSI                      WED 07/30/97 03:08 Page:12
       90    16267    1   END;

PL6.E3A0      #001=KZ_HIPXLATE_D File=KZ_HIPXLATE_D.:E05TSI                      WED 07/30/97 03:08 Page:13
--  Include file information  --

   KV_TRNTBL_M.:E05TOU  is referenced.
   KZ_GLBASM_E.:E05TOU  is referenced.
   KZ_GLB_E.:E05TOU  is referenced.
   KV_GLBCNS_E.:E05TOU  is referenced.
   KZ_HIPCHR_E.:E05TOU  is referenced.
   KV$GLB.:E05TOU  is referenced.
   KV$INT.:E05TOU  is referenced.
      No diagnostics issued in procedure KZ_HIPXLATE_D.
PL6.E3A0      #001=KZ_HIPXLATE_D File=KZ_HIPXLATE_D.:E05TSI                      WED 07/30/97 03:08 Page:14

 **** Variables and constants ****

  ****  Section 000 RoData KZ_HIPXLATE_D

  ****  Scalars and arrays  ****
HexLoc.c.b A Datatyp(siz) R M Lvl/name                 HexLoc.c.b A Datatyp(siz) R M Lvl/name

   126-0-0/w STRC(499)   r     1 KZ_ASC95                  86-0-0/c STRC(2560)  r     1 KZ_TRNINPASC95_1
     0-0-0/c STRC(2048)  r     1 KZ_TRNOTPASC95_1          80-0-0/c STRC(89)    r     1 KZ_TRNOTPASC95_2


   No code generated for procedure KZ_HIPXLATE_D .
   Procedure KZ_HIPXLATE_D requires 4 words of local(AUTO) storage.

    No errors detected in file KZ_HIPXLATE_D.:E05TSI    .
PL6.E3A0      #001=KZ_HIPXLATE_D File=KZ_HIPXLATE_D.:E05TSI                      WED 07/30/97 03:08 Page:15
          *** CROSS REFERENCE LISTING ***
**     DENOTES     IDENTIFIER DEFINITION
<<                 IDENTIFIER'S VALUE SET
>>                 IDENTIFIER'S VALUE USED
<>                 IDENTIFIER SET AND/OR USED
--                 IDENTIFIER REFERENCED
PL6.E3A0      #001=KZ_HIPXLATE_D File=KZ_HIPXLATE_D.:E05TSI                      WED 07/30/97 03:08 Page:16
          MINI XREF LISTING

KZ_ASC95
     16240**DCL     16249--DCLINIT
KZ_ASC95.OTPESCCHR
     16258**DCL     16258--REDEF
KZ_TRNINPASC95_1
      6316**DCL     16255--DCLINIT
KZ_TRNINPASC95_1.SPCESC
     16181**DCL     16257--DCLINIT
KZ_TRNINPASC95_1.TKNTBL
     16177**DCL     16257--DCLINIT
KZ_TRNOTPASC95_1
      2119**DCL     16255--DCLINIT
KZ_TRNOTPASC95_2
      5694**DCL     16256--DCLINIT
