VERSION E05

PL6.E3A0      #001=KZ_RBTXLATE_D File=KZ_RBTXLATE_D.:E05TSI                      WED 07/30/97 03:08 Page:1
        1        1        /*M*  Translate tables for RBT                                     */
        2        2        /*T***********************************************************/
        3        3        /*T*                                                         */
        4        4        /*T* Copyright (c) Bull HN Information Systems Inc., 1997    */
        5        5        /*T*                                                         */
        6        6        /*T***********************************************************/
        7        7
        8        8        KZ_RBTXLATE_D: PROC;
        9        9
       10       10        %INCLUDE KV_TRNTBL_M;
       11      345        %INCLUDE KV_EBCCHR_E;
       12      454        %INCLUDE KV_ASCCHR_E;
       13      591        %INCLUDE KV$INT;
       14     1223        %INCLUDE KV$GLB;
       15     1642
       16     1643
       17     1644
       18     1645        %EQU KZ_RBTOTPCTRCHR_BGN = '1F'X;
       19     1646        %EQU OTPNXTTBL = '1F'X;
       20     1647        %EJECT;
PL6.E3A0      #001=KZ_RBTXLATE_D File=KZ_RBTXLATE_D.:E05TSI                      WED 07/30/97 03:08 Page:2
       21     1648
       22     1649        /*    Primary Output Translation table, ASCII->EBCDIC             */
       23     1650
       24     1651
       25     1652        %KV_PRMOTPTRN(NAME=EBC_OTP1,FRSCHR='00'X,LSTCHR='03'X);
       26     1885        %KV_PRMOTPTRN(FRSCHR='04'X,LSTCHR='0A'X,
       27     1886          TRNCHR="'37'X,'2D'X,'2E'X,'2F'X,KZ_RBTOTPCTRCHR_BGN,KZ_RBTOTPCTRCHR_BGN,KZ_RBTOTPC
              1886        TRCHR_BGN");
       28     2025        %KV_PRMOTPTRN(FRSCHR='0B'X,LSTCHR='13'X);
       29     2410        %KV_PRMOTPTRN(FRSCHR='0D'X,TRNCHR=KZ_RBTOTPCTRCHR_BGN);
       30     2523        %KV_PRMOTPTRN(FRSCHR='14'X,LSTCHR='1B'X,
       31     2524          TRNCHR="'3C'X,'3D'X,'32'X,'26'X,'18'X,'19'X,'3F'X,'27'X");
       32     2670
       33     2671        %KV_PRMOTPTRN(FRSCHR='1C'X,LSTCHR='1F'X);
       34     2886
       35     2887        %KV_PRMOTPTRN(FRSCHR=%ASCIISP,TRNCHR=%EBCDICSP);
       36     3000        %KV_PRMOTPTRN(FRSCHR=%ASCIIEXCPNT,LSTCHR=%ASCIIPRC,
       37     3001          TRNCHR="%EBCDICEXCPNT,%EBCDICDBLQOT,%EBCDICNMB,%EBCDICDLR,%EBCDICPRC");
       38     3126        %KV_PRMOTPTRN(FRSCHR=%ASCIIAMP,LSTCHR= %ASCIIAST,
       39     3127         TRNCHR="%EBCDICAMP,%EBCDICSNGQOT,%EBCDICLFTPRN,%EBCDICRHTPRN,%EBCDICAST");
       40     3252        %KV_PRMOTPTRN(FRSCHR=%ASCIIPLS,LSTCHR=%ASCIISLS,
       41     3253          TRNCHR="%EBCDICPLS,%EBCDICCOM,%EBCDICHPH,%EBCDICPRD,%EBCDICSLS");
       42     3378        %KV_PRMOTPTRN(FRSCHR=%ASCII0,LSTCHR=ASCII4,
       43     3379             TRNCHR="%EBCDIC0,%EBCDIC1,%EBCDIC2,%EBCDIC3,%EBCDIC4");
       44     3504        %KV_PRMOTPTRN(FRSCHR=%ASCII5,LSTCHR=%ASCII9,
       45     3505             TRNCHR="%EBCDIC5,%EBCDIC6,%EBCDIC7,%EBCDIC8,%EBCDIC9");
       46     3630        %KV_PRMOTPTRN(FRSCHR=%ASCIICLN,LSTCHR=%ASCIIEQL,
       47     3631          TRNCHR="%EBCDICCLN,%EBCDICSEMCLN,%EBCDICLFTARW,%EBCDICEQL");
       48     3749        %KV_PRMOTPTRN(FRSCHR=%ASCIIRHTARW,LSTCHR=%ASCIIAT,
       49     3750          TRNCHR="%EBCDICRHTARW,%EBCDICQST,%EBCDICAT");
       50     3861        %KV_PRMOTPTRN(FRSCHR=%ASCIIA,LSTCHR=%ASCIIE,
       51     3862             TRNCHR="%EBCDICA,%EBCDICB,%EBCDICC,%EBCDICD,%EBCDICE");
       52     3987        %KV_PRMOTPTRN(FRSCHR=%ASCIIF,LSTCHR=%ASCIIJ,
       53     3988             TRNCHR="%EBCDICF,%EBCDICG,%EBCDICH,%EBCDICI,%EBCDICJ");
       54     4113        %KV_PRMOTPTRN(FRSCHR=%ASCIIK,LSTCHR=%ASCIIO,
       55     4114             TRNCHR="%EBCDICK,%EBCDICL,%EBCDICM,%EBCDICN,%EBCDICO");
       56     4239        %KV_PRMOTPTRN(FRSCHR=%ASCIIP,LSTCHR=%ASCIIT,
PL6.E3A0      #001=KZ_RBTXLATE_D File=KZ_RBTXLATE_D.:E05TSI                      WED 07/30/97 03:08 Page:3
       57     4240             TRNCHR="%EBCDICP,%EBCDICQ,%EBCDICR,%EBCDICS,%EBCDICT");
       58     4365        %KV_PRMOTPTRN(FRSCHR=%ASCIIU,LSTCHR=%ASCIIY,
       59     4366             TRNCHR="%EBCDICU,%EBCDICV,%EBCDICW,%EBCDICX,%EBCDICY");
       60     4491        %KV_PRMOTPTRN(FRSCHR=%ASCIIZ,TRNCHR=%EBCDICZ);
       61     4604        %KV_PRMOTPTRN(FRSCHR=%ASCIILFTBRK,LSTCHR=%ASCIIUP_ARW,
       62     4605          TRNCHR="%EBCDICCNT,%EBCDICBCKSLS,%EBCDICSLDVRTLIN,%EBCDICNOT");
       63     4723        %KV_PRMOTPTRN(FRSCHR=%ASCIIUNDSCR,LSTCHR=%ASCIIGRVACT,
       64     4724          TRNCHR="%EBCDICUNDSCR,%EBCDICGRVACT");
       65     4828        %KV_PRMOTPTRN(FRSCHR=%ASCIILCA,LSTCHR=%ASCIILCE,
       66     4829             TRNCHR="%EBCDICLCA,%EBCDICLCB,%EBCDICLCC,%EBCDICLCD,%EBCDICLCE");
       67     4954        %KV_PRMOTPTRN(FRSCHR=%ASCIILCF,LSTCHR=%ASCIILCJ,
       68     4955             TRNCHR="%EBCDICLCF,%EBCDICLCG,%EBCDICLCH,%EBCDICLCI,%EBCDICLCJ");
       69     5080        %KV_PRMOTPTRN(FRSCHR=%ASCIILCK,LSTCHR=%ASCIILCO,
       70     5081             TRNCHR="%EBCDICLCK,%EBCDICLCL,%EBCDICLCM,%EBCDICLCN,%EBCDICLCO");
       71     5206        %KV_PRMOTPTRN(FRSCHR=%ASCIILCP,LSTCHR=%ASCIILCT,
       72     5207             TRNCHR="%EBCDICLCP,%EBCDICLCQ,%EBCDICLCR,%EBCDICLCS,%EBCDICLCT");
       73     5332        %KV_PRMOTPTRN(FRSCHR=%ASCIILCU,LSTCHR=%ASCIILCY,
       74     5333             TRNCHR="%EBCDICLCU,%EBCDICLCV,%EBCDICLCW,%EBCDICLCX,%EBCDICLCY");
       75     5458        %KV_PRMOTPTRN(FRSCHR=%ASCIILCZ,TRNCHR=%EBCDICLCZ);
       76     5571        %KV_PRMOTPTRN(FRSCHR=%ASCIILFTBRC,LSTCHR=%ASCIIDEL,
       77     5572          TRNCHR="%EBCDICLFTBRC,%EBCDICVRTLIN,%EBCDICRHTBRC,%EBCDICTLD,'07'X");
       78     5697        %KV_PRMOTPTRN(FRSCHR='80'X,LSTCHR='88'X,
       79     5698          TRNCHR="'20'X,'21'X,'22'X,'23'X,'24'X,'15'X,'06'X,'17'X,'28'X");
       80     5851        %KV_PRMOTPTRN(FRSCHR='89'X,LSTCHR='8F'X,
       81     5852          TRNCHR="'29'X,'2A'X,'2B'X,'2C'X,'09'X,'0A'X,'1B'X");
       82     5991        %KV_PRMOTPTRN(FRSCHR='90'X,LSTCHR='98'X,
       83     5992          TRNCHR="'30'X,'31'X,'1A'X,'33'X,'34'X,'35'X,'36'X,'08'X,'38'X");
       84     6145        %KV_PRMOTPTRN(FRSCHR='99'X,LSTCHR='9F'X,
       85     6146          TRNCHR="'39'X,'3A'X,'3B'X,'04'X,'14'X,'3E'X,'E1'X");
       86     6285        %KV_PRMOTPTRN(FRSCHR='A0'X,LSTCHR='A8'X,
       87     6286          TRNCHR="'41'X,'42'X,'43'X,'44'X,'45'X,'46'X,'47'X,'48'X,'49'X");
       88     6439        %KV_PRMOTPTRN(FRSCHR='A9'X,LSTCHR='AF'X,
       89     6440          TRNCHR="'51'X,'52'X,'53'X,'54'X,'55'X,'56'X,'57'X");
       90     6579        %KV_PRMOTPTRN(FRSCHR='B0'X,LSTCHR='B8'X,
       91     6580          TRNCHR="'58'X,'59'X,'62'X,'63'X,'64'X,'65'X,'66'X,'67'X,'68'X");
       92     6733        %KV_PRMOTPTRN(FRSCHR='B9'X,LSTCHR='BF'X,
       93     6734          TRNCHR="'69'X,'70'X,'71'X,'72'X,'73'X,'74'X,'75'X");
PL6.E3A0      #001=KZ_RBTXLATE_D File=KZ_RBTXLATE_D.:E05TSI                      WED 07/30/97 03:08 Page:4
       94     6873        %KV_PRMOTPTRN(FRSCHR='C0'X,LSTCHR='C8'X,
       95     6874          TRNCHR="'76'X,'77'X,'78'X,'80'X,'8A'X,'8B'X,'8C'X,'8D'X,'8E'X");
       96     7027        %KV_PRMOTPTRN(FRSCHR='C9'X,LSTCHR='CF'X,
       97     7028          TRNCHR="'89'X,'90'X,'9A'X,'9B'X,'9C'X,'9D'X,'9E'X");
       98     7167        %KV_PRMOTPTRN(FRSCHR='D0'X,LSTCHR='D8'X,
       99     7168          TRNCHR="'9F'X,'A0'X,'AA'X,'AB'X,'AC'X,'AD'X,'AE'X,'AF'X,'B0'X");
      100     7321        %KV_PRMOTPTRN(FRSCHR='D9'X,LSTCHR='DF'X,
      101     7322          TRNCHR="'B1'X,'B2'X,'B3'X,'B4'X,'B5'X,'B6'X,'B7'X");
      102     7461        %KV_PRMOTPTRN(FRSCHR='E0'X,LSTCHR='E8'X,
      103     7462          TRNCHR="'B8'X,'B9'X,'BA'X,'BB'X,'BC'X,'BD'X,'BE'X,'BF'X,'CA'X");
      104     7615        %KV_PRMOTPTRN(FRSCHR='E9'X,LSTCHR='EF'X,
      105     7616          TRNCHR="'CB'X,'CC'X,'CD'X,'CE'X,'CF'X,'DA'X,'DB'X");
      106     7755        %KV_PRMOTPTRN(FRSCHR='F0'X,LSTCHR='F8'X,
      107     7756          TRNCHR="'DC'X,'DD'X,'DE'X,'DF'X,'EA'X,'EB'X,'EC'X,'ED'X,'EE'X");
      108     7909        %KV_PRMOTPTRN(FRSCHR='F9'X,LSTCHR='FF'X,
      109     7910          TRNCHR="'EF'X,'FA'X,'FB'X,'FC'X,'FD'X,'FE'X,'FF'X",LAST=YES);
      110     8049
      111     8050
      112     8051
      113     8052
      114     8053        %EJECT;
PL6.E3A0      #001=KZ_RBTXLATE_D File=KZ_RBTXLATE_D.:E05TSI                      WED 07/30/97 03:08 Page:5
      115     8054
      116     8055        /*    Primary Output Translation table, ASCII->HIS EBCDIC             */
      117     8056
      118     8057
      119     8058        %KV_PRMOTPTRN(NAME=HIS_OTP1,FRSCHR='00'X,LSTCHR='03'X);
      120     8291        %KV_PRMOTPTRN(FRSCHR='04'X,LSTCHR='0A'X,
      121     8292          TRNCHR="'37'X,'2D'X,'2E'X,'2F'X,KZ_RBTOTPCTRCHR_BGN,KZ_RBTOTPCTRCHR_BGN,KZ_RBTOTPC
              8292        TRCHR_BGN");
      122     8431        %KV_PRMOTPTRN(FRSCHR='0B'X,LSTCHR='13'X);
      123     8816        %KV_PRMOTPTRN(FRSCHR='0D'X,TRNCHR=KZ_RBTOTPCTRCHR_BGN);
      124     8929        %KV_PRMOTPTRN(FRSCHR='14'X,LSTCHR='1B'X,
      125     8930          TRNCHR="'3C'X,'3D'X,'32'X,'26'X,'18'X,'19'X,'3F'X,'27'X");
      126     9076        %KV_PRMOTPTRN(FRSCHR='1C'X,LSTCHR='1F'X);
      127     9291        %KV_PRMOTPTRN(FRSCHR=%ASCIISP,TRNCHR=%EBCDICSP);
      128     9404        %KV_PRMOTPTRN(FRSCHR=%ASCIIEXCPNT,LSTCHR=%ASCIIPRC,
      129     9405          TRNCHR="OTPNXTTBL,EBCDICDBLQOT,OTPNXTTBL,OTPNXTTBL,EBCDICPRC");
      130     9530        %KV_PRMOTPTRN(FRSCHR=%ASCIIAMP,LSTCHR= %ASCIIAST,
      131     9531         TRNCHR="%EBCDICAMP,%EBCDICSNGQOT,%EBCDICLFTPRN,%EBCDICRHTPRN,%EBCDICAST");
      132     9656        %KV_PRMOTPTRN(FRSCHR=%ASCIIPLS,LSTCHR=%ASCIISLS,
      133     9657          TRNCHR="%EBCDICPLS,%EBCDICCOM,%EBCDICHPH,%EBCDICPRD,%EBCDICSLS");
      134     9782        %KV_PRMOTPTRN(FRSCHR=%ASCII0,LSTCHR=ASCII4,
      135     9783             TRNCHR="%EBCDIC0,%EBCDIC1,%EBCDIC2,%EBCDIC3,%EBCDIC4");
      136     9908        %KV_PRMOTPTRN(FRSCHR=%ASCII5,LSTCHR=%ASCII9,
      137     9909             TRNCHR="%EBCDIC5,%EBCDIC6,%EBCDIC7,%EBCDIC8,%EBCDIC9");
      138    10034        %KV_PRMOTPTRN(FRSCHR=%ASCIICLN,LSTCHR=%ASCIIEQL,
      139    10035          TRNCHR="%EBCDICCLN,%EBCDICSEMCLN,%EBCDICLFTARW,%EBCDICEQL");
      140    10153        %KV_PRMOTPTRN(FRSCHR=%ASCIIRHTARW,LSTCHR=%ASCIIAT,
      141    10154          TRNCHR="EBCDICRHTARW,EBCDICQST,OTPNXTTBL");
      142    10265        %KV_PRMOTPTRN(FRSCHR=%ASCIIA,LSTCHR=%ASCIIE,
      143    10266             TRNCHR="%EBCDICA,%EBCDICB,%EBCDICC,%EBCDICD,%EBCDICE");
      144    10391        %KV_PRMOTPTRN(FRSCHR=%ASCIIF,LSTCHR=%ASCIIJ,
      145    10392             TRNCHR="%EBCDICF,%EBCDICG,%EBCDICH,%EBCDICI,%EBCDICJ");
      146    10517        %KV_PRMOTPTRN(FRSCHR=%ASCIIK,LSTCHR=%ASCIIO,
      147    10518             TRNCHR="%EBCDICK,%EBCDICL,%EBCDICM,%EBCDICN,%EBCDICO");
      148    10643        %KV_PRMOTPTRN(FRSCHR=%ASCIIP,LSTCHR=%ASCIIT,
      149    10644             TRNCHR="%EBCDICP,%EBCDICQ,%EBCDICR,%EBCDICS,%EBCDICT");
      150    10769        %KV_PRMOTPTRN(FRSCHR=%ASCIIU,LSTCHR=%ASCIIY,
PL6.E3A0      #001=KZ_RBTXLATE_D File=KZ_RBTXLATE_D.:E05TSI                      WED 07/30/97 03:08 Page:6
      151    10770             TRNCHR="%EBCDICU,%EBCDICV,%EBCDICW,%EBCDICX,%EBCDICY");
      152    10895        %KV_PRMOTPTRN(FRSCHR=%ASCIIZ,TRNCHR=%EBCDICZ);
      153    11008        %KV_PRMOTPTRN(FRSCHR=%ASCIILFTBRK,LSTCHR=%ASCIIUP_ARW,
      154    11009          TRNCHR="OTPNXTTBL,OTPNXTTBL,OTPNXTTBL,EBCDICNOT");
      155    11127        %KV_PRMOTPTRN(FRSCHR=%ASCIIUNDSCR,LSTCHR=%ASCIIGRVACT,
      156    11128          TRNCHR="%EBCDICUNDSCR,%EBCDICGRVACT");
      157    11232        %KV_PRMOTPTRN(FRSCHR=%ASCIILCA,LSTCHR=%ASCIILCE,
      158    11233             TRNCHR="%EBCDICLCA,%EBCDICLCB,%EBCDICLCC,%EBCDICLCD,%EBCDICLCE");
      159    11358        %KV_PRMOTPTRN(FRSCHR=%ASCIILCF,LSTCHR=%ASCIILCJ,
      160    11359             TRNCHR="%EBCDICLCF,%EBCDICLCG,%EBCDICLCH,%EBCDICLCI,%EBCDICLCJ");
      161    11484        %KV_PRMOTPTRN(FRSCHR=%ASCIILCK,LSTCHR=%ASCIILCO,
      162    11485             TRNCHR="%EBCDICLCK,%EBCDICLCL,%EBCDICLCM,%EBCDICLCN,%EBCDICLCO");
      163    11610        %KV_PRMOTPTRN(FRSCHR=%ASCIILCP,LSTCHR=%ASCIILCT,
      164    11611             TRNCHR="%EBCDICLCP,%EBCDICLCQ,%EBCDICLCR,%EBCDICLCS,%EBCDICLCT");
      165    11736        %KV_PRMOTPTRN(FRSCHR=%ASCIILCU,LSTCHR=%ASCIILCY,
      166    11737             TRNCHR="%EBCDICLCU,%EBCDICLCV,%EBCDICLCW,%EBCDICLCX,%EBCDICLCY");
      167    11862        %KV_PRMOTPTRN(FRSCHR=%ASCIILCZ,TRNCHR=%EBCDICLCZ);
      168    11975        %KV_PRMOTPTRN(FRSCHR=%ASCIILFTBRC,LSTCHR=%ASCIIDEL,
      169    11976          TRNCHR="EBCDICLFTBRC,OTPNXTTBL,EBCDICRHTBRC,EBCDICTLD,'07'X");
      170    12101        %KV_PRMOTPTRN(FRSCHR='80'X,LSTCHR='83'X,
      171    12102          TRNCHR="'00'X,'01'X,'02'X,'03'X");
      172    12220        %KV_PRMOTPTRN(FRSCHR='84'X,LSTCHR='8A'X,
      173    12221          TRNCHR="'37'X,'2D'X,'2E'X,'2F'X,KZ_RBTOTPCTRCHR_BGN,KZ_RBTOTPCTRCHR_BGN,KZ_RBTOTPC
             12221        TRCHR_BGN");
      174    12360        %KV_PRMOTPTRN(FRSCHR='8B'X,LSTCHR='8F'X,
      175    12361          TRNCHR="'0B'X,'0C'X,KZ_RBTOTPCTRCHR_BGN,'0E'X,'0F'X");
      176    12486        %KV_PRMOTPTRN(FRSCHR='90'X,LSTCHR='93'X,
      177    12487          TRNCHR="'10'X,'11'X,'12'X,'13'X");
      178    12605        %KV_PRMOTPTRN(FRSCHR='94'X,LSTCHR='9B'X,
      179    12606          TRNCHR="'3C'X,'3D'X,'32'X,'26'X,'18'X,'19'X,'3F'X,'27'X");
      180    12752        %KV_PRMOTPTRN(FRSCHR='9C'X,LSTCHR='9F'X,
      181    12753          TRNCHR="'1C'X,'1D'X,'1E'X,'1F'X");
      182    12871        %KV_PRMOTPTRN(FRSCHR='A0'X,TRNCHR=%EBCDICSP);
      183    12984        %KV_PRMOTPTRN(FRSCHR='A1'X,LSTCHR='A5'X,
      184    12985          TRNCHR="OTPNXTTBL,EBCDICDBLQOT,OTPNXTTBL,OTPNXTTBL,EBCDICPRC");
      185    13110        %KV_PRMOTPTRN(FRSCHR='A6'X,LSTCHR='AA'X,
      186    13111         TRNCHR="%EBCDICAMP,%EBCDICSNGQOT,%EBCDICLFTPRN,%EBCDICRHTPRN,%EBCDICAST");
PL6.E3A0      #001=KZ_RBTXLATE_D File=KZ_RBTXLATE_D.:E05TSI                      WED 07/30/97 03:08 Page:7
      187    13236        %KV_PRMOTPTRN(FRSCHR='AB'X,LSTCHR='AF'X,
      188    13237          TRNCHR="%EBCDICPLS,%EBCDICCOM,%EBCDICHPH,%EBCDICPRD,%EBCDICSLS");
      189    13362        %KV_PRMOTPTRN(FRSCHR='B0'X,LSTCHR='B4'X,
      190    13363             TRNCHR="%EBCDIC0,%EBCDIC1,%EBCDIC2,%EBCDIC3,%EBCDIC4");
      191    13488        %KV_PRMOTPTRN(FRSCHR='B5'X,LSTCHR='B9'X,
      192    13489             TRNCHR="%EBCDIC5,%EBCDIC6,%EBCDIC7,%EBCDIC8,%EBCDIC9");
      193    13614        %KV_PRMOTPTRN(FRSCHR='BA'X,LSTCHR='BD'X,
      194    13615          TRNCHR="%EBCDICCLN,%EBCDICSEMCLN,%EBCDICLFTARW,%EBCDICEQL");
      195    13733        %KV_PRMOTPTRN(FRSCHR='BE'X,LSTCHR='C0'X,
      196    13734          TRNCHR="EBCDICRHTARW,EBCDICQST,OTPNXTTBL");
      197    13845        %KV_PRMOTPTRN(FRSCHR='C1'X,LSTCHR='C5'X,
      198    13846             TRNCHR="%EBCDICA,%EBCDICB,%EBCDICC,%EBCDICD,%EBCDICE");
      199    13971        %KV_PRMOTPTRN(FRSCHR='C6'X,LSTCHR='CA'X,
      200    13972             TRNCHR="%EBCDICF,%EBCDICG,%EBCDICH,%EBCDICI,%EBCDICJ");
      201    14097        %KV_PRMOTPTRN(FRSCHR='CB'X,LSTCHR='CF'X,
      202    14098             TRNCHR="%EBCDICK,%EBCDICL,%EBCDICM,%EBCDICN,%EBCDICO");
      203    14223        %KV_PRMOTPTRN(FRSCHR='D0'X,LSTCHR='D4'X,
      204    14224             TRNCHR="%EBCDICP,%EBCDICQ,%EBCDICR,%EBCDICS,%EBCDICT");
      205    14349        %KV_PRMOTPTRN(FRSCHR='D5'X,LSTCHR='D9'X,
      206    14350             TRNCHR="%EBCDICU,%EBCDICV,%EBCDICW,%EBCDICX,%EBCDICY");
      207    14475        %KV_PRMOTPTRN(FRSCHR='DA'X,TRNCHR=%EBCDICZ);
      208    14588        %KV_PRMOTPTRN(FRSCHR='DB'X,LSTCHR='DE'X,
      209    14589          TRNCHR="OTPNXTTBL,OTPNXTTBL,OTPNXTTBL,EBCDICNOT");
      210    14707        %KV_PRMOTPTRN(FRSCHR='EF'X,LSTCHR='F0'X,
      211    14708          TRNCHR="%EBCDICUNDSCR,%EBCDICGRVACT");
      212    14812        %KV_PRMOTPTRN(FRSCHR='E1'X,LSTCHR='E5'X,
      213    14813             TRNCHR="%EBCDICLCA,%EBCDICLCB,%EBCDICLCC,%EBCDICLCD,%EBCDICLCE");
      214    14938        %KV_PRMOTPTRN(FRSCHR='E6'X,LSTCHR='EA'X,
      215    14939             TRNCHR="%EBCDICLCF,%EBCDICLCG,%EBCDICLCH,%EBCDICLCI,%EBCDICLCJ");
      216    15064        %KV_PRMOTPTRN(FRSCHR='EB'X,LSTCHR='EF'X,
      217    15065             TRNCHR="%EBCDICLCK,%EBCDICLCL,%EBCDICLCM,%EBCDICLCN,%EBCDICLCO");
      218    15190        %KV_PRMOTPTRN(FRSCHR='F0'X,LSTCHR='F4'X,
      219    15191             TRNCHR="%EBCDICLCP,%EBCDICLCQ,%EBCDICLCR,%EBCDICLCS,%EBCDICLCT");
      220    15316        %KV_PRMOTPTRN(FRSCHR='F5'X,LSTCHR='F9'X,
      221    15317             TRNCHR="%EBCDICLCU,%EBCDICLCV,%EBCDICLCW,%EBCDICLCX,%EBCDICLCY");
      222    15442        %KV_PRMOTPTRN(FRSCHR='FA'X,TRNCHR=%EBCDICLCZ);
      223    15555        %KV_PRMOTPTRN(FRSCHR='FB'X,LSTCHR='FF'X,
PL6.E3A0      #001=KZ_RBTXLATE_D File=KZ_RBTXLATE_D.:E05TSI                      WED 07/30/97 03:08 Page:8
      224    15556          TRNCHR="EBCDICLFTBRC,OTPNXTTBL,EBCDICRHTBRC,EBCDICTLD,'07'X",
      225    15557                  LAST=YES);
      226    15682        %EJECT;
PL6.E3A0      #001=KZ_RBTXLATE_D File=KZ_RBTXLATE_D.:E05TSI                      WED 07/30/97 03:08 Page:9
      227    15683
      228    15684        /*    Primary Output Translation table, ASCII->XRX EBCDIC             */
      229    15685
      230    15686
      231    15687        %KV_PRMOTPTRN(NAME=XRX_OTP1,FRSCHR='00'X,LSTCHR='04'X);
      232    15954        %KV_PRMOTPTRN(FRSCHR='05'X,LSTCHR='0A'X,
      233    15955          TRNCHR=
             15955             "'09'X,'06'X,'07'X,KZ_RBTOTPCTRCHR_BGN,KZ_RBTOTPCTRCHR_BGN,KZ_RBTOTPCTRCHR_BGN"
             15955              );
      234    16087        %KV_PRMOTPTRN(FRSCHR='0B'X,LSTCHR='14'X);
      235    16506        %KV_PRMOTPTRN(FRSCHR='0D'X,TRNCHR=KZ_RBTOTPCTRCHR_BGN);
      236    16619        %KV_PRMOTPTRN(FRSCHR='15'X,TRNCHR='0A'X);
      237    16732        %KV_PRMOTPTRN(FRSCHR='16'X,LSTCHR='1F'X);
      238    17151        %KV_PRMOTPTRN(FRSCHR=%ASCIISP,TRNCHR=%EBCDICSP);
      239    17264        %KV_PRMOTPTRN(FRSCHR=%ASCIIEXCPNT,LSTCHR=%ASCIIPRC,
      240    17265          TRNCHR="%EBCDICEXCPNT,%EBCDICDBLQOT,%EBCDICNMB,%EBCDICDLR,%EBCDICPRC");
      241    17390        %KV_PRMOTPTRN(FRSCHR=%ASCIIAMP,LSTCHR= %ASCIIAST,
      242    17391         TRNCHR="%EBCDICAMP,%EBCDICSNGQOT,%EBCDICLFTPRN,%EBCDICRHTPRN,%EBCDICAST");
      243    17516        %KV_PRMOTPTRN(FRSCHR=%ASCIIPLS,LSTCHR=%ASCIISLS,
      244    17517          TRNCHR="%EBCDICPLS,%EBCDICCOM,%EBCDICHPH,%EBCDICPRD,%EBCDICSLS");
      245    17642        %KV_PRMOTPTRN(FRSCHR=%ASCII0,LSTCHR=ASCII4,
      246    17643             TRNCHR="%EBCDIC0,%EBCDIC1,%EBCDIC2,%EBCDIC3,%EBCDIC4");
      247    17768        %KV_PRMOTPTRN(FRSCHR=%ASCII5,LSTCHR=%ASCII9,
      248    17769             TRNCHR="%EBCDIC5,%EBCDIC6,%EBCDIC7,%EBCDIC8,%EBCDIC9");
      249    17894        %KV_PRMOTPTRN(FRSCHR=%ASCIICLN,LSTCHR=%ASCIIEQL,
      250    17895          TRNCHR="%EBCDICCLN,%EBCDICSEMCLN,%EBCDICLFTARW,%EBCDICEQL");
      251    18013        %KV_PRMOTPTRN(FRSCHR=%ASCIIRHTARW,LSTCHR=%ASCIIAT,
      252    18014          TRNCHR="%EBCDICRHTARW,%EBCDICQST,%EBCDICAT");
      253    18125        %KV_PRMOTPTRN(FRSCHR=%ASCIIA,LSTCHR=%ASCIIE,
      254    18126             TRNCHR="%EBCDICA,%EBCDICB,%EBCDICC,%EBCDICD,%EBCDICE");
      255    18251        %KV_PRMOTPTRN(FRSCHR=%ASCIIF,LSTCHR=%ASCIIJ,
      256    18252             TRNCHR="%EBCDICF,%EBCDICG,%EBCDICH,%EBCDICI,%EBCDICJ");
      257    18377        %KV_PRMOTPTRN(FRSCHR=%ASCIIK,LSTCHR=%ASCIIO,
      258    18378             TRNCHR="%EBCDICK,%EBCDICL,%EBCDICM,%EBCDICN,%EBCDICO");
      259    18503        %KV_PRMOTPTRN(FRSCHR=%ASCIIP,LSTCHR=%ASCIIT,
      260    18504             TRNCHR="%EBCDICP,%EBCDICQ,%EBCDICR,%EBCDICS,%EBCDICT");
      261    18629        %KV_PRMOTPTRN(FRSCHR=%ASCIIU,LSTCHR=%ASCIIY,
PL6.E3A0      #001=KZ_RBTXLATE_D File=KZ_RBTXLATE_D.:E05TSI                      WED 07/30/97 03:08 Page:10
      262    18630             TRNCHR="%EBCDICU,%EBCDICV,%EBCDICW,%EBCDICX,%EBCDICY");
      263    18755        %KV_PRMOTPTRN(FRSCHR=%ASCIIZ,TRNCHR=%EBCDICZ);
      264    18868        %KV_PRMOTPTRN(FRSCHR=%ASCIILFTBRK,LSTCHR=%ASCIIGRVACT,
      265    18869          TRNCHR="'B4'X,'B1'X,'B5'X,'6A'X,'6D'X,'4A'X");
      266    19001        %KV_PRMOTPTRN(FRSCHR=%ASCIILCA,LSTCHR=%ASCIILCE,
      267    19002             TRNCHR="%EBCDICLCA,%EBCDICLCB,%EBCDICLCC,%EBCDICLCD,%EBCDICLCE");
      268    19127        %KV_PRMOTPTRN(FRSCHR=%ASCIILCF,LSTCHR=%ASCIILCJ,
      269    19128             TRNCHR="%EBCDICLCF,%EBCDICLCG,%EBCDICLCH,%EBCDICLCI,%EBCDICLCJ");
      270    19253        %KV_PRMOTPTRN(FRSCHR=%ASCIILCK,LSTCHR=%ASCIILCO,
      271    19254             TRNCHR="%EBCDICLCK,%EBCDICLCL,%EBCDICLCM,%EBCDICLCN,%EBCDICLCO");
      272    19379        %KV_PRMOTPTRN(FRSCHR=%ASCIILCP,LSTCHR=%ASCIILCT,
      273    19380             TRNCHR="%EBCDICLCP,%EBCDICLCQ,%EBCDICLCR,%EBCDICLCS,%EBCDICLCT");
      274    19505        %KV_PRMOTPTRN(FRSCHR=%ASCIILCU,LSTCHR=%ASCIILCY,
      275    19506             TRNCHR="%EBCDICLCU,%EBCDICLCV,%EBCDICLCW,%EBCDICLCX,%EBCDICLCY");
      276    19631        %KV_PRMOTPTRN(FRSCHR=%ASCIILCZ,TRNCHR=%EBCDICLCZ);
      277    19744        %KV_PRMOTPTRN(FRSCHR=%ASCIILFTBRC,LSTCHR=%ASCIIDEL,
      278    19745          TRNCHR="'B2'X,'4F'X,'B3'X,'5F'X,'FF'X");
      279    19870        %KV_PRMOTPTRN(FRSCHR='80'X,LSTCHR='FF'X,TRNCHR='1A'X,LAST=YES);
      280    24319
      281    24320        %EJECT;
PL6.E3A0      #001=KZ_RBTXLATE_D File=KZ_RBTXLATE_D.:E05TSI                      WED 07/30/97 03:08 Page:11
      282    24321
      283    24322        /*    Primary Output Translation table, ASCII->UPPER CASE EBCDIC             */
      284    24323
      285    24324
      286    24325        %KV_PRMOTPTRN(NAME=UPR_OTP1,FRSCHR='00'X,LSTCHR='03'X);
      287    24558        %KV_PRMOTPTRN(FRSCHR='04'X,LSTCHR='0A'X,
      288    24559          TRNCHR="'37'X,'2D'X,'2E'X,'2F'X,KZ_RBTOTPCTRCHR_BGN,KZ_RBTOTPCTRCHR_BGN,KZ_RBTOTPC
             24559        TRCHR_BGN");
      289    24698        %KV_PRMOTPTRN(FRSCHR='0B'X,LSTCHR='13'X);
      290    25083        %KV_PRMOTPTRN(FRSCHR='0D'X,TRNCHR=KZ_RBTOTPCTRCHR_BGN);
      291    25196        %KV_PRMOTPTRN(FRSCHR='14'X,LSTCHR='1B'X,
      292    25197          TRNCHR="'3C'X,'3D'X,'32'X,'26'X,'18'X,'19'X,'3F'X,'27'X");
      293    25343
      294    25344        %KV_PRMOTPTRN(FRSCHR='1C'X,LSTCHR='1F'X);
      295    25559        %KV_PRMOTPTRN(FRSCHR=%ASCIISP,TRNCHR=%EBCDICSP);
      296    25672
      297    25673        %KV_PRMOTPTRN(FRSCHR=%ASCIIEXCPNT,LSTCHR=%ASCIIPRC,
      298    25674          TRNCHR="%EBCDICEXCPNT,%EBCDICDBLQOT,%EBCDICNMB,%EBCDICDLR,%EBCDICPRC");
      299    25799        %KV_PRMOTPTRN(FRSCHR=%ASCIIAMP,LSTCHR= %ASCIIAST,
      300    25800         TRNCHR="%EBCDICAMP,%EBCDICSNGQOT,%EBCDICLFTPRN,%EBCDICRHTPRN,%EBCDICAST");
      301    25925        %KV_PRMOTPTRN(FRSCHR=%ASCIIPLS,LSTCHR=%ASCIISLS,
      302    25926          TRNCHR="%EBCDICPLS,%EBCDICCOM,%EBCDICHPH,%EBCDICPRD,%EBCDICSLS");
      303    26051        %KV_PRMOTPTRN(FRSCHR=%ASCII0,LSTCHR=ASCII4,
      304    26052             TRNCHR="%EBCDIC0,%EBCDIC1,%EBCDIC2,%EBCDIC3,%EBCDIC4");
      305    26177        %KV_PRMOTPTRN(FRSCHR=%ASCII5,LSTCHR=%ASCII9,
      306    26178             TRNCHR="%EBCDIC5,%EBCDIC6,%EBCDIC7,%EBCDIC8,%EBCDIC9");
      307    26303        %KV_PRMOTPTRN(FRSCHR=%ASCIICLN,LSTCHR=%ASCIIEQL,
      308    26304          TRNCHR="%EBCDICCLN,%EBCDICSEMCLN,%EBCDICLFTARW,%EBCDICEQL");
      309    26422        %KV_PRMOTPTRN(FRSCHR=%ASCIIRHTARW,LSTCHR=%ASCIIAT,
      310    26423          TRNCHR="%EBCDICRHTARW,%EBCDICQST,%EBCDICAT");
      311    26534        %KV_PRMOTPTRN(FRSCHR=%ASCIIA,LSTCHR=%ASCIIE,
      312    26535             TRNCHR="%EBCDICA,%EBCDICB,%EBCDICC,%EBCDICD,%EBCDICE");
      313    26660        %KV_PRMOTPTRN(FRSCHR=%ASCIIF,LSTCHR=%ASCIIJ,
      314    26661             TRNCHR="%EBCDICF,%EBCDICG,%EBCDICH,%EBCDICI,%EBCDICJ");
      315    26786        %KV_PRMOTPTRN(FRSCHR=%ASCIIK,LSTCHR=%ASCIIO,
      316    26787             TRNCHR="%EBCDICK,%EBCDICL,%EBCDICM,%EBCDICN,%EBCDICO");
      317    26912        %KV_PRMOTPTRN(FRSCHR=%ASCIIP,LSTCHR=%ASCIIT,
PL6.E3A0      #001=KZ_RBTXLATE_D File=KZ_RBTXLATE_D.:E05TSI                      WED 07/30/97 03:08 Page:12
      318    26913             TRNCHR="%EBCDICP,%EBCDICQ,%EBCDICR,%EBCDICS,%EBCDICT");
      319    27038        %KV_PRMOTPTRN(FRSCHR=%ASCIIU,LSTCHR=%ASCIIY,
      320    27039             TRNCHR="%EBCDICU,%EBCDICV,%EBCDICW,%EBCDICX,%EBCDICY");
      321    27164        %KV_PRMOTPTRN(FRSCHR=%ASCIIZ,TRNCHR=%EBCDICZ);
      322    27277        %KV_PRMOTPTRN(FRSCHR=%ASCIILFTBRK,LSTCHR=%ASCIIUP_ARW,
      323    27278          TRNCHR="%EBCDICCNT,%EBCDICBCKSLS,%EBCDICSLDVRTLIN,%EBCDICNOT");
      324    27396        %KV_PRMOTPTRN(FRSCHR=%ASCIIUNDSCR,LSTCHR=%ASCIIGRVACT,
      325    27397          TRNCHR="%EBCDICUNDSCR,%EBCDICAT");
      326    27501        %KV_PRMOTPTRN(FRSCHR=%ASCIILCA,LSTCHR=%ASCIILCE,
      327    27502             TRNCHR="%EBCDICA,%EBCDICB,%EBCDICC,%EBCDICD,%EBCDICE");
      328    27627        %KV_PRMOTPTRN(FRSCHR=%ASCIILCF,LSTCHR=%ASCIILCJ,
      329    27628             TRNCHR="%EBCDICF,%EBCDICG,%EBCDICH,%EBCDICI,%EBCDICJ");
      330    27753        %KV_PRMOTPTRN(FRSCHR=%ASCIILCK,LSTCHR=%ASCIILCO,
      331    27754             TRNCHR="%EBCDICK,%EBCDICL,%EBCDICM,%EBCDICN,%EBCDICO");
      332    27879        %KV_PRMOTPTRN(FRSCHR=%ASCIILCP,LSTCHR=%ASCIILCT,
      333    27880             TRNCHR="%EBCDICP,%EBCDICQ,%EBCDICR,%EBCDICS,%EBCDICT");
      334    28005        %KV_PRMOTPTRN(FRSCHR=%ASCIILCU,LSTCHR=%ASCIILCY,
      335    28006             TRNCHR="%EBCDICU,%EBCDICV,%EBCDICW,%EBCDICX,%EBCDICY");
      336    28131        %KV_PRMOTPTRN(FRSCHR=%ASCIILCZ,TRNCHR=%EBCDICZ);
      337    28244        %KV_PRMOTPTRN(FRSCHR=%ASCIILFTBRC,LSTCHR=%ASCIIDEL,
      338    28245          TRNCHR="%EBCDICCNT,%EBCDICBCKSLS,%EBCDICSLDVRTLIN,%EBCDICNOT,%EBCDICUNDSCR");
      339    28370        %KV_PRMOTPTRN(FRSCHR='80'X,LSTCHR='88'X,
      340    28371          TRNCHR="'20'X,'21'X,'22'X,'23'X,'24'X,'15'X,'06'X,'17'X,'28'X");
      341    28524        %KV_PRMOTPTRN(FRSCHR='89'X,LSTCHR='8F'X,
      342    28525          TRNCHR="'29'X,'2A'X,'2B'X,'2C'X,'09'X,'0A'X,'1B'X");
      343    28664        %KV_PRMOTPTRN(FRSCHR='90'X,LSTCHR='98'X,
      344    28665          TRNCHR="'30'X,'31'X,'1A'X,'33'X,'34'X,'35'X,'36'X,'08'X,'38'X");
      345    28818        %KV_PRMOTPTRN(FRSCHR='99'X,LSTCHR='9F'X,
      346    28819          TRNCHR="'39'X,'3A'X,'3B'X,'04'X,'14'X,'3E'X,'E1'X");
      347    28958        %KV_PRMOTPTRN(FRSCHR='A0'X,LSTCHR='A8'X,
      348    28959          TRNCHR="'41'X,'42'X,'43'X,'44'X,'45'X,'46'X,'47'X,'48'X,'49'X");
      349    29112        %KV_PRMOTPTRN(FRSCHR='A9'X,LSTCHR='AF'X,
      350    29113          TRNCHR="'51'X,'52'X,'53'X,'54'X,'55'X,'56'X,'57'X");
      351    29252        %KV_PRMOTPTRN(FRSCHR='B0'X,LSTCHR='B8'X,
      352    29253          TRNCHR="'58'X,'59'X,'62'X,'63'X,'64'X,'65'X,'66'X,'67'X,'68'X");
      353    29406        %KV_PRMOTPTRN(FRSCHR='B9'X,LSTCHR='BF'X,
      354    29407          TRNCHR="'69'X,'70'X,'71'X,'72'X,'73'X,'74'X,'75'X");
PL6.E3A0      #001=KZ_RBTXLATE_D File=KZ_RBTXLATE_D.:E05TSI                      WED 07/30/97 03:08 Page:13
      355    29546        %KV_PRMOTPTRN(FRSCHR='C0'X,LSTCHR='C8'X,
      356    29547          TRNCHR="'76'X,'77'X,'78'X,'80'X,'8A'X,'8B'X,'8C'X,'8D'X,'8E'X");
      357    29700        %KV_PRMOTPTRN(FRSCHR='C9'X,LSTCHR='CF'X,
      358    29701          TRNCHR="'8F'X,'90'X,'9A'X,'9B'X,'9C'X,'9D'X,'9E'X");
      359    29840        %KV_PRMOTPTRN(FRSCHR='D0'X,LSTCHR='D8'X,
      360    29841          TRNCHR="'9F'X,'A0'X,'AA'X,'AB'X,'AC'X,'AD'X,'AE'X,'AF'X,'B0'X");
      361    29994        %KV_PRMOTPTRN(FRSCHR='D9'X,LSTCHR='DF'X,
      362    29995          TRNCHR="'B1'X,'B2'X,'B3'X,'B4'X,'B5'X,'B6'X,'B7'X");
      363    30134        %KV_PRMOTPTRN(FRSCHR='E0'X,LSTCHR='E8'X,
      364    30135          TRNCHR="'B8'X,'B9'X,'BA'X,'BB'X,'BC'X,'BD'X,'BE'X,'BF'X,'CA'X");
      365    30288        %KV_PRMOTPTRN(FRSCHR='E9'X,LSTCHR='EF'X,
      366    30289          TRNCHR="'CB'X,'CC'X,'CD'X,'CE'X,'CF'X,'DA'X,'DB'X");
      367    30428        %KV_PRMOTPTRN(FRSCHR='F0'X,LSTCHR='F8'X,
      368    30429          TRNCHR="'DC'X,'DD'X,'DE'X,'DF'X,'EA'X,'EB'X,'EC'X,'ED'X,'EE'X");
      369    30582        %KV_PRMOTPTRN(FRSCHR='F9'X,LSTCHR='FF'X,
      370    30583          TRNCHR="'EF'X,'FA'X,'FB'X,'FC'X,'FD'X,'FE'X,'FF'X",LAST=YES);
      371    30722
      372    30723
      373    30724
      374    30725
      375    30726        %EJECT;
PL6.E3A0      #001=KZ_RBTXLATE_D File=KZ_RBTXLATE_D.:E05TSI                      WED 07/30/97 03:08 Page:14
      376    30727
      377    30728        /*    Secondary Output Translation Tables                          */
      378    30729
      379    30730
      380    30731
      381    30732        %KV_SCNOTPTRN(NAME=BIT_NOPOSOTP_2);
      382    30841        %KV_SCNOTPTRN(INPCHR='0989'X,TYPE=OTPFNC_HT);
      383    30975        %KV_SCNOTPTRN(INPCHR='080A0D888A8D1F'X,
      384    30976          TRNCHR='08150D08150D1F'X);
      385    31205        %KV_SCNOTPTRN(INPCHR='!#$@',
      386    31206           TRNCHR="EBCDICEXCPNT,EBCDICNMB,EBCDICDLR,EBCDICAT");
      387    31365        %KV_SCNOTPTRN(INPCHR='[\]|',
      388    31366           TRNCHR="'AD'X,EBCDICBCKSLS,'BD'X,EBCDICSLDVRTLIN");
      389    31525        %KV_SCNOTPTRN(INPCHR='A1A3A4C0'X,
      390    31526           TRNCHR="EBCDICEXCPNT,EBCDICNMB,EBCDICDLR,EBCDICAT");
      391    31713        %KV_SCNOTPTRN(INPCHR='DBDCDDFC'X,
      392    31714           TRNCHR="'AD'X,EBCDICBCKSLS,'BD'X,EBCDICSLDVRTLIN",LAST=YES);
      393    31901
      394    31902        %KV_SCNOTPTRN(NAME=EBCE_NOPOSOTP_2);
      395    32011        %KV_SCNOTPTRN(INPCHR='0989'X,TYPE=OTPFNC_HT);
      396    32145        %KV_SCNOTPTRN(INPCHR='080A0D888A8D1F'X,
      397    32146          TRNCHR='08150D08150D1F'X);
      398    32375        %KV_SCNOTPTRN(INPCHR='!#$@',
      399    32376           TRNCHR="EBCDICSLDVRTLIN,EBCDICCNT,EBCDICEXCPNT,EBCDICBCKSLS");
      400    32535        %KV_SCNOTPTRN(INPCHR='[\]|',
      401    32536           TRNCHR="EBCDICNMB,EBCDICAT,EBCDICDLR,EBCDICVRTLIN");
      402    32695        %KV_SCNOTPTRN(INPCHR='A1A3A4C0'X,
      403    32696           TRNCHR="EBCDICSLDVRTLIN,EBCDICCNT,EBCDICEXCPNT,EBCDICBCKSLS");
      404    32883        %KV_SCNOTPTRN(INPCHR='DBDCDDFC'X,
      405    32884           TRNCHR="EBCDICNMB,EBCDICAT,EBCDICDLR,EBCDICVRTLIN",LAST=YES);
      406    33071
      407    33072
      408    33073        %KV_SCNOTPTRN(NAME=XRX_NOPOSOTP_2);
      409    33182        %KV_SCNOTPTRN(INPCHR='0989'X,TYPE=OTPFNC_HT);
      410    33316        %KV_SCNOTPTRN(INPCHR='080A0D888A8D1F'X,
      411    33317          TRNCHR='08150D08150D1F'X,LAST=YES);
      412    33546
PL6.E3A0      #001=KZ_RBTXLATE_D File=KZ_RBTXLATE_D.:E05TSI                      WED 07/30/97 03:08 Page:15
      413    33547        %KV_SCNOTPTRN(NAME=HIS_NOPOSOTP_2);
      414    33656        %KV_SCNOTPTRN(INPCHR='0989'X,TYPE=OTPFNC_HT);
      415    33790        %KV_SCNOTPTRN(INPCHR='080A0D888A8D1F'X,
      416    33791          TRNCHR='16250D16250D1F'X);
      417    34020        %KV_SCNOTPTRN(INPCHR='!#$@',
      418    34021           TRNCHR="EBCDICSLDVRTLIN,EBCDICNMB,EBCDICDLR,EBCDICAT");
      419    34180        %KV_SCNOTPTRN(INPCHR='[\]|',
      420    34181           TRNCHR="EBCDICCNT,EBCDICBCKSLS,EBCDICEXCPNT,EBCDICVRTLIN");
      421    34340        %KV_SCNOTPTRN(INPCHR='A1A3A4C0'X,
      422    34341           TRNCHR="EBCDICSLDVRTLIN,EBCDICNMB,EBCDICDLR,EBCDICAT");
      423    34528        %KV_SCNOTPTRN(INPCHR='DBDCDDFC'X,
      424    34529           TRNCHR="EBCDICCNT,EBCDICBCKSLS,EBCDICEXCPNT,EBCDICVRTLIN",LAST=YES);
      425    34716
      426    34717
      427    34718        /*     Primary input translate table,  EBCDIC -> %ASCII           */
      428    34719
      429    34720        /*     Set 00-1F one-one                                           */
      430    34721
      431    34722        %KV_PRMINPTRN(NAME=EBC_INP1,FRSCHR='00'X,LSTCHR='1F'X);
      432    44636
      433    44637
      434    44638        %KV_PRMINPTRN(FRSCHR='04'X,LSTCHR='0A'X,
      435    44639          TRNCHR="'9C'X,'09'X,'86'X,'7F'X,'97'X,'8D'X,'8E'X");
      436    44821        %KV_PRMINPTRN(FRSCHR='14'X,LSTCHR='17'X,
      437    44822          TRNCHR="'9D'X,'85'X,'08'X,'87'X");
      438    44983        %KV_PRMINPTRN(FRSCHR='1A'X,LSTCHR='1B'X,
      439    44984          TRNCHR="'92'X,'8F'X");
      440    45131        %KV_PRMINPTRN(FRSCHR='20'X,LSTCHR='27'X,
      441    45132          TRNCHR="'80'X,'81'X,'82'X,'83'X,'84'X,'0A'X,'17'X,'1B'X");
      442    45321        %KV_PRMINPTRN(FRSCHR='28'X,LSTCHR='2F'X,
      443    45322          TRNCHR="'88'X,'89'X,'8A'X,'8B'X,'8C'X,'05'X,'06'X,'07'X");
      444    45511        %KV_PRMINPTRN(FRSCHR='30'X,LSTCHR='38'X,
      445    45512          TRNCHR="'90'X,'91'X,'16'X,'93'X,'94'X,'95'X,'96'X,'04'X,'98'X");
      446    45708        %KV_PRMINPTRN(FRSCHR='39'X,LSTCHR='3F'X,
      447    45709          TRNCHR="'99'X,'9A'X,'9B'X,'14'X,'15'X,'9E'X,'1A'X");
      448    45891
      449    45892
PL6.E3A0      #001=KZ_RBTXLATE_D File=KZ_RBTXLATE_D.:E05TSI                      WED 07/30/97 03:08 Page:16
      450    45893        %KV_PRMINPTRN(FRSCHR=%EBCDICSP,TRNCHR=%ASCIISP);
      451    46049        %KV_PRMINPTRN(FRSCHR='41'X,LSTCHR='49'X,
      452    46050          TRNCHR="'A0'X,'A1'X,'A2'X,'A3'X,'A4'X,'A5'X,'A6'X,'A7'X,'A8'X");
      453    46246        %KV_PRMINPTRN(FRSCHR=%EBCDICCNT,TRNCHR=%ASCIILFTBRK);
      454    46402        %KV_PRMINPTRN(FRSCHR=%EBCDICPRD,TRNCHR=%ASCIIPRD);
      455    46558        %KV_PRMINPTRN(FRSCHR=%EBCDICLFTARW,TRNCHR=%ASCIILFTARW);
      456    46714        %KV_PRMINPTRN(FRSCHR=%EBCDICLFTPRN,TRNCHR=%ASCIILFTPRN);
      457    46870        %KV_PRMINPTRN(FRSCHR=%EBCDICPLS,TRNCHR=%ASCIIPLS);
      458    47026        %KV_PRMINPTRN(FRSCHR=%EBCDICSLDVRTLIN,TRNCHR=%ASCIIRHTBRK);
      459    47182        %KV_PRMINPTRN(FRSCHR=%EBCDICAMP,TRNCHR=%ASCIIAMP);
      460    47338        %KV_PRMINPTRN(FRSCHR='51'X,LSTCHR='59'X,
      461    47339          TRNCHR="'A9'X,'AA'X,'AB'X,'AC'X,'AD'X,'AE'X,'AF'X,'B0'X,'B1'X");
      462    47535        %KV_PRMINPTRN(FRSCHR=%EBCDICEXCPNT,TRNCHR=%ASCIIEXCPNT);
      463    47691        %KV_PRMINPTRN(FRSCHR=%EBCDICDLR,TRNCHR=%ASCIIDLR);
      464    47847        %KV_PRMINPTRN(FRSCHR=%EBCDICAST,TRNCHR=%ASCIIAST);
      465    48003        %KV_PRMINPTRN(FRSCHR=%EBCDICRHTPRN,TRNCHR=%ASCIIRHTPRN);
      466    48159        %KV_PRMINPTRN(FRSCHR=%EBCDICSEMCLN,TRNCHR=%ASCIISEMCLN);
      467    48315        %KV_PRMINPTRN(FRSCHR=%EBCDICNOT,TRNCHR=%ASCIIUP_ARW);
      468    48471        %KV_PRMINPTRN(FRSCHR=%EBCDICHPH,TRNCHR=ASCIIHPH);
      469    48627        %KV_PRMINPTRN(FRSCHR=%EBCDICSLS,TRNCHR=%ASCIISLS);
      470    48783        %KV_PRMINPTRN(FRSCHR='62'X,LSTCHR='69'X,
      471    48784          TRNCHR="'B2'X,'B3'X,'B4'X,'B5'X,'B6'X,'B7'X,'B8'X,'B9'X");
      472    48973        %KV_PRMINPTRN(FRSCHR=%EBCDICVRTLIN,TRNCHR=%ASCIIVRTLIN);
      473    49129        %KV_PRMINPTRN(FRSCHR=%EBCDICCOM,LSTCHR=%EBCDICQST,
      474    49130          TRNCHR="%ASCIICOM,%ASCIIPRC,%ASCIIUNDSCR,%ASCIIRHTARW,%ASCIIQST");
      475    49298        %KV_PRMINPTRN(FRSCHR='70'X,LSTCHR='78'X,
      476    49299          TRNCHR="'BA'X,'BB'X,'BC'X,'BD'X,'BE'X,'BF'X,'C0'X,'C1'X,'C2'X");
      477    49495        %KV_PRMINPTRN(FRSCHR=%EBCDICGRVACT,TRNCHR=%ASCIIGRVACT);
      478    49651        %KV_PRMINPTRN(FRSCHR=%EBCDICCLN,LSTCHR=%EBCDICDBLQOT,
      479    49652          TRNCHR="%ASCIICLN,%ASCIINMB,%ASCIIAT,%ASCIISNGQOT,%ASCIIEQL,%ASCIIDBLQOT");
      480    49827        %KV_PRMINPTRN(FRSCHR='80'X,TRNCHR='C3'X);
      481    49983        %KV_PRMINPTRN(FRSCHR=%EBCDICLCA,LSTCHR=%EBCDICLCE,
      482    49984          TRNCHR="%ASCIILCA,%ASCIILCB,%ASCIILCC,%ASCIILCD,%ASCIILCE");
      483    50152        %KV_PRMINPTRN(FRSCHR=%EBCDICLCF,LSTCHR=%EBCDICLCI,
      484    50153          TRNCHR="%ASCIILCF,%ASCIILCG,%ASCIILCH,%ASCIILCI");
      485    50314        %KV_PRMINPTRN(FRSCHR='8A'X,LSTCHR='8F'X,
      486    50315          TRNCHR="'C4'X,'C5'X,'C6'X,'C7'X,'C8'X,'C9'X");
PL6.E3A0      #001=KZ_RBTXLATE_D File=KZ_RBTXLATE_D.:E05TSI                      WED 07/30/97 03:08 Page:17
      487    50490        %KV_PRMINPTRN(FRSCHR='90'X,TRNCHR='CA'X);
      488    50646        %KV_PRMINPTRN(FRSCHR=%EBCDICLCJ,LSTCHR=%EBCDICLCN,
      489    50647          TRNCHR="%ASCIILCJ,%ASCIILCK,%ASCIILCL,%ASCIILCM,%ASCIILCN");
      490    50815        %KV_PRMINPTRN(FRSCHR=%EBCDICLCO,LSTCHR=%EBCDICLCR,
      491    50816          TRNCHR="%ASCIILCO,%ASCIILCP,%ASCIILCQ,%ASCIILCR");
      492    50977        %KV_PRMINPTRN(FRSCHR='9A'X,LSTCHR='9F'X,
      493    50978          TRNCHR="'CB'X,'CC'X,'CD'X,'CE'X,'CF'X,'D0'X");
      494    51153        %KV_PRMINPTRN(FRSCHR='A0'X,TRNCHR='D1'X);
      495    51309        %KV_PRMINPTRN(FRSCHR=%EBCDICTLD,TRNCHR=%ASCIITLD);
      496    51465        %KV_PRMINPTRN(FRSCHR=%EBCDICLCS,LSTCHR=%EBCDICLCV,
      497    51466          TRNCHR="%ASCIILCS,%ASCIILCT,%ASCIILCU,%ASCIILCV");
      498    51627        %KV_PRMINPTRN(FRSCHR=%EBCDICLCW,LSTCHR=%EBCDICLCZ,
      499    51628          TRNCHR="%ASCIILCW,%ASCIILCX,%ASCIILCY,%ASCIILCZ");
      500    51789        %KV_PRMINPTRN(FRSCHR='AA'X,LSTCHR='AF'X,
      501    51790          TRNCHR="'D2'X,'D3'X,'D4'X,'D5'X,'D6'X,'D7'X");
      502    51965        %KV_PRMINPTRN(FRSCHR='B0'X,LSTCHR='B7'X,
      503    51966          TRNCHR="'D8'X,'D9'X,'DA'X,'DB'X,'DC'X,'DD'X,'DE'X,'DF'X");
      504    52155        %KV_PRMINPTRN(FRSCHR='B8'X,LSTCHR='BF'X,
      505    52156           TRNCHR="'E0'X,'E1'X,'E2'X,'E3'X,'E4'X,'E5'X,'E6'X,'E7'X");
      506    52345        %KV_PRMINPTRN(FRSCHR=%EBCDICLFTBRC,LSTCHR=%EBCDICD,
      507    52346          TRNCHR="%ASCIILFTBRC,%ASCIIA,%ASCIIB,%ASCIIC,%ASCIID");
      508    52514        %KV_PRMINPTRN(FRSCHR=%EBCDICE,LSTCHR=%EBCDICI,
      509    52515          TRNCHR="%ASCIIE,%ASCIIF,%ASCIIG,%ASCIIH,%ASCIII");
      510    52683        %KV_PRMINPTRN(FRSCHR='CA'X,LSTCHR='CF'X,
      511    52684          TRNCHR="'E8'X,'E9'X,'EA'X,'EB'X,'EC'X,'ED'X");
      512    52859        %KV_PRMINPTRN(FRSCHR=%EBCDICRHTBRC,LSTCHR=%EBCDICM,
      513    52860          TRNCHR="%ASCIIRHTBRC,%ASCIIJ,%ASCIIK,%ASCIIL,%ASCIIM");
      514    53028        %KV_PRMINPTRN(FRSCHR=%EBCDICN,LSTCHR=%EBCDICR,
      515    53029          TRNCHR="%ASCIIN,%ASCIIO,%ASCIIP,%ASCIIQ,%ASCIIR");
      516    53197        %KV_PRMINPTRN(FRSCHR='DA'X,LSTCHR='DF'X,
      517    53198          TRNCHR="'EE'X,'EF'X,'F0'X,'F1'X,'F2'X,'F3'X");
      518    53373        %KV_PRMINPTRN(FRSCHR='E0'X,LSTCHR='E1'X,TRNCHR="'5C'X,'9F'X");
      519    53520        %KV_PRMINPTRN(FRSCHR=%EBCDICS,LSTCHR=%EBCDICW,
      520    53521          TRNCHR="%ASCIIS,%ASCIIT,%ASCIIU,%ASCIIV,%ASCIIW");
      521    53689        %KV_PRMINPTRN(FRSCHR=%EBCDICX,LSTCHR=%EBCDICZ,
      522    53690          TRNCHR="%ASCIIX,%ASCIIY,%ASCIIZ");
      523    53844        %KV_PRMINPTRN(FRSCHR='EA'X,LSTCHR='EF'X,
PL6.E3A0      #001=KZ_RBTXLATE_D File=KZ_RBTXLATE_D.:E05TSI                      WED 07/30/97 03:08 Page:18
      524    53845          TRNCHR="'F4'X,'F5'X,'F6'X,'F7'X,'F8'X,'F9'X");
      525    54020        %KV_PRMINPTRN(FRSCHR=%EBCDIC0,LSTCHR=%EBCDIC4,
      526    54021          TRNCHR="%ASCII0,%ASCII1,%ASCII2,%ASCII3,%ASCII4");
      527    54189        %KV_PRMINPTRN(FRSCHR=%EBCDIC5,LSTCHR=%EBCDIC9,
      528    54190          TRNCHR="%ASCII5,%ASCII6,%ASCII7,%ASCII8,%ASCII9");
      529    54358        %KV_PRMINPTRN(FRSCHR='FA'X,LSTCHR='FF'X,
      530    54359          TRNCHR="'FA'X,'FB'X,'FC'X,'FD'X,'FE'X,'FF'X",LAST=YES);
      531    54534
      532    54535
      533    54536        /* Primary input translate table, BITNET EBCDIC -> ASCII      */
      534    54537
      535    54538        /* Just modify a few characters in EBC'S tables, since they're both simple */
      536    54539
      537    54540    1   DCL 1 BIT_INP1 CONSTANT,
      538    54541        %KV_PRMINPTRN (FRSCHR='AD'X, TRNCHR='[');
      539    54690        %KV_PRMINPTRN (FRSCHR='BD'X, TRNCHR=']');
      540    54839        %KV_PRMINPTRN (FRSCHR=EBCDICSLDVRTLIN, TRNCHR='|');
      541    54988        %KV_PRMINPTRN (FRSCHR='FA'X, TRNCHR='|');
      542    55137        %KV_PRMINPTRN (FRSCHR='BF'X, TRNCHR='-');
      543    55286        %KV_PRMINPTRN (FRSCHR='8B'X, TRNCHR='{');
      544    55435        %KV_PRMINPTRN (FRSCHR='9B'X, TRNCHR='}');
      545    55584        %KV_PRMINPTRN (FRSCHR='8F'X, TRNCHR="';'",LAST=YES);
      546    55733
      547    55734
      548    55735        /* Primary input translate table, EUROPEAN EBCDIC -> ASCII      */
      549    55736
      550    55737        /* Same deal */
      551    55738
      552    55739    1   DCL 1 EBCE_INP1 CONSTANT,
      553    55740        %KV_PRMINPTRN (FRSCHR=EBCDICNMB, TRNCHR='[');
      554    55889        %KV_PRMINPTRN (FRSCHR=EBCDICDLR, TRNCHR=']');
      555    56038        %KV_PRMINPTRN (FRSCHR=EBCDICSLDVRTLIN, TRNCHR='!');
      556    56187        %KV_PRMINPTRN (FRSCHR=EBCDICAT, TRNCHR='\');
      557    56336        %KV_PRMINPTRN (FRSCHR=EBCDICBCKSLS, TRNCHR='@');
      558    56485        %KV_PRMINPTRN (FRSCHR=EBCDICEXCPNT, TRNCHR='$');
      559    56634        %KV_PRMINPTRN (FRSCHR=EBCDICCNT, TRNCHR='#',LAST=YES);
      560    56783
PL6.E3A0      #001=KZ_RBTXLATE_D File=KZ_RBTXLATE_D.:E05TSI                      WED 07/30/97 03:08 Page:19
      561    56784
      562    56785
      563    56786
      564    56787        /*     Primary input translate table, XRX EBCDIC -> %ASCII
      565    56788
      566    56789               Set 00-1F one-one                                           */
      567    56790
      568    56791        %KV_PRMINPTRN(NAME=XRX_INP1,FRSCHR='00'X,LSTCHR='1F'X);
      569    66705
      570    66706        %KV_PRMINPTRN(FRSCHR='05'X,TRNCHR='09'X);
      571    66862        %KV_PRMINPTRN(FRSCHR='09'X,TRNCHR='05'X);
      572    67018        %KV_PRMINPTRN(FRSCHR='0A'X,TRNCHR='15'X);
      573    67174        %KV_PRMINPTRN(FRSCHR='15'X,TRNCHR='0A'X);
      574    67330        %KV_PRMINPTRN(FRSCHR='20'X,LSTCHR='2F'X,TRNCHR='1A'X);
      575    68014        %KV_PRMINPTRN(FRSCHR='30'X,LSTCHR='3F'X,TRNCHR='1A'X);
      576    68698        %KV_PRMINPTRN(FRSCHR=%EBCDICSP,TRNCHR=%ASCIISP);
      577    68854        %KV_PRMINPTRN(FRSCHR='41'X,LSTCHR='49'X,TRNCHR='1A'X);
      578    69300        %KV_PRMINPTRN(FRSCHR=%EBCDICCNT,TRNCHR='60'X);
      579    69456        %KV_PRMINPTRN(FRSCHR=%EBCDICPRD,TRNCHR=%ASCIIPRD);
      580    69612        %KV_PRMINPTRN(FRSCHR=%EBCDICLFTARW,TRNCHR=%ASCIILFTARW);
      581    69768        %KV_PRMINPTRN(FRSCHR=%EBCDICLFTPRN,TRNCHR=%ASCIILFTPRN);
      582    69924        %KV_PRMINPTRN(FRSCHR=%EBCDICPLS,TRNCHR=%ASCIIPLS);
      583    70080        %KV_PRMINPTRN(FRSCHR=%EBCDICSLDVRTLIN,TRNCHR='7C'X);
      584    70236        %KV_PRMINPTRN(FRSCHR=%EBCDICAMP,TRNCHR=%ASCIIAMP);
      585    70392        %KV_PRMINPTRN(FRSCHR='51'X,LSTCHR='59'X,TRNCHR='1A'X);
      586    70838        %KV_PRMINPTRN(FRSCHR=%EBCDICEXCPNT,TRNCHR='21'X);
      587    70994        %KV_PRMINPTRN(FRSCHR=%EBCDICDLR,TRNCHR=%ASCIIDLR);
      588    71150        %KV_PRMINPTRN(FRSCHR=%EBCDICAST,TRNCHR=%ASCIIAST);
      589    71306        %KV_PRMINPTRN(FRSCHR=%EBCDICRHTPRN,TRNCHR=%ASCIIRHTPRN);
      590    71462        %KV_PRMINPTRN(FRSCHR=%EBCDICSEMCLN,TRNCHR=%ASCIISEMCLN);
      591    71618        %KV_PRMINPTRN(FRSCHR=%EBCDICNOT,TRNCHR='7E'X);
      592    71774        %KV_PRMINPTRN(FRSCHR=%EBCDICHPH,TRNCHR=ASCIIHPH);
      593    71930        %KV_PRMINPTRN(FRSCHR=%EBCDICSLS,TRNCHR=%ASCIISLS);
      594    72086        %KV_PRMINPTRN(FRSCHR='62'X,LSTCHR='69'X,TRNCHR='1A'X);
      595    72498        %KV_PRMINPTRN(FRSCHR=%EBCDICVRTLIN,TRNCHR='5E'X);
      596    72654        %KV_PRMINPTRN(FRSCHR=%EBCDICCOM,LSTCHR=%EBCDICQST,
      597    72655          TRNCHR="%ASCIICOM,%ASCIIPRC,%ASCIIUNDSCR,%ASCIIRHTARW,%ASCIIQST");
PL6.E3A0      #001=KZ_RBTXLATE_D File=KZ_RBTXLATE_D.:E05TSI                      WED 07/30/97 03:08 Page:20
      598    72823        %KV_PRMINPTRN(FRSCHR='70'X,LSTCHR='78'X,TRNCHR='1A'X);
      599    73269        %KV_PRMINPTRN(FRSCHR=%EBCDICGRVACT,TRNCHR='1A'X);
      600    73425        %KV_PRMINPTRN(FRSCHR=%EBCDICCLN,LSTCHR=%EBCDICDBLQOT,
      601    73426          TRNCHR="%ASCIICLN,%ASCIINMB,%ASCIIAT,%ASCIISNGQOT,%ASCIIEQL,%ASCIIDBLQOT");
      602    73601        %KV_PRMINPTRN(FRSCHR='80'X,TRNCHR='1A'X);
      603    73757        %KV_PRMINPTRN(FRSCHR=%EBCDICLCA,LSTCHR=%EBCDICLCE,
      604    73758          TRNCHR="%ASCIILCA,%ASCIILCB,%ASCIILCC,%ASCIILCD,%ASCIILCE");
      605    73926        %KV_PRMINPTRN(FRSCHR=%EBCDICLCF,LSTCHR=%EBCDICLCI,
      606    73927          TRNCHR="%ASCIILCF,%ASCIILCG,%ASCIILCH,%ASCIILCI");
      607    74088        %KV_PRMINPTRN(FRSCHR='8A'X,LSTCHR='8F'X,TRNCHR='1A'X);
      608    74432        %KV_PRMINPTRN(FRSCHR='90'X,TRNCHR='1A'X);
      609    74588        %KV_PRMINPTRN(FRSCHR=%EBCDICLCJ,LSTCHR=%EBCDICLCN,
      610    74589          TRNCHR="%ASCIILCJ,%ASCIILCK,%ASCIILCL,%ASCIILCM,%ASCIILCN");
      611    74757        %KV_PRMINPTRN(FRSCHR=%EBCDICLCO,LSTCHR=%EBCDICLCR,
      612    74758          TRNCHR="%ASCIILCO,%ASCIILCP,%ASCIILCQ,%ASCIILCR");
      613    74919        %KV_PRMINPTRN(FRSCHR='9A'X,LSTCHR='9F'X,TRNCHR='1A'X);
      614    75263        %KV_PRMINPTRN(FRSCHR='A0'X,TRNCHR='1A'X);
      615    75419        %KV_PRMINPTRN(FRSCHR=%EBCDICTLD,TRNCHR='1A'X);
      616    75575        %KV_PRMINPTRN(FRSCHR=%EBCDICLCS,LSTCHR=%EBCDICLCV,
      617    75576          TRNCHR="%ASCIILCS,%ASCIILCT,%ASCIILCU,%ASCIILCV");
      618    75737        %KV_PRMINPTRN(FRSCHR=%EBCDICLCW,LSTCHR=%EBCDICLCZ,
      619    75738          TRNCHR="%ASCIILCW,%ASCIILCX,%ASCIILCY,%ASCIILCZ");
      620    75899        %KV_PRMINPTRN(FRSCHR='AA'X,LSTCHR='B0'X,TRNCHR='1A'X);
      621    76277        %KV_PRMINPTRN(FRSCHR='B1'X,LSTCHR='B5'X,
      622    76278           TRNCHR="'5C'X,'7B'X,'7D'X,'5B'X,'5D'X");
      623    76446        %KV_PRMINPTRN(FRSCHR='B6'X,LSTCHR='BF'X,TRNCHR='1A'X);
      624    76926        %KV_PRMINPTRN(FRSCHR=%EBCDICLFTBRC,LSTCHR=%EBCDICD,
      625    76927          TRNCHR="%ASCIILFTBRC,%ASCIIA,%ASCIIB,%ASCIIC,%ASCIID");
      626    77095        %KV_PRMINPTRN(FRSCHR=%EBCDICE,LSTCHR=%EBCDICI,
      627    77096          TRNCHR="%ASCIIE,%ASCIIF,%ASCIIG,%ASCIIH,%ASCIII");
      628    77264        %KV_PRMINPTRN(FRSCHR='CA'X,LSTCHR='CF'X,TRNCHR='1A'X);
      629    77608        %KV_PRMINPTRN(FRSCHR=%EBCDICRHTBRC,LSTCHR=%EBCDICM,
      630    77609          TRNCHR="%ASCIIRHTBRC,%ASCIIJ,%ASCIIK,%ASCIIL,%ASCIIM");
      631    77777        %KV_PRMINPTRN(FRSCHR=%EBCDICN,LSTCHR=%EBCDICR,
      632    77778          TRNCHR="%ASCIIN,%ASCIIO,%ASCIIP,%ASCIIQ,%ASCIIR");
      633    77946        %KV_PRMINPTRN(FRSCHR='DA'X,LSTCHR='DF'X,TRNCHR='1A'X);
      634    78290        %KV_PRMINPTRN(FRSCHR='E0'X,TRNCHR='1A'X);
PL6.E3A0      #001=KZ_RBTXLATE_D File=KZ_RBTXLATE_D.:E05TSI                      WED 07/30/97 03:08 Page:21
      635    78446        %KV_PRMINPTRN(FRSCHR='E1'X,TRNCHR='1A'X);
      636    78602        %KV_PRMINPTRN(FRSCHR=%EBCDICS,LSTCHR=%EBCDICW,
      637    78603          TRNCHR="%ASCIIS,%ASCIIT,%ASCIIU,%ASCIIV,%ASCIIW");
      638    78771        %KV_PRMINPTRN(FRSCHR=%EBCDICX,LSTCHR=%EBCDICZ,
      639    78772          TRNCHR="%ASCIIX,%ASCIIY,%ASCIIZ");
      640    78926        %KV_PRMINPTRN(FRSCHR='EA'X,LSTCHR='EF'X,TRNCHR='1A'X);
      641    79270        %KV_PRMINPTRN(FRSCHR=%EBCDIC0,LSTCHR=%EBCDIC4,
      642    79271          TRNCHR="%ASCII0,%ASCII1,%ASCII2,%ASCII3,%ASCII4");
      643    79439        %KV_PRMINPTRN(FRSCHR=%EBCDIC5,LSTCHR=%EBCDIC9,
      644    79440          TRNCHR="%ASCII5,%ASCII6,%ASCII7,%ASCII8,%ASCII9");
      645    79608        %KV_PRMINPTRN(FRSCHR='FA'X,LSTCHR='FF'X,TRNCHR='1A'X,LAST=YES);
      646    79952
      647    79953
      648    79954
      649    79955        /*     Primary input translate table, HIS EBCDIC -> %ASCII   */
      650    79956
      651    79957
      652    79958        %KV_PRMINPTRN(NAME=HIS_INP1,FRSCHR='00'X,LSTCHR='1F'X);
      653    89872
      654    89873        %KV_PRMINPTRN(FRSCHR='04'X,TRNCHR='1A'X);
      655    90029        %KV_PRMINPTRN(FRSCHR='05'X,TRNCHR='09'X);
      656    90185        %KV_PRMINPTRN(FRSCHR='06'X,LSTCHR='0A'X,TRNCHR='1A'X);
      657    90495        %KV_PRMINPTRN(FRSCHR='14'X,LSTCHR='1B'X,TRNCHR='1A'X);
      658    90907        %KV_PRMINPTRN(FRSCHR='16'X,TRNCHR='08'X);
      659    91063        %KV_PRMINPTRN(FRSCHR='18'X,LSTCHR='19'X);
      660    91253        %KV_PRMINPTRN(FRSCHR='20'X,LSTCHR='24'X,TRNCHR='1A'X);
      661    91563        %KV_PRMINPTRN(FRSCHR='25'X,LSTCHR='27'X,TRNCHR="'0A'X,'17'X,'1B'X");
      662    91717        %KV_PRMINPTRN(FRSCHR='28'X,LSTCHR='2C'X,TRNCHR='1A'X);
      663    92027        %KV_PRMINPTRN(FRSCHR='2D'X,LSTCHR='2F'X,TRNCHR="'05'X,'06'X,'07'X");
      664    92181        %KV_PRMINPTRN(FRSCHR='30'X,LSTCHR='31'X,TRNCHR='1A'X);
      665    92389        %KV_PRMINPTRN(FRSCHR='32'X,TRNCHR='16'X);
      666    92545        %KV_PRMINPTRN(FRSCHR='33'X,LSTCHR='36'X,TRNCHR='1A'X);
      667    92821        %KV_PRMINPTRN(FRSCHR='37'X,TRNCHR='04'X);
      668    92977        %KV_PRMINPTRN(FRSCHR='38'X,LSTCHR='3B'X,TRNCHR='1A'X);
      669    93253        %KV_PRMINPTRN(FRSCHR='3C'X,LSTCHR='3D'X,TRNCHR="'14'X,'15'X");
      670    93400        %KV_PRMINPTRN(FRSCHR='3E'X,LSTCHR='3F'X,TRNCHR='1A'X);
      671    93608        %KV_PRMINPTRN(FRSCHR=%EBCDICSP,TRNCHR=%ASCIISP);
PL6.E3A0      #001=KZ_RBTXLATE_D File=KZ_RBTXLATE_D.:E05TSI                      WED 07/30/97 03:08 Page:22
      672    93764        %KV_PRMINPTRN(FRSCHR='41'X,LSTCHR='49'X,TRNCHR='1A'X);
      673    94210        %KV_PRMINPTRN(FRSCHR=%EBCDICCNT,TRNCHR=%ASCIILFTBRK);
      674    94366        %KV_PRMINPTRN(FRSCHR=%EBCDICPRD,TRNCHR=%ASCIIPRD);
      675    94522        %KV_PRMINPTRN(FRSCHR=%EBCDICLFTARW,TRNCHR=%ASCIILFTARW);
      676    94678        %KV_PRMINPTRN(FRSCHR=%EBCDICLFTPRN,TRNCHR=%ASCIILFTPRN);
      677    94834        %KV_PRMINPTRN(FRSCHR=%EBCDICPLS,TRNCHR=%ASCIIPLS);
      678    94990        %KV_PRMINPTRN(FRSCHR=%EBCDICSLDVRTLIN,TRNCHR='21'X);
      679    95146        %KV_PRMINPTRN(FRSCHR=%EBCDICAMP,TRNCHR=%ASCIIAMP);
      680    95302        %KV_PRMINPTRN(FRSCHR='51'X,LSTCHR='59'X,TRNCHR='1A'X);
      681    95748        %KV_PRMINPTRN(FRSCHR=%EBCDICEXCPNT,TRNCHR='5D'X);
      682    95904        %KV_PRMINPTRN(FRSCHR=%EBCDICDLR,TRNCHR=%ASCIIDLR);
      683    96060        %KV_PRMINPTRN(FRSCHR=%EBCDICAST,TRNCHR=%ASCIIAST);
      684    96216        %KV_PRMINPTRN(FRSCHR=%EBCDICRHTPRN,TRNCHR=%ASCIIRHTPRN);
      685    96372        %KV_PRMINPTRN(FRSCHR=%EBCDICSEMCLN,TRNCHR=%ASCIISEMCLN);
      686    96528        %KV_PRMINPTRN(FRSCHR=%EBCDICNOT,TRNCHR='5E'X);
      687    96684        %KV_PRMINPTRN(FRSCHR=%EBCDICHPH,TRNCHR=ASCIIHPH);
      688    96840        %KV_PRMINPTRN(FRSCHR=%EBCDICSLS,TRNCHR=%ASCIISLS);
      689    96996        %KV_PRMINPTRN(FRSCHR='62'X,LSTCHR='69'X,TRNCHR='1A'X);
      690    97408        %KV_PRMINPTRN(FRSCHR=%EBCDICVRTLIN,TRNCHR='7C'X);
      691    97564        %KV_PRMINPTRN(FRSCHR=%EBCDICCOM,LSTCHR=%EBCDICQST,
      692    97565          TRNCHR="%ASCIICOM,%ASCIIPRC,%ASCIIUNDSCR,%ASCIIRHTARW,%ASCIIQST");
      693    97733        %KV_PRMINPTRN(FRSCHR='70'X,LSTCHR='78'X,TRNCHR='1A'X);
      694    98179        %KV_PRMINPTRN(FRSCHR=%EBCDICGRVACT,TRNCHR='60'X);
      695    98335        %KV_PRMINPTRN(FRSCHR=%EBCDICCLN,LSTCHR=%EBCDICDBLQOT,
      696    98336          TRNCHR="%ASCIICLN,%ASCIINMB,%ASCIIAT,%ASCIISNGQOT,%ASCIIEQL,%ASCIIDBLQOT");
      697    98511        %KV_PRMINPTRN(FRSCHR='80'X,TRNCHR='1A'X);
      698    98667        %KV_PRMINPTRN(FRSCHR=%EBCDICLCA,LSTCHR=%EBCDICLCE,
      699    98668          TRNCHR="%ASCIILCA,%ASCIILCB,%ASCIILCC,%ASCIILCD,%ASCIILCE");
      700    98836        %KV_PRMINPTRN(FRSCHR=%EBCDICLCF,LSTCHR=%EBCDICLCI,
      701    98837          TRNCHR="%ASCIILCF,%ASCIILCG,%ASCIILCH,%ASCIILCI");
      702    98998        %KV_PRMINPTRN(FRSCHR='8A'X,LSTCHR='8F'X,TRNCHR='1A'X);
      703    99342        %KV_PRMINPTRN(FRSCHR='90'X,TRNCHR='1A'X);
      704    99498        %KV_PRMINPTRN(FRSCHR=%EBCDICLCJ,LSTCHR=%EBCDICLCN,
      705    99499          TRNCHR="%ASCIILCJ,%ASCIILCK,%ASCIILCL,%ASCIILCM,%ASCIILCN");
      706    99667        %KV_PRMINPTRN(FRSCHR=%EBCDICLCO,LSTCHR=%EBCDICLCR,
      707    99668          TRNCHR="%ASCIILCO,%ASCIILCP,%ASCIILCQ,%ASCIILCR");
      708    99829        %KV_PRMINPTRN(FRSCHR='9A'X,LSTCHR='9F'X,TRNCHR='1A'X);
PL6.E3A0      #001=KZ_RBTXLATE_D File=KZ_RBTXLATE_D.:E05TSI                      WED 07/30/97 03:08 Page:23
      709   100173        %KV_PRMINPTRN(FRSCHR='A0'X,TRNCHR='1A'X);
      710   100329        %KV_PRMINPTRN(FRSCHR=%EBCDICTLD,TRNCHR='7E'X);
      711   100485        %KV_PRMINPTRN(FRSCHR=%EBCDICLCS,LSTCHR=%EBCDICLCV,
      712   100486          TRNCHR="%ASCIILCS,%ASCIILCT,%ASCIILCU,%ASCIILCV");
      713   100647        %KV_PRMINPTRN(FRSCHR=%EBCDICLCW,LSTCHR=%EBCDICLCZ,
      714   100648          TRNCHR="%ASCIILCW,%ASCIILCX,%ASCIILCY,%ASCIILCZ");
      715   100809        %KV_PRMINPTRN(FRSCHR='AA'X,LSTCHR='BF'X,TRNCHR='1A'X);
      716   101697        %KV_PRMINPTRN(FRSCHR=%EBCDICLFTBRC,LSTCHR=%EBCDICD,
      717   101698          TRNCHR="%ASCIILFTBRC,%ASCIIA,%ASCIIB,%ASCIIC,%ASCIID");
      718   101866        %KV_PRMINPTRN(FRSCHR=%EBCDICE,LSTCHR=%EBCDICI,
      719   101867          TRNCHR="%ASCIIE,%ASCIIF,%ASCIIG,%ASCIIH,%ASCIII");
      720   102035        %KV_PRMINPTRN(FRSCHR='CA'X,LSTCHR='CF'X,TRNCHR='1A'X);
      721   102379        %KV_PRMINPTRN(FRSCHR=%EBCDICRHTBRC,LSTCHR=%EBCDICM,
      722   102380          TRNCHR="%ASCIIRHTBRC,%ASCIIJ,%ASCIIK,%ASCIIL,%ASCIIM");
      723   102548        %KV_PRMINPTRN(FRSCHR=%EBCDICN,LSTCHR=%EBCDICR,
      724   102549          TRNCHR="%ASCIIN,%ASCIIO,%ASCIIP,%ASCIIQ,%ASCIIR");
      725   102717        %KV_PRMINPTRN(FRSCHR='DA'X,LSTCHR='DF'X,TRNCHR='1A'X);
      726   103061        %KV_PRMINPTRN(FRSCHR='E0'X,TRNCHR='5C'X);
      727   103217        %KV_PRMINPTRN(FRSCHR='E1'X,TRNCHR='1A'X);
      728   103373        %KV_PRMINPTRN(FRSCHR=%EBCDICS,LSTCHR=%EBCDICW,
      729   103374          TRNCHR="%ASCIIS,%ASCIIT,%ASCIIU,%ASCIIV,%ASCIIW");
      730   103542        %KV_PRMINPTRN(FRSCHR=%EBCDICX,LSTCHR=%EBCDICZ,
      731   103543          TRNCHR="%ASCIIX,%ASCIIY,%ASCIIZ");
      732   103697        %KV_PRMINPTRN(FRSCHR='EA'X,LSTCHR='EF'X,TRNCHR='1A'X);
      733   104041        %KV_PRMINPTRN(FRSCHR=%EBCDIC0,LSTCHR=%EBCDIC4,
      734   104042          TRNCHR="%ASCII0,%ASCII1,%ASCII2,%ASCII3,%ASCII4");
      735   104210        %KV_PRMINPTRN(FRSCHR=%EBCDIC5,LSTCHR=%EBCDIC9,
      736   104211          TRNCHR="%ASCII5,%ASCII6,%ASCII7,%ASCII8,%ASCII9");
      737   104379        %KV_PRMINPTRN(FRSCHR='FA'X,LSTCHR='FF'X,TRNCHR='1A'X,LAST=YES);
      738   104723
      739   104724        %EJECT;
PL6.E3A0      #001=KZ_RBTXLATE_D File=KZ_RBTXLATE_D.:E05TSI                      WED 07/30/97 03:08 Page:24
      740   104725
      741   104726        %KV$TRNTBL (NAME=KZ_RBT_EBCI,STCLASS=CONSTANT SYMDEF,
      742   104727              INPTRN1=EBC_INP1,
      743   104728              OTPTRN1=EBC_OTP1,
      744   104729              OTPTRN2=HIS_NOPOSOTP_2,
      745   104730              EXTINPTRN=NIL,
      746   104731              EXTOTPTRN=NIL,
      747   104732              LNK=KZ_RBT_EBCO,
      748   104733              NAM='EBCI',
      749   104734              INPCHRMSK='00FF'X,
      750   104735              OTPESCCHR="%BITBIN(KZ_RBTOTPCTRCHR_BGN)",
      751   104736              OTPESCCHR1="%BITASC(KZ_RBTOTPCTRCHR_BGN)",
      752   104737              SP_CHR="%BITASC(EBCDICSP)",
      753   104738              HT_CHR="%BITASC('05'X)");
      754   104796
      755   104797
      756   104798
      757   104799        %KV$TRNTBL (NAME=KZ_RBT_EBCO,STCLASS=CONSTANT SYMDEF,
      758   104800              INPTRN1=EBC_INP1,
      759   104801              OTPTRN1=EBC_OTP1,
      760   104802              OTPTRN2=HIS_NOPOSOTP_2,
      761   104803              EXTINPTRN=NIL,
      762   104804              EXTOTPTRN=NIL,
      763   104805              LNK=KZ_RBT_XDSI,
      764   104806              NAM='EBCO',
      765   104807              INPCHRMSK='00FF'X,
      766   104808              OTPESCCHR="%BITBIN(KZ_RBTOTPCTRCHR_BGN)",
      767   104809              OTPESCCHR1="%BITASC(KZ_RBTOTPCTRCHR_BGN)",
      768   104810              SP_CHR="%BITASC(EBCDICSP)",
      769   104811              HT_CHR="%BITASC('05'X)");
      770   104869
      771   104870
      772   104871
      773   104872
      774   104873        %KV$TRNTBL (NAME=KZ_RBT_XDSI,STCLASS=CONSTANT SYMDEF,
      775   104874              INPTRN1=XRX_INP1,
      776   104875              OTPTRN1=XRX_OTP1,
PL6.E3A0      #001=KZ_RBTXLATE_D File=KZ_RBTXLATE_D.:E05TSI                      WED 07/30/97 03:08 Page:25
      777   104876              OTPTRN2=XRX_NOPOSOTP_2,
      778   104877              EXTINPTRN=NIL,
      779   104878              EXTOTPTRN=NIL,
      780   104879              LNK=KZ_RBT_XDSO,
      781   104880              NAM='XDSI',
      782   104881              INPCHRMSK='00FF'X,
      783   104882              OTPESCCHR="%BITBIN(KZ_RBTOTPCTRCHR_BGN)",
      784   104883              OTPESCCHR1="%BITASC(KZ_RBTOTPCTRCHR_BGN)",
      785   104884              SP_CHR="%BITASC(EBCDICSP)",
      786   104885              HT_CHR="%BITASC('05'X)");
      787   104943
      788   104944
      789   104945
      790   104946
      791   104947        %KV$TRNTBL (NAME=KZ_RBT_XDSO,STCLASS=CONSTANT SYMDEF,
      792   104948              INPTRN1=XRX_INP1,
      793   104949              OTPTRN1=XRX_OTP1,
      794   104950              OTPTRN2=XRX_NOPOSOTP_2,
      795   104951              EXTINPTRN=NIL,
      796   104952              EXTOTPTRN=NIL,
      797   104953              LNK=KZ_RBT_HISI,
      798   104954              NAM='XDSO',
      799   104955              INPCHRMSK='00FF'X,
      800   104956              OTPESCCHR="%BITBIN(KZ_RBTOTPCTRCHR_BGN)",
      801   104957              OTPESCCHR1="%BITASC(KZ_RBTOTPCTRCHR_BGN)",
      802   104958              SP_CHR="%BITASC(EBCDICSP)",
      803   104959              HT_CHR="%BITASC('05'X)");
      804   105017
      805   105018
      806   105019
      807   105020
      808   105021        %KV$TRNTBL (NAME=KZ_RBT_HISI,STCLASS=CONSTANT SYMDEF,
      809   105022              INPTRN1=HIS_INP1,
      810   105023              OTPTRN1=HIS_OTP1,
      811   105024              OTPTRN2=HIS_NOPOSOTP_2,
      812   105025              EXTINPTRN=NIL,
      813   105026              EXTOTPTRN=NIL,
PL6.E3A0      #001=KZ_RBTXLATE_D File=KZ_RBTXLATE_D.:E05TSI                      WED 07/30/97 03:08 Page:26
      814   105027              LNK=KZ_RBT_HISO,
      815   105028              NAM='HISI',
      816   105029              INPCHRMSK='00FF'X,
      817   105030              OTPESCCHR="%BITBIN(KZ_RBTOTPCTRCHR_BGN)",
      818   105031              OTPESCCHR1="%BITASC(KZ_RBTOTPCTRCHR_BGN)",
      819   105032              SP_CHR="%BITASC(EBCDICSP)",
      820   105033              HT_CHR="%BITASC('05'X)");
      821   105091
      822   105092
      823   105093
      824   105094
      825   105095        %KV$TRNTBL (NAME=KZ_RBT_HISO,STCLASS=CONSTANT SYMDEF,
      826   105096              INPTRN1=HIS_INP1,
      827   105097              OTPTRN1=HIS_OTP1,
      828   105098              OTPTRN2=HIS_NOPOSOTP_2,
      829   105099              EXTINPTRN=NIL,
      830   105100              EXTOTPTRN=NIL,
      831   105101              LNK=KZ_RBT_SDS7012,
      832   105102              NAM='HISO',
      833   105103              INPCHRMSK='00FF'X,
      834   105104              OTPESCCHR="%BITBIN(KZ_RBTOTPCTRCHR_BGN)",
      835   105105              OTPESCCHR1="%BITASC(KZ_RBTOTPCTRCHR_BGN)",
      836   105106              SP_CHR="%BITASC(EBCDICSP)",
      837   105107              HT_CHR="%BITASC('05'X)");
      838   105165
      839   105166
      840   105167
      841   105168
      842   105169        %KV$TRNTBL (NAME=KZ_RBT_SDS7012,STCLASS=CONSTANT SYMDEF,
      843   105170              INPTRN1=EBC_INP1,
      844   105171              OTPTRN1=UPR_OTP1,
      845   105172              OTPTRN2=HIS_NOPOSOTP_2,
      846   105173              EXTINPTRN=NIL,
      847   105174              EXTOTPTRN=NIL,
      848   105175              LNK=KZ_RBT_EBC,
      849   105176              NAM='SDS7012',
      850   105177              INPCHRMSK='00FF'X,
PL6.E3A0      #001=KZ_RBTXLATE_D File=KZ_RBTXLATE_D.:E05TSI                      WED 07/30/97 03:08 Page:27
      851   105178              OTPESCCHR="%BITBIN(KZ_RBTOTPCTRCHR_BGN)",
      852   105179              OTPESCCHR1="%BITASC(KZ_RBTOTPCTRCHR_BGN)",
      853   105180              SP_CHR="%BITASC(EBCDICSP)",
      854   105181              HT_CHR="%BITASC('05'X)");
      855   105239
      856   105240
      857   105241
      858   105242
      859   105243        %KV$TRNTBL (NAME=KZ_RBT_EBC,STCLASS=CONSTANT SYMDEF,
      860   105244              INPTRN1=EBC_INP1,
      861   105245              OTPTRN1=EBC_OTP1,
      862   105246              OTPTRN2=HIS_NOPOSOTP_2,
      863   105247              EXTINPTRN=NIL,
      864   105248              EXTOTPTRN=NIL,
      865   105249              LNK=KZ_RBT_XDS,
      866   105250              NAM='EBC',
      867   105251              INPCHRMSK='00FF'X,
      868   105252              OTPESCCHR="%BITBIN(KZ_RBTOTPCTRCHR_BGN)",
      869   105253              OTPESCCHR1="%BITASC(KZ_RBTOTPCTRCHR_BGN)",
      870   105254              SP_CHR="%BITASC(EBCDICSP)",
      871   105255              HT_CHR="%BITASC('05'X)");
      872   105313
      873   105314
      874   105315
      875   105316
      876   105317        %KV$TRNTBL (NAME=KZ_RBT_XDS,STCLASS=CONSTANT SYMDEF,
      877   105318              INPTRN1=XRX_INP1,
      878   105319              OTPTRN1=XRX_OTP1,
      879   105320              OTPTRN2=XRX_NOPOSOTP_2,
      880   105321              EXTINPTRN=NIL,
      881   105322              EXTOTPTRN=NIL,
      882   105323              LNK=KZ_RBT_HIS,
      883   105324              NAM='XDS',
      884   105325              INPCHRMSK='00FF'X,
      885   105326              OTPESCCHR="%BITBIN(KZ_RBTOTPCTRCHR_BGN)",
      886   105327              OTPESCCHR1="%BITASC(KZ_RBTOTPCTRCHR_BGN)",
      887   105328              SP_CHR="%BITASC(EBCDICSP)",
PL6.E3A0      #001=KZ_RBTXLATE_D File=KZ_RBTXLATE_D.:E05TSI                      WED 07/30/97 03:08 Page:28
      888   105329              HT_CHR="%BITASC('05'X)");
      889   105387
      890   105388
      891   105389
      892   105390
      893   105391        %KV$TRNTBL (NAME=KZ_RBT_HIS,STCLASS=CONSTANT SYMDEF,
      894   105392              INPTRN1=HIS_INP1,
      895   105393              OTPTRN1=HIS_OTP1,
      896   105394              OTPTRN2=HIS_NOPOSOTP_2,
      897   105395              EXTINPTRN=NIL,
      898   105396              EXTOTPTRN=NIL,
      899   105397              LNK=KZ_RBT_BIT,
      900   105398              NAM='HIS',
      901   105399              INPCHRMSK='00FF'X,
      902   105400              OTPESCCHR="%BITBIN(KZ_RBTOTPCTRCHR_BGN)",
      903   105401              OTPESCCHR1="%BITASC(KZ_RBTOTPCTRCHR_BGN)",
      904   105402              SP_CHR="%BITASC(EBCDICSP)",
      905   105403              HT_CHR="%BITASC('05'X)");
      906   105461
      907   105462
      908   105463
      909   105464        %KV$TRNTBL (NAME=KZ_RBT_BIT,STCLASS=CONSTANT SYMDEF,
      910   105465              INPTRN1=BIT_INP1,
      911   105466              OTPTRN1=HIS_OTP1,
      912   105467              OTPTRN2=BIT_NOPOSOTP_2,
      913   105468              EXTINPTRN=NIL,
      914   105469              EXTOTPTRN=NIL,
      915   105470              LNK=KZ_RBT_EBCE,
      916   105471              NAM='BIT',
      917   105472              INPCHRMSK='00FF'X,
      918   105473              OTPESCCHR="%BITBIN(KZ_RBTOTPCTRCHR_BGN)",
      919   105474              OTPESCCHR1="%BITASC(KZ_RBTOTPCTRCHR_BGN)",
      920   105475              SP_CHR="%BITASC(EBCDICSP)",
      921   105476              HT_CHR="%BITASC('05'X)");
      922   105534
      923   105535
      924   105536
PL6.E3A0      #001=KZ_RBTXLATE_D File=KZ_RBTXLATE_D.:E05TSI                      WED 07/30/97 03:08 Page:29
      925   105537        %KV$TRNTBL (NAME=KZ_RBT_EBCE,STCLASS=CONSTANT SYMDEF,
      926   105538              INPTRN1=EBCE_INP1,
      927   105539              OTPTRN1=HIS_OTP1,
      928   105540              OTPTRN2=EBCE_NOPOSOTP_2,
      929   105541              EXTINPTRN=NIL,
      930   105542              EXTOTPTRN=NIL,
      931   105543              LNK=KZ_RBT_NON,
      932   105544              NAM='EBCE',
      933   105545              INPCHRMSK='00FF'X,
      934   105546              OTPESCCHR="%BITBIN(KZ_RBTOTPCTRCHR_BGN)",
      935   105547              OTPESCCHR1="%BITASC(KZ_RBTOTPCTRCHR_BGN)",
      936   105548              SP_CHR="%BITASC(EBCDICSP)",
      937   105549              HT_CHR="%BITASC('05'X)");
      938   105607
      939   105608
      940   105609
      941   105610        %KV$TRNTBL (NAME=KZ_RBT_NON,STCLASS=CONSTANT SYMDEF,
      942   105611              EXTINPTRN=NIL,
      943   105612              EXTOTPTRN=NIL,
      944   105613              LNK=NIL,
      945   105614              NAM='NONE',
      946   105615              INPCHRMSK='00FF'X,
      947   105616              SP_CHR="%BITASC(ASCIISP)",
      948   105617              HT_CHR="%BITASC('09'X)");
      949   105675
      950   105676
      951   105677    1   END;

PL6.E3A0      #001=KZ_RBTXLATE_D File=KZ_RBTXLATE_D.:E05TSI                      WED 07/30/97 03:08 Page:30
--  Include file information  --

   KV$GLB.:E05TOU  is referenced.
   KV$INT.:E05TOU  is referenced.
   KV_ASCCHR_E.:E05TOU  is referenced.
   KV_EBCCHR_E.:E05TOU  is referenced.
   KV_TRNTBL_M.:E05TOU  is referenced.
      No diagnostics issued in procedure KZ_RBTXLATE_D.

   No code generated for procedure KZ_RBTXLATE_D .
   Procedure KZ_RBTXLATE_D requires 4 words of local(AUTO) storage.

    No errors detected in file KZ_RBTXLATE_D.:E05TSI    .

PL6.E3A0      #001=KZ_RBTXLATE_D File=KZ_RBTXLATE_D.:E05TSI                      WED 07/30/97 03:08 Page:31

 Object Unit name= KZ_RBTXLATE_D                              File name= KZ_RBTXLATE_D.:E05TOU
 UTS= JUL 30 '97 03:08:44.80 WED                              Compiler= PL-6/E31         Sev=      00
 SharedLib= :SHARED_LCP6_SYSTEM                               Alt SharedLib=


    ****  Control sections  ****

 Sect   Type Bound  Init  Size HexSiz  Section name
    0  RoData even  UTS   1830    726  KZ_RBTXLATE_D
    1   Proc  even  none     0      0  KZ_RBTXLATE_D

    ****  Entry defs  ****

                              Check   Calling
                             calling  sequence
  Sect HexLoc Primary Altret sequence   type   Parms  Name
     1      0   yes            yes     ~proc       0  KZ_RBTXLATE_D

  ****  Data defs  ****

 Sect HexLoc  Name                           Sect HexLoc  Name
    0    586  KZ_RBT_EBCI                        0    5A6  KZ_RBT_EBCO
    0    5C6  KZ_RBT_XDSI                        0    5E6  KZ_RBT_XDSO
    0    606  KZ_RBT_HISI                        0    626  KZ_RBT_HISO
    0    646  KZ_RBT_SDS7012                     0    666  KZ_RBT_EBC
    0    686  KZ_RBT_XDS                         0    6A6  KZ_RBT_HIS
    0    6C6  KZ_RBT_BIT                         0    6E6  KZ_RBT_EBCE
    0    706  KZ_RBT_NON

  ****  Data refs  ****

  Flags:  r = read only, s = secondary
Flgs Name                             Flgs Name                             Flgs Name
r    G$ROS$
PL6.E3A0      #001=KZ_RBTXLATE_D File=KZ_RBTXLATE_D.:E05TSI                      WED 07/30/97 03:08 Page:32

        1        1        /*M*  Translate tables for RBT                                     */
        2        2        /*T***********************************************************/
        3        3        /*T*                                                         */
        4        4        /*T* Copyright (c) Bull HN Information Systems Inc., 1997    */
        5        5        /*T*                                                         */
        6        6        /*T***********************************************************/
        7        7
        8        8        KZ_RBTXLATE_D: PROC;
        9        9
       10       10        %INCLUDE KV_TRNTBL_M;
       11      345        %INCLUDE KV_EBCCHR_E;
       12      454        %INCLUDE KV_ASCCHR_E;
       13      591        %INCLUDE KV$INT;
       14     1223        %INCLUDE KV$GLB;
       15     1642
       16     1643
       17     1644
       18     1645        %EQU KZ_RBTOTPCTRCHR_BGN = '1F'X;
       19     1646        %EQU OTPNXTTBL = '1F'X;
       20     1647        %EJECT;
PL6.E3A0      #001=KZ_RBTXLATE_D File=KZ_RBTXLATE_D.:E05TSI                      WED 07/30/97 03:08 Page:33
       21     1648
       22     1649        /*    Primary Output Translation table, ASCII->EBCDIC             */
       23     1650
       24     1651
       25     1652        %KV_PRMOTPTRN(NAME=EBC_OTP1,FRSCHR='00'X,LSTCHR='03'X);
       26     1885        %KV_PRMOTPTRN(FRSCHR='04'X,LSTCHR='0A'X,
       27     1886         TRNCHR="'37'X,'2D'X,'2E'X,'2F'X,KZ_RBTOTPCTRCHR_BGN,KZ_RBTOTPCTRCHR_BGN,KZ_RBTOTPC
              1886        TRCHR_BGN");
       28     2025        %KV_PRMOTPTRN(FRSCHR='0B'X,LSTCHR='13'X);
       29     2410        %KV_PRMOTPTRN(FRSCHR='0D'X,TRNCHR=KZ_RBTOTPCTRCHR_BGN);
       30     2523        %KV_PRMOTPTRN(FRSCHR='14'X,LSTCHR='1B'X,
       31     2524          TRNCHR="'3C'X,'3D'X,'32'X,'26'X,'18'X,'19'X,'3F'X,'27'X");
       32     2670
       33     2671        %KV_PRMOTPTRN(FRSCHR='1C'X,LSTCHR='1F'X);
       34     2886
       35     2887        %KV_PRMOTPTRN(FRSCHR=%ASCIISP,TRNCHR=%EBCDICSP);
       36     3000        %KV_PRMOTPTRN(FRSCHR=%ASCIIEXCPNT,LSTCHR=%ASCIIPRC,
       37     3001          TRNCHR="%EBCDICEXCPNT,%EBCDICDBLQOT,%EBCDICNMB,%EBCDICDLR,%EBCDICPRC");
       38     3126        %KV_PRMOTPTRN(FRSCHR=%ASCIIAMP,LSTCHR= %ASCIIAST,
       39     3127         TRNCHR="%EBCDICAMP,%EBCDICSNGQOT,%EBCDICLFTPRN,%EBCDICRHTPRN,%EBCDICAST");
       40     3252        %KV_PRMOTPTRN(FRSCHR=%ASCIIPLS,LSTCHR=%ASCIISLS,
       41     3253          TRNCHR="%EBCDICPLS,%EBCDICCOM,%EBCDICHPH,%EBCDICPRD,%EBCDICSLS");
       42     3378        %KV_PRMOTPTRN(FRSCHR=%ASCII0,LSTCHR=ASCII4,
       43     3379             TRNCHR="%EBCDIC0,%EBCDIC1,%EBCDIC2,%EBCDIC3,%EBCDIC4");
       44     3504        %KV_PRMOTPTRN(FRSCHR=%ASCII5,LSTCHR=%ASCII9,
       45     3505             TRNCHR="%EBCDIC5,%EBCDIC6,%EBCDIC7,%EBCDIC8,%EBCDIC9");
       46     3630        %KV_PRMOTPTRN(FRSCHR=%ASCIICLN,LSTCHR=%ASCIIEQL,
       47     3631          TRNCHR="%EBCDICCLN,%EBCDICSEMCLN,%EBCDICLFTARW,%EBCDICEQL");
       48     3749        %KV_PRMOTPTRN(FRSCHR=%ASCIIRHTARW,LSTCHR=%ASCIIAT,
       49     3750          TRNCHR="%EBCDICRHTARW,%EBCDICQST,%EBCDICAT");
       50     3861        %KV_PRMOTPTRN(FRSCHR=%ASCIIA,LSTCHR=%ASCIIE,
       51     3862             TRNCHR="%EBCDICA,%EBCDICB,%EBCDICC,%EBCDICD,%EBCDICE");
       52     3987        %KV_PRMOTPTRN(FRSCHR=%ASCIIF,LSTCHR=%ASCIIJ,
       53     3988             TRNCHR="%EBCDICF,%EBCDICG,%EBCDICH,%EBCDICI,%EBCDICJ");
       54     4113        %KV_PRMOTPTRN(FRSCHR=%ASCIIK,LSTCHR=%ASCIIO,
       55     4114             TRNCHR="%EBCDICK,%EBCDICL,%EBCDICM,%EBCDICN,%EBCDICO");
       56     4239        %KV_PRMOTPTRN(FRSCHR=%ASCIIP,LSTCHR=%ASCIIT,
PL6.E3A0      #001=KZ_RBTXLATE_D File=KZ_RBTXLATE_D.:E05TSI                      WED 07/30/97 03:08 Page:34
       57     4240             TRNCHR="%EBCDICP,%EBCDICQ,%EBCDICR,%EBCDICS,%EBCDICT");
       58     4365        %KV_PRMOTPTRN(FRSCHR=%ASCIIU,LSTCHR=%ASCIIY,
       59     4366             TRNCHR="%EBCDICU,%EBCDICV,%EBCDICW,%EBCDICX,%EBCDICY");
       60     4491        %KV_PRMOTPTRN(FRSCHR=%ASCIIZ,TRNCHR=%EBCDICZ);
       61     4604        %KV_PRMOTPTRN(FRSCHR=%ASCIILFTBRK,LSTCHR=%ASCIIUP_ARW,
       62     4605          TRNCHR="%EBCDICCNT,%EBCDICBCKSLS,%EBCDICSLDVRTLIN,%EBCDICNOT");
       63     4723        %KV_PRMOTPTRN(FRSCHR=%ASCIIUNDSCR,LSTCHR=%ASCIIGRVACT,
       64     4724          TRNCHR="%EBCDICUNDSCR,%EBCDICGRVACT");
       65     4828        %KV_PRMOTPTRN(FRSCHR=%ASCIILCA,LSTCHR=%ASCIILCE,
       66     4829             TRNCHR="%EBCDICLCA,%EBCDICLCB,%EBCDICLCC,%EBCDICLCD,%EBCDICLCE");
       67     4954        %KV_PRMOTPTRN(FRSCHR=%ASCIILCF,LSTCHR=%ASCIILCJ,
       68     4955             TRNCHR="%EBCDICLCF,%EBCDICLCG,%EBCDICLCH,%EBCDICLCI,%EBCDICLCJ");
       69     5080        %KV_PRMOTPTRN(FRSCHR=%ASCIILCK,LSTCHR=%ASCIILCO,
       70     5081             TRNCHR="%EBCDICLCK,%EBCDICLCL,%EBCDICLCM,%EBCDICLCN,%EBCDICLCO");
       71     5206        %KV_PRMOTPTRN(FRSCHR=%ASCIILCP,LSTCHR=%ASCIILCT,
       72     5207             TRNCHR="%EBCDICLCP,%EBCDICLCQ,%EBCDICLCR,%EBCDICLCS,%EBCDICLCT");
       73     5332        %KV_PRMOTPTRN(FRSCHR=%ASCIILCU,LSTCHR=%ASCIILCY,
       74     5333             TRNCHR="%EBCDICLCU,%EBCDICLCV,%EBCDICLCW,%EBCDICLCX,%EBCDICLCY");
       75     5458        %KV_PRMOTPTRN(FRSCHR=%ASCIILCZ,TRNCHR=%EBCDICLCZ);
       76     5571        %KV_PRMOTPTRN(FRSCHR=%ASCIILFTBRC,LSTCHR=%ASCIIDEL,
       77     5572          TRNCHR="%EBCDICLFTBRC,%EBCDICVRTLIN,%EBCDICRHTBRC,%EBCDICTLD,'07'X");
       78     5697        %KV_PRMOTPTRN(FRSCHR='80'X,LSTCHR='88'X,
       79     5698          TRNCHR="'20'X,'21'X,'22'X,'23'X,'24'X,'15'X,'06'X,'17'X,'28'X");
       80     5851        %KV_PRMOTPTRN(FRSCHR='89'X,LSTCHR='8F'X,
       81     5852          TRNCHR="'29'X,'2A'X,'2B'X,'2C'X,'09'X,'0A'X,'1B'X");
       82     5991        %KV_PRMOTPTRN(FRSCHR='90'X,LSTCHR='98'X,
       83     5992          TRNCHR="'30'X,'31'X,'1A'X,'33'X,'34'X,'35'X,'36'X,'08'X,'38'X");
       84     6145        %KV_PRMOTPTRN(FRSCHR='99'X,LSTCHR='9F'X,
       85     6146          TRNCHR="'39'X,'3A'X,'3B'X,'04'X,'14'X,'3E'X,'E1'X");
       86     6285        %KV_PRMOTPTRN(FRSCHR='A0'X,LSTCHR='A8'X,
       87     6286          TRNCHR="'41'X,'42'X,'43'X,'44'X,'45'X,'46'X,'47'X,'48'X,'49'X");
       88     6439        %KV_PRMOTPTRN(FRSCHR='A9'X,LSTCHR='AF'X,
       89     6440          TRNCHR="'51'X,'52'X,'53'X,'54'X,'55'X,'56'X,'57'X");
       90     6579        %KV_PRMOTPTRN(FRSCHR='B0'X,LSTCHR='B8'X,
       91     6580          TRNCHR="'58'X,'59'X,'62'X,'63'X,'64'X,'65'X,'66'X,'67'X,'68'X");
       92     6733        %KV_PRMOTPTRN(FRSCHR='B9'X,LSTCHR='BF'X,
       93     6734          TRNCHR="'69'X,'70'X,'71'X,'72'X,'73'X,'74'X,'75'X");
PL6.E3A0      #001=KZ_RBTXLATE_D File=KZ_RBTXLATE_D.:E05TSI                      WED 07/30/97 03:08 Page:35
       94     6873        %KV_PRMOTPTRN(FRSCHR='C0'X,LSTCHR='C8'X,
       95     6874          TRNCHR="'76'X,'77'X,'78'X,'80'X,'8A'X,'8B'X,'8C'X,'8D'X,'8E'X");
       96     7027        %KV_PRMOTPTRN(FRSCHR='C9'X,LSTCHR='CF'X,
       97     7028          TRNCHR="'89'X,'90'X,'9A'X,'9B'X,'9C'X,'9D'X,'9E'X");
       98     7167        %KV_PRMOTPTRN(FRSCHR='D0'X,LSTCHR='D8'X,
       99     7168          TRNCHR="'9F'X,'A0'X,'AA'X,'AB'X,'AC'X,'AD'X,'AE'X,'AF'X,'B0'X");
      100     7321        %KV_PRMOTPTRN(FRSCHR='D9'X,LSTCHR='DF'X,
      101     7322          TRNCHR="'B1'X,'B2'X,'B3'X,'B4'X,'B5'X,'B6'X,'B7'X");
      102     7461        %KV_PRMOTPTRN(FRSCHR='E0'X,LSTCHR='E8'X,
      103     7462          TRNCHR="'B8'X,'B9'X,'BA'X,'BB'X,'BC'X,'BD'X,'BE'X,'BF'X,'CA'X");
      104     7615        %KV_PRMOTPTRN(FRSCHR='E9'X,LSTCHR='EF'X,
      105     7616          TRNCHR="'CB'X,'CC'X,'CD'X,'CE'X,'CF'X,'DA'X,'DB'X");
      106     7755        %KV_PRMOTPTRN(FRSCHR='F0'X,LSTCHR='F8'X,
      107     7756          TRNCHR="'DC'X,'DD'X,'DE'X,'DF'X,'EA'X,'EB'X,'EC'X,'ED'X,'EE'X");
      108     7909        %KV_PRMOTPTRN(FRSCHR='F9'X,LSTCHR='FF'X,
      109     7910          TRNCHR="'EF'X,'FA'X,'FB'X,'FC'X,'FD'X,'FE'X,'FF'X",LAST=YES);
      110     8049
      111     8050
      112     8051
      113     8052
      114     8053        %EJECT;
PL6.E3A0      #001=KZ_RBTXLATE_D File=KZ_RBTXLATE_D.:E05TSI                      WED 07/30/97 03:08 Page:36
      115     8054
      116     8055        /*    Primary Output Translation table, ASCII->HIS EBCDIC             */
      117     8056
      118     8057
      119     8058        %KV_PRMOTPTRN(NAME=HIS_OTP1,FRSCHR='00'X,LSTCHR='03'X);
      120     8291        %KV_PRMOTPTRN(FRSCHR='04'X,LSTCHR='0A'X,
      121     8292         TRNCHR="'37'X,'2D'X,'2E'X,'2F'X,KZ_RBTOTPCTRCHR_BGN,KZ_RBTOTPCTRCHR_BGN,KZ_RBTOTPC
              8292        TRCHR_BGN");
      122     8431        %KV_PRMOTPTRN(FRSCHR='0B'X,LSTCHR='13'X);
      123     8816        %KV_PRMOTPTRN(FRSCHR='0D'X,TRNCHR=KZ_RBTOTPCTRCHR_BGN);
      124     8929        %KV_PRMOTPTRN(FRSCHR='14'X,LSTCHR='1B'X,
      125     8930          TRNCHR="'3C'X,'3D'X,'32'X,'26'X,'18'X,'19'X,'3F'X,'27'X");
      126     9076        %KV_PRMOTPTRN(FRSCHR='1C'X,LSTCHR='1F'X);
      127     9291        %KV_PRMOTPTRN(FRSCHR=%ASCIISP,TRNCHR=%EBCDICSP);
      128     9404        %KV_PRMOTPTRN(FRSCHR=%ASCIIEXCPNT,LSTCHR=%ASCIIPRC,
      129     9405          TRNCHR="OTPNXTTBL,EBCDICDBLQOT,OTPNXTTBL,OTPNXTTBL,EBCDICPRC");
      130     9530        %KV_PRMOTPTRN(FRSCHR=%ASCIIAMP,LSTCHR= %ASCIIAST,
      131     9531         TRNCHR="%EBCDICAMP,%EBCDICSNGQOT,%EBCDICLFTPRN,%EBCDICRHTPRN,%EBCDICAST");
      132     9656        %KV_PRMOTPTRN(FRSCHR=%ASCIIPLS,LSTCHR=%ASCIISLS,
      133     9657          TRNCHR="%EBCDICPLS,%EBCDICCOM,%EBCDICHPH,%EBCDICPRD,%EBCDICSLS");
      134     9782        %KV_PRMOTPTRN(FRSCHR=%ASCII0,LSTCHR=ASCII4,
      135     9783             TRNCHR="%EBCDIC0,%EBCDIC1,%EBCDIC2,%EBCDIC3,%EBCDIC4");
      136     9908        %KV_PRMOTPTRN(FRSCHR=%ASCII5,LSTCHR=%ASCII9,
      137     9909             TRNCHR="%EBCDIC5,%EBCDIC6,%EBCDIC7,%EBCDIC8,%EBCDIC9");
      138    10034        %KV_PRMOTPTRN(FRSCHR=%ASCIICLN,LSTCHR=%ASCIIEQL,
      139    10035          TRNCHR="%EBCDICCLN,%EBCDICSEMCLN,%EBCDICLFTARW,%EBCDICEQL");
      140    10153        %KV_PRMOTPTRN(FRSCHR=%ASCIIRHTARW,LSTCHR=%ASCIIAT,
      141    10154          TRNCHR="EBCDICRHTARW,EBCDICQST,OTPNXTTBL");
      142    10265        %KV_PRMOTPTRN(FRSCHR=%ASCIIA,LSTCHR=%ASCIIE,
      143    10266             TRNCHR="%EBCDICA,%EBCDICB,%EBCDICC,%EBCDICD,%EBCDICE");
      144    10391        %KV_PRMOTPTRN(FRSCHR=%ASCIIF,LSTCHR=%ASCIIJ,
      145    10392             TRNCHR="%EBCDICF,%EBCDICG,%EBCDICH,%EBCDICI,%EBCDICJ");
      146    10517        %KV_PRMOTPTRN(FRSCHR=%ASCIIK,LSTCHR=%ASCIIO,
      147    10518             TRNCHR="%EBCDICK,%EBCDICL,%EBCDICM,%EBCDICN,%EBCDICO");
      148    10643        %KV_PRMOTPTRN(FRSCHR=%ASCIIP,LSTCHR=%ASCIIT,
      149    10644             TRNCHR="%EBCDICP,%EBCDICQ,%EBCDICR,%EBCDICS,%EBCDICT");
      150    10769        %KV_PRMOTPTRN(FRSCHR=%ASCIIU,LSTCHR=%ASCIIY,
PL6.E3A0      #001=KZ_RBTXLATE_D File=KZ_RBTXLATE_D.:E05TSI                      WED 07/30/97 03:08 Page:37
      151    10770             TRNCHR="%EBCDICU,%EBCDICV,%EBCDICW,%EBCDICX,%EBCDICY");
      152    10895        %KV_PRMOTPTRN(FRSCHR=%ASCIIZ,TRNCHR=%EBCDICZ);
      153    11008        %KV_PRMOTPTRN(FRSCHR=%ASCIILFTBRK,LSTCHR=%ASCIIUP_ARW,
      154    11009          TRNCHR="OTPNXTTBL,OTPNXTTBL,OTPNXTTBL,EBCDICNOT");
      155    11127        %KV_PRMOTPTRN(FRSCHR=%ASCIIUNDSCR,LSTCHR=%ASCIIGRVACT,
      156    11128          TRNCHR="%EBCDICUNDSCR,%EBCDICGRVACT");
      157    11232        %KV_PRMOTPTRN(FRSCHR=%ASCIILCA,LSTCHR=%ASCIILCE,
      158    11233             TRNCHR="%EBCDICLCA,%EBCDICLCB,%EBCDICLCC,%EBCDICLCD,%EBCDICLCE");
      159    11358        %KV_PRMOTPTRN(FRSCHR=%ASCIILCF,LSTCHR=%ASCIILCJ,
      160    11359             TRNCHR="%EBCDICLCF,%EBCDICLCG,%EBCDICLCH,%EBCDICLCI,%EBCDICLCJ");
      161    11484        %KV_PRMOTPTRN(FRSCHR=%ASCIILCK,LSTCHR=%ASCIILCO,
      162    11485             TRNCHR="%EBCDICLCK,%EBCDICLCL,%EBCDICLCM,%EBCDICLCN,%EBCDICLCO");
      163    11610        %KV_PRMOTPTRN(FRSCHR=%ASCIILCP,LSTCHR=%ASCIILCT,
      164    11611             TRNCHR="%EBCDICLCP,%EBCDICLCQ,%EBCDICLCR,%EBCDICLCS,%EBCDICLCT");
      165    11736        %KV_PRMOTPTRN(FRSCHR=%ASCIILCU,LSTCHR=%ASCIILCY,
      166    11737             TRNCHR="%EBCDICLCU,%EBCDICLCV,%EBCDICLCW,%EBCDICLCX,%EBCDICLCY");
      167    11862        %KV_PRMOTPTRN(FRSCHR=%ASCIILCZ,TRNCHR=%EBCDICLCZ);
      168    11975        %KV_PRMOTPTRN(FRSCHR=%ASCIILFTBRC,LSTCHR=%ASCIIDEL,
      169    11976          TRNCHR="EBCDICLFTBRC,OTPNXTTBL,EBCDICRHTBRC,EBCDICTLD,'07'X");
      170    12101        %KV_PRMOTPTRN(FRSCHR='80'X,LSTCHR='83'X,
      171    12102          TRNCHR="'00'X,'01'X,'02'X,'03'X");
      172    12220        %KV_PRMOTPTRN(FRSCHR='84'X,LSTCHR='8A'X,
      173    12221         TRNCHR="'37'X,'2D'X,'2E'X,'2F'X,KZ_RBTOTPCTRCHR_BGN,KZ_RBTOTPCTRCHR_BGN,KZ_RBTOTPC
             12221        TRCHR_BGN");
      174    12360        %KV_PRMOTPTRN(FRSCHR='8B'X,LSTCHR='8F'X,
      175    12361          TRNCHR="'0B'X,'0C'X,KZ_RBTOTPCTRCHR_BGN,'0E'X,'0F'X");
      176    12486        %KV_PRMOTPTRN(FRSCHR='90'X,LSTCHR='93'X,
      177    12487          TRNCHR="'10'X,'11'X,'12'X,'13'X");
      178    12605        %KV_PRMOTPTRN(FRSCHR='94'X,LSTCHR='9B'X,
      179    12606          TRNCHR="'3C'X,'3D'X,'32'X,'26'X,'18'X,'19'X,'3F'X,'27'X");
      180    12752        %KV_PRMOTPTRN(FRSCHR='9C'X,LSTCHR='9F'X,
      181    12753          TRNCHR="'1C'X,'1D'X,'1E'X,'1F'X");
      182    12871        %KV_PRMOTPTRN(FRSCHR='A0'X,TRNCHR=%EBCDICSP);
      183    12984        %KV_PRMOTPTRN(FRSCHR='A1'X,LSTCHR='A5'X,
      184    12985          TRNCHR="OTPNXTTBL,EBCDICDBLQOT,OTPNXTTBL,OTPNXTTBL,EBCDICPRC");
      185    13110        %KV_PRMOTPTRN(FRSCHR='A6'X,LSTCHR='AA'X,
      186    13111         TRNCHR="%EBCDICAMP,%EBCDICSNGQOT,%EBCDICLFTPRN,%EBCDICRHTPRN,%EBCDICAST");
PL6.E3A0      #001=KZ_RBTXLATE_D File=KZ_RBTXLATE_D.:E05TSI                      WED 07/30/97 03:08 Page:38
      187    13236        %KV_PRMOTPTRN(FRSCHR='AB'X,LSTCHR='AF'X,
      188    13237          TRNCHR="%EBCDICPLS,%EBCDICCOM,%EBCDICHPH,%EBCDICPRD,%EBCDICSLS");
      189    13362        %KV_PRMOTPTRN(FRSCHR='B0'X,LSTCHR='B4'X,
      190    13363             TRNCHR="%EBCDIC0,%EBCDIC1,%EBCDIC2,%EBCDIC3,%EBCDIC4");
      191    13488        %KV_PRMOTPTRN(FRSCHR='B5'X,LSTCHR='B9'X,
      192    13489             TRNCHR="%EBCDIC5,%EBCDIC6,%EBCDIC7,%EBCDIC8,%EBCDIC9");
      193    13614        %KV_PRMOTPTRN(FRSCHR='BA'X,LSTCHR='BD'X,
      194    13615          TRNCHR="%EBCDICCLN,%EBCDICSEMCLN,%EBCDICLFTARW,%EBCDICEQL");
      195    13733        %KV_PRMOTPTRN(FRSCHR='BE'X,LSTCHR='C0'X,
      196    13734          TRNCHR="EBCDICRHTARW,EBCDICQST,OTPNXTTBL");
      197    13845        %KV_PRMOTPTRN(FRSCHR='C1'X,LSTCHR='C5'X,
      198    13846             TRNCHR="%EBCDICA,%EBCDICB,%EBCDICC,%EBCDICD,%EBCDICE");
      199    13971        %KV_PRMOTPTRN(FRSCHR='C6'X,LSTCHR='CA'X,
      200    13972             TRNCHR="%EBCDICF,%EBCDICG,%EBCDICH,%EBCDICI,%EBCDICJ");
      201    14097        %KV_PRMOTPTRN(FRSCHR='CB'X,LSTCHR='CF'X,
      202    14098             TRNCHR="%EBCDICK,%EBCDICL,%EBCDICM,%EBCDICN,%EBCDICO");
      203    14223        %KV_PRMOTPTRN(FRSCHR='D0'X,LSTCHR='D4'X,
      204    14224             TRNCHR="%EBCDICP,%EBCDICQ,%EBCDICR,%EBCDICS,%EBCDICT");
      205    14349        %KV_PRMOTPTRN(FRSCHR='D5'X,LSTCHR='D9'X,
      206    14350             TRNCHR="%EBCDICU,%EBCDICV,%EBCDICW,%EBCDICX,%EBCDICY");
      207    14475        %KV_PRMOTPTRN(FRSCHR='DA'X,TRNCHR=%EBCDICZ);
      208    14588        %KV_PRMOTPTRN(FRSCHR='DB'X,LSTCHR='DE'X,
      209    14589          TRNCHR="OTPNXTTBL,OTPNXTTBL,OTPNXTTBL,EBCDICNOT");
      210    14707        %KV_PRMOTPTRN(FRSCHR='EF'X,LSTCHR='F0'X,
      211    14708          TRNCHR="%EBCDICUNDSCR,%EBCDICGRVACT");
      212    14812        %KV_PRMOTPTRN(FRSCHR='E1'X,LSTCHR='E5'X,
      213    14813             TRNCHR="%EBCDICLCA,%EBCDICLCB,%EBCDICLCC,%EBCDICLCD,%EBCDICLCE");
      214    14938        %KV_PRMOTPTRN(FRSCHR='E6'X,LSTCHR='EA'X,
      215    14939             TRNCHR="%EBCDICLCF,%EBCDICLCG,%EBCDICLCH,%EBCDICLCI,%EBCDICLCJ");
      216    15064        %KV_PRMOTPTRN(FRSCHR='EB'X,LSTCHR='EF'X,
      217    15065             TRNCHR="%EBCDICLCK,%EBCDICLCL,%EBCDICLCM,%EBCDICLCN,%EBCDICLCO");
      218    15190        %KV_PRMOTPTRN(FRSCHR='F0'X,LSTCHR='F4'X,
      219    15191             TRNCHR="%EBCDICLCP,%EBCDICLCQ,%EBCDICLCR,%EBCDICLCS,%EBCDICLCT");
      220    15316        %KV_PRMOTPTRN(FRSCHR='F5'X,LSTCHR='F9'X,
      221    15317             TRNCHR="%EBCDICLCU,%EBCDICLCV,%EBCDICLCW,%EBCDICLCX,%EBCDICLCY");
      222    15442        %KV_PRMOTPTRN(FRSCHR='FA'X,TRNCHR=%EBCDICLCZ);
      223    15555        %KV_PRMOTPTRN(FRSCHR='FB'X,LSTCHR='FF'X,
PL6.E3A0      #001=KZ_RBTXLATE_D File=KZ_RBTXLATE_D.:E05TSI                      WED 07/30/97 03:08 Page:39
      224    15556          TRNCHR="EBCDICLFTBRC,OTPNXTTBL,EBCDICRHTBRC,EBCDICTLD,'07'X",
      225    15557                  LAST=YES);
      226    15682        %EJECT;
PL6.E3A0      #001=KZ_RBTXLATE_D File=KZ_RBTXLATE_D.:E05TSI                      WED 07/30/97 03:08 Page:40
      227    15683
      228    15684        /*    Primary Output Translation table, ASCII->XRX EBCDIC             */
      229    15685
      230    15686
      231    15687        %KV_PRMOTPTRN(NAME=XRX_OTP1,FRSCHR='00'X,LSTCHR='04'X);
      232    15954        %KV_PRMOTPTRN(FRSCHR='05'X,LSTCHR='0A'X,
      233    15955          TRNCHR=
             15955            "'09'X,'06'X,'07'X,KZ_RBTOTPCTRCHR_BGN,KZ_RBTOTPCTRCHR_BGN,KZ_RBTOTPCTRCHR_BGN"
             15955              );
      234    16087        %KV_PRMOTPTRN(FRSCHR='0B'X,LSTCHR='14'X);
      235    16506        %KV_PRMOTPTRN(FRSCHR='0D'X,TRNCHR=KZ_RBTOTPCTRCHR_BGN);
      236    16619        %KV_PRMOTPTRN(FRSCHR='15'X,TRNCHR='0A'X);
      237    16732        %KV_PRMOTPTRN(FRSCHR='16'X,LSTCHR='1F'X);
      238    17151        %KV_PRMOTPTRN(FRSCHR=%ASCIISP,TRNCHR=%EBCDICSP);
      239    17264        %KV_PRMOTPTRN(FRSCHR=%ASCIIEXCPNT,LSTCHR=%ASCIIPRC,
      240    17265          TRNCHR="%EBCDICEXCPNT,%EBCDICDBLQOT,%EBCDICNMB,%EBCDICDLR,%EBCDICPRC");
      241    17390        %KV_PRMOTPTRN(FRSCHR=%ASCIIAMP,LSTCHR= %ASCIIAST,
      242    17391         TRNCHR="%EBCDICAMP,%EBCDICSNGQOT,%EBCDICLFTPRN,%EBCDICRHTPRN,%EBCDICAST");
      243    17516        %KV_PRMOTPTRN(FRSCHR=%ASCIIPLS,LSTCHR=%ASCIISLS,
      244    17517          TRNCHR="%EBCDICPLS,%EBCDICCOM,%EBCDICHPH,%EBCDICPRD,%EBCDICSLS");
      245    17642        %KV_PRMOTPTRN(FRSCHR=%ASCII0,LSTCHR=ASCII4,
      246    17643             TRNCHR="%EBCDIC0,%EBCDIC1,%EBCDIC2,%EBCDIC3,%EBCDIC4");
      247    17768        %KV_PRMOTPTRN(FRSCHR=%ASCII5,LSTCHR=%ASCII9,
      248    17769             TRNCHR="%EBCDIC5,%EBCDIC6,%EBCDIC7,%EBCDIC8,%EBCDIC9");
      249    17894        %KV_PRMOTPTRN(FRSCHR=%ASCIICLN,LSTCHR=%ASCIIEQL,
      250    17895          TRNCHR="%EBCDICCLN,%EBCDICSEMCLN,%EBCDICLFTARW,%EBCDICEQL");
      251    18013        %KV_PRMOTPTRN(FRSCHR=%ASCIIRHTARW,LSTCHR=%ASCIIAT,
      252    18014          TRNCHR="%EBCDICRHTARW,%EBCDICQST,%EBCDICAT");
      253    18125        %KV_PRMOTPTRN(FRSCHR=%ASCIIA,LSTCHR=%ASCIIE,
      254    18126             TRNCHR="%EBCDICA,%EBCDICB,%EBCDICC,%EBCDICD,%EBCDICE");
      255    18251        %KV_PRMOTPTRN(FRSCHR=%ASCIIF,LSTCHR=%ASCIIJ,
      256    18252             TRNCHR="%EBCDICF,%EBCDICG,%EBCDICH,%EBCDICI,%EBCDICJ");
      257    18377        %KV_PRMOTPTRN(FRSCHR=%ASCIIK,LSTCHR=%ASCIIO,
      258    18378             TRNCHR="%EBCDICK,%EBCDICL,%EBCDICM,%EBCDICN,%EBCDICO");
      259    18503        %KV_PRMOTPTRN(FRSCHR=%ASCIIP,LSTCHR=%ASCIIT,
      260    18504             TRNCHR="%EBCDICP,%EBCDICQ,%EBCDICR,%EBCDICS,%EBCDICT");
      261    18629        %KV_PRMOTPTRN(FRSCHR=%ASCIIU,LSTCHR=%ASCIIY,
PL6.E3A0      #001=KZ_RBTXLATE_D File=KZ_RBTXLATE_D.:E05TSI                      WED 07/30/97 03:08 Page:41
      262    18630             TRNCHR="%EBCDICU,%EBCDICV,%EBCDICW,%EBCDICX,%EBCDICY");
      263    18755        %KV_PRMOTPTRN(FRSCHR=%ASCIIZ,TRNCHR=%EBCDICZ);
      264    18868        %KV_PRMOTPTRN(FRSCHR=%ASCIILFTBRK,LSTCHR=%ASCIIGRVACT,
      265    18869          TRNCHR="'B4'X,'B1'X,'B5'X,'6A'X,'6D'X,'4A'X");
      266    19001        %KV_PRMOTPTRN(FRSCHR=%ASCIILCA,LSTCHR=%ASCIILCE,
      267    19002             TRNCHR="%EBCDICLCA,%EBCDICLCB,%EBCDICLCC,%EBCDICLCD,%EBCDICLCE");
      268    19127        %KV_PRMOTPTRN(FRSCHR=%ASCIILCF,LSTCHR=%ASCIILCJ,
      269    19128             TRNCHR="%EBCDICLCF,%EBCDICLCG,%EBCDICLCH,%EBCDICLCI,%EBCDICLCJ");
      270    19253        %KV_PRMOTPTRN(FRSCHR=%ASCIILCK,LSTCHR=%ASCIILCO,
      271    19254             TRNCHR="%EBCDICLCK,%EBCDICLCL,%EBCDICLCM,%EBCDICLCN,%EBCDICLCO");
      272    19379        %KV_PRMOTPTRN(FRSCHR=%ASCIILCP,LSTCHR=%ASCIILCT,
      273    19380             TRNCHR="%EBCDICLCP,%EBCDICLCQ,%EBCDICLCR,%EBCDICLCS,%EBCDICLCT");
      274    19505        %KV_PRMOTPTRN(FRSCHR=%ASCIILCU,LSTCHR=%ASCIILCY,
      275    19506             TRNCHR="%EBCDICLCU,%EBCDICLCV,%EBCDICLCW,%EBCDICLCX,%EBCDICLCY");
      276    19631        %KV_PRMOTPTRN(FRSCHR=%ASCIILCZ,TRNCHR=%EBCDICLCZ);
      277    19744        %KV_PRMOTPTRN(FRSCHR=%ASCIILFTBRC,LSTCHR=%ASCIIDEL,
      278    19745          TRNCHR="'B2'X,'4F'X,'B3'X,'5F'X,'FF'X");
      279    19870        %KV_PRMOTPTRN(FRSCHR='80'X,LSTCHR='FF'X,TRNCHR='1A'X,LAST=YES);
      280    24319
      281    24320        %EJECT;
PL6.E3A0      #001=KZ_RBTXLATE_D File=KZ_RBTXLATE_D.:E05TSI                      WED 07/30/97 03:08 Page:42
      282    24321
      283    24322        /*    Primary Output Translation table, ASCII->UPPER CASE EBCDIC             */
      284    24323
      285    24324
      286    24325        %KV_PRMOTPTRN(NAME=UPR_OTP1,FRSCHR='00'X,LSTCHR='03'X);
      287    24558        %KV_PRMOTPTRN(FRSCHR='04'X,LSTCHR='0A'X,
      288    24559         TRNCHR="'37'X,'2D'X,'2E'X,'2F'X,KZ_RBTOTPCTRCHR_BGN,KZ_RBTOTPCTRCHR_BGN,KZ_RBTOTPC
             24559        TRCHR_BGN");
      289    24698        %KV_PRMOTPTRN(FRSCHR='0B'X,LSTCHR='13'X);
      290    25083        %KV_PRMOTPTRN(FRSCHR='0D'X,TRNCHR=KZ_RBTOTPCTRCHR_BGN);
      291    25196        %KV_PRMOTPTRN(FRSCHR='14'X,LSTCHR='1B'X,
      292    25197          TRNCHR="'3C'X,'3D'X,'32'X,'26'X,'18'X,'19'X,'3F'X,'27'X");
      293    25343
      294    25344        %KV_PRMOTPTRN(FRSCHR='1C'X,LSTCHR='1F'X);
      295    25559        %KV_PRMOTPTRN(FRSCHR=%ASCIISP,TRNCHR=%EBCDICSP);
      296    25672
      297    25673        %KV_PRMOTPTRN(FRSCHR=%ASCIIEXCPNT,LSTCHR=%ASCIIPRC,
      298    25674          TRNCHR="%EBCDICEXCPNT,%EBCDICDBLQOT,%EBCDICNMB,%EBCDICDLR,%EBCDICPRC");
      299    25799        %KV_PRMOTPTRN(FRSCHR=%ASCIIAMP,LSTCHR= %ASCIIAST,
      300    25800         TRNCHR="%EBCDICAMP,%EBCDICSNGQOT,%EBCDICLFTPRN,%EBCDICRHTPRN,%EBCDICAST");
      301    25925        %KV_PRMOTPTRN(FRSCHR=%ASCIIPLS,LSTCHR=%ASCIISLS,
      302    25926          TRNCHR="%EBCDICPLS,%EBCDICCOM,%EBCDICHPH,%EBCDICPRD,%EBCDICSLS");
      303    26051        %KV_PRMOTPTRN(FRSCHR=%ASCII0,LSTCHR=ASCII4,
      304    26052             TRNCHR="%EBCDIC0,%EBCDIC1,%EBCDIC2,%EBCDIC3,%EBCDIC4");
      305    26177        %KV_PRMOTPTRN(FRSCHR=%ASCII5,LSTCHR=%ASCII9,
      306    26178             TRNCHR="%EBCDIC5,%EBCDIC6,%EBCDIC7,%EBCDIC8,%EBCDIC9");
      307    26303        %KV_PRMOTPTRN(FRSCHR=%ASCIICLN,LSTCHR=%ASCIIEQL,
      308    26304          TRNCHR="%EBCDICCLN,%EBCDICSEMCLN,%EBCDICLFTARW,%EBCDICEQL");
      309    26422        %KV_PRMOTPTRN(FRSCHR=%ASCIIRHTARW,LSTCHR=%ASCIIAT,
      310    26423          TRNCHR="%EBCDICRHTARW,%EBCDICQST,%EBCDICAT");
      311    26534        %KV_PRMOTPTRN(FRSCHR=%ASCIIA,LSTCHR=%ASCIIE,
      312    26535             TRNCHR="%EBCDICA,%EBCDICB,%EBCDICC,%EBCDICD,%EBCDICE");
      313    26660        %KV_PRMOTPTRN(FRSCHR=%ASCIIF,LSTCHR=%ASCIIJ,
      314    26661             TRNCHR="%EBCDICF,%EBCDICG,%EBCDICH,%EBCDICI,%EBCDICJ");
      315    26786        %KV_PRMOTPTRN(FRSCHR=%ASCIIK,LSTCHR=%ASCIIO,
      316    26787             TRNCHR="%EBCDICK,%EBCDICL,%EBCDICM,%EBCDICN,%EBCDICO");
      317    26912        %KV_PRMOTPTRN(FRSCHR=%ASCIIP,LSTCHR=%ASCIIT,
PL6.E3A0      #001=KZ_RBTXLATE_D File=KZ_RBTXLATE_D.:E05TSI                      WED 07/30/97 03:08 Page:43
      318    26913             TRNCHR="%EBCDICP,%EBCDICQ,%EBCDICR,%EBCDICS,%EBCDICT");
      319    27038        %KV_PRMOTPTRN(FRSCHR=%ASCIIU,LSTCHR=%ASCIIY,
      320    27039             TRNCHR="%EBCDICU,%EBCDICV,%EBCDICW,%EBCDICX,%EBCDICY");
      321    27164        %KV_PRMOTPTRN(FRSCHR=%ASCIIZ,TRNCHR=%EBCDICZ);
      322    27277        %KV_PRMOTPTRN(FRSCHR=%ASCIILFTBRK,LSTCHR=%ASCIIUP_ARW,
      323    27278          TRNCHR="%EBCDICCNT,%EBCDICBCKSLS,%EBCDICSLDVRTLIN,%EBCDICNOT");
      324    27396        %KV_PRMOTPTRN(FRSCHR=%ASCIIUNDSCR,LSTCHR=%ASCIIGRVACT,
      325    27397          TRNCHR="%EBCDICUNDSCR,%EBCDICAT");
      326    27501        %KV_PRMOTPTRN(FRSCHR=%ASCIILCA,LSTCHR=%ASCIILCE,
      327    27502             TRNCHR="%EBCDICA,%EBCDICB,%EBCDICC,%EBCDICD,%EBCDICE");
      328    27627        %KV_PRMOTPTRN(FRSCHR=%ASCIILCF,LSTCHR=%ASCIILCJ,
      329    27628             TRNCHR="%EBCDICF,%EBCDICG,%EBCDICH,%EBCDICI,%EBCDICJ");
      330    27753        %KV_PRMOTPTRN(FRSCHR=%ASCIILCK,LSTCHR=%ASCIILCO,
      331    27754             TRNCHR="%EBCDICK,%EBCDICL,%EBCDICM,%EBCDICN,%EBCDICO");
      332    27879        %KV_PRMOTPTRN(FRSCHR=%ASCIILCP,LSTCHR=%ASCIILCT,
      333    27880             TRNCHR="%EBCDICP,%EBCDICQ,%EBCDICR,%EBCDICS,%EBCDICT");
      334    28005        %KV_PRMOTPTRN(FRSCHR=%ASCIILCU,LSTCHR=%ASCIILCY,
      335    28006             TRNCHR="%EBCDICU,%EBCDICV,%EBCDICW,%EBCDICX,%EBCDICY");
      336    28131        %KV_PRMOTPTRN(FRSCHR=%ASCIILCZ,TRNCHR=%EBCDICZ);
      337    28244        %KV_PRMOTPTRN(FRSCHR=%ASCIILFTBRC,LSTCHR=%ASCIIDEL,
      338    28245          TRNCHR="%EBCDICCNT,%EBCDICBCKSLS,%EBCDICSLDVRTLIN,%EBCDICNOT,%EBCDICUNDSCR");
      339    28370        %KV_PRMOTPTRN(FRSCHR='80'X,LSTCHR='88'X,
      340    28371          TRNCHR="'20'X,'21'X,'22'X,'23'X,'24'X,'15'X,'06'X,'17'X,'28'X");
      341    28524        %KV_PRMOTPTRN(FRSCHR='89'X,LSTCHR='8F'X,
      342    28525          TRNCHR="'29'X,'2A'X,'2B'X,'2C'X,'09'X,'0A'X,'1B'X");
      343    28664        %KV_PRMOTPTRN(FRSCHR='90'X,LSTCHR='98'X,
      344    28665          TRNCHR="'30'X,'31'X,'1A'X,'33'X,'34'X,'35'X,'36'X,'08'X,'38'X");
      345    28818        %KV_PRMOTPTRN(FRSCHR='99'X,LSTCHR='9F'X,
      346    28819          TRNCHR="'39'X,'3A'X,'3B'X,'04'X,'14'X,'3E'X,'E1'X");
      347    28958        %KV_PRMOTPTRN(FRSCHR='A0'X,LSTCHR='A8'X,
      348    28959          TRNCHR="'41'X,'42'X,'43'X,'44'X,'45'X,'46'X,'47'X,'48'X,'49'X");
      349    29112        %KV_PRMOTPTRN(FRSCHR='A9'X,LSTCHR='AF'X,
      350    29113          TRNCHR="'51'X,'52'X,'53'X,'54'X,'55'X,'56'X,'57'X");
      351    29252        %KV_PRMOTPTRN(FRSCHR='B0'X,LSTCHR='B8'X,
      352    29253          TRNCHR="'58'X,'59'X,'62'X,'63'X,'64'X,'65'X,'66'X,'67'X,'68'X");
      353    29406        %KV_PRMOTPTRN(FRSCHR='B9'X,LSTCHR='BF'X,
      354    29407          TRNCHR="'69'X,'70'X,'71'X,'72'X,'73'X,'74'X,'75'X");
PL6.E3A0      #001=KZ_RBTXLATE_D File=KZ_RBTXLATE_D.:E05TSI                      WED 07/30/97 03:08 Page:44
      355    29546        %KV_PRMOTPTRN(FRSCHR='C0'X,LSTCHR='C8'X,
      356    29547          TRNCHR="'76'X,'77'X,'78'X,'80'X,'8A'X,'8B'X,'8C'X,'8D'X,'8E'X");
      357    29700        %KV_PRMOTPTRN(FRSCHR='C9'X,LSTCHR='CF'X,
      358    29701          TRNCHR="'8F'X,'90'X,'9A'X,'9B'X,'9C'X,'9D'X,'9E'X");
      359    29840        %KV_PRMOTPTRN(FRSCHR='D0'X,LSTCHR='D8'X,
      360    29841          TRNCHR="'9F'X,'A0'X,'AA'X,'AB'X,'AC'X,'AD'X,'AE'X,'AF'X,'B0'X");
      361    29994        %KV_PRMOTPTRN(FRSCHR='D9'X,LSTCHR='DF'X,
      362    29995          TRNCHR="'B1'X,'B2'X,'B3'X,'B4'X,'B5'X,'B6'X,'B7'X");
      363    30134        %KV_PRMOTPTRN(FRSCHR='E0'X,LSTCHR='E8'X,
      364    30135          TRNCHR="'B8'X,'B9'X,'BA'X,'BB'X,'BC'X,'BD'X,'BE'X,'BF'X,'CA'X");
      365    30288        %KV_PRMOTPTRN(FRSCHR='E9'X,LSTCHR='EF'X,
      366    30289          TRNCHR="'CB'X,'CC'X,'CD'X,'CE'X,'CF'X,'DA'X,'DB'X");
      367    30428        %KV_PRMOTPTRN(FRSCHR='F0'X,LSTCHR='F8'X,
      368    30429          TRNCHR="'DC'X,'DD'X,'DE'X,'DF'X,'EA'X,'EB'X,'EC'X,'ED'X,'EE'X");
      369    30582        %KV_PRMOTPTRN(FRSCHR='F9'X,LSTCHR='FF'X,
      370    30583          TRNCHR="'EF'X,'FA'X,'FB'X,'FC'X,'FD'X,'FE'X,'FF'X",LAST=YES);
      371    30722
      372    30723
      373    30724
      374    30725
      375    30726        %EJECT;
PL6.E3A0      #001=KZ_RBTXLATE_D File=KZ_RBTXLATE_D.:E05TSI                      WED 07/30/97 03:08 Page:45
      376    30727
      377    30728        /*    Secondary Output Translation Tables                          */
      378    30729
      379    30730
      380    30731
      381    30732        %KV_SCNOTPTRN(NAME=BIT_NOPOSOTP_2);
      382    30841        %KV_SCNOTPTRN(INPCHR='0989'X,TYPE=OTPFNC_HT);
      383    30975        %KV_SCNOTPTRN(INPCHR='080A0D888A8D1F'X,
      384    30976          TRNCHR='08150D08150D1F'X);
      385    31205        %KV_SCNOTPTRN(INPCHR='!#$@',
      386    31206           TRNCHR="EBCDICEXCPNT,EBCDICNMB,EBCDICDLR,EBCDICAT");
      387    31365        %KV_SCNOTPTRN(INPCHR='[\]|',
      388    31366           TRNCHR="'AD'X,EBCDICBCKSLS,'BD'X,EBCDICSLDVRTLIN");
      389    31525        %KV_SCNOTPTRN(INPCHR='A1A3A4C0'X,
      390    31526           TRNCHR="EBCDICEXCPNT,EBCDICNMB,EBCDICDLR,EBCDICAT");
      391    31713        %KV_SCNOTPTRN(INPCHR='DBDCDDFC'X,
      392    31714           TRNCHR="'AD'X,EBCDICBCKSLS,'BD'X,EBCDICSLDVRTLIN",LAST=YES);
      393    31901
      394    31902        %KV_SCNOTPTRN(NAME=EBCE_NOPOSOTP_2);
      395    32011        %KV_SCNOTPTRN(INPCHR='0989'X,TYPE=OTPFNC_HT);
      396    32145        %KV_SCNOTPTRN(INPCHR='080A0D888A8D1F'X,
      397    32146          TRNCHR='08150D08150D1F'X);
      398    32375        %KV_SCNOTPTRN(INPCHR='!#$@',
      399    32376           TRNCHR="EBCDICSLDVRTLIN,EBCDICCNT,EBCDICEXCPNT,EBCDICBCKSLS");
      400    32535        %KV_SCNOTPTRN(INPCHR='[\]|',
      401    32536           TRNCHR="EBCDICNMB,EBCDICAT,EBCDICDLR,EBCDICVRTLIN");
      402    32695        %KV_SCNOTPTRN(INPCHR='A1A3A4C0'X,
      403    32696           TRNCHR="EBCDICSLDVRTLIN,EBCDICCNT,EBCDICEXCPNT,EBCDICBCKSLS");
      404    32883        %KV_SCNOTPTRN(INPCHR='DBDCDDFC'X,
      405    32884           TRNCHR="EBCDICNMB,EBCDICAT,EBCDICDLR,EBCDICVRTLIN",LAST=YES);
      406    33071
      407    33072
      408    33073        %KV_SCNOTPTRN(NAME=XRX_NOPOSOTP_2);
      409    33182        %KV_SCNOTPTRN(INPCHR='0989'X,TYPE=OTPFNC_HT);
      410    33316        %KV_SCNOTPTRN(INPCHR='080A0D888A8D1F'X,
      411    33317          TRNCHR='08150D08150D1F'X,LAST=YES);
      412    33546
PL6.E3A0      #001=KZ_RBTXLATE_D File=KZ_RBTXLATE_D.:E05TSI                      WED 07/30/97 03:08 Page:46
      413    33547        %KV_SCNOTPTRN(NAME=HIS_NOPOSOTP_2);
      414    33656        %KV_SCNOTPTRN(INPCHR='0989'X,TYPE=OTPFNC_HT);
      415    33790        %KV_SCNOTPTRN(INPCHR='080A0D888A8D1F'X,
      416    33791          TRNCHR='16250D16250D1F'X);
      417    34020        %KV_SCNOTPTRN(INPCHR='!#$@',
      418    34021           TRNCHR="EBCDICSLDVRTLIN,EBCDICNMB,EBCDICDLR,EBCDICAT");
      419    34180        %KV_SCNOTPTRN(INPCHR='[\]|',
      420    34181           TRNCHR="EBCDICCNT,EBCDICBCKSLS,EBCDICEXCPNT,EBCDICVRTLIN");
      421    34340        %KV_SCNOTPTRN(INPCHR='A1A3A4C0'X,
      422    34341           TRNCHR="EBCDICSLDVRTLIN,EBCDICNMB,EBCDICDLR,EBCDICAT");
      423    34528        %KV_SCNOTPTRN(INPCHR='DBDCDDFC'X,
      424    34529           TRNCHR="EBCDICCNT,EBCDICBCKSLS,EBCDICEXCPNT,EBCDICVRTLIN",LAST=YES);
      425    34716
      426    34717
      427    34718        /*     Primary input translate table,  EBCDIC -> %ASCII           */
      428    34719
      429    34720        /*     Set 00-1F one-one                                           */
      430    34721
      431    34722        %KV_PRMINPTRN(NAME=EBC_INP1,FRSCHR='00'X,LSTCHR='1F'X);
      432    44636
      433    44637
      434    44638        %KV_PRMINPTRN(FRSCHR='04'X,LSTCHR='0A'X,
      435    44639          TRNCHR="'9C'X,'09'X,'86'X,'7F'X,'97'X,'8D'X,'8E'X");
      436    44821        %KV_PRMINPTRN(FRSCHR='14'X,LSTCHR='17'X,
      437    44822          TRNCHR="'9D'X,'85'X,'08'X,'87'X");
      438    44983        %KV_PRMINPTRN(FRSCHR='1A'X,LSTCHR='1B'X,
      439    44984          TRNCHR="'92'X,'8F'X");
      440    45131        %KV_PRMINPTRN(FRSCHR='20'X,LSTCHR='27'X,
      441    45132          TRNCHR="'80'X,'81'X,'82'X,'83'X,'84'X,'0A'X,'17'X,'1B'X");
      442    45321        %KV_PRMINPTRN(FRSCHR='28'X,LSTCHR='2F'X,
      443    45322          TRNCHR="'88'X,'89'X,'8A'X,'8B'X,'8C'X,'05'X,'06'X,'07'X");
      444    45511        %KV_PRMINPTRN(FRSCHR='30'X,LSTCHR='38'X,
      445    45512          TRNCHR="'90'X,'91'X,'16'X,'93'X,'94'X,'95'X,'96'X,'04'X,'98'X");
      446    45708        %KV_PRMINPTRN(FRSCHR='39'X,LSTCHR='3F'X,
      447    45709          TRNCHR="'99'X,'9A'X,'9B'X,'14'X,'15'X,'9E'X,'1A'X");
      448    45891
      449    45892
PL6.E3A0      #001=KZ_RBTXLATE_D File=KZ_RBTXLATE_D.:E05TSI                      WED 07/30/97 03:08 Page:47
      450    45893        %KV_PRMINPTRN(FRSCHR=%EBCDICSP,TRNCHR=%ASCIISP);
      451    46049        %KV_PRMINPTRN(FRSCHR='41'X,LSTCHR='49'X,
      452    46050          TRNCHR="'A0'X,'A1'X,'A2'X,'A3'X,'A4'X,'A5'X,'A6'X,'A7'X,'A8'X");
      453    46246        %KV_PRMINPTRN(FRSCHR=%EBCDICCNT,TRNCHR=%ASCIILFTBRK);
      454    46402        %KV_PRMINPTRN(FRSCHR=%EBCDICPRD,TRNCHR=%ASCIIPRD);
      455    46558        %KV_PRMINPTRN(FRSCHR=%EBCDICLFTARW,TRNCHR=%ASCIILFTARW);
      456    46714        %KV_PRMINPTRN(FRSCHR=%EBCDICLFTPRN,TRNCHR=%ASCIILFTPRN);
      457    46870        %KV_PRMINPTRN(FRSCHR=%EBCDICPLS,TRNCHR=%ASCIIPLS);
      458    47026        %KV_PRMINPTRN(FRSCHR=%EBCDICSLDVRTLIN,TRNCHR=%ASCIIRHTBRK);
      459    47182        %KV_PRMINPTRN(FRSCHR=%EBCDICAMP,TRNCHR=%ASCIIAMP);
      460    47338        %KV_PRMINPTRN(FRSCHR='51'X,LSTCHR='59'X,
      461    47339          TRNCHR="'A9'X,'AA'X,'AB'X,'AC'X,'AD'X,'AE'X,'AF'X,'B0'X,'B1'X");
      462    47535        %KV_PRMINPTRN(FRSCHR=%EBCDICEXCPNT,TRNCHR=%ASCIIEXCPNT);
      463    47691        %KV_PRMINPTRN(FRSCHR=%EBCDICDLR,TRNCHR=%ASCIIDLR);
      464    47847        %KV_PRMINPTRN(FRSCHR=%EBCDICAST,TRNCHR=%ASCIIAST);
      465    48003        %KV_PRMINPTRN(FRSCHR=%EBCDICRHTPRN,TRNCHR=%ASCIIRHTPRN);
      466    48159        %KV_PRMINPTRN(FRSCHR=%EBCDICSEMCLN,TRNCHR=%ASCIISEMCLN);
      467    48315        %KV_PRMINPTRN(FRSCHR=%EBCDICNOT,TRNCHR=%ASCIIUP_ARW);
      468    48471        %KV_PRMINPTRN(FRSCHR=%EBCDICHPH,TRNCHR=ASCIIHPH);
      469    48627        %KV_PRMINPTRN(FRSCHR=%EBCDICSLS,TRNCHR=%ASCIISLS);
      470    48783        %KV_PRMINPTRN(FRSCHR='62'X,LSTCHR='69'X,
      471    48784          TRNCHR="'B2'X,'B3'X,'B4'X,'B5'X,'B6'X,'B7'X,'B8'X,'B9'X");
      472    48973        %KV_PRMINPTRN(FRSCHR=%EBCDICVRTLIN,TRNCHR=%ASCIIVRTLIN);
      473    49129        %KV_PRMINPTRN(FRSCHR=%EBCDICCOM,LSTCHR=%EBCDICQST,
      474    49130          TRNCHR="%ASCIICOM,%ASCIIPRC,%ASCIIUNDSCR,%ASCIIRHTARW,%ASCIIQST");
      475    49298        %KV_PRMINPTRN(FRSCHR='70'X,LSTCHR='78'X,
      476    49299          TRNCHR="'BA'X,'BB'X,'BC'X,'BD'X,'BE'X,'BF'X,'C0'X,'C1'X,'C2'X");
      477    49495        %KV_PRMINPTRN(FRSCHR=%EBCDICGRVACT,TRNCHR=%ASCIIGRVACT);
      478    49651        %KV_PRMINPTRN(FRSCHR=%EBCDICCLN,LSTCHR=%EBCDICDBLQOT,
      479    49652          TRNCHR="%ASCIICLN,%ASCIINMB,%ASCIIAT,%ASCIISNGQOT,%ASCIIEQL,%ASCIIDBLQOT");
      480    49827        %KV_PRMINPTRN(FRSCHR='80'X,TRNCHR='C3'X);
      481    49983        %KV_PRMINPTRN(FRSCHR=%EBCDICLCA,LSTCHR=%EBCDICLCE,
      482    49984          TRNCHR="%ASCIILCA,%ASCIILCB,%ASCIILCC,%ASCIILCD,%ASCIILCE");
      483    50152        %KV_PRMINPTRN(FRSCHR=%EBCDICLCF,LSTCHR=%EBCDICLCI,
      484    50153          TRNCHR="%ASCIILCF,%ASCIILCG,%ASCIILCH,%ASCIILCI");
      485    50314        %KV_PRMINPTRN(FRSCHR='8A'X,LSTCHR='8F'X,
      486    50315          TRNCHR="'C4'X,'C5'X,'C6'X,'C7'X,'C8'X,'C9'X");
PL6.E3A0      #001=KZ_RBTXLATE_D File=KZ_RBTXLATE_D.:E05TSI                      WED 07/30/97 03:08 Page:48
      487    50490        %KV_PRMINPTRN(FRSCHR='90'X,TRNCHR='CA'X);
      488    50646        %KV_PRMINPTRN(FRSCHR=%EBCDICLCJ,LSTCHR=%EBCDICLCN,
      489    50647          TRNCHR="%ASCIILCJ,%ASCIILCK,%ASCIILCL,%ASCIILCM,%ASCIILCN");
      490    50815        %KV_PRMINPTRN(FRSCHR=%EBCDICLCO,LSTCHR=%EBCDICLCR,
      491    50816          TRNCHR="%ASCIILCO,%ASCIILCP,%ASCIILCQ,%ASCIILCR");
      492    50977        %KV_PRMINPTRN(FRSCHR='9A'X,LSTCHR='9F'X,
      493    50978          TRNCHR="'CB'X,'CC'X,'CD'X,'CE'X,'CF'X,'D0'X");
      494    51153        %KV_PRMINPTRN(FRSCHR='A0'X,TRNCHR='D1'X);
      495    51309        %KV_PRMINPTRN(FRSCHR=%EBCDICTLD,TRNCHR=%ASCIITLD);
      496    51465        %KV_PRMINPTRN(FRSCHR=%EBCDICLCS,LSTCHR=%EBCDICLCV,
      497    51466          TRNCHR="%ASCIILCS,%ASCIILCT,%ASCIILCU,%ASCIILCV");
      498    51627        %KV_PRMINPTRN(FRSCHR=%EBCDICLCW,LSTCHR=%EBCDICLCZ,
      499    51628          TRNCHR="%ASCIILCW,%ASCIILCX,%ASCIILCY,%ASCIILCZ");
      500    51789        %KV_PRMINPTRN(FRSCHR='AA'X,LSTCHR='AF'X,
      501    51790          TRNCHR="'D2'X,'D3'X,'D4'X,'D5'X,'D6'X,'D7'X");
      502    51965        %KV_PRMINPTRN(FRSCHR='B0'X,LSTCHR='B7'X,
      503    51966          TRNCHR="'D8'X,'D9'X,'DA'X,'DB'X,'DC'X,'DD'X,'DE'X,'DF'X");
      504    52155        %KV_PRMINPTRN(FRSCHR='B8'X,LSTCHR='BF'X,
      505    52156           TRNCHR="'E0'X,'E1'X,'E2'X,'E3'X,'E4'X,'E5'X,'E6'X,'E7'X");
      506    52345        %KV_PRMINPTRN(FRSCHR=%EBCDICLFTBRC,LSTCHR=%EBCDICD,
      507    52346          TRNCHR="%ASCIILFTBRC,%ASCIIA,%ASCIIB,%ASCIIC,%ASCIID");
      508    52514        %KV_PRMINPTRN(FRSCHR=%EBCDICE,LSTCHR=%EBCDICI,
      509    52515          TRNCHR="%ASCIIE,%ASCIIF,%ASCIIG,%ASCIIH,%ASCIII");
      510    52683        %KV_PRMINPTRN(FRSCHR='CA'X,LSTCHR='CF'X,
      511    52684          TRNCHR="'E8'X,'E9'X,'EA'X,'EB'X,'EC'X,'ED'X");
      512    52859        %KV_PRMINPTRN(FRSCHR=%EBCDICRHTBRC,LSTCHR=%EBCDICM,
      513    52860          TRNCHR="%ASCIIRHTBRC,%ASCIIJ,%ASCIIK,%ASCIIL,%ASCIIM");
      514    53028        %KV_PRMINPTRN(FRSCHR=%EBCDICN,LSTCHR=%EBCDICR,
      515    53029          TRNCHR="%ASCIIN,%ASCIIO,%ASCIIP,%ASCIIQ,%ASCIIR");
      516    53197        %KV_PRMINPTRN(FRSCHR='DA'X,LSTCHR='DF'X,
      517    53198          TRNCHR="'EE'X,'EF'X,'F0'X,'F1'X,'F2'X,'F3'X");
      518    53373        %KV_PRMINPTRN(FRSCHR='E0'X,LSTCHR='E1'X,TRNCHR="'5C'X,'9F'X");
      519    53520        %KV_PRMINPTRN(FRSCHR=%EBCDICS,LSTCHR=%EBCDICW,
      520    53521          TRNCHR="%ASCIIS,%ASCIIT,%ASCIIU,%ASCIIV,%ASCIIW");
      521    53689        %KV_PRMINPTRN(FRSCHR=%EBCDICX,LSTCHR=%EBCDICZ,
      522    53690          TRNCHR="%ASCIIX,%ASCIIY,%ASCIIZ");
      523    53844        %KV_PRMINPTRN(FRSCHR='EA'X,LSTCHR='EF'X,
PL6.E3A0      #001=KZ_RBTXLATE_D File=KZ_RBTXLATE_D.:E05TSI                      WED 07/30/97 03:08 Page:49
      524    53845          TRNCHR="'F4'X,'F5'X,'F6'X,'F7'X,'F8'X,'F9'X");
      525    54020        %KV_PRMINPTRN(FRSCHR=%EBCDIC0,LSTCHR=%EBCDIC4,
      526    54021          TRNCHR="%ASCII0,%ASCII1,%ASCII2,%ASCII3,%ASCII4");
      527    54189        %KV_PRMINPTRN(FRSCHR=%EBCDIC5,LSTCHR=%EBCDIC9,
      528    54190          TRNCHR="%ASCII5,%ASCII6,%ASCII7,%ASCII8,%ASCII9");
      529    54358        %KV_PRMINPTRN(FRSCHR='FA'X,LSTCHR='FF'X,
      530    54359          TRNCHR="'FA'X,'FB'X,'FC'X,'FD'X,'FE'X,'FF'X",LAST=YES);
      531    54534
      532    54535
      533    54536        /* Primary input translate table, BITNET EBCDIC -> ASCII      */
      534    54537
      535    54538        /* Just modify a few characters in EBC'S tables, since they're both simple */
      536    54539
      537    54540    1   DCL 1 BIT_INP1 CONSTANT,
      538    54541        %KV_PRMINPTRN (FRSCHR='AD'X, TRNCHR='[');
      539    54690        %KV_PRMINPTRN (FRSCHR='BD'X, TRNCHR=']');
      540    54839        %KV_PRMINPTRN (FRSCHR=EBCDICSLDVRTLIN, TRNCHR='|');
      541    54988        %KV_PRMINPTRN (FRSCHR='FA'X, TRNCHR='|');
      542    55137        %KV_PRMINPTRN (FRSCHR='BF'X, TRNCHR='-');
      543    55286        %KV_PRMINPTRN (FRSCHR='8B'X, TRNCHR='{');
      544    55435        %KV_PRMINPTRN (FRSCHR='9B'X, TRNCHR='}');
      545    55584        %KV_PRMINPTRN (FRSCHR='8F'X, TRNCHR="';'",LAST=YES);
      546    55733
      547    55734
      548    55735        /* Primary input translate table, EUROPEAN EBCDIC -> ASCII      */
      549    55736
      550    55737        /* Same deal */
      551    55738
      552    55739    1   DCL 1 EBCE_INP1 CONSTANT,
      553    55740        %KV_PRMINPTRN (FRSCHR=EBCDICNMB, TRNCHR='[');
      554    55889        %KV_PRMINPTRN (FRSCHR=EBCDICDLR, TRNCHR=']');
      555    56038        %KV_PRMINPTRN (FRSCHR=EBCDICSLDVRTLIN, TRNCHR='!');
      556    56187        %KV_PRMINPTRN (FRSCHR=EBCDICAT, TRNCHR='\');
      557    56336        %KV_PRMINPTRN (FRSCHR=EBCDICBCKSLS, TRNCHR='@');
      558    56485        %KV_PRMINPTRN (FRSCHR=EBCDICEXCPNT, TRNCHR='$');
      559    56634        %KV_PRMINPTRN (FRSCHR=EBCDICCNT, TRNCHR='#',LAST=YES);
      560    56783
PL6.E3A0      #001=KZ_RBTXLATE_D File=KZ_RBTXLATE_D.:E05TSI                      WED 07/30/97 03:08 Page:50
      561    56784
      562    56785
      563    56786
      564    56787        /*     Primary input translate table, XRX EBCDIC -> %ASCII
      565    56788
      566    56789               Set 00-1F one-one                                           */
      567    56790
      568    56791        %KV_PRMINPTRN(NAME=XRX_INP1,FRSCHR='00'X,LSTCHR='1F'X);
      569    66705
      570    66706        %KV_PRMINPTRN(FRSCHR='05'X,TRNCHR='09'X);
      571    66862        %KV_PRMINPTRN(FRSCHR='09'X,TRNCHR='05'X);
      572    67018        %KV_PRMINPTRN(FRSCHR='0A'X,TRNCHR='15'X);
      573    67174        %KV_PRMINPTRN(FRSCHR='15'X,TRNCHR='0A'X);
      574    67330        %KV_PRMINPTRN(FRSCHR='20'X,LSTCHR='2F'X,TRNCHR='1A'X);
      575    68014        %KV_PRMINPTRN(FRSCHR='30'X,LSTCHR='3F'X,TRNCHR='1A'X);
      576    68698        %KV_PRMINPTRN(FRSCHR=%EBCDICSP,TRNCHR=%ASCIISP);
      577    68854        %KV_PRMINPTRN(FRSCHR='41'X,LSTCHR='49'X,TRNCHR='1A'X);
      578    69300        %KV_PRMINPTRN(FRSCHR=%EBCDICCNT,TRNCHR='60'X);
      579    69456        %KV_PRMINPTRN(FRSCHR=%EBCDICPRD,TRNCHR=%ASCIIPRD);
      580    69612        %KV_PRMINPTRN(FRSCHR=%EBCDICLFTARW,TRNCHR=%ASCIILFTARW);
      581    69768        %KV_PRMINPTRN(FRSCHR=%EBCDICLFTPRN,TRNCHR=%ASCIILFTPRN);
      582    69924        %KV_PRMINPTRN(FRSCHR=%EBCDICPLS,TRNCHR=%ASCIIPLS);
      583    70080        %KV_PRMINPTRN(FRSCHR=%EBCDICSLDVRTLIN,TRNCHR='7C'X);
      584    70236        %KV_PRMINPTRN(FRSCHR=%EBCDICAMP,TRNCHR=%ASCIIAMP);
      585    70392        %KV_PRMINPTRN(FRSCHR='51'X,LSTCHR='59'X,TRNCHR='1A'X);
      586    70838        %KV_PRMINPTRN(FRSCHR=%EBCDICEXCPNT,TRNCHR='21'X);
      587    70994        %KV_PRMINPTRN(FRSCHR=%EBCDICDLR,TRNCHR=%ASCIIDLR);
      588    71150        %KV_PRMINPTRN(FRSCHR=%EBCDICAST,TRNCHR=%ASCIIAST);
      589    71306        %KV_PRMINPTRN(FRSCHR=%EBCDICRHTPRN,TRNCHR=%ASCIIRHTPRN);
      590    71462        %KV_PRMINPTRN(FRSCHR=%EBCDICSEMCLN,TRNCHR=%ASCIISEMCLN);
      591    71618        %KV_PRMINPTRN(FRSCHR=%EBCDICNOT,TRNCHR='7E'X);
      592    71774        %KV_PRMINPTRN(FRSCHR=%EBCDICHPH,TRNCHR=ASCIIHPH);
      593    71930        %KV_PRMINPTRN(FRSCHR=%EBCDICSLS,TRNCHR=%ASCIISLS);
      594    72086        %KV_PRMINPTRN(FRSCHR='62'X,LSTCHR='69'X,TRNCHR='1A'X);
      595    72498        %KV_PRMINPTRN(FRSCHR=%EBCDICVRTLIN,TRNCHR='5E'X);
      596    72654        %KV_PRMINPTRN(FRSCHR=%EBCDICCOM,LSTCHR=%EBCDICQST,
      597    72655          TRNCHR="%ASCIICOM,%ASCIIPRC,%ASCIIUNDSCR,%ASCIIRHTARW,%ASCIIQST");
PL6.E3A0      #001=KZ_RBTXLATE_D File=KZ_RBTXLATE_D.:E05TSI                      WED 07/30/97 03:08 Page:51
      598    72823        %KV_PRMINPTRN(FRSCHR='70'X,LSTCHR='78'X,TRNCHR='1A'X);
      599    73269        %KV_PRMINPTRN(FRSCHR=%EBCDICGRVACT,TRNCHR='1A'X);
      600    73425        %KV_PRMINPTRN(FRSCHR=%EBCDICCLN,LSTCHR=%EBCDICDBLQOT,
      601    73426          TRNCHR="%ASCIICLN,%ASCIINMB,%ASCIIAT,%ASCIISNGQOT,%ASCIIEQL,%ASCIIDBLQOT");
      602    73601        %KV_PRMINPTRN(FRSCHR='80'X,TRNCHR='1A'X);
      603    73757        %KV_PRMINPTRN(FRSCHR=%EBCDICLCA,LSTCHR=%EBCDICLCE,
      604    73758          TRNCHR="%ASCIILCA,%ASCIILCB,%ASCIILCC,%ASCIILCD,%ASCIILCE");
      605    73926        %KV_PRMINPTRN(FRSCHR=%EBCDICLCF,LSTCHR=%EBCDICLCI,
      606    73927          TRNCHR="%ASCIILCF,%ASCIILCG,%ASCIILCH,%ASCIILCI");
      607    74088        %KV_PRMINPTRN(FRSCHR='8A'X,LSTCHR='8F'X,TRNCHR='1A'X);
      608    74432        %KV_PRMINPTRN(FRSCHR='90'X,TRNCHR='1A'X);
      609    74588        %KV_PRMINPTRN(FRSCHR=%EBCDICLCJ,LSTCHR=%EBCDICLCN,
      610    74589          TRNCHR="%ASCIILCJ,%ASCIILCK,%ASCIILCL,%ASCIILCM,%ASCIILCN");
      611    74757        %KV_PRMINPTRN(FRSCHR=%EBCDICLCO,LSTCHR=%EBCDICLCR,
      612    74758          TRNCHR="%ASCIILCO,%ASCIILCP,%ASCIILCQ,%ASCIILCR");
      613    74919        %KV_PRMINPTRN(FRSCHR='9A'X,LSTCHR='9F'X,TRNCHR='1A'X);
      614    75263        %KV_PRMINPTRN(FRSCHR='A0'X,TRNCHR='1A'X);
      615    75419        %KV_PRMINPTRN(FRSCHR=%EBCDICTLD,TRNCHR='1A'X);
      616    75575        %KV_PRMINPTRN(FRSCHR=%EBCDICLCS,LSTCHR=%EBCDICLCV,
      617    75576          TRNCHR="%ASCIILCS,%ASCIILCT,%ASCIILCU,%ASCIILCV");
      618    75737        %KV_PRMINPTRN(FRSCHR=%EBCDICLCW,LSTCHR=%EBCDICLCZ,
      619    75738          TRNCHR="%ASCIILCW,%ASCIILCX,%ASCIILCY,%ASCIILCZ");
      620    75899        %KV_PRMINPTRN(FRSCHR='AA'X,LSTCHR='B0'X,TRNCHR='1A'X);
      621    76277        %KV_PRMINPTRN(FRSCHR='B1'X,LSTCHR='B5'X,
      622    76278           TRNCHR="'5C'X,'7B'X,'7D'X,'5B'X,'5D'X");
      623    76446        %KV_PRMINPTRN(FRSCHR='B6'X,LSTCHR='BF'X,TRNCHR='1A'X);
      624    76926        %KV_PRMINPTRN(FRSCHR=%EBCDICLFTBRC,LSTCHR=%EBCDICD,
      625    76927          TRNCHR="%ASCIILFTBRC,%ASCIIA,%ASCIIB,%ASCIIC,%ASCIID");
      626    77095        %KV_PRMINPTRN(FRSCHR=%EBCDICE,LSTCHR=%EBCDICI,
      627    77096          TRNCHR="%ASCIIE,%ASCIIF,%ASCIIG,%ASCIIH,%ASCIII");
      628    77264        %KV_PRMINPTRN(FRSCHR='CA'X,LSTCHR='CF'X,TRNCHR='1A'X);
      629    77608        %KV_PRMINPTRN(FRSCHR=%EBCDICRHTBRC,LSTCHR=%EBCDICM,
      630    77609          TRNCHR="%ASCIIRHTBRC,%ASCIIJ,%ASCIIK,%ASCIIL,%ASCIIM");
      631    77777        %KV_PRMINPTRN(FRSCHR=%EBCDICN,LSTCHR=%EBCDICR,
      632    77778          TRNCHR="%ASCIIN,%ASCIIO,%ASCIIP,%ASCIIQ,%ASCIIR");
      633    77946        %KV_PRMINPTRN(FRSCHR='DA'X,LSTCHR='DF'X,TRNCHR='1A'X);
      634    78290        %KV_PRMINPTRN(FRSCHR='E0'X,TRNCHR='1A'X);
PL6.E3A0      #001=KZ_RBTXLATE_D File=KZ_RBTXLATE_D.:E05TSI                      WED 07/30/97 03:08 Page:52
      635    78446        %KV_PRMINPTRN(FRSCHR='E1'X,TRNCHR='1A'X);
      636    78602        %KV_PRMINPTRN(FRSCHR=%EBCDICS,LSTCHR=%EBCDICW,
      637    78603          TRNCHR="%ASCIIS,%ASCIIT,%ASCIIU,%ASCIIV,%ASCIIW");
      638    78771        %KV_PRMINPTRN(FRSCHR=%EBCDICX,LSTCHR=%EBCDICZ,
      639    78772          TRNCHR="%ASCIIX,%ASCIIY,%ASCIIZ");
      640    78926        %KV_PRMINPTRN(FRSCHR='EA'X,LSTCHR='EF'X,TRNCHR='1A'X);
      641    79270        %KV_PRMINPTRN(FRSCHR=%EBCDIC0,LSTCHR=%EBCDIC4,
      642    79271          TRNCHR="%ASCII0,%ASCII1,%ASCII2,%ASCII3,%ASCII4");
      643    79439        %KV_PRMINPTRN(FRSCHR=%EBCDIC5,LSTCHR=%EBCDIC9,
      644    79440          TRNCHR="%ASCII5,%ASCII6,%ASCII7,%ASCII8,%ASCII9");
      645    79608        %KV_PRMINPTRN(FRSCHR='FA'X,LSTCHR='FF'X,TRNCHR='1A'X,LAST=YES);
      646    79952
      647    79953
      648    79954
      649    79955        /*     Primary input translate table, HIS EBCDIC -> %ASCII   */
      650    79956
      651    79957
      652    79958        %KV_PRMINPTRN(NAME=HIS_INP1,FRSCHR='00'X,LSTCHR='1F'X);
      653    89872
      654    89873        %KV_PRMINPTRN(FRSCHR='04'X,TRNCHR='1A'X);
      655    90029        %KV_PRMINPTRN(FRSCHR='05'X,TRNCHR='09'X);
      656    90185        %KV_PRMINPTRN(FRSCHR='06'X,LSTCHR='0A'X,TRNCHR='1A'X);
      657    90495        %KV_PRMINPTRN(FRSCHR='14'X,LSTCHR='1B'X,TRNCHR='1A'X);
      658    90907        %KV_PRMINPTRN(FRSCHR='16'X,TRNCHR='08'X);
      659    91063        %KV_PRMINPTRN(FRSCHR='18'X,LSTCHR='19'X);
      660    91253        %KV_PRMINPTRN(FRSCHR='20'X,LSTCHR='24'X,TRNCHR='1A'X);
      661    91563        %KV_PRMINPTRN(FRSCHR='25'X,LSTCHR='27'X,TRNCHR="'0A'X,'17'X,'1B'X");
      662    91717        %KV_PRMINPTRN(FRSCHR='28'X,LSTCHR='2C'X,TRNCHR='1A'X);
      663    92027        %KV_PRMINPTRN(FRSCHR='2D'X,LSTCHR='2F'X,TRNCHR="'05'X,'06'X,'07'X");
      664    92181        %KV_PRMINPTRN(FRSCHR='30'X,LSTCHR='31'X,TRNCHR='1A'X);
      665    92389        %KV_PRMINPTRN(FRSCHR='32'X,TRNCHR='16'X);
      666    92545        %KV_PRMINPTRN(FRSCHR='33'X,LSTCHR='36'X,TRNCHR='1A'X);
      667    92821        %KV_PRMINPTRN(FRSCHR='37'X,TRNCHR='04'X);
      668    92977        %KV_PRMINPTRN(FRSCHR='38'X,LSTCHR='3B'X,TRNCHR='1A'X);
      669    93253        %KV_PRMINPTRN(FRSCHR='3C'X,LSTCHR='3D'X,TRNCHR="'14'X,'15'X");
      670    93400        %KV_PRMINPTRN(FRSCHR='3E'X,LSTCHR='3F'X,TRNCHR='1A'X);
      671    93608        %KV_PRMINPTRN(FRSCHR=%EBCDICSP,TRNCHR=%ASCIISP);
PL6.E3A0      #001=KZ_RBTXLATE_D File=KZ_RBTXLATE_D.:E05TSI                      WED 07/30/97 03:08 Page:53
      672    93764        %KV_PRMINPTRN(FRSCHR='41'X,LSTCHR='49'X,TRNCHR='1A'X);
      673    94210        %KV_PRMINPTRN(FRSCHR=%EBCDICCNT,TRNCHR=%ASCIILFTBRK);
      674    94366        %KV_PRMINPTRN(FRSCHR=%EBCDICPRD,TRNCHR=%ASCIIPRD);
      675    94522        %KV_PRMINPTRN(FRSCHR=%EBCDICLFTARW,TRNCHR=%ASCIILFTARW);
      676    94678        %KV_PRMINPTRN(FRSCHR=%EBCDICLFTPRN,TRNCHR=%ASCIILFTPRN);
      677    94834        %KV_PRMINPTRN(FRSCHR=%EBCDICPLS,TRNCHR=%ASCIIPLS);
      678    94990        %KV_PRMINPTRN(FRSCHR=%EBCDICSLDVRTLIN,TRNCHR='21'X);
      679    95146        %KV_PRMINPTRN(FRSCHR=%EBCDICAMP,TRNCHR=%ASCIIAMP);
      680    95302        %KV_PRMINPTRN(FRSCHR='51'X,LSTCHR='59'X,TRNCHR='1A'X);
      681    95748        %KV_PRMINPTRN(FRSCHR=%EBCDICEXCPNT,TRNCHR='5D'X);
      682    95904        %KV_PRMINPTRN(FRSCHR=%EBCDICDLR,TRNCHR=%ASCIIDLR);
      683    96060        %KV_PRMINPTRN(FRSCHR=%EBCDICAST,TRNCHR=%ASCIIAST);
      684    96216        %KV_PRMINPTRN(FRSCHR=%EBCDICRHTPRN,TRNCHR=%ASCIIRHTPRN);
      685    96372        %KV_PRMINPTRN(FRSCHR=%EBCDICSEMCLN,TRNCHR=%ASCIISEMCLN);
      686    96528        %KV_PRMINPTRN(FRSCHR=%EBCDICNOT,TRNCHR='5E'X);
      687    96684        %KV_PRMINPTRN(FRSCHR=%EBCDICHPH,TRNCHR=ASCIIHPH);
      688    96840        %KV_PRMINPTRN(FRSCHR=%EBCDICSLS,TRNCHR=%ASCIISLS);
      689    96996        %KV_PRMINPTRN(FRSCHR='62'X,LSTCHR='69'X,TRNCHR='1A'X);
      690    97408        %KV_PRMINPTRN(FRSCHR=%EBCDICVRTLIN,TRNCHR='7C'X);
      691    97564        %KV_PRMINPTRN(FRSCHR=%EBCDICCOM,LSTCHR=%EBCDICQST,
      692    97565          TRNCHR="%ASCIICOM,%ASCIIPRC,%ASCIIUNDSCR,%ASCIIRHTARW,%ASCIIQST");
      693    97733        %KV_PRMINPTRN(FRSCHR='70'X,LSTCHR='78'X,TRNCHR='1A'X);
      694    98179        %KV_PRMINPTRN(FRSCHR=%EBCDICGRVACT,TRNCHR='60'X);
      695    98335        %KV_PRMINPTRN(FRSCHR=%EBCDICCLN,LSTCHR=%EBCDICDBLQOT,
      696    98336          TRNCHR="%ASCIICLN,%ASCIINMB,%ASCIIAT,%ASCIISNGQOT,%ASCIIEQL,%ASCIIDBLQOT");
      697    98511        %KV_PRMINPTRN(FRSCHR='80'X,TRNCHR='1A'X);
      698    98667        %KV_PRMINPTRN(FRSCHR=%EBCDICLCA,LSTCHR=%EBCDICLCE,
      699    98668          TRNCHR="%ASCIILCA,%ASCIILCB,%ASCIILCC,%ASCIILCD,%ASCIILCE");
      700    98836        %KV_PRMINPTRN(FRSCHR=%EBCDICLCF,LSTCHR=%EBCDICLCI,
      701    98837          TRNCHR="%ASCIILCF,%ASCIILCG,%ASCIILCH,%ASCIILCI");
      702    98998        %KV_PRMINPTRN(FRSCHR='8A'X,LSTCHR='8F'X,TRNCHR='1A'X);
      703    99342        %KV_PRMINPTRN(FRSCHR='90'X,TRNCHR='1A'X);
      704    99498        %KV_PRMINPTRN(FRSCHR=%EBCDICLCJ,LSTCHR=%EBCDICLCN,
      705    99499          TRNCHR="%ASCIILCJ,%ASCIILCK,%ASCIILCL,%ASCIILCM,%ASCIILCN");
      706    99667        %KV_PRMINPTRN(FRSCHR=%EBCDICLCO,LSTCHR=%EBCDICLCR,
      707    99668          TRNCHR="%ASCIILCO,%ASCIILCP,%ASCIILCQ,%ASCIILCR");
      708    99829        %KV_PRMINPTRN(FRSCHR='9A'X,LSTCHR='9F'X,TRNCHR='1A'X);
PL6.E3A0      #001=KZ_RBTXLATE_D File=KZ_RBTXLATE_D.:E05TSI                      WED 07/30/97 03:08 Page:54
      709   100173        %KV_PRMINPTRN(FRSCHR='A0'X,TRNCHR='1A'X);
      710   100329        %KV_PRMINPTRN(FRSCHR=%EBCDICTLD,TRNCHR='7E'X);
      711   100485        %KV_PRMINPTRN(FRSCHR=%EBCDICLCS,LSTCHR=%EBCDICLCV,
      712   100486          TRNCHR="%ASCIILCS,%ASCIILCT,%ASCIILCU,%ASCIILCV");
      713   100647        %KV_PRMINPTRN(FRSCHR=%EBCDICLCW,LSTCHR=%EBCDICLCZ,
      714   100648          TRNCHR="%ASCIILCW,%ASCIILCX,%ASCIILCY,%ASCIILCZ");
      715   100809        %KV_PRMINPTRN(FRSCHR='AA'X,LSTCHR='BF'X,TRNCHR='1A'X);
      716   101697        %KV_PRMINPTRN(FRSCHR=%EBCDICLFTBRC,LSTCHR=%EBCDICD,
      717   101698          TRNCHR="%ASCIILFTBRC,%ASCIIA,%ASCIIB,%ASCIIC,%ASCIID");
      718   101866        %KV_PRMINPTRN(FRSCHR=%EBCDICE,LSTCHR=%EBCDICI,
      719   101867          TRNCHR="%ASCIIE,%ASCIIF,%ASCIIG,%ASCIIH,%ASCIII");
      720   102035        %KV_PRMINPTRN(FRSCHR='CA'X,LSTCHR='CF'X,TRNCHR='1A'X);
      721   102379        %KV_PRMINPTRN(FRSCHR=%EBCDICRHTBRC,LSTCHR=%EBCDICM,
      722   102380          TRNCHR="%ASCIIRHTBRC,%ASCIIJ,%ASCIIK,%ASCIIL,%ASCIIM");
      723   102548        %KV_PRMINPTRN(FRSCHR=%EBCDICN,LSTCHR=%EBCDICR,
      724   102549          TRNCHR="%ASCIIN,%ASCIIO,%ASCIIP,%ASCIIQ,%ASCIIR");
      725   102717        %KV_PRMINPTRN(FRSCHR='DA'X,LSTCHR='DF'X,TRNCHR='1A'X);
      726   103061        %KV_PRMINPTRN(FRSCHR='E0'X,TRNCHR='5C'X);
      727   103217        %KV_PRMINPTRN(FRSCHR='E1'X,TRNCHR='1A'X);
      728   103373        %KV_PRMINPTRN(FRSCHR=%EBCDICS,LSTCHR=%EBCDICW,
      729   103374          TRNCHR="%ASCIIS,%ASCIIT,%ASCIIU,%ASCIIV,%ASCIIW");
      730   103542        %KV_PRMINPTRN(FRSCHR=%EBCDICX,LSTCHR=%EBCDICZ,
      731   103543          TRNCHR="%ASCIIX,%ASCIIY,%ASCIIZ");
      732   103697        %KV_PRMINPTRN(FRSCHR='EA'X,LSTCHR='EF'X,TRNCHR='1A'X);
      733   104041        %KV_PRMINPTRN(FRSCHR=%EBCDIC0,LSTCHR=%EBCDIC4,
      734   104042          TRNCHR="%ASCII0,%ASCII1,%ASCII2,%ASCII3,%ASCII4");
      735   104210        %KV_PRMINPTRN(FRSCHR=%EBCDIC5,LSTCHR=%EBCDIC9,
      736   104211          TRNCHR="%ASCII5,%ASCII6,%ASCII7,%ASCII8,%ASCII9");
      737   104379        %KV_PRMINPTRN(FRSCHR='FA'X,LSTCHR='FF'X,TRNCHR='1A'X,LAST=YES);
      738   104723
      739   104724        %EJECT;
PL6.E3A0      #001=KZ_RBTXLATE_D File=KZ_RBTXLATE_D.:E05TSI                      WED 07/30/97 03:08 Page:55
      740   104725
      741   104726        %KV$TRNTBL (NAME=KZ_RBT_EBCI,STCLASS=CONSTANT SYMDEF,
      742   104727              INPTRN1=EBC_INP1,
      743   104728              OTPTRN1=EBC_OTP1,
      744   104729              OTPTRN2=HIS_NOPOSOTP_2,
      745   104730              EXTINPTRN=NIL,
      746   104731              EXTOTPTRN=NIL,
      747   104732              LNK=KZ_RBT_EBCO,
      748   104733              NAM='EBCI',
      749   104734              INPCHRMSK='00FF'X,
      750   104735              OTPESCCHR="%BITBIN(KZ_RBTOTPCTRCHR_BGN)",
      751   104736              OTPESCCHR1="%BITASC(KZ_RBTOTPCTRCHR_BGN)",
      752   104737              SP_CHR="%BITASC(EBCDICSP)",
      753   104738              HT_CHR="%BITASC('05'X)");
      754   104796
      755   104797
      756   104798
      757   104799        %KV$TRNTBL (NAME=KZ_RBT_EBCO,STCLASS=CONSTANT SYMDEF,
      758   104800              INPTRN1=EBC_INP1,
      759   104801              OTPTRN1=EBC_OTP1,
      760   104802              OTPTRN2=HIS_NOPOSOTP_2,
      761   104803              EXTINPTRN=NIL,
      762   104804              EXTOTPTRN=NIL,
      763   104805              LNK=KZ_RBT_XDSI,
      764   104806              NAM='EBCO',
      765   104807              INPCHRMSK='00FF'X,
      766   104808              OTPESCCHR="%BITBIN(KZ_RBTOTPCTRCHR_BGN)",
      767   104809              OTPESCCHR1="%BITASC(KZ_RBTOTPCTRCHR_BGN)",
      768   104810              SP_CHR="%BITASC(EBCDICSP)",
      769   104811              HT_CHR="%BITASC('05'X)");
      770   104869
      771   104870
      772   104871
      773   104872
      774   104873        %KV$TRNTBL (NAME=KZ_RBT_XDSI,STCLASS=CONSTANT SYMDEF,
      775   104874              INPTRN1=XRX_INP1,
      776   104875              OTPTRN1=XRX_OTP1,
PL6.E3A0      #001=KZ_RBTXLATE_D File=KZ_RBTXLATE_D.:E05TSI                      WED 07/30/97 03:08 Page:56
      777   104876              OTPTRN2=XRX_NOPOSOTP_2,
      778   104877              EXTINPTRN=NIL,
      779   104878              EXTOTPTRN=NIL,
      780   104879              LNK=KZ_RBT_XDSO,
      781   104880              NAM='XDSI',
      782   104881              INPCHRMSK='00FF'X,
      783   104882              OTPESCCHR="%BITBIN(KZ_RBTOTPCTRCHR_BGN)",
      784   104883              OTPESCCHR1="%BITASC(KZ_RBTOTPCTRCHR_BGN)",
      785   104884              SP_CHR="%BITASC(EBCDICSP)",
      786   104885              HT_CHR="%BITASC('05'X)");
      787   104943
      788   104944
      789   104945
      790   104946
      791   104947        %KV$TRNTBL (NAME=KZ_RBT_XDSO,STCLASS=CONSTANT SYMDEF,
      792   104948              INPTRN1=XRX_INP1,
      793   104949              OTPTRN1=XRX_OTP1,
      794   104950              OTPTRN2=XRX_NOPOSOTP_2,
      795   104951              EXTINPTRN=NIL,
      796   104952              EXTOTPTRN=NIL,
      797   104953              LNK=KZ_RBT_HISI,
      798   104954              NAM='XDSO',
      799   104955              INPCHRMSK='00FF'X,
      800   104956              OTPESCCHR="%BITBIN(KZ_RBTOTPCTRCHR_BGN)",
      801   104957              OTPESCCHR1="%BITASC(KZ_RBTOTPCTRCHR_BGN)",
      802   104958              SP_CHR="%BITASC(EBCDICSP)",
      803   104959              HT_CHR="%BITASC('05'X)");
      804   105017
      805   105018
      806   105019
      807   105020
      808   105021        %KV$TRNTBL (NAME=KZ_RBT_HISI,STCLASS=CONSTANT SYMDEF,
      809   105022              INPTRN1=HIS_INP1,
      810   105023              OTPTRN1=HIS_OTP1,
      811   105024              OTPTRN2=HIS_NOPOSOTP_2,
      812   105025              EXTINPTRN=NIL,
      813   105026              EXTOTPTRN=NIL,
PL6.E3A0      #001=KZ_RBTXLATE_D File=KZ_RBTXLATE_D.:E05TSI                      WED 07/30/97 03:08 Page:57
      814   105027              LNK=KZ_RBT_HISO,
      815   105028              NAM='HISI',
      816   105029              INPCHRMSK='00FF'X,
      817   105030              OTPESCCHR="%BITBIN(KZ_RBTOTPCTRCHR_BGN)",
      818   105031              OTPESCCHR1="%BITASC(KZ_RBTOTPCTRCHR_BGN)",
      819   105032              SP_CHR="%BITASC(EBCDICSP)",
      820   105033              HT_CHR="%BITASC('05'X)");
      821   105091
      822   105092
      823   105093
      824   105094
      825   105095        %KV$TRNTBL (NAME=KZ_RBT_HISO,STCLASS=CONSTANT SYMDEF,
      826   105096              INPTRN1=HIS_INP1,
      827   105097              OTPTRN1=HIS_OTP1,
      828   105098              OTPTRN2=HIS_NOPOSOTP_2,
      829   105099              EXTINPTRN=NIL,
      830   105100              EXTOTPTRN=NIL,
      831   105101              LNK=KZ_RBT_SDS7012,
      832   105102              NAM='HISO',
      833   105103              INPCHRMSK='00FF'X,
      834   105104              OTPESCCHR="%BITBIN(KZ_RBTOTPCTRCHR_BGN)",
      835   105105              OTPESCCHR1="%BITASC(KZ_RBTOTPCTRCHR_BGN)",
      836   105106              SP_CHR="%BITASC(EBCDICSP)",
      837   105107              HT_CHR="%BITASC('05'X)");
      838   105165
      839   105166
      840   105167
      841   105168
      842   105169        %KV$TRNTBL (NAME=KZ_RBT_SDS7012,STCLASS=CONSTANT SYMDEF,
      843   105170              INPTRN1=EBC_INP1,
      844   105171              OTPTRN1=UPR_OTP1,
      845   105172              OTPTRN2=HIS_NOPOSOTP_2,
      846   105173              EXTINPTRN=NIL,
      847   105174              EXTOTPTRN=NIL,
      848   105175              LNK=KZ_RBT_EBC,
      849   105176              NAM='SDS7012',
      850   105177              INPCHRMSK='00FF'X,
PL6.E3A0      #001=KZ_RBTXLATE_D File=KZ_RBTXLATE_D.:E05TSI                      WED 07/30/97 03:08 Page:58
      851   105178              OTPESCCHR="%BITBIN(KZ_RBTOTPCTRCHR_BGN)",
      852   105179              OTPESCCHR1="%BITASC(KZ_RBTOTPCTRCHR_BGN)",
      853   105180              SP_CHR="%BITASC(EBCDICSP)",
      854   105181              HT_CHR="%BITASC('05'X)");
      855   105239
      856   105240
      857   105241
      858   105242
      859   105243        %KV$TRNTBL (NAME=KZ_RBT_EBC,STCLASS=CONSTANT SYMDEF,
      860   105244              INPTRN1=EBC_INP1,
      861   105245              OTPTRN1=EBC_OTP1,
      862   105246              OTPTRN2=HIS_NOPOSOTP_2,
      863   105247              EXTINPTRN=NIL,
      864   105248              EXTOTPTRN=NIL,
      865   105249              LNK=KZ_RBT_XDS,
      866   105250              NAM='EBC',
      867   105251              INPCHRMSK='00FF'X,
      868   105252              OTPESCCHR="%BITBIN(KZ_RBTOTPCTRCHR_BGN)",
      869   105253              OTPESCCHR1="%BITASC(KZ_RBTOTPCTRCHR_BGN)",
      870   105254              SP_CHR="%BITASC(EBCDICSP)",
      871   105255              HT_CHR="%BITASC('05'X)");
      872   105313
      873   105314
      874   105315
      875   105316
      876   105317        %KV$TRNTBL (NAME=KZ_RBT_XDS,STCLASS=CONSTANT SYMDEF,
      877   105318              INPTRN1=XRX_INP1,
      878   105319              OTPTRN1=XRX_OTP1,
      879   105320              OTPTRN2=XRX_NOPOSOTP_2,
      880   105321              EXTINPTRN=NIL,
      881   105322              EXTOTPTRN=NIL,
      882   105323              LNK=KZ_RBT_HIS,
      883   105324              NAM='XDS',
      884   105325              INPCHRMSK='00FF'X,
      885   105326              OTPESCCHR="%BITBIN(KZ_RBTOTPCTRCHR_BGN)",
      886   105327              OTPESCCHR1="%BITASC(KZ_RBTOTPCTRCHR_BGN)",
      887   105328              SP_CHR="%BITASC(EBCDICSP)",
PL6.E3A0      #001=KZ_RBTXLATE_D File=KZ_RBTXLATE_D.:E05TSI                      WED 07/30/97 03:08 Page:59
      888   105329              HT_CHR="%BITASC('05'X)");
      889   105387
      890   105388
      891   105389
      892   105390
      893   105391        %KV$TRNTBL (NAME=KZ_RBT_HIS,STCLASS=CONSTANT SYMDEF,
      894   105392              INPTRN1=HIS_INP1,
      895   105393              OTPTRN1=HIS_OTP1,
      896   105394              OTPTRN2=HIS_NOPOSOTP_2,
      897   105395              EXTINPTRN=NIL,
      898   105396              EXTOTPTRN=NIL,
      899   105397              LNK=KZ_RBT_BIT,
      900   105398              NAM='HIS',
      901   105399              INPCHRMSK='00FF'X,
      902   105400              OTPESCCHR="%BITBIN(KZ_RBTOTPCTRCHR_BGN)",
      903   105401              OTPESCCHR1="%BITASC(KZ_RBTOTPCTRCHR_BGN)",
      904   105402              SP_CHR="%BITASC(EBCDICSP)",
      905   105403              HT_CHR="%BITASC('05'X)");
      906   105461
      907   105462
      908   105463
      909   105464        %KV$TRNTBL (NAME=KZ_RBT_BIT,STCLASS=CONSTANT SYMDEF,
      910   105465              INPTRN1=BIT_INP1,
      911   105466              OTPTRN1=HIS_OTP1,
      912   105467              OTPTRN2=BIT_NOPOSOTP_2,
      913   105468              EXTINPTRN=NIL,
      914   105469              EXTOTPTRN=NIL,
      915   105470              LNK=KZ_RBT_EBCE,
      916   105471              NAM='BIT',
      917   105472              INPCHRMSK='00FF'X,
      918   105473              OTPESCCHR="%BITBIN(KZ_RBTOTPCTRCHR_BGN)",
      919   105474              OTPESCCHR1="%BITASC(KZ_RBTOTPCTRCHR_BGN)",
      920   105475              SP_CHR="%BITASC(EBCDICSP)",
      921   105476              HT_CHR="%BITASC('05'X)");
      922   105534
      923   105535
      924   105536
PL6.E3A0      #001=KZ_RBTXLATE_D File=KZ_RBTXLATE_D.:E05TSI                      WED 07/30/97 03:08 Page:60
      925   105537        %KV$TRNTBL (NAME=KZ_RBT_EBCE,STCLASS=CONSTANT SYMDEF,
      926   105538              INPTRN1=EBCE_INP1,
      927   105539              OTPTRN1=HIS_OTP1,
      928   105540              OTPTRN2=EBCE_NOPOSOTP_2,
      929   105541              EXTINPTRN=NIL,
      930   105542              EXTOTPTRN=NIL,
      931   105543              LNK=KZ_RBT_NON,
      932   105544              NAM='EBCE',
      933   105545              INPCHRMSK='00FF'X,
      934   105546              OTPESCCHR="%BITBIN(KZ_RBTOTPCTRCHR_BGN)",
      935   105547              OTPESCCHR1="%BITASC(KZ_RBTOTPCTRCHR_BGN)",
      936   105548              SP_CHR="%BITASC(EBCDICSP)",
      937   105549              HT_CHR="%BITASC('05'X)");
      938   105607
      939   105608
      940   105609
      941   105610        %KV$TRNTBL (NAME=KZ_RBT_NON,STCLASS=CONSTANT SYMDEF,
      942   105611              EXTINPTRN=NIL,
      943   105612              EXTOTPTRN=NIL,
      944   105613              LNK=NIL,
      945   105614              NAM='NONE',
      946   105615              INPCHRMSK='00FF'X,
      947   105616              SP_CHR="%BITASC(ASCIISP)",
      948   105617              HT_CHR="%BITASC('09'X)");
      949   105675
      950   105676
      951   105677    1   END;

PL6.E3A0      #001=KZ_RBTXLATE_D File=KZ_RBTXLATE_D.:E05TSI                      WED 07/30/97 03:08 Page:61
--  Include file information  --

   KV$GLB.:E05TOU  is referenced.
   KV$INT.:E05TOU  is referenced.
   KV_ASCCHR_E.:E05TOU  is referenced.
   KV_EBCCHR_E.:E05TOU  is referenced.
   KV_TRNTBL_M.:E05TOU  is referenced.
      No diagnostics issued in procedure KZ_RBTXLATE_D.
PL6.E3A0      #001=KZ_RBTXLATE_D File=KZ_RBTXLATE_D.:E05TSI                      WED 07/30/97 03:08 Page:62

 **** Variables and constants ****

  ****  Section 000 RoData KZ_RBTXLATE_D

  ****  Scalars and arrays  ****
HexLoc.c.b A Datatyp(siz) R M Lvl/name                 HexLoc.c.b A Datatyp(siz) R M Lvl/name

   306-0-0/c STRC(2560)  r     1 BIT_INP1                 200-0-0/c STRC(467)   r     1 BIT_NOPOSOTP_2
   3A6-0-0/c STRC(2560)  r     1 EBCE_INP1                21E-0-0/c STRC(467)   r     1 EBCE_NOPOSOTP_2
   266-0-0/c STRC(2560)  r     1 EBC_INP1                   0-0-0/c STRC(2048)  r     1 EBC_OTP1
   4E6-0-0/c STRC(2560)  r     1 HIS_INP1                 248-0-0/c STRC(467)   r     1 HIS_NOPOSOTP_2
    80-0-0/c STRC(2048)  r     1 HIS_OTP1                 6C6-0-0/w STRC(499)   r     1 KZ_RBT_BIT
   666-0-0/w STRC(499)   r     1 KZ_RBT_EBC               6E6-0-0/w STRC(499)   r     1 KZ_RBT_EBCE
   586-0-0/w STRC(499)   r     1 KZ_RBT_EBCI              5A6-0-0/w STRC(499)   r     1 KZ_RBT_EBCO
   6A6-0-0/w STRC(499)   r     1 KZ_RBT_HIS               606-0-0/w STRC(499)   r     1 KZ_RBT_HISI
   626-0-0/w STRC(499)   r     1 KZ_RBT_HISO              706-0-0/w STRC(499)   r     1 KZ_RBT_NON
   646-0-0/w STRC(499)   r     1 KZ_RBT_SDS7012           686-0-0/w STRC(499)   r     1 KZ_RBT_XDS
   5C6-0-0/w STRC(499)   r     1 KZ_RBT_XDSI              5E6-0-0/w STRC(499)   r     1 KZ_RBT_XDSO
   180-0-0/c STRC(2048)  r     1 UPR_OTP1                 446-0-0/c STRC(2560)  r     1 XRX_INP1
   23C-0-0/c STRC(179)   r     1 XRX_NOPOSOTP_2           100-0-0/c STRC(2048)  r     1 XRX_OTP1


   No code generated for procedure KZ_RBTXLATE_D .
   Procedure KZ_RBTXLATE_D requires 4 words of local(AUTO) storage.

    No errors detected in file KZ_RBTXLATE_D.:E05TSI    .
PL6.E3A0      #001=KZ_RBTXLATE_D File=KZ_RBTXLATE_D.:E05TSI                      WED 07/30/97 03:08 Page:63
          *** CROSS REFERENCE LISTING ***
**     DENOTES     IDENTIFIER DEFINITION
<<                 IDENTIFIER'S VALUE SET
>>                 IDENTIFIER'S VALUE USED
<>                 IDENTIFIER SET AND/OR USED
--                 IDENTIFIER REFERENCED
PL6.E3A0      #001=KZ_RBTXLATE_D File=KZ_RBTXLATE_D.:E05TSI                      WED 07/30/97 03:08 Page:64
          MINI XREF LISTING

BIT_INP1
     54540**DCL    105524--DCLINIT
BIT_NOPOSOTP_2
     30735**DCL    105525--DCLINIT
EBCE_INP1
     55739**DCL    105597--DCLINIT
EBCE_NOPOSOTP_2
     31905**DCL    105598--DCLINIT
EBC_INP1
     34726**DCL    104786--DCLINIT104859--DCLINIT105229--DCLINIT105303--DCLINIT
EBC_OTP1
      1655**DCL    104786--DCLINIT104859--DCLINIT105303--DCLINIT
HIS_INP1
     79962**DCL    105081--DCLINIT105155--DCLINIT105451--DCLINIT
HIS_NOPOSOTP_2
     33550**DCL    104787--DCLINIT104860--DCLINIT105082--DCLINIT105156--DCLINIT105230--DCLINIT105304--DCLINIT
    105452--DCLINIT
HIS_OTP1
      8061**DCL    105081--DCLINIT105155--DCLINIT105451--DCLINIT105524--DCLINIT105597--DCLINIT
KZ_RBT_BIT
    105509**DCL    105440--DCLINIT105518--DCLINIT
KZ_RBT_BIT.OTPESCCHR
    105527**DCL    105527--REDEF
KZ_RBT_EBC
    105288**DCL    105218--DCLINIT105297--DCLINIT
KZ_RBT_EBC.OTPESCCHR
    105306**DCL    105306--REDEF
KZ_RBT_EBCE
    105582**DCL    105513--DCLINIT105591--DCLINIT
KZ_RBT_EBCE.OTPESCCHR
    105600**DCL    105600--REDEF
KZ_RBT_EBCI
PL6.E3A0      #001=KZ_RBTXLATE_D File=KZ_RBTXLATE_D.:E05TSI                      WED 07/30/97 03:08 Page:65
    104771**DCL    104780--DCLINIT
KZ_RBT_EBCI.OTPESCCHR
    104789**DCL    104789--REDEF
KZ_RBT_EBCO
    104844**DCL    104775--DCLINIT104853--DCLINIT
KZ_RBT_EBCO.OTPESCCHR
    104862**DCL    104862--REDEF
KZ_RBT_HIS
    105436**DCL    105366--DCLINIT105445--DCLINIT
KZ_RBT_HIS.OTPESCCHR
    105454**DCL    105454--REDEF
KZ_RBT_HISI
    105066**DCL    104996--DCLINIT105075--DCLINIT
KZ_RBT_HISI.OTPESCCHR
    105084**DCL    105084--REDEF
KZ_RBT_HISO
    105140**DCL    105070--DCLINIT105149--DCLINIT
KZ_RBT_HISO.OTPESCCHR
    105158**DCL    105158--REDEF
KZ_RBT_NON
    105650**DCL    105586--DCLINIT105659--DCLINIT
KZ_RBT_NON.OTPESCCHR
    105668**DCL    105668--REDEF
KZ_RBT_SDS7012
    105214**DCL    105144--DCLINIT105223--DCLINIT
KZ_RBT_SDS7012.OTPESCCHR
    105232**DCL    105232--REDEF
KZ_RBT_XDS
    105362**DCL    105292--DCLINIT105371--DCLINIT
KZ_RBT_XDS.OTPESCCHR
    105380**DCL    105380--REDEF
KZ_RBT_XDSI
    104918**DCL    104848--DCLINIT104927--DCLINIT
KZ_RBT_XDSI.OTPESCCHR
    104936**DCL    104936--REDEF
KZ_RBT_XDSO
PL6.E3A0      #001=KZ_RBTXLATE_D File=KZ_RBTXLATE_D.:E05TSI                      WED 07/30/97 03:08 Page:66
    104992**DCL    104922--DCLINIT105001--DCLINIT
KZ_RBT_XDSO.OTPESCCHR
    105010**DCL    105010--REDEF
UPR_OTP1
     24328**DCL    105229--DCLINIT
XRX_INP1
     56795**DCL    104933--DCLINIT105007--DCLINIT105377--DCLINIT
XRX_NOPOSOTP_2
     33076**DCL    104934--DCLINIT105008--DCLINIT105378--DCLINIT
XRX_OTP1
     15690**DCL    104933--DCLINIT105007--DCLINIT105377--DCLINIT
