VERSION E05

PL6.E3A0      #001=KZ_STBLS_D File=KZ_STBLS_D.:E05TSI                            WED 07/30/97 03:08 Page:1
        1        1        /*M*     KZ_STBLS_D - State table definitions for RBT              */
        2        2        /*T***********************************************************/
        3        3        /*T*                                                         */
        4        4        /*T* Copyright (c) Bull HN Information Systems Inc., 1997    */
        5        5        /*T*                                                         */
        6        6        /*T***********************************************************/
        7        7
        8        8        /*P*     NAME:     KZ_STBLS_D
        9        9                 PURPOSE:  To provide RBT state table definitions as static
       10       10                           data for the common line manager.                    */
       11       11
       12       12        KZ_STBLS_D: PROC;
       13       13
       14       14        %INCLUDE KZ_HASP_C;
       15      356        %INCLUDE KZ_BSC_C;
       16     1338        %INCLUDE KZ$BSCSTT;
       17     1444        %INCLUDE KV$GLBCTX;
       18     1889        %INCLUDE KZ$RBT_M;
       19     2448        %INCLUDE LCP_6;
       20     6727        %INCLUDE KH$STT;
       21     6757        %INCLUDE KL_MACRO_C;
       22    10109        %INCLUDE KL_AFCN_C;
       23    10210        %INCLUDE K_ID_E;
       24    10260        %K#ENTID_E;
       25    10279        %K#LYRID_E;
       26    10286
       27    10287    1   DCL KZR$RBT ENTRY(1) ALTRET OPTIONAL;
       28    10288    1   DCL KZR$RBTSTATS ENTRY(2) OPTIONAL;
       29    10289    1   DCL KZB$HASPIO ENTRY(2) ALTRET OPTIONAL;
       30    10290    1   DCL KZB$BSCIO ENTRY(2) ALTRET OPTIONAL;
       31    10291
       32    10292
       33    10293
       34    10294        %KZ_HASP_HDR (NAME=KZ_HASPS_HDR,STCLASS="STATIC SYMDEF",STTBFR="NIL");
       35    10318
       36    10319        %KZ_HASP_HDR (NAME=KZ_HASP_HDR,STCLASS="STATIC SYMDEF",STTBFR="NIL");
       37    10343
PL6.E3A0      #001=KZ_STBLS_D File=KZ_STBLS_D.:E05TSI                            WED 07/30/97 03:08 Page:2
       38    10344        %KZ_BSC_HDR (NAME=KZ_BSCS_HDR,STCLASS="STATIC SYMDEF",STTBFR="NIL");
       39    10368        %KZ_BSC_HDR (NAME=KZ_BSC_HDR,STCLASS="STATIC SYMDEF",STTBFR="NIL");
       40    10392
       41    10393            %KZ_HASP_MAP   ( STCLASS = "CONSTANT SYMDEF" );
       42    10437
       43    10438            %KZ_HASP_STBL  ( STCLASS = "CONSTANT SYMDEF" );
       44    10655
       45    10656            %KZ_BSC_MAP    ( STCLASS = "CONSTANT SYMDEF" );
       46    10701
       47    10702            %KZ_BSC_STBL   ( STCLASS = "CONSTANT SYMDEF" );
       48    11521
       49    11522    1   DCL KZ_RBTVDHSTT$ PTR STATIC SYMDEF INIT(ADDR(NIL));
       50    11523    1   DCL KZ_USRPRM$ PTR STATIC SYMDEF INIT(ADDR(NIL));
       51    11524    1   DCL KZR_THRTL_BLK UBIN STATIC SYMDEF INIT(1000);
       52    11525    1   DCL KZR_THRTL_UNBLK UBIN STATIC SYMDEF INIT(600);
       53    11526    1   DCL KZR_ORDERS@ EPTR STATIC SYMDEF INIT(ENTADDR(NIL));
       54    11527    1   DCL KZR_ABORT@ EPTR STATIC SYMDEF INIT(ENTADDR(NIL));
       55    11528    1   DCL KZR_CNCDSC@ EPTR STATIC SYMDEF INIT(ENTADDR(NIL));
       56    11529    1   DCL KZR_DRIVER@ EPTR STATIC SYMDEF INIT(ENTADDR(NIL));
       57    11530
       58    11531    1   DCL KZ_TIMOUT UBIN STATIC SYMDEF INIT(0);
       59    11532
       60    11533    1   END KZ_STBLS_D;

PL6.E3A0      #001=KZ_STBLS_D File=KZ_STBLS_D.:E05TSI                            WED 07/30/97 03:08 Page:3
--  Include file information  --

   K_ID_E.:E05TOU  is referenced.
   KL_AFCN_C.:E05TOU  is referenced.
   KL_MACRO_C.:E05TOU  is referenced.
   KH$STT.:E05TOU  is referenced.
   G_LCP6_E.:E05TOU  is referenced.
   GT_LCP6_M.:E05TOU  is referenced.
   KI_CP6.:E05TOU  is referenced.
   GF_LCP6_M.:E05TOU  is referenced.
   GM_LCP6_M.:E05TOU  is referenced.
   GU_LCP6_M.:E05TOU  is referenced.
   GJ_LCP6_M.:E05TOU  is referenced.
   GH_LCP6_M.:E05TOU  is referenced.
   LCP_6.:E05TOU  cannot be made into a system file and is referenced.
   KZ$RBT_M.:E05TOU  is referenced.
   KV$GLBCTX.:E05TOU  is referenced.
   KV$BPC.:E05TOU  is referenced.
   KZ$BSCSTT.:E05TOU  is referenced.
   KZ_BSC_C.:E05TOU  is referenced.
   KZ_HASP_C.:E05TOU  is referenced.
      No diagnostics issued in procedure KZ_STBLS_D.

   No code generated for procedure KZ_STBLS_D .
   Procedure KZ_STBLS_D requires 4 words of local(AUTO) storage.

    No errors detected in file KZ_STBLS_D.:E05TSI    .

PL6.E3A0      #001=KZ_STBLS_D File=KZ_STBLS_D.:E05TSI                            WED 07/30/97 03:08 Page:4

 Object Unit name= KZ_STBLS_D                                 File name= KZ_STBLS_D.:E05TOU
 UTS= JUL 30 '97 03:08:50.24 WED                              Compiler= PL-6/E31         Sev=      00
 SharedLib= :SHARED_LCP6_SYSTEM                               Alt SharedLib=


    ****  Control sections  ****

 Sect   Type Bound  Init  Size HexSiz  Section name
    0   Data  even  none    83     53  KZ_STBLS_D
    1  RoData even  UTS   1032    408  KZ_STBLS_D
    2   Proc  even  none     0      0  KZ_STBLS_D

    ****  Entry defs  ****

                              Check   Calling
                             calling  sequence
  Sect HexLoc Primary Altret sequence   type   Parms  Name
     2      0   yes            yes     ~proc       0  KZ_STBLS_D
PL6.E3A0      #001=KZ_STBLS_D File=KZ_STBLS_D.:E05TSI                            WED 07/30/97 03:08 Page:5

  ****  Data defs  ****

 Sect HexLoc  Name                           Sect HexLoc  Name
    0      0  KZ_HASPS_HDR                       0     11  KZ_HASP_HDR
    0     22  KZ_BSCS_HDR                        0     33  KZ_BSC_HDR
    1      0  KZ_HASP_MAP                        1     10  KZ_HASP_STBL
    1     D7  KZ_BSC_MAP                         1     E7  KZ_BSC_STBL
    0     44  KZ_RBTVDHSTT$                      0     46  KZ_USRPRM$
    0     48  KZR_THRTL_BLK                      0     49  KZR_THRTL_UNBLK
    0     4A  KZR_ORDERS@                        0     4C  KZR_ABORT@
    0     4E  KZR_CNCDSC@                        0     50  KZR_DRIVER@
    0     52  KZ_TIMOUT

  ****  Entry refs  ****

         Check        Calling
        calling       sequence
Altret sequence SRef   type   Args  Name
 yes     yes    yes    Std       2 KZB$HASPIO
 yes     yes    yes    Std       1 KZR$RBT
 yes     yes    yes    Std       2 KZB$BSCIO
         yes    yes    Std       2 KZR$RBTSTATS

  ****  Data refs  ****

  Flags:  r = read only, s = secondary
Flgs Name                             Flgs Name                             Flgs Name
r    G$ROS$
PL6.E3A0      #001=KZ_STBLS_D File=KZ_STBLS_D.:E05TSI                            WED 07/30/97 03:08 Page:6

        1        1        /*M*     KZ_STBLS_D - State table definitions for RBT              */
        2        2        /*T***********************************************************/
        3        3        /*T*                                                         */
        4        4        /*T* Copyright (c) Bull HN Information Systems Inc., 1997    */
        5        5        /*T*                                                         */
        6        6        /*T***********************************************************/
        7        7
        8        8        /*P*     NAME:     KZ_STBLS_D
        9        9                 PURPOSE:  To provide RBT state table definitions as static
       10       10                           data for the common line manager.                    */
       11       11
       12       12        KZ_STBLS_D: PROC;
       13       13
       14       14        %INCLUDE KZ_HASP_C;
       15      356        %INCLUDE KZ_BSC_C;
       16     1338        %INCLUDE KZ$BSCSTT;
       17     1444        %INCLUDE KV$GLBCTX;
       18     1889        %INCLUDE KZ$RBT_M;
       19     2448        %INCLUDE LCP_6;
       20     6727        %INCLUDE KH$STT;
       21     6757        %INCLUDE KL_MACRO_C;
       22    10109        %INCLUDE KL_AFCN_C;
       23    10210        %INCLUDE K_ID_E;
       24    10260        %K#ENTID_E;
       25    10279        %K#LYRID_E;
       26    10286
       27    10287    1   DCL KZR$RBT ENTRY(1) ALTRET OPTIONAL;
       28    10288    1   DCL KZR$RBTSTATS ENTRY(2) OPTIONAL;
       29    10289    1   DCL KZB$HASPIO ENTRY(2) ALTRET OPTIONAL;
       30    10290    1   DCL KZB$BSCIO ENTRY(2) ALTRET OPTIONAL;
       31    10291
       32    10292
       33    10293
       34    10294        %KZ_HASP_HDR (NAME=KZ_HASPS_HDR,STCLASS="STATIC SYMDEF",STTBFR="NIL");
       35    10318
       36    10319        %KZ_HASP_HDR (NAME=KZ_HASP_HDR,STCLASS="STATIC SYMDEF",STTBFR="NIL");
       37    10343
PL6.E3A0      #001=KZ_STBLS_D File=KZ_STBLS_D.:E05TSI                            WED 07/30/97 03:08 Page:7
       38    10344        %KZ_BSC_HDR (NAME=KZ_BSCS_HDR,STCLASS="STATIC SYMDEF",STTBFR="NIL");
       39    10368        %KZ_BSC_HDR (NAME=KZ_BSC_HDR,STCLASS="STATIC SYMDEF",STTBFR="NIL");
       40    10392
       41    10393            %KZ_HASP_MAP   ( STCLASS = "CONSTANT SYMDEF" );
       42    10437
       43    10438            %KZ_HASP_STBL  ( STCLASS = "CONSTANT SYMDEF" );
       44    10655
       45    10656            %KZ_BSC_MAP    ( STCLASS = "CONSTANT SYMDEF" );
       46    10701
       47    10702            %KZ_BSC_STBL   ( STCLASS = "CONSTANT SYMDEF" );
       48    11521
       49    11522    1   DCL KZ_RBTVDHSTT$ PTR STATIC SYMDEF INIT(ADDR(NIL));
       50    11523    1   DCL KZ_USRPRM$ PTR STATIC SYMDEF INIT(ADDR(NIL));
       51    11524    1   DCL KZR_THRTL_BLK UBIN STATIC SYMDEF INIT(1000);
       52    11525    1   DCL KZR_THRTL_UNBLK UBIN STATIC SYMDEF INIT(600);
       53    11526    1   DCL KZR_ORDERS@ EPTR STATIC SYMDEF INIT(ENTADDR(NIL));
       54    11527    1   DCL KZR_ABORT@ EPTR STATIC SYMDEF INIT(ENTADDR(NIL));
       55    11528    1   DCL KZR_CNCDSC@ EPTR STATIC SYMDEF INIT(ENTADDR(NIL));
       56    11529    1   DCL KZR_DRIVER@ EPTR STATIC SYMDEF INIT(ENTADDR(NIL));
       57    11530
       58    11531    1   DCL KZ_TIMOUT UBIN STATIC SYMDEF INIT(0);
       59    11532
       60    11533    1   END KZ_STBLS_D;

PL6.E3A0      #001=KZ_STBLS_D File=KZ_STBLS_D.:E05TSI                            WED 07/30/97 03:08 Page:8
--  Include file information  --

   K_ID_E.:E05TOU  is referenced.
   KL_AFCN_C.:E05TOU  is referenced.
   KL_MACRO_C.:E05TOU  is referenced.
   KH$STT.:E05TOU  is referenced.
   G_LCP6_E.:E05TOU  is referenced.
   GT_LCP6_M.:E05TOU  is referenced.
   KI_CP6.:E05TOU  is referenced.
   GF_LCP6_M.:E05TOU  is referenced.
   GM_LCP6_M.:E05TOU  is referenced.
   GU_LCP6_M.:E05TOU  is referenced.
   GJ_LCP6_M.:E05TOU  is referenced.
   GH_LCP6_M.:E05TOU  is referenced.
   LCP_6.:E05TOU  cannot be made into a system file and is referenced.
   KZ$RBT_M.:E05TOU  is referenced.
   KV$GLBCTX.:E05TOU  is referenced.
   KV$BPC.:E05TOU  is referenced.
   KZ$BSCSTT.:E05TOU  is referenced.
   KZ_BSC_C.:E05TOU  is referenced.
   KZ_HASP_C.:E05TOU  is referenced.
      No diagnostics issued in procedure KZ_STBLS_D.
PL6.E3A0      #001=KZ_STBLS_D File=KZ_STBLS_D.:E05TSI                            WED 07/30/97 03:08 Page:9

 **** Variables and constants ****

  ****  Section 000  Data  KZ_STBLS_D

  ****  Scalars and arrays  ****
HexLoc.c.b A Datatyp(siz) R M Lvl/name                 HexLoc.c.b A Datatyp(siz) R M Lvl/name

    4C-0-0/w EPTR        r     1 KZR_ABORT@                4E-0-0/w EPTR        r     1 KZR_CNCDSC@
    50-0-0/w EPTR        r     1 KZR_DRIVER@               4A-0-0/w EPTR        r     1 KZR_ORDERS@

  ****  Section 001 RoData KZ_STBLS_D

  ****  Scalars and arrays  ****
HexLoc.c.b A Datatyp(siz) R M Lvl/name                 HexLoc.c.b A Datatyp(siz) R M Lvl/name

    D7-0-0/w STRC(256)   r     1 KZ_BSC_MAP                E7-0-0/w STRC(12816) r     1 KZ_BSC_STBL
     0-0-0/w STRC(248)   r     1 KZ_HASP_MAP               10-0-0/w STRC(3184)  r     1 KZ_HASP_STBL


   No code generated for procedure KZ_STBLS_D .
   Procedure KZ_STBLS_D requires 4 words of local(AUTO) storage.

    No errors detected in file KZ_STBLS_D.:E05TSI    .
PL6.E3A0      #001=KZ_STBLS_D File=KZ_STBLS_D.:E05TSI                            WED 07/30/97 03:08 Page:10
          *** CROSS REFERENCE LISTING ***
**     DENOTES     IDENTIFIER DEFINITION
<<                 IDENTIFIER'S VALUE SET
>>                 IDENTIFIER'S VALUE USED
<>                 IDENTIFIER SET AND/OR USED
--                 IDENTIFIER REFERENCED
PL6.E3A0      #001=KZ_STBLS_D File=KZ_STBLS_D.:E05TSI                            WED 07/30/97 03:08 Page:11
          MINI XREF LISTING

KZB$BSCIO
     10290**DCL-ENT 10357--DCLINIT 10381--DCLINIT
KZB$HASPIO
     10289**DCL-ENT 10307--DCLINIT 10332--DCLINIT
KZR$RBT
     10287**DCL-ENT 10308--DCLINIT 10333--DCLINIT 10358--DCLINIT 10382--DCLINIT
KZR$RBTSTATS
     10288**DCL-ENT 10309--DCLINIT 10334--DCLINIT
KZ_BSC_MAP
     10668**DCL     10363--DCLINIT 10387--DCLINIT
KZ_BSC_STBL
     10714**DCL     10364--DCLINIT 10388--DCLINIT
KZ_BSC_STBL.PL6ISDUMB
     10718**DCL     11517--REDEF
KZ_HASP_MAP
     10405**DCL     10313--DCLINIT 10338--DCLINIT
KZ_HASP_STBL
     10450**DCL     10314--DCLINIT 10339--DCLINIT
KZ_HASP_STBL.PL6ISDUMB
     10454**DCL     10651--REDEF
