VERSION E05

PL6.E3A0      #001=K_DATA_D File=K_DATA_D.:E05TSI                                WED 07/30/97 03:09 Page:1
        1        1        /*M* K_DATA_D -  Communications data for the Host. */
        2        2        /*T***********************************************************/
        3        3        /*T*                                                         */
        4        4        /*T* Copyright (c) Bull HN Information Systems Inc., 1997    */
        5        5        /*T*                                                         */
        6        6        /*T***********************************************************/
        7        7        K_DATA_D: PROC;
        8        8
        9        9        %INCLUDE K$RWPARM;
       10      395
       11      396        %K$RWPARM (NAME=K_RWPARM_CON,STCLASS="CONSTANT SYMDEF");
       12      712
       13      713    1   DCL K_LOCK BIT(72) STATIC SYMDEF INIT('1'B);
       14      714
       15      715    1   DCL K_NODE# UBIN STATIC SYMDEF INIT(0); /* Node number of this host */
       16      716    1   DCL 1 K_HEADER STATIC SYMDEF,
       17      717    1        2 CNT UBIN BYTE UNAL INIT(0),
       18      718    1        2 TEXT CHAR(120) UNAL INIT(' ');
       19      719    1   END;

PL6.E3A0      #001=K_DATA_D File=K_DATA_D.:E05TSI                                WED 07/30/97 03:09 Page:2
--  Include file information  --

   K$RWPARM.:E05TOU  is referenced.
      No diagnostics issued in procedure K_DATA_D.

   No code generated for procedure K_DATA_D .
   Procedure K_DATA_D requires 4 words of local(AUTO) storage.

    No errors detected in file K_DATA_D.:E05TSI    .

PL6.E3A0      #001=K_DATA_D File=K_DATA_D.:E05TSI                                WED 07/30/97 03:09 Page:3

 Object Unit name= K_DATA_D                                   File name= K_DATA_D.:E05TOU
 UTS= JUL 30 '97 03:09:20.84 WED                              Compiler= PL-6/E31         Sev=      00
 SharedLib= :SHARED_SYSTEM                                    Alt SharedLib=


    ****  Control sections  ****

 Sect   Type Bound  Init  Size OctSiz  Section name(segment info)
    0  RoData even  UTS     40     50  K_DATA_D
    1   Data  even  none    34     42  K_DATA_D
    2   Proc  even  none     0      0  K_DATA_D

    ****  Entry defs  ****

                              Check   Calling
                             calling  sequence
  Sect OctLoc Primary Altret sequence   type   Parms  Name
     2      0   yes            yes     ~proc       0  K_DATA_D

  ****  Data defs  ****

 Sect OctLoc  Name                           Sect OctLoc  Name
    0      0  K_RWPARM_CON                       1      0  K_LOCK
    1      2  K_NODE#                            1      3  K_HEADER

  ****  Segment refs  ****

  Flags:  r = read only, s = secondary
Flgs Name                             Flgs Name                             Flgs Name
     NULLSID
PL6.E3A0      #001=K_DATA_D File=K_DATA_D.:E05TSI                                WED 07/30/97 03:09 Page:4


(unnamed)
 Sect OctLoc
   0     000   000000 006014   000000 000000   040040 040040   040040 040040    ........
   0     004   040040 040040   040040 040040   000000 000000   000000 000000            ........
   0     010   200501 000000   000000 000000   000000 000000   000000 000000    ................
   0     014   000000 006014   000000 000000   000000 006014   000000 006014    ................
   0     020   000000 000000   000000 000000   000000 006014   000000 000000    ................
   0     024   000000 006014   000000 000000   000000 006014   000000 000000    ................
   0     030   000000 000000   000000 006014   000000 000000   000000 000000    ................
   0     034   000000 006014   000000 006014   000000 006014   000000 000000    ................
   0     040   000000 000001   000000 000000   000000 ******   000000 006014    ................
   0     044   000000 006014   000000 000000   000000 000000   ****** ******    ................

(unnamed)
 Sect OctLoc
   1     000   400000 000000   000000 000000   000000 000000   000040 040040    .............
   1     004   040040 040040   040040 040040   040040 040040   040040 040040
   1     040*  040040 040040   040*** ******                                         ...
        1        1        /*M* K_DATA_D -  Communications data for the Host. */
        2        2        /*T***********************************************************/
        3        3        /*T*                                                         */
        4        4        /*T* Copyright (c) Bull HN Information Systems Inc., 1997    */
        5        5        /*T*                                                         */
        6        6        /*T***********************************************************/
        7        7        K_DATA_D: PROC;
        8        8
        9        9        %INCLUDE K$RWPARM;
       10      395
       11      396        %K$RWPARM (NAME=K_RWPARM_CON,STCLASS="CONSTANT SYMDEF");
       12      712
       13      713    1   DCL K_LOCK BIT(72) STATIC SYMDEF INIT('1'B);
       14      714
       15      715    1   DCL K_NODE# UBIN STATIC SYMDEF INIT(0); /* Node number of this host */
       16      716    1   DCL 1 K_HEADER STATIC SYMDEF,
       17      717    1        2 CNT UBIN BYTE UNAL INIT(0),
       18      718    1        2 TEXT CHAR(120) UNAL INIT(' ');
PL6.E3A0      #001=K_DATA_D File=K_DATA_D.:E05TSI                                WED 07/30/97 03:09 Page:5
       19      719    1   END;

PL6.E3A0      #001=K_DATA_D File=K_DATA_D.:E05TSI                                WED 07/30/97 03:09 Page:6
--  Include file information  --

   K$RWPARM.:E05TOU  is referenced.
      No diagnostics issued in procedure K_DATA_D.
PL6.E3A0      #001=K_DATA_D File=K_DATA_D.:E05TSI                                WED 07/30/97 03:09 Page:7

 **** Variables and constants ****


   No code generated for procedure K_DATA_D .
   Procedure K_DATA_D requires 4 words of local(AUTO) storage.

    No errors detected in file K_DATA_D.:E05TSI    .
PL6.E3A0      #001=K_DATA_D File=K_DATA_D.:E05TSI                                WED 07/30/97 03:09 Page:8
          *** CROSS REFERENCE LISTING ***
**     DENOTES     IDENTIFIER DEFINITION
<<                 IDENTIFIER'S VALUE SET
>>                 IDENTIFIER'S VALUE USED
<>                 IDENTIFIER SET AND/OR USED
--                 IDENTIFIER REFERENCED
PL6.E3A0      #001=K_DATA_D File=K_DATA_D.:E05TSI                                WED 07/30/97 03:09 Page:9
          MINI XREF LISTING

K_RWPARM_CON.BLKREC
       443**DCL       468--REDEF
K_RWPARM_CON.BLKREC.BLKU#
       444**DCL       446--REDEF
K_RWPARM_CON.BLKREC.RECU#
       456**DCL       458--REDEF
K_RWPARM_CON.DVE.DVBYTE.VFC
       483**DCL       484--REDEF
K_RWPARM_CON.DVE.EOMCHAR
       491**DCL       495--REDEF
K_RWPARM_CON.ERR
       555**DCL       560--REDEF
K_RWPARM_CON.FC
       519**DCL       520--REDEF
K_RWPARM_CON.FLDID
       701**DCL       702--REDEF
K_RWPARM_CON.FPT$
       582**DCL       589--REDEF
K_RWPARM_CON.KEYTYPE
       708**DCL       709--REDEF
K_RWPARM_CON.MSG$
       418**DCL       424--REDEF
K_RWPARM_CON.MSGID
       530**DCL       535--REDEF
K_RWPARM_CON.MSGIDXT
       543**DCL       547--REDEF
K_RWPARM_CON.ORG
       679**DCL       680--REDEF
K_RWPARM_CON.THDRSZ
       623**DCL       627--REDEF
K_RWPARM_CON.VDOFLGS
       681**DCL       692--REDEF
