PL6.E3A0      #001=LLA$MAIN File=LLA$MAIN.:E05TSI                                WED 07/30/97 03:10 Page:1
        1        1        /*M* LLA$MAIN - Main driver and parser for FEPLINK                  */
        2        2        /*T***********************************************************/
        3        3        /*T*                                                         */
        4        4        /*T* Copyright (c) Bull HN Information Systems Inc., 1997    */
        5        5        /*T*                                                         */
        6        6        /*T***********************************************************/
        7        7        /*X* PLM=4,STI=0,IND=4,CTI=3,DCI=4,ECI=4,CSI=0,THI=0,DTI=0,ENI=4,
        8        8             CLM=0,SQB,NTB,MOC,CCI=3,NLB,MCL=0,EDMC*/
        9        9        /*F* NAME:         LLA$MAIN
       10       10             PURPOSE:      Main driver and parse for FEPLINK
       11       11             DESCRIPTION:  LLA$MAIN primary function is to read the link
       12       12                           command into a buffer, parse the command and
       13       13                           determine whether a link is to be performed
       14       14                           and whether the mapping routines are to be
       15       15                           invoked or not.
       16       16
       17       17                           This module calls LLB$PASS1, LLC$PASS2, LLD$MAP,
       18       18                           LLI$INIT and LLM$MON_SVC.                        */
       19       19        %EJECT;
PL6.E3A0      #001=LLA$MAIN File=LLA$MAIN.:E05TSI                                WED 07/30/97 03:10 Page:2
       20       20        LLA$MAIN: PROC MAIN;
       21       21        %INCLUDE XU_MACRO_C;
       22     3127        %INCLUDE XU_SUBS_C;
       23     3219        %INCLUDE XU_PERR_C;
       24     3410        %INCLUDE B$OBJECT_C;
       25     6840        %INCLUDE U$JIT_C;
       26     7339        %INCLUDE CP_6_SUBS;
       27     7879        %INCLUDE CP_6;
       28    13438        %INCLUDE LL_DATA_R;
       29    13474        %INCLUDE LL_SUBS_C;
       30    13603        %INCLUDE LL_MACS_C;
       31    13957    1   DCL B$JIT$ PTR SYMREF READONLY;
       32    13958         /* MACRO INVOCATIONS */
       33    13959        %MACRO CONFLICT;
       34    13960            CALL LLM$MON_SVC(LL#WRITEDO);
       35    13961            LL_FLAGS.CON_OPT# = '1'B;
       36    13962        %MEND;
       37    13963        %P_PCB ( NAME = PCB,
       38    13964         T = NIL,
       39    13965         R = LLN$NODES,
       40    13966         W = NIL,
       41    13967         U$ = NIL,
       42    13968         WSZ = 0,
       43    13969         N# = 0,
       44    13970         C_LD = ' "',
       45    13971         C_TL = ' "' );
       46    14170        %PARSE$OUT ( NAME = OUT$BLK,
       47    14171         STCLASS = BASED );
       48    14216        %PARSE$SYM ( NAME = OUT$SYM,
       49    14217         STCLASS = BASED );
       50    14255        %B$HEAD ( NAME = LL_HEAD,
       51    14256         STCLASS = SYMREF );
       52    14456        %B$RUHEADKEY ( STCLASS = STATIC );
       53    14463        %B$RUBIRTH ( STCLASS = SYMREF, COUNTINIT = " /**/ " );
       54    14472        %RU_FLAVORS;
       55    14478        %LL$RUBIRTHKEY ( NAME = B$RUBIRTHKEY );
       56    14496        %LL_SRCH( STCLASS=STATIC SYMDEF);
PL6.E3A0      #001=LLA$MAIN File=LLA$MAIN.:E05TSI                                WED 07/30/97 03:10 Page:3
       57    14518        %FPT_FID ( FPTN = FPT_FID,
       58    14519         ACCT = VLP_ACCT,
       59    14520         PASS = VLP_PASS,
       60    14521         TEXTFID = TEXTFID,
       61    14522         RESULTS = FID_RESULTS,
       62    14523         SN = VLP_SN,
       63    14524         WSN = VLP_WSN,
       64    14525        RES = RES, /* Just makes M$FID happy */
       65    14526        ASN = ASN ); /* Ditto */
       66    14549        %VLP_ACCT ( FPTN = VLP_ACCT );
       67    14562        %VLP_PASS ( FPTN = VLP_PASS );
       68    14575        %VLP_WSN;
       69    14588        %VLP_SN;
       70    14601        %VLR_FID ( FPTN = FID_RESULTS );
       71    14620    1   DCL RES CHAR(4) STATIC ALIGNED;
       72    14621    1   DCL ASN UBIN BYTE STATIC;
       73    14622    1   DCL TEXTFID CHAR(64) STATIC ALIGNED;
       74    14623         /* LOCAL DATA */
       75    14624    1   DCL X$PARSE ENTRY(1) ALTRET;
       76    14625    1   DCL LLP$PRE_PROCESS ENTRY (2) ALTRET;
       77    14626    1   DCL ERR_TXT CHAR(13) ALIGNED;
       78    14627    1   DCL LO_LEN UBIN WORD ALIGNED;
       79    14628    1   DCL HI_LEN UBIN WORD ALIGNED;
       80    14629    1   DCL LO_START UBIN WORD ALIGNED;
       81    14630    1   DCL HI_START UBIN WORD ALIGNED;
       82    14631    1   DCL TXT CHAR(16383) BASED UNAL;
       83    14632    1   DCL LLB$PASS1 ENTRY(1);
       84    14633    1   DCL LLC$PASS2 ENTRY(1);
       85    14634    1   DCL LLD$MAP ENTRY(1);
       86    14635    1   DCL LLI$INIT ENTRY(0);
       87    14636    1   DCL LLM$MON_SVC ENTRY(4) ALTRET;
       88    14637    1   DCL LLH$HEXBIN ENTRY(3);
       89    14638    1   DCL LLF$FILLSI ENTRY(5);
       90    14639    1   DCL LLS$SATREF ENTRY(8);
       91    14640    1   DCL LLT$INIT_TV ENTRY;
       92    14641    1   DCL LLT$FINISH_VECTOR ENTRY;
       93    14642    1   DCL BLANK CHAR(1) BASED UNAL;
PL6.E3A0      #001=LLA$MAIN File=LLA$MAIN.:E05TSI                                WED 07/30/97 03:10 Page:4
       94    14643    1   DCL KSTR CHAR(4);
       95    14644    1   DCL TPTR1$ PTR;
       96    14645    1   DCL LLN$NODES UBIN WORD ALIGNED SYMREF;
       97    14646    1   DCL TPTR$ PTR;
       98    14647    1   DCL LEN UBIN WORD ALIGNED;
       99    14648    1   DCL EDIT_KEY UBIN WORD ALIGNED;
      100    14649    1   DCL TLEN UBIN WORD ALIGNED;
      101    14650    1   DCL LINK_BUF CHAR(256) BASED UNAL;
      102    14651    1   DCL LINK_CHAR(0:255) CHAR(1) BASED UNAL;
      103    14652    1   DCL I UBIN WORD ALIGNED;
      104    14653    1   DCL 1 OU_FID(0:0) BASED ALIGNED,
      105    14654    1         2 NAME CHAR(50),
      106    14655    1         2 BIAS SBIN WORD;
      107    14656    1   DCL TEMP UBIN WORD ALIGNED;
      108    14657    1   DCL TEMP1 SBIN;
      109    14658    1   DCL LOCK SBIN;
      110    14659    1   DCL NAME CHAR(32);
      111    14660    1   DCL CHAR_ARY(0:0) CHAR(1) BASED UNAL;
      112    14661    1   DCL X UBIN WORD ALIGNED;
      113    14662    1   DCL 1 TEXT BASED ALIGNED,
      114    14663    1         2 COUNT UBIN BYTE UNAL,
      115    14664    1         2 NAME CHAR(TEXT.COUNT) UNAL;
      116    14665    1   DCL 1 HEADKEY STATIC ALIGNED,
      117    14666    1         2 COUNT UBIN BYTE UNAL INIT(4),
      118    14667    1         2 TEXT CHAR(4) UNAL INIT('HEAD');
      119    14668    1   DCL CHAR_STR CHAR(5) ALIGNED;
      120    14669    1   DCL B_CHAR_STR CHAR(5) UNAL BASED;
      121    14670    1   DCL 1 VECTOR_LIST BASED ALIGNED,
      122    14671    1         2 SIZEW1 UBIN HALF UNAL,
      123    14672    1         2 SIZEW2 UBIN HALF UNAL;
      124    14673    1   DCL NAME1$ PTR;
      125    14674    1   DCL NAME2$ PTR;
      126    14675    1   DCL AVAIL$ PTR;
      127    14676    1   DCL SIZEW1 UBIN(36) ALIGNED;
      128    14677    1   DCL SIZEW2 UBIN(36) ALIGNED;
      129    14678        %B$DNAME;
      130    14697    1   DCL SIZE UBIN(36) ALIGNED;
PL6.E3A0      #001=LLA$MAIN File=LLA$MAIN.:E05TSI                                WED 07/30/97 03:10 Page:5
      131    14698        %EJECT;
PL6.E3A0      #001=LLA$MAIN File=LLA$MAIN.:E05TSI                                WED 07/30/97 03:10 Page:6
      132    14699    1   START:
      133    14700    2       IF (NOT LL_FLAGS.LINK_FID#) THEN DO;
      134    14701    2           CALL LLM$MON_SVC (LL#INIT, PCB.TEXT$, TPTR$, LEN);
      135    14702    2           PCB.TEXT$ -> LINK_BUF = TPTR$ -> LINK_BUF;
      136    14703    2           END;
      137    14704    2       ELSE DO;
      138    14705    2           CALL LLM$MON_SVC (LL#READCF, PCB.TEXT$, LEN, EDIT_KEY);
      139    14706    2           CALL LLF$FILLSI (LL_LOBUF, PCB.TEXT$, EDIT_KEY, LL_TYPE, LEN);
      140    14707    2           CALL LLM$MON_SVC (LL#WRITELO);
      141    14708    2           CALL LLP$PRE_PROCESS (PCB.TEXT$->TXT, LEN);
      142    14709    2           END;
      143    14710    1       TPTR$ = PCB.TEXT$;
      144    14711    1       TLEN = 0;
      145    14712    2       DO WHILE (TPTR$ -> LINK_CHAR(LEN - 1) = ';');
      146    14713    2           TPTR$ -> LINK_CHAR(LEN - 1) = ' ';
      147    14714    2           TLEN = TLEN + LEN;
      148    14715    2           CALL LLM$MON_SVC (LL#GETMEM, 600, TPTR$);
      149    14716    2           TPTR$ = PINCRC(TPTR$, LEN);
      150    14717    2           CALL LLM$MON_SVC (LL#READCF, TPTR$, LEN, EDIT_KEY)
      151    14718    2              ALTRET (SYN_ERR);
      152    14719    2           CALL LLF$FILLSI (LL_LOBUF, TPTR$, EDIT_KEY, LL_TYPE, LEN);
      153    14720    3           IF (LL_FLAGS.LINK_FID#) THEN DO;
      154    14721    3               CALL LLM$MON_SVC (LL#WRITELO);
      155    14722    3               CALL LLP$PRE_PROCESS (TPTR$->TXT, LEN);
      156    14723    3               END;
      157    14724    2           END;
      158    14725    1       PCB.NCHARS = LEN + TLEN;
      159    14726    1       PCB.WKSZ = 1024;
      160    14727    1       PCB.WORK$ = PINCRW(PCB.TEXT$, (PCB.NCHARS + 3) / 4);
      161    14728    1       CALL LLM$MON_SVC (LL#GETMEM, 1024, PCB.WORK$);
      162    14729    1   PARSE:
      163    14730    1       CALL X$PARSE (PCB) ALTRET (SYN_ERR);
      164    14731    1       CALL LLM$MON_SVC (LL#CLOSESI);
      165    14732    1       LL_OF$ = PINCRW (PCB.WORK$, PCB.WK_USED);
      166    14733    1       I = (PCB.OUT$->OUT$BLK.NSUBLKS + 1) * (SIZEW(OU_FID.NAME(0)));
      167    14734    1       CALL LLM$MON_SVC ( LL#GETMEM, I, LL_OF$ );
      168    14735    1       AVAIL$ = PINCRW(LL_OF$,I);
PL6.E3A0      #001=LLA$MAIN File=LLA$MAIN.:E05TSI                                WED 07/30/97 03:10 Page:7
      169    14736    1       I = 0;
      170    14737    2       DO CASE (PCB.OUT$ -> OUT$BLK.CODE);
      171    14738    2       CASE (LL#LINK_COM);
      172    14739         /* Plain vanilla link command -
      173    14740            collect all object file names
      174    14741            if only one object file, check for wildcard name
      175    14742            if wildcard, then scan acct directory for suitable
      176    14743            files */
      177    14744    3           DO WHILE I < PCB.OUT$->OUT$BLK.NSUBLKS;
      178    14745    3               IF PCB.OUT$->OUT$BLK.SUBLK$(I)->OUT$BLK.CODE ~= LL#LINK_OU
      179    14746    3               THEN EXIT;
      180    14747    3               LL_OF$->OU_FID.NAME(I) = PCB.OUT$->OUT$BLK.SUBLK$(I)->
      181    14748    3                  OUT$BLK.SUBLK$(0)->OUT$SYM.TEXT;
      182    14749    3               IF PCB.OUT$->OUT$BLK.SUBLK$(I)->OUT$BLK.NSUBLKS= 2
      183    14750    3               THEN
      184    14751    4               DO;
      185    14752    4                   TPTR$= PCB.OUT$->OUT$BLK.SUBLK$(I)->OUT$BLK.SUBLK$(1)->OUT$BLK.
             14752                            SUBLK$(0);
      186    14753    4                   CALL LLH$HEXBIN(TEMP,TPTR$->OUT$SYM.COUNT,
      187    14754    4                      TPTR$->OUT$SYM.TEXT);
      188    14755    4                   IF LL_FLAGS.BAD_HEX# THEN
      189    14756    5                   DO;
      190    14757    5                       CALL INSERT(LL_DOBUF,0,,
      191    14758    5                          'A  ***Invalid hexadecimal string in',
      192    14759    5                          'BIAS_OU=', TPTR$->OUT$SYM.TEXT,
      193    14760    5                          ': option ignored');
      194    14761    5                       END; /* FLAG*/
      195    14762    4                   ELSE
      196    14763    5                   DO;
      197    14764    5                       IF (TEMP > 1048575) THEN
      198    14765    6                       DO;
      199    14766    6                           CALL INSERT(LL_DOBUF,0,,
      200    14767    6                              'A  ***Value out of range in ',
      201    14768    6                              'BIAS_OU=', TPTR$->OUT$SYM.TEXT,
      202    14769    6                              ': option ignored');
      203    14770    6                           LL_FLAGS.VAL_ERR# = '1'B;
      204    14771    6                           END;
PL6.E3A0      #001=LLA$MAIN File=LLA$MAIN.:E05TSI                                WED 07/30/97 03:10 Page:8
      205    14772    5                       ELSE
      206    14773    6                       DO;
      207    14774    6                           LL_OF$->OU_FID.BIAS(I) = TEMP;
      208    14775    6                           LL_FLAGS.BIAS_OU = '1'B;
      209    14776    6                           END;
      210    14777    5                       END; /* GOOD HEX */
      211    14778    4                   END;/* IF NSUBLKS=2 */
      212    14779    3               ELSE
      213    14780    3                   LL_OF$->OU_FID.BIAS(I) = -1;
      214    14781    3               I = I + 1;
      215    14782    3               END;
      216    14783    2   OU_LIST_DONE:;
      217    14784    2           LL_NOU = I;
      218    14785    3           IF (LL_NOU = 1) THEN DO;
      219    14786    3               CALL INDEX (TEMP, '?', LL_OF$ -> OU_FID.NAME(0),0)
      220    14787    3                  ALTRET (NOT_WILD_CARD);
      221    14788    3               IF (LL_OF$ -> CHAR_ARY (TEMP+1) ~= ' ' AND
      222    14789    3                  LL_OF$ -> CHAR_ARY (TEMP+1) ~= '.') THEN
      223    14790    3                   GOTO NOT_WILD_CARD;
      224    14791    3               LL_FIRSTFID = SUBSTR(LL_OF$->OU_FID.NAME(0),0,TEMP);
      225    14792    3               TPTR$ = ADDR(LL_LASTFID);
      226    14793    3               TPTR$ -> TEXT.NAME = LL_FIRSTFID;
      227    14794    3               TPTR$ -> TEXT.COUNT = TEMP;
      228    14795    3               CALL INSERT (LL_FIRSTFID, TEMP,,
      229    14796    3                  SUBSTR(LL_OF$->OU_FID.NAME(0), TEMP+1));
      230    14797    3               CALL LLM$MON_SVC (LL#INITSI);
      231    14798    3               LL_SPECFID.COUNT = TEMP;
      232    14799    3               LL_NOU = 0;
      233    14800    4               DO WHILE (TPTR$ -> TEXT.NAME = ADDR(LL_SPECFID) -> TEXT.NAME);
      234    14801    4                   LL_OF$->OU_FID.NAME(LL_NOU) = LL_SPECFID.NAME;
      235    14802    4                   LL_NOU = LL_NOU + 1;
      236    14803    4                   CALL LLM$MON_SVC (LL#NXTFSI);
      237    14804    4                   END;
      238    14805    3               END;
      239    14806    2   NOT_WILD_CARD:
      240    14807    3           IF (LL_NOU = 0) THEN DO;
      241    14808    3               LL_OF$->OU_FID.NAME(0) = '*G';
PL6.E3A0      #001=LLA$MAIN File=LLA$MAIN.:E05TSI                                WED 07/30/97 03:10 Page:9
      242    14809    3               LL_OF$->OU_FID.BIAS(0) = -1;
      243    14810    3               LL_NOU = 1;
      244    14811    3               END;
      245    14812    2       CASE (LL#LINK_FIL);
      246    14813         /* Link command contained in file ...
      247    14814            Restriction:  command may not be another
      248    14815            'LINK fid' command. */
      249    14816    3           IF (LL_FLAGS.LINK_FID#) THEN DO;
      250    14817    3   TRY_OU:     LL_OF$->OU_FID.NAME(0) = LL_FIRSTFID;
      251    14818    3               I = I + 1;
      252    14819    3               LL_OF$->OU_FID.BIAS(0) = -1;
      253    14820    3               GOTO OU_LIST_DONE;
      254    14821    3               END;
      255    14822    2           LL_FLAGS.LINK_FID# = '1'B;
      256    14823    2           CALL LLM$MON_SVC (LL#CLOSESI);
      257    14824    2           LL_FIRSTFID = PCB.OUT$ -> OUT$BLK.SUBLK$(0) -> OUT$SYM.TEXT;
      258    14825    2           CALL LLM$MON_SVC (LL#FID);
      259    14826    2           CALL LLM$MON_SVC (LL#OPENSIFIL) ALTRET(TRY_OU);
      260    14827    2           CALL LLA$MAIN;
      261    14828    2       CASE (LL#LINK_MAP); /* FEPLINK entered via FEPMAP */
      262    14829    2           LL_RUNUNIT = PCB.OUT$ -> OUT$BLK.SUBLK$(0) -> OUT$SYM.TEXT;
      263    14830    2           LL_DOBUF = 'A  ***Duplicate FEPMAP options ignored:';
      264    14831    3           DO I = 1 TO PCB.OUT$ -> OUT$BLK.NSUBLKS - 1;
      265    14832    4               DO CASE (PCB.OUT$ -> OUT$BLK.SUBLK$(I) ->
      266    14833    4                  OUT$BLK.CODE);
      267    14834    4               CASE (LL#NAME);
      268    14835    4                   LL_FLAGS.NAME# = '1'B;
      269    14836    4               CASE (LL#VALUE);
      270    14837    4                   LL_FLAGS.VALUE# = '1'B;
      271    14838    4               CASE (LL#UDEF);
      272    14839    4                   LL_FLAGS.UDEF# = '1'B;
      273    14840    4               CASE (LL#EMPTY);
      274    14841    4                   LL_FLAGS.EMPTY# = '1'B;
      275    14842    4                   END;
      276    14843    3               END;
      277    14844    2           CALL LLM$MON_SVC (LL#OPENRUIN);
      278    14845    2           CALL LLM$MON_SVC (LL#READRU,ADDR(LL_HEAD),SIZEC(LL_HEAD)-1,HEADKEY);
PL6.E3A0      #001=LLA$MAIN File=LLA$MAIN.:E05TSI                                WED 07/30/97 03:10 Page:10
      279    14846    2           CALL LLM$MON_SVC (LL#READRU,ADDR(B$RUBIRTH),SIZEC(B$RUBIRTH)-1,B$RUBIRTHKEY)
             14846                    ;
      280    14847    2           LL_DATA_START = LL_HEAD.BIAS;
      281    14848    2           TEMP = LL_HEAD.BIAS + LL_HEAD.RDATA;
      282    14849    2           IF TEMP > 65536
      283    14850    2           THEN
      284    14851    2               LL_PROC_START = ((TEMP + 65535)/65536)*65536;
      285    14852    2           ELSE
      286    14853    2               LL_PROC_START = ((TEMP + 4095) /4096) *4096;
      287    14854    2           IF LL_HEAD.LIB
      288    14855    2           THEN
      289    14856    2               IF LL_HEAD.VERSION# = 0
      290    14857    2               THEN
      291    14858    2                   LL_PROC_START = BITBIN('60000'X);
      292    14859    2               ELSE
      293    14860    2                   LL_PROC_START = LL_LPROC_START;
      294    14861    2           CALL LLD$MAP (PCB.TEXT$);
      295    14862    2           CALL LLM$MON_SVC (LL#EXIT);
      296    14863    2           END;
      297    14864    1       IF PCB.OUT$ -> OUT$BLK.NSUBLKS > I
      298    14865    2          AND PCB.OUT$ -> OUT$BLK.SUBLK$(I) -> OUT$BLK.CODE >= 100 THEN DO;
      299    14866    2           IF (PCB.OUT$ -> OUT$BLK.SUBLK$(I) -> OUT$BLK.CODE = 101) THEN
      300    14867    2               LL_FLAGS.OVER# = '1'B;
      301    14868    2           LL_RUNUNIT = PCB.OUT$ -> OUT$BLK.SUBLK$(I + 1) -> OUT$SYM.TEXT;
      302    14869    2           I = I + 2;
      303    14870    2           END; ELSE DO;
      304    14871    2           LL_FLAGS.OVER# = '1'B;
      305    14872    2           LL_RUNUNIT = '*L';
      306    14873    2           END;
      307    14874    1       CALL LLM$MON_SVC (LL#OPENRU);
      308    14875    1       LL_HEAD = '0'B;
      309    14876    1       LL_HEAD.BIAS = 65536;
      310    14877    1       LL_HEAD.S = '1'B;
      311    14878         /* Remainder of syntax checks
      312    14879            Check option (subopt) lists for validity */
      313    14880    2       DO X = I TO PCB.OUT$ -> OUT$BLK.NSUBLKS - 1;
      314    14881    3           DO CASE (PCB.OUT$ -> OUT$BLK.SUBLK$(X) -> OUT$BLK.CODE);
PL6.E3A0      #001=LLA$MAIN File=LLA$MAIN.:E05TSI                                WED 07/30/97 03:10 Page:11
      315    14882    3           CASE (LL#PSEUDO); /* Pseudo resourse */
      316    14883    3               TPTR$ = PCB.OUT$->OUT$BLK.SUBLK$(X);
      317    14884    3               IF TPTR$->OUT$BLK.SUBLK$(0)->OUT$SYM.COUNT > 8
      318    14885    3               THEN
      319    14886    4               DO; /* Option ignore */
      320    14887    4                   CALL CONCAT(LL_DOBUF,
      321    14888    4                      'A  ***Illegal pseudo resource name pseudo=',
      322    14889    4                      TPTR$->OUT$BLK.SUBLK$(0)->OUT$SYM.TEXT,
      323    14890    4                      ' :option ignored');
      324    14891    4                   CALL LLM$MON_SVC(LL#WRITEDO);
      325    14892    4                   END;
      326    14893    3               ELSE
      327    14894    4               DO;
      328    14895    4                   LL_HEAD.PSEUDO_TEXT = TPTR$->OUT$BLK.SUBLK$(0)->OUT$SYM.TEXT;
      329    14896    4                   LL_HEAD.PSEUDO_COUNT = 1;
      330    14897    4                   IF TPTR$->OUT$BLK.NSUBLKS = 2
      331    14898    4                   THEN
      332    14899    5                   DO;
      333    14900    5                       CALL CHARBIN(TEMP,TPTR$->OUT$BLK.SUBLK$(1)->OUT$SYM.TEXT);
      334    14901    5                       IF TEMP < 511
      335    14902    5                       THEN
      336    14903    5                           LL_HEAD.PSEUDO_COUNT = TEMP;
      337    14904    5                       ELSE
      338    14905    6                       DO;
      339    14906    6                           CALL CONCAT(LL_DOBUF,
      340    14907    6                              'A ***Number of resnm required ',
      341    14908    6                              TPTR$->OUT$BLK.SUBLK$(1)->OUT$SYM.TEXT,
      342    14909    6                              ' is out of range. 511 is used');
      343    14910    6                           CALL LLM$MON_SVC(LL#WRITEDO);
      344    14911    6                           LL_HEAD.PSEUDO_COUNT = 511;
      345    14912    6                           END;
      346    14913    5                       END;
      347    14914    4                   END;
      348    14915    3           CASE (LL#SL); /* Severity Level */
      349    14916    3               TPTR$ = PCB.OUT$ -> OUT$BLK.SUBLK$(X) -> OUT$BLK.SUBLK$(0);
      350    14917    3               CALL CHARBIN (TEMP, TPTR$ -> OUT$SYM.TEXT );
      351    14918    4               IF TEMP > 15 THEN DO;
PL6.E3A0      #001=LLA$MAIN File=LLA$MAIN.:E05TSI                                WED 07/30/97 03:10 Page:12
      352    14919    4                   CALL CONCAT (LL_DOBUF,
      353    14920    4                      'A  ***Value out of range in SEVERITY=',
      354    14921    4                      TPTR$ -> OUT$SYM.TEXT, ':  option ignored' );
      355    14922    4                   LL_FLAGS.VAL_ERR# = '1'B;
      356    14923    4                   END;
      357    14924    4               ELSE DO;
      358    14925    4                   LL_VAL_SL = TEMP;
      359    14926    4                   END;
      360    14927    3           CASE (LL#DPATCH); /* Data patch area res */
      361    14928    3               TPTR$ = PCB.OUT$ -> OUT$BLK.SUBLK$(X) -> OUT$BLK.SUBLK$(0);
      362    14929    3               CALL CHARBIN ( LL_DPATCH, TPTR$ -> OUT$SYM.TEXT );
      363    14930    4               IF LL_DPATCH > 65535 THEN DO;
      364    14931    4                   LL_DPATCH = 65535;
      365    14932    4                   LL_DOBUF = 'A  ***DPATCH value too high.';
      366    14933    4                   CALL LLM$MON_SVC (LL#WRITEDO);
      367    14934    4                   LL_DOBUF = 'A     Maximum value 65535 used instead.';
      368    14935    4                   CALL LLM$MON_SVC (LL#WRITEDO);
      369    14936    4                   END;
      370    14937    3           CASE (LL#IPATCH);
      371    14938    3               TPTR$ = PCB.OUT$ -> OUT$BLK.SUBLK$(X) -> OUT$BLK.SUBLK$(0);
      372    14939    3               CALL CHARBIN ( LL_IPATCH, TPTR$ -> OUT$SYM.TEXT );
      373    14940    4               IF LL_IPATCH > 65535 THEN DO;
      374    14941    4                   LL_IPATCH = 65535;
      375    14942    4                   LL_DOBUF = 'A  ***IPATCH value too high.';
      376    14943    4                   CALL LLM$MON_SVC (LL#WRITEDO);
      377    14944    4                   LL_DOBUF = 'A     Maximum value 65535 used instead.';
      378    14945    4                   CALL LLM$MON_SVC (LL#WRITEDO);
      379    14946    4                   END;
      380    14947    3           CASE (LL#START); /* Start */
      381    14948    3               TPTR$ = PCB.OUT$ -> OUT$BLK.SUBLK$(X) -> OUT$BLK.SUBLK$(0);
      382    14949    3               CALL LLH$HEXBIN (TEMP, TPTR$ -> OUT$SYM.COUNT,
      383    14950    3                  TPTR$ -> OUT$SYM.TEXT);
      384    14951    4               IF (LL_FLAGS.BAD_HEX#) THEN DO;
      385    14952    4                   CALL INSERT (LL_DOBUF,0,,
      386    14953    4                      'A  ***Invalid hexadecimal string in ',
      387    14954    4                      'START=', TPTR$ -> OUT$SYM.TEXT,
      388    14955    4                      ':  option ignored');
PL6.E3A0      #001=LLA$MAIN File=LLA$MAIN.:E05TSI                                WED 07/30/97 03:10 Page:13
      389    14956    4                   END;
      390    14957    4               ELSE DO;
      391    14958    5                   IF (TEMP > 1048575) THEN DO;
      392    14959    5                       CALL INSERT (LL_DOBUF,0,,
      393    14960    5                          'A  ***Value out of range in ',
      394    14961    5                          'START=', TPTR$ -> OUT$SYM.TEXT,
      395    14962    5                          ':  option ignored');
      396    14963    5                       LL_FLAGS.VAL_ERR# = '1'B;
      397    14964    5                       END;
      398    14965    5                   ELSE DO;
      399    14966    5                       LL_VAL_START = TEMP;
      400    14967    5                       LL_FLAGS.START# = '1'B;
      401    14968    5                       END;
      402    14969    4                   END;
      403    14970    3           CASE (LL#BIAS); /* Bias */
      404    14971    3               IF LL_FLAGS.BIAS_OU
      405    14972    3               THEN
      406    14973    4               DO;
      407    14974    4                   CALL INSERT(LL_DOBUF,0,,
      408    14975    4                      'A Warning: ***OU BIAS is on',
      409    14976    4                      ' RU BIAS ignored***');
      410    14977    4                   CALL LLM$MON_SVC (LL#WRITEDO);
      411    14978    4                   END;
      412    14979    3               ELSE
      413    14980    4               DO;
      414    14981    4                   TPTR$ = PCB.OUT$ -> OUT$BLK.SUBLK$(X) -> OUT$BLK.SUBLK$(0);
      415    14982    4                   CALL LLH$HEXBIN (TEMP, TPTR$ -> OUT$SYM.COUNT,
      416    14983    4                      TPTR$ -> OUT$SYM.TEXT);
      417    14984    5                   IF (LL_FLAGS.BAD_HEX#) THEN DO;
      418    14985    5                       CALL INSERT (LL_DOBUF,0,,
      419    14986    5                          'A  ***Invalid hexadecimal string in ',
      420    14987    5                          'BIAS=', TPTR$ -> OUT$SYM.TEXT,
      421    14988    5                          ':  option ignored');
      422    14989    5                       END;
      423    14990    5                   ELSE DO;
      424    14991    6                       IF (TEMP > 1048575) THEN DO;
      425    14992    6                           CALL INSERT (LL_DOBUF,0,,
PL6.E3A0      #001=LLA$MAIN File=LLA$MAIN.:E05TSI                                WED 07/30/97 03:10 Page:14
      426    14993    6                              'A  ***Value out of range in ',
      427    14994    6                              'BIAS=', TPTR$ -> OUT$SYM.TEXT,
      428    14995    6                              ':  option ignored');
      429    14996    6                           LL_FLAGS.VAL_ERR# = '1'B;
      430    14997    6                           END;
      431    14998    6                       ELSE DO;
      432    14999    6                           LL_VAL_BIAS = TEMP;
      433    15000    6                           LL_FLAGS.BIAS# = '1'B;
      434    15001    6                           END;
      435    15002    5                       END;
      436    15003    4                   END; /* OU BIAS is ON */
      437    15004    3           CASE (LL#NODEBUG);
      438    15005    3               LL_FLAGS.NODEBUG# = '1'B;
      439    15006    3           CASE (LL#MAP);
      440    15007    4               DO TEMP = 0 TO PCB.OUT$ -> OUT$BLK.SUBLK$(X) ->
      441    15008    4                  OUT$BLK.NSUBLKS - 1;
      442    15009    5                   DO CASE (PCB.OUT$ -> OUT$BLK.SUBLK$(X) ->
      443    15010    5                      OUT$BLK.SUBLK$(TEMP) -> OUT$BLK.CODE);
      444    15011    5                   CASE (LL#NAME);
      445    15012    5                       LL_FLAGS.NAME# = '1'B;
      446    15013    5                   CASE (LL#VALUE);
      447    15014    5                       LL_FLAGS.VALUE# = '1'B;
      448    15015    5                   CASE (LL#UDEF);
      449    15016    5                       LL_FLAGS.UDEF# = '1'B;
      450    15017    5                   CASE (LL#EMPTY);
      451    15018    5                       LL_FLAGS.EMPTY# = '1'B;
      452    15019    5                       END;
      453    15020    4                   END;
      454    15021    3               LL_FLAGS.MAP# = '1'B;
      455    15022    3           CASE(LL#TRANSVECT);
      456    15023    3               TPTR$ = PCB.OUT$->OUT$BLK.SUBLK$(X);
      457    15024    4               DO TEMP = 0 TO TPTR$->OUT$BLK.NSUBLKS - 1;
      458    15025    5                   DO CASE(TPTR$->OUT$BLK.SUBLK$(TEMP)->OUT$BLK.CODE);
      459    15026    5                   CASE(LL#REMOVE_ENTDEF);
      460    15027    5                       LL_FLAGS.REMOVE_E# = '1'B;
      461    15028    5                   CASE(LL#REMOVE_SYMDEF);
      462    15029    5                       LL_FLAGS.REMOVE_S# = '1'B;
PL6.E3A0      #001=LLA$MAIN File=LLA$MAIN.:E05TSI                                WED 07/30/97 03:10 Page:15
      463    15030    5                   CASE(LL#DATA);
      464    15031    5                       CALL CHARBIN(LL_VECTOR_DATA,TPTR$->OUT$BLK.SUBLK$(TEMP)->OUT$BLK
             15031                                .SUBLK$(0)->OUT$SYM.TEXT);
      465    15032    5                   CASE(LL#RF);
      466    15033    5                       TEXTFID = TPTR$->OUT$BLK.SUBLK$(TEMP)->OUT$BLK.SUBLK$(0)->
             15033                                OUT$SYM.TEXT;
      467    15034    5                       FPT_FID.NAME_ = VECTOR(LL_VECTOR_RF);
      468    15035    5                       CALL M$FID(FPT_FID) ALTRET(BAD_RF);
      469    15036    5                       LL_VECTOR_RF = TEXTFID;
      470    15037    6                       IF NOT FID_RESULTS.NAME THEN DO;
      471    15038    6   BAD_RF:
      472    15039    6                           LL_DOBUF =
             15039                                    'A   *** Vector suboption RF must specify file name';
      473    15040    6                           CALL LLM$MON_SVC(LL#WRITEDO);
      474    15041    6                           LL_DOBUF = 'A       option ignored';
      475    15042    6                           CALL LLM$MON_SVC(LL#WRITEDO);
      476    15043    6                           END;
      477    15044    5                       ELSE
      478    15045    5                           LL_FLAGS.RF# = '1'B;
      479    15046    5                   CASE(LL#ENTRY);
      480    15047    5                       LL_LIST_SIZE = TPTR$->OUT$BLK.SUBLK$(TEMP)->OUT$BLK.NSUBLKS;
      481    15048    6                       DO LEN = 0 TO LL_LIST_SIZE - 1;
      482    15049    6                           TPTR1$ = TPTR$->OUT$BLK.SUBLK$(TEMP)->OUT$BLK.SUBLK$(LEN);
      483    15050    6                           IF TPTR1$->OUT$BLK.CODE = LL#TV_EMPTY THEN
      484    15051    7                           DO;
      485    15052    7                               CALL CHARBIN(SIZEW2,TPTR1$->OUT$BLK.SUBLK$(0)->OUT$SYM.
             15052                                        TEXT);
      486    15053    7                               CALL LLM$MON_SVC(LL#GETMEM,1,AVAIL$);
      487    15054    7                               IF LL_LIST$ = ADDR(NIL)
      488    15055    7                               THEN LL_LIST$ = AVAIL$;
      489    15056    7                               AVAIL$->VECTOR_LIST.SIZEW1 = 0;
      490    15057    7                               AVAIL$->VECTOR_LIST.SIZEW2 = SIZEW2;
      491    15058    7                               AVAIL$ = PINCRW(AVAIL$,1);
      492    15059    7                               END;
      493    15060    7                           ELSE DO; /* ENTRY NAMES */
      494    15061    7                               IF TPTR1$->OUT$BLK.CODE = LL#TV_ENTRY_NAME THEN
      495    15062    8                               DO;
PL6.E3A0      #001=LLA$MAIN File=LLA$MAIN.:E05TSI                                WED 07/30/97 03:10 Page:16
      496    15063    8                                   NAME1$ = TPTR1$->OUT$BLK.SUBLK$(0);
      497    15064    8                                   SIZEW1 = (NAME1$->TEXT.COUNT + 5) / 4;
      498    15065    8                                   SIZEW2 = 0;
      499    15066    8                                   END;
      500    15067    8                               ELSE DO; /* RANGE NAME */
      501    15068    8                                   NAME1$= TPTR1$->OUT$BLK.SUBLK$(0)->OUT$BLK.SUBLK$(0)
             15068                                            ;
      502    15069    8                                   SIZEW1 = (NAME1$->TEXT.COUNT + 5) / 4;
      503    15070    8                                   NAME2$= TPTR1$->OUT$BLK.SUBLK$(1)->OUT$BLK.SUBLK$(0)
             15070                                            ;
      504    15071    8                                   SIZEW2 = (NAME2$->TEXT.COUNT + 5)/4;
      505    15072    8                                   END; /* RANGE NAME */
      506    15073    7                               SIZE = SIZEW1 + SIZEW2 + 1;
      507    15074    7                               CALL LLM$MON_SVC(LL#GETMEM,SIZE,AVAIL$);
      508    15075    7                               IF LL_LIST$ = ADDR(NIL)
      509    15076    7                               THEN LL_LIST$ = AVAIL$;
      510    15077    7                               AVAIL$->VECTOR_LIST.SIZEW1 = SIZEW1;
      511    15078    7                               AVAIL$->VECTOR_LIST.SIZEW2 = SIZEW2;
      512    15079    7                               AVAIL$ = PINCRW(AVAIL$,1);
      513    15080    7                               AVAIL$->B$DNAME.COUNT = NAME1$->TEXT.COUNT;
      514    15081    7                               AVAIL$->B$DNAME.TEXT = NAME1$->TEXT.NAME;
      515    15082    7                               AVAIL$ = PINCRW(AVAIL$,SIZEW1);
      516    15083    7                               IF SIZEW2 > 0 THEN
      517    15084    8                               DO;
      518    15085    8                                   AVAIL$->B$DNAME.COUNT = NAME2$->TEXT.COUNT;
      519    15086    8                                   AVAIL$->B$DNAME.TEXT = NAME2$->TEXT.NAME;
      520    15087    8                                   AVAIL$ = PINCRW(AVAIL$,SIZEW2);
      521    15088    8                                   END;
      522    15089    7                               END;
      523    15090    6                           END; /* DO LEN = */
      524    15091    5                       END;
      525    15092    4                   END;
      526    15093    3               LL_FLAGS.VECTOR# = '1'B;
      527    15094    3               CALL LLT$INIT_TV;
      528    15095    3               LL_TOPOMEM$ = AVAIL$;
      529    15096    3           CASE (LL#NOLIST);
      530    15097    3               LL_FLAGS.NOLIST# = '1'B;
PL6.E3A0      #001=LLA$MAIN File=LLA$MAIN.:E05TSI                                WED 07/30/97 03:10 Page:17
      531    15098    3           CASE (LL#LAUTO);
      532    15099    3               LL_HEAD.LAUTO = '1'B;
      533    15100    3           CASE (LL#FLAVOR);
      534    15101    3               LL_VAL_FLAVOR = PCB.OUT$->OUT$BLK.SUBLK$(X)->OUT$BLK.SUBLK$(0)->OUT$BLK.
             15101                        CODE;
      535    15102    4               DO CASE(LL_VAL_FLAVOR);
      536    15103    4               CASE(LL#USER);
      537    15104    4               CASE(LL#CP);
      538    15105    4               CASE(LL#DB);
      539    15106    4                   LL_HEAD.DEBUGGER = '1'B;
      540    15107    4               CASE(LL#SYSTEM);
      541    15108    4               CASE(LL#HANDLER);
      542    15109    4               CASE(LL#SLIB);
      543    15110    4                   LL_FLAGS.SLIB# = '1'B;
      544    15111    4                   END;
      545    15112    3           CASE (LL#TCB);
      546    15113    3               TPTR$ = PCB.OUT$ -> OUT$BLK.SUBLK$(X) -> OUT$BLK.SUBLK$(0);
      547    15114    3               CALL CHARBIN ( TEMP, TPTR$ -> OUT$SYM.TEXT );
      548    15115    3               LL_HEAD.TCBSIZE = TEMP;
      549    15116    3               IF TEMP > 0 THEN LL_FLAGS.TCB# = '1'B;
      550    15117    3           CASE (LL#DCBSLOTS);
      551    15118    3               TPTR$ = PCB.OUT$ -> OUT$BLK.SUBLK$(X) -> OUT$BLK.SUBLK$(0);
      552    15119    3               CALL CHARBIN ( TEMP, TPTR$ -> OUT$SYM.TEXT );
      553    15120    3               LL_HEAD.DCBRES = TEMP;
      554    15121    3               IF TEMP > 0 THEN LL_FLAGS.DCBSLOT# = '1'B;
      555    15122    3           CASE (LL#SHL);
      556    15123    3               TPTR$ = PCB.OUT$ -> OUT$BLK.SUBLK$(X);
      557    15124    3               LL_FLAGS.NOSH# = '1'B;
      558    15125    3               IF TPTR$->OUT$BLK.SUBLK$(0)->OUT$BLK.CODE ~= LL#YES THEN EXIT;
      559    15126    3               LL_FLAGS.NOSH# = '0'B;
      560    15127    3               TPTR$ = TPTR$ -> OUT$BLK.SUBLK$(0) -> OUT$BLK.SUBLK$(0);
      561    15128    3               TEXTFID = TPTR$ -> OUT$SYM.TEXT;
      562    15129    3               LL_SLIB_NAME = TPTR$->OUT$SYM.TEXT;
      563    15130    3               FPT_FID.NAME_ = VECTOR(LL_HEAD.LIBNAME);
      564    15131    3               CALL M$FID (FPT_FID) ALTRET (SAY_BADLIB);
      565    15132    4               IF NOT FID_RESULTS.NAME THEN DO;
      566    15133    4   SAY_BADLIB:     LL_DOBUF = 'A  *** SHARELIB option must specify a file name.';
PL6.E3A0      #001=LLA$MAIN File=LLA$MAIN.:E05TSI                                WED 07/30/97 03:10 Page:18
      567    15134    4                   CALL LLM$MON_SVC (LL#WRITEDO);
      568    15135    4                   LL_DOBUF = 'A     Option ignored.';
      569    15136    4                   CALL LLM$MON_SVC (LL#WRITEDO);
      570    15137    4                   END;
      571    15138    3               ELSE LL_FLAGS.SHARELIB# = '1'B;
      572    15139    3           CASE (LL#VERS);
      573    15140    3               TPTR$ = PCB.OUT$ -> OUT$BLK.SUBLK$(X) -> OUT$BLK.SUBLK$(0);
      574    15141    3               LL_VERSION.SIZE = TPTR$ -> OUT$SYM.COUNT;
      575    15142    3               LL_VERSION.TEXT = TPTR$ -> OUT$SYM.TEXT;
      576    15143    3           CASE (LL#NOEDIT);
      577    15144    3               LL_FLAGS.NOEDITING# = '1'B;
      578    15145    3           CASE( %LL#NOCH );
      579    15146    3               LL_HEAD.NOCHGPMEM = '1'B;
      580    15147    3           CASE( %LL#PROCACC );
      581    15148    3               LL_HEAD.PROCACC = '1'B;
      582    15149    3           CASE( %LL#SHAREA );
      583    15150    3               LL_HEAD.S = '1'B;
      584    15151    3           CASE( %LL#NSHAREA );
      585    15152    3               LL_HEAD.S = '0'B;
      586    15153    3           CASE( %LL#SURCHARGE );
      587    15154    3               LL_HEAD.PROCSURCHG = '1'B;
      588    15155    3           CASE( %LL#SLOCK, %LL#WLOCK );
      589    15156    3               LL_HEAD.RESTPROC = '1'B;
      590    15157    3               TPTR$ = PCB.OUT$->OUT$BLK.SUBLK$(X);
      591    15158    3               IF TPTR$->OUT$BLK.CODE = %LL#SLOCK
      592    15159    4               THEN DO;
      593    15160    4                   LL_HEAD.STRONG_LOCK = '1'B;
      594    15161    4                   END;
      595    15162    3               TEMP1 = TPTR$->OUT$BLK.NSUBLKS - 1;
      596    15163    4               DO TEMP = 0 TO TEMP1;
      597    15164    4                   CALL CHARBIN( LOCK,
      598    15165    4                      TPTR$->OUT$BLK.SUBLK$(TEMP)->OUT$SYM.TEXT );
      599    15166    4                   IF LOCK < 1 OR LOCK > 72
      600    15167    5                   THEN DO;
      601    15168    5                       CALL CONCAT( LL_DOBUF,
      602    15169    5                          'A  ** Illegal lock value ignored: ',
      603    15170    5                          TPTR$->OUT$BLK.SUBLK$(TEMP)->OUT$SYM.TEXT );
PL6.E3A0      #001=LLA$MAIN File=LLA$MAIN.:E05TSI                                WED 07/30/97 03:10 Page:19
      604    15171    5                       CALL LLM$MON_SVC( LL#WRITEDO );
      605    15172    5                       END;
      606    15173    5                   ELSE DO;
      607    15174    5                       LL_HEAD.LOCK( LOCK - 1 ) = '1'B;
      608    15175    5                       END;
      609    15176    4                   END;
      610    15177    3           CASE( %LL#PRIVS );
      611    15178    3               TPTR$ = PCB.OUT$->OUT$BLK.SUBLK$(X);
      612    15179    3               TEMP1 = TPTR$->OUT$BLK.NSUBLKS - 1;
      613    15180    4               DO TEMP = 0 TO TEMP1;
      614    15181    5                   DO CASE TPTR$->OUT$BLK.SUBLK$(TEMP)->OUT$BLK.CODE;
      615    15182    5                   CASE( %LL#CQ );
      616    15183    5                       LL_HEAD.PRIV = LL_HEAD.PRIV | %PR_CQ#;
      617    15184    5                   CASE( %LL#EXMM );
      618    15185    5                       LL_HEAD.PRIV = LL_HEAD.PRIV | %PR_EXMM#;
      619    15186    5                   CASE( %LL#EXPM );
      620    15187    5                       LL_HEAD.PRIV = LL_HEAD.PRIV | %PR_EXPM#;
      621    15188    5                   CASE( %LL#FMREAD );
      622    15189    5                       LL_HEAD.PRIV = LL_HEAD.PRIV | %PR_FMREAD#;
      623    15190    5                   CASE( %LL#FMSEC );
      624    15191    5                       LL_HEAD.PRIV = LL_HEAD.PRIV | %PR_FMSEC#;
      625    15192    5                   CASE( %LL#GPP );
      626    15193    5                       LL_HEAD.PRIV = LL_HEAD.PRIV | %PR_GPP#;
      627    15194    5                   CASE( %LL#INTCON );
      628    15195    5                       LL_HEAD.PRIV = LL_HEAD.PRIV | %PR_INTCON#;
      629    15196    5                   CASE( %LL#MAXM );
      630    15197    5                       LL_HEAD.PRIV = LL_HEAD.PRIV | %PR_MAXMEM#;
      631    15198    5                   CASE( %LL#MSYS );
      632    15199    5                       LL_HEAD.PRIV = LL_HEAD.PRIV | %PR_MSYS#;
      633    15200    5                   CASE( %LL#SCREECH );
      634    15201    5                       LL_HEAD.PRIV = LL_HEAD.PRIV | %PR_SCREECH#;
      635    15202    5                   CASE( %LL#SNAP );
      636    15203    5                       LL_HEAD.PRIV = LL_HEAD.PRIV | %PR_SNAP#;
      637    15204    5                   CASE( %LL#SPCLMM );
      638    15205    5                       LL_HEAD.PRIV = LL_HEAD.PRIV | %PR_SPCLMM#;
      639    15206    5                   CASE( %LL#SYSLOG );
      640    15207    5                       LL_HEAD.PRIV = LL_HEAD.PRIV | %PR_SYSLOG#;
PL6.E3A0      #001=LLA$MAIN File=LLA$MAIN.:E05TSI                                WED 07/30/97 03:10 Page:20
      641    15208    5                   CASE( %LL#TND );
      642    15209    5                       LL_HEAD.PRIV = LL_HEAD.PRIV | %PR_TND#;
      643    15210    5                       END;
      644    15211    4                   END;
      645    15212    3           CASE( %LL#SEARCH );
      646    15213    3               TPTR$ = PCB.OUT$->OUT$BLK.SUBLK$(X);
      647    15214    3               TEMP1 = TPTR$->OUT$BLK.NSUBLKS - 1;
      648    15215    3               IF TEMP1 > %(LL_MAX_SRCH-1)
      649    15216    4               THEN DO;
      650    15217    4                   LL_DOBUF = 'A  ** Maximum number of search accounts is 10.';
      651    15218    4                   CALL LLM$MON_SVC( LL#WRITEDO );
      652    15219    4                   TEMP1 = %(LL_MAX_SRCH-1);
      653    15220    4                   END;
      654    15221
      655    15222    3               FPT_FID.NAME_ = VECTOR(NAME);
      656    15223    3               LL_SRCH.NUM = 0;
      657    15224
      658    15225    4               DO TEMP = 0 TO TEMP1;
      659    15226    4                   TEXTFID = TPTR$->OUT$BLK.SUBLK$(TEMP)->OUT$SYM.TEXT;
      660    15227    4                   CALL M$FID( FPT_FID ) ALTRET( BAD_SRCH );
      661    15228    4                   IF NOT FID_RESULTS.ACCT OR
      662    15229    4                      FID_RESULTS.NAME OR
      663    15230    4                      FID_RESULTS.PASS OR
      664    15231    4                      FID_RESULTS.WSN OR
      665    15232    4                      ASN ~= %FILE#
      666    15233    5                   THEN DO;
      667    15234    5   BAD_SRCH:           ;
      668    15235    5                       CALL CONCAT( LL_DOBUF,
      669    15236    5                          'A  ** Invalid account in SRCH list ignored:',
      670    15237    5                          TPTR$->OUT$BLK.SUBLK$(TEMP)->OUT$SYM.TEXT );
      671    15238    5                       CALL LLM$MON_SVC( LL#WRITEDO );
      672    15239    5                       END;
      673    15240    5                   ELSE DO;
      674    15241    5                       LL_SRCH.ACCT(LL_SRCH.NUM) = VLP_ACCT.ACCT#;
      675    15242    5                       LL_SRCH.SN(LL_SRCH.NUM) = VLP_SN.SN#(0);
      676    15243    5                       LL_SRCH.NUM = LL_SRCH.NUM + 1;
      677    15244    5                       END;
PL6.E3A0      #001=LLA$MAIN File=LLA$MAIN.:E05TSI                                WED 07/30/97 03:10 Page:21
      678    15245    4                   END; /* Loop over search list */
      679    15246    3               END;
      680    15247    3           IF LL_FLAGS.VAL_ERR# THEN DO;
      681    15248    3               CALL LLM$MON_SVC (LL#WRITEDO);
      682    15249    3               LL_FLAGS.VAL_ERR# = '0'B;
      683    15250    3               END;
      684    15251    2           END;
      685    15252    1       IF LL_HEAD.TCBSIZE < 3 THEN LL_HEAD.TCBSIZE = 3;
      686    15253    1       LL_HEAD.FLAVOR = %FEP_RU;
      687    15254    1       LL_HEAD.VERSION# = LL_HEAD_VERSION; /* feplink version */
      688    15255    2       IF (LL_FLAGS.START# AND (LL_VAL_START < LL_VAL_BIAS)) THEN DO;
      689    15256    2           LL_DOBUF = 'A  ***Start address not contained in program area';
      690    15257    2           CALL LLM$MON_SVC (LL#WRITEDO);
      691    15258    2           END;
      692    15259    1       LL_BOTOMEM$ = PCB.TEXT$;
      693    15260    1       IF LL_FLAGS.NOEDITING#
      694    15261    1       THEN
      695    15262    2       DO;
      696    15263    2           IF LL_FLAGS.SLIB#
      697    15264    2           THEN
      698    15265    3           DO;
      699    15266    3               LL_DOBUF ='A *** Option NOEDITING is in conflict with option SLIB';
      700    15267                    %CONFLICT;
      701    15271    3               END;
      702    15272    2           IF LL_FLAGS.TCB# OR LL_FLAGS.DCBSLOT# THEN
      703    15273    3           DO;
      704    15274    3               LL_DOBUF =
             15274                        'A *** Option NOEDTING is in conflict with option TCB or DCBSLOT';
      705    15275                    %CONFLICT;
      706    15279    3               END;
      707    15280    2           END;
      708    15281    1       IF LL_FLAGS.VECTOR# AND NOT LL_FLAGS.SLIB#
      709    15282    1       THEN
      710    15283    2       DO;
      711    15284    2           LL_DOBUF = 'A   *** The Vector option was specified, but SLIB option was';
      712    15285    2           CALL LLM$MON_SVC(LL#WRITEDO);
      713    15286    2           LL_DOBUF = 'A       not specified, SLIB option assumed.';
PL6.E3A0      #001=LLA$MAIN File=LLA$MAIN.:E05TSI                                WED 07/30/97 03:10 Page:22
      714    15287    2           CALL LLM$MON_SVC(LL#WRITEDO);
      715    15288    2           LL_FLAGS.SLIB# = '1'B;
      716    15289    2           END;
      717    15290    1       IF LL_FLAGS.SLIB#
      718    15291    1       THEN
      719    15292    2       DO;
      720    15293    2           IF LL_FLAGS.BIAS#
      721    15294    2           THEN
      722    15295    3           DO;
      723    15296    3               IF LL_VAL_BIAS ~= LL#SLIB_DBIAS
      724    15297    3               THEN
      725    15298    4               DO;
      726    15299    4                   LL_DOBUF ='A *** Invalid BIAS for shared library generation';
      727    15300                        %CONFLICT;
      728    15304    4                   END;
      729    15305    3               END;
      730    15306    2           IF LL_FLAGS.SHARELIB#
      731    15307    2           THEN
      732    15308    3           DO;
      733    15309    3               LL_DOBUF ='A *** Option SLIB is in conflict with option SHAREDLIB';
      734    15310                    %CONFLICT;
      735    15314    3               END;
      736    15315    2           IF LL_FLAGS.TCB# OR LL_FLAGS.DCBSLOT#
      737    15316    2           THEN
      738    15317    3           DO;
      739    15318    3               LL_DOBUF = 'A *** Option SLIB is in conflict with option TCB or DCBSLOT'
             15318                        ;
      740    15319                    %CONFLICT;
      741    15323    3               END;
      742    15324    2           IF LL_FLAGS.BIAS_OU
      743    15325    2           THEN
      744    15326    3           DO;
      745    15327    3               LL_DOBUF = 'A *** Option SLIB is in conflict with option BIAS BY OU';
      746    15328                    %CONFLICT;
      747    15332    3               END;
      748    15333    2           END;
      749    15334    1       IF LL_FLAGS.BIAS_OU
PL6.E3A0      #001=LLA$MAIN File=LLA$MAIN.:E05TSI                                WED 07/30/97 03:10 Page:23
      750    15335    1       THEN
      751    15336    2       DO;
      752    15337    2           IF LL_FLAGS.SHARELIB#
      753    15338    2           THEN
      754    15339    3           DO;
      755    15340    3               LL_DOBUF = 'A *** Option SHARELIB is in conflict with option BIAS BY OU'
             15340                        ;
      756    15341                    %CONFLICT;
      757    15345    3               END;
      758    15346    2           END;
      759    15347    1       IF LL_FLAGS.CON_OPT#
      760    15348    1       THEN
      761    15349    1           CALL LLM$MON_SVC(LL#ERR);
      762    15350    1       LL_HEAD.LIB = LL_FLAGS.SLIB#;
      763    15351    1       CALL LLB$PASS1 (PCB.TEXT$);
      764    15352    2       IF LL_START$ = ADDR(NIL) AND NOT LL_FLAGS.SLIB# THEN DO;
      765    15353    2           LL_DOBUF = 'A  ** No start address specified for the target RU.';
      766    15354    2           CALL LLM$MON_SVC ( LL#WRITEDO );
      767    15355    2           END;
      768    15356    2       IF ( LL_HEAD.SEV > LL_VAL_SL ) THEN DO;
      769    15357    2           CALL LLA$SAY_SEV;
      770    15358    2           LL_DOBUF = 'A  ***Severity level exceeded after PASS1:  Run file not built';
      771    15359    2   FAIL:
      772    15360    2           CALL LLM$MON_SVC ( LL#WRITEDO );
      773    15361    2           CALL LLM$MON_SVC ( LL#ERR );
      774    15362    2           END;
      775    15363    1       LL_TOPOMEM$ = PCB.TEXT$;
      776    15364    1       CALL LLC$PASS2 (LL_TOPOMEM$);
      777    15365    1       CALL LLA$SAY_SEV;
      778    15366    2       IF (LL_HEAD.SEV > LL_VAL_SL) THEN DO;
      779    15367    2           LL_DOBUF = 'A  ***Severity level exceeded:  Run file not built';
      780    15368    2           CALL LLM$MON_SVC (LL#WRITEDO);
      781    15369    2           END;
      782    15370    1       IF LL_FLAGS.BIAS_OU
      783    15371    1       THEN
      784    15372    1           X = ((LL_HEAD.RDATA+LL_HEAD.RPROC+LL_HEAD.ROSIZE+LL_PAGESIZE-1)/LL_PAGESIZE
             15372                    + 3) /4;
PL6.E3A0      #001=LLA$MAIN File=LLA$MAIN.:E05TSI                                WED 07/30/97 03:10 Page:24
      785    15373    1       ELSE
      786    15374    1           X = (LL_HEAD.VDPGS + LL_HEAD.VPPGS + (LL_HEAD.ROSIZE + LL_PAGESIZE - 1)/
             15374                    LL_PAGESIZE+3)/4;
      787    15375    1       CALL BINCHAR(KSTR,X);
      788    15376    2       DO I = 0 TO 3;
      789    15377    2           IF (PINCRC(ADDR(KSTR),I)->BLANK = '0')
      790    15378    2           THEN PINCRC(ADDR(KSTR),I)->BLANK = ' ';
      791    15379    2           ELSE
      792    15380    2               I = 3;
      793    15381    2           END;
      794    15382    1       CALL CONCAT(LL_LOBUF,'A  * Total program size = ',KSTR,'K.');
      795    15383    1       CALL LLM$MON_SVC(LL#WRITELO);
      796    15384    1       CALL LLS$SATREF ( ADDR(NIL),0,ADDR(NIL),0,0,
      797    15385    1          ADDR(NIL),ADDR(NIL),ADDR(NIL));
      798    15386    1       IF (LL_HEAD.SEV > LL_VAL_SL) THEN CALL LLM$MON_SVC (LL#ERR);
      799    15387    1       CALL LLM$MON_SVC (LL#WRITERU, ADDR(LL_HEAD), SIZEC(LL_HEAD)-1, B$RUHEADKEY);
      800    15388    1       IF LL_FLAGS.VECTOR#
      801    15389    1       THEN
      802    15390    2       DO;
      803    15391    2           LL_BOTOMEM$ = PCB.TEXT$;
      804    15392    2           CALL LLT$FINISH_VECTOR;
      805    15393    2           END;
      806    15394    1       CALL LLM$MON_SVC (LL#CLOSERU);
      807    15395    1       CALL LLM$MON_SVC (LL#OPENRUIN);
      808    15396    1       IF (LL_FLAGS.MAP#) THEN CALL LLD$MAP (PCB.TEXT$);
      809    15397    1       CALL LLM$MON_SVC (LL#EXIT);
      810    15398    1   SYN_ERR:
      811    15399    2       DO CASE (PCB.ERROR.CODE);
      812    15400    2       CASE (0);
      813    15401    2           CALL LLM$MON_SVC (LL#UNFIDSI);
      814    15402    2           CALL INSERT (LL_DOBUF,0,,
      815    15403    2              'A  ***I/O error on command file ', LL_OPENFID);
      816    15404    2           CALL LLM$MON_SVC (LL#CLOSESI);
      817    15405    2       CASE (%E$SYNERR);
      818    15406    3           IF PCB.HI_CHAR >= 5 THEN DO;
      819    15407    3               LO_LEN = 5;
      820    15408    3               LO_START = PCB.HI_CHAR - 5;
PL6.E3A0      #001=LLA$MAIN File=LLA$MAIN.:E05TSI                                WED 07/30/97 03:10 Page:25
      821    15409    3               END;
      822    15410    3           ELSE DO;
      823    15411    3               LO_LEN = PCB.HI_CHAR - 1;
      824    15412    3               LO_START = 0;
      825    15413    3               END;
      826    15414    3           IF PCB.NCHARS - PCB.HI_CHAR >= 5 THEN DO;
      827    15415    3               HI_LEN = 5;
      828    15416    3               HI_START = PCB.HI_CHAR;
      829    15417    3               END;
      830    15418    3           ELSE DO;
      831    15419    3               HI_LEN = PCB.NCHARS - PCB.HI_CHAR;
      832    15420    3               HI_START = PCB.HI_CHAR;
      833    15421    3               END;
      834    15422    2           ERR_TXT = ' ';
      835    15423    2           CALL CONCAT ( ERR_TXT,
      836    15424    2              SUBSTR ( PCB.TEXT$->TXT, LO_START, LO_LEN ),
      837    15425    2              '<?>',
      838    15426    2              SUBSTR ( PCB.TEXT$->TXT, HI_START, HI_LEN ) );
      839    15427    2           I = 0;
      840    15428    2           TPTR$ = ADDR(CHAR_STR);
      841    15429    2           CALL BINCHAR (CHAR_STR, PCB.HI_CHAR);
      842    15430    3           DO WHILE (I < 4 AND TPTR$ -> CHAR_ARY(I) = '0');
      843    15431    3               I = I + 1;
      844    15432    3               END;
      845    15433    2           TPTR$ = PINCRC (TPTR$, I);
      846    15434    2           LL_SPECFID.COUNT = 5 - I;
      847    15435    2           LL_SPECFID.NAME = TPTR$ -> B_CHAR_STR;
      848    15436    2           TPTR$ = ADDR(LL_SPECFID);
      849    15437    2           CALL INSERT (LL_DOBUF,0,,
      850    15438    2              'A  ***Syntax error at ', TPTR$ -> TEXT.NAME,
      851    15439    2              ':  ', ERR_TXT );
      852    15440    2       CASE (%E$WKOVERFLOW,%E$SMALLWORK);
      853    15441    2           PCB.WKSZ = PCB.WKSZ + 1024;
      854    15442    2           TEMP = PCB.WKSZ;
      855    15443    2           CALL LLM$MON_SVC (LL#GETMEM, TEMP, PCB.WORK$);
      856    15444    2           GOTO PARSE;
      857    15445    2       CASE (ELSE);
PL6.E3A0      #001=LLA$MAIN File=LLA$MAIN.:E05TSI                                WED 07/30/97 03:10 Page:26
      858    15446    2           LL_DOBUF = 'A  ***Internal linker/parser problem:  BUG!';
      859    15447    2           END;
      860    15448    1       CALL LLM$MON_SVC (LL#FREEMEM);
      861    15449    1       CALL LLM$MON_SVC (LL#WRITEDO);
      862    15450    1       CALL LLM$MON_SVC (LL#ERR);
      863    15451        %EJECT;
PL6.E3A0      #001=LLA$MAIN File=LLA$MAIN.:E05TSI                                WED 07/30/97 03:10 Page:27
      864    15452    1   LLA$SAY_SEV: PROC;
      865    15453         /**/
      866    15454    2   DCL CHAR1 CHAR(1) ALIGNED;
      867    15455    2   DCL CHAR2 CHAR(2) ALIGNED;
      868    15456         /**/
      869    15457    3       DO CASE (LL_HEAD.SEV);
      870    15458    3       CASE (0);
      871    15459    3           LL_DOBUF = 'A  * No linking errors.';
      872    15460    3       CASE (10,11,12,13,14,15);
      873    15461    3           CALL BINCHAR ( CHAR2, LL_HEAD.SEV);
      874    15462    3           CALL INSERT (LL_DOBUF,0,,
      875    15463    3              'A  ***Error severity ',
      876    15464    3              CHAR2);
      877    15465    3       CASE (16);
      878    15466    3           LL_DOBUF = 'A  ***Fatal linking errors occured.';
      879    15467    3       CASE (ELSE);
      880    15468    3           CALL BINCHAR ( CHAR1, LL_HEAD.SEV);
      881    15469    3           CALL INSERT (LL_DOBUF,0,,
      882    15470    3              'A  ***Error severity ',
      883    15471    3              CHAR1);
      884    15472    3           END;
      885    15473    2       CALL LLM$MON_SVC (LL#WRITEDO);
      886    15474    2   END LLA$SAY_SEV;
      887    15475    1   END LLA$MAIN;

PL6.E3A0      #001=LLA$MAIN File=LLA$MAIN.:E05TSI                                WED 07/30/97 03:10 Page:28
--  Include file information  --

   LL_MACS_C.:E05TOU  is referenced.
   LL_SUBS_C.:E05TOU  is referenced.
   LL_DATA_R.:E05TOU  cannot be made into a system file and is referenced.
   CP_6_C.:E05TOU  is referenced.
   CP_6.:E05TOU  cannot be made into a system file and is referenced.
   CP_6_SUBS.:E05TOU  is referenced.
   B$JIT_C.:E05TOU  is referenced.
   U$JIT_C.:E05TOU  cannot be made into a system file and is referenced.
   B$OBJECT_C.:E05TOU  is referenced.
   XU_PERR_C.:E05TOU  is referenced.
   XU_SUBS_C.:E05TOU  is referenced.
   XU_MACRO_C.:E05TOU  is referenced.
      No diagnostics issued in procedure LLA$MAIN.

   Procedure LLA$MAIN requires 2214 words for executable code.
   Procedure LLA$MAIN requires 58 words of local(AUTO) storage.

    No errors detected in file LLA$MAIN.:E05TSI    .

PL6.E3A0      #001=LLA$MAIN File=LLA$MAIN.:E05TSI                                WED 07/30/97 03:10 Page:29

 Object Unit name= LLA$MAIN                                   File name= LLA$MAIN.:E05TOU
 UTS= JUL 30 '97 03:10:01.04 WED                              Compiler= PL-6/E31         Sev=      00
 SharedLib= :SHARED_SYSTEM                                    Alt SharedLib=


    ****  Control sections  ****

 Sect   Type Bound  Init  Size OctSiz  Section name(segment info)
    0   DCB   even  none     0      0  M$UC
    1   Data  even  none   120    170  LLA$MAIN
    2  RoData even  UTS    439    667  LLA$MAIN
    3   Proc  even  none  2214   4246  LLA$MAIN
    4  RoData even  none    65    101  LLA$MAIN

    ****  Entry defs  ****

                              Check   Calling
                             calling  sequence
  Sect OctLoc Primary Altret sequence   type   Parms  Name
     3      0   yes            yes      Main       0  LLA$MAIN

  ****  Data defs  ****

 Sect OctLoc  Name                           Sect OctLoc  Name
    1      0  PCB                                1     20  LL_SRCH
PL6.E3A0      #001=LLA$MAIN File=LLA$MAIN.:E05TSI                                WED 07/30/97 03:10 Page:30

  ****  Entry refs  ****

         Check        Calling
        calling       sequence
Altret sequence SRef   type   Args  Name
 yes     yes           Std       4 LLM$MON_SVC
         yes           Std       1 LLD$MAP
         yes           Std       1 LLC$PASS2
         yes           Std       0 LLT$FINISH_VECTOR
         yes           Std       0 LLT$INIT_TV
         yes           Std       5 LLF$FILLSI
 yes     yes           Std       2 LLP$PRE_PROCESS
 yes     yes           Std       1 X$PARSE
         yes           Std       3 LLH$HEXBIN
         yes           Std       1 LLB$PASS1
         yes           Std       8 LLS$SATREF
                       Std       0 B_CONSPOOL_D
                       nStd      0 X66_MAUTO
                       nStd      0 X66_MARET

  ****  Data refs  ****

  Flags:  r = read only, s = secondary
Flgs Name                             Flgs Name                             Flgs Name
     M$UC                                  LL_OF$                                LL_LOBUF
     LL_DOBUF                              LL_FLAGS                              LL_TYPE
     LL_FIRSTFID                           LL_LASTFID                            LL_OPENFID
     LL_SPECFID                            LL_VAL_BIAS                           LL_VAL_START
     LL_VAL_SL                             LL_NOU                                LL_DATA_START
     LL_PROC_START                         LL_RUNUNIT                            LL_BOTOMEM$
     LL_TOPOMEM$                           LL_START$                             LL_DPATCH
     LL_IPATCH                             LL_VAL_FLAVOR                    r    LL_HEAD_VERSION
r    LL_LPROC_START                        LL_SLIB_NAME                          LL_VECTOR_RF
     LL_VECTOR_DATA                        LL_LIST_SIZE                          LL_LIST$
     LL_VERSION                       r    B$JIT$                                LL_HEAD
     B$RUBIRTH                             LLN$NODES                             B_VECTNIL
PL6.E3A0      #001=LLA$MAIN File=LLA$MAIN.:E05TSI                                WED 07/30/97 03:10 Page:31

  ****  Segment refs  ****

  Flags:  r = read only, s = secondary
Flgs Name                             Flgs Name                             Flgs Name
     NULLSID                               ISSID
PL6.E3A0      #001=LLA$MAIN File=LLA$MAIN.:E05TSI                                WED 07/30/97 03:10 Page:32


        1        1        /*M* LLA$MAIN - Main driver and parser for FEPLINK                  */
        2        2        /*T***********************************************************/
        3        3        /*T*                                                         */
        4        4        /*T* Copyright (c) Bull HN Information Systems Inc., 1997    */
        5        5        /*T*                                                         */
        6        6        /*T***********************************************************/
        7        7        /*X* PLM=4,STI=0,IND=4,CTI=3,DCI=4,ECI=4,CSI=0,THI=0,DTI=0,ENI=4,
        8        8             CLM=0,SQB,NTB,MOC,CCI=3,NLB,MCL=0,EDMC*/
        9        9        /*F* NAME:         LLA$MAIN
       10       10             PURPOSE:      Main driver and parse for FEPLINK
       11       11             DESCRIPTION:  LLA$MAIN primary function is to read the link
       12       12                           command into a buffer, parse the command and
       13       13                           determine whether a link is to be performed
       14       14                           and whether the mapping routines are to be
       15       15                           invoked or not.
       16       16
       17       17                           This module calls LLB$PASS1, LLC$PASS2, LLD$MAP,
       18       18                           LLI$INIT and LLM$MON_SVC.                        */
       19       19        %EJECT;
PL6.E3A0      #001=LLA$MAIN File=LLA$MAIN.:E05TSI                                WED 07/30/97 03:10 Page:33
       20       20        LLA$MAIN: PROC MAIN;

     20  3 000000   000000 700200 xent  LLA$MAIN     TSX0  ! X66_MAUTO
         3 000001   000072 000000                    ZERO    58,0

       21       21        %INCLUDE XU_MACRO_C;
       22     3127        %INCLUDE XU_SUBS_C;
       23     3219        %INCLUDE XU_PERR_C;
       24     3410        %INCLUDE B$OBJECT_C;
       25     6840        %INCLUDE U$JIT_C;
       26     7339        %INCLUDE CP_6_SUBS;
       27     7879        %INCLUDE CP_6;
       28    13438        %INCLUDE LL_DATA_R;
       29    13474        %INCLUDE LL_SUBS_C;
       30    13603        %INCLUDE LL_MACS_C;
       31    13957    1   DCL B$JIT$ PTR SYMREF READONLY;
       32    13958         /* MACRO INVOCATIONS */
       33    13959        %MACRO CONFLICT;
       34    13960            CALL LLM$MON_SVC(LL#WRITEDO);
       35    13961            LL_FLAGS.CON_OPT# = '1'B;
       36    13962        %MEND;
       37    13963        %P_PCB ( NAME = PCB,
       38    13964         T = NIL,
       39    13965         R = LLN$NODES,
       40    13966         W = NIL,
       41    13967         U$ = NIL,
       42    13968         WSZ = 0,
       43    13969         N# = 0,
       44    13970         C_LD = ' "',
       45    13971         C_TL = ' "' );
       46    14170        %PARSE$OUT ( NAME = OUT$BLK,
       47    14171         STCLASS = BASED );
       48    14216        %PARSE$SYM ( NAME = OUT$SYM,
       49    14217         STCLASS = BASED );
       50    14255        %B$HEAD ( NAME = LL_HEAD,
       51    14256         STCLASS = SYMREF );
       52    14456        %B$RUHEADKEY ( STCLASS = STATIC );
PL6.E3A0      #001=LLA$MAIN File=LLA$MAIN.:E05TSI                                WED 07/30/97 03:10 Page:34
       53    14463        %B$RUBIRTH ( STCLASS = SYMREF, COUNTINIT = " /**/ " );
       54    14472        %RU_FLAVORS;
       55    14478        %LL$RUBIRTHKEY ( NAME = B$RUBIRTHKEY );
       56    14496        %LL_SRCH( STCLASS=STATIC SYMDEF);
       57    14518        %FPT_FID ( FPTN = FPT_FID,
       58    14519         ACCT = VLP_ACCT,
       59    14520         PASS = VLP_PASS,
       60    14521         TEXTFID = TEXTFID,
       61    14522         RESULTS = FID_RESULTS,
       62    14523         SN = VLP_SN,
       63    14524         WSN = VLP_WSN,
       64    14525        RES = RES, /* Just makes M$FID happy */
       65    14526        ASN = ASN ); /* Ditto */
       66    14549        %VLP_ACCT ( FPTN = VLP_ACCT );
       67    14562        %VLP_PASS ( FPTN = VLP_PASS );
       68    14575        %VLP_WSN;
       69    14588        %VLP_SN;
       70    14601        %VLR_FID ( FPTN = FID_RESULTS );
       71    14620    1   DCL RES CHAR(4) STATIC ALIGNED;
       72    14621    1   DCL ASN UBIN BYTE STATIC;
       73    14622    1   DCL TEXTFID CHAR(64) STATIC ALIGNED;
       74    14623         /* LOCAL DATA */
       75    14624    1   DCL X$PARSE ENTRY(1) ALTRET;
       76    14625    1   DCL LLP$PRE_PROCESS ENTRY (2) ALTRET;
       77    14626    1   DCL ERR_TXT CHAR(13) ALIGNED;
       78    14627    1   DCL LO_LEN UBIN WORD ALIGNED;
       79    14628    1   DCL HI_LEN UBIN WORD ALIGNED;
       80    14629    1   DCL LO_START UBIN WORD ALIGNED;
       81    14630    1   DCL HI_START UBIN WORD ALIGNED;
       82    14631    1   DCL TXT CHAR(16383) BASED UNAL;
       83    14632    1   DCL LLB$PASS1 ENTRY(1);
       84    14633    1   DCL LLC$PASS2 ENTRY(1);
       85    14634    1   DCL LLD$MAP ENTRY(1);
       86    14635    1   DCL LLI$INIT ENTRY(0);
       87    14636    1   DCL LLM$MON_SVC ENTRY(4) ALTRET;
       88    14637    1   DCL LLH$HEXBIN ENTRY(3);
       89    14638    1   DCL LLF$FILLSI ENTRY(5);
PL6.E3A0      #001=LLA$MAIN File=LLA$MAIN.:E05TSI                                WED 07/30/97 03:10 Page:35
       90    14639    1   DCL LLS$SATREF ENTRY(8);
       91    14640    1   DCL LLT$INIT_TV ENTRY;
       92    14641    1   DCL LLT$FINISH_VECTOR ENTRY;
       93    14642    1   DCL BLANK CHAR(1) BASED UNAL;
       94    14643    1   DCL KSTR CHAR(4);
       95    14644    1   DCL TPTR1$ PTR;
       96    14645    1   DCL LLN$NODES UBIN WORD ALIGNED SYMREF;
       97    14646    1   DCL TPTR$ PTR;
       98    14647    1   DCL LEN UBIN WORD ALIGNED;
       99    14648    1   DCL EDIT_KEY UBIN WORD ALIGNED;
      100    14649    1   DCL TLEN UBIN WORD ALIGNED;
      101    14650    1   DCL LINK_BUF CHAR(256) BASED UNAL;
      102    14651    1   DCL LINK_CHAR(0:255) CHAR(1) BASED UNAL;
      103    14652    1   DCL I UBIN WORD ALIGNED;
      104    14653    1   DCL 1 OU_FID(0:0) BASED ALIGNED,
      105    14654    1         2 NAME CHAR(50),
      106    14655    1         2 BIAS SBIN WORD;
      107    14656    1   DCL TEMP UBIN WORD ALIGNED;
      108    14657    1   DCL TEMP1 SBIN;
      109    14658    1   DCL LOCK SBIN;
      110    14659    1   DCL NAME CHAR(32);
      111    14660    1   DCL CHAR_ARY(0:0) CHAR(1) BASED UNAL;
      112    14661    1   DCL X UBIN WORD ALIGNED;
      113    14662    1   DCL 1 TEXT BASED ALIGNED,
      114    14663    1         2 COUNT UBIN BYTE UNAL,
      115    14664    1         2 NAME CHAR(TEXT.COUNT) UNAL;
      116    14665    1   DCL 1 HEADKEY STATIC ALIGNED,
      117    14666    1         2 COUNT UBIN BYTE UNAL INIT(4),
      118    14667    1         2 TEXT CHAR(4) UNAL INIT('HEAD');
      119    14668    1   DCL CHAR_STR CHAR(5) ALIGNED;
      120    14669    1   DCL B_CHAR_STR CHAR(5) UNAL BASED;
      121    14670    1   DCL 1 VECTOR_LIST BASED ALIGNED,
      122    14671    1         2 SIZEW1 UBIN HALF UNAL,
      123    14672    1         2 SIZEW2 UBIN HALF UNAL;
      124    14673    1   DCL NAME1$ PTR;
      125    14674    1   DCL NAME2$ PTR;
      126    14675    1   DCL AVAIL$ PTR;
PL6.E3A0      #001=LLA$MAIN File=LLA$MAIN.:E05TSI                                WED 07/30/97 03:10 Page:36
      127    14676    1   DCL SIZEW1 UBIN(36) ALIGNED;
      128    14677    1   DCL SIZEW2 UBIN(36) ALIGNED;
      129    14678        %B$DNAME;
      130    14697    1   DCL SIZE UBIN(36) ALIGNED;
      131    14698        %EJECT;
PL6.E3A0      #001=LLA$MAIN File=LLA$MAIN.:E05TSI                                WED 07/30/97 03:10 Page:37
      132    14699    1   START:
      133    14700    2       IF (NOT LL_FLAGS.LINK_FID#) THEN DO;

  14700  3 000002   000000 236000 xsym  START        LDQ     LL_FLAGS
         3 000003   000002 316003                    CANQ    2,DU
         3 000004   000025 601000 3                  TNZ     s:14705

      134    14701    2           CALL LLM$MON_SVC (LL#INIT, PCB.TEXT$, TPTR$, LEN);

  14701  3 000005   200017 630500                    EPPR0   LEN,,AUTO
         3 000006   200057 450500                    STP0    CHAR2+5,,AUTO
         3 000007   200016 631500                    EPPR1   TPTR$,,AUTO
         3 000010   200056 451500                    STP1    CHAR2+4,,AUTO
         3 000011   000000 237000 4                  LDAQ    0
         3 000012   200054 757100                    STAQ    CHAR2+2,,AUTO
         3 000013   200054 630500                    EPPR0   CHAR2+2,,AUTO
         3 000014   000022 631400 xsym               EPPR1   B_VECTNIL+18
         3 000015   000000 701000 xent               TSX1    LLM$MON_SVC
         3 000016   000000 011000                    NOP     0

      135    14702    2           PCB.TEXT$ -> LINK_BUF = TPTR$ -> LINK_BUF;

  14702  3 000017   200016 470500                    LDP0    TPTR$,,AUTO
         3 000020   000000 471400 1                  LDP1    PCB
         3 000021   040100 100500                    MLR     fill='040'O
         3 000022   000000 000400                    ADSC9   0,,PR0                   cn=0,n=256
         3 000023   100000 000400                    ADSC9   0,,PR1                   cn=0,n=256

      136    14703    2           END;

  14703  3 000024   000067 710000 3                  TRA     s:14710

      137    14704    2       ELSE DO;

      138    14705    2           CALL LLM$MON_SVC (LL#READCF, PCB.TEXT$, LEN, EDIT_KEY);

  14705  3 000025   200020 630500                    EPPR0   EDIT_KEY,,AUTO
PL6.E3A0      #001=LLA$MAIN File=LLA$MAIN.:E05TSI                                WED 07/30/97 03:10 Page:38
         3 000026   200057 450500                    STP0    CHAR2+5,,AUTO
         3 000027   200017 631500                    EPPR1   LEN,,AUTO
         3 000030   200056 451500                    STP1    CHAR2+4,,AUTO
         3 000031   000002 237000 4                  LDAQ    2
         3 000032   200054 757100                    STAQ    CHAR2+2,,AUTO
         3 000033   200054 630500                    EPPR0   CHAR2+2,,AUTO
         3 000034   000022 631400 xsym               EPPR1   B_VECTNIL+18
         3 000035   000000 701000 xent               TSX1    LLM$MON_SVC
         3 000036   000000 011000                    NOP     0

      139    14706    2           CALL LLF$FILLSI (LL_LOBUF, PCB.TEXT$, EDIT_KEY, LL_TYPE, LEN);

  14706  3 000037   200017 630500                    EPPR0   LEN,,AUTO
         3 000040   200060 450500                    STP0    CHAR2+6,,AUTO
         3 000041   000004 236000 4                  LDQ     4
         3 000042   200057 756100                    STQ     CHAR2+5,,AUTO
         3 000043   200020 631500                    EPPR1   EDIT_KEY,,AUTO
         3 000044   200056 451500                    STP1    CHAR2+4,,AUTO
         3 000045   000006 237000 4                  LDAQ    6
         3 000046   200054 757100                    STAQ    CHAR2+2,,AUTO
         3 000047   200054 630500                    EPPR0   CHAR2+2,,AUTO
         3 000050   000023 631400 xsym               EPPR1   B_VECTNIL+19
         3 000051   000000 701000 xent               TSX1    LLF$FILLSI
         3 000052   000000 011000                    NOP     0

      140    14707    2           CALL LLM$MON_SVC (LL#WRITELO);

  14707  3 000053   000010 630400 4                  EPPR0   8
         3 000054   000017 631400 xsym               EPPR1   B_VECTNIL+15
         3 000055   000000 701000 xent               TSX1    LLM$MON_SVC
         3 000056   000000 011000                    NOP     0

      141    14708    2           CALL LLP$PRE_PROCESS (PCB.TEXT$->TXT, LEN);

  14708  3 000057   200017 630500                    EPPR0   LEN,,AUTO
         3 000060   200055 450500                    STP0    CHAR2+3,,AUTO
         3 000061   000000 236000 1                  LDQ     PCB
PL6.E3A0      #001=LLA$MAIN File=LLA$MAIN.:E05TSI                                WED 07/30/97 03:10 Page:39
         3 000062   200054 756100                    STQ     CHAR2+2,,AUTO
         3 000063   200054 630500                    EPPR0   CHAR2+2,,AUTO
         3 000064   000020 631400 xsym               EPPR1   B_VECTNIL+16
         3 000065   000000 701000 xent               TSX1    LLP$PRE_PROCESS
         3 000066   000000 011000                    NOP     0

      142    14709    2           END;

      143    14710    1       TPTR$ = PCB.TEXT$;

  14710  3 000067   000000 236000 1                  LDQ     PCB
         3 000070   200016 756100                    STQ     TPTR$,,AUTO

      144    14711    1       TLEN = 0;

  14711  3 000071   200021 450100                    STZ     TLEN,,AUTO

      145    14712    2       DO WHILE (TPTR$ -> LINK_CHAR(LEN - 1) = ';');

  14712  3 000072   200016 470500                    LDP0    TPTR$,,AUTO
         3 000073   200017 235100                    LDA     LEN,,AUTO
         3 000074   040000 106505                    CMPC    fill='040'O
         3 000075   077777 600001                    ADSC9   -1,A,PR0                 cn=3,n=1
         3 000076   000011 000001 4                  ADSC9   9                        cn=0,n=1
         3 000077   000203 601000 3                  TNZ     s:14725

      146    14713    2           TPTR$ -> LINK_CHAR(LEN - 1) = ' ';

  14713  3 000100   200016 470500                    LDP0    TPTR$,,AUTO
         3 000101   200017 235100                    LDA     LEN,,AUTO
         3 000102   040105 100400                    MLR     fill='040'O
         3 000103   000035 000001 xsym               ADSC9   B_VECTNIL+29             cn=0,n=1
         3 000104   077777 600001                    ADSC9   -1,A,PR0                 cn=3,n=1

      147    14714    2           TLEN = TLEN + LEN;

  14714  3 000105   200021 236100                    LDQ     TLEN,,AUTO
PL6.E3A0      #001=LLA$MAIN File=LLA$MAIN.:E05TSI                                WED 07/30/97 03:10 Page:40
         3 000106   200017 036100                    ADLQ    LEN,,AUTO
         3 000107   200021 756100                    STQ     TLEN,,AUTO

      148    14715    2           CALL LLM$MON_SVC (LL#GETMEM, 600, TPTR$);

  14715  3 000110   200016 630500                    EPPR0   TPTR$,,AUTO
         3 000111   200056 450500                    STP0    CHAR2+4,,AUTO
         3 000112   000014 237000 4                  LDAQ    12
         3 000113   200054 757100                    STAQ    CHAR2+2,,AUTO
         3 000114   200054 630500                    EPPR0   CHAR2+2,,AUTO
         3 000115   000021 631400 xsym               EPPR1   B_VECTNIL+17
         3 000116   000000 701000 xent               TSX1    LLM$MON_SVC
         3 000117   000000 011000                    NOP     0

      149    14716    2           TPTR$ = PINCRC(TPTR$, LEN);

  14716  3 000120   200017 236100                    LDQ     LEN,,AUTO
         3 000121   000020 736000                    QLS     16
         3 000122   200016 036100                    ADLQ    TPTR$,,AUTO
         3 000123   200016 756100                    STQ     TPTR$,,AUTO

      150    14717    2           CALL LLM$MON_SVC (LL#READCF, TPTR$, LEN, EDIT_KEY)

  14717  3 000124   200020 630500                    EPPR0   EDIT_KEY,,AUTO
         3 000125   200057 450500                    STP0    CHAR2+5,,AUTO
         3 000126   200017 631500                    EPPR1   LEN,,AUTO
         3 000127   200056 451500                    STP1    CHAR2+4,,AUTO
         3 000130   200016 633500                    EPPR3   TPTR$,,AUTO
         3 000131   200055 453500                    STP3    CHAR2+3,,AUTO
         3 000132   000002 236000 4                  LDQ     2
         3 000133   200054 756100                    STQ     CHAR2+2,,AUTO
         3 000134   200054 630500                    EPPR0   CHAR2+2,,AUTO
         3 000135   000022 631400 xsym               EPPR1   B_VECTNIL+18
         3 000136   000000 701000 xent               TSX1    LLM$MON_SVC
         3 000137   003675 702000 3                  TSX2    SYN_ERR

      151    14718    2              ALTRET (SYN_ERR);
PL6.E3A0      #001=LLA$MAIN File=LLA$MAIN.:E05TSI                                WED 07/30/97 03:10 Page:41
      152    14719    2           CALL LLF$FILLSI (LL_LOBUF, TPTR$, EDIT_KEY, LL_TYPE, LEN);

  14719  3 000140   200017 630500                    EPPR0   LEN,,AUTO
         3 000141   200060 450500                    STP0    CHAR2+6,,AUTO
         3 000142   000004 236000 4                  LDQ     4
         3 000143   200057 756100                    STQ     CHAR2+5,,AUTO
         3 000144   200020 631500                    EPPR1   EDIT_KEY,,AUTO
         3 000145   200056 451500                    STP1    CHAR2+4,,AUTO
         3 000146   200016 633500                    EPPR3   TPTR$,,AUTO
         3 000147   200055 453500                    STP3    CHAR2+3,,AUTO
         3 000150   000006 236000 4                  LDQ     6
         3 000151   200054 756100                    STQ     CHAR2+2,,AUTO
         3 000152   200054 630500                    EPPR0   CHAR2+2,,AUTO
         3 000153   000023 631400 xsym               EPPR1   B_VECTNIL+19
         3 000154   000000 701000 xent               TSX1    LLF$FILLSI
         3 000155   000000 011000                    NOP     0

      153    14720    3           IF (LL_FLAGS.LINK_FID#) THEN DO;

  14720  3 000156   000000 236000 xsym               LDQ     LL_FLAGS
         3 000157   000002 316003                    CANQ    2,DU
         3 000160   000175 600000 3                  TZE     s:14724

      154    14721    3               CALL LLM$MON_SVC (LL#WRITELO);

  14721  3 000161   000010 630400 4                  EPPR0   8
         3 000162   000017 631400 xsym               EPPR1   B_VECTNIL+15
         3 000163   000000 701000 xent               TSX1    LLM$MON_SVC
         3 000164   000000 011000                    NOP     0

      155    14722    3               CALL LLP$PRE_PROCESS (TPTR$->TXT, LEN);

  14722  3 000165   200017 630500                    EPPR0   LEN,,AUTO
         3 000166   200055 450500                    STP0    CHAR2+3,,AUTO
         3 000167   200016 236100                    LDQ     TPTR$,,AUTO
         3 000170   200054 756100                    STQ     CHAR2+2,,AUTO
         3 000171   200054 630500                    EPPR0   CHAR2+2,,AUTO
PL6.E3A0      #001=LLA$MAIN File=LLA$MAIN.:E05TSI                                WED 07/30/97 03:10 Page:42
         3 000172   000020 631400 xsym               EPPR1   B_VECTNIL+16
         3 000173   000000 701000 xent               TSX1    LLP$PRE_PROCESS
         3 000174   000000 011000                    NOP     0

      156    14723    3               END;

      157    14724    2           END;

  14724  3 000175   200016 470500                    LDP0    TPTR$,,AUTO
         3 000176   200017 235100                    LDA     LEN,,AUTO
         3 000177   040000 106505                    CMPC    fill='040'O
         3 000200   077777 600001                    ADSC9   -1,A,PR0                 cn=3,n=1
         3 000201   000011 000001 4                  ADSC9   9                        cn=0,n=1
         3 000202   000100 600000 3                  TZE     s:14713

      158    14725    1       PCB.NCHARS = LEN + TLEN;

  14725  3 000203   200017 236100                    LDQ     LEN,,AUTO
         3 000204   200021 036100                    ADLQ    TLEN,,AUTO
         3 000205   000011 756000 1                  STQ     PCB+9

      159    14726    1       PCB.WKSZ = 1024;

  14726  3 000206   002000 220003                    LDX0    1024,DU
         3 000207   000005 740000 1                  STX0    PCB+5

      160    14727    1       PCB.WORK$ = PINCRW(PCB.TEXT$, (PCB.NCHARS + 3) / 4);

  14727  3 000210   000003 036007                    ADLQ    3,DL
         3 000211   000002 772000                    QRL     2
         3 000212   000022 736000                    QLS     18
         3 000213   000000 036000 1                  ADLQ    PCB
         3 000214   000002 756000 1                  STQ     PCB+2

      161    14728    1       CALL LLM$MON_SVC (LL#GETMEM, 1024, PCB.WORK$);

  14728  3 000215   000016 630400 4                  EPPR0   14
PL6.E3A0      #001=LLA$MAIN File=LLA$MAIN.:E05TSI                                WED 07/30/97 03:10 Page:43
         3 000216   000021 631400 xsym               EPPR1   B_VECTNIL+17
         3 000217   000000 701000 xent               TSX1    LLM$MON_SVC
         3 000220   000000 011000                    NOP     0

      162    14729    1   PARSE:
      163    14730    1       CALL X$PARSE (PCB) ALTRET (SYN_ERR);

  14730  3 000221   000001 630400 4     PARSE        EPPR0   1
         3 000222   000017 631400 xsym               EPPR1   B_VECTNIL+15
         3 000223   000000 701000 xent               TSX1    X$PARSE
         3 000224   003675 702000 3                  TSX2    SYN_ERR

      164    14731    1       CALL LLM$MON_SVC (LL#CLOSESI);

  14731  3 000225   000021 630400 4                  EPPR0   17
         3 000226   000017 631400 xsym               EPPR1   B_VECTNIL+15
         3 000227   000000 701000 xent               TSX1    LLM$MON_SVC
         3 000230   000000 011000                    NOP     0

      165    14732    1       LL_OF$ = PINCRW (PCB.WORK$, PCB.WK_USED);

  14732  3 000231   000010 236000 1                  LDQ     PCB+8
         3 000232   777777 376003                    ANQ     -1,DU
         3 000233   000002 036000 1                  ADLQ    PCB+2
         3 000234   000000 756000 xsym               STQ     LL_OF$

      166    14733    1       I = (PCB.OUT$->OUT$BLK.NSUBLKS + 1) * (SIZEW(OU_FID.NAME(0)));

  14733  3 000235   000003 470400 1                  LDP0    PCB+3
         3 000236   000001 236100                    LDQ     1,,PR0
         3 000237   000022 772000                    QRL     18
         3 000240   000015 402007                    MPY     13,DL
         3 000241   000015 036007                    ADLQ    13,DL
         3 000242   200022 756100                    STQ     I,,AUTO

      167    14734    1       CALL LLM$MON_SVC ( LL#GETMEM, I, LL_OF$ );

PL6.E3A0      #001=LLA$MAIN File=LLA$MAIN.:E05TSI                                WED 07/30/97 03:10 Page:44
  14734  3 000243   000022 236000 4                  LDQ     18
         3 000244   200056 756100                    STQ     CHAR2+4,,AUTO
         3 000245   200022 631500                    EPPR1   I,,AUTO
         3 000246   200055 451500                    STP1    CHAR2+3,,AUTO
         3 000247   000014 236000 4                  LDQ     12
         3 000250   200054 756100                    STQ     CHAR2+2,,AUTO
         3 000251   200054 630500                    EPPR0   CHAR2+2,,AUTO
         3 000252   000021 631400 xsym               EPPR1   B_VECTNIL+17
         3 000253   000000 701000 xent               TSX1    LLM$MON_SVC
         3 000254   000000 011000                    NOP     0

      168    14735    1       AVAIL$ = PINCRW(LL_OF$,I);

  14735  3 000255   200022 236100                    LDQ     I,,AUTO
         3 000256   000022 736000                    QLS     18
         3 000257   000000 036000 xsym               ADLQ    LL_OF$
         3 000260   200043 756100                    STQ     AVAIL$,,AUTO

      169    14736    1       I = 0;

  14736  3 000261   200022 450100                    STZ     I,,AUTO

      170    14737    2       DO CASE (PCB.OUT$ -> OUT$BLK.CODE);

  14737  3 000262   000003 470400 1                  LDP0    PCB+3
         3 000263   000000 720100                    LXL0    0,,PR0
         3 000264   000003 100003                    CMPX0   3,DU
         3 000265   000267 602010 3                  TNC     s:14737+5,X0
         3 000266   001051 710000 3                  TRA     s:14864
         3 000267   000272 710000 3                  TRA     s:14744
         3 000270   000621 710000 3                  TRA     s:14816
         3 000271   000671 710000 3                  TRA     s:14829

      171    14738    2       CASE (LL#LINK_COM);

      172    14739         /* Plain vanilla link command -
      173    14740            collect all object file names
PL6.E3A0      #001=LLA$MAIN File=LLA$MAIN.:E05TSI                                WED 07/30/97 03:10 Page:45
      174    14741            if only one object file, check for wildcard name
      175    14742            if wildcard, then scan acct directory for suitable
      176    14743            files */
      177    14744    3           DO WHILE I < PCB.OUT$->OUT$BLK.NSUBLKS;

  14744  3 000272   000001 236100                    LDQ     1,,PR0
         3 000273   000022 772000                    QRL     18
         3 000274   200022 116100                    CMPQ    I,,AUTO
         3 000275   000453 602000 3                  TNC     OU_LIST_DONE
         3 000276   000453 600000 3                  TZE     OU_LIST_DONE

      178    14745    3               IF PCB.OUT$->OUT$BLK.SUBLK$(I)->OUT$BLK.CODE ~= LL#LINK_OU

  14745  3 000277   000003 470400 1                  LDP0    PCB+3
         3 000300   200022 720100                    LXL0    I,,AUTO
         3 000301   000003 471510                    LDP1    3,X0,PR0
         3 000302   100000 721100                    LXL1    0,,PR1
         3 000303   000020 101003                    CMPX1   16,DU
         3 000304   000453 601000 3                  TNZ     OU_LIST_DONE

      179    14746    3               THEN EXIT;
      180    14747    3               LL_OF$->OU_FID.NAME(I) = PCB.OUT$->OUT$BLK.SUBLK$(I)->

  14747  3 000305   100003 473500                    LDP3    3,,PR1
         3 000306   300004 236100                    LDQ     4,,PR3
         3 000307   000033 772000                    QRL     27
         3 000310   000000 622006                    EAX2    0,QL
         3 000311   200022 236100                    LDQ     I,,AUTO
         3 000312   000070 402007                    MPY     56,DL
         3 000313   000000 474400 xsym               LDP4    LL_OF$
         3 000314   040106 100540                    MLR     fill='040'O
         3 000315   300004 200012                    ADSC9   4,,PR3                   cn=1,n=*X2
         3 000316   400000 000062                    ADSC9   0,Q,PR4                  cn=0,n=50

      181    14748    3                  OUT$BLK.SUBLK$(0)->OUT$SYM.TEXT;
      182    14749    3               IF PCB.OUT$->OUT$BLK.SUBLK$(I)->OUT$BLK.NSUBLKS= 2

PL6.E3A0      #001=LLA$MAIN File=LLA$MAIN.:E05TSI                                WED 07/30/97 03:10 Page:46
  14749  3 000317   000003 470400 1                  LDP0    PCB+3
         3 000320   200022 720100                    LXL0    I,,AUTO
         3 000321   000003 471510                    LDP1    3,X0,PR0
         3 000322   100001 221100                    LDX1    1,,PR1
         3 000323   000002 101003                    CMPX1   2,DU
         3 000324   000435 601000 3                  TNZ     s:14780

      183    14750    3               THEN
      184    14751    4               DO;

      185    14752    4                   TPTR$= PCB.OUT$->OUT$BLK.SUBLK$(I)->OUT$BLK.SUBLK$(1)->OUT$BLK.
             14752                            SUBLK$(0);

  14752  3 000325   100004 473500                    LDP3    4,,PR1
         3 000326   300003 236100                    LDQ     3,,PR3
         3 000327   200016 756100                    STQ     TPTR$,,AUTO

      186    14753    4                   CALL LLH$HEXBIN(TEMP,TPTR$->OUT$SYM.COUNT,

  14753  3 000330   000023 036000 4                  ADLQ    19
         3 000331   200056 756100                    STQ     CHAR2+4,,AUTO
         3 000332   200016 236100                    LDQ     TPTR$,,AUTO
         3 000333   000004 036003                    ADLQ    4,DU
         3 000334   200055 756100                    STQ     CHAR2+3,,AUTO
         3 000335   200023 631500                    EPPR1   TEMP,,AUTO
         3 000336   200054 451500                    STP1    CHAR2+2,,AUTO
         3 000337   200054 630500                    EPPR0   CHAR2+2,,AUTO
         3 000340   000021 631400 xsym               EPPR1   B_VECTNIL+17
         3 000341   000000 701000 xent               TSX1    LLH$HEXBIN
         3 000342   000000 011000                    NOP     0

      187    14754    4                      TPTR$->OUT$SYM.TEXT);
      188    14755    4                   IF LL_FLAGS.BAD_HEX# THEN

  14755  3 000343   000000 236000 xsym               LDQ     LL_FLAGS
         3 000344   000200 316003                    CANQ    128,DU
         3 000345   000373 600000 3                  TZE     s:14764
PL6.E3A0      #001=LLA$MAIN File=LLA$MAIN.:E05TSI                                WED 07/30/97 03:10 Page:47

      189    14756    5                   DO;

      190    14757    5                       CALL INSERT(LL_DOBUF,0,,

  14757  3 000346   200016 470500                    LDP0    TPTR$,,AUTO
         3 000347   000004 236100                    LDQ     4,,PR0
         3 000350   000033 772000                    QRL     27
         3 000351   040000 100400                    MLR     fill='040'O
         3 000352   000002 000043 2                  ADSC9   B$RUBIRTHKEY+2           cn=0,n=35
         3 000353   000000 000043 xsym               ADSC9   LL_DOBUF                 cn=0,n=35
         3 000354   040000 100400                    MLR     fill='040'O
         3 000355   000013 000010 2                  ADSC9   B$RUBIRTHKEY+11          cn=0,n=8
         3 000356   000010 600010 xsym               ADSC9   LL_DOBUF+8               cn=3,n=8
         3 000357   000000 620006                    EAX0    0,QL
         3 000360   040000 100540                    MLR     fill='040'O
         3 000361   000004 200010                    ADSC9   4,,PR0                   cn=1,n=*X0
         3 000362   000012 600105 xsym               ADSC9   LL_DOBUF+10              cn=3,n=69
         3 000363   000105 116007                    CMPQ    69,DL
         3 000364   000372 603000 3                  TRC     s:14761
         3 000365   777672 620006                    EAX0    -70,QL
         3 000366   777777 660003                    ERX0    -1,DU
         3 000367   040046 100400                    MLR     fill='040'O
         3 000370   000015 000020 2                  ADSC9   B$RUBIRTHKEY+13          cn=0,n=16
         3 000371   000012 600010 xsym               ADSC9   LL_DOBUF+10,Q            cn=3,n=*X0

      191    14758    5                          'A  ***Invalid hexadecimal string in',
      192    14759    5                          'BIAS_OU=', TPTR$->OUT$SYM.TEXT,
      193    14760    5                          ': option ignored');
      194    14761    5                       END; /* FLAG*/

  14761  3 000372   000442 710000 3                  TRA     s:14781

      195    14762    4                   ELSE
      196    14763    5                   DO;

      197    14764    5                       IF (TEMP > 1048575) THEN
PL6.E3A0      #001=LLA$MAIN File=LLA$MAIN.:E05TSI                                WED 07/30/97 03:10 Page:48

  14764  3 000373   200023 235100                    LDA     TEMP,,AUTO
         3 000374   000004 115003                    CMPA    4,DU
         3 000375   000425 602000 3                  TNC     s:14774

      198    14765    6                       DO;

      199    14766    6                           CALL INSERT(LL_DOBUF,0,,

  14766  3 000376   200016 470500                    LDP0    TPTR$,,AUTO
         3 000377   000004 236100                    LDQ     4,,PR0
         3 000400   000033 772000                    QRL     27
         3 000401   040000 100400                    MLR     fill='040'O
         3 000402   000021 000034 2                  ADSC9   B$RUBIRTHKEY+17          cn=0,n=28
         3 000403   000000 000034 xsym               ADSC9   LL_DOBUF                 cn=0,n=28
         3 000404   040000 100400                    MLR     fill='040'O
         3 000405   000013 000010 2                  ADSC9   B$RUBIRTHKEY+11          cn=0,n=8
         3 000406   000007 000010 xsym               ADSC9   LL_DOBUF+7               cn=0,n=8
         3 000407   000000 620006                    EAX0    0,QL
         3 000410   040000 100540                    MLR     fill='040'O
         3 000411   000004 200010                    ADSC9   4,,PR0                   cn=1,n=*X0
         3 000412   000011 000114 xsym               ADSC9   LL_DOBUF+9               cn=0,n=76
         3 000413   000114 116007                    CMPQ    76,DL
         3 000414   000422 603000 3                  TRC     s:14770
         3 000415   777663 620006                    EAX0    -77,QL
         3 000416   777777 660003                    ERX0    -1,DU
         3 000417   040046 100400                    MLR     fill='040'O
         3 000420   000015 000020 2                  ADSC9   B$RUBIRTHKEY+13          cn=0,n=16
         3 000421   000011 000010 xsym               ADSC9   LL_DOBUF+9,Q             cn=0,n=*X0

      200    14767    6                              'A  ***Value out of range in ',
      201    14768    6                              'BIAS_OU=', TPTR$->OUT$SYM.TEXT,
      202    14769    6                              ': option ignored');
      203    14770    6                           LL_FLAGS.VAL_ERR# = '1'B;

  14770  3 000422   000001 236003                    LDQ     1,DU
         3 000423   000000 256000 xsym               ORSQ    LL_FLAGS
PL6.E3A0      #001=LLA$MAIN File=LLA$MAIN.:E05TSI                                WED 07/30/97 03:10 Page:49

      204    14771    6                           END;

  14771  3 000424   000442 710000 3                  TRA     s:14781

      205    14772    5                       ELSE
      206    14773    6                       DO;

      207    14774    6                           LL_OF$->OU_FID.BIAS(I) = TEMP;

  14774  3 000425   200022 236100                    LDQ     I,,AUTO
         3 000426   000016 402007                    MPY     14,DL
         3 000427   200023 235100                    LDA     TEMP,,AUTO
         3 000430   000000 470400 xsym               LDP0    LL_OF$
         3 000431   000015 755106                    STA     13,QL,PR0

      208    14775    6                           LL_FLAGS.BIAS_OU = '1'B;

  14775  3 000432   040000 236007                    LDQ     16384,DL
         3 000433   000000 256000 xsym               ORSQ    LL_FLAGS

      209    14776    6                           END;

      210    14777    5                       END; /* GOOD HEX */

      211    14778    4                   END;/* IF NSUBLKS=2 */

  14778  3 000434   000442 710000 3                  TRA     s:14781

      212    14779    3               ELSE
      213    14780    3                   LL_OF$->OU_FID.BIAS(I) = -1;

  14780  3 000435   200022 236100                    LDQ     I,,AUTO
         3 000436   000016 402007                    MPY     14,DL
         3 000437   000001 335007                    LCA     1,DL
         3 000440   000000 473400 xsym               LDP3    LL_OF$
         3 000441   300015 755106                    STA     13,QL,PR3
PL6.E3A0      #001=LLA$MAIN File=LLA$MAIN.:E05TSI                                WED 07/30/97 03:10 Page:50

      214    14781    3               I = I + 1;

  14781  3 000442   200022 235100                    LDA     I,,AUTO
         3 000443   000001 035007                    ADLA    1,DL
         3 000444   200022 755100                    STA     I,,AUTO

      215    14782    3               END;

  14782  3 000445   000003 470400 1                  LDP0    PCB+3
         3 000446   000001 236100                    LDQ     1,,PR0
         3 000447   000022 772000                    QRL     18
         3 000450   200022 116100                    CMPQ    I,,AUTO
         3 000451   000453 600000 3                  TZE     OU_LIST_DONE
         3 000452   000277 603000 3                  TRC     s:14745

  14781  3 000453                       OU_LIST_DONE null
      216    14783    2   OU_LIST_DONE:;
      217    14784    2           LL_NOU = I;

  14784  3 000453   200022 235100                    LDA     I,,AUTO
         3 000454   000000 755000 xsym               STA     LL_NOU

      218    14785    3           IF (LL_NOU = 1) THEN DO;

  14785  3 000455   000001 115007                    CMPA    1,DL
         3 000456   000605 601000 3                  TNZ     NOT_WILD_CARD

      219    14786    3               CALL INDEX (TEMP, '?', LL_OF$ -> OU_FID.NAME(0),0)

  14786  3 000457   000000 470400 xsym               LDP0    LL_OF$
         3 000460   000000 124500                    SCM     mask='000'O
         3 000461   000000 000062                    ADSC9   0,,PR0                   cn=0,n=50
         3 000462   000024 000001 4                  ADSC9   20                       cn=0,n=1
         3 000463   200023 000100                    ARG     TEMP,,AUTO
         3 000464   000605 606400 3                  TTN     NOT_WILD_CARD

PL6.E3A0      #001=LLA$MAIN File=LLA$MAIN.:E05TSI                                WED 07/30/97 03:10 Page:51
      220    14787    3                  ALTRET (NOT_WILD_CARD);
      221    14788    3               IF (LL_OF$ -> CHAR_ARY (TEMP+1) ~= ' ' AND

  14788  3 000465   200023 236100                    LDQ     TEMP,,AUTO
         3 000466   040000 106506                    CMPC    fill='040'O
         3 000467   000000 200001                    ADSC9   0,Q,PR0                  cn=1,n=1
         3 000470   000035 000001 xsym               ADSC9   B_VECTNIL+29             cn=0,n=1
         3 000471   000476 600000 3                  TZE     s:14791
         3 000472   040000 106506                    CMPC    fill='040'O
         3 000473   000000 200001                    ADSC9   0,Q,PR0                  cn=1,n=1
         3 000474   000025 000001 4                  ADSC9   21                       cn=0,n=1
         3 000475   000605 601000 3                  TNZ     NOT_WILD_CARD

      222    14789    3                  LL_OF$ -> CHAR_ARY (TEMP+1) ~= '.') THEN
      223    14790    3                   GOTO NOT_WILD_CARD;
      224    14791    3               LL_FIRSTFID = SUBSTR(LL_OF$->OU_FID.NAME(0),0,TEMP);

  14791  3 000476   000000 620006                    EAX0    0,QL
         3 000477   040000 100540                    MLR     fill='040'O
         3 000500   000000 000010                    ADSC9   0,,PR0                   cn=0,n=*X0
         3 000501   000000 000064 xsym               ADSC9   LL_FIRSTFID              cn=0,n=52

      225    14792    3               TPTR$ = ADDR(LL_LASTFID);

  14792  3 000502   000026 236000 4                  LDQ     22
         3 000503   200016 756100                    STQ     TPTR$,,AUTO

      226    14793    3               TPTR$ -> TEXT.NAME = LL_FIRSTFID;

  14793  3 000504   200016 471500                    LDP1    TPTR$,,AUTO
         3 000505   100000 236100                    LDQ     0,,PR1
         3 000506   000033 772000                    QRL     27
         3 000507   000000 620006                    EAX0    0,QL
         3 000510   040140 100400                    MLR     fill='040'O
         3 000511   000000 000064 xsym               ADSC9   LL_FIRSTFID              cn=0,n=52
         3 000512   100000 200010                    ADSC9   0,,PR1                   cn=1,n=*X0

PL6.E3A0      #001=LLA$MAIN File=LLA$MAIN.:E05TSI                                WED 07/30/97 03:10 Page:52
      227    14794    3               TPTR$ -> TEXT.COUNT = TEMP;

  14794  3 000513   200016 470500                    LDP0    TPTR$,,AUTO
         3 000514   200023 236100                    LDQ     TEMP,,AUTO
         3 000515   000033 736000                    QLS     27
         3 000516   000000 552140                    STBQ    0,'40'O,PR0

      228    14795    3               CALL INSERT (LL_FIRSTFID, TEMP,,

  14795  3 000517   200023 720100                    LXL0    TEMP,,AUTO
         3 000520   777716 620010                    EAX0    -50,X0
         3 000521   777777 660003                    ERX0    -1,DU
         3 000522   200023 721100                    LXL1    TEMP,,AUTO
         3 000523   777713 621011                    EAX1    -53,X1
         3 000524   777777 661003                    ERX1    -1,DU
         3 000525   000000 470400 xsym               LDP0    LL_OF$
         3 000526   200023 235100                    LDA     TEMP,,AUTO
         3 000527   040045 100545                    MLR     fill='040'O
         3 000530   000000 200010                    ADSC9   0,A,PR0                  cn=1,n=*X0
         3 000531   000000 000011 xsym               ADSC9   LL_FIRSTFID,A            cn=0,n=*X1

      229    14796    3                  SUBSTR(LL_OF$->OU_FID.NAME(0), TEMP+1));
      230    14797    3               CALL LLM$MON_SVC (LL#INITSI);

  14797  3 000532   000027 630400 4                  EPPR0   23
         3 000533   000017 631400 xsym               EPPR1   B_VECTNIL+15
         3 000534   000000 701000 xent               TSX1    LLM$MON_SVC
         3 000535   000000 011000                    NOP     0

      231    14798    3               LL_SPECFID.COUNT = TEMP;

  14798  3 000536   200023 236100                    LDQ     TEMP,,AUTO
         3 000537   000033 736000                    QLS     27
         3 000540   000000 552040 xsym               STBQ    LL_SPECFID,'40'O

      232    14799    3               LL_NOU = 0;

PL6.E3A0      #001=LLA$MAIN File=LLA$MAIN.:E05TSI                                WED 07/30/97 03:10 Page:53
  14799  3 000541   000000 450000 xsym               STZ     LL_NOU

      233    14800    4               DO WHILE (TPTR$ -> TEXT.NAME = ADDR(LL_SPECFID) -> TEXT.NAME);

  14800  3 000542   200016 470500                    LDP0    TPTR$,,AUTO
         3 000543   000000 236100                    LDQ     0,,PR0
         3 000544   000033 772000                    QRL     27
         3 000545   000000 620006                    EAX0    0,QL
         3 000546   000000 236000 xsym               LDQ     LL_SPECFID
         3 000547   000033 772000                    QRL     27
         3 000550   000000 621006                    EAX1    0,QL
         3 000551   040040 106540                    CMPC    fill='040'O
         3 000552   000000 200010                    ADSC9   0,,PR0                   cn=1,n=*X0
         3 000553   000000 200011 xsym               ADSC9   LL_SPECFID               cn=1,n=*X1
         3 000554   000605 601000 3                  TNZ     NOT_WILD_CARD

      234    14801    4                   LL_OF$->OU_FID.NAME(LL_NOU) = LL_SPECFID.NAME;

  14801  3 000555   000000 236000 xsym               LDQ     LL_NOU
         3 000556   000070 402007                    MPY     56,DL
         3 000557   000000 470400 xsym               LDP0    LL_OF$
         3 000560   040106 100400                    MLR     fill='040'O
         3 000561   000000 200062 xsym               ADSC9   LL_SPECFID               cn=1,n=50
         3 000562   000000 000062                    ADSC9   0,Q,PR0                  cn=0,n=50

      235    14802    4                   LL_NOU = LL_NOU + 1;

  14802  3 000563   000000 235000 xsym               LDA     LL_NOU
         3 000564   000001 035007                    ADLA    1,DL
         3 000565   000000 755000 xsym               STA     LL_NOU

      236    14803    4                   CALL LLM$MON_SVC (LL#NXTFSI);

  14803  3 000566   000030 630400 4                  EPPR0   24
         3 000567   000017 631400 xsym               EPPR1   B_VECTNIL+15
         3 000570   000000 701000 xent               TSX1    LLM$MON_SVC
         3 000571   000000 011000                    NOP     0
PL6.E3A0      #001=LLA$MAIN File=LLA$MAIN.:E05TSI                                WED 07/30/97 03:10 Page:54

      237    14804    4                   END;

  14804  3 000572   200016 470500                    LDP0    TPTR$,,AUTO
         3 000573   000000 236100                    LDQ     0,,PR0
         3 000574   000033 772000                    QRL     27
         3 000575   000000 620006                    EAX0    0,QL
         3 000576   000000 236000 xsym               LDQ     LL_SPECFID
         3 000577   000033 772000                    QRL     27
         3 000600   000000 621006                    EAX1    0,QL
         3 000601   040040 106540                    CMPC    fill='040'O
         3 000602   000000 200010                    ADSC9   0,,PR0                   cn=1,n=*X0
         3 000603   000000 200011 xsym               ADSC9   LL_SPECFID               cn=1,n=*X1
         3 000604   000555 600000 3                  TZE     s:14801

      238    14805    3               END;

      239    14806    2   NOT_WILD_CARD:
      240    14807    3           IF (LL_NOU = 0) THEN DO;

  14807  3 000605   000000 235000 xsym  NOT_WILD_CA* LDA     LL_NOU
         3 000606   001051 601000 3                  TNZ     s:14864

      241    14808    3               LL_OF$->OU_FID.NAME(0) = '*G';

  14808  3 000607   000000 470400 xsym               LDP0    LL_OF$
         3 000610   040100 100400                    MLR     fill='040'O
         3 000611   000030 000002 2                  ADSC9   B$RUBIRTHKEY+24          cn=0,n=2
         3 000612   000000 000062                    ADSC9   0,,PR0                   cn=0,n=50

      242    14809    3               LL_OF$->OU_FID.BIAS(0) = -1;

  14809  3 000613   000001 335007                    LCA     1,DL
         3 000614   000000 470400 xsym               LDP0    LL_OF$
         3 000615   000015 755100                    STA     13,,PR0

      243    14810    3               LL_NOU = 1;
PL6.E3A0      #001=LLA$MAIN File=LLA$MAIN.:E05TSI                                WED 07/30/97 03:10 Page:55

  14810  3 000616   000001 236007                    LDQ     1,DL
         3 000617   000000 756000 xsym               STQ     LL_NOU

      244    14811    3               END;

  14811  3 000620   001051 710000 3                  TRA     s:14864

      245    14812    2       CASE (LL#LINK_FIL);

      246    14813         /* Link command contained in file ...
      247    14814            Restriction:  command may not be another
      248    14815            'LINK fid' command. */
      249    14816    3           IF (LL_FLAGS.LINK_FID#) THEN DO;

  14816  3 000621   000000 236000 xsym               LDQ     LL_FLAGS
         3 000622   000002 316003                    CANQ    2,DU
         3 000623   000637 600000 3                  TZE     s:14822

      250    14817    3   TRY_OU:     LL_OF$->OU_FID.NAME(0) = LL_FIRSTFID;

  14817  3 000624   000000 470400 xsym  TRY_OU       LDP0    LL_OF$
         3 000625   040100 100400                    MLR     fill='040'O
         3 000626   000000 000062 xsym               ADSC9   LL_FIRSTFID              cn=0,n=50
         3 000627   000000 000062                    ADSC9   0,,PR0                   cn=0,n=50

      251    14818    3               I = I + 1;

  14818  3 000630   200022 235100                    LDA     I,,AUTO
         3 000631   000001 035007                    ADLA    1,DL
         3 000632   200022 755100                    STA     I,,AUTO

      252    14819    3               LL_OF$->OU_FID.BIAS(0) = -1;

  14819  3 000633   000001 336007                    LCQ     1,DL
         3 000634   000000 470400 xsym               LDP0    LL_OF$
         3 000635   000015 756100                    STQ     13,,PR0
PL6.E3A0      #001=LLA$MAIN File=LLA$MAIN.:E05TSI                                WED 07/30/97 03:10 Page:56

      253    14820    3               GOTO OU_LIST_DONE;

  14820  3 000636   000453 710000 3                  TRA     OU_LIST_DONE

      254    14821    3               END;
      255    14822    2           LL_FLAGS.LINK_FID# = '1'B;

  14822  3 000637   000002 236003                    LDQ     2,DU
         3 000640   000000 256000 xsym               ORSQ    LL_FLAGS

      256    14823    2           CALL LLM$MON_SVC (LL#CLOSESI);

  14823  3 000641   000021 630400 4                  EPPR0   17
         3 000642   000017 631400 xsym               EPPR1   B_VECTNIL+15
         3 000643   000000 701000 xent               TSX1    LLM$MON_SVC
         3 000644   000000 011000                    NOP     0

      257    14824    2           LL_FIRSTFID = PCB.OUT$ -> OUT$BLK.SUBLK$(0) -> OUT$SYM.TEXT;

  14824  3 000645   000003 470400 1                  LDP0    PCB+3
         3 000646   000003 471500                    LDP1    3,,PR0
         3 000647   100004 236100                    LDQ     4,,PR1
         3 000650   000033 772000                    QRL     27
         3 000651   000000 620006                    EAX0    0,QL
         3 000652   040000 100540                    MLR     fill='040'O
         3 000653   100004 200010                    ADSC9   4,,PR1                   cn=1,n=*X0
         3 000654   000000 000064 xsym               ADSC9   LL_FIRSTFID              cn=0,n=52

      258    14825    2           CALL LLM$MON_SVC (LL#FID);

  14825  3 000655   000031 630400 4                  EPPR0   25
         3 000656   000017 631400 xsym               EPPR1   B_VECTNIL+15
         3 000657   000000 701000 xent               TSX1    LLM$MON_SVC
         3 000660   000000 011000                    NOP     0

      259    14826    2           CALL LLM$MON_SVC (LL#OPENSIFIL) ALTRET(TRY_OU);
PL6.E3A0      #001=LLA$MAIN File=LLA$MAIN.:E05TSI                                WED 07/30/97 03:10 Page:57

  14826  3 000661   000032 630400 4                  EPPR0   26
         3 000662   000017 631400 xsym               EPPR1   B_VECTNIL+15
         3 000663   000000 701000 xent               TSX1    LLM$MON_SVC
         3 000664   000624 702000 3                  TSX2    TRY_OU

      260    14827    2           CALL LLA$MAIN;

  14827  3 000665   000002 631400 xsym               EPPR1   B_VECTNIL+2
         3 000666   000000 701000 3                  TSX1    s:20
         3 000667   000000 011000                    NOP     0
         3 000670   001051 710000 3                  TRA     s:14864

      261    14828    2       CASE (LL#LINK_MAP); /* FEPLINK entered via FEPMAP */

      262    14829    2           LL_RUNUNIT = PCB.OUT$ -> OUT$BLK.SUBLK$(0) -> OUT$SYM.TEXT;

  14829  3 000671   000003 471500                    LDP1    3,,PR0
         3 000672   100004 236100                    LDQ     4,,PR1
         3 000673   000033 772000                    QRL     27
         3 000674   000000 621006                    EAX1    0,QL
         3 000675   040000 100540                    MLR     fill='040'O
         3 000676   100004 200011                    ADSC9   4,,PR1                   cn=1,n=*X1
         3 000677   000000 000064 xsym               ADSC9   LL_RUNUNIT               cn=0,n=52

      263    14830    2           LL_DOBUF = 'A  ***Duplicate FEPMAP options ignored:';

  14830  3 000700   040000 100400                    MLR     fill='040'O
         3 000701   000031 000047 2                  ADSC9   B$RUBIRTHKEY+25          cn=0,n=39
         3 000702   000000 000160 xsym               ADSC9   LL_DOBUF                 cn=0,n=112

      264    14831    3           DO I = 1 TO PCB.OUT$ -> OUT$BLK.NSUBLKS - 1;

  14831  3 000703   000001 235007                    LDA     1,DL
         3 000704   200022 755100                    STA     I,,AUTO
         3 000705   000737 710000 3                  TRA     s:14843+3

PL6.E3A0      #001=LLA$MAIN File=LLA$MAIN.:E05TSI                                WED 07/30/97 03:10 Page:58
      265    14832    4               DO CASE (PCB.OUT$ -> OUT$BLK.SUBLK$(I) ->

  14832  3 000706   000003 470400 1                  LDP0    PCB+3
         3 000707   200022 720100                    LXL0    I,,AUTO
         3 000710   000003 471510                    LDP1    3,X0,PR0
         3 000711   100000 721100                    LXL1    0,,PR1
         3 000712   000004 101003                    CMPX1   4,DU
         3 000713   000715 602011 3                  TNC     s:14832+7,X1
         3 000714   000734 710000 3                  TRA     s:14843
         3 000715   000721 710000 3                  TRA     s:14835
         3 000716   000724 710000 3                  TRA     s:14837
         3 000717   000727 710000 3                  TRA     s:14839
         3 000720   000732 710000 3                  TRA     s:14841

      266    14833    4                  OUT$BLK.CODE);
      267    14834    4               CASE (LL#NAME);

      268    14835    4                   LL_FLAGS.NAME# = '1'B;

  14835  3 000721   000040 236003                    LDQ     32,DU
         3 000722   000000 256000 xsym               ORSQ    LL_FLAGS
         3 000723   000734 710000 3                  TRA     s:14843

      269    14836    4               CASE (LL#VALUE);

      270    14837    4                   LL_FLAGS.VALUE# = '1'B;

  14837  3 000724   000020 236003                    LDQ     16,DU
         3 000725   000000 256000 xsym               ORSQ    LL_FLAGS
         3 000726   000734 710000 3                  TRA     s:14843

      271    14838    4               CASE (LL#UDEF);

      272    14839    4                   LL_FLAGS.UDEF# = '1'B;

  14839  3 000727   000010 236003                    LDQ     8,DU
         3 000730   000000 256000 xsym               ORSQ    LL_FLAGS
PL6.E3A0      #001=LLA$MAIN File=LLA$MAIN.:E05TSI                                WED 07/30/97 03:10 Page:59
         3 000731   000734 710000 3                  TRA     s:14843

      273    14840    4               CASE (LL#EMPTY);

      274    14841    4                   LL_FLAGS.EMPTY# = '1'B;

  14841  3 000732   000004 236003                    LDQ     4,DU
         3 000733   000000 256000 xsym               ORSQ    LL_FLAGS

      275    14842    4                   END;

      276    14843    3               END;

  14843  3 000734   200022 235100                    LDA     I,,AUTO
         3 000735   000001 035007                    ADLA    1,DL
         3 000736   200022 755100                    STA     I,,AUTO
         3 000737   000001 236100                    LDQ     1,,PR0
         3 000740   000022 772000                    QRL     18
         3 000741   200022 116100                    CMPQ    I,,AUTO
         3 000742   000744 600000 3                  TZE     s:14844
         3 000743   000706 603000 3                  TRC     s:14832

      277    14844    2           CALL LLM$MON_SVC (LL#OPENRUIN);

  14844  3 000744   000034 630400 4                  EPPR0   28
         3 000745   000017 631400 xsym               EPPR1   B_VECTNIL+15
         3 000746   000000 701000 xent               TSX1    LLM$MON_SVC
         3 000747   000000 011000                    NOP     0

      278    14845    2           CALL LLM$MON_SVC (LL#READRU,ADDR(LL_HEAD),SIZEC(LL_HEAD)-1,HEADKEY);

  14845  3 000750   000036 236000 4                  LDQ     30
         3 000751   200054 756100                    STQ     CHAR2+2,,AUTO
         3 000752   000040 237000 4                  LDAQ    32
         3 000753   200060 757100                    STAQ    CHAR2+6,,AUTO
         3 000754   200054 630500                    EPPR0   CHAR2+2,,AUTO
         3 000755   200057 450500                    STP0    CHAR2+5,,AUTO
PL6.E3A0      #001=LLA$MAIN File=LLA$MAIN.:E05TSI                                WED 07/30/97 03:10 Page:60
         3 000756   000042 236000 4                  LDQ     34
         3 000757   200056 756100                    STQ     CHAR2+4,,AUTO
         3 000760   200056 630500                    EPPR0   CHAR2+4,,AUTO
         3 000761   000022 631400 xsym               EPPR1   B_VECTNIL+18
         3 000762   000000 701000 xent               TSX1    LLM$MON_SVC
         3 000763   000000 011000                    NOP     0

      279    14846    2          CALL LLM$MON_SVC (LL#READRU,ADDR(B$RUBIRTH),SIZEC(B$RUBIRTH)-1,B$RUBIRTHKEY)
             14846                    ;

  14846  3 000764   000043 236000 4                  LDQ     35
         3 000765   200054 756100                    STQ     CHAR2+2,,AUTO
         3 000766   000044 237000 4                  LDAQ    36
         3 000767   200060 757100                    STAQ    CHAR2+6,,AUTO
         3 000770   200054 630500                    EPPR0   CHAR2+2,,AUTO
         3 000771   200057 450500                    STP0    CHAR2+5,,AUTO
         3 000772   000042 236000 4                  LDQ     34
         3 000773   200056 756100                    STQ     CHAR2+4,,AUTO
         3 000774   200056 630500                    EPPR0   CHAR2+4,,AUTO
         3 000775   000022 631400 xsym               EPPR1   B_VECTNIL+18
         3 000776   000000 701000 xent               TSX1    LLM$MON_SVC
         3 000777   000000 011000                    NOP     0

      280    14847    2           LL_DATA_START = LL_HEAD.BIAS;

  14847  3 001000   000023 236000 xsym               LDQ     LL_HEAD+19
         3 001001   000046 376000 4                  ANQ     38
         3 001002   000000 756000 xsym               STQ     LL_DATA_START

      281    14848    2           TEMP = LL_HEAD.BIAS + LL_HEAD.RDATA;

  14848  3 001003   000002 236000 xsym               LDQ     LL_HEAD+2
         3 001004   000046 376000 4                  ANQ     38
         3 001005   200054 756100                    STQ     CHAR2+2,,AUTO
         3 001006   000023 236000 xsym               LDQ     LL_HEAD+19
         3 001007   000046 376000 4                  ANQ     38
         3 001010   200054 036100                    ADLQ    CHAR2+2,,AUTO
PL6.E3A0      #001=LLA$MAIN File=LLA$MAIN.:E05TSI                                WED 07/30/97 03:10 Page:61
         3 001011   200023 756100                    STQ     TEMP,,AUTO

      282    14849    2           IF TEMP > 65536

  14849  3 001012   200001 116007                    CMPQ    65537,DL
         3 001013   001021 602000 3                  TNC     s:14853

      283    14850    2           THEN
      284    14851    2               LL_PROC_START = ((TEMP + 65535)/65536)*65536;

  14851  3 001014   177777 036007                    ADLQ    65535,DL
         3 001015   000020 772000                    QRL     16
         3 001016   000020 736000                    QLS     16
         3 001017   000000 756000 xsym               STQ     LL_PROC_START
         3 001020   001025 710000 3                  TRA     s:14854

      285    14852    2           ELSE
      286    14853    2               LL_PROC_START = ((TEMP + 4095) /4096) *4096;

  14853  3 001021   007777 036007                    ADLQ    4095,DL
         3 001022   000014 772000                    QRL     12
         3 001023   000014 736000                    QLS     12
         3 001024   000000 756000 xsym               STQ     LL_PROC_START

      287    14854    2           IF LL_HEAD.LIB

  14854  3 001025   000022 236000 xsym               LDQ     LL_HEAD+18
         3 001026   000200 316003                    CANQ    128,DU
         3 001027   001041 600000 3                  TZE     s:14861

      288    14855    2           THEN
      289    14856    2               IF LL_HEAD.VERSION# = 0

  14856  3 001030   000011 236000 xsym               LDQ     LL_HEAD+9
         3 001031   777000 316003                    CANQ    -512,DU
         3 001032   001037 601000 3                  TNZ     s:14860

PL6.E3A0      #001=LLA$MAIN File=LLA$MAIN.:E05TSI                                WED 07/30/97 03:10 Page:62
      290    14857    2               THEN
      291    14858    2                   LL_PROC_START = BITBIN('60000'X);

  14858  3 001033   000043 236000 2                  LDQ     B$RUBIRTHKEY+35
         3 001034   000020 772000                    QRL     16
         3 001035   000000 756000 xsym               STQ     LL_PROC_START
         3 001036   001041 710000 3                  TRA     s:14861

      292    14859    2               ELSE
      293    14860    2                   LL_PROC_START = LL_LPROC_START;

  14860  3 001037   000000 235000 xsym               LDA     LL_LPROC_START
         3 001040   000000 755000 xsym               STA     LL_PROC_START

      294    14861    2           CALL LLD$MAP (PCB.TEXT$);

  14861  3 001041   000001 630400 4                  EPPR0   1
         3 001042   000017 631400 xsym               EPPR1   B_VECTNIL+15
         3 001043   000000 701000 xent               TSX1    LLD$MAP
         3 001044   000000 011000                    NOP     0

      295    14862    2           CALL LLM$MON_SVC (LL#EXIT);

  14862  3 001045   000044 630400 4                  EPPR0   36
         3 001046   000017 631400 xsym               EPPR1   B_VECTNIL+15
         3 001047   000000 701000 xent               TSX1    LLM$MON_SVC
         3 001050   000000 011000                    NOP     0

      296    14863    2           END;

      297    14864    1       IF PCB.OUT$ -> OUT$BLK.NSUBLKS > I

  14864  3 001051   000003 470400 1                  LDP0    PCB+3
         3 001052   000001 236100                    LDQ     1,,PR0
         3 001053   000022 772000                    QRL     18
         3 001054   200022 116100                    CMPQ    I,,AUTO
         3 001055   001103 602000 3                  TNC     s:14871
PL6.E3A0      #001=LLA$MAIN File=LLA$MAIN.:E05TSI                                WED 07/30/97 03:10 Page:63
         3 001056   001103 600000 3                  TZE     s:14871
         3 001057   200022 720100                    LXL0    I,,AUTO
         3 001060   000003 471510                    LDP1    3,X0,PR0
         3 001061   100000 721100                    LXL1    0,,PR1
         3 001062   000144 101003                    CMPX1   100,DU
         3 001063   001103 602000 3                  TNC     s:14871

      298    14865    2          AND PCB.OUT$ -> OUT$BLK.SUBLK$(I) -> OUT$BLK.CODE >= 100 THEN DO;

      299    14866    2           IF (PCB.OUT$ -> OUT$BLK.SUBLK$(I) -> OUT$BLK.CODE = 101) THEN

  14866  3 001064   000145 101003                    CMPX1   101,DU
         3 001065   001070 601000 3                  TNZ     s:14868

      300    14867    2               LL_FLAGS.OVER# = '1'B;

  14867  3 001066   000100 236003                    LDQ     64,DU
         3 001067   000000 256000 xsym               ORSQ    LL_FLAGS

      301    14868    2           LL_RUNUNIT = PCB.OUT$ -> OUT$BLK.SUBLK$(I + 1) -> OUT$SYM.TEXT;

  14868  3 001070   000004 471510                    LDP1    4,X0,PR0
         3 001071   100004 236100                    LDQ     4,,PR1
         3 001072   000033 772000                    QRL     27
         3 001073   000000 621006                    EAX1    0,QL
         3 001074   040000 100540                    MLR     fill='040'O
         3 001075   100004 200011                    ADSC9   4,,PR1                   cn=1,n=*X1
         3 001076   000000 000064 xsym               ADSC9   LL_RUNUNIT               cn=0,n=52

      302    14869    2           I = I + 2;

  14869  3 001077   200022 235100                    LDA     I,,AUTO
         3 001100   000002 035007                    ADLA    2,DL
         3 001101   200022 755100                    STA     I,,AUTO

      303    14870    2           END; ELSE DO;

PL6.E3A0      #001=LLA$MAIN File=LLA$MAIN.:E05TSI                                WED 07/30/97 03:10 Page:64
  14870  3 001102   001110 710000 3                  TRA     s:14874

      304    14871    2           LL_FLAGS.OVER# = '1'B;

  14871  3 001103   000100 236003                    LDQ     64,DU
         3 001104   000000 256000 xsym               ORSQ    LL_FLAGS

      305    14872    2           LL_RUNUNIT = '*L';

  14872  3 001105   040000 100400                    MLR     fill='040'O
         3 001106   000044 000002 2                  ADSC9   B$RUBIRTHKEY+36          cn=0,n=2
         3 001107   000000 000064 xsym               ADSC9   LL_RUNUNIT               cn=0,n=52

      306    14873    2           END;

      307    14874    1       CALL LLM$MON_SVC (LL#OPENRU);

  14874  3 001110   000050 630400 4                  EPPR0   40
         3 001111   000017 631400 xsym               EPPR1   B_VECTNIL+15
         3 001112   000000 701000 xent               TSX1    LLM$MON_SVC
         3 001113   000000 011000                    NOP     0

      308    14875    1       LL_HEAD = '0'B;

  14875  3 001114   000000 100400                    MLR     fill='000'O
         3 001115   000002 000001 xsym               ADSC9   B_VECTNIL+2              cn=0,n=1
         3 001116   000000 000240 xsym               ADSC9   LL_HEAD                  cn=0,n=160

      309    14876    1       LL_HEAD.BIAS = 65536;

  14876  3 001117   000023 236000 xsym               LDQ     LL_HEAD+19
         3 001120   777774 376003                    ANQ     -4,DU
         3 001121   200000 276007                    ORQ     65536,DL
         3 001122   000023 756000 xsym               STQ     LL_HEAD+19

      310    14877    1       LL_HEAD.S = '1'B;

PL6.E3A0      #001=LLA$MAIN File=LLA$MAIN.:E05TSI                                WED 07/30/97 03:10 Page:65
  14877  3 001123   000400 236003                    LDQ     256,DU
         3 001124   000022 256000 xsym               ORSQ    LL_HEAD+18

      311    14878         /* Remainder of syntax checks
      312    14879            Check option (subopt) lists for validity */
      313    14880    2       DO X = I TO PCB.OUT$ -> OUT$BLK.NSUBLKS - 1;

  14880  3 001125   200022 235100                    LDA     I,,AUTO
         3 001126   200036 755100                    STA     X,,AUTO
         3 001127   003126 710000 3                  TRA     s:15251+3

      314    14881    3           DO CASE (PCB.OUT$ -> OUT$BLK.SUBLK$(X) -> OUT$BLK.CODE);

  14881  3 001130   000003 470400 1                  LDP0    PCB+3
         3 001131   200036 720100                    LXL0    X,,AUTO
         3 001132   000003 471510                    LDP1    3,X0,PR0
         3 001133   100000 721100                    LXL1    0,,PR1
         3 001134   000034 101003                    CMPX1   28,DU
         3 001135   001137 602011 3                  TNC     s:14881+7,X1
         3 001136   003112 710000 3                  TRA     s:15247
         3 001137   001312 710000 3                  TRA     s:14916
         3 001140   001553 710000 3                  TRA     s:14971
         3 001141   001450 710000 3                  TRA     s:14948
         3 001142   002513 710000 3                  TRA     s:15144
         3 001143   001674 710000 3                  TRA     s:15005
         3 001144   002316 710000 3                  TRA     s:15097
         3 001145   001677 710000 3                  TRA     s:15007
         3 001146   002321 710000 3                  TRA     s:15099
         3 001147   002324 710000 3                  TRA     s:15101
         3 001150   001354 710000 3                  TRA     s:14928
         3 001151   001412 710000 3                  TRA     s:14938
         3 001152   002371 710000 3                  TRA     s:15118
         3 001153   002347 710000 3                  TRA     s:15113
         3 001154   002413 710000 3                  TRA     s:15123
         3 001155   003112 710000 3                  TRA     s:15247
         3 001156   002477 710000 3                  TRA     s:15140
         3 001157   003112 710000 3                  TRA     s:15247
PL6.E3A0      #001=LLA$MAIN File=LLA$MAIN.:E05TSI                                WED 07/30/97 03:10 Page:66
         3 001160   001173 710000 3                  TRA     s:14883
         3 001161   001745 710000 3                  TRA     s:15023
         3 001162   002516 710000 3                  TRA     s:15146
         3 001163   002623 710000 3                  TRA     s:15178
         3 001164   002521 710000 3                  TRA     s:15148
         3 001165   002524 710000 3                  TRA     s:15150
         3 001166   002527 710000 3                  TRA     s:15152
         3 001167   002532 710000 3                  TRA     s:15154
         3 001170   002535 710000 3                  TRA     s:15156
         3 001171   002535 710000 3                  TRA     s:15156
         3 001172   002761 710000 3                  TRA     s:15213

      315    14882    3           CASE (LL#PSEUDO); /* Pseudo resourse */

      316    14883    3               TPTR$ = PCB.OUT$->OUT$BLK.SUBLK$(X);

  14883  3 001173   000003 236110                    LDQ     3,X0,PR0
         3 001174   200016 756100                    STQ     TPTR$,,AUTO

      317    14884    3               IF TPTR$->OUT$BLK.SUBLK$(0)->OUT$SYM.COUNT > 8

  14884  3 001175   200016 471500                    LDP1    TPTR$,,AUTO
         3 001176   100003 473500                    LDP3    3,,PR1
         3 001177   300004 236100                    LDQ     4,,PR3
         3 001200   777000 376003                    ANQ     -512,DU
         3 001201   011000 116003                    CMPQ    4608,DU
         3 001202   001230 602000 3                  TNC     s:14895

      318    14885    3               THEN
      319    14886    4               DO; /* Option ignore */

      320    14887    4                   CALL CONCAT(LL_DOBUF,

  14887  3 001203   300004 236100                    LDQ     4,,PR3
         3 001204   000033 772000                    QRL     27
         3 001205   040000 100400                    MLR     fill='040'O
         3 001206   000045 000052 2                  ADSC9   B$RUBIRTHKEY+37          cn=0,n=42
PL6.E3A0      #001=LLA$MAIN File=LLA$MAIN.:E05TSI                                WED 07/30/97 03:10 Page:67
         3 001207   000000 000052 xsym               ADSC9   LL_DOBUF                 cn=0,n=42
         3 001210   000000 621006                    EAX1    0,QL
         3 001211   040000 100540                    MLR     fill='040'O
         3 001212   300004 200011                    ADSC9   4,,PR3                   cn=1,n=*X1
         3 001213   000012 400106 xsym               ADSC9   LL_DOBUF+10              cn=2,n=70
         3 001214   000106 116007                    CMPQ    70,DL
         3 001215   001223 603000 3                  TRC     s:14891
         3 001216   777671 621006                    EAX1    -71,QL
         3 001217   777777 661003                    ERX1    -1,DU
         3 001220   040046 100400                    MLR     fill='040'O
         3 001221   000060 000020 2                  ADSC9   B$RUBIRTHKEY+48          cn=0,n=16
         3 001222   000012 400011 xsym               ADSC9   LL_DOBUF+10,Q            cn=2,n=*X1

      321    14888    4                      'A  ***Illegal pseudo resource name pseudo=',
      322    14889    4                      TPTR$->OUT$BLK.SUBLK$(0)->OUT$SYM.TEXT,
      323    14890    4                      ' :option ignored');
      324    14891    4                   CALL LLM$MON_SVC(LL#WRITEDO);

  14891  3 001223   000051 630400 4                  EPPR0   41
         3 001224   000017 631400 xsym               EPPR1   B_VECTNIL+15
         3 001225   000000 701000 xent               TSX1    LLM$MON_SVC
         3 001226   000000 011000                    NOP     0

      325    14892    4                   END;

  14892  3 001227   003112 710000 3                  TRA     s:15247

      326    14893    3               ELSE
      327    14894    4               DO;

      328    14895    4                   LL_HEAD.PSEUDO_TEXT = TPTR$->OUT$BLK.SUBLK$(0)->OUT$SYM.TEXT;

  14895  3 001230   300004 236100                    LDQ     4,,PR3
         3 001231   000033 772000                    QRL     27
         3 001232   000000 621006                    EAX1    0,QL
         3 001233   040000 100540                    MLR     fill='040'O
         3 001234   300004 200011                    ADSC9   4,,PR3                   cn=1,n=*X1
PL6.E3A0      #001=LLA$MAIN File=LLA$MAIN.:E05TSI                                WED 07/30/97 03:10 Page:68
         3 001235   000024 000010 xsym               ADSC9   LL_HEAD+20               cn=0,n=8

      329    14896    4                   LL_HEAD.PSEUDO_COUNT = 1;

  14896  3 001236   001000 236003                    LDQ     512,DU
         3 001237   000023 552040 xsym               STBQ    LL_HEAD+19,'40'O

      330    14897    4                   IF TPTR$->OUT$BLK.NSUBLKS = 2

  14897  3 001240   100001 221100                    LDX1    1,,PR1
         3 001241   000002 101003                    CMPX1   2,DU
         3 001242   003112 601000 3                  TNZ     s:15247

      331    14898    4                   THEN
      332    14899    5                   DO;

      333    14900    5                       CALL CHARBIN(TEMP,TPTR$->OUT$BLK.SUBLK$(1)->OUT$SYM.TEXT);

  14900  3 001243   100004 473500                    LDP3    4,,PR1
         3 001244   300004 236100                    LDQ     4,,PR3
         3 001245   000033 772000                    QRL     27
         3 001246   000000 622006                    EAX2    0,QL
         3 001247   000100 305540                    DTB
         3 001250   300004 230012                    NDSC9   4,,PR3                   cn=1,s=nosgn,sf=0,n=*X2
         3 001251   200054 000010                    NDSC9   CHAR2+2,,AUTO            cn=0,s=lsgnf,sf=0,n=8
         3 001252   200055 235100                    LDA     CHAR2+3,,AUTO
         3 001253   200023 755100                    STA     TEMP,,AUTO

      334    14901    5                       IF TEMP < 511

  14901  3 001254   000777 115007                    CMPA    511,DL
         3 001255   001262 603000 3                  TRC     s:14906

      335    14902    5                       THEN
      336    14903    5                           LL_HEAD.PSEUDO_COUNT = TEMP;

  14903  3 001256   200023 236100                    LDQ     TEMP,,AUTO
PL6.E3A0      #001=LLA$MAIN File=LLA$MAIN.:E05TSI                                WED 07/30/97 03:10 Page:69
         3 001257   000033 736000                    QLS     27
         3 001260   000023 552040 xsym               STBQ    LL_HEAD+19,'40'O
         3 001261   003112 710000 3                  TRA     s:15247

      337    14904    5                       ELSE
      338    14905    6                       DO;

      339    14906    6                           CALL CONCAT(LL_DOBUF,

  14906  3 001262   100004 473500                    LDP3    4,,PR1
         3 001263   300004 236100                    LDQ     4,,PR3
         3 001264   000033 772000                    QRL     27
         3 001265   040000 100400                    MLR     fill='040'O
         3 001266   000064 000036 2                  ADSC9   B$RUBIRTHKEY+52          cn=0,n=30
         3 001267   000000 000036 xsym               ADSC9   LL_DOBUF                 cn=0,n=30
         3 001270   000000 621006                    EAX1    0,QL
         3 001271   040000 100540                    MLR     fill='040'O
         3 001272   300004 200011                    ADSC9   4,,PR3                   cn=1,n=*X1
         3 001273   000007 400122 xsym               ADSC9   LL_DOBUF+7               cn=2,n=82
         3 001274   000122 116007                    CMPQ    82,DL
         3 001275   001303 603000 3                  TRC     s:14910
         3 001276   777655 621006                    EAX1    -83,QL
         3 001277   777777 661003                    ERX1    -1,DU
         3 001300   040046 100400                    MLR     fill='040'O
         3 001301   000074 000035 2                  ADSC9   B$RUBIRTHKEY+60          cn=0,n=29
         3 001302   000007 400011 xsym               ADSC9   LL_DOBUF+7,Q             cn=2,n=*X1

      340    14907    6                              'A ***Number of resnm required ',
      341    14908    6                              TPTR$->OUT$BLK.SUBLK$(1)->OUT$SYM.TEXT,
      342    14909    6                              ' is out of range. 511 is used');
      343    14910    6                           CALL LLM$MON_SVC(LL#WRITEDO);

  14910  3 001303   000051 630400 4                  EPPR0   41
         3 001304   000017 631400 xsym               EPPR1   B_VECTNIL+15
         3 001305   000000 701000 xent               TSX1    LLM$MON_SVC
         3 001306   000000 011000                    NOP     0

PL6.E3A0      #001=LLA$MAIN File=LLA$MAIN.:E05TSI                                WED 07/30/97 03:10 Page:70
      344    14911    6                           LL_HEAD.PSEUDO_COUNT = 511;

  14911  3 001307   777000 236003                    LDQ     -512,DU
         3 001310   000023 552040 xsym               STBQ    LL_HEAD+19,'40'O

      345    14912    6                           END;

      346    14913    5                       END;

      347    14914    4                   END;

  14914  3 001311   003112 710000 3                  TRA     s:15247

      348    14915    3           CASE (LL#SL); /* Severity Level */

      349    14916    3               TPTR$ = PCB.OUT$ -> OUT$BLK.SUBLK$(X) -> OUT$BLK.SUBLK$(0);

  14916  3 001312   100003 236100                    LDQ     3,,PR1
         3 001313   200016 756100                    STQ     TPTR$,,AUTO

      350    14917    3               CALL CHARBIN (TEMP, TPTR$ -> OUT$SYM.TEXT );

  14917  3 001314   200016 471500                    LDP1    TPTR$,,AUTO
         3 001315   100004 236100                    LDQ     4,,PR1
         3 001316   000033 772000                    QRL     27
         3 001317   000000 621006                    EAX1    0,QL
         3 001320   000100 305540                    DTB
         3 001321   100004 230011                    NDSC9   4,,PR1                   cn=1,s=nosgn,sf=0,n=*X1
         3 001322   200054 000010                    NDSC9   CHAR2+2,,AUTO            cn=0,s=lsgnf,sf=0,n=8
         3 001323   200055 235100                    LDA     CHAR2+3,,AUTO
         3 001324   200023 755100                    STA     TEMP,,AUTO

      351    14918    4               IF TEMP > 15 THEN DO;

  14918  3 001325   000020 115007                    CMPA    16,DL
         3 001326   001352 602000 3                  TNC     s:14925

PL6.E3A0      #001=LLA$MAIN File=LLA$MAIN.:E05TSI                                WED 07/30/97 03:10 Page:71
      352    14919    4                   CALL CONCAT (LL_DOBUF,

  14919  3 001327   100004 236100                    LDQ     4,,PR1
         3 001330   000033 772000                    QRL     27
         3 001331   040000 100400                    MLR     fill='040'O
         3 001332   000104 000045 2                  ADSC9   B$RUBIRTHKEY+68          cn=0,n=37
         3 001333   000000 000045 xsym               ADSC9   LL_DOBUF                 cn=0,n=37
         3 001334   000000 621006                    EAX1    0,QL
         3 001335   040000 100540                    MLR     fill='040'O
         3 001336   100004 200011                    ADSC9   4,,PR1                   cn=1,n=*X1
         3 001337   000011 200113 xsym               ADSC9   LL_DOBUF+9               cn=1,n=75
         3 001340   000113 116007                    CMPQ    75,DL
         3 001341   001347 603000 3                  TRC     s:14922
         3 001342   777664 621006                    EAX1    -76,QL
         3 001343   777777 661003                    ERX1    -1,DU
         3 001344   040046 100400                    MLR     fill='040'O
         3 001345   000116 000021 2                  ADSC9   B$RUBIRTHKEY+78          cn=0,n=17
         3 001346   000011 200011 xsym               ADSC9   LL_DOBUF+9,Q             cn=1,n=*X1

      353    14920    4                      'A  ***Value out of range in SEVERITY=',
      354    14921    4                      TPTR$ -> OUT$SYM.TEXT, ':  option ignored' );
      355    14922    4                   LL_FLAGS.VAL_ERR# = '1'B;

  14922  3 001347   000001 236003                    LDQ     1,DU
         3 001350   000000 256000 xsym               ORSQ    LL_FLAGS

      356    14923    4                   END;

  14923  3 001351   003112 710000 3                  TRA     s:15247

      357    14924    4               ELSE DO;

      358    14925    4                   LL_VAL_SL = TEMP;

  14925  3 001352   000000 755000 xsym               STA     LL_VAL_SL

      359    14926    4                   END;
PL6.E3A0      #001=LLA$MAIN File=LLA$MAIN.:E05TSI                                WED 07/30/97 03:10 Page:72

  14926  3 001353   003112 710000 3                  TRA     s:15247

      360    14927    3           CASE (LL#DPATCH); /* Data patch area res */

      361    14928    3               TPTR$ = PCB.OUT$ -> OUT$BLK.SUBLK$(X) -> OUT$BLK.SUBLK$(0);

  14928  3 001354   100003 236100                    LDQ     3,,PR1
         3 001355   200016 756100                    STQ     TPTR$,,AUTO

      362    14929    3               CALL CHARBIN ( LL_DPATCH, TPTR$ -> OUT$SYM.TEXT );

  14929  3 001356   200016 471500                    LDP1    TPTR$,,AUTO
         3 001357   100004 236100                    LDQ     4,,PR1
         3 001360   000033 772000                    QRL     27
         3 001361   000000 621006                    EAX1    0,QL
         3 001362   000100 305540                    DTB
         3 001363   100004 230011                    NDSC9   4,,PR1                   cn=1,s=nosgn,sf=0,n=*X1
         3 001364   200054 000010                    NDSC9   CHAR2+2,,AUTO            cn=0,s=lsgnf,sf=0,n=8
         3 001365   200055 235100                    LDA     CHAR2+3,,AUTO
         3 001366   000000 755000 xsym               STA     LL_DPATCH

      363    14930    4               IF LL_DPATCH > 65535 THEN DO;

  14930  3 001367   200000 115007                    CMPA    65536,DL
         3 001370   003112 602000 3                  TNC     s:15247

      364    14931    4                   LL_DPATCH = 65535;

  14931  3 001371   177777 236007                    LDQ     65535,DL
         3 001372   000000 756000 xsym               STQ     LL_DPATCH

      365    14932    4                   LL_DOBUF = 'A  ***DPATCH value too high.';

  14932  3 001373   040000 100400                    MLR     fill='040'O
         3 001374   000123 000034 2                  ADSC9   B$RUBIRTHKEY+83          cn=0,n=28
         3 001375   000000 000160 xsym               ADSC9   LL_DOBUF                 cn=0,n=112
PL6.E3A0      #001=LLA$MAIN File=LLA$MAIN.:E05TSI                                WED 07/30/97 03:10 Page:73

      366    14933    4                   CALL LLM$MON_SVC (LL#WRITEDO);

  14933  3 001376   000051 630400 4                  EPPR0   41
         3 001377   000017 631400 xsym               EPPR1   B_VECTNIL+15
         3 001400   000000 701000 xent               TSX1    LLM$MON_SVC
         3 001401   000000 011000                    NOP     0

      367    14934    4                   LL_DOBUF = 'A     Maximum value 65535 used instead.';

  14934  3 001402   040000 100400                    MLR     fill='040'O
         3 001403   000132 000047 2                  ADSC9   B$RUBIRTHKEY+90          cn=0,n=39
         3 001404   000000 000160 xsym               ADSC9   LL_DOBUF                 cn=0,n=112

      368    14935    4                   CALL LLM$MON_SVC (LL#WRITEDO);

  14935  3 001405   000051 630400 4                  EPPR0   41
         3 001406   000017 631400 xsym               EPPR1   B_VECTNIL+15
         3 001407   000000 701000 xent               TSX1    LLM$MON_SVC
         3 001410   000000 011000                    NOP     0

      369    14936    4                   END;

  14936  3 001411   003112 710000 3                  TRA     s:15247

      370    14937    3           CASE (LL#IPATCH);

      371    14938    3               TPTR$ = PCB.OUT$ -> OUT$BLK.SUBLK$(X) -> OUT$BLK.SUBLK$(0);

  14938  3 001412   100003 236100                    LDQ     3,,PR1
         3 001413   200016 756100                    STQ     TPTR$,,AUTO

      372    14939    3               CALL CHARBIN ( LL_IPATCH, TPTR$ -> OUT$SYM.TEXT );

  14939  3 001414   200016 471500                    LDP1    TPTR$,,AUTO
         3 001415   100004 236100                    LDQ     4,,PR1
         3 001416   000033 772000                    QRL     27
PL6.E3A0      #001=LLA$MAIN File=LLA$MAIN.:E05TSI                                WED 07/30/97 03:10 Page:74
         3 001417   000000 621006                    EAX1    0,QL
         3 001420   000100 305540                    DTB
         3 001421   100004 230011                    NDSC9   4,,PR1                   cn=1,s=nosgn,sf=0,n=*X1
         3 001422   200054 000010                    NDSC9   CHAR2+2,,AUTO            cn=0,s=lsgnf,sf=0,n=8
         3 001423   200055 235100                    LDA     CHAR2+3,,AUTO
         3 001424   000000 755000 xsym               STA     LL_IPATCH

      373    14940    4               IF LL_IPATCH > 65535 THEN DO;

  14940  3 001425   200000 115007                    CMPA    65536,DL
         3 001426   003112 602000 3                  TNC     s:15247

      374    14941    4                   LL_IPATCH = 65535;

  14941  3 001427   177777 236007                    LDQ     65535,DL
         3 001430   000000 756000 xsym               STQ     LL_IPATCH

      375    14942    4                   LL_DOBUF = 'A  ***IPATCH value too high.';

  14942  3 001431   040000 100400                    MLR     fill='040'O
         3 001432   000144 000034 2                  ADSC9   B$RUBIRTHKEY+100         cn=0,n=28
         3 001433   000000 000160 xsym               ADSC9   LL_DOBUF                 cn=0,n=112

      376    14943    4                   CALL LLM$MON_SVC (LL#WRITEDO);

  14943  3 001434   000051 630400 4                  EPPR0   41
         3 001435   000017 631400 xsym               EPPR1   B_VECTNIL+15
         3 001436   000000 701000 xent               TSX1    LLM$MON_SVC
         3 001437   000000 011000                    NOP     0

      377    14944    4                   LL_DOBUF = 'A     Maximum value 65535 used instead.';

  14944  3 001440   040000 100400                    MLR     fill='040'O
         3 001441   000132 000047 2                  ADSC9   B$RUBIRTHKEY+90          cn=0,n=39
         3 001442   000000 000160 xsym               ADSC9   LL_DOBUF                 cn=0,n=112

      378    14945    4                   CALL LLM$MON_SVC (LL#WRITEDO);
PL6.E3A0      #001=LLA$MAIN File=LLA$MAIN.:E05TSI                                WED 07/30/97 03:10 Page:75

  14945  3 001443   000051 630400 4                  EPPR0   41
         3 001444   000017 631400 xsym               EPPR1   B_VECTNIL+15
         3 001445   000000 701000 xent               TSX1    LLM$MON_SVC
         3 001446   000000 011000                    NOP     0

      379    14946    4                   END;

  14946  3 001447   003112 710000 3                  TRA     s:15247

      380    14947    3           CASE (LL#START); /* Start */

      381    14948    3               TPTR$ = PCB.OUT$ -> OUT$BLK.SUBLK$(X) -> OUT$BLK.SUBLK$(0);

  14948  3 001450   100003 236100                    LDQ     3,,PR1
         3 001451   200016 756100                    STQ     TPTR$,,AUTO

      382    14949    3               CALL LLH$HEXBIN (TEMP, TPTR$ -> OUT$SYM.COUNT,

  14949  3 001452   000023 036000 4                  ADLQ    19
         3 001453   200056 756100                    STQ     CHAR2+4,,AUTO
         3 001454   200016 236100                    LDQ     TPTR$,,AUTO
         3 001455   000004 036003                    ADLQ    4,DU
         3 001456   200055 756100                    STQ     CHAR2+3,,AUTO
         3 001457   200023 631500                    EPPR1   TEMP,,AUTO
         3 001460   200054 451500                    STP1    CHAR2+2,,AUTO
         3 001461   200054 630500                    EPPR0   CHAR2+2,,AUTO
         3 001462   000021 631400 xsym               EPPR1   B_VECTNIL+17
         3 001463   000000 701000 xent               TSX1    LLH$HEXBIN
         3 001464   000000 011000                    NOP     0

      383    14950    3                  TPTR$ -> OUT$SYM.TEXT);
      384    14951    4               IF (LL_FLAGS.BAD_HEX#) THEN DO;

  14951  3 001465   000000 236000 xsym               LDQ     LL_FLAGS
         3 001466   000200 316003                    CANQ    128,DU
         3 001467   001515 600000 3                  TZE     s:14958
PL6.E3A0      #001=LLA$MAIN File=LLA$MAIN.:E05TSI                                WED 07/30/97 03:10 Page:76

      385    14952    4                   CALL INSERT (LL_DOBUF,0,,

  14952  3 001470   200016 470500                    LDP0    TPTR$,,AUTO
         3 001471   000004 236100                    LDQ     4,,PR0
         3 001472   000033 772000                    QRL     27
         3 001473   040000 100400                    MLR     fill='040'O
         3 001474   000002 000044 2                  ADSC9   B$RUBIRTHKEY+2           cn=0,n=36
         3 001475   000000 000044 xsym               ADSC9   LL_DOBUF                 cn=0,n=36
         3 001476   040000 100400                    MLR     fill='040'O
         3 001477   000153 000006 2                  ADSC9   B$RUBIRTHKEY+107         cn=0,n=6
         3 001500   000011 000006 xsym               ADSC9   LL_DOBUF+9               cn=0,n=6
         3 001501   000000 620006                    EAX0    0,QL
         3 001502   040000 100540                    MLR     fill='040'O
         3 001503   000004 200010                    ADSC9   4,,PR0                   cn=1,n=*X0
         3 001504   000012 400106 xsym               ADSC9   LL_DOBUF+10              cn=2,n=70
         3 001505   000106 116007                    CMPQ    70,DL
         3 001506   001514 603000 3                  TRC     s:14956
         3 001507   777671 620006                    EAX0    -71,QL
         3 001510   777777 660003                    ERX0    -1,DU
         3 001511   040046 100400                    MLR     fill='040'O
         3 001512   000116 000021 2                  ADSC9   B$RUBIRTHKEY+78          cn=0,n=17
         3 001513   000012 400010 xsym               ADSC9   LL_DOBUF+10,Q            cn=2,n=*X0

      386    14953    4                      'A  ***Invalid hexadecimal string in ',
      387    14954    4                      'START=', TPTR$ -> OUT$SYM.TEXT,
      388    14955    4                      ':  option ignored');
      389    14956    4                   END;

  14956  3 001514   003112 710000 3                  TRA     s:15247

      390    14957    4               ELSE DO;

      391    14958    5                   IF (TEMP > 1048575) THEN DO;

  14958  3 001515   200023 235100                    LDA     TEMP,,AUTO
         3 001516   000004 115003                    CMPA    4,DU
PL6.E3A0      #001=LLA$MAIN File=LLA$MAIN.:E05TSI                                WED 07/30/97 03:10 Page:77
         3 001517   001547 602000 3                  TNC     s:14966

      392    14959    5                       CALL INSERT (LL_DOBUF,0,,

  14959  3 001520   200016 470500                    LDP0    TPTR$,,AUTO
         3 001521   000004 236100                    LDQ     4,,PR0
         3 001522   000033 772000                    QRL     27
         3 001523   040000 100400                    MLR     fill='040'O
         3 001524   000021 000034 2                  ADSC9   B$RUBIRTHKEY+17          cn=0,n=28
         3 001525   000000 000034 xsym               ADSC9   LL_DOBUF                 cn=0,n=28
         3 001526   040000 100400                    MLR     fill='040'O
         3 001527   000153 000006 2                  ADSC9   B$RUBIRTHKEY+107         cn=0,n=6
         3 001530   000007 000006 xsym               ADSC9   LL_DOBUF+7               cn=0,n=6
         3 001531   000000 620006                    EAX0    0,QL
         3 001532   040000 100540                    MLR     fill='040'O
         3 001533   000004 200010                    ADSC9   4,,PR0                   cn=1,n=*X0
         3 001534   000010 400116 xsym               ADSC9   LL_DOBUF+8               cn=2,n=78
         3 001535   000116 116007                    CMPQ    78,DL
         3 001536   001544 603000 3                  TRC     s:14963
         3 001537   777661 620006                    EAX0    -79,QL
         3 001540   777777 660003                    ERX0    -1,DU
         3 001541   040046 100400                    MLR     fill='040'O
         3 001542   000116 000021 2                  ADSC9   B$RUBIRTHKEY+78          cn=0,n=17
         3 001543   000010 400010 xsym               ADSC9   LL_DOBUF+8,Q             cn=2,n=*X0

      393    14960    5                          'A  ***Value out of range in ',
      394    14961    5                          'START=', TPTR$ -> OUT$SYM.TEXT,
      395    14962    5                          ':  option ignored');
      396    14963    5                       LL_FLAGS.VAL_ERR# = '1'B;

  14963  3 001544   000001 236003                    LDQ     1,DU
         3 001545   000000 256000 xsym               ORSQ    LL_FLAGS

      397    14964    5                       END;

  14964  3 001546   003112 710000 3                  TRA     s:15247

PL6.E3A0      #001=LLA$MAIN File=LLA$MAIN.:E05TSI                                WED 07/30/97 03:10 Page:78
      398    14965    5                   ELSE DO;

      399    14966    5                       LL_VAL_START = TEMP;

  14966  3 001547   000000 755000 xsym               STA     LL_VAL_START

      400    14967    5                       LL_FLAGS.START# = '1'B;

  14967  3 001550   200000 236003                    LDQ     65536,DU
         3 001551   000000 256000 xsym               ORSQ    LL_FLAGS

      401    14968    5                       END;

      402    14969    4                   END;

  14969  3 001552   003112 710000 3                  TRA     s:15247

      403    14970    3           CASE (LL#BIAS); /* Bias */

      404    14971    3               IF LL_FLAGS.BIAS_OU

  14971  3 001553   000000 236000 xsym               LDQ     LL_FLAGS
         3 001554   040000 316007                    CANQ    16384,DL
         3 001555   001571 600000 3                  TZE     s:14981

      405    14972    3               THEN
      406    14973    4               DO;

      407    14974    4                   CALL INSERT(LL_DOBUF,0,,

  14974  3 001556   040000 100400                    MLR     fill='040'O
         3 001557   000155 000033 2                  ADSC9   B$RUBIRTHKEY+109         cn=0,n=27
         3 001560   000000 000033 xsym               ADSC9   LL_DOBUF                 cn=0,n=27
         3 001561   040000 100400                    MLR     fill='040'O
         3 001562   000164 000023 2                  ADSC9   B$RUBIRTHKEY+116         cn=0,n=19
         3 001563   000006 600125 xsym               ADSC9   LL_DOBUF+6               cn=3,n=85

PL6.E3A0      #001=LLA$MAIN File=LLA$MAIN.:E05TSI                                WED 07/30/97 03:10 Page:79
      408    14975    4                      'A Warning: ***OU BIAS is on',
      409    14976    4                      ' RU BIAS ignored***');
      410    14977    4                   CALL LLM$MON_SVC (LL#WRITEDO);

  14977  3 001564   000051 630400 4                  EPPR0   41
         3 001565   000017 631400 xsym               EPPR1   B_VECTNIL+15
         3 001566   000000 701000 xent               TSX1    LLM$MON_SVC
         3 001567   000000 011000                    NOP     0

      411    14978    4                   END;

  14978  3 001570   003112 710000 3                  TRA     s:15247

      412    14979    3               ELSE
      413    14980    4               DO;

      414    14981    4                   TPTR$ = PCB.OUT$ -> OUT$BLK.SUBLK$(X) -> OUT$BLK.SUBLK$(0);

  14981  3 001571   100003 236100                    LDQ     3,,PR1
         3 001572   200016 756100                    STQ     TPTR$,,AUTO

      415    14982    4                   CALL LLH$HEXBIN (TEMP, TPTR$ -> OUT$SYM.COUNT,

  14982  3 001573   000023 036000 4                  ADLQ    19
         3 001574   200056 756100                    STQ     CHAR2+4,,AUTO
         3 001575   200016 236100                    LDQ     TPTR$,,AUTO
         3 001576   000004 036003                    ADLQ    4,DU
         3 001577   200055 756100                    STQ     CHAR2+3,,AUTO
         3 001600   200023 631500                    EPPR1   TEMP,,AUTO
         3 001601   200054 451500                    STP1    CHAR2+2,,AUTO
         3 001602   200054 630500                    EPPR0   CHAR2+2,,AUTO
         3 001603   000021 631400 xsym               EPPR1   B_VECTNIL+17
         3 001604   000000 701000 xent               TSX1    LLH$HEXBIN
         3 001605   000000 011000                    NOP     0

      416    14983    4                      TPTR$ -> OUT$SYM.TEXT);
      417    14984    5                   IF (LL_FLAGS.BAD_HEX#) THEN DO;
PL6.E3A0      #001=LLA$MAIN File=LLA$MAIN.:E05TSI                                WED 07/30/97 03:10 Page:80

  14984  3 001606   000000 236000 xsym               LDQ     LL_FLAGS
         3 001607   000200 316003                    CANQ    128,DU
         3 001610   001636 600000 3                  TZE     s:14991

      418    14985    5                       CALL INSERT (LL_DOBUF,0,,

  14985  3 001611   200016 470500                    LDP0    TPTR$,,AUTO
         3 001612   000004 236100                    LDQ     4,,PR0
         3 001613   000033 772000                    QRL     27
         3 001614   040000 100400                    MLR     fill='040'O
         3 001615   000002 000044 2                  ADSC9   B$RUBIRTHKEY+2           cn=0,n=36
         3 001616   000000 000044 xsym               ADSC9   LL_DOBUF                 cn=0,n=36
         3 001617   040000 100400                    MLR     fill='040'O
         3 001620   000171 000005 2                  ADSC9   B$RUBIRTHKEY+121         cn=0,n=5
         3 001621   000011 000005 xsym               ADSC9   LL_DOBUF+9               cn=0,n=5
         3 001622   000000 620006                    EAX0    0,QL
         3 001623   040000 100540                    MLR     fill='040'O
         3 001624   000004 200010                    ADSC9   4,,PR0                   cn=1,n=*X0
         3 001625   000012 200107 xsym               ADSC9   LL_DOBUF+10              cn=1,n=71
         3 001626   000107 116007                    CMPQ    71,DL
         3 001627   001635 603000 3                  TRC     s:14989
         3 001630   777670 620006                    EAX0    -72,QL
         3 001631   777777 660003                    ERX0    -1,DU
         3 001632   040046 100400                    MLR     fill='040'O
         3 001633   000116 000021 2                  ADSC9   B$RUBIRTHKEY+78          cn=0,n=17
         3 001634   000012 200010 xsym               ADSC9   LL_DOBUF+10,Q            cn=1,n=*X0

      419    14986    5                          'A  ***Invalid hexadecimal string in ',
      420    14987    5                          'BIAS=', TPTR$ -> OUT$SYM.TEXT,
      421    14988    5                          ':  option ignored');
      422    14989    5                       END;

  14989  3 001635   003112 710000 3                  TRA     s:15247

      423    14990    5                   ELSE DO;

PL6.E3A0      #001=LLA$MAIN File=LLA$MAIN.:E05TSI                                WED 07/30/97 03:10 Page:81
      424    14991    6                       IF (TEMP > 1048575) THEN DO;

  14991  3 001636   200023 235100                    LDA     TEMP,,AUTO
         3 001637   000004 115003                    CMPA    4,DU
         3 001640   001670 602000 3                  TNC     s:14999

      425    14992    6                           CALL INSERT (LL_DOBUF,0,,

  14992  3 001641   200016 470500                    LDP0    TPTR$,,AUTO
         3 001642   000004 236100                    LDQ     4,,PR0
         3 001643   000033 772000                    QRL     27
         3 001644   040000 100400                    MLR     fill='040'O
         3 001645   000021 000034 2                  ADSC9   B$RUBIRTHKEY+17          cn=0,n=28
         3 001646   000000 000034 xsym               ADSC9   LL_DOBUF                 cn=0,n=28
         3 001647   040000 100400                    MLR     fill='040'O
         3 001650   000171 000005 2                  ADSC9   B$RUBIRTHKEY+121         cn=0,n=5
         3 001651   000007 000005 xsym               ADSC9   LL_DOBUF+7               cn=0,n=5
         3 001652   000000 620006                    EAX0    0,QL
         3 001653   040000 100540                    MLR     fill='040'O
         3 001654   000004 200010                    ADSC9   4,,PR0                   cn=1,n=*X0
         3 001655   000010 200117 xsym               ADSC9   LL_DOBUF+8               cn=1,n=79
         3 001656   000117 116007                    CMPQ    79,DL
         3 001657   001665 603000 3                  TRC     s:14996
         3 001660   777660 620006                    EAX0    -80,QL
         3 001661   777777 660003                    ERX0    -1,DU
         3 001662   040046 100400                    MLR     fill='040'O
         3 001663   000116 000021 2                  ADSC9   B$RUBIRTHKEY+78          cn=0,n=17
         3 001664   000010 200010 xsym               ADSC9   LL_DOBUF+8,Q             cn=1,n=*X0

      426    14993    6                              'A  ***Value out of range in ',
      427    14994    6                              'BIAS=', TPTR$ -> OUT$SYM.TEXT,
      428    14995    6                              ':  option ignored');
      429    14996    6                           LL_FLAGS.VAL_ERR# = '1'B;

  14996  3 001665   000001 236003                    LDQ     1,DU
         3 001666   000000 256000 xsym               ORSQ    LL_FLAGS

PL6.E3A0      #001=LLA$MAIN File=LLA$MAIN.:E05TSI                                WED 07/30/97 03:10 Page:82
      430    14997    6                           END;

  14997  3 001667   003112 710000 3                  TRA     s:15247

      431    14998    6                       ELSE DO;

      432    14999    6                           LL_VAL_BIAS = TEMP;

  14999  3 001670   000000 755000 xsym               STA     LL_VAL_BIAS

      433    15000    6                           LL_FLAGS.BIAS# = '1'B;

  15000  3 001671   100000 236003                    LDQ     32768,DU
         3 001672   000000 256000 xsym               ORSQ    LL_FLAGS

      434    15001    6                           END;

      435    15002    5                       END;

      436    15003    4                   END; /* OU BIAS is ON */

  15003  3 001673   003112 710000 3                  TRA     s:15247

      437    15004    3           CASE (LL#NODEBUG);

      438    15005    3               LL_FLAGS.NODEBUG# = '1'B;

  15005  3 001674   040000 236003                    LDQ     16384,DU
         3 001675   000000 256000 xsym               ORSQ    LL_FLAGS
         3 001676   003112 710000 3                  TRA     s:15247

      439    15006    3           CASE (LL#MAP);

      440    15007    4               DO TEMP = 0 TO PCB.OUT$ -> OUT$BLK.SUBLK$(X) ->

  15007  3 001677   200023 450100                    STZ     TEMP,,AUTO
         3 001700   001734 710000 3                  TRA     s:15020+3
PL6.E3A0      #001=LLA$MAIN File=LLA$MAIN.:E05TSI                                WED 07/30/97 03:10 Page:83

      441    15008    4                  OUT$BLK.NSUBLKS - 1;
      442    15009    5                   DO CASE (PCB.OUT$ -> OUT$BLK.SUBLK$(X) ->

  15009  3 001701   000003 470400 1                  LDP0    PCB+3
         3 001702   200036 720100                    LXL0    X,,AUTO
         3 001703   000003 471510                    LDP1    3,X0,PR0
         3 001704   200023 721100                    LXL1    TEMP,,AUTO
         3 001705   100003 473511                    LDP3    3,X1,PR1
         3 001706   300000 722100                    LXL2    0,,PR3
         3 001707   000004 102003                    CMPX2   4,DU
         3 001710   001712 602012 3                  TNC     s:15009+9,X2
         3 001711   001731 710000 3                  TRA     s:15020
         3 001712   001716 710000 3                  TRA     s:15012
         3 001713   001721 710000 3                  TRA     s:15014
         3 001714   001724 710000 3                  TRA     s:15016
         3 001715   001727 710000 3                  TRA     s:15018

      443    15010    5                      OUT$BLK.SUBLK$(TEMP) -> OUT$BLK.CODE);
      444    15011    5                   CASE (LL#NAME);

      445    15012    5                       LL_FLAGS.NAME# = '1'B;

  15012  3 001716   000040 236003                    LDQ     32,DU
         3 001717   000000 256000 xsym               ORSQ    LL_FLAGS
         3 001720   001731 710000 3                  TRA     s:15020

      446    15013    5                   CASE (LL#VALUE);

      447    15014    5                       LL_FLAGS.VALUE# = '1'B;

  15014  3 001721   000020 236003                    LDQ     16,DU
         3 001722   000000 256000 xsym               ORSQ    LL_FLAGS
         3 001723   001731 710000 3                  TRA     s:15020

      448    15015    5                   CASE (LL#UDEF);

PL6.E3A0      #001=LLA$MAIN File=LLA$MAIN.:E05TSI                                WED 07/30/97 03:10 Page:84
      449    15016    5                       LL_FLAGS.UDEF# = '1'B;

  15016  3 001724   000010 236003                    LDQ     8,DU
         3 001725   000000 256000 xsym               ORSQ    LL_FLAGS
         3 001726   001731 710000 3                  TRA     s:15020

      450    15017    5                   CASE (LL#EMPTY);

      451    15018    5                       LL_FLAGS.EMPTY# = '1'B;

  15018  3 001727   000004 236003                    LDQ     4,DU
         3 001730   000000 256000 xsym               ORSQ    LL_FLAGS

      452    15019    5                       END;

      453    15020    4                   END;

  15020  3 001731   200023 235100                    LDA     TEMP,,AUTO
         3 001732   000001 035007                    ADLA    1,DL
         3 001733   200023 755100                    STA     TEMP,,AUTO
         3 001734   000003 471510                    LDP1    3,X0,PR0
         3 001735   100001 236100                    LDQ     1,,PR1
         3 001736   000022 772000                    QRL     18
         3 001737   200023 116100                    CMPQ    TEMP,,AUTO
         3 001740   001742 600000 3                  TZE     s:15021
         3 001741   001701 603000 3                  TRC     s:15009

      454    15021    3               LL_FLAGS.MAP# = '1'B;

  15021  3 001742   004000 236003                    LDQ     2048,DU
         3 001743   000000 256000 xsym               ORSQ    LL_FLAGS
         3 001744   003112 710000 3                  TRA     s:15247

      455    15022    3           CASE(LL#TRANSVECT);

      456    15023    3               TPTR$ = PCB.OUT$->OUT$BLK.SUBLK$(X);

PL6.E3A0      #001=LLA$MAIN File=LLA$MAIN.:E05TSI                                WED 07/30/97 03:10 Page:85
  15023  3 001745   000003 236110                    LDQ     3,X0,PR0
         3 001746   200016 756100                    STQ     TPTR$,,AUTO

      457    15024    4               DO TEMP = 0 TO TPTR$->OUT$BLK.NSUBLKS - 1;

  15024  3 001747   200023 450100                    STZ     TEMP,,AUTO
         3 001750   002300 710000 3                  TRA     s:15092+3

      458    15025    5                   DO CASE(TPTR$->OUT$BLK.SUBLK$(TEMP)->OUT$BLK.CODE);

  15025  3 001751   200016 470500                    LDP0    TPTR$,,AUTO
         3 001752   200023 720100                    LXL0    TEMP,,AUTO
         3 001753   000003 471510                    LDP1    3,X0,PR0
         3 001754   100000 721100                    LXL1    0,,PR1
         3 001755   000005 101003                    CMPX1   5,DU
         3 001756   001760 602011 3                  TNC     s:15025+7,X1
         3 001757   002275 710000 3                  TRA     s:15092
         3 001760   002005 710000 3                  TRA     s:15033
         3 001761   001765 710000 3                  TRA     s:15027
         3 001762   001770 710000 3                  TRA     s:15029
         3 001763   001773 710000 3                  TRA     s:15031
         3 001764   002051 710000 3                  TRA     s:15047

      459    15026    5                   CASE(LL#REMOVE_ENTDEF);

      460    15027    5                       LL_FLAGS.REMOVE_E# = '1'B;

  15027  3 001765   000040 236007                    LDQ     32,DL
         3 001766   000000 256000 xsym               ORSQ    LL_FLAGS
         3 001767   002275 710000 3                  TRA     s:15092

      461    15028    5                   CASE(LL#REMOVE_SYMDEF);

      462    15029    5                       LL_FLAGS.REMOVE_S# = '1'B;

  15029  3 001770   000020 236007                    LDQ     16,DL
         3 001771   000000 256000 xsym               ORSQ    LL_FLAGS
PL6.E3A0      #001=LLA$MAIN File=LLA$MAIN.:E05TSI                                WED 07/30/97 03:10 Page:86
         3 001772   002275 710000 3                  TRA     s:15092

      463    15030    5                   CASE(LL#DATA);

      464    15031    5                      CALL CHARBIN(LL_VECTOR_DATA,TPTR$->OUT$BLK.SUBLK$(TEMP)->OUT$BLK
             15031                                .SUBLK$(0)->OUT$SYM.TEXT);

  15031  3 001773   100003 473500                    LDP3    3,,PR1
         3 001774   300004 236100                    LDQ     4,,PR3
         3 001775   000033 772000                    QRL     27
         3 001776   000000 622006                    EAX2    0,QL
         3 001777   000100 305540                    DTB
         3 002000   300004 230012                    NDSC9   4,,PR3                   cn=1,s=nosgn,sf=0,n=*X2
         3 002001   200054 000010                    NDSC9   CHAR2+2,,AUTO            cn=0,s=lsgnf,sf=0,n=8
         3 002002   200055 235100                    LDA     CHAR2+3,,AUTO
         3 002003   000000 755000 xsym               STA     LL_VECTOR_DATA
         3 002004   002275 710000 3                  TRA     s:15092

      465    15032    5                   CASE(LL#RF);

      466    15033    5                       TEXTFID = TPTR$->OUT$BLK.SUBLK$(TEMP)->OUT$BLK.SUBLK$(0)->
             15033                                OUT$SYM.TEXT;

  15033  3 002005   100003 473500                    LDP3    3,,PR1
         3 002006   300004 236100                    LDQ     4,,PR3
         3 002007   000033 772000                    QRL     27
         3 002010   000000 622006                    EAX2    0,QL
         3 002011   040000 100540                    MLR     fill='040'O
         3 002012   300004 200012                    ADSC9   4,,PR3                   cn=1,n=*X2
         3 002013   000146 000100 1                  ADSC9   TEXTFID                  cn=0,n=64

      467    15034    5                       FPT_FID.NAME_ = VECTOR(LL_VECTOR_RF);

  15034  3 002014   000052 237000 4                  LDAQ    42
         3 002015   000074 757000 1                  STAQ    FPT_FID+4

      468    15035    5                       CALL M$FID(FPT_FID) ALTRET(BAD_RF);
PL6.E3A0      #001=LLA$MAIN File=LLA$MAIN.:E05TSI                                WED 07/30/97 03:10 Page:87

  15035  3 002016   000070 630400 1                  EPPR0   FPT_FID
         3 002017   420001 713400                    CLIMB   alt,+8193
         3 002020   404400 401760                    pmme    nvectors=10
         3 002021   002027 702000 3                  TSX2    BAD_RF

      469    15036    5                       LL_VECTOR_RF = TEXTFID;

  15036  3 002022   040000 100400                    MLR     fill='040'O
         3 002023   000146 000037 1                  ADSC9   TEXTFID                  cn=0,n=31
         3 002024   000000 000037 xsym               ADSC9   LL_VECTOR_RF             cn=0,n=31

      470    15037    6                       IF NOT FID_RESULTS.NAME THEN DO;

  15037  3 002025   000132 234000 1                  SZN     FID_RESULTS
         3 002026   002046 604000 3                  TMI     s:15045

      471    15038    6   BAD_RF:
      472    15039    6                           LL_DOBUF =
             15039                                    'A   *** Vector suboption RF must specify file name';

  15039  3 002027   040000 100400       BAD_RF       MLR     fill='040'O
         3 002030   000173 000062 2                  ADSC9   B$RUBIRTHKEY+123         cn=0,n=50
         3 002031   000000 000160 xsym               ADSC9   LL_DOBUF                 cn=0,n=112

      473    15040    6                           CALL LLM$MON_SVC(LL#WRITEDO);

  15040  3 002032   000051 630400 4                  EPPR0   41
         3 002033   000017 631400 xsym               EPPR1   B_VECTNIL+15
         3 002034   000000 701000 xent               TSX1    LLM$MON_SVC
         3 002035   000000 011000                    NOP     0

      474    15041    6                           LL_DOBUF = 'A       option ignored';

  15041  3 002036   040000 100400                    MLR     fill='040'O
         3 002037   000210 000026 2                  ADSC9   B$RUBIRTHKEY+136         cn=0,n=22
         3 002040   000000 000160 xsym               ADSC9   LL_DOBUF                 cn=0,n=112
PL6.E3A0      #001=LLA$MAIN File=LLA$MAIN.:E05TSI                                WED 07/30/97 03:10 Page:88

      475    15042    6                           CALL LLM$MON_SVC(LL#WRITEDO);

  15042  3 002041   000051 630400 4                  EPPR0   41
         3 002042   000017 631400 xsym               EPPR1   B_VECTNIL+15
         3 002043   000000 701000 xent               TSX1    LLM$MON_SVC
         3 002044   000000 011000                    NOP     0

      476    15043    6                           END;

  15043  3 002045   002275 710000 3                  TRA     s:15092

      477    15044    5                       ELSE
      478    15045    5                           LL_FLAGS.RF# = '1'B;

  15045  3 002046   000010 236007                    LDQ     8,DL
         3 002047   000000 256000 xsym               ORSQ    LL_FLAGS
         3 002050   002275 710000 3                  TRA     s:15092

      479    15046    5                   CASE(LL#ENTRY);

      480    15047    5                       LL_LIST_SIZE = TPTR$->OUT$BLK.SUBLK$(TEMP)->OUT$BLK.NSUBLKS;

  15047  3 002051   100001 236100                    LDQ     1,,PR1
         3 002052   000022 772000                    QRL     18
         3 002053   000000 756000 xsym               STQ     LL_LIST_SIZE

      481    15048    6                       DO LEN = 0 TO LL_LIST_SIZE - 1;

  15048  3 002054   200017 450100                    STZ     LEN,,AUTO
         3 002055   002272 710000 3                  TRA     s:15090+3

      482    15049    6                           TPTR1$ = TPTR$->OUT$BLK.SUBLK$(TEMP)->OUT$BLK.SUBLK$(LEN);

  15049  3 002056   200016 470500                    LDP0    TPTR$,,AUTO
         3 002057   200023 720100                    LXL0    TEMP,,AUTO
         3 002060   000003 471510                    LDP1    3,X0,PR0
PL6.E3A0      #001=LLA$MAIN File=LLA$MAIN.:E05TSI                                WED 07/30/97 03:10 Page:89
         3 002061   200017 721100                    LXL1    LEN,,AUTO
         3 002062   100003 236111                    LDQ     3,X1,PR1
         3 002063   200015 756100                    STQ     TPTR1$,,AUTO

      483    15050    6                           IF TPTR1$->OUT$BLK.CODE = LL#TV_EMPTY THEN

  15050  3 002064   200015 473500                    LDP3    TPTR1$,,AUTO
         3 002065   300000 722100                    LXL2    0,,PR3
         3 002066   002127 601000 3                  TNZ     s:15061

      484    15051    7                           DO;

      485    15052    7                               CALL CHARBIN(SIZEW2,TPTR1$->OUT$BLK.SUBLK$(0)->OUT$SYM.
             15052                                        TEXT);

  15052  3 002067   300003 474500                    LDP4    3,,PR3
         3 002070   400004 236100                    LDQ     4,,PR4
         3 002071   000033 772000                    QRL     27
         3 002072   000000 623006                    EAX3    0,QL
         3 002073   000100 305540                    DTB
         3 002074   400004 230013                    NDSC9   4,,PR4                   cn=1,s=nosgn,sf=0,n=*X3
         3 002075   200054 000010                    NDSC9   CHAR2+2,,AUTO            cn=0,s=lsgnf,sf=0,n=8
         3 002076   200055 235100                    LDA     CHAR2+3,,AUTO
         3 002077   200045 755100                    STA     SIZEW2,,AUTO

      486    15053    7                               CALL LLM$MON_SVC(LL#GETMEM,1,AVAIL$);

  15053  3 002100   200043 631500                    EPPR1   AVAIL$,,AUTO
         3 002101   200056 451500                    STP1    CHAR2+4,,AUTO
         3 002102   000054 237000 4                  LDAQ    44
         3 002103   200054 757100                    STAQ    CHAR2+2,,AUTO
         3 002104   200054 630500                    EPPR0   CHAR2+2,,AUTO
         3 002105   000021 631400 xsym               EPPR1   B_VECTNIL+17
         3 002106   000000 701000 xent               TSX1    LLM$MON_SVC
         3 002107   000000 011000                    NOP     0

      487    15054    7                               IF LL_LIST$ = ADDR(NIL)
PL6.E3A0      #001=LLA$MAIN File=LLA$MAIN.:E05TSI                                WED 07/30/97 03:10 Page:90

  15054  3 002110   000000 236000 xsym               LDQ     LL_LIST$
         3 002111   000001 116000 xsym               CMPQ    B_VECTNIL+1
         3 002112   002115 601000 3                  TNZ     s:15056

      488    15055    7                               THEN LL_LIST$ = AVAIL$;

  15055  3 002113   200043 236100                    LDQ     AVAIL$,,AUTO
         3 002114   000000 756000 xsym               STQ     LL_LIST$

      489    15056    7                               AVAIL$->VECTOR_LIST.SIZEW1 = 0;

  15056  3 002115   000000 220003                    LDX0    0,DU
         3 002116   200043 470500                    LDP0    AVAIL$,,AUTO
         3 002117   000000 740100                    STX0    0,,PR0

      490    15057    7                               AVAIL$->VECTOR_LIST.SIZEW2 = SIZEW2;

  15057  3 002120   200045 721100                    LXL1    SIZEW2,,AUTO
         3 002121   200043 470500                    LDP0    AVAIL$,,AUTO
         3 002122   000000 441100                    SXL1    0,,PR0

      491    15058    7                               AVAIL$ = PINCRW(AVAIL$,1);

  15058  3 002123   200043 236100                    LDQ     AVAIL$,,AUTO
         3 002124   000001 036003                    ADLQ    1,DU
         3 002125   200043 756100                    STQ     AVAIL$,,AUTO

      492    15059    7                               END;

  15059  3 002126   002267 710000 3                  TRA     s:15090

      493    15060    7                           ELSE DO; /* ENTRY NAMES */

      494    15061    7                               IF TPTR1$->OUT$BLK.CODE = LL#TV_ENTRY_NAME THEN

  15061  3 002127   000002 102003                    CMPX2   2,DU
PL6.E3A0      #001=LLA$MAIN File=LLA$MAIN.:E05TSI                                WED 07/30/97 03:10 Page:91
         3 002130   002143 601000 3                  TNZ     s:15068

      495    15062    8                               DO;

      496    15063    8                                   NAME1$ = TPTR1$->OUT$BLK.SUBLK$(0);

  15063  3 002131   300003 236100                    LDQ     3,,PR3
         3 002132   200041 756100                    STQ     NAME1$,,AUTO

      497    15064    8                                   SIZEW1 = (NAME1$->TEXT.COUNT + 5) / 4;

  15064  3 002133   200041 474500                    LDP4    NAME1$,,AUTO
         3 002134   400000 236100                    LDQ     0,,PR4
         3 002135   000033 772000                    QRL     27
         3 002136   000005 036007                    ADLQ    5,DL
         3 002137   000002 772000                    QRL     2
         3 002140   200044 756100                    STQ     SIZEW1,,AUTO

      498    15065    8                                   SIZEW2 = 0;

  15065  3 002141   200045 450100                    STZ     SIZEW2,,AUTO

      499    15066    8                                   END;

  15066  3 002142   002165 710000 3                  TRA     s:15073

      500    15067    8                               ELSE DO; /* RANGE NAME */

      501    15068    8                                  NAME1$= TPTR1$->OUT$BLK.SUBLK$(0)->OUT$BLK.SUBLK$(0)
             15068                                            ;

  15068  3 002143   300003 474500                    LDP4    3,,PR3
         3 002144   400003 236100                    LDQ     3,,PR4
         3 002145   200041 756100                    STQ     NAME1$,,AUTO

      502    15069    8                                   SIZEW1 = (NAME1$->TEXT.COUNT + 5) / 4;

PL6.E3A0      #001=LLA$MAIN File=LLA$MAIN.:E05TSI                                WED 07/30/97 03:10 Page:92
  15069  3 002146   200041 475500                    LDP5    NAME1$,,AUTO
         3 002147   500000 236100                    LDQ     0,,PR5
         3 002150   000033 772000                    QRL     27
         3 002151   000005 036007                    ADLQ    5,DL
         3 002152   000002 772000                    QRL     2
         3 002153   200044 756100                    STQ     SIZEW1,,AUTO

      503    15070    8                                  NAME2$= TPTR1$->OUT$BLK.SUBLK$(1)->OUT$BLK.SUBLK$(0)
             15070                                            ;

  15070  3 002154   300004 476500                    LDP6    4,,PR3
         3 002155   600003 236100                    LDQ     3,,PR6
         3 002156   200042 756100                    STQ     NAME2$,,AUTO

      504    15071    8                                   SIZEW2 = (NAME2$->TEXT.COUNT + 5)/4;

  15071  3 002157   200042 477500                    LDP7    NAME2$,,AUTO
         3 002160   700000 236100                    LDQ     0,,PR7
         3 002161   000033 772000                    QRL     27
         3 002162   000005 036007                    ADLQ    5,DL
         3 002163   000002 772000                    QRL     2
         3 002164   200045 756100                    STQ     SIZEW2,,AUTO

      505    15072    8                                   END; /* RANGE NAME */

      506    15073    7                               SIZE = SIZEW1 + SIZEW2 + 1;

  15073  3 002165   200044 236100                    LDQ     SIZEW1,,AUTO
         3 002166   200045 036100                    ADLQ    SIZEW2,,AUTO
         3 002167   000001 036007                    ADLQ    1,DL
         3 002170   200046 756100                    STQ     SIZE,,AUTO

      507    15074    7                               CALL LLM$MON_SVC(LL#GETMEM,SIZE,AVAIL$);

  15074  3 002171   200043 631500                    EPPR1   AVAIL$,,AUTO
         3 002172   200056 451500                    STP1    CHAR2+4,,AUTO
         3 002173   200046 634500                    EPPR4   SIZE,,AUTO
PL6.E3A0      #001=LLA$MAIN File=LLA$MAIN.:E05TSI                                WED 07/30/97 03:10 Page:93
         3 002174   200055 454500                    STP4    CHAR2+3,,AUTO
         3 002175   000014 236000 4                  LDQ     12
         3 002176   200054 756100                    STQ     CHAR2+2,,AUTO
         3 002177   200054 630500                    EPPR0   CHAR2+2,,AUTO
         3 002200   000021 631400 xsym               EPPR1   B_VECTNIL+17
         3 002201   000000 701000 xent               TSX1    LLM$MON_SVC
         3 002202   000000 011000                    NOP     0

      508    15075    7                               IF LL_LIST$ = ADDR(NIL)

  15075  3 002203   000000 236000 xsym               LDQ     LL_LIST$
         3 002204   000001 116000 xsym               CMPQ    B_VECTNIL+1
         3 002205   002210 601000 3                  TNZ     s:15077

      509    15076    7                               THEN LL_LIST$ = AVAIL$;

  15076  3 002206   200043 236100                    LDQ     AVAIL$,,AUTO
         3 002207   000000 756000 xsym               STQ     LL_LIST$

      510    15077    7                               AVAIL$->VECTOR_LIST.SIZEW1 = SIZEW1;

  15077  3 002210   200044 720100                    LXL0    SIZEW1,,AUTO
         3 002211   200043 470500                    LDP0    AVAIL$,,AUTO
         3 002212   000000 740100                    STX0    0,,PR0

      511    15078    7                               AVAIL$->VECTOR_LIST.SIZEW2 = SIZEW2;

  15078  3 002213   200045 721100                    LXL1    SIZEW2,,AUTO
         3 002214   200043 470500                    LDP0    AVAIL$,,AUTO
         3 002215   000000 441100                    SXL1    0,,PR0

      512    15079    7                               AVAIL$ = PINCRW(AVAIL$,1);

  15079  3 002216   200043 236100                    LDQ     AVAIL$,,AUTO
         3 002217   000001 036003                    ADLQ    1,DU
         3 002220   200043 756100                    STQ     AVAIL$,,AUTO

PL6.E3A0      #001=LLA$MAIN File=LLA$MAIN.:E05TSI                                WED 07/30/97 03:10 Page:94
      513    15080    7                               AVAIL$->B$DNAME.COUNT = NAME1$->TEXT.COUNT;

  15080  3 002221   200041 470500                    LDP0    NAME1$,,AUTO
         3 002222   000000 236100                    LDQ     0,,PR0
         3 002223   000033 772000                    QRL     27
         3 002224   000000 622006                    EAX2    0,QL
         3 002225   200043 471500                    LDP1    AVAIL$,,AUTO
         3 002226   100000 742100                    STX2    0,,PR1

      514    15081    7                               AVAIL$->B$DNAME.TEXT = NAME1$->TEXT.NAME;

  15081  3 002227   200043 471500                    LDP1    AVAIL$,,AUTO
         3 002230   100000 222100                    LDX2    0,,PR1
         3 002231   000000 236100                    LDQ     0,,PR0
         3 002232   000033 772000                    QRL     27
         3 002233   000000 623006                    EAX3    0,QL
         3 002234   040140 100540                    MLR     fill='040'O
         3 002235   000000 200013                    ADSC9   0,,PR0                   cn=1,n=*X3
         3 002236   100000 400012                    ADSC9   0,,PR1                   cn=2,n=*X2

      515    15082    7                               AVAIL$ = PINCRW(AVAIL$,SIZEW1);

  15082  3 002237   200044 236100                    LDQ     SIZEW1,,AUTO
         3 002240   000022 736000                    QLS     18
         3 002241   200043 036100                    ADLQ    AVAIL$,,AUTO
         3 002242   200043 756100                    STQ     AVAIL$,,AUTO

      516    15083    7                               IF SIZEW2 > 0 THEN

  15083  3 002243   200045 235100                    LDA     SIZEW2,,AUTO
         3 002244   002267 600000 3                  TZE     s:15090

      517    15084    8                               DO;

      518    15085    8                                   AVAIL$->B$DNAME.COUNT = NAME2$->TEXT.COUNT;

  15085  3 002245   200042 471500                    LDP1    NAME2$,,AUTO
PL6.E3A0      #001=LLA$MAIN File=LLA$MAIN.:E05TSI                                WED 07/30/97 03:10 Page:95
         3 002246   100000 236100                    LDQ     0,,PR1
         3 002247   000033 772000                    QRL     27
         3 002250   000000 622006                    EAX2    0,QL
         3 002251   200043 473500                    LDP3    AVAIL$,,AUTO
         3 002252   300000 742100                    STX2    0,,PR3

      519    15086    8                                   AVAIL$->B$DNAME.TEXT = NAME2$->TEXT.NAME;

  15086  3 002253   200043 473500                    LDP3    AVAIL$,,AUTO
         3 002254   300000 222100                    LDX2    0,,PR3
         3 002255   100000 236100                    LDQ     0,,PR1
         3 002256   000033 772000                    QRL     27
         3 002257   000000 623006                    EAX3    0,QL
         3 002260   040140 100540                    MLR     fill='040'O
         3 002261   100000 200013                    ADSC9   0,,PR1                   cn=1,n=*X3
         3 002262   300000 400012                    ADSC9   0,,PR3                   cn=2,n=*X2

      520    15087    8                                   AVAIL$ = PINCRW(AVAIL$,SIZEW2);

  15087  3 002263   200045 236100                    LDQ     SIZEW2,,AUTO
         3 002264   000022 736000                    QLS     18
         3 002265   200043 036100                    ADLQ    AVAIL$,,AUTO
         3 002266   200043 756100                    STQ     AVAIL$,,AUTO

      521    15088    8                                   END;

      522    15089    7                               END;

      523    15090    6                           END; /* DO LEN = */

  15090  3 002267   200017 235100                    LDA     LEN,,AUTO
         3 002270   000001 035007                    ADLA    1,DL
         3 002271   200017 755100                    STA     LEN,,AUTO
         3 002272   200017 236100                    LDQ     LEN,,AUTO
         3 002273   000000 116000 xsym               CMPQ    LL_LIST_SIZE
         3 002274   002056 602000 3                  TNC     s:15049

PL6.E3A0      #001=LLA$MAIN File=LLA$MAIN.:E05TSI                                WED 07/30/97 03:10 Page:96
      524    15091    5                       END;

      525    15092    4                   END;

  15092  3 002275   200023 235100                    LDA     TEMP,,AUTO
         3 002276   000001 035007                    ADLA    1,DL
         3 002277   200023 755100                    STA     TEMP,,AUTO
         3 002300   200016 470500                    LDP0    TPTR$,,AUTO
         3 002301   000001 236100                    LDQ     1,,PR0
         3 002302   000022 772000                    QRL     18
         3 002303   200023 116100                    CMPQ    TEMP,,AUTO
         3 002304   002306 600000 3                  TZE     s:15093
         3 002305   001751 603000 3                  TRC     s:15025

      526    15093    3               LL_FLAGS.VECTOR# = '1'B;

  15093  3 002306   000200 236007                    LDQ     128,DL
         3 002307   000000 256000 xsym               ORSQ    LL_FLAGS

      527    15094    3               CALL LLT$INIT_TV;

  15094  3 002310   000002 631400 xsym               EPPR1   B_VECTNIL+2
         3 002311   000000 701000 xent               TSX1    LLT$INIT_TV
         3 002312   000000 011000                    NOP     0

      528    15095    3               LL_TOPOMEM$ = AVAIL$;

  15095  3 002313   200043 236100                    LDQ     AVAIL$,,AUTO
         3 002314   000000 756000 xsym               STQ     LL_TOPOMEM$
         3 002315   003112 710000 3                  TRA     s:15247

      529    15096    3           CASE (LL#NOLIST);

      530    15097    3               LL_FLAGS.NOLIST# = '1'B;

  15097  3 002316   020000 236007                    LDQ     8192,DL
         3 002317   000000 256000 xsym               ORSQ    LL_FLAGS
PL6.E3A0      #001=LLA$MAIN File=LLA$MAIN.:E05TSI                                WED 07/30/97 03:10 Page:97
         3 002320   003112 710000 3                  TRA     s:15247

      531    15098    3           CASE (LL#LAUTO);

      532    15099    3               LL_HEAD.LAUTO = '1'B;

  15099  3 002321   000004 236007                    LDQ     4,DL
         3 002322   000011 256000 xsym               ORSQ    LL_HEAD+9
         3 002323   003112 710000 3                  TRA     s:15247

      533    15100    3           CASE (LL#FLAVOR);

      534    15101    3              LL_VAL_FLAVOR = PCB.OUT$->OUT$BLK.SUBLK$(X)->OUT$BLK.SUBLK$(0)->OUT$BLK.
             15101                        CODE;

  15101  3 002324   100003 473500                    LDP3    3,,PR1
         3 002325   300000 236100                    LDQ     0,,PR3
         3 002326   777777 376007                    ANQ     -1,DL
         3 002327   000000 756000 xsym               STQ     LL_VAL_FLAVOR

      535    15102    4               DO CASE(LL_VAL_FLAVOR);

  15102  3 002330   000006 116007                    CMPQ    6,DL
         3 002331   002333 602006 3                  TNC     s:15102+3,QL
         3 002332   003112 710000 3                  TRA     s:15247
         3 002333   002346 710000 3                  TRA     s:15111
         3 002334   002346 710000 3                  TRA     s:15111
         3 002335   002341 710000 3                  TRA     s:15106
         3 002336   002346 710000 3                  TRA     s:15111
         3 002337   002346 710000 3                  TRA     s:15111
         3 002340   002344 710000 3                  TRA     s:15110

      536    15103    4               CASE(LL#USER);

      537    15104    4               CASE(LL#CP);

      538    15105    4               CASE(LL#DB);
PL6.E3A0      #001=LLA$MAIN File=LLA$MAIN.:E05TSI                                WED 07/30/97 03:10 Page:98

      539    15106    4                   LL_HEAD.DEBUGGER = '1'B;

  15106  3 002341   000020 236003                    LDQ     16,DU
         3 002342   000022 256000 xsym               ORSQ    LL_HEAD+18
         3 002343   003112 710000 3                  TRA     s:15247

      540    15107    4               CASE(LL#SYSTEM);

      541    15108    4               CASE(LL#HANDLER);

      542    15109    4               CASE(LL#SLIB);

      543    15110    4                   LL_FLAGS.SLIB# = '1'B;

  15110  3 002344   010000 236007                    LDQ     4096,DL
         3 002345   000000 256000 xsym               ORSQ    LL_FLAGS

      544    15111    4                   END;

  15111  3 002346   003112 710000 3                  TRA     s:15247

      545    15112    3           CASE (LL#TCB);

      546    15113    3               TPTR$ = PCB.OUT$ -> OUT$BLK.SUBLK$(X) -> OUT$BLK.SUBLK$(0);

  15113  3 002347   100003 236100                    LDQ     3,,PR1
         3 002350   200016 756100                    STQ     TPTR$,,AUTO

      547    15114    3               CALL CHARBIN ( TEMP, TPTR$ -> OUT$SYM.TEXT );

  15114  3 002351   200016 471500                    LDP1    TPTR$,,AUTO
         3 002352   100004 236100                    LDQ     4,,PR1
         3 002353   000033 772000                    QRL     27
         3 002354   000000 621006                    EAX1    0,QL
         3 002355   000100 305540                    DTB
         3 002356   100004 230011                    NDSC9   4,,PR1                   cn=1,s=nosgn,sf=0,n=*X1
PL6.E3A0      #001=LLA$MAIN File=LLA$MAIN.:E05TSI                                WED 07/30/97 03:10 Page:99
         3 002357   200054 000010                    NDSC9   CHAR2+2,,AUTO            cn=0,s=lsgnf,sf=0,n=8
         3 002360   200055 235100                    LDA     CHAR2+3,,AUTO
         3 002361   200023 755100                    STA     TEMP,,AUTO

      548    15115    3               LL_HEAD.TCBSIZE = TEMP;

  15115  3 002362   000000 621005                    EAX1    0,AL
         3 002363   000005 441000 xsym               SXL1    LL_HEAD+5

      549    15116    3               IF TEMP > 0 THEN LL_FLAGS.TCB# = '1'B;

  15116  3 002364   200023 235100                    LDA     TEMP,,AUTO
         3 002365   003112 600000 3                  TZE     s:15247

  15116  3 002366   000400 236007                    LDQ     256,DL
         3 002367   000000 256000 xsym               ORSQ    LL_FLAGS
         3 002370   003112 710000 3                  TRA     s:15247

      550    15117    3           CASE (LL#DCBSLOTS);

      551    15118    3               TPTR$ = PCB.OUT$ -> OUT$BLK.SUBLK$(X) -> OUT$BLK.SUBLK$(0);

  15118  3 002371   100003 236100                    LDQ     3,,PR1
         3 002372   200016 756100                    STQ     TPTR$,,AUTO

      552    15119    3               CALL CHARBIN ( TEMP, TPTR$ -> OUT$SYM.TEXT );

  15119  3 002373   200016 471500                    LDP1    TPTR$,,AUTO
         3 002374   100004 236100                    LDQ     4,,PR1
         3 002375   000033 772000                    QRL     27
         3 002376   000000 621006                    EAX1    0,QL
         3 002377   000100 305540                    DTB
         3 002400   100004 230011                    NDSC9   4,,PR1                   cn=1,s=nosgn,sf=0,n=*X1
         3 002401   200054 000010                    NDSC9   CHAR2+2,,AUTO            cn=0,s=lsgnf,sf=0,n=8
         3 002402   200055 235100                    LDA     CHAR2+3,,AUTO
         3 002403   200023 755100                    STA     TEMP,,AUTO

PL6.E3A0      #001=LLA$MAIN File=LLA$MAIN.:E05TSI                                WED 07/30/97 03:10 Page:100
      553    15120    3               LL_HEAD.DCBRES = TEMP;

  15120  3 002404   000000 621005                    EAX1    0,AL
         3 002405   000004 441000 xsym               SXL1    LL_HEAD+4

      554    15121    3               IF TEMP > 0 THEN LL_FLAGS.DCBSLOT# = '1'B;

  15121  3 002406   200023 235100                    LDA     TEMP,,AUTO
         3 002407   003112 600000 3                  TZE     s:15247

  15121  3 002410   001000 236007                    LDQ     512,DL
         3 002411   000000 256000 xsym               ORSQ    LL_FLAGS
         3 002412   003112 710000 3                  TRA     s:15247

      555    15122    3           CASE (LL#SHL);

      556    15123    3               TPTR$ = PCB.OUT$ -> OUT$BLK.SUBLK$(X);

  15123  3 002413   000003 236110                    LDQ     3,X0,PR0
         3 002414   200016 756100                    STQ     TPTR$,,AUTO

      557    15124    3               LL_FLAGS.NOSH# = '1'B;

  15124  3 002415   400000 236007                    LDQ     -131072,DL
         3 002416   000000 256000 xsym               ORSQ    LL_FLAGS

      558    15125    3               IF TPTR$->OUT$BLK.SUBLK$(0)->OUT$BLK.CODE ~= LL#YES THEN EXIT;

  15125  3 002417   200016 471500                    LDP1    TPTR$,,AUTO
         3 002420   100003 473500                    LDP3    3,,PR1
         3 002421   300000 721100                    LXL1    0,,PR3
         3 002422   000001 101003                    CMPX1   1,DU
         3 002423   003112 601000 3                  TNZ     s:15247

      559    15126    3               LL_FLAGS.NOSH# = '0'B;

  15126  3 002424   000056 236000 4                  LDQ     46
PL6.E3A0      #001=LLA$MAIN File=LLA$MAIN.:E05TSI                                WED 07/30/97 03:10 Page:101
         3 002425   000000 356000 xsym               ANSQ    LL_FLAGS

      560    15127    3               TPTR$ = TPTR$ -> OUT$BLK.SUBLK$(0) -> OUT$BLK.SUBLK$(0);

  15127  3 002426   300003 236100                    LDQ     3,,PR3
         3 002427   200016 756100                    STQ     TPTR$,,AUTO

      561    15128    3               TEXTFID = TPTR$ -> OUT$SYM.TEXT;

  15128  3 002430   200016 471500                    LDP1    TPTR$,,AUTO
         3 002431   100004 236100                    LDQ     4,,PR1
         3 002432   000033 772000                    QRL     27
         3 002433   000000 621006                    EAX1    0,QL
         3 002434   040000 100540                    MLR     fill='040'O
         3 002435   100004 200011                    ADSC9   4,,PR1                   cn=1,n=*X1
         3 002436   000146 000100 1                  ADSC9   TEXTFID                  cn=0,n=64

      562    15129    3               LL_SLIB_NAME = TPTR$->OUT$SYM.TEXT;

  15129  3 002437   100004 236100                    LDQ     4,,PR1
         3 002440   000033 772000                    QRL     27
         3 002441   000000 621006                    EAX1    0,QL
         3 002442   040000 100540                    MLR     fill='040'O
         3 002443   100004 200011                    ADSC9   4,,PR1                   cn=1,n=*X1
         3 002444   000000 000037 xsym               ADSC9   LL_SLIB_NAME             cn=0,n=31

      563    15130    3               FPT_FID.NAME_ = VECTOR(LL_HEAD.LIBNAME);

  15130  3 002445   000060 237000 4                  LDAQ    48
         3 002446   000074 757000 1                  STAQ    FPT_FID+4

      564    15131    3               CALL M$FID (FPT_FID) ALTRET (SAY_BADLIB);

  15131  3 002447   000070 630400 1                  EPPR0   FPT_FID
         3 002450   420001 713400                    CLIMB   alt,+8193
         3 002451   404400 401760                    pmme    nvectors=10
         3 002452   002455 702000 3                  TSX2    SAY_BADLIB
PL6.E3A0      #001=LLA$MAIN File=LLA$MAIN.:E05TSI                                WED 07/30/97 03:10 Page:102

      565    15132    4               IF NOT FID_RESULTS.NAME THEN DO;

  15132  3 002453   000132 234000 1                  SZN     FID_RESULTS
         3 002454   002474 604000 3                  TMI     s:15138

      566    15133    4   SAY_BADLIB:     LL_DOBUF = 'A  *** SHARELIB option must specify a file name.';

  15133  3 002455   040000 100400       SAY_BADLIB   MLR     fill='040'O
         3 002456   000216 000060 2                  ADSC9   B$RUBIRTHKEY+142         cn=0,n=48
         3 002457   000000 000160 xsym               ADSC9   LL_DOBUF                 cn=0,n=112

      567    15134    4                   CALL LLM$MON_SVC (LL#WRITEDO);

  15134  3 002460   000051 630400 4                  EPPR0   41
         3 002461   000017 631400 xsym               EPPR1   B_VECTNIL+15
         3 002462   000000 701000 xent               TSX1    LLM$MON_SVC
         3 002463   000000 011000                    NOP     0

      568    15135    4                   LL_DOBUF = 'A     Option ignored.';

  15135  3 002464   040000 100400                    MLR     fill='040'O
         3 002465   000232 000025 2                  ADSC9   B$RUBIRTHKEY+154         cn=0,n=21
         3 002466   000000 000160 xsym               ADSC9   LL_DOBUF                 cn=0,n=112

      569    15136    4                   CALL LLM$MON_SVC (LL#WRITEDO);

  15136  3 002467   000051 630400 4                  EPPR0   41
         3 002470   000017 631400 xsym               EPPR1   B_VECTNIL+15
         3 002471   000000 701000 xent               TSX1    LLM$MON_SVC
         3 002472   000000 011000                    NOP     0

      570    15137    4                   END;

  15137  3 002473   003112 710000 3                  TRA     s:15247

      571    15138    3               ELSE LL_FLAGS.SHARELIB# = '1'B;
PL6.E3A0      #001=LLA$MAIN File=LLA$MAIN.:E05TSI                                WED 07/30/97 03:10 Page:103

  15138  3 002474   004000 236007                    LDQ     2048,DL
         3 002475   000000 256000 xsym               ORSQ    LL_FLAGS
         3 002476   003112 710000 3                  TRA     s:15247

      572    15139    3           CASE (LL#VERS);

      573    15140    3               TPTR$ = PCB.OUT$ -> OUT$BLK.SUBLK$(X) -> OUT$BLK.SUBLK$(0);

  15140  3 002477   100003 236100                    LDQ     3,,PR1
         3 002500   200016 756100                    STQ     TPTR$,,AUTO

      574    15141    3               LL_VERSION.SIZE = TPTR$ -> OUT$SYM.COUNT;

  15141  3 002501   200016 471500                    LDP1    TPTR$,,AUTO
         3 002502   100004 236100                    LDQ     4,,PR1
         3 002503   000000 552040 xsym               STBQ    LL_VERSION,'40'O

      575    15142    3               LL_VERSION.TEXT = TPTR$ -> OUT$SYM.TEXT;

  15142  3 002504   100004 236100                    LDQ     4,,PR1
         3 002505   000033 772000                    QRL     27
         3 002506   000000 621006                    EAX1    0,QL
         3 002507   040000 100540                    MLR     fill='040'O
         3 002510   100004 200011                    ADSC9   4,,PR1                   cn=1,n=*X1
         3 002511   000000 200006 xsym               ADSC9   LL_VERSION               cn=1,n=6
         3 002512   003112 710000 3                  TRA     s:15247

      576    15143    3           CASE (LL#NOEDIT);

      577    15144    3               LL_FLAGS.NOEDITING# = '1'B;

  15144  3 002513   020000 236003                    LDQ     8192,DU
         3 002514   000000 256000 xsym               ORSQ    LL_FLAGS
         3 002515   003112 710000 3                  TRA     s:15247

      578    15145    3           CASE( %LL#NOCH );
PL6.E3A0      #001=LLA$MAIN File=LLA$MAIN.:E05TSI                                WED 07/30/97 03:10 Page:104

      579    15146    3               LL_HEAD.NOCHGPMEM = '1'B;

  15146  3 002516   000002 236003                    LDQ     2,DU
         3 002517   000022 256000 xsym               ORSQ    LL_HEAD+18
         3 002520   003112 710000 3                  TRA     s:15247

      580    15147    3           CASE( %LL#PROCACC );

      581    15148    3               LL_HEAD.PROCACC = '1'B;

  15148  3 002521   000004 236003                    LDQ     4,DU
         3 002522   000022 256000 xsym               ORSQ    LL_HEAD+18
         3 002523   003112 710000 3                  TRA     s:15247

      582    15149    3           CASE( %LL#SHAREA );

      583    15150    3               LL_HEAD.S = '1'B;

  15150  3 002524   000400 236003                    LDQ     256,DU
         3 002525   000022 256000 xsym               ORSQ    LL_HEAD+18
         3 002526   003112 710000 3                  TRA     s:15247

      584    15151    3           CASE( %LL#NSHAREA );

      585    15152    3               LL_HEAD.S = '0'B;

  15152  3 002527   000057 236000 4                  LDQ     47
         3 002530   000022 356000 xsym               ANSQ    LL_HEAD+18
         3 002531   003112 710000 3                  TRA     s:15247

      586    15153    3           CASE( %LL#SURCHARGE );

      587    15154    3               LL_HEAD.PROCSURCHG = '1'B;

  15154  3 002532   000001 236003                    LDQ     1,DU
         3 002533   000022 256000 xsym               ORSQ    LL_HEAD+18
PL6.E3A0      #001=LLA$MAIN File=LLA$MAIN.:E05TSI                                WED 07/30/97 03:10 Page:105
         3 002534   003112 710000 3                  TRA     s:15247

      588    15155    3           CASE( %LL#SLOCK, %LL#WLOCK );

      589    15156    3               LL_HEAD.RESTPROC = '1'B;

  15156  3 002535   400000 236007                    LDQ     -131072,DL
         3 002536   000022 256000 xsym               ORSQ    LL_HEAD+18

      590    15157    3               TPTR$ = PCB.OUT$->OUT$BLK.SUBLK$(X);

  15157  3 002537   000003 236110                    LDQ     3,X0,PR0
         3 002540   200016 756100                    STQ     TPTR$,,AUTO

      591    15158    3               IF TPTR$->OUT$BLK.CODE = %LL#SLOCK

  15158  3 002541   200016 471500                    LDP1    TPTR$,,AUTO
         3 002542   100000 721100                    LXL1    0,,PR1
         3 002543   000031 101003                    CMPX1   25,DU
         3 002544   002547 601000 3                  TNZ     s:15162

      592    15159    4               THEN DO;

      593    15160    4                   LL_HEAD.STRONG_LOCK = '1'B;

  15160  3 002545   200000 236007                    LDQ     65536,DL
         3 002546   000022 256000 xsym               ORSQ    LL_HEAD+18

      594    15161    4                   END;

      595    15162    3               TEMP1 = TPTR$->OUT$BLK.NSUBLKS - 1;

  15162  3 002547   100001 236100                    LDQ     1,,PR1
         3 002550   000022 772000                    QRL     18
         3 002551   000001 136007                    SBLQ    1,DL
         3 002552   200024 756100                    STQ     TEMP1,,AUTO

PL6.E3A0      #001=LLA$MAIN File=LLA$MAIN.:E05TSI                                WED 07/30/97 03:10 Page:106
      596    15163    4               DO TEMP = 0 TO TEMP1;

  15163  3 002553   200023 450100                    STZ     TEMP,,AUTO
         3 002554   002616 710000 3                  TRA     s:15176+3

      597    15164    4                   CALL CHARBIN( LOCK,

  15164  3 002555   200016 470500                    LDP0    TPTR$,,AUTO
         3 002556   200023 720100                    LXL0    TEMP,,AUTO
         3 002557   000003 471510                    LDP1    3,X0,PR0
         3 002560   100004 236100                    LDQ     4,,PR1
         3 002561   000033 772000                    QRL     27
         3 002562   000000 621006                    EAX1    0,QL
         3 002563   000100 305540                    DTB
         3 002564   100004 230011                    NDSC9   4,,PR1                   cn=1,s=nosgn,sf=0,n=*X1
         3 002565   200025 000004                    NDSC9   LOCK,,AUTO               cn=0,s=lsgnf,sf=0,n=4

      598    15165    4                      TPTR$->OUT$BLK.SUBLK$(TEMP)->OUT$SYM.TEXT );
      599    15166    4                   IF LOCK < 1 OR LOCK > 72

  15166  3 002566   200025 235100                    LDA     LOCK,,AUTO
         3 002567   002572 604400 3                  TMOZ    s:15168
         3 002570   000110 115007                    CMPA    72,DL
         3 002571   002605 604400 3                  TMOZ    s:15174

      600    15167    5                   THEN DO;

      601    15168    5                       CALL CONCAT( LL_DOBUF,

  15168  3 002572   040000 100400                    MLR     fill='040'O
         3 002573   000240 000042 2                  ADSC9   B$RUBIRTHKEY+160         cn=0,n=34
         3 002574   000000 000042 xsym               ADSC9   LL_DOBUF                 cn=0,n=34
         3 002575   040000 100540                    MLR     fill='040'O
         3 002576   100004 200011                    ADSC9   4,,PR1                   cn=1,n=*X1
         3 002577   000010 400116 xsym               ADSC9   LL_DOBUF+8               cn=2,n=78

      602    15169    5                          'A  ** Illegal lock value ignored: ',
PL6.E3A0      #001=LLA$MAIN File=LLA$MAIN.:E05TSI                                WED 07/30/97 03:10 Page:107
      603    15170    5                          TPTR$->OUT$BLK.SUBLK$(TEMP)->OUT$SYM.TEXT );
      604    15171    5                       CALL LLM$MON_SVC( LL#WRITEDO );

  15171  3 002600   000051 630400 4                  EPPR0   41
         3 002601   000017 631400 xsym               EPPR1   B_VECTNIL+15
         3 002602   000000 701000 xent               TSX1    LLM$MON_SVC
         3 002603   000000 011000                    NOP     0

      605    15172    5                       END;

  15172  3 002604   002613 710000 3                  TRA     s:15176

      606    15173    5                   ELSE DO;

      607    15174    5                       LL_HEAD.LOCK( LOCK - 1 ) = '1'B;

  15174  3 002605   000000 115003                    CMPA    0,DU
         3 002606   002610 605000 3                  TPL     s:15174+3
         3 002607   000044 035003                    ADLA    36,DU
         3 002610   003005 060400                    CSL     bolr='003'O
         3 002611   000030 000001 xsym               BDSC    B_VECTNIL+24             by=0,bit=0,n=1
         3 002612   000017 700001 xsym               BDSC    LL_HEAD+15,A             by=3,bit=8,n=1

      608    15175    5                       END;

      609    15176    4                   END;

  15176  3 002613   200023 235100                    LDA     TEMP,,AUTO
         3 002614   000001 035007                    ADLA    1,DL
         3 002615   200023 755100                    STA     TEMP,,AUTO
         3 002616   200023 236100                    LDQ     TEMP,,AUTO
         3 002617   002622 604000 3                  TMI     s:15176+7
         3 002620   200024 116100                    CMPQ    TEMP1,,AUTO
         3 002621   002555 604400 3                  TMOZ    s:15164
         3 002622   003112 710000 3                  TRA     s:15247

      610    15177    3           CASE( %LL#PRIVS );
PL6.E3A0      #001=LLA$MAIN File=LLA$MAIN.:E05TSI                                WED 07/30/97 03:10 Page:108

      611    15178    3               TPTR$ = PCB.OUT$->OUT$BLK.SUBLK$(X);

  15178  3 002623   000003 236110                    LDQ     3,X0,PR0
         3 002624   200016 756100                    STQ     TPTR$,,AUTO

      612    15179    3               TEMP1 = TPTR$->OUT$BLK.NSUBLKS - 1;

  15179  3 002625   200016 471500                    LDP1    TPTR$,,AUTO
         3 002626   100001 236100                    LDQ     1,,PR1
         3 002627   000022 772000                    QRL     18
         3 002630   000001 136007                    SBLQ    1,DL
         3 002631   200024 756100                    STQ     TEMP1,,AUTO

      613    15180    4               DO TEMP = 0 TO TEMP1;

  15180  3 002632   200023 450100                    STZ     TEMP,,AUTO
         3 002633   002754 710000 3                  TRA     s:15211+3

      614    15181    5                   DO CASE TPTR$->OUT$BLK.SUBLK$(TEMP)->OUT$BLK.CODE;

  15181  3 002634   200016 470500                    LDP0    TPTR$,,AUTO
         3 002635   200023 720100                    LXL0    TEMP,,AUTO
         3 002636   000003 471510                    LDP1    3,X0,PR0
         3 002637   100000 721100                    LXL1    0,,PR1
         3 002640   000017 101003                    CMPX1   15,DU
         3 002641   002643 602011 3                  TNC     s:15181+7,X1
         3 002642   002751 710000 3                  TRA     s:15211
         3 002643   002751 710000 3                  TRA     s:15211
         3 002644   002662 710000 3                  TRA     s:15183
         3 002645   002666 710000 3                  TRA     s:15185
         3 002646   002672 710000 3                  TRA     s:15187
         3 002647   002676 710000 3                  TRA     s:15189
         3 002650   002702 710000 3                  TRA     s:15191
         3 002651   002706 710000 3                  TRA     s:15193
         3 002652   002712 710000 3                  TRA     s:15195
         3 002653   002716 710000 3                  TRA     s:15197
PL6.E3A0      #001=LLA$MAIN File=LLA$MAIN.:E05TSI                                WED 07/30/97 03:10 Page:109
         3 002654   002722 710000 3                  TRA     s:15199
         3 002655   002726 710000 3                  TRA     s:15201
         3 002656   002732 710000 3                  TRA     s:15203
         3 002657   002736 710000 3                  TRA     s:15205
         3 002660   002742 710000 3                  TRA     s:15207
         3 002661   002746 710000 3                  TRA     s:15209

      615    15182    5                   CASE( %LL#CQ );

      616    15183    5                       LL_HEAD.PRIV = LL_HEAD.PRIV | %PR_CQ#;

  15183  3 002662   000000 236000 xsym               LDQ     LL_HEAD
         3 002663   000251 276000 2                  ORQ     B$RUBIRTHKEY+169
         3 002664   000000 756000 xsym               STQ     LL_HEAD
         3 002665   002751 710000 3                  TRA     s:15211

      617    15184    5                   CASE( %LL#EXMM );

      618    15185    5                       LL_HEAD.PRIV = LL_HEAD.PRIV | %PR_EXMM#;

  15185  3 002666   000000 236000 xsym               LDQ     LL_HEAD
         3 002667   000004 276000 xsym               ORQ     B_VECTNIL+4
         3 002670   000000 756000 xsym               STQ     LL_HEAD
         3 002671   002751 710000 3                  TRA     s:15211

      619    15186    5                   CASE( %LL#EXPM );

      620    15187    5                       LL_HEAD.PRIV = LL_HEAD.PRIV | %PR_EXPM#;

  15187  3 002672   000000 236000 xsym               LDQ     LL_HEAD
         3 002673   000252 276000 2                  ORQ     B$RUBIRTHKEY+170
         3 002674   000000 756000 xsym               STQ     LL_HEAD
         3 002675   002751 710000 3                  TRA     s:15211

      621    15188    5                   CASE( %LL#FMREAD );

      622    15189    5                       LL_HEAD.PRIV = LL_HEAD.PRIV | %PR_FMREAD#;
PL6.E3A0      #001=LLA$MAIN File=LLA$MAIN.:E05TSI                                WED 07/30/97 03:10 Page:110

  15189  3 002676   000000 236000 xsym               LDQ     LL_HEAD
         3 002677   000253 276000 2                  ORQ     B$RUBIRTHKEY+171
         3 002700   000000 756000 xsym               STQ     LL_HEAD
         3 002701   002751 710000 3                  TRA     s:15211

      623    15190    5                   CASE( %LL#FMSEC );

      624    15191    5                       LL_HEAD.PRIV = LL_HEAD.PRIV | %PR_FMSEC#;

  15191  3 002702   000000 236000 xsym               LDQ     LL_HEAD
         3 002703   000254 276000 2                  ORQ     B$RUBIRTHKEY+172
         3 002704   000000 756000 xsym               STQ     LL_HEAD
         3 002705   002751 710000 3                  TRA     s:15211

      625    15192    5                   CASE( %LL#GPP );

      626    15193    5                       LL_HEAD.PRIV = LL_HEAD.PRIV | %PR_GPP#;

  15193  3 002706   000000 236000 xsym               LDQ     LL_HEAD
         3 002707   000255 276000 2                  ORQ     B$RUBIRTHKEY+173
         3 002710   000000 756000 xsym               STQ     LL_HEAD
         3 002711   002751 710000 3                  TRA     s:15211

      627    15194    5                   CASE( %LL#INTCON );

      628    15195    5                       LL_HEAD.PRIV = LL_HEAD.PRIV | %PR_INTCON#;

  15195  3 002712   000000 236000 xsym               LDQ     LL_HEAD
         3 002713   000256 276000 2                  ORQ     B$RUBIRTHKEY+174
         3 002714   000000 756000 xsym               STQ     LL_HEAD
         3 002715   002751 710000 3                  TRA     s:15211

      629    15196    5                   CASE( %LL#MAXM );

      630    15197    5                       LL_HEAD.PRIV = LL_HEAD.PRIV | %PR_MAXMEM#;

PL6.E3A0      #001=LLA$MAIN File=LLA$MAIN.:E05TSI                                WED 07/30/97 03:10 Page:111
  15197  3 002716   000000 236000 xsym               LDQ     LL_HEAD
         3 002717   000006 276000 xsym               ORQ     B_VECTNIL+6
         3 002720   000000 756000 xsym               STQ     LL_HEAD
         3 002721   002751 710000 3                  TRA     s:15211

      631    15198    5                   CASE( %LL#MSYS );

      632    15199    5                       LL_HEAD.PRIV = LL_HEAD.PRIV | %PR_MSYS#;

  15199  3 002722   000000 236000 xsym               LDQ     LL_HEAD
         3 002723   000012 276000 xsym               ORQ     B_VECTNIL+10
         3 002724   000000 756000 xsym               STQ     LL_HEAD
         3 002725   002751 710000 3                  TRA     s:15211

      633    15200    5                   CASE( %LL#SCREECH );

      634    15201    5                       LL_HEAD.PRIV = LL_HEAD.PRIV | %PR_SCREECH#;

  15201  3 002726   000000 236000 xsym               LDQ     LL_HEAD
         3 002727   000257 276000 2                  ORQ     B$RUBIRTHKEY+175
         3 002730   000000 756000 xsym               STQ     LL_HEAD
         3 002731   002751 710000 3                  TRA     s:15211

      635    15202    5                   CASE( %LL#SNAP );

      636    15203    5                       LL_HEAD.PRIV = LL_HEAD.PRIV | %PR_SNAP#;

  15203  3 002732   000000 236000 xsym               LDQ     LL_HEAD
         3 002733   000260 276000 2                  ORQ     B$RUBIRTHKEY+176
         3 002734   000000 756000 xsym               STQ     LL_HEAD
         3 002735   002751 710000 3                  TRA     s:15211

      637    15204    5                   CASE( %LL#SPCLMM );

      638    15205    5                       LL_HEAD.PRIV = LL_HEAD.PRIV | %PR_SPCLMM#;

  15205  3 002736   000000 236000 xsym               LDQ     LL_HEAD
PL6.E3A0      #001=LLA$MAIN File=LLA$MAIN.:E05TSI                                WED 07/30/97 03:10 Page:112
         3 002737   000003 276000 xsym               ORQ     B_VECTNIL+3
         3 002740   000000 756000 xsym               STQ     LL_HEAD
         3 002741   002751 710000 3                  TRA     s:15211

      639    15206    5                   CASE( %LL#SYSLOG );

      640    15207    5                       LL_HEAD.PRIV = LL_HEAD.PRIV | %PR_SYSLOG#;

  15207  3 002742   000000 236000 xsym               LDQ     LL_HEAD
         3 002743   000261 276000 2                  ORQ     B$RUBIRTHKEY+177
         3 002744   000000 756000 xsym               STQ     LL_HEAD
         3 002745   002751 710000 3                  TRA     s:15211

      641    15208    5                   CASE( %LL#TND );

      642    15209    5                       LL_HEAD.PRIV = LL_HEAD.PRIV | %PR_TND#;

  15209  3 002746   000000 236000 xsym               LDQ     LL_HEAD
         3 002747   000262 276000 2                  ORQ     B$RUBIRTHKEY+178
         3 002750   000000 756000 xsym               STQ     LL_HEAD

      643    15210    5                       END;

      644    15211    4                   END;

  15211  3 002751   200023 235100                    LDA     TEMP,,AUTO
         3 002752   000001 035007                    ADLA    1,DL
         3 002753   200023 755100                    STA     TEMP,,AUTO
         3 002754   200023 236100                    LDQ     TEMP,,AUTO
         3 002755   002760 604000 3                  TMI     s:15211+7
         3 002756   200024 116100                    CMPQ    TEMP1,,AUTO
         3 002757   002634 604400 3                  TMOZ    s:15181
         3 002760   003112 710000 3                  TRA     s:15247

      645    15212    3           CASE( %LL#SEARCH );

      646    15213    3               TPTR$ = PCB.OUT$->OUT$BLK.SUBLK$(X);
PL6.E3A0      #001=LLA$MAIN File=LLA$MAIN.:E05TSI                                WED 07/30/97 03:10 Page:113

  15213  3 002761   000003 236110                    LDQ     3,X0,PR0
         3 002762   200016 756100                    STQ     TPTR$,,AUTO

      647    15214    3               TEMP1 = TPTR$->OUT$BLK.NSUBLKS - 1;

  15214  3 002763   200016 471500                    LDP1    TPTR$,,AUTO
         3 002764   100001 236100                    LDQ     1,,PR1
         3 002765   000022 772000                    QRL     18
         3 002766   000001 136007                    SBLQ    1,DL
         3 002767   200024 756100                    STQ     TEMP1,,AUTO

      648    15215    3               IF TEMP1 > %(LL_MAX_SRCH-1)

  15215  3 002770   000011 116007                    CMPQ    9,DL
         3 002771   003003 604400 3                  TMOZ    s:15222

      649    15216    4               THEN DO;

      650    15217    4                   LL_DOBUF = 'A  ** Maximum number of search accounts is 10.';

  15217  3 002772   040000 100400                    MLR     fill='040'O
         3 002773   000263 000056 2                  ADSC9   B$RUBIRTHKEY+179         cn=0,n=46
         3 002774   000000 000160 xsym               ADSC9   LL_DOBUF                 cn=0,n=112

      651    15218    4                   CALL LLM$MON_SVC( LL#WRITEDO );

  15218  3 002775   000051 630400 4                  EPPR0   41
         3 002776   000017 631400 xsym               EPPR1   B_VECTNIL+15
         3 002777   000000 701000 xent               TSX1    LLM$MON_SVC
         3 003000   000000 011000                    NOP     0

      652    15219    4                   TEMP1 = %(LL_MAX_SRCH-1);

  15219  3 003001   000011 235007                    LDA     9,DL
         3 003002   200024 755100                    STA     TEMP1,,AUTO

PL6.E3A0      #001=LLA$MAIN File=LLA$MAIN.:E05TSI                                WED 07/30/97 03:10 Page:114
      653    15220    4                   END;

      654    15221
      655    15222    3               FPT_FID.NAME_ = VECTOR(NAME);

  15222  3 003003   000060 235000 4                  LDA     48
         3 003004   200054 452500                    STP2    CHAR2+2,,AUTO
         3 003005   200054 236100                    LDQ     CHAR2+2,,AUTO
         3 003006   000026 036003                    ADLQ    22,DU
         3 003007   000074 757000 1                  STAQ    FPT_FID+4

      656    15223    3               LL_SRCH.NUM = 0;

  15223  3 003010   000020 450000 1                  STZ     LL_SRCH

      657    15224
      658    15225    4               DO TEMP = 0 TO TEMP1;

  15225  3 003011   200023 450100                    STZ     TEMP,,AUTO
         3 003012   003106 710000 3                  TRA     s:15245+3

      659    15226    4                   TEXTFID = TPTR$->OUT$BLK.SUBLK$(TEMP)->OUT$SYM.TEXT;

  15226  3 003013   200016 470500                    LDP0    TPTR$,,AUTO
         3 003014   200023 720100                    LXL0    TEMP,,AUTO
         3 003015   000003 471510                    LDP1    3,X0,PR0
         3 003016   100004 236100                    LDQ     4,,PR1
         3 003017   000033 772000                    QRL     27
         3 003020   000000 621006                    EAX1    0,QL
         3 003021   040000 100540                    MLR     fill='040'O
         3 003022   100004 200011                    ADSC9   4,,PR1                   cn=1,n=*X1
         3 003023   000146 000100 1                  ADSC9   TEXTFID                  cn=0,n=64

      660    15227    4                   CALL M$FID( FPT_FID ) ALTRET( BAD_SRCH );

  15227  3 003024   000070 630400 1                  EPPR0   FPT_FID
         3 003025   420001 713400                    CLIMB   alt,+8193
PL6.E3A0      #001=LLA$MAIN File=LLA$MAIN.:E05TSI                                WED 07/30/97 03:10 Page:115
         3 003026   404400 401760                    pmme    nvectors=10
         3 003027   003045 702000 3                  TSX2    BAD_SRCH

      661    15228    4                   IF NOT FID_RESULTS.ACCT OR

  15228  3 003030   000132 236000 1                  LDQ     FID_RESULTS
         3 003031   200000 316003                    CANQ    65536,DU
         3 003032   003045 600000 3                  TZE     BAD_SRCH
         3 003033   000132 234000 1                  SZN     FID_RESULTS
         3 003034   003045 604000 3                  TMI     BAD_SRCH
         3 003035   100000 316003                    CANQ    32768,DU
         3 003036   003045 601000 3                  TNZ     BAD_SRCH
         3 003037   020000 316003                    CANQ    8192,DU
         3 003040   003045 601000 3                  TNZ     BAD_SRCH
         3 003041   000145 236000 1                  LDQ     ASN
         3 003042   777000 376003                    ANQ     -512,DU
         3 003043   001000 116003                    CMPQ    512,DU
         3 003044   003066 600000 3                  TZE     s:15241

      662    15229    4                      FID_RESULTS.NAME OR
      663    15230    4                      FID_RESULTS.PASS OR
      664    15231    4                      FID_RESULTS.WSN OR
      665    15232    4                      ASN ~= %FILE#
      666    15233    5                   THEN DO;

  15227  3 003045                       BAD_SRCH     null
      667    15234    5   BAD_SRCH:           ;
      668    15235    5                       CALL CONCAT( LL_DOBUF,

  15235  3 003045   200016 470500                    LDP0    TPTR$,,AUTO
         3 003046   200023 720100                    LXL0    TEMP,,AUTO
         3 003047   000003 471510                    LDP1    3,X0,PR0
         3 003050   100004 236100                    LDQ     4,,PR1
         3 003051   000033 772000                    QRL     27
         3 003052   040000 100400                    MLR     fill='040'O
         3 003053   000277 000053 2                  ADSC9   B$RUBIRTHKEY+191         cn=0,n=43
         3 003054   000000 000053 xsym               ADSC9   LL_DOBUF                 cn=0,n=43
PL6.E3A0      #001=LLA$MAIN File=LLA$MAIN.:E05TSI                                WED 07/30/97 03:10 Page:116
         3 003055   000000 621006                    EAX1    0,QL
         3 003056   040000 100540                    MLR     fill='040'O
         3 003057   100004 200011                    ADSC9   4,,PR1                   cn=1,n=*X1
         3 003060   000012 600105 xsym               ADSC9   LL_DOBUF+10              cn=3,n=69

      669    15236    5                          'A  ** Invalid account in SRCH list ignored:',
      670    15237    5                          TPTR$->OUT$BLK.SUBLK$(TEMP)->OUT$SYM.TEXT );
      671    15238    5                       CALL LLM$MON_SVC( LL#WRITEDO );

  15238  3 003061   000051 630400 4                  EPPR0   41
         3 003062   000017 631400 xsym               EPPR1   B_VECTNIL+15
         3 003063   000000 701000 xent               TSX1    LLM$MON_SVC
         3 003064   000000 011000                    NOP     0

      672    15239    5                       END;

  15239  3 003065   003103 710000 3                  TRA     s:15245

      673    15240    5                   ELSE DO;

      674    15241    5                       LL_SRCH.ACCT(LL_SRCH.NUM) = VLP_ACCT.ACCT#;

  15241  3 003066   000020 235000 1                  LDA     LL_SRCH
         3 003067   000001 735000                    ALS     1
         3 003070   000000 620005                    EAX0    0,AL
         3 003071   000000 621005                    EAX1    0,AL
         3 003072   000120 237000 1                  LDAQ    VLP_ACCT
         3 003073   000021 755010 1                  STA     LL_SRCH+1,X0
         3 003074   000022 756011 1                  STQ     LL_SRCH+2,X1

      675    15242    5                       LL_SRCH.SN(LL_SRCH.NUM) = VLP_SN.SN#(0);

  15242  3 003075   000020 236000 1                  LDQ     LL_SRCH
         3 003076   000006 402007                    MPY     6,DL
         3 003077   040006 100400                    MLR     fill='040'O
         3 003100   000127 000006 1                  ADSC9   VLP_SN+1                 cn=0,n=6
         3 003101   000047 000006 1                  ADSC9   LL_SRCH+23,Q             cn=0,n=6
PL6.E3A0      #001=LLA$MAIN File=LLA$MAIN.:E05TSI                                WED 07/30/97 03:10 Page:117

      676    15243    5                       LL_SRCH.NUM = LL_SRCH.NUM + 1;

  15243  3 003102   000020 054000 1                  AOS     LL_SRCH

      677    15244    5                       END;

      678    15245    4                   END; /* Loop over search list */

  15245  3 003103   200023 235100                    LDA     TEMP,,AUTO
         3 003104   000001 035007                    ADLA    1,DL
         3 003105   200023 755100                    STA     TEMP,,AUTO
         3 003106   200023 236100                    LDQ     TEMP,,AUTO
         3 003107   003112 604000 3                  TMI     s:15247
         3 003110   200024 116100                    CMPQ    TEMP1,,AUTO
         3 003111   003013 604400 3                  TMOZ    s:15226

      679    15246    3               END;

      680    15247    3           IF LL_FLAGS.VAL_ERR# THEN DO;

  15247  3 003112   000000 236000 xsym               LDQ     LL_FLAGS
         3 003113   000001 316003                    CANQ    1,DU
         3 003114   003123 600000 3                  TZE     s:15251

      681    15248    3               CALL LLM$MON_SVC (LL#WRITEDO);

  15248  3 003115   000051 630400 4                  EPPR0   41
         3 003116   000017 631400 xsym               EPPR1   B_VECTNIL+15
         3 003117   000000 701000 xent               TSX1    LLM$MON_SVC
         3 003120   000000 011000                    NOP     0

      682    15249    3               LL_FLAGS.VAL_ERR# = '0'B;

  15249  3 003121   000062 236000 4                  LDQ     50
         3 003122   000000 356000 xsym               ANSQ    LL_FLAGS

PL6.E3A0      #001=LLA$MAIN File=LLA$MAIN.:E05TSI                                WED 07/30/97 03:10 Page:118
      683    15250    3               END;

      684    15251    2           END;

  15251  3 003123   200036 235100                    LDA     X,,AUTO
         3 003124   000001 035007                    ADLA    1,DL
         3 003125   200036 755100                    STA     X,,AUTO
         3 003126   000003 470400 1                  LDP0    PCB+3
         3 003127   000001 236100                    LDQ     1,,PR0
         3 003130   000022 772000                    QRL     18
         3 003131   200036 116100                    CMPQ    X,,AUTO
         3 003132   003134 600000 3                  TZE     s:15252
         3 003133   001130 603000 3                  TRC     s:14881

      685    15252    1       IF LL_HEAD.TCBSIZE < 3 THEN LL_HEAD.TCBSIZE = 3;

  15252  3 003134   000005 720000 xsym               LXL0    LL_HEAD+5
         3 003135   000003 100003                    CMPX0   3,DU
         3 003136   003141 603000 3                  TRC     s:15253

  15252  3 003137   000003 221003                    LDX1    3,DU
         3 003140   000005 441000 xsym               SXL1    LL_HEAD+5

      686    15253    1       LL_HEAD.FLAVOR = %FEP_RU;

  15253  3 003141   002000 236003                    LDQ     1024,DU
         3 003142   000022 552040 xsym               STBQ    LL_HEAD+18,'40'O

      687    15254    1       LL_HEAD.VERSION# = LL_HEAD_VERSION; /* feplink version */

  15254  3 003143   000000 236000 xsym               LDQ     LL_HEAD_VERSION
         3 003144   000033 736000                    QLS     27
         3 003145   000011 552040 xsym               STBQ    LL_HEAD+9,'40'O

      688    15255    2       IF (LL_FLAGS.START# AND (LL_VAL_START < LL_VAL_BIAS)) THEN DO;

  15255  3 003146   000000 236000 xsym               LDQ     LL_FLAGS
PL6.E3A0      #001=LLA$MAIN File=LLA$MAIN.:E05TSI                                WED 07/30/97 03:10 Page:119
         3 003147   200000 316003                    CANQ    65536,DU
         3 003150   003164 600000 3                  TZE     s:15259
         3 003151   000000 236000 xsym               LDQ     LL_VAL_START
         3 003152   003164 604000 3                  TMI     s:15259
         3 003153   000000 116000 xsym               CMPQ    LL_VAL_BIAS
         3 003154   003164 605000 3                  TPL     s:15259

      689    15256    2           LL_DOBUF = 'A  ***Start address not contained in program area';

  15256  3 003155   040000 100400                    MLR     fill='040'O
         3 003156   000312 000061 2                  ADSC9   B$RUBIRTHKEY+202         cn=0,n=49
         3 003157   000000 000160 xsym               ADSC9   LL_DOBUF                 cn=0,n=112

      690    15257    2           CALL LLM$MON_SVC (LL#WRITEDO);

  15257  3 003160   000051 630400 4                  EPPR0   41
         3 003161   000017 631400 xsym               EPPR1   B_VECTNIL+15
         3 003162   000000 701000 xent               TSX1    LLM$MON_SVC
         3 003163   000000 011000                    NOP     0

      691    15258    2           END;

      692    15259    1       LL_BOTOMEM$ = PCB.TEXT$;

  15259  3 003164   000000 236000 1                  LDQ     PCB
         3 003165   000000 756000 xsym               STQ     LL_BOTOMEM$

      693    15260    1       IF LL_FLAGS.NOEDITING#

  15260  3 003166   000000 236000 xsym               LDQ     LL_FLAGS
         3 003167   020000 316003                    CANQ    8192,DU
         3 003170   003222 600000 3                  TZE     s:15281

      694    15261    1       THEN
      695    15262    2       DO;

      696    15263    2           IF LL_FLAGS.SLIB#
PL6.E3A0      #001=LLA$MAIN File=LLA$MAIN.:E05TSI                                WED 07/30/97 03:10 Page:120

  15263  3 003171   010000 316007                    CANQ    4096,DL
         3 003172   003204 600000 3                  TZE     s:15272

      697    15264    2           THEN
      698    15265    3           DO;

      699    15266    3               LL_DOBUF ='A *** Option NOEDITING is in conflict with option SLIB';

  15266  3 003173   040000 100400                    MLR     fill='040'O
         3 003174   000327 000066 2                  ADSC9   B$RUBIRTHKEY+215         cn=0,n=54
         3 003175   000000 000160 xsym               ADSC9   LL_DOBUF                 cn=0,n=112

      700    15267                    %CONFLICT;

  15268  3 003176   000051 630400 4                  EPPR0   41
         3 003177   000017 631400 xsym               EPPR1   B_VECTNIL+15
         3 003200   000000 701000 xent               TSX1    LLM$MON_SVC
         3 003201   000000 011000                    NOP     0

  15269  3 003202   001000 236003                    LDQ     512,DU
         3 003203   000000 256000 xsym               ORSQ    LL_FLAGS

      701    15271    3               END;

      702    15272    2           IF LL_FLAGS.TCB# OR LL_FLAGS.DCBSLOT# THEN

  15272  3 003204   000000 236000 xsym               LDQ     LL_FLAGS
         3 003205   000400 316007                    CANQ    256,DL
         3 003206   003211 601000 3                  TNZ     s:15274
         3 003207   001000 316007                    CANQ    512,DL
         3 003210   003222 600000 3                  TZE     s:15281

      703    15273    3           DO;

      704    15274    3               LL_DOBUF =
             15274                        'A *** Option NOEDTING is in conflict with option TCB or DCBSLOT';
PL6.E3A0      #001=LLA$MAIN File=LLA$MAIN.:E05TSI                                WED 07/30/97 03:10 Page:121

  15274  3 003211   040000 100400                    MLR     fill='040'O
         3 003212   000345 000077 2                  ADSC9   B$RUBIRTHKEY+229         cn=0,n=63
         3 003213   000000 000160 xsym               ADSC9   LL_DOBUF                 cn=0,n=112

      705    15275                    %CONFLICT;

  15276  3 003214   000051 630400 4                  EPPR0   41
         3 003215   000017 631400 xsym               EPPR1   B_VECTNIL+15
         3 003216   000000 701000 xent               TSX1    LLM$MON_SVC
         3 003217   000000 011000                    NOP     0

  15277  3 003220   001000 236003                    LDQ     512,DU
         3 003221   000000 256000 xsym               ORSQ    LL_FLAGS

      706    15279    3               END;

      707    15280    2           END;

      708    15281    1       IF LL_FLAGS.VECTOR# AND NOT LL_FLAGS.SLIB#

  15281  3 003222   000000 236000 xsym               LDQ     LL_FLAGS
         3 003223   000200 316007                    CANQ    128,DL
         3 003224   003247 600000 3                  TZE     s:15290
         3 003225   010000 316007                    CANQ    4096,DL
         3 003226   003247 601000 3                  TNZ     s:15290

      709    15282    1       THEN
      710    15283    2       DO;

      711    15284    2           LL_DOBUF = 'A   *** The Vector option was specified, but SLIB option was';

  15284  3 003227   040000 100400                    MLR     fill='040'O
         3 003230   000365 000074 2                  ADSC9   B$RUBIRTHKEY+245         cn=0,n=60
         3 003231   000000 000160 xsym               ADSC9   LL_DOBUF                 cn=0,n=112

      712    15285    2           CALL LLM$MON_SVC(LL#WRITEDO);
PL6.E3A0      #001=LLA$MAIN File=LLA$MAIN.:E05TSI                                WED 07/30/97 03:10 Page:122

  15285  3 003232   000051 630400 4                  EPPR0   41
         3 003233   000017 631400 xsym               EPPR1   B_VECTNIL+15
         3 003234   000000 701000 xent               TSX1    LLM$MON_SVC
         3 003235   000000 011000                    NOP     0

      713    15286    2           LL_DOBUF = 'A       not specified, SLIB option assumed.';

  15286  3 003236   040000 100400                    MLR     fill='040'O
         3 003237   000404 000053 2                  ADSC9   B$RUBIRTHKEY+260         cn=0,n=43
         3 003240   000000 000160 xsym               ADSC9   LL_DOBUF                 cn=0,n=112

      714    15287    2           CALL LLM$MON_SVC(LL#WRITEDO);

  15287  3 003241   000051 630400 4                  EPPR0   41
         3 003242   000017 631400 xsym               EPPR1   B_VECTNIL+15
         3 003243   000000 701000 xent               TSX1    LLM$MON_SVC
         3 003244   000000 011000                    NOP     0

      715    15288    2           LL_FLAGS.SLIB# = '1'B;

  15288  3 003245   010000 236007                    LDQ     4096,DL
         3 003246   000000 256000 xsym               ORSQ    LL_FLAGS

      716    15289    2           END;

      717    15290    1       IF LL_FLAGS.SLIB#

  15290  3 003247   000000 236000 xsym               LDQ     LL_FLAGS
         3 003250   010000 316007                    CANQ    4096,DL
         3 003251   003336 600000 3                  TZE     s:15334

      718    15291    1       THEN
      719    15292    2       DO;

      720    15293    2           IF LL_FLAGS.BIAS#

PL6.E3A0      #001=LLA$MAIN File=LLA$MAIN.:E05TSI                                WED 07/30/97 03:10 Page:123
  15293  3 003252   100000 316003                    CANQ    32768,DU
         3 003253   003270 600000 3                  TZE     s:15306

      721    15294    2           THEN
      722    15295    3           DO;

      723    15296    3               IF LL_VAL_BIAS ~= LL#SLIB_DBIAS

  15296  3 003254   000000 235000 xsym               LDA     LL_VAL_BIAS
         3 003255   200000 115007                    CMPA    65536,DL
         3 003256   003270 600000 3                  TZE     s:15306

      724    15297    3               THEN
      725    15298    4               DO;

      726    15299    4                   LL_DOBUF ='A *** Invalid BIAS for shared library generation';

  15299  3 003257   040000 100400                    MLR     fill='040'O
         3 003260   000417 000060 2                  ADSC9   B$RUBIRTHKEY+271         cn=0,n=48
         3 003261   000000 000160 xsym               ADSC9   LL_DOBUF                 cn=0,n=112

      727    15300                        %CONFLICT;

  15301  3 003262   000051 630400 4                  EPPR0   41
         3 003263   000017 631400 xsym               EPPR1   B_VECTNIL+15
         3 003264   000000 701000 xent               TSX1    LLM$MON_SVC
         3 003265   000000 011000                    NOP     0

  15302  3 003266   001000 236003                    LDQ     512,DU
         3 003267   000000 256000 xsym               ORSQ    LL_FLAGS

      728    15304    4                   END;

      729    15305    3               END;

      730    15306    2           IF LL_FLAGS.SHARELIB#

PL6.E3A0      #001=LLA$MAIN File=LLA$MAIN.:E05TSI                                WED 07/30/97 03:10 Page:124
  15306  3 003270   000000 236000 xsym               LDQ     LL_FLAGS
         3 003271   004000 316007                    CANQ    2048,DL
         3 003272   003304 600000 3                  TZE     s:15315

      731    15307    2           THEN
      732    15308    3           DO;

      733    15309    3               LL_DOBUF ='A *** Option SLIB is in conflict with option SHAREDLIB';

  15309  3 003273   040000 100400                    MLR     fill='040'O
         3 003274   000433 000066 2                  ADSC9   B$RUBIRTHKEY+283         cn=0,n=54
         3 003275   000000 000160 xsym               ADSC9   LL_DOBUF                 cn=0,n=112

      734    15310                    %CONFLICT;

  15311  3 003276   000051 630400 4                  EPPR0   41
         3 003277   000017 631400 xsym               EPPR1   B_VECTNIL+15
         3 003300   000000 701000 xent               TSX1    LLM$MON_SVC
         3 003301   000000 011000                    NOP     0

  15312  3 003302   001000 236003                    LDQ     512,DU
         3 003303   000000 256000 xsym               ORSQ    LL_FLAGS

      735    15314    3               END;

      736    15315    2           IF LL_FLAGS.TCB# OR LL_FLAGS.DCBSLOT#

  15315  3 003304   000000 236000 xsym               LDQ     LL_FLAGS
         3 003305   000400 316007                    CANQ    256,DL
         3 003306   003311 601000 3                  TNZ     s:15318
         3 003307   001000 316007                    CANQ    512,DL
         3 003310   003322 600000 3                  TZE     s:15324

      737    15316    2           THEN
      738    15317    3           DO;

      739    15318    3              LL_DOBUF = 'A *** Option SLIB is in conflict with option TCB or DCBSLOT'
PL6.E3A0      #001=LLA$MAIN File=LLA$MAIN.:E05TSI                                WED 07/30/97 03:10 Page:125
             15318                        ;

  15318  3 003311   040000 100400                    MLR     fill='040'O
         3 003312   000451 000073 2                  ADSC9   B$RUBIRTHKEY+297         cn=0,n=59
         3 003313   000000 000160 xsym               ADSC9   LL_DOBUF                 cn=0,n=112

      740    15319                    %CONFLICT;

  15320  3 003314   000051 630400 4                  EPPR0   41
         3 003315   000017 631400 xsym               EPPR1   B_VECTNIL+15
         3 003316   000000 701000 xent               TSX1    LLM$MON_SVC
         3 003317   000000 011000                    NOP     0

  15321  3 003320   001000 236003                    LDQ     512,DU
         3 003321   000000 256000 xsym               ORSQ    LL_FLAGS

      741    15323    3               END;

      742    15324    2           IF LL_FLAGS.BIAS_OU

  15324  3 003322   000000 236000 xsym               LDQ     LL_FLAGS
         3 003323   040000 316007                    CANQ    16384,DL
         3 003324   003336 600000 3                  TZE     s:15334

      743    15325    2           THEN
      744    15326    3           DO;

      745    15327    3               LL_DOBUF = 'A *** Option SLIB is in conflict with option BIAS BY OU';

  15327  3 003325   040000 100400                    MLR     fill='040'O
         3 003326   000470 000067 2                  ADSC9   B$RUBIRTHKEY+312         cn=0,n=55
         3 003327   000000 000160 xsym               ADSC9   LL_DOBUF                 cn=0,n=112

      746    15328                    %CONFLICT;

  15329  3 003330   000051 630400 4                  EPPR0   41
         3 003331   000017 631400 xsym               EPPR1   B_VECTNIL+15
PL6.E3A0      #001=LLA$MAIN File=LLA$MAIN.:E05TSI                                WED 07/30/97 03:10 Page:126
         3 003332   000000 701000 xent               TSX1    LLM$MON_SVC
         3 003333   000000 011000                    NOP     0

  15330  3 003334   001000 236003                    LDQ     512,DU
         3 003335   000000 256000 xsym               ORSQ    LL_FLAGS

      747    15332    3               END;

      748    15333    2           END;

      749    15334    1       IF LL_FLAGS.BIAS_OU

  15334  3 003336   000000 236000 xsym               LDQ     LL_FLAGS
         3 003337   040000 316007                    CANQ    16384,DL
         3 003340   003354 600000 3                  TZE     s:15347

      750    15335    1       THEN
      751    15336    2       DO;

      752    15337    2           IF LL_FLAGS.SHARELIB#

  15337  3 003341   004000 316007                    CANQ    2048,DL
         3 003342   003354 600000 3                  TZE     s:15347

      753    15338    2           THEN
      754    15339    3           DO;

      755    15340    3              LL_DOBUF = 'A *** Option SHARELIB is in conflict with option BIAS BY OU'
             15340                        ;

  15340  3 003343   040000 100400                    MLR     fill='040'O
         3 003344   000506 000073 2                  ADSC9   B$RUBIRTHKEY+326         cn=0,n=59
         3 003345   000000 000160 xsym               ADSC9   LL_DOBUF                 cn=0,n=112

      756    15341                    %CONFLICT;

  15342  3 003346   000051 630400 4                  EPPR0   41
PL6.E3A0      #001=LLA$MAIN File=LLA$MAIN.:E05TSI                                WED 07/30/97 03:10 Page:127
         3 003347   000017 631400 xsym               EPPR1   B_VECTNIL+15
         3 003350   000000 701000 xent               TSX1    LLM$MON_SVC
         3 003351   000000 011000                    NOP     0

  15343  3 003352   001000 236003                    LDQ     512,DU
         3 003353   000000 256000 xsym               ORSQ    LL_FLAGS

      757    15345    3               END;

      758    15346    2           END;

      759    15347    1       IF LL_FLAGS.CON_OPT#

  15347  3 003354   000000 430000 xsym               FSZN    LL_FLAGS
         3 003355   003362 605000 3                  TPL     s:15350

      760    15348    1       THEN
      761    15349    1           CALL LLM$MON_SVC(LL#ERR);

  15349  3 003356   000064 630400 4                  EPPR0   52
         3 003357   000017 631400 xsym               EPPR1   B_VECTNIL+15
         3 003360   000000 701000 xent               TSX1    LLM$MON_SVC
         3 003361   000000 011000                    NOP     0

      762    15350    1       LL_HEAD.LIB = LL_FLAGS.SLIB#;

  15350  3 003362   000000 236000 xsym               LDQ     LL_FLAGS
         3 003363   000015 736000                    QLS     13
         3 003364   000022 676000 xsym               ERQ     LL_HEAD+18
         3 003365   000200 376003                    ANQ     128,DU
         3 003366   000022 656000 xsym               ERSQ    LL_HEAD+18

      763    15351    1       CALL LLB$PASS1 (PCB.TEXT$);

  15351  3 003367   000001 630400 4                  EPPR0   1
         3 003370   000017 631400 xsym               EPPR1   B_VECTNIL+15
         3 003371   000000 701000 xent               TSX1    LLB$PASS1
PL6.E3A0      #001=LLA$MAIN File=LLA$MAIN.:E05TSI                                WED 07/30/97 03:10 Page:128
         3 003372   000000 011000                    NOP     0

      764    15352    2       IF LL_START$ = ADDR(NIL) AND NOT LL_FLAGS.SLIB# THEN DO;

  15352  3 003373   000000 236000 xsym               LDQ     LL_START$
         3 003374   000001 116000 xsym               CMPQ    B_VECTNIL+1
         3 003375   003410 601000 3                  TNZ     s:15356
         3 003376   000000 236000 xsym               LDQ     LL_FLAGS
         3 003377   010000 316007                    CANQ    4096,DL
         3 003400   003410 601000 3                  TNZ     s:15356

      765    15353    2           LL_DOBUF = 'A  ** No start address specified for the target RU.';

  15353  3 003401   040000 100400                    MLR     fill='040'O
         3 003402   000525 000063 2                  ADSC9   B$RUBIRTHKEY+341         cn=0,n=51
         3 003403   000000 000160 xsym               ADSC9   LL_DOBUF                 cn=0,n=112

      766    15354    2           CALL LLM$MON_SVC ( LL#WRITEDO );

  15354  3 003404   000051 630400 4                  EPPR0   41
         3 003405   000017 631400 xsym               EPPR1   B_VECTNIL+15
         3 003406   000000 701000 xent               TSX1    LLM$MON_SVC
         3 003407   000000 011000                    NOP     0

      767    15355    2           END;

      768    15356    2       IF ( LL_HEAD.SEV > LL_VAL_SL ) THEN DO;

  15356  3 003410   000003 236000 xsym               LDQ     LL_HEAD+3
         3 003411   000033 772000                    QRL     27
         3 003412   000000 116000 xsym               CMPQ    LL_VAL_SL
         3 003413   003432 602000 3                  TNC     s:15363
         3 003414   003432 600000 3                  TZE     s:15363

      769    15357    2           CALL LLA$SAY_SEV;

  15357  3 003415   004151 701000 3                  TSX1    LLA$SAY_SEV
PL6.E3A0      #001=LLA$MAIN File=LLA$MAIN.:E05TSI                                WED 07/30/97 03:10 Page:129
         3 003416   000000 011000                    NOP     0

      770    15358    2           LL_DOBUF = 'A  ***Severity level exceeded after PASS1: Run file not built';

  15358  3 003417   040000 100400                    MLR     fill='040'O
         3 003420   000542 000076 2                  ADSC9   B$RUBIRTHKEY+354         cn=0,n=62
         3 003421   000000 000160 xsym               ADSC9   LL_DOBUF                 cn=0,n=112

      771    15359    2   FAIL:
      772    15360    2           CALL LLM$MON_SVC ( LL#WRITEDO );

  15360  3 003422   000051 630400 4     FAIL         EPPR0   41
         3 003423   000017 631400 xsym               EPPR1   B_VECTNIL+15
         3 003424   000000 701000 xent               TSX1    LLM$MON_SVC
         3 003425   000000 011000                    NOP     0

      773    15361    2           CALL LLM$MON_SVC ( LL#ERR );

  15361  3 003426   000064 630400 4                  EPPR0   52
         3 003427   000017 631400 xsym               EPPR1   B_VECTNIL+15
         3 003430   000000 701000 xent               TSX1    LLM$MON_SVC
         3 003431   000000 011000                    NOP     0

      774    15362    2           END;

      775    15363    1       LL_TOPOMEM$ = PCB.TEXT$;

  15363  3 003432   000000 236000 1                  LDQ     PCB
         3 003433   000000 756000 xsym               STQ     LL_TOPOMEM$

      776    15364    1       CALL LLC$PASS2 (LL_TOPOMEM$);

  15364  3 003434   000065 630400 4                  EPPR0   53
         3 003435   000017 631400 xsym               EPPR1   B_VECTNIL+15
         3 003436   000000 701000 xent               TSX1    LLC$PASS2
         3 003437   000000 011000                    NOP     0

PL6.E3A0      #001=LLA$MAIN File=LLA$MAIN.:E05TSI                                WED 07/30/97 03:10 Page:130
      777    15365    1       CALL LLA$SAY_SEV;

  15365  3 003440   004151 701000 3                  TSX1    LLA$SAY_SEV
         3 003441   000000 011000                    NOP     0

      778    15366    2       IF (LL_HEAD.SEV > LL_VAL_SL) THEN DO;

  15366  3 003442   000003 236000 xsym               LDQ     LL_HEAD+3
         3 003443   000033 772000                    QRL     27
         3 003444   000000 116000 xsym               CMPQ    LL_VAL_SL
         3 003445   003456 602000 3                  TNC     s:15370
         3 003446   003456 600000 3                  TZE     s:15370

      779    15367    2           LL_DOBUF = 'A  ***Severity level exceeded:  Run file not built';

  15367  3 003447   040000 100400                    MLR     fill='040'O
         3 003450   000562 000062 2                  ADSC9   B$RUBIRTHKEY+370         cn=0,n=50
         3 003451   000000 000160 xsym               ADSC9   LL_DOBUF                 cn=0,n=112

      780    15368    2           CALL LLM$MON_SVC (LL#WRITEDO);

  15368  3 003452   000051 630400 4                  EPPR0   41
         3 003453   000017 631400 xsym               EPPR1   B_VECTNIL+15
         3 003454   000000 701000 xent               TSX1    LLM$MON_SVC
         3 003455   000000 011000                    NOP     0

      781    15369    2           END;

      782    15370    1       IF LL_FLAGS.BIAS_OU

  15370  3 003456   000000 236000 xsym               LDQ     LL_FLAGS
         3 003457   040000 316007                    CANQ    16384,DL
         3 003460   003503 600000 3                  TZE     s:15374

      783    15371    1       THEN
      784    15372    1           X = ((LL_HEAD.RDATA+LL_HEAD.RPROC+LL_HEAD.ROSIZE+LL_PAGESIZE-1)/LL_PAGESIZE
             15372                    + 3) /4;
PL6.E3A0      #001=LLA$MAIN File=LLA$MAIN.:E05TSI                                WED 07/30/97 03:10 Page:131

  15372  3 003461   000001 236000 xsym               LDQ     LL_HEAD+1
         3 003462   000046 376000 4                  ANQ     38
         3 003463   200054 756100                    STQ     CHAR2+2,,AUTO
         3 003464   000002 236000 xsym               LDQ     LL_HEAD+2
         3 003465   000046 376000 4                  ANQ     38
         3 003466   200054 036100                    ADLQ    CHAR2+2,,AUTO
         3 003467   200055 756100                    STQ     CHAR2+3,,AUTO
         3 003470   000010 236000 xsym               LDQ     LL_HEAD+8
         3 003471   777777 376007                    ANQ     -1,DL
         3 003472   200056 756100                    STQ     CHAR2+4,,AUTO
         3 003473   200055 236100                    LDQ     CHAR2+3,,AUTO
         3 003474   200056 036100                    ADLQ    CHAR2+4,,AUTO
         3 003475   000377 036007                    ADLQ    255,DL
         3 003476   000010 772000                    QRL     8
         3 003477   000003 036007                    ADLQ    3,DL
         3 003500   000002 772000                    QRL     2
         3 003501   200036 756100                    STQ     X,,AUTO
         3 003502   003522 710000 3                  TRA     s:15375

      785    15373    1       ELSE
      786    15374    1           X = (LL_HEAD.VDPGS + LL_HEAD.VPPGS + (LL_HEAD.ROSIZE + LL_PAGESIZE - 1)/
             15374                    LL_PAGESIZE+3)/4;

  15374  3 003503   000010 236000 xsym               LDQ     LL_HEAD+8
         3 003504   777777 376007                    ANQ     -1,DL
         3 003505   000377 036007                    ADLQ    255,DL
         3 003506   000010 772000                    QRL     8
         3 003507   200054 756100                    STQ     CHAR2+2,,AUTO
         3 003510   000001 236000 xsym               LDQ     LL_HEAD+1
         3 003511   000026 772000                    QRL     22
         3 003512   200055 756100                    STQ     CHAR2+3,,AUTO
         3 003513   000002 236000 xsym               LDQ     LL_HEAD+2
         3 003514   000026 772000                    QRL     22
         3 003515   200055 036100                    ADLQ    CHAR2+3,,AUTO
         3 003516   200054 036100                    ADLQ    CHAR2+2,,AUTO
         3 003517   000003 036007                    ADLQ    3,DL
PL6.E3A0      #001=LLA$MAIN File=LLA$MAIN.:E05TSI                                WED 07/30/97 03:10 Page:132
         3 003520   000002 772000                    QRL     2
         3 003521   200036 756100                    STQ     X,,AUTO

      787    15375    1       CALL BINCHAR(KSTR,X);

  15375  3 003522   000000 235003                    LDA     0,DU
         3 003523   200054 757100                    STAQ    CHAR2+2,,AUTO
         3 003524   000100 301500                    BTD
         3 003525   200054 000010                    NDSC9   CHAR2+2,,AUTO            cn=0,s=lsgnf,sf=0,n=8
         3 003526   200014 030004                    NDSC9   KSTR,,AUTO               cn=0,s=nosgn,sf=0,n=4

      788    15376    2       DO I = 0 TO 3;

  15376  3 003527   200022 450100                    STZ     I,,AUTO

      789    15377    2           IF (PINCRC(ADDR(KSTR),I)->BLANK = '0')

  15377  3 003530   200022 235100                    LDA     I,,AUTO
         3 003531   040000 106505                    CMPC    fill='040'O
         3 003532   200014 000001                    ADSC9   KSTR,A,AUTO              cn=0,n=1
         3 003533   000066 000001 4                  ADSC9   54                       cn=0,n=1
         3 003534   003541 601000 3                  TNZ     s:15380

      790    15378    2           THEN PINCRC(ADDR(KSTR),I)->BLANK = ' ';

  15378  3 003535   040105 100400                    MLR     fill='040'O
         3 003536   000035 000001 xsym               ADSC9   B_VECTNIL+29             cn=0,n=1
         3 003537   200014 000001                    ADSC9   KSTR,A,AUTO              cn=0,n=1
         3 003540   003543 710000 3                  TRA     s:15381

      791    15379    2           ELSE
      792    15380    2               I = 3;

  15380  3 003541   000003 236007                    LDQ     3,DL
         3 003542   200022 756100                    STQ     I,,AUTO

      793    15381    2           END;
PL6.E3A0      #001=LLA$MAIN File=LLA$MAIN.:E05TSI                                WED 07/30/97 03:10 Page:133

  15381  3 003543   200022 235100                    LDA     I,,AUTO
         3 003544   000001 035007                    ADLA    1,DL
         3 003545   200022 755100                    STA     I,,AUTO
         3 003546   000004 115007                    CMPA    4,DL
         3 003547   003530 602000 3                  TNC     s:15377

      794    15382    1       CALL CONCAT(LL_LOBUF,'A  * Total program size = ',KSTR,'K.');

  15382  3 003550   040000 100400                    MLR     fill='040'O
         3 003551   000577 000032 2                  ADSC9   B$RUBIRTHKEY+383         cn=0,n=26
         3 003552   000000 000032 xsym               ADSC9   LL_LOBUF                 cn=0,n=26
         3 003553   040000 100500                    MLR     fill='040'O
         3 003554   200014 000004                    ADSC9   KSTR,,AUTO               cn=0,n=4
         3 003555   000006 400004 xsym               ADSC9   LL_LOBUF+6               cn=2,n=4
         3 003556   040000 100400                    MLR     fill='040'O
         3 003557   000606 000002 2                  ADSC9   B$RUBIRTHKEY+390         cn=0,n=2
         3 003560   000007 400122 xsym               ADSC9   LL_LOBUF+7               cn=2,n=82

      795    15383    1       CALL LLM$MON_SVC(LL#WRITELO);

  15383  3 003561   000010 630400 4                  EPPR0   8
         3 003562   000017 631400 xsym               EPPR1   B_VECTNIL+15
         3 003563   000000 701000 xent               TSX1    LLM$MON_SVC
         3 003564   000000 011000                    NOP     0

      796    15384    1       CALL LLS$SATREF ( ADDR(NIL),0,ADDR(NIL),0,0,

  15384  3 003565   000001 236000 xsym               LDQ     B_VECTNIL+1
         3 003566   200054 756100                    STQ     CHAR2+2,,AUTO
         3 003567   200055 756100                    STQ     CHAR2+3,,AUTO
         3 003570   200056 756100                    STQ     CHAR2+4,,AUTO
         3 003571   200057 756100                    STQ     CHAR2+5,,AUTO
         3 003572   200060 756100                    STQ     CHAR2+6,,AUTO
         3 003573   200060 630500                    EPPR0   CHAR2+6,,AUTO
         3 003574   200071 450500                    STP0    CHAR2+15,,AUTO
         3 003575   200057 631500                    EPPR1   CHAR2+5,,AUTO
PL6.E3A0      #001=LLA$MAIN File=LLA$MAIN.:E05TSI                                WED 07/30/97 03:10 Page:134
         3 003576   200070 451500                    STP1    CHAR2+14,,AUTO
         3 003577   200056 633500                    EPPR3   CHAR2+4,,AUTO
         3 003600   200067 453500                    STP3    CHAR2+13,,AUTO
         3 003601   000000 236000 4                  LDQ     0
         3 003602   200066 756100                    STQ     CHAR2+12,,AUTO
         3 003603   200065 756100                    STQ     CHAR2+11,,AUTO
         3 003604   200055 634500                    EPPR4   CHAR2+3,,AUTO
         3 003605   200064 454500                    STP4    CHAR2+10,,AUTO
         3 003606   200063 756100                    STQ     CHAR2+9,,AUTO
         3 003607   200054 635500                    EPPR5   CHAR2+2,,AUTO
         3 003610   200062 455500                    STP5    CHAR2+8,,AUTO
         3 003611   200062 630500                    EPPR0   CHAR2+8,,AUTO
         3 003612   000026 631400 xsym               EPPR1   B_VECTNIL+22
         3 003613   000000 701000 xent               TSX1    LLS$SATREF
         3 003614   000000 011000                    NOP     0

      797    15385    1          ADDR(NIL),ADDR(NIL),ADDR(NIL));
      798    15386    1       IF (LL_HEAD.SEV > LL_VAL_SL) THEN CALL LLM$MON_SVC (LL#ERR);

  15386  3 003615   000003 236000 xsym               LDQ     LL_HEAD+3
         3 003616   000033 772000                    QRL     27
         3 003617   000000 116000 xsym               CMPQ    LL_VAL_SL
         3 003620   003626 602000 3                  TNC     s:15387
         3 003621   003626 600000 3                  TZE     s:15387

  15386  3 003622   000064 630400 4                  EPPR0   52
         3 003623   000017 631400 xsym               EPPR1   B_VECTNIL+15
         3 003624   000000 701000 xent               TSX1    LLM$MON_SVC
         3 003625   000000 011000                    NOP     0

      799    15387    1       CALL LLM$MON_SVC (LL#WRITERU, ADDR(LL_HEAD), SIZEC(LL_HEAD)-1, B$RUHEADKEY);

  15387  3 003626   000036 236000 4                  LDQ     30
         3 003627   200054 756100                    STQ     CHAR2+2,,AUTO
         3 003630   000070 237000 4                  LDAQ    56
         3 003631   200060 757100                    STAQ    CHAR2+6,,AUTO
         3 003632   200054 630500                    EPPR0   CHAR2+2,,AUTO
PL6.E3A0      #001=LLA$MAIN File=LLA$MAIN.:E05TSI                                WED 07/30/97 03:10 Page:135
         3 003633   200057 450500                    STP0    CHAR2+5,,AUTO
         3 003634   000072 236000 4                  LDQ     58
         3 003635   200056 756100                    STQ     CHAR2+4,,AUTO
         3 003636   200056 630500                    EPPR0   CHAR2+4,,AUTO
         3 003637   000022 631400 xsym               EPPR1   B_VECTNIL+18
         3 003640   000000 701000 xent               TSX1    LLM$MON_SVC
         3 003641   000000 011000                    NOP     0

      800    15388    1       IF LL_FLAGS.VECTOR#

  15388  3 003642   000000 236000 xsym               LDQ     LL_FLAGS
         3 003643   000200 316007                    CANQ    128,DL
         3 003644   003652 600000 3                  TZE     s:15394

      801    15389    1       THEN
      802    15390    2       DO;

      803    15391    2           LL_BOTOMEM$ = PCB.TEXT$;

  15391  3 003645   000000 236000 1                  LDQ     PCB
         3 003646   000000 756000 xsym               STQ     LL_BOTOMEM$

      804    15392    2           CALL LLT$FINISH_VECTOR;

  15392  3 003647   000002 631400 xsym               EPPR1   B_VECTNIL+2
         3 003650   000000 701000 xent               TSX1    LLT$FINISH_VECTOR
         3 003651   000000 011000                    NOP     0

      805    15393    2           END;

      806    15394    1       CALL LLM$MON_SVC (LL#CLOSERU);

  15394  3 003652   000074 630400 4                  EPPR0   60
         3 003653   000017 631400 xsym               EPPR1   B_VECTNIL+15
         3 003654   000000 701000 xent               TSX1    LLM$MON_SVC
         3 003655   000000 011000                    NOP     0

PL6.E3A0      #001=LLA$MAIN File=LLA$MAIN.:E05TSI                                WED 07/30/97 03:10 Page:136
      807    15395    1       CALL LLM$MON_SVC (LL#OPENRUIN);

  15395  3 003656   000034 630400 4                  EPPR0   28
         3 003657   000017 631400 xsym               EPPR1   B_VECTNIL+15
         3 003660   000000 701000 xent               TSX1    LLM$MON_SVC
         3 003661   000000 011000                    NOP     0

      808    15396    1       IF (LL_FLAGS.MAP#) THEN CALL LLD$MAP (PCB.TEXT$);

  15396  3 003662   000000 236000 xsym               LDQ     LL_FLAGS
         3 003663   004000 316003                    CANQ    2048,DU
         3 003664   003671 600000 3                  TZE     s:15397

  15396  3 003665   000001 630400 4                  EPPR0   1
         3 003666   000017 631400 xsym               EPPR1   B_VECTNIL+15
         3 003667   000000 701000 xent               TSX1    LLD$MAP
         3 003670   000000 011000                    NOP     0

      809    15397    1       CALL LLM$MON_SVC (LL#EXIT);

  15397  3 003671   000044 630400 4                  EPPR0   36
         3 003672   000017 631400 xsym               EPPR1   B_VECTNIL+15
         3 003673   000000 701000 xent               TSX1    LLM$MON_SVC
         3 003674   000000 011000                    NOP     0

      810    15398    1   SYN_ERR:
      811    15399    2       DO CASE (PCB.ERROR.CODE);

  15399  3 003675   000006 236000 1     SYN_ERR      LDQ     PCB+6
         3 003676   000003 772000                    QRL     3
         3 003677   037777 376007                    ANQ     16383,DL
         3 003700   000006 116007                    CMPQ    6,DL
         3 003701   003703 602006 3                  TNC     SYN_ERR+6,QL
         3 003702   004131 710000 3                  TRA     s:15446
         3 003703   003711 710000 3                  TRA     s:15401
         3 003704   003730 710000 3                  TRA     s:15406
         3 003705   004131 710000 3                  TRA     s:15446
PL6.E3A0      #001=LLA$MAIN File=LLA$MAIN.:E05TSI                                WED 07/30/97 03:10 Page:137
         3 003706   004131 710000 3                  TRA     s:15446
         3 003707   004110 710000 3                  TRA     s:15441
         3 003710   004110 710000 3                  TRA     s:15441

      812    15400    2       CASE (0);

      813    15401    2           CALL LLM$MON_SVC (LL#UNFIDSI);

  15401  3 003711   000076 630400 4                  EPPR0   62
         3 003712   000017 631400 xsym               EPPR1   B_VECTNIL+15
         3 003713   000000 701000 xent               TSX1    LLM$MON_SVC
         3 003714   000000 011000                    NOP     0

      814    15402    2           CALL INSERT (LL_DOBUF,0,,

  15402  3 003715   040000 100400                    MLR     fill='040'O
         3 003716   000607 000040 2                  ADSC9   B$RUBIRTHKEY+391         cn=0,n=32
         3 003717   000000 000040 xsym               ADSC9   LL_DOBUF                 cn=0,n=32
         3 003720   040000 100400                    MLR     fill='040'O
         3 003721   000000 000064 xsym               ADSC9   LL_OPENFID               cn=0,n=52
         3 003722   000010 000120 xsym               ADSC9   LL_DOBUF+8               cn=0,n=80

      815    15403    2              'A  ***I/O error on command file ', LL_OPENFID);
      816    15404    2           CALL LLM$MON_SVC (LL#CLOSESI);

  15404  3 003723   000021 630400 4                  EPPR0   17
         3 003724   000017 631400 xsym               EPPR1   B_VECTNIL+15
         3 003725   000000 701000 xent               TSX1    LLM$MON_SVC
         3 003726   000000 011000                    NOP     0
         3 003727   004134 710000 3                  TRA     s:15448

      817    15405    2       CASE (%E$SYNERR);

      818    15406    3           IF PCB.HI_CHAR >= 5 THEN DO;

  15406  3 003730   000012 235000 1                  LDA     PCB+10
         3 003731   000005 115007                    CMPA    5,DL
PL6.E3A0      #001=LLA$MAIN File=LLA$MAIN.:E05TSI                                WED 07/30/97 03:10 Page:138
         3 003732   003741 602000 3                  TNC     s:15411

      819    15407    3               LO_LEN = 5;

  15407  3 003733   000005 235007                    LDA     5,DL
         3 003734   200010 755100                    STA     LO_LEN,,AUTO

      820    15408    3               LO_START = PCB.HI_CHAR - 5;

  15408  3 003735   000012 235000 1                  LDA     PCB+10
         3 003736   000005 135007                    SBLA    5,DL
         3 003737   200012 755100                    STA     LO_START,,AUTO

      821    15409    3               END;

  15409  3 003740   003744 710000 3                  TRA     s:15414

      822    15410    3           ELSE DO;

      823    15411    3               LO_LEN = PCB.HI_CHAR - 1;

  15411  3 003741   000001 135007                    SBLA    1,DL
         3 003742   200010 755100                    STA     LO_LEN,,AUTO

      824    15412    3               LO_START = 0;

  15412  3 003743   200012 450100                    STZ     LO_START,,AUTO

      825    15413    3               END;

      826    15414    3           IF PCB.NCHARS - PCB.HI_CHAR >= 5 THEN DO;

  15414  3 003744   000011 236000 1                  LDQ     PCB+9
         3 003745   000012 136000 1                  SBLQ    PCB+10
         3 003746   000005 116007                    CMPQ    5,DL
         3 003747   003755 604000 3                  TMI     s:15419

PL6.E3A0      #001=LLA$MAIN File=LLA$MAIN.:E05TSI                                WED 07/30/97 03:10 Page:139
      827    15415    3               HI_LEN = 5;

  15415  3 003750   000005 235007                    LDA     5,DL
         3 003751   200011 755100                    STA     HI_LEN,,AUTO

      828    15416    3               HI_START = PCB.HI_CHAR;

  15416  3 003752   000012 236000 1                  LDQ     PCB+10
         3 003753   200013 756100                    STQ     HI_START,,AUTO

      829    15417    3               END;

  15417  3 003754   003762 710000 3                  TRA     s:15422

      830    15418    3           ELSE DO;

      831    15419    3               HI_LEN = PCB.NCHARS - PCB.HI_CHAR;

  15419  3 003755   000011 236000 1                  LDQ     PCB+9
         3 003756   000012 136000 1                  SBLQ    PCB+10
         3 003757   200011 756100                    STQ     HI_LEN,,AUTO

      832    15420    3               HI_START = PCB.HI_CHAR;

  15420  3 003760   000012 235000 1                  LDA     PCB+10
         3 003761   200013 755100                    STA     HI_START,,AUTO

      833    15421    3               END;

      834    15422    2           ERR_TXT = ' ';

  15422  3 003762   040100 100400                    MLR     fill='040'O
         3 003763   000035 000001 xsym               ADSC9   B_VECTNIL+29             cn=0,n=1
         3 003764   200004 000015                    ADSC9   ERR_TXT,,AUTO            cn=0,n=13

      835    15423    2           CALL CONCAT ( ERR_TXT,

PL6.E3A0      #001=LLA$MAIN File=LLA$MAIN.:E05TSI                                WED 07/30/97 03:10 Page:140
  15423  3 003765   000000 470400 1                  LDP0    PCB
         3 003766   200010 720100                    LXL0    LO_LEN,,AUTO
         3 003767   200012 235100                    LDA     LO_START,,AUTO
         3 003770   040100 100545                    MLR     fill='040'O
         3 003771   000000 000010                    ADSC9   0,A,PR0                  cn=0,n=*X0
         3 003772   200004 000015                    ADSC9   ERR_TXT,,AUTO            cn=0,n=13
         3 003773   200010 236100                    LDQ     LO_LEN,,AUTO
         3 003774   000015 116007                    CMPQ    13,DL
         3 003775   004014 603000 3                  TRC     s:15427
         3 003776   777762 621006                    EAX1    -14,QL
         3 003777   777777 661003                    ERX1    -1,DU
         3 004000   040146 100400                    MLR     fill='040'O
         3 004001   000617 000003 2                  ADSC9   B$RUBIRTHKEY+399         cn=0,n=3
         3 004002   200004 000011                    ADSC9   ERR_TXT,Q,AUTO           cn=0,n=*X1
         3 004003   000012 116007                    CMPQ    10,DL
         3 004004   004014 603000 3                  TRC     s:15427
         3 004005   777765 622006                    EAX2    -11,QL
         3 004006   777777 662003                    ERX2    -1,DU
         3 004007   200011 723100                    LXL3    HI_LEN,,AUTO
         3 004010   200013 235100                    LDA     HI_START,,AUTO
         3 004011   040146 100545                    MLR     fill='040'O
         3 004012   000000 000013                    ADSC9   0,A,PR0                  cn=0,n=*X3
         3 004013   200004 600012                    ADSC9   ERR_TXT,Q,AUTO           cn=3,n=*X2

      836    15424    2              SUBSTR ( PCB.TEXT$->TXT, LO_START, LO_LEN ),
      837    15425    2              '<?>',
      838    15426    2              SUBSTR ( PCB.TEXT$->TXT, HI_START, HI_LEN ) );
      839    15427    2           I = 0;

  15427  3 004014   200022 450100                    STZ     I,,AUTO

      840    15428    2           TPTR$ = ADDR(CHAR_STR);

  15428  3 004015   200037 631500                    EPPR1   CHAR_STR,,AUTO
         3 004016   200016 451500                    STP1    TPTR$,,AUTO

      841    15429    2           CALL BINCHAR (CHAR_STR, PCB.HI_CHAR);
PL6.E3A0      #001=LLA$MAIN File=LLA$MAIN.:E05TSI                                WED 07/30/97 03:10 Page:141

  15429  3 004017   000012 235000 1                  LDA     PCB+10
         3 004020   000044 773000                    LRL     36
         3 004021   200054 757100                    STAQ    CHAR2+2,,AUTO
         3 004022   000100 301500                    BTD
         3 004023   200054 000010                    NDSC9   CHAR2+2,,AUTO            cn=0,s=lsgnf,sf=0,n=8
         3 004024   200037 030005                    NDSC9   CHAR_STR,,AUTO           cn=0,s=nosgn,sf=0,n=5

      842    15430    3           DO WHILE (I < 4 AND TPTR$ -> CHAR_ARY(I) = '0');

  15430  3 004025   004031 710000 3                  TRA     s:15432

      843    15431    3               I = I + 1;

  15431  3 004026   200022 235100                    LDA     I,,AUTO
         3 004027   000001 035007                    ADLA    1,DL
         3 004030   200022 755100                    STA     I,,AUTO

      844    15432    3               END;

  15432  3 004031   200022 235100                    LDA     I,,AUTO
         3 004032   000004 115007                    CMPA    4,DL
         3 004033   004041 603000 3                  TRC     s:15433
         3 004034   200016 470500                    LDP0    TPTR$,,AUTO
         3 004035   040000 106505                    CMPC    fill='040'O
         3 004036   000000 000001                    ADSC9   0,A,PR0                  cn=0,n=1
         3 004037   000066 000001 4                  ADSC9   54                       cn=0,n=1
         3 004040   004026 600000 3                  TZE     s:15431

      845    15433    2           TPTR$ = PINCRC (TPTR$, I);

  15433  3 004041   200022 236100                    LDQ     I,,AUTO
         3 004042   000020 736000                    QLS     16
         3 004043   200016 036100                    ADLQ    TPTR$,,AUTO
         3 004044   200016 756100                    STQ     TPTR$,,AUTO

      846    15434    2           LL_SPECFID.COUNT = 5 - I;
PL6.E3A0      #001=LLA$MAIN File=LLA$MAIN.:E05TSI                                WED 07/30/97 03:10 Page:142

  15434  3 004045   000005 236007                    LDQ     5,DL
         3 004046   200022 136100                    SBLQ    I,,AUTO
         3 004047   000033 736000                    QLS     27
         3 004050   000000 552040 xsym               STBQ    LL_SPECFID,'40'O

      847    15435    2           LL_SPECFID.NAME = TPTR$ -> B_CHAR_STR;

  15435  3 004051   200016 470500                    LDP0    TPTR$,,AUTO
         3 004052   040000 100500                    MLR     fill='040'O
         3 004053   000000 000005                    ADSC9   0,,PR0                   cn=0,n=5
         3 004054   000000 200064 xsym               ADSC9   LL_SPECFID               cn=1,n=52

      848    15436    2           TPTR$ = ADDR(LL_SPECFID);

  15436  3 004055   000077 236000 4                  LDQ     63
         3 004056   200016 756100                    STQ     TPTR$,,AUTO

      849    15437    2           CALL INSERT (LL_DOBUF,0,,

  15437  3 004057   200016 470500                    LDP0    TPTR$,,AUTO
         3 004060   000000 236100                    LDQ     0,,PR0
         3 004061   000033 772000                    QRL     27
         3 004062   040000 100400                    MLR     fill='040'O
         3 004063   000620 000026 2                  ADSC9   B$RUBIRTHKEY+400         cn=0,n=22
         3 004064   000000 000026 xsym               ADSC9   LL_DOBUF                 cn=0,n=22
         3 004065   000000 620006                    EAX0    0,QL
         3 004066   040000 100540                    MLR     fill='040'O
         3 004067   000000 200010                    ADSC9   0,,PR0                   cn=1,n=*X0
         3 004070   000005 400132 xsym               ADSC9   LL_DOBUF+5               cn=2,n=90
         3 004071   000132 116007                    CMPQ    90,DL
         3 004072   004107 603000 3                  TRC     s:15437+24
         3 004073   777645 620006                    EAX0    -91,QL
         3 004074   777777 660003                    ERX0    -1,DU
         3 004075   040046 100400                    MLR     fill='040'O
         3 004076   000626 000003 2                  ADSC9   B$RUBIRTHKEY+406         cn=0,n=3
         3 004077   000005 400010 xsym               ADSC9   LL_DOBUF+5,Q             cn=2,n=*X0
PL6.E3A0      #001=LLA$MAIN File=LLA$MAIN.:E05TSI                                WED 07/30/97 03:10 Page:143
         3 004100   000127 116007                    CMPQ    87,DL
         3 004101   004107 603000 3                  TRC     s:15437+24
         3 004102   777650 620006                    EAX0    -88,QL
         3 004103   777777 660003                    ERX0    -1,DU
         3 004104   040046 100500                    MLR     fill='040'O
         3 004105   200004 000015                    ADSC9   ERR_TXT,,AUTO            cn=0,n=13
         3 004106   000006 200010 xsym               ADSC9   LL_DOBUF+6,Q             cn=1,n=*X0
         3 004107   004134 710000 3                  TRA     s:15448

      850    15438    2              'A  ***Syntax error at ', TPTR$ -> TEXT.NAME,
      851    15439    2              ':  ', ERR_TXT );
      852    15440    2       CASE (%E$WKOVERFLOW,%E$SMALLWORK);

      853    15441    2           PCB.WKSZ = PCB.WKSZ + 1024;

  15441  3 004110   000005 220000 1                  LDX0    PCB+5
         3 004111   002000 621010                    EAX1    1024,X0
         3 004112   000005 741000 1                  STX1    PCB+5

      854    15442    2           TEMP = PCB.WKSZ;

  15442  3 004113   000005 235000 1                  LDA     PCB+5
         3 004114   000022 771000                    ARL     18
         3 004115   200023 755100                    STA     TEMP,,AUTO

      855    15443    2           CALL LLM$MON_SVC (LL#GETMEM, TEMP, PCB.WORK$);

  15443  3 004116   000020 236000 4                  LDQ     16
         3 004117   200056 756100                    STQ     CHAR2+4,,AUTO
         3 004120   200023 630500                    EPPR0   TEMP,,AUTO
         3 004121   200055 450500                    STP0    CHAR2+3,,AUTO
         3 004122   000014 236000 4                  LDQ     12
         3 004123   200054 756100                    STQ     CHAR2+2,,AUTO
         3 004124   200054 630500                    EPPR0   CHAR2+2,,AUTO
         3 004125   000021 631400 xsym               EPPR1   B_VECTNIL+17
         3 004126   000000 701000 xent               TSX1    LLM$MON_SVC
         3 004127   000000 011000                    NOP     0
PL6.E3A0      #001=LLA$MAIN File=LLA$MAIN.:E05TSI                                WED 07/30/97 03:10 Page:144

      856    15444    2           GOTO PARSE;

  15444  3 004130   000221 710000 3                  TRA     PARSE

      857    15445    2       CASE (ELSE);

      858    15446    2           LL_DOBUF = 'A  ***Internal linker/parser problem:  BUG!';

  15446  3 004131   040000 100400                    MLR     fill='040'O
         3 004132   000627 000053 2                  ADSC9   B$RUBIRTHKEY+407         cn=0,n=43
         3 004133   000000 000160 xsym               ADSC9   LL_DOBUF                 cn=0,n=112

      859    15447    2           END;

      860    15448    1       CALL LLM$MON_SVC (LL#FREEMEM);

  15448  3 004134   000100 630400 4                  EPPR0   64
         3 004135   000017 631400 xsym               EPPR1   B_VECTNIL+15
         3 004136   000000 701000 xent               TSX1    LLM$MON_SVC
         3 004137   000000 011000                    NOP     0

      861    15449    1       CALL LLM$MON_SVC (LL#WRITEDO);

  15449  3 004140   000051 630400 4                  EPPR0   41
         3 004141   000017 631400 xsym               EPPR1   B_VECTNIL+15
         3 004142   000000 701000 xent               TSX1    LLM$MON_SVC
         3 004143   000000 011000                    NOP     0

      862    15450    1       CALL LLM$MON_SVC (LL#ERR);

  15450  3 004144   000064 630400 4                  EPPR0   52
         3 004145   000017 631400 xsym               EPPR1   B_VECTNIL+15
         3 004146   000000 701000 xent               TSX1    LLM$MON_SVC
         3 004147   000000 011000                    NOP     0
         3 004150   004245 710000 3                  TRA     s:15475

PL6.E3A0      #001=LLA$MAIN File=LLA$MAIN.:E05TSI                                WED 07/30/97 03:10 Page:145
      863    15451        %EJECT;
PL6.E3A0      #001=LLA$MAIN File=LLA$MAIN.:E05TSI                                WED 07/30/97 03:10 Page:146
      864    15452    1   LLA$SAY_SEV: PROC;

  15452  3 004151   200050 741300       LLA$SAY_SEV  STX1  ! SIZE+2,,AUTO

      865    15453         /**/
      866    15454    2   DCL CHAR1 CHAR(1) ALIGNED;
      867    15455    2   DCL CHAR2 CHAR(2) ALIGNED;
      868    15456         /**/
      869    15457    3       DO CASE (LL_HEAD.SEV);

  15457  3 004152   000003 236000 xsym               LDQ     LL_HEAD+3
         3 004153   000033 772000                    QRL     27
         3 004154   000021 116007                    CMPQ    17,DL
         3 004155   004157 602006 3                  TNC     s:15457+5,QL
         3 004156   004224 710000 3                  TRA     s:15468
         3 004157   004200 710000 3                  TRA     s:15459
         3 004160   004224 710000 3                  TRA     s:15468
         3 004161   004224 710000 3                  TRA     s:15468
         3 004162   004224 710000 3                  TRA     s:15468
         3 004163   004224 710000 3                  TRA     s:15468
         3 004164   004224 710000 3                  TRA     s:15468
         3 004165   004224 710000 3                  TRA     s:15468
         3 004166   004224 710000 3                  TRA     s:15468
         3 004167   004224 710000 3                  TRA     s:15468
         3 004170   004224 710000 3                  TRA     s:15468
         3 004171   004204 710000 3                  TRA     s:15461
         3 004172   004204 710000 3                  TRA     s:15461
         3 004173   004204 710000 3                  TRA     s:15461
         3 004174   004204 710000 3                  TRA     s:15461
         3 004175   004204 710000 3                  TRA     s:15461
         3 004176   004204 710000 3                  TRA     s:15461
         3 004177   004220 710000 3                  TRA     s:15466

      870    15458    3       CASE (0);

      871    15459    3           LL_DOBUF = 'A  * No linking errors.';

PL6.E3A0      #001=LLA$MAIN File=LLA$MAIN.:E05TSI                                WED 07/30/97 03:10 Page:147
  15459  3 004200   040000 100400                    MLR     fill='040'O
         3 004201   000642 000027 2                  ADSC9   B$RUBIRTHKEY+418         cn=0,n=23
         3 004202   000000 000160 xsym               ADSC9   LL_DOBUF                 cn=0,n=112
         3 004203   004237 710000 3                  TRA     s:15473

      872    15460    3       CASE (10,11,12,13,14,15);

      873    15461    3           CALL BINCHAR ( CHAR2, LL_HEAD.SEV);

  15461  3 004204   000000 235003                    LDA     0,DU
         3 004205   200054 757100                    STAQ    CHAR2+2,,AUTO
         3 004206   000100 301500                    BTD
         3 004207   200054 000010                    NDSC9   CHAR2+2,,AUTO            cn=0,s=lsgnf,sf=0,n=8
         3 004210   200052 030002                    NDSC9   CHAR2,,AUTO              cn=0,s=nosgn,sf=0,n=2

      874    15462    3           CALL INSERT (LL_DOBUF,0,,

  15462  3 004211   040000 100400                    MLR     fill='040'O
         3 004212   000650 000025 2                  ADSC9   B$RUBIRTHKEY+424         cn=0,n=21
         3 004213   000000 000025 xsym               ADSC9   LL_DOBUF                 cn=0,n=21
         3 004214   040000 100500                    MLR     fill='040'O
         3 004215   200052 000002                    ADSC9   CHAR2,,AUTO              cn=0,n=2
         3 004216   000005 200133 xsym               ADSC9   LL_DOBUF+5               cn=1,n=91
         3 004217   004237 710000 3                  TRA     s:15473

      875    15463    3              'A  ***Error severity ',
      876    15464    3              CHAR2);
      877    15465    3       CASE (16);

      878    15466    3           LL_DOBUF = 'A  ***Fatal linking errors occured.';

  15466  3 004220   040000 100400                    MLR     fill='040'O
         3 004221   000656 000043 2                  ADSC9   B$RUBIRTHKEY+430         cn=0,n=35
         3 004222   000000 000160 xsym               ADSC9   LL_DOBUF                 cn=0,n=112
         3 004223   004237 710000 3                  TRA     s:15473

      879    15467    3       CASE (ELSE);
PL6.E3A0      #001=LLA$MAIN File=LLA$MAIN.:E05TSI                                WED 07/30/97 03:10 Page:148

      880    15468    3           CALL BINCHAR ( CHAR1, LL_HEAD.SEV);

  15468  3 004224   000000 235003                    LDA     0,DU
         3 004225   200054 757100                    STAQ    CHAR2+2,,AUTO
         3 004226   000100 301500                    BTD
         3 004227   200054 000010                    NDSC9   CHAR2+2,,AUTO            cn=0,s=lsgnf,sf=0,n=8
         3 004230   200051 030001                    NDSC9   CHAR1,,AUTO              cn=0,s=nosgn,sf=0,n=1

      881    15469    3           CALL INSERT (LL_DOBUF,0,,

  15469  3 004231   040000 100400                    MLR     fill='040'O
         3 004232   000650 000025 2                  ADSC9   B$RUBIRTHKEY+424         cn=0,n=21
         3 004233   000000 000025 xsym               ADSC9   LL_DOBUF                 cn=0,n=21
         3 004234   040000 100500                    MLR     fill='040'O
         3 004235   200051 000001                    ADSC9   CHAR1,,AUTO              cn=0,n=1
         3 004236   000005 200133 xsym               ADSC9   LL_DOBUF+5               cn=1,n=91

      882    15470    3              'A  ***Error severity ',
      883    15471    3              CHAR1);
      884    15472    3           END;

      885    15473    2       CALL LLM$MON_SVC (LL#WRITEDO);

  15473  3 004237   000051 630400 4                  EPPR0   41
         3 004240   000017 631400 xsym               EPPR1   B_VECTNIL+15
         3 004241   000000 701000 xent               TSX1    LLM$MON_SVC
         3 004242   000000 011000                    NOP     0

      886    15474    2   END LLA$SAY_SEV;

  15474  3 004243   200050 221300                    LDX1  ! SIZE+2,,AUTO
         3 004244   000001 702211                    TSX2  ! 1,X1

      887    15475    1   END LLA$MAIN;

  15475  3 004245   000000 702200 xent               TSX2  ! X66_MARET
PL6.E3A0      #001=LLA$MAIN File=LLA$MAIN.:E05TSI                                WED 07/30/97 03:10 Page:149

PL6.E3A0      #001=LLA$MAIN File=LLA$MAIN.:E05TSI                                WED 07/30/97 03:10 Page:150
--  Include file information  --

   LL_MACS_C.:E05TOU  is referenced.
   LL_SUBS_C.:E05TOU  is referenced.
   LL_DATA_R.:E05TOU  cannot be made into a system file and is referenced.
   CP_6_C.:E05TOU  is referenced.
   CP_6.:E05TOU  cannot be made into a system file and is referenced.
   CP_6_SUBS.:E05TOU  is referenced.
   B$JIT_C.:E05TOU  is referenced.
   U$JIT_C.:E05TOU  cannot be made into a system file and is referenced.
   B$OBJECT_C.:E05TOU  is referenced.
   XU_PERR_C.:E05TOU  is referenced.
   XU_SUBS_C.:E05TOU  is referenced.
   XU_MACRO_C.:E05TOU  is referenced.
      No diagnostics issued in procedure LLA$MAIN.
PL6.E3A0      #001=LLA$MAIN File=LLA$MAIN.:E05TSI                                WED 07/30/97 03:10 Page:151

 **** Variables and constants ****

  ****  Section 001  Data  LLA$MAIN

  ****  Scalars and arrays  ****
OctLoc.c.b A Datatyp(siz) R M Lvl/name                 OctLoc.c.b A Datatyp(siz) R M Lvl/name

   145-0-0/w UBIN(9)     r     1 ASN                       16-0-0/w STRC(45)    r     1 B$RUHEADKEY
   132-0-0/d STRC(324)   r     1 FID_RESULTS               70-0-0/d STRC(864)   r     1 FPT_FID
   166-0-0/w STRC(45)    r     1 HEADKEY                   20-0-0/w STRC(1422)  r     1 LL_SRCH
     0-0-0/w STRC(504)   r     1 PCB                      144-0-0/w CHAR(4)     r     1 RES
   146-0-0/w CHAR(64)    r     1 TEXTFID                  120-0-0/c STRC(72)    r     1 VLP_ACCT
   122-0-0/c STRC(72)    r     1 VLP_PASS                 126-0-0/d STRC(90)    r     1 VLP_SN
   124-0-0/c STRC(72)    r     1 VLP_WSN

  ****  Section 002 RoData LLA$MAIN

  ****  Scalars and arrays  ****
OctLoc.c.b A Datatyp(siz) R M Lvl/name                 OctLoc.c.b A Datatyp(siz) R M Lvl/name

     0-0-0/w STRC(54)    r     1 B$RUBIRTHKEY

  ****  Auto variables  ****

  ****  Scalars and arrays  ****
OctLoc.c.b A Datatyp(siz) R M Lvl/name                 OctLoc.c.b A Datatyp(siz) R M Lvl/name

    43-0-0/w PTR         r     1 AVAIL$                    51-0-0/w CHAR        r     1 CHAR1
    52-0-0/w CHAR(2)     r     1 CHAR2                     37-0-0/w CHAR(5)     r     1 CHAR_STR
    20-0-0/w UBIN        r     1 EDIT_KEY                   4-0-0/w CHAR(13)    r     1 ERR_TXT
    11-0-0/w UBIN        r     1 HI_LEN                    13-0-0/w UBIN        r     1 HI_START
    22-0-0/w UBIN        r     1 I                         14-0-0/c CHAR(4)     r     1 KSTR
    17-0-0/w UBIN        r     1 LEN                       25-0-0/w SBIN        r     1 LOCK
    10-0-0/w UBIN        r     1 LO_LEN                    12-0-0/w UBIN        r     1 LO_START
    26-0-0/c CHAR(32)    r     1 NAME                      41-0-0/w PTR         r     1 NAME1$
    42-0-0/w PTR         r     1 NAME2$                    46-0-0/w UBIN        r     1 SIZE
    44-0-0/w UBIN        r     1 SIZEW1                    45-0-0/w UBIN        r     1 SIZEW2
PL6.E3A0      #001=LLA$MAIN File=LLA$MAIN.:E05TSI                                WED 07/30/97 03:10 Page:152
    23-0-0/w UBIN        r     1 TEMP                      24-0-0/w SBIN        r     1 TEMP1
    21-0-0/w UBIN        r     1 TLEN                      16-0-0/w PTR         r     1 TPTR$
    15-0-0/w PTR         r     1 TPTR1$                    36-0-0/w UBIN        r     1 X

  ****  SYMREF variables  ****

  ****  Scalars and arrays  ****
OctLoc.c.b A Datatyp(siz) R M Lvl/name                 OctLoc.c.b A Datatyp(siz) R M Lvl/name

     0-0-0/w PTR         r     1 B$JIT$                     0-0-0/w STRC(108)   r     1 B$RUBIRTH
     0-0-0/w UBIN        r     1 LLN$NODES                  0-0-0/w PTR         r     1 LL_BOTOMEM$
     0-0-0/w UBIN        r     1 LL_DATA_START              0-0-0/w CHAR(112)   r     1 LL_DOBUF
     0-0-0/w UBIN        r     1 LL_DPATCH                  0-0-0/w CHAR(52)    r     1 LL_FIRSTFID
     0-0-0/w STRC        r     1 LL_FLAGS                   0-0-0/w STRC(1440)  r     1 LL_HEAD
     0-0-0/w UBIN        r     1 LL_HEAD_VERSION            0-0-0/w UBIN        r     1 LL_IPATCH
     0-0-0/w CHAR(52)    r     1 LL_LASTFID                 0-0-0/w PTR         r     1 LL_LIST$
     0-0-0/w UBIN        r     1 LL_LIST_SIZE               0-0-0/w CHAR(112)   r     1 LL_LOBUF
     0-0-0/w UBIN        r     1 LL_LPROC_START             0-0-0/w UBIN        r     1 LL_NOU
     0-0-0/w PTR         r     1 LL_OF$                     0-0-0/w CHAR(52)    r     1 LL_OPENFID
     0-0-0/w UBIN        r     1 LL_PROC_START              0-0-0/w CHAR(52)    r     1 LL_RUNUNIT
     0-0-0/c CHAR(31)    r     1 LL_SLIB_NAME               0-0-0/w STRC(477)   r     1 LL_SPECFID
     0-0-0/w PTR         r     1 LL_START$                  0-0-0/w PTR         r     1 LL_TOPOMEM$
     0-0-0/w UBIN        r     1 LL_TYPE                    0-0-0/w SBIN        r     1 LL_VAL_BIAS
     0-0-0/w SBIN        r     1 LL_VAL_FLAVOR              0-0-0/w UBIN        r     1 LL_VAL_SL
     0-0-0/w UBIN        r     1 LL_VAL_START               0-0-0/w UBIN        r     1 LL_VECTOR_DATA
     0-0-0/c CHAR(31)    r     1 LL_VECTOR_RF               0-0-0/w STRC(63)    r     1 LL_VERSION

  ****  BASED and DCB variables  ****

  ****  Scalars and arrays  ****
OctLoc.c.b A Datatyp(siz) R M Lvl/name                 OctLoc.c.b A Datatyp(siz) R M Lvl/name

     0-0-0/w ASTR(18)    r     1 B$DNAME                    0-0-0/c CHAR        r     1 BLANK
     0-0-0/c CHAR(5)     r     1 B_CHAR_STR
     0-0-0/c CHAR        r     1 CHAR_ARY(0:0)
     0-0-0/c CHAR(256)   r     1 LINK_BUF
     0-0-0/c CHAR        r     1 LINK_CHAR(0:255)
PL6.E3A0      #001=LLA$MAIN File=LLA$MAIN.:E05TSI                                WED 07/30/97 03:10 Page:153
     0-0-0/w STRC(144)   r     1 OUT$BLK                    0-0-0/w ASTR(153)   r     1 OUT$SYM
     0-0-0/w STRC(504)   r     1 OU_FID(0:0)                0-0-0/w ASTR(9)     r     1 TEXT
     0-0-0/c CHAR(16383) r     1 TXT                        0-0-0/w STRC        r     1 VECTOR_LIST


   Procedure LLA$MAIN requires 2214 words for executable code.
   Procedure LLA$MAIN requires 58 words of local(AUTO) storage.

    No errors detected in file LLA$MAIN.:E05TSI    .
PL6.E3A0      #001=LLA$MAIN File=LLA$MAIN.:E05TSI                                WED 07/30/97 03:10 Page:154
          *** CROSS REFERENCE LISTING ***
**     DENOTES     IDENTIFIER DEFINITION
<<                 IDENTIFIER'S VALUE SET
>>                 IDENTIFIER'S VALUE USED
<>                 IDENTIFIER SET AND/OR USED
--                 IDENTIFIER REFERENCED
PL6.E3A0      #001=LLA$MAIN File=LLA$MAIN.:E05TSI                                WED 07/30/97 03:10 Page:155
          MINI XREF LISTING

ASN
     14621**DCL     14540--DCLINIT 15228>>IF
AVAIL$
     14675**DCL     14735<<ASSIGN  15053<>CALL    15055>>ASSIGN  15056>>ASSIGN  15057>>ASSIGN  15058<<ASSIGN
     15058>>ASSIGN  15074<>CALL    15076>>ASSIGN  15077>>ASSIGN  15078>>ASSIGN  15079<<ASSIGN  15079>>ASSIGN
     15080>>ASSIGN  15081>>ASSIGN  15081>>ASSIGN  15082<<ASSIGN  15082>>ASSIGN  15085>>ASSIGN  15086>>ASSIGN
     15086>>ASSIGN  15087<<ASSIGN  15087>>ASSIGN  15095>>ASSIGN
B$DNAME.COUNT
     14687**DCL     14694--IMP-SIZ 15080<<ASSIGN  15081>>ASSIGN  15085<<ASSIGN  15086>>ASSIGN
B$DNAME.TEXT
     14694**DCL     15081<<ASSIGN  15086<<ASSIGN
B$JIT.CPFLAGS1.SLEAZE
      7261**DCL      7261--REDEF
B$JIT.ERR.MID
      7168**DCL      7168--REDEF
B$JIT$
     13957**DCL      7162--IMP-PTR
B$RUBIRTH
     14464**DCL     14846--CALL    14846--CALL
B$RUBIRTHKEY
     14490**DCL     14846<>CALL
B$RUHEADKEY
     14457**DCL     15387<>CALL
BAD_RF
     15039**LABEL   15035--CALLALT
BAD_SRCH
     15227**LABEL   15227--CALLALT
BLANK
     14642**DCL     15377>>IF      15378<<ASSIGN
B_CHAR_STR
     14669**DCL     15435>>ASSIGN
CHAR1 IN PROCEDURE LLA$SAY_SEV
PL6.E3A0      #001=LLA$MAIN File=LLA$MAIN.:E05TSI                                WED 07/30/97 03:10 Page:156
     15454**DCL     15468<<CALLBLT 15469>>CALLBLT
CHAR2 IN PROCEDURE LLA$SAY_SEV
     15455**DCL     15461<<CALLBLT 15462>>CALLBLT
CHAR_ARY
     14660**DCL     14788>>IF      14788>>IF      15430>>DOWHILE
CHAR_STR
     14668**DCL     15428--ASSIGN  15429<<CALLBLT
EDIT_KEY
     14648**DCL     14705<>CALL    14706<>CALL    14717<>CALL    14719<>CALL
ERR_TXT
     14626**DCL     15422<<ASSIGN  15423<<CALLBLT 15437>>CALLBLT
FID_RESULTS
     14612**DCL     14541--DCLINIT
FID_RESULTS.ACCT
     14612**DCL     15228>>IF
FID_RESULTS.NAME
     14612**DCL     15037>>IF      15132>>IF      15228>>IF
FID_RESULTS.PASS
     14612**DCL     15228>>IF
FID_RESULTS.WSN
     14612**DCL     15228>>IF
FPT_FID
     14537**DCL     15035<>CALL    15131<>CALL    15227<>CALL
FPT_FID.NAME_
     14538**DCL     15034<<ASSIGN  15130<<ASSIGN  15222<<ASSIGN
FPT_FID.V
     14541**DCL     14537--DCLINIT
HEADKEY
     14665**DCL     14845<>CALL
HI_LEN
     14628**DCL     15415<<ASSIGN  15419<<ASSIGN  15423>>CALLBLT
HI_START
     14630**DCL     15416<<ASSIGN  15420<<ASSIGN  15423>>CALLBLT
I
     14652**DCL     14733<<ASSIGN  14734<>CALL    14735>>ASSIGN  14736<<ASSIGN  14744>>DOWHILE 14745>>IF
     14747>>ASSIGN  14747>>ASSIGN  14747>>ASSIGN  14749>>IF      14752>>ASSIGN  14774>>ASSIGN  14780>>ASSIGN
PL6.E3A0      #001=LLA$MAIN File=LLA$MAIN.:E05TSI                                WED 07/30/97 03:10 Page:157
     14781<<ASSIGN  14781>>ASSIGN  14784>>ASSIGN  14818<<ASSIGN  14818>>ASSIGN  14831<<DOINDEX 14832>>DOCASE
     14864>>IF      14864>>IF      14866>>IF      14868>>ASSIGN  14868>>ASSIGN  14869<<ASSIGN  14869>>ASSIGN
     14880>>DOINDEX 15376<<DOINDEX 15377>>IF      15378>>ASSIGN  15380<<ASSIGN  15427<<ASSIGN  15430>>DOWHILE
     15430>>DOWHILE 15431<<ASSIGN  15431>>ASSIGN  15433>>ASSIGN  15434>>ASSIGN
KSTR
     14643**DCL     15375<<CALLBLT 15377--IF      15378--ASSIGN  15382>>CALLBLT
LEN
     14647**DCL     14701<>CALL    14705<>CALL    14706<>CALL    14708<>CALL    14712>>DOWHILE 14713>>ASSIGN
     14714>>ASSIGN  14716>>ASSIGN  14717<>CALL    14719<>CALL    14722<>CALL    14725>>ASSIGN  15048<<DOINDEX
     15049>>ASSIGN
LINK_BUF
     14650**DCL     14702<<ASSIGN  14702>>ASSIGN
LINK_CHAR
     14651**DCL     14712>>DOWHILE 14713<<ASSIGN
LLA$MAIN
        20**PROC    14827--CALL
LLA$SAY_SEV
     15452**PROC    15357--CALL    15365--CALL
LLB$PASS1
     14632**DCL-ENT 15351--CALL
LLC$PASS2
     14633**DCL-ENT 15364--CALL
LLD$MAP
     14634**DCL-ENT 14861--CALL    15396--CALL
LLF$FILLSI
     14638**DCL-ENT 14706--CALL    14719--CALL
LLH$HEXBIN
     14637**DCL-ENT 14753--CALL    14949--CALL    14982--CALL
LLM$MON_SVC
     14636**DCL-ENT 14701--CALL    14705--CALL    14707--CALL    14715--CALL    14717--CALL    14721--CALL
     14728--CALL    14731--CALL    14734--CALL    14797--CALL    14803--CALL    14823--CALL    14825--CALL
     14826--CALL    14844--CALL    14845--CALL    14846--CALL    14862--CALL    14874--CALL    14891--CALL
     14910--CALL    14933--CALL    14935--CALL    14943--CALL    14945--CALL    14977--CALL    15040--CALL
     15042--CALL    15053--CALL    15074--CALL    15134--CALL    15136--CALL    15171--CALL    15218--CALL
     15238--CALL    15248--CALL    15257--CALL    15268--CALL    15276--CALL    15285--CALL    15287--CALL
     15301--CALL    15311--CALL    15320--CALL    15329--CALL    15342--CALL    15349--CALL    15354--CALL
PL6.E3A0      #001=LLA$MAIN File=LLA$MAIN.:E05TSI                                WED 07/30/97 03:10 Page:158
     15360--CALL    15361--CALL    15368--CALL    15383--CALL    15386--CALL    15387--CALL    15394--CALL
     15395--CALL    15397--CALL    15401--CALL    15404--CALL    15443--CALL    15448--CALL    15449--CALL
     15450--CALL    15473--CALL
LLN$NODES
     14645**DCL     13994--DCLINIT
LLP$PRE_PROCESS
     14625**DCL-ENT 14708--CALL    14722--CALL
LLS$SATREF
     14639**DCL-ENT 15384--CALL
LLT$FINISH_VECTOR
     14641**DCL-ENT 15392--CALL
LLT$INIT_TV
     14640**DCL-ENT 15094--CALL
LL_BOTOMEM$
     13457**DCL     15259<<ASSIGN  15391<<ASSIGN
LL_DATA_START
     13453**DCL     14847<<ASSIGN
LL_DOBUF
     13446**DCL     14757<<CALLBLT 14766<<CALLBLT 14830<<ASSIGN  14887<<CALLBLT 14906<<CALLBLT 14919<<CALLBLT
     14932<<ASSIGN  14934<<ASSIGN  14942<<ASSIGN  14944<<ASSIGN  14952<<CALLBLT 14959<<CALLBLT 14974<<CALLBLT
     14985<<CALLBLT 14992<<CALLBLT 15039<<ASSIGN  15041<<ASSIGN  15133<<ASSIGN  15135<<ASSIGN  15168<<CALLBLT
     15217<<ASSIGN  15235<<CALLBLT 15256<<ASSIGN  15266<<ASSIGN  15274<<ASSIGN  15284<<ASSIGN  15286<<ASSIGN
     15299<<ASSIGN  15309<<ASSIGN  15318<<ASSIGN  15327<<ASSIGN  15340<<ASSIGN  15353<<ASSIGN  15358<<ASSIGN
     15367<<ASSIGN  15402<<CALLBLT 15437<<CALLBLT 15446<<ASSIGN  15459<<ASSIGN  15462<<CALLBLT 15466<<ASSIGN
     15469<<CALLBLT
LL_DPATCH
     13463**DCL     14929<<CALLBLT 14930>>IF      14931<<ASSIGN
LL_FIRSTFID
     13451**DCL     14791<<ASSIGN  14793>>ASSIGN  14795<<CALLBLT 14817>>ASSIGN  14824<<ASSIGN
LL_FLAGS.BAD_HEX#
     13448**DCL     14755>>IF      14951>>IF      14984>>IF
LL_FLAGS.BIAS#
     13447**DCL     15000<<ASSIGN  15293>>IF
LL_FLAGS.BIAS_OU
     13449**DCL     14775<<ASSIGN  14971>>IF      15324>>IF      15334>>IF      15370>>IF
LL_FLAGS.CON_OPT#
PL6.E3A0      #001=LLA$MAIN File=LLA$MAIN.:E05TSI                                WED 07/30/97 03:10 Page:159
     13447**DCL     15269<<ASSIGN  15277<<ASSIGN  15302<<ASSIGN  15312<<ASSIGN  15321<<ASSIGN  15330<<ASSIGN
     15343<<ASSIGN  15347>>IF
LL_FLAGS.DCBSLOT#
     13450**DCL     15121<<ASSIGN  15272>>IF      15315>>IF
LL_FLAGS.EMPTY#
     13448**DCL     14841<<ASSIGN  15018<<ASSIGN
LL_FLAGS.LINK_FID#
     13448**DCL     14700>>IF      14720>>IF      14816>>IF      14822<<ASSIGN
LL_FLAGS.MAP#
     13447**DCL     15021<<ASSIGN  15396>>IF
LL_FLAGS.NAME#
     13448**DCL     14835<<ASSIGN  15012<<ASSIGN
LL_FLAGS.NODEBUG#
     13447**DCL     15005<<ASSIGN
LL_FLAGS.NOEDITING#
     13447**DCL     15144<<ASSIGN  15260>>IF
LL_FLAGS.NOLIST#
     13449**DCL     15097<<ASSIGN
LL_FLAGS.NOSH#
     13449**DCL     15124<<ASSIGN  15126<<ASSIGN
LL_FLAGS.OVER#
     13448**DCL     14867<<ASSIGN  14871<<ASSIGN
LL_FLAGS.REMOVE_E#
     13450**DCL     15027<<ASSIGN
LL_FLAGS.REMOVE_S#
     13450**DCL     15029<<ASSIGN
LL_FLAGS.RF#
     13450**DCL     15045<<ASSIGN
LL_FLAGS.SHARELIB#
     13449**DCL     15138<<ASSIGN  15306>>IF      15337>>IF
LL_FLAGS.SLIB#
     13449**DCL     15110<<ASSIGN  15263>>IF      15281>>IF      15288<<ASSIGN  15290>>IF      15350>>ASSIGN
     15352>>IF
LL_FLAGS.START#
     13447**DCL     14967<<ASSIGN  15255>>IF
LL_FLAGS.TCB#
PL6.E3A0      #001=LLA$MAIN File=LLA$MAIN.:E05TSI                                WED 07/30/97 03:10 Page:160
     13450**DCL     15116<<ASSIGN  15272>>IF      15315>>IF
LL_FLAGS.UDEF#
     13448**DCL     14839<<ASSIGN  15016<<ASSIGN
LL_FLAGS.VALUE#
     13448**DCL     14837<<ASSIGN  15014<<ASSIGN
LL_FLAGS.VAL_ERR#
     13448**DCL     14770<<ASSIGN  14922<<ASSIGN  14963<<ASSIGN  14996<<ASSIGN  15247>>IF      15249<<ASSIGN
LL_FLAGS.VECTOR#
     13450**DCL     15093<<ASSIGN  15281>>IF      15388>>IF
LL_HEAD
     14257**DCL     14845--CALL    14845--CALL    14875<<ASSIGN  15387--CALL    15387--CALL
LL_HEAD.BIAS
     14421**DCL     14847>>ASSIGN  14848>>ASSIGN  14876<<ASSIGN
LL_HEAD.DCBRES
     14308**DCL     15120<<ASSIGN
LL_HEAD.DEBUGGER
     14394**DCL     15106<<ASSIGN
LL_HEAD.FLAVOR
     14382**DCL     15253<<ASSIGN
LL_HEAD.LAUTO
     14366**DCL     15099<<ASSIGN
LL_HEAD.LIB
     14387**DCL     14854>>IF      15350<<ASSIGN
LL_HEAD.LIBNAME
     14429**DCL     15130--ASSIGN
LL_HEAD.LOCK
     14380**DCL     15174<<ASSIGN
LL_HEAD.NOCHGPMEM
     14401**DCL     15146<<ASSIGN
LL_HEAD.PRIV
     14258**DCL     15183<<ASSIGN  15183>>ASSIGN  15185<<ASSIGN  15185>>ASSIGN  15187<<ASSIGN  15187>>ASSIGN
     15189<<ASSIGN  15189>>ASSIGN  15191<<ASSIGN  15191>>ASSIGN  15193<<ASSIGN  15193>>ASSIGN  15195<<ASSIGN
     15195>>ASSIGN  15197<<ASSIGN  15197>>ASSIGN  15199<<ASSIGN  15199>>ASSIGN  15201<<ASSIGN  15201>>ASSIGN
     15203<<ASSIGN  15203>>ASSIGN  15205<<ASSIGN  15205>>ASSIGN  15207<<ASSIGN  15207>>ASSIGN  15209<<ASSIGN
     15209>>ASSIGN
LL_HEAD.PROCACC
PL6.E3A0      #001=LLA$MAIN File=LLA$MAIN.:E05TSI                                WED 07/30/97 03:10 Page:161
     14398**DCL     15148<<ASSIGN
LL_HEAD.PROCSURCHG
     14404**DCL     15154<<ASSIGN
LL_HEAD.PSEUDO_COUNT
     14416**DCL     14896<<ASSIGN  14903<<ASSIGN  14911<<ASSIGN
LL_HEAD.PSEUDO_TEXT
     14424**DCL     14895<<ASSIGN
LL_HEAD.RDATA
     14276**DCL     14848>>ASSIGN  15372>>ASSIGN
LL_HEAD.RESTPROC
     14407**DCL     15156<<ASSIGN
LL_HEAD.ROSIZE
     14335**DCL     15372>>ASSIGN  15374>>ASSIGN
LL_HEAD.RPROC
     14266**DCL     15372>>ASSIGN
LL_HEAD.S
     14385**DCL     14877<<ASSIGN  15150<<ASSIGN  15152<<ASSIGN
LL_HEAD.SEV
     14297**DCL     15356>>IF      15366>>IF      15386>>IF      15457>>DOCASE  15461>>CALLBLT 15468>>CALLBLT
LL_HEAD.STRONG_LOCK
     14410**DCL     15160<<ASSIGN
LL_HEAD.TCBSIZE
     14315**DCL     15115<<ASSIGN  15252>>IF      15252<<ASSIGN
LL_HEAD.VDPGS
     14268**DCL     15374>>ASSIGN
LL_HEAD.VERSION#
     14337**DCL     14856>>IF      15254<<ASSIGN
LL_HEAD.VPPGS
     14260**DCL     15374>>ASSIGN
LL_HEAD_VERSION
     13467**DCL     15254>>ASSIGN
LL_IPATCH
     13464**DCL     14939<<CALLBLT 14940>>IF      14941<<ASSIGN
LL_LASTFID
     13451**DCL     14792--ASSIGN
LL_LIST$
PL6.E3A0      #001=LLA$MAIN File=LLA$MAIN.:E05TSI                                WED 07/30/97 03:10 Page:162
     13472**DCL     15054>>IF      15055<<ASSIGN  15075>>IF      15076<<ASSIGN
LL_LIST_SIZE
     13472**DCL     15047<<ASSIGN  15048>>DOINDEX
LL_LOBUF
     13446**DCL     14706<>CALL    14719<>CALL    15382<<CALLBLT
LL_LPROC_START
     13468**DCL     14860>>ASSIGN
LL_NOU
     13453**DCL     14784<<ASSIGN  14785>>IF      14799<<ASSIGN  14801>>ASSIGN  14802<<ASSIGN  14802>>ASSIGN
     14807>>IF      14810<<ASSIGN
LL_OF$
     13446**DCL     14732<<ASSIGN  14734<>CALL    14735>>ASSIGN  14747>>ASSIGN  14774>>ASSIGN  14780>>ASSIGN
     14786>>CALLBLT 14788>>IF      14788>>IF      14791>>ASSIGN  14795>>CALLBLT 14801>>ASSIGN  14808>>ASSIGN
     14809>>ASSIGN  14817>>ASSIGN  14819>>ASSIGN
LL_OPENFID
     13452**DCL     15402>>CALLBLT
LL_PROC_START
     13454**DCL     14851<<ASSIGN  14853<<ASSIGN  14858<<ASSIGN  14860<<ASSIGN
LL_RUNUNIT
     13454**DCL     14829<<ASSIGN  14868<<ASSIGN  14872<<ASSIGN
LL_SLIB_NAME
     13471**DCL     15129<<ASSIGN
LL_SPECFID
     13452**DCL     14800--DOWHILE 14800--DOWHILE 15436--ASSIGN
LL_SPECFID.COUNT
     13452**DCL     14798<<ASSIGN  15434<<ASSIGN
LL_SPECFID.NAME
     13452**DCL     14801>>ASSIGN  15435<<ASSIGN
LL_SRCH.ACCT
     14510**DCL     15241<<ASSIGN
LL_SRCH.NUM
     14506**DCL     15223<<ASSIGN  15241>>ASSIGN  15242>>ASSIGN  15243<<ASSIGN  15243>>ASSIGN
LL_SRCH.SN
     14513**DCL     15242<<ASSIGN
LL_START$
     13457**DCL     15352>>IF
PL6.E3A0      #001=LLA$MAIN File=LLA$MAIN.:E05TSI                                WED 07/30/97 03:10 Page:163
LL_TOPOMEM$
     13457**DCL     15095<<ASSIGN  15363<<ASSIGN  15364<>CALL
LL_TYPE
     13451**DCL     14706<>CALL    14719<>CALL
LL_VAL_BIAS
     13452**DCL     14999<<ASSIGN  15255>>IF      15296>>IF
LL_VAL_FLAVOR
     13467**DCL     15101<<ASSIGN  15102>>DOCASE
LL_VAL_SL
     13453**DCL     14925<<ASSIGN  15356>>IF      15366>>IF      15386>>IF
LL_VAL_START
     13453**DCL     14966<<ASSIGN  15255>>IF
LL_VECTOR_DATA
     13471**DCL     15031<<CALLBLT
LL_VECTOR_RF
     13471**DCL     15034--ASSIGN  15036<<ASSIGN
LL_VERSION.SIZE
     13473**DCL     15141<<ASSIGN
LL_VERSION.TEXT
     13473**DCL     15142<<ASSIGN
LOCK
     14658**DCL     15164<<CALLBLT 15166>>IF      15166>>IF      15174>>ASSIGN
LO_LEN
     14627**DCL     15407<<ASSIGN  15411<<ASSIGN  15423>>CALLBLT
LO_START
     14629**DCL     15408<<ASSIGN  15412<<ASSIGN  15423>>CALLBLT
M$FID
     13429**DCL-ENT 15035--CALL    15131--CALL    15227--CALL
NAME
     14659**DCL     15222--ASSIGN
NAME1$
     14673**DCL     15063<<ASSIGN  15064>>ASSIGN  15068<<ASSIGN  15069>>ASSIGN  15080>>ASSIGN  15081>>ASSIGN
     15081>>ASSIGN
NAME2$
     14674**DCL     15070<<ASSIGN  15071>>ASSIGN  15085>>ASSIGN  15086>>ASSIGN  15086>>ASSIGN
NOT_WILD_CARD
PL6.E3A0      #001=LLA$MAIN File=LLA$MAIN.:E05TSI                                WED 07/30/97 03:10 Page:164
     14807**LABEL   14786--CALLALT 14790--GOTO
OUT$BLK.CODE
     14185**DCL     14737>>DOCASE  14745>>IF      14832>>DOCASE  14864>>IF      14866>>IF      14881>>DOCASE
     15009>>DOCASE  15025>>DOCASE  15050>>IF      15061>>IF      15101>>ASSIGN  15125>>IF      15158>>IF
     15181>>DOCASE
OUT$BLK.NSUBLKS
     14189**DCL     14733>>ASSIGN  14744>>DOWHILE 14749>>IF      14831>>DOINDEX 14864>>IF      14880>>DOINDEX
     14897>>IF      15007>>DOINDEX 15024>>DOINDEX 15047>>ASSIGN  15162>>ASSIGN  15179>>ASSIGN  15214>>ASSIGN
OUT$BLK.SUBLK$
     14210**DCL     14745>>IF      14747>>ASSIGN  14747>>ASSIGN  14747>>ASSIGN  14747>>ASSIGN  14749>>IF
     14752>>ASSIGN  14752>>ASSIGN  14752>>ASSIGN  14824>>ASSIGN  14824>>ASSIGN  14829>>ASSIGN  14829>>ASSIGN
     14832>>DOCASE  14864>>IF      14866>>IF      14868>>ASSIGN  14868>>ASSIGN  14881>>DOCASE  14883>>ASSIGN
     14884>>IF      14887>>CALLBLT 14887>>CALLBLT 14895>>ASSIGN  14895>>ASSIGN  14900>>CALLBLT 14900>>CALLBLT
     14906>>CALLBLT 14906>>CALLBLT 14916>>ASSIGN  14916>>ASSIGN  14928>>ASSIGN  14928>>ASSIGN  14938>>ASSIGN
     14938>>ASSIGN  14948>>ASSIGN  14948>>ASSIGN  14981>>ASSIGN  14981>>ASSIGN  15007>>DOINDEX 15009>>DOCASE
     15009>>DOCASE  15023>>ASSIGN  15025>>DOCASE  15031>>CALLBLT 15031>>CALLBLT 15031>>CALLBLT 15031>>CALLBLT
     15033>>ASSIGN  15033>>ASSIGN  15033>>ASSIGN  15033>>ASSIGN  15047>>ASSIGN  15049>>ASSIGN  15049>>ASSIGN
     15052>>CALLBLT 15052>>CALLBLT 15063>>ASSIGN  15068>>ASSIGN  15068>>ASSIGN  15070>>ASSIGN  15070>>ASSIGN
     15101>>ASSIGN  15101>>ASSIGN  15113>>ASSIGN  15113>>ASSIGN  15118>>ASSIGN  15118>>ASSIGN  15123>>ASSIGN
     15125>>IF      15127>>ASSIGN  15127>>ASSIGN  15140>>ASSIGN  15140>>ASSIGN  15157>>ASSIGN  15164>>CALLBLT
     15164>>CALLBLT 15168>>CALLBLT 15168>>CALLBLT 15178>>ASSIGN  15181>>DOCASE  15213>>ASSIGN  15226>>ASSIGN
     15226>>ASSIGN  15235>>CALLBLT 15235>>CALLBLT
OUT$SYM.COUNT
     14247**DCL     14250--IMP-SIZ 14747>>ASSIGN  14753<>CALL    14753>>CALL    14757>>CALLBLT 14766>>CALLBLT
     14824>>ASSIGN  14829>>ASSIGN  14868>>ASSIGN  14884>>IF      14887>>CALLBLT 14895>>ASSIGN  14900>>CALLBLT
     14906>>CALLBLT 14917>>CALLBLT 14919>>CALLBLT 14929>>CALLBLT 14939>>CALLBLT 14949<>CALL    14949>>CALL
     14952>>CALLBLT 14959>>CALLBLT 14982<>CALL    14982>>CALL    14985>>CALLBLT 14992>>CALLBLT 15031>>CALLBLT
     15033>>ASSIGN  15052>>CALLBLT 15114>>CALLBLT 15119>>CALLBLT 15128>>ASSIGN  15129>>ASSIGN  15141>>ASSIGN
     15142>>ASSIGN  15164>>CALLBLT 15168>>CALLBLT 15226>>ASSIGN  15235>>CALLBLT
OUT$SYM.TEXT
     14250**DCL     14747>>ASSIGN  14753<>CALL    14757>>CALLBLT 14766>>CALLBLT 14824>>ASSIGN  14829>>ASSIGN
     14868>>ASSIGN  14887>>CALLBLT 14895>>ASSIGN  14900>>CALLBLT 14906>>CALLBLT 14917>>CALLBLT 14919>>CALLBLT
     14929>>CALLBLT 14939>>CALLBLT 14949<>CALL    14952>>CALLBLT 14959>>CALLBLT 14982<>CALL    14985>>CALLBLT
     14992>>CALLBLT 15031>>CALLBLT 15033>>ASSIGN  15052>>CALLBLT 15114>>CALLBLT 15119>>CALLBLT 15128>>ASSIGN
     15129>>ASSIGN  15142>>ASSIGN  15164>>CALLBLT 15168>>CALLBLT 15226>>ASSIGN  15235>>CALLBLT
OU_FID.BIAS
PL6.E3A0      #001=LLA$MAIN File=LLA$MAIN.:E05TSI                                WED 07/30/97 03:10 Page:165
     14655**DCL     14774<<ASSIGN  14780<<ASSIGN  14809<<ASSIGN  14819<<ASSIGN
OU_FID.NAME
     14654**DCL     14733--ASSIGN  14747<<ASSIGN  14786>>CALLBLT 14791>>ASSIGN  14795>>CALLBLT 14801<<ASSIGN
     14808<<ASSIGN  14817<<ASSIGN
OU_LIST_DONE
     14781**LABEL   14820--GOTO
PARSE
     14730**LABEL   15444--GOTO
PCB
     13989**DCL     14730<>CALL
PCB.ERROR.CODE
     14101**DCL     15399>>DOCASE
PCB.HI_CHAR
     14140**DCL     15406>>IF      15408>>ASSIGN  15411>>ASSIGN  15414>>IF      15416>>ASSIGN  15419>>ASSIGN
     15420>>ASSIGN  15429>>CALLBLT
PCB.NCHARS
     14136**DCL     14725<<ASSIGN  14727>>ASSIGN  15414>>IF      15419>>ASSIGN
PCB.OUT$
     14002**DCL     14733>>ASSIGN  14737>>DOCASE  14744>>DOWHILE 14745>>IF      14747>>ASSIGN  14747>>ASSIGN
     14749>>IF      14752>>ASSIGN  14824>>ASSIGN  14824>>ASSIGN  14829>>ASSIGN  14829>>ASSIGN  14831>>DOINDEX
     14832>>DOCASE  14864>>IF      14864>>IF      14866>>IF      14868>>ASSIGN  14868>>ASSIGN  14880>>DOINDEX
     14881>>DOCASE  14883>>ASSIGN  14916>>ASSIGN  14928>>ASSIGN  14938>>ASSIGN  14948>>ASSIGN  14981>>ASSIGN
     15007>>DOINDEX 15009>>DOCASE  15023>>ASSIGN  15101>>ASSIGN  15113>>ASSIGN  15118>>ASSIGN  15123>>ASSIGN
     15140>>ASSIGN  15157>>ASSIGN  15178>>ASSIGN  15213>>ASSIGN
PCB.TEXT$
     13990**DCL     14701<>CALL    14702>>ASSIGN  14705<>CALL    14706<>CALL    14708>>CALL    14710>>ASSIGN
     14727>>ASSIGN  14861<>CALL    15259>>ASSIGN  15351<>CALL    15363>>ASSIGN  15391>>ASSIGN  15396<>CALL
     15423>>CALLBLT 15423>>CALLBLT
PCB.WKSZ
     14019**DCL     14726<<ASSIGN  15441<<ASSIGN  15441>>ASSIGN  15442>>ASSIGN
PCB.WK_USED
     14122**DCL     14732>>ASSIGN
PCB.WORK$
     13998**DCL     14727<<ASSIGN  14728<>CALL    14732>>ASSIGN  15443<>CALL
RES
     14620**DCL     14540--DCLINIT
PL6.E3A0      #001=LLA$MAIN File=LLA$MAIN.:E05TSI                                WED 07/30/97 03:10 Page:166
SAY_BADLIB
     15133**LABEL   15131--CALLALT
SIZE
     14697**DCL     15073<<ASSIGN  15074<>CALL
SIZEW1
     14676**DCL     15064<<ASSIGN  15069<<ASSIGN  15073>>ASSIGN  15077>>ASSIGN  15082>>ASSIGN
SIZEW2
     14677**DCL     15052<<CALLBLT 15057>>ASSIGN  15065<<ASSIGN  15071<<ASSIGN  15073>>ASSIGN  15078>>ASSIGN
     15083>>IF      15087>>ASSIGN
SYN_ERR
     15399**LABEL   14717--CALLALT 14730--CALLALT
TEMP
     14656**DCL     14753<>CALL    14764>>IF      14774>>ASSIGN  14786<<CALLBLT 14788>>IF      14788>>IF
     14791>>ASSIGN  14794>>ASSIGN  14795>>CALLBLT 14795>>CALLBLT 14798>>ASSIGN  14848<<ASSIGN  14849>>IF
     14851>>ASSIGN  14853>>ASSIGN  14900<<CALLBLT 14901>>IF      14903>>ASSIGN  14917<<CALLBLT 14918>>IF
     14925>>ASSIGN  14949<>CALL    14958>>IF      14966>>ASSIGN  14982<>CALL    14991>>IF      14999>>ASSIGN
     15007<<DOINDEX 15009>>DOCASE  15024<<DOINDEX 15025>>DOCASE  15031>>CALLBLT 15031>>CALLBLT 15033>>ASSIGN
     15033>>ASSIGN  15047>>ASSIGN  15049>>ASSIGN  15114<<CALLBLT 15115>>ASSIGN  15116>>IF      15119<<CALLBLT
     15120>>ASSIGN  15121>>IF      15163<<DOINDEX 15164>>CALLBLT 15164>>CALLBLT 15168>>CALLBLT 15168>>CALLBLT
     15180<<DOINDEX 15181>>DOCASE  15225<<DOINDEX 15226>>ASSIGN  15226>>ASSIGN  15235>>CALLBLT 15235>>CALLBLT
     15442<<ASSIGN  15443<>CALL
TEMP1
     14657**DCL     15162<<ASSIGN  15163>>DOINDEX 15179<<ASSIGN  15180>>DOINDEX 15214<<ASSIGN  15215>>IF
     15219<<ASSIGN  15225>>DOINDEX
TEXT.COUNT
     14663**DCL     14664--IMP-SIZ 14793>>ASSIGN  14794<<ASSIGN  14800>>DOWHILE 14800>>DOWHILE 15064>>ASSIGN
     15069>>ASSIGN  15071>>ASSIGN  15080>>ASSIGN  15081>>ASSIGN  15085>>ASSIGN  15086>>ASSIGN  15437>>CALLBLT
TEXT.NAME
     14664**DCL     14793<<ASSIGN  14800>>DOWHILE 14800>>DOWHILE 15081>>ASSIGN  15086>>ASSIGN  15437>>CALLBLT
TEXTFID
     14622**DCL     14537--DCLINIT 15033<<ASSIGN  15036>>ASSIGN  15128<<ASSIGN  15226<<ASSIGN
TLEN
     14649**DCL     14711<<ASSIGN  14714<<ASSIGN  14714>>ASSIGN  14725>>ASSIGN
TPTR$
     14646**DCL     14701<>CALL    14702>>ASSIGN  14710<<ASSIGN  14712>>DOWHILE 14713>>ASSIGN  14715<>CALL
     14716<<ASSIGN  14716>>ASSIGN  14717<>CALL    14719<>CALL    14722>>CALL    14752<<ASSIGN  14753>>CALL
PL6.E3A0      #001=LLA$MAIN File=LLA$MAIN.:E05TSI                                WED 07/30/97 03:10 Page:167
     14753>>CALL    14753>>CALL    14757>>CALLBLT 14757>>CALLBLT 14766>>CALLBLT 14766>>CALLBLT 14792<<ASSIGN
     14793>>ASSIGN  14793>>ASSIGN  14794>>ASSIGN  14800>>DOWHILE 14800>>DOWHILE 14883<<ASSIGN  14884>>IF
     14887>>CALLBLT 14887>>CALLBLT 14895>>ASSIGN  14895>>ASSIGN  14897>>IF      14900>>CALLBLT 14900>>CALLBLT
     14906>>CALLBLT 14906>>CALLBLT 14916<<ASSIGN  14917>>CALLBLT 14917>>CALLBLT 14919>>CALLBLT 14919>>CALLBLT
     14928<<ASSIGN  14929>>CALLBLT 14929>>CALLBLT 14938<<ASSIGN  14939>>CALLBLT 14939>>CALLBLT 14948<<ASSIGN
     14949>>CALL    14949>>CALL    14949>>CALL    14952>>CALLBLT 14952>>CALLBLT 14959>>CALLBLT 14959>>CALLBLT
     14981<<ASSIGN  14982>>CALL    14982>>CALL    14982>>CALL    14985>>CALLBLT 14985>>CALLBLT 14992>>CALLBLT
     14992>>CALLBLT 15023<<ASSIGN  15024>>DOINDEX 15025>>DOCASE  15031>>CALLBLT 15031>>CALLBLT 15033>>ASSIGN
     15033>>ASSIGN  15047>>ASSIGN  15049>>ASSIGN  15113<<ASSIGN  15114>>CALLBLT 15114>>CALLBLT 15118<<ASSIGN
     15119>>CALLBLT 15119>>CALLBLT 15123<<ASSIGN  15125>>IF      15127<<ASSIGN  15127>>ASSIGN  15128>>ASSIGN
     15128>>ASSIGN  15129>>ASSIGN  15129>>ASSIGN  15140<<ASSIGN  15141>>ASSIGN  15142>>ASSIGN  15142>>ASSIGN
     15157<<ASSIGN  15158>>IF      15162>>ASSIGN  15164>>CALLBLT 15164>>CALLBLT 15168>>CALLBLT 15168>>CALLBLT
     15178<<ASSIGN  15179>>ASSIGN  15181>>DOCASE  15213<<ASSIGN  15214>>ASSIGN  15226>>ASSIGN  15226>>ASSIGN
     15235>>CALLBLT 15235>>CALLBLT 15428<<ASSIGN  15430>>DOWHILE 15433<<ASSIGN  15433>>ASSIGN  15435>>ASSIGN
     15436<<ASSIGN  15437>>CALLBLT 15437>>CALLBLT
TPTR1$
     14644**DCL     15049<<ASSIGN  15050>>IF      15052>>CALLBLT 15052>>CALLBLT 15061>>IF      15063>>ASSIGN
     15068>>ASSIGN  15070>>ASSIGN
TRY_OU
     14817**LABEL   14826--CALLALT
TXT
     14631**DCL     14708<>CALL    14722<>CALL    15423>>CALLBLT 15423>>CALLBLT
VECTOR_LIST.SIZEW1
     14671**DCL     15056<<ASSIGN  15077<<ASSIGN
VECTOR_LIST.SIZEW2
     14672**DCL     15057<<ASSIGN  15078<<ASSIGN
VLP_ACCT
     14560**DCL     14538--DCLINIT
VLP_ACCT.ACCT#
     14560**DCL     15241>>ASSIGN
VLP_PASS
     14573**DCL     14539--DCLINIT
VLP_SN
     14599**DCL     14539--DCLINIT
VLP_SN.SN#
     14599**DCL     15242>>ASSIGN
PL6.E3A0      #001=LLA$MAIN File=LLA$MAIN.:E05TSI                                WED 07/30/97 03:10 Page:168
VLP_WSN
     14586**DCL     14539--DCLINIT
X
     14661**DCL     14880<<DOINDEX 14881>>DOCASE  14883>>ASSIGN  14916>>ASSIGN  14928>>ASSIGN  14938>>ASSIGN
     14948>>ASSIGN  14981>>ASSIGN  15007>>DOINDEX 15009>>DOCASE  15023>>ASSIGN  15101>>ASSIGN  15113>>ASSIGN
     15118>>ASSIGN  15123>>ASSIGN  15140>>ASSIGN  15157>>ASSIGN  15178>>ASSIGN  15213>>ASSIGN  15372<<ASSIGN
     15374<<ASSIGN  15375>>CALLBLT
X$PARSE
     14624**DCL-ENT 14730--CALL
