VERSION E05

PL6.E3A0      #001=LLD$MAP File=LLD$MAP.:E05TSI                                  WED 07/30/97 03:14 Page:1
        1        1        /*M* LLD$MAP - Mapping routine of FEPLINK                           */
        2        2        /*T***********************************************************/
        3        3        /*T*                                                         */
        4        4        /*T* Copyright (c) Bull HN Information Systems Inc., 1997    */
        5        5        /*T*                                                         */
        6        6        /*T***********************************************************/
        7        7        /*X* PLM=4,STI=0,IND=4,CTI=3,DCI=4,ECI=4,CSI=0,THI=0,DTI=0,ENI=4,
        8        8             CLM=0,SQB,NTB,MOC,CCI=3,NLB,MCL=0,EDMC*/
        9        9        /*F* NAME:         LLD$MAP
       10       10             PURPOSE:      Performs mapping function.  Calls LLP$PUTLO
       11       11                           to bust ENTDEFS and SYMDEFS.  This routine's
       12       12                           sole responsibility is to format the head record
       13       13                           and control section entries.  After this is
       14       14                           done, it calls LLP$PUTLO to format the DEFs if
       15       15                           name or value was specified in the option list   */
       16       16        LLD$MAP: PROC (AVAIL$);
       17       17        %INCLUDE CP_6;
       18       98        %INCLUDE LL_DATA_R;
       19      134        %INCLUDE LL_SUBS_C;
       20      263        %INCLUDE LL_MACS_C;
       21      617        %INCLUDE B$OBJECT_C;
       22     4047        %B$DNAME;
       23     4066        %B$RUKEY (NAME=B$RUKEY,STCLASS = STATIC);
       24     4106        %B$RUBIRTH (STCLASS = SYMREF, COUNTINIT = " /**/ ");
       25     4115        %B$FEP_SECTION ( NAME = LL_SECTION );
       26     4154        %B$HEAD ( NAME = LL_HEAD,
       27     4155         STCLASS = SYMREF );
       28     4355        %LL$UNSATREF (NAME = B$FEP_UNSATREF);
       29     4368        %RU_FLAVORS;
       30     4374        %FPT_TIME ( FPTN = BIRTH_TIME,
       31     4375         SOURCE = UTS,
       32     4376         TSTAMP = B$RUBIRTH.CREATE_UTS,
       33     4377         DEST = LOCAL,
       34     4378         DATE = UTS_BUF.DATE,
       35     4379         TIME = UTS_BUF.TIME,
       36     4380         DAY = UTS_BUF.DAY );
       37     4399    1   DCL 1 UTS_BUF STATIC ALIGNED,
PL6.E3A0      #001=LLD$MAP File=LLD$MAP.:E05TSI                                  WED 07/30/97 03:14 Page:2
       38     4400    1         2 * CHAR(8) UNAL INIT('UTS   = '),
       39     4401    1         2 DATE CHAR(8) UNAL,
       40     4402    1         2 * CHAR(2) UNAL INIT('  '),
       41     4403    1         2 TIME CHAR(11) UNAL,
       42     4404    1         2 * CHAR(2) UNAL INIT('  '),
       43     4405    1         2 DAY CHAR(3) UNAL;
       44     4406    1   DCL UTS_BUFFER REDEF UTS_BUF CHAR(34) ALIGNED;
       45     4407    1   DCL M$RU DCB;
       46     4408    1   DCL AVAIL$ PTR;
       47     4409    1   DCL DEF$ PTR;
       48     4410    1   DCL I UBIN WORD ALIGNED;
       49     4411    1   DCL J UBIN WORD ALIGNED;
       50     4412    1   DCL X SBIN WORD ALIGNED;
       51     4413    1   DCL LLM$MON_SVC ENTRY(4) ALTRET;
       52     4414    1   DCL LLI$BINHEX ENTRY(3);
       53     4415    1   DCL LLP$PUTLO ENTRY(5);
       54     4416    1   DCL LLS$SAYREFS ENTRY;
       55     4417    1   DCL 1 STRING ALIGNED,
       56     4418    1         2 COUNT UBIN BYTE UNAL,
       57     4419    1         2 TEXT CHAR(6) UNAL;
       58     4420    1   DCL HEXSTR CHAR(6) UNAL;
       59     4421    1   DCL HEXSTR_ARY(0:5) REDEF HEXSTR CHAR(1);
       60     4422    1   DCL 1 SECT_ENTRY BASED ALIGNED,
       61     4423    1         2 OBJUNIT$ PTR,
       62     4424    1         2 SECTION$ PTR,
       63     4425    1         2 NEXT$ PTR;
       64     4426    1   DCL 1 B$STRING BASED UNAL,
       65     4427    1         2 COUNT UBIN BYTE UNAL,
       66     4428    1         2 TEXT CHAR(B$STRING.COUNT) UNAL;
       67     4429    1   DCL 1 FNAME BASED ALIGNED,
       68     4430    1         2 COUNT UBIN BYTE UNAL,
       69     4431    1         2 TEXT CHAR(FNAME.COUNT) UNAL;
       70     4432    1   DCL ANAME CHAR(8) BASED ALIGNED;
       71     4433    1   DCL TEMP SBIN WORD ALIGNED;
       72     4434    1   DCL STR1 CHAR(1) STATIC UNAL;
       73     4435    1   DCL STR5 CHAR(5) STATIC UNAL;
       74     4436    1   DCL STR6 CHAR(6) STATIC UNAL;
PL6.E3A0      #001=LLD$MAP File=LLD$MAP.:E05TSI                                  WED 07/30/97 03:14 Page:3
       75     4437    1   DCL NAME$ PTR;
       76     4438    1   DCL TPTR$ PTR;
       77     4439    1   DCL CHARACTER CHAR(1) BASED UNAL;
       78     4440    1   DCL SIZE_FIELD SBIN WORD BASED ALIGNED;
       79     4441    1   DCL VRPGS UBIN WORD ALIGNED;
       80     4442        %EJECT;
PL6.E3A0      #001=LLD$MAP File=LLD$MAP.:E05TSI                                  WED 07/30/97 03:14 Page:4
       81     4443    1       LL_STATE = LL#MAPPING;
       82     4444    1       VRPGS = ( LL_HEAD.ROSIZE + LL_PAGESIZE - 1 ) / LL_PAGESIZE;
       83     4445    2       IF LL_DNAME_VEC.P$=ADDR(NIL) THEN DO;
       84     4446    2           TEMP = LL_HEAD.NRECSIZE;
       85     4447    2           CALL LLM$MON_SVC (LL#GETMEM,TEMP,AVAIL$);
       86     4448    2           B$RUKEY.TYPE = 1;
       87     4449    2           CALL LLM$MON_SVC (LL#READRU, AVAIL$, TEMP*4-1, B$RUKEY);
       88     4450    2           NAME$ = AVAIL$;
       89     4451    2           END;
       90     4452    1       ELSE NAME$ = LL_DNAME_VEC.P$;
       91     4453    1       CALL INSERT (LL_LOBUF,0,,'q','**********************');
       92     4454    1       CALL INSERT (LL_LOBUF,35,,'CP6 FEP LINK MAP  VERSION = ',
       93     4455    1          LL_HEAD_VERS_TXT(LL_HEAD.VERSION#));
       94     4456    1       CALL INSERT (LL_LOBUF,80,,'**********************');
       95     4457    1       IF NOT LL_WIDE# THEN SUBSTR(LL_LOBUF,8) = SUBSTR(LL_LOBUF,23,64);
       96     4458    1       CALL LLM$MON_SVC (LL#WRITELO);
       97     4459    1       CALL INSERT (LL_LOBUF,0,,'A','**********************');
       98     4460    1       TPTR$ = PINCRW (DCBADDR(DCBNUM(M$RU)),8);
       99     4461    1       CALL INSERT (LL_LOBUF,24,,'RF    = ',TPTR$->FNAME.TEXT);
      100     4462    1       TPTR$ = PINCRW (TPTR$,8);
      101     4463    1       CALL INSERT (LL_LOBUF,64,,'ACN  = ',TPTR$->ANAME,
      102     4464    1          ' ','**********************');
      103     4465    1       IF NOT LL_WIDE# THEN SUBSTR(LL_LOBUF,8) = SUBSTR(LL_LOBUF,23,64);
      104     4466    1       CALL LLM$MON_SVC (LL#WRITELO);
      105     4467    1       TEMP = LL_HEAD.SEV;
      106     4468    1       CALL LLI$BINHEX (TEMP,1,STR1);
      107     4469    1       CALL INSERT (LL_LOBUF,23,,' SEV   =     ',STR1);
      108     4470    1       IF LL_FLAGS.BIAS_OU
      109     4471    1       THEN
      110     4472    1           TEMP =((LL_HEAD.RDATA+LL_HEAD.RPROC+VRPGS+LL_PAGESIZE-1)/LL_PAGESIZE+3)/4;
      111     4473    1       ELSE
      112     4474    1           TEMP = (LL_HEAD.VPPGS+LL_HEAD.VDPGS+VRPGS+3)/4;
      113     4475    1       CALL BINCHAR (STR5,TEMP);
      114     4476    2       DO I = 0 TO 3;
      115     4477    2           IF (PINCRC(ADDR(STR5),I) -> CHARACTER = '0') THEN
      116     4478    2               PINCRC(ADDR(STR5),I) -> CHARACTER = ' ';
      117     4479    2           ELSE
PL6.E3A0      #001=LLD$MAP File=LLD$MAP.:E05TSI                                  WED 07/30/97 03:14 Page:5
      118     4480    2               I = 3;
      119     4481    2           END;
      120     4482    1       CALL INSERT (LL_LOBUF,64,,'SIZE = ',STR5,' K  ',
      121     4483    1          '**********************');
      122     4484    1       IF NOT LL_WIDE# THEN SUBSTR(LL_LOBUF,8) = SUBSTR(LL_LOBUF,23,64);
      123     4485    1       CALL LLM$MON_SVC (LL#WRITELO);
      124     4486    1       TEMP = LL_HEAD.START;
      125     4487    1       CALL LLI$BINHEX (TEMP,5,STR5);
      126     4488    1       CALL INSERT (LL_LOBUF,24,,'START = ',STR5);
      127     4489    1       IF LL_FLAGS.BIAS_OU
      128     4490    1       THEN
      129     4491    2       DO;
      130     4492    2           IF LL_DATA_START > LL_PROC_START
      131     4493    2           THEN
      132     4494    2               TEMP = LL_PROC_START;
      133     4495    2           ELSE TEMP = LL_DATA_START;
      134     4496    2           END;
      135     4497    1       ELSE
      136     4498    1           TEMP = LL_HEAD.BIAS;
      137     4499    1       CALL LLI$BINHEX (TEMP,5,STR5);
      138     4500    1       CALL INSERT (LL_LOBUF,64,,'BIAS = ',STR5,'    ',
      139     4501    1          '**********************');
      140     4502    1       IF NOT LL_WIDE# THEN SUBSTR(LL_LOBUF,8) = SUBSTR(LL_LOBUF,23,64);
      141     4503    1       CALL LLM$MON_SVC (LL#WRITELO);
      142     4504    1       CALL M$TIME ( BIRTH_TIME );
      143     4505    1       CALL INSERT (LL_LOBUF,0,,'C********************** ',
      144     4506    1          UTS_BUFFER);
      145     4507    1       CALL INSERT (LL_LOBUF,80,,'**********************');
      146     4508    1       IF NOT LL_WIDE# THEN SUBSTR(LL_LOBUF,8) = SUBSTR(LL_LOBUF,23,64);
      147     4509    1       CALL LLM$MON_SVC (LL#WRITELO);
      148     4510    1       LL_LOBUF = 'CSHARED LIBRARY';
      149     4511    1       CALL LLM$MON_SVC(LL#WRITELO);
      150     4512    1       IF LL_HEAD.LIBNAME.TXT ~= ' '
      151     4513    1       THEN
      152     4514    2       DO;
      153     4515    2           CALL CONCAT(LL_LOBUF, 'C', LL_HEAD.LIBNAME.TXT);
      154     4516    2           CALL LLM$MON_SVC(LL#WRITELO);
PL6.E3A0      #001=LLD$MAP File=LLD$MAP.:E05TSI                                  WED 07/30/97 03:14 Page:6
      155     4517    2           END;
      156     4518    2       IF (LL_FLAGS.NAME# | LL_FLAGS.VALUE# | LL_FLAGS.UDEF#) THEN DO;
      157     4519    2           LL_LOBUF =
              4519                    'B<HEX_ADDRESS><CON_DEF><SOURCE><USED><MULT_DEF><DEFINITION_NAME>';
      158     4520    2           CALL LLM$MON_SVC (LL#WRITELO);
      159     4521    2           LL_LOBUF =
              4521                    'A    <CON_DEF>   <USED>    <MULT_DEF>                      <SOURCE>';
      160     4522    2           CALL LLM$MON_SVC (LL#WRITELO);
      161     4523    2           LL_LOBUF =
              4523                    'AYES:    =       <BLANK>       +          OBJECT FILE      <BLANK>';
      162     4524    2           CALL LLM$MON_SVC (LL#WRITELO);
      163     4525    2           LL_LOBUF = 'ANO : <BLANK>      *        <BLANK>       SHARED LIB.         S'
              4525                    ;
      164     4526    2           CALL LLM$MON_SVC (LL#WRITELO);
      165     4527    2           LL_LOBUF = 'A                                         ALT. SHARED LIB.    A'
              4527                    ;
      166     4528    2           CALL LLM$MON_SVC (LL#WRITELO);
      167     4529    2           LL_LOBUF = 'A                                         PRIVATE LIB.        P'
              4529                    ;
      168     4530    2           CALL LLM$MON_SVC (LL#WRITELO);
      169     4531    2           LL_LOBUF = 'A                                         LINKER SUPPLIED     L'
              4531                    ;
      170     4532    2           CALL LLM$MON_SVC (LL#WRITELO);
      171     4533    2           LL_LOBUF = 'A                                         RUN FILE            R'
              4533                    ;
      172     4534    2           CALL LLM$MON_SVC (LL#WRITELO);
      173     4535    2           LL_LOBUF = 'D                                         REMOVED             -'
              4535                    ;
      174     4536
      175     4537    2           CALL LLM$MON_SVC (LL#WRITELO);
      176     4538    2           END;
      177     4539    1       LL_LOBUF = 'A*********** PROTECTION TYPES ***********';
      178     4540    1       CALL LLM$MON_SVC (LL#WRITELO);
      179     4541    1       LL_LOBUF = 'A            DATA   PROCEDURE   READ ONLY';
      180     4542    1       CALL LLM$MON_SVC (LL#WRITELO);
      181     4543    1       LL_LOBUF = 'A            ----   ---------   ---------';
      182     4544    1       CALL LLM$MON_SVC (LL#WRITELO);
PL6.E3A0      #001=LLD$MAP File=LLD$MAP.:E05TSI                                  WED 07/30/97 03:14 Page:7
      183     4545    1       LL_LOBUF = 'AHIGH:';
      184     4546    2       IF ( LL_HEAD.VDPGS > 0 ) THEN DO;
      185     4547    2           TEMP = LL_DATA_START+LL_HEAD.RDATA;
      186     4548    2           IF LL_FLAGS.BIAS_OU
      187     4549    2           THEN TEMP = LL_END_VALUE;
      188     4550    2           CALL LLI$BINHEX (TEMP,5,STR5);
      189     4551    2           CALL INSERT (LL_LOBUF,12,,STR5);
      190     4552    2           END;
      191     4553    2       IF ( LL_HEAD.VPPGS > 0 ) THEN DO;
      192     4554    2           IF LL_FLAGS.BIAS_OU
      193     4555    2           THEN TEMP = LL_END_LOC;
      194     4556    2           ELSE TEMP = LL_PROC_START + LL_HEAD.RPROC - 1;
      195     4557    2           CALL LLI$BINHEX (TEMP,5,STR5);
      196     4558    2           CALL INSERT (LL_LOBUF,24,,STR5);
      197     4559    2           END;
      198     4560    2       IF ( LL_HEAD.ROSIZE > 0 ) THEN DO;
      199     4561    2           TEMP = 4096 + LL_HEAD.ROSIZE - 1;
      200     4562    2           CALL LLI$BINHEX (TEMP,5,STR5);
      201     4563    2           CALL INSERT (LL_LOBUF,36,,STR5);
      202     4564    2           END;
      203     4565    1       CALL LLM$MON_SVC (LL#WRITELO);
      204     4566    1       LL_LOBUF = 'ALOW :';
      205     4567    1       TEMP = LL_DATA_START;
      206     4568    2       IF ( LL_HEAD.VDPGS > 0 ) THEN DO;
      207     4569    2           CALL LLI$BINHEX (TEMP,5,STR5);
      208     4570    2           CALL INSERT (LL_LOBUF,12,,STR5);
      209     4571    2           END;
      210     4572    2       IF ( LL_HEAD.VPPGS > 0 ) THEN DO;
      211     4573    2           TEMP = LL_PROC_START;
      212     4574    2           CALL LLI$BINHEX (TEMP,5,STR5);
      213     4575    2           CALL INSERT (LL_LOBUF,24,,STR5);
      214     4576    2           END;
      215     4577    2       IF ( LL_HEAD.ROSIZE > 0 ) THEN DO;
      216     4578    2           TEMP = 4096;
      217     4579    2           CALL LLI$BINHEX (TEMP,5,STR5);
      218     4580    2           CALL INSERT (LL_LOBUF,36,,STR5);
      219     4581    2           END;
PL6.E3A0      #001=LLD$MAP File=LLD$MAP.:E05TSI                                  WED 07/30/97 03:14 Page:8
      220     4582    1       CALL LLM$MON_SVC (LL#WRITELO);
      221     4583    1       LL_LOBUF = 'ASIZE:';
      222     4584    2       IF ( LL_HEAD.VDPGS > 0 ) THEN DO;
      223     4585    2           IF LL_FLAGS.BIAS_OU
      224     4586    2           THEN
      225     4587    2               TEMP = LL_END_VALUE - LL_DATA_START;
      226     4588    2           ELSE
      227     4589    2               TEMP = LL_HEAD.RDATA;
      228     4590    2           CALL LLI$BINHEX (TEMP,5,STR5);
      229     4591    2           CALL INSERT (LL_LOBUF,12,,STR5);
      230     4592    2           END;
      231     4593    2       IF ( LL_HEAD.VPPGS > 0 ) THEN DO;
      232     4594    2           IF LL_FLAGS.BIAS_OU
      233     4595    2           THEN
      234     4596    2               TEMP = LL_END_LOC - LL_PROC_START;
      235     4597    2           ELSE
      236     4598    2               TEMP = LL_HEAD.RPROC;
      237     4599    2           CALL LLI$BINHEX (TEMP,5,STR5);
      238     4600    2           CALL INSERT (LL_LOBUF,24,,STR5);
      239     4601    2           END;
      240     4602    2       IF ( LL_HEAD.ROSIZE > 0 ) THEN DO;
      241     4603    2           TEMP = LL_HEAD.ROSIZE;
      242     4604    2           CALL LLI$BINHEX (TEMP,5,STR5);
      243     4605    2           CALL INSERT (LL_LOBUF,36,,STR5);
      244     4606    2           END;
      245     4607    1       CALL LLM$MON_SVC (LL#WRITELO);
      246     4608    1       IF LL_FLAGS.BIAS_OU
      247     4609    1       THEN
      248     4610    2       DO;
      249     4611    2           LL_LOBUF = 'CACTUAL:';
      250     4612    2           TEMP = LL_HEAD.RDATA;
      251     4613    2           CALL LLI$BINHEX(TEMP,5,STR5);
      252     4614    2           CALL INSERT(LL_LOBUF,12,,STR5);
      253     4615    2           TEMP = LL_HEAD.RPROC;
      254     4616    2           CALL LLI$BINHEX(TEMP,5,STR5);
      255     4617    2           CALL INSERT(LL_LOBUF,24,,STR5);
      256     4618    2           CALL LLM$MON_SVC (LL#WRITELO);
PL6.E3A0      #001=LLD$MAP File=LLD$MAP.:E05TSI                                  WED 07/30/97 03:14 Page:9
      257     4619    2           END;
      258     4620    1       LL_LOBUF = 'B******** CONTROL SECTIONS SORTED BY VALUE ********';
      259     4621    1       CALL LLM$MON_SVC (LL#WRITELO);
      260     4622    1       TPTR$ = AVAIL$;
      261     4623    1       IF LL_DNAME_VEC.P$=ADDR(NIL)
      262     4624    1       THEN TPTR$ = PINCRW(TPTR$,LL_HEAD.NRECSIZE);
      263     4625    1       CALL LLM$MON_SVC (LL#GETMEM,1024,TPTR$);
      264     4626    1       B$RUKEY.TYPE = 3;
      265     4627    1       CALL READRU;
      266     4628    1       TPTR$ = PINCRW (TPTR$, -X);
      267     4629    1       X = X/2;
      268     4630    2       DO I = 0 TO X-1;
      269     4631    2           IF ( LL_FLAGS.EMPTY# OR TPTR$ -> LL_SECTION.SIZE > 0 OR
      270     4632    3              TPTR$ -> LL_SECTION.NPOINTER >= 0 ) THEN DO;
      271     4633         /* Convert the address (size) portion of the entry */
      272     4634    3               TEMP = TPTR$ -> LL_SECTION.ISADDR;
      273     4635    3               CALL LLI$BINHEX (TEMP, 6, HEXSTR);
      274     4636    3               IF (I = X) THEN
      275     4637    3                   LL_LOBUF = 'C';
      276     4638    3               ELSE
      277     4639    3                   LL_LOBUF = 'A';
      278     4640    3               TEMP = TPTR$ -> LL_SECTION.NPOINTER;
      279     4641    4               DO CASE (TPTR$ -> LL_SECTION.TYPE);
      280     4642    4               CASE (0);
      281     4643    4                   CALL INSERT (LL_LOBUF,3,,HEXSTR,' DATA');
      282     4644    4               CASE (1);
      283     4645    4                   CALL INSERT (LL_LOBUF,3,,HEXSTR,' PROC');
      284     4646    4               CASE (2);
      285     4647    4                   CALL INSERT (LL_LOBUF,3,,HEXSTR,' ULCOM');
      286     4648    4               CASE (3);
      287     4649    4                   CALL INSERT (LL_LOBUF,3,,HEXSTR,' RLCOM');
      288     4650    4               CASE (4);
      289     4651    4                   CALL INSERT (LL_LOBUF,3,,HEXSTR,' LCOM');
      290     4652    4               CASE (5);
      291     4653    4                   CALL INSERT (LL_LOBUF,3,,HEXSTR,' DCB');
      292     4654    4               CASE (6);
      293     4655    4                   CALL INSERT (LL_LOBUF,3,,HEXSTR,' RODATA');
PL6.E3A0      #001=LLD$MAP File=LLD$MAP.:E05TSI                                  WED 07/30/97 03:14 Page:10
      294     4656    4                   END;
      295     4657    3               IF (TEMP < 0) THEN
      296     4658    3                   CALL INSERT (LL_LOBUF,20,,'<unnamed>');
      297     4659    3               ELSE
      298     4660    3                   CALL INSERT (LL_LOBUF,20,,
      299     4661    3                      PINCRW(NAME$, TEMP) -> B$DNAME.TEXT);
      300     4662    3               TEMP = TPTR$ -> LL_SECTION.SIZE;
      301     4663    3               CALL BINCHAR (HEXSTR, TEMP);
      302     4664    3               J = 0;
      303     4665    4               DO WHILE (HEXSTR_ARY(J) = '0' AND J < 5);
      304     4666    4                   HEXSTR_ARY(J) = ' ';
      305     4667    4                   J = J + 1;
      306     4668    4                   END;
      307     4669    3               CALL INSERT (LL_LOBUF,50,,HEXSTR,' (.');
      308     4670    3               CALL LLI$BINHEX (TEMP, 6, HEXSTR);
      309     4671    3               J = 0;
      310     4672    4               DO WHILE (HEXSTR_ARY(J) = ' ');
      311     4673    4                   J = J + 1;
      312     4674    4                   END;
      313     4675    4               DO TEMP = 0 TO 5 - J;
      314     4676    4                   HEXSTR_ARY(TEMP) = HEXSTR_ARY(TEMP + J);
      315     4677    4                   END;
      316     4678    3               STRING.COUNT = 6 - J;
      317     4679    3               STRING.TEXT = HEXSTR;
      318     4680    3               CALL INSERT (LL_LOBUF,59,,ADDR(STRING)->B$STRING.TEXT,')');
      319     4681    3               CALL LLM$MON_SVC (LL#WRITELO);
      320     4682    3               END;
      321     4683    3           ELSE DO;
      322     4684    4               IF (I = X) THEN DO;
      323     4685    4                   LL_LOBUF = 'C';
      324     4686    4                   CALL LLM$MON_SVC (LL#WRITELO);
      325     4687    4                   END;
      326     4688    3               END;
      327     4689    2           TPTR$ = PINCRW (TPTR$,2);
      328     4690    2           END;
      329     4691         /**/
      330     4692         /*
PL6.E3A0      #001=LLD$MAP File=LLD$MAP.:E05TSI                                  WED 07/30/97 03:14 Page:11
      331     4693            Here we check to see if there are any ref names in the run unit.
      332     4694         */
      333     4695         /**/
      334     4696    1       TPTR$ = PINCRW (TPTR$, -X*2); /* Back to start of sections. */
      335     4697    2       IF LLS_INIT# THEN DO;
      336     4698         /**/
      337     4699         /*
      338     4700            Get some memory for the names record.
      339     4701         */
      340     4702         /**/
      341     4703    2           TEMP = LL_HEAD.NRECSIZE;
      342     4704    2           CALL LLM$MON_SVC (LL#GETMEM, TEMP, TPTR$);
      343     4705    2           B$RUKEY.PAGE = 0;
      344     4706    2           B$RUKEY.TYPE = 2; /* REF NAMES */
      345     4707    2           TEMP = TEMP * 4 - 1; /* REF NAMES MAX SIZE BOUND. */
      346     4708    2           LL_UREF_NAME$ = TPTR$;
      347     4709    2           CALL LLM$MON_SVC (LL#READRU, TPTR$, TEMP, B$RUKEY)
      348     4710    2              ALTRET (NO_REFS);
      349     4711         /**/
      350     4712         /*
      351     4713            Get the actual wordsize of the name record.
      352     4714         */
      353     4715         /**/
      354     4716    2           LL_UREF_NAME_CUR = DCBADDR(DCBNUM(M$RU))->SIZE_FIELD / 4;
      355     4717         /**/
      356     4718         /*
      357     4719            Look for an ENTREF record (TYPE=5);
      358     4720         */
      359     4721         /**/
      360     4722    2           TPTR$ = PINCRW (TPTR$,LL_UREF_NAME_CUR);
      361     4723    2           LL_U_ENTREF$ = TPTR$;
      362     4724    2           B$RUKEY.TYPE = 5;
      363     4725    2           CALL READRU;
      364     4726    2           LL_U_ENTREF_CUR = X;
      365     4727    2           LL_U_SYMREF$ = TPTR$;
      366     4728    2           B$RUKEY.TYPE = 7;
      367     4729    2           CALL READRU;
PL6.E3A0      #001=LLD$MAP File=LLD$MAP.:E05TSI                                  WED 07/30/97 03:14 Page:12
      368     4730    2           LL_U_SYMREF_CUR = X;
      369     4731    2           LL_U_PRIMARY_SYMREF_COUNT = 0;
      370     4732    2           LL_U_SECONDARY_SYMREF_COUNT = 0;
      371     4733    2           LL_U_PRIMARY_ENTREF_COUNT = 0;
      372     4734    2           LL_U_SECONDARY_ENTREF_COUNT = 0;
      373     4735    3           DO I = 0 TO LL_U_SYMREF_CUR - 1;
      374     4736    3               IF PINCRW (LL_U_SYMREF$,I) -> B$FEP_UNSATREF.SREF THEN
      375     4737    3                   LL_U_SECONDARY_SYMREF_COUNT =
      376     4738    3                      LL_U_SECONDARY_SYMREF_COUNT + 1;
      377     4739    3               ELSE
      378     4740    3                   LL_U_PRIMARY_SYMREF_COUNT =
      379     4741    3                      LL_U_PRIMARY_SYMREF_COUNT + 1;
      380     4742    3               END;
      381     4743    3           DO I = 0 TO LL_U_ENTREF_CUR - 1;
      382     4744    3               IF PINCRW (LL_U_ENTREF$,I) -> B$FEP_UNSATREF.SREF THEN
      383     4745    3                   LL_U_SECONDARY_ENTREF_COUNT =
      384     4746    3                      LL_U_SECONDARY_ENTREF_COUNT + 1;
      385     4747    3               ELSE
      386     4748    3                   LL_U_PRIMARY_ENTREF_COUNT =
      387     4749    3                      LL_U_PRIMARY_ENTREF_COUNT + 1;
      388     4750    3               END;
      389     4751    2           END;
      390     4752    1       TPTR$ = LL_UREF_NAME$; /* Back to start of this piece for DEFs */
      391     4753    1       CALL LLS$SAYREFS;
      392     4754    1   NO_REFS:
      393     4755    2       DO I = 4 TO 6 BY 2;
      394     4756    2           DEF$ = TPTR$;
      395     4757    2           B$RUKEY.PAGE = 0;
      396     4758    2           B$RUKEY.TYPE = I;
      397     4759    2           IF I = 4
      398     4760    2           THEN TEMP = LL_HEAD.EPRECSIZE;
      399     4761    2           ELSE TEMP = LL_HEAD.EDRECSIZE;
      400     4762    2           IF TEMP = 0 THEN TEMP = 1;
      401     4763    2           CALL LLM$MON_SVC (LL#GETMEM, TEMP, TPTR$);
      402     4764    2           CALL LLM$MON_SVC (LL#READRU, TPTR$, TEMP*4-1, B$RUKEY);
      403     4765    2           TEMP = DCBADDR(DCBNUM(M$RU)) -> SIZE_FIELD;
      404     4766    3           IF (TEMP > 0) THEN DO;
PL6.E3A0      #001=LLD$MAP File=LLD$MAP.:E05TSI                                  WED 07/30/97 03:14 Page:13
      405     4767    3               IF (LL_FLAGS.NAME#) THEN
      406     4768    3                   CALL LLP$PUTLO (DEF$, 0, TEMP/8, NAME$, I);
      407     4769    3               IF (LL_FLAGS.VALUE#) THEN
      408     4770    3                   CALL LLP$PUTLO (DEF$, 1, TEMP/8, NAME$, I);
      409     4771    3               END;
      410     4772    2           END;
      411     4773    1       CALL LLM$MON_SVC (LL#CLOSERU);
      412     4774    1       RETURN;
      413     4775        %EJECT;
PL6.E3A0      #001=LLD$MAP File=LLD$MAP.:E05TSI                                  WED 07/30/97 03:14 Page:14
      414     4776        /*I*
      415     4777           NAME: READRU
      416     4778           PURPOSE: Reads the 1024-word pieces of the RU records whose type is
      417     4779                    is B$RUKEY.TYPE into memory at TPTR$.  The size of the total
      418     4780                    record in words is returned in X.  TPTR$ is incremented to
      419     4781                    point to the end of it.
      420     4782        */
      421     4783    1   READRU: PROC;
      422     4784    2       X = 0;
      423     4785    2       B$RUKEY.PAGE = 0;
      424     4786    3       DO UNTIL TEMP<1024;
      425     4787    3           CALL LLM$MON_SVC (LL#GETMEM, 1024, TPTR$);
      426     4788    4           CALL LLM$MON_SVC (LL#READRU, TPTR$, 4095, B$RUKEY) WHENALTRETURN DO;
      427     4789    4               RETURN;
      428     4790    4               END;
      429     4791    3           B$RUKEY.PAGE = B$RUKEY.PAGE + 1;
      430     4792    3           TEMP = DCBADDR(DCBNUM(M$RU))->SIZE_FIELD/4;
      431     4793    3           X = X + TEMP;
      432     4794    3           TPTR$ = PINCRW (TPTR$, TEMP);
      433     4795    3           END;
      434     4796    2       RETURN;
      435     4797    2   END READRU;
      436     4798    1   END LLD$MAP;

PL6.E3A0      #001=LLD$MAP File=LLD$MAP.:E05TSI                                  WED 07/30/97 03:14 Page:15
--  Include file information  --

   B$OBJECT_C.:E05TOU  is referenced.
   LL_MACS_C.:E05TOU  is referenced.
   LL_SUBS_C.:E05TOU  is referenced.
   LL_DATA_R.:E05TOU  cannot be made into a system file and is referenced.
   CP_6.:E05TOU  cannot be made into a system file and is referenced.
   B$JIT_C.:E05TOU  was found in the system file and is never referenced.
   CP_6_C.:E05TOU  was found in the system file and is referenced.
      No diagnostics issued in procedure LLD$MAP.

   Procedure LLD$MAP requires 1188 words for executable code.
   Procedure LLD$MAP requires 26 words of local(AUTO) storage.

    No errors detected in file LLD$MAP.:E05TSI    .

PL6.E3A0      #001=LLD$MAP File=LLD$MAP.:E05TSI                                  WED 07/30/97 03:14 Page:16

 Object Unit name= LLD$MAP                                    File name= LLD$MAP.:E05TOU
 UTS= JUL 30 '97 03:14:13.28 WED                              Compiler= PL-6/E31         Sev=      00
 SharedLib= :SHARED_SYSTEM                                    Alt SharedLib=


    ****  Control sections  ****

 Sect   Type Bound  Init  Size OctSiz  Section name(segment info)
    0   DCB   even  none     0      0  M$UC
    1   Data  even  none    28     34  LLD$MAP
    2   DCB   even  none     0      0  M$RU
    3  RoData even  UTS    253    375  LLD$MAP
    4   Proc  even  none  1188   2244  LLD$MAP
    5  RoData even  none    26     32  LLD$MAP

    ****  Entry defs  ****

                              Check   Calling
                             calling  sequence
  Sect OctLoc Primary Altret sequence   type   Parms  Name
     4      0   yes            yes      Std        1  LLD$MAP

  ****  Entry refs  ****

         Check        Calling
        calling       sequence
Altret sequence SRef   type   Args  Name
 yes     yes           Std       4 LLM$MON_SVC
         yes           Std       0 LLS$SAYREFS
         yes           Std       3 LLI$BINHEX
         yes           Std       5 LLP$PUTLO
                       nStd      0 X66_AUTO_1
                       Std       0 B_CONSPOOL_D
                       nStd      0 X66_ARET
PL6.E3A0      #001=LLD$MAP File=LLD$MAP.:E05TSI                                  WED 07/30/97 03:14 Page:17

  ****  Data refs  ****

  Flags:  r = read only, s = secondary
Flgs Name                             Flgs Name                             Flgs Name
     M$UC                                  LL_LOBUF                              LL_FLAGS
     LL_DATA_START                         LL_PROC_START                         LL_STATE
     LL_UREF_NAME$                         LL_U_SYMREF$                          LL_U_ENTREF$
     LL_UREF_NAME_CUR                      LL_U_ENTREF_CUR                       LL_U_SYMREF_CUR
     LLS_INIT#                             LL_WIDE#                              LL_U_SECONDARY_SYMREF_COUNT
     LL_U_PRIMARY_SYMREF_COUNT             LL_U_SECONDARY_ENTREF_COUNT           LL_U_PRIMARY_ENTREF_COUNT
     LL_END_VALUE                          LL_END_LOC                       r    LL_HEAD_VERS_TXT
     LL_DNAME_VEC                          B$RUBIRTH                             LL_HEAD
     M$RU                                  B_VECTNIL

  ****  Segment refs  ****

  Flags:  r = read only, s = secondary
Flgs Name                             Flgs Name                             Flgs Name
     ISSID                                 ROSID
PL6.E3A0      #001=LLD$MAP File=LLD$MAP.:E05TSI                                  WED 07/30/97 03:14 Page:18


        1        1        /*M* LLD$MAP - Mapping routine of FEPLINK                           */
        2        2        /*T***********************************************************/
        3        3        /*T*                                                         */
        4        4        /*T* Copyright (c) Bull HN Information Systems Inc., 1997    */
        5        5        /*T*                                                         */
        6        6        /*T***********************************************************/
        7        7        /*X* PLM=4,STI=0,IND=4,CTI=3,DCI=4,ECI=4,CSI=0,THI=0,DTI=0,ENI=4,
        8        8             CLM=0,SQB,NTB,MOC,CCI=3,NLB,MCL=0,EDMC*/
        9        9        /*F* NAME:         LLD$MAP
       10       10             PURPOSE:      Performs mapping function.  Calls LLP$PUTLO
       11       11                           to bust ENTDEFS and SYMDEFS.  This routine's
       12       12                           sole responsibility is to format the head record
       13       13                           and control section entries.  After this is
       14       14                           done, it calls LLP$PUTLO to format the DEFs if
       15       15                           name or value was specified in the option list   */
       16       16        LLD$MAP: PROC (AVAIL$);

     16  4 000000   000000 700200 xent  LLD$MAP      TSX0  ! X66_AUTO_1
         4 000001   000032 000001                    ZERO    26,1

       17       17        %INCLUDE CP_6;
       18       98        %INCLUDE LL_DATA_R;
       19      134        %INCLUDE LL_SUBS_C;
       20      263        %INCLUDE LL_MACS_C;
       21      617        %INCLUDE B$OBJECT_C;
       22     4047        %B$DNAME;
       23     4066        %B$RUKEY (NAME=B$RUKEY,STCLASS = STATIC);
       24     4106        %B$RUBIRTH (STCLASS = SYMREF, COUNTINIT = " /**/ ");
       25     4115        %B$FEP_SECTION ( NAME = LL_SECTION );
       26     4154        %B$HEAD ( NAME = LL_HEAD,
       27     4155         STCLASS = SYMREF );
       28     4355        %LL$UNSATREF (NAME = B$FEP_UNSATREF);
       29     4368        %RU_FLAVORS;
       30     4374        %FPT_TIME ( FPTN = BIRTH_TIME,
       31     4375         SOURCE = UTS,
       32     4376         TSTAMP = B$RUBIRTH.CREATE_UTS,
PL6.E3A0      #001=LLD$MAP File=LLD$MAP.:E05TSI                                  WED 07/30/97 03:14 Page:19
       33     4377         DEST = LOCAL,
       34     4378         DATE = UTS_BUF.DATE,
       35     4379         TIME = UTS_BUF.TIME,
       36     4380         DAY = UTS_BUF.DAY );
       37     4399    1   DCL 1 UTS_BUF STATIC ALIGNED,
       38     4400    1         2 * CHAR(8) UNAL INIT('UTS   = '),
       39     4401    1         2 DATE CHAR(8) UNAL,
       40     4402    1         2 * CHAR(2) UNAL INIT('  '),
       41     4403    1         2 TIME CHAR(11) UNAL,
       42     4404    1         2 * CHAR(2) UNAL INIT('  '),
       43     4405    1         2 DAY CHAR(3) UNAL;
       44     4406    1   DCL UTS_BUFFER REDEF UTS_BUF CHAR(34) ALIGNED;
       45     4407    1   DCL M$RU DCB;
       46     4408    1   DCL AVAIL$ PTR;
       47     4409    1   DCL DEF$ PTR;
       48     4410    1   DCL I UBIN WORD ALIGNED;
       49     4411    1   DCL J UBIN WORD ALIGNED;
       50     4412    1   DCL X SBIN WORD ALIGNED;
       51     4413    1   DCL LLM$MON_SVC ENTRY(4) ALTRET;
       52     4414    1   DCL LLI$BINHEX ENTRY(3);
       53     4415    1   DCL LLP$PUTLO ENTRY(5);
       54     4416    1   DCL LLS$SAYREFS ENTRY;
       55     4417    1   DCL 1 STRING ALIGNED,
       56     4418    1         2 COUNT UBIN BYTE UNAL,
       57     4419    1         2 TEXT CHAR(6) UNAL;
       58     4420    1   DCL HEXSTR CHAR(6) UNAL;
       59     4421    1   DCL HEXSTR_ARY(0:5) REDEF HEXSTR CHAR(1);
       60     4422    1   DCL 1 SECT_ENTRY BASED ALIGNED,
       61     4423    1         2 OBJUNIT$ PTR,
       62     4424    1         2 SECTION$ PTR,
       63     4425    1         2 NEXT$ PTR;
       64     4426    1   DCL 1 B$STRING BASED UNAL,
       65     4427    1         2 COUNT UBIN BYTE UNAL,
       66     4428    1         2 TEXT CHAR(B$STRING.COUNT) UNAL;
       67     4429    1   DCL 1 FNAME BASED ALIGNED,
       68     4430    1         2 COUNT UBIN BYTE UNAL,
       69     4431    1         2 TEXT CHAR(FNAME.COUNT) UNAL;
PL6.E3A0      #001=LLD$MAP File=LLD$MAP.:E05TSI                                  WED 07/30/97 03:14 Page:20
       70     4432    1   DCL ANAME CHAR(8) BASED ALIGNED;
       71     4433    1   DCL TEMP SBIN WORD ALIGNED;
       72     4434    1   DCL STR1 CHAR(1) STATIC UNAL;
       73     4435    1   DCL STR5 CHAR(5) STATIC UNAL;
       74     4436    1   DCL STR6 CHAR(6) STATIC UNAL;
       75     4437    1   DCL NAME$ PTR;
       76     4438    1   DCL TPTR$ PTR;
       77     4439    1   DCL CHARACTER CHAR(1) BASED UNAL;
       78     4440    1   DCL SIZE_FIELD SBIN WORD BASED ALIGNED;
       79     4441    1   DCL VRPGS UBIN WORD ALIGNED;
       80     4442        %EJECT;
PL6.E3A0      #001=LLD$MAP File=LLD$MAP.:E05TSI                                  WED 07/30/97 03:14 Page:21
       81     4443    1       LL_STATE = LL#MAPPING;

   4443  4 000002   000004 235007                    LDA     4,DL
         4 000003   000000 755000 xsym               STA     LL_STATE

       82     4444    1       VRPGS = ( LL_HEAD.ROSIZE + LL_PAGESIZE - 1 ) / LL_PAGESIZE;

   4444  4 000004   000010 236000 xsym               LDQ     LL_HEAD+8
         4 000005   777777 376007                    ANQ     -1,DL
         4 000006   000377 036007                    ADLQ    255,DL
         4 000007   000010 772000                    QRL     8
         4 000010   200020 756100                    STQ     VRPGS,,AUTO

       83     4445    2       IF LL_DNAME_VEC.P$=ADDR(NIL) THEN DO;

   4445  4 000011   000001 236000 xsym               LDQ     LL_DNAME_VEC+1
         4 000012   000001 116000 xsym               CMPQ    B_VECTNIL+1
         4 000013   000056 601000 4                  TNZ     s:4452

       84     4446    2           TEMP = LL_HEAD.NRECSIZE;

   4446  4 000014   000006 236000 xsym               LDQ     LL_HEAD+6
         4 000015   777777 376007                    ANQ     -1,DL
         4 000016   200015 756100                    STQ     TEMP,,AUTO

       85     4447    2           CALL LLM$MON_SVC (LL#GETMEM,TEMP,AVAIL$);

   4447  4 000017   200003 236100                    LDQ     @AVAIL$,,AUTO
         4 000020   200026 756100                    STQ     VRPGS+6,,AUTO
         4 000021   200015 630500                    EPPR0   TEMP,,AUTO
         4 000022   200025 450500                    STP0    VRPGS+5,,AUTO
         4 000023   000000 236000 5                  LDQ     0
         4 000024   200024 756100                    STQ     VRPGS+4,,AUTO
         4 000025   200024 630500                    EPPR0   VRPGS+4,,AUTO
         4 000026   000021 631400 xsym               EPPR1   B_VECTNIL+17
         4 000027   000000 701000 xent               TSX1    LLM$MON_SVC
         4 000030   000000 011000                    NOP     0
PL6.E3A0      #001=LLD$MAP File=LLD$MAP.:E05TSI                                  WED 07/30/97 03:14 Page:22

       86     4448    2           B$RUKEY.TYPE = 1;

   4448  4 000031   000001 236003                    LDQ     1,DU
         4 000032   000000 552020 1                  STBQ    B$RUKEY,'20'O

       87     4449    2           CALL LLM$MON_SVC (LL#READRU, AVAIL$, TEMP*4-1, B$RUKEY);

   4449  4 000033   200015 235100                    LDA     TEMP,,AUTO
         4 000034   000002 735000                    ALS     2
         4 000035   000001 135007                    SBLA    1,DL
         4 000036   200024 755100                    STA     VRPGS+4,,AUTO
         4 000037   000002 236000 5                  LDQ     2
         4 000040   200031 756100                    STQ     VRPGS+9,,AUTO
         4 000041   200024 630500                    EPPR0   VRPGS+4,,AUTO
         4 000042   200030 450500                    STP0    VRPGS+8,,AUTO
         4 000043   200003 236100                    LDQ     @AVAIL$,,AUTO
         4 000044   000003 235000 5                  LDA     3
         4 000045   200026 757100                    STAQ    VRPGS+6,,AUTO
         4 000046   200026 630500                    EPPR0   VRPGS+6,,AUTO
         4 000047   000022 631400 xsym               EPPR1   B_VECTNIL+18
         4 000050   000000 701000 xent               TSX1    LLM$MON_SVC
         4 000051   000000 011000                    NOP     0

       88     4450    2           NAME$ = AVAIL$;

   4450  4 000052   200003 470500                    LDP0    @AVAIL$,,AUTO
         4 000053   000000 236100                    LDQ     0,,PR0
         4 000054   200016 756100                    STQ     NAME$,,AUTO

       89     4451    2           END;

   4451  4 000055   000057 710000 4                  TRA     s:4453

       90     4452    1       ELSE NAME$ = LL_DNAME_VEC.P$;

   4452  4 000056   200016 756100                    STQ     NAME$,,AUTO
PL6.E3A0      #001=LLD$MAP File=LLD$MAP.:E05TSI                                  WED 07/30/97 03:14 Page:23

       91     4453    1       CALL INSERT (LL_LOBUF,0,,'q','**********************');

   4453  4 000057   161000 236003                    LDQ     57856,DU
         4 000060   000000 552040 xsym               STBQ    LL_LOBUF,'40'O
         4 000061   040000 100400                    MLR     fill='040'O
         4 000062   000000 000026 3                  ADSC9   0                        cn=0,n=22
         4 000063   000000 200157 xsym               ADSC9   LL_LOBUF                 cn=1,n=111

       92     4454    1       CALL INSERT (LL_LOBUF,35,,'CP6 FEP LINK MAP  VERSION = ',

   4454  4 000064   000011 236000 xsym               LDQ     LL_HEAD+9
         4 000065   000033 772000                    QRL     27
         4 000066   040000 100400                    MLR     fill='040'O
         4 000067   000006 000034 3                  ADSC9   6                        cn=0,n=28
         4 000070   000010 600034 xsym               ADSC9   LL_LOBUF+8               cn=3,n=28
         4 000071   000002 736000                    QLS     2
         4 000072   040000 100406                    MLR     fill='040'O
         4 000073   000000 000004 xsym               ADSC9   LL_HEAD_VERS_TXT,Q       cn=0,n=4
         4 000074   000017 600061 xsym               ADSC9   LL_LOBUF+15              cn=3,n=49

       93     4455    1          LL_HEAD_VERS_TXT(LL_HEAD.VERSION#));
       94     4456    1       CALL INSERT (LL_LOBUF,80,,'**********************');

   4456  4 000075   040000 100400                    MLR     fill='040'O
         4 000076   000000 000026 3                  ADSC9   0                        cn=0,n=22
         4 000077   000024 000040 xsym               ADSC9   LL_LOBUF+20              cn=0,n=32

       95     4457    1       IF NOT LL_WIDE# THEN SUBSTR(LL_LOBUF,8) = SUBSTR(LL_LOBUF,23,64);

   4457  4 000100   000000 234000 xsym               SZN     LL_WIDE#
         4 000101   000105 604000 4                  TMI     s:4458

   4457  4 000102   040000 100400                    MLR     fill='040'O
         4 000103   000005 600100 xsym               ADSC9   LL_LOBUF+5               cn=3,n=64
         4 000104   000002 000150 xsym               ADSC9   LL_LOBUF+2               cn=0,n=104

PL6.E3A0      #001=LLD$MAP File=LLD$MAP.:E05TSI                                  WED 07/30/97 03:14 Page:24
       96     4458    1       CALL LLM$MON_SVC (LL#WRITELO);

   4458  4 000105   000004 630400 5                  EPPR0   4
         4 000106   000017 631400 xsym               EPPR1   B_VECTNIL+15
         4 000107   000000 701000 xent               TSX1    LLM$MON_SVC
         4 000110   000000 011000                    NOP     0

       97     4459    1       CALL INSERT (LL_LOBUF,0,,'A','**********************');

   4459  4 000111   101000 236003                    LDQ     33280,DU
         4 000112   000000 552040 xsym               STBQ    LL_LOBUF,'40'O
         4 000113   040000 100400                    MLR     fill='040'O
         4 000114   000000 000026 3                  ADSC9   0                        cn=0,n=22
         4 000115   000000 200157 xsym               ADSC9   LL_LOBUF                 cn=1,n=111

       98     4460    1       TPTR$ = PINCRW (DCBADDR(DCBNUM(M$RU)),8);

   4460  4 000116   000000 236007 xsym               LDQ     M$RU,DL
         4 000117   000005 470400 5                  LDP0    5
         4 000120   000000 471500                    LDP1    0,,PR0
         4 000121   100000 236106                    LDQ     0,QL,PR1
         4 000122   000010 036003                    ADLQ    8,DU
         4 000123   200017 756100                    STQ     TPTR$,,AUTO

       99     4461    1       CALL INSERT (LL_LOBUF,24,,'RF    = ',TPTR$->FNAME.TEXT);

   4461  4 000124   200017 473500                    LDP3    TPTR$,,AUTO
         4 000125   300000 236100                    LDQ     0,,PR3
         4 000126   000033 772000                    QRL     27
         4 000127   040000 100400                    MLR     fill='040'O
         4 000130   000015 000010 3                  ADSC9   13                       cn=0,n=8
         4 000131   000006 000010 xsym               ADSC9   LL_LOBUF+6               cn=0,n=8
         4 000132   000000 620006                    EAX0    0,QL
         4 000133   040000 100540                    MLR     fill='040'O
         4 000134   300000 200010                    ADSC9   0,,PR3                   cn=1,n=*X0
         4 000135   000010 000120 xsym               ADSC9   LL_LOBUF+8               cn=0,n=80

PL6.E3A0      #001=LLD$MAP File=LLD$MAP.:E05TSI                                  WED 07/30/97 03:14 Page:25
      100     4462    1       TPTR$ = PINCRW (TPTR$,8);

   4462  4 000136   200017 236100                    LDQ     TPTR$,,AUTO
         4 000137   000010 036003                    ADLQ    8,DU
         4 000140   200017 756100                    STQ     TPTR$,,AUTO

      101     4463    1       CALL INSERT (LL_LOBUF,64,,'ACN  = ',TPTR$->ANAME,

   4463  4 000141   040000 100400                    MLR     fill='040'O
         4 000142   000017 000007 3                  ADSC9   15                       cn=0,n=7
         4 000143   000020 000007 xsym               ADSC9   LL_LOBUF+16              cn=0,n=7
         4 000144   200017 470500                    LDP0    TPTR$,,AUTO
         4 000145   040000 100500                    MLR     fill='040'O
         4 000146   000000 000010                    ADSC9   0,,PR0                   cn=0,n=8
         4 000147   000021 600010 xsym               ADSC9   LL_LOBUF+17              cn=3,n=8
         4 000150   000040 236007                    LDQ     32,DL
         4 000151   000023 552004 xsym               STBQ    LL_LOBUF+19,'04'O
         4 000152   040000 100400                    MLR     fill='040'O
         4 000153   000000 000026 3                  ADSC9   0                        cn=0,n=22
         4 000154   000024 000040 xsym               ADSC9   LL_LOBUF+20              cn=0,n=32

      102     4464    1          ' ','**********************');
      103     4465    1       IF NOT LL_WIDE# THEN SUBSTR(LL_LOBUF,8) = SUBSTR(LL_LOBUF,23,64);

   4465  4 000155   000000 234000 xsym               SZN     LL_WIDE#
         4 000156   000162 604000 4                  TMI     s:4466

   4465  4 000157   040000 100400                    MLR     fill='040'O
         4 000160   000005 600100 xsym               ADSC9   LL_LOBUF+5               cn=3,n=64
         4 000161   000002 000150 xsym               ADSC9   LL_LOBUF+2               cn=0,n=104

      104     4466    1       CALL LLM$MON_SVC (LL#WRITELO);

   4466  4 000162   000004 630400 5                  EPPR0   4
         4 000163   000017 631400 xsym               EPPR1   B_VECTNIL+15
         4 000164   000000 701000 xent               TSX1    LLM$MON_SVC
         4 000165   000000 011000                    NOP     0
PL6.E3A0      #001=LLD$MAP File=LLD$MAP.:E05TSI                                  WED 07/30/97 03:14 Page:26

      105     4467    1       TEMP = LL_HEAD.SEV;

   4467  4 000166   000003 236000 xsym               LDQ     LL_HEAD+3
         4 000167   000033 772000                    QRL     27
         4 000170   200015 756100                    STQ     TEMP,,AUTO

      106     4468    1       CALL LLI$BINHEX (TEMP,1,STR1);

   4468  4 000171   000006 236000 5                  LDQ     6
         4 000172   200026 756100                    STQ     VRPGS+6,,AUTO
         4 000173   000007 236000 5                  LDQ     7
         4 000174   200025 756100                    STQ     VRPGS+5,,AUTO
         4 000175   200015 630500                    EPPR0   TEMP,,AUTO
         4 000176   200024 450500                    STP0    VRPGS+4,,AUTO
         4 000177   200024 630500                    EPPR0   VRPGS+4,,AUTO
         4 000200   000021 631400 xsym               EPPR1   B_VECTNIL+17
         4 000201   000000 701000 xent               TSX1    LLI$BINHEX
         4 000202   000000 011000                    NOP     0

      107     4469    1       CALL INSERT (LL_LOBUF,23,,' SEV   =     ',STR1);

   4469  4 000203   040000 100400                    MLR     fill='040'O
         4 000204   000021 000015 3                  ADSC9   17                       cn=0,n=13
         4 000205   000005 600015 xsym               ADSC9   LL_LOBUF+5               cn=3,n=13
         4 000206   040000 100400                    MLR     fill='040'O
         4 000207   000027 000001 1                  ADSC9   STR1                     cn=0,n=1
         4 000210   000011 000114 xsym               ADSC9   LL_LOBUF+9               cn=0,n=76

      108     4470    1       IF LL_FLAGS.BIAS_OU

   4470  4 000211   000000 236000 xsym               LDQ     LL_FLAGS
         4 000212   040000 316007                    CANQ    16384,DL
         4 000213   000231 600000 4                  TZE     s:4474

      109     4471    1       THEN
      110     4472    1           TEMP =((LL_HEAD.RDATA+LL_HEAD.RPROC+VRPGS+LL_PAGESIZE-1)/LL_PAGESIZE+3)/4;
PL6.E3A0      #001=LLD$MAP File=LLD$MAP.:E05TSI                                  WED 07/30/97 03:14 Page:27

   4472  4 000214   000001 236000 xsym               LDQ     LL_HEAD+1
         4 000215   000010 376000 5                  ANQ     8
         4 000216   200024 756100                    STQ     VRPGS+4,,AUTO
         4 000217   000002 236000 xsym               LDQ     LL_HEAD+2
         4 000220   000010 376000 5                  ANQ     8
         4 000221   200024 036100                    ADLQ    VRPGS+4,,AUTO
         4 000222   200020 036100                    ADLQ    VRPGS,,AUTO
         4 000223   000377 036007                    ADLQ    255,DL
         4 000224   000010 772000                    QRL     8
         4 000225   000003 036007                    ADLQ    3,DL
         4 000226   000002 772000                    QRL     2
         4 000227   200015 756100                    STQ     TEMP,,AUTO
         4 000230   000243 710000 4                  TRA     s:4475

      111     4473    1       ELSE
      112     4474    1           TEMP = (LL_HEAD.VPPGS+LL_HEAD.VDPGS+VRPGS+3)/4;

   4474  4 000231   000002 236000 xsym               LDQ     LL_HEAD+2
         4 000232   000026 772000                    QRL     22
         4 000233   200024 756100                    STQ     VRPGS+4,,AUTO
         4 000234   000001 236000 xsym               LDQ     LL_HEAD+1
         4 000235   000026 772000                    QRL     22
         4 000236   200024 036100                    ADLQ    VRPGS+4,,AUTO
         4 000237   200020 036100                    ADLQ    VRPGS,,AUTO
         4 000240   000003 036007                    ADLQ    3,DL
         4 000241   000002 772000                    QRL     2
         4 000242   200015 756100                    STQ     TEMP,,AUTO

      113     4475    1       CALL BINCHAR (STR5,TEMP);

   4475  4 000243   000000 301500                    BTD
         4 000244   200015 000004                    NDSC9   TEMP,,AUTO               cn=0,s=lsgnf,sf=0,n=4
         4 000245   000030 030005 1                  NDSC9   STR5                     cn=0,s=nosgn,sf=0,n=5

      114     4476    2       DO I = 0 TO 3;

PL6.E3A0      #001=LLD$MAP File=LLD$MAP.:E05TSI                                  WED 07/30/97 03:14 Page:28
   4476  4 000246   200006 450100                    STZ     I,,AUTO

      115     4477    2           IF (PINCRC(ADDR(STR5),I) -> CHARACTER = '0') THEN

   4477  4 000247   200006 235100                    LDA     I,,AUTO
         4 000250   040000 106405                    CMPC    fill='040'O
         4 000251   000030 000001 1                  ADSC9   STR5,A                   cn=0,n=1
         4 000252   000011 000001 5                  ADSC9   9                        cn=0,n=1
         4 000253   000260 601000 4                  TNZ     s:4480

      116     4478    2               PINCRC(ADDR(STR5),I) -> CHARACTER = ' ';

   4478  4 000254   040005 100400                    MLR     fill='040'O
         4 000255   000035 000001 xsym               ADSC9   B_VECTNIL+29             cn=0,n=1
         4 000256   000030 000001 1                  ADSC9   STR5,A                   cn=0,n=1
         4 000257   000262 710000 4                  TRA     s:4481

      117     4479    2           ELSE
      118     4480    2               I = 3;

   4480  4 000260   000003 236007                    LDQ     3,DL
         4 000261   200006 756100                    STQ     I,,AUTO

      119     4481    2           END;

   4481  4 000262   200006 235100                    LDA     I,,AUTO
         4 000263   000001 035007                    ADLA    1,DL
         4 000264   200006 755100                    STA     I,,AUTO
         4 000265   000004 115007                    CMPA    4,DL
         4 000266   000247 602000 4                  TNC     s:4477

      120     4482    1       CALL INSERT (LL_LOBUF,64,,'SIZE = ',STR5,' K  ',

   4482  4 000267   040000 100400                    MLR     fill='040'O
         4 000270   000025 000007 3                  ADSC9   21                       cn=0,n=7
         4 000271   000020 000007 xsym               ADSC9   LL_LOBUF+16              cn=0,n=7
         4 000272   040000 100400                    MLR     fill='040'O
PL6.E3A0      #001=LLD$MAP File=LLD$MAP.:E05TSI                                  WED 07/30/97 03:14 Page:29
         4 000273   000030 000005 1                  ADSC9   STR5                     cn=0,n=5
         4 000274   000021 600005 xsym               ADSC9   LL_LOBUF+17              cn=3,n=5
         4 000275   000027 236000 3                  LDQ     23
         4 000276   000023 756000 xsym               STQ     LL_LOBUF+19
         4 000277   040000 100400                    MLR     fill='040'O
         4 000300   000000 000026 3                  ADSC9   0                        cn=0,n=22
         4 000301   000024 000040 xsym               ADSC9   LL_LOBUF+20              cn=0,n=32

      121     4483    1          '**********************');
      122     4484    1       IF NOT LL_WIDE# THEN SUBSTR(LL_LOBUF,8) = SUBSTR(LL_LOBUF,23,64);

   4484  4 000302   000000 234000 xsym               SZN     LL_WIDE#
         4 000303   000307 604000 4                  TMI     s:4485

   4484  4 000304   040000 100400                    MLR     fill='040'O
         4 000305   000005 600100 xsym               ADSC9   LL_LOBUF+5               cn=3,n=64
         4 000306   000002 000150 xsym               ADSC9   LL_LOBUF+2               cn=0,n=104

      123     4485    1       CALL LLM$MON_SVC (LL#WRITELO);

   4485  4 000307   000004 630400 5                  EPPR0   4
         4 000310   000017 631400 xsym               EPPR1   B_VECTNIL+15
         4 000311   000000 701000 xent               TSX1    LLM$MON_SVC
         4 000312   000000 011000                    NOP     0

      124     4486    1       TEMP = LL_HEAD.START;

   4486  4 000313   000003 236000 xsym               LDQ     LL_HEAD+3
         4 000314   000010 376000 5                  ANQ     8
         4 000315   200015 756100                    STQ     TEMP,,AUTO

      125     4487    1       CALL LLI$BINHEX (TEMP,5,STR5);

   4487  4 000316   000012 236000 5                  LDQ     10
         4 000317   200026 756100                    STQ     VRPGS+6,,AUTO
         4 000320   000013 236000 5                  LDQ     11
         4 000321   200025 756100                    STQ     VRPGS+5,,AUTO
PL6.E3A0      #001=LLD$MAP File=LLD$MAP.:E05TSI                                  WED 07/30/97 03:14 Page:30
         4 000322   200015 630500                    EPPR0   TEMP,,AUTO
         4 000323   200024 450500                    STP0    VRPGS+4,,AUTO
         4 000324   200024 630500                    EPPR0   VRPGS+4,,AUTO
         4 000325   000021 631400 xsym               EPPR1   B_VECTNIL+17
         4 000326   000000 701000 xent               TSX1    LLI$BINHEX
         4 000327   000000 011000                    NOP     0

      126     4488    1       CALL INSERT (LL_LOBUF,24,,'START = ',STR5);

   4488  4 000330   000030 237000 3                  LDAQ    24
         4 000331   000006 755000 xsym               STA     LL_LOBUF+6
         4 000332   000007 756000 xsym               STQ     LL_LOBUF+7
         4 000333   040000 100400                    MLR     fill='040'O
         4 000334   000030 000005 1                  ADSC9   STR5                     cn=0,n=5
         4 000335   000010 000120 xsym               ADSC9   LL_LOBUF+8               cn=0,n=80

      127     4489    1       IF LL_FLAGS.BIAS_OU

   4489  4 000336   000000 236000 xsym               LDQ     LL_FLAGS
         4 000337   040000 316007                    CANQ    16384,DL
         4 000340   000351 600000 4                  TZE     s:4498

      128     4490    1       THEN
      129     4491    2       DO;

      130     4492    2           IF LL_DATA_START > LL_PROC_START

   4492  4 000341   000000 236000 xsym               LDQ     LL_PROC_START
         4 000342   000000 116000 xsym               CMPQ    LL_DATA_START
         4 000343   000346 603000 4                  TRC     s:4495

      131     4493    2           THEN
      132     4494    2               TEMP = LL_PROC_START;

   4494  4 000344   200015 756100                    STQ     TEMP,,AUTO
         4 000345   000354 710000 4                  TRA     s:4499

PL6.E3A0      #001=LLD$MAP File=LLD$MAP.:E05TSI                                  WED 07/30/97 03:14 Page:31
      133     4495    2           ELSE TEMP = LL_DATA_START;

   4495  4 000346   000000 235000 xsym               LDA     LL_DATA_START
         4 000347   200015 755100                    STA     TEMP,,AUTO

      134     4496    2           END;

   4496  4 000350   000354 710000 4                  TRA     s:4499

      135     4497    1       ELSE
      136     4498    1           TEMP = LL_HEAD.BIAS;

   4498  4 000351   000023 236000 xsym               LDQ     LL_HEAD+19
         4 000352   000010 376000 5                  ANQ     8
         4 000353   200015 756100                    STQ     TEMP,,AUTO

      137     4499    1       CALL LLI$BINHEX (TEMP,5,STR5);

   4499  4 000354   000012 236000 5                  LDQ     10
         4 000355   200026 756100                    STQ     VRPGS+6,,AUTO
         4 000356   000013 236000 5                  LDQ     11
         4 000357   200025 756100                    STQ     VRPGS+5,,AUTO
         4 000360   200015 630500                    EPPR0   TEMP,,AUTO
         4 000361   200024 450500                    STP0    VRPGS+4,,AUTO
         4 000362   200024 630500                    EPPR0   VRPGS+4,,AUTO
         4 000363   000021 631400 xsym               EPPR1   B_VECTNIL+17
         4 000364   000000 701000 xent               TSX1    LLI$BINHEX
         4 000365   000000 011000                    NOP     0

      138     4500    1       CALL INSERT (LL_LOBUF,64,,'BIAS = ',STR5,'    ',

   4500  4 000366   040000 100400                    MLR     fill='040'O
         4 000367   000032 000007 3                  ADSC9   26                       cn=0,n=7
         4 000370   000020 000007 xsym               ADSC9   LL_LOBUF+16              cn=0,n=7
         4 000371   040000 100400                    MLR     fill='040'O
         4 000372   000030 000005 1                  ADSC9   STR5                     cn=0,n=5
         4 000373   000021 600005 xsym               ADSC9   LL_LOBUF+17              cn=3,n=5
PL6.E3A0      #001=LLD$MAP File=LLD$MAP.:E05TSI                                  WED 07/30/97 03:14 Page:32
         4 000374   000023 236000 3                  LDQ     19
         4 000375   000023 756000 xsym               STQ     LL_LOBUF+19
         4 000376   040000 100400                    MLR     fill='040'O
         4 000377   000000 000026 3                  ADSC9   0                        cn=0,n=22
         4 000400   000024 000040 xsym               ADSC9   LL_LOBUF+20              cn=0,n=32

      139     4501    1          '**********************');
      140     4502    1       IF NOT LL_WIDE# THEN SUBSTR(LL_LOBUF,8) = SUBSTR(LL_LOBUF,23,64);

   4502  4 000401   000000 234000 xsym               SZN     LL_WIDE#
         4 000402   000406 604000 4                  TMI     s:4503

   4502  4 000403   040000 100400                    MLR     fill='040'O
         4 000404   000005 600100 xsym               ADSC9   LL_LOBUF+5               cn=3,n=64
         4 000405   000002 000150 xsym               ADSC9   LL_LOBUF+2               cn=0,n=104

      141     4503    1       CALL LLM$MON_SVC (LL#WRITELO);

   4503  4 000406   000004 630400 5                  EPPR0   4
         4 000407   000017 631400 xsym               EPPR1   B_VECTNIL+15
         4 000410   000000 701000 xent               TSX1    LLM$MON_SVC
         4 000411   000000 011000                    NOP     0

      142     4504    1       CALL M$TIME ( BIRTH_TIME );

   4504  4 000412   000002 630400 1                  EPPR0   BIRTH_TIME
         4 000413   020004 713400                    CLIMB   8196
         4 000414   402000 401760                    pmme    nvectors=5

      143     4505    1       CALL INSERT (LL_LOBUF,0,,'C********************** ',

   4505  4 000415   040000 100400                    MLR     fill='040'O
         4 000416   000034 000030 3                  ADSC9   28                       cn=0,n=24
         4 000417   000000 000030 xsym               ADSC9   LL_LOBUF                 cn=0,n=24
         4 000420   040000 100400                    MLR     fill='040'O
         4 000421   000016 000042 1                  ADSC9   UTS_BUF                  cn=0,n=34
         4 000422   000006 000130 xsym               ADSC9   LL_LOBUF+6               cn=0,n=88
PL6.E3A0      #001=LLD$MAP File=LLD$MAP.:E05TSI                                  WED 07/30/97 03:14 Page:33

      144     4506    1          UTS_BUFFER);
      145     4507    1       CALL INSERT (LL_LOBUF,80,,'**********************');

   4507  4 000423   040000 100400                    MLR     fill='040'O
         4 000424   000000 000026 3                  ADSC9   0                        cn=0,n=22
         4 000425   000024 000040 xsym               ADSC9   LL_LOBUF+20              cn=0,n=32

      146     4508    1       IF NOT LL_WIDE# THEN SUBSTR(LL_LOBUF,8) = SUBSTR(LL_LOBUF,23,64);

   4508  4 000426   000000 234000 xsym               SZN     LL_WIDE#
         4 000427   000433 604000 4                  TMI     s:4509

   4508  4 000430   040000 100400                    MLR     fill='040'O
         4 000431   000005 600100 xsym               ADSC9   LL_LOBUF+5               cn=3,n=64
         4 000432   000002 000150 xsym               ADSC9   LL_LOBUF+2               cn=0,n=104

      147     4509    1       CALL LLM$MON_SVC (LL#WRITELO);

   4509  4 000433   000004 630400 5                  EPPR0   4
         4 000434   000017 631400 xsym               EPPR1   B_VECTNIL+15
         4 000435   000000 701000 xent               TSX1    LLM$MON_SVC
         4 000436   000000 011000                    NOP     0

      148     4510    1       LL_LOBUF = 'CSHARED LIBRARY';

   4510  4 000437   040000 100400                    MLR     fill='040'O
         4 000440   000042 000017 3                  ADSC9   34                       cn=0,n=15
         4 000441   000000 000160 xsym               ADSC9   LL_LOBUF                 cn=0,n=112

      149     4511    1       CALL LLM$MON_SVC(LL#WRITELO);

   4511  4 000442   000004 630400 5                  EPPR0   4
         4 000443   000017 631400 xsym               EPPR1   B_VECTNIL+15
         4 000444   000000 701000 xent               TSX1    LLM$MON_SVC
         4 000445   000000 011000                    NOP     0

PL6.E3A0      #001=LLD$MAP File=LLD$MAP.:E05TSI                                  WED 07/30/97 03:14 Page:34
      150     4512    1       IF LL_HEAD.LIBNAME.TXT ~= ' '

   4512  4 000446   040000 106400                    CMPC    fill='040'O
         4 000447   000030 200037 xsym               ADSC9   LL_HEAD+24               cn=1,n=31
         4 000450   000035 000001 xsym               ADSC9   B_VECTNIL+29             cn=0,n=1
         4 000451   000463 600000 4                  TZE     s:4518

      151     4513    1       THEN
      152     4514    2       DO;

      153     4515    2           CALL CONCAT(LL_LOBUF, 'C', LL_HEAD.LIBNAME.TXT);

   4515  4 000452   103000 236003                    LDQ     34304,DU
         4 000453   000000 756000 xsym               STQ     LL_LOBUF
         4 000454   040000 100400                    MLR     fill='040'O
         4 000455   000030 200037 xsym               ADSC9   LL_HEAD+24               cn=1,n=31
         4 000456   000000 200157 xsym               ADSC9   LL_LOBUF                 cn=1,n=111

      154     4516    2           CALL LLM$MON_SVC(LL#WRITELO);

   4516  4 000457   000004 630400 5                  EPPR0   4
         4 000460   000017 631400 xsym               EPPR1   B_VECTNIL+15
         4 000461   000000 701000 xent               TSX1    LLM$MON_SVC
         4 000462   000000 011000                    NOP     0

      155     4517    2           END;

      156     4518    2       IF (LL_FLAGS.NAME# | LL_FLAGS.VALUE# | LL_FLAGS.UDEF#) THEN DO;

   4518  4 000463   000000 236000 xsym               LDQ     LL_FLAGS
         4 000464   000015 736000                    QLS     13
         4 000465   400000 376003                    ANQ     -131072,DU
         4 000466   200024 756100                    STQ     VRPGS+4,,AUTO
         4 000467   000000 236000 xsym               LDQ     LL_FLAGS
         4 000470   000014 736000                    QLS     12
         4 000471   400000 376003                    ANQ     -131072,DU
         4 000472   200024 276100                    ORQ     VRPGS+4,,AUTO
PL6.E3A0      #001=LLD$MAP File=LLD$MAP.:E05TSI                                  WED 07/30/97 03:14 Page:35
         4 000473   200025 756100                    STQ     VRPGS+5,,AUTO
         4 000474   000000 236000 xsym               LDQ     LL_FLAGS
         4 000475   000016 736000                    QLS     14
         4 000476   400000 376003                    ANQ     -131072,DU
         4 000477   200026 756100                    STQ     VRPGS+6,,AUTO
         4 000500   200025 236100                    LDQ     VRPGS+5,,AUTO
         4 000501   200026 276100                    ORQ     VRPGS+6,,AUTO
         4 000502   000602 600000 4                  TZE     s:4539

      157     4519    2           LL_LOBUF =
              4519                    'B<HEX_ADDRESS><CON_DEF><SOURCE><USED><MULT_DEF><DEFINITION_NAME>';

   4519  4 000503   040000 100400                    MLR     fill='040'O
         4 000504   000046 000100 3                  ADSC9   38                       cn=0,n=64
         4 000505   000000 000160 xsym               ADSC9   LL_LOBUF                 cn=0,n=112

      158     4520    2           CALL LLM$MON_SVC (LL#WRITELO);

   4520  4 000506   000004 630400 5                  EPPR0   4
         4 000507   000017 631400 xsym               EPPR1   B_VECTNIL+15
         4 000510   000000 701000 xent               TSX1    LLM$MON_SVC
         4 000511   000000 011000                    NOP     0

      159     4521    2           LL_LOBUF =
              4521                    'A    <CON_DEF>   <USED>    <MULT_DEF>                      <SOURCE>';

   4521  4 000512   040000 100400                    MLR     fill='040'O
         4 000513   000066 000103 3                  ADSC9   54                       cn=0,n=67
         4 000514   000000 000160 xsym               ADSC9   LL_LOBUF                 cn=0,n=112

      160     4522    2           CALL LLM$MON_SVC (LL#WRITELO);

   4522  4 000515   000004 630400 5                  EPPR0   4
         4 000516   000017 631400 xsym               EPPR1   B_VECTNIL+15
         4 000517   000000 701000 xent               TSX1    LLM$MON_SVC
         4 000520   000000 011000                    NOP     0

PL6.E3A0      #001=LLD$MAP File=LLD$MAP.:E05TSI                                  WED 07/30/97 03:14 Page:36
      161     4523    2           LL_LOBUF =
              4523                    'AYES:    =       <BLANK>       +          OBJECT FILE      <BLANK>';

   4523  4 000521   040000 100400                    MLR     fill='040'O
         4 000522   000107 000102 3                  ADSC9   71                       cn=0,n=66
         4 000523   000000 000160 xsym               ADSC9   LL_LOBUF                 cn=0,n=112

      162     4524    2           CALL LLM$MON_SVC (LL#WRITELO);

   4524  4 000524   000004 630400 5                  EPPR0   4
         4 000525   000017 631400 xsym               EPPR1   B_VECTNIL+15
         4 000526   000000 701000 xent               TSX1    LLM$MON_SVC
         4 000527   000000 011000                    NOP     0

      163     4525    2           LL_LOBUF = 'ANO : <BLANK>      *        <BLANK>       SHARED LIB.        S'
              4525                    ;

   4525  4 000530   040000 100400                    MLR     fill='040'O
         4 000531   000130 000077 3                  ADSC9   88                       cn=0,n=63
         4 000532   000000 000160 xsym               ADSC9   LL_LOBUF                 cn=0,n=112

      164     4526    2           CALL LLM$MON_SVC (LL#WRITELO);

   4526  4 000533   000004 630400 5                  EPPR0   4
         4 000534   000017 631400 xsym               EPPR1   B_VECTNIL+15
         4 000535   000000 701000 xent               TSX1    LLM$MON_SVC
         4 000536   000000 011000                    NOP     0

      165     4527    2           LL_LOBUF = 'A                                         ALT. SHARED LIB.   A'
              4527                    ;

   4527  4 000537   040000 100400                    MLR     fill='040'O
         4 000540   000150 000077 3                  ADSC9   104                      cn=0,n=63
         4 000541   000000 000160 xsym               ADSC9   LL_LOBUF                 cn=0,n=112

      166     4528    2           CALL LLM$MON_SVC (LL#WRITELO);

PL6.E3A0      #001=LLD$MAP File=LLD$MAP.:E05TSI                                  WED 07/30/97 03:14 Page:37
   4528  4 000542   000004 630400 5                  EPPR0   4
         4 000543   000017 631400 xsym               EPPR1   B_VECTNIL+15
         4 000544   000000 701000 xent               TSX1    LLM$MON_SVC
         4 000545   000000 011000                    NOP     0

      167     4529    2           LL_LOBUF = 'A                                         PRIVATE LIB.       P'
              4529                    ;

   4529  4 000546   040000 100400                    MLR     fill='040'O
         4 000547   000170 000077 3                  ADSC9   120                      cn=0,n=63
         4 000550   000000 000160 xsym               ADSC9   LL_LOBUF                 cn=0,n=112

      168     4530    2           CALL LLM$MON_SVC (LL#WRITELO);

   4530  4 000551   000004 630400 5                  EPPR0   4
         4 000552   000017 631400 xsym               EPPR1   B_VECTNIL+15
         4 000553   000000 701000 xent               TSX1    LLM$MON_SVC
         4 000554   000000 011000                    NOP     0

      169     4531    2           LL_LOBUF = 'A                                         LINKER SUPPLIED    L'
              4531                    ;

   4531  4 000555   040000 100400                    MLR     fill='040'O
         4 000556   000210 000077 3                  ADSC9   136                      cn=0,n=63
         4 000557   000000 000160 xsym               ADSC9   LL_LOBUF                 cn=0,n=112

      170     4532    2           CALL LLM$MON_SVC (LL#WRITELO);

   4532  4 000560   000004 630400 5                  EPPR0   4
         4 000561   000017 631400 xsym               EPPR1   B_VECTNIL+15
         4 000562   000000 701000 xent               TSX1    LLM$MON_SVC
         4 000563   000000 011000                    NOP     0

      171     4533    2           LL_LOBUF = 'A                                         RUN FILE           R'
              4533                    ;

   4533  4 000564   040000 100400                    MLR     fill='040'O
PL6.E3A0      #001=LLD$MAP File=LLD$MAP.:E05TSI                                  WED 07/30/97 03:14 Page:38
         4 000565   000230 000077 3                  ADSC9   152                      cn=0,n=63
         4 000566   000000 000160 xsym               ADSC9   LL_LOBUF                 cn=0,n=112

      172     4534    2           CALL LLM$MON_SVC (LL#WRITELO);

   4534  4 000567   000004 630400 5                  EPPR0   4
         4 000570   000017 631400 xsym               EPPR1   B_VECTNIL+15
         4 000571   000000 701000 xent               TSX1    LLM$MON_SVC
         4 000572   000000 011000                    NOP     0

      173     4535    2           LL_LOBUF = 'D                                         REMOVED            -'
              4535                    ;

   4535  4 000573   040000 100400                    MLR     fill='040'O
         4 000574   000250 000077 3                  ADSC9   168                      cn=0,n=63
         4 000575   000000 000160 xsym               ADSC9   LL_LOBUF                 cn=0,n=112

      174     4536
      175     4537    2           CALL LLM$MON_SVC (LL#WRITELO);

   4537  4 000576   000004 630400 5                  EPPR0   4
         4 000577   000017 631400 xsym               EPPR1   B_VECTNIL+15
         4 000600   000000 701000 xent               TSX1    LLM$MON_SVC
         4 000601   000000 011000                    NOP     0

      176     4538    2           END;

      177     4539    1       LL_LOBUF = 'A*********** PROTECTION TYPES ***********';

   4539  4 000602   040000 100400                    MLR     fill='040'O
         4 000603   000270 000051 3                  ADSC9   184                      cn=0,n=41
         4 000604   000000 000160 xsym               ADSC9   LL_LOBUF                 cn=0,n=112

      178     4540    1       CALL LLM$MON_SVC (LL#WRITELO);

   4540  4 000605   000004 630400 5                  EPPR0   4
         4 000606   000017 631400 xsym               EPPR1   B_VECTNIL+15
PL6.E3A0      #001=LLD$MAP File=LLD$MAP.:E05TSI                                  WED 07/30/97 03:14 Page:39
         4 000607   000000 701000 xent               TSX1    LLM$MON_SVC
         4 000610   000000 011000                    NOP     0

      179     4541    1       LL_LOBUF = 'A            DATA   PROCEDURE   READ ONLY';

   4541  4 000611   040000 100400                    MLR     fill='040'O
         4 000612   000303 000051 3                  ADSC9   195                      cn=0,n=41
         4 000613   000000 000160 xsym               ADSC9   LL_LOBUF                 cn=0,n=112

      180     4542    1       CALL LLM$MON_SVC (LL#WRITELO);

   4542  4 000614   000004 630400 5                  EPPR0   4
         4 000615   000017 631400 xsym               EPPR1   B_VECTNIL+15
         4 000616   000000 701000 xent               TSX1    LLM$MON_SVC
         4 000617   000000 011000                    NOP     0

      181     4543    1       LL_LOBUF = 'A            ----   ---------   ---------';

   4543  4 000620   040000 100400                    MLR     fill='040'O
         4 000621   000316 000051 3                  ADSC9   206                      cn=0,n=41
         4 000622   000000 000160 xsym               ADSC9   LL_LOBUF                 cn=0,n=112

      182     4544    1       CALL LLM$MON_SVC (LL#WRITELO);

   4544  4 000623   000004 630400 5                  EPPR0   4
         4 000624   000017 631400 xsym               EPPR1   B_VECTNIL+15
         4 000625   000000 701000 xent               TSX1    LLM$MON_SVC
         4 000626   000000 011000                    NOP     0

      183     4545    1       LL_LOBUF = 'AHIGH:';

   4545  4 000627   040000 100400                    MLR     fill='040'O
         4 000630   000331 000006 3                  ADSC9   217                      cn=0,n=6
         4 000631   000000 000160 xsym               ADSC9   LL_LOBUF                 cn=0,n=112

      184     4546    2       IF ( LL_HEAD.VDPGS > 0 ) THEN DO;

PL6.E3A0      #001=LLD$MAP File=LLD$MAP.:E05TSI                                  WED 07/30/97 03:14 Page:40
   4546  4 000632   000002 236000 xsym               LDQ     LL_HEAD+2
         4 000633   777760 316003                    CANQ    -16,DU
         4 000634   000663 600000 4                  TZE     s:4553

      185     4547    2           TEMP = LL_DATA_START+LL_HEAD.RDATA;

   4547  4 000635   000002 236000 xsym               LDQ     LL_HEAD+2
         4 000636   000010 376000 5                  ANQ     8
         4 000637   000000 036000 xsym               ADLQ    LL_DATA_START
         4 000640   200015 756100                    STQ     TEMP,,AUTO

      186     4548    2           IF LL_FLAGS.BIAS_OU

   4548  4 000641   000000 236000 xsym               LDQ     LL_FLAGS
         4 000642   040000 316007                    CANQ    16384,DL
         4 000643   000646 600000 4                  TZE     s:4550

      187     4549    2           THEN TEMP = LL_END_VALUE;

   4549  4 000644   000000 235000 xsym               LDA     LL_END_VALUE
         4 000645   200015 755100                    STA     TEMP,,AUTO

      188     4550    2           CALL LLI$BINHEX (TEMP,5,STR5);

   4550  4 000646   000012 236000 5                  LDQ     10
         4 000647   200026 756100                    STQ     VRPGS+6,,AUTO
         4 000650   000013 236000 5                  LDQ     11
         4 000651   200025 756100                    STQ     VRPGS+5,,AUTO
         4 000652   200015 630500                    EPPR0   TEMP,,AUTO
         4 000653   200024 450500                    STP0    VRPGS+4,,AUTO
         4 000654   200024 630500                    EPPR0   VRPGS+4,,AUTO
         4 000655   000021 631400 xsym               EPPR1   B_VECTNIL+17
         4 000656   000000 701000 xent               TSX1    LLI$BINHEX
         4 000657   000000 011000                    NOP     0

      189     4551    2           CALL INSERT (LL_LOBUF,12,,STR5);

PL6.E3A0      #001=LLD$MAP File=LLD$MAP.:E05TSI                                  WED 07/30/97 03:14 Page:41
   4551  4 000660   040000 100400                    MLR     fill='040'O
         4 000661   000030 000005 1                  ADSC9   STR5                     cn=0,n=5
         4 000662   000003 000144 xsym               ADSC9   LL_LOBUF+3               cn=0,n=100

      190     4552    2           END;

      191     4553    2       IF ( LL_HEAD.VPPGS > 0 ) THEN DO;

   4553  4 000663   000001 236000 xsym               LDQ     LL_HEAD+1
         4 000664   777760 316003                    CANQ    -16,DU
         4 000665   000716 600000 4                  TZE     s:4560

      192     4554    2           IF LL_FLAGS.BIAS_OU

   4554  4 000666   000000 236000 xsym               LDQ     LL_FLAGS
         4 000667   040000 316007                    CANQ    16384,DL
         4 000670   000674 600000 4                  TZE     s:4556

      193     4555    2           THEN TEMP = LL_END_LOC;

   4555  4 000671   000000 235000 xsym               LDA     LL_END_LOC
         4 000672   200015 755100                    STA     TEMP,,AUTO
         4 000673   000701 710000 4                  TRA     s:4557

      194     4556    2           ELSE TEMP = LL_PROC_START + LL_HEAD.RPROC - 1;

   4556  4 000674   000001 236000 xsym               LDQ     LL_HEAD+1
         4 000675   000010 376000 5                  ANQ     8
         4 000676   000000 036000 xsym               ADLQ    LL_PROC_START
         4 000677   000001 136007                    SBLQ    1,DL
         4 000700   200015 756100                    STQ     TEMP,,AUTO

      195     4557    2           CALL LLI$BINHEX (TEMP,5,STR5);

   4557  4 000701   000012 236000 5                  LDQ     10
         4 000702   200026 756100                    STQ     VRPGS+6,,AUTO
         4 000703   000013 236000 5                  LDQ     11
PL6.E3A0      #001=LLD$MAP File=LLD$MAP.:E05TSI                                  WED 07/30/97 03:14 Page:42
         4 000704   200025 756100                    STQ     VRPGS+5,,AUTO
         4 000705   200015 630500                    EPPR0   TEMP,,AUTO
         4 000706   200024 450500                    STP0    VRPGS+4,,AUTO
         4 000707   200024 630500                    EPPR0   VRPGS+4,,AUTO
         4 000710   000021 631400 xsym               EPPR1   B_VECTNIL+17
         4 000711   000000 701000 xent               TSX1    LLI$BINHEX
         4 000712   000000 011000                    NOP     0

      196     4558    2           CALL INSERT (LL_LOBUF,24,,STR5);

   4558  4 000713   040000 100400                    MLR     fill='040'O
         4 000714   000030 000005 1                  ADSC9   STR5                     cn=0,n=5
         4 000715   000006 000130 xsym               ADSC9   LL_LOBUF+6               cn=0,n=88

      197     4559    2           END;

      198     4560    2       IF ( LL_HEAD.ROSIZE > 0 ) THEN DO;

   4560  4 000716   000010 720000 xsym               LXL0    LL_HEAD+8
         4 000717   000741 600000 4                  TZE     s:4565

      199     4561    2           TEMP = 4096 + LL_HEAD.ROSIZE - 1;

   4561  4 000720   000010 236000 xsym               LDQ     LL_HEAD+8
         4 000721   777777 376007                    ANQ     -1,DL
         4 000722   007777 036007                    ADLQ    4095,DL
         4 000723   200015 756100                    STQ     TEMP,,AUTO

      200     4562    2           CALL LLI$BINHEX (TEMP,5,STR5);

   4562  4 000724   000012 236000 5                  LDQ     10
         4 000725   200026 756100                    STQ     VRPGS+6,,AUTO
         4 000726   000013 236000 5                  LDQ     11
         4 000727   200025 756100                    STQ     VRPGS+5,,AUTO
         4 000730   200015 630500                    EPPR0   TEMP,,AUTO
         4 000731   200024 450500                    STP0    VRPGS+4,,AUTO
         4 000732   200024 630500                    EPPR0   VRPGS+4,,AUTO
PL6.E3A0      #001=LLD$MAP File=LLD$MAP.:E05TSI                                  WED 07/30/97 03:14 Page:43
         4 000733   000021 631400 xsym               EPPR1   B_VECTNIL+17
         4 000734   000000 701000 xent               TSX1    LLI$BINHEX
         4 000735   000000 011000                    NOP     0

      201     4563    2           CALL INSERT (LL_LOBUF,36,,STR5);

   4563  4 000736   040000 100400                    MLR     fill='040'O
         4 000737   000030 000005 1                  ADSC9   STR5                     cn=0,n=5
         4 000740   000011 000114 xsym               ADSC9   LL_LOBUF+9               cn=0,n=76

      202     4564    2           END;

      203     4565    1       CALL LLM$MON_SVC (LL#WRITELO);

   4565  4 000741   000004 630400 5                  EPPR0   4
         4 000742   000017 631400 xsym               EPPR1   B_VECTNIL+15
         4 000743   000000 701000 xent               TSX1    LLM$MON_SVC
         4 000744   000000 011000                    NOP     0

      204     4566    1       LL_LOBUF = 'ALOW :';

   4566  4 000745   040000 100400                    MLR     fill='040'O
         4 000746   000333 000006 3                  ADSC9   219                      cn=0,n=6
         4 000747   000000 000160 xsym               ADSC9   LL_LOBUF                 cn=0,n=112

      205     4567    1       TEMP = LL_DATA_START;

   4567  4 000750   000000 235000 xsym               LDA     LL_DATA_START
         4 000751   200015 755100                    STA     TEMP,,AUTO

      206     4568    2       IF ( LL_HEAD.VDPGS > 0 ) THEN DO;

   4568  4 000752   000002 236000 xsym               LDQ     LL_HEAD+2
         4 000753   777760 316003                    CANQ    -16,DU
         4 000754   000772 600000 4                  TZE     s:4572

      207     4569    2           CALL LLI$BINHEX (TEMP,5,STR5);
PL6.E3A0      #001=LLD$MAP File=LLD$MAP.:E05TSI                                  WED 07/30/97 03:14 Page:44

   4569  4 000755   000012 236000 5                  LDQ     10
         4 000756   200026 756100                    STQ     VRPGS+6,,AUTO
         4 000757   000013 236000 5                  LDQ     11
         4 000760   200025 756100                    STQ     VRPGS+5,,AUTO
         4 000761   200015 630500                    EPPR0   TEMP,,AUTO
         4 000762   200024 450500                    STP0    VRPGS+4,,AUTO
         4 000763   200024 630500                    EPPR0   VRPGS+4,,AUTO
         4 000764   000021 631400 xsym               EPPR1   B_VECTNIL+17
         4 000765   000000 701000 xent               TSX1    LLI$BINHEX
         4 000766   000000 011000                    NOP     0

      208     4570    2           CALL INSERT (LL_LOBUF,12,,STR5);

   4570  4 000767   040000 100400                    MLR     fill='040'O
         4 000770   000030 000005 1                  ADSC9   STR5                     cn=0,n=5
         4 000771   000003 000144 xsym               ADSC9   LL_LOBUF+3               cn=0,n=100

      209     4571    2           END;

      210     4572    2       IF ( LL_HEAD.VPPGS > 0 ) THEN DO;

   4572  4 000772   000001 236000 xsym               LDQ     LL_HEAD+1
         4 000773   777760 316003                    CANQ    -16,DU
         4 000774   001014 600000 4                  TZE     s:4577

      211     4573    2           TEMP = LL_PROC_START;

   4573  4 000775   000000 235000 xsym               LDA     LL_PROC_START
         4 000776   200015 755100                    STA     TEMP,,AUTO

      212     4574    2           CALL LLI$BINHEX (TEMP,5,STR5);

   4574  4 000777   000012 236000 5                  LDQ     10
         4 001000   200026 756100                    STQ     VRPGS+6,,AUTO
         4 001001   000013 236000 5                  LDQ     11
         4 001002   200025 756100                    STQ     VRPGS+5,,AUTO
PL6.E3A0      #001=LLD$MAP File=LLD$MAP.:E05TSI                                  WED 07/30/97 03:14 Page:45
         4 001003   200015 630500                    EPPR0   TEMP,,AUTO
         4 001004   200024 450500                    STP0    VRPGS+4,,AUTO
         4 001005   200024 630500                    EPPR0   VRPGS+4,,AUTO
         4 001006   000021 631400 xsym               EPPR1   B_VECTNIL+17
         4 001007   000000 701000 xent               TSX1    LLI$BINHEX
         4 001010   000000 011000                    NOP     0

      213     4575    2           CALL INSERT (LL_LOBUF,24,,STR5);

   4575  4 001011   040000 100400                    MLR     fill='040'O
         4 001012   000030 000005 1                  ADSC9   STR5                     cn=0,n=5
         4 001013   000006 000130 xsym               ADSC9   LL_LOBUF+6               cn=0,n=88

      214     4576    2           END;

      215     4577    2       IF ( LL_HEAD.ROSIZE > 0 ) THEN DO;

   4577  4 001014   000010 720000 xsym               LXL0    LL_HEAD+8
         4 001015   001035 600000 4                  TZE     s:4582

      216     4578    2           TEMP = 4096;

   4578  4 001016   010000 235007                    LDA     4096,DL
         4 001017   200015 755100                    STA     TEMP,,AUTO

      217     4579    2           CALL LLI$BINHEX (TEMP,5,STR5);

   4579  4 001020   000012 236000 5                  LDQ     10
         4 001021   200026 756100                    STQ     VRPGS+6,,AUTO
         4 001022   000013 236000 5                  LDQ     11
         4 001023   200025 756100                    STQ     VRPGS+5,,AUTO
         4 001024   200015 630500                    EPPR0   TEMP,,AUTO
         4 001025   200024 450500                    STP0    VRPGS+4,,AUTO
         4 001026   200024 630500                    EPPR0   VRPGS+4,,AUTO
         4 001027   000021 631400 xsym               EPPR1   B_VECTNIL+17
         4 001030   000000 701000 xent               TSX1    LLI$BINHEX
         4 001031   000000 011000                    NOP     0
PL6.E3A0      #001=LLD$MAP File=LLD$MAP.:E05TSI                                  WED 07/30/97 03:14 Page:46

      218     4580    2           CALL INSERT (LL_LOBUF,36,,STR5);

   4580  4 001032   040000 100400                    MLR     fill='040'O
         4 001033   000030 000005 1                  ADSC9   STR5                     cn=0,n=5
         4 001034   000011 000114 xsym               ADSC9   LL_LOBUF+9               cn=0,n=76

      219     4581    2           END;

      220     4582    1       CALL LLM$MON_SVC (LL#WRITELO);

   4582  4 001035   000004 630400 5                  EPPR0   4
         4 001036   000017 631400 xsym               EPPR1   B_VECTNIL+15
         4 001037   000000 701000 xent               TSX1    LLM$MON_SVC
         4 001040   000000 011000                    NOP     0

      221     4583    1       LL_LOBUF = 'ASIZE:';

   4583  4 001041   040000 100400                    MLR     fill='040'O
         4 001042   000335 000006 3                  ADSC9   221                      cn=0,n=6
         4 001043   000000 000160 xsym               ADSC9   LL_LOBUF                 cn=0,n=112

      222     4584    2       IF ( LL_HEAD.VDPGS > 0 ) THEN DO;

   4584  4 001044   000002 236000 xsym               LDQ     LL_HEAD+2
         4 001045   777760 316003                    CANQ    -16,DU
         4 001046   001076 600000 4                  TZE     s:4593

      223     4585    2           IF LL_FLAGS.BIAS_OU

   4585  4 001047   000000 236000 xsym               LDQ     LL_FLAGS
         4 001050   040000 316007                    CANQ    16384,DL
         4 001051   001056 600000 4                  TZE     s:4589

      224     4586    2           THEN
      225     4587    2               TEMP = LL_END_VALUE - LL_DATA_START;

PL6.E3A0      #001=LLD$MAP File=LLD$MAP.:E05TSI                                  WED 07/30/97 03:14 Page:47
   4587  4 001052   000000 236000 xsym               LDQ     LL_END_VALUE
         4 001053   000000 136000 xsym               SBLQ    LL_DATA_START
         4 001054   200015 756100                    STQ     TEMP,,AUTO
         4 001055   001061 710000 4                  TRA     s:4590

      226     4588    2           ELSE
      227     4589    2               TEMP = LL_HEAD.RDATA;

   4589  4 001056   000002 236000 xsym               LDQ     LL_HEAD+2
         4 001057   000010 376000 5                  ANQ     8
         4 001060   200015 756100                    STQ     TEMP,,AUTO

      228     4590    2           CALL LLI$BINHEX (TEMP,5,STR5);

   4590  4 001061   000012 236000 5                  LDQ     10
         4 001062   200026 756100                    STQ     VRPGS+6,,AUTO
         4 001063   000013 236000 5                  LDQ     11
         4 001064   200025 756100                    STQ     VRPGS+5,,AUTO
         4 001065   200015 630500                    EPPR0   TEMP,,AUTO
         4 001066   200024 450500                    STP0    VRPGS+4,,AUTO
         4 001067   200024 630500                    EPPR0   VRPGS+4,,AUTO
         4 001070   000021 631400 xsym               EPPR1   B_VECTNIL+17
         4 001071   000000 701000 xent               TSX1    LLI$BINHEX
         4 001072   000000 011000                    NOP     0

      229     4591    2           CALL INSERT (LL_LOBUF,12,,STR5);

   4591  4 001073   040000 100400                    MLR     fill='040'O
         4 001074   000030 000005 1                  ADSC9   STR5                     cn=0,n=5
         4 001075   000003 000144 xsym               ADSC9   LL_LOBUF+3               cn=0,n=100

      230     4592    2           END;

      231     4593    2       IF ( LL_HEAD.VPPGS > 0 ) THEN DO;

   4593  4 001076   000001 236000 xsym               LDQ     LL_HEAD+1
         4 001077   777760 316003                    CANQ    -16,DU
PL6.E3A0      #001=LLD$MAP File=LLD$MAP.:E05TSI                                  WED 07/30/97 03:14 Page:48
         4 001100   001130 600000 4                  TZE     s:4602

      232     4594    2           IF LL_FLAGS.BIAS_OU

   4594  4 001101   000000 236000 xsym               LDQ     LL_FLAGS
         4 001102   040000 316007                    CANQ    16384,DL
         4 001103   001110 600000 4                  TZE     s:4598

      233     4595    2           THEN
      234     4596    2               TEMP = LL_END_LOC - LL_PROC_START;

   4596  4 001104   000000 236000 xsym               LDQ     LL_END_LOC
         4 001105   000000 136000 xsym               SBLQ    LL_PROC_START
         4 001106   200015 756100                    STQ     TEMP,,AUTO
         4 001107   001113 710000 4                  TRA     s:4599

      235     4597    2           ELSE
      236     4598    2               TEMP = LL_HEAD.RPROC;

   4598  4 001110   000001 236000 xsym               LDQ     LL_HEAD+1
         4 001111   000010 376000 5                  ANQ     8
         4 001112   200015 756100                    STQ     TEMP,,AUTO

      237     4599    2           CALL LLI$BINHEX (TEMP,5,STR5);

   4599  4 001113   000012 236000 5                  LDQ     10
         4 001114   200026 756100                    STQ     VRPGS+6,,AUTO
         4 001115   000013 236000 5                  LDQ     11
         4 001116   200025 756100                    STQ     VRPGS+5,,AUTO
         4 001117   200015 630500                    EPPR0   TEMP,,AUTO
         4 001120   200024 450500                    STP0    VRPGS+4,,AUTO
         4 001121   200024 630500                    EPPR0   VRPGS+4,,AUTO
         4 001122   000021 631400 xsym               EPPR1   B_VECTNIL+17
         4 001123   000000 701000 xent               TSX1    LLI$BINHEX
         4 001124   000000 011000                    NOP     0

      238     4600    2           CALL INSERT (LL_LOBUF,24,,STR5);
PL6.E3A0      #001=LLD$MAP File=LLD$MAP.:E05TSI                                  WED 07/30/97 03:14 Page:49

   4600  4 001125   040000 100400                    MLR     fill='040'O
         4 001126   000030 000005 1                  ADSC9   STR5                     cn=0,n=5
         4 001127   000006 000130 xsym               ADSC9   LL_LOBUF+6               cn=0,n=88

      239     4601    2           END;

      240     4602    2       IF ( LL_HEAD.ROSIZE > 0 ) THEN DO;

   4602  4 001130   000010 720000 xsym               LXL0    LL_HEAD+8
         4 001131   001152 600000 4                  TZE     s:4607

      241     4603    2           TEMP = LL_HEAD.ROSIZE;

   4603  4 001132   000010 236000 xsym               LDQ     LL_HEAD+8
         4 001133   777777 376007                    ANQ     -1,DL
         4 001134   200015 756100                    STQ     TEMP,,AUTO

      242     4604    2           CALL LLI$BINHEX (TEMP,5,STR5);

   4604  4 001135   000012 236000 5                  LDQ     10
         4 001136   200026 756100                    STQ     VRPGS+6,,AUTO
         4 001137   000013 236000 5                  LDQ     11
         4 001140   200025 756100                    STQ     VRPGS+5,,AUTO
         4 001141   200015 630500                    EPPR0   TEMP,,AUTO
         4 001142   200024 450500                    STP0    VRPGS+4,,AUTO
         4 001143   200024 630500                    EPPR0   VRPGS+4,,AUTO
         4 001144   000021 631400 xsym               EPPR1   B_VECTNIL+17
         4 001145   000000 701000 xent               TSX1    LLI$BINHEX
         4 001146   000000 011000                    NOP     0

      243     4605    2           CALL INSERT (LL_LOBUF,36,,STR5);

   4605  4 001147   040000 100400                    MLR     fill='040'O
         4 001150   000030 000005 1                  ADSC9   STR5                     cn=0,n=5
         4 001151   000011 000114 xsym               ADSC9   LL_LOBUF+9               cn=0,n=76

PL6.E3A0      #001=LLD$MAP File=LLD$MAP.:E05TSI                                  WED 07/30/97 03:14 Page:50
      244     4606    2           END;

      245     4607    1       CALL LLM$MON_SVC (LL#WRITELO);

   4607  4 001152   000004 630400 5                  EPPR0   4
         4 001153   000017 631400 xsym               EPPR1   B_VECTNIL+15
         4 001154   000000 701000 xent               TSX1    LLM$MON_SVC
         4 001155   000000 011000                    NOP     0

      246     4608    1       IF LL_FLAGS.BIAS_OU

   4608  4 001156   000000 236000 xsym               LDQ     LL_FLAGS
         4 001157   040000 316007                    CANQ    16384,DL
         4 001160   001230 600000 4                  TZE     s:4620

      247     4609    1       THEN
      248     4610    2       DO;

      249     4611    2           LL_LOBUF = 'CACTUAL:';

   4611  4 001161   040000 100400                    MLR     fill='040'O
         4 001162   000337 000010 3                  ADSC9   223                      cn=0,n=8
         4 001163   000000 000160 xsym               ADSC9   LL_LOBUF                 cn=0,n=112

      250     4612    2           TEMP = LL_HEAD.RDATA;

   4612  4 001164   000002 236000 xsym               LDQ     LL_HEAD+2
         4 001165   000010 376000 5                  ANQ     8
         4 001166   200015 756100                    STQ     TEMP,,AUTO

      251     4613    2           CALL LLI$BINHEX(TEMP,5,STR5);

   4613  4 001167   000012 236000 5                  LDQ     10
         4 001170   200026 756100                    STQ     VRPGS+6,,AUTO
         4 001171   000013 236000 5                  LDQ     11
         4 001172   200025 756100                    STQ     VRPGS+5,,AUTO
         4 001173   200015 630500                    EPPR0   TEMP,,AUTO
PL6.E3A0      #001=LLD$MAP File=LLD$MAP.:E05TSI                                  WED 07/30/97 03:14 Page:51
         4 001174   200024 450500                    STP0    VRPGS+4,,AUTO
         4 001175   200024 630500                    EPPR0   VRPGS+4,,AUTO
         4 001176   000021 631400 xsym               EPPR1   B_VECTNIL+17
         4 001177   000000 701000 xent               TSX1    LLI$BINHEX
         4 001200   000000 011000                    NOP     0

      252     4614    2           CALL INSERT(LL_LOBUF,12,,STR5);

   4614  4 001201   040000 100400                    MLR     fill='040'O
         4 001202   000030 000005 1                  ADSC9   STR5                     cn=0,n=5
         4 001203   000003 000144 xsym               ADSC9   LL_LOBUF+3               cn=0,n=100

      253     4615    2           TEMP = LL_HEAD.RPROC;

   4615  4 001204   000001 236000 xsym               LDQ     LL_HEAD+1
         4 001205   000010 376000 5                  ANQ     8
         4 001206   200015 756100                    STQ     TEMP,,AUTO

      254     4616    2           CALL LLI$BINHEX(TEMP,5,STR5);

   4616  4 001207   000012 236000 5                  LDQ     10
         4 001210   200026 756100                    STQ     VRPGS+6,,AUTO
         4 001211   000013 236000 5                  LDQ     11
         4 001212   200025 756100                    STQ     VRPGS+5,,AUTO
         4 001213   200015 630500                    EPPR0   TEMP,,AUTO
         4 001214   200024 450500                    STP0    VRPGS+4,,AUTO
         4 001215   200024 630500                    EPPR0   VRPGS+4,,AUTO
         4 001216   000021 631400 xsym               EPPR1   B_VECTNIL+17
         4 001217   000000 701000 xent               TSX1    LLI$BINHEX
         4 001220   000000 011000                    NOP     0

      255     4617    2           CALL INSERT(LL_LOBUF,24,,STR5);

   4617  4 001221   040000 100400                    MLR     fill='040'O
         4 001222   000030 000005 1                  ADSC9   STR5                     cn=0,n=5
         4 001223   000006 000130 xsym               ADSC9   LL_LOBUF+6               cn=0,n=88

PL6.E3A0      #001=LLD$MAP File=LLD$MAP.:E05TSI                                  WED 07/30/97 03:14 Page:52
      256     4618    2           CALL LLM$MON_SVC (LL#WRITELO);

   4618  4 001224   000004 630400 5                  EPPR0   4
         4 001225   000017 631400 xsym               EPPR1   B_VECTNIL+15
         4 001226   000000 701000 xent               TSX1    LLM$MON_SVC
         4 001227   000000 011000                    NOP     0

      257     4619    2           END;

      258     4620    1       LL_LOBUF = 'B******** CONTROL SECTIONS SORTED BY VALUE ********';

   4620  4 001230   040000 100400                    MLR     fill='040'O
         4 001231   000341 000063 3                  ADSC9   225                      cn=0,n=51
         4 001232   000000 000160 xsym               ADSC9   LL_LOBUF                 cn=0,n=112

      259     4621    1       CALL LLM$MON_SVC (LL#WRITELO);

   4621  4 001233   000004 630400 5                  EPPR0   4
         4 001234   000017 631400 xsym               EPPR1   B_VECTNIL+15
         4 001235   000000 701000 xent               TSX1    LLM$MON_SVC
         4 001236   000000 011000                    NOP     0

      260     4622    1       TPTR$ = AVAIL$;

   4622  4 001237   200003 470500                    LDP0    @AVAIL$,,AUTO
         4 001240   000000 236100                    LDQ     0,,PR0
         4 001241   200017 756100                    STQ     TPTR$,,AUTO

      261     4623    1       IF LL_DNAME_VEC.P$=ADDR(NIL)

   4623  4 001242   000001 236000 xsym               LDQ     LL_DNAME_VEC+1
         4 001243   000001 116000 xsym               CMPQ    B_VECTNIL+1
         4 001244   001251 601000 4                  TNZ     s:4625

      262     4624    1       THEN TPTR$ = PINCRW(TPTR$,LL_HEAD.NRECSIZE);

   4624  4 001245   000006 720000 xsym               LXL0    LL_HEAD+6
PL6.E3A0      #001=LLD$MAP File=LLD$MAP.:E05TSI                                  WED 07/30/97 03:14 Page:53
         4 001246   000000 636010                    EAQ     0,X0
         4 001247   200017 036100                    ADLQ    TPTR$,,AUTO
         4 001250   200017 756100                    STQ     TPTR$,,AUTO

      263     4625    1       CALL LLM$MON_SVC (LL#GETMEM,1024,TPTR$);

   4625  4 001251   200017 631500                    EPPR1   TPTR$,,AUTO
         4 001252   200026 451500                    STP1    VRPGS+6,,AUTO
         4 001253   000016 237000 5                  LDAQ    14
         4 001254   200024 757100                    STAQ    VRPGS+4,,AUTO
         4 001255   200024 630500                    EPPR0   VRPGS+4,,AUTO
         4 001256   000021 631400 xsym               EPPR1   B_VECTNIL+17
         4 001257   000000 701000 xent               TSX1    LLM$MON_SVC
         4 001260   000000 011000                    NOP     0

      264     4626    1       B$RUKEY.TYPE = 3;

   4626  4 001261   000003 236003                    LDQ     3,DU
         4 001262   000000 552020 1                  STBQ    B$RUKEY,'20'O

      265     4627    1       CALL READRU;

   4627  4 001263   002166 701000 4                  TSX1    READRU
         4 001264   000000 011000                    NOP     0

      266     4628    1       TPTR$ = PINCRW (TPTR$, -X);

   4628  4 001265   200010 336100                    LCQ     X,,AUTO
         4 001266   000022 736000                    QLS     18
         4 001267   200017 036100                    ADLQ    TPTR$,,AUTO
         4 001270   200017 756100                    STQ     TPTR$,,AUTO

      267     4629    1       X = X/2;

   4629  4 001271   200010 236100                    LDQ     X,,AUTO
         4 001272   000002 506007                    DIV     2,DL
         4 001273   200010 756100                    STQ     X,,AUTO
PL6.E3A0      #001=LLD$MAP File=LLD$MAP.:E05TSI                                  WED 07/30/97 03:14 Page:54

      268     4630    2       DO I = 0 TO X-1;

   4630  4 001274   200006 450100                    STZ     I,,AUTO
         4 001275   001626 710000 4                  TRA     s:4690+3

      269     4631    2           IF ( LL_FLAGS.EMPTY# OR TPTR$ -> LL_SECTION.SIZE > 0 OR

   4631  4 001276   000000 236000 xsym               LDQ     LL_FLAGS
         4 001277   000004 316003                    CANQ    4,DU
         4 001300   001306 601000 4                  TNZ     s:4634
         4 001301   200017 470500                    LDP0    TPTR$,,AUTO
         4 001302   000001 720100                    LXL0    1,,PR0
         4 001303   001306 601000 4                  TNZ     s:4634
         4 001304   000001 221100                    LDX1    1,,PR0
         4 001305   001605 604000 4                  TMI     s:4684

      270     4632    3              TPTR$ -> LL_SECTION.NPOINTER >= 0 ) THEN DO;

      271     4633         /* Convert the address (size) portion of the entry */
      272     4634    3               TEMP = TPTR$ -> LL_SECTION.ISADDR;

   4634  4 001306   200017 470500                    LDP0    TPTR$,,AUTO
         4 001307   000000 236100                    LDQ     0,,PR0
         4 001310   000032 376000 xsym               ANQ     B_VECTNIL+26
         4 001311   200015 756100                    STQ     TEMP,,AUTO

      273     4635    3               CALL LLI$BINHEX (TEMP, 6, HEXSTR);

   4635  4 001312   200013 631500                    EPPR1   HEXSTR,,AUTO
         4 001313   200026 451500                    STP1    VRPGS+6,,AUTO
         4 001314   000015 236000 5                  LDQ     13
         4 001315   200025 756100                    STQ     VRPGS+5,,AUTO
         4 001316   200015 633500                    EPPR3   TEMP,,AUTO
         4 001317   200024 453500                    STP3    VRPGS+4,,AUTO
         4 001320   200024 630500                    EPPR0   VRPGS+4,,AUTO
         4 001321   000021 631400 xsym               EPPR1   B_VECTNIL+17
PL6.E3A0      #001=LLD$MAP File=LLD$MAP.:E05TSI                                  WED 07/30/97 03:14 Page:55
         4 001322   000000 701000 xent               TSX1    LLI$BINHEX
         4 001323   000000 011000                    NOP     0

      274     4636    3               IF (I = X) THEN

   4636  4 001324   200006 236100                    LDQ     I,,AUTO
         4 001325   001334 604000 4                  TMI     s:4639
         4 001326   200010 116100                    CMPQ    X,,AUTO
         4 001327   001334 601000 4                  TNZ     s:4639

      275     4637    3                   LL_LOBUF = 'C';

   4637  4 001330   040000 100400                    MLR     fill='040'O
         4 001331   000020 000001 5                  ADSC9   16                       cn=0,n=1
         4 001332   000000 000160 xsym               ADSC9   LL_LOBUF                 cn=0,n=112
         4 001333   001337 710000 4                  TRA     s:4640

      276     4638    3               ELSE
      277     4639    3                   LL_LOBUF = 'A';

   4639  4 001334   040000 100400                    MLR     fill='040'O
         4 001335   000021 000001 5                  ADSC9   17                       cn=0,n=1
         4 001336   000000 000160 xsym               ADSC9   LL_LOBUF                 cn=0,n=112

      278     4640    3               TEMP = TPTR$ -> LL_SECTION.NPOINTER;

   4640  4 001337   200017 470500                    LDP0    TPTR$,,AUTO
         4 001340   000001 236100                    LDQ     1,,PR0
         4 001341   000022 732000                    QRS     18
         4 001342   200015 756100                    STQ     TEMP,,AUTO

      279     4641    4               DO CASE (TPTR$ -> LL_SECTION.TYPE);

   4641  4 001343   000000 236100                    LDQ     0,,PR0
         4 001344   000040 772000                    QRL     32
         4 001345   000007 116007                    CMPQ    7,DL
         4 001346   001350 602006 4                  TNC     s:4641+5,QL
PL6.E3A0      #001=LLD$MAP File=LLD$MAP.:E05TSI                                  WED 07/30/97 03:14 Page:56
         4 001347   001437 710000 4                  TRA     s:4657
         4 001350   001357 710000 4                  TRA     s:4643
         4 001351   001366 710000 4                  TRA     s:4645
         4 001352   001375 710000 4                  TRA     s:4647
         4 001353   001404 710000 4                  TRA     s:4649
         4 001354   001413 710000 4                  TRA     s:4651
         4 001355   001422 710000 4                  TRA     s:4653
         4 001356   001431 710000 4                  TRA     s:4655

      280     4642    4               CASE (0);

      281     4643    4                   CALL INSERT (LL_LOBUF,3,,HEXSTR,' DATA');

   4643  4 001357   040000 100500                    MLR     fill='040'O
         4 001360   200013 000006                    ADSC9   HEXSTR,,AUTO             cn=0,n=6
         4 001361   000000 600006 xsym               ADSC9   LL_LOBUF                 cn=3,n=6
         4 001362   040000 100400                    MLR     fill='040'O
         4 001363   000306 000005 3                  ADSC9   198                      cn=0,n=5
         4 001364   000002 200147 xsym               ADSC9   LL_LOBUF+2               cn=1,n=103
         4 001365   001437 710000 4                  TRA     s:4657

      282     4644    4               CASE (1);

      283     4645    4                   CALL INSERT (LL_LOBUF,3,,HEXSTR,' PROC');

   4645  4 001366   040000 100500                    MLR     fill='040'O
         4 001367   200013 000006                    ADSC9   HEXSTR,,AUTO             cn=0,n=6
         4 001370   000000 600006 xsym               ADSC9   LL_LOBUF                 cn=3,n=6
         4 001371   040000 100400                    MLR     fill='040'O
         4 001372   000356 000005 3                  ADSC9   238                      cn=0,n=5
         4 001373   000002 200147 xsym               ADSC9   LL_LOBUF+2               cn=1,n=103
         4 001374   001437 710000 4                  TRA     s:4657

      284     4646    4               CASE (2);

      285     4647    4                   CALL INSERT (LL_LOBUF,3,,HEXSTR,' ULCOM');

PL6.E3A0      #001=LLD$MAP File=LLD$MAP.:E05TSI                                  WED 07/30/97 03:14 Page:57
   4647  4 001375   040000 100500                    MLR     fill='040'O
         4 001376   200013 000006                    ADSC9   HEXSTR,,AUTO             cn=0,n=6
         4 001377   000000 600006 xsym               ADSC9   LL_LOBUF                 cn=3,n=6
         4 001400   040000 100400                    MLR     fill='040'O
         4 001401   000360 000006 3                  ADSC9   240                      cn=0,n=6
         4 001402   000002 200147 xsym               ADSC9   LL_LOBUF+2               cn=1,n=103
         4 001403   001437 710000 4                  TRA     s:4657

      286     4648    4               CASE (3);

      287     4649    4                   CALL INSERT (LL_LOBUF,3,,HEXSTR,' RLCOM');

   4649  4 001404   040000 100500                    MLR     fill='040'O
         4 001405   200013 000006                    ADSC9   HEXSTR,,AUTO             cn=0,n=6
         4 001406   000000 600006 xsym               ADSC9   LL_LOBUF                 cn=3,n=6
         4 001407   040000 100400                    MLR     fill='040'O
         4 001410   000362 000006 3                  ADSC9   242                      cn=0,n=6
         4 001411   000002 200147 xsym               ADSC9   LL_LOBUF+2               cn=1,n=103
         4 001412   001437 710000 4                  TRA     s:4657

      288     4650    4               CASE (4);

      289     4651    4                   CALL INSERT (LL_LOBUF,3,,HEXSTR,' LCOM');

   4651  4 001413   040000 100500                    MLR     fill='040'O
         4 001414   200013 000006                    ADSC9   HEXSTR,,AUTO             cn=0,n=6
         4 001415   000000 600006 xsym               ADSC9   LL_LOBUF                 cn=3,n=6
         4 001416   040000 100400                    MLR     fill='040'O
         4 001417   000364 000005 3                  ADSC9   244                      cn=0,n=5
         4 001420   000002 200147 xsym               ADSC9   LL_LOBUF+2               cn=1,n=103
         4 001421   001437 710000 4                  TRA     s:4657

      290     4652    4               CASE (5);

      291     4653    4                   CALL INSERT (LL_LOBUF,3,,HEXSTR,' DCB');

   4653  4 001422   040000 100500                    MLR     fill='040'O
PL6.E3A0      #001=LLD$MAP File=LLD$MAP.:E05TSI                                  WED 07/30/97 03:14 Page:58
         4 001423   200013 000006                    ADSC9   HEXSTR,,AUTO             cn=0,n=6
         4 001424   000000 600006 xsym               ADSC9   LL_LOBUF                 cn=3,n=6
         4 001425   040000 100400                    MLR     fill='040'O
         4 001426   000366 000004 3                  ADSC9   246                      cn=0,n=4
         4 001427   000002 200147 xsym               ADSC9   LL_LOBUF+2               cn=1,n=103
         4 001430   001437 710000 4                  TRA     s:4657

      292     4654    4               CASE (6);

      293     4655    4                   CALL INSERT (LL_LOBUF,3,,HEXSTR,' RODATA');

   4655  4 001431   040000 100500                    MLR     fill='040'O
         4 001432   200013 000006                    ADSC9   HEXSTR,,AUTO             cn=0,n=6
         4 001433   000000 600006 xsym               ADSC9   LL_LOBUF                 cn=3,n=6
         4 001434   040000 100400                    MLR     fill='040'O
         4 001435   000367 000007 3                  ADSC9   247                      cn=0,n=7
         4 001436   000002 200147 xsym               ADSC9   LL_LOBUF+2               cn=1,n=103

      294     4656    4                   END;

      295     4657    3               IF (TEMP < 0) THEN

   4657  4 001437   200015 235100                    LDA     TEMP,,AUTO
         4 001440   001445 605000 4                  TPL     s:4660

      296     4658    3                   CALL INSERT (LL_LOBUF,20,,'<unnamed>');

   4658  4 001441   040000 100400                    MLR     fill='040'O
         4 001442   000371 000011 3                  ADSC9   249                      cn=0,n=9
         4 001443   000005 000134 xsym               ADSC9   LL_LOBUF+5               cn=0,n=92
         4 001444   001454 710000 4                  TRA     s:4662

      297     4659    3               ELSE
      298     4660    3                   CALL INSERT (LL_LOBUF,20,,

   4660  4 001445   200016 470500                    LDP0    NAME$,,AUTO
         4 001446   000000 220105                    LDX0    0,AL,PR0
PL6.E3A0      #001=LLD$MAP File=LLD$MAP.:E05TSI                                  WED 07/30/97 03:14 Page:59
         4 001447   200015 235100                    LDA     TEMP,,AUTO
         4 001450   000002 735000                    ALS     2
         4 001451   040000 100545                    MLR     fill='040'O
         4 001452   000000 400010                    ADSC9   0,A,PR0                  cn=2,n=*X0
         4 001453   000005 000134 xsym               ADSC9   LL_LOBUF+5               cn=0,n=92

      299     4661    3                      PINCRW(NAME$, TEMP) -> B$DNAME.TEXT);
      300     4662    3               TEMP = TPTR$ -> LL_SECTION.SIZE;

   4662  4 001454   200017 470500                    LDP0    TPTR$,,AUTO
         4 001455   000001 236100                    LDQ     1,,PR0
         4 001456   777777 376007                    ANQ     -1,DL
         4 001457   200015 756100                    STQ     TEMP,,AUTO

      301     4663    3               CALL BINCHAR (HEXSTR, TEMP);

   4663  4 001460   000100 301500                    BTD
         4 001461   200015 000004                    NDSC9   TEMP,,AUTO               cn=0,s=lsgnf,sf=0,n=4
         4 001462   200013 030006                    NDSC9   HEXSTR,,AUTO             cn=0,s=nosgn,sf=0,n=6

      302     4664    3               J = 0;

   4664  4 001463   200007 450100                    STZ     J,,AUTO

      303     4665    4               DO WHILE (HEXSTR_ARY(J) = '0' AND J < 5);

   4665  4 001464   001473 710000 4                  TRA     s:4668

      304     4666    4                   HEXSTR_ARY(J) = ' ';

   4666  4 001465   200007 235100                    LDA     J,,AUTO
         4 001466   040105 100400                    MLR     fill='040'O
         4 001467   000035 000001 xsym               ADSC9   B_VECTNIL+29             cn=0,n=1
         4 001470   200013 000001                    ADSC9   HEXSTR,A,AUTO            cn=0,n=1

      305     4667    4                   J = J + 1;

PL6.E3A0      #001=LLD$MAP File=LLD$MAP.:E05TSI                                  WED 07/30/97 03:14 Page:60
   4667  4 001471   000001 035007                    ADLA    1,DL
         4 001472   200007 755100                    STA     J,,AUTO

      306     4668    4                   END;

   4668  4 001473   200007 235100                    LDA     J,,AUTO
         4 001474   040000 106505                    CMPC    fill='040'O
         4 001475   200013 000001                    ADSC9   HEXSTR,A,AUTO            cn=0,n=1
         4 001476   000011 000001 5                  ADSC9   9                        cn=0,n=1
         4 001477   001502 601000 4                  TNZ     s:4669
         4 001500   000005 115007                    CMPA    5,DL
         4 001501   001465 602000 4                  TNC     s:4666

      307     4669    3               CALL INSERT (LL_LOBUF,50,,HEXSTR,' (.');

   4669  4 001502   040000 100500                    MLR     fill='040'O
         4 001503   200013 000006                    ADSC9   HEXSTR,,AUTO             cn=0,n=6
         4 001504   000014 400006 xsym               ADSC9   LL_LOBUF+12              cn=2,n=6
         4 001505   040000 100400                    MLR     fill='040'O
         4 001506   000374 000003 3                  ADSC9   252                      cn=0,n=3
         4 001507   000016 000070 xsym               ADSC9   LL_LOBUF+14              cn=0,n=56

      308     4670    3               CALL LLI$BINHEX (TEMP, 6, HEXSTR);

   4670  4 001510   200013 630500                    EPPR0   HEXSTR,,AUTO
         4 001511   200026 450500                    STP0    VRPGS+6,,AUTO
         4 001512   000015 236000 5                  LDQ     13
         4 001513   200025 756100                    STQ     VRPGS+5,,AUTO
         4 001514   200015 631500                    EPPR1   TEMP,,AUTO
         4 001515   200024 451500                    STP1    VRPGS+4,,AUTO
         4 001516   200024 630500                    EPPR0   VRPGS+4,,AUTO
         4 001517   000021 631400 xsym               EPPR1   B_VECTNIL+17
         4 001520   000000 701000 xent               TSX1    LLI$BINHEX
         4 001521   000000 011000                    NOP     0

      309     4671    3               J = 0;

PL6.E3A0      #001=LLD$MAP File=LLD$MAP.:E05TSI                                  WED 07/30/97 03:14 Page:61
   4671  4 001522   200007 450100                    STZ     J,,AUTO

      310     4672    4               DO WHILE (HEXSTR_ARY(J) = ' ');

   4672  4 001523   200007 235100                    LDA     J,,AUTO
         4 001524   040000 106505                    CMPC    fill='040'O
         4 001525   200013 000001                    ADSC9   HEXSTR,A,AUTO            cn=0,n=1
         4 001526   000035 000001 xsym               ADSC9   B_VECTNIL+29             cn=0,n=1
         4 001527   001537 601000 4                  TNZ     s:4675

      311     4673    4                   J = J + 1;

   4673  4 001530   200007 235100                    LDA     J,,AUTO
         4 001531   000001 035007                    ADLA    1,DL
         4 001532   200007 755100                    STA     J,,AUTO

      312     4674    4                   END;

   4674  4 001533   040000 106505                    CMPC    fill='040'O
         4 001534   200013 000001                    ADSC9   HEXSTR,A,AUTO            cn=0,n=1
         4 001535   000035 000001 xsym               ADSC9   B_VECTNIL+29             cn=0,n=1
         4 001536   001530 600000 4                  TZE     s:4673

      313     4675    4               DO TEMP = 0 TO 5 - J;

   4675  4 001537   200015 450100                    STZ     TEMP,,AUTO
         4 001540   001550 710000 4                  TRA     s:4677+1

      314     4676    4                   HEXSTR_ARY(TEMP) = HEXSTR_ARY(TEMP + J);

   4676  4 001541   200015 236100                    LDQ     TEMP,,AUTO
         4 001542   200007 036100                    ADLQ    J,,AUTO
         4 001543   200015 235100                    LDA     TEMP,,AUTO
         4 001544   040105 100506                    MLR     fill='040'O
         4 001545   200013 000001                    ADSC9   HEXSTR,Q,AUTO            cn=0,n=1
         4 001546   200013 000001                    ADSC9   HEXSTR,A,AUTO            cn=0,n=1

PL6.E3A0      #001=LLD$MAP File=LLD$MAP.:E05TSI                                  WED 07/30/97 03:14 Page:62
      315     4677    4                   END;

   4677  4 001547   200015 054100                    AOS     TEMP,,AUTO
         4 001550   000005 236007                    LDQ     5,DL
         4 001551   200007 136100                    SBLQ    J,,AUTO
         4 001552   200015 116100                    CMPQ    TEMP,,AUTO
         4 001553   001541 605000 4                  TPL     s:4676

      316     4678    3               STRING.COUNT = 6 - J;

   4678  4 001554   000006 236007                    LDQ     6,DL
         4 001555   200007 136100                    SBLQ    J,,AUTO
         4 001556   000033 736000                    QLS     27
         4 001557   200011 552140                    STBQ    STRING,'40'O,AUTO

      317     4679    3               STRING.TEXT = HEXSTR;

   4679  4 001560   040100 100500                    MLR     fill='040'O
         4 001561   200013 000006                    ADSC9   HEXSTR,,AUTO             cn=0,n=6
         4 001562   200011 200006                    ADSC9   STRING,,AUTO             cn=1,n=6

      318     4680    3               CALL INSERT (LL_LOBUF,59,,ADDR(STRING)->B$STRING.TEXT,')');

   4680  4 001563   200011 236100                    LDQ     STRING,,AUTO
         4 001564   000033 772000                    QRL     27
         4 001565   000000 620006                    EAX0    0,QL
         4 001566   040000 100540                    MLR     fill='040'O
         4 001567   200011 200010                    ADSC9   STRING,,AUTO             cn=1,n=*X0
         4 001570   000016 600065 xsym               ADSC9   LL_LOBUF+14              cn=3,n=53
         4 001571   000065 116007                    CMPQ    53,DL
         4 001572   001600 603000 4                  TRC     s:4681
         4 001573   777712 621006                    EAX1    -54,QL
         4 001574   777777 661003                    ERX1    -1,DU
         4 001575   040046 100400                    MLR     fill='040'O
         4 001576   000022 000001 5                  ADSC9   18                       cn=0,n=1
         4 001577   000016 600011 xsym               ADSC9   LL_LOBUF+14,Q            cn=3,n=*X1

PL6.E3A0      #001=LLD$MAP File=LLD$MAP.:E05TSI                                  WED 07/30/97 03:14 Page:63
      319     4681    3               CALL LLM$MON_SVC (LL#WRITELO);

   4681  4 001600   000004 630400 5                  EPPR0   4
         4 001601   000017 631400 xsym               EPPR1   B_VECTNIL+15
         4 001602   000000 701000 xent               TSX1    LLM$MON_SVC
         4 001603   000000 011000                    NOP     0

      320     4682    3               END;

   4682  4 001604   001620 710000 4                  TRA     s:4689

      321     4683    3           ELSE DO;

      322     4684    4               IF (I = X) THEN DO;

   4684  4 001605   200006 236100                    LDQ     I,,AUTO
         4 001606   001620 604000 4                  TMI     s:4689
         4 001607   200010 116100                    CMPQ    X,,AUTO
         4 001610   001620 601000 4                  TNZ     s:4689

      323     4685    4                   LL_LOBUF = 'C';

   4685  4 001611   040000 100400                    MLR     fill='040'O
         4 001612   000020 000001 5                  ADSC9   16                       cn=0,n=1
         4 001613   000000 000160 xsym               ADSC9   LL_LOBUF                 cn=0,n=112

      324     4686    4                   CALL LLM$MON_SVC (LL#WRITELO);

   4686  4 001614   000004 630400 5                  EPPR0   4
         4 001615   000017 631400 xsym               EPPR1   B_VECTNIL+15
         4 001616   000000 701000 xent               TSX1    LLM$MON_SVC
         4 001617   000000 011000                    NOP     0

      325     4687    4                   END;

      326     4688    3               END;

PL6.E3A0      #001=LLD$MAP File=LLD$MAP.:E05TSI                                  WED 07/30/97 03:14 Page:64
      327     4689    2           TPTR$ = PINCRW (TPTR$,2);

   4689  4 001620   200017 236100                    LDQ     TPTR$,,AUTO
         4 001621   000002 036003                    ADLQ    2,DU
         4 001622   200017 756100                    STQ     TPTR$,,AUTO

      328     4690    2           END;

   4690  4 001623   200006 235100                    LDA     I,,AUTO
         4 001624   000001 035007                    ADLA    1,DL
         4 001625   200006 755100                    STA     I,,AUTO
         4 001626   200006 236100                    LDQ     I,,AUTO
         4 001627   001632 604000 4                  TMI     s:4696
         4 001630   200010 116100                    CMPQ    X,,AUTO
         4 001631   001276 604000 4                  TMI     s:4631

      329     4691         /**/
      330     4692         /*
      331     4693            Here we check to see if there are any ref names in the run unit.
      332     4694         */
      333     4695         /**/
      334     4696    1       TPTR$ = PINCRW (TPTR$, -X*2); /* Back to start of sections. */

   4696  4 001632   200010 336100                    LCQ     X,,AUTO
         4 001633   000023 736000                    QLS     19
         4 001634   200017 036100                    ADLQ    TPTR$,,AUTO
         4 001635   200017 756100                    STQ     TPTR$,,AUTO

      335     4697    2       IF LLS_INIT# THEN DO;

   4697  4 001636   000000 234000 xsym               SZN     LLS_INIT#
         4 001637   002010 605000 4                  TPL     s:4752

      336     4698         /**/
      337     4699         /*
      338     4700            Get some memory for the names record.
      339     4701         */
PL6.E3A0      #001=LLD$MAP File=LLD$MAP.:E05TSI                                  WED 07/30/97 03:14 Page:65
      340     4702         /**/
      341     4703    2           TEMP = LL_HEAD.NRECSIZE;

   4703  4 001640   000006 236000 xsym               LDQ     LL_HEAD+6
         4 001641   777777 376007                    ANQ     -1,DL
         4 001642   200015 756100                    STQ     TEMP,,AUTO

      342     4704    2           CALL LLM$MON_SVC (LL#GETMEM, TEMP, TPTR$);

   4704  4 001643   200017 630500                    EPPR0   TPTR$,,AUTO
         4 001644   200026 450500                    STP0    VRPGS+6,,AUTO
         4 001645   200015 631500                    EPPR1   TEMP,,AUTO
         4 001646   200025 451500                    STP1    VRPGS+5,,AUTO
         4 001647   000000 236000 5                  LDQ     0
         4 001650   200024 756100                    STQ     VRPGS+4,,AUTO
         4 001651   200024 630500                    EPPR0   VRPGS+4,,AUTO
         4 001652   000021 631400 xsym               EPPR1   B_VECTNIL+17
         4 001653   000000 701000 xent               TSX1    LLM$MON_SVC
         4 001654   000000 011000                    NOP     0

      343     4705    2           B$RUKEY.PAGE = 0;

   4705  4 001655   000000 220003                    LDX0    0,DU
         4 001656   000001 740000 1                  STX0    B$RUKEY+1

      344     4706    2           B$RUKEY.TYPE = 2; /* REF NAMES */

   4706  4 001657   000002 236003                    LDQ     2,DU
         4 001660   000000 552020 1                  STBQ    B$RUKEY,'20'O

      345     4707    2           TEMP = TEMP * 4 - 1; /* REF NAMES MAX SIZE BOUND. */

   4707  4 001661   200015 235100                    LDA     TEMP,,AUTO
         4 001662   000002 735000                    ALS     2
         4 001663   000001 135007                    SBLA    1,DL
         4 001664   200015 755100                    STA     TEMP,,AUTO

PL6.E3A0      #001=LLD$MAP File=LLD$MAP.:E05TSI                                  WED 07/30/97 03:14 Page:66
      346     4708    2           LL_UREF_NAME$ = TPTR$;

   4708  4 001665   200017 236100                    LDQ     TPTR$,,AUTO
         4 001666   000000 756000 xsym               STQ     LL_UREF_NAME$

      347     4709    2           CALL LLM$MON_SVC (LL#READRU, TPTR$, TEMP, B$RUKEY)

   4709  4 001667   000002 236000 5                  LDQ     2
         4 001670   200027 756100                    STQ     VRPGS+7,,AUTO
         4 001671   200015 630500                    EPPR0   TEMP,,AUTO
         4 001672   200026 450500                    STP0    VRPGS+6,,AUTO
         4 001673   200017 631500                    EPPR1   TPTR$,,AUTO
         4 001674   200025 451500                    STP1    VRPGS+5,,AUTO
         4 001675   000003 236000 5                  LDQ     3
         4 001676   200024 756100                    STQ     VRPGS+4,,AUTO
         4 001677   200024 630500                    EPPR0   VRPGS+4,,AUTO
         4 001700   000022 631400 xsym               EPPR1   B_VECTNIL+18
         4 001701   000000 701000 xent               TSX1    LLM$MON_SVC
         4 001702   002015 702000 4                  TSX2    NO_REFS

      348     4710    2              ALTRET (NO_REFS);
      349     4711         /**/
      350     4712         /*
      351     4713            Get the actual wordsize of the name record.
      352     4714         */
      353     4715         /**/
      354     4716    2           LL_UREF_NAME_CUR = DCBADDR(DCBNUM(M$RU))->SIZE_FIELD / 4;

   4716  4 001703   000000 236007 xsym               LDQ     M$RU,DL
         4 001704   000005 470400 5                  LDP0    5
         4 001705   000000 471500                    LDP1    0,,PR0
         4 001706   100000 473506                    LDP3    0,QL,PR1
         4 001707   300000 236100                    LDQ     0,,PR3
         4 001710   000004 506007                    DIV     4,DL
         4 001711   000000 756000 xsym               STQ     LL_UREF_NAME_CUR

      355     4717         /**/
PL6.E3A0      #001=LLD$MAP File=LLD$MAP.:E05TSI                                  WED 07/30/97 03:14 Page:67
      356     4718         /*
      357     4719            Look for an ENTREF record (TYPE=5);
      358     4720         */
      359     4721         /**/
      360     4722    2           TPTR$ = PINCRW (TPTR$,LL_UREF_NAME_CUR);

   4722  4 001712   000022 736000                    QLS     18
         4 001713   200017 036100                    ADLQ    TPTR$,,AUTO
         4 001714   200017 756100                    STQ     TPTR$,,AUTO

      361     4723    2           LL_U_ENTREF$ = TPTR$;

   4723  4 001715   000000 756000 xsym               STQ     LL_U_ENTREF$

      362     4724    2           B$RUKEY.TYPE = 5;

   4724  4 001716   000005 236003                    LDQ     5,DU
         4 001717   000000 552020 1                  STBQ    B$RUKEY,'20'O

      363     4725    2           CALL READRU;

   4725  4 001720   002166 701000 4                  TSX1    READRU
         4 001721   000000 011000                    NOP     0

      364     4726    2           LL_U_ENTREF_CUR = X;

   4726  4 001722   200010 235100                    LDA     X,,AUTO
         4 001723   000000 755000 xsym               STA     LL_U_ENTREF_CUR

      365     4727    2           LL_U_SYMREF$ = TPTR$;

   4727  4 001724   200017 236100                    LDQ     TPTR$,,AUTO
         4 001725   000000 756000 xsym               STQ     LL_U_SYMREF$

      366     4728    2           B$RUKEY.TYPE = 7;

   4728  4 001726   000007 236003                    LDQ     7,DU
PL6.E3A0      #001=LLD$MAP File=LLD$MAP.:E05TSI                                  WED 07/30/97 03:14 Page:68
         4 001727   000000 552020 1                  STBQ    B$RUKEY,'20'O

      367     4729    2           CALL READRU;

   4729  4 001730   002166 701000 4                  TSX1    READRU
         4 001731   000000 011000                    NOP     0

      368     4730    2           LL_U_SYMREF_CUR = X;

   4730  4 001732   200010 235100                    LDA     X,,AUTO
         4 001733   000000 755000 xsym               STA     LL_U_SYMREF_CUR

      369     4731    2           LL_U_PRIMARY_SYMREF_COUNT = 0;

   4731  4 001734   000000 450000 xsym               STZ     LL_U_PRIMARY_SYMREF_COUNT

      370     4732    2           LL_U_SECONDARY_SYMREF_COUNT = 0;

   4732  4 001735   000000 450000 xsym               STZ     LL_U_SECONDARY_SYMREF_COUNT

      371     4733    2           LL_U_PRIMARY_ENTREF_COUNT = 0;

   4733  4 001736   000000 450000 xsym               STZ     LL_U_PRIMARY_ENTREF_COUNT

      372     4734    2           LL_U_SECONDARY_ENTREF_COUNT = 0;

   4734  4 001737   000000 450000 xsym               STZ     LL_U_SECONDARY_ENTREF_COUNT

      373     4735    3           DO I = 0 TO LL_U_SYMREF_CUR - 1;

   4735  4 001740   200006 450100                    STZ     I,,AUTO
         4 001741   001761 710000 4                  TRA     s:4742+3

      374     4736    3               IF PINCRW (LL_U_SYMREF$,I) -> B$FEP_UNSATREF.SREF THEN

   4736  4 001742   000000 470400 xsym               LDP0    LL_U_SYMREF$
         4 001743   200006 720100                    LXL0    I,,AUTO
PL6.E3A0      #001=LLD$MAP File=LLD$MAP.:E05TSI                                  WED 07/30/97 03:14 Page:69
         4 001744   000000 236110                    LDQ     0,X0,PR0
         4 001745   400000 316007                    CANQ    -131072,DL
         4 001746   001753 600000 4                  TZE     s:4740

      375     4737    3                   LL_U_SECONDARY_SYMREF_COUNT =

   4737  4 001747   000000 235000 xsym               LDA     LL_U_SECONDARY_SYMREF_COUNT
         4 001750   000001 035007                    ADLA    1,DL
         4 001751   000000 755000 xsym               STA     LL_U_SECONDARY_SYMREF_COUNT
         4 001752   001756 710000 4                  TRA     s:4742

      376     4738    3                      LL_U_SECONDARY_SYMREF_COUNT + 1;
      377     4739    3               ELSE
      378     4740    3                   LL_U_PRIMARY_SYMREF_COUNT =

   4740  4 001753   000000 235000 xsym               LDA     LL_U_PRIMARY_SYMREF_COUNT
         4 001754   000001 035007                    ADLA    1,DL
         4 001755   000000 755000 xsym               STA     LL_U_PRIMARY_SYMREF_COUNT

      379     4741    3                      LL_U_PRIMARY_SYMREF_COUNT + 1;
      380     4742    3               END;

   4742  4 001756   200006 235100                    LDA     I,,AUTO
         4 001757   000001 035007                    ADLA    1,DL
         4 001760   200006 755100                    STA     I,,AUTO
         4 001761   200006 236100                    LDQ     I,,AUTO
         4 001762   000000 116000 xsym               CMPQ    LL_U_SYMREF_CUR
         4 001763   001742 602000 4                  TNC     s:4736

      381     4743    3           DO I = 0 TO LL_U_ENTREF_CUR - 1;

   4743  4 001764   200006 450100                    STZ     I,,AUTO
         4 001765   002005 710000 4                  TRA     s:4750+3

      382     4744    3               IF PINCRW (LL_U_ENTREF$,I) -> B$FEP_UNSATREF.SREF THEN

   4744  4 001766   000000 470400 xsym               LDP0    LL_U_ENTREF$
PL6.E3A0      #001=LLD$MAP File=LLD$MAP.:E05TSI                                  WED 07/30/97 03:14 Page:70
         4 001767   200006 720100                    LXL0    I,,AUTO
         4 001770   000000 236110                    LDQ     0,X0,PR0
         4 001771   400000 316007                    CANQ    -131072,DL
         4 001772   001777 600000 4                  TZE     s:4748

      383     4745    3                   LL_U_SECONDARY_ENTREF_COUNT =

   4745  4 001773   000000 235000 xsym               LDA     LL_U_SECONDARY_ENTREF_COUNT
         4 001774   000001 035007                    ADLA    1,DL
         4 001775   000000 755000 xsym               STA     LL_U_SECONDARY_ENTREF_COUNT
         4 001776   002002 710000 4                  TRA     s:4750

      384     4746    3                      LL_U_SECONDARY_ENTREF_COUNT + 1;
      385     4747    3               ELSE
      386     4748    3                   LL_U_PRIMARY_ENTREF_COUNT =

   4748  4 001777   000000 235000 xsym               LDA     LL_U_PRIMARY_ENTREF_COUNT
         4 002000   000001 035007                    ADLA    1,DL
         4 002001   000000 755000 xsym               STA     LL_U_PRIMARY_ENTREF_COUNT

      387     4749    3                      LL_U_PRIMARY_ENTREF_COUNT + 1;
      388     4750    3               END;

   4750  4 002002   200006 235100                    LDA     I,,AUTO
         4 002003   000001 035007                    ADLA    1,DL
         4 002004   200006 755100                    STA     I,,AUTO
         4 002005   200006 236100                    LDQ     I,,AUTO
         4 002006   000000 116000 xsym               CMPQ    LL_U_ENTREF_CUR
         4 002007   001766 602000 4                  TNC     s:4744

      389     4751    2           END;

      390     4752    1       TPTR$ = LL_UREF_NAME$; /* Back to start of this piece for DEFs */

   4752  4 002010   000000 236000 xsym               LDQ     LL_UREF_NAME$
         4 002011   200017 756100                    STQ     TPTR$,,AUTO

PL6.E3A0      #001=LLD$MAP File=LLD$MAP.:E05TSI                                  WED 07/30/97 03:14 Page:71
      391     4753    1       CALL LLS$SAYREFS;

   4753  4 002012   000002 631400 xsym               EPPR1   B_VECTNIL+2
         4 002013   000000 701000 xent               TSX1    LLS$SAYREFS
         4 002014   000000 011000                    NOP     0

      392     4754    1   NO_REFS:
      393     4755    2       DO I = 4 TO 6 BY 2;

   4755  4 002015   000004 235007       NO_REFS      LDA     4,DL
         4 002016   200006 755100                    STA     I,,AUTO

      394     4756    2           DEF$ = TPTR$;

   4756  4 002017   200017 236100                    LDQ     TPTR$,,AUTO
         4 002020   200005 756100                    STQ     DEF$,,AUTO

      395     4757    2           B$RUKEY.PAGE = 0;

   4757  4 002021   000000 220003                    LDX0    0,DU
         4 002022   000001 740000 1                  STX0    B$RUKEY+1

      396     4758    2           B$RUKEY.TYPE = I;

   4758  4 002023   200006 236100                    LDQ     I,,AUTO
         4 002024   000022 736000                    QLS     18
         4 002025   000000 552020 1                  STBQ    B$RUKEY,'20'O

      397     4759    2           IF I = 4

   4759  4 002026   200006 235100                    LDA     I,,AUTO
         4 002027   000004 115007                    CMPA    4,DL
         4 002030   002035 601000 4                  TNZ     s:4761

      398     4760    2           THEN TEMP = LL_HEAD.EPRECSIZE;

   4760  4 002031   000007 236000 xsym               LDQ     LL_HEAD+7
PL6.E3A0      #001=LLD$MAP File=LLD$MAP.:E05TSI                                  WED 07/30/97 03:14 Page:72
         4 002032   000022 772000                    QRL     18
         4 002033   200015 756100                    STQ     TEMP,,AUTO
         4 002034   002040 710000 4                  TRA     s:4762

      399     4761    2           ELSE TEMP = LL_HEAD.EDRECSIZE;

   4761  4 002035   000007 236000 xsym               LDQ     LL_HEAD+7
         4 002036   777777 376007                    ANQ     -1,DL
         4 002037   200015 756100                    STQ     TEMP,,AUTO

      400     4762    2           IF TEMP = 0 THEN TEMP = 1;

   4762  4 002040   002043 601000 4                  TNZ     s:4763

   4762  4 002041   000001 235007                    LDA     1,DL
         4 002042   200015 755100                    STA     TEMP,,AUTO

      401     4763    2           CALL LLM$MON_SVC (LL#GETMEM, TEMP, TPTR$);

   4763  4 002043   200017 630500                    EPPR0   TPTR$,,AUTO
         4 002044   200026 450500                    STP0    VRPGS+6,,AUTO
         4 002045   200015 631500                    EPPR1   TEMP,,AUTO
         4 002046   200025 451500                    STP1    VRPGS+5,,AUTO
         4 002047   000000 236000 5                  LDQ     0
         4 002050   200024 756100                    STQ     VRPGS+4,,AUTO
         4 002051   200024 630500                    EPPR0   VRPGS+4,,AUTO
         4 002052   000021 631400 xsym               EPPR1   B_VECTNIL+17
         4 002053   000000 701000 xent               TSX1    LLM$MON_SVC
         4 002054   000000 011000                    NOP     0

      402     4764    2           CALL LLM$MON_SVC (LL#READRU, TPTR$, TEMP*4-1, B$RUKEY);

   4764  4 002055   200015 235100                    LDA     TEMP,,AUTO
         4 002056   000002 735000                    ALS     2
         4 002057   000001 135007                    SBLA    1,DL
         4 002060   200024 755100                    STA     VRPGS+4,,AUTO
         4 002061   000002 236000 5                  LDQ     2
PL6.E3A0      #001=LLD$MAP File=LLD$MAP.:E05TSI                                  WED 07/30/97 03:14 Page:73
         4 002062   200031 756100                    STQ     VRPGS+9,,AUTO
         4 002063   200024 630500                    EPPR0   VRPGS+4,,AUTO
         4 002064   200030 450500                    STP0    VRPGS+8,,AUTO
         4 002065   200017 631500                    EPPR1   TPTR$,,AUTO
         4 002066   200027 451500                    STP1    VRPGS+7,,AUTO
         4 002067   000003 236000 5                  LDQ     3
         4 002070   200026 756100                    STQ     VRPGS+6,,AUTO
         4 002071   200026 630500                    EPPR0   VRPGS+6,,AUTO
         4 002072   000022 631400 xsym               EPPR1   B_VECTNIL+18
         4 002073   000000 701000 xent               TSX1    LLM$MON_SVC
         4 002074   000000 011000                    NOP     0

      403     4765    2           TEMP = DCBADDR(DCBNUM(M$RU)) -> SIZE_FIELD;

   4765  4 002075   000000 236007 xsym               LDQ     M$RU,DL
         4 002076   000005 470400 5                  LDP0    5
         4 002077   000000 471500                    LDP1    0,,PR0
         4 002100   100000 473506                    LDP3    0,QL,PR1
         4 002101   300000 235100                    LDA     0,,PR3
         4 002102   200015 755100                    STA     TEMP,,AUTO

      404     4766    3           IF (TEMP > 0) THEN DO;

   4766  4 002103   002154 604400 4                  TMOZ    s:4772

      405     4767    3               IF (LL_FLAGS.NAME#) THEN

   4767  4 002104   000000 236000 xsym               LDQ     LL_FLAGS
         4 002105   000040 316003                    CANQ    32,DU
         4 002106   002130 600000 4                  TZE     s:4769

      406     4768    3                   CALL LLP$PUTLO (DEF$, 0, TEMP/8, NAME$, I);

   4768  4 002107   200015 236100                    LDQ     TEMP,,AUTO
         4 002110   000010 506007                    DIV     8,DL
         4 002111   200024 756100                    STQ     VRPGS+4,,AUTO
         4 002112   200006 633500                    EPPR3   I,,AUTO
PL6.E3A0      #001=LLD$MAP File=LLD$MAP.:E05TSI                                  WED 07/30/97 03:14 Page:74
         4 002113   200031 453500                    STP3    VRPGS+9,,AUTO
         4 002114   200016 634500                    EPPR4   NAME$,,AUTO
         4 002115   200030 454500                    STP4    VRPGS+8,,AUTO
         4 002116   200024 635500                    EPPR5   VRPGS+4,,AUTO
         4 002117   200027 455500                    STP5    VRPGS+7,,AUTO
         4 002120   000023 236000 5                  LDQ     19
         4 002121   200026 756100                    STQ     VRPGS+6,,AUTO
         4 002122   200005 636500                    EPPR6   DEF$,,AUTO
         4 002123   200025 456500                    STP6    VRPGS+5,,AUTO
         4 002124   200025 630500                    EPPR0   VRPGS+5,,AUTO
         4 002125   000023 631400 xsym               EPPR1   B_VECTNIL+19
         4 002126   000000 701000 xent               TSX1    LLP$PUTLO
         4 002127   000000 011000                    NOP     0

      407     4769    3               IF (LL_FLAGS.VALUE#) THEN

   4769  4 002130   000000 236000 xsym               LDQ     LL_FLAGS
         4 002131   000020 316003                    CANQ    16,DU
         4 002132   002154 600000 4                  TZE     s:4772

      408     4770    3                   CALL LLP$PUTLO (DEF$, 1, TEMP/8, NAME$, I);

   4770  4 002133   200015 236100                    LDQ     TEMP,,AUTO
         4 002134   000010 506007                    DIV     8,DL
         4 002135   200024 756100                    STQ     VRPGS+4,,AUTO
         4 002136   200006 630500                    EPPR0   I,,AUTO
         4 002137   200031 450500                    STP0    VRPGS+9,,AUTO
         4 002140   200016 631500                    EPPR1   NAME$,,AUTO
         4 002141   200030 451500                    STP1    VRPGS+8,,AUTO
         4 002142   200024 633500                    EPPR3   VRPGS+4,,AUTO
         4 002143   200027 453500                    STP3    VRPGS+7,,AUTO
         4 002144   000007 236000 5                  LDQ     7
         4 002145   200026 756100                    STQ     VRPGS+6,,AUTO
         4 002146   200005 634500                    EPPR4   DEF$,,AUTO
         4 002147   200025 454500                    STP4    VRPGS+5,,AUTO
         4 002150   200025 630500                    EPPR0   VRPGS+5,,AUTO
         4 002151   000023 631400 xsym               EPPR1   B_VECTNIL+19
PL6.E3A0      #001=LLD$MAP File=LLD$MAP.:E05TSI                                  WED 07/30/97 03:14 Page:75
         4 002152   000000 701000 xent               TSX1    LLP$PUTLO
         4 002153   000000 011000                    NOP     0

      409     4771    3               END;

      410     4772    2           END;

   4772  4 002154   200006 235100                    LDA     I,,AUTO
         4 002155   000002 035007                    ADLA    2,DL
         4 002156   200006 755100                    STA     I,,AUTO
         4 002157   000007 115007                    CMPA    7,DL
         4 002160   002017 602000 4                  TNC     s:4756

      411     4773    1       CALL LLM$MON_SVC (LL#CLOSERU);

   4773  4 002161   000025 630400 5                  EPPR0   21
         4 002162   000017 631400 xsym               EPPR1   B_VECTNIL+15
         4 002163   000000 701000 xent               TSX1    LLM$MON_SVC
         4 002164   000000 011000                    NOP     0

      412     4774    1       RETURN;

   4774  4 002165   000000 702200 xent               TSX2  ! X66_ARET

      413     4775        %EJECT;
PL6.E3A0      #001=LLD$MAP File=LLD$MAP.:E05TSI                                  WED 07/30/97 03:14 Page:76
      414     4776        /*I*
      415     4777           NAME: READRU
      416     4778           PURPOSE: Reads the 1024-word pieces of the RU records whose type is
      417     4779                    is B$RUKEY.TYPE into memory at TPTR$.  The size of the total
      418     4780                    record in words is returned in X.  TPTR$ is incremented to
      419     4781                    point to the end of it.
      420     4782        */
      421     4783    1   READRU: PROC;

   4783  4 002166   200022 741300       READRU       STX1  ! VRPGS+2,,AUTO

      422     4784    2       X = 0;

   4784  4 002167   200010 450100                    STZ     X,,AUTO

      423     4785    2       B$RUKEY.PAGE = 0;

   4785  4 002170   000000 220003                    LDX0    0,DU
         4 002171   000001 740000 1                  STX0    B$RUKEY+1

      424     4786    3       DO UNTIL TEMP<1024;

      425     4787    3           CALL LLM$MON_SVC (LL#GETMEM, 1024, TPTR$);

   4787  4 002172   200017 630500                    EPPR0   TPTR$,,AUTO
         4 002173   200026 450500                    STP0    VRPGS+6,,AUTO
         4 002174   000016 237000 5                  LDAQ    14
         4 002175   200024 757100                    STAQ    VRPGS+4,,AUTO
         4 002176   200024 630500                    EPPR0   VRPGS+4,,AUTO
         4 002177   000021 631400 xsym               EPPR1   B_VECTNIL+17
         4 002200   000000 701000 xent               TSX1    LLM$MON_SVC
         4 002201   000000 011000                    NOP     0

      426     4788    4           CALL LLM$MON_SVC (LL#READRU, TPTR$, 4095, B$RUKEY) WHENALTRETURN DO;

   4788  4 002202   000030 237000 5                  LDAQ    24
         4 002203   200026 757100                    STAQ    VRPGS+6,,AUTO
PL6.E3A0      #001=LLD$MAP File=LLD$MAP.:E05TSI                                  WED 07/30/97 03:14 Page:77
         4 002204   200017 630500                    EPPR0   TPTR$,,AUTO
         4 002205   200025 450500                    STP0    VRPGS+5,,AUTO
         4 002206   000003 236000 5                  LDQ     3
         4 002207   200024 756100                    STQ     VRPGS+4,,AUTO
         4 002210   200024 630500                    EPPR0   VRPGS+4,,AUTO
         4 002211   000022 631400 xsym               EPPR1   B_VECTNIL+18
         4 002212   000000 701000 xent               TSX1    LLM$MON_SVC
         4 002213   002215 702000 4                  TSX2    s:4789
         4 002214   002217 710000 4                  TRA     s:4791

      427     4789    4               RETURN;

   4789  4 002215   200022 221300                    LDX1  ! VRPGS+2,,AUTO
         4 002216   000001 702211                    TSX2  ! 1,X1

      428     4790    4               END;
      429     4791    3           B$RUKEY.PAGE = B$RUKEY.PAGE + 1;

   4791  4 002217   000001 220000 1                  LDX0    B$RUKEY+1
         4 002220   000001 621010                    EAX1    1,X0
         4 002221   000001 741000 1                  STX1    B$RUKEY+1

      430     4792    3           TEMP = DCBADDR(DCBNUM(M$RU))->SIZE_FIELD/4;

   4792  4 002222   000000 236007 xsym               LDQ     M$RU,DL
         4 002223   000005 470400 5                  LDP0    5
         4 002224   000000 471500                    LDP1    0,,PR0
         4 002225   100000 473506                    LDP3    0,QL,PR1
         4 002226   300000 236100                    LDQ     0,,PR3
         4 002227   000004 506007                    DIV     4,DL
         4 002230   200015 756100                    STQ     TEMP,,AUTO

      431     4793    3           X = X + TEMP;

   4793  4 002231   200010 036100                    ADLQ    X,,AUTO
         4 002232   200010 756100                    STQ     X,,AUTO

PL6.E3A0      #001=LLD$MAP File=LLD$MAP.:E05TSI                                  WED 07/30/97 03:14 Page:78
      432     4794    3           TPTR$ = PINCRW (TPTR$, TEMP);

   4794  4 002233   200015 236100                    LDQ     TEMP,,AUTO
         4 002234   000022 736000                    QLS     18
         4 002235   200017 036100                    ADLQ    TPTR$,,AUTO
         4 002236   200017 756100                    STQ     TPTR$,,AUTO

      433     4795    3           END;

   4795  4 002237   200015 235100                    LDA     TEMP,,AUTO
         4 002240   002000 115007                    CMPA    1024,DL
         4 002241   002172 605000 4                  TPL     s:4787

      434     4796    2       RETURN;

   4796  4 002242   200022 221300                    LDX1  ! VRPGS+2,,AUTO
         4 002243   000001 702211                    TSX2  ! 1,X1
      435     4797    2   END READRU;
      436     4798    1   END LLD$MAP;

PL6.E3A0      #001=LLD$MAP File=LLD$MAP.:E05TSI                                  WED 07/30/97 03:14 Page:79
--  Include file information  --

   B$OBJECT_C.:E05TOU  is referenced.
   LL_MACS_C.:E05TOU  is referenced.
   LL_SUBS_C.:E05TOU  is referenced.
   LL_DATA_R.:E05TOU  cannot be made into a system file and is referenced.
   CP_6.:E05TOU  cannot be made into a system file and is referenced.
   B$JIT_C.:E05TOU  was found in the system file and is never referenced.
   CP_6_C.:E05TOU  was found in the system file and is referenced.
      No diagnostics issued in procedure LLD$MAP.
PL6.E3A0      #001=LLD$MAP File=LLD$MAP.:E05TSI                                  WED 07/30/97 03:14 Page:80

 **** Variables and constants ****

  ****  Section 001  Data  LLD$MAP

  ****  Scalars and arrays  ****
OctLoc.c.b A Datatyp(siz) R M Lvl/name                 OctLoc.c.b A Datatyp(siz) R M Lvl/name

     0-0-0/w STRC(54)    r     1 B$RUKEY                    2-0-0/d STRC(432)   r     1 BIRTH_TIME
    27-0-0/c CHAR        r     1 STR1                      30-0-0/c CHAR(5)     r     1 STR5
    16-0-0/w STRC(306)   r     1 UTS_BUF                   16-0-0/w CHAR(34)    r     1 UTS_BUFFER

  ****  Auto variables  ****

  ****  Scalars and arrays  ****
OctLoc.c.b A Datatyp(siz) R M Lvl/name                 OctLoc.c.b A Datatyp(siz) R M Lvl/name

     3-0-0/w PTR         r     1 @AVAIL$                   *0-0-0/w PTR         r     1 AVAIL$
     5-0-0/w PTR         r     1 DEF$                      13-0-0/c CHAR(6)     r     1 HEXSTR
    13-0-0/c CHAR        r     1 HEXSTR_ARY(0:5)
     6-0-0/w UBIN        r     1 I                          7-0-0/w UBIN        r     1 J
    16-0-0/w PTR         r     1 NAME$                     11-0-0/w STRC(63)    r     1 STRING
    15-0-0/w SBIN        r     1 TEMP                      17-0-0/w PTR         r     1 TPTR$
    20-0-0/w UBIN        r     1 VRPGS                     10-0-0/w SBIN        r     1 X

  ****  SYMREF variables  ****

  ****  Scalars and arrays  ****
OctLoc.c.b A Datatyp(siz) R M Lvl/name                 OctLoc.c.b A Datatyp(siz) R M Lvl/name

     0-0-0/w STRC(108)   r     1 B$RUBIRTH                  0-0-0/w BIT         r     1 LLS_INIT#
     0-0-0/w UBIN        r     1 LL_DATA_START              0-0-0/d STRC(72)    r     1 LL_DNAME_VEC
     0-0-0/w UBIN        r     1 LL_END_LOC                 0-0-0/w UBIN        r     1 LL_END_VALUE
     0-0-0/w STRC        r     1 LL_FLAGS                   0-0-0/w STRC(1440)  r     1 LL_HEAD
     0-0-0/c CHAR(4)     r     1 LL_HEAD_VERS_TXT(0:1)
     0-0-0/w CHAR(112)   r     1 LL_LOBUF                   0-0-0/w UBIN        r     1 LL_PROC_START
     0-0-0/w UBIN        r     1 LL_STATE                   0-0-0/w PTR         r     1 LL_UREF_NAME$
     0-0-0/w UBIN        r     1 LL_UREF_NAME_CUR           0-0-0/w PTR         r     1 LL_U_ENTREF$
PL6.E3A0      #001=LLD$MAP File=LLD$MAP.:E05TSI                                  WED 07/30/97 03:14 Page:81
     0-0-0/w UBIN        r     1 LL_U_ENTREF_CUR
     0-0-0/w UBIN        r     1 LL_U_PRIMARY_ENTREF_COUNT
     0-0-0/w UBIN        r     1 LL_U_PRIMARY_SYMREF_COUNT
     0-0-0/w UBIN        r     1 LL_U_SECONDARY_ENTREF_COUNT
     0-0-0/w UBIN        r     1 LL_U_SECONDARY_SYMREF_COUNT
     0-0-0/w PTR         r     1 LL_U_SYMREF$               0-0-0/w UBIN        r     1 LL_U_SYMREF_CUR
     0-0-0/w BIT         r     1 LL_WIDE#

  ****  BASED and DCB variables  ****

  ****  Scalars and arrays  ****
OctLoc.c.b A Datatyp(siz) R M Lvl/name                 OctLoc.c.b A Datatyp(siz) R M Lvl/name

     0-0-0/w CHAR(8)     r     1 ANAME                      0-0-0/w ASTR(18)    r     1 B$DNAME
     0-0-0/w STRC        r     1 B$FEP_UNSATREF             0-0-0/c ASTR(9)     r     1 B$STRING
     0-0-0/c CHAR        r     1 CHARACTER                  0-0-0/w ASTR(9)     r     1 FNAME
     0-0-0/w STRC(72)    r     1 LL_SECTION                 0-0-0N  NULL        r     1 M$RU
     0-0-0/w SBIN        r     1 SIZE_FIELD


   Procedure LLD$MAP requires 1188 words for executable code.
   Procedure LLD$MAP requires 26 words of local(AUTO) storage.

    No errors detected in file LLD$MAP.:E05TSI    .
PL6.E3A0      #001=LLD$MAP File=LLD$MAP.:E05TSI                                  WED 07/30/97 03:14 Page:82
          *** CROSS REFERENCE LISTING ***
**     DENOTES     IDENTIFIER DEFINITION
<<                 IDENTIFIER'S VALUE SET
>>                 IDENTIFIER'S VALUE USED
<>                 IDENTIFIER SET AND/OR USED
--                 IDENTIFIER REFERENCED
PL6.E3A0      #001=LLD$MAP File=LLD$MAP.:E05TSI                                  WED 07/30/97 03:14 Page:83
          MINI XREF LISTING

ANAME
      4432**DCL      4463>>CALLBLT
AVAIL$
      4408**DCL        16--PROC     4447<>CALL     4449<>CALL     4450>>ASSIGN   4622>>ASSIGN
B$DNAME.COUNT
      4056**DCL      4063--IMP-SIZ  4660>>CALLBLT
B$DNAME.TEXT
      4063**DCL      4660>>CALLBLT
B$FEP_UNSATREF.SREF
      4361**DCL      4736>>IF       4744>>IF
B$RUBIRTH.CREATE_UTS
      4108**DCL      4395--DCLINIT
B$RUKEY
      4077**DCL      4449<>CALL     4709<>CALL     4764<>CALL     4788<>CALL
B$RUKEY.NODE
      4089**DCL      4093--REDEF
B$RUKEY.PAGE
      4096**DCL      4101--REDEF    4705<<ASSIGN   4757<<ASSIGN   4785<<ASSIGN   4791<<ASSIGN   4791>>ASSIGN
B$RUKEY.TYPE
      4080**DCL      4448<<ASSIGN   4626<<ASSIGN   4706<<ASSIGN   4724<<ASSIGN   4728<<ASSIGN   4758<<ASSIGN
B$STRING.COUNT
      4427**DCL      4428--IMP-SIZ  4680>>CALLBLT
B$STRING.TEXT
      4428**DCL      4680>>CALLBLT
BIRTH_TIME
      4391**DCL      4504<>CALL
BIRTH_TIME.V
      4395**DCL      4391--DCLINIT
CHARACTER
      4439**DCL      4477>>IF       4478<<ASSIGN
DEF$
      4409**DCL      4756<<ASSIGN   4768<>CALL     4770<>CALL
PL6.E3A0      #001=LLD$MAP File=LLD$MAP.:E05TSI                                  WED 07/30/97 03:14 Page:84
FNAME.COUNT
      4430**DCL      4431--IMP-SIZ  4461>>CALLBLT
FNAME.TEXT
      4431**DCL      4461>>CALLBLT
HEXSTR
      4420**DCL      4421--REDEF    4635<>CALL     4643>>CALLBLT  4645>>CALLBLT  4647>>CALLBLT  4649>>CALLBLT
      4651>>CALLBLT  4653>>CALLBLT  4655>>CALLBLT  4663<<CALLBLT  4669>>CALLBLT  4670<>CALL     4679>>ASSIGN
HEXSTR_ARY
      4421**DCL      4665>>DOWHILE  4666<<ASSIGN   4672>>DOWHILE  4676<<ASSIGN   4676>>ASSIGN
I
      4410**DCL      4476<<DOINDEX  4477>>IF       4478>>ASSIGN   4480<<ASSIGN   4630<<DOINDEX  4636>>IF
      4684>>IF       4735<<DOINDEX  4736>>IF       4743<<DOINDEX  4744>>IF       4755<<DOINDEX  4758>>ASSIGN
      4759>>IF       4768<>CALL     4770<>CALL
J
      4411**DCL      4664<<ASSIGN   4665>>DOWHILE  4665>>DOWHILE  4666>>ASSIGN   4667<<ASSIGN   4667>>ASSIGN
      4671<<ASSIGN   4672>>DOWHILE  4673<<ASSIGN   4673>>ASSIGN   4675>>DOINDEX  4676>>ASSIGN   4678>>ASSIGN
LLI$BINHEX
      4414**DCL-ENT  4468--CALL     4487--CALL     4499--CALL     4550--CALL     4557--CALL     4562--CALL
      4569--CALL     4574--CALL     4579--CALL     4590--CALL     4599--CALL     4604--CALL     4613--CALL
      4616--CALL     4635--CALL     4670--CALL
LLM$MON_SVC
      4413**DCL-ENT  4447--CALL     4449--CALL     4458--CALL     4466--CALL     4485--CALL     4503--CALL
      4509--CALL     4511--CALL     4516--CALL     4520--CALL     4522--CALL     4524--CALL     4526--CALL
      4528--CALL     4530--CALL     4532--CALL     4534--CALL     4537--CALL     4540--CALL     4542--CALL
      4544--CALL     4565--CALL     4582--CALL     4607--CALL     4618--CALL     4621--CALL     4625--CALL
      4681--CALL     4686--CALL     4704--CALL     4709--CALL     4763--CALL     4764--CALL     4773--CALL
      4787--CALL     4788--CALL
LLP$PUTLO
      4415**DCL-ENT  4768--CALL     4770--CALL
LLS$SAYREFS
      4416**DCL-ENT  4753--CALL
LLS_INIT#
       120**DCL      4697>>IF
LL_DATA_START
       113**DCL      4492>>IF       4495>>ASSIGN   4547>>ASSIGN   4567>>ASSIGN   4587>>ASSIGN
LL_DNAME_VEC.P$
PL6.E3A0      #001=LLD$MAP File=LLD$MAP.:E05TSI                                  WED 07/30/97 03:14 Page:85
       129**DCL      4445>>IF       4452>>ASSIGN   4623>>IF
LL_END_LOC
       127**DCL      4555>>ASSIGN   4596>>ASSIGN
LL_END_VALUE
       126**DCL      4549>>ASSIGN   4587>>ASSIGN
LL_FLAGS.BIAS_OU
       109**DCL      4470>>IF       4489>>IF       4548>>IF       4554>>IF       4585>>IF       4594>>IF
      4608>>IF
LL_FLAGS.EMPTY#
       108**DCL      4631>>IF
LL_FLAGS.NAME#
       108**DCL      4518>>IF       4767>>IF
LL_FLAGS.UDEF#
       108**DCL      4518>>IF
LL_FLAGS.VALUE#
       108**DCL      4518>>IF       4769>>IF
LL_HEAD.BIAS
      4320**DCL      4498>>ASSIGN
LL_HEAD.EDRECSIZE
      4228**DCL      4761>>ASSIGN
LL_HEAD.EPRECSIZE
      4225**DCL      4760>>ASSIGN
LL_HEAD.LIBNAME.TXT
      4336**DCL      4512>>IF       4515>>CALLBLT
LL_HEAD.NRECSIZE
      4222**DCL      4446>>ASSIGN   4624>>ASSIGN   4703>>ASSIGN
LL_HEAD.RDATA
      4175**DCL      4472>>ASSIGN   4547>>ASSIGN   4589>>ASSIGN   4612>>ASSIGN
LL_HEAD.ROSIZE
      4234**DCL      4444>>ASSIGN   4560>>IF       4561>>ASSIGN   4577>>IF       4602>>IF       4603>>ASSIGN
LL_HEAD.RPROC
      4165**DCL      4472>>ASSIGN   4556>>ASSIGN   4598>>ASSIGN   4615>>ASSIGN
LL_HEAD.SEV
      4196**DCL      4467>>ASSIGN
LL_HEAD.START
      4201**DCL      4486>>ASSIGN
PL6.E3A0      #001=LLD$MAP File=LLD$MAP.:E05TSI                                  WED 07/30/97 03:14 Page:86
LL_HEAD.VDPGS
      4167**DCL      4474>>ASSIGN   4546>>IF       4568>>IF       4584>>IF
LL_HEAD.VERSION#
      4236**DCL      4454>>CALLBLT
LL_HEAD.VPPGS
      4159**DCL      4474>>ASSIGN   4553>>IF       4572>>IF       4593>>IF
LL_HEAD_VERS_TXT
       128**DCL      4454>>CALLBLT
LL_LOBUF
       106**DCL      4453<<CALLBLT  4454<<CALLBLT  4456<<CALLBLT  4457<<ASSIGN   4457>>ASSIGN   4459<<CALLBLT
      4461<<CALLBLT  4463<<CALLBLT  4465<<ASSIGN   4465>>ASSIGN   4469<<CALLBLT  4482<<CALLBLT  4484<<ASSIGN
      4484>>ASSIGN   4488<<CALLBLT  4500<<CALLBLT  4502<<ASSIGN   4502>>ASSIGN   4505<<CALLBLT  4507<<CALLBLT
      4508<<ASSIGN   4508>>ASSIGN   4510<<ASSIGN   4515<<CALLBLT  4519<<ASSIGN   4521<<ASSIGN   4523<<ASSIGN
      4525<<ASSIGN   4527<<ASSIGN   4529<<ASSIGN   4531<<ASSIGN   4533<<ASSIGN   4535<<ASSIGN   4539<<ASSIGN
      4541<<ASSIGN   4543<<ASSIGN   4545<<ASSIGN   4551<<CALLBLT  4558<<CALLBLT  4563<<CALLBLT  4566<<ASSIGN
      4570<<CALLBLT  4575<<CALLBLT  4580<<CALLBLT  4583<<ASSIGN   4591<<CALLBLT  4600<<CALLBLT  4605<<CALLBLT
      4611<<ASSIGN   4614<<CALLBLT  4617<<CALLBLT  4620<<ASSIGN   4637<<ASSIGN   4639<<ASSIGN   4643<<CALLBLT
      4645<<CALLBLT  4647<<CALLBLT  4649<<CALLBLT  4651<<CALLBLT  4653<<CALLBLT  4655<<CALLBLT  4658<<CALLBLT
      4660<<CALLBLT  4669<<CALLBLT  4680<<CALLBLT  4685<<ASSIGN
LL_PROC_START
       114**DCL      4492>>IF       4494>>ASSIGN   4556>>ASSIGN   4573>>ASSIGN   4596>>ASSIGN
LL_SECTION.ISADDR
      4145**DCL      4634>>ASSIGN
LL_SECTION.NPOINTER
      4147**DCL      4631>>IF       4640>>ASSIGN
LL_SECTION.SIZE
      4151**DCL      4631>>IF       4662>>ASSIGN
LL_SECTION.TYPE
      4117**DCL      4641>>DOCASE
LL_STATE
       114**DCL      4443<<ASSIGN
LL_UREF_NAME$
       117**DCL      4708<<ASSIGN   4752>>ASSIGN
LL_UREF_NAME_CUR
       119**DCL      4716<<ASSIGN   4722>>ASSIGN
LL_U_ENTREF$
PL6.E3A0      #001=LLD$MAP File=LLD$MAP.:E05TSI                                  WED 07/30/97 03:14 Page:87
       118**DCL      4723<<ASSIGN   4744>>IF
LL_U_ENTREF_CUR
       120**DCL      4726<<ASSIGN   4743>>DOINDEX
LL_U_PRIMARY_ENTREF_COUNT
       123**DCL      4733<<ASSIGN   4748<<ASSIGN   4748>>ASSIGN
LL_U_PRIMARY_SYMREF_COUNT
       122**DCL      4731<<ASSIGN   4740<<ASSIGN   4740>>ASSIGN
LL_U_SECONDARY_ENTREF_COUNT
       122**DCL      4734<<ASSIGN   4745<<ASSIGN   4745>>ASSIGN
LL_U_SECONDARY_SYMREF_COUNT
       121**DCL      4732<<ASSIGN   4737<<ASSIGN   4737>>ASSIGN
LL_U_SYMREF$
       118**DCL      4727<<ASSIGN   4736>>IF
LL_U_SYMREF_CUR
       120**DCL      4730<<ASSIGN   4735>>DOINDEX
LL_WIDE#
       120**DCL      4457>>IF       4465>>IF       4484>>IF       4502>>IF       4508>>IF
M$RU
      4407**DCL      4460--ASSIGN   4716--ASSIGN   4765--ASSIGN   4792--ASSIGN
M$TIME
        93**DCL-ENT  4504--CALL
NAME$
      4437**DCL      4450<<ASSIGN   4452<<ASSIGN   4660>>CALLBLT  4660>>CALLBLT  4768<>CALL     4770<>CALL
NO_REFS
      4755**LABEL    4709--CALLALT
READRU
      4783**PROC     4627--CALL     4725--CALL     4729--CALL
SIZE_FIELD
      4440**DCL      4716>>ASSIGN   4765>>ASSIGN   4792>>ASSIGN
STR1
      4434**DCL      4468<>CALL     4469>>CALLBLT
STR5
      4435**DCL      4475<<CALLBLT  4477--IF       4478--ASSIGN   4482>>CALLBLT  4487<>CALL     4488>>CALLBLT
      4499<>CALL     4500>>CALLBLT  4550<>CALL     4551>>CALLBLT  4557<>CALL     4558>>CALLBLT  4562<>CALL
      4563>>CALLBLT  4569<>CALL     4570>>CALLBLT  4574<>CALL     4575>>CALLBLT  4579<>CALL     4580>>CALLBLT
      4590<>CALL     4591>>CALLBLT  4599<>CALL     4600>>CALLBLT  4604<>CALL     4605>>CALLBLT  4613<>CALL
PL6.E3A0      #001=LLD$MAP File=LLD$MAP.:E05TSI                                  WED 07/30/97 03:14 Page:88
      4614>>CALLBLT  4616<>CALL     4617>>CALLBLT
STRING
      4417**DCL      4680--CALLBLT  4680--CALLBLT
STRING.COUNT
      4418**DCL      4678<<ASSIGN
STRING.TEXT
      4419**DCL      4679<<ASSIGN
TEMP
      4433**DCL      4446<<ASSIGN   4447<>CALL     4449>>CALL     4467<<ASSIGN   4468<>CALL     4472<<ASSIGN
      4474<<ASSIGN   4475>>CALLBLT  4486<<ASSIGN   4487<>CALL     4494<<ASSIGN   4495<<ASSIGN   4498<<ASSIGN
      4499<>CALL     4547<<ASSIGN   4549<<ASSIGN   4550<>CALL     4555<<ASSIGN   4556<<ASSIGN   4557<>CALL
      4561<<ASSIGN   4562<>CALL     4567<<ASSIGN   4569<>CALL     4573<<ASSIGN   4574<>CALL     4578<<ASSIGN
      4579<>CALL     4587<<ASSIGN   4589<<ASSIGN   4590<>CALL     4596<<ASSIGN   4598<<ASSIGN   4599<>CALL
      4603<<ASSIGN   4604<>CALL     4612<<ASSIGN   4613<>CALL     4615<<ASSIGN   4616<>CALL     4634<<ASSIGN
      4635<>CALL     4640<<ASSIGN   4657>>IF       4660>>CALLBLT  4660>>CALLBLT  4662<<ASSIGN   4663>>CALLBLT
      4670<>CALL     4675<<DOINDEX  4676>>ASSIGN   4676>>ASSIGN   4703<<ASSIGN   4704<>CALL     4707<<ASSIGN
      4707>>ASSIGN   4709<>CALL     4760<<ASSIGN   4761<<ASSIGN   4762>>IF       4762<<ASSIGN   4763<>CALL
      4764>>CALL     4765<<ASSIGN   4766>>IF       4768>>CALL     4770>>CALL     4786>>DOUNTIL  4792<<ASSIGN
      4793>>ASSIGN   4794>>ASSIGN
TPTR$
      4438**DCL      4460<<ASSIGN   4461>>CALLBLT  4461>>CALLBLT  4462<<ASSIGN   4462>>ASSIGN   4463>>CALLBLT
      4622<<ASSIGN   4624<<ASSIGN   4624>>ASSIGN   4625<>CALL     4628<<ASSIGN   4628>>ASSIGN   4631>>IF
      4631>>IF       4634>>ASSIGN   4640>>ASSIGN   4641>>DOCASE   4662>>ASSIGN   4689<<ASSIGN   4689>>ASSIGN
      4696<<ASSIGN   4696>>ASSIGN   4704<>CALL     4708>>ASSIGN   4709<>CALL     4722<<ASSIGN   4722>>ASSIGN
      4723>>ASSIGN   4727>>ASSIGN   4752<<ASSIGN   4756>>ASSIGN   4763<>CALL     4764<>CALL     4787<>CALL
      4788<>CALL     4794<<ASSIGN   4794>>ASSIGN
UTS_BUF
      4399**DCL      4406--REDEF
UTS_BUF.DATE
      4401**DCL      4391--DCLINIT  4392--DCLINIT
UTS_BUF.DAY
      4405**DCL      4394--DCLINIT
UTS_BUF.TIME
      4403**DCL      4393--DCLINIT  4394--DCLINIT
UTS_BUFFER
      4406**DCL      4505>>CALLBLT
PL6.E3A0      #001=LLD$MAP File=LLD$MAP.:E05TSI                                  WED 07/30/97 03:14 Page:89
VRPGS
      4441**DCL      4444<<ASSIGN   4472>>ASSIGN   4474>>ASSIGN
X
      4412**DCL      4628>>ASSIGN   4629<<ASSIGN   4629>>ASSIGN   4630>>DOINDEX  4636>>IF       4684>>IF
      4696>>ASSIGN   4726>>ASSIGN   4730>>ASSIGN   4784<<ASSIGN   4793<<ASSIGN   4793>>ASSIGN
