VERSION E05

PL6.E3A0      #001=LLE$READOU File=LLE$READOU.:E05TSI                            WED 07/30/97 03:15 Page:1
        1        1        /*M* LLE$READOU - Common OU reader                                  */
        2        2        /*T***********************************************************/
        3        3        /*T*                                                         */
        4        4        /*T* Copyright (c) Bull HN Information Systems Inc., 1997    */
        5        5        /*T*                                                         */
        6        6        /*T***********************************************************/
        7        7        /*X* PLM=4,STI=0,IND=4,CTI=3,DCI=4,ECI=4,CSI=0,THI=0,DTI=0,ENI=4,
        8        8             CLM=0,SQB,NTB,MOC,CCI=3,NLB,MCL=0,EDMC*/
        9        9        /*F* NAME:         LLD$MAP
       10       10             PURPOSE:      Provide a common "easy" interface to CP-6 monitor
       11       11                           services to read object unit records.            */
       12       12        LLE$READOU: PROC ( UTS, TYPE, SIZE, PAGE, BUFFER$ ) ALTRET;
       13       13    1   DCL LLM$MON_SVC ENTRY(4) ALTRET;
       14       14    1   DCL UTS UBIN WORD ALIGNED;
       15       15    1   DCL TYPE UBIN WORD ALIGNED;
       16       16    1   DCL SIZE UBIN WORD ALIGNED;
       17       17    1   DCL PAGE UBIN WORD ALIGNED;
       18       18        %INCLUDE LL_DATA_R;
       19       54        %INCLUDE LL_MACS_C;
       20      408        %LL$OU_ENTRY ( NAME = OU_ENTRY );
       21      456    1   DCL BUFFER$ PTR;
       22      457        %INCLUDE B$OBJECT_C;
       23     3887        %INCLUDE LL_SUBS_C;
       24     4016        %B$OUKEY ( NAME = B$OUKEY,
       25     4017         STCLASS = STATIC );
       26     4053        %B$PRGRELKEY ( NAME = B$PRGKEY,
       27     4054         STCLASS = STATIC );
       28     4085    1   DCL I SBIN ALIGNED;
       29     4086    1   DCL ACCUM SBIN ALIGNED;
       30     4087    1   DCL TPTR$ PTR;
       31     4088        %EJECT;
PL6.E3A0      #001=LLE$READOU File=LLE$READOU.:E05TSI                            WED 07/30/97 03:15 Page:2
       32     4089    1   BEGIN:
       33     4090    2       IF ( TYPE < 8 ) THEN DO;
       34     4091    2           B$OUKEY.UTS = UTS;
       35     4092    2           B$OUKEY.TYPE = TYPE;
       36     4093    2           B$OUKEY.PAGE = 0;
       37     4094    2           ACCUM = SIZE;
       38     4095    2           I = PAGE;
       39     4096    2           TPTR$ = BUFFER$;
       40     4097    3           DO WHILE ( ACCUM > 0 );
       41     4098    3               CALL LLM$MON_SVC ( LL#READOU, TPTR$, ACCUM-1, B$OUKEY )
       42     4099    3                  ALTRET ( OH_MY_GOD );
       43     4100    3               TPTR$ = PINCRC ( TPTR$, I );
       44     4101    3               ACCUM = ACCUM - I;
       45     4102    3               B$OUKEY.PAGE = B$OUKEY.PAGE + 1;
       46     4103    3               END;
       47     4104    2           ACCUM = ACCUM + I;
       48     4105    2           CALL LLM$MON_SVC ( LL#SIZEEF, I );
       49     4106    2           IF ( I ~= ACCUM ) THEN GOTO OH_MY_GOD;
       50     4107    2           RETURN;
       51     4108    2           END;
       52     4109    2       ELSE DO;
       53     4110    2           B$OUKEY.UTS = UTS;
       54     4111    2           B$OUKEY.TYPE = TYPE;
       55     4112    2           B$OUKEY.PAGE = 0;
       56     4113    2           CALL LLM$MON_SVC (LL#POSEF, 0, 0, B$OUKEY) ALTRET (OK);
       57     4114    3           IF B$OUKEY.TYPE = 8 OR B$OUKEY.TYPE = 9 THEN DO;
       58     4115    3               CALL CONCAT ( LL_DOBUF,
       59     4116    3                  'A **** Warning:  object unit ',
       60     4117    3                  LL_OU_PTR$ -> OU_ENTRY.OUNAME.TEXT,
       61     4118    3                  ' from file ',
       62     4119    3                  LL_FIRSTFID );
       63     4120    3               CALL LLM$MON_SVC (LL#WRITEDO);
       64     4121    3               IF TYPE = 8 THEN LL_DOBUF =
       65     4122    3                      'A      contains an unsupported SEGDEF record.';
       66     4123    3               ELSE LL_DOBUF =
       67     4124    3                      'A      contains an unsupported SEGREF record.';
       68     4125    3               CALL LLM$MON_SVC (LL#WRITEDO);
PL6.E3A0      #001=LLE$READOU File=LLE$READOU.:E05TSI                            WED 07/30/97 03:15 Page:3
       69     4126    3   OH_MY_GOD:
       70     4127    3               ALTRETURN;
       71     4128    3   OK:
       72     4129    3               END;
       73     4130    2           END;
       74     4131    1   END LLE$READOU;

PL6.E3A0      #001=LLE$READOU File=LLE$READOU.:E05TSI                            WED 07/30/97 03:15 Page:4
--  Include file information  --

   LL_SUBS_C.:E05TOU  is referenced.
   B$OBJECT_C.:E05TOU  is referenced.
   LL_MACS_C.:E05TOU  is referenced.
   LL_DATA_R.:E05TOU  cannot be made into a system file and is referenced.
      No diagnostics issued in procedure LLE$READOU.

   Procedure LLE$READOU requires 132 words for executable code.
   Procedure LLE$READOU requires 18 words of local(AUTO) storage.

    No errors detected in file LLE$READOU.:E05TSI    .

PL6.E3A0      #001=LLE$READOU File=LLE$READOU.:E05TSI                            WED 07/30/97 03:15 Page:5

 Object Unit name= LLE$READOU                                 File name= LLE$READOU.:E05TOU
 UTS= JUL 30 '97 03:15:07.48 WED                              Compiler= PL-6/E31         Sev=      00
 SharedLib= :SHARED_SYSTEM                                    Alt SharedLib=


    ****  Control sections  ****

 Sect   Type Bound  Init  Size OctSiz  Section name(segment info)
    0   Data  even  none     6      6  LLE$READOU
    1  RoData even  UTS     35     43  LLE$READOU
    2   Proc  even  none   132    204  LLE$READOU
    3  RoData even  none    11     13  LLE$READOU

    ****  Entry defs  ****

                              Check   Calling
                             calling  sequence
  Sect OctLoc Primary Altret sequence   type   Parms  Name
     2      0   yes    yes     yes      Std        5  LLE$READOU

  ****  Entry refs  ****

         Check        Calling
        calling       sequence
Altret sequence SRef   type   Args  Name
 yes     yes           Std       4 LLM$MON_SVC
                       nStd      0 X66_AUTO_5
                       Std       0 B_CONSPOOL_D
                       nStd      0 X66_ARET
                       nStd      0 X66_AALT
PL6.E3A0      #001=LLE$READOU File=LLE$READOU.:E05TSI                            WED 07/30/97 03:15 Page:6

  ****  Data refs  ****

  Flags:  r = read only, s = secondary
Flgs Name                             Flgs Name                             Flgs Name
     LL_DOBUF                              LL_FIRSTFID                           LL_OU_PTR$
     B_VECTNIL

  ****  Segment refs  ****

  Flags:  r = read only, s = secondary
Flgs Name                             Flgs Name                             Flgs Name
     ISSID
PL6.E3A0      #001=LLE$READOU File=LLE$READOU.:E05TSI                            WED 07/30/97 03:15 Page:7


        1        1        /*M* LLE$READOU - Common OU reader                                  */
        2        2        /*T***********************************************************/
        3        3        /*T*                                                         */
        4        4        /*T* Copyright (c) Bull HN Information Systems Inc., 1997    */
        5        5        /*T*                                                         */
        6        6        /*T***********************************************************/
        7        7        /*X* PLM=4,STI=0,IND=4,CTI=3,DCI=4,ECI=4,CSI=0,THI=0,DTI=0,ENI=4,
        8        8             CLM=0,SQB,NTB,MOC,CCI=3,NLB,MCL=0,EDMC*/
        9        9        /*F* NAME:         LLD$MAP
       10       10             PURPOSE:      Provide a common "easy" interface to CP-6 monitor
       11       11                           services to read object unit records.            */
       12       12        LLE$READOU: PROC ( UTS, TYPE, SIZE, PAGE, BUFFER$ ) ALTRET;

     12  2 000000   000000 700200 xent  LLE$READOU   TSX0  ! X66_AUTO_5
         2 000001   000022 000005                    ZERO    18,5

       13       13    1   DCL LLM$MON_SVC ENTRY(4) ALTRET;
       14       14    1   DCL UTS UBIN WORD ALIGNED;
       15       15    1   DCL TYPE UBIN WORD ALIGNED;
       16       16    1   DCL SIZE UBIN WORD ALIGNED;
       17       17    1   DCL PAGE UBIN WORD ALIGNED;
       18       18        %INCLUDE LL_DATA_R;
       19       54        %INCLUDE LL_MACS_C;
       20      408        %LL$OU_ENTRY ( NAME = OU_ENTRY );
       21      456    1   DCL BUFFER$ PTR;
       22      457        %INCLUDE B$OBJECT_C;
       23     3887        %INCLUDE LL_SUBS_C;
       24     4016        %B$OUKEY ( NAME = B$OUKEY,
       25     4017         STCLASS = STATIC );
       26     4053        %B$PRGRELKEY ( NAME = B$PRGKEY,
       27     4054         STCLASS = STATIC );
       28     4085    1   DCL I SBIN ALIGNED;
       29     4086    1   DCL ACCUM SBIN ALIGNED;
       30     4087    1   DCL TPTR$ PTR;
       31     4088        %EJECT;
PL6.E3A0      #001=LLE$READOU File=LLE$READOU.:E05TSI                            WED 07/30/97 03:15 Page:8
       32     4089    1   BEGIN:
       33     4090    2       IF ( TYPE < 8 ) THEN DO;

   4090  2 000002   200004 470500       BEGIN        LDP0    @TYPE,,AUTO
         2 000003   000000 235100                    LDA     0,,PR0
         2 000004   000010 115007                    CMPA    8,DL
         2 000005   000104 603000 2                  TRC     s:4110

       34     4091    2           B$OUKEY.UTS = UTS;

   4091  2 000006   200003 471500                    LDP1    @UTS,,AUTO
         2 000007   000000 100500                    MLR     fill='000'O
         2 000010   100000 000004                    ADSC9   0,,PR1                   cn=0,n=4
         2 000011   000000 400004 0                  ADSC9   B$OUKEY                  cn=2,n=4

       35     4092    2           B$OUKEY.TYPE = TYPE;

   4092  2 000012   000000 236100                    LDQ     0,,PR0
         2 000013   000011 736000                    QLS     9
         2 000014   000001 552010 0                  STBQ    B$OUKEY+1,'10'O

       36     4093    2           B$OUKEY.PAGE = 0;

   4093  2 000015   000000 236003                    LDQ     0,DU
         2 000016   000001 552004 0                  STBQ    B$OUKEY+1,'04'O

       37     4094    2           ACCUM = SIZE;

   4094  2 000017   200005 473500                    LDP3    @SIZE,,AUTO
         2 000020   300000 235100                    LDA     0,,PR3
         2 000021   200012 755100                    STA     ACCUM,,AUTO

       38     4095    2           I = PAGE;

   4095  2 000022   200006 474500                    LDP4    @PAGE,,AUTO
         2 000023   400000 235100                    LDA     0,,PR4
         2 000024   200011 755100                    STA     I,,AUTO
PL6.E3A0      #001=LLE$READOU File=LLE$READOU.:E05TSI                            WED 07/30/97 03:15 Page:9

       39     4096    2           TPTR$ = BUFFER$;

   4096  2 000025   200007 475500                    LDP5    @BUFFER$,,AUTO
         2 000026   500000 236100                    LDQ     0,,PR5
         2 000027   200013 756100                    STQ     TPTR$,,AUTO

       40     4097    3           DO WHILE ( ACCUM > 0 );

   4097  2 000030   200012 235100                    LDA     ACCUM,,AUTO
         2 000031   000065 604400 2                  TMOZ    s:4104

       41     4098    3               CALL LLM$MON_SVC ( LL#READOU, TPTR$, ACCUM-1, B$OUKEY )

   4098  2 000032   200012 235100                    LDA     ACCUM,,AUTO
         2 000033   000001 135007                    SBLA    1,DL
         2 000034   200014 755100                    STA     TPTR$+1,,AUTO
         2 000035   000001 236000 3                  LDQ     1
         2 000036   200021 756100                    STQ     TPTR$+6,,AUTO
         2 000037   200014 630500                    EPPR0   TPTR$+1,,AUTO
         2 000040   200020 450500                    STP0    TPTR$+5,,AUTO
         2 000041   200013 631500                    EPPR1   TPTR$,,AUTO
         2 000042   200017 451500                    STP1    TPTR$+4,,AUTO
         2 000043   000002 236000 3                  LDQ     2
         2 000044   200016 756100                    STQ     TPTR$+3,,AUTO
         2 000045   200016 630500                    EPPR0   TPTR$+3,,AUTO
         2 000046   000022 631400 xsym               EPPR1   B_VECTNIL+18
         2 000047   000000 701000 xent               TSX1    LLM$MON_SVC
         2 000050   000202 702000 2                  TSX2    OH_MY_GOD

       42     4099    3                  ALTRET ( OH_MY_GOD );
       43     4100    3               TPTR$ = PINCRC ( TPTR$, I );

   4100  2 000051   200011 236100                    LDQ     I,,AUTO
         2 000052   000020 736000                    QLS     16
         2 000053   200013 036100                    ADLQ    TPTR$,,AUTO
         2 000054   200013 756100                    STQ     TPTR$,,AUTO
PL6.E3A0      #001=LLE$READOU File=LLE$READOU.:E05TSI                            WED 07/30/97 03:15 Page:10

       44     4101    3               ACCUM = ACCUM - I;

   4101  2 000055   200012 236100                    LDQ     ACCUM,,AUTO
         2 000056   200011 136100                    SBLQ    I,,AUTO
         2 000057   200012 756100                    STQ     ACCUM,,AUTO

       45     4102    3               B$OUKEY.PAGE = B$OUKEY.PAGE + 1;

   4102  2 000060   000001 236000 0                  LDQ     B$OUKEY+1
         2 000061   000001 036007                    ADLQ    1,DL
         2 000062   000001 552004 0                  STBQ    B$OUKEY+1,'04'O

       46     4103    3               END;

   4103  2 000063   200012 235100                    LDA     ACCUM,,AUTO
         2 000064   000032 605400 2                  TPNZ    s:4098

       47     4104    2           ACCUM = ACCUM + I;

   4104  2 000065   200012 236100                    LDQ     ACCUM,,AUTO
         2 000066   200011 036100                    ADLQ    I,,AUTO
         2 000067   200012 756100                    STQ     ACCUM,,AUTO

       48     4105    2           CALL LLM$MON_SVC ( LL#SIZEEF, I );

   4105  2 000070   200011 630500                    EPPR0   I,,AUTO
         2 000071   200015 450500                    STP0    TPTR$+2,,AUTO
         2 000072   000004 236000 3                  LDQ     4
         2 000073   200014 756100                    STQ     TPTR$+1,,AUTO
         2 000074   200014 630500                    EPPR0   TPTR$+1,,AUTO
         2 000075   000020 631400 xsym               EPPR1   B_VECTNIL+16
         2 000076   000000 701000 xent               TSX1    LLM$MON_SVC
         2 000077   000000 011000                    NOP     0

       49     4106    2           IF ( I ~= ACCUM ) THEN GOTO OH_MY_GOD;

PL6.E3A0      #001=LLE$READOU File=LLE$READOU.:E05TSI                            WED 07/30/97 03:15 Page:11
   4106  2 000100   200011 236100                    LDQ     I,,AUTO
         2 000101   200012 116100                    CMPQ    ACCUM,,AUTO
         2 000102   000202 601000 2                  TNZ     OH_MY_GOD

       50     4107    2           RETURN;

   4107  2 000103   000000 702200 xent               TSX2  ! X66_ARET

       51     4108    2           END;
       52     4109    2       ELSE DO;

       53     4110    2           B$OUKEY.UTS = UTS;

   4110  2 000104   200003 471500                    LDP1    @UTS,,AUTO
         2 000105   000000 100500                    MLR     fill='000'O
         2 000106   100000 000004                    ADSC9   0,,PR1                   cn=0,n=4
         2 000107   000000 400004 0                  ADSC9   B$OUKEY                  cn=2,n=4

       54     4111    2           B$OUKEY.TYPE = TYPE;

   4111  2 000110   000000 236100                    LDQ     0,,PR0
         2 000111   000011 736000                    QLS     9
         2 000112   000001 552010 0                  STBQ    B$OUKEY+1,'10'O

       55     4112    2           B$OUKEY.PAGE = 0;

   4112  2 000113   000000 236003                    LDQ     0,DU
         2 000114   000001 552004 0                  STBQ    B$OUKEY+1,'04'O

       56     4113    2           CALL LLM$MON_SVC (LL#POSEF, 0, 0, B$OUKEY) ALTRET (OK);

   4113  2 000115   000006 630400 3                  EPPR0   6
         2 000116   000022 631400 xsym               EPPR1   B_VECTNIL+18
         2 000117   000000 701000 xent               TSX1    LLM$MON_SVC
         2 000120   000203 702000 2                  TSX2    s:4131

       57     4114    3           IF B$OUKEY.TYPE = 8 OR B$OUKEY.TYPE = 9 THEN DO;
PL6.E3A0      #001=LLE$READOU File=LLE$READOU.:E05TSI                            WED 07/30/97 03:15 Page:12

   4114  2 000121   000001 236000 0                  LDQ     B$OUKEY+1
         2 000122   777000 376007                    ANQ     -512,DL
         2 000123   010000 116007                    CMPQ    4096,DL
         2 000124   000127 600000 2                  TZE     s:4115
         2 000125   011000 116007                    CMPQ    4608,DL
         2 000126   000203 601000 2                  TNZ     s:4131

       58     4115    3               CALL CONCAT ( LL_DOBUF,

   4115  2 000127   000000 470400 xsym               LDP0    LL_OU_PTR$
         2 000130   000015 236100                    LDQ     13,,PR0
         2 000131   000033 772000                    QRL     27
         2 000132   040000 100400                    MLR     fill='040'O
         2 000133   000000 000035 1                  ADSC9   0                        cn=0,n=29
         2 000134   000000 000035 xsym               ADSC9   LL_DOBUF                 cn=0,n=29
         2 000135   000000 620006                    EAX0    0,QL
         2 000136   040000 100540                    MLR     fill='040'O
         2 000137   000015 200010                    ADSC9   13,,PR0                  cn=1,n=*X0
         2 000140   000007 200123 xsym               ADSC9   LL_DOBUF+7               cn=1,n=83
         2 000141   000123 116007                    CMPQ    83,DL
         2 000142   000157 603000 2                  TRC     s:4120
         2 000143   777654 620006                    EAX0    -84,QL
         2 000144   777777 660003                    ERX0    -1,DU
         2 000145   040046 100400                    MLR     fill='040'O
         2 000146   000010 000013 1                  ADSC9   8                        cn=0,n=11
         2 000147   000007 200010 xsym               ADSC9   LL_DOBUF+7,Q             cn=1,n=*X0
         2 000150   000110 116007                    CMPQ    72,DL
         2 000151   000157 603000 2                  TRC     s:4120
         2 000152   777667 620006                    EAX0    -73,QL
         2 000153   777777 660003                    ERX0    -1,DU
         2 000154   040046 100400                    MLR     fill='040'O
         2 000155   000000 000064 xsym               ADSC9   LL_FIRSTFID              cn=0,n=52
         2 000156   000012 000010 xsym               ADSC9   LL_DOBUF+10,Q            cn=0,n=*X0

       59     4116    3                  'A **** Warning:  object unit ',
       60     4117    3                  LL_OU_PTR$ -> OU_ENTRY.OUNAME.TEXT,
PL6.E3A0      #001=LLE$READOU File=LLE$READOU.:E05TSI                            WED 07/30/97 03:15 Page:13
       61     4118    3                  ' from file ',
       62     4119    3                  LL_FIRSTFID );
       63     4120    3               CALL LLM$MON_SVC (LL#WRITEDO);

   4120  2 000157   000012 630400 3                  EPPR0   10
         2 000160   000017 631400 xsym               EPPR1   B_VECTNIL+15
         2 000161   000000 701000 xent               TSX1    LLM$MON_SVC
         2 000162   000000 011000                    NOP     0

       64     4121    3               IF TYPE = 8 THEN LL_DOBUF =

   4121  2 000163   200004 470500                    LDP0    @TYPE,,AUTO
         2 000164   000000 235100                    LDA     0,,PR0
         2 000165   000010 115007                    CMPA    8,DL
         2 000166   000173 601000 2                  TNZ     s:4123

   4121  2 000167   040000 100400                    MLR     fill='040'O
         2 000170   000013 000055 1                  ADSC9   11                       cn=0,n=45
         2 000171   000000 000160 xsym               ADSC9   LL_DOBUF                 cn=0,n=112
         2 000172   000176 710000 2                  TRA     s:4125

       65     4122    3                      'A      contains an unsupported SEGDEF record.';
       66     4123    3               ELSE LL_DOBUF =

   4123  2 000173   040000 100400                    MLR     fill='040'O
         2 000174   000027 000055 1                  ADSC9   23                       cn=0,n=45
         2 000175   000000 000160 xsym               ADSC9   LL_DOBUF                 cn=0,n=112

       67     4124    3                      'A      contains an unsupported SEGREF record.';
       68     4125    3               CALL LLM$MON_SVC (LL#WRITEDO);

   4125  2 000176   000012 630400 3                  EPPR0   10
         2 000177   000017 631400 xsym               EPPR1   B_VECTNIL+15
         2 000200   000000 701000 xent               TSX1    LLM$MON_SVC
         2 000201   000000 011000                    NOP     0

       69     4126    3   OH_MY_GOD:
PL6.E3A0      #001=LLE$READOU File=LLE$READOU.:E05TSI                            WED 07/30/97 03:15 Page:14
       70     4127    3               ALTRETURN;

   4127  2 000202   000000 702200 xent  OH_MY_GOD    TSX2  ! X66_AALT

       71     4128    3   OK:
       72     4129    3               END;
       73     4130    2           END;

       74     4131    1   END LLE$READOU;

   4131  2 000203   000000 702200 xent               TSX2  ! X66_ARET

PL6.E3A0      #001=LLE$READOU File=LLE$READOU.:E05TSI                            WED 07/30/97 03:15 Page:15
--  Include file information  --

   LL_SUBS_C.:E05TOU  is referenced.
   B$OBJECT_C.:E05TOU  is referenced.
   LL_MACS_C.:E05TOU  is referenced.
   LL_DATA_R.:E05TOU  cannot be made into a system file and is referenced.
      No diagnostics issued in procedure LLE$READOU.
PL6.E3A0      #001=LLE$READOU File=LLE$READOU.:E05TSI                            WED 07/30/97 03:15 Page:16

 **** Variables and constants ****

  ****  Section 000  Data  LLE$READOU

  ****  Scalars and arrays  ****
OctLoc.c.b A Datatyp(siz) R M Lvl/name                 OctLoc.c.b A Datatyp(siz) R M Lvl/name

     0-0-0/w STRC(72)    r     1 B$OUKEY

  ****  Auto variables  ****

  ****  Scalars and arrays  ****
OctLoc.c.b A Datatyp(siz) R M Lvl/name                 OctLoc.c.b A Datatyp(siz) R M Lvl/name

     7-0-0/w PTR         r     1 @BUFFER$                   6-0-0/w PTR         r     1 @PAGE
     5-0-0/w PTR         r     1 @SIZE                      4-0-0/w PTR         r     1 @TYPE
     3-0-0/w PTR         r     1 @UTS                      12-0-0/w SBIN        r     1 ACCUM
    *0-0-0/w PTR         r     1 BUFFER$                   11-0-0/w SBIN        r     1 I
    *0-0-0/w UBIN        r     1 PAGE                      *0-0-0/w UBIN        r     1 SIZE
    13-0-0/w PTR         r     1 TPTR$                     *0-0-0/w UBIN        r     1 TYPE
    *0-0-0/w UBIN        r     1 UTS

  ****  SYMREF variables  ****

  ****  Scalars and arrays  ****
OctLoc.c.b A Datatyp(siz) R M Lvl/name                 OctLoc.c.b A Datatyp(siz) R M Lvl/name

     0-0-0/w CHAR(112)   r     1 LL_DOBUF                   0-0-0/w CHAR(52)    r     1 LL_FIRSTFID
     0-0-0/w PTR         r     1 LL_OU_PTR$

  ****  BASED and DCB variables  ****

  ****  Scalars and arrays  ****
OctLoc.c.b A Datatyp(siz) R M Lvl/name                 OctLoc.c.b A Datatyp(siz) R M Lvl/name

     0-0-0/w ASTR(504)   r     1 OU_ENTRY

PL6.E3A0      #001=LLE$READOU File=LLE$READOU.:E05TSI                            WED 07/30/97 03:15 Page:17

   Procedure LLE$READOU requires 132 words for executable code.
   Procedure LLE$READOU requires 18 words of local(AUTO) storage.

    No errors detected in file LLE$READOU.:E05TSI    .
PL6.E3A0      #001=LLE$READOU File=LLE$READOU.:E05TSI                            WED 07/30/97 03:15 Page:18
          *** CROSS REFERENCE LISTING ***
**     DENOTES     IDENTIFIER DEFINITION
<<                 IDENTIFIER'S VALUE SET
>>                 IDENTIFIER'S VALUE USED
<>                 IDENTIFIER SET AND/OR USED
--                 IDENTIFIER REFERENCED
PL6.E3A0      #001=LLE$READOU File=LLE$READOU.:E05TSI                            WED 07/30/97 03:15 Page:19
          MINI XREF LISTING

ACCUM
      4086**DCL      4094<<ASSIGN   4097>>DOWHILE  4098>>CALL     4101<<ASSIGN   4101>>ASSIGN   4104<<ASSIGN
      4104>>ASSIGN   4106>>IF
B$OUKEY
      4018**DCL      4098<>CALL     4113<>CALL
B$OUKEY.PAGE
      4045**DCL      4093<<ASSIGN   4102<<ASSIGN   4102>>ASSIGN   4112<<ASSIGN
B$OUKEY.TYPE
      4027**DCL      4092<<ASSIGN   4111<<ASSIGN   4114>>IF       4114>>IF
B$OUKEY.UTS
      4024**DCL      4091<<ASSIGN   4110<<ASSIGN
BUFFER$
       456**DCL        12--PROC     4096>>ASSIGN
I
      4085**DCL      4095<<ASSIGN   4100>>ASSIGN   4101>>ASSIGN   4104>>ASSIGN   4105<>CALL     4106>>IF
LLM$MON_SVC
        13**DCL-ENT  4098--CALL     4105--CALL     4113--CALL     4120--CALL     4125--CALL
LL_DOBUF
        26**DCL      4115<<CALLBLT  4121<<ASSIGN   4123<<ASSIGN
LL_FIRSTFID
        31**DCL      4115>>CALLBLT
LL_OU_PTR$
        37**DCL      4115>>CALLBLT  4115>>CALLBLT
OH_MY_GOD
      4127**LABEL    4098--CALLALT  4106--GOTO
OK
      4129**LABEL    4113--CALLALT
OU_ENTRY.OUNAME.SIZE
       451**DCL       453--IMP-SIZ  4115>>CALLBLT
OU_ENTRY.OUNAME.TEXT
       453**DCL      4115>>CALLBLT
PAGE
PL6.E3A0      #001=LLE$READOU File=LLE$READOU.:E05TSI                            WED 07/30/97 03:15 Page:20
        17**DCL        12--PROC     4095>>ASSIGN
SIZE
        16**DCL        12--PROC     4094>>ASSIGN
TPTR$
      4087**DCL      4096<<ASSIGN   4098<>CALL     4100<<ASSIGN   4100>>ASSIGN
TYPE
        15**DCL        12--PROC     4090>>IF       4092>>ASSIGN   4111>>ASSIGN   4121>>IF
UTS
        14**DCL        12--PROC     4091>>ASSIGN   4110>>ASSIGN
