VERSION E05

PL6.E3A0      #001=LLF$FILLSI File=LLF$FILLSI.:E05TSI                            WED 07/30/97 03:15 Page:1
        1        1        /*M* LLF$FILLSI - Edit key munger/buffer "filler"                   */
        2        2        /*T***********************************************************/
        3        3        /*T*                                                         */
        4        4        /*T* Copyright (c) Bull HN Information Systems Inc., 1997    */
        5        5        /*T*                                                         */
        6        6        /*T***********************************************************/
        7        7        /*X* PLM=4,STI=0,IND=4,CTI=3,DCI=4,ECI=4,CSI=0,THI=0,DTI=0,ENI=4,
        8        8             CLM=0,SQB,NTB,MOC,CCI=3,NLB,MCL=0,EDMC*/
        9        9        /*F*  NAME:             LLF$FILLSI
       10       10             PURPOSE:      Keeps track of last record read through M$SI
       11       11                           and formats a record number or the edit key into
       12       12                           a buffer which is written (by LLA$MAIN) to echo
       13       13                           the command.                                     */
       14       14        LLF$FILLSI: PROC (BUFFER, PTR$, EDIT_KEY, TYPE, SIZE);
       15       15        %INCLUDE CP_6_SUBS;
       16      555         /*  LOCAL DATA */
       17      556    1   DCL RECORD_COUNT UBIN WORD STATIC ALIGNED INIT(0);
       18      557    1   DCL PTR$ PTR;
       19      558    1   DCL SIZE UBIN WORD ALIGNED;
       20      559    1   DCL 1 BUFFER ALIGNED,
       21      560    1         2 VFC_CHARS CHAR(4) UNAL,
       22      561    1         2 E_KEY,
       23      562    1           3 UNITS CHAR(5) UNAL,
       24      563    1           3 DOT CHAR(1) UNAL,
       25      564    1           3 FRACT CHAR(3) UNAL,
       26      565    1         2 R_NUM REDEF E_KEY CHAR(9) UNAL,
       27      566    1         2 FILL CHAR(3) UNAL,
       28      567    1         2 DATA CHAR(96) UNAL;
       29      568    1   DCL 1 EDIT_KEY ALIGNED,
       30      569    1         2 COUNT UBIN BYTE UNAL,
       31      570    1         2 VALUE UBIN(27) UNAL;
       32      571    1   DCL 1 WK_NUM STATIC ALIGNED,
       33      572    1         2 UNITS CHAR(5) UNAL,
       34      573    1         2 FRACT CHAR(3) UNAL;
       35      574    1   DCL 1 REC_NUM REDEF WK_NUM CHAR(8);
       36      575    1   DCL 1 CHARS(0:7) REDEF WK_NUM CHAR(1);
       37      576    1   DCL 1 WK_REC STATIC ALIGNED,
PL6.E3A0      #001=LLF$FILLSI File=LLF$FILLSI.:E05TSI                            WED 07/30/97 03:15 Page:2
       38      577    1         2 COUNT UBIN BYTE UNAL,
       39      578    1         2 TEXT CHAR(256) UNAL;
       40      579    1   DCL 1 B$WK_REC BASED ALIGNED,
       41      580    1         2 COUNT UBIN BYTE UNAL,
       42      581    1         2 TEXT CHAR(B$WK_REC.COUNT) UNAL;
       43      582    1   DCL B$RECORD CHAR(256) UNAL BASED;
       44      583    1   DCL TYPE UBIN WORD ALIGNED;
       45      584    1   DCL I UBIN WORD STATIC ALIGNED;
       46      585         /*  PROCEDURE */
       47      586    1       RECORD_COUNT = RECORD_COUNT + 1;
       48      587    1       IF (TYPE ~= %KEYED#) THEN
       49      588    1           EDIT_KEY.VALUE = RECORD_COUNT;
       50      589    1       BUFFER.DATA = ' ';
       51      590    1       BUFFER.VFC_CHARS = 'A   ';
       52      591    1       BUFFER.FILL = ' - ';
       53      592    1       CALL BINCHAR (REC_NUM, EDIT_KEY.VALUE);
       54      593    1       I = 0;
       55      594    2       IF (EDIT_KEY.COUNT = 3) THEN DO;
       56      595    3           DO WHILE (I < 5 AND CHARS(I) = '0');
       57      596    3               CHARS(I) = ' ';
       58      597    3               I = I + 1;
       59      598    3               END;
       60      599    2           BUFFER.E_KEY.UNITS = WK_NUM.UNITS;
       61      600    2           BUFFER.E_KEY.DOT = '.';
       62      601    2           BUFFER.E_KEY.FRACT = WK_NUM.FRACT;
       63      602    2           END;
       64      603    2       ELSE DO;
       65      604    3           DO WHILE (I < 7 AND CHARS(I) = '0');
       66      605    3               CHARS(I) = ' ';
       67      606    3               I = I + 1;
       68      607    3               END;
       69      608    2           BUFFER.R_NUM = REC_NUM;
       70      609    2           END;
       71      610    1       WK_REC.COUNT = SIZE;
       72      611    1       WK_REC.TEXT = PTR$ -> B$RECORD;
       73      612    1       BUFFER.DATA = ADDR(WK_REC) -> B$WK_REC.TEXT;
       74      613    1       RETURN;
PL6.E3A0      #001=LLF$FILLSI File=LLF$FILLSI.:E05TSI                            WED 07/30/97 03:15 Page:3
       75      614    1   END LLF$FILLSI;

PL6.E3A0      #001=LLF$FILLSI File=LLF$FILLSI.:E05TSI                            WED 07/30/97 03:15 Page:4
--  Include file information  --

   CP_6_SUBS.:E05TOU  is referenced.
      No diagnostics issued in procedure LLF$FILLSI.

   Procedure LLF$FILLSI requires 92 words for executable code.
   Procedure LLF$FILLSI requires 10 words of local(AUTO) storage.

    No errors detected in file LLF$FILLSI.:E05TSI    .

PL6.E3A0      #001=LLF$FILLSI File=LLF$FILLSI.:E05TSI                            WED 07/30/97 03:15 Page:5

 Object Unit name= LLF$FILLSI                                 File name= LLF$FILLSI.:E05TOU
 UTS= JUL 30 '97 03:15:11.80 WED                              Compiler= PL-6/E31         Sev=      00
 SharedLib= :SHARED_SYSTEM                                    Alt SharedLib=


    ****  Control sections  ****

 Sect   Type Bound  Init  Size OctSiz  Section name(segment info)
    0   Data  even  none    69    105  LLF$FILLSI
    1  RoData even  UTS      2      2  LLF$FILLSI
    2   Proc  even  none    92    134  LLF$FILLSI
    3  RoData even  none     1      1  LLF$FILLSI

    ****  Entry defs  ****

                              Check   Calling
                             calling  sequence
  Sect OctLoc Primary Altret sequence   type   Parms  Name
     2      0   yes            yes      Std        5  LLF$FILLSI

  ****  Entry refs  ****

         Check        Calling
        calling       sequence
Altret sequence SRef   type   Args  Name
                       nStd      0 X66_AUTO_5
                       Std       0 B_CONSPOOL_D
                       nStd      0 X66_ARET

  ****  Data refs  ****

  Flags:  r = read only, s = secondary
Flgs Name                             Flgs Name                             Flgs Name
     B_VECTNIL
PL6.E3A0      #001=LLF$FILLSI File=LLF$FILLSI.:E05TSI                            WED 07/30/97 03:15 Page:6


        1        1        /*M* LLF$FILLSI - Edit key munger/buffer "filler"                   */
        2        2        /*T***********************************************************/
        3        3        /*T*                                                         */
        4        4        /*T* Copyright (c) Bull HN Information Systems Inc., 1997    */
        5        5        /*T*                                                         */
        6        6        /*T***********************************************************/
        7        7        /*X* PLM=4,STI=0,IND=4,CTI=3,DCI=4,ECI=4,CSI=0,THI=0,DTI=0,ENI=4,
        8        8             CLM=0,SQB,NTB,MOC,CCI=3,NLB,MCL=0,EDMC*/
        9        9        /*F*  NAME:             LLF$FILLSI
       10       10             PURPOSE:      Keeps track of last record read through M$SI
       11       11                           and formats a record number or the edit key into
       12       12                           a buffer which is written (by LLA$MAIN) to echo
       13       13                           the command.                                     */
       14       14        LLF$FILLSI: PROC (BUFFER, PTR$, EDIT_KEY, TYPE, SIZE);

     14  2 000000   000000 700200 xent  LLF$FILLSI   TSX0  ! X66_AUTO_5
         2 000001   000012 000005                    ZERO    10,5

       15       15        %INCLUDE CP_6_SUBS;
       16      555         /*  LOCAL DATA */
       17      556    1   DCL RECORD_COUNT UBIN WORD STATIC ALIGNED INIT(0);
       18      557    1   DCL PTR$ PTR;
       19      558    1   DCL SIZE UBIN WORD ALIGNED;
       20      559    1   DCL 1 BUFFER ALIGNED,
       21      560    1         2 VFC_CHARS CHAR(4) UNAL,
       22      561    1         2 E_KEY,
       23      562    1           3 UNITS CHAR(5) UNAL,
       24      563    1           3 DOT CHAR(1) UNAL,
       25      564    1           3 FRACT CHAR(3) UNAL,
       26      565    1         2 R_NUM REDEF E_KEY CHAR(9) UNAL,
       27      566    1         2 FILL CHAR(3) UNAL,
       28      567    1         2 DATA CHAR(96) UNAL;
       29      568    1   DCL 1 EDIT_KEY ALIGNED,
       30      569    1         2 COUNT UBIN BYTE UNAL,
       31      570    1         2 VALUE UBIN(27) UNAL;
       32      571    1   DCL 1 WK_NUM STATIC ALIGNED,
PL6.E3A0      #001=LLF$FILLSI File=LLF$FILLSI.:E05TSI                            WED 07/30/97 03:15 Page:7
       33      572    1         2 UNITS CHAR(5) UNAL,
       34      573    1         2 FRACT CHAR(3) UNAL;
       35      574    1   DCL 1 REC_NUM REDEF WK_NUM CHAR(8);
       36      575    1   DCL 1 CHARS(0:7) REDEF WK_NUM CHAR(1);
       37      576    1   DCL 1 WK_REC STATIC ALIGNED,
       38      577    1         2 COUNT UBIN BYTE UNAL,
       39      578    1         2 TEXT CHAR(256) UNAL;
       40      579    1   DCL 1 B$WK_REC BASED ALIGNED,
       41      580    1         2 COUNT UBIN BYTE UNAL,
       42      581    1         2 TEXT CHAR(B$WK_REC.COUNT) UNAL;
       43      582    1   DCL B$RECORD CHAR(256) UNAL BASED;
       44      583    1   DCL TYPE UBIN WORD ALIGNED;
       45      584    1   DCL I UBIN WORD STATIC ALIGNED;
       46      585         /*  PROCEDURE */
       47      586    1       RECORD_COUNT = RECORD_COUNT + 1;

    586  2 000002   000000 235000 0                  LDA     RECORD_COUNT
         2 000003   000001 035007                    ADLA    1,DL
         2 000004   000000 755000 0                  STA     RECORD_COUNT

       48      587    1       IF (TYPE ~= %KEYED#) THEN

    587  2 000005   200006 470500                    LDP0    @TYPE,,AUTO
         2 000006   000000 235100                    LDA     0,,PR0
         2 000007   000002 115007                    CMPA    2,DL
         2 000010   000014 600000 2                  TZE     s:589

       49      588    1           EDIT_KEY.VALUE = RECORD_COUNT;

    588  2 000011   200005 471500                    LDP1    @EDIT_KEY,,AUTO
         2 000012   000000 236000 0                  LDQ     RECORD_COUNT
         2 000013   100000 552134                    STBQ    0,'34'O,PR1

       50      589    1       BUFFER.DATA = ' ';

    589  2 000014   200003 471500                    LDP1    @BUFFER,,AUTO
         2 000015   040100 100400                    MLR     fill='040'O
PL6.E3A0      #001=LLF$FILLSI File=LLF$FILLSI.:E05TSI                            WED 07/30/97 03:15 Page:8
         2 000016   000035 000001 xsym               ADSC9   B_VECTNIL+29             cn=0,n=1
         2 000017   100004 000140                    ADSC9   4,,PR1                   cn=0,n=96

       51      590    1       BUFFER.VFC_CHARS = 'A   ';

    590  2 000020   000000 236000 1                  LDQ     0
         2 000021   100000 756100                    STQ     0,,PR1

       52      591    1       BUFFER.FILL = ' - ';

    591  2 000022   000001 236000 1                  LDQ     1
         2 000023   000011 772000                    QRL     9
         2 000024   100003 552134                    STBQ    3,'34'O,PR1

       53      592    1       CALL BINCHAR (REC_NUM, EDIT_KEY.VALUE);

    592  2 000025   200005 473500                    LDP3    @EDIT_KEY,,AUTO
         2 000026   300000 236100                    LDQ     0,,PR3
         2 000027   000032 376000 xsym               ANQ     B_VECTNIL+26
         2 000030   000000 235003                    LDA     0,DU
         2 000031   200010 757100                    STAQ    @SIZE+1,,AUTO
         2 000032   000000 301500                    BTD
         2 000033   200010 000010                    NDSC9   @SIZE+1,,AUTO            cn=0,s=lsgnf,sf=0,n=8
         2 000034   000001 030010 0                  NDSC9   WK_NUM                   cn=0,s=nosgn,sf=0,n=8

       54      593    1       I = 0;

    593  2 000035   000104 450000 0                  STZ     I

       55      594    2       IF (EDIT_KEY.COUNT = 3) THEN DO;

    594  2 000036   300000 236100                    LDQ     0,,PR3
         2 000037   777000 376003                    ANQ     -512,DU
         2 000040   003000 116003                    CMPQ    1536,DU
         2 000041   000072 601000 2                  TNZ     s:604

       56      595    3           DO WHILE (I < 5 AND CHARS(I) = '0');
PL6.E3A0      #001=LLF$FILLSI File=LLF$FILLSI.:E05TSI                            WED 07/30/97 03:15 Page:9

    595  2 000042   000051 710000 2                  TRA     s:598

       57      596    3               CHARS(I) = ' ';

    596  2 000043   000104 235000 0                  LDA     I
         2 000044   040005 100400                    MLR     fill='040'O
         2 000045   000035 000001 xsym               ADSC9   B_VECTNIL+29             cn=0,n=1
         2 000046   000001 000001 0                  ADSC9   WK_NUM,A                 cn=0,n=1

       58      597    3               I = I + 1;

    597  2 000047   000001 035007                    ADLA    1,DL
         2 000050   000104 755000 0                  STA     I

       59      598    3               END;

    598  2 000051   000104 235000 0                  LDA     I
         2 000052   000005 115007                    CMPA    5,DL
         2 000053   000060 603000 2                  TRC     s:599
         2 000054   040000 106405                    CMPC    fill='040'O
         2 000055   000001 000001 0                  ADSC9   WK_NUM,A                 cn=0,n=1
         2 000056   000000 000001 3                  ADSC9   0                        cn=0,n=1
         2 000057   000043 600000 2                  TZE     s:596

       60      599    2           BUFFER.E_KEY.UNITS = WK_NUM.UNITS;

    599  2 000060   200003 470500                    LDP0    @BUFFER,,AUTO
         2 000061   040100 100400                    MLR     fill='040'O
         2 000062   000001 000005 0                  ADSC9   WK_NUM                   cn=0,n=5
         2 000063   000001 000005                    ADSC9   1,,PR0                   cn=0,n=5

       61      600    2           BUFFER.E_KEY.DOT = '.';

    600  2 000064   000056 236003                    LDQ     46,DU
         2 000065   000002 552120                    STBQ    2,'20'O,PR0

PL6.E3A0      #001=LLF$FILLSI File=LLF$FILLSI.:E05TSI                            WED 07/30/97 03:15 Page:10
       62      601    2           BUFFER.E_KEY.FRACT = WK_NUM.FRACT;

    601  2 000066   040100 100400                    MLR     fill='040'O
         2 000067   000002 200003 0                  ADSC9   WK_NUM+1                 cn=1,n=3
         2 000070   000002 400003                    ADSC9   2,,PR0                   cn=2,n=3

       63      602    2           END;

    602  2 000071   000114 710000 2                  TRA     s:610

       64      603    2       ELSE DO;

       65      604    3           DO WHILE (I < 7 AND CHARS(I) = '0');

    604  2 000072   000101 710000 2                  TRA     s:607

       66      605    3               CHARS(I) = ' ';

    605  2 000073   000104 235000 0                  LDA     I
         2 000074   040005 100400                    MLR     fill='040'O
         2 000075   000035 000001 xsym               ADSC9   B_VECTNIL+29             cn=0,n=1
         2 000076   000001 000001 0                  ADSC9   WK_NUM,A                 cn=0,n=1

       67      606    3               I = I + 1;

    606  2 000077   000001 035007                    ADLA    1,DL
         2 000100   000104 755000 0                  STA     I

       68      607    3               END;

    607  2 000101   000104 235000 0                  LDA     I
         2 000102   000007 115007                    CMPA    7,DL
         2 000103   000110 603000 2                  TRC     s:608
         2 000104   040000 106405                    CMPC    fill='040'O
         2 000105   000001 000001 0                  ADSC9   WK_NUM,A                 cn=0,n=1
         2 000106   000000 000001 3                  ADSC9   0                        cn=0,n=1
         2 000107   000073 600000 2                  TZE     s:605
PL6.E3A0      #001=LLF$FILLSI File=LLF$FILLSI.:E05TSI                            WED 07/30/97 03:15 Page:11

       69      608    2           BUFFER.R_NUM = REC_NUM;

    608  2 000110   200003 470500                    LDP0    @BUFFER,,AUTO
         2 000111   040100 100400                    MLR     fill='040'O
         2 000112   000001 000010 0                  ADSC9   WK_NUM                   cn=0,n=8
         2 000113   000001 000011                    ADSC9   1,,PR0                   cn=0,n=9

       70      609    2           END;

       71      610    1       WK_REC.COUNT = SIZE;

    610  2 000114   200007 471500                    LDP1    @SIZE,,AUTO
         2 000115   100000 236100                    LDQ     0,,PR1
         2 000116   000033 736000                    QLS     27
         2 000117   000003 552040 0                  STBQ    WK_REC,'40'O

       72      611    1       WK_REC.TEXT = PTR$ -> B$RECORD;

    611  2 000120   200004 473500                    LDP3    @PTR$,,AUTO
         2 000121   300000 474500                    LDP4    0,,PR3
         2 000122   040000 100500                    MLR     fill='040'O
         2 000123   400000 000400                    ADSC9   0,,PR4                   cn=0,n=256
         2 000124   000003 200400 0                  ADSC9   WK_REC                   cn=1,n=256

       73      612    1       BUFFER.DATA = ADDR(WK_REC) -> B$WK_REC.TEXT;

    612  2 000125   000003 236000 0                  LDQ     WK_REC
         2 000126   000033 772000                    QRL     27
         2 000127   000000 620006                    EAX0    0,QL
         2 000130   040100 100440                    MLR     fill='040'O
         2 000131   000003 200010 0                  ADSC9   WK_REC                   cn=1,n=*X0
         2 000132   000004 000140                    ADSC9   4,,PR0                   cn=0,n=96

       74      613    1       RETURN;

    613  2 000133   000000 702200 xent               TSX2  ! X66_ARET
PL6.E3A0      #001=LLF$FILLSI File=LLF$FILLSI.:E05TSI                            WED 07/30/97 03:15 Page:12
       75      614    1   END LLF$FILLSI;

PL6.E3A0      #001=LLF$FILLSI File=LLF$FILLSI.:E05TSI                            WED 07/30/97 03:15 Page:13
--  Include file information  --

   CP_6_SUBS.:E05TOU  is referenced.
      No diagnostics issued in procedure LLF$FILLSI.
PL6.E3A0      #001=LLF$FILLSI File=LLF$FILLSI.:E05TSI                            WED 07/30/97 03:15 Page:14

 **** Variables and constants ****

  ****  Section 000  Data  LLF$FILLSI

  ****  Scalars and arrays  ****
OctLoc.c.b A Datatyp(siz) R M Lvl/name                 OctLoc.c.b A Datatyp(siz) R M Lvl/name

     1-0-0/w CHAR        r     1 CHARS(0:7)               104-0-0/w UBIN        r     1 I
     0-0-0/w UBIN        r     1 RECORD_COUNT               1-0-0/w CHAR(8)     r     1 REC_NUM
     1-0-0/w STRC(72)    r     1 WK_NUM                     3-0-0/w STRC(2313)  r     1 WK_REC

  ****  Auto variables  ****

  ****  Scalars and arrays  ****
OctLoc.c.b A Datatyp(siz) R M Lvl/name                 OctLoc.c.b A Datatyp(siz) R M Lvl/name

     3-0-0/w PTR         r     1 @BUFFER                    5-0-0/w PTR         r     1 @EDIT_KEY
     4-0-0/w PTR         r     1 @PTR$                      7-0-0/w PTR         r     1 @SIZE
     6-0-0/w PTR         r     1 @TYPE                     *0-0-0/w STRC(1008)  r     1 BUFFER
    *0-0-0/w STRC        r     1 EDIT_KEY                  *0-0-0/w PTR         r     1 PTR$
    *0-0-0/w UBIN        r     1 SIZE                      *0-0-0/w UBIN        r     1 TYPE

  ****  BASED and DCB variables  ****

  ****  Scalars and arrays  ****
OctLoc.c.b A Datatyp(siz) R M Lvl/name                 OctLoc.c.b A Datatyp(siz) R M Lvl/name

     0-0-0/c CHAR(256)   r     1 B$RECORD                   0-0-0/w ASTR(9)     r     1 B$WK_REC


   Procedure LLF$FILLSI requires 92 words for executable code.
   Procedure LLF$FILLSI requires 10 words of local(AUTO) storage.

    No errors detected in file LLF$FILLSI.:E05TSI    .
PL6.E3A0      #001=LLF$FILLSI File=LLF$FILLSI.:E05TSI                            WED 07/30/97 03:15 Page:15
          *** CROSS REFERENCE LISTING ***
**     DENOTES     IDENTIFIER DEFINITION
<<                 IDENTIFIER'S VALUE SET
>>                 IDENTIFIER'S VALUE USED
<>                 IDENTIFIER SET AND/OR USED
--                 IDENTIFIER REFERENCED
PL6.E3A0      #001=LLF$FILLSI File=LLF$FILLSI.:E05TSI                            WED 07/30/97 03:15 Page:16
          MINI XREF LISTING

B$RECORD
       582**DCL       611>>ASSIGN
B$WK_REC.COUNT
       580**DCL       581--IMP-SIZ   612>>ASSIGN
B$WK_REC.TEXT
       581**DCL       612>>ASSIGN
BUFFER
       559**DCL        14--PROC
BUFFER.DATA
       567**DCL       589<<ASSIGN    612<<ASSIGN
BUFFER.E_KEY
       561**DCL       565--REDEF
BUFFER.E_KEY.DOT
       563**DCL       600<<ASSIGN
BUFFER.E_KEY.FRACT
       564**DCL       601<<ASSIGN
BUFFER.E_KEY.UNITS
       562**DCL       599<<ASSIGN
BUFFER.FILL
       566**DCL       591<<ASSIGN
BUFFER.R_NUM
       565**DCL       608<<ASSIGN
BUFFER.VFC_CHARS
       560**DCL       590<<ASSIGN
CHARS
       575**DCL       595>>DOWHILE   596<<ASSIGN    604>>DOWHILE   605<<ASSIGN
EDIT_KEY
       568**DCL        14--PROC
EDIT_KEY.COUNT
       569**DCL       594>>IF
EDIT_KEY.VALUE
       570**DCL       588<<ASSIGN    592>>CALLBLT
PL6.E3A0      #001=LLF$FILLSI File=LLF$FILLSI.:E05TSI                            WED 07/30/97 03:15 Page:17
I
       584**DCL       593<<ASSIGN    595>>DOWHILE   595>>DOWHILE   596>>ASSIGN    597<<ASSIGN    597>>ASSIGN
       604>>DOWHILE   604>>DOWHILE   605>>ASSIGN    606<<ASSIGN    606>>ASSIGN
PTR$
       557**DCL        14--PROC      611>>ASSIGN
RECORD_COUNT
       556**DCL       586<<ASSIGN    586>>ASSIGN    588>>ASSIGN
REC_NUM
       574**DCL       592<<CALLBLT   608>>ASSIGN
SIZE
       558**DCL        14--PROC      610>>ASSIGN
TYPE
       583**DCL        14--PROC      587>>IF
WK_NUM
       571**DCL       574--REDEF     575--REDEF
WK_NUM.FRACT
       573**DCL       601>>ASSIGN
WK_NUM.UNITS
       572**DCL       599>>ASSIGN
WK_REC
       576**DCL       612--ASSIGN    612--ASSIGN
WK_REC.COUNT
       577**DCL       610<<ASSIGN
WK_REC.TEXT
       578**DCL       611<<ASSIGN
