VERSION E05

PL6.E3A0      #001=LLG$GROW File=LLG$GROW.:E05TSI                                WED 07/30/97 03:15 Page:1
        1        1        /*M* LLG$GROW - Tree "growing" routine                              */
        2        2        /*T***********************************************************/
        3        3        /*T*                                                         */
        4        4        /*T* Copyright (c) Bull HN Information Systems Inc., 1997    */
        5        5        /*T*                                                         */
        6        6        /*T***********************************************************/
        7        7        /*X* PLM=4,STI=0,IND=4,CTI=3,DCI=4,ECI=4,CSI=0,THI=0,DTI=0,ENI=4,
        8        8             CLM=0,SQB,NTB,MOC,CCI=3,NLB,MCL=0,EDMC*/
        9        9        /*F* NAME:         LLG$GROW
       10       10             PURPOSE:      Provide a common routine through which the
       11       11                           internal tree structured symbol tables may
       12       12                           be constructed.
       13       13             DESCRIPTION:  LLG$GROW is entered at LLG$GROW and is passed
       14       14                           6 parameters.  The first param. is labeled
       15       15                           ROOT$ and points to the root node of the tree.
       16       16                           The second param. is labeled NEW$ and points
       17       17                           to the first node to be added to the tree.  The
       18       18                           thirs param. is labeled N and contains an integer
       19       19                           specifying the number of nodes to be added to the
       20       20                           tree.  The fourth parameter is labeled CUR_OU$
       21       21                           and points to the OU_ENTRY for the group of nodes.
       22       22                           The fifth parameter is labeled AVAIL$ and it
       23       23                           points to the next available word of memory.  The
       24       24                           sixth parameter is labeled NAME$ and it points to
       25       25                           the def names table.
       26       26
       27       27                           Enough core should be allocated prior to calling
       28       28                           LLG$GROW so that a memory fault does not occur.
       29       29
       30       30                           Pointer descriptions:
       31       31                                TREE.OU$       pointer to obj. unit ref.
       32       32                                TREE.BROTHER$  pointer to doubly def. sym.
       33       33                                TREE.PARENT$   pointer to predecessor node
       34       34                                TREE.L_CHILD$  pointer to left child
       35       35                                TREE.R_CHILD$  pointer to right child
       36       36                                TREE.NODE$     pointer to node
       37       37
PL6.E3A0      #001=LLG$GROW File=LLG$GROW.:E05TSI                                WED 07/30/97 03:15 Page:2
       38       38                           If the new node has been previously entered, then
       39       39                           a brother link is established to the new node.
       40       40                           The first node retains all pointers, but the new
       41       41                           node has only 3 significant pointers, the OU$,
       42       42                           NODE$ and BROTHER$ pointers.  This is to allow the
       43       43                           capability of very explicit diagnostics in the
       44       44                           event of a multiply defined symbol.  The OU$
       45       45                           pointer allows retrieval of the object unit name
       46       46                           as well as the object file name from which the
       47       47                           multiply defined symbol declaration occured.     */
       48       48        %EJECT;
PL6.E3A0      #001=LLG$GROW File=LLG$GROW.:E05TSI                                WED 07/30/97 03:15 Page:3
       49       49        LLG$GROW: PROC (ROOT$, NEW$, N, CUR_OU$, AVAIL$, NAME$, TYPE);
       50       50        %INCLUDE LL_MACS_C;
       51      404        %INCLUDE B$OBJECT_C;
       52     3834        %INCLUDE LL_DATA_R;
       53     3870        %B$EDEF ( NAME = NODE );
       54     3940        %B$EDEF ( NAME = ENTDEF_NODE );
       55     4010        %B$SDEF ( NAME = SYMDEF_NODE );
       56     4064        %B$HEAD ( NAME = LL_HEAD,
       57     4065         STCLASS = SYMREF );
       58     4265        %B$RECORDSUBS;
       59     4293        %LL$NODE ( NAME = TREE );
       60     4325        %SUB_LINKFLAGS;
       61     4334        %LL$OU_ENTRY (NAME = OU_ENTRY);
       62     4382    1   DCL REGION UBIN BYTE;
       63     4383    1   DCL PRE_REGION UBIN BYTE;
       64     4384    1   DCL SOURCE UBIN;
       65     4385    1   DCL TYPE UBIN WORD ALIGNED;
       66     4386    1   DCL ROOT$ PTR;
       67     4387    1   DCL NEW$ PTR;
       68     4388    1   DCL CUR_OU$ PTR;
       69     4389    1   DCL AVAIL$ PTR;
       70     4390    1   DCL NAME$ PTR;
       71     4391    1   DCL PREDECESSOR$ PTR;
       72     4392    1   DCL N UBIN WORD ALIGNED;
       73     4393    1   DCL I UBIN WORD ALIGNED;
       74     4394    1   DCL TPTR$ PTR;
       75     4395    1   DCL ERR# BIT(1) UNAL;
       76     4396    1   DCL 1 NAME BASED ALIGNED,
       77     4397    1         2 COUNT UBIN HALF UNAL,
       78     4398    1         2 TEXT CHAR(NAME.COUNT) UNAL;
       79     4399    1   DCL TEMP1 UBIN WORD ALIGNED;
       80     4400    1   DCL TEMP2 UBIN WORD ALIGNED;
       81     4401        %EJECT;
PL6.E3A0      #001=LLG$GROW File=LLG$GROW.:E05TSI                                WED 07/30/97 03:15 Page:4
       82     4402    2       DO I = 0 TO N - 1;
       83     4403    2           IF TYPE = %TYPEDEF
       84     4404    2           THEN SOURCE = NEW$ -> ENTDEF_NODE.LFLAGS.SOURCE;
       85     4405    2           ELSE SOURCE = NEW$ -> SYMDEF_NODE.LFLAGS.SOURCE;
       86     4406    2           TPTR$ = ROOT$;
       87     4407    2           ERR# = '0'B;
       88     4408    3           IF (TPTR$ = ADDR(NIL)) THEN DO;
       89     4409    3               IF NOT LL_FLAGS.BIAS_OU
       90     4410    4               THEN DO;
       91     4411    4                   IF SOURCE = %SOURCE_REMOVED#
       92     4412    4                   THEN GOTO NEXT;
       93     4413    4                   END;
       94     4414    3               ROOT$ = AVAIL$;
       95     4415    3               PREDECESSOR$ = ADDR(NIL);
       96     4416    3               END;
       97     4417    3           ELSE DO;
       98     4418    3               TEMP1 = NEW$ -> NODE.NPOINTER;
       99     4419    4               DO WHILE (TPTR$ ~= ADDR(NIL) AND ~ERR#);
      100     4420    4                   IF NOT LL_FLAGS.BIAS_OU
      101     4421    5                   THEN DO;
      102     4422    5                       IF SOURCE = %SOURCE_REMOVED#
      103     4423    5                       THEN GOTO NEXT;
      104     4424    5                       END;
      105     4425    4                   IF NOT LL_FLAGS.BIAS_OU
      106     4426    4                   THEN
      107     4427    4                       IF SOURCE = %SOURCE_SLIB#
      108     4428    5                       THEN DO;
      109     4429    5                           IF PINCRW(NAME$,TEMP1)->NAME.TEXT = LL_PATCH_NAMES.N1.TEXT
      110     4430    5                              OR PINCRW(NAME$,TEMP1)->NAME.TEXT = LL_PATCH_NAMES.N2.
              4430                                       TEXT
      111     4431    5                              OR PINCRW(NAME$,TEMP1)->NAME.TEXT = LL_PATCH_NAMES.N3.
              4431                                       TEXT
      112     4432    5                              OR PINCRW(NAME$,TEMP1)->NAME.TEXT = LL_PATCH_NAMES.N4.
              4432                                       TEXT
      113     4433    5                              OR PINCRW(NAME$,TEMP1)->NAME.TEXT = 'G_VERSION'
      114     4434    5                              OR PINCRW(NAME$,TEMP1)->NAME.TEXT = 'G$ROS$'
      115     4435    5                              OR PINCRW(NAME$,TEMP1)->NAME.TEXT = 'G$TCB$'
PL6.E3A0      #001=LLG$GROW File=LLG$GROW.:E05TSI                                WED 07/30/97 03:15 Page:5
      116     4436    5                              OR PINCRW(NAME$,TEMP1)->NAME.TEXT = 'G$PIA$'
      117     4437    5                              OR PINCRW(NAME$,TEMP1)->NAME.TEXT = 'G$JIT$'
      118     4438    5                           THEN GOTO NEXT;
      119     4439    5                           END;
      120     4440    4                   TEMP2 = TPTR$ -> TREE.NODE$ -> NODE.NPOINTER;
      121     4441    4                   IF (PINCRW(NAME$, TEMP1) -> NAME.TEXT >
      122     4442    5                      PINCRW(NAME$, TEMP2) -> NAME.TEXT ) THEN DO;
      123     4443    5                       PREDECESSOR$ = TPTR$;
      124     4444    5                       TPTR$ = TPTR$ -> TREE.R_CHILD$;
      125     4445    5                       IF TPTR$ = ADDR(NIL) THEN
      126     4446    5                           PREDECESSOR$ -> TREE.R_CHILD$ = AVAIL$;
      127     4447    5                       END;
      128     4448    4                   ELSE
      129     4449    4                       IF (PINCRW(NAME$, TEMP1) -> NAME.TEXT <
      130     4450    5                          PINCRW(NAME$, TEMP2) -> NAME.TEXT) THEN DO;
      131     4451    5                           PREDECESSOR$ = TPTR$;
      132     4452    5                           TPTR$ = TPTR$ -> TREE.L_CHILD$;
      133     4453    5                           IF (TPTR$ = ADDR(NIL)) THEN
      134     4454    5                               PREDECESSOR$ -> TREE.L_CHILD$ = AVAIL$;
      135     4455    5                           END;
      136     4456    5                       ELSE DO;
      137     4457    5                           IF NOT LL_FLAGS.BIAS_OU
      138     4458    5                           THEN
      139     4459    6                           DO;
      140     4460    6                               IF SOURCE = %SOURCE_SLIB#
      141     4461    6                                  OR SOURCE = %SOURCE_LINKER#
      142     4462    6                               THEN GOTO NEXT;
      143     4463    6                               END;
      144     4464    5                           ERR# = '1'B;
      145     4465    5                           IF ( TYPE = %TYPEDEF ) THEN
      146     4466    5                               TPTR$ -> TREE.NODE$ ->
      147     4467    5                                  ENTDEF_NODE.LFLAGS.MULTIPLE = '1'B;
      148     4468    5                           ELSE
      149     4469    5                               TPTR$ -> TREE.NODE$ ->
      150     4470    5                                  SYMDEF_NODE.LFLAGS.MULTIPLE = '1'B;
      151     4471    5                           END;
      152     4472    4                   END;
PL6.E3A0      #001=LLG$GROW File=LLG$GROW.:E05TSI                                WED 07/30/97 03:15 Page:6
      153     4473    3               END;
      154     4474    2           AVAIL$ -> TREE.OU$ = CUR_OU$;
      155     4475    2           AVAIL$ -> TREE.NODE$ = NEW$;
      156     4476    2           IF AVAIL$->TREE.OU$ = ADDR(NIL)
      157     4477    2           THEN
      158     4478    2               REGION = 0;
      159     4479    2           ELSE
      160     4480    2               REGION = AVAIL$->TREE.OU$->OU_ENTRY.REGION;
      161     4481    3           IF (~ERR#) THEN DO;
      162     4482    3               IF ( TYPE = %TYPEDEF ) THEN
      163     4483    3                   AVAIL$ -> TREE.NODE$ -> ENTDEF_NODE.LFLAGS.MULTIPLE = '0'B;
      164     4484    3               ELSE
      165     4485    3                   AVAIL$ -> TREE.NODE$ ->
      166     4486    3                      SYMDEF_NODE.LFLAGS.MULTIPLE = '0'B;
      167     4487    3               AVAIL$ -> TREE.PARENT$ = PREDECESSOR$;
      168     4488    3               AVAIL$ -> TREE.R_CHILD$ = ADDR(NIL);
      169     4489    3               AVAIL$ -> TREE.L_CHILD$ = ADDR(NIL);
      170     4490    3               AVAIL$ -> TREE.BROTHER$ = ADDR(NIL);
      171     4491    3               END;
      172     4492    3           ELSE DO;
      173     4493    4               DO UNTIL (TPTR$->TREE.BROTHER$ = ADDR(NIL));
      174     4494    4                   IF TPTR$->TREE.OU$ = ADDR(NIL)
      175     4495    4                   THEN
      176     4496    4                       PRE_REGION = 0;
      177     4497    4                   ELSE
      178     4498    4                       PRE_REGION = TPTR$->TREE.OU$->OU_ENTRY.REGION;
      179     4499    4                   IF PRE_REGION = REGION
      180     4500    4                   THEN
      181     4501    5                   DO;
      182     4502    5                       IF LL_HEAD.SEV < 4
      183     4503    5                       THEN LL_HEAD.SEV = 4;
      184     4504    5                       IF (TYPE = %TYPEDEF)
      185     4505    5                       THEN
      186     4506    6                       DO;
      187     4507    6                           AVAIL$->TREE.NODE$->ENTDEF_NODE.LFLAGS.MULTIPLE = '1'B;
      188     4508    6                           TPTR$->TREE.NODE$->ENTDEF_NODE.LFLAGS.MULTIPLE = '1'B;
      189     4509    6                           END;
PL6.E3A0      #001=LLG$GROW File=LLG$GROW.:E05TSI                                WED 07/30/97 03:15 Page:7
      190     4510    5                       ELSE
      191     4511    6                       DO;
      192     4512    6                           AVAIL$->TREE.NODE$->SYMDEF_NODE.LFLAGS.MULTIPLE = '1'B;
      193     4513    6                           TPTR$->TREE.NODE$->SYMDEF_NODE.LFLAGS.MULTIPLE = '1'B;
      194     4514    6                           END;
      195     4515    5                       END;
      196     4516    4                   ELSE
      197     4517    5                   DO;
      198     4518    5                       IF (TYPE = %TYPEDEF)
      199     4519    5                       THEN
      200     4520    6                       DO;
      201     4521    6                           AVAIL$->TREE.NODE$->ENTDEF_NODE.LFLAGS.MULTIPLE = '0'B;
      202     4522    6                           TPTR$->TREE.NODE$->ENTDEF_NODE.LFLAGS.MULTIPLE = '0'B;
      203     4523    6                           END;
      204     4524    5                       ELSE
      205     4525    6                       DO;
      206     4526    6                           AVAIL$->TREE.NODE$->SYMDEF_NODE.LFLAGS.MULTIPLE = '0'B;
      207     4527    6                           TPTR$->TREE.NODE$->SYMDEF_NODE.LFLAGS.MULTIPLE = '0'B;
      208     4528    6                           END;
      209     4529    5                       END;
      210     4530    4                   IF TPTR$->TREE.BROTHER$ ~= ADDR(NIL)
      211     4531    4                   THEN
      212     4532    4                       TPTR$ = TPTR$ -> TREE.BROTHER$;
      213     4533    4                   END;
      214     4534    3               TPTR$ -> TREE.BROTHER$ = AVAIL$;
      215     4535    3               AVAIL$ -> TREE.BROTHER$ = ADDR(NIL);
      216     4536    3               END;
      217     4537    2   NEXT:
      218     4538    2           AVAIL$ = PINCRW(AVAIL$, SIZEW(TREE));
      219     4539    2           NEW$ = PINCRW(NEW$, SIZEW(NODE));
      220     4540    2           END;
      221     4541    1       RETURN;
      222     4542    1   END LLG$GROW;

PL6.E3A0      #001=LLG$GROW File=LLG$GROW.:E05TSI                                WED 07/30/97 03:15 Page:8
--  Include file information  --

   LL_DATA_R.:E05TOU  cannot be made into a system file and is referenced.
   B$OBJECT_C.:E05TOU  is referenced.
   LL_MACS_C.:E05TOU  is referenced.
      No diagnostics issued in procedure LLG$GROW.

   Procedure LLG$GROW requires 302 words for executable code.
   Procedure LLG$GROW requires 20 words of local(AUTO) storage.

    No errors detected in file LLG$GROW.:E05TSI    .

PL6.E3A0      #001=LLG$GROW File=LLG$GROW.:E05TSI                                WED 07/30/97 03:15 Page:9

 Object Unit name= LLG$GROW                                   File name= LLG$GROW.:E05TOU
 UTS= JUL 30 '97 03:15:25.24 WED                              Compiler= PL-6/E31         Sev=      00
 SharedLib= :SHARED_SYSTEM                                    Alt SharedLib=


    ****  Control sections  ****

 Sect   Type Bound  Init  Size OctSiz  Section name(segment info)
    0  RoData even  UTS     11     13  LLG$GROW
    1   Proc  even  none   302    456  LLG$GROW
    2  RoData even  none     2      2  LLG$GROW

    ****  Entry defs  ****

                              Check   Calling
                             calling  sequence
  Sect OctLoc Primary Altret sequence   type   Parms  Name
     1      0   yes            yes      Std        7  LLG$GROW

  ****  Entry refs  ****

         Check        Calling
        calling       sequence
Altret sequence SRef   type   Args  Name
                       nStd      0 X66_AUTO_N
                       Std       0 B_CONSPOOL_D
                       nStd      0 X66_ARET

  ****  Data refs  ****

  Flags:  r = read only, s = secondary
Flgs Name                             Flgs Name                             Flgs Name
     LL_FLAGS                         r    LL_PATCH_NAMES                        LL_HEAD
     B_VECTNIL
PL6.E3A0      #001=LLG$GROW File=LLG$GROW.:E05TSI                                WED 07/30/97 03:15 Page:10


        1        1        /*M* LLG$GROW - Tree "growing" routine                              */
        2        2        /*T***********************************************************/
        3        3        /*T*                                                         */
        4        4        /*T* Copyright (c) Bull HN Information Systems Inc., 1997    */
        5        5        /*T*                                                         */
        6        6        /*T***********************************************************/
        7        7        /*X* PLM=4,STI=0,IND=4,CTI=3,DCI=4,ECI=4,CSI=0,THI=0,DTI=0,ENI=4,
        8        8             CLM=0,SQB,NTB,MOC,CCI=3,NLB,MCL=0,EDMC*/
        9        9        /*F* NAME:         LLG$GROW
       10       10             PURPOSE:      Provide a common routine through which the
       11       11                           internal tree structured symbol tables may
       12       12                           be constructed.
       13       13             DESCRIPTION:  LLG$GROW is entered at LLG$GROW and is passed
       14       14                           6 parameters.  The first param. is labeled
       15       15                           ROOT$ and points to the root node of the tree.
       16       16                           The second param. is labeled NEW$ and points
       17       17                           to the first node to be added to the tree.  The
       18       18                           thirs param. is labeled N and contains an integer
       19       19                           specifying the number of nodes to be added to the
       20       20                           tree.  The fourth parameter is labeled CUR_OU$
       21       21                           and points to the OU_ENTRY for the group of nodes.
       22       22                           The fifth parameter is labeled AVAIL$ and it
       23       23                           points to the next available word of memory.  The
       24       24                           sixth parameter is labeled NAME$ and it points to
       25       25                           the def names table.
       26       26
       27       27                           Enough core should be allocated prior to calling
       28       28                           LLG$GROW so that a memory fault does not occur.
       29       29
       30       30                           Pointer descriptions:
       31       31                                TREE.OU$       pointer to obj. unit ref.
       32       32                                TREE.BROTHER$  pointer to doubly def. sym.
       33       33                                TREE.PARENT$   pointer to predecessor node
       34       34                                TREE.L_CHILD$  pointer to left child
       35       35                                TREE.R_CHILD$  pointer to right child
       36       36                                TREE.NODE$     pointer to node
PL6.E3A0      #001=LLG$GROW File=LLG$GROW.:E05TSI                                WED 07/30/97 03:15 Page:11
       37       37
       38       38                           If the new node has been previously entered, then
       39       39                           a brother link is established to the new node.
       40       40                           The first node retains all pointers, but the new
       41       41                           node has only 3 significant pointers, the OU$,
       42       42                           NODE$ and BROTHER$ pointers.  This is to allow the
       43       43                           capability of very explicit diagnostics in the
       44       44                           event of a multiply defined symbol.  The OU$
       45       45                           pointer allows retrieval of the object unit name
       46       46                           as well as the object file name from which the
       47       47                           multiply defined symbol declaration occured.     */
       48       48        %EJECT;
PL6.E3A0      #001=LLG$GROW File=LLG$GROW.:E05TSI                                WED 07/30/97 03:15 Page:12
       49       49        LLG$GROW: PROC (ROOT$, NEW$, N, CUR_OU$, AVAIL$, NAME$, TYPE);

     49  1 000000   000000 700200 xent  LLG$GROW     TSX0  ! X66_AUTO_N
         1 000001   000024 000007                    ZERO    20,7

       50       50        %INCLUDE LL_MACS_C;
       51      404        %INCLUDE B$OBJECT_C;
       52     3834        %INCLUDE LL_DATA_R;
       53     3870        %B$EDEF ( NAME = NODE );
       54     3940        %B$EDEF ( NAME = ENTDEF_NODE );
       55     4010        %B$SDEF ( NAME = SYMDEF_NODE );
       56     4064        %B$HEAD ( NAME = LL_HEAD,
       57     4065         STCLASS = SYMREF );
       58     4265        %B$RECORDSUBS;
       59     4293        %LL$NODE ( NAME = TREE );
       60     4325        %SUB_LINKFLAGS;
       61     4334        %LL$OU_ENTRY (NAME = OU_ENTRY);
       62     4382    1   DCL REGION UBIN BYTE;
       63     4383    1   DCL PRE_REGION UBIN BYTE;
       64     4384    1   DCL SOURCE UBIN;
       65     4385    1   DCL TYPE UBIN WORD ALIGNED;
       66     4386    1   DCL ROOT$ PTR;
       67     4387    1   DCL NEW$ PTR;
       68     4388    1   DCL CUR_OU$ PTR;
       69     4389    1   DCL AVAIL$ PTR;
       70     4390    1   DCL NAME$ PTR;
       71     4391    1   DCL PREDECESSOR$ PTR;
       72     4392    1   DCL N UBIN WORD ALIGNED;
       73     4393    1   DCL I UBIN WORD ALIGNED;
       74     4394    1   DCL TPTR$ PTR;
       75     4395    1   DCL ERR# BIT(1) UNAL;
       76     4396    1   DCL 1 NAME BASED ALIGNED,
       77     4397    1         2 COUNT UBIN HALF UNAL,
       78     4398    1         2 TEXT CHAR(NAME.COUNT) UNAL;
       79     4399    1   DCL TEMP1 UBIN WORD ALIGNED;
       80     4400    1   DCL TEMP2 UBIN WORD ALIGNED;
       81     4401        %EJECT;
PL6.E3A0      #001=LLG$GROW File=LLG$GROW.:E05TSI                                WED 07/30/97 03:15 Page:13
       82     4402    2       DO I = 0 TO N - 1;

   4402  1 000002   200017 450100                    STZ     I,,AUTO
         1 000003   000451 710000 1                  TRA     s:4540+3

       83     4403    2           IF TYPE = %TYPEDEF

   4403  1 000004   200011 470500                    LDP0    @TYPE,,AUTO
         1 000005   000000 235100                    LDA     0,,PR0
         1 000006   000004 115007                    CMPA    4,DL
         1 000007   000016 601000 1                  TNZ     s:4405

       84     4404    2           THEN SOURCE = NEW$ -> ENTDEF_NODE.LFLAGS.SOURCE;

   4404  1 000010   200004 471500                    LDP1    @NEW$,,AUTO
         1 000011   100000 473500                    LDP3    0,,PR1
         1 000012   300000 236100                    LDQ     0,,PR3
         1 000013   000041 772000                    QRL     33
         1 000014   200015 756100                    STQ     SOURCE,,AUTO
         1 000015   000024 710000 1                  TRA     s:4406

       85     4405    2           ELSE SOURCE = NEW$ -> SYMDEF_NODE.LFLAGS.SOURCE;

   4405  1 000016   200004 471500                    LDP1    @NEW$,,AUTO
         1 000017   100000 473500                    LDP3    0,,PR1
         1 000020   300001 236100                    LDQ     1,,PR3
         1 000021   000013 772000                    QRL     11
         1 000022   000017 376007                    ANQ     15,DL
         1 000023   200015 756100                    STQ     SOURCE,,AUTO

       86     4406    2           TPTR$ = ROOT$;

   4406  1 000024   200003 474500                    LDP4    @ROOT$,,AUTO
         1 000025   400000 236100                    LDQ     0,,PR4
         1 000026   200020 756100                    STQ     TPTR$,,AUTO

       87     4407    2           ERR# = '0'B;
PL6.E3A0      #001=LLG$GROW File=LLG$GROW.:E05TSI                                WED 07/30/97 03:15 Page:14

   4407  1 000027   200021 450100                    STZ     ERR#,,AUTO

       88     4408    3           IF (TPTR$ = ADDR(NIL)) THEN DO;

   4408  1 000030   000001 116000 xsym               CMPQ    B_VECTNIL+1
         1 000031   000046 601000 1                  TNZ     s:4418

       89     4409    3               IF NOT LL_FLAGS.BIAS_OU

   4409  1 000032   000000 236000 xsym               LDQ     LL_FLAGS
         1 000033   040000 316007                    CANQ    16384,DL
         1 000034   000040 601000 1                  TNZ     s:4414

       90     4410    4               THEN DO;

       91     4411    4                   IF SOURCE = %SOURCE_REMOVED#

   4411  1 000035   200015 235100                    LDA     SOURCE,,AUTO
         1 000036   000005 115007                    CMPA    5,DL
         1 000037   000436 600000 1                  TZE     NEXT

       92     4412    4                   THEN GOTO NEXT;
       93     4413    4                   END;

       94     4414    3               ROOT$ = AVAIL$;

   4414  1 000040   200007 475500                    LDP5    @AVAIL$,,AUTO
         1 000041   500000 236100                    LDQ     0,,PR5
         1 000042   400000 756100                    STQ     0,,PR4

       95     4415    3               PREDECESSOR$ = ADDR(NIL);

   4415  1 000043   000001 236000 xsym               LDQ     B_VECTNIL+1
         1 000044   200016 756100                    STQ     PREDECESSOR$,,AUTO

       96     4416    3               END;
PL6.E3A0      #001=LLG$GROW File=LLG$GROW.:E05TSI                                WED 07/30/97 03:15 Page:15

   4416  1 000045   000247 710000 1                  TRA     s:4474

       97     4417    3           ELSE DO;

       98     4418    3               TEMP1 = NEW$ -> NODE.NPOINTER;

   4418  1 000046   300001 236100                    LDQ     1,,PR3
         1 000047   000022 732000                    QRS     18
         1 000050   200022 756100                    STQ     TEMP1,,AUTO

       99     4419    4               DO WHILE (TPTR$ ~= ADDR(NIL) AND ~ERR#);

   4419  1 000051   000240 710000 1                  TRA     s:4472

      100     4420    4                   IF NOT LL_FLAGS.BIAS_OU

   4420  1 000052   000000 236000 xsym               LDQ     LL_FLAGS
         1 000053   040000 316007                    CANQ    16384,DL
         1 000054   000060 601000 1                  TNZ     s:4425

      101     4421    5                   THEN DO;

      102     4422    5                       IF SOURCE = %SOURCE_REMOVED#

   4422  1 000055   200015 235100                    LDA     SOURCE,,AUTO
         1 000056   000005 115007                    CMPA    5,DL
         1 000057   000436 600000 1                  TZE     NEXT

      103     4423    5                       THEN GOTO NEXT;
      104     4424    5                       END;

      105     4425    4                   IF NOT LL_FLAGS.BIAS_OU

   4425  1 000060   040000 316007                    CANQ    16384,DL
         1 000061   000137 601000 1                  TNZ     s:4440

PL6.E3A0      #001=LLG$GROW File=LLG$GROW.:E05TSI                                WED 07/30/97 03:15 Page:16
      106     4426    4                   THEN
      107     4427    4                       IF SOURCE = %SOURCE_SLIB#

   4427  1 000062   200015 235100                    LDA     SOURCE,,AUTO
         1 000063   000001 115007                    CMPA    1,DL
         1 000064   000137 601000 1                  TNZ     s:4440

      108     4428    5                       THEN DO;

      109     4429    5                           IF PINCRW(NAME$,TEMP1)->NAME.TEXT = LL_PATCH_NAMES.N1.TEXT

   4429  1 000065   200010 470500                    LDP0    @NAME$,,AUTO
         1 000066   000000 471500                    LDP1    0,,PR0
         1 000067   200022 720100                    LXL0    TEMP1,,AUTO
         1 000070   100000 221110                    LDX1    0,X0,PR1
         1 000071   200022 235100                    LDA     TEMP1,,AUTO
         1 000072   000002 735000                    ALS     2
         1 000073   040000 106545                    CMPC    fill='040'O
         1 000074   100000 400011                    ADSC9   0,A,PR1                  cn=2,n=*X1
         1 000075   000000 400012 xsym               ADSC9   LL_PATCH_NAMES           cn=2,n=10
         1 000076   000436 600000 1                  TZE     NEXT
         1 000077   040000 106545                    CMPC    fill='040'O
         1 000100   100000 400011                    ADSC9   0,A,PR1                  cn=2,n=*X1
         1 000101   000003 400012 xsym               ADSC9   LL_PATCH_NAMES+3         cn=2,n=10
         1 000102   000436 600000 1                  TZE     NEXT
         1 000103   040000 106545                    CMPC    fill='040'O
         1 000104   100000 400011                    ADSC9   0,A,PR1                  cn=2,n=*X1
         1 000105   000006 400012 xsym               ADSC9   LL_PATCH_NAMES+6         cn=2,n=10
         1 000106   000436 600000 1                  TZE     NEXT
         1 000107   040000 106545                    CMPC    fill='040'O
         1 000110   100000 400011                    ADSC9   0,A,PR1                  cn=2,n=*X1
         1 000111   000011 400012 xsym               ADSC9   LL_PATCH_NAMES+9         cn=2,n=10
         1 000112   000436 600000 1                  TZE     NEXT
         1 000113   040000 106545                    CMPC    fill='040'O
         1 000114   100000 400011                    ADSC9   0,A,PR1                  cn=2,n=*X1
         1 000115   000000 000011 0                  ADSC9   0                        cn=0,n=9
         1 000116   000436 600000 1                  TZE     NEXT
PL6.E3A0      #001=LLG$GROW File=LLG$GROW.:E05TSI                                WED 07/30/97 03:15 Page:17
         1 000117   040000 106545                    CMPC    fill='040'O
         1 000120   100000 400011                    ADSC9   0,A,PR1                  cn=2,n=*X1
         1 000121   000003 000006 0                  ADSC9   3                        cn=0,n=6
         1 000122   000436 600000 1                  TZE     NEXT
         1 000123   040000 106545                    CMPC    fill='040'O
         1 000124   100000 400011                    ADSC9   0,A,PR1                  cn=2,n=*X1
         1 000125   000005 000006 0                  ADSC9   5                        cn=0,n=6
         1 000126   000436 600000 1                  TZE     NEXT
         1 000127   040000 106545                    CMPC    fill='040'O
         1 000130   100000 400011                    ADSC9   0,A,PR1                  cn=2,n=*X1
         1 000131   000007 000006 0                  ADSC9   7                        cn=0,n=6
         1 000132   000436 600000 1                  TZE     NEXT
         1 000133   040000 106545                    CMPC    fill='040'O
         1 000134   100000 400011                    ADSC9   0,A,PR1                  cn=2,n=*X1
         1 000135   000011 000006 0                  ADSC9   9                        cn=0,n=6
         1 000136   000436 600000 1                  TZE     NEXT

      110     4430    5                              OR PINCRW(NAME$,TEMP1)->NAME.TEXT = LL_PATCH_NAMES.N2.
              4430                                       TEXT
      111     4431    5                              OR PINCRW(NAME$,TEMP1)->NAME.TEXT = LL_PATCH_NAMES.N3.
              4431                                       TEXT
      112     4432    5                              OR PINCRW(NAME$,TEMP1)->NAME.TEXT = LL_PATCH_NAMES.N4.
              4432                                       TEXT
      113     4433    5                              OR PINCRW(NAME$,TEMP1)->NAME.TEXT = 'G_VERSION'
      114     4434    5                              OR PINCRW(NAME$,TEMP1)->NAME.TEXT = 'G$ROS$'
      115     4435    5                              OR PINCRW(NAME$,TEMP1)->NAME.TEXT = 'G$TCB$'
      116     4436    5                              OR PINCRW(NAME$,TEMP1)->NAME.TEXT = 'G$PIA$'
      117     4437    5                              OR PINCRW(NAME$,TEMP1)->NAME.TEXT = 'G$JIT$'
      118     4438    5                           THEN GOTO NEXT;
      119     4439    5                           END;

      120     4440    4                   TEMP2 = TPTR$ -> TREE.NODE$ -> NODE.NPOINTER;

   4440  1 000137   200020 470500                    LDP0    TPTR$,,AUTO
         1 000140   000001 471500                    LDP1    1,,PR0
         1 000141   100001 236100                    LDQ     1,,PR1
         1 000142   000022 732000                    QRS     18
PL6.E3A0      #001=LLG$GROW File=LLG$GROW.:E05TSI                                WED 07/30/97 03:15 Page:18
         1 000143   200023 756100                    STQ     TEMP2,,AUTO

      121     4441    4                   IF (PINCRW(NAME$, TEMP1) -> NAME.TEXT >

   4441  1 000144   200010 473500                    LDP3    @NAME$,,AUTO
         1 000145   300000 474500                    LDP4    0,,PR3
         1 000146   200022 720100                    LXL0    TEMP1,,AUTO
         1 000147   400000 221110                    LDX1    0,X0,PR4
         1 000150   400000 222106                    LDX2    0,QL,PR4
         1 000151   200023 235100                    LDA     TEMP2,,AUTO
         1 000152   000002 735000                    ALS     2
         1 000153   200022 236100                    LDQ     TEMP1,,AUTO
         1 000154   000002 736000                    QLS     2
         1 000155   040146 106545                    CMPC    fill='040'O
         1 000156   400000 400012                    ADSC9   0,A,PR4                  cn=2,n=*X2
         1 000157   400000 400011                    ADSC9   0,Q,PR4                  cn=2,n=*X1
         1 000160   000174 603000 1                  TRC     s:4449

      122     4442    5                      PINCRW(NAME$, TEMP2) -> NAME.TEXT ) THEN DO;

      123     4443    5                       PREDECESSOR$ = TPTR$;

   4443  1 000161   200020 236100                    LDQ     TPTR$,,AUTO
         1 000162   200016 756100                    STQ     PREDECESSOR$,,AUTO

      124     4444    5                       TPTR$ = TPTR$ -> TREE.R_CHILD$;

   4444  1 000163   000005 236100                    LDQ     5,,PR0
         1 000164   200020 756100                    STQ     TPTR$,,AUTO

      125     4445    5                       IF TPTR$ = ADDR(NIL) THEN

   4445  1 000165   000001 116000 xsym               CMPQ    B_VECTNIL+1
         1 000166   000240 601000 1                  TNZ     s:4472

      126     4446    5                           PREDECESSOR$ -> TREE.R_CHILD$ = AVAIL$;

PL6.E3A0      #001=LLG$GROW File=LLG$GROW.:E05TSI                                WED 07/30/97 03:15 Page:19
   4446  1 000167   200007 470500                    LDP0    @AVAIL$,,AUTO
         1 000170   000000 236100                    LDQ     0,,PR0
         1 000171   200016 471500                    LDP1    PREDECESSOR$,,AUTO
         1 000172   100005 756100                    STQ     5,,PR1

      127     4447    5                       END;

   4447  1 000173   000240 710000 1                  TRA     s:4472

      128     4448    4                   ELSE
      129     4449    4                       IF (PINCRW(NAME$, TEMP1) -> NAME.TEXT <

   4449  1 000174   200023 722100                    LXL2    TEMP2,,AUTO
         1 000175   400000 223112                    LDX3    0,X2,PR4
         1 000176   040145 106546                    CMPC    fill='040'O
         1 000177   400000 400011                    ADSC9   0,Q,PR4                  cn=2,n=*X1
         1 000200   400000 400013                    ADSC9   0,A,PR4                  cn=2,n=*X3
         1 000201   000215 603000 1                  TRC     s:4457

      130     4450    5                          PINCRW(NAME$, TEMP2) -> NAME.TEXT) THEN DO;

      131     4451    5                           PREDECESSOR$ = TPTR$;

   4451  1 000202   200020 236100                    LDQ     TPTR$,,AUTO
         1 000203   200016 756100                    STQ     PREDECESSOR$,,AUTO

      132     4452    5                           TPTR$ = TPTR$ -> TREE.L_CHILD$;

   4452  1 000204   000004 236100                    LDQ     4,,PR0
         1 000205   200020 756100                    STQ     TPTR$,,AUTO

      133     4453    5                           IF (TPTR$ = ADDR(NIL)) THEN

   4453  1 000206   000001 116000 xsym               CMPQ    B_VECTNIL+1
         1 000207   000240 601000 1                  TNZ     s:4472

      134     4454    5                               PREDECESSOR$ -> TREE.L_CHILD$ = AVAIL$;
PL6.E3A0      #001=LLG$GROW File=LLG$GROW.:E05TSI                                WED 07/30/97 03:15 Page:20

   4454  1 000210   200007 470500                    LDP0    @AVAIL$,,AUTO
         1 000211   000000 236100                    LDQ     0,,PR0
         1 000212   200016 471500                    LDP1    PREDECESSOR$,,AUTO
         1 000213   100004 756100                    STQ     4,,PR1

      135     4455    5                           END;

   4455  1 000214   000240 710000 1                  TRA     s:4472

      136     4456    5                       ELSE DO;

      137     4457    5                           IF NOT LL_FLAGS.BIAS_OU

   4457  1 000215   000000 236000 xsym               LDQ     LL_FLAGS
         1 000216   040000 316007                    CANQ    16384,DL
         1 000217   000225 601000 1                  TNZ     s:4464

      138     4458    5                           THEN
      139     4459    6                           DO;

      140     4460    6                               IF SOURCE = %SOURCE_SLIB#

   4460  1 000220   200015 235100                    LDA     SOURCE,,AUTO
         1 000221   000001 115007                    CMPA    1,DL
         1 000222   000436 600000 1                  TZE     NEXT
         1 000223   000006 115007                    CMPA    6,DL
         1 000224   000436 600000 1                  TZE     NEXT

      141     4461    6                                  OR SOURCE = %SOURCE_LINKER#
      142     4462    6                               THEN GOTO NEXT;
      143     4463    6                               END;

      144     4464    5                           ERR# = '1'B;

   4464  1 000225   400000 236003                    LDQ     -131072,DU
         1 000226   200021 756100                    STQ     ERR#,,AUTO
PL6.E3A0      #001=LLG$GROW File=LLG$GROW.:E05TSI                                WED 07/30/97 03:15 Page:21

      145     4465    5                           IF ( TYPE = %TYPEDEF ) THEN

   4465  1 000227   200011 475500                    LDP5    @TYPE,,AUTO
         1 000230   500000 235100                    LDA     0,,PR5
         1 000231   000004 115007                    CMPA    4,DL
         1 000232   000236 601000 1                  TNZ     s:4469

      146     4466    5                               TPTR$ -> TREE.NODE$ ->

   4466  1 000233   020000 236003                    LDQ     8192,DU
         1 000234   100000 256100                    ORSQ    0,,PR1
         1 000235   000240 710000 1                  TRA     s:4472

      147     4467    5                                  ENTDEF_NODE.LFLAGS.MULTIPLE = '1'B;
      148     4468    5                           ELSE
      149     4469    5                               TPTR$ -> TREE.NODE$ ->

   4469  1 000236   200000 236007                    LDQ     65536,DL
         1 000237   100001 256100                    ORSQ    1,,PR1

      150     4470    5                                  SYMDEF_NODE.LFLAGS.MULTIPLE = '1'B;
      151     4471    5                           END;

      152     4472    4                   END;

   4472  1 000240   200020 236100                    LDQ     TPTR$,,AUTO
         1 000241   000001 116000 xsym               CMPQ    B_VECTNIL+1
         1 000242   000247 600000 1                  TZE     s:4474
         1 000243   200021 236100                    LDQ     ERR#,,AUTO
         1 000244   400000 376003                    ANQ     -131072,DU
         1 000245   400000 676003                    ERQ     -131072,DU
         1 000246   000052 601000 1                  TNZ     s:4420

      153     4473    3               END;

      154     4474    2           AVAIL$ -> TREE.OU$ = CUR_OU$;
PL6.E3A0      #001=LLG$GROW File=LLG$GROW.:E05TSI                                WED 07/30/97 03:15 Page:22

   4474  1 000247   200007 470500                    LDP0    @AVAIL$,,AUTO
         1 000250   000000 471500                    LDP1    0,,PR0
         1 000251   200006 473500                    LDP3    @CUR_OU$,,AUTO
         1 000252   300000 236100                    LDQ     0,,PR3
         1 000253   100000 756100                    STQ     0,,PR1

      155     4475    2           AVAIL$ -> TREE.NODE$ = NEW$;

   4475  1 000254   000000 471500                    LDP1    0,,PR0
         1 000255   200004 474500                    LDP4    @NEW$,,AUTO
         1 000256   400000 236100                    LDQ     0,,PR4
         1 000257   100001 756100                    STQ     1,,PR1

      156     4476    2           IF AVAIL$->TREE.OU$ = ADDR(NIL)

   4476  1 000260   000000 471500                    LDP1    0,,PR0
         1 000261   100000 236100                    LDQ     0,,PR1
         1 000262   000001 116000 xsym               CMPQ    B_VECTNIL+1
         1 000263   000266 601000 1                  TNZ     s:4480

      157     4477    2           THEN
      158     4478    2               REGION = 0;

   4478  1 000264   200013 450100                    STZ     REGION,,AUTO
         1 000265   000273 710000 1                  TRA     s:4481

      159     4479    2           ELSE
      160     4480    2               REGION = AVAIL$->TREE.OU$->OU_ENTRY.REGION;

   4480  1 000266   100000 475500                    LDP5    0,,PR1
         1 000267   500014 236100                    LDQ     12,,PR5
         1 000270   000033 772000                    QRL     27
         1 000271   000033 736000                    QLS     27
         1 000272   200013 756100                    STQ     REGION,,AUTO

      161     4481    3           IF (~ERR#) THEN DO;
PL6.E3A0      #001=LLG$GROW File=LLG$GROW.:E05TSI                                WED 07/30/97 03:15 Page:23

   4481  1 000273   200021 236100                    LDQ     ERR#,,AUTO
         1 000274   400000 376003                    ANQ     -131072,DU
         1 000275   400000 676003                    ERQ     -131072,DU
         1 000276   000325 600000 1                  TZE     s:4494

      162     4482    3               IF ( TYPE = %TYPEDEF ) THEN

   4482  1 000277   200011 475500                    LDP5    @TYPE,,AUTO
         1 000300   500000 235100                    LDA     0,,PR5
         1 000301   000004 115007                    CMPA    4,DL
         1 000302   000307 601000 1                  TNZ     s:4485

      163     4483    3                   AVAIL$ -> TREE.NODE$ -> ENTDEF_NODE.LFLAGS.MULTIPLE = '0'B;

   4483  1 000303   100001 476500                    LDP6    1,,PR1
         1 000304   000000 236000 2                  LDQ     0
         1 000305   600000 356100                    ANSQ    0,,PR6
         1 000306   000312 710000 1                  TRA     s:4487

      164     4484    3               ELSE
      165     4485    3                   AVAIL$ -> TREE.NODE$ ->

   4485  1 000307   100001 476500                    LDP6    1,,PR1
         1 000310   000001 236000 2                  LDQ     1
         1 000311   600001 356100                    ANSQ    1,,PR6

      166     4486    3                      SYMDEF_NODE.LFLAGS.MULTIPLE = '0'B;
      167     4487    3               AVAIL$ -> TREE.PARENT$ = PREDECESSOR$;

   4487  1 000312   000000 471500                    LDP1    0,,PR0
         1 000313   200016 236100                    LDQ     PREDECESSOR$,,AUTO
         1 000314   100003 756100                    STQ     3,,PR1

      168     4488    3               AVAIL$ -> TREE.R_CHILD$ = ADDR(NIL);

   4488  1 000315   000000 471500                    LDP1    0,,PR0
PL6.E3A0      #001=LLG$GROW File=LLG$GROW.:E05TSI                                WED 07/30/97 03:15 Page:24
         1 000316   000001 236000 xsym               LDQ     B_VECTNIL+1
         1 000317   100005 756100                    STQ     5,,PR1

      169     4489    3               AVAIL$ -> TREE.L_CHILD$ = ADDR(NIL);

   4489  1 000320   000000 471500                    LDP1    0,,PR0
         1 000321   100004 756100                    STQ     4,,PR1

      170     4490    3               AVAIL$ -> TREE.BROTHER$ = ADDR(NIL);

   4490  1 000322   000000 471500                    LDP1    0,,PR0
         1 000323   100002 756100                    STQ     2,,PR1

      171     4491    3               END;

   4491  1 000324   000436 710000 1                  TRA     NEXT

      172     4492    3           ELSE DO;

      173     4493    4               DO UNTIL (TPTR$->TREE.BROTHER$ = ADDR(NIL));

      174     4494    4                   IF TPTR$->TREE.OU$ = ADDR(NIL)

   4494  1 000325   200020 470500                    LDP0    TPTR$,,AUTO
         1 000326   000000 236100                    LDQ     0,,PR0
         1 000327   000001 116000 xsym               CMPQ    B_VECTNIL+1
         1 000330   000333 601000 1                  TNZ     s:4498

      175     4495    4                   THEN
      176     4496    4                       PRE_REGION = 0;

   4496  1 000331   200014 450100                    STZ     PRE_REGION,,AUTO
         1 000332   000340 710000 1                  TRA     s:4499

      177     4497    4                   ELSE
      178     4498    4                       PRE_REGION = TPTR$->TREE.OU$->OU_ENTRY.REGION;

PL6.E3A0      #001=LLG$GROW File=LLG$GROW.:E05TSI                                WED 07/30/97 03:15 Page:25
   4498  1 000333   000000 471500                    LDP1    0,,PR0
         1 000334   100014 236100                    LDQ     12,,PR1
         1 000335   000033 772000                    QRL     27
         1 000336   000033 736000                    QLS     27
         1 000337   200014 756100                    STQ     PRE_REGION,,AUTO

      179     4499    4                   IF PRE_REGION = REGION

   4499  1 000340   200014 236100                    LDQ     PRE_REGION,,AUTO
         1 000341   200013 676100                    ERQ     REGION,,AUTO
         1 000342   777000 376003                    ANQ     -512,DU
         1 000343   000376 601000 1                  TNZ     s:4518

      180     4500    4                   THEN
      181     4501    5                   DO;

      182     4502    5                       IF LL_HEAD.SEV < 4

   4502  1 000344   000003 236000 xsym               LDQ     LL_HEAD+3
         1 000345   777000 376003                    ANQ     -512,DU
         1 000346   004000 116003                    CMPQ    2048,DU
         1 000347   000352 603000 1                  TRC     s:4504

      183     4503    5                       THEN LL_HEAD.SEV = 4;

   4503  1 000350   004000 236003                    LDQ     2048,DU
         1 000351   000003 552040 xsym               STBQ    LL_HEAD+3,'40'O

      184     4504    5                       IF (TYPE = %TYPEDEF)

   4504  1 000352   200011 471500                    LDP1    @TYPE,,AUTO
         1 000353   100000 235100                    LDA     0,,PR1
         1 000354   000004 115007                    CMPA    4,DL
         1 000355   000366 601000 1                  TNZ     s:4512

      185     4505    5                       THEN
      186     4506    6                       DO;
PL6.E3A0      #001=LLG$GROW File=LLG$GROW.:E05TSI                                WED 07/30/97 03:15 Page:26

      187     4507    6                           AVAIL$->TREE.NODE$->ENTDEF_NODE.LFLAGS.MULTIPLE = '1'B;

   4507  1 000356   200007 473500                    LDP3    @AVAIL$,,AUTO
         1 000357   300000 474500                    LDP4    0,,PR3
         1 000360   400001 475500                    LDP5    1,,PR4
         1 000361   020000 236003                    LDQ     8192,DU
         1 000362   500000 256100                    ORSQ    0,,PR5

      188     4508    6                           TPTR$->TREE.NODE$->ENTDEF_NODE.LFLAGS.MULTIPLE = '1'B;

   4508  1 000363   000001 474500                    LDP4    1,,PR0
         1 000364   400000 256100                    ORSQ    0,,PR4

      189     4509    6                           END;

   4509  1 000365   000421 710000 1                  TRA     s:4530

      190     4510    5                       ELSE
      191     4511    6                       DO;

      192     4512    6                           AVAIL$->TREE.NODE$->SYMDEF_NODE.LFLAGS.MULTIPLE = '1'B;

   4512  1 000366   200007 473500                    LDP3    @AVAIL$,,AUTO
         1 000367   300000 474500                    LDP4    0,,PR3
         1 000370   400001 475500                    LDP5    1,,PR4
         1 000371   200000 236007                    LDQ     65536,DL
         1 000372   500001 256100                    ORSQ    1,,PR5

      193     4513    6                           TPTR$->TREE.NODE$->SYMDEF_NODE.LFLAGS.MULTIPLE = '1'B;

   4513  1 000373   000001 474500                    LDP4    1,,PR0
         1 000374   400001 256100                    ORSQ    1,,PR4

      194     4514    6                           END;

      195     4515    5                       END;
PL6.E3A0      #001=LLG$GROW File=LLG$GROW.:E05TSI                                WED 07/30/97 03:15 Page:27

   4515  1 000375   000421 710000 1                  TRA     s:4530

      196     4516    4                   ELSE
      197     4517    5                   DO;

      198     4518    5                       IF (TYPE = %TYPEDEF)

   4518  1 000376   200011 471500                    LDP1    @TYPE,,AUTO
         1 000377   100000 235100                    LDA     0,,PR1
         1 000400   000004 115007                    CMPA    4,DL
         1 000401   000412 601000 1                  TNZ     s:4526

      199     4519    5                       THEN
      200     4520    6                       DO;

      201     4521    6                           AVAIL$->TREE.NODE$->ENTDEF_NODE.LFLAGS.MULTIPLE = '0'B;

   4521  1 000402   200007 473500                    LDP3    @AVAIL$,,AUTO
         1 000403   300000 474500                    LDP4    0,,PR3
         1 000404   400001 475500                    LDP5    1,,PR4
         1 000405   000000 236000 2                  LDQ     0
         1 000406   500000 356100                    ANSQ    0,,PR5

      202     4522    6                           TPTR$->TREE.NODE$->ENTDEF_NODE.LFLAGS.MULTIPLE = '0'B;

   4522  1 000407   000001 474500                    LDP4    1,,PR0
         1 000410   400000 356100                    ANSQ    0,,PR4

      203     4523    6                           END;

   4523  1 000411   000421 710000 1                  TRA     s:4530

      204     4524    5                       ELSE
      205     4525    6                       DO;

      206     4526    6                           AVAIL$->TREE.NODE$->SYMDEF_NODE.LFLAGS.MULTIPLE = '0'B;
PL6.E3A0      #001=LLG$GROW File=LLG$GROW.:E05TSI                                WED 07/30/97 03:15 Page:28

   4526  1 000412   200007 473500                    LDP3    @AVAIL$,,AUTO
         1 000413   300000 474500                    LDP4    0,,PR3
         1 000414   400001 475500                    LDP5    1,,PR4
         1 000415   000001 236000 2                  LDQ     1
         1 000416   500001 356100                    ANSQ    1,,PR5

      207     4527    6                           TPTR$->TREE.NODE$->SYMDEF_NODE.LFLAGS.MULTIPLE = '0'B;

   4527  1 000417   000001 474500                    LDP4    1,,PR0
         1 000420   400001 356100                    ANSQ    1,,PR4

      208     4528    6                           END;

      209     4529    5                       END;

      210     4530    4                   IF TPTR$->TREE.BROTHER$ ~= ADDR(NIL)

   4530  1 000421   000002 236100                    LDQ     2,,PR0
         1 000422   000001 116000 xsym               CMPQ    B_VECTNIL+1
         1 000423   000425 600000 1                  TZE     s:4533

      211     4531    4                   THEN
      212     4532    4                       TPTR$ = TPTR$ -> TREE.BROTHER$;

   4532  1 000424   200020 756100                    STQ     TPTR$,,AUTO

      213     4533    4                   END;

   4533  1 000425   200020 470500                    LDP0    TPTR$,,AUTO
         1 000426   000002 236100                    LDQ     2,,PR0
         1 000427   000001 116000 xsym               CMPQ    B_VECTNIL+1
         1 000430   000325 601000 1                  TNZ     s:4494

      214     4534    3               TPTR$ -> TREE.BROTHER$ = AVAIL$;

   4534  1 000431   300000 236100                    LDQ     0,,PR3
PL6.E3A0      #001=LLG$GROW File=LLG$GROW.:E05TSI                                WED 07/30/97 03:15 Page:29
         1 000432   000002 756100                    STQ     2,,PR0

      215     4535    3               AVAIL$ -> TREE.BROTHER$ = ADDR(NIL);

   4535  1 000433   300000 474500                    LDP4    0,,PR3
         1 000434   000001 236000 xsym               LDQ     B_VECTNIL+1
         1 000435   400002 756100                    STQ     2,,PR4

      216     4536    3               END;

      217     4537    2   NEXT:
      218     4538    2           AVAIL$ = PINCRW(AVAIL$, SIZEW(TREE));

   4538  1 000436   200007 470500       NEXT         LDP0    @AVAIL$,,AUTO
         1 000437   000000 236100                    LDQ     0,,PR0
         1 000440   000006 036003                    ADLQ    6,DU
         1 000441   000000 756100                    STQ     0,,PR0

      219     4539    2           NEW$ = PINCRW(NEW$, SIZEW(NODE));

   4539  1 000442   200004 471500                    LDP1    @NEW$,,AUTO
         1 000443   100000 236100                    LDQ     0,,PR1
         1 000444   000002 036003                    ADLQ    2,DU
         1 000445   100000 756100                    STQ     0,,PR1

      220     4540    2           END;

   4540  1 000446   200017 235100                    LDA     I,,AUTO
         1 000447   000001 035007                    ADLA    1,DL
         1 000450   200017 755100                    STA     I,,AUTO
         1 000451   200005 470500                    LDP0    @N,,AUTO
         1 000452   200017 236100                    LDQ     I,,AUTO
         1 000453   000000 116100                    CMPQ    0,,PR0
         1 000454   000004 602000 1                  TNC     s:4403

      221     4541    1       RETURN;

PL6.E3A0      #001=LLG$GROW File=LLG$GROW.:E05TSI                                WED 07/30/97 03:15 Page:30
   4541  1 000455   000000 702200 xent               TSX2  ! X66_ARET
      222     4542    1   END LLG$GROW;

PL6.E3A0      #001=LLG$GROW File=LLG$GROW.:E05TSI                                WED 07/30/97 03:15 Page:31
--  Include file information  --

   LL_DATA_R.:E05TOU  cannot be made into a system file and is referenced.
   B$OBJECT_C.:E05TOU  is referenced.
   LL_MACS_C.:E05TOU  is referenced.
      No diagnostics issued in procedure LLG$GROW.
PL6.E3A0      #001=LLG$GROW File=LLG$GROW.:E05TSI                                WED 07/30/97 03:15 Page:32

 **** Variables and constants ****

  ****  Auto variables  ****

  ****  Scalars and arrays  ****
OctLoc.c.b A Datatyp(siz) R M Lvl/name                 OctLoc.c.b A Datatyp(siz) R M Lvl/name

     7-0-0/w PTR         r     1 @AVAIL$                    6-0-0/w PTR         r     1 @CUR_OU$
     5-0-0/w PTR         r     1 @N                        10-0-0/w PTR         r     1 @NAME$
     4-0-0/w PTR         r     1 @NEW$                      3-0-0/w PTR         r     1 @ROOT$
    11-0-0/w PTR         r     1 @TYPE                     *0-0-0/w PTR         r     1 AVAIL$
    *0-0-0/w PTR         r     1 CUR_OU$                   21-0-0/b BIT         r     1 ERR#
    17-0-0/w UBIN        r     1 I                         *0-0-0/w UBIN        r     1 N
    *0-0-0/w PTR         r     1 NAME$                     *0-0-0/w PTR         r     1 NEW$
    16-0-0/w PTR         r     1 PREDECESSOR$              14-0-0/w UBIN(9)     r     1 PRE_REGION
    13-0-0/w UBIN(9)     r     1 REGION                    *0-0-0/w PTR         r     1 ROOT$
    15-0-0/w UBIN        r     1 SOURCE                    22-0-0/w UBIN        r     1 TEMP1
    23-0-0/w UBIN        r     1 TEMP2                     20-0-0/w PTR         r     1 TPTR$
    *0-0-0/w UBIN        r     1 TYPE

  ****  SYMREF variables  ****

  ****  Scalars and arrays  ****
OctLoc.c.b A Datatyp(siz) R M Lvl/name                 OctLoc.c.b A Datatyp(siz) R M Lvl/name

     0-0-0/w STRC        r     1 LL_FLAGS                   0-0-0/w STRC(1440)  r     1 LL_HEAD
     0-0-0/w STRC(504)   r     1 LL_PATCH_NAMES

  ****  BASED and DCB variables  ****

  ****  Scalars and arrays  ****
OctLoc.c.b A Datatyp(siz) R M Lvl/name                 OctLoc.c.b A Datatyp(siz) R M Lvl/name

     0-0-0/w STRC(72)    r     1 ENTDEF_NODE                0-0-0/w ASTR(18)    r     1 NAME
     0-0-0/w STRC(72)    r     1 NODE                       0-0-0/w ASTR(504)   r     1 OU_ENTRY
     0-0-0/w STRC(72)    r     1 SYMDEF_NODE                0-0-0/w STRC(216)   r     1 TREE

PL6.E3A0      #001=LLG$GROW File=LLG$GROW.:E05TSI                                WED 07/30/97 03:15 Page:33

   Procedure LLG$GROW requires 302 words for executable code.
   Procedure LLG$GROW requires 20 words of local(AUTO) storage.

    No errors detected in file LLG$GROW.:E05TSI    .
PL6.E3A0      #001=LLG$GROW File=LLG$GROW.:E05TSI                                WED 07/30/97 03:15 Page:34
          *** CROSS REFERENCE LISTING ***
**     DENOTES     IDENTIFIER DEFINITION
<<                 IDENTIFIER'S VALUE SET
>>                 IDENTIFIER'S VALUE USED
<>                 IDENTIFIER SET AND/OR USED
--                 IDENTIFIER REFERENCED
PL6.E3A0      #001=LLG$GROW File=LLG$GROW.:E05TSI                                WED 07/30/97 03:15 Page:35
          MINI XREF LISTING

AVAIL$
      4389**DCL        49--PROC     4414>>ASSIGN   4446>>ASSIGN   4454>>ASSIGN   4474>>ASSIGN   4475>>ASSIGN
      4476>>IF       4480>>ASSIGN   4483>>ASSIGN   4485>>ASSIGN   4487>>ASSIGN   4488>>ASSIGN   4489>>ASSIGN
      4490>>ASSIGN   4507>>ASSIGN   4512>>ASSIGN   4521>>ASSIGN   4526>>ASSIGN   4534>>ASSIGN   4535>>ASSIGN
      4538<<ASSIGN   4538>>ASSIGN
CUR_OU$
      4388**DCL        49--PROC     4474>>ASSIGN
ENTDEF_NODE.LFLAGS.MULTIPLE
      3950**DCL      4466<<ASSIGN   4483<<ASSIGN   4507<<ASSIGN   4508<<ASSIGN   4521<<ASSIGN   4522<<ASSIGN
ENTDEF_NODE.LFLAGS.SOURCE
      3946**DCL      4404>>ASSIGN
ENTDEF_NODE.OU
      3958**DCL      3964--REDEF
ERR#
      4395**DCL      4407<<ASSIGN   4419>>DOWHILE  4464<<ASSIGN   4481>>IF
I
      4393**DCL      4402<<DOINDEX
LL_FLAGS.BIAS_OU
      3845**DCL      4409>>IF       4420>>IF       4425>>IF       4457>>IF
LL_HEAD.SEV
      4106**DCL      4502>>IF       4503<<ASSIGN
LL_PATCH_NAMES.N1.TEXT
      3861**DCL      4429>>IF
LL_PATCH_NAMES.N2.TEXT
      3861**DCL      4429>>IF
LL_PATCH_NAMES.N3.TEXT
      3861**DCL      4429>>IF
LL_PATCH_NAMES.N4.TEXT
      3862**DCL      4429>>IF
N
      4392**DCL        49--PROC     4402>>DOINDEX
NAME.COUNT
PL6.E3A0      #001=LLG$GROW File=LLG$GROW.:E05TSI                                WED 07/30/97 03:15 Page:36
      4397**DCL      4398--IMP-SIZ  4429>>IF       4429>>IF       4429>>IF       4429>>IF       4429>>IF
      4429>>IF       4429>>IF       4429>>IF       4429>>IF       4441>>IF       4441>>IF       4449>>IF
      4449>>IF
NAME.TEXT
      4398**DCL      4429>>IF       4429>>IF       4429>>IF       4429>>IF       4429>>IF       4429>>IF
      4429>>IF       4429>>IF       4429>>IF       4441>>IF       4441>>IF       4449>>IF       4449>>IF
NAME$
      4390**DCL        49--PROC     4429>>IF       4429>>IF       4429>>IF       4429>>IF       4429>>IF
      4429>>IF       4429>>IF       4429>>IF       4429>>IF       4429>>IF       4429>>IF       4429>>IF
      4429>>IF       4429>>IF       4429>>IF       4429>>IF       4429>>IF       4429>>IF       4441>>IF
      4441>>IF       4441>>IF       4441>>IF       4449>>IF       4449>>IF       4449>>IF       4449>>IF
NEW$
      4387**DCL        49--PROC     4404>>ASSIGN   4405>>ASSIGN   4418>>ASSIGN   4475>>ASSIGN   4539<<ASSIGN
      4539>>ASSIGN
NEXT
      4538**LABEL    4412--GOTO     4423--GOTO     4438--GOTO     4462--GOTO
NODE
      3871**DCL      4539--ASSIGN
NODE.NPOINTER
      3896**DCL      4418>>ASSIGN   4440>>ASSIGN
NODE.OU
      3888**DCL      3894--REDEF
OU_ENTRY.OUNAME.SIZE
      4377**DCL      4379--IMP-SIZ
OU_ENTRY.REGION
      4373**DCL      4480>>ASSIGN   4498>>ASSIGN
PREDECESSOR$
      4391**DCL      4415<<ASSIGN   4443<<ASSIGN   4446>>ASSIGN   4451<<ASSIGN   4454>>ASSIGN   4487>>ASSIGN
PRE_REGION
      4383**DCL      4496<<ASSIGN   4498<<ASSIGN   4499>>IF
REGION
      4382**DCL      4478<<ASSIGN   4480<<ASSIGN   4499>>IF
ROOT$
      4386**DCL        49--PROC     4406>>ASSIGN   4414<<ASSIGN
SOURCE
      4384**DCL      4404<<ASSIGN   4405<<ASSIGN   4411>>IF       4422>>IF       4427>>IF       4460>>IF
PL6.E3A0      #001=LLG$GROW File=LLG$GROW.:E05TSI                                WED 07/30/97 03:15 Page:37
      4460>>IF
SYMDEF_NODE.AD.OU
      4031**DCL      4037--REDEF
SYMDEF_NODE.LFLAGS.MULTIPLE
      4051**DCL      4469<<ASSIGN   4485<<ASSIGN   4512<<ASSIGN   4513<<ASSIGN   4526<<ASSIGN   4527<<ASSIGN
SYMDEF_NODE.LFLAGS.SOURCE
      4055**DCL      4405>>ASSIGN
SYMDEF_NODE.VALUE
      4012**DCL      4015--REDEF
TEMP1
      4399**DCL      4418<<ASSIGN   4429>>IF       4429>>IF       4429>>IF       4429>>IF       4429>>IF
      4429>>IF       4429>>IF       4429>>IF       4429>>IF       4429>>IF       4429>>IF       4429>>IF
      4429>>IF       4429>>IF       4429>>IF       4429>>IF       4429>>IF       4429>>IF       4441>>IF
      4441>>IF       4449>>IF       4449>>IF
TEMP2
      4400**DCL      4440<<ASSIGN   4441>>IF       4441>>IF       4449>>IF       4449>>IF
TPTR$
      4394**DCL      4406<<ASSIGN   4408>>IF       4419>>DOWHILE  4440>>ASSIGN   4443>>ASSIGN   4444<<ASSIGN
      4444>>ASSIGN   4445>>IF       4451>>ASSIGN   4452<<ASSIGN   4452>>ASSIGN   4453>>IF       4466>>ASSIGN
      4469>>ASSIGN   4493>>DOUNTIL  4494>>IF       4498>>ASSIGN   4508>>ASSIGN   4513>>ASSIGN   4522>>ASSIGN
      4527>>ASSIGN   4530>>IF       4532<<ASSIGN   4532>>ASSIGN   4534>>ASSIGN
TREE
      4305**DCL      4538--ASSIGN
TREE.BROTHER$
      4313**DCL      4490<<ASSIGN   4493>>DOUNTIL  4530>>IF       4532>>ASSIGN   4534<<ASSIGN   4535<<ASSIGN
TREE.L_CHILD$
      4320**DCL      4452>>ASSIGN   4454<<ASSIGN   4489<<ASSIGN
TREE.NODE$
      4309**DCL      4440>>ASSIGN   4466>>ASSIGN   4469>>ASSIGN   4475<<ASSIGN   4483>>ASSIGN   4485>>ASSIGN
      4507>>ASSIGN   4508>>ASSIGN   4512>>ASSIGN   4513>>ASSIGN   4521>>ASSIGN   4522>>ASSIGN   4526>>ASSIGN
      4527>>ASSIGN
TREE.OU$
      4306**DCL      4474<<ASSIGN   4476>>IF       4480>>ASSIGN   4494>>IF       4498>>ASSIGN
TREE.PARENT$
      4318**DCL      4487<<ASSIGN
TREE.R_CHILD$
PL6.E3A0      #001=LLG$GROW File=LLG$GROW.:E05TSI                                WED 07/30/97 03:15 Page:38
      4322**DCL      4444>>ASSIGN   4446<<ASSIGN   4488<<ASSIGN
TYPE
      4385**DCL        49--PROC     4403>>IF       4465>>IF       4482>>IF       4504>>IF       4518>>IF
