VERSION E05

PL6.E3A0      #001=LLH$HEXBIN File=LLH$HEXBIN.:E05TSI                            WED 07/30/97 03:15 Page:1
        1        1        /*M* LLH$HEXBIN - Hexadecimal to binary conversion routine          */
        2        2        /*T***********************************************************/
        3        3        /*T*                                                         */
        4        4        /*T* Copyright (c) Bull HN Information Systems Inc., 1997    */
        5        5        /*T*                                                         */
        6        6        /*T***********************************************************/
        7        7        /*X* PLM=4,STI=0,IND=4,CTI=3,DCI=4,ECI=4,CSI=0,THI=0,DTI=0,ENI=4,
        8        8             CLM=0,SQB,NTB,MOC,CCI=3,NLB,MCL=0,EDMC*/
        9        9        /*F* NAME:         LLH$HEXBIN
       10       10             PURPOSE:      LLH$HEXBIN provides a way to convert a character
       11       11                           string (0-9,A-F) into a binary number.  It is
       12       12                           used by LLA$MAIN to convert the start, bias and
       13       13                           severity level to binary.                        */
       14       14        LLH$HEXBIN: PROC (VALUE, LENGTH, STRING);
       15       15         /* INCLUDES */
       16       16        %INCLUDE LL_DATA_R;
       17       52         /* LOCAL DATA */
       18       53    1   DCL VALUE UBIN WORD ALIGNED;
       19       54    1   DCL LENGTH UBIN BYTE ALIGNED;
       20       55    1   DCL STRING CHAR(9) UNAL;
       21       56    1   DCL STR_ARRAY(0:8) REDEF STRING CHAR(1);
       22       57    1   DCL HEX_ARRAY(0:15) CHAR(1) STATIC UNAL INIT ('0','1','2','3','4','5',
       23       58    1    '6','7','8','9','A','B','C','D','E','F');
       24       59    1   DCL J UBIN WORD STATIC ALIGNED;
       25       60    1   DCL K UBIN WORD STATIC ALIGNED;
       26       61         /* PROCEDURE */
       27       62    1       VALUE = 0;
       28       63    2       IF (LENGTH > 9) THEN DO;
       29       64    2           LL_FLAGS.BAD_HEX# = '1'B;
       30       65    2           RETURN;
       31       66    2           END;
       32       67    2       DO J = 0 TO LENGTH - 1;
       33       68    2           K = 0;
       34       69    3           DO WHILE (STR_ARRAY(J) ~= HEX_ARRAY(K) AND K ~= 16);
       35       70    3               K = K + 1;
       36       71    3               END;
       37       72    3           IF (K > 15) THEN DO;
PL6.E3A0      #001=LLH$HEXBIN File=LLH$HEXBIN.:E05TSI                            WED 07/30/97 03:15 Page:2
       38       73    3               LL_FLAGS.BAD_HEX# = '1'B;
       39       74    3               RETURN;
       40       75    3               END;
       41       76    2           VALUE = (VALUE * 16) + K;
       42       77    2           END;
       43       78    1       RETURN;
       44       79    1   END LLH$HEXBIN;

PL6.E3A0      #001=LLH$HEXBIN File=LLH$HEXBIN.:E05TSI                            WED 07/30/97 03:15 Page:3
--  Include file information  --

   LL_DATA_R.:E05TOU  cannot be made into a system file and is referenced.
      No diagnostics issued in procedure LLH$HEXBIN.

   Procedure LLH$HEXBIN requires 47 words for executable code.
   Procedure LLH$HEXBIN requires 8 words of local(AUTO) storage.

    No errors detected in file LLH$HEXBIN.:E05TSI    .

PL6.E3A0      #001=LLH$HEXBIN File=LLH$HEXBIN.:E05TSI                            WED 07/30/97 03:15 Page:4

 Object Unit name= LLH$HEXBIN                                 File name= LLH$HEXBIN.:E05TOU
 UTS= JUL 30 '97 03:15:36.44 WED                              Compiler= PL-6/E31         Sev=      00
 SharedLib= :SHARED_SYSTEM                                    Alt SharedLib=


    ****  Control sections  ****

 Sect   Type Bound  Init  Size OctSiz  Section name(segment info)
    0   Data  even  none     6      6  LLH$HEXBIN
    1   Proc  even  none    47     57  LLH$HEXBIN

    ****  Entry defs  ****

                              Check   Calling
                             calling  sequence
  Sect OctLoc Primary Altret sequence   type   Parms  Name
     1      0   yes            yes      Std        3  LLH$HEXBIN

  ****  Entry refs  ****

         Check        Calling
        calling       sequence
Altret sequence SRef   type   Args  Name
                       nStd      0 X66_AUTO_3
                       nStd      0 X66_ARET

  ****  Data refs  ****

  Flags:  r = read only, s = secondary
Flgs Name                             Flgs Name                             Flgs Name
     LL_FLAGS
PL6.E3A0      #001=LLH$HEXBIN File=LLH$HEXBIN.:E05TSI                            WED 07/30/97 03:15 Page:5


        1        1        /*M* LLH$HEXBIN - Hexadecimal to binary conversion routine          */
        2        2        /*T***********************************************************/
        3        3        /*T*                                                         */
        4        4        /*T* Copyright (c) Bull HN Information Systems Inc., 1997    */
        5        5        /*T*                                                         */
        6        6        /*T***********************************************************/
        7        7        /*X* PLM=4,STI=0,IND=4,CTI=3,DCI=4,ECI=4,CSI=0,THI=0,DTI=0,ENI=4,
        8        8             CLM=0,SQB,NTB,MOC,CCI=3,NLB,MCL=0,EDMC*/
        9        9        /*F* NAME:         LLH$HEXBIN
       10       10             PURPOSE:      LLH$HEXBIN provides a way to convert a character
       11       11                           string (0-9,A-F) into a binary number.  It is
       12       12                           used by LLA$MAIN to convert the start, bias and
       13       13                           severity level to binary.                        */
       14       14        LLH$HEXBIN: PROC (VALUE, LENGTH, STRING);

     14  1 000000   000000 700200 xent  LLH$HEXBIN   TSX0  ! X66_AUTO_3
         1 000001   000010 000003                    ZERO    8,3

       15       15         /* INCLUDES */
       16       16        %INCLUDE LL_DATA_R;
       17       52         /* LOCAL DATA */
       18       53    1   DCL VALUE UBIN WORD ALIGNED;
       19       54    1   DCL LENGTH UBIN BYTE ALIGNED;
       20       55    1   DCL STRING CHAR(9) UNAL;
       21       56    1   DCL STR_ARRAY(0:8) REDEF STRING CHAR(1);
       22       57    1   DCL HEX_ARRAY(0:15) CHAR(1) STATIC UNAL INIT ('0','1','2','3','4','5',
       23       58    1    '6','7','8','9','A','B','C','D','E','F');
       24       59    1   DCL J UBIN WORD STATIC ALIGNED;
       25       60    1   DCL K UBIN WORD STATIC ALIGNED;
       26       61         /* PROCEDURE */
       27       62    1       VALUE = 0;

     62  1 000002   200003 470500                    LDP0    @VALUE,,AUTO
         1 000003   000000 450100                    STZ     0,,PR0

       28       63    2       IF (LENGTH > 9) THEN DO;
PL6.E3A0      #001=LLH$HEXBIN File=LLH$HEXBIN.:E05TSI                            WED 07/30/97 03:15 Page:6

     63  1 000004   200004 471500                    LDP1    @LENGTH,,AUTO
         1 000005   100000 236100                    LDQ     0,,PR1
         1 000006   777000 376003                    ANQ     -512,DU
         1 000007   012000 116003                    CMPQ    5120,DU
         1 000010   000014 602000 1                  TNC     s:67

       29       64    2           LL_FLAGS.BAD_HEX# = '1'B;

     64  1 000011   000200 236003                    LDQ     128,DU
         1 000012   000000 256000 xsym               ORSQ    LL_FLAGS

       30       65    2           RETURN;

     65  1 000013   000000 702200 xent               TSX2  ! X66_ARET

       31       66    2           END;
       32       67    2       DO J = 0 TO LENGTH - 1;

     67  1 000014   000004 450000 0                  STZ     J
         1 000015   000050 710000 1                  TRA     s:77+2

       33       68    2           K = 0;

     68  1 000016   000005 450000 0                  STZ     K

       34       69    3           DO WHILE (STR_ARRAY(J) ~= HEX_ARRAY(K) AND K ~= 16);

     69  1 000017   000023 710000 1                  TRA     s:71

       35       70    3               K = K + 1;

     70  1 000020   000005 235000 0                  LDA     K
         1 000021   000001 035007                    ADLA    1,DL
         1 000022   000005 755000 0                  STA     K

       36       71    3               END;
PL6.E3A0      #001=LLH$HEXBIN File=LLH$HEXBIN.:E05TSI                            WED 07/30/97 03:15 Page:7

     71  1 000023   200005 470500                    LDP0    @STRING,,AUTO
         1 000024   000004 235000 0                  LDA     J
         1 000025   000005 236000 0                  LDQ     K
         1 000026   040006 106505                    CMPC    fill='040'O
         1 000027   000000 000001                    ADSC9   0,A,PR0                  cn=0,n=1
         1 000030   000000 000001 0                  ADSC9   HEX_ARRAY,Q              cn=0,n=1
         1 000031   000034 600000 1                  TZE     s:72
         1 000032   000020 116007                    CMPQ    16,DL
         1 000033   000020 601000 1                  TNZ     s:70

       37       72    3           IF (K > 15) THEN DO;

     72  1 000034   000020 116007                    CMPQ    16,DL
         1 000035   000041 602000 1                  TNC     s:76

       38       73    3               LL_FLAGS.BAD_HEX# = '1'B;

     73  1 000036   000200 236003                    LDQ     128,DU
         1 000037   000000 256000 xsym               ORSQ    LL_FLAGS

       39       74    3               RETURN;

     74  1 000040   000000 702200 xent               TSX2  ! X66_ARET

       40       75    3               END;
       41       76    2           VALUE = (VALUE * 16) + K;

     76  1 000041   200003 471500                    LDP1    @VALUE,,AUTO
         1 000042   100000 236100                    LDQ     0,,PR1
         1 000043   000004 736000                    QLS     4
         1 000044   000005 036000 0                  ADLQ    K
         1 000045   100000 756100                    STQ     0,,PR1

       42       77    2           END;

     77  1 000046   000001 035007                    ADLA    1,DL
PL6.E3A0      #001=LLH$HEXBIN File=LLH$HEXBIN.:E05TSI                            WED 07/30/97 03:15 Page:8
         1 000047   000004 755000 0                  STA     J
         1 000050   200004 470500                    LDP0    @LENGTH,,AUTO
         1 000051   000000 236100                    LDQ     0,,PR0
         1 000052   000033 772000                    QRL     27
         1 000053   000004 116000 0                  CMPQ    J
         1 000054   000056 600000 1                  TZE     s:78
         1 000055   000016 603000 1                  TRC     s:68

       43       78    1       RETURN;

     78  1 000056   000000 702200 xent               TSX2  ! X66_ARET
       44       79    1   END LLH$HEXBIN;

PL6.E3A0      #001=LLH$HEXBIN File=LLH$HEXBIN.:E05TSI                            WED 07/30/97 03:15 Page:9
--  Include file information  --

   LL_DATA_R.:E05TOU  cannot be made into a system file and is referenced.
      No diagnostics issued in procedure LLH$HEXBIN.
PL6.E3A0      #001=LLH$HEXBIN File=LLH$HEXBIN.:E05TSI                            WED 07/30/97 03:15 Page:10

 **** Variables and constants ****

  ****  Section 000  Data  LLH$HEXBIN

  ****  Scalars and arrays  ****
OctLoc.c.b A Datatyp(siz) R M Lvl/name                 OctLoc.c.b A Datatyp(siz) R M Lvl/name

     0-0-0/c CHAR        r     1 HEX_ARRAY(0:15)
     4-0-0/w UBIN        r     1 J                          5-0-0/w UBIN        r     1 K

  ****  Auto variables  ****

  ****  Scalars and arrays  ****
OctLoc.c.b A Datatyp(siz) R M Lvl/name                 OctLoc.c.b A Datatyp(siz) R M Lvl/name

     4-0-0/w PTR         r     1 @LENGTH                    5-0-0/w PTR         r     1 @STRING
     3-0-0/w PTR         r     1 @VALUE                    *0-0-0/w UBIN(9)     r     1 LENGTH
    *0-0-0/c CHAR(9)     r     1 STRING
    *0-0-0/c CHAR        r     1 STR_ARRAY(0:8)
    *0-0-0/w UBIN        r     1 VALUE

  ****  SYMREF variables  ****

  ****  Scalars and arrays  ****
OctLoc.c.b A Datatyp(siz) R M Lvl/name                 OctLoc.c.b A Datatyp(siz) R M Lvl/name

     0-0-0/w STRC        r     1 LL_FLAGS


   Procedure LLH$HEXBIN requires 47 words for executable code.
   Procedure LLH$HEXBIN requires 8 words of local(AUTO) storage.

    No errors detected in file LLH$HEXBIN.:E05TSI    .
PL6.E3A0      #001=LLH$HEXBIN File=LLH$HEXBIN.:E05TSI                            WED 07/30/97 03:15 Page:11
          *** CROSS REFERENCE LISTING ***
**     DENOTES     IDENTIFIER DEFINITION
<<                 IDENTIFIER'S VALUE SET
>>                 IDENTIFIER'S VALUE USED
<>                 IDENTIFIER SET AND/OR USED
--                 IDENTIFIER REFERENCED
PL6.E3A0      #001=LLH$HEXBIN File=LLH$HEXBIN.:E05TSI                            WED 07/30/97 03:15 Page:12
          MINI XREF LISTING

HEX_ARRAY
        57**DCL        69>>DOWHILE
J
        59**DCL        67<<DOINDEX    69>>DOWHILE
K
        60**DCL        68<<ASSIGN     69>>DOWHILE    69>>DOWHILE    70<<ASSIGN     70>>ASSIGN     72>>IF
        76>>ASSIGN
LENGTH
        54**DCL        14--PROC       63>>IF         67>>DOINDEX
LL_FLAGS.BAD_HEX#
        26**DCL        64<<ASSIGN     73<<ASSIGN
STRING
        55**DCL        14--PROC       56--REDEF
STR_ARRAY
        56**DCL        69>>DOWHILE
VALUE
        53**DCL        14--PROC       62<<ASSIGN     76<<ASSIGN     76>>ASSIGN
