VERSION E05

PL6.E3A0      #001=LLI$BINHEX File=LLI$BINHEX.:E05TSI                            WED 07/30/97 03:15 Page:1
        1        1        /*M* LLI$BINHEX - Binary to "display" hexadecimal converter         */
        2        2        /*T***********************************************************/
        3        3        /*T*                                                         */
        4        4        /*T* Copyright (c) Bull HN Information Systems Inc., 1997    */
        5        5        /*T*                                                         */
        6        6        /*T***********************************************************/
        7        7        /*X* PLM=4,STI=0,IND=4,CTI=3,DCI=4,ECI=4,CSI=0,THI=0,DTI=0,ENI=4,
        8        8             CLM=0,SQB,NTB,MOC,CCI=3,NLB,MCL=0,EDMC*/
        9        9        /*F* NAME:         LLI$BINHEX
       10       10             PURPOSE:      LLI$BINHEX is called by the mapping and allocation
       11       11                           routines to convert internal binary to hexadecimal
       12       12                           character strings.                               */
       13       13        LLI$BINHEX: PROC (VALUE, N, STRING);
       14       14    1   DCL VALUE UBIN WORD ALIGNED;
       15       15    1   DCL N UBIN WORD ALIGNED;
       16       16    1   DCL STRING CHAR(6) UNAL;
       17       17    1   DCL WORK_VAR UBIN WORD ALIGNED;
       18       18    1   DCL I SBIN WORD ALIGNED;
       19       19    1   DCL J UBIN WORD;
       20       20    1   DCL STR(0:5) CHAR(1) BASED UNAL;
       21       21    1   DCL CHARS(0:15) CHAR(1) STATIC UNAL INIT ('0', '1', '2', '3', '4',
       22       22    1    '5', '6', '7', '8', '9', 'A', 'B', 'C', 'D', 'E', 'F');
       23       23    1   DCL PTR$ PTR;
       24       24    1       PTR$ = ADDR(STRING);
       25       25    1       WORK_VAR = VALUE;
       26       26    1       STRING = ' ';
       27       27    2       DO I = 0 TO N - 1;
       28       28    2           J = MOD(WORK_VAR, 16);
       29       29    2           PTR$ -> STR(N-I-1) = CHARS(J);
       30       30    2           WORK_VAR = WORK_VAR / 16;
       31       31    2           IF (WORK_VAR = 0) THEN I = N - 1;
       32       32    2           END;
       33       33    1       RETURN;
       34       34    1   END LLI$BINHEX;

PL6.E3A0      #001=LLI$BINHEX File=LLI$BINHEX.:E05TSI                            WED 07/30/97 03:15 Page:2
      No diagnostics issued in procedure LLI$BINHEX.

   Procedure LLI$BINHEX requires 38 words for executable code.
   Procedure LLI$BINHEX requires 10 words of local(AUTO) storage.

    No errors detected in file LLI$BINHEX.:E05TSI    .

PL6.E3A0      #001=LLI$BINHEX File=LLI$BINHEX.:E05TSI                            WED 07/30/97 03:15 Page:3

 Object Unit name= LLI$BINHEX                                 File name= LLI$BINHEX.:E05TOU
 UTS= JUL 30 '97 03:15:39.08 WED                              Compiler= PL-6/E31         Sev=      00
 SharedLib= :SHARED_SYSTEM                                    Alt SharedLib=


    ****  Control sections  ****

 Sect   Type Bound  Init  Size OctSiz  Section name(segment info)
    0   Data  even  none     4      4  LLI$BINHEX
    1   Proc  even  none    38     46  LLI$BINHEX

    ****  Entry defs  ****

                              Check   Calling
                             calling  sequence
  Sect OctLoc Primary Altret sequence   type   Parms  Name
     1      0   yes            yes      Std        3  LLI$BINHEX

  ****  Entry refs  ****

         Check        Calling
        calling       sequence
Altret sequence SRef   type   Args  Name
                       nStd      0 X66_AUTO_3
                       Std       0 B_CONSPOOL_D
                       nStd      0 X66_ARET

  ****  Data refs  ****

  Flags:  r = read only, s = secondary
Flgs Name                             Flgs Name                             Flgs Name
     B_VECTNIL
PL6.E3A0      #001=LLI$BINHEX File=LLI$BINHEX.:E05TSI                            WED 07/30/97 03:15 Page:4


        1        1        /*M* LLI$BINHEX - Binary to "display" hexadecimal converter         */
        2        2        /*T***********************************************************/
        3        3        /*T*                                                         */
        4        4        /*T* Copyright (c) Bull HN Information Systems Inc., 1997    */
        5        5        /*T*                                                         */
        6        6        /*T***********************************************************/
        7        7        /*X* PLM=4,STI=0,IND=4,CTI=3,DCI=4,ECI=4,CSI=0,THI=0,DTI=0,ENI=4,
        8        8             CLM=0,SQB,NTB,MOC,CCI=3,NLB,MCL=0,EDMC*/
        9        9        /*F* NAME:         LLI$BINHEX
       10       10             PURPOSE:      LLI$BINHEX is called by the mapping and allocation
       11       11                           routines to convert internal binary to hexadecimal
       12       12                           character strings.                               */
       13       13        LLI$BINHEX: PROC (VALUE, N, STRING);

     13  1 000000   000000 700200 xent  LLI$BINHEX   TSX0  ! X66_AUTO_3
         1 000001   000012 000003                    ZERO    10,3

       14       14    1   DCL VALUE UBIN WORD ALIGNED;
       15       15    1   DCL N UBIN WORD ALIGNED;
       16       16    1   DCL STRING CHAR(6) UNAL;
       17       17    1   DCL WORK_VAR UBIN WORD ALIGNED;
       18       18    1   DCL I SBIN WORD ALIGNED;
       19       19    1   DCL J UBIN WORD;
       20       20    1   DCL STR(0:5) CHAR(1) BASED UNAL;
       21       21    1   DCL CHARS(0:15) CHAR(1) STATIC UNAL INIT ('0', '1', '2', '3', '4',
       22       22    1    '5', '6', '7', '8', '9', 'A', 'B', 'C', 'D', 'E', 'F');
       23       23    1   DCL PTR$ PTR;
       24       24    1       PTR$ = ADDR(STRING);

     24  1 000002   200005 236100                    LDQ     @STRING,,AUTO
         1 000003   200011 756100                    STQ     PTR$,,AUTO

       25       25    1       WORK_VAR = VALUE;

     25  1 000004   200003 470500                    LDP0    @VALUE,,AUTO
         1 000005   000000 235100                    LDA     0,,PR0
PL6.E3A0      #001=LLI$BINHEX File=LLI$BINHEX.:E05TSI                            WED 07/30/97 03:15 Page:5
         1 000006   200006 755100                    STA     WORK_VAR,,AUTO

       26       26    1       STRING = ' ';

     26  1 000007   200005 471500                    LDP1    @STRING,,AUTO
         1 000010   040100 100400                    MLR     fill='040'O
         1 000011   000035 000001 xsym               ADSC9   B_VECTNIL+29             cn=0,n=1
         1 000012   100000 000006                    ADSC9   0,,PR1                   cn=0,n=6

       27       27    2       DO I = 0 TO N - 1;

     27  1 000013   200007 450100                    STZ     I,,AUTO
         1 000014   000040 710000 1                  TRA     s:32+1

       28       28    2           J = MOD(WORK_VAR, 16);

     28  1 000015   200006 236100                    LDQ     WORK_VAR,,AUTO
         1 000016   000017 376007                    ANQ     15,DL
         1 000017   200010 756100                    STQ     J,,AUTO

       29       29    2           PTR$ -> STR(N-I-1) = CHARS(J);

     29  1 000020   200004 470500                    LDP0    @N,,AUTO
         1 000021   000000 236100                    LDQ     0,,PR0
         1 000022   200007 136100                    SBLQ    I,,AUTO
         1 000023   200010 235100                    LDA     J,,AUTO
         1 000024   200011 471500                    LDP1    PTR$,,AUTO
         1 000025   040106 100405                    MLR     fill='040'O
         1 000026   000000 000001 0                  ADSC9   CHARS,A                  cn=0,n=1
         1 000027   177777 600001                    ADSC9   -1,Q,PR1                 cn=3,n=1

       30       30    2           WORK_VAR = WORK_VAR / 16;

     30  1 000030   200006 236100                    LDQ     WORK_VAR,,AUTO
         1 000031   000004 772000                    QRL     4
         1 000032   200006 756100                    STQ     WORK_VAR,,AUTO

PL6.E3A0      #001=LLI$BINHEX File=LLI$BINHEX.:E05TSI                            WED 07/30/97 03:15 Page:6
       31       31    2           IF (WORK_VAR = 0) THEN I = N - 1;

     31  1 000033   000037 601000 1                  TNZ     s:32

     31  1 000034   000000 235100                    LDA     0,,PR0
         1 000035   000001 135007                    SBLA    1,DL
         1 000036   200007 755100                    STA     I,,AUTO

       32       32    2           END;

     32  1 000037   200007 054100                    AOS     I,,AUTO
         1 000040   200004 470500                    LDP0    @N,,AUTO
         1 000041   200007 236100                    LDQ     I,,AUTO
         1 000042   000015 604000 1                  TMI     s:28
         1 000043   000000 116100                    CMPQ    0,,PR0
         1 000044   000015 602000 1                  TNC     s:28

       33       33    1       RETURN;

     33  1 000045   000000 702200 xent               TSX2  ! X66_ARET
       34       34    1   END LLI$BINHEX;

PL6.E3A0      #001=LLI$BINHEX File=LLI$BINHEX.:E05TSI                            WED 07/30/97 03:15 Page:7
      No diagnostics issued in procedure LLI$BINHEX.
PL6.E3A0      #001=LLI$BINHEX File=LLI$BINHEX.:E05TSI                            WED 07/30/97 03:15 Page:8

 **** Variables and constants ****

  ****  Section 000  Data  LLI$BINHEX

  ****  Scalars and arrays  ****
OctLoc.c.b A Datatyp(siz) R M Lvl/name                 OctLoc.c.b A Datatyp(siz) R M Lvl/name

     0-0-0/c CHAR        r     1 CHARS(0:15)

  ****  Auto variables  ****

  ****  Scalars and arrays  ****
OctLoc.c.b A Datatyp(siz) R M Lvl/name                 OctLoc.c.b A Datatyp(siz) R M Lvl/name

     4-0-0/w PTR         r     1 @N                         5-0-0/w PTR         r     1 @STRING
     3-0-0/w PTR         r     1 @VALUE                     7-0-0/w SBIN        r     1 I
    10-0-0/w UBIN        r     1 J                         *0-0-0/w UBIN        r     1 N
    11-0-0/w PTR         r     1 PTR$                      *0-0-0/c CHAR(6)     r     1 STRING
    *0-0-0/w UBIN        r     1 VALUE                      6-0-0/w UBIN        r     1 WORK_VAR

  ****  BASED and DCB variables  ****

  ****  Scalars and arrays  ****
OctLoc.c.b A Datatyp(siz) R M Lvl/name                 OctLoc.c.b A Datatyp(siz) R M Lvl/name

     0-0-0/c CHAR        r     1 STR(0:5)


   Procedure LLI$BINHEX requires 38 words for executable code.
   Procedure LLI$BINHEX requires 10 words of local(AUTO) storage.

    No errors detected in file LLI$BINHEX.:E05TSI    .
PL6.E3A0      #001=LLI$BINHEX File=LLI$BINHEX.:E05TSI                            WED 07/30/97 03:15 Page:9
          *** CROSS REFERENCE LISTING ***
**     DENOTES     IDENTIFIER DEFINITION
<<                 IDENTIFIER'S VALUE SET
>>                 IDENTIFIER'S VALUE USED
<>                 IDENTIFIER SET AND/OR USED
--                 IDENTIFIER REFERENCED
PL6.E3A0      #001=LLI$BINHEX File=LLI$BINHEX.:E05TSI                            WED 07/30/97 03:15 Page:10
          MINI XREF LISTING

CHARS
        21**DCL        29>>ASSIGN
I
        18**DCL        27<<DOINDEX    29>>ASSIGN     31<<ASSIGN
J
        19**DCL        28<<ASSIGN     29>>ASSIGN
N
        15**DCL        13--PROC       27>>DOINDEX    29>>ASSIGN     31>>ASSIGN
PTR$
        23**DCL        24<<ASSIGN     29>>ASSIGN
STR
        20**DCL        29<<ASSIGN
STRING
        16**DCL        13--PROC       24--ASSIGN     26<<ASSIGN
VALUE
        14**DCL        13--PROC       25>>ASSIGN
WORK_VAR
        17**DCL        25<<ASSIGN     28>>ASSIGN     30<<ASSIGN     30>>ASSIGN     31>>IF
