VERSION E05

PL6.E3A0      #001=LLJ$BREAK File=LLJ$BREAK.:E05TSI                              WED 07/30/97 03:15 Page:1
        1        1        /*M* LLJ$BREAK - Break control entry point                          */
        2        2        /*T***********************************************************/
        3        3        /*T*                                                         */
        4        4        /*T* Copyright (c) Bull HN Information Systems Inc., 1997    */
        5        5        /*T*                                                         */
        6        6        /*T***********************************************************/
        7        7        /*X* PLM=4,STI=0,IND=4,CTI=3,DCI=4,ECI=4,CSI=0,THI=0,DTI=0,ENI=4,
        8        8             CLM=0,SQB,NTB,MOC,CCI=3,NLB,MCL=0,EDMC*/
        9        9        /*F* NAME:         LLJ$BREAK
       10       10             PURPOSE:      LLJ$BREAK is entered when the break key is pressed.
       11       11                           It simply looks into LL_STATE which is set when a
       12       12                           new phase of the link has begun and formats a
       13       13                           message, written thru M$ME, to let the user know
       14       14                           how far along the link has progressed            */
       15       15        LLJ$BREAK: PROC ASYNC NOAUTO;
       16       16        %INCLUDE CP_6;
       17       97        %INCLUDE LL_DATA_R;
       18      133        %INCLUDE LL_SUBS_C;
       19      262        %INCLUDE LL_MACS_C;
       20      616    1   DCL LLM$MON_SVC ENTRY(4) ALTRET;
       21      617        %FPT_TRMPRG ( FPTN = RST_BRK,
       22      618         RSTBRK = YES );
       23      647        %LL$OU_ENTRY ( NAME = OU_ENTRY );
       24      695    1   DCL 1 OU_FID(0:0) BASED(LL_OF$) ALIGNED,
       25      696    1         2 NAME CHAR(50),
       26      697    1         2 BIAS SBIN WORD;
       27      698    1   DCL BREAK# BIT(1) STATIC UNAL INIT('0'B);
       28      699    1   DCL LL_MEBUF CHAR(108) STATIC SYMDEF ALIGNED INIT(' ');
       29      700        %EJECT;
PL6.E3A0      #001=LLJ$BREAK File=LLJ$BREAK.:E05TSI                              WED 07/30/97 03:15 Page:2
       30      701    1   BEGIN:
       31      702    1       CALL M$TRMPRG ( RST_BRK );
       32      703    1       IF BREAK# THEN CALL M$TRTN;
       33      704    1       BREAK# = '1'B;
       34      705    2       DO CASE (LL_STATE);
       35      706    2       CASE (LL#INITIALIZING);
       36      707    2           LL_MEBUF = 'A  ...Parsing command';
       37      708    2       CASE (LL#PASS1);
       38      709    2           CALL INSERT ( LL_MEBUF, 0, ,
       39      710    2              'A  ...Linking ',
       40      711    2              LL_OU_PTR$ -> OU_ENTRY.OUNAME.TEXT,
       41      712    2              ' from file ',
       42      713    2              OU_FID.NAME(LL_OU_PTR$->OU_ENTRY.OF));
       43      714    2       CASE (LL#ALLOCATING);
       44      715    2           LL_MEBUF = 'A  ...Allocating memory';
       45      716    2       CASE (LL#PASS2);
       46      717    2           CALL INSERT ( LL_MEBUF, 0, ,
       47      718    2              'A  ...Writing program text for ',
       48      719    2              LL_OU_PTR$ -> OU_ENTRY.OUNAME.TEXT,
       49      720    2              ' from file ',
       50      721    2              LL_OF$->OU_FID.NAME(LL_OU_PTR$->OU_ENTRY.OF));
       51      722    2       CASE (LL#MAPPING);
       52      723    2           LL_MEBUF = 'A  ...Mapping run unit';
       53      724    2           END;
       54      725    1       CALL LLM$MON_SVC ( LL#WRITEME );
       55      726    1       BREAK# = '0'B;
       56      727    1       CALL M$TRTN;
       57      728    1   END LLJ$BREAK;

PL6.E3A0      #001=LLJ$BREAK File=LLJ$BREAK.:E05TSI                              WED 07/30/97 03:15 Page:3
--  Include file information  --

   LL_MACS_C.:E05TOU  is referenced.
   LL_SUBS_C.:E05TOU  is referenced.
   LL_DATA_R.:E05TOU  cannot be made into a system file and is referenced.
   CP_6.:E05TOU  cannot be made into a system file and is referenced.
   B$JIT_C.:E05TOU  was found in the system file and is never referenced.
   CP_6_C.:E05TOU  was found in the system file and is referenced.
      No diagnostics issued in procedure LLJ$BREAK.

   Procedure LLJ$BREAK requires 115 words for executable code.
   Procedure LLJ$BREAK is declared NOAUTO and requires 40 words of local(STATIC) storage.

    No errors detected in file LLJ$BREAK.:E05TSI    .

PL6.E3A0      #001=LLJ$BREAK File=LLJ$BREAK.:E05TSI                              WED 07/30/97 03:15 Page:4

 Object Unit name= LLJ$BREAK                                  File name= LLJ$BREAK.:E05TOU
 UTS= JUL 30 '97 03:15:59.36 WED                              Compiler= PL-6/E31         Sev=      00
 SharedLib= :SHARED_SYSTEM                                    Alt SharedLib=


    ****  Control sections  ****

 Sect   Type Bound  Init  Size OctSiz  Section name(segment info)
    0   Data  even  none    40     50  LLJ$BREAK
    1   DCB   even  none     0      0  M$UC
    2  RoData even  UTS     33     41  LLJ$BREAK
    3   Proc  even  none   115    163  LLJ$BREAK
    4  RoData even  none     2      2  LLJ$BREAK

    ****  Entry defs  ****

                              Check   Calling
                             calling  sequence
  Sect OctLoc Primary Altret sequence   type   Parms  Name
     3      0   yes            yes     Async       0  LLJ$BREAK

  ****  Data defs  ****

 Sect OctLoc  Name                           Sect OctLoc  Name
    0     13  LL_MEBUF

  ****  Entry refs  ****

         Check        Calling
        calling       sequence
Altret sequence SRef   type   Args  Name
 yes     yes           Std       4 LLM$MON_SVC
                       nStd      0 X66_ASTATIC
                       Std       0 B_CONSPOOL_D
                       nStd      0 X66_ASRET
PL6.E3A0      #001=LLJ$BREAK File=LLJ$BREAK.:E05TSI                              WED 07/30/97 03:15 Page:5

  ****  Data refs  ****

  Flags:  r = read only, s = secondary
Flgs Name                             Flgs Name                             Flgs Name
     M$UC                                  LL_OF$                                LL_STATE
     LL_OU_PTR$                            B_VECTNIL

  ****  Segment refs  ****

  Flags:  r = read only, s = secondary
Flgs Name                             Flgs Name                             Flgs Name
     ISSID                                 NULLSID
PL6.E3A0      #001=LLJ$BREAK File=LLJ$BREAK.:E05TSI                              WED 07/30/97 03:15 Page:6


        1        1        /*M* LLJ$BREAK - Break control entry point                          */
        2        2        /*T***********************************************************/
        3        3        /*T*                                                         */
        4        4        /*T* Copyright (c) Bull HN Information Systems Inc., 1997    */
        5        5        /*T*                                                         */
        6        6        /*T***********************************************************/
        7        7        /*X* PLM=4,STI=0,IND=4,CTI=3,DCI=4,ECI=4,CSI=0,THI=0,DTI=0,ENI=4,
        8        8             CLM=0,SQB,NTB,MOC,CCI=3,NLB,MCL=0,EDMC*/
        9        9        /*F* NAME:         LLJ$BREAK
       10       10             PURPOSE:      LLJ$BREAK is entered when the break key is pressed.
       11       11                           It simply looks into LL_STATE which is set when a
       12       12                           new phase of the link has begun and formats a
       13       13                           message, written thru M$ME, to let the user know
       14       14                           how far along the link has progressed            */
       15       15        LLJ$BREAK: PROC ASYNC NOAUTO;

     15  3 000000   000000 700200 xent  LLJ$BREAK    TSX0  ! X66_ASTATIC
         3 000001   000000 000000 0                  ZERO    0,0

       16       16        %INCLUDE CP_6;
       17       97        %INCLUDE LL_DATA_R;
       18      133        %INCLUDE LL_SUBS_C;
       19      262        %INCLUDE LL_MACS_C;
       20      616    1   DCL LLM$MON_SVC ENTRY(4) ALTRET;
       21      617        %FPT_TRMPRG ( FPTN = RST_BRK,
       22      618         RSTBRK = YES );
       23      647        %LL$OU_ENTRY ( NAME = OU_ENTRY );
       24      695    1   DCL 1 OU_FID(0:0) BASED(LL_OF$) ALIGNED,
       25      696    1         2 NAME CHAR(50),
       26      697    1         2 BIAS SBIN WORD;
       27      698    1   DCL BREAK# BIT(1) STATIC UNAL INIT('0'B);
       28      699    1   DCL LL_MEBUF CHAR(108) STATIC SYMDEF ALIGNED INIT(' ');
       29      700        %EJECT;
PL6.E3A0      #001=LLJ$BREAK File=LLJ$BREAK.:E05TSI                              WED 07/30/97 03:15 Page:7
       30      701    1   BEGIN:
       31      702    1       CALL M$TRMPRG ( RST_BRK );

    702  3 000002   000002 630400 0     BEGIN        EPPR0   RST_BRK
         3 000003   160004 713400                    CLIMB   57348
         3 000004   400400 401760                    pmme    nvectors=2

       32      703    1       IF BREAK# THEN CALL M$TRTN;

    703  3 000005   000012 234000 0                  SZN     BREAK#
         3 000006   000011 605000 3                  TPL     s:704

    703  3 000007   010012 713400                    CLIMB   4106
         3 000010   000000 401760                    pmme    nvectors=0

       33      704    1       BREAK# = '1'B;

    704  3 000011   400000 236003                    LDQ     -131072,DU
         3 000012   000012 756000 0                  STQ     BREAK#

       34      705    2       DO CASE (LL_STATE);

    705  3 000013   000000 235000 xsym               LDA     LL_STATE
         3 000014   000005 115007                    CMPA    5,DL
         3 000015   000017 602005 3                  TNC     s:705+4,AL
         3 000016   000153 710000 3                  TRA     s:725
         3 000017   000024 710000 3                  TRA     s:707
         3 000020   000030 710000 3                  TRA     s:709
         3 000021   000076 710000 3                  TRA     s:715
         3 000022   000102 710000 3                  TRA     s:717
         3 000023   000150 710000 3                  TRA     s:723

       35      706    2       CASE (LL#INITIALIZING);

       36      707    2           LL_MEBUF = 'A  ...Parsing command';

    707  3 000024   040000 100400                    MLR     fill='040'O
PL6.E3A0      #001=LLJ$BREAK File=LLJ$BREAK.:E05TSI                              WED 07/30/97 03:15 Page:8
         3 000025   000000 000025 2                  ADSC9   0                        cn=0,n=21
         3 000026   000013 000154 0                  ADSC9   LL_MEBUF                 cn=0,n=108
         3 000027   000153 710000 3                  TRA     s:725

       37      708    2       CASE (LL#PASS1);

       38      709    2           CALL INSERT ( LL_MEBUF, 0, ,

    709  3 000030   000000 470400 xsym               LDP0    LL_OU_PTR$
         3 000031   000015 236100                    LDQ     13,,PR0
         3 000032   000033 772000                    QRL     27
         3 000033   000000 620006                    EAX0    0,QL
         3 000034   000000 236100                    LDQ     0,,PR0
         3 000035   000016 402007                    MPY     14,DL
         3 000036   040000 100400                    MLR     fill='040'O
         3 000037   000006 000016 2                  ADSC9   6                        cn=0,n=14
         3 000040   000013 000016 0                  ADSC9   LL_MEBUF                 cn=0,n=14
         3 000041   040000 100540                    MLR     fill='040'O
         3 000042   000015 200010                    ADSC9   13,,PR0                  cn=1,n=*X0
         3 000043   000016 400136 0                  ADSC9   LL_MEBUF+3               cn=2,n=94
         3 000044   000000 621006                    EAX1    0,QL
         3 000045   000000 636010                    EAQ     0,X0
         3 000046   000022 772000                    QRL     18
         3 000047   000136 116007                    CMPQ    94,DL
         3 000050   000075 603000 3                  TRC     s:709+37
         3 000051   000046 740000 0                  STX0    LL_MEBUF+27
         3 000052   777641 620010                    EAX0    -95,X0
         3 000053   777777 660003                    ERX0    -1,DU
         3 000054   000046 235000 0                  LDA     LL_MEBUF+27
         3 000055   000022 771000                    ARL     18
         3 000056   040045 100400                    MLR     fill='040'O
         3 000057   000012 000013 2                  ADSC9   10                       cn=0,n=11
         3 000060   000016 400010 0                  ADSC9   LL_MEBUF+3,A             cn=2,n=*X0
         3 000061   000046 236000 0                  LDQ     LL_MEBUF+27
         3 000062   000022 772000                    QRL     18
         3 000063   000123 116007                    CMPQ    83,DL
         3 000064   000075 603000 3                  TRC     s:709+37
PL6.E3A0      #001=LLJ$BREAK File=LLJ$BREAK.:E05TSI                              WED 07/30/97 03:15 Page:9
         3 000065   000000 635011                    EAA     0,X1
         3 000066   000020 771000                    ARL     16
         3 000067   777654 620006                    EAX0    -84,QL
         3 000070   777777 660003                    ERX0    -1,DU
         3 000071   000000 471400 xsym               LDP1    LL_OF$
         3 000072   040046 100505                    MLR     fill='040'O
         3 000073   100000 000062                    ADSC9   0,A,PR1                  cn=0,n=50
         3 000074   000021 200010 0                  ADSC9   LL_MEBUF+6,Q             cn=1,n=*X0
         3 000075   000153 710000 3                  TRA     s:725

       39      710    2              'A  ...Linking ',
       40      711    2              LL_OU_PTR$ -> OU_ENTRY.OUNAME.TEXT,
       41      712    2              ' from file ',
       42      713    2              OU_FID.NAME(LL_OU_PTR$->OU_ENTRY.OF));
       43      714    2       CASE (LL#ALLOCATING);

       44      715    2           LL_MEBUF = 'A  ...Allocating memory';

    715  3 000076   040000 100400                    MLR     fill='040'O
         3 000077   000015 000027 2                  ADSC9   13                       cn=0,n=23
         3 000100   000013 000154 0                  ADSC9   LL_MEBUF                 cn=0,n=108
         3 000101   000153 710000 3                  TRA     s:725

       45      716    2       CASE (LL#PASS2);

       46      717    2           CALL INSERT ( LL_MEBUF, 0, ,

    717  3 000102   000000 470400 xsym               LDP0    LL_OU_PTR$
         3 000103   000015 236100                    LDQ     13,,PR0
         3 000104   000033 772000                    QRL     27
         3 000105   000000 620006                    EAX0    0,QL
         3 000106   000000 236100                    LDQ     0,,PR0
         3 000107   000016 402007                    MPY     14,DL
         3 000110   040000 100400                    MLR     fill='040'O
         3 000111   000023 000037 2                  ADSC9   19                       cn=0,n=31
         3 000112   000013 000037 0                  ADSC9   LL_MEBUF                 cn=0,n=31
         3 000113   040000 100540                    MLR     fill='040'O
PL6.E3A0      #001=LLJ$BREAK File=LLJ$BREAK.:E05TSI                              WED 07/30/97 03:15 Page:10
         3 000114   000015 200010                    ADSC9   13,,PR0                  cn=1,n=*X0
         3 000115   000022 600115 0                  ADSC9   LL_MEBUF+7               cn=3,n=77
         3 000116   000000 621006                    EAX1    0,QL
         3 000117   000000 636010                    EAQ     0,X0
         3 000120   000022 772000                    QRL     18
         3 000121   000115 116007                    CMPQ    77,DL
         3 000122   000147 603000 3                  TRC     s:717+37
         3 000123   000046 740000 0                  STX0    LL_MEBUF+27
         3 000124   777662 620010                    EAX0    -78,X0
         3 000125   777777 660003                    ERX0    -1,DU
         3 000126   000046 235000 0                  LDA     LL_MEBUF+27
         3 000127   000022 771000                    ARL     18
         3 000130   040045 100400                    MLR     fill='040'O
         3 000131   000012 000013 2                  ADSC9   10                       cn=0,n=11
         3 000132   000022 600010 0                  ADSC9   LL_MEBUF+7,A             cn=3,n=*X0
         3 000133   000046 236000 0                  LDQ     LL_MEBUF+27
         3 000134   000022 772000                    QRL     18
         3 000135   000102 116007                    CMPQ    66,DL
         3 000136   000147 603000 3                  TRC     s:717+37
         3 000137   000000 635011                    EAA     0,X1
         3 000140   000020 771000                    ARL     16
         3 000141   777675 620006                    EAX0    -67,QL
         3 000142   777777 660003                    ERX0    -1,DU
         3 000143   000000 471400 xsym               LDP1    LL_OF$
         3 000144   040046 100505                    MLR     fill='040'O
         3 000145   100000 000062                    ADSC9   0,A,PR1                  cn=0,n=50
         3 000146   000025 400010 0                  ADSC9   LL_MEBUF+10,Q            cn=2,n=*X0
         3 000147   000153 710000 3                  TRA     s:725

       47      718    2              'A  ...Writing program text for ',
       48      719    2              LL_OU_PTR$ -> OU_ENTRY.OUNAME.TEXT,
       49      720    2              ' from file ',
       50      721    2              LL_OF$->OU_FID.NAME(LL_OU_PTR$->OU_ENTRY.OF));
       51      722    2       CASE (LL#MAPPING);

       52      723    2           LL_MEBUF = 'A  ...Mapping run unit';

PL6.E3A0      #001=LLJ$BREAK File=LLJ$BREAK.:E05TSI                              WED 07/30/97 03:15 Page:11
    723  3 000150   040000 100400                    MLR     fill='040'O
         3 000151   000033 000026 2                  ADSC9   27                       cn=0,n=22
         3 000152   000013 000154 0                  ADSC9   LL_MEBUF                 cn=0,n=108

       53      724    2           END;

       54      725    1       CALL LLM$MON_SVC ( LL#WRITEME );

    725  3 000153   000001 630400 4                  EPPR0   1
         3 000154   000017 631400 xsym               EPPR1   B_VECTNIL+15
         3 000155   000000 701000 xent               TSX1    LLM$MON_SVC
         3 000156   000000 011000                    NOP     0

       55      726    1       BREAK# = '0'B;

    726  3 000157   000012 450000 0                  STZ     BREAK#

       56      727    1       CALL M$TRTN;

    727  3 000160   010012 713400                    CLIMB   4106
         3 000161   000000 401760                    pmme    nvectors=0

       57      728    1   END LLJ$BREAK;

    728  3 000162   000000 702200 xent               TSX2  ! X66_ASRET

PL6.E3A0      #001=LLJ$BREAK File=LLJ$BREAK.:E05TSI                              WED 07/30/97 03:15 Page:12
--  Include file information  --

   LL_MACS_C.:E05TOU  is referenced.
   LL_SUBS_C.:E05TOU  is referenced.
   LL_DATA_R.:E05TOU  cannot be made into a system file and is referenced.
   CP_6.:E05TOU  cannot be made into a system file and is referenced.
   B$JIT_C.:E05TOU  was found in the system file and is never referenced.
   CP_6_C.:E05TOU  was found in the system file and is referenced.
      No diagnostics issued in procedure LLJ$BREAK.
PL6.E3A0      #001=LLJ$BREAK File=LLJ$BREAK.:E05TSI                              WED 07/30/97 03:15 Page:13

 **** Variables and constants ****

  ****  Section 000  Data  LLJ$BREAK

  ****  Scalars and arrays  ****
OctLoc.c.b A Datatyp(siz) R M Lvl/name                 OctLoc.c.b A Datatyp(siz) R M Lvl/name

    12-0-0/b BIT         r     1 BREAK#                    13-0-0/w CHAR(108)   r     1 LL_MEBUF
     2-0-0/d STRC(288)   r     1 RST_BRK

  ****  SYMREF variables  ****

  ****  Scalars and arrays  ****
OctLoc.c.b A Datatyp(siz) R M Lvl/name                 OctLoc.c.b A Datatyp(siz) R M Lvl/name

     0-0-0/w PTR         r     1 LL_OF$                     0-0-0/w PTR         r     1 LL_OU_PTR$
     0-0-0/w UBIN        r     1 LL_STATE

  ****  BASED and DCB variables  ****

  ****  Scalars and arrays  ****
OctLoc.c.b A Datatyp(siz) R M Lvl/name                 OctLoc.c.b A Datatyp(siz) R M Lvl/name

     0-0-0N  NULL        r     1 M$UC                       0-0-0/w ASTR(504)   r     1 OU_ENTRY
     0-0-0/w STRC(504)   r     1 OU_FID(0:0)


   Procedure LLJ$BREAK requires 115 words for executable code.
   Procedure LLJ$BREAK is declared NOAUTO and requires 40 words of local(STATIC) storage.

    No errors detected in file LLJ$BREAK.:E05TSI    .
PL6.E3A0      #001=LLJ$BREAK File=LLJ$BREAK.:E05TSI                              WED 07/30/97 03:15 Page:14
          *** CROSS REFERENCE LISTING ***
**     DENOTES     IDENTIFIER DEFINITION
<<                 IDENTIFIER'S VALUE SET
>>                 IDENTIFIER'S VALUE USED
<>                 IDENTIFIER SET AND/OR USED
--                 IDENTIFIER REFERENCED
PL6.E3A0      #001=LLJ$BREAK File=LLJ$BREAK.:E05TSI                              WED 07/30/97 03:15 Page:15
          MINI XREF LISTING

BREAK#
       698**DCL       703>>IF        704<<ASSIGN    726<<ASSIGN
LLM$MON_SVC
       616**DCL-ENT   725--CALL
LL_MEBUF
       699**DCL       707<<ASSIGN    709<<CALLBLT   715<<ASSIGN    717<<CALLBLT   723<<ASSIGN
LL_OF$
       105**DCL       695--IMP-PTR   709>>CALLBLT   717>>CALLBLT
LL_OU_PTR$
       116**DCL       709>>CALLBLT   709>>CALLBLT   709>>CALLBLT   717>>CALLBLT   717>>CALLBLT   717>>CALLBLT
LL_STATE
       113**DCL       705>>DOCASE
M$TRMPRG
        50**DCL-ENT   702--CALL
M$TRTN
        83**DCL-ENT   703--CALL      727--CALL
OU_ENTRY.OF
       662**DCL       709>>CALLBLT   717>>CALLBLT
OU_ENTRY.OUNAME.SIZE
       690**DCL       692--IMP-SIZ   709>>CALLBLT   717>>CALLBLT
OU_ENTRY.OUNAME.TEXT
       692**DCL       709>>CALLBLT   717>>CALLBLT
OU_FID.NAME
       696**DCL       709>>CALLBLT   717>>CALLBLT
RST_BRK
       634**DCL       702<>CALL
RST_BRK.V
       641**DCL       636--DCLINIT
RST_BRK.V.CTLFLG.RSTBRK#
       642**DCL       643--REDEF
