VERSION E05

PL6.E3A0      #001=LLP$PRE_PROCESS File=LLP$PRE_PROCESS.:E05TSI                  WED 07/30/97 03:16 Page:1
        1        1        /*M*  LLP$PRE_PROCESS -  Processes comand variables        */
        2        2        /*T***********************************************************/
        3        3        /*T*                                                         */
        4        4        /*T* Copyright (c) Bull HN Information Systems Inc., 1997    */
        5        5        /*T*                                                         */
        6        6        /*T***********************************************************/
        7        7        /*X* PLM=4,STI=0,IND=4,CTI=3,DCI=4,ECI=4,CSI=0,THI=0,DTI=0,ENI=4,
        8        8             CLM=0,SQB,NTB,MOC,CCI=3,NLB,MCL=0,EDMC*/
        9        9        /*F*  NAME:        LLP$PRE_PROCESS
       10       10              PURPOSE:     Process comand variables.
       11       11              DESCRIPTION: LLP$PRE_PROCESS primary function is to evaluate
       12       12                           command variables given:
       13       13                               CHARS - Contains the text to be processed.
       14       14                               STR_SIZE - Is the string size of the string
       15       15                                          to be evaluated. At procedure exit,
       16       16                                          this variable contains the new size
       17       17                                          of the string.
       18       18                            If X$PRE_PROCESS altreturns, LLP$PRE_PROCESS will
       19       19                            altreturn too.                                  */
       20       20
       21       21
       22       22        LLP$PRE_PROCESS: PROC (CHARS, STR_SIZE) ALTRET;
       23       23
       24       24         /* Include Files */
       25       25
       26       26            % INCLUDE XUE_MACRO_C;
       27      770            % INCLUDE XUE_SUBS_C;
       28      950            % INCLUDE XU_MACRO_C;
       29     4056            % INCLUDE LL_SUBS_C;
       30     4185
       31     4186         /* Macro Invocations */
       32     4187
       33     4188            % XUE_ENTRIES;
       34     4212            % XUE_PPCB (NAME = XUE_PPCB, STCLASS = AUTO);
       35     4479            % XUE_PPCB (NAME = CXUE_PPCB, STCLASS = CONSTANT);
       36     4746
       37     4747         /*  Paramenters */
PL6.E3A0      #001=LLP$PRE_PROCESS File=LLP$PRE_PROCESS.:E05TSI                  WED 07/30/97 03:16 Page:2
       38     4748
       39     4749    1   DCL CHARS CHAR(STR_SIZE) CALIGNED;
       40     4750    1   DCL STR_SIZE UBIN; /* Size of string before and after pre_process */
       41     4751
       42     4752         /*  Internal Declarations */
       43     4753
       44     4754    1   DCL XUR$ERRMSG ENTRY (7) ALTRET;
       45     4755    1   DCL XUE_PREEXP UBIN SYMREF;
       46     4756    1   DCL WSPACE (0:1023) UBIN;
       47     4757    1   DCL I SBIN;
       48     4758    1   DCL J SBIN;
       49     4759
       50     4760    1   START:
       51     4761
       52     4762    1       J = -1;
       53     4763    2   TRY_CMNT: CALL INDEX (I,';',CHARS,J+1) WHENRETURN DO;
       54     4764    2   END_CMNT: CALL INDEX (J,'"',SUBSTR(CHARS,0,I),J+1) ALTRET (CONTINUED);
       55     4765    2           CALL INDEX (J,'"',SUBSTR(CHARS,0,I),J+1) ALTRET (END_CMNT);
       56     4766    2           GOTO TRY_CMNT;
       57     4767    2   CONTINUED: CALL INDEX (J,'"',CHARS,I);
       58     4768    2           IF SUBSTR(CHARS,I,J-I) = ';' THEN STR_SIZE = I+1;
       59     4769    2           END;
       60     4770
       61     4771    2       CALL INDEX (I,'%',CHARS) WHENRETURN DO;
       62     4772    2           XUE_PPCB = CXUE_PPCB;
       63     4773    2           XUE_PPCB.INBUF$ = ADDR(CHARS);
       64     4774    2           XUE_PPCB.OUTBUF$ = ADDR(CHARS);
       65     4775    2           XUE_PPCB.ICHARS# = STR_SIZE;
       66     4776    2           XUE_PPCB.OCHARS# = 1024;
       67     4777    2           XUE_PPCB.ROOT$ = ADDR (XUE_PREEXP);
       68     4778    2           XUE_PPCB.ECB.WORK$ = ADDR (WSPACE);
       69     4779    2           XUE_PPCB.ECB.WKSZ# = SIZEW (WSPACE);
       70     4780
       71     4781    3           CALL X$PRE_PROCESS (XUE_PPCB) WHENALTRETURN DO;
       72     4782    3               CALL XUR$ERRMSG (XUE_PPCB.ECB.ERR);
       73     4783    3               ALTRETURN;
       74     4784    3               END;
PL6.E3A0      #001=LLP$PRE_PROCESS File=LLP$PRE_PROCESS.:E05TSI                  WED 07/30/97 03:16 Page:3
       75     4785
       76     4786    2           STR_SIZE = XUE_PPCB.RCHARS#;
       77     4787    2           END;
       78     4788
       79     4789    1   END LLP$PRE_PROCESS;

PL6.E3A0      #001=LLP$PRE_PROCESS File=LLP$PRE_PROCESS.:E05TSI                  WED 07/30/97 03:16 Page:4
--  Include file information  --

   LL_SUBS_C.:E05TOU  is referenced.
   XU_MACRO_C.:E05TOU  is referenced.
   XUE_SUBS_C.:E05TOU  is referenced.
   XUE_MACRO_C.:E05TOU  is referenced.
      No diagnostics issued in procedure LLP$PRE_PROCESS.

   Procedure LLP$PRE_PROCESS requires 114 words for executable code.
   Procedure LLP$PRE_PROCESS requires 1068 words of local(AUTO) storage.

    No errors detected in file LLP$PRE_PROCESS.:E05TSI    .

PL6.E3A0      #001=LLP$PRE_PROCESS File=LLP$PRE_PROCESS.:E05TSI                  WED 07/30/97 03:16 Page:5

 Object Unit name= LLP$PRE_PROCESS                            File name= LLP$PRE_PROCESS.:E05TOU
 UTS= JUL 30 '97 03:16:26.60 WED                              Compiler= PL-6/E31         Sev=      00
 SharedLib= :SHARED_SYSTEM                                    Alt SharedLib=


    ****  Control sections  ****

 Sect   Type Bound  Init  Size OctSiz  Section name(segment info)
    0  RoData even  UTS     34     42  LLP$PRE_PROCESS
    1   Proc  even  none   114    162  LLP$PRE_PROCESS
    2  RoData even  none     4      4  LLP$PRE_PROCESS

    ****  Entry defs  ****

                              Check   Calling
                             calling  sequence
  Sect OctLoc Primary Altret sequence   type   Parms  Name
     1      0   yes    yes     yes      Std        2  LLP$PRE_PROCESS

  ****  Entry refs  ****

         Check        Calling
        calling       sequence
Altret sequence SRef   type   Args  Name
 yes     yes           Std       1 X$PRE_PROCESS
 yes     yes           Std       7 XUR$ERRMSG
                       nStd      0 X66_AUTO_2
                       Std       0 B_CONSPOOL_D
                       nStd      0 X66_AALT
                       nStd      0 X66_ARET

  ****  Data refs  ****

  Flags:  r = read only, s = secondary
Flgs Name                             Flgs Name                             Flgs Name
     XUE_PREEXP                            B_VECTNIL
PL6.E3A0      #001=LLP$PRE_PROCESS File=LLP$PRE_PROCESS.:E05TSI                  WED 07/30/97 03:16 Page:6

  ****  Segment refs  ****

  Flags:  r = read only, s = secondary
Flgs Name                             Flgs Name                             Flgs Name
     NULLSID                               ISSID
PL6.E3A0      #001=LLP$PRE_PROCESS File=LLP$PRE_PROCESS.:E05TSI                  WED 07/30/97 03:16 Page:7


        1        1        /*M*  LLP$PRE_PROCESS -  Processes comand variables        */
        2        2        /*T***********************************************************/
        3        3        /*T*                                                         */
        4        4        /*T* Copyright (c) Bull HN Information Systems Inc., 1997    */
        5        5        /*T*                                                         */
        6        6        /*T***********************************************************/
        7        7        /*X* PLM=4,STI=0,IND=4,CTI=3,DCI=4,ECI=4,CSI=0,THI=0,DTI=0,ENI=4,
        8        8             CLM=0,SQB,NTB,MOC,CCI=3,NLB,MCL=0,EDMC*/
        9        9        /*F*  NAME:        LLP$PRE_PROCESS
       10       10              PURPOSE:     Process comand variables.
       11       11              DESCRIPTION: LLP$PRE_PROCESS primary function is to evaluate
       12       12                           command variables given:
       13       13                               CHARS - Contains the text to be processed.
       14       14                               STR_SIZE - Is the string size of the string
       15       15                                          to be evaluated. At procedure exit,
       16       16                                          this variable contains the new size
       17       17                                          of the string.
       18       18                            If X$PRE_PROCESS altreturns, LLP$PRE_PROCESS will
       19       19                            altreturn too.                                  */
       20       20
       21       21
       22       22        LLP$PRE_PROCESS: PROC (CHARS, STR_SIZE) ALTRET;

     22  1 000000   000000 700200 xent  LLP$PRE_PRO* TSX0  ! X66_AUTO_2
         1 000001   002054 000002                    ZERO    1068,2

       23       23
       24       24         /* Include Files */
       25       25
       26       26            % INCLUDE XUE_MACRO_C;
       27      770            % INCLUDE XUE_SUBS_C;
       28      950            % INCLUDE XU_MACRO_C;
       29     4056            % INCLUDE LL_SUBS_C;
       30     4185
       31     4186         /* Macro Invocations */
       32     4187
PL6.E3A0      #001=LLP$PRE_PROCESS File=LLP$PRE_PROCESS.:E05TSI                  WED 07/30/97 03:16 Page:8
       33     4188            % XUE_ENTRIES;
       34     4212            % XUE_PPCB (NAME = XUE_PPCB, STCLASS = AUTO);
       35     4479            % XUE_PPCB (NAME = CXUE_PPCB, STCLASS = CONSTANT);
       36     4746
       37     4747         /*  Paramenters */
       38     4748
       39     4749    1   DCL CHARS CHAR(STR_SIZE) CALIGNED;
       40     4750    1   DCL STR_SIZE UBIN; /* Size of string before and after pre_process */
       41     4751
       42     4752         /*  Internal Declarations */
       43     4753
       44     4754    1   DCL XUR$ERRMSG ENTRY (7) ALTRET;
       45     4755    1   DCL XUE_PREEXP UBIN SYMREF;
       46     4756    1   DCL WSPACE (0:1023) UBIN;
       47     4757    1   DCL I SBIN;
       48     4758    1   DCL J SBIN;
       49     4759
       50     4760    1   START:
       51     4761
       52     4762    1       J = -1;

   4762  1 000002   000001 335007       START        LCA     1,DL
         1 000003   202051 755100                    STA     J,,AUTO

       53     4763    2   TRY_CMNT: CALL INDEX (I,';',CHARS,J+1) WHENRETURN DO;

   4763  1 000004   200004 470500       TRY_CMNT     LDP0    @STR_SIZE,,AUTO
         1 000005   000000 720100                    LXL0    0,,PR0
         1 000006   000000 636010                    EAQ     0,X0
         1 000007   000022 772000                    QRL     18
         1 000010   202051 136100                    SBLQ    J,,AUTO
         1 000011   777777 621006                    EAX1    -1,QL
         1 000012   202051 236100                    LDQ     J,,AUTO
         1 000013   000001 036007                    ADLQ    1,DL
         1 000014   200003 471500                    LDP1    @CHARS,,AUTO
         1 000015   202051 235100                    LDA     J,,AUTO
         1 000016   000000 124545                    SCM     mask='000'O
PL6.E3A0      #001=LLP$PRE_PROCESS File=LLP$PRE_PROCESS.:E05TSI                  WED 07/30/97 03:16 Page:9
         1 000017   100000 200011                    ADSC9   0,A,PR1                  cn=1,n=*X1
         1 000020   000000 000001 2                  ADSC9   0                        cn=0,n=1
         1 000021   202050 000100                    ARG     I,,AUTO
         1 000022   202050 056100                    ASQ     I,,AUTO
         1 000023   000111 606400 1                  TTN     s:4771

       54     4764    2   END_CMNT: CALL INDEX (J,'"',SUBSTR(CHARS,0,I),J+1) ALTRET (CONTINUED);

   4764  1 000024   200004 470500       END_CMNT     LDP0    @STR_SIZE,,AUTO
         1 000025   000000 720100                    LXL0    0,,PR0
         1 000026   202050 236100                    LDQ     I,,AUTO
         1 000027   202051 136100                    SBLQ    J,,AUTO
         1 000030   777777 621006                    EAX1    -1,QL
         1 000031   202051 236100                    LDQ     J,,AUTO
         1 000032   000001 036007                    ADLQ    1,DL
         1 000033   200003 471500                    LDP1    @CHARS,,AUTO
         1 000034   202051 235100                    LDA     J,,AUTO
         1 000035   000000 124545                    SCM     mask='000'O
         1 000036   100000 200011                    ADSC9   0,A,PR1                  cn=1,n=*X1
         1 000037   000001 000001 2                  ADSC9   1                        cn=0,n=1
         1 000040   202051 000100                    ARG     J,,AUTO
         1 000041   202051 056100                    ASQ     J,,AUTO
         1 000042   000060 606400 1                  TTN     CONTINUED

       55     4765    2           CALL INDEX (J,'"',SUBSTR(CHARS,0,I),J+1) ALTRET (END_CMNT);

   4765  1 000043   202050 236100                    LDQ     I,,AUTO
         1 000044   202051 136100                    SBLQ    J,,AUTO
         1 000045   777777 621006                    EAX1    -1,QL
         1 000046   202051 236100                    LDQ     J,,AUTO
         1 000047   000001 036007                    ADLQ    1,DL
         1 000050   202051 235100                    LDA     J,,AUTO
         1 000051   000000 124545                    SCM     mask='000'O
         1 000052   100000 200011                    ADSC9   0,A,PR1                  cn=1,n=*X1
         1 000053   000001 000001 2                  ADSC9   1                        cn=0,n=1
         1 000054   202051 000100                    ARG     J,,AUTO
         1 000055   202051 056100                    ASQ     J,,AUTO
PL6.E3A0      #001=LLP$PRE_PROCESS File=LLP$PRE_PROCESS.:E05TSI                  WED 07/30/97 03:16 Page:10
         1 000056   000024 606400 1                  TTN     END_CMNT

       56     4766    2           GOTO TRY_CMNT;

   4766  1 000057   000004 710000 1                  TRA     TRY_CMNT

       57     4767    2   CONTINUED: CALL INDEX (J,'"',CHARS,I);

   4767  1 000060   200004 470500       CONTINUED    LDP0    @STR_SIZE,,AUTO
         1 000061   000000 720100                    LXL0    0,,PR0
         1 000062   000000 636010                    EAQ     0,X0
         1 000063   000022 772000                    QRL     18
         1 000064   202050 136100                    SBLQ    I,,AUTO
         1 000065   202052 756100                    STQ     J+1,,AUTO
         1 000066   202050 236100                    LDQ     I,,AUTO
         1 000067   200003 471500                    LDP1    @CHARS,,AUTO
         1 000070   202052 720100                    LXL0    J+1,,AUTO
         1 000071   202050 235100                    LDA     I,,AUTO
         1 000072   000000 124545                    SCM     mask='000'O
         1 000073   100000 000010                    ADSC9   0,A,PR1                  cn=0,n=*X0
         1 000074   000001 000001 2                  ADSC9   1                        cn=0,n=1
         1 000075   202051 000100                    ARG     J,,AUTO
         1 000076   202051 056100                    ASQ     J,,AUTO

       58     4768    2           IF SUBSTR(CHARS,I,J-I) = ';' THEN STR_SIZE = I+1;

   4768  1 000077   000000 720100                    LXL0    0,,PR0
         1 000100   202051 236100                    LDQ     J,,AUTO
         1 000101   202050 136100                    SBLQ    I,,AUTO
         1 000102   000000 621006                    EAX1    0,QL
         1 000103   040000 106545                    CMPC    fill='040'O
         1 000104   100000 000011                    ADSC9   0,A,PR1                  cn=0,n=*X1
         1 000105   000000 000001 2                  ADSC9   0                        cn=0,n=1
         1 000106   000111 601000 1                  TNZ     s:4771

   4768  1 000107   000001 035007                    ADLA    1,DL
         1 000110   000000 755100                    STA     0,,PR0
PL6.E3A0      #001=LLP$PRE_PROCESS File=LLP$PRE_PROCESS.:E05TSI                  WED 07/30/97 03:16 Page:11

       59     4769    2           END;

       60     4770
       61     4771    2       CALL INDEX (I,'%',CHARS) WHENRETURN DO;

   4771  1 000111   200004 470500                    LDP0    @STR_SIZE,,AUTO
         1 000112   000000 720100                    LXL0    0,,PR0
         1 000113   200003 471500                    LDP1    @CHARS,,AUTO
         1 000114   000000 124540                    SCM     mask='000'O
         1 000115   100000 000010                    ADSC9   0,,PR1                   cn=0,n=*X0
         1 000116   000002 000001 2                  ADSC9   2                        cn=0,n=1
         1 000117   202050 000100                    ARG     I,,AUTO
         1 000120   000161 606400 1                  TTN     s:4789

       62     4772    2           XUE_PPCB = CXUE_PPCB;

   4772  1 000121   000100 100400                    MLR     fill='000'O
         1 000122   000000 000210 0                  ADSC9   CXUE_PPCB                cn=0,n=136
         1 000123   200006 000210                    ADSC9   XUE_PPCB,,AUTO           cn=0,n=136

       63     4773    2           XUE_PPCB.INBUF$ = ADDR(CHARS);

   4773  1 000124   200003 236100                    LDQ     @CHARS,,AUTO
         1 000125   200006 756100                    STQ     XUE_PPCB,,AUTO

       64     4774    2           XUE_PPCB.OUTBUF$ = ADDR(CHARS);

   4774  1 000126   200010 756100                    STQ     XUE_PPCB+2,,AUTO

       65     4775    2           XUE_PPCB.ICHARS# = STR_SIZE;

   4775  1 000127   000000 235100                    LDA     0,,PR0
         1 000130   200007 755100                    STA     XUE_PPCB+1,,AUTO

       66     4776    2           XUE_PPCB.OCHARS# = 1024;

PL6.E3A0      #001=LLP$PRE_PROCESS File=LLP$PRE_PROCESS.:E05TSI                  WED 07/30/97 03:16 Page:12
   4776  1 000131   002000 235007                    LDA     1024,DL
         1 000132   200011 755100                    STA     XUE_PPCB+3,,AUTO

       67     4777    2           XUE_PPCB.ROOT$ = ADDR (XUE_PREEXP);

   4777  1 000133   000003 236000 2                  LDQ     3
         1 000134   200013 756100                    STQ     XUE_PPCB+5,,AUTO

       68     4778    2           XUE_PPCB.ECB.WORK$ = ADDR (WSPACE);

   4778  1 000135   200050 633500                    EPPR3   WSPACE,,AUTO
         1 000136   200015 453500                    STP3    XUE_PPCB+7,,AUTO

       69     4779    2           XUE_PPCB.ECB.WKSZ# = SIZEW (WSPACE);

   4779  1 000137   200016 755100                    STA     XUE_PPCB+8,,AUTO

       70     4780
       71     4781    3           CALL X$PRE_PROCESS (XUE_PPCB) WHENALTRETURN DO;

   4781  1 000140   200006 634500                    EPPR4   XUE_PPCB,,AUTO
         1 000141   202052 454500                    STP4    J+1,,AUTO
         1 000142   202052 630500                    EPPR0   J+1,,AUTO
         1 000143   000017 631400 xsym               EPPR1   B_VECTNIL+15
         1 000144   000000 701000 xent               TSX1    X$PRE_PROCESS
         1 000145   000147 702000 1                  TSX2    s:4782
         1 000146   000156 710000 1                  TRA     s:4786

       72     4782    3               CALL XUR$ERRMSG (XUE_PPCB.ECB.ERR);

   4782  1 000147   200025 630500                    EPPR0   XUE_PPCB+15,,AUTO
         1 000150   202052 450500                    STP0    J+1,,AUTO
         1 000151   202052 630500                    EPPR0   J+1,,AUTO
         1 000152   000017 631400 xsym               EPPR1   B_VECTNIL+15
         1 000153   000000 701000 xent               TSX1    XUR$ERRMSG
         1 000154   000000 011000                    NOP     0

PL6.E3A0      #001=LLP$PRE_PROCESS File=LLP$PRE_PROCESS.:E05TSI                  WED 07/30/97 03:16 Page:13
       73     4783    3               ALTRETURN;

   4783  1 000155   000000 702200 xent               TSX2  ! X66_AALT

       74     4784    3               END;
       75     4785
       76     4786    2           STR_SIZE = XUE_PPCB.RCHARS#;

   4786  1 000156   200004 470500                    LDP0    @STR_SIZE,,AUTO
         1 000157   200012 235100                    LDA     XUE_PPCB+4,,AUTO
         1 000160   000000 755100                    STA     0,,PR0

       77     4787    2           END;

       78     4788
       79     4789    1   END LLP$PRE_PROCESS;

   4789  1 000161   000000 702200 xent               TSX2  ! X66_ARET

PL6.E3A0      #001=LLP$PRE_PROCESS File=LLP$PRE_PROCESS.:E05TSI                  WED 07/30/97 03:16 Page:14
--  Include file information  --

   LL_SUBS_C.:E05TOU  is referenced.
   XU_MACRO_C.:E05TOU  is referenced.
   XUE_SUBS_C.:E05TOU  is referenced.
   XUE_MACRO_C.:E05TOU  is referenced.
      No diagnostics issued in procedure LLP$PRE_PROCESS.
PL6.E3A0      #001=LLP$PRE_PROCESS File=LLP$PRE_PROCESS.:E05TSI                  WED 07/30/97 03:16 Page:15

 **** Variables and constants ****

  ****  Section 000 RoData LLP$PRE_PROCESS

  ****  Scalars and arrays  ****
OctLoc.c.b A Datatyp(siz) R M Lvl/name                 OctLoc.c.b A Datatyp(siz) R M Lvl/name

     0-0-0/d STRC(1224)  r     1 CXUE_PPCB

  ****  Auto variables  ****

  ****  Scalars and arrays  ****
OctLoc.c.b A Datatyp(siz) R M Lvl/name                 OctLoc.c.b A Datatyp(siz) R M Lvl/name

     3-0-0/w PTR         r     1 @CHARS                     4-0-0/w PTR         r     1 @STR_SIZE
    *0-0-0/c ACHR        r     1 CHARS                   2050-0-0/w SBIN        r     1 I
  2051-0-0/w SBIN        r     1 J                         *0-0-0/w UBIN        r     1 STR_SIZE
    50-0-0/w UBIN        r     1 WSPACE(0:1023)             6-0-0/d STRC(1224)  r     1 XUE_PPCB

  ****  SYMREF variables  ****

  ****  Scalars and arrays  ****
OctLoc.c.b A Datatyp(siz) R M Lvl/name                 OctLoc.c.b A Datatyp(siz) R M Lvl/name

     0-0-0/w UBIN        r     1 XUE_PREEXP


   Procedure LLP$PRE_PROCESS requires 114 words for executable code.
   Procedure LLP$PRE_PROCESS requires 1068 words of local(AUTO) storage.

    No errors detected in file LLP$PRE_PROCESS.:E05TSI    .
PL6.E3A0      #001=LLP$PRE_PROCESS File=LLP$PRE_PROCESS.:E05TSI                  WED 07/30/97 03:16 Page:16
          *** CROSS REFERENCE LISTING ***
**     DENOTES     IDENTIFIER DEFINITION
<<                 IDENTIFIER'S VALUE SET
>>                 IDENTIFIER'S VALUE USED
<>                 IDENTIFIER SET AND/OR USED
--                 IDENTIFIER REFERENCED
PL6.E3A0      #001=LLP$PRE_PROCESS File=LLP$PRE_PROCESS.:E05TSI                  WED 07/30/97 03:16 Page:17
          MINI XREF LISTING

CHARS
      4749**DCL        22--PROC     4763>>CALLBLT  4764>>CALLBLT  4765>>CALLBLT  4767>>CALLBLT  4768>>IF
      4771>>CALLBLT  4773--ASSIGN   4774--ASSIGN
CONTINUED
      4767**LABEL    4764--CALLALT
CXUE_PPCB
      4494**DCL      4772>>ASSIGN
END_CMNT
      4764**LABEL    4765--CALLALT
I
      4757**DCL      4763<<CALLBLT  4764>>CALLBLT  4765>>CALLBLT  4767>>CALLBLT  4768>>IF       4768>>IF
      4768>>ASSIGN   4771<<CALLBLT
J
      4758**DCL      4762<<ASSIGN   4763>>CALLBLT  4764<<CALLBLT  4764>>CALLBLT  4765<<CALLBLT  4765>>CALLBLT
      4767<<CALLBLT  4768>>IF
STR_SIZE
      4750**DCL        22--PROC     4749--IMP-SIZ  4763>>CALLBLT  4764>>CALLBLT  4765>>CALLBLT  4767>>CALLBLT
      4768>>IF       4768<<ASSIGN   4771>>CALLBLT  4775>>ASSIGN   4786<<ASSIGN
TRY_CMNT
      4763**LABEL    4766--GOTO
WSPACE
      4756**DCL      4778--ASSIGN   4779--ASSIGN
X$PRE_PROCESS
      4206**DCL-ENT  4781--CALL
XUE_PPCB
      4227**DCL      4772<<ASSIGN   4781<>CALL
XUE_PPCB.ECB.ERR
      4374**DCL      4782<>CALL
XUE_PPCB.ECB.WKSZ#
      4305**DCL      4779<<ASSIGN
XUE_PPCB.ECB.WORK$
      4300**DCL      4778<<ASSIGN
PL6.E3A0      #001=LLP$PRE_PROCESS File=LLP$PRE_PROCESS.:E05TSI                  WED 07/30/97 03:16 Page:18
XUE_PPCB.ICHARS#
      4236**DCL      4775<<ASSIGN
XUE_PPCB.INBUF$
      4231**DCL      4773<<ASSIGN
XUE_PPCB.OCHARS#
      4250**DCL      4776<<ASSIGN
XUE_PPCB.OUTBUF$
      4243**DCL      4774<<ASSIGN
XUE_PPCB.RCHARS#
      4257**DCL      4786>>ASSIGN
XUE_PPCB.ROOT$
      4264**DCL      4777<<ASSIGN
XUE_PREEXP
      4755**DCL      4777--ASSIGN
XUR$ERRMSG
      4754**DCL-ENT  4782--CALL
