VERSION E05

PL6.E3A0      #001=LLP$PUTLO File=LLP$PUTLO.:E05TSI                              WED 07/30/97 03:16 Page:1
        1        1        /*M* LLP$PUTLO - DEF buster for the map routines                    */
        2        2        /*T***********************************************************/
        3        3        /*T*                                                         */
        4        4        /*T* Copyright (c) Bull HN Information Systems Inc., 1997    */
        5        5        /*T*                                                         */
        6        6        /*T***********************************************************/
        7        7        /*X* PLM=4,STI=0,IND=4,CTI=3,DCI=4,ECI=4,CSI=0,THI=0,DTI=0,ENI=4,
        8        8             CLM=0,SQB,NTB,MOC,CCI=3,NLB,MCL=0,EDMC*/
        9        9        /*F* NAME:         LLP$PUTLO
       10       10             PURPOSE:      Provides a common routine through which ENTDEFs
       11       11                           and SYMDEFs may be formatted.  When this routine
       12       12                           is called, DEF$ points to the DEF table, NORV
       13       13                           is set to indicate whether the title says NAME or
       14       14                           VALUE, NUM is number of DEFs, NAME$ is a ptr to
       15       15                           text names and TYPE is set to indicate DEF type  */
       16       16        LLP$PUTLO: PROC (DEF$, NORV, NUM, NAME$, TYPE);
       17       17    1   DCL DEF$ PTR; /* Pointer to definition entries */
       18       18    1   DCL NORV UBIN WORD ALIGNED; /* Name or value flag */
       19       19    1   DCL NUM UBIN WORD ALIGNED; /* Number of defs */
       20       20    1   DCL NAME$ PTR; /* Pointer to names tables */
       21       21    1   DCL TYPE UBIN WORD ALIGNED; /* Definition type */
       22       22    1   DCL 1 BUFFER STATIC ALIGNED,
       23       23    1         2 VFC_CHAR CHAR(1) UNAL,
       24       24    1         2 ENTRIES(0:2) UNAL,
       25       25    1           3 * CHAR(5) UNAL,
       26       26    1           3 ADRS CHAR(7) UNAL,
       27       27    1           3 * CHAR(1) UNAL,
       28       28    1           3 CONST CHAR(1) UNAL,
       29       29    1           3 UNUSED CHAR(1) UNAL,
       30       30    1           3 MULTDEF CHAR(1) UNAL,
       31       31    1           3 SOURCE CHAR(1) UNAL,
       32       32    1           3 FILLER CHAR(1) UNAL,
       33       33    1           3 NAME CHAR(15) UNAL,
       34       34    1           3 TRUNC CHAR(1) UNAL;
       35       35    1   DCL BUF REDEF BUFFER CHAR(103) ALIGNED;
       36       36    1   DCL WID UBIN WORD ALIGNED;
       37       37    1   DCL COLS UBIN WORD ALIGNED;
PL6.E3A0      #001=LLP$PUTLO File=LLP$PUTLO.:E05TSI                              WED 07/30/97 03:16 Page:2
       38       38    1   DCL I UBIN WORD ALIGNED;
       39       39    1   DCL J UBIN WORD ALIGNED;
       40       40    1   DCL K UBIN WORD ALIGNED;
       41       41    1   DCL L UBIN WORD ALIGNED;
       42       42    1   DCL TEMP UBIN WORD ALIGNED;
       43       43    1   DCL NPTR UBIN WORD ALIGNED;
       44       44    1   DCL OPTR UBIN WORD ALIGNED;
       45       45    1   DCL CARRIAGE UBIN WORD ALIGNED;
       46       46    1   DCL LLI$BINHEX ENTRY(3);
       47       47    1   DCL LLM$MON_SVC ENTRY(4) ALTRET;
       48       48    1   DCL TPTR1$ PTR;
       49       49    1   DCL TPTR2$ PTR;
       50       50    1   DCL STR7 CHAR(7) UNAL;
       51       51    1   DCL SOURCE_ARY(0:6) CHAR(1) STATIC UNAL INIT (' ','S','A','P','R','-','L');
       52       52    1   DCL SWITCH BIT(1) UNAL;
       53       53        %INCLUDE LL_MACS_C;
       54      407        %INCLUDE LL_DATA_R;
       55      443        %INCLUDE LL_SUBS_C;
       56      572        %INCLUDE B$OBJECT_C;
       57     4002        %B$DNAME;
       58     4021        %B$EDEF ( NAME = LL_ENTDEF );
       59     4091        %B$SDEF ( NAME = LL_SYMDEF );
       60     4145        %LL$UNSATREF ( NAME = LL_UNSATREF );
       61     4158        %B$EDEF (NAME=TEMP_EDEF, STCLASS=);
       62     4228        %B$EDEF (NAME="EDEFARY(0:0)", STCLASS="BASED(DEF$)");
       63     4298    1   DCL EDEFS CHAR(K) BASED ALIGNED;
       64     4299    1   BEGIN:
       65     4300    2       IF LL_WIDE# THEN DO;
       66     4301    2           WID = 3;
       67     4302    2           COLS = 103;
       68     4303    2           END;
       69     4304    2       ELSE DO;
       70     4305    2           WID = 2;
       71     4306    2           COLS = 72;
       72     4307    2           END;
       73     4308    2       DO CASE (TYPE-4);
       74     4309    2       CASE (0); /* Primary Entdef */
PL6.E3A0      #001=LLP$PUTLO File=LLP$PUTLO.:E05TSI                              WED 07/30/97 03:16 Page:3
       75     4310    2           LL_LOBUF = 'B******** PRIMARY ENTRY DEFINITIONS SORTED BY ';
       76     4311    2           I = 46;
       77     4312    2       CASE (1); /* Unresolved primary entrefs */
       78     4313    2           LL_LOBUF = 'B******** UNRESOLVED PRIMARY ENTRY REFERENCES ********';
       79     4314    2           I = 0;
       80     4315    2       CASE (2); /* Primary symdefs */
       81     4316    2           LL_LOBUF = 'B******** PRIMARY DATA DEFINITIONS SORTED BY ';
       82     4317    2           I = 45;
       83     4318    2       CASE (3); /* Unresolved prmary data defs */
       84     4319    2           LL_LOBUF = 'B******** UNRESOLVED PRIMARY DATA REFERENCES ********';
       85     4320    2           I = 0;
       86     4321    2       CASE (4);
       87     4322    2           LL_LOBUF = 'B******** UNRESOLVED SECONDARY DATA REFERENCES ********';
       88     4323    2           I = 0;
       89     4324    2           END;
       90     4325    2       IF (I > 0) THEN DO;
       91     4326    3           DO CASE (NORV);
       92     4327    3           CASE (0); /* Sort by name */
       93     4328    3               CALL INSERT (LL_LOBUF,I,,'NAME',' ********');
       94     4329    3           CASE (1); /* Sort by value */
       95     4330    3               CALL INSERT (LL_LOBUF,I,,'VALUE',' ********');
       96     4331    3               I = NUM-1;
       97     4332    4               IF I>0 THEN DO UNTIL I = 0;
       98     4333    4                   I = I - 1;
       99     4334    4                   TEMP_EDEF = EDEFARY(I);
      100     4335    5                   DO J = I+1 TO NUM - 1;
      101     4336    5                       IF EDEFARY.ISADDR(J) > TEMP_EDEF.ISADDR
      102     4337    5                       THEN EXIT;
      103     4338    5                       END;
      104     4339    4                   K = SIZEC(TEMP_EDEF)*(J-I-1);
      105     4340    5                   IF K > 0 THEN DO;
      106     4341    5                       ADDR(EDEFARY(I))->EDEFS = ADDR(EDEFARY(I+1))->EDEFS;
      107     4342    5                       EDEFARY(J-1) = TEMP_EDEF;
      108     4343    5                       END;
      109     4344    4                   END;
      110     4345    3   LIST:       END;
      111     4346    2           CALL LLM$MON_SVC (LL#WRITELO);
PL6.E3A0      #001=LLP$PUTLO File=LLP$PUTLO.:E05TSI                              WED 07/30/97 03:16 Page:4
      112     4347    2           END;
      113     4348    1       I = 0;
      114     4349    2       DO WHILE (I < NUM);
      115     4350    2           J = 0;
      116     4351    2           CARRIAGE = 1;
      117     4352    2           BUF = ' ';
      118     4353    3           DO WHILE ( J < WID AND I < NUM AND
      119     4354    3              CARRIAGE + 18 + PINCRW ( NAME$, PINCRW ( DEF$, I*2 )
      120     4355    3              -> LL_SYMDEF.NPOINTER ) -> B$DNAME.COUNT < COLS );
      121     4356    4               DO CASE (TYPE - 4);
      122     4357    4               CASE (0); /* Entdefs */
      123     4358    4                   TPTR1$ = PINCRW (DEF$, I * 2);
      124     4359    4                   IF (NOT (LL_FLAGS.UDEF#) AND
      125     4360    4                      NOT TPTR1$ -> LL_ENTDEF.LFLAGS.USED)
      126     4361    4                   THEN GOTO INCR_I;
      127     4362    4                   IF LL_FLAGS.BIAS_OU AND TPTR1$->LL_ENTDEF.ISADDR = 0
      128     4363    4                   THEN GOTO INCR_I;
      129     4364    4                   BUFFER.ENTRIES.CONST(J) = ' ';
      130     4365    4                   IF (NOT TPTR1$ -> LL_ENTDEF.LFLAGS.USED) THEN
      131     4366    4                       BUFFER.ENTRIES.UNUSED(J) = '*';
      132     4367    4                   IF (TPTR1$ -> LL_ENTDEF.LFLAGS.MULTIPLE) THEN
      133     4368    4                       BUFFER.ENTRIES.MULTDEF(J) = '+';
      134     4369    4                   TEMP = TPTR1$ -> LL_ENTDEF.LFLAGS.SOURCE;
      135     4370    4                   BUFFER.ENTRIES.SOURCE(J) = SOURCE_ARY(TEMP);
      136     4371    4                   TEMP = TPTR1$ -> LL_ENTDEF.ISADDR;
      137     4372    4                   CALL LLI$BINHEX (TEMP, 7, STR7);
      138     4373    4                   BUFFER.ENTRIES.ADRS(J) = STR7;
      139     4374    4                   TEMP = TPTR1$ -> LL_ENTDEF.NPOINTER;
      140     4375    4                   TPTR1$ = PINCRW (NAME$, TEMP);
      141     4376    4                   IF ( TPTR1$ -> B$DNAME.COUNT > 90 ) THEN
      142     4377    4                       TPTR1$ -> B$DNAME.COUNT = 90;
      143     4378    4                   ADDR ( BUFFER.ENTRIES.FILLER(J) ) -> B$DNAME.COUNT =
      144     4379    4                      TPTR1$ -> B$DNAME.COUNT;
      145     4380    4                   ADDR ( BUFFER.ENTRIES.FILLER(J) ) -> B$DNAME.TEXT =
      146     4381    4                      TPTR1$ -> B$DNAME.TEXT;
      147     4382    4               CASE (1,3); /* Primary entrefs and symrefs */
      148     4383    4                   TPTR1$ = PINCRW (DEF$, I);
PL6.E3A0      #001=LLP$PUTLO File=LLP$PUTLO.:E05TSI                              WED 07/30/97 03:16 Page:5
      149     4384    5                   IF (NOT TPTR1$ -> LL_UNSATREF.SREF) THEN DO;
      150     4385    5                       J = 2;
      151     4386    5                       NPTR = TPTR1$ -> LL_UNSATREF.NPOINTER;
      152     4387    5                       OPTR = TPTR2$ -> LL_UNSATREF.OPOINTER;
      153     4388    5                       TPTR1$ = PINCRW (NAME$, NPTR);
      154     4389    5                       TPTR2$ = PINCRW (NAME$, OPTR);
      155     4390    5                       CALL INSERT (BUF,5,,
      156     4391    5                          TPTR1$ -> B$DNAME.TEXT,
      157     4392    5                          ' from object unit ',
      158     4393    5                          TPTR2$ -> B$DNAME.TEXT);
      159     4394    5                       END;
      160     4395    4               CASE (2); /* Symdefs */
      161     4396    4                   TPTR1$ = PINCRW (DEF$, I * 2);
      162     4397    4                   IF (NOT (LL_FLAGS.UDEF#) AND
      163     4398    4                      NOT TPTR1$ -> LL_SYMDEF.LFLAGS.USED)
      164     4399    4                   THEN GOTO INCR_I;
      165     4400    4                   IF (TPTR1$ -> LL_SYMDEF.CONSTNT) THEN
      166     4401    4                       BUFFER.ENTRIES.CONST(J) = '=';
      167     4402    4                   IF (NOT TPTR1$ -> LL_SYMDEF.LFLAGS.USED) THEN
      168     4403    4                       BUFFER.ENTRIES.UNUSED(J) = '*';
      169     4404    4                   IF (TPTR1$ -> LL_SYMDEF.LFLAGS.MULTIPLE) THEN
      170     4405    4                       BUFFER.ENTRIES.MULTDEF(J) = '+';
      171     4406    4                   TEMP = TPTR1$ -> LL_SYMDEF.LFLAGS.SOURCE;
      172     4407    4                   BUFFER.ENTRIES.SOURCE(J) = SOURCE_ARY(TEMP);
      173     4408    4                   TEMP = TPTR1$ -> LL_SYMDEF.AD.ISADDR;
      174     4409    4                   CALL LLI$BINHEX (TEMP, 7, STR7);
      175     4410    4                   BUFFER.ENTRIES.ADRS(J) = STR7;
      176     4411    4                   TEMP = TPTR1$ -> LL_SYMDEF.NPOINTER;
      177     4412    4                   TPTR1$ = PINCRW (NAME$, TEMP);
      178     4413    4                   IF ( TPTR1$ -> B$DNAME.COUNT > 90 ) THEN
      179     4414    4                       TPTR1$ -> B$DNAME.COUNT = 90;
      180     4415    4                   ADDR ( BUFFER.ENTRIES.FILLER(J) ) -> B$DNAME.COUNT =
      181     4416    4                      TPTR1$ -> B$DNAME.COUNT;
      182     4417    4                   ADDR ( BUFFER.ENTRIES.FILLER(J) ) -> B$DNAME.TEXT =
      183     4418    4                      TPTR1$ -> B$DNAME.TEXT;
      184     4419    4               CASE (4); /* Secondary symrefs */
      185     4420    4                   TPTR1$ = PINCRW (DEF$, I);
PL6.E3A0      #001=LLP$PUTLO File=LLP$PUTLO.:E05TSI                              WED 07/30/97 03:16 Page:6
      186     4421    5                   IF (TPTR1$ -> LL_UNSATREF.SREF) THEN DO;
      187     4422    5                       NPTR = TPTR1$ -> LL_UNSATREF.NPOINTER;
      188     4423    5                       OPTR = TPTR1$ -> LL_UNSATREF.OPOINTER;
      189     4424    5                       TPTR1$ = PINCRW (NAME$, NPTR);
      190     4425    5                       TPTR2$ = PINCRW (NAME$, OPTR);
      191     4426    5                       CALL INSERT (BUF,5,,
      192     4427    5                          TPTR1$ -> B$DNAME.TEXT,
      193     4428    5                          ' from object unit ',
      194     4429    5                          TPTR2$ -> B$DNAME.TEXT);
      195     4430    5                       J = 2;
      196     4431    5                       END;
      197     4432    4                   END;
      198     4433    3               TEMP = ADDR ( BUFFER.ENTRIES.FILLER(J) ) -> B$DNAME.COUNT;
      199     4434    3               ADDR ( BUFFER.ENTRIES.FILLER(J) ) -> B$DNAME.COUNT = 32;
      200     4435    3               CARRIAGE = CARRIAGE + (( 18 + TEMP + 33 ) / 34 ) * 34;
      201     4436    3               J = CARRIAGE / 34;
      202     4437    3   INCR_I:     I = I + 1;
      203     4438    3               END;
      204     4439    2           IF (I = NUM) THEN
      205     4440    2               BUFFER.VFC_CHAR = 'C';
      206     4441    2           ELSE
      207     4442    2               BUFFER.VFC_CHAR = 'A';
      208     4443    3           IF (J > 0) THEN DO;
      209     4444    3               LL_LOBUF = BUF;
      210     4445    3               CALL LLM$MON_SVC (LL#WRITELO);
      211     4446    3               END;
      212     4447    2           END;
      213     4448    1   END LLP$PUTLO;

PL6.E3A0      #001=LLP$PUTLO File=LLP$PUTLO.:E05TSI                              WED 07/30/97 03:16 Page:7
--  Include file information  --

   B$OBJECT_C.:E05TOU  is referenced.
   LL_SUBS_C.:E05TOU  is referenced.
   LL_DATA_R.:E05TOU  cannot be made into a system file and is referenced.
   LL_MACS_C.:E05TOU  is referenced.
      No diagnostics issued in procedure LLP$PUTLO.

   Procedure LLP$PUTLO requires 523 words for executable code.
   Procedure LLP$PUTLO requires 30 words of local(AUTO) storage.

    No errors detected in file LLP$PUTLO.:E05TSI    .

PL6.E3A0      #001=LLP$PUTLO File=LLP$PUTLO.:E05TSI                              WED 07/30/97 03:16 Page:8

 Object Unit name= LLP$PUTLO                                  File name= LLP$PUTLO.:E05TOU
 UTS= JUL 30 '97 03:16:28.56 WED                              Compiler= PL-6/E31         Sev=      00
 SharedLib= :SHARED_SYSTEM                                    Alt SharedLib=


    ****  Control sections  ****

 Sect   Type Bound  Init  Size OctSiz  Section name(segment info)
    0   Data  even  none    28     34  LLP$PUTLO
    1  RoData even  UTS     74    112  LLP$PUTLO
    2   Proc  even  none   523   1013  LLP$PUTLO
    3  RoData even  none     6      6  LLP$PUTLO

    ****  Entry defs  ****

                              Check   Calling
                             calling  sequence
  Sect OctLoc Primary Altret sequence   type   Parms  Name
     2      0   yes            yes      Std        5  LLP$PUTLO

  ****  Entry refs  ****

         Check        Calling
        calling       sequence
Altret sequence SRef   type   Args  Name
 yes     yes           Std       4 LLM$MON_SVC
         yes           Std       3 LLI$BINHEX
                       nStd      0 X66_AUTO_5
                       Std       0 B_CONSPOOL_D
                       nStd      0 X66_ARET
PL6.E3A0      #001=LLP$PUTLO File=LLP$PUTLO.:E05TSI                              WED 07/30/97 03:16 Page:9

  ****  Data refs  ****

  Flags:  r = read only, s = secondary
Flgs Name                             Flgs Name                             Flgs Name
     LL_LOBUF                              LL_FLAGS                              LL_WIDE#
     B_VECTNIL

  ****  Segment refs  ****

  Flags:  r = read only, s = secondary
Flgs Name                             Flgs Name                             Flgs Name
     ISSID
PL6.E3A0      #001=LLP$PUTLO File=LLP$PUTLO.:E05TSI                              WED 07/30/97 03:16 Page:10


        1        1        /*M* LLP$PUTLO - DEF buster for the map routines                    */
        2        2        /*T***********************************************************/
        3        3        /*T*                                                         */
        4        4        /*T* Copyright (c) Bull HN Information Systems Inc., 1997    */
        5        5        /*T*                                                         */
        6        6        /*T***********************************************************/
        7        7        /*X* PLM=4,STI=0,IND=4,CTI=3,DCI=4,ECI=4,CSI=0,THI=0,DTI=0,ENI=4,
        8        8             CLM=0,SQB,NTB,MOC,CCI=3,NLB,MCL=0,EDMC*/
        9        9        /*F* NAME:         LLP$PUTLO
       10       10             PURPOSE:      Provides a common routine through which ENTDEFs
       11       11                           and SYMDEFs may be formatted.  When this routine
       12       12                           is called, DEF$ points to the DEF table, NORV
       13       13                           is set to indicate whether the title says NAME or
       14       14                           VALUE, NUM is number of DEFs, NAME$ is a ptr to
       15       15                           text names and TYPE is set to indicate DEF type  */
       16       16        LLP$PUTLO: PROC (DEF$, NORV, NUM, NAME$, TYPE);

     16  2 000000   000000 700200 xent  LLP$PUTLO    TSX0  ! X66_AUTO_5
         2 000001   000036 000005                    ZERO    30,5

       17       17    1   DCL DEF$ PTR; /* Pointer to definition entries */
       18       18    1   DCL NORV UBIN WORD ALIGNED; /* Name or value flag */
       19       19    1   DCL NUM UBIN WORD ALIGNED; /* Number of defs */
       20       20    1   DCL NAME$ PTR; /* Pointer to names tables */
       21       21    1   DCL TYPE UBIN WORD ALIGNED; /* Definition type */
       22       22    1   DCL 1 BUFFER STATIC ALIGNED,
       23       23    1         2 VFC_CHAR CHAR(1) UNAL,
       24       24    1         2 ENTRIES(0:2) UNAL,
       25       25    1           3 * CHAR(5) UNAL,
       26       26    1           3 ADRS CHAR(7) UNAL,
       27       27    1           3 * CHAR(1) UNAL,
       28       28    1           3 CONST CHAR(1) UNAL,
       29       29    1           3 UNUSED CHAR(1) UNAL,
       30       30    1           3 MULTDEF CHAR(1) UNAL,
       31       31    1           3 SOURCE CHAR(1) UNAL,
       32       32    1           3 FILLER CHAR(1) UNAL,
PL6.E3A0      #001=LLP$PUTLO File=LLP$PUTLO.:E05TSI                              WED 07/30/97 03:16 Page:11
       33       33    1           3 NAME CHAR(15) UNAL,
       34       34    1           3 TRUNC CHAR(1) UNAL;
       35       35    1   DCL BUF REDEF BUFFER CHAR(103) ALIGNED;
       36       36    1   DCL WID UBIN WORD ALIGNED;
       37       37    1   DCL COLS UBIN WORD ALIGNED;
       38       38    1   DCL I UBIN WORD ALIGNED;
       39       39    1   DCL J UBIN WORD ALIGNED;
       40       40    1   DCL K UBIN WORD ALIGNED;
       41       41    1   DCL L UBIN WORD ALIGNED;
       42       42    1   DCL TEMP UBIN WORD ALIGNED;
       43       43    1   DCL NPTR UBIN WORD ALIGNED;
       44       44    1   DCL OPTR UBIN WORD ALIGNED;
       45       45    1   DCL CARRIAGE UBIN WORD ALIGNED;
       46       46    1   DCL LLI$BINHEX ENTRY(3);
       47       47    1   DCL LLM$MON_SVC ENTRY(4) ALTRET;
       48       48    1   DCL TPTR1$ PTR;
       49       49    1   DCL TPTR2$ PTR;
       50       50    1   DCL STR7 CHAR(7) UNAL;
       51       51    1   DCL SOURCE_ARY(0:6) CHAR(1) STATIC UNAL INIT (' ','S','A','P','R','-','L');
       52       52    1   DCL SWITCH BIT(1) UNAL;
       53       53        %INCLUDE LL_MACS_C;
       54      407        %INCLUDE LL_DATA_R;
       55      443        %INCLUDE LL_SUBS_C;
       56      572        %INCLUDE B$OBJECT_C;
       57     4002        %B$DNAME;
       58     4021        %B$EDEF ( NAME = LL_ENTDEF );
       59     4091        %B$SDEF ( NAME = LL_SYMDEF );
       60     4145        %LL$UNSATREF ( NAME = LL_UNSATREF );
       61     4158        %B$EDEF (NAME=TEMP_EDEF, STCLASS=);
       62     4228        %B$EDEF (NAME="EDEFARY(0:0)", STCLASS="BASED(DEF$)");
       63     4298    1   DCL EDEFS CHAR(K) BASED ALIGNED;
       64     4299    1   BEGIN:
       65     4300    2       IF LL_WIDE# THEN DO;

   4300  2 000002   000000 234000 xsym  BEGIN        SZN     LL_WIDE#
         2 000003   000011 605000 2                  TPL     s:4305

PL6.E3A0      #001=LLP$PUTLO File=LLP$PUTLO.:E05TSI                              WED 07/30/97 03:16 Page:12
       66     4301    2           WID = 3;

   4301  2 000004   000003 235007                    LDA     3,DL
         2 000005   200010 755100                    STA     WID,,AUTO

       67     4302    2           COLS = 103;

   4302  2 000006   000147 236007                    LDQ     103,DL
         2 000007   200011 756100                    STQ     COLS,,AUTO

       68     4303    2           END;

   4303  2 000010   000015 710000 2                  TRA     s:4308

       69     4304    2       ELSE DO;

       70     4305    2           WID = 2;

   4305  2 000011   000002 235007                    LDA     2,DL
         2 000012   200010 755100                    STA     WID,,AUTO

       71     4306    2           COLS = 72;

   4306  2 000013   000110 236007                    LDQ     72,DL
         2 000014   200011 756100                    STQ     COLS,,AUTO

       72     4307    2           END;

       73     4308    2       DO CASE (TYPE-4);

   4308  2 000015   200007 470500                    LDP0    @TYPE,,AUTO
         2 000016   000000 235100                    LDA     0,,PR0
         2 000017   000004 135007                    SBLA    4,DL
         2 000020   000005 115007                    CMPA    5,DL
         2 000021   000023 602005 2                  TNC     s:4308+6,AL
         2 000022   000062 710000 2                  TRA     s:4325
         2 000023   000030 710000 2                  TRA     s:4310
PL6.E3A0      #001=LLP$PUTLO File=LLP$PUTLO.:E05TSI                              WED 07/30/97 03:16 Page:13
         2 000024   000036 710000 2                  TRA     s:4313
         2 000025   000043 710000 2                  TRA     s:4316
         2 000026   000051 710000 2                  TRA     s:4319
         2 000027   000056 710000 2                  TRA     s:4322

       74     4309    2       CASE (0); /* Primary Entdef */

       75     4310    2           LL_LOBUF = 'B******** PRIMARY ENTRY DEFINITIONS SORTED BY ';

   4310  2 000030   040000 100400                    MLR     fill='040'O
         2 000031   000000 000056 1                  ADSC9   0                        cn=0,n=46
         2 000032   000000 000160 xsym               ADSC9   LL_LOBUF                 cn=0,n=112

       76     4311    2           I = 46;

   4311  2 000033   000056 235007                    LDA     46,DL
         2 000034   200012 755100                    STA     I,,AUTO
         2 000035   000062 710000 2                  TRA     s:4325

       77     4312    2       CASE (1); /* Unresolved primary entrefs */

       78     4313    2           LL_LOBUF = 'B******** UNRESOLVED PRIMARY ENTRY REFERENCES ********';

   4313  2 000036   040000 100400                    MLR     fill='040'O
         2 000037   000014 000066 1                  ADSC9   12                       cn=0,n=54
         2 000040   000000 000160 xsym               ADSC9   LL_LOBUF                 cn=0,n=112

       79     4314    2           I = 0;

   4314  2 000041   200012 450100                    STZ     I,,AUTO
         2 000042   000062 710000 2                  TRA     s:4325

       80     4315    2       CASE (2); /* Primary symdefs */

       81     4316    2           LL_LOBUF = 'B******** PRIMARY DATA DEFINITIONS SORTED BY ';

   4316  2 000043   040000 100400                    MLR     fill='040'O
PL6.E3A0      #001=LLP$PUTLO File=LLP$PUTLO.:E05TSI                              WED 07/30/97 03:16 Page:14
         2 000044   000032 000055 1                  ADSC9   26                       cn=0,n=45
         2 000045   000000 000160 xsym               ADSC9   LL_LOBUF                 cn=0,n=112

       82     4317    2           I = 45;

   4317  2 000046   000055 235007                    LDA     45,DL
         2 000047   200012 755100                    STA     I,,AUTO
         2 000050   000062 710000 2                  TRA     s:4325

       83     4318    2       CASE (3); /* Unresolved prmary data defs */

       84     4319    2           LL_LOBUF = 'B******** UNRESOLVED PRIMARY DATA REFERENCES ********';

   4319  2 000051   040000 100400                    MLR     fill='040'O
         2 000052   000046 000065 1                  ADSC9   38                       cn=0,n=53
         2 000053   000000 000160 xsym               ADSC9   LL_LOBUF                 cn=0,n=112

       85     4320    2           I = 0;

   4320  2 000054   200012 450100                    STZ     I,,AUTO
         2 000055   000062 710000 2                  TRA     s:4325

       86     4321    2       CASE (4);

       87     4322    2           LL_LOBUF = 'B******** UNRESOLVED SECONDARY DATA REFERENCES ********';

   4322  2 000056   040000 100400                    MLR     fill='040'O
         2 000057   000064 000067 1                  ADSC9   52                       cn=0,n=55
         2 000060   000000 000160 xsym               ADSC9   LL_LOBUF                 cn=0,n=112

       88     4323    2           I = 0;

   4323  2 000061   200012 450100                    STZ     I,,AUTO

       89     4324    2           END;

       90     4325    2       IF (I > 0) THEN DO;
PL6.E3A0      #001=LLP$PUTLO File=LLP$PUTLO.:E05TSI                              WED 07/30/97 03:16 Page:15

   4325  2 000062   200012 235100                    LDA     I,,AUTO
         2 000063   000232 600000 2                  TZE     s:4348

       91     4326    3           DO CASE (NORV);

   4326  2 000064   200004 471500                    LDP1    @NORV,,AUTO
         2 000065   100000 235100                    LDA     0,,PR1
         2 000066   000002 115007                    CMPA    2,DL
         2 000067   000071 602005 2                  TNC     s:4326+5,AL
         2 000070   000226 710000 2                  TRA     LIST
         2 000071   000073 710000 2                  TRA     s:4328
         2 000072   000113 710000 2                  TRA     s:4330

       92     4327    3           CASE (0); /* Sort by name */

       93     4328    3               CALL INSERT (LL_LOBUF,I,,'NAME',' ********');

   4328  2 000073   200012 720100                    LXL0    I,,AUTO
         2 000074   777617 620010                    EAX0    -113,X0
         2 000075   777777 660003                    ERX0    -1,DU
         2 000076   200012 235100                    LDA     I,,AUTO
         2 000077   040045 100400                    MLR     fill='040'O
         2 000100   000102 000004 1                  ADSC9   66                       cn=0,n=4
         2 000101   000000 000010 xsym               ADSC9   LL_LOBUF,A               cn=0,n=*X0
         2 000102   200012 236100                    LDQ     I,,AUTO
         2 000103   000154 116007                    CMPQ    108,DL
         2 000104   000112 603000 2                  TRC     s:4328+15
         2 000105   777623 621006                    EAX1    -109,QL
         2 000106   777777 661003                    ERX1    -1,DU
         2 000107   040046 100400                    MLR     fill='040'O
         2 000110   000061 000011 1                  ADSC9   49                       cn=0,n=9
         2 000111   000001 000011 xsym               ADSC9   LL_LOBUF+1,Q             cn=0,n=*X1
         2 000112   000226 710000 2                  TRA     LIST

       94     4329    3           CASE (1); /* Sort by value */

PL6.E3A0      #001=LLP$PUTLO File=LLP$PUTLO.:E05TSI                              WED 07/30/97 03:16 Page:16
       95     4330    3               CALL INSERT (LL_LOBUF,I,,'VALUE',' ********');

   4330  2 000113   200012 720100                    LXL0    I,,AUTO
         2 000114   777617 620010                    EAX0    -113,X0
         2 000115   777777 660003                    ERX0    -1,DU
         2 000116   200012 235100                    LDA     I,,AUTO
         2 000117   040045 100400                    MLR     fill='040'O
         2 000120   000103 000005 1                  ADSC9   67                       cn=0,n=5
         2 000121   000000 000010 xsym               ADSC9   LL_LOBUF,A               cn=0,n=*X0
         2 000122   200012 236100                    LDQ     I,,AUTO
         2 000123   000153 116007                    CMPQ    107,DL
         2 000124   000132 603000 2                  TRC     s:4331
         2 000125   777624 621006                    EAX1    -108,QL
         2 000126   777777 661003                    ERX1    -1,DU
         2 000127   040046 100400                    MLR     fill='040'O
         2 000130   000061 000011 1                  ADSC9   49                       cn=0,n=9
         2 000131   000001 200011 xsym               ADSC9   LL_LOBUF+1,Q             cn=1,n=*X1

       96     4331    3               I = NUM-1;

   4331  2 000132   200005 473500                    LDP3    @NUM,,AUTO
         2 000133   300000 235100                    LDA     0,,PR3
         2 000134   000001 135007                    SBLA    1,DL
         2 000135   200012 755100                    STA     I,,AUTO

       97     4332    4               IF I>0 THEN DO UNTIL I = 0;

   4332  2 000136   000226 600000 2                  TZE     LIST

       98     4333    4                   I = I - 1;

   4333  2 000137   200012 235100                    LDA     I,,AUTO
         2 000140   000001 135007                    SBLA    1,DL
         2 000141   200012 755100                    STA     I,,AUTO

       99     4334    4                   TEMP_EDEF = EDEFARY(I);

PL6.E3A0      #001=LLP$PUTLO File=LLP$PUTLO.:E05TSI                              WED 07/30/97 03:16 Page:17
   4334  2 000142   200003 470500                    LDP0    @DEF$,,AUTO
         2 000143   000000 471500                    LDP1    0,,PR0
         2 000144   000003 735000                    ALS     3
         2 000145   000100 100505                    MLR     fill='000'O
         2 000146   100000 000010                    ADSC9   0,A,PR1                  cn=0,n=8
         2 000147   200030 000010                    ADSC9   TEMP_EDEF,,AUTO          cn=0,n=8

      100     4335    5                   DO J = I+1 TO NUM - 1;

   4335  2 000150   200012 236100                    LDQ     I,,AUTO
         2 000151   000001 036007                    ADLQ    1,DL
         2 000152   200013 756100                    STQ     J,,AUTO
         2 000153   000172 710000 2                  TRA     s:4338+3

      101     4336    5                       IF EDEFARY.ISADDR(J) > TEMP_EDEF.ISADDR

   4336  2 000154   200003 470500                    LDP0    @DEF$,,AUTO
         2 000155   000000 471500                    LDP1    0,,PR0
         2 000156   200013 235100                    LDA     J,,AUTO
         2 000157   000001 735000                    ALS     1
         2 000160   100000 236105                    LDQ     0,AL,PR1
         2 000161   000032 376000 xsym               ANQ     B_VECTNIL+26
         2 000162   200032 756100                    STQ     TEMP_EDEF+2,,AUTO
         2 000163   200030 236100                    LDQ     TEMP_EDEF,,AUTO
         2 000164   000032 376000 xsym               ANQ     B_VECTNIL+26
         2 000165   200032 116100                    CMPQ    TEMP_EDEF+2,,AUTO
         2 000166   000176 604000 2                  TMI     s:4339

      102     4337    5                       THEN EXIT;
      103     4338    5                       END;

   4338  2 000167   200013 235100                    LDA     J,,AUTO
         2 000170   000001 035007                    ADLA    1,DL
         2 000171   200013 755100                    STA     J,,AUTO
         2 000172   200005 471500                    LDP1    @NUM,,AUTO
         2 000173   200013 236100                    LDQ     J,,AUTO
         2 000174   100000 116100                    CMPQ    0,,PR1
PL6.E3A0      #001=LLP$PUTLO File=LLP$PUTLO.:E05TSI                              WED 07/30/97 03:16 Page:18
         2 000175   000154 602000 2                  TNC     s:4336

      104     4339    4                   K = SIZEC(TEMP_EDEF)*(J-I-1);

   4339  2 000176   200013 236100                    LDQ     J,,AUTO
         2 000177   200012 136100                    SBLQ    I,,AUTO
         2 000200   000003 736000                    QLS     3
         2 000201   000010 136007                    SBLQ    8,DL
         2 000202   200014 756100                    STQ     K,,AUTO

      105     4340    5                   IF K > 0 THEN DO;

   4340  2 000203   000224 600000 2                  TZE     s:4344

      106     4341    5                       ADDR(EDEFARY(I))->EDEFS = ADDR(EDEFARY(I+1))->EDEFS;

   4341  2 000204   000000 471500                    LDP1    0,,PR0
         2 000205   200012 235100                    LDA     I,,AUTO
         2 000206   000003 735000                    ALS     3
         2 000207   000000 620006                    EAX0    0,QL
         2 000210   200014 721100                    LXL1    K,,AUTO
         2 000211   040145 100545                    MLR     fill='040'O
         2 000212   100002 000010                    ADSC9   2,A,PR1                  cn=0,n=*X0
         2 000213   100000 000011                    ADSC9   0,A,PR1                  cn=0,n=*X1

      107     4342    5                       EDEFARY(J-1) = TEMP_EDEF;

   4342  2 000214   000000 471500                    LDP1    0,,PR0
         2 000215   200013 236100                    LDQ     J,,AUTO
         2 000216   000001 736000                    QLS     1
         2 000217   000000 620006                    EAX0    0,QL
         2 000220   000000 622006                    EAX2    0,QL
         2 000221   200030 237100                    LDAQ    TEMP_EDEF,,AUTO
         2 000222   177776 755110                    STA     -2,X0,PR1
         2 000223   177777 756112                    STQ     -1,X2,PR1

      108     4343    5                       END;
PL6.E3A0      #001=LLP$PUTLO File=LLP$PUTLO.:E05TSI                              WED 07/30/97 03:16 Page:19

      109     4344    4                   END;

   4344  2 000224   200012 235100                    LDA     I,,AUTO
         2 000225   000137 601000 2                  TNZ     s:4333

      110     4345    3   LIST:       END;

   4345  2 000226                       LIST         null
      111     4346    2           CALL LLM$MON_SVC (LL#WRITELO);

   4346  2 000226   000000 630400 3                  EPPR0   0
         2 000227   000017 631400 xsym               EPPR1   B_VECTNIL+15
         2 000230   000000 701000 xent               TSX1    LLM$MON_SVC
         2 000231   000000 011000                    NOP     0

      112     4347    2           END;

      113     4348    1       I = 0;

   4348  2 000232   200012 450100                    STZ     I,,AUTO

      114     4349    2       DO WHILE (I < NUM);

   4349  2 000233   200005 470500                    LDP0    @NUM,,AUTO
         2 000234   200012 236100                    LDQ     I,,AUTO
         2 000235   000000 116100                    CMPQ    0,,PR0
         2 000236   001012 603000 2                  TRC     s:4448

      115     4350    2           J = 0;

   4350  2 000237   200013 450100                    STZ     J,,AUTO

      116     4351    2           CARRIAGE = 1;

   4351  2 000240   000001 235007                    LDA     1,DL
         2 000241   200021 755100                    STA     CARRIAGE,,AUTO
PL6.E3A0      #001=LLP$PUTLO File=LLP$PUTLO.:E05TSI                              WED 07/30/97 03:16 Page:20

      117     4352    2           BUF = ' ';

   4352  2 000242   040000 100400                    MLR     fill='040'O
         2 000243   000035 000001 xsym               ADSC9   B_VECTNIL+29             cn=0,n=1
         2 000244   000000 000147 0                  ADSC9   BUFFER                   cn=0,n=103

      118     4353    3           DO WHILE ( J < WID AND I < NUM AND

   4353  2 000245   000740 710000 2                  TRA     s:4438

      119     4354    3              CARRIAGE + 18 + PINCRW ( NAME$, PINCRW ( DEF$, I*2 )
      120     4355    3              -> LL_SYMDEF.NPOINTER ) -> B$DNAME.COUNT < COLS );
      121     4356    4               DO CASE (TYPE - 4);

   4356  2 000246   200007 470500                    LDP0    @TYPE,,AUTO
         2 000247   000000 235100                    LDA     0,,PR0
         2 000250   000004 135007                    SBLA    4,DL
         2 000251   000005 115007                    CMPA    5,DL
         2 000252   000254 602005 2                  TNC     s:4356+6,AL
         2 000253   000713 710000 2                  TRA     s:4433
         2 000254   000261 710000 2                  TRA     s:4358
         2 000255   000416 710000 2                  TRA     s:4383
         2 000256   000477 710000 2                  TRA     s:4396
         2 000257   000416 710000 2                  TRA     s:4383
         2 000260   000632 710000 2                  TRA     s:4420

      122     4357    4               CASE (0); /* Entdefs */

      123     4358    4                   TPTR1$ = PINCRW (DEF$, I * 2);

   4358  2 000261   200003 471500                    LDP1    @DEF$,,AUTO
         2 000262   100000 473500                    LDP3    0,,PR1
         2 000263   200012 236100                    LDQ     I,,AUTO
         2 000264   000001 736000                    QLS     1
         2 000265   300000 634506                    EPPR4   0,QL,PR3
         2 000266   200022 454500                    STP4    TPTR1$,,AUTO
PL6.E3A0      #001=LLP$PUTLO File=LLP$PUTLO.:E05TSI                              WED 07/30/97 03:16 Page:21

      124     4359    4                   IF (NOT (LL_FLAGS.UDEF#) AND

   4359  2 000267   000000 236000 xsym               LDQ     LL_FLAGS
         2 000270   000010 316003                    CANQ    8,DU
         2 000271   000275 601000 2                  TNZ     s:4362
         2 000272   400000 236100                    LDQ     0,,PR4
         2 000273   010000 316003                    CANQ    4096,DU
         2 000274   000735 600000 2                  TZE     INCR_I

      125     4360    4                      NOT TPTR1$ -> LL_ENTDEF.LFLAGS.USED)
      126     4361    4                   THEN GOTO INCR_I;
      127     4362    4                   IF LL_FLAGS.BIAS_OU AND TPTR1$->LL_ENTDEF.ISADDR = 0

   4362  2 000275   000000 236000 xsym               LDQ     LL_FLAGS
         2 000276   040000 316007                    CANQ    16384,DL
         2 000277   000303 600000 2                  TZE     s:4364
         2 000300   400000 236100                    LDQ     0,,PR4
         2 000301   000032 316000 xsym               CANQ    B_VECTNIL+26
         2 000302   000735 600000 2                  TZE     INCR_I

      128     4363    4                   THEN GOTO INCR_I;
      129     4364    4                   BUFFER.ENTRIES.CONST(J) = ' ';

   4364  2 000303   200013 236100                    LDQ     J,,AUTO
         2 000304   000042 402007                    MPY     34,DL
         2 000305   040006 100400                    MLR     fill='040'O
         2 000306   000035 000001 xsym               ADSC9   B_VECTNIL+29             cn=0,n=1
         2 000307   000003 400001 0                  ADSC9   BUFFER+3,Q               cn=2,n=1

      130     4365    4                   IF (NOT TPTR1$ -> LL_ENTDEF.LFLAGS.USED) THEN

   4365  2 000310   400000 236100                    LDQ     0,,PR4
         2 000311   010000 316003                    CANQ    4096,DU
         2 000312   000320 601000 2                  TNZ     s:4367

      131     4366    4                       BUFFER.ENTRIES.UNUSED(J) = '*';
PL6.E3A0      #001=LLP$PUTLO File=LLP$PUTLO.:E05TSI                              WED 07/30/97 03:16 Page:22

   4366  2 000313   200013 236100                    LDQ     J,,AUTO
         2 000314   000042 402007                    MPY     34,DL
         2 000315   040006 100400                    MLR     fill='040'O
         2 000316   000001 000001 3                  ADSC9   1                        cn=0,n=1
         2 000317   000003 600001 0                  ADSC9   BUFFER+3,Q               cn=3,n=1

      132     4367    4                   IF (TPTR1$ -> LL_ENTDEF.LFLAGS.MULTIPLE) THEN

   4367  2 000320   400000 236100                    LDQ     0,,PR4
         2 000321   020000 316003                    CANQ    8192,DU
         2 000322   000330 600000 2                  TZE     s:4369

      133     4368    4                       BUFFER.ENTRIES.MULTDEF(J) = '+';

   4368  2 000323   200013 236100                    LDQ     J,,AUTO
         2 000324   000042 402007                    MPY     34,DL
         2 000325   040006 100400                    MLR     fill='040'O
         2 000326   000002 000001 3                  ADSC9   2                        cn=0,n=1
         2 000327   000004 000001 0                  ADSC9   BUFFER+4,Q               cn=0,n=1

      134     4369    4                   TEMP = TPTR1$ -> LL_ENTDEF.LFLAGS.SOURCE;

   4369  2 000330   400000 236100                    LDQ     0,,PR4
         2 000331   000041 772000                    QRL     33
         2 000332   200016 756100                    STQ     TEMP,,AUTO

      135     4370    4                   BUFFER.ENTRIES.SOURCE(J) = SOURCE_ARY(TEMP);

   4370  2 000333   200013 236100                    LDQ     J,,AUTO
         2 000334   000042 402007                    MPY     34,DL
         2 000335   200016 235100                    LDA     TEMP,,AUTO
         2 000336   040006 100405                    MLR     fill='040'O
         2 000337   000032 000001 0                  ADSC9   SOURCE_ARY,A             cn=0,n=1
         2 000340   000004 200001 0                  ADSC9   BUFFER+4,Q               cn=1,n=1

      136     4371    4                   TEMP = TPTR1$ -> LL_ENTDEF.ISADDR;
PL6.E3A0      #001=LLP$PUTLO File=LLP$PUTLO.:E05TSI                              WED 07/30/97 03:16 Page:23

   4371  2 000341   400000 236100                    LDQ     0,,PR4
         2 000342   000032 376000 xsym               ANQ     B_VECTNIL+26
         2 000343   200016 756100                    STQ     TEMP,,AUTO

      137     4372    4                   CALL LLI$BINHEX (TEMP, 7, STR7);

   4372  2 000344   200024 633500                    EPPR3   STR7,,AUTO
         2 000345   200034 453500                    STP3    TEMP_EDEF+4,,AUTO
         2 000346   000003 236000 3                  LDQ     3
         2 000347   200033 756100                    STQ     TEMP_EDEF+3,,AUTO
         2 000350   200016 635500                    EPPR5   TEMP,,AUTO
         2 000351   200032 455500                    STP5    TEMP_EDEF+2,,AUTO
         2 000352   200032 630500                    EPPR0   TEMP_EDEF+2,,AUTO
         2 000353   000021 631400 xsym               EPPR1   B_VECTNIL+17
         2 000354   000000 701000 xent               TSX1    LLI$BINHEX
         2 000355   000000 011000                    NOP     0

      138     4373    4                   BUFFER.ENTRIES.ADRS(J) = STR7;

   4373  2 000356   200013 236100                    LDQ     J,,AUTO
         2 000357   000042 402007                    MPY     34,DL
         2 000360   040006 100500                    MLR     fill='040'O
         2 000361   200024 000007                    ADSC9   STR7,,AUTO               cn=0,n=7
         2 000362   000001 400007 0                  ADSC9   BUFFER+1,Q               cn=2,n=7

      139     4374    4                   TEMP = TPTR1$ -> LL_ENTDEF.NPOINTER;

   4374  2 000363   200022 470500                    LDP0    TPTR1$,,AUTO
         2 000364   000001 236100                    LDQ     1,,PR0
         2 000365   000022 732000                    QRS     18
         2 000366   200016 756100                    STQ     TEMP,,AUTO

      140     4375    4                   TPTR1$ = PINCRW (NAME$, TEMP);

   4375  2 000367   200006 471500                    LDP1    @NAME$,,AUTO
         2 000370   100000 473500                    LDP3    0,,PR1
PL6.E3A0      #001=LLP$PUTLO File=LLP$PUTLO.:E05TSI                              WED 07/30/97 03:16 Page:24
         2 000371   300000 634506                    EPPR4   0,QL,PR3
         2 000372   200022 454500                    STP4    TPTR1$,,AUTO

      141     4376    4                   IF ( TPTR1$ -> B$DNAME.COUNT > 90 ) THEN

   4376  2 000373   400000 220100                    LDX0    0,,PR4
         2 000374   000133 100003                    CMPX0   91,DU
         2 000375   000400 602000 2                  TNC     s:4378

      142     4377    4                       TPTR1$ -> B$DNAME.COUNT = 90;

   4377  2 000376   000132 221003                    LDX1    90,DU
         2 000377   400000 741100                    STX1    0,,PR4

      143     4378    4                   ADDR ( BUFFER.ENTRIES.FILLER(J) ) -> B$DNAME.COUNT =

   4378  2 000400   200013 236100                    LDQ     J,,AUTO
         2 000401   000042 402007                    MPY     34,DL
         2 000402   000006 100500                    MLR     fill='000'O
         2 000403   400000 000002                    ADSC9   0,,PR4                   cn=0,n=2
         2 000404   000004 400002 0                  ADSC9   BUFFER+4,Q               cn=2,n=2

      144     4379    4                      TPTR1$ -> B$DNAME.COUNT;
      145     4380    4                   ADDR ( BUFFER.ENTRIES.FILLER(J) ) -> B$DNAME.TEXT =

   4380  2 000405   000100 100406                    MLR     fill='000'O
         2 000406   000004 400002 0                  ADSC9   BUFFER+4,Q               cn=2,n=2
         2 000407   200032 000004                    ADSC9   TEMP_EDEF+2,,AUTO        cn=0,n=4
         2 000410   200032 220100                    LDX0    TEMP_EDEF+2,,AUTO
         2 000411   400000 221100                    LDX1    0,,PR4
         2 000412   040046 100540                    MLR     fill='040'O
         2 000413   400000 400011                    ADSC9   0,,PR4                   cn=2,n=*X1
         2 000414   000005 000010 0                  ADSC9   BUFFER+5,Q               cn=0,n=*X0
         2 000415   000713 710000 2                  TRA     s:4433

      146     4381    4                      TPTR1$ -> B$DNAME.TEXT;
      147     4382    4               CASE (1,3); /* Primary entrefs and symrefs */
PL6.E3A0      #001=LLP$PUTLO File=LLP$PUTLO.:E05TSI                              WED 07/30/97 03:16 Page:25

      148     4383    4                   TPTR1$ = PINCRW (DEF$, I);

   4383  2 000416   200003 471500                    LDP1    @DEF$,,AUTO
         2 000417   100000 473500                    LDP3    0,,PR1
         2 000420   200012 720100                    LXL0    I,,AUTO
         2 000421   300000 634510                    EPPR4   0,X0,PR3
         2 000422   200022 454500                    STP4    TPTR1$,,AUTO

      149     4384    5                   IF (NOT TPTR1$ -> LL_UNSATREF.SREF) THEN DO;

   4384  2 000423   400000 236100                    LDQ     0,,PR4
         2 000424   400000 316007                    CANQ    -131072,DL
         2 000425   000713 601000 2                  TNZ     s:4433

      150     4385    5                       J = 2;

   4385  2 000426   000002 235007                    LDA     2,DL
         2 000427   200013 755100                    STA     J,,AUTO

      151     4386    5                       NPTR = TPTR1$ -> LL_UNSATREF.NPOINTER;

   4386  2 000430   400000 236100                    LDQ     0,,PR4
         2 000431   000022 732000                    QRS     18
         2 000432   200017 756100                    STQ     NPTR,,AUTO

      152     4387    5                       OPTR = TPTR2$ -> LL_UNSATREF.OPOINTER;

   4387  2 000433   200023 475500                    LDP5    TPTR2$,,AUTO
         2 000434   500000 236100                    LDQ     0,,PR5
         2 000435   377777 376007                    ANQ     131071,DL
         2 000436   200020 756100                    STQ     OPTR,,AUTO

      153     4388    5                       TPTR1$ = PINCRW (NAME$, NPTR);

   4388  2 000437   200006 476500                    LDP6    @NAME$,,AUTO
         2 000440   600000 477500                    LDP7    0,,PR6
PL6.E3A0      #001=LLP$PUTLO File=LLP$PUTLO.:E05TSI                              WED 07/30/97 03:16 Page:26
         2 000441   200017 721100                    LXL1    NPTR,,AUTO
         2 000442   700000 630511                    EPPR0   0,X1,PR7
         2 000443   200022 450500                    STP0    TPTR1$,,AUTO

      154     4389    5                       TPTR2$ = PINCRW (NAME$, OPTR);

   4389  2 000444   700000 634506                    EPPR4   0,QL,PR7
         2 000445   200023 454500                    STP4    TPTR2$,,AUTO

      155     4390    5                       CALL INSERT (BUF,5,,

   4390  2 000446   000000 222100                    LDX2    0,,PR0
         2 000447   400000 223100                    LDX3    0,,PR4
         2 000450   040000 100540                    MLR     fill='040'O
         2 000451   000000 400012                    ADSC9   0,,PR0                   cn=2,n=*X2
         2 000452   000001 200142 0                  ADSC9   BUFFER+1                 cn=1,n=98
         2 000453   000000 636012                    EAQ     0,X2
         2 000454   000022 772000                    QRL     18
         2 000455   000142 116007                    CMPQ    98,DL
         2 000456   000476 603000 2                  TRC     s:4394
         2 000457   200032 742100                    STX2    TEMP_EDEF+2,,AUTO
         2 000460   777635 622012                    EAX2    -99,X2
         2 000461   777777 662003                    ERX2    -1,DU
         2 000462   200032 236100                    LDQ     TEMP_EDEF+2,,AUTO
         2 000463   000022 772000                    QRL     18
         2 000464   040046 100400                    MLR     fill='040'O
         2 000465   000105 000022 1                  ADSC9   69                       cn=0,n=18
         2 000466   000001 200012 0                  ADSC9   BUFFER+1,Q               cn=1,n=*X2
         2 000467   000120 116007                    CMPQ    80,DL
         2 000470   000476 603000 2                  TRC     s:4394
         2 000471   777657 622006                    EAX2    -81,QL
         2 000472   777777 662003                    ERX2    -1,DU
         2 000473   040046 100540                    MLR     fill='040'O
         2 000474   400000 400013                    ADSC9   0,,PR4                   cn=2,n=*X3
         2 000475   000005 600012 0                  ADSC9   BUFFER+5,Q               cn=3,n=*X2

      156     4391    5                          TPTR1$ -> B$DNAME.TEXT,
PL6.E3A0      #001=LLP$PUTLO File=LLP$PUTLO.:E05TSI                              WED 07/30/97 03:16 Page:27
      157     4392    5                          ' from object unit ',
      158     4393    5                          TPTR2$ -> B$DNAME.TEXT);
      159     4394    5                       END;

   4394  2 000476   000713 710000 2                  TRA     s:4433

      160     4395    4               CASE (2); /* Symdefs */

      161     4396    4                   TPTR1$ = PINCRW (DEF$, I * 2);

   4396  2 000477   200003 471500                    LDP1    @DEF$,,AUTO
         2 000500   100000 473500                    LDP3    0,,PR1
         2 000501   200012 236100                    LDQ     I,,AUTO
         2 000502   000001 736000                    QLS     1
         2 000503   300000 634506                    EPPR4   0,QL,PR3
         2 000504   200022 454500                    STP4    TPTR1$,,AUTO

      162     4397    4                   IF (NOT (LL_FLAGS.UDEF#) AND

   4397  2 000505   000000 236000 xsym               LDQ     LL_FLAGS
         2 000506   000010 316003                    CANQ    8,DU
         2 000507   000513 601000 2                  TNZ     s:4400
         2 000510   400001 236100                    LDQ     1,,PR4
         2 000511   100000 316007                    CANQ    32768,DL
         2 000512   000735 600000 2                  TZE     INCR_I

      163     4398    4                      NOT TPTR1$ -> LL_SYMDEF.LFLAGS.USED)
      164     4399    4                   THEN GOTO INCR_I;
      165     4400    4                   IF (TPTR1$ -> LL_SYMDEF.CONSTNT) THEN

   4400  2 000513   400001 236100                    LDQ     1,,PR4
         2 000514   400000 316007                    CANQ    -131072,DL
         2 000515   000523 600000 2                  TZE     s:4402

      166     4401    4                       BUFFER.ENTRIES.CONST(J) = '=';

   4401  2 000516   200013 236100                    LDQ     J,,AUTO
PL6.E3A0      #001=LLP$PUTLO File=LLP$PUTLO.:E05TSI                              WED 07/30/97 03:16 Page:28
         2 000517   000042 402007                    MPY     34,DL
         2 000520   040006 100400                    MLR     fill='040'O
         2 000521   000004 000001 3                  ADSC9   4                        cn=0,n=1
         2 000522   000003 400001 0                  ADSC9   BUFFER+3,Q               cn=2,n=1

      167     4402    4                   IF (NOT TPTR1$ -> LL_SYMDEF.LFLAGS.USED) THEN

   4402  2 000523   400001 236100                    LDQ     1,,PR4
         2 000524   100000 316007                    CANQ    32768,DL
         2 000525   000533 601000 2                  TNZ     s:4404

      168     4403    4                       BUFFER.ENTRIES.UNUSED(J) = '*';

   4403  2 000526   200013 236100                    LDQ     J,,AUTO
         2 000527   000042 402007                    MPY     34,DL
         2 000530   040006 100400                    MLR     fill='040'O
         2 000531   000001 000001 3                  ADSC9   1                        cn=0,n=1
         2 000532   000003 600001 0                  ADSC9   BUFFER+3,Q               cn=3,n=1

      169     4404    4                   IF (TPTR1$ -> LL_SYMDEF.LFLAGS.MULTIPLE) THEN

   4404  2 000533   400001 236100                    LDQ     1,,PR4
         2 000534   200000 316007                    CANQ    65536,DL
         2 000535   000543 600000 2                  TZE     s:4406

      170     4405    4                       BUFFER.ENTRIES.MULTDEF(J) = '+';

   4405  2 000536   200013 236100                    LDQ     J,,AUTO
         2 000537   000042 402007                    MPY     34,DL
         2 000540   040006 100400                    MLR     fill='040'O
         2 000541   000002 000001 3                  ADSC9   2                        cn=0,n=1
         2 000542   000004 000001 0                  ADSC9   BUFFER+4,Q               cn=0,n=1

      171     4406    4                   TEMP = TPTR1$ -> LL_SYMDEF.LFLAGS.SOURCE;

   4406  2 000543   400001 236100                    LDQ     1,,PR4
         2 000544   000013 772000                    QRL     11
PL6.E3A0      #001=LLP$PUTLO File=LLP$PUTLO.:E05TSI                              WED 07/30/97 03:16 Page:29
         2 000545   000017 376007                    ANQ     15,DL
         2 000546   200016 756100                    STQ     TEMP,,AUTO

      172     4407    4                   BUFFER.ENTRIES.SOURCE(J) = SOURCE_ARY(TEMP);

   4407  2 000547   200013 236100                    LDQ     J,,AUTO
         2 000550   000042 402007                    MPY     34,DL
         2 000551   200016 235100                    LDA     TEMP,,AUTO
         2 000552   040006 100405                    MLR     fill='040'O
         2 000553   000032 000001 0                  ADSC9   SOURCE_ARY,A             cn=0,n=1
         2 000554   000004 200001 0                  ADSC9   BUFFER+4,Q               cn=1,n=1

      173     4408    4                   TEMP = TPTR1$ -> LL_SYMDEF.AD.ISADDR;

   4408  2 000555   400000 236100                    LDQ     0,,PR4
         2 000556   000032 376000 xsym               ANQ     B_VECTNIL+26
         2 000557   200016 756100                    STQ     TEMP,,AUTO

      174     4409    4                   CALL LLI$BINHEX (TEMP, 7, STR7);

   4409  2 000560   200024 633500                    EPPR3   STR7,,AUTO
         2 000561   200034 453500                    STP3    TEMP_EDEF+4,,AUTO
         2 000562   000003 236000 3                  LDQ     3
         2 000563   200033 756100                    STQ     TEMP_EDEF+3,,AUTO
         2 000564   200016 635500                    EPPR5   TEMP,,AUTO
         2 000565   200032 455500                    STP5    TEMP_EDEF+2,,AUTO
         2 000566   200032 630500                    EPPR0   TEMP_EDEF+2,,AUTO
         2 000567   000021 631400 xsym               EPPR1   B_VECTNIL+17
         2 000570   000000 701000 xent               TSX1    LLI$BINHEX
         2 000571   000000 011000                    NOP     0

      175     4410    4                   BUFFER.ENTRIES.ADRS(J) = STR7;

   4410  2 000572   200013 236100                    LDQ     J,,AUTO
         2 000573   000042 402007                    MPY     34,DL
         2 000574   040006 100500                    MLR     fill='040'O
         2 000575   200024 000007                    ADSC9   STR7,,AUTO               cn=0,n=7
PL6.E3A0      #001=LLP$PUTLO File=LLP$PUTLO.:E05TSI                              WED 07/30/97 03:16 Page:30
         2 000576   000001 400007 0                  ADSC9   BUFFER+1,Q               cn=2,n=7

      176     4411    4                   TEMP = TPTR1$ -> LL_SYMDEF.NPOINTER;

   4411  2 000577   200022 470500                    LDP0    TPTR1$,,AUTO
         2 000600   000001 236100                    LDQ     1,,PR0
         2 000601   000022 732000                    QRS     18
         2 000602   200016 756100                    STQ     TEMP,,AUTO

      177     4412    4                   TPTR1$ = PINCRW (NAME$, TEMP);

   4412  2 000603   200006 471500                    LDP1    @NAME$,,AUTO
         2 000604   100000 473500                    LDP3    0,,PR1
         2 000605   300000 634506                    EPPR4   0,QL,PR3
         2 000606   200022 454500                    STP4    TPTR1$,,AUTO

      178     4413    4                   IF ( TPTR1$ -> B$DNAME.COUNT > 90 ) THEN

   4413  2 000607   400000 220100                    LDX0    0,,PR4
         2 000610   000133 100003                    CMPX0   91,DU
         2 000611   000614 602000 2                  TNC     s:4415

      179     4414    4                       TPTR1$ -> B$DNAME.COUNT = 90;

   4414  2 000612   000132 221003                    LDX1    90,DU
         2 000613   400000 741100                    STX1    0,,PR4

      180     4415    4                   ADDR ( BUFFER.ENTRIES.FILLER(J) ) -> B$DNAME.COUNT =

   4415  2 000614   200013 236100                    LDQ     J,,AUTO
         2 000615   000042 402007                    MPY     34,DL
         2 000616   000006 100500                    MLR     fill='000'O
         2 000617   400000 000002                    ADSC9   0,,PR4                   cn=0,n=2
         2 000620   000004 400002 0                  ADSC9   BUFFER+4,Q               cn=2,n=2

      181     4416    4                      TPTR1$ -> B$DNAME.COUNT;
      182     4417    4                   ADDR ( BUFFER.ENTRIES.FILLER(J) ) -> B$DNAME.TEXT =
PL6.E3A0      #001=LLP$PUTLO File=LLP$PUTLO.:E05TSI                              WED 07/30/97 03:16 Page:31

   4417  2 000621   000100 100406                    MLR     fill='000'O
         2 000622   000004 400002 0                  ADSC9   BUFFER+4,Q               cn=2,n=2
         2 000623   200032 000004                    ADSC9   TEMP_EDEF+2,,AUTO        cn=0,n=4
         2 000624   200032 220100                    LDX0    TEMP_EDEF+2,,AUTO
         2 000625   400000 221100                    LDX1    0,,PR4
         2 000626   040046 100540                    MLR     fill='040'O
         2 000627   400000 400011                    ADSC9   0,,PR4                   cn=2,n=*X1
         2 000630   000005 000010 0                  ADSC9   BUFFER+5,Q               cn=0,n=*X0
         2 000631   000713 710000 2                  TRA     s:4433

      183     4418    4                      TPTR1$ -> B$DNAME.TEXT;
      184     4419    4               CASE (4); /* Secondary symrefs */

      185     4420    4                   TPTR1$ = PINCRW (DEF$, I);

   4420  2 000632   200003 471500                    LDP1    @DEF$,,AUTO
         2 000633   100000 473500                    LDP3    0,,PR1
         2 000634   200012 720100                    LXL0    I,,AUTO
         2 000635   300000 634510                    EPPR4   0,X0,PR3
         2 000636   200022 454500                    STP4    TPTR1$,,AUTO

      186     4421    5                   IF (TPTR1$ -> LL_UNSATREF.SREF) THEN DO;

   4421  2 000637   400000 236100                    LDQ     0,,PR4
         2 000640   400000 316007                    CANQ    -131072,DL
         2 000641   000713 600000 2                  TZE     s:4433

      187     4422    5                       NPTR = TPTR1$ -> LL_UNSATREF.NPOINTER;

   4422  2 000642   400000 236100                    LDQ     0,,PR4
         2 000643   000022 732000                    QRS     18
         2 000644   200017 756100                    STQ     NPTR,,AUTO

      188     4423    5                       OPTR = TPTR1$ -> LL_UNSATREF.OPOINTER;

   4423  2 000645   400000 236100                    LDQ     0,,PR4
PL6.E3A0      #001=LLP$PUTLO File=LLP$PUTLO.:E05TSI                              WED 07/30/97 03:16 Page:32
         2 000646   377777 376007                    ANQ     131071,DL
         2 000647   200020 756100                    STQ     OPTR,,AUTO

      189     4424    5                       TPTR1$ = PINCRW (NAME$, NPTR);

   4424  2 000650   200006 475500                    LDP5    @NAME$,,AUTO
         2 000651   500000 476500                    LDP6    0,,PR5
         2 000652   200017 721100                    LXL1    NPTR,,AUTO
         2 000653   600000 637511                    EPPR7   0,X1,PR6
         2 000654   200022 457500                    STP7    TPTR1$,,AUTO

      190     4425    5                       TPTR2$ = PINCRW (NAME$, OPTR);

   4425  2 000655   600000 634506                    EPPR4   0,QL,PR6
         2 000656   200023 454500                    STP4    TPTR2$,,AUTO

      191     4426    5                       CALL INSERT (BUF,5,,

   4426  2 000657   700000 222100                    LDX2    0,,PR7
         2 000660   400000 223100                    LDX3    0,,PR4
         2 000661   040000 100540                    MLR     fill='040'O
         2 000662   700000 400012                    ADSC9   0,,PR7                   cn=2,n=*X2
         2 000663   000001 200142 0                  ADSC9   BUFFER+1                 cn=1,n=98
         2 000664   000000 636012                    EAQ     0,X2
         2 000665   000022 772000                    QRL     18
         2 000666   000142 116007                    CMPQ    98,DL
         2 000667   000711 603000 2                  TRC     s:4430
         2 000670   200032 742100                    STX2    TEMP_EDEF+2,,AUTO
         2 000671   777635 622012                    EAX2    -99,X2
         2 000672   777777 662003                    ERX2    -1,DU
         2 000673   200032 235100                    LDA     TEMP_EDEF+2,,AUTO
         2 000674   000022 771000                    ARL     18
         2 000675   040045 100400                    MLR     fill='040'O
         2 000676   000105 000022 1                  ADSC9   69                       cn=0,n=18
         2 000677   000001 200012 0                  ADSC9   BUFFER+1,A               cn=1,n=*X2
         2 000700   200032 236100                    LDQ     TEMP_EDEF+2,,AUTO
         2 000701   000022 772000                    QRL     18
PL6.E3A0      #001=LLP$PUTLO File=LLP$PUTLO.:E05TSI                              WED 07/30/97 03:16 Page:33
         2 000702   000120 116007                    CMPQ    80,DL
         2 000703   000711 603000 2                  TRC     s:4430
         2 000704   777657 622006                    EAX2    -81,QL
         2 000705   777777 662003                    ERX2    -1,DU
         2 000706   040046 100540                    MLR     fill='040'O
         2 000707   400000 400013                    ADSC9   0,,PR4                   cn=2,n=*X3
         2 000710   000005 600012 0                  ADSC9   BUFFER+5,Q               cn=3,n=*X2

      192     4427    5                          TPTR1$ -> B$DNAME.TEXT,
      193     4428    5                          ' from object unit ',
      194     4429    5                          TPTR2$ -> B$DNAME.TEXT);
      195     4430    5                       J = 2;

   4430  2 000711   000002 235007                    LDA     2,DL
         2 000712   200013 755100                    STA     J,,AUTO

      196     4431    5                       END;

      197     4432    4                   END;

      198     4433    3               TEMP = ADDR ( BUFFER.ENTRIES.FILLER(J) ) -> B$DNAME.COUNT;

   4433  2 000713   200013 236100                    LDQ     J,,AUTO
         2 000714   000042 402007                    MPY     34,DL
         2 000715   000100 101406                    MRL     fill='000'O
         2 000716   000004 400002 0                  ADSC9   BUFFER+4,Q               cn=2,n=2
         2 000717   200016 000004                    ADSC9   TEMP,,AUTO               cn=0,n=4

      199     4434    3               ADDR ( BUFFER.ENTRIES.FILLER(J) ) -> B$DNAME.COUNT = 32;

   4434  2 000720   000006 101400                    MRL     fill='000'O
         2 000721   000005 000004 3                  ADSC9   5                        cn=0,n=4
         2 000722   000004 400002 0                  ADSC9   BUFFER+4,Q               cn=2,n=2

      200     4435    3               CARRIAGE = CARRIAGE + (( 18 + TEMP + 33 ) / 34 ) * 34;

   4435  2 000723   200016 236100                    LDQ     TEMP,,AUTO
PL6.E3A0      #001=LLP$PUTLO File=LLP$PUTLO.:E05TSI                              WED 07/30/97 03:16 Page:34
         2 000724   000063 036007                    ADLQ    51,DL
         2 000725   000001 772000                    QRL     1
         2 000726   000021 506007                    DIV     17,DL
         2 000727   000042 402007                    MPY     34,DL
         2 000730   200021 036100                    ADLQ    CARRIAGE,,AUTO
         2 000731   200021 756100                    STQ     CARRIAGE,,AUTO

      201     4436    3               J = CARRIAGE / 34;

   4436  2 000732   000001 772000                    QRL     1
         2 000733   000021 506007                    DIV     17,DL
         2 000734   200013 756100                    STQ     J,,AUTO

      202     4437    3   INCR_I:     I = I + 1;

   4437  2 000735   200012 235100       INCR_I       LDA     I,,AUTO
         2 000736   000001 035007                    ADLA    1,DL
         2 000737   200012 755100                    STA     I,,AUTO

      203     4438    3               END;

   4438  2 000740   200013 236100                    LDQ     J,,AUTO
         2 000741   200010 116100                    CMPQ    WID,,AUTO
         2 000742   000764 603000 2                  TRC     s:4439
         2 000743   200005 470500                    LDP0    @NUM,,AUTO
         2 000744   200012 236100                    LDQ     I,,AUTO
         2 000745   000000 116100                    CMPQ    0,,PR0
         2 000746   000764 603000 2                  TRC     s:4439
         2 000747   200003 471500                    LDP1    @DEF$,,AUTO
         2 000750   100000 473500                    LDP3    0,,PR1
         2 000751   200012 235100                    LDA     I,,AUTO
         2 000752   000001 735000                    ALS     1
         2 000753   300001 220105                    LDX0    1,AL,PR3
         2 000754   200006 474500                    LDP4    @NAME$,,AUTO
         2 000755   400000 475500                    LDP5    0,,PR4
         2 000756   500000 236110                    LDQ     0,X0,PR5
         2 000757   000022 772000                    QRL     18
PL6.E3A0      #001=LLP$PUTLO File=LLP$PUTLO.:E05TSI                              WED 07/30/97 03:16 Page:35
         2 000760   200021 036100                    ADLQ    CARRIAGE,,AUTO
         2 000761   000022 036007                    ADLQ    18,DL
         2 000762   200011 116100                    CMPQ    COLS,,AUTO
         2 000763   000246 602000 2                  TNC     s:4356

      204     4439    2           IF (I = NUM) THEN

   4439  2 000764   200005 470500                    LDP0    @NUM,,AUTO
         2 000765   200012 236100                    LDQ     I,,AUTO
         2 000766   000000 116100                    CMPQ    0,,PR0
         2 000767   000773 601000 2                  TNZ     s:4442

      205     4440    2               BUFFER.VFC_CHAR = 'C';

   4440  2 000770   103000 236003                    LDQ     34304,DU
         2 000771   000000 552040 0                  STBQ    BUFFER,'40'O
         2 000772   000775 710000 2                  TRA     s:4443

      206     4441    2           ELSE
      207     4442    2               BUFFER.VFC_CHAR = 'A';

   4442  2 000773   101000 236003                    LDQ     33280,DU
         2 000774   000000 552040 0                  STBQ    BUFFER,'40'O

      208     4443    3           IF (J > 0) THEN DO;

   4443  2 000775   200013 235100                    LDA     J,,AUTO
         2 000776   001006 600000 2                  TZE     s:4447

      209     4444    3               LL_LOBUF = BUF;

   4444  2 000777   040000 100400                    MLR     fill='040'O
         2 001000   000000 000147 0                  ADSC9   BUFFER                   cn=0,n=103
         2 001001   000000 000160 xsym               ADSC9   LL_LOBUF                 cn=0,n=112

      210     4445    3               CALL LLM$MON_SVC (LL#WRITELO);

PL6.E3A0      #001=LLP$PUTLO File=LLP$PUTLO.:E05TSI                              WED 07/30/97 03:16 Page:36
   4445  2 001002   000000 630400 3                  EPPR0   0
         2 001003   000017 631400 xsym               EPPR1   B_VECTNIL+15
         2 001004   000000 701000 xent               TSX1    LLM$MON_SVC
         2 001005   000000 011000                    NOP     0

      211     4446    3               END;

      212     4447    2           END;

   4447  2 001006   200005 470500                    LDP0    @NUM,,AUTO
         2 001007   200012 236100                    LDQ     I,,AUTO
         2 001010   000000 116100                    CMPQ    0,,PR0
         2 001011   000237 602000 2                  TNC     s:4350

      213     4448    1   END LLP$PUTLO;

   4448  2 001012   000000 702200 xent               TSX2  ! X66_ARET

PL6.E3A0      #001=LLP$PUTLO File=LLP$PUTLO.:E05TSI                              WED 07/30/97 03:16 Page:37
--  Include file information  --

   B$OBJECT_C.:E05TOU  is referenced.
   LL_SUBS_C.:E05TOU  is referenced.
   LL_DATA_R.:E05TOU  cannot be made into a system file and is referenced.
   LL_MACS_C.:E05TOU  is referenced.
      No diagnostics issued in procedure LLP$PUTLO.
PL6.E3A0      #001=LLP$PUTLO File=LLP$PUTLO.:E05TSI                              WED 07/30/97 03:16 Page:38

 **** Variables and constants ****

  ****  Section 000  Data  LLP$PUTLO

  ****  Scalars and arrays  ****
OctLoc.c.b A Datatyp(siz) R M Lvl/name                 OctLoc.c.b A Datatyp(siz) R M Lvl/name

     0-0-0/w CHAR(103)   r     1 BUF                        0-0-0/w STRC(927)   r     1 BUFFER
    32-0-0/c CHAR        r     1 SOURCE_ARY(0:6)

  ****  Auto variables  ****

  ****  Scalars and arrays  ****
OctLoc.c.b A Datatyp(siz) R M Lvl/name                 OctLoc.c.b A Datatyp(siz) R M Lvl/name

     3-0-0/w PTR         r     1 @DEF$                      6-0-0/w PTR         r     1 @NAME$
     4-0-0/w PTR         r     1 @NORV                      5-0-0/w PTR         r     1 @NUM
     7-0-0/w PTR         r     1 @TYPE                     21-0-0/w UBIN        r     1 CARRIAGE
    11-0-0/w UBIN        r     1 COLS                      *0-0-0/w PTR         r     1 DEF$
    12-0-0/w UBIN        r     1 I                         13-0-0/w UBIN        r     1 J
    14-0-0/w UBIN        r     1 K                         *0-0-0/w PTR         r     1 NAME$
    *0-0-0/w UBIN        r     1 NORV                      17-0-0/w UBIN        r     1 NPTR
    *0-0-0/w UBIN        r     1 NUM                       20-0-0/w UBIN        r     1 OPTR
    24-0-0/c CHAR(7)     r     1 STR7                      16-0-0/w UBIN        r     1 TEMP
    30-0-0/w STRC(72)    r     1 TEMP_EDEF                 22-0-0/w PTR         r     1 TPTR1$
    23-0-0/w PTR         r     1 TPTR2$                    *0-0-0/w UBIN        r     1 TYPE
    10-0-0/w UBIN        r     1 WID

  ****  SYMREF variables  ****

  ****  Scalars and arrays  ****
OctLoc.c.b A Datatyp(siz) R M Lvl/name                 OctLoc.c.b A Datatyp(siz) R M Lvl/name

     0-0-0/w STRC        r     1 LL_FLAGS                   0-0-0/w CHAR(112)   r     1 LL_LOBUF
     0-0-0/w BIT         r     1 LL_WIDE#

  ****  BASED and DCB variables  ****
PL6.E3A0      #001=LLP$PUTLO File=LLP$PUTLO.:E05TSI                              WED 07/30/97 03:16 Page:39

  ****  Scalars and arrays  ****
OctLoc.c.b A Datatyp(siz) R M Lvl/name                 OctLoc.c.b A Datatyp(siz) R M Lvl/name

     0-0-0/w ASTR(18)    r     1 B$DNAME
     0-0-0/w STRC(72)    r     1 EDEFARY(0:0)
     0-0-0/w ACHR        r     1 EDEFS                      0-0-0/w STRC(72)    r     1 LL_ENTDEF
     0-0-0/w STRC(72)    r     1 LL_SYMDEF                  0-0-0/w STRC        r     1 LL_UNSATREF


   Procedure LLP$PUTLO requires 523 words for executable code.
   Procedure LLP$PUTLO requires 30 words of local(AUTO) storage.

    No errors detected in file LLP$PUTLO.:E05TSI    .
PL6.E3A0      #001=LLP$PUTLO File=LLP$PUTLO.:E05TSI                              WED 07/30/97 03:16 Page:40
          *** CROSS REFERENCE LISTING ***
**     DENOTES     IDENTIFIER DEFINITION
<<                 IDENTIFIER'S VALUE SET
>>                 IDENTIFIER'S VALUE USED
<>                 IDENTIFIER SET AND/OR USED
--                 IDENTIFIER REFERENCED
PL6.E3A0      #001=LLP$PUTLO File=LLP$PUTLO.:E05TSI                              WED 07/30/97 03:16 Page:41
          MINI XREF LISTING

B$DNAME.COUNT
      4011**DCL      4018--IMP-SIZ  4353>>DOWHILE  4376>>IF       4377<<ASSIGN   4378<<ASSIGN   4378>>ASSIGN
      4380>>ASSIGN   4380>>ASSIGN   4390>>CALLBLT  4390>>CALLBLT  4413>>IF       4414<<ASSIGN   4415<<ASSIGN
      4415>>ASSIGN   4417>>ASSIGN   4417>>ASSIGN   4426>>CALLBLT  4426>>CALLBLT  4433>>ASSIGN   4434<<ASSIGN
B$DNAME.TEXT
      4018**DCL      4380<<ASSIGN   4380>>ASSIGN   4390>>CALLBLT  4390>>CALLBLT  4417<<ASSIGN   4417>>ASSIGN
      4426>>CALLBLT  4426>>CALLBLT
BUF
        35**DCL      4352<<ASSIGN   4390<<CALLBLT  4426<<CALLBLT  4444>>ASSIGN
BUFFER
        22**DCL        35--REDEF
BUFFER.ENTRIES.ADRS
        26**DCL      4373<<ASSIGN   4410<<ASSIGN
BUFFER.ENTRIES.CONST
        28**DCL      4364<<ASSIGN   4401<<ASSIGN
BUFFER.ENTRIES.FILLER
        32**DCL      4378--ASSIGN   4380--ASSIGN   4380--ASSIGN   4415--ASSIGN   4417--ASSIGN   4417--ASSIGN
      4433--ASSIGN   4434--ASSIGN
BUFFER.ENTRIES.MULTDEF
        30**DCL      4368<<ASSIGN   4405<<ASSIGN
BUFFER.ENTRIES.SOURCE
        31**DCL      4370<<ASSIGN   4407<<ASSIGN
BUFFER.ENTRIES.UNUSED
        29**DCL      4366<<ASSIGN   4403<<ASSIGN
BUFFER.VFC_CHAR
        23**DCL      4440<<ASSIGN   4442<<ASSIGN
CARRIAGE
        45**DCL      4351<<ASSIGN   4353>>DOWHILE  4435<<ASSIGN   4435>>ASSIGN   4436>>ASSIGN
COLS
        37**DCL      4302<<ASSIGN   4306<<ASSIGN   4353>>DOWHILE
DEF$
        17**DCL        16--PROC     4229--IMP-PTR  4334>>ASSIGN   4336>>IF       4341>>ASSIGN   4341>>ASSIGN
PL6.E3A0      #001=LLP$PUTLO File=LLP$PUTLO.:E05TSI                              WED 07/30/97 03:16 Page:42
      4342>>ASSIGN   4353>>DOWHILE  4358>>ASSIGN   4383>>ASSIGN   4396>>ASSIGN   4420>>ASSIGN
EDEFARY
      4229**DCL      4334>>ASSIGN   4341--ASSIGN   4341--ASSIGN   4342<<ASSIGN
EDEFARY.ISADDR
      4252**DCL      4336>>IF
EDEFARY.OU
      4246**DCL      4252--REDEF
EDEFS
      4298**DCL      4341<<ASSIGN   4341>>ASSIGN
I
        38**DCL      4311<<ASSIGN   4314<<ASSIGN   4317<<ASSIGN   4320<<ASSIGN   4323<<ASSIGN   4325>>IF
      4328>>CALLBLT  4330>>CALLBLT  4331<<ASSIGN   4332>>IF       4332>>DOUNTIL  4333<<ASSIGN   4333>>ASSIGN
      4334>>ASSIGN   4335>>DOINDEX  4339>>ASSIGN   4341>>ASSIGN   4341>>ASSIGN   4348<<ASSIGN   4349>>DOWHILE
      4353>>DOWHILE  4353>>DOWHILE  4358>>ASSIGN   4383>>ASSIGN   4396>>ASSIGN   4420>>ASSIGN   4437<<ASSIGN
      4437>>ASSIGN   4439>>IF
INCR_I
      4437**LABEL    4361--GOTO     4363--GOTO     4399--GOTO
J
        39**DCL      4335<<DOINDEX  4336>>IF       4339>>ASSIGN   4342>>ASSIGN   4350<<ASSIGN   4353>>DOWHILE
      4364>>ASSIGN   4366>>ASSIGN   4368>>ASSIGN   4370>>ASSIGN   4373>>ASSIGN   4378>>ASSIGN   4380>>ASSIGN
      4380>>ASSIGN   4385<<ASSIGN   4401>>ASSIGN   4403>>ASSIGN   4405>>ASSIGN   4407>>ASSIGN   4410>>ASSIGN
      4415>>ASSIGN   4417>>ASSIGN   4417>>ASSIGN   4430<<ASSIGN   4433>>ASSIGN   4434>>ASSIGN   4436<<ASSIGN
      4443>>IF
K
        40**DCL      4298--IMP-SIZ  4339<<ASSIGN   4340>>IF       4341>>ASSIGN   4341>>ASSIGN
LLI$BINHEX
        46**DCL-ENT  4372--CALL     4409--CALL
LLM$MON_SVC
        47**DCL-ENT  4346--CALL     4445--CALL
LL_ENTDEF.ISADDR
      4045**DCL      4362>>IF       4371>>ASSIGN
LL_ENTDEF.LFLAGS.MULTIPLE
      4031**DCL      4367>>IF
LL_ENTDEF.LFLAGS.SOURCE
      4027**DCL      4369>>ASSIGN
LL_ENTDEF.LFLAGS.USED
PL6.E3A0      #001=LLP$PUTLO File=LLP$PUTLO.:E05TSI                              WED 07/30/97 03:16 Page:43
      4033**DCL      4359>>IF       4365>>IF
LL_ENTDEF.NPOINTER
      4047**DCL      4374>>ASSIGN
LL_ENTDEF.OU
      4039**DCL      4045--REDEF
LL_FLAGS.BIAS_OU
       418**DCL      4362>>IF
LL_FLAGS.UDEF#
       417**DCL      4359>>IF       4397>>IF
LL_LOBUF
       415**DCL      4310<<ASSIGN   4313<<ASSIGN   4316<<ASSIGN   4319<<ASSIGN   4322<<ASSIGN   4328<<CALLBLT
      4330<<CALLBLT  4444<<ASSIGN
LL_SYMDEF.AD.ISADDR
      4118**DCL      4408>>ASSIGN
LL_SYMDEF.AD.OU
      4112**DCL      4118--REDEF
LL_SYMDEF.CONSTNT
      4123**DCL      4400>>IF
LL_SYMDEF.LFLAGS.MULTIPLE
      4132**DCL      4404>>IF
LL_SYMDEF.LFLAGS.SOURCE
      4136**DCL      4406>>ASSIGN
LL_SYMDEF.LFLAGS.USED
      4134**DCL      4397>>IF       4402>>IF
LL_SYMDEF.NPOINTER
      4120**DCL      4353>>DOWHILE  4411>>ASSIGN
LL_SYMDEF.VALUE
      4093**DCL      4096--REDEF
LL_UNSATREF.NPOINTER
      4147**DCL      4386>>ASSIGN   4422>>ASSIGN
LL_UNSATREF.OPOINTER
      4153**DCL      4387>>ASSIGN   4423>>ASSIGN
LL_UNSATREF.SREF
      4151**DCL      4384>>IF       4421>>IF
LL_WIDE#
       429**DCL      4300>>IF
PL6.E3A0      #001=LLP$PUTLO File=LLP$PUTLO.:E05TSI                              WED 07/30/97 03:16 Page:44
NAME$
        20**DCL        16--PROC     4353>>DOWHILE  4375>>ASSIGN   4388>>ASSIGN   4389>>ASSIGN   4412>>ASSIGN
      4424>>ASSIGN   4425>>ASSIGN
NORV
        18**DCL        16--PROC     4326>>DOCASE
NPTR
        43**DCL      4386<<ASSIGN   4388>>ASSIGN   4422<<ASSIGN   4424>>ASSIGN
NUM
        19**DCL        16--PROC     4331>>ASSIGN   4335>>DOINDEX  4349>>DOWHILE  4353>>DOWHILE  4439>>IF
OPTR
        44**DCL      4387<<ASSIGN   4389>>ASSIGN   4423<<ASSIGN   4425>>ASSIGN
SOURCE_ARY
        51**DCL      4370>>ASSIGN   4407>>ASSIGN
STR7
        50**DCL      4372<>CALL     4373>>ASSIGN   4409<>CALL     4410>>ASSIGN
TEMP
        42**DCL      4369<<ASSIGN   4370>>ASSIGN   4371<<ASSIGN   4372<>CALL     4374<<ASSIGN   4375>>ASSIGN
      4406<<ASSIGN   4407>>ASSIGN   4408<<ASSIGN   4409<>CALL     4411<<ASSIGN   4412>>ASSIGN   4433<<ASSIGN
      4435>>ASSIGN
TEMP_EDEF
      4159**DCL      4334<<ASSIGN   4339--ASSIGN   4342>>ASSIGN
TEMP_EDEF.ISADDR
      4182**DCL      4336>>IF
TEMP_EDEF.OU
      4176**DCL      4182--REDEF
TPTR1$
        48**DCL      4358<<ASSIGN   4359>>IF       4362>>IF       4365>>IF       4367>>IF       4369>>ASSIGN
      4371>>ASSIGN   4374>>ASSIGN   4375<<ASSIGN   4376>>IF       4377>>ASSIGN   4378>>ASSIGN   4380>>ASSIGN
      4380>>ASSIGN   4383<<ASSIGN   4384>>IF       4386>>ASSIGN   4388<<ASSIGN   4390>>CALLBLT  4390>>CALLBLT
      4396<<ASSIGN   4397>>IF       4400>>IF       4402>>IF       4404>>IF       4406>>ASSIGN   4408>>ASSIGN
      4411>>ASSIGN   4412<<ASSIGN   4413>>IF       4414>>ASSIGN   4415>>ASSIGN   4417>>ASSIGN   4417>>ASSIGN
      4420<<ASSIGN   4421>>IF       4422>>ASSIGN   4423>>ASSIGN   4424<<ASSIGN   4426>>CALLBLT  4426>>CALLBLT
TPTR2$
        49**DCL      4387>>ASSIGN   4389<<ASSIGN   4390>>CALLBLT  4390>>CALLBLT  4425<<ASSIGN   4426>>CALLBLT
      4426>>CALLBLT
TYPE
PL6.E3A0      #001=LLP$PUTLO File=LLP$PUTLO.:E05TSI                              WED 07/30/97 03:16 Page:45
        21**DCL        16--PROC     4308>>DOCASE   4356>>DOCASE
WID
        36**DCL      4301<<ASSIGN   4305<<ASSIGN   4353>>DOWHILE
