VERSION E05

PL6.E3A0      #001=LLR$RESDEF File=LLR$RESDEF.:E05TSI                            WED 07/30/97 03:17 Page:1
        1        1        /*M* LLR$RESDEF - Resolve defs                                      */
        2        2        /*T***********************************************************/
        3        3        /*T*                                                         */
        4        4        /*T* Copyright (c) Bull HN Information Systems Inc., 1997    */
        5        5        /*T*                                                         */
        6        6        /*T***********************************************************/
        7        7        /*X* PLM=4,STI=0,IND=4,CTI=3,DCI=4,ECI=4,CSI=0,THI=0,DTI=0,ENI=4,
        8        8             CLM=0,SQB,NTB,MOC,CCI=3,NLB,MCL=0,EDMC*/
        9        9        /*F* NAME:         LLR$RESDEF
       10       10             PURPOSE:      Resolves external definitions by walking down the
       11       11                           symbol table structure and evaluating addresses
       12       12                           one by one "until done".                         */
       13       13        LLR$RESDEF: PROC (TYPE, N, NPTR, DPTR$, SPTR$, SOURCE);
       14       14        %INCLUDE B$OBJECT_C;
       15     3444        %INCLUDE LL_MACS_C;
       16     3798        %B$FEP_SECTION ( NAME = LL_SECTION );
       17     3837        %B$EDEF ( NAME = LL_ENTDEF );
       18     3907        %B$SDEF ( NAME = LL_SYMDEF );
       19     3961        %B$RECORDSUBS;
       20     3989        %B$EDEF;
       21     4059        %B$SDEF;
       22     4113    1   DCL TYPE UBIN WORD ALIGNED; /* Def type */
       23     4114    1   DCL N UBIN WORD ALIGNED; /* Number of defs */
       24     4115    1   DCL NPTR SBIN WORD ALIGNED; /* Primary name pointer returned */
       25     4116    1   DCL DPTR$ PTR; /* Pointer to def entries */
       26     4117    1   DCL SPTR$ PTR; /* Pointer to section entries */
       27     4118    1   DCL SOURCE UBIN WORD ALIGNED; /* Object unit source */
       28     4119    1   DCL I UBIN WORD ALIGNED;
       29     4120    1   DCL TPTR1$ PTR;
       30     4121    1   DCL TPTR2$ PTR;
       31     4122        %EJECT;
PL6.E3A0      #001=LLR$RESDEF File=LLR$RESDEF.:E05TSI                            WED 07/30/97 03:17 Page:2
       32     4123    1   BEGIN:
       33     4124    1       NPTR = -1;
       34     4125    2       DO I = 0 TO (N - 1) * SIZEW(LL_ENTDEF) BY SIZEW(LL_ENTDEF);
       35     4126    2           TPTR1$ = PINCRW (DPTR$, I);
       36     4127    3           IF TYPE = %TYPEDEF THEN DO;
       37     4128    3               TPTR1$ -> LL_ENTDEF.LFLAGS.USED = '0'B;
       38     4129    3               IF (TPTR1$ -> B$EDEF.PRI) THEN
       39     4130    3                   NPTR = TPTR1$ -> B$EDEF.NPOINTER;
       40     4131    3               TPTR1$ -> LL_ENTDEF.LFLAGS.SOURCE = SOURCE;
       41     4132    3               TPTR2$ = PINCRW(SPTR$, TPTR1$ -> B$EDEF.OU.SECTNUM * 2);
       42     4133    3               TPTR1$ -> LL_ENTDEF.ISADDR =
       43     4134    3                  TPTR2$ -> LL_SECTION.ISADDR +
       44     4135    3                  TPTR1$ -> B$EDEF.OU.OFFSET;
       45     4136    3               END;
       46     4137    3           ELSE DO;
       47     4138    3               TPTR1$ -> LL_SYMDEF.LFLAGS.USED = '0'B;
       48     4139    3               TPTR1$ -> LL_SYMDEF.LFLAGS.SOURCE = SOURCE;
       49     4140    4               IF (~TPTR1$ -> LL_SYMDEF.CONSTNT) THEN DO;
       50     4141    4                   TPTR2$ = PINCRW (SPTR$, TPTR1$ -> B$SDEF.AD.OU.SECTNUM * 2);
       51     4142    4                   TPTR1$ -> LL_SYMDEF.AD.ISADDR =
       52     4143    4                      TPTR2$ -> LL_SECTION.ISADDR +
       53     4144    4                      TPTR1$ -> B$SDEF.AD.OU.OFFSET;
       54     4145    4                   END;
       55     4146    3               END;
       56     4147    2           END;
       57     4148    1       RETURN;
       58     4149    1   END LLR$RESDEF;

PL6.E3A0      #001=LLR$RESDEF File=LLR$RESDEF.:E05TSI                            WED 07/30/97 03:17 Page:3
--  Include file information  --

   LL_MACS_C.:E05TOU  is referenced.
   B$OBJECT_C.:E05TOU  is referenced.
      No diagnostics issued in procedure LLR$RESDEF.

   Procedure LLR$RESDEF requires 86 words for executable code.
   Procedure LLR$RESDEF requires 14 words of local(AUTO) storage.

    No errors detected in file LLR$RESDEF.:E05TSI    .

PL6.E3A0      #001=LLR$RESDEF File=LLR$RESDEF.:E05TSI                            WED 07/30/97 03:17 Page:4

 Object Unit name= LLR$RESDEF                                 File name= LLR$RESDEF.:E05TOU
 UTS= JUL 30 '97 03:17:07.04 WED                              Compiler= PL-6/E31         Sev=      00
 SharedLib= :SHARED_SYSTEM                                    Alt SharedLib=


    ****  Control sections  ****

 Sect   Type Bound  Init  Size OctSiz  Section name(segment info)
    0   Proc  even  none    86    126  LLR$RESDEF
    1  RoData even  none     2      2  LLR$RESDEF

    ****  Entry defs  ****

                              Check   Calling
                             calling  sequence
  Sect OctLoc Primary Altret sequence   type   Parms  Name
     0      0   yes            yes      Std        6  LLR$RESDEF

  ****  Entry refs  ****

         Check        Calling
        calling       sequence
Altret sequence SRef   type   Args  Name
                       nStd      0 X66_AUTO_N
                       Std       0 B_CONSPOOL_D
                       nStd      0 X66_ARET

  ****  Data refs  ****

  Flags:  r = read only, s = secondary
Flgs Name                             Flgs Name                             Flgs Name
     B_VECTNIL
PL6.E3A0      #001=LLR$RESDEF File=LLR$RESDEF.:E05TSI                            WED 07/30/97 03:17 Page:5


        1        1        /*M* LLR$RESDEF - Resolve defs                                      */
        2        2        /*T***********************************************************/
        3        3        /*T*                                                         */
        4        4        /*T* Copyright (c) Bull HN Information Systems Inc., 1997    */
        5        5        /*T*                                                         */
        6        6        /*T***********************************************************/
        7        7        /*X* PLM=4,STI=0,IND=4,CTI=3,DCI=4,ECI=4,CSI=0,THI=0,DTI=0,ENI=4,
        8        8             CLM=0,SQB,NTB,MOC,CCI=3,NLB,MCL=0,EDMC*/
        9        9        /*F* NAME:         LLR$RESDEF
       10       10             PURPOSE:      Resolves external definitions by walking down the
       11       11                           symbol table structure and evaluating addresses
       12       12                           one by one "until done".                         */
       13       13        LLR$RESDEF: PROC (TYPE, N, NPTR, DPTR$, SPTR$, SOURCE);

     13  0 000000   000000 700200 xent  LLR$RESDEF   TSX0  ! X66_AUTO_N
         0 000001   000016 000006                    ZERO    14,6

       14       14        %INCLUDE B$OBJECT_C;
       15     3444        %INCLUDE LL_MACS_C;
       16     3798        %B$FEP_SECTION ( NAME = LL_SECTION );
       17     3837        %B$EDEF ( NAME = LL_ENTDEF );
       18     3907        %B$SDEF ( NAME = LL_SYMDEF );
       19     3961        %B$RECORDSUBS;
       20     3989        %B$EDEF;
       21     4059        %B$SDEF;
       22     4113    1   DCL TYPE UBIN WORD ALIGNED; /* Def type */
       23     4114    1   DCL N UBIN WORD ALIGNED; /* Number of defs */
       24     4115    1   DCL NPTR SBIN WORD ALIGNED; /* Primary name pointer returned */
       25     4116    1   DCL DPTR$ PTR; /* Pointer to def entries */
       26     4117    1   DCL SPTR$ PTR; /* Pointer to section entries */
       27     4118    1   DCL SOURCE UBIN WORD ALIGNED; /* Object unit source */
       28     4119    1   DCL I UBIN WORD ALIGNED;
       29     4120    1   DCL TPTR1$ PTR;
       30     4121    1   DCL TPTR2$ PTR;
       31     4122        %EJECT;
PL6.E3A0      #001=LLR$RESDEF File=LLR$RESDEF.:E05TSI                            WED 07/30/97 03:17 Page:6
       32     4123    1   BEGIN:
       33     4124    1       NPTR = -1;

   4124  0 000002   000001 335007       BEGIN        LCA     1,DL
         0 000003   200005 470500                    LDP0    @NPTR,,AUTO
         0 000004   000000 755100                    STA     0,,PR0

       34     4125    2       DO I = 0 TO (N - 1) * SIZEW(LL_ENTDEF) BY SIZEW(LL_ENTDEF);

   4125  0 000005   200011 450100                    STZ     I,,AUTO
         0 000006   000116 710000 0                  TRA     s:4147+3

       35     4126    2           TPTR1$ = PINCRW (DPTR$, I);

   4126  0 000007   200006 470500                    LDP0    @DPTR$,,AUTO
         0 000010   000000 471500                    LDP1    0,,PR0
         0 000011   200011 720100                    LXL0    I,,AUTO
         0 000012   100000 633510                    EPPR3   0,X0,PR1
         0 000013   200012 453500                    STP3    TPTR1$,,AUTO

       36     4127    3           IF TYPE = %TYPEDEF THEN DO;

   4127  0 000014   200003 474500                    LDP4    @TYPE,,AUTO
         0 000015   400000 235100                    LDA     0,,PR4
         0 000016   000004 115007                    CMPA    4,DL
         0 000017   000057 601000 0                  TNZ     s:4138

       37     4128    3               TPTR1$ -> LL_ENTDEF.LFLAGS.USED = '0'B;

   4128  0 000020   000000 236000 1                  LDQ     0
         0 000021   300000 356100                    ANSQ    0,,PR3

       38     4129    3               IF (TPTR1$ -> B$EDEF.PRI) THEN

   4129  0 000022   300001 236100                    LDQ     1,,PR3
         0 000023   400000 316007                    CANQ    -131072,DL
         0 000024   000031 600000 0                  TZE     s:4131
PL6.E3A0      #001=LLR$RESDEF File=LLR$RESDEF.:E05TSI                            WED 07/30/97 03:17 Page:7

       39     4130    3                   NPTR = TPTR1$ -> B$EDEF.NPOINTER;

   4130  0 000025   300001 236100                    LDQ     1,,PR3
         0 000026   000022 732000                    QRS     18
         0 000027   200005 471500                    LDP1    @NPTR,,AUTO
         0 000030   100000 756100                    STQ     0,,PR1

       40     4131    3               TPTR1$ -> LL_ENTDEF.LFLAGS.SOURCE = SOURCE;

   4131  0 000031   200010 471500                    LDP1    @SOURCE,,AUTO
         0 000032   100000 236100                    LDQ     0,,PR1
         0 000033   000041 736000                    QLS     33
         0 000034   300000 676100                    ERQ     0,,PR3
         0 000035   700000 376003                    ANQ     -32768,DU
         0 000036   300000 656100                    ERSQ    0,,PR3

       41     4132    3               TPTR2$ = PINCRW(SPTR$, TPTR1$ -> B$EDEF.OU.SECTNUM * 2);

   4132  0 000037   300000 221100                    LDX1    0,,PR3
         0 000040   000777 361003                    ANX1    511,DU
         0 000041   200007 475500                    LDP5    @SPTR$,,AUTO
         0 000042   500000 476500                    LDP6    0,,PR5
         0 000043   000000 635011                    EAA     0,X1
         0 000044   000021 771000                    ARL     17
         0 000045   600000 637505                    EPPR7   0,AL,PR6
         0 000046   200013 457500                    STP7    TPTR2$,,AUTO

       42     4133    3               TPTR1$ -> LL_ENTDEF.ISADDR =

   4133  0 000047   300000 236100                    LDQ     0,,PR3
         0 000050   777777 376007                    ANQ     -1,DL
         0 000051   200014 756100                    STQ     TPTR2$+1,,AUTO
         0 000052   700000 236100                    LDQ     0,,PR7
         0 000053   000032 376000 xsym               ANQ     B_VECTNIL+26
         0 000054   200014 036100                    ADLQ    TPTR2$+1,,AUTO
         0 000055   300000 552134                    STBQ    0,'34'O,PR3
PL6.E3A0      #001=LLR$RESDEF File=LLR$RESDEF.:E05TSI                            WED 07/30/97 03:17 Page:8

       43     4134    3                  TPTR2$ -> LL_SECTION.ISADDR +
       44     4135    3                  TPTR1$ -> B$EDEF.OU.OFFSET;
       45     4136    3               END;

   4136  0 000056   000113 710000 0                  TRA     s:4147

       46     4137    3           ELSE DO;

       47     4138    3               TPTR1$ -> LL_SYMDEF.LFLAGS.USED = '0'B;

   4138  0 000057   000001 236000 1                  LDQ     1
         0 000060   300001 356100                    ANSQ    1,,PR3

       48     4139    3               TPTR1$ -> LL_SYMDEF.LFLAGS.SOURCE = SOURCE;

   4139  0 000061   200010 471500                    LDP1    @SOURCE,,AUTO
         0 000062   100000 236100                    LDQ     0,,PR1
         0 000063   000013 736000                    QLS     11
         0 000064   300001 676100                    ERQ     1,,PR3
         0 000065   074000 376007                    ANQ     30720,DL
         0 000066   300001 656100                    ERSQ    1,,PR3

       49     4140    4               IF (~TPTR1$ -> LL_SYMDEF.CONSTNT) THEN DO;

   4140  0 000067   300001 236100                    LDQ     1,,PR3
         0 000070   000022 736000                    QLS     18
         0 000071   400000 376003                    ANQ     -131072,DU
         0 000072   400000 676003                    ERQ     -131072,DU
         0 000073   000113 600000 0                  TZE     s:4147

       50     4141    4                   TPTR2$ = PINCRW (SPTR$, TPTR1$ -> B$SDEF.AD.OU.SECTNUM * 2);

   4141  0 000074   300000 221100                    LDX1    0,,PR3
         0 000075   000777 361003                    ANX1    511,DU
         0 000076   200007 475500                    LDP5    @SPTR$,,AUTO
         0 000077   500000 476500                    LDP6    0,,PR5
PL6.E3A0      #001=LLR$RESDEF File=LLR$RESDEF.:E05TSI                            WED 07/30/97 03:17 Page:9
         0 000100   000000 635011                    EAA     0,X1
         0 000101   000021 771000                    ARL     17
         0 000102   600000 637505                    EPPR7   0,AL,PR6
         0 000103   200013 457500                    STP7    TPTR2$,,AUTO

       51     4142    4                   TPTR1$ -> LL_SYMDEF.AD.ISADDR =

   4142  0 000104   300000 236100                    LDQ     0,,PR3
         0 000105   777777 376007                    ANQ     -1,DL
         0 000106   200014 756100                    STQ     TPTR2$+1,,AUTO
         0 000107   700000 236100                    LDQ     0,,PR7
         0 000110   000032 376000 xsym               ANQ     B_VECTNIL+26
         0 000111   200014 036100                    ADLQ    TPTR2$+1,,AUTO
         0 000112   300000 552134                    STBQ    0,'34'O,PR3

       52     4143    4                      TPTR2$ -> LL_SECTION.ISADDR +
       53     4144    4                      TPTR1$ -> B$SDEF.AD.OU.OFFSET;
       54     4145    4                   END;

       55     4146    3               END;

       56     4147    2           END;

   4147  0 000113   200011 235100                    LDA     I,,AUTO
         0 000114   000002 035007                    ADLA    2,DL
         0 000115   200011 755100                    STA     I,,AUTO
         0 000116   200004 470500                    LDP0    @N,,AUTO
         0 000117   000000 236100                    LDQ     0,,PR0
         0 000120   000001 736000                    QLS     1
         0 000121   000002 136007                    SBLQ    2,DL
         0 000122   000125 604000 0                  TMI     s:4148
         0 000123   200011 116100                    CMPQ    I,,AUTO
         0 000124   000007 603000 0                  TRC     s:4126

       57     4148    1       RETURN;

   4148  0 000125   000000 702200 xent               TSX2  ! X66_ARET
PL6.E3A0      #001=LLR$RESDEF File=LLR$RESDEF.:E05TSI                            WED 07/30/97 03:17 Page:10
       58     4149    1   END LLR$RESDEF;

PL6.E3A0      #001=LLR$RESDEF File=LLR$RESDEF.:E05TSI                            WED 07/30/97 03:17 Page:11
--  Include file information  --

   LL_MACS_C.:E05TOU  is referenced.
   B$OBJECT_C.:E05TOU  is referenced.
      No diagnostics issued in procedure LLR$RESDEF.
PL6.E3A0      #001=LLR$RESDEF File=LLR$RESDEF.:E05TSI                            WED 07/30/97 03:17 Page:12

 **** Variables and constants ****

  ****  Auto variables  ****

  ****  Scalars and arrays  ****
OctLoc.c.b A Datatyp(siz) R M Lvl/name                 OctLoc.c.b A Datatyp(siz) R M Lvl/name

     6-0-0/w PTR         r     1 @DPTR$                     4-0-0/w PTR         r     1 @N
     5-0-0/w PTR         r     1 @NPTR                     10-0-0/w PTR         r     1 @SOURCE
     7-0-0/w PTR         r     1 @SPTR$                     3-0-0/w PTR         r     1 @TYPE
    *0-0-0/w PTR         r     1 DPTR$                     11-0-0/w UBIN        r     1 I
    *0-0-0/w UBIN        r     1 N                         *0-0-0/w SBIN        r     1 NPTR
    *0-0-0/w UBIN        r     1 SOURCE                    *0-0-0/w PTR         r     1 SPTR$
    12-0-0/w PTR         r     1 TPTR1$                    13-0-0/w PTR         r     1 TPTR2$
    *0-0-0/w UBIN        r     1 TYPE

  ****  BASED and DCB variables  ****

  ****  Scalars and arrays  ****
OctLoc.c.b A Datatyp(siz) R M Lvl/name                 OctLoc.c.b A Datatyp(siz) R M Lvl/name

     0-0-0/w STRC(72)    r     1 B$EDEF                     0-0-0/w STRC(72)    r     1 B$SDEF
     0-0-0/w STRC(72)    r     1 LL_ENTDEF                  0-0-0/w STRC(72)    r     1 LL_SECTION
     0-0-0/w STRC(72)    r     1 LL_SYMDEF


   Procedure LLR$RESDEF requires 86 words for executable code.
   Procedure LLR$RESDEF requires 14 words of local(AUTO) storage.

    No errors detected in file LLR$RESDEF.:E05TSI    .
PL6.E3A0      #001=LLR$RESDEF File=LLR$RESDEF.:E05TSI                            WED 07/30/97 03:17 Page:13
          *** CROSS REFERENCE LISTING ***
**     DENOTES     IDENTIFIER DEFINITION
<<                 IDENTIFIER'S VALUE SET
>>                 IDENTIFIER'S VALUE USED
<>                 IDENTIFIER SET AND/OR USED
--                 IDENTIFIER REFERENCED
PL6.E3A0      #001=LLR$RESDEF File=LLR$RESDEF.:E05TSI                            WED 07/30/97 03:17 Page:14
          MINI XREF LISTING

B$EDEF.NPOINTER
      4015**DCL      4130>>ASSIGN
B$EDEF.OU
      4007**DCL      4013--REDEF
B$EDEF.OU.OFFSET
      4011**DCL      4133>>ASSIGN
B$EDEF.OU.SECTNUM
      4008**DCL      4132>>ASSIGN
B$EDEF.PRI
      4018**DCL      4129>>IF
B$SDEF.AD.OU
      4080**DCL      4086--REDEF
B$SDEF.AD.OU.OFFSET
      4084**DCL      4142>>ASSIGN
B$SDEF.AD.OU.SECTNUM
      4081**DCL      4141>>ASSIGN
B$SDEF.VALUE
      4061**DCL      4064--REDEF
DPTR$
      4116**DCL        13--PROC     4126>>ASSIGN
I
      4119**DCL      4125<<DOINDEX  4126>>ASSIGN
LL_ENTDEF
      3838**DCL      4125--DOINDEX  4125--DOINDEX
LL_ENTDEF.ISADDR
      3861**DCL      4133<<ASSIGN
LL_ENTDEF.LFLAGS.SOURCE
      3843**DCL      4131<<ASSIGN
LL_ENTDEF.LFLAGS.USED
      3849**DCL      4128<<ASSIGN
LL_ENTDEF.OU
      3855**DCL      3861--REDEF
PL6.E3A0      #001=LLR$RESDEF File=LLR$RESDEF.:E05TSI                            WED 07/30/97 03:17 Page:15
LL_SECTION.ISADDR
      3828**DCL      4133>>ASSIGN   4142>>ASSIGN
LL_SYMDEF.AD.ISADDR
      3934**DCL      4142<<ASSIGN
LL_SYMDEF.AD.OU
      3928**DCL      3934--REDEF
LL_SYMDEF.CONSTNT
      3939**DCL      4140>>IF
LL_SYMDEF.LFLAGS.SOURCE
      3952**DCL      4139<<ASSIGN
LL_SYMDEF.LFLAGS.USED
      3950**DCL      4138<<ASSIGN
LL_SYMDEF.VALUE
      3909**DCL      3912--REDEF
N
      4114**DCL        13--PROC     4125>>DOINDEX
NPTR
      4115**DCL        13--PROC     4124<<ASSIGN   4130<<ASSIGN
SOURCE
      4118**DCL        13--PROC     4131>>ASSIGN   4139>>ASSIGN
SPTR$
      4117**DCL        13--PROC     4132>>ASSIGN   4141>>ASSIGN
TPTR1$
      4120**DCL      4126<<ASSIGN   4128>>ASSIGN   4129>>IF       4130>>ASSIGN   4131>>ASSIGN   4132>>ASSIGN
      4133>>ASSIGN   4133>>ASSIGN   4138>>ASSIGN   4139>>ASSIGN   4140>>IF       4141>>ASSIGN   4142>>ASSIGN
      4142>>ASSIGN
TPTR2$
      4121**DCL      4132<<ASSIGN   4133>>ASSIGN   4141<<ASSIGN   4142>>ASSIGN
TYPE
      4113**DCL        13--PROC     4127>>IF
