VERSION E05

PL6.E3A0      #001=LL_DATA_D File=LL_DATA_D.:E05TSI                              WED 07/30/97 03:18 Page:1
        1        1        /*M* LL_DATA_D - Global data definitions for FEPLINK                */
        2        2        /*T***********************************************************/
        3        3        /*T*                                                         */
        4        4        /*T* Copyright (c) Bull HN Information Systems Inc., 1997    */
        5        5        /*T*                                                         */
        6        6        /*T***********************************************************/
        7        7        /*X* PLM=4,STI=0,IND=4,CTI=3,DCI=4,ECI=4,CSI=0,THI=0,DTI=0,ENI=4,
        8        8             CLM=0,SQB,NTB,MOC,CCI=3,NLB,MCL=0,EDMC*/
        9        9        LL_DATA_D: PROC;
       10       10         /* ! ! */
       11       11        %INCLUDE B$OBJECT_C;
       12     3441        %INCLUDE GM_VIRTUAL_E;
       13     3651        %INCLUDE LL_MACS_C;
       14     4005        %B$HEAD ( NAME = LL_HEAD,
       15     4006         STCLASS = STATIC SYMDEF );
       16     4206        %B$RUHEADKEY ( STCLASS= "STATIC SYMDEF");
       17     4213        %B$RUBIRTH (STCLASS = "STATIC SYMDEF");
       18     4222         /* !R! */
       19     4223    1   DCL LL_OF$ PTR STATIC SYMDEF;
       20     4224    1   DCL LL_LOBUF CHAR(112) ALIGNED STATIC SYMDEF;
       21     4225    1   DCL LL_DOBUF CHAR(112) ALIGNED STATIC SYMDEF;
       22     4226    1   DCL 1 LL_FLAGS ALIGNED STATIC SYMDEF,
       23     4227    1         2 * BIT(1) UNAL INIT ('0'B),
       24     4228    1         2 START# BIT(1) UNAL INIT ('0'B),
       25     4229    1         2 BIAS# BIT(1) UNAL INIT ('0'B),
       26     4230    1         2 NODEBUG# BIT(1) UNAL INIT ('0'B),
       27     4231    1         2 NOEDITING# BIT(1) UNAL INIT ('0'B),
       28     4232    1         2 * BIT(1) UNAL INIT ('0'B),
       29     4233    1         2 MAP# BIT(1) UNAL INIT ('0'B),
       30     4234    1         2 * BIT(1) UNAL INIT ('0'B),
       31     4235    1         2 CON_OPT# BIT(1) UNAL INIT ('0'B),
       32     4236    1         2 * BIT(1) UNAL INIT ('0'B),
       33     4237    1         2 BAD_HEX# BIT(1) UNAL INIT ('0'B),
       34     4238    1         2 OVER# BIT(1) UNAL INIT ('0'B),
       35     4239    1         2 NAME# BIT(1) UNAL INIT ('0'B),
       36     4240    1         2 VALUE# BIT(1) UNAL INIT ('0'B),
       37     4241    1         2 UDEF# BIT(1) UNAL INIT ('0'B),
PL6.E3A0      #001=LL_DATA_D File=LL_DATA_D.:E05TSI                              WED 07/30/97 03:18 Page:2
       38     4242    1         2 EMPTY# BIT(1) UNAL INIT ('0'B),
       39     4243    1         2 LINK_FID# BIT(1) UNAL INIT ('0'B),
       40     4244    1         2 VAL_ERR# BIT(1) UNAL INIT ('0'B),
       41     4245    1         2 NOSH# BIT(1) UNAL INIT('0'B),
       42     4246    1         2 NOALT# BIT(1) UNAL INIT('0'B),
       43     4247    1         2 REJECT# BIT(1) UNAL INIT('0'B),
       44     4248    1         2 BIAS_OU BIT(1) UNAL INIT('0'B),
       45     4249    1         2 NOLIST# BIT(1) UNAL INIT('0'B),
       46     4250    1         2 SLIB# BIT(1) UNAL INIT('0'B),
       47     4251    1         2 SHARELIB# BIT(1) UNAL INIT('0'B),
       48     4252    1         2 * BIT(1) UNAL INIT('0'B),
       49     4253    1         2 DCBSLOT# BIT(1) UNAL INIT('0'B),
       50     4254    1         2 TCB# BIT(1) UNAL INIT('0'B),
       51     4255    1         2 VECTOR# BIT(1) UNAL INIT('0'B),
       52     4256    1         2 * BIT(1) UNAL INIT('0'B),
       53     4257    1         2 REMOVE_E# BIT(1) UNAL INIT('0'B),
       54     4258    1         2 REMOVE_S# BIT(1) UNAL INIT('0'B),
       55     4259    1         2 RF# BIT(1) UNAL INIT('0'B),
       56     4260    1         2 * BIT(1) UNAL INIT('0'B),
       57     4261    1         2 * BIT(1) UNAL INIT('0'B),
       58     4262    1         2 * BIT(1) UNAL INIT('0'B);
       59     4263    1   DCL LL_TYPE UBIN WORD ALIGNED STATIC SYMDEF;
       60     4264    1   DCL LL_FIRSTFID CHAR(52) ALIGNED STATIC SYMDEF;
       61     4265    1   DCL LL_LASTFID CHAR(52) ALIGNED STATIC SYMDEF;
       62     4266    1   DCL LL_OPENFID CHAR(52) ALIGNED STATIC SYMDEF;
       63     4267    1   DCL 1 LL_SPECFID ALIGNED STATIC SYMDEF,
       64     4268    1         2 COUNT UBIN BYTE UNAL,
       65     4269    1         2 NAME CHAR(52) UNAL;
       66     4270    1   DCL LL_VAL_BIAS SBIN WORD STATIC SYMDEF INIT(0);
       67     4271    1   DCL LL_VAL_START UBIN WORD STATIC SYMDEF INIT(0);
       68     4272    1   DCL LL_VAL_SL UBIN WORD STATIC SYMDEF INIT(4);
       69     4273    1   DCL LL_NOU UBIN WORD STATIC SYMDEF;
       70     4274    1   DCL LL_DATA_START UBIN WORD STATIC SYMDEF INIT(0);
       71     4275    1   DCL LL_PROC_START UBIN WORD STATIC SYMDEF INIT(0);
       72     4276    1   DCL LL_RODATA_START UBIN WORD STATIC SYMDEF INIT(0);
       73     4277    1   DCL LL_STATE UBIN WORD STATIC SYMDEF INIT (0);
       74     4278    1   DCL LL_RUNUNIT CHAR(52) ALIGNED STATIC SYMDEF;
PL6.E3A0      #001=LL_DATA_D File=LL_DATA_D.:E05TSI                              WED 07/30/97 03:18 Page:3
       75     4279    1   DCL LL_R_DATA$ PTR STATIC SYMDEF INIT (ADDR(NIL));
       76     4280    1   DCL LL_R_CODE$ PTR STATIC SYMDEF INIT (ADDR(NIL));
       77     4281    1   DCL LL_R_ROSE$ PTR STATIC SYMDEF INIT (ADDR(NIL));
       78     4282    1   DCL LL_T_DATA$ PTR STATIC SYMDEF INIT (ADDR(NIL));
       79     4283    1   DCL LL_T_CODE$ PTR STATIC SYMDEF INIT (ADDR(NIL));
       80     4284    1   DCL LL_T_LCOM$ PTR STATIC SYMDEF INIT (ADDR(NIL));
       81     4285    1   DCL LL_T_ROSE$ PTR STATIC SYMDEF INIT (ADDR(NIL));
       82     4286    1   DCL LL_ENTDEF_R$ PTR STATIC SYMDEF INIT(ADDR(NIL));
       83     4287    1   DCL LL_SYMDEF_R$ PTR STATIC SYMDEF INIT(ADDR(NIL));
       84     4288    1   DCL LL_BOTOMEM$ PTR STATIC SYMDEF INIT(ADDR(NIL));
       85     4289    1   DCL LL_TOPOMEM$ PTR STATIC SYMDEF INIT(ADDR(NIL));
       86     4290    1   DCL LL_R_OU$ PTR STATIC SYMDEF INIT(ADDR(NIL));
       87     4291    1   DCL LL_OU_PTR$ PTR STATIC SYMDEF INIT(ADDR(NIL));
       88     4292    1   DCL LL_START$ PTR STATIC SYMDEF INIT(ADDR(NIL));
       89     4293         /**/
       90     4294    1   DCL LL_UREF_NAME$ PTR STATIC SYMDEF; /* Pointer to unsat ref names */
       91     4295    1   DCL LL_U_SYMREF$ PTR STATIC SYMDEF; /* Ptr to unsat symrefs */
       92     4296    1   DCL LL_U_ENTREF$ PTR STATIC SYMDEF; /* Ptr to unsat entrefs */
       93     4297    1   DCL LL_UREF_NAME_MAX UBIN WORD STATIC SYMDEF ALIGNED INIT(0);
       94     4298    1   DCL LL_U_SYMREF_MAX UBIN WORD STATIC SYMDEF ALIGNED INIT(0);
       95     4299    1   DCL LL_U_ENTREF_MAX UBIN WORD STATIC SYMDEF ALIGNED INIT(0);
       96     4300    1   DCL LL_UREF_NAME_CUR UBIN WORD STATIC SYMDEF ALIGNED INIT(0);
       97     4301    1   DCL LL_U_ENTREF_CUR UBIN WORD STATIC SYMDEF ALIGNED INIT(0);
       98     4302    1   DCL LL_U_SYMREF_CUR UBIN WORD STATIC SYMDEF ALIGNED INIT(0);
       99     4303    1   DCL LLS_INIT# BIT(1) STATIC SYMDEF ALIGNED INIT('1'B);
      100     4304    1   DCL LL_WIDE# BIT(1) STATIC SYMDEF ALIGNED;
      101     4305    1   DCL OU_NAME_IN_RECORD# BIT(1) ALIGNED;
      102     4306    1   DCL OU_NAME_INDEX UBIN WORD STATIC SYMDEF ALIGNED;
      103     4307    1   DCL LL_U_SECONDARY_SYMREF_COUNT UBIN WORD STATIC SYMDEF ALIGNED INIT(0);
      104     4308    1   DCL LL_U_PRIMARY_SYMREF_COUNT UBIN WORD STATIC SYMDEF ALIGNED INIT(0);
      105     4309    1   DCL LL_U_SECONDARY_ENTREF_COUNT UBIN WORD STATIC SYMDEF ALIGNED INIT(0);
      106     4310    1   DCL LL_U_PRIMARY_ENTREF_COUNT UBIN WORD STATIC SYMDEF ALIGNED INIT(0);
      107     4311    1   DCL LL_DPATCH UBIN WORD STATIC SYMDEF ALIGNED INIT(0);
      108     4312    1   DCL LL_IPATCH UBIN WORD STATIC SYMDEF ALIGNED INIT(0);
      109     4313         /**/
      110     4314    1   DCL 1 LL_PATCH_NAMES CONSTANT SYMDEF ALIGNED,
      111     4315    1         2 N1 ALIGNED,
PL6.E3A0      #001=LL_DATA_D File=LL_DATA_D.:E05TSI                              WED 07/30/97 03:18 Page:4
      112     4316    1           3 SIZE UBIN HALF UNAL INIT(8),
      113     4317    1           3 TEXT CHAR(10) UNAL INIT('G_PATCHI'),
      114     4318    1         2 N2 ALIGNED,
      115     4319    1           3 SIZE UBIN HALF UNAL INIT(9),
      116     4320    1           3 TEXT CHAR(10) UNAL INIT('G_PATCHIH'),
      117     4321    1         2 N3 ALIGNED,
      118     4322    1           3 SIZE UBIN HALF UNAL INIT(8),
      119     4323    1           3 TEXT CHAR(10) UNAL INIT('G_PATCHD'),
      120     4324    1         2 N4 ALIGNED,
      121     4325    1           3 SIZE UBIN HALF UNAL INIT(9),
      122     4326    1           3 TEXT CHAR(10) UNAL INIT('G_PATCHDH'),
      123     4327    1         2 N5 ALIGNED,
      124     4328    1           3 SIZE UBIN HALF UNAL INIT(6),
      125     4329    1           3 TEXT CHAR(6) UNAL INIT('G$END$');
      126     4330    1   DCL LL_END_VALUE UBIN WORD STATIC SYMDEF ALIGNED INIT(0);
      127     4331    1   DCL LL_END_LOC UBIN WORD STATIC SYMDEF ALIGNED INIT(0);
      128     4332    1   DCL LL_VAL_FLAVOR SBIN WORD STATIC SYMDEF ALIGNED INIT(-1);
      129     4333    1   DCL LL_HEAD_VERSION UBIN WORD CONSTANT SYMDEF INIT(1);
      130     4334    1   DCL LL_HEAD_VERS_TXT(0:1) CONSTANT SYMDEF CHAR(4) INIT('A00','E00');
      131     4335    1   DCL LL_LPROC_START UBIN WORD CONSTANT SYMDEF INIT(%BITBIN('E0000'X));
      132     4336    1   DCL 1 LL_DNAME_VEC STATIC SYMDEF DALIGNED,
      133     4337    1         2 BOUND UBIN HALF INIT(0),
      134     4338    1         2 P$ PTR INIT(ADDR(NIL));
      135     4339    1   DCL LL_JIT_ADDRESS UBIN WORD CONSTANT SYMDEF INIT(%(GM_ROS_BASE+2));
      136     4340    1   DCL LL_PIA_ADDRESS UBIN WORD CONSTANT SYMDEF INIT(%(GM_ROS_BASE+18));
      137     4341    1   DCL LL_AUTO_DS_ADDRESS UBIN WORD CONSTANT SYMDEF INIT(%(GM_ROS_BASE+22));
      138     4342    1   DCL LL_AUTO_T_ADDRESS UBIN WORD CONSTANT SYMDEF INIT(%(GM_ROS_BASE+24));
      139     4343    1   DCL LL_ROS_ADDRESS UBIN WORD CONSTANT SYMDEF INIT(%GM_ROS_BASE);
      140     4344    1   DCL LL_TCB_ADDRESS UBIN WORD CONSTANT SYMDEF INIT(%(GM_ROS_BASE+4));
      141     4345    1   DCL LL_SLIB_NAME CHAR(31) STATIC SYMDEF INIT(' ');
      142     4346    1   DCL LL_VECTOR_RF CHAR(31) STATIC SYMDEF INIT(' ');
      143     4347    1   DCL LL_VECTOR_DATA UBIN WORD STATIC SYMDEF ALIGNED INIT(0);
      144     4348    1   DCL LL_LIST_SIZE UBIN WORD STATIC SYMDEF ALIGNED INIT(0);
      145     4349    1   DCL LL_LIST$ PTR STATIC SYMDEF INIT(ADDR(NIL));
      146     4350    1   DCL 1 LL_VERSION STATIC SYMDEF ALIGNED,
      147     4351    1         2 SIZE UBIN BYTE CALIGNED,
      148     4352    1         2 TEXT CHAR(6) CALIGNED;
PL6.E3A0      #001=LL_DATA_D File=LL_DATA_D.:E05TSI                              WED 07/30/97 03:18 Page:5
      149     4353    1   END LL_DATA_D;

PL6.E3A0      #001=LL_DATA_D File=LL_DATA_D.:E05TSI                              WED 07/30/97 03:18 Page:6
--  Include file information  --

   LL_MACS_C.:E05TOU  is referenced.
   GM_VIRTUAL_E.:E05TOU  is referenced.
   B$OBJECT_C.:E05TOU  is referenced.
      No diagnostics issued in procedure LL_DATA_D.

   No code generated for procedure LL_DATA_D .
   Procedure LL_DATA_D requires 4 words of local(AUTO) storage.

    No errors detected in file LL_DATA_D.:E05TSI    .

PL6.E3A0      #001=LL_DATA_D File=LL_DATA_D.:E05TSI                              WED 07/30/97 03:18 Page:7

 Object Unit name= LL_DATA_D                                  File name= LL_DATA_D.:E05TOU
 UTS= JUL 30 '97 03:18:53.28 WED                              Compiler= PL-6/E31         Sev=      00
 SharedLib= :SHARED_SYSTEM                                    Alt SharedLib=


    ****  Control sections  ****

 Sect   Type Bound  Init  Size OctSiz  Section name(segment info)
    0   Data  even  none   237    355  LL_DATA_D
    1  RoData even  UTS     24     30  LL_DATA_D
    2   Proc  even  none     0      0  LL_DATA_D

    ****  Entry defs  ****

                              Check   Calling
                             calling  sequence
  Sect OctLoc Primary Altret sequence   type   Parms  Name
     2      0   yes            yes     ~proc       0  LL_DATA_D
PL6.E3A0      #001=LL_DATA_D File=LL_DATA_D.:E05TSI                              WED 07/30/97 03:18 Page:8

  ****  Data defs  ****

 Sect OctLoc  Name                           Sect OctLoc  Name
    0      0  LL_HEAD                            0     50  B$RUHEADKEY
    0     52  B$RUBIRTH                          0     55  LL_OF$
    0     56  LL_LOBUF                           0    112  LL_DOBUF
    0    146  LL_FLAGS                           0    147  LL_TYPE
    0    150  LL_FIRSTFID                        0    165  LL_LASTFID
    0    202  LL_OPENFID                         0    217  LL_SPECFID
    0    235  LL_VAL_BIAS                        0    236  LL_VAL_START
    0    237  LL_VAL_SL                          0    240  LL_NOU
    0    241  LL_DATA_START                      0    242  LL_PROC_START
    0    243  LL_RODATA_START                    0    244  LL_STATE
    0    245  LL_RUNUNIT                         0    262  LL_R_DATA$
    0    263  LL_R_CODE$                         0    264  LL_R_ROSE$
    0    265  LL_T_DATA$                         0    266  LL_T_CODE$
    0    267  LL_T_LCOM$                         0    270  LL_T_ROSE$
    0    271  LL_ENTDEF_R$                       0    272  LL_SYMDEF_R$
    0    273  LL_BOTOMEM$                        0    274  LL_TOPOMEM$
    0    275  LL_R_OU$                           0    276  LL_OU_PTR$
    0    277  LL_START$                          0    300  LL_UREF_NAME$
    0    301  LL_U_SYMREF$                       0    302  LL_U_ENTREF$
    0    303  LL_UREF_NAME_MAX                   0    304  LL_U_SYMREF_MAX
    0    305  LL_U_ENTREF_MAX                    0    306  LL_UREF_NAME_CUR
    0    307  LL_U_ENTREF_CUR                    0    310  LL_U_SYMREF_CUR
    0    311  LLS_INIT#                          0    312  LL_WIDE#
    0    313  OU_NAME_INDEX                      0    314  LL_U_SECONDARY_SYMREF_COUNT
    0    315  LL_U_PRIMARY_SYMREF_COUNT          0    316  LL_U_SECONDARY_ENTREF_COUNT
    0    317  LL_U_PRIMARY_ENTREF_COUNT          0    320  LL_DPATCH
    0    321  LL_IPATCH                          1      0  LL_PATCH_NAMES
    0    322  LL_END_VALUE                       0    323  LL_END_LOC
    0    324  LL_VAL_FLAVOR                      1     16  LL_HEAD_VERSION
    1     17  LL_HEAD_VERS_TXT                   1     21  LL_LPROC_START
    0    326  LL_DNAME_VEC                       1     22  LL_JIT_ADDRESS
    1     23  LL_PIA_ADDRESS                     1     24  LL_AUTO_DS_ADDRESS
    1     25  LL_AUTO_T_ADDRESS                  1     26  LL_ROS_ADDRESS
    1     27  LL_TCB_ADDRESS                     0    330  LL_SLIB_NAME
PL6.E3A0      #001=LL_DATA_D File=LL_DATA_D.:E05TSI                              WED 07/30/97 03:18 Page:9
    0    340  LL_VECTOR_RF                       0    350  LL_VECTOR_DATA
    0    351  LL_LIST_SIZE                       0    352  LL_LIST$
    0    353  LL_VERSION

  ****  Segment refs  ****

  Flags:  r = read only, s = secondary
Flgs Name                             Flgs Name                             Flgs Name
     NULLSID
PL6.E3A0      #001=LL_DATA_D File=LL_DATA_D.:E05TSI                              WED 07/30/97 03:18 Page:10

        1        1        /*M* LL_DATA_D - Global data definitions for FEPLINK                */
        2        2        /*T***********************************************************/
        3        3        /*T*                                                         */
        4        4        /*T* Copyright (c) Bull HN Information Systems Inc., 1997    */
        5        5        /*T*                                                         */
        6        6        /*T***********************************************************/
        7        7        /*X* PLM=4,STI=0,IND=4,CTI=3,DCI=4,ECI=4,CSI=0,THI=0,DTI=0,ENI=4,
        8        8             CLM=0,SQB,NTB,MOC,CCI=3,NLB,MCL=0,EDMC*/
        9        9        LL_DATA_D: PROC;
       10       10         /* ! ! */
       11       11        %INCLUDE B$OBJECT_C;
       12     3441        %INCLUDE GM_VIRTUAL_E;
       13     3651        %INCLUDE LL_MACS_C;
       14     4005        %B$HEAD ( NAME = LL_HEAD,
       15     4006         STCLASS = STATIC SYMDEF );
       16     4206        %B$RUHEADKEY ( STCLASS= "STATIC SYMDEF");
       17     4213        %B$RUBIRTH (STCLASS = "STATIC SYMDEF");
       18     4222         /* !R! */
       19     4223    1   DCL LL_OF$ PTR STATIC SYMDEF;
       20     4224    1   DCL LL_LOBUF CHAR(112) ALIGNED STATIC SYMDEF;
       21     4225    1   DCL LL_DOBUF CHAR(112) ALIGNED STATIC SYMDEF;
       22     4226    1   DCL 1 LL_FLAGS ALIGNED STATIC SYMDEF,
       23     4227    1         2 * BIT(1) UNAL INIT ('0'B),
       24     4228    1         2 START# BIT(1) UNAL INIT ('0'B),
       25     4229    1         2 BIAS# BIT(1) UNAL INIT ('0'B),
       26     4230    1         2 NODEBUG# BIT(1) UNAL INIT ('0'B),
       27     4231    1         2 NOEDITING# BIT(1) UNAL INIT ('0'B),
       28     4232    1         2 * BIT(1) UNAL INIT ('0'B),
       29     4233    1         2 MAP# BIT(1) UNAL INIT ('0'B),
       30     4234    1         2 * BIT(1) UNAL INIT ('0'B),
       31     4235    1         2 CON_OPT# BIT(1) UNAL INIT ('0'B),
       32     4236    1         2 * BIT(1) UNAL INIT ('0'B),
       33     4237    1         2 BAD_HEX# BIT(1) UNAL INIT ('0'B),
       34     4238    1         2 OVER# BIT(1) UNAL INIT ('0'B),
       35     4239    1         2 NAME# BIT(1) UNAL INIT ('0'B),
       36     4240    1         2 VALUE# BIT(1) UNAL INIT ('0'B),
       37     4241    1         2 UDEF# BIT(1) UNAL INIT ('0'B),
PL6.E3A0      #001=LL_DATA_D File=LL_DATA_D.:E05TSI                              WED 07/30/97 03:18 Page:11
       38     4242    1         2 EMPTY# BIT(1) UNAL INIT ('0'B),
       39     4243    1         2 LINK_FID# BIT(1) UNAL INIT ('0'B),
       40     4244    1         2 VAL_ERR# BIT(1) UNAL INIT ('0'B),
       41     4245    1         2 NOSH# BIT(1) UNAL INIT('0'B),
       42     4246    1         2 NOALT# BIT(1) UNAL INIT('0'B),
       43     4247    1         2 REJECT# BIT(1) UNAL INIT('0'B),
       44     4248    1         2 BIAS_OU BIT(1) UNAL INIT('0'B),
       45     4249    1         2 NOLIST# BIT(1) UNAL INIT('0'B),
       46     4250    1         2 SLIB# BIT(1) UNAL INIT('0'B),
       47     4251    1         2 SHARELIB# BIT(1) UNAL INIT('0'B),
       48     4252    1         2 * BIT(1) UNAL INIT('0'B),
       49     4253    1         2 DCBSLOT# BIT(1) UNAL INIT('0'B),
       50     4254    1         2 TCB# BIT(1) UNAL INIT('0'B),
       51     4255    1         2 VECTOR# BIT(1) UNAL INIT('0'B),
       52     4256    1         2 * BIT(1) UNAL INIT('0'B),
       53     4257    1         2 REMOVE_E# BIT(1) UNAL INIT('0'B),
       54     4258    1         2 REMOVE_S# BIT(1) UNAL INIT('0'B),
       55     4259    1         2 RF# BIT(1) UNAL INIT('0'B),
       56     4260    1         2 * BIT(1) UNAL INIT('0'B),
       57     4261    1         2 * BIT(1) UNAL INIT('0'B),
       58     4262    1         2 * BIT(1) UNAL INIT('0'B);
       59     4263    1   DCL LL_TYPE UBIN WORD ALIGNED STATIC SYMDEF;
       60     4264    1   DCL LL_FIRSTFID CHAR(52) ALIGNED STATIC SYMDEF;
       61     4265    1   DCL LL_LASTFID CHAR(52) ALIGNED STATIC SYMDEF;
       62     4266    1   DCL LL_OPENFID CHAR(52) ALIGNED STATIC SYMDEF;
       63     4267    1   DCL 1 LL_SPECFID ALIGNED STATIC SYMDEF,
       64     4268    1         2 COUNT UBIN BYTE UNAL,
       65     4269    1         2 NAME CHAR(52) UNAL;
       66     4270    1   DCL LL_VAL_BIAS SBIN WORD STATIC SYMDEF INIT(0);
       67     4271    1   DCL LL_VAL_START UBIN WORD STATIC SYMDEF INIT(0);
       68     4272    1   DCL LL_VAL_SL UBIN WORD STATIC SYMDEF INIT(4);
       69     4273    1   DCL LL_NOU UBIN WORD STATIC SYMDEF;
       70     4274    1   DCL LL_DATA_START UBIN WORD STATIC SYMDEF INIT(0);
       71     4275    1   DCL LL_PROC_START UBIN WORD STATIC SYMDEF INIT(0);
       72     4276    1   DCL LL_RODATA_START UBIN WORD STATIC SYMDEF INIT(0);
       73     4277    1   DCL LL_STATE UBIN WORD STATIC SYMDEF INIT (0);
       74     4278    1   DCL LL_RUNUNIT CHAR(52) ALIGNED STATIC SYMDEF;
PL6.E3A0      #001=LL_DATA_D File=LL_DATA_D.:E05TSI                              WED 07/30/97 03:18 Page:12
       75     4279    1   DCL LL_R_DATA$ PTR STATIC SYMDEF INIT (ADDR(NIL));
       76     4280    1   DCL LL_R_CODE$ PTR STATIC SYMDEF INIT (ADDR(NIL));
       77     4281    1   DCL LL_R_ROSE$ PTR STATIC SYMDEF INIT (ADDR(NIL));
       78     4282    1   DCL LL_T_DATA$ PTR STATIC SYMDEF INIT (ADDR(NIL));
       79     4283    1   DCL LL_T_CODE$ PTR STATIC SYMDEF INIT (ADDR(NIL));
       80     4284    1   DCL LL_T_LCOM$ PTR STATIC SYMDEF INIT (ADDR(NIL));
       81     4285    1   DCL LL_T_ROSE$ PTR STATIC SYMDEF INIT (ADDR(NIL));
       82     4286    1   DCL LL_ENTDEF_R$ PTR STATIC SYMDEF INIT(ADDR(NIL));
       83     4287    1   DCL LL_SYMDEF_R$ PTR STATIC SYMDEF INIT(ADDR(NIL));
       84     4288    1   DCL LL_BOTOMEM$ PTR STATIC SYMDEF INIT(ADDR(NIL));
       85     4289    1   DCL LL_TOPOMEM$ PTR STATIC SYMDEF INIT(ADDR(NIL));
       86     4290    1   DCL LL_R_OU$ PTR STATIC SYMDEF INIT(ADDR(NIL));
       87     4291    1   DCL LL_OU_PTR$ PTR STATIC SYMDEF INIT(ADDR(NIL));
       88     4292    1   DCL LL_START$ PTR STATIC SYMDEF INIT(ADDR(NIL));
       89     4293         /**/
       90     4294    1   DCL LL_UREF_NAME$ PTR STATIC SYMDEF; /* Pointer to unsat ref names */
       91     4295    1   DCL LL_U_SYMREF$ PTR STATIC SYMDEF; /* Ptr to unsat symrefs */
       92     4296    1   DCL LL_U_ENTREF$ PTR STATIC SYMDEF; /* Ptr to unsat entrefs */
       93     4297    1   DCL LL_UREF_NAME_MAX UBIN WORD STATIC SYMDEF ALIGNED INIT(0);
       94     4298    1   DCL LL_U_SYMREF_MAX UBIN WORD STATIC SYMDEF ALIGNED INIT(0);
       95     4299    1   DCL LL_U_ENTREF_MAX UBIN WORD STATIC SYMDEF ALIGNED INIT(0);
       96     4300    1   DCL LL_UREF_NAME_CUR UBIN WORD STATIC SYMDEF ALIGNED INIT(0);
       97     4301    1   DCL LL_U_ENTREF_CUR UBIN WORD STATIC SYMDEF ALIGNED INIT(0);
       98     4302    1   DCL LL_U_SYMREF_CUR UBIN WORD STATIC SYMDEF ALIGNED INIT(0);
       99     4303    1   DCL LLS_INIT# BIT(1) STATIC SYMDEF ALIGNED INIT('1'B);
      100     4304    1   DCL LL_WIDE# BIT(1) STATIC SYMDEF ALIGNED;
      101     4305    1   DCL OU_NAME_IN_RECORD# BIT(1) ALIGNED;
      102     4306    1   DCL OU_NAME_INDEX UBIN WORD STATIC SYMDEF ALIGNED;
      103     4307    1   DCL LL_U_SECONDARY_SYMREF_COUNT UBIN WORD STATIC SYMDEF ALIGNED INIT(0);
      104     4308    1   DCL LL_U_PRIMARY_SYMREF_COUNT UBIN WORD STATIC SYMDEF ALIGNED INIT(0);
      105     4309    1   DCL LL_U_SECONDARY_ENTREF_COUNT UBIN WORD STATIC SYMDEF ALIGNED INIT(0);
      106     4310    1   DCL LL_U_PRIMARY_ENTREF_COUNT UBIN WORD STATIC SYMDEF ALIGNED INIT(0);
      107     4311    1   DCL LL_DPATCH UBIN WORD STATIC SYMDEF ALIGNED INIT(0);
      108     4312    1   DCL LL_IPATCH UBIN WORD STATIC SYMDEF ALIGNED INIT(0);
      109     4313         /**/
      110     4314    1   DCL 1 LL_PATCH_NAMES CONSTANT SYMDEF ALIGNED,
      111     4315    1         2 N1 ALIGNED,
PL6.E3A0      #001=LL_DATA_D File=LL_DATA_D.:E05TSI                              WED 07/30/97 03:18 Page:13
      112     4316    1           3 SIZE UBIN HALF UNAL INIT(8),
      113     4317    1           3 TEXT CHAR(10) UNAL INIT('G_PATCHI'),
      114     4318    1         2 N2 ALIGNED,
      115     4319    1           3 SIZE UBIN HALF UNAL INIT(9),
      116     4320    1           3 TEXT CHAR(10) UNAL INIT('G_PATCHIH'),
      117     4321    1         2 N3 ALIGNED,
      118     4322    1           3 SIZE UBIN HALF UNAL INIT(8),
      119     4323    1           3 TEXT CHAR(10) UNAL INIT('G_PATCHD'),
      120     4324    1         2 N4 ALIGNED,
      121     4325    1           3 SIZE UBIN HALF UNAL INIT(9),
      122     4326    1           3 TEXT CHAR(10) UNAL INIT('G_PATCHDH'),
      123     4327    1         2 N5 ALIGNED,
      124     4328    1           3 SIZE UBIN HALF UNAL INIT(6),
      125     4329    1           3 TEXT CHAR(6) UNAL INIT('G$END$');
      126     4330    1   DCL LL_END_VALUE UBIN WORD STATIC SYMDEF ALIGNED INIT(0);
      127     4331    1   DCL LL_END_LOC UBIN WORD STATIC SYMDEF ALIGNED INIT(0);
      128     4332    1   DCL LL_VAL_FLAVOR SBIN WORD STATIC SYMDEF ALIGNED INIT(-1);
      129     4333    1   DCL LL_HEAD_VERSION UBIN WORD CONSTANT SYMDEF INIT(1);
      130     4334    1   DCL LL_HEAD_VERS_TXT(0:1) CONSTANT SYMDEF CHAR(4) INIT('A00','E00');
      131     4335    1   DCL LL_LPROC_START UBIN WORD CONSTANT SYMDEF INIT(%BITBIN('E0000'X));
      132     4336    1   DCL 1 LL_DNAME_VEC STATIC SYMDEF DALIGNED,
      133     4337    1         2 BOUND UBIN HALF INIT(0),
      134     4338    1         2 P$ PTR INIT(ADDR(NIL));
      135     4339    1   DCL LL_JIT_ADDRESS UBIN WORD CONSTANT SYMDEF INIT(%(GM_ROS_BASE+2));
      136     4340    1   DCL LL_PIA_ADDRESS UBIN WORD CONSTANT SYMDEF INIT(%(GM_ROS_BASE+18));
      137     4341    1   DCL LL_AUTO_DS_ADDRESS UBIN WORD CONSTANT SYMDEF INIT(%(GM_ROS_BASE+22));
      138     4342    1   DCL LL_AUTO_T_ADDRESS UBIN WORD CONSTANT SYMDEF INIT(%(GM_ROS_BASE+24));
      139     4343    1   DCL LL_ROS_ADDRESS UBIN WORD CONSTANT SYMDEF INIT(%GM_ROS_BASE);
      140     4344    1   DCL LL_TCB_ADDRESS UBIN WORD CONSTANT SYMDEF INIT(%(GM_ROS_BASE+4));
      141     4345    1   DCL LL_SLIB_NAME CHAR(31) STATIC SYMDEF INIT(' ');
      142     4346    1   DCL LL_VECTOR_RF CHAR(31) STATIC SYMDEF INIT(' ');
      143     4347    1   DCL LL_VECTOR_DATA UBIN WORD STATIC SYMDEF ALIGNED INIT(0);
      144     4348    1   DCL LL_LIST_SIZE UBIN WORD STATIC SYMDEF ALIGNED INIT(0);
      145     4349    1   DCL LL_LIST$ PTR STATIC SYMDEF INIT(ADDR(NIL));
      146     4350    1   DCL 1 LL_VERSION STATIC SYMDEF ALIGNED,
      147     4351    1         2 SIZE UBIN BYTE CALIGNED,
      148     4352    1         2 TEXT CHAR(6) CALIGNED;
PL6.E3A0      #001=LL_DATA_D File=LL_DATA_D.:E05TSI                              WED 07/30/97 03:18 Page:14
      149     4353    1   END LL_DATA_D;

PL6.E3A0      #001=LL_DATA_D File=LL_DATA_D.:E05TSI                              WED 07/30/97 03:18 Page:15
--  Include file information  --

   LL_MACS_C.:E05TOU  is referenced.
   GM_VIRTUAL_E.:E05TOU  is referenced.
   B$OBJECT_C.:E05TOU  is referenced.
      No diagnostics issued in procedure LL_DATA_D.
PL6.E3A0      #001=LL_DATA_D File=LL_DATA_D.:E05TSI                              WED 07/30/97 03:18 Page:16

 **** Variables and constants ****


   No code generated for procedure LL_DATA_D .
   Procedure LL_DATA_D requires 4 words of local(AUTO) storage.

    No errors detected in file LL_DATA_D.:E05TSI    .
PL6.E3A0      #001=LL_DATA_D File=LL_DATA_D.:E05TSI                              WED 07/30/97 03:18 Page:17
          *** CROSS REFERENCE LISTING ***
**     DENOTES     IDENTIFIER DEFINITION
<<                 IDENTIFIER'S VALUE SET
>>                 IDENTIFIER'S VALUE USED
<>                 IDENTIFIER SET AND/OR USED
--                 IDENTIFIER REFERENCED
PL6.E3A0      #001=LL_DATA_D File=LL_DATA_D.:E05TSI                              WED 07/30/97 03:18 Page:18
          MINI XREF LISTING

