VERSION E05
LINK E05 here
        1 !LINK                                            ;
        2   B_COPYRIGHT.:E05TOU                           ,  ;
        3   ASA$SUPER.:E05TOU                             ,  ;
        4   ASB$BUILD_DEFAULT_FILES.:E05TOU               ,  ;
        5   ASD$BUILD_PRO.:E05TOU                         ,  ;
        6   ASB$SEARCH.:E05TOU                            ,  ;
        7   ASB$FILES.:E05TOU                             ,  ;
        8   ASB$EXT.:E05TOU                               ,  ;
        9   ASB$SHIFT_BANNER.:E05TOU                      ,  ;
       10   ASD$PRO_IO.:E05TOU                            ,  ;
       11   ASH$HELP.:E05TOU                              ,  ;
       12   ASR$EXT.:E05TOU                               ,  ;
       13   ASW$WSN.:E05TOU                               ,  ;
       14   ASZ$SCRAMBLE.:E05TOU                          ,  ;
       15   ASP$FUNKEY_NODS.:E05TOU                       ,  ;
       16   AS_SUPER_D.:E05TOU                            ,  ;
       17   ASP$CHARSET_NODES.:E05TOU                     ,  ;
       18   ASP$CONSOLE_NODES.:E05TOU                     ,  ;
       19   ASP$CONTROLLER_NODES.:E05TOU                  ,  ;
       20   ASP$CMD_NODES.:E05TOU                         ,  ;
       21   ASP$DELETE_NODES.:E05TOU                      ,  ;
       22   ASP$DEVICE_NODES.:E05TOU                      ,  ;
       23   ASP$DISPLAY_NODES.:E05TOU                     ,  ;
       24   ASP$FORM_NODES.:E05TOU                        ,  ;
       25   ASP$LINE_NODES.:E05TOU                        ,  ;
       26   ASP$LINE_DEVICE_NODES.:E05TOU                 ,  ;
       27   ASP$LINK_NODES.:E05TOU                        ,  ;
       28   ASP$LIST_NODES.:E05TOU                        ,  ;
       29   ASP$LIST_CONSOLE_NODES.:E05TOU                ,  ;
       30   ASP$LIST_FORM_NODES.:E05TOU                   ,  ;
       31   ASP$LIST_PROFILE_NODES.:E05TOU                ,  ;
       32   ASP$LIST_PROJ_NODES.:E05TOU                   ,  ;
       33   ASP$PROFILE_NODES.:E05TOU                     ,  ;
       34   ASP$PROJ_NODES.:E05TOU                        ,  ;
       35   ASP$LIST_USER_NODES.:E05TOU                   ,  ;
       36   ASP$REMOVE_NODES.:E05TOU                      ,  ;
       37   ASP$TERMINAL_NODES.:E05TOU                    ,  ;
       38   ASP$USER_NODES.:E05TOU                        ,  ;
       39   ASP$VIRCIR_NODES.:E05TOU                      ,  ;
       40   ASP$WSN_NODES.:E05TOU                            ;
       41 ( ASA$LINE_CONTROLLER.:E05TOU  )                   ;
       42 ( ASA$LINK_VIRCIR.:E05TOU  )                       ;
       43 ( ASC$SETUP_BANNER.:E05TOU                      ,  ;
       44   ASC$BUDGET.:E05TOU                            ,  ;
       45   ASC$OPTS.:E05TOU                              ,  ;
       46   ASC$PRIV.:E05TOU                              ,  ;
       47   ASC$PSEUDO.:E05TOU                            ,  ;
       48   ASC$RESOURCE.:E05TOU                          ,  ;
       49   ASC$LIMITS.:E05TOU                            ,  ;
       50   ASA$PROJ.:E05TOU  )                              ;
       51 ( ASA$STATION.:E05TOU  )                           ;
       52 ( ASA$CONSOLE.:E05TOU                           ,  ;
       53   ASA$DEVICE.:E05TOU                            ,  ;
       54   ASA$TERMINAL.:E05TOU  )                          ;
       55 ( ASA$TIE_PROJECT.:E05TOU  )                       ;
       56 ( ASA$UNTIE_PROJECT.:E05TOU  )                     ;
       57 ( ASA$USER.:E05TOU  )                              ;
       58 ( ASB$GET_MGRANS.:E05TOU  )                        ;
       59 ( ASC$CHARSET.:E05TOU  )                           ;
       60 ( ASC$CONFIG.:E05TOU  )                            ;
       61 ( ASD$PROFILE.:E05TOU  )                           ;
       62 ( ASF$FORM.:E05TOU  )                              ;
       63 ( ASL$LIST.:E05TOU                              ,  ;
       64   ASL$EXT.:E05TOU                               ,  ;
       65   ASV$VALIDITY_CHECKS.:E05TOU                      ;
       66   ( ASL$LIST_CHARSETS.:E05TOU  )                   ;
       67   ( ASL$LIST_FORMSETS.:E05TOU                      ;
       68     ( ASL$DISPLAY_FORM.:E05TOU  ) )                ;
       69   ( ASL$LIST_LINES.:E05TOU                      ,  ;
       70     ASL$LIST_LINE_DEVICES.:E05TOU               ,  ;
       71     ASL$LIST_CONTROLLERS.:E05TOU  )                ;
       72   ( ASL$LIST_LINKS.:E05TOU                      ,  ;
       73     ASL$LIST_LINK_DEVICES.:E05TOU               ,  ;
       74     ASL$LIST_VIRCIRS.:E05TOU  )                    ;
       75   ( ASL$LIST_PROFILES.:E05TOU                   ,  ;
       76     ASL$L_PRO.:E05TOU  )                           ;
       77   ( ASL$LIST_PROJECTS.:E05TOU  )                   ;
       78   ( ASL$LIST_STATIONS.:E05TOU  )                   ;
       79   ( ASL$LIST_DEVICES.:E05TOU                    ,  ;
       80     ASL$LIST_CONSOLES.:E05TOU                   ,  ;
       81     ASL$LIST_TERMINALS.:E05TOU                  ,  ;
       82     ASB$FIND_STATION.:E05TOU                       ;
       83     ( ASB$FIND_TERMINAL.:E05TOU  )                 ;
       84     ( ASL$DISPLAY_TERMINAL.:E05TOU  ) )            ;
       85   ( ASL$LIST_USERS.:E05TOU  )                      ;
       86   ( ASL$LIST_WORKSTATIONS.:E05TOU  ) )             ;
       87 ( ASR$DELETE_CHARSETS.:E05TOU  )                   ;
       88 ( ASR$DELETE_FORMS.:E05TOU  )                      ;
       89 ( ASR$DELETE_USERS.:E05TOU  )                      ;
       90 ( ASR$REMOVE_CHARSET.:E05TOU  )                    ;
       91 ( ASR$REMOVE_FORM.:E05TOU  )                       ;
       92 ( ASR$REMOVE_USER.:E05TOU  )                       ;
       93 ( ASR$REMOVE_PROFILE.:E05TOU  )                    ;
       94 ( ASR$REMOVE_PROJECT.:E05TOU  )                    ;
       95 ( ASR$REMOVE_WSN.:E05TOU  )                        ;
       96 ( ASR$R_HLP.:E05TOU  )                             ;
       97   OVER SUPER.:E05TGNS ;
       98          (SHARED, ;
       99          STDINVOC, ;
      100          NOCH, ;
      101          PROCACC, ;
      102          MAP (NAME,VALUE), ;
      103          SHARELIB = :SHARED_SYSTEM.:E05TGN,UNSAT=:ETC_SYSTEM.:E05TGN, NOSYSLIB, ;
      104          DPATCH = 100, ;
      105          IPATCH = 1000, ;
      106          REP = 0, ;
      107          VERSION='E05')
*  :SHARED_SYSTEM.:E05TGN (Shared Library) associated.
*  Library file :ETC_SYSTEM.:E05TGN used.
*  Number of branch reference instances = 107.
*  Number of unique branch reference targets = 57.
*  No linking errors.
******** CP6  LINK  VERSION E03       MAP  ALLOCATION  SUMMARY ********
******** RF   = SUPER                           ACN  = :E05TGNS********
******** UTS  = 07/30/97  14:54:50.28  WED                     ********

  BIAS   START   SEVERITY   TCB FRAMES   DCB SLOTS
     0   25126          0            3          12
SHARED LIBRARY                 ALTERNATE SHARED LIBRARY
:SHARED_SYSTEM
******* READ ONLY SEGMENT *******
   SIZE    OCTSIZ      PAGES
   1601      3101          2
******* INSTRUCTION SEGMENT *******
 TYPE             OCTLOC     SIZE    OCTSIZ      PAGES
 DATA                  0    10140     23634         10
 PROCEDURE         24000    61802    170552         61
*  Total program size = 73K.
*  Total number of nodes = 38.
******** CP6  LINK  VERSION E03       MAP OVERLAY  SUMMARY     ********
******** RF   = SUPER                           ACN  = :E05TGNS********
******** UTS  = 07/30/97  14:54:50.28  WED                     ********

******* ROOT NODE *******
                                 TOTAL   DATA   DATA   DATA   PROC   PROC   PROC
NODE              <PARENT NODE>   SIZE    LOW   HIGH   SIZE    LOW   HIGH   SIZE
------------------------------- ------ ------ ------ ------ ------ ------ ------
B_COPYRIGHT                        46K      0  22535  22536  24000 133327 107330

******* LEVEL  1 NODE(S) *******
                                 TOTAL   DATA   DATA   DATA   PROC   PROC   PROC
NODE              <PARENT NODE>   SIZE    LOW   HIGH   SIZE    LOW   HIGH   SIZE
------------------------------- ------ ------ ------ ------ ------ ------ ------
ASA$LINE_CONTROLLER                 3K  22536  22553     16 133330 135773   2444
                    <B_COPYRIGHT>
ASA$LINK_VIRCIR   <B_COPYRIGHT>     3K  22536  22577     42 133330 137112   3563
ASC$SETUP_BANNER  <B_COPYRIGHT>    13K  22536  22562     25 133330 161634  26305
ASA$STATION       <B_COPYRIGHT>     2K  22536  22541      4 133330 134030    501
ASA$CONSOLE       <B_COPYRIGHT>    10K  22536  22757    222 133330 153420  20071
ASA$TIE_PROJECT   <B_COPYRIGHT>     1K                    0 133330 133563    234
ASA$UNTIE_PROJECT                   1K                    0 133330 133567    240
                    <B_COPYRIGHT>
ASA$USER          <B_COPYRIGHT>     1K                    0 133330 134377   1050
ASB$GET_MGRANS    <B_COPYRIGHT>     2K  22536  22633     76 133330 133412     63
ASC$CHARSET       <B_COPYRIGHT>     1K                    0 133330 135021   1472
ASC$CONFIG        <B_COPYRIGHT>     2K  22536  22737    202 133330 134410   1061
ASD$PROFILE       <B_COPYRIGHT>     9K  22536  22646    111 133330 152324  16775
ASF$FORM          <B_COPYRIGHT>     8K  22536  22550     13 133330 147404  14055
ASL$LIST          <B_COPYRIGHT>    11K  22536  22634     77 133330 157203  23654
ASR$DELETE_CHARSETS                 2K  22536  22555     20 133330 133402     53
                    <B_COPYRIGHT>
ASR$DELETE_FORMS  <B_COPYRIGHT>     2K  22536  22552     15 133330 133402     53
ASR$DELETE_USERS  <B_COPYRIGHT>     1K                    0 133330 133750    421
ASR$REMOVE_CHARSET                  1K                    0 133330 133474    145
                    <B_COPYRIGHT>
ASR$REMOVE_FORM   <B_COPYRIGHT>     1K                    0 133330 134071    542
ASR$REMOVE_USER   <B_COPYRIGHT>     1K                    0 133330 133640    311
ASR$REMOVE_PROFILE                  2K  22536  22543      6 133330 133455    126
                    <B_COPYRIGHT>
ASR$REMOVE_PROJECT                  1K                    0 133330 134467   1140
                    <B_COPYRIGHT>
ASR$REMOVE_WSN    <B_COPYRIGHT>     2K  22536  22550     13 133330 133723    374
ASR$R_HLP         <B_COPYRIGHT>     4K  22536  22627     72 133330 140760   5431

******* LEVEL  2 NODE(S) *******
                                 TOTAL   DATA   DATA   DATA   PROC   PROC   PROC
NODE              <PARENT NODE>   SIZE    LOW   HIGH   SIZE    LOW   HIGH   SIZE
------------------------------- ------ ------ ------ ------ ------ ------ ------
ASL$LIST_CHARSETS    <ASL$LIST>     2K                    0 157204 161343   2140
ASL$LIST_FORMSETS    <ASL$LIST>     1K                    0 157204 160277   1074
ASL$LIST_LINES       <ASL$LIST>     3K                    0 157204 165061   5656
ASL$LIST_LINKS       <ASL$LIST>     5K  22635  22644     10 157204 166021   6616
ASL$LIST_PROFILES    <ASL$LIST>    16K  22635  23633    777 157204 214551  35346
ASL$LIST_PROJECTS    <ASL$LIST>     3K  22635  22657     23 157204 161402   2177
ASL$LIST_STATIONS    <ASL$LIST>     2K  22635  22740    104 157204 161007   1604
ASL$LIST_DEVICES     <ASL$LIST>     8K  22635  23126    272 157204 174702  15477
ASL$LIST_USERS       <ASL$LIST>     1K                    0 157204 160103    700
ASL$LIST_WORKSTATIONS               3K  22635  22637      3 157204 161631   2426
                       <ASL$LIST>

******* LEVEL  3 NODE(S) *******
                                 TOTAL   DATA   DATA   DATA   PROC   PROC   PROC
NODE              <PARENT NODE>   SIZE    LOW   HIGH   SIZE    LOW   HIGH   SIZE
------------------------------- ------ ------ ------ ------ ------ ------ ------
ASL$DISPLAY_FORM                    5K  22635  22640      4 160300 167603   7304
              <ASL$LIST_FORMSETS>
ASB$FIND_TERMINAL                   1K                    0 174703 175065    163
               <ASL$LIST_DEVICES>
ASL$DISPLAY_TERMINAL                3K  23127  23227    101 174703 177133   2231
               <ASL$LIST_DEVICES>

******** CP6  LINK  VERSION E03       MAP                      ********
******** RF   = SUPER                           ACN  = :E05TGNS********
******** UTS  = 07/30/97  14:54:50.28  WED                     ********
******** NODE = B_COPYRIGHT                     SIZE =     46K ********
<OCTAL_NUMBER><CON_DEF><SOURCE><USED><MULT_DEF><DEFINITION_NAME>
    <CON_DEF>   <USED>    <MULT_DEF>                      <SOURCE>
YES:    =       <BLANK>       +          OBJECT FILE      <BLANK>
NO : <BLANK>      *        <BLANK>       SHARED LIB.         S
                                         ALT. SHARED LIB.    A
                                         PRIVATE LIB.        P
                                         RUN FILE            R
                                         REMOVED             r
               LOW      HIGH      SIZE
            ------    ------    ------
DATA             0     22535     22536
PROCEDURE    24000    133327    107330
******** CONTROL SECTIONS SORTED BY VALUE ********
              400 DATA     ASA$SUPER                         300
              700 DATA     ASA$B_USERS_HLP                   655
             1556 DATA     ASF$BUILD_FORM                     16
             1574 DATA     ASD$BUILD_PRO                     652
             2446 DATA     ASB$GET                            17
             2466 DATA     ASB$WILD_MATCH                     14
             2502 DATA     ASB$HLP                           374
             3076 DATA     ASB$NETCON                        176
             3274 DATA     ASB$PROJ                          355
             3652 DATA     ASB$USERS                         431
             4304 DATA     ASF$READ_FORM                     361
             4666 DATA     ASW$WSN_IO                        376
             5264 DATA     ASB$BREAK                          33
             5320 DATA     ASB$DATA_SEG                       52
             5372 DATA     ASB$LEGL_CHAR                       1
             5374 DATA     ASB$LIST                           25
             5422 DATA     ASB$PIG                           143
             5566 DATA     ASB$READ_SI                       176
             5764 DATA     ASB$SET_PROMPT                      7
             5774 DATA     ASC$CHECK_TIGR_WSN                146
             6142 DATA     GET_CONFIGS_LP01_ATTRS            146
             6310 DATA     ASD$PRO_IO                        371
             6702 DATA     ASH$ERROR                         200
             7102 DATA     ASH$HELP                           72
             7174 DATA     ASR$R_DEVWSN                       10
             7204 DATA     ASR$R_PSEUDO_FORMS                  1
             7206 DATA     ASW$WSN                            33
             7242 DATA     AS_SUPER_D                      13113
            22356 DATA     IN.DATA                            14
            22372 DATA     B_PATCHD                          144

            24300 RODATA   B_COPYRIGHT                        15
            24316 RODATA   ASA$ERROR                          21
            24340 PROC     ASA$ERROR                         301
            24642 RODATA   ASA$ERROR                          16
            24660 PROC     ASA$KEYCONV                        53
            24734 RODATA   ASA$KEYCONV                         1
            24736 RODATA   ASA$SUPER                         167
            25126 PROC     ASA$SUPER                       13173
            40322 RODATA   ASA$SUPER                         264
            40606 RODATA   ASA$B_USERS_HLP                    55
            40664 PROC     ASA$B_USERS_HLP                   610
            41474 RODATA   ASA$B_USERS_HLP                     3
            41500 RODATA   ASC$BUILD_CHARSET                2212
            43712 PROC     ASC$BUILD_CHARSET                 621
            44534 RODATA   ASC$BUILD_CHARSET                  55
            44612 RODATA   ASF$BUILD_FORM                    613
            45426 PROC     ASF$BUILD_FORM                    751
            46400 RODATA   ASF$BUILD_FORM                     12
            46412 RODATA   ASW$BUILD_WSN                       1
            46414 PROC     ASW$BUILD_WSN                      17
            46434 RODATA   ASW$BUILD_WSN                       1
            46436 RODATA   ASD$BUILD_PRO                     210
            46646 PROC     ASD$BUILD_PRO                    3377
            52246 RODATA   ASD$BUILD_PRO                      30
            52276 RODATA   ASB$ACCT_OK                         7
            52306 PROC     ASB$ACCT_OK                       251
            52560 RODATA   ASB$ACCT_OK                        11
            52572 RODATA   ASB$CHECK_TYPE                     44
            52636 PROC     ASB$CHECK_TYPE                    234
            53072 RODATA   ASB$CHECK_TYPE                      2
            53074 RODATA   ASB$FIND_NUM                        1
            53076 PROC     ASB$FIND_NUM                       75
            53174 RODATA   ASB$FIND_NUM                        2
            53176 RODATA   ASB$FIND_TWSN_INDEX                 1
            53200 PROC     ASB$FIND_TWSN_INDEX               123
            53324 RODATA   ASB$FIND_TWSN_INDEX                 1
            53326 RODATA   ASB$GET                             1
            53330 PROC     ASB$GET                          1232
            54562 RODATA   ASB$GET                            26
            54610 PROC     ASB$WILD_MATCH                     51
            54662 RODATA   ASB$WILD_MATCH                      2
            54664 PROC     ASB$HLP                           337
            55224 RODATA   ASB$HLP                             4
            55230 PROC     ASB$NETCON                        256
            55506 RODATA   ASB$NETCON                          1
            55510 RODATA   ASB$PROJ                           12
            55522 PROC     ASB$PROJ                          340
            56062 RODATA   ASB$PROJ                            5
            56070 RODATA   ASB$USERS                           4
            56074 PROC     ASB$USERS                         262
            56356 RODATA   ASB$USERS                          12
            56370 RODATA   ASF$READ_FORM                       2
            56372 PROC     ASF$READ_FORM                     276
            56670 RODATA   ASF$READ_FORM                       1
            56672 PROC     ASW$WSN_IO                        225
            57120 RODATA   ASW$WSN_IO                          3
            57124 RODATA   ASB$BINCHAR                         3
            57130 PROC     ASB$BINCHAR                       125
            57256 RODATA   ASB$BREAK                          11
            57270 PROC     ASB$BREAK                         102
            57372 RODATA   ASB$BREAK                           7
            57402 PROC     ASB$DATA_SEG                      243
            57646 RODATA   ASB$GET_HEX_VAL                     2
            57650 PROC     ASB$GET_HEX_VAL                   245
            60116 RODATA   ASB$GET_HEX_VAL                     6
            60124 RODATA   ASB$KEYMAKER                       12
            60136 PROC     ASB$KEYMAKER                      252
            60410 RODATA   ASB$KEYMAKER                        5
            60416 RODATA   ASB$LEGL_CHAR                       6
            60424 PROC     ASB$LEGL_CHAR                      45
            60472 RODATA   ASB$LEGL_CHAR                       1
            60474 PROC     ASB$LIST                          167
            60664 RODATA   ASB$LIST                            6
            60672 RODATA   ASB$PIG                            11
            60704 PROC     ASB$PIG                           367
            61274 RODATA   ASB$PIG                             6
            61302 RODATA   ASB$PIG_ACCT_ATTR                   1
            61304 PROC     ASB$PIG_ACCT_ATTR                 164
            61470 RODATA   ASB$PIG_ACCT_ATTR                   3
            61474 PROC     ASB$READ_SI                       203
            61700 RODATA   ASB$READ_SI                         2
            61702 RODATA   ASB$SET_PROMPT                     30
            61732 PROC     ASB$SET_PROMPT                    236
            62170 RODATA   ASB$SET_PROMPT                     16
            62206 RODATA   ASC$CHECK_TIGR_WSN                 12
            62220 PROC     ASC$CHECK_TIGR_WSN                154
            62374 RODATA   ASC$CHECK_TIGR_WSN                  3
            62400 RODATA   ASD$HEX2OCT                         5
            62406 PROC     ASD$HEX2OCT                       101
            62510 PROC     ASF$QUERY_PSEUDO_FORMS             65
            62576 RODATA   ASF$QUERY_PSEUDO_FORMS              1
            62600 RODATA   GET_CONFIGS_LP01_ATTRS             11
            62612 PROC     GET_CONFIGS_LP01_ATTRS            153
            62766 RODATA   GET_CONFIGS_LP01_ATTRS              4
            62772 PROC     SHIFTL                             46
            63040 PROC     SHIFTR                             47
            63110 PROC     ASD$PRO_IO                        403
            63514 RODATA   ASD$PRO_IO                          7
            63524 RODATA   ASH$ERROR                           7
            63534 PROC     ASH$ERROR                         241
            63776 RODATA   ASH$ERROR                           4
            64002 RODATA   ASH$HELP                            4
            64006 PROC     ASH$HELP                          175
            64204 RODATA   ASH$HELP                           12
            64216 PROC     ASH$U_PARSE                        50
            64266 RODATA   ASR$R_DEVWSN                        4
            64272 PROC     ASR$R_DEVWSN                      262
            64554 RODATA   ASR$R_DEVWSN                        3
            64560 RODATA   ASR$R_PSEUDO_FORMS                 15
            64576 PROC     ASR$R_PSEUDO_FORMS                254
            65052 RODATA   ASR$R_PSEUDO_FORMS                 11
            65064 RODATA   ASW$WSN                            32
            65116 PROC     ASW$WSN                          4136
            71254 RODATA   ASW$WSN                            36
            71312 PROC     ASZ$SCRAMBLE                      103
            71416 RODATA   ASP_FUNKEY                       2662
            74300 RODATA   AS_SUPER_D                       5676
           102176 RODATA   CHARSET_OPT_LIST                  225
           102424 RODATA   CONSOLE_OPTS_LIST                 207
           102634 RODATA   CONT_OPTS_LIST                    101
           102736 RODATA   STATION_NAME                     2724
           105662 RODATA   DELETE                            117
           106002 RODATA   DEVICE_OPTS_LIST                 1035
           107040 RODATA   DISPLAY_CMD                       705
           107746 RODATA   PSEUDO_OPTS_LIST                 1223
           111172 RODATA   LINE_OPTS_LIST                     40
           111232 RODATA   CONT_DEV_OPTS_LIST                110
           111342 RODATA   LINK_OPTS_LIST                    277
           111642 RODATA   LIST_CMD                          645
           112510 RODATA   LIST_CON_OPT_LIST                   6
           112516 RODATA   LIST_FORM_OPTS_LIST                50
           112566 RODATA   LIST_PRO_S_OPT                   3031
           115620 RODATA   LIST_P_OPT                         66
           115706 RODATA   PRO_OPTS_LIST                    5573
           123502 RODATA   CR_MOD_PROJ_OPTS                  232
           123734 RODATA   LIST_S_OPT                        462
           124416 RODATA   REMOVE                            352
           124770 RODATA   TERM_OPT_LIST                     270
           125260 RODATA   CR_MOD_TREE                      2366
           127646 RODATA   VIR_CIR_OPTS_LIST                 100
           127746 RODATA   WSN_OPTS_LIST                     116
           130064 PROC     6XSO$BREF$$$$$$$$$$$$$$$$$$$$$    121
           130206 RODATA   B_CONSPOOL_D                       36
           130244 RODATA   B_POINTER                          56
           130322 PROC     X$WILDFMT                         607
           131132 RODATA   X$WILDFMT                           4
           131136 RODATA   XU_OUTPUT_OPTIONS                 215
           131354 PROC     B_PATCHI                         1754

******** DCBS ********
               30 DCB      M$LO                     142
              172 DCB      M$FORM                   142
              334 DCB      M$HLP                    142
              476 DCB      M$NETCON                 143
              642 DCB      M$PROJ                   142
             1004 DCB      M$USERS                  142
             1146 DCB      M$WSN                    142
             1310 DCB      M$SI                     142
             1452 DCB      M$CSCG                   142
             1614 DCB      M$CNFG                   142
             1756 DCB      M$PRO                    142

******* CONSTANT DEFINITIONS *******
                M$CNFG                        M$CSCG
                M$DO                          M$FORM
                M$FPARAM                      M$HLP
                M$LM                          M$LO
                M$NETCON                      M$PRO
                M$PROJ                        M$SI
                M$UC                          M$USERS
                M$WSN
******* RELOCATABLE ENTRY DEFINITIONS SORTED BY NAME *******
      130064  * 6XSO$BREF$$$$$$$$$$$$$$$$$$$$$
       40664    ASA$B_USERS_HLP      24340    ASA$ERROR
       24660    ASA$KEYCONV          25126  * ASA$SUPER
       52306    ASB$ACCT_OK          57130    ASB$BINCHAR
       57146    ASB$BINXCHAR         55167    ASB$BOF_HLP
       56014  * ASB$BOF_PROJ         56232    ASB$BOF_USERS
       57270    ASB$BREAK            52636    ASB$CHECK_TYPE
       55036    ASB$CLOSE_HLP        61637    ASB$CLOSE_LO
       55376    ASB$CLOSE_NETCON     55665    ASB$CLOSE_PROJ
       56207    ASB$CLOSE_USERS      57402  * ASB$DATA_SEG
       55011    ASB$DELREC_HLP       55441    ASB$DELREC_NETCON
       55631    ASB$DELREC_PROJ      56130    ASB$DELREC_USERS
       56313    ASB$DEQ              56322    ASB$DEQ_HLP
       56046    ASB$DEQ_PROJ         56331    ASB$DEQ_USERS
       56250    ASB$ENQ              56257    ASB$ENQ_HLP
       56032    ASB$ENQ_PROJ         56266    ASB$ENQ_USERS
       53076    ASB$FIND_NUM         53200    ASB$FIND_TWSN_INDEX
       60646    ASB$FLUSH            60610    ASB$FLUSH_ERR
       57477    ASB$FREE_SEG         53330    ASB$GET
       57571    ASB$GETSEG           57650    ASB$GET_HEX_VAL
       57405    ASB$GET_MORE_SEG     54025    ASB$GET_NEXT
       54664  * ASB$HLP              53636    ASB$INIT_GET_NEXT
       60136    ASB$KEYMAKER         60424    ASB$LEGL_CHAR
       60474    ASB$LIST             55230  * ASB$NETCON
       61226    ASB$OPEN_COMGROUP    55020    ASB$OPEN_HLP_CR
       55027    ASB$OPEN_HLP_UP      55413  * ASB$OPEN_NETCON
       55647    ASB$OPEN_PROJ_CR     55656    ASB$OPEN_PROJ_UP
       61645    ASB$OPEN_SI_LO_DO    56171    ASB$OPEN_USERS_CR
       56200    ASB$OPEN_USERS_UP    61630    ASB$PAGE_LO
       60704    ASB$PIG              61304    ASB$PIG_ACCT_ATTR
       55205    ASB$PREC_AND_SKIP_HLP
       56162    ASB$PREC_AND_SKIP_USERS
       55176    ASB$PREC_HLP         55640    ASB$PREC_PROJ
       56153    ASB$PREC_USERS       55522  * ASB$PROJ
       54667    ASB$READ_HLP         55044    ASB$READ_HLP_SEQ
       55233    ASB$READ_NETCON      55525    ASB$READ_PROJ
       55673    ASB$READ_PROJ_SEQ    61474    ASB$READ_SI
       56077    ASB$READ_USERS       56215    ASB$READ_USERS_SEQ
       61732    ASB$SET_PROMPT       56074  * ASB$USERS
       54610    ASB$WILD_MATCH       54770    ASB$WRITE_HLP
       61572    ASB$WRITE_LO         55315    ASB$WRITE_NETCON
       55610    ASB$WRITE_PROJ       56116    ASB$WRITE_USERS
       56111    ASB$WRITE_USERS_KEY  43712    ASC$BUILD_CHARSET
       62220    ASC$CHECK_TIGR_WSN   47626    ASD$BUILD_$3270
       46772    ASD$BUILD_$ASYNC     52144    ASD$BUILD_$GRA
       51043    ASD$BUILD_$LINK      51755    ASD$BUILD_$POLLVIP
       50370    ASD$BUILD_$RBT       50557    ASD$BUILD_$RBTD
       51421    ASD$BUILD_$URP       51232    ASD$BUILD_$VIRCIR
       46646  * ASD$BUILD_PRO        63437    ASD$CLOSE_PRO
       46651    ASD$CREATE_PRO       63451    ASD$DELREC_PRO
       63460    ASD$GR_DELREC_PRO    63147    ASD$GR_READ_PRO
       63333    ASD$GR_WRITE_PRO     62406    ASD$HEX2OCT
       63421    ASD$OPEN_PRO_CR      63430    ASD$OPEN_PRO_UP
       63472    ASD$PREC_PRO         63110  * ASD$PRO_IO
       63113    ASD$READ_PRO         63213    ASD$READ_PRO_SEQ
       63254    ASD$WRITE_PRO        45426    ASF$BUILD_FORM
       56546  * ASF$CLOSE_FORM       56652    ASF$DELREC_FORM
       56530    ASF$OPEN_FORM_CR     56537    ASF$OPEN_FORM_UP
       56612    ASF$PREC_FORM        56632    ASF$PREC_SKIP_FORM
       62510    ASF$QUERY_PSEUDO_FORMS
       56372    ASF$READ_FORM        56562    ASF$READ_FORM_SEQ
       56433    ASF$WRITE_FORM       64154    ASH$ALL_HELP
       63614    ASH$DQUEST           63534    ASH$ERROR
       64006    ASH$HELP             63741    ASH$INFO
       64143    ASH$MORE_HELP        63643    ASH$QUEST
       64132    ASH$TOPICS           64216    ASH$U_PARSE
       63606    ASH$WARN             71416  * ASP_FUNKEY
       64272    ASR$R_DEVWSN         64576    ASR$R_PSEUDO_FORMS
       57061  * ASW$BOF_WSN          46414    ASW$BUILD_WSN
       57021    ASW$CLOSE_WSN        65122    ASW$CONFIG_WSN
       56752    ASW$DELREC_WSN       57101    ASW$DEQ_WSN
       57070    ASW$ENQ_WSN          57003    ASW$OPEN_WSN_CR
       57012    ASW$OPEN_WSN_UP      56774    ASW$PREC_AND_SKIP_WSN
       56763    ASW$PREC_WSN         56675    ASW$READ_WSN
       57027    ASW$READ_WSN_SEQ     56727    ASW$WRITE_WSN
       65116    ASW$WSN              56672  * ASW$WSN_IO
       71312    ASZ$SCRAMBLE        102176  * AS_SUPER_D
       24315  * B_COPYRIGHT         131354  * B_PATCHI
      102176  * CHARSET_OPT_LIST    102424  * CONSOLE_OPTS_LIST
      111232  * CONT_DEV_OPTS_LIST  102634  * CONT_OPTS_LIST
      123502  * CR_MOD_PROJ_OPTS    125260  * CR_MOD_TREE
      105662  * DELETE              106002  * DEVICE_OPTS_LIST
      107040  * DISPLAY_CMD          62612    GET_CONFIGS_LP01_ATTRS
      111172  * LINE_OPTS_LIST      111342  * LINK_OPTS_LIST
      111642  * LIST_CMD            112510  * LIST_CON_OPT_LIST
      112516  * LIST_FORM_OPTS_LIST 112566  * LIST_PRO_S_OPT
      115620  * LIST_P_OPT          123734  * LIST_S_OPT
      115706  * PRO_OPTS_LIST       107746  * PSEUDO_OPTS_LIST
      124416  * REMOVE               62772    SHIFTL
       63040    SHIFTR              102736  * STATION_NAME
      124770  * TERM_OPT_LIST       127646  * VIR_CIR_OPTS_LIST
      127746  * WSN_OPTS_LIST       130132  * XSO$NODEINFO
******* RELOCATABLE & CONSTANT DATA DEFINITIONS SORTED BY NAME  *******
      127313  * ACCESS_OPT_ELE      127223    ACHARGES_OPT_LIST
      105442  * ALLOWED_            105435    ALL_
      105543  * ALPHA               126657    ASAVE_
       12132    ASA_BRKS_LOC          7000    ASH_HELP
        6716  * ASH_LAST_PCB         74307    ASL_3270_TYP
       74304    ASL_ASYNC_TYP        74305    ASL_LINK_TYP
       74300    ASL_POLLVIP_TYP      74310    ASL_PRO_OPT_TBL
       74303    ASL_RBTD_TYP         74302    ASL_RBT_TYP
       74306    ASL_URP_TYP          74301    ASL_VIRCIR_TYP
       71416    ASP_FUNKEY          105545    ASYM
       12176    AS_ACCT_MATCH       100620    AS_BLANK
      102162    AS_CONSTANT_PROJ_HEADER
        7264    AS_CREATED_TEXT      12222    AS_CR_MOD_PROJ
       12212    AS_DCBNUM#           14255    AS_DEFAULT
       21037    AS_DEFAULT_DREC     101017    AS_DEFAULT_DREC$
       13251    AS_DFLT              12213  * AS_FACCOUNT_FLG
      100622    AS_FALSE             12207    AS_FEPSEUDO_LIST$
       12205    AS_FERESOURCE_LIST$ 101006    AS_FE_MODE
       12064    AS_FIELD1            12077    AS_FIELD2
       12112    AS_FIELD3            12170    AS_LOGON_KEY
      100775    AS_MODE              22303    AS_MOD_USER
       12200    AS_NAME_MATCH       100624    AS_NONE
      100750    AS_PPRIVILEGE       100673    AS_PPRIV_NAMES
      100720    AS_PRIVILEGE        100643    AS_PRIV_NAMES
       16265    AS_PROJECT           12162    AS_PROJECT_ADMIN
       17271    AS_PROJECT_DFLT      22032    AS_PROJECT_DFLT_DREC
      101022    AS_PROJECT_DFLT_DREC$
       21561    AS_PROJECT_DREC     101021    AS_PROJECT_DREC$
       15261    AS_PROJ_ADMIN        21310    AS_PROJ_ADMIN_DREC
      101020    AS_PROJ_ADMIN_DREC$  12210    AS_PROJ_HEADER$
       12206    AS_PSEUDO_LIST$      12204    AS_RESOURCE_LIST$
       12211    AS_SUPER_TO_PIG$    100621    AS_TRUE
       12245    AS_USERS            101023    AS_USERS_CONSTANT
      100632    AS_VALID_DEVICE_TYPE_CHARS
       12225    AS_WILD_MCH          12226    AS_WILD_MVAL
       12203    AS_WILD_USER        100623  * AS_ZERO
       24000    B$JIT$               24003  * B$ROS$
       24002    B$TCB$              126205  * BILLING_OPT
      105474    BLANK               105620    BLANK_LINE
        7677    BLANK_PASS          127144    BUDGET_S_OPT
       22372  * B_PATCHD            133326  * B_PATCHDH
      133324  * B_PATCHIH            24004    B_VERSION
      126707    CFEP_               105650    CG_
      104273    CHARSET_CMD         102307    CHARSET_DEVS_LIST
      102372    CHARSET_IMAGE_LIST  103260  * CHARSET_NAME
      103265    CHARSET_NAME_WILD   102176    CHARSET_OPT_LIST
      104624    CMD_NODES           127033    CNTRLC_
      127030    CNTRLD_              12050    CODE
      105636    COMMAND_            105464    COMMA_
       12054  * COMMENT             103542    CONSOLE_CMD
      103166  * CONSOLE_NAME        103173    CONSOLE_NAME_WILD
      102424    CONSOLE_OPTS_LIST   104466    CONTROLLER_CMD
      103200  * CONTROLLER_NAME     103202    CONTROLLER_NAME_WILD
      111232    CONT_DEV_OPTS_LIST  102634    CONT_OPTS_LIST
       24300  * COPYRIGHT           126021  * CPNAME
      126006  * CPROC_LIST          126726    CQ_
      105143    CR_MOD_CMD           12224    CR_MOD_FLG
      105351    CR_MOD_LIST2        123502    CR_MOD_PROJ_OPTS
      125260    CR_MOD_TREE         105541    DEC
      105662    DELETE              105451  * DELETE_
      104004    DEVICE_CMD          103130  * DEVICE_NAME
      103135    DEVICE_NAME_WILD    106002    DEVICE_OPTS_LIST
      106516    DEV_DEVCTL          106412    DEV_DEVNUM
      106507    DEV_SDNUM            12214  * DFLT_PROJ_USERS_KEY
      126667    DIA_                126715    DISPJOB_
      104752  * DISPLAY             105630    DISPLAY_
      107040    DISPLAY_CMD         105466    DOT_
      104712    DQUESTION            12147    DSEG1$
       12150    DSEG1SIZE            12151    DSEG2$
       12152    DSEG2SIZE            12153    DSEG3$
       12154    DSEG3SIZE            12146    DSEG_FLG
      127036    EFT_                127040    EL_                 105563    END
      105454    END_                 12155    ENQDEQ_FLG          105475    EOL
      105470    EQUAL_                7100  * ERRMSG_ACCT
        7076  * ERRMSG_FILE          12156    ERR_CNT
       12063    ERR_CODE            126637    EXMM_
      126677    EXPM_                12051    FAST_FLAG
      110570    FB_TYPE_LIST         12134  * FCMD_POS              7311    FDS
      126226  * FEBILLING_OPT       126770  * FEPPRIV_OPTIONS
      126762    FEPPRIV_S_OPT       125700    FEPRIV_S_OPT
      127367    FEPSEUDO_SUB        127463    FERES_OPTS          105544    FID
       12160    FILE_ACCT           126672    FMREAD_
        7347    FMT_BUF               7447    FMT_VEC
      105445  * FORBIDDEN_          125774  * FORCE_OPT_ELE
      104366    FORM_CMD            103246  * FORM_NAME
      103253    FORM_NAME_WILD      110001    FORM_OPTS_LIST
      105527    FORM_SYM8             7002  * FPT_ERRMSG
       12223    FROM_FLG              7271    FROM_KEY
      104106    FUNKEY_CMD          110450    F_A_OR_B_LIST
       74042    F_BLANK_LINE         74047  * F_DQUEST
       74061    F_END                74104  * F_HELP
       74054  * F_QUEST             111155  * F_SETUP_LIST
      110541    F_VFU_LIST          110073    GFORM_OPTS_LIST
      126662    GPP_                110041    GPSEUDO_OPTS_LIST
      123434  * HARD_SOFT           104724    HELP                 74113    HEX
      126277  * HSET_OPT            106535  * HSTRING4
      105655    INFORM_              12052    INPUT_FLAG
      126723    INTCON_               7701    IN_BUF
       10044  * IN_BUF$             126702    IOQW_
      126705    IOQ_                126653    JIT_
      105633    KEYIN_              102027    KL_DEFAULT
       20566    KL_DFLT             101016    KL_DFLT$
       20315    KL_DREC             101015    KL_DREC$
       20275    KL_DREC_CNT         127042    LABEL_
      104444    LINE_CMD            104526    LINE_DEV_CMD
      103272  * LINE_DEV_NAME       103274  * LINE_DEV_NAME_WILD
      103216  * LINE_NAME           103223    LINE_NAME_WILD
      111172    LINE_OPTS_LIST      111377    LINK_ADDRESS
      104211    LINK_CMD            104571    LINK_DEV_CMD
      111527    LINK_DEV_OPTS_LIST  111557  * LINK_DEV_PROTOCOL
      111406    LINK_EOL            103230  * LINK_NAME
      103235    LINK_NAME_WILD      111342    LINK_OPTS_LIST
      111370    LINK_PRO             12053    LIST_ACCT_FLG
      111642    LIST_CMD            112510  * LIST_CON_OPT_LIST
      112516    LIST_FORM_OPTS_LIST 112566    LIST_PRO_S_OPT
      115620    LIST_P_OPT          123734    LIST_S_OPT
        7310    LO_WIDTH            115702    L_ALL_N
      115704    L_END_N                 23=   M$CNFG
          22=   M$CSCG                   4=   M$DO
          13=   M$FORM                  25=   M$FPARAM
          14=   M$HLP                   12=   M$LO
        5567  * M$LO$                   15=   M$NETCON
          24=   M$PRO                   16=   M$PROJ
          21=   M$SI                  5566  * M$SI$
           3=   M$UC                    17=   M$USERS
          20=   M$WSN                12061  * MAKEPROJ
      126642    MAXM_               102614    MAXPRIO_OPT
      127202    MCHARGES_LIST       127550  * MEM_ALT
      126712    MFEP_               126645    MSYS_
      127103    NETCON_              12047    NODE$
      105476  * NOFAIL_EOL          105604  * NOFAIL_FROM_
      105437    NONE_               105433    NO_
      103276    OBJECT              125371  * OCTAL_PASSWORD      105660    OK_
       10001    OUT_BUF              10045    OUT_BUF$
       12046  * P$PCB               123644    PACKSET
       12062    PADMIN              125353  * PASSWORD_OPT
      106446  * PD_2780CP_          106443  * PD_2780CR_
      106440  * PD_2780LP_          106457  * PD_3780CP_
      106454  * PD_3780CR_          106451  * PD_3780LP_
      106501  * PD_HASPCP_          106476  * PD_HASPCR_
      106470  * PD_HASPLP2_         106473  * PD_HASPLP3_
      106465  * PD_HASPLP_          106462  * PD_HASPOC_
      106504  * PD_IBMCR_           127050    PIGC_
      127045    PIGD_               127053    PIGETTE_
      127234    PLUS_               126675    PM_
      126747  * PPRIV_OPTIONS       127003  * PPRIV_S_ALT
      126741    PPRIV_S_OPT           7305    PREV_KEY
      126560    PRIV_S_OPT          103420    PROFILE_CMD
      102762    PROFILE_NAME        102767    PROFILE_NAME_WILD
      103072  * PROJECT_ACCT        103077    PROJECT_ACCT_WILD
      103060  * PROJECT_NAME        103065    PROJECT_NAME_WILD
        7255    PROJ_KEY            123646  * PROJ_PACK
      123650    PROJ_PACKSET_LIST    12135    PROMPT_CHAR
       12145    PROMPT_CNT          126320  * PRO_OPT
      115706    PRO_OPTS_LIST       102775    PRO_TYPE
      104332    PSEUDO_CMD          107746    PSEUDO_OPTS_LIST
      127324    PSEUDO_SUB          116764  * P_CHARSET
       12227    P_PCB               104717    QUESTION
        7302    QUIT_KEY            127117    RATES_
      105547    REAL                105652    REJECT_
       12126    REMEM_VAR           124416    REMOVE
       12130    REM_FCMD            127114    REPLAY_
      105642    RES_                127425    RES_OPTS
      105612  * SCRATCH_            126733    SCREECH_
      126664    SEC_                105472    SEMI_
      126356    SERV_OPT_LIST       125757  * SETUP_ASYM
      111162  * SIGN_               126730    SNAP_
      126634    SPCLMM_             127100    SPIDERC_
      127075    SPIDERD_              7277    START_KEY
      103703    STATION_CMD         102736  * STATION_NAME
      102743    STATION_NAME_WILD    12055    SUPERAUTH
      127056    SUPERAUTH_           12060    SUPERD
      127106    SUPERD_              12057    SUPERFORM
      127066    SUPERFORM_           12056    SUPERWSN
      127062    SUPERWSN_           127072    SUPER_              105500    SYM
      105534  * SYM12               105505    SYM2
      106574  * SYM6                105512    SYM8
      105477    SYMBOL              105623    SYM_
      105517    SYM_UC              126720    SYSCON_
      126650    SYSLOG_             125147  * TCD_OPT_LIST
      125167    TCD_PRO             103605    TERMINAL_CMD
      103204  * TERMINAL_NAME       103211    TERMINAL_NAME_WILD
      124770    TERM_OPT_LIST       125015    TERM_PASS
      125053    TERM_PRONAME        127516  * TIME_ALT
      126655    TND_                103154  * TPDEV_ACCT
      103161    TPDEV_ACCT_WILD     103142  * TPDEV_NAME
      103147    TPDEV_NAME_WILD     105646    TP_
      104037    TP_DEVICE_CMD       111310  * TYPE_3286
        7242    USERS_KEY           103116  * USER_ACCT
      103123    USER_ACCT_WILD      103104  * USER_NAME
      103111    USER_NAME_WILD      103242  * VIRCIR_NAME
      103244    VIRCIR_NAME_WILD    104235    VIR_CIR_CMD
      127646    VIR_CIR_OPTS_LIST   127111    VOLINIT_
       12157    WARN_CNT             10046  * WK
      103714    WSN_CMD             102750  * WSN_NAME
      102755    WSN_NAME_WILD       126267  * WSN_OPT
      127746    WSN_OPTS_LIST       105556    WSYM
      105431    YES_                105615    YES_NO_ALT
      123475  * YES_NO_TRY
******* RELOCATABLE ENTRY DEFINITIONS SORTED BY VALUE *******
       24315  * B_COPYRIGHT          24340    ASA$ERROR
       24660    ASA$KEYCONV          25126  * ASA$SUPER
       40664    ASA$B_USERS_HLP      43712    ASC$BUILD_CHARSET
       45426    ASF$BUILD_FORM       46414    ASW$BUILD_WSN
       46646  * ASD$BUILD_PRO        46651    ASD$CREATE_PRO
       46772    ASD$BUILD_$ASYNC     47626    ASD$BUILD_$3270
       50370    ASD$BUILD_$RBT       50557    ASD$BUILD_$RBTD
       51043    ASD$BUILD_$LINK      51232    ASD$BUILD_$VIRCIR
       51421    ASD$BUILD_$URP       51755    ASD$BUILD_$POLLVIP
       52144    ASD$BUILD_$GRA       52306    ASB$ACCT_OK
       52636    ASB$CHECK_TYPE       53076    ASB$FIND_NUM
       53200    ASB$FIND_TWSN_INDEX  53330    ASB$GET
       53636    ASB$INIT_GET_NEXT    54025    ASB$GET_NEXT
       54610    ASB$WILD_MATCH       54664  * ASB$HLP
       54667    ASB$READ_HLP         54770    ASB$WRITE_HLP
       55011    ASB$DELREC_HLP       55020    ASB$OPEN_HLP_CR
       55027    ASB$OPEN_HLP_UP      55036    ASB$CLOSE_HLP
       55044    ASB$READ_HLP_SEQ     55167    ASB$BOF_HLP
       55176    ASB$PREC_HLP         55205    ASB$PREC_AND_SKIP_HLP
       55230  * ASB$NETCON           55233    ASB$READ_NETCON
       55315    ASB$WRITE_NETCON     55376    ASB$CLOSE_NETCON
       55413  * ASB$OPEN_NETCON      55441    ASB$DELREC_NETCON
       55522  * ASB$PROJ             55525    ASB$READ_PROJ
       55610    ASB$WRITE_PROJ       55631    ASB$DELREC_PROJ
       55640    ASB$PREC_PROJ        55647    ASB$OPEN_PROJ_CR
       55656    ASB$OPEN_PROJ_UP     55665    ASB$CLOSE_PROJ
       55673    ASB$READ_PROJ_SEQ    56014  * ASB$BOF_PROJ
       56032    ASB$ENQ_PROJ         56046    ASB$DEQ_PROJ
       56074  * ASB$USERS            56077    ASB$READ_USERS
       56111    ASB$WRITE_USERS_KEY  56116    ASB$WRITE_USERS
       56130    ASB$DELREC_USERS     56153    ASB$PREC_USERS
       56162    ASB$PREC_AND_SKIP_USERS
       56171    ASB$OPEN_USERS_CR    56200    ASB$OPEN_USERS_UP
       56207    ASB$CLOSE_USERS      56215    ASB$READ_USERS_SEQ
       56232    ASB$BOF_USERS        56250    ASB$ENQ
       56257    ASB$ENQ_HLP          56266    ASB$ENQ_USERS
       56313    ASB$DEQ              56322    ASB$DEQ_HLP
       56331    ASB$DEQ_USERS        56372    ASF$READ_FORM
       56433    ASF$WRITE_FORM       56530    ASF$OPEN_FORM_CR
       56537    ASF$OPEN_FORM_UP     56546  * ASF$CLOSE_FORM
       56562    ASF$READ_FORM_SEQ    56612    ASF$PREC_FORM
       56632    ASF$PREC_SKIP_FORM   56652    ASF$DELREC_FORM
       56672  * ASW$WSN_IO           56675    ASW$READ_WSN
       56727    ASW$WRITE_WSN        56752    ASW$DELREC_WSN
       56763    ASW$PREC_WSN         56774    ASW$PREC_AND_SKIP_WSN
       57003    ASW$OPEN_WSN_CR      57012    ASW$OPEN_WSN_UP
       57021    ASW$CLOSE_WSN        57027    ASW$READ_WSN_SEQ
       57061  * ASW$BOF_WSN          57070    ASW$ENQ_WSN
       57101    ASW$DEQ_WSN          57130    ASB$BINCHAR
       57146    ASB$BINXCHAR         57270    ASB$BREAK
       57402  * ASB$DATA_SEG         57405    ASB$GET_MORE_SEG
       57477    ASB$FREE_SEG         57571    ASB$GETSEG
       57650    ASB$GET_HEX_VAL      60136    ASB$KEYMAKER
       60424    ASB$LEGL_CHAR        60474    ASB$LIST
       60610    ASB$FLUSH_ERR        60646    ASB$FLUSH
       60704    ASB$PIG              61226    ASB$OPEN_COMGROUP
       61304    ASB$PIG_ACCT_ATTR    61474    ASB$READ_SI
       61572    ASB$WRITE_LO         61630    ASB$PAGE_LO
       61637    ASB$CLOSE_LO         61645    ASB$OPEN_SI_LO_DO
       61732    ASB$SET_PROMPT       62220    ASC$CHECK_TIGR_WSN
       62406    ASD$HEX2OCT          62510    ASF$QUERY_PSEUDO_FORMS
       62612    GET_CONFIGS_LP01_ATTRS
       62772    SHIFTL               63040    SHIFTR
       63110  * ASD$PRO_IO           63113    ASD$READ_PRO
       63147    ASD$GR_READ_PRO      63213    ASD$READ_PRO_SEQ
       63254    ASD$WRITE_PRO        63333    ASD$GR_WRITE_PRO
       63421    ASD$OPEN_PRO_CR      63430    ASD$OPEN_PRO_UP
       63437    ASD$CLOSE_PRO        63451    ASD$DELREC_PRO
       63460    ASD$GR_DELREC_PRO    63472    ASD$PREC_PRO
       63534    ASH$ERROR            63606    ASH$WARN
       63614    ASH$DQUEST           63643    ASH$QUEST
       63741    ASH$INFO             64006    ASH$HELP
       64132    ASH$TOPICS           64143    ASH$MORE_HELP
       64154    ASH$ALL_HELP         64216    ASH$U_PARSE
       64272    ASR$R_DEVWSN         64576    ASR$R_PSEUDO_FORMS
       65116    ASW$WSN              65122    ASW$CONFIG_WSN
       71312    ASZ$SCRAMBLE         71416  * ASP_FUNKEY
      102176  * CHARSET_OPT_LIST    102176  * AS_SUPER_D
      102424  * CONSOLE_OPTS_LIST   102634  * CONT_OPTS_LIST
      102736  * STATION_NAME        105662  * DELETE
      106002  * DEVICE_OPTS_LIST    107040  * DISPLAY_CMD
      107746  * PSEUDO_OPTS_LIST    111172  * LINE_OPTS_LIST
      111232  * CONT_DEV_OPTS_LIST  111342  * LINK_OPTS_LIST
      111642  * LIST_CMD            112510  * LIST_CON_OPT_LIST
      112516  * LIST_FORM_OPTS_LIST 112566  * LIST_PRO_S_OPT
      115620  * LIST_P_OPT          115706  * PRO_OPTS_LIST
      123502  * CR_MOD_PROJ_OPTS    123734  * LIST_S_OPT
      124416  * REMOVE              124770  * TERM_OPT_LIST
      125260  * CR_MOD_TREE         127646  * VIR_CIR_OPTS_LIST
      127746  * WSN_OPTS_LIST       130064  * 6XSO$BREF$$$$$$$$$$$$$$$$$$$$$
      130132  * XSO$NODEINFO        131354  * B_PATCHI
******* RELOCATABLE & CONSTANT DATA DEFINITIONS SORTED BY VALUE *******
           3=   M$UC                     4=   M$DO
          12=   M$LO                    13=   M$FORM
          14=   M$HLP                   15=   M$NETCON
          16=   M$PROJ                  17=   M$USERS
          20=   M$WSN                   21=   M$SI
          22=   M$CSCG                  23=   M$CNFG
          24=   M$PRO                   25=   M$FPARAM
        5566  * M$SI$                 5567  * M$LO$
        6716  * ASH_LAST_PCB          7000    ASH_HELP
        7002  * FPT_ERRMSG            7076  * ERRMSG_FILE
        7100  * ERRMSG_ACCT           7242    USERS_KEY
        7255    PROJ_KEY              7264    AS_CREATED_TEXT
        7271    FROM_KEY              7277    START_KEY
        7302    QUIT_KEY              7305    PREV_KEY
        7310    LO_WIDTH              7311    FDS
        7347    FMT_BUF               7447    FMT_VEC
        7677    BLANK_PASS            7701    IN_BUF
       10001    OUT_BUF              10044  * IN_BUF$
       10045    OUT_BUF$             10046  * WK
       12046  * P$PCB                12047    NODE$
       12050    CODE                 12051    FAST_FLAG
       12052    INPUT_FLAG           12053    LIST_ACCT_FLG
       12054  * COMMENT              12055    SUPERAUTH
       12056    SUPERWSN             12057    SUPERFORM
       12060    SUPERD               12061  * MAKEPROJ
       12062    PADMIN               12063    ERR_CODE
       12064    AS_FIELD1            12077    AS_FIELD2
       12112    AS_FIELD3            12126    REMEM_VAR
       12130    REM_FCMD             12132    ASA_BRKS_LOC
       12134  * FCMD_POS             12135    PROMPT_CHAR
       12145    PROMPT_CNT           12146    DSEG_FLG
       12147    DSEG1$               12150    DSEG1SIZE
       12151    DSEG2$               12152    DSEG2SIZE
       12153    DSEG3$               12154    DSEG3SIZE
       12155    ENQDEQ_FLG           12156    ERR_CNT
       12157    WARN_CNT             12160    FILE_ACCT
       12162    AS_PROJECT_ADMIN     12170    AS_LOGON_KEY
       12176    AS_ACCT_MATCH        12200    AS_NAME_MATCH
       12203    AS_WILD_USER         12204    AS_RESOURCE_LIST$
       12205    AS_FERESOURCE_LIST$  12206    AS_PSEUDO_LIST$
       12207    AS_FEPSEUDO_LIST$    12210    AS_PROJ_HEADER$
       12211    AS_SUPER_TO_PIG$     12212    AS_DCBNUM#
       12213  * AS_FACCOUNT_FLG      12214  * DFLT_PROJ_USERS_KEY
       12222    AS_CR_MOD_PROJ       12223    FROM_FLG
       12224    CR_MOD_FLG           12225    AS_WILD_MCH
       12226    AS_WILD_MVAL         12227    P_PCB
       12245    AS_USERS             13251    AS_DFLT
       14255    AS_DEFAULT           15261    AS_PROJ_ADMIN
       16265    AS_PROJECT           17271    AS_PROJECT_DFLT
       20275    KL_DREC_CNT          20315    KL_DREC
       20566    KL_DFLT              21037    AS_DEFAULT_DREC
       21310    AS_PROJ_ADMIN_DREC   21561    AS_PROJECT_DREC
       22032    AS_PROJECT_DFLT_DREC
       22303    AS_MOD_USER          22372  * B_PATCHD
       24000    B$JIT$               24002    B$TCB$
       24003  * B$ROS$               24004    B_VERSION
       24300  * COPYRIGHT            71416    ASP_FUNKEY
       74042    F_BLANK_LINE         74047  * F_DQUEST
       74054  * F_QUEST              74061    F_END
       74104  * F_HELP               74113    HEX
       74300    ASL_POLLVIP_TYP      74301    ASL_VIRCIR_TYP
       74302    ASL_RBT_TYP          74303    ASL_RBTD_TYP
       74304    ASL_ASYNC_TYP        74305    ASL_LINK_TYP
       74306    ASL_URP_TYP          74307    ASL_3270_TYP
       74310    ASL_PRO_OPT_TBL     100620    AS_BLANK
      100621    AS_TRUE             100622    AS_FALSE
      100623  * AS_ZERO             100624    AS_NONE
      100632    AS_VALID_DEVICE_TYPE_CHARS
      100643    AS_PRIV_NAMES       100673    AS_PPRIV_NAMES
      100720    AS_PRIVILEGE        100750    AS_PPRIVILEGE
      100775    AS_MODE             101006    AS_FE_MODE
      101015    KL_DREC$            101016    KL_DFLT$
      101017    AS_DEFAULT_DREC$    101020    AS_PROJ_ADMIN_DREC$
      101021    AS_PROJECT_DREC$    101022    AS_PROJECT_DFLT_DREC$
      101023    AS_USERS_CONSTANT   102027    KL_DEFAULT
      102162    AS_CONSTANT_PROJ_HEADER
      102176    CHARSET_OPT_LIST    102307    CHARSET_DEVS_LIST
      102372    CHARSET_IMAGE_LIST  102424    CONSOLE_OPTS_LIST
      102614    MAXPRIO_OPT         102634    CONT_OPTS_LIST
      102736  * STATION_NAME        102743    STATION_NAME_WILD
      102750  * WSN_NAME            102755    WSN_NAME_WILD
      102762    PROFILE_NAME        102767    PROFILE_NAME_WILD
      102775    PRO_TYPE            103060  * PROJECT_NAME
      103065    PROJECT_NAME_WILD   103072  * PROJECT_ACCT
      103077    PROJECT_ACCT_WILD   103104  * USER_NAME
      103111    USER_NAME_WILD      103116  * USER_ACCT
      103123    USER_ACCT_WILD      103130  * DEVICE_NAME
      103135    DEVICE_NAME_WILD    103142  * TPDEV_NAME
      103147    TPDEV_NAME_WILD     103154  * TPDEV_ACCT
      103161    TPDEV_ACCT_WILD     103166  * CONSOLE_NAME
      103173    CONSOLE_NAME_WILD   103200  * CONTROLLER_NAME
      103202    CONTROLLER_NAME_WILD
      103204  * TERMINAL_NAME       103211    TERMINAL_NAME_WILD
      103216  * LINE_NAME           103223    LINE_NAME_WILD
      103230  * LINK_NAME           103235    LINK_NAME_WILD
      103242  * VIRCIR_NAME         103244    VIRCIR_NAME_WILD
      103246  * FORM_NAME           103253    FORM_NAME_WILD
      103260  * CHARSET_NAME        103265    CHARSET_NAME_WILD
      103272  * LINE_DEV_NAME       103274  * LINE_DEV_NAME_WILD
      103276    OBJECT              103420    PROFILE_CMD
      103542    CONSOLE_CMD         103605    TERMINAL_CMD
      103703    STATION_CMD         103714    WSN_CMD
      104004    DEVICE_CMD          104037    TP_DEVICE_CMD
      104106    FUNKEY_CMD          104211    LINK_CMD
      104235    VIR_CIR_CMD         104273    CHARSET_CMD
      104332    PSEUDO_CMD          104366    FORM_CMD
      104444    LINE_CMD            104466    CONTROLLER_CMD
      104526    LINE_DEV_CMD        104571    LINK_DEV_CMD
      104624    CMD_NODES           104712    DQUESTION
      104717    QUESTION            104724    HELP
      104752  * DISPLAY             105143    CR_MOD_CMD
      105351    CR_MOD_LIST2        105431    YES_                105433    NO_
      105435    ALL_                105437    NONE_
      105442  * ALLOWED_            105445  * FORBIDDEN_
      105451  * DELETE_             105454    END_
      105464    COMMA_              105466    DOT_
      105470    EQUAL_              105472    SEMI_
      105474    BLANK               105475    EOL
      105476  * NOFAIL_EOL          105477    SYMBOL              105500    SYM
      105505    SYM2                105512    SYM8
      105517    SYM_UC              105527    FORM_SYM8
      105534  * SYM12               105541    DEC
      105543  * ALPHA               105544    FID
      105545    ASYM                105547    REAL
      105556    WSYM                105563    END
      105604  * NOFAIL_FROM_        105612  * SCRATCH_
      105615    YES_NO_ALT          105620    BLANK_LINE
      105623    SYM_                105630    DISPLAY_
      105633    KEYIN_              105636    COMMAND_
      105642    RES_                105646    TP_                 105650    CG_
      105652    REJECT_             105655    INFORM_             105660    OK_
      105662    DELETE              106002    DEVICE_OPTS_LIST
      106412    DEV_DEVNUM          106440  * PD_2780LP_
      106443  * PD_2780CR_          106446  * PD_2780CP_
      106451  * PD_3780LP_          106454  * PD_3780CR_
      106457  * PD_3780CP_          106462  * PD_HASPOC_
      106465  * PD_HASPLP_          106470  * PD_HASPLP2_
      106473  * PD_HASPLP3_         106476  * PD_HASPCR_
      106501  * PD_HASPCP_          106504  * PD_IBMCR_
      106507    DEV_SDNUM           106516    DEV_DEVCTL
      106535  * HSTRING4            106574  * SYM6
      107040    DISPLAY_CMD         107746    PSEUDO_OPTS_LIST
      110001    FORM_OPTS_LIST      110041    GPSEUDO_OPTS_LIST
      110073    GFORM_OPTS_LIST     110450    F_A_OR_B_LIST
      110541    F_VFU_LIST          110570    FB_TYPE_LIST
      111155  * F_SETUP_LIST        111162  * SIGN_
      111172    LINE_OPTS_LIST      111232    CONT_DEV_OPTS_LIST
      111310  * TYPE_3286           111342    LINK_OPTS_LIST
      111370    LINK_PRO            111377    LINK_ADDRESS
      111406    LINK_EOL            111527    LINK_DEV_OPTS_LIST
      111557  * LINK_DEV_PROTOCOL   111642    LIST_CMD
      112510  * LIST_CON_OPT_LIST   112516    LIST_FORM_OPTS_LIST
      112566    LIST_PRO_S_OPT      115620    LIST_P_OPT
      115702    L_ALL_N             115704    L_END_N
      115706    PRO_OPTS_LIST       116764  * P_CHARSET
      123434  * HARD_SOFT           123475  * YES_NO_TRY
      123502    CR_MOD_PROJ_OPTS    123644    PACKSET
      123646  * PROJ_PACK           123650    PROJ_PACKSET_LIST
      123734    LIST_S_OPT          124416    REMOVE
      124770    TERM_OPT_LIST       125015    TERM_PASS
      125053    TERM_PRONAME        125147  * TCD_OPT_LIST
      125167    TCD_PRO             125260    CR_MOD_TREE
      125353  * PASSWORD_OPT        125371  * OCTAL_PASSWORD
      125700    FEPRIV_S_OPT        125757  * SETUP_ASYM
      125774  * FORCE_OPT_ELE       126006  * CPROC_LIST
      126021  * CPNAME              126205  * BILLING_OPT
      126226  * FEBILLING_OPT       126267  * WSN_OPT
      126277  * HSET_OPT            126320  * PRO_OPT
      126356    SERV_OPT_LIST       126560    PRIV_S_OPT
      126634    SPCLMM_             126637    EXMM_
      126642    MAXM_               126645    MSYS_
      126650    SYSLOG_             126653    JIT_
      126655    TND_                126657    ASAVE_
      126662    GPP_                126664    SEC_
      126667    DIA_                126672    FMREAD_             126675    PM_
      126677    EXPM_               126702    IOQW_
      126705    IOQ_                126707    CFEP_
      126712    MFEP_               126715    DISPJOB_
      126720    SYSCON_             126723    INTCON_             126726    CQ_
      126730    SNAP_               126733    SCREECH_
      126741    PPRIV_S_OPT         126747  * PPRIV_OPTIONS
      126762    FEPPRIV_S_OPT       126770  * FEPPRIV_OPTIONS
      127003  * PPRIV_S_ALT         127030    CNTRLD_
      127033    CNTRLC_             127036    EFT_                127040    EL_
      127042    LABEL_              127045    PIGD_
      127050    PIGC_               127053    PIGETTE_
      127056    SUPERAUTH_          127062    SUPERWSN_
      127066    SUPERFORM_          127072    SUPER_
      127075    SPIDERD_            127100    SPIDERC_
      127103    NETCON_             127106    SUPERD_
      127111    VOLINIT_            127114    REPLAY_
      127117    RATES_              127144    BUDGET_S_OPT
      127202    MCHARGES_LIST       127223    ACHARGES_OPT_LIST
      127234    PLUS_               127313  * ACCESS_OPT_ELE
      127324    PSEUDO_SUB          127367    FEPSEUDO_SUB
      127425    RES_OPTS            127463    FERES_OPTS
      127516  * TIME_ALT            127550  * MEM_ALT
      127646    VIR_CIR_OPTS_LIST   127746    WSN_OPTS_LIST
      133324  * B_PATCHIH           133326  * B_PATCHDH
******** CP6  LINK  VERSION E03       MAP                      ********
******** RF   = SUPER                           ACN  = :E05TGNS********
******** UTS  = 07/30/97  14:54:50.28  WED                     ********
******** NODE = ASA$LINE_CONTROLLER             SIZE =      3K ********
               LOW      HIGH      SIZE
            ------    ------    ------
DATA         22536     22553        16
PROCEDURE   133330    135773      2444
******** CONTROL SECTIONS SORTED BY VALUE ********
            22536 DATA     ASA$LINE_CONTROLLER                16

           133330 RODATA   ASA$LINE_CONTROLLER                74
           133424 PROC     ASA$LINE_CONTROLLER              2261
           135706 RODATA   ASA$LINE_CONTROLLER                66

******* RELOCATABLE ENTRY DEFINITIONS SORTED BY NAME *******
      133424    ASA$LINE_CONTROLLER
******* RELOCATABLE ENTRY DEFINITIONS SORTED BY VALUE *******
      133424    ASA$LINE_CONTROLLER
******** CP6  LINK  VERSION E03       MAP                      ********
******** RF   = SUPER                           ACN  = :E05TGNS********
******** UTS  = 07/30/97  14:54:50.28  WED                     ********
******** NODE = ASA$LINK_VIRCIR                 SIZE =      3K ********
               LOW      HIGH      SIZE
            ------    ------    ------
DATA         22536     22577        42
PROCEDURE   133330    137112      3563
******** CONTROL SECTIONS SORTED BY VALUE ********
            22536 DATA     ASA$LINK_VIRCIR                    42

           133330 RODATA   ASA$LINK_VIRCIR                   146
           133476 PROC     ASA$LINK_VIRCIR                  3317
           137016 RODATA   ASA$LINK_VIRCIR                    75

******* RELOCATABLE ENTRY DEFINITIONS SORTED BY NAME *******
      133476    ASA$LINK_VIRCIR
******* RELOCATABLE ENTRY DEFINITIONS SORTED BY VALUE *******
      133476    ASA$LINK_VIRCIR
******** CP6  LINK  VERSION E03       MAP                      ********
******** RF   = SUPER                           ACN  = :E05TGNS********
******** UTS  = 07/30/97  14:54:50.28  WED                     ********
******** NODE = ASC$SETUP_BANNER                SIZE =     13K ********
               LOW      HIGH      SIZE
            ------    ------    ------
DATA         22536     22562        25
PROCEDURE   133330    161634     26305
******** CONTROL SECTIONS SORTED BY VALUE ********
            22536 DATA     ASC$CM_OPTS                        24
            22562 DATA     ASA$PROJECT                         1

           133330 PROC     ASC$BANNER                        745
           134276 RODATA   ASC$BUDGET                         33
           134332 PROC     ASC$BUDGET                       1315
           135650 RODATA   ASC$BUDGET                         43
           135714 RODATA   ASC$CM_OPTS                        70
           136004 PROC     ASC$CM_OPTS                      5053
           143060 RODATA   ASC$CM_OPTS                       107
           143170 RODATA   ASC$MOD_USER                       22
           143212 PROC     ASC$MOD_USER                     1601
           145014 RODATA   ASC$MOD_USER                       22
           145036 RODATA   ASC$FEPRIV                          2
           145040 PROC     ASC$FEPRIV                        665
           145726 RODATA   ASC$FEPRIV                         11
           145740 RODATA   ASC$PRIV                            2
           145742 PROC     ASC$PRIV                          665
           146630 RODATA   ASC$PRIV                           11
           146642 RODATA   ASC$FEPSEUDO                        4
           146646 PROC     ASC$FEPSEUDO                      633
           147502 RODATA   ASC$FEPSEUDO                       12
           147514 RODATA   ASC$PSEUDO                          4
           147520 PROC     ASC$PSEUDO                        633
           150354 RODATA   ASC$PSEUDO                         12
           150366 RODATA   ASC$FERESOURCE                      4
           150372 PROC     ASC$FERESOURCE                    543
           151136 RODATA   ASC$FERESOURCE                     14
           151152 RODATA   ASC$RESOURCE                        6
           151160 PROC     ASC$RESOURCE                     1007
           152170 RODATA   ASC$RESOURCE                       15
           152206 RODATA   ASC$LIMITS                         46
           152254 PROC     ASC$LIMITS                       3376
           155652 RODATA   ASC$LIMITS                         56
           155730 RODATA   ASA$PACKSET_OPTS                   16
           155746 PROC     ASA$PACKSET_OPTS                 2036
           160004 RODATA   ASA$PACKSET_OPTS                   41
           160046 RODATA   ASA$PROJECT                        21
           160070 PROC     ASA$PROJECT                      1502
           161572 RODATA   ASA$PROJECT                        43

******* RELOCATABLE ENTRY DEFINITIONS SORTED BY NAME *******
      155746    ASA$PACKSET_OPTS    160070    ASA$PROJECT
      133330    ASC$BANNER          134332    ASC$BUDGET
      136004    ASC$CM_OPTS         152257    ASC$EXPIRE
      145373    ASC$FEPPRIV         145040    ASC$FEPRIV
      146646    ASC$FEPSEUDO        150372    ASC$FERESOURCE
      152254  * ASC$LIMITS          152531    ASC$MEMORY
      143212    ASC$MOD_USER        154311    ASC$MOD_USER_LIMITS
      154231    ASC$OUTPUTPRIO      146275    ASC$PPRIV
      145742    ASC$PRIV            147520    ASC$PSEUDO
      151160    ASC$RESOURCE        152736    ASC$SERVICE
      133337    ASC$SETUP           152376    ASC$TIME
******* RELOCATABLE ENTRY DEFINITIONS SORTED BY VALUE *******
      133330    ASC$BANNER          133337    ASC$SETUP
      134332    ASC$BUDGET          136004    ASC$CM_OPTS
      143212    ASC$MOD_USER        145040    ASC$FEPRIV
      145373    ASC$FEPPRIV         145742    ASC$PRIV
      146275    ASC$PPRIV           146646    ASC$FEPSEUDO
      147520    ASC$PSEUDO          150372    ASC$FERESOURCE
      151160    ASC$RESOURCE        152254  * ASC$LIMITS
      152257    ASC$EXPIRE          152376    ASC$TIME
      152531    ASC$MEMORY          152736    ASC$SERVICE
      154231    ASC$OUTPUTPRIO      154311    ASC$MOD_USER_LIMITS
      155746    ASA$PACKSET_OPTS    160070    ASA$PROJECT
******** CP6  LINK  VERSION E03       MAP                      ********
******** RF   = SUPER                           ACN  = :E05TGNS********
******** UTS  = 07/30/97  14:54:50.28  WED                     ********
******** NODE = ASA$STATION                     SIZE =      2K ********
               LOW      HIGH      SIZE
            ------    ------    ------
DATA         22536     22541         4
PROCEDURE   133330    134030       501
******** CONTROL SECTIONS SORTED BY VALUE ********
            22536 DATA     ASA$STATION                         4

           133330 RODATA   ASA$STATION                        31
           133362 PROC     ASA$STATION                       426
           134010 RODATA   ASA$STATION                        21

******* RELOCATABLE ENTRY DEFINITIONS SORTED BY NAME *******
      133362    ASA$STATION
******* RELOCATABLE ENTRY DEFINITIONS SORTED BY VALUE *******
      133362    ASA$STATION
******** CP6  LINK  VERSION E03       MAP                      ********
******** RF   = SUPER                           ACN  = :E05TGNS********
******** UTS  = 07/30/97  14:54:50.28  WED                     ********
******** NODE = ASA$CONSOLE                     SIZE =     10K ********
               LOW      HIGH      SIZE
            ------    ------    ------
DATA         22536     22757       222
PROCEDURE   133330    153420     20071
******** CONTROL SECTIONS SORTED BY VALUE ********
            22536 DATA     ASA$CONSOLE                         3
            22542 DATA     ASA$DEVICE                          6
            22550 DATA     ASA$DEV_OPTS                       64
            22634 DATA     ASA$TERMINAL                      124

           133330 RODATA   ASA$CONSOLE                        15
           133346 PROC     ASA$CONSOLE                       616
           134164 RODATA   ASA$CONSOLE                        24
           134210 RODATA   ASA$CON_OPTS                      132
           134342 PROC     ASA$CON_OPTS                     2742
           137304 RODATA   ASA$CON_OPTS                       54
           137360 RODATA   ASA$DEVICE                         23
           137404 PROC     ASA$DEVICE                       1003
           140410 RODATA   ASA$DEVICE                         30
           140440 RODATA   ASA$DEV_OPTS                      314
           140754 PROC     ASA$DEV_OPTS                     6145
           147122 RODATA   ASA$DEV_OPTS                      116
           147240 RODATA   ASA$TERMINAL                      200
           147440 PROC     ASA$TERMINAL                     3544
           153204 RODATA   ASA$TERMINAL                      100
           153304 RODATA   ASB$VALID_TDEVICE                   3
           153310 PROC     ASB$VALID_TDEVICE                 105
           153416 RODATA   ASB$VALID_TDEVICE                   3

******* RELOCATABLE ENTRY DEFINITIONS SORTED BY NAME *******
      133346    ASA$CONSOLE         134342    ASA$CON_OPTS
      137404    ASA$DEVICE          140754    ASA$DEV_OPTS
      147440    ASA$TERMINAL        153310    ASB$VALID_TDEVICE
******* RELOCATABLE & CONSTANT DATA DEFINITIONS SORTED BY NAME  *******
       22550    TYPE
******* RELOCATABLE ENTRY DEFINITIONS SORTED BY VALUE *******
      133346    ASA$CONSOLE         134342    ASA$CON_OPTS
      137404    ASA$DEVICE          140754    ASA$DEV_OPTS
      147440    ASA$TERMINAL        153310    ASB$VALID_TDEVICE
******* RELOCATABLE & CONSTANT DATA DEFINITIONS SORTED BY VALUE *******
       22550    TYPE
******** CP6  LINK  VERSION E03       MAP                      ********
******** RF   = SUPER                           ACN  = :E05TGNS********
******** UTS  = 07/30/97  14:54:50.28  WED                     ********
******** NODE = ASA$TIE_PROJECT                 SIZE =      1K ********
               LOW      HIGH      SIZE
            ------    ------    ------
DATA                                 0
PROCEDURE   133330    133563       234
******** CONTROL SECTIONS SORTED BY VALUE ********
           133330 RODATA   ASA$TIE_PROJECT                     1
           133332 PROC     ASA$TIE_PROJECT                   222
           133554 RODATA   ASA$TIE_PROJECT                    10

******* RELOCATABLE ENTRY DEFINITIONS SORTED BY NAME *******
      133332    ASA$TIE_PROJECT
******* RELOCATABLE ENTRY DEFINITIONS SORTED BY VALUE *******
      133332    ASA$TIE_PROJECT
******** CP6  LINK  VERSION E03       MAP                      ********
******** RF   = SUPER                           ACN  = :E05TGNS********
******** UTS  = 07/30/97  14:54:50.28  WED                     ********
******** NODE = ASA$UNTIE_PROJECT               SIZE =      1K ********
               LOW      HIGH      SIZE
            ------    ------    ------
DATA                                 0
PROCEDURE   133330    133567       240
******** CONTROL SECTIONS SORTED BY VALUE ********
           133330 RODATA   ASA$UNTIE_PROJECT                   1
           133332 PROC     ASA$UNTIE_PROJECT                 225
           133560 RODATA   ASA$UNTIE_PROJECT                  10

******* RELOCATABLE ENTRY DEFINITIONS SORTED BY NAME *******
      133332    ASA$UNTIE_PROJECT
******* RELOCATABLE ENTRY DEFINITIONS SORTED BY VALUE *******
      133332    ASA$UNTIE_PROJECT
******** CP6  LINK  VERSION E03       MAP                      ********
******** RF   = SUPER                           ACN  = :E05TGNS********
******** UTS  = 07/30/97  14:54:50.28  WED                     ********
******** NODE = ASA$USER                        SIZE =      1K ********
               LOW      HIGH      SIZE
            ------    ------    ------
DATA                                 0
PROCEDURE   133330    134377      1050
******** CONTROL SECTIONS SORTED BY VALUE ********
           133330 RODATA   ASA$TIE_USER                        3
           133334 PROC     ASA$TIE_USER                      423
           133760 RODATA   ASA$TIE_USER                       14
           133774 RODATA   ASA$UNTIE_USER                      2
           133776 PROC     ASA$UNTIE_USER                    367
           134366 RODATA   ASA$UNTIE_USER                     12

******* RELOCATABLE ENTRY DEFINITIONS SORTED BY NAME *******
      133334    ASA$TIE_USER        133776    ASA$UNTIE_USER
******* RELOCATABLE ENTRY DEFINITIONS SORTED BY VALUE *******
      133334    ASA$TIE_USER        133776    ASA$UNTIE_USER
******** CP6  LINK  VERSION E03       MAP                      ********
******** RF   = SUPER                           ACN  = :E05TGNS********
******** UTS  = 07/30/97  14:54:50.28  WED                     ********
******** NODE = ASB$GET_MGRANS                  SIZE =      2K ********
               LOW      HIGH      SIZE
            ------    ------    ------
DATA         22536     22633        76
PROCEDURE   133330    133412        63
******** CONTROL SECTIONS SORTED BY VALUE ********
            22536 DATA     ASB$GET_MGRANS                     76

           133330 PROC     ASB$GET_MGRANS                     55
           133406 RODATA   ASB$GET_MGRANS                      5

******* RELOCATABLE ENTRY DEFINITIONS SORTED BY NAME *******
      133330    ASB$GET_MGRANS
******* RELOCATABLE ENTRY DEFINITIONS SORTED BY VALUE *******
      133330    ASB$GET_MGRANS
******** CP6  LINK  VERSION E03       MAP                      ********
******** RF   = SUPER                           ACN  = :E05TGNS********
******** UTS  = 07/30/97  14:54:50.28  WED                     ********
******** NODE = ASC$CHARSET                     SIZE =      1K ********
               LOW      HIGH      SIZE
            ------    ------    ------
DATA                                 0
PROCEDURE   133330    135021      1472
******** CONTROL SECTIONS SORTED BY VALUE ********
           133330 RODATA   ASC$CHARSET                        35
           133366 PROC     ASC$CHARSET                      1412
           135000 RODATA   ASC$CHARSET                        22

******* RELOCATABLE ENTRY DEFINITIONS SORTED BY NAME *******
      133366    ASC$CHARSET
******* RELOCATABLE ENTRY DEFINITIONS SORTED BY VALUE *******
      133366    ASC$CHARSET
******** CP6  LINK  VERSION E03       MAP                      ********
******** RF   = SUPER                           ACN  = :E05TGNS********
******** UTS  = 07/30/97  14:54:50.28  WED                     ********
******** NODE = ASC$CONFIG                      SIZE =      2K ********
               LOW      HIGH      SIZE
            ------    ------    ------
DATA         22536     22737       202
PROCEDURE   133330    134410      1061
******** CONTROL SECTIONS SORTED BY VALUE ********
            22536 DATA     ASC$CONFIG                        202

           133330 RODATA   ASC$CONFIG                         51
           133402 PROC     ASC$CONFIG                        775
           134400 RODATA   ASC$CONFIG                         11

******* RELOCATABLE ENTRY DEFINITIONS SORTED BY NAME *******
      133402    ASC$CONFIG
******* RELOCATABLE ENTRY DEFINITIONS SORTED BY VALUE *******
      133402    ASC$CONFIG
******** CP6  LINK  VERSION E03       MAP                      ********
******** RF   = SUPER                           ACN  = :E05TGNS********
******** UTS  = 07/30/97  14:54:50.28  WED                     ********
******** NODE = ASD$PROFILE                     SIZE =      9K ********
               LOW      HIGH      SIZE
            ------    ------    ------
DATA         22536     22646       111
PROCEDURE   133330    152324     16775
******** CONTROL SECTIONS SORTED BY VALUE ********
            22536 DATA     ASD$PROFILE                       111

           133330 RODATA   ASD$PROFILE                       140
           133470 PROC     ASD$PROFILE                     16332
           152022 RODATA   ASD$PROFILE                       220
           152242 RODATA   ASD$R2HUSECS                        1
           152244 PROC     ASD$R2HUSECS                       60
           152324 RODATA   ASD$R2HUSECS                        1

******* RELOCATABLE ENTRY DEFINITIONS SORTED BY NAME *******
      133470    ASD$PROFILE         152244    ASD$R2HUSECS
      135362  * PRO_OPTS
******* RELOCATABLE ENTRY DEFINITIONS SORTED BY VALUE *******
      133470    ASD$PROFILE         135362  * PRO_OPTS
      152244    ASD$R2HUSECS
******** CP6  LINK  VERSION E03       MAP                      ********
******** RF   = SUPER                           ACN  = :E05TGNS********
******** UTS  = 07/30/97  14:54:50.28  WED                     ********
******** NODE = ASF$FORM                        SIZE =      8K ********
               LOW      HIGH      SIZE
            ------    ------    ------
DATA         22536     22550        13
PROCEDURE   133330    147404     14055
******** CONTROL SECTIONS SORTED BY VALUE ********
            22536 DATA     ASF$FORM                           13

           133330 RODATA   ASF$FORM                          102
           133432 PROC     ASF$FORM                        13600
           147232 RODATA   ASF$FORM                          153

******* RELOCATABLE ENTRY DEFINITIONS SORTED BY NAME *******
      133432    ASF$FORM
******* RELOCATABLE ENTRY DEFINITIONS SORTED BY VALUE *******
      133432    ASF$FORM
******** CP6  LINK  VERSION E03       MAP                      ********
******** RF   = SUPER                           ACN  = :E05TGNS********
******** UTS  = 07/30/97  14:54:50.28  WED                     ********
******** NODE = ASL$LIST                        SIZE =     11K ********
               LOW      HIGH      SIZE
            ------    ------    ------
DATA         22536     22634        77
PROCEDURE   133330    157203     23654
******** CONTROL SECTIONS SORTED BY VALUE ********
            22536 DATA     ASL$LIST_OUT                       74
            22632 DATA     ASV$VALIDATE_STATION                3

           133330 RODATA   ASL$LIST                            4
           133334 PROC     ASL$LIST                          744
           134300 RODATA   ASL$LIST                           11
           134312 RODATA   ASL$LIST_OPTS                       3
           134316 PROC     ASL$LIST_OPTS                     600
           135116 RODATA   ASL$LIST_OPTS                       6
           135124 RODATA   ASL$LIST_OUT                     5236
           142362 PROC     ASL$LIST_OUT                    14043
           156426 RODATA   ASL$LIST_OUT                      347
           156776 RODATA   ASV$VALIDATE_STATION                5
           157004 PROC     ASV$VALIDATE_STATION              167
           157174 RODATA   ASV$VALIDATE_STATION               10

******* RELOCATABLE ENTRY DEFINITIONS SORTED BY NAME *******
      133334    ASL$LIST            134316    ASL$LIST_OPTS
      142362    ASL$LIST_OUT        142635    ASL$LIST_OUTPUT
      143226    ASL$LIST_PACK_OUT   143150    ASL$LIST_PROJ_OUT
      157004    ASV$VALIDATE_STATION
******* RELOCATABLE ENTRY DEFINITIONS SORTED BY VALUE *******
      133334    ASL$LIST            134316    ASL$LIST_OPTS
      142362    ASL$LIST_OUT        142635    ASL$LIST_OUTPUT
      143150    ASL$LIST_PROJ_OUT   143226    ASL$LIST_PACK_OUT
      157004    ASV$VALIDATE_STATION
******** CP6  LINK  VERSION E03       MAP                      ********
******** RF   = SUPER                           ACN  = :E05TGNS********
******** UTS  = 07/30/97  14:54:50.28  WED                     ********
******** NODE = ASL$LIST_CHARSETS               SIZE =      2K ********
               LOW      HIGH      SIZE
            ------    ------    ------
DATA                                 0
PROCEDURE   157204    161343      2140
******** CONTROL SECTIONS SORTED BY VALUE ********
           157204 RODATA   ASL$DISP_ONE_CHARSET              131
           157336 PROC     ASL$DISP_ONE_CHARSET              676
           160234 RODATA   ASL$DISP_ONE_CHARSET               62
           160316 RODATA   ASL$LIST_ALL_CHARSETS              25
           160344 PROC     ASL$LIST_ALL_CHARSETS             754
           161320 RODATA   ASL$LIST_ALL_CHARSETS              24

******* RELOCATABLE ENTRY DEFINITIONS SORTED BY NAME *******
      157336    ASL$DISP_ONE_CHARSET
      160344    ASL$LIST_ALL_CHARSETS
******* RELOCATABLE ENTRY DEFINITIONS SORTED BY VALUE *******
      157336    ASL$DISP_ONE_CHARSET
      160344    ASL$LIST_ALL_CHARSETS
******** CP6  LINK  VERSION E03       MAP                      ********
******** RF   = SUPER                           ACN  = :E05TGNS********
******** UTS  = 07/30/97  14:54:50.28  WED                     ********
******** NODE = ASL$LIST_FORMSETS               SIZE =      1K ********
               LOW      HIGH      SIZE
            ------    ------    ------
DATA                                 0
PROCEDURE   157204    160277      1074
******** CONTROL SECTIONS SORTED BY VALUE ********
           157204 RODATA   ASL$LIST_ALL_FORMSETS              24
           157230 PROC     ASL$LIST_ALL_FORMSETS            1020
           160250 RODATA   ASL$LIST_ALL_FORMSETS              30

******* RELOCATABLE ENTRY DEFINITIONS SORTED BY NAME *******
      157230    ASL$LIST_ALL_FORMSETS
******* RELOCATABLE ENTRY DEFINITIONS SORTED BY VALUE *******
      157230    ASL$LIST_ALL_FORMSETS
******** CP6  LINK  VERSION E03       MAP                      ********
******** RF   = SUPER                           ACN  = :E05TGNS********
******** UTS  = 07/30/97  14:54:50.28  WED                     ********
******** NODE = ASL$DISPLAY_FORM                SIZE =      5K ********
               LOW      HIGH      SIZE
            ------    ------    ------
DATA         22635     22640         4
PROCEDURE   160300    167603      7304
******** CONTROL SECTIONS SORTED BY VALUE ********
            22636 DATA     ASL$DISP_ONE_FORM                   3

           160300 RODATA   ASL$DISP_ONE_FORM                 614
           161114 PROC     ASL$DISP_ONE_FORM                5611
           166726 RODATA   ASL$DISP_ONE_FORM                 241
           167170 PROC     ASL$FORM_LIST_OPTS                167
           167360 RODATA   ASL$FORM_LIST_OPTS                  6
           167366 RODATA   ASL$LIST_ONE_FORMSET                1
           167370 PROC     ASL$LIST_ONE_FORMSET              207
           167600 RODATA   ASL$LIST_ONE_FORMSET                4

******* RELOCATABLE ENTRY DEFINITIONS SORTED BY NAME *******
      161114    ASL$DISP_ONE_FORM   167170    ASL$FORM_LIST_OPTS
      167370    ASL$LIST_ONE_FORMSET
******* RELOCATABLE ENTRY DEFINITIONS SORTED BY VALUE *******
      161114    ASL$DISP_ONE_FORM   167170    ASL$FORM_LIST_OPTS
      167370    ASL$LIST_ONE_FORMSET
******** CP6  LINK  VERSION E03       MAP                      ********
******** RF   = SUPER                           ACN  = :E05TGNS********
******** UTS  = 07/30/97  14:54:50.28  WED                     ********
******** NODE = ASL$LIST_LINES                  SIZE =      3K ********
               LOW      HIGH      SIZE
            ------    ------    ------
DATA                                 0
PROCEDURE   157204    165061      5656
******** CONTROL SECTIONS SORTED BY VALUE ********
           157204 RODATA   ASL$DISP_ONE_LINE                  40
           157244 PROC     ASL$DISP_ONE_LINE                 225
           157472 RODATA   ASL$DISP_ONE_LINE                  22
           157514 RODATA   ASL$LIST_ALL_LINES                 23
           157540 PROC     ASL$LIST_ALL_LINES                720
           160460 RODATA   ASL$LIST_ALL_LINES                 32
           160512 RODATA   ASL$DISP_ONE_LINE_DEVICE           51
           160564 PROC     ASL$DISP_ONE_LINE_DEVICE          204
           160770 RODATA   ASL$DISP_ONE_LINE_DEVICE           11
           161002 RODATA   ASL$FIND_LINE_DEVICE               11
           161014 PROC     ASL$FIND_LINE_DEVICE              170
           161204 RODATA   ASL$FIND_LINE_DEVICE                4
           161210 RODATA   ASL$LIST_ALL_LINE_DEVICES          64
           161274 PROC     ASL$LIST_ALL_LINE_DEVICES        1450
           162744 RODATA   ASL$LIST_ALL_LINE_DEVICES          50
           163014 RODATA   ASL$DISP_ONE_CONTROLLER            54
           163070 PROC     ASL$DISP_ONE_CONTROLLER           202
           163272 RODATA   ASL$DISP_ONE_CONTROLLER             5
           163300 RODATA   ASL$FIND_CONTROLLER                11
           163312 PROC     ASL$FIND_CONTROLLER               230
           163542 RODATA   ASL$FIND_CONTROLLER                 5
           163550 RODATA   ASL$LIST_ALL_CONTROLLERS           43
           163614 PROC     ASL$LIST_ALL_CONTROLLERS         1203
           165020 RODATA   ASL$LIST_ALL_CONTROLLERS           42

******* RELOCATABLE ENTRY DEFINITIONS SORTED BY NAME *******
      163070    ASL$DISP_ONE_CONTROLLER
      157244    ASL$DISP_ONE_LINE   160564    ASL$DISP_ONE_LINE_DEVICE
      163312    ASL$FIND_CONTROLLER 161014    ASL$FIND_LINE_DEVICE
      163614    ASL$LIST_ALL_CONTROLLERS
      157540    ASL$LIST_ALL_LINES  161274    ASL$LIST_ALL_LINE_DEVICES
******* RELOCATABLE ENTRY DEFINITIONS SORTED BY VALUE *******
      157244    ASL$DISP_ONE_LINE   157540    ASL$LIST_ALL_LINES
      160564    ASL$DISP_ONE_LINE_DEVICE
      161014    ASL$FIND_LINE_DEVICE
      161274    ASL$LIST_ALL_LINE_DEVICES
      163070    ASL$DISP_ONE_CONTROLLER
      163312    ASL$FIND_CONTROLLER 163614    ASL$LIST_ALL_CONTROLLERS
******** CP6  LINK  VERSION E03       MAP                      ********
******** RF   = SUPER                           ACN  = :E05TGNS********
******** UTS  = 07/30/97  14:54:50.28  WED                     ********
******** NODE = ASL$LIST_LINKS                  SIZE =      5K ********
               LOW      HIGH      SIZE
            ------    ------    ------
DATA         22635     22644        10
PROCEDURE   157204    166021      6616
******** CONTROL SECTIONS SORTED BY VALUE ********
            22636 DATA     ASL$DISP_ONE_LINK                   4
            22642 DATA     ASL$DISP_ONE_LINKDEV                1
            22644 DATA     ASL$DISP_ONE_VIRCIR                 1

           157204 RODATA   ASL$DISP_ONE_LINK                 126
           157332 PROC     ASL$DISP_ONE_LINK                 553
           160106 RODATA   ASL$DISP_ONE_LINK                  40
           160146 RODATA   ASL$LIST_ALL_LINKS                 23
           160172 PROC     ASL$LIST_ALL_LINKS                713
           161106 RODATA   ASL$LIST_ALL_LINKS                 30
           161136 RODATA   ASL$DISP_ONE_LINKDEV               76
           161234 PROC     ASL$DISP_ONE_LINKDEV              313
           161550 RODATA   ASL$DISP_ONE_LINKDEV               25
           161576 RODATA   ASL$FIND_LINKDEV                   22
           161620 PROC     ASL$FIND_LINKDEV                  147
           161770 RODATA   ASL$FIND_LINKDEV                    2
           161772 RODATA   ASL$LIST_ALL_LINKDEVS              37
           162032 PROC     ASL$LIST_ALL_LINKDEVS            1126
           163160 RODATA   ASL$LIST_ALL_LINKDEVS              42
           163222 RODATA   ASL$DISP_ONE_VIRCIR               120
           163342 PROC     ASL$DISP_ONE_VIRCIR               710
           164252 RODATA   ASL$DISP_ONE_VIRCIR                30
           164302 RODATA   ASL$FIND_VIRCIR                    23
           164326 PROC     ASL$FIND_VIRCIR                   233
           164562 RODATA   ASL$FIND_VIRCIR                     4
           164566 RODATA   ASL$LIST_ALL_VIRCIRS               35
           164624 PROC     ASL$LIST_ALL_VIRCIRS             1135
           165762 RODATA   ASL$LIST_ALL_VIRCIRS               40

******* RELOCATABLE ENTRY DEFINITIONS SORTED BY NAME *******
      157332    ASL$DISP_ONE_LINK   161234    ASL$DISP_ONE_LINKDEV
      163342    ASL$DISP_ONE_VIRCIR 161620    ASL$FIND_LINKDEV
      164326    ASL$FIND_VIRCIR     162032    ASL$LIST_ALL_LINKDEVS
      160172    ASL$LIST_ALL_LINKS  164624    ASL$LIST_ALL_VIRCIRS
******* RELOCATABLE ENTRY DEFINITIONS SORTED BY VALUE *******
      157332    ASL$DISP_ONE_LINK   160172    ASL$LIST_ALL_LINKS
      161234    ASL$DISP_ONE_LINKDEV
      161620    ASL$FIND_LINKDEV    162032    ASL$LIST_ALL_LINKDEVS
      163342    ASL$DISP_ONE_VIRCIR 164326    ASL$FIND_VIRCIR
      164624    ASL$LIST_ALL_VIRCIRS
******** CP6  LINK  VERSION E03       MAP                      ********
******** RF   = SUPER                           ACN  = :E05TGNS********
******** UTS  = 07/30/97  14:54:50.28  WED                     ********
******** NODE = ASL$LIST_PROFILES               SIZE =     16K ********
               LOW      HIGH      SIZE
            ------    ------    ------
DATA         22635     23633       777
PROCEDURE   157204    214551     35346
******** CONTROL SECTIONS SORTED BY VALUE ********
            22636 DATA     ASL$DISP_ONE_PROFILE              776

           157204 RODATA   ASL$LIST_ALL_PROFILES              74
           157300 PROC     ASL$LIST_ALL_PROFILES            1135
           160436 RODATA   ASL$LIST_ALL_PROFILES              30
           160466 RODATA   ASL$DISP_ONE_PROFILE             4451
           165140 PROC     ASL$DISP_ONE_PROFILE            27051
           214212 RODATA   ASL$DISP_ONE_PROFILE              340

******* RELOCATABLE ENTRY DEFINITIONS SORTED BY NAME *******
      165140    ASL$DISP_ONE_PROFILE
      157300    ASL$LIST_ALL_PROFILES
      166305    ASL$LIST_PRO_OPTS
******* RELOCATABLE & CONSTANT DATA DEFINITIONS SORTED BY NAME  *******
       22704    PRO_FLAGS            23430  * PRO_TYP
******* RELOCATABLE ENTRY DEFINITIONS SORTED BY VALUE *******
      157300    ASL$LIST_ALL_PROFILES
      165140    ASL$DISP_ONE_PROFILE
      166305    ASL$LIST_PRO_OPTS
******* RELOCATABLE & CONSTANT DATA DEFINITIONS SORTED BY VALUE *******
       22704    PRO_FLAGS            23430  * PRO_TYP
******** CP6  LINK  VERSION E03       MAP                      ********
******** RF   = SUPER                           ACN  = :E05TGNS********
******** UTS  = 07/30/97  14:54:50.28  WED                     ********
******** NODE = ASL$LIST_PROJECTS               SIZE =      3K ********
               LOW      HIGH      SIZE
            ------    ------    ------
DATA         22635     22657        23
PROCEDURE   157204    161402      2177
******** CONTROL SECTIONS SORTED BY VALUE ********
            22636 DATA     ASL$LIST_ALL_PROJECTS              22

           157204 RODATA   ASL$LIST_ALL_PROJECTS             102
           157306 PROC     ASL$LIST_ALL_PROJECTS            1411
           160720 RODATA   ASL$LIST_ALL_PROJECTS              65
           161006 PROC     ASL$LIST_PROJ_OPTS                367
           161376 RODATA   ASL$LIST_PROJ_OPTS                  5

******* RELOCATABLE ENTRY DEFINITIONS SORTED BY NAME *******
      157306    ASL$LIST_ALL_PROJECTS
      161006    ASL$LIST_PROJ_OPTS
******* RELOCATABLE ENTRY DEFINITIONS SORTED BY VALUE *******
      157306    ASL$LIST_ALL_PROJECTS
      161006    ASL$LIST_PROJ_OPTS
******** CP6  LINK  VERSION E03       MAP                      ********
******** RF   = SUPER                           ACN  = :E05TGNS********
******** UTS  = 07/30/97  14:54:50.28  WED                     ********
******** NODE = ASL$LIST_STATIONS               SIZE =      2K ********
               LOW      HIGH      SIZE
            ------    ------    ------
DATA         22635     22740       104
PROCEDURE   157204    161007      1604
******** CONTROL SECTIONS SORTED BY VALUE ********
            22636 DATA     ASL$DISP_ONE_STATION              102
            22740 DATA     ASL$LIST_ALL_STATIONS               1

           157204 RODATA   ASL$DISP_ONE_STATION               64
           157270 PROC     ASL$DISP_ONE_STATION              501
           157772 RODATA   ASL$DISP_ONE_STATION               62
           160054 RODATA   ASL$LIST_ALL_STATIONS              24
           160100 PROC     ASL$LIST_ALL_STATIONS             662
           160762 RODATA   ASL$LIST_ALL_STATIONS              26

******* RELOCATABLE ENTRY DEFINITIONS SORTED BY NAME *******
      157270    ASL$DISP_ONE_STATION
      160100    ASL$LIST_ALL_STATIONS
******* RELOCATABLE ENTRY DEFINITIONS SORTED BY VALUE *******
      157270    ASL$DISP_ONE_STATION
      160100    ASL$LIST_ALL_STATIONS
******** CP6  LINK  VERSION E03       MAP                      ********
******** RF   = SUPER                           ACN  = :E05TGNS********
******** UTS  = 07/30/97  14:54:50.28  WED                     ********
******** NODE = ASL$LIST_DEVICES                SIZE =      8K ********
               LOW      HIGH      SIZE
            ------    ------    ------
DATA         22635     23126       272
PROCEDURE   157204    174702     15477
******** CONTROL SECTIONS SORTED BY VALUE ********
            22636 DATA     ASL$LIST_ALL_DEVICES               77
            22736 DATA     ASL$LIST_ALL_CONSOLES              70
            23026 DATA     ASL$LIST_ALL_TERMINALS            101

           157204 RODATA   ASL$DISP_ONE_DEVICE               651
           160056 PROC     ASL$DISP_ONE_DEVICE              3404
           163462 RODATA   ASL$DISP_ONE_DEVICE               116
           163600 RODATA   ASL$FORMAT_DEVNAME                  3
           163604 PROC     ASL$FORMAT_DEVNAME                167
           163774 RODATA   ASL$FORMAT_DEVNAME                  2
           163776 RODATA   ASL$LIST_ALL_DEVICES               30
           164026 PROC     ASL$LIST_ALL_DEVICES             3456
           167504 RODATA   ASL$LIST_ALL_DEVICES               46
           167552 RODATA   ASL$FORMAT_CONNAME                  3
           167556 PROC     ASL$FORMAT_CONNAME                167
           167746 RODATA   ASL$FORMAT_CONNAME                  2
           167750 RODATA   ASL$LIST_ALL_CONSOLES              30
           170000 PROC     ASL$LIST_ALL_CONSOLES            2373
           172374 RODATA   ASL$LIST_ALL_CONSOLES              44
           172440 RODATA   ASL$LIST_ALL_TERMINALS             52
           172512 PROC     ASL$LIST_ALL_TERMINALS           1647
           174362 RODATA   ASL$LIST_ALL_TERMINALS             34
           174416 RODATA   ASB$GET_NEXT_STATION                2
           174420 PROC     ASB$GET_NEXT_STATION              117
           174540 RODATA   ASB$GET_NEXT_STATION                7
           174550 RODATA   ASB$INIT_GET_STATION                1
           174552 PROC     ASB$INIT_GET_STATION              123
           174676 RODATA   ASB$INIT_GET_STATION                5

******* RELOCATABLE ENTRY DEFINITIONS SORTED BY NAME *******
      174420    ASB$GET_NEXT_STATION
      174552    ASB$INIT_GET_STATION
      160056    ASL$DISP_ONE_DEVICE 167556    ASL$FORMAT_CONNAME
      163604    ASL$FORMAT_DEVNAME  170000    ASL$LIST_ALL_CONSOLES
      164026    ASL$LIST_ALL_DEVICES
      172512    ASL$LIST_ALL_TERMINALS
******* RELOCATABLE ENTRY DEFINITIONS SORTED BY VALUE *******
      160056    ASL$DISP_ONE_DEVICE 163604    ASL$FORMAT_DEVNAME
      164026    ASL$LIST_ALL_DEVICES
      167556    ASL$FORMAT_CONNAME  170000    ASL$LIST_ALL_CONSOLES
      172512    ASL$LIST_ALL_TERMINALS
      174420    ASB$GET_NEXT_STATION
      174552    ASB$INIT_GET_STATION
******** CP6  LINK  VERSION E03       MAP                      ********
******** RF   = SUPER                           ACN  = :E05TGNS********
******** UTS  = 07/30/97  14:54:50.28  WED                     ********
******** NODE = ASB$FIND_TERMINAL               SIZE =      1K ********
               LOW      HIGH      SIZE
            ------    ------    ------
DATA                                 0
PROCEDURE   174703    175065       163
******** CONTROL SECTIONS SORTED BY VALUE ********
           174704 RODATA   ASB$INIT_GET_TERMINAL               1
           174706 PROC     ASB$INIT_GET_TERMINAL             151
           175060 RODATA   ASB$INIT_GET_TERMINAL               6

******* RELOCATABLE ENTRY DEFINITIONS SORTED BY NAME *******
      174757    ASB$GET_NEXT_TERMINAL
      174706    ASB$INIT_GET_TERMINAL
******* RELOCATABLE ENTRY DEFINITIONS SORTED BY VALUE *******
      174706    ASB$INIT_GET_TERMINAL
      174757    ASB$GET_NEXT_TERMINAL
******** CP6  LINK  VERSION E03       MAP                      ********
******** RF   = SUPER                           ACN  = :E05TGNS********
******** UTS  = 07/30/97  14:54:50.28  WED                     ********
******** NODE = ASL$DISPLAY_TERMINAL            SIZE =      3K ********
               LOW      HIGH      SIZE
            ------    ------    ------
DATA         23127     23227       101
PROCEDURE   174703    177133      2231
******** CONTROL SECTIONS SORTED BY VALUE ********
            23130 DATA     ASL$DISP_ONE_TERMINAL             100

           174704 RODATA   ASL$DISP_ONE_TERMINAL             335
           175242 PROC     ASL$DISP_ONE_TERMINAL            1542
           177004 RODATA   ASL$DISP_ONE_TERMINAL             130

******* RELOCATABLE ENTRY DEFINITIONS SORTED BY NAME *******
      175242    ASL$DISP_ONE_TERMINAL
******* RELOCATABLE ENTRY DEFINITIONS SORTED BY VALUE *******
      175242    ASL$DISP_ONE_TERMINAL
******** CP6  LINK  VERSION E03       MAP                      ********
******** RF   = SUPER                           ACN  = :E05TGNS********
******** UTS  = 07/30/97  14:54:50.28  WED                     ********
******** NODE = ASL$LIST_USERS                  SIZE =      1K ********
               LOW      HIGH      SIZE
            ------    ------    ------
DATA                                 0
PROCEDURE   157204    160103       700
******** CONTROL SECTIONS SORTED BY VALUE ********
           157204 RODATA   ASL$LIST_ALL_USERS                 21
           157226 PROC     ASL$LIST_ALL_USERS                624
           160052 RODATA   ASL$LIST_ALL_USERS                 32

******* RELOCATABLE ENTRY DEFINITIONS SORTED BY NAME *******
      157226    ASL$LIST_ALL_USERS
******* RELOCATABLE ENTRY DEFINITIONS SORTED BY VALUE *******
      157226    ASL$LIST_ALL_USERS
******** CP6  LINK  VERSION E03       MAP                      ********
******** RF   = SUPER                           ACN  = :E05TGNS********
******** UTS  = 07/30/97  14:54:50.28  WED                     ********
******** NODE = ASL$LIST_WORKSTATIONS           SIZE =      3K ********
               LOW      HIGH      SIZE
            ------    ------    ------
DATA         22635     22637         3
PROCEDURE   157204    161631      2426
******** CONTROL SECTIONS SORTED BY VALUE ********
            22636 DATA     ASL$DISP_ONE_WORKSTATION            2

           157204 RODATA   ASL$DISP_ONE_WORKSTATION          135
           157342 PROC     ASL$DISP_ONE_WORKSTATION         1250
           160612 RODATA   ASL$DISP_ONE_WORKSTATION           43
           160656 RODATA   ASL$LIST_ALL_WORKSTATIONS          25
           160704 PROC     ASL$LIST_ALL_WORKSTATIONS         702
           161606 RODATA   ASL$LIST_ALL_WORKSTATIONS          24

******* RELOCATABLE ENTRY DEFINITIONS SORTED BY NAME *******
      157342    ASL$DISP_ONE_WORKSTATION
      160704    ASL$LIST_ALL_WORKSTATIONS
******* RELOCATABLE ENTRY DEFINITIONS SORTED BY VALUE *******
      157342    ASL$DISP_ONE_WORKSTATION
      160704    ASL$LIST_ALL_WORKSTATIONS
******** CP6  LINK  VERSION E03       MAP                      ********
******** RF   = SUPER                           ACN  = :E05TGNS********
******** UTS  = 07/30/97  14:54:50.28  WED                     ********
******** NODE = ASR$DELETE_CHARSETS             SIZE =      2K ********
               LOW      HIGH      SIZE
            ------    ------    ------
DATA         22536     22555        20
PROCEDURE   133330    133402        53
******** CONTROL SECTIONS SORTED BY VALUE ********
            22536 DATA     ASR$D_CHARSET_RECS                 20

           133330 RODATA   ASR$D_CHARSET_RECS                 20
           133350 PROC     ASR$D_CHARSET_RECS                 25
           133376 RODATA   ASR$D_CHARSET_RECS                  5

******* RELOCATABLE ENTRY DEFINITIONS SORTED BY NAME *******
      133350    ASR$D_CHARSET_RECS
******* RELOCATABLE ENTRY DEFINITIONS SORTED BY VALUE *******
      133350    ASR$D_CHARSET_RECS
******** CP6  LINK  VERSION E03       MAP                      ********
******** RF   = SUPER                           ACN  = :E05TGNS********
******** UTS  = 07/30/97  14:54:50.28  WED                     ********
******** NODE = ASR$DELETE_FORMS                SIZE =      2K ********
               LOW      HIGH      SIZE
            ------    ------    ------
DATA         22536     22552        15
PROCEDURE   133330    133402        53
******** CONTROL SECTIONS SORTED BY VALUE ********
            22536 DATA     ASR$D_FORM_RECS                    15

           133330 RODATA   ASR$D_FORM_RECS                    20
           133350 PROC     ASR$D_FORM_RECS                    25
           133376 RODATA   ASR$D_FORM_RECS                     5

******* RELOCATABLE ENTRY DEFINITIONS SORTED BY NAME *******
      133350    ASR$D_FORM_RECS
******* RELOCATABLE ENTRY DEFINITIONS SORTED BY VALUE *******
      133350    ASR$D_FORM_RECS
******** CP6  LINK  VERSION E03       MAP                      ********
******** RF   = SUPER                           ACN  = :E05TGNS********
******** UTS  = 07/30/97  14:54:50.28  WED                     ********
******** NODE = ASR$DELETE_USERS                SIZE =      1K ********
               LOW      HIGH      SIZE
            ------    ------    ------
DATA                                 0
PROCEDURE   133330    133750       421
******** CONTROL SECTIONS SORTED BY VALUE ********
           133330 RODATA   ASR$D_USERS_RECS                   31
           133362 PROC     ASR$D_USERS_RECS                  355
           133740 RODATA   ASR$D_USERS_RECS                   11

******* RELOCATABLE ENTRY DEFINITIONS SORTED BY NAME *******
      133362    ASR$D_USERS_RECS
******* RELOCATABLE ENTRY DEFINITIONS SORTED BY VALUE *******
      133362    ASR$D_USERS_RECS
******** CP6  LINK  VERSION E03       MAP                      ********
******** RF   = SUPER                           ACN  = :E05TGNS********
******** UTS  = 07/30/97  14:54:50.28  WED                     ********
******** NODE = ASR$REMOVE_CHARSET              SIZE =      1K ********
               LOW      HIGH      SIZE
            ------    ------    ------
DATA                                 0
PROCEDURE   133330    133474       145
******** CONTROL SECTIONS SORTED BY VALUE ********
           133330 RODATA   ASR$R_CHARSET                       7
           133340 PROC     ASR$R_CHARSET                     130
           133470 RODATA   ASR$R_CHARSET                       5

******* RELOCATABLE ENTRY DEFINITIONS SORTED BY NAME *******
      133340    ASR$R_CHARSET
******* RELOCATABLE ENTRY DEFINITIONS SORTED BY VALUE *******
      133340    ASR$R_CHARSET
******** CP6  LINK  VERSION E03       MAP                      ********
******** RF   = SUPER                           ACN  = :E05TGNS********
******** UTS  = 07/30/97  14:54:50.28  WED                     ********
******** NODE = ASR$REMOVE_FORM                 SIZE =      1K ********
               LOW      HIGH      SIZE
            ------    ------    ------
DATA                                 0
PROCEDURE   133330    134071       542
******** CONTROL SECTIONS SORTED BY VALUE ********
           133330 RODATA   ASR$R_FORM                         31
           133362 PROC     ASR$R_FORM                        465
           134050 RODATA   ASR$R_FORM                         22

******* RELOCATABLE ENTRY DEFINITIONS SORTED BY NAME *******
      133362    ASR$R_FORM
******* RELOCATABLE ENTRY DEFINITIONS SORTED BY VALUE *******
      133362    ASR$R_FORM
******** CP6  LINK  VERSION E03       MAP                      ********
******** RF   = SUPER                           ACN  = :E05TGNS********
******** UTS  = 07/30/97  14:54:50.28  WED                     ********
******** NODE = ASR$REMOVE_USER                 SIZE =      1K ********
               LOW      HIGH      SIZE
            ------    ------    ------
DATA                                 0
PROCEDURE   133330    133640       311
******** CONTROL SECTIONS SORTED BY VALUE ********
           133330 RODATA   ASR$R_USER                          2
           133332 PROC     ASR$R_USER                        301
           133634 RODATA   ASR$R_USER                          5

******* RELOCATABLE ENTRY DEFINITIONS SORTED BY NAME *******
      133332    ASR$R_USER
******* RELOCATABLE ENTRY DEFINITIONS SORTED BY VALUE *******
      133332    ASR$R_USER
******** CP6  LINK  VERSION E03       MAP                      ********
******** RF   = SUPER                           ACN  = :E05TGNS********
******** UTS  = 07/30/97  14:54:50.28  WED                     ********
******** NODE = ASR$REMOVE_PROFILE              SIZE =      2K ********
               LOW      HIGH      SIZE
            ------    ------    ------
DATA         22536     22543         6
PROCEDURE   133330    133455       126
******** CONTROL SECTIONS SORTED BY VALUE ********
            22536 DATA     ASR$R_PROFILE                       6

           133330 RODATA   ASR$R_PROFILE                       4
           133334 PROC     ASR$R_PROFILE                     111
           133446 RODATA   ASR$R_PROFILE                      10

******* RELOCATABLE ENTRY DEFINITIONS SORTED BY NAME *******
      133334    ASR$R_PROFILE
******* RELOCATABLE ENTRY DEFINITIONS SORTED BY VALUE *******
      133334    ASR$R_PROFILE
******** CP6  LINK  VERSION E03       MAP                      ********
******** RF   = SUPER                           ACN  = :E05TGNS********
******** UTS  = 07/30/97  14:54:50.28  WED                     ********
******** NODE = ASR$REMOVE_PROJECT              SIZE =      1K ********
               LOW      HIGH      SIZE
            ------    ------    ------
DATA                                 0
PROCEDURE   133330    134467      1140
******** CONTROL SECTIONS SORTED BY VALUE ********
           133330 RODATA   ASR$R_PROJECT                       2
           133332 PROC     ASR$R_PROJECT                    1121
           134454 RODATA   ASR$R_PROJECT                      14

******* RELOCATABLE ENTRY DEFINITIONS SORTED BY NAME *******
      133332    ASR$R_PROJECT
******* RELOCATABLE ENTRY DEFINITIONS SORTED BY VALUE *******
      133332    ASR$R_PROJECT
******** CP6  LINK  VERSION E03       MAP                      ********
******** RF   = SUPER                           ACN  = :E05TGNS********
******** UTS  = 07/30/97  14:54:50.28  WED                     ********
******** NODE = ASR$REMOVE_WSN                  SIZE =      2K ********
               LOW      HIGH      SIZE
            ------    ------    ------
DATA         22536     22550        13
PROCEDURE   133330    133723       374
******** CONTROL SECTIONS SORTED BY VALUE ********
            22536 DATA     ASR$R_WSN                          13

           133330 RODATA   ASR$R_WSN                           4
           133334 PROC     ASR$R_WSN                         357
           133714 RODATA   ASR$R_WSN                          10

******* RELOCATABLE ENTRY DEFINITIONS SORTED BY NAME *******
      133334    ASR$R_WSN
******* RELOCATABLE ENTRY DEFINITIONS SORTED BY VALUE *******
      133334    ASR$R_WSN
******** CP6  LINK  VERSION E03       MAP                      ********
******** RF   = SUPER                           ACN  = :E05TGNS********
******** UTS  = 07/30/97  14:54:50.28  WED                     ********
******** NODE = ASR$R_HLP                       SIZE =      4K ********
               LOW      HIGH      SIZE
            ------    ------    ------
DATA         22536     22627        72
PROCEDURE   133330    140760      5431
******** CONTROL SECTIONS SORTED BY VALUE ********
            22536 DATA     ASR$R_CONSOLE                       3
            22542 DATA     ASR$R_DEVICE                        3
            22546 DATA     ASR$R_LINE_CONT                    10
            22556 DATA     ASR$R_LINK_VIRCIR                  10
            22566 DATA     ASR$R_STATION                      16
            22604 DATA     ASR$R_TERMINAL                     15
            22622 DATA     ASR$R_TPDEVICE                      6

           133330 RODATA   ASR$R_CONSOLE                       7
           133340 PROC     ASR$R_CONSOLE                     332
           133672 RODATA   ASR$R_CONSOLE                       6
           133700 RODATA   ASR$R_DEVICE                       14
           133714 PROC     ASR$R_DEVICE                      375
           134312 RODATA   ASR$R_DEVICE                       11
           134324 RODATA   ASR$R_LINE_CONT                    14
           134340 PROC     ASR$R_LINE_CONT                  1046
           135406 RODATA   ASR$R_LINE_CONT                    40
           135446 RODATA   ASR$R_LINK_VIRCIR                  11
           135460 PROC     ASR$R_LINK_VIRCIR                 705
           136366 RODATA   ASR$R_LINK_VIRCIR                  26
           136414 RODATA   ASR$R_STATION                      24
           136440 PROC     ASR$R_STATION                    1050
           137510 RODATA   ASR$R_STATION                      33
           137544 RODATA   ASR$R_TERMINAL                     12
           137556 PROC     ASR$R_TERMINAL                    624
           140402 RODATA   ASR$R_TERMINAL                     24
           140426 RODATA   ASR$R_TPDEVICE                     13
           140442 PROC     ASR$R_TPDEVICE                    310
           140752 RODATA   ASR$R_TPDEVICE                      7

******* RELOCATABLE ENTRY DEFINITIONS SORTED BY NAME *******
      133340    ASR$R_CONSOLE       133714    ASR$R_DEVICE
      134340    ASR$R_LINE_CONT     135460    ASR$R_LINK_VIRCIR
      136440    ASR$R_STATION       136444    ASR$R_STAT_TIGR
      137556    ASR$R_TERMINAL      140442    ASR$R_TPDEVICE
******* RELOCATABLE ENTRY DEFINITIONS SORTED BY VALUE *******
      133340    ASR$R_CONSOLE       133714    ASR$R_DEVICE
      134340    ASR$R_LINE_CONT     135460    ASR$R_LINK_VIRCIR
      136440    ASR$R_STATION       136444    ASR$R_STAT_TIGR
      137556    ASR$R_TERMINAL      140442    ASR$R_TPDEVICE
..STIing

File Name = SUPER
   File Type = Run unit
   Product = ACCESS MODES
   Version = E05
   Time Stamp at Birth
      Time = 14:54
      Date = JUL 30 '97
   Marketing Identifier = SFS6503
   ** STI record created
B_COPYRIGHT
B_CONSPOOL_D
B_POINTER
