VERSION E05

 03:19 07/30/97  FILE=MMA$NSA.:E05TSI                                                                    1    BMAP - B00
                                         1  *M* GMAP MM ROUTINES                                               *
                                         2  *T***********************************************************
                                         3  *T*                                                         *
                                         4  *T* Copyright (c) Bull HN Information Systems Inc., 1997    *
                                         5  *T*                                                         *
                                         6  *T***********************************************************
                                         7         ENTDEF  MMA$WHERE
                                         8         ENTDEF  MMA$LOCKBP
                                         9         ENTDEF  MMA$UNLOCKBP
                                        10         ENTDEF  MMA$GETPSR
                                        11         ENTDEF  MMA$POPSSF
                                        12         ENTREF  X66_AUTO_5
                                        13         ENTREF  X66_ARET
                                        14         ENTREF  HFC$LOCK
                                        15         ENTREF  HFC$UNLOCK
                                        16         SEGREF  NULLSID
                                        17         SEGREF  ISSID
                                        18         SEGREF  ISBSID
                                        19         SYMDEF  MM_CGQD$
                                        20         SYMDEF  MM_BYP$
                                        21         SYMREF  MM_CGQD
                                        22         SYMREF  MM_FPPH
                                        23         SYMREF  MM_LOCK
                                        24         SYMREF   B_MPT
                                        25         LODM    B_BMACROS_C
             000000000000               26         MAGIC
             000000000001
             000000000002
             000000000003
             000000000004
             000000000005
             000000000006
             000000000007
             000000000010
             000000000011
             000000000012
             000000000013
 03:19 07/30/97  FILE=MMA$NSA.:E05TSI                                                                    2    BMAP - B00
             000000000006
 0 000000                               27         USE     MMA$NSA,1
                                        28  *
                                        29  *   Pointer to MM_CGQD structure, bypass cache
                                        30  *
   000000  X 000000 X 000000            31  MM_CGQD$  ZERO MM_CGQD,ISBSID
                                        32  *
                                        33  *   Pointer to MM_BYP structure, bypass cache
                                        34  *
   000001  X 000000 X 000000            35  MM_BYP$   ZERO MM_FPPH,ISBSID
                                        36  *
                                        37  *
                                        38  *         MMA$WHERE(PTR$,BASE,OFFSET,WSR,DESC)
          (0)000000000002               39  MMA$WHERE EQU  *                  TEAR APART A DESCRIPTOR & ITS PTR
   000002  X 000000 7000 00             40         TSX0    X66_AUTO_5
   000003    000012 000005              41         ZERO    10,5
   000004    2 00003 4735 00            42         LDP3    3,,2               GET PTR TO 'PTR$'
   000005    3 00000 4745 00            43         LDP4    0,,3               GET DR POINTED TO BY PTR$
   000006    2 00010 0545 00            44         STD4    8,,2               SAVE IT AS DATA
   000007    2 00010 2371 00            45         LDAQ    8,,2
   000010    2 00007 7201 00            46         LXL0    7,,2
   000011  X 000000 1000 03             47         CMPX0  NULLSID,DU
   000012    000003 6000 04             48         TZE     3,IC
   000013    2 00007 4745 00            49         LDP4    7,,2
   000014    4 00000 7571 00            50         STAQ    0,,4
   000015    000160 3750 07             51         ANA     =O160,DL           MASK OFF ALL BUT WSR BITS
   000016    000004 7710 00             52         ARL     4                  RIGHT JUSTIFY THEM
   000017    2 00004 4745 00            53         LDP4    4,,2               GET PTRS TO PARAMETERS
   000020    2 00005 4755 00            54         LDP5    5,,2
   000021    2 00006 4765 00            55         LDP6    6,,2
   000022    4 00000 7561 00            56         STQ     0,,4               PASS BACK THE BASE
   000023    6 00000 7551 00            57         STA     0,,6               AND THE WSR FROM THE DESCRIPTOR
   000024    3 00000 2351 00            58         LDA     0,,3               GET 'PTR$' INTO THE A REGISTER
   000025    000020 7710 00             59         ARL     16                 KEEP ONLY BYTE OFFSET PART
   000026    5 00000 7551 00            60         STA     0,,5               AND PASS IT BACK
   000027  X 000000 7100 00             61          TRA     X66_ARET
                                        62  *
 03:19 07/30/97  FILE=MMA$NSA.:E05TSI                                                                    3    BMAP - B00
                                        63  *
                                        64  *
                                        65  *
   000030                               66  MMA$GETPSR NULL
   000030    0 00000 4705 00            67            LDP0     0,,0          GET PARAMETER
   000031    0 00000 7515 00            68            STPS     0,,0            GET PSR
   000032    000001 7100 11             69            TRA      1,1             RETURN
                                        70  *
                                        71  *
                                        72  *
                                        73  *
   000033                               74  MMA$LOCKBP NULL
   000033 (0)000046 4714 00             75           LDP1      LOCK$
   000034 (0)000050 6304 00             76           EPPR0     GATE$
   000035    1 00000 7101 00            77           TRA       0,,1
                                        78  *
                                        79  *
   000036                               80  MMA$UNLOCKBP NULL
   000036 (0)000047 4714 00             81           LDP1      UNLOCK$
   000037 (0)000050 6304 00             82           EPPR0     GATE$
   000040    1 00000 7101 00            83           TRA       0,,1
                                        84  *
   000041                               85  MMA$POPSSF NULL
   000041  X 000000 4744 00             86         LDP4    B_MPT+MPT.SS
   000042    4 00022 4525 00            87         STP2    =O22,,4
   000043    4 00004 7411 00            88         STX1    =O4,,4
   000044    000000 7134 00             89         EXIT
   000045    0 000 000 01 0000
   000046  X 000000 0 00 X 0000         90  LOCK$    PTR       ISBSID,HFC$LOCK
   000047  X 000000 0 00 X 0000         91  UNLOCK$  PTR       ISSID,HFC$UNLOCK
   000050  X 000000 0 00 X 0000         92  GATE$    PTR       ISSID,MM_LOCK
                                        93         END

  CONTROL SECTION TABLE

   0 CODE   EVEN  000051 MMA$NSA
   1 RODATA EVEN  000000 LITERALS

 03:19 07/30/97  FILE=MMA$NSA.:E05TSI         SYMBOL TABLE                                               4    BMAP - B00
 03301003 000000000000 B_MPT          *24        86
 01101000 000000000050 GATE$           76        82       *92
 03201002 000000000000 HFC$LOCK       *14        90
 03201003 000000000000 HFC$UNLOCK     *15        91
 03601002 000000000000 ISBSID         *18        31        35        90
 03601001 000000000000 ISSID          *17        91        92
 01101000 000000000046 LOCK$           75       *90
 40000000 000000000006 MAGIC.ND       *26
 12101000 000000000030 MMA$GETPSR      10       *66
 12101000 000000000033 MMA$LOCKBP       8       *74
 12101000 000000000041 MMA$POPSSF      11       *85
 12101000 000000000036 MMA$UNLOCKBP     9       *80
 52101000 000000000002 MMA$WHERE        7       *39
 06101000 000000000001 MM_BYP$         20       *35
 03301000 000000000000 MM_CGQD        *21        31
 06101000 000000000000 MM_CGQD$        19       *31
 03301001 000000000000 MM_FPPH        *22        35
 03301002 000000000000 MM_LOCK        *23        92
 41000000 000000000002 MPT.AS         *26
 41000000 000000000010 MPT.ASDESC     *26
 41000000 000000000005 MPT.ECCB       *26
 40000000 000000000013 MPT.ECCBDESC   *26
 41000000 000000000001 MPT.LS         *26
 41000000 000000000007 MPT.LSDESC     *26
 41000000 000000000003 MPT.PS         *26
 41000000 000000000011 MPT.PSDESC     *26
 41000000 000000000000 MPT.SS         *26        86
 41000000 000000000006 MPT.SSDESC     *26
 41000000 000000000004 MPT.TCB        *26
 41000000 000000000012 MPT.TCBDESC    *26
 03601000 000000000000 NULLSID        *16        47
 01101000 000000000047 UNLOCK$         81       *91
 03201001 000000000000 X66_ARET       *13        61
 03201000 000000000000 X66_AUTO_5     *12        40

      34 SYMBOLS

 03:19 07/30/97  FILE=MMA$NSA.:E05TSI         MACRO TABLE                                                5    BMAP - B00
 MAGIC           26

      16 MACROS

    SYMBOL SPACE USED   436 WORDS
     MACRO SPACE USED  3324 WORDS
   INPUT RECORDS READ   641
 STATEMENTS PROCESSED   117
         ELAPSED TIME  0:04.56
             CPU TIME     1.35 SEC.
        ASSEMBLY RATE  5200 STATEMENTS/CPU MIN.

      NO ERRORS

