VERSION E05

PL6.E3A0      #001=MMV$OPEN File=MMV$VIRTUAL.:E05TSI                             WED 07/30/97 03:25 Page:1
        1        1        /*M* MMV$VIRTUAL - MM routines to manage large virtual space */
        2        2        /*T***********************************************************/
        3        3        /*T*                                                         */
        4        4        /*T* Copyright (c) Bull HN Information Systems Inc., 1997    */
        5        5        /*T*                                                         */
        6        6        /*T***********************************************************/
        7        7        /*X* DMR,PLM=5,IND=5,CTI=5,SDI=5,MCL=10,CSI=0,ECI=0 */
        8        8        MMV$OPEN: PROC ALTRET;
        9        9
       10       10        /*F* NAME: MMV$OPEN
       11       11             PURPOSE: To ready a virtual segment for use.
       12       12             DESCRIPTION: MMV$OPEN is called by file management when the
       13       13                          access type specified VS1, VS2, or VS3. The main
       14       14                          thing that has to be done in this routine is to
       15       15                          initialize the page table for the given WSQ and
       16       16                          set up the WSPTD. No pages are put into the map
       17       17                          until a fault occurs.
       18       18          */
       19       19
       20       20        /* Includes */
       21       21        %INCLUDE B$JIT;
       22      624        %INCLUDE B$MAP;
       23      723        %INCLUDE B_SEGIDS_C;
       24     1262        %INCLUDE CP_6;
       25     6821        %INCLUDE CP_6_SUBS;
       26     7361        %INCLUDE F$CP6V_C;
       27     7587        %INCLUDE F$DCB;
       28     7636        %INCLUDE MM_DATA_R;
       29     8156        %INCLUDE HF_DATA_R;
       30     8199        %INCLUDE M_ERRORS_C;
       31     8263        %INCLUDE M_ERRSET_C;
       32     8287        %INCLUDE S_WSPTD_R;
       33     8303        %INCLUDE UD_SEV_C;
       34     8317        %INCLUDE HF_LOCK_C;
       35     8331
       36     8332        /* Symrefs */
       37     8333    1   DCL B$JIT$ PTR SYMREF READONLY;
PL6.E3A0      #001=MMV$OPEN File=MMV$VIRTUAL.:E05TSI                             WED 07/30/97 03:25 Page:2
       38     8334    1   DCL B$PPUT$ PTR SYMREF READONLY;
       39     8335    1   DCL B$PS$(0:0) PTR SYMREF;
       40     8336    1   DCL B$ROSEG$ PTR SYMREF READONLY;
       41     8337    1   DCL B$USERLS$ PTR SYMREF;
       42     8338    1   DCL B$UPT$ PTR SYMREF;
       43     8339    1   DCL B$VS1$ PTR SYMREF READONLY;
       44     8340    1   DCL B$VS2$ PTR SYMREF READONLY;
       45     8341    1   DCL B$VS3$ PTR SYMREF READONLY;
       46     8342    1   DCL B$IPHYMAP$ PTR SYMREF READONLY;
       47     8343    1   DCL B$WSQ0PT$ PTR SYMREF READONLY;
       48     8344
       49     8345        /* Macro invocations */
       50     8346        %FPT$OPEN_V;
       51     8361        %MM$VIRTUAL_STATS;
       52     8365        %MODERR(MODULE='26'O);                  /* Sets the module of errcode to v    */
       53     8373        %VLP_ERRCODE (FPTN=ERR_VSINUSE,
       54     8374                       FCG=MM,
       55     8375                       MID=V,
       56     8376                       MON='1'B,
       57     8377                       ERR#=%E$VSINUSE,
       58     8378                       SEV=SEV_ERROR#,
       59     8379                       STCLASS=CONSTANT);
       60     8424        %VLP_ERRCODE (FPTN=ERR_VSTOBIG,
       61     8425                       FCG=MM,
       62     8426                       MID=V,
       63     8427                       MON='1'B,
       64     8428                       ERR#=%E$VSTOBIG,
       65     8429                       SEV=SEV_ERROR#,
       66     8430                       STCLASS=CONSTANT);
       67     8475        %VLP_ERRCODE (FPTN=ILGLSEG,ERR#=%E$ILGLSEG,SEV=SEV_ERROR#,FCG=MM,MID=V,MON='1'B,
              8475            STCLASS=CONSTANT);
       68     8520        %VLP_ERRCODE (FPTN=BRKCTY,ERR#=%E$BRKCTY,SEV=SEV_ERROR#,FCG=MM,MID=V,MON='1'B,
              8520            STCLASS=CONSTANT);
       69     8565        %VLP_ERRCODE (FPTN=NOVLPVIRT,ERR#=%E$NOVLPVIRT,SEV=SEV_ERROR#,FCG=MM,MID=V,MON='1'B,
              8565            STCLASS=CONSTANT);
       70     8610        %VLP$VIRTUAL_V (FPTN=VLP$VIRTUAL);
       71     8615
PL6.E3A0      #001=MMV$OPEN File=MMV$VIRTUAL.:E05TSI                             WED 07/30/97 03:25 Page:3
       72     8616        /* Entry references */
       73     8617    1   DCL MME$WGVP ENTRY(4) ALTRET;
       74     8618    1   DCL MME$GVPNOPP ENTRY(4) ALTRET;
       75     8619    1   DCL MME$WFVP ENTRY(4) ALTRET;
       76     8620    1   DCL MMB$GPP ENTRY(2) ALTRET;
       77     8621    1   DCL MMB$GNPP ENTRY(2) ALTRET;
       78     8622    1   DCL MMB$FPPONTAIL ENTRY(1) ALTRET;
       79     8623    1   DCL MME$RVNP ENTRY(4) ALTRET;
       80     8624
       81     8625        /* Subs */
       82     8626        %SUB MM$VCB = VCB$->MM$VCB;
       83     8627
       84     8628        /* Auto */
       85     8629    1   DCL EWSQ SBIN;
       86     8630    1   DCL P$ PTR;
       87     8631    1   DCL ERR UBIN;
       88     8632    1   DCL I SBIN;
       89     8633    1   DCL VPPGTBL UBIN;                       /* Page table virtual page            */
       90     8634    1   DCL VCB$ PTR;
       91     8635    1   DCL SEGID BIT(12);
       92     8636    1   DCL PPNO UBIN;
       93     8637    1   DCL TEMP SBIN;
       94     8638    1   DCL   SAVE_PPNO UBIN WORD;
       95     8639    1   DCL TERR UBIN;
       96     8640
       97     8641        /* Begin procedure */
       98     8642
       99     8643        /* Check out passed parameters */
      100     8644    1        VCB$ = B$JIT.DCB$ -> F$DCB.SETSTA$;     /* Setsta contians
      101     8645                                                          address of ROSEG area */
      102     8646    1        B$JIT.DCBNO = B$JIT.DCB$ -> F$DCB.DCB#;
      103     8647
      104     8648    1        IF VCB$ = ADDR(NIL)                /* No VLP_VIRTUAL specified */
      105     8649    2        THEN DO;
      106     8650    2             B$JIT.ERR = NOVLPVIRT;
      107     8651                  /*E* ERROR: -E$NOVLPVIRT-SEV_ERROR#
      108     8652                       MESSAGE: VLP_VIRTUAL must be specified.
PL6.E3A0      #001=MMV$OPEN File=MMV$VIRTUAL.:E05TSI                             WED 07/30/97 03:25 Page:4
      109     8653                       MESSAGE1: The access method specified VS1 or VS2 or VS3
      110     8654                                 and VIRTUAL was not specified on the open.
      111     8655              */
      112     8656    2             ALTRETURN;
      113     8657    2           END;
      114     8658
      115     8659    1        IF NOT B$JIT.JUNK & %JJ_LNKRETIP#
      116     8660    2        THEN DO;
      117     8661    2             B$JIT.DCB$ -> F$DCB.LASTSTA$->MM$VIRTUAL_STATS = '0'B;
      118     8662    2             MM$VCB.MAXVP# = (MM$VCB.MAXVP# -1) / 1024;
      119     8663    2           END;
      120     8664                 /* Check to see if maxvp is resonable */
      121     8665    1        IF MM$VCB.MAXVP# >= 1024 * 4096    /* Greater than maximum               */
      122     8666    2        THEN DO;
      123     8667    2             B$JIT.ERR = ERR_VSTOBIG;
      124     8668                  /*E* ERROR: -E$VSTOBIG-SEV_ERROR#
      125     8669                       MESSAGE: The size is greater than the maximum allowable.
      126     8670                       MESSAGE1: The size of the virtual area is greater than
      127     8671                                 the maximum allowable size.
      128     8672                   */
      129     8673    2             ALTRETURN;
      130     8674    2           END;
      131     8675
      132     8676    1        IF MM$VCB.PPMAX < 4                /* Illegal need at least four */
      133     8677    2        THEN DO;
      134     8678    2             MM$VCB.PPMAX = 4;
      135     8679    2           END;
      136     8680
      137     8681    1        MM$VCB.PPMIN = MINIMUM( MM$VCB.PPMAX,
      138     8682    1             MAXIMUM( MM$VCB.PPMIN , 4));
      139     8683
      140     8684    1        MM$VCB.HEAD = -1;                  /* Mark head                          */
      141     8685    1        MM$VCB.TAIL = -1;                  /* Mark tail                          */
      142     8686    1        MM$VCB.PPC = 0;
      143     8687    1        MM$VCB.WRITE = %FALSE;
      144     8688    1        MM$VCB.CREATE = %FALSE;
      145     8689    1        MM$VCB.T.FRAGMENTED = %FALSE;
PL6.E3A0      #001=MMV$OPEN File=MMV$VIRTUAL.:E05TSI                             WED 07/30/97 03:25 Page:5
      146     8690    1        MM$VCB.T.SECTION = %FALSE;
      147     8691    1        MM$VCB.UPGT#=0;
      148     8692    1        MM$VCB.PTR$ = ADDR(NIL);
      149     8693    1        MM$VCB.MAXVP_WRITTEN = -1;
      150     8694    1        MM$VCB.NPGTPGS = MM$VCB.MAXVP# / 1024 + 1;
      151     8695        /*  Decide what kind of mapping it's going to be used */
      152     8696    2        IF HW_SECT_PT THEN DO;             /*   We can use section page table  */
      153     8697    3             IF MM$VCB.NPGTPGS>%MM_MAXSECTPT THEN DO;
      154     8698    3                  MM$VCB.T.SECTION=%TRUE;  /* Use section page table */
      155     8699    3                  MM$VCB.NPGTSECT=(MM$VCB.NPGTPGS-1)/1024+1; /* Nr
      156     8700        of pages used for the section (max 4) */
      157     8701    3                  MM$VCB.NPGTPGS=MINIMUM(MM$VCB.NPGTPGS,%MM_MAXPTENTS - MM$VCB.NPGTSECT
              8701                           ); /*  For a
      158     8702        section PT we use at most 15 noncontiguous pages for pg tables */
      159     8703    3                  GOTO PT_SETUP;
      160     8704    3                END;
      161     8705    2           END;
      162     8706
      163     8707    1        IF MM$VCB.NPGTPGS > 16 OR (MM$VCB.PPMAX < 256 AND MM$VCB.NPGTPGS > 1)
      164     8708    2        THEN DO;
      165     8709    3             IF HW_FRAG_PT THEN DO;
      166     8710    3   GOFRAG:
      167     8711    3                  MM$VCB.T.FRAGMENTED = %TRUE;
      168     8712    3                  MM$VCB.NPGTPGS = 1;
      169     8713    3                END;
      170     8714    3             ELSE DO;
      171     8715    4                  IF MM$VCB.NPGTPGS > 16 THEN DO;
      172     8716    4                       B$JIT.ERR = ERR_VSTOBIG;
      173     8717    4                       ALTRETURN;
      174     8718    4                     END;
      175     8719    3                END;
      176     8720    2           END;
      177     8721
      178     8722        /* Set the write indication if the user can update this file */
      179     8723    1   PT_SETUP:
      180     8724    1        IF B$JIT.DCB$ -> F$DCB.FFLG.UPD
      181     8725    1        THEN
PL6.E3A0      #001=MMV$OPEN File=MMV$VIRTUAL.:E05TSI                             WED 07/30/97 03:25 Page:6
      182     8726    1             MM$VCB.WRITE = %TRUE;
      183     8727    1        IF B$JIT.DCB$->F$DCB.FUN = %CREATE# AND NOT B$JIT.JUNK & %JJ_LNKRETIP#
              8727                 /* File is open create*/
      184     8728    1        THEN
      185     8729    1             MM$VCB.CREATE = %TRUE;
      186     8730
      187     8731
      188     8732    2        DO CASE (MM$VCB.SEGNUM);
      189     8733
      190     8734    2        CASE (%VS1#);
      191     8735    2           EWSQ = %VS1WSQ;
      192     8736    2           VPPGTBL = %VS1PGTBL;
      193     8737    2           SEGID = %VS1SID;
      194     8738    2           P$ = B$VS1$;
      195     8739
      196     8740    2        CASE (%VS2#);
      197     8741    2           EWSQ = %VS2WSQ;
      198     8742    2           VPPGTBL = %VS2PGTBL;
      199     8743    2           SEGID = %VS2SID;
      200     8744    2           P$ = B$VS2$;
      201     8745
      202     8746    2        CASE (%VS3#);
      203     8747    2           EWSQ = %VS3WSQ;
      204     8748    2           VPPGTBL = %VS3PGTBL;
      205     8749    2           SEGID = %VS3SID;
      206     8750    2           P$ = B$VS3$;
      207     8751
      208     8752    2        CASE (ELSE);
      209     8753    2           B$JIT.ERR = ILGLSEG;
      210     8754                  /*E* ERROR: -E$ILGLSEG-SEV_ERROR#
      211     8755                       MESSAGE: Illegal segment number.
      212     8756                       MESSAGE1: The segment number for the virtual segment
      213     8757                                 was not 1, 2, or 3.
      214     8758                             */
      215     8759    2           ALTRETURN;
      216     8760    2        END;
      217     8761
PL6.E3A0      #001=MMV$OPEN File=MMV$VIRTUAL.:E05TSI                             WED 07/30/97 03:25 Page:7
      218     8762    1        MM$VCB.WSQ = EWSQ;
      219     8763    1        I = EWSQ - %VS1WSQ;                /* Index into jit table for DCB#      */
      220     8764    1        IF B$JIT.VIRTUAL.DCB#(I) ~= 0      /* Already used                       */
      221     8765    2        THEN DO;
      222     8766    2             B$JIT.ERR = ERR_VSINUSE;
      223     8767                  /*E* ERROR: -E$VSINUSE-SEV_ERROR#
      224     8768                       MESSAGE: The specified Virtual segment is already in use
      225     8769                       MESSAGE1: The access method specified a virtual segment
      226     8770                                 and that segment is in use by another DCB.
      227     8771                        */
      228     8772    2             ALTRETURN;
      229     8773    2           END;
      230     8774
      231     8775        /* Get a page table for this wsq */
      232     8776    2        IF MM$VCB.T.SECTION THEN DO;  /* Get the Section and the page tables */
      233     8777    2             PPNO = MM$VCB.NPGTSECT;
      234     8778    2             CALL MMB$GNPP(PPNO,%USERWSQ) ALTRET(NO_PT);
      235     8779    3             DO TEMP = 0 TO MM$VCB.NPGTSECT - 1;
      236     8780    3                  CALL MME$GVPNOPP (%USERWSQ,VPPGTBL+TEMP,PPNO+TEMP,ERR) ALTRET (REL_IT
              8780                           );
      237     8781    3                END;
      238     8782    3             DO TEMP=0 TO MM$VCB.NPGTPGS-1;
      239     8783    3                  CALL MMB$GPP(PPNO,%USERWSQ) ALTRET(REL_EM);
      240     8784    3                  CALL MME$GVPNOPP(%USERWSQ,VPPGTBL+MM$VCB.NPGTSECT+TEMP,PPNO,ERR)
              8784                           ALTRET (REL_EM);
      241     8785    3                END;
      242     8786    2           END;
      243     8787    2        ELSE DO;
      244     8788    2             PPNO = MM$VCB.NPGTPGS;
      245     8789    2             CALL MMB$GNPP(PPNO,%USERWSQ) ALTRET(NO_PT);
      246     8790    3             DO TEMP = 0 TO MM$VCB.NPGTPGS - 1;
      247     8791    3                  CALL MME$GVPNOPP (%USERWSQ,VPPGTBL+TEMP,PPNO+TEMP,ERR) ALTRET (
              8791                           REL_DENSE);
      248     8792    3                END;
      249     8793    2           END;
      250     8794        /* Set DCB# in jit for this virtual array */
      251     8795    1        B$JIT.VIRTUAL.DCB# (I) = B$JIT.DCBNO;
PL6.E3A0      #001=MMV$OPEN File=MMV$VIRTUAL.:E05TSI                             WED 07/30/97 03:25 Page:8
      252     8796
      253     8797        /* Set pointer to segment in vlp */
      254     8798    1        VCB$->VLP$VIRTUAL.PTR$ = P$; /* P$ contains pointer to approiate segment */
      255     8799
      256     8800             %FINDMAP (P$ = P$,WSQ = EWSQ);
      257     8803
      258     8804        /* Set segment not null */
      259     8805    1        IF NOT HW_IMX THEN
      260     8806                  %SETNOTNULL (LS$ = B$USERLS$, SEGID = SEGID);
      261     8809    2        ELSE DO;
      262     8810    2             TEMP = BITBIN(SEGID & '1777'O);
      263     8811    2             B$USERLS$->MM$SDESC.FLGS(TEMP) = '7'O;
      264     8812    2           END;
      265     8813
      266     8814    2        IF MM$VCB.T.SECTION THEN DO;
      267     8815    3             DO I=0 TO MM$VCB.NPGTSECT*1024-1;
      268     8816    3                  P$->B$SECT(I) = '0'B;
      269     8817    3                  P$->B$SECT.PRES(I)= %TRUE;
      270     8818    3                  P$->B$SECT.PTBOUND(I)= 15   ;
      271     8819    3                  P$->B$SECT.PTBASE(I) = MM_SCTDFT;
      272     8820    3                END;
      273     8821    3             DO I=0 TO MM$VCB.NPGTPGS-1;
      274     8822    4                  DO TEMP =0 TO 1023;
      275     8823    4                       PINCRW(P$,(I+MM$VCB.NPGTSECT) *1024 )->B$MAP(TEMP)=MM_FPMC;
      276     8824    4                     END;
      277     8825    3                END;
      278     8826    2           END;
      279     8827    2        ELSE DO;
      280     8828    2             TEMP = MM$VCB.NPGTPGS * 1024 - 1;
      281     8829    3             DO I = 0 TO TEMP;             /* Clear out page table               */
      282     8830    3                  P$ -> B$MAP (I) = '0'B;
      283     8831    3                  IF NOT MM$VCB.T.FRAGMENTED OR I >= 128
      284     8832    3                  THEN
      285     8833    3                       P$ -> B$MAP(I) = MM_FPMC;
      286     8834    3                END;
      287     8835    2           END;
      288     8836
PL6.E3A0      #001=MMV$OPEN File=MMV$VIRTUAL.:E05TSI                             WED 07/30/97 03:25 Page:9
      289     8837        /* Must set up wsptd for the virtual area */
      290     8838    1        TEMP = B$UPT$ -> B$MAP.RPN (VPPGTBL);
      291     8839    1        TEMP = TEMP * (1024 / HW_PTB_UNITS);
      292     8840    1        S_WSPTD.BLKNO(EWSQ)=TEMP;
      293     8841    1        IF MM$VCB.T.SECTION THEN S_WSPTD.NBLKS(EWSQ) = MM$VCB.NPGTSECT * 16;
      294     8842    1        ELSE S_WSPTD.NBLKS(EWSQ) = MM$VCB.NPGTPGS * 16;
      295     8843    1        S_WSPTD.P(EWSQ) = %TRUE;           /* Page table present                 */
      296     8844    1        S_WSPTD.T(EWSQ) = MM$VCB.T;
      297     8845    1        IF NOT HW_IMX THEN
      298     8846    1             S_WSPTD.Q(EWSQ) = BINBIT(MOD(EWSQ,4),2);
      299     8847    1        ELSE
      300     8848    1             S_WSPTD.Q(EWSQ) = '0'O;
      301     8849
      302     8850        /* Save it in MM$VCB for use at time of schedule */
      303     8851    1        MM$VCB.WSPTD = S_WSPTD(EWSQ);
      304     8852    1        RETURN;                            /* All done                           */
      305     8853
      306     8854
      307     8855    1   NO_PT:
      308     8856    2        IF HW_FRAG_PT THEN DO;
      309     8857    2             MM$VCB.T.SECTION = %FALSE;
      310     8858    2             GOTO GOFRAG;
      311     8859    2           END;
      312     8860    1        B$JIT.ERR = BRKCTY;
      313     8861    1        ALTRETURN;
      314     8862
      315     8863    1   REL_EM: /* Release both PTS(here), and SCTs(at REL_IT); */
      316     8864    2        DO I = 0 TO TEMP-1;
      317     8865    2             CALL MME$WFVP (%USERWSQ, VPPGTBL+MM$VCB.NPGTPGS+I,, TERR);
      318     8866    2           END;
      319     8867    1        TEMP = MM$VCB.NPGTSECT;
      320     8868    1   REL_IT: /* Release the SCT or the PT.  TEMP holds how far we got */
      321     8869    2        DO I = 0 TO TEMP-1;
      322     8870    2             CALL MME$RVNP (%USERWSQ, VPPGTBL+I, PPNO, TERR);
      323     8871    2             CALL MMB$FPPONTAIL (PPNO);
      324     8872    2           END;
      325     8873    2        DO I = TEMP TO MM$VCB.NPGTSECT - 1;
PL6.E3A0      #001=MMV$OPEN File=MMV$VIRTUAL.:E05TSI                             WED 07/30/97 03:25 Page:10
      326     8874    2             CALL MMB$FPPONTAIL(PPNO+I);
      327     8875    2           END;
      328     8876             %ERRSETN(CODE=ERR);
      329     8879    1        ALTRETURN;
      330     8880
      331     8881    1   REL_DENSE:
      332     8882    1        SAVE_PPNO = PPNO;
      333     8883    2        DO I = 0 TO TEMP -1;
      334     8884    2             CALL MME$RVNP(%USERWSQ,VPPGTBL+I,PPNO,TEMP);
      335     8885    2             CALL MMB$FPPONTAIL(PPNO);
      336     8886    2           END;
      337     8887    2        DO I = TEMP TO MM$VCB.NPGTPGS - 1;
      338     8888    2             CALL MMB$FPPONTAIL(SAVE_PPNO+I);
      339     8889    2           END;
      340     8890             %ERRSETN(CODE=ERR);
      341     8893    1        ALTRETURN;
      342     8894    1   END MMV$OPEN;
      343     8895        %EOD;

PL6.E3A0      #001=MMV$OPEN File=MMV$VIRTUAL.:E05TSI                             WED 07/30/97 03:25 Page:11
--  Include file information  --

   HF_LOCK_C.:E05TOU  cannot be made into a system file and is referenced.
   UD_SEV_C.:E05TOU  is referenced.
   S_WSPTD_R.:E05TOU  cannot be made into a system file and is referenced.
   M_ERRSET_C.:E05TOU  is referenced.
   M_ERRORS_C.:E05TOU  is referenced.
   HF_DATA_R.:E05TOU  cannot be made into a system file and is referenced.
   MM_MACRO_M.:E05TOU  is referenced.
   B_STRINGS_C.:E05TOU  is referenced.
   MM$SYSGEN.:E05TOU  is referenced.
   M_INFO_C.:E05TOU  is referenced.
   MM_DATA_R.:E05TOU  cannot be made into a system file and is referenced.
   F$DCB.:E05TOU  cannot be made into a system file and is referenced.
   F$CP6V_C.:E05TOU  is referenced.
   CP_6_SUBS.:E05TOU  is referenced.
   CP_6_C.:E05TOU  is referenced.
   CP_6.:E05TOU  cannot be made into a system file and is referenced.
   B_SEGIDS_C.:E05TOU  is referenced.
   B$MAP.:E05TOU  cannot be made into a system file and is referenced.
   B$JIT_C.:E05TOU  is referenced.
   B$JIT.:E05TOU  cannot be made into a system file and is referenced.
      No diagnostics issued in procedure MMV$OPEN.

   Procedure MMV$OPEN requires 596 words for executable code.
   Procedure MMV$OPEN requires 22 words of local(AUTO) storage.

PL6.E3A0      #001=MMV$OPEN File=MMV$VIRTUAL.:E05TSI                             WED 07/30/97 03:25 Page:12

 Object Unit name= MMV$OPEN                                   File name= MMV$VIRTUAL.:E05TOU
 UTS= JUL 30 '97 03:25:09.76 WED                              Compiler= PL-6/E31         Sev=      00
 SharedLib= :SHARED_SYSTEM                                    Alt SharedLib=


    ****  Control sections  ****

 Sect   Type Bound  Init  Size OctSiz  Section name(segment info)
    0   DCB   even  none     0      0  M$UC
    1  RoData even  UTS      6      6  MMV$OPEN
    2   Proc  even  none   596   1124  MMV$OPEN
    3  RoData even  none     6      6  MMV$OPEN

    ****  Entry defs  ****

                              Check   Calling
                             calling  sequence
  Sect OctLoc Primary Altret sequence   type   Parms  Name
     2      0   yes    yes     yes      Std        0  MMV$OPEN

  ****  Entry refs  ****

         Check        Calling
        calling       sequence
Altret sequence SRef   type   Args  Name
 yes     yes           Std       2 MMB$GNPP
 yes     yes           Std       4 MME$GVPNOPP
 yes     yes           Std       2 MMB$GPP
 yes     yes           Std       4 MME$WFVP
 yes     yes           Std       4 MME$RVNP
 yes     yes           Std       1 MMB$FPPONTAIL
                       nStd      0 X66_AUTO_0
                       Std       0 B_CONSPOOL_D
                       nStd      0 X66_AALT
                       nStd      0 X66_ARET
PL6.E3A0      #001=MMV$OPEN File=MMV$VIRTUAL.:E05TSI                             WED 07/30/97 03:25 Page:13

  ****  Data refs  ****

  Flags:  r = read only, s = secondary
Flgs Name                             Flgs Name                             Flgs Name
     M$UC                             r    MM_BYP$                               MM_FPMC
     MM_SCTDFT                        r    MM_PTPTRS$                            HW_PTB_UNITS
     HW_SECT_PT                            HW_FRAG_PT                            HW_IMX
     S_WSPTD                          r    B$JIT$                                B$USERLS$
     B$UPT$                           r    B$VS1$                           r    B$VS2$
r    B$VS3$                                B_VECTNIL

  ****  Segment refs  ****

  Flags:  r = read only, s = secondary
Flgs Name                             Flgs Name                             Flgs Name
     ISSID
PL6.E3A0      #001=MMV$OPEN File=MMV$VIRTUAL.:E05TSI                             WED 07/30/97 03:25 Page:14


        1        1        /*M* MMV$VIRTUAL - MM routines to manage large virtual space */
        2        2        /*T***********************************************************/
        3        3        /*T*                                                         */
        4        4        /*T* Copyright (c) Bull HN Information Systems Inc., 1997    */
        5        5        /*T*                                                         */
        6        6        /*T***********************************************************/
        7        7        /*X* DMR,PLM=5,IND=5,CTI=5,SDI=5,MCL=10,CSI=0,ECI=0 */
        8        8        MMV$OPEN: PROC ALTRET;

      8  2 000000   000000 700200 xent  MMV$OPEN     TSX0  ! X66_AUTO_0
         2 000001   000026 000000                    ZERO    22,0

        9        9
       10       10        /*F* NAME: MMV$OPEN
       11       11             PURPOSE: To ready a virtual segment for use.
       12       12             DESCRIPTION: MMV$OPEN is called by file management when the
       13       13                          access type specified VS1, VS2, or VS3. The main
       14       14                          thing that has to be done in this routine is to
       15       15                          initialize the page table for the given WSQ and
       16       16                          set up the WSPTD. No pages are put into the map
       17       17                          until a fault occurs.
       18       18          */
       19       19
       20       20        /* Includes */
       21       21        %INCLUDE B$JIT;
       22      624        %INCLUDE B$MAP;
       23      723        %INCLUDE B_SEGIDS_C;
       24     1262        %INCLUDE CP_6;
       25     6821        %INCLUDE CP_6_SUBS;
       26     7361        %INCLUDE F$CP6V_C;
       27     7587        %INCLUDE F$DCB;
       28     7636        %INCLUDE MM_DATA_R;
       29     8156        %INCLUDE HF_DATA_R;
       30     8199        %INCLUDE M_ERRORS_C;
       31     8263        %INCLUDE M_ERRSET_C;
       32     8287        %INCLUDE S_WSPTD_R;
PL6.E3A0      #001=MMV$OPEN File=MMV$VIRTUAL.:E05TSI                             WED 07/30/97 03:25 Page:15
       33     8303        %INCLUDE UD_SEV_C;
       34     8317        %INCLUDE HF_LOCK_C;
       35     8331
       36     8332        /* Symrefs */
       37     8333    1   DCL B$JIT$ PTR SYMREF READONLY;
       38     8334    1   DCL B$PPUT$ PTR SYMREF READONLY;
       39     8335    1   DCL B$PS$(0:0) PTR SYMREF;
       40     8336    1   DCL B$ROSEG$ PTR SYMREF READONLY;
       41     8337    1   DCL B$USERLS$ PTR SYMREF;
       42     8338    1   DCL B$UPT$ PTR SYMREF;
       43     8339    1   DCL B$VS1$ PTR SYMREF READONLY;
       44     8340    1   DCL B$VS2$ PTR SYMREF READONLY;
       45     8341    1   DCL B$VS3$ PTR SYMREF READONLY;
       46     8342    1   DCL B$IPHYMAP$ PTR SYMREF READONLY;
       47     8343    1   DCL B$WSQ0PT$ PTR SYMREF READONLY;
       48     8344
       49     8345        /* Macro invocations */
       50     8346        %FPT$OPEN_V;
       51     8361        %MM$VIRTUAL_STATS;
       52     8365        %MODERR(MODULE='26'O);                  /* Sets the module of errcode to v    */
       53     8373        %VLP_ERRCODE (FPTN=ERR_VSINUSE,
       54     8374                       FCG=MM,
       55     8375                       MID=V,
       56     8376                       MON='1'B,
       57     8377                       ERR#=%E$VSINUSE,
       58     8378                       SEV=SEV_ERROR#,
       59     8379                       STCLASS=CONSTANT);
       60     8424        %VLP_ERRCODE (FPTN=ERR_VSTOBIG,
       61     8425                       FCG=MM,
       62     8426                       MID=V,
       63     8427                       MON='1'B,
       64     8428                       ERR#=%E$VSTOBIG,
       65     8429                       SEV=SEV_ERROR#,
       66     8430                       STCLASS=CONSTANT);
       67     8475        %VLP_ERRCODE (FPTN=ILGLSEG,ERR#=%E$ILGLSEG,SEV=SEV_ERROR#,FCG=MM,MID=V,MON='1'B,
              8475            STCLASS=CONSTANT);
       68     8520        %VLP_ERRCODE (FPTN=BRKCTY,ERR#=%E$BRKCTY,SEV=SEV_ERROR#,FCG=MM,MID=V,MON='1'B,
PL6.E3A0      #001=MMV$OPEN File=MMV$VIRTUAL.:E05TSI                             WED 07/30/97 03:25 Page:16
              8520            STCLASS=CONSTANT);
       69     8565       %VLP_ERRCODE (FPTN=NOVLPVIRT,ERR#=%E$NOVLPVIRT,SEV=SEV_ERROR#,FCG=MM,MID=V,MON='1'B,
              8565            STCLASS=CONSTANT);
       70     8610        %VLP$VIRTUAL_V (FPTN=VLP$VIRTUAL);
       71     8615
       72     8616        /* Entry references */
       73     8617    1   DCL MME$WGVP ENTRY(4) ALTRET;
       74     8618    1   DCL MME$GVPNOPP ENTRY(4) ALTRET;
       75     8619    1   DCL MME$WFVP ENTRY(4) ALTRET;
       76     8620    1   DCL MMB$GPP ENTRY(2) ALTRET;
       77     8621    1   DCL MMB$GNPP ENTRY(2) ALTRET;
       78     8622    1   DCL MMB$FPPONTAIL ENTRY(1) ALTRET;
       79     8623    1   DCL MME$RVNP ENTRY(4) ALTRET;
       80     8624
       81     8625        /* Subs */
       82     8626        %SUB MM$VCB = VCB$->MM$VCB;
       83     8627
       84     8628        /* Auto */
       85     8629    1   DCL EWSQ SBIN;
       86     8630    1   DCL P$ PTR;
       87     8631    1   DCL ERR UBIN;
       88     8632    1   DCL I SBIN;
       89     8633    1   DCL VPPGTBL UBIN;                       /* Page table virtual page            */
       90     8634    1   DCL VCB$ PTR;
       91     8635    1   DCL SEGID BIT(12);
       92     8636    1   DCL PPNO UBIN;
       93     8637    1   DCL TEMP SBIN;
       94     8638    1   DCL   SAVE_PPNO UBIN WORD;
       95     8639    1   DCL TERR UBIN;
       96     8640
       97     8641        /* Begin procedure */
       98     8642
       99     8643        /* Check out passed parameters */
      100     8644    1        VCB$ = B$JIT.DCB$ -> F$DCB.SETSTA$;     /* Setsta contians

   8644  2 000002   000000 470400 xsym               LDP0    B$JIT$
         2 000003   000232 471500                    LDP1    154,,PR0
PL6.E3A0      #001=MMV$OPEN File=MMV$VIRTUAL.:E05TSI                             WED 07/30/97 03:25 Page:17
         2 000004   100006 236100                    LDQ     6,,PR1
         2 000005   200010 756100                    STQ     VCB$,,AUTO

      101     8645                                                          address of ROSEG area */
      102     8646    1        B$JIT.DCBNO = B$JIT.DCB$ -> F$DCB.DCB#;

   8646  2 000006   100060 236100                    LDQ     48,,PR1
         2 000007   000033 772000                    QRL     27
         2 000010   000022 552104                    STBQ    18,'04'O,PR0

      103     8647
      104     8648    1        IF VCB$ = ADDR(NIL)                /* No VLP_VIRTUAL specified */

   8648  2 000011   200010 236100                    LDQ     VCB$,,AUTO
         2 000012   000001 116000 xsym               CMPQ    B_VECTNIL+1
         2 000013   000017 601000 2                  TNZ     s:8659

      105     8649    2        THEN DO;

      106     8650    2             B$JIT.ERR = NOVLPVIRT;

   8650  2 000014   000005 236000 1                  LDQ     NOVLPVIRT
         2 000015   000012 756100                    STQ     10,,PR0

      107     8651                  /*E* ERROR: -E$NOVLPVIRT-SEV_ERROR#
      108     8652                       MESSAGE: VLP_VIRTUAL must be specified.
      109     8653                       MESSAGE1: The access method specified VS1 or VS2 or VS3
      110     8654                                 and VIRTUAL was not specified on the open.
      111     8655              */
      112     8656    2             ALTRETURN;

   8656  2 000016   000000 702200 xent               TSX2  ! X66_AALT

      113     8657    2           END;
      114     8658
      115     8659    1        IF NOT B$JIT.JUNK & %JJ_LNKRETIP#

PL6.E3A0      #001=MMV$OPEN File=MMV$VIRTUAL.:E05TSI                             WED 07/30/97 03:25 Page:18
   8659  2 000017   000315 220100                    LDX0    205,,PR0
         2 000020   000002 360003                    ANX0    2,DU
         2 000021   000033 601000 2                  TNZ     s:8665

      116     8660    2        THEN DO;

      117     8661    2             B$JIT.DCB$ -> F$DCB.LASTSTA$->MM$VIRTUAL_STATS = '0'B;

   8661  2 000022   100007 473500                    LDP3    7,,PR1
         2 000023   000100 100400                    MLR     fill='000'O
         2 000024   000002 000001 xsym               ADSC9   B_VECTNIL+2              cn=0,n=1
         2 000025   300000 000040                    ADSC9   0,,PR3                   cn=0,n=32

      118     8662    2             MM$VCB.MAXVP# = (MM$VCB.MAXVP# -1) / 1024;

   8662  2 000026   200010 471500                    LDP1    VCB$,,AUTO
         2 000027   100002 236100                    LDQ     2,,PR1
         2 000030   000001 136007                    SBLQ    1,DL
         2 000031   002000 506007                    DIV     1024,DL
         2 000032   100002 756100                    STQ     2,,PR1

      119     8663    2           END;

      120     8664                 /* Check to see if maxvp is resonable */
      121     8665    1        IF MM$VCB.MAXVP# >= 1024 * 4096    /* Greater than maximum               */

   8665  2 000033   200010 471500                    LDP1    VCB$,,AUTO
         2 000034   100002 235100                    LDA     2,,PR1
         2 000035   000020 115003                    CMPA    16,DU
         2 000036   000042 604000 2                  TMI     s:8676

      122     8666    2        THEN DO;

      123     8667    2             B$JIT.ERR = ERR_VSTOBIG;

   8667  2 000037   000002 236000 1                  LDQ     ERR_VSTOBIG
         2 000040   000012 756100                    STQ     10,,PR0
PL6.E3A0      #001=MMV$OPEN File=MMV$VIRTUAL.:E05TSI                             WED 07/30/97 03:25 Page:19

      124     8668                  /*E* ERROR: -E$VSTOBIG-SEV_ERROR#
      125     8669                       MESSAGE: The size is greater than the maximum allowable.
      126     8670                       MESSAGE1: The size of the virtual area is greater than
      127     8671                                 the maximum allowable size.
      128     8672                   */
      129     8673    2             ALTRETURN;

   8673  2 000041   000000 702200 xent               TSX2  ! X66_AALT

      130     8674    2           END;
      131     8675
      132     8676    1        IF MM$VCB.PPMAX < 4                /* Illegal need at least four */

   8676  2 000042   100003 220100                    LDX0    3,,PR1
         2 000043   000004 100003                    CMPX0   4,DU
         2 000044   000047 603000 2                  TRC     s:8681

      133     8677    2        THEN DO;

      134     8678    2             MM$VCB.PPMAX = 4;

   8678  2 000045   000004 221003                    LDX1    4,DU
         2 000046   100003 741100                    STX1    3,,PR1

      135     8679    2           END;

      136     8680
      137     8681    1        MM$VCB.PPMIN = MINIMUM( MM$VCB.PPMAX,

   8681  2 000047   100003 236100                    LDQ     3,,PR1
         2 000050   777777 376007                    ANQ     -1,DL
         2 000051   000004 116007                    CMPQ    4,DL
         2 000052   000054 603000 2                  TRC     s:8681+5
         2 000053   000004 236007                    LDQ     4,DL
         2 000054   200016 756100                    STQ     TERR+1,,AUTO
         2 000055   100003 236100                    LDQ     3,,PR1
PL6.E3A0      #001=MMV$OPEN File=MMV$VIRTUAL.:E05TSI                             WED 07/30/97 03:25 Page:20
         2 000056   000022 772000                    QRL     18
         2 000057   200016 116100                    CMPQ    TERR+1,,AUTO
         2 000060   000063 602000 2                  TNC     s:8681+12
         2 000061   000063 600000 2                  TZE     s:8681+12
         2 000062   200016 236100                    LDQ     TERR+1,,AUTO
         2 000063   000000 620006                    EAX0    0,QL
         2 000064   100003 440100                    SXL0    3,,PR1

      138     8682    1             MAXIMUM( MM$VCB.PPMIN , 4));
      139     8683
      140     8684    1        MM$VCB.HEAD = -1;                  /* Mark head                          */

   8684  2 000065   000001 335007                    LCA     1,DL
         2 000066   100006 755100                    STA     6,,PR1

      141     8685    1        MM$VCB.TAIL = -1;                  /* Mark tail                          */

   8685  2 000067   100007 755100                    STA     7,,PR1

      142     8686    1        MM$VCB.PPC = 0;

   8686  2 000070   000000 221003                    LDX1    0,DU
         2 000071   100011 741100                    STX1    9,,PR1

      143     8687    1        MM$VCB.WRITE = %FALSE;

   8687  2 000072   000000 236000 3                  LDQ     0
         2 000073   100000 356100                    ANSQ    0,,PR1

      144     8688    1        MM$VCB.CREATE = %FALSE;

   8688  2 000074   000001 236000 3                  LDQ     1
         2 000075   100000 356100                    ANSQ    0,,PR1

      145     8689    1        MM$VCB.T.FRAGMENTED = %FALSE;

   8689  2 000076   000002 236000 3                  LDQ     2
PL6.E3A0      #001=MMV$OPEN File=MMV$VIRTUAL.:E05TSI                             WED 07/30/97 03:25 Page:21
         2 000077   100000 356100                    ANSQ    0,,PR1

      146     8690    1        MM$VCB.T.SECTION = %FALSE;

   8690  2 000100   000003 236000 3                  LDQ     3
         2 000101   100000 356100                    ANSQ    0,,PR1

      147     8691    1        MM$VCB.UPGT#=0;

   8691  2 000102   100013 741100                    STX1    11,,PR1

      148     8692    1        MM$VCB.PTR$ = ADDR(NIL);

   8692  2 000103   000001 236000 xsym               LDQ     B_VECTNIL+1
         2 000104   100004 756100                    STQ     4,,PR1

      149     8693    1        MM$VCB.MAXVP_WRITTEN = -1;

   8693  2 000105   100010 755100                    STA     8,,PR1

      150     8694    1        MM$VCB.NPGTPGS = MM$VCB.MAXVP# / 1024 + 1;

   8694  2 000106   100002 236100                    LDQ     2,,PR1
         2 000107   002000 506007                    DIV     1024,DL
         2 000110   000001 036007                    ADLQ    1,DL
         2 000111   100012 756100                    STQ     10,,PR1

      151     8695        /*  Decide what kind of mapping it's going to be used */
      152     8696    2        IF HW_SECT_PT THEN DO;             /*   We can use section page table  */

   8696  2 000112   000000 234000 xsym               SZN     HW_SECT_PT
         2 000113   000137 605000 2                  TPL     s:8707

      153     8697    3             IF MM$VCB.NPGTPGS>%MM_MAXSECTPT THEN DO;

   8697  2 000114   000004 116007                    CMPQ    4,DL
         2 000115   000137 604400 2                  TMOZ    s:8707
PL6.E3A0      #001=MMV$OPEN File=MMV$VIRTUAL.:E05TSI                             WED 07/30/97 03:25 Page:22

      154     8698    3                  MM$VCB.T.SECTION=%TRUE;  /* Use section page table */

   8698  2 000116   010000 236003                    LDQ     4096,DU
         2 000117   100000 256100                    ORSQ    0,,PR1

      155     8699    3                  MM$VCB.NPGTSECT=(MM$VCB.NPGTPGS-1)/1024+1; /* Nr

   8699  2 000120   100012 236100                    LDQ     10,,PR1
         2 000121   000001 136007                    SBLQ    1,DL
         2 000122   002000 506007                    DIV     1024,DL
         2 000123   000001 622006                    EAX2    1,QL
         2 000124   100011 442100                    SXL2    9,,PR1

      156     8700        of pages used for the section (max 4) */
      157     8701    3                 MM$VCB.NPGTPGS=MINIMUM(MM$VCB.NPGTPGS,%MM_MAXPTENTS - MM$VCB.NPGTSECT
              8701                           ); /*  For a

   8701  2 000125   100011 236100                    LDQ     9,,PR1
         2 000126   000022 736000                    QLS     18
         2 000127   000022 732000                    QRS     18
         2 000130   000027 676000 xsym               ERQ     B_VECTNIL+23
         2 000131   000021 036007                    ADLQ    17,DL
         2 000132   100012 116100                    CMPQ    10,,PR1
         2 000133   000135 604400 2                  TMOZ    s:8701+8
         2 000134   100012 236100                    LDQ     10,,PR1
         2 000135   100012 756100                    STQ     10,,PR1

      158     8702        section PT we use at most 15 noncontiguous pages for pg tables */
      159     8703    3                  GOTO PT_SETUP;

   8703  2 000136   000163 710000 2                  TRA     PT_SETUP

      160     8704    3                END;
      161     8705    2           END;
      162     8706
      163     8707    1        IF MM$VCB.NPGTPGS > 16 OR (MM$VCB.PPMAX < 256 AND MM$VCB.NPGTPGS > 1)
PL6.E3A0      #001=MMV$OPEN File=MMV$VIRTUAL.:E05TSI                             WED 07/30/97 03:25 Page:23

   8707  2 000137   000020 116007                    CMPQ    16,DL
         2 000140   000146 605400 2                  TPNZ    s:8709
         2 000141   100003 222100                    LDX2    3,,PR1
         2 000142   000400 102003                    CMPX2   256,DU
         2 000143   000163 603000 2                  TRC     PT_SETUP
         2 000144   000001 116007                    CMPQ    1,DL
         2 000145   000163 604400 2                  TMOZ    PT_SETUP

      164     8708    2        THEN DO;

      165     8709    3             IF HW_FRAG_PT THEN DO;

   8709  2 000146   000000 234000 xsym               SZN     HW_FRAG_PT
         2 000147   000156 605000 2                  TPL     s:8715

      166     8710    3   GOFRAG:
      167     8711    3                  MM$VCB.T.FRAGMENTED = %TRUE;

   8711  2 000150   200010 470500       GOFRAG       LDP0    VCB$,,AUTO
         2 000151   020000 236003                    LDQ     8192,DU
         2 000152   000000 256100                    ORSQ    0,,PR0

      168     8712    3                  MM$VCB.NPGTPGS = 1;

   8712  2 000153   000001 235007                    LDA     1,DL
         2 000154   000012 755100                    STA     10,,PR0

      169     8713    3                END;

   8713  2 000155   000163 710000 2                  TRA     PT_SETUP

      170     8714    3             ELSE DO;

      171     8715    4                  IF MM$VCB.NPGTPGS > 16 THEN DO;

   8715  2 000156   000020 116007                    CMPQ    16,DL
PL6.E3A0      #001=MMV$OPEN File=MMV$VIRTUAL.:E05TSI                             WED 07/30/97 03:25 Page:24
         2 000157   000163 604400 2                  TMOZ    PT_SETUP

      172     8716    4                       B$JIT.ERR = ERR_VSTOBIG;

   8716  2 000160   000002 236000 1                  LDQ     ERR_VSTOBIG
         2 000161   000012 756100                    STQ     10,,PR0

      173     8717    4                       ALTRETURN;

   8717  2 000162   000000 702200 xent               TSX2  ! X66_AALT

      174     8718    4                     END;
      175     8719    3                END;
      176     8720    2           END;
      177     8721
      178     8722        /* Set the write indication if the user can update this file */
      179     8723    1   PT_SETUP:
      180     8724    1        IF B$JIT.DCB$ -> F$DCB.FFLG.UPD

   8724  2 000163   000000 470400 xsym  PT_SETUP     LDP0    B$JIT$
         2 000164   000232 471500                    LDP1    154,,PR0
         2 000165   100004 236100                    LDQ     4,,PR1
         2 000166   040000 316003                    CANQ    16384,DU
         2 000167   000173 600000 2                  TZE     s:8727

      181     8725    1        THEN
      182     8726    1             MM$VCB.WRITE = %TRUE;

   8726  2 000170   200010 473500                    LDP3    VCB$,,AUTO
         2 000171   100000 236003                    LDQ     32768,DU
         2 000172   300000 256100                    ORSQ    0,,PR3

      183     8727    1        IF B$JIT.DCB$->F$DCB.FUN = %CREATE# AND NOT B$JIT.JUNK & %JJ_LNKRETIP#
              8727                 /* File is open create*/

   8727  2 000173   000232 471500                    LDP1    154,,PR0
         2 000174   100032 236100                    LDQ     26,,PR1
PL6.E3A0      #001=MMV$OPEN File=MMV$VIRTUAL.:E05TSI                             WED 07/30/97 03:25 Page:25
         2 000175   000777 376003                    ANQ     511,DU
         2 000176   000003 116003                    CMPQ    3,DU
         2 000177   000206 601000 2                  TNZ     s:8732
         2 000200   000315 220100                    LDX0    205,,PR0
         2 000201   000002 360003                    ANX0    2,DU
         2 000202   000206 601000 2                  TNZ     s:8732

      184     8728    1        THEN
      185     8729    1             MM$VCB.CREATE = %TRUE;

   8729  2 000203   200010 473500                    LDP3    VCB$,,AUTO
         2 000204   040000 236003                    LDQ     16384,DU
         2 000205   300000 256100                    ORSQ    0,,PR3

      186     8730
      187     8731
      188     8732    2        DO CASE (MM$VCB.SEGNUM);

   8732  2 000206   200010 471500                    LDP1    VCB$,,AUTO
         2 000207   100000 720100                    LXL0    0,,PR1
         2 000210   000777 360003                    ANX0    511,DU
         2 000211   000004 100003                    CMPX0   4,DU
         2 000212   000214 602010 2                  TNC     s:8732+6,X0
         2 000213   000253 710000 2                  TRA     s:8753
         2 000214   000253 710000 2                  TRA     s:8753
         2 000215   000220 710000 2                  TRA     s:8735
         2 000216   000231 710000 2                  TRA     s:8741
         2 000217   000242 710000 2                  TRA     s:8747

      189     8733
      190     8734    2        CASE (%VS1#);

      191     8735    2           EWSQ = %VS1WSQ;

   8735  2 000220   000011 235007                    LDA     9,DL
         2 000221   200003 755100                    STA     EWSQ,,AUTO

PL6.E3A0      #001=MMV$OPEN File=MMV$VIRTUAL.:E05TSI                             WED 07/30/97 03:25 Page:26
      192     8736    2           VPPGTBL = %VS1PGTBL;

   8736  2 000222   001050 236007                    LDQ     552,DL
         2 000223   200007 756100                    STQ     VPPGTBL,,AUTO

      193     8737    2           SEGID = %VS1SID;

   8737  2 000224   603200 236003                    LDQ     -63872,DU
         2 000225   200011 756100                    STQ     SEGID,,AUTO

      194     8738    2           P$ = B$VS1$;

   8738  2 000226   000000 236000 xsym               LDQ     B$VS1$
         2 000227   200004 756100                    STQ     P$,,AUTO
         2 000230   000256 710000 2                  TRA     s:8762

      195     8739
      196     8740    2        CASE (%VS2#);

      197     8741    2           EWSQ = %VS2WSQ;

   8741  2 000231   000012 235007                    LDA     10,DL
         2 000232   200003 755100                    STA     EWSQ,,AUTO

      198     8742    2           VPPGTBL = %VS2PGTBL;

   8742  2 000233   001070 236007                    LDQ     568,DL
         2 000234   200007 756100                    STQ     VPPGTBL,,AUTO

      199     8743    2           SEGID = %VS2SID;

   8743  2 000235   603300 236003                    LDQ     -63808,DU
         2 000236   200011 756100                    STQ     SEGID,,AUTO

      200     8744    2           P$ = B$VS2$;

   8744  2 000237   000000 236000 xsym               LDQ     B$VS2$
PL6.E3A0      #001=MMV$OPEN File=MMV$VIRTUAL.:E05TSI                             WED 07/30/97 03:25 Page:27
         2 000240   200004 756100                    STQ     P$,,AUTO
         2 000241   000256 710000 2                  TRA     s:8762

      201     8745
      202     8746    2        CASE (%VS3#);

      203     8747    2           EWSQ = %VS3WSQ;

   8747  2 000242   000013 235007                    LDA     11,DL
         2 000243   200003 755100                    STA     EWSQ,,AUTO

      204     8748    2           VPPGTBL = %VS3PGTBL;

   8748  2 000244   001110 236007                    LDQ     584,DL
         2 000245   200007 756100                    STQ     VPPGTBL,,AUTO

      205     8749    2           SEGID = %VS3SID;

   8749  2 000246   603400 236003                    LDQ     -63744,DU
         2 000247   200011 756100                    STQ     SEGID,,AUTO

      206     8750    2           P$ = B$VS3$;

   8750  2 000250   000000 236000 xsym               LDQ     B$VS3$
         2 000251   200004 756100                    STQ     P$,,AUTO
         2 000252   000256 710000 2                  TRA     s:8762

      207     8751
      208     8752    2        CASE (ELSE);

      209     8753    2           B$JIT.ERR = ILGLSEG;

   8753  2 000253   000003 236000 1                  LDQ     ILGLSEG
         2 000254   000012 756100                    STQ     10,,PR0

      210     8754                  /*E* ERROR: -E$ILGLSEG-SEV_ERROR#
      211     8755                       MESSAGE: Illegal segment number.
PL6.E3A0      #001=MMV$OPEN File=MMV$VIRTUAL.:E05TSI                             WED 07/30/97 03:25 Page:28
      212     8756                       MESSAGE1: The segment number for the virtual segment
      213     8757                                 was not 1, 2, or 3.
      214     8758                             */
      215     8759    2           ALTRETURN;

   8759  2 000255   000000 702200 xent               TSX2  ! X66_AALT

      216     8760    2        END;

      217     8761
      218     8762    1        MM$VCB.WSQ = EWSQ;

   8762  2 000256   200003 236100                    LDQ     EWSQ,,AUTO
         2 000257   000022 736000                    QLS     18
         2 000260   100000 552120                    STBQ    0,'20'O,PR1

      219     8763    1        I = EWSQ - %VS1WSQ;                /* Index into jit table for DCB#      */

   8763  2 000261   000011 135007                    SBLA    9,DL
         2 000262   200006 755100                    STA     I,,AUTO

      220     8764    1        IF B$JIT.VIRTUAL.DCB#(I) ~= 0      /* Already used                       */

   8764  2 000263   000100 101505                    MRL     fill='000'O
         2 000264   000217 000001                    ADSC9   143,A,PR0                cn=0,n=1
         2 000265   200016 000004                    ADSC9   TERR+1,,AUTO             cn=0,n=4
         2 000266   200016 236100                    LDQ     TERR+1,,AUTO
         2 000267   000000 116003                    CMPQ    0,DU
         2 000270   000274 600000 2                  TZE     s:8776

      221     8765    2        THEN DO;

      222     8766    2             B$JIT.ERR = ERR_VSINUSE;

   8766  2 000271   000001 236000 1                  LDQ     ERR_VSINUSE
         2 000272   000012 756100                    STQ     10,,PR0

PL6.E3A0      #001=MMV$OPEN File=MMV$VIRTUAL.:E05TSI                             WED 07/30/97 03:25 Page:29
      223     8767                  /*E* ERROR: -E$VSINUSE-SEV_ERROR#
      224     8768                       MESSAGE: The specified Virtual segment is already in use
      225     8769                       MESSAGE1: The access method specified a virtual segment
      226     8770                                 and that segment is in use by another DCB.
      227     8771                        */
      228     8772    2             ALTRETURN;

   8772  2 000273   000000 702200 xent               TSX2  ! X66_AALT

      229     8773    2           END;
      230     8774
      231     8775        /* Get a page table for this wsq */
      232     8776    2        IF MM$VCB.T.SECTION THEN DO;  /* Get the Section and the page tables */

   8776  2 000274   100000 236100                    LDQ     0,,PR1
         2 000275   010000 316003                    CANQ    4096,DU
         2 000276   000413 600000 2                  TZE     s:8788

      233     8777    2             PPNO = MM$VCB.NPGTSECT;

   8777  2 000277   100011 236100                    LDQ     9,,PR1
         2 000300   000022 736000                    QLS     18
         2 000301   000022 732000                    QRS     18
         2 000302   200012 756100                    STQ     PPNO,,AUTO

      234     8778    2             CALL MMB$GNPP(PPNO,%USERWSQ) ALTRET(NO_PT);

   8778  2 000303   000004 236000 3                  LDQ     4
         2 000304   200017 756100                    STQ     TERR+2,,AUTO
         2 000305   200012 633500                    EPPR3   PPNO,,AUTO
         2 000306   200016 453500                    STP3    TERR+1,,AUTO
         2 000307   200016 630500                    EPPR0   TERR+1,,AUTO
         2 000310   000020 631400 xsym               EPPR1   B_VECTNIL+16
         2 000311   000000 701000 xent               TSX1    MMB$GNPP
         2 000312   000706 702000 2                  TSX2    NO_PT

      235     8779    3             DO TEMP = 0 TO MM$VCB.NPGTSECT - 1;
PL6.E3A0      #001=MMV$OPEN File=MMV$VIRTUAL.:E05TSI                             WED 07/30/97 03:25 Page:30

   8779  2 000313   200013 450100                    STZ     TEMP,,AUTO
         2 000314   000342 710000 2                  TRA     s:8781+1

      236     8780    3                 CALL MME$GVPNOPP (%USERWSQ,VPPGTBL+TEMP,PPNO+TEMP,ERR) ALTRET (REL_IT
              8780                           );

   8780  2 000315   200007 236100                    LDQ     VPPGTBL,,AUTO
         2 000316   200013 036100                    ADLQ    TEMP,,AUTO
         2 000317   200016 756100                    STQ     TERR+1,,AUTO
         2 000320   200012 236100                    LDQ     PPNO,,AUTO
         2 000321   200013 036100                    ADLQ    TEMP,,AUTO
         2 000322   200016 235100                    LDA     TERR+1,,AUTO
         2 000323   200017 755100                    STA     TERR+2,,AUTO
         2 000324   200020 756100                    STQ     TERR+3,,AUTO
         2 000325   200005 630500                    EPPR0   ERR,,AUTO
         2 000326   200025 450500                    STP0    TERR+8,,AUTO
         2 000327   200020 631500                    EPPR1   TERR+3,,AUTO
         2 000330   200024 451500                    STP1    TERR+7,,AUTO
         2 000331   200017 633500                    EPPR3   TERR+2,,AUTO
         2 000332   200023 453500                    STP3    TERR+6,,AUTO
         2 000333   000004 236000 3                  LDQ     4
         2 000334   200022 756100                    STQ     TERR+5,,AUTO
         2 000335   200022 630500                    EPPR0   TERR+5,,AUTO
         2 000336   000022 631400 xsym               EPPR1   B_VECTNIL+18
         2 000337   000000 701000 xent               TSX1    MME$GVPNOPP
         2 000340   000754 702000 2                  TSX2    REL_IT

      237     8781    3                END;

   8781  2 000341   200013 054100                    AOS     TEMP,,AUTO
         2 000342   200010 470500                    LDP0    VCB$,,AUTO
         2 000343   000011 236100                    LDQ     9,,PR0
         2 000344   000022 736000                    QLS     18
         2 000345   000022 732000                    QRS     18
         2 000346   200013 116100                    CMPQ    TEMP,,AUTO
         2 000347   000315 605400 2                  TPNZ    s:8780
PL6.E3A0      #001=MMV$OPEN File=MMV$VIRTUAL.:E05TSI                             WED 07/30/97 03:25 Page:31

      238     8782    3             DO TEMP=0 TO MM$VCB.NPGTPGS-1;

   8782  2 000350   200013 450100                    STZ     TEMP,,AUTO
         2 000351   000406 710000 2                  TRA     s:8785+1

      239     8783    3                  CALL MMB$GPP(PPNO,%USERWSQ) ALTRET(REL_EM);

   8783  2 000352   000004 236000 3                  LDQ     4
         2 000353   200017 756100                    STQ     TERR+2,,AUTO
         2 000354   200012 630500                    EPPR0   PPNO,,AUTO
         2 000355   200016 450500                    STP0    TERR+1,,AUTO
         2 000356   200016 630500                    EPPR0   TERR+1,,AUTO
         2 000357   000020 631400 xsym               EPPR1   B_VECTNIL+16
         2 000360   000000 701000 xent               TSX1    MMB$GPP
         2 000361   000720 702000 2                  TSX2    REL_EM

      240     8784    3                  CALL MME$GVPNOPP(%USERWSQ,VPPGTBL+MM$VCB.NPGTSECT+TEMP,PPNO,ERR)
              8784                           ALTRET (REL_EM);

   8784  2 000362   200010 470500                    LDP0    VCB$,,AUTO
         2 000363   000011 236100                    LDQ     9,,PR0
         2 000364   000022 736000                    QLS     18
         2 000365   000022 732000                    QRS     18
         2 000366   200007 036100                    ADLQ    VPPGTBL,,AUTO
         2 000367   200013 036100                    ADLQ    TEMP,,AUTO
         2 000370   200016 756100                    STQ     TERR+1,,AUTO
         2 000371   200005 631500                    EPPR1   ERR,,AUTO
         2 000372   200023 451500                    STP1    TERR+6,,AUTO
         2 000373   200012 633500                    EPPR3   PPNO,,AUTO
         2 000374   200022 453500                    STP3    TERR+5,,AUTO
         2 000375   200016 634500                    EPPR4   TERR+1,,AUTO
         2 000376   200021 454500                    STP4    TERR+4,,AUTO
         2 000377   000004 236000 3                  LDQ     4
         2 000400   200020 756100                    STQ     TERR+3,,AUTO
         2 000401   200020 630500                    EPPR0   TERR+3,,AUTO
         2 000402   000022 631400 xsym               EPPR1   B_VECTNIL+18
PL6.E3A0      #001=MMV$OPEN File=MMV$VIRTUAL.:E05TSI                             WED 07/30/97 03:25 Page:32
         2 000403   000000 701000 xent               TSX1    MME$GVPNOPP
         2 000404   000720 702000 2                  TSX2    REL_EM

      241     8785    3                END;

   8785  2 000405   200013 054100                    AOS     TEMP,,AUTO
         2 000406   200010 470500                    LDP0    VCB$,,AUTO
         2 000407   200013 236100                    LDQ     TEMP,,AUTO
         2 000410   000012 116100                    CMPQ    10,,PR0
         2 000411   000352 604000 2                  TMI     s:8783

      242     8786    2           END;

   8786  2 000412   000460 710000 2                  TRA     s:8795

      243     8787    2        ELSE DO;

      244     8788    2             PPNO = MM$VCB.NPGTPGS;

   8788  2 000413   100012 235100                    LDA     10,,PR1
         2 000414   200012 755100                    STA     PPNO,,AUTO

      245     8789    2             CALL MMB$GNPP(PPNO,%USERWSQ) ALTRET(NO_PT);

   8789  2 000415   000004 236000 3                  LDQ     4
         2 000416   200017 756100                    STQ     TERR+2,,AUTO
         2 000417   200012 633500                    EPPR3   PPNO,,AUTO
         2 000420   200016 453500                    STP3    TERR+1,,AUTO
         2 000421   200016 630500                    EPPR0   TERR+1,,AUTO
         2 000422   000020 631400 xsym               EPPR1   B_VECTNIL+16
         2 000423   000000 701000 xent               TSX1    MMB$GNPP
         2 000424   000706 702000 2                  TSX2    NO_PT

      246     8790    3             DO TEMP = 0 TO MM$VCB.NPGTPGS - 1;

   8790  2 000425   200013 450100                    STZ     TEMP,,AUTO
         2 000426   000454 710000 2                  TRA     s:8792+1
PL6.E3A0      #001=MMV$OPEN File=MMV$VIRTUAL.:E05TSI                             WED 07/30/97 03:25 Page:33

      247     8791    3                  CALL MME$GVPNOPP (%USERWSQ,VPPGTBL+TEMP,PPNO+TEMP,ERR) ALTRET (
              8791                           REL_DENSE);

   8791  2 000427   200007 236100                    LDQ     VPPGTBL,,AUTO
         2 000430   200013 036100                    ADLQ    TEMP,,AUTO
         2 000431   200016 756100                    STQ     TERR+1,,AUTO
         2 000432   200012 236100                    LDQ     PPNO,,AUTO
         2 000433   200013 036100                    ADLQ    TEMP,,AUTO
         2 000434   200016 235100                    LDA     TERR+1,,AUTO
         2 000435   200017 755100                    STA     TERR+2,,AUTO
         2 000436   200020 756100                    STQ     TERR+3,,AUTO
         2 000437   200005 630500                    EPPR0   ERR,,AUTO
         2 000440   200025 450500                    STP0    TERR+8,,AUTO
         2 000441   200020 631500                    EPPR1   TERR+3,,AUTO
         2 000442   200024 451500                    STP1    TERR+7,,AUTO
         2 000443   200017 633500                    EPPR3   TERR+2,,AUTO
         2 000444   200023 453500                    STP3    TERR+6,,AUTO
         2 000445   000004 236000 3                  LDQ     4
         2 000446   200022 756100                    STQ     TERR+5,,AUTO
         2 000447   200022 630500                    EPPR0   TERR+5,,AUTO
         2 000450   000022 631400 xsym               EPPR1   B_VECTNIL+18
         2 000451   000000 701000 xent               TSX1    MME$GVPNOPP
         2 000452   001040 702000 2                  TSX2    REL_DENSE

      248     8792    3                END;

   8792  2 000453   200013 054100                    AOS     TEMP,,AUTO
         2 000454   200010 470500                    LDP0    VCB$,,AUTO
         2 000455   200013 236100                    LDQ     TEMP,,AUTO
         2 000456   000012 116100                    CMPQ    10,,PR0
         2 000457   000427 604000 2                  TMI     s:8791

      249     8793    2           END;

      250     8794        /* Set DCB# in jit for this virtual array */
      251     8795    1        B$JIT.VIRTUAL.DCB# (I) = B$JIT.DCBNO;
PL6.E3A0      #001=MMV$OPEN File=MMV$VIRTUAL.:E05TSI                             WED 07/30/97 03:25 Page:34

   8795  2 000460   000000 471400 xsym               LDP1    B$JIT$
         2 000461   200006 235100                    LDA     I,,AUTO
         2 000462   000105 100500                    MLR     fill='000'O
         2 000463   100022 600001                    ADSC9   18,,PR1                  cn=3,n=1
         2 000464   100217 000001                    ADSC9   143,A,PR1                cn=0,n=1

      252     8796
      253     8797        /* Set pointer to segment in vlp */
      254     8798    1        VCB$->VLP$VIRTUAL.PTR$ = P$; /* P$ contains pointer to approiate segment */

   8798  2 000465   200004 236100                    LDQ     P$,,AUTO
         2 000466   000004 756100                    STQ     4,,PR0

      255     8799
      256     8800             %FINDMAP (P$ = P$,WSQ = EWSQ);

   8801  2 000467   200003 720100                    LXL0    EWSQ,,AUTO
         2 000470   000000 236010 xsym               LDQ     MM_PTPTRS$,X0
         2 000471   200004 756100                    STQ     P$,,AUTO

      257     8803
      258     8804        /* Set segment not null */
      259     8805    1        IF NOT HW_IMX THEN

   8805  2 000472   000000 234000 xsym               SZN     HW_IMX
         2 000473   000506 604000 2                  TMI     s:8810

      260     8806                  %SETNOTNULL (LS$ = B$USERLS$, SEGID = SEGID);

   8807  2 000474   200011 236100                    LDQ     SEGID,,AUTO
         2 000475   777700 376003                    ANQ     -64,DU
         2 000476   177700 376003                    ANQ     65472,DU
         2 000477   000030 772000                    QRL     24
         2 000500   000001 736000                    QLS     1
         2 000501   000000 473400 xsym               LDP3    B$USERLS$
         2 000502   000000 621006                    EAX1    0,QL
PL6.E3A0      #001=MMV$OPEN File=MMV$VIRTUAL.:E05TSI                             WED 07/30/97 03:25 Page:35
         2 000503   000400 236007                    LDQ     256,DL
         2 000504   300000 256111                    ORSQ    0,X1,PR3
         2 000505   000520 710000 2                  TRA     s:8814

      261     8809    2        ELSE DO;

      262     8810    2             TEMP = BITBIN(SEGID & '1777'O);

   8810  2 000506   200011 236100                    LDQ     SEGID,,AUTO
         2 000507   777700 376003                    ANQ     -64,DU
         2 000510   177700 376003                    ANQ     65472,DU
         2 000511   000030 772000                    QRL     24
         2 000512   200013 756100                    STQ     TEMP,,AUTO

      263     8811    2             B$USERLS$->MM$SDESC.FLGS(TEMP) = '7'O;

   8811  2 000513   200013 235100                    LDA     TEMP,,AUTO
         2 000514   000001 735000                    ALS     1
         2 000515   000000 473400 xsym               LDP3    B$USERLS$
         2 000516   160000 236007                    LDQ     57344,DL
         2 000517   300000 256105                    ORSQ    0,AL,PR3

      264     8812    2           END;

      265     8813
      266     8814    2        IF MM$VCB.T.SECTION THEN DO;

   8814  2 000520   000000 236100                    LDQ     0,,PR0
         2 000521   010000 316003                    CANQ    4096,DU
         2 000522   000575 600000 2                  TZE     s:8828

      267     8815    3             DO I=0 TO MM$VCB.NPGTSECT*1024-1;

   8815  2 000523   200006 450100                    STZ     I,,AUTO
         2 000524   000537 710000 2                  TRA     s:8820+1

      268     8816    3                  P$->B$SECT(I) = '0'B;
PL6.E3A0      #001=MMV$OPEN File=MMV$VIRTUAL.:E05TSI                             WED 07/30/97 03:25 Page:36

   8816  2 000525   200004 470500                    LDP0    P$,,AUTO
         2 000526   200006 720100                    LXL0    I,,AUTO
         2 000527   000000 450110                    STZ     0,X0,PR0

      269     8817    3                  P$->B$SECT.PRES(I)= %TRUE;

   8817  2 000530   100000 236007                    LDQ     32768,DL
         2 000531   000000 256110                    ORSQ    0,X0,PR0

      270     8818    3                  P$->B$SECT.PTBOUND(I)= 15   ;

   8818  2 000532   000017 236007                    LDQ     15,DL
         2 000533   000000 256110                    ORSQ    0,X0,PR0

      271     8819    3                  P$->B$SECT.PTBASE(I) = MM_SCTDFT;

   8819  2 000534   000000 721000 xsym               LXL1    MM_SCTDFT
         2 000535   000000 741110                    STX1    0,X0,PR0

      272     8820    3                END;

   8820  2 000536   200006 054100                    AOS     I,,AUTO
         2 000537   200010 470500                    LDP0    VCB$,,AUTO
         2 000540   000011 236100                    LDQ     9,,PR0
         2 000541   000022 736000                    QLS     18
         2 000542   000010 732000                    QRS     8
         2 000543   200006 116100                    CMPQ    I,,AUTO
         2 000544   000525 605400 2                  TPNZ    s:8816

      273     8821    3             DO I=0 TO MM$VCB.NPGTPGS-1;

   8821  2 000545   200006 450100                    STZ     I,,AUTO
         2 000546   000571 710000 2                  TRA     s:8825+1

      274     8822    4                  DO TEMP =0 TO 1023;

PL6.E3A0      #001=MMV$OPEN File=MMV$VIRTUAL.:E05TSI                             WED 07/30/97 03:25 Page:37
   8822  2 000547   200013 450100                    STZ     TEMP,,AUTO

      275     8823    4                       PINCRW(P$,(I+MM$VCB.NPGTSECT) *1024 )->B$MAP(TEMP)=MM_FPMC;

   8823  2 000550   200010 470500                    LDP0    VCB$,,AUTO
         2 000551   000011 236100                    LDQ     9,,PR0
         2 000552   000022 736000                    QLS     18
         2 000553   000022 732000                    QRS     18
         2 000554   200006 036100                    ADLQ    I,,AUTO
         2 000555   000012 736000                    QLS     10
         2 000556   200013 036100                    ADLQ    TEMP,,AUTO
         2 000557   200016 756100                    STQ     TERR+1,,AUTO
         2 000560   000000 236000 xsym               LDQ     MM_FPMC
         2 000561   200004 471500                    LDP1    P$,,AUTO
         2 000562   200016 720100                    LXL0    TERR+1,,AUTO
         2 000563   100000 756110                    STQ     0,X0,PR1

      276     8824    4                     END;

   8824  2 000564   200013 054100                    AOS     TEMP,,AUTO
         2 000565   200013 235100                    LDA     TEMP,,AUTO
         2 000566   001777 115007                    CMPA    1023,DL
         2 000567   000550 604400 2                  TMOZ    s:8823

      277     8825    3                END;

   8825  2 000570   200006 054100                    AOS     I,,AUTO
         2 000571   200006 236100                    LDQ     I,,AUTO
         2 000572   000012 116100                    CMPQ    10,,PR0
         2 000573   000547 604000 2                  TMI     s:8822

      278     8826    2           END;

   8826  2 000574   000623 710000 2                  TRA     s:8838

      279     8827    2        ELSE DO;

PL6.E3A0      #001=MMV$OPEN File=MMV$VIRTUAL.:E05TSI                             WED 07/30/97 03:25 Page:38
      280     8828    2             TEMP = MM$VCB.NPGTPGS * 1024 - 1;

   8828  2 000575   000012 235100                    LDA     10,,PR0
         2 000576   000012 735000                    ALS     10
         2 000577   000001 135007                    SBLA    1,DL
         2 000600   200013 755100                    STA     TEMP,,AUTO

      281     8829    3             DO I = 0 TO TEMP;             /* Clear out page table               */

   8829  2 000601   200006 450100                    STZ     I,,AUTO
         2 000602   000620 710000 2                  TRA     s:8834+1

      282     8830    3                  P$ -> B$MAP (I) = '0'B;

   8830  2 000603   200004 470500                    LDP0    P$,,AUTO
         2 000604   200006 720100                    LXL0    I,,AUTO
         2 000605   000000 450110                    STZ     0,X0,PR0

      283     8831    3                  IF NOT MM$VCB.T.FRAGMENTED OR I >= 128

   8831  2 000606   200010 471500                    LDP1    VCB$,,AUTO
         2 000607   100000 236100                    LDQ     0,,PR1
         2 000610   020000 316003                    CANQ    8192,DU
         2 000611   000615 600000 2                  TZE     s:8833
         2 000612   200006 235100                    LDA     I,,AUTO
         2 000613   000200 115007                    CMPA    128,DL
         2 000614   000617 604000 2                  TMI     s:8834

      284     8832    3                  THEN
      285     8833    3                       P$ -> B$MAP(I) = MM_FPMC;

   8833  2 000615   000000 236000 xsym               LDQ     MM_FPMC
         2 000616   000000 756110                    STQ     0,X0,PR0

      286     8834    3                END;

   8834  2 000617   200006 054100                    AOS     I,,AUTO
PL6.E3A0      #001=MMV$OPEN File=MMV$VIRTUAL.:E05TSI                             WED 07/30/97 03:25 Page:39
         2 000620   200006 236100                    LDQ     I,,AUTO
         2 000621   200013 116100                    CMPQ    TEMP,,AUTO
         2 000622   000603 604400 2                  TMOZ    s:8830

      287     8835    2           END;

      288     8836
      289     8837        /* Must set up wsptd for the virtual area */
      290     8838    1        TEMP = B$UPT$ -> B$MAP.RPN (VPPGTBL);

   8838  2 000623   000000 470400 xsym               LDP0    B$UPT$
         2 000624   200007 720100                    LXL0    VPPGTBL,,AUTO
         2 000625   000000 236110                    LDQ     0,X0,PR0
         2 000626   000022 772000                    QRL     18
         2 000627   200013 756100                    STQ     TEMP,,AUTO

      291     8839    1        TEMP = TEMP * (1024 / HW_PTB_UNITS);

   8839  2 000630   002000 236007                    LDQ     1024,DL
         2 000631   000000 506000 xsym               DIV     HW_PTB_UNITS
         2 000632   200013 402100                    MPY     TEMP,,AUTO
         2 000633   200013 756100                    STQ     TEMP,,AUTO

      292     8840    1        S_WSPTD.BLKNO(EWSQ)=TEMP;

   8840  2 000634   000000 621006                    EAX1    0,QL
         2 000635   200003 722100                    LXL2    EWSQ,,AUTO
         2 000636   000000 741012 xsym               STX1    S_WSPTD,X2

      293     8841    1        IF MM$VCB.T.SECTION THEN S_WSPTD.NBLKS(EWSQ) = MM$VCB.NPGTSECT * 16;

   8841  2 000637   200010 471500                    LDP1    VCB$,,AUTO
         2 000640   100000 236100                    LDQ     0,,PR1
         2 000641   010000 316003                    CANQ    4096,DU
         2 000642   000652 600000 2                  TZE     s:8842

   8841  2 000643   100011 236100                    LDQ     9,,PR1
PL6.E3A0      #001=MMV$OPEN File=MMV$VIRTUAL.:E05TSI                             WED 07/30/97 03:25 Page:40
         2 000644   000022 736000                    QLS     18
         2 000645   000016 732000                    QRS     14
         2 000646   000000 676012 xsym               ERQ     S_WSPTD,X2
         2 000647   007777 376007                    ANQ     4095,DL
         2 000650   000000 656012 xsym               ERSQ    S_WSPTD,X2
         2 000651   000657 710000 2                  TRA     s:8843

      294     8842    1        ELSE S_WSPTD.NBLKS(EWSQ) = MM$VCB.NPGTPGS * 16;

   8842  2 000652   100012 236100                    LDQ     10,,PR1
         2 000653   000004 736000                    QLS     4
         2 000654   000000 676012 xsym               ERQ     S_WSPTD,X2
         2 000655   007777 376007                    ANQ     4095,DL
         2 000656   000000 656012 xsym               ERSQ    S_WSPTD,X2

      295     8843    1        S_WSPTD.P(EWSQ) = %TRUE;           /* Page table present                 */

   8843  2 000657   100000 236007                    LDQ     32768,DL
         2 000660   000000 256012 xsym               ORSQ    S_WSPTD,X2

      296     8844    1        S_WSPTD.T(EWSQ) = MM$VCB.T;

   8844  2 000661   100000 236100                    LDQ     0,,PR1
         2 000662   000021 772000                    QRL     17
         2 000663   000000 676012 xsym               ERQ     S_WSPTD,X2
         2 000664   060000 376007                    ANQ     24576,DL
         2 000665   000000 656012 xsym               ERSQ    S_WSPTD,X2

      297     8845    1        IF NOT HW_IMX THEN

   8845  2 000666   000000 234000 xsym               SZN     HW_IMX
         2 000667   000701 604000 2                  TMI     s:8848

      298     8846    1             S_WSPTD.Q(EWSQ) = BINBIT(MOD(EWSQ,4),2);

   8846  2 000670   200003 236100                    LDQ     EWSQ,,AUTO
         2 000671   000004 506007                    DIV     4,DL
PL6.E3A0      #001=MMV$OPEN File=MMV$VIRTUAL.:E05TSI                             WED 07/30/97 03:25 Page:41
         2 000672   000044 733000                    LRS     36
         2 000673   000042 736000                    QLS     34
         2 000674   000022 772000                    QRL     18
         2 000675   000000 676012 xsym               ERQ     S_WSPTD,X2
         2 000676   600000 376007                    ANQ     -65536,DL
         2 000677   000000 656012 xsym               ERSQ    S_WSPTD,X2
         2 000700   000703 710000 2                  TRA     s:8851

      299     8847    1        ELSE
      300     8848    1             S_WSPTD.Q(EWSQ) = '0'O;

   8848  2 000701   000005 236000 3                  LDQ     5
         2 000702   000000 356012 xsym               ANSQ    S_WSPTD,X2

      301     8849
      302     8850        /* Save it in MM$VCB for use at time of schedule */
      303     8851    1        MM$VCB.WSPTD = S_WSPTD(EWSQ);

   8851  2 000703   000000 236012 xsym               LDQ     S_WSPTD,X2
         2 000704   100005 756100                    STQ     5,,PR1

      304     8852    1        RETURN;                            /* All done                           */

   8852  2 000705   000000 702200 xent               TSX2  ! X66_ARET

      305     8853
      306     8854
      307     8855    1   NO_PT:
      308     8856    2        IF HW_FRAG_PT THEN DO;

   8856  2 000706   000000 234000 xsym  NO_PT        SZN     HW_FRAG_PT
         2 000707   000714 605000 2                  TPL     s:8860

      309     8857    2             MM$VCB.T.SECTION = %FALSE;

   8857  2 000710   200010 470500                    LDP0    VCB$,,AUTO
         2 000711   000003 236000 3                  LDQ     3
PL6.E3A0      #001=MMV$OPEN File=MMV$VIRTUAL.:E05TSI                             WED 07/30/97 03:25 Page:42
         2 000712   000000 356100                    ANSQ    0,,PR0

      310     8858    2             GOTO GOFRAG;

   8858  2 000713   000150 710000 2                  TRA     GOFRAG

      311     8859    2           END;
      312     8860    1        B$JIT.ERR = BRKCTY;

   8860  2 000714   000004 236000 1                  LDQ     BRKCTY
         2 000715   000000 470400 xsym               LDP0    B$JIT$
         2 000716   000012 756100                    STQ     10,,PR0

      313     8861    1        ALTRETURN;

   8861  2 000717   000000 702200 xent               TSX2  ! X66_AALT

      314     8862
      315     8863    1   REL_EM: /* Release both PTS(here), and SCTs(at REL_IT); */
      316     8864    2        DO I = 0 TO TEMP-1;

   8864  2 000720   200006 450100       REL_EM       STZ     I,,AUTO
         2 000721   000744 710000 2                  TRA     s:8866+1

      317     8865    2             CALL MME$WFVP (%USERWSQ, VPPGTBL+MM$VCB.NPGTPGS+I,, TERR);

   8865  2 000722   200010 470500                    LDP0    VCB$,,AUTO
         2 000723   200007 236100                    LDQ     VPPGTBL,,AUTO
         2 000724   000012 036100                    ADLQ    10,,PR0
         2 000725   200006 036100                    ADLQ    I,,AUTO
         2 000726   200016 756100                    STQ     TERR+1,,AUTO
         2 000727   200015 631500                    EPPR1   TERR,,AUTO
         2 000730   200023 451500                    STP1    TERR+6,,AUTO
         2 000731   000001 236000 xsym               LDQ     B_VECTNIL+1
         2 000732   200022 756100                    STQ     TERR+5,,AUTO
         2 000733   200016 633500                    EPPR3   TERR+1,,AUTO
         2 000734   200021 453500                    STP3    TERR+4,,AUTO
PL6.E3A0      #001=MMV$OPEN File=MMV$VIRTUAL.:E05TSI                             WED 07/30/97 03:25 Page:43
         2 000735   000004 236000 3                  LDQ     4
         2 000736   200020 756100                    STQ     TERR+3,,AUTO
         2 000737   200020 630500                    EPPR0   TERR+3,,AUTO
         2 000740   000022 631400 xsym               EPPR1   B_VECTNIL+18
         2 000741   000000 701000 xent               TSX1    MME$WFVP
         2 000742   000000 011000                    NOP     0

      318     8866    2           END;

   8866  2 000743   200006 054100                    AOS     I,,AUTO
         2 000744   200006 236100                    LDQ     I,,AUTO
         2 000745   200013 116100                    CMPQ    TEMP,,AUTO
         2 000746   000722 604000 2                  TMI     s:8865

      319     8867    1        TEMP = MM$VCB.NPGTSECT;

   8867  2 000747   200010 470500                    LDP0    VCB$,,AUTO
         2 000750   000011 236100                    LDQ     9,,PR0
         2 000751   000022 736000                    QLS     18
         2 000752   000022 732000                    QRS     18
         2 000753   200013 756100                    STQ     TEMP,,AUTO

      320     8868    1   REL_IT: /* Release the SCT or the PT.  TEMP holds how far we got */
      321     8869    2        DO I = 0 TO TEMP-1;

   8869  2 000754   200006 450100       REL_IT       STZ     I,,AUTO
         2 000755   001004 710000 2                  TRA     s:8872+1

      322     8870    2             CALL MME$RVNP (%USERWSQ, VPPGTBL+I, PPNO, TERR);

   8870  2 000756   200007 236100                    LDQ     VPPGTBL,,AUTO
         2 000757   200006 036100                    ADLQ    I,,AUTO
         2 000760   200016 756100                    STQ     TERR+1,,AUTO
         2 000761   200015 630500                    EPPR0   TERR,,AUTO
         2 000762   200023 450500                    STP0    TERR+6,,AUTO
         2 000763   200012 631500                    EPPR1   PPNO,,AUTO
         2 000764   200022 451500                    STP1    TERR+5,,AUTO
PL6.E3A0      #001=MMV$OPEN File=MMV$VIRTUAL.:E05TSI                             WED 07/30/97 03:25 Page:44
         2 000765   200016 633500                    EPPR3   TERR+1,,AUTO
         2 000766   200021 453500                    STP3    TERR+4,,AUTO
         2 000767   000004 236000 3                  LDQ     4
         2 000770   200020 756100                    STQ     TERR+3,,AUTO
         2 000771   200020 630500                    EPPR0   TERR+3,,AUTO
         2 000772   000022 631400 xsym               EPPR1   B_VECTNIL+18
         2 000773   000000 701000 xent               TSX1    MME$RVNP
         2 000774   000000 011000                    NOP     0

      323     8871    2             CALL MMB$FPPONTAIL (PPNO);

   8871  2 000775   200012 630500                    EPPR0   PPNO,,AUTO
         2 000776   200016 450500                    STP0    TERR+1,,AUTO
         2 000777   200016 630500                    EPPR0   TERR+1,,AUTO
         2 001000   000017 631400 xsym               EPPR1   B_VECTNIL+15
         2 001001   000000 701000 xent               TSX1    MMB$FPPONTAIL
         2 001002   000000 011000                    NOP     0

      324     8872    2           END;

   8872  2 001003   200006 054100                    AOS     I,,AUTO
         2 001004   200006 236100                    LDQ     I,,AUTO
         2 001005   200013 116100                    CMPQ    TEMP,,AUTO
         2 001006   000756 604000 2                  TMI     s:8870

      325     8873    2        DO I = TEMP TO MM$VCB.NPGTSECT - 1;

   8873  2 001007   200013 235100                    LDA     TEMP,,AUTO
         2 001010   200006 755100                    STA     I,,AUTO
         2 001011   001024 710000 2                  TRA     s:8875+1

      326     8874    2             CALL MMB$FPPONTAIL(PPNO+I);

   8874  2 001012   200012 236100                    LDQ     PPNO,,AUTO
         2 001013   200006 036100                    ADLQ    I,,AUTO
         2 001014   200016 756100                    STQ     TERR+1,,AUTO
         2 001015   200016 630500                    EPPR0   TERR+1,,AUTO
PL6.E3A0      #001=MMV$OPEN File=MMV$VIRTUAL.:E05TSI                             WED 07/30/97 03:25 Page:45
         2 001016   200017 450500                    STP0    TERR+2,,AUTO
         2 001017   200017 630500                    EPPR0   TERR+2,,AUTO
         2 001020   000017 631400 xsym               EPPR1   B_VECTNIL+15
         2 001021   000000 701000 xent               TSX1    MMB$FPPONTAIL
         2 001022   000000 011000                    NOP     0

      327     8875    2           END;

   8875  2 001023   200006 054100                    AOS     I,,AUTO
         2 001024   200010 470500                    LDP0    VCB$,,AUTO
         2 001025   000011 236100                    LDQ     9,,PR0
         2 001026   000022 736000                    QLS     18
         2 001027   000022 732000                    QRS     18
         2 001030   200006 116100                    CMPQ    I,,AUTO
         2 001031   001012 605400 2                  TPNZ    s:8874

      328     8876             %ERRSETN(CODE=ERR);

   8877  2 001032   200005 236100                    LDQ     ERR,,AUTO
         2 001033   000003 736000                    QLS     3
         2 001034   000000 276000 1                  ORQ     MMERR
         2 001035   000000 471400 xsym               LDP1    B$JIT$
         2 001036   100012 756100                    STQ     10,,PR1

      329     8879    1        ALTRETURN;

   8879  2 001037   000000 702200 xent               TSX2  ! X66_AALT

      330     8880
      331     8881    1   REL_DENSE:
      332     8882    1        SAVE_PPNO = PPNO;

   8882  2 001040   200012 235100       REL_DENSE    LDA     PPNO,,AUTO
         2 001041   200014 755100                    STA     SAVE_PPNO,,AUTO

      333     8883    2        DO I = 0 TO TEMP -1;

PL6.E3A0      #001=MMV$OPEN File=MMV$VIRTUAL.:E05TSI                             WED 07/30/97 03:25 Page:46
   8883  2 001042   200006 450100                    STZ     I,,AUTO
         2 001043   001072 710000 2                  TRA     s:8886+1

      334     8884    2             CALL MME$RVNP(%USERWSQ,VPPGTBL+I,PPNO,TEMP);

   8884  2 001044   200007 236100                    LDQ     VPPGTBL,,AUTO
         2 001045   200006 036100                    ADLQ    I,,AUTO
         2 001046   200016 756100                    STQ     TERR+1,,AUTO
         2 001047   200013 630500                    EPPR0   TEMP,,AUTO
         2 001050   200023 450500                    STP0    TERR+6,,AUTO
         2 001051   200012 631500                    EPPR1   PPNO,,AUTO
         2 001052   200022 451500                    STP1    TERR+5,,AUTO
         2 001053   200016 633500                    EPPR3   TERR+1,,AUTO
         2 001054   200021 453500                    STP3    TERR+4,,AUTO
         2 001055   000004 236000 3                  LDQ     4
         2 001056   200020 756100                    STQ     TERR+3,,AUTO
         2 001057   200020 630500                    EPPR0   TERR+3,,AUTO
         2 001060   000022 631400 xsym               EPPR1   B_VECTNIL+18
         2 001061   000000 701000 xent               TSX1    MME$RVNP
         2 001062   000000 011000                    NOP     0

      335     8885    2             CALL MMB$FPPONTAIL(PPNO);

   8885  2 001063   200012 630500                    EPPR0   PPNO,,AUTO
         2 001064   200016 450500                    STP0    TERR+1,,AUTO
         2 001065   200016 630500                    EPPR0   TERR+1,,AUTO
         2 001066   000017 631400 xsym               EPPR1   B_VECTNIL+15
         2 001067   000000 701000 xent               TSX1    MMB$FPPONTAIL
         2 001070   000000 011000                    NOP     0

      336     8886    2           END;

   8886  2 001071   200006 054100                    AOS     I,,AUTO
         2 001072   200006 236100                    LDQ     I,,AUTO
         2 001073   200013 116100                    CMPQ    TEMP,,AUTO
         2 001074   001044 604000 2                  TMI     s:8884

PL6.E3A0      #001=MMV$OPEN File=MMV$VIRTUAL.:E05TSI                             WED 07/30/97 03:25 Page:47
      337     8887    2        DO I = TEMP TO MM$VCB.NPGTPGS - 1;

   8887  2 001075   200013 235100                    LDA     TEMP,,AUTO
         2 001076   200006 755100                    STA     I,,AUTO
         2 001077   001112 710000 2                  TRA     s:8889+1

      338     8888    2             CALL MMB$FPPONTAIL(SAVE_PPNO+I);

   8888  2 001100   200014 236100                    LDQ     SAVE_PPNO,,AUTO
         2 001101   200006 036100                    ADLQ    I,,AUTO
         2 001102   200016 756100                    STQ     TERR+1,,AUTO
         2 001103   200016 630500                    EPPR0   TERR+1,,AUTO
         2 001104   200017 450500                    STP0    TERR+2,,AUTO
         2 001105   200017 630500                    EPPR0   TERR+2,,AUTO
         2 001106   000017 631400 xsym               EPPR1   B_VECTNIL+15
         2 001107   000000 701000 xent               TSX1    MMB$FPPONTAIL
         2 001110   000000 011000                    NOP     0

      339     8889    2           END;

   8889  2 001111   200006 054100                    AOS     I,,AUTO
         2 001112   200010 470500                    LDP0    VCB$,,AUTO
         2 001113   200006 236100                    LDQ     I,,AUTO
         2 001114   000012 116100                    CMPQ    10,,PR0
         2 001115   001100 604000 2                  TMI     s:8888

      340     8890             %ERRSETN(CODE=ERR);

   8891  2 001116   200005 236100                    LDQ     ERR,,AUTO
         2 001117   000003 736000                    QLS     3
         2 001120   000000 276000 1                  ORQ     MMERR
         2 001121   000000 471400 xsym               LDP1    B$JIT$
         2 001122   100012 756100                    STQ     10,,PR1

      341     8893    1        ALTRETURN;

   8893  2 001123   000000 702200 xent               TSX2  ! X66_AALT
PL6.E3A0      #001=MMV$OPEN File=MMV$VIRTUAL.:E05TSI                             WED 07/30/97 03:25 Page:48

MMERR
 Sect OctLoc
   1     000   151526 400000                                                    i...

ERR_VSINUSE
 Sect OctLoc
   1     001   151526 412104                                                    i..D

ERR_VSTOBIG
 Sect OctLoc
   1     002   151526 412114                                                    i..L

ILGLSEG
 Sect OctLoc
   1     003   151526 423214                                                    i...

BRKCTY
 Sect OctLoc
   1     004   151526 412074                                                    i..<

NOVLPVIRT
 Sect OctLoc
   1     005   151526 423204                                                    i...

(unnamed)
 Sect OctLoc
   3     000   677777 777777   737777 777777   757777 777777   767777 777777    ................
   3     004   000012 006000   777777 177777                                    ........
      342     8894    1   END MMV$OPEN;
      343     8895        %EOD;

PL6.E3A0      #001=MMV$OPEN File=MMV$VIRTUAL.:E05TSI                             WED 07/30/97 03:25 Page:49
--  Include file information  --

   HF_LOCK_C.:E05TOU  cannot be made into a system file and is referenced.
   UD_SEV_C.:E05TOU  is referenced.
   S_WSPTD_R.:E05TOU  cannot be made into a system file and is referenced.
   M_ERRSET_C.:E05TOU  is referenced.
   M_ERRORS_C.:E05TOU  is referenced.
   HF_DATA_R.:E05TOU  cannot be made into a system file and is referenced.
   MM_MACRO_M.:E05TOU  is referenced.
   B_STRINGS_C.:E05TOU  is referenced.
   MM$SYSGEN.:E05TOU  is referenced.
   M_INFO_C.:E05TOU  is referenced.
   MM_DATA_R.:E05TOU  cannot be made into a system file and is referenced.
   F$DCB.:E05TOU  cannot be made into a system file and is referenced.
   F$CP6V_C.:E05TOU  is referenced.
   CP_6_SUBS.:E05TOU  is referenced.
   CP_6_C.:E05TOU  is referenced.
   CP_6.:E05TOU  cannot be made into a system file and is referenced.
   B_SEGIDS_C.:E05TOU  is referenced.
   B$MAP.:E05TOU  cannot be made into a system file and is referenced.
   B$JIT_C.:E05TOU  is referenced.
   B$JIT.:E05TOU  cannot be made into a system file and is referenced.
      No diagnostics issued in procedure MMV$OPEN.
PL6.E3A0      #001=MMV$OPEN File=MMV$VIRTUAL.:E05TSI                             WED 07/30/97 03:25 Page:50

 **** Variables and constants ****

  ****  Section 001 RoData MMV$OPEN

  ****  Scalars and arrays  ****
OctLoc.c.b A Datatyp(siz) R M Lvl/name                 OctLoc.c.b A Datatyp(siz) R M Lvl/name

     4-0-0/w STRC        r     1 BRKCTY                     1-0-0/w STRC        r     1 ERR_VSINUSE
     2-0-0/w STRC        r     1 ERR_VSTOBIG                3-0-0/w STRC        r     1 ILGLSEG
     0-0-0/b STRC        r     1 MMERR                      5-0-0/w STRC        r     1 NOVLPVIRT

  ****  Auto variables  ****

  ****  Scalars and arrays  ****
OctLoc.c.b A Datatyp(siz) R M Lvl/name                 OctLoc.c.b A Datatyp(siz) R M Lvl/name

     5-0-0/w UBIN        r     1 ERR                        3-0-0/w SBIN        r     1 EWSQ
     6-0-0/w SBIN        r     1 I                          4-0-0/w PTR         r     1 P$
    12-0-0/w UBIN        r     1 PPNO                      14-0-0/w UBIN        r     1 SAVE_PPNO
    11-0-0/b BIT (12)    r     1 SEGID                     13-0-0/w SBIN        r     1 TEMP
    15-0-0/w UBIN        r     1 TERR                      10-0-0/w PTR         r     1 VCB$
     7-0-0/w UBIN        r     1 VPPGTBL

  ****  SYMREF variables  ****

  ****  Scalars and arrays  ****
OctLoc.c.b A Datatyp(siz) R M Lvl/name                 OctLoc.c.b A Datatyp(siz) R M Lvl/name

     0-0-0/w PTR         r     1 B$JIT$                     0-0-0/w PTR         r     1 B$UPT$
     0-0-0/w PTR         r     1 B$USERLS$                  0-0-0/w PTR         r     1 B$VS1$
     0-0-0/w PTR         r     1 B$VS2$                     0-0-0/w PTR         r     1 B$VS3$
     0-0-0/w BIT         r     1 HW_FRAG_PT                 0-0-0/w BIT         r     1 HW_IMX
     0-0-0/w SBIN        r     1 HW_PTB_UNITS               0-0-0/w BIT         r     1 HW_SECT_PT
     0-0-0/w PTR         r     1 MM_BYP$                    0-0-0/b STRC        r     1 MM_FPMC
     0-0-0/w PTR         r     1 MM_PTPTRS$(0:16)
     0-0-0/w UBIN        r     1 MM_SCTDFT                  0-0-0/w STRC        r     1 S_WSPTD(0:28)

PL6.E3A0      #001=MMV$OPEN File=MMV$VIRTUAL.:E05TSI                             WED 07/30/97 03:25 Page:51
  ****  BASED and DCB variables  ****

  ****  Scalars and arrays  ****
OctLoc.c.b A Datatyp(siz) R M Lvl/name                 OctLoc.c.b A Datatyp(siz) R M Lvl/name

     0-0-0/d STRC(8856)  r     1 B$JIT                      0-0-0/w STRC        r     1 B$MAP(0:1023)
     0-0-0/w STRC        r     1 B$SECT(0:1023)             0-0-0/d ASTR(3528)  r     1 F$DCB
     0-0-0/d STRC(72)    r     1 MM$DESC(0:0)
     0-0-0/d STRC(72)    r     1 MM$SDESC(0:0)
     0-0-0/w STRC(432)   r     1 MM$VCB                     0-0-0/w STRC(288)   r     1 MM$VIRTUAL_STATS
     0-0-0/w STRC(432)   r     1 VLP$VIRTUAL


   Procedure MMV$OPEN requires 596 words for executable code.
   Procedure MMV$OPEN requires 22 words of local(AUTO) storage.
PL6.E3A0      #001=MMV$OPEN File=MMV$VIRTUAL.:E05TSI                             WED 07/30/97 03:25 Page:52
          *** CROSS REFERENCE LISTING ***
**     DENOTES     IDENTIFIER DEFINITION
<<                 IDENTIFIER'S VALUE SET
>>                 IDENTIFIER'S VALUE USED
<>                 IDENTIFIER SET AND/OR USED
--                 IDENTIFIER REFERENCED
PL6.E3A0      #001=MMV$OPEN File=MMV$VIRTUAL.:E05TSI                             WED 07/30/97 03:25 Page:53
          MINI XREF LISTING

B$JIT.CPFLAGS1.SLEAZE
       442**DCL       442--REDEF
B$JIT.DCB$
       516**DCL      8644>>ASSIGN   8646>>ASSIGN   8661>>ASSIGN   8724>>IF       8727>>IF
B$JIT.DCBNO
       429**DCL      8646<<ASSIGN   8795>>ASSIGN
B$JIT.ERR
       348**DCL      8650<<ASSIGN   8667<<ASSIGN   8716<<ASSIGN   8753<<ASSIGN   8766<<ASSIGN   8860<<ASSIGN
      8877<<ASSIGN   8891<<ASSIGN
B$JIT.ERR.MID
       349**DCL       349--REDEF
B$JIT.JRESPEAK
       510**DCL       511--REDEF
B$JIT.JUNK
       548**DCL      8659>>IF       8727>>IF
B$JIT.ORIGINATOR_PORT.FROM_CR
       619**DCL       619--REDEF     620--REDEF
B$JIT.PNR
       523**DCL       523--REDEF
B$JIT.TSLINE
       617**DCL       618--REDEF
B$JIT.VIRTUAL.DCB#
       513**DCL      8764>>IF       8795<<ASSIGN
B$JIT$
      8333**DCL       343--IMP-PTR  8644>>ASSIGN   8646>>ASSIGN   8646>>ASSIGN   8650>>ASSIGN   8659>>IF
      8661>>ASSIGN   8667>>ASSIGN   8716>>ASSIGN   8724>>IF       8727>>IF       8727>>IF       8753>>ASSIGN
      8764>>IF       8766>>ASSIGN   8795>>ASSIGN   8795>>ASSIGN   8860>>ASSIGN   8877>>ASSIGN   8891>>ASSIGN
B$MAP
       665**DCL      8823<<ASSIGN   8830<<ASSIGN   8833<<ASSIGN
B$MAP.RPN
       666**DCL      8838>>ASSIGN
B$MAP.SCTRL
PL6.E3A0      #001=MMV$OPEN File=MMV$VIRTUAL.:E05TSI                             WED 07/30/97 03:25 Page:54
       667**DCL       668--REDEF
B$SECT
       706**DCL      8816<<ASSIGN
B$SECT.PRES
       709**DCL      8817<<ASSIGN
B$SECT.PTBASE
       707**DCL      8819<<ASSIGN
B$SECT.PTBOUND
       711**DCL      8818<<ASSIGN
B$UPT$
      8338**DCL      8838>>ASSIGN
B$USERLS$
      8337**DCL      8807>>ASSIGN   8811>>ASSIGN
B$VS1$
      8339**DCL      8738>>ASSIGN
B$VS2$
      8340**DCL      8744>>ASSIGN
B$VS3$
      8341**DCL      8750>>ASSIGN
BRKCTY
      8532**DCL      8860>>ASSIGN
ERR
      8631**DCL      8780<>CALL     8784<>CALL     8791<>CALL     8877>>ASSIGN   8891>>ASSIGN
ERR_VSINUSE
      8391**DCL      8766>>ASSIGN
ERR_VSTOBIG
      8442**DCL      8667>>ASSIGN   8716>>ASSIGN
EWSQ
      8629**DCL      8735<<ASSIGN   8741<<ASSIGN   8747<<ASSIGN   8762>>ASSIGN   8763>>ASSIGN   8801>>ASSIGN
      8840>>ASSIGN   8841>>ASSIGN   8842>>ASSIGN   8843>>ASSIGN   8844>>ASSIGN   8846>>ASSIGN   8846>>ASSIGN
      8848>>ASSIGN   8851>>ASSIGN
F$DCB.ACTPOS
      7613**DCL      7613--REDEF
F$DCB.ARS
      7588**DCL      7588--REDEF
F$DCB.ATTR
PL6.E3A0      #001=MMV$OPEN File=MMV$VIRTUAL.:E05TSI                             WED 07/30/97 03:25 Page:55
      7606**DCL      7607--REDEF
F$DCB.BORROW
      7621**DCL      7621--REDEF    7621--REDEF    7621--REDEF
F$DCB.DCB#
      7615**DCL      8646>>ASSIGN
F$DCB.DCBNAME.L
      7635**DCL      7635--IMP-SIZ
F$DCB.EOMCHAR
      7592**DCL      7592--REDEF
F$DCB.FFLG.UPD
      7593**DCL      8724>>IF
F$DCB.FLDID
      7616**DCL      7616--REDEF
F$DCB.FORM$
      7610**DCL      7610--REDEF
F$DCB.FSECT
      7626**DCL      7626--REDEF
F$DCB.FSN
      7603**DCL      7603--REDEF    7603--REDEF    7604--REDEF
F$DCB.FUN
      7602**DCL      8727>>IF
F$DCB.HEADER$
      7609**DCL      7609--REDEF
F$DCB.IXTNSIZE
      7607**DCL      7607--REDEF
F$DCB.LASTSTA$
      7597**DCL      7597--REDEF    8661>>ASSIGN
F$DCB.LVL
      7622**DCL      7622--REDEF
F$DCB.NAME.C
      7597**DCL      7597--REDEF
F$DCB.NOEOF
      7618**DCL      7618--REDEF
F$DCB.NRECS
      7608**DCL      7608--REDEF
F$DCB.NRECX
PL6.E3A0      #001=MMV$OPEN File=MMV$VIRTUAL.:E05TSI                             WED 07/30/97 03:25 Page:56
      7627**DCL      7627--REDEF
F$DCB.OHDR
      7619**DCL      7619--REDEF
F$DCB.ORG
      7602**DCL      7602--REDEF
F$DCB.PRECNO
      7625**DCL      7625--REDEF
F$DCB.RCSZ
      7630**DCL      7630--REDEF
F$DCB.RES
      7598**DCL      7598--REDEF
F$DCB.SETSTA$
      7597**DCL      8644>>ASSIGN
F$DCB.SETX
      7610**DCL      7610--REDEF
F$DCB.TAB$
      7609**DCL      7610--REDEF
F$DCB.TDA
      7624**DCL      7624--REDEF
F$DCB.WSN
      7599**DCL      7599--REDEF
FPT$OPEN_V.FSN
      8357**DCL      8357--REDEF    8358--REDEF
GOFRAG
      8711**LABEL    8858--GOTO
HW_FRAG_PT
      8195**DCL      8709>>IF       8856>>IF
HW_IMX
      8198**DCL      8805>>IF       8845>>IF
HW_PTB_UNITS
      8193**DCL      8839>>ASSIGN
HW_SECT_PT
      8194**DCL      8696>>IF
I
      8632**DCL      8763<<ASSIGN   8764>>IF       8795>>ASSIGN   8815<<DOINDEX  8816>>ASSIGN   8817>>ASSIGN
      8818>>ASSIGN   8819>>ASSIGN   8821<<DOINDEX  8823>>ASSIGN   8829<<DOINDEX  8830>>ASSIGN   8831>>IF
PL6.E3A0      #001=MMV$OPEN File=MMV$VIRTUAL.:E05TSI                             WED 07/30/97 03:25 Page:57
      8833>>ASSIGN   8864<<DOINDEX  8865>>CALL     8869<<DOINDEX  8870>>CALL     8873<<DOINDEX  8874>>CALL
      8883<<DOINDEX  8884>>CALL     8887<<DOINDEX  8888>>CALL
ILGLSEG
      8487**DCL      8753>>ASSIGN
MM$DESC.BOUND
      8107**DCL      8108--REDEF
MM$DESC.FLGS
      8108**DCL      8108--REDEF
MM$DESC.FLGS1.NOTEMPTY
      8108**DCL      8807<<ASSIGN
MM$PPUT.USER#
      8096**DCL      8096--REDEF
MM$SDESC.FLGS
      8110**DCL      8811<<ASSIGN
MM$VCB.CREATE
      8098**DCL      8688<<ASSIGN   8729<<ASSIGN
MM$VCB.HEAD
      8101**DCL      8684<<ASSIGN
MM$VCB.MAXVP#
      8100**DCL      8662<<ASSIGN   8662>>ASSIGN   8665>>IF       8694>>ASSIGN
MM$VCB.MAXVP_WRITTEN
      8101**DCL      8693<<ASSIGN
MM$VCB.NPGTPGS
      8102**DCL      8694<<ASSIGN   8697>>IF       8699>>ASSIGN   8701<<ASSIGN   8701>>ASSIGN   8707>>IF
      8707>>IF       8712<<ASSIGN   8715>>IF       8782>>DOINDEX  8788>>ASSIGN   8790>>DOINDEX  8821>>DOINDEX
      8828>>ASSIGN   8842>>ASSIGN   8865>>CALL     8887>>DOINDEX
MM$VCB.NPGTSECT
      8102**DCL      8699<<ASSIGN   8701>>ASSIGN   8777>>ASSIGN   8779>>DOINDEX  8784>>CALL     8815>>DOINDEX
      8823>>ASSIGN   8841>>ASSIGN   8867>>ASSIGN   8873>>DOINDEX
MM$VCB.PPC
      8102**DCL      8686<<ASSIGN
MM$VCB.PPMAX
      8100**DCL      8676>>IF       8678<<ASSIGN   8681>>ASSIGN   8707>>IF
MM$VCB.PPMIN
      8100**DCL      8681<<ASSIGN   8681>>ASSIGN
MM$VCB.PTR$
PL6.E3A0      #001=MMV$OPEN File=MMV$VIRTUAL.:E05TSI                             WED 07/30/97 03:25 Page:58
      8100**DCL      8692<<ASSIGN
MM$VCB.SEGNUM
      8099**DCL      8732>>DOCASE
MM$VCB.T
      8098**DCL      8844>>ASSIGN
MM$VCB.T.FRAGMENTED
      8098**DCL      8689<<ASSIGN   8711<<ASSIGN   8831>>IF
MM$VCB.T.SECTION
      8099**DCL      8690<<ASSIGN   8698<<ASSIGN   8776>>IF       8814>>IF       8841>>IF       8857<<ASSIGN
MM$VCB.TAIL
      8101**DCL      8685<<ASSIGN
MM$VCB.UPGT#
      8102**DCL      8691<<ASSIGN
MM$VCB.WRITE
      8098**DCL      8687<<ASSIGN   8726<<ASSIGN
MM$VCB.WSPTD
      8100**DCL      8851<<ASSIGN
MM$VCB.WSQ
      8099**DCL      8762<<ASSIGN
MM$VIRTUAL_STATS
      8362**DCL      8661<<ASSIGN
MMB$FPPONTAIL
      8622**DCL-ENT  8871--CALL     8874--CALL     8885--CALL     8888--CALL
MMB$GNPP
      8621**DCL-ENT  8778--CALL     8789--CALL
MMB$GPP
      8620**DCL-ENT  8783--CALL
MME$GVPNOPP
      8618**DCL-ENT  8780--CALL     8784--CALL     8791--CALL
MME$RVNP
      8623**DCL-ENT  8870--CALL     8884--CALL
MME$WFVP
      8619**DCL-ENT  8865--CALL
MMERR
      8366**DCL      8877>>ASSIGN   8891>>ASSIGN
MM_BYP$
PL6.E3A0      #001=MMV$OPEN File=MMV$VIRTUAL.:E05TSI                             WED 07/30/97 03:25 Page:59
      8027**DCL      8027--IMP-PTR
MM_FPMC
      8033**DCL      8823>>ASSIGN   8833>>ASSIGN
MM_PTPTRS$
      8107**DCL      8801>>ASSIGN
MM_SCTDFT
      8033**DCL      8819>>ASSIGN
NOVLPVIRT
      8577**DCL      8650>>ASSIGN
NO_PT
      8856**LABEL    8778--CALLALT  8789--CALLALT
P$
      8630**DCL      8738<<ASSIGN   8744<<ASSIGN   8750<<ASSIGN   8798>>ASSIGN   8801<<ASSIGN   8816>>ASSIGN
      8817>>ASSIGN   8818>>ASSIGN   8819>>ASSIGN   8823>>ASSIGN   8830>>ASSIGN   8833>>ASSIGN
PPNO
      8636**DCL      8777<<ASSIGN   8778<>CALL     8780>>CALL     8783<>CALL     8784<>CALL     8788<<ASSIGN
      8789<>CALL     8791>>CALL     8870<>CALL     8871<>CALL     8874>>CALL     8882>>ASSIGN   8884<>CALL
      8885<>CALL
PT_SETUP
      8724**LABEL    8703--GOTO
REL_DENSE
      8882**LABEL    8791--CALLALT
REL_EM
      8864**LABEL    8783--CALLALT  8784--CALLALT
REL_IT
      8869**LABEL    8780--CALLALT
SAVE_PPNO
      8638**DCL      8882<<ASSIGN   8888>>CALL
SEGID
      8635**DCL      8737<<ASSIGN   8743<<ASSIGN   8749<<ASSIGN   8807>>ASSIGN   8810>>ASSIGN
S_WSPTD
      8295**DCL      8851>>ASSIGN
S_WSPTD.BLKNO
      8295**DCL      8840<<ASSIGN
S_WSPTD.NBLKS
      8295**DCL      8841<<ASSIGN   8842<<ASSIGN
PL6.E3A0      #001=MMV$OPEN File=MMV$VIRTUAL.:E05TSI                             WED 07/30/97 03:25 Page:60
S_WSPTD.P
      8295**DCL      8843<<ASSIGN
S_WSPTD.Q
      8295**DCL      8846<<ASSIGN   8848<<ASSIGN
S_WSPTD.T
      8295**DCL      8844<<ASSIGN
TEMP
      8637**DCL      8779<<DOINDEX  8780>>CALL     8780>>CALL     8782<<DOINDEX  8784>>CALL     8790<<DOINDEX
      8791>>CALL     8791>>CALL     8810<<ASSIGN   8811>>ASSIGN   8822<<DOINDEX  8823>>ASSIGN   8828<<ASSIGN
      8829>>DOINDEX  8838<<ASSIGN   8839<<ASSIGN   8839>>ASSIGN   8840>>ASSIGN   8864>>DOINDEX  8867<<ASSIGN
      8869>>DOINDEX  8873>>DOINDEX  8883>>DOINDEX  8884<>CALL     8887>>DOINDEX
TERR
      8639**DCL      8865<>CALL     8870<>CALL
VCB$
      8634**DCL      8644<<ASSIGN   8648>>IF       8662>>ASSIGN   8662>>ASSIGN   8665>>IF       8676>>IF
      8678>>ASSIGN   8681>>ASSIGN   8681>>ASSIGN   8681>>ASSIGN   8684>>ASSIGN   8685>>ASSIGN   8686>>ASSIGN
      8687>>ASSIGN   8688>>ASSIGN   8689>>ASSIGN   8690>>ASSIGN   8691>>ASSIGN   8692>>ASSIGN   8693>>ASSIGN
      8694>>ASSIGN   8694>>ASSIGN   8697>>IF       8698>>ASSIGN   8699>>ASSIGN   8699>>ASSIGN   8701>>ASSIGN
      8701>>ASSIGN   8701>>ASSIGN   8707>>IF       8707>>IF       8707>>IF       8711>>ASSIGN   8712>>ASSIGN
      8715>>IF       8726>>ASSIGN   8729>>ASSIGN   8732>>DOCASE   8762>>ASSIGN   8776>>IF       8777>>ASSIGN
      8779>>DOINDEX  8782>>DOINDEX  8784>>CALL     8788>>ASSIGN   8790>>DOINDEX  8798>>ASSIGN   8814>>IF
      8815>>DOINDEX  8821>>DOINDEX  8823>>ASSIGN   8828>>ASSIGN   8831>>IF       8841>>IF       8841>>ASSIGN
      8842>>ASSIGN   8844>>ASSIGN   8851>>ASSIGN   8857>>ASSIGN   8865>>CALL     8867>>ASSIGN   8873>>DOINDEX
      8887>>DOINDEX
VLP$VIRTUAL.PTR$
      8612**DCL      8798<<ASSIGN
VPPGTBL
      8633**DCL      8736<<ASSIGN   8742<<ASSIGN   8748<<ASSIGN   8780>>CALL     8784>>CALL     8791>>CALL
      8838>>ASSIGN   8865>>CALL     8870>>CALL     8884>>CALL

