PL6.E3A0      #003=MMV$VIRTUAL File=MMV$VIRTUAL.:E05TSI                          WED 07/30/97 03:28 Page:285
     1620        1        /*T***********************************************************/
     1621        2        /*T*                                                         */
     1622        3        /*T* Copyright (c) Bull HN Information Systems Inc., 1997    */
     1623        4        /*T*                                                         */
     1624        5        /*T***********************************************************/
     1625        6        MMV$VIRTUAL: PROC;
     1626        7
     1627        8        /*
     1628        9             This routine handles all the functions for the M$VIRTUAL pmme.
     1629       10         */
     1630       11
     1631       12        %INCLUDE B$JIT;
     1632      615        %INCLUDE B_ERRORS_C;
     1633     1742        %INCLUDE CP_6_C;
     1634     7221        %INCLUDE CP_6_SUBS;
     1635     7761        %INCLUDE F$DCB;
     1636     7810        %INCLUDE MM$CP6V_C;
     1637     7878        %INCLUDE MM_DATA_R;
     1638     8398        %INCLUDE UD_SEV_C;
     1639     8412
     1640     8413        /* Symrefs */
     1641     8414    1   DCL B$JIT$ PTR SYMREF;
     1642     8415    1   DCL B$PS0$ PTR SYMREF;
     1643     8416    1   DCL B$PS1$ PTR SYMREF;
     1644     8417    1   DCL B$PS2$ PTR SYMREF;
     1645     8418
     1646     8419        /* Auto */
     1647     8420    1   DCL STATS$ PTR;
     1648     8421    1   DCL DCB# UBIN;
     1649     8422    1   DCL VCB$ PTR;
     1650     8423    1   DCL MAXVP SBIN;
     1651     8424    1   DCL WSQ UBIN;
     1652     8425
     1653     8426        /* Macro invocations */
     1654     8427        %FPT$VIRTUAL_V (BASED="BASED(B$PS0$)");
     1655     8430        %VLP_VIRTUAL (FPTN=VLP$VIRTUAL,STCLASS=BASED);
     1656     8450        %MM$VIRTUAL_STATS(STCLASS="BASED(STATS$)");
PL6.E3A0      #003=MMV$VIRTUAL File=MMV$VIRTUAL.:E05TSI                          WED 07/30/97 03:28 Page:286
     1657     8454
     1658     8455        /* Entry references */
     1659     8456    1   DCL FMP$CLSJ ENTRY;
     1660     8457    1   DCL HFF$NILERASE ENTRY(1) ALTRET;
     1661     8458    1   DCL MMV$CLOSE ENTRY ALTRET;
     1662     8459    1   DCL MMV$OPEN ENTRY ALTRET;
     1663     8460    1   DCL MMV$TRUNC ENTRY(1) ALTRET;
     1664     8461
     1665     8462        /* Error code */
     1666     8463        %VLP_ERRCODE (FPTN=VSNOTOPEN,ERR#=%E$VSNOTOPEN,SEV=SEV_ERROR#,FCG=MM,MID=V,MON='1'B,
              8463            STCLASS=CONSTANT);
     1667     8508
     1668     8509        %EJECT;
PL6.E3A0      #003=MMV$VIRTUAL File=MMV$VIRTUAL.:E05TSI                          WED 07/30/97 03:28 Page:287
     1669     8510
     1670     8511        /* Get the DCB# for this segment */
     1671     8512    1        DCB# = 0;
     1672     8513    2        DO CASE (FPT$VIRTUAL_V.SEGNUM);
     1673     8514
     1674     8515    2        CASE(1);                           /* VS1 */
     1675     8516    2           DCB# = B$JIT.VIRTUAL.DCB#(0);
     1676     8517
     1677     8518    2        CASE(2);
     1678     8519    2           DCB# = B$JIT.VIRTUAL.DCB#(1);
     1679     8520
     1680     8521    2        CASE(3);
     1681     8522    2           DCB# = B$JIT.VIRTUAL.DCB#(2);
     1682     8523    2        END;
     1683     8524
     1684     8525    1        IF DCB# = 0
     1685     8526    2        THEN DO;
     1686     8527    2             B$JIT.ERR = VSNOTOPEN;
     1687     8528                  /*E* ERROR: MMV-E$VSNOTOPEN
     1688     8529                       MESSAGE: The virtual segment specified is not open */
     1689     8530    2             RETURN;
     1690     8531    2           END;
     1691     8532
     1692     8533    1        B$JIT.DCB$ = DCBADDR(DCB#);
     1693     8534    1        STATS$ = B$JIT.DCB$->F$DCB.LASTSTA$;
     1694     8535    1        VCB$ = B$JIT.DCB$->F$DCB.SETSTA$;
     1695     8536
     1696     8537    1        CALL HFF$NILERASE(B$PS1$)          /* Virtual was specified on the FPT */
     1697     8538    2        WHENRETURN DO;
     1698     8539    2             VCB$->MM$VCB.INITIALIZE = B$PS1$->VLP$VIRTUAL.INITIALIZE#;
     1699     8540    2             VCB$->MM$VCB.INITVALUE = B$PS1$->VLP$VIRTUAL.INITVALUE#;
     1700     8541    2             VCB$->MM$VCB.PPMIN = B$PS2$->VLP$VIRTUAL.MINPHYS#;
     1701     8542    2             VCB$->MM$VCB.PPMAX = B$PS2$->VLP$VIRTUAL.PHYSICAL#;
     1702     8543    2             MAXVP = (B$PS1$->VLP$VIRTUAL.SEGSIZE#-1)/1024;
     1703     8544
     1704     8545        /* If the size of the segment has changed, close and reopen it */
     1705     8546    2             IF MAXVP ~= VCB$->MM$VCB.MAXVP#
PL6.E3A0      #003=MMV$VIRTUAL File=MMV$VIRTUAL.:E05TSI                          WED 07/30/97 03:28 Page:288
     1706     8547    3             THEN DO;
     1707     8548    3                  VCB$->MM$VCB.MAXVP# = B$PS1$->VLP$VIRTUAL.SEGSIZE#;
     1708     8549    3                  CALL MMV$CLOSE;
     1709     8550    3                  CALL MMV$OPEN
     1710     8551    4                  WHENALTRETURN DO;
     1711     8552    4                       CALL FMP$CLSJ;
     1712     8553    4                       RETURN;
     1713     8554    4                     END;
     1714     8555    3                END;
     1715     8556
     1716     8557        /* If the current physical page count is larger than PPMAX call trunc */
     1717     8558    2             IF VCB$->MM$VCB.PPC > VCB$->MM$VCB.PPMAX
     1718     8559    3             THEN DO;
     1719     8560    3                  WSQ = VCB$->MM$VCB.WSQ;
     1720     8561    3                  CALL MMV$TRUNC(WSQ);
     1721     8562    3                END;
     1722     8563    2           END;
     1723     8564
     1724     8565        /*
     1725     8566             If the user is requesting current information return it */
     1726     8567
     1727     8568    1        CALL HFF$NILERASE(B$PS2$)
     1728     8569    2        WHENRETURN DO;
     1729     8570    2             B$PS2$->VLP$VIRTUAL = VCB$->MM$VCB;
     1730     8571    2             B$PS2$->VLP$VIRTUAL.READS# = MM$VIRTUAL_STATS.READS#;
     1731     8572    2             B$PS2$->VLP$VIRTUAL.WRITES# = MM$VIRTUAL_STATS.WRITES#;
     1732     8573    2             B$PS2$->VLP$VIRTUAL.TRUNCS# = MM$VIRTUAL_STATS.TRUNCS#;
     1733     8574    2             B$PS2$->VLP$VIRTUAL.FAULTS# = MM$VIRTUAL_STATS.FAULTS#;
     1734     8575    2             B$PS2$->VLP$VIRTUAL.MAXPGS# = MM$VIRTUAL_STATS.MAXPGS#;
     1735     8576    2             B$PS2$->VLP$VIRTUAL.CURPGS# = VCB$->MM$VCB.PPC;
     1736     8577    2           END;
     1737     8578
     1738     8579    1        RETURN;
     1739     8580    1   END MMV$VIRTUAL;

PL6.E3A0      #003=MMV$VIRTUAL File=MMV$VIRTUAL.:E05TSI                          WED 07/30/97 03:28 Page:289
--  Include file information  --

   UD_SEV_C.:E05TOU  is referenced.
   MM_MACRO_M.:E05TOU  is referenced.
   B_STRINGS_C.:E05TOU  is referenced.
   MM$SYSGEN.:E05TOU  is referenced.
   M_INFO_C.:E05TOU  is referenced.
   MM_DATA_R.:E05TOU  cannot be made into a system file and is referenced.
   MM$CP6V_C.:E05TOU  is referenced.
   F$DCB.:E05TOU  cannot be made into a system file and is referenced.
   CP_6_SUBS.:E05TOU  is referenced.
   CP_6_C.:E05TOU  is referenced.
   B_ERRORS_C.:E05TOU  is referenced.
   B$JIT_C.:E05TOU  is referenced.
   B$JIT.:E05TOU  cannot be made into a system file and is referenced.
      No diagnostics issued in procedure MMV$VIRTUAL.

   Procedure MMV$VIRTUAL requires 121 words for executable code.
   Procedure MMV$VIRTUAL requires 10 words of local(AUTO) storage.

    No errors detected in file MMV$VIRTUAL.:E05TSI    .

PL6.E3A0      #003=MMV$VIRTUAL File=MMV$VIRTUAL.:E05TSI                          WED 07/30/97 03:28 Page:290

 Object Unit name= MMV$VIRTUAL                                File name= MMV$VIRTUAL.:E05TOU
 UTS= JUL 30 '97 03:28:34.68 WED                              Compiler= PL-6/E31         Sev=      00
 SharedLib= :SHARED_SYSTEM                                    Alt SharedLib=


    ****  Control sections  ****

 Sect   Type Bound  Init  Size OctSiz  Section name(segment info)
    0  RoData even  UTS      1      1  MMV$VIRTUAL
    1   Proc  even  none   121    171  MMV$VIRTUAL
    2  RoData even  none     3      3  MMV$VIRTUAL

    ****  Entry defs  ****

                              Check   Calling
                             calling  sequence
  Sect OctLoc Primary Altret sequence   type   Parms  Name
     1      0   yes            yes      Std        0  MMV$VIRTUAL

  ****  Entry refs  ****

         Check        Calling
        calling       sequence
Altret sequence SRef   type   Args  Name
 yes     yes           Std       1 HFF$NILERASE
 yes     yes           Std       0 MMV$CLOSE
         yes           Std       0 FMP$CLSJ
 yes     yes           Std       0 MMV$OPEN
 yes     yes           Std       1 MMV$TRUNC
                       nStd      0 X66_AUTO_0
                       nStd      0 X66_ARET
                       Std       0 B_CONSPOOL_D
PL6.E3A0      #003=MMV$VIRTUAL File=MMV$VIRTUAL.:E05TSI                          WED 07/30/97 03:28 Page:291

  ****  Data refs  ****

  Flags:  r = read only, s = secondary
Flgs Name                             Flgs Name                             Flgs Name
r    MM_BYP$                               B$JIT$                                B$PS0$
     B$PS1$                                B$PS2$                                B_VECTNIL

  ****  Segment refs  ****

  Flags:  r = read only, s = secondary
Flgs Name                             Flgs Name                             Flgs Name
     ROSID                                 ISSID
PL6.E3A0      #003=MMV$VIRTUAL File=MMV$VIRTUAL.:E05TSI                          WED 07/30/97 03:28 Page:292


     1620        1        /*T***********************************************************/
     1621        2        /*T*                                                         */
     1622        3        /*T* Copyright (c) Bull HN Information Systems Inc., 1997    */
     1623        4        /*T*                                                         */
     1624        5        /*T***********************************************************/
     1625        6        MMV$VIRTUAL: PROC;

      6  1 000000   000000 700200 xent  MMV$VIRTUAL  TSX0  ! X66_AUTO_0
         1 000001   000012 000000                    ZERO    10,0

     1626        7
     1627        8        /*
     1628        9             This routine handles all the functions for the M$VIRTUAL pmme.
     1629       10         */
     1630       11
     1631       12        %INCLUDE B$JIT;
     1632      615        %INCLUDE B_ERRORS_C;
     1633     1742        %INCLUDE CP_6_C;
     1634     7221        %INCLUDE CP_6_SUBS;
     1635     7761        %INCLUDE F$DCB;
     1636     7810        %INCLUDE MM$CP6V_C;
     1637     7878        %INCLUDE MM_DATA_R;
     1638     8398        %INCLUDE UD_SEV_C;
     1639     8412
     1640     8413        /* Symrefs */
     1641     8414    1   DCL B$JIT$ PTR SYMREF;
     1642     8415    1   DCL B$PS0$ PTR SYMREF;
     1643     8416    1   DCL B$PS1$ PTR SYMREF;
     1644     8417    1   DCL B$PS2$ PTR SYMREF;
     1645     8418
     1646     8419        /* Auto */
     1647     8420    1   DCL STATS$ PTR;
     1648     8421    1   DCL DCB# UBIN;
     1649     8422    1   DCL VCB$ PTR;
     1650     8423    1   DCL MAXVP SBIN;
     1651     8424    1   DCL WSQ UBIN;
PL6.E3A0      #003=MMV$VIRTUAL File=MMV$VIRTUAL.:E05TSI                          WED 07/30/97 03:28 Page:293
     1652     8425
     1653     8426        /* Macro invocations */
     1654     8427        %FPT$VIRTUAL_V (BASED="BASED(B$PS0$)");
     1655     8430        %VLP_VIRTUAL (FPTN=VLP$VIRTUAL,STCLASS=BASED);
     1656     8450        %MM$VIRTUAL_STATS(STCLASS="BASED(STATS$)");
     1657     8454
     1658     8455        /* Entry references */
     1659     8456    1   DCL FMP$CLSJ ENTRY;
     1660     8457    1   DCL HFF$NILERASE ENTRY(1) ALTRET;
     1661     8458    1   DCL MMV$CLOSE ENTRY ALTRET;
     1662     8459    1   DCL MMV$OPEN ENTRY ALTRET;
     1663     8460    1   DCL MMV$TRUNC ENTRY(1) ALTRET;
     1664     8461
     1665     8462        /* Error code */
     1666     8463       %VLP_ERRCODE (FPTN=VSNOTOPEN,ERR#=%E$VSNOTOPEN,SEV=SEV_ERROR#,FCG=MM,MID=V,MON='1'B,
              8463            STCLASS=CONSTANT);
     1667     8508
     1668     8509        %EJECT;
PL6.E3A0      #003=MMV$VIRTUAL File=MMV$VIRTUAL.:E05TSI                          WED 07/30/97 03:28 Page:294
     1669     8510
     1670     8511        /* Get the DCB# for this segment */
     1671     8512    1        DCB# = 0;

   8512  1 000002   200004 450100                    STZ     DCB#,,AUTO

     1672     8513    2        DO CASE (FPT$VIRTUAL_V.SEGNUM);

   8513  1 000003   000000 470400 xsym               LDP0    B$PS0$
         1 000004   000000 236100                    LDQ     0,,PR0
         1 000005   000033 772000                    QRL     27
         1 000006   000004 116007                    CMPQ    4,DL
         1 000007   000011 602006 1                  TNC     s:8513+6,QL
         1 000010   000035 710000 1                  TRA     s:8525
         1 000011   000035 710000 1                  TRA     s:8525
         1 000012   000015 710000 1                  TRA     s:8516
         1 000013   000022 710000 1                  TRA     s:8519
         1 000014   000030 710000 1                  TRA     s:8522

     1673     8514
     1674     8515    2        CASE(1);                           /* VS1 */

     1675     8516    2           DCB# = B$JIT.VIRTUAL.DCB#(0);

   8516  1 000015   000000 471400 xsym               LDP1    B$JIT$
         1 000016   100217 236100                    LDQ     143,,PR1
         1 000017   000033 772000                    QRL     27
         1 000020   200004 756100                    STQ     DCB#,,AUTO
         1 000021   000035 710000 1                  TRA     s:8525

     1676     8517
     1677     8518    2        CASE(2);

     1678     8519    2           DCB# = B$JIT.VIRTUAL.DCB#(1);

   8519  1 000022   000000 471400 xsym               LDP1    B$JIT$
         1 000023   100217 236100                    LDQ     143,,PR1
PL6.E3A0      #003=MMV$VIRTUAL File=MMV$VIRTUAL.:E05TSI                          WED 07/30/97 03:28 Page:295
         1 000024   000022 772000                    QRL     18
         1 000025   000777 376007                    ANQ     511,DL
         1 000026   200004 756100                    STQ     DCB#,,AUTO
         1 000027   000035 710000 1                  TRA     s:8525

     1679     8520
     1680     8521    2        CASE(3);

     1681     8522    2           DCB# = B$JIT.VIRTUAL.DCB#(2);

   8522  1 000030   000000 471400 xsym               LDP1    B$JIT$
         1 000031   100217 236100                    LDQ     143,,PR1
         1 000032   000011 772000                    QRL     9
         1 000033   000777 376007                    ANQ     511,DL
         1 000034   200004 756100                    STQ     DCB#,,AUTO

     1682     8523    2        END;

     1683     8524
     1684     8525    1        IF DCB# = 0

   8525  1 000035   200004 235100                    LDA     DCB#,,AUTO
         1 000036   000043 601000 1                  TNZ     s:8533

     1685     8526    2        THEN DO;

     1686     8527    2             B$JIT.ERR = VSNOTOPEN;

   8527  1 000037   000000 236000 0                  LDQ     VSNOTOPEN
         1 000040   000000 471400 xsym               LDP1    B$JIT$
         1 000041   100012 756100                    STQ     10,,PR1

     1687     8528                  /*E* ERROR: MMV-E$VSNOTOPEN
     1688     8529                       MESSAGE: The virtual segment specified is not open */
     1689     8530    2             RETURN;

   8530  1 000042   000000 702200 xent               TSX2  ! X66_ARET
PL6.E3A0      #003=MMV$VIRTUAL File=MMV$VIRTUAL.:E05TSI                          WED 07/30/97 03:28 Page:296

     1690     8531    2           END;
     1691     8532
     1692     8533    1        B$JIT.DCB$ = DCBADDR(DCB#);

   8533  1 000043   000000 471400 2                  LDP1    0
         1 000044   100000 473500                    LDP3    0,,PR1
         1 000045   300000 236105                    LDQ     0,AL,PR3
         1 000046   000000 474400 xsym               LDP4    B$JIT$
         1 000047   400232 756100                    STQ     154,,PR4

     1693     8534    1        STATS$ = B$JIT.DCB$->F$DCB.LASTSTA$;

   8534  1 000050   400232 475500                    LDP5    154,,PR4
         1 000051   500007 236100                    LDQ     7,,PR5
         1 000052   200003 756100                    STQ     STATS$,,AUTO

     1694     8535    1        VCB$ = B$JIT.DCB$->F$DCB.SETSTA$;

   8535  1 000053   500006 236100                    LDQ     6,,PR5
         1 000054   200005 756100                    STQ     VCB$,,AUTO

     1695     8536
     1696     8537    1        CALL HFF$NILERASE(B$PS1$)          /* Virtual was specified on the FPT */

   8537  1 000055   000001 630400 2                  EPPR0   1
         1 000056   000017 631400 xsym               EPPR1   B_VECTNIL+15
         1 000057   000000 701000 xent               TSX1    HFF$NILERASE
         1 000060   000140 702000 1                  TSX2    s:8568

     1697     8538    2        WHENRETURN DO;

     1698     8539    2             VCB$->MM$VCB.INITIALIZE = B$PS1$->VLP$VIRTUAL.INITIALIZE#;

   8539  1 000061   200005 470500                    LDP0    VCB$,,AUTO
         1 000062   000000 471400 xsym               LDP1    B$PS1$
         1 000063   100000 236100                    LDQ     0,,PR1
PL6.E3A0      #003=MMV$VIRTUAL File=MMV$VIRTUAL.:E05TSI                          WED 07/30/97 03:28 Page:297
         1 000064   000000 676100                    ERQ     0,,PR0
         1 000065   400000 376003                    ANQ     -131072,DU
         1 000066   000000 656100                    ERSQ    0,,PR0

     1699     8540    2             VCB$->MM$VCB.INITVALUE = B$PS1$->VLP$VIRTUAL.INITVALUE#;

   8540  1 000067   000000 471400 xsym               LDP1    B$PS1$
         1 000070   100001 235100                    LDA     1,,PR1
         1 000071   000001 755100                    STA     1,,PR0

     1700     8541    2             VCB$->MM$VCB.PPMIN = B$PS2$->VLP$VIRTUAL.MINPHYS#;

   8541  1 000072   000000 473400 xsym               LDP3    B$PS2$
         1 000073   300003 720100                    LXL0    3,,PR3
         1 000074   000003 440100                    SXL0    3,,PR0

     1701     8542    2             VCB$->MM$VCB.PPMAX = B$PS2$->VLP$VIRTUAL.PHYSICAL#;

   8542  1 000075   300003 221100                    LDX1    3,,PR3
         1 000076   000003 741100                    STX1    3,,PR0

     1702     8543    2             MAXVP = (B$PS1$->VLP$VIRTUAL.SEGSIZE#-1)/1024;

   8543  1 000077   100002 236100                    LDQ     2,,PR1
         1 000100   000001 136007                    SBLQ    1,DL
         1 000101   002000 506007                    DIV     1024,DL
         1 000102   200006 756100                    STQ     MAXVP,,AUTO

     1703     8544
     1704     8545        /* If the size of the segment has changed, close and reopen it */
     1705     8546    2             IF MAXVP ~= VCB$->MM$VCB.MAXVP#

   8546  1 000103   000002 116100                    CMPQ    2,,PR0
         1 000104   000122 600000 1                  TZE     s:8558

     1706     8547    3             THEN DO;

PL6.E3A0      #003=MMV$VIRTUAL File=MMV$VIRTUAL.:E05TSI                          WED 07/30/97 03:28 Page:298
     1707     8548    3                  VCB$->MM$VCB.MAXVP# = B$PS1$->VLP$VIRTUAL.SEGSIZE#;

   8548  1 000105   100002 235100                    LDA     2,,PR1
         1 000106   000002 755100                    STA     2,,PR0

     1708     8549    3                  CALL MMV$CLOSE;

   8549  1 000107   000002 631400 xsym               EPPR1   B_VECTNIL+2
         1 000110   000000 701000 xent               TSX1    MMV$CLOSE
         1 000111   000000 011000                    NOP     0

     1709     8550    3                  CALL MMV$OPEN

   8550  1 000112   000002 631400 xsym               EPPR1   B_VECTNIL+2
         1 000113   000000 701000 xent               TSX1    MMV$OPEN
         1 000114   000116 702000 1                  TSX2    s:8552
         1 000115   000122 710000 1                  TRA     s:8558

     1710     8551    4                  WHENALTRETURN DO;

     1711     8552    4                       CALL FMP$CLSJ;

   8552  1 000116   000002 631400 xsym               EPPR1   B_VECTNIL+2
         1 000117   000000 701000 xent               TSX1    FMP$CLSJ
         1 000120   000000 011000                    NOP     0

     1712     8553    4                       RETURN;

   8553  1 000121   000000 702200 xent               TSX2  ! X66_ARET

     1713     8554    4                     END;
     1714     8555    3                END;

     1715     8556
     1716     8557        /* If the current physical page count is larger than PPMAX call trunc */
     1717     8558    2             IF VCB$->MM$VCB.PPC > VCB$->MM$VCB.PPMAX

PL6.E3A0      #003=MMV$VIRTUAL File=MMV$VIRTUAL.:E05TSI                          WED 07/30/97 03:28 Page:299
   8558  1 000122   200005 470500                    LDP0    VCB$,,AUTO
         1 000123   000003 220100                    LDX0    3,,PR0
         1 000124   000011 100100                    CMPX0   9,,PR0
         1 000125   000140 603000 1                  TRC     s:8568

     1718     8559    3             THEN DO;

     1719     8560    3                  WSQ = VCB$->MM$VCB.WSQ;

   8560  1 000126   000000 236100                    LDQ     0,,PR0
         1 000127   000022 772000                    QRL     18
         1 000130   000777 376007                    ANQ     511,DL
         1 000131   200007 756100                    STQ     WSQ,,AUTO

     1720     8561    3                  CALL MMV$TRUNC(WSQ);

   8561  1 000132   200007 631500                    EPPR1   WSQ,,AUTO
         1 000133   200010 451500                    STP1    WSQ+1,,AUTO
         1 000134   200010 630500                    EPPR0   WSQ+1,,AUTO
         1 000135   000017 631400 xsym               EPPR1   B_VECTNIL+15
         1 000136   000000 701000 xent               TSX1    MMV$TRUNC
         1 000137   000000 011000                    NOP     0

     1721     8562    3                END;

     1722     8563    2           END;

     1723     8564
     1724     8565        /*
     1725     8566             If the user is requesting current information return it */
     1726     8567
     1727     8568    1        CALL HFF$NILERASE(B$PS2$)

   8568  1 000140   000002 630400 2                  EPPR0   2
         1 000141   000017 631400 xsym               EPPR1   B_VECTNIL+15
         1 000142   000000 701000 xent               TSX1    HFF$NILERASE
         1 000143   000170 702000 1                  TSX2    s:8579
PL6.E3A0      #003=MMV$VIRTUAL File=MMV$VIRTUAL.:E05TSI                          WED 07/30/97 03:28 Page:300

     1728     8569    2        WHENRETURN DO;

     1729     8570    2             B$PS2$->VLP$VIRTUAL = VCB$->MM$VCB;

   8570  1 000144   200005 470500                    LDP0    VCB$,,AUTO
         1 000145   000000 471400 xsym               LDP1    B$PS2$
         1 000146   000100 100500                    MLR     fill='000'O
         1 000147   000000 000060                    ADSC9   0,,PR0                   cn=0,n=48
         1 000150   100000 000060                    ADSC9   0,,PR1                   cn=0,n=48

     1730     8571    2             B$PS2$->VLP$VIRTUAL.READS# = MM$VIRTUAL_STATS.READS#;

   8571  1 000151   200003 471500                    LDP1    STATS$,,AUTO
         1 000152   000000 473400 xsym               LDP3    B$PS2$
         1 000153   100000 235100                    LDA     0,,PR1
         1 000154   300005 755100                    STA     5,,PR3

     1731     8572    2             B$PS2$->VLP$VIRTUAL.WRITES# = MM$VIRTUAL_STATS.WRITES#;

   8572  1 000155   100001 235100                    LDA     1,,PR1
         1 000156   300006 755100                    STA     6,,PR3

     1732     8573    2             B$PS2$->VLP$VIRTUAL.TRUNCS# = MM$VIRTUAL_STATS.TRUNCS#;

   8573  1 000157   100004 235100                    LDA     4,,PR1
         1 000160   300012 755100                    STA     10,,PR3

     1733     8574    2             B$PS2$->VLP$VIRTUAL.FAULTS# = MM$VIRTUAL_STATS.FAULTS#;

   8574  1 000161   100002 235100                    LDA     2,,PR1
         1 000162   300007 755100                    STA     7,,PR3

     1734     8575    2             B$PS2$->VLP$VIRTUAL.MAXPGS# = MM$VIRTUAL_STATS.MAXPGS#;

   8575  1 000163   100003 235100                    LDA     3,,PR1
         1 000164   300011 755100                    STA     9,,PR3
PL6.E3A0      #003=MMV$VIRTUAL File=MMV$VIRTUAL.:E05TSI                          WED 07/30/97 03:28 Page:301

     1735     8576    2             B$PS2$->VLP$VIRTUAL.CURPGS# = VCB$->MM$VCB.PPC;

   8576  1 000165   000011 236100                    LDQ     9,,PR0
         1 000166   000022 772000                    QRL     18
         1 000167   300010 756100                    STQ     8,,PR3

     1736     8577    2           END;

     1737     8578
     1738     8579    1        RETURN;

   8579  1 000170   000000 702200 xent               TSX2  ! X66_ARET

VSNOTOPEN
 Sect OctLoc
   0     000   151526 423264                                                    i...

(unnamed)
 Sect OctLoc
   2     000   000000 006003   000000 006000   000000 006000                    ............
     1739     8580    1   END MMV$VIRTUAL;

PL6.E3A0      #003=MMV$VIRTUAL File=MMV$VIRTUAL.:E05TSI                          WED 07/30/97 03:28 Page:302
--  Include file information  --

   UD_SEV_C.:E05TOU  is referenced.
   MM_MACRO_M.:E05TOU  is referenced.
   B_STRINGS_C.:E05TOU  is referenced.
   MM$SYSGEN.:E05TOU  is referenced.
   M_INFO_C.:E05TOU  is referenced.
   MM_DATA_R.:E05TOU  cannot be made into a system file and is referenced.
   MM$CP6V_C.:E05TOU  is referenced.
   F$DCB.:E05TOU  cannot be made into a system file and is referenced.
   CP_6_SUBS.:E05TOU  is referenced.
   CP_6_C.:E05TOU  is referenced.
   B_ERRORS_C.:E05TOU  is referenced.
   B$JIT_C.:E05TOU  is referenced.
   B$JIT.:E05TOU  cannot be made into a system file and is referenced.
      No diagnostics issued in procedure MMV$VIRTUAL.
PL6.E3A0      #003=MMV$VIRTUAL File=MMV$VIRTUAL.:E05TSI                          WED 07/30/97 03:28 Page:303

 **** Variables and constants ****

  ****  Section 000 RoData MMV$VIRTUAL

  ****  Scalars and arrays  ****
OctLoc.c.b A Datatyp(siz) R M Lvl/name                 OctLoc.c.b A Datatyp(siz) R M Lvl/name

     0-0-0/w STRC        r     1 VSNOTOPEN

  ****  Auto variables  ****

  ****  Scalars and arrays  ****
OctLoc.c.b A Datatyp(siz) R M Lvl/name                 OctLoc.c.b A Datatyp(siz) R M Lvl/name

     4-0-0/w UBIN        r     1 DCB#                       6-0-0/w SBIN        r     1 MAXVP
     3-0-0/w PTR         r     1 STATS$                     5-0-0/w PTR         r     1 VCB$
     7-0-0/w UBIN        r     1 WSQ

  ****  SYMREF variables  ****

  ****  Scalars and arrays  ****
OctLoc.c.b A Datatyp(siz) R M Lvl/name                 OctLoc.c.b A Datatyp(siz) R M Lvl/name

     0-0-0/w PTR         r     1 B$JIT$                     0-0-0/w PTR         r     1 B$PS0$
     0-0-0/w PTR         r     1 B$PS1$                     0-0-0/w PTR         r     1 B$PS2$
     0-0-0/w PTR         r     1 MM_BYP$

  ****  BASED and DCB variables  ****

  ****  Scalars and arrays  ****
OctLoc.c.b A Datatyp(siz) R M Lvl/name                 OctLoc.c.b A Datatyp(siz) R M Lvl/name

     0-0-0/d STRC(8856)  r     1 B$JIT                      0-0-0/d ASTR(3528)  r     1 F$DCB
     0-0-0/d STRC(72)    r     1 FPT$VIRTUAL_V              0-0-0/w STRC(432)   r     1 MM$VCB
     0-0-0/w STRC(288)   r     1 MM$VIRTUAL_STATS           0-0-0/w STRC(432)   r     1 VLP$VIRTUAL

PL6.E3A0      #003=MMV$VIRTUAL File=MMV$VIRTUAL.:E05TSI                          WED 07/30/97 03:28 Page:304

   Procedure MMV$VIRTUAL requires 121 words for executable code.
   Procedure MMV$VIRTUAL requires 10 words of local(AUTO) storage.

    No errors detected in file MMV$VIRTUAL.:E05TSI    .
PL6.E3A0      #003=MMV$VIRTUAL File=MMV$VIRTUAL.:E05TSI                          WED 07/30/97 03:28 Page:305
          *** CROSS REFERENCE LISTING ***
**     DENOTES     IDENTIFIER DEFINITION
<<                 IDENTIFIER'S VALUE SET
>>                 IDENTIFIER'S VALUE USED
<>                 IDENTIFIER SET AND/OR USED
--                 IDENTIFIER REFERENCED
PL6.E3A0      #003=MMV$VIRTUAL File=MMV$VIRTUAL.:E05TSI                          WED 07/30/97 03:28 Page:306
          MINI XREF LISTING

B$JIT.CPFLAGS1.SLEAZE
       433**DCL       433--REDEF
B$JIT.DCB$
       507**DCL      8533<<ASSIGN   8534>>ASSIGN   8535>>ASSIGN
B$JIT.ERR
       339**DCL      8527<<ASSIGN
B$JIT.ERR.MID
       340**DCL       340--REDEF
B$JIT.JRESPEAK
       501**DCL       502--REDEF
B$JIT.ORIGINATOR_PORT.FROM_CR
       610**DCL       610--REDEF     611--REDEF
B$JIT.PNR
       514**DCL       514--REDEF
B$JIT.TSLINE
       608**DCL       609--REDEF
B$JIT.VIRTUAL.DCB#
       504**DCL      8516>>ASSIGN   8519>>ASSIGN   8522>>ASSIGN
B$JIT$
      8414**DCL       334--IMP-PTR  8516>>ASSIGN   8519>>ASSIGN   8522>>ASSIGN   8527>>ASSIGN   8533>>ASSIGN
      8534>>ASSIGN   8535>>ASSIGN
B$PS0$
      8415**DCL      8428--IMP-PTR  8513>>DOCASE
B$PS1$
      8416**DCL      8537<>CALL     8539>>ASSIGN   8540>>ASSIGN   8543>>ASSIGN   8548>>ASSIGN
B$PS2$
      8417**DCL      8541>>ASSIGN   8542>>ASSIGN   8568<>CALL     8570>>ASSIGN   8571>>ASSIGN   8572>>ASSIGN
      8573>>ASSIGN   8574>>ASSIGN   8575>>ASSIGN   8576>>ASSIGN
DCB#
      8421**DCL      8512<<ASSIGN   8516<<ASSIGN   8519<<ASSIGN   8522<<ASSIGN   8525>>IF       8533--ASSIGN
F$DCB.ACTPOS
      7787**DCL      7787--REDEF
PL6.E3A0      #003=MMV$VIRTUAL File=MMV$VIRTUAL.:E05TSI                          WED 07/30/97 03:28 Page:307
F$DCB.ARS
      7762**DCL      7762--REDEF
F$DCB.ATTR
      7780**DCL      7781--REDEF
F$DCB.BORROW
      7795**DCL      7795--REDEF    7795--REDEF    7795--REDEF
F$DCB.DCBNAME.L
      7809**DCL      7809--IMP-SIZ
F$DCB.EOMCHAR
      7766**DCL      7766--REDEF
F$DCB.FLDID
      7790**DCL      7790--REDEF
F$DCB.FORM$
      7784**DCL      7784--REDEF
F$DCB.FSECT
      7800**DCL      7800--REDEF
F$DCB.FSN
      7777**DCL      7777--REDEF    7777--REDEF    7778--REDEF
F$DCB.HEADER$
      7783**DCL      7783--REDEF
F$DCB.IXTNSIZE
      7781**DCL      7781--REDEF
F$DCB.LASTSTA$
      7771**DCL      7771--REDEF    8534>>ASSIGN
F$DCB.LVL
      7796**DCL      7796--REDEF
F$DCB.NAME.C
      7771**DCL      7771--REDEF
F$DCB.NOEOF
      7792**DCL      7792--REDEF
F$DCB.NRECS
      7782**DCL      7782--REDEF
F$DCB.NRECX
      7801**DCL      7801--REDEF
F$DCB.OHDR
      7793**DCL      7793--REDEF
PL6.E3A0      #003=MMV$VIRTUAL File=MMV$VIRTUAL.:E05TSI                          WED 07/30/97 03:28 Page:308
F$DCB.ORG
      7776**DCL      7776--REDEF
F$DCB.PRECNO
      7799**DCL      7799--REDEF
F$DCB.RCSZ
      7804**DCL      7804--REDEF
F$DCB.RES
      7772**DCL      7772--REDEF
F$DCB.SETSTA$
      7771**DCL      8535>>ASSIGN
F$DCB.SETX
      7784**DCL      7784--REDEF
F$DCB.TAB$
      7783**DCL      7784--REDEF
F$DCB.TDA
      7798**DCL      7798--REDEF
F$DCB.WSN
      7773**DCL      7773--REDEF
FMP$CLSJ
      8456**DCL-ENT  8552--CALL
FPT$VIRTUAL_V.SEGNUM
      8428**DCL      8513>>DOCASE
HFF$NILERASE
      8457**DCL-ENT  8537--CALL     8568--CALL
MAXVP
      8423**DCL      8543<<ASSIGN   8546>>IF
MM$DESC.BOUND
      8349**DCL      8350--REDEF
MM$DESC.FLGS
      8350**DCL      8350--REDEF
MM$PPUT.USER#
      8338**DCL      8338--REDEF
MM$VCB
      8340**DCL      8570>>ASSIGN
MM$VCB.INITIALIZE
      8340**DCL      8539<<ASSIGN
PL6.E3A0      #003=MMV$VIRTUAL File=MMV$VIRTUAL.:E05TSI                          WED 07/30/97 03:28 Page:309
MM$VCB.INITVALUE
      8341**DCL      8540<<ASSIGN
MM$VCB.MAXVP#
      8342**DCL      8546>>IF       8548<<ASSIGN
MM$VCB.PPC
      8344**DCL      8558>>IF       8576>>ASSIGN
MM$VCB.PPMAX
      8342**DCL      8542<<ASSIGN   8558>>IF
MM$VCB.PPMIN
      8342**DCL      8541<<ASSIGN
MM$VCB.WSQ
      8341**DCL      8560>>ASSIGN
MM$VIRTUAL_STATS.FAULTS#
      8451**DCL      8574>>ASSIGN
MM$VIRTUAL_STATS.MAXPGS#
      8451**DCL      8575>>ASSIGN
MM$VIRTUAL_STATS.READS#
      8451**DCL      8571>>ASSIGN
MM$VIRTUAL_STATS.TRUNCS#
      8451**DCL      8573>>ASSIGN
MM$VIRTUAL_STATS.WRITES#
      8451**DCL      8572>>ASSIGN
MMV$CLOSE
      8458**DCL-ENT  8549--CALL
MMV$OPEN
      8459**DCL-ENT  8550--CALL
MMV$TRUNC
      8460**DCL-ENT  8561--CALL
MM_BYP$
      8269**DCL      8269--IMP-PTR
STATS$
      8420**DCL      8451--IMP-PTR  8534<<ASSIGN   8571>>ASSIGN   8572>>ASSIGN   8573>>ASSIGN   8574>>ASSIGN
      8575>>ASSIGN
VCB$
      8422**DCL      8535<<ASSIGN   8539>>ASSIGN   8540>>ASSIGN   8541>>ASSIGN   8542>>ASSIGN   8546>>IF
      8548>>ASSIGN   8558>>IF       8558>>IF       8560>>ASSIGN   8570>>ASSIGN   8576>>ASSIGN
PL6.E3A0      #003=MMV$VIRTUAL File=MMV$VIRTUAL.:E05TSI                          WED 07/30/97 03:28 Page:310
VLP$VIRTUAL
      8441**DCL      8570<<ASSIGN
VLP$VIRTUAL.CURPGS#
      8446**DCL      8576<<ASSIGN
VLP$VIRTUAL.FAULTS#
      8446**DCL      8574<<ASSIGN
VLP$VIRTUAL.INITIALIZE#
      8441**DCL      8539>>ASSIGN
VLP$VIRTUAL.INITVALUE#
      8443**DCL      8540>>ASSIGN
VLP$VIRTUAL.MAXPGS#
      8447**DCL      8575<<ASSIGN
VLP$VIRTUAL.MINPHYS#
      8444**DCL      8541>>ASSIGN
VLP$VIRTUAL.PHYSICAL#
      8444**DCL      8542>>ASSIGN
VLP$VIRTUAL.READS#
      8445**DCL      8571<<ASSIGN
VLP$VIRTUAL.SEGSIZE#
      8443**DCL      8543>>ASSIGN   8548>>ASSIGN
VLP$VIRTUAL.TRUNCS#
      8447**DCL      8573<<ASSIGN
VLP$VIRTUAL.WRITES#
      8445**DCL      8572<<ASSIGN
VSNOTOPEN
      8475**DCL      8527>>ASSIGN
WSQ
      8424**DCL      8560<<ASSIGN   8561<>CALL
