VERSION E05

PL6.E3A0      #001=NAO$OPN File=NAO$OPN.:E05TSI                                  WED 07/30/97 03:26 Page:1
        1        1        /*M* NAO$OPN - Open DCB to array processor */
        2        2        /*T***********************************************************/
        3        3        /*T*                                                         */
        4        4        /*T* Copyright (c) Bull HN Information Systems Inc., 1997    */
        5        5        /*T*                                                         */
        6        6        /*T***********************************************************/
        7        7        NAO$OPN: PROC;
        8        8
        9        9        /*F*    NAME: NAO$OPN
       10       10                CALL: CALL NAO$OPN
       11       11                INPUT:  B$JIT.DCB$ points to current DCB.
       12       12                PURPOSE:  Opens a DCB to an array processor.
       13       13        */
       14       14
       15       15        %INCLUDE F$DCB;
       16       64        %INCLUDE F_FMTCODE_C;
       17       98        %INCLUDE FR$RAT;
       18      151        %FR$RAT (NAME=FR$RAT,STCLASS="BASED(RAT$)");
       19      191        %INCLUDE FR_SUBS;
       20      259        %INCLUDE B$JIT;
       21      862        %INCLUDE B_ERRORS_C;
       22     1989        %INCLUDE CP_6_SUBS;
       23     2529        %INCLUDE SS_SCHED_C;
       24     2762
       25     2763    1   DCL NAI$INIT ENTRY;
       26     2764    1   DCL SSR$REG ENTRY(3) ALTRET;
       27     2765    1   DCL FRZ$GETRES ENTRY(5) ALTRET;
       28     2766
       29     2767    1   DCL B$JIT$ PTR SYMREF;
       30     2768    1   DCL FR$HD$(0:0) PTR SYMREF;
       31     2769
       32     2770    1   DCL JDCB$ PTR;
       33     2771    1   DCL RAT$ PTR;
       34     2772    1   DCL BUF$ PTR;
       35     2773    1   DCL SYSID UBIN;
       36     2774    1   DCL MODE UBIN;
       37     2775
PL6.E3A0      #001=NAO$OPN File=NAO$OPN.:E05TSI                                  WED 07/30/97 03:26 Page:2
       38     2776        %SUB F$DCB=JDCB$->F$DCB;
       39     2777
       40     2778    1           JDCB$=B$JIT.DCB$;
       41     2779
       42     2780    2           IF F$DCB.RESNT.TYP ~= 'AP' THEN DO;
       43     2781    2              CALL ERRSET(%E$INVASN);
       44     2782        /*E*       ERROR:  NAO-E$INVASN-E
       45     2783                   MESSAGE: Invalid resource type for FPAP ASN.
       46     2784                   MESSAGE1: The resource type must be set to 'AP' to open a DCB
       47     2785                             to a floating point processor.
       48     2786                   DESCRIPTION:  ASN=FPAP and RES~='AP'.
       49     2787        */
       50     2788    2              RETURN;
       51     2789    2              END;
       52     2790    1           F$DCB.RESNT.NUM='01';
       53     2791
       54     2792    1           RAT$=FR$HD$(FR_NPOOL);
       55     2793    2           DO WHILE(RAT$~=ADDR(NIL));
       56     2794    2              IF FR$RAT.TYP = 'AP'
       57     2795    2                AND FR$RAT.FLG.DOWN='0'B
       58     2796    2                AND (B$JIT.APATTR & ~FR$RAT.M1)='0'B THEN
       59     2797    2                 EXIT;
       60     2798    2              RAT$=FR$RAT.LNK$;
       61     2799    2              END;
       62     2800    2           IF RAT$=ADDR(NIL) THEN DO;
       63     2801    2              CALL ERRSET(%E$NORSS);
       64     2802        /*E*       ERROR:  NAO-E$NORSS-E
       65     2803                   MESSAGE:  No array processors with the requested attributes exist on
       66     2804                             this system.
       67     2805
       68     2806        */
       69     2807    2              RETURN;
       70     2808    2              END;
       71     2809
       72     2810    1           SYSID=B$JIT.SYSID;
       73     2811    1           MODE=B$JIT.MODE;
       74     2812    1           RAT$=ADDR(NIL);
PL6.E3A0      #001=NAO$OPN File=NAO$OPN.:E05TSI                                  WED 07/30/97 03:26 Page:3
       75     2813    2           DO WHILE(RAT$=ADDR(NIL));
       76     2814    3              CALL FRZ$GETRES(F$DCB.RESNT.TYP,B$JIT.APATTR,SYSID,MODE,RAT$)
              2814                       WHENALTRETURN DO;
       77     2815    4                 IF F$DCB.SHARE = %NONE# OR B$JIT.ERR.CODE ~= %E$NORSS THEN DO;
       78     2816    4                    RETURN;
       79     2817    4                    END;
       80     2818    4                 CALL SSR$REG(%SS_NAP) WHENALTRETURN DO;
       81     2819    4                    RETURN;
       82     2820    4                    END;
       83     2821    3                 B$JIT.ERR='0'B;
       84     2822    3                 END;
       85     2823    2              END;
       86     2824
       87     2825    1           F$DCB.SETX=FR$RAT.DCTX;
       88     2826    1           F$DCB.ASN=%FPAP#;
       89     2827    1           F$DCB.IASN=%FPAP#;
       90     2828    1           F$DCB.IFMT=FMTARRAYPROCESSOR#;
       91     2829    1           F$DCB.FFLG='0'B;
       92     2830    1           F$DCB.FFLG.WNEW='1'B;
       93     2831    1           F$DCB.FCD='1'B;
       94     2832    1           F$DCB.FCI='1'B;
       95     2833    1           CALL NAI$INIT;
       96     2834    1           RETURN;
       97     2835
       98     2836    1   ERRSET: PROC(ERRCODE);
       99     2837
      100     2838    2   DCL ERRCODE UBIN;
      101     2839
      102     2840    2           B$JIT.ERR='160117400002'O;
      103     2841    2           B$JIT.ERR.CODE=ERRCODE;
      104     2842    2           RETURN;
      105     2843
      106     2844    2   END ERRSET;
      107     2845
      108     2846    1   END NAO$OPN;
      109     2847
      110     2848        %EOD;
PL6.E3A0      #001=NAO$OPN File=NAO$OPN.:E05TSI                                  WED 07/30/97 03:26 Page:4

PL6.E3A0      #001=NAO$OPN File=NAO$OPN.:E05TSI                                  WED 07/30/97 03:26 Page:5
--  Include file information  --

   SS_SCHED_C.:E05TOU  is referenced.
   CP_6_SUBS.:E05TOU  is referenced.
   B_ERRORS_C.:E05TOU  is referenced.
   B$JIT_C.:E05TOU  is referenced.
   B$JIT.:E05TOU  cannot be made into a system file and is referenced.
   FR_SUBS.:E05TOU  is referenced.
   FR$RAT.:E05TOU  is referenced.
   F_FMTCODE_C.:E05TOU  is referenced.
   F$DCB.:E05TOU  cannot be made into a system file and is referenced.
      No diagnostics issued in procedure NAO$OPN.

   Procedure NAO$OPN requires 129 words for executable code.
   Procedure NAO$OPN requires 16 words of local(AUTO) storage.

PL6.E3A0      #001=NAO$OPN File=NAO$OPN.:E05TSI                                  WED 07/30/97 03:26 Page:6

 Object Unit name= NAO$OPN                                    File name= NAO$OPN.:E05TOU
 UTS= JUL 30 '97 03:26:36.52 WED                              Compiler= PL-6/E31         Sev=      00
 SharedLib= :SHARED_SYSTEM                                    Alt SharedLib=


    ****  Control sections  ****

 Sect   Type Bound  Init  Size OctSiz  Section name(segment info)
    0  RoData even  UTS      3      3  NAO$OPN
    1   Proc  even  none   129    201  NAO$OPN
    2  RoData even  none     7      7  NAO$OPN

    ****  Entry defs  ****

                              Check   Calling
                             calling  sequence
  Sect OctLoc Primary Altret sequence   type   Parms  Name
     1      0   yes            yes      Std        0  NAO$OPN

  ****  Entry refs  ****

         Check        Calling
        calling       sequence
Altret sequence SRef   type   Args  Name
 yes     yes           Std       3 SSR$REG
 yes     yes           Std       5 FRZ$GETRES
         yes           Std       0 NAI$INIT
                       nStd      0 X66_AUTO_0
                       nStd      0 X66_ARET
                       Std       0 B_CONSPOOL_D

  ****  Data refs  ****

  Flags:  r = read only, s = secondary
Flgs Name                             Flgs Name                             Flgs Name
     B$JIT$                                FR$HD$                                B_VECTNIL
PL6.E3A0      #001=NAO$OPN File=NAO$OPN.:E05TSI                                  WED 07/30/97 03:26 Page:7

  ****  Segment refs  ****

  Flags:  r = read only, s = secondary
Flgs Name                             Flgs Name                             Flgs Name
     ISSID
PL6.E3A0      #001=NAO$OPN File=NAO$OPN.:E05TSI                                  WED 07/30/97 03:26 Page:8


        1        1        /*M* NAO$OPN - Open DCB to array processor */
        2        2        /*T***********************************************************/
        3        3        /*T*                                                         */
        4        4        /*T* Copyright (c) Bull HN Information Systems Inc., 1997    */
        5        5        /*T*                                                         */
        6        6        /*T***********************************************************/
        7        7        NAO$OPN: PROC;

      7  1 000000   000000 700200 xent  NAO$OPN      TSX0  ! X66_AUTO_0
         1 000001   000020 000000                    ZERO    16,0

        8        8
        9        9        /*F*    NAME: NAO$OPN
       10       10                CALL: CALL NAO$OPN
       11       11                INPUT:  B$JIT.DCB$ points to current DCB.
       12       12                PURPOSE:  Opens a DCB to an array processor.
       13       13        */
       14       14
       15       15        %INCLUDE F$DCB;
       16       64        %INCLUDE F_FMTCODE_C;
       17       98        %INCLUDE FR$RAT;
       18      151        %FR$RAT (NAME=FR$RAT,STCLASS="BASED(RAT$)");
       19      191        %INCLUDE FR_SUBS;
       20      259        %INCLUDE B$JIT;
       21      862        %INCLUDE B_ERRORS_C;
       22     1989        %INCLUDE CP_6_SUBS;
       23     2529        %INCLUDE SS_SCHED_C;
       24     2762
       25     2763    1   DCL NAI$INIT ENTRY;
       26     2764    1   DCL SSR$REG ENTRY(3) ALTRET;
       27     2765    1   DCL FRZ$GETRES ENTRY(5) ALTRET;
       28     2766
       29     2767    1   DCL B$JIT$ PTR SYMREF;
       30     2768    1   DCL FR$HD$(0:0) PTR SYMREF;
       31     2769
       32     2770    1   DCL JDCB$ PTR;
PL6.E3A0      #001=NAO$OPN File=NAO$OPN.:E05TSI                                  WED 07/30/97 03:26 Page:9
       33     2771    1   DCL RAT$ PTR;
       34     2772    1   DCL BUF$ PTR;
       35     2773    1   DCL SYSID UBIN;
       36     2774    1   DCL MODE UBIN;
       37     2775
       38     2776        %SUB F$DCB=JDCB$->F$DCB;
       39     2777
       40     2778    1           JDCB$=B$JIT.DCB$;

   2778  1 000002   000000 470400 xsym               LDP0    B$JIT$
         1 000003   000232 236100                    LDQ     154,,PR0
         1 000004   200003 756100                    STQ     JDCB$,,AUTO

       41     2779
       42     2780    2           IF F$DCB.RESNT.TYP ~= 'AP' THEN DO;

   2780  1 000005   200003 471500                    LDP1    JDCB$,,AUTO
         1 000006   100026 220100                    LDX0    22,,PR1
         1 000007   000000 100000 0                  CMPX0   0
         1 000010   000016 600000 1                  TZE     s:2790

       43     2781    2              CALL ERRSET(%E$INVASN);

   2781  1 000011   000001 236000 2                  LDQ     1
         1 000012   200011 756100                    STQ     MODE+2,,AUTO
         1 000013   000166 701000 1                  TSX1    ERRSET
         1 000014   000000 011000                    NOP     0

       44     2782        /*E*       ERROR:  NAO-E$INVASN-E
       45     2783                   MESSAGE: Invalid resource type for FPAP ASN.
       46     2784                   MESSAGE1: The resource type must be set to 'AP' to open a DCB
       47     2785                             to a floating point processor.
       48     2786                   DESCRIPTION:  ASN=FPAP and RES~='AP'.
       49     2787        */
       50     2788    2              RETURN;

   2788  1 000015   000000 702200 xent               TSX2  ! X66_ARET
PL6.E3A0      #001=NAO$OPN File=NAO$OPN.:E05TSI                                  WED 07/30/97 03:26 Page:10

       51     2789    2              END;
       52     2790    1           F$DCB.RESNT.NUM='01';

   2790  1 000016   000001 221000 0                  LDX1    1
         1 000017   100026 441100                    SXL1    22,,PR1

       53     2791
       54     2792    1           RAT$=FR$HD$(FR_NPOOL);

   2792  1 000020   000002 236000 xsym               LDQ     FR$HD$+2
         1 000021   200004 756100                    STQ     RAT$,,AUTO

       55     2793    2           DO WHILE(RAT$~=ADDR(NIL));

   2793  1 000022   000045 710000 1                  TRA     s:2799

       56     2794    2              IF FR$RAT.TYP = 'AP'

   2794  1 000023   200004 470500                    LDP0    RAT$,,AUTO
         1 000024   000010 220100                    LDX0    8,,PR0
         1 000025   000000 100000 0                  CMPX0   0
         1 000026   000043 601000 1                  TNZ     s:2798
         1 000027   000010 236100                    LDQ     8,,PR0
         1 000030   000002 316007                    CANQ    2,DL
         1 000031   000043 601000 1                  TNZ     s:2798
         1 000032   000006 236100                    LDQ     6,,PR0
         1 000033   777777 376003                    ANQ     -1,DU
         1 000034   777777 676003                    ERQ     -1,DU
         1 000035   200012 756100                    STQ     @ERRCODE+1,,AUTO
         1 000036   000000 471400 xsym               LDP1    B$JIT$
         1 000037   100357 236100                    LDQ     239,,PR1
         1 000040   000022 736000                    QLS     18
         1 000041   200012 376100                    ANQ     @ERRCODE+1,,AUTO
         1 000042   000047 600000 1                  TZE     s:2800

       57     2795    2                AND FR$RAT.FLG.DOWN='0'B
PL6.E3A0      #001=NAO$OPN File=NAO$OPN.:E05TSI                                  WED 07/30/97 03:26 Page:11
       58     2796    2                AND (B$JIT.APATTR & ~FR$RAT.M1)='0'B THEN
       59     2797    2                 EXIT;
       60     2798    2              RAT$=FR$RAT.LNK$;

   2798  1 000043   000000 236100                    LDQ     0,,PR0
         1 000044   200004 756100                    STQ     RAT$,,AUTO

       61     2799    2              END;

   2799  1 000045   000001 116000 xsym               CMPQ    B_VECTNIL+1
         1 000046   000023 601000 1                  TNZ     s:2794

       62     2800    2           IF RAT$=ADDR(NIL) THEN DO;

   2800  1 000047   200004 236100                    LDQ     RAT$,,AUTO
         1 000050   000001 116000 xsym               CMPQ    B_VECTNIL+1
         1 000051   000057 601000 1                  TNZ     s:2810

       63     2801    2              CALL ERRSET(%E$NORSS);

   2801  1 000052   000003 236000 2                  LDQ     3
         1 000053   200011 756100                    STQ     MODE+2,,AUTO
         1 000054   000166 701000 1                  TSX1    ERRSET
         1 000055   000000 011000                    NOP     0

       64     2802        /*E*       ERROR:  NAO-E$NORSS-E
       65     2803                   MESSAGE:  No array processors with the requested attributes exist on
       66     2804                             this system.
       67     2805
       68     2806        */
       69     2807    2              RETURN;

   2807  1 000056   000000 702200 xent               TSX2  ! X66_ARET

       70     2808    2              END;
       71     2809
       72     2810    1           SYSID=B$JIT.SYSID;
PL6.E3A0      #001=NAO$OPN File=NAO$OPN.:E05TSI                                  WED 07/30/97 03:26 Page:12

   2810  1 000057   000000 470400 xsym               LDP0    B$JIT$
         1 000060   000000 236100                    LDQ     0,,PR0
         1 000061   777777 376007                    ANQ     -1,DL
         1 000062   200006 756100                    STQ     SYSID,,AUTO

       73     2811    1           MODE=B$JIT.MODE;

   2811  1 000063   000000 236100                    LDQ     0,,PR0
         1 000064   000040 772000                    QRL     32
         1 000065   200007 756100                    STQ     MODE,,AUTO

       74     2812    1           RAT$=ADDR(NIL);

   2812  1 000066   000001 236000 xsym               LDQ     B_VECTNIL+1
         1 000067   200004 756100                    STQ     RAT$,,AUTO

       75     2813    2           DO WHILE(RAT$=ADDR(NIL));

   2813  1 000070   000135 710000 1                  TRA     s:2823

       76     2814    3              CALL FRZ$GETRES(F$DCB.RESNT.TYP,B$JIT.APATTR,SYSID,MODE,RAT$)
              2814                       WHENALTRETURN DO;

   2814  1 000071   200004 630500                    EPPR0   RAT$,,AUTO
         1 000072   200016 450500                    STP0    @ERRCODE+5,,AUTO
         1 000073   200007 631500                    EPPR1   MODE,,AUTO
         1 000074   200015 451500                    STP1    @ERRCODE+4,,AUTO
         1 000075   200006 633500                    EPPR3   SYSID,,AUTO
         1 000076   200014 453500                    STP3    @ERRCODE+3,,AUTO
         1 000077   000000 236000 xsym               LDQ     B$JIT$
         1 000100   000004 036000 2                  ADLQ    4
         1 000101   200013 756100                    STQ     @ERRCODE+2,,AUTO
         1 000102   200003 236100                    LDQ     JDCB$,,AUTO
         1 000103   000026 036003                    ADLQ    22,DU
         1 000104   200012 756100                    STQ     @ERRCODE+1,,AUTO
         1 000105   200012 630500                    EPPR0   @ERRCODE+1,,AUTO
PL6.E3A0      #001=NAO$OPN File=NAO$OPN.:E05TSI                                  WED 07/30/97 03:26 Page:13
         1 000106   000023 631400 xsym               EPPR1   B_VECTNIL+19
         1 000107   000000 701000 xent               TSX1    FRZ$GETRES
         1 000110   000112 702000 1                  TSX2    s:2815
         1 000111   000135 710000 1                  TRA     s:2823

       77     2815    4                 IF F$DCB.SHARE = %NONE# OR B$JIT.ERR.CODE ~= %E$NORSS THEN DO;

   2815  1 000112   200003 470500                    LDP0    JDCB$,,AUTO
         1 000113   000031 236100                    LDQ     25,,PR0
         1 000114   000600 376007                    ANQ     384,DL
         1 000115   000600 116007                    CMPQ    384,DL
         1 000116   000124 600000 1                  TZE     s:2816
         1 000117   000000 471400 xsym               LDP1    B$JIT$
         1 000120   100012 236100                    LDQ     10,,PR1
         1 000121   377770 376007                    ANQ     131064,DL
         1 000122   012250 116007                    CMPQ    5288,DL
         1 000123   000125 600000 1                  TZE     s:2818

       78     2816    4                    RETURN;

   2816  1 000124   000000 702200 xent               TSX2  ! X66_ARET

       79     2817    4                    END;
       80     2818    4                 CALL SSR$REG(%SS_NAP) WHENALTRETURN DO;

   2818  1 000125   000006 630400 2                  EPPR0   6
         1 000126   000017 631400 xsym               EPPR1   B_VECTNIL+15
         1 000127   000000 701000 xent               TSX1    SSR$REG
         1 000130   000132 702000 1                  TSX2    s:2819
         1 000131   000133 710000 1                  TRA     s:2821

       81     2819    4                    RETURN;

   2819  1 000132   000000 702200 xent               TSX2  ! X66_ARET

       82     2820    4                    END;
       83     2821    3                 B$JIT.ERR='0'B;
PL6.E3A0      #001=NAO$OPN File=NAO$OPN.:E05TSI                                  WED 07/30/97 03:26 Page:14

   2821  1 000133   000000 470400 xsym               LDP0    B$JIT$
         1 000134   000012 450100                    STZ     10,,PR0

       84     2822    3                 END;

       85     2823    2              END;

   2823  1 000135   200004 236100                    LDQ     RAT$,,AUTO
         1 000136   000001 116000 xsym               CMPQ    B_VECTNIL+1
         1 000137   000071 600000 1                  TZE     s:2814

       86     2824
       87     2825    1           F$DCB.SETX=FR$RAT.DCTX;

   2825  1 000140   200004 470500                    LDP0    RAT$,,AUTO
         1 000141   000003 720100                    LXL0    3,,PR0
         1 000142   200003 471500                    LDP1    JDCB$,,AUTO
         1 000143   100051 440100                    SXL0    41,,PR1

       88     2826    1           F$DCB.ASN=%FPAP#;

   2826  1 000144   011000 236007                    LDQ     4608,DL
         1 000145   100032 552110                    STBQ    26,'10'O,PR1

       89     2827    1           F$DCB.IASN=%FPAP#;

   2827  1 000146   000011 236007                    LDQ     9,DL
         1 000147   100103 552104                    STBQ    67,'04'O,PR1

       90     2828    1           F$DCB.IFMT=FMTARRAYPROCESSOR#;

   2828  1 000150   026000 236003                    LDQ     11264,DU
         1 000151   100103 552140                    STBQ    67,'40'O,PR1

       91     2829    1           F$DCB.FFLG='0'B;

PL6.E3A0      #001=NAO$OPN File=NAO$OPN.:E05TSI                                  WED 07/30/97 03:26 Page:15
   2829  1 000152   000000 221003                    LDX1    0,DU
         1 000153   100004 741100                    STX1    4,,PR1

       92     2830    1           F$DCB.FFLG.WNEW='1'B;

   2830  1 000154   100000 236003                    LDQ     32768,DU
         1 000155   100004 256100                    ORSQ    4,,PR1

       93     2831    1           F$DCB.FCD='1'B;

   2831  1 000156   020000 236007                    LDQ     8192,DL
         1 000157   100031 256100                    ORSQ    25,,PR1

       94     2832    1           F$DCB.FCI='1'B;

   2832  1 000160   040000 236007                    LDQ     16384,DL
         1 000161   100031 256100                    ORSQ    25,,PR1

       95     2833    1           CALL NAI$INIT;

   2833  1 000162   000002 631400 xsym               EPPR1   B_VECTNIL+2
         1 000163   000000 701000 xent               TSX1    NAI$INIT
         1 000164   000000 011000                    NOP     0

       96     2834    1           RETURN;

   2834  1 000165   000000 702200 xent               TSX2  ! X66_ARET

       97     2835
       98     2836    1   ERRSET: PROC(ERRCODE);

   2836  1 000166   200010 741300       ERRSET       STX1  ! MODE+1,,AUTO

       99     2837
      100     2838    2   DCL ERRCODE UBIN;
      101     2839
      102     2840    2           B$JIT.ERR='160117400002'O;
PL6.E3A0      #001=NAO$OPN File=NAO$OPN.:E05TSI                                  WED 07/30/97 03:26 Page:16

   2840  1 000167   000002 236000 0                  LDQ     2
         1 000170   000000 470400 xsym               LDP0    B$JIT$
         1 000171   000012 756100                    STQ     10,,PR0

      103     2841    2           B$JIT.ERR.CODE=ERRCODE;

   2841  1 000172   200011 471500                    LDP1    @ERRCODE,,AUTO
         1 000173   100000 236100                    LDQ     0,,PR1
         1 000174   000003 736000                    QLS     3
         1 000175   000012 676100                    ERQ     10,,PR0
         1 000176   377770 376007                    ANQ     131064,DL
         1 000177   000012 656100                    ERSQ    10,,PR0

      104     2842    2           RETURN;

   2842  1 000200   000001 702211                    TSX2  ! 1,X1

(unnamed)
 Sect OctLoc
   0     000   101120 040040   060061 040040   160117 400002                    AP  01  pO..

(unnamed)
 Sect OctLoc
   2     000   000000 000145   000000 006000   000000 001225   000002 006000    ...e............
   2     004   000357 400000   000000 000106   000005 006000                    .......F....
      105     2843
      106     2844    2   END ERRSET;
      107     2845
      108     2846    1   END NAO$OPN;
      109     2847
      110     2848        %EOD;

PL6.E3A0      #001=NAO$OPN File=NAO$OPN.:E05TSI                                  WED 07/30/97 03:26 Page:17
--  Include file information  --

   SS_SCHED_C.:E05TOU  is referenced.
   CP_6_SUBS.:E05TOU  is referenced.
   B_ERRORS_C.:E05TOU  is referenced.
   B$JIT_C.:E05TOU  is referenced.
   B$JIT.:E05TOU  cannot be made into a system file and is referenced.
   FR_SUBS.:E05TOU  is referenced.
   FR$RAT.:E05TOU  is referenced.
   F_FMTCODE_C.:E05TOU  is referenced.
   F$DCB.:E05TOU  cannot be made into a system file and is referenced.
      No diagnostics issued in procedure NAO$OPN.
PL6.E3A0      #001=NAO$OPN File=NAO$OPN.:E05TSI                                  WED 07/30/97 03:26 Page:18

 **** Variables and constants ****

  ****  Auto variables  ****

  ****  Scalars and arrays  ****
OctLoc.c.b A Datatyp(siz) R M Lvl/name                 OctLoc.c.b A Datatyp(siz) R M Lvl/name

    11-0-0/w PTR         r     1 @ERRCODE                  *0-0-0/w UBIN        r     1 ERRCODE
     3-0-0/w PTR         r     1 JDCB$                      7-0-0/w UBIN        r     1 MODE
     4-0-0/w PTR         r     1 RAT$                       6-0-0/w UBIN        r     1 SYSID

  ****  SYMREF variables  ****

  ****  Scalars and arrays  ****
OctLoc.c.b A Datatyp(siz) R M Lvl/name                 OctLoc.c.b A Datatyp(siz) R M Lvl/name

     0-0-0/w PTR         r     1 B$JIT$                     0-0-0/w PTR         r     1 FR$HD$(0:0)

  ****  BASED and DCB variables  ****

  ****  Scalars and arrays  ****
OctLoc.c.b A Datatyp(siz) R M Lvl/name                 OctLoc.c.b A Datatyp(siz) R M Lvl/name

     0-0-0/d STRC(8856)  r     1 B$JIT                      0-0-0/d ASTR(3528)  r     1 F$DCB
     0-0-0/w STRC(324)   r     1 FR$RAT


   Procedure NAO$OPN requires 129 words for executable code.
   Procedure NAO$OPN requires 16 words of local(AUTO) storage.
PL6.E3A0      #001=NAO$OPN File=NAO$OPN.:E05TSI                                  WED 07/30/97 03:26 Page:19
          *** CROSS REFERENCE LISTING ***
**     DENOTES     IDENTIFIER DEFINITION
<<                 IDENTIFIER'S VALUE SET
>>                 IDENTIFIER'S VALUE USED
<>                 IDENTIFIER SET AND/OR USED
--                 IDENTIFIER REFERENCED
PL6.E3A0      #001=NAO$OPN File=NAO$OPN.:E05TSI                                  WED 07/30/97 03:26 Page:20
          MINI XREF LISTING

B$JIT.APATTR
       859**DCL      2794>>IF       2814<>CALL
B$JIT.CPFLAGS1.SLEAZE
       680**DCL       680--REDEF
B$JIT.DCB$
       754**DCL      2778>>ASSIGN
B$JIT.ERR
       586**DCL      2821<<ASSIGN   2840<<ASSIGN
B$JIT.ERR.CODE
       587**DCL      2815>>IF       2841<<ASSIGN
B$JIT.ERR.MID
       587**DCL       587--REDEF
B$JIT.JRESPEAK
       748**DCL       749--REDEF
B$JIT.MODE
       581**DCL      2811>>ASSIGN
B$JIT.ORIGINATOR_PORT.FROM_CR
       857**DCL       857--REDEF     858--REDEF
B$JIT.PNR
       761**DCL       761--REDEF
B$JIT.SYSID
       586**DCL      2810>>ASSIGN
B$JIT.TSLINE
       855**DCL       856--REDEF
B$JIT$
      2767**DCL       581--IMP-PTR  2778>>ASSIGN   2794>>IF       2810>>ASSIGN   2811>>ASSIGN   2814>>CALL
      2815>>IF       2821>>ASSIGN   2840>>ASSIGN   2841>>ASSIGN
ERRCODE IN PROCEDURE ERRSET
      2838**DCL      2836--PROC     2841>>ASSIGN
ERRSET
      2836**PROC     2781--CALL     2801--CALL
F$DCB.ACTPOS
PL6.E3A0      #001=NAO$OPN File=NAO$OPN.:E05TSI                                  WED 07/30/97 03:26 Page:21
        41**DCL        41--REDEF
F$DCB.ARS
        16**DCL        16--REDEF
F$DCB.ASN
        31**DCL      2826<<ASSIGN
F$DCB.ATTR
        34**DCL        35--REDEF
F$DCB.BORROW
        49**DCL        49--REDEF      49--REDEF      49--REDEF
F$DCB.DCBNAME.L
        63**DCL        63--IMP-SIZ
F$DCB.EOMCHAR
        20**DCL        20--REDEF
F$DCB.FCD
        29**DCL      2831<<ASSIGN
F$DCB.FCI
        29**DCL      2832<<ASSIGN
F$DCB.FFLG
        20**DCL      2829<<ASSIGN
F$DCB.FFLG.WNEW
        21**DCL      2830<<ASSIGN
F$DCB.FLDID
        44**DCL        44--REDEF
F$DCB.FORM$
        38**DCL        38--REDEF
F$DCB.FSECT
        54**DCL        54--REDEF
F$DCB.FSN
        31**DCL        31--REDEF      31--REDEF      32--REDEF
F$DCB.HEADER$
        37**DCL        37--REDEF
F$DCB.IASN
        57**DCL      2827<<ASSIGN
F$DCB.IFMT
        56**DCL      2828<<ASSIGN
F$DCB.IXTNSIZE
PL6.E3A0      #001=NAO$OPN File=NAO$OPN.:E05TSI                                  WED 07/30/97 03:26 Page:22
        35**DCL        35--REDEF
F$DCB.LASTSTA$
        25**DCL        25--REDEF
F$DCB.LVL
        50**DCL        50--REDEF
F$DCB.NAME.C
        25**DCL        25--REDEF
F$DCB.NOEOF
        46**DCL        46--REDEF
F$DCB.NRECS
        36**DCL        36--REDEF
F$DCB.NRECX
        55**DCL        55--REDEF
F$DCB.OHDR
        47**DCL        47--REDEF
F$DCB.ORG
        30**DCL        30--REDEF
F$DCB.PRECNO
        53**DCL        53--REDEF
F$DCB.RCSZ
        58**DCL        58--REDEF
F$DCB.RES
        26**DCL        26--REDEF
F$DCB.RESNT.NUM
        27**DCL      2790<<ASSIGN
F$DCB.RESNT.TYP
        26**DCL      2780>>IF       2814<>CALL
F$DCB.SETX
        38**DCL        38--REDEF    2825<<ASSIGN
F$DCB.SHARE
        29**DCL      2815>>IF
F$DCB.TAB$
        37**DCL        38--REDEF
F$DCB.TDA
        52**DCL        52--REDEF
F$DCB.WSN
PL6.E3A0      #001=NAO$OPN File=NAO$OPN.:E05TSI                                  WED 07/30/97 03:26 Page:23
        27**DCL        27--REDEF
FR$HD$
      2768**DCL      2792>>ASSIGN
FR$RAT.DCTX
       171**DCL      2825>>ASSIGN
FR$RAT.FLG.DOWN
       188**DCL      2794>>IF
FR$RAT.LNK$
       154**DCL      2798>>ASSIGN
FR$RAT.M1
       175**DCL      2794>>IF
FR$RAT.TYP
       177**DCL      2794>>IF
FRZ$GETRES
      2765**DCL-ENT  2814--CALL
JDCB$
      2770**DCL      2778<<ASSIGN   2780>>IF       2790>>ASSIGN   2814>>CALL     2815>>IF       2825>>ASSIGN
      2826>>ASSIGN   2827>>ASSIGN   2828>>ASSIGN   2829>>ASSIGN   2830>>ASSIGN   2831>>ASSIGN   2832>>ASSIGN
MODE
      2774**DCL      2811<<ASSIGN   2814<>CALL
NAI$INIT
      2763**DCL-ENT  2833--CALL
RAT$
      2771**DCL       153--IMP-PTR  2792<<ASSIGN   2793>>DOWHILE  2794>>IF       2794>>IF       2794>>IF
      2798<<ASSIGN   2798>>ASSIGN   2800>>IF       2812<<ASSIGN   2813>>DOWHILE  2814<>CALL     2825>>ASSIGN
SSR$REG
      2764**DCL-ENT  2818--CALL
SYSID
      2773**DCL      2810<<ASSIGN   2814<>CALL

PL6.E3A0      #002=NAO$CLS File=NAO$OPN.:E05TSI                                  WED 07/30/97 03:27 Page:24
      111        1        /*T***********************************************************/
      112        2        /*T*                                                         */
      113        3        /*T* Copyright (c) Bull HN Information Systems Inc., 1997    */
      114        4        /*T*                                                         */
      115        5        /*T***********************************************************/
      116        6
      117        7        NAO$CLS: PROC;
      118        8
      119        9        /*F*    NAME:  NAO$CLS
      120       10                CALL:  CALL NAO$CLS
      121       11                INPUT:  B$JIT.DCB$ points to current DCB.
      122       12                PURPOSE:  This routine closes a DCB open to an array processor.
      123       13        */
      124       14
      125       15        %INCLUDE F$DCB;
      126       64        %INCLUDE FR$RAT;
      127      117        %FR$RAT (NAME=FR$RAT,STCLASS="BASED(RAT$)");
      128      157        %INCLUDE FR_SUBS;
      129      225        %INCLUDE B$JIT;
      130      828        %INCLUDE B_ERRORS_C;
      131     1955        %INCLUDE CP_6_SUBS;
      132     2495        %INCLUDE NI$TABLES;
      133     2711        %INCLUDE SS_SCHED_C;
      134     2944
      135     2945    1   DCL NAI$RESET ENTRY;
      136     2946    1   DCL FRZ$RRESNA ENTRY(2);
      137     2947    1   DCL FMB$IOSPIN ENTRY;
      138     2948    1   DCL SSR$RUE ENTRY(4);
      139     2949
      140     2950    1   DCL DCB$ PTR;
      141     2951    1   DCL RAT$ PTR;
      142     2952    1   DCL DCT$ PTR;
      143     2953    1   DCL BUF$ PTR;
      144     2954    1   DCL MODE UBIN;
      145     2955
      146     2956    1   DCL B$JIT$ PTR SYMREF;
      147     2957    1   DCL N$DCT$$ PTR SYMREF;
PL6.E3A0      #002=NAO$CLS File=NAO$OPN.:E05TSI                                  WED 07/30/97 03:27 Page:25
      148     2958    1   DCL N$DCT$(0:0) PTR BASED(N$DCT$$);
      149     2959        %NI$DCT (NAME=DCT,STCLASS="BASED(DCT$)");
      150     3007
      151     3008    1           DCB$=B$JIT.DCB$;
      152     3009    1           DCT$=N$DCT$(DCB$->F$DCB.SETX);
      153     3010    1           RAT$=DCT.RAT$;
      154     3011
      155     3012    1           CALL NAI$RESET;
      156     3013    1           CALL FMB$IOSPIN;
      157     3014    1           DCB$->F$DCB.WAIT=0;
      158     3015    1           CALL FMB$IOSPIN;
      159     3016
      160     3017    1           MODE=B$JIT.MODE;
      161     3018    1           CALL FRZ$RRESNA(RAT$->FR$RAT,MODE);
      162     3019    1           CALL SSR$RUE(%SS_APA);
      163     3020
      164     3021    1           DCB$->F$DCB.FCD='0'B;
      165     3022
      166     3023    1           RETURN;
      167     3024
      168     3025    1   END NAO$CLS;

PL6.E3A0      #002=NAO$CLS File=NAO$OPN.:E05TSI                                  WED 07/30/97 03:27 Page:26
--  Include file information  --

   SS_SCHED_C.:E05TOU  is referenced.
   NI$TABLES.:E05TOU  is referenced.
   CP_6_SUBS.:E05TOU  is referenced.
   B_ERRORS_C.:E05TOU  is referenced.
   B$JIT_C.:E05TOU  is referenced.
   B$JIT.:E05TOU  cannot be made into a system file and is referenced.
   FR_SUBS.:E05TOU  is referenced.
   FR$RAT.:E05TOU  is referenced.
   F$DCB.:E05TOU  cannot be made into a system file and is referenced.
      No diagnostics issued in procedure NAO$CLS.

   Procedure NAO$CLS requires 45 words for executable code.
   Procedure NAO$CLS requires 10 words of local(AUTO) storage.

    No errors detected in file NAO$OPN.:E05TSI    .

PL6.E3A0      #002=NAO$CLS File=NAO$OPN.:E05TSI                                  WED 07/30/97 03:27 Page:27

 Object Unit name= NAO$CLS                                    File name= NAO$OPN.:E05TOU
 UTS= JUL 30 '97 03:27:00.16 WED                              Compiler= PL-6/E31         Sev=      00
 SharedLib= :SHARED_SYSTEM                                    Alt SharedLib=


    ****  Control sections  ****

 Sect   Type Bound  Init  Size OctSiz  Section name(segment info)
    0   Proc  even  none    45     55  NAO$CLS
    1  RoData even  none     4      4  NAO$CLS

    ****  Entry defs  ****

                              Check   Calling
                             calling  sequence
  Sect OctLoc Primary Altret sequence   type   Parms  Name
     0      0   yes            yes      Std        0  NAO$CLS

  ****  Entry refs  ****

         Check        Calling
        calling       sequence
Altret sequence SRef   type   Args  Name
         yes           Std       0 NAI$RESET
         yes           Std       0 FMB$IOSPIN
         yes           Std       2 FRZ$RRESNA
         yes           Std       4 SSR$RUE
                       nStd      0 X66_AUTO_0
                       Std       0 B_CONSPOOL_D
                       nStd      0 X66_ARET

  ****  Data refs  ****

  Flags:  r = read only, s = secondary
Flgs Name                             Flgs Name                             Flgs Name
     B$JIT$                                N$DCT$$                               B_VECTNIL
PL6.E3A0      #002=NAO$CLS File=NAO$OPN.:E05TSI                                  WED 07/30/97 03:27 Page:28

  ****  Segment refs  ****

  Flags:  r = read only, s = secondary
Flgs Name                             Flgs Name                             Flgs Name
     ISSID
PL6.E3A0      #002=NAO$CLS File=NAO$OPN.:E05TSI                                  WED 07/30/97 03:27 Page:29


      111        1        /*T***********************************************************/
      112        2        /*T*                                                         */
      113        3        /*T* Copyright (c) Bull HN Information Systems Inc., 1997    */
      114        4        /*T*                                                         */
      115        5        /*T***********************************************************/
      116        6
      117        7        NAO$CLS: PROC;

      7  0 000000   000000 700200 xent  NAO$CLS      TSX0  ! X66_AUTO_0
         0 000001   000012 000000                    ZERO    10,0

      118        8
      119        9        /*F*    NAME:  NAO$CLS
      120       10                CALL:  CALL NAO$CLS
      121       11                INPUT:  B$JIT.DCB$ points to current DCB.
      122       12                PURPOSE:  This routine closes a DCB open to an array processor.
      123       13        */
      124       14
      125       15        %INCLUDE F$DCB;
      126       64        %INCLUDE FR$RAT;
      127      117        %FR$RAT (NAME=FR$RAT,STCLASS="BASED(RAT$)");
      128      157        %INCLUDE FR_SUBS;
      129      225        %INCLUDE B$JIT;
      130      828        %INCLUDE B_ERRORS_C;
      131     1955        %INCLUDE CP_6_SUBS;
      132     2495        %INCLUDE NI$TABLES;
      133     2711        %INCLUDE SS_SCHED_C;
      134     2944
      135     2945    1   DCL NAI$RESET ENTRY;
      136     2946    1   DCL FRZ$RRESNA ENTRY(2);
      137     2947    1   DCL FMB$IOSPIN ENTRY;
      138     2948    1   DCL SSR$RUE ENTRY(4);
      139     2949
      140     2950    1   DCL DCB$ PTR;
      141     2951    1   DCL RAT$ PTR;
      142     2952    1   DCL DCT$ PTR;
PL6.E3A0      #002=NAO$CLS File=NAO$OPN.:E05TSI                                  WED 07/30/97 03:27 Page:30
      143     2953    1   DCL BUF$ PTR;
      144     2954    1   DCL MODE UBIN;
      145     2955
      146     2956    1   DCL B$JIT$ PTR SYMREF;
      147     2957    1   DCL N$DCT$$ PTR SYMREF;
      148     2958    1   DCL N$DCT$(0:0) PTR BASED(N$DCT$$);
      149     2959        %NI$DCT (NAME=DCT,STCLASS="BASED(DCT$)");
      150     3007
      151     3008    1           DCB$=B$JIT.DCB$;

   3008  0 000002   000000 470400 xsym               LDP0    B$JIT$
         0 000003   000232 236100                    LDQ     154,,PR0
         0 000004   200003 756100                    STQ     DCB$,,AUTO

      152     3009    1           DCT$=N$DCT$(DCB$->F$DCB.SETX);

   3009  0 000005   200003 471500                    LDP1    DCB$,,AUTO
         0 000006   100051 720100                    LXL0    41,,PR1
         0 000007   000000 473400 xsym               LDP3    N$DCT$$
         0 000010   300000 236110                    LDQ     0,X0,PR3
         0 000011   200005 756100                    STQ     DCT$,,AUTO

      153     3010    1           RAT$=DCT.RAT$;

   3010  0 000012   200005 474500                    LDP4    DCT$,,AUTO
         0 000013   400005 236100                    LDQ     5,,PR4
         0 000014   200004 756100                    STQ     RAT$,,AUTO

      154     3011
      155     3012    1           CALL NAI$RESET;

   3012  0 000015   000002 631400 xsym               EPPR1   B_VECTNIL+2
         0 000016   000000 701000 xent               TSX1    NAI$RESET
         0 000017   000000 011000                    NOP     0

      156     3013    1           CALL FMB$IOSPIN;

PL6.E3A0      #002=NAO$CLS File=NAO$OPN.:E05TSI                                  WED 07/30/97 03:27 Page:31
   3013  0 000020   000002 631400 xsym               EPPR1   B_VECTNIL+2
         0 000021   000000 701000 xent               TSX1    FMB$IOSPIN
         0 000022   000000 011000                    NOP     0

      157     3014    1           DCB$->F$DCB.WAIT=0;

   3014  0 000023   200003 470500                    LDP0    DCB$,,AUTO
         0 000024   000000 236000 1                  LDQ     0
         0 000025   000064 356100                    ANSQ    52,,PR0

      158     3015    1           CALL FMB$IOSPIN;

   3015  0 000026   000002 631400 xsym               EPPR1   B_VECTNIL+2
         0 000027   000000 701000 xent               TSX1    FMB$IOSPIN
         0 000030   000000 011000                    NOP     0

      159     3016
      160     3017    1           MODE=B$JIT.MODE;

   3017  0 000031   000000 470400 xsym               LDP0    B$JIT$
         0 000032   000000 236100                    LDQ     0,,PR0
         0 000033   000040 772000                    QRL     32
         0 000034   200007 756100                    STQ     MODE,,AUTO

      161     3018    1           CALL FRZ$RRESNA(RAT$->FR$RAT,MODE);

   3018  0 000035   200007 631500                    EPPR1   MODE,,AUTO
         0 000036   200011 451500                    STP1    MODE+2,,AUTO
         0 000037   200004 236100                    LDQ     RAT$,,AUTO
         0 000040   200010 756100                    STQ     MODE+1,,AUTO
         0 000041   200010 630500                    EPPR0   MODE+1,,AUTO
         0 000042   000020 631400 xsym               EPPR1   B_VECTNIL+16
         0 000043   000000 701000 xent               TSX1    FRZ$RRESNA
         0 000044   000000 011000                    NOP     0

      162     3019    1           CALL SSR$RUE(%SS_APA);

PL6.E3A0      #002=NAO$CLS File=NAO$OPN.:E05TSI                                  WED 07/30/97 03:27 Page:32
   3019  0 000045   000002 630400 1                  EPPR0   2
         0 000046   000017 631400 xsym               EPPR1   B_VECTNIL+15
         0 000047   000000 701000 xent               TSX1    SSR$RUE
         0 000050   000000 011000                    NOP     0

      163     3020
      164     3021    1           DCB$->F$DCB.FCD='0'B;

   3021  0 000051   200003 470500                    LDP0    DCB$,,AUTO
         0 000052   000003 236000 1                  LDQ     3
         0 000053   000031 356100                    ANSQ    25,,PR0

      165     3022
      166     3023    1           RETURN;

   3023  0 000054   000000 702200 xent               TSX2  ! X66_ARET

(unnamed)
 Sect OctLoc
   1     000   777777 777757   000000 000107   000001 006000   777777 757777    .......G........
      167     3024
      168     3025    1   END NAO$CLS;

PL6.E3A0      #002=NAO$CLS File=NAO$OPN.:E05TSI                                  WED 07/30/97 03:27 Page:33
--  Include file information  --

   SS_SCHED_C.:E05TOU  is referenced.
   NI$TABLES.:E05TOU  is referenced.
   CP_6_SUBS.:E05TOU  is referenced.
   B_ERRORS_C.:E05TOU  is referenced.
   B$JIT_C.:E05TOU  is referenced.
   B$JIT.:E05TOU  cannot be made into a system file and is referenced.
   FR_SUBS.:E05TOU  is referenced.
   FR$RAT.:E05TOU  is referenced.
   F$DCB.:E05TOU  cannot be made into a system file and is referenced.
      No diagnostics issued in procedure NAO$CLS.
PL6.E3A0      #002=NAO$CLS File=NAO$OPN.:E05TSI                                  WED 07/30/97 03:27 Page:34

 **** Variables and constants ****

  ****  Auto variables  ****

  ****  Scalars and arrays  ****
OctLoc.c.b A Datatyp(siz) R M Lvl/name                 OctLoc.c.b A Datatyp(siz) R M Lvl/name

     3-0-0/w PTR         r     1 DCB$                       5-0-0/w PTR         r     1 DCT$
     7-0-0/w UBIN        r     1 MODE                       4-0-0/w PTR         r     1 RAT$

  ****  SYMREF variables  ****

  ****  Scalars and arrays  ****
OctLoc.c.b A Datatyp(siz) R M Lvl/name                 OctLoc.c.b A Datatyp(siz) R M Lvl/name

     0-0-0/w PTR         r     1 B$JIT$                     0-0-0/w PTR         r     1 N$DCT$$

  ****  BASED and DCB variables  ****

  ****  Scalars and arrays  ****
OctLoc.c.b A Datatyp(siz) R M Lvl/name                 OctLoc.c.b A Datatyp(siz) R M Lvl/name

     0-0-0/d STRC(8856)  r     1 B$JIT                      0-0-0/w STRC(1332)  r     1 DCT
     0-0-0/d ASTR(3528)  r     1 F$DCB                      0-0-0/w STRC(324)   r     1 FR$RAT
     0-0-0/w PTR         r     1 N$DCT$(0:0)


   Procedure NAO$CLS requires 45 words for executable code.
   Procedure NAO$CLS requires 10 words of local(AUTO) storage.

    No errors detected in file NAO$OPN.:E05TSI    .
PL6.E3A0      #002=NAO$CLS File=NAO$OPN.:E05TSI                                  WED 07/30/97 03:27 Page:35
          *** CROSS REFERENCE LISTING ***
**     DENOTES     IDENTIFIER DEFINITION
<<                 IDENTIFIER'S VALUE SET
>>                 IDENTIFIER'S VALUE USED
<>                 IDENTIFIER SET AND/OR USED
--                 IDENTIFIER REFERENCED
PL6.E3A0      #002=NAO$CLS File=NAO$OPN.:E05TSI                                  WED 07/30/97 03:27 Page:36
          MINI XREF LISTING

B$JIT.CPFLAGS1.SLEAZE
       646**DCL       646--REDEF
B$JIT.DCB$
       720**DCL      3008>>ASSIGN
B$JIT.ERR.MID
       553**DCL       553--REDEF
B$JIT.JRESPEAK
       714**DCL       715--REDEF
B$JIT.MODE
       547**DCL      3017>>ASSIGN
B$JIT.ORIGINATOR_PORT.FROM_CR
       823**DCL       823--REDEF     824--REDEF
B$JIT.PNR
       727**DCL       727--REDEF
B$JIT.TSLINE
       821**DCL       822--REDEF
B$JIT$
      2956**DCL       547--IMP-PTR  3008>>ASSIGN   3017>>ASSIGN
DCB$
      2950**DCL      3008<<ASSIGN   3009>>ASSIGN   3014>>ASSIGN   3021>>ASSIGN
DCT.DP
      2988**DCL      2995--REDEF    2998--REDEF    2999--REDEF    3001--REDEF    3001--REDEF    3002--REDEF
      3003--REDEF    3003--REDEF
DCT.MPC.IOCHANX
      2996**DCL      2996--REDEF
DCT.RAT$
      2969**DCL      3010>>ASSIGN
DCT$
      2952**DCL      2968--IMP-PTR  3009<<ASSIGN   3010>>ASSIGN
F$DCB.ACTPOS
        41**DCL        41--REDEF
F$DCB.ARS
PL6.E3A0      #002=NAO$CLS File=NAO$OPN.:E05TSI                                  WED 07/30/97 03:27 Page:37
        16**DCL        16--REDEF
F$DCB.ATTR
        34**DCL        35--REDEF
F$DCB.BORROW
        49**DCL        49--REDEF      49--REDEF      49--REDEF
F$DCB.DCBNAME.L
        63**DCL        63--IMP-SIZ
F$DCB.EOMCHAR
        20**DCL        20--REDEF
F$DCB.FCD
        29**DCL      3021<<ASSIGN
F$DCB.FLDID
        44**DCL        44--REDEF
F$DCB.FORM$
        38**DCL        38--REDEF
F$DCB.FSECT
        54**DCL        54--REDEF
F$DCB.FSN
        31**DCL        31--REDEF      31--REDEF      32--REDEF
F$DCB.HEADER$
        37**DCL        37--REDEF
F$DCB.IXTNSIZE
        35**DCL        35--REDEF
F$DCB.LASTSTA$
        25**DCL        25--REDEF
F$DCB.LVL
        50**DCL        50--REDEF
F$DCB.NAME.C
        25**DCL        25--REDEF
F$DCB.NOEOF
        46**DCL        46--REDEF
F$DCB.NRECS
        36**DCL        36--REDEF
F$DCB.NRECX
        55**DCL        55--REDEF
F$DCB.OHDR
PL6.E3A0      #002=NAO$CLS File=NAO$OPN.:E05TSI                                  WED 07/30/97 03:27 Page:38
        47**DCL        47--REDEF
F$DCB.ORG
        30**DCL        30--REDEF
F$DCB.PRECNO
        53**DCL        53--REDEF
F$DCB.RCSZ
        58**DCL        58--REDEF
F$DCB.RES
        26**DCL        26--REDEF
F$DCB.SETX
        38**DCL        38--REDEF    3009>>ASSIGN
F$DCB.TAB$
        37**DCL        38--REDEF
F$DCB.TDA
        52**DCL        52--REDEF
F$DCB.WAIT
        48**DCL      3014<<ASSIGN
F$DCB.WSN
        27**DCL        27--REDEF
FMB$IOSPIN
      2947**DCL-ENT  3013--CALL     3015--CALL
FR$RAT
       119**DCL      3018<>CALL
FRZ$RRESNA
      2946**DCL-ENT  3018--CALL
MODE
      2954**DCL      3017<<ASSIGN   3018<>CALL
N$DCT$
      2958**DCL      3009>>ASSIGN
N$DCT$$
      2957**DCL      2958--IMP-PTR  3009>>ASSIGN
NAI$RESET
      2945**DCL-ENT  3012--CALL
RAT$
      2951**DCL       119--IMP-PTR  3010<<ASSIGN   3018>>CALL
SSR$RUE
PL6.E3A0      #002=NAO$CLS File=NAO$OPN.:E05TSI                                  WED 07/30/97 03:27 Page:39
      2948**DCL-ENT  3019--CALL
