VERSION E05

PL6.E3A0      #001=NIA$LOGERR File=NIA$LOGERR.:E05TSI                            WED 07/30/97 03:27 Page:1
        1        1        /*M* NIA$LOGERR - GENERALIZED ERROR LOGGING ROUTINE FOR I/O SYSTEM */
        2        2        /*T***********************************************************/
        3        3        /*T*                                                         */
        4        4        /*T* Copyright (c) Bull HN Information Systems Inc., 1997    */
        5        5        /*T*                                                         */
        6        6        /*T***********************************************************/
        7        7        /*X* */
        8        8        NIA$LOGERR: PROC(N$REQ,TYPE,INTLVL,STATUS);
        9        9        /*D*    NAME:    NIA$LOGERR
       10       10                INTERFACE:  NIQ$GET
       11       11                            ELA$SYSLOG
       12       12                INPUT:   N$REQ - request packet for which error occured.
       13       13                         TYPE - Type code for error log.
       14       14                DESCRIPTION:
       15       15                   If an error packet has already been obtained for this request
       16       16                a check is made to see if the status and type are the same as the previous
       17       17                error.  If they are the same the error count in the error packet
       18       18                is incremented and no further action is taken.  If the status
       19       19                is not the same the old error packet is sent to the error logger.
       20       20                If necessary a new error packet is obtained through NIQ$GET and
       21       21                the fields in the EL$IOERR packet are filled in.  This packet is
       22       22                then attached to the NI$REQ packet.                        */
       23       23        /*
       24       24                Includes
       25       25        */
       26       26        %INCLUDE                EL$TABLES ;
       27      349        %INCLUDE                EL_SUBS_C ;
       28      433        %INCLUDE                N$REQ ;
       29      507        %INCLUDE                NI$ERRLOG ;
       30      573        %INCLUDE                NI$TABLES ;
       31      789        /*
       32      790                Parameters
       33      791        */
       34      792    1   DCL 1 INTLVL            UBIN(18) PARAM ;
       35      793        %N$REQ                  ( NAME=N$REQ, STCLASS=PARAM ) ;
       36      851    1   DCL 1 STATUS            BIT(72) DALIGNED PARAM ;
       37      852    1   DCL 1 TYPE              UBIN WORD ALIGNED PARAM ;
PL6.E3A0      #001=NIA$LOGERR File=NIA$LOGERR.:E05TSI                            WED 07/30/97 03:27 Page:2
       38      853        /*
       39      854                Entries
       40      855        */
       41      856    1   DCL 1 ELA$SYSLOG        ENTRY(6) ALTRET ;
       42      857    1   DCL 1 NIA$RELERR        ENTRY(1) ;
       43      858    1   DCL 1 NIF$DCWLIST       ENTRY(4) ;
       44      859    1   DCL 1 NIQ$GET           ENTRY(1) ALTRET ;
       45      860    1   DCL 1 NIQ$RELS          ENTRY(1) ALTRET ;
       46      861        /*
       47      862                Auto
       48      863        */
       49      864    1   DCL 1 DCT$              PTR ALIGNED AUTO ;
       50      865    1   DCL 1 DQH$              PTR ALIGNED AUTO ;
       51      866        %EL$FWLOAD              ( NAME=EL$FWLOAD, STCLASS=AUTO ) ;
       52      869        %EL$SPURINT             ( NAME=EL$SPURINT, STCLASS=AUTO ) ;
       53      873    1   DCL 1 ERR$              PTR ALIGNED AUTO ;
       54      874    1   DCL 1 ERRCD             SBIN WORD ALIGNED AUTO ;
       55      875        %NI$IOERR               ( NAME=IOERR, STCLASS=AUTO ) ;
       56      929        /*
       57      930                Based
       58      931        */
       59      932        %NI$DCT                 ( NAME=NI$DCT,   STCLASS="BASED(DCT$)" ) ;
       60      980        %NI$DQH                 ( NAME=NI$DQH,   STCLASS="BASED(DQH$)" ) ;
       61     1003        %NI$IOERR               ( NAME=NI$IOERR, STCLASS="BASED(ERR$)" ) ;
       62     1057        %N$REQ                  ( NAME=REQ,      STCLASS="BASED(ERR$)" ) ;
       63     1115        %EJECT;
PL6.E3A0      #001=NIA$LOGERR File=NIA$LOGERR.:E05TSI                            WED 07/30/97 03:27 Page:3
       64     1116    1           ERR$=N$REQ.ERR$;
       65     1117    1           DCT$=N$REQ.DCT$;
       66     1118    1           IF NI$DCT.STATUS.DOWN THEN RETURN;
       67     1119    1           DQH$=NI$DCT.DQH$;
       68     1120    2           IF ERR$=ADDR(NIL) THEN DO;
       69     1121    2              IOERR='0'B;
       70     1122    2              IOERR.THRESH = '1111'B;
       71     1123    2              IOERR.MPC$ = NI$DQH.MPC$;
       72     1124    2              IOERR.ERRCT=N$REQ.ERRCT;
       73     1125    2              END;
       74     1126    2           ELSE DO;
       75     1127    2              IOERR=NI$IOERR;
       76     1128    2              END;
       77     1129    1           IOERR.TYPE=TYPE;
       78     1130    1           IOERR.STATUS=N$REQ.STATUS;
       79     1131    1           IOERR.IOCHAN.IOM=NI$DQH.IOCHAN.IOM;
       80     1132    1           IOERR.IOCHAN.CHAN=NI$DQH.IOCHAN.CHANNEL;
       81     1133    1           IOERR.IOCHAN.DVN=NI$DCT.DVN;
       82     1134    2           IF ERR$=ADDR(NIL) THEN DO;
       83     1135    2              CALL NIQ$GET(ERR$) ALTRET(NOPKTS);
       84     1136    3              IF REQ.IOFLG.IOS THEN DO;
       85     1137    3                 CALL NIQ$RELS(REQ.IOS$);
       86     1138    3                 REQ.IOFLG.IOS='0'B;
       87     1139    3                 END;
       88     1140    2              NI$IOERR=IOERR;
       89     1141    2              END;
       90     1142    2           ELSE DO;
       91     1143    2              IF (NI$IOERR.STATUS.MAJOR = IOERR.STATUS.MAJOR) AND
       92     1144    2                (NI$IOERR.STATUS.MINOR = IOERR.STATUS.MINOR) AND
       93     1145    2                (NI$IOERR.STATUS.IOM = IOERR.STATUS.IOM)
       94     1146    2              THEN                         /* REPEAT OF THIS ERROR               */
       95     1147    3              DO;
       96     1148    3                 IF IOERR.IOCHAN.IOM ~= NI$IOERR.IOCHAN.IOM
       97     1149    3                 THEN NI$IOERR.THRESH.IOM = '0'B;
       98     1150    3                 IF (IOERR.IOCHAN.CHAN ~= NI$IOERR.IOCHAN.CHAN) OR
       99     1151    3                   (IOERR.IOCHAN.IOM ~= NI$IOERR.IOCHAN.IOM)
      100     1152    3                 THEN NI$IOERR.THRESH.CHANNEL = '0'B;
PL6.E3A0      #001=NIA$LOGERR File=NIA$LOGERR.:E05TSI                            WED 07/30/97 03:27 Page:4
      101     1153    3                 IF NI$DQH.MPC$ ~= ADDR(NIL) THEN
      102     1154    3                    IF NI$IOERR.MPC$->NI$DCT.DEVNM ~= NI$DQH.MPC$->NI$DCT.DEVNM
      103     1155    3                    THEN NI$IOERR.THRESH.MPC = '0'B;
      104     1156    3                 END;                      /* IF REPEAT                          */
      105     1157    2              ELSE
      106     1158    3              DO;
      107     1159    3                 CALL NIA$RELERR(N$REQ);
      108     1160    3                 CALL NIQ$GET(ERR$) ALTRET(NOPKTS);
      109     1161    4                 IF REQ.IOFLG.IOS THEN DO;
      110     1162    4                    REQ.IOFLG.IOS='0'B;
      111     1163    4                    CALL NIQ$RELS(REQ.IOS$);
      112     1164    4                    END;
      113     1165    3                 IOERR.ERRCT = N$REQ.ERRCT;
      114     1166    3                 IOERR.COUNT = 0;
      115     1167    3                 IOERR.THRESH = '1111'B;
      116     1168    3                 IOERR.GOTEXTST = '0'B;
      117     1169    3                 IOERR.EXTST = '0'B;
      118     1170    3                 IOERR.MPC$ = NI$DQH.MPC$;
      119     1171    3                 NI$IOERR = IOERR;
      120     1172    3                 END;
      121     1173    2              END;
      122     1174    1           IF NI$DQH.MPC$ = ADDR(NIL) THEN /* No threshholding done for MCs      */
      123     1175    1              NI$IOERR.THRESH = '0'B;
      124     1176    1           CALL NIF$DCWLIST(N$REQ,NI$IOERR.IDCW,NI$IOERR.DCW,NI$IOERR.MEMADR);
      125     1177    1           NI$IOERR.COUNT=NI$IOERR.COUNT+1;
      126     1178    1           N$REQ.ERR$=ERR$;
      127     1179    1   NOPKTS: RETURN;
      128     1180    1   NIA$FWLOAD: ENTRY(N$REQ,TYPE);
      129     1181    1           DCT$=ADDR(N$REQ);
      130     1182    1           EL$FWLOAD.DEVNM=NI$DCT.DEVNM;
      131     1183    1           EL$FWLOAD.LOADED=~NI$DCT.DFLG.RELOAD;
      132     1184    1           CALL ELA$SYSLOG(TYPE,EL$FWLOAD,SIZEW(EL$FWLOAD),'0'B,1,ERRCD);
      133     1185    1           RETURN;
      134     1186    1   NIA$SPURINT: ENTRY(N$REQ,TYPE,INTLVL,STATUS);
      135     1187    2           DO INHIBIT ;
      136     1188    2              DQH$ = ADDR(N$REQ) ;
      137     1189    2              EL$SPURINT.IOCHAN.IOM  = NI$DQH.IOCHAN.IOM ;
PL6.E3A0      #001=NIA$LOGERR File=NIA$LOGERR.:E05TSI                            WED 07/30/97 03:27 Page:5
      138     1190    2              EL$SPURINT.IOCHAN.CHANNEL = NI$DQH.IOCHAN.CHANNEL ;
      139     1191    2              EL$SPURINT.INTLVL      = INTLVL ;
      140     1192    2              EL$SPURINT.STATUSWORDS = STATUS ;
      141     1193    2              EL$SPURINT.STATE       = NI$DQH.STATE ;
      142     1194    2              EL$SPURINT.STATUS      = NI$DQH.STATUS ;
      143     1195    2              CALL ELA$SYSLOG ( TYPE, EL$SPURINT, SIZEW(EL$SPURINT), '0'B, 1, ERRCD ) ;
      144     1196    2              RETURN ;
      145     1197    2              END /* INHIBIT */ ;
      146     1198    1   END NIA$LOGERR;
      147     1199        %EOD;

PL6.E3A0      #001=NIA$LOGERR File=NIA$LOGERR.:E05TSI                            WED 07/30/97 03:27 Page:6
--  Include file information  --

   NI$TABLES.:E05TOU  is referenced.
   NI$ERRLOG.:E05TOU  is referenced.
   N$REQ.:E05TOU  is referenced.
   EL_SUBS_C.:E05TOU  is referenced.
   EL$TABLES.:E05TOU  is referenced.
      No diagnostics issued in procedure NIA$LOGERR.

   Procedure NIA$LOGERR requires 270 words for executable code.
   Procedure NIA$LOGERR requires 40 words of local(AUTO) storage.

PL6.E3A0      #001=NIA$LOGERR File=NIA$LOGERR.:E05TSI                            WED 07/30/97 03:27 Page:7

 Object Unit name= NIA$LOGERR                                 File name= NIA$LOGERR.:E05TOU
 UTS= JUL 30 '97 03:27:47.72 WED                              Compiler= PL-6/E31         Sev=      00
 SharedLib= :SHARED_SYSTEM                                    Alt SharedLib=


    ****  Control sections  ****

 Sect   Type Bound  Init  Size OctSiz  Section name(segment info)
    0   Proc  even  none   270    416  NIA$LOGERR
    1  RoData even  none     8     10  NIA$LOGERR

    ****  Entry defs  ****

                              Check   Calling
                             calling  sequence
  Sect OctLoc Primary Altret sequence   type   Parms  Name
     0      0   yes            yes      Std        4  NIA$LOGERR
     0    277                  yes      Std        2  NIA$FWLOAD
     0    333                  yes      Std        4  NIA$SPURINT

  ****  Entry refs  ****

         Check        Calling
        calling       sequence
Altret sequence SRef   type   Args  Name
 yes     yes           Std       1 NIQ$GET
 yes     yes           Std       1 NIQ$RELS
         yes           Std       1 NIA$RELERR
         yes           Std       4 NIF$DCWLIST
 yes     yes           Std       6 ELA$SYSLOG
                       nStd      0 X66_AUTO_4
                       nStd      0 X66_ARET
                       Std       0 B_CONSPOOL_D
PL6.E3A0      #001=NIA$LOGERR File=NIA$LOGERR.:E05TSI                            WED 07/30/97 03:27 Page:8

  ****  Data refs  ****

  Flags:  r = read only, s = secondary
Flgs Name                             Flgs Name                             Flgs Name
     B_VECTNIL

  ****  Segment refs  ****

  Flags:  r = read only, s = secondary
Flgs Name                             Flgs Name                             Flgs Name
     ISSID
PL6.E3A0      #001=NIA$LOGERR File=NIA$LOGERR.:E05TSI                            WED 07/30/97 03:27 Page:9


        1        1        /*M* NIA$LOGERR - GENERALIZED ERROR LOGGING ROUTINE FOR I/O SYSTEM */
        2        2        /*T***********************************************************/
        3        3        /*T*                                                         */
        4        4        /*T* Copyright (c) Bull HN Information Systems Inc., 1997    */
        5        5        /*T*                                                         */
        6        6        /*T***********************************************************/
        7        7        /*X* */
        8        8        NIA$LOGERR: PROC(N$REQ,TYPE,INTLVL,STATUS);

      8  0 000000   000000 700200 xent  NIA$LOGERR   TSX0  ! X66_AUTO_4
         0 000001   000050 000004                    ZERO    40,4

        9        9        /*D*    NAME:    NIA$LOGERR
       10       10                INTERFACE:  NIQ$GET
       11       11                            ELA$SYSLOG
       12       12                INPUT:   N$REQ - request packet for which error occured.
       13       13                         TYPE - Type code for error log.
       14       14                DESCRIPTION:
       15       15                   If an error packet has already been obtained for this request
       16       16                a check is made to see if the status and type are the same as the previous
       17       17                error.  If they are the same the error count in the error packet
       18       18                is incremented and no further action is taken.  If the status
       19       19                is not the same the old error packet is sent to the error logger.
       20       20                If necessary a new error packet is obtained through NIQ$GET and
       21       21                the fields in the EL$IOERR packet are filled in.  This packet is
       22       22                then attached to the NI$REQ packet.                        */
       23       23        /*
       24       24                Includes
       25       25        */
       26       26        %INCLUDE                EL$TABLES ;
       27      349        %INCLUDE                EL_SUBS_C ;
       28      433        %INCLUDE                N$REQ ;
       29      507        %INCLUDE                NI$ERRLOG ;
       30      573        %INCLUDE                NI$TABLES ;
       31      789        /*
       32      790                Parameters
PL6.E3A0      #001=NIA$LOGERR File=NIA$LOGERR.:E05TSI                            WED 07/30/97 03:27 Page:10
       33      791        */
       34      792    1   DCL 1 INTLVL            UBIN(18) PARAM ;
       35      793        %N$REQ                  ( NAME=N$REQ, STCLASS=PARAM ) ;
       36      851    1   DCL 1 STATUS            BIT(72) DALIGNED PARAM ;
       37      852    1   DCL 1 TYPE              UBIN WORD ALIGNED PARAM ;
       38      853        /*
       39      854                Entries
       40      855        */
       41      856    1   DCL 1 ELA$SYSLOG        ENTRY(6) ALTRET ;
       42      857    1   DCL 1 NIA$RELERR        ENTRY(1) ;
       43      858    1   DCL 1 NIF$DCWLIST       ENTRY(4) ;
       44      859    1   DCL 1 NIQ$GET           ENTRY(1) ALTRET ;
       45      860    1   DCL 1 NIQ$RELS          ENTRY(1) ALTRET ;
       46      861        /*
       47      862                Auto
       48      863        */
       49      864    1   DCL 1 DCT$              PTR ALIGNED AUTO ;
       50      865    1   DCL 1 DQH$              PTR ALIGNED AUTO ;
       51      866        %EL$FWLOAD              ( NAME=EL$FWLOAD, STCLASS=AUTO ) ;
       52      869        %EL$SPURINT             ( NAME=EL$SPURINT, STCLASS=AUTO ) ;
       53      873    1   DCL 1 ERR$              PTR ALIGNED AUTO ;
       54      874    1   DCL 1 ERRCD             SBIN WORD ALIGNED AUTO ;
       55      875        %NI$IOERR               ( NAME=IOERR, STCLASS=AUTO ) ;
       56      929        /*
       57      930                Based
       58      931        */
       59      932        %NI$DCT                 ( NAME=NI$DCT,   STCLASS="BASED(DCT$)" ) ;
       60      980        %NI$DQH                 ( NAME=NI$DQH,   STCLASS="BASED(DQH$)" ) ;
       61     1003        %NI$IOERR               ( NAME=NI$IOERR, STCLASS="BASED(ERR$)" ) ;
       62     1057        %N$REQ                  ( NAME=REQ,      STCLASS="BASED(ERR$)" ) ;
       63     1115        %EJECT;
PL6.E3A0      #001=NIA$LOGERR File=NIA$LOGERR.:E05TSI                            WED 07/30/97 03:27 Page:11
       64     1116    1           ERR$=N$REQ.ERR$;

   1116  0 000002   200003 470500                    LDP0    @N$REQ,,AUTO
         0 000003   000017 236100                    LDQ     15,,PR0
         0 000004   200017 756100                    STQ     ERR$,,AUTO

       65     1117    1           DCT$=N$REQ.DCT$;

   1117  0 000005   000002 236100                    LDQ     2,,PR0
         0 000006   200007 756100                    STQ     DCT$,,AUTO

       66     1118    1           IF NI$DCT.STATUS.DOWN THEN RETURN;

   1118  0 000007   200007 471500                    LDP1    DCT$,,AUTO
         0 000010   100027 234100                    SZN     23,,PR1
         0 000011   000013 605000 0                  TPL     s:1119

   1118  0 000012   000000 702200 xent               TSX2  ! X66_ARET

       67     1119    1           DQH$=NI$DCT.DQH$;

   1119  0 000013   100023 236100                    LDQ     19,,PR1
         0 000014   200010 756100                    STQ     DQH$,,AUTO

       68     1120    2           IF ERR$=ADDR(NIL) THEN DO;

   1120  0 000015   200017 236100                    LDQ     ERR$,,AUTO
         0 000016   000001 116000 xsym               CMPQ    B_VECTNIL+1
         0 000017   000034 601000 0                  TNZ     s:1127

       69     1121    2              IOERR='0'B;

   1121  0 000020   000100 100400                    MLR     fill='000'O
         0 000021   000002 000001 xsym               ADSC9   B_VECTNIL+2              cn=0,n=1
         0 000022   200021 000104                    ADSC9   IOERR,,AUTO              cn=0,n=68

       70     1122    2              IOERR.THRESH = '1111'B;
PL6.E3A0      #001=NIA$LOGERR File=NIA$LOGERR.:E05TSI                            WED 07/30/97 03:27 Page:12

   1122  0 000023   740000 236003                    LDQ     -16384,DU
         0 000024   200041 256100                    ORSQ    IOERR+16,,AUTO

       71     1123    2              IOERR.MPC$ = NI$DQH.MPC$;

   1123  0 000025   200010 473500                    LDP3    DQH$,,AUTO
         0 000026   300015 236100                    LDQ     13,,PR3
         0 000027   200040 756100                    STQ     IOERR+15,,AUTO

       72     1124    2              IOERR.ERRCT=N$REQ.ERRCT;

   1124  0 000030   000003 236100                    LDQ     3,,PR0
         0 000031   000022 772000                    QRL     18
         0 000032   200024 552110                    STBQ    IOERR+3,'10'O,AUTO

       73     1125    2              END;

   1125  0 000033   000040 710000 0                  TRA     s:1129

       74     1126    2           ELSE DO;

       75     1127    2              IOERR=NI$IOERR;

   1127  0 000034   200017 473500                    LDP3    ERR$,,AUTO
         0 000035   000100 100500                    MLR     fill='000'O
         0 000036   300000 000104                    ADSC9   0,,PR3                   cn=0,n=68
         0 000037   200021 000104                    ADSC9   IOERR,,AUTO              cn=0,n=68

       76     1128    2              END;

       77     1129    1           IOERR.TYPE=TYPE;

   1129  0 000040   200004 473500                    LDP3    @TYPE,,AUTO
         0 000041   300000 235100                    LDA     0,,PR3
         0 000042   200021 755100                    STA     IOERR,,AUTO

PL6.E3A0      #001=NIA$LOGERR File=NIA$LOGERR.:E05TSI                            WED 07/30/97 03:27 Page:13
       78     1130    1           IOERR.STATUS=N$REQ.STATUS;

   1130  0 000043   000014 237100                    LDAQ    12,,PR0
         0 000044   200022 757100                    STAQ    IOERR+1,,AUTO

       79     1131    1           IOERR.IOCHAN.IOM=NI$DQH.IOCHAN.IOM;

   1131  0 000045   200010 474500                    LDP4    DQH$,,AUTO
         0 000046   400001 236100                    LDQ     1,,PR4
         0 000047   000600 376003                    ANQ     384,DU
         0 000050   000002 736000                    QLS     2
         0 000051   200024 676100                    ERQ     IOERR+3,,AUTO
         0 000052   007000 376003                    ANQ     3584,DU
         0 000053   200024 656100                    ERSQ    IOERR+3,,AUTO

       80     1132    1           IOERR.IOCHAN.CHAN=NI$DQH.IOCHAN.CHANNEL;

   1132  0 000054   400001 236100                    LDQ     1,,PR4
         0 000055   000177 376003                    ANQ     127,DU
         0 000056   200024 552120                    STBQ    IOERR+3,'20'O,AUTO

       81     1133    1           IOERR.IOCHAN.DVN=NI$DCT.DVN;

   1133  0 000057   100007 236100                    LDQ     7,,PR1
         0 000060   000006 736000                    QLS     6
         0 000061   200024 752140                    STCQ    IOERR+3,'40'O,AUTO

       82     1134    2           IF ERR$=ADDR(NIL) THEN DO;

   1134  0 000062   200017 236100                    LDQ     ERR$,,AUTO
         0 000063   000001 116000 xsym               CMPQ    B_VECTNIL+1
         0 000064   000116 601000 0                  TNZ     s:1143

       83     1135    2              CALL NIQ$GET(ERR$) ALTRET(NOPKTS);

   1135  0 000065   200017 635500                    EPPR5   ERR$,,AUTO
         0 000066   200042 455500                    STP5    IOERR+17,,AUTO
PL6.E3A0      #001=NIA$LOGERR File=NIA$LOGERR.:E05TSI                            WED 07/30/97 03:27 Page:14
         0 000067   200042 630500                    EPPR0   IOERR+17,,AUTO
         0 000070   000017 631400 xsym               EPPR1   B_VECTNIL+15
         0 000071   000000 701000 xent               TSX1    NIQ$GET
         0 000072   000276 702000 0                  TSX2    NOPKTS

       84     1136    3              IF REQ.IOFLG.IOS THEN DO;

   1136  0 000073   200017 470500                    LDP0    ERR$,,AUTO
         0 000074   000004 236100                    LDQ     4,,PR0
         0 000075   040000 316007                    CANQ    16384,DL
         0 000076   000111 600000 0                  TZE     s:1140

       85     1137    3                 CALL NIQ$RELS(REQ.IOS$);

   1137  0 000077   200017 236100                    LDQ     ERR$,,AUTO
         0 000100   000012 036003                    ADLQ    10,DU
         0 000101   200042 756100                    STQ     IOERR+17,,AUTO
         0 000102   200042 630500                    EPPR0   IOERR+17,,AUTO
         0 000103   000017 631400 xsym               EPPR1   B_VECTNIL+15
         0 000104   000000 701000 xent               TSX1    NIQ$RELS
         0 000105   000000 011000                    NOP     0

       86     1138    3                 REQ.IOFLG.IOS='0'B;

   1138  0 000106   200017 470500                    LDP0    ERR$,,AUTO
         0 000107   000000 236000 1                  LDQ     0
         0 000110   000004 356100                    ANSQ    4,,PR0

       87     1139    3                 END;

       88     1140    2              NI$IOERR=IOERR;

   1140  0 000111   200017 470500                    LDP0    ERR$,,AUTO
         0 000112   000100 100500                    MLR     fill='000'O
         0 000113   200021 000104                    ADSC9   IOERR,,AUTO              cn=0,n=68
         0 000114   000000 000104                    ADSC9   0,,PR0                   cn=0,n=68

PL6.E3A0      #001=NIA$LOGERR File=NIA$LOGERR.:E05TSI                            WED 07/30/97 03:27 Page:15
       89     1141    2              END;

   1141  0 000115   000242 710000 0                  TRA     s:1174

       90     1142    2           ELSE DO;

       91     1143    2              IF (NI$IOERR.STATUS.MAJOR = IOERR.STATUS.MAJOR) AND

   1143  0 000116   200017 475500                    LDP5    ERR$,,AUTO
         0 000117   500001 236100                    LDQ     1,,PR5
         0 000120   200022 676100                    ERQ     IOERR+1,,AUTO
         0 000121   170000 376003                    ANQ     61440,DU
         0 000122   000167 601000 0                  TNZ     s:1159
         0 000123   500001 236100                    LDQ     1,,PR5
         0 000124   200022 676100                    ERQ     IOERR+1,,AUTO
         0 000125   007700 376003                    ANQ     4032,DU
         0 000126   000167 601000 0                  TNZ     s:1159
         0 000127   500001 236100                    LDQ     1,,PR5
         0 000130   200022 676100                    ERQ     IOERR+1,,AUTO
         0 000131   770000 376007                    ANQ     -4096,DL
         0 000132   000167 601000 0                  TNZ     s:1159

       92     1144    2                (NI$IOERR.STATUS.MINOR = IOERR.STATUS.MINOR) AND
       93     1145    2                (NI$IOERR.STATUS.IOM = IOERR.STATUS.IOM)
       94     1146    2              THEN                         /* REPEAT OF THIS ERROR               */
       95     1147    3              DO;

       96     1148    3                 IF IOERR.IOCHAN.IOM ~= NI$IOERR.IOCHAN.IOM

   1148  0 000133   200024 236100                    LDQ     IOERR+3,,AUTO
         0 000134   500003 676100                    ERQ     3,,PR5
         0 000135   007000 376003                    ANQ     3584,DU
         0 000136   000141 600000 0                  TZE     s:1150

       97     1149    3                 THEN NI$IOERR.THRESH.IOM = '0'B;

   1149  0 000137   000031 236000 xsym               LDQ     B_VECTNIL+25
PL6.E3A0      #001=NIA$LOGERR File=NIA$LOGERR.:E05TSI                            WED 07/30/97 03:27 Page:16
         0 000140   500020 356100                    ANSQ    16,,PR5

       98     1150    3                 IF (IOERR.IOCHAN.CHAN ~= NI$IOERR.IOCHAN.CHAN) OR

   1150  0 000141   200024 236100                    LDQ     IOERR+3,,AUTO
         0 000142   500003 676100                    ERQ     3,,PR5
         0 000143   000777 376003                    ANQ     511,DU
         0 000144   000151 601000 0                  TNZ     s:1152
         0 000145   200024 236100                    LDQ     IOERR+3,,AUTO
         0 000146   500003 676100                    ERQ     3,,PR5
         0 000147   007000 376003                    ANQ     3584,DU
         0 000150   000153 600000 0                  TZE     s:1153

       99     1151    3                   (IOERR.IOCHAN.IOM ~= NI$IOERR.IOCHAN.IOM)
      100     1152    3                 THEN NI$IOERR.THRESH.CHANNEL = '0'B;

   1152  0 000151   000001 236000 1                  LDQ     1
         0 000152   500020 356100                    ANSQ    16,,PR5

      101     1153    3                 IF NI$DQH.MPC$ ~= ADDR(NIL) THEN

   1153  0 000153   400015 236100                    LDQ     13,,PR4
         0 000154   000001 116000 xsym               CMPQ    B_VECTNIL+1
         0 000155   000242 600000 0                  TZE     s:1174

      102     1154    3                    IF NI$IOERR.MPC$->NI$DCT.DEVNM ~= NI$DQH.MPC$->NI$DCT.DEVNM

   1154  0 000156   500017 476500                    LDP6    15,,PR5
         0 000157   400015 477500                    LDP7    13,,PR4
         0 000160   040100 106500                    CMPC    fill='040'O
         0 000161   600002 000010                    ADSC9   2,,PR6                   cn=0,n=8
         0 000162   700002 000010                    ADSC9   2,,PR7                   cn=0,n=8
         0 000163   000242 600000 0                  TZE     s:1174

      103     1155    3                    THEN NI$IOERR.THRESH.MPC = '0'B;

   1155  0 000164   000002 236000 1                  LDQ     2
PL6.E3A0      #001=NIA$LOGERR File=NIA$LOGERR.:E05TSI                            WED 07/30/97 03:27 Page:17
         0 000165   500020 356100                    ANSQ    16,,PR5

      104     1156    3                 END;                      /* IF REPEAT                          */

   1156  0 000166   000242 710000 0                  TRA     s:1174

      105     1157    2              ELSE
      106     1158    3              DO;

      107     1159    3                 CALL NIA$RELERR(N$REQ);

   1159  0 000167   200003 630500                    EPPR0   @N$REQ,,AUTO
         0 000170   000017 631400 xsym               EPPR1   B_VECTNIL+15
         0 000171   000000 701000 xent               TSX1    NIA$RELERR
         0 000172   000000 011000                    NOP     0

      108     1160    3                 CALL NIQ$GET(ERR$) ALTRET(NOPKTS);

   1160  0 000173   200017 630500                    EPPR0   ERR$,,AUTO
         0 000174   200042 450500                    STP0    IOERR+17,,AUTO
         0 000175   200042 630500                    EPPR0   IOERR+17,,AUTO
         0 000176   000017 631400 xsym               EPPR1   B_VECTNIL+15
         0 000177   000000 701000 xent               TSX1    NIQ$GET
         0 000200   000276 702000 0                  TSX2    NOPKTS

      109     1161    4                 IF REQ.IOFLG.IOS THEN DO;

   1161  0 000201   200017 470500                    LDP0    ERR$,,AUTO
         0 000202   000004 236100                    LDQ     4,,PR0
         0 000203   040000 316007                    CANQ    16384,DL
         0 000204   000216 600000 0                  TZE     s:1165

      110     1162    4                    REQ.IOFLG.IOS='0'B;

   1162  0 000205   000000 236000 1                  LDQ     0
         0 000206   000004 356100                    ANSQ    4,,PR0

PL6.E3A0      #001=NIA$LOGERR File=NIA$LOGERR.:E05TSI                            WED 07/30/97 03:27 Page:18
      111     1163    4                    CALL NIQ$RELS(REQ.IOS$);

   1163  0 000207   200017 236100                    LDQ     ERR$,,AUTO
         0 000210   000012 036003                    ADLQ    10,DU
         0 000211   200042 756100                    STQ     IOERR+17,,AUTO
         0 000212   200042 630500                    EPPR0   IOERR+17,,AUTO
         0 000213   000017 631400 xsym               EPPR1   B_VECTNIL+15
         0 000214   000000 701000 xent               TSX1    NIQ$RELS
         0 000215   000000 011000                    NOP     0

      112     1164    4                    END;

      113     1165    3                 IOERR.ERRCT = N$REQ.ERRCT;

   1165  0 000216   200003 470500                    LDP0    @N$REQ,,AUTO
         0 000217   000003 236100                    LDQ     3,,PR0
         0 000220   000022 772000                    QRL     18
         0 000221   200024 552110                    STBQ    IOERR+3,'10'O,AUTO

      114     1166    3                 IOERR.COUNT = 0;

   1166  0 000222   000000 236003                    LDQ     0,DU
         0 000223   200024 552104                    STBQ    IOERR+3,'04'O,AUTO

      115     1167    3                 IOERR.THRESH = '1111'B;

   1167  0 000224   740000 236003                    LDQ     -16384,DU
         0 000225   200041 256100                    ORSQ    IOERR+16,,AUTO

      116     1168    3                 IOERR.GOTEXTST = '0'B;

   1168  0 000226   000003 236000 1                  LDQ     3
         0 000227   200041 356100                    ANSQ    IOERR+16,,AUTO

      117     1169    3                 IOERR.EXTST = '0'B;

   1169  0 000230   000100 100400                    MLR     fill='000'O
PL6.E3A0      #001=NIA$LOGERR File=NIA$LOGERR.:E05TSI                            WED 07/30/97 03:27 Page:19
         0 000231   000002 000001 xsym               ADSC9   B_VECTNIL+2              cn=0,n=1
         0 000232   200030 000040                    ADSC9   IOERR+7,,AUTO            cn=0,n=32

      118     1170    3                 IOERR.MPC$ = NI$DQH.MPC$;

   1170  0 000233   200010 471500                    LDP1    DQH$,,AUTO
         0 000234   100015 236100                    LDQ     13,,PR1
         0 000235   200040 756100                    STQ     IOERR+15,,AUTO

      119     1171    3                 NI$IOERR = IOERR;

   1171  0 000236   200017 473500                    LDP3    ERR$,,AUTO
         0 000237   000100 100500                    MLR     fill='000'O
         0 000240   200021 000104                    ADSC9   IOERR,,AUTO              cn=0,n=68
         0 000241   300000 000104                    ADSC9   0,,PR3                   cn=0,n=68

      120     1172    3                 END;

      121     1173    2              END;

      122     1174    1           IF NI$DQH.MPC$ = ADDR(NIL) THEN /* No threshholding done for MCs      */

   1174  0 000242   200010 470500                    LDP0    DQH$,,AUTO
         0 000243   000015 236100                    LDQ     13,,PR0
         0 000244   000001 116000 xsym               CMPQ    B_VECTNIL+1
         0 000245   000251 601000 0                  TNZ     s:1176

      123     1175    1              NI$IOERR.THRESH = '0'B;

   1175  0 000246   200017 471500                    LDP1    ERR$,,AUTO
         0 000247   000004 236000 1                  LDQ     4
         0 000250   100020 356100                    ANSQ    16,,PR1

      124     1176    1           CALL NIF$DCWLIST(N$REQ,NI$IOERR.IDCW,NI$IOERR.DCW,NI$IOERR.MEMADR);

   1176  0 000251   200017 236100                    LDQ     ERR$,,AUTO
         0 000252   000006 036003                    ADLQ    6,DU
PL6.E3A0      #001=NIA$LOGERR File=NIA$LOGERR.:E05TSI                            WED 07/30/97 03:27 Page:20
         0 000253   200045 756100                    STQ     IOERR+20,,AUTO
         0 000254   200017 236100                    LDQ     ERR$,,AUTO
         0 000255   000005 036003                    ADLQ    5,DU
         0 000256   200044 756100                    STQ     IOERR+19,,AUTO
         0 000257   200017 236100                    LDQ     ERR$,,AUTO
         0 000260   000004 036003                    ADLQ    4,DU
         0 000261   200003 235100                    LDA     @N$REQ,,AUTO
         0 000262   200042 757100                    STAQ    IOERR+17,,AUTO
         0 000263   200042 630500                    EPPR0   IOERR+17,,AUTO
         0 000264   000022 631400 xsym               EPPR1   B_VECTNIL+18
         0 000265   000000 701000 xent               TSX1    NIF$DCWLIST
         0 000266   000000 011000                    NOP     0

      125     1177    1           NI$IOERR.COUNT=NI$IOERR.COUNT+1;

   1177  0 000267   200017 470500                    LDP0    ERR$,,AUTO
         0 000270   000003 236100                    LDQ     3,,PR0
         0 000271   000001 036007                    ADLQ    1,DL
         0 000272   000003 552104                    STBQ    3,'04'O,PR0

      126     1178    1           N$REQ.ERR$=ERR$;

   1178  0 000273   200017 236100                    LDQ     ERR$,,AUTO
         0 000274   200003 470500                    LDP0    @N$REQ,,AUTO
         0 000275   000017 756100                    STQ     15,,PR0

      127     1179    1   NOPKTS: RETURN;

   1179  0 000276   000000 702200 xent  NOPKTS       TSX2  ! X66_ARET

      128     1180    1   NIA$FWLOAD: ENTRY(N$REQ,TYPE);

   1180  0 000277   000000 700200 xent  NIA$FWLOAD   TSX0  ! X66_AUTO_4
         0 000300   000050 000004                    ZERO    40,4

      129     1181    1           DCT$=ADDR(N$REQ);

PL6.E3A0      #001=NIA$LOGERR File=NIA$LOGERR.:E05TSI                            WED 07/30/97 03:27 Page:21
   1181  0 000301   200003 236100                    LDQ     @N$REQ,,AUTO
         0 000302   200007 756100                    STQ     DCT$,,AUTO

      130     1182    1           EL$FWLOAD.DEVNM=NI$DCT.DEVNM;

   1182  0 000303   200007 470500                    LDP0    DCT$,,AUTO
         0 000304   040100 100500                    MLR     fill='040'O
         0 000305   000002 000010                    ADSC9   2,,PR0                   cn=0,n=8
         0 000306   200011 000010                    ADSC9   EL$FWLOAD,,AUTO          cn=0,n=8

      131     1183    1           EL$FWLOAD.LOADED=~NI$DCT.DFLG.RELOAD;

   1183  0 000307   000006 236100                    LDQ     6,,PR0
         0 000310   000030 736000                    QLS     24
         0 000311   400000 376003                    ANQ     -131072,DU
         0 000312   400000 676003                    ERQ     -131072,DU
         0 000313   200013 756100                    STQ     EL$FWLOAD+2,,AUTO

      132     1184    1           CALL ELA$SYSLOG(TYPE,EL$FWLOAD,SIZEW(EL$FWLOAD),'0'B,1,ERRCD);

   1184  0 000314   200020 631500                    EPPR1   ERRCD,,AUTO
         0 000315   200047 451500                    STP1    IOERR+22,,AUTO
         0 000316   000005 236000 1                  LDQ     5
         0 000317   200046 756100                    STQ     IOERR+21,,AUTO
         0 000320   000006 237000 1                  LDAQ    6
         0 000321   200044 757100                    STAQ    IOERR+19,,AUTO
         0 000322   200011 633500                    EPPR3   EL$FWLOAD,,AUTO
         0 000323   200043 453500                    STP3    IOERR+18,,AUTO
         0 000324   200004 236100                    LDQ     @TYPE,,AUTO
         0 000325   200042 756100                    STQ     IOERR+17,,AUTO
         0 000326   200042 630500                    EPPR0   IOERR+17,,AUTO
         0 000327   000024 631400 xsym               EPPR1   B_VECTNIL+20
         0 000330   000000 701000 xent               TSX1    ELA$SYSLOG
         0 000331   000000 011000                    NOP     0

      133     1185    1           RETURN;

PL6.E3A0      #001=NIA$LOGERR File=NIA$LOGERR.:E05TSI                            WED 07/30/97 03:27 Page:22
   1185  0 000332   000000 702200 xent               TSX2  ! X66_ARET

      134     1186    1   NIA$SPURINT: ENTRY(N$REQ,TYPE,INTLVL,STATUS);

   1186  0 000333   000000 700200 xent  NIA$SPURINT  TSX0  ! X66_AUTO_4
         0 000334   000050 000004                    ZERO    40,4

      135     1187    2           DO INHIBIT ;

      136     1188    2              DQH$ = ADDR(N$REQ) ;

   1188  0 000335   200003 236300                    LDQ   ! @N$REQ,,AUTO
         0 000336   200010 756300                    STQ   ! DQH$,,AUTO

      137     1189    2              EL$SPURINT.IOCHAN.IOM  = NI$DQH.IOCHAN.IOM ;

   1189  0 000337   200010 470700                    LDP0  ! DQH$,,AUTO
         0 000340   000001 236300                    LDQ   ! 1,,PR0
         0 000341   000600 376203                    ANQ   ! 384,DU
         0 000342   000010 736200                    QLS   ! 8
         0 000343   200014 676300                    ERQ   ! EL$SPURINT,,AUTO
         0 000344   700000 376203                    ANQ   ! -32768,DU
         0 000345   200014 656300                    ERSQ  ! EL$SPURINT,,AUTO

      138     1190    2              EL$SPURINT.IOCHAN.CHANNEL = NI$DQH.IOCHAN.CHANNEL ;

   1190  0 000346   000001 236300                    LDQ   ! 1,,PR0
         0 000347   000177 376203                    ANQ   ! 127,DU
         0 000350   000006 736200                    QLS   ! 6
         0 000351   200014 676300                    ERQ   ! EL$SPURINT,,AUTO
         0 000352   077700 376203                    ANQ   ! 32704,DU
         0 000353   200014 656300                    ERSQ  ! EL$SPURINT,,AUTO

      139     1191    2              EL$SPURINT.INTLVL      = INTLVL ;

   1191  0 000354   200005 471700                    LDP1  ! @INTLVL,,AUTO
         0 000355   100000 236300                    LDQ   ! 0,,PR1
PL6.E3A0      #001=NIA$LOGERR File=NIA$LOGERR.:E05TSI                            WED 07/30/97 03:27 Page:23
         0 000356   000003 772200                    QRL   ! 3
         0 000357   200014 676300                    ERQ   ! EL$SPURINT,,AUTO
         0 000360   700000 376207                    ANQ   ! -32768,DL
         0 000361   200014 656300                    ERSQ  ! EL$SPURINT,,AUTO

      140     1192    2              EL$SPURINT.STATUSWORDS = STATUS ;

   1192  0 000362   200006 473700                    LDP3  ! @STATUS,,AUTO
         0 000363   300000 237300                    LDAQ  ! 0,,PR3
         0 000364   200015 755300                    STA   ! EL$SPURINT+1,,AUTO
         0 000365   200016 756300                    STQ   ! EL$SPURINT+2,,AUTO

      141     1193    2              EL$SPURINT.STATE       = NI$DQH.STATE ;

   1193  0 000366   000001 236300                    LDQ   ! 1,,PR0
         0 000367   000022 736200                    QLS   ! 18
         0 000370   200014 752310                    STCQ  ! EL$SPURINT,'10'O,AUTO

      142     1194    2              EL$SPURINT.STATUS      = NI$DQH.STATUS ;

   1194  0 000371   000001 236300                    LDQ   ! 1,,PR0
         0 000372   000024 772200                    QRL   ! 20
         0 000373   200014 676300                    ERQ   ! EL$SPURINT,,AUTO
         0 000374   070000 376207                    ANQ   ! 28672,DL
         0 000375   200014 656300                    ERSQ  ! EL$SPURINT,,AUTO

      143     1195    2             CALL ELA$SYSLOG ( TYPE, EL$SPURINT, SIZEW(EL$SPURINT), '0'B, 1, ERRCD ) ;

   1195  0 000376   200020 634700                    EPPR4 ! ERRCD,,AUTO
         0 000377   200047 454700                    STP4  ! IOERR+22,,AUTO
         0 000400   000005 236200 1                  LDQ   ! 5
         0 000401   200046 756300                    STQ   ! IOERR+21,,AUTO
         0 000402   000006 237200 1                  LDAQ  ! 6
         0 000403   200044 757300                    STAQ  ! IOERR+19,,AUTO
         0 000404   200014 635700                    EPPR5 ! EL$SPURINT,,AUTO
         0 000405   200043 455700                    STP5  ! IOERR+18,,AUTO
         0 000406   200004 236300                    LDQ   ! @TYPE,,AUTO
PL6.E3A0      #001=NIA$LOGERR File=NIA$LOGERR.:E05TSI                            WED 07/30/97 03:27 Page:24
         0 000407   200042 756300                    STQ   ! IOERR+17,,AUTO
         0 000410   200042 630700                    EPPR0 ! IOERR+17,,AUTO
         0 000411   000024 631600 xsym               EPPR1 ! B_VECTNIL+20
         0 000412   000000 701200 xent               TSX1  ! ELA$SYSLOG
         0 000413   000000 011200                    NOP   ! 0

      144     1196    2              RETURN ;

   1196  0 000414   000000 702200 xent               TSX2  ! X66_ARET

      145     1197    2              END /* INHIBIT */ ;

      146     1198    1   END NIA$LOGERR;

   1198  0 000415   000000 702200 xent               TSX2  ! X66_ARET

(unnamed)
 Sect OctLoc
   1     000   777777 737777   577777 777777   677777 777777   757777 777777    ................
   1     004   037777 777777   000003 006000   000005 006000   000002 006000    ................
      147     1199        %EOD;

PL6.E3A0      #001=NIA$LOGERR File=NIA$LOGERR.:E05TSI                            WED 07/30/97 03:27 Page:25
--  Include file information  --

   NI$TABLES.:E05TOU  is referenced.
   NI$ERRLOG.:E05TOU  is referenced.
   N$REQ.:E05TOU  is referenced.
   EL_SUBS_C.:E05TOU  is referenced.
   EL$TABLES.:E05TOU  is referenced.
      No diagnostics issued in procedure NIA$LOGERR.
PL6.E3A0      #001=NIA$LOGERR File=NIA$LOGERR.:E05TSI                            WED 07/30/97 03:27 Page:26

 **** Variables and constants ****

  ****  Auto variables  ****

  ****  Scalars and arrays  ****
OctLoc.c.b A Datatyp(siz) R M Lvl/name                 OctLoc.c.b A Datatyp(siz) R M Lvl/name

     5-0-0/w PTR         r     1 @INTLVL                    3-0-0/w PTR         r     1 @N$REQ
     6-0-0/w PTR         r     1 @STATUS                    4-0-0/w PTR         r     1 @TYPE
     7-0-0/w PTR         r     1 DCT$                      10-0-0/w PTR         r     1 DQH$
    11-0-0/w STRC(73)    r     1 EL$FWLOAD                 14-0-0/w STRC(108)   r     1 EL$SPURINT
    17-0-0/w PTR         r     1 ERR$                      20-0-0/w SBIN        r     1 ERRCD
    *0-0-0/w UBIN(18)    r     1 INTLVL                    21-0-0/w STRC(612)   r     1 IOERR
    *0-0-0/d STRC(1080)  r     1 N$REQ                     *0-0-0/d BIT (72)    r     1 STATUS
    *0-0-0/w UBIN        r     1 TYPE

  ****  BASED and DCB variables  ****

  ****  Scalars and arrays  ****
OctLoc.c.b A Datatyp(siz) R M Lvl/name                 OctLoc.c.b A Datatyp(siz) R M Lvl/name

     0-0-0/w STRC(1332)  r     1 NI$DCT                     0-0-0/w STRC(648)   r     1 NI$DQH
     0-0-0/w STRC(612)   r     1 NI$IOERR                   0-0-0/d STRC(1080)  r     1 REQ


   Procedure NIA$LOGERR requires 270 words for executable code.
   Procedure NIA$LOGERR requires 40 words of local(AUTO) storage.
PL6.E3A0      #001=NIA$LOGERR File=NIA$LOGERR.:E05TSI                            WED 07/30/97 03:27 Page:27
          *** CROSS REFERENCE LISTING ***
**     DENOTES     IDENTIFIER DEFINITION
<<                 IDENTIFIER'S VALUE SET
>>                 IDENTIFIER'S VALUE USED
<>                 IDENTIFIER SET AND/OR USED
--                 IDENTIFIER REFERENCED
PL6.E3A0      #001=NIA$LOGERR File=NIA$LOGERR.:E05TSI                            WED 07/30/97 03:27 Page:28
          MINI XREF LISTING

DCT$
       864**DCL       941--IMP-PTR  1117<<ASSIGN   1118>>IF       1119>>ASSIGN   1133>>ASSIGN   1181<<ASSIGN
      1182>>ASSIGN   1183>>ASSIGN
DQH$
       865**DCL       989--IMP-PTR  1119<<ASSIGN   1123>>ASSIGN   1131>>ASSIGN   1132>>ASSIGN   1153>>IF
      1154>>IF       1170>>ASSIGN   1174>>IF       1188<<ASSIGN   1189>>ASSIGN   1190>>ASSIGN   1193>>ASSIGN
      1194>>ASSIGN
EL$FWLOAD
       867**DCL      1184<>CALL     1184--CALL
EL$FWLOAD.DEVNM
       867**DCL      1182<<ASSIGN
EL$FWLOAD.LOADED
       867**DCL      1183<<ASSIGN
EL$SPURINT
       870**DCL      1195<>CALL     1195--CALL
EL$SPURINT.INTLVL
       870**DCL      1191<<ASSIGN
EL$SPURINT.IOCHAN.CHANNEL
       870**DCL      1190<<ASSIGN
EL$SPURINT.IOCHAN.IOM
       870**DCL      1189<<ASSIGN
EL$SPURINT.STATE
       870**DCL      1193<<ASSIGN
EL$SPURINT.STATUS
       870**DCL      1194<<ASSIGN
EL$SPURINT.STATUSWORDS
       871**DCL      1192<<ASSIGN
ELA$SYSLOG
       856**DCL-ENT  1184--CALL     1195--CALL
ERR$
       873**DCL      1004--IMP-PTR  1066--IMP-PTR  1116<<ASSIGN   1120>>IF       1127>>ASSIGN   1134>>IF
      1135<>CALL     1136>>IF       1137>>CALL     1138>>ASSIGN   1140>>ASSIGN   1143>>IF       1143>>IF
PL6.E3A0      #001=NIA$LOGERR File=NIA$LOGERR.:E05TSI                            WED 07/30/97 03:27 Page:29
      1143>>IF       1148>>IF       1149>>ASSIGN   1150>>IF       1150>>IF       1152>>ASSIGN   1154>>IF
      1155>>ASSIGN   1160<>CALL     1161>>IF       1162>>ASSIGN   1163>>CALL     1171>>ASSIGN   1175>>ASSIGN
      1176>>CALL     1176>>CALL     1176>>CALL     1177>>ASSIGN   1177>>ASSIGN   1178>>ASSIGN
ERRCD
       874**DCL      1184<>CALL     1195<>CALL
INTLVL
       792**DCL         8--PROC     1186--ENTRY    1191>>ASSIGN
IOERR
       876**DCL      1121<<ASSIGN   1127<<ASSIGN   1140>>ASSIGN   1171>>ASSIGN
IOERR.COUNT
       899**DCL      1166<<ASSIGN
IOERR.ERRCT
       898**DCL      1124<<ASSIGN   1165<<ASSIGN
IOERR.EXTST
       903**DCL       905--REDEF    1169<<ASSIGN
IOERR.GOTEXTST
       926**DCL      1168<<ASSIGN
IOERR.IOCHAN.CHAN
       897**DCL      1132<<ASSIGN   1150>>IF
IOERR.IOCHAN.DVN
       895**DCL      1133<<ASSIGN
IOERR.IOCHAN.IOM
       896**DCL      1131<<ASSIGN   1148>>IF       1150>>IF
IOERR.MPC$
       920**DCL      1123<<ASSIGN   1170<<ASSIGN
IOERR.STATUS
       878**DCL      1130<<ASSIGN
IOERR.STATUS.IOM
       888**DCL      1143>>IF
IOERR.STATUS.MAJOR
       881**DCL      1143>>IF
IOERR.STATUS.MINOR
       882**DCL      1143>>IF
IOERR.THRESH
       921**DCL      1122<<ASSIGN   1167<<ASSIGN
IOERR.TYPE
PL6.E3A0      #001=NIA$LOGERR File=NIA$LOGERR.:E05TSI                            WED 07/30/97 03:27 Page:30
       877**DCL      1129<<ASSIGN
N$REQ
       802**DCL         8--PROC     1159<>CALL     1176<>CALL     1180--ENTRY    1181--ASSIGN   1186--ENTRY
      1188--ASSIGN
N$REQ.BUFADDR
       811**DCL       812--REDEF     812--REDEF
N$REQ.DCT$
       803**DCL      1117>>ASSIGN
N$REQ.DLA.DRELADDR
       803**DCL       803--REDEF
N$REQ.DVE.EOMCHAR
       840**DCL       841--REDEF
N$REQ.EAINFO
       834**DCL       834--REDEF
N$REQ.EAINFOX
       834**DCL       835--REDEF
N$REQ.ERR$
       824**DCL      1116>>ASSIGN   1178<<ASSIGN
N$REQ.ERRCT
       804**DCL      1124>>ASSIGN   1165>>ASSIGN
N$REQ.EVNTINFO
       835**DCL       835--REDEF
N$REQ.STATUS
       816**DCL       822--REDEF    1130>>ASSIGN
NI$DCT.DEVNM
       941**DCL      1154>>IF       1154>>IF       1182>>ASSIGN
NI$DCT.DFLG.RELOAD
       945**DCL      1183>>ASSIGN
NI$DCT.DP
       961**DCL       968--REDEF     971--REDEF     972--REDEF     974--REDEF     974--REDEF     975--REDEF
       976--REDEF     976--REDEF
NI$DCT.DQH$
       957**DCL      1119>>ASSIGN
NI$DCT.DVN
       950**DCL      1133>>ASSIGN
NI$DCT.MPC.IOCHANX
PL6.E3A0      #001=NIA$LOGERR File=NIA$LOGERR.:E05TSI                            WED 07/30/97 03:27 Page:31
       969**DCL       969--REDEF
NI$DCT.STATUS.DOWN
       958**DCL      1118>>IF
NI$DQH.IOCHAN.CHANNEL
       992**DCL      1132>>ASSIGN   1190>>ASSIGN
NI$DQH.IOCHAN.IOM
       992**DCL      1131>>ASSIGN   1189>>ASSIGN
NI$DQH.IOCHANX
       991**DCL       992--REDEF
NI$DQH.MBX$
      1000**DCL      1001--REDEF
NI$DQH.MPC$
       996**DCL      1123>>ASSIGN   1153>>IF       1154>>IF       1170>>ASSIGN   1174>>IF
NI$DQH.STATE
       993**DCL      1193>>ASSIGN
NI$DQH.STATUS
       989**DCL      1194>>ASSIGN
NI$IOERR
      1004**DCL      1127>>ASSIGN   1140<<ASSIGN   1171<<ASSIGN
NI$IOERR.COUNT
      1027**DCL      1177<<ASSIGN   1177>>ASSIGN
NI$IOERR.DCW
      1029**DCL      1176<>CALL
NI$IOERR.EXTST
      1031**DCL      1033--REDEF
NI$IOERR.IDCW
      1028**DCL      1176<>CALL
NI$IOERR.IOCHAN.CHAN
      1025**DCL      1150>>IF
NI$IOERR.IOCHAN.IOM
      1024**DCL      1148>>IF       1150>>IF
NI$IOERR.MEMADR
      1030**DCL      1176<>CALL
NI$IOERR.MPC$
      1048**DCL      1154>>IF
NI$IOERR.STATUS.IOM
PL6.E3A0      #001=NIA$LOGERR File=NIA$LOGERR.:E05TSI                            WED 07/30/97 03:27 Page:32
      1016**DCL      1143>>IF
NI$IOERR.STATUS.MAJOR
      1009**DCL      1143>>IF
NI$IOERR.STATUS.MINOR
      1010**DCL      1143>>IF
NI$IOERR.THRESH
      1049**DCL      1175<<ASSIGN
NI$IOERR.THRESH.CHANNEL
      1051**DCL      1152<<ASSIGN
NI$IOERR.THRESH.IOM
      1050**DCL      1149<<ASSIGN
NI$IOERR.THRESH.MPC
      1052**DCL      1155<<ASSIGN
NIA$RELERR
       857**DCL-ENT  1159--CALL
NIF$DCWLIST
       858**DCL-ENT  1176--CALL
NIQ$GET
       859**DCL-ENT  1135--CALL     1160--CALL
NIQ$RELS
       860**DCL-ENT  1137--CALL     1163--CALL
NOPKTS
      1179**LABEL    1135--CALLALT  1160--CALLALT
REQ.BUFADDR
      1075**DCL      1076--REDEF    1076--REDEF
REQ.DLA.DRELADDR
      1067**DCL      1067--REDEF
REQ.DVE.EOMCHAR
      1104**DCL      1105--REDEF
REQ.EAINFO
      1098**DCL      1098--REDEF
REQ.EAINFOX
      1098**DCL      1099--REDEF
REQ.EVNTINFO
      1099**DCL      1099--REDEF
REQ.IOFLG.IOS
PL6.E3A0      #001=NIA$LOGERR File=NIA$LOGERR.:E05TSI                            WED 07/30/97 03:27 Page:33
      1070**DCL      1136>>IF       1138<<ASSIGN   1161>>IF       1162<<ASSIGN
REQ.IOS$
      1079**DCL      1137<>CALL     1163<>CALL
REQ.STATUS
      1080**DCL      1086--REDEF
STATUS
       851**DCL         8--PROC     1186--ENTRY    1192>>ASSIGN
TYPE
       852**DCL         8--PROC     1129>>ASSIGN   1180--ENTRY    1184<>CALL     1186--ENTRY    1195<>CALL

PL6.E3A0      #002=NIA$RELERR File=NIA$LOGERR.:E05TSI                            WED 07/30/97 03:28 Page:34
      148        1        /*T***********************************************************/
      149        2        /*T*                                                         */
      150        3        /*T* Copyright (c) Bull HN Information Systems Inc., 1997    */
      151        4        /*T*                                                         */
      152        5        /*T***********************************************************/
      153        6        NIA$RELERR: PROC(N$REQ);
      154        7        /*D*    NAME:    NIA$RELERR
      155        8                PURPOSE: Log errors that were saved up for an I/O request.
      156        9                INTERFACE:  ELA$SYSLOG
      157       10                            NIQ$REL
      158       11                DESCRIPTION:
      159       12                   ELA$SYSLOG is call to log the error, then NIQ$REL is called
      160       13                to release the error packet.                               */
      161       14        /*
      162       15                Includes
      163       16        */
      164       17        %INCLUDE                EL$TABLES ;
      165      340        %INCLUDE                FR$RAT ;
      166      393        %INCLUDE                NI$ERRLOG ;
      167      459        %INCLUDE                NI_DATA_R ;
      168      896        /**/
      169      897        /*
      170      898                Parameters
      171      899        */
      172      900        %N$REQ                  ( NAME=N$REQ, STCLASS=PARAM ) ;
      173      958        /*
      174      959                Entries
      175      960        */
      176      961    1   DCL 1 ELA$SYSLOG        ENTRY(6) ALTRET ;
      177      962    1   DCL 1 NIQ$REL           ENTRY(1) ALTRET ;
      178      963        /*
      179      964                Auto
      180      965        */
      181      966    1   DCL 1 DCT$              PTR ALIGNED AUTO ;
      182      967    1   DCL 1 DQH$              PTR ALIGNED AUTO ;
      183      968    1   DCL 1 DVT$              PTR ALIGNED AUTO ;
      184      969        %EL$IOERR               ( NAME=EL$IOERR, STCLASS=AUTO ) ;
PL6.E3A0      #002=NIA$RELERR File=NIA$LOGERR.:E05TSI                            WED 07/30/97 03:28 Page:35
      185      979    1   DCL 1 ERR$              PTR ALIGNED AUTO ;
      186      980    1   DCL 1 ERRCD             SBIN WORD ALIGNED AUTO ;
      187      981    1   DCL 1 IOM$              PTR ALIGNED AUTO ;
      188      982    1   DCL 1 MPC$              PTR ALIGNED AUTO ;
      189      983    1   DCL 1 RAT$              PTR ALIGNED AUTO ;
      190      984        /*
      191      985                Based
      192      986        */
      193      987        %NI$DCT                 ( NAME=DCT,             STCLASS="BASED(DCT$)" ) ;
      194     1035        %NI$DQH                 ( NAME=DQH,             STCLASS="BASED(DQH$)" ) ;
      195     1058        %NI$DVT                 ( NAME=DVT,             STCLASS="BASED(DVT$)" ) ;
      196     1065        %NI$REQ                 ( NAME=IOS,             STCLASS=BASED ) ;
      197     1090        %NI$IOM                 ( NAME=IOM,             STCLASS="BASED(IOM$)" ) ;
      198     1095        %NI$DCT                 ( NAME=MPC,             STCLASS="BASED(MPC$)" ) ;
      199     1143        %NI$CHT ;
      200     1146        %NI$IOERR               ( NAME=NI$IOERR,        STCLASS="BASED(ERR$)" ) ;
      201     1200        %FR$RAT                 ( NAME=RAT,             STCLASS="BASED(RAT$)" ) ;
      202     1240        %EJECT ;
PL6.E3A0      #002=NIA$RELERR File=NIA$LOGERR.:E05TSI                            WED 07/30/97 03:28 Page:36
      203     1241    1           ERR$=N$REQ.ERR$;
      204     1242    1           DCT$=N$REQ.DCT$;
      205     1243    1           DQH$=NI$CHT.DQH$(NI$IOERR.IOCHAN.IOM*%N_MAXCHANS+NI$IOERR.IOCHAN.CHAN);
      206     1244    1           MPC$=DQH.MPC$;
      207     1245    1           IOM$=NI$IOM$(DQH.IOCHAN.IOM);   /* FAULT CHANNEL                      */
      208     1246    1           RAT$=DCT.RAT$;
      209     1247    1           EL$IOERR.REQID=N$REQ.REQID;
      210     1248    1           EL$IOERR.STATUS=NI$IOERR.STATUS;
      211     1249    1           EL$IOERR.FINAL=N$REQ.STATUS;
      212     1250    1           EL$IOERR.IOCHAN=NI$IOERR.IOCHAN;
      213     1251    1           EL$IOERR.ERRCT=NI$IOERR.ERRCT;
      214     1252    1           EL$IOERR.THRESH=NI$IOERR.THRESH;
      215     1253    1           EL$IOERR.COUNT=NI$IOERR.COUNT;
      216     1254    1           EL$IOERR.IDCW=NI$IOERR.IDCW;
      217     1255    1           EL$IOERR.DCW=NI$IOERR.DCW;
      218     1256    1           EL$IOERR.MEMADR=NI$IOERR.MEMADR;
      219     1257    1           EL$IOERR.EXTST = NI$IOERR.EXTST;
      220     1258    1           IF N$REQ.IOFLG.IOS THEN
      221     1259    1              EL$IOERR.SEEK = N$REQ.IOS$->IOS.SEEK;
      222     1260    1           EL$IOERR.DEVNM=DCT.DEVNM;
      223     1261    1           IF RAT$~=ADDR(NIL) THEN
      224     1262    1              EL$IOERR.SN=RAT.REEL.SER;
      225     1263    1           ELSE EL$IOERR.SN=' ';
      226     1264    2           IF EL$IOERR.THRESH.IOM THEN DO;
      227     1265    2              EL$IOERR.CONNECTS.IOM=IOM.CONNCT-IOM.ERRCNCT;
      228     1266    2              IOM.CONNCT=IOM.ERRCNCT;
      229     1267    2              END;
      230     1268    2           IF EL$IOERR.THRESH.CHANNEL THEN DO;
      231     1269    2              EL$IOERR.CONNECTS.CHANNEL=DQH.PM.CONNCT-DQH.ERRCNCT;
      232     1270    2              DQH.ERRCNCT=DQH.PM.CONNCT;
      233     1271    2              END;
      234     1272    2           IF EL$IOERR.THRESH.MPC THEN DO;
      235     1273    2              EL$IOERR.CONNECTS.MPC=MPC.MPC.CONNCT-MPC.MPC.ERRCNCT;
      236     1274    2              MPC.MPC.ERRCNCT=MPC.MPC.CONNCT;
      237     1275    2              END;
      238     1276    2           IF EL$IOERR.THRESH.DEVICE THEN DO;
      239     1277    2              EL$IOERR.CONNECTS.DEVICE=DCT.PM.CONNCT-DCT.ERRCNCT;
PL6.E3A0      #002=NIA$RELERR File=NIA$LOGERR.:E05TSI                            WED 07/30/97 03:28 Page:37
      240     1278    2              DCT.ERRCNCT=DCT.PM.CONNCT;
      241     1279    2              END;
      242     1280    1           EL$IOERR.MODEL = DCT.DVT$->DVT.MODEL(DCT.MODX);
      243     1281    1           IF MPC$ = ADDR(NIL) THEN
      244     1282    1              EL$IOERR.MPC_MODEL = ' ' ;
      245     1283    1           ELSE
      246     1284    1              EL$IOERR.MPC_MODEL = MPC.DVT$->DVT.MODEL(MPC.MODX);
      247     1285    1           EL$IOERR.TYC = N$REQ.TYC;
      248     1286    1           EL$IOERR.FLPW = N$REQ.FLPW;
      249     1287    1           CALL ELA$SYSLOG(NI$IOERR.TYPE,EL$IOERR,SIZEW(EL$IOERR),'0'B,1,ERRCD);
      250     1288    1           ERR$ -> NI$IOERR = N$REQ_INIT ;
      251     1289    1           CALL NIQ$REL(ERR$);
      252     1290    1           N$REQ.ERR$ = ADDR(NIL);
      253     1291    1           RETURN;
      254     1292    1   END NIA$RELERR;

PL6.E3A0      #002=NIA$RELERR File=NIA$LOGERR.:E05TSI                            WED 07/30/97 03:28 Page:38
--  Include file information  --

   NI$TABLES.:E05TOU  is referenced.
   N$REQ.:E05TOU  is referenced.
   NI_DATA_R.:E05TOU  cannot be made into a system file and is referenced.
   NI$ERRLOG.:E05TOU  is referenced.
   FR$RAT.:E05TOU  is referenced.
   EL$TABLES.:E05TOU  is referenced.
      No diagnostics issued in procedure NIA$RELERR.

   Procedure NIA$RELERR requires 174 words for executable code.
   Procedure NIA$RELERR requires 48 words of local(AUTO) storage.

    No errors detected in file NIA$LOGERR.:E05TSI    .

PL6.E3A0      #002=NIA$RELERR File=NIA$LOGERR.:E05TSI                            WED 07/30/97 03:28 Page:39

 Object Unit name= NIA$RELERR                                 File name= NIA$LOGERR.:E05TOU
 UTS= JUL 30 '97 03:28:12.12 WED                              Compiler= PL-6/E31         Sev=      00
 SharedLib= :SHARED_SYSTEM                                    Alt SharedLib=


    ****  Control sections  ****

 Sect   Type Bound  Init  Size OctSiz  Section name(segment info)
    0   Proc  even  none   174    256  NIA$RELERR
    1  RoData even  none     4      4  NIA$RELERR

    ****  Entry defs  ****

                              Check   Calling
                             calling  sequence
  Sect OctLoc Primary Altret sequence   type   Parms  Name
     0      0   yes            yes      Std        1  NIA$RELERR

  ****  Entry refs  ****

         Check        Calling
        calling       sequence
Altret sequence SRef   type   Args  Name
 yes     yes           Std       6 ELA$SYSLOG
 yes     yes           Std       1 NIQ$REL
                       nStd      0 X66_AUTO_1
                       Std       0 B_CONSPOOL_D
                       nStd      0 X66_ARET

  ****  Data refs  ****

  Flags:  r = read only, s = secondary
Flgs Name                             Flgs Name                             Flgs Name
     N$DCT$$                               N$FQ$                            r    N$REQ_INIT
     NI$CHT$                               NI$FQ$                                NI$IBUF$
     NI$IOM$                               NI$RP$                                B_VECTNIL
PL6.E3A0      #002=NIA$RELERR File=NIA$LOGERR.:E05TSI                            WED 07/30/97 03:28 Page:40

  ****  Segment refs  ****

  Flags:  r = read only, s = secondary
Flgs Name                             Flgs Name                             Flgs Name
     ISSID
PL6.E3A0      #002=NIA$RELERR File=NIA$LOGERR.:E05TSI                            WED 07/30/97 03:28 Page:41


      148        1        /*T***********************************************************/
      149        2        /*T*                                                         */
      150        3        /*T* Copyright (c) Bull HN Information Systems Inc., 1997    */
      151        4        /*T*                                                         */
      152        5        /*T***********************************************************/
      153        6        NIA$RELERR: PROC(N$REQ);

      6  0 000000   000000 700200 xent  NIA$RELERR   TSX0  ! X66_AUTO_1
         0 000001   000060 000001                    ZERO    48,1

      154        7        /*D*    NAME:    NIA$RELERR
      155        8                PURPOSE: Log errors that were saved up for an I/O request.
      156        9                INTERFACE:  ELA$SYSLOG
      157       10                            NIQ$REL
      158       11                DESCRIPTION:
      159       12                   ELA$SYSLOG is call to log the error, then NIQ$REL is called
      160       13                to release the error packet.                               */
      161       14        /*
      162       15                Includes
      163       16        */
      164       17        %INCLUDE                EL$TABLES ;
      165      340        %INCLUDE                FR$RAT ;
      166      393        %INCLUDE                NI$ERRLOG ;
      167      459        %INCLUDE                NI_DATA_R ;
      168      896        /**/
      169      897        /*
      170      898                Parameters
      171      899        */
      172      900        %N$REQ                  ( NAME=N$REQ, STCLASS=PARAM ) ;
      173      958        /*
      174      959                Entries
      175      960        */
      176      961    1   DCL 1 ELA$SYSLOG        ENTRY(6) ALTRET ;
      177      962    1   DCL 1 NIQ$REL           ENTRY(1) ALTRET ;
      178      963        /*
      179      964                Auto
PL6.E3A0      #002=NIA$RELERR File=NIA$LOGERR.:E05TSI                            WED 07/30/97 03:28 Page:42
      180      965        */
      181      966    1   DCL 1 DCT$              PTR ALIGNED AUTO ;
      182      967    1   DCL 1 DQH$              PTR ALIGNED AUTO ;
      183      968    1   DCL 1 DVT$              PTR ALIGNED AUTO ;
      184      969        %EL$IOERR               ( NAME=EL$IOERR, STCLASS=AUTO ) ;
      185      979    1   DCL 1 ERR$              PTR ALIGNED AUTO ;
      186      980    1   DCL 1 ERRCD             SBIN WORD ALIGNED AUTO ;
      187      981    1   DCL 1 IOM$              PTR ALIGNED AUTO ;
      188      982    1   DCL 1 MPC$              PTR ALIGNED AUTO ;
      189      983    1   DCL 1 RAT$              PTR ALIGNED AUTO ;
      190      984        /*
      191      985                Based
      192      986        */
      193      987        %NI$DCT                 ( NAME=DCT,             STCLASS="BASED(DCT$)" ) ;
      194     1035        %NI$DQH                 ( NAME=DQH,             STCLASS="BASED(DQH$)" ) ;
      195     1058        %NI$DVT                 ( NAME=DVT,             STCLASS="BASED(DVT$)" ) ;
      196     1065        %NI$REQ                 ( NAME=IOS,             STCLASS=BASED ) ;
      197     1090        %NI$IOM                 ( NAME=IOM,             STCLASS="BASED(IOM$)" ) ;
      198     1095        %NI$DCT                 ( NAME=MPC,             STCLASS="BASED(MPC$)" ) ;
      199     1143        %NI$CHT ;
      200     1146        %NI$IOERR               ( NAME=NI$IOERR,        STCLASS="BASED(ERR$)" ) ;
      201     1200        %FR$RAT                 ( NAME=RAT,             STCLASS="BASED(RAT$)" ) ;
      202     1240        %EJECT ;
PL6.E3A0      #002=NIA$RELERR File=NIA$LOGERR.:E05TSI                            WED 07/30/97 03:28 Page:43
      203     1241    1           ERR$=N$REQ.ERR$;

   1241  0 000002   200003 470500                    LDP0    @N$REQ,,AUTO
         0 000003   000017 236100                    LDQ     15,,PR0
         0 000004   200045 756100                    STQ     ERR$,,AUTO

      204     1242    1           DCT$=N$REQ.DCT$;

   1242  0 000005   000002 236100                    LDQ     2,,PR0
         0 000006   200004 756100                    STQ     DCT$,,AUTO

      205     1243    1           DQH$=NI$CHT.DQH$(NI$IOERR.IOCHAN.IOM*%N_MAXCHANS+NI$IOERR.IOCHAN.CHAN);

   1243  0 000007   200045 471500                    LDP1    ERR$,,AUTO
         0 000010   100003 236100                    LDQ     3,,PR1
         0 000011   000022 772000                    QRL     18
         0 000012   000777 376007                    ANQ     511,DL
         0 000013   200052 756100                    STQ     RAT$+1,,AUTO
         0 000014   100003 236100                    LDQ     3,,PR1
         0 000015   000024 772000                    QRL     20
         0 000016   001600 376007                    ANQ     896,DL
         0 000017   200052 036100                    ADLQ    RAT$+1,,AUTO
         0 000020   000001 736000                    QLS     1
         0 000021   000000 473400 xsym               LDP3    NI$CHT$
         0 000022   300000 236106                    LDQ     0,QL,PR3
         0 000023   200005 756100                    STQ     DQH$,,AUTO

      206     1244    1           MPC$=DQH.MPC$;

   1244  0 000024   200005 474500                    LDP4    DQH$,,AUTO
         0 000025   400015 236100                    LDQ     13,,PR4
         0 000026   200050 756100                    STQ     MPC$,,AUTO

      207     1245    1           IOM$=NI$IOM$(DQH.IOCHAN.IOM);   /* FAULT CHANNEL                      */

   1245  0 000027   400001 236100                    LDQ     1,,PR4
         0 000030   000031 772000                    QRL     25
PL6.E3A0      #002=NIA$RELERR File=NIA$LOGERR.:E05TSI                            WED 07/30/97 03:28 Page:44
         0 000031   000003 376007                    ANQ     3,DL
         0 000032   000000 236006 xsym               LDQ     NI$IOM$,QL
         0 000033   200047 756100                    STQ     IOM$,,AUTO

      208     1246    1           RAT$=DCT.RAT$;

   1246  0 000034   200004 475500                    LDP5    DCT$,,AUTO
         0 000035   500005 236100                    LDQ     5,,PR5
         0 000036   200051 756100                    STQ     RAT$,,AUTO

      209     1247    1           EL$IOERR.REQID=N$REQ.REQID;

   1247  0 000037   000010 236100                    LDQ     8,,PR0
         0 000040   000022 772000                    QRL     18
         0 000041   200007 756100                    STQ     EL$IOERR,,AUTO

      210     1248    1           EL$IOERR.STATUS=NI$IOERR.STATUS;

   1248  0 000042   000100 100500                    MLR     fill='000'O
         0 000043   100001 000010                    ADSC9   1,,PR1                   cn=0,n=8
         0 000044   200010 000010                    ADSC9   EL$IOERR+1,,AUTO         cn=0,n=8

      211     1249    1           EL$IOERR.FINAL=N$REQ.STATUS;

   1249  0 000045   000014 237100                    LDAQ    12,,PR0
         0 000046   200012 757100                    STAQ    EL$IOERR+3,,AUTO

      212     1250    1           EL$IOERR.IOCHAN=NI$IOERR.IOCHAN;

   1250  0 000047   100003 220100                    LDX0    3,,PR1
         0 000050   200014 740100                    STX0    EL$IOERR+5,,AUTO

      213     1251    1           EL$IOERR.ERRCT=NI$IOERR.ERRCT;

   1251  0 000051   100003 236100                    LDQ     3,,PR1
         0 000052   200014 552110                    STBQ    EL$IOERR+5,'10'O,AUTO

PL6.E3A0      #002=NIA$RELERR File=NIA$LOGERR.:E05TSI                            WED 07/30/97 03:28 Page:45
      214     1252    1           EL$IOERR.THRESH=NI$IOERR.THRESH;

   1252  0 000053   100020 236100                    LDQ     16,,PR1
         0 000054   000022 772000                    QRL     18
         0 000055   200036 676100                    ERQ     EL$IOERR+23,,AUTO
         0 000056   740000 376007                    ANQ     -16384,DL
         0 000057   200036 656100                    ERSQ    EL$IOERR+23,,AUTO

      215     1253    1           EL$IOERR.COUNT=NI$IOERR.COUNT;

   1253  0 000060   100003 236100                    LDQ     3,,PR1
         0 000061   200014 552104                    STBQ    EL$IOERR+5,'04'O,AUTO

      216     1254    1           EL$IOERR.IDCW=NI$IOERR.IDCW;

   1254  0 000062   100004 236100                    LDQ     4,,PR1
         0 000063   200017 756100                    STQ     EL$IOERR+8,,AUTO

      217     1255    1           EL$IOERR.DCW=NI$IOERR.DCW;

   1255  0 000064   100005 236100                    LDQ     5,,PR1
         0 000065   200020 756100                    STQ     EL$IOERR+9,,AUTO

      218     1256    1           EL$IOERR.MEMADR=NI$IOERR.MEMADR;

   1256  0 000066   100006 235100                    LDA     6,,PR1
         0 000067   200021 755100                    STA     EL$IOERR+10,,AUTO

      219     1257    1           EL$IOERR.EXTST = NI$IOERR.EXTST;

   1257  0 000070   000100 100500                    MLR     fill='000'O
         0 000071   100007 000040                    ADSC9   7,,PR1                   cn=0,n=32
         0 000072   200022 000040                    ADSC9   EL$IOERR+11,,AUTO        cn=0,n=32

      220     1258    1           IF N$REQ.IOFLG.IOS THEN

   1258  0 000073   000004 236100                    LDQ     4,,PR0
PL6.E3A0      #002=NIA$RELERR File=NIA$LOGERR.:E05TSI                            WED 07/30/97 03:28 Page:46
         0 000074   040000 316007                    CANQ    16384,DL
         0 000075   000101 600000 0                  TZE     s:1260

      221     1259    1              EL$IOERR.SEEK = N$REQ.IOS$->IOS.SEEK;

   1259  0 000076   000012 476500                    LDP6    10,,PR0
         0 000077   600014 236100                    LDQ     12,,PR6
         0 000100   200032 756100                    STQ     EL$IOERR+19,,AUTO

      222     1260    1           EL$IOERR.DEVNM=DCT.DEVNM;

   1260  0 000101   040100 100500                    MLR     fill='040'O
         0 000102   500002 000010                    ADSC9   2,,PR5                   cn=0,n=8
         0 000103   200033 000010                    ADSC9   EL$IOERR+20,,AUTO        cn=0,n=8

      223     1261    1           IF RAT$~=ADDR(NIL) THEN

   1261  0 000104   200051 236100                    LDQ     RAT$,,AUTO
         0 000105   000001 116000 xsym               CMPQ    B_VECTNIL+1
         0 000106   000114 600000 0                  TZE     s:1263

      224     1262    1              EL$IOERR.SN=RAT.REEL.SER;

   1262  0 000107   200051 476500                    LDP6    RAT$,,AUTO
         0 000110   040100 100500                    MLR     fill='040'O
         0 000111   600004 400006                    ADSC9   4,,PR6                   cn=2,n=6
         0 000112   200035 000006                    ADSC9   EL$IOERR+22,,AUTO        cn=0,n=6
         0 000113   000117 710000 0                  TRA     s:1264

      225     1263    1           ELSE EL$IOERR.SN=' ';

   1263  0 000114   040100 100400                    MLR     fill='040'O
         0 000115   000035 000001 xsym               ADSC9   B_VECTNIL+29             cn=0,n=1
         0 000116   200035 000006                    ADSC9   EL$IOERR+22,,AUTO        cn=0,n=6

      226     1264    2           IF EL$IOERR.THRESH.IOM THEN DO;

PL6.E3A0      #002=NIA$RELERR File=NIA$LOGERR.:E05TSI                            WED 07/30/97 03:28 Page:47
   1264  0 000117   200036 236100                    LDQ     EL$IOERR+23,,AUTO
         0 000120   400000 316007                    CANQ    -131072,DL
         0 000121   000131 600000 0                  TZE     s:1268

      227     1265    2              EL$IOERR.CONNECTS.IOM=IOM.CONNCT-IOM.ERRCNCT;

   1265  0 000122   200047 476500                    LDP6    IOM$,,AUTO
         0 000123   600005 236100                    LDQ     5,,PR6
         0 000124   600006 136100                    SBLQ    6,,PR6
         0 000125   000000 620006                    EAX0    0,QL
         0 000126   200015 740100                    STX0    EL$IOERR+6,,AUTO

      228     1266    2              IOM.CONNCT=IOM.ERRCNCT;

   1266  0 000127   600006 235100                    LDA     6,,PR6
         0 000130   600005 755100                    STA     5,,PR6

      229     1267    2              END;

      230     1268    2           IF EL$IOERR.THRESH.CHANNEL THEN DO;

   1268  0 000131   200036 236100                    LDQ     EL$IOERR+23,,AUTO
         0 000132   200000 316007                    CANQ    65536,DL
         0 000133   000142 600000 0                  TZE     s:1272

      231     1269    2              EL$IOERR.CONNECTS.CHANNEL=DQH.PM.CONNCT-DQH.ERRCNCT;

   1269  0 000134   400003 236100                    LDQ     3,,PR4
         0 000135   400011 136100                    SBLQ    9,,PR4
         0 000136   000000 620006                    EAX0    0,QL
         0 000137   200015 440100                    SXL0    EL$IOERR+6,,AUTO

      232     1270    2              DQH.ERRCNCT=DQH.PM.CONNCT;

   1270  0 000140   400003 235100                    LDA     3,,PR4
         0 000141   400011 755100                    STA     9,,PR4

PL6.E3A0      #002=NIA$RELERR File=NIA$LOGERR.:E05TSI                            WED 07/30/97 03:28 Page:48
      233     1271    2              END;

      234     1272    2           IF EL$IOERR.THRESH.MPC THEN DO;

   1272  0 000142   200036 236100                    LDQ     EL$IOERR+23,,AUTO
         0 000143   100000 316007                    CANQ    32768,DL
         0 000144   000154 600000 0                  TZE     s:1276

      235     1273    2              EL$IOERR.CONNECTS.MPC=MPC.MPC.CONNCT-MPC.MPC.ERRCNCT;

   1273  0 000145   200050 471500                    LDP1    MPC$,,AUTO
         0 000146   100037 236100                    LDQ     31,,PR1
         0 000147   100036 136100                    SBLQ    30,,PR1
         0 000150   000000 620006                    EAX0    0,QL
         0 000151   200016 740100                    STX0    EL$IOERR+7,,AUTO

      236     1274    2              MPC.MPC.ERRCNCT=MPC.MPC.CONNCT;

   1274  0 000152   100037 235100                    LDA     31,,PR1
         0 000153   100036 755100                    STA     30,,PR1

      237     1275    2              END;

      238     1276    2           IF EL$IOERR.THRESH.DEVICE THEN DO;

   1276  0 000154   200036 236100                    LDQ     EL$IOERR+23,,AUTO
         0 000155   040000 316007                    CANQ    16384,DL
         0 000156   000165 600000 0                  TZE     s:1280

      239     1277    2              EL$IOERR.CONNECTS.DEVICE=DCT.PM.CONNCT-DCT.ERRCNCT;

   1277  0 000157   500011 236100                    LDQ     9,,PR5
         0 000160   500026 136100                    SBLQ    22,,PR5
         0 000161   000000 620006                    EAX0    0,QL
         0 000162   200016 440100                    SXL0    EL$IOERR+7,,AUTO

      240     1278    2              DCT.ERRCNCT=DCT.PM.CONNCT;
PL6.E3A0      #002=NIA$RELERR File=NIA$LOGERR.:E05TSI                            WED 07/30/97 03:28 Page:49

   1278  0 000163   500011 235100                    LDA     9,,PR5
         0 000164   500026 755100                    STA     22,,PR5

      241     1279    2              END;

      242     1280    1           EL$IOERR.MODEL = DCT.DVT$->DVT.MODEL(DCT.MODX);

   1280  0 000165   500024 471500                    LDP1    20,,PR5
         0 000166   500007 236100                    LDQ     7,,PR5
         0 000167   000021 772000                    QRL     17
         0 000170   000176 376007                    ANQ     126,DL
         0 000171   000002 736000                    QLS     2
         0 000172   040100 100506                    MLR     fill='040'O
         0 000173   100003 000010                    ADSC9   3,Q,PR1                  cn=0,n=8
         0 000174   200037 000010                    ADSC9   EL$IOERR+24,,AUTO        cn=0,n=8

      243     1281    1           IF MPC$ = ADDR(NIL) THEN

   1281  0 000175   200050 236100                    LDQ     MPC$,,AUTO
         0 000176   000001 116000 xsym               CMPQ    B_VECTNIL+1
         0 000177   000205 601000 0                  TNZ     s:1284

      244     1282    1              EL$IOERR.MPC_MODEL = ' ' ;

   1282  0 000200   000035 235000 xsym               LDA     B_VECTNIL+29
         0 000201   000035 236000 xsym               LDQ     B_VECTNIL+29
         0 000202   200041 755100                    STA     EL$IOERR+26,,AUTO
         0 000203   200042 756100                    STQ     EL$IOERR+27,,AUTO
         0 000204   000216 710000 0                  TRA     s:1285

      245     1283    1           ELSE
      246     1284    1              EL$IOERR.MPC_MODEL = MPC.DVT$->DVT.MODEL(MPC.MODX);

   1284  0 000205   200050 471500                    LDP1    MPC$,,AUTO
         0 000206   100024 476500                    LDP6    20,,PR1
         0 000207   100007 236100                    LDQ     7,,PR1
PL6.E3A0      #002=NIA$RELERR File=NIA$LOGERR.:E05TSI                            WED 07/30/97 03:28 Page:50
         0 000210   000021 772000                    QRL     17
         0 000211   000176 376007                    ANQ     126,DL
         0 000212   000002 736000                    QLS     2
         0 000213   040100 100506                    MLR     fill='040'O
         0 000214   600003 000010                    ADSC9   3,Q,PR6                  cn=0,n=8
         0 000215   200041 000010                    ADSC9   EL$IOERR+26,,AUTO        cn=0,n=8

      247     1285    1           EL$IOERR.TYC = N$REQ.TYC;

   1285  0 000216   000021 236100                    LDQ     17,,PR0
         0 000217   200043 756100                    STQ     EL$IOERR+28,,AUTO

      248     1286    1           EL$IOERR.FLPW = N$REQ.FLPW;

   1286  0 000220   000016 236100                    LDQ     14,,PR0
         0 000221   200044 756100                    STQ     EL$IOERR+29,,AUTO

      249     1287    1           CALL ELA$SYSLOG(NI$IOERR.TYPE,EL$IOERR,SIZEW(EL$IOERR),'0'B,1,ERRCD);

   1287  0 000222   200046 631500                    EPPR1   ERRCD,,AUTO
         0 000223   200057 451500                    STP1    RAT$+6,,AUTO
         0 000224   000001 236000 1                  LDQ     1
         0 000225   200056 756100                    STQ     RAT$+5,,AUTO
         0 000226   000002 237000 1                  LDAQ    2
         0 000227   200054 757100                    STAQ    RAT$+3,,AUTO
         0 000230   200007 636500                    EPPR6   EL$IOERR,,AUTO
         0 000231   200053 456500                    STP6    RAT$+2,,AUTO
         0 000232   200045 236100                    LDQ     ERR$,,AUTO
         0 000233   200052 756100                    STQ     RAT$+1,,AUTO
         0 000234   200052 630500                    EPPR0   RAT$+1,,AUTO
         0 000235   000024 631400 xsym               EPPR1   B_VECTNIL+20
         0 000236   000000 701000 xent               TSX1    ELA$SYSLOG
         0 000237   000000 011000                    NOP     0

      250     1288    1           ERR$ -> NI$IOERR = N$REQ_INIT ;

   1288  0 000240   200045 470500                    LDP0    ERR$,,AUTO
PL6.E3A0      #002=NIA$RELERR File=NIA$LOGERR.:E05TSI                            WED 07/30/97 03:28 Page:51
         0 000241   000100 100400                    MLR     fill='000'O
         0 000242   000000 000104 xsym               ADSC9   N$REQ_INIT               cn=0,n=68
         0 000243   000000 000104                    ADSC9   0,,PR0                   cn=0,n=68

      251     1289    1           CALL NIQ$REL(ERR$);

   1289  0 000244   200045 630500                    EPPR0   ERR$,,AUTO
         0 000245   200052 450500                    STP0    RAT$+1,,AUTO
         0 000246   200052 630500                    EPPR0   RAT$+1,,AUTO
         0 000247   000017 631400 xsym               EPPR1   B_VECTNIL+15
         0 000250   000000 701000 xent               TSX1    NIQ$REL
         0 000251   000000 011000                    NOP     0

      252     1290    1           N$REQ.ERR$ = ADDR(NIL);

   1290  0 000252   000001 236000 xsym               LDQ     B_VECTNIL+1
         0 000253   200003 470500                    LDP0    @N$REQ,,AUTO
         0 000254   000017 756100                    STQ     15,,PR0

      253     1291    1           RETURN;

   1291  0 000255   000000 702200 xent               TSX2  ! X66_ARET

(unnamed)
 Sect OctLoc
   1     000   000000 000036   000003 006000   000000 006000   000002 006000    ................
      254     1292    1   END NIA$RELERR;

PL6.E3A0      #002=NIA$RELERR File=NIA$LOGERR.:E05TSI                            WED 07/30/97 03:28 Page:52
--  Include file information  --

   NI$TABLES.:E05TOU  is referenced.
   N$REQ.:E05TOU  is referenced.
   NI_DATA_R.:E05TOU  cannot be made into a system file and is referenced.
   NI$ERRLOG.:E05TOU  is referenced.
   FR$RAT.:E05TOU  is referenced.
   EL$TABLES.:E05TOU  is referenced.
      No diagnostics issued in procedure NIA$RELERR.
PL6.E3A0      #002=NIA$RELERR File=NIA$LOGERR.:E05TSI                            WED 07/30/97 03:28 Page:53

 **** Variables and constants ****

  ****  Auto variables  ****

  ****  Scalars and arrays  ****
OctLoc.c.b A Datatyp(siz) R M Lvl/name                 OctLoc.c.b A Datatyp(siz) R M Lvl/name

     3-0-0/w PTR         r     1 @N$REQ                     4-0-0/w PTR         r     1 DCT$
     5-0-0/w PTR         r     1 DQH$                       6-0-0/w PTR         r     1 DVT$
     7-0-0/w STRC(1080)  r     1 EL$IOERR                  45-0-0/w PTR         r     1 ERR$
    46-0-0/w SBIN        r     1 ERRCD                     47-0-0/w PTR         r     1 IOM$
    50-0-0/w PTR         r     1 MPC$                      *0-0-0/d STRC(1080)  r     1 N$REQ
    51-0-0/w PTR         r     1 RAT$

  ****  SYMREF variables  ****

  ****  Scalars and arrays  ****
OctLoc.c.b A Datatyp(siz) R M Lvl/name                 OctLoc.c.b A Datatyp(siz) R M Lvl/name

     0-0-0/w PTR         r     1 N$DCT$$                    0-0-0/w PTR         r     1 N$FQ$
     0-0-0/d STRC(1080)  r     1 N$REQ_INIT                 0-0-0/w PTR         r     1 NI$CHT$
     0-0-0/w PTR         r     1 NI$FQ$                     0-0-0/w PTR         r     1 NI$IBUF$
     0-0-0/w PTR         r     1 NI$IOM$(0:3)
     0-0-0/w PTR         r     1 NI$RP$

  ****  BASED and DCB variables  ****

  ****  Scalars and arrays  ****
OctLoc.c.b A Datatyp(siz) R M Lvl/name                 OctLoc.c.b A Datatyp(siz) R M Lvl/name

     0-0-0/w STRC(1332)  r     1 DCT                        0-0-0/w STRC(648)   r     1 DQH
     0-0-0/w STRC(2844)  r     1 DVT                        0-0-0/w STRC(252)   r     1 IOM
     0-0-0/d STRC(504)   r     1 IOS                        0-0-0/w STRC(1332)  r     1 MPC
     0-0-0/w STRC(72)    r     1 NI$CHT(0:127)              0-0-0/w STRC(612)   r     1 NI$IOERR
     0-0-0/w STRC(324)   r     1 RAT

PL6.E3A0      #002=NIA$RELERR File=NIA$LOGERR.:E05TSI                            WED 07/30/97 03:28 Page:54

   Procedure NIA$RELERR requires 174 words for executable code.
   Procedure NIA$RELERR requires 48 words of local(AUTO) storage.

    No errors detected in file NIA$LOGERR.:E05TSI    .
PL6.E3A0      #002=NIA$RELERR File=NIA$LOGERR.:E05TSI                            WED 07/30/97 03:28 Page:55
          *** CROSS REFERENCE LISTING ***
**     DENOTES     IDENTIFIER DEFINITION
<<                 IDENTIFIER'S VALUE SET
>>                 IDENTIFIER'S VALUE USED
<>                 IDENTIFIER SET AND/OR USED
--                 IDENTIFIER REFERENCED
PL6.E3A0      #002=NIA$RELERR File=NIA$LOGERR.:E05TSI                            WED 07/30/97 03:28 Page:56
          MINI XREF LISTING

DCT.DEVNM
       996**DCL      1260>>ASSIGN
DCT.DP
      1016**DCL      1023--REDEF    1026--REDEF    1027--REDEF    1029--REDEF    1029--REDEF    1030--REDEF
      1031--REDEF    1031--REDEF
DCT.DVT$
      1012**DCL      1280>>ASSIGN
DCT.ERRCNCT
      1013**DCL      1277>>ASSIGN   1278<<ASSIGN
DCT.MODX
      1005**DCL      1280>>ASSIGN
DCT.MPC.IOCHANX
      1024**DCL      1024--REDEF
DCT.PM.CONNCT
      1007**DCL      1277>>ASSIGN   1278>>ASSIGN
DCT.RAT$
       997**DCL      1246>>ASSIGN
DCT$
       966**DCL       996--IMP-PTR  1242<<ASSIGN   1246>>ASSIGN   1260>>ASSIGN   1277>>ASSIGN   1277>>ASSIGN
      1278>>ASSIGN   1278>>ASSIGN   1280>>ASSIGN   1280>>ASSIGN
DQH.ERRCNCT
      1050**DCL      1269>>ASSIGN   1270<<ASSIGN
DQH.IOCHAN.IOM
      1047**DCL      1245>>ASSIGN
DQH.IOCHANX
      1046**DCL      1047--REDEF
DQH.MBX$
      1055**DCL      1056--REDEF
DQH.MPC$
      1051**DCL      1244>>ASSIGN
DQH.PM.CONNCT
      1049**DCL      1269>>ASSIGN   1270>>ASSIGN
PL6.E3A0      #002=NIA$RELERR File=NIA$LOGERR.:E05TSI                            WED 07/30/97 03:28 Page:57
DQH$
       967**DCL      1044--IMP-PTR  1243<<ASSIGN   1244>>ASSIGN   1245>>ASSIGN   1269>>ASSIGN   1269>>ASSIGN
      1270>>ASSIGN   1270>>ASSIGN
DVT.MODEL
      1059**DCL      1280>>ASSIGN   1284>>ASSIGN
DVT.MPC
      1061**DCL      1062--REDEF
DVT$
       968**DCL      1059--IMP-PTR
EL$IOERR
       970**DCL      1287<>CALL     1287--CALL
EL$IOERR.CONNECTS.CHANNEL
       973**DCL      1269<<ASSIGN
EL$IOERR.CONNECTS.DEVICE
       973**DCL      1277<<ASSIGN
EL$IOERR.CONNECTS.IOM
       973**DCL      1265<<ASSIGN
EL$IOERR.CONNECTS.MPC
       973**DCL      1273<<ASSIGN
EL$IOERR.COUNT
       973**DCL      1253<<ASSIGN
EL$IOERR.DCW
       974**DCL      1255<<ASSIGN
EL$IOERR.DEVNM
       975**DCL      1260<<ASSIGN
EL$IOERR.ERRCT
       972**DCL      1251<<ASSIGN
EL$IOERR.EXTST
       974**DCL      1257<<ASSIGN
EL$IOERR.FINAL
       972**DCL      1249<<ASSIGN
EL$IOERR.FLPW
       976**DCL      1286<<ASSIGN
EL$IOERR.IDCW
       974**DCL      1254<<ASSIGN
EL$IOERR.IOCHAN
PL6.E3A0      #002=NIA$RELERR File=NIA$LOGERR.:E05TSI                            WED 07/30/97 03:28 Page:58
       972**DCL      1250<<ASSIGN
EL$IOERR.MEMADR
       974**DCL      1256<<ASSIGN
EL$IOERR.MODEL
       976**DCL      1280<<ASSIGN
EL$IOERR.MPC_MODEL
       976**DCL      1282<<ASSIGN   1284<<ASSIGN
EL$IOERR.REQID
       970**DCL      1247<<ASSIGN
EL$IOERR.SEEK
       974**DCL       975--REDEF    1259<<ASSIGN
EL$IOERR.SN
       975**DCL      1262<<ASSIGN   1263<<ASSIGN
EL$IOERR.STATUS
       970**DCL       971--REDEF    1248<<ASSIGN
EL$IOERR.THRESH
       975**DCL      1252<<ASSIGN
EL$IOERR.THRESH.CHANNEL
       976**DCL      1268>>IF
EL$IOERR.THRESH.DEVICE
       976**DCL      1276>>IF
EL$IOERR.THRESH.IOM
       975**DCL      1264>>IF
EL$IOERR.THRESH.MPC
       976**DCL      1272>>IF
EL$IOERR.TYC
       976**DCL      1285<<ASSIGN
ELA$SYSLOG
       961**DCL-ENT  1287--CALL
ERR$
       979**DCL      1147--IMP-PTR  1241<<ASSIGN   1243>>ASSIGN   1243>>ASSIGN   1248>>ASSIGN   1250>>ASSIGN
      1251>>ASSIGN   1252>>ASSIGN   1253>>ASSIGN   1254>>ASSIGN   1255>>ASSIGN   1256>>ASSIGN   1257>>ASSIGN
      1287>>CALL     1288>>ASSIGN   1289<>CALL
ERRCD
       980**DCL      1287<>CALL
IOM.CONNCT
PL6.E3A0      #002=NIA$RELERR File=NIA$LOGERR.:E05TSI                            WED 07/30/97 03:28 Page:59
      1093**DCL      1265>>ASSIGN   1266<<ASSIGN
IOM.ERRCNCT
      1093**DCL      1265>>ASSIGN   1266>>ASSIGN
IOM$
       981**DCL      1091--IMP-PTR  1245<<ASSIGN   1265>>ASSIGN   1265>>ASSIGN   1266>>ASSIGN   1266>>ASSIGN
IOS.DCW
      1076**DCL      1079--REDEF
IOS.DCW.TALLY
      1077**DCL      1077--REDEF
IOS.IDCW.EXTA
      1079**DCL      1079--REDEF
IOS.PCW
      1081**DCL      1085--REDEF
IOS.SEEK
      1086**DCL      1087--REDEF    1088--REDEF    1259>>ASSIGN
MPC.DP
      1124**DCL      1131--REDEF    1134--REDEF    1135--REDEF    1137--REDEF    1137--REDEF    1138--REDEF
      1139--REDEF    1139--REDEF
MPC.DVT$
      1120**DCL      1284>>ASSIGN
MPC.MODX
      1113**DCL      1284>>ASSIGN
MPC.MPC.CONNCT
      1133**DCL      1273>>ASSIGN   1274>>ASSIGN
MPC.MPC.ERRCNCT
      1133**DCL      1273>>ASSIGN   1274<<ASSIGN
MPC.MPC.IOCHANX
      1132**DCL      1132--REDEF
MPC$
       982**DCL      1104--IMP-PTR  1244<<ASSIGN   1273>>ASSIGN   1273>>ASSIGN   1274>>ASSIGN   1274>>ASSIGN
      1281>>IF       1284>>ASSIGN   1284>>ASSIGN
N$DCT$$
       757**DCL       891--IMP-PTR
N$FQ$
       757**DCL       892--IMP-PTR
N$REQ
PL6.E3A0      #002=NIA$RELERR File=NIA$LOGERR.:E05TSI                            WED 07/30/97 03:28 Page:60
       909**DCL         6--PROC
N$REQ.BUFADDR
       918**DCL       919--REDEF     919--REDEF
N$REQ.DCT$
       910**DCL      1242>>ASSIGN
N$REQ.DLA.DRELADDR
       910**DCL       910--REDEF
N$REQ.DVE.EOMCHAR
       947**DCL       948--REDEF
N$REQ.EAINFO
       941**DCL       941--REDEF
N$REQ.EAINFOX
       941**DCL       942--REDEF
N$REQ.ERR$
       931**DCL      1241>>ASSIGN   1290<<ASSIGN
N$REQ.EVNTINFO
       942**DCL       942--REDEF
N$REQ.FLPW
       930**DCL      1286>>ASSIGN
N$REQ.IOFLG.IOS
       913**DCL      1258>>IF
N$REQ.IOS$
       922**DCL      1259>>ASSIGN
N$REQ.REQID
       920**DCL      1247>>ASSIGN
N$REQ.STATUS
       923**DCL       929--REDEF    1249>>ASSIGN
N$REQ.TYC
       931**DCL      1285>>ASSIGN
N$REQ_INIT
       767**DCL      1288>>ASSIGN
N$REQ_INIT.BUFADDR
       776**DCL       777--REDEF     777--REDEF
N$REQ_INIT.DLA.DRELADDR
       768**DCL       768--REDEF
N$REQ_INIT.DVE.EOMCHAR
PL6.E3A0      #002=NIA$RELERR File=NIA$LOGERR.:E05TSI                            WED 07/30/97 03:28 Page:61
       805**DCL       806--REDEF
N$REQ_INIT.EAINFO
       799**DCL       799--REDEF
N$REQ_INIT.EAINFOX
       799**DCL       800--REDEF
N$REQ_INIT.EVNTINFO
       800**DCL       800--REDEF
N$REQ_INIT.STATUS
       781**DCL       787--REDEF
NI$CHT.DQH$
      1144**DCL      1243>>ASSIGN
NI$CHT$
       816**DCL      1144--IMP-PTR  1243>>ASSIGN
NI$FQ$
       817**DCL       893--IMP-PTR
NI$IBUF$
       817**DCL       893--IMP-PTR
NI$IMXMBX_INIT.PAGED_BASE
       827**DCL       828--REDEF     828--REDEF
NI$IMXMBX_INIT.SIZE
       829**DCL       829--REDEF
NI$IOERR
      1147**DCL      1288<<ASSIGN
NI$IOERR.COUNT
      1170**DCL      1253>>ASSIGN
NI$IOERR.DCW
      1172**DCL      1255>>ASSIGN
NI$IOERR.ERRCT
      1169**DCL      1251>>ASSIGN
NI$IOERR.EXTST
      1174**DCL      1176--REDEF    1257>>ASSIGN
NI$IOERR.IDCW
      1171**DCL      1254>>ASSIGN
NI$IOERR.IOCHAN
      1165**DCL      1250>>ASSIGN
NI$IOERR.IOCHAN.CHAN
PL6.E3A0      #002=NIA$RELERR File=NIA$LOGERR.:E05TSI                            WED 07/30/97 03:28 Page:62
      1168**DCL      1243>>ASSIGN
NI$IOERR.IOCHAN.IOM
      1167**DCL      1243>>ASSIGN
NI$IOERR.MEMADR
      1173**DCL      1256>>ASSIGN
NI$IOERR.STATUS
      1149**DCL      1248>>ASSIGN
NI$IOERR.THRESH
      1192**DCL      1252>>ASSIGN
NI$IOERR.TYPE
      1148**DCL      1287<>CALL
NI$IOM$
       839**DCL      1245>>ASSIGN
NI$REQ_INIT.DCW
       851**DCL       854--REDEF
NI$REQ_INIT.DCW.TALLY
       852**DCL       852--REDEF
NI$REQ_INIT.IDCW.EXTA
       854**DCL       854--REDEF
NI$REQ_INIT.PCW
       856**DCL       860--REDEF
NI$REQ_INIT.SEEK
       861**DCL       862--REDEF     863--REDEF
NI$RP$
       865**DCL       895--IMP-PTR
NIQ$REL
       962**DCL-ENT  1289--CALL
NI_MBX_INIT.DCW.CONTROL.AE
       887**DCL       887--REDEF
NI_MBX_INIT.LPW.CONTROL.AE
       883**DCL       883--REDEF
RAT.REEL.SER
      1223**DCL      1262>>ASSIGN
RAT$
       983**DCL      1202--IMP-PTR  1246<<ASSIGN   1261>>IF       1262>>ASSIGN
