VERSION E05

PL6.E3A0      #001=NID$DEVSCHED File=NID$DISK.:E05TSI                            WED 07/30/97 03:29 Page:1
        1        1        /*M* NID$DISK - Disk Handler */
        2        2        /*T***********************************************************/
        3        3        /*T*                                                         */
        4        4        /*T* Copyright (c) Bull HN Information Systems Inc., 1997    */
        5        5        /*T*                                                         */
        6        6        /*T***********************************************************/
        7        7        /*X* DFC=YES, DMC=YES, EDMC=YES                                    */
        8        8        /**/
        9        9        /*P* NAME:        NID$DISK
       10       10
       11       11             PURPOSE:     NID$DISK is the disk handler.
       12       12
       13       13             REFERENCE:   43A232230  EPS-1 DSC181/DSC190 Disk Controller
       14       14        */
       15       15        /*D* NAME:        NID$DEVSCHED, NID$DEVSCHEDL
       16       16
       17       17             CALL:        CALL NID$DEVSCHED(DCT,NEWSTATE);
       18       18                          CALL NID$DEVSCHEDL(DCT,NEWSTATE);
       19       19                          where:
       20       20                                 DCT$ PTR -> Device Control Table entry
       21       21                                 NEWSTATE New device state.  Put in DCT after
       22       22                                          locking SQH.GATE.
       23       23
       24       24             ENVIRONMENT: Monitor, not privileged, not inhibited
       25       25
       26       26             INPUT:       Disk I/O Tables
       27       27
       28       28             DESCRIPTION:   SQH.GATE is locked and the device's state is
       29       29                            changed to NEWSTATE.  Control then passes to
       30       30                            the SCHED code which is common to NID$DEVSCHED
       31       31                            and NID$REQSCHED.  NID$DEVSCHEDL is called if
       32       32                            SQH.GATE is already locked.  SQH.GATE will always
       33       33                            be unlocked after the return.
       34       34
       35       35                            At SCHED if the device's state is IDLE and there
       36       36                            are requests pending on the device it is placed
       37       37                            on the assign que for the subsystem.  The device
PL6.E3A0      #001=NID$DEVSCHED File=NID$DISK.:E05TSI                            WED 07/30/97 03:29 Page:2
       38       38                            state is changed to requested.  Control then
       39       39                            passes to NID$SCANAQ.
       40       40        */
       41       41        NID$DEVSCHED: PROC (PAR,NEWSTATE);
       42       42        /*
       43       43                Includes
       44       44        */
       45       45        %INCLUDE                CP_6_SUBS ;
       46      585        %INCLUDE                HF_LOCK_C ;
       47      599        %INCLUDE                NI_DATA_C ;
       48      712        %INCLUDE                NI_DATA_R ;
       49     1149        %INCLUDE                NI_MACROS_C ;
       50     1416        %INCLUDE                N_FC_C ;
       51     1453        %INCLUDE                PM$NI ;
       52     1477        %INCLUDE                P_PMDAT_R ;
       53     1785        /*
       54     1786                Parameters
       55     1787        */
       56     1788    1   DCL 1 NEWSTATE          UBIN PARAM ;
       57     1789    1   DCL 1 PAR               UBIN PARAM ;
       58     1790        /*
       59     1791                Entries
       60     1792        */
       61     1793    1   DCL 1 NIO$DCWBLD        ENTRY(1) ALTRET ;
       62     1794    1   DCL 1 NIS$DRIVER        ENTRY(1) ;
       63     1795    1   DCL 1 PMN$COLLECT       ENTRY(2) ;
       64     1796    1   DCL 1 SC_NIDINVMIR      ENTRY CONV(2,0) ;
       65     1797    1   DCL 1 SC_NIDNOPMIR      ENTRY CONV(2,0) ;
       66     1798        /*
       67     1799                Symrefs
       68     1800        */
       69     1801    1   DCL 1 NI_IOLEAPERS      UBIN WORD SYMREF ;
       70     1802    1   DCL 1 NK_MXLOCAL        UBIN WORD SYMREF ;
       71     1803        /*
       72     1804                Auto
       73     1805        */
       74     1806    1   DCL 1 DCT$              PTR ALIGNED AUTO ;
PL6.E3A0      #001=NID$DEVSCHED File=NID$DISK.:E05TSI                            WED 07/30/97 03:29 Page:3
       75     1807    1   DCL 1 DQH$              PTR ALIGNED AUTO ;
       76     1808    1   DCL 1 DVT$              PTR ALIGNED AUTO ;
       77     1809    1   DCL 1 MDCT$             PTR ALIGNED AUTO ;
       78     1810    1   DCL 1 MDCTX             SBIN WORD ALIGNED AUTO ;
       79     1811    1   DCL 1 MSQH$             PTR ALIGNED AUTO ;
       80     1812    1   DCL 1 REQ$              PTR ALIGNED AUTO ;
       81     1813    1   DCL 1 REQSCHEDONLY      BIT(1) ALIGNED AUTO ;
       82     1814    1   DCL 1 SQH$              PTR ALIGNED AUTO ;
       83     1815    1   DCL 1 SVDCT$            PTR ALIGNED AUTO ;
       84     1816        /*
       85     1817                Based
       86     1818        */
       87     1819        %NI$DCT                 ( NAME=DCT,     STCLASS="BASED(DCT$)" ) ;
       88     1867        %NI$DQH                 ( NAME=DQH,     STCLASS="BASED(DQH$)" ) ;
       89     1890        %NI$DVT                 ( NAME=DVT,     STCLASS="BASED(DVT$)" ) ;
       90     1897        %NI$DCT                 ( NAME=MDCT,    STCLASS="BASED(MDCT$)" ) ;
       91     1945        %NI$SQH                 ( NAME=MSQH,    STCLASS="BASED(MSQH$)" ) ;
       92     1958        %N$REQ                  ( NAME=REQ,     STCLASS="BASED(REQ$)" ) ;
       93     2016        %NI$SQH                 ( NAME=SQH,     STCLASS="BASED(SQH$)" ) ;
       94     2029
       95     2030        %EJECT ;
PL6.E3A0      #001=NID$DEVSCHED File=NID$DISK.:E05TSI                            WED 07/30/97 03:29 Page:4
       96     2031    1           DCT$      = ADDR(PAR) ;
       97     2032    1           SQH$      = DCT.SQH$ ;
       98     2033                %LOCK ( G#=SQH.GATE ) ;
       99     2036    1           DCT.STATE = NEWSTATE ;
      100     2037    1           GOTO DEVSCHED ;
      101     2038        %EJECT ;
PL6.E3A0      #001=NID$DEVSCHED File=NID$DISK.:E05TSI                            WED 07/30/97 03:29 Page:5
      102     2039        /*D* NAME:        NID$REQSCHED
      103     2040
      104     2041             CALL:        CALL NID$REQSCHED(REQ);
      105     2042                          where:
      106     2043                                 REQ$   PTR    -> the IOQ request packet
      107     2044
      108     2045             ENVIRONMENT: Monitor, not privileged, not inhibited.
      109     2046
      110     2047             INPUT:       N$REQ  IOQ request packet
      111     2048
      112     2049             DESCRIPTION:   NID$REQSCHED enqueues a request on the appropriate
      113     2050                            queue.  If the device is a Mirrored Disk, if it
      114     2051                            is locked, and if this is not the user who locked
      115     2052                            the device, then the IO request is enqued on the
      116     2053                            locked queue (LQ$).  Otherwise, the IO request
      117     2054                            is queued on either the device's scheduler or
      118     2055                            backup queue.  Then NID$REQSCHED goes to the
      119     2056                            common code at SCHED.
      120     2057        */
      121     2058    1   NID$REQSCHED: ENTRY(PAR);
      122     2059
      123     2060    1   REQSCHED:
      124     2061
      125     2062    2           DO  INHIBIT ;
      126     2063    2               REQ$=ADDR(PAR);
      127     2064    2               DCT$=REQ.DCT$;
      128     2065    2               SQH$=DCT.SQH$;
      129     2066                    %LOCK(G#=SQH.GATE);
      130     2069    2               END ;
      131     2070    1           REQSCHEDONLY = '0'B ;
      132     2071
      133     2072    1           IF  DCT.DP.MIRROR.FLAG
      134     2073    1           AND NOT REQ.MIRDONE
      135     2074    2           THEN DO ;
      136     2075    2               IF  REQ.DLA.DRELADDR < DCT.DP.MIRROR.DRZERO
      137     2076    2               THEN
      138     2077    2                   REQ.BPMIR = '1'B ;
PL6.E3A0      #001=NID$DEVSCHED File=NID$DISK.:E05TSI                            WED 07/30/97 03:29 Page:6
      139     2078
      140     2079    2               IF  NOT REQ.BPMIR
      141     2080    3               THEN DO ;
      142     2081    3                   MDCTX = DCT.DP.MIRROR.DCTX ;
      143     2082    3                   MDCT$ = N$DCT$(MDCTX) ;
      144     2083    3                   MSQH$ = MDCT.SQH$ ;
      145     2084
      146     2085    3                   REQ.DOMIR = '0'B ;
      147     2086    3                   REQ.COMP  = %COMP_MIRROR ;
      148     2087
      149     2088    3                   IF  DCT.DP.MIRROR.STATE ~= %NI_MIRROR_OPER
      150     2089    4                   THEN DO ;
      151     2090    4                       IF  MDCTX > NK_MXLOCAL
      152     2091    4                       OR  MDCTX = 0
      153     2092    4                       THEN
      154     2093        /*S* SCREECH_CODE:  NID-S$INVMIR-7
      155     2094             TYPE:          SCREECH
      156     2095             MESSAGE:       Invalid Mirrored Disk DCT index.
      157     2096             DESCRIPTION:   The DCT index for the mirror of this Mirrored
      158     2097                            Disk device is invalid.
      159     2098        */
      160     2099    4                           CALL SC_NIDINVMIR ;
      161     2100
      162     2101    4                       IF  MDCT.DP.MIRROR.STATE ~= %NI_MIRROR_OPER
      163     2102    4                       THEN
      164     2103        /*S* SCREECH_CODE:  NID-S$NOPMIR-7
      165     2104             TYPE:          SCREECH
      166     2105             MESSAGE:       No operational Mirrored Disk device.
      167     2106             DESCRIPTION:   The IO system detected no operational Mirrored Disk device
      168     2107                            in a Mirrored Disk pair.  There is always supposed to be
      169     2108                            one operational Mirrored Disk device for normal Mirrored
      170     2109                            Disk IO.
      171     2110        */
      172     2111    4                           CALL SC_NIDNOPMIR ;
      173     2112
      174     2113    5                       ELSE DO ;
      175     2114    5                           REQ.DLA.DCTX = MDCTX ;
PL6.E3A0      #001=NID$DEVSCHED File=NID$DISK.:E05TSI                            WED 07/30/97 03:29 Page:7
      176     2115    5                           REQ.DCT$     = MDCT$ ;
      177     2116    5                           CALL NIO$DCWBLD ( REQ ) ;
      178     2117                                %UNLOCK ( G#=SQH.GATE ) ;
      179     2120    5                           GOTO REQSCHED ;
      180     2121    5                           END ;
      181     2122    4                       END ;
      182     2123
      183     2124    3                   IF  REQ.FC = %N_RDBIN
      184     2125    3                   OR  REQ.FC = %N_RDASC
      185     2126    4                   THEN DO ;
      186     2127        /*N*                Alternating reads on Mirrored Disks not done
      187     2128                            because of errors caused by read done on secondary
      188     2129                            device before preceding write is completed on
      189     2130                            secondary device.
      190     2131
      191     2132                            IF  MDCT.DP.MIRROR.READ
      192     2133                            AND NOT MDCT.DP.MIRROR.LOCK
      193     2134                            THEN DO ;
      194     2135                                IF  DCT.DP.MIRROR.TOGGLE
      195     2136                                THEN
      196     2137                                    DCT.DP.MIRROR.TOGGLE = '0'B ;
      197     2138                                ELSE DO ;
      198     2139                                    DCT.DP.MIRROR.TOGGLE = '1'B ;
      199     2140                                    REQ.DLA.DCTX         = MDCTX ;
      200     2141                                    DCT$                 = MDCT$ ;
      201     2142                                    REQ.DCT$             = DCT$ ;
      202     2143                                    MDCTX                = DCT.DP.MIRROR.DCTX ;
      203     2144                                    MDCT$                = N$DCT$(MDCTX) ;
      204     2145                                    CALL NIO$DCWBLD ( REQ ) ;
      205     2146                                    IF  SQH$ ~= MSQH$
      206     2147                                    THEN DO INHIBIT ;
      207     2148                                        %UNLOCK ( G#=SQH.GATE ) ;
      208     2149                                        %LOCK   ( G#=MSQH.GATE ) ;
      209     2150                                        SQH$    = MSQH$ ;
      210     2151                                        MSQH$   = MDCT.SQH$ ;
      211     2152                                        END ;
      212     2153                                    END ;
PL6.E3A0      #001=NID$DEVSCHED File=NID$DISK.:E05TSI                            WED 07/30/97 03:29 Page:8
      213     2154                                END ;
      214     2155
      215     2156                            ELSE DO ;
      216     2157                                END ;
      217     2158
      218     2159        *N*/
      219     2160    4                       END ;
      220     2161
      221     2162    3                   ELSE IF  MDCT.DP.MIRROR.WRITE
      222     2163    3                   THEN
      223     2164    3                       REQ.DOMIR = '1'B ;
      224     2165
      225     2166    3                   END ; /* IF  NOT REQ.BPMIR */
      226     2167
      227     2168    2               END ; /* IF  Mirrored Disk */
      228     2169    1           IF  DCT.DP.MIRROR.FLAG
      229     2170    1           AND DCT.DP.MIRROR.LOCK
      230     2171    1           AND REQ.USER# ~= DCT.DP.MIRROR.USER#
      231     2172    2           THEN DO ;
      232     2173                    %ENQUEUE ( P#=REQ, Q#=DCT.DP.MIRROR.LQ$ ) ;
      233     2176    2               GOTO PMNBUSY ;
      234     2177    2               END ;
      235     2178
      236     2179
      237     2180    1           GOTO REQSCHEDL ;
      238     2181
      239     2182        /*
      240     2183           ENQUEUE REQUEST ON APPROPRIATE QUEUE
      241     2184        */
      242     2185
      243     2186    1   NID$REQSCHEDL:  ENTRY ( PAR ) ;
      244     2187    1           REQ$         = ADDR(PAR) ;
      245     2188    1           DCT$         = REQ.DCT$ ;
      246     2189    1           SQH$         = DCT.SQH$ ;
      247     2190    1           REQSCHEDONLY = '1'B ;
      248     2191
      249     2192    1   REQSCHEDL:
PL6.E3A0      #001=NID$DEVSCHED File=NID$DISK.:E05TSI                            WED 07/30/97 03:29 Page:9
      250     2193    1           IF DCT.SQ$ = ADDR(NIL)
      251     2194    2           THEN DO ;
      252     2195    2              REQ.FL$=REQ$;
      253     2196    2              DCT.SQ$=REQ$;
      254     2197    2              DCT.DP.LEAPERS=0;
      255     2198    2              DCT.DP.SWP='0'B;
      256     2199    2              DCT.DP.CSEEK=0;
      257     2200    2              END;
      258     2201    2           ELSE DO;
      259     2202    3              IF DCT.DP.SWP THEN DO;       /* GOING DOWN */
      260     2203    3                 IF BITBIN(REQ.DLA)>DCT.DP.CSEEK OR
      261     2204    3                   (DCT.DP.BQ$~=ADDR(NIL) AND DCT.DP.LEAPERS>NI_IOLEAPERS) THEN
      262     2205    3                    CALL ENQUP(DCT.DP.BQ$);
      263     2206    4                 ELSE DO;
      264     2207    4                    DCT.DP.LEAPERS=DCT.DP.LEAPERS+1;
      265     2208    4                    CALL ENQDOWN(DCT.SQ$);
      266     2209    4                    END;
      267     2210    3                 END;
      268     2211    3              ELSE DO;                     /* GOING UP */
      269     2212    3                 IF BITBIN(REQ.DLA)<DCT.DP.CSEEK OR
      270     2213    3                   (DCT.DP.BQ$~=ADDR(NIL) AND DCT.DP.LEAPERS>NI_IOLEAPERS) THEN
      271     2214    3                    CALL ENQDOWN(DCT.DP.BQ$);
      272     2215    4                 ELSE DO;
      273     2216    4                    DCT.DP.LEAPERS=DCT.DP.LEAPERS+1;
      274     2217    4                    CALL ENQUP(DCT.SQ$);
      275     2218    4                    END;
      276     2219    3                 END;
      277     2220    2              END;
      278     2221    1           IF  REQSCHEDONLY
      279     2222    2           THEN DO ;
      280     2223    2               IF  DCT.STATE = %IDLE
      281     2224    2               AND DCT.SQ$ ~= ADDR(NIL)
      282     2225    3               THEN DO ;
      283     2226                        %ENQUEUE ( P#=DCT, Q#=SQH.AQ$ ) ;
      284     2229    3                   DCT.STATE = %REQUESTED ;
      285     2230    3                   CALL PMN$COLLECT ( DCT.PM, %PM_WAIT ) ;
      286     2231    3                   END ;
PL6.E3A0      #001=NID$DEVSCHED File=NID$DISK.:E05TSI                            WED 07/30/97 03:29 Page:10
      287     2232    2               RETURN ;
      288     2233    2               END ;
      289     2234
      290     2235    1   PMNBUSY:
      291     2236    1           IF  DCT.PM.MODE = %PM_BUSY
      292     2237    1           THEN
      293     2238    1               CALL PMN$COLLECT ( DCT.PM, %PM_QUED ) ;
      294     2239
      295     2240    1           GOTO DEVSCHED ;
      296     2241        %EJECT;
PL6.E3A0      #001=NID$DEVSCHED File=NID$DISK.:E05TSI                            WED 07/30/97 03:29 Page:11
      297     2242    1   NID$DEVSCHEDL: ENTRY(PAR,NEWSTATE);
      298     2243    1           DCT$=ADDR(PAR);
      299     2244    1           SQH$=DCT.SQH$;
      300     2245    1           DCT.STATE=NEWSTATE;
      301     2246    1   DEVSCHED:
      302     2247    2           IF DCT.STATE=%IDLE THEN DO;
      303     2248    3              IF DCT.SQ$~=ADDR(NIL) THEN DO;
      304     2249                      %ENQUEUE (P#=DCT,Q#=SQH.AQ$);
      305     2252    3                 DCT.STATE=%REQUESTED;
      306     2253    3                 CALL PMN$COLLECT(DCT.PM,%PM_WAIT);
      307     2254    3                 END;
      308     2255    3              ELSE DO;
      309     2256    3                 IF DCT.TYPE=%DV_DP THEN DCT.DP.CSEEK=0;
      310     2257    3                 CALL PMN$COLLECT(DCT.PM,%PM_IDLE);
      311     2258    3                 END;
      312     2259    2              END;
      313     2260    1           GOTO SCANAQ;
      314     2261        %EJECT ;
PL6.E3A0      #001=NID$DEVSCHED File=NID$DISK.:E05TSI                            WED 07/30/97 03:29 Page:12
      315     2262        /*D* NAME:          NID$SCANAQ
      316     2263
      317     2264             CALL:          CALL NID$SCANAQ(SQH);
      318     2265                            where:
      319     2266                                  SQH is the subsytem to be scanned.
      320     2267
      321     2268             ENVIRONMENT:   Monitor, not privileged, not inhibited
      322     2269
      323     2270             INPUT:         Disk I/O Tables
      324     2271
      325     2272             DESCRIPTION:   NID$SCANAQ scans all the requests on the subsystem
      326     2273                            assign queue to find any that can be started.
      327     2274                            After the scan is completed, SQH.GATE is unlocked.
      328     2275                                                                           */
      329     2276    1   NID$SCANAQ: ENTRY(PAR);
      330     2277    1           SQH$=ADDR(PAR);
      331     2278                %LOCK (G#=SQH.GATE);
      332     2281    1   SCANAQ:
      333     2282    1           SVDCT$=ADDR(NIL);
      334     2283    2           DO WHILE(SQH.AQ$~=ADDR(NIL));
      335     2284                   %DEQUEUE(P#=DCT$,Q#=SQH.AQ$);
      336     2291    2              DVT$=DCT.DVT$;
      337     2292    2              REQ$=DCT.SQ$->REQ.FL$;
      338     2293    3              IF REQ.DQH$=ADDR(NIL) THEN DO; /* REGULAR REQUEST */
      339     2294    4                 IF SQH.CQ$=ADDR(NIL) THEN DO;
      340     2295                         %ENQUEUE(P#=DCT,Q#=SVDCT$);
      341     2298    4                    END;
      342     2299    4                 ELSE DO;
      343     2300                         %DEQUEUE(P#=DQH$,Q#=SQH.CQ$);
      344     2307                         %DEQUEUE(P#=REQ$,Q#=DCT.SQ$);
      345     2314    4                    DQH.IO$=REQ$;
      346     2315    4                    DCT.DQH$=DQH$;
      347     2316    4                    DCT.STATE=%BUSY;
      348     2317    4                    DCT.DP.CSEEK=BITBIN(REQ.DLA);
      349     2318    5                    IF DCT.SQ$=ADDR(NIL) THEN DO;
      350     2319    5                       DCT.SQ$=DCT.DP.BQ$;
      351     2320    5                       DCT.DP.BQ$=ADDR(NIL);
PL6.E3A0      #001=NID$DEVSCHED File=NID$DISK.:E05TSI                            WED 07/30/97 03:29 Page:13
      352     2321    5                       DCT.DP.LEAPERS=0;
      353     2322    5                       DCT.DP.SWP=~DCT.DP.SWP;
      354     2323    5                       IF DCT.SQ$=ADDR(NIL) THEN
      355     2324    5                          CALL PMN$COLLECT(DCT.PM,%PM_BUSY);
      356     2325    5                       ELSE
      357     2326    5                          CALL PMN$COLLECT(DCT.PM,%PM_QUED);
      358     2327    5                       END;
      359     2328    4                    ELSE CALL PMN$COLLECT(DCT.PM,%PM_QUED);
      360     2329    4                    CALL NIS$DRIVER(DQH);
      361     2330    4                    END;
      362     2331    3                 END;
      363     2332    3              ELSE DO;                     /* SPECIAL REQUESTS */
      364     2333    3                 DQH$=REQ.DQH$;
      365     2334    3                 IF DQH.STATE~=%IDLE OR
      366     2335    4                   (REQ.IOFLG.STOPMPC AND NOT DQH.MPC$->DCT.DFLG.MPCSTOP) THEN DO;
      367     2336                         %ENQUEUE(P#=DCT,Q#=SVDCT$);
      368     2339    4                    END;
      369     2340    4                 ELSE DO;
      370     2341    5                    IF DQH.FL$~=ADDR(NIL) THEN DO;
      371     2342    6                       DO WHILE(SQH.CQ$->DQH.FL$~=DQH$);
      372     2343    6                          SQH.CQ$=SQH.CQ$->DQH.FL$;
      373     2344    6                          END;
      374     2345                            %DEQUEUE(P#=DQH$,Q#=SQH.CQ$);
      375     2352    5                       END;
      376     2353                         %DEQUEUE(P#=REQ$,Q#=DCT.SQ$);
      377     2360    4                    DQH.IO$=REQ$;
      378     2361    4                    IF REQ.IOFLG.SUSP THEN DQH.MPC$->DCT.DFLG.MPCSUSPENDED='1'B;
      379     2362    4                    DCT.DQH$=DQH$;
      380     2363    4                    DCT.STATE=%BUSY;
      381     2364    5                    IF DCT.TYPE=%DV_DP THEN DO;
      382     2365    5                       DCT.DP.CSEEK=BITBIN(REQ.DLA);
      383     2366    6                       IF DCT.SQ$=ADDR(NIL) THEN DO;
      384     2367    6                          DCT.SQ$=DCT.DP.BQ$;
      385     2368    6                          DCT.DP.BQ$=ADDR(NIL);
      386     2369    6                          DCT.DP.LEAPERS=0;
      387     2370    6                          DCT.DP.SWP=~DCT.DP.SWP;
      388     2371    6                          IF DCT.SQ$=ADDR(NIL) THEN
PL6.E3A0      #001=NID$DEVSCHED File=NID$DISK.:E05TSI                            WED 07/30/97 03:29 Page:14
      389     2372    6                             CALL PMN$COLLECT(DCT.PM,%PM_BUSY);
      390     2373    6                          ELSE
      391     2374    6                             CALL PMN$COLLECT(DCT.PM,%PM_QUED);
      392     2375    6                          END;
      393     2376    5                       ELSE CALL PMN$COLLECT(DCT.PM,%PM_QUED);
      394     2377    5                       END;
      395     2378    4                    ELSE CALL PMN$COLLECT(DCT.PM,%PM_BUSY);
      396     2379    4                    CALL NIS$DRIVER(DQH);
      397     2380    4                    END;
      398     2381    3                 END;
      399     2382    2              END;
      400     2383    1           SQH.AQ$=SVDCT$;
      401     2384                %UNLOCK(G#=SQH.GATE);
      402     2387    1           RETURN;
      403     2388        %EJECT;
PL6.E3A0      #001=NID$DEVSCHED File=NID$DISK.:E05TSI                            WED 07/30/97 03:29 Page:15
      404     2389        /* ENQUEUE REQUEST ON APPROPRIATE SCHEDULER QUEUE */
      405     2390        /**/
      406     2391    1   ENQUP:  PROC(Q$);
      407     2392    2   DCL Q$ PTR;
      408     2393        /**/
      409     2394        /* ON ENTRY TO THIS PROCEDURE REQ$ POINTS TO REQUEST TO BE ENQUEUED */
      410     2395        /**/
      411     2396    2   DCL DLA UBIN;
      412     2397    2   DCL FREQ$ PTR;
      413     2398    2   DCL NXT$ PTR;
      414     2399    3           IF Q$=ADDR(NIL) THEN DO;
      415     2400    3              REQ.FL$=REQ$;
      416     2401    3              Q$=REQ$;
      417     2402    3              RETURN;
      418     2403    3              END;
      419     2404    2           DLA=BITBIN(REQ.DLA)+1;
      420     2405    2           FREQ$=ADDR(NIL);
      421     2406    2           NXT$=Q$->REQ.FL$;
      422     2407    3           DO WHILE(DLA>BITBIN(NXT$->REQ.DLA) AND FREQ$~=Q$);
      423     2408    3              FREQ$=NXT$;
      424     2409    3              NXT$=FREQ$->REQ.FL$;
      425     2410    3              END;
      426     2411    2           GOTO INSRT;
      427     2412        /**/
      428     2413        /**/
      429     2414        /**/
      430     2415    2   ENQDOWN: ENTRY(Q$);
      431     2416    3           IF Q$=ADDR(NIL) THEN DO;
      432     2417    3              REQ.FL$=REQ$;
      433     2418    3              Q$=REQ$;
      434     2419    3              RETURN;
      435     2420    3              END;
      436     2421    2           DLA=BITBIN(REQ.DLA)-1;
      437     2422    2           FREQ$=ADDR(NIL);
      438     2423    2           NXT$=Q$->REQ.FL$;
      439     2424    3           DO WHILE(DLA<BITBIN(NXT$->REQ.DLA) AND FREQ$~=Q$);
      440     2425    3              FREQ$=NXT$;
PL6.E3A0      #001=NID$DEVSCHED File=NID$DISK.:E05TSI                            WED 07/30/97 03:29 Page:16
      441     2426    3              NXT$=FREQ$->REQ.FL$;
      442     2427    3              END;
      443     2428    2   INSRT:
      444     2429    3           IF FREQ$=ADDR(NIL) THEN DO;
      445     2430    3              REQ.FL$=Q$->REQ.FL$;
      446     2431    3              Q$->REQ.FL$=REQ$;
      447     2432    3              RETURN;
      448     2433    3              END;
      449     2434    2           REQ.FL$=FREQ$->REQ.FL$;
      450     2435    2           FREQ$->REQ.FL$=REQ$;
      451     2436    2           IF FREQ$=Q$ THEN Q$=REQ$;
      452     2437    2           RETURN;
      453     2438    2   END ENQUP;
      454     2439    1   END NID$DEVSCHED;
      455     2440        %EOD;

PL6.E3A0      #001=NID$DEVSCHED File=NID$DISK.:E05TSI                            WED 07/30/97 03:29 Page:17
--  Include file information  --

   P_PMDAT_C.:E05TOU  is referenced.
   P_PMDAT_R.:E05TOU  cannot be made into a system file and is referenced.
   PM$NI.:E05TOU  is referenced.
   N_FC_C.:E05TOU  is referenced.
   NI_MACROS_C.:E05TOU  cannot be made into a system file and is referenced.
   NI$TABLES.:E05TOU  is referenced.
   N$REQ.:E05TOU  is referenced.
   NI_DATA_R.:E05TOU  cannot be made into a system file and is referenced.
   NI_DATA_C.:E05TOU  is referenced.
   HF_LOCK_C.:E05TOU  cannot be made into a system file and is referenced.
   CP_6_SUBS.:E05TOU  is referenced.
      No diagnostics issued in procedure NID$DEVSCHED.

   Procedure NID$DEVSCHED requires 680 words for executable code.
   Procedure NID$DEVSCHED requires 24 words of local(AUTO) storage.

PL6.E3A0      #001=NID$DEVSCHED File=NID$DISK.:E05TSI                            WED 07/30/97 03:29 Page:18

 Object Unit name= NID$DEVSCHED                               File name= NID$DISK.:E05TOU
 UTS= JUL 30 '97 03:29:40.44 WED                              Compiler= PL-6/E31         Sev=      00
 SharedLib= :SHARED_SYSTEM                                    Alt SharedLib=


    ****  Control sections  ****

 Sect   Type Bound  Init  Size OctSiz  Section name(segment info)
    0   Proc  even  none   680   1250  NID$DEVSCHED
    1  RoData even  none     6      6  NID$DEVSCHED

    ****  Entry defs  ****

                              Check   Calling
                             calling  sequence
  Sect OctLoc Primary Altret sequence   type   Parms  Name
     0      0   yes            yes      Std        2  NID$DEVSCHED
     0     20                  yes      Std        1  NID$REQSCHED
     0    205                  yes      Std        1  NID$REQSCHEDL
     0    400                  yes      Std        2  NID$DEVSCHEDL
     0    465                  yes      Std        1  NID$SCANAQ

  ****  Entry refs  ****

         Check        Calling
        calling       sequence
Altret sequence SRef   type   Args  Name
         yes           Std       1 HFC$LOCK
         yes           Std       1 HFC$UNLOCK
         yes           Std       2 PMN$COLLECT
 yes     yes           Std       2 NIM$DEQUEUE
         yes           Std       1 NIS$DRIVER
 yes     yes           Std       1 NIO$DCWBLD
         yes           Std       2 NIM$ENQUEUE
                       nStd      0 X66_AUTO_2
                       Std       0 B_CONSPOOL_D
                       nStd      0 X66_ARET
PL6.E3A0      #001=NID$DEVSCHED File=NID$DISK.:E05TSI                            WED 07/30/97 03:29 Page:19

  ****  Data refs  ****

  Flags:  r = read only, s = secondary
Flgs Name                             Flgs Name                             Flgs Name
     SC_NIDINVMIR                          SC_NIDNOPMIR                          N$DCT$$
     N$FQ$                                 NI$FQ$                                NI$IBUF$
     NI$RP$                                P_RESOURCE$                           P_UPTIME
     P_NSCPU                               NI_IOLEAPERS                          NK_MXLOCAL
     B_VECTNIL

  ****  Segment refs  ****

  Flags:  r = read only, s = secondary
Flgs Name                             Flgs Name                             Flgs Name
     ASLENTSID                             ISSID
PL6.E3A0      #001=NID$DEVSCHED File=NID$DISK.:E05TSI                            WED 07/30/97 03:29 Page:20


        1        1        /*M* NID$DISK - Disk Handler */
        2        2        /*T***********************************************************/
        3        3        /*T*                                                         */
        4        4        /*T* Copyright (c) Bull HN Information Systems Inc., 1997    */
        5        5        /*T*                                                         */
        6        6        /*T***********************************************************/
        7        7        /*X* DFC=YES, DMC=YES, EDMC=YES                                    */
        8        8        /**/
        9        9        /*P* NAME:        NID$DISK
       10       10
       11       11             PURPOSE:     NID$DISK is the disk handler.
       12       12
       13       13             REFERENCE:   43A232230  EPS-1 DSC181/DSC190 Disk Controller
       14       14        */
       15       15        /*D* NAME:        NID$DEVSCHED, NID$DEVSCHEDL
       16       16
       17       17             CALL:        CALL NID$DEVSCHED(DCT,NEWSTATE);
       18       18                          CALL NID$DEVSCHEDL(DCT,NEWSTATE);
       19       19                          where:
       20       20                                 DCT$ PTR -> Device Control Table entry
       21       21                                 NEWSTATE New device state.  Put in DCT after
       22       22                                          locking SQH.GATE.
       23       23
       24       24             ENVIRONMENT: Monitor, not privileged, not inhibited
       25       25
       26       26             INPUT:       Disk I/O Tables
       27       27
       28       28             DESCRIPTION:   SQH.GATE is locked and the device's state is
       29       29                            changed to NEWSTATE.  Control then passes to
       30       30                            the SCHED code which is common to NID$DEVSCHED
       31       31                            and NID$REQSCHED.  NID$DEVSCHEDL is called if
       32       32                            SQH.GATE is already locked.  SQH.GATE will always
       33       33                            be unlocked after the return.
       34       34
       35       35                            At SCHED if the device's state is IDLE and there
       36       36                            are requests pending on the device it is placed
PL6.E3A0      #001=NID$DEVSCHED File=NID$DISK.:E05TSI                            WED 07/30/97 03:29 Page:21
       37       37                            on the assign que for the subsystem.  The device
       38       38                            state is changed to requested.  Control then
       39       39                            passes to NID$SCANAQ.
       40       40        */
       41       41        NID$DEVSCHED: PROC (PAR,NEWSTATE);

     41  0 000000   000000 700200 xent  NID$DEVSCHED TSX0  ! X66_AUTO_2
         0 000001   000030 000002                    ZERO    24,2

       42       42        /*
       43       43                Includes
       44       44        */
       45       45        %INCLUDE                CP_6_SUBS ;
       46      585        %INCLUDE                HF_LOCK_C ;
       47      599        %INCLUDE                NI_DATA_C ;
       48      712        %INCLUDE                NI_DATA_R ;
       49     1149        %INCLUDE                NI_MACROS_C ;
       50     1416        %INCLUDE                N_FC_C ;
       51     1453        %INCLUDE                PM$NI ;
       52     1477        %INCLUDE                P_PMDAT_R ;
       53     1785        /*
       54     1786                Parameters
       55     1787        */
       56     1788    1   DCL 1 NEWSTATE          UBIN PARAM ;
       57     1789    1   DCL 1 PAR               UBIN PARAM ;
       58     1790        /*
       59     1791                Entries
       60     1792        */
       61     1793    1   DCL 1 NIO$DCWBLD        ENTRY(1) ALTRET ;
       62     1794    1   DCL 1 NIS$DRIVER        ENTRY(1) ;
       63     1795    1   DCL 1 PMN$COLLECT       ENTRY(2) ;
       64     1796    1   DCL 1 SC_NIDINVMIR      ENTRY CONV(2,0) ;
       65     1797    1   DCL 1 SC_NIDNOPMIR      ENTRY CONV(2,0) ;
       66     1798        /*
       67     1799                Symrefs
       68     1800        */
       69     1801    1   DCL 1 NI_IOLEAPERS      UBIN WORD SYMREF ;
PL6.E3A0      #001=NID$DEVSCHED File=NID$DISK.:E05TSI                            WED 07/30/97 03:29 Page:22
       70     1802    1   DCL 1 NK_MXLOCAL        UBIN WORD SYMREF ;
       71     1803        /*
       72     1804                Auto
       73     1805        */
       74     1806    1   DCL 1 DCT$              PTR ALIGNED AUTO ;
       75     1807    1   DCL 1 DQH$              PTR ALIGNED AUTO ;
       76     1808    1   DCL 1 DVT$              PTR ALIGNED AUTO ;
       77     1809    1   DCL 1 MDCT$             PTR ALIGNED AUTO ;
       78     1810    1   DCL 1 MDCTX             SBIN WORD ALIGNED AUTO ;
       79     1811    1   DCL 1 MSQH$             PTR ALIGNED AUTO ;
       80     1812    1   DCL 1 REQ$              PTR ALIGNED AUTO ;
       81     1813    1   DCL 1 REQSCHEDONLY      BIT(1) ALIGNED AUTO ;
       82     1814    1   DCL 1 SQH$              PTR ALIGNED AUTO ;
       83     1815    1   DCL 1 SVDCT$            PTR ALIGNED AUTO ;
       84     1816        /*
       85     1817                Based
       86     1818        */
       87     1819        %NI$DCT                 ( NAME=DCT,     STCLASS="BASED(DCT$)" ) ;
       88     1867        %NI$DQH                 ( NAME=DQH,     STCLASS="BASED(DQH$)" ) ;
       89     1890        %NI$DVT                 ( NAME=DVT,     STCLASS="BASED(DVT$)" ) ;
       90     1897        %NI$DCT                 ( NAME=MDCT,    STCLASS="BASED(MDCT$)" ) ;
       91     1945        %NI$SQH                 ( NAME=MSQH,    STCLASS="BASED(MSQH$)" ) ;
       92     1958        %N$REQ                  ( NAME=REQ,     STCLASS="BASED(REQ$)" ) ;
       93     2016        %NI$SQH                 ( NAME=SQH,     STCLASS="BASED(SQH$)" ) ;
       94     2029
       95     2030        %EJECT ;
PL6.E3A0      #001=NID$DEVSCHED File=NID$DISK.:E05TSI                            WED 07/30/97 03:29 Page:23
       96     2031    1           DCT$      = ADDR(PAR) ;

   2031  0 000002   200003 236100                    LDQ     @PAR,,AUTO
         0 000003   200005 756100                    STQ     DCT$,,AUTO

       97     2032    1           SQH$      = DCT.SQH$ ;

   2032  0 000004   200005 470500                    LDP0    DCT$,,AUTO
         0 000005   000022 236100                    LDQ     18,,PR0
         0 000006   200015 756100                    STQ     SQH$,,AUTO

       98     2033                %LOCK ( G#=SQH.GATE ) ;

   2034  0 000007   200015 630500                    EPPR0   SQH$,,AUTO
         0 000010   000017 631400 xsym               EPPR1   B_VECTNIL+15
         0 000011   000000 701000 xent               TSX1    HFC$LOCK
         0 000012   000000 011000                    NOP     0

       99     2036    1           DCT.STATE = NEWSTATE ;

   2036  0 000013   200004 470500                    LDP0    @NEWSTATE,,AUTO
         0 000014   200005 471500                    LDP1    DCT$,,AUTO
         0 000015   000000 236100                    LDQ     0,,PR0
         0 000016   100007 752101                    STCQ    7,'01'O,PR1

      100     2037    1           GOTO DEVSCHED ;

   2037  0 000017   000412 710000 0                  TRA     DEVSCHED

      101     2038        %EJECT ;
PL6.E3A0      #001=NID$DEVSCHED File=NID$DISK.:E05TSI                            WED 07/30/97 03:29 Page:24
      102     2039        /*D* NAME:        NID$REQSCHED
      103     2040
      104     2041             CALL:        CALL NID$REQSCHED(REQ);
      105     2042                          where:
      106     2043                                 REQ$   PTR    -> the IOQ request packet
      107     2044
      108     2045             ENVIRONMENT: Monitor, not privileged, not inhibited.
      109     2046
      110     2047             INPUT:       N$REQ  IOQ request packet
      111     2048
      112     2049             DESCRIPTION:   NID$REQSCHED enqueues a request on the appropriate
      113     2050                            queue.  If the device is a Mirrored Disk, if it
      114     2051                            is locked, and if this is not the user who locked
      115     2052                            the device, then the IO request is enqued on the
      116     2053                            locked queue (LQ$).  Otherwise, the IO request
      117     2054                            is queued on either the device's scheduler or
      118     2055                            backup queue.  Then NID$REQSCHED goes to the
      119     2056                            common code at SCHED.
      120     2057        */
      121     2058    1   NID$REQSCHED: ENTRY(PAR);

   2058  0 000020   000000 700200 xent  NID$REQSCHED TSX0  ! X66_AUTO_2
         0 000021   000030 000002                    ZERO    24,2

      122     2059
      123     2060    1   REQSCHED:
      124     2061
      125     2062    2           DO  INHIBIT ;

   2062  0 000022                       REQSCHED     null
      126     2063    2               REQ$=ADDR(PAR);

   2063  0 000022   200003 236300                    LDQ   ! @PAR,,AUTO
         0 000023   200013 756300                    STQ   ! REQ$,,AUTO

      127     2064    2               DCT$=REQ.DCT$;

PL6.E3A0      #001=NID$DEVSCHED File=NID$DISK.:E05TSI                            WED 07/30/97 03:29 Page:25
   2064  0 000024   200013 470700                    LDP0  ! REQ$,,AUTO
         0 000025   000002 236300                    LDQ   ! 2,,PR0
         0 000026   200005 756300                    STQ   ! DCT$,,AUTO

      128     2065    2               SQH$=DCT.SQH$;

   2065  0 000027   200005 471700                    LDP1  ! DCT$,,AUTO
         0 000030   100022 236300                    LDQ   ! 18,,PR1
         0 000031   200015 756300                    STQ   ! SQH$,,AUTO

      129     2066                    %LOCK(G#=SQH.GATE);

   2067  0 000032   200015 630700                    EPPR0 ! SQH$,,AUTO
         0 000033   000017 631600 xsym               EPPR1 ! B_VECTNIL+15
         0 000034   000000 701200 xent               TSX1  ! HFC$LOCK
         0 000035   000000 011200                    NOP   ! 0

      130     2069    2               END ;

      131     2070    1           REQSCHEDONLY = '0'B ;

   2070  0 000036   200014 450100                    STZ     REQSCHEDONLY,,AUTO

      132     2071
      133     2072    1           IF  DCT.DP.MIRROR.FLAG

   2072  0 000037   200005 470500                    LDP0    DCT$,,AUTO
         0 000040   000036 234100                    SZN     30,,PR0
         0 000041   000160 605000 0                  TPL     s:2169
         0 000042   200013 471500                    LDP1    REQ$,,AUTO
         0 000043   100034 236100                    LDQ     28,,PR1
         0 000044   100000 316003                    CANQ    32768,DU
         0 000045   000160 601000 0                  TNZ     s:2169

      134     2073    1           AND NOT REQ.MIRDONE
      135     2074    2           THEN DO ;

PL6.E3A0      #001=NID$DEVSCHED File=NID$DISK.:E05TSI                            WED 07/30/97 03:29 Page:26
      136     2075    2               IF  REQ.DLA.DRELADDR < DCT.DP.MIRROR.DRZERO

   2075  0 000046   100001 236100                    LDQ     1,,PR1
         0 000047   000000 376000 1                  ANQ     0
         0 000050   000041 116100                    CMPQ    33,,PR0
         0 000051   000054 605000 0                  TPL     s:2079

      137     2076    2               THEN
      138     2077    2                   REQ.BPMIR = '1'B ;

   2077  0 000052   200000 236003                    LDQ     65536,DU
         0 000053   100034 256100                    ORSQ    28,,PR1

      139     2078
      140     2079    2               IF  NOT REQ.BPMIR

   2079  0 000054   100034 236100                    LDQ     28,,PR1
         0 000055   200000 316003                    CANQ    65536,DU
         0 000056   000160 601000 0                  TNZ     s:2169

      141     2080    3               THEN DO ;

      142     2081    3                   MDCTX = DCT.DP.MIRROR.DCTX ;

   2081  0 000057   000037 236100                    LDQ     31,,PR0
         0 000060   000022 772000                    QRL     18
         0 000061   200011 756100                    STQ     MDCTX,,AUTO

      143     2082    3                   MDCT$ = N$DCT$(MDCTX) ;

   2082  0 000062   000000 473400 xsym               LDP3    N$DCT$$
         0 000063   300000 236106                    LDQ     0,QL,PR3
         0 000064   200010 756100                    STQ     MDCT$,,AUTO

      144     2083    3                   MSQH$ = MDCT.SQH$ ;

   2083  0 000065   200010 474500                    LDP4    MDCT$,,AUTO
PL6.E3A0      #001=NID$DEVSCHED File=NID$DISK.:E05TSI                            WED 07/30/97 03:29 Page:27
         0 000066   400022 236100                    LDQ     18,,PR4
         0 000067   200012 756100                    STQ     MSQH$,,AUTO

      145     2084
      146     2085    3                   REQ.DOMIR = '0'B ;

   2085  0 000070   000031 236000 xsym               LDQ     B_VECTNIL+25
         0 000071   100034 356100                    ANSQ    28,,PR1

      147     2086    3                   REQ.COMP  = %COMP_MIRROR ;

   2086  0 000072   100027 236100                    LDQ     23,,PR1
         0 000073   000001 376000 1                  ANQ     1
         0 000074   010000 276007                    ORQ     4096,DL
         0 000075   100027 756100                    STQ     23,,PR1

      148     2087
      149     2088    3                   IF  DCT.DP.MIRROR.STATE ~= %NI_MIRROR_OPER

   2088  0 000076   000036 236100                    LDQ     30,,PR0
         0 000077   007700 316003                    CANQ    4032,DU
         0 000100   000142 600000 0                  TZE     s:2124

      150     2089    4                   THEN DO ;

      151     2090    4                       IF  MDCTX > NK_MXLOCAL

   2090  0 000101   000000 236000 xsym               LDQ     NK_MXLOCAL
         0 000102   000105 604000 0                  TMI     s:2090+4
         0 000103   200011 116100                    CMPQ    MDCTX,,AUTO
         0 000104   000107 604000 0                  TMI     s:2099
         0 000105   200011 235100                    LDA     MDCTX,,AUTO
         0 000106   000111 601000 0                  TNZ     s:2101

      152     2091    4                       OR  MDCTX = 0
      153     2092    4                       THEN
      154     2093        /*S* SCREECH_CODE:  NID-S$INVMIR-7
PL6.E3A0      #001=NID$DEVSCHED File=NID$DISK.:E05TSI                            WED 07/30/97 03:29 Page:28
      155     2094             TYPE:          SCREECH
      156     2095             MESSAGE:       Invalid Mirrored Disk DCT index.
      157     2096             DESCRIPTION:   The DCT index for the mirror of this Mirrored
      158     2097                            Disk device is invalid.
      159     2098        */
      160     2099    4                           CALL SC_NIDINVMIR ;

   2099  0 000107   000000 713400 xsym               CLIMB   SC_NIDINVMIR
         0 000110   000000 600000 xsid               climb   nvectors=         0

      161     2100
      162     2101    4                       IF  MDCT.DP.MIRROR.STATE ~= %NI_MIRROR_OPER

   2101  0 000111   200010 470500                    LDP0    MDCT$,,AUTO
         0 000112   000036 236100                    LDQ     30,,PR0
         0 000113   007700 316003                    CANQ    4032,DU
         0 000114   000120 600000 0                  TZE     s:2114

      163     2102    4                       THEN
      164     2103        /*S* SCREECH_CODE:  NID-S$NOPMIR-7
      165     2104             TYPE:          SCREECH
      166     2105             MESSAGE:       No operational Mirrored Disk device.
      167     2106             DESCRIPTION:   The IO system detected no operational Mirrored Disk device
      168     2107                            in a Mirrored Disk pair.  There is always supposed to be
      169     2108                            one operational Mirrored Disk device for normal Mirrored
      170     2109                            Disk IO.
      171     2110        */
      172     2111    4                           CALL SC_NIDNOPMIR ;

   2111  0 000115   000000 713400 xsym               CLIMB   SC_NIDNOPMIR
         0 000116   000000 600000 xsid               climb   nvectors=         0
         0 000117   000142 710000 0                  TRA     s:2124

      173     2112
      174     2113    5                       ELSE DO ;

      175     2114    5                           REQ.DLA.DCTX = MDCTX ;
PL6.E3A0      #001=NID$DEVSCHED File=NID$DISK.:E05TSI                            WED 07/30/97 03:29 Page:29

   2114  0 000120   200013 471500                    LDP1    REQ$,,AUTO
         0 000121   200011 236100                    LDQ     MDCTX,,AUTO
         0 000122   000025 736000                    QLS     21
         0 000123   100001 676100                    ERQ     1,,PR1
         0 000124   777770 376003                    ANQ     -8,DU
         0 000125   100001 656100                    ERSQ    1,,PR1

      176     2115    5                           REQ.DCT$     = MDCT$ ;

   2115  0 000126   200010 236100                    LDQ     MDCT$,,AUTO
         0 000127   200013 471500                    LDP1    REQ$,,AUTO
         0 000130   100002 756100                    STQ     2,,PR1

      177     2116    5                           CALL NIO$DCWBLD ( REQ ) ;

   2116  0 000131   200013 630500                    EPPR0   REQ$,,AUTO
         0 000132   000017 631400 xsym               EPPR1   B_VECTNIL+15
         0 000133   000000 701000 xent               TSX1    NIO$DCWBLD
         0 000134   000000 011000                    NOP     0

      178     2117                                %UNLOCK ( G#=SQH.GATE ) ;

   2118  0 000135   200015 630500                    EPPR0   SQH$,,AUTO
         0 000136   000017 631400 xsym               EPPR1   B_VECTNIL+15
         0 000137   000000 701000 xent               TSX1    HFC$UNLOCK
         0 000140   000000 011000                    NOP     0

      179     2120    5                           GOTO REQSCHED ;

   2120  0 000141   000022 710000 0                  TRA     REQSCHED

      180     2121    5                           END ;
      181     2122    4                       END ;
      182     2123
      183     2124    3                   IF  REQ.FC = %N_RDBIN

PL6.E3A0      #001=NID$DEVSCHED File=NID$DISK.:E05TSI                            WED 07/30/97 03:29 Page:30
   2124  0 000142   200013 470500                    LDP0    REQ$,,AUTO
         0 000143   000003 236100                    LDQ     3,,PR0
         0 000144   000777 376007                    ANQ     511,DL
         0 000145   000002 116007                    CMPQ    2,DL
         0 000146   000151 600000 0                  TZE     s:2160
         0 000147   000004 116007                    CMPQ    4,DL
         0 000150   000152 601000 0                  TNZ     s:2162

      184     2125    3                   OR  REQ.FC = %N_RDASC
      185     2126    4                   THEN DO ;

      186     2127        /*N*                Alternating reads on Mirrored Disks not done
      187     2128                            because of errors caused by read done on secondary
      188     2129                            device before preceding write is completed on
      189     2130                            secondary device.
      190     2131
      191     2132                            IF  MDCT.DP.MIRROR.READ
      192     2133                            AND NOT MDCT.DP.MIRROR.LOCK
      193     2134                            THEN DO ;
      194     2135                                IF  DCT.DP.MIRROR.TOGGLE
      195     2136                                THEN
      196     2137                                    DCT.DP.MIRROR.TOGGLE = '0'B ;
      197     2138                                ELSE DO ;
      198     2139                                    DCT.DP.MIRROR.TOGGLE = '1'B ;
      199     2140                                    REQ.DLA.DCTX         = MDCTX ;
      200     2141                                    DCT$                 = MDCT$ ;
      201     2142                                    REQ.DCT$             = DCT$ ;
      202     2143                                    MDCTX                = DCT.DP.MIRROR.DCTX ;
      203     2144                                    MDCT$                = N$DCT$(MDCTX) ;
      204     2145                                    CALL NIO$DCWBLD ( REQ ) ;
      205     2146                                    IF  SQH$ ~= MSQH$
      206     2147                                    THEN DO INHIBIT ;
      207     2148                                        %UNLOCK ( G#=SQH.GATE ) ;
      208     2149                                        %LOCK   ( G#=MSQH.GATE ) ;
      209     2150                                        SQH$    = MSQH$ ;
      210     2151                                        MSQH$   = MDCT.SQH$ ;
      211     2152                                        END ;
PL6.E3A0      #001=NID$DEVSCHED File=NID$DISK.:E05TSI                            WED 07/30/97 03:29 Page:31
      212     2153                                    END ;
      213     2154                                END ;
      214     2155
      215     2156                            ELSE DO ;
      216     2157                                END ;
      217     2158
      218     2159        *N*/
      219     2160    4                       END ;

   2160  0 000151   000160 710000 0                  TRA     s:2169

      220     2161
      221     2162    3                   ELSE IF  MDCT.DP.MIRROR.WRITE

   2162  0 000152   200010 471500                    LDP1    MDCT$,,AUTO
         0 000153   100036 236100                    LDQ     30,,PR1
         0 000154   200000 316003                    CANQ    65536,DU
         0 000155   000160 600000 0                  TZE     s:2169

      222     2163    3                   THEN
      223     2164    3                       REQ.DOMIR = '1'B ;

   2164  0 000156   400000 236003                    LDQ     -131072,DU
         0 000157   000034 256100                    ORSQ    28,,PR0

      224     2165
      225     2166    3                   END ; /* IF  NOT REQ.BPMIR */

      226     2167
      227     2168    2               END ; /* IF  Mirrored Disk */

      228     2169    1           IF  DCT.DP.MIRROR.FLAG

   2169  0 000160   200005 470500                    LDP0    DCT$,,AUTO
         0 000161   000036 234100                    SZN     30,,PR0
         0 000162   000204 605000 0                  TPL     s:2180
         0 000163   000036 236100                    LDQ     30,,PR0
PL6.E3A0      #001=NID$DEVSCHED File=NID$DISK.:E05TSI                            WED 07/30/97 03:29 Page:32
         0 000164   040000 316003                    CANQ    16384,DU
         0 000165   000204 600000 0                  TZE     s:2180
         0 000166   200013 471500                    LDP1    REQ$,,AUTO
         0 000167   100027 236100                    LDQ     23,,PR1
         0 000170   000036 676100                    ERQ     30,,PR0
         0 000171   000777 376007                    ANQ     511,DL
         0 000172   000204 600000 0                  TZE     s:2180

      229     2170    1           AND DCT.DP.MIRROR.LOCK
      230     2171    1           AND REQ.USER# ~= DCT.DP.MIRROR.USER#
      231     2172    2           THEN DO ;

      232     2173                    %ENQUEUE ( P#=REQ, Q#=DCT.DP.MIRROR.LQ$ ) ;

   2174  0 000173   200005 236100                    LDQ     DCT$,,AUTO
         0 000174   000042 036003                    ADLQ    34,DU
         0 000175   200013 235100                    LDA     REQ$,,AUTO
         0 000176   200026 757100                    STAQ    NXT$+2,,AUTO
         0 000177   200026 630500                    EPPR0   NXT$+2,,AUTO
         0 000200   000020 631400 xsym               EPPR1   B_VECTNIL+16
         0 000201   000000 701000 xent               TSX1    NIM$ENQUEUE
         0 000202   000000 011000                    NOP     0

      233     2176    2               GOTO PMNBUSY ;

   2176  0 000203   000362 710000 0                  TRA     PMNBUSY

      234     2177    2               END ;
      235     2178
      236     2179
      237     2180    1           GOTO REQSCHEDL ;

   2180  0 000204   000221 710000 0                  TRA     REQSCHEDL

      238     2181
      239     2182        /*
      240     2183           ENQUEUE REQUEST ON APPROPRIATE QUEUE
PL6.E3A0      #001=NID$DEVSCHED File=NID$DISK.:E05TSI                            WED 07/30/97 03:29 Page:33
      241     2184        */
      242     2185
      243     2186    1   NID$REQSCHEDL:  ENTRY ( PAR ) ;

   2186  0 000205   000000 700200 xent  NID$REQSCHE* TSX0  ! X66_AUTO_2
         0 000206   000030 000002                    ZERO    24,2

      244     2187    1           REQ$         = ADDR(PAR) ;

   2187  0 000207   200003 236100                    LDQ     @PAR,,AUTO
         0 000210   200013 756100                    STQ     REQ$,,AUTO

      245     2188    1           DCT$         = REQ.DCT$ ;

   2188  0 000211   200013 470500                    LDP0    REQ$,,AUTO
         0 000212   000002 236100                    LDQ     2,,PR0
         0 000213   200005 756100                    STQ     DCT$,,AUTO

      246     2189    1           SQH$         = DCT.SQH$ ;

   2189  0 000214   200005 471500                    LDP1    DCT$,,AUTO
         0 000215   100022 236100                    LDQ     18,,PR1
         0 000216   200015 756100                    STQ     SQH$,,AUTO

      247     2190    1           REQSCHEDONLY = '1'B ;

   2190  0 000217   400000 236003                    LDQ     -131072,DU
         0 000220   200014 756100                    STQ     REQSCHEDONLY,,AUTO

      248     2191
      249     2192    1   REQSCHEDL:
      250     2193    1           IF DCT.SQ$ = ADDR(NIL)

   2193  0 000221   200005 470500       REQSCHEDL    LDP0    DCT$,,AUTO
         0 000222   000001 236100                    LDQ     1,,PR0
         0 000223   000001 116000 xsym               CMPQ    B_VECTNIL+1
         0 000224   000241 601000 0                  TNZ     s:2202
PL6.E3A0      #001=NID$DEVSCHED File=NID$DISK.:E05TSI                            WED 07/30/97 03:29 Page:34

      251     2194    2           THEN DO ;

      252     2195    2              REQ.FL$=REQ$;

   2195  0 000225   200013 236100                    LDQ     REQ$,,AUTO
         0 000226   200013 471500                    LDP1    REQ$,,AUTO
         0 000227   100000 756100                    STQ     0,,PR1

      253     2196    2              DCT.SQ$=REQ$;

   2196  0 000230   200013 236100                    LDQ     REQ$,,AUTO
         0 000231   200005 470500                    LDP0    DCT$,,AUTO
         0 000232   000001 756100                    STQ     1,,PR0

      254     2197    2              DCT.DP.LEAPERS=0;

   2197  0 000233   200005 470500                    LDP0    DCT$,,AUTO
         0 000234   000035 450100                    STZ     29,,PR0

      255     2198    2              DCT.DP.SWP='0'B;

   2198  0 000235   000031 236000 xsym               LDQ     B_VECTNIL+25
         0 000236   000031 356100                    ANSQ    25,,PR0

      256     2199    2              DCT.DP.CSEEK=0;

   2199  0 000237   000033 450100                    STZ     27,,PR0

      257     2200    2              END;

   2200  0 000240   000324 710000 0                  TRA     s:2221

      258     2201    2           ELSE DO;

      259     2202    3              IF DCT.DP.SWP THEN DO;       /* GOING DOWN */

PL6.E3A0      #001=NID$DEVSCHED File=NID$DISK.:E05TSI                            WED 07/30/97 03:29 Page:35
   2202  0 000241   000031 234100                    SZN     25,,PR0
         0 000242   000274 605000 0                  TPL     s:2212

      260     2203    3                 IF BITBIN(REQ.DLA)>DCT.DP.CSEEK OR

   2203  0 000243   200013 471500                    LDP1    REQ$,,AUTO
         0 000244   000033 236100                    LDQ     27,,PR0
         0 000245   100001 116100                    CMPQ    1,,PR1
         0 000246   000255 602000 0                  TNC     s:2205
         0 000247   000030 236100                    LDQ     24,,PR0
         0 000250   000001 116000 xsym               CMPQ    B_VECTNIL+1
         0 000251   000263 600000 0                  TZE     s:2207
         0 000252   000000 236000 xsym               LDQ     NI_IOLEAPERS
         0 000253   000035 116100                    CMPQ    29,,PR0
         0 000254   000263 603000 0                  TRC     s:2207

      261     2204    3                   (DCT.DP.BQ$~=ADDR(NIL) AND DCT.DP.LEAPERS>NI_IOLEAPERS) THEN
      262     2205    3                    CALL ENQUP(DCT.DP.BQ$);

   2205  0 000255   200005 236100                    LDQ     DCT$,,AUTO
         0 000256   000030 036003                    ADLQ    24,DU
         0 000257   200021 756100                    STQ     SVDCT$+3,,AUTO
         0 000260   001106 701000 0                  TSX1    ENQUP
         0 000261   000000 011000                    NOP     0
         0 000262   000324 710000 0                  TRA     s:2221

      263     2206    4                 ELSE DO;

      264     2207    4                    DCT.DP.LEAPERS=DCT.DP.LEAPERS+1;

   2207  0 000263   000035 235100                    LDA     29,,PR0
         0 000264   000001 035007                    ADLA    1,DL
         0 000265   000035 755100                    STA     29,,PR0

      265     2208    4                    CALL ENQDOWN(DCT.SQ$);

   2208  0 000266   200005 236100                    LDQ     DCT$,,AUTO
PL6.E3A0      #001=NID$DEVSCHED File=NID$DISK.:E05TSI                            WED 07/30/97 03:29 Page:36
         0 000267   000001 036003                    ADLQ    1,DU
         0 000270   200021 756100                    STQ     SVDCT$+3,,AUTO
         0 000271   001152 701000 0                  TSX1    ENQDOWN
         0 000272   000000 011000                    NOP     0

      266     2209    4                    END;

      267     2210    3                 END;

   2210  0 000273   000324 710000 0                  TRA     s:2221

      268     2211    3              ELSE DO;                     /* GOING UP */

      269     2212    3                 IF BITBIN(REQ.DLA)<DCT.DP.CSEEK OR

   2212  0 000274   200013 471500                    LDP1    REQ$,,AUTO
         0 000275   100001 236100                    LDQ     1,,PR1
         0 000276   000033 116100                    CMPQ    27,,PR0
         0 000277   000306 602000 0                  TNC     s:2214
         0 000300   000030 236100                    LDQ     24,,PR0
         0 000301   000001 116000 xsym               CMPQ    B_VECTNIL+1
         0 000302   000314 600000 0                  TZE     s:2216
         0 000303   000000 236000 xsym               LDQ     NI_IOLEAPERS
         0 000304   000035 116100                    CMPQ    29,,PR0
         0 000305   000314 603000 0                  TRC     s:2216

      270     2213    3                   (DCT.DP.BQ$~=ADDR(NIL) AND DCT.DP.LEAPERS>NI_IOLEAPERS) THEN
      271     2214    3                    CALL ENQDOWN(DCT.DP.BQ$);

   2214  0 000306   200005 236100                    LDQ     DCT$,,AUTO
         0 000307   000030 036003                    ADLQ    24,DU
         0 000310   200021 756100                    STQ     SVDCT$+3,,AUTO
         0 000311   001152 701000 0                  TSX1    ENQDOWN
         0 000312   000000 011000                    NOP     0
         0 000313   000324 710000 0                  TRA     s:2221

      272     2215    4                 ELSE DO;
PL6.E3A0      #001=NID$DEVSCHED File=NID$DISK.:E05TSI                            WED 07/30/97 03:29 Page:37

      273     2216    4                    DCT.DP.LEAPERS=DCT.DP.LEAPERS+1;

   2216  0 000314   000035 235100                    LDA     29,,PR0
         0 000315   000001 035007                    ADLA    1,DL
         0 000316   000035 755100                    STA     29,,PR0

      274     2217    4                    CALL ENQUP(DCT.SQ$);

   2217  0 000317   200005 236100                    LDQ     DCT$,,AUTO
         0 000320   000001 036003                    ADLQ    1,DU
         0 000321   200021 756100                    STQ     SVDCT$+3,,AUTO
         0 000322   001106 701000 0                  TSX1    ENQUP
         0 000323   000000 011000                    NOP     0

      275     2218    4                    END;

      276     2219    3                 END;

      277     2220    2              END;

      278     2221    1           IF  REQSCHEDONLY

   2221  0 000324   200014 234100                    SZN     REQSCHEDONLY,,AUTO
         0 000325   000362 605000 0                  TPL     PMNBUSY

      279     2222    2           THEN DO ;

      280     2223    2               IF  DCT.STATE = %IDLE

   2223  0 000326   200005 470500                    LDP0    DCT$,,AUTO
         0 000327   000007 236100                    LDQ     7,,PR0
         0 000330   000077 316007                    CANQ    63,DL
         0 000331   000361 601000 0                  TNZ     s:2232
         0 000332   000001 236100                    LDQ     1,,PR0
         0 000333   000001 116000 xsym               CMPQ    B_VECTNIL+1
         0 000334   000361 600000 0                  TZE     s:2232
PL6.E3A0      #001=NID$DEVSCHED File=NID$DISK.:E05TSI                            WED 07/30/97 03:29 Page:38

      281     2224    2               AND DCT.SQ$ ~= ADDR(NIL)
      282     2225    3               THEN DO ;

      283     2226                        %ENQUEUE ( P#=DCT, Q#=SQH.AQ$ ) ;

   2227  0 000335   200015 236100                    LDQ     SQH$,,AUTO
         0 000336   000003 036003                    ADLQ    3,DU
         0 000337   200005 235100                    LDA     DCT$,,AUTO
         0 000340   200026 757100                    STAQ    NXT$+2,,AUTO
         0 000341   200026 630500                    EPPR0   NXT$+2,,AUTO
         0 000342   000020 631400 xsym               EPPR1   B_VECTNIL+16
         0 000343   000000 701000 xent               TSX1    NIM$ENQUEUE
         0 000344   000000 011000                    NOP     0

      284     2229    3                   DCT.STATE = %REQUESTED ;

   2229  0 000345   200005 470500                    LDP0    DCT$,,AUTO
         0 000346   000001 236007                    LDQ     1,DL
         0 000347   000007 752101                    STCQ    7,'01'O,PR0

      285     2230    3                   CALL PMN$COLLECT ( DCT.PM, %PM_WAIT ) ;

   2230  0 000350   000002 236000 1                  LDQ     2
         0 000351   200027 756100                    STQ     NXT$+3,,AUTO
         0 000352   200005 236100                    LDQ     DCT$,,AUTO
         0 000353   000010 036003                    ADLQ    8,DU
         0 000354   200026 756100                    STQ     NXT$+2,,AUTO
         0 000355   200026 630500                    EPPR0   NXT$+2,,AUTO
         0 000356   000020 631400 xsym               EPPR1   B_VECTNIL+16
         0 000357   000000 701000 xent               TSX1    PMN$COLLECT
         0 000360   000000 011000                    NOP     0

      286     2231    3                   END ;

      287     2232    2               RETURN ;

PL6.E3A0      #001=NID$DEVSCHED File=NID$DISK.:E05TSI                            WED 07/30/97 03:29 Page:39
   2232  0 000361   000000 702200 xent               TSX2  ! X66_ARET

      288     2233    2               END ;
      289     2234
      290     2235    1   PMNBUSY:
      291     2236    1           IF  DCT.PM.MODE = %PM_BUSY

   2236  0 000362   200005 470500       PMNBUSY      LDP0    DCT$,,AUTO
         0 000363   000010 235100                    LDA     8,,PR0
         0 000364   000002 115007                    CMPA    2,DL
         0 000365   000377 601000 0                  TNZ     s:2240

      292     2237    1           THEN
      293     2238    1               CALL PMN$COLLECT ( DCT.PM, %PM_QUED ) ;

   2238  0 000366   000003 236000 1                  LDQ     3
         0 000367   200027 756100                    STQ     NXT$+3,,AUTO
         0 000370   200005 236100                    LDQ     DCT$,,AUTO
         0 000371   000010 036003                    ADLQ    8,DU
         0 000372   200026 756100                    STQ     NXT$+2,,AUTO
         0 000373   200026 630500                    EPPR0   NXT$+2,,AUTO
         0 000374   000020 631400 xsym               EPPR1   B_VECTNIL+16
         0 000375   000000 701000 xent               TSX1    PMN$COLLECT
         0 000376   000000 011000                    NOP     0

      294     2239
      295     2240    1           GOTO DEVSCHED ;

   2240  0 000377   000412 710000 0                  TRA     DEVSCHED

      296     2241        %EJECT;
PL6.E3A0      #001=NID$DEVSCHED File=NID$DISK.:E05TSI                            WED 07/30/97 03:29 Page:40
      297     2242    1   NID$DEVSCHEDL: ENTRY(PAR,NEWSTATE);

   2242  0 000400   000000 700200 xent  NID$DEVSCHE* TSX0  ! X66_AUTO_2
         0 000401   000030 000002                    ZERO    24,2

      298     2243    1           DCT$=ADDR(PAR);

   2243  0 000402   200003 236100                    LDQ     @PAR,,AUTO
         0 000403   200005 756100                    STQ     DCT$,,AUTO

      299     2244    1           SQH$=DCT.SQH$;

   2244  0 000404   200005 470500                    LDP0    DCT$,,AUTO
         0 000405   000022 236100                    LDQ     18,,PR0
         0 000406   200015 756100                    STQ     SQH$,,AUTO

      300     2245    1           DCT.STATE=NEWSTATE;

   2245  0 000407   200004 471500                    LDP1    @NEWSTATE,,AUTO
         0 000410   100000 236100                    LDQ     0,,PR1
         0 000411   000007 752101                    STCQ    7,'01'O,PR0

      301     2246    1   DEVSCHED:
      302     2247    2           IF DCT.STATE=%IDLE THEN DO;

   2247  0 000412   200005 470500       DEVSCHED     LDP0    DCT$,,AUTO
         0 000413   000007 236100                    LDQ     7,,PR0
         0 000414   000077 316007                    CANQ    63,DL
         0 000415   000464 601000 0                  TNZ     s:2260

      303     2248    3              IF DCT.SQ$~=ADDR(NIL) THEN DO;

   2248  0 000416   000001 236100                    LDQ     1,,PR0
         0 000417   000001 116000 xsym               CMPQ    B_VECTNIL+1
         0 000420   000446 600000 0                  TZE     s:2256

      304     2249                      %ENQUEUE (P#=DCT,Q#=SQH.AQ$);
PL6.E3A0      #001=NID$DEVSCHED File=NID$DISK.:E05TSI                            WED 07/30/97 03:29 Page:41

   2250  0 000421   200015 236100                    LDQ     SQH$,,AUTO
         0 000422   000003 036003                    ADLQ    3,DU
         0 000423   200005 235100                    LDA     DCT$,,AUTO
         0 000424   200026 757100                    STAQ    NXT$+2,,AUTO
         0 000425   200026 630500                    EPPR0   NXT$+2,,AUTO
         0 000426   000020 631400 xsym               EPPR1   B_VECTNIL+16
         0 000427   000000 701000 xent               TSX1    NIM$ENQUEUE
         0 000430   000000 011000                    NOP     0

      305     2252    3                 DCT.STATE=%REQUESTED;

   2252  0 000431   200005 470500                    LDP0    DCT$,,AUTO
         0 000432   000001 236007                    LDQ     1,DL
         0 000433   000007 752101                    STCQ    7,'01'O,PR0

      306     2253    3                 CALL PMN$COLLECT(DCT.PM,%PM_WAIT);

   2253  0 000434   000002 236000 1                  LDQ     2
         0 000435   200027 756100                    STQ     NXT$+3,,AUTO
         0 000436   200005 236100                    LDQ     DCT$,,AUTO
         0 000437   000010 036003                    ADLQ    8,DU
         0 000440   200026 756100                    STQ     NXT$+2,,AUTO
         0 000441   200026 630500                    EPPR0   NXT$+2,,AUTO
         0 000442   000020 631400 xsym               EPPR1   B_VECTNIL+16
         0 000443   000000 701000 xent               TSX1    PMN$COLLECT
         0 000444   000000 011000                    NOP     0

      307     2254    3                 END;

   2254  0 000445   000464 710000 0                  TRA     s:2260

      308     2255    3              ELSE DO;

      309     2256    3                 IF DCT.TYPE=%DV_DP THEN DCT.DP.CSEEK=0;

   2256  0 000446   000007 236100                    LDQ     7,,PR0
PL6.E3A0      #001=NID$DEVSCHED File=NID$DISK.:E05TSI                            WED 07/30/97 03:29 Page:42
         0 000447   007700 376007                    ANQ     4032,DL
         0 000450   000600 116007                    CMPQ    384,DL
         0 000451   000453 601000 0                  TNZ     s:2257

   2256  0 000452   000033 450100                    STZ     27,,PR0

      310     2257    3                 CALL PMN$COLLECT(DCT.PM,%PM_IDLE);

   2257  0 000453   000004 236000 1                  LDQ     4
         0 000454   200027 756100                    STQ     NXT$+3,,AUTO
         0 000455   200005 236100                    LDQ     DCT$,,AUTO
         0 000456   000010 036003                    ADLQ    8,DU
         0 000457   200026 756100                    STQ     NXT$+2,,AUTO
         0 000460   200026 630500                    EPPR0   NXT$+2,,AUTO
         0 000461   000020 631400 xsym               EPPR1   B_VECTNIL+16
         0 000462   000000 701000 xent               TSX1    PMN$COLLECT
         0 000463   000000 011000                    NOP     0

      311     2258    3                 END;

      312     2259    2              END;

      313     2260    1           GOTO SCANAQ;

   2260  0 000464   000475 710000 0                  TRA     SCANAQ

      314     2261        %EJECT ;
PL6.E3A0      #001=NID$DEVSCHED File=NID$DISK.:E05TSI                            WED 07/30/97 03:29 Page:43
      315     2262        /*D* NAME:          NID$SCANAQ
      316     2263
      317     2264             CALL:          CALL NID$SCANAQ(SQH);
      318     2265                            where:
      319     2266                                  SQH is the subsytem to be scanned.
      320     2267
      321     2268             ENVIRONMENT:   Monitor, not privileged, not inhibited
      322     2269
      323     2270             INPUT:         Disk I/O Tables
      324     2271
      325     2272             DESCRIPTION:   NID$SCANAQ scans all the requests on the subsystem
      326     2273                            assign queue to find any that can be started.
      327     2274                            After the scan is completed, SQH.GATE is unlocked.
      328     2275                                                                           */
      329     2276    1   NID$SCANAQ: ENTRY(PAR);

   2276  0 000465   000000 700200 xent  NID$SCANAQ   TSX0  ! X66_AUTO_2
         0 000466   000030 000002                    ZERO    24,2

      330     2277    1           SQH$=ADDR(PAR);

   2277  0 000467   200003 236100                    LDQ     @PAR,,AUTO
         0 000470   200015 756100                    STQ     SQH$,,AUTO

      331     2278                %LOCK (G#=SQH.GATE);

   2279  0 000471   200015 630500                    EPPR0   SQH$,,AUTO
         0 000472   000017 631400 xsym               EPPR1   B_VECTNIL+15
         0 000473   000000 701000 xent               TSX1    HFC$LOCK
         0 000474   000000 011000                    NOP     0

      332     2281    1   SCANAQ:
      333     2282    1           SVDCT$=ADDR(NIL);

   2282  0 000475   000001 236000 xsym  SCANAQ       LDQ     B_VECTNIL+1
         0 000476   200016 756100                    STQ     SVDCT$,,AUTO

PL6.E3A0      #001=NID$DEVSCHED File=NID$DISK.:E05TSI                            WED 07/30/97 03:29 Page:44
      334     2283    2           DO WHILE(SQH.AQ$~=ADDR(NIL));

   2283  0 000477   001073 710000 0                  TRA     s:2382

      335     2284                   %DEQUEUE(P#=DCT$,Q#=SQH.AQ$);

   2288  0 000500   200015 236100                    LDQ     SQH$,,AUTO
         0 000501   000003 036003                    ADLQ    3,DU
         0 000502   200027 756100                    STQ     NXT$+3,,AUTO
         0 000503   200005 630500                    EPPR0   DCT$,,AUTO
         0 000504   200026 450500                    STP0    NXT$+2,,AUTO
         0 000505   200026 630500                    EPPR0   NXT$+2,,AUTO
         0 000506   000020 631400 xsym               EPPR1   B_VECTNIL+16
         0 000507   000000 701000 xent               TSX1    NIM$DEQUEUE
         0 000510   000000 011000                    NOP     0

      336     2291    2              DVT$=DCT.DVT$;

   2291  0 000511   200005 470500                    LDP0    DCT$,,AUTO
         0 000512   000024 236100                    LDQ     20,,PR0
         0 000513   200007 756100                    STQ     DVT$,,AUTO

      337     2292    2              REQ$=DCT.SQ$->REQ.FL$;

   2292  0 000514   000001 471500                    LDP1    1,,PR0
         0 000515   100000 236100                    LDQ     0,,PR1
         0 000516   200013 756100                    STQ     REQ$,,AUTO

      338     2293    3              IF REQ.DQH$=ADDR(NIL) THEN DO; /* REGULAR REQUEST */

   2293  0 000517   200013 471500                    LDP1    REQ$,,AUTO
         0 000520   100020 236100                    LDQ     16,,PR1
         0 000521   000001 116000 xsym               CMPQ    B_VECTNIL+1
         0 000522   000661 601000 0                  TNZ     s:2333

      339     2294    4                 IF SQH.CQ$=ADDR(NIL) THEN DO;

PL6.E3A0      #001=NID$DEVSCHED File=NID$DISK.:E05TSI                            WED 07/30/97 03:29 Page:45
   2294  0 000523   200015 473500                    LDP3    SQH$,,AUTO
         0 000524   300004 236100                    LDQ     4,,PR3
         0 000525   000001 116000 xsym               CMPQ    B_VECTNIL+1
         0 000526   000540 601000 0                  TNZ     s:2304

      340     2295                         %ENQUEUE(P#=DCT,Q#=SVDCT$);

   2296  0 000527   200016 634500                    EPPR4   SVDCT$,,AUTO
         0 000530   200027 454500                    STP4    NXT$+3,,AUTO
         0 000531   200005 236100                    LDQ     DCT$,,AUTO
         0 000532   200026 756100                    STQ     NXT$+2,,AUTO
         0 000533   200026 630500                    EPPR0   NXT$+2,,AUTO
         0 000534   000020 631400 xsym               EPPR1   B_VECTNIL+16
         0 000535   000000 701000 xent               TSX1    NIM$ENQUEUE
         0 000536   000000 011000                    NOP     0

      341     2298    4                    END;

   2298  0 000537   001073 710000 0                  TRA     s:2382

      342     2299    4                 ELSE DO;

      343     2300                         %DEQUEUE(P#=DQH$,Q#=SQH.CQ$);

   2304  0 000540   200015 236100                    LDQ     SQH$,,AUTO
         0 000541   000004 036003                    ADLQ    4,DU
         0 000542   200027 756100                    STQ     NXT$+3,,AUTO
         0 000543   200006 634500                    EPPR4   DQH$,,AUTO
         0 000544   200026 454500                    STP4    NXT$+2,,AUTO
         0 000545   200026 630500                    EPPR0   NXT$+2,,AUTO
         0 000546   000020 631400 xsym               EPPR1   B_VECTNIL+16
         0 000547   000000 701000 xent               TSX1    NIM$DEQUEUE
         0 000550   000000 011000                    NOP     0

      344     2307                         %DEQUEUE(P#=REQ$,Q#=DCT.SQ$);

   2311  0 000551   200005 236100                    LDQ     DCT$,,AUTO
PL6.E3A0      #001=NID$DEVSCHED File=NID$DISK.:E05TSI                            WED 07/30/97 03:29 Page:46
         0 000552   000001 036003                    ADLQ    1,DU
         0 000553   200027 756100                    STQ     NXT$+3,,AUTO
         0 000554   200013 630500                    EPPR0   REQ$,,AUTO
         0 000555   200026 450500                    STP0    NXT$+2,,AUTO
         0 000556   200026 630500                    EPPR0   NXT$+2,,AUTO
         0 000557   000020 631400 xsym               EPPR1   B_VECTNIL+16
         0 000560   000000 701000 xent               TSX1    NIM$DEQUEUE
         0 000561   000000 011000                    NOP     0

      345     2314    4                    DQH.IO$=REQ$;

   2314  0 000562   200013 236100                    LDQ     REQ$,,AUTO
         0 000563   200006 470500                    LDP0    DQH$,,AUTO
         0 000564   000014 756100                    STQ     12,,PR0

      346     2315    4                    DCT.DQH$=DQH$;

   2315  0 000565   200006 236100                    LDQ     DQH$,,AUTO
         0 000566   200005 471500                    LDP1    DCT$,,AUTO
         0 000567   100023 756100                    STQ     19,,PR1

      347     2316    4                    DCT.STATE=%BUSY;

   2316  0 000570   000005 236007                    LDQ     5,DL
         0 000571   100007 752101                    STCQ    7,'01'O,PR1

      348     2317    4                    DCT.DP.CSEEK=BITBIN(REQ.DLA);

   2317  0 000572   200013 473500                    LDP3    REQ$,,AUTO
         0 000573   300001 235100                    LDA     1,,PR3
         0 000574   100033 755100                    STA     27,,PR1

      349     2318    5                    IF DCT.SQ$=ADDR(NIL) THEN DO;

   2318  0 000575   100001 236100                    LDQ     1,,PR1
         0 000576   000001 116000 xsym               CMPQ    B_VECTNIL+1
         0 000577   000643 601000 0                  TNZ     s:2328
PL6.E3A0      #001=NID$DEVSCHED File=NID$DISK.:E05TSI                            WED 07/30/97 03:29 Page:47

      350     2319    5                       DCT.SQ$=DCT.DP.BQ$;

   2319  0 000600   100030 236100                    LDQ     24,,PR1
         0 000601   100001 756100                    STQ     1,,PR1

      351     2320    5                       DCT.DP.BQ$=ADDR(NIL);

   2320  0 000602   000001 236000 xsym               LDQ     B_VECTNIL+1
         0 000603   200005 470500                    LDP0    DCT$,,AUTO
         0 000604   000030 756100                    STQ     24,,PR0

      352     2321    5                       DCT.DP.LEAPERS=0;

   2321  0 000605   000035 450100                    STZ     29,,PR0

      353     2322    5                       DCT.DP.SWP=~DCT.DP.SWP;

   2322  0 000606   000031 236100                    LDQ     25,,PR0
         0 000607   400000 376003                    ANQ     -131072,DU
         0 000610   400000 676003                    ERQ     -131072,DU
         0 000611   000031 676100                    ERQ     25,,PR0
         0 000612   400000 376003                    ANQ     -131072,DU
         0 000613   000031 656100                    ERSQ    25,,PR0

      354     2323    5                       IF DCT.SQ$=ADDR(NIL) THEN

   2323  0 000614   000001 236100                    LDQ     1,,PR0
         0 000615   000001 116000 xsym               CMPQ    B_VECTNIL+1
         0 000616   000631 601000 0                  TNZ     s:2326

      355     2324    5                          CALL PMN$COLLECT(DCT.PM,%PM_BUSY);

   2324  0 000617   000005 236000 1                  LDQ     5
         0 000620   200027 756100                    STQ     NXT$+3,,AUTO
         0 000621   200005 236100                    LDQ     DCT$,,AUTO
         0 000622   000010 036003                    ADLQ    8,DU
PL6.E3A0      #001=NID$DEVSCHED File=NID$DISK.:E05TSI                            WED 07/30/97 03:29 Page:48
         0 000623   200026 756100                    STQ     NXT$+2,,AUTO
         0 000624   200026 630500                    EPPR0   NXT$+2,,AUTO
         0 000625   000020 631400 xsym               EPPR1   B_VECTNIL+16
         0 000626   000000 701000 xent               TSX1    PMN$COLLECT
         0 000627   000000 011000                    NOP     0
         0 000630   000654 710000 0                  TRA     s:2329

      356     2325    5                       ELSE
      357     2326    5                          CALL PMN$COLLECT(DCT.PM,%PM_QUED);

   2326  0 000631   000003 236000 1                  LDQ     3
         0 000632   200027 756100                    STQ     NXT$+3,,AUTO
         0 000633   200005 236100                    LDQ     DCT$,,AUTO
         0 000634   000010 036003                    ADLQ    8,DU
         0 000635   200026 756100                    STQ     NXT$+2,,AUTO
         0 000636   200026 630500                    EPPR0   NXT$+2,,AUTO
         0 000637   000020 631400 xsym               EPPR1   B_VECTNIL+16
         0 000640   000000 701000 xent               TSX1    PMN$COLLECT
         0 000641   000000 011000                    NOP     0

      358     2327    5                       END;

   2327  0 000642   000654 710000 0                  TRA     s:2329

      359     2328    4                    ELSE CALL PMN$COLLECT(DCT.PM,%PM_QUED);

   2328  0 000643   000003 236000 1                  LDQ     3
         0 000644   200027 756100                    STQ     NXT$+3,,AUTO
         0 000645   200005 236100                    LDQ     DCT$,,AUTO
         0 000646   000010 036003                    ADLQ    8,DU
         0 000647   200026 756100                    STQ     NXT$+2,,AUTO
         0 000650   200026 630500                    EPPR0   NXT$+2,,AUTO
         0 000651   000020 631400 xsym               EPPR1   B_VECTNIL+16
         0 000652   000000 701000 xent               TSX1    PMN$COLLECT
         0 000653   000000 011000                    NOP     0

      360     2329    4                    CALL NIS$DRIVER(DQH);
PL6.E3A0      #001=NID$DEVSCHED File=NID$DISK.:E05TSI                            WED 07/30/97 03:29 Page:49

   2329  0 000654   200006 630500                    EPPR0   DQH$,,AUTO
         0 000655   000017 631400 xsym               EPPR1   B_VECTNIL+15
         0 000656   000000 701000 xent               TSX1    NIS$DRIVER
         0 000657   000000 011000                    NOP     0

      361     2330    4                    END;

      362     2331    3                 END;

   2331  0 000660   001073 710000 0                  TRA     s:2382

      363     2332    3              ELSE DO;                     /* SPECIAL REQUESTS */

      364     2333    3                 DQH$=REQ.DQH$;

   2333  0 000661   200006 756100                    STQ     DQH$,,AUTO

      365     2334    3                 IF DQH.STATE~=%IDLE OR

   2334  0 000662   200006 473500                    LDP3    DQH$,,AUTO
         0 000663   300001 236100                    LDQ     1,,PR3
         0 000664   000077 316007                    CANQ    63,DL
         0 000665   000675 601000 0                  TNZ     s:2337
         0 000666   100004 236100                    LDQ     4,,PR1
         0 000667   001000 316007                    CANQ    512,DL
         0 000670   000706 600000 0                  TZE     s:2341
         0 000671   300015 474500                    LDP4    13,,PR3
         0 000672   400006 236100                    LDQ     6,,PR4
         0 000673   001000 316007                    CANQ    512,DL
         0 000674   000706 601000 0                  TNZ     s:2341

      366     2335    4                   (REQ.IOFLG.STOPMPC AND NOT DQH.MPC$->DCT.DFLG.MPCSTOP) THEN DO;

      367     2336                         %ENQUEUE(P#=DCT,Q#=SVDCT$);

   2337  0 000675   200016 634500                    EPPR4   SVDCT$,,AUTO
PL6.E3A0      #001=NID$DEVSCHED File=NID$DISK.:E05TSI                            WED 07/30/97 03:29 Page:50
         0 000676   200027 454500                    STP4    NXT$+3,,AUTO
         0 000677   200005 236100                    LDQ     DCT$,,AUTO
         0 000700   200026 756100                    STQ     NXT$+2,,AUTO
         0 000701   200026 630500                    EPPR0   NXT$+2,,AUTO
         0 000702   000020 631400 xsym               EPPR1   B_VECTNIL+16
         0 000703   000000 701000 xent               TSX1    NIM$ENQUEUE
         0 000704   000000 011000                    NOP     0

      368     2339    4                    END;

   2339  0 000705   001073 710000 0                  TRA     s:2382

      369     2340    4                 ELSE DO;

      370     2341    5                    IF DQH.FL$~=ADDR(NIL) THEN DO;

   2341  0 000706   300000 236100                    LDQ     0,,PR3
         0 000707   000001 116000 xsym               CMPQ    B_VECTNIL+1
         0 000710   000737 600000 0                  TZE     s:2357

      371     2342    6                       DO WHILE(SQH.CQ$->DQH.FL$~=DQH$);

   2342  0 000711   200015 474500                    LDP4    SQH$,,AUTO
         0 000712   400004 475500                    LDP5    4,,PR4
         0 000713   500000 236100                    LDQ     0,,PR5
         0 000714   200006 116100                    CMPQ    DQH$,,AUTO
         0 000715   000726 600000 0                  TZE     s:2349

      372     2343    6                          SQH.CQ$=SQH.CQ$->DQH.FL$;

   2343  0 000716   200015 470500                    LDP0    SQH$,,AUTO
         0 000717   000004 471500                    LDP1    4,,PR0
         0 000720   100000 236100                    LDQ     0,,PR1
         0 000721   000004 756100                    STQ     4,,PR0

      373     2344    6                          END;

PL6.E3A0      #001=NID$DEVSCHED File=NID$DISK.:E05TSI                            WED 07/30/97 03:29 Page:51
   2344  0 000722   000004 471500                    LDP1    4,,PR0
         0 000723   100000 236100                    LDQ     0,,PR1
         0 000724   200006 116100                    CMPQ    DQH$,,AUTO
         0 000725   000716 601000 0                  TNZ     s:2343

      374     2345                            %DEQUEUE(P#=DQH$,Q#=SQH.CQ$);

   2349  0 000726   200015 236100                    LDQ     SQH$,,AUTO
         0 000727   000004 036003                    ADLQ    4,DU
         0 000730   200027 756100                    STQ     NXT$+3,,AUTO
         0 000731   200006 630500                    EPPR0   DQH$,,AUTO
         0 000732   200026 450500                    STP0    NXT$+2,,AUTO
         0 000733   200026 630500                    EPPR0   NXT$+2,,AUTO
         0 000734   000020 631400 xsym               EPPR1   B_VECTNIL+16
         0 000735   000000 701000 xent               TSX1    NIM$DEQUEUE
         0 000736   000000 011000                    NOP     0

      375     2352    5                       END;

      376     2353                         %DEQUEUE(P#=REQ$,Q#=DCT.SQ$);

   2357  0 000737   200005 236100                    LDQ     DCT$,,AUTO
         0 000740   000001 036003                    ADLQ    1,DU
         0 000741   200027 756100                    STQ     NXT$+3,,AUTO
         0 000742   200013 630500                    EPPR0   REQ$,,AUTO
         0 000743   200026 450500                    STP0    NXT$+2,,AUTO
         0 000744   200026 630500                    EPPR0   NXT$+2,,AUTO
         0 000745   000020 631400 xsym               EPPR1   B_VECTNIL+16
         0 000746   000000 701000 xent               TSX1    NIM$DEQUEUE
         0 000747   000000 011000                    NOP     0

      377     2360    4                    DQH.IO$=REQ$;

   2360  0 000750   200013 236100                    LDQ     REQ$,,AUTO
         0 000751   200006 470500                    LDP0    DQH$,,AUTO
         0 000752   000014 756100                    STQ     12,,PR0

PL6.E3A0      #001=NID$DEVSCHED File=NID$DISK.:E05TSI                            WED 07/30/97 03:29 Page:52
      378     2361    4                    IF REQ.IOFLG.SUSP THEN DQH.MPC$->DCT.DFLG.MPCSUSPENDED='1'B;

   2361  0 000753   200013 471500                    LDP1    REQ$,,AUTO
         0 000754   100004 236100                    LDQ     4,,PR1
         0 000755   004000 316007                    CANQ    2048,DL
         0 000756   000762 600000 0                  TZE     s:2362

   2361  0 000757   000015 473500                    LDP3    13,,PR0
         0 000760   002000 236007                    LDQ     1024,DL
         0 000761   300006 256100                    ORSQ    6,,PR3

      379     2362    4                    DCT.DQH$=DQH$;

   2362  0 000762   200006 236100                    LDQ     DQH$,,AUTO
         0 000763   200005 470500                    LDP0    DCT$,,AUTO
         0 000764   000023 756100                    STQ     19,,PR0

      380     2363    4                    DCT.STATE=%BUSY;

   2363  0 000765   000005 236007                    LDQ     5,DL
         0 000766   000007 752101                    STCQ    7,'01'O,PR0

      381     2364    5                    IF DCT.TYPE=%DV_DP THEN DO;

   2364  0 000767   000007 236100                    LDQ     7,,PR0
         0 000770   007700 376007                    ANQ     4032,DL
         0 000771   000600 116007                    CMPQ    384,DL
         0 000772   001056 601000 0                  TNZ     s:2378

      382     2365    5                       DCT.DP.CSEEK=BITBIN(REQ.DLA);

   2365  0 000773   200013 471500                    LDP1    REQ$,,AUTO
         0 000774   100001 235100                    LDA     1,,PR1
         0 000775   000033 755100                    STA     27,,PR0

      383     2366    6                       IF DCT.SQ$=ADDR(NIL) THEN DO;

PL6.E3A0      #001=NID$DEVSCHED File=NID$DISK.:E05TSI                            WED 07/30/97 03:29 Page:53
   2366  0 000776   000001 236100                    LDQ     1,,PR0
         0 000777   000001 116000 xsym               CMPQ    B_VECTNIL+1
         0 001000   001044 601000 0                  TNZ     s:2376

      384     2367    6                          DCT.SQ$=DCT.DP.BQ$;

   2367  0 001001   000030 236100                    LDQ     24,,PR0
         0 001002   000001 756100                    STQ     1,,PR0

      385     2368    6                          DCT.DP.BQ$=ADDR(NIL);

   2368  0 001003   000001 236000 xsym               LDQ     B_VECTNIL+1
         0 001004   200005 470500                    LDP0    DCT$,,AUTO
         0 001005   000030 756100                    STQ     24,,PR0

      386     2369    6                          DCT.DP.LEAPERS=0;

   2369  0 001006   000035 450100                    STZ     29,,PR0

      387     2370    6                          DCT.DP.SWP=~DCT.DP.SWP;

   2370  0 001007   000031 236100                    LDQ     25,,PR0
         0 001010   400000 376003                    ANQ     -131072,DU
         0 001011   400000 676003                    ERQ     -131072,DU
         0 001012   000031 676100                    ERQ     25,,PR0
         0 001013   400000 376003                    ANQ     -131072,DU
         0 001014   000031 656100                    ERSQ    25,,PR0

      388     2371    6                          IF DCT.SQ$=ADDR(NIL) THEN

   2371  0 001015   000001 236100                    LDQ     1,,PR0
         0 001016   000001 116000 xsym               CMPQ    B_VECTNIL+1
         0 001017   001032 601000 0                  TNZ     s:2374

      389     2372    6                             CALL PMN$COLLECT(DCT.PM,%PM_BUSY);

   2372  0 001020   000005 236000 1                  LDQ     5
PL6.E3A0      #001=NID$DEVSCHED File=NID$DISK.:E05TSI                            WED 07/30/97 03:29 Page:54
         0 001021   200027 756100                    STQ     NXT$+3,,AUTO
         0 001022   200005 236100                    LDQ     DCT$,,AUTO
         0 001023   000010 036003                    ADLQ    8,DU
         0 001024   200026 756100                    STQ     NXT$+2,,AUTO
         0 001025   200026 630500                    EPPR0   NXT$+2,,AUTO
         0 001026   000020 631400 xsym               EPPR1   B_VECTNIL+16
         0 001027   000000 701000 xent               TSX1    PMN$COLLECT
         0 001030   000000 011000                    NOP     0
         0 001031   001067 710000 0                  TRA     s:2379

      390     2373    6                          ELSE
      391     2374    6                             CALL PMN$COLLECT(DCT.PM,%PM_QUED);

   2374  0 001032   000003 236000 1                  LDQ     3
         0 001033   200027 756100                    STQ     NXT$+3,,AUTO
         0 001034   200005 236100                    LDQ     DCT$,,AUTO
         0 001035   000010 036003                    ADLQ    8,DU
         0 001036   200026 756100                    STQ     NXT$+2,,AUTO
         0 001037   200026 630500                    EPPR0   NXT$+2,,AUTO
         0 001040   000020 631400 xsym               EPPR1   B_VECTNIL+16
         0 001041   000000 701000 xent               TSX1    PMN$COLLECT
         0 001042   000000 011000                    NOP     0

      392     2375    6                          END;

   2375  0 001043   001067 710000 0                  TRA     s:2379

      393     2376    5                       ELSE CALL PMN$COLLECT(DCT.PM,%PM_QUED);

   2376  0 001044   000003 236000 1                  LDQ     3
         0 001045   200027 756100                    STQ     NXT$+3,,AUTO
         0 001046   200005 236100                    LDQ     DCT$,,AUTO
         0 001047   000010 036003                    ADLQ    8,DU
         0 001050   200026 756100                    STQ     NXT$+2,,AUTO
         0 001051   200026 630500                    EPPR0   NXT$+2,,AUTO
         0 001052   000020 631400 xsym               EPPR1   B_VECTNIL+16
         0 001053   000000 701000 xent               TSX1    PMN$COLLECT
PL6.E3A0      #001=NID$DEVSCHED File=NID$DISK.:E05TSI                            WED 07/30/97 03:29 Page:55
         0 001054   000000 011000                    NOP     0

      394     2377    5                       END;

   2377  0 001055   001067 710000 0                  TRA     s:2379

      395     2378    4                    ELSE CALL PMN$COLLECT(DCT.PM,%PM_BUSY);

   2378  0 001056   000005 236000 1                  LDQ     5
         0 001057   200027 756100                    STQ     NXT$+3,,AUTO
         0 001060   200005 236100                    LDQ     DCT$,,AUTO
         0 001061   000010 036003                    ADLQ    8,DU
         0 001062   200026 756100                    STQ     NXT$+2,,AUTO
         0 001063   200026 630500                    EPPR0   NXT$+2,,AUTO
         0 001064   000020 631400 xsym               EPPR1   B_VECTNIL+16
         0 001065   000000 701000 xent               TSX1    PMN$COLLECT
         0 001066   000000 011000                    NOP     0

      396     2379    4                    CALL NIS$DRIVER(DQH);

   2379  0 001067   200006 630500                    EPPR0   DQH$,,AUTO
         0 001070   000017 631400 xsym               EPPR1   B_VECTNIL+15
         0 001071   000000 701000 xent               TSX1    NIS$DRIVER
         0 001072   000000 011000                    NOP     0

      397     2380    4                    END;

      398     2381    3                 END;

      399     2382    2              END;

   2382  0 001073   200015 470500                    LDP0    SQH$,,AUTO
         0 001074   000003 236100                    LDQ     3,,PR0
         0 001075   000001 116000 xsym               CMPQ    B_VECTNIL+1
         0 001076   000500 601000 0                  TNZ     s:2288

      400     2383    1           SQH.AQ$=SVDCT$;
PL6.E3A0      #001=NID$DEVSCHED File=NID$DISK.:E05TSI                            WED 07/30/97 03:29 Page:56

   2383  0 001077   200016 236100                    LDQ     SVDCT$,,AUTO
         0 001100   000003 756100                    STQ     3,,PR0

      401     2384                %UNLOCK(G#=SQH.GATE);

   2385  0 001101   200015 630500                    EPPR0   SQH$,,AUTO
         0 001102   000017 631400 xsym               EPPR1   B_VECTNIL+15
         0 001103   000000 701000 xent               TSX1    HFC$UNLOCK
         0 001104   000000 011000                    NOP     0

      402     2387    1           RETURN;

   2387  0 001105   000000 702200 xent               TSX2  ! X66_ARET

      403     2388        %EJECT;
PL6.E3A0      #001=NID$DEVSCHED File=NID$DISK.:E05TSI                            WED 07/30/97 03:29 Page:57
      404     2389        /* ENQUEUE REQUEST ON APPROPRIATE SCHEDULER QUEUE */
      405     2390        /**/
      406     2391    1   ENQUP:  PROC(Q$);

   2391  0 001106   200020 741300       ENQUP        STX1  ! SVDCT$+2,,AUTO

      407     2392    2   DCL Q$ PTR;
      408     2393        /**/
      409     2394        /* ON ENTRY TO THIS PROCEDURE REQ$ POINTS TO REQUEST TO BE ENQUEUED */
      410     2395        /**/
      411     2396    2   DCL DLA UBIN;
      412     2397    2   DCL FREQ$ PTR;
      413     2398    2   DCL NXT$ PTR;
      414     2399    3           IF Q$=ADDR(NIL) THEN DO;

   2399  0 001107   200021 470500                    LDP0    @Q$,,AUTO
         0 001110   000000 236100                    LDQ     0,,PR0
         0 001111   000001 116000 xsym               CMPQ    B_VECTNIL+1
         0 001112   001122 601000 0                  TNZ     s:2404

      415     2400    3              REQ.FL$=REQ$;

   2400  0 001113   200013 236100                    LDQ     REQ$,,AUTO
         0 001114   200013 471500                    LDP1    REQ$,,AUTO
         0 001115   100000 756100                    STQ     0,,PR1

      416     2401    3              Q$=REQ$;

   2401  0 001116   200013 236100                    LDQ     REQ$,,AUTO
         0 001117   000000 756100                    STQ     0,,PR0

      417     2402    3              RETURN;

   2402  0 001120   200020 221300                    LDX1  ! SVDCT$+2,,AUTO
         0 001121   000001 702211                    TSX2  ! 1,X1

      418     2403    3              END;
PL6.E3A0      #001=NID$DEVSCHED File=NID$DISK.:E05TSI                            WED 07/30/97 03:29 Page:58
      419     2404    2           DLA=BITBIN(REQ.DLA)+1;

   2404  0 001122   200013 471500                    LDP1    REQ$,,AUTO
         0 001123   100001 235100                    LDA     1,,PR1
         0 001124   000001 035007                    ADLA    1,DL
         0 001125   200022 755100                    STA     DLA,,AUTO

      420     2405    2           FREQ$=ADDR(NIL);

   2405  0 001126   000001 236000 xsym               LDQ     B_VECTNIL+1
         0 001127   200023 756100                    STQ     FREQ$,,AUTO

      421     2406    2           NXT$=Q$->REQ.FL$;

   2406  0 001130   000000 473500                    LDP3    0,,PR0
         0 001131   300000 236100                    LDQ     0,,PR3
         0 001132   200024 756100                    STQ     NXT$,,AUTO

      422     2407    3           DO WHILE(DLA>BITBIN(NXT$->REQ.DLA) AND FREQ$~=Q$);

   2407  0 001133   001141 710000 0                  TRA     s:2410

      423     2408    3              FREQ$=NXT$;

   2408  0 001134   200024 236100                    LDQ     NXT$,,AUTO
         0 001135   200023 756100                    STQ     FREQ$,,AUTO

      424     2409    3              NXT$=FREQ$->REQ.FL$;

   2409  0 001136   200023 470500                    LDP0    FREQ$,,AUTO
         0 001137   000000 236100                    LDQ     0,,PR0
         0 001140   200024 756100                    STQ     NXT$,,AUTO

      425     2410    3              END;

   2410  0 001141   200024 470500                    LDP0    NXT$,,AUTO
         0 001142   000001 236100                    LDQ     1,,PR0
PL6.E3A0      #001=NID$DEVSCHED File=NID$DISK.:E05TSI                            WED 07/30/97 03:29 Page:59
         0 001143   200022 116100                    CMPQ    DLA,,AUTO
         0 001144   001151 603000 0                  TRC     s:2411
         0 001145   200021 471500                    LDP1    @Q$,,AUTO
         0 001146   200023 236100                    LDQ     FREQ$,,AUTO
         0 001147   100000 116100                    CMPQ    0,,PR1
         0 001150   001134 601000 0                  TNZ     s:2408

      426     2411    2           GOTO INSRT;

   2411  0 001151   001215 710000 0                  TRA     INSRT

      427     2412        /**/
      428     2413        /**/
      429     2414        /**/
      430     2415    2   ENQDOWN: ENTRY(Q$);

   2415  0 001152   200020 741300       ENQDOWN      STX1  ! SVDCT$+2,,AUTO

      431     2416    3           IF Q$=ADDR(NIL) THEN DO;

   2416  0 001153   200021 470500                    LDP0    @Q$,,AUTO
         0 001154   000000 236100                    LDQ     0,,PR0
         0 001155   000001 116000 xsym               CMPQ    B_VECTNIL+1
         0 001156   001166 601000 0                  TNZ     s:2421

      432     2417    3              REQ.FL$=REQ$;

   2417  0 001157   200013 236100                    LDQ     REQ$,,AUTO
         0 001160   200013 471500                    LDP1    REQ$,,AUTO
         0 001161   100000 756100                    STQ     0,,PR1

      433     2418    3              Q$=REQ$;

   2418  0 001162   200013 236100                    LDQ     REQ$,,AUTO
         0 001163   000000 756100                    STQ     0,,PR0

      434     2419    3              RETURN;
PL6.E3A0      #001=NID$DEVSCHED File=NID$DISK.:E05TSI                            WED 07/30/97 03:29 Page:60

   2419  0 001164   200020 221300                    LDX1  ! SVDCT$+2,,AUTO
         0 001165   000001 702211                    TSX2  ! 1,X1

      435     2420    3              END;
      436     2421    2           DLA=BITBIN(REQ.DLA)-1;

   2421  0 001166   200013 471500                    LDP1    REQ$,,AUTO
         0 001167   100001 235100                    LDA     1,,PR1
         0 001170   000001 135007                    SBLA    1,DL
         0 001171   200022 755100                    STA     DLA,,AUTO

      437     2422    2           FREQ$=ADDR(NIL);

   2422  0 001172   000001 236000 xsym               LDQ     B_VECTNIL+1
         0 001173   200023 756100                    STQ     FREQ$,,AUTO

      438     2423    2           NXT$=Q$->REQ.FL$;

   2423  0 001174   000000 473500                    LDP3    0,,PR0
         0 001175   300000 236100                    LDQ     0,,PR3
         0 001176   200024 756100                    STQ     NXT$,,AUTO

      439     2424    3           DO WHILE(DLA<BITBIN(NXT$->REQ.DLA) AND FREQ$~=Q$);

   2424  0 001177   001205 710000 0                  TRA     s:2427

      440     2425    3              FREQ$=NXT$;

   2425  0 001200   200024 236100                    LDQ     NXT$,,AUTO
         0 001201   200023 756100                    STQ     FREQ$,,AUTO

      441     2426    3              NXT$=FREQ$->REQ.FL$;

   2426  0 001202   200023 470500                    LDP0    FREQ$,,AUTO
         0 001203   000000 236100                    LDQ     0,,PR0
         0 001204   200024 756100                    STQ     NXT$,,AUTO
PL6.E3A0      #001=NID$DEVSCHED File=NID$DISK.:E05TSI                            WED 07/30/97 03:29 Page:61

      442     2427    3              END;

   2427  0 001205   200024 470500                    LDP0    NXT$,,AUTO
         0 001206   200022 236100                    LDQ     DLA,,AUTO
         0 001207   000001 116100                    CMPQ    1,,PR0
         0 001210   001215 603000 0                  TRC     INSRT
         0 001211   200021 471500                    LDP1    @Q$,,AUTO
         0 001212   200023 236100                    LDQ     FREQ$,,AUTO
         0 001213   100000 116100                    CMPQ    0,,PR1
         0 001214   001200 601000 0                  TNZ     s:2425

      443     2428    2   INSRT:
      444     2429    3           IF FREQ$=ADDR(NIL) THEN DO;

   2429  0 001215   200023 236100       INSRT        LDQ     FREQ$,,AUTO
         0 001216   000001 116000 xsym               CMPQ    B_VECTNIL+1
         0 001217   001232 601000 0                  TNZ     s:2434

      445     2430    3              REQ.FL$=Q$->REQ.FL$;

   2430  0 001220   200021 471500                    LDP1    @Q$,,AUTO
         0 001221   100000 473500                    LDP3    0,,PR1
         0 001222   300000 236100                    LDQ     0,,PR3
         0 001223   200013 474500                    LDP4    REQ$,,AUTO
         0 001224   400000 756100                    STQ     0,,PR4

      446     2431    3              Q$->REQ.FL$=REQ$;

   2431  0 001225   100000 473500                    LDP3    0,,PR1
         0 001226   200013 236100                    LDQ     REQ$,,AUTO
         0 001227   300000 756100                    STQ     0,,PR3

      447     2432    3              RETURN;

   2432  0 001230   200020 221300                    LDX1  ! SVDCT$+2,,AUTO
         0 001231   000001 702211                    TSX2  ! 1,X1
PL6.E3A0      #001=NID$DEVSCHED File=NID$DISK.:E05TSI                            WED 07/30/97 03:29 Page:62

      448     2433    3              END;
      449     2434    2           REQ.FL$=FREQ$->REQ.FL$;

   2434  0 001232   200023 471500                    LDP1    FREQ$,,AUTO
         0 001233   100000 236100                    LDQ     0,,PR1
         0 001234   200013 473500                    LDP3    REQ$,,AUTO
         0 001235   300000 756100                    STQ     0,,PR3

      450     2435    2           FREQ$->REQ.FL$=REQ$;

   2435  0 001236   200013 236100                    LDQ     REQ$,,AUTO
         0 001237   100000 756100                    STQ     0,,PR1

      451     2436    2           IF FREQ$=Q$ THEN Q$=REQ$;

   2436  0 001240   200021 473500                    LDP3    @Q$,,AUTO
         0 001241   200023 236100                    LDQ     FREQ$,,AUTO
         0 001242   300000 116100                    CMPQ    0,,PR3
         0 001243   001246 601000 0                  TNZ     s:2437

   2436  0 001244   200013 236100                    LDQ     REQ$,,AUTO
         0 001245   300000 756100                    STQ     0,,PR3

      452     2437    2           RETURN;

   2437  0 001246   200020 221300                    LDX1  ! SVDCT$+2,,AUTO
         0 001247   000001 702211                    TSX2  ! 1,X1

(unnamed)
 Sect OctLoc
   1     000   000007 777777   777777 600777   000003 006000   000005 006000    ................
   1     004   000002 006000   000004 006000                                    ........
      453     2438    2   END ENQUP;
      454     2439    1   END NID$DEVSCHED;
      455     2440        %EOD;

PL6.E3A0      #001=NID$DEVSCHED File=NID$DISK.:E05TSI                            WED 07/30/97 03:29 Page:63
--  Include file information  --

   P_PMDAT_C.:E05TOU  is referenced.
   P_PMDAT_R.:E05TOU  cannot be made into a system file and is referenced.
   PM$NI.:E05TOU  is referenced.
   N_FC_C.:E05TOU  is referenced.
   NI_MACROS_C.:E05TOU  cannot be made into a system file and is referenced.
   NI$TABLES.:E05TOU  is referenced.
   N$REQ.:E05TOU  is referenced.
   NI_DATA_R.:E05TOU  cannot be made into a system file and is referenced.
   NI_DATA_C.:E05TOU  is referenced.
   HF_LOCK_C.:E05TOU  cannot be made into a system file and is referenced.
   CP_6_SUBS.:E05TOU  is referenced.
      No diagnostics issued in procedure NID$DEVSCHED.
PL6.E3A0      #001=NID$DEVSCHED File=NID$DISK.:E05TSI                            WED 07/30/97 03:29 Page:64

 **** Variables and constants ****

  ****  Auto variables  ****

  ****  Scalars and arrays  ****
OctLoc.c.b A Datatyp(siz) R M Lvl/name                 OctLoc.c.b A Datatyp(siz) R M Lvl/name

     4-0-0/w PTR         r     1 @NEWSTATE                  3-0-0/w PTR         r     1 @PAR
    21-0-0/w PTR         r     1 @Q$                        5-0-0/w PTR         r     1 DCT$
    22-0-0/w UBIN        r     1 DLA                        6-0-0/w PTR         r     1 DQH$
     7-0-0/w PTR         r     1 DVT$                      23-0-0/w PTR         r     1 FREQ$
    10-0-0/w PTR         r     1 MDCT$                     11-0-0/w SBIN        r     1 MDCTX
    12-0-0/w PTR         r     1 MSQH$                     *0-0-0/w UBIN        r     1 NEWSTATE
    24-0-0/w PTR         r     1 NXT$                      *0-0-0/w UBIN        r     1 PAR
    *0-0-0/w PTR         r     1 Q$                        13-0-0/w PTR         r     1 REQ$
    14-0-0/w BIT         r     1 REQSCHEDONLY              15-0-0/w PTR         r     1 SQH$
    16-0-0/w PTR         r     1 SVDCT$

  ****  SYMREF variables  ****

  ****  Scalars and arrays  ****
OctLoc.c.b A Datatyp(siz) R M Lvl/name                 OctLoc.c.b A Datatyp(siz) R M Lvl/name

     0-0-0/w PTR         r     1 N$DCT$$                    0-0-0/w PTR         r     1 N$FQ$
     0-0-0/w PTR         r     1 NI$FQ$                     0-0-0/w PTR         r     1 NI$IBUF$
     0-0-0/w PTR         r     1 NI$RP$                     0-0-0/w UBIN        r     1 NI_IOLEAPERS
     0-0-0/w UBIN        r     1 NK_MXLOCAL                 0-0-0/w PTR         r     1 P_RESOURCE$

  ****  BASED and DCB variables  ****

  ****  Scalars and arrays  ****
OctLoc.c.b A Datatyp(siz) R M Lvl/name                 OctLoc.c.b A Datatyp(siz) R M Lvl/name

     0-0-0/w STRC(1332)  r     1 DCT                        0-0-0/w STRC(648)   r     1 DQH
     0-0-0/w STRC(1332)  r     1 MDCT                       0-0-0/w PTR         r     1 N$DCT$(0:0)
     0-0-0/d STRC(1080)  r     1 REQ                        0-0-0/w STRC(252)   r     1 SQH

PL6.E3A0      #001=NID$DEVSCHED File=NID$DISK.:E05TSI                            WED 07/30/97 03:29 Page:65

   Procedure NID$DEVSCHED requires 680 words for executable code.
   Procedure NID$DEVSCHED requires 24 words of local(AUTO) storage.
PL6.E3A0      #001=NID$DEVSCHED File=NID$DISK.:E05TSI                            WED 07/30/97 03:29 Page:66
          *** CROSS REFERENCE LISTING ***
**     DENOTES     IDENTIFIER DEFINITION
<<                 IDENTIFIER'S VALUE SET
>>                 IDENTIFIER'S VALUE USED
<>                 IDENTIFIER SET AND/OR USED
--                 IDENTIFIER REFERENCED
PL6.E3A0      #001=NID$DEVSCHED File=NID$DISK.:E05TSI                            WED 07/30/97 03:29 Page:67
          MINI XREF LISTING

DCT
      1828**DCL      2227<>CALL     2250<>CALL     2296<>CALL     2337<>CALL
DCT.DFLG.MPCSTOP
      1833**DCL      2334>>IF
DCT.DFLG.MPCSUSPENDED
      1833**DCL      2361<<ASSIGN
DCT.DP
      1848**DCL      1855--REDEF    1858--REDEF    1859--REDEF    1861--REDEF    1861--REDEF    1862--REDEF
      1863--REDEF    1863--REDEF
DCT.DP.BQ$
      1848**DCL      2203>>IF       2205<>CALL     2212>>IF       2214<>CALL     2319>>ASSIGN   2320<<ASSIGN
      2367>>ASSIGN   2368<<ASSIGN
DCT.DP.CSEEK
      1849**DCL      2199<<ASSIGN   2203>>IF       2212>>IF       2256<<ASSIGN   2317<<ASSIGN   2365<<ASSIGN
DCT.DP.LEAPERS
      1850**DCL      2197<<ASSIGN   2203>>IF       2207<<ASSIGN   2207>>ASSIGN   2212>>IF       2216<<ASSIGN
      2216>>ASSIGN   2321<<ASSIGN   2369<<ASSIGN
DCT.DP.MIRROR.DCTX
      1853**DCL      2081>>ASSIGN
DCT.DP.MIRROR.DRZERO
      1854**DCL      2075>>IF
DCT.DP.MIRROR.FLAG
      1850**DCL      2072>>IF       2169>>IF
DCT.DP.MIRROR.LOCK
      1851**DCL      2169>>IF
DCT.DP.MIRROR.LQ$
      1855**DCL      2174<>CALL
DCT.DP.MIRROR.STATE
      1852**DCL      2088>>IF
DCT.DP.MIRROR.USER#
      1853**DCL      2169>>IF
DCT.DP.SWP
PL6.E3A0      #001=NID$DEVSCHED File=NID$DISK.:E05TSI                            WED 07/30/97 03:29 Page:68
      1848**DCL      2198<<ASSIGN   2202>>IF       2322<<ASSIGN   2322>>ASSIGN   2370<<ASSIGN   2370>>ASSIGN
DCT.DQH$
      1844**DCL      2315<<ASSIGN   2362<<ASSIGN
DCT.DVT$
      1844**DCL      2291>>ASSIGN
DCT.MPC.IOCHANX
      1856**DCL      1856--REDEF
DCT.PM
      1839**DCL      2230<>CALL     2238<>CALL     2253<>CALL     2257<>CALL     2324<>CALL     2326<>CALL
      2328<>CALL     2372<>CALL     2374<>CALL     2376<>CALL     2378<>CALL
DCT.PM.MODE
      1839**DCL      2236>>IF
DCT.SQ$
      1828**DCL      2193>>IF       2196<<ASSIGN   2208<>CALL     2217<>CALL     2223>>IF       2248>>IF
      2292>>ASSIGN   2311<>CALL     2318>>IF       2319<<ASSIGN   2323>>IF       2357<>CALL     2366>>IF
      2367<<ASSIGN   2371>>IF
DCT.SQH$
      1843**DCL      2032>>ASSIGN   2065>>ASSIGN   2189>>ASSIGN   2244>>ASSIGN
DCT.STATE
      1838**DCL      2036<<ASSIGN   2223>>IF       2229<<ASSIGN   2245<<ASSIGN   2247>>IF       2252<<ASSIGN
      2316<<ASSIGN   2363<<ASSIGN
DCT.TYPE
      1838**DCL      2256>>IF       2364>>IF
DCT$
      1806**DCL      1828--IMP-PTR  2031<<ASSIGN   2032>>ASSIGN   2036>>ASSIGN   2064<<ASSIGN   2065>>ASSIGN
      2072>>IF       2075>>IF       2081>>ASSIGN   2088>>IF       2169>>IF       2169>>IF       2169>>IF
      2174>>CALL     2188<<ASSIGN   2189>>ASSIGN   2193>>IF       2196>>ASSIGN   2197>>ASSIGN   2198>>ASSIGN
      2199>>ASSIGN   2202>>IF       2203>>IF       2203>>IF       2203>>IF       2205>>CALL     2207>>ASSIGN
      2207>>ASSIGN   2208>>CALL     2212>>IF       2212>>IF       2212>>IF       2214>>CALL     2216>>ASSIGN
      2216>>ASSIGN   2217>>CALL     2223>>IF       2223>>IF       2227>>CALL     2229>>ASSIGN   2230>>CALL
      2236>>IF       2238>>CALL     2243<<ASSIGN   2244>>ASSIGN   2245>>ASSIGN   2247>>IF       2248>>IF
      2250>>CALL     2252>>ASSIGN   2253>>CALL     2256>>IF       2256>>ASSIGN   2257>>CALL     2288<>CALL
      2291>>ASSIGN   2292>>ASSIGN   2296>>CALL     2311>>CALL     2315>>ASSIGN   2316>>ASSIGN   2317>>ASSIGN
      2318>>IF       2319>>ASSIGN   2319>>ASSIGN   2320>>ASSIGN   2321>>ASSIGN   2322>>ASSIGN   2322>>ASSIGN
      2323>>IF       2324>>CALL     2326>>CALL     2328>>CALL     2337>>CALL     2357>>CALL     2362>>ASSIGN
      2363>>ASSIGN   2364>>IF       2365>>ASSIGN   2366>>IF       2367>>ASSIGN   2367>>ASSIGN   2368>>ASSIGN
PL6.E3A0      #001=NID$DEVSCHED File=NID$DISK.:E05TSI                            WED 07/30/97 03:29 Page:69
      2369>>ASSIGN   2370>>ASSIGN   2370>>ASSIGN   2371>>IF       2372>>CALL     2374>>CALL     2376>>CALL
      2378>>CALL
DEVSCHED
      2247**LABEL    2037--GOTO     2240--GOTO
DLA IN PROCEDURE ENQUP
      2396**DCL      2404<<ASSIGN   2407>>DOWHILE  2421<<ASSIGN   2424>>DOWHILE
DQH
      1876**DCL      2329<>CALL     2379<>CALL
DQH.FL$
      1876**DCL      2341>>IF       2342>>DOWHILE  2343>>ASSIGN
DQH.IO$
      1883**DCL      2314<<ASSIGN   2360<<ASSIGN
DQH.IOCHANX
      1878**DCL      1879--REDEF
DQH.MBX$
      1887**DCL      1888--REDEF
DQH.MPC$
      1883**DCL      2334>>IF       2361>>ASSIGN
DQH.STATE
      1880**DCL      2334>>IF
DQH$
      1807**DCL      1876--IMP-PTR  2304<>CALL     2314>>ASSIGN   2315>>ASSIGN   2329>>CALL     2333<<ASSIGN
      2334>>IF       2334>>IF       2341>>IF       2342>>DOWHILE  2349<>CALL     2360>>ASSIGN   2361>>ASSIGN
      2362>>ASSIGN   2379>>CALL
DVT.MPC
      1893**DCL      1894--REDEF
DVT$
      1808**DCL      1891--IMP-PTR  2291<<ASSIGN
ENQDOWN IN PROCEDURE ENQUP
      2415**ENTRY    2208--CALL     2214--CALL
ENQUP
      2391**PROC     2205--CALL     2217--CALL
FREQ$ IN PROCEDURE ENQUP
      2397**DCL      2405<<ASSIGN   2407>>DOWHILE  2408<<ASSIGN   2409>>ASSIGN   2422<<ASSIGN   2424>>DOWHILE
      2425<<ASSIGN   2426>>ASSIGN   2429>>IF       2434>>ASSIGN   2435>>ASSIGN   2436>>IF
HFC$LOCK
PL6.E3A0      #001=NID$DEVSCHED File=NID$DISK.:E05TSI                            WED 07/30/97 03:29 Page:70
       598**DCL-ENT  2034--CALL     2067--CALL     2279--CALL
HFC$UNLOCK
       598**DCL-ENT  2118--CALL     2385--CALL
INSRT IN PROCEDURE ENQUP
      2429**LABEL    2411--GOTO
MDCT.DP
      1926**DCL      1933--REDEF    1936--REDEF    1937--REDEF    1939--REDEF    1939--REDEF    1940--REDEF
      1941--REDEF    1941--REDEF
MDCT.DP.MIRROR.STATE
      1930**DCL      2101>>IF
MDCT.DP.MIRROR.WRITE
      1929**DCL      2162>>IF
MDCT.MPC.IOCHANX
      1934**DCL      1934--REDEF
MDCT.SQH$
      1921**DCL      2083>>ASSIGN
MDCT$
      1809**DCL      1906--IMP-PTR  2082<<ASSIGN   2083>>ASSIGN   2101>>IF       2115>>ASSIGN   2162>>IF
MDCTX
      1810**DCL      2081<<ASSIGN   2082>>ASSIGN   2090>>IF       2090>>IF       2114>>ASSIGN
MSQH.DOOR
      1954**DCL      1954--REDEF
MSQH$
      1811**DCL      1954--IMP-PTR  2083<<ASSIGN
N$DCT$
      1144**DCL      2082>>ASSIGN
N$DCT$$
      1010**DCL      1144--IMP-PTR  2082>>ASSIGN
N$FQ$
      1010**DCL      1145--IMP-PTR
N$REQ_INIT.BUFADDR
      1029**DCL      1030--REDEF    1030--REDEF
N$REQ_INIT.DLA.DRELADDR
      1021**DCL      1021--REDEF
N$REQ_INIT.DVE.EOMCHAR
      1058**DCL      1059--REDEF
PL6.E3A0      #001=NID$DEVSCHED File=NID$DISK.:E05TSI                            WED 07/30/97 03:29 Page:71
N$REQ_INIT.EAINFO
      1052**DCL      1052--REDEF
N$REQ_INIT.EAINFOX
      1052**DCL      1053--REDEF
N$REQ_INIT.EVNTINFO
      1053**DCL      1053--REDEF
N$REQ_INIT.STATUS
      1034**DCL      1040--REDEF
NEWSTATE
      1788**DCL        41--PROC     2036>>ASSIGN   2242--ENTRY    2245>>ASSIGN
NI$FQ$
      1070**DCL      1146--IMP-PTR
NI$IBUF$
      1070**DCL      1146--IMP-PTR
NI$IMXMBX_INIT.PAGED_BASE
      1080**DCL      1081--REDEF    1081--REDEF
NI$IMXMBX_INIT.SIZE
      1082**DCL      1082--REDEF
NI$REQ_INIT.DCW
      1104**DCL      1107--REDEF
NI$REQ_INIT.DCW.TALLY
      1105**DCL      1105--REDEF
NI$REQ_INIT.IDCW.EXTA
      1107**DCL      1107--REDEF
NI$REQ_INIT.PCW
      1109**DCL      1113--REDEF
NI$REQ_INIT.SEEK
      1114**DCL      1115--REDEF    1116--REDEF
NI$RP$
      1118**DCL      1148--IMP-PTR
NIM$DEQUEUE
      1173**DCL-ENT  2288--CALL     2304--CALL     2311--CALL     2349--CALL     2357--CALL
NIM$ENQUEUE
      1174**DCL-ENT  2174--CALL     2227--CALL     2250--CALL     2296--CALL     2337--CALL
NIO$DCWBLD
      1793**DCL-ENT  2116--CALL
PL6.E3A0      #001=NID$DEVSCHED File=NID$DISK.:E05TSI                            WED 07/30/97 03:29 Page:72
NIS$DRIVER
      1794**DCL-ENT  2329--CALL     2379--CALL
NI_IOLEAPERS
      1801**DCL      2203>>IF       2212>>IF
NI_MBX_INIT.DCW.CONTROL.AE
      1140**DCL      1140--REDEF
NI_MBX_INIT.LPW.CONTROL.AE
      1136**DCL      1136--REDEF
NK_MXLOCAL
      1802**DCL      2090>>IF
NXT$ IN PROCEDURE ENQUP
      2398**DCL      2406<<ASSIGN   2407>>DOWHILE  2408>>ASSIGN   2409<<ASSIGN   2423<<ASSIGN   2424>>DOWHILE
      2425>>ASSIGN   2426<<ASSIGN
PAR
      1789**DCL        41--PROC     2031--ASSIGN   2058--ENTRY    2063--ASSIGN   2186--ENTRY    2187--ASSIGN
      2242--ENTRY    2243--ASSIGN   2276--ENTRY    2277--ASSIGN
PMN$COLLECT
      1795**DCL-ENT  2230--CALL     2238--CALL     2253--CALL     2257--CALL     2324--CALL     2326--CALL
      2328--CALL     2372--CALL     2374--CALL     2376--CALL     2378--CALL
PMNBUSY
      2236**LABEL    2176--GOTO
P_NSCPU
      1765**DCL      1766--REDEF
P_RESOURCE.RES
      1638**DCL      1705--REDEF
P_RESOURCE$
      1718**DCL      1606--IMP-PTR
P_UPTIME
      1754**DCL      1755--REDEF
Q$ IN PROCEDURE ENQUP
      2392**DCL      2391--PROC     2399>>IF       2401<<ASSIGN   2406>>ASSIGN   2407>>DOWHILE  2415--ENTRY
      2416>>IF       2418<<ASSIGN   2423>>ASSIGN   2424>>DOWHILE  2430>>ASSIGN   2431>>ASSIGN   2436>>IF
      2436<<ASSIGN
REQ
      1967**DCL      2116<>CALL     2174<>CALL
REQ.BPMIR
PL6.E3A0      #001=NID$DEVSCHED File=NID$DISK.:E05TSI                            WED 07/30/97 03:29 Page:73
      2012**DCL      2077<<ASSIGN   2079>>IF
REQ.BUFADDR
      1976**DCL      1977--REDEF    1977--REDEF
REQ.COMP
      2001**DCL      2086<<ASSIGN
REQ.DCT$
      1968**DCL      2064>>ASSIGN   2115<<ASSIGN   2188>>ASSIGN
REQ.DLA
      1967**DCL      2203>>IF       2212>>IF       2317>>ASSIGN   2365>>ASSIGN   2404>>ASSIGN   2407>>DOWHILE
      2421>>ASSIGN   2424>>DOWHILE
REQ.DLA.DCTX
      1967**DCL      2114<<ASSIGN
REQ.DLA.DRELADDR
      1968**DCL      1968--REDEF    2075>>IF
REQ.DOMIR
      2011**DCL      2085<<ASSIGN   2164<<ASSIGN
REQ.DQH$
      1989**DCL      2293>>IF       2333>>ASSIGN
REQ.DVE.EOMCHAR
      2005**DCL      2006--REDEF
REQ.EAINFO
      1999**DCL      1999--REDEF
REQ.EAINFOX
      1999**DCL      2000--REDEF
REQ.EVNTINFO
      2000**DCL      2000--REDEF
REQ.FC
      1970**DCL      2124>>IF       2124>>IF
REQ.FL$
      1967**DCL      2195<<ASSIGN   2292>>ASSIGN   2400<<ASSIGN   2406>>ASSIGN   2409>>ASSIGN   2417<<ASSIGN
      2423>>ASSIGN   2426>>ASSIGN   2430<<ASSIGN   2430>>ASSIGN   2431<<ASSIGN   2434<<ASSIGN   2434>>ASSIGN
      2435<<ASSIGN
REQ.IOFLG.STOPMPC
      1973**DCL      2334>>IF
REQ.IOFLG.SUSP
      1972**DCL      2361>>IF
PL6.E3A0      #001=NID$DEVSCHED File=NID$DISK.:E05TSI                            WED 07/30/97 03:29 Page:74
REQ.MIRDONE
      2012**DCL      2072>>IF
REQ.STATUS
      1981**DCL      1987--REDEF
REQ.USER#
      2001**DCL      2169>>IF
REQ$
      1812**DCL      1967--IMP-PTR  2063<<ASSIGN   2064>>ASSIGN   2072>>IF       2075>>IF       2077>>ASSIGN
      2079>>IF       2085>>ASSIGN   2086>>ASSIGN   2114>>ASSIGN   2115>>ASSIGN   2116>>CALL     2124>>IF
      2124>>IF       2164>>ASSIGN   2169>>IF       2174>>CALL     2187<<ASSIGN   2188>>ASSIGN   2195>>ASSIGN
      2195>>ASSIGN   2196>>ASSIGN   2203>>IF       2212>>IF       2292<<ASSIGN   2293>>IF       2311<>CALL
      2314>>ASSIGN   2317>>ASSIGN   2333>>ASSIGN   2334>>IF       2357<>CALL     2360>>ASSIGN   2361>>IF
      2365>>ASSIGN   2400>>ASSIGN   2400>>ASSIGN   2401>>ASSIGN   2404>>ASSIGN   2417>>ASSIGN   2417>>ASSIGN
      2418>>ASSIGN   2421>>ASSIGN   2430>>ASSIGN   2431>>ASSIGN   2434>>ASSIGN   2435>>ASSIGN   2436>>ASSIGN
REQSCHED
      2062**LABEL    2120--GOTO
REQSCHEDL
      2193**LABEL    2180--GOTO
REQSCHEDONLY
      1813**DCL      2070<<ASSIGN   2190<<ASSIGN   2221>>IF
SCANAQ
      2282**LABEL    2260--GOTO
SC_NIDINVMIR
      1796**DCL-ENT  2099--CALL
SC_NIDNOPMIR
      1797**DCL-ENT  2111--CALL
SQH.AQ$
      2026**DCL      2227<>CALL     2250<>CALL     2283>>DOWHILE  2288<>CALL     2383<<ASSIGN
SQH.CQ$
      2026**DCL      2294>>IF       2304<>CALL     2342>>DOWHILE  2343<<ASSIGN   2343>>ASSIGN   2349<>CALL
SQH.DOOR
      2025**DCL      2025--REDEF
SQH.GATE
      2025**DCL      2034<>CALL     2067<>CALL     2118<>CALL     2279<>CALL     2385<>CALL
SQH$
      1814**DCL      2025--IMP-PTR  2032<<ASSIGN   2034>>CALL     2065<<ASSIGN   2067>>CALL     2118>>CALL
PL6.E3A0      #001=NID$DEVSCHED File=NID$DISK.:E05TSI                            WED 07/30/97 03:29 Page:75
      2189<<ASSIGN   2227>>CALL     2244<<ASSIGN   2250>>CALL     2277<<ASSIGN   2279>>CALL     2283>>DOWHILE
      2288>>CALL     2294>>IF       2304>>CALL     2342>>DOWHILE  2343>>ASSIGN   2343>>ASSIGN   2349>>CALL
      2383>>ASSIGN   2385>>CALL
SVDCT$
      1815**DCL      2282<<ASSIGN   2296<>CALL     2337<>CALL     2383>>ASSIGN

