VERSION E05

PL6.E3A0      #001=NIO$QUE File=NIO$QUE.:E05TSI                                  WED 07/30/97 03:34 Page:1
        1        1        /*M* NIO$QUE - I/O system interface module */
        2        2        /*T***********************************************************/
        3        3        /*T*                                                         */
        4        4        /*T* Copyright (c) Bull HN Information Systems Inc., 1997    */
        5        5        /*T*                                                         */
        6        6        /*T***********************************************************/
        7        7        /*X* DMR */
        8        8        NIO$QUE: PROC(N$REQ) ALTRET;
        9        9        /*
       10       10                Includes
       11       11        */
       12       12        %INCLUDE                B$JIT ;
       13      615        %INCLUDE                B$MAP ;
       14      714        %INCLUDE                B$USER ;
       15      930        %INCLUDE                B_MLSMAC_C ;
       16     1872        %INCLUDE                B_SEGIDS_C ;
       17     2411        %INCLUDE                CP_6_SUBS ;
       18     2951        %INCLUDE                F$DCB ;
       19     3000        %INCLUDE                HF_DATA_R ;
       20     3043        %INCLUDE                HF_LOCK_C ;
       21     3057        %INCLUDE                M_INFO_C ;
       22     3197        %INCLUDE                NI_DATA_C ;
       23     3310        %INCLUDE                NI_DATA_R ;
       24     3747        %INCLUDE                NI_DEVCMD_C ;
       25     3930        %INCLUDE                NI_MACROS_C ;
       26     4197        %INCLUDE                NK_SUBS ;
       27     4222        %INCLUDE                N_FC_C ;
       28     4259        %INCLUDE                SS_SCHED_C ;
       29     4492        /*
       30     4493                Parameters
       31     4494        */
       32     4495        %N$REQ                  ( NAME=N$REQ, STCLASS=PARAM ) ;
       33     4553        /*
       34     4554                Entries
       35     4555        */
       36     4556    1   DCL 1 KQR$READ          ENTRY(1) ALTRET ;
       37     4557    1   DCL 1 KQW$WRITE         ENTRY(1) ALTRET ;
PL6.E3A0      #001=NIO$QUE File=NIO$QUE.:E05TSI                                  WED 07/30/97 03:34 Page:2
       38     4558    1   DCL 1 NIM$CVTPTR        ENTRY(3) ;
       39     4559    1   DCL 1 NIO$COMP          ENTRY(2) ;
       40     4560    1   DCL 1 NIQ$GETS          ENTRY(1) ALTRET ;
       41     4561    1   DCL 1 NIQ$RELS          ENTRY(1) ALTRET ;
       42     4562    1   DCL 1 NIU$CRPEXTST      ENTRY(1) ALTRET ;
       43     4563    1   DCL 1 NIU$SYMBLOCK      ENTRY(2) ALTRET ;
       44     4564    1   DCL 1 SC_NIOBADFC       ENTRY CONV(2,0) ;
       45     4565    1   DCL 1 SC_NIOBADIOQ      ENTRY CONV(2,0) ;
       46     4566    1   DCL 1 SC_NIOINVDLA      ENTRY CONV(2,0) ;
       47     4567    1   DCL 1 SC_NIONRD         ENTRY CONV(2,0) ;
       48     4568    1   DCL 1 SSR$REG           ENTRY(3) ALTRET ;
       49     4569        /*
       50     4570                Symrefs
       51     4571        */
       52     4572    1   DCL 1 B$JIT$            PTR SYMREF ;
       53     4573    1   DCL 1 B$LS$             PTR SYMREF READONLY ;
       54     4574    1   DCL 1 B$MPT$            PTR SYMREF ;
       55     4575        %B$USERREFS ;
       56     4579    1   DCL 1 B$WSQ0PT$         PTR SYMREF READONLY ;
       57     4580    1   DCL 1 F_DCBLOCK         BIT(72) SYMREF ;
       58     4581    1   DCL 1 NK_MXTOTAL        UBIN(36) SYMREF ;
       59     4582    1   DCL 1 S_CUN             SBIN SYMREF;
       60     4583    1   DCL 1 SL_IOTA(0:4)      SBIN SYMREF ;   /* QUANTUM PENALTY FOR I/O            */
       61     4584    1   DCL 1 SL_MF(0:4)        SBIN SYMREF ;   /* MASTER FUNCTION LIMIT BY CLASS     */
       62     4585        /*
       63     4586                Auto
       64     4587        */
       65     4588    1   DCL 1 BUFADDR           SBIN ALIGNED AUTO ;
       66     4589    1   DCL 1 BUFREAL           REDEF BUFADDR,
       67     4590    1         2 EXTA            UBIN(16) UNAL,
       68     4591    1         2 ADR             UBIN(18) UNAL,
       69     4592    1         2 BYT             UBIN(2) UNAL;
       70     4593    1   DCL 1 BUFREALB          REDEF BUFADDR,
       71     4594    1         2 EXTA            UBIN(16) UNAL,
       72     4595    1         2 BYTADR          UBIN(20) UNAL;
       73     4596    1   DCL 1 BUFVIRT           REDEF BUFADDR,
       74     4597    1         2 BASE            UBIN(33) UNAL,
PL6.E3A0      #001=NIO$QUE File=NIO$QUE.:E05TSI                                  WED 07/30/97 03:34 Page:3
       75     4598    1         2 BYT             UBIN(3) UNAL;
       76     4599    1   DCL 1 BUFOFFSET         UBIN ALIGNED AUTO ;
       77     4600    1   DCL 1 BUFSIZE           SBIN ALIGNED AUTO ;
       78     4601    1   DCL 1 BUF_BASE          SBIN ALIGNED AUTO ;
       79     4602    1   DCL 1 CONT              BIT(1) ALIGNED AUTO ;
       80     4603    1   DCL 1 CSIZE             SBIN ALIGNED AUTO ;
       81     4604    1   DCL 1 DCB$              PTR ALIGNED AUTO ;
       82     4605    1   DCL 1 DCT$              PTR ALIGNED AUTO ;
       83     4606    1   DCL 1 DCWX              SBIN ALIGNED AUTO ;
       84     4607    1   DCL 1 DVT$              PTR ALIGNED AUTO ;
       85     4608    1   DCL 1 FUNC              ALIGNED AUTO,
       86     4609    1         2 DC              UBIN(6) UNAL,
       87     4610    1         2 RTN             UBIN(6) UNAL,
       88     4611    1         2 DVN             REDEF RTN
       89     4612    1                           UBIN(6) UNAL,
       90     4613    1         2 DC2             UBIN(6) UNAL,
       91     4614    1         2 TIMO            UBIN(6) UNAL,
       92     4615    1         2 CC              UBIN(6) UNAL,
       93     4616    1         2 CCB             REDEF CC
       94     4617    1                           BIT(6) UNAL,
       95     4618    1         2 RCNT            UBIN(6) UNAL;
       96     4619    1   DCL 1 IOS$              PTR ALIGNED AUTO ;
       97     4620    1   DCL 1 MBX$              PTR ALIGNED AUTO ;
       98     4621    1   DCL 1 NOBUF             BIT(1) ALIGNED AUTO ;
       99     4622    1   DCL 1 PNTR$             PTR ALIGNED AUTO ;
      100     4623    1   DCL 1 PNTR              REDEF PNTR$,
      101     4624    1         2 WA              UBIN(18) HALIGNED,
      102     4625    1         2 *               UBIN(18) HALIGNED ;
      103     4626    1   DCL 1 PSIA              BIT(1) ALIGNED AUTO ;
      104     4627    1   DCL 1 PTP               SBIN ALIGNED AUTO ;
      105     4628    1   DCL 1 QUE               SBIN ALIGNED AUTO ;
      106     4629    1   DCL 1 RCTTEMP           SBIN ALIGNED AUTO ;
      107     4630    1   DCL 1 RTN               UBIN ALIGNED AUTO ;
      108     4631    1   DCL 1 SCHED             EPTR ALIGNED AUTO ;
      109     4632    1   DCL 1 SEEK$             PTR ALIGNED AUTO ;
      110     4633    1   DCL 1 SEEK              REDEF SEEK$,
      111     4634    1         2 WA              UBIN(18) HALIGNED,
PL6.E3A0      #001=NIO$QUE File=NIO$QUE.:E05TSI                                  WED 07/30/97 03:34 Page:4
      112     4635    1         2 *               UBIN(18) HALIGNED ;
      113     4636    1   DCL 1 SIZE              UBIN ALIGNED AUTO ;
      114     4637    1   DCL 1 SQH$              PTR ALIGNED AUTO ;
      115     4638    1   DCL 1 X                 SBIN ALIGNED AUTO ;
      116     4639        /*
      117     4640                Based
      118     4641        */
      119     4642        %B_MLS                  ( FPTN=B$MLNK,    STCLASS=BASED ) ;
      120     5457    1   DCL 1 CHARBASE          CHAR(CSIZE) BASED ;
      121     5458    1   DCL 1 CHAR3             CHAR(3) BASED UNAL ;
      122     5459        %NI$DCT                 ( NAME=DCT,       STCLASS="BASED(DCT$)" ) ;
      123     5507        %DCW                    ( NAME=DCW,       STCLASS=BASED ) ;
      124     5537        %NI$DVT                 ( NAME=DVT,       STCLASS="BASED(DVT$)" ) ;
      125     5544        %IDCW                   ( NAME=IDCW,      STCLASS=BASED ) ;
      126     5576        %NI$IMXMBX              ( NAME=NI$IMXMBX, STCLASS="BASED(MBX$)" ) ;
      127     5597        %NI$REQ                 ( NAME=NI$REQ,    STCLASS="BASED(IOS$)" ) ;
      128     5622    1   DCL 1 ONECHAR(0:0)      CHAR(1) BASED ;
      129     5623    1   DCL 1 POINTER           BASED ALIGNED,
      130     5624    1         2 W               UBIN(18) UNAL,
      131     5625    1         2 C               UBIN(2) UNAL,
      132     5626    1         2 B               UBIN(4) UNAL,
      133     5627    1         2 SEGID           UBIN(12) UNAL ;
      134     5628        %NI$SQH                 ( NAME=SQH, STCLASS="BASED(SQH$)" ) ;
      135     5641    1   DCL 1 VFC               BASED ALIGNED,
      136     5642    1         2 VFCCHAR         CHAR(1),
      137     5643    1         2 BUFCHARS        CHAR(3) ;
      138     5644        /*
      139     5645                Constant
      140     5646        */
      141     5647        %SUB B$U="S$CU$->B$U";
      142     5648        %EJECT;
PL6.E3A0      #001=NIO$QUE File=NIO$QUE.:E05TSI                                  WED 07/30/97 03:34 Page:5
      143     5649    1           QUE=%QUE_STD;
      144     5650    1           GOTO QUECMN;
      145     5651
      146     5652
      147     5653
      148     5654    1   NIO$REQUE: ENTRY(N$REQ) ALTRET;
      149     5655    1           QUE=%QUE_QUE_AGAIN;
      150     5656    1           GOTO QUECMN;
      151     5657
      152     5658
      153     5659
      154     5660    1   NIO$DCWBLD: ENTRY(N$REQ) ALTRET;
      155     5661    1           QUE=%QUE_DCWBLD;
      156     5662    1           N$REQ.IOQFLG.IOQUED = '0'B ;
      157     5663
      158     5664
      159     5665
      160     5666    1   QUECMN: ;
      161     5667    1           IF  NOT N$REQ.IOQFLG.INUSE
      162     5668    1             OR N$REQ.IOQFLG.IOQUED
      163     5669    1           THEN
      164     5670        /*S* SCREECH_CODE:  NIO-S$BADIOQ-7
      165     5671             TYPE:          SCREECH
      166     5672             MESSAGE:       Incorrect IOQ processing within IO system.
      167     5673             DESCRIPTION:   The IO system detected an incorrect processing
      168     5674                            sequence on an IOQ packet.  To be scheduled
      169     5675                            for an IO, an IOQ packet must be in use and
      170     5676                            must not have been previously scheduled for
      171     5677                            an IO.  To have an IO completed, an IOQ packet
      172     5678                            must be in use and must have been previously
      173     5679                            been scheduled for an IO.
      174     5680        */
      175     5681    1              CALL SC_NIOBADIOQ ;
      176     5682
      177     5683    1           N$REQ.IOQFLG.IOQUED = '1'B ;
      178     5684    1           IF ADDR(N$REQ.DCB$)->POINTER.SEGID=BITBIN(%ROSID) THEN
      179     5685    1              ADDR(N$REQ.DCB$)->POINTER.SEGID=BITBIN(%RONCSID);
PL6.E3A0      #001=NIO$QUE File=NIO$QUE.:E05TSI                                  WED 07/30/97 03:34 Page:6
      180     5686    1           DCB$=N$REQ.DCB$;
      181     5687    1           IF N$REQ.DLA.DCTX>NK_MXTOTAL OR N$REQ.DLA.DCTX=0 THEN
      182     5688    1              CALL SC_NIOINVDLA;
      183     5689        /*S* SCREECH_CODE: NIO-S$INVDLA-7
      184     5690             TYPE: SCREECH
      185     5691             MESSAGE: BAD DCT INDEX
      186     5692        */
      187     5693    1           DCT$=N$DCT$(N$REQ.DLA.DCTX);
      188     5694    1           N$REQ.DCT$=DCT$;
      189     5695                                                /* BUF_BASE IS USED ONLY FOR THE IMX */
      190     5696    1           IF DCT.DFLG.RELOAD THEN
      191     5697    1              BUF_BASE=%IMX_FWBUF_BASE;
      192     5698    1           ELSE
      193     5699    1              BUF_BASE=%IMX_BUF_BASE;
      194     5700    2           IF DCT.RESCOD=NK_NCOM THEN DO;
      195     5701    3              IF N$REQ.OPFLG.BPF THEN DO;
      196     5702    3                 CALL NIM$CVTPTR(N$REQ.BUF$,BUFADDR,PTP);
      197     5703    3                 N$REQ.OPFLG.BPF='0'B;
      198     5704    3                 N$REQ.BUFADDR=BUFADDR;
      199     5705    3                 N$REQ.PTP=PTP;
      200     5706    3                 END;
      201     5707    3              ELSE DO;
      202     5708    4                 IF HW_IOP AND N$REQ.PTP=0 AND N$REQ.BUFADDR~=0 THEN DO;
      203     5709                       /* IOP CAN'T DO NON-PAGED IO ADDR>16MW, SO CONVERT TO PAGED */
      204     5710    4                    N$REQ.BUFREAL_SV=BINBIT(N$REQ.BUFADDR,36);
      205     5711    4                    N$REQ.PTP=B$LS$->B$MLNK.WSQ0PT.BASE/256 + /* HW_IOPTP_UNITS*4 */
      206     5712    4                      N$REQ.BUFREAL_SV.DIV64PG;
      207     5713                       /* NOW RUN PTP THROUGH WSQ0PT TO FIND PHYSICAL ADDR OF PT WORD */
      208     5714    4                    N$REQ.PTP=B$WSQ0PT$->B$MAP.RPN(N$REQ.PTP/16)*16 +
              5714                             /* 1024/HW_IOPTP_UNITS */
      209     5715    4                      MOD(N$REQ.PTP,16);
      210     5716    4                    N$REQ.BUFADDR=N$REQ.BUFREAL_SV.MOD64PG;
      211     5717    4                    N$REQ.IOP_BUFREAL_CVRT='1'B;
      212     5718    4                    END;
      213     5719    3                 BUFADDR=N$REQ.BUFADDR;
      214     5720    3                 PTP=N$REQ.PTP;
      215     5721    3                 END;
PL6.E3A0      #001=NIO$QUE File=NIO$QUE.:E05TSI                                  WED 07/30/97 03:34 Page:7
      216     5722    2              BUFSIZE=N$REQ.BUFSIZE;
      217     5723    2              DVT$=DCT.DVT$;
      218     5724    2              END;
      219     5725    2           IF QUE=%QUE_STD THEN DO;
      220     5726    2              N$REQ.TYC='0'B;
      221     5727    2              N$REQ.ARCT=0;
      222     5728    2              N$REQ.ARSIZE=0;
      223     5729    3              IF N$REQ.OPFLG.USER THEN DO INHIBIT;
      224     5730    3                 N$REQ.USER# = S_CUN;
      225     5731    3                 B$JIT.CTIME=B$JIT.CTIME+SL_IOTA(B$JIT.MODE);
      226     5732    3                 IF B$U.MF - B$U.CMF >= SL_MF(B$JIT.MODE) THEN
      227     5733    3                    CALL SSR$REG(%SS_QMF);
      228     5734                      %LOCK (G#=NI_MFGATE);
      229     5737    3                 B$U.MF=B$U.MF+1;
      230     5738    3                 IF DCT.DFLG.CM THEN B$U.CMF=B$U.CMF+1;
      231     5739                      %UNLOCK (G#=NI_MFGATE);
      232     5742    4                 IF DCB$ ~= ADDR(NIL) THEN DO;
      233     5743                         %LOCK (G#=F_DCBLOCK);
      234     5746    4                    IF N$REQ.NWIO=0 THEN
      235     5747    4                       DCB$->F$DCB.FCN.CNT(0)=DCB$->F$DCB.FCN.CNT(0)+1;
      236     5748    4                    ELSE
      237     5749    4                       DCB$->F$DCB.FCN.CNT(1)=DCB$->F$DCB.FCN.CNT(1)+1;
      238     5750                         %UNLOCK (G#=F_DCBLOCK);
      239     5753    4                    END;
      240     5754    3                 END;
      241     5755    2              END;
      242     5756    2           DO CASE(DCT.RESCOD);
      243     5757    2            CASE(NK_NCOM);
      244     5758    3              IF DCT.CTYP ~= %C_APC THEN DO;
      245     5759    4                 IF NOT N$REQ.IOFLG.IOS THEN DO;
      246     5760    4                    CALL NIQ$GETS(N$REQ.IOS$) ALTRET(NQPKTS);
      247     5761    4                    IOS$=N$REQ.IOS$;
      248     5762    4                    MBX$=PINCRW(IOS$,%IMX_MBX_OFFSET);
      249     5763    4                    N$REQ.IOFLG.IOS='1'B;
      250     5764    4                    END;
      251     5765    4                 ELSE DO;
      252     5766    4                    IOS$=N$REQ.IOS$;
PL6.E3A0      #001=NIO$QUE File=NIO$QUE.:E05TSI                                  WED 07/30/97 03:34 Page:8
      253     5767    4                    PNTR$=NI$REQ.FL$;
      254     5768    4                    NI$REQ=NI$REQ_INIT;
      255     5769    4                    MBX$=PINCRW(IOS$,%IMX_MBX_OFFSET);
      256     5770    4                    IF HW_IMX THEN
      257     5771    4                       NI$IMXMBX=NI$IMXMBX_INIT;
      258     5772    4                    NI$REQ.FL$=PNTR$;
      259     5773    4                    END;
      260     5774    3                 END;
      261     5775    2              N$REQ.ERRCT=0;
      262     5776    2              IF N$REQ.FC=%N_WRBIN AND DCT.DFLG.CHECKWRITE THEN N$REQ.FC=%N_WRCMP;
      263     5777    2              IF N$REQ.FC>%N_MLFC THEN
      264     5778    2                 FUNC='0'B;
      265     5779    2              ELSE
      266     5780    2                 FUNC=DVT.IDCW(N$REQ.FC);
      267     5781    2              DCWX=0;
      268     5782    2              RTN=FUNC.RTN;
      269     5783    2              FUNC.DVN=DCT.DVN;
      270     5784    2              IF FUNC.TIMO~=0 THEN N$REQ.TIMOUT=FUNC.TIMO;
      271     5785    2              SEEK$=ADDR(NI$REQ.SEEK);
      272     5786    2              PSIA=DCT.DFLG.PSIA;
      273     5787    2              NOBUF=(FUNC.CCB & %CC_NOBUF) ~= '0'B;
      274     5788    3              DO CASE(RTN);
      275     5789    3               CASE(%BITBIN(RTN_BADFC));
      276     5790    3                 CALL SC_NIOBADFC;
      277     5791        /*S* SCREECH_CODE: NIO-S$BADFC-7
      278     5792             TYPE: SCREECH
      279     5793             MESSAGE: THE SUPPLIED FUNCTION CODE IS NOT LEGAL FOR THIS DEVICE
      280     5794        */
      281     5795    3                 N$REQ.TYC.IOERR='1'B;
      282     5796    3                 CALL NIO$COMP(N$REQ);
      283     5797    3                 RETURN;
      284     5798    3               CASE(%BITBIN(RTN_BADFC_IOERR));
      285     5799    3                 N$REQ.TYC.IOERR='1'B;
      286     5800    3                 CALL NIO$COMP(N$REQ);
      287     5801    3                 RETURN;
      288     5802    3               CASE(%BITBIN(RTN_BADFC_IGNORE));
      289     5803    3                 CALL NIO$COMP(N$REQ);
PL6.E3A0      #001=NIO$QUE File=NIO$QUE.:E05TSI                                  WED 07/30/97 03:34 Page:9
      290     5804    3                 RETURN;
      291     5805    3               CASE(%BITBIN(RTN_DCWLIST));
      292     5806        /**/
      293     5807        /**/
      294     5808        /*  The DCWLIST function code requires that the buffer begin on a
      295     5809            doubleword bound and that word 0 of the buffer be an IDCW.  The
      296     5810            device number of this IDCW will be filled in from the DCT.  All
      297     5811            other IDCWs in the DCW list should have a device number of 0.
      298     5812            If the required conditions are not met an IOERR is returned without
      299     5813            attempting to execute the request.  No changes to user programs
      300     5814            supplying DCW lists are required to support the IMX.  This code
      301     5815            modifies IDCWs and TDCWs to include the IMX base word references.
      302     5816            However, because TDCWs must be modified for the IMX, the following
      303     5817            restriction must be applied:  no TDCWs can follow the last IDCW.
      304     5818            (This is because DCWs may or may not follow the last IDCW, so it
      305     5819            is impossible to find the end of the DCW list unless tables of all
      306     5820            possible instructions exist which show whether or not a DCW is
      307     5821            required.)                                                        */
      308     5822        /**/
      309     5823        /**/
      310     5824    4                 IF BUFVIRT.BYT~=0 OR N$REQ.BUF$->IDCW.SVN~=7 THEN DO;
      311     5825    4                    N$REQ.TYC.IOERR='1'B;
      312     5826    4                    CALL NIO$COMP(N$REQ);
      313     5827    4                    RETURN;
      314     5828    4                    END;
      315     5829    3                 X=0;
      316     5830    3                 CONT='1'B;
      317     5831    4                 DO WHILE(CONT);
      318     5832    4                    PNTR$=PINCRW(N$REQ.BUF$,X);
      319     5833    5                    IF PNTR$->IDCW.SVN=7 THEN DO;
      320     5834    5                       PNTR$->IDCW.DVN=DCT.DVN;
      321     5835    5                       IF HW_IMX THEN
      322     5836    5                          PNTR$->IDCW.DATA.BASE=BUF_BASE;
      323     5837    5                       CONT=PNTR$->IDCW.CONT;
      324     5838    5                       X=X+1;
      325     5839    5                       END;
      326     5840    5                    ELSE DO CASE(PNTR$->DCW.TYPE);
PL6.E3A0      #001=NIO$QUE File=NIO$QUE.:E05TSI                                  WED 07/30/97 03:34 Page:10
      327     5841    5                     CASE(%DCW_TDCW);
      328     5842    5                       X=PNTR$->DCW.FWA; /*N* IOM bug? how about X=FWA-BUFVIRT.BASE? */
      329     5843    5                       IF HW_IMX THEN
      330     5844    5                          PNTR$->DCW.T.DCWLIST.BASE=BUF_BASE;
      331     5845    5                     CASE(ELSE);
      332     5846    5                       X=X+1;
      333     5847    5                     END;
      334     5848    4                    IF X>=BUFSIZE/4 THEN CONT='0'B;
      335     5849    4                    END;
      336     5850    4                 IF NOT PSIA THEN DO;
      337     5851    4                    NI$REQ.PCW=N$REQ.BUF$->IDCW;
      338     5852    4                    NI$REQ.PCW.FLAGS='600'O;
      339     5853    4                    END;
      340     5854    3                 N$REQ.IOFLG.LPW23='0'B;   /* REAL DCW, REAL LPW */
      341     5855    3                 IF HW_IOP THEN
      342     5856    3                    NI$REQ.IOP_PTAW=BINBIT(PTP,27)|%IOP_PTA1_INIT; /* PHYSADDR */
      343     5857    3                 ELSE IF NOT HW_IMX THEN
      344     5858    3                       NI$REQ.PCW.PTP=PTP;
      345     5859    3                 N$REQ.LPWX.BASE=BUFVIRT.BASE;
      346     5860    3                 N$REQ.LPWX.BOUND=(BUFSIZE+3)/4;
      347     5861    4                 IF HW_IMX THEN DO;
      348     5862    4                    NI$REQ.DCW(0)=%TDCWM1;
      349     5863    4                    NI$REQ.DCW.T.DCWLIST.BASE(0)=BUF_BASE;
      350     5864    4                    END;
      351     5865    4                 ELSE DO;
      352     5866    4                    NI$REQ.DCW(0)=%TDCWM4;
      353     5867                         /*N* IOM EVIDENTLY DOESN'T USE LPWX FOR DCWLIST */
      354     5868    4                    NI$REQ.DCW.FWA(0)=BUFREAL.ADR+BITBIN(~PSIA);
      355     5869    4                    END;
      356     5870    3               CASE(%BITBIN(RTN_WRSYMB));
      357     5871    3                 N$REQ.ARCT = N$REQ.RCT;
      358     5872    3                 CALL NIU$SYMBLOCK(N$REQ,FUNC) ALTRET(COMP);
      359     5873    4                 DO WHILE('0'B);           /* DO NEVER */
      360     5874    4   COMP:            CALL NIO$COMP(N$REQ);
      361     5875    4                    RETURN;
      362     5876    4                    END;                   /* DO NEVER */
      363     5877    3               CASE(%BITBIN(RTN_SC_RDPRMPT));
PL6.E3A0      #001=NIO$QUE File=NIO$QUE.:E05TSI                                  WED 07/30/97 03:34 Page:11
      364     5878    3                 NI$REQ.SEEK='000015012000'O;
      365     5879    3                 SEEK$->ONECHAR(3)=N$REQ.BUF$->ONECHAR(0);
      366     5880    3                 GOTO RTN_DP_SEEK;
      367     5881    3               CASE(%BITBIN(RTN_SC_WRCRLF));
      368     5882    3                 NI$REQ.SEEK='000000015012'O;
      369     5883    3                 GOTO RTN_DP_SEEK;
      370     5884    3               CASE(%BITBIN(RTN_CR_EXTST),%BITBIN(RTN_CP_EXTST));
      371     5885    3                 CALL NIU$CRPEXTST(N$REQ) ALTRET(NQPKTS);
      372     5886    3               CASE(%BITBIN(RTN_CP_WRFM));
      373     5887    3                 NI$REQ.SEEK='041105117104'O; /* !EOD */
      374     5888    3                 NI$REQ.IDCW(0)=(FUNC & %IDCWMASK) | %IDCWBITS;
      375     5889    3                 IF HW_IMX THEN
      376     5890    3                    NI$REQ.IDCW.DATA.BASE(0)=%IMX_IOS_BASE;
      377     5891    3                 NI$REQ.DCW(1)=BINBIT((SEEK.WA*%BITBIN('1000000'O))+1,36);
      378     5892    3               CASE(%BITBIN(RTN_CP_WRITE));
      379     5893    3                 IF N$REQ.DVE.DVBYTE & %DVBYTE_BIN# THEN FUNC.DC=FUNC.DC2;
      380     5894    3                 GOTO RTN_STD0;
      381     5895    3               CASE(%BITBIN(RTN_LP_LDCHAIN));
      382     5896    3                 CSIZE=60*4;
      383     5897    3                 DCT.LP.CHAIN$->CHARBASE=N$REQ.BUF$->CHARBASE;
      384     5898    3                 GOTO RTN_STD0;
      385     5899    3               CASE(%BITBIN(RTN_LP_LDVFC));
      386     5900    3                 CSIZE=N$REQ.BUFSIZE;
      387     5901    3                 DCT.LP.VFCL=N$REQ.BUFSIZE/4;
      388     5902    3                 DCT.LP.VFC$->CHARBASE=N$REQ.BUF$->CHARBASE;
      389     5903    3                 GOTO RTN_STD0;
      390     5904    3               CASE(%BITBIN(RTN_LP_WRITE));
      391     5905    3                 IF N$REQ.DVE.DVBYTE & %DVBYTE_BP# THEN FUNC.DC=FUNC.DC2;
      392     5906    3                 GOTO RTN_STD0;
      393     5907    3               CASE(%BITBIN(RTN_MT_SPR));
      394     5908    4                 IF N$REQ.RCT<0 THEN DO;
      395     5909    4                    RCTTEMP=-N$REQ.RCT;
      396     5910    4                    FUNC.DC=FUNC.DC2;
      397     5911    4                    END;
      398     5912    4                 ELSE DO;
      399     5913    4                    RCTTEMP=N$REQ.RCT;
      400     5914    4                    END;
PL6.E3A0      #001=NIO$QUE File=NIO$QUE.:E05TSI                                  WED 07/30/97 03:34 Page:12
      401     5915    3                 IF RCTTEMP>63 THEN
      402     5916    3                    FUNC.RCNT=63;
      403     5917    3                 ELSE
      404     5918    3                    FUNC.RCNT=RCTTEMP;
      405     5919    3                 NI$REQ.IDCW(0)=(FUNC & %IDCWMASK) | %IDCWBITS;
      406     5920    3                 IF HW_IMX THEN            /* NO DATA ACTUALLY TRANSFERRED */
      407     5921    3                    NI$REQ.IDCW.DATA.BASE(0)=%IMX_IOS_BASE;
      408     5922    3                 N$REQ.IOFLG.MREC='1'B;
      409     5923    3                 N$REQ.ARCT=0;
      410     5924    3               CASE(%BITBIN(RTN_MT_SPF));
      411     5925    3                 IF N$REQ.RCT<0 THEN FUNC.DC=FUNC.DC2;
      412     5926    3                 NI$REQ.IDCW(0)=(FUNC & %IDCWMASK) | %IDCWBITS;
      413     5927    3                 IF HW_IMX THEN            /* NO DATA ACTUALLY TRANSFERRED */
      414     5928    3                    NI$REQ.IDCW.DATA.BASE(0)=%IMX_IOS_BASE;
      415     5929    3                 N$REQ.IOFLG.MREC='1'B;
      416     5930    3                 N$REQ.ARCT=0;
      417     5931    3               CASE(%BITBIN(RTN_MT_READ),%BITBIN(RTN_MT_WRITE));
      418     5932    3                 IF N$REQ.DVE.DVBYTE & %DVBYTE_BIN# THEN FUNC.DC=FUNC.DC2;
      419     5933    3                 GOTO RTN_STD0;
      420     5934    3               CASE(%BITBIN(RTN_MT_WRBYTE));
      421     5935    3                 FUNC.RCNT=MOD(BUFADDR+BUFSIZE,4)*8;
      422     5936    3                 GOTO RTN_STD0;
      423     5937    3               CASE(%BITBIN(RTN_MPC_READ),%BITBIN(RTN_MPC_WRITE));
      424     5938    3                 NI$REQ.MPCSEEK.MEMADDR = N$REQ.DLA.MPC.MEMADDR;
      425     5939    3                 NI$REQ.MPCSEEK.COUNT = (N$REQ.BUFSIZE + 1)/2;
      426     5940    3                 GOTO RTN_DP_SEEK;
      427     5941    3               CASE(%BITBIN(RTN_AP_IO));
      428     5942                                           /* Do nothing.  DCW list is already built. */
      429     5943                                           /* AP NOT CURRENTLY SUPPORTED ON IMX       */
      430     5944    3               CASE(%BITBIN(RTN_DP_SEEK),%BITBIN(RTN_DP_WRZERO));
      431     5945    3                 NI$REQ.SEEK=BINBIT(N$REQ.DLA.DRELADDR*DVT.GRANSIZE,36);
      432     5946    3   RTN_DP_SEEK:  N$REQ.IOFLG.LPW23='0'B;   /* REAL DCW, REAL LPW */
      433     5947    4                 IF PSIA THEN DO;
      434     5948    4                    NI$REQ.IDCW(0)=(FUNC & %IDCWMASK) | %IDCWCONT;
      435     5949    4                    IF HW_IMX THEN
      436     5950    4                       NI$REQ.IDCW.DATA.BASE(0)=%IMX_IOS_BASE;
      437     5951    4                    DCWX=1;
PL6.E3A0      #001=NIO$QUE File=NIO$QUE.:E05TSI                                  WED 07/30/97 03:34 Page:13
      438     5952    4                    END;
      439     5953    4                 ELSE DO;
      440     5954    4                    NI$REQ.PCW=(FUNC & %IDCWMASK) | %CONCAT(IDCWCONT,'000000000600'O);
      441     5955    4                    END;
      442     5956    3                 NI$REQ.DCW(DCWX)=BINBIT(SEEK.WA*%BITBIN('1000000'O)+1,36);
      443     5957    3                 DCWX=DCWX+1;
      444     5958    3                 FUNC.DC=FUNC.DC2;
      445     5959    4                 IF RTN~=%BITBIN(RTN_DP_WRZERO) THEN DO;
      446     5960    5                    IF PTP~=0 AND NOT HW_IMX THEN DO; /* DATA: REAL->PAGED */
      447     5961    5                       PNTR$=ADDR(NI$REQ.DCW(DCWX+1));
      448     5962    5                       NI$REQ.DCW(DCWX)=BINBIT(PNTR.WA,18) | %TDCWM3A;
      449     5963    5                       DCWX=DCWX+1;
      450     5964    5                       END;
      451     5965    4                    GOTO RTN_STD;
      452     5966    4                    END;
      453     5967    4                 ELSE DO;
      454     5968    4                    NI$REQ.IDCW(DCWX)=(FUNC & %IDCWMASK) | %IDCWBITS;
      455     5969    4                    IF HW_IMX THEN
      456     5970    4                       NI$REQ.IDCW.DATA.BASE(DCWX)=%IMX_IOS_BASE;
      457     5971    4                    DCWX=DCWX+1;
      458     5972    5                    DO WHILE(BUFSIZE>%(%DCWTALLYMAX*4+4));
      459     5973    5                       NI$REQ.DCW(DCWX)=%IONTPDCW;
      460     5974    5                       DCWX=DCWX+1;
      461     5975    5                       BUFSIZE=BUFSIZE-%(%DCWTALLYMAX*4);
      462     5976    5                       IF DCWX=%DCWXMAX THEN CALL CHAINIOS ALTRET(NQPKTS);
      463     5977    5                       END;
      464     5978    5                    IF BUFSIZE>4 THEN DO;
      465     5979    5                       NI$REQ.DCW(DCWX)=%IONTPDCW | BINBIT(BUFSIZE/4-1,36);
      466     5980    5                       DCWX=DCWX+1;
      467     5981    5                       IF DCWX=%DCWXMAX THEN CALL CHAINIOS ALTRET(NQPKTS);
      468     5982    5                       END;
      469     5983    4                    PNTR$=ADDR(NI$REQ.DCW(%DCWXMAX));
      470     5984    4                    NI$REQ.DCW(DCWX)=BINBIT(PNTR.WA*%BITBIN('1000000'O)+1,36);
      471     5985    4                    END;
      472     5986    3               CASE(%BITBIN(RTN_STD));
      473     5987    3   RTN_STD0:     N$REQ.IOFLG.LPW23='1'B;
      474     5988    4   RTN_STD:      IF PSIA OR DCWX>0 THEN DO;
PL6.E3A0      #001=NIO$QUE File=NIO$QUE.:E05TSI                                  WED 07/30/97 03:34 Page:14
      475     5989    4                    NI$REQ.IDCW(DCWX)=(FUNC & %IDCWMASK) | %IDCWBITS;
      476     5990    4                    IF HW_IMX THEN
      477     5991    4                       NI$REQ.IDCW.DATA.BASE(DCWX)=BUF_BASE;
      478     5992    5                    ELSE IF PTP=0 AND NOT NOBUF THEN DO;
      479     5993    5                          NI$REQ.IDCW.EXTA(DCWX)=BUFREAL.EXTA;
      480     5994    5                          NI$REQ.IDCW.EC(DCWX)='1'B;
      481     5995    5                          END;
      482     5996    4                    DCWX=DCWX+1;
      483     5997    4                    END;
      484     5998    4                 ELSE DO;
      485     5999    4                    NI$REQ.PCW=(FUNC & %IDCWMASK) | %IDCWBITS;
      486     6000    5                    IF PTP=0 AND NOT NOBUF THEN DO;
      487     6001    5                       NI$REQ.PCW.AEX=BUFREAL.EXTA;
      488     6002    5                       END;
      489     6003    5                    ELSE DO;
      490     6004    5                       NI$REQ.PCW.FLAGS='600'O;
      491     6005    5                       END;
      492     6006    4                    END;
      493     6007    4                 IF NOT NOBUF THEN DO;
      494     6008    5                    IF PTP=0 THEN DO;
      495     6009    5                       N$REQ.IOFLG.LPW23='0'B;
      496     6010    5                       IF NOT HW_IMX THEN
      497     6011    5                          NI$REQ.PCW.FLAGS='0'B;
      498     6012    5                       END;
      499     6013    5                    ELSE DO;
      500     6014    5                       IF HW_IOP THEN
      501     6015    5                          NI$REQ.IOP_PTAW=BINBIT(PTP,27)|%IOP_PTA1_INIT; /* PHYSADDR */
      502     6016    5                       ELSE IF NOT HW_IMX THEN
      503     6017    5                             NI$REQ.PCW.PTP=PTP;
      504     6018    5                       N$REQ.LPWX.BASE=BUFVIRT.BASE;
      505     6019    5                       N$REQ.LPWX.BOUND=(BUFSIZE + BUFVIRT.BYT + 3) / 4;
      506     6020    5                       BUFVIRT.BASE=0;
      507     6021    5                       END;
      508     6022    4                    NI$REQ.DCW.ICP(DCWX)=BUFREAL.BYT;
      509     6023    4                    BUFOFFSET=BUFREAL.ADR;
      510     6024    4                    SIZE=(BUFSIZE + BUFREAL.BYT + 3) / 4;
      511     6025    5                    DO WHILE(SIZE>%DCWTALLYMAX);
PL6.E3A0      #001=NIO$QUE File=NIO$QUE.:E05TSI                                  WED 07/30/97 03:34 Page:15
      512     6026    5                       NI$REQ.DCW.FWA(DCWX)=BUFOFFSET;
      513     6027    5                       NI$REQ.DCW.TYPE(DCWX)=%DCW_IOTP;
      514     6028    5                       DCWX=DCWX+1;
      515     6029    5                       SIZE=SIZE-%DCWTALLYMAX;
      516     6030    5                       BUFOFFSET=BUFOFFSET+%DCWTALLYMAX;
      517     6031    5                       IF DCWX=%DCWXMAX THEN CALL CHAINIOS ALTRET(NQPKTS);
      518     6032    5                       END;
      519     6033    4                    NI$REQ.DCW.FWA(DCWX)=BUFOFFSET;
      520     6034    4                    NI$REQ.DCW.TALLY(DCWX)=SIZE;
      521     6035    4                    NI$REQ.DCW.TYPE(DCWX)=%DCW_IOTD;
      522     6036    4                    END;
      523     6037    3               CASE(%BITBIN(RTN_MSOS_DUAL)); /* HW_IOP */
      524     6038    3                 PNTR$=N$REQ.BUF$; /* BUF$-> an IOS packet being used as a buffer */
      525     6039    3                 NI$REQ.IDCW(0)=(FUNC & %IDCWMASK) | %IDCWCONT;
      526     6040    3                 NI$REQ.DCW.FWA(1)=PNTR.WA+2;
      527     6041    3                 NI$REQ.DCW.TYPE(1)=%DCW_IOTD;
      528     6042    3                 NI$REQ.DCW.TALLY(1)=4;
      529     6043    3                 NI$REQ.IDCW(2)=(FUNC & %IDCWMASK) | %IDCWBITS;
      530     6044    3                 NI$REQ.IDCW.DC(2)=FUNC.DC2;
      531     6045    3                 NI$REQ.DCW.FWA(3)=PNTR.WA+6;
      532     6046    3                 NI$REQ.DCW.TYPE(3)=%DCW_IOTD;
      533     6047    3                 NI$REQ.DCW.TALLY(3)=4;
      534     6048    3               CASE(%BITBIN(RTN_MCA_DUAL)); /* HW_IMX */
      535     6049    3                 N$REQ.LPWX.BASE=BUFVIRT.BASE;
      536     6050    3                 N$REQ.LPWX.BOUND=4096;
      537     6051    3                 BUFVIRT.BASE=0;
      538     6052    3                 NI$REQ.IDCW(0)=(FUNC & %IDCWMASK) | %IDCWCONT;
      539     6053    3                 NI$REQ.IDCW.DATA.BASE(0)=BUF_BASE;
      540     6054    3                 NI$REQ.DCW.FWA(1)=BUFREAL.ADR;
      541     6055    3                 NI$REQ.DCW.TALLY(1)=(BUFSIZE+BUFREAL.BYT+3) / 4;
      542     6056    3                 NI$REQ.DCW.TYPE(1)=%DCW_IOTD;
      543     6057    3                 NI$REQ.IDCW(2)=(FUNC & %IDCWMASK) | %IDCWBITS;
      544     6058    3                 NI$REQ.IDCW.DC(2)=FUNC.DC2;
      545     6059    3                 NI$REQ.IDCW.DATA.BASE(2)=BUF_BASE;
      546     6060    3                 NI$REQ.DCW.FWA(3)=BUFREAL.ADR;
      547     6061    3                 NI$REQ.DCW.TYPE(3)=%DCW_IOTD;
      548     6062                                                /* DCW.TALLY(3) is 4096 */
PL6.E3A0      #001=NIO$QUE File=NIO$QUE.:E05TSI                                  WED 07/30/97 03:34 Page:16
      549     6063    3               END;                        /* CASE RTN */
      550     6064    3              IF HW_IMX THEN DO;           /* PREPARE IMX MAILBOX */
      551     6065    4                 IF PTP~=0 THEN DO;
      552     6066    4                    NI$IMXMBX.PAGED_BASE(%IMX_IOS_BASE)=BINBIT(NI_IMXLO_PBASE,36);
      553     6067    4                    NI$IMXMBX.SIZE(%IMX_IOS_BASE)=(%IMXHI-%IMXLO+1)*1024 - 1;
      554     6068    4                    NI$IMXMBX.PAGED_BASE.PTWADDR(BUF_BASE)=PTP;
      555     6069    4                    NI$IMXMBX.PAGED_BASE.OFFSET(BUF_BASE)=N$REQ.LPWX.BASE*2;
      556     6070    4                    NI$IMXMBX.SIZE(BUF_BASE)=N$REQ.LPWX.BOUND-1;
      557     6071    4                    END;
      558     6072    4                 ELSE DO;
      559     6073    4                    NI$IMXMBX.NPAGED_IND.PHYS(%IMX_IOS_BASE)=B$MPT$->B$MAP.RPN(%IMXLO)*
              6073                             1024;
      560     6074    4                    NI$IMXMBX.SIZE(%IMX_IOS_BASE)=(%IMXHI-%IMXLO+1)*1024 - 1;
      561     6075    4                    NI$IMXMBX.NPAGED_IND.PHYS(BUF_BASE)=BUFREAL.EXTA*%BITBIN('1000000'O
              6075                             );
      562     6076    4                    NI$IMXMBX.SIZE(BUF_BASE)=(BUFSIZE+BUFREALB.BYTADR+3)/4 - 1;
      563     6077    4                    END;
      564     6078    3                 PNTR$=ADDR(N$REQ.IOS$->NI$REQ.DCW(0));
      565     6079    3                 NI$IMXMBX.LPW.DCW_ADDR=PNTR.WA;
      566     6080    3                 END;
      567     6081    2              IF QUE=%QUE_DCWBLD THEN RETURN;
      568     6082    2              SCHED=DVT.SCHED;
      569     6083    2              CALL SCHED(N$REQ);
      570     6084
      571     6085    2            CASE(NK_QTRM);
      572     6086    2              N$REQ.COMP=%COMP_COM;
      573     6087                   %ENQUEUE(P#=N$REQ,Q#=DCT.SQ$);
      574     6090    2              CALL SC_NIONRD;
      575     6091        /*S* SCREECH_CODE: NIO-S$NRD-7
      576     6092             TYPE: SCREECH
      577     6093             MESSAGE: I/O TO REMOTE DEVICES IS NOT IMPLEMENTED
      578     6094        */
      579     6095
      580     6096    2            CASE(NK_CGDCB);
      581     6097    2              N$REQ.IOQFLG.IOQUED = '0'B ;
      582     6098    2              N$REQ.COMP=%COMP_COM;
      583     6099    3              DO CASE (N$REQ.FC);
PL6.E3A0      #001=NIO$QUE File=NIO$QUE.:E05TSI                                  WED 07/30/97 03:34 Page:17
      584     6100    3               CASE (%N_WRITE,%N_WRASC,%N_WRBIN);
      585     6101    3                 CALL KQW$WRITE (N$REQ);
      586     6102    3               CASE (ELSE);
      587     6103    3                 CALL KQR$READ (N$REQ);
      588     6104    3               END;
      589     6105    2              RETURN;
      590     6106
      591     6107    2            CASE(ELSE);
      592     6108    2              CALL SC_NIONRD;
      593     6109    2            END /* CASE DCT.RESCOD */;
      594     6110
      595     6111    1           IF N$REQ.OPFLG.WAIT AND N$REQ.OPFLG.USER AND QUE=%QUE_STD THEN
      596     6112    1              IF N$REQ.DCB$ ~= ADDR(NIL) THEN
      597     6113    1                 CALL SSR$REG(%SS_IIP,N$REQ.DCB$->F$DCB.FCN(N$REQ.NWIO));
      598     6114    1              ELSE
      599     6115    1                 CALL SSR$REG(%SS_IIP);
      600     6116    1           RETURN;
      601     6117        /**/
      602     6118        /* BACK OUT AND ALTRETURN IF NO IOS PACKETS AVAILABLE */
      603     6119        /**/
      604     6120    1   NQPKTS:
      605     6121    1           N$REQ.IOQFLG.IOQUED = '0'B ;
      606     6122    2           IF N$REQ.IOFLG.IOS THEN DO;
      607     6123    2              CALL NIQ$RELS(N$REQ.IOS$);
      608     6124    2              N$REQ.IOS$=ADDR(NIL);
      609     6125    2              N$REQ.IOFLG.IOS='0'B;
      610     6126    2              END;
      611     6127    1           IF NOT N$REQ.NOALT THEN ALTRETURN;
      612     6128                %LOCK(G#=NI$RP.GATE);
      613     6131                %ENQUEUE(P#=N$REQ,Q#=NI$RP.RQ$);
      614     6134                %UNLOCK(G#=NI$RP.GATE);
      615     6137    1           RETURN;
      616     6138        %EJECT;
PL6.E3A0      #001=NIO$QUE File=NIO$QUE.:E05TSI                                  WED 07/30/97 03:34 Page:18
      617     6139    1   CHAINIOS: PROC ALTRET;
      618     6140    2   DCL TDCW$ PTR;
      619     6141    2   DCL TDCW REDEF TDCW$ BIT(36);
      620     6142    3           IF NI$REQ.FL$=ADDR(NIL) THEN DO;
      621     6143    3              CALL NIQ$GETS(NI$REQ.FL$) ALTRET(ALT);
      622     6144    3              END;
      623     6145    3           ELSE DO;
      624     6146    3              TDCW$=NI$REQ.FL$->NI$REQ.FL$;
      625     6147    3              NI$REQ.FL$->NI$REQ=NI$REQ_INIT;
      626     6148    3              NI$REQ.FL$->NI$REQ.FL$=TDCW$;
      627     6149    3              END;
      628     6150    2           TDCW$=ADDR(NI$REQ.FL$->NI$REQ.DCW(0));
      629     6151    2           NI$REQ.DCW(DCWX)=(TDCW & %TDCWMASK) | %TDCWM1;
      630     6152    2           IF HW_IMX THEN
      631     6153    2              NI$REQ.DCW.T.DCWLIST.BASE(DCWX)=%IMX_IOS_BASE;
      632     6154    2           DCWX=0;
      633     6155    2           IOS$=NI$REQ.FL$;
      634     6156    2           RETURN;
      635     6157    2   ALT:    ALTRETURN;
      636     6158    2   END CHAINIOS;
      637     6159        /**/
      638     6160    1   END NIO$QUE;
      639     6161        %EOD;

PL6.E3A0      #001=NIO$QUE File=NIO$QUE.:E05TSI                                  WED 07/30/97 03:34 Page:19
--  Include file information  --

   SS_SCHED_C.:E05TOU  is referenced.
   N_FC_C.:E05TOU  is referenced.
   NK_SUBS.:E05TOU  is referenced.
   NI_MACROS_C.:E05TOU  cannot be made into a system file and is referenced.
   NI_DEVCMD_C.:E05TOU  is referenced.
   NI$TABLES.:E05TOU  is referenced.
   N$REQ.:E05TOU  is referenced.
   NI_DATA_R.:E05TOU  cannot be made into a system file and is referenced.
   NI_DATA_C.:E05TOU  is referenced.
   M_INFO_C.:E05TOU  is referenced.
   HF_LOCK_C.:E05TOU  cannot be made into a system file and is referenced.
   HF_DATA_R.:E05TOU  cannot be made into a system file and is referenced.
   F$DCB.:E05TOU  cannot be made into a system file and is referenced.
   CP_6_SUBS.:E05TOU  is referenced.
   B_SEGIDS_C.:E05TOU  is referenced.
   B_MLSMAC_C.:E05TOU  is referenced.
   B$USER.:E05TOU  cannot be made into a system file and is referenced.
   B$MAP.:E05TOU  cannot be made into a system file and is referenced.
   B$JIT_C.:E05TOU  is referenced.
   B$JIT.:E05TOU  cannot be made into a system file and is referenced.
      No diagnostics issued in procedure NIO$QUE.

   Procedure NIO$QUE requires 1262 words for executable code.
   Procedure NIO$QUE requires 36 words of local(AUTO) storage.

PL6.E3A0      #001=NIO$QUE File=NIO$QUE.:E05TSI                                  WED 07/30/97 03:34 Page:20

 Object Unit name= NIO$QUE                                    File name= NIO$QUE.:E05TOU
 UTS= JUL 30 '97 03:34:21.04 WED                              Compiler= PL-6/E31         Sev=      00
 SharedLib= :SHARED_SYSTEM                                    Alt SharedLib=


    ****  Control sections  ****

 Sect   Type Bound  Init  Size OctSiz  Section name(segment info)
    0  RoData even  UTS     15     17  NIO$QUE
    1   Proc  even  none  1262   2356  NIO$QUE
    2  RoData even  none    20     24  NIO$QUE

    ****  Entry defs  ****

                              Check   Calling
                             calling  sequence
  Sect OctLoc Primary Altret sequence   type   Parms  Name
     1      0   yes    yes     yes      Std        1  NIO$QUE
     1      4          yes     yes      Std        1  NIO$REQUE
     1     11          yes     yes      Std        1  NIO$DCWBLD
PL6.E3A0      #001=NIO$QUE File=NIO$QUE.:E05TSI                                  WED 07/30/97 03:34 Page:21

  ****  Entry refs  ****

         Check        Calling
        calling       sequence
Altret sequence SRef   type   Args  Name
 yes     yes           Std       3 SSR$REG
         yes           Std       1 HFC$UNLOCK
 yes     yes           Std       1 NIU$CRPEXTST
 yes     yes           Std       1 NIQ$RELS
 yes     yes           Std       1 KQR$READ
         yes           Std       3 NIM$CVTPTR
         yes           Std       2 NIO$COMP
 yes     yes           Std       2 NIU$SYMBLOCK
         yes           Std       1 HFC$LOCK
 yes     yes           Std       1 NIQ$GETS
 yes     yes           Std       1 KQW$WRITE
         yes           Std       2 NIM$ENQUEUE
                       nStd      0 X66_AUTO_1
                       Std       0 B_CONSPOOL_D
                       nStd      0 X66_ARET
                       nStd      0 X66_AALT

  ****  Data refs  ****

  Flags:  r = read only, s = secondary
Flgs Name                             Flgs Name                             Flgs Name
     SC_NIOBADIOQ                          SC_NIOINVDLA                          SC_NIOBADFC
     SC_NIONRD                             HW_IOP                                HW_IMX
     N$DCT$$                               N$FQ$                                 NI$FQ$
     NI$IBUF$                         r    NI$IMXMBX_INIT                   r    NI$REQ_INIT
     NI$RP$                                NI_IMXLO_PBASE                        NI_MFGATE
     B$JIT$                           r    B$LS$                                 B$MPT$
     S$CU$                            r    B$WSQ0PT$                             F_DCBLOCK
     NK_MXTOTAL                            S_CUN                                 SL_IOTA
     SL_MF                                 B_VECTNIL
PL6.E3A0      #001=NIO$QUE File=NIO$QUE.:E05TSI                                  WED 07/30/97 03:34 Page:22

  ****  Segment refs  ****

  Flags:  r = read only, s = secondary
Flgs Name                             Flgs Name                             Flgs Name
     ASLENTSID                             ISSID
PL6.E3A0      #001=NIO$QUE File=NIO$QUE.:E05TSI                                  WED 07/30/97 03:34 Page:23


        1        1        /*M* NIO$QUE - I/O system interface module */
        2        2        /*T***********************************************************/
        3        3        /*T*                                                         */
        4        4        /*T* Copyright (c) Bull HN Information Systems Inc., 1997    */
        5        5        /*T*                                                         */
        6        6        /*T***********************************************************/
        7        7        /*X* DMR */
        8        8        NIO$QUE: PROC(N$REQ) ALTRET;

      8  1 000000   000000 700200 xent  NIO$QUE      TSX0  ! X66_AUTO_1
         1 000001   000044 000001                    ZERO    36,1

        9        9        /*
       10       10                Includes
       11       11        */
       12       12        %INCLUDE                B$JIT ;
       13      615        %INCLUDE                B$MAP ;
       14      714        %INCLUDE                B$USER ;
       15      930        %INCLUDE                B_MLSMAC_C ;
       16     1872        %INCLUDE                B_SEGIDS_C ;
       17     2411        %INCLUDE                CP_6_SUBS ;
       18     2951        %INCLUDE                F$DCB ;
       19     3000        %INCLUDE                HF_DATA_R ;
       20     3043        %INCLUDE                HF_LOCK_C ;
       21     3057        %INCLUDE                M_INFO_C ;
       22     3197        %INCLUDE                NI_DATA_C ;
       23     3310        %INCLUDE                NI_DATA_R ;
       24     3747        %INCLUDE                NI_DEVCMD_C ;
       25     3930        %INCLUDE                NI_MACROS_C ;
       26     4197        %INCLUDE                NK_SUBS ;
       27     4222        %INCLUDE                N_FC_C ;
       28     4259        %INCLUDE                SS_SCHED_C ;
       29     4492        /*
       30     4493                Parameters
       31     4494        */
       32     4495        %N$REQ                  ( NAME=N$REQ, STCLASS=PARAM ) ;
PL6.E3A0      #001=NIO$QUE File=NIO$QUE.:E05TSI                                  WED 07/30/97 03:34 Page:24
       33     4553        /*
       34     4554                Entries
       35     4555        */
       36     4556    1   DCL 1 KQR$READ          ENTRY(1) ALTRET ;
       37     4557    1   DCL 1 KQW$WRITE         ENTRY(1) ALTRET ;
       38     4558    1   DCL 1 NIM$CVTPTR        ENTRY(3) ;
       39     4559    1   DCL 1 NIO$COMP          ENTRY(2) ;
       40     4560    1   DCL 1 NIQ$GETS          ENTRY(1) ALTRET ;
       41     4561    1   DCL 1 NIQ$RELS          ENTRY(1) ALTRET ;
       42     4562    1   DCL 1 NIU$CRPEXTST      ENTRY(1) ALTRET ;
       43     4563    1   DCL 1 NIU$SYMBLOCK      ENTRY(2) ALTRET ;
       44     4564    1   DCL 1 SC_NIOBADFC       ENTRY CONV(2,0) ;
       45     4565    1   DCL 1 SC_NIOBADIOQ      ENTRY CONV(2,0) ;
       46     4566    1   DCL 1 SC_NIOINVDLA      ENTRY CONV(2,0) ;
       47     4567    1   DCL 1 SC_NIONRD         ENTRY CONV(2,0) ;
       48     4568    1   DCL 1 SSR$REG           ENTRY(3) ALTRET ;
       49     4569        /*
       50     4570                Symrefs
       51     4571        */
       52     4572    1   DCL 1 B$JIT$            PTR SYMREF ;
       53     4573    1   DCL 1 B$LS$             PTR SYMREF READONLY ;
       54     4574    1   DCL 1 B$MPT$            PTR SYMREF ;
       55     4575        %B$USERREFS ;
       56     4579    1   DCL 1 B$WSQ0PT$         PTR SYMREF READONLY ;
       57     4580    1   DCL 1 F_DCBLOCK         BIT(72) SYMREF ;
       58     4581    1   DCL 1 NK_MXTOTAL        UBIN(36) SYMREF ;
       59     4582    1   DCL 1 S_CUN             SBIN SYMREF;
       60     4583    1   DCL 1 SL_IOTA(0:4)      SBIN SYMREF ;   /* QUANTUM PENALTY FOR I/O            */
       61     4584    1   DCL 1 SL_MF(0:4)        SBIN SYMREF ;   /* MASTER FUNCTION LIMIT BY CLASS     */
       62     4585        /*
       63     4586                Auto
       64     4587        */
       65     4588    1   DCL 1 BUFADDR           SBIN ALIGNED AUTO ;
       66     4589    1   DCL 1 BUFREAL           REDEF BUFADDR,
       67     4590    1         2 EXTA            UBIN(16) UNAL,
       68     4591    1         2 ADR             UBIN(18) UNAL,
       69     4592    1         2 BYT             UBIN(2) UNAL;
PL6.E3A0      #001=NIO$QUE File=NIO$QUE.:E05TSI                                  WED 07/30/97 03:34 Page:25
       70     4593    1   DCL 1 BUFREALB          REDEF BUFADDR,
       71     4594    1         2 EXTA            UBIN(16) UNAL,
       72     4595    1         2 BYTADR          UBIN(20) UNAL;
       73     4596    1   DCL 1 BUFVIRT           REDEF BUFADDR,
       74     4597    1         2 BASE            UBIN(33) UNAL,
       75     4598    1         2 BYT             UBIN(3) UNAL;
       76     4599    1   DCL 1 BUFOFFSET         UBIN ALIGNED AUTO ;
       77     4600    1   DCL 1 BUFSIZE           SBIN ALIGNED AUTO ;
       78     4601    1   DCL 1 BUF_BASE          SBIN ALIGNED AUTO ;
       79     4602    1   DCL 1 CONT              BIT(1) ALIGNED AUTO ;
       80     4603    1   DCL 1 CSIZE             SBIN ALIGNED AUTO ;
       81     4604    1   DCL 1 DCB$              PTR ALIGNED AUTO ;
       82     4605    1   DCL 1 DCT$              PTR ALIGNED AUTO ;
       83     4606    1   DCL 1 DCWX              SBIN ALIGNED AUTO ;
       84     4607    1   DCL 1 DVT$              PTR ALIGNED AUTO ;
       85     4608    1   DCL 1 FUNC              ALIGNED AUTO,
       86     4609    1         2 DC              UBIN(6) UNAL,
       87     4610    1         2 RTN             UBIN(6) UNAL,
       88     4611    1         2 DVN             REDEF RTN
       89     4612    1                           UBIN(6) UNAL,
       90     4613    1         2 DC2             UBIN(6) UNAL,
       91     4614    1         2 TIMO            UBIN(6) UNAL,
       92     4615    1         2 CC              UBIN(6) UNAL,
       93     4616    1         2 CCB             REDEF CC
       94     4617    1                           BIT(6) UNAL,
       95     4618    1         2 RCNT            UBIN(6) UNAL;
       96     4619    1   DCL 1 IOS$              PTR ALIGNED AUTO ;
       97     4620    1   DCL 1 MBX$              PTR ALIGNED AUTO ;
       98     4621    1   DCL 1 NOBUF             BIT(1) ALIGNED AUTO ;
       99     4622    1   DCL 1 PNTR$             PTR ALIGNED AUTO ;
      100     4623    1   DCL 1 PNTR              REDEF PNTR$,
      101     4624    1         2 WA              UBIN(18) HALIGNED,
      102     4625    1         2 *               UBIN(18) HALIGNED ;
      103     4626    1   DCL 1 PSIA              BIT(1) ALIGNED AUTO ;
      104     4627    1   DCL 1 PTP               SBIN ALIGNED AUTO ;
      105     4628    1   DCL 1 QUE               SBIN ALIGNED AUTO ;
      106     4629    1   DCL 1 RCTTEMP           SBIN ALIGNED AUTO ;
PL6.E3A0      #001=NIO$QUE File=NIO$QUE.:E05TSI                                  WED 07/30/97 03:34 Page:26
      107     4630    1   DCL 1 RTN               UBIN ALIGNED AUTO ;
      108     4631    1   DCL 1 SCHED             EPTR ALIGNED AUTO ;
      109     4632    1   DCL 1 SEEK$             PTR ALIGNED AUTO ;
      110     4633    1   DCL 1 SEEK              REDEF SEEK$,
      111     4634    1         2 WA              UBIN(18) HALIGNED,
      112     4635    1         2 *               UBIN(18) HALIGNED ;
      113     4636    1   DCL 1 SIZE              UBIN ALIGNED AUTO ;
      114     4637    1   DCL 1 SQH$              PTR ALIGNED AUTO ;
      115     4638    1   DCL 1 X                 SBIN ALIGNED AUTO ;
      116     4639        /*
      117     4640                Based
      118     4641        */
      119     4642        %B_MLS                  ( FPTN=B$MLNK,    STCLASS=BASED ) ;
      120     5457    1   DCL 1 CHARBASE          CHAR(CSIZE) BASED ;
      121     5458    1   DCL 1 CHAR3             CHAR(3) BASED UNAL ;
      122     5459        %NI$DCT                 ( NAME=DCT,       STCLASS="BASED(DCT$)" ) ;
      123     5507        %DCW                    ( NAME=DCW,       STCLASS=BASED ) ;
      124     5537        %NI$DVT                 ( NAME=DVT,       STCLASS="BASED(DVT$)" ) ;
      125     5544        %IDCW                   ( NAME=IDCW,      STCLASS=BASED ) ;
      126     5576        %NI$IMXMBX              ( NAME=NI$IMXMBX, STCLASS="BASED(MBX$)" ) ;
      127     5597        %NI$REQ                 ( NAME=NI$REQ,    STCLASS="BASED(IOS$)" ) ;
      128     5622    1   DCL 1 ONECHAR(0:0)      CHAR(1) BASED ;
      129     5623    1   DCL 1 POINTER           BASED ALIGNED,
      130     5624    1         2 W               UBIN(18) UNAL,
      131     5625    1         2 C               UBIN(2) UNAL,
      132     5626    1         2 B               UBIN(4) UNAL,
      133     5627    1         2 SEGID           UBIN(12) UNAL ;
      134     5628        %NI$SQH                 ( NAME=SQH, STCLASS="BASED(SQH$)" ) ;
      135     5641    1   DCL 1 VFC               BASED ALIGNED,
      136     5642    1         2 VFCCHAR         CHAR(1),
      137     5643    1         2 BUFCHARS        CHAR(3) ;
      138     5644        /*
      139     5645                Constant
      140     5646        */
      141     5647        %SUB B$U="S$CU$->B$U";
      142     5648        %EJECT;
PL6.E3A0      #001=NIO$QUE File=NIO$QUE.:E05TSI                                  WED 07/30/97 03:34 Page:27
      143     5649    1           QUE=%QUE_STD;

   5649  1 000002   200025 450100                    STZ     QUE,,AUTO

      144     5650    1           GOTO QUECMN;

   5650  1 000003   000020 710000 1                  TRA     QUECMN

      145     5651
      146     5652
      147     5653
      148     5654    1   NIO$REQUE: ENTRY(N$REQ) ALTRET;

   5654  1 000004   000000 700200 xent  NIO$REQUE    TSX0  ! X66_AUTO_1
         1 000005   000044 000001                    ZERO    36,1

      149     5655    1           QUE=%QUE_QUE_AGAIN;

   5655  1 000006   000002 235007                    LDA     2,DL
         1 000007   200025 755100                    STA     QUE,,AUTO

      150     5656    1           GOTO QUECMN;

   5656  1 000010   000020 710000 1                  TRA     QUECMN

      151     5657
      152     5658
      153     5659
      154     5660    1   NIO$DCWBLD: ENTRY(N$REQ) ALTRET;

   5660  1 000011   000000 700200 xent  NIO$DCWBLD   TSX0  ! X66_AUTO_1
         1 000012   000044 000001                    ZERO    36,1

      155     5661    1           QUE=%QUE_DCWBLD;

   5661  1 000013   000001 235007                    LDA     1,DL
         1 000014   200025 755100                    STA     QUE,,AUTO
PL6.E3A0      #001=NIO$QUE File=NIO$QUE.:E05TSI                                  WED 07/30/97 03:34 Page:28

      156     5662    1           N$REQ.IOQFLG.IOQUED = '0'B ;

   5662  1 000015   200003 470500                    LDP0    @N$REQ,,AUTO
         1 000016   000000 236000 2                  LDQ     0
         1 000017   000033 356100                    ANSQ    27,,PR0

   5662  1 000020                       QUECMN       null
      157     5663
      158     5664
      159     5665
      160     5666    1   QUECMN: ;
      161     5667    1           IF  NOT N$REQ.IOQFLG.INUSE

   5667  1 000020   200003 470500                    LDP0    @N$REQ,,AUTO
         1 000021   000033 234100                    SZN     27,,PR0
         1 000022   000026 605000 1                  TPL     s:5681
         1 000023   000033 236100                    LDQ     27,,PR0
         1 000024   200000 316003                    CANQ    65536,DU
         1 000025   000030 600000 1                  TZE     s:5683

      162     5668    1             OR N$REQ.IOQFLG.IOQUED
      163     5669    1           THEN
      164     5670        /*S* SCREECH_CODE:  NIO-S$BADIOQ-7
      165     5671             TYPE:          SCREECH
      166     5672             MESSAGE:       Incorrect IOQ processing within IO system.
      167     5673             DESCRIPTION:   The IO system detected an incorrect processing
      168     5674                            sequence on an IOQ packet.  To be scheduled
      169     5675                            for an IO, an IOQ packet must be in use and
      170     5676                            must not have been previously scheduled for
      171     5677                            an IO.  To have an IO completed, an IOQ packet
      172     5678                            must be in use and must have been previously
      173     5679                            been scheduled for an IO.
      174     5680        */
      175     5681    1              CALL SC_NIOBADIOQ ;

   5681  1 000026   000000 713400 xsym               CLIMB   SC_NIOBADIOQ
PL6.E3A0      #001=NIO$QUE File=NIO$QUE.:E05TSI                                  WED 07/30/97 03:34 Page:29
         1 000027   000000 600000 xsid               climb   nvectors=         0

      176     5682
      177     5683    1           N$REQ.IOQFLG.IOQUED = '1'B ;

   5683  1 000030   200003 470500                    LDP0    @N$REQ,,AUTO
         1 000031   200000 236003                    LDQ     65536,DU
         1 000032   000033 256100                    ORSQ    27,,PR0

      178     5684    1           IF ADDR(N$REQ.DCB$)->POINTER.SEGID=BITBIN(%ROSID) THEN

   5684  1 000033   000022 236100                    LDQ     18,,PR0
         1 000034   007777 376007                    ANQ     4095,DL
         1 000035   006003 116007                    CMPQ    3075,DL
         1 000036   000041 601000 1                  TNZ     s:5686

      179     5685    1              ADDR(N$REQ.DCB$)->POINTER.SEGID=BITBIN(%RONCSID);

   5685  1 000037   006124 236007                    LDQ     3156,DL
         1 000040   000022 752103                    STCQ    18,'03'O,PR0

      180     5686    1           DCB$=N$REQ.DCB$;

   5686  1 000041   000022 236100                    LDQ     18,,PR0
         1 000042   200012 756100                    STQ     DCB$,,AUTO

      181     5687    1           IF N$REQ.DLA.DCTX>NK_MXTOTAL OR N$REQ.DLA.DCTX=0 THEN

   5687  1 000043   000001 236100                    LDQ     1,,PR0
         1 000044   000025 772000                    QRL     21
         1 000045   000000 116000 xsym               CMPQ    NK_MXTOTAL
         1 000046   000050 600000 1                  TZE     s:5687+5
         1 000047   000053 603000 1                  TRC     s:5688
         1 000050   000001 236100                    LDQ     1,,PR0
         1 000051   777770 316003                    CANQ    -8,DU
         1 000052   000055 601000 1                  TNZ     s:5693

PL6.E3A0      #001=NIO$QUE File=NIO$QUE.:E05TSI                                  WED 07/30/97 03:34 Page:30
      182     5688    1              CALL SC_NIOINVDLA;

   5688  1 000053   000000 713400 xsym               CLIMB   SC_NIOINVDLA
         1 000054   000000 600000 xsid               climb   nvectors=         0

      183     5689        /*S* SCREECH_CODE: NIO-S$INVDLA-7
      184     5690             TYPE: SCREECH
      185     5691             MESSAGE: BAD DCT INDEX
      186     5692        */
      187     5693    1           DCT$=N$DCT$(N$REQ.DLA.DCTX);

   5693  1 000055   200003 470500                    LDP0    @N$REQ,,AUTO
         1 000056   000001 236100                    LDQ     1,,PR0
         1 000057   000025 772000                    QRL     21
         1 000060   000000 471400 xsym               LDP1    N$DCT$$
         1 000061   100000 236106                    LDQ     0,QL,PR1
         1 000062   200013 756100                    STQ     DCT$,,AUTO

      188     5694    1           N$REQ.DCT$=DCT$;

   5694  1 000063   000002 756100                    STQ     2,,PR0

      189     5695                                                /* BUF_BASE IS USED ONLY FOR THE IMX */
      190     5696    1           IF DCT.DFLG.RELOAD THEN

   5696  1 000064   200013 473500                    LDP3    DCT$,,AUTO
         1 000065   300006 236100                    LDQ     6,,PR3
         1 000066   004000 316007                    CANQ    2048,DL
         1 000067   000072 600000 1                  TZE     s:5699

      191     5697    1              BUF_BASE=%IMX_FWBUF_BASE;

   5697  1 000070   200007 450100                    STZ     BUF_BASE,,AUTO
         1 000071   000074 710000 1                  TRA     s:5700

      192     5698    1           ELSE
      193     5699    1              BUF_BASE=%IMX_BUF_BASE;
PL6.E3A0      #001=NIO$QUE File=NIO$QUE.:E05TSI                                  WED 07/30/97 03:34 Page:31

   5699  1 000072   000003 235007                    LDA     3,DL
         1 000073   200007 755100                    STA     BUF_BASE,,AUTO

      194     5700    2           IF DCT.RESCOD=NK_NCOM THEN DO;

   5700  1 000074   000017 316007                    CANQ    15,DL
         1 000075   000177 601000 1                  TNZ     s:5725

      195     5701    3              IF N$REQ.OPFLG.BPF THEN DO;

   5701  1 000076   000004 236100                    LDQ     4,,PR0
         1 000077   000010 316007                    CANQ    8,DL
         1 000100   000124 600000 1                  TZE     s:5708

      196     5702    3                 CALL NIM$CVTPTR(N$REQ.BUF$,BUFADDR,PTP);

   5702  1 000101   200024 634500                    EPPR4   PTP,,AUTO
         1 000102   200042 454500                    STP4    TDCW$+3,,AUTO
         1 000103   200004 635500                    EPPR5   BUFADDR,,AUTO
         1 000104   200041 455500                    STP5    TDCW$+2,,AUTO
         1 000105   200003 236100                    LDQ     @N$REQ,,AUTO
         1 000106   000005 036003                    ADLQ    5,DU
         1 000107   200040 756100                    STQ     TDCW$+1,,AUTO
         1 000110   200040 630500                    EPPR0   TDCW$+1,,AUTO
         1 000111   000021 631400 xsym               EPPR1   B_VECTNIL+17
         1 000112   000000 701000 xent               TSX1    NIM$CVTPTR
         1 000113   000000 011000                    NOP     0

      197     5703    3                 N$REQ.OPFLG.BPF='0'B;

   5703  1 000114   200003 470500                    LDP0    @N$REQ,,AUTO
         1 000115   000001 236000 2                  LDQ     1
         1 000116   000004 356100                    ANSQ    4,,PR0

      198     5704    3                 N$REQ.BUFADDR=BUFADDR;

PL6.E3A0      #001=NIO$QUE File=NIO$QUE.:E05TSI                                  WED 07/30/97 03:34 Page:32
   5704  1 000117   200004 235100                    LDA     BUFADDR,,AUTO
         1 000120   000006 755100                    STA     6,,PR0

      199     5705    3                 N$REQ.PTP=PTP;

   5705  1 000121   200024 235100                    LDA     PTP,,AUTO
         1 000122   000007 755100                    STA     7,,PR0

      200     5706    3                 END;

   5706  1 000123   000171 710000 1                  TRA     s:5722

      201     5707    3              ELSE DO;

      202     5708    4                 IF HW_IOP AND N$REQ.PTP=0 AND N$REQ.BUFADDR~=0 THEN DO;

   5708  1 000124   000000 234000 xsym               SZN     HW_IOP
         1 000125   000165 605000 1                  TPL     s:5719
         1 000126   000007 235100                    LDA     7,,PR0
         1 000127   000165 601000 1                  TNZ     s:5719
         1 000130   000006 235100                    LDA     6,,PR0
         1 000131   000165 600000 1                  TZE     s:5719

      203     5709                       /* IOP CAN'T DO NON-PAGED IO ADDR>16MW, SO CONVERT TO PAGED */
      204     5710    4                    N$REQ.BUFREAL_SV=BINBIT(N$REQ.BUFADDR,36);

   5710  1 000132   000006 236100                    LDQ     6,,PR0
         1 000133   000032 756100                    STQ     26,,PR0

      205     5711    4                    N$REQ.PTP=B$LS$->B$MLNK.WSQ0PT.BASE/256 + /* HW_IOPTP_UNITS*4 */

   5711  1 000134   000000 474400 xsym               LDP4    B$LS$
         1 000135   400373 236100                    LDQ     251,,PR4
         1 000136   000010 772000                    QRL     8
         1 000137   200040 756100                    STQ     TDCW$+1,,AUTO
         1 000140   000032 236100                    LDQ     26,,PR0
         1 000141   000022 732000                    QRS     18
PL6.E3A0      #001=NIO$QUE File=NIO$QUE.:E05TSI                                  WED 07/30/97 03:34 Page:33
         1 000142   200041 756100                    STQ     TDCW$+2,,AUTO
         1 000143   200040 236100                    LDQ     TDCW$+1,,AUTO
         1 000144   200041 036100                    ADLQ    TDCW$+2,,AUTO
         1 000145   000007 756100                    STQ     7,,PR0

      206     5712    4                      N$REQ.BUFREAL_SV.DIV64PG;
      207     5713                       /* NOW RUN PTP THROUGH WSQ0PT TO FIND PHYSICAL ADDR OF PT WORD */
      208     5714    4                    N$REQ.PTP=B$WSQ0PT$->B$MAP.RPN(N$REQ.PTP/16)*16 +
              5714                             /* 1024/HW_IOPTP_UNITS */

   5714  1 000146   000020 506007                    DIV     16,DL
         1 000147   000007 236100                    LDQ     7,,PR0
         1 000150   200040 755100                    STA     TDCW$+1,,AUTO
         1 000151   000020 506007                    DIV     16,DL
         1 000152   000000 475400 xsym               LDP5    B$WSQ0PT$
         1 000153   500000 236106                    LDQ     0,QL,PR5
         1 000154   000016 772000                    QRL     14
         1 000155   000002 376000 2                  ANQ     2
         1 000156   200040 036100                    ADLQ    TDCW$+1,,AUTO
         1 000157   000007 756100                    STQ     7,,PR0

      209     5715    4                      MOD(N$REQ.PTP,16);
      210     5716    4                    N$REQ.BUFADDR=N$REQ.BUFREAL_SV.MOD64PG;

   5716  1 000160   000032 236100                    LDQ     26,,PR0
         1 000161   777777 376007                    ANQ     -1,DL
         1 000162   000006 756100                    STQ     6,,PR0

      211     5717    4                    N$REQ.IOP_BUFREAL_CVRT='1'B;

   5717  1 000163   040000 236007                    LDQ     16384,DL
         1 000164   000031 256100                    ORSQ    25,,PR0

      212     5718    4                    END;

      213     5719    3                 BUFADDR=N$REQ.BUFADDR;

PL6.E3A0      #001=NIO$QUE File=NIO$QUE.:E05TSI                                  WED 07/30/97 03:34 Page:34
   5719  1 000165   000006 235100                    LDA     6,,PR0
         1 000166   200004 755100                    STA     BUFADDR,,AUTO

      214     5720    3                 PTP=N$REQ.PTP;

   5720  1 000167   000007 235100                    LDA     7,,PR0
         1 000170   200024 755100                    STA     PTP,,AUTO

      215     5721    3                 END;

      216     5722    2              BUFSIZE=N$REQ.BUFSIZE;

   5722  1 000171   000004 236100                    LDQ     4,,PR0
         1 000172   000020 772000                    QRL     16
         1 000173   200006 756100                    STQ     BUFSIZE,,AUTO

      217     5723    2              DVT$=DCT.DVT$;

   5723  1 000174   200013 471500                    LDP1    DCT$,,AUTO
         1 000175   100024 236100                    LDQ     20,,PR1
         1 000176   200015 756100                    STQ     DVT$,,AUTO

      218     5724    2              END;

      219     5725    2           IF QUE=%QUE_STD THEN DO;

   5725  1 000177   200025 235100                    LDA     QUE,,AUTO
         1 000200   000331 601000 1                  TNZ     s:5756

      220     5726    2              N$REQ.TYC='0'B;

   5726  1 000201   000021 450100                    STZ     17,,PR0

      221     5727    2              N$REQ.ARCT=0;

   5727  1 000202   000000 220003                    LDX0    0,DU
         1 000203   000030 740100                    STX0    24,,PR0
PL6.E3A0      #001=NIO$QUE File=NIO$QUE.:E05TSI                                  WED 07/30/97 03:34 Page:35

      222     5728    2              N$REQ.ARSIZE=0;

   5728  1 000204   177777 236007                    LDQ     65535,DL
         1 000205   000027 356100                    ANSQ    23,,PR0

      223     5729    3              IF N$REQ.OPFLG.USER THEN DO INHIBIT;

   5729  1 000206   000004 236100                    LDQ     4,,PR0
         1 000207   000400 316007                    CANQ    256,DL
         1 000210   000331 600000 1                  TZE     s:5756

      224     5730    3                 N$REQ.USER# = S_CUN;

   5730  1 000211   000000 236200 xsym               LDQ   ! S_CUN
         1 000212   000027 552304                    STBQ  ! 23,'04'O,PR0

      225     5731    3                 B$JIT.CTIME=B$JIT.CTIME+SL_IOTA(B$JIT.MODE);

   5731  1 000213   000000 471600 xsym               LDP1  ! B$JIT$
         1 000214   100000 236300                    LDQ   ! 0,,PR1
         1 000215   000040 772200                    QRL   ! 32
         1 000216   000000 621206                    EAX1  ! 0,QL
         1 000217   100263 236300                    LDQ   ! 179,,PR1
         1 000220   000000 036211 xsym               ADLQ  ! SL_IOTA,X1
         1 000221   100263 756300                    STQ   ! 179,,PR1

      226     5732    3                 IF B$U.MF - B$U.CMF >= SL_MF(B$JIT.MODE) THEN

   5732  1 000222   000000 473600 xsym               LDP3  ! S$CU$
         1 000223   300007 236300                    LDQ   ! 7,,PR3
         1 000224   000077 376207                    ANQ   ! 63,DL
         1 000225   200040 756300                    STQ   ! TDCW$+1,,AUTO
         1 000226   300006 236300                    LDQ   ! 6,,PR3
         1 000227   000033 772200                    QRL   ! 27
         1 000230   200040 136300                    SBLQ  ! TDCW$+1,,AUTO
         1 000231   200041 756300                    STQ   ! TDCW$+2,,AUTO
PL6.E3A0      #001=NIO$QUE File=NIO$QUE.:E05TSI                                  WED 07/30/97 03:34 Page:36
         1 000232   100000 236300                    LDQ   ! 0,,PR1
         1 000233   000040 772200                    QRL   ! 32
         1 000234   000000 621206                    EAX1  ! 0,QL
         1 000235   200041 236300                    LDQ   ! TDCW$+2,,AUTO
         1 000236   000000 116211 xsym               CMPQ  ! SL_MF,X1
         1 000237   000244 604200 1                  TMI   ! s:5735

      227     5733    3                    CALL SSR$REG(%SS_QMF);

   5733  1 000240   000003 630600 2                  EPPR0 ! 3
         1 000241   000017 631600 xsym               EPPR1 ! B_VECTNIL+15
         1 000242   000000 701200 xent               TSX1  ! SSR$REG
         1 000243   000000 011200                    NOP   ! 0

      228     5734                      %LOCK (G#=NI_MFGATE);

   5735  1 000244   000004 630600 2                  EPPR0 ! 4
         1 000245   000017 631600 xsym               EPPR1 ! B_VECTNIL+15
         1 000246   000000 701200 xent               TSX1  ! HFC$LOCK
         1 000247   000000 011200                    NOP   ! 0

      229     5737    3                 B$U.MF=B$U.MF+1;

   5737  1 000250   000000 470600 xsym               LDP0  ! S$CU$
         1 000251   000006 236300                    LDQ   ! 6,,PR0
         1 000252   001000 036203                    ADLQ  ! 512,DU
         1 000253   000006 552340                    STBQ  ! 6,'40'O,PR0

      230     5738    3                 IF DCT.DFLG.CM THEN B$U.CMF=B$U.CMF+1;

   5738  1 000254   200013 471700                    LDP1  ! DCT$,,AUTO
         1 000255   100006 236300                    LDQ   ! 6,,PR1
         1 000256   100000 316207                    CANQ  ! 32768,DL
         1 000257   000263 600200 1                  TZE   ! s:5740

   5738  1 000260   000007 236300                    LDQ   ! 7,,PR0
         1 000261   000001 036207                    ADLQ  ! 1,DL
PL6.E3A0      #001=NIO$QUE File=NIO$QUE.:E05TSI                                  WED 07/30/97 03:34 Page:37
         1 000262   000007 752301                    STCQ  ! 7,'01'O,PR0

      231     5739                      %UNLOCK (G#=NI_MFGATE);

   5740  1 000263   000004 630600 2                  EPPR0 ! 4
         1 000264   000017 631600 xsym               EPPR1 ! B_VECTNIL+15
         1 000265   000000 701200 xent               TSX1  ! HFC$UNLOCK
         1 000266   000000 011200                    NOP   ! 0

      232     5742    4                 IF DCB$ ~= ADDR(NIL) THEN DO;

   5742  1 000267   200012 236300                    LDQ   ! DCB$,,AUTO
         1 000270   000001 116200 xsym               CMPQ  ! B_VECTNIL+1
         1 000271   000331 600200 1                  TZE   ! s:5756

      233     5743                         %LOCK (G#=F_DCBLOCK);

   5744  1 000272   000005 630600 2                  EPPR0 ! 5
         1 000273   000017 631600 xsym               EPPR1 ! B_VECTNIL+15
         1 000274   000000 701200 xent               TSX1  ! HFC$LOCK
         1 000275   000000 011200                    NOP   ! 0

      234     5746    4                    IF N$REQ.NWIO=0 THEN

   5746  1 000276   200003 470700                    LDP0  ! @N$REQ,,AUTO
         1 000277   000031 236300                    LDQ   ! 25,,PR0
         1 000300   400000 316207                    CANQ  ! -131072,DL
         1 000301   000314 601200 1                  TNZ   ! s:5749

      235     5747    4                       DCB$->F$DCB.FCN.CNT(0)=DCB$->F$DCB.FCN.CNT(0)+1;

   5747  1 000302   200012 471700                    LDP1  ! DCB$,,AUTO
         1 000303   100074 236300                    LDQ   ! 60,,PR1
         1 000304   000033 772200                    QRL   ! 27
         1 000305   000377 376207                    ANQ   ! 255,DL
         1 000306   000001 036207                    ADLQ  ! 1,DL
         1 000307   000033 736200                    QLS   ! 27
PL6.E3A0      #001=NIO$QUE File=NIO$QUE.:E05TSI                                  WED 07/30/97 03:34 Page:38
         1 000310   100074 676300                    ERQ   ! 60,,PR1
         1 000311   377000 376203                    ANQ   ! 130560,DU
         1 000312   100074 656300                    ERSQ  ! 60,,PR1
         1 000313   000325 710200 1                  TRA   ! s:5751

      236     5748    4                    ELSE
      237     5749    4                       DCB$->F$DCB.FCN.CNT(1)=DCB$->F$DCB.FCN.CNT(1)+1;

   5749  1 000314   200012 471700                    LDP1  ! DCB$,,AUTO
         1 000315   100074 236300                    LDQ   ! 60,,PR1
         1 000316   000022 772200                    QRL   ! 18
         1 000317   000377 376207                    ANQ   ! 255,DL
         1 000320   000001 036207                    ADLQ  ! 1,DL
         1 000321   000022 736200                    QLS   ! 18
         1 000322   100074 676300                    ERQ   ! 60,,PR1
         1 000323   000377 376203                    ANQ   ! 255,DU
         1 000324   100074 656300                    ERSQ  ! 60,,PR1

      238     5750                         %UNLOCK (G#=F_DCBLOCK);

   5751  1 000325   000005 630600 2                  EPPR0 ! 5
         1 000326   000017 631600 xsym               EPPR1 ! B_VECTNIL+15
         1 000327   000000 701200 xent               TSX1  ! HFC$UNLOCK
         1 000330   000000 011200                    NOP   ! 0

      239     5753    4                    END;

      240     5754    3                 END;

      241     5755    2              END;

      242     5756    2           DO CASE(DCT.RESCOD);

   5756  1 000331   200013 470500                    LDP0    DCT$,,AUTO
         1 000332   000006 720100                    LXL0    6,,PR0
         1 000333   000017 360003                    ANX0    15,DU
         1 000334   000005 100003                    CMPX0   5,DU
PL6.E3A0      #001=NIO$QUE File=NIO$QUE.:E05TSI                                  WED 07/30/97 03:34 Page:39
         1 000335   000337 602010 1                  TNC     s:5756+6,X0
         1 000336   002201 710000 1                  TRA     s:6108
         1 000337   000344 710000 1                  TRA     s:5758
         1 000340   002201 710000 1                  TRA     s:6108
         1 000341   002201 710000 1                  TRA     s:6108
         1 000342   002115 710000 1                  TRA     s:6086
         1 000343   002135 710000 1                  TRA     s:6097

      243     5757    2            CASE(NK_NCOM);

      244     5758    3              IF DCT.CTYP ~= %C_APC THEN DO;

   5758  1 000344   000007 236100                    LDQ     7,,PR0
         1 000345   070000 376003                    ANQ     28672,DU
         1 000346   030000 116003                    CMPQ    12288,DU
         1 000347   000416 600000 1                  TZE     s:5775

      245     5759    4                 IF NOT N$REQ.IOFLG.IOS THEN DO;

   5759  1 000350   200003 471500                    LDP1    @N$REQ,,AUTO
         1 000351   100004 236100                    LDQ     4,,PR1
         1 000352   040000 316007                    CANQ    16384,DL
         1 000353   000373 601000 1                  TNZ     s:5766

      246     5760    4                    CALL NIQ$GETS(N$REQ.IOS$) ALTRET(NQPKTS);

   5760  1 000354   200003 236100                    LDQ     @N$REQ,,AUTO
         1 000355   000012 036003                    ADLQ    10,DU
         1 000356   200040 756100                    STQ     TDCW$+1,,AUTO
         1 000357   200040 630500                    EPPR0   TDCW$+1,,AUTO
         1 000360   000017 631400 xsym               EPPR1   B_VECTNIL+15
         1 000361   000000 701000 xent               TSX1    NIQ$GETS
         1 000362   002240 702000 1                  TSX2    NQPKTS

      247     5761    4                    IOS$=N$REQ.IOS$;

   5761  1 000363   200003 470500                    LDP0    @N$REQ,,AUTO
PL6.E3A0      #001=NIO$QUE File=NIO$QUE.:E05TSI                                  WED 07/30/97 03:34 Page:40
         1 000364   000012 236100                    LDQ     10,,PR0
         1 000365   200017 756100                    STQ     IOS$,,AUTO

      248     5762    4                    MBX$=PINCRW(IOS$,%IMX_MBX_OFFSET);

   5762  1 000366   000010 036003                    ADLQ    8,DU
         1 000367   200020 756100                    STQ     MBX$,,AUTO

      249     5763    4                    N$REQ.IOFLG.IOS='1'B;

   5763  1 000370   040000 236007                    LDQ     16384,DL
         1 000371   000004 256100                    ORSQ    4,,PR0

      250     5764    4                    END;

   5764  1 000372   000416 710000 1                  TRA     s:5775

      251     5765    4                 ELSE DO;

      252     5766    4                    IOS$=N$REQ.IOS$;

   5766  1 000373   100012 236100                    LDQ     10,,PR1
         1 000374   200017 756100                    STQ     IOS$,,AUTO

      253     5767    4                    PNTR$=NI$REQ.FL$;

   5767  1 000375   200017 473500                    LDP3    IOS$,,AUTO
         1 000376   300000 236100                    LDQ     0,,PR3
         1 000377   200022 756100                    STQ     PNTR$,,AUTO

      254     5768    4                    NI$REQ=NI$REQ_INIT;

   5768  1 000400   000100 100400                    MLR     fill='000'O
         1 000401   000000 000070 xsym               ADSC9   NI$REQ_INIT              cn=0,n=56
         1 000402   300000 000070                    ADSC9   0,,PR3                   cn=0,n=56

      255     5769    4                    MBX$=PINCRW(IOS$,%IMX_MBX_OFFSET);
PL6.E3A0      #001=NIO$QUE File=NIO$QUE.:E05TSI                                  WED 07/30/97 03:34 Page:41

   5769  1 000403   200017 236100                    LDQ     IOS$,,AUTO
         1 000404   000010 036003                    ADLQ    8,DU
         1 000405   200020 756100                    STQ     MBX$,,AUTO

      256     5770    4                    IF HW_IMX THEN

   5770  1 000406   000000 234000 xsym               SZN     HW_IMX
         1 000407   000414 605000 1                  TPL     s:5772

      257     5771    4                       NI$IMXMBX=NI$IMXMBX_INIT;

   5771  1 000410   200020 474500                    LDP4    MBX$,,AUTO
         1 000411   000100 100400                    MLR     fill='000'O
         1 000412   000000 000140 xsym               ADSC9   NI$IMXMBX_INIT           cn=0,n=96
         1 000413   400000 000140                    ADSC9   0,,PR4                   cn=0,n=96

      258     5772    4                    NI$REQ.FL$=PNTR$;

   5772  1 000414   200022 236100                    LDQ     PNTR$,,AUTO
         1 000415   300000 756100                    STQ     0,,PR3

      259     5773    4                    END;

      260     5774    3                 END;

      261     5775    2              N$REQ.ERRCT=0;

   5775  1 000416   200003 470500                    LDP0    @N$REQ,,AUTO
         1 000417   000000 236003                    LDQ     0,DU
         1 000420   000003 552140                    STBQ    3,'40'O,PR0

      262     5776    2              IF N$REQ.FC=%N_WRBIN AND DCT.DFLG.CHECKWRITE THEN N$REQ.FC=%N_WRCMP;

   5776  1 000421   000003 236100                    LDQ     3,,PR0
         1 000422   000777 376007                    ANQ     511,DL
         1 000423   000003 116007                    CMPQ    3,DL
PL6.E3A0      #001=NIO$QUE File=NIO$QUE.:E05TSI                                  WED 07/30/97 03:34 Page:42
         1 000424   000433 601000 1                  TNZ     s:5777
         1 000425   200013 471500                    LDP1    DCT$,,AUTO
         1 000426   100006 236100                    LDQ     6,,PR1
         1 000427   000040 316007                    CANQ    32,DL
         1 000430   000433 600000 1                  TZE     s:5777

   5776  1 000431   000007 236007                    LDQ     7,DL
         1 000432   000003 552104                    STBQ    3,'04'O,PR0

      263     5777    2              IF N$REQ.FC>%N_MLFC THEN

   5777  1 000433   000003 236100                    LDQ     3,,PR0
         1 000434   000777 376007                    ANQ     511,DL
         1 000435   000035 116007                    CMPQ    29,DL
         1 000436   000441 602000 1                  TNC     s:5780

      264     5778    2                 FUNC='0'B;

   5778  1 000437   200016 450100                    STZ     FUNC,,AUTO
         1 000440   000446 710000 1                  TRA     s:5781

      265     5779    2              ELSE
      266     5780    2                 FUNC=DVT.IDCW(N$REQ.FC);

   5780  1 000441   000003 720100                    LXL0    3,,PR0
         1 000442   000777 360003                    ANX0    511,DU
         1 000443   200015 471500                    LDP1    DVT$,,AUTO
         1 000444   100062 236110                    LDQ     50,X0,PR1
         1 000445   200016 756100                    STQ     FUNC,,AUTO

      267     5781    2              DCWX=0;

   5781  1 000446   200014 450100                    STZ     DCWX,,AUTO

      268     5782    2              RTN=FUNC.RTN;

   5782  1 000447   200016 236100                    LDQ     FUNC,,AUTO
PL6.E3A0      #001=NIO$QUE File=NIO$QUE.:E05TSI                                  WED 07/30/97 03:34 Page:43
         1 000450   000030 772000                    QRL     24
         1 000451   000077 376007                    ANQ     63,DL
         1 000452   200027 756100                    STQ     RTN,,AUTO

      269     5783    2              FUNC.DVN=DCT.DVN;

   5783  1 000453   200013 471500                    LDP1    DCT$,,AUTO
         1 000454   100007 236100                    LDQ     7,,PR1
         1 000455   200016 752120                    STCQ    FUNC,'20'O,AUTO

      270     5784    2              IF FUNC.TIMO~=0 THEN N$REQ.TIMOUT=FUNC.TIMO;

   5784  1 000456   200016 236100                    LDQ     FUNC,,AUTO
         1 000457   770000 316007                    CANQ    -4096,DL
         1 000460   000464 600000 1                  TZE     s:5785

   5784  1 000461   770000 376007                    ANQ     -4096,DL
         1 000462   000006 736000                    QLS     6
         1 000463   000003 552120                    STBQ    3,'20'O,PR0

      271     5785    2              SEEK$=ADDR(NI$REQ.SEEK);

   5785  1 000464   200017 236100                    LDQ     IOS$,,AUTO
         1 000465   000014 036003                    ADLQ    12,DU
         1 000466   200031 756100                    STQ     SEEK$,,AUTO

      272     5786    2              PSIA=DCT.DFLG.PSIA;

   5786  1 000467   100006 236100                    LDQ     6,,PR1
         1 000470   000027 736000                    QLS     23
         1 000471   400000 376003                    ANQ     -131072,DU
         1 000472   200023 756100                    STQ     PSIA,,AUTO

      273     5787    2              NOBUF=(FUNC.CCB & %CC_NOBUF) ~= '0'B;

   5787  1 000473   200016 236100                    LDQ     FUNC,,AUTO
         1 000474   000030 736000                    QLS     24
PL6.E3A0      #001=NIO$QUE File=NIO$QUE.:E05TSI                                  WED 07/30/97 03:34 Page:44
         1 000475   770000 376003                    ANQ     -4096,DU
         1 000476   020000 376003                    ANQ     8192,DU
         1 000477   400000 220003                    LDX0    -131072,DU
         1 000500   000000 116003                    CMPQ    0,DU
         1 000501   000503 601000 1                  TNZ     s:5787+8
         1 000502   000000 220003                    LDX0    0,DU
         1 000503   000000 636010                    EAQ     0,X0
         1 000504   200021 756100                    STQ     NOBUF,,AUTO

      274     5788    3              DO CASE(RTN);

   5788  1 000505   200027 235100                    LDA     RTN,,AUTO
         1 000506   000033 115007                    CMPA    27,DL
         1 000507   000511 602005 1                  TNC     s:5788+4,AL
         1 000510   001775 710000 1                  TRA     s:6064
         1 000511   000544 710000 1                  TRA     s:5790
         1 000512   000556 710000 1                  TRA     s:5799
         1 000513   001444 710000 1                  TRA     RTN_STD0
         1 000514   000572 710000 1                  TRA     s:5824
         1 000515   000777 710000 1                  TRA     s:5871
         1 000516   001017 710000 1                  TRA     s:5878
         1 000517   001030 710000 1                  TRA     s:5882
         1 000520   001034 710000 1                  TRA     s:5885
         1 000521   001034 710000 1                  TRA     s:5885
         1 000522   001041 710000 1                  TRA     s:5887
         1 000523   001062 710000 1                  TRA     s:5893
         1 000524   001072 710000 1                  TRA     s:5896
         1 000525   001104 710000 1                  TRA     s:5900
         1 000526   001120 710000 1                  TRA     s:5905
         1 000527   001130 710000 1                  TRA     s:5908
         1 000530   001176 710000 1                  TRA     s:5925
         1 000531   001222 710000 1                  TRA     s:5932
         1 000532   001222 710000 1                  TRA     s:5932
         1 000533   001232 710000 1                  TRA     s:5935
         1 000534   001260 710000 1                  TRA     s:5945
         1 000535   001260 710000 1                  TRA     s:5945
         1 000536   001241 710000 1                  TRA     s:5938
PL6.E3A0      #001=NIO$QUE File=NIO$QUE.:E05TSI                                  WED 07/30/97 03:34 Page:45
         1 000537   001241 710000 1                  TRA     s:5938
         1 000540   001775 710000 1                  TRA     s:6064
         1 000541   001657 710000 1                  TRA     s:6038
         1 000542   000565 710000 1                  TRA     s:5803
         1 000543   001713 710000 1                  TRA     s:6049

      275     5789    3               CASE(%BITBIN(RTN_BADFC));

      276     5790    3                 CALL SC_NIOBADFC;

   5790  1 000544   000000 713400 xsym               CLIMB   SC_NIOBADFC
         1 000545   000000 600000 xsid               climb   nvectors=         0

      277     5791        /*S* SCREECH_CODE: NIO-S$BADFC-7
      278     5792             TYPE: SCREECH
      279     5793             MESSAGE: THE SUPPLIED FUNCTION CODE IS NOT LEGAL FOR THIS DEVICE
      280     5794        */
      281     5795    3                 N$REQ.TYC.IOERR='1'B;

   5795  1 000546   200003 470500                    LDP0    @N$REQ,,AUTO
         1 000547   001000 236003                    LDQ     512,DU
         1 000550   000021 256100                    ORSQ    17,,PR0

      282     5796    3                 CALL NIO$COMP(N$REQ);

   5796  1 000551   200003 630500                    EPPR0   @N$REQ,,AUTO
         1 000552   000017 631400 xsym               EPPR1   B_VECTNIL+15
         1 000553   000000 701000 xent               TSX1    NIO$COMP
         1 000554   000000 011000                    NOP     0

      283     5797    3                 RETURN;

   5797  1 000555   000000 702200 xent               TSX2  ! X66_ARET

      284     5798    3               CASE(%BITBIN(RTN_BADFC_IOERR));

      285     5799    3                 N$REQ.TYC.IOERR='1'B;
PL6.E3A0      #001=NIO$QUE File=NIO$QUE.:E05TSI                                  WED 07/30/97 03:34 Page:46

   5799  1 000556   001000 236003                    LDQ     512,DU
         1 000557   000021 256100                    ORSQ    17,,PR0

      286     5800    3                 CALL NIO$COMP(N$REQ);

   5800  1 000560   200003 630500                    EPPR0   @N$REQ,,AUTO
         1 000561   000017 631400 xsym               EPPR1   B_VECTNIL+15
         1 000562   000000 701000 xent               TSX1    NIO$COMP
         1 000563   000000 011000                    NOP     0

      287     5801    3                 RETURN;

   5801  1 000564   000000 702200 xent               TSX2  ! X66_ARET

      288     5802    3               CASE(%BITBIN(RTN_BADFC_IGNORE));

      289     5803    3                 CALL NIO$COMP(N$REQ);

   5803  1 000565   200003 630500                    EPPR0   @N$REQ,,AUTO
         1 000566   000017 631400 xsym               EPPR1   B_VECTNIL+15
         1 000567   000000 701000 xent               TSX1    NIO$COMP
         1 000570   000000 011000                    NOP     0

      290     5804    3                 RETURN;

   5804  1 000571   000000 702200 xent               TSX2  ! X66_ARET

      291     5805    3               CASE(%BITBIN(RTN_DCWLIST));

      292     5806        /**/
      293     5807        /**/
      294     5808        /*  The DCWLIST function code requires that the buffer begin on a
      295     5809            doubleword bound and that word 0 of the buffer be an IDCW.  The
      296     5810            device number of this IDCW will be filled in from the DCT.  All
      297     5811            other IDCWs in the DCW list should have a device number of 0.
      298     5812            If the required conditions are not met an IOERR is returned without
PL6.E3A0      #001=NIO$QUE File=NIO$QUE.:E05TSI                                  WED 07/30/97 03:34 Page:47
      299     5813            attempting to execute the request.  No changes to user programs
      300     5814            supplying DCW lists are required to support the IMX.  This code
      301     5815            modifies IDCWs and TDCWs to include the IMX base word references.
      302     5816            However, because TDCWs must be modified for the IMX, the following
      303     5817            restriction must be applied:  no TDCWs can follow the last IDCW.
      304     5818            (This is because DCWs may or may not follow the last IDCW, so it
      305     5819            is impossible to find the end of the DCW list unless tables of all
      306     5820            possible instructions exist which show whether or not a DCW is
      307     5821            required.)                                                        */
      308     5822        /**/
      309     5823        /**/
      310     5824    4                 IF BUFVIRT.BYT~=0 OR N$REQ.BUF$->IDCW.SVN~=7 THEN DO;

   5824  1 000572   200004 236100                    LDQ     BUFADDR,,AUTO
         1 000573   000007 316007                    CANQ    7,DL
         1 000574   000602 601000 1                  TNZ     s:5825
         1 000575   000005 473500                    LDP3    5,,PR0
         1 000576   300000 236100                    LDQ     0,,PR3
         1 000577   700000 376007                    ANQ     -32768,DL
         1 000600   700000 116007                    CMPQ    -32768,DL
         1 000601   000611 600000 1                  TZE     s:5829

      311     5825    4                    N$REQ.TYC.IOERR='1'B;

   5825  1 000602   001000 236003                    LDQ     512,DU
         1 000603   000021 256100                    ORSQ    17,,PR0

      312     5826    4                    CALL NIO$COMP(N$REQ);

   5826  1 000604   200003 630500                    EPPR0   @N$REQ,,AUTO
         1 000605   000017 631400 xsym               EPPR1   B_VECTNIL+15
         1 000606   000000 701000 xent               TSX1    NIO$COMP
         1 000607   000000 011000                    NOP     0

      313     5827    4                    RETURN;

   5827  1 000610   000000 702200 xent               TSX2  ! X66_ARET
PL6.E3A0      #001=NIO$QUE File=NIO$QUE.:E05TSI                                  WED 07/30/97 03:34 Page:48

      314     5828    4                    END;
      315     5829    3                 X=0;

   5829  1 000611   200034 450100                    STZ     X,,AUTO

      316     5830    3                 CONT='1'B;

   5830  1 000612   400000 236003                    LDQ     -131072,DU
         1 000613   200010 756100                    STQ     CONT,,AUTO

      317     5831    4                 DO WHILE(CONT);

   5831  1 000614   200010 234100                    SZN     CONT,,AUTO
         1 000615   000703 605000 1                  TPL     s:5850

      318     5832    4                    PNTR$=PINCRW(N$REQ.BUF$,X);

   5832  1 000616   200003 470500                    LDP0    @N$REQ,,AUTO
         1 000617   000005 471500                    LDP1    5,,PR0
         1 000620   200034 720100                    LXL0    X,,AUTO
         1 000621   100000 633510                    EPPR3   0,X0,PR1
         1 000622   200022 453500                    STP3    PNTR$,,AUTO

      319     5833    5                    IF PNTR$->IDCW.SVN=7 THEN DO;

   5833  1 000623   300000 236100                    LDQ     0,,PR3
         1 000624   700000 376007                    ANQ     -32768,DL
         1 000625   700000 116007                    CMPQ    -32768,DL
         1 000626   000647 601000 1                  TNZ     s:5840

      320     5834    5                       PNTR$->IDCW.DVN=DCT.DVN;

   5834  1 000627   200013 474500                    LDP4    DCT$,,AUTO
         1 000630   400007 236100                    LDQ     7,,PR4
         1 000631   300000 752120                    STCQ    0,'20'O,PR3

PL6.E3A0      #001=NIO$QUE File=NIO$QUE.:E05TSI                                  WED 07/30/97 03:34 Page:49
      321     5835    5                       IF HW_IMX THEN

   5835  1 000632   000000 234000 xsym               SZN     HW_IMX
         1 000633   000641 605000 1                  TPL     s:5837

      322     5836    5                          PNTR$->IDCW.DATA.BASE=BUF_BASE;

   5836  1 000634   200007 236100                    LDQ     BUF_BASE,,AUTO
         1 000635   000025 736000                    QLS     21
         1 000636   300000 676100                    ERQ     0,,PR3
         1 000637   000030 376003                    ANQ     24,DU
         1 000640   300000 656100                    ERSQ    0,,PR3

      323     5837    5                       CONT=PNTR$->IDCW.CONT;

   5837  1 000641   300000 236100                    LDQ     0,,PR3
         1 000642   000026 736000                    QLS     22
         1 000643   400000 376003                    ANQ     -131072,DU
         1 000644   200010 756100                    STQ     CONT,,AUTO

      324     5838    5                       X=X+1;

   5838  1 000645   200034 054100                    AOS     X,,AUTO

      325     5839    5                       END;

   5839  1 000646   000674 710000 1                  TRA     s:5848

      326     5840    5                    ELSE DO CASE(PNTR$->DCW.TYPE);

   5840  1 000647   300000 236100                    LDQ     0,,PR3
         1 000650   000014 772000                    QRL     12
         1 000651   000007 376007                    ANQ     7,DL
         1 000652   000003 116007                    CMPQ    3,DL
         1 000653   000655 602006 1                  TNC     s:5840+6,QL
         1 000654   000673 710000 1                  TRA     s:5846
         1 000655   000673 710000 1                  TRA     s:5846
PL6.E3A0      #001=NIO$QUE File=NIO$QUE.:E05TSI                                  WED 07/30/97 03:34 Page:50
         1 000656   000673 710000 1                  TRA     s:5846
         1 000657   000660 710000 1                  TRA     s:5842

      327     5841    5                     CASE(%DCW_TDCW);

      328     5842    5                      X=PNTR$->DCW.FWA; /*N* IOM bug? how about X=FWA-BUFVIRT.BASE? */

   5842  1 000660   300000 236100                    LDQ     0,,PR3
         1 000661   000022 772000                    QRL     18
         1 000662   200034 756100                    STQ     X,,AUTO

      329     5843    5                       IF HW_IMX THEN

   5843  1 000663   000000 234000 xsym               SZN     HW_IMX
         1 000664   000674 605000 1                  TPL     s:5848

      330     5844    5                          PNTR$->DCW.T.DCWLIST.BASE=BUF_BASE;

   5844  1 000665   200007 236100                    LDQ     BUF_BASE,,AUTO
         1 000666   000006 736000                    QLS     6
         1 000667   300000 676100                    ERQ     0,,PR3
         1 000670   000300 376007                    ANQ     192,DL
         1 000671   300000 656100                    ERSQ    0,,PR3
         1 000672   000674 710000 1                  TRA     s:5848

      331     5845    5                     CASE(ELSE);

      332     5846    5                       X=X+1;

   5846  1 000673   200034 054100                    AOS     X,,AUTO

      333     5847    5                     END;

      334     5848    4                    IF X>=BUFSIZE/4 THEN CONT='0'B;

   5848  1 000674   200006 236100                    LDQ     BUFSIZE,,AUTO
         1 000675   000004 506007                    DIV     4,DL
PL6.E3A0      #001=NIO$QUE File=NIO$QUE.:E05TSI                                  WED 07/30/97 03:34 Page:51
         1 000676   200034 116100                    CMPQ    X,,AUTO
         1 000677   000701 605400 1                  TPNZ    s:5849

   5848  1 000700   200010 450100                    STZ     CONT,,AUTO

      335     5849    4                    END;

   5849  1 000701   200010 234100                    SZN     CONT,,AUTO
         1 000702   000616 604000 1                  TMI     s:5832

      336     5850    4                 IF NOT PSIA THEN DO;

   5850  1 000703   200023 234100                    SZN     PSIA,,AUTO
         1 000704   000714 604000 1                  TMI     s:5854

      337     5851    4                    NI$REQ.PCW=N$REQ.BUF$->IDCW;

   5851  1 000705   000005 471500                    LDP1    5,,PR0
         1 000706   100000 235100                    LDA     0,,PR1
         1 000707   000000 236003                    LDQ     0,DU
         1 000710   200017 473500                    LDP3    IOS$,,AUTO
         1 000711   300012 757100                    STAQ    10,,PR3

      338     5852    4                    NI$REQ.PCW.FLAGS='600'O;

   5852  1 000712   000600 236007                    LDQ     384,DL
         1 000713   300013 552104                    STBQ    11,'04'O,PR3

      339     5853    4                    END;

      340     5854    3                 N$REQ.IOFLG.LPW23='0'B;   /* REAL DCW, REAL LPW */

   5854  1 000714   000006 236000 2                  LDQ     6
         1 000715   000004 356100                    ANSQ    4,,PR0

      341     5855    3                 IF HW_IOP THEN

PL6.E3A0      #001=NIO$QUE File=NIO$QUE.:E05TSI                                  WED 07/30/97 03:34 Page:52
   5855  1 000716   000000 234000 xsym               SZN     HW_IOP
         1 000717   000726 605000 1                  TPL     s:5857

      342     5856    3                    NI$REQ.IOP_PTAW=BINBIT(PTP,27)|%IOP_PTA1_INIT; /* PHYSADDR */

   5856  1 000720   200024 236100                    LDQ     PTP,,AUTO
         1 000721   000011 736000                    QLS     9
         1 000722   000000 276000 0                  ORQ     0
         1 000723   200017 471500                    LDP1    IOS$,,AUTO
         1 000724   100001 756100                    STQ     1,,PR1
         1 000725   000734 710000 1                  TRA     s:5859

      343     5857    3                 ELSE IF NOT HW_IMX THEN

   5857  1 000726   000000 234000 xsym               SZN     HW_IMX
         1 000727   000734 604000 1                  TMI     s:5859

      344     5858    3                       NI$REQ.PCW.PTP=PTP;

   5858  1 000730   200017 471500                    LDP1    IOS$,,AUTO
         1 000731   200024 236100                    LDQ     PTP,,AUTO
         1 000732   000011 736000                    QLS     9
         1 000733   100013 552130                    STBQ    11,'30'O,PR1

      345     5859    3                 N$REQ.LPWX.BASE=BUFVIRT.BASE;

   5859  1 000734   200004 236100                    LDQ     BUFADDR,,AUTO
         1 000735   000003 772000                    QRL     3
         1 000736   000000 620006                    EAX0    0,QL
         1 000737   000011 740100                    STX0    9,,PR0

      346     5860    3                 N$REQ.LPWX.BOUND=(BUFSIZE+3)/4;

   5860  1 000740   200006 236100                    LDQ     BUFSIZE,,AUTO
         1 000741   000003 036007                    ADLQ    3,DL
         1 000742   000004 506007                    DIV     4,DL
         1 000743   000000 621006                    EAX1    0,QL
PL6.E3A0      #001=NIO$QUE File=NIO$QUE.:E05TSI                                  WED 07/30/97 03:34 Page:53
         1 000744   000011 441100                    SXL1    9,,PR0

      347     5861    4                 IF HW_IMX THEN DO;

   5861  1 000745   000000 234000 xsym               SZN     HW_IMX
         1 000746   000760 605000 1                  TPL     s:5866

      348     5862    4                    NI$REQ.DCW(0)=%TDCWM1;

   5862  1 000747   000001 236000 0                  LDQ     1
         1 000750   200017 471500                    LDP1    IOS$,,AUTO
         1 000751   100002 756100                    STQ     2,,PR1

      349     5863    4                    NI$REQ.DCW.T.DCWLIST.BASE(0)=BUF_BASE;

   5863  1 000752   200007 236100                    LDQ     BUF_BASE,,AUTO
         1 000753   000006 736000                    QLS     6
         1 000754   100002 676100                    ERQ     2,,PR1
         1 000755   000300 376007                    ANQ     192,DL
         1 000756   100002 656100                    ERSQ    2,,PR1

      350     5864    4                    END;

   5864  1 000757   001775 710000 1                  TRA     s:6064

      351     5865    4                 ELSE DO;

      352     5866    4                    NI$REQ.DCW(0)=%TDCWM4;

   5866  1 000760   000002 236000 0                  LDQ     2
         1 000761   200017 471500                    LDP1    IOS$,,AUTO
         1 000762   100002 756100                    STQ     2,,PR1

      353     5867                         /*N* IOM EVIDENTLY DOESN'T USE LPWX FOR DCWLIST */
      354     5868    4                    NI$REQ.DCW.FWA(0)=BUFREAL.ADR+BITBIN(~PSIA);

   5868  1 000763   200023 236100                    LDQ     PSIA,,AUTO
PL6.E3A0      #001=NIO$QUE File=NIO$QUE.:E05TSI                                  WED 07/30/97 03:34 Page:54
         1 000764   400000 376003                    ANQ     -131072,DU
         1 000765   400000 676003                    ERQ     -131072,DU
         1 000766   000043 772000                    QRL     35
         1 000767   200040 756100                    STQ     TDCW$+1,,AUTO
         1 000770   200004 236100                    LDQ     BUFADDR,,AUTO
         1 000771   000002 772000                    QRL     2
         1 000772   777777 376007                    ANQ     -1,DL
         1 000773   200040 036100                    ADLQ    TDCW$+1,,AUTO
         1 000774   000000 620006                    EAX0    0,QL
         1 000775   100002 740100                    STX0    2,,PR1

      355     5869    4                    END;

   5869  1 000776   001775 710000 1                  TRA     s:6064

      356     5870    3               CASE(%BITBIN(RTN_WRSYMB));

      357     5871    3                 N$REQ.ARCT = N$REQ.RCT;

   5871  1 000777   000030 720100                    LXL0    24,,PR0
         1 001000   000030 740100                    STX0    24,,PR0

      358     5872    3                 CALL NIU$SYMBLOCK(N$REQ,FUNC) ALTRET(COMP);

   5872  1 001001   200016 633500                    EPPR3   FUNC,,AUTO
         1 001002   200041 453500                    STP3    TDCW$+2,,AUTO
         1 001003   200003 236100                    LDQ     @N$REQ,,AUTO
         1 001004   200040 756100                    STQ     TDCW$+1,,AUTO
         1 001005   200040 630500                    EPPR0   TDCW$+1,,AUTO
         1 001006   000020 631400 xsym               EPPR1   B_VECTNIL+16
         1 001007   000000 701000 xent               TSX1    NIU$SYMBLOCK
         1 001010   001012 702000 1                  TSX2    COMP

      359     5873    4                 DO WHILE('0'B);           /* DO NEVER */

   5873  1 001011   001775 710000 1                  TRA     s:6064

PL6.E3A0      #001=NIO$QUE File=NIO$QUE.:E05TSI                                  WED 07/30/97 03:34 Page:55
      360     5874    4   COMP:            CALL NIO$COMP(N$REQ);

   5874  1 001012   200003 630500       COMP         EPPR0   @N$REQ,,AUTO
         1 001013   000017 631400 xsym               EPPR1   B_VECTNIL+15
         1 001014   000000 701000 xent               TSX1    NIO$COMP
         1 001015   000000 011000                    NOP     0

      361     5875    4                    RETURN;

   5875  1 001016   000000 702200 xent               TSX2  ! X66_ARET

      362     5876    4                    END;                   /* DO NEVER */

      363     5877    3               CASE(%BITBIN(RTN_SC_RDPRMPT));

      364     5878    3                 NI$REQ.SEEK='000015012000'O;

   5878  1 001017   000003 236000 0                  LDQ     3
         1 001020   200017 473500                    LDP3    IOS$,,AUTO
         1 001021   300014 756100                    STQ     12,,PR3

      365     5879    3                 SEEK$->ONECHAR(3)=N$REQ.BUF$->ONECHAR(0);

   5879  1 001022   000005 474500                    LDP4    5,,PR0
         1 001023   200031 475500                    LDP5    SEEK$,,AUTO
         1 001024   040100 100500                    MLR     fill='040'O
         1 001025   400000 000001                    ADSC9   0,,PR4                   cn=0,n=1
         1 001026   500000 600001                    ADSC9   0,,PR5                   cn=3,n=1

      366     5880    3                 GOTO RTN_DP_SEEK;

   5880  1 001027   001271 710000 1                  TRA     RTN_DP_SEEK

      367     5881    3               CASE(%BITBIN(RTN_SC_WRCRLF));

      368     5882    3                 NI$REQ.SEEK='000000015012'O;

PL6.E3A0      #001=NIO$QUE File=NIO$QUE.:E05TSI                                  WED 07/30/97 03:34 Page:56
   5882  1 001030   000004 236000 0                  LDQ     4
         1 001031   200017 473500                    LDP3    IOS$,,AUTO
         1 001032   300014 756100                    STQ     12,,PR3

      369     5883    3                 GOTO RTN_DP_SEEK;

   5883  1 001033   001271 710000 1                  TRA     RTN_DP_SEEK

      370     5884    3               CASE(%BITBIN(RTN_CR_EXTST),%BITBIN(RTN_CP_EXTST));

      371     5885    3                 CALL NIU$CRPEXTST(N$REQ) ALTRET(NQPKTS);

   5885  1 001034   200003 630500                    EPPR0   @N$REQ,,AUTO
         1 001035   000017 631400 xsym               EPPR1   B_VECTNIL+15
         1 001036   000000 701000 xent               TSX1    NIU$CRPEXTST
         1 001037   002240 702000 1                  TSX2    NQPKTS
         1 001040   001775 710000 1                  TRA     s:6064

      372     5886    3               CASE(%BITBIN(RTN_CP_WRFM));

      373     5887    3                 NI$REQ.SEEK='041105117104'O; /* !EOD */

   5887  1 001041   000005 236000 0                  LDQ     5
         1 001042   200017 473500                    LDP3    IOS$,,AUTO
         1 001043   300014 756100                    STQ     12,,PR3

      374     5888    3                 NI$REQ.IDCW(0)=(FUNC & %IDCWMASK) | %IDCWBITS;

   5888  1 001044   200016 236100                    LDQ     FUNC,,AUTO
         1 001045   000006 376000 0                  ANQ     6
         1 001046   000007 276000 0                  ORQ     7
         1 001047   300002 756100                    STQ     2,,PR3

      375     5889    3                 IF HW_IMX THEN

   5889  1 001050   000000 234000 xsym               SZN     HW_IMX
         1 001051   001055 605000 1                  TPL     s:5891
PL6.E3A0      #001=NIO$QUE File=NIO$QUE.:E05TSI                                  WED 07/30/97 03:34 Page:57

      376     5890    3                    NI$REQ.IDCW.DATA.BASE(0)=%IMX_IOS_BASE;

   5890  1 001052   000007 376000 2                  ANQ     7
         1 001053   000020 276003                    ORQ     16,DU
         1 001054   300002 756100                    STQ     2,,PR3

      377     5891    3                 NI$REQ.DCW(1)=BINBIT((SEEK.WA*%BITBIN('1000000'O))+1,36);

   5891  1 001055   200031 236100                    LDQ     SEEK$,,AUTO
         1 001056   777777 376003                    ANQ     -1,DU
         1 001057   000001 036007                    ADLQ    1,DL
         1 001060   300003 756100                    STQ     3,,PR3
         1 001061   001775 710000 1                  TRA     s:6064

      378     5892    3               CASE(%BITBIN(RTN_CP_WRITE));

      379     5893    3                 IF N$REQ.DVE.DVBYTE & %DVBYTE_BIN# THEN FUNC.DC=FUNC.DC2;

   5893  1 001062   000031 236100                    LDQ     25,,PR0
         1 001063   777000 376003                    ANQ     -512,DU
         1 001064   040000 376003                    ANQ     16384,DU
         1 001065   001071 600000 1                  TZE     s:5894

   5893  1 001066   200016 236100                    LDQ     FUNC,,AUTO
         1 001067   000014 736000                    QLS     12
         1 001070   200016 752140                    STCQ    FUNC,'40'O,AUTO

      380     5894    3                 GOTO RTN_STD0;

   5894  1 001071   001444 710000 1                  TRA     RTN_STD0

      381     5895    3               CASE(%BITBIN(RTN_LP_LDCHAIN));

      382     5896    3                 CSIZE=60*4;

   5896  1 001072   000360 235007                    LDA     240,DL
PL6.E3A0      #001=NIO$QUE File=NIO$QUE.:E05TSI                                  WED 07/30/97 03:34 Page:58
         1 001073   200011 755100                    STA     CSIZE,,AUTO

      383     5897    3                 DCT.LP.CHAIN$->CHARBASE=N$REQ.BUF$->CHARBASE;

   5897  1 001074   100032 473500                    LDP3    26,,PR1
         1 001075   000005 474500                    LDP4    5,,PR0
         1 001076   000000 620005                    EAX0    0,AL
         1 001077   200011 721100                    LXL1    CSIZE,,AUTO
         1 001100   040140 100540                    MLR     fill='040'O
         1 001101   400000 000010                    ADSC9   0,,PR4                   cn=0,n=*X0
         1 001102   300000 000011                    ADSC9   0,,PR3                   cn=0,n=*X1

      384     5898    3                 GOTO RTN_STD0;

   5898  1 001103   001444 710000 1                  TRA     RTN_STD0

      385     5899    3               CASE(%BITBIN(RTN_LP_LDVFC));

      386     5900    3                 CSIZE=N$REQ.BUFSIZE;

   5900  1 001104   000004 236100                    LDQ     4,,PR0
         1 001105   000020 772000                    QRL     16
         1 001106   200011 756100                    STQ     CSIZE,,AUTO

      387     5901    3                 DCT.LP.VFCL=N$REQ.BUFSIZE/4;

   5901  1 001107   000002 772000                    QRL     2
         1 001110   100031 756100                    STQ     25,,PR1

      388     5902    3                 DCT.LP.VFC$->CHARBASE=N$REQ.BUF$->CHARBASE;

   5902  1 001111   100030 473500                    LDP3    24,,PR1
         1 001112   000005 474500                    LDP4    5,,PR0
         1 001113   200011 720100                    LXL0    CSIZE,,AUTO
         1 001114   040140 100540                    MLR     fill='040'O
         1 001115   400000 000010                    ADSC9   0,,PR4                   cn=0,n=*X0
         1 001116   300000 000010                    ADSC9   0,,PR3                   cn=0,n=*X0
PL6.E3A0      #001=NIO$QUE File=NIO$QUE.:E05TSI                                  WED 07/30/97 03:34 Page:59

      389     5903    3                 GOTO RTN_STD0;

   5903  1 001117   001444 710000 1                  TRA     RTN_STD0

      390     5904    3               CASE(%BITBIN(RTN_LP_WRITE));

      391     5905    3                 IF N$REQ.DVE.DVBYTE & %DVBYTE_BP# THEN FUNC.DC=FUNC.DC2;

   5905  1 001120   000031 236100                    LDQ     25,,PR0
         1 001121   777000 376003                    ANQ     -512,DU
         1 001122   200000 376003                    ANQ     65536,DU
         1 001123   001127 600000 1                  TZE     s:5906

   5905  1 001124   200016 236100                    LDQ     FUNC,,AUTO
         1 001125   000014 736000                    QLS     12
         1 001126   200016 752140                    STCQ    FUNC,'40'O,AUTO

      392     5906    3                 GOTO RTN_STD0;

   5906  1 001127   001444 710000 1                  TRA     RTN_STD0

      393     5907    3               CASE(%BITBIN(RTN_MT_SPR));

      394     5908    4                 IF N$REQ.RCT<0 THEN DO;

   5908  1 001130   000030 720100                    LXL0    24,,PR0
         1 001131   001144 605000 1                  TPL     s:5913

      395     5909    4                    RCTTEMP=-N$REQ.RCT;

   5909  1 001132   000030 236100                    LDQ     24,,PR0
         1 001133   000022 736000                    QLS     18
         1 001134   000022 732000                    QRS     18
         1 001135   000027 676000 xsym               ERQ     B_VECTNIL+23
         1 001136   000001 036007                    ADLQ    1,DL
         1 001137   200026 756100                    STQ     RCTTEMP,,AUTO
PL6.E3A0      #001=NIO$QUE File=NIO$QUE.:E05TSI                                  WED 07/30/97 03:34 Page:60

      396     5910    4                    FUNC.DC=FUNC.DC2;

   5910  1 001140   200016 236100                    LDQ     FUNC,,AUTO
         1 001141   000014 736000                    QLS     12
         1 001142   200016 752140                    STCQ    FUNC,'40'O,AUTO

      397     5911    4                    END;

   5911  1 001143   001150 710000 1                  TRA     s:5915

      398     5912    4                 ELSE DO;

      399     5913    4                    RCTTEMP=N$REQ.RCT;

   5913  1 001144   000030 236100                    LDQ     24,,PR0
         1 001145   000022 736000                    QLS     18
         1 001146   000022 732000                    QRS     18
         1 001147   200026 756100                    STQ     RCTTEMP,,AUTO

      400     5914    4                    END;

      401     5915    3                 IF RCTTEMP>63 THEN

   5915  1 001150   200026 236100                    LDQ     RCTTEMP,,AUTO
         1 001151   000077 116007                    CMPQ    63,DL
         1 001152   001156 604400 1                  TMOZ    s:5918

      402     5916    3                    FUNC.RCNT=63;

   5916  1 001153   000077 236007                    LDQ     63,DL
         1 001154   200016 752101                    STCQ    FUNC,'01'O,AUTO
         1 001155   001157 710000 1                  TRA     s:5919

      403     5917    3                 ELSE
      404     5918    3                    FUNC.RCNT=RCTTEMP;

PL6.E3A0      #001=NIO$QUE File=NIO$QUE.:E05TSI                                  WED 07/30/97 03:34 Page:61
   5918  1 001156   200016 752101                    STCQ    FUNC,'01'O,AUTO

      405     5919    3                 NI$REQ.IDCW(0)=(FUNC & %IDCWMASK) | %IDCWBITS;

   5919  1 001157   200016 236100                    LDQ     FUNC,,AUTO
         1 001160   000006 376000 0                  ANQ     6
         1 001161   000007 276000 0                  ORQ     7
         1 001162   200017 473500                    LDP3    IOS$,,AUTO
         1 001163   300002 756100                    STQ     2,,PR3

      406     5920    3                 IF HW_IMX THEN            /* NO DATA ACTUALLY TRANSFERRED */

   5920  1 001164   000000 234000 xsym               SZN     HW_IMX
         1 001165   001171 605000 1                  TPL     s:5922

      407     5921    3                    NI$REQ.IDCW.DATA.BASE(0)=%IMX_IOS_BASE;

   5921  1 001166   000007 376000 2                  ANQ     7
         1 001167   000020 276003                    ORQ     16,DU
         1 001170   300002 756100                    STQ     2,,PR3

      408     5922    3                 N$REQ.IOFLG.MREC='1'B;

   5922  1 001171   010000 236007                    LDQ     4096,DL
         1 001172   000004 256100                    ORSQ    4,,PR0

      409     5923    3                 N$REQ.ARCT=0;

   5923  1 001173   000000 220003                    LDX0    0,DU
         1 001174   000030 740100                    STX0    24,,PR0
         1 001175   001775 710000 1                  TRA     s:6064

      410     5924    3               CASE(%BITBIN(RTN_MT_SPF));

      411     5925    3                 IF N$REQ.RCT<0 THEN FUNC.DC=FUNC.DC2;

   5925  1 001176   000030 720100                    LXL0    24,,PR0
PL6.E3A0      #001=NIO$QUE File=NIO$QUE.:E05TSI                                  WED 07/30/97 03:34 Page:62
         1 001177   001203 605000 1                  TPL     s:5926

   5925  1 001200   200016 236100                    LDQ     FUNC,,AUTO
         1 001201   000014 736000                    QLS     12
         1 001202   200016 752140                    STCQ    FUNC,'40'O,AUTO

      412     5926    3                 NI$REQ.IDCW(0)=(FUNC & %IDCWMASK) | %IDCWBITS;

   5926  1 001203   200016 236100                    LDQ     FUNC,,AUTO
         1 001204   000006 376000 0                  ANQ     6
         1 001205   000007 276000 0                  ORQ     7
         1 001206   200017 473500                    LDP3    IOS$,,AUTO
         1 001207   300002 756100                    STQ     2,,PR3

      413     5927    3                 IF HW_IMX THEN            /* NO DATA ACTUALLY TRANSFERRED */

   5927  1 001210   000000 234000 xsym               SZN     HW_IMX
         1 001211   001215 605000 1                  TPL     s:5929

      414     5928    3                    NI$REQ.IDCW.DATA.BASE(0)=%IMX_IOS_BASE;

   5928  1 001212   000007 376000 2                  ANQ     7
         1 001213   000020 276003                    ORQ     16,DU
         1 001214   300002 756100                    STQ     2,,PR3

      415     5929    3                 N$REQ.IOFLG.MREC='1'B;

   5929  1 001215   010000 236007                    LDQ     4096,DL
         1 001216   000004 256100                    ORSQ    4,,PR0

      416     5930    3                 N$REQ.ARCT=0;

   5930  1 001217   000000 220003                    LDX0    0,DU
         1 001220   000030 740100                    STX0    24,,PR0
         1 001221   001775 710000 1                  TRA     s:6064

      417     5931    3               CASE(%BITBIN(RTN_MT_READ),%BITBIN(RTN_MT_WRITE));
PL6.E3A0      #001=NIO$QUE File=NIO$QUE.:E05TSI                                  WED 07/30/97 03:34 Page:63

      418     5932    3                 IF N$REQ.DVE.DVBYTE & %DVBYTE_BIN# THEN FUNC.DC=FUNC.DC2;

   5932  1 001222   000031 236100                    LDQ     25,,PR0
         1 001223   777000 376003                    ANQ     -512,DU
         1 001224   040000 376003                    ANQ     16384,DU
         1 001225   001231 600000 1                  TZE     s:5933

   5932  1 001226   200016 236100                    LDQ     FUNC,,AUTO
         1 001227   000014 736000                    QLS     12
         1 001230   200016 752140                    STCQ    FUNC,'40'O,AUTO

      419     5933    3                 GOTO RTN_STD0;

   5933  1 001231   001444 710000 1                  TRA     RTN_STD0

      420     5934    3               CASE(%BITBIN(RTN_MT_WRBYTE));

      421     5935    3                 FUNC.RCNT=MOD(BUFADDR+BUFSIZE,4)*8;

   5935  1 001232   200004 236100                    LDQ     BUFADDR,,AUTO
         1 001233   200006 036100                    ADLQ    BUFSIZE,,AUTO
         1 001234   000004 506007                    DIV     4,DL
         1 001235   000044 733000                    LRS     36
         1 001236   000003 736000                    QLS     3
         1 001237   200016 752101                    STCQ    FUNC,'01'O,AUTO

      422     5936    3                 GOTO RTN_STD0;

   5936  1 001240   001444 710000 1                  TRA     RTN_STD0

      423     5937    3               CASE(%BITBIN(RTN_MPC_READ),%BITBIN(RTN_MPC_WRITE));

      424     5938    3                 NI$REQ.MPCSEEK.MEMADDR = N$REQ.DLA.MPC.MEMADDR;

   5938  1 001241   200017 473500                    LDP3    IOS$,,AUTO
         1 001242   000001 236100                    LDQ     1,,PR0
PL6.E3A0      #001=NIO$QUE File=NIO$QUE.:E05TSI                                  WED 07/30/97 03:34 Page:64
         1 001243   000024 736000                    QLS     20
         1 001244   300014 676100                    ERQ     12,,PR3
         1 001245   777774 376003                    ANQ     -4,DU
         1 001246   300014 656100                    ERSQ    12,,PR3

      425     5939    3                 NI$REQ.MPCSEEK.COUNT = (N$REQ.BUFSIZE + 1)/2;

   5939  1 001247   000004 236100                    LDQ     4,,PR0
         1 001250   000020 772000                    QRL     16
         1 001251   000001 036007                    ADLQ    1,DL
         1 001252   000001 772000                    QRL     1
         1 001253   000004 736000                    QLS     4
         1 001254   300014 676100                    ERQ     12,,PR3
         1 001255   000010 376000 2                  ANQ     8
         1 001256   300014 656100                    ERSQ    12,,PR3

      426     5940    3                 GOTO RTN_DP_SEEK;

   5940  1 001257   001271 710000 1                  TRA     RTN_DP_SEEK

      427     5941    3               CASE(%BITBIN(RTN_AP_IO));

      428     5942                                           /* Do nothing.  DCW list is already built. */
      429     5943                                           /* AP NOT CURRENTLY SUPPORTED ON IMX       */
      430     5944    3               CASE(%BITBIN(RTN_DP_SEEK),%BITBIN(RTN_DP_WRZERO));

      431     5945    3                 NI$REQ.SEEK=BINBIT(N$REQ.DLA.DRELADDR*DVT.GRANSIZE,36);

   5945  1 001260   200015 473500                    LDP3    DVT$,,AUTO
         1 001261   300053 236100                    LDQ     43,,PR3
         1 001262   000777 376007                    ANQ     511,DL
         1 001263   200040 756100                    STQ     TDCW$+1,,AUTO
         1 001264   000001 236100                    LDQ     1,,PR0
         1 001265   000011 376000 2                  ANQ     9
         1 001266   200040 402100                    MPY     TDCW$+1,,AUTO
         1 001267   200017 474500                    LDP4    IOS$,,AUTO
         1 001270   400014 756100                    STQ     12,,PR4
PL6.E3A0      #001=NIO$QUE File=NIO$QUE.:E05TSI                                  WED 07/30/97 03:34 Page:65

      432     5946    3   RTN_DP_SEEK:  N$REQ.IOFLG.LPW23='0'B;   /* REAL DCW, REAL LPW */

   5946  1 001271   000006 236000 2     RTN_DP_SEEK  LDQ     6
         1 001272   000004 356100                    ANSQ    4,,PR0

      433     5947    4                 IF PSIA THEN DO;

   5947  1 001273   200023 234100                    SZN     PSIA,,AUTO
         1 001274   001312 605000 1                  TPL     s:5954

      434     5948    4                    NI$REQ.IDCW(0)=(FUNC & %IDCWMASK) | %IDCWCONT;

   5948  1 001275   200016 236100                    LDQ     FUNC,,AUTO
         1 001276   000006 376000 0                  ANQ     6
         1 001277   000010 276000 0                  ORQ     8
         1 001300   200017 473500                    LDP3    IOS$,,AUTO
         1 001301   300002 756100                    STQ     2,,PR3

      435     5949    4                    IF HW_IMX THEN

   5949  1 001302   000000 234000 xsym               SZN     HW_IMX
         1 001303   001307 605000 1                  TPL     s:5951

      436     5950    4                       NI$REQ.IDCW.DATA.BASE(0)=%IMX_IOS_BASE;

   5950  1 001304   000007 376000 2                  ANQ     7
         1 001305   000020 276003                    ORQ     16,DU
         1 001306   300002 756100                    STQ     2,,PR3

      437     5951    4                    DCWX=1;

   5951  1 001307   000001 235007                    LDA     1,DL
         1 001310   200014 755100                    STA     DCWX,,AUTO

      438     5952    4                    END;

PL6.E3A0      #001=NIO$QUE File=NIO$QUE.:E05TSI                                  WED 07/30/97 03:34 Page:66
   5952  1 001311   001321 710000 1                  TRA     s:5956

      439     5953    4                 ELSE DO;

      440     5954    4                    NI$REQ.PCW=(FUNC & %IDCWMASK) | %CONCAT(IDCWCONT,'000000000600'O);

   5954  1 001312   200016 236100                    LDQ     FUNC,,AUTO
         1 001313   000006 376000 0                  ANQ     6
         1 001314   000044 737000                    LLS     36
         1 001315   000000 236003                    LDQ     0,DU
         1 001316   000012 277000 0                  ORAQ    10
         1 001317   200017 473500                    LDP3    IOS$,,AUTO
         1 001320   300012 757100                    STAQ    10,,PR3

      441     5955    4                    END;

      442     5956    3                 NI$REQ.DCW(DCWX)=BINBIT(SEEK.WA*%BITBIN('1000000'O)+1,36);

   5956  1 001321   200031 236100                    LDQ     SEEK$,,AUTO
         1 001322   777777 376003                    ANQ     -1,DU
         1 001323   000001 036007                    ADLQ    1,DL
         1 001324   200014 720100                    LXL0    DCWX,,AUTO
         1 001325   300002 756110                    STQ     2,X0,PR3

      443     5957    3                 DCWX=DCWX+1;

   5957  1 001326   200014 054100                    AOS     DCWX,,AUTO

      444     5958    3                 FUNC.DC=FUNC.DC2;

   5958  1 001327   200016 236100                    LDQ     FUNC,,AUTO
         1 001330   000014 736000                    QLS     12
         1 001331   200016 752140                    STCQ    FUNC,'40'O,AUTO

      445     5959    4                 IF RTN~=%BITBIN(RTN_DP_WRZERO) THEN DO;

   5959  1 001332   200027 235100                    LDA     RTN,,AUTO
PL6.E3A0      #001=NIO$QUE File=NIO$QUE.:E05TSI                                  WED 07/30/97 03:34 Page:67
         1 001333   000024 115007                    CMPA    20,DL
         1 001334   001355 600000 1                  TZE     s:5968

      446     5960    5                    IF PTP~=0 AND NOT HW_IMX THEN DO; /* DATA: REAL->PAGED */

   5960  1 001335   200024 236100                    LDQ     PTP,,AUTO
         1 001336   001354 600000 1                  TZE     s:5965
         1 001337   000000 234000 xsym               SZN     HW_IMX
         1 001340   001354 604000 1                  TMI     s:5965

      447     5961    5                       PNTR$=ADDR(NI$REQ.DCW(DCWX+1));

   5961  1 001341   200014 236100                    LDQ     DCWX,,AUTO
         1 001342   000022 736000                    QLS     18
         1 001343   000003 036003                    ADLQ    3,DU
         1 001344   200017 036100                    ADLQ    IOS$,,AUTO
         1 001345   200022 756100                    STQ     PNTR$,,AUTO

      448     5962    5                       NI$REQ.DCW(DCWX)=BINBIT(PNTR.WA,18) | %TDCWM3A;

   5962  1 001346   200022 236100                    LDQ     PNTR$,,AUTO
         1 001347   777777 376003                    ANQ     -1,DU
         1 001350   000014 276000 0                  ORQ     12
         1 001351   200014 720100                    LXL0    DCWX,,AUTO
         1 001352   300002 756110                    STQ     2,X0,PR3

      449     5963    5                       DCWX=DCWX+1;

   5963  1 001353   200014 054100                    AOS     DCWX,,AUTO

      450     5964    5                       END;

      451     5965    4                    GOTO RTN_STD;

   5965  1 001354   001446 710000 1                  TRA     RTN_STD

      452     5966    4                    END;
PL6.E3A0      #001=NIO$QUE File=NIO$QUE.:E05TSI                                  WED 07/30/97 03:34 Page:68
      453     5967    4                 ELSE DO;

      454     5968    4                    NI$REQ.IDCW(DCWX)=(FUNC & %IDCWMASK) | %IDCWBITS;

   5968  1 001355   200016 236100                    LDQ     FUNC,,AUTO
         1 001356   000006 376000 0                  ANQ     6
         1 001357   000007 276000 0                  ORQ     7
         1 001360   200014 720100                    LXL0    DCWX,,AUTO
         1 001361   300002 756110                    STQ     2,X0,PR3

      455     5969    4                    IF HW_IMX THEN

   5969  1 001362   000000 234000 xsym               SZN     HW_IMX
         1 001363   001367 605000 1                  TPL     s:5971

      456     5970    4                       NI$REQ.IDCW.DATA.BASE(DCWX)=%IMX_IOS_BASE;

   5970  1 001364   000007 376000 2                  ANQ     7
         1 001365   000020 276003                    ORQ     16,DU
         1 001366   300002 756110                    STQ     2,X0,PR3

      457     5971    4                    DCWX=DCWX+1;

   5971  1 001367   200014 054100                    AOS     DCWX,,AUTO

      458     5972    5                    DO WHILE(BUFSIZE>%(%DCWTALLYMAX*4+4));

   5972  1 001370   200006 236100                    LDQ     BUFSIZE,,AUTO
         1 001371   040004 116007                    CMPQ    16388,DL
         1 001372   001412 604400 1                  TMOZ    s:5978

      459     5973    5                       NI$REQ.DCW(DCWX)=%IONTPDCW;

   5973  1 001373   000015 236000 0                  LDQ     13
         1 001374   200017 470500                    LDP0    IOS$,,AUTO
         1 001375   200014 720100                    LXL0    DCWX,,AUTO
         1 001376   000002 756110                    STQ     2,X0,PR0
PL6.E3A0      #001=NIO$QUE File=NIO$QUE.:E05TSI                                  WED 07/30/97 03:34 Page:69

      460     5974    5                       DCWX=DCWX+1;

   5974  1 001377   200014 054100                    AOS     DCWX,,AUTO

      461     5975    5                       BUFSIZE=BUFSIZE-%(%DCWTALLYMAX*4);

   5975  1 001400   040000 336007                    LCQ     16384,DL
         1 001401   200006 056100                    ASQ     BUFSIZE,,AUTO

      462     5976    5                       IF DCWX=%DCWXMAX THEN CALL CHAINIOS ALTRET(NQPKTS);

   5976  1 001402   200014 235100                    LDA     DCWX,,AUTO
         1 001403   000007 115007                    CMPA    7,DL
         1 001404   001407 601000 1                  TNZ     s:5977

   5976  1 001405   002307 701000 1                  TSX1    CHAINIOS
         1 001406   002240 702000 1                  TSX2    NQPKTS

      463     5977    5                       END;

   5977  1 001407   200006 235100                    LDA     BUFSIZE,,AUTO
         1 001410   040004 115007                    CMPA    16388,DL
         1 001411   001373 605400 1                  TPNZ    s:5973

      464     5978    5                    IF BUFSIZE>4 THEN DO;

   5978  1 001412   200006 235100                    LDA     BUFSIZE,,AUTO
         1 001413   000004 115007                    CMPA    4,DL
         1 001414   001432 604400 1                  TMOZ    s:5983

      465     5979    5                       NI$REQ.DCW(DCWX)=%IONTPDCW | BINBIT(BUFSIZE/4-1,36);

   5979  1 001415   200006 236100                    LDQ     BUFSIZE,,AUTO
         1 001416   000004 506007                    DIV     4,DL
         1 001417   000001 136007                    SBLQ    1,DL
         1 001420   000015 276000 0                  ORQ     13
PL6.E3A0      #001=NIO$QUE File=NIO$QUE.:E05TSI                                  WED 07/30/97 03:34 Page:70
         1 001421   200017 470500                    LDP0    IOS$,,AUTO
         1 001422   200014 720100                    LXL0    DCWX,,AUTO
         1 001423   000002 756110                    STQ     2,X0,PR0

      466     5980    5                       DCWX=DCWX+1;

   5980  1 001424   200014 054100                    AOS     DCWX,,AUTO

      467     5981    5                       IF DCWX=%DCWXMAX THEN CALL CHAINIOS ALTRET(NQPKTS);

   5981  1 001425   200014 235100                    LDA     DCWX,,AUTO
         1 001426   000007 115007                    CMPA    7,DL
         1 001427   001432 601000 1                  TNZ     s:5983

   5981  1 001430   002307 701000 1                  TSX1    CHAINIOS
         1 001431   002240 702000 1                  TSX2    NQPKTS

      468     5982    5                       END;

      469     5983    4                    PNTR$=ADDR(NI$REQ.DCW(%DCWXMAX));

   5983  1 001432   200017 236100                    LDQ     IOS$,,AUTO
         1 001433   000011 036003                    ADLQ    9,DU
         1 001434   200022 756100                    STQ     PNTR$,,AUTO

      470     5984    4                    NI$REQ.DCW(DCWX)=BINBIT(PNTR.WA*%BITBIN('1000000'O)+1,36);

   5984  1 001435   200022 236100                    LDQ     PNTR$,,AUTO
         1 001436   777777 376003                    ANQ     -1,DU
         1 001437   000001 036007                    ADLQ    1,DL
         1 001440   200017 470500                    LDP0    IOS$,,AUTO
         1 001441   200014 720100                    LXL0    DCWX,,AUTO
         1 001442   000002 756110                    STQ     2,X0,PR0

      471     5985    4                    END;

   5985  1 001443   001775 710000 1                  TRA     s:6064
PL6.E3A0      #001=NIO$QUE File=NIO$QUE.:E05TSI                                  WED 07/30/97 03:34 Page:71

      472     5986    3               CASE(%BITBIN(RTN_STD));

      473     5987    3   RTN_STD0:     N$REQ.IOFLG.LPW23='1'B;

   5987  1 001444   020000 236007       RTN_STD0     LDQ     8192,DL
         1 001445   000004 256100                    ORSQ    4,,PR0

      474     5988    4   RTN_STD:      IF PSIA OR DCWX>0 THEN DO;

   5988  1 001446   200023 234100       RTN_STD      SZN     PSIA,,AUTO
         1 001447   001452 604000 1                  TMI     s:5989
         1 001450   200014 235100                    LDA     DCWX,,AUTO
         1 001451   001505 604400 1                  TMOZ    s:5999

      475     5989    4                    NI$REQ.IDCW(DCWX)=(FUNC & %IDCWMASK) | %IDCWBITS;

   5989  1 001452   200016 236100                    LDQ     FUNC,,AUTO
         1 001453   000006 376000 0                  ANQ     6
         1 001454   000007 276000 0                  ORQ     7
         1 001455   200017 473500                    LDP3    IOS$,,AUTO
         1 001456   200014 720100                    LXL0    DCWX,,AUTO
         1 001457   300002 756110                    STQ     2,X0,PR3

      476     5990    4                    IF HW_IMX THEN

   5990  1 001460   000000 234000 xsym               SZN     HW_IMX
         1 001461   001470 605000 1                  TPL     s:5992

      477     5991    4                       NI$REQ.IDCW.DATA.BASE(DCWX)=BUF_BASE;

   5991  1 001462   200007 236100                    LDQ     BUF_BASE,,AUTO
         1 001463   000025 736000                    QLS     21
         1 001464   300002 676110                    ERQ     2,X0,PR3
         1 001465   000030 376003                    ANQ     24,DU
         1 001466   300002 656110                    ERSQ    2,X0,PR3
         1 001467   001503 710000 1                  TRA     s:5996
PL6.E3A0      #001=NIO$QUE File=NIO$QUE.:E05TSI                                  WED 07/30/97 03:34 Page:72

      478     5992    5                    ELSE IF PTP=0 AND NOT NOBUF THEN DO;

   5992  1 001470   200024 235100                    LDA     PTP,,AUTO
         1 001471   001503 601000 1                  TNZ     s:5996
         1 001472   200021 234100                    SZN     NOBUF,,AUTO
         1 001473   001503 604000 1                  TMI     s:5996

      479     5993    5                          NI$REQ.IDCW.EXTA(DCWX)=BUFREAL.EXTA;

   5993  1 001474   200004 236100                    LDQ     BUFADDR,,AUTO
         1 001475   000002 772000                    QRL     2
         1 001476   300002 676110                    ERQ     2,X0,PR3
         1 001477   000077 376003                    ANQ     63,DU
         1 001500   300002 656110                    ERSQ    2,X0,PR3

      480     5994    5                          NI$REQ.IDCW.EC(DCWX)='1'B;

   5994  1 001501   040000 236007                    LDQ     16384,DL
         1 001502   300002 256110                    ORSQ    2,X0,PR3

      481     5995    5                          END;

      482     5996    4                    DCWX=DCWX+1;

   5996  1 001503   200014 054100                    AOS     DCWX,,AUTO

      483     5997    4                    END;

   5997  1 001504   001526 710000 1                  TRA     s:6007

      484     5998    4                 ELSE DO;

      485     5999    4                    NI$REQ.PCW=(FUNC & %IDCWMASK) | %IDCWBITS;

   5999  1 001505   200016 236100                    LDQ     FUNC,,AUTO
         1 001506   000006 376000 0                  ANQ     6
PL6.E3A0      #001=NIO$QUE File=NIO$QUE.:E05TSI                                  WED 07/30/97 03:34 Page:73
         1 001507   000007 276000 0                  ORQ     7
         1 001510   000044 737000                    LLS     36
         1 001511   000000 236003                    LDQ     0,DU
         1 001512   200017 473500                    LDP3    IOS$,,AUTO
         1 001513   300012 757100                    STAQ    10,,PR3

      486     6000    5                    IF PTP=0 AND NOT NOBUF THEN DO;

   6000  1 001514   200024 235100                    LDA     PTP,,AUTO
         1 001515   001524 601000 1                  TNZ     s:6004
         1 001516   200021 234100                    SZN     NOBUF,,AUTO
         1 001517   001524 604000 1                  TMI     s:6004

      487     6001    5                       NI$REQ.PCW.AEX=BUFREAL.EXTA;

   6001  1 001520   200004 236100                    LDQ     BUFADDR,,AUTO
         1 001521   000002 772000                    QRL     2
         1 001522   300012 752110                    STCQ    10,'10'O,PR3

      488     6002    5                       END;

   6002  1 001523   001526 710000 1                  TRA     s:6007

      489     6003    5                    ELSE DO;

      490     6004    5                       NI$REQ.PCW.FLAGS='600'O;

   6004  1 001524   000600 236007                    LDQ     384,DL
         1 001525   300013 552104                    STBQ    11,'04'O,PR3

      491     6005    5                       END;

      492     6006    4                    END;

      493     6007    4                 IF NOT NOBUF THEN DO;

   6007  1 001526   200021 234100                    SZN     NOBUF,,AUTO
PL6.E3A0      #001=NIO$QUE File=NIO$QUE.:E05TSI                                  WED 07/30/97 03:34 Page:74
         1 001527   001775 604000 1                  TMI     s:6064

      494     6008    5                    IF PTP=0 THEN DO;

   6008  1 001530   200024 235100                    LDA     PTP,,AUTO
         1 001531   001541 601000 1                  TNZ     s:6014

      495     6009    5                       N$REQ.IOFLG.LPW23='0'B;

   6009  1 001532   000006 236000 2                  LDQ     6
         1 001533   000004 356100                    ANSQ    4,,PR0

      496     6010    5                       IF NOT HW_IMX THEN

   6010  1 001534   000000 234000 xsym               SZN     HW_IMX
         1 001535   001572 604000 1                  TMI     s:6022

      497     6011    5                          NI$REQ.PCW.FLAGS='0'B;

   6011  1 001536   000000 236003                    LDQ     0,DU
         1 001537   300013 552104                    STBQ    11,'04'O,PR3

      498     6012    5                       END;

   6012  1 001540   001572 710000 1                  TRA     s:6022

      499     6013    5                    ELSE DO;

      500     6014    5                       IF HW_IOP THEN

   6014  1 001541   000000 234000 xsym               SZN     HW_IOP
         1 001542   001550 605000 1                  TPL     s:6016

      501     6015    5                         NI$REQ.IOP_PTAW=BINBIT(PTP,27)|%IOP_PTA1_INIT; /* PHYSADDR */

   6015  1 001543   200024 236100                    LDQ     PTP,,AUTO
         1 001544   000011 736000                    QLS     9
PL6.E3A0      #001=NIO$QUE File=NIO$QUE.:E05TSI                                  WED 07/30/97 03:34 Page:75
         1 001545   000000 276000 0                  ORQ     0
         1 001546   300001 756100                    STQ     1,,PR3
         1 001547   001555 710000 1                  TRA     s:6018

      502     6016    5                       ELSE IF NOT HW_IMX THEN

   6016  1 001550   000000 234000 xsym               SZN     HW_IMX
         1 001551   001555 604000 1                  TMI     s:6018

      503     6017    5                             NI$REQ.PCW.PTP=PTP;

   6017  1 001552   200024 236100                    LDQ     PTP,,AUTO
         1 001553   000011 736000                    QLS     9
         1 001554   300013 552130                    STBQ    11,'30'O,PR3

      504     6018    5                       N$REQ.LPWX.BASE=BUFVIRT.BASE;

   6018  1 001555   200004 236100                    LDQ     BUFADDR,,AUTO
         1 001556   000003 772000                    QRL     3
         1 001557   000000 620006                    EAX0    0,QL
         1 001560   000011 740100                    STX0    9,,PR0

      505     6019    5                       N$REQ.LPWX.BOUND=(BUFSIZE + BUFVIRT.BYT + 3) / 4;

   6019  1 001561   200004 236100                    LDQ     BUFADDR,,AUTO
         1 001562   000007 376007                    ANQ     7,DL
         1 001563   200006 036100                    ADLQ    BUFSIZE,,AUTO
         1 001564   000003 036007                    ADLQ    3,DL
         1 001565   000004 506007                    DIV     4,DL
         1 001566   000000 621006                    EAX1    0,QL
         1 001567   000011 441100                    SXL1    9,,PR0

      506     6020    5                       BUFVIRT.BASE=0;

   6020  1 001570   000007 236007                    LDQ     7,DL
         1 001571   200004 356100                    ANSQ    BUFADDR,,AUTO

PL6.E3A0      #001=NIO$QUE File=NIO$QUE.:E05TSI                                  WED 07/30/97 03:34 Page:76
      507     6021    5                       END;

      508     6022    4                    NI$REQ.DCW.ICP(DCWX)=BUFREAL.BYT;

   6022  1 001572   200014 720100                    LXL0    DCWX,,AUTO
         1 001573   200004 236100                    LDQ     BUFADDR,,AUTO
         1 001574   000003 376007                    ANQ     3,DL
         1 001575   000017 736000                    QLS     15
         1 001576   300002 676110                    ERQ     2,X0,PR3
         1 001577   700000 376007                    ANQ     -32768,DL
         1 001600   300002 656110                    ERSQ    2,X0,PR3

      509     6023    4                    BUFOFFSET=BUFREAL.ADR;

   6023  1 001601   200004 236100                    LDQ     BUFADDR,,AUTO
         1 001602   000002 772000                    QRL     2
         1 001603   777777 376007                    ANQ     -1,DL
         1 001604   200005 756100                    STQ     BUFOFFSET,,AUTO

      510     6024    4                    SIZE=(BUFSIZE + BUFREAL.BYT + 3) / 4;

   6024  1 001605   200004 236100                    LDQ     BUFADDR,,AUTO
         1 001606   000003 376007                    ANQ     3,DL
         1 001607   200006 036100                    ADLQ    BUFSIZE,,AUTO
         1 001610   000003 036007                    ADLQ    3,DL
         1 001611   000004 506007                    DIV     4,DL
         1 001612   200032 756100                    STQ     SIZE,,AUTO

      511     6025    5                    DO WHILE(SIZE>%DCWTALLYMAX);

   6025  1 001613   010001 116007                    CMPQ    4097,DL
         1 001614   001644 602000 1                  TNC     s:6033

      512     6026    5                       NI$REQ.DCW.FWA(DCWX)=BUFOFFSET;

   6026  1 001615   200005 720100                    LXL0    BUFOFFSET,,AUTO
         1 001616   200017 470500                    LDP0    IOS$,,AUTO
PL6.E3A0      #001=NIO$QUE File=NIO$QUE.:E05TSI                                  WED 07/30/97 03:34 Page:77
         1 001617   200014 721100                    LXL1    DCWX,,AUTO
         1 001620   000002 740111                    STX0    2,X1,PR0

      513     6027    5                       NI$REQ.DCW.TYPE(DCWX)=%DCW_IOTP;

   6027  1 001621   000002 236111                    LDQ     2,X1,PR0
         1 001622   000012 376000 2                  ANQ     10
         1 001623   010000 276007                    ORQ     4096,DL
         1 001624   000002 756111                    STQ     2,X1,PR0

      514     6028    5                       DCWX=DCWX+1;

   6028  1 001625   200014 054100                    AOS     DCWX,,AUTO

      515     6029    5                       SIZE=SIZE-%DCWTALLYMAX;

   6029  1 001626   200032 235100                    LDA     SIZE,,AUTO
         1 001627   010000 135007                    SBLA    4096,DL
         1 001630   200032 755100                    STA     SIZE,,AUTO

      516     6030    5                       BUFOFFSET=BUFOFFSET+%DCWTALLYMAX;

   6030  1 001631   200005 236100                    LDQ     BUFOFFSET,,AUTO
         1 001632   010000 036007                    ADLQ    4096,DL
         1 001633   200005 756100                    STQ     BUFOFFSET,,AUTO

      517     6031    5                       IF DCWX=%DCWXMAX THEN CALL CHAINIOS ALTRET(NQPKTS);

   6031  1 001634   200014 235100                    LDA     DCWX,,AUTO
         1 001635   000007 115007                    CMPA    7,DL
         1 001636   001641 601000 1                  TNZ     s:6032

   6031  1 001637   002307 701000 1                  TSX1    CHAINIOS
         1 001640   002240 702000 1                  TSX2    NQPKTS

      518     6032    5                       END;

PL6.E3A0      #001=NIO$QUE File=NIO$QUE.:E05TSI                                  WED 07/30/97 03:34 Page:78
   6032  1 001641   200032 235100                    LDA     SIZE,,AUTO
         1 001642   010001 115007                    CMPA    4097,DL
         1 001643   001615 603000 1                  TRC     s:6026

      519     6033    4                    NI$REQ.DCW.FWA(DCWX)=BUFOFFSET;

   6033  1 001644   200005 720100                    LXL0    BUFOFFSET,,AUTO
         1 001645   200017 470500                    LDP0    IOS$,,AUTO
         1 001646   200014 721100                    LXL1    DCWX,,AUTO
         1 001647   000002 740111                    STX0    2,X1,PR0

      520     6034    4                    NI$REQ.DCW.TALLY(DCWX)=SIZE;

   6034  1 001650   200032 236100                    LDQ     SIZE,,AUTO
         1 001651   000002 676111                    ERQ     2,X1,PR0
         1 001652   007777 376007                    ANQ     4095,DL
         1 001653   000002 656111                    ERSQ    2,X1,PR0

      521     6035    4                    NI$REQ.DCW.TYPE(DCWX)=%DCW_IOTD;

   6035  1 001654   000012 236000 2                  LDQ     10
         1 001655   000002 356111                    ANSQ    2,X1,PR0

      522     6036    4                    END;

   6036  1 001656   001775 710000 1                  TRA     s:6064

      523     6037    3               CASE(%BITBIN(RTN_MSOS_DUAL)); /* HW_IOP */

      524     6038    3                 PNTR$=N$REQ.BUF$; /* BUF$-> an IOS packet being used as a buffer */

   6038  1 001657   000005 236100                    LDQ     5,,PR0
         1 001660   200022 756100                    STQ     PNTR$,,AUTO

      525     6039    3                 NI$REQ.IDCW(0)=(FUNC & %IDCWMASK) | %IDCWCONT;

   6039  1 001661   200016 236100                    LDQ     FUNC,,AUTO
PL6.E3A0      #001=NIO$QUE File=NIO$QUE.:E05TSI                                  WED 07/30/97 03:34 Page:79
         1 001662   000006 376000 0                  ANQ     6
         1 001663   000010 276000 0                  ORQ     8
         1 001664   200017 473500                    LDP3    IOS$,,AUTO
         1 001665   300002 756100                    STQ     2,,PR3

      526     6040    3                 NI$REQ.DCW.FWA(1)=PNTR.WA+2;

   6040  1 001666   200022 220100                    LDX0    PNTR$,,AUTO
         1 001667   000002 621010                    EAX1    2,X0
         1 001670   300003 741100                    STX1    3,,PR3

      527     6041    3                 NI$REQ.DCW.TYPE(1)=%DCW_IOTD;

   6041  1 001671   000012 236000 2                  LDQ     10
         1 001672   300003 356100                    ANSQ    3,,PR3

      528     6042    3                 NI$REQ.DCW.TALLY(1)=4;

   6042  1 001673   000004 236007                    LDQ     4,DL
         1 001674   300003 752103                    STCQ    3,'03'O,PR3

      529     6043    3                 NI$REQ.IDCW(2)=(FUNC & %IDCWMASK) | %IDCWBITS;

   6043  1 001675   200016 236100                    LDQ     FUNC,,AUTO
         1 001676   000006 376000 0                  ANQ     6
         1 001677   000007 276000 0                  ORQ     7
         1 001700   300004 756100                    STQ     4,,PR3

      530     6044    3                 NI$REQ.IDCW.DC(2)=FUNC.DC2;

   6044  1 001701   200016 236100                    LDQ     FUNC,,AUTO
         1 001702   000014 736000                    QLS     12
         1 001703   300004 752140                    STCQ    4,'40'O,PR3

      531     6045    3                 NI$REQ.DCW.FWA(3)=PNTR.WA+6;

   6045  1 001704   000006 622010                    EAX2    6,X0
PL6.E3A0      #001=NIO$QUE File=NIO$QUE.:E05TSI                                  WED 07/30/97 03:34 Page:80
         1 001705   300005 742100                    STX2    5,,PR3

      532     6046    3                 NI$REQ.DCW.TYPE(3)=%DCW_IOTD;

   6046  1 001706   000012 236000 2                  LDQ     10
         1 001707   300005 356100                    ANSQ    5,,PR3

      533     6047    3                 NI$REQ.DCW.TALLY(3)=4;

   6047  1 001710   000004 236007                    LDQ     4,DL
         1 001711   300005 752103                    STCQ    5,'03'O,PR3
         1 001712   001775 710000 1                  TRA     s:6064

      534     6048    3               CASE(%BITBIN(RTN_MCA_DUAL)); /* HW_IMX */

      535     6049    3                 N$REQ.LPWX.BASE=BUFVIRT.BASE;

   6049  1 001713   200004 236100                    LDQ     BUFADDR,,AUTO
         1 001714   000003 772000                    QRL     3
         1 001715   000000 620006                    EAX0    0,QL
         1 001716   000011 740100                    STX0    9,,PR0

      536     6050    3                 N$REQ.LPWX.BOUND=4096;

   6050  1 001717   010000 221003                    LDX1    4096,DU
         1 001720   000011 441100                    SXL1    9,,PR0

      537     6051    3                 BUFVIRT.BASE=0;

   6051  1 001721   000007 236007                    LDQ     7,DL
         1 001722   200004 356100                    ANSQ    BUFADDR,,AUTO

      538     6052    3                 NI$REQ.IDCW(0)=(FUNC & %IDCWMASK) | %IDCWCONT;

   6052  1 001723   200016 236100                    LDQ     FUNC,,AUTO
         1 001724   000006 376000 0                  ANQ     6
         1 001725   000010 276000 0                  ORQ     8
PL6.E3A0      #001=NIO$QUE File=NIO$QUE.:E05TSI                                  WED 07/30/97 03:34 Page:81
         1 001726   200017 473500                    LDP3    IOS$,,AUTO
         1 001727   300002 756100                    STQ     2,,PR3

      539     6053    3                 NI$REQ.IDCW.DATA.BASE(0)=BUF_BASE;

   6053  1 001730   200007 236100                    LDQ     BUF_BASE,,AUTO
         1 001731   000025 736000                    QLS     21
         1 001732   300002 676100                    ERQ     2,,PR3
         1 001733   000030 376003                    ANQ     24,DU
         1 001734   300002 656100                    ERSQ    2,,PR3

      540     6054    3                 NI$REQ.DCW.FWA(1)=BUFREAL.ADR;

   6054  1 001735   200004 236100                    LDQ     BUFADDR,,AUTO
         1 001736   000002 772000                    QRL     2
         1 001737   777777 376007                    ANQ     -1,DL
         1 001740   000000 620006                    EAX0    0,QL
         1 001741   300003 740100                    STX0    3,,PR3

      541     6055    3                 NI$REQ.DCW.TALLY(1)=(BUFSIZE+BUFREAL.BYT+3) / 4;

   6055  1 001742   200004 236100                    LDQ     BUFADDR,,AUTO
         1 001743   000003 376007                    ANQ     3,DL
         1 001744   200006 036100                    ADLQ    BUFSIZE,,AUTO
         1 001745   000003 036007                    ADLQ    3,DL
         1 001746   000004 506007                    DIV     4,DL
         1 001747   300003 752103                    STCQ    3,'03'O,PR3

      542     6056    3                 NI$REQ.DCW.TYPE(1)=%DCW_IOTD;

   6056  1 001750   000012 236000 2                  LDQ     10
         1 001751   300003 356100                    ANSQ    3,,PR3

      543     6057    3                 NI$REQ.IDCW(2)=(FUNC & %IDCWMASK) | %IDCWBITS;

   6057  1 001752   200016 236100                    LDQ     FUNC,,AUTO
         1 001753   000006 376000 0                  ANQ     6
PL6.E3A0      #001=NIO$QUE File=NIO$QUE.:E05TSI                                  WED 07/30/97 03:34 Page:82
         1 001754   000007 276000 0                  ORQ     7
         1 001755   300004 756100                    STQ     4,,PR3

      544     6058    3                 NI$REQ.IDCW.DC(2)=FUNC.DC2;

   6058  1 001756   200016 236100                    LDQ     FUNC,,AUTO
         1 001757   000014 736000                    QLS     12
         1 001760   300004 752140                    STCQ    4,'40'O,PR3

      545     6059    3                 NI$REQ.IDCW.DATA.BASE(2)=BUF_BASE;

   6059  1 001761   200007 236100                    LDQ     BUF_BASE,,AUTO
         1 001762   000025 736000                    QLS     21
         1 001763   300004 676100                    ERQ     4,,PR3
         1 001764   000030 376003                    ANQ     24,DU
         1 001765   300004 656100                    ERSQ    4,,PR3

      546     6060    3                 NI$REQ.DCW.FWA(3)=BUFREAL.ADR;

   6060  1 001766   200004 236100                    LDQ     BUFADDR,,AUTO
         1 001767   000002 772000                    QRL     2
         1 001770   777777 376007                    ANQ     -1,DL
         1 001771   000000 620006                    EAX0    0,QL
         1 001772   300005 740100                    STX0    5,,PR3

      547     6061    3                 NI$REQ.DCW.TYPE(3)=%DCW_IOTD;

   6061  1 001773   000012 236000 2                  LDQ     10
         1 001774   300005 356100                    ANSQ    5,,PR3

      548     6062                                                /* DCW.TALLY(3) is 4096 */
      549     6063    3               END;                        /* CASE RTN */

      550     6064    3              IF HW_IMX THEN DO;           /* PREPARE IMX MAILBOX */

   6064  1 001775   000000 234000 xsym               SZN     HW_IMX
         1 001776   002100 605000 1                  TPL     s:6081
PL6.E3A0      #001=NIO$QUE File=NIO$QUE.:E05TSI                                  WED 07/30/97 03:34 Page:83

      551     6065    4                 IF PTP~=0 THEN DO;

   6065  1 001777   200024 235100                    LDA     PTP,,AUTO
         1 002000   002035 600000 1                  TZE     s:6073

      552     6066    4                    NI$IMXMBX.PAGED_BASE(%IMX_IOS_BASE)=BINBIT(NI_IMXLO_PBASE,36);

   6066  1 002001   000000 236000 xsym               LDQ     NI_IMXLO_PBASE
         1 002002   200020 470500                    LDP0    MBX$,,AUTO
         1 002003   000002 756100                    STQ     2,,PR0

      553     6067    4                    NI$IMXMBX.SIZE(%IMX_IOS_BASE)=(%IMXHI-%IMXLO+1)*1024 - 1;

   6067  1 002004   037777 220003                    LDX0    16383,DU
         1 002005   000005 740100                    STX0    5,,PR0

      554     6068    4                    NI$IMXMBX.PAGED_BASE.PTWADDR(BUF_BASE)=PTP;

   6068  1 002006   200007 721100                    LXL1    BUF_BASE,,AUTO
         1 002007   200024 236100                    LDQ     PTP,,AUTO
         1 002010   000012 736000                    QLS     10
         1 002011   000000 676111                    ERQ     0,X1,PR0
         1 002012   000013 376000 2                  ANQ     11
         1 002013   000000 656111                    ERSQ    0,X1,PR0

      555     6069    4                    NI$IMXMBX.PAGED_BASE.OFFSET(BUF_BASE)=N$REQ.LPWX.BASE*2;

   6069  1 002014   200003 471500                    LDP1    @N$REQ,,AUTO
         1 002015   100011 236100                    LDQ     9,,PR1
         1 002016   000021 772000                    QRL     17
         1 002017   000014 376000 2                  ANQ     12
         1 002020   000000 676111                    ERQ     0,X1,PR0
         1 002021   001777 376007                    ANQ     1023,DL
         1 002022   000000 656111                    ERSQ    0,X1,PR0

      556     6070    4                    NI$IMXMBX.SIZE(BUF_BASE)=N$REQ.LPWX.BOUND-1;
PL6.E3A0      #001=NIO$QUE File=NIO$QUE.:E05TSI                                  WED 07/30/97 03:34 Page:84

   6070  1 002023   100011 236100                    LDQ     9,,PR1
         1 002024   777777 376007                    ANQ     -1,DL
         1 002025   000001 136007                    SBLQ    1,DL
         1 002026   200040 756100                    STQ     TDCW$+1,,AUTO
         1 002027   200007 235100                    LDA     BUF_BASE,,AUTO
         1 002030   000001 735000                    ALS     1
         1 002031   000105 101500                    MRL     fill='000'O
         1 002032   200040 000004                    ADSC9   TDCW$+1,,AUTO            cn=0,n=4
         1 002033   000004 000002                    ADSC9   4,A,PR0                  cn=0,n=2

      557     6071    4                    END;

   6071  1 002034   002072 710000 1                  TRA     s:6078

      558     6072    4                 ELSE DO;

      559     6073    4                   NI$IMXMBX.NPAGED_IND.PHYS(%IMX_IOS_BASE)=B$MPT$->B$MAP.RPN(%IMXLO)*
              6073                             1024;

   6073  1 002035   200020 470500                    LDP0    MBX$,,AUTO
         1 002036   000000 471400 xsym               LDP1    B$MPT$
         1 002037   100510 236100                    LDQ     328,,PR1
         1 002040   000010 772000                    QRL     8
         1 002041   000015 376000 2                  ANQ     13
         1 002042   000002 676100                    ERQ     2,,PR0
         1 002043   000016 376000 2                  ANQ     14
         1 002044   000002 656100                    ERSQ    2,,PR0

      560     6074    4                    NI$IMXMBX.SIZE(%IMX_IOS_BASE)=(%IMXHI-%IMXLO+1)*1024 - 1;

   6074  1 002045   037777 220003                    LDX0    16383,DU
         1 002046   000005 740100                    STX0    5,,PR0

      561     6075    4                   NI$IMXMBX.NPAGED_IND.PHYS(BUF_BASE)=BUFREAL.EXTA*%BITBIN('1000000'O
              6075                             );

PL6.E3A0      #001=NIO$QUE File=NIO$QUE.:E05TSI                                  WED 07/30/97 03:34 Page:85
   6075  1 002047   200007 721100                    LXL1    BUF_BASE,,AUTO
         1 002050   200004 236100                    LDQ     BUFADDR,,AUTO
         1 002051   000002 772000                    QRL     2
         1 002052   177777 376003                    ANQ     65535,DU
         1 002053   000000 676111                    ERQ     0,X1,PR0
         1 002054   000016 376000 2                  ANQ     14
         1 002055   000000 656111                    ERSQ    0,X1,PR0

      562     6076    4                    NI$IMXMBX.SIZE(BUF_BASE)=(BUFSIZE+BUFREALB.BYTADR+3)/4 - 1;

   6076  1 002056   200004 236100                    LDQ     BUFADDR,,AUTO
         1 002057   000017 376000 2                  ANQ     15
         1 002060   200006 036100                    ADLQ    BUFSIZE,,AUTO
         1 002061   000003 036007                    ADLQ    3,DL
         1 002062   000004 506007                    DIV     4,DL
         1 002063   000001 136007                    SBLQ    1,DL
         1 002064   200040 756100                    STQ     TDCW$+1,,AUTO
         1 002065   200007 235100                    LDA     BUF_BASE,,AUTO
         1 002066   000001 735000                    ALS     1
         1 002067   000105 101500                    MRL     fill='000'O
         1 002070   200040 000004                    ADSC9   TDCW$+1,,AUTO            cn=0,n=4
         1 002071   000004 000002                    ADSC9   4,A,PR0                  cn=0,n=2

      563     6077    4                    END;

      564     6078    3                 PNTR$=ADDR(N$REQ.IOS$->NI$REQ.DCW(0));

   6078  1 002072   200003 471500                    LDP1    @N$REQ,,AUTO
         1 002073   100012 473500                    LDP3    10,,PR1
         1 002074   300002 634500                    EPPR4   2,,PR3
         1 002075   200022 454500                    STP4    PNTR$,,AUTO

      565     6079    3                 NI$IMXMBX.LPW.DCW_ADDR=PNTR.WA;

   6079  1 002076   200022 222100                    LDX2    PNTR$,,AUTO
         1 002077   000007 742100                    STX2    7,,PR0

PL6.E3A0      #001=NIO$QUE File=NIO$QUE.:E05TSI                                  WED 07/30/97 03:34 Page:86
      566     6080    3                 END;

      567     6081    2              IF QUE=%QUE_DCWBLD THEN RETURN;

   6081  1 002100   200025 235100                    LDA     QUE,,AUTO
         1 002101   000001 115007                    CMPA    1,DL
         1 002102   002104 601000 1                  TNZ     s:6082

   6081  1 002103   000000 702200 xent               TSX2  ! X66_ARET

      568     6082    2              SCHED=DVT.SCHED;

   6082  1 002104   200015 470500                    LDP0    DVT$,,AUTO
         1 002105   000000 236100                    LDQ     0,,PR0
         1 002106   200030 756100                    STQ     SCHED,,AUTO

      569     6083    2              CALL SCHED(N$REQ);

   6083  1 002107   200003 630500                    EPPR0   @N$REQ,,AUTO
         1 002110   200030 220100                    LDX0    SCHED,,AUTO
         1 002111   000017 631400 xsym               EPPR1   B_VECTNIL+15
         1 002112   000000 701010                    TSX1    0,X0
         1 002113   000000 011000                    NOP     0
         1 002114   002203 710000 1                  TRA     s:6111

      570     6084
      571     6085    2            CASE(NK_QTRM);

      572     6086    2              N$REQ.COMP=%COMP_COM;

   6086  1 002115   200003 471500                    LDP1    @N$REQ,,AUTO
         1 002116   100027 236100                    LDQ     23,,PR1
         1 002117   000020 376000 2                  ANQ     16
         1 002120   001000 276007                    ORQ     512,DL
         1 002121   100027 756100                    STQ     23,,PR1

      573     6087                   %ENQUEUE(P#=N$REQ,Q#=DCT.SQ$);
PL6.E3A0      #001=NIO$QUE File=NIO$QUE.:E05TSI                                  WED 07/30/97 03:34 Page:87

   6088  1 002122   200013 236100                    LDQ     DCT$,,AUTO
         1 002123   000001 036003                    ADLQ    1,DU
         1 002124   200003 235100                    LDA     @N$REQ,,AUTO
         1 002125   200040 757100                    STAQ    TDCW$+1,,AUTO
         1 002126   200040 630500                    EPPR0   TDCW$+1,,AUTO
         1 002127   000020 631400 xsym               EPPR1   B_VECTNIL+16
         1 002130   000000 701000 xent               TSX1    NIM$ENQUEUE
         1 002131   000000 011000                    NOP     0

      574     6090    2              CALL SC_NIONRD;

   6090  1 002132   000000 713400 xsym               CLIMB   SC_NIONRD
         1 002133   000000 600000 xsid               climb   nvectors=         0
         1 002134   002203 710000 1                  TRA     s:6111

      575     6091        /*S* SCREECH_CODE: NIO-S$NRD-7
      576     6092             TYPE: SCREECH
      577     6093             MESSAGE: I/O TO REMOTE DEVICES IS NOT IMPLEMENTED
      578     6094        */
      579     6095
      580     6096    2            CASE(NK_CGDCB);

      581     6097    2              N$REQ.IOQFLG.IOQUED = '0'B ;

   6097  1 002135   200003 471500                    LDP1    @N$REQ,,AUTO
         1 002136   000000 236000 2                  LDQ     0
         1 002137   100033 356100                    ANSQ    27,,PR1

      582     6098    2              N$REQ.COMP=%COMP_COM;

   6098  1 002140   100027 236100                    LDQ     23,,PR1
         1 002141   000020 376000 2                  ANQ     16
         1 002142   001000 276007                    ORQ     512,DL
         1 002143   100027 756100                    STQ     23,,PR1

      583     6099    3              DO CASE (N$REQ.FC);
PL6.E3A0      #001=NIO$QUE File=NIO$QUE.:E05TSI                                  WED 07/30/97 03:34 Page:88

   6099  1 002144   100003 720100                    LXL0    3,,PR1
         1 002145   000777 360003                    ANX0    511,DU
         1 002146   000016 100003                    CMPX0   14,DU
         1 002147   002151 602010 1                  TNC     s:6099+5,X0
         1 002150   002174 710000 1                  TRA     s:6103
         1 002151   002174 710000 1                  TRA     s:6103
         1 002152   002174 710000 1                  TRA     s:6103
         1 002153   002174 710000 1                  TRA     s:6103
         1 002154   002167 710000 1                  TRA     s:6101
         1 002155   002174 710000 1                  TRA     s:6103
         1 002156   002167 710000 1                  TRA     s:6101
         1 002157   002174 710000 1                  TRA     s:6103
         1 002160   002174 710000 1                  TRA     s:6103
         1 002161   002174 710000 1                  TRA     s:6103
         1 002162   002174 710000 1                  TRA     s:6103
         1 002163   002174 710000 1                  TRA     s:6103
         1 002164   002174 710000 1                  TRA     s:6103
         1 002165   002174 710000 1                  TRA     s:6103
         1 002166   002167 710000 1                  TRA     s:6101

      584     6100    3               CASE (%N_WRITE,%N_WRASC,%N_WRBIN);

      585     6101    3                 CALL KQW$WRITE (N$REQ);

   6101  1 002167   200003 630500                    EPPR0   @N$REQ,,AUTO
         1 002170   000017 631400 xsym               EPPR1   B_VECTNIL+15
         1 002171   000000 701000 xent               TSX1    KQW$WRITE
         1 002172   000000 011000                    NOP     0
         1 002173   002200 710000 1                  TRA     s:6105

      586     6102    3               CASE (ELSE);

      587     6103    3                 CALL KQR$READ (N$REQ);

   6103  1 002174   200003 630500                    EPPR0   @N$REQ,,AUTO
         1 002175   000017 631400 xsym               EPPR1   B_VECTNIL+15
PL6.E3A0      #001=NIO$QUE File=NIO$QUE.:E05TSI                                  WED 07/30/97 03:34 Page:89
         1 002176   000000 701000 xent               TSX1    KQR$READ
         1 002177   000000 011000                    NOP     0

      588     6104    3               END;

      589     6105    2              RETURN;

   6105  1 002200   000000 702200 xent               TSX2  ! X66_ARET

      590     6106
      591     6107    2            CASE(ELSE);

      592     6108    2              CALL SC_NIONRD;

   6108  1 002201   000000 713400 xsym               CLIMB   SC_NIONRD
         1 002202   000000 600000 xsid               climb   nvectors=         0

      593     6109    2            END /* CASE DCT.RESCOD */;

      594     6110
      595     6111    1           IF N$REQ.OPFLG.WAIT AND N$REQ.OPFLG.USER AND QUE=%QUE_STD THEN

   6111  1 002203   200003 470500                    LDP0    @N$REQ,,AUTO
         1 002204   000004 236100                    LDQ     4,,PR0
         1 002205   000020 316007                    CANQ    16,DL
         1 002206   002237 600000 1                  TZE     s:6116
         1 002207   000400 316007                    CANQ    256,DL
         1 002210   002237 600000 1                  TZE     s:6116
         1 002211   200025 235100                    LDA     QUE,,AUTO
         1 002212   002237 601000 1                  TNZ     s:6116

      596     6112    1              IF N$REQ.DCB$ ~= ADDR(NIL) THEN

   6112  1 002213   000022 236100                    LDQ     18,,PR0
         1 002214   000001 116000 xsym               CMPQ    B_VECTNIL+1
         1 002215   002233 600000 1                  TZE     s:6115

PL6.E3A0      #001=NIO$QUE File=NIO$QUE.:E05TSI                                  WED 07/30/97 03:34 Page:90
      597     6113    1                 CALL SSR$REG(%SS_IIP,N$REQ.DCB$->F$DCB.FCN(N$REQ.NWIO));

   6113  1 002216   000022 471500                    LDP1    18,,PR0
         1 002217   000031 236100                    LDQ     25,,PR0
         1 002220   000021 772000                    QRL     17
         1 002221   000001 376007                    ANQ     1,DL
         1 002222   100074 500506                    A9BD    60,QL,PR1
         1 002223   200041 451500                    STP1    TDCW$+2,,AUTO
         1 002224   000021 236000 2                  LDQ     17
         1 002225   200040 756100                    STQ     TDCW$+1,,AUTO
         1 002226   200040 630500                    EPPR0   TDCW$+1,,AUTO
         1 002227   000020 631400 xsym               EPPR1   B_VECTNIL+16
         1 002230   000000 701000 xent               TSX1    SSR$REG
         1 002231   000000 011000                    NOP     0
         1 002232   002237 710000 1                  TRA     s:6116

      598     6114    1              ELSE
      599     6115    1                 CALL SSR$REG(%SS_IIP);

   6115  1 002233   000021 630400 2                  EPPR0   17
         1 002234   000017 631400 xsym               EPPR1   B_VECTNIL+15
         1 002235   000000 701000 xent               TSX1    SSR$REG
         1 002236   000000 011000                    NOP     0

      600     6116    1           RETURN;

   6116  1 002237   000000 702200 xent               TSX2  ! X66_ARET

      601     6117        /**/
      602     6118        /* BACK OUT AND ALTRETURN IF NO IOS PACKETS AVAILABLE */
      603     6119        /**/
      604     6120    1   NQPKTS:
      605     6121    1           N$REQ.IOQFLG.IOQUED = '0'B ;

   6121  1 002240   200003 470500       NQPKTS       LDP0    @N$REQ,,AUTO
         1 002241   000000 236000 2                  LDQ     0
         1 002242   000033 356100                    ANSQ    27,,PR0
PL6.E3A0      #001=NIO$QUE File=NIO$QUE.:E05TSI                                  WED 07/30/97 03:34 Page:91

      606     6122    2           IF N$REQ.IOFLG.IOS THEN DO;

   6122  1 002243   000004 236100                    LDQ     4,,PR0
         1 002244   040000 316007                    CANQ    16384,DL
         1 002245   002262 600000 1                  TZE     s:6127

      607     6123    2              CALL NIQ$RELS(N$REQ.IOS$);

   6123  1 002246   200003 236100                    LDQ     @N$REQ,,AUTO
         1 002247   000012 036003                    ADLQ    10,DU
         1 002250   200040 756100                    STQ     TDCW$+1,,AUTO
         1 002251   200040 630500                    EPPR0   TDCW$+1,,AUTO
         1 002252   000017 631400 xsym               EPPR1   B_VECTNIL+15
         1 002253   000000 701000 xent               TSX1    NIQ$RELS
         1 002254   000000 011000                    NOP     0

      608     6124    2              N$REQ.IOS$=ADDR(NIL);

   6124  1 002255   000001 236000 xsym               LDQ     B_VECTNIL+1
         1 002256   200003 470500                    LDP0    @N$REQ,,AUTO
         1 002257   000012 756100                    STQ     10,,PR0

      609     6125    2              N$REQ.IOFLG.IOS='0'B;

   6125  1 002260   000022 236000 2                  LDQ     18
         1 002261   000004 356100                    ANSQ    4,,PR0

      610     6126    2              END;

      611     6127    1           IF NOT N$REQ.NOALT THEN ALTRETURN;

   6127  1 002262   000004 236100                    LDQ     4,,PR0
         1 002263   100000 316007                    CANQ    32768,DL
         1 002264   002266 601000 1                  TNZ     s:6129

   6127  1 002265   000000 702200 xent               TSX2  ! X66_AALT
PL6.E3A0      #001=NIO$QUE File=NIO$QUE.:E05TSI                                  WED 07/30/97 03:34 Page:92

      612     6128                %LOCK(G#=NI$RP.GATE);

   6129  1 002266   000000 630400 xsym               EPPR0   NI$RP$
         1 002267   000017 631400 xsym               EPPR1   B_VECTNIL+15
         1 002270   000000 701000 xent               TSX1    HFC$LOCK
         1 002271   000000 011000                    NOP     0

      613     6131                %ENQUEUE(P#=N$REQ,Q#=NI$RP.RQ$);

   6132  1 002272   000000 236000 xsym               LDQ     NI$RP$
         1 002273   000004 036003                    ADLQ    4,DU
         1 002274   200003 235100                    LDA     @N$REQ,,AUTO
         1 002275   200040 757100                    STAQ    TDCW$+1,,AUTO
         1 002276   200040 630500                    EPPR0   TDCW$+1,,AUTO
         1 002277   000020 631400 xsym               EPPR1   B_VECTNIL+16
         1 002300   000000 701000 xent               TSX1    NIM$ENQUEUE
         1 002301   000000 011000                    NOP     0

      614     6134                %UNLOCK(G#=NI$RP.GATE);

   6135  1 002302   000000 630400 xsym               EPPR0   NI$RP$
         1 002303   000017 631400 xsym               EPPR1   B_VECTNIL+15
         1 002304   000000 701000 xent               TSX1    HFC$UNLOCK
         1 002305   000000 011000                    NOP     0

      615     6137    1           RETURN;

   6137  1 002306   000000 702200 xent               TSX2  ! X66_ARET

      616     6138        %EJECT;
PL6.E3A0      #001=NIO$QUE File=NIO$QUE.:E05TSI                                  WED 07/30/97 03:34 Page:93
      617     6139    1   CHAINIOS: PROC ALTRET;

   6139  1 002307   200036 741300       CHAINIOS     STX1  ! X+2,,AUTO

      618     6140    2   DCL TDCW$ PTR;
      619     6141    2   DCL TDCW REDEF TDCW$ BIT(36);
      620     6142    3           IF NI$REQ.FL$=ADDR(NIL) THEN DO;

   6142  1 002310   200017 470500                    LDP0    IOS$,,AUTO
         1 002311   000000 236100                    LDQ     0,,PR0
         1 002312   000001 116000 xsym               CMPQ    B_VECTNIL+1
         1 002313   002321 601000 1                  TNZ     s:6146

      621     6143    3              CALL NIQ$GETS(NI$REQ.FL$) ALTRET(ALT);

   6143  1 002314   200017 630500                    EPPR0   IOS$,,AUTO
         1 002315   000017 631400 xsym               EPPR1   B_VECTNIL+15
         1 002316   000000 701000 xent               TSX1    NIQ$GETS
         1 002317   002354 702000 1                  TSX2    ALT

      622     6144    3              END;

   6144  1 002320   002331 710000 1                  TRA     s:6150

      623     6145    3           ELSE DO;

      624     6146    3              TDCW$=NI$REQ.FL$->NI$REQ.FL$;

   6146  1 002321   000000 471500                    LDP1    0,,PR0
         1 002322   100000 236100                    LDQ     0,,PR1
         1 002323   200037 756100                    STQ     TDCW$,,AUTO

      625     6147    3              NI$REQ.FL$->NI$REQ=NI$REQ_INIT;

   6147  1 002324   000100 100400                    MLR     fill='000'O
         1 002325   000000 000070 xsym               ADSC9   NI$REQ_INIT              cn=0,n=56
         1 002326   100000 000070                    ADSC9   0,,PR1                   cn=0,n=56
PL6.E3A0      #001=NIO$QUE File=NIO$QUE.:E05TSI                                  WED 07/30/97 03:34 Page:94

      626     6148    3              NI$REQ.FL$->NI$REQ.FL$=TDCW$;

   6148  1 002327   000000 471500                    LDP1    0,,PR0
         1 002330   100000 756100                    STQ     0,,PR1

      627     6149    3              END;

      628     6150    2           TDCW$=ADDR(NI$REQ.FL$->NI$REQ.DCW(0));

   6150  1 002331   200017 470500                    LDP0    IOS$,,AUTO
         1 002332   000000 471500                    LDP1    0,,PR0
         1 002333   100002 633500                    EPPR3   2,,PR1
         1 002334   200037 453500                    STP3    TDCW$,,AUTO

      629     6151    2           NI$REQ.DCW(DCWX)=(TDCW & %TDCWMASK) | %TDCWM1;

   6151  1 002335   200037 236100                    LDQ     TDCW$,,AUTO
         1 002336   000016 376000 0                  ANQ     14
         1 002337   000001 276000 0                  ORQ     1
         1 002340   200014 720100                    LXL0    DCWX,,AUTO
         1 002341   000002 756110                    STQ     2,X0,PR0

      630     6152    2           IF HW_IMX THEN

   6152  1 002342   000000 234000 xsym               SZN     HW_IMX
         1 002343   002347 605000 1                  TPL     s:6154

      631     6153    2              NI$REQ.DCW.T.DCWLIST.BASE(DCWX)=%IMX_IOS_BASE;

   6153  1 002344   000023 376000 2                  ANQ     19
         1 002345   000200 276007                    ORQ     128,DL
         1 002346   000002 756110                    STQ     2,X0,PR0

      632     6154    2           DCWX=0;

   6154  1 002347   200014 450100                    STZ     DCWX,,AUTO
PL6.E3A0      #001=NIO$QUE File=NIO$QUE.:E05TSI                                  WED 07/30/97 03:34 Page:95

      633     6155    2           IOS$=NI$REQ.FL$;

   6155  1 002350   000000 236100                    LDQ     0,,PR0
         1 002351   200017 756100                    STQ     IOS$,,AUTO

      634     6156    2           RETURN;

   6156  1 002352   200036 221300                    LDX1  ! X+2,,AUTO
         1 002353   000001 702211                    TSX2  ! 1,X1

      635     6157    2   ALT:    ALTRETURN;

   6157  1 002354   200036 221300       ALT          LDX1  ! X+2,,AUTO
         1 002355   000000 702211                    TSX2  ! 0,X1

(unnamed)
 Sect OctLoc
   0     000   000000 000100   000000 020000   000000 020005   000015 012000    ...@............
   0     004   000000 015012   041105 117104   777700 007777   000000 700000    ....!EOD........
   0     010   000000 720000   000000 000000   000000 720000   000000 000600    ................
   0     014   000000 020001   000000 030000   777777 000000                    ............

(unnamed)
 Sect OctLoc
   2     000   577777 777777   777777 777767   000017 777760   000005 006000    ................
   2     004   000000 006000   000000 006000   777777 757777   777747 777777    ................
   2     010   000003 777760   000007 777777   777777 707777   777777 776000    ................
   2     014   000001 777776   001777 776000   001777 777777   000003 777777    ................
   2     020   777777 600777   000003 006000   777777 737777   777777 777477    ................
      636     6158    2   END CHAINIOS;
      637     6159        /**/
      638     6160    1   END NIO$QUE;
      639     6161        %EOD;

PL6.E3A0      #001=NIO$QUE File=NIO$QUE.:E05TSI                                  WED 07/30/97 03:34 Page:96
--  Include file information  --

   SS_SCHED_C.:E05TOU  is referenced.
   N_FC_C.:E05TOU  is referenced.
   NK_SUBS.:E05TOU  is referenced.
   NI_MACROS_C.:E05TOU  cannot be made into a system file and is referenced.
   NI_DEVCMD_C.:E05TOU  is referenced.
   NI$TABLES.:E05TOU  is referenced.
   N$REQ.:E05TOU  is referenced.
   NI_DATA_R.:E05TOU  cannot be made into a system file and is referenced.
   NI_DATA_C.:E05TOU  is referenced.
   M_INFO_C.:E05TOU  is referenced.
   HF_LOCK_C.:E05TOU  cannot be made into a system file and is referenced.
   HF_DATA_R.:E05TOU  cannot be made into a system file and is referenced.
   F$DCB.:E05TOU  cannot be made into a system file and is referenced.
   CP_6_SUBS.:E05TOU  is referenced.
   B_SEGIDS_C.:E05TOU  is referenced.
   B_MLSMAC_C.:E05TOU  is referenced.
   B$USER.:E05TOU  cannot be made into a system file and is referenced.
   B$MAP.:E05TOU  cannot be made into a system file and is referenced.
   B$JIT_C.:E05TOU  is referenced.
   B$JIT.:E05TOU  cannot be made into a system file and is referenced.
      No diagnostics issued in procedure NIO$QUE.
PL6.E3A0      #001=NIO$QUE File=NIO$QUE.:E05TSI                                  WED 07/30/97 03:34 Page:97

 **** Variables and constants ****

  ****  Auto variables  ****

  ****  Scalars and arrays  ****
OctLoc.c.b A Datatyp(siz) R M Lvl/name                 OctLoc.c.b A Datatyp(siz) R M Lvl/name

     3-0-0/w PTR         r     1 @N$REQ                     4-0-0/w SBIN        r     1 BUFADDR
     5-0-0/w UBIN        r     1 BUFOFFSET                  4-0-0/w STRC        r     1 BUFREAL
     4-0-0/w STRC        r     1 BUFREALB                   6-0-0/w SBIN        r     1 BUFSIZE
     4-0-0/w STRC        r     1 BUFVIRT                    7-0-0/w SBIN        r     1 BUF_BASE
    10-0-0/w BIT         r     1 CONT                      11-0-0/w SBIN        r     1 CSIZE
    12-0-0/w PTR         r     1 DCB$                      13-0-0/w PTR         r     1 DCT$
    14-0-0/w SBIN        r     1 DCWX                      15-0-0/w PTR         r     1 DVT$
    16-0-0/w STRC        r     1 FUNC                      17-0-0/w PTR         r     1 IOS$
    20-0-0/w PTR         r     1 MBX$                      *0-0-0/d STRC(1080)  r     1 N$REQ
    21-0-0/w BIT         r     1 NOBUF                     22-0-0/w STRC        r     1 PNTR
    22-0-0/w PTR         r     1 PNTR$                     23-0-0/w BIT         r     1 PSIA
    24-0-0/w SBIN        r     1 PTP                       25-0-0/w SBIN        r     1 QUE
    26-0-0/w SBIN        r     1 RCTTEMP                   27-0-0/w UBIN        r     1 RTN
    30-0-0/w EPTR        r     1 SCHED                     31-0-0/w STRC        r     1 SEEK
    31-0-0/w PTR         r     1 SEEK$                     32-0-0/w UBIN        r     1 SIZE
    33-0-0/w PTR         r     1 SQH$                      37-0-0/w BIT         r     1 TDCW
    37-0-0/w PTR         r     1 TDCW$                     34-0-0/w SBIN        r     1 X

  ****  SYMREF variables  ****

  ****  Scalars and arrays  ****
OctLoc.c.b A Datatyp(siz) R M Lvl/name                 OctLoc.c.b A Datatyp(siz) R M Lvl/name

     0-0-0/w PTR         r     1 B$JIT$                     0-0-0/w PTR         r     1 B$LS$
     0-0-0/w PTR         r     1 B$MPT$                     0-0-0/w PTR         r     1 B$WSQ0PT$
     0-0-0/b BIT (72)    r     1 F_DCBLOCK                  0-0-0/w BIT         r     1 HW_IMX
     0-0-0/w BIT         r     1 HW_IOP                     0-0-0/w PTR         r     1 N$DCT$$
     0-0-0/w PTR         r     1 N$FQ$                      0-0-0/w PTR         r     1 NI$FQ$
     0-0-0/w PTR         r     1 NI$IBUF$                   0-0-0/d STRC(864)   r     1 NI$IMXMBX_INIT
     0-0-0/d STRC(504)   r     1 NI$REQ_INIT                0-0-0/w PTR         r     1 NI$RP$
PL6.E3A0      #001=NIO$QUE File=NIO$QUE.:E05TSI                                  WED 07/30/97 03:34 Page:98
     0-0-0/w UBIN        r     1 NI_IMXLO_PBASE             0-0-0/w BIT (72)    r     1 NI_MFGATE
     0-0-0/w UBIN        r     1 NK_MXTOTAL                 0-0-0/w PTR         r     1 S$CU$
     0-0-0/w SBIN        r     1 SL_IOTA(0:4)
     0-0-0/w SBIN        r     1 SL_MF(0:4)                 0-0-0/w SBIN        r     1 S_CUN

  ****  BASED and DCB variables  ****

  ****  Scalars and arrays  ****
OctLoc.c.b A Datatyp(siz) R M Lvl/name                 OctLoc.c.b A Datatyp(siz) R M Lvl/name

     0-0-0/d STRC(8856)  r     1 B$JIT                      0-0-0/w STRC        r     1 B$MAP(0:1023)
     0-0-0/d STRC(10368) r     1 B$MLNK                     0-0-0/d STRC(576)   r     1 B$U
     0-0-0/c ACHR        r     1 CHARBASE                   0-0-0/w STRC(1332)  r     1 DCT
     0-0-0/w STRC        r     1 DCW                        0-0-0/w STRC(2844)  r     1 DVT
     0-0-0/d ASTR(3528)  r     1 F$DCB                      0-0-0/w STRC        r     1 IDCW
     0-0-0/w PTR         r     1 N$DCT$(0:0)                0-0-0/d STRC(864)   r     1 NI$IMXMBX
     0-0-0/d STRC(504)   r     1 NI$REQ                     0-0-0/w STRC(180)   r     1 NI$RP
     0-0-0/c CHAR        r     1 ONECHAR(0:0)
     0-0-0/w STRC        r     1 POINTER


   Procedure NIO$QUE requires 1262 words for executable code.
   Procedure NIO$QUE requires 36 words of local(AUTO) storage.
PL6.E3A0      #001=NIO$QUE File=NIO$QUE.:E05TSI                                  WED 07/30/97 03:34 Page:99
          *** CROSS REFERENCE LISTING ***
**     DENOTES     IDENTIFIER DEFINITION
<<                 IDENTIFIER'S VALUE SET
>>                 IDENTIFIER'S VALUE USED
<>                 IDENTIFIER SET AND/OR USED
--                 IDENTIFIER REFERENCED
PL6.E3A0      #001=NIO$QUE File=NIO$QUE.:E05TSI                                  WED 07/30/97 03:34 Page:100
          MINI XREF LISTING

ALT IN PROCEDURE CHAINIOS
      6157**LABEL    6143--CALLALT
B$DO.ECCINFO
       865**DCL       866--REDEF
B$JIT.CPFLAGS1.SLEAZE
       433**DCL       433--REDEF
B$JIT.CTIME
       512**DCL      5731<<ASSIGN   5731>>ASSIGN
B$JIT.ERR.MID
       340**DCL       340--REDEF
B$JIT.JRESPEAK
       501**DCL       502--REDEF
B$JIT.MODE
       334**DCL      5731>>ASSIGN   5732>>IF
B$JIT.ORIGINATOR_PORT.FROM_CR
       610**DCL       610--REDEF     611--REDEF
B$JIT.PNR
       514**DCL       514--REDEF
B$JIT.TSLINE
       608**DCL       609--REDEF
B$JIT$
      4572**DCL       334--IMP-PTR  5731>>ASSIGN   5731>>ASSIGN   5731>>ASSIGN   5732>>IF
B$LS$
      4573**DCL      5711>>ASSIGN
B$MAP.RPN
       657**DCL      5714>>ASSIGN   6073>>ASSIGN
B$MAP.SCTRL
       658**DCL       659--REDEF
B$MLNK.WSQ0PT.BASE
      5424**DCL      5711>>ASSIGN
B$MPT$
      4574**DCL      6073>>ASSIGN
PL6.E3A0      #001=NIO$QUE File=NIO$QUE.:E05TSI                                  WED 07/30/97 03:34 Page:101
B$U.CMF
       827**DCL      5732>>IF       5738<<ASSIGN   5738>>ASSIGN
B$U.MF
       820**DCL      5732>>IF       5737<<ASSIGN   5737>>ASSIGN
B$U.MISC
       844**DCL       845--REDEF
B$USER.MISC
       920**DCL       921--REDEF
B$WSQ0PT$
      4579**DCL      5714>>ASSIGN
BUFADDR
      4588**DCL      4589--REDEF    4593--REDEF    4596--REDEF    5702<>CALL     5704>>ASSIGN   5719<<ASSIGN
      5935>>ASSIGN
BUFOFFSET
      4599**DCL      6023<<ASSIGN   6026>>ASSIGN   6030<<ASSIGN   6030>>ASSIGN   6033>>ASSIGN
BUFREAL.ADR
      4591**DCL      5868>>ASSIGN   6023>>ASSIGN   6054>>ASSIGN   6060>>ASSIGN
BUFREAL.BYT
      4592**DCL      6022>>ASSIGN   6024>>ASSIGN   6055>>ASSIGN
BUFREAL.EXTA
      4590**DCL      5993>>ASSIGN   6001>>ASSIGN   6075>>ASSIGN
BUFREALB.BYTADR
      4595**DCL      6076>>ASSIGN
BUFSIZE
      4600**DCL      5722<<ASSIGN   5848>>IF       5860>>ASSIGN   5935>>ASSIGN   5972>>DOWHILE  5975<<ASSIGN
      5975>>ASSIGN   5978>>IF       5979>>ASSIGN   6019>>ASSIGN   6024>>ASSIGN   6055>>ASSIGN   6076>>ASSIGN
BUFVIRT.BASE
      4597**DCL      5859>>ASSIGN   6018>>ASSIGN   6020<<ASSIGN   6049>>ASSIGN   6051<<ASSIGN
BUFVIRT.BYT
      4598**DCL      5824>>IF       6019>>ASSIGN
BUF_BASE
      4601**DCL      5697<<ASSIGN   5699<<ASSIGN   5836>>ASSIGN   5844>>ASSIGN   5863>>ASSIGN   5991>>ASSIGN
      6053>>ASSIGN   6059>>ASSIGN   6068>>ASSIGN   6069>>ASSIGN   6070>>ASSIGN   6075>>ASSIGN   6076>>ASSIGN
CHAINIOS
      6139**PROC     5976--CALL     5981--CALL     6031--CALL
CHARBASE
PL6.E3A0      #001=NIO$QUE File=NIO$QUE.:E05TSI                                  WED 07/30/97 03:34 Page:102
      5457**DCL      5897<<ASSIGN   5897>>ASSIGN   5902<<ASSIGN   5902>>ASSIGN
COMP
      5874**LABEL    5872--CALLALT
CONT
      4602**DCL      5830<<ASSIGN   5831>>DOWHILE  5837<<ASSIGN   5848<<ASSIGN
CSIZE
      4603**DCL      5457--IMP-SIZ  5896<<ASSIGN   5897>>ASSIGN   5897>>ASSIGN   5900<<ASSIGN   5902>>ASSIGN
      5902>>ASSIGN
DCB$
      4604**DCL      5686<<ASSIGN   5742>>IF       5747>>ASSIGN   5747>>ASSIGN   5749>>ASSIGN   5749>>ASSIGN
DCT.CTYP
      5476**DCL      5758>>IF
DCT.DFLG.CHECKWRITE
      5474**DCL      5776>>IF
DCT.DFLG.CM
      5471**DCL      5738>>IF
DCT.DFLG.PSIA
      5472**DCL      5786>>ASSIGN
DCT.DFLG.RELOAD
      5472**DCL      5696>>IF
DCT.DP
      5488**DCL      5495--REDEF    5498--REDEF    5499--REDEF    5501--REDEF    5501--REDEF    5502--REDEF
      5503--REDEF    5503--REDEF
DCT.DVN
      5477**DCL      5783>>ASSIGN   5834>>ASSIGN
DCT.DVT$
      5484**DCL      5723>>ASSIGN
DCT.LP.CHAIN$
      5498**DCL      5897>>ASSIGN
DCT.LP.VFC$
      5498**DCL      5902>>ASSIGN
DCT.LP.VFCL
      5498**DCL      5901<<ASSIGN
DCT.MPC.IOCHANX
      5496**DCL      5496--REDEF
DCT.RESCOD
PL6.E3A0      #001=NIO$QUE File=NIO$QUE.:E05TSI                                  WED 07/30/97 03:34 Page:103
      5475**DCL      5700>>IF       5756>>DOCASE
DCT.SQ$
      5468**DCL      6088<>CALL
DCT$
      4605**DCL      5468--IMP-PTR  5693<<ASSIGN   5694>>ASSIGN   5696>>IF       5700>>IF       5723>>ASSIGN
      5738>>IF       5756>>DOCASE   5758>>IF       5776>>IF       5783>>ASSIGN   5786>>ASSIGN   5834>>ASSIGN
      5897>>ASSIGN   5901>>ASSIGN   5902>>ASSIGN   6088>>CALL
DCW.FWA
      5516**DCL      5842>>ASSIGN
DCW.T.DCWLIST.BASE
      5524**DCL      5844<<ASSIGN
DCW.TALLY
      5519**DCL      5520--REDEF
DCW.TYPE
      5518**DCL      5840>>DOCASE
DCWX
      4606**DCL      5781<<ASSIGN   5951<<ASSIGN   5956>>ASSIGN   5957<<ASSIGN   5957>>ASSIGN   5961>>ASSIGN
      5962>>ASSIGN   5963<<ASSIGN   5963>>ASSIGN   5968>>ASSIGN   5970>>ASSIGN   5971<<ASSIGN   5971>>ASSIGN
      5973>>ASSIGN   5974<<ASSIGN   5974>>ASSIGN   5976>>IF       5979>>ASSIGN   5980<<ASSIGN   5980>>ASSIGN
      5981>>IF       5984>>ASSIGN   5988>>IF       5989>>ASSIGN   5991>>ASSIGN   5993>>ASSIGN   5994>>ASSIGN
      5996<<ASSIGN   5996>>ASSIGN   6022>>ASSIGN   6026>>ASSIGN   6027>>ASSIGN   6028<<ASSIGN   6028>>ASSIGN
      6031>>IF       6033>>ASSIGN   6034>>ASSIGN   6035>>ASSIGN   6151>>ASSIGN   6153>>ASSIGN   6154<<ASSIGN
DVT.GRANSIZE
      5539**DCL      5945>>ASSIGN
DVT.IDCW
      5541**DCL      5780>>ASSIGN
DVT.MPC
      5540**DCL      5541--REDEF
DVT.SCHED
      5538**DCL      6082>>ASSIGN
DVT$
      4607**DCL      5538--IMP-PTR  5723<<ASSIGN   5780>>ASSIGN   5945>>ASSIGN   6082>>ASSIGN
F$DCB.ACTPOS
      2977**DCL      2977--REDEF
F$DCB.ARS
      2952**DCL      2952--REDEF
PL6.E3A0      #001=NIO$QUE File=NIO$QUE.:E05TSI                                  WED 07/30/97 03:34 Page:104
F$DCB.ATTR
      2970**DCL      2971--REDEF
F$DCB.BORROW
      2985**DCL      2985--REDEF    2985--REDEF    2985--REDEF
F$DCB.DCBNAME.L
      2999**DCL      2999--IMP-SIZ
F$DCB.EOMCHAR
      2956**DCL      2956--REDEF
F$DCB.FCN
      2989**DCL      6113<>CALL
F$DCB.FCN.CNT
      2989**DCL      5747<<ASSIGN   5747>>ASSIGN   5749<<ASSIGN   5749>>ASSIGN
F$DCB.FLDID
      2980**DCL      2980--REDEF
F$DCB.FORM$
      2974**DCL      2974--REDEF
F$DCB.FSECT
      2990**DCL      2990--REDEF
F$DCB.FSN
      2967**DCL      2967--REDEF    2967--REDEF    2968--REDEF
F$DCB.HEADER$
      2973**DCL      2973--REDEF
F$DCB.IXTNSIZE
      2971**DCL      2971--REDEF
F$DCB.LASTSTA$
      2961**DCL      2961--REDEF
F$DCB.LVL
      2986**DCL      2986--REDEF
F$DCB.NAME.C
      2961**DCL      2961--REDEF
F$DCB.NOEOF
      2982**DCL      2982--REDEF
F$DCB.NRECS
      2972**DCL      2972--REDEF
F$DCB.NRECX
      2991**DCL      2991--REDEF
PL6.E3A0      #001=NIO$QUE File=NIO$QUE.:E05TSI                                  WED 07/30/97 03:34 Page:105
F$DCB.OHDR
      2983**DCL      2983--REDEF
F$DCB.ORG
      2966**DCL      2966--REDEF
F$DCB.PRECNO
      2989**DCL      2989--REDEF
F$DCB.RCSZ
      2994**DCL      2994--REDEF
F$DCB.RES
      2962**DCL      2962--REDEF
F$DCB.SETX
      2974**DCL      2974--REDEF
F$DCB.TAB$
      2973**DCL      2974--REDEF
F$DCB.TDA
      2988**DCL      2988--REDEF
F$DCB.WSN
      2963**DCL      2963--REDEF
FUNC
      4608**DCL      5778<<ASSIGN   5780<<ASSIGN   5872<>CALL     5888>>ASSIGN   5919>>ASSIGN   5926>>ASSIGN
      5948>>ASSIGN   5954>>ASSIGN   5968>>ASSIGN   5989>>ASSIGN   5999>>ASSIGN   6039>>ASSIGN   6043>>ASSIGN
      6052>>ASSIGN   6057>>ASSIGN
FUNC.CC
      4615**DCL      4616--REDEF
FUNC.CCB
      4616**DCL      5787>>ASSIGN
FUNC.DC
      4609**DCL      5893<<ASSIGN   5905<<ASSIGN   5910<<ASSIGN   5925<<ASSIGN   5932<<ASSIGN   5958<<ASSIGN
FUNC.DC2
      4613**DCL      5893>>ASSIGN   5905>>ASSIGN   5910>>ASSIGN   5925>>ASSIGN   5932>>ASSIGN   5958>>ASSIGN
      6044>>ASSIGN   6058>>ASSIGN
FUNC.DVN
      4611**DCL      5783<<ASSIGN
FUNC.RCNT
      4618**DCL      5916<<ASSIGN   5918<<ASSIGN   5935<<ASSIGN
FUNC.RTN
PL6.E3A0      #001=NIO$QUE File=NIO$QUE.:E05TSI                                  WED 07/30/97 03:34 Page:106
      4610**DCL      4611--REDEF    5782>>ASSIGN
FUNC.TIMO
      4614**DCL      5784>>IF       5784>>ASSIGN
F_DCBLOCK
      4580**DCL      5744<>CALL     5751<>CALL
HFC$LOCK
      3056**DCL-ENT  5735--CALL     5744--CALL     6129--CALL
HFC$UNLOCK
      3056**DCL-ENT  5740--CALL     5751--CALL     6135--CALL
HW_IMX
      3042**DCL      5770>>IF       5835>>IF       5843>>IF       5857>>IF       5861>>IF       5889>>IF
      5920>>IF       5927>>IF       5949>>IF       5960>>IF       5969>>IF       5990>>IF       6010>>IF
      6016>>IF       6064>>IF       6152>>IF
HW_IOP
      3039**DCL      5708>>IF       5855>>IF       6014>>IF
IDCW
      5549**DCL      5851>>ASSIGN
IDCW.CC
      5564**DCL      5565--REDEF
IDCW.CONT
      5562**DCL      5837>>ASSIGN
IDCW.DATA.BASE
      5558**DCL      5836<<ASSIGN
IDCW.DVN
      5554**DCL      5834<<ASSIGN
IDCW.EXTA
      5555**DCL      5556--REDEF
IDCW.SVN
      5560**DCL      5824>>IF       5833>>IF
IOS$
      4619**DCL      5606--IMP-PTR  5761<<ASSIGN   5762>>ASSIGN   5766<<ASSIGN   5767>>ASSIGN   5768>>ASSIGN
      5769>>ASSIGN   5772>>ASSIGN   5785>>ASSIGN   5851>>ASSIGN   5852>>ASSIGN   5856>>ASSIGN   5858>>ASSIGN
      5862>>ASSIGN   5863>>ASSIGN   5866>>ASSIGN   5868>>ASSIGN   5878>>ASSIGN   5882>>ASSIGN   5887>>ASSIGN
      5888>>ASSIGN   5890>>ASSIGN   5891>>ASSIGN   5919>>ASSIGN   5921>>ASSIGN   5926>>ASSIGN   5928>>ASSIGN
      5938>>ASSIGN   5939>>ASSIGN   5945>>ASSIGN   5948>>ASSIGN   5950>>ASSIGN   5954>>ASSIGN   5956>>ASSIGN
      5961>>ASSIGN   5962>>ASSIGN   5968>>ASSIGN   5970>>ASSIGN   5973>>ASSIGN   5979>>ASSIGN   5983>>ASSIGN
PL6.E3A0      #001=NIO$QUE File=NIO$QUE.:E05TSI                                  WED 07/30/97 03:34 Page:107
      5984>>ASSIGN   5989>>ASSIGN   5991>>ASSIGN   5993>>ASSIGN   5994>>ASSIGN   5999>>ASSIGN   6001>>ASSIGN
      6004>>ASSIGN   6011>>ASSIGN   6015>>ASSIGN   6017>>ASSIGN   6022>>ASSIGN   6026>>ASSIGN   6027>>ASSIGN
      6033>>ASSIGN   6034>>ASSIGN   6035>>ASSIGN   6039>>ASSIGN   6040>>ASSIGN   6041>>ASSIGN   6042>>ASSIGN
      6043>>ASSIGN   6044>>ASSIGN   6045>>ASSIGN   6046>>ASSIGN   6047>>ASSIGN   6052>>ASSIGN   6053>>ASSIGN
      6054>>ASSIGN   6055>>ASSIGN   6056>>ASSIGN   6057>>ASSIGN   6058>>ASSIGN   6059>>ASSIGN   6060>>ASSIGN
      6061>>ASSIGN   6142>>IF       6143>>CALL     6146>>ASSIGN   6147>>ASSIGN   6148>>ASSIGN   6150>>ASSIGN
      6151>>ASSIGN   6153>>ASSIGN   6155<<ASSIGN   6155>>ASSIGN
KQR$READ
      4556**DCL-ENT  6103--CALL
KQW$WRITE
      4557**DCL-ENT  6101--CALL
MBX$
      4620**DCL      5585--IMP-PTR  5762<<ASSIGN   5769<<ASSIGN   5771>>ASSIGN   6066>>ASSIGN   6067>>ASSIGN
      6068>>ASSIGN   6069>>ASSIGN   6070>>ASSIGN   6073>>ASSIGN   6074>>ASSIGN   6075>>ASSIGN   6076>>ASSIGN
      6079>>ASSIGN
N$DCT$
      3742**DCL      5693>>ASSIGN
N$DCT$$
      3608**DCL      3742--IMP-PTR  5693>>ASSIGN
N$FQ$
      3608**DCL      3743--IMP-PTR
N$REQ
      4504**DCL         8--PROC     5654--ENTRY    5660--ENTRY    5796<>CALL     5800<>CALL     5803<>CALL
      5826<>CALL     5872<>CALL     5874<>CALL     5885<>CALL     6083<>CALL     6088<>CALL     6101<>CALL
      6103<>CALL     6132<>CALL
N$REQ.ARCT
      4539**DCL      5727<<ASSIGN   5871<<ASSIGN   5923<<ASSIGN   5930<<ASSIGN
N$REQ.ARSIZE
      4537**DCL      5728<<ASSIGN
N$REQ.BUF$
      4513**DCL      5702<>CALL     5824>>IF       5832>>ASSIGN   5851>>ASSIGN   5879>>ASSIGN   5897>>ASSIGN
      5902>>ASSIGN   6038>>ASSIGN
N$REQ.BUFADDR
      4513**DCL      4514--REDEF    4514--REDEF    5704<<ASSIGN   5708>>IF       5710>>ASSIGN   5716<<ASSIGN
      5719>>ASSIGN
N$REQ.BUFREAL_SV
PL6.E3A0      #001=NIO$QUE File=NIO$QUE.:E05TSI                                  WED 07/30/97 03:34 Page:108
      4546**DCL      5710<<ASSIGN
N$REQ.BUFREAL_SV.DIV64PG
      4546**DCL      5711>>ASSIGN
N$REQ.BUFREAL_SV.MOD64PG
      4546**DCL      5716>>ASSIGN
N$REQ.BUFSIZE
      4507**DCL      5722>>ASSIGN   5900>>ASSIGN   5901>>ASSIGN   5939>>ASSIGN
N$REQ.COMP
      4538**DCL      6086<<ASSIGN   6098<<ASSIGN
N$REQ.DCB$
      4535**DCL      5684--IF       5685--ASSIGN   5686>>ASSIGN   6112>>IF       6113>>CALL
N$REQ.DCT$
      4505**DCL      5694<<ASSIGN
N$REQ.DLA.DCTX
      4504**DCL      5687>>IF       5687>>IF       5693>>ASSIGN
N$REQ.DLA.DRELADDR
      4505**DCL      4505--REDEF    5945>>ASSIGN
N$REQ.DLA.MPC.MEMADDR
      4505**DCL      5938>>ASSIGN
N$REQ.DVE.DVBYTE
      4539**DCL      5893>>IF       5905>>IF       5932>>IF
N$REQ.DVE.EOMCHAR
      4542**DCL      4543--REDEF
N$REQ.EAINFO
      4536**DCL      4536--REDEF
N$REQ.EAINFOX
      4536**DCL      4537--REDEF
N$REQ.ERRCT
      4506**DCL      5775<<ASSIGN
N$REQ.EVNTINFO
      4537**DCL      4537--REDEF
N$REQ.FC
      4507**DCL      5776>>IF       5776<<ASSIGN   5777>>IF       5780>>ASSIGN   6099>>DOCASE
N$REQ.IOFLG.IOS
      4508**DCL      5759>>IF       5763<<ASSIGN   6122>>IF       6125<<ASSIGN
N$REQ.IOFLG.LPW23
PL6.E3A0      #001=NIO$QUE File=NIO$QUE.:E05TSI                                  WED 07/30/97 03:34 Page:109
      4508**DCL      5854<<ASSIGN   5946<<ASSIGN   5987<<ASSIGN   6009<<ASSIGN
N$REQ.IOFLG.MREC
      4509**DCL      5922<<ASSIGN   5929<<ASSIGN
N$REQ.IOP_BUFREAL_CVRT
      4544**DCL      5717<<ASSIGN
N$REQ.IOQFLG.INUSE
      4547**DCL      5667>>IF
N$REQ.IOQFLG.IOQUED
      4547**DCL      5662<<ASSIGN   5667>>IF       5683<<ASSIGN   6097<<ASSIGN   6121<<ASSIGN
N$REQ.IOS$
      4517**DCL      5760<>CALL     5761>>ASSIGN   5766>>ASSIGN   6078>>ASSIGN   6123<>CALL     6124<<ASSIGN
N$REQ.LPWX.BASE
      4516**DCL      5859<<ASSIGN   6018<<ASSIGN   6049<<ASSIGN   6069>>ASSIGN
N$REQ.LPWX.BOUND
      4516**DCL      5860<<ASSIGN   6019<<ASSIGN   6050<<ASSIGN   6070>>ASSIGN
N$REQ.NOALT
      4507**DCL      6127>>IF
N$REQ.NWIO
      4543**DCL      5746>>IF       6113>>CALL
N$REQ.OPFLG.BPF
      4512**DCL      5701>>IF       5703<<ASSIGN
N$REQ.OPFLG.USER
      4510**DCL      5729>>IF       6111>>IF
N$REQ.OPFLG.WAIT
      4511**DCL      6111>>IF
N$REQ.PTP
      4515**DCL      5705<<ASSIGN   5708>>IF       5711<<ASSIGN   5714<<ASSIGN   5714>>ASSIGN   5714>>ASSIGN
      5720>>ASSIGN
N$REQ.RCT
      4539**DCL      5871>>ASSIGN   5908>>IF       5909>>ASSIGN   5913>>ASSIGN   5925>>IF
N$REQ.STATUS
      4518**DCL      4524--REDEF
N$REQ.TIMOUT
      4506**DCL      5784<<ASSIGN
N$REQ.TYC
      4526**DCL      5726<<ASSIGN
PL6.E3A0      #001=NIO$QUE File=NIO$QUE.:E05TSI                                  WED 07/30/97 03:34 Page:110
N$REQ.TYC.IOERR
      4529**DCL      5795<<ASSIGN   5799<<ASSIGN   5825<<ASSIGN
N$REQ.USER#
      4538**DCL      5730<<ASSIGN
N$REQ_INIT.BUFADDR
      3627**DCL      3628--REDEF    3628--REDEF
N$REQ_INIT.DLA.DRELADDR
      3619**DCL      3619--REDEF
N$REQ_INIT.DVE.EOMCHAR
      3656**DCL      3657--REDEF
N$REQ_INIT.EAINFO
      3650**DCL      3650--REDEF
N$REQ_INIT.EAINFOX
      3650**DCL      3651--REDEF
N$REQ_INIT.EVNTINFO
      3651**DCL      3651--REDEF
N$REQ_INIT.STATUS
      3632**DCL      3638--REDEF
NI$FQ$
      3668**DCL      3744--IMP-PTR
NI$IBUF$
      3668**DCL      3744--IMP-PTR
NI$IMXMBX
      5585**DCL      5771<<ASSIGN
NI$IMXMBX.LPW.DCW_ADDR
      5591**DCL      6079<<ASSIGN
NI$IMXMBX.NPAGED_IND.PHYS
      5586**DCL      6073<<ASSIGN   6075<<ASSIGN
NI$IMXMBX.PAGED_BASE
      5585**DCL      5586--REDEF    5586--REDEF    6066<<ASSIGN
NI$IMXMBX.PAGED_BASE.OFFSET
      5585**DCL      6069<<ASSIGN
NI$IMXMBX.PAGED_BASE.PTWADDR
      5585**DCL      6068<<ASSIGN
NI$IMXMBX.SIZE
      5587**DCL      5587--REDEF    6067<<ASSIGN   6070<<ASSIGN   6074<<ASSIGN   6076<<ASSIGN
PL6.E3A0      #001=NIO$QUE File=NIO$QUE.:E05TSI                                  WED 07/30/97 03:34 Page:111
NI$IMXMBX_INIT
      3678**DCL      5771>>ASSIGN
NI$IMXMBX_INIT.PAGED_BASE
      3678**DCL      3679--REDEF    3679--REDEF
NI$IMXMBX_INIT.SIZE
      3680**DCL      3680--REDEF
NI$REQ
      5606**DCL      5768<<ASSIGN   6147<<ASSIGN
NI$REQ.DCW
      5608**DCL      5611--REDEF    5862<<ASSIGN   5866<<ASSIGN   5891<<ASSIGN   5956<<ASSIGN   5961--ASSIGN
      5962<<ASSIGN   5973<<ASSIGN   5979<<ASSIGN   5983--ASSIGN   5984<<ASSIGN   6078--ASSIGN   6150--ASSIGN
      6151<<ASSIGN
NI$REQ.DCW.FWA
      5608**DCL      5868<<ASSIGN   6026<<ASSIGN   6033<<ASSIGN   6040<<ASSIGN   6045<<ASSIGN   6054<<ASSIGN
      6060<<ASSIGN
NI$REQ.DCW.ICP
      5608**DCL      6022<<ASSIGN
NI$REQ.DCW.T.DCWLIST.BASE
      5610**DCL      5863<<ASSIGN   6153<<ASSIGN
NI$REQ.DCW.TALLY
      5609**DCL      5609--REDEF    6034<<ASSIGN   6042<<ASSIGN   6047<<ASSIGN   6055<<ASSIGN
NI$REQ.DCW.TYPE
      5609**DCL      6027<<ASSIGN   6035<<ASSIGN   6041<<ASSIGN   6046<<ASSIGN   6056<<ASSIGN   6061<<ASSIGN
NI$REQ.FL$
      5606**DCL      5767>>ASSIGN   5772<<ASSIGN   6142>>IF       6143<>CALL     6146>>ASSIGN   6146>>ASSIGN
      6147>>ASSIGN   6148>>ASSIGN   6148<<ASSIGN   6150>>ASSIGN   6155>>ASSIGN
NI$REQ.IDCW
      5611**DCL      5888<<ASSIGN   5919<<ASSIGN   5926<<ASSIGN   5948<<ASSIGN   5968<<ASSIGN   5989<<ASSIGN
      6039<<ASSIGN   6043<<ASSIGN   6052<<ASSIGN   6057<<ASSIGN
NI$REQ.IDCW.DATA.BASE
      5611**DCL      5890<<ASSIGN   5921<<ASSIGN   5928<<ASSIGN   5950<<ASSIGN   5970<<ASSIGN   5991<<ASSIGN
      6053<<ASSIGN   6059<<ASSIGN
NI$REQ.IDCW.DC
      5611**DCL      6044<<ASSIGN   6058<<ASSIGN
NI$REQ.IDCW.EC
      5612**DCL      5994<<ASSIGN
PL6.E3A0      #001=NIO$QUE File=NIO$QUE.:E05TSI                                  WED 07/30/97 03:34 Page:112
NI$REQ.IDCW.EXTA
      5611**DCL      5611--REDEF    5993<<ASSIGN
NI$REQ.IOP_PTAW
      5606**DCL      5856<<ASSIGN   6015<<ASSIGN
NI$REQ.MPCSEEK.COUNT
      5619**DCL      5939<<ASSIGN
NI$REQ.MPCSEEK.MEMADDR
      5619**DCL      5938<<ASSIGN
NI$REQ.PCW
      5613**DCL      5617--REDEF    5851<<ASSIGN   5954<<ASSIGN   5999<<ASSIGN
NI$REQ.PCW.AEX
      5613**DCL      6001<<ASSIGN
NI$REQ.PCW.FLAGS
      5617**DCL      5852<<ASSIGN   6004<<ASSIGN   6011<<ASSIGN
NI$REQ.PCW.PTP
      5617**DCL      5858<<ASSIGN   6017<<ASSIGN
NI$REQ.SEEK
      5618**DCL      5619--REDEF    5620--REDEF    5785--ASSIGN   5878<<ASSIGN   5882<<ASSIGN   5887<<ASSIGN
      5945<<ASSIGN
NI$REQ_INIT
      3700**DCL      5768>>ASSIGN   6147>>ASSIGN
NI$REQ_INIT.DCW
      3702**DCL      3705--REDEF
NI$REQ_INIT.DCW.TALLY
      3703**DCL      3703--REDEF
NI$REQ_INIT.IDCW.EXTA
      3705**DCL      3705--REDEF
NI$REQ_INIT.PCW
      3707**DCL      3711--REDEF
NI$REQ_INIT.SEEK
      3712**DCL      3713--REDEF    3714--REDEF
NI$RP.GATE
      3746**DCL      6129<>CALL     6135<>CALL
NI$RP.RQ$
      3746**DCL      6132<>CALL
NI$RP$
PL6.E3A0      #001=NIO$QUE File=NIO$QUE.:E05TSI                                  WED 07/30/97 03:34 Page:113
      3716**DCL      3746--IMP-PTR  6129>>CALL     6132>>CALL     6135>>CALL
NIM$CVTPTR
      4558**DCL-ENT  5702--CALL
NIM$ENQUEUE
      3955**DCL-ENT  6088--CALL     6132--CALL
NIO$COMP
      4559**DCL-ENT  5796--CALL     5800--CALL     5803--CALL     5826--CALL     5874--CALL
NIQ$GETS
      4560**DCL-ENT  5760--CALL     6143--CALL
NIQ$RELS
      4561**DCL-ENT  6123--CALL
NIU$CRPEXTST
      4562**DCL-ENT  5885--CALL
NIU$SYMBLOCK
      4563**DCL-ENT  5872--CALL
NI_IMXLO_PBASE
      3718**DCL      6066>>ASSIGN
NI_MBX_INIT.DCW.CONTROL.AE
      3738**DCL      3738--REDEF
NI_MBX_INIT.LPW.CONTROL.AE
      3734**DCL      3734--REDEF
NI_MFGATE
      3741**DCL      5735<>CALL     5740<>CALL
NK_MXTOTAL
      4581**DCL      5687>>IF
NOBUF
      4621**DCL      5787<<ASSIGN   5992>>IF       6000>>IF       6007>>IF
NQPKTS
      6121**LABEL    5760--CALLALT  5885--CALLALT  5976--CALLALT  5981--CALLALT  6031--CALLALT
ONECHAR
      5622**DCL      5879<<ASSIGN   5879>>ASSIGN
PNTR.WA
      4624**DCL      5962>>ASSIGN   5984>>ASSIGN   6040>>ASSIGN   6045>>ASSIGN   6079>>ASSIGN
PNTR$
      4622**DCL      4623--REDEF    5767<<ASSIGN   5772>>ASSIGN   5832<<ASSIGN   5833>>IF       5834>>ASSIGN
      5836>>ASSIGN   5837>>ASSIGN   5840>>DOCASE   5842>>ASSIGN   5844>>ASSIGN   5961<<ASSIGN   5983<<ASSIGN
PL6.E3A0      #001=NIO$QUE File=NIO$QUE.:E05TSI                                  WED 07/30/97 03:34 Page:114
      6038<<ASSIGN   6078<<ASSIGN
POINTER.SEGID
      5627**DCL      5684>>IF       5685<<ASSIGN
PSIA
      4626**DCL      5786<<ASSIGN   5850>>IF       5868>>ASSIGN   5947>>IF       5988>>IF
PTP
      4627**DCL      5702<>CALL     5705>>ASSIGN   5720<<ASSIGN   5856>>ASSIGN   5858>>ASSIGN   5960>>IF
      5992>>IF       6000>>IF       6008>>IF       6015>>ASSIGN   6017>>ASSIGN   6065>>IF       6068>>ASSIGN
QUE
      4628**DCL      5649<<ASSIGN   5655<<ASSIGN   5661<<ASSIGN   5725>>IF       6081>>IF       6111>>IF
QUECMN
      5662**LABEL    5650--GOTO     5656--GOTO
RCTTEMP
      4629**DCL      5909<<ASSIGN   5913<<ASSIGN   5915>>IF       5918>>ASSIGN
RTN
      4630**DCL      5782<<ASSIGN   5788>>DOCASE   5959>>IF
RTN_DP_SEEK
      5946**LABEL    5880--GOTO     5883--GOTO     5940--GOTO
RTN_STD
      5988**LABEL    5965--GOTO
RTN_STD0
      5987**LABEL    5894--GOTO     5898--GOTO     5903--GOTO     5906--GOTO     5933--GOTO     5936--GOTO
S$CU$
      4576**DCL      5732>>IF       5732>>IF       5737>>ASSIGN   5737>>ASSIGN   5738>>ASSIGN   5738>>ASSIGN
SCHED
      4631**DCL      6082<<ASSIGN   6083>>CALL
SC_NIOBADFC
      4564**DCL-ENT  5790--CALL
SC_NIOBADIOQ
      4565**DCL-ENT  5681--CALL
SC_NIOINVDLA
      4566**DCL-ENT  5688--CALL
SC_NIONRD
      4567**DCL-ENT  6090--CALL     6108--CALL
SEEK.WA
      4634**DCL      5891>>ASSIGN   5956>>ASSIGN
PL6.E3A0      #001=NIO$QUE File=NIO$QUE.:E05TSI                                  WED 07/30/97 03:34 Page:115
SEEK$
      4632**DCL      4633--REDEF    5785<<ASSIGN   5879>>ASSIGN
SIZE
      4636**DCL      6024<<ASSIGN   6025>>DOWHILE  6029<<ASSIGN   6029>>ASSIGN   6034>>ASSIGN
SL_IOTA
      4583**DCL      5731>>ASSIGN
SL_MF
      4584**DCL      5732>>IF
SQH.DOOR
      5637**DCL      5637--REDEF
SQH$
      4637**DCL      5637--IMP-PTR
SSR$REG
      4568**DCL-ENT  5733--CALL     6113--CALL     6115--CALL
S_CUN
      4582**DCL      5730>>ASSIGN
TDCW IN PROCEDURE CHAINIOS
      6141**DCL      6151>>ASSIGN
TDCW$ IN PROCEDURE CHAINIOS
      6140**DCL      6141--REDEF    6146<<ASSIGN   6148>>ASSIGN   6150<<ASSIGN
X
      4638**DCL      5829<<ASSIGN   5832>>ASSIGN   5838<<ASSIGN   5838>>ASSIGN   5842<<ASSIGN   5846<<ASSIGN
      5846>>ASSIGN   5848>>IF

