PL6.E3A0      #002=NIO$COMP File=NIO$QUE.:E05TSI                                 WED 07/30/97 03:36 Page:116
      640        1        /*M*      NIO$COMP - I/O COMPLETION ROUTINE                                  */
      641        2        /*T***********************************************************/
      642        3        /*T*                                                         */
      643        4        /*T* Copyright (c) Bull HN Information Systems Inc., 1997    */
      644        5        /*T*                                                         */
      645        6        /*T***********************************************************/
      646        7        NIO$COMP: PROC(N$REQ,NI$EXTST);
      647        8        /*
      648        9                Includes
      649       10        */
      650       11        %INCLUDE                B$USER ;
      651      227        %INCLUDE                B_SEGIDS_C ;
      652      766        %INCLUDE                B_STRINGS_C ;
      653      895        %INCLUDE                CP_6 ;
      654     6454        %INCLUDE                CP_6_SUBS ;
      655     6994        %INCLUDE                F$DCB ;
      656     7043        %INCLUDE                HF_DATA_R ;
      657     7086        %INCLUDE                HF_LOCK_C ;
      658     7100        %INCLUDE                NI_DATA_C ;
      659     7213        %INCLUDE                NI_DATA_R ;
      660     7650        %INCLUDE                NI_MACROS_C ;
      661     7917        %INCLUDE                N_FC_C ;
      662     7954        %INCLUDE                SS_SCHED_C ;
      663     8187        %INCLUDE                S_WSPTD_R ;
      664     8203        /*
      665     8204                Parameters
      666     8205        */
      667     8206        %N$REQ                  ( NAME=N$REQ,    STCLASS=PARAM ) ;
      668     8264        %NI$EXTST               ( NAME=NI$EXTST, STCLASS=PARAM ) ;
      669     8298        /*
      670     8299                Entries
      671     8300        */
      672     8301    1   DCL 1 HFC$ASSOCCLR      ENTRY(3) ;
      673     8302    1   DCL 1 NIA$RELERR        ENTRY(1) ;
      674     8303    1   DCL 1 NIO$REQUE         ENTRY(1) ALTRET ;
      675     8304    1   DCL 1 NIQ$GETID         ENTRY(1) ALTRET ;
      676     8305    1   DCL 1 NIQ$REL         ENTRY(1) ALTRET ; /* TO SATISFY LINKER */
PL6.E3A0      #002=NIO$COMP File=NIO$QUE.:E05TSI                                 WED 07/30/97 03:36 Page:117
      677     8306    1   DCL 1 NIQ$RELS        ENTRY(1) ALTRET ; /* TO SATISFY LINKER */
      678     8307    1   DCL 1 SC_NIOBADIOQ      ENTRY CONV(2,0) ;
      679     8308    1   DCL 1 SSR$RUE           ENTRY(4) ;
      680     8309    1   DCL 1 SSV$EVENT         ENTRY(7) ;
      681     8310    1   DCL 1 SSV$SCHDDO        ENTRY(2) ;
      682     8311    1   DCL 1 TDC$COMP          ENTRY(2) ;
      683     8312        /*
      684     8313                Symrefs
      685     8314        */
      686     8315        %B$USERREFS;
      687     8319    1   DCL 1 F_DCBLOCK         BIT(72) SYMREF ALIGNED ;
      688     8320    1   DCL 1 NI_INTLVL         SBIN SYMREF ;
      689     8321    1   DCL 1 NI_COMPHD$        PTR SYMREF ;
      690     8322    1   DCL 1 S_ASFGATE         BIT(72) SYMREF ALIGNED ;
      691     8323    1   DCL 1 S_UDLGATE         BIT(72) SYMREF ALIGNED ;
      692     8324        /*
      693     8325                Auto
      694     8326        */
      695     8327    1   DCL 1 DCB$              PTR ALIGNED AUTO ;
      696     8328    1   DCL 1 DCT$              PTR ALIGNED AUTO ;
      697     8329        %B$NWIO                 ( NAME=EVBLK,   STCLASS=AUTO, PARONLY=1 ) ;
      698     8410    1   DCL 1 EXRTN             EPTR ALIGNED AUTO ;
      699     8411        %NI$EXTST               ( NAME=EXTSTAT, STCLASS=AUTO ) ;
      700     8445    1   DCL 1 IOSTAT$           PTR ALIGNED AUTO ;
      701     8446    1   DCL 1 LSTA$             PTR ALIGNED AUTO ;
      702     8447    1   DCL 1 MDCT$             PTR ALIGNED AUTO ;
      703     8448    1   DCL 1 MDCTX             SBIN WORD ALIGNED AUTO ;
      704     8449    1   DCL 1 REL$              PTR ALIGNED AUTO ;
      705     8450    1   DCL 1 TEMP              UBIN ALIGNED AUTO ;
      706     8451    1   DCL 1 TYC               BIT(36) ALIGNED AUTO ;
      707     8452    1   DCL 1 UFLAG             UBIN ALIGNED AUTO ;
      708     8453        /*
      709     8454                Based
      710     8455        */
      711     8456        %B$EVNT ;
      712     8469        %NI$DCT                 ( NAME=NI$DCT, STCLASS=BASED ) ;
      713     8517        %NI$DVT                 ( NAME=DVT,    STCLASS=BASED ) ;
PL6.E3A0      #002=NIO$COMP File=NIO$QUE.:E05TSI                                 WED 07/30/97 03:36 Page:118
      714     8524        %NI$EXTST               ( NAME=EXTST,  STCLASS=BASED ) ;
      715     8558        %NI$REQ                 ( NAME=IOS,    STCLASS=BASED ) ;
      716     8583        %NI$IOSTAT              ( NAME=IOSTAT, STCLASS=BASED ) ;
      717     8592    1   DCL 1 POINTER           BASED ALIGNED,
      718     8593    1         2 ADR             BIT(24),
      719     8594    1         2 SEGID           BIT(12) ;
      720     8595        %VLP_STATION            ( FPTN=VSTA,   STCLASS=BASED ) ;
      721     8622        /*
      722     8623                Constants
      723     8624        */
      724     8625    1   DCL CHECKBITS BIT(36) CONSTANT INIT('370000770000'O);
      725     8626        %SUB B$USER="B$USRT$->B$USER";
      726     8627        %EJECT;
PL6.E3A0      #002=NIO$COMP File=NIO$QUE.:E05TSI                                 WED 07/30/97 03:36 Page:119
      727     8628    2           DO INHIBIT ;
      728     8629    3              IF NI_INTLVL>1 THEN DO ;
      729     8630    3                 IF N$REQ.IOS$ ~= ADDR(NIL) THEN
              8630                          /* store extended status in IOS packet */
      730     8631    3                    IF ADDR(NI$EXTST) ~= ADDR(NIL) THEN
      731     8632    3                       ADDR(N$REQ.IOS$->IOS.DCW(0))->EXTST = NI$EXTST ;
      732     8633    3                    ELSE
      733     8634    3                       ADDR(N$REQ.IOS$->IOS.DCW(0))->EXTST.EXTST = '0'B ;
      734     8635                      %ENQUEUE (P#=N$REQ,Q#=NI_COMPHD$) ;
      735     8638    3                 RETURN ;
      736     8639    3                 END ;
      737     8640    2              END ;
      738     8641
      739     8642
      740     8643
      741     8644    1   NIO$COMPX: ENTRY(N$REQ,NI$EXTST);
      742     8645    1           IF NOT N$REQ.IOQFLG.INUSE OR NOT N$REQ.IOQFLG.IOQUED THEN
      743     8646    1              CALL SC_NIOBADIOQ ;
      744     8647    1           N$REQ.IOQFLG.IOQUED = '0'B ;
      745     8648
      746     8649
      747     8650
      748     8651    1           IF N$REQ.FLTSTAT.DCW='0'B OR N$REQ.STATUS.NCP=7 THEN GOTO COMPCMN;
      749     8652             /* DPS90 zeroes out second word of status when no data is transferred */
      750     8653    1           TEMP=N$REQ.STATUS.NCP;
      751     8654    1           IF TEMP=0 THEN TEMP=4;
      752     8655    2           IF HW_IMX THEN DO;
      753     8656    2              IOSTAT$=PINCRW(N$REQ.IOS$,%IMX_STATUS_OFFSET);
      754     8657    2              N$REQ.ARSIZE=(IOSTAT$->IOSTAT.LAST_IDCW.COUNT-1)*4+TEMP;
      755     8658    2              END;
      756     8659    1           ELSE
      757     8660    1              N$REQ.ARSIZE=(N$REQ.STATUS.NWA-1)*4+TEMP-
      758     8661    1                MOD(N$REQ.BUFADDR,%BITBIN('4000000'O));
      759     8662    1           GOTO COMPCMN;
      760     8663
      761     8664
      762     8665
PL6.E3A0      #002=NIO$COMP File=NIO$QUE.:E05TSI                                 WED 07/30/97 03:36 Page:120
      763     8666    1   NIO$COMPC: ENTRY(N$REQ);
      764     8667    1           N$REQ.COMP=%COMP_COM;
      765     8668    1           GOTO COMPCMN;
      766     8669
      767     8670
      768     8671
      769     8672    1   NIO$COMPCNS: ENTRY(N$REQ);
      770     8673    1           N$REQ.COMP=%COMP_COMNS;
      771     8674    1           GOTO COMPCMN;
      772     8675
      773     8676
      774     8677
      775     8678    1   NIO$COMPCW: ENTRY(N$REQ);
      776     8679    1           N$REQ.COMP=%COMP_COMW;
      777     8680
      778     8681
      779     8682
      780     8683    1   COMPCMN:
      781     8684    1           IF N$REQ.ERR$~=ADDR(NIL) THEN CALL NIA$RELERR(N$REQ);
      782     8685    1           DCT$ = N$DCT$(N$REQ.DLA.DCTX);
      783     8686    1           IF DCT$->NI$DCT.TYPE = %DV_DP AND DCT$->NI$DCT.DP.MIRROR.FLAG THEN
      784     8687    2           DO;
      785     8688    2              MDCTX = DCT$->NI$DCT.DP.MIRROR.DCTX;
      786     8689    2              MDCT$ = N$DCT$(MDCTX);
      787     8690    2              IF NOT DCT$->NI$DCT.DP.MIRROR.PRI AND NOT N$REQ.BPMIR THEN
      788     8691    3              DO;
      789     8692    3                 N$REQ.DLA.DCTX = MDCTX;
      790     8693    3                 N$REQ.DCT$ = MDCT$;
      791     8694    3                 END;
      792     8695    2              N$REQ.DOMIR = '0'B;
      793     8696    2              N$REQ.MIRDONE = '0'B;
      794     8697    2              N$REQ.BPMIR = '0'B;
      795     8698    2              END;
      796     8699    2           IF N$REQ.IOP_BUFREAL_CVRT THEN DO;
      797     8700             /* IOP CAN'T DO NON-PAGED IO ADDR > 16MW, CONVERT BACK BEFORE COMPING */
      798     8701    2              N$REQ.PTP=0;
      799     8702    2              N$REQ.BUFADDR=BITBIN(N$REQ.BUFREAL_SV);
PL6.E3A0      #002=NIO$COMP File=NIO$QUE.:E05TSI                                 WED 07/30/97 03:36 Page:121
      800     8703    2              N$REQ.IOP_BUFREAL_CVRT='0'B;
      801     8704    2              END;
      802     8705    2           DO CASE(N$REQ.COMP);
      803     8706    2            CASE(%COMP_REG,%COMP_COM,%COMP_COMNS,%COMP_COMW,%COMP_MIRROR);
      804     8707    2              N$REQ.TYC.EGV='1'B;
      805     8708    3              IF N$REQ.OPFLG.EA THEN DO;
      806     8709    3                 N$REQ.OPFLG.REQ = '0'B;
      807     8710    3                 EXRTN = N$REQ.EAENTRY;
      808     8711    3                 CALL EXRTN(N$REQ) ALTRET(RECOMP);
      809     8712    4                 IF N$REQ.OPFLG.REQ THEN DO;
      810     8713    5                    IF N$REQ.OPFLG.CLR THEN DO;
      811     8714                            %LOCK (G#=S_ASFGATE);
      812     8717    5                       REL$=ADDR(B$USER(N$REQ.USER#));
      813     8718    5                       REL$->B$U.ASYNCH=REL$->B$U.ASYNCH|%U_CACHE;
      814     8719                            %UNLOCK (G#=S_ASFGATE);
      815     8722    5                       END;
      816     8723    4                    CALL NIQ$GETID(ADDR(N$REQ));
      817     8724    4                    N$REQ.ARCT=0;
      818     8725    4                    CALL NIO$REQUE(N$REQ) ALTRET(REQUE);
      819     8726    4                    RETURN;
      820     8727    4                    END;
      821     8728    3                 END;
      822     8729    3              IF N$REQ.OPFLG.CLR THEN DO;
      823     8730                      %LOCK (G#=S_ASFGATE);
      824     8733    3                 REL$=ADDR(B$USER(N$REQ.USER#));
      825     8734    3                 REL$->B$U.ASYNCH=REL$->B$U.ASYNCH|%U_CACHE;
      826     8735                      %UNLOCK (G#=S_ASFGATE);
      827     8738    3                 END;
      828     8739    2              IF N$REQ.TYC & ~%TYC_EGV THEN TYC=N$REQ.TYC;
      829     8740    2              ELSE TYC='0'B;
      830     8741    3              IF N$REQ.OPFLG.USER THEN DO;
      831     8742    3                 UFLAG=%SS_IOC;
      832     8743    4                 IF N$REQ.DCB$~=ADDR(NIL) THEN DO;
      833     8744                         %LOCK (G#=F_DCBLOCK);
      834     8747    4                    S_WSPTD.BLKNO(%IOENDWSQ)=B$USER.PT(N$REQ.USER#);
      835     8748    4                    CALL HFC$ASSOCCLR(%IOENDWSQ,0,16384); /*MAX Dense PT*/
      836     8749    4                    DCB$=N$REQ.DCB$;
PL6.E3A0      #002=NIO$COMP File=NIO$QUE.:E05TSI                                 WED 07/30/97 03:36 Page:122
      837     8750    4                    ADDR(DCB$)->POINTER.SEGID=%ROSEG8SID;
      838     8751    5                    IF N$REQ.OPFLG.ARS THEN DO;
      839     8752    5                       DCB$->F$DCB.ARS=N$REQ.ARSIZE;
      840     8753    5                       DCB$->F$DCB.EOMCHAR=N$REQ.DVE.EOMCHAR;
      841     8754    5                       DCB$->F$DCB.DVBYTE=N$REQ.DVE.DVBYTE;
      842     8755    5                       END;
      843     8756    5                    IF N$REQ.ERRCT~=0 THEN DO;
      844     8757    5                       DCB$->F$DCB.RETRYCNT=DCB$->F$DCB.RETRYCNT+N$REQ.ERRCT;
      845     8758    5                       END;
      846     8759    4                    IF N$REQ.COMP=%COMP_COM
      847     8760    4                      OR (N$REQ.COMP=%COMP_COMW AND
      848     8761    5                      NOT DCB$->F$DCB.LSTAOR) THEN DO;
      849     8762    5                       LSTA$=DCB$->F$DCB.LASTSTA$;
      850     8763    5                       ADDR(LSTA$)->POINTER.SEGID=%ROSEG8SID;
      851     8764    5                       LSTA$->VSTA=N$REQ.STATION.LSTA$->VSTA;
      852     8765    5                       END;
      853     8766    5                    IF N$REQ.NWIO=0 THEN DO;
      854     8767    5                       DCB$->F$DCB.TYC(0)=DCB$->F$DCB.TYC(0)|TYC;
      855     8768    5                       DCB$->F$DCB.FCN.CNT(0)=DCB$->F$DCB.FCN.CNT(0)-1;
      856     8769    5                       IF DCB$->F$DCB.FCN.CNT(0)=0 OR N$REQ.OPFLG.WAIT THEN
      857     8770    6                          IF DCB$->F$DCB.FCN.F(0) THEN DO;
      858     8771    6                             DCB$->F$DCB.FCN.F(0)='0'B;
      859     8772    6                             UFLAG=%SS_IOCU;
      860     8773    6                             END;
      861     8774    5                       END;
      862     8775    5                    ELSE DO;
      863     8776    5                       DCB$->F$DCB.TYC(1)=DCB$->F$DCB.TYC(1)|TYC;
      864     8777    5                       DCB$->F$DCB.FCN.CNT(1)=DCB$->F$DCB.FCN.CNT(1)-1;
      865     8778    5                       IF DCB$->F$DCB.FCN.CNT(1)=0 OR N$REQ.OPFLG.WAIT THEN
      866     8779    6                          IF DCB$->F$DCB.FCN.F(1) THEN DO;
      867     8780    6                             DCB$->F$DCB.FCN.F(1)='0'B;
      868     8781    6                             UFLAG=%SS_IOCU;
      869     8782    6                             END;
      870     8783    5                       END;
      871     8784                         %UNLOCK (G#=F_DCBLOCK);
      872     8787    4                    END;
      873     8788    4                 ELSE IF N$REQ.OPFLG.WAIT THEN DO;
PL6.E3A0      #002=NIO$COMP File=NIO$QUE.:E05TSI                                 WED 07/30/97 03:36 Page:123
      874     8789    4                       UFLAG=%SS_IOCU;
      875     8790    4                       END;
      876     8791    4                 IF N$REQ.OPFLG.EVNT THEN DO;
      877     8792                         %LOCK (G#=S_UDLGATE);
      878     8795    4                    N$REQ.DOPTR$->B$DO.IOCOMP.CNTR=N$REQ.DOPTR$->B$DO.IOCOMP.CNTR-1;
      879     8796    4                    N$REQ.DOPTR$->B$DO.IOCOMP.TYC=N$REQ.DOPTR$->B$DO.IOCOMP.TYC | TYC;
      880     8797    4                    N$REQ.DOPTR$->B$DO.IOCOMP.DVE=N$REQ.DVE;
      881     8798    4                    IF N$REQ.OPFLG.ARS THEN
      882     8799    4                       N$REQ.DOPTR$->B$DO.IOCOMP.ARS=N$REQ.DOPTR$->B$DO.IOCOMP.ARS+
              8799                                N$REQ.ARSIZE;
      883     8800    5                    IF N$REQ.DOPTR$->B$DO.IOCOMP.CNTR=0 THEN DO;
      884     8801    5                       TEMP=N$REQ.USER#;
      885     8802                            %UNLOCK (G#=S_UDLGATE);
      886     8805    5                       CALL SSV$SCHDDO(N$REQ.DOPTR$,TEMP);
      887     8806    5                       END;
      888     8807    4                    ELSE
      889     8808                            %UNLOCK (G#=S_UDLGATE);
      890     8811    4                    END;
      891     8812    4                 ELSE IF N$REQ.EVNTINFO~=0 THEN DO;
      892     8813    4                       EVBLK.TYC=N$REQ.TYC;
      893     8814    4                       EVBLK.ARS=N$REQ.ARSIZE;
      894     8815    4                       EVBLK.DVE=N$REQ.DVE;
      895     8816    4                       IF N$REQ.COMP=%COMP_COM
      896     8817    5                         OR N$REQ.COMP=%COMP_COMW THEN DO;
      897     8818    5                          EVBLK.CGPARM=N$REQ.STATION.LSTA$->VSTA;
      898     8819    5                          EVBLK.P#=SIZEW(EVBLK)-SIZEW(EVBLK.P#);
      899     8820    5                          END;
      900     8821    4                       ELSE EVBLK.P#=SIZEW(EVBLK)-SIZEW(EVBLK.P#)-SIZEW(EVBLK.CGPARM);
      901     8822    4                       TEMP=N$REQ.WSR;
      902     8823    4                       CALL SSV$EVENT(N$REQ.USER#,TEMP,%EVSC_IO#,N$REQ.EVNTINFO,0,ADDR(
              8823                                EVBLK));
      903     8824    4                       END;
      904     8825    4                 IF N$DCT$(N$REQ.DLA.DCTX)->NI$DCT.DFLG.CM THEN DO;
      905     8826                         %LOCK (G#=NI_MFGATE);
      906     8829    4                    B$USER.CMF(N$REQ.USER#)=B$USER.CMF(N$REQ.USER#)-1;
      907     8830                         %UNLOCK (G#=NI_MFGATE);
      908     8833    4                    END;
PL6.E3A0      #002=NIO$COMP File=NIO$QUE.:E05TSI                                 WED 07/30/97 03:36 Page:124
      909     8834    3                 CALL SSR$RUE(UFLAG,N$REQ.USER#);
      910     8835    3                 END;
      911     8836    2            CASE(%COMP_TD);
      912     8837    2              IF ADDR(NI$EXTST) = ADDR(NIL) THEN
      913     8838    2                 EXTSTAT.EXTST = '0'B;
      914     8839    2              ELSE
      915     8840    2                 EXTSTAT = NI$EXTST;
      916     8841    2              CALL TDC$COMP(N$REQ,EXTSTAT);
      917     8842    2            END;
      918     8843    1           IF NOT N$REQ.OPFLG.HOLD
      919     8844    1           THEN CALL NIQ$REL(ADDR(N$REQ));
      920     8845    1           RETURN;
      921     8846        /**/
      922     8847    1   REQUE:  ;
      923     8848    1           IF NOT N$REQ.NOALT THEN GOTO RECOMP;
      924     8849    1           N$REQ.IOQFLG.IOQUED = '1'B ;
      925     8850                %LOCK (G#=NI$RP.GATE);
      926     8853                %ENQUEUE (P#=N$REQ,Q#=NI$RP.RQ$);
      927     8856                %UNLOCK (G#=NI$RP.GATE);
      928     8859    1           RETURN;
      929     8860    1   RECOMP: ;
      930     8861    1           N$REQ.IOQFLG.IOQUED = '1'B ;
      931     8862                %LOCK (G#=NI$RP.GATE);
      932     8865                %ENQUEUE (P#=N$REQ,Q#=NI$RP.RC$);
      933     8868                %UNLOCK (G#=NI$RP.GATE);
      934     8871    1           RETURN;
      935     8872        /**/
      936     8873    1   END NIO$COMP;
      937     8874        %EOD;

PL6.E3A0      #002=NIO$COMP File=NIO$QUE.:E05TSI                                 WED 07/30/97 03:36 Page:125
--  Include file information  --

   S_WSPTD_R.:E05TOU  cannot be made into a system file and is referenced.
   SS_SCHED_C.:E05TOU  is referenced.
   N_FC_C.:E05TOU  is referenced.
   NI_MACROS_C.:E05TOU  cannot be made into a system file and is referenced.
   NI$TABLES.:E05TOU  is referenced.
   N$REQ.:E05TOU  is referenced.
   NI_DATA_R.:E05TOU  cannot be made into a system file and is referenced.
   NI_DATA_C.:E05TOU  is referenced.
   HF_LOCK_C.:E05TOU  cannot be made into a system file and is referenced.
   HF_DATA_R.:E05TOU  cannot be made into a system file and is referenced.
   F$DCB.:E05TOU  cannot be made into a system file and is referenced.
   CP_6_SUBS.:E05TOU  is referenced.
   CP_6_C.:E05TOU  is referenced.
   CP_6.:E05TOU  cannot be made into a system file and is referenced.
   B_STRINGS_C.:E05TOU  is referenced.
   B_SEGIDS_C.:E05TOU  is referenced.
   B$USER.:E05TOU  cannot be made into a system file and is referenced.
      No diagnostics issued in procedure NIO$COMP.

   Procedure NIO$COMP requires 617 words for executable code.
   Procedure NIO$COMP requires 46 words of local(AUTO) storage.

PL6.E3A0      #002=NIO$COMP File=NIO$QUE.:E05TSI                                 WED 07/30/97 03:36 Page:126

 Object Unit name= NIO$COMP                                   File name= NIO$QUE.:E05TOU
 UTS= JUL 30 '97 03:36:37.12 WED                              Compiler= PL-6/E31         Sev=      00
 SharedLib= :SHARED_SYSTEM                                    Alt SharedLib=


    ****  Control sections  ****

 Sect   Type Bound  Init  Size OctSiz  Section name(segment info)
    0   DCB   even  none     0      0  M$UC
    1  RoData even  UTS      1      1  NIO$COMP
    2   Proc  even  none   617   1151  NIO$COMP
    3  RoData even  none    19     23  NIO$COMP

    ****  Entry defs  ****

                              Check   Calling
                             calling  sequence
  Sect OctLoc Primary Altret sequence   type   Parms  Name
     2      0   yes            yes      Std        2  NIO$COMP
     2     37                  yes      Std        2  NIO$COMPX
     2    131                  yes      Std        1  NIO$COMPC
     2    141                  yes      Std        1  NIO$COMPCNS
     2    151                  yes      Std        1  NIO$COMPCW
PL6.E3A0      #002=NIO$COMP File=NIO$QUE.:E05TSI                                 WED 07/30/97 03:36 Page:127

  ****  Entry refs  ****

         Check        Calling
        calling       sequence
Altret sequence SRef   type   Args  Name
         yes           Std       2 NIM$ENQUEUE
         yes           Std       1 NIA$RELERR
         yes           Std       1 HFC$UNLOCK
         yes           Std       3 HFC$ASSOCCLR
 yes     yes           Std       1 NIQ$REL
 yes     yes           Std       1 NIQ$GETID
         yes           Std       7 SSV$EVENT
         yes           Std       1 HFC$LOCK
         yes           Std       2 SSV$SCHDDO
         yes           Std       4 SSR$RUE
         yes           Std       2 TDC$COMP
 yes     yes           Std       1 NIO$REQUE
                       Std       0 B_CONSPOOL_D
                       nStd      0 X66_AUTO_2
                       nStd      0 X66_ARET

  ****  Data refs  ****

  Flags:  r = read only, s = secondary
Flgs Name                             Flgs Name                             Flgs Name
     SC_NIOBADIOQ                          M$UC                                  HW_IMX
     N$DCT$$                               N$FQ$                                 NI$FQ$
     NI$IBUF$                              NI$RP$                                NI_MFGATE
     S_WSPTD                               B$USRT$                               F_DCBLOCK
     NI_INTLVL                             NI_COMPHD$                            S_ASFGATE
     S_UDLGATE                             B_VECTNIL
PL6.E3A0      #002=NIO$COMP File=NIO$QUE.:E05TSI                                 WED 07/30/97 03:36 Page:128

  ****  Segment refs  ****

  Flags:  r = read only, s = secondary
Flgs Name                             Flgs Name                             Flgs Name
     ASLENTSID                             ISSID
PL6.E3A0      #002=NIO$COMP File=NIO$QUE.:E05TSI                                 WED 07/30/97 03:36 Page:129


      640        1        /*M*      NIO$COMP - I/O COMPLETION ROUTINE                                  */
      641        2        /*T***********************************************************/
      642        3        /*T*                                                         */
      643        4        /*T* Copyright (c) Bull HN Information Systems Inc., 1997    */
      644        5        /*T*                                                         */
      645        6        /*T***********************************************************/
      646        7        NIO$COMP: PROC(N$REQ,NI$EXTST);

      7  2 000000   000000 700200 xent  NIO$COMP     TSX0  ! X66_AUTO_2
         2 000001   000056 000002                    ZERO    46,2

      647        8        /*
      648        9                Includes
      649       10        */
      650       11        %INCLUDE                B$USER ;
      651      227        %INCLUDE                B_SEGIDS_C ;
      652      766        %INCLUDE                B_STRINGS_C ;
      653      895        %INCLUDE                CP_6 ;
      654     6454        %INCLUDE                CP_6_SUBS ;
      655     6994        %INCLUDE                F$DCB ;
      656     7043        %INCLUDE                HF_DATA_R ;
      657     7086        %INCLUDE                HF_LOCK_C ;
      658     7100        %INCLUDE                NI_DATA_C ;
      659     7213        %INCLUDE                NI_DATA_R ;
      660     7650        %INCLUDE                NI_MACROS_C ;
      661     7917        %INCLUDE                N_FC_C ;
      662     7954        %INCLUDE                SS_SCHED_C ;
      663     8187        %INCLUDE                S_WSPTD_R ;
      664     8203        /*
      665     8204                Parameters
      666     8205        */
      667     8206        %N$REQ                  ( NAME=N$REQ,    STCLASS=PARAM ) ;
      668     8264        %NI$EXTST               ( NAME=NI$EXTST, STCLASS=PARAM ) ;
      669     8298        /*
      670     8299                Entries
      671     8300        */
PL6.E3A0      #002=NIO$COMP File=NIO$QUE.:E05TSI                                 WED 07/30/97 03:36 Page:130
      672     8301    1   DCL 1 HFC$ASSOCCLR      ENTRY(3) ;
      673     8302    1   DCL 1 NIA$RELERR        ENTRY(1) ;
      674     8303    1   DCL 1 NIO$REQUE         ENTRY(1) ALTRET ;
      675     8304    1   DCL 1 NIQ$GETID         ENTRY(1) ALTRET ;
      676     8305    1   DCL 1 NIQ$REL         ENTRY(1) ALTRET ; /* TO SATISFY LINKER */
      677     8306    1   DCL 1 NIQ$RELS        ENTRY(1) ALTRET ; /* TO SATISFY LINKER */
      678     8307    1   DCL 1 SC_NIOBADIOQ      ENTRY CONV(2,0) ;
      679     8308    1   DCL 1 SSR$RUE           ENTRY(4) ;
      680     8309    1   DCL 1 SSV$EVENT         ENTRY(7) ;
      681     8310    1   DCL 1 SSV$SCHDDO        ENTRY(2) ;
      682     8311    1   DCL 1 TDC$COMP          ENTRY(2) ;
      683     8312        /*
      684     8313                Symrefs
      685     8314        */
      686     8315        %B$USERREFS;
      687     8319    1   DCL 1 F_DCBLOCK         BIT(72) SYMREF ALIGNED ;
      688     8320    1   DCL 1 NI_INTLVL         SBIN SYMREF ;
      689     8321    1   DCL 1 NI_COMPHD$        PTR SYMREF ;
      690     8322    1   DCL 1 S_ASFGATE         BIT(72) SYMREF ALIGNED ;
      691     8323    1   DCL 1 S_UDLGATE         BIT(72) SYMREF ALIGNED ;
      692     8324        /*
      693     8325                Auto
      694     8326        */
      695     8327    1   DCL 1 DCB$              PTR ALIGNED AUTO ;
      696     8328    1   DCL 1 DCT$              PTR ALIGNED AUTO ;
      697     8329        %B$NWIO                 ( NAME=EVBLK,   STCLASS=AUTO, PARONLY=1 ) ;
      698     8410    1   DCL 1 EXRTN             EPTR ALIGNED AUTO ;
      699     8411        %NI$EXTST               ( NAME=EXTSTAT, STCLASS=AUTO ) ;
      700     8445    1   DCL 1 IOSTAT$           PTR ALIGNED AUTO ;
      701     8446    1   DCL 1 LSTA$             PTR ALIGNED AUTO ;
      702     8447    1   DCL 1 MDCT$             PTR ALIGNED AUTO ;
      703     8448    1   DCL 1 MDCTX             SBIN WORD ALIGNED AUTO ;
      704     8449    1   DCL 1 REL$              PTR ALIGNED AUTO ;
      705     8450    1   DCL 1 TEMP              UBIN ALIGNED AUTO ;
      706     8451    1   DCL 1 TYC               BIT(36) ALIGNED AUTO ;
      707     8452    1   DCL 1 UFLAG             UBIN ALIGNED AUTO ;
      708     8453        /*
PL6.E3A0      #002=NIO$COMP File=NIO$QUE.:E05TSI                                 WED 07/30/97 03:36 Page:131
      709     8454                Based
      710     8455        */
      711     8456        %B$EVNT ;
      712     8469        %NI$DCT                 ( NAME=NI$DCT, STCLASS=BASED ) ;
      713     8517        %NI$DVT                 ( NAME=DVT,    STCLASS=BASED ) ;
      714     8524        %NI$EXTST               ( NAME=EXTST,  STCLASS=BASED ) ;
      715     8558        %NI$REQ                 ( NAME=IOS,    STCLASS=BASED ) ;
      716     8583        %NI$IOSTAT              ( NAME=IOSTAT, STCLASS=BASED ) ;
      717     8592    1   DCL 1 POINTER           BASED ALIGNED,
      718     8593    1         2 ADR             BIT(24),
      719     8594    1         2 SEGID           BIT(12) ;
      720     8595        %VLP_STATION            ( FPTN=VSTA,   STCLASS=BASED ) ;
      721     8622        /*
      722     8623                Constants
      723     8624        */
      724     8625    1   DCL CHECKBITS BIT(36) CONSTANT INIT('370000770000'O);
      725     8626        %SUB B$USER="B$USRT$->B$USER";
      726     8627        %EJECT;
PL6.E3A0      #002=NIO$COMP File=NIO$QUE.:E05TSI                                 WED 07/30/97 03:36 Page:132
      727     8628    2           DO INHIBIT ;

      728     8629    3              IF NI_INTLVL>1 THEN DO ;

   8629  2 000002   000000 235200 xsym               LDA   ! NI_INTLVL
         2 000003   000001 115207                    CMPA  ! 1,DL
         2 000004   000036 604600 2                  TMOZ  ! s:8640

      729     8630    3                 IF N$REQ.IOS$ ~= ADDR(NIL) THEN
              8630                          /* store extended status in IOS packet */

   8630  2 000005   200003 470700                    LDP0  ! @N$REQ,,AUTO
         2 000006   000012 236300                    LDQ   ! 10,,PR0
         2 000007   000001 116200 xsym               CMPQ  ! B_VECTNIL+1
         2 000010   000026 600200 2                  TZE   ! s:8636

      730     8631    3                    IF ADDR(NI$EXTST) ~= ADDR(NIL) THEN

   8631  2 000011   200004 236300                    LDQ   ! @NI$EXTST,,AUTO
         2 000012   000001 116200 xsym               CMPQ  ! B_VECTNIL+1
         2 000013   000022 600200 2                  TZE   ! s:8634

      731     8632    3                       ADDR(N$REQ.IOS$->IOS.DCW(0))->EXTST = NI$EXTST ;

   8632  2 000014   000012 471700                    LDP1  ! 10,,PR0
         2 000015   200004 473700                    LDP3  ! @NI$EXTST,,AUTO
         2 000016   000100 100700                    MLR   ! fill='000'O
         2 000017   300000 000040                    ADSC9   0,,PR3                   cn=0,n=32
         2 000020   100002 000040                    ADSC9   2,,PR1                   cn=0,n=32
         2 000021   000026 710200 2                  TRA   ! s:8636

      732     8633    3                    ELSE
      733     8634    3                       ADDR(N$REQ.IOS$->IOS.DCW(0))->EXTST.EXTST = '0'B ;

   8634  2 000022   000012 471700                    LDP1  ! 10,,PR0
         2 000023   000100 100600                    MLR   ! fill='000'O
         2 000024   000002 000001 xsym               ADSC9   B_VECTNIL+2              cn=0,n=1
PL6.E3A0      #002=NIO$COMP File=NIO$QUE.:E05TSI                                 WED 07/30/97 03:36 Page:133
         2 000025   100002 000040                    ADSC9   2,,PR1                   cn=0,n=32

      734     8635                      %ENQUEUE (P#=N$REQ,Q#=NI_COMPHD$) ;

   8636  2 000026   000000 236200 3                  LDQ   ! 0
         2 000027   200003 235300                    LDA   ! @N$REQ,,AUTO
         2 000030   200046 757300                    STAQ  ! UFLAG+2,,AUTO
         2 000031   200046 630700                    EPPR0 ! UFLAG+2,,AUTO
         2 000032   000020 631600 xsym               EPPR1 ! B_VECTNIL+16
         2 000033   000000 701200 xent               TSX1  ! NIM$ENQUEUE
         2 000034   000000 011200                    NOP   ! 0

      735     8638    3                 RETURN ;

   8638  2 000035   000000 702200 xent               TSX2  ! X66_ARET

      736     8639    3                 END ;
      737     8640    2              END ;

   8640  2 000036   000041 710000 2                  TRA     s:8645

      738     8641
      739     8642
      740     8643
      741     8644    1   NIO$COMPX: ENTRY(N$REQ,NI$EXTST);

   8644  2 000037   000000 700200 xent  NIO$COMPX    TSX0  ! X66_AUTO_2
         2 000040   000056 000002                    ZERO    46,2

      742     8645    1           IF NOT N$REQ.IOQFLG.INUSE OR NOT N$REQ.IOQFLG.IOQUED THEN

   8645  2 000041   200003 470500                    LDP0    @N$REQ,,AUTO
         2 000042   000033 234100                    SZN     27,,PR0
         2 000043   000047 605000 2                  TPL     s:8646
         2 000044   000033 236100                    LDQ     27,,PR0
         2 000045   200000 316003                    CANQ    65536,DU
         2 000046   000051 601000 2                  TNZ     s:8647
PL6.E3A0      #002=NIO$COMP File=NIO$QUE.:E05TSI                                 WED 07/30/97 03:36 Page:134

      743     8646    1              CALL SC_NIOBADIOQ ;

   8646  2 000047   000000 713400 xsym               CLIMB   SC_NIOBADIOQ
         2 000050   000000 600000 xsid               climb   nvectors=         0

      744     8647    1           N$REQ.IOQFLG.IOQUED = '0'B ;

   8647  2 000051   200003 470500                    LDP0    @N$REQ,,AUTO
         2 000052   000001 236000 3                  LDQ     1
         2 000053   000033 356100                    ANSQ    27,,PR0

      745     8648
      746     8649
      747     8650
      748     8651    1           IF N$REQ.FLTSTAT.DCW='0'B OR N$REQ.STATUS.NCP=7 THEN GOTO COMPCMN;

   8651  2 000054   000015 235100                    LDA     13,,PR0
         2 000055   000160 600000 2                  TZE     COMPCMN
         2 000056   000015 236100                    LDQ     13,,PR0
         2 000057   700000 376007                    ANQ     -32768,DL
         2 000060   700000 116007                    CMPQ    -32768,DL
         2 000061   000160 600000 2                  TZE     COMPCMN

      749     8652             /* DPS90 zeroes out second word of status when no data is transferred */
      750     8653    1           TEMP=N$REQ.STATUS.NCP;

   8653  2 000062   000015 236100                    LDQ     13,,PR0
         2 000063   000017 772000                    QRL     15
         2 000064   000007 376007                    ANQ     7,DL
         2 000065   200042 756100                    STQ     TEMP,,AUTO

      751     8654    1           IF TEMP=0 THEN TEMP=4;

   8654  2 000066   000071 601000 2                  TNZ     s:8655

   8654  2 000067   000004 235007                    LDA     4,DL
PL6.E3A0      #002=NIO$COMP File=NIO$QUE.:E05TSI                                 WED 07/30/97 03:36 Page:135
         2 000070   200042 755100                    STA     TEMP,,AUTO

      752     8655    2           IF HW_IMX THEN DO;

   8655  2 000071   000000 234000 xsym               SZN     HW_IMX
         2 000072   000111 605000 2                  TPL     s:8660

      753     8656    2              IOSTAT$=PINCRW(N$REQ.IOS$,%IMX_STATUS_OFFSET);

   8656  2 000073   000012 236100                    LDQ     10,,PR0
         2 000074   000020 036003                    ADLQ    16,DU
         2 000075   200035 756100                    STQ     IOSTAT$,,AUTO

      754     8657    2              N$REQ.ARSIZE=(IOSTAT$->IOSTAT.LAST_IDCW.COUNT-1)*4+TEMP;

   8657  2 000076   200035 471500                    LDP1    IOSTAT$,,AUTO
         2 000077   100004 236100                    LDQ     4,,PR1
         2 000100   000010 772000                    QRL     8
         2 000101   000002 376000 3                  ANQ     2
         2 000102   200042 036100                    ADLQ    TEMP,,AUTO
         2 000103   000004 136007                    SBLQ    4,DL
         2 000104   000020 736000                    QLS     16
         2 000105   000027 676100                    ERQ     23,,PR0
         2 000106   000034 376000 xsym               ANQ     B_VECTNIL+28
         2 000107   000027 656100                    ERSQ    23,,PR0

      755     8658    2              END;

   8658  2 000110   000130 710000 2                  TRA     s:8662

      756     8659    1           ELSE
      757     8660    1              N$REQ.ARSIZE=(N$REQ.STATUS.NWA-1)*4+TEMP-

   8660  2 000111   000015 236100                    LDQ     13,,PR0
         2 000112   000020 772000                    QRL     16
         2 000113   000003 376000 3                  ANQ     3
         2 000114   200042 036100                    ADLQ    TEMP,,AUTO
PL6.E3A0      #002=NIO$COMP File=NIO$QUE.:E05TSI                                 WED 07/30/97 03:36 Page:136
         2 000115   200046 756100                    STQ     UFLAG+2,,AUTO
         2 000116   000006 236100                    LDQ     6,,PR0
         2 000117   000004 506003                    DIV     4,DU
         2 000120   200047 755100                    STA     UFLAG+3,,AUTO
         2 000121   200046 236100                    LDQ     UFLAG+2,,AUTO
         2 000122   200047 136100                    SBLQ    UFLAG+3,,AUTO
         2 000123   000004 136007                    SBLQ    4,DL
         2 000124   000020 736000                    QLS     16
         2 000125   000027 676100                    ERQ     23,,PR0
         2 000126   000034 376000 xsym               ANQ     B_VECTNIL+28
         2 000127   000027 656100                    ERSQ    23,,PR0

      758     8661    1                MOD(N$REQ.BUFADDR,%BITBIN('4000000'O));
      759     8662    1           GOTO COMPCMN;

   8662  2 000130   000160 710000 2                  TRA     COMPCMN

      760     8663
      761     8664
      762     8665
      763     8666    1   NIO$COMPC: ENTRY(N$REQ);

   8666  2 000131   000000 700200 xent  NIO$COMPC    TSX0  ! X66_AUTO_2
         2 000132   000056 000002                    ZERO    46,2

      764     8667    1           N$REQ.COMP=%COMP_COM;

   8667  2 000133   200003 470500                    LDP0    @N$REQ,,AUTO
         2 000134   000027 236100                    LDQ     23,,PR0
         2 000135   000004 376000 3                  ANQ     4
         2 000136   001000 276007                    ORQ     512,DL
         2 000137   000027 756100                    STQ     23,,PR0

      765     8668    1           GOTO COMPCMN;

   8668  2 000140   000160 710000 2                  TRA     COMPCMN

PL6.E3A0      #002=NIO$COMP File=NIO$QUE.:E05TSI                                 WED 07/30/97 03:36 Page:137
      766     8669
      767     8670
      768     8671
      769     8672    1   NIO$COMPCNS: ENTRY(N$REQ);

   8672  2 000141   000000 700200 xent  NIO$COMPCNS  TSX0  ! X66_AUTO_2
         2 000142   000056 000002                    ZERO    46,2

      770     8673    1           N$REQ.COMP=%COMP_COMNS;

   8673  2 000143   200003 470500                    LDP0    @N$REQ,,AUTO
         2 000144   000027 236100                    LDQ     23,,PR0
         2 000145   000004 376000 3                  ANQ     4
         2 000146   002000 276007                    ORQ     1024,DL
         2 000147   000027 756100                    STQ     23,,PR0

      771     8674    1           GOTO COMPCMN;

   8674  2 000150   000160 710000 2                  TRA     COMPCMN

      772     8675
      773     8676
      774     8677
      775     8678    1   NIO$COMPCW: ENTRY(N$REQ);

   8678  2 000151   000000 700200 xent  NIO$COMPCW   TSX0  ! X66_AUTO_2
         2 000152   000056 000002                    ZERO    46,2

      776     8679    1           N$REQ.COMP=%COMP_COMW;

   8679  2 000153   200003 470500                    LDP0    @N$REQ,,AUTO
         2 000154   000027 236100                    LDQ     23,,PR0
         2 000155   000004 376000 3                  ANQ     4
         2 000156   006000 276007                    ORQ     3072,DL
         2 000157   000027 756100                    STQ     23,,PR0

      777     8680
PL6.E3A0      #002=NIO$COMP File=NIO$QUE.:E05TSI                                 WED 07/30/97 03:36 Page:138
      778     8681
      779     8682
      780     8683    1   COMPCMN:
      781     8684    1           IF N$REQ.ERR$~=ADDR(NIL) THEN CALL NIA$RELERR(N$REQ);

   8684  2 000160   000017 236100       COMPCMN      LDQ     15,,PR0
         2 000161   000001 116000 xsym               CMPQ    B_VECTNIL+1
         2 000162   000167 600000 2                  TZE     s:8685

   8684  2 000163   200003 630500                    EPPR0   @N$REQ,,AUTO
         2 000164   000017 631400 xsym               EPPR1   B_VECTNIL+15
         2 000165   000000 701000 xent               TSX1    NIA$RELERR
         2 000166   000000 011000                    NOP     0

      782     8685    1           DCT$ = N$DCT$(N$REQ.DLA.DCTX);

   8685  2 000167   200003 470500                    LDP0    @N$REQ,,AUTO
         2 000170   000001 236100                    LDQ     1,,PR0
         2 000171   000025 772000                    QRL     21
         2 000172   000000 471400 xsym               LDP1    N$DCT$$
         2 000173   100000 236106                    LDQ     0,QL,PR1
         2 000174   200006 756100                    STQ     DCT$,,AUTO

      783     8686    1           IF DCT$->NI$DCT.TYPE = %DV_DP AND DCT$->NI$DCT.DP.MIRROR.FLAG THEN

   8686  2 000175   200006 473500                    LDP3    DCT$,,AUTO
         2 000176   300007 236100                    LDQ     7,,PR3
         2 000177   007700 376007                    ANQ     4032,DL
         2 000200   000600 116007                    CMPQ    384,DL
         2 000201   000234 601000 2                  TNZ     s:8699
         2 000202   300036 234100                    SZN     30,,PR3
         2 000203   000234 605000 2                  TPL     s:8699

      784     8687    2           DO;

      785     8688    2              MDCTX = DCT$->NI$DCT.DP.MIRROR.DCTX;

PL6.E3A0      #002=NIO$COMP File=NIO$QUE.:E05TSI                                 WED 07/30/97 03:36 Page:139
   8688  2 000204   300037 236100                    LDQ     31,,PR3
         2 000205   000022 772000                    QRL     18
         2 000206   200040 756100                    STQ     MDCTX,,AUTO

      786     8689    2              MDCT$ = N$DCT$(MDCTX);

   8689  2 000207   100000 236106                    LDQ     0,QL,PR1
         2 000210   200037 756100                    STQ     MDCT$,,AUTO

      787     8690    2              IF NOT DCT$->NI$DCT.DP.MIRROR.PRI AND NOT N$REQ.BPMIR THEN

   8690  2 000211   300036 236100                    LDQ     30,,PR3
         2 000212   020000 316003                    CANQ    8192,DU
         2 000213   000226 601000 2                  TNZ     s:8695
         2 000214   000034 236100                    LDQ     28,,PR0
         2 000215   200000 316003                    CANQ    65536,DU
         2 000216   000226 601000 2                  TNZ     s:8695

      788     8691    3              DO;

      789     8692    3                 N$REQ.DLA.DCTX = MDCTX;

   8692  2 000217   200040 236100                    LDQ     MDCTX,,AUTO
         2 000220   000025 736000                    QLS     21
         2 000221   000001 676100                    ERQ     1,,PR0
         2 000222   777770 376003                    ANQ     -8,DU
         2 000223   000001 656100                    ERSQ    1,,PR0

      790     8693    3                 N$REQ.DCT$ = MDCT$;

   8693  2 000224   200037 236100                    LDQ     MDCT$,,AUTO
         2 000225   000002 756100                    STQ     2,,PR0

      791     8694    3                 END;

      792     8695    2              N$REQ.DOMIR = '0'B;

PL6.E3A0      #002=NIO$COMP File=NIO$QUE.:E05TSI                                 WED 07/30/97 03:36 Page:140
   8695  2 000226   000031 236000 xsym               LDQ     B_VECTNIL+25
         2 000227   000034 356100                    ANSQ    28,,PR0

      793     8696    2              N$REQ.MIRDONE = '0'B;

   8696  2 000230   000005 236000 3                  LDQ     5
         2 000231   000034 356100                    ANSQ    28,,PR0

      794     8697    2              N$REQ.BPMIR = '0'B;

   8697  2 000232   000001 236000 3                  LDQ     1
         2 000233   000034 356100                    ANSQ    28,,PR0

      795     8698    2              END;

      796     8699    2           IF N$REQ.IOP_BUFREAL_CVRT THEN DO;

   8699  2 000234   000031 236100                    LDQ     25,,PR0
         2 000235   040000 316007                    CANQ    16384,DL
         2 000236   000244 600000 2                  TZE     s:8705

      797     8700             /* IOP CAN'T DO NON-PAGED IO ADDR > 16MW, CONVERT BACK BEFORE COMPING */
      798     8701    2              N$REQ.PTP=0;

   8701  2 000237   000007 450100                    STZ     7,,PR0

      799     8702    2              N$REQ.BUFADDR=BITBIN(N$REQ.BUFREAL_SV);

   8702  2 000240   000032 235100                    LDA     26,,PR0
         2 000241   000006 755100                    STA     6,,PR0

      800     8703    2              N$REQ.IOP_BUFREAL_CVRT='0'B;

   8703  2 000242   000006 236000 3                  LDQ     6
         2 000243   000031 356100                    ANSQ    25,,PR0

      801     8704    2              END;
PL6.E3A0      #002=NIO$COMP File=NIO$QUE.:E05TSI                                 WED 07/30/97 03:36 Page:141

      802     8705    2           DO CASE(N$REQ.COMP);

   8705  2 000244   000027 236100                    LDQ     23,,PR0
         2 000245   000011 772000                    QRL     9
         2 000246   000177 376007                    ANQ     127,DL
         2 000247   000011 116007                    CMPQ    9,DL
         2 000250   000252 602006 2                  TNC     s:8705+6,QL
         2 000251   001061 710000 2                  TRA     s:8843
         2 000252   000263 710000 2                  TRA     s:8707
         2 000253   000263 710000 2                  TRA     s:8707
         2 000254   000263 710000 2                  TRA     s:8707
         2 000255   001061 710000 2                  TRA     s:8843
         2 000256   001036 710000 2                  TRA     s:8837
         2 000257   001061 710000 2                  TRA     s:8843
         2 000260   000263 710000 2                  TRA     s:8707
         2 000261   001061 710000 2                  TRA     s:8843
         2 000262   000263 710000 2                  TRA     s:8707

      803     8706    2            CASE(%COMP_REG,%COMP_COM,%COMP_COMNS,%COMP_COMW,%COMP_MIRROR);

      804     8707    2              N$REQ.TYC.EGV='1'B;

   8707  2 000263   400000 236003                    LDQ     -131072,DU
         2 000264   000021 256100                    ORSQ    17,,PR0

      805     8708    3              IF N$REQ.OPFLG.EA THEN DO;

   8708  2 000265   000004 236100                    LDQ     4,,PR0
         2 000266   000040 316007                    CANQ    32,DL
         2 000267   000352 600000 2                  TZE     s:8729

      806     8709    3                 N$REQ.OPFLG.REQ = '0'B;

   8709  2 000270   000007 236000 3                  LDQ     7
         2 000271   000004 356100                    ANSQ    4,,PR0

PL6.E3A0      #002=NIO$COMP File=NIO$QUE.:E05TSI                                 WED 07/30/97 03:36 Page:142
      807     8710    3                 EXRTN = N$REQ.EAENTRY;

   8710  2 000272   000023 236100                    LDQ     19,,PR0
         2 000273   200024 756100                    STQ     EXRTN,,AUTO

      808     8711    3                 CALL EXRTN(N$REQ) ALTRET(RECOMP);

   8711  2 000274   200003 630500                    EPPR0   @N$REQ,,AUTO
         2 000275   200024 220100                    LDX0    EXRTN,,AUTO
         2 000276   000017 631400 xsym               EPPR1   B_VECTNIL+15
         2 000277   000000 701010                    TSX1    0,X0
         2 000300   001125 702000 2                  TSX2    RECOMP

      809     8712    4                 IF N$REQ.OPFLG.REQ THEN DO;

   8712  2 000301   200003 470500                    LDP0    @N$REQ,,AUTO
         2 000302   000004 236100                    LDQ     4,,PR0
         2 000303   000002 316007                    CANQ    2,DL
         2 000304   000352 600000 2                  TZE     s:8729

      810     8713    5                    IF N$REQ.OPFLG.CLR THEN DO;

   8713  2 000305   000001 316007                    CANQ    1,DL
         2 000306   000332 600000 2                  TZE     s:8723

      811     8714                            %LOCK (G#=S_ASFGATE);

   8715  2 000307   000010 630400 3                  EPPR0   8
         2 000310   000017 631400 xsym               EPPR1   B_VECTNIL+15
         2 000311   000000 701000 xent               TSX1    HFC$LOCK
         2 000312   000000 011000                    NOP     0

      812     8717    5                       REL$=ADDR(B$USER(N$REQ.USER#));

   8717  2 000313   200003 470500                    LDP0    @N$REQ,,AUTO
         2 000314   000027 236100                    LDQ     23,,PR0
         2 000315   000004 736000                    QLS     4
PL6.E3A0      #002=NIO$COMP File=NIO$QUE.:E05TSI                                 WED 07/30/97 03:36 Page:143
         2 000316   017760 376007                    ANQ     8176,DL
         2 000317   000022 736000                    QLS     18
         2 000320   000000 036000 xsym               ADLQ    B$USRT$
         2 000321   200041 756100                    STQ     REL$,,AUTO

      813     8718    5                       REL$->B$U.ASYNCH=REL$->B$U.ASYNCH|%U_CACHE;

   8718  2 000322   200041 471500                    LDP1    REL$,,AUTO
         2 000323   100001 236100                    LDQ     1,,PR1
         2 000324   000003 276000 xsym               ORQ     B_VECTNIL+3
         2 000325   100001 756100                    STQ     1,,PR1

      814     8719                            %UNLOCK (G#=S_ASFGATE);

   8720  2 000326   000010 630400 3                  EPPR0   8
         2 000327   000017 631400 xsym               EPPR1   B_VECTNIL+15
         2 000330   000000 701000 xent               TSX1    HFC$UNLOCK
         2 000331   000000 011000                    NOP     0

      815     8722    5                       END;

      816     8723    4                    CALL NIQ$GETID(ADDR(N$REQ));

   8723  2 000332   200003 236100                    LDQ     @N$REQ,,AUTO
         2 000333   200046 756100                    STQ     UFLAG+2,,AUTO
         2 000334   200046 630500                    EPPR0   UFLAG+2,,AUTO
         2 000335   200047 450500                    STP0    UFLAG+3,,AUTO
         2 000336   200047 630500                    EPPR0   UFLAG+3,,AUTO
         2 000337   000017 631400 xsym               EPPR1   B_VECTNIL+15
         2 000340   000000 701000 xent               TSX1    NIQ$GETID
         2 000341   000000 011000                    NOP     0

      817     8724    4                    N$REQ.ARCT=0;

   8724  2 000342   000000 220003                    LDX0    0,DU
         2 000343   200003 470500                    LDP0    @N$REQ,,AUTO
         2 000344   000030 740100                    STX0    24,,PR0
PL6.E3A0      #002=NIO$COMP File=NIO$QUE.:E05TSI                                 WED 07/30/97 03:36 Page:144

      818     8725    4                    CALL NIO$REQUE(N$REQ) ALTRET(REQUE);

   8725  2 000345   200003 630500                    EPPR0   @N$REQ,,AUTO
         2 000346   000017 631400 xsym               EPPR1   B_VECTNIL+15
         2 000347   000000 701000 xent               TSX1    NIO$REQUE
         2 000350   001076 702000 2                  TSX2    REQUE

      819     8726    4                    RETURN;

   8726  2 000351   000000 702200 xent               TSX2  ! X66_ARET

      820     8727    4                    END;
      821     8728    3                 END;
      822     8729    3              IF N$REQ.OPFLG.CLR THEN DO;

   8729  2 000352   000001 316007                    CANQ    1,DL
         2 000353   000377 600000 2                  TZE     s:8739

      823     8730                      %LOCK (G#=S_ASFGATE);

   8731  2 000354   000010 630400 3                  EPPR0   8
         2 000355   000017 631400 xsym               EPPR1   B_VECTNIL+15
         2 000356   000000 701000 xent               TSX1    HFC$LOCK
         2 000357   000000 011000                    NOP     0

      824     8733    3                 REL$=ADDR(B$USER(N$REQ.USER#));

   8733  2 000360   200003 470500                    LDP0    @N$REQ,,AUTO
         2 000361   000027 236100                    LDQ     23,,PR0
         2 000362   000004 736000                    QLS     4
         2 000363   017760 376007                    ANQ     8176,DL
         2 000364   000022 736000                    QLS     18
         2 000365   000000 036000 xsym               ADLQ    B$USRT$
         2 000366   200041 756100                    STQ     REL$,,AUTO

      825     8734    3                 REL$->B$U.ASYNCH=REL$->B$U.ASYNCH|%U_CACHE;
PL6.E3A0      #002=NIO$COMP File=NIO$QUE.:E05TSI                                 WED 07/30/97 03:36 Page:145

   8734  2 000367   200041 471500                    LDP1    REL$,,AUTO
         2 000370   100001 236100                    LDQ     1,,PR1
         2 000371   000003 276000 xsym               ORQ     B_VECTNIL+3
         2 000372   100001 756100                    STQ     1,,PR1

      826     8735                      %UNLOCK (G#=S_ASFGATE);

   8736  2 000373   000010 630400 3                  EPPR0   8
         2 000374   000017 631400 xsym               EPPR1   B_VECTNIL+15
         2 000375   000000 701000 xent               TSX1    HFC$UNLOCK
         2 000376   000000 011000                    NOP     0

      827     8738    3                 END;

      828     8739    2              IF N$REQ.TYC & ~%TYC_EGV THEN TYC=N$REQ.TYC;

   8739  2 000377   000030 236000 xsym               LDQ     B_VECTNIL+24
         2 000400   000027 676000 xsym               ERQ     B_VECTNIL+23
         2 000401   200003 470500                    LDP0    @N$REQ,,AUTO
         2 000402   000021 376100                    ANQ     17,,PR0
         2 000403   000407 600000 2                  TZE     s:8740

   8739  2 000404   000021 236100                    LDQ     17,,PR0
         2 000405   200043 756100                    STQ     TYC,,AUTO
         2 000406   000410 710000 2                  TRA     s:8741

      829     8740    2              ELSE TYC='0'B;

   8740  2 000407   200043 450100                    STZ     TYC,,AUTO

      830     8741    3              IF N$REQ.OPFLG.USER THEN DO;

   8741  2 000410   000004 236100                    LDQ     4,,PR0
         2 000411   000400 316007                    CANQ    256,DL
         2 000412   001061 600000 2                  TZE     s:8843

PL6.E3A0      #002=NIO$COMP File=NIO$QUE.:E05TSI                                 WED 07/30/97 03:36 Page:146
      831     8742    3                 UFLAG=%SS_IOC;

   8742  2 000413   000036 235007                    LDA     30,DL
         2 000414   200044 755100                    STA     UFLAG,,AUTO

      832     8743    4                 IF N$REQ.DCB$~=ADDR(NIL) THEN DO;

   8743  2 000415   000022 236100                    LDQ     18,,PR0
         2 000416   000001 116000 xsym               CMPQ    B_VECTNIL+1
         2 000417   000620 600000 2                  TZE     s:8788

      833     8744                         %LOCK (G#=F_DCBLOCK);

   8745  2 000420   000011 630400 3                  EPPR0   9
         2 000421   000017 631400 xsym               EPPR1   B_VECTNIL+15
         2 000422   000000 701000 xent               TSX1    HFC$LOCK
         2 000423   000000 011000                    NOP     0

      834     8747    4                    S_WSPTD.BLKNO(%IOENDWSQ)=B$USER.PT(N$REQ.USER#);

   8747  2 000424   200003 470500                    LDP0    @N$REQ,,AUTO
         2 000425   000027 236100                    LDQ     23,,PR0
         2 000426   000004 736000                    QLS     4
         2 000427   017760 376007                    ANQ     8176,DL
         2 000430   000000 471400 xsym               LDP1    B$USRT$
         2 000431   100014 220106                    LDX0    12,QL,PR1
         2 000432   000007 740000 xsym               STX0    S_WSPTD+7

      835     8748    4                    CALL HFC$ASSOCCLR(%IOENDWSQ,0,16384); /*MAX Dense PT*/

   8748  2 000433   000013 630400 3                  EPPR0   11
         2 000434   000021 631400 xsym               EPPR1   B_VECTNIL+17
         2 000435   000000 701000 xent               TSX1    HFC$ASSOCCLR
         2 000436   000000 011000                    NOP     0

      836     8749    4                    DCB$=N$REQ.DCB$;

PL6.E3A0      #002=NIO$COMP File=NIO$QUE.:E05TSI                                 WED 07/30/97 03:36 Page:147
   8749  2 000437   200003 470500                    LDP0    @N$REQ,,AUTO
         2 000440   000022 236100                    LDQ     18,,PR0
         2 000441   200005 756100                    STQ     DCB$,,AUTO

      837     8750    4                    ADDR(DCB$)->POINTER.SEGID=%ROSEG8SID;

   8750  2 000442   006125 236007                    LDQ     3157,DL
         2 000443   200005 752103                    STCQ    DCB$,'03'O,AUTO

      838     8751    5                    IF N$REQ.OPFLG.ARS THEN DO;

   8751  2 000444   000004 236100                    LDQ     4,,PR0
         2 000445   000200 316007                    CANQ    128,DL
         2 000446   000464 600000 2                  TZE     s:8756

      839     8752    5                       DCB$->F$DCB.ARS=N$REQ.ARSIZE;

   8752  2 000447   000027 236100                    LDQ     23,,PR0
         2 000450   000020 772000                    QRL     16
         2 000451   200005 471500                    LDP1    DCB$,,AUTO
         2 000452   100000 756100                    STQ     0,,PR1

      840     8753    5                       DCB$->F$DCB.EOMCHAR=N$REQ.DVE.EOMCHAR;

   8753  2 000453   200005 471500                    LDP1    DCB$,,AUTO
         2 000454   000031 236100                    LDQ     25,,PR0
         2 000455   000022 772000                    QRL     18
         2 000456   100003 552104                    STBQ    3,'04'O,PR1

      841     8754    5                       DCB$->F$DCB.DVBYTE=N$REQ.DVE.DVBYTE;

   8754  2 000457   200005 471500                    LDP1    DCB$,,AUTO
         2 000460   000031 236100                    LDQ     25,,PR0
         2 000461   100003 676100                    ERQ     3,,PR1
         2 000462   776000 376003                    ANQ     -1024,DU
         2 000463   100003 656100                    ERSQ    3,,PR1

PL6.E3A0      #002=NIO$COMP File=NIO$QUE.:E05TSI                                 WED 07/30/97 03:36 Page:148
      842     8755    5                       END;

      843     8756    5                    IF N$REQ.ERRCT~=0 THEN DO;

   8756  2 000464   000003 236100                    LDQ     3,,PR0
         2 000465   777000 316003                    CANQ    -512,DU
         2 000466   000500 600000 2                  TZE     s:8759

      844     8757    5                       DCB$->F$DCB.RETRYCNT=DCB$->F$DCB.RETRYCNT+N$REQ.ERRCT;

   8757  2 000467   000003 236100                    LDQ     3,,PR0
         2 000470   000033 772000                    QRL     27
         2 000471   200046 756100                    STQ     UFLAG+2,,AUTO
         2 000472   200005 471500                    LDP1    DCB$,,AUTO
         2 000473   100005 236100                    LDQ     5,,PR1
         2 000474   000022 772000                    QRL     18
         2 000475   200046 036100                    ADLQ    UFLAG+2,,AUTO
         2 000476   000000 620006                    EAX0    0,QL
         2 000477   100005 740100                    STX0    5,,PR1

      845     8758    5                       END;

      846     8759    4                    IF N$REQ.COMP=%COMP_COM

   8759  2 000500   000027 236100                    LDQ     23,,PR0
         2 000501   177000 376007                    ANQ     65024,DL
         2 000502   001000 116007                    CMPQ    512,DL
         2 000503   000512 600000 2                  TZE     s:8762
         2 000504   006000 116007                    CMPQ    3072,DL
         2 000505   000524 601000 2                  TNZ     s:8766
         2 000506   200005 471500                    LDP1    DCB$,,AUTO
         2 000507   100031 236100                    LDQ     25,,PR1
         2 000510   004000 316003                    CANQ    2048,DU
         2 000511   000524 601000 2                  TNZ     s:8766

      847     8760    4                      OR (N$REQ.COMP=%COMP_COMW AND
      848     8761    5                      NOT DCB$->F$DCB.LSTAOR) THEN DO;
PL6.E3A0      #002=NIO$COMP File=NIO$QUE.:E05TSI                                 WED 07/30/97 03:36 Page:149

      849     8762    5                       LSTA$=DCB$->F$DCB.LASTSTA$;

   8762  2 000512   200005 471500                    LDP1    DCB$,,AUTO
         2 000513   100007 236100                    LDQ     7,,PR1
         2 000514   200036 756100                    STQ     LSTA$,,AUTO

      850     8763    5                       ADDR(LSTA$)->POINTER.SEGID=%ROSEG8SID;

   8763  2 000515   006125 236007                    LDQ     3157,DL
         2 000516   200036 752103                    STCQ    LSTA$,'03'O,AUTO

      851     8764    5                       LSTA$->VSTA=N$REQ.STATION.LSTA$->VSTA;

   8764  2 000517   000013 473500                    LDP3    11,,PR0
         2 000520   200036 474500                    LDP4    LSTA$,,AUTO
         2 000521   000100 100500                    MLR     fill='000'O
         2 000522   300000 000040                    ADSC9   0,,PR3                   cn=0,n=32
         2 000523   400000 000040                    ADSC9   0,,PR4                   cn=0,n=32

      852     8765    5                       END;

      853     8766    5                    IF N$REQ.NWIO=0 THEN DO;

   8766  2 000524   000031 236100                    LDQ     25,,PR0
         2 000525   400000 316007                    CANQ    -131072,DL
         2 000526   000561 601000 2                  TNZ     s:8776

      854     8767    5                       DCB$->F$DCB.TYC(0)=DCB$->F$DCB.TYC(0)|TYC;

   8767  2 000527   200005 471500                    LDP1    DCB$,,AUTO
         2 000530   100001 236100                    LDQ     1,,PR1
         2 000531   200043 276100                    ORQ     TYC,,AUTO
         2 000532   100001 756100                    STQ     1,,PR1

      855     8768    5                       DCB$->F$DCB.FCN.CNT(0)=DCB$->F$DCB.FCN.CNT(0)-1;

PL6.E3A0      #002=NIO$COMP File=NIO$QUE.:E05TSI                                 WED 07/30/97 03:36 Page:150
   8768  2 000533   200005 471500                    LDP1    DCB$,,AUTO
         2 000534   100074 236100                    LDQ     60,,PR1
         2 000535   000033 772000                    QRL     27
         2 000536   000377 376007                    ANQ     255,DL
         2 000537   000001 136007                    SBLQ    1,DL
         2 000540   000033 736000                    QLS     27
         2 000541   100074 676100                    ERQ     60,,PR1
         2 000542   377000 376003                    ANQ     130560,DU
         2 000543   100074 656100                    ERSQ    60,,PR1

      856     8769    5                       IF DCB$->F$DCB.FCN.CNT(0)=0 OR N$REQ.OPFLG.WAIT THEN

   8769  2 000544   100074 236100                    LDQ     60,,PR1
         2 000545   377000 316003                    CANQ    130560,DU
         2 000546   000552 600000 2                  TZE     s:8770
         2 000547   000004 236100                    LDQ     4,,PR0
         2 000550   000020 316007                    CANQ    16,DL
         2 000551   000613 600000 2                  TZE     s:8785

      857     8770    6                          IF DCB$->F$DCB.FCN.F(0) THEN DO;

   8770  2 000552   100074 234100                    SZN     60,,PR1
         2 000553   000613 605000 2                  TPL     s:8785

      858     8771    6                             DCB$->F$DCB.FCN.F(0)='0'B;

   8771  2 000554   000031 236000 xsym               LDQ     B_VECTNIL+25
         2 000555   100074 356100                    ANSQ    60,,PR1

      859     8772    6                             UFLAG=%SS_IOCU;

   8772  2 000556   000037 235007                    LDA     31,DL
         2 000557   200044 755100                    STA     UFLAG,,AUTO

      860     8773    6                             END;

      861     8774    5                       END;
PL6.E3A0      #002=NIO$COMP File=NIO$QUE.:E05TSI                                 WED 07/30/97 03:36 Page:151

   8774  2 000560   000613 710000 2                  TRA     s:8785

      862     8775    5                    ELSE DO;

      863     8776    5                       DCB$->F$DCB.TYC(1)=DCB$->F$DCB.TYC(1)|TYC;

   8776  2 000561   200005 471500                    LDP1    DCB$,,AUTO
         2 000562   100002 236100                    LDQ     2,,PR1
         2 000563   200043 276100                    ORQ     TYC,,AUTO
         2 000564   100002 756100                    STQ     2,,PR1

      864     8777    5                       DCB$->F$DCB.FCN.CNT(1)=DCB$->F$DCB.FCN.CNT(1)-1;

   8777  2 000565   200005 471500                    LDP1    DCB$,,AUTO
         2 000566   100074 236100                    LDQ     60,,PR1
         2 000567   000022 772000                    QRL     18
         2 000570   000377 376007                    ANQ     255,DL
         2 000571   000001 136007                    SBLQ    1,DL
         2 000572   000022 736000                    QLS     18
         2 000573   100074 676100                    ERQ     60,,PR1
         2 000574   000377 376003                    ANQ     255,DU
         2 000575   100074 656100                    ERSQ    60,,PR1

      865     8778    5                       IF DCB$->F$DCB.FCN.CNT(1)=0 OR N$REQ.OPFLG.WAIT THEN

   8778  2 000576   100074 236100                    LDQ     60,,PR1
         2 000577   000377 316003                    CANQ    255,DU
         2 000600   000604 600000 2                  TZE     s:8779
         2 000601   000004 236100                    LDQ     4,,PR0
         2 000602   000020 316007                    CANQ    16,DL
         2 000603   000613 600000 2                  TZE     s:8785

      866     8779    6                          IF DCB$->F$DCB.FCN.F(1) THEN DO;

   8779  2 000604   100074 236100                    LDQ     60,,PR1
         2 000605   000400 316003                    CANQ    256,DU
PL6.E3A0      #002=NIO$COMP File=NIO$QUE.:E05TSI                                 WED 07/30/97 03:36 Page:152
         2 000606   000613 600000 2                  TZE     s:8785

      867     8780    6                             DCB$->F$DCB.FCN.F(1)='0'B;

   8780  2 000607   000016 236000 3                  LDQ     14
         2 000610   100074 356100                    ANSQ    60,,PR1

      868     8781    6                             UFLAG=%SS_IOCU;

   8781  2 000611   000037 235007                    LDA     31,DL
         2 000612   200044 755100                    STA     UFLAG,,AUTO

      869     8782    6                             END;

      870     8783    5                       END;

      871     8784                         %UNLOCK (G#=F_DCBLOCK);

   8785  2 000613   000011 630400 3                  EPPR0   9
         2 000614   000017 631400 xsym               EPPR1   B_VECTNIL+15
         2 000615   000000 701000 xent               TSX1    HFC$UNLOCK
         2 000616   000000 011000                    NOP     0

      872     8787    4                    END;

   8787  2 000617   000625 710000 2                  TRA     s:8791

      873     8788    4                 ELSE IF N$REQ.OPFLG.WAIT THEN DO;

   8788  2 000620   000004 236100                    LDQ     4,,PR0
         2 000621   000020 316007                    CANQ    16,DL
         2 000622   000625 600000 2                  TZE     s:8791

      874     8789    4                       UFLAG=%SS_IOCU;

   8789  2 000623   000037 235007                    LDA     31,DL
         2 000624   200044 755100                    STA     UFLAG,,AUTO
PL6.E3A0      #002=NIO$COMP File=NIO$QUE.:E05TSI                                 WED 07/30/97 03:36 Page:153

      875     8790    4                       END;

      876     8791    4                 IF N$REQ.OPFLG.EVNT THEN DO;

   8791  2 000625   200003 470500                    LDP0    @N$REQ,,AUTO
         2 000626   000004 236100                    LDQ     4,,PR0
         2 000627   000100 316007                    CANQ    64,DL
         2 000630   000712 600000 2                  TZE     s:8812

      877     8792                         %LOCK (G#=S_UDLGATE);

   8793  2 000631   000017 630400 3                  EPPR0   15
         2 000632   000017 631400 xsym               EPPR1   B_VECTNIL+15
         2 000633   000000 701000 xent               TSX1    HFC$LOCK
         2 000634   000000 011000                    NOP     0

      878     8795    4                    N$REQ.DOPTR$->B$DO.IOCOMP.CNTR=N$REQ.DOPTR$->B$DO.IOCOMP.CNTR-1;

   8795  2 000635   200003 470500                    LDP0    @N$REQ,,AUTO
         2 000636   000026 471500                    LDP1    22,,PR0
         2 000637   100011 235100                    LDA     9,,PR1
         2 000640   000001 135007                    SBLA    1,DL
         2 000641   100011 755100                    STA     9,,PR1

      879     8796    4                    N$REQ.DOPTR$->B$DO.IOCOMP.TYC=N$REQ.DOPTR$->B$DO.IOCOMP.TYC | TYC;

   8796  2 000642   000026 471500                    LDP1    22,,PR0
         2 000643   100006 236100                    LDQ     6,,PR1
         2 000644   200043 276100                    ORQ     TYC,,AUTO
         2 000645   100006 756100                    STQ     6,,PR1

      880     8797    4                    N$REQ.DOPTR$->B$DO.IOCOMP.DVE=N$REQ.DVE;

   8797  2 000646   000026 471500                    LDP1    22,,PR0
         2 000647   000031 220100                    LDX0    25,,PR0
         2 000650   100010 740100                    STX0    8,,PR1
PL6.E3A0      #002=NIO$COMP File=NIO$QUE.:E05TSI                                 WED 07/30/97 03:36 Page:154

      881     8798    4                    IF N$REQ.OPFLG.ARS THEN

   8798  2 000651   000004 236100                    LDQ     4,,PR0
         2 000652   000200 316007                    CANQ    128,DL
         2 000653   000661 600000 2                  TZE     s:8800

      882     8799    4                       N$REQ.DOPTR$->B$DO.IOCOMP.ARS=N$REQ.DOPTR$->B$DO.IOCOMP.ARS+
              8799                                N$REQ.ARSIZE;

   8799  2 000654   000026 471500                    LDP1    22,,PR0
         2 000655   000027 236100                    LDQ     23,,PR0
         2 000656   000020 772000                    QRL     16
         2 000657   100007 036100                    ADLQ    7,,PR1
         2 000660   100007 756100                    STQ     7,,PR1

      883     8800    5                    IF N$REQ.DOPTR$->B$DO.IOCOMP.CNTR=0 THEN DO;

   8800  2 000661   000026 471500                    LDP1    22,,PR0
         2 000662   100011 235100                    LDA     9,,PR1
         2 000663   000705 601000 2                  TNZ     s:8809

      884     8801    5                       TEMP=N$REQ.USER#;

   8801  2 000664   000027 236100                    LDQ     23,,PR0
         2 000665   000777 376007                    ANQ     511,DL
         2 000666   200042 756100                    STQ     TEMP,,AUTO

      885     8802                            %UNLOCK (G#=S_UDLGATE);

   8803  2 000667   000017 630400 3                  EPPR0   15
         2 000670   000017 631400 xsym               EPPR1   B_VECTNIL+15
         2 000671   000000 701000 xent               TSX1    HFC$UNLOCK
         2 000672   000000 011000                    NOP     0

      886     8805    5                       CALL SSV$SCHDDO(N$REQ.DOPTR$,TEMP);

PL6.E3A0      #002=NIO$COMP File=NIO$QUE.:E05TSI                                 WED 07/30/97 03:36 Page:155
   8805  2 000673   200042 630500                    EPPR0   TEMP,,AUTO
         2 000674   200047 450500                    STP0    UFLAG+3,,AUTO
         2 000675   200003 236100                    LDQ     @N$REQ,,AUTO
         2 000676   000026 036003                    ADLQ    22,DU
         2 000677   200046 756100                    STQ     UFLAG+2,,AUTO
         2 000700   200046 630500                    EPPR0   UFLAG+2,,AUTO
         2 000701   000020 631400 xsym               EPPR1   B_VECTNIL+16
         2 000702   000000 701000 xent               TSX1    SSV$SCHDDO
         2 000703   000000 011000                    NOP     0

      887     8806    5                       END;

   8806  2 000704   000770 710000 2                  TRA     s:8825

      888     8807    4                    ELSE
      889     8808                            %UNLOCK (G#=S_UDLGATE);

   8809  2 000705   000017 630400 3                  EPPR0   15
         2 000706   000017 631400 xsym               EPPR1   B_VECTNIL+15
         2 000707   000000 701000 xent               TSX1    HFC$UNLOCK
         2 000710   000000 011000                    NOP     0

      890     8811    4                    END;

   8811  2 000711   000770 710000 2                  TRA     s:8825

      891     8812    4                 ELSE IF N$REQ.EVNTINFO~=0 THEN DO;

   8812  2 000712   000026 235100                    LDA     22,,PR0
         2 000713   000770 600000 2                  TZE     s:8825

      892     8813    4                       EVBLK.TYC=N$REQ.TYC;

   8813  2 000714   000021 236100                    LDQ     17,,PR0
         2 000715   200010 756100                    STQ     EVBLK+1,,AUTO

      893     8814    4                       EVBLK.ARS=N$REQ.ARSIZE;
PL6.E3A0      #002=NIO$COMP File=NIO$QUE.:E05TSI                                 WED 07/30/97 03:36 Page:156

   8814  2 000716   000027 236100                    LDQ     23,,PR0
         2 000717   000020 772000                    QRL     16
         2 000720   200011 756100                    STQ     EVBLK+2,,AUTO

      894     8815    4                       EVBLK.DVE=N$REQ.DVE;

   8815  2 000721   000031 220100                    LDX0    25,,PR0
         2 000722   200012 740100                    STX0    EVBLK+3,,AUTO

      895     8816    4                       IF N$REQ.COMP=%COMP_COM

   8816  2 000723   000027 236100                    LDQ     23,,PR0
         2 000724   177000 376007                    ANQ     65024,DL
         2 000725   001000 116007                    CMPQ    512,DL
         2 000726   000731 600000 2                  TZE     s:8818
         2 000727   006000 116007                    CMPQ    3072,DL
         2 000730   000740 601000 2                  TNZ     s:8821

      896     8817    5                         OR N$REQ.COMP=%COMP_COMW THEN DO;

      897     8818    5                          EVBLK.CGPARM=N$REQ.STATION.LSTA$->VSTA;

   8818  2 000731   000013 471500                    LDP1    11,,PR0
         2 000732   000100 100500                    MLR     fill='000'O
         2 000733   100000 000040                    ADSC9   0,,PR1                   cn=0,n=32
         2 000734   200013 000040                    ADSC9   EVBLK+4,,AUTO            cn=0,n=32

      898     8819    5                          EVBLK.P#=SIZEW(EVBLK)-SIZEW(EVBLK.P#);

   8819  2 000735   000014 235007                    LDA     12,DL
         2 000736   200007 755100                    STA     EVBLK,,AUTO

      899     8820    5                          END;

   8820  2 000737   000742 710000 2                  TRA     s:8822

PL6.E3A0      #002=NIO$COMP File=NIO$QUE.:E05TSI                                 WED 07/30/97 03:36 Page:157
      900     8821    4                       ELSE EVBLK.P#=SIZEW(EVBLK)-SIZEW(EVBLK.P#)-SIZEW(EVBLK.CGPARM);

   8821  2 000740   000004 235007                    LDA     4,DL
         2 000741   200007 755100                    STA     EVBLK,,AUTO

      901     8822    4                       TEMP=N$REQ.WSR;

   8822  2 000742   000031 236100                    LDQ     25,,PR0
         2 000743   000777 376007                    ANQ     511,DL
         2 000744   200042 756100                    STQ     TEMP,,AUTO

      902     8823    4                      CALL SSV$EVENT(N$REQ.USER#,TEMP,%EVSC_IO#,N$REQ.EVNTINFO,0,ADDR(
              8823                                EVBLK));

   8823  2 000745   200007 631500                    EPPR1   EVBLK,,AUTO
         2 000746   200046 451500                    STP1    UFLAG+2,,AUTO
         2 000747   200046 633500                    EPPR3   UFLAG+2,,AUTO
         2 000750   200055 453500                    STP3    UFLAG+9,,AUTO
         2 000751   000014 236000 3                  LDQ     12
         2 000752   200054 756100                    STQ     UFLAG+8,,AUTO
         2 000753   200003 236100                    LDQ     @N$REQ,,AUTO
         2 000754   000026 036003                    ADLQ    22,DU
         2 000755   000020 235000 3                  LDA     16
         2 000756   200052 757100                    STAQ    UFLAG+6,,AUTO
         2 000757   200042 634500                    EPPR4   TEMP,,AUTO
         2 000760   200051 454500                    STP4    UFLAG+5,,AUTO
         2 000761   200003 236100                    LDQ     @N$REQ,,AUTO
         2 000762   000021 036000 3                  ADLQ    17
         2 000763   200050 756100                    STQ     UFLAG+4,,AUTO
         2 000764   200050 630500                    EPPR0   UFLAG+4,,AUTO
         2 000765   000024 631400 xsym               EPPR1   B_VECTNIL+20
         2 000766   000000 701000 xent               TSX1    SSV$EVENT
         2 000767   000000 011000                    NOP     0

      903     8824    4                       END;

      904     8825    4                 IF N$DCT$(N$REQ.DLA.DCTX)->NI$DCT.DFLG.CM THEN DO;
PL6.E3A0      #002=NIO$COMP File=NIO$QUE.:E05TSI                                 WED 07/30/97 03:36 Page:158

   8825  2 000770   200003 470500                    LDP0    @N$REQ,,AUTO
         2 000771   000001 236100                    LDQ     1,,PR0
         2 000772   000025 772000                    QRL     21
         2 000773   000000 471400 xsym               LDP1    N$DCT$$
         2 000774   100000 473506                    LDP3    0,QL,PR1
         2 000775   300006 236100                    LDQ     6,,PR3
         2 000776   100000 316007                    CANQ    32768,DL
         2 000777   001024 600000 2                  TZE     s:8834

      905     8826                         %LOCK (G#=NI_MFGATE);

   8827  2 001000   000022 630400 3                  EPPR0   18
         2 001001   000017 631400 xsym               EPPR1   B_VECTNIL+15
         2 001002   000000 701000 xent               TSX1    HFC$LOCK
         2 001003   000000 011000                    NOP     0

      906     8829    4                    B$USER.CMF(N$REQ.USER#)=B$USER.CMF(N$REQ.USER#)-1;

   8829  2 001004   200003 470500                    LDP0    @N$REQ,,AUTO
         2 001005   000027 236100                    LDQ     23,,PR0
         2 001006   000004 736000                    QLS     4
         2 001007   017760 376007                    ANQ     8176,DL
         2 001010   000000 471400 xsym               LDP1    B$USRT$
         2 001011   000000 620006                    EAX0    0,QL
         2 001012   100007 236106                    LDQ     7,QL,PR1
         2 001013   000077 376007                    ANQ     63,DL
         2 001014   000001 136007                    SBLQ    1,DL
         2 001015   100007 676110                    ERQ     7,X0,PR1
         2 001016   000077 376007                    ANQ     63,DL
         2 001017   100007 656110                    ERSQ    7,X0,PR1

      907     8830                         %UNLOCK (G#=NI_MFGATE);

   8831  2 001020   000022 630400 3                  EPPR0   18
         2 001021   000017 631400 xsym               EPPR1   B_VECTNIL+15
         2 001022   000000 701000 xent               TSX1    HFC$UNLOCK
PL6.E3A0      #002=NIO$COMP File=NIO$QUE.:E05TSI                                 WED 07/30/97 03:36 Page:159
         2 001023   000000 011000                    NOP     0

      908     8833    4                    END;

      909     8834    3                 CALL SSR$RUE(UFLAG,N$REQ.USER#);

   8834  2 001024   200003 236100                    LDQ     @N$REQ,,AUTO
         2 001025   000021 036000 3                  ADLQ    17
         2 001026   200047 756100                    STQ     UFLAG+3,,AUTO
         2 001027   200044 630500                    EPPR0   UFLAG,,AUTO
         2 001030   200046 450500                    STP0    UFLAG+2,,AUTO
         2 001031   200046 630500                    EPPR0   UFLAG+2,,AUTO
         2 001032   000020 631400 xsym               EPPR1   B_VECTNIL+16
         2 001033   000000 701000 xent               TSX1    SSR$RUE
         2 001034   000000 011000                    NOP     0

      910     8835    3                 END;

   8835  2 001035   001061 710000 2                  TRA     s:8843

      911     8836    2            CASE(%COMP_TD);

      912     8837    2              IF ADDR(NI$EXTST) = ADDR(NIL) THEN

   8837  2 001036   200004 236100                    LDQ     @NI$EXTST,,AUTO
         2 001037   000001 116000 xsym               CMPQ    B_VECTNIL+1
         2 001040   001045 601000 2                  TNZ     s:8840

      913     8838    2                 EXTSTAT.EXTST = '0'B;

   8838  2 001041   000100 100400                    MLR     fill='000'O
         2 001042   000002 000001 xsym               ADSC9   B_VECTNIL+2              cn=0,n=1
         2 001043   200025 000040                    ADSC9   EXTSTAT,,AUTO            cn=0,n=32
         2 001044   001051 710000 2                  TRA     s:8841

      914     8839    2              ELSE
      915     8840    2                 EXTSTAT = NI$EXTST;
PL6.E3A0      #002=NIO$COMP File=NIO$QUE.:E05TSI                                 WED 07/30/97 03:36 Page:160

   8840  2 001045   200004 474500                    LDP4    @NI$EXTST,,AUTO
         2 001046   000100 100500                    MLR     fill='000'O
         2 001047   400000 000040                    ADSC9   0,,PR4                   cn=0,n=32
         2 001050   200025 000040                    ADSC9   EXTSTAT,,AUTO            cn=0,n=32

      916     8841    2              CALL TDC$COMP(N$REQ,EXTSTAT);

   8841  2 001051   200025 634500                    EPPR4   EXTSTAT,,AUTO
         2 001052   200047 454500                    STP4    UFLAG+3,,AUTO
         2 001053   200003 236100                    LDQ     @N$REQ,,AUTO
         2 001054   200046 756100                    STQ     UFLAG+2,,AUTO
         2 001055   200046 630500                    EPPR0   UFLAG+2,,AUTO
         2 001056   000020 631400 xsym               EPPR1   B_VECTNIL+16
         2 001057   000000 701000 xent               TSX1    TDC$COMP
         2 001060   000000 011000                    NOP     0

      917     8842    2            END;

      918     8843    1           IF NOT N$REQ.OPFLG.HOLD

   8843  2 001061   200003 470500                    LDP0    @N$REQ,,AUTO
         2 001062   000004 236100                    LDQ     4,,PR0
         2 001063   000004 316007                    CANQ    4,DL
         2 001064   001075 601000 2                  TNZ     s:8845

      919     8844    1           THEN CALL NIQ$REL(ADDR(N$REQ));

   8844  2 001065   200003 236100                    LDQ     @N$REQ,,AUTO
         2 001066   200046 756100                    STQ     UFLAG+2,,AUTO
         2 001067   200046 631500                    EPPR1   UFLAG+2,,AUTO
         2 001070   200047 451500                    STP1    UFLAG+3,,AUTO
         2 001071   200047 630500                    EPPR0   UFLAG+3,,AUTO
         2 001072   000017 631400 xsym               EPPR1   B_VECTNIL+15
         2 001073   000000 701000 xent               TSX1    NIQ$REL
         2 001074   000000 011000                    NOP     0

PL6.E3A0      #002=NIO$COMP File=NIO$QUE.:E05TSI                                 WED 07/30/97 03:36 Page:161
      920     8845    1           RETURN;

   8845  2 001075   000000 702200 xent               TSX2  ! X66_ARET

   8843  2 001076                       REQUE        null
      921     8846        /**/
      922     8847    1   REQUE:  ;
      923     8848    1           IF NOT N$REQ.NOALT THEN GOTO RECOMP;

   8848  2 001076   200003 470500                    LDP0    @N$REQ,,AUTO
         2 001077   000004 236100                    LDQ     4,,PR0
         2 001100   100000 316007                    CANQ    32768,DL
         2 001101   001125 600000 2                  TZE     RECOMP

      924     8849    1           N$REQ.IOQFLG.IOQUED = '1'B ;

   8849  2 001102   200000 236003                    LDQ     65536,DU
         2 001103   000033 256100                    ORSQ    27,,PR0

      925     8850                %LOCK (G#=NI$RP.GATE);

   8851  2 001104   000000 630400 xsym               EPPR0   NI$RP$
         2 001105   000017 631400 xsym               EPPR1   B_VECTNIL+15
         2 001106   000000 701000 xent               TSX1    HFC$LOCK
         2 001107   000000 011000                    NOP     0

      926     8853                %ENQUEUE (P#=N$REQ,Q#=NI$RP.RQ$);

   8854  2 001110   000000 236000 xsym               LDQ     NI$RP$
         2 001111   000004 036003                    ADLQ    4,DU
         2 001112   200003 235100                    LDA     @N$REQ,,AUTO
         2 001113   200046 757100                    STAQ    UFLAG+2,,AUTO
         2 001114   200046 630500                    EPPR0   UFLAG+2,,AUTO
         2 001115   000020 631400 xsym               EPPR1   B_VECTNIL+16
         2 001116   000000 701000 xent               TSX1    NIM$ENQUEUE
         2 001117   000000 011000                    NOP     0

PL6.E3A0      #002=NIO$COMP File=NIO$QUE.:E05TSI                                 WED 07/30/97 03:36 Page:162
      927     8856                %UNLOCK (G#=NI$RP.GATE);

   8857  2 001120   000000 630400 xsym               EPPR0   NI$RP$
         2 001121   000017 631400 xsym               EPPR1   B_VECTNIL+15
         2 001122   000000 701000 xent               TSX1    HFC$UNLOCK
         2 001123   000000 011000                    NOP     0

      928     8859    1           RETURN;

   8859  2 001124   000000 702200 xent               TSX2  ! X66_ARET

   8849  2 001125                       RECOMP       null
      929     8860    1   RECOMP: ;
      930     8861    1           N$REQ.IOQFLG.IOQUED = '1'B ;

   8861  2 001125   200003 470500                    LDP0    @N$REQ,,AUTO
         2 001126   200000 236003                    LDQ     65536,DU
         2 001127   000033 256100                    ORSQ    27,,PR0

      931     8862                %LOCK (G#=NI$RP.GATE);

   8863  2 001130   000000 630400 xsym               EPPR0   NI$RP$
         2 001131   000017 631400 xsym               EPPR1   B_VECTNIL+15
         2 001132   000000 701000 xent               TSX1    HFC$LOCK
         2 001133   000000 011000                    NOP     0

      932     8865                %ENQUEUE (P#=N$REQ,Q#=NI$RP.RC$);

   8866  2 001134   000000 236000 xsym               LDQ     NI$RP$
         2 001135   000003 036003                    ADLQ    3,DU
         2 001136   200003 235100                    LDA     @N$REQ,,AUTO
         2 001137   200046 757100                    STAQ    UFLAG+2,,AUTO
         2 001140   200046 630500                    EPPR0   UFLAG+2,,AUTO
         2 001141   000020 631400 xsym               EPPR1   B_VECTNIL+16
         2 001142   000000 701000 xent               TSX1    NIM$ENQUEUE
         2 001143   000000 011000                    NOP     0

PL6.E3A0      #002=NIO$COMP File=NIO$QUE.:E05TSI                                 WED 07/30/97 03:36 Page:163
      933     8868                %UNLOCK (G#=NI$RP.GATE);

   8869  2 001144   000000 630400 xsym               EPPR0   NI$RP$
         2 001145   000017 631400 xsym               EPPR1   B_VECTNIL+15
         2 001146   000000 701000 xent               TSX1    HFC$UNLOCK
         2 001147   000000 011000                    NOP     0

      934     8871    1           RETURN;

   8871  2 001150   000000 702200 xent               TSX2  ! X66_ARET

(unnamed)
 Sect OctLoc
   1     000   370000 770000                                                    ....

(unnamed)
 Sect OctLoc
   3     000   000000 006000   577777 777777   001777 777774   000003 777774    ................
   3     004   777777 600777   677777 777777   777777 737777   777777 777775    ................
   3     010   000000 006000   000000 006000   000000 040000   000011 006000    .......... .....
   3     014   000002 006000   000012 006000   777377 777777   000000 006000    ................
   3     020   000003 006000   000027 600000   000000 006000                    ............
      935     8872        /**/
      936     8873    1   END NIO$COMP;
      937     8874        %EOD;

PL6.E3A0      #002=NIO$COMP File=NIO$QUE.:E05TSI                                 WED 07/30/97 03:36 Page:164
--  Include file information  --

   S_WSPTD_R.:E05TOU  cannot be made into a system file and is referenced.
   SS_SCHED_C.:E05TOU  is referenced.
   N_FC_C.:E05TOU  is referenced.
   NI_MACROS_C.:E05TOU  cannot be made into a system file and is referenced.
   NI$TABLES.:E05TOU  is referenced.
   N$REQ.:E05TOU  is referenced.
   NI_DATA_R.:E05TOU  cannot be made into a system file and is referenced.
   NI_DATA_C.:E05TOU  is referenced.
   HF_LOCK_C.:E05TOU  cannot be made into a system file and is referenced.
   HF_DATA_R.:E05TOU  cannot be made into a system file and is referenced.
   F$DCB.:E05TOU  cannot be made into a system file and is referenced.
   CP_6_SUBS.:E05TOU  is referenced.
   CP_6_C.:E05TOU  is referenced.
   CP_6.:E05TOU  cannot be made into a system file and is referenced.
   B_STRINGS_C.:E05TOU  is referenced.
   B_SEGIDS_C.:E05TOU  is referenced.
   B$USER.:E05TOU  cannot be made into a system file and is referenced.
      No diagnostics issued in procedure NIO$COMP.
PL6.E3A0      #002=NIO$COMP File=NIO$QUE.:E05TSI                                 WED 07/30/97 03:36 Page:165

 **** Variables and constants ****

  ****  Auto variables  ****

  ****  Scalars and arrays  ****
OctLoc.c.b A Datatyp(siz) R M Lvl/name                 OctLoc.c.b A Datatyp(siz) R M Lvl/name

     3-0-0/w PTR         r     1 @N$REQ                     4-0-0/w PTR         r     1 @NI$EXTST
     5-0-0/w PTR         r     1 DCB$                       6-0-0/w PTR         r     1 DCT$
     7-0-0/w STRC(468)   r     1 EVBLK                     24-0-0/w EPTR        r     1 EXRTN
    25-0-0/w STRC(288)   r     1 EXTSTAT                   35-0-0/w PTR         r     1 IOSTAT$
    36-0-0/w PTR         r     1 LSTA$                     37-0-0/w PTR         r     1 MDCT$
    40-0-0/w SBIN        r     1 MDCTX                     *0-0-0/d STRC(1080)  r     1 N$REQ
    *0-0-0/w STRC(288)   r     1 NI$EXTST                  41-0-0/w PTR         r     1 REL$
    42-0-0/w UBIN        r     1 TEMP                      43-0-0/w BIT         r     1 TYC
    44-0-0/w UBIN        r     1 UFLAG

  ****  SYMREF variables  ****

  ****  Scalars and arrays  ****
OctLoc.c.b A Datatyp(siz) R M Lvl/name                 OctLoc.c.b A Datatyp(siz) R M Lvl/name

     0-0-0/w PTR         r     1 B$USRT$                    0-0-0/w BIT (72)    r     1 F_DCBLOCK
     0-0-0/w BIT         r     1 HW_IMX                     0-0-0/w PTR         r     1 N$DCT$$
     0-0-0/w PTR         r     1 N$FQ$                      0-0-0/w PTR         r     1 NI$FQ$
     0-0-0/w PTR         r     1 NI$IBUF$                   0-0-0/w PTR         r     1 NI$RP$
     0-0-0/w PTR         r     1 NI_COMPHD$                 0-0-0/w SBIN        r     1 NI_INTLVL
     0-0-0/w BIT (72)    r     1 NI_MFGATE                  0-0-0/w BIT (72)    r     1 S_ASFGATE
     0-0-0/w BIT (72)    r     1 S_UDLGATE                  0-0-0/w STRC        r     1 S_WSPTD(0:28)

  ****  BASED and DCB variables  ****

  ****  Scalars and arrays  ****
OctLoc.c.b A Datatyp(siz) R M Lvl/name                 OctLoc.c.b A Datatyp(siz) R M Lvl/name

     0-0-0/d STRC(396)   r     1 B$DO                       0-0-0/d STRC(576)   r     1 B$U
     0-0-0/w STRC(576)   r     1 B$USER(0:0)                0-0-0/w STRC(288)   r     1 EXTST
PL6.E3A0      #002=NIO$COMP File=NIO$QUE.:E05TSI                                 WED 07/30/97 03:36 Page:166
     0-0-0/d ASTR(3528)  r     1 F$DCB                      0-0-0/d STRC(504)   r     1 IOS
     0-0-0/d STRC(576)   r     1 IOSTAT                     0-0-0/w PTR         r     1 N$DCT$(0:0)
     0-0-0/w STRC(1332)  r     1 NI$DCT                     0-0-0/w STRC(180)   r     1 NI$RP
     0-0-0/w STRC        r     1 POINTER                    0-0-0/w STRC(288)   r     1 VSTA


   Procedure NIO$COMP requires 617 words for executable code.
   Procedure NIO$COMP requires 46 words of local(AUTO) storage.
PL6.E3A0      #002=NIO$COMP File=NIO$QUE.:E05TSI                                 WED 07/30/97 03:36 Page:167
          *** CROSS REFERENCE LISTING ***
**     DENOTES     IDENTIFIER DEFINITION
<<                 IDENTIFIER'S VALUE SET
>>                 IDENTIFIER'S VALUE USED
<>                 IDENTIFIER SET AND/OR USED
--                 IDENTIFIER REFERENCED
PL6.E3A0      #002=NIO$COMP File=NIO$QUE.:E05TSI                                 WED 07/30/97 03:36 Page:168
          MINI XREF LISTING

B$DO.ECCINFO
       162**DCL       163--REDEF
B$DO.IOCOMP.ARS
       165**DCL      8799<<ASSIGN   8799>>ASSIGN
B$DO.IOCOMP.CNTR
       170**DCL      8795<<ASSIGN   8795>>ASSIGN   8800>>IF
B$DO.IOCOMP.DVE
       166**DCL      8797<<ASSIGN
B$DO.IOCOMP.TYC
       164**DCL      8796<<ASSIGN   8796>>ASSIGN
B$EVNT.CODE
      8458**DCL      8458--REDEF    8459--REDEF    8459--REDEF
B$EVNT.ERR.ERR#
      8460**DCL      8460--REDEF
B$EVNT.EVID
      8459**DCL      8459--REDEF    8459--REDEF
B$U.ASYNCH
        99**DCL      8718<<ASSIGN   8718>>ASSIGN   8734<<ASSIGN   8734>>ASSIGN
B$U.MISC
       141**DCL       142--REDEF
B$USER
       186**DCL      8717--ASSIGN   8733--ASSIGN
B$USER.CMF
       200**DCL      8829<<ASSIGN   8829>>ASSIGN
B$USER.MISC
       217**DCL       218--REDEF
B$USER.PT
       211**DCL      8747>>ASSIGN
B$USRT$
      8317**DCL      8717>>ASSIGN   8733>>ASSIGN   8747>>ASSIGN   8829>>ASSIGN   8829>>ASSIGN
COMPCMN
      8684**LABEL    8651--GOTO     8662--GOTO     8668--GOTO     8674--GOTO
PL6.E3A0      #002=NIO$COMP File=NIO$QUE.:E05TSI                                 WED 07/30/97 03:36 Page:169
DCB$
      8327**DCL      8749<<ASSIGN   8750--ASSIGN   8752>>ASSIGN   8753>>ASSIGN   8754>>ASSIGN   8757>>ASSIGN
      8757>>ASSIGN   8759>>IF       8762>>ASSIGN   8767>>ASSIGN   8767>>ASSIGN   8768>>ASSIGN   8768>>ASSIGN
      8769>>IF       8770>>IF       8771>>ASSIGN   8776>>ASSIGN   8776>>ASSIGN   8777>>ASSIGN   8777>>ASSIGN
      8778>>IF       8779>>IF       8780>>ASSIGN
DCT$
      8328**DCL      8685<<ASSIGN   8686>>IF       8686>>IF       8688>>ASSIGN   8690>>IF
DVT.MPC
      8520**DCL      8521--REDEF
EVBLK
      8333**DCL      8819--ASSIGN   8821--ASSIGN   8823--CALL
EVBLK.ARS
      8335**DCL      8814<<ASSIGN
EVBLK.CGPARM
      8351**DCL      8818<<ASSIGN   8821--ASSIGN
EVBLK.CGPARM.MSGIDXT
      8359**DCL      8362--REDEF
EVBLK.DVE
      8335**DCL      8815<<ASSIGN
EVBLK.P#
      8335**DCL      8819<<ASSIGN   8819--ASSIGN   8821<<ASSIGN   8821--ASSIGN
EVBLK.TYC
      8335**DCL      8813<<ASSIGN
EXRTN
      8410**DCL      8710<<ASSIGN   8711>>CALL
EXTST
      8529**DCL      8632<<ASSIGN
EXTST.EXTST
      8533**DCL      8535--REDEF    8537--REDEF    8634<<ASSIGN
EXTSTAT
      8416**DCL      8840<<ASSIGN   8841<>CALL
EXTSTAT.EXTST
      8420**DCL      8422--REDEF    8424--REDEF    8838<<ASSIGN
F$DCB.ACTPOS
      7020**DCL      7020--REDEF
F$DCB.ARS
PL6.E3A0      #002=NIO$COMP File=NIO$QUE.:E05TSI                                 WED 07/30/97 03:36 Page:170
      6995**DCL      6995--REDEF    8752<<ASSIGN
F$DCB.ATTR
      7013**DCL      7014--REDEF
F$DCB.BORROW
      7028**DCL      7028--REDEF    7028--REDEF    7028--REDEF
F$DCB.DCBNAME.L
      7042**DCL      7042--IMP-SIZ
F$DCB.DVBYTE
      6998**DCL      8754<<ASSIGN
F$DCB.EOMCHAR
      6999**DCL      6999--REDEF    8753<<ASSIGN
F$DCB.FCN.CNT
      7032**DCL      8768<<ASSIGN   8768>>ASSIGN   8769>>IF       8777<<ASSIGN   8777>>ASSIGN   8778>>IF
F$DCB.FCN.F
      7032**DCL      8770>>IF       8771<<ASSIGN   8779>>IF       8780<<ASSIGN
F$DCB.FLDID
      7023**DCL      7023--REDEF
F$DCB.FORM$
      7017**DCL      7017--REDEF
F$DCB.FSECT
      7033**DCL      7033--REDEF
F$DCB.FSN
      7010**DCL      7010--REDEF    7010--REDEF    7011--REDEF
F$DCB.HEADER$
      7016**DCL      7016--REDEF
F$DCB.IXTNSIZE
      7014**DCL      7014--REDEF
F$DCB.LASTSTA$
      7004**DCL      7004--REDEF    8762>>ASSIGN
F$DCB.LSTAOR
      7007**DCL      8759>>IF
F$DCB.LVL
      7029**DCL      7029--REDEF
F$DCB.NAME.C
      7004**DCL      7004--REDEF
F$DCB.NOEOF
PL6.E3A0      #002=NIO$COMP File=NIO$QUE.:E05TSI                                 WED 07/30/97 03:36 Page:171
      7025**DCL      7025--REDEF
F$DCB.NRECS
      7015**DCL      7015--REDEF
F$DCB.NRECX
      7034**DCL      7034--REDEF
F$DCB.OHDR
      7026**DCL      7026--REDEF
F$DCB.ORG
      7009**DCL      7009--REDEF
F$DCB.PRECNO
      7032**DCL      7032--REDEF
F$DCB.RCSZ
      7037**DCL      7037--REDEF
F$DCB.RES
      7005**DCL      7005--REDEF
F$DCB.RETRYCNT
      7002**DCL      8757<<ASSIGN   8757>>ASSIGN
F$DCB.SETX
      7017**DCL      7017--REDEF
F$DCB.TAB$
      7016**DCL      7017--REDEF
F$DCB.TDA
      7031**DCL      7031--REDEF
F$DCB.TYC
      6995**DCL      8767<<ASSIGN   8767>>ASSIGN   8776<<ASSIGN   8776>>ASSIGN
F$DCB.WSN
      7006**DCL      7006--REDEF
F_DCBLOCK
      8319**DCL      8745<>CALL     8785<>CALL
HFC$ASSOCCLR
      8301**DCL-ENT  8748--CALL
HFC$LOCK
      7099**DCL-ENT  8715--CALL     8731--CALL     8745--CALL     8793--CALL     8827--CALL     8851--CALL
      8863--CALL
HFC$UNLOCK
      7099**DCL-ENT  8720--CALL     8736--CALL     8785--CALL     8803--CALL     8809--CALL     8831--CALL
PL6.E3A0      #002=NIO$COMP File=NIO$QUE.:E05TSI                                 WED 07/30/97 03:36 Page:172
      8857--CALL     8869--CALL
HW_IMX
      7085**DCL      8655>>IF
IOS.DCW
      8569**DCL      8572--REDEF    8632--ASSIGN   8634--ASSIGN
IOS.DCW.TALLY
      8570**DCL      8570--REDEF
IOS.IDCW.EXTA
      8572**DCL      8572--REDEF
IOS.PCW
      8574**DCL      8578--REDEF
IOS.SEEK
      8579**DCL      8580--REDEF    8581--REDEF
IOSTAT.AESDCW
      8589**DCL      8589--REDEF
IOSTAT.LAST_IDCW.COUNT
      8589**DCL      8657>>ASSIGN
IOSTAT$
      8445**DCL      8656<<ASSIGN   8657>>ASSIGN
LSTA$
      8446**DCL      8762<<ASSIGN   8763--ASSIGN   8764>>ASSIGN
MDCT$
      8447**DCL      8689<<ASSIGN   8693>>ASSIGN
MDCTX
      8448**DCL      8688<<ASSIGN   8689>>ASSIGN   8692>>ASSIGN
N$DCT$
      7645**DCL      8685>>ASSIGN   8689>>ASSIGN   8825>>IF
N$DCT$$
      7511**DCL      7645--IMP-PTR  8685>>ASSIGN   8689>>ASSIGN   8825>>IF
N$FQ$
      7511**DCL      7646--IMP-PTR
N$REQ
      8215**DCL         7--PROC     8636<>CALL     8644--ENTRY    8666--ENTRY    8672--ENTRY    8678--ENTRY
      8684<>CALL     8711<>CALL     8723--CALL     8725<>CALL     8841<>CALL     8844--CALL     8854<>CALL
      8866<>CALL
N$REQ.ARCT
PL6.E3A0      #002=NIO$COMP File=NIO$QUE.:E05TSI                                 WED 07/30/97 03:36 Page:173
      8250**DCL      8724<<ASSIGN
N$REQ.ARSIZE
      8248**DCL      8657<<ASSIGN   8660<<ASSIGN   8752>>ASSIGN   8799>>ASSIGN   8814>>ASSIGN
N$REQ.BPMIR
      8260**DCL      8690>>IF       8697<<ASSIGN
N$REQ.BUFADDR
      8224**DCL      8225--REDEF    8225--REDEF    8660>>ASSIGN   8702<<ASSIGN
N$REQ.BUFREAL_SV
      8257**DCL      8702>>ASSIGN
N$REQ.COMP
      8249**DCL      8667<<ASSIGN   8673<<ASSIGN   8679<<ASSIGN   8705>>DOCASE   8759>>IF       8759>>IF
      8816>>IF       8816>>IF
N$REQ.DCB$
      8246**DCL      8743>>IF       8749>>ASSIGN
N$REQ.DCT$
      8216**DCL      8693<<ASSIGN
N$REQ.DLA.DCTX
      8215**DCL      8685>>ASSIGN   8692<<ASSIGN   8825>>IF
N$REQ.DLA.DRELADDR
      8216**DCL      8216--REDEF
N$REQ.DOMIR
      8259**DCL      8695<<ASSIGN
N$REQ.DOPTR$
      8248**DCL      8795>>ASSIGN   8795>>ASSIGN   8796>>ASSIGN   8796>>ASSIGN   8797>>ASSIGN   8799>>ASSIGN
      8799>>ASSIGN   8800>>IF       8805<>CALL
N$REQ.DVE
      8250**DCL      8797>>ASSIGN   8815>>ASSIGN
N$REQ.DVE.DVBYTE
      8250**DCL      8754>>ASSIGN
N$REQ.DVE.EOMCHAR
      8253**DCL      8254--REDEF    8753>>ASSIGN
N$REQ.EAENTRY
      8246**DCL      8710>>ASSIGN
N$REQ.EAINFO
      8247**DCL      8247--REDEF
N$REQ.EAINFOX
PL6.E3A0      #002=NIO$COMP File=NIO$QUE.:E05TSI                                 WED 07/30/97 03:36 Page:174
      8247**DCL      8248--REDEF
N$REQ.ERR$
      8237**DCL      8684>>IF
N$REQ.ERRCT
      8217**DCL      8756>>IF       8757>>ASSIGN
N$REQ.EVNTINFO
      8248**DCL      8248--REDEF    8812>>IF       8823<>CALL
N$REQ.FLTSTAT.DCW
      8236**DCL      8651>>IF
N$REQ.IOP_BUFREAL_CVRT
      8255**DCL      8699>>IF       8703<<ASSIGN
N$REQ.IOQFLG.INUSE
      8258**DCL      8645>>IF
N$REQ.IOQFLG.IOQUED
      8258**DCL      8645>>IF       8647<<ASSIGN   8849<<ASSIGN   8861<<ASSIGN
N$REQ.IOS$
      8228**DCL      8630>>IF       8632>>ASSIGN   8634>>ASSIGN   8656>>ASSIGN
N$REQ.MIRDONE
      8260**DCL      8696<<ASSIGN
N$REQ.NOALT
      8218**DCL      8848>>IF
N$REQ.NWIO
      8254**DCL      8766>>IF
N$REQ.OPFLG.ARS
      8221**DCL      8751>>IF       8798>>IF
N$REQ.OPFLG.CLR
      8224**DCL      8713>>IF       8729>>IF
N$REQ.OPFLG.EA
      8222**DCL      8708>>IF
N$REQ.OPFLG.EVNT
      8222**DCL      8791>>IF
N$REQ.OPFLG.HOLD
      8223**DCL      8843>>IF
N$REQ.OPFLG.REQ
      8223**DCL      8709<<ASSIGN   8712>>IF
N$REQ.OPFLG.USER
PL6.E3A0      #002=NIO$COMP File=NIO$QUE.:E05TSI                                 WED 07/30/97 03:36 Page:175
      8221**DCL      8741>>IF
N$REQ.OPFLG.WAIT
      8222**DCL      8769>>IF       8778>>IF       8788>>IF
N$REQ.PTP
      8226**DCL      8701<<ASSIGN
N$REQ.STATION.LSTA$
      8228**DCL      8764>>ASSIGN   8818>>ASSIGN
N$REQ.STATUS
      8229**DCL      8235--REDEF
N$REQ.STATUS.NCP
      8233**DCL      8651>>IF       8653>>ASSIGN
N$REQ.STATUS.NWA
      8233**DCL      8660>>ASSIGN
N$REQ.TYC
      8237**DCL      8739>>IF       8739>>ASSIGN   8813>>ASSIGN
N$REQ.TYC.EGV
      8237**DCL      8707<<ASSIGN
N$REQ.USER#
      8249**DCL      8717>>ASSIGN   8733>>ASSIGN   8747>>ASSIGN   8801>>ASSIGN   8823<>CALL     8829>>ASSIGN
      8829>>ASSIGN   8834<>CALL
N$REQ.WSR
      8256**DCL      8822>>ASSIGN
N$REQ_INIT.BUFADDR
      7530**DCL      7531--REDEF    7531--REDEF
N$REQ_INIT.DLA.DRELADDR
      7522**DCL      7522--REDEF
N$REQ_INIT.DVE.EOMCHAR
      7559**DCL      7560--REDEF
N$REQ_INIT.EAINFO
      7553**DCL      7553--REDEF
N$REQ_INIT.EAINFOX
      7553**DCL      7554--REDEF
N$REQ_INIT.EVNTINFO
      7554**DCL      7554--REDEF
N$REQ_INIT.STATUS
      7535**DCL      7541--REDEF
PL6.E3A0      #002=NIO$COMP File=NIO$QUE.:E05TSI                                 WED 07/30/97 03:36 Page:176
NI$DCT.DFLG.CM
      8481**DCL      8825>>IF
NI$DCT.DP
      8498**DCL      8505--REDEF    8508--REDEF    8509--REDEF    8511--REDEF    8511--REDEF    8512--REDEF
      8513--REDEF    8513--REDEF
NI$DCT.DP.MIRROR.DCTX
      8503**DCL      8688>>ASSIGN
NI$DCT.DP.MIRROR.FLAG
      8500**DCL      8686>>IF
NI$DCT.DP.MIRROR.PRI
      8502**DCL      8690>>IF
NI$DCT.MPC.IOCHANX
      8506**DCL      8506--REDEF
NI$DCT.TYPE
      8488**DCL      8686>>IF
NI$EXTST
      8269**DCL         7--PROC     8631--IF       8632>>ASSIGN   8644--ENTRY    8837--IF       8840>>ASSIGN
NI$EXTST.EXTST
      8273**DCL      8275--REDEF    8277--REDEF
NI$FQ$
      7571**DCL      7647--IMP-PTR
NI$IBUF$
      7571**DCL      7647--IMP-PTR
NI$IMXMBX_INIT.PAGED_BASE
      7581**DCL      7582--REDEF    7582--REDEF
NI$IMXMBX_INIT.SIZE
      7583**DCL      7583--REDEF
NI$REQ_INIT.DCW
      7605**DCL      7608--REDEF
NI$REQ_INIT.DCW.TALLY
      7606**DCL      7606--REDEF
NI$REQ_INIT.IDCW.EXTA
      7608**DCL      7608--REDEF
NI$REQ_INIT.PCW
      7610**DCL      7614--REDEF
NI$REQ_INIT.SEEK
PL6.E3A0      #002=NIO$COMP File=NIO$QUE.:E05TSI                                 WED 07/30/97 03:36 Page:177
      7615**DCL      7616--REDEF    7617--REDEF
NI$RP.GATE
      7649**DCL      8851<>CALL     8857<>CALL     8863<>CALL     8869<>CALL
NI$RP.RC$
      7649**DCL      8866<>CALL
NI$RP.RQ$
      7649**DCL      8854<>CALL
NI$RP$
      7619**DCL      7649--IMP-PTR  8851>>CALL     8854>>CALL     8857>>CALL     8863>>CALL     8866>>CALL
      8869>>CALL
NIA$RELERR
      8302**DCL-ENT  8684--CALL
NIM$ENQUEUE
      7675**DCL-ENT  8636--CALL     8854--CALL     8866--CALL
NIO$REQUE
      8303**DCL-ENT  8725--CALL
NIQ$GETID
      8304**DCL-ENT  8723--CALL
NIQ$REL
      8305**DCL-ENT  8844--CALL
NI_COMPHD$
      8321**DCL      8636<>CALL
NI_INTLVL
      8320**DCL      8629>>IF
NI_MBX_INIT.DCW.CONTROL.AE
      7641**DCL      7641--REDEF
NI_MBX_INIT.LPW.CONTROL.AE
      7637**DCL      7637--REDEF
NI_MFGATE
      7644**DCL      8827<>CALL     8831<>CALL
POINTER.SEGID
      8594**DCL      8750<<ASSIGN   8763<<ASSIGN
RECOMP
      8849**LABEL    8711--CALLALT  8848--GOTO
REL$
      8449**DCL      8717<<ASSIGN   8718>>ASSIGN   8718>>ASSIGN   8733<<ASSIGN   8734>>ASSIGN   8734>>ASSIGN
PL6.E3A0      #002=NIO$COMP File=NIO$QUE.:E05TSI                                 WED 07/30/97 03:36 Page:178
REQUE
      8843**LABEL    8725--CALLALT
SC_NIOBADIOQ
      8307**DCL-ENT  8646--CALL
SSR$RUE
      8308**DCL-ENT  8834--CALL
SSV$EVENT
      8309**DCL-ENT  8823--CALL
SSV$SCHDDO
      8310**DCL-ENT  8805--CALL
S_ASFGATE
      8322**DCL      8715<>CALL     8720<>CALL     8731<>CALL     8736<>CALL
S_UDLGATE
      8323**DCL      8793<>CALL     8803<>CALL     8809<>CALL
S_WSPTD.BLKNO
      8195**DCL      8747<<ASSIGN
TDC$COMP
      8311**DCL-ENT  8841--CALL
TEMP
      8450**DCL      8653<<ASSIGN   8654>>IF       8654<<ASSIGN   8657>>ASSIGN   8660>>ASSIGN   8801<<ASSIGN
      8805<>CALL     8822<<ASSIGN   8823<>CALL
TYC
      8451**DCL      8739<<ASSIGN   8740<<ASSIGN   8767>>ASSIGN   8776>>ASSIGN   8796>>ASSIGN
UFLAG
      8452**DCL      8742<<ASSIGN   8772<<ASSIGN   8781<<ASSIGN   8789<<ASSIGN   8834<>CALL
VSTA
      8607**DCL      8764<<ASSIGN   8764>>ASSIGN   8818>>ASSIGN
VSTA.MSGIDXT
      8617**DCL      8620--REDEF

PL6.E3A0      #003=NIO$COMPQUE File=NIO$QUE.:E05TSI                              WED 07/30/97 03:38 Page:179
      938        1        /*T***********************************************************/
      939        2        /*T*                                                         */
      940        3        /*T* Copyright (c) Bull HN Information Systems Inc., 1997    */
      941        4        /*T*                                                         */
      942        5        /*T***********************************************************/
      943        6        NIO$COMPQUE: PROC;
      944        7        /*
      945        8                Includes
      946        9        */
      947       10        %INCLUDE                N$REQ ;
      948       84        %INCLUDE                NI$TABLES ;
      949      300        %INCLUDE                NI_MACROS_C ;
      950      567        /*
      951      568                Entries
      952      569        */
      953      570    1   DCL 1 NIO$COMPX         ENTRY(2) ;
      954      571        /*
      955      572                Symrefs
      956      573        */
      957      574    1   DCL 1 NI_COMPHD$        PTR SYMREF ;
      958      575        /*
      959      576                Auto
      960      577        */
      961      578    1   DCL 1 REQ$              PTR ALIGNED AUTO ;
      962      579        /*
      963      580                Based
      964      581        */
      965      582        %NI$REQ                 ( NAME=IOS, STCLASS=BASED ) ;
      966      607        %N$REQ                  ( NAME=REQ, STCLASS="BASED(REQ$)" ) ;
      967      665        %EJECT ;
PL6.E3A0      #003=NIO$COMPQUE File=NIO$QUE.:E05TSI                              WED 07/30/97 03:38 Page:180
      968      666    2           DO INHIBIT;
      969      667    3              DO WHILE(NI_COMPHD$~=ADDR(NIL));
      970      668                      %DEQUEUE (P#=REQ$,Q#=NI_COMPHD$);
      971      675    3                 IF REQ.IOS$ ~= ADDR(NIL) THEN
      972      676    3                    CALL NIO$COMPX(REQ,REQ.IOS$->IOS.DCW(0));
               676                             /* EXTST stored in IOS packet */
      973      677    3                 ELSE
      974      678    3                    CALL NIO$COMPX(REQ);
      975      679    3                 END;
      976      680    2              END;
      977      681    1           RETURN;
      978      682    1   END NIO$COMPQUE;
      979      683        %EOD;

PL6.E3A0      #003=NIO$COMPQUE File=NIO$QUE.:E05TSI                              WED 07/30/97 03:38 Page:181
--  Include file information  --

   NI_MACROS_C.:E05TOU  cannot be made into a system file and is referenced.
   NI$TABLES.:E05TOU  is referenced.
   N$REQ.:E05TOU  is referenced.
      No diagnostics issued in procedure NIO$COMPQUE.

   Procedure NIO$COMPQUE requires 33 words for executable code.
   Procedure NIO$COMPQUE requires 6 words of local(AUTO) storage.

PL6.E3A0      #003=NIO$COMPQUE File=NIO$QUE.:E05TSI                              WED 07/30/97 03:38 Page:182

 Object Unit name= NIO$COMPQUE                                File name= NIO$QUE.:E05TOU
 UTS= JUL 30 '97 03:38:14.60 WED                              Compiler= PL-6/E31         Sev=      00
 SharedLib= :SHARED_SYSTEM                                    Alt SharedLib=


    ****  Control sections  ****

 Sect   Type Bound  Init  Size OctSiz  Section name(segment info)
    0   Proc  even  none    33     41  NIO$COMPQUE
    1  RoData even  none     1      1  NIO$COMPQUE

    ****  Entry defs  ****

                              Check   Calling
                             calling  sequence
  Sect OctLoc Primary Altret sequence   type   Parms  Name
     0      0   yes            yes      Std        0  NIO$COMPQUE

  ****  Entry refs  ****

         Check        Calling
        calling       sequence
Altret sequence SRef   type   Args  Name
 yes     yes           Std       2 NIM$DEQUEUE
         yes           Std       2 NIO$COMPX
                       nStd      0 X66_AUTO_0
                       Std       0 B_CONSPOOL_D
                       nStd      0 X66_ARET

  ****  Data refs  ****

  Flags:  r = read only, s = secondary
Flgs Name                             Flgs Name                             Flgs Name
     NI_COMPHD$                            B_VECTNIL
PL6.E3A0      #003=NIO$COMPQUE File=NIO$QUE.:E05TSI                              WED 07/30/97 03:38 Page:183

  ****  Segment refs  ****

  Flags:  r = read only, s = secondary
Flgs Name                             Flgs Name                             Flgs Name
     ISSID
PL6.E3A0      #003=NIO$COMPQUE File=NIO$QUE.:E05TSI                              WED 07/30/97 03:38 Page:184


      938        1        /*T***********************************************************/
      939        2        /*T*                                                         */
      940        3        /*T* Copyright (c) Bull HN Information Systems Inc., 1997    */
      941        4        /*T*                                                         */
      942        5        /*T***********************************************************/
      943        6        NIO$COMPQUE: PROC;

      6  0 000000   000000 700200 xent  NIO$COMPQUE  TSX0  ! X66_AUTO_0
         0 000001   000006 000000                    ZERO    6,0

      944        7        /*
      945        8                Includes
      946        9        */
      947       10        %INCLUDE                N$REQ ;
      948       84        %INCLUDE                NI$TABLES ;
      949      300        %INCLUDE                NI_MACROS_C ;
      950      567        /*
      951      568                Entries
      952      569        */
      953      570    1   DCL 1 NIO$COMPX         ENTRY(2) ;
      954      571        /*
      955      572                Symrefs
      956      573        */
      957      574    1   DCL 1 NI_COMPHD$        PTR SYMREF ;
      958      575        /*
      959      576                Auto
      960      577        */
      961      578    1   DCL 1 REQ$              PTR ALIGNED AUTO ;
      962      579        /*
      963      580                Based
      964      581        */
      965      582        %NI$REQ                 ( NAME=IOS, STCLASS=BASED ) ;
      966      607        %N$REQ                  ( NAME=REQ, STCLASS="BASED(REQ$)" ) ;
      967      665        %EJECT ;
PL6.E3A0      #003=NIO$COMPQUE File=NIO$QUE.:E05TSI                              WED 07/30/97 03:38 Page:185
      968      666    2           DO INHIBIT;

      969      667    3              DO WHILE(NI_COMPHD$~=ADDR(NIL));

    667  0 000002   000035 710200 0                  TRA   ! s:679

      970      668                      %DEQUEUE (P#=REQ$,Q#=NI_COMPHD$);

    672  0 000003   000000 236200 1                  LDQ   ! 0
         0 000004   200005 756300                    STQ   ! REQ$+2,,AUTO
         0 000005   200003 630700                    EPPR0 ! REQ$,,AUTO
         0 000006   200004 450700                    STP0  ! REQ$+1,,AUTO
         0 000007   200004 630700                    EPPR0 ! REQ$+1,,AUTO
         0 000010   000020 631600 xsym               EPPR1 ! B_VECTNIL+16
         0 000011   000000 701200 xent               TSX1  ! NIM$DEQUEUE
         0 000012   000000 011200                    NOP   ! 0

      971      675    3                 IF REQ.IOS$ ~= ADDR(NIL) THEN

    675  0 000013   200003 470700                    LDP0  ! REQ$,,AUTO
         0 000014   000012 236300                    LDQ   ! 10,,PR0
         0 000015   000001 116200 xsym               CMPQ  ! B_VECTNIL+1
         0 000016   000031 600200 0                  TZE   ! s:678

      972      676    3                    CALL NIO$COMPX(REQ,REQ.IOS$->IOS.DCW(0));
               676                             /* EXTST stored in IOS packet */

    676  0 000017   000012 471700                    LDP1  ! 10,,PR0
         0 000020   100002 633700                    EPPR3 ! 2,,PR1
         0 000021   200005 453700                    STP3  ! REQ$+2,,AUTO
         0 000022   200003 236300                    LDQ   ! REQ$,,AUTO
         0 000023   200004 756300                    STQ   ! REQ$+1,,AUTO
         0 000024   200004 630700                    EPPR0 ! REQ$+1,,AUTO
         0 000025   000020 631600 xsym               EPPR1 ! B_VECTNIL+16
         0 000026   000000 701200 xent               TSX1  ! NIO$COMPX
         0 000027   000000 011200                    NOP   ! 0
         0 000030   000035 710200 0                  TRA   ! s:679
PL6.E3A0      #003=NIO$COMPQUE File=NIO$QUE.:E05TSI                              WED 07/30/97 03:38 Page:186

      973      677    3                 ELSE
      974      678    3                    CALL NIO$COMPX(REQ);

    678  0 000031   200003 630700                    EPPR0 ! REQ$,,AUTO
         0 000032   000017 631600 xsym               EPPR1 ! B_VECTNIL+15
         0 000033   000000 701200 xent               TSX1  ! NIO$COMPX
         0 000034   000000 011200                    NOP   ! 0

      975      679    3                 END;

    679  0 000035   000000 236200 xsym               LDQ   ! NI_COMPHD$
         0 000036   000001 116200 xsym               CMPQ  ! B_VECTNIL+1
         0 000037   000003 601200 0                  TNZ   ! s:672

      976      680    2              END;

      977      681    1           RETURN;

    681  0 000040   000000 702200 xent               TSX2  ! X66_ARET

(unnamed)
 Sect OctLoc
   1     000   000000 006000                                                    ....
      978      682    1   END NIO$COMPQUE;
      979      683        %EOD;

PL6.E3A0      #003=NIO$COMPQUE File=NIO$QUE.:E05TSI                              WED 07/30/97 03:38 Page:187
--  Include file information  --

   NI_MACROS_C.:E05TOU  cannot be made into a system file and is referenced.
   NI$TABLES.:E05TOU  is referenced.
   N$REQ.:E05TOU  is referenced.
      No diagnostics issued in procedure NIO$COMPQUE.
PL6.E3A0      #003=NIO$COMPQUE File=NIO$QUE.:E05TSI                              WED 07/30/97 03:38 Page:188

 **** Variables and constants ****

  ****  Auto variables  ****

  ****  Scalars and arrays  ****
OctLoc.c.b A Datatyp(siz) R M Lvl/name                 OctLoc.c.b A Datatyp(siz) R M Lvl/name

     3-0-0/w PTR         r     1 REQ$

  ****  SYMREF variables  ****

  ****  Scalars and arrays  ****
OctLoc.c.b A Datatyp(siz) R M Lvl/name                 OctLoc.c.b A Datatyp(siz) R M Lvl/name

     0-0-0/w PTR         r     1 NI_COMPHD$

  ****  BASED and DCB variables  ****

  ****  Scalars and arrays  ****
OctLoc.c.b A Datatyp(siz) R M Lvl/name                 OctLoc.c.b A Datatyp(siz) R M Lvl/name

     0-0-0/d STRC(504)   r     1 IOS                        0-0-0/d STRC(1080)  r     1 REQ


   Procedure NIO$COMPQUE requires 33 words for executable code.
   Procedure NIO$COMPQUE requires 6 words of local(AUTO) storage.
PL6.E3A0      #003=NIO$COMPQUE File=NIO$QUE.:E05TSI                              WED 07/30/97 03:38 Page:189
          *** CROSS REFERENCE LISTING ***
**     DENOTES     IDENTIFIER DEFINITION
<<                 IDENTIFIER'S VALUE SET
>>                 IDENTIFIER'S VALUE USED
<>                 IDENTIFIER SET AND/OR USED
--                 IDENTIFIER REFERENCED
PL6.E3A0      #003=NIO$COMPQUE File=NIO$QUE.:E05TSI                              WED 07/30/97 03:38 Page:190
          MINI XREF LISTING

IOS.DCW
       593**DCL       596--REDEF     676<>CALL
IOS.DCW.TALLY
       594**DCL       594--REDEF
IOS.IDCW.EXTA
       596**DCL       596--REDEF
IOS.PCW
       598**DCL       602--REDEF
IOS.SEEK
       603**DCL       604--REDEF     605--REDEF
NIM$DEQUEUE
       324**DCL-ENT   672--CALL
NIO$COMPX
       570**DCL-ENT   676--CALL      678--CALL
NI_COMPHD$
       574**DCL       667>>DOWHILE   672<>CALL
REQ
       616**DCL       676<>CALL      678<>CALL
REQ.BUFADDR
       625**DCL       626--REDEF     626--REDEF
REQ.DLA.DRELADDR
       617**DCL       617--REDEF
REQ.DVE.EOMCHAR
       654**DCL       655--REDEF
REQ.EAINFO
       648**DCL       648--REDEF
REQ.EAINFOX
       648**DCL       649--REDEF
REQ.EVNTINFO
       649**DCL       649--REDEF
REQ.IOS$
       629**DCL       675>>IF        676>>CALL
PL6.E3A0      #003=NIO$COMPQUE File=NIO$QUE.:E05TSI                              WED 07/30/97 03:38 Page:191
REQ.STATUS
       630**DCL       636--REDEF
REQ$
       578**DCL       616--IMP-PTR   672<>CALL      675>>IF        676>>CALL      676>>CALL      678>>CALL

PL6.E3A0      #004=NIO$SPINTCON File=NIO$QUE.:E05TSI                             WED 07/30/97 03:38 Page:192
      980        1        /*M*  NIO$SPINTCON - SPECIAL INTERRUPT CONNECTION                            */
      981        2        /*T***********************************************************/
      982        3        /*T*                                                         */
      983        4        /*T* Copyright (c) Bull HN Information Systems Inc., 1997    */
      984        5        /*T*                                                         */
      985        6        /*T***********************************************************/
      986        7        NIO$SPINTCON: PROC(DCTX,INTADDR,INTINFO) ALTRET;
      987        8        /*
      988        9                Includes
      989       10        */
      990       11        %INCLUDE                NI_DATA_C ;
      991      124        %INCLUDE                NI_DATA_R ;
      992      561        %INCLUDE                NI_MACROS_C ;
      993      828        /*
      994      829                Parameters
      995      830        */
      996      831    1   DCL 1 DCTX              UBIN(15) UNAL PARAM ;
      997      832    1   DCL 1 INTADDR           EPTR PARAM ;
      998      833    1   DCL 1 INTINFO           UBIN PARAM ;
      999      834        /*
     1000      835                Entries
     1001      836        */
     1002      837    1   DCL 1 SC_NIOINVDLA      ENTRY CONV(2,0) ;
     1003      838        /*
     1004      839                Auto
     1005      840        */
     1006      841    1   DCL 1 DCT$              PTR ALIGNED AUTO ;
     1007      842        /*
     1008      843                Based
     1009      844        */
     1010      845        %NI$DCT                 ( NAME=DCT, STCLASS="BASED(DCT$)" ) ;
     1011      893        %EJECT ;
PL6.E3A0      #004=NIO$SPINTCON File=NIO$QUE.:E05TSI                             WED 07/30/97 03:38 Page:193
     1012      894        /**/
     1013      895    1           IF DCTX=0 OR DCTX>N_DCTXMAX
     1014      896    1           THEN CALL SC_NIOINVDLA;
     1015      897    1           DCT$=N$DCT$(DCTX);
     1016      898    1           IF DCT.SPEC~=ENTADDR(NIL) AND INTADDR~=ENTADDR(NIL) THEN ALTRETURN;
     1017      899    1           DCT.SPEC = INTADDR;
     1018      900    1           IF ADDR(INTINFO) ~= ADDR(NIL)
     1019      901    1           THEN DCT.SPECINFO = INTINFO;
     1020      902    1           ELSE DCT.SPECINFO = 0;
     1021      903    1           RETURN;
     1022      904    1   END NIO$SPINTCON;
     1023      905             %EOD;

PL6.E3A0      #004=NIO$SPINTCON File=NIO$QUE.:E05TSI                             WED 07/30/97 03:38 Page:194
--  Include file information  --

   NI_MACROS_C.:E05TOU  cannot be made into a system file and is referenced.
   NI$TABLES.:E05TOU  is referenced.
   N$REQ.:E05TOU  is referenced.
   NI_DATA_R.:E05TOU  cannot be made into a system file and is referenced.
   NI_DATA_C.:E05TOU  is referenced.
      No diagnostics issued in procedure NIO$SPINTCON.

   Procedure NIO$SPINTCON requires 46 words for executable code.
   Procedure NIO$SPINTCON requires 10 words of local(AUTO) storage.

PL6.E3A0      #004=NIO$SPINTCON File=NIO$QUE.:E05TSI                             WED 07/30/97 03:38 Page:195

 Object Unit name= NIO$SPINTCON                               File name= NIO$QUE.:E05TOU
 UTS= JUL 30 '97 03:38:24.84 WED                              Compiler= PL-6/E31         Sev=      00
 SharedLib= :SHARED_SYSTEM                                    Alt SharedLib=


    ****  Control sections  ****

 Sect   Type Bound  Init  Size OctSiz  Section name(segment info)
    0   Proc  even  none    46     56  NIO$SPINTCON

    ****  Entry defs  ****

                              Check   Calling
                             calling  sequence
  Sect OctLoc Primary Altret sequence   type   Parms  Name
     0      0   yes    yes     yes      Std        3  NIO$SPINTCON

  ****  Entry refs  ****

         Check        Calling
        calling       sequence
Altret sequence SRef   type   Args  Name
                       nStd      0 X66_AUTO_3
                       Std       0 B_CONSPOOL_D
                       nStd      0 X66_AALT
                       nStd      0 X66_ARET

  ****  Data refs  ****

  Flags:  r = read only, s = secondary
Flgs Name                             Flgs Name                             Flgs Name
     SC_NIOINVDLA                          N$DCT$$                               N$FQ$
     NI$FQ$                                NI$IBUF$                              NI$RP$
     N_DCTXMAX                             B_VECTNIL
PL6.E3A0      #004=NIO$SPINTCON File=NIO$QUE.:E05TSI                             WED 07/30/97 03:38 Page:196

  ****  Segment refs  ****

  Flags:  r = read only, s = secondary
Flgs Name                             Flgs Name                             Flgs Name
     ASLENTSID
PL6.E3A0      #004=NIO$SPINTCON File=NIO$QUE.:E05TSI                             WED 07/30/97 03:38 Page:197


      980        1        /*M*  NIO$SPINTCON - SPECIAL INTERRUPT CONNECTION                            */
      981        2        /*T***********************************************************/
      982        3        /*T*                                                         */
      983        4        /*T* Copyright (c) Bull HN Information Systems Inc., 1997    */
      984        5        /*T*                                                         */
      985        6        /*T***********************************************************/
      986        7        NIO$SPINTCON: PROC(DCTX,INTADDR,INTINFO) ALTRET;

      7  0 000000   000000 700200 xent  NIO$SPINTCON TSX0  ! X66_AUTO_3
         0 000001   000012 000003                    ZERO    10,3

      987        8        /*
      988        9                Includes
      989       10        */
      990       11        %INCLUDE                NI_DATA_C ;
      991      124        %INCLUDE                NI_DATA_R ;
      992      561        %INCLUDE                NI_MACROS_C ;
      993      828        /*
      994      829                Parameters
      995      830        */
      996      831    1   DCL 1 DCTX              UBIN(15) UNAL PARAM ;
      997      832    1   DCL 1 INTADDR           EPTR PARAM ;
      998      833    1   DCL 1 INTINFO           UBIN PARAM ;
      999      834        /*
     1000      835                Entries
     1001      836        */
     1002      837    1   DCL 1 SC_NIOINVDLA      ENTRY CONV(2,0) ;
     1003      838        /*
     1004      839                Auto
     1005      840        */
     1006      841    1   DCL 1 DCT$              PTR ALIGNED AUTO ;
     1007      842        /*
     1008      843                Based
     1009      844        */
     1010      845        %NI$DCT                 ( NAME=DCT, STCLASS="BASED(DCT$)" ) ;
     1011      893        %EJECT ;
PL6.E3A0      #004=NIO$SPINTCON File=NIO$QUE.:E05TSI                             WED 07/30/97 03:38 Page:198
     1012      894        /**/
     1013      895    1           IF DCTX=0 OR DCTX>N_DCTXMAX

    895  0 000002   200003 470500                    LDP0    @DCTX,,AUTO
         0 000003   003100 061500                    CSR     bolr='003'O
         0 000004   000000 000017                    BDSC    0,,PR0                   by=0,bit=0,n=15
         0 000005   200010 000044                    BDSC    DCT$+2,,AUTO             by=0,bit=0,n=36
         0 000006   200010 236100                    LDQ     DCT$+2,,AUTO
         0 000007   000000 116003                    CMPQ    0,DU
         0 000010   000017 600000 0                  TZE     s:896
         0 000011   003100 061500                    CSR     bolr='003'O
         0 000012   000000 000017                    BDSC    0,,PR0                   by=0,bit=0,n=15
         0 000013   200011 000044                    BDSC    DCT$+3,,AUTO             by=0,bit=0,n=36
         0 000014   200011 236100                    LDQ     DCT$+3,,AUTO
         0 000015   000000 116000 xsym               CMPQ    N_DCTXMAX
         0 000016   000021 604400 0                  TMOZ    s:897

     1014      896    1           THEN CALL SC_NIOINVDLA;

    896  0 000017   000000 713400 xsym               CLIMB   SC_NIOINVDLA
         0 000020   000000 600000 xsid               climb   nvectors=         0

     1015      897    1           DCT$=N$DCT$(DCTX);

    897  0 000021   200003 470500                    LDP0    @DCTX,,AUTO
         0 000022   003100 061500                    CSR     bolr='003'O
         0 000023   000000 000017                    BDSC    0,,PR0                   by=0,bit=0,n=15
         0 000024   200010 000022                    BDSC    DCT$+2,,AUTO             by=0,bit=0,n=18
         0 000025   200010 220100                    LDX0    DCT$+2,,AUTO
         0 000026   000000 471400 xsym               LDP1    N$DCT$$
         0 000027   100000 236110                    LDQ     0,X0,PR1
         0 000030   200006 756100                    STQ     DCT$,,AUTO

     1016      898    1           IF DCT.SPEC~=ENTADDR(NIL) AND INTADDR~=ENTADDR(NIL) THEN ALTRETURN;

    898  0 000031   200006 473500                    LDP3    DCT$,,AUTO
         0 000032   300020 236100                    LDQ     16,,PR3
PL6.E3A0      #004=NIO$SPINTCON File=NIO$QUE.:E05TSI                             WED 07/30/97 03:38 Page:199
         0 000033   000002 116000 xsym               CMPQ    B_VECTNIL+2
         0 000034   000042 600000 0                  TZE     s:899
         0 000035   200004 474500                    LDP4    @INTADDR,,AUTO
         0 000036   400000 236100                    LDQ     0,,PR4
         0 000037   000002 116000 xsym               CMPQ    B_VECTNIL+2
         0 000040   000042 600000 0                  TZE     s:899

    898  0 000041   000000 702200 xent               TSX2  ! X66_AALT

     1017      899    1           DCT.SPEC = INTADDR;

    899  0 000042   200004 474500                    LDP4    @INTADDR,,AUTO
         0 000043   400000 236100                    LDQ     0,,PR4
         0 000044   300020 756100                    STQ     16,,PR3

     1018      900    1           IF ADDR(INTINFO) ~= ADDR(NIL)

    900  0 000045   200005 236100                    LDQ     @INTINFO,,AUTO
         0 000046   000001 116000 xsym               CMPQ    B_VECTNIL+1
         0 000047   000054 600000 0                  TZE     s:902

     1019      901    1           THEN DCT.SPECINFO = INTINFO;

    901  0 000050   200005 475500                    LDP5    @INTINFO,,AUTO
         0 000051   500000 235100                    LDA     0,,PR5
         0 000052   300021 755100                    STA     17,,PR3
         0 000053   000055 710000 0                  TRA     s:903

     1020      902    1           ELSE DCT.SPECINFO = 0;

    902  0 000054   300021 450100                    STZ     17,,PR3

     1021      903    1           RETURN;

    903  0 000055   000000 702200 xent               TSX2  ! X66_ARET
     1022      904    1   END NIO$SPINTCON;
     1023      905             %EOD;
PL6.E3A0      #004=NIO$SPINTCON File=NIO$QUE.:E05TSI                             WED 07/30/97 03:38 Page:200

PL6.E3A0      #004=NIO$SPINTCON File=NIO$QUE.:E05TSI                             WED 07/30/97 03:38 Page:201
--  Include file information  --

   NI_MACROS_C.:E05TOU  cannot be made into a system file and is referenced.
   NI$TABLES.:E05TOU  is referenced.
   N$REQ.:E05TOU  is referenced.
   NI_DATA_R.:E05TOU  cannot be made into a system file and is referenced.
   NI_DATA_C.:E05TOU  is referenced.
      No diagnostics issued in procedure NIO$SPINTCON.
PL6.E3A0      #004=NIO$SPINTCON File=NIO$QUE.:E05TSI                             WED 07/30/97 03:38 Page:202

 **** Variables and constants ****

  ****  Auto variables  ****

  ****  Scalars and arrays  ****
OctLoc.c.b A Datatyp(siz) R M Lvl/name                 OctLoc.c.b A Datatyp(siz) R M Lvl/name

     3-0-0/w PTR         r     1 @DCTX                      4-0-0/w PTR         r     1 @INTADDR
     5-0-0/w PTR         r     1 @INTINFO                   6-0-0/w PTR         r     1 DCT$
    *0-0-0/b UBIN(15)    r     1 DCTX                      *0-0-0/w EPTR        r     1 INTADDR
    *0-0-0/w UBIN        r     1 INTINFO

  ****  SYMREF variables  ****

  ****  Scalars and arrays  ****
OctLoc.c.b A Datatyp(siz) R M Lvl/name                 OctLoc.c.b A Datatyp(siz) R M Lvl/name

     0-0-0/w PTR         r     1 N$DCT$$                    0-0-0/w PTR         r     1 N$FQ$
     0-0-0/w PTR         r     1 NI$FQ$                     0-0-0/w PTR         r     1 NI$IBUF$
     0-0-0/w PTR         r     1 NI$RP$                     0-0-0/w SBIN        r     1 N_DCTXMAX

  ****  BASED and DCB variables  ****

  ****  Scalars and arrays  ****
OctLoc.c.b A Datatyp(siz) R M Lvl/name                 OctLoc.c.b A Datatyp(siz) R M Lvl/name

     0-0-0/w STRC(1332)  r     1 DCT                        0-0-0/w PTR         r     1 N$DCT$(0:0)


   Procedure NIO$SPINTCON requires 46 words for executable code.
   Procedure NIO$SPINTCON requires 10 words of local(AUTO) storage.
PL6.E3A0      #004=NIO$SPINTCON File=NIO$QUE.:E05TSI                             WED 07/30/97 03:38 Page:203
          *** CROSS REFERENCE LISTING ***
**     DENOTES     IDENTIFIER DEFINITION
<<                 IDENTIFIER'S VALUE SET
>>                 IDENTIFIER'S VALUE USED
<>                 IDENTIFIER SET AND/OR USED
--                 IDENTIFIER REFERENCED
PL6.E3A0      #004=NIO$SPINTCON File=NIO$QUE.:E05TSI                             WED 07/30/97 03:38 Page:204
          MINI XREF LISTING

DCT.DP
       874**DCL       881--REDEF     884--REDEF     885--REDEF     887--REDEF     887--REDEF     888--REDEF
       889--REDEF     889--REDEF
DCT.MPC.IOCHANX
       882**DCL       882--REDEF
DCT.SPEC
       869**DCL       898>>IF        899<<ASSIGN
DCT.SPECINFO
       869**DCL       901<<ASSIGN    902<<ASSIGN
DCT$
       841**DCL       854--IMP-PTR   897<<ASSIGN    898>>IF        899>>ASSIGN    901>>ASSIGN    902>>ASSIGN
DCTX
       831**DCL         7--PROC      895>>IF        895>>IF        897>>ASSIGN
INTADDR
       832**DCL         7--PROC      898>>IF        899>>ASSIGN
INTINFO
       833**DCL         7--PROC      900--IF        901>>ASSIGN
N$DCT$
       556**DCL       897>>ASSIGN
N$DCT$$
       422**DCL       556--IMP-PTR   897>>ASSIGN
N$FQ$
       422**DCL       557--IMP-PTR
N$REQ_INIT.BUFADDR
       441**DCL       442--REDEF     442--REDEF
N$REQ_INIT.DLA.DRELADDR
       433**DCL       433--REDEF
N$REQ_INIT.DVE.EOMCHAR
       470**DCL       471--REDEF
N$REQ_INIT.EAINFO
       464**DCL       464--REDEF
N$REQ_INIT.EAINFOX
PL6.E3A0      #004=NIO$SPINTCON File=NIO$QUE.:E05TSI                             WED 07/30/97 03:38 Page:205
       464**DCL       465--REDEF
N$REQ_INIT.EVNTINFO
       465**DCL       465--REDEF
N$REQ_INIT.STATUS
       446**DCL       452--REDEF
NI$FQ$
       482**DCL       558--IMP-PTR
NI$IBUF$
       482**DCL       558--IMP-PTR
NI$IMXMBX_INIT.PAGED_BASE
       492**DCL       493--REDEF     493--REDEF
NI$IMXMBX_INIT.SIZE
       494**DCL       494--REDEF
NI$REQ_INIT.DCW
       516**DCL       519--REDEF
NI$REQ_INIT.DCW.TALLY
       517**DCL       517--REDEF
NI$REQ_INIT.IDCW.EXTA
       519**DCL       519--REDEF
NI$REQ_INIT.PCW
       521**DCL       525--REDEF
NI$REQ_INIT.SEEK
       526**DCL       527--REDEF     528--REDEF
NI$RP$
       530**DCL       560--IMP-PTR
NI_MBX_INIT.DCW.CONTROL.AE
       552**DCL       552--REDEF
NI_MBX_INIT.LPW.CONTROL.AE
       548**DCL       548--REDEF
N_DCTXMAX
       530**DCL       895>>IF
SC_NIOINVDLA
       837**DCL-ENT   896--CALL

PL6.E3A0      #005=NIO$SPCOMP File=NIO$QUE.:E05TSI                               WED 07/30/97 03:38 Page:206
     1024        1        /*M*  NIO$SPCOMP - SPECIAL INTERRUPT  COMPLETION ENTRY                       */
     1025        2        /*T***********************************************************/
     1026        3        /*T*                                                         */
     1027        4        /*T* Copyright (c) Bull HN Information Systems Inc., 1997    */
     1028        5        /*T*                                                         */
     1029        6        /*T***********************************************************/
     1030        7        NIO$SPCOMP: PROC (DCT);
     1031        8        /*
     1032        9                Includes
     1033       10        */
     1034       11        %INCLUDE                NI_DATA_C ;
     1035      124        %INCLUDE                NI_DATA_R ;
     1036      561        %INCLUDE                NI_MACROS_C ;
     1037      828        %INCLUDE                UE_CP6 ;
     1038     1519        /*
     1039     1520                Parameters
     1040     1521        */
     1041     1522        %NI$DCT                 ( NAME=DCT, STCLASS=PARAM ) ;
     1042     1570        /*
     1043     1571                Entries
     1044     1572        */
     1045     1573    1   DCL 1 SSV$EVENT         ENTRY(7) ;
     1046     1574        /*
     1047     1575                Auto
     1048     1576        */
     1049     1577    1   DCL 1 EXTRN             EPTR ALIGNED AUTO ;
     1050     1578    1   DCL 1 EVBLK             ALIGNED AUTO,
     1051     1579    1         2 SIZE            UBIN,
     1052     1580    1         2 FLPW            UBIN,
     1053     1581    1         2 STATUS          BIT(72),
     1054     1582    1         2 LPWX,
     1055     1583    1           3 BASE          UBIN(18) UNAL,
     1056     1584    1           3 SIZE          UBIN(18) UNAL;
     1057     1585        /*
     1058     1586                Based
     1059     1587        */
     1060     1588        %B$EVNT;
PL6.E3A0      #005=NIO$SPCOMP File=NIO$QUE.:E05TSI                               WED 07/30/97 03:38 Page:207
     1061     1601        %EJECT;
PL6.E3A0      #005=NIO$SPCOMP File=NIO$QUE.:E05TSI                               WED 07/30/97 03:38 Page:208
     1062     1602        /**/
     1063     1603    2           DO  INHIBIT ;
     1064     1604    2              IF  DCT.TDUSER# > 0
     1065     1605    2                AND DCT.STATUS.TND ~= 0
     1066     1606    3              THEN DO ;
     1067     1607    3                 IF  DCT.SPEVENT > 0
     1068     1608    4                 THEN DO ;
     1069     1609    4                    EVBLK.SIZE   = SIZEW(EVBLK) - 1 ;
     1070     1610    4                    EVBLK.STATUS = DCT.SPSTAT;
     1071     1611    4                    CALL SSV$EVENT ( DCT.TDUSER#, 7, %EVSC_IO#, DCT.SPEVENT, 0, ADDR(
              1611                             EVBLK) ) ;
     1072     1612    4                    END ;
     1073     1613    3                 END ;
     1074     1614    2              ELSE IF  DCT.STATE = %IDLE
     1075     1615    3                 THEN DO ;
     1076     1616    3                    EXTRN = DCT.SPEC ;
     1077     1617    3                    IF EXTRN ~= ENTADDR(NIL)
     1078     1618    3                      AND NOT DCT.STATUS.DOWN
     1079     1619    3                    THEN
     1080     1620    3                       CALL EXTRN ( DCT.DCTX, DCT.SPSTAT, DCT.SPECINFO ) ;
     1081     1621    3                    END ;
     1082     1622    2              RETURN ;
     1083     1623    2              END ;
     1084     1624        /**/
     1085     1625        /**/
     1086     1626    1   END NIO$SPCOMP;
     1087     1627        %EOD;

PL6.E3A0      #005=NIO$SPCOMP File=NIO$QUE.:E05TSI                               WED 07/30/97 03:38 Page:209
--  Include file information  --

   UE_CP6.:E05TOU  is referenced.
   NI_MACROS_C.:E05TOU  cannot be made into a system file and is referenced.
   NI$TABLES.:E05TOU  is referenced.
   N$REQ.:E05TOU  is referenced.
   NI_DATA_R.:E05TOU  cannot be made into a system file and is referenced.
   NI_DATA_C.:E05TOU  is referenced.
      No diagnostics issued in procedure NIO$SPCOMP.

   Procedure NIO$SPCOMP requires 60 words for executable code.
   Procedure NIO$SPCOMP requires 18 words of local(AUTO) storage.

PL6.E3A0      #005=NIO$SPCOMP File=NIO$QUE.:E05TSI                               WED 07/30/97 03:38 Page:210

 Object Unit name= NIO$SPCOMP                                 File name= NIO$QUE.:E05TOU
 UTS= JUL 30 '97 03:38:42.48 WED                              Compiler= PL-6/E31         Sev=      00
 SharedLib= :SHARED_SYSTEM                                    Alt SharedLib=


    ****  Control sections  ****

 Sect   Type Bound  Init  Size OctSiz  Section name(segment info)
    0   Proc  even  none    60     74  NIO$SPCOMP
    1  RoData even  none     4      4  NIO$SPCOMP

    ****  Entry defs  ****

                              Check   Calling
                             calling  sequence
  Sect OctLoc Primary Altret sequence   type   Parms  Name
     0      0   yes            yes      Std        1  NIO$SPCOMP

  ****  Entry refs  ****

         Check        Calling
        calling       sequence
Altret sequence SRef   type   Args  Name
         yes           Std       7 SSV$EVENT
                       nStd      0 X66_AUTO_1
                       Std       0 B_CONSPOOL_D
                       nStd      0 X66_ARET

  ****  Data refs  ****

  Flags:  r = read only, s = secondary
Flgs Name                             Flgs Name                             Flgs Name
     N$DCT$$                               N$FQ$                                 NI$FQ$
     NI$IBUF$                              NI$RP$                                B_VECTNIL
PL6.E3A0      #005=NIO$SPCOMP File=NIO$QUE.:E05TSI                               WED 07/30/97 03:38 Page:211

  ****  Segment refs  ****

  Flags:  r = read only, s = secondary
Flgs Name                             Flgs Name                             Flgs Name
     ISSID
PL6.E3A0      #005=NIO$SPCOMP File=NIO$QUE.:E05TSI                               WED 07/30/97 03:38 Page:212


     1024        1        /*M*  NIO$SPCOMP - SPECIAL INTERRUPT  COMPLETION ENTRY                       */
     1025        2        /*T***********************************************************/
     1026        3        /*T*                                                         */
     1027        4        /*T* Copyright (c) Bull HN Information Systems Inc., 1997    */
     1028        5        /*T*                                                         */
     1029        6        /*T***********************************************************/
     1030        7        NIO$SPCOMP: PROC (DCT);

      7  0 000000   000000 700200 xent  NIO$SPCOMP   TSX0  ! X66_AUTO_1
         0 000001   000022 000001                    ZERO    18,1

     1031        8        /*
     1032        9                Includes
     1033       10        */
     1034       11        %INCLUDE                NI_DATA_C ;
     1035      124        %INCLUDE                NI_DATA_R ;
     1036      561        %INCLUDE                NI_MACROS_C ;
     1037      828        %INCLUDE                UE_CP6 ;
     1038     1519        /*
     1039     1520                Parameters
     1040     1521        */
     1041     1522        %NI$DCT                 ( NAME=DCT, STCLASS=PARAM ) ;
     1042     1570        /*
     1043     1571                Entries
     1044     1572        */
     1045     1573    1   DCL 1 SSV$EVENT         ENTRY(7) ;
     1046     1574        /*
     1047     1575                Auto
     1048     1576        */
     1049     1577    1   DCL 1 EXTRN             EPTR ALIGNED AUTO ;
     1050     1578    1   DCL 1 EVBLK             ALIGNED AUTO,
     1051     1579    1         2 SIZE            UBIN,
     1052     1580    1         2 FLPW            UBIN,
     1053     1581    1         2 STATUS          BIT(72),
     1054     1582    1         2 LPWX,
     1055     1583    1           3 BASE          UBIN(18) UNAL,
PL6.E3A0      #005=NIO$SPCOMP File=NIO$QUE.:E05TSI                               WED 07/30/97 03:38 Page:213
     1056     1584    1           3 SIZE          UBIN(18) UNAL;
     1057     1585        /*
     1058     1586                Based
     1059     1587        */
     1060     1588        %B$EVNT;
     1061     1601        %EJECT;
PL6.E3A0      #005=NIO$SPCOMP File=NIO$QUE.:E05TSI                               WED 07/30/97 03:38 Page:214
     1062     1602        /**/
     1063     1603    2           DO  INHIBIT ;

     1064     1604    2              IF  DCT.TDUSER# > 0

   1604  0 000002   200003 470700                    LDP0  ! @DCT,,AUTO
         0 000003   000027 236300                    LDQ   ! 23,,PR0
         0 000004   000777 316203                    CANQ  ! 511,DU
         0 000005   000043 600200 0                  TZE   ! s:1614
         0 000006   170000 316203                    CANQ  ! 61440,DU
         0 000007   000043 600200 0                  TZE   ! s:1614

     1065     1605    2                AND DCT.STATUS.TND ~= 0
     1066     1606    3              THEN DO ;

     1067     1607    3                 IF  DCT.SPEVENT > 0

   1607  0 000010   000025 235300                    LDA   ! 21,,PR0
         0 000011   000072 600200 0                  TZE   ! s:1622

     1068     1608    4                 THEN DO ;

     1069     1609    4                    EVBLK.SIZE   = SIZEW(EVBLK) - 1 ;

   1609  0 000012   000004 235207                    LDA   ! 4,DL
         0 000013   200005 755300                    STA   ! EVBLK,,AUTO

     1070     1610    4                    EVBLK.STATUS = DCT.SPSTAT;

   1610  0 000014   000100 100700                    MLR   ! fill='000'O
         0 000015   000017 000004                    ADSC9   15,,PR0                  cn=0,n=4
         0 000016   200007 000010                    ADSC9   EVBLK+2,,AUTO            cn=0,n=8

     1071     1611    4                    CALL SSV$EVENT ( DCT.TDUSER#, 7, %EVSC_IO#, DCT.SPEVENT, 0, ADDR(
              1611                             EVBLK) ) ;

   1611  0 000017   200005 631700                    EPPR1 ! EVBLK,,AUTO
PL6.E3A0      #005=NIO$SPCOMP File=NIO$QUE.:E05TSI                               WED 07/30/97 03:38 Page:215
         0 000020   200012 451700                    STP1  ! EVBLK+5,,AUTO
         0 000021   200012 633700                    EPPR3 ! EVBLK+5,,AUTO
         0 000022   200021 453700                    STP3  ! EVBLK+12,,AUTO
         0 000023   000000 236200 1                  LDQ   ! 0
         0 000024   200020 756300                    STQ   ! EVBLK+11,,AUTO
         0 000025   200003 236300                    LDQ   ! @DCT,,AUTO
         0 000026   000025 036203                    ADLQ  ! 21,DU
         0 000027   000001 235200 1                  LDA   ! 1
         0 000030   200016 757300                    STAQ  ! EVBLK+9,,AUTO
         0 000031   000002 236200 1                  LDQ   ! 2
         0 000032   200015 756300                    STQ   ! EVBLK+8,,AUTO
         0 000033   200003 236300                    LDQ   ! @DCT,,AUTO
         0 000034   000003 036200 1                  ADLQ  ! 3
         0 000035   200014 756300                    STQ   ! EVBLK+7,,AUTO
         0 000036   200014 630700                    EPPR0 ! EVBLK+7,,AUTO
         0 000037   000024 631600 xsym               EPPR1 ! B_VECTNIL+20
         0 000040   000000 701200 xent               TSX1  ! SSV$EVENT
         0 000041   000000 011200                    NOP   ! 0

     1072     1612    4                    END ;

     1073     1613    3                 END ;

   1613  0 000042   000072 710200 0                  TRA   ! s:1622

     1074     1614    2              ELSE IF  DCT.STATE = %IDLE

   1614  0 000043   000007 236300                    LDQ   ! 7,,PR0
         0 000044   000077 316207                    CANQ  ! 63,DL
         0 000045   000072 601200 0                  TNZ   ! s:1622

     1075     1615    3                 THEN DO ;

     1076     1616    3                    EXTRN = DCT.SPEC ;

   1616  0 000046   000020 236300                    LDQ   ! 16,,PR0
         0 000047   200004 756300                    STQ   ! EXTRN,,AUTO
PL6.E3A0      #005=NIO$SPCOMP File=NIO$QUE.:E05TSI                               WED 07/30/97 03:38 Page:216

     1077     1617    3                    IF EXTRN ~= ENTADDR(NIL)

   1617  0 000050   000002 116200 xsym               CMPQ  ! B_VECTNIL+2
         0 000051   000072 600200 0                  TZE   ! s:1622
         0 000052   000027 234300                    SZN   ! 23,,PR0
         0 000053   000072 604200 0                  TMI   ! s:1622

     1078     1618    3                      AND NOT DCT.STATUS.DOWN
     1079     1619    3                    THEN
     1080     1620    3                       CALL EXTRN ( DCT.DCTX, DCT.SPSTAT, DCT.SPECINFO ) ;

   1620  0 000054   200003 236300                    LDQ   ! @DCT,,AUTO
         0 000055   000021 036203                    ADLQ  ! 17,DU
         0 000056   200014 756300                    STQ   ! EVBLK+7,,AUTO
         0 000057   200003 236300                    LDQ   ! @DCT,,AUTO
         0 000060   000017 036203                    ADLQ  ! 15,DU
         0 000061   200013 756300                    STQ   ! EVBLK+6,,AUTO
         0 000062   200003 236300                    LDQ   ! @DCT,,AUTO
         0 000063   000006 036203                    ADLQ  ! 6,DU
         0 000064   200012 756300                    STQ   ! EVBLK+5,,AUTO
         0 000065   200012 630700                    EPPR0 ! EVBLK+5,,AUTO
         0 000066   200004 220300                    LDX0  ! EXTRN,,AUTO
         0 000067   000021 631600 xsym               EPPR1 ! B_VECTNIL+17
         0 000070   000000 701210                    TSX1  ! 0,X0
         0 000071   000000 011200                    NOP   ! 0

     1081     1621    3                    END ;

     1082     1622    2              RETURN ;

   1622  0 000072   000000 702200 xent               TSX2  ! X66_ARET

     1083     1623    2              END ;

     1084     1624        /**/
     1085     1625        /**/
PL6.E3A0      #005=NIO$SPCOMP File=NIO$QUE.:E05TSI                               WED 07/30/97 03:38 Page:217
     1086     1626    1   END NIO$SPCOMP;

   1626  0 000073   000000 702200 xent               TSX2  ! X66_ARET

(unnamed)
 Sect OctLoc
   1     000   000002 006000   000003 006000   000011 006000   000027 200000    ................
     1087     1627        %EOD;

PL6.E3A0      #005=NIO$SPCOMP File=NIO$QUE.:E05TSI                               WED 07/30/97 03:38 Page:218
--  Include file information  --

   UE_CP6.:E05TOU  is referenced.
   NI_MACROS_C.:E05TOU  cannot be made into a system file and is referenced.
   NI$TABLES.:E05TOU  is referenced.
   N$REQ.:E05TOU  is referenced.
   NI_DATA_R.:E05TOU  cannot be made into a system file and is referenced.
   NI_DATA_C.:E05TOU  is referenced.
      No diagnostics issued in procedure NIO$SPCOMP.
PL6.E3A0      #005=NIO$SPCOMP File=NIO$QUE.:E05TSI                               WED 07/30/97 03:38 Page:219

 **** Variables and constants ****

  ****  Auto variables  ****

  ****  Scalars and arrays  ****
OctLoc.c.b A Datatyp(siz) R M Lvl/name                 OctLoc.c.b A Datatyp(siz) R M Lvl/name

     3-0-0/w PTR         r     1 @DCT                      *0-0-0/w STRC(1332)  r     1 DCT
     5-0-0/w STRC(180)   r     1 EVBLK                      4-0-0/w EPTR        r     1 EXTRN

  ****  SYMREF variables  ****

  ****  Scalars and arrays  ****
OctLoc.c.b A Datatyp(siz) R M Lvl/name                 OctLoc.c.b A Datatyp(siz) R M Lvl/name

     0-0-0/w PTR         r     1 N$DCT$$                    0-0-0/w PTR         r     1 N$FQ$
     0-0-0/w PTR         r     1 NI$FQ$                     0-0-0/w PTR         r     1 NI$IBUF$
     0-0-0/w PTR         r     1 NI$RP$


   Procedure NIO$SPCOMP requires 60 words for executable code.
   Procedure NIO$SPCOMP requires 18 words of local(AUTO) storage.
PL6.E3A0      #005=NIO$SPCOMP File=NIO$QUE.:E05TSI                               WED 07/30/97 03:38 Page:220
          *** CROSS REFERENCE LISTING ***
**     DENOTES     IDENTIFIER DEFINITION
<<                 IDENTIFIER'S VALUE SET
>>                 IDENTIFIER'S VALUE USED
<>                 IDENTIFIER SET AND/OR USED
--                 IDENTIFIER REFERENCED
PL6.E3A0      #005=NIO$SPCOMP File=NIO$QUE.:E05TSI                               WED 07/30/97 03:38 Page:221
          MINI XREF LISTING

B$EVNT.CODE
      1590**DCL      1590--REDEF    1591--REDEF    1591--REDEF
B$EVNT.ERR.ERR#
      1592**DCL      1592--REDEF
B$EVNT.EVID
      1591**DCL      1591--REDEF    1591--REDEF
DCT
      1531**DCL         7--PROC
DCT.DCTX
      1532**DCL      1620<>CALL
DCT.DP
      1551**DCL      1558--REDEF    1561--REDEF    1562--REDEF    1564--REDEF    1564--REDEF    1565--REDEF
      1566--REDEF    1566--REDEF
DCT.MPC.IOCHANX
      1559**DCL      1559--REDEF
DCT.SPEC
      1546**DCL      1616>>ASSIGN
DCT.SPECINFO
      1546**DCL      1620<>CALL
DCT.SPEVENT
      1547**DCL      1607>>IF       1611<>CALL
DCT.SPSTAT
      1543**DCL      1610>>ASSIGN   1620<>CALL
DCT.STATE
      1541**DCL      1614>>IF
DCT.STATUS.DOWN
      1548**DCL      1617>>IF
DCT.STATUS.TND
      1549**DCL      1604>>IF
DCT.TDUSER#
      1550**DCL      1604>>IF       1611<>CALL
EVBLK
PL6.E3A0      #005=NIO$SPCOMP File=NIO$QUE.:E05TSI                               WED 07/30/97 03:38 Page:222
      1578**DCL      1609--ASSIGN   1611--CALL
EVBLK.SIZE
      1579**DCL      1609<<ASSIGN
EVBLK.STATUS
      1581**DCL      1610<<ASSIGN
EXTRN
      1577**DCL      1616<<ASSIGN   1617>>IF       1620>>CALL
N$DCT$$
       422**DCL       556--IMP-PTR
N$FQ$
       422**DCL       557--IMP-PTR
N$REQ_INIT.BUFADDR
       441**DCL       442--REDEF     442--REDEF
N$REQ_INIT.DLA.DRELADDR
       433**DCL       433--REDEF
N$REQ_INIT.DVE.EOMCHAR
       470**DCL       471--REDEF
N$REQ_INIT.EAINFO
       464**DCL       464--REDEF
N$REQ_INIT.EAINFOX
       464**DCL       465--REDEF
N$REQ_INIT.EVNTINFO
       465**DCL       465--REDEF
N$REQ_INIT.STATUS
       446**DCL       452--REDEF
NI$FQ$
       482**DCL       558--IMP-PTR
NI$IBUF$
       482**DCL       558--IMP-PTR
NI$IMXMBX_INIT.PAGED_BASE
       492**DCL       493--REDEF     493--REDEF
NI$IMXMBX_INIT.SIZE
       494**DCL       494--REDEF
NI$REQ_INIT.DCW
       516**DCL       519--REDEF
NI$REQ_INIT.DCW.TALLY
PL6.E3A0      #005=NIO$SPCOMP File=NIO$QUE.:E05TSI                               WED 07/30/97 03:38 Page:223
       517**DCL       517--REDEF
NI$REQ_INIT.IDCW.EXTA
       519**DCL       519--REDEF
NI$REQ_INIT.PCW
       521**DCL       525--REDEF
NI$REQ_INIT.SEEK
       526**DCL       527--REDEF     528--REDEF
NI$RP$
       530**DCL       560--IMP-PTR
NI_MBX_INIT.DCW.CONTROL.AE
       552**DCL       552--REDEF
NI_MBX_INIT.LPW.CONTROL.AE
       548**DCL       548--REDEF
SSV$EVENT
      1573**DCL-ENT  1611--CALL

PL6.E3A0      #006=NIO$IOSPIN File=NIO$QUE.:E05TSI                               WED 07/30/97 03:39 Page:224
     1088        1        /*T***********************************************************/
     1089        2        /*T*                                                         */
     1090        3        /*T* Copyright (c) Bull HN Information Systems Inc., 1997    */
     1091        4        /*T*                                                         */
     1092        5        /*T***********************************************************/
     1093        6        NIO$IOSPIN: PROC(N$REQ);
     1094        7        %INCLUDE N$REQ;
     1095       81        %INCLUDE                XUD_UTS_M ;
     1096      163        %N$REQ (NAME=N$REQ,STCLASS="");
     1097      221        /**/
     1098      222    1   DCL NII$LIP ENTRY(1);
     1099      223    1   DCL SSS$SYSTIME ENTRY(1);
     1100      224    1   DCL NIO$COMPQUE ENTRY;
     1101      225        %XUD$UTS_ENTRIES ;
     1102      257        /**/
     1103      258    1   DCL NI_COMPHD$ PTR SYMREF;
     1104      259        /**/
     1105      260    1   DCL CURUTS UBIN;
     1106      261    1   DCL NXTUTS UBIN;
     1107      262        /**/
     1108      263        %XUD_UTS_EQU ;
     1109      274        %EJECT;
PL6.E3A0      #006=NIO$IOSPIN File=NIO$QUE.:E05TSI                               WED 07/30/97 03:39 Page:225
     1110      275    1           CALL SSS$SYSTIME(CURUTS);
     1111      276    1           CALL XUD$UTS_ADJUST(NXTUTS,CURUTS,5*%UTS_CSEC_SEC#); /* WAIT 5 SECONDS */
     1112      277    2           DO WHILE(NOT N$REQ.TYC.EGV);
     1113      278    2              CALL SSS$SYSTIME(CURUTS);
     1114      279    3              IF CURUTS>NXTUTS THEN DO;
     1115      280    3                 CALL NII$LIP(1);
     1116      281    3                 CALL XUD$UTS_ADJUST(NXTUTS,CURUTS,5*%UTS_CSEC_SEC#);
     1117      282    3                 END;
     1118      283    2              IF NI_COMPHD$~=ADDR(NIL) THEN CALL NIO$COMPQUE;
     1119      284    2              END;
     1120      285    1           RETURN;
     1121      286    1   END NIO$IOSPIN;

PL6.E3A0      #006=NIO$IOSPIN File=NIO$QUE.:E05TSI                               WED 07/30/97 03:39 Page:226
--  Include file information  --

   XUD_UTS_M.:E05TOU  is referenced.
   N$REQ.:E05TOU  is referenced.
      No diagnostics issued in procedure NIO$IOSPIN.

   Procedure NIO$IOSPIN requires 52 words for executable code.
   Procedure NIO$IOSPIN requires 10 words of local(AUTO) storage.

    No errors detected in file NIO$QUE.:E05TSI    .

PL6.E3A0      #006=NIO$IOSPIN File=NIO$QUE.:E05TSI                               WED 07/30/97 03:39 Page:227

 Object Unit name= NIO$IOSPIN                                 File name= NIO$QUE.:E05TOU
 UTS= JUL 30 '97 03:39:05.32 WED                              Compiler= PL-6/E31         Sev=      00
 SharedLib= :SHARED_SYSTEM                                    Alt SharedLib=


    ****  Control sections  ****

 Sect   Type Bound  Init  Size OctSiz  Section name(segment info)
    0   Proc  even  none    52     64  NIO$IOSPIN
    1  RoData even  none     3      3  NIO$IOSPIN

    ****  Entry defs  ****

                              Check   Calling
                             calling  sequence
  Sect OctLoc Primary Altret sequence   type   Parms  Name
     0      0   yes            yes      Std        1  NIO$IOSPIN

  ****  Entry refs  ****

         Check        Calling
        calling       sequence
Altret sequence SRef   type   Args  Name
         yes           Std       1 SSS$SYSTIME
 yes     yes           Std       3 XUD$UTS_ADJUST
         yes           Std       1 NII$LIP
         yes           Std       0 NIO$COMPQUE
                       nStd      0 X66_AUTO_1
                       Std       0 B_CONSPOOL_D
                       nStd      0 X66_ARET

  ****  Data refs  ****

  Flags:  r = read only, s = secondary
Flgs Name                             Flgs Name                             Flgs Name
     NI_COMPHD$                            B_VECTNIL
PL6.E3A0      #006=NIO$IOSPIN File=NIO$QUE.:E05TSI                               WED 07/30/97 03:39 Page:228

  ****  Segment refs  ****

  Flags:  r = read only, s = secondary
Flgs Name                             Flgs Name                             Flgs Name
     ISSID
PL6.E3A0      #006=NIO$IOSPIN File=NIO$QUE.:E05TSI                               WED 07/30/97 03:39 Page:229


     1088        1        /*T***********************************************************/
     1089        2        /*T*                                                         */
     1090        3        /*T* Copyright (c) Bull HN Information Systems Inc., 1997    */
     1091        4        /*T*                                                         */
     1092        5        /*T***********************************************************/
     1093        6        NIO$IOSPIN: PROC(N$REQ);

      6  0 000000   000000 700200 xent  NIO$IOSPIN   TSX0  ! X66_AUTO_1
         0 000001   000012 000001                    ZERO    10,1

     1094        7        %INCLUDE N$REQ;
     1095       81        %INCLUDE                XUD_UTS_M ;
     1096      163        %N$REQ (NAME=N$REQ,STCLASS="");
     1097      221        /**/
     1098      222    1   DCL NII$LIP ENTRY(1);
     1099      223    1   DCL SSS$SYSTIME ENTRY(1);
     1100      224    1   DCL NIO$COMPQUE ENTRY;
     1101      225        %XUD$UTS_ENTRIES ;
     1102      257        /**/
     1103      258    1   DCL NI_COMPHD$ PTR SYMREF;
     1104      259        /**/
     1105      260    1   DCL CURUTS UBIN;
     1106      261    1   DCL NXTUTS UBIN;
     1107      262        /**/
     1108      263        %XUD_UTS_EQU ;
     1109      274        %EJECT;
PL6.E3A0      #006=NIO$IOSPIN File=NIO$QUE.:E05TSI                               WED 07/30/97 03:39 Page:230
     1110      275    1           CALL SSS$SYSTIME(CURUTS);

    275  0 000002   200004 630500                    EPPR0   CURUTS,,AUTO
         0 000003   200006 450500                    STP0    NXTUTS+1,,AUTO
         0 000004   200006 630500                    EPPR0   NXTUTS+1,,AUTO
         0 000005   000017 631400 xsym               EPPR1   B_VECTNIL+15
         0 000006   000000 701000 xent               TSX1    SSS$SYSTIME
         0 000007   000000 011000                    NOP     0

     1111      276    1           CALL XUD$UTS_ADJUST(NXTUTS,CURUTS,5*%UTS_CSEC_SEC#); /* WAIT 5 SECONDS */

    276  0 000010   000001 236000 1                  LDQ     1
         0 000011   200010 756100                    STQ     NXTUTS+3,,AUTO
         0 000012   200004 630500                    EPPR0   CURUTS,,AUTO
         0 000013   200007 450500                    STP0    NXTUTS+2,,AUTO
         0 000014   200005 631500                    EPPR1   NXTUTS,,AUTO
         0 000015   200006 451500                    STP1    NXTUTS+1,,AUTO
         0 000016   200006 630500                    EPPR0   NXTUTS+1,,AUTO
         0 000017   000021 631400 xsym               EPPR1   B_VECTNIL+17
         0 000020   000000 701000 xent               TSX1    XUD$UTS_ADJUST
         0 000021   000000 011000                    NOP     0

     1112      277    2           DO WHILE(NOT N$REQ.TYC.EGV);

    277  0 000022   000060 710000 0                  TRA     s:284

     1113      278    2              CALL SSS$SYSTIME(CURUTS);

    278  0 000023   200004 630500                    EPPR0   CURUTS,,AUTO
         0 000024   200006 450500                    STP0    NXTUTS+1,,AUTO
         0 000025   200006 630500                    EPPR0   NXTUTS+1,,AUTO
         0 000026   000017 631400 xsym               EPPR1   B_VECTNIL+15
         0 000027   000000 701000 xent               TSX1    SSS$SYSTIME
         0 000030   000000 011000                    NOP     0

     1114      279    3              IF CURUTS>NXTUTS THEN DO;

PL6.E3A0      #006=NIO$IOSPIN File=NIO$QUE.:E05TSI                               WED 07/30/97 03:39 Page:231
    279  0 000031   200005 236100                    LDQ     NXTUTS,,AUTO
         0 000032   200004 116100                    CMPQ    CURUTS,,AUTO
         0 000033   000052 603000 0                  TRC     s:283

     1115      280    3                 CALL NII$LIP(1);

    280  0 000034   000002 630400 1                  EPPR0   2
         0 000035   000017 631400 xsym               EPPR1   B_VECTNIL+15
         0 000036   000000 701000 xent               TSX1    NII$LIP
         0 000037   000000 011000                    NOP     0

     1116      281    3                 CALL XUD$UTS_ADJUST(NXTUTS,CURUTS,5*%UTS_CSEC_SEC#);

    281  0 000040   000001 236000 1                  LDQ     1
         0 000041   200010 756100                    STQ     NXTUTS+3,,AUTO
         0 000042   200004 630500                    EPPR0   CURUTS,,AUTO
         0 000043   200007 450500                    STP0    NXTUTS+2,,AUTO
         0 000044   200005 631500                    EPPR1   NXTUTS,,AUTO
         0 000045   200006 451500                    STP1    NXTUTS+1,,AUTO
         0 000046   200006 630500                    EPPR0   NXTUTS+1,,AUTO
         0 000047   000021 631400 xsym               EPPR1   B_VECTNIL+17
         0 000050   000000 701000 xent               TSX1    XUD$UTS_ADJUST
         0 000051   000000 011000                    NOP     0

     1117      282    3                 END;

     1118      283    2              IF NI_COMPHD$~=ADDR(NIL) THEN CALL NIO$COMPQUE;

    283  0 000052   000000 236000 xsym               LDQ     NI_COMPHD$
         0 000053   000001 116000 xsym               CMPQ    B_VECTNIL+1
         0 000054   000060 600000 0                  TZE     s:284

    283  0 000055   000002 631400 xsym               EPPR1   B_VECTNIL+2
         0 000056   000000 701000 xent               TSX1    NIO$COMPQUE
         0 000057   000000 011000                    NOP     0

     1119      284    2              END;
PL6.E3A0      #006=NIO$IOSPIN File=NIO$QUE.:E05TSI                               WED 07/30/97 03:39 Page:232

    284  0 000060   200003 470500                    LDP0    @N$REQ,,AUTO
         0 000061   000021 234100                    SZN     17,,PR0
         0 000062   000023 605000 0                  TPL     s:278

     1120      285    1           RETURN;

    285  0 000063   000000 702200 xent               TSX2  ! X66_ARET

(unnamed)
 Sect OctLoc
   1     000   000000 000764   000000 006000   000003 006000                    ............
     1121      286    1   END NIO$IOSPIN;

PL6.E3A0      #006=NIO$IOSPIN File=NIO$QUE.:E05TSI                               WED 07/30/97 03:39 Page:233
--  Include file information  --

   XUD_UTS_M.:E05TOU  is referenced.
   N$REQ.:E05TOU  is referenced.
      No diagnostics issued in procedure NIO$IOSPIN.
PL6.E3A0      #006=NIO$IOSPIN File=NIO$QUE.:E05TSI                               WED 07/30/97 03:39 Page:234

 **** Variables and constants ****

  ****  Auto variables  ****

  ****  Scalars and arrays  ****
OctLoc.c.b A Datatyp(siz) R M Lvl/name                 OctLoc.c.b A Datatyp(siz) R M Lvl/name

     3-0-0/w PTR         r     1 @N$REQ                     4-0-0/w UBIN        r     1 CURUTS
    *0-0-0/d STRC(1080)  r     1 N$REQ                      5-0-0/w UBIN        r     1 NXTUTS

  ****  SYMREF variables  ****

  ****  Scalars and arrays  ****
OctLoc.c.b A Datatyp(siz) R M Lvl/name                 OctLoc.c.b A Datatyp(siz) R M Lvl/name

     0-0-0/w PTR         r     1 NI_COMPHD$


   Procedure NIO$IOSPIN requires 52 words for executable code.
   Procedure NIO$IOSPIN requires 10 words of local(AUTO) storage.

    No errors detected in file NIO$QUE.:E05TSI    .
PL6.E3A0      #006=NIO$IOSPIN File=NIO$QUE.:E05TSI                               WED 07/30/97 03:39 Page:235
          *** CROSS REFERENCE LISTING ***
**     DENOTES     IDENTIFIER DEFINITION
<<                 IDENTIFIER'S VALUE SET
>>                 IDENTIFIER'S VALUE USED
<>                 IDENTIFIER SET AND/OR USED
--                 IDENTIFIER REFERENCED
PL6.E3A0      #006=NIO$IOSPIN File=NIO$QUE.:E05TSI                               WED 07/30/97 03:39 Page:236
          MINI XREF LISTING

CURUTS
       260**DCL       275<>CALL      276<>CALL      278<>CALL      279>>IF        281<>CALL
N$REQ
       172**DCL         6--PROC
N$REQ.BUFADDR
       181**DCL       182--REDEF     182--REDEF
N$REQ.DLA.DRELADDR
       173**DCL       173--REDEF
N$REQ.DVE.EOMCHAR
       210**DCL       211--REDEF
N$REQ.EAINFO
       204**DCL       204--REDEF
N$REQ.EAINFOX
       204**DCL       205--REDEF
N$REQ.EVNTINFO
       205**DCL       205--REDEF
N$REQ.STATUS
       186**DCL       192--REDEF
N$REQ.TYC.EGV
       194**DCL       277>>DOWHILE
NII$LIP
       222**DCL-ENT   280--CALL
NIO$COMPQUE
       224**DCL-ENT   283--CALL
NI_COMPHD$
       258**DCL       283>>IF
NXTUTS
       261**DCL       276<>CALL      279>>IF        281<>CALL
SSS$SYSTIME
       223**DCL-ENT   275--CALL      278--CALL
XUD$UTS_ADJUST
       244**DCL-ENT   276--CALL      281--CALL
