PL6.E3A0      #002=NIT$DEVSCHED File=NIT$TAPE.:E05TSI                            WED 07/30/97 03:39 Page:172
      857        1        /*T***********************************************************/
      858        2        /*T*                                                         */
      859        3        /*T* Copyright (c) Bull HN Information Systems Inc., 1997    */
      860        4        /*T*                                                         */
      861        5        /*T***********************************************************/
      862        6        /*D*    ENTRY:      NIT$DEVSCHED
      863        7                            NIT$DEVSCHEDL
      864        8
      865        9                CALL:       CALL NIT$DEVSCHED(DCT,NEWSTATE);
      866       10                            CALL NIT$DEVSCHEDL(DCT,NEWSTATE);
      867       11
      868       12                ENVIRONMENT: Monitor linkage segment.  For NIT$DEVSCHEDL
      869       13                             SQH.GATE is already locked.
      870       14
      871       15                DESCRIPTION:   SQH.GATE is locked and the devices state is
      872       16                               changed to NEWSTATE.  Control then passes to
      873       17                               the SCHED code which is common to NIT$REQSCHED
      874       18                               and NIT$DEVSCHED(L).
      875       19
      876       20                               At SCHED if the device's state is IDLE and
      877       21                               there are requests pending on the device, it
      878       22                               is placed on the assign queue for the
      879       23                               subsystem and the devices state is changed
      880       24                               to requested.  Control then passes to
      881       25                               NIT$SCANAQ.
      882       26                                                                           */
      883       27        NIT$DEVSCHED: PROC (PAR, NEWSTATE);
      884       28        /*
      885       29              Includes
      886       30        */
      887       31        %INCLUDE                HF_LOCK_C ;
      888       45        %INCLUDE                NI_DATA_C ;
      889      158        %INCLUDE                NI_DATA_R ;
      890      595        %INCLUDE                NI_MACROS_C ;
      891      862        %INCLUDE                N_FC_C ;
      892      899        %INCLUDE                PM$NI ;
      893      923        /*
PL6.E3A0      #002=NIT$DEVSCHED File=NIT$TAPE.:E05TSI                            WED 07/30/97 03:39 Page:173
      894      924              Parameters
      895      925        */
      896      926    1   DCL 1 NEWSTATE        SBIN PARAM ;
      897      927    1   DCL 1 PAR             UBIN PARAM ;
      898      928        /*
      899      929              Entries
      900      930        */
      901      931    1   DCL 1 NIS$DRIVER        ENTRY(1) ;
      902      932    1   DCL 1 NIT$REPOS         ENTRY(2) ALTRET ;
      903      933    1   DCL 1 NIW$LDFWR         ENTRY(2) ALTRET ;
      904      934    1   DCL 1 PMN$COLLECT       ENTRY(3) ;
      905      935        /*
      906      936              Auto
      907      937        */
      908      938    1   DCL 1 DCT$              PTR ALIGNED AUTO ;
      909      939    1   DCL 1 DQH$              PTR ALIGNED AUTO ;
      910      940    1   DCL 1 DVT$              PTR ALIGNED AUTO ;
      911      941    1   DCL 1 I                 UBIN(36) ALIGNED AUTO ;
      912      942    1   DCL 1 J                 UBIN(36) ALIGNED AUTO ;
      913      943    1   DCL 1 LAX               UBIN(36) ALIGNED AUTO ;
      914      944    1   DCL 1 REQ$              PTR ALIGNED AUTO ;
      915      945    1   DCL 1 SQH$              PTR ALIGNED AUTO ;
      916      946    1   DCL 1 SVDCT$            PTR ALIGNED AUTO ;
      917      947    1   DCL 1 SVDQH$            PTR ALIGNED AUTO ;
      918      948    1   DCL 1 T$                PTR ALIGNED AUTO ;
      919      949        /*
      920      950              Based
      921      951        */
      922      952        %NI$DCT                 ( NAME=DCT, STCLASS="BASED(DCT$)" ) ;
      923     1000        %NI$DQH                 ( NAME=DQH, STCLASS="BASED(DQH$)" ) ;
      924     1023        %NI$DVT                 ( NAME=DVT, STCLASS="BASED(DVT$)" ) ;
      925     1030        %NI$REQ                 ( NAME=NI$REQ ) ;
      926     1055        %N$REQ                  ( NAME=REQ, STCLASS="BASED(REQ$)" ) ;
      927     1113        %NI$SQH                 ( NAME=SQH, STCLASS="BASED(SQH$)" ) ;
      928     1126        %EJECT ;
PL6.E3A0      #002=NIT$DEVSCHED File=NIT$TAPE.:E05TSI                            WED 07/30/97 03:39 Page:174
      929     1127    1           DCT$=ADDR(PAR);
      930     1128    1           SQH$=DCT.SQH$;
      931     1129                %LOCK (G#=SQH.GATE);
      932     1132    1           DCT.STATE=NEWSTATE;
      933     1133    1           GOTO SCHED;
      934     1134        /**/
      935     1135        %EJECT;
PL6.E3A0      #002=NIT$DEVSCHED File=NIT$TAPE.:E05TSI                            WED 07/30/97 03:39 Page:175
      936     1136        /*D*    ENTRY:      NIT$REQSCHED
      937     1137
      938     1138                CALL:       CALL NIT$REQSCHED(N$REQ);
      939     1139
      940     1140                ENVIRONMENT: Monitor linkage segment
      941     1141
      942     1142                INPUT:      N$REQ - IOQ packet
      943     1143
      944     1144                DESCRIPTION:   NIT$REQSCHED enqueues the request on the
      945     1145                               devices scheduler queue and then goes to the
      946     1146                               common code at SCHED.
      947     1147                                                                           */
      948     1148    1   NIT$REQSCHED: ENTRY(PAR);
      949     1149    1           REQ$=ADDR(PAR);
      950     1150    1           DCT$=REQ.DCT$;
      951     1151    1           SQH$=DCT.SQH$;
      952     1152                %LOCK (G#=SQH.GATE);
      953     1155                %ENQUEUE (P#=REQ,Q#=DCT.SQ$);
      954     1158    1           GOTO SCHED;
      955     1159        %EJECT;
PL6.E3A0      #002=NIT$DEVSCHED File=NIT$TAPE.:E05TSI                            WED 07/30/97 03:39 Page:176
      956     1160    1   NIT$DEVSCHEDL: ENTRY(PAR,NEWSTATE);
      957     1161    1           DCT$=ADDR(PAR);
      958     1162    1           SQH$=DCT.SQH$;
      959     1163    1           DCT.STATE=NEWSTATE;
      960     1164        /**/
      961     1165        /**/
      962     1166        /**/
      963     1167    1   SCHED:
      964     1168    2           IF DCT.STATE=%IDLE AND DCT.SQ$~=ADDR(NIL) THEN DO;
      965     1169                   %ENQUEUE (P#=DCT,Q#=SQH.AQ$);
      966     1172    2              DCT.STATE=%REQUESTED;
      967     1173    2              CALL PMN$COLLECT(DCT.PM,%PM_WAIT);
      968     1174    2              END;
      969     1175    1           GOTO SCANAQ;
      970     1176        %EJECT;
PL6.E3A0      #002=NIT$DEVSCHED File=NIT$TAPE.:E05TSI                            WED 07/30/97 03:39 Page:177
      971     1177        /*D*    ENTRY:      NIT$SCANAQ
      972     1178
      973     1179                CALL:       CALL NIT$SCANAQ(SQH);
      974     1180
      975     1181                DESCRIPTION:      NIT$SCANAQ scans the subsystem assign queue
      976     1182                                  to find any requests that can be started.
      977     1183                                                                           */
      978     1184    1   NIT$SCANAQ: ENTRY(PAR);
      979     1185    1           SQH$=ADDR(PAR);
      980     1186                %LOCK (G#=SQH.GATE);
      981     1189    1   SCANAQ:
      982     1190    1           SVDCT$=ADDR(NIL);
      983     1191    1           SVDQH$=ADDR(NIL);
      984     1192    2           DO WHILE(SQH.AQ$~=ADDR(NIL));
      985     1193                   %DEQUEUE(P#=DCT$,Q#=SQH.AQ$);
      986     1200    2              DVT$=DCT.DVT$;
      987     1201    2              IF DCT.TYPE=%DV_MPC THEN
      988     1202    2                 GOTO NOTDENS1;
      989     1203    2              IF DCT.MT.SETDENS$=ADDR(NIL) THEN
      990     1204    2   NOTDENS1:
      991     1205    2                 REQ$=DCT.SQ$->REQ.FL$;
      992     1206    2              ELSE
      993     1207    2                 REQ$=DCT.MT.SETDENS$;     /* REQ.DQH$ will always be specified */
      994     1208    3              IF REQ.DQH$=ADDR(NIL) THEN DO; /* ANY CHANNEL WILL DO */
      995     1209    4   ANOTHER_CHAN: IF SQH.CQ$=ADDR(NIL) THEN DO;
      996     1210                         %ENQUEUE (P#=DCT,Q#=SVDCT$);
      997     1213    4                    END;
      998     1214    4                 ELSE DO;
      999     1215                         %DEQUEUE (P#=DQH$,Q#=SQH.CQ$);
     1000     1222    5                    IF DQH.SCHAN$->DQH.MREC THEN DO;
     1001     1223                            %ENQUEUE (P#=DQH,Q#=SVDQH$);
     1002     1226    5                       GOTO ANOTHER_CHAN;
     1003     1227    5                       END;
     1004     1228    5                    IF DCT.MT.FREPOS$=ADDR(NIL) THEN DO;
     1005     1229                            %DEQUEUE (P#=REQ$,Q#=DCT.SQ$);
     1006     1236    5                       END;
     1007     1237    5                    ELSE DO;
PL6.E3A0      #002=NIT$DEVSCHED File=NIT$TAPE.:E05TSI                            WED 07/30/97 03:39 Page:178
     1008     1238    5                       REQ$=DCT.MT.FREPOS$;
     1009     1239    5                       END;
     1010     1240    4                    DQH.MREC=REQ.IOFLG.MREC;
     1011     1241    4                    DQH.IO$=REQ$;
     1012     1242    4                    DCT.DQH$=DQH$;
     1013     1243    4                    DCT.STATE=%BUSY;
     1014     1244    4                    IF DCT.SQ$=ADDR(NIL) THEN
     1015     1245    4                       CALL PMN$COLLECT(DCT.PM,%PM_BUSY);
     1016     1246    4                    ELSE
     1017     1247    4                       CALL PMN$COLLECT(DCT.PM,%PM_QUED);
     1018     1248    5                    IF REQ.IOS$->NI$REQ.TAPEPOS = '0'B THEN DO;
     1019     1249    5                       REQ.IOS$->NI$REQ.TAPEPOS.CRECCNT = DCT.MT.POS.CRECCNT;
     1020     1250    5                       REQ.IOS$->NI$REQ.TAPEPOS.FILECNT = DCT.MT.POS.FILECNT;
     1021     1251    5                       END;
     1022     1252    4                    IF REQ.FC = %N_REWIND THEN
     1023     1253    4                       DCT.MT.RWC = '0'B;
     1024     1254    4                    CALL NIS$DRIVER(DQH);
     1025     1255    4                    END;
     1026     1256    3                 END;
     1027     1257    3              ELSE DO;
     1028     1258    3                 DQH$=REQ.DQH$;
     1029     1259    3                 IF DQH.STATE~=%IDLE OR
     1030     1260    4                   (REQ.IOFLG.STOPMPC AND NOT DQH.MPC$->DCT.DFLG.MPCSTOP) THEN DO;
     1031     1261    4   ENQUE_DEV:
     1032     1262                         %ENQUEUE (P#=DCT,Q#=SVDCT$);
     1033     1265    4                    END;
     1034     1266    4                 ELSE DO;
     1035     1267    5                    IF DQH.FL$~=ADDR(NIL) THEN DO;
     1036     1268    5                       IF SQH.CQ$=ADDR(NIL) THEN GOTO ENQUE_DEV;
     1037     1269    5                       T$=SQH.CQ$;
     1038     1270    6                       DO WHILE(SQH.CQ$->DQH.FL$~=DQH$);
     1039     1271    6                          SQH.CQ$=SQH.CQ$->DQH.FL$;
     1040     1272    6                          IF T$=SQH.CQ$ THEN GOTO ENQUE_DEV;
     1041     1273    6                          END;
     1042     1274                            %DEQUEUE(P#=DQH$,Q#=SQH.CQ$);
     1043     1281    5                       END;
     1044     1282    4                    IF DCT.TYPE=%DV_MPC THEN
PL6.E3A0      #002=NIT$DEVSCHED File=NIT$TAPE.:E05TSI                            WED 07/30/97 03:39 Page:179
     1045     1283    4                       GOTO NOTDENS2;
     1046     1284    4                    IF DCT.MT.SETDENS$=ADDR(NIL) THEN
     1047     1285    4   NOTDENS2:
     1048     1286                            %DEQUEUE (P#=REQ$,Q#=DCT.SQ$);
     1049     1293    4                    DQH.MREC=REQ.IOFLG.MREC;
     1050     1294    4                    DQH.IO$=REQ$;
     1051     1295    4                    DCT.DQH$=DQH$;
     1052     1296    4                    IF REQ.IOFLG.SUSP THEN DQH.MPC$->DCT.DFLG.MPCSUSPENDED='1'B;
     1053     1297    4                    DCT.STATE=%BUSY;
     1054     1298    4                    CALL PMN$COLLECT(DCT.PM,%PM_BUSY);
     1055     1299    5                    IF REQ.IOS$->NI$REQ.TAPEPOS = '0'B THEN DO;
     1056     1300    5                       REQ.IOS$->NI$REQ.TAPEPOS.CRECCNT = DCT.MT.POS.CRECCNT;
     1057     1301    5                       REQ.IOS$->NI$REQ.TAPEPOS.FILECNT = DCT.MT.POS.FILECNT;
     1058     1302    5                       END;
     1059     1303    4                    IF REQ.FC = %N_REWIND THEN
     1060     1304    4                       DCT.MT.RWC = '0'B;
     1061     1305    4                    CALL NIS$DRIVER(DQH);
     1062     1306    4                    END;
     1063     1307    3                 END;
     1064     1308    2              END;
     1065     1309    1           SQH.AQ$=SVDCT$;
     1066     1310    2           IF SVDQH$~=ADDR(NIL) THEN DO;
     1067     1311    2              IF SQH.CQ$=ADDR(NIL) THEN SQH.CQ$=SVDQH$;
     1068     1312    3              ELSE DO;
     1069     1313    3                 DQH$=SVDQH$->DQH.FL$;
     1070     1314    3                 SVDQH$->DQH.FL$=SQH.CQ$->DQH.FL$;
     1071     1315    3                 SQH.CQ$->DQH.FL$=DQH$;
     1072     1316    3                 SQH.CQ$=SVDQH$;
     1073     1317    3                 END;
     1074     1318    2              END;
     1075     1319                %UNLOCK (G#=SQH.GATE);
     1076     1322    1           RETURN;
     1077     1323    1   END NIT$DEVSCHED;

PL6.E3A0      #002=NIT$DEVSCHED File=NIT$TAPE.:E05TSI                            WED 07/30/97 03:39 Page:180
--  Include file information  --

   PM$NI.:E05TOU  is referenced.
   N_FC_C.:E05TOU  is referenced.
   NI_MACROS_C.:E05TOU  cannot be made into a system file and is referenced.
   NI$TABLES.:E05TOU  is referenced.
   N$REQ.:E05TOU  is referenced.
   NI_DATA_R.:E05TOU  cannot be made into a system file and is referenced.
   NI_DATA_C.:E05TOU  is referenced.
   HF_LOCK_C.:E05TOU  cannot be made into a system file and is referenced.
      No diagnostics issued in procedure NIT$DEVSCHED.

   Procedure NIT$DEVSCHED requires 378 words for executable code.
   Procedure NIT$DEVSCHED requires 18 words of local(AUTO) storage.

    No errors detected in file NIT$TAPE.:E05TSI    .

PL6.E3A0      #002=NIT$DEVSCHED File=NIT$TAPE.:E05TSI                            WED 07/30/97 03:39 Page:181

 Object Unit name= NIT$DEVSCHED                               File name= NIT$TAPE.:E05TOU
 UTS= JUL 30 '97 03:39:58.28 WED                              Compiler= PL-6/E31         Sev=      00
 SharedLib= :SHARED_SYSTEM                                    Alt SharedLib=


    ****  Control sections  ****

 Sect   Type Bound  Init  Size OctSiz  Section name(segment info)
    0   Proc  even  none   378    572  NIT$DEVSCHED
    1  RoData even  none     3      3  NIT$DEVSCHED

    ****  Entry defs  ****

                              Check   Calling
                             calling  sequence
  Sect OctLoc Primary Altret sequence   type   Parms  Name
     0      0   yes            yes      Std        2  NIT$DEVSCHED
     0     20                  yes      Std        1  NIT$REQSCHED
     0     47                  yes      Std        2  NIT$DEVSCHEDL
     0    115                  yes      Std        1  NIT$SCANAQ

  ****  Entry refs  ****

         Check        Calling
        calling       sequence
Altret sequence SRef   type   Args  Name
         yes           Std       1 HFC$LOCK
         yes           Std       3 PMN$COLLECT
         yes           Std       1 HFC$UNLOCK
 yes     yes           Std       2 NIM$DEQUEUE
         yes           Std       1 NIS$DRIVER
         yes           Std       2 NIM$ENQUEUE
                       nStd      0 X66_AUTO_2
                       Std       0 B_CONSPOOL_D
                       nStd      0 X66_ARET
PL6.E3A0      #002=NIT$DEVSCHED File=NIT$TAPE.:E05TSI                            WED 07/30/97 03:39 Page:182

  ****  Data refs  ****

  Flags:  r = read only, s = secondary
Flgs Name                             Flgs Name                             Flgs Name
     N$DCT$$                               N$FQ$                                 NI$FQ$
     NI$IBUF$                              NI$RP$                                B_VECTNIL

  ****  Segment refs  ****

  Flags:  r = read only, s = secondary
Flgs Name                             Flgs Name                             Flgs Name
     ISSID
PL6.E3A0      #002=NIT$DEVSCHED File=NIT$TAPE.:E05TSI                            WED 07/30/97 03:39 Page:183


      857        1        /*T***********************************************************/
      858        2        /*T*                                                         */
      859        3        /*T* Copyright (c) Bull HN Information Systems Inc., 1997    */
      860        4        /*T*                                                         */
      861        5        /*T***********************************************************/
      862        6        /*D*    ENTRY:      NIT$DEVSCHED
      863        7                            NIT$DEVSCHEDL
      864        8
      865        9                CALL:       CALL NIT$DEVSCHED(DCT,NEWSTATE);
      866       10                            CALL NIT$DEVSCHEDL(DCT,NEWSTATE);
      867       11
      868       12                ENVIRONMENT: Monitor linkage segment.  For NIT$DEVSCHEDL
      869       13                             SQH.GATE is already locked.
      870       14
      871       15                DESCRIPTION:   SQH.GATE is locked and the devices state is
      872       16                               changed to NEWSTATE.  Control then passes to
      873       17                               the SCHED code which is common to NIT$REQSCHED
      874       18                               and NIT$DEVSCHED(L).
      875       19
      876       20                               At SCHED if the device's state is IDLE and
      877       21                               there are requests pending on the device, it
      878       22                               is placed on the assign queue for the
      879       23                               subsystem and the devices state is changed
      880       24                               to requested.  Control then passes to
      881       25                               NIT$SCANAQ.
      882       26                                                                           */
      883       27        NIT$DEVSCHED: PROC (PAR, NEWSTATE);

     27  0 000000   000000 700200 xent  NIT$DEVSCHED TSX0  ! X66_AUTO_2
         0 000001   000022 000002                    ZERO    18,2

      884       28        /*
      885       29              Includes
      886       30        */
      887       31        %INCLUDE                HF_LOCK_C ;
      888       45        %INCLUDE                NI_DATA_C ;
PL6.E3A0      #002=NIT$DEVSCHED File=NIT$TAPE.:E05TSI                            WED 07/30/97 03:39 Page:184
      889      158        %INCLUDE                NI_DATA_R ;
      890      595        %INCLUDE                NI_MACROS_C ;
      891      862        %INCLUDE                N_FC_C ;
      892      899        %INCLUDE                PM$NI ;
      893      923        /*
      894      924              Parameters
      895      925        */
      896      926    1   DCL 1 NEWSTATE        SBIN PARAM ;
      897      927    1   DCL 1 PAR             UBIN PARAM ;
      898      928        /*
      899      929              Entries
      900      930        */
      901      931    1   DCL 1 NIS$DRIVER        ENTRY(1) ;
      902      932    1   DCL 1 NIT$REPOS         ENTRY(2) ALTRET ;
      903      933    1   DCL 1 NIW$LDFWR         ENTRY(2) ALTRET ;
      904      934    1   DCL 1 PMN$COLLECT       ENTRY(3) ;
      905      935        /*
      906      936              Auto
      907      937        */
      908      938    1   DCL 1 DCT$              PTR ALIGNED AUTO ;
      909      939    1   DCL 1 DQH$              PTR ALIGNED AUTO ;
      910      940    1   DCL 1 DVT$              PTR ALIGNED AUTO ;
      911      941    1   DCL 1 I                 UBIN(36) ALIGNED AUTO ;
      912      942    1   DCL 1 J                 UBIN(36) ALIGNED AUTO ;
      913      943    1   DCL 1 LAX               UBIN(36) ALIGNED AUTO ;
      914      944    1   DCL 1 REQ$              PTR ALIGNED AUTO ;
      915      945    1   DCL 1 SQH$              PTR ALIGNED AUTO ;
      916      946    1   DCL 1 SVDCT$            PTR ALIGNED AUTO ;
      917      947    1   DCL 1 SVDQH$            PTR ALIGNED AUTO ;
      918      948    1   DCL 1 T$                PTR ALIGNED AUTO ;
      919      949        /*
      920      950              Based
      921      951        */
      922      952        %NI$DCT                 ( NAME=DCT, STCLASS="BASED(DCT$)" ) ;
      923     1000        %NI$DQH                 ( NAME=DQH, STCLASS="BASED(DQH$)" ) ;
      924     1023        %NI$DVT                 ( NAME=DVT, STCLASS="BASED(DVT$)" ) ;
      925     1030        %NI$REQ                 ( NAME=NI$REQ ) ;
PL6.E3A0      #002=NIT$DEVSCHED File=NIT$TAPE.:E05TSI                            WED 07/30/97 03:39 Page:185
      926     1055        %N$REQ                  ( NAME=REQ, STCLASS="BASED(REQ$)" ) ;
      927     1113        %NI$SQH                 ( NAME=SQH, STCLASS="BASED(SQH$)" ) ;
      928     1126        %EJECT ;
PL6.E3A0      #002=NIT$DEVSCHED File=NIT$TAPE.:E05TSI                            WED 07/30/97 03:39 Page:186
      929     1127    1           DCT$=ADDR(PAR);

   1127  0 000002   200003 236100                    LDQ     @PAR,,AUTO
         0 000003   200005 756100                    STQ     DCT$,,AUTO

      930     1128    1           SQH$=DCT.SQH$;

   1128  0 000004   200005 470500                    LDP0    DCT$,,AUTO
         0 000005   000022 236100                    LDQ     18,,PR0
         0 000006   200014 756100                    STQ     SQH$,,AUTO

      931     1129                %LOCK (G#=SQH.GATE);

   1130  0 000007   200014 630500                    EPPR0   SQH$,,AUTO
         0 000010   000017 631400 xsym               EPPR1   B_VECTNIL+15
         0 000011   000000 701000 xent               TSX1    HFC$LOCK
         0 000012   000000 011000                    NOP     0

      932     1132    1           DCT.STATE=NEWSTATE;

   1132  0 000013   200005 470500                    LDP0    DCT$,,AUTO
         0 000014   200004 471500                    LDP1    @NEWSTATE,,AUTO
         0 000015   100000 236100                    LDQ     0,,PR1
         0 000016   000007 752101                    STCQ    7,'01'O,PR0

      933     1133    1           GOTO SCHED;

   1133  0 000017   000061 710000 0                  TRA     SCHED

      934     1134        /**/
      935     1135        %EJECT;
PL6.E3A0      #002=NIT$DEVSCHED File=NIT$TAPE.:E05TSI                            WED 07/30/97 03:39 Page:187
      936     1136        /*D*    ENTRY:      NIT$REQSCHED
      937     1137
      938     1138                CALL:       CALL NIT$REQSCHED(N$REQ);
      939     1139
      940     1140                ENVIRONMENT: Monitor linkage segment
      941     1141
      942     1142                INPUT:      N$REQ - IOQ packet
      943     1143
      944     1144                DESCRIPTION:   NIT$REQSCHED enqueues the request on the
      945     1145                               devices scheduler queue and then goes to the
      946     1146                               common code at SCHED.
      947     1147                                                                           */
      948     1148    1   NIT$REQSCHED: ENTRY(PAR);

   1148  0 000020   000000 700200 xent  NIT$REQSCHED TSX0  ! X66_AUTO_2
         0 000021   000022 000002                    ZERO    18,2

      949     1149    1           REQ$=ADDR(PAR);

   1149  0 000022   200003 236100                    LDQ     @PAR,,AUTO
         0 000023   200013 756100                    STQ     REQ$,,AUTO

      950     1150    1           DCT$=REQ.DCT$;

   1150  0 000024   200013 470500                    LDP0    REQ$,,AUTO
         0 000025   000002 236100                    LDQ     2,,PR0
         0 000026   200005 756100                    STQ     DCT$,,AUTO

      951     1151    1           SQH$=DCT.SQH$;

   1151  0 000027   200005 471500                    LDP1    DCT$,,AUTO
         0 000030   100022 236100                    LDQ     18,,PR1
         0 000031   200014 756100                    STQ     SQH$,,AUTO

      952     1152                %LOCK (G#=SQH.GATE);

   1153  0 000032   200014 630500                    EPPR0   SQH$,,AUTO
PL6.E3A0      #002=NIT$DEVSCHED File=NIT$TAPE.:E05TSI                            WED 07/30/97 03:39 Page:188
         0 000033   000017 631400 xsym               EPPR1   B_VECTNIL+15
         0 000034   000000 701000 xent               TSX1    HFC$LOCK
         0 000035   000000 011000                    NOP     0

      953     1155                %ENQUEUE (P#=REQ,Q#=DCT.SQ$);

   1156  0 000036   200005 236100                    LDQ     DCT$,,AUTO
         0 000037   000001 036003                    ADLQ    1,DU
         0 000040   200013 235100                    LDA     REQ$,,AUTO
         0 000041   200020 757100                    STAQ    T$+1,,AUTO
         0 000042   200020 630500                    EPPR0   T$+1,,AUTO
         0 000043   000020 631400 xsym               EPPR1   B_VECTNIL+16
         0 000044   000000 701000 xent               TSX1    NIM$ENQUEUE
         0 000045   000000 011000                    NOP     0

      954     1158    1           GOTO SCHED;

   1158  0 000046   000061 710000 0                  TRA     SCHED

      955     1159        %EJECT;
PL6.E3A0      #002=NIT$DEVSCHED File=NIT$TAPE.:E05TSI                            WED 07/30/97 03:39 Page:189
      956     1160    1   NIT$DEVSCHEDL: ENTRY(PAR,NEWSTATE);

   1160  0 000047   000000 700200 xent  NIT$DEVSCHE* TSX0  ! X66_AUTO_2
         0 000050   000022 000002                    ZERO    18,2

      957     1161    1           DCT$=ADDR(PAR);

   1161  0 000051   200003 236100                    LDQ     @PAR,,AUTO
         0 000052   200005 756100                    STQ     DCT$,,AUTO

      958     1162    1           SQH$=DCT.SQH$;

   1162  0 000053   200005 470500                    LDP0    DCT$,,AUTO
         0 000054   000022 236100                    LDQ     18,,PR0
         0 000055   200014 756100                    STQ     SQH$,,AUTO

      959     1163    1           DCT.STATE=NEWSTATE;

   1163  0 000056   200004 471500                    LDP1    @NEWSTATE,,AUTO
         0 000057   100000 236100                    LDQ     0,,PR1
         0 000060   000007 752101                    STCQ    7,'01'O,PR0

      960     1164        /**/
      961     1165        /**/
      962     1166        /**/
      963     1167    1   SCHED:
      964     1168    2           IF DCT.STATE=%IDLE AND DCT.SQ$~=ADDR(NIL) THEN DO;

   1168  0 000061   200005 470500       SCHED        LDP0    DCT$,,AUTO
         0 000062   000007 236100                    LDQ     7,,PR0
         0 000063   000077 316007                    CANQ    63,DL
         0 000064   000114 601000 0                  TNZ     s:1175
         0 000065   000001 236100                    LDQ     1,,PR0
         0 000066   000001 116000 xsym               CMPQ    B_VECTNIL+1
         0 000067   000114 600000 0                  TZE     s:1175

      965     1169                   %ENQUEUE (P#=DCT,Q#=SQH.AQ$);
PL6.E3A0      #002=NIT$DEVSCHED File=NIT$TAPE.:E05TSI                            WED 07/30/97 03:39 Page:190

   1170  0 000070   200014 236100                    LDQ     SQH$,,AUTO
         0 000071   000003 036003                    ADLQ    3,DU
         0 000072   200005 235100                    LDA     DCT$,,AUTO
         0 000073   200020 757100                    STAQ    T$+1,,AUTO
         0 000074   200020 630500                    EPPR0   T$+1,,AUTO
         0 000075   000020 631400 xsym               EPPR1   B_VECTNIL+16
         0 000076   000000 701000 xent               TSX1    NIM$ENQUEUE
         0 000077   000000 011000                    NOP     0

      966     1172    2              DCT.STATE=%REQUESTED;

   1172  0 000100   200005 470500                    LDP0    DCT$,,AUTO
         0 000101   000001 236007                    LDQ     1,DL
         0 000102   000007 752101                    STCQ    7,'01'O,PR0

      967     1173    2              CALL PMN$COLLECT(DCT.PM,%PM_WAIT);

   1173  0 000103   000000 236000 1                  LDQ     0
         0 000104   200021 756100                    STQ     T$+2,,AUTO
         0 000105   200005 236100                    LDQ     DCT$,,AUTO
         0 000106   000010 036003                    ADLQ    8,DU
         0 000107   200020 756100                    STQ     T$+1,,AUTO
         0 000110   200020 630500                    EPPR0   T$+1,,AUTO
         0 000111   000020 631400 xsym               EPPR1   B_VECTNIL+16
         0 000112   000000 701000 xent               TSX1    PMN$COLLECT
         0 000113   000000 011000                    NOP     0

      968     1174    2              END;

      969     1175    1           GOTO SCANAQ;

   1175  0 000114   000125 710000 0                  TRA     SCANAQ

      970     1176        %EJECT;
PL6.E3A0      #002=NIT$DEVSCHED File=NIT$TAPE.:E05TSI                            WED 07/30/97 03:39 Page:191
      971     1177        /*D*    ENTRY:      NIT$SCANAQ
      972     1178
      973     1179                CALL:       CALL NIT$SCANAQ(SQH);
      974     1180
      975     1181                DESCRIPTION:      NIT$SCANAQ scans the subsystem assign queue
      976     1182                                  to find any requests that can be started.
      977     1183                                                                           */
      978     1184    1   NIT$SCANAQ: ENTRY(PAR);

   1184  0 000115   000000 700200 xent  NIT$SCANAQ   TSX0  ! X66_AUTO_2
         0 000116   000022 000002                    ZERO    18,2

      979     1185    1           SQH$=ADDR(PAR);

   1185  0 000117   200003 236100                    LDQ     @PAR,,AUTO
         0 000120   200014 756100                    STQ     SQH$,,AUTO

      980     1186                %LOCK (G#=SQH.GATE);

   1187  0 000121   200014 630500                    EPPR0   SQH$,,AUTO
         0 000122   000017 631400 xsym               EPPR1   B_VECTNIL+15
         0 000123   000000 701000 xent               TSX1    HFC$LOCK
         0 000124   000000 011000                    NOP     0

      981     1189    1   SCANAQ:
      982     1190    1           SVDCT$=ADDR(NIL);

   1190  0 000125   000001 236000 xsym  SCANAQ       LDQ     B_VECTNIL+1
         0 000126   200015 756100                    STQ     SVDCT$,,AUTO

      983     1191    1           SVDQH$=ADDR(NIL);

   1191  0 000127   200016 756100                    STQ     SVDQH$,,AUTO

      984     1192    2           DO WHILE(SQH.AQ$~=ADDR(NIL));

   1192  0 000130   000533 710000 0                  TRA     s:1308
PL6.E3A0      #002=NIT$DEVSCHED File=NIT$TAPE.:E05TSI                            WED 07/30/97 03:39 Page:192

      985     1193                   %DEQUEUE(P#=DCT$,Q#=SQH.AQ$);

   1197  0 000131   200014 236100                    LDQ     SQH$,,AUTO
         0 000132   000003 036003                    ADLQ    3,DU
         0 000133   200021 756100                    STQ     T$+2,,AUTO
         0 000134   200005 630500                    EPPR0   DCT$,,AUTO
         0 000135   200020 450500                    STP0    T$+1,,AUTO
         0 000136   200020 630500                    EPPR0   T$+1,,AUTO
         0 000137   000020 631400 xsym               EPPR1   B_VECTNIL+16
         0 000140   000000 701000 xent               TSX1    NIM$DEQUEUE
         0 000141   000000 011000                    NOP     0

      986     1200    2              DVT$=DCT.DVT$;

   1200  0 000142   200005 470500                    LDP0    DCT$,,AUTO
         0 000143   000024 236100                    LDQ     20,,PR0
         0 000144   200007 756100                    STQ     DVT$,,AUTO

      987     1201    2              IF DCT.TYPE=%DV_MPC THEN

   1201  0 000145   000007 236100                    LDQ     7,,PR0
         0 000146   007700 376007                    ANQ     4032,DL
         0 000147   000700 116007                    CMPQ    448,DL
         0 000150   000154 600000 0                  TZE     NOTDENS1

      988     1202    2                 GOTO NOTDENS1;
      989     1203    2              IF DCT.MT.SETDENS$=ADDR(NIL) THEN

   1203  0 000151   000042 236100                    LDQ     34,,PR0
         0 000152   000001 116000 xsym               CMPQ    B_VECTNIL+1
         0 000153   000160 601000 0                  TNZ     s:1207

      990     1204    2   NOTDENS1:
      991     1205    2                 REQ$=DCT.SQ$->REQ.FL$;

   1205  0 000154   000001 471500       NOTDENS1     LDP1    1,,PR0
PL6.E3A0      #002=NIT$DEVSCHED File=NIT$TAPE.:E05TSI                            WED 07/30/97 03:39 Page:193
         0 000155   100000 236100                    LDQ     0,,PR1
         0 000156   200013 756100                    STQ     REQ$,,AUTO
         0 000157   000161 710000 0                  TRA     s:1208

      992     1206    2              ELSE
      993     1207    2                 REQ$=DCT.MT.SETDENS$;     /* REQ.DQH$ will always be specified */

   1207  0 000160   200013 756100                    STQ     REQ$,,AUTO

      994     1208    3              IF REQ.DQH$=ADDR(NIL) THEN DO; /* ANY CHANNEL WILL DO */

   1208  0 000161   200013 471500                    LDP1    REQ$,,AUTO
         0 000162   100020 236100                    LDQ     16,,PR1
         0 000163   000001 116000 xsym               CMPQ    B_VECTNIL+1
         0 000164   000342 601000 0                  TNZ     s:1258

      995     1209    4   ANOTHER_CHAN: IF SQH.CQ$=ADDR(NIL) THEN DO;

   1209  0 000165   200014 470500       ANOTHER_CHAN LDP0    SQH$,,AUTO
         0 000166   000004 236100                    LDQ     4,,PR0
         0 000167   000001 116000 xsym               CMPQ    B_VECTNIL+1
         0 000170   000202 601000 0                  TNZ     s:1219

      996     1210                         %ENQUEUE (P#=DCT,Q#=SVDCT$);

   1211  0 000171   200015 631500                    EPPR1   SVDCT$,,AUTO
         0 000172   200021 451500                    STP1    T$+2,,AUTO
         0 000173   200005 236100                    LDQ     DCT$,,AUTO
         0 000174   200020 756100                    STQ     T$+1,,AUTO
         0 000175   200020 630500                    EPPR0   T$+1,,AUTO
         0 000176   000020 631400 xsym               EPPR1   B_VECTNIL+16
         0 000177   000000 701000 xent               TSX1    NIM$ENQUEUE
         0 000200   000000 011000                    NOP     0

      997     1213    4                    END;

   1213  0 000201   000533 710000 0                  TRA     s:1308
PL6.E3A0      #002=NIT$DEVSCHED File=NIT$TAPE.:E05TSI                            WED 07/30/97 03:39 Page:194

      998     1214    4                 ELSE DO;

      999     1215                         %DEQUEUE (P#=DQH$,Q#=SQH.CQ$);

   1219  0 000202   200014 236100                    LDQ     SQH$,,AUTO
         0 000203   000004 036003                    ADLQ    4,DU
         0 000204   200021 756100                    STQ     T$+2,,AUTO
         0 000205   200006 631500                    EPPR1   DQH$,,AUTO
         0 000206   200020 451500                    STP1    T$+1,,AUTO
         0 000207   200020 630500                    EPPR0   T$+1,,AUTO
         0 000210   000020 631400 xsym               EPPR1   B_VECTNIL+16
         0 000211   000000 701000 xent               TSX1    NIM$DEQUEUE
         0 000212   000000 011000                    NOP     0

     1000     1222    5                    IF DQH.SCHAN$->DQH.MREC THEN DO;

   1222  0 000213   200006 470500                    LDP0    DQH$,,AUTO
         0 000214   000012 471500                    LDP1    10,,PR0
         0 000215   100001 234100                    SZN     1,,PR1
         0 000216   000230 605000 0                  TPL     s:1228

     1001     1223                            %ENQUEUE (P#=DQH,Q#=SVDQH$);

   1224  0 000217   200016 633500                    EPPR3   SVDQH$,,AUTO
         0 000220   200021 453500                    STP3    T$+2,,AUTO
         0 000221   200006 236100                    LDQ     DQH$,,AUTO
         0 000222   200020 756100                    STQ     T$+1,,AUTO
         0 000223   200020 630500                    EPPR0   T$+1,,AUTO
         0 000224   000020 631400 xsym               EPPR1   B_VECTNIL+16
         0 000225   000000 701000 xent               TSX1    NIM$ENQUEUE
         0 000226   000000 011000                    NOP     0

     1002     1226    5                       GOTO ANOTHER_CHAN;

   1226  0 000227   000165 710000 0                  TRA     ANOTHER_CHAN

PL6.E3A0      #002=NIT$DEVSCHED File=NIT$TAPE.:E05TSI                            WED 07/30/97 03:39 Page:195
     1003     1227    5                       END;
     1004     1228    5                    IF DCT.MT.FREPOS$=ADDR(NIL) THEN DO;

   1228  0 000230   200005 473500                    LDP3    DCT$,,AUTO
         0 000231   300031 236100                    LDQ     25,,PR3
         0 000232   000001 116000 xsym               CMPQ    B_VECTNIL+1
         0 000233   000246 601000 0                  TNZ     s:1238

     1005     1229                            %DEQUEUE (P#=REQ$,Q#=DCT.SQ$);

   1233  0 000234   200005 236100                    LDQ     DCT$,,AUTO
         0 000235   000001 036003                    ADLQ    1,DU
         0 000236   200021 756100                    STQ     T$+2,,AUTO
         0 000237   200013 631500                    EPPR1   REQ$,,AUTO
         0 000240   200020 451500                    STP1    T$+1,,AUTO
         0 000241   200020 630500                    EPPR0   T$+1,,AUTO
         0 000242   000020 631400 xsym               EPPR1   B_VECTNIL+16
         0 000243   000000 701000 xent               TSX1    NIM$DEQUEUE
         0 000244   000000 011000                    NOP     0

     1006     1236    5                       END;

   1236  0 000245   000247 710000 0                  TRA     s:1240

     1007     1237    5                    ELSE DO;

     1008     1238    5                       REQ$=DCT.MT.FREPOS$;

   1238  0 000246   200013 756100                    STQ     REQ$,,AUTO

     1009     1239    5                       END;

     1010     1240    4                    DQH.MREC=REQ.IOFLG.MREC;

   1240  0 000247   200006 470500                    LDP0    DQH$,,AUTO
         0 000250   200013 471500                    LDP1    REQ$,,AUTO
         0 000251   100004 236100                    LDQ     4,,PR1
PL6.E3A0      #002=NIT$DEVSCHED File=NIT$TAPE.:E05TSI                            WED 07/30/97 03:39 Page:196
         0 000252   000027 736000                    QLS     23
         0 000253   000001 676100                    ERQ     1,,PR0
         0 000254   400000 376003                    ANQ     -131072,DU
         0 000255   000001 656100                    ERSQ    1,,PR0

     1011     1241    4                    DQH.IO$=REQ$;

   1241  0 000256   200013 236100                    LDQ     REQ$,,AUTO
         0 000257   200006 470500                    LDP0    DQH$,,AUTO
         0 000260   000014 756100                    STQ     12,,PR0

     1012     1242    4                    DCT.DQH$=DQH$;

   1242  0 000261   200006 236100                    LDQ     DQH$,,AUTO
         0 000262   200005 471500                    LDP1    DCT$,,AUTO
         0 000263   100023 756100                    STQ     19,,PR1

     1013     1243    4                    DCT.STATE=%BUSY;

   1243  0 000264   000005 236007                    LDQ     5,DL
         0 000265   100007 752101                    STCQ    7,'01'O,PR1

     1014     1244    4                    IF DCT.SQ$=ADDR(NIL) THEN

   1244  0 000266   100001 236100                    LDQ     1,,PR1
         0 000267   000001 116000 xsym               CMPQ    B_VECTNIL+1
         0 000270   000303 601000 0                  TNZ     s:1247

     1015     1245    4                       CALL PMN$COLLECT(DCT.PM,%PM_BUSY);

   1245  0 000271   000001 236000 1                  LDQ     1
         0 000272   200021 756100                    STQ     T$+2,,AUTO
         0 000273   200005 236100                    LDQ     DCT$,,AUTO
         0 000274   000010 036003                    ADLQ    8,DU
         0 000275   200020 756100                    STQ     T$+1,,AUTO
         0 000276   200020 630500                    EPPR0   T$+1,,AUTO
         0 000277   000020 631400 xsym               EPPR1   B_VECTNIL+16
PL6.E3A0      #002=NIT$DEVSCHED File=NIT$TAPE.:E05TSI                            WED 07/30/97 03:39 Page:197
         0 000300   000000 701000 xent               TSX1    PMN$COLLECT
         0 000301   000000 011000                    NOP     0
         0 000302   000314 710000 0                  TRA     s:1248

     1016     1246    4                    ELSE
     1017     1247    4                       CALL PMN$COLLECT(DCT.PM,%PM_QUED);

   1247  0 000303   000002 236000 1                  LDQ     2
         0 000304   200021 756100                    STQ     T$+2,,AUTO
         0 000305   200005 236100                    LDQ     DCT$,,AUTO
         0 000306   000010 036003                    ADLQ    8,DU
         0 000307   200020 756100                    STQ     T$+1,,AUTO
         0 000310   200020 630500                    EPPR0   T$+1,,AUTO
         0 000311   000020 631400 xsym               EPPR1   B_VECTNIL+16
         0 000312   000000 701000 xent               TSX1    PMN$COLLECT
         0 000313   000000 011000                    NOP     0

     1018     1248    5                    IF REQ.IOS$->NI$REQ.TAPEPOS = '0'B THEN DO;

   1248  0 000314   200013 470500                    LDP0    REQ$,,AUTO
         0 000315   000012 471500                    LDP1    10,,PR0
         0 000316   100014 235100                    LDA     12,,PR1
         0 000317   000326 601000 0                  TNZ     s:1252

     1019     1249    5                       REQ.IOS$->NI$REQ.TAPEPOS.CRECCNT = DCT.MT.POS.CRECCNT;

   1249  0 000320   200005 473500                    LDP3    DCT$,,AUTO
         0 000321   300035 720100                    LXL0    29,,PR3
         0 000322   100014 740100                    STX0    12,,PR1

     1020     1250    5                       REQ.IOS$->NI$REQ.TAPEPOS.FILECNT = DCT.MT.POS.FILECNT;

   1250  0 000323   000012 471500                    LDP1    10,,PR0
         0 000324   300037 720100                    LXL0    31,,PR3
         0 000325   100014 440100                    SXL0    12,,PR1

     1021     1251    5                       END;
PL6.E3A0      #002=NIT$DEVSCHED File=NIT$TAPE.:E05TSI                            WED 07/30/97 03:39 Page:198

     1022     1252    4                    IF REQ.FC = %N_REWIND THEN

   1252  0 000326   000003 236100                    LDQ     3,,PR0
         0 000327   000777 376007                    ANQ     511,DL
         0 000330   000006 116007                    CMPQ    6,DL
         0 000331   000335 601000 0                  TNZ     s:1254

     1023     1253    4                       DCT.MT.RWC = '0'B;

   1253  0 000332   200005 471500                    LDP1    DCT$,,AUTO
         0 000333   000031 236000 xsym               LDQ     B_VECTNIL+25
         0 000334   100030 356100                    ANSQ    24,,PR1

     1024     1254    4                    CALL NIS$DRIVER(DQH);

   1254  0 000335   200006 630500                    EPPR0   DQH$,,AUTO
         0 000336   000017 631400 xsym               EPPR1   B_VECTNIL+15
         0 000337   000000 701000 xent               TSX1    NIS$DRIVER
         0 000340   000000 011000                    NOP     0

     1025     1255    4                    END;

     1026     1256    3                 END;

   1256  0 000341   000533 710000 0                  TRA     s:1308

     1027     1257    3              ELSE DO;

     1028     1258    3                 DQH$=REQ.DQH$;

   1258  0 000342   200006 756100                    STQ     DQH$,,AUTO

     1029     1259    3                 IF DQH.STATE~=%IDLE OR

   1259  0 000343   200006 473500                    LDP3    DQH$,,AUTO
         0 000344   300001 236100                    LDQ     1,,PR3
PL6.E3A0      #002=NIT$DEVSCHED File=NIT$TAPE.:E05TSI                            WED 07/30/97 03:39 Page:199
         0 000345   000077 316007                    CANQ    63,DL
         0 000346   000356 601000 0                  TNZ     ENQUE_DEV
         0 000347   100004 236100                    LDQ     4,,PR1
         0 000350   001000 316007                    CANQ    512,DL
         0 000351   000367 600000 0                  TZE     s:1267
         0 000352   300015 474500                    LDP4    13,,PR3
         0 000353   400006 236100                    LDQ     6,,PR4
         0 000354   001000 316007                    CANQ    512,DL
         0 000355   000367 601000 0                  TNZ     s:1267

     1030     1260    4                   (REQ.IOFLG.STOPMPC AND NOT DQH.MPC$->DCT.DFLG.MPCSTOP) THEN DO;

     1031     1261    4   ENQUE_DEV:
     1032     1262                         %ENQUEUE (P#=DCT,Q#=SVDCT$);

   1263  0 000356   200015 630500       ENQUE_DEV    EPPR0   SVDCT$,,AUTO
         0 000357   200021 450500                    STP0    T$+2,,AUTO
         0 000360   200005 236100                    LDQ     DCT$,,AUTO
         0 000361   200020 756100                    STQ     T$+1,,AUTO
         0 000362   200020 630500                    EPPR0   T$+1,,AUTO
         0 000363   000020 631400 xsym               EPPR1   B_VECTNIL+16
         0 000364   000000 701000 xent               TSX1    NIM$ENQUEUE
         0 000365   000000 011000                    NOP     0

     1033     1265    4                    END;

   1265  0 000366   000533 710000 0                  TRA     s:1308

     1034     1266    4                 ELSE DO;

     1035     1267    5                    IF DQH.FL$~=ADDR(NIL) THEN DO;

   1267  0 000367   300000 236100                    LDQ     0,,PR3
         0 000370   000001 116000 xsym               CMPQ    B_VECTNIL+1
         0 000371   000426 600000 0                  TZE     s:1282

     1036     1268    5                       IF SQH.CQ$=ADDR(NIL) THEN GOTO ENQUE_DEV;
PL6.E3A0      #002=NIT$DEVSCHED File=NIT$TAPE.:E05TSI                            WED 07/30/97 03:39 Page:200

   1268  0 000372   200014 474500                    LDP4    SQH$,,AUTO
         0 000373   400004 236100                    LDQ     4,,PR4
         0 000374   000001 116000 xsym               CMPQ    B_VECTNIL+1
         0 000375   000356 600000 0                  TZE     ENQUE_DEV

     1037     1269    5                       T$=SQH.CQ$;

   1269  0 000376   200017 756100                    STQ     T$,,AUTO

     1038     1270    6                       DO WHILE(SQH.CQ$->DQH.FL$~=DQH$);

   1270  0 000377   400004 475500                    LDP5    4,,PR4
         0 000400   500000 236100                    LDQ     0,,PR5
         0 000401   200006 116100                    CMPQ    DQH$,,AUTO
         0 000402   000415 600000 0                  TZE     s:1278

     1039     1271    6                          SQH.CQ$=SQH.CQ$->DQH.FL$;

   1271  0 000403   200014 470500                    LDP0    SQH$,,AUTO
         0 000404   000004 471500                    LDP1    4,,PR0
         0 000405   100000 236100                    LDQ     0,,PR1
         0 000406   000004 756100                    STQ     4,,PR0

     1040     1272    6                          IF T$=SQH.CQ$ THEN GOTO ENQUE_DEV;

   1272  0 000407   200017 116100                    CMPQ    T$,,AUTO
         0 000410   000356 600000 0                  TZE     ENQUE_DEV

     1041     1273    6                          END;

   1273  0 000411   000004 471500                    LDP1    4,,PR0
         0 000412   100000 236100                    LDQ     0,,PR1
         0 000413   200006 116100                    CMPQ    DQH$,,AUTO
         0 000414   000403 601000 0                  TNZ     s:1271

     1042     1274                            %DEQUEUE(P#=DQH$,Q#=SQH.CQ$);
PL6.E3A0      #002=NIT$DEVSCHED File=NIT$TAPE.:E05TSI                            WED 07/30/97 03:39 Page:201

   1278  0 000415   200014 236100                    LDQ     SQH$,,AUTO
         0 000416   000004 036003                    ADLQ    4,DU
         0 000417   200021 756100                    STQ     T$+2,,AUTO
         0 000420   200006 630500                    EPPR0   DQH$,,AUTO
         0 000421   200020 450500                    STP0    T$+1,,AUTO
         0 000422   200020 630500                    EPPR0   T$+1,,AUTO
         0 000423   000020 631400 xsym               EPPR1   B_VECTNIL+16
         0 000424   000000 701000 xent               TSX1    NIM$DEQUEUE
         0 000425   000000 011000                    NOP     0

     1043     1281    5                       END;

     1044     1282    4                    IF DCT.TYPE=%DV_MPC THEN

   1282  0 000426   200005 470500                    LDP0    DCT$,,AUTO
         0 000427   000007 236100                    LDQ     7,,PR0
         0 000430   007700 376007                    ANQ     4032,DL
         0 000431   000700 116007                    CMPQ    448,DL
         0 000432   000436 600000 0                  TZE     NOTDENS2

     1045     1283    4                       GOTO NOTDENS2;
     1046     1284    4                    IF DCT.MT.SETDENS$=ADDR(NIL) THEN

   1284  0 000433   000042 236100                    LDQ     34,,PR0
         0 000434   000001 116000 xsym               CMPQ    B_VECTNIL+1
         0 000435   000447 601000 0                  TNZ     s:1293

     1047     1285    4   NOTDENS2:
     1048     1286                            %DEQUEUE (P#=REQ$,Q#=DCT.SQ$);

   1290  0 000436   200005 236100       NOTDENS2     LDQ     DCT$,,AUTO
         0 000437   000001 036003                    ADLQ    1,DU
         0 000440   200021 756100                    STQ     T$+2,,AUTO
         0 000441   200013 631500                    EPPR1   REQ$,,AUTO
         0 000442   200020 451500                    STP1    T$+1,,AUTO
         0 000443   200020 630500                    EPPR0   T$+1,,AUTO
PL6.E3A0      #002=NIT$DEVSCHED File=NIT$TAPE.:E05TSI                            WED 07/30/97 03:39 Page:202
         0 000444   000020 631400 xsym               EPPR1   B_VECTNIL+16
         0 000445   000000 701000 xent               TSX1    NIM$DEQUEUE
         0 000446   000000 011000                    NOP     0

     1049     1293    4                    DQH.MREC=REQ.IOFLG.MREC;

   1293  0 000447   200006 470500                    LDP0    DQH$,,AUTO
         0 000450   200013 471500                    LDP1    REQ$,,AUTO
         0 000451   100004 236100                    LDQ     4,,PR1
         0 000452   000027 736000                    QLS     23
         0 000453   000001 676100                    ERQ     1,,PR0
         0 000454   400000 376003                    ANQ     -131072,DU
         0 000455   000001 656100                    ERSQ    1,,PR0

     1050     1294    4                    DQH.IO$=REQ$;

   1294  0 000456   200013 236100                    LDQ     REQ$,,AUTO
         0 000457   200006 470500                    LDP0    DQH$,,AUTO
         0 000460   000014 756100                    STQ     12,,PR0

     1051     1295    4                    DCT.DQH$=DQH$;

   1295  0 000461   200006 236100                    LDQ     DQH$,,AUTO
         0 000462   200005 471500                    LDP1    DCT$,,AUTO
         0 000463   100023 756100                    STQ     19,,PR1

     1052     1296    4                    IF REQ.IOFLG.SUSP THEN DQH.MPC$->DCT.DFLG.MPCSUSPENDED='1'B;

   1296  0 000464   200013 473500                    LDP3    REQ$,,AUTO
         0 000465   300004 236100                    LDQ     4,,PR3
         0 000466   004000 316007                    CANQ    2048,DL
         0 000467   000473 600000 0                  TZE     s:1297

   1296  0 000470   000015 474500                    LDP4    13,,PR0
         0 000471   002000 236007                    LDQ     1024,DL
         0 000472   400006 256100                    ORSQ    6,,PR4

PL6.E3A0      #002=NIT$DEVSCHED File=NIT$TAPE.:E05TSI                            WED 07/30/97 03:39 Page:203
     1053     1297    4                    DCT.STATE=%BUSY;

   1297  0 000473   000005 236007                    LDQ     5,DL
         0 000474   100007 752101                    STCQ    7,'01'O,PR1

     1054     1298    4                    CALL PMN$COLLECT(DCT.PM,%PM_BUSY);

   1298  0 000475   000001 236000 1                  LDQ     1
         0 000476   200021 756100                    STQ     T$+2,,AUTO
         0 000477   200005 236100                    LDQ     DCT$,,AUTO
         0 000500   000010 036003                    ADLQ    8,DU
         0 000501   200020 756100                    STQ     T$+1,,AUTO
         0 000502   200020 630500                    EPPR0   T$+1,,AUTO
         0 000503   000020 631400 xsym               EPPR1   B_VECTNIL+16
         0 000504   000000 701000 xent               TSX1    PMN$COLLECT
         0 000505   000000 011000                    NOP     0

     1055     1299    5                    IF REQ.IOS$->NI$REQ.TAPEPOS = '0'B THEN DO;

   1299  0 000506   200013 470500                    LDP0    REQ$,,AUTO
         0 000507   000012 471500                    LDP1    10,,PR0
         0 000510   100014 235100                    LDA     12,,PR1
         0 000511   000520 601000 0                  TNZ     s:1303

     1056     1300    5                       REQ.IOS$->NI$REQ.TAPEPOS.CRECCNT = DCT.MT.POS.CRECCNT;

   1300  0 000512   200005 473500                    LDP3    DCT$,,AUTO
         0 000513   300035 720100                    LXL0    29,,PR3
         0 000514   100014 740100                    STX0    12,,PR1

     1057     1301    5                       REQ.IOS$->NI$REQ.TAPEPOS.FILECNT = DCT.MT.POS.FILECNT;

   1301  0 000515   000012 471500                    LDP1    10,,PR0
         0 000516   300037 720100                    LXL0    31,,PR3
         0 000517   100014 440100                    SXL0    12,,PR1

     1058     1302    5                       END;
PL6.E3A0      #002=NIT$DEVSCHED File=NIT$TAPE.:E05TSI                            WED 07/30/97 03:39 Page:204

     1059     1303    4                    IF REQ.FC = %N_REWIND THEN

   1303  0 000520   000003 236100                    LDQ     3,,PR0
         0 000521   000777 376007                    ANQ     511,DL
         0 000522   000006 116007                    CMPQ    6,DL
         0 000523   000527 601000 0                  TNZ     s:1305

     1060     1304    4                       DCT.MT.RWC = '0'B;

   1304  0 000524   200005 471500                    LDP1    DCT$,,AUTO
         0 000525   000031 236000 xsym               LDQ     B_VECTNIL+25
         0 000526   100030 356100                    ANSQ    24,,PR1

     1061     1305    4                    CALL NIS$DRIVER(DQH);

   1305  0 000527   200006 630500                    EPPR0   DQH$,,AUTO
         0 000530   000017 631400 xsym               EPPR1   B_VECTNIL+15
         0 000531   000000 701000 xent               TSX1    NIS$DRIVER
         0 000532   000000 011000                    NOP     0

     1062     1306    4                    END;

     1063     1307    3                 END;

     1064     1308    2              END;

   1308  0 000533   200014 470500                    LDP0    SQH$,,AUTO
         0 000534   000003 236100                    LDQ     3,,PR0
         0 000535   000001 116000 xsym               CMPQ    B_VECTNIL+1
         0 000536   000131 601000 0                  TNZ     s:1197

     1065     1309    1           SQH.AQ$=SVDCT$;

   1309  0 000537   200015 236100                    LDQ     SVDCT$,,AUTO
         0 000540   000003 756100                    STQ     3,,PR0

PL6.E3A0      #002=NIT$DEVSCHED File=NIT$TAPE.:E05TSI                            WED 07/30/97 03:39 Page:205
     1066     1310    2           IF SVDQH$~=ADDR(NIL) THEN DO;

   1310  0 000541   200016 236100                    LDQ     SVDQH$,,AUTO
         0 000542   000001 116000 xsym               CMPQ    B_VECTNIL+1
         0 000543   000565 600000 0                  TZE     s:1320

     1067     1311    2              IF SQH.CQ$=ADDR(NIL) THEN SQH.CQ$=SVDQH$;

   1311  0 000544   000004 236100                    LDQ     4,,PR0
         0 000545   000001 116000 xsym               CMPQ    B_VECTNIL+1
         0 000546   000552 601000 0                  TNZ     s:1313

   1311  0 000547   200016 236100                    LDQ     SVDQH$,,AUTO
         0 000550   000004 756100                    STQ     4,,PR0
         0 000551   000565 710000 0                  TRA     s:1320

     1068     1312    3              ELSE DO;

     1069     1313    3                 DQH$=SVDQH$->DQH.FL$;

   1313  0 000552   200016 471500                    LDP1    SVDQH$,,AUTO
         0 000553   100000 236100                    LDQ     0,,PR1
         0 000554   200006 756100                    STQ     DQH$,,AUTO

     1070     1314    3                 SVDQH$->DQH.FL$=SQH.CQ$->DQH.FL$;

   1314  0 000555   000004 473500                    LDP3    4,,PR0
         0 000556   300000 236100                    LDQ     0,,PR3
         0 000557   100000 756100                    STQ     0,,PR1

     1071     1315    3                 SQH.CQ$->DQH.FL$=DQH$;

   1315  0 000560   000004 471500                    LDP1    4,,PR0
         0 000561   200006 236100                    LDQ     DQH$,,AUTO
         0 000562   100000 756100                    STQ     0,,PR1

     1072     1316    3                 SQH.CQ$=SVDQH$;
PL6.E3A0      #002=NIT$DEVSCHED File=NIT$TAPE.:E05TSI                            WED 07/30/97 03:39 Page:206

   1316  0 000563   200016 236100                    LDQ     SVDQH$,,AUTO
         0 000564   000004 756100                    STQ     4,,PR0

     1073     1317    3                 END;

     1074     1318    2              END;

     1075     1319                %UNLOCK (G#=SQH.GATE);

   1320  0 000565   200014 630500                    EPPR0   SQH$,,AUTO
         0 000566   000017 631400 xsym               EPPR1   B_VECTNIL+15
         0 000567   000000 701000 xent               TSX1    HFC$UNLOCK
         0 000570   000000 011000                    NOP     0

     1076     1322    1           RETURN;

   1322  0 000571   000000 702200 xent               TSX2  ! X66_ARET

(unnamed)
 Sect OctLoc
   1     000   000003 006000   000004 006000   000005 006000                    ............
     1077     1323    1   END NIT$DEVSCHED;

PL6.E3A0      #002=NIT$DEVSCHED File=NIT$TAPE.:E05TSI                            WED 07/30/97 03:39 Page:207
--  Include file information  --

   PM$NI.:E05TOU  is referenced.
   N_FC_C.:E05TOU  is referenced.
   NI_MACROS_C.:E05TOU  cannot be made into a system file and is referenced.
   NI$TABLES.:E05TOU  is referenced.
   N$REQ.:E05TOU  is referenced.
   NI_DATA_R.:E05TOU  cannot be made into a system file and is referenced.
   NI_DATA_C.:E05TOU  is referenced.
   HF_LOCK_C.:E05TOU  cannot be made into a system file and is referenced.
      No diagnostics issued in procedure NIT$DEVSCHED.
PL6.E3A0      #002=NIT$DEVSCHED File=NIT$TAPE.:E05TSI                            WED 07/30/97 03:39 Page:208

 **** Variables and constants ****

  ****  Auto variables  ****

  ****  Scalars and arrays  ****
OctLoc.c.b A Datatyp(siz) R M Lvl/name                 OctLoc.c.b A Datatyp(siz) R M Lvl/name

     4-0-0/w PTR         r     1 @NEWSTATE                  3-0-0/w PTR         r     1 @PAR
     5-0-0/w PTR         r     1 DCT$                       6-0-0/w PTR         r     1 DQH$
     7-0-0/w PTR         r     1 DVT$                      *0-0-0/w SBIN        r     1 NEWSTATE
    *0-0-0/w UBIN        r     1 PAR                       13-0-0/w PTR         r     1 REQ$
    14-0-0/w PTR         r     1 SQH$                      15-0-0/w PTR         r     1 SVDCT$
    16-0-0/w PTR         r     1 SVDQH$                    17-0-0/w PTR         r     1 T$

  ****  SYMREF variables  ****

  ****  Scalars and arrays  ****
OctLoc.c.b A Datatyp(siz) R M Lvl/name                 OctLoc.c.b A Datatyp(siz) R M Lvl/name

     0-0-0/w PTR         r     1 N$DCT$$                    0-0-0/w PTR         r     1 N$FQ$
     0-0-0/w PTR         r     1 NI$FQ$                     0-0-0/w PTR         r     1 NI$IBUF$
     0-0-0/w PTR         r     1 NI$RP$

  ****  BASED and DCB variables  ****

  ****  Scalars and arrays  ****
OctLoc.c.b A Datatyp(siz) R M Lvl/name                 OctLoc.c.b A Datatyp(siz) R M Lvl/name

     0-0-0/w STRC(1332)  r     1 DCT                        0-0-0/w STRC(648)   r     1 DQH
     0-0-0/d STRC(504)   r     1 NI$REQ                     0-0-0/d STRC(1080)  r     1 REQ
     0-0-0/w STRC(252)   r     1 SQH


   Procedure NIT$DEVSCHED requires 378 words for executable code.
   Procedure NIT$DEVSCHED requires 18 words of local(AUTO) storage.
PL6.E3A0      #002=NIT$DEVSCHED File=NIT$TAPE.:E05TSI                            WED 07/30/97 03:39 Page:209

    No errors detected in file NIT$TAPE.:E05TSI    .
PL6.E3A0      #002=NIT$DEVSCHED File=NIT$TAPE.:E05TSI                            WED 07/30/97 03:39 Page:210
          *** CROSS REFERENCE LISTING ***
**     DENOTES     IDENTIFIER DEFINITION
<<                 IDENTIFIER'S VALUE SET
>>                 IDENTIFIER'S VALUE USED
<>                 IDENTIFIER SET AND/OR USED
--                 IDENTIFIER REFERENCED
PL6.E3A0      #002=NIT$DEVSCHED File=NIT$TAPE.:E05TSI                            WED 07/30/97 03:39 Page:211
          MINI XREF LISTING

ANOTHER_CHAN
      1209**LABEL    1226--GOTO
DCT
       961**DCL      1170<>CALL     1211<>CALL     1263<>CALL
DCT.DFLG.MPCSTOP
       966**DCL      1259>>IF
DCT.DFLG.MPCSUSPENDED
       966**DCL      1296<<ASSIGN
DCT.DP
       981**DCL       988--REDEF     991--REDEF     992--REDEF     994--REDEF     994--REDEF     995--REDEF
       996--REDEF     996--REDEF
DCT.DQH$
       977**DCL      1242<<ASSIGN   1295<<ASSIGN
DCT.DVT$
       977**DCL      1200>>ASSIGN
DCT.MPC.IOCHANX
       989**DCL       989--REDEF
DCT.MT.FREPOS$
       992**DCL      1228>>IF       1238>>ASSIGN
DCT.MT.POS.CRECCNT
       993**DCL      1249>>ASSIGN   1300>>ASSIGN
DCT.MT.POS.FILECNT
       993**DCL      1250>>ASSIGN   1301>>ASSIGN
DCT.MT.RWC
       992**DCL      1253<<ASSIGN   1304<<ASSIGN
DCT.MT.SETDENS$
       993**DCL      1203>>IF       1207>>ASSIGN   1284>>IF
DCT.PM
       972**DCL      1173<>CALL     1245<>CALL     1247<>CALL     1298<>CALL
DCT.SQ$
       961**DCL      1156<>CALL     1168>>IF       1205>>ASSIGN   1233<>CALL     1244>>IF       1290<>CALL
DCT.SQH$
PL6.E3A0      #002=NIT$DEVSCHED File=NIT$TAPE.:E05TSI                            WED 07/30/97 03:39 Page:212
       976**DCL      1128>>ASSIGN   1151>>ASSIGN   1162>>ASSIGN
DCT.STATE
       971**DCL      1132<<ASSIGN   1163<<ASSIGN   1168>>IF       1172<<ASSIGN   1243<<ASSIGN   1297<<ASSIGN
DCT.TYPE
       971**DCL      1201>>IF       1282>>IF
DCT$
       938**DCL       961--IMP-PTR  1127<<ASSIGN   1128>>ASSIGN   1132>>ASSIGN   1150<<ASSIGN   1151>>ASSIGN
      1156>>CALL     1161<<ASSIGN   1162>>ASSIGN   1163>>ASSIGN   1168>>IF       1168>>IF       1170>>CALL
      1172>>ASSIGN   1173>>CALL     1197<>CALL     1200>>ASSIGN   1201>>IF       1203>>IF       1205>>ASSIGN
      1207>>ASSIGN   1211>>CALL     1228>>IF       1233>>CALL     1238>>ASSIGN   1242>>ASSIGN   1243>>ASSIGN
      1244>>IF       1245>>CALL     1247>>CALL     1249>>ASSIGN   1250>>ASSIGN   1253>>ASSIGN   1263>>CALL
      1282>>IF       1284>>IF       1290>>CALL     1295>>ASSIGN   1297>>ASSIGN   1298>>CALL     1300>>ASSIGN
      1301>>ASSIGN   1304>>ASSIGN
DQH
      1009**DCL      1224<>CALL     1254<>CALL     1305<>CALL
DQH.FL$
      1009**DCL      1267>>IF       1270>>DOWHILE  1271>>ASSIGN   1313>>ASSIGN   1314<<ASSIGN   1314>>ASSIGN
      1315<<ASSIGN
DQH.IO$
      1016**DCL      1241<<ASSIGN   1294<<ASSIGN
DQH.IOCHANX
      1011**DCL      1012--REDEF
DQH.MBX$
      1020**DCL      1021--REDEF
DQH.MPC$
      1016**DCL      1259>>IF       1296>>ASSIGN
DQH.MREC
      1009**DCL      1222>>IF       1240<<ASSIGN   1293<<ASSIGN
DQH.SCHAN$
      1015**DCL      1222>>IF
DQH.STATE
      1013**DCL      1259>>IF
DQH$
       939**DCL      1009--IMP-PTR  1219<>CALL     1222>>IF       1224>>CALL     1240>>ASSIGN   1241>>ASSIGN
      1242>>ASSIGN   1254>>CALL     1258<<ASSIGN   1259>>IF       1259>>IF       1267>>IF       1270>>DOWHILE
      1278<>CALL     1293>>ASSIGN   1294>>ASSIGN   1295>>ASSIGN   1296>>ASSIGN   1305>>CALL     1313<<ASSIGN
PL6.E3A0      #002=NIT$DEVSCHED File=NIT$TAPE.:E05TSI                            WED 07/30/97 03:39 Page:213
      1315>>ASSIGN
DVT.MPC
      1026**DCL      1027--REDEF
DVT$
       940**DCL      1024--IMP-PTR  1200<<ASSIGN
ENQUE_DEV
      1263**LABEL    1268--GOTO     1272--GOTO
HFC$LOCK
        44**DCL-ENT  1130--CALL     1153--CALL     1187--CALL
HFC$UNLOCK
        44**DCL-ENT  1320--CALL
N$DCT$$
       456**DCL       590--IMP-PTR
N$FQ$
       456**DCL       591--IMP-PTR
N$REQ_INIT.BUFADDR
       475**DCL       476--REDEF     476--REDEF
N$REQ_INIT.DLA.DRELADDR
       467**DCL       467--REDEF
N$REQ_INIT.DVE.EOMCHAR
       504**DCL       505--REDEF
N$REQ_INIT.EAINFO
       498**DCL       498--REDEF
N$REQ_INIT.EAINFOX
       498**DCL       499--REDEF
N$REQ_INIT.EVNTINFO
       499**DCL       499--REDEF
N$REQ_INIT.STATUS
       480**DCL       486--REDEF
NEWSTATE
       926**DCL        27--PROC     1132>>ASSIGN   1160--ENTRY    1163>>ASSIGN
NI$FQ$
       516**DCL       592--IMP-PTR
NI$IBUF$
       516**DCL       592--IMP-PTR
NI$IMXMBX_INIT.PAGED_BASE
PL6.E3A0      #002=NIT$DEVSCHED File=NIT$TAPE.:E05TSI                            WED 07/30/97 03:39 Page:214
       526**DCL       527--REDEF     527--REDEF
NI$IMXMBX_INIT.SIZE
       528**DCL       528--REDEF
NI$REQ.DCW
      1041**DCL      1044--REDEF
NI$REQ.DCW.TALLY
      1042**DCL      1042--REDEF
NI$REQ.IDCW.EXTA
      1044**DCL      1044--REDEF
NI$REQ.PCW
      1046**DCL      1050--REDEF
NI$REQ.SEEK
      1051**DCL      1052--REDEF    1053--REDEF
NI$REQ.TAPEPOS
      1053**DCL      1248>>IF       1299>>IF
NI$REQ.TAPEPOS.CRECCNT
      1053**DCL      1249<<ASSIGN   1300<<ASSIGN
NI$REQ.TAPEPOS.FILECNT
      1053**DCL      1250<<ASSIGN   1301<<ASSIGN
NI$REQ_INIT.DCW
       550**DCL       553--REDEF
NI$REQ_INIT.DCW.TALLY
       551**DCL       551--REDEF
NI$REQ_INIT.IDCW.EXTA
       553**DCL       553--REDEF
NI$REQ_INIT.PCW
       555**DCL       559--REDEF
NI$REQ_INIT.SEEK
       560**DCL       561--REDEF     562--REDEF
NI$RP$
       564**DCL       594--IMP-PTR
NIM$DEQUEUE
       619**DCL-ENT  1197--CALL     1219--CALL     1233--CALL     1278--CALL     1290--CALL
NIM$ENQUEUE
       620**DCL-ENT  1156--CALL     1170--CALL     1211--CALL     1224--CALL     1263--CALL
NIS$DRIVER
PL6.E3A0      #002=NIT$DEVSCHED File=NIT$TAPE.:E05TSI                            WED 07/30/97 03:39 Page:215
       931**DCL-ENT  1254--CALL     1305--CALL
NI_MBX_INIT.DCW.CONTROL.AE
       586**DCL       586--REDEF
NI_MBX_INIT.LPW.CONTROL.AE
       582**DCL       582--REDEF
NOTDENS1
      1205**LABEL    1202--GOTO
NOTDENS2
      1290**LABEL    1283--GOTO
PAR
       927**DCL        27--PROC     1127--ASSIGN   1148--ENTRY    1149--ASSIGN   1160--ENTRY    1161--ASSIGN
      1184--ENTRY    1185--ASSIGN
PMN$COLLECT
       934**DCL-ENT  1173--CALL     1245--CALL     1247--CALL     1298--CALL
REQ
      1064**DCL      1156<>CALL
REQ.BUFADDR
      1073**DCL      1074--REDEF    1074--REDEF
REQ.DCT$
      1065**DCL      1150>>ASSIGN
REQ.DLA.DRELADDR
      1065**DCL      1065--REDEF
REQ.DQH$
      1086**DCL      1208>>IF       1258>>ASSIGN
REQ.DVE.EOMCHAR
      1102**DCL      1103--REDEF
REQ.EAINFO
      1096**DCL      1096--REDEF
REQ.EAINFOX
      1096**DCL      1097--REDEF
REQ.EVNTINFO
      1097**DCL      1097--REDEF
REQ.FC
      1067**DCL      1252>>IF       1303>>IF
REQ.FL$
      1064**DCL      1205>>ASSIGN
PL6.E3A0      #002=NIT$DEVSCHED File=NIT$TAPE.:E05TSI                            WED 07/30/97 03:39 Page:216
REQ.IOFLG.MREC
      1069**DCL      1240>>ASSIGN   1293>>ASSIGN
REQ.IOFLG.STOPMPC
      1070**DCL      1259>>IF
REQ.IOFLG.SUSP
      1069**DCL      1296>>IF
REQ.IOS$
      1077**DCL      1248>>IF       1249>>ASSIGN   1250>>ASSIGN   1299>>IF       1300>>ASSIGN   1301>>ASSIGN
REQ.STATUS
      1078**DCL      1084--REDEF
REQ$
       944**DCL      1064--IMP-PTR  1149<<ASSIGN   1150>>ASSIGN   1156>>CALL     1205<<ASSIGN   1207<<ASSIGN
      1208>>IF       1233<>CALL     1238<<ASSIGN   1240>>ASSIGN   1241>>ASSIGN   1248>>IF       1249>>ASSIGN
      1250>>ASSIGN   1252>>IF       1258>>ASSIGN   1259>>IF       1290<>CALL     1293>>ASSIGN   1294>>ASSIGN
      1296>>IF       1299>>IF       1300>>ASSIGN   1301>>ASSIGN   1303>>IF
SCANAQ
      1190**LABEL    1175--GOTO
SCHED
      1168**LABEL    1133--GOTO     1158--GOTO
SQH.AQ$
      1123**DCL      1170<>CALL     1192>>DOWHILE  1197<>CALL     1309<<ASSIGN
SQH.CQ$
      1123**DCL      1209>>IF       1219<>CALL     1268>>IF       1269>>ASSIGN   1270>>DOWHILE  1271<<ASSIGN
      1271>>ASSIGN   1272>>IF       1278<>CALL     1311>>IF       1311<<ASSIGN   1314>>ASSIGN   1315>>ASSIGN
      1316<<ASSIGN
SQH.DOOR
      1122**DCL      1122--REDEF
SQH.GATE
      1122**DCL      1130<>CALL     1153<>CALL     1187<>CALL     1320<>CALL
SQH$
       945**DCL      1122--IMP-PTR  1128<<ASSIGN   1130>>CALL     1151<<ASSIGN   1153>>CALL     1162<<ASSIGN
      1170>>CALL     1185<<ASSIGN   1187>>CALL     1192>>DOWHILE  1197>>CALL     1209>>IF       1219>>CALL
      1268>>IF       1269>>ASSIGN   1270>>DOWHILE  1271>>ASSIGN   1271>>ASSIGN   1272>>IF       1278>>CALL
      1309>>ASSIGN   1311>>IF       1311>>ASSIGN   1314>>ASSIGN   1315>>ASSIGN   1316>>ASSIGN   1320>>CALL
SVDCT$
       946**DCL      1190<<ASSIGN   1211<>CALL     1263<>CALL     1309>>ASSIGN
PL6.E3A0      #002=NIT$DEVSCHED File=NIT$TAPE.:E05TSI                            WED 07/30/97 03:39 Page:217
SVDQH$
       947**DCL      1191<<ASSIGN   1224<>CALL     1310>>IF       1311>>ASSIGN   1313>>ASSIGN   1314>>ASSIGN
      1316>>ASSIGN
T$
       948**DCL      1269<<ASSIGN   1272>>IF
