PL6.E3A0      #004=NIW$LDFWEA File=NIW$MPC.:E05TSI                               WED 07/30/97 03:43 Page:171
      817        1        /*T***********************************************************/
      818        2        /*T*                                                         */
      819        3        /*T* Copyright (c) Bull HN Information Systems Inc., 1997    */
      820        4        /*T*                                                         */
      821        5        /*T***********************************************************/
      822        6        /*
      823        7           MPC FIRMWARE LOADER END-ACTION ROUTINE
      824        8        */
      825        9        NIW$LDFWEA: PROC (REQ);
      826       10        /*
      827       11                Includes
      828       12        */
      829       13        %INCLUDE                B$MAP ;
      830      112        %INCLUDE                B_MLSMAC_C ;
      831     1054        %INCLUDE                B_SEGIDS_C ;
      832     1593        %INCLUDE                B_STRINGS_C ;
      833     1722        %INCLUDE                CP_6_SUBS ;
      834     2262        %INCLUDE                EL_SUBS_C ;
      835     2346        %INCLUDE                FM$GRAN ;
      836     2415        %INCLUDE                HF_DATA_R ;
      837     2458        %INCLUDE                HF_LOCK_C ;
      838     2472        %INCLUDE                I$DISK ;
      839     2724        %INCLUDE                M_INFO_C ;
      840     2864        %INCLUDE                NI_DATA_C ;
      841     2977        %INCLUDE                NI_DATA_R ;
      842     3414        %INCLUDE                NI_MACROS_C ;
      843     3681        %INCLUDE                OC_SUBS_C ;
      844     4412        /*
      845     4413                Parameters
      846     4414        */
      847     4415        %N$REQ                  ( NAME=REQ, STCLASS=PARAM ) ;
      848     4473        /*
      849     4474                Entries
      850     4475        */
      851     4476    1   DCL 1 MMB$FPP           ENTRY(1) ALTRET ;
      852     4477    1   DCL 1 MME$CVM           ENTRY(4) ALTRET ;
      853     4478    1   DCL 1 NIA$FWLOAD        ENTRY(2) ;
PL6.E3A0      #004=NIW$LDFWEA File=NIW$MPC.:E05TSI                               WED 07/30/97 03:43 Page:172
      854     4479    1   DCL 1 NID$RESCHED       ENTRY(1) ALTRET ;
      855     4480    1   DCL 1 NIQ$GETS          ENTRY(1) ALTRET ;
      856     4481    1   DCL 1 NIT$DEVSCHED      ENTRY(1) ;
      857     4482    1   DCL 1 NIU$RESCHED       ENTRY(1) ;
      858     4483    1   DCL 1 NIU$SCHED         ENTRY(1) ;
      859     4484    1   DCL 1 NIW$LDFWS         ENTRY(2) ALTRET ;
      860     4485    1   DCL 1 NIW$MPCSTART      ENTRY(1) ;
      861     4486    1   DCL 1 OCI$MK_STTM       ENTRY(1) ;
      862     4487    1   DCL 1 OCI$MK_WR         ENTRY(7) ;
      863     4488    1   DCL 1 OCI$MK_WRTM       ENTRY(8) ;
      864     4489        /*
      865     4490                Symrefs
      866     4491        */
      867     4492    1   DCL 1 B$FIRM$           PTR SYMREF ;
      868     4493    1   DCL 1 B$LS$             PTR SYMREF ;
      869     4494    1   DCL 1 B$MPT$            PTR SYMREF ;
      870     4495        /*
      871     4496                Auto
      872     4497        */
      873     4498    1   DCL 1 DCT$              PTR ALIGNED AUTO ;
      874     4499    1   DCL 1 DQH$              PTR ALIGNED AUTO ;
      875     4500    1   DCL 1 DVT$              PTR ALIGNED AUTO ;
      876     4501    1   DCL 1 ERRWD             SBIN ALIGNED AUTO ;
      877     4502    1   DCL 1 FW$               PTR ALIGNED AUTO ;
      878     4503    1   DCL 1 I                 SBIN ALIGNED AUTO ;
      879     4504    1   DCL 1 IREQ$             PTR ALIGNED AUTO ;
      880     4505    1   DCL 1 I_FWNAME          SBIN ALIGNED AUTO ;
      881     4506    1   DCL 1 KEYINRTN          EPTR ALIGNED AUTO ;
      882     4507    1   DCL 1 OCI$MSG           EPTR  ALIGNED AUTO ;
      883     4508    1   DCL 1 OCPARAM           UBIN BYTE CALIGNED AUTO ;
      884     4509    1   DCL 1 PPNO              SBIN ALIGNED AUTO ;
      885     4510    1   DCL 1 SQH$              PTR ALIGNED AUTO ;
      886     4511    1   DCL 1 VPNO              SBIN ALIGNED AUTO ;
      887     4512    1   DCL 1 WAITTIME          SBIN ALIGNED AUTO ;
      888     4513        /*
      889     4514                Based
      890     4515        */
PL6.E3A0      #004=NIW$LDFWEA File=NIW$MPC.:E05TSI                               WED 07/30/97 03:43 Page:173
      891     4516        %B_MLS                  ( FPTN=B$MLNK, STCLASS=BASED ) ;
      892     5331        %NI$DCT                 ( NAME=DCT, STCLASS="BASED(DCT$)" ) ;
      893     5379        %NI$DQH                 ( NAME=DQH, STCLASS="BASED(DQH$)" ) ;
      894     5402        %NI$DVT                 ( NAME=DVT, STCLASS="BASED(DVT$)" ) ;
      895     5409        %FM$VID;
      896     5415        %NI$FW                  ( NAME=FW, STCLASS="BASED(FW$)" ) ;
      897     5421        %NI$REQ                 ( NAME=IREQ, STCLASS="BASED(IREQ$)" ) ;
      898     5446    1   DCL 1 LDFW              BASED ALIGNED,  /* REQ.EAINFO AND REQ.EAINFOX */
      899     5447    1         2 STATE           UBIN(18) UNAL, /* STATE OF F/W LOADING:
      900     5448                                                    0 READING SYSVOL VID
      901     5449                                                    1 READING SYSDIR
      902     5450                                                    2 READING F/W
      903     5451                                                    3 READING LP F/W
      904     5452                                                    4 READING CRP F/W
      905     5453                                                    5 WRITING CSO
      906     5454                                                    6 WRITING MMO
      907     5455                                                    7 WRITING LP F/W
      908     5456                                                    8 WRITING CRP F/W
      909     5457                                                    9 ENTERING F/W (UR ONLY) */
      910     5458    1         2 SEGSIZE         UBIN(18) UNAL,  /* SIZE OF FIRM */
      911     5459    1         2 CALLIOQ         BIT(1),    /* CALL IOQ AFTER SETTING UP THE WRITE CSO */
      912     5460    1         2 * BIT(2),
      913     5461    1         2 DCTX            UBIN(15) UNAL,  /* MPC DCTX */
      914     5462    1         2 OLSIZE          UBIN(18) UNAL;  /* (REMAINING) SIZE OF F/W OVERLAY */
      915     5463        %NI$SQH                 ( NAME=SQH, STCLASS="BASED(SQH$)" ) ;
      916     5476        /*
      917     5477                Constants
      918     5478        */
      919     5479    1   DCL IDCW(0:3) BIT(36) CONSTANT ALIGNED INIT(
      920     5480    1              '110000700000'O,             /* MAIN MEMORY OVERLAY */
      921     5481    1              '360000704000'O*2,           /* LOAD DEVICE FIRMWARE */
      922     5482    1              '050000700200'O);            /* ENTER FIRMWARE */
      923     5483        /**/
      924     5484    1   DCL KEYIN# SBIN HALF UNAL CONSTANT INIT(1); /* RETRY */
      925     5485        /**/
      926     5486        %SUB I$DISKDIR=B$FIRM$->I$DISKDIR;
      927     5487        %SUB LDFW="ADDR(REQ.EAINFO)->LDFW";
PL6.E3A0      #004=NIW$LDFWEA File=NIW$MPC.:E05TSI                               WED 07/30/97 03:43 Page:174
      928     5488        /**/
      929     5489        %EQU FWPGS=16;
      930     5490        /**/
      931     5491        %EJECT;
PL6.E3A0      #004=NIW$LDFWEA File=NIW$MPC.:E05TSI                               WED 07/30/97 03:43 Page:175
      932     5492        /* START OF PROCEDURE
      933     5493        */
      934     5494    1           DCT$=N$DCT$(LDFW.DCTX);
      935     5495    1           FW$=DCT.MPC.FW$;
      936     5496    2           DO CASE(LDFW.STATE);
      937     5497    2            CASE(2,3,4);                   /* DONE READING F/W PAGE */
      938     5498    2              IF REQ.TYC~=%TYC_EGV THEN GOTO DONE;
      939     5499    3              IF FW.FWOL(LDFW.STATE)>0 THEN DO;
      940     5500    3                 REQ.BUF$=PINCRC(REQ.BUF$,REQ.BUFSIZE);
      941     5501    3                 REQ.OPFLG.BPF='1'B;
      942     5502    4                 DO CASE(LDFW.STATE);
      943     5503    4                  CASE(2);
      944     5504    4                    REQ.DLA.DRELADDR=FW.LPDA;
      945     5505    4                  CASE(3);
      946     5506    4                    REQ.DLA.DRELADDR=FW.CRPDA;
      947     5507    4                  CASE(4);
      948     5508    4                    GOTO WRITECSO;
      949     5509    4                  END;
      950     5510    3                 REQ.BUFSIZE=FW.FWOL(LDFW.STATE)*4;
      951     5511    3                 END;
      952     5512    3              ELSE DO;
      953     5513    3                 LDFW.STATE=4;
      954     5514    3   WRITECSO:
      955     5515    3                 CALL NIW$LDFWS(DCT,'0'B) ALTRET(WAIT);
      956     5516    3                 END;
      957     5517    2              GOTO CONT;
      958     5518    2            CASE(6);                       /* DONE WRITING MAIN MEMORY OVERLAY */
      959     5519    2              IF REQ.TYC~=%TYC_EGV THEN GOTO DONE;
      960     5520    2              IF DCT.MPC.TYPE~=%DV_LP THEN GOTO FWLOADED;
      961     5521    3              IF NOT DCT.MPC.LPCHANS THEN DO;
      962     5522    3                 FW.DCW.FWA(0)=FW.DCW.FWA(0)+FW.FWOL(2);
      963     5523    3                 LDFW.STATE=7;
      964     5524    3                 GOTO CHKCRPFW;
      965     5525    3                 END;
      966     5526    2              FW.FW(FW.FWOL(0)+FW.FWOL(1))=DCT.MPC.LPCHANS;
      967     5527    2            CASE(7);                       /* DONE WRITING LP F/W */
      968     5528    2   CHKCRPFW:
PL6.E3A0      #004=NIW$LDFWEA File=NIW$MPC.:E05TSI                               WED 07/30/97 03:43 Page:176
      969     5529    3              IF NOT DCT.MPC.CRPCHANS THEN DO;
      970     5530    3                 LDFW.STATE=8;
      971     5531    3                 END;
      972     5532    3              ELSE DO;
      973     5533    3                 FW.FW(FW.FWOL(0)+FW.FWOL(1)+FW.FWOL(2))=DCT.MPC.CRPCHANS;
      974     5534    3                 END;
      975     5535    2            CASE(9);                       /* DONE "ENTER F/W" */
      976     5536    2   FWLOADED:
      977     5537    2              DCT.DFLG.RELOAD='0'B;        /* FIRMWARE LOADED */
      978     5538        /*N* GET RID OF THESE STUPID DO LOOPS - SHOULD CHECK STATUS FOR POWER OFF */
      979     5539    2              IF HW_IMX AND DCT.MPC.FWNAME = 'MSP8' THEN
      980     5540    2                 WAITTIME = 300000;
      981     5541    2              ELSE IF DCT.MPC.FWNAME = 'MSP8' THEN
      982     5542    2                    WAITTIME = 100000;
      983     5543    2                 ELSE
      984     5544    2                    WAITTIME = 0;
      985     5545    3              DO I=1 TO WAITTIME;          /* WAIT A WHILE (~400 MS.) */
      986     5546    3                 END;
      987     5547    2              CALL NIW$MPCSTART(DCT);
      988     5548    2              IF DCT.MPC.ALTMPCX~=0 THEN
      989     5549    2                 CALL NIW$MPCSTART(N$DCT$(DCT.MPC.ALTMPCX)->DCT);
      990     5550    2   DONE:
      991     5551    2              IF DCT.MSG# ~= 0 THEN
      992     5552    2                 CALL OCI$MK_STTM ( DCT.MSG# ) ;
      993     5553    3              IF DCT.DFLG.RELOAD THEN DO ;
      994     5554    3                 OCPARAM = 1 ;
      995     5555    3                 OCI$MSG = ENTADDR ( OCI$MK_WRTM ) ;
      996     5556    3                 END ;
      997     5557    3              ELSE DO ;
      998     5558    3                 OCPARAM = 0 ;
      999     5559    3                 OCI$MSG = ENTADDR ( OCI$MK_WR ) ;
     1000     5560    3                 END ;
     1001     5561    2              CALL OCI$MSG ( M_DEVC, %FWL_MSG#, 1, '001'O, OCPARAM,
     1002     5562    2                BINBIT(DCT.DCTX,36), /* WSN */,
     1003     5563    2                DCT.MSG# ) ;
     1004     5564    2              CALL NIA$FWLOAD(DCT,EL_FWLOAD);
     1005     5565    2              DCT.DFLG.RELOAD='0'B;
PL6.E3A0      #004=NIW$LDFWEA File=NIW$MPC.:E05TSI                               WED 07/30/97 03:43 Page:177
     1006     5566    3              IF DCT.MPC.FW$=B$FIRM$ THEN DO;
     1007     5567    4                 DO VPNO=%FIRMWREPG TO %FIRMWREPG+%(%FWPGS-1);
     1008     5568    4                    PPNO=B$MPT$->B$MAP.RPN(VPNO);
     1009     5569    4                    CALL MME$CVM(%MONWSQ,VPNO,-1,ERRWD);
     1010     5570    4                    IF LDFW.SEGSIZE~=0 THEN CALL MMB$FPP(PPNO);
     1011     5571    4                    END;
     1012     5572                      %LOCK(G#=NI_FWGATE);
     1013     5575    3                 B$LS$->B$MLNK.FIRM.FLGS=B$LS$->B$MLNK.FIRM.FLGS&~%DSNULL;
     1014     5576                      %UNLOCK(G#=NI_FWGATE);
     1015     5579    3                 DCT.MPC.FW$=ADDR(NIL);
     1016     5580    3                 END/* IF LDFW.SEGSIZE */;
     1017     5581    2              DCT.DFLG.MPCSUSPENDED='0'B;
     1018     5582    2              DCT.DFLG.MPCBUSY='0'B;
     1019     5583    3              IF DCT.MPC.ALTMPCX~=0 THEN DO;
     1020     5584    3                 DCT$=N$DCT$(DCT.MPC.ALTMPCX);
     1021     5585    3                 DCT.DFLG.RELOAD='0'B;
     1022     5586    3                 DCT.DFLG.MPCSUSPENDED='0'B;
     1023     5587    3                 DCT.DFLG.MPCBUSY='0'B;
     1024     5588    3                 END;
     1025     5589    2              RETURN;
     1026     5590    2            END/* CASE LDFW.STATE */;
     1027     5591    1           IF REQ.TYC~=%TYC_EGV THEN GOTO DONE;
     1028     5592    1           IF HW_IMX OR DCT.MPC.FWNAME = 'MSP8' THEN
     1029     5593    1              WAITTIME = 100000;           /* (~400 MS.) */
     1030     5594    1           ELSE
     1031     5595    1              WAITTIME = 50000/4;          /* (~50 MS.) */
     1032     5596    2           DO I=1 TO WAITTIME;
     1033     5597    2              END;
     1034     5598    1           FW.IDCW=IDCW(LDFW.STATE-5);
     1035     5599    1           FW.DCW.FWA(0)=FW.DCW.FWA(0)+FW.FWOL(LDFW.STATE-5);
     1036     5600    1           I=0;
     1037     5601    2           DO WHILE(FW.FWOL(LDFW.STATE-4)-I>%DCWTALLYMAX);
     1038     5602    2              FW.DCW.FWA(I/%DCWTALLYMAX)=FW.DCW.FWA(0)+I;
     1039     5603    2              FW.DCW.TALLY(I/%DCWTALLYMAX)=0;
     1040     5604    2              FW.DCW.TYPE(I/%DCWTALLYMAX)=%DCW_IOTP;
     1041     5605    2              I=I+%DCWTALLYMAX;
     1042     5606    2              END;
PL6.E3A0      #004=NIW$LDFWEA File=NIW$MPC.:E05TSI                               WED 07/30/97 03:43 Page:178
     1043     5607    2           IF FW.FWOL(LDFW.STATE-4)-I>0 THEN DO;
     1044     5608    2              FW.DCW.FWA(I/%DCWTALLYMAX)=FW.DCW.FWA(0)+I;
     1045     5609    2              FW.DCW.TALLY(I/%DCWTALLYMAX)=FW.FWOL(LDFW.STATE-4)-I;
     1046     5610    2              FW.DCW.TYPE(I/%DCWTALLYMAX)=%DCW_IOTD;
     1047     5611    2              END;
     1048     5612    1   CONT:
     1049     5613    1           REQ.OPFLG.REQ='1'B;
     1050     5614    1   WAIT:
     1051     5615    1           REQ.TYC.EGV='0'B;
     1052     5616    1           LDFW.STATE=LDFW.STATE+1;
     1053     5617    1           RETURN;
     1054     5618    1   END NIW$LDFWEA;
     1055     5619        %EOD;

PL6.E3A0      #004=NIW$LDFWEA File=NIW$MPC.:E05TSI                               WED 07/30/97 03:43 Page:179
--  Include file information  --

   OC_SUBS_C.:E05TOU  is referenced.
   NI_MACROS_C.:E05TOU  cannot be made into a system file and is referenced.
   NI$TABLES.:E05TOU  is referenced.
   N$REQ.:E05TOU  is referenced.
   NI_DATA_R.:E05TOU  cannot be made into a system file and is referenced.
   NI_DATA_C.:E05TOU  is referenced.
   M_INFO_C.:E05TOU  is referenced.
   I$DISK.:E05TOU  cannot be made into a system file and is referenced.
   HF_LOCK_C.:E05TOU  cannot be made into a system file and is referenced.
   HF_DATA_R.:E05TOU  cannot be made into a system file and is referenced.
   FM$GRAN.:E05TOU  is referenced.
   EL_SUBS_C.:E05TOU  is referenced.
   CP_6_SUBS.:E05TOU  is referenced.
   B_STRINGS_C.:E05TOU  is referenced.
   B_SEGIDS_C.:E05TOU  is referenced.
   B_MLSMAC_C.:E05TOU  is referenced.
   B$MAP.:E05TOU  cannot be made into a system file and is referenced.
      No diagnostics issued in procedure NIW$LDFWEA.

   Procedure NIW$LDFWEA requires 442 words for executable code.
   Procedure NIW$LDFWEA requires 30 words of local(AUTO) storage.

PL6.E3A0      #004=NIW$LDFWEA File=NIW$MPC.:E05TSI                               WED 07/30/97 03:43 Page:180

 Object Unit name= NIW$LDFWEA                                 File name= NIW$MPC.:E05TOU
 UTS= JUL 30 '97 03:43:12.56 WED                              Compiler= PL-6/E31         Sev=      00
 SharedLib= :SHARED_SYSTEM                                    Alt SharedLib=


    ****  Control sections  ****

 Sect   Type Bound  Init  Size OctSiz  Section name(segment info)
    0  RoData even  UTS      6      6  NIW$LDFWEA
    1   Proc  even  none   442    672  NIW$LDFWEA
    2  RoData even  none    19     23  NIW$LDFWEA

    ****  Entry defs  ****

                              Check   Calling
                             calling  sequence
  Sect OctLoc Primary Altret sequence   type   Parms  Name
     1      0   yes            yes      Std        1  NIW$LDFWEA

  ****  Entry refs  ****

         Check        Calling
        calling       sequence
Altret sequence SRef   type   Args  Name
 yes     yes           Std       2 NIW$LDFWS
         yes           Std       1 OCI$MK_STTM
         yes           Std       8 OCI$MK_WRTM
         yes           Std       7 OCI$MK_WR
         yes           Std       2 NIA$FWLOAD
         yes           Std       1 HFC$UNLOCK
 yes     yes           Std       4 MME$CVM
         yes           Std       1 NIW$MPCSTART
 yes     yes           Std       1 MMB$FPP
         yes           Std       1 HFC$LOCK
                       Std       0 B_CONSPOOL_D
                       nStd      0 X66_AUTO_1
                       nStd      0 X66_ARET
PL6.E3A0      #004=NIW$LDFWEA File=NIW$MPC.:E05TSI                               WED 07/30/97 03:43 Page:181

  ****  Data refs  ****

  Flags:  r = read only, s = secondary
Flgs Name                             Flgs Name                             Flgs Name
     HW_IMX                                N$DCT$$                               N$FQ$
     NI$FQ$                                NI$IBUF$                              NI$RP$
     NI_FWGATE                             B$FIRM$                               B$LS$
     B$MPT$                                B_VECTNIL

  ****  Segment refs  ****

  Flags:  r = read only, s = secondary
Flgs Name                             Flgs Name                             Flgs Name
     ISSID
PL6.E3A0      #004=NIW$LDFWEA File=NIW$MPC.:E05TSI                               WED 07/30/97 03:43 Page:182


      817        1        /*T***********************************************************/
      818        2        /*T*                                                         */
      819        3        /*T* Copyright (c) Bull HN Information Systems Inc., 1997    */
      820        4        /*T*                                                         */
      821        5        /*T***********************************************************/
      822        6        /*
      823        7           MPC FIRMWARE LOADER END-ACTION ROUTINE
      824        8        */
      825        9        NIW$LDFWEA: PROC (REQ);

      9  1 000000   000000 700200 xent  NIW$LDFWEA   TSX0  ! X66_AUTO_1
         1 000001   000036 000001                    ZERO    30,1

      826       10        /*
      827       11                Includes
      828       12        */
      829       13        %INCLUDE                B$MAP ;
      830      112        %INCLUDE                B_MLSMAC_C ;
      831     1054        %INCLUDE                B_SEGIDS_C ;
      832     1593        %INCLUDE                B_STRINGS_C ;
      833     1722        %INCLUDE                CP_6_SUBS ;
      834     2262        %INCLUDE                EL_SUBS_C ;
      835     2346        %INCLUDE                FM$GRAN ;
      836     2415        %INCLUDE                HF_DATA_R ;
      837     2458        %INCLUDE                HF_LOCK_C ;
      838     2472        %INCLUDE                I$DISK ;
      839     2724        %INCLUDE                M_INFO_C ;
      840     2864        %INCLUDE                NI_DATA_C ;
      841     2977        %INCLUDE                NI_DATA_R ;
      842     3414        %INCLUDE                NI_MACROS_C ;
      843     3681        %INCLUDE                OC_SUBS_C ;
      844     4412        /*
      845     4413                Parameters
      846     4414        */
      847     4415        %N$REQ                  ( NAME=REQ, STCLASS=PARAM ) ;
      848     4473        /*
PL6.E3A0      #004=NIW$LDFWEA File=NIW$MPC.:E05TSI                               WED 07/30/97 03:43 Page:183
      849     4474                Entries
      850     4475        */
      851     4476    1   DCL 1 MMB$FPP           ENTRY(1) ALTRET ;
      852     4477    1   DCL 1 MME$CVM           ENTRY(4) ALTRET ;
      853     4478    1   DCL 1 NIA$FWLOAD        ENTRY(2) ;
      854     4479    1   DCL 1 NID$RESCHED       ENTRY(1) ALTRET ;
      855     4480    1   DCL 1 NIQ$GETS          ENTRY(1) ALTRET ;
      856     4481    1   DCL 1 NIT$DEVSCHED      ENTRY(1) ;
      857     4482    1   DCL 1 NIU$RESCHED       ENTRY(1) ;
      858     4483    1   DCL 1 NIU$SCHED         ENTRY(1) ;
      859     4484    1   DCL 1 NIW$LDFWS         ENTRY(2) ALTRET ;
      860     4485    1   DCL 1 NIW$MPCSTART      ENTRY(1) ;
      861     4486    1   DCL 1 OCI$MK_STTM       ENTRY(1) ;
      862     4487    1   DCL 1 OCI$MK_WR         ENTRY(7) ;
      863     4488    1   DCL 1 OCI$MK_WRTM       ENTRY(8) ;
      864     4489        /*
      865     4490                Symrefs
      866     4491        */
      867     4492    1   DCL 1 B$FIRM$           PTR SYMREF ;
      868     4493    1   DCL 1 B$LS$             PTR SYMREF ;
      869     4494    1   DCL 1 B$MPT$            PTR SYMREF ;
      870     4495        /*
      871     4496                Auto
      872     4497        */
      873     4498    1   DCL 1 DCT$              PTR ALIGNED AUTO ;
      874     4499    1   DCL 1 DQH$              PTR ALIGNED AUTO ;
      875     4500    1   DCL 1 DVT$              PTR ALIGNED AUTO ;
      876     4501    1   DCL 1 ERRWD             SBIN ALIGNED AUTO ;
      877     4502    1   DCL 1 FW$               PTR ALIGNED AUTO ;
      878     4503    1   DCL 1 I                 SBIN ALIGNED AUTO ;
      879     4504    1   DCL 1 IREQ$             PTR ALIGNED AUTO ;
      880     4505    1   DCL 1 I_FWNAME          SBIN ALIGNED AUTO ;
      881     4506    1   DCL 1 KEYINRTN          EPTR ALIGNED AUTO ;
      882     4507    1   DCL 1 OCI$MSG           EPTR  ALIGNED AUTO ;
      883     4508    1   DCL 1 OCPARAM           UBIN BYTE CALIGNED AUTO ;
      884     4509    1   DCL 1 PPNO              SBIN ALIGNED AUTO ;
      885     4510    1   DCL 1 SQH$              PTR ALIGNED AUTO ;
PL6.E3A0      #004=NIW$LDFWEA File=NIW$MPC.:E05TSI                               WED 07/30/97 03:43 Page:184
      886     4511    1   DCL 1 VPNO              SBIN ALIGNED AUTO ;
      887     4512    1   DCL 1 WAITTIME          SBIN ALIGNED AUTO ;
      888     4513        /*
      889     4514                Based
      890     4515        */
      891     4516        %B_MLS                  ( FPTN=B$MLNK, STCLASS=BASED ) ;
      892     5331        %NI$DCT                 ( NAME=DCT, STCLASS="BASED(DCT$)" ) ;
      893     5379        %NI$DQH                 ( NAME=DQH, STCLASS="BASED(DQH$)" ) ;
      894     5402        %NI$DVT                 ( NAME=DVT, STCLASS="BASED(DVT$)" ) ;
      895     5409        %FM$VID;
      896     5415        %NI$FW                  ( NAME=FW, STCLASS="BASED(FW$)" ) ;
      897     5421        %NI$REQ                 ( NAME=IREQ, STCLASS="BASED(IREQ$)" ) ;
      898     5446    1   DCL 1 LDFW              BASED ALIGNED,  /* REQ.EAINFO AND REQ.EAINFOX */
      899     5447    1         2 STATE           UBIN(18) UNAL, /* STATE OF F/W LOADING:
      900     5448                                                    0 READING SYSVOL VID
      901     5449                                                    1 READING SYSDIR
      902     5450                                                    2 READING F/W
      903     5451                                                    3 READING LP F/W
      904     5452                                                    4 READING CRP F/W
      905     5453                                                    5 WRITING CSO
      906     5454                                                    6 WRITING MMO
      907     5455                                                    7 WRITING LP F/W
      908     5456                                                    8 WRITING CRP F/W
      909     5457                                                    9 ENTERING F/W (UR ONLY) */
      910     5458    1         2 SEGSIZE         UBIN(18) UNAL,  /* SIZE OF FIRM */
      911     5459    1         2 CALLIOQ         BIT(1),    /* CALL IOQ AFTER SETTING UP THE WRITE CSO */
      912     5460    1         2 * BIT(2),
      913     5461    1         2 DCTX            UBIN(15) UNAL,  /* MPC DCTX */
      914     5462    1         2 OLSIZE          UBIN(18) UNAL;  /* (REMAINING) SIZE OF F/W OVERLAY */
      915     5463        %NI$SQH                 ( NAME=SQH, STCLASS="BASED(SQH$)" ) ;
      916     5476        /*
      917     5477                Constants
      918     5478        */
      919     5479    1   DCL IDCW(0:3) BIT(36) CONSTANT ALIGNED INIT(
      920     5480    1              '110000700000'O,             /* MAIN MEMORY OVERLAY */
      921     5481    1              '360000704000'O*2,           /* LOAD DEVICE FIRMWARE */
      922     5482    1              '050000700200'O);            /* ENTER FIRMWARE */
PL6.E3A0      #004=NIW$LDFWEA File=NIW$MPC.:E05TSI                               WED 07/30/97 03:43 Page:185
      923     5483        /**/
      924     5484    1   DCL KEYIN# SBIN HALF UNAL CONSTANT INIT(1); /* RETRY */
      925     5485        /**/
      926     5486        %SUB I$DISKDIR=B$FIRM$->I$DISKDIR;
      927     5487        %SUB LDFW="ADDR(REQ.EAINFO)->LDFW";
      928     5488        /**/
      929     5489        %EQU FWPGS=16;
      930     5490        /**/
      931     5491        %EJECT;
PL6.E3A0      #004=NIW$LDFWEA File=NIW$MPC.:E05TSI                               WED 07/30/97 03:43 Page:186
      932     5492        /* START OF PROCEDURE
      933     5493        */
      934     5494    1           DCT$=N$DCT$(LDFW.DCTX);

   5494  1 000002   200003 470500                    LDP0    @REQ,,AUTO
         1 000003   000025 220100                    LDX0    21,,PR0
         1 000004   077777 360003                    ANX0    32767,DU
         1 000005   000000 471400 xsym               LDP1    N$DCT$$
         1 000006   100000 236110                    LDQ     0,X0,PR1
         1 000007   200004 756100                    STQ     DCT$,,AUTO

      935     5495    1           FW$=DCT.MPC.FW$;

   5495  1 000010   200004 473500                    LDP3    DCT$,,AUTO
         1 000011   300030 236100                    LDQ     24,,PR3
         1 000012   200010 756100                    STQ     FW$,,AUTO

      936     5496    2           DO CASE(LDFW.STATE);

   5496  1 000013   000024 221100                    LDX1    20,,PR0
         1 000014   000012 101003                    CMPX1   10,DU
         1 000015   000017 602011 1                  TNC     s:5496+4,X1
         1 000016   000500 710000 1                  TRA     s:5591
         1 000017   000500 710000 1                  TRA     s:5591
         1 000020   000500 710000 1                  TRA     s:5591
         1 000021   000031 710000 1                  TRA     s:5498
         1 000022   000031 710000 1                  TRA     s:5498
         1 000023   000031 710000 1                  TRA     s:5498
         1 000024   000500 710000 1                  TRA     s:5591
         1 000025   000131 710000 1                  TRA     s:5519
         1 000026   000175 710000 1                  TRA     CHKCRPFW
         1 000027   000500 710000 1                  TRA     s:5591
         1 000030   000227 710000 1                  TRA     FWLOADED

      937     5497    2            CASE(2,3,4);                   /* DONE READING F/W PAGE */

      938     5498    2              IF REQ.TYC~=%TYC_EGV THEN GOTO DONE;
PL6.E3A0      #004=NIW$LDFWEA File=NIW$MPC.:E05TSI                               WED 07/30/97 03:43 Page:187

   5498  1 000031   000021 236100                    LDQ     17,,PR0
         1 000032   000030 116000 xsym               CMPQ    B_VECTNIL+24
         1 000033   000300 601000 1                  TNZ     DONE

      939     5499    3              IF FW.FWOL(LDFW.STATE)>0 THEN DO;

   5499  1 000034   000024 236100                    LDQ     20,,PR0
         1 000035   000022 772000                    QRL     18
         1 000036   000001 736000                    QLS     1
         1 000037   200010 474500                    LDP4    FW$,,AUTO
         1 000040   000100 101506                    MRL     fill='000'O
         1 000041   400003 000002                    ADSC9   3,Q,PR4                  cn=0,n=2
         1 000042   200024 000004                    ADSC9   WAITTIME+2,,AUTO         cn=0,n=4
         1 000043   200024 236100                    LDQ     WAITTIME+2,,AUTO
         1 000044   000000 116003                    CMPQ    0,DU
         1 000045   000117 600000 1                  TZE     s:5513

      940     5500    3                 REQ.BUF$=PINCRC(REQ.BUF$,REQ.BUFSIZE);

   5500  1 000046   000004 236100                    LDQ     4,,PR0
         1 000047   000020 772000                    QRL     16
         1 000050   000005 475500                    LDP5    5,,PR0
         1 000051   000011 402007                    MPY     9,DL
         1 000052   500000 503506                    ABD     0,QL,PR5
         1 000053   000005 455500                    STP5    5,,PR0

      941     5501    3                 REQ.OPFLG.BPF='1'B;

   5501  1 000054   000010 236007                    LDQ     8,DL
         1 000055   000004 256100                    ORSQ    4,,PR0

      942     5502    4                 DO CASE(LDFW.STATE);

   5502  1 000056   000024 221100                    LDX1    20,,PR0
         1 000057   000005 101003                    CMPX1   5,DU
         1 000060   000062 602011 1                  TNC     s:5502+4,X1
PL6.E3A0      #004=NIW$LDFWEA File=NIW$MPC.:E05TSI                               WED 07/30/97 03:43 Page:188
         1 000061   000102 710000 1                  TRA     s:5510
         1 000062   000102 710000 1                  TRA     s:5510
         1 000063   000102 710000 1                  TRA     s:5510
         1 000064   000067 710000 1                  TRA     s:5504
         1 000065   000074 710000 1                  TRA     s:5506
         1 000066   000101 710000 1                  TRA     s:5508

      943     5503    4                  CASE(2);

      944     5504    4                    REQ.DLA.DRELADDR=FW.LPDA;

   5504  1 000067   400001 236100                    LDQ     1,,PR4
         1 000070   000001 676100                    ERQ     1,,PR0
         1 000071   000000 376000 2                  ANQ     0
         1 000072   000001 656100                    ERSQ    1,,PR0
         1 000073   000102 710000 1                  TRA     s:5510

      945     5505    4                  CASE(3);

      946     5506    4                    REQ.DLA.DRELADDR=FW.CRPDA;

   5506  1 000074   400002 236100                    LDQ     2,,PR4
         1 000075   000001 676100                    ERQ     1,,PR0
         1 000076   000000 376000 2                  ANQ     0
         1 000077   000001 656100                    ERSQ    1,,PR0
         1 000100   000102 710000 1                  TRA     s:5510

      947     5507    4                  CASE(4);

      948     5508    4                    GOTO WRITECSO;

   5508  1 000101   000121 710000 1                  TRA     WRITECSO

      949     5509    4                  END;

      950     5510    3                 REQ.BUFSIZE=FW.FWOL(LDFW.STATE)*4;

PL6.E3A0      #004=NIW$LDFWEA File=NIW$MPC.:E05TSI                               WED 07/30/97 03:43 Page:189
   5510  1 000102   000024 236100                    LDQ     20,,PR0
         1 000103   000022 772000                    QRL     18
         1 000104   000001 736000                    QLS     1
         1 000105   000100 101506                    MRL     fill='000'O
         1 000106   400003 000002                    ADSC9   3,Q,PR4                  cn=0,n=2
         1 000107   200024 000004                    ADSC9   WAITTIME+2,,AUTO         cn=0,n=4
         1 000110   200024 236100                    LDQ     WAITTIME+2,,AUTO
         1 000111   000002 736000                    QLS     2
         1 000112   000020 736000                    QLS     16
         1 000113   000004 676100                    ERQ     4,,PR0
         1 000114   000034 376000 xsym               ANQ     B_VECTNIL+28
         1 000115   000004 656100                    ERSQ    4,,PR0

      951     5511    3                 END;

   5511  1 000116   000130 710000 1                  TRA     s:5517

      952     5512    3              ELSE DO;

      953     5513    3                 LDFW.STATE=4;

   5513  1 000117   000004 221003                    LDX1    4,DU
         1 000120   000024 741100                    STX1    20,,PR0

      954     5514    3   WRITECSO:
      955     5515    3                 CALL NIW$LDFWS(DCT,'0'B) ALTRET(WAIT);

   5515  1 000121   000001 236000 2     WRITECSO     LDQ     1
         1 000122   200004 235100                    LDA     DCT$,,AUTO
         1 000123   200024 757100                    STAQ    WAITTIME+2,,AUTO
         1 000124   200024 630500                    EPPR0   WAITTIME+2,,AUTO
         1 000125   000020 631400 xsym               EPPR1   B_VECTNIL+16
         1 000126   000000 701000 xent               TSX1    NIW$LDFWS
         1 000127   000663 702000 1                  TSX2    WAIT

      956     5516    3                 END;

PL6.E3A0      #004=NIW$LDFWEA File=NIW$MPC.:E05TSI                               WED 07/30/97 03:43 Page:190
      957     5517    2              GOTO CONT;

   5517  1 000130   000660 710000 1                  TRA     CONT

      958     5518    2            CASE(6);                       /* DONE WRITING MAIN MEMORY OVERLAY */

      959     5519    2              IF REQ.TYC~=%TYC_EGV THEN GOTO DONE;

   5519  1 000131   000021 236100                    LDQ     17,,PR0
         1 000132   000030 116000 xsym               CMPQ    B_VECTNIL+24
         1 000133   000300 601000 1                  TNZ     DONE

      960     5520    2              IF DCT.MPC.TYPE~=%DV_LP THEN GOTO FWLOADED;

   5520  1 000134   300035 236100                    LDQ     29,,PR3
         1 000135   777000 376003                    ANQ     -512,DU
         1 000136   003000 116003                    CMPQ    1536,DU
         1 000137   000227 601000 1                  TNZ     FWLOADED

      961     5521    3              IF NOT DCT.MPC.LPCHANS THEN DO;

   5521  1 000140   300035 236100                    LDQ     29,,PR3
         1 000141   000777 316003                    CANQ    511,DU
         1 000142   000157 601000 1                  TNZ     s:5526

      962     5522    3                 FW.DCW.FWA(0)=FW.DCW.FWA(0)+FW.FWOL(2);

   5522  1 000143   200010 474500                    LDP4    FW$,,AUTO
         1 000144   400004 236100                    LDQ     4,,PR4
         1 000145   000022 772000                    QRL     18
         1 000146   200024 756100                    STQ     WAITTIME+2,,AUTO
         1 000147   400007 236100                    LDQ     7,,PR4
         1 000150   000022 772000                    QRL     18
         1 000151   200024 036100                    ADLQ    WAITTIME+2,,AUTO
         1 000152   000000 621006                    EAX1    0,QL
         1 000153   400007 741100                    STX1    7,,PR4

PL6.E3A0      #004=NIW$LDFWEA File=NIW$MPC.:E05TSI                               WED 07/30/97 03:43 Page:191
      963     5523    3                 LDFW.STATE=7;

   5523  1 000154   000007 220003                    LDX0    7,DU
         1 000155   000024 740100                    STX0    20,,PR0

      964     5524    3                 GOTO CHKCRPFW;

   5524  1 000156   000175 710000 1                  TRA     CHKCRPFW

      965     5525    3                 END;
      966     5526    2              FW.FW(FW.FWOL(0)+FW.FWOL(1))=DCT.MPC.LPCHANS;

   5526  1 000157   200010 474500                    LDP4    FW$,,AUTO
         1 000160   400003 236100                    LDQ     3,,PR4
         1 000161   777777 376007                    ANQ     -1,DL
         1 000162   200024 756100                    STQ     WAITTIME+2,,AUTO
         1 000163   400003 236100                    LDQ     3,,PR4
         1 000164   000022 772000                    QRL     18
         1 000165   200024 036100                    ADLQ    WAITTIME+2,,AUTO
         1 000166   200025 756100                    STQ     WAITTIME+3,,AUTO
         1 000167   300035 236100                    LDQ     29,,PR3
         1 000170   000011 736000                    QLS     9
         1 000171   777000 376003                    ANQ     -512,DU
         1 000172   200025 720100                    LXL0    WAITTIME+3,,AUTO
         1 000173   400013 756110                    STQ     11,X0,PR4
         1 000174   000500 710000 1                  TRA     s:5591

      967     5527    2            CASE(7);                       /* DONE WRITING LP F/W */

      968     5528    2   CHKCRPFW:
      969     5529    3              IF NOT DCT.MPC.CRPCHANS THEN DO;

   5529  1 000175   300035 236100       CHKCRPFW     LDQ     29,,PR3
         1 000176   777000 316007                    CANQ    -512,DL
         1 000177   000203 601000 1                  TNZ     s:5533

      970     5530    3                 LDFW.STATE=8;
PL6.E3A0      #004=NIW$LDFWEA File=NIW$MPC.:E05TSI                               WED 07/30/97 03:43 Page:192

   5530  1 000200   000010 220003                    LDX0    8,DU
         1 000201   000024 740100                    STX0    20,,PR0

      971     5531    3                 END;

   5531  1 000202   000500 710000 1                  TRA     s:5591

      972     5532    3              ELSE DO;

      973     5533    3                 FW.FW(FW.FWOL(0)+FW.FWOL(1)+FW.FWOL(2))=DCT.MPC.CRPCHANS;

   5533  1 000203   200010 474500                    LDP4    FW$,,AUTO
         1 000204   400003 236100                    LDQ     3,,PR4
         1 000205   777777 376007                    ANQ     -1,DL
         1 000206   200024 756100                    STQ     WAITTIME+2,,AUTO
         1 000207   400003 236100                    LDQ     3,,PR4
         1 000210   000022 772000                    QRL     18
         1 000211   200024 036100                    ADLQ    WAITTIME+2,,AUTO
         1 000212   200025 756100                    STQ     WAITTIME+3,,AUTO
         1 000213   400004 236100                    LDQ     4,,PR4
         1 000214   000022 772000                    QRL     18
         1 000215   200026 756100                    STQ     WAITTIME+4,,AUTO
         1 000216   200025 236100                    LDQ     WAITTIME+3,,AUTO
         1 000217   200026 036100                    ADLQ    WAITTIME+4,,AUTO
         1 000220   200027 756100                    STQ     WAITTIME+5,,AUTO
         1 000221   300035 236100                    LDQ     29,,PR3
         1 000222   000022 736000                    QLS     18
         1 000223   777000 376003                    ANQ     -512,DU
         1 000224   200027 720100                    LXL0    WAITTIME+5,,AUTO
         1 000225   400013 756110                    STQ     11,X0,PR4

      974     5534    3                 END;

   5534  1 000226   000500 710000 1                  TRA     s:5591

      975     5535    2            CASE(9);                       /* DONE "ENTER F/W" */
PL6.E3A0      #004=NIW$LDFWEA File=NIW$MPC.:E05TSI                               WED 07/30/97 03:43 Page:193

      976     5536    2   FWLOADED:
      977     5537    2              DCT.DFLG.RELOAD='0'B;        /* FIRMWARE LOADED */

   5537  1 000227   000002 236000 2     FWLOADED     LDQ     2
         1 000230   300006 356100                    ANSQ    6,,PR3

      978     5538        /*N* GET RID OF THESE STUPID DO LOOPS - SHOULD CHECK STATUS FOR POWER OFF */
      979     5539    2              IF HW_IMX AND DCT.MPC.FWNAME = 'MSP8' THEN

   5539  1 000231   000000 234000 xsym               SZN     HW_IMX
         1 000232   000241 605000 1                  TPL     s:5541
         1 000233   300041 236100                    LDQ     33,,PR3
         1 000234   000005 116000 0                  CMPQ    IDCW+5
         1 000235   000241 601000 1                  TNZ     s:5541

      980     5540    2                 WAITTIME = 300000;

   5540  1 000236   000003 235000 2                  LDA     3
         1 000237   200022 755100                    STA     WAITTIME,,AUTO
         1 000240   000250 710000 1                  TRA     s:5545

      981     5541    2              ELSE IF DCT.MPC.FWNAME = 'MSP8' THEN

   5541  1 000241   300041 236100                    LDQ     33,,PR3
         1 000242   000005 116000 0                  CMPQ    IDCW+5
         1 000243   000247 601000 1                  TNZ     s:5544

      982     5542    2                    WAITTIME = 100000;

   5542  1 000244   303240 235007                    LDA     100000,DL
         1 000245   200022 755100                    STA     WAITTIME,,AUTO
         1 000246   000250 710000 1                  TRA     s:5545

      983     5543    2                 ELSE
      984     5544    2                    WAITTIME = 0;

PL6.E3A0      #004=NIW$LDFWEA File=NIW$MPC.:E05TSI                               WED 07/30/97 03:43 Page:194
   5544  1 000247   200022 450100                    STZ     WAITTIME,,AUTO

      985     5545    3              DO I=1 TO WAITTIME;          /* WAIT A WHILE (~400 MS.) */

   5545  1 000250   000001 235007                    LDA     1,DL
         1 000251   200011 755100                    STA     I,,AUTO
         1 000252   000254 710000 1                  TRA     s:5546+1

      986     5546    3                 END;

   5546  1 000253   200011 054100                    AOS     I,,AUTO
         1 000254   200011 236100                    LDQ     I,,AUTO
         1 000255   200022 116100                    CMPQ    WAITTIME,,AUTO
         1 000256   000253 604400 1                  TMOZ    s:5546

      987     5547    2              CALL NIW$MPCSTART(DCT);

   5547  1 000257   200004 630500                    EPPR0   DCT$,,AUTO
         1 000260   000017 631400 xsym               EPPR1   B_VECTNIL+15
         1 000261   000000 701000 xent               TSX1    NIW$MPCSTART
         1 000262   000000 011000                    NOP     0

      988     5548    2              IF DCT.MPC.ALTMPCX~=0 THEN

   5548  1 000263   200004 470500                    LDP0    DCT$,,AUTO
         1 000264   000035 236100                    LDQ     29,,PR0
         1 000265   000777 316007                    CANQ    511,DL
         1 000266   000300 600000 1                  TZE     DONE

      989     5549    2                 CALL NIW$MPCSTART(N$DCT$(DCT.MPC.ALTMPCX)->DCT);

   5549  1 000267   000035 720100                    LXL0    29,,PR0
         1 000270   000777 360003                    ANX0    511,DU
         1 000271   000000 471400 xsym               LDP1    N$DCT$$
         1 000272   100000 473510                    LDP3    0,X0,PR1
         1 000273   200024 453500                    STP3    WAITTIME+2,,AUTO
         1 000274   200024 630500                    EPPR0   WAITTIME+2,,AUTO
PL6.E3A0      #004=NIW$LDFWEA File=NIW$MPC.:E05TSI                               WED 07/30/97 03:43 Page:195
         1 000275   000017 631400 xsym               EPPR1   B_VECTNIL+15
         1 000276   000000 701000 xent               TSX1    NIW$MPCSTART
         1 000277   000000 011000                    NOP     0

      990     5550    2   DONE:
      991     5551    2              IF DCT.MSG# ~= 0 THEN

   5551  1 000300   200004 470500       DONE         LDP0    DCT$,,AUTO
         1 000301   000027 720100                    LXL0    23,,PR0
         1 000302   000312 600000 1                  TZE     s:5553

      992     5552    2                 CALL OCI$MK_STTM ( DCT.MSG# ) ;

   5552  1 000303   200004 236100                    LDQ     DCT$,,AUTO
         1 000304   000004 036000 2                  ADLQ    4
         1 000305   200024 756100                    STQ     WAITTIME+2,,AUTO
         1 000306   200024 630500                    EPPR0   WAITTIME+2,,AUTO
         1 000307   000017 631400 xsym               EPPR1   B_VECTNIL+15
         1 000310   000000 701000 xent               TSX1    OCI$MK_STTM
         1 000311   000000 011000                    NOP     0

      993     5553    3              IF DCT.DFLG.RELOAD THEN DO ;

   5553  1 000312   200004 470500                    LDP0    DCT$,,AUTO
         1 000313   000006 236100                    LDQ     6,,PR0
         1 000314   004000 316007                    CANQ    2048,DL
         1 000315   000323 600000 1                  TZE     s:5558

      994     5554    3                 OCPARAM = 1 ;

   5554  1 000316   001000 236003                    LDQ     512,DU
         1 000317   200016 756100                    STQ     OCPARAM,,AUTO

      995     5555    3                 OCI$MSG = ENTADDR ( OCI$MK_WRTM ) ;

   5555  1 000320   000000 636000 xent               EAQ     OCI$MK_WRTM
         1 000321   200015 756100                    STQ     OCI$MSG,,AUTO
PL6.E3A0      #004=NIW$LDFWEA File=NIW$MPC.:E05TSI                               WED 07/30/97 03:43 Page:196

      996     5556    3                 END ;

   5556  1 000322   000326 710000 1                  TRA     s:5561

      997     5557    3              ELSE DO ;

      998     5558    3                 OCPARAM = 0 ;

   5558  1 000323   200016 450100                    STZ     OCPARAM,,AUTO

      999     5559    3                 OCI$MSG = ENTADDR ( OCI$MK_WR ) ;

   5559  1 000324   000000 636000 xent               EAQ     OCI$MK_WR
         1 000325   200015 756100                    STQ     OCI$MSG,,AUTO

     1000     5560    3                 END ;

     1001     5561    2              CALL OCI$MSG ( M_DEVC, %FWL_MSG#, 1, '001'O, OCPARAM,

   5561  1 000326   000006 236100                    LDQ     6,,PR0
         1 000327   000025 772000                    QRL     21
         1 000330   200024 756100                    STQ     WAITTIME+2,,AUTO
         1 000331   200004 236100                    LDQ     DCT$,,AUTO
         1 000332   000004 036000 2                  ADLQ    4
         1 000333   000001 235000 xsym               LDA     B_VECTNIL+1
         1 000334   200034 757100                    STAQ    WAITTIME+10,,AUTO
         1 000335   200024 631500                    EPPR1   WAITTIME+2,,AUTO
         1 000336   200033 451500                    STP1    WAITTIME+9,,AUTO
         1 000337   200016 633500                    EPPR3   OCPARAM,,AUTO
         1 000340   200032 453500                    STP3    WAITTIME+8,,AUTO
         1 000341   000010 237000 2                  LDAQ    8
         1 000342   200030 757100                    STAQ    WAITTIME+6,,AUTO
         1 000343   000012 237000 2                  LDAQ    10
         1 000344   200026 757100                    STAQ    WAITTIME+4,,AUTO
         1 000345   200026 630500                    EPPR0   WAITTIME+4,,AUTO
         1 000346   200015 220100                    LDX0    OCI$MSG,,AUTO
PL6.E3A0      #004=NIW$LDFWEA File=NIW$MPC.:E05TSI                               WED 07/30/97 03:43 Page:197
         1 000347   000026 631400 xsym               EPPR1   B_VECTNIL+22
         1 000350   000000 701010                    TSX1    0,X0
         1 000351   000000 011000                    NOP     0

     1002     5562    2                BINBIT(DCT.DCTX,36), /* WSN */,
     1003     5563    2                DCT.MSG# ) ;
     1004     5564    2              CALL NIA$FWLOAD(DCT,EL_FWLOAD);

   5564  1 000352   000014 236000 2                  LDQ     12
         1 000353   200004 235100                    LDA     DCT$,,AUTO
         1 000354   200024 757100                    STAQ    WAITTIME+2,,AUTO
         1 000355   200024 630500                    EPPR0   WAITTIME+2,,AUTO
         1 000356   000020 631400 xsym               EPPR1   B_VECTNIL+16
         1 000357   000000 701000 xent               TSX1    NIA$FWLOAD
         1 000360   000000 011000                    NOP     0

     1005     5565    2              DCT.DFLG.RELOAD='0'B;

   5565  1 000361   200004 470500                    LDP0    DCT$,,AUTO
         1 000362   000002 236000 2                  LDQ     2
         1 000363   000006 356100                    ANSQ    6,,PR0

     1006     5566    3              IF DCT.MPC.FW$=B$FIRM$ THEN DO;

   5566  1 000364   000030 236100                    LDQ     24,,PR0
         1 000365   000000 116000 xsym               CMPQ    B$FIRM$
         1 000366   000454 601000 1                  TNZ     s:5581

     1007     5567    4                 DO VPNO=%FIRMWREPG TO %FIRMWREPG+%(%FWPGS-1);

   5567  1 000367   001010 235007                    LDA     520,DL
         1 000370   200021 755100                    STA     VPNO,,AUTO
         1 000371   000425 710000 1                  TRA     s:5571+1

     1008     5568    4                    PPNO=B$MPT$->B$MAP.RPN(VPNO);

   5568  1 000372   000000 470400 xsym               LDP0    B$MPT$
PL6.E3A0      #004=NIW$LDFWEA File=NIW$MPC.:E05TSI                               WED 07/30/97 03:43 Page:198
         1 000373   200021 720100                    LXL0    VPNO,,AUTO
         1 000374   000000 236110                    LDQ     0,X0,PR0
         1 000375   000022 772000                    QRL     18
         1 000376   200017 756100                    STQ     PPNO,,AUTO

     1009     5569    4                    CALL MME$CVM(%MONWSQ,VPNO,-1,ERRWD);

   5569  1 000377   200007 631500                    EPPR1   ERRWD,,AUTO
         1 000400   200027 451500                    STP1    WAITTIME+5,,AUTO
         1 000401   000015 236000 2                  LDQ     13
         1 000402   200026 756100                    STQ     WAITTIME+4,,AUTO
         1 000403   200021 633500                    EPPR3   VPNO,,AUTO
         1 000404   200025 453500                    STP3    WAITTIME+3,,AUTO
         1 000405   000010 236000 2                  LDQ     8
         1 000406   200024 756100                    STQ     WAITTIME+2,,AUTO
         1 000407   200024 630500                    EPPR0   WAITTIME+2,,AUTO
         1 000410   000022 631400 xsym               EPPR1   B_VECTNIL+18
         1 000411   000000 701000 xent               TSX1    MME$CVM
         1 000412   000000 011000                    NOP     0

     1010     5570    4                    IF LDFW.SEGSIZE~=0 THEN CALL MMB$FPP(PPNO);

   5570  1 000413   200003 470500                    LDP0    @REQ,,AUTO
         1 000414   000024 720100                    LXL0    20,,PR0
         1 000415   000424 600000 1                  TZE     s:5571

   5570  1 000416   200017 631500                    EPPR1   PPNO,,AUTO
         1 000417   200024 451500                    STP1    WAITTIME+2,,AUTO
         1 000420   200024 630500                    EPPR0   WAITTIME+2,,AUTO
         1 000421   000017 631400 xsym               EPPR1   B_VECTNIL+15
         1 000422   000000 701000 xent               TSX1    MMB$FPP
         1 000423   000000 011000                    NOP     0

     1011     5571    4                    END;

   5571  1 000424   200021 054100                    AOS     VPNO,,AUTO
         1 000425   200021 235100                    LDA     VPNO,,AUTO
PL6.E3A0      #004=NIW$LDFWEA File=NIW$MPC.:E05TSI                               WED 07/30/97 03:43 Page:199
         1 000426   001027 115007                    CMPA    535,DL
         1 000427   000372 604400 1                  TMOZ    s:5568

     1012     5572                      %LOCK(G#=NI_FWGATE);

   5573  1 000430   000016 630400 2                  EPPR0   14
         1 000431   000017 631400 xsym               EPPR1   B_VECTNIL+15
         1 000432   000000 701000 xent               TSX1    HFC$LOCK
         1 000433   000000 011000                    NOP     0

     1013     5575    3                 B$LS$->B$MLNK.FIRM.FLGS=B$LS$->B$MLNK.FIRM.FLGS&~%DSNULL;

   5575  1 000434   000000 470400 xsym               LDP0    B$LS$
         1 000435   000336 236100                    LDQ     222,,PR0
         1 000436   000024 736000                    QLS     20
         1 000437   777000 376003                    ANQ     -512,DU
         1 000440   775000 376003                    ANQ     -1536,DU
         1 000441   000024 772000                    QRL     20
         1 000442   000336 676100                    ERQ     222,,PR0
         1 000443   177600 376007                    ANQ     65408,DL
         1 000444   000336 656100                    ERSQ    222,,PR0

     1014     5576                      %UNLOCK(G#=NI_FWGATE);

   5577  1 000445   000016 630400 2                  EPPR0   14
         1 000446   000017 631400 xsym               EPPR1   B_VECTNIL+15
         1 000447   000000 701000 xent               TSX1    HFC$UNLOCK
         1 000450   000000 011000                    NOP     0

     1015     5579    3                 DCT.MPC.FW$=ADDR(NIL);

   5579  1 000451   000001 236000 xsym               LDQ     B_VECTNIL+1
         1 000452   200004 470500                    LDP0    DCT$,,AUTO
         1 000453   000030 756100                    STQ     24,,PR0

     1016     5580    3                 END/* IF LDFW.SEGSIZE */;

PL6.E3A0      #004=NIW$LDFWEA File=NIW$MPC.:E05TSI                               WED 07/30/97 03:43 Page:200
     1017     5581    2              DCT.DFLG.MPCSUSPENDED='0'B;

   5581  1 000454   000017 236000 2                  LDQ     15
         1 000455   000006 356100                    ANSQ    6,,PR0

     1018     5582    2              DCT.DFLG.MPCBUSY='0'B;

   5582  1 000456   000020 236000 2                  LDQ     16
         1 000457   000006 356100                    ANSQ    6,,PR0

     1019     5583    3              IF DCT.MPC.ALTMPCX~=0 THEN DO;

   5583  1 000460   000035 236100                    LDQ     29,,PR0
         1 000461   000777 316007                    CANQ    511,DL
         1 000462   000477 600000 1                  TZE     s:5589

     1020     5584    3                 DCT$=N$DCT$(DCT.MPC.ALTMPCX);

   5584  1 000463   000035 720100                    LXL0    29,,PR0
         1 000464   000777 360003                    ANX0    511,DU
         1 000465   000000 471400 xsym               LDP1    N$DCT$$
         1 000466   100000 236110                    LDQ     0,X0,PR1
         1 000467   200004 756100                    STQ     DCT$,,AUTO

     1021     5585    3                 DCT.DFLG.RELOAD='0'B;

   5585  1 000470   200004 470500                    LDP0    DCT$,,AUTO
         1 000471   000002 236000 2                  LDQ     2
         1 000472   000006 356100                    ANSQ    6,,PR0

     1022     5586    3                 DCT.DFLG.MPCSUSPENDED='0'B;

   5586  1 000473   000017 236000 2                  LDQ     15
         1 000474   000006 356100                    ANSQ    6,,PR0

     1023     5587    3                 DCT.DFLG.MPCBUSY='0'B;

PL6.E3A0      #004=NIW$LDFWEA File=NIW$MPC.:E05TSI                               WED 07/30/97 03:43 Page:201
   5587  1 000475   000020 236000 2                  LDQ     16
         1 000476   000006 356100                    ANSQ    6,,PR0

     1024     5588    3                 END;

     1025     5589    2              RETURN;

   5589  1 000477   000000 702200 xent               TSX2  ! X66_ARET

     1026     5590    2            END/* CASE LDFW.STATE */;

     1027     5591    1           IF REQ.TYC~=%TYC_EGV THEN GOTO DONE;

   5591  1 000500   000021 236100                    LDQ     17,,PR0
         1 000501   000030 116000 xsym               CMPQ    B_VECTNIL+24
         1 000502   000300 601000 1                  TNZ     DONE

     1028     5592    1           IF HW_IMX OR DCT.MPC.FWNAME = 'MSP8' THEN

   5592  1 000503   000000 234000 xsym               SZN     HW_IMX
         1 000504   000510 604000 1                  TMI     s:5593
         1 000505   300041 236100                    LDQ     33,,PR3
         1 000506   000005 116000 0                  CMPQ    IDCW+5
         1 000507   000513 601000 1                  TNZ     s:5595

     1029     5593    1              WAITTIME = 100000;           /* (~400 MS.) */

   5593  1 000510   303240 235007                    LDA     100000,DL
         1 000511   200022 755100                    STA     WAITTIME,,AUTO
         1 000512   000515 710000 1                  TRA     s:5596

     1030     5594    1           ELSE
     1031     5595    1              WAITTIME = 50000/4;          /* (~50 MS.) */

   5595  1 000513   030324 235007                    LDA     12500,DL
         1 000514   200022 755100                    STA     WAITTIME,,AUTO

PL6.E3A0      #004=NIW$LDFWEA File=NIW$MPC.:E05TSI                               WED 07/30/97 03:43 Page:202
     1032     5596    2           DO I=1 TO WAITTIME;

   5596  1 000515   000001 236007                    LDQ     1,DL
         1 000516   200011 756100                    STQ     I,,AUTO
         1 000517   000521 710000 1                  TRA     s:5597+1

     1033     5597    2              END;

   5597  1 000520   200011 054100                    AOS     I,,AUTO
         1 000521   200011 236100                    LDQ     I,,AUTO
         1 000522   200022 116100                    CMPQ    WAITTIME,,AUTO
         1 000523   000520 604400 1                  TMOZ    s:5597

     1034     5598    1           FW.IDCW=IDCW(LDFW.STATE-5);

   5598  1 000524   200003 470500                    LDP0    @REQ,,AUTO
         1 000525   000024 220100                    LDX0    20,,PR0
         1 000526   777773 236010 0                  LDQ     IDCW-5,X0
         1 000527   200010 471500                    LDP1    FW$,,AUTO
         1 000530   100006 756100                    STQ     6,,PR1

     1035     5599    1           FW.DCW.FWA(0)=FW.DCW.FWA(0)+FW.FWOL(LDFW.STATE-5);

   5599  1 000531   000024 236100                    LDQ     20,,PR0
         1 000532   000022 772000                    QRL     18
         1 000533   000001 736000                    QLS     1
         1 000534   000100 101506                    MRL     fill='000'O
         1 000535   100000 400002                    ADSC9   0,Q,PR1                  cn=2,n=2
         1 000536   200024 000004                    ADSC9   WAITTIME+2,,AUTO         cn=0,n=4
         1 000537   100007 236100                    LDQ     7,,PR1
         1 000540   000022 772000                    QRL     18
         1 000541   200024 036100                    ADLQ    WAITTIME+2,,AUTO
         1 000542   000000 620006                    EAX0    0,QL
         1 000543   100007 740100                    STX0    7,,PR1

     1036     5600    1           I=0;

PL6.E3A0      #004=NIW$LDFWEA File=NIW$MPC.:E05TSI                               WED 07/30/97 03:43 Page:203
   5600  1 000544   200011 450100                    STZ     I,,AUTO

     1037     5601    2           DO WHILE(FW.FWOL(LDFW.STATE-4)-I>%DCWTALLYMAX);

   5601  1 000545   000576 710000 1                  TRA     s:5606

     1038     5602    2              FW.DCW.FWA(I/%DCWTALLYMAX)=FW.DCW.FWA(0)+I;

   5602  1 000546   200011 236100                    LDQ     I,,AUTO
         1 000547   010000 506007                    DIV     4096,DL
         1 000550   200010 470500                    LDP0    FW$,,AUTO
         1 000551   200024 756100                    STQ     WAITTIME+2,,AUTO
         1 000552   000007 236100                    LDQ     7,,PR0
         1 000553   000022 772000                    QRL     18
         1 000554   200011 036100                    ADLQ    I,,AUTO
         1 000555   000000 620006                    EAX0    0,QL
         1 000556   200024 721100                    LXL1    WAITTIME+2,,AUTO
         1 000557   000007 740111                    STX0    7,X1,PR0

     1039     5603    2              FW.DCW.TALLY(I/%DCWTALLYMAX)=0;

   5603  1 000560   200011 236100                    LDQ     I,,AUTO
         1 000561   010000 506007                    DIV     4096,DL
         1 000562   000000 620006                    EAX0    0,QL
         1 000563   000021 236000 2                  LDQ     17
         1 000564   000007 356110                    ANSQ    7,X0,PR0

     1040     5604    2              FW.DCW.TYPE(I/%DCWTALLYMAX)=%DCW_IOTP;

   5604  1 000565   200011 236100                    LDQ     I,,AUTO
         1 000566   010000 506007                    DIV     4096,DL
         1 000567   000000 620006                    EAX0    0,QL
         1 000570   000007 236106                    LDQ     7,QL,PR0
         1 000571   000022 376000 2                  ANQ     18
         1 000572   010000 276007                    ORQ     4096,DL
         1 000573   000007 756110                    STQ     7,X0,PR0

PL6.E3A0      #004=NIW$LDFWEA File=NIW$MPC.:E05TSI                               WED 07/30/97 03:43 Page:204
     1041     5605    2              I=I+%DCWTALLYMAX;

   5605  1 000574   010000 236007                    LDQ     4096,DL
         1 000575   200011 056100                    ASQ     I,,AUTO

     1042     5606    2              END;

   5606  1 000576   200003 470500                    LDP0    @REQ,,AUTO
         1 000577   000024 236100                    LDQ     20,,PR0
         1 000600   000022 772000                    QRL     18
         1 000601   000001 736000                    QLS     1
         1 000602   200010 471500                    LDP1    FW$,,AUTO
         1 000603   000100 101506                    MRL     fill='000'O
         1 000604   100001 000002                    ADSC9   1,Q,PR1                  cn=0,n=2
         1 000605   200024 000004                    ADSC9   WAITTIME+2,,AUTO         cn=0,n=4
         1 000606   200024 236100                    LDQ     WAITTIME+2,,AUTO
         1 000607   200011 136100                    SBLQ    I,,AUTO
         1 000610   010000 116007                    CMPQ    4096,DL
         1 000611   000546 605400 1                  TPNZ    s:5602

     1043     5607    2           IF FW.FWOL(LDFW.STATE-4)-I>0 THEN DO;

   5607  1 000612   000024 236100                    LDQ     20,,PR0
         1 000613   000022 772000                    QRL     18
         1 000614   000001 736000                    QLS     1
         1 000615   000100 101506                    MRL     fill='000'O
         1 000616   100001 000002                    ADSC9   1,Q,PR1                  cn=0,n=2
         1 000617   200024 000004                    ADSC9   WAITTIME+2,,AUTO         cn=0,n=4
         1 000620   200024 236100                    LDQ     WAITTIME+2,,AUTO
         1 000621   200011 136100                    SBLQ    I,,AUTO
         1 000622   000660 604400 1                  TMOZ    CONT

     1044     5608    2              FW.DCW.FWA(I/%DCWTALLYMAX)=FW.DCW.FWA(0)+I;

   5608  1 000623   200011 236100                    LDQ     I,,AUTO
         1 000624   010000 506007                    DIV     4096,DL
         1 000625   200024 756100                    STQ     WAITTIME+2,,AUTO
PL6.E3A0      #004=NIW$LDFWEA File=NIW$MPC.:E05TSI                               WED 07/30/97 03:43 Page:205
         1 000626   100007 236100                    LDQ     7,,PR1
         1 000627   000022 772000                    QRL     18
         1 000630   200011 036100                    ADLQ    I,,AUTO
         1 000631   000000 620006                    EAX0    0,QL
         1 000632   200024 721100                    LXL1    WAITTIME+2,,AUTO
         1 000633   100007 740111                    STX0    7,X1,PR1

     1045     5609    2              FW.DCW.TALLY(I/%DCWTALLYMAX)=FW.FWOL(LDFW.STATE-4)-I;

   5609  1 000634   200011 236100                    LDQ     I,,AUTO
         1 000635   010000 506007                    DIV     4096,DL
         1 000636   200024 756100                    STQ     WAITTIME+2,,AUTO
         1 000637   000024 236100                    LDQ     20,,PR0
         1 000640   000022 772000                    QRL     18
         1 000641   000001 736000                    QLS     1
         1 000642   000100 101506                    MRL     fill='000'O
         1 000643   100001 000002                    ADSC9   1,Q,PR1                  cn=0,n=2
         1 000644   200025 000004                    ADSC9   WAITTIME+3,,AUTO         cn=0,n=4
         1 000645   200025 236100                    LDQ     WAITTIME+3,,AUTO
         1 000646   200011 136100                    SBLQ    I,,AUTO
         1 000647   200024 720100                    LXL0    WAITTIME+2,,AUTO
         1 000650   100007 676110                    ERQ     7,X0,PR1
         1 000651   007777 376007                    ANQ     4095,DL
         1 000652   100007 656110                    ERSQ    7,X0,PR1

     1046     5610    2              FW.DCW.TYPE(I/%DCWTALLYMAX)=%DCW_IOTD;

   5610  1 000653   200011 236100                    LDQ     I,,AUTO
         1 000654   010000 506007                    DIV     4096,DL
         1 000655   000000 620006                    EAX0    0,QL
         1 000656   000022 236000 2                  LDQ     18
         1 000657   100007 356110                    ANSQ    7,X0,PR1

     1047     5611    2              END;

     1048     5612    1   CONT:
     1049     5613    1           REQ.OPFLG.REQ='1'B;
PL6.E3A0      #004=NIW$LDFWEA File=NIW$MPC.:E05TSI                               WED 07/30/97 03:43 Page:206

   5613  1 000660   200003 470500       CONT         LDP0    @REQ,,AUTO
         1 000661   000002 236007                    LDQ     2,DL
         1 000662   000004 256100                    ORSQ    4,,PR0

     1050     5614    1   WAIT:
     1051     5615    1           REQ.TYC.EGV='0'B;

   5615  1 000663   200003 470500       WAIT         LDP0    @REQ,,AUTO
         1 000664   000031 236000 xsym               LDQ     B_VECTNIL+25
         1 000665   000021 356100                    ANSQ    17,,PR0

     1052     5616    1           LDFW.STATE=LDFW.STATE+1;

   5616  1 000666   000024 220100                    LDX0    20,,PR0
         1 000667   000001 621010                    EAX1    1,X0
         1 000670   000024 741100                    STX1    20,,PR0

     1053     5617    1           RETURN;

   5617  1 000671   000000 702200 xent               TSX2  ! X66_ARET

IDCW
 Sect OctLoc
   0     000   110000 700000   360000 704000   360000 704000   050000 700200    H...........(...

(unnamed)
 Sect OctLoc
   0     004   000001 ******   115123 120070                                    ....MSP8

(unnamed)
 Sect OctLoc
   2     000   000007 777777   000002 006000   777777 773777   000001 111740    ..............I.
   2     004   000027 400000   100000 000000   000000 000225   000000 000155    ....@..........m
   2     010   000003 006000   000033 006000   000005 006000   000006 006000    ................
   2     014   000007 006000   000027 006000   000000 006000   777777 775777    ................
   2     020   777777 777377   777777 770000   777777 707777                    ............
PL6.E3A0      #004=NIW$LDFWEA File=NIW$MPC.:E05TSI                               WED 07/30/97 03:43 Page:207
     1054     5618    1   END NIW$LDFWEA;
     1055     5619        %EOD;

PL6.E3A0      #004=NIW$LDFWEA File=NIW$MPC.:E05TSI                               WED 07/30/97 03:43 Page:208
--  Include file information  --

   OC_SUBS_C.:E05TOU  is referenced.
   NI_MACROS_C.:E05TOU  cannot be made into a system file and is referenced.
   NI$TABLES.:E05TOU  is referenced.
   N$REQ.:E05TOU  is referenced.
   NI_DATA_R.:E05TOU  cannot be made into a system file and is referenced.
   NI_DATA_C.:E05TOU  is referenced.
   M_INFO_C.:E05TOU  is referenced.
   I$DISK.:E05TOU  cannot be made into a system file and is referenced.
   HF_LOCK_C.:E05TOU  cannot be made into a system file and is referenced.
   HF_DATA_R.:E05TOU  cannot be made into a system file and is referenced.
   FM$GRAN.:E05TOU  is referenced.
   EL_SUBS_C.:E05TOU  is referenced.
   CP_6_SUBS.:E05TOU  is referenced.
   B_STRINGS_C.:E05TOU  is referenced.
   B_SEGIDS_C.:E05TOU  is referenced.
   B_MLSMAC_C.:E05TOU  is referenced.
   B$MAP.:E05TOU  cannot be made into a system file and is referenced.
      No diagnostics issued in procedure NIW$LDFWEA.
PL6.E3A0      #004=NIW$LDFWEA File=NIW$MPC.:E05TSI                               WED 07/30/97 03:43 Page:209

 **** Variables and constants ****

  ****  Section 000 RoData NIW$LDFWEA

  ****  Scalars and arrays  ****
OctLoc.c.b A Datatyp(siz) R M Lvl/name                 OctLoc.c.b A Datatyp(siz) R M Lvl/name

     0-0-0/w BIT         r     1 IDCW(0:3)

  ****  Auto variables  ****

  ****  Scalars and arrays  ****
OctLoc.c.b A Datatyp(siz) R M Lvl/name                 OctLoc.c.b A Datatyp(siz) R M Lvl/name

     3-0-0/w PTR         r     1 @REQ                       4-0-0/w PTR         r     1 DCT$
     5-0-0/w PTR         r     1 DQH$                       6-0-0/w PTR         r     1 DVT$
     7-0-0/w SBIN        r     1 ERRWD                     10-0-0/w PTR         r     1 FW$
    11-0-0/w SBIN        r     1 I                         12-0-0/w PTR         r     1 IREQ$
    14-0-0/w EPTR        r     1 KEYINRTN                  15-0-0/w EPTR        r     1 OCI$MSG
    16-0-0/c UBIN(9)     r     1 OCPARAM                   17-0-0/w SBIN        r     1 PPNO
    *0-0-0/d STRC(1080)  r     1 REQ                       20-0-0/w PTR         r     1 SQH$
    21-0-0/w SBIN        r     1 VPNO                      22-0-0/w SBIN        r     1 WAITTIME

  ****  SYMREF variables  ****

  ****  Scalars and arrays  ****
OctLoc.c.b A Datatyp(siz) R M Lvl/name                 OctLoc.c.b A Datatyp(siz) R M Lvl/name

     0-0-0/w PTR         r     1 B$FIRM$                    0-0-0/w PTR         r     1 B$LS$
     0-0-0/w PTR         r     1 B$MPT$                     0-0-0/w BIT         r     1 HW_IMX
     0-0-0/w PTR         r     1 N$DCT$$                    0-0-0/w PTR         r     1 N$FQ$
     0-0-0/w PTR         r     1 NI$FQ$                     0-0-0/w PTR         r     1 NI$IBUF$
     0-0-0/w PTR         r     1 NI$RP$                     0-0-0/w BIT (72)    r     1 NI_FWGATE

  ****  BASED and DCB variables  ****

  ****  Scalars and arrays  ****
PL6.E3A0      #004=NIW$LDFWEA File=NIW$MPC.:E05TSI                               WED 07/30/97 03:43 Page:210
OctLoc.c.b A Datatyp(siz) R M Lvl/name                 OctLoc.c.b A Datatyp(siz) R M Lvl/name

     0-0-0/w STRC        r     1 B$MAP(0:1023)              0-0-0/d STRC(10368) r     1 B$MLNK
     0-0-0/w STRC(1332)  r     1 DCT                        0-0-0/d STRC(432)   r     1 FW
     0-0-0/w STRC(72)    r     1 LDFW                       0-0-0/w PTR         r     1 N$DCT$(0:0)


   Procedure NIW$LDFWEA requires 442 words for executable code.
   Procedure NIW$LDFWEA requires 30 words of local(AUTO) storage.
PL6.E3A0      #004=NIW$LDFWEA File=NIW$MPC.:E05TSI                               WED 07/30/97 03:43 Page:211
          *** CROSS REFERENCE LISTING ***
**     DENOTES     IDENTIFIER DEFINITION
<<                 IDENTIFIER'S VALUE SET
>>                 IDENTIFIER'S VALUE USED
<>                 IDENTIFIER SET AND/OR USED
--                 IDENTIFIER REFERENCED
PL6.E3A0      #004=NIW$LDFWEA File=NIW$MPC.:E05TSI                               WED 07/30/97 03:43 Page:212
          MINI XREF LISTING

B$FIRM$
      4492**DCL      5566>>IF
B$LS$
      4493**DCL      5575>>ASSIGN   5575>>ASSIGN
B$MAP.RPN
        55**DCL      5568>>ASSIGN
B$MAP.SCTRL
        56**DCL        57--REDEF
B$MLNK.FIRM.FLGS
      5240**DCL      5575<<ASSIGN   5575>>ASSIGN
B$MPT$
      4494**DCL      5568>>ASSIGN
CHKCRPFW
      5529**LABEL    5524--GOTO
CONT
      5613**LABEL    5517--GOTO
DCT
      5340**DCL      5515<>CALL     5547<>CALL     5549<>CALL     5564<>CALL
DCT.DCTX
      5341**DCL      5561>>CALL
DCT.DFLG.MPCBUSY
      5345**DCL      5582<<ASSIGN   5587<<ASSIGN
DCT.DFLG.MPCSUSPENDED
      5345**DCL      5581<<ASSIGN   5586<<ASSIGN
DCT.DFLG.RELOAD
      5344**DCL      5537<<ASSIGN   5553>>IF       5565<<ASSIGN   5585<<ASSIGN
DCT.DP
      5360**DCL      5367--REDEF    5370--REDEF    5371--REDEF    5373--REDEF    5373--REDEF    5374--REDEF
      5375--REDEF    5375--REDEF
DCT.MPC.ALTMPCX
      5369**DCL      5548>>IF       5549>>CALL     5583>>IF       5584>>ASSIGN
DCT.MPC.CRPCHANS
PL6.E3A0      #004=NIW$LDFWEA File=NIW$MPC.:E05TSI                               WED 07/30/97 03:43 Page:213
      5369**DCL      5529>>IF       5533>>ASSIGN
DCT.MPC.FW$
      5368**DCL      5495>>ASSIGN   5566>>IF       5579<<ASSIGN
DCT.MPC.FWNAME
      5370**DCL      5539>>IF       5541>>IF       5592>>IF
DCT.MPC.IOCHANX
      5368**DCL      5368--REDEF
DCT.MPC.LPCHANS
      5369**DCL      5521>>IF       5526>>ASSIGN
DCT.MPC.TYPE
      5368**DCL      5520>>IF
DCT.MSG#
      5360**DCL      5551>>IF       5552<>CALL     5561<>CALL
DCT$
      4498**DCL      5340--IMP-PTR  5494<<ASSIGN   5495>>ASSIGN   5515>>CALL     5520>>IF       5521>>IF
      5526>>ASSIGN   5529>>IF       5533>>ASSIGN   5537>>ASSIGN   5539>>IF       5541>>IF       5547>>CALL
      5548>>IF       5549>>CALL     5551>>IF       5552>>CALL     5553>>IF       5561>>CALL     5561>>CALL
      5564>>CALL     5565>>ASSIGN   5566>>IF       5579>>ASSIGN   5581>>ASSIGN   5582>>ASSIGN   5583>>IF
      5584<<ASSIGN   5584>>ASSIGN   5585>>ASSIGN   5586>>ASSIGN   5587>>ASSIGN   5592>>IF
DONE
      5551**LABEL    5498--GOTO     5519--GOTO     5591--GOTO
DQH.IOCHANX
      5390**DCL      5391--REDEF
DQH.MBX$
      5399**DCL      5400--REDEF
DQH$
      4499**DCL      5388--IMP-PTR
DVT.MPC
      5405**DCL      5406--REDEF
DVT$
      4500**DCL      5403--IMP-PTR
ERRWD
      4501**DCL      5569<>CALL
FM$VID.DTT
      5412**DCL      5412--REDEF
FW.CRPDA
PL6.E3A0      #004=NIW$LDFWEA File=NIW$MPC.:E05TSI                               WED 07/30/97 03:43 Page:214
      5416**DCL      5506>>ASSIGN
FW.DCW.FWA
      5418**DCL      5522<<ASSIGN   5522>>ASSIGN   5599<<ASSIGN   5599>>ASSIGN   5602<<ASSIGN   5602>>ASSIGN
      5608<<ASSIGN   5608>>ASSIGN
FW.DCW.TALLY
      5419**DCL      5603<<ASSIGN   5609<<ASSIGN
FW.DCW.TYPE
      5419**DCL      5604<<ASSIGN   5610<<ASSIGN
FW.FW
      5419**DCL      5526<<ASSIGN   5533<<ASSIGN
FW.FWOL
      5416**DCL      5499>>IF       5510>>ASSIGN   5522>>ASSIGN   5526>>ASSIGN   5526>>ASSIGN   5533>>ASSIGN
      5533>>ASSIGN   5533>>ASSIGN   5599>>ASSIGN   5601>>DOWHILE  5607>>IF       5609>>ASSIGN
FW.IDCW
      5416**DCL      5598<<ASSIGN
FW.IDCW.EXTA
      5417**DCL      5417--REDEF
FW.LPDA
      5416**DCL      5504>>ASSIGN
FW$
      4502**DCL      5416--IMP-PTR  5495<<ASSIGN   5499>>IF       5504>>ASSIGN   5506>>ASSIGN   5510>>ASSIGN
      5522>>ASSIGN   5522>>ASSIGN   5522>>ASSIGN   5526>>ASSIGN   5526>>ASSIGN   5526>>ASSIGN   5533>>ASSIGN
      5533>>ASSIGN   5533>>ASSIGN   5533>>ASSIGN   5598>>ASSIGN   5599>>ASSIGN   5599>>ASSIGN   5599>>ASSIGN
      5601>>DOWHILE  5602>>ASSIGN   5602>>ASSIGN   5603>>ASSIGN   5604>>ASSIGN   5607>>IF       5608>>ASSIGN
      5608>>ASSIGN   5609>>ASSIGN   5609>>ASSIGN   5610>>ASSIGN
FWLOADED
      5537**LABEL    5520--GOTO
HFC$LOCK
      2471**DCL-ENT  5573--CALL
HFC$UNLOCK
      2471**DCL-ENT  5577--CALL
HW_IMX
      2457**DCL      5539>>IF       5592>>IF
I
      4503**DCL      5545<<DOINDEX  5596<<DOINDEX  5600<<ASSIGN   5601>>DOWHILE  5602>>ASSIGN   5602>>ASSIGN
      5603>>ASSIGN   5604>>ASSIGN   5605<<ASSIGN   5605>>ASSIGN   5607>>IF       5608>>ASSIGN   5608>>ASSIGN
PL6.E3A0      #004=NIW$LDFWEA File=NIW$MPC.:E05TSI                               WED 07/30/97 03:43 Page:215
      5609>>ASSIGN   5609>>ASSIGN   5610>>ASSIGN
I$DISKDIR.FW.NAME
      2722**DCL      2723--REDEF
I$DISKDIR.MONID.M
      2682**DCL      2685--REDEF
IDCW
      5479**DCL      5598>>ASSIGN
IREQ.DCW
      5432**DCL      5435--REDEF
IREQ.DCW.TALLY
      5433**DCL      5433--REDEF
IREQ.IDCW.EXTA
      5435**DCL      5435--REDEF
IREQ.PCW
      5437**DCL      5441--REDEF
IREQ.SEEK
      5442**DCL      5443--REDEF    5444--REDEF
IREQ$
      4504**DCL      5430--IMP-PTR
LDFW.DCTX
      5461**DCL      5494>>ASSIGN
LDFW.SEGSIZE
      5458**DCL      5570>>IF
LDFW.STATE
      5447**DCL      5496>>DOCASE   5499>>IF       5502>>DOCASE   5510>>ASSIGN   5513<<ASSIGN   5523<<ASSIGN
      5530<<ASSIGN   5598>>ASSIGN   5599>>ASSIGN   5601>>DOWHILE  5607>>IF       5609>>ASSIGN   5616<<ASSIGN
      5616>>ASSIGN
MMB$FPP
      4476**DCL-ENT  5570--CALL
MME$CVM
      4477**DCL-ENT  5569--CALL
N$DCT$
      3409**DCL      5494>>ASSIGN   5549>>CALL     5584>>ASSIGN
N$DCT$$
      3275**DCL      3409--IMP-PTR  5494>>ASSIGN   5549>>CALL     5584>>ASSIGN
N$FQ$
PL6.E3A0      #004=NIW$LDFWEA File=NIW$MPC.:E05TSI                               WED 07/30/97 03:43 Page:216
      3275**DCL      3410--IMP-PTR
N$REQ_INIT.BUFADDR
      3294**DCL      3295--REDEF    3295--REDEF
N$REQ_INIT.DLA.DRELADDR
      3286**DCL      3286--REDEF
N$REQ_INIT.DVE.EOMCHAR
      3323**DCL      3324--REDEF
N$REQ_INIT.EAINFO
      3317**DCL      3317--REDEF
N$REQ_INIT.EAINFOX
      3317**DCL      3318--REDEF
N$REQ_INIT.EVNTINFO
      3318**DCL      3318--REDEF
N$REQ_INIT.STATUS
      3299**DCL      3305--REDEF
NI$FQ$
      3335**DCL      3411--IMP-PTR
NI$IBUF$
      3335**DCL      3411--IMP-PTR
NI$IMXMBX_INIT.PAGED_BASE
      3345**DCL      3346--REDEF    3346--REDEF
NI$IMXMBX_INIT.SIZE
      3347**DCL      3347--REDEF
NI$REQ_INIT.DCW
      3369**DCL      3372--REDEF
NI$REQ_INIT.DCW.TALLY
      3370**DCL      3370--REDEF
NI$REQ_INIT.IDCW.EXTA
      3372**DCL      3372--REDEF
NI$REQ_INIT.PCW
      3374**DCL      3378--REDEF
NI$REQ_INIT.SEEK
      3379**DCL      3380--REDEF    3381--REDEF
NI$RP$
      3383**DCL      3413--IMP-PTR
NIA$FWLOAD
PL6.E3A0      #004=NIW$LDFWEA File=NIW$MPC.:E05TSI                               WED 07/30/97 03:43 Page:217
      4478**DCL-ENT  5564--CALL
NIW$LDFWS
      4484**DCL-ENT  5515--CALL
NIW$MPCSTART
      4485**DCL-ENT  5547--CALL     5549--CALL
NI_FWGATE
      3384**DCL      5573<>CALL     5577<>CALL
NI_MBX_INIT.DCW.CONTROL.AE
      3405**DCL      3405--REDEF
NI_MBX_INIT.LPW.CONTROL.AE
      3401**DCL      3401--REDEF
OCI$MK_STTM
      4486**DCL-ENT  5552--CALL
OCI$MK_WR
      4487**DCL-ENT  5559--ASSIGN
OCI$MK_WRTM
      4488**DCL-ENT  5555--ASSIGN
OCI$MSG
      4507**DCL      5555<<ASSIGN   5559<<ASSIGN   5561>>CALL
OCPARAM
      4508**DCL      5554<<ASSIGN   5558<<ASSIGN   5561<>CALL
PPNO
      4509**DCL      5568<<ASSIGN   5570<>CALL
REQ
      4424**DCL         9--PROC
REQ.BUF$
      4433**DCL      5500<<ASSIGN   5500>>ASSIGN
REQ.BUFADDR
      4433**DCL      4434--REDEF    4434--REDEF
REQ.BUFSIZE
      4427**DCL      5500>>ASSIGN   5510<<ASSIGN
REQ.DLA.DRELADDR
      4425**DCL      4425--REDEF    5504<<ASSIGN   5506<<ASSIGN
REQ.DVE.EOMCHAR
      4462**DCL      4463--REDEF
REQ.EAINFO
PL6.E3A0      #004=NIW$LDFWEA File=NIW$MPC.:E05TSI                               WED 07/30/97 03:43 Page:218
      4456**DCL      4456--REDEF    5494--ASSIGN   5496--DOCASE   5499--IF       5502--DOCASE   5510--ASSIGN
      5513--ASSIGN   5523--ASSIGN   5530--ASSIGN   5570--IF       5598--ASSIGN   5599--ASSIGN   5601--DOWHILE
      5607--IF       5609--ASSIGN   5616--ASSIGN   5616--ASSIGN
REQ.EAINFOX
      4456**DCL      4457--REDEF
REQ.EVNTINFO
      4457**DCL      4457--REDEF
REQ.OPFLG.BPF
      4432**DCL      5501<<ASSIGN
REQ.OPFLG.REQ
      4432**DCL      5613<<ASSIGN
REQ.STATUS
      4438**DCL      4444--REDEF
REQ.TYC
      4446**DCL      5498>>IF       5519>>IF       5591>>IF
REQ.TYC.EGV
      4446**DCL      5615<<ASSIGN
SQH.DOOR
      5472**DCL      5472--REDEF
SQH$
      4510**DCL      5472--IMP-PTR
VPNO
      4511**DCL      5567<<DOINDEX  5568>>ASSIGN   5569<>CALL
WAIT
      5615**LABEL    5515--CALLALT
WAITTIME
      4512**DCL      5540<<ASSIGN   5542<<ASSIGN   5544<<ASSIGN   5545>>DOINDEX  5593<<ASSIGN   5595<<ASSIGN
      5596>>DOINDEX
WRITECSO
      5515**LABEL    5508--GOTO

PL6.E3A0      #005=NIW$MPCSTOP File=NIW$MPC.:E05TSI                              WED 07/30/97 03:44 Page:219
     1056        1        /*T***********************************************************/
     1057        2        /*T*                                                         */
     1058        3        /*T* Copyright (c) Bull HN Information Systems Inc., 1997    */
     1059        4        /*T*                                                         */
     1060        5        /*T***********************************************************/
     1061        6        NIW$MPCSTOP: PROC(DCT);
     1062        7        /*
     1063        8                Includes
     1064        9        */
     1065       10        %INCLUDE                HF_LOCK_C ;
     1066       24        %INCLUDE                NI_DATA_R ;
     1067      461        %INCLUDE                NI_DATA_C ;
     1068      574        %INCLUDE                NI_MACROS_C ;
     1069      841        %INCLUDE                N_FC_C ;
     1070      878        /*
     1071      879                Parameters
     1072      880        */
     1073      881        %NI$DCT                 ( NAME=DCT, STCLASS=PARAM ) ;
     1074      929        /*
     1075      930                Entries
     1076      931        */
     1077      932    1   DCL 1 NIW$DQHSTART      ENTRY(1) ALTRET ;
     1078      933    1   DCL 1 NIW$LDFWR         ENTRY(2) ALTRET ;
     1079      934    1   DCL 1 NIW$SCANAQ        ENTRY(1) ;
     1080      935    1   DCL 1 OCI$MK_STTM       ENTRY(1) ;
     1081      936        /*
     1082      937                Symrefs
     1083      938        */
     1084      939    1   DCL 1 IT_CP6UP          UBIN WORD SYMREF ;
     1085      940        %NI$PARTITION           ( NAME=IT_PARTITION, STCLASS=SYMREF ) ;
     1086      948        /*
     1087      949                Auto
     1088      950        */
     1089      951    1   DCL 1 DCT$              PTR ALIGNED AUTO ;
     1090      952    1   DCL 1 DQH$              PTR ALIGNED AUTO ;
     1091      953    1   DCL 1 DVSCH             EPTR ALIGNED AUTO ;
     1092      954    1   DCL 1 I                 SBIN ALIGNED AUTO ;
PL6.E3A0      #005=NIW$MPCSTOP File=NIW$MPC.:E05TSI                              WED 07/30/97 03:44 Page:220
     1093      955    1   DCL 1 SQH$              PTR ALIGNED AUTO ;
     1094      956    1   DCL 1 STOPPED           BIT(1) ALIGNED AUTO ;
     1095      957    1   DCL 1 SVDQH$            PTR ALIGNED AUTO ;
     1096      958        /*
     1097      959                Based
     1098      960        */
     1099      961        %NI$DQH                 ( NAME=DQH,           STCLASS="BASED(DQH$)" ) ;
     1100      984        %NI$DVT                 ( NAME=DVT,           STCLASS=BASED ) ;
     1101      991        %NI$CHT                 ( NAME="NI$CHT(0:0)", STCLASS="BASED(NI$CHT$)" ) ;
     1102      994        %NI$DCT                 ( NAME=NI$DCT,        STCLASS="BASED(DCT$)" ) ;
     1103     1042        %NI$SQH                 ( NAME=SQH,           STCLASS="BASED(SQH$)" ) ;
     1104     1055        /*
     1105     1056                Constants
     1106     1057        */
     1107     1058        %SUB NEVER="WHILE('0'B)";
     1108     1059        %SUB FOREVER="WHILE('1'B)";
     1109     1060        %EJECT;
PL6.E3A0      #005=NIW$MPCSTOP File=NIW$MPC.:E05TSI                              WED 07/30/97 03:44 Page:221
     1110     1061    1           IF DCT.DFLG.MPCSTOP THEN RETURN;
     1111     1062    1           DCT$=ADDR(DCT);
     1112     1063    1           SQH$=DCT.SQH$;
     1113     1064    1           SVDQH$=ADDR(NIL);
     1114     1065                %LOCK (G#=SQH.GATE);
     1115     1068    2           DO WHILE(SQH.CQ$~=ADDR(NIL));
     1116     1069                   %DEQUEUE (P#=DQH$,Q#=SQH.CQ$);
     1117     1076    3              IF DQH.MPC$~=DCT$ THEN DO;
     1118     1077                      %ENQUEUE (P#=DQH,Q#=SVDQH$);
     1119     1080    3                 END;
     1120     1081    2              END;
     1121     1082    1           SQH.CQ$=SVDQH$;
     1122     1083    1           STOPPED='1'B;
     1123     1084    2           DO I=0 TO %N_CHANSPERMPC-1;
     1124     1085    3              IF DCT.MPC.IOCHANX(I)~=0 THEN DO;
     1125     1086    3                 DQH$=NI$CHT.DQH$(DCT.MPC.IOCHANX(I));
     1126     1087    3                 DQH.CHANSTATE.STOP='1'B;
     1127     1088    3                 IF DQH.STATE~=%IDLE THEN STOPPED='0'B;
     1128     1089    3                 END;
     1129     1090    2              END;
     1130     1091                %UNLOCK (G#=SQH.GATE);
     1131     1094    2           IF STOPPED THEN DO;
     1132     1095    2              DCT.DFLG.MPCSTOP='1'B;
     1133     1096    3              IF DCT.DFLG.RELOAD THEN DO;
     1134     1097    3                 CALL NIW$LDFWR(DCT,'0'B);
     1135     1098    3                 END;
     1136     1099    2              END;
     1137     1100    1           CALL NIW$SCANAQ(SQH);
     1138     1101    1           RETURN;
     1139     1102        %EJECT;
PL6.E3A0      #005=NIW$MPCSTOP File=NIW$MPC.:E05TSI                              WED 07/30/97 03:44 Page:222
     1140     1103    1   NIW$MPCSTART: ENTRY(DCT);
     1141     1104    1           IF NOT DCT.DFLG.MPCSTOP THEN RETURN;
     1142     1105    1           DCT.DFLG.MPCSTOP='0'B;
     1143     1106    1           SQH$=DCT.SQH$;
     1144     1107    2           DO  I = 0 TO %N_CHANSPERMPCM1;
     1145     1108    2              IF  DCT.MPC.IOCHANX(I) ~= 0
     1146     1109    3              THEN DO ;
     1147     1110    3                 DQH$ = NI$CHT.DQH$(DCT.MPC.IOCHANX(I)) ;
     1148     1111    3                 DQH.CHANSTATE.STOP = '0'B ;
     1149     1112    3                 IF  IT_CP6UP = 0
     1150     1113    3                 THEN
     1151     1114    3                    IF  IT_PARTITION.IOCHAN(DQH.IOCHANX)
     1152     1115    3                      OR  IT_PARTITION.MSOS_IOCHAN(DQH.IOCHANX)
     1153     1116    3                    THEN
     1154     1117    3    /*  Do Nothing  */ ;
     1155     1118    3                    ELSE
     1156     1119    3                       GOTO DQHSTART ;
     1157     1120    3                 ELSE
     1158     1121    3                    IF  DQH.STATUS.DOWN
     1159     1122    3                    THEN
     1160     1123    3    /*  Do Nothing  */ ;
     1161     1124    3                    ELSE
     1162     1125    3   DQHSTART:           CALL NIW$DQHSTART ( DQH ) ;
     1163     1126    3                 END ;
     1164     1127    2              END ;
     1165     1128    2           DO I=SQH.FDCT TO SQH.NDCT+SQH.FDCT-1;
     1166     1129    2              DCT$=N$DCT$(I);
     1167     1130    3              IF NI$DCT.STATE=%MPCWAIT THEN DO;
     1168     1131    4                 IF NI$DCT.MSG#~=0 THEN DO;
     1169     1132    4                    CALL OCI$MK_STTM(NI$DCT.MSG#);
     1170     1133    4                    NI$DCT.MSG#=0;
     1171     1134    4                    END;
     1172     1135    3                 DVSCH=NI$DCT.DVT$->DVT.DVSCH;
     1173     1136    3                 CALL DVSCH(NI$DCT,%IDLE);
     1174     1137    3                 END;
     1175     1138    2              END;
     1176     1139    1           CALL NIW$SCANAQ(SQH);
PL6.E3A0      #005=NIW$MPCSTOP File=NIW$MPC.:E05TSI                              WED 07/30/97 03:44 Page:223
     1177     1140    1           RETURN;
     1178     1141    1   END NIW$MPCSTOP;
     1179     1142        %EOD;

PL6.E3A0      #005=NIW$MPCSTOP File=NIW$MPC.:E05TSI                              WED 07/30/97 03:44 Page:224
--  Include file information  --

   N_FC_C.:E05TOU  is referenced.
   NI_MACROS_C.:E05TOU  cannot be made into a system file and is referenced.
   NI_DATA_C.:E05TOU  is referenced.
   NI$TABLES.:E05TOU  is referenced.
   N$REQ.:E05TOU  is referenced.
   NI_DATA_R.:E05TOU  cannot be made into a system file and is referenced.
   HF_LOCK_C.:E05TOU  cannot be made into a system file and is referenced.
      No diagnostics issued in procedure NIW$MPCSTOP.

   Procedure NIW$MPCSTOP requires 210 words for executable code.
   Procedure NIW$MPCSTOP requires 14 words of local(AUTO) storage.

PL6.E3A0      #005=NIW$MPCSTOP File=NIW$MPC.:E05TSI                              WED 07/30/97 03:44 Page:225

 Object Unit name= NIW$MPCSTOP                                File name= NIW$MPC.:E05TOU
 UTS= JUL 30 '97 03:44:21.52 WED                              Compiler= PL-6/E31         Sev=      00
 SharedLib= :SHARED_SYSTEM                                    Alt SharedLib=


    ****  Control sections  ****

 Sect   Type Bound  Init  Size OctSiz  Section name(segment info)
    0   Proc  even  none   210    322  NIW$MPCSTOP
    1  RoData even  none     3      3  NIW$MPCSTOP

    ****  Entry defs  ****

                              Check   Calling
                             calling  sequence
  Sect OctLoc Primary Altret sequence   type   Parms  Name
     0      0   yes            yes      Std        1  NIW$MPCSTOP
     0    144                  yes      Std        1  NIW$MPCSTART

  ****  Entry refs  ****

         Check        Calling
        calling       sequence
Altret sequence SRef   type   Args  Name
         yes           Std       1 HFC$LOCK
 yes     yes           Std       2 NIM$DEQUEUE
         yes           Std       1 HFC$UNLOCK
 yes     yes           Std       2 NIW$LDFWR
 yes     yes           Std       1 NIW$DQHSTART
         yes           Std       1 OCI$MK_STTM
         yes           Std       2 NIM$ENQUEUE
         yes           Std       1 NIW$SCANAQ
                       nStd      0 X66_AUTO_1
                       nStd      0 X66_ARET
                       Std       0 B_CONSPOOL_D
PL6.E3A0      #005=NIW$MPCSTOP File=NIW$MPC.:E05TSI                              WED 07/30/97 03:44 Page:226

  ****  Data refs  ****

  Flags:  r = read only, s = secondary
Flgs Name                             Flgs Name                             Flgs Name
     N$DCT$$                               N$FQ$                                 NI$CHT$
     NI$FQ$                                NI$IBUF$                              NI$RP$
     IT_CP6UP                              IT_PARTITION                          B_VECTNIL

  ****  Segment refs  ****

  Flags:  r = read only, s = secondary
Flgs Name                             Flgs Name                             Flgs Name
     ISSID
PL6.E3A0      #005=NIW$MPCSTOP File=NIW$MPC.:E05TSI                              WED 07/30/97 03:44 Page:227


     1056        1        /*T***********************************************************/
     1057        2        /*T*                                                         */
     1058        3        /*T* Copyright (c) Bull HN Information Systems Inc., 1997    */
     1059        4        /*T*                                                         */
     1060        5        /*T***********************************************************/
     1061        6        NIW$MPCSTOP: PROC(DCT);

      6  0 000000   000000 700200 xent  NIW$MPCSTOP  TSX0  ! X66_AUTO_1
         0 000001   000016 000001                    ZERO    14,1

     1062        7        /*
     1063        8                Includes
     1064        9        */
     1065       10        %INCLUDE                HF_LOCK_C ;
     1066       24        %INCLUDE                NI_DATA_R ;
     1067      461        %INCLUDE                NI_DATA_C ;
     1068      574        %INCLUDE                NI_MACROS_C ;
     1069      841        %INCLUDE                N_FC_C ;
     1070      878        /*
     1071      879                Parameters
     1072      880        */
     1073      881        %NI$DCT                 ( NAME=DCT, STCLASS=PARAM ) ;
     1074      929        /*
     1075      930                Entries
     1076      931        */
     1077      932    1   DCL 1 NIW$DQHSTART      ENTRY(1) ALTRET ;
     1078      933    1   DCL 1 NIW$LDFWR         ENTRY(2) ALTRET ;
     1079      934    1   DCL 1 NIW$SCANAQ        ENTRY(1) ;
     1080      935    1   DCL 1 OCI$MK_STTM       ENTRY(1) ;
     1081      936        /*
     1082      937                Symrefs
     1083      938        */
     1084      939    1   DCL 1 IT_CP6UP          UBIN WORD SYMREF ;
     1085      940        %NI$PARTITION           ( NAME=IT_PARTITION, STCLASS=SYMREF ) ;
     1086      948        /*
     1087      949                Auto
PL6.E3A0      #005=NIW$MPCSTOP File=NIW$MPC.:E05TSI                              WED 07/30/97 03:44 Page:228
     1088      950        */
     1089      951    1   DCL 1 DCT$              PTR ALIGNED AUTO ;
     1090      952    1   DCL 1 DQH$              PTR ALIGNED AUTO ;
     1091      953    1   DCL 1 DVSCH             EPTR ALIGNED AUTO ;
     1092      954    1   DCL 1 I                 SBIN ALIGNED AUTO ;
     1093      955    1   DCL 1 SQH$              PTR ALIGNED AUTO ;
     1094      956    1   DCL 1 STOPPED           BIT(1) ALIGNED AUTO ;
     1095      957    1   DCL 1 SVDQH$            PTR ALIGNED AUTO ;
     1096      958        /*
     1097      959                Based
     1098      960        */
     1099      961        %NI$DQH                 ( NAME=DQH,           STCLASS="BASED(DQH$)" ) ;
     1100      984        %NI$DVT                 ( NAME=DVT,           STCLASS=BASED ) ;
     1101      991        %NI$CHT                 ( NAME="NI$CHT(0:0)", STCLASS="BASED(NI$CHT$)" ) ;
     1102      994        %NI$DCT                 ( NAME=NI$DCT,        STCLASS="BASED(DCT$)" ) ;
     1103     1042        %NI$SQH                 ( NAME=SQH,           STCLASS="BASED(SQH$)" ) ;
     1104     1055        /*
     1105     1056                Constants
     1106     1057        */
     1107     1058        %SUB NEVER="WHILE('0'B)";
     1108     1059        %SUB FOREVER="WHILE('1'B)";
     1109     1060        %EJECT;
PL6.E3A0      #005=NIW$MPCSTOP File=NIW$MPC.:E05TSI                              WED 07/30/97 03:44 Page:229
     1110     1061    1           IF DCT.DFLG.MPCSTOP THEN RETURN;

   1061  0 000002   200003 470500                    LDP0    @DCT,,AUTO
         0 000003   000006 236100                    LDQ     6,,PR0
         0 000004   001000 316007                    CANQ    512,DL
         0 000005   000007 600000 0                  TZE     s:1062

   1061  0 000006   000000 702200 xent               TSX2  ! X66_ARET

     1111     1062    1           DCT$=ADDR(DCT);

   1062  0 000007   200003 236100                    LDQ     @DCT,,AUTO
         0 000010   200004 756100                    STQ     DCT$,,AUTO

     1112     1063    1           SQH$=DCT.SQH$;

   1063  0 000011   000022 236100                    LDQ     18,,PR0
         0 000012   200010 756100                    STQ     SQH$,,AUTO

     1113     1064    1           SVDQH$=ADDR(NIL);

   1064  0 000013   000001 236000 xsym               LDQ     B_VECTNIL+1
         0 000014   200012 756100                    STQ     SVDQH$,,AUTO

     1114     1065                %LOCK (G#=SQH.GATE);

   1066  0 000015   200010 630500                    EPPR0   SQH$,,AUTO
         0 000016   000017 631400 xsym               EPPR1   B_VECTNIL+15
         0 000017   000000 701000 xent               TSX1    HFC$LOCK
         0 000020   000000 011000                    NOP     0

     1115     1068    2           DO WHILE(SQH.CQ$~=ADDR(NIL));

   1068  0 000021   000047 710000 0                  TRA     s:1081

     1116     1069                   %DEQUEUE (P#=DQH$,Q#=SQH.CQ$);

PL6.E3A0      #005=NIW$MPCSTOP File=NIW$MPC.:E05TSI                              WED 07/30/97 03:44 Page:230
   1073  0 000022   200010 236100                    LDQ     SQH$,,AUTO
         0 000023   000004 036003                    ADLQ    4,DU
         0 000024   200015 756100                    STQ     SVDQH$+3,,AUTO
         0 000025   200005 630500                    EPPR0   DQH$,,AUTO
         0 000026   200014 450500                    STP0    SVDQH$+2,,AUTO
         0 000027   200014 630500                    EPPR0   SVDQH$+2,,AUTO
         0 000030   000020 631400 xsym               EPPR1   B_VECTNIL+16
         0 000031   000000 701000 xent               TSX1    NIM$DEQUEUE
         0 000032   000000 011000                    NOP     0

     1117     1076    3              IF DQH.MPC$~=DCT$ THEN DO;

   1076  0 000033   200005 470500                    LDP0    DQH$,,AUTO
         0 000034   000015 236100                    LDQ     13,,PR0
         0 000035   200004 116100                    CMPQ    DCT$,,AUTO
         0 000036   000047 600000 0                  TZE     s:1081

     1118     1077                      %ENQUEUE (P#=DQH,Q#=SVDQH$);

   1078  0 000037   200012 631500                    EPPR1   SVDQH$,,AUTO
         0 000040   200015 451500                    STP1    SVDQH$+3,,AUTO
         0 000041   200005 236100                    LDQ     DQH$,,AUTO
         0 000042   200014 756100                    STQ     SVDQH$+2,,AUTO
         0 000043   200014 630500                    EPPR0   SVDQH$+2,,AUTO
         0 000044   000020 631400 xsym               EPPR1   B_VECTNIL+16
         0 000045   000000 701000 xent               TSX1    NIM$ENQUEUE
         0 000046   000000 011000                    NOP     0

     1119     1080    3                 END;

     1120     1081    2              END;

   1081  0 000047   200010 470500                    LDP0    SQH$,,AUTO
         0 000050   000004 236100                    LDQ     4,,PR0
         0 000051   000001 116000 xsym               CMPQ    B_VECTNIL+1
         0 000052   000022 601000 0                  TNZ     s:1073

PL6.E3A0      #005=NIW$MPCSTOP File=NIW$MPC.:E05TSI                              WED 07/30/97 03:44 Page:231
     1121     1082    1           SQH.CQ$=SVDQH$;

   1082  0 000053   200012 236100                    LDQ     SVDQH$,,AUTO
         0 000054   000004 756100                    STQ     4,,PR0

     1122     1083    1           STOPPED='1'B;

   1083  0 000055   400000 236003                    LDQ     -131072,DU
         0 000056   200011 756100                    STQ     STOPPED,,AUTO

     1123     1084    2           DO I=0 TO %N_CHANSPERMPC-1;

   1084  0 000057   200007 450100                    STZ     I,,AUTO
         0 000060   000111 710000 0                  TRA     s:1090+1

     1124     1085    3              IF DCT.MPC.IOCHANX(I)~=0 THEN DO;

   1085  0 000061   200003 470500                    LDP0    @DCT,,AUTO
         0 000062   200007 235100                    LDA     I,,AUTO
         0 000063   000100 101505                    MRL     fill='000'O
         0 000064   000031 000001                    ADSC9   25,A,PR0                 cn=0,n=1
         0 000065   200014 000004                    ADSC9   SVDQH$+2,,AUTO           cn=0,n=4
         0 000066   200014 236100                    LDQ     SVDQH$+2,,AUTO
         0 000067   000000 116003                    CMPQ    0,DU
         0 000070   000110 600000 0                  TZE     s:1090

     1125     1086    3                 DQH$=NI$CHT.DQH$(DCT.MPC.IOCHANX(I));

   1086  0 000071   000100 101505                    MRL     fill='000'O
         0 000072   000031 000001                    ADSC9   25,A,PR0                 cn=0,n=1
         0 000073   200014 000002                    ADSC9   SVDQH$+2,,AUTO           cn=0,n=2
         0 000074   200014 220100                    LDX0    SVDQH$+2,,AUTO
         0 000075   200014 020100                    ADLX0   SVDQH$+2,,AUTO
         0 000076   000000 471400 xsym               LDP1    NI$CHT$
         0 000077   100000 236110                    LDQ     0,X0,PR1
         0 000100   200005 756100                    STQ     DQH$,,AUTO

PL6.E3A0      #005=NIW$MPCSTOP File=NIW$MPC.:E05TSI                              WED 07/30/97 03:44 Page:232
     1126     1087    3                 DQH.CHANSTATE.STOP='1'B;

   1087  0 000101   200005 473500                    LDP3    DQH$,,AUTO
         0 000102   400000 236003                    LDQ     -131072,DU
         0 000103   300020 256100                    ORSQ    16,,PR3

     1127     1088    3                 IF DQH.STATE~=%IDLE THEN STOPPED='0'B;

   1088  0 000104   300001 236100                    LDQ     1,,PR3
         0 000105   000077 316007                    CANQ    63,DL
         0 000106   000110 600000 0                  TZE     s:1090

   1088  0 000107   200011 450100                    STZ     STOPPED,,AUTO

     1128     1089    3                 END;

     1129     1090    2              END;

   1090  0 000110   200007 054100                    AOS     I,,AUTO
         0 000111   200007 235100                    LDA     I,,AUTO
         0 000112   000017 115007                    CMPA    15,DL
         0 000113   000061 604400 0                  TMOZ    s:1085

     1130     1091                %UNLOCK (G#=SQH.GATE);

   1092  0 000114   200010 630500                    EPPR0   SQH$,,AUTO
         0 000115   000017 631400 xsym               EPPR1   B_VECTNIL+15
         0 000116   000000 701000 xent               TSX1    HFC$UNLOCK
         0 000117   000000 011000                    NOP     0

     1131     1094    2           IF STOPPED THEN DO;

   1094  0 000120   200011 234100                    SZN     STOPPED,,AUTO
         0 000121   000137 605000 0                  TPL     s:1100

     1132     1095    2              DCT.DFLG.MPCSTOP='1'B;

PL6.E3A0      #005=NIW$MPCSTOP File=NIW$MPC.:E05TSI                              WED 07/30/97 03:44 Page:233
   1095  0 000122   200003 470500                    LDP0    @DCT,,AUTO
         0 000123   001000 236007                    LDQ     512,DL
         0 000124   000006 256100                    ORSQ    6,,PR0

     1133     1096    3              IF DCT.DFLG.RELOAD THEN DO;

   1096  0 000125   000006 236100                    LDQ     6,,PR0
         0 000126   004000 316007                    CANQ    2048,DL
         0 000127   000137 600000 0                  TZE     s:1100

     1134     1097    3                 CALL NIW$LDFWR(DCT,'0'B);

   1097  0 000130   000000 236000 1                  LDQ     0
         0 000131   200003 235100                    LDA     @DCT,,AUTO
         0 000132   200014 757100                    STAQ    SVDQH$+2,,AUTO
         0 000133   200014 630500                    EPPR0   SVDQH$+2,,AUTO
         0 000134   000020 631400 xsym               EPPR1   B_VECTNIL+16
         0 000135   000000 701000 xent               TSX1    NIW$LDFWR
         0 000136   000000 011000                    NOP     0

     1135     1098    3                 END;

     1136     1099    2              END;

     1137     1100    1           CALL NIW$SCANAQ(SQH);

   1100  0 000137   200010 630500                    EPPR0   SQH$,,AUTO
         0 000140   000017 631400 xsym               EPPR1   B_VECTNIL+15
         0 000141   000000 701000 xent               TSX1    NIW$SCANAQ
         0 000142   000000 011000                    NOP     0

     1138     1101    1           RETURN;

   1101  0 000143   000000 702200 xent               TSX2  ! X66_ARET

     1139     1102        %EJECT;
PL6.E3A0      #005=NIW$MPCSTOP File=NIW$MPC.:E05TSI                              WED 07/30/97 03:44 Page:234
     1140     1103    1   NIW$MPCSTART: ENTRY(DCT);

   1103  0 000144   000000 700200 xent  NIW$MPCSTART TSX0  ! X66_AUTO_1
         0 000145   000016 000001                    ZERO    14,1

     1141     1104    1           IF NOT DCT.DFLG.MPCSTOP THEN RETURN;

   1104  0 000146   200003 470500                    LDP0    @DCT,,AUTO
         0 000147   000006 236100                    LDQ     6,,PR0
         0 000150   001000 316007                    CANQ    512,DL
         0 000151   000153 601000 0                  TNZ     s:1105

   1104  0 000152   000000 702200 xent               TSX2  ! X66_ARET

     1142     1105    1           DCT.DFLG.MPCSTOP='0'B;

   1105  0 000153   000001 236000 1                  LDQ     1
         0 000154   000006 356100                    ANSQ    6,,PR0

     1143     1106    1           SQH$=DCT.SQH$;

   1106  0 000155   000022 236100                    LDQ     18,,PR0
         0 000156   200010 756100                    STQ     SQH$,,AUTO

     1144     1107    2           DO  I = 0 TO %N_CHANSPERMPCM1;

   1107  0 000157   200007 450100                    STZ     I,,AUTO

     1145     1108    2              IF  DCT.MPC.IOCHANX(I) ~= 0

   1108  0 000160   200003 470500                    LDP0    @DCT,,AUTO
         0 000161   200007 235100                    LDA     I,,AUTO
         0 000162   000100 101505                    MRL     fill='000'O
         0 000163   000031 000001                    ADSC9   25,A,PR0                 cn=0,n=1
         0 000164   200014 000004                    ADSC9   SVDQH$+2,,AUTO           cn=0,n=4
         0 000165   200014 236100                    LDQ     SVDQH$+2,,AUTO
         0 000166   000000 116003                    CMPQ    0,DU
PL6.E3A0      #005=NIW$MPCSTOP File=NIW$MPC.:E05TSI                              WED 07/30/97 03:44 Page:235
         0 000167   000230 600000 0                  TZE     s:1127

     1146     1109    3              THEN DO ;

     1147     1110    3                 DQH$ = NI$CHT.DQH$(DCT.MPC.IOCHANX(I)) ;

   1110  0 000170   000100 101505                    MRL     fill='000'O
         0 000171   000031 000001                    ADSC9   25,A,PR0                 cn=0,n=1
         0 000172   200014 000002                    ADSC9   SVDQH$+2,,AUTO           cn=0,n=2
         0 000173   200014 220100                    LDX0    SVDQH$+2,,AUTO
         0 000174   200014 020100                    ADLX0   SVDQH$+2,,AUTO
         0 000175   000000 471400 xsym               LDP1    NI$CHT$
         0 000176   100000 236110                    LDQ     0,X0,PR1
         0 000177   200005 756100                    STQ     DQH$,,AUTO

     1148     1111    3                 DQH.CHANSTATE.STOP = '0'B ;

   1111  0 000200   200005 473500                    LDP3    DQH$,,AUTO
         0 000201   000031 236000 xsym               LDQ     B_VECTNIL+25
         0 000202   300020 356100                    ANSQ    16,,PR3

     1149     1112    3                 IF  IT_CP6UP = 0

   1112  0 000203   000000 235000 xsym               LDA     IT_CP6UP
         0 000204   000221 601000 0                  TNZ     s:1121

     1150     1113    3                 THEN
     1151     1114    3                    IF  IT_PARTITION.IOCHAN(DQH.IOCHANX)

   1114  0 000205   300001 236100                    LDQ     1,,PR3
         0 000206   000022 772000                    QRL     18
         0 000207   000777 376007                    ANQ     511,DL
         0 000210   000000 066406                    CMPB    filb='0'B
         0 000211   000012 000001 xsym               BDSC    IT_PARTITION+10,Q        by=0,bit=0,n=1
         0 000212   000002 000022 xsym               BDSC    B_VECTNIL+2              by=0,bit=0,n=18
         0 000213   000220 601000 0                  TNZ     s:1115
         0 000214   000000 066406                    CMPB    filb='0'B
PL6.E3A0      #005=NIW$MPCSTOP File=NIW$MPC.:E05TSI                              WED 07/30/97 03:44 Page:236
         0 000215   000043 000001 xsym               BDSC    IT_PARTITION+35,Q        by=0,bit=0,n=1
         0 000216   000002 000022 xsym               BDSC    B_VECTNIL+2              by=0,bit=0,n=18
         0 000217   000224 600000 0                  TZE     DQHSTART

     1152     1115    3                      OR  IT_PARTITION.MSOS_IOCHAN(DQH.IOCHANX)

   1115  0 000220   000230 710000 0                  TRA     s:1127

     1153     1116    3                    THEN
     1154     1117    3    /*  Do Nothing  */ ;
     1155     1118    3                    ELSE
     1156     1119    3                       GOTO DQHSTART ;
     1157     1120    3                 ELSE
     1158     1121    3                    IF  DQH.STATUS.DOWN

   1121  0 000221   300001 236100                    LDQ     1,,PR3
         0 000222   200000 316003                    CANQ    65536,DU
         0 000223   000230 601000 0                  TNZ     s:1127

     1159     1122    3                    THEN
     1160     1123    3    /*  Do Nothing  */ ;
     1161     1124    3                    ELSE
     1162     1125    3   DQHSTART:           CALL NIW$DQHSTART ( DQH ) ;

   1125  0 000224   200005 630500       DQHSTART     EPPR0   DQH$,,AUTO
         0 000225   000017 631400 xsym               EPPR1   B_VECTNIL+15
         0 000226   000000 701000 xent               TSX1    NIW$DQHSTART
         0 000227   000000 011000                    NOP     0

     1163     1126    3                 END ;

     1164     1127    2              END ;

   1127  0 000230   200007 054100                    AOS     I,,AUTO
         0 000231   200007 235100                    LDA     I,,AUTO
         0 000232   000017 115007                    CMPA    15,DL
         0 000233   000160 604400 0                  TMOZ    s:1108
PL6.E3A0      #005=NIW$MPCSTOP File=NIW$MPC.:E05TSI                              WED 07/30/97 03:44 Page:237

     1165     1128    2           DO I=SQH.FDCT TO SQH.NDCT+SQH.FDCT-1;

   1128  0 000234   200010 470500                    LDP0    SQH$,,AUTO
         0 000235   000002 236100                    LDQ     2,,PR0
         0 000236   000022 772000                    QRL     18
         0 000237   200007 756100                    STQ     I,,AUTO
         0 000240   000303 710000 0                  TRA     s:1138+1

     1166     1129    2              DCT$=N$DCT$(I);

   1129  0 000241   000000 470400 xsym               LDP0    N$DCT$$
         0 000242   200007 720100                    LXL0    I,,AUTO
         0 000243   000000 236110                    LDQ     0,X0,PR0
         0 000244   200004 756100                    STQ     DCT$,,AUTO

     1167     1130    3              IF NI$DCT.STATE=%MPCWAIT THEN DO;

   1130  0 000245   200004 471500                    LDP1    DCT$,,AUTO
         0 000246   100007 236100                    LDQ     7,,PR1
         0 000247   000077 376007                    ANQ     63,DL
         0 000250   000007 116007                    CMPQ    7,DL
         0 000251   000302 601000 0                  TNZ     s:1138

     1168     1131    4                 IF NI$DCT.MSG#~=0 THEN DO;

   1131  0 000252   100027 721100                    LXL1    23,,PR1
         0 000253   000266 600000 0                  TZE     s:1135

     1169     1132    4                    CALL OCI$MK_STTM(NI$DCT.MSG#);

   1132  0 000254   200004 236100                    LDQ     DCT$,,AUTO
         0 000255   000002 036000 1                  ADLQ    2
         0 000256   200014 756100                    STQ     SVDQH$+2,,AUTO
         0 000257   200014 630500                    EPPR0   SVDQH$+2,,AUTO
         0 000260   000017 631400 xsym               EPPR1   B_VECTNIL+15
         0 000261   000000 701000 xent               TSX1    OCI$MK_STTM
PL6.E3A0      #005=NIW$MPCSTOP File=NIW$MPC.:E05TSI                              WED 07/30/97 03:44 Page:238
         0 000262   000000 011000                    NOP     0

     1170     1133    4                    NI$DCT.MSG#=0;

   1133  0 000263   000000 220003                    LDX0    0,DU
         0 000264   200004 470500                    LDP0    DCT$,,AUTO
         0 000265   000027 440100                    SXL0    23,,PR0

     1171     1134    4                    END;

     1172     1135    3                 DVSCH=NI$DCT.DVT$->DVT.DVSCH;

   1135  0 000266   200004 470500                    LDP0    DCT$,,AUTO
         0 000267   000024 471500                    LDP1    20,,PR0
         0 000270   100002 236100                    LDQ     2,,PR1
         0 000271   200006 756100                    STQ     DVSCH,,AUTO

     1173     1136    3                 CALL DVSCH(NI$DCT,%IDLE);

   1136  0 000272   000000 236000 1                  LDQ     0
         0 000273   200004 235100                    LDA     DCT$,,AUTO
         0 000274   200014 757100                    STAQ    SVDQH$+2,,AUTO
         0 000275   200014 630500                    EPPR0   SVDQH$+2,,AUTO
         0 000276   200006 220100                    LDX0    DVSCH,,AUTO
         0 000277   000020 631400 xsym               EPPR1   B_VECTNIL+16
         0 000300   000000 701010                    TSX1    0,X0
         0 000301   000000 011000                    NOP     0

     1174     1137    3                 END;

     1175     1138    2              END;

   1138  0 000302   200007 054100                    AOS     I,,AUTO
         0 000303   200010 470500                    LDP0    SQH$,,AUTO
         0 000304   000002 236100                    LDQ     2,,PR0
         0 000305   000022 772000                    QRL     18
         0 000306   200014 756100                    STQ     SVDQH$+2,,AUTO
PL6.E3A0      #005=NIW$MPCSTOP File=NIW$MPC.:E05TSI                              WED 07/30/97 03:44 Page:239
         0 000307   000002 236100                    LDQ     2,,PR0
         0 000310   777777 376007                    ANQ     -1,DL
         0 000311   200014 036100                    ADLQ    SVDQH$+2,,AUTO
         0 000312   000241 604000 0                  TMI     s:1129
         0 000313   200007 116100                    CMPQ    I,,AUTO
         0 000314   000241 605400 0                  TPNZ    s:1129

     1176     1139    1           CALL NIW$SCANAQ(SQH);

   1139  0 000315   200010 630500                    EPPR0   SQH$,,AUTO
         0 000316   000017 631400 xsym               EPPR1   B_VECTNIL+15
         0 000317   000000 701000 xent               TSX1    NIW$SCANAQ
         0 000320   000000 011000                    NOP     0

     1177     1140    1           RETURN;

   1140  0 000321   000000 702200 xent               TSX2  ! X66_ARET

(unnamed)
 Sect OctLoc
   1     000   000002 006000   777777 776777   000027 400000                    ............
     1178     1141    1   END NIW$MPCSTOP;
     1179     1142        %EOD;

PL6.E3A0      #005=NIW$MPCSTOP File=NIW$MPC.:E05TSI                              WED 07/30/97 03:44 Page:240
--  Include file information  --

   N_FC_C.:E05TOU  is referenced.
   NI_MACROS_C.:E05TOU  cannot be made into a system file and is referenced.
   NI_DATA_C.:E05TOU  is referenced.
   NI$TABLES.:E05TOU  is referenced.
   N$REQ.:E05TOU  is referenced.
   NI_DATA_R.:E05TOU  cannot be made into a system file and is referenced.
   HF_LOCK_C.:E05TOU  cannot be made into a system file and is referenced.
      No diagnostics issued in procedure NIW$MPCSTOP.
PL6.E3A0      #005=NIW$MPCSTOP File=NIW$MPC.:E05TSI                              WED 07/30/97 03:44 Page:241

 **** Variables and constants ****

  ****  Auto variables  ****

  ****  Scalars and arrays  ****
OctLoc.c.b A Datatyp(siz) R M Lvl/name                 OctLoc.c.b A Datatyp(siz) R M Lvl/name

     3-0-0/w PTR         r     1 @DCT                      *0-0-0/w STRC(1332)  r     1 DCT
     4-0-0/w PTR         r     1 DCT$                       5-0-0/w PTR         r     1 DQH$
     6-0-0/w EPTR        r     1 DVSCH                      7-0-0/w SBIN        r     1 I
    10-0-0/w PTR         r     1 SQH$                      11-0-0/w BIT         r     1 STOPPED
    12-0-0/w PTR         r     1 SVDQH$

  ****  SYMREF variables  ****

  ****  Scalars and arrays  ****
OctLoc.c.b A Datatyp(siz) R M Lvl/name                 OctLoc.c.b A Datatyp(siz) R M Lvl/name

     0-0-0/w UBIN        r     1 IT_CP6UP                   0-0-0/w STRC(1800)  r     1 IT_PARTITION
     0-0-0/w PTR         r     1 N$DCT$$                    0-0-0/w PTR         r     1 N$FQ$
     0-0-0/w PTR         r     1 NI$CHT$                    0-0-0/w PTR         r     1 NI$FQ$
     0-0-0/w PTR         r     1 NI$IBUF$                   0-0-0/w PTR         r     1 NI$RP$

  ****  BASED and DCB variables  ****

  ****  Scalars and arrays  ****
OctLoc.c.b A Datatyp(siz) R M Lvl/name                 OctLoc.c.b A Datatyp(siz) R M Lvl/name

     0-0-0/w STRC(648)   r     1 DQH                        0-0-0/w STRC(2844)  r     1 DVT
     0-0-0/w PTR         r     1 N$DCT$(0:0)                0-0-0/w STRC(72)    r     1 NI$CHT(0:0)
     0-0-0/w STRC(1332)  r     1 NI$DCT                     0-0-0/w STRC(252)   r     1 SQH


   Procedure NIW$MPCSTOP requires 210 words for executable code.
   Procedure NIW$MPCSTOP requires 14 words of local(AUTO) storage.
PL6.E3A0      #005=NIW$MPCSTOP File=NIW$MPC.:E05TSI                              WED 07/30/97 03:44 Page:242
          *** CROSS REFERENCE LISTING ***
**     DENOTES     IDENTIFIER DEFINITION
<<                 IDENTIFIER'S VALUE SET
>>                 IDENTIFIER'S VALUE USED
<>                 IDENTIFIER SET AND/OR USED
--                 IDENTIFIER REFERENCED
PL6.E3A0      #005=NIW$MPCSTOP File=NIW$MPC.:E05TSI                              WED 07/30/97 03:44 Page:243
          MINI XREF LISTING

DCT
       890**DCL         6--PROC     1062--ASSIGN   1097<>CALL     1103--ENTRY
DCT.DFLG.MPCSTOP
       895**DCL      1061>>IF       1095<<ASSIGN   1104>>IF       1105<<ASSIGN
DCT.DFLG.RELOAD
       894**DCL      1096>>IF
DCT.DP
       910**DCL       917--REDEF     920--REDEF     921--REDEF     923--REDEF     923--REDEF     924--REDEF
       925--REDEF     925--REDEF
DCT.MPC.IOCHANX
       918**DCL       918--REDEF    1085>>IF       1086>>ASSIGN   1108>>IF       1110>>ASSIGN
DCT.SQH$
       905**DCL      1063>>ASSIGN   1106>>ASSIGN
DCT$
       951**DCL      1003--IMP-PTR  1062<<ASSIGN   1076>>IF       1129<<ASSIGN   1130>>IF       1131>>IF
      1132>>CALL     1133>>ASSIGN   1135>>ASSIGN   1136>>CALL
DQH
       970**DCL      1078<>CALL     1125<>CALL
DQH.CHANSTATE.STOP
       978**DCL      1087<<ASSIGN   1111<<ASSIGN
DQH.IOCHANX
       972**DCL       973--REDEF    1114>>IF       1114>>IF
DQH.MBX$
       981**DCL       982--REDEF
DQH.MPC$
       977**DCL      1076>>IF
DQH.STATE
       974**DCL      1088>>IF
DQH.STATUS.DOWN
       970**DCL      1121>>IF
DQH$
       952**DCL       970--IMP-PTR  1073<>CALL     1076>>IF       1078>>CALL     1086<<ASSIGN   1087>>ASSIGN
PL6.E3A0      #005=NIW$MPCSTOP File=NIW$MPC.:E05TSI                              WED 07/30/97 03:44 Page:244
      1088>>IF       1110<<ASSIGN   1111>>ASSIGN   1114>>IF       1114>>IF       1121>>IF       1125>>CALL
DQHSTART
      1125**LABEL    1119--GOTO
DVSCH
       953**DCL      1135<<ASSIGN   1136>>CALL
DVT.DVSCH
       985**DCL      1135>>ASSIGN
DVT.MPC
       987**DCL       988--REDEF
HFC$LOCK
        23**DCL-ENT  1066--CALL
HFC$UNLOCK
        23**DCL-ENT  1092--CALL
I
       954**DCL      1084<<DOINDEX  1085>>IF       1086>>ASSIGN   1107<<DOINDEX  1108>>IF       1110>>ASSIGN
      1128<<DOINDEX  1129>>ASSIGN
IT_CP6UP
       939**DCL      1112>>IF
IT_PARTITION.IOCHAN
       946**DCL      1114>>IF
IT_PARTITION.MSOS_IOCHAN
       946**DCL      1114>>IF
N$DCT$
       456**DCL      1129>>ASSIGN
N$DCT$$
       322**DCL       456--IMP-PTR  1129>>ASSIGN
N$FQ$
       322**DCL       457--IMP-PTR
N$REQ_INIT.BUFADDR
       341**DCL       342--REDEF     342--REDEF
N$REQ_INIT.DLA.DRELADDR
       333**DCL       333--REDEF
N$REQ_INIT.DVE.EOMCHAR
       370**DCL       371--REDEF
N$REQ_INIT.EAINFO
       364**DCL       364--REDEF
PL6.E3A0      #005=NIW$MPCSTOP File=NIW$MPC.:E05TSI                              WED 07/30/97 03:44 Page:245
N$REQ_INIT.EAINFOX
       364**DCL       365--REDEF
N$REQ_INIT.EVNTINFO
       365**DCL       365--REDEF
N$REQ_INIT.STATUS
       346**DCL       352--REDEF
NI$CHT.DQH$
       992**DCL      1086>>ASSIGN   1110>>ASSIGN
NI$CHT$
       381**DCL       992--IMP-PTR  1086>>ASSIGN   1110>>ASSIGN
NI$DCT
      1003**DCL      1136<>CALL
NI$DCT.DP
      1023**DCL      1030--REDEF    1033--REDEF    1034--REDEF    1036--REDEF    1036--REDEF    1037--REDEF
      1038--REDEF    1038--REDEF
NI$DCT.DVT$
      1019**DCL      1135>>ASSIGN
NI$DCT.MPC.IOCHANX
      1031**DCL      1031--REDEF
NI$DCT.MSG#
      1023**DCL      1131>>IF       1132<>CALL     1133<<ASSIGN
NI$DCT.STATE
      1013**DCL      1130>>IF
NI$FQ$
       382**DCL       458--IMP-PTR
NI$IBUF$
       382**DCL       458--IMP-PTR
NI$IMXMBX_INIT.PAGED_BASE
       392**DCL       393--REDEF     393--REDEF
NI$IMXMBX_INIT.SIZE
       394**DCL       394--REDEF
NI$REQ_INIT.DCW
       416**DCL       419--REDEF
NI$REQ_INIT.DCW.TALLY
       417**DCL       417--REDEF
NI$REQ_INIT.IDCW.EXTA
PL6.E3A0      #005=NIW$MPCSTOP File=NIW$MPC.:E05TSI                              WED 07/30/97 03:44 Page:246
       419**DCL       419--REDEF
NI$REQ_INIT.PCW
       421**DCL       425--REDEF
NI$REQ_INIT.SEEK
       426**DCL       427--REDEF     428--REDEF
NI$RP$
       430**DCL       460--IMP-PTR
NIM$DEQUEUE
       598**DCL-ENT  1073--CALL
NIM$ENQUEUE
       599**DCL-ENT  1078--CALL
NIW$DQHSTART
       932**DCL-ENT  1125--CALL
NIW$LDFWR
       933**DCL-ENT  1097--CALL
NIW$SCANAQ
       934**DCL-ENT  1100--CALL     1139--CALL
NI_MBX_INIT.DCW.CONTROL.AE
       452**DCL       452--REDEF
NI_MBX_INIT.LPW.CONTROL.AE
       448**DCL       448--REDEF
OCI$MK_STTM
       935**DCL-ENT  1132--CALL
SQH
      1051**DCL      1100<>CALL     1139<>CALL
SQH.CQ$
      1052**DCL      1068>>DOWHILE  1073<>CALL     1082<<ASSIGN
SQH.DOOR
      1051**DCL      1051--REDEF
SQH.FDCT
      1051**DCL      1128>>DOINDEX  1128>>DOINDEX
SQH.GATE
      1051**DCL      1066<>CALL     1092<>CALL
SQH.NDCT
      1052**DCL      1128>>DOINDEX
SQH$
PL6.E3A0      #005=NIW$MPCSTOP File=NIW$MPC.:E05TSI                              WED 07/30/97 03:44 Page:247
       955**DCL      1051--IMP-PTR  1063<<ASSIGN   1066>>CALL     1068>>DOWHILE  1073>>CALL     1082>>ASSIGN
      1092>>CALL     1100>>CALL     1106<<ASSIGN   1128>>DOINDEX  1128>>DOINDEX  1128>>DOINDEX  1139>>CALL
STOPPED
       956**DCL      1083<<ASSIGN   1088<<ASSIGN   1094>>IF
SVDQH$
       957**DCL      1064<<ASSIGN   1078<>CALL     1082>>ASSIGN

PL6.E3A0      #006=NIW$DQHSTART File=NIW$MPC.:E05TSI                             WED 07/30/97 03:44 Page:248
     1180        1        /*T***********************************************************/
     1181        2        /*T*                                                         */
     1182        3        /*T* Copyright (c) Bull HN Information Systems Inc., 1997    */
     1183        4        /*T*                                                         */
     1184        5        /*T***********************************************************/
     1185        6        /*T*/
     1186        7        NIW$DQHSTART: PROC ( DQH ) ALTRET ;
     1187        8        /*
     1188        9                Includes
     1189       10        */
     1190       11        %INCLUDE                HF_LOCK_C ;
     1191       25        %INCLUDE                NI_DATA_C ;
     1192      138        %INCLUDE                NI_DATA_R ;
     1193      575        %INCLUDE                NI_MACROS_C ;
     1194      842        %INCLUDE                N_FC_C ;
     1195      879        /*
     1196      880                Parameters
     1197      881        */
     1198      882        %NI$DQH                 ( NAME=DQH, STCLASS=PARAM ) ;
     1199      905        /*
     1200      906                Entries
     1201      907        */
     1202      908    1   DCL 1 NIQ$GET           ENTRY(1) ALTRET ;
     1203      909    1   DCL 1 NIO$QUE           ENTRY(1) ALTRET ;
     1204      910        /*
     1205      911                Auto
     1206      912        */
     1207      913    1   DCL 1 DCT$              PTR ALIGNED AUTO ;
     1208      914    1   DCL 1 DQH$              PTR ALIGNED AUTO ;
     1209      915    1   DCL 1 ONQUE             BIT(1) ALIGNED AUTO ;
     1210      916    1   DCL 1 REQ$              PTR ALIGNED AUTO ;
     1211      917    1   DCL 1 SQH$              PTR ALIGNED AUTO ;
     1212      918    1   DCL 1 TEMP$             PTR ALIGNED AUTO ;
     1213      919        /*
     1214      920                Based
     1215      921        */
     1216      922        %NI$DCT                 ( NAME=DCT,    STCLASS="BASED(DCT$)" ) ;
PL6.E3A0      #006=NIW$DQHSTART File=NIW$MPC.:E05TSI                             WED 07/30/97 03:44 Page:249
     1217      970        %NI$DQH                 ( NAME=NI$DQH, STCLASS=BASED ) ;
     1218      993        %N$REQ                  ( NAME=REQ,    STCLASS="BASED(REQ$)" ) ;
     1219     1051        %NI$SQH                 ( NAME=SQH, STCLASS="BASED(SQH$)" ) ;
     1220     1064        /*
     1221     1065                Constants
     1222     1066        */
     1223     1067        %SUB NEVER="WHILE('0'B)";
     1224     1068        %EJECT;
PL6.E3A0      #006=NIW$DQHSTART File=NIW$MPC.:E05TSI                             WED 07/30/97 03:44 Page:250
     1225     1069    1           DCT$=DQH.MPC$;
     1226     1070    1           SQH$=DQH.SQH$;
     1227     1071    1           CALL NIQ$GET(REQ$) ALTRET(NOPKTS);
     1228     1072    1           REQ.FC=%N_RQSTAT;
     1229     1073    1           REQ.BPMIR = '1'B ;
     1230     1074    1           REQ.DLA.DCTX=DCT.DCTX;
     1231     1075    1           REQ.DQH$=ADDR(DQH);
     1232     1076    1           REQ.NOALT='1'B;
     1233     1077    1           CALL NIO$QUE(REQ);
     1234     1078    2           DO NEVER;
     1235     1079    2   NOPKTS:
     1236     1080                   %LOCK (G#=SQH.GATE);
     1237     1083    3              IF DQH.STATE=%IDLE THEN DO;
     1238     1084                      %ENQUEUE (P#=DQH,Q#=SQH.CQ$);
     1239     1087    3                 END;
     1240     1088                   %UNLOCK (G#=SQH.GATE);
     1241     1091    2              END;
     1242     1092    1           RETURN;
     1243     1093
     1244     1094        %EJECT ;
PL6.E3A0      #006=NIW$DQHSTART File=NIW$MPC.:E05TSI                             WED 07/30/97 03:44 Page:251
     1245     1095    1   NIW$DQHSTOP: ENTRY ( DQH ) ALTRET ;
     1246     1096
     1247     1097    1           DQH$ = ADDR(DQH) ;
     1248     1098    1           SQH$ = DQH.SQH$ ;
     1249     1099
     1250     1100    1           TEMP$ = SQH.CQ$ ;
     1251     1101    1           ONQUE = '1'B ;
     1252     1102
     1253     1103    1           IF TEMP$ ~= ADDR(NIL)
     1254     1104    2           THEN DO WHILE ( ONQUE AND TEMP$->NI$DQH.FL$ ~= DQH$ ) ;
     1255     1105    2              TEMP$ = TEMP$->NI$DQH.FL$ ;
     1256     1106    2              IF TEMP$ = SQH.CQ$ THEN
     1257     1107    2                 ONQUE = '0'B ;
     1258     1108    2              END ;
     1259     1109    1           ELSE
     1260     1110    1              ONQUE = '0'B ;
     1261     1111
     1262     1112    1           IF NOT ONQUE
     1263     1113    1           THEN
     1264     1114    1              ALTRETURN ;
     1265     1115    2           ELSE DO ;
     1266     1116    2              SQH.CQ$ = TEMP$ ;
     1267     1117                   %DEQUEUE ( P#=DQH$, Q#=SQH.CQ$ ) ;
     1268     1124    2              END ;
     1269     1125
     1270     1126    1           RETURN ;
     1271     1127
     1272     1128    1   END NIW$DQHSTART;
     1273     1129        %EOD;

PL6.E3A0      #006=NIW$DQHSTART File=NIW$MPC.:E05TSI                             WED 07/30/97 03:44 Page:252
--  Include file information  --

   N_FC_C.:E05TOU  is referenced.
   NI_MACROS_C.:E05TOU  cannot be made into a system file and is referenced.
   NI$TABLES.:E05TOU  is referenced.
   N$REQ.:E05TOU  is referenced.
   NI_DATA_R.:E05TOU  cannot be made into a system file and is referenced.
   NI_DATA_C.:E05TOU  is referenced.
   HF_LOCK_C.:E05TOU  cannot be made into a system file and is referenced.
      No diagnostics issued in procedure NIW$DQHSTART.

   Procedure NIW$DQHSTART requires 102 words for executable code.
   Procedure NIW$DQHSTART requires 12 words of local(AUTO) storage.

PL6.E3A0      #006=NIW$DQHSTART File=NIW$MPC.:E05TSI                             WED 07/30/97 03:44 Page:253

 Object Unit name= NIW$DQHSTART                               File name= NIW$MPC.:E05TOU
 UTS= JUL 30 '97 03:44:46.84 WED                              Compiler= PL-6/E31         Sev=      00
 SharedLib= :SHARED_SYSTEM                                    Alt SharedLib=


    ****  Control sections  ****

 Sect   Type Bound  Init  Size OctSiz  Section name(segment info)
    0   Proc  even  none   102    146  NIW$DQHSTART

    ****  Entry defs  ****

                              Check   Calling
                             calling  sequence
  Sect OctLoc Primary Altret sequence   type   Parms  Name
     0      0   yes    yes     yes      Std        1  NIW$DQHSTART
     0     67          yes     yes      Std        1  NIW$DQHSTOP

  ****  Entry refs  ****

         Check        Calling
        calling       sequence
Altret sequence SRef   type   Args  Name
 yes     yes           Std       1 NIQ$GET
 yes     yes           Std       1 NIO$QUE
         yes           Std       1 HFC$UNLOCK
         yes           Std       1 HFC$LOCK
 yes     yes           Std       2 NIM$DEQUEUE
         yes           Std       2 NIM$ENQUEUE
                       nStd      0 X66_AUTO_1
                       Std       0 B_CONSPOOL_D
                       nStd      0 X66_ARET
                       nStd      0 X66_AALT
PL6.E3A0      #006=NIW$DQHSTART File=NIW$MPC.:E05TSI                             WED 07/30/97 03:44 Page:254

  ****  Data refs  ****

  Flags:  r = read only, s = secondary
Flgs Name                             Flgs Name                             Flgs Name
     N$DCT$$                               N$FQ$                                 NI$FQ$
     NI$IBUF$                              NI$RP$                                B_VECTNIL
PL6.E3A0      #006=NIW$DQHSTART File=NIW$MPC.:E05TSI                             WED 07/30/97 03:44 Page:255


     1180        1        /*T***********************************************************/
     1181        2        /*T*                                                         */
     1182        3        /*T* Copyright (c) Bull HN Information Systems Inc., 1997    */
     1183        4        /*T*                                                         */
     1184        5        /*T***********************************************************/
     1185        6        /*T*/
     1186        7        NIW$DQHSTART: PROC ( DQH ) ALTRET ;

      7  0 000000   000000 700200 xent  NIW$DQHSTART TSX0  ! X66_AUTO_1
         0 000001   000014 000001                    ZERO    12,1

     1187        8        /*
     1188        9                Includes
     1189       10        */
     1190       11        %INCLUDE                HF_LOCK_C ;
     1191       25        %INCLUDE                NI_DATA_C ;
     1192      138        %INCLUDE                NI_DATA_R ;
     1193      575        %INCLUDE                NI_MACROS_C ;
     1194      842        %INCLUDE                N_FC_C ;
     1195      879        /*
     1196      880                Parameters
     1197      881        */
     1198      882        %NI$DQH                 ( NAME=DQH, STCLASS=PARAM ) ;
     1199      905        /*
     1200      906                Entries
     1201      907        */
     1202      908    1   DCL 1 NIQ$GET           ENTRY(1) ALTRET ;
     1203      909    1   DCL 1 NIO$QUE           ENTRY(1) ALTRET ;
     1204      910        /*
     1205      911                Auto
     1206      912        */
     1207      913    1   DCL 1 DCT$              PTR ALIGNED AUTO ;
     1208      914    1   DCL 1 DQH$              PTR ALIGNED AUTO ;
     1209      915    1   DCL 1 ONQUE             BIT(1) ALIGNED AUTO ;
     1210      916    1   DCL 1 REQ$              PTR ALIGNED AUTO ;
     1211      917    1   DCL 1 SQH$              PTR ALIGNED AUTO ;
PL6.E3A0      #006=NIW$DQHSTART File=NIW$MPC.:E05TSI                             WED 07/30/97 03:44 Page:256
     1212      918    1   DCL 1 TEMP$             PTR ALIGNED AUTO ;
     1213      919        /*
     1214      920                Based
     1215      921        */
     1216      922        %NI$DCT                 ( NAME=DCT,    STCLASS="BASED(DCT$)" ) ;
     1217      970        %NI$DQH                 ( NAME=NI$DQH, STCLASS=BASED ) ;
     1218      993        %N$REQ                  ( NAME=REQ,    STCLASS="BASED(REQ$)" ) ;
     1219     1051        %NI$SQH                 ( NAME=SQH, STCLASS="BASED(SQH$)" ) ;
     1220     1064        /*
     1221     1065                Constants
     1222     1066        */
     1223     1067        %SUB NEVER="WHILE('0'B)";
     1224     1068        %EJECT;
PL6.E3A0      #006=NIW$DQHSTART File=NIW$MPC.:E05TSI                             WED 07/30/97 03:44 Page:257
     1225     1069    1           DCT$=DQH.MPC$;

   1069  0 000002   200003 470500                    LDP0    @DQH,,AUTO
         0 000003   000015 236100                    LDQ     13,,PR0
         0 000004   200004 756100                    STQ     DCT$,,AUTO

     1226     1070    1           SQH$=DQH.SQH$;

   1070  0 000005   000013 236100                    LDQ     11,,PR0
         0 000006   200010 756100                    STQ     SQH$,,AUTO

     1227     1071    1           CALL NIQ$GET(REQ$) ALTRET(NOPKTS);

   1071  0 000007   200007 631500                    EPPR1   REQ$,,AUTO
         0 000010   200012 451500                    STP1    TEMP$+1,,AUTO
         0 000011   200012 630500                    EPPR0   TEMP$+1,,AUTO
         0 000012   000017 631400 xsym               EPPR1   B_VECTNIL+15
         0 000013   000000 701000 xent               TSX1    NIQ$GET
         0 000014   000042 702000 0                  TSX2    NOPKTS

     1228     1072    1           REQ.FC=%N_RQSTAT;

   1072  0 000015   200007 470500                    LDP0    REQ$,,AUTO
         0 000016   000001 236007                    LDQ     1,DL
         0 000017   000003 552104                    STBQ    3,'04'O,PR0

     1229     1073    1           REQ.BPMIR = '1'B ;

   1073  0 000020   200007 470500                    LDP0    REQ$,,AUTO
         0 000021   200000 236003                    LDQ     65536,DU
         0 000022   000034 256100                    ORSQ    28,,PR0

     1230     1074    1           REQ.DLA.DCTX=DCT.DCTX;

   1074  0 000023   200004 471500                    LDP1    DCT$,,AUTO
         0 000024   100006 236100                    LDQ     6,,PR1
         0 000025   000001 676100                    ERQ     1,,PR0
PL6.E3A0      #006=NIW$DQHSTART File=NIW$MPC.:E05TSI                             WED 07/30/97 03:44 Page:258
         0 000026   777770 376003                    ANQ     -8,DU
         0 000027   000001 656100                    ERSQ    1,,PR0

     1231     1075    1           REQ.DQH$=ADDR(DQH);

   1075  0 000030   200003 236100                    LDQ     @DQH,,AUTO
         0 000031   200007 470500                    LDP0    REQ$,,AUTO
         0 000032   000020 756100                    STQ     16,,PR0

     1232     1076    1           REQ.NOALT='1'B;

   1076  0 000033   100000 236007                    LDQ     32768,DL
         0 000034   000004 256100                    ORSQ    4,,PR0

     1233     1077    1           CALL NIO$QUE(REQ);

   1077  0 000035   200007 630500                    EPPR0   REQ$,,AUTO
         0 000036   000017 631400 xsym               EPPR1   B_VECTNIL+15
         0 000037   000000 701000 xent               TSX1    NIO$QUE
         0 000040   000000 011000                    NOP     0

     1234     1078    2           DO NEVER;

   1078  0 000041   000066 710000 0                  TRA     s:1092

     1235     1079    2   NOPKTS:
     1236     1080                   %LOCK (G#=SQH.GATE);

   1081  0 000042   200010 630500       NOPKTS       EPPR0   SQH$,,AUTO
         0 000043   000017 631400 xsym               EPPR1   B_VECTNIL+15
         0 000044   000000 701000 xent               TSX1    HFC$LOCK
         0 000045   000000 011000                    NOP     0

     1237     1083    3              IF DQH.STATE=%IDLE THEN DO;

   1083  0 000046   200003 470500                    LDP0    @DQH,,AUTO
         0 000047   000001 236100                    LDQ     1,,PR0
PL6.E3A0      #006=NIW$DQHSTART File=NIW$MPC.:E05TSI                             WED 07/30/97 03:44 Page:259
         0 000050   000077 316007                    CANQ    63,DL
         0 000051   000062 601000 0                  TNZ     s:1089

     1238     1084                      %ENQUEUE (P#=DQH,Q#=SQH.CQ$);

   1085  0 000052   200010 236100                    LDQ     SQH$,,AUTO
         0 000053   000004 036003                    ADLQ    4,DU
         0 000054   200003 235100                    LDA     @DQH,,AUTO
         0 000055   200012 757100                    STAQ    TEMP$+1,,AUTO
         0 000056   200012 630500                    EPPR0   TEMP$+1,,AUTO
         0 000057   000020 631400 xsym               EPPR1   B_VECTNIL+16
         0 000060   000000 701000 xent               TSX1    NIM$ENQUEUE
         0 000061   000000 011000                    NOP     0

     1239     1087    3                 END;

     1240     1088                   %UNLOCK (G#=SQH.GATE);

   1089  0 000062   200010 630500                    EPPR0   SQH$,,AUTO
         0 000063   000017 631400 xsym               EPPR1   B_VECTNIL+15
         0 000064   000000 701000 xent               TSX1    HFC$UNLOCK
         0 000065   000000 011000                    NOP     0

     1241     1091    2              END;

     1242     1092    1           RETURN;

   1092  0 000066   000000 702200 xent               TSX2  ! X66_ARET

     1243     1093
     1244     1094        %EJECT ;
PL6.E3A0      #006=NIW$DQHSTART File=NIW$MPC.:E05TSI                             WED 07/30/97 03:44 Page:260
     1245     1095    1   NIW$DQHSTOP: ENTRY ( DQH ) ALTRET ;

   1095  0 000067   000000 700200 xent  NIW$DQHSTOP  TSX0  ! X66_AUTO_1
         0 000070   000014 000001                    ZERO    12,1

     1246     1096
     1247     1097    1           DQH$ = ADDR(DQH) ;

   1097  0 000071   200003 236100                    LDQ     @DQH,,AUTO
         0 000072   200005 756100                    STQ     DQH$,,AUTO

     1248     1098    1           SQH$ = DQH.SQH$ ;

   1098  0 000073   200003 470500                    LDP0    @DQH,,AUTO
         0 000074   000013 236100                    LDQ     11,,PR0
         0 000075   200010 756100                    STQ     SQH$,,AUTO

     1249     1099
     1250     1100    1           TEMP$ = SQH.CQ$ ;

   1100  0 000076   200010 471500                    LDP1    SQH$,,AUTO
         0 000077   100004 236100                    LDQ     4,,PR1
         0 000100   200011 756100                    STQ     TEMP$,,AUTO

     1251     1101    1           ONQUE = '1'B ;

   1101  0 000101   400000 236003                    LDQ     -131072,DU
         0 000102   200006 756100                    STQ     ONQUE,,AUTO

     1252     1102
     1253     1103    1           IF TEMP$ ~= ADDR(NIL)

   1103  0 000103   200011 236100                    LDQ     TEMP$,,AUTO
         0 000104   000001 116000 xsym               CMPQ    B_VECTNIL+1
         0 000105   000125 600000 0                  TZE     s:1110

     1254     1104    2           THEN DO WHILE ( ONQUE AND TEMP$->NI$DQH.FL$ ~= DQH$ ) ;
PL6.E3A0      #006=NIW$DQHSTART File=NIW$MPC.:E05TSI                             WED 07/30/97 03:44 Page:261

   1104  0 000106   000116 710000 0                  TRA     s:1108

     1255     1105    2              TEMP$ = TEMP$->NI$DQH.FL$ ;

   1105  0 000107   200011 470500                    LDP0    TEMP$,,AUTO
         0 000110   000000 236100                    LDQ     0,,PR0
         0 000111   200011 756100                    STQ     TEMP$,,AUTO

     1256     1106    2              IF TEMP$ = SQH.CQ$ THEN

   1106  0 000112   200010 470500                    LDP0    SQH$,,AUTO
         0 000113   000004 116100                    CMPQ    4,,PR0
         0 000114   000116 601000 0                  TNZ     s:1108

     1257     1107    2                 ONQUE = '0'B ;

   1107  0 000115   200006 450100                    STZ     ONQUE,,AUTO

     1258     1108    2              END ;

   1108  0 000116   200006 234100                    SZN     ONQUE,,AUTO
         0 000117   000124 605000 0                  TPL     s:1108+6
         0 000120   200011 470500                    LDP0    TEMP$,,AUTO
         0 000121   000000 236100                    LDQ     0,,PR0
         0 000122   200005 116100                    CMPQ    DQH$,,AUTO
         0 000123   000107 601000 0                  TNZ     s:1105
         0 000124   000126 710000 0                  TRA     s:1112

     1259     1109    1           ELSE
     1260     1110    1              ONQUE = '0'B ;

   1110  0 000125   200006 450100                    STZ     ONQUE,,AUTO

     1261     1111
     1262     1112    1           IF NOT ONQUE

PL6.E3A0      #006=NIW$DQHSTART File=NIW$MPC.:E05TSI                             WED 07/30/97 03:44 Page:262
   1112  0 000126   200006 234100                    SZN     ONQUE,,AUTO
         0 000127   000131 604000 0                  TMI     s:1116

     1263     1113    1           THEN
     1264     1114    1              ALTRETURN ;

   1114  0 000130   000000 702200 xent               TSX2  ! X66_AALT

     1265     1115    2           ELSE DO ;

     1266     1116    2              SQH.CQ$ = TEMP$ ;

   1116  0 000131   200011 236100                    LDQ     TEMP$,,AUTO
         0 000132   200010 470500                    LDP0    SQH$,,AUTO
         0 000133   000004 756100                    STQ     4,,PR0

     1267     1117                   %DEQUEUE ( P#=DQH$, Q#=SQH.CQ$ ) ;

   1121  0 000134   200010 236100                    LDQ     SQH$,,AUTO
         0 000135   000004 036003                    ADLQ    4,DU
         0 000136   200013 756100                    STQ     TEMP$+2,,AUTO
         0 000137   200005 631500                    EPPR1   DQH$,,AUTO
         0 000140   200012 451500                    STP1    TEMP$+1,,AUTO
         0 000141   200012 630500                    EPPR0   TEMP$+1,,AUTO
         0 000142   000020 631400 xsym               EPPR1   B_VECTNIL+16
         0 000143   000000 701000 xent               TSX1    NIM$DEQUEUE
         0 000144   000000 011000                    NOP     0

     1268     1124    2              END ;

     1269     1125
     1270     1126    1           RETURN ;

   1126  0 000145   000000 702200 xent               TSX2  ! X66_ARET
     1271     1127
     1272     1128    1   END NIW$DQHSTART;
     1273     1129        %EOD;
PL6.E3A0      #006=NIW$DQHSTART File=NIW$MPC.:E05TSI                             WED 07/30/97 03:44 Page:263

PL6.E3A0      #006=NIW$DQHSTART File=NIW$MPC.:E05TSI                             WED 07/30/97 03:44 Page:264
--  Include file information  --

   N_FC_C.:E05TOU  is referenced.
   NI_MACROS_C.:E05TOU  cannot be made into a system file and is referenced.
   NI$TABLES.:E05TOU  is referenced.
   N$REQ.:E05TOU  is referenced.
   NI_DATA_R.:E05TOU  cannot be made into a system file and is referenced.
   NI_DATA_C.:E05TOU  is referenced.
   HF_LOCK_C.:E05TOU  cannot be made into a system file and is referenced.
      No diagnostics issued in procedure NIW$DQHSTART.
PL6.E3A0      #006=NIW$DQHSTART File=NIW$MPC.:E05TSI                             WED 07/30/97 03:44 Page:265

 **** Variables and constants ****

  ****  Auto variables  ****

  ****  Scalars and arrays  ****
OctLoc.c.b A Datatyp(siz) R M Lvl/name                 OctLoc.c.b A Datatyp(siz) R M Lvl/name

     3-0-0/w PTR         r     1 @DQH                       4-0-0/w PTR         r     1 DCT$
    *0-0-0/w STRC(648)   r     1 DQH                        5-0-0/w PTR         r     1 DQH$
     6-0-0/w BIT         r     1 ONQUE                      7-0-0/w PTR         r     1 REQ$
    10-0-0/w PTR         r     1 SQH$                      11-0-0/w PTR         r     1 TEMP$

  ****  SYMREF variables  ****

  ****  Scalars and arrays  ****
OctLoc.c.b A Datatyp(siz) R M Lvl/name                 OctLoc.c.b A Datatyp(siz) R M Lvl/name

     0-0-0/w PTR         r     1 N$DCT$$                    0-0-0/w PTR         r     1 N$FQ$
     0-0-0/w PTR         r     1 NI$FQ$                     0-0-0/w PTR         r     1 NI$IBUF$
     0-0-0/w PTR         r     1 NI$RP$

  ****  BASED and DCB variables  ****

  ****  Scalars and arrays  ****
OctLoc.c.b A Datatyp(siz) R M Lvl/name                 OctLoc.c.b A Datatyp(siz) R M Lvl/name

     0-0-0/w STRC(1332)  r     1 DCT                        0-0-0/w STRC(648)   r     1 NI$DQH
     0-0-0/d STRC(1080)  r     1 REQ                        0-0-0/w STRC(252)   r     1 SQH


   Procedure NIW$DQHSTART requires 102 words for executable code.
   Procedure NIW$DQHSTART requires 12 words of local(AUTO) storage.
PL6.E3A0      #006=NIW$DQHSTART File=NIW$MPC.:E05TSI                             WED 07/30/97 03:44 Page:266
          *** CROSS REFERENCE LISTING ***
**     DENOTES     IDENTIFIER DEFINITION
<<                 IDENTIFIER'S VALUE SET
>>                 IDENTIFIER'S VALUE USED
<>                 IDENTIFIER SET AND/OR USED
--                 IDENTIFIER REFERENCED
PL6.E3A0      #006=NIW$DQHSTART File=NIW$MPC.:E05TSI                             WED 07/30/97 03:44 Page:267
          MINI XREF LISTING

DCT.DCTX
       932**DCL      1074>>ASSIGN
DCT.DP
       951**DCL       958--REDEF     961--REDEF     962--REDEF     964--REDEF     964--REDEF     965--REDEF
       966--REDEF     966--REDEF
DCT.MPC.IOCHANX
       959**DCL       959--REDEF
DCT$
       913**DCL       931--IMP-PTR  1069<<ASSIGN   1074>>ASSIGN
DQH
       891**DCL         7--PROC     1075--ASSIGN   1085<>CALL     1095--ENTRY    1097--ASSIGN
DQH.IOCHANX
       893**DCL       894--REDEF
DQH.MBX$
       902**DCL       903--REDEF
DQH.MPC$
       898**DCL      1069>>ASSIGN
DQH.SQH$
       897**DCL      1070>>ASSIGN   1098>>ASSIGN
DQH.STATE
       895**DCL      1083>>IF
DQH$
       914**DCL      1097<<ASSIGN   1104>>DOWHILE  1121<>CALL
HFC$LOCK
        24**DCL-ENT  1081--CALL
HFC$UNLOCK
        24**DCL-ENT  1089--CALL
N$DCT$$
       436**DCL       570--IMP-PTR
N$FQ$
       436**DCL       571--IMP-PTR
N$REQ_INIT.BUFADDR
PL6.E3A0      #006=NIW$DQHSTART File=NIW$MPC.:E05TSI                             WED 07/30/97 03:44 Page:268
       455**DCL       456--REDEF     456--REDEF
N$REQ_INIT.DLA.DRELADDR
       447**DCL       447--REDEF
N$REQ_INIT.DVE.EOMCHAR
       484**DCL       485--REDEF
N$REQ_INIT.EAINFO
       478**DCL       478--REDEF
N$REQ_INIT.EAINFOX
       478**DCL       479--REDEF
N$REQ_INIT.EVNTINFO
       479**DCL       479--REDEF
N$REQ_INIT.STATUS
       460**DCL       466--REDEF
NI$DQH.FL$
       979**DCL      1104>>DOWHILE  1105>>ASSIGN
NI$DQH.IOCHANX
       981**DCL       982--REDEF
NI$DQH.MBX$
       990**DCL       991--REDEF
NI$FQ$
       496**DCL       572--IMP-PTR
NI$IBUF$
       496**DCL       572--IMP-PTR
NI$IMXMBX_INIT.PAGED_BASE
       506**DCL       507--REDEF     507--REDEF
NI$IMXMBX_INIT.SIZE
       508**DCL       508--REDEF
NI$REQ_INIT.DCW
       530**DCL       533--REDEF
NI$REQ_INIT.DCW.TALLY
       531**DCL       531--REDEF
NI$REQ_INIT.IDCW.EXTA
       533**DCL       533--REDEF
NI$REQ_INIT.PCW
       535**DCL       539--REDEF
NI$REQ_INIT.SEEK
PL6.E3A0      #006=NIW$DQHSTART File=NIW$MPC.:E05TSI                             WED 07/30/97 03:44 Page:269
       540**DCL       541--REDEF     542--REDEF
NI$RP$
       544**DCL       574--IMP-PTR
NIM$DEQUEUE
       599**DCL-ENT  1121--CALL
NIM$ENQUEUE
       600**DCL-ENT  1085--CALL
NIO$QUE
       909**DCL-ENT  1077--CALL
NIQ$GET
       908**DCL-ENT  1071--CALL
NI_MBX_INIT.DCW.CONTROL.AE
       566**DCL       566--REDEF
NI_MBX_INIT.LPW.CONTROL.AE
       562**DCL       562--REDEF
NOPKTS
      1081**LABEL    1071--CALLALT
ONQUE
       915**DCL      1101<<ASSIGN   1104>>DOWHILE  1107<<ASSIGN   1110<<ASSIGN   1112>>IF
REQ
      1002**DCL      1077<>CALL
REQ.BPMIR
      1047**DCL      1073<<ASSIGN
REQ.BUFADDR
      1011**DCL      1012--REDEF    1012--REDEF
REQ.DLA.DCTX
      1002**DCL      1074<<ASSIGN
REQ.DLA.DRELADDR
      1003**DCL      1003--REDEF
REQ.DQH$
      1024**DCL      1075<<ASSIGN
REQ.DVE.EOMCHAR
      1040**DCL      1041--REDEF
REQ.EAINFO
      1034**DCL      1034--REDEF
REQ.EAINFOX
PL6.E3A0      #006=NIW$DQHSTART File=NIW$MPC.:E05TSI                             WED 07/30/97 03:44 Page:270
      1034**DCL      1035--REDEF
REQ.EVNTINFO
      1035**DCL      1035--REDEF
REQ.FC
      1005**DCL      1072<<ASSIGN
REQ.NOALT
      1005**DCL      1076<<ASSIGN
REQ.STATUS
      1016**DCL      1022--REDEF
REQ$
       916**DCL      1002--IMP-PTR  1071<>CALL     1072>>ASSIGN   1073>>ASSIGN   1074>>ASSIGN   1075>>ASSIGN
      1076>>ASSIGN   1077>>CALL
SQH.CQ$
      1061**DCL      1085<>CALL     1100>>ASSIGN   1106>>IF       1116<<ASSIGN   1121<>CALL
SQH.DOOR
      1060**DCL      1060--REDEF
SQH.GATE
      1060**DCL      1081<>CALL     1089<>CALL
SQH$
       917**DCL      1060--IMP-PTR  1070<<ASSIGN   1081>>CALL     1085>>CALL     1089>>CALL     1098<<ASSIGN
      1100>>ASSIGN   1106>>IF       1116>>ASSIGN   1121>>CALL
TEMP$
       918**DCL      1100<<ASSIGN   1103>>IF       1104>>DOWHILE  1105<<ASSIGN   1105>>ASSIGN   1106>>IF
      1116>>ASSIGN

PL6.E3A0      #007=NIW$MPCDQH File=NIW$MPC.:E05TSI                               WED 07/30/97 03:45 Page:271
     1274        1        /*T***********************************************************/
     1275        2        /*T*                                                         */
     1276        3        /*T* Copyright (c) Bull HN Information Systems Inc., 1997    */
     1277        4        /*T*                                                         */
     1278        5        /*T***********************************************************/
     1279        6        NIW$MPCDQH: PROC ( DCT, DQH$ ) ALTRET ;
     1280        7        /*
     1281        8                Includes
     1282        9        */
     1283       10        %INCLUDE                NI_DATA_C ;
     1284      123        %INCLUDE                NI_DATA_R ;
     1285      560        %INCLUDE                NI_MACROS_C ;
     1286      827        /*
     1287      828                Parameters
     1288      829        */
     1289      830        %NI$DCT                 ( NAME = DCT, STCLASS = PARAM ) ;
     1290      878    1   DCL 1 DQH$              PTR ALIGNED PARAM ;
     1291      879        /*
     1292      880                Symrefs
     1293      881        */
     1294      882    1   DCL 1 IT_CP6UP          UBIN WORD SYMREF ;
     1295      883        %NI$PARTITION           ( NAME=IT_PARTITION, STCLASS=SYMREF ) ;
     1296      891        /*
     1297      892                Auto
     1298      893        */
     1299      894    1   DCL 1 I                 SBIN ALIGNED AUTO ;
     1300      895        /*
     1301      896                Based
     1302      897        */
     1303      898        %NI$DQH                 ( NAME=DQH,           STCLASS="BASED(DQH$)" ) ;
     1304      921        %NI$CHT                 ( NAME="NI$CHT(0:0)", STCLASS="BASED(NI$CHT$)" ) ;
     1305      924        %EJECT ;
PL6.E3A0      #007=NIW$MPCDQH File=NIW$MPC.:E05TSI                               WED 07/30/97 03:45 Page:272
     1306      925    1           DQH$ = ADDR(NIL) ;
     1307      926    1           IF  DCT.TYPE ~= %DV_MPC
     1308      927    1           THEN
     1309      928    1              ALTRETURN ;
     1310      929
     1311      930    2           DO  I = 0 TO %N_CHANSPERMPCM1 ;
     1312      931    2              DQH$ = NI$CHT.DQH$(DCT.MPC.IOCHANX(I)) ;
     1313      932    2              IF  DQH$ ~= ADDR(NIL)
     1314      933    2              THEN
     1315      934    2                 IF NOT DQH.STATUS.DOWN
     1316      935    2                 THEN
     1317      936    2                    RETURN ;
     1318      937    2              END ;
     1319      938
     1320      939    1           DQH$ = ADDR(NIL) ;
     1321      940    1           ALTRETURN ;
     1322      941
     1323      942    1   END NIW$MPCDQH ;

PL6.E3A0      #007=NIW$MPCDQH File=NIW$MPC.:E05TSI                               WED 07/30/97 03:45 Page:273
--  Include file information  --

   NI_MACROS_C.:E05TOU  cannot be made into a system file and is referenced.
   NI$TABLES.:E05TOU  is referenced.
   N$REQ.:E05TOU  is referenced.
   NI_DATA_R.:E05TOU  cannot be made into a system file and is referenced.
   NI_DATA_C.:E05TOU  is referenced.
      No diagnostics issued in procedure NIW$MPCDQH.

   Procedure NIW$MPCDQH requires 37 words for executable code.
   Procedure NIW$MPCDQH requires 8 words of local(AUTO) storage.

    No errors detected in file NIW$MPC.:E05TSI    .

PL6.E3A0      #007=NIW$MPCDQH File=NIW$MPC.:E05TSI                               WED 07/30/97 03:45 Page:274

 Object Unit name= NIW$MPCDQH                                 File name= NIW$MPC.:E05TOU
 UTS= JUL 30 '97 03:45:11.40 WED                              Compiler= PL-6/E31         Sev=      00
 SharedLib= :SHARED_SYSTEM                                    Alt SharedLib=


    ****  Control sections  ****

 Sect   Type Bound  Init  Size OctSiz  Section name(segment info)
    0   Proc  even  none    37     45  NIW$MPCDQH

    ****  Entry defs  ****

                              Check   Calling
                             calling  sequence
  Sect OctLoc Primary Altret sequence   type   Parms  Name
     0      0   yes    yes     yes      Std        2  NIW$MPCDQH

  ****  Entry refs  ****

         Check        Calling
        calling       sequence
Altret sequence SRef   type   Args  Name
                       nStd      0 X66_AUTO_2
                       Std       0 B_CONSPOOL_D
                       nStd      0 X66_AALT
                       nStd      0 X66_ARET

  ****  Data refs  ****

  Flags:  r = read only, s = secondary
Flgs Name                             Flgs Name                             Flgs Name
     N$DCT$$                               N$FQ$                                 NI$CHT$
     NI$FQ$                                NI$IBUF$                              NI$RP$
     B_VECTNIL
PL6.E3A0      #007=NIW$MPCDQH File=NIW$MPC.:E05TSI                               WED 07/30/97 03:45 Page:275


     1274        1        /*T***********************************************************/
     1275        2        /*T*                                                         */
     1276        3        /*T* Copyright (c) Bull HN Information Systems Inc., 1997    */
     1277        4        /*T*                                                         */
     1278        5        /*T***********************************************************/
     1279        6        NIW$MPCDQH: PROC ( DCT, DQH$ ) ALTRET ;

      6  0 000000   000000 700200 xent  NIW$MPCDQH   TSX0  ! X66_AUTO_2
         0 000001   000010 000002                    ZERO    8,2

     1280        7        /*
     1281        8                Includes
     1282        9        */
     1283       10        %INCLUDE                NI_DATA_C ;
     1284      123        %INCLUDE                NI_DATA_R ;
     1285      560        %INCLUDE                NI_MACROS_C ;
     1286      827        /*
     1287      828                Parameters
     1288      829        */
     1289      830        %NI$DCT                 ( NAME = DCT, STCLASS = PARAM ) ;
     1290      878    1   DCL 1 DQH$              PTR ALIGNED PARAM ;
     1291      879        /*
     1292      880                Symrefs
     1293      881        */
     1294      882    1   DCL 1 IT_CP6UP          UBIN WORD SYMREF ;
     1295      883        %NI$PARTITION           ( NAME=IT_PARTITION, STCLASS=SYMREF ) ;
     1296      891        /*
     1297      892                Auto
     1298      893        */
     1299      894    1   DCL 1 I                 SBIN ALIGNED AUTO ;
     1300      895        /*
     1301      896                Based
     1302      897        */
     1303      898        %NI$DQH                 ( NAME=DQH,           STCLASS="BASED(DQH$)" ) ;
     1304      921        %NI$CHT                 ( NAME="NI$CHT(0:0)", STCLASS="BASED(NI$CHT$)" ) ;
     1305      924        %EJECT ;
PL6.E3A0      #007=NIW$MPCDQH File=NIW$MPC.:E05TSI                               WED 07/30/97 03:45 Page:276
     1306      925    1           DQH$ = ADDR(NIL) ;

    925  0 000002   000001 236000 xsym               LDQ     B_VECTNIL+1
         0 000003   200004 470500                    LDP0    @DQH$,,AUTO
         0 000004   000000 756100                    STQ     0,,PR0

     1307      926    1           IF  DCT.TYPE ~= %DV_MPC

    926  0 000005   200003 471500                    LDP1    @DCT,,AUTO
         0 000006   100007 236100                    LDQ     7,,PR1
         0 000007   007700 376007                    ANQ     4032,DL
         0 000010   000700 116007                    CMPQ    448,DL
         0 000011   000013 600000 0                  TZE     s:930

     1308      927    1           THEN
     1309      928    1              ALTRETURN ;

    928  0 000012   000000 702200 xent               TSX2  ! X66_AALT

     1310      929
     1311      930    2           DO  I = 0 TO %N_CHANSPERMPCM1 ;

    930  0 000013   200005 450100                    STZ     I,,AUTO

     1312      931    2              DQH$ = NI$CHT.DQH$(DCT.MPC.IOCHANX(I)) ;

    931  0 000014   200003 470500                    LDP0    @DCT,,AUTO
         0 000015   200005 235100                    LDA     I,,AUTO
         0 000016   000100 101505                    MRL     fill='000'O
         0 000017   000031 000001                    ADSC9   25,A,PR0                 cn=0,n=1
         0 000020   200006 000002                    ADSC9   I+1,,AUTO                cn=0,n=2
         0 000021   200006 220100                    LDX0    I+1,,AUTO
         0 000022   200006 020100                    ADLX0   I+1,,AUTO
         0 000023   000000 471400 xsym               LDP1    NI$CHT$
         0 000024   100000 236110                    LDQ     0,X0,PR1
         0 000025   200004 473500                    LDP3    @DQH$,,AUTO
         0 000026   300000 756100                    STQ     0,,PR3
PL6.E3A0      #007=NIW$MPCDQH File=NIW$MPC.:E05TSI                               WED 07/30/97 03:45 Page:277

     1313      932    2              IF  DQH$ ~= ADDR(NIL)

    932  0 000027   000001 116000 xsym               CMPQ    B_VECTNIL+1
         0 000030   000036 600000 0                  TZE     s:937

     1314      933    2              THEN
     1315      934    2                 IF NOT DQH.STATUS.DOWN

    934  0 000031   300000 471500                    LDP1    0,,PR3
         0 000032   100001 236100                    LDQ     1,,PR1
         0 000033   200000 316003                    CANQ    65536,DU
         0 000034   000036 601000 0                  TNZ     s:937

     1316      935    2                 THEN
     1317      936    2                    RETURN ;

    936  0 000035   000000 702200 xent               TSX2  ! X66_ARET

     1318      937    2              END ;

    937  0 000036   200005 054100                    AOS     I,,AUTO
         0 000037   200005 235100                    LDA     I,,AUTO
         0 000040   000017 115007                    CMPA    15,DL
         0 000041   000014 604400 0                  TMOZ    s:931

     1319      938
     1320      939    1           DQH$ = ADDR(NIL) ;

    939  0 000042   000001 236000 xsym               LDQ     B_VECTNIL+1
         0 000043   300000 756100                    STQ     0,,PR3

     1321      940    1           ALTRETURN ;

    940  0 000044   000000 702200 xent               TSX2  ! X66_AALT
     1322      941
     1323      942    1   END NIW$MPCDQH ;
PL6.E3A0      #007=NIW$MPCDQH File=NIW$MPC.:E05TSI                               WED 07/30/97 03:45 Page:278

PL6.E3A0      #007=NIW$MPCDQH File=NIW$MPC.:E05TSI                               WED 07/30/97 03:45 Page:279
--  Include file information  --

   NI_MACROS_C.:E05TOU  cannot be made into a system file and is referenced.
   NI$TABLES.:E05TOU  is referenced.
   N$REQ.:E05TOU  is referenced.
   NI_DATA_R.:E05TOU  cannot be made into a system file and is referenced.
   NI_DATA_C.:E05TOU  is referenced.
      No diagnostics issued in procedure NIW$MPCDQH.
PL6.E3A0      #007=NIW$MPCDQH File=NIW$MPC.:E05TSI                               WED 07/30/97 03:45 Page:280

 **** Variables and constants ****

  ****  Auto variables  ****

  ****  Scalars and arrays  ****
OctLoc.c.b A Datatyp(siz) R M Lvl/name                 OctLoc.c.b A Datatyp(siz) R M Lvl/name

     3-0-0/w PTR         r     1 @DCT                       4-0-0/w PTR         r     1 @DQH$
    *0-0-0/w STRC(1332)  r     1 DCT                       *0-0-0/w PTR         r     1 DQH$
     5-0-0/w SBIN        r     1 I

  ****  SYMREF variables  ****

  ****  Scalars and arrays  ****
OctLoc.c.b A Datatyp(siz) R M Lvl/name                 OctLoc.c.b A Datatyp(siz) R M Lvl/name

     0-0-0/w PTR         r     1 N$DCT$$                    0-0-0/w PTR         r     1 N$FQ$
     0-0-0/w PTR         r     1 NI$CHT$                    0-0-0/w PTR         r     1 NI$FQ$
     0-0-0/w PTR         r     1 NI$IBUF$                   0-0-0/w PTR         r     1 NI$RP$

  ****  BASED and DCB variables  ****

  ****  Scalars and arrays  ****
OctLoc.c.b A Datatyp(siz) R M Lvl/name                 OctLoc.c.b A Datatyp(siz) R M Lvl/name

     0-0-0/w STRC(648)   r     1 DQH                        0-0-0/w STRC(72)    r     1 NI$CHT(0:0)


   Procedure NIW$MPCDQH requires 37 words for executable code.
   Procedure NIW$MPCDQH requires 8 words of local(AUTO) storage.

    No errors detected in file NIW$MPC.:E05TSI    .
PL6.E3A0      #007=NIW$MPCDQH File=NIW$MPC.:E05TSI                               WED 07/30/97 03:45 Page:281
          *** CROSS REFERENCE LISTING ***
**     DENOTES     IDENTIFIER DEFINITION
<<                 IDENTIFIER'S VALUE SET
>>                 IDENTIFIER'S VALUE USED
<>                 IDENTIFIER SET AND/OR USED
--                 IDENTIFIER REFERENCED
PL6.E3A0      #007=NIW$MPCDQH File=NIW$MPC.:E05TSI                               WED 07/30/97 03:45 Page:282
          MINI XREF LISTING

DCT
       839**DCL         6--PROC
DCT.DP
       859**DCL       866--REDEF     869--REDEF     870--REDEF     872--REDEF     872--REDEF     873--REDEF
       874--REDEF     874--REDEF
DCT.MPC.IOCHANX
       867**DCL       867--REDEF     931>>ASSIGN
DCT.TYPE
       849**DCL       926>>IF
DQH.IOCHANX
       909**DCL       910--REDEF
DQH.MBX$
       918**DCL       919--REDEF
DQH.STATUS.DOWN
       907**DCL       934>>IF
DQH$
       878**DCL         6--PROC      907--IMP-PTR   925<<ASSIGN    931<<ASSIGN    932>>IF        934>>IF
       939<<ASSIGN
I
       894**DCL       930<<DOINDEX   931>>ASSIGN
N$DCT$$
       421**DCL       555--IMP-PTR
N$FQ$
       421**DCL       556--IMP-PTR
N$REQ_INIT.BUFADDR
       440**DCL       441--REDEF     441--REDEF
N$REQ_INIT.DLA.DRELADDR
       432**DCL       432--REDEF
N$REQ_INIT.DVE.EOMCHAR
       469**DCL       470--REDEF
N$REQ_INIT.EAINFO
       463**DCL       463--REDEF
PL6.E3A0      #007=NIW$MPCDQH File=NIW$MPC.:E05TSI                               WED 07/30/97 03:45 Page:283
N$REQ_INIT.EAINFOX
       463**DCL       464--REDEF
N$REQ_INIT.EVNTINFO
       464**DCL       464--REDEF
N$REQ_INIT.STATUS
       445**DCL       451--REDEF
NI$CHT.DQH$
       922**DCL       931>>ASSIGN
NI$CHT$
       480**DCL       922--IMP-PTR   931>>ASSIGN
NI$FQ$
       481**DCL       557--IMP-PTR
NI$IBUF$
       481**DCL       557--IMP-PTR
NI$IMXMBX_INIT.PAGED_BASE
       491**DCL       492--REDEF     492--REDEF
NI$IMXMBX_INIT.SIZE
       493**DCL       493--REDEF
NI$REQ_INIT.DCW
       515**DCL       518--REDEF
NI$REQ_INIT.DCW.TALLY
       516**DCL       516--REDEF
NI$REQ_INIT.IDCW.EXTA
       518**DCL       518--REDEF
NI$REQ_INIT.PCW
       520**DCL       524--REDEF
NI$REQ_INIT.SEEK
       525**DCL       526--REDEF     527--REDEF
NI$RP$
       529**DCL       559--IMP-PTR
NI_MBX_INIT.DCW.CONTROL.AE
       551**DCL       551--REDEF
NI_MBX_INIT.LPW.CONTROL.AE
       547**DCL       547--REDEF
