VERSION E05

PL6.E3A0      #001=NI_DATA_D File=NI_DATA_D.:E05TSI                              WED 07/30/97 03:42 Page:1
        1        1        /*M* NI_DATA_D - IO System Global Data Definitions */
        2        2        /*T***********************************************************/
        3        3        /*T*                                                         */
        4        4        /*T* Copyright (c) Bull HN Information Systems Inc., 1997    */
        5        5        /*T*                                                         */
        6        6        /*T***********************************************************/
        7        7        /*X* DMR */
        8        8        /**/
        9        9        /*P* NAME:        NI_DATA_D
       10       10
       11       11             PURPOSE:     NI_DATA_D is the module to define all Global
       12       12                          data for the IO system via STATIC SYMDEFs.
       13       13
       14       14                          NI_DATA_D is used to create NI_DATA_R using the
       15       15                          DTOR.X tool.
       16       16        */
       17       17        /* ! ! */
       18       18        NI_DATA_D: PROC ;
       19       19        /* !R! */
       20       20        /*
       21       21                Includes
       22       22        */
       23       23        /* ! ! */
       24       24        %INCLUDE                B_LSDATA_C ;
       25     3230        %INCLUDE                M_INFO_C ;
       26     3370        /* !R! */
       27     3371        %INCLUDE                N$REQ ;
       28     3445        %INCLUDE                NI$TABLES ;
       29     3661        /*
       30     3662                SYMDEFs
       31     3663        */
       32     3664    1   DCL 1 N$DCT$$           PTR STATIC SYMDEF INIT(ADDR(NIL)) ;
       33     3665                            /*  Pointer to N$DCT$ pointer array.                    */
       34     3666
       35     3667    1   DCL 1 N$FQ$             PTR STATIC SYMDEF INIT(ADDR(NIL)) ;
       36     3668                            /*  Pointer to queue of free IOQ packets.               */
       37     3669
PL6.E3A0      #001=NI_DATA_D File=NI_DATA_D.:E05TSI                              WED 07/30/97 03:42 Page:2
       38     3670        %N$REQ                  ( NAME=N$REQ_INIT, STCLASS="CONSTANT SYMDEF" ) ;
       39     3728                                /*  N$REQ structure used to initialize
       40     3729                                    IOQ packets.  */
       41     3730
       42     3731    1   DCL 1 NI$CHT$           PTR STATIC SYMDEF INIT(ADDR(NIL)) ;
       43     3732                                /*  Pointer to array of channel table
       44     3733                                    pointers.  */
       45     3734
       46     3735    1   DCL 1 NI$CONNECT$       PTR STATIC SYMDEF INIT(ADDR(NIL)) ;
       47     3736                            /*  Pointer to NI$CONNECT structure.                    */
       48     3737    1   DCL 1 NI$DS             ALIGNED STATIC SYMDEF,
       49     3738    1         2 LEVEL           SBIN WORD INIT(0) ;
       50     3739                                /*  Gate Lock/Unlock interrupt disable/enable
       51     3740                                    control counter.  */
       52     3741
       53     3742    1   DCL 1 NI$DVT$(0:%(N_MAXDVTS-1)) PTR STATIC SYMDEF INIT(ADDR(NIL)*0) ;
       54     3743                            /*  Array of pointers to DVTs.                          */
       55     3744
       56     3745    1   DCL 1 NI$FQ$            PTR STATIC SYMDEF INIT(ADDR(NIL)) ;
       57     3746                            /*  Pointer to beginning of IOS packets.                */
       58     3747
       59     3748    1   DCL 1 NI$IMW$           PTR STATIC SYMDEF INIT(ADDR(NIL)) ;
       60     3749                                /*  Pointer to array of IMX interrupt mask
       61     3750                                    words.  */
       62     3751
       63     3752    1   DCL 1 NI$IBUF$          PTR STATIC SYMDEF INIT(ADDR(NIL)) ;
       64     3753                            /*  Pointer to IMX buffer table.                        */
       65     3754
       66     3755        %NI$IMXMBX              ( NAME=NI$IMXMBX_INIT, STCLASS="CONSTANT SYMDEF" ) ;
       67     3776                                /*  NI$IMXMBX structure used to initialize
       68     3777                                    IMX mailboxes.  */
       69     3778
       70     3779    1   DCL 1 NI$IOM$(0:%(N_MAXIOMS-1)) PTR STATIC SYMDEF INIT(ADDR(NIL)*0) ;
       71     3780                            /*  Array of pointers to IOM structures.                */
       72     3781
       73     3782    1   DCL 1 NI$IOQ$           PTR STATIC SYMDEF INIT(ADDR(NIL)) ;
       74     3783                            /*  Pointer to beginning of IOQ packets.                */
PL6.E3A0      #001=NI_DATA_D File=NI_DATA_D.:E05TSI                              WED 07/30/97 03:42 Page:3
       75     3784
       76     3785        %NI$REQ                 ( NAME=NI$REQ_INIT, STCLASS="CONSTANT SYMDEF" ) ;
       77     3810                                /*  NI$REQ structure used to initialize
       78     3811                                    IOS packets.  */
       79     3812
       80     3813    1   DCL 1 NI$RP$            PTR STATIC SYMDEF INIT(ADDR(NIL)) ;
       81     3814                            /*  Pointer to Repost Queue.                            */
       82     3815
       83     3816    1   DCL 1 N_DCTXMAX         SBIN WORD STATIC SYMDEF INIT(0) ;
       84     3817                            /*  Maximum DCT index.                                  */
       85     3818
       86     3819    1   DCL 1 N_NDPS            SBIN WORD STATIC SYMDEF INIT(0) ;
       87     3820                            /*  Number of disk packs.                               */
       88     3821
       89     3822    1   DCL 1 NI_CHANCONFIG     BIT(1) ALIGNED STATIC SYMDEF INIT('0'B) ;
       90     3823                                /*  Flag for rewriting AARDVARK's
       91     3824                                    configuration to the system disk.  */
       92     3825
       93     3826    1   DCL 1 NI_CHANS(0:%(N_MAXIOMS-1)) UBIN WORD STATIC SYMDEF INIT(0*0) ;
       94     3827                            /*  Maximum used channel number per IOM.                */
       95     3828
       96     3829    1   DCL 1 NI_CONADDR        UBIN WORD ALIGNED STATIC SYMDEF INIT(0) ;
       97     3830                                /*  Connect address.  For IMX, MBX$.  For
       98     3831                                    IOM and IOP, PORT.  */
       99     3832
      100     3833    1   DCL 1 NI_DBLZERO        BIT(72) DALIGNED STATIC SYMDEF INIT('0'B) ;
      101     3834                            /*  Double word of zeros.                               */
      102     3835
      103     3836    1   DCL 1 NI_FWGATE         BIT(72) ALIGNED STATIC SYMDEF INIT('1'B) ;
      104     3837                            /*  Gate on firmware descriptor.                        */
      105     3838
      106     3839    1   DCL 1 NI_IMXLO_PBASE    UBIN WORD ALIGNED STATIC SYMDEF INIT(0) ;
      107     3840                            /*  IMX paged IO base for mailboxes.                    */
      108     3841
      109     3842    1   DCL 1 NI_IMX_CCW        UBIN WORD ALIGNED STATIC SYMDEF INIT(0) ;
      110     3843                            /*  IMX channel connect word.                           */
      111     3844
PL6.E3A0      #001=NI_DATA_D File=NI_DATA_D.:E05TSI                              WED 07/30/97 03:42 Page:4
      112     3845    1   DCL 1 NI_INTENTRY       DALIGNED STATIC SYMDEF,
      113     3846    1         2 LOC      UBIN(18) UNAL INIT(0), /* Setup by TIGR */
      114     3847    1         2 F       BIT(1) UNAL INIT('0'B), /* No Store perm */
      115     3848    1         2 ISEG     UBIN(10) UNAL INIT(0), /* Always $LS0   */
      116     3849    1         2 WSR       UBIN(3) UNAL INIT(0), /* Always WSR0   */
      117     3850    1         2 TYPE     UBIN(4) UNAL INIT(11), /* Always Type 11*/
      118     3851    1         2 BOUND           UBIN(10) UNAL INIT(%(MLS_SIZEC/8)),
      119     3852    1         2 BASE            UBIN(23) UNAL INIT(%(HJITPG*512)),
      120     3853    1         2 *               BIT(3) UNAL   INIT('0'B) ;
      121     3854                            /*  Interrupt entry descriptor.                         */
      122     3855
      123     3856    1   DCL 1 NI_IOMS           SBIN WORD ALIGNED STATIC SYMDEF INIT(0) ;
      124     3857                            /*  Number of IOMs.                                     */
      125     3858
      126     3859    1   DCL 1 NI_MAINT_DCTX(0:%(N_MAXIOMS-1)) UBIN WORD ALIGNED STATIC SYMDEF INIT(0*0) ;
      127     3860                            /*  DCT index for maintenance consoles.                 */
      128     3861
      129     3862    1   DCL 1 NI_MAX_CHANS      UBIN WORD ALIGNED STATIC SYMDEF INIT(0) ;
      130     3863                            /*  Maximum number of channels defined.                 */
      131     3864
      132     3865        %NI$MBX                 ( NAME=NI_MBX_INIT, STCLASS="STATIC SYMDEF" ) ;
      133     3884                                /*  NI$MBX structure used to initialize
      134     3885                                    IOM/IOP mailboxes.  TIGR fills in part
      135     3886                                    of this structure.  */
      136     3887
      137     3888    1   DCL 1 NI_MFGATE         BIT(72) ALIGNED STATIC SYMDEF INIT('1'B) ;
      138     3889                            /*  Gate on DCB Master Function.                        */
      139     3890                                /*  Another possible DPS 90 problem:  A gate
      140     3891                                    in $LS0 which uses cache. */
      141     3892
      142     3893    1   DCL 1 NI_NDVTS          UBIN WORD ALIGNED STATIC SYMDEF INIT(0) ;
      143     3894                            /*  Number of DVTs defined.                             */
      144     3895
      145     3896    1   DCL 1 NI_NUMIOQ         SBIN WORD ALIGNED STATIC SYMDEF INIT(0) ;
      146     3897                            /*  Number of IOQ packets built.                        */
      147     3898
      148     3899    1   DCL 1 NI_NUMIOS         SBIN WORD ALIGNED STATIC SYMDEF INIT(0) ;
PL6.E3A0      #001=NI_DATA_D File=NI_DATA_D.:E05TSI                              WED 07/30/97 03:42 Page:5
      149     3900                            /*  Number of IOS packets built.                        */
      150     3901
      151     3902    1   DCL 1 NI_OVERLAY        SBIN WORD ALIGNED STATIC SYMDEF INIT(0) ;
      152     3903                                /*  Number of times NIM$INTDIS has to restore
      153     3904                                    an overlay.  */
      154     3905
      155     3906    1   DCL 1 NI_RELIOS         BIT(1) ALIGNED STATIC SYMDEF INIT('1'B) ;
      156     3907                                /*  Flag to indicate whether or not IOS
      157     3908                                    packets are to be released when IOQ
      158     3909                                    packets are released.  */
      159     3910
      160     3911        /*
      161     3912                Based
      162     3913        */
      163     3914    1   DCL 1 N$DCT$(0:0)       PTR BASED(N$DCT$$) ALIGNED ;
      164     3915                                                /*  Array of pointers to DCTs.  */
      165     3916
      166     3917    1   DCL 1 N$FQ              BASED(N$FQ$),   /*  Queue of Free IOQ packets.  */
      167     3918    1         2 GATE            ALIGNED,        /*  Gate on this queue.  */
      168     3919    1           3 LOCK          SBIN WORD,
      169     3920    1           3 WHO           SBIN WORD,
      170     3921    1         2 HD$             PTR ALIGNED,    /*  Queue header */
      171     3922    1         2 NQP             SBIN WORD,      /*  Number of users waiting
      172     3923                                                    for an IOQ packet.  */
      173     3924    1         2 REQID           UBIN WORD ;     /*  Id number to be assigned
      174     3925                                                    to packet.  */
      175     3926
      176     3927    1   DCL 1 NI$FQ             BASED(NI$FQ$),  /*  Queue of Free IOS packets.  */
      177     3928    1         2 GATE            ALIGNED,        /*  Gate on this queue.  */
      178     3929    1           3 LOCK          SBIN WORD,
      179     3930    1           3 WHO           SBIN WORD,
      180     3931    1         2 HD$             PTR ALIGNED,    /*  Queue header */
      181     3932    1         2 NQP             SBIN WORD ;     /*  Number of users waiting
      182     3933                                                    for an IOS packet.  */
      183     3934
      184     3935    1   DCL 1 NI$IBUF          BASED(NI$IBUF$), /*  IMX (MCA) buffer table.  */
      185     3936    1         2 GATE            ALIGNED,        /*  Gate for buffer allocation.  */
PL6.E3A0      #001=NI_DATA_D File=NI_DATA_D.:E05TSI                              WED 07/30/97 03:42 Page:6
      186     3937    1           3 LOCK          SBIN WORD,
      187     3938    1           3 WHO           SBIN WORD,
      188     3939    1         2 ENT(0:%(N_MAXIOMS-1)),          /*  One entry per IMX.  */
      189     3940    1           3 BUF$          PTR,            /*  Pointer to buffer.  */
      190     3941    1           3 RESERVED      BIT(1) ALIGNED ;/*  Buffer in use flag.  */
      191     3942
      192     3943    1   DCL 1 NI$RP             BASED(NI$RP$),  /*  Repost Queue.  */
      193     3944    1         2 GATE            ALIGNED,        /*  Gate on this queue.  */
      194     3945    1           3 LOCK          SBIN WORD,
      195     3946    1           3 WHO           SBIN WORD,
      196     3947    1         2 RP$             PTR ALIGNED,    /*  Pointer to Repost Queue.  */
      197     3948    1         2 RC$             PTR ALIGNED,    /*  Pointer to Recomp Queue.  */
      198     3949    1         2 RQ$             PTR ALIGNED ;   /*  Pointer to Reque  Queue.  */
      199     3950
      200     3951    1   END NI_DATA_D ;

PL6.E3A0      #001=NI_DATA_D File=NI_DATA_D.:E05TSI                              WED 07/30/97 03:42 Page:7
--  Include file information  --

   NI$TABLES.:E05TOU  is referenced.
   N$REQ.:E05TOU  is referenced.
   M_INFO_C.:E05TOU  is referenced.
   B_MLSMAC_C.:E05TOU  is referenced.
   B_ULSMAC_C.:E05TOU  is referenced.
   B_LSDATA_C.:E05TOU  cannot be made into a system file and is referenced.
      No diagnostics issued in procedure NI_DATA_D.

   No code generated for procedure NI_DATA_D .
   Procedure NI_DATA_D requires 4 words of local(AUTO) storage.

    No errors detected in file NI_DATA_D.:E05TSI    .

PL6.E3A0      #001=NI_DATA_D File=NI_DATA_D.:E05TSI                              WED 07/30/97 03:42 Page:8

 Object Unit name= NI_DATA_D                                  File name= NI_DATA_D.:E05TOU
 UTS= JUL 30 '97 03:42:06.76 WED                              Compiler= PL-6/E31         Sev=      00
 SharedLib= :SHARED_SYSTEM                                    Alt SharedLib=


    ****  Control sections  ****

 Sect   Type Bound  Init  Size OctSiz  Section name(segment info)
    0   Data  even  none    97    141  NI_DATA_D
    1  RoData even  UTS     68    104  NI_DATA_D
    2   Proc  even  none     0      0  NI_DATA_D

    ****  Entry defs  ****

                              Check   Calling
                             calling  sequence
  Sect OctLoc Primary Altret sequence   type   Parms  Name
     2      0   yes            yes     ~proc       0  NI_DATA_D
PL6.E3A0      #001=NI_DATA_D File=NI_DATA_D.:E05TSI                              WED 07/30/97 03:42 Page:9

  ****  Data defs  ****

 Sect OctLoc  Name                           Sect OctLoc  Name
    0      0  N$DCT$$                            0      1  N$FQ$
    1      0  N$REQ_INIT                         0      2  NI$CHT$
    0      3  NI$CONNECT$                        0      4  NI$DS
    0      5  NI$DVT$                            0     67  NI$FQ$
    0     70  NI$IMW$                            0     71  NI$IBUF$
    1     36  NI$IMXMBX_INIT                     0     72  NI$IOM$
    0     76  NI$IOQ$                            1     66  NI$REQ_INIT
    0     77  NI$RP$                             0    100  N_DCTXMAX
    0    101  N_NDPS                             0    102  NI_CHANCONFIG
    0    103  NI_CHANS                           0    107  NI_CONADDR
    0    110  NI_DBLZERO                         0    112  NI_FWGATE
    0    114  NI_IMXLO_PBASE                     0    115  NI_IMX_CCW
    0    116  NI_INTENTRY                        0    120  NI_IOMS
    0    121  NI_MAINT_DCTX                      0    125  NI_MAX_CHANS
    0    126  NI_MBX_INIT                        0    132  NI_MFGATE
    0    134  NI_NDVTS                           0    135  NI_NUMIOQ
    0    136  NI_NUMIOS                          0    137  NI_OVERLAY
    0    140  NI_RELIOS

  ****  Segment refs  ****

  Flags:  r = read only, s = secondary
Flgs Name                             Flgs Name                             Flgs Name
     NULLSID
PL6.E3A0      #001=NI_DATA_D File=NI_DATA_D.:E05TSI                              WED 07/30/97 03:42 Page:10

        1        1        /*M* NI_DATA_D - IO System Global Data Definitions */
        2        2        /*T***********************************************************/
        3        3        /*T*                                                         */
        4        4        /*T* Copyright (c) Bull HN Information Systems Inc., 1997    */
        5        5        /*T*                                                         */
        6        6        /*T***********************************************************/
        7        7        /*X* DMR */
        8        8        /**/
        9        9        /*P* NAME:        NI_DATA_D
       10       10
       11       11             PURPOSE:     NI_DATA_D is the module to define all Global
       12       12                          data for the IO system via STATIC SYMDEFs.
       13       13
       14       14                          NI_DATA_D is used to create NI_DATA_R using the
       15       15                          DTOR.X tool.
       16       16        */
       17       17        /* ! ! */
       18       18        NI_DATA_D: PROC ;
       19       19        /* !R! */
       20       20        /*
       21       21                Includes
       22       22        */
       23       23        /* ! ! */
       24       24        %INCLUDE                B_LSDATA_C ;
       25     3230        %INCLUDE                M_INFO_C ;
       26     3370        /* !R! */
       27     3371        %INCLUDE                N$REQ ;
       28     3445        %INCLUDE                NI$TABLES ;
       29     3661        /*
       30     3662                SYMDEFs
       31     3663        */
       32     3664    1   DCL 1 N$DCT$$           PTR STATIC SYMDEF INIT(ADDR(NIL)) ;
       33     3665                            /*  Pointer to N$DCT$ pointer array.                    */
       34     3666
       35     3667    1   DCL 1 N$FQ$             PTR STATIC SYMDEF INIT(ADDR(NIL)) ;
       36     3668                            /*  Pointer to queue of free IOQ packets.               */
       37     3669
PL6.E3A0      #001=NI_DATA_D File=NI_DATA_D.:E05TSI                              WED 07/30/97 03:42 Page:11
       38     3670        %N$REQ                  ( NAME=N$REQ_INIT, STCLASS="CONSTANT SYMDEF" ) ;
       39     3728                                /*  N$REQ structure used to initialize
       40     3729                                    IOQ packets.  */
       41     3730
       42     3731    1   DCL 1 NI$CHT$           PTR STATIC SYMDEF INIT(ADDR(NIL)) ;
       43     3732                                /*  Pointer to array of channel table
       44     3733                                    pointers.  */
       45     3734
       46     3735    1   DCL 1 NI$CONNECT$       PTR STATIC SYMDEF INIT(ADDR(NIL)) ;
       47     3736                            /*  Pointer to NI$CONNECT structure.                    */
       48     3737    1   DCL 1 NI$DS             ALIGNED STATIC SYMDEF,
       49     3738    1         2 LEVEL           SBIN WORD INIT(0) ;
       50     3739                                /*  Gate Lock/Unlock interrupt disable/enable
       51     3740                                    control counter.  */
       52     3741
       53     3742    1   DCL 1 NI$DVT$(0:%(N_MAXDVTS-1)) PTR STATIC SYMDEF INIT(ADDR(NIL)*0) ;
       54     3743                            /*  Array of pointers to DVTs.                          */
       55     3744
       56     3745    1   DCL 1 NI$FQ$            PTR STATIC SYMDEF INIT(ADDR(NIL)) ;
       57     3746                            /*  Pointer to beginning of IOS packets.                */
       58     3747
       59     3748    1   DCL 1 NI$IMW$           PTR STATIC SYMDEF INIT(ADDR(NIL)) ;
       60     3749                                /*  Pointer to array of IMX interrupt mask
       61     3750                                    words.  */
       62     3751
       63     3752    1   DCL 1 NI$IBUF$          PTR STATIC SYMDEF INIT(ADDR(NIL)) ;
       64     3753                            /*  Pointer to IMX buffer table.                        */
       65     3754
       66     3755        %NI$IMXMBX              ( NAME=NI$IMXMBX_INIT, STCLASS="CONSTANT SYMDEF" ) ;
       67     3776                                /*  NI$IMXMBX structure used to initialize
       68     3777                                    IMX mailboxes.  */
       69     3778
       70     3779    1   DCL 1 NI$IOM$(0:%(N_MAXIOMS-1)) PTR STATIC SYMDEF INIT(ADDR(NIL)*0) ;
       71     3780                            /*  Array of pointers to IOM structures.                */
       72     3781
       73     3782    1   DCL 1 NI$IOQ$           PTR STATIC SYMDEF INIT(ADDR(NIL)) ;
       74     3783                            /*  Pointer to beginning of IOQ packets.                */
PL6.E3A0      #001=NI_DATA_D File=NI_DATA_D.:E05TSI                              WED 07/30/97 03:42 Page:12
       75     3784
       76     3785        %NI$REQ                 ( NAME=NI$REQ_INIT, STCLASS="CONSTANT SYMDEF" ) ;
       77     3810                                /*  NI$REQ structure used to initialize
       78     3811                                    IOS packets.  */
       79     3812
       80     3813    1   DCL 1 NI$RP$            PTR STATIC SYMDEF INIT(ADDR(NIL)) ;
       81     3814                            /*  Pointer to Repost Queue.                            */
       82     3815
       83     3816    1   DCL 1 N_DCTXMAX         SBIN WORD STATIC SYMDEF INIT(0) ;
       84     3817                            /*  Maximum DCT index.                                  */
       85     3818
       86     3819    1   DCL 1 N_NDPS            SBIN WORD STATIC SYMDEF INIT(0) ;
       87     3820                            /*  Number of disk packs.                               */
       88     3821
       89     3822    1   DCL 1 NI_CHANCONFIG     BIT(1) ALIGNED STATIC SYMDEF INIT('0'B) ;
       90     3823                                /*  Flag for rewriting AARDVARK's
       91     3824                                    configuration to the system disk.  */
       92     3825
       93     3826    1   DCL 1 NI_CHANS(0:%(N_MAXIOMS-1)) UBIN WORD STATIC SYMDEF INIT(0*0) ;
       94     3827                            /*  Maximum used channel number per IOM.                */
       95     3828
       96     3829    1   DCL 1 NI_CONADDR        UBIN WORD ALIGNED STATIC SYMDEF INIT(0) ;
       97     3830                                /*  Connect address.  For IMX, MBX$.  For
       98     3831                                    IOM and IOP, PORT.  */
       99     3832
      100     3833    1   DCL 1 NI_DBLZERO        BIT(72) DALIGNED STATIC SYMDEF INIT('0'B) ;
      101     3834                            /*  Double word of zeros.                               */
      102     3835
      103     3836    1   DCL 1 NI_FWGATE         BIT(72) ALIGNED STATIC SYMDEF INIT('1'B) ;
      104     3837                            /*  Gate on firmware descriptor.                        */
      105     3838
      106     3839    1   DCL 1 NI_IMXLO_PBASE    UBIN WORD ALIGNED STATIC SYMDEF INIT(0) ;
      107     3840                            /*  IMX paged IO base for mailboxes.                    */
      108     3841
      109     3842    1   DCL 1 NI_IMX_CCW        UBIN WORD ALIGNED STATIC SYMDEF INIT(0) ;
      110     3843                            /*  IMX channel connect word.                           */
      111     3844
PL6.E3A0      #001=NI_DATA_D File=NI_DATA_D.:E05TSI                              WED 07/30/97 03:42 Page:13
      112     3845    1   DCL 1 NI_INTENTRY       DALIGNED STATIC SYMDEF,
      113     3846    1         2 LOC      UBIN(18) UNAL INIT(0), /* Setup by TIGR */
      114     3847    1         2 F       BIT(1) UNAL INIT('0'B), /* No Store perm */
      115     3848    1         2 ISEG     UBIN(10) UNAL INIT(0), /* Always $LS0   */
      116     3849    1         2 WSR       UBIN(3) UNAL INIT(0), /* Always WSR0   */
      117     3850    1         2 TYPE     UBIN(4) UNAL INIT(11), /* Always Type 11*/
      118     3851    1         2 BOUND           UBIN(10) UNAL INIT(%(MLS_SIZEC/8)),
      119     3852    1         2 BASE            UBIN(23) UNAL INIT(%(HJITPG*512)),
      120     3853    1         2 *               BIT(3) UNAL   INIT('0'B) ;
      121     3854                            /*  Interrupt entry descriptor.                         */
      122     3855
      123     3856    1   DCL 1 NI_IOMS           SBIN WORD ALIGNED STATIC SYMDEF INIT(0) ;
      124     3857                            /*  Number of IOMs.                                     */
      125     3858
      126     3859    1   DCL 1 NI_MAINT_DCTX(0:%(N_MAXIOMS-1)) UBIN WORD ALIGNED STATIC SYMDEF INIT(0*0) ;
      127     3860                            /*  DCT index for maintenance consoles.                 */
      128     3861
      129     3862    1   DCL 1 NI_MAX_CHANS      UBIN WORD ALIGNED STATIC SYMDEF INIT(0) ;
      130     3863                            /*  Maximum number of channels defined.                 */
      131     3864
      132     3865        %NI$MBX                 ( NAME=NI_MBX_INIT, STCLASS="STATIC SYMDEF" ) ;
      133     3884                                /*  NI$MBX structure used to initialize
      134     3885                                    IOM/IOP mailboxes.  TIGR fills in part
      135     3886                                    of this structure.  */
      136     3887
      137     3888    1   DCL 1 NI_MFGATE         BIT(72) ALIGNED STATIC SYMDEF INIT('1'B) ;
      138     3889                            /*  Gate on DCB Master Function.                        */
      139     3890                                /*  Another possible DPS 90 problem:  A gate
      140     3891                                    in $LS0 which uses cache. */
      141     3892
      142     3893    1   DCL 1 NI_NDVTS          UBIN WORD ALIGNED STATIC SYMDEF INIT(0) ;
      143     3894                            /*  Number of DVTs defined.                             */
      144     3895
      145     3896    1   DCL 1 NI_NUMIOQ         SBIN WORD ALIGNED STATIC SYMDEF INIT(0) ;
      146     3897                            /*  Number of IOQ packets built.                        */
      147     3898
      148     3899    1   DCL 1 NI_NUMIOS         SBIN WORD ALIGNED STATIC SYMDEF INIT(0) ;
PL6.E3A0      #001=NI_DATA_D File=NI_DATA_D.:E05TSI                              WED 07/30/97 03:42 Page:14
      149     3900                            /*  Number of IOS packets built.                        */
      150     3901
      151     3902    1   DCL 1 NI_OVERLAY        SBIN WORD ALIGNED STATIC SYMDEF INIT(0) ;
      152     3903                                /*  Number of times NIM$INTDIS has to restore
      153     3904                                    an overlay.  */
      154     3905
      155     3906    1   DCL 1 NI_RELIOS         BIT(1) ALIGNED STATIC SYMDEF INIT('1'B) ;
      156     3907                                /*  Flag to indicate whether or not IOS
      157     3908                                    packets are to be released when IOQ
      158     3909                                    packets are released.  */
      159     3910
      160     3911        /*
      161     3912                Based
      162     3913        */
      163     3914    1   DCL 1 N$DCT$(0:0)       PTR BASED(N$DCT$$) ALIGNED ;
      164     3915                                                /*  Array of pointers to DCTs.  */
      165     3916
      166     3917    1   DCL 1 N$FQ              BASED(N$FQ$),   /*  Queue of Free IOQ packets.  */
      167     3918    1         2 GATE            ALIGNED,        /*  Gate on this queue.  */
      168     3919    1           3 LOCK          SBIN WORD,
      169     3920    1           3 WHO           SBIN WORD,
      170     3921    1         2 HD$             PTR ALIGNED,    /*  Queue header */
      171     3922    1         2 NQP             SBIN WORD,      /*  Number of users waiting
      172     3923                                                    for an IOQ packet.  */
      173     3924    1         2 REQID           UBIN WORD ;     /*  Id number to be assigned
      174     3925                                                    to packet.  */
      175     3926
      176     3927    1   DCL 1 NI$FQ             BASED(NI$FQ$),  /*  Queue of Free IOS packets.  */
      177     3928    1         2 GATE            ALIGNED,        /*  Gate on this queue.  */
      178     3929    1           3 LOCK          SBIN WORD,
      179     3930    1           3 WHO           SBIN WORD,
      180     3931    1         2 HD$             PTR ALIGNED,    /*  Queue header */
      181     3932    1         2 NQP             SBIN WORD ;     /*  Number of users waiting
      182     3933                                                    for an IOS packet.  */
      183     3934
      184     3935    1   DCL 1 NI$IBUF          BASED(NI$IBUF$), /*  IMX (MCA) buffer table.  */
      185     3936    1         2 GATE            ALIGNED,        /*  Gate for buffer allocation.  */
PL6.E3A0      #001=NI_DATA_D File=NI_DATA_D.:E05TSI                              WED 07/30/97 03:42 Page:15
      186     3937    1           3 LOCK          SBIN WORD,
      187     3938    1           3 WHO           SBIN WORD,
      188     3939    1         2 ENT(0:%(N_MAXIOMS-1)),          /*  One entry per IMX.  */
      189     3940    1           3 BUF$          PTR,            /*  Pointer to buffer.  */
      190     3941    1           3 RESERVED      BIT(1) ALIGNED ;/*  Buffer in use flag.  */
      191     3942
      192     3943    1   DCL 1 NI$RP             BASED(NI$RP$),  /*  Repost Queue.  */
      193     3944    1         2 GATE            ALIGNED,        /*  Gate on this queue.  */
      194     3945    1           3 LOCK          SBIN WORD,
      195     3946    1           3 WHO           SBIN WORD,
      196     3947    1         2 RP$             PTR ALIGNED,    /*  Pointer to Repost Queue.  */
      197     3948    1         2 RC$             PTR ALIGNED,    /*  Pointer to Recomp Queue.  */
      198     3949    1         2 RQ$             PTR ALIGNED ;   /*  Pointer to Reque  Queue.  */
      199     3950
      200     3951    1   END NI_DATA_D ;

PL6.E3A0      #001=NI_DATA_D File=NI_DATA_D.:E05TSI                              WED 07/30/97 03:42 Page:16
--  Include file information  --

   NI$TABLES.:E05TOU  is referenced.
   N$REQ.:E05TOU  is referenced.
   M_INFO_C.:E05TOU  is referenced.
   B_MLSMAC_C.:E05TOU  is referenced.
   B_ULSMAC_C.:E05TOU  is referenced.
   B_LSDATA_C.:E05TOU  cannot be made into a system file and is referenced.
      No diagnostics issued in procedure NI_DATA_D.
PL6.E3A0      #001=NI_DATA_D File=NI_DATA_D.:E05TSI                              WED 07/30/97 03:42 Page:17

 **** Variables and constants ****

  ****  Section 000  Data  NI_DATA_D

  ****  Scalars and arrays  ****
OctLoc.c.b A Datatyp(siz) R M Lvl/name                 OctLoc.c.b A Datatyp(siz) R M Lvl/name

     0-0-0/w PTR         r     1 N$DCT$$                    1-0-0/w PTR         r     1 N$FQ$
    67-0-0/w PTR         r     1 NI$FQ$                    71-0-0/w PTR         r     1 NI$IBUF$
    77-0-0/w PTR         r     1 NI$RP$


   No code generated for procedure NI_DATA_D .
   Procedure NI_DATA_D requires 4 words of local(AUTO) storage.

    No errors detected in file NI_DATA_D.:E05TSI    .
PL6.E3A0      #001=NI_DATA_D File=NI_DATA_D.:E05TSI                              WED 07/30/97 03:42 Page:18
          *** CROSS REFERENCE LISTING ***
**     DENOTES     IDENTIFIER DEFINITION
<<                 IDENTIFIER'S VALUE SET
>>                 IDENTIFIER'S VALUE USED
<>                 IDENTIFIER SET AND/OR USED
--                 IDENTIFIER REFERENCED
PL6.E3A0      #001=NI_DATA_D File=NI_DATA_D.:E05TSI                              WED 07/30/97 03:42 Page:19
          MINI XREF LISTING

N$DCT$$
      3664**DCL      3914--IMP-PTR
N$FQ$
      3667**DCL      3917--IMP-PTR
N$REQ_INIT.BUFADDR
      3688**DCL      3689--REDEF    3689--REDEF
N$REQ_INIT.DLA.DRELADDR
      3680**DCL      3680--REDEF
N$REQ_INIT.DVE.EOMCHAR
      3717**DCL      3718--REDEF
N$REQ_INIT.EAINFO
      3711**DCL      3711--REDEF
N$REQ_INIT.EAINFOX
      3711**DCL      3712--REDEF
N$REQ_INIT.EVNTINFO
      3712**DCL      3712--REDEF
N$REQ_INIT.STATUS
      3693**DCL      3699--REDEF
NI$FQ$
      3745**DCL      3927--IMP-PTR
NI$IBUF$
      3752**DCL      3935--IMP-PTR
NI$IMXMBX_INIT.PAGED_BASE
      3764**DCL      3765--REDEF    3765--REDEF
NI$IMXMBX_INIT.SIZE
      3766**DCL      3766--REDEF
NI$REQ_INIT.DCW
      3796**DCL      3799--REDEF
NI$REQ_INIT.DCW.TALLY
      3797**DCL      3797--REDEF
NI$REQ_INIT.IDCW.EXTA
      3799**DCL      3799--REDEF
PL6.E3A0      #001=NI_DATA_D File=NI_DATA_D.:E05TSI                              WED 07/30/97 03:42 Page:20
NI$REQ_INIT.PCW
      3801**DCL      3805--REDEF
NI$REQ_INIT.SEEK
      3806**DCL      3807--REDEF    3808--REDEF
NI$RP$
      3813**DCL      3943--IMP-PTR
NI_MBX_INIT.DCW.CONTROL.AE
      3881**DCL      3881--REDEF
NI_MBX_INIT.LPW.CONTROL.AE
      3877**DCL      3877--REDEF
