PL6.E3A0      #001=NI_DVTS_D File=NI_DVTS_D.:E05TSI                              WED 07/30/97 03:42 Page:1
        1        1        /*M* NI_DVTS_D - DEVICE TABLES FOR IOQ */
        2        2        /*T***********************************************************/
        3        3        /*T*                                                         */
        4        4        /*T* Copyright (c) Bull HN Information Systems Inc., 1997    */
        5        5        /*T*                                                         */
        6        6        /*T***********************************************************/
        7        7        NI_DVTS_D: PROC ;
        8        8        /**/
        9        9        %INCLUDE NI_DEVCMD_C;
       10      192        %INCLUDE CP_6_SUBS;
       11      732        %INCLUDE NI_DATA_C;
       12      845        %INCLUDE TM_DATA_M;
       13      947        /**/
       14      948    1   DCL NIC$REQSCHED ENTRY(1); DCL NIC$POSTER ENTRY(3);
       15      949    1   DCL NIB$REQSCHED ENTRY(1); DCL NIB$POSTER ENTRY(3);DCL NIB$DEVSCHED ENTRY(1);
       16      950    1   DCL NIJ$REQSCHED ENTRY(1); DCL NIJ$POSTER ENTRY(3);DCL NIJ$DEVSCHED ENTRY(1);
       17      951    1   DCL NIU$REQSCHED ENTRY(1); DCL NIU$DEVSCHED ENTRY(2);
       18      952    1   DCL NIR$POSTER ENTRY(3); DCL NIL$POSTER ENTRY(3); DCL NIP$POSTER ENTRY(3);
       19      953    1   DCL NIT$REQSCHED ENTRY(1); DCL NIT$POSTER ENTRY(3); DCL NIT$DEVSCHED ENTRY(2);
       20      954    1   DCL NID$REQSCHED ENTRY(1); DCL NID$POSTER ENTRY(3); DCL NID$DEVSCHED ENTRY(2);
       21      955    1   DCL NIW$REQSCHED ENTRY(1); DCL NIW$POSTER ENTRY(3); DCL NIW$DEVSCHED ENTRY(2);
       22      956    1   DCL NAP$POSTER ENTRY(3);
       23      957        /**/
       24      958        /* WARNING:  The DVT macro must be in sync with the NI$DVT macro in
       25      959                     NI$TABLES and the logical function codes in N_FC_C.   */
       26      960        /* WARNING:  The following conventions must be followed when adding DVTs.
       27      961                   1.  Only DVTs may be declared in this module.
       28      962                   2.  The last DVT must be MCA.
       29      963                   3.  The next to the last DVT must be MSOS.
       30      964                   4.  If the DVTs require more than 4 pages of data, the monitor`s
       31      965                       HJIT must be updated to get more space in LS130.  Currently
       32      966                       4 pages are available in LS130 for DVTS.  The page table
       33      967                       entries for LS130 are 28-31.  The DVTs may not grow past
       34      968                       entry 49.
       35      969                    5. If more than 50 DVTs are defined, NI_DATA_D must be updated
       36      970                       to all for more DVT pointers (NI$DVT$).                */
       37      971        /**/
PL6.E3A0      #001=NI_DVTS_D File=NI_DVTS_D.:E05TSI                              WED 07/30/97 03:42 Page:2
       38      972        %MACRO DVT (NAME=DVT,STCLASS="CONSTANT SYMDEF",
       39      973                    SCHED#=NIL,
       40      974                    POSTER#=NIL,
       41      975                    DVSCH#=NIL,
       42      976                    MODEL#=' ',
       43      977                    FEATURE#=' ',
       44      978                    FWNAME#=' ',
       45      979                    LPNAME#=' ',
       46      980                    CRPNAME#=' ',
       47      981                    TYPE#=0,
       48      982                    GS#=0,
       49      983                    PS#=0,
       50      984                    SS#=0,
       51      985                    CS#=0,
       52      986                    T@DCYL#=0,
       53      987                    SPT#=0,
       54      988                    NT@DCYLS#=0,
       55      989                    ATTR#='0'B,
       56      990                    DCWLIST#="%CONCAT('00'O,%RTN_DCWLIST)",
       57      991                    RQSTAT#='0'B,
       58      992                    RDBIN#='0'B,
       59      993                    WRBIN#='0'B,
       60      994                    RDASC#='0'B,
       61      995                    WRASC#='0'B,
       62      996                    REWIND#='0'B,
       63      997                    WRCMP#='0'B,
       64      998                    UNLOAD#='0'B,
       65      999                    ALARM#='0'B,
       66     1000                    WRFM#='0'B,
       67     1001                    WRZERO#='0'B,
       68     1002                    READ#='0'B,
       69     1003                    WRITE#='0'B,
       70     1004                    SPREC#='0'B,
       71     1005                    SPFILE#='0'B,
       72     1006                    PERMIT#='0'B,
       73     1007                    PROTECT#='0'B,
       74     1008                    RESET#='0'B,
PL6.E3A0      #001=NI_DVTS_D File=NI_DVTS_D.:E05TSI                              WED 07/30/97 03:42 Page:3
       75     1009                    SD800#='0'B,
       76     1010                    SD1600#='0'B,
       77     1011                    SD6250#='0'B,
       78     1012                    LDCHAIN#='0'B,
       79     1013                    LDTAPE#='0'B,
       80     1014                    RESTORE#='0'B,
       81     1015                    LDVFC#='0'B,
       82     1016                    SYMB#='0'B,
       83     1017                    EXTST#='0'B,
       84     1018                    ERASE#='0'B);
       85     1019        DCL 1 NAME STCLASS ALIGNED,
       86     1020              2 SCHED EPTR INIT(ENTADDR(SCHED#)),
       87     1021              2 POSTER EPTR INIT(ENTADDR(POSTER#)),
       88     1022              2 DVSCH EPTR INIT(ENTADDR(DVSCH#)),
       89     1023              2 MODEL(0:9) CHAR(8) ALIGNED INIT(MODEL#,' '*0),
       90     1024              2 FEATURE(0:9) CHAR(8) ALIGNED INIT(' ',FEATURE#,' '*0),
       91     1025              2 TYPE UBIN(9) UNAL INIT(TYPE#),
       92     1026              2 NT@DCYLS UBIN(9) UNAL INIT(NT@DCYLS#),
       93     1027              2 SPT UBIN(9) UNAL INIT(SPT#),
       94     1028              2 GRANSIZE UBIN(9) UNAL INIT(GS#),
       95     1029              2 PACKSIZE UBIN(36) UNAL INIT(PS#),
       96     1030              2 CYLSIZE UBIN(18) UNAL INIT(CS#),
       97     1031              2 T@DCYL UBIN(18) UNAL INIT(T@DCYL#),
       98     1032              2 SECSIZE UBIN(18) UNAL INIT(SS#),
       99     1033              2 ATTR BIT(18) UNAL INIT(ATTR#),
      100     1034              2 MPC ALIGNED,
      101     1035                3 FWNAME CHAR(4) INIT(FWNAME#),
      102     1036                3 LPNAME CHAR(4) INIT(LPNAME#),
      103     1037                3 CRPNAME CHAR(4) INIT(CRPNAME#),
      104     1038              2 LP REDEF MPC ALIGNED,
      105     1039                3 CHAIN CHAR(4),
      106     1040                3 *(0:1) UBIN,
      107     1041              2 IDCW ALIGNED,
      108     1042                3 DCWLIST BIT(36) INIT(DCWLIST#),
      109     1043                3 RQSTAT BIT(36) INIT(RQSTAT#),
      110     1044                3 RDBIN BIT(36) INIT(RDBIN#),
      111     1045                3 WRBIN BIT(36) INIT(WRBIN#),
PL6.E3A0      #001=NI_DVTS_D File=NI_DVTS_D.:E05TSI                              WED 07/30/97 03:42 Page:4
      112     1046                3 RDASC BIT(36) INIT(RDASC#),
      113     1047                3 WRASC BIT(36) INIT(WRASC#),
      114     1048                3 REWIND BIT(36) INIT(REWIND#),
      115     1049                3 WRCMP BIT(36) INIT(WRCMP#),
      116     1050                3 UNLOAD BIT(36) INIT(UNLOAD#),
      117     1051                3 ALARM BIT(36) INIT(ALARM#),
      118     1052                3 WRFM BIT(36) INIT(WRFM#),
      119     1053                3 WRZERO BIT(36) INIT(WRZERO#),
      120     1054                3 READ BIT(36) INIT(READ#),
      121     1055                3 WRITE BIT(36) INIT(WRITE#),
      122     1056                3 SPREC BIT(36) INIT(SPREC#),
      123     1057                3 SPFILE BIT(36) INIT(SPFILE#),
      124     1058                3 PERMIT BIT(36) INIT(PERMIT#),
      125     1059                3 PROTECT BIT(36) INIT(PROTECT#),
      126     1060                3 RESET BIT(36) INIT(RESET#),
      127     1061                3 SD800 BIT(36) INIT(SD800#),
      128     1062                3 SD1600 BIT(36) INIT(SD1600#),
      129     1063                3 SD6250 BIT(36) INIT(SD6250#),
      130     1064                3 LDCHAIN BIT(36) INIT(LDCHAIN#),
      131     1065                3 LDTAPE BIT(36) INIT(LDTAPE#),
      132     1066                3 RESTORE BIT(36) INIT(RESTORE#),
      133     1067                3 LDVFC BIT(36) INIT(LDVFC#),
      134     1068                3 SYMB BIT(36) INIT(SYMB#),
      135     1069                3 EXTST BIT(36) INIT(EXTST#),
      136     1070                3 ERACE BIT(36) INIT(ERASE#);
      137     1071        %MEND;
      138     1072        /**/
      139     1073        /* SYSTEM CONSOLE DVT */
      140     1074        /**/
      141     1075        %LIST;
      142     1076        %SET LISTSUB='1'B;
      143     1077        %SET LISTEXP='1'B;
      144     1078        %DVT (NAME=NI_SCDVT,SCHED#=NIC$REQSCHED,POSTER#=NIC$POSTER,TYPE#=%DV_SC,
      145     1079              RQSTAT#="%CONCAT(%SC_RQSTAT,%RTN_STD,'00'O,'02'O,%CC_NOBUF,'00'O)",
      146     1080              RDASC#="%CONCAT(%SC_RDASC,%RTN_STD,'00'O,'20'O,%CC_UR,'00'O)",
      147     1081              WRASC#="%CONCAT(%SC_WRASC,%RTN_STD,'00'O,'03'O,%CC_UR,'00'O)",
      148     1082              ALARM#="%CONCAT(%SC_ALARM,%RTN_STD,'00'O,'02'O,%CC_NOBUF,'00'O)",
PL6.E3A0      #001=NI_DVTS_D File=NI_DVTS_D.:E05TSI                              WED 07/30/97 03:42 Page:5
      149     1083              READ#="%CONCAT(%SC_WRASC,%RTN_SC_RDPRMPT,%SC_RDASC,'20'O,%CC_UR,'00'O)",
      150     1084              WRITE#="%CONCAT(%SC_WRASC,%RTN_SC_WRCRLF,%SC_WRASC,'03'O,%CC_UR,'00'O)",
      151     1085              RESET#="%CONCAT(%SC_RESET,%RTN_STD,'00'O,'02'O,%CC_NOBUF,'00'O)",
      152     1086              MODEL#="'CONSOLE','SC','LCC','HOG'");
              1087    1   DCL 1 NI_SCDVT CONSTANT SYMDEF ALIGNED,
              1088    1         2 SCHED EPTR INIT(ENTADDR(NIC$REQSCHED)),
              1089    1         2 POSTER EPTR INIT(ENTADDR(NIC$POSTER)),
              1090    1         2 DVSCH EPTR INIT(ENTADDR(NIL)),
              1091    1         2 MODEL(0:9) CHAR(8) ALIGNED INIT('CONSOLE','SC','LCC','HOG',' '*0),
              1092    1         2 FEATURE(0:9) CHAR(8) ALIGNED INIT(' ',' ',' '*0),
              1093    1         2 TYPE UBIN(9) UNAL INIT(0),
              1094    1         2 NT@DCYLS UBIN(9) UNAL INIT(0),
              1095    1         2 SPT UBIN(9) UNAL INIT(0),
              1096    1         2 GRANSIZE UBIN(9) UNAL INIT(0),
              1097    1         2 PACKSIZE UBIN(36) UNAL INIT(0),
              1098    1         2 CYLSIZE UBIN(18) UNAL INIT(0),
              1099    1         2 T@DCYL UBIN(18) UNAL INIT(0),
              1100    1         2 SECSIZE UBIN(18) UNAL INIT(0),
              1101    1         2 ATTR BIT(18) UNAL INIT('0'B),
              1102    1         2 MPC ALIGNED,
              1103    1           3 FWNAME CHAR(4) INIT(' '),
              1104    1           3 LPNAME CHAR(4) INIT(' '),
              1105    1           3 CRPNAME CHAR(4) INIT(' '),
              1106    1         2 LP REDEF MPC ALIGNED,
              1107    1           3 CHAIN CHAR(4),
              1108    1           3 *(0:1) UBIN,
              1109    1         2 IDCW ALIGNED,
              1110    1           3 DCWLIST BIT(36) INIT('0003'O),
              1111    1           3 RQSTAT BIT(36) INIT('000200020200'O),
              1112    1           3 RDBIN BIT(36) INIT('0'B),
              1113    1           3 WRBIN BIT(36) INIT('0'B),
              1114    1           3 RDASC BIT(36) INIT('230200200000'O),
              1115    1           3 WRASC BIT(36) INIT('330200030000'O),
              1116    1           3 REWIND BIT(36) INIT('0'B),
              1117    1           3 WRCMP BIT(36) INIT('0'B),
              1118    1           3 UNLOAD BIT(36) INIT('0'B),
              1119    1           3 ALARM BIT(36) INIT('510200020200'O),
PL6.E3A0      #001=NI_DVTS_D File=NI_DVTS_D.:E05TSI                              WED 07/30/97 03:42 Page:6
              1120    1           3 WRFM BIT(36) INIT('0'B),
              1121    1           3 WRZERO BIT(36) INIT('0'B),
              1122    1           3 READ BIT(36) INIT('330523200000'O),
              1123    1           3 WRITE BIT(36) INIT('330633030000'O),
              1124    1           3 SPREC BIT(36) INIT('0'B),
              1125    1           3 SPFILE BIT(36) INIT('0'B),
              1126    1           3 PERMIT BIT(36) INIT('0'B),
              1127    1           3 PROTECT BIT(36) INIT('0'B),
              1128    1           3 RESET BIT(36) INIT('400200020200'O),
              1129    1           3 SD800 BIT(36) INIT('0'B),
              1130    1           3 SD1600 BIT(36) INIT('0'B),
              1131    1           3 SD6250 BIT(36) INIT('0'B),
              1132    1           3 LDCHAIN BIT(36) INIT('0'B),
              1133    1           3 LDTAPE BIT(36) INIT('0'B),
              1134    1           3 RESTORE BIT(36) INIT('0'B),
              1135    1           3 LDVFC BIT(36) INIT('0'B),
              1136    1           3 SYMB BIT(36) INIT('0'B),
              1137    1           3 EXTST BIT(36) INIT('0'B),
              1138    1           3 ERACE BIT(36) INIT('0'B);
      153     1140        /**/
      154     1141        /* CARD READER DVT */
      155     1142        /**/
      156     1143        %DVT (NAME=NI_CRDVT,SCHED#=NIU$REQSCHED,POSTER#=NIR$POSTER,DVSCH#=NIU$DEVSCHED,
      157     1144              TYPE#=%DV_CR,ATTR#="%(ATTR_BIN#|ATTR_LOWERCASE#|ATTR_UPPERCASE#)",
      158     1145              RQSTAT#="%CONCAT(%CR_RQSTAT,%RTN_STD,'00'O,'02'O,%CC_NOBUF,'00'O)",
      159     1146              READ#="%CONCAT(%CR_RDCP6,%RTN_STD,'00'O,'02'O,%CC_UR,'00'O)",
      160     1147              RESET#="%CONCAT(%CR_RESET,%RTN_STD,'00'O,'02'O,%CC_NOBUF,'00'O)",
      161     1148              EXTST#="%CONCAT('00'O,%RTN_CR_EXTST)",
      162     1149              MODEL#="'CRU1050','CRU0501','CR'");
              1150    1   DCL 1 NI_CRDVT CONSTANT SYMDEF ALIGNED,
              1151    1         2 SCHED EPTR INIT(ENTADDR(NIU$REQSCHED)),
              1152    1         2 POSTER EPTR INIT(ENTADDR(NIR$POSTER)),
              1153    1         2 DVSCH EPTR INIT(ENTADDR(NIU$DEVSCHED)),
              1154    1         2 MODEL(0:9) CHAR(8) ALIGNED INIT('CRU1050','CRU0501','CR',' '*0),
              1155    1         2 FEATURE(0:9) CHAR(8) ALIGNED INIT(' ',' ',' '*0),
              1156    1         2 TYPE UBIN(9) UNAL INIT(1),
              1157    1         2 NT@DCYLS UBIN(9) UNAL INIT(0),
PL6.E3A0      #001=NI_DVTS_D File=NI_DVTS_D.:E05TSI                              WED 07/30/97 03:42 Page:7
              1158    1         2 SPT UBIN(9) UNAL INIT(0),
              1159    1         2 GRANSIZE UBIN(9) UNAL INIT(0),
              1160    1         2 PACKSIZE UBIN(36) UNAL INIT(0),
              1161    1         2 CYLSIZE UBIN(18) UNAL INIT(0),
              1162    1         2 T@DCYL UBIN(18) UNAL INIT(0),
              1163    1         2 SECSIZE UBIN(18) UNAL INIT(0),
              1164    1         2 ATTR BIT(18) UNAL INIT('000043'O),
              1165    1         2 MPC ALIGNED,
              1166    1           3 FWNAME CHAR(4) INIT(' '),
              1167    1           3 LPNAME CHAR(4) INIT(' '),
              1168    1           3 CRPNAME CHAR(4) INIT(' '),
              1169    1         2 LP REDEF MPC ALIGNED,
              1170    1           3 CHAIN CHAR(4),
              1171    1           3 *(0:1) UBIN,
              1172    1         2 IDCW ALIGNED,
              1173    1           3 DCWLIST BIT(36) INIT('0003'O),
              1174    1           3 RQSTAT BIT(36) INIT('000200020200'O),
              1175    1           3 RDBIN BIT(36) INIT('0'B),
              1176    1           3 WRBIN BIT(36) INIT('0'B),
              1177    1           3 RDASC BIT(36) INIT('0'B),
              1178    1           3 WRASC BIT(36) INIT('0'B),
              1179    1           3 REWIND BIT(36) INIT('0'B),
              1180    1           3 WRCMP BIT(36) INIT('0'B),
              1181    1           3 UNLOAD BIT(36) INIT('0'B),
              1182    1           3 ALARM BIT(36) INIT('0'B),
              1183    1           3 WRFM BIT(36) INIT('0'B),
              1184    1           3 WRZERO BIT(36) INIT('0'B),
              1185    1           3 READ BIT(36) INIT('100200020000'O),
              1186    1           3 WRITE BIT(36) INIT('0'B),
              1187    1           3 SPREC BIT(36) INIT('0'B),
              1188    1           3 SPFILE BIT(36) INIT('0'B),
              1189    1           3 PERMIT BIT(36) INIT('0'B),
              1190    1           3 PROTECT BIT(36) INIT('0'B),
              1191    1           3 RESET BIT(36) INIT('400200020200'O),
              1192    1           3 SD800 BIT(36) INIT('0'B),
              1193    1           3 SD1600 BIT(36) INIT('0'B),
              1194    1           3 SD6250 BIT(36) INIT('0'B),
PL6.E3A0      #001=NI_DVTS_D File=NI_DVTS_D.:E05TSI                              WED 07/30/97 03:42 Page:8
              1195    1           3 LDCHAIN BIT(36) INIT('0'B),
              1196    1           3 LDTAPE BIT(36) INIT('0'B),
              1197    1           3 RESTORE BIT(36) INIT('0'B),
              1198    1           3 LDVFC BIT(36) INIT('0'B),
              1199    1           3 SYMB BIT(36) INIT('0'B),
              1200    1           3 EXTST BIT(36) INIT('0007'O),
              1201    1           3 ERACE BIT(36) INIT('0'B);
      163     1203        /**/
      164     1204        /* CARD PUNCH DVT */
      165     1205        /**/
      166     1206        %DVT (NAME=NI_CPDVT,SCHED#=NIU$REQSCHED,POSTER#=NIP$POSTER,DVSCH#=NIU$DEVSCHED,
      167     1207              TYPE#=%DV_CP,ATTR#="%(ATTR_BIN#|ATTR_LOWERCASE#|ATTR_UPPERCASE#)",
      168     1208              RQSTAT#="%CONCAT(%CP_RQSTAT,%RTN_STD,'00'O,'02'O,%CC_NOBUF,'00'O)",
      169     1209              WRBIN#="%CONCAT(%CP_WRBIN,%RTN_STD,'00'O,'02'O,%CC_UR,'00'O)",
      170     1210              WRASC#="%CONCAT(%CP_WRASC,%RTN_STD,'00'O,'02'O,%CC_UR,'00'O)",
      171     1211              WRFM#="%CONCAT(%CP_WRASC,%RTN_CP_WRFM,'00'O,'02'O,%CC_UR,'00'O)",
      172     1212              WRITE#="%CONCAT(%CP_WRASC,%RTN_CP_WRITE,%CP_WRBIN,'02'O,%CC_UR,'00'O)",
      173     1213              RESET#="%CONCAT(%CP_RESET,%RTN_STD,'00'O,'02'O,%CC_NOBUF,'00'O)",
      174     1214              SYMB#="%CONCAT(%CP_WRASC,%RTN_WRSYMB,%CP_WRBIN,'00'O,%CC_UR,'00'O)",
      175     1215              EXTST#="%CONCAT('00'O,%RTN_CP_EXTST)",
      176     1216              MODEL#="'PCU0121','PCU0120','CP'");
              1217    1   DCL 1 NI_CPDVT CONSTANT SYMDEF ALIGNED,
              1218    1         2 SCHED EPTR INIT(ENTADDR(NIU$REQSCHED)),
              1219    1         2 POSTER EPTR INIT(ENTADDR(NIP$POSTER)),
              1220    1         2 DVSCH EPTR INIT(ENTADDR(NIU$DEVSCHED)),
              1221    1         2 MODEL(0:9) CHAR(8) ALIGNED INIT('PCU0121','PCU0120','CP',' '*0),
              1222    1         2 FEATURE(0:9) CHAR(8) ALIGNED INIT(' ',' ',' '*0),
              1223    1         2 TYPE UBIN(9) UNAL INIT(2),
              1224    1         2 NT@DCYLS UBIN(9) UNAL INIT(0),
              1225    1         2 SPT UBIN(9) UNAL INIT(0),
              1226    1         2 GRANSIZE UBIN(9) UNAL INIT(0),
              1227    1         2 PACKSIZE UBIN(36) UNAL INIT(0),
              1228    1         2 CYLSIZE UBIN(18) UNAL INIT(0),
              1229    1         2 T@DCYL UBIN(18) UNAL INIT(0),
              1230    1         2 SECSIZE UBIN(18) UNAL INIT(0),
              1231    1         2 ATTR BIT(18) UNAL INIT('000043'O),
              1232    1         2 MPC ALIGNED,
PL6.E3A0      #001=NI_DVTS_D File=NI_DVTS_D.:E05TSI                              WED 07/30/97 03:42 Page:9
              1233    1           3 FWNAME CHAR(4) INIT(' '),
              1234    1           3 LPNAME CHAR(4) INIT(' '),
              1235    1           3 CRPNAME CHAR(4) INIT(' '),
              1236    1         2 LP REDEF MPC ALIGNED,
              1237    1           3 CHAIN CHAR(4),
              1238    1           3 *(0:1) UBIN,
              1239    1         2 IDCW ALIGNED,
              1240    1           3 DCWLIST BIT(36) INIT('0003'O),
              1241    1           3 RQSTAT BIT(36) INIT('000200020200'O),
              1242    1           3 RDBIN BIT(36) INIT('0'B),
              1243    1           3 WRBIN BIT(36) INIT('160200020000'O),
              1244    1           3 RDASC BIT(36) INIT('0'B),
              1245    1           3 WRASC BIT(36) INIT('170200020000'O),
              1246    1           3 REWIND BIT(36) INIT('0'B),
              1247    1           3 WRCMP BIT(36) INIT('0'B),
              1248    1           3 UNLOAD BIT(36) INIT('0'B),
              1249    1           3 ALARM BIT(36) INIT('0'B),
              1250    1           3 WRFM BIT(36) INIT('171100020000'O),
              1251    1           3 WRZERO BIT(36) INIT('0'B),
              1252    1           3 READ BIT(36) INIT('0'B),
              1253    1           3 WRITE BIT(36) INIT('171216020000'O),
              1254    1           3 SPREC BIT(36) INIT('0'B),
              1255    1           3 SPFILE BIT(36) INIT('0'B),
              1256    1           3 PERMIT BIT(36) INIT('0'B),
              1257    1           3 PROTECT BIT(36) INIT('0'B),
              1258    1           3 RESET BIT(36) INIT('400200020200'O),
              1259    1           3 SD800 BIT(36) INIT('0'B),
              1260    1           3 SD1600 BIT(36) INIT('0'B),
              1261    1           3 SD6250 BIT(36) INIT('0'B),
              1262    1           3 LDCHAIN BIT(36) INIT('0'B),
              1263    1           3 LDTAPE BIT(36) INIT('0'B),
              1264    1           3 RESTORE BIT(36) INIT('0'B),
              1265    1           3 LDVFC BIT(36) INIT('0'B),
              1266    1           3 SYMB BIT(36) INIT('170416000000'O),
              1267    1           3 EXTST BIT(36) INIT('0010'O),
              1268    1           3 ERACE BIT(36) INIT('0'B);
      177     1270        /**/
PL6.E3A0      #001=NI_DVTS_D File=NI_DVTS_D.:E05TSI                              WED 07/30/97 03:42 Page:10
      178     1271        /* LINE PRINTER DVT */
      179     1272        /**/
      180     1273        %DVT (NAME=NI_LPDVT,SCHED#=NIU$REQSCHED,POSTER#=NIL$POSTER,DVSCH#=NIU$DEVSCHED,
      181     1274              TYPE#=%DV_LP,ATTR#="%(ATTR_TRUOVRPRT#|ATTR_LOWERCASE#|ATTR_UPPERCASE#)",
      182     1275              RQSTAT#="%CONCAT(%LP_RQSTAT,%RTN_STD,'00'O,'02'O,%CC_NOBUF,'00'O)",
      183     1276              WRASC#="%CONCAT(%LP_WRNBP,%RTN_LP_WRITE,%LP_WRBP,'02'O,%CC_UR,'00'O)",
      184     1277              WRITE#="%CONCAT(%LP_WRNBP,%RTN_LP_WRITE,%LP_WRBP,'02'O,%CC_UR,'00'O)",
      185     1278              RESET#="%CONCAT(%LP_RESET,%RTN_STD,'00'O,'02'O,%CC_NOBUF,'00'O)",
      186     1279              LDCHAIN#="%CONCAT(%LP_LDCHAIN,%RTN_LP_LDCHAIN,'00'O,'02'O,%CC_UR,'00'O)",
      187     1280              LDVFC#="%CONCAT(%LP_LDVFC,%RTN_LP_LDVFC,'00'O,'02'O,%CC_UR,'00'O)",
      188     1281              SYMB#="%CONCAT(%LP_WRNBP,%RTN_WRSYMB,%LP_WRBP,%LP_LDVFC,%CC_UR,%LP_LDCHAIN)",
      189     1282              EXTST#="%CONCAT(%LP_EXTST,%RTN_STD,'00'O,'02'O,%CC_UR,'00'O)",
      190     1283              MODEL#="'PRU1200','PRU1600','PRU0901','PRU0903','PRU0908','PRU1201','PRU1203',
              1283        'PRU1208','LP'",
      191     1284              FEATURE#="'PRB0600','PRB3600'",
      192     1285              FWNAME#='600');
              1286    1   DCL 1 NI_LPDVT CONSTANT SYMDEF ALIGNED,
              1287    1         2 SCHED EPTR INIT(ENTADDR(NIU$REQSCHED)),
              1288    1         2 POSTER EPTR INIT(ENTADDR(NIL$POSTER)),
              1289    1         2 DVSCH EPTR INIT(ENTADDR(NIU$DEVSCHED)),
              1290    1         2 MODEL(0:9) CHAR(8) ALIGNED INIT('PRU1200','PRU1600','PRU0901','PRU0903',
              1290                  'PRU0908','PRU1201','PRU1203','PRU1208','LP',' '*0),
              1291    1         2 FEATURE(0:9) CHAR(8) ALIGNED INIT(' ','PRB0600','PRB3600',' '*0),
              1292    1         2 TYPE UBIN(9) UNAL INIT(3),
              1293    1         2 NT@DCYLS UBIN(9) UNAL INIT(0),
              1294    1         2 SPT UBIN(9) UNAL INIT(0),
              1295    1         2 GRANSIZE UBIN(9) UNAL INIT(0),
              1296    1         2 PACKSIZE UBIN(36) UNAL INIT(0),
              1297    1         2 CYLSIZE UBIN(18) UNAL INIT(0),
              1298    1         2 T@DCYL UBIN(18) UNAL INIT(0),
              1299    1         2 SECSIZE UBIN(18) UNAL INIT(0),
              1300    1         2 ATTR BIT(18) UNAL INIT('000051'O),
              1301    1         2 MPC ALIGNED,
              1302    1           3 FWNAME CHAR(4) INIT('600'),
              1303    1           3 LPNAME CHAR(4) INIT(' '),
              1304    1           3 CRPNAME CHAR(4) INIT(' '),
              1305    1         2 LP REDEF MPC ALIGNED,
PL6.E3A0      #001=NI_DVTS_D File=NI_DVTS_D.:E05TSI                              WED 07/30/97 03:42 Page:11
              1306    1           3 CHAIN CHAR(4),
              1307    1           3 *(0:1) UBIN,
              1308    1         2 IDCW ALIGNED,
              1309    1           3 DCWLIST BIT(36) INIT('0003'O),
              1310    1           3 RQSTAT BIT(36) INIT('000200020200'O),
              1311    1           3 RDBIN BIT(36) INIT('0'B),
              1312    1           3 WRBIN BIT(36) INIT('0'B),
              1313    1           3 RDASC BIT(36) INIT('0'B),
              1314    1           3 WRASC BIT(36) INIT('601564020000'O),
              1315    1           3 REWIND BIT(36) INIT('0'B),
              1316    1           3 WRCMP BIT(36) INIT('0'B),
              1317    1           3 UNLOAD BIT(36) INIT('0'B),
              1318    1           3 ALARM BIT(36) INIT('0'B),
              1319    1           3 WRFM BIT(36) INIT('0'B),
              1320    1           3 WRZERO BIT(36) INIT('0'B),
              1321    1           3 READ BIT(36) INIT('0'B),
              1322    1           3 WRITE BIT(36) INIT('601564020000'O),
              1323    1           3 SPREC BIT(36) INIT('0'B),
              1324    1           3 SPFILE BIT(36) INIT('0'B),
              1325    1           3 PERMIT BIT(36) INIT('0'B),
              1326    1           3 PROTECT BIT(36) INIT('0'B),
              1327    1           3 RESET BIT(36) INIT('400200020200'O),
              1328    1           3 SD800 BIT(36) INIT('0'B),
              1329    1           3 SD1600 BIT(36) INIT('0'B),
              1330    1           3 SD6250 BIT(36) INIT('0'B),
              1331    1           3 LDCHAIN BIT(36) INIT('011300020000'O),
              1332    1           3 LDTAPE BIT(36) INIT('0'B),
              1333    1           3 RESTORE BIT(36) INIT('0'B),
              1334    1           3 LDVFC BIT(36) INIT('051400020000'O),
              1335    1           3 SYMB BIT(36) INIT('600464050001'O),
              1336    1           3 EXTST BIT(36) INIT('030200020000'O),
              1337    1           3 ERACE BIT(36) INIT('0'B);
      193     1339        /**/
      194     1340        %DVT (NAME=NI_LPDVT1,SCHED#=NIU$REQSCHED,POSTER#=NIL$POSTER,DVSCH#=NIU$DEVSCHED,
      195     1341              TYPE#=%DV_LP,ATTR#="%(ATTR_TRUOVRPRT#|ATTR_UPPERCASE#)",
      196     1342              RQSTAT#="%CONCAT(%LP_RQSTAT,%RTN_STD,'00'O,'02'O,%CC_NOBUF,'00'O)",
      197     1343              WRASC#="%CONCAT(%LP_WRNBP,%RTN_LP_WRITE,%LP_WRBP,'02'O,%CC_UR,'00'O)",
PL6.E3A0      #001=NI_DVTS_D File=NI_DVTS_D.:E05TSI                              WED 07/30/97 03:42 Page:12
      198     1344              WRITE#="%CONCAT(%LP_WRNBP,%RTN_LP_WRITE,%LP_WRBP,'02'O,%CC_UR,'00'O)",
      199     1345              RESET#="%CONCAT(%LP_RESET,%RTN_STD,'00'O,'02'O,%CC_NOBUF,'00'O)",
      200     1346              LDCHAIN#="%CONCAT(%LP_LDCHAIN,%RTN_LP_LDCHAIN,'00'O,'02'O,%CC_UR,'00'O)",
      201     1347              LDVFC#="%CONCAT(%LP_LDVFC,%RTN_LP_LDVFC,'00'O,'02'O,%CC_UR,'00'O)",
      202     1348              SYMB#="%CONCAT(%LP_WRNBP,%RTN_WRSYMB,%LP_WRBP,%LP_LDVFC,%CC_UR,%LP_LDCHAIN)",
      203     1349              EXTST#="%CONCAT(%LP_EXTST,%RTN_STD,'00'O,'02'O,%CC_UR,'00'O)",
      204     1350              MODEL#="'PRU1200','PRU1600','PRU0901','PRU0903','PRU0908','PRU1201','PRU1203',
              1350        'PRU1208','LP'",
      205     1351              FEATURE#="'PRB0500','PRB0513','PRB0524','PRB3500','PRB3513','PRB3524'",
      206     1352              FWNAME#='500');
              1353    1   DCL 1 NI_LPDVT1 CONSTANT SYMDEF ALIGNED,
              1354    1         2 SCHED EPTR INIT(ENTADDR(NIU$REQSCHED)),
              1355    1         2 POSTER EPTR INIT(ENTADDR(NIL$POSTER)),
              1356    1         2 DVSCH EPTR INIT(ENTADDR(NIU$DEVSCHED)),
              1357    1         2 MODEL(0:9) CHAR(8) ALIGNED INIT('PRU1200','PRU1600','PRU0901','PRU0903',
              1357                  'PRU0908','PRU1201','PRU1203','PRU1208','LP',' '*0),
              1358    1         2 FEATURE(0:9) CHAR(8) ALIGNED INIT(' ','PRB0500','PRB0513','PRB0524',
              1358                  'PRB3500','PRB3513','PRB3524',' '*0),
              1359    1         2 TYPE UBIN(9) UNAL INIT(3),
              1360    1         2 NT@DCYLS UBIN(9) UNAL INIT(0),
              1361    1         2 SPT UBIN(9) UNAL INIT(0),
              1362    1         2 GRANSIZE UBIN(9) UNAL INIT(0),
              1363    1         2 PACKSIZE UBIN(36) UNAL INIT(0),
              1364    1         2 CYLSIZE UBIN(18) UNAL INIT(0),
              1365    1         2 T@DCYL UBIN(18) UNAL INIT(0),
              1366    1         2 SECSIZE UBIN(18) UNAL INIT(0),
              1367    1         2 ATTR BIT(18) UNAL INIT('000050'O),
              1368    1         2 MPC ALIGNED,
              1369    1           3 FWNAME CHAR(4) INIT('500'),
              1370    1           3 LPNAME CHAR(4) INIT(' '),
              1371    1           3 CRPNAME CHAR(4) INIT(' '),
              1372    1         2 LP REDEF MPC ALIGNED,
              1373    1           3 CHAIN CHAR(4),
              1374    1           3 *(0:1) UBIN,
              1375    1         2 IDCW ALIGNED,
              1376    1           3 DCWLIST BIT(36) INIT('0003'O),
              1377    1           3 RQSTAT BIT(36) INIT('000200020200'O),
PL6.E3A0      #001=NI_DVTS_D File=NI_DVTS_D.:E05TSI                              WED 07/30/97 03:42 Page:13
              1378    1           3 RDBIN BIT(36) INIT('0'B),
              1379    1           3 WRBIN BIT(36) INIT('0'B),
              1380    1           3 RDASC BIT(36) INIT('0'B),
              1381    1           3 WRASC BIT(36) INIT('601564020000'O),
              1382    1           3 REWIND BIT(36) INIT('0'B),
              1383    1           3 WRCMP BIT(36) INIT('0'B),
              1384    1           3 UNLOAD BIT(36) INIT('0'B),
              1385    1           3 ALARM BIT(36) INIT('0'B),
              1386    1           3 WRFM BIT(36) INIT('0'B),
              1387    1           3 WRZERO BIT(36) INIT('0'B),
              1388    1           3 READ BIT(36) INIT('0'B),
              1389    1           3 WRITE BIT(36) INIT('601564020000'O),
              1390    1           3 SPREC BIT(36) INIT('0'B),
              1391    1           3 SPFILE BIT(36) INIT('0'B),
              1392    1           3 PERMIT BIT(36) INIT('0'B),
              1393    1           3 PROTECT BIT(36) INIT('0'B),
              1394    1           3 RESET BIT(36) INIT('400200020200'O),
              1395    1           3 SD800 BIT(36) INIT('0'B),
              1396    1           3 SD1600 BIT(36) INIT('0'B),
              1397    1           3 SD6250 BIT(36) INIT('0'B),
              1398    1           3 LDCHAIN BIT(36) INIT('011300020000'O),
              1399    1           3 LDTAPE BIT(36) INIT('0'B),
              1400    1           3 RESTORE BIT(36) INIT('0'B),
              1401    1           3 LDVFC BIT(36) INIT('051400020000'O),
              1402    1           3 SYMB BIT(36) INIT('600464050001'O),
              1403    1           3 EXTST BIT(36) INIT('030200020000'O),
              1404    1           3 ERACE BIT(36) INIT('0'B);
      207     1406        /**/
      208     1407        /* TAPE DVTS */
      209     1408        /**/
      210     1409        %DVT (NAME=NI_MTDVT,SCHED#=NIT$REQSCHED,POSTER#=NIT$POSTER,DVSCH#=NIT$DEVSCHED,
      211     1410              TYPE#=%DV_MT,ATTR#="%(ATTR_D800#|ATTR_D1600#)",
      212     1411              RQSTAT#="%CONCAT(%MT_RQSTAT,%RTN_STD,'00'O,'02'O,%CC_NOBUF,'00'O)",
      213     1412              RDBIN#="%CONCAT(%MT_RDBIN,%RTN_STD,'00'O,'02'O,%CC_UR,'00'O)",
      214     1413              WRBIN#="%CONCAT(%MT_WRBIN,%RTN_STD,'00'O,'02'O,%CC_UR,'00'O)",
      215     1414              RDASC#="%CONCAT(%MT_RD9,%RTN_STD,'00'O,'02'O,%CC_UR,'00'O)",
      216     1415              WRASC#="%CONCAT(%MT_WR9,%RTN_MT_WRBYTE,'00'O,'02'O,%CC_UR,'00'O)",
PL6.E3A0      #001=NI_DVTS_D File=NI_DVTS_D.:E05TSI                              WED 07/30/97 03:42 Page:14
      217     1416              REWIND#="%CONCAT(%MT_REWIND,%RTN_STD,'00'O,'02'O,%CC_NOBUF,'00'O)",
      218     1417              UNLOAD#="%CONCAT(%MT_UNLOAD,%RTN_STD,'00'O,'02'O,%CC_NOBUF,'00'O)",
      219     1418              WRFM#="%CONCAT(%MT_WRFM,%RTN_STD,'00'O,'02'O,%CC_NOBUF,'00'O)",
      220     1419              READ#="%CONCAT(%MT_RD9,%RTN_MT_READ,%MT_RDBIN,'02'O,%CC_UR,'00'O)",
      221     1420              WRITE#="%CONCAT(%MT_WR9,%RTN_MT_WRITE,%MT_WRBIN,'02'O,%CC_UR,'00'O)",
      222     1421              SPREC#="%CONCAT(%MT_FSPR,%RTN_MT_SPR,%MT_BSPR,'40'O,%CC_NOBUF,'01'O)",
      223     1422              SPFILE#="%CONCAT(%MT_FSPR,%RTN_MT_SPF,%MT_BSPR,'40'O,%CC_NOBUF,'77'O)",
      224     1423              PERMIT#="%CONCAT(%MT_PERMIT,%RTN_STD,'00'O,'02'O,%CC_NOBUF,'00'O)",
      225     1424              PROTECT#="%CONCAT(%MT_PROTECT,%RTN_STD,'00'O,'02'O,%CC_NOBUF,'00'O)",
      226     1425              RESET#="%CONCAT(%MT_RESET,%RTN_STD,'00'O,'02'O,%CC_NOBUF,'00'O)",
      227     1426              SD800#="%CONCAT(%MT_SD800,%RTN_STD,'00'O,'02'O,%CC_NOBUF,'00'O)",
      228     1427              SD1600#="%CONCAT(%MT_SD1600,%RTN_STD,'00'O,'02'O,%CC_NOBUF,'00'O)",
      229     1428              SD6250#="%CONCAT(%MT_SD6250,%RTN_BADFC_IOERR,'00'O,'02'O,%CC_NOBUF,'00'O)",
      230     1429              LDTAPE#="%CONCAT(%MT_LDTAPE,%RTN_STD,'00'O,'02'O,%CC_NOBUF,'00'O)",
      231     1430              EXTST#="%CONCAT(%MT_EXTST,%RTN_STD,'00'O,'02'O,%CC_UR,'00'O)",
      232     1431              ERASE#="%CONCAT(%MT_ERASE,%RTN_STD,'00'O,'02'O,%CC_NOBUF,'00'O)",
      233     1432              MODEL#="'MTU0610','MTU0630'",
      234     1433              FEATURE#="'MTF0605','MTF0607','MTF0634','MTF0636'");
              1434    1   DCL 1 NI_MTDVT CONSTANT SYMDEF ALIGNED,
              1435    1         2 SCHED EPTR INIT(ENTADDR(NIT$REQSCHED)),
              1436    1         2 POSTER EPTR INIT(ENTADDR(NIT$POSTER)),
              1437    1         2 DVSCH EPTR INIT(ENTADDR(NIT$DEVSCHED)),
              1438    1         2 MODEL(0:9) CHAR(8) ALIGNED INIT('MTU0610','MTU0630',' '*0),
              1439    1         2 FEATURE(0:9) CHAR(8) ALIGNED INIT(' ','MTF0605','MTF0607','MTF0634',
              1439                  'MTF0636',' '*0),
              1440    1         2 TYPE UBIN(9) UNAL INIT(4),
              1441    1         2 NT@DCYLS UBIN(9) UNAL INIT(0),
              1442    1         2 SPT UBIN(9) UNAL INIT(0),
              1443    1         2 GRANSIZE UBIN(9) UNAL INIT(0),
              1444    1         2 PACKSIZE UBIN(36) UNAL INIT(0),
              1445    1         2 CYLSIZE UBIN(18) UNAL INIT(0),
              1446    1         2 T@DCYL UBIN(18) UNAL INIT(0),
              1447    1         2 SECSIZE UBIN(18) UNAL INIT(0),
              1448    1         2 ATTR BIT(18) UNAL INIT('300000'O),
              1449    1         2 MPC ALIGNED,
              1450    1           3 FWNAME CHAR(4) INIT(' '),
              1451    1           3 LPNAME CHAR(4) INIT(' '),
PL6.E3A0      #001=NI_DVTS_D File=NI_DVTS_D.:E05TSI                              WED 07/30/97 03:42 Page:15
              1452    1           3 CRPNAME CHAR(4) INIT(' '),
              1453    1         2 LP REDEF MPC ALIGNED,
              1454    1           3 CHAIN CHAR(4),
              1455    1           3 *(0:1) UBIN,
              1456    1         2 IDCW ALIGNED,
              1457    1           3 DCWLIST BIT(36) INIT('0003'O),
              1458    1           3 RQSTAT BIT(36) INIT('000200020200'O),
              1459    1           3 RDBIN BIT(36) INIT('050200020000'O),
              1460    1           3 WRBIN BIT(36) INIT('150200020000'O),
              1461    1           3 RDASC BIT(36) INIT('030200020000'O),
              1462    1           3 WRASC BIT(36) INIT('132200020000'O),
              1463    1           3 REWIND BIT(36) INIT('700200020200'O),
              1464    1           3 WRCMP BIT(36) INIT('0'B),
              1465    1           3 UNLOAD BIT(36) INIT('720200020200'O),
              1466    1           3 ALARM BIT(36) INIT('0'B),
              1467    1           3 WRFM BIT(36) INIT('550200020200'O),
              1468    1           3 WRZERO BIT(36) INIT('0'B),
              1469    1           3 READ BIT(36) INIT('032005020000'O),
              1470    1           3 WRITE BIT(36) INIT('132115020000'O),
              1471    1           3 SPREC BIT(36) INIT('441646400201'O),
              1472    1           3 SPFILE BIT(36) INIT('441746400277'O),
              1473    1           3 PERMIT BIT(36) INIT('630200020200'O),
              1474    1           3 PROTECT BIT(36) INIT('620200020200'O),
              1475    1           3 RESET BIT(36) INIT('400200020200'O),
              1476    1           3 SD800 BIT(36) INIT('600200020200'O),
              1477    1           3 SD1600 BIT(36) INIT('650200020200'O),
              1478    1           3 SD6250 BIT(36) INIT('410100020200'O),
              1479    1           3 LDCHAIN BIT(36) INIT('0'B),
              1480    1           3 LDTAPE BIT(36) INIT('750200020200'O),
              1481    1           3 RESTORE BIT(36) INIT('0'B),
              1482    1           3 LDVFC BIT(36) INIT('0'B),
              1483    1           3 SYMB BIT(36) INIT('0'B),
              1484    1           3 EXTST BIT(36) INIT('500200020000'O),
              1485    1           3 ERACE BIT(36) INIT('540200020200'O);
      235     1487        %DVT (NAME=NI_MTDVT1,SCHED#=NIT$REQSCHED,POSTER#=NIT$POSTER,DVSCH#=NIT$DEVSCHED,
      236     1488              TYPE#=%DV_MT,ATTR#="%(ATTR_D1600#|ATTR_D6250#)",
      237     1489              RQSTAT#="%CONCAT(%MT_RQSTAT,%RTN_STD,'00'O,'02'O,%CC_NOBUF,'00'O)",
PL6.E3A0      #001=NI_DVTS_D File=NI_DVTS_D.:E05TSI                              WED 07/30/97 03:42 Page:16
      238     1490              RDBIN#="%CONCAT(%MT_RDBIN,%RTN_STD,'00'O,'02'O,%CC_UR,'00'O)",
      239     1491              WRBIN#="%CONCAT(%MT_WRBIN,%RTN_STD,'00'O,'02'O,%CC_UR,'00'O)",
      240     1492              RDASC#="%CONCAT(%MT_RD9,%RTN_STD,'00'O,'02'O,%CC_UR,'00'O)",
      241     1493              WRASC#="%CONCAT(%MT_WR9,%RTN_MT_WRBYTE,'00'O,'02'O,%CC_UR,'00'O)",
      242     1494              REWIND#="%CONCAT(%MT_REWIND,%RTN_STD,'00'O,'02'O,%CC_NOBUF,'00'O)",
      243     1495              UNLOAD#="%CONCAT(%MT_UNLOAD,%RTN_STD,'00'O,'02'O,%CC_NOBUF,'00'O)",
      244     1496              WRFM#="%CONCAT(%MT_WRFM,%RTN_STD,'00'O,'02'O,%CC_NOBUF,'00'O)",
      245     1497              READ#="%CONCAT(%MT_RD9,%RTN_MT_READ,%MT_RDBIN,'02'O,%CC_UR,'00'O)",
      246     1498              WRITE#="%CONCAT(%MT_WR9,%RTN_MT_WRITE,%MT_WRBIN,'02'O,%CC_UR,'00'O)",
      247     1499              SPREC#="%CONCAT(%MT_FSPR,%RTN_MT_SPR,%MT_BSPR,'40'O,%CC_NOBUF,'01'O)",
      248     1500              SPFILE#="%CONCAT(%MT_FSPR,%RTN_MT_SPF,%MT_BSPR,'40'O,%CC_NOBUF,'77'O)",
      249     1501              PERMIT#="%CONCAT(%MT_PERMIT,%RTN_STD,'00'O,'02'O,%CC_NOBUF,'00'O)",
      250     1502              PROTECT#="%CONCAT(%MT_PROTECT,%RTN_STD,'00'O,'02'O,%CC_NOBUF,'00'O)",
      251     1503              RESET#="%CONCAT(%MT_RESET,%RTN_STD,'00'O,'02'O,%CC_NOBUF,'00'O)",
      252     1504              SD800#="%CONCAT(%MT_SD800,%RTN_BADFC_IOERR,'00'O,'02'O,%CC_NOBUF,'00'O)",
      253     1505              SD1600#="%CONCAT(%MT_SD1600,%RTN_STD,'00'O,'02'O,%CC_NOBUF,'00'O)",
      254     1506              SD6250#="%CONCAT(%MT_SD6250,%RTN_STD,'00'O,'02'O,%CC_NOBUF,'00'O)",
      255     1507              LDTAPE#="%CONCAT(%MT_LDTAPE,%RTN_STD,'00'O,'02'O,%CC_NOBUF,'00'O)",
      256     1508              EXTST#="%CONCAT(%MT_EXTST,%RTN_STD,'00'O,'02'O,%CC_UR,'00'O)",
      257     1509              ERASE#="%CONCAT(%MT_ERASE,%RTN_STD,'00'O,'02'O,%CC_NOBUF,'00'O)",
      258     1510              MODEL#="'MTU0610','MTU0630'",
      259     1511              FEATURE#="'MTF0608','MTF0635','MTF0637'");
              1512    1   DCL 1 NI_MTDVT1 CONSTANT SYMDEF ALIGNED,
              1513    1         2 SCHED EPTR INIT(ENTADDR(NIT$REQSCHED)),
              1514    1         2 POSTER EPTR INIT(ENTADDR(NIT$POSTER)),
              1515    1         2 DVSCH EPTR INIT(ENTADDR(NIT$DEVSCHED)),
              1516    1         2 MODEL(0:9) CHAR(8) ALIGNED INIT('MTU0610','MTU0630',' '*0),
              1517    1         2 FEATURE(0:9) CHAR(8) ALIGNED INIT(' ','MTF0608','MTF0635','MTF0637',' '*0),
              1518    1         2 TYPE UBIN(9) UNAL INIT(4),
              1519    1         2 NT@DCYLS UBIN(9) UNAL INIT(0),
              1520    1         2 SPT UBIN(9) UNAL INIT(0),
              1521    1         2 GRANSIZE UBIN(9) UNAL INIT(0),
              1522    1         2 PACKSIZE UBIN(36) UNAL INIT(0),
              1523    1         2 CYLSIZE UBIN(18) UNAL INIT(0),
              1524    1         2 T@DCYL UBIN(18) UNAL INIT(0),
              1525    1         2 SECSIZE UBIN(18) UNAL INIT(0),
              1526    1         2 ATTR BIT(18) UNAL INIT('600000'O),
PL6.E3A0      #001=NI_DVTS_D File=NI_DVTS_D.:E05TSI                              WED 07/30/97 03:42 Page:17
              1527    1         2 MPC ALIGNED,
              1528    1           3 FWNAME CHAR(4) INIT(' '),
              1529    1           3 LPNAME CHAR(4) INIT(' '),
              1530    1           3 CRPNAME CHAR(4) INIT(' '),
              1531    1         2 LP REDEF MPC ALIGNED,
              1532    1           3 CHAIN CHAR(4),
              1533    1           3 *(0:1) UBIN,
              1534    1         2 IDCW ALIGNED,
              1535    1           3 DCWLIST BIT(36) INIT('0003'O),
              1536    1           3 RQSTAT BIT(36) INIT('000200020200'O),
              1537    1           3 RDBIN BIT(36) INIT('050200020000'O),
              1538    1           3 WRBIN BIT(36) INIT('150200020000'O),
              1539    1           3 RDASC BIT(36) INIT('030200020000'O),
              1540    1           3 WRASC BIT(36) INIT('132200020000'O),
              1541    1           3 REWIND BIT(36) INIT('700200020200'O),
              1542    1           3 WRCMP BIT(36) INIT('0'B),
              1543    1           3 UNLOAD BIT(36) INIT('720200020200'O),
              1544    1           3 ALARM BIT(36) INIT('0'B),
              1545    1           3 WRFM BIT(36) INIT('550200020200'O),
              1546    1           3 WRZERO BIT(36) INIT('0'B),
              1547    1           3 READ BIT(36) INIT('032005020000'O),
              1548    1           3 WRITE BIT(36) INIT('132115020000'O),
              1549    1           3 SPREC BIT(36) INIT('441646400201'O),
              1550    1           3 SPFILE BIT(36) INIT('441746400277'O),
              1551    1           3 PERMIT BIT(36) INIT('630200020200'O),
              1552    1           3 PROTECT BIT(36) INIT('620200020200'O),
              1553    1           3 RESET BIT(36) INIT('400200020200'O),
              1554    1           3 SD800 BIT(36) INIT('600100020200'O),
              1555    1           3 SD1600 BIT(36) INIT('650200020200'O),
              1556    1           3 SD6250 BIT(36) INIT('410200020200'O),
              1557    1           3 LDCHAIN BIT(36) INIT('0'B),
              1558    1           3 LDTAPE BIT(36) INIT('750200020200'O),
              1559    1           3 RESTORE BIT(36) INIT('0'B),
              1560    1           3 LDVFC BIT(36) INIT('0'B),
              1561    1           3 SYMB BIT(36) INIT('0'B),
              1562    1           3 EXTST BIT(36) INIT('500200020000'O),
              1563    1           3 ERACE BIT(36) INIT('540200020200'O);
PL6.E3A0      #001=NI_DVTS_D File=NI_DVTS_D.:E05TSI                              WED 07/30/97 03:42 Page:18
      260     1565        %DVT (NAME=NI_MTDVT2,SCHED#=NIT$REQSCHED,POSTER#=NIT$POSTER,DVSCH#=NIT$DEVSCHED,
      261     1566              TYPE#=%DV_MT,ATTR#="%(ATTR_D800#|ATTR_D1600#)",
      262     1567              RQSTAT#="%CONCAT(%MT_RQSTAT,%RTN_STD,'00'O,'02'O,%CC_NOBUF,'00'O)",
      263     1568              RDBIN#="%CONCAT(%MT_RDBIN,%RTN_STD,'00'O,'02'O,%CC_UR,'00'O)",
      264     1569              WRBIN#="%CONCAT(%MT_WRBIN,%RTN_STD,'00'O,'02'O,%CC_UR,'00'O)",
      265     1570              RDASC#="%CONCAT(%MT_RD9,%RTN_STD,'00'O,'02'O,%CC_UR,'00'O)",
      266     1571              WRASC#="%CONCAT(%MT_WR9,%RTN_MT_WRBYTE,'00'O,'02'O,%CC_UR,'00'O)",
      267     1572              REWIND#="%CONCAT(%MT_REWIND,%RTN_STD,'00'O,'02'O,%CC_NOBUF,'00'O)",
      268     1573              UNLOAD#="%CONCAT(%MT_UNLOAD,%RTN_STD,'00'O,'02'O,%CC_NOBUF,'00'O)",
      269     1574              WRFM#="%CONCAT(%MT_WRFM,%RTN_STD,'00'O,'02'O,%CC_NOBUF,'00'O)",
      270     1575              READ#="%CONCAT(%MT_RD9,%RTN_MT_READ,%MT_RDBIN,'02'O,%CC_UR,'00'O)",
      271     1576              WRITE#="%CONCAT(%MT_WR9,%RTN_MT_WRITE,%MT_WRBIN,'02'O,%CC_UR,'00'O)",
      272     1577              SPREC#="%CONCAT(%MT_FSPR,%RTN_MT_SPR,%MT_BSPR,'40'O,%CC_NOBUF,'01'O)",
      273     1578              SPFILE#="%CONCAT(%MT_FSPR,%RTN_MT_SPF,%MT_BSPR,'40'O,%CC_NOBUF,'77'O)",
      274     1579              PERMIT#="%CONCAT(%MT_PERMIT,%RTN_BADFC_IGNORE,'00'O,'02'O,%CC_NOBUF,'00'O)",
      275     1580              PROTECT#="%CONCAT(%MT_PROTECT,%RTN_BADFC_IGNORE,'00'O,'02'O,%CC_NOBUF,'00'O)",
      276     1581              RESET#="%CONCAT(%MT_RESET,%RTN_STD,'00'O,'02'O,%CC_NOBUF,'00'O)",
      277     1582              SD800#="%CONCAT(%MT_SD800,%RTN_STD,'00'O,'02'O,%CC_NOBUF,'00'O)",
      278     1583              SD1600#="%CONCAT(%MT_SD1600,%RTN_STD,'00'O,'02'O,%CC_NOBUF,'00'O)",
      279     1584              SD6250#="%CONCAT(%MT_SD6250,%RTN_BADFC_IOERR,'00'O,'02'O,%CC_NOBUF,'00'O)",
      280     1585              LDTAPE#="%CONCAT(%MT_LDTAPE,%RTN_BADFC_IOERR,'00'O,'02'O,%CC_NOBUF,'00'O)",
      281     1586              EXTST#="%CONCAT(%MT_EXTST,%RTN_BADFC_IOERR,'00'O,'02'O,%CC_UR,'00'O)",
      282     1587              ERASE#="%CONCAT(%MT_ERASE,%RTN_STD,'00'O,'02'O,%CC_NOBUF,'00'O)",
      283     1588              MODEL#='MTU8200',
      284     1589              FEATURE#='MTF8205');
              1590    1   DCL 1 NI_MTDVT2 CONSTANT SYMDEF ALIGNED,
              1591    1         2 SCHED EPTR INIT(ENTADDR(NIT$REQSCHED)),
              1592    1         2 POSTER EPTR INIT(ENTADDR(NIT$POSTER)),
              1593    1         2 DVSCH EPTR INIT(ENTADDR(NIT$DEVSCHED)),
              1594    1         2 MODEL(0:9) CHAR(8) ALIGNED INIT('MTU8200',' '*0),
              1595    1         2 FEATURE(0:9) CHAR(8) ALIGNED INIT(' ','MTF8205',' '*0),
              1596    1         2 TYPE UBIN(9) UNAL INIT(4),
              1597    1         2 NT@DCYLS UBIN(9) UNAL INIT(0),
              1598    1         2 SPT UBIN(9) UNAL INIT(0),
              1599    1         2 GRANSIZE UBIN(9) UNAL INIT(0),
              1600    1         2 PACKSIZE UBIN(36) UNAL INIT(0),
              1601    1         2 CYLSIZE UBIN(18) UNAL INIT(0),
PL6.E3A0      #001=NI_DVTS_D File=NI_DVTS_D.:E05TSI                              WED 07/30/97 03:42 Page:19
              1602    1         2 T@DCYL UBIN(18) UNAL INIT(0),
              1603    1         2 SECSIZE UBIN(18) UNAL INIT(0),
              1604    1         2 ATTR BIT(18) UNAL INIT('300000'O),
              1605    1         2 MPC ALIGNED,
              1606    1           3 FWNAME CHAR(4) INIT(' '),
              1607    1           3 LPNAME CHAR(4) INIT(' '),
              1608    1           3 CRPNAME CHAR(4) INIT(' '),
              1609    1         2 LP REDEF MPC ALIGNED,
              1610    1           3 CHAIN CHAR(4),
              1611    1           3 *(0:1) UBIN,
              1612    1         2 IDCW ALIGNED,
              1613    1           3 DCWLIST BIT(36) INIT('0003'O),
              1614    1           3 RQSTAT BIT(36) INIT('000200020200'O),
              1615    1           3 RDBIN BIT(36) INIT('050200020000'O),
              1616    1           3 WRBIN BIT(36) INIT('150200020000'O),
              1617    1           3 RDASC BIT(36) INIT('030200020000'O),
              1618    1           3 WRASC BIT(36) INIT('132200020000'O),
              1619    1           3 REWIND BIT(36) INIT('700200020200'O),
              1620    1           3 WRCMP BIT(36) INIT('0'B),
              1621    1           3 UNLOAD BIT(36) INIT('720200020200'O),
              1622    1           3 ALARM BIT(36) INIT('0'B),
              1623    1           3 WRFM BIT(36) INIT('550200020200'O),
              1624    1           3 WRZERO BIT(36) INIT('0'B),
              1625    1           3 READ BIT(36) INIT('032005020000'O),
              1626    1           3 WRITE BIT(36) INIT('132115020000'O),
              1627    1           3 SPREC BIT(36) INIT('441646400201'O),
              1628    1           3 SPFILE BIT(36) INIT('441746400277'O),
              1629    1           3 PERMIT BIT(36) INIT('633100020200'O),
              1630    1           3 PROTECT BIT(36) INIT('623100020200'O),
              1631    1           3 RESET BIT(36) INIT('400200020200'O),
              1632    1           3 SD800 BIT(36) INIT('600200020200'O),
              1633    1           3 SD1600 BIT(36) INIT('650200020200'O),
              1634    1           3 SD6250 BIT(36) INIT('410100020200'O),
              1635    1           3 LDCHAIN BIT(36) INIT('0'B),
              1636    1           3 LDTAPE BIT(36) INIT('750100020200'O),
              1637    1           3 RESTORE BIT(36) INIT('0'B),
              1638    1           3 LDVFC BIT(36) INIT('0'B),
PL6.E3A0      #001=NI_DVTS_D File=NI_DVTS_D.:E05TSI                              WED 07/30/97 03:42 Page:20
              1639    1           3 SYMB BIT(36) INIT('0'B),
              1640    1           3 EXTST BIT(36) INIT('500100020000'O),
              1641    1           3 ERACE BIT(36) INIT('540200020200'O);
      285     1643        %DVT (NAME=NI_MTDVT3,SCHED#=NIT$REQSCHED,POSTER#=NIT$POSTER,DVSCH#=NIT$DEVSCHED,
      286     1644              TYPE#=%DV_MT,ATTR#="%(ATTR_D1600#|ATTR_D6250#)",
      287     1645              RQSTAT#="%CONCAT(%MT_RQSTAT,%RTN_STD,'00'O,'02'O,%CC_NOBUF,'00'O)",
      288     1646              RDBIN#="%CONCAT(%MT_RDBIN,%RTN_STD,'00'O,'02'O,%CC_UR,'00'O)",
      289     1647              WRBIN#="%CONCAT(%MT_WRBIN,%RTN_STD,'00'O,'02'O,%CC_UR,'00'O)",
      290     1648              RDASC#="%CONCAT(%MT_RD9,%RTN_STD,'00'O,'02'O,%CC_UR,'00'O)",
      291     1649              WRASC#="%CONCAT(%MT_WR9,%RTN_MT_WRBYTE,'00'O,'02'O,%CC_UR,'00'O)",
      292     1650              REWIND#="%CONCAT(%MT_REWIND,%RTN_STD,'00'O,'02'O,%CC_NOBUF,'00'O)",
      293     1651              UNLOAD#="%CONCAT(%MT_UNLOAD,%RTN_STD,'00'O,'02'O,%CC_NOBUF,'00'O)",
      294     1652              WRFM#="%CONCAT(%MT_WRFM,%RTN_STD,'00'O,'02'O,%CC_NOBUF,'00'O)",
      295     1653              READ#="%CONCAT(%MT_RD9,%RTN_MT_READ,%MT_RDBIN,'02'O,%CC_UR,'00'O)",
      296     1654              WRITE#="%CONCAT(%MT_WR9,%RTN_MT_WRITE,%MT_WRBIN,'02'O,%CC_UR,'00'O)",
      297     1655              SPREC#="%CONCAT(%MT_FSPR,%RTN_MT_SPR,%MT_BSPR,'40'O,%CC_NOBUF,'01'O)",
      298     1656              SPFILE#="%CONCAT(%MT_FSPR,%RTN_MT_SPF,%MT_BSPR,'40'O,%CC_NOBUF,'77'O)",
      299     1657              PERMIT#="%CONCAT(%MT_PERMIT,%RTN_BADFC_IGNORE,'00'O,'02'O,%CC_NOBUF,'00'O)",
      300     1658              PROTECT#="%CONCAT(%MT_PROTECT,%RTN_BADFC_IGNORE,'00'O,'02'O,%CC_NOBUF,'00'O)",
      301     1659              RESET#="%CONCAT(%MT_RESET,%RTN_STD,'00'O,'02'O,%CC_NOBUF,'00'O)",
      302     1660              SD800#="%CONCAT(%MT_SD800,%RTN_BADFC_IOERR,'00'O,'02'O,%CC_NOBUF,'00'O)",
      303     1661              SD1600#="%CONCAT(%MT_SD1600,%RTN_STD,'00'O,'02'O,%CC_NOBUF,'00'O)",
      304     1662              SD6250#="%CONCAT(%MT_SD6250,%RTN_STD,'00'O,'02'O,%CC_NOBUF,'00'O)",
      305     1663              LDTAPE#="%CONCAT(%MT_LDTAPE,%RTN_BADFC_IOERR,'00'O,'02'O,%CC_NOBUF,'00'O)",
      306     1664              EXTST#="%CONCAT(%MT_EXTST,%RTN_BADFC_IOERR,'00'O,'02'O,%CC_UR,'00'O)",
      307     1665              ERASE#="%CONCAT(%MT_ERASE,%RTN_STD,'00'O,'02'O,%CC_NOBUF,'00'O)",
      308     1666              MODEL#='MTU8200',
      309     1667              FEATURE#="'MTF8206','MTF8208'");
              1668    1   DCL 1 NI_MTDVT3 CONSTANT SYMDEF ALIGNED,
              1669    1         2 SCHED EPTR INIT(ENTADDR(NIT$REQSCHED)),
              1670    1         2 POSTER EPTR INIT(ENTADDR(NIT$POSTER)),
              1671    1         2 DVSCH EPTR INIT(ENTADDR(NIT$DEVSCHED)),
              1672    1         2 MODEL(0:9) CHAR(8) ALIGNED INIT('MTU8200',' '*0),
              1673    1         2 FEATURE(0:9) CHAR(8) ALIGNED INIT(' ','MTF8206','MTF8208',' '*0),
              1674    1         2 TYPE UBIN(9) UNAL INIT(4),
              1675    1         2 NT@DCYLS UBIN(9) UNAL INIT(0),
              1676    1         2 SPT UBIN(9) UNAL INIT(0),
PL6.E3A0      #001=NI_DVTS_D File=NI_DVTS_D.:E05TSI                              WED 07/30/97 03:42 Page:21
              1677    1         2 GRANSIZE UBIN(9) UNAL INIT(0),
              1678    1         2 PACKSIZE UBIN(36) UNAL INIT(0),
              1679    1         2 CYLSIZE UBIN(18) UNAL INIT(0),
              1680    1         2 T@DCYL UBIN(18) UNAL INIT(0),
              1681    1         2 SECSIZE UBIN(18) UNAL INIT(0),
              1682    1         2 ATTR BIT(18) UNAL INIT('600000'O),
              1683    1         2 MPC ALIGNED,
              1684    1           3 FWNAME CHAR(4) INIT(' '),
              1685    1           3 LPNAME CHAR(4) INIT(' '),
              1686    1           3 CRPNAME CHAR(4) INIT(' '),
              1687    1         2 LP REDEF MPC ALIGNED,
              1688    1           3 CHAIN CHAR(4),
              1689    1           3 *(0:1) UBIN,
              1690    1         2 IDCW ALIGNED,
              1691    1           3 DCWLIST BIT(36) INIT('0003'O),
              1692    1           3 RQSTAT BIT(36) INIT('000200020200'O),
              1693    1           3 RDBIN BIT(36) INIT('050200020000'O),
              1694    1           3 WRBIN BIT(36) INIT('150200020000'O),
              1695    1           3 RDASC BIT(36) INIT('030200020000'O),
              1696    1           3 WRASC BIT(36) INIT('132200020000'O),
              1697    1           3 REWIND BIT(36) INIT('700200020200'O),
              1698    1           3 WRCMP BIT(36) INIT('0'B),
              1699    1           3 UNLOAD BIT(36) INIT('720200020200'O),
              1700    1           3 ALARM BIT(36) INIT('0'B),
              1701    1           3 WRFM BIT(36) INIT('550200020200'O),
              1702    1           3 WRZERO BIT(36) INIT('0'B),
              1703    1           3 READ BIT(36) INIT('032005020000'O),
              1704    1           3 WRITE BIT(36) INIT('132115020000'O),
              1705    1           3 SPREC BIT(36) INIT('441646400201'O),
              1706    1           3 SPFILE BIT(36) INIT('441746400277'O),
              1707    1           3 PERMIT BIT(36) INIT('633100020200'O),
              1708    1           3 PROTECT BIT(36) INIT('623100020200'O),
              1709    1           3 RESET BIT(36) INIT('400200020200'O),
              1710    1           3 SD800 BIT(36) INIT('600100020200'O),
              1711    1           3 SD1600 BIT(36) INIT('650200020200'O),
              1712    1           3 SD6250 BIT(36) INIT('410200020200'O),
              1713    1           3 LDCHAIN BIT(36) INIT('0'B),
PL6.E3A0      #001=NI_DVTS_D File=NI_DVTS_D.:E05TSI                              WED 07/30/97 03:42 Page:22
              1714    1           3 LDTAPE BIT(36) INIT('750100020200'O),
              1715    1           3 RESTORE BIT(36) INIT('0'B),
              1716    1           3 LDVFC BIT(36) INIT('0'B),
              1717    1           3 SYMB BIT(36) INIT('0'B),
              1718    1           3 EXTST BIT(36) INIT('500100020000'O),
              1719    1           3 ERACE BIT(36) INIT('540200020200'O);
      310     1721        %DVT (NAME=NI_APDVT,SCHED#=NIU$REQSCHED,POSTER#=NAP$POSTER,DVSCH#=NIU$DEVSCHED,
      311     1722              TYPE#=%DV_AP,
      312     1723              DCWLIST#="%CONCAT('00'O,%RTN_AP_IO)",
      313     1724              MODEL#="'FPS0164'",FEATURE#="'SFS6125'");
              1725    1   DCL 1 NI_APDVT CONSTANT SYMDEF ALIGNED,
              1726    1         2 SCHED EPTR INIT(ENTADDR(NIU$REQSCHED)),
              1727    1         2 POSTER EPTR INIT(ENTADDR(NAP$POSTER)),
              1728    1         2 DVSCH EPTR INIT(ENTADDR(NIU$DEVSCHED)),
              1729    1         2 MODEL(0:9) CHAR(8) ALIGNED INIT('FPS0164',' '*0),
              1730    1         2 FEATURE(0:9) CHAR(8) ALIGNED INIT(' ','SFS6125',' '*0),
              1731    1         2 TYPE UBIN(9) UNAL INIT(8),
              1732    1         2 NT@DCYLS UBIN(9) UNAL INIT(0),
              1733    1         2 SPT UBIN(9) UNAL INIT(0),
              1734    1         2 GRANSIZE UBIN(9) UNAL INIT(0),
              1735    1         2 PACKSIZE UBIN(36) UNAL INIT(0),
              1736    1         2 CYLSIZE UBIN(18) UNAL INIT(0),
              1737    1         2 T@DCYL UBIN(18) UNAL INIT(0),
              1738    1         2 SECSIZE UBIN(18) UNAL INIT(0),
              1739    1         2 ATTR BIT(18) UNAL INIT('0'B),
              1740    1         2 MPC ALIGNED,
              1741    1           3 FWNAME CHAR(4) INIT(' '),
              1742    1           3 LPNAME CHAR(4) INIT(' '),
              1743    1           3 CRPNAME CHAR(4) INIT(' '),
              1744    1         2 LP REDEF MPC ALIGNED,
              1745    1           3 CHAIN CHAR(4),
              1746    1           3 *(0:1) UBIN,
              1747    1         2 IDCW ALIGNED,
              1748    1           3 DCWLIST BIT(36) INIT('0027'O),
              1749    1           3 RQSTAT BIT(36) INIT('0'B),
              1750    1           3 RDBIN BIT(36) INIT('0'B),
              1751    1           3 WRBIN BIT(36) INIT('0'B),
PL6.E3A0      #001=NI_DVTS_D File=NI_DVTS_D.:E05TSI                              WED 07/30/97 03:42 Page:23
              1752    1           3 RDASC BIT(36) INIT('0'B),
              1753    1           3 WRASC BIT(36) INIT('0'B),
              1754    1           3 REWIND BIT(36) INIT('0'B),
              1755    1           3 WRCMP BIT(36) INIT('0'B),
              1756    1           3 UNLOAD BIT(36) INIT('0'B),
              1757    1           3 ALARM BIT(36) INIT('0'B),
              1758    1           3 WRFM BIT(36) INIT('0'B),
              1759    1           3 WRZERO BIT(36) INIT('0'B),
              1760    1           3 READ BIT(36) INIT('0'B),
              1761    1           3 WRITE BIT(36) INIT('0'B),
              1762    1           3 SPREC BIT(36) INIT('0'B),
              1763    1           3 SPFILE BIT(36) INIT('0'B),
              1764    1           3 PERMIT BIT(36) INIT('0'B),
              1765    1           3 PROTECT BIT(36) INIT('0'B),
              1766    1           3 RESET BIT(36) INIT('0'B),
              1767    1           3 SD800 BIT(36) INIT('0'B),
              1768    1           3 SD1600 BIT(36) INIT('0'B),
              1769    1           3 SD6250 BIT(36) INIT('0'B),
              1770    1           3 LDCHAIN BIT(36) INIT('0'B),
              1771    1           3 LDTAPE BIT(36) INIT('0'B),
              1772    1           3 RESTORE BIT(36) INIT('0'B),
              1773    1           3 LDVFC BIT(36) INIT('0'B),
              1774    1           3 SYMB BIT(36) INIT('0'B),
              1775    1           3 EXTST BIT(36) INIT('0'B),
              1776    1           3 ERACE BIT(36) INIT('0'B);
      314     1778        %DVT (NAME=NI_ACDVT,SCHED#=NIU$REQSCHED,POSTER#=NAP$POSTER,DVSCH#=NIU$DEVSCHED,
      315     1779              TYPE#=%DV_MPC,
      316     1780              DCWLIST#="%CONCAT('00'O,%RTN_AP_IO)",
      317     1781              MODEL#="'FPS0164C'",
      318     1782              FWNAME#='NONE');
              1783    1   DCL 1 NI_ACDVT CONSTANT SYMDEF ALIGNED,
              1784    1         2 SCHED EPTR INIT(ENTADDR(NIU$REQSCHED)),
              1785    1         2 POSTER EPTR INIT(ENTADDR(NAP$POSTER)),
              1786    1         2 DVSCH EPTR INIT(ENTADDR(NIU$DEVSCHED)),
              1787    1         2 MODEL(0:9) CHAR(8) ALIGNED INIT('FPS0164C',' '*0),
              1788    1         2 FEATURE(0:9) CHAR(8) ALIGNED INIT(' ',' ',' '*0),
              1789    1         2 TYPE UBIN(9) UNAL INIT(7),
PL6.E3A0      #001=NI_DVTS_D File=NI_DVTS_D.:E05TSI                              WED 07/30/97 03:42 Page:24
              1790    1         2 NT@DCYLS UBIN(9) UNAL INIT(0),
              1791    1         2 SPT UBIN(9) UNAL INIT(0),
              1792    1         2 GRANSIZE UBIN(9) UNAL INIT(0),
              1793    1         2 PACKSIZE UBIN(36) UNAL INIT(0),
              1794    1         2 CYLSIZE UBIN(18) UNAL INIT(0),
              1795    1         2 T@DCYL UBIN(18) UNAL INIT(0),
              1796    1         2 SECSIZE UBIN(18) UNAL INIT(0),
              1797    1         2 ATTR BIT(18) UNAL INIT('0'B),
              1798    1         2 MPC ALIGNED,
              1799    1           3 FWNAME CHAR(4) INIT('NONE'),
              1800    1           3 LPNAME CHAR(4) INIT(' '),
              1801    1           3 CRPNAME CHAR(4) INIT(' '),
              1802    1         2 LP REDEF MPC ALIGNED,
              1803    1           3 CHAIN CHAR(4),
              1804    1           3 *(0:1) UBIN,
              1805    1         2 IDCW ALIGNED,
              1806    1           3 DCWLIST BIT(36) INIT('0027'O),
              1807    1           3 RQSTAT BIT(36) INIT('0'B),
              1808    1           3 RDBIN BIT(36) INIT('0'B),
              1809    1           3 WRBIN BIT(36) INIT('0'B),
              1810    1           3 RDASC BIT(36) INIT('0'B),
              1811    1           3 WRASC BIT(36) INIT('0'B),
              1812    1           3 REWIND BIT(36) INIT('0'B),
              1813    1           3 WRCMP BIT(36) INIT('0'B),
              1814    1           3 UNLOAD BIT(36) INIT('0'B),
              1815    1           3 ALARM BIT(36) INIT('0'B),
              1816    1           3 WRFM BIT(36) INIT('0'B),
              1817    1           3 WRZERO BIT(36) INIT('0'B),
              1818    1           3 READ BIT(36) INIT('0'B),
              1819    1           3 WRITE BIT(36) INIT('0'B),
              1820    1           3 SPREC BIT(36) INIT('0'B),
              1821    1           3 SPFILE BIT(36) INIT('0'B),
              1822    1           3 PERMIT BIT(36) INIT('0'B),
              1823    1           3 PROTECT BIT(36) INIT('0'B),
              1824    1           3 RESET BIT(36) INIT('0'B),
              1825    1           3 SD800 BIT(36) INIT('0'B),
              1826    1           3 SD1600 BIT(36) INIT('0'B),
PL6.E3A0      #001=NI_DVTS_D File=NI_DVTS_D.:E05TSI                              WED 07/30/97 03:42 Page:25
              1827    1           3 SD6250 BIT(36) INIT('0'B),
              1828    1           3 LDCHAIN BIT(36) INIT('0'B),
              1829    1           3 LDTAPE BIT(36) INIT('0'B),
              1830    1           3 RESTORE BIT(36) INIT('0'B),
              1831    1           3 LDVFC BIT(36) INIT('0'B),
              1832    1           3 SYMB BIT(36) INIT('0'B),
              1833    1           3 EXTST BIT(36) INIT('0'B),
              1834    1           3 ERACE BIT(36) INIT('0'B);
      319     1836        /**/
      320     1837        /* DISK DVTS */
      321     1838        /**/
      322     1839        /* WARNING!!!
      323     1840              When adding new disk DVTs, remember to update code in THF$FORMAT
      324     1841              which calculates CYL, HD, and SE from SEEK.SECTOR.  Also, don't forget
      325     1842              that a new ATTR is probably necessary - affects PIG, IBEX, etc.
      326     1843              In addition, don't forget to fix ITC - autoconfig.
      327     1844        */
      328     1845        %DVT (NAME=NI_DPDVT1,SCHED#=NID$REQSCHED,POSTER#=NID$POSTER,DVSCH#=NID$DEVSCHED,
      329     1846              TYPE#=%DV_DP,ATTR#=%ATTR_DD200#,
      330     1847              T@DCYL#=814,NT@DCYLS#=1,
      331     1848              GS#=16,SS#=64,CS#=760,PS#=38665,SPT#=40,
      332     1849              RQSTAT#="%CONCAT(%DP_RQSTAT,%RTN_STD,'00'O,'02'O,%CC_NOBUF,'00'O)",
      333     1850              RDBIN#="%CONCAT(%DP_SEEK64,%RTN_DP_SEEK,%DP_RDBIN,'02'O,%CC_UR,'00'O)",
      334     1851              WRBIN#="%CONCAT(%DP_SEEK64,%RTN_DP_SEEK,%DP_WRBIN,'02'O,%CC_UR,'00'O)",
      335     1852              RDASC#="%CONCAT(%DP_SEEK64,%RTN_DP_SEEK,%DP_RDASC,'02'O,%CC_UR,'00'O)",
      336     1853              WRASC#="%CONCAT(%DP_SEEK64,%RTN_DP_SEEK,%DP_WRASC,'02'O,%CC_UR,'00'O)",
      337     1854              WRCMP#="%CONCAT(%DP_SEEK64,%RTN_DP_SEEK,%DP_WRCMP,'02'O,%CC_UR,'00'O)",
      338     1855              UNLOAD#="%CONCAT(%DP_UNLOAD,%RTN_STD,'00'O,'02'O,%CC_NOBUF,'00'O)",
      339     1856              WRZERO#="%CONCAT(%DP_SEEK64,%RTN_DP_WRZERO,%DP_WRBIN,'02'O,%CC_UR,'00'O)",
      340     1857              RESTORE#="%CONCAT(%DP_RESTORE,%RTN_STD,'00'O,'02'O,%CC_NOBUF,'00'O)",
      341     1858              EXTST#="%CONCAT(%DP_EXTST,%RTN_STD,'00'O,'02'O,%CC_UR,'00'O)",
      342     1859              MODEL#='MSU0451',FEATURE#='MSF0007');
              1860    1   DCL 1 NI_DPDVT1 CONSTANT SYMDEF ALIGNED,
              1861    1         2 SCHED EPTR INIT(ENTADDR(NID$REQSCHED)),
              1862    1         2 POSTER EPTR INIT(ENTADDR(NID$POSTER)),
              1863    1         2 DVSCH EPTR INIT(ENTADDR(NID$DEVSCHED)),
              1864    1         2 MODEL(0:9) CHAR(8) ALIGNED INIT('MSU0451',' '*0),
PL6.E3A0      #001=NI_DVTS_D File=NI_DVTS_D.:E05TSI                              WED 07/30/97 03:42 Page:26
              1865    1         2 FEATURE(0:9) CHAR(8) ALIGNED INIT(' ','MSF0007',' '*0),
              1866    1         2 TYPE UBIN(9) UNAL INIT(6),
              1867    1         2 NT@DCYLS UBIN(9) UNAL INIT(1),
              1868    1         2 SPT UBIN(9) UNAL INIT(40),
              1869    1         2 GRANSIZE UBIN(9) UNAL INIT(16),
              1870    1         2 PACKSIZE UBIN(36) UNAL INIT(38665),
              1871    1         2 CYLSIZE UBIN(18) UNAL INIT(760),
              1872    1         2 T@DCYL UBIN(18) UNAL INIT(814),
              1873    1         2 SECSIZE UBIN(18) UNAL INIT(64),
              1874    1         2 ATTR BIT(18) UNAL INIT('010000'O),
              1875    1         2 MPC ALIGNED,
              1876    1           3 FWNAME CHAR(4) INIT(' '),
              1877    1           3 LPNAME CHAR(4) INIT(' '),
              1878    1           3 CRPNAME CHAR(4) INIT(' '),
              1879    1         2 LP REDEF MPC ALIGNED,
              1880    1           3 CHAIN CHAR(4),
              1881    1           3 *(0:1) UBIN,
              1882    1         2 IDCW ALIGNED,
              1883    1           3 DCWLIST BIT(36) INIT('0003'O),
              1884    1           3 RQSTAT BIT(36) INIT('000200020200'O),
              1885    1           3 RDBIN BIT(36) INIT('342325020000'O),
              1886    1           3 WRBIN BIT(36) INIT('342331020000'O),
              1887    1           3 RDASC BIT(36) INIT('342323020000'O),
              1888    1           3 WRASC BIT(36) INIT('342332020000'O),
              1889    1           3 REWIND BIT(36) INIT('0'B),
              1890    1           3 WRCMP BIT(36) INIT('342333020000'O),
              1891    1           3 UNLOAD BIT(36) INIT('720200020200'O),
              1892    1           3 ALARM BIT(36) INIT('0'B),
              1893    1           3 WRFM BIT(36) INIT('0'B),
              1894    1           3 WRZERO BIT(36) INIT('342431020000'O),
              1895    1           3 READ BIT(36) INIT('0'B),
              1896    1           3 WRITE BIT(36) INIT('0'B),
              1897    1           3 SPREC BIT(36) INIT('0'B),
              1898    1           3 SPFILE BIT(36) INIT('0'B),
              1899    1           3 PERMIT BIT(36) INIT('0'B),
              1900    1           3 PROTECT BIT(36) INIT('0'B),
              1901    1           3 RESET BIT(36) INIT('0'B),
PL6.E3A0      #001=NI_DVTS_D File=NI_DVTS_D.:E05TSI                              WED 07/30/97 03:42 Page:27
              1902    1           3 SD800 BIT(36) INIT('0'B),
              1903    1           3 SD1600 BIT(36) INIT('0'B),
              1904    1           3 SD6250 BIT(36) INIT('0'B),
              1905    1           3 LDCHAIN BIT(36) INIT('0'B),
              1906    1           3 LDTAPE BIT(36) INIT('0'B),
              1907    1           3 RESTORE BIT(36) INIT('420200020200'O),
              1908    1           3 LDVFC BIT(36) INIT('0'B),
              1909    1           3 SYMB BIT(36) INIT('0'B),
              1910    1           3 EXTST BIT(36) INIT('220200020000'O),
              1911    1           3 ERACE BIT(36) INIT('0'B);
      343     1913        %DVT (NAME=NI_DPDVT2,SCHED#=NID$REQSCHED,POSTER#=NID$POSTER,DVSCH#=NID$DEVSCHED,
      344     1914              TYPE#=%DV_DP,ATTR#=%ATTR_DD600#,
      345     1915              T@DCYL#=841,NT@DCYLS#=1,
      346     1916              GS#=2,SS#=512,CS#=320,PS#=134400,SPT#=8,
      347     1917              RQSTAT#="%CONCAT(%DP_RQSTAT,%RTN_STD,'00'O,'02'O,%CC_NOBUF,'00'O)",
      348     1918              RDBIN#="%CONCAT(%DP_SEEK512,%RTN_DP_SEEK,%DP_RDBIN,'02'O,%CC_UR,'00'O)",
      349     1919              WRBIN#="%CONCAT(%DP_SEEK512,%RTN_DP_SEEK,%DP_WRBIN,'02'O,%CC_UR,'00'O)",
      350     1920              RDASC#="%CONCAT(%DP_SEEK512,%RTN_DP_SEEK,%DP_RDASC,'02'O,%CC_UR,'00'O)",
      351     1921              WRASC#="%CONCAT(%DP_SEEK512,%RTN_DP_SEEK,%DP_WRASC,'02'O,%CC_UR,'00'O)",
      352     1922              WRCMP#="%CONCAT(%DP_SEEK512,%RTN_DP_SEEK,%DP_WRCMP,'02'O,%CC_UR,'00'O)",
      353     1923              UNLOAD#="%CONCAT(%DP_UNLOAD,%RTN_STD,'00'O,'02'O,%CC_NOBUF,'00'O)",
      354     1924              WRZERO#="%CONCAT(%DP_SEEK512,%RTN_DP_WRZERO,%DP_WRBIN,'02'O,%CC_UR,'00'O)",
      355     1925              RESTORE#="%CONCAT(%DP_RESTORE,%RTN_STD,'00'O,'02'O,%CC_NOBUF,'00'O)",
      356     1926              EXTST#="%CONCAT(%DP_EXTST,%RTN_STD,'00'O,'02'O,%CC_UR,'00'O)",
      357     1927              MODEL#="'MSU0501','MSU0509'",FEATURE#='MSF0015');
              1928    1   DCL 1 NI_DPDVT2 CONSTANT SYMDEF ALIGNED,
              1929    1         2 SCHED EPTR INIT(ENTADDR(NID$REQSCHED)),
              1930    1         2 POSTER EPTR INIT(ENTADDR(NID$POSTER)),
              1931    1         2 DVSCH EPTR INIT(ENTADDR(NID$DEVSCHED)),
              1932    1         2 MODEL(0:9) CHAR(8) ALIGNED INIT('MSU0501','MSU0509',' '*0),
              1933    1         2 FEATURE(0:9) CHAR(8) ALIGNED INIT(' ','MSF0015',' '*0),
              1934    1         2 TYPE UBIN(9) UNAL INIT(6),
              1935    1         2 NT@DCYLS UBIN(9) UNAL INIT(1),
              1936    1         2 SPT UBIN(9) UNAL INIT(8),
              1937    1         2 GRANSIZE UBIN(9) UNAL INIT(2),
              1938    1         2 PACKSIZE UBIN(36) UNAL INIT(134400),
              1939    1         2 CYLSIZE UBIN(18) UNAL INIT(320),
PL6.E3A0      #001=NI_DVTS_D File=NI_DVTS_D.:E05TSI                              WED 07/30/97 03:42 Page:28
              1940    1         2 T@DCYL UBIN(18) UNAL INIT(841),
              1941    1         2 SECSIZE UBIN(18) UNAL INIT(512),
              1942    1         2 ATTR BIT(18) UNAL INIT('040000'O),
              1943    1         2 MPC ALIGNED,
              1944    1           3 FWNAME CHAR(4) INIT(' '),
              1945    1           3 LPNAME CHAR(4) INIT(' '),
              1946    1           3 CRPNAME CHAR(4) INIT(' '),
              1947    1         2 LP REDEF MPC ALIGNED,
              1948    1           3 CHAIN CHAR(4),
              1949    1           3 *(0:1) UBIN,
              1950    1         2 IDCW ALIGNED,
              1951    1           3 DCWLIST BIT(36) INIT('0003'O),
              1952    1           3 RQSTAT BIT(36) INIT('000200020200'O),
              1953    1           3 RDBIN BIT(36) INIT('302325020000'O),
              1954    1           3 WRBIN BIT(36) INIT('302331020000'O),
              1955    1           3 RDASC BIT(36) INIT('302323020000'O),
              1956    1           3 WRASC BIT(36) INIT('302332020000'O),
              1957    1           3 REWIND BIT(36) INIT('0'B),
              1958    1           3 WRCMP BIT(36) INIT('302333020000'O),
              1959    1           3 UNLOAD BIT(36) INIT('720200020200'O),
              1960    1           3 ALARM BIT(36) INIT('0'B),
              1961    1           3 WRFM BIT(36) INIT('0'B),
              1962    1           3 WRZERO BIT(36) INIT('302431020000'O),
              1963    1           3 READ BIT(36) INIT('0'B),
              1964    1           3 WRITE BIT(36) INIT('0'B),
              1965    1           3 SPREC BIT(36) INIT('0'B),
              1966    1           3 SPFILE BIT(36) INIT('0'B),
              1967    1           3 PERMIT BIT(36) INIT('0'B),
              1968    1           3 PROTECT BIT(36) INIT('0'B),
              1969    1           3 RESET BIT(36) INIT('0'B),
              1970    1           3 SD800 BIT(36) INIT('0'B),
              1971    1           3 SD1600 BIT(36) INIT('0'B),
              1972    1           3 SD6250 BIT(36) INIT('0'B),
              1973    1           3 LDCHAIN BIT(36) INIT('0'B),
              1974    1           3 LDTAPE BIT(36) INIT('0'B),
              1975    1           3 RESTORE BIT(36) INIT('420200020200'O),
              1976    1           3 LDVFC BIT(36) INIT('0'B),
PL6.E3A0      #001=NI_DVTS_D File=NI_DVTS_D.:E05TSI                              WED 07/30/97 03:42 Page:29
              1977    1           3 SYMB BIT(36) INIT('0'B),
              1978    1           3 EXTST BIT(36) INIT('220200020000'O),
              1979    1           3 ERACE BIT(36) INIT('0'B);
      358     1981        %DVT (NAME=NI_DPDVT3,SCHED#=NID$REQSCHED,POSTER#=NID$POSTER,DVSCH#=NID$DEVSCHED,
      359     1982              TYPE#=%DV_DP,ATTR#=%ATTR_DD600#,
      360     1983              T@DCYL#=841,NT@DCYLS#=1,
      361     1984              GS#=2,SS#=512,CS#=160,PS#=67200,SPT#=8,
      362     1985              RQSTAT#="%CONCAT(%DP_RQSTAT,%RTN_STD,'00'O,'02'O,%CC_NOBUF,'00'O)",
      363     1986              RDBIN#="%CONCAT(%DP_SEEK512,%RTN_DP_SEEK,%DP_RDBIN,'02'O,%CC_UR,'00'O)",
      364     1987              WRBIN#="%CONCAT(%DP_SEEK512,%RTN_DP_SEEK,%DP_WRBIN,'02'O,%CC_UR,'00'O)",
      365     1988              RDASC#="%CONCAT(%DP_SEEK512,%RTN_DP_SEEK,%DP_RDASC,'02'O,%CC_UR,'00'O)",
      366     1989              WRASC#="%CONCAT(%DP_SEEK512,%RTN_DP_SEEK,%DP_WRASC,'02'O,%CC_UR,'00'O)",
      367     1990              WRCMP#="%CONCAT(%DP_SEEK512,%RTN_DP_SEEK,%DP_WRCMP,'02'O,%CC_UR,'00'O)",
      368     1991              UNLOAD#="%CONCAT(%DP_UNLOAD,%RTN_STD,'00'O,'02'O,%CC_NOBUF,'00'O)",
      369     1992              WRZERO#="%CONCAT(%DP_SEEK512,%RTN_DP_WRZERO,%DP_WRBIN,'02'O,%CC_UR,'00'O)",
      370     1993              RESTORE#="%CONCAT(%DP_RESTORE,%RTN_STD,'00'O,'02'O,%CC_NOBUF,'00'O)",
      371     1994              EXTST#="%CONCAT(%DP_EXTST,%RTN_STD,'00'O,'02'O,%CC_UR,'00'O)",
      372     1995              MODEL#='MSU0501',FEATURE#='MSFXXXX');
              1996    1   DCL 1 NI_DPDVT3 CONSTANT SYMDEF ALIGNED,
              1997    1         2 SCHED EPTR INIT(ENTADDR(NID$REQSCHED)),
              1998    1         2 POSTER EPTR INIT(ENTADDR(NID$POSTER)),
              1999    1         2 DVSCH EPTR INIT(ENTADDR(NID$DEVSCHED)),
              2000    1         2 MODEL(0:9) CHAR(8) ALIGNED INIT('MSU0501',' '*0),
              2001    1         2 FEATURE(0:9) CHAR(8) ALIGNED INIT(' ','MSFXXXX',' '*0),
              2002    1         2 TYPE UBIN(9) UNAL INIT(6),
              2003    1         2 NT@DCYLS UBIN(9) UNAL INIT(1),
              2004    1         2 SPT UBIN(9) UNAL INIT(8),
              2005    1         2 GRANSIZE UBIN(9) UNAL INIT(2),
              2006    1         2 PACKSIZE UBIN(36) UNAL INIT(67200),
              2007    1         2 CYLSIZE UBIN(18) UNAL INIT(160),
              2008    1         2 T@DCYL UBIN(18) UNAL INIT(841),
              2009    1         2 SECSIZE UBIN(18) UNAL INIT(512),
              2010    1         2 ATTR BIT(18) UNAL INIT('040000'O),
              2011    1         2 MPC ALIGNED,
              2012    1           3 FWNAME CHAR(4) INIT(' '),
              2013    1           3 LPNAME CHAR(4) INIT(' '),
              2014    1           3 CRPNAME CHAR(4) INIT(' '),
PL6.E3A0      #001=NI_DVTS_D File=NI_DVTS_D.:E05TSI                              WED 07/30/97 03:42 Page:30
              2015    1         2 LP REDEF MPC ALIGNED,
              2016    1           3 CHAIN CHAR(4),
              2017    1           3 *(0:1) UBIN,
              2018    1         2 IDCW ALIGNED,
              2019    1           3 DCWLIST BIT(36) INIT('0003'O),
              2020    1           3 RQSTAT BIT(36) INIT('000200020200'O),
              2021    1           3 RDBIN BIT(36) INIT('302325020000'O),
              2022    1           3 WRBIN BIT(36) INIT('302331020000'O),
              2023    1           3 RDASC BIT(36) INIT('302323020000'O),
              2024    1           3 WRASC BIT(36) INIT('302332020000'O),
              2025    1           3 REWIND BIT(36) INIT('0'B),
              2026    1           3 WRCMP BIT(36) INIT('302333020000'O),
              2027    1           3 UNLOAD BIT(36) INIT('720200020200'O),
              2028    1           3 ALARM BIT(36) INIT('0'B),
              2029    1           3 WRFM BIT(36) INIT('0'B),
              2030    1           3 WRZERO BIT(36) INIT('302431020000'O),
              2031    1           3 READ BIT(36) INIT('0'B),
              2032    1           3 WRITE BIT(36) INIT('0'B),
              2033    1           3 SPREC BIT(36) INIT('0'B),
              2034    1           3 SPFILE BIT(36) INIT('0'B),
              2035    1           3 PERMIT BIT(36) INIT('0'B),
              2036    1           3 PROTECT BIT(36) INIT('0'B),
              2037    1           3 RESET BIT(36) INIT('0'B),
              2038    1           3 SD800 BIT(36) INIT('0'B),
              2039    1           3 SD1600 BIT(36) INIT('0'B),
              2040    1           3 SD6250 BIT(36) INIT('0'B),
              2041    1           3 LDCHAIN BIT(36) INIT('0'B),
              2042    1           3 LDTAPE BIT(36) INIT('0'B),
              2043    1           3 RESTORE BIT(36) INIT('420200020200'O),
              2044    1           3 LDVFC BIT(36) INIT('0'B),
              2045    1           3 SYMB BIT(36) INIT('0'B),
              2046    1           3 EXTST BIT(36) INIT('220200020000'O),
              2047    1           3 ERACE BIT(36) INIT('0'B);
      373     2049        %DVT (NAME=NI_DPDVT4,SCHED#=NID$REQSCHED,POSTER#=NID$POSTER,DVSCH#=NID$DEVSCHED,
      374     2050              TYPE#=%DV_DP,ATTR#=%ATTR_DD500#,
      375     2051              T@DCYL#=886,NT@DCYLS#=1,
      376     2052              GS#=2,SS#=512,CS#=255,PS#=112837,SPT#=17,
PL6.E3A0      #001=NI_DVTS_D File=NI_DVTS_D.:E05TSI                              WED 07/30/97 03:42 Page:31
      377     2053              RQSTAT#="%CONCAT(%DP_RQSTAT,%RTN_STD,'00'O,'02'O,%CC_NOBUF,'00'O)",
      378     2054              RDBIN#="%CONCAT(%DP_SEEK512,%RTN_DP_SEEK,%DP_RDBIN,'04'O,%CC_UR,'00'O)",
      379     2055              WRBIN#="%CONCAT(%DP_SEEK512,%RTN_DP_SEEK,%DP_WRBIN,'04'O,%CC_UR,'00'O)",
      380     2056              RDASC#="%CONCAT(%DP_SEEK512,%RTN_DP_SEEK,%DP_RDASC,'04'O,%CC_UR,'00'O)",
      381     2057              WRASC#="%CONCAT(%DP_SEEK512,%RTN_DP_SEEK,%DP_WRASC,'04'O,%CC_UR,'00'O)",
      382     2058              WRCMP#="%CONCAT(%DP_SEEK512,%RTN_DP_SEEK,%DP_WRCMP,'02'O,%CC_UR,'00'O)",
      383     2059              UNLOAD#="%CONCAT(%DP_UNLOAD,%RTN_BADFC_IOERR,'00'O,'02'O,%CC_NOBUF,'00'O)",
      384     2060              WRZERO#="%CONCAT(%DP_SEEK512,%RTN_DP_WRZERO,%DP_WRBIN,'02'O,%CC_UR,'00'O)",
      385     2061              RESTORE#="%CONCAT(%DP_RESTORE,%RTN_STD,'00'O,'02'O,%CC_NOBUF,'00'O)",
      386     2062              EXTST#="%CONCAT(%DP_EXTST,%RTN_BADFC_IOERR,'00'O,'02'O,%CC_UR,'00'O)",
      387     2063              MODEL#="'MSU3380','MSU3382','MSU3390','MSU3392'",
      388     2064              FEATURE#='       ');
              2065    1   DCL 1 NI_DPDVT4 CONSTANT SYMDEF ALIGNED,
              2066    1         2 SCHED EPTR INIT(ENTADDR(NID$REQSCHED)),
              2067    1         2 POSTER EPTR INIT(ENTADDR(NID$POSTER)),
              2068    1         2 DVSCH EPTR INIT(ENTADDR(NID$DEVSCHED)),
              2069    1         2 MODEL(0:9) CHAR(8) ALIGNED INIT('MSU3380','MSU3382','MSU3390','MSU3392',' '*
              2069                  0),
              2070    1         2 FEATURE(0:9) CHAR(8) ALIGNED INIT(' ','       ',' '*0),
              2071    1         2 TYPE UBIN(9) UNAL INIT(6),
              2072    1         2 NT@DCYLS UBIN(9) UNAL INIT(1),
              2073    1         2 SPT UBIN(9) UNAL INIT(17),
              2074    1         2 GRANSIZE UBIN(9) UNAL INIT(2),
              2075    1         2 PACKSIZE UBIN(36) UNAL INIT(112837),
              2076    1         2 CYLSIZE UBIN(18) UNAL INIT(255),
              2077    1         2 T@DCYL UBIN(18) UNAL INIT(886),
              2078    1         2 SECSIZE UBIN(18) UNAL INIT(512),
              2079    1         2 ATTR BIT(18) UNAL INIT('002000'O),
              2080    1         2 MPC ALIGNED,
              2081    1           3 FWNAME CHAR(4) INIT(' '),
              2082    1           3 LPNAME CHAR(4) INIT(' '),
              2083    1           3 CRPNAME CHAR(4) INIT(' '),
              2084    1         2 LP REDEF MPC ALIGNED,
              2085    1           3 CHAIN CHAR(4),
              2086    1           3 *(0:1) UBIN,
              2087    1         2 IDCW ALIGNED,
              2088    1           3 DCWLIST BIT(36) INIT('0003'O),
PL6.E3A0      #001=NI_DVTS_D File=NI_DVTS_D.:E05TSI                              WED 07/30/97 03:42 Page:32
              2089    1           3 RQSTAT BIT(36) INIT('000200020200'O),
              2090    1           3 RDBIN BIT(36) INIT('302325040000'O),
              2091    1           3 WRBIN BIT(36) INIT('302331040000'O),
              2092    1           3 RDASC BIT(36) INIT('302323040000'O),
              2093    1           3 WRASC BIT(36) INIT('302332040000'O),
              2094    1           3 REWIND BIT(36) INIT('0'B),
              2095    1           3 WRCMP BIT(36) INIT('302333020000'O),
              2096    1           3 UNLOAD BIT(36) INIT('720100020200'O),
              2097    1           3 ALARM BIT(36) INIT('0'B),
              2098    1           3 WRFM BIT(36) INIT('0'B),
              2099    1           3 WRZERO BIT(36) INIT('302431020000'O),
              2100    1           3 READ BIT(36) INIT('0'B),
              2101    1           3 WRITE BIT(36) INIT('0'B),
              2102    1           3 SPREC BIT(36) INIT('0'B),
              2103    1           3 SPFILE BIT(36) INIT('0'B),
              2104    1           3 PERMIT BIT(36) INIT('0'B),
              2105    1           3 PROTECT BIT(36) INIT('0'B),
              2106    1           3 RESET BIT(36) INIT('0'B),
              2107    1           3 SD800 BIT(36) INIT('0'B),
              2108    1           3 SD1600 BIT(36) INIT('0'B),
              2109    1           3 SD6250 BIT(36) INIT('0'B),
              2110    1           3 LDCHAIN BIT(36) INIT('0'B),
              2111    1           3 LDTAPE BIT(36) INIT('0'B),
              2112    1           3 RESTORE BIT(36) INIT('420200020200'O),
              2113    1           3 LDVFC BIT(36) INIT('0'B),
              2114    1           3 SYMB BIT(36) INIT('0'B),
              2115    1           3 EXTST BIT(36) INIT('220100020000'O),
              2116    1           3 ERACE BIT(36) INIT('0'B);
      389     2118        %DVT (NAME=NI_DPDVT5,SCHED#=NID$REQSCHED,POSTER#=NID$POSTER,DVSCH#=NID$DEVSCHED,
      390     2119              TYPE#=%DV_DP,ATTR#=%ATTR_DD1000#,
      391     2120              T@DCYL#=1771,NT@DCYLS#=1,
      392     2121              GS#=2,SS#=512,CS#=255,PS#=225675,SPT#=17,
      393     2122              RQSTAT#="%CONCAT(%DP_RQSTAT,%RTN_STD,'00'O,'02'O,%CC_NOBUF,'00'O)",
      394     2123              RDBIN#="%CONCAT(%DP_SEEK512,%RTN_DP_SEEK,%DP_RDBIN,'04'O,%CC_UR,'00'O)",
      395     2124              WRBIN#="%CONCAT(%DP_SEEK512,%RTN_DP_SEEK,%DP_WRBIN,'04'O,%CC_UR,'00'O)",
      396     2125              RDASC#="%CONCAT(%DP_SEEK512,%RTN_DP_SEEK,%DP_RDASC,'04'O,%CC_UR,'00'O)",
      397     2126              WRASC#="%CONCAT(%DP_SEEK512,%RTN_DP_SEEK,%DP_WRASC,'04'O,%CC_UR,'00'O)",
PL6.E3A0      #001=NI_DVTS_D File=NI_DVTS_D.:E05TSI                              WED 07/30/97 03:42 Page:33
      398     2127              WRCMP#="%CONCAT(%DP_SEEK512,%RTN_DP_SEEK,%DP_WRCMP,'02'O,%CC_UR,'00'O)",
      399     2128              UNLOAD#="%CONCAT(%DP_UNLOAD,%RTN_BADFC_IOERR,'00'O,'02'O,%CC_NOBUF,'00'O)",
      400     2129              WRZERO#="%CONCAT(%DP_SEEK512,%RTN_DP_WRZERO,%DP_WRBIN,'02'O,%CC_UR,'00'O)",
      401     2130              RESTORE#="%CONCAT(%DP_RESTORE,%RTN_STD,'00'O,'02'O,%CC_NOBUF,'00'O)",
      402     2131              EXTST#="%CONCAT(%DP_EXTST,%RTN_BADFC_IOERR,'00'O,'02'O,%CC_UR,'00'O)",
      403     2132              MODEL#="'MSU3381','MSU3383'",
      404     2133              FEATURE#='       ');
              2134    1   DCL 1 NI_DPDVT5 CONSTANT SYMDEF ALIGNED,
              2135    1         2 SCHED EPTR INIT(ENTADDR(NID$REQSCHED)),
              2136    1         2 POSTER EPTR INIT(ENTADDR(NID$POSTER)),
              2137    1         2 DVSCH EPTR INIT(ENTADDR(NID$DEVSCHED)),
              2138    1         2 MODEL(0:9) CHAR(8) ALIGNED INIT('MSU3381','MSU3383',' '*0),
              2139    1         2 FEATURE(0:9) CHAR(8) ALIGNED INIT(' ','       ',' '*0),
              2140    1         2 TYPE UBIN(9) UNAL INIT(6),
              2141    1         2 NT@DCYLS UBIN(9) UNAL INIT(1),
              2142    1         2 SPT UBIN(9) UNAL INIT(17),
              2143    1         2 GRANSIZE UBIN(9) UNAL INIT(2),
              2144    1         2 PACKSIZE UBIN(36) UNAL INIT(225675),
              2145    1         2 CYLSIZE UBIN(18) UNAL INIT(255),
              2146    1         2 T@DCYL UBIN(18) UNAL INIT(1771),
              2147    1         2 SECSIZE UBIN(18) UNAL INIT(512),
              2148    1         2 ATTR BIT(18) UNAL INIT('001000'O),
              2149    1         2 MPC ALIGNED,
              2150    1           3 FWNAME CHAR(4) INIT(' '),
              2151    1           3 LPNAME CHAR(4) INIT(' '),
              2152    1           3 CRPNAME CHAR(4) INIT(' '),
              2153    1         2 LP REDEF MPC ALIGNED,
              2154    1           3 CHAIN CHAR(4),
              2155    1           3 *(0:1) UBIN,
              2156    1         2 IDCW ALIGNED,
              2157    1           3 DCWLIST BIT(36) INIT('0003'O),
              2158    1           3 RQSTAT BIT(36) INIT('000200020200'O),
              2159    1           3 RDBIN BIT(36) INIT('302325040000'O),
              2160    1           3 WRBIN BIT(36) INIT('302331040000'O),
              2161    1           3 RDASC BIT(36) INIT('302323040000'O),
              2162    1           3 WRASC BIT(36) INIT('302332040000'O),
              2163    1           3 REWIND BIT(36) INIT('0'B),
PL6.E3A0      #001=NI_DVTS_D File=NI_DVTS_D.:E05TSI                              WED 07/30/97 03:42 Page:34
              2164    1           3 WRCMP BIT(36) INIT('302333020000'O),
              2165    1           3 UNLOAD BIT(36) INIT('720100020200'O),
              2166    1           3 ALARM BIT(36) INIT('0'B),
              2167    1           3 WRFM BIT(36) INIT('0'B),
              2168    1           3 WRZERO BIT(36) INIT('302431020000'O),
              2169    1           3 READ BIT(36) INIT('0'B),
              2170    1           3 WRITE BIT(36) INIT('0'B),
              2171    1           3 SPREC BIT(36) INIT('0'B),
              2172    1           3 SPFILE BIT(36) INIT('0'B),
              2173    1           3 PERMIT BIT(36) INIT('0'B),
              2174    1           3 PROTECT BIT(36) INIT('0'B),
              2175    1           3 RESET BIT(36) INIT('0'B),
              2176    1           3 SD800 BIT(36) INIT('0'B),
              2177    1           3 SD1600 BIT(36) INIT('0'B),
              2178    1           3 SD6250 BIT(36) INIT('0'B),
              2179    1           3 LDCHAIN BIT(36) INIT('0'B),
              2180    1           3 LDTAPE BIT(36) INIT('0'B),
              2181    1           3 RESTORE BIT(36) INIT('420200020200'O),
              2182    1           3 LDVFC BIT(36) INIT('0'B),
              2183    1           3 SYMB BIT(36) INIT('0'B),
              2184    1           3 EXTST BIT(36) INIT('220100020000'O),
              2185    1           3 ERACE BIT(36) INIT('0'B);
      405     2187        %DVT (NAME=NI_DPDVT6,SCHED#=NID$REQSCHED,POSTER#=NID$POSTER,DVSCH#=NID$DEVSCHED,
      406     2188              TYPE#=%DV_DP,ATTR#=%ATTR_DD1500#,
      407     2189              T@DCYL#=2658,NT@DCYLS#=1,
      408     2190              GS#=2,SS#=512,CS#=255,PS#=338512,SPT#=17,
      409     2191              RQSTAT#="%CONCAT(%DP_RQSTAT,%RTN_STD,'00'O,'02'O,%CC_NOBUF,'00'O)",
      410     2192              RDBIN#="%CONCAT(%DP_SEEK512,%RTN_DP_SEEK,%DP_RDBIN,'04'O,%CC_UR,'00'O)",
      411     2193              WRBIN#="%CONCAT(%DP_SEEK512,%RTN_DP_SEEK,%DP_WRBIN,'04'O,%CC_UR,'00'O)",
      412     2194              RDASC#="%CONCAT(%DP_SEEK512,%RTN_DP_SEEK,%DP_RDASC,'04'O,%CC_UR,'00'O)",
      413     2195              WRASC#="%CONCAT(%DP_SEEK512,%RTN_DP_SEEK,%DP_WRASC,'04'O,%CC_UR,'00'O)",
      414     2196              WRCMP#="%CONCAT(%DP_SEEK512,%RTN_DP_SEEK,%DP_WRCMP,'02'O,%CC_UR,'00'O)",
      415     2197              UNLOAD#="%CONCAT(%DP_UNLOAD,%RTN_BADFC_IOERR,'00'O,'02'O,%CC_NOBUF,'00'O)",
      416     2198              WRZERO#="%CONCAT(%DP_SEEK512,%RTN_DP_WRZERO,%DP_WRBIN,'02'O,%CC_UR,'00'O)",
      417     2199              RESTORE#="%CONCAT(%DP_RESTORE,%RTN_STD,'00'O,'02'O,%CC_NOBUF,'00'O)",
      418     2200              EXTST#="%CONCAT(%DP_EXTST,%RTN_BADFC_IOERR,'00'O,'02'O,%CC_UR,'00'O)",
      419     2201              MODEL#="'MSU3391','MSU3393'",
PL6.E3A0      #001=NI_DVTS_D File=NI_DVTS_D.:E05TSI                              WED 07/30/97 03:42 Page:35
      420     2202              FEATURE#='       ');
              2203    1   DCL 1 NI_DPDVT6 CONSTANT SYMDEF ALIGNED,
              2204    1         2 SCHED EPTR INIT(ENTADDR(NID$REQSCHED)),
              2205    1         2 POSTER EPTR INIT(ENTADDR(NID$POSTER)),
              2206    1         2 DVSCH EPTR INIT(ENTADDR(NID$DEVSCHED)),
              2207    1         2 MODEL(0:9) CHAR(8) ALIGNED INIT('MSU3391','MSU3393',' '*0),
              2208    1         2 FEATURE(0:9) CHAR(8) ALIGNED INIT(' ','       ',' '*0),
              2209    1         2 TYPE UBIN(9) UNAL INIT(6),
              2210    1         2 NT@DCYLS UBIN(9) UNAL INIT(1),
              2211    1         2 SPT UBIN(9) UNAL INIT(17),
              2212    1         2 GRANSIZE UBIN(9) UNAL INIT(2),
              2213    1         2 PACKSIZE UBIN(36) UNAL INIT(338512),
              2214    1         2 CYLSIZE UBIN(18) UNAL INIT(255),
              2215    1         2 T@DCYL UBIN(18) UNAL INIT(2658),
              2216    1         2 SECSIZE UBIN(18) UNAL INIT(512),
              2217    1         2 ATTR BIT(18) UNAL INIT('020000'O),
              2218    1         2 MPC ALIGNED,
              2219    1           3 FWNAME CHAR(4) INIT(' '),
              2220    1           3 LPNAME CHAR(4) INIT(' '),
              2221    1           3 CRPNAME CHAR(4) INIT(' '),
              2222    1         2 LP REDEF MPC ALIGNED,
              2223    1           3 CHAIN CHAR(4),
              2224    1           3 *(0:1) UBIN,
              2225    1         2 IDCW ALIGNED,
              2226    1           3 DCWLIST BIT(36) INIT('0003'O),
              2227    1           3 RQSTAT BIT(36) INIT('000200020200'O),
              2228    1           3 RDBIN BIT(36) INIT('302325040000'O),
              2229    1           3 WRBIN BIT(36) INIT('302331040000'O),
              2230    1           3 RDASC BIT(36) INIT('302323040000'O),
              2231    1           3 WRASC BIT(36) INIT('302332040000'O),
              2232    1           3 REWIND BIT(36) INIT('0'B),
              2233    1           3 WRCMP BIT(36) INIT('302333020000'O),
              2234    1           3 UNLOAD BIT(36) INIT('720100020200'O),
              2235    1           3 ALARM BIT(36) INIT('0'B),
              2236    1           3 WRFM BIT(36) INIT('0'B),
              2237    1           3 WRZERO BIT(36) INIT('302431020000'O),
              2238    1           3 READ BIT(36) INIT('0'B),
PL6.E3A0      #001=NI_DVTS_D File=NI_DVTS_D.:E05TSI                              WED 07/30/97 03:42 Page:36
              2239    1           3 WRITE BIT(36) INIT('0'B),
              2240    1           3 SPREC BIT(36) INIT('0'B),
              2241    1           3 SPFILE BIT(36) INIT('0'B),
              2242    1           3 PERMIT BIT(36) INIT('0'B),
              2243    1           3 PROTECT BIT(36) INIT('0'B),
              2244    1           3 RESET BIT(36) INIT('0'B),
              2245    1           3 SD800 BIT(36) INIT('0'B),
              2246    1           3 SD1600 BIT(36) INIT('0'B),
              2247    1           3 SD6250 BIT(36) INIT('0'B),
              2248    1           3 LDCHAIN BIT(36) INIT('0'B),
              2249    1           3 LDTAPE BIT(36) INIT('0'B),
              2250    1           3 RESTORE BIT(36) INIT('420200020200'O),
              2251    1           3 LDVFC BIT(36) INIT('0'B),
              2252    1           3 SYMB BIT(36) INIT('0'B),
              2253    1           3 EXTST BIT(36) INIT('220100020000'O),
              2254    1           3 ERACE BIT(36) INIT('0'B);
      421     2256        %DVT (NAME=NI_DPDVT7,SCHED#=NID$REQSCHED,POSTER#=NID$POSTER,DVSCH#=NID$DEVSCHED,
      422     2257              TYPE#=%DV_DP,ATTR#=%ATTR_DD400#,
      423     2258              T@DCYL#=708,NT@DCYLS#=1,
      424     2259              GS#=2,SS#=512,CS#=264,PS#=92796,SPT#=11,
      425     2260              RQSTAT#="%CONCAT(%DP_RQSTAT,%RTN_STD,'00'O,'07'O,%CC_NOBUF,'00'O)",
      426     2261              RDBIN#="%CONCAT(%DP_SEEK512,%RTN_DP_SEEK,%DP_RDBIN,'07'O,%CC_UR,'00'O)",
      427     2262              WRBIN#="%CONCAT(%DP_SEEK512,%RTN_DP_SEEK,%DP_WRBIN,'07'O,%CC_UR,'00'O)",
      428     2263              RDASC#="%CONCAT(%DP_SEEK512,%RTN_DP_SEEK,%DP_RDASC,'07'O,%CC_UR,'00'O)",
      429     2264              WRASC#="%CONCAT(%DP_SEEK512,%RTN_DP_SEEK,%DP_WRASC,'07'O,%CC_UR,'00'O)",
      430     2265              WRCMP#="%CONCAT(%DP_SEEK512,%RTN_DP_SEEK,%DP_WRCMP,'07'O,%CC_UR,'00'O)",
      431     2266              UNLOAD#="%CONCAT(%DP_UNLOAD,%RTN_BADFC_IOERR,'00'O,'07'O,%CC_NOBUF,'00'O)",
      432     2267              WRZERO#="%CONCAT(%DP_SEEK512,%RTN_DP_WRZERO,%DP_WRBIN,'07'O,%CC_UR,'00'O)",
      433     2268              RESTORE#="%CONCAT(%DP_RESTORE,%RTN_STD,'00'O,'07'O,%CC_NOBUF,'00'O)",
      434     2269              EXTST#="%CONCAT(%DP_EXTST,%RTN_BADFC_IOERR,'00'O,'07'O,%CC_UR,'00'O)",
      435     2270              MODEL#="'MSU8082'",
      436     2271              FEATURE#="'MSS8080','MSF8080'");
              2272    1   DCL 1 NI_DPDVT7 CONSTANT SYMDEF ALIGNED,
              2273    1         2 SCHED EPTR INIT(ENTADDR(NID$REQSCHED)),
              2274    1         2 POSTER EPTR INIT(ENTADDR(NID$POSTER)),
              2275    1         2 DVSCH EPTR INIT(ENTADDR(NID$DEVSCHED)),
              2276    1         2 MODEL(0:9) CHAR(8) ALIGNED INIT('MSU8082',' '*0),
PL6.E3A0      #001=NI_DVTS_D File=NI_DVTS_D.:E05TSI                              WED 07/30/97 03:42 Page:37
              2277    1         2 FEATURE(0:9) CHAR(8) ALIGNED INIT(' ','MSS8080','MSF8080',' '*0),
              2278    1         2 TYPE UBIN(9) UNAL INIT(6),
              2279    1         2 NT@DCYLS UBIN(9) UNAL INIT(1),
              2280    1         2 SPT UBIN(9) UNAL INIT(11),
              2281    1         2 GRANSIZE UBIN(9) UNAL INIT(2),
              2282    1         2 PACKSIZE UBIN(36) UNAL INIT(92796),
              2283    1         2 CYLSIZE UBIN(18) UNAL INIT(264),
              2284    1         2 T@DCYL UBIN(18) UNAL INIT(708),
              2285    1         2 SECSIZE UBIN(18) UNAL INIT(512),
              2286    1         2 ATTR BIT(18) UNAL INIT('004000'O),
              2287    1         2 MPC ALIGNED,
              2288    1           3 FWNAME CHAR(4) INIT(' '),
              2289    1           3 LPNAME CHAR(4) INIT(' '),
              2290    1           3 CRPNAME CHAR(4) INIT(' '),
              2291    1         2 LP REDEF MPC ALIGNED,
              2292    1           3 CHAIN CHAR(4),
              2293    1           3 *(0:1) UBIN,
              2294    1         2 IDCW ALIGNED,
              2295    1           3 DCWLIST BIT(36) INIT('0003'O),
              2296    1           3 RQSTAT BIT(36) INIT('000200070200'O),
              2297    1           3 RDBIN BIT(36) INIT('302325070000'O),
              2298    1           3 WRBIN BIT(36) INIT('302331070000'O),
              2299    1           3 RDASC BIT(36) INIT('302323070000'O),
              2300    1           3 WRASC BIT(36) INIT('302332070000'O),
              2301    1           3 REWIND BIT(36) INIT('0'B),
              2302    1           3 WRCMP BIT(36) INIT('302333070000'O),
              2303    1           3 UNLOAD BIT(36) INIT('720100070200'O),
              2304    1           3 ALARM BIT(36) INIT('0'B),
              2305    1           3 WRFM BIT(36) INIT('0'B),
              2306    1           3 WRZERO BIT(36) INIT('302431070000'O),
              2307    1           3 READ BIT(36) INIT('0'B),
              2308    1           3 WRITE BIT(36) INIT('0'B),
              2309    1           3 SPREC BIT(36) INIT('0'B),
              2310    1           3 SPFILE BIT(36) INIT('0'B),
              2311    1           3 PERMIT BIT(36) INIT('0'B),
              2312    1           3 PROTECT BIT(36) INIT('0'B),
              2313    1           3 RESET BIT(36) INIT('0'B),
PL6.E3A0      #001=NI_DVTS_D File=NI_DVTS_D.:E05TSI                              WED 07/30/97 03:42 Page:38
              2314    1           3 SD800 BIT(36) INIT('0'B),
              2315    1           3 SD1600 BIT(36) INIT('0'B),
              2316    1           3 SD6250 BIT(36) INIT('0'B),
              2317    1           3 LDCHAIN BIT(36) INIT('0'B),
              2318    1           3 LDTAPE BIT(36) INIT('0'B),
              2319    1           3 RESTORE BIT(36) INIT('420200070200'O),
              2320    1           3 LDVFC BIT(36) INIT('0'B),
              2321    1           3 SYMB BIT(36) INIT('0'B),
              2322    1           3 EXTST BIT(36) INIT('220100070000'O),
              2323    1           3 ERACE BIT(36) INIT('0'B);
      437     2325        %DVT (NAME=NI_DPDVT8,SCHED#=NID$REQSCHED,POSTER#=NID$POSTER,DVSCH#=NID$DEVSCHED,
      438     2326              TYPE#=%DV_DP,ATTR#=%ATTR_DD1100#,
      439     2327              T@DCYL#=1632,NT@DCYLS#=1,
      440     2328              GS#=2,SS#=512,CS#=285,PS#=231847,SPT#=19,
      441     2329              RQSTAT#="%CONCAT(%DP_RQSTAT,%RTN_STD,'00'O,'07'O,%CC_NOBUF,'00'O)",
      442     2330              RDBIN#="%CONCAT(%DP_SEEK512,%RTN_DP_SEEK,%DP_RDBIN,'07'O,%CC_UR,'00'O)",
      443     2331              WRBIN#="%CONCAT(%DP_SEEK512,%RTN_DP_SEEK,%DP_WRBIN,'07'O,%CC_UR,'00'O)",
      444     2332              RDASC#="%CONCAT(%DP_SEEK512,%RTN_DP_SEEK,%DP_RDASC,'07'O,%CC_UR,'00'O)",
      445     2333              WRASC#="%CONCAT(%DP_SEEK512,%RTN_DP_SEEK,%DP_WRASC,'07'O,%CC_UR,'00'O)",
      446     2334              WRCMP#="%CONCAT(%DP_SEEK512,%RTN_DP_SEEK,%DP_WRCMP,'07'O,%CC_UR,'00'O)",
      447     2335              UNLOAD#="%CONCAT(%DP_UNLOAD,%RTN_BADFC_IOERR,'00'O,'07'O,%CC_NOBUF,'00'O)",
      448     2336              WRZERO#="%CONCAT(%DP_SEEK512,%RTN_DP_WRZERO,%DP_WRBIN,'07'O,%CC_UR,'00'O)",
      449     2337              RESTORE#="%CONCAT(%DP_RESTORE,%RTN_STD,'00'O,'07'O,%CC_NOBUF,'00'O)",
      450     2338              EXTST#="%CONCAT(%DP_EXTST,%RTN_BADFC_IOERR,'00'O,'07'O,%CC_UR,'00'O)",
      451     2339              MODEL#="'MSU8092'",
      452     2340              FEATURE#="'MSS8090','MSF8090'");
              2341    1   DCL 1 NI_DPDVT8 CONSTANT SYMDEF ALIGNED,
              2342    1         2 SCHED EPTR INIT(ENTADDR(NID$REQSCHED)),
              2343    1         2 POSTER EPTR INIT(ENTADDR(NID$POSTER)),
              2344    1         2 DVSCH EPTR INIT(ENTADDR(NID$DEVSCHED)),
              2345    1         2 MODEL(0:9) CHAR(8) ALIGNED INIT('MSU8092',' '*0),
              2346    1         2 FEATURE(0:9) CHAR(8) ALIGNED INIT(' ','MSS8090','MSF8090',' '*0),
              2347    1         2 TYPE UBIN(9) UNAL INIT(6),
              2348    1         2 NT@DCYLS UBIN(9) UNAL INIT(1),
              2349    1         2 SPT UBIN(9) UNAL INIT(19),
              2350    1         2 GRANSIZE UBIN(9) UNAL INIT(2),
              2351    1         2 PACKSIZE UBIN(36) UNAL INIT(231847),
PL6.E3A0      #001=NI_DVTS_D File=NI_DVTS_D.:E05TSI                              WED 07/30/97 03:42 Page:39
              2352    1         2 CYLSIZE UBIN(18) UNAL INIT(285),
              2353    1         2 T@DCYL UBIN(18) UNAL INIT(1632),
              2354    1         2 SECSIZE UBIN(18) UNAL INIT(512),
              2355    1         2 ATTR BIT(18) UNAL INIT('100000'O),
              2356    1         2 MPC ALIGNED,
              2357    1           3 FWNAME CHAR(4) INIT(' '),
              2358    1           3 LPNAME CHAR(4) INIT(' '),
              2359    1           3 CRPNAME CHAR(4) INIT(' '),
              2360    1         2 LP REDEF MPC ALIGNED,
              2361    1           3 CHAIN CHAR(4),
              2362    1           3 *(0:1) UBIN,
              2363    1         2 IDCW ALIGNED,
              2364    1           3 DCWLIST BIT(36) INIT('0003'O),
              2365    1           3 RQSTAT BIT(36) INIT('000200070200'O),
              2366    1           3 RDBIN BIT(36) INIT('302325070000'O),
              2367    1           3 WRBIN BIT(36) INIT('302331070000'O),
              2368    1           3 RDASC BIT(36) INIT('302323070000'O),
              2369    1           3 WRASC BIT(36) INIT('302332070000'O),
              2370    1           3 REWIND BIT(36) INIT('0'B),
              2371    1           3 WRCMP BIT(36) INIT('302333070000'O),
              2372    1           3 UNLOAD BIT(36) INIT('720100070200'O),
              2373    1           3 ALARM BIT(36) INIT('0'B),
              2374    1           3 WRFM BIT(36) INIT('0'B),
              2375    1           3 WRZERO BIT(36) INIT('302431070000'O),
              2376    1           3 READ BIT(36) INIT('0'B),
              2377    1           3 WRITE BIT(36) INIT('0'B),
              2378    1           3 SPREC BIT(36) INIT('0'B),
              2379    1           3 SPFILE BIT(36) INIT('0'B),
              2380    1           3 PERMIT BIT(36) INIT('0'B),
              2381    1           3 PROTECT BIT(36) INIT('0'B),
              2382    1           3 RESET BIT(36) INIT('0'B),
              2383    1           3 SD800 BIT(36) INIT('0'B),
              2384    1           3 SD1600 BIT(36) INIT('0'B),
              2385    1           3 SD6250 BIT(36) INIT('0'B),
              2386    1           3 LDCHAIN BIT(36) INIT('0'B),
              2387    1           3 LDTAPE BIT(36) INIT('0'B),
              2388    1           3 RESTORE BIT(36) INIT('420200070200'O),
PL6.E3A0      #001=NI_DVTS_D File=NI_DVTS_D.:E05TSI                              WED 07/30/97 03:42 Page:40
              2389    1           3 LDVFC BIT(36) INIT('0'B),
              2390    1           3 SYMB BIT(36) INIT('0'B),
              2391    1           3 EXTST BIT(36) INIT('220100070000'O),
              2392    1           3 ERACE BIT(36) INIT('0'B);
      453     2394        /**/
      454     2395        /* MPC DVT */
      455     2396        /**/
      456     2397        %DVT (NAME=NI_DCDVT,SCHED#=NIW$REQSCHED,POSTER#=NIW$POSTER,DVSCH#=NIW$DEVSCHED,
      457     2398              TYPE#=%DV_MPC,
      458     2399              RQSTAT#="%CONCAT(%MPC_RQSTAT,%RTN_STD,'00'O,'02'O,%CC_NOBUF,'00'O)",
      459     2400             RDBIN#=
              2400                 "%CONCAT(%MPC_READ_BIN,%RTN_MPC_READ,%MPC_INIT_READ,'02'O,%CC_MPC,'00'O)",
      460     2401             WRBIN#=
              2401                "%CONCAT(%MPC_WRITE_BIN,%RTN_MPC_WRITE,%MPC_INIT_WRITE,'02'O,%CC_MPC,'00'O)"
              2401                 ,
      461     2402             RDASC#=
              2402                 "%CONCAT(%MPC_READ_ASC,%RTN_MPC_READ,%MPC_INIT_READ,'02'O,%CC_MPC,'00'O)",
      462     2403             WRASC#=
              2403                "%CONCAT(%MPC_WRITE_ASC,%RTN_MPC_WRITE,%MPC_INIT_WRITE,'02'O,%CC_MPC,'00'O)"
              2403                 ,
      463     2404              RESET#="%CONCAT(%MPC_RESET,%RTN_STD,'00'O,'02'O,%CC_NOBUF,'00'O)",
      464     2405              MODEL#="'MSP0191','MSP0450'",FWNAME#='M191');
              2406    1   DCL 1 NI_DCDVT CONSTANT SYMDEF ALIGNED,
              2407    1         2 SCHED EPTR INIT(ENTADDR(NIW$REQSCHED)),
              2408    1         2 POSTER EPTR INIT(ENTADDR(NIW$POSTER)),
              2409    1         2 DVSCH EPTR INIT(ENTADDR(NIW$DEVSCHED)),
              2410    1         2 MODEL(0:9) CHAR(8) ALIGNED INIT('MSP0191','MSP0450',' '*0),
              2411    1         2 FEATURE(0:9) CHAR(8) ALIGNED INIT(' ',' ',' '*0),
              2412    1         2 TYPE UBIN(9) UNAL INIT(7),
              2413    1         2 NT@DCYLS UBIN(9) UNAL INIT(0),
              2414    1         2 SPT UBIN(9) UNAL INIT(0),
              2415    1         2 GRANSIZE UBIN(9) UNAL INIT(0),
              2416    1         2 PACKSIZE UBIN(36) UNAL INIT(0),
              2417    1         2 CYLSIZE UBIN(18) UNAL INIT(0),
              2418    1         2 T@DCYL UBIN(18) UNAL INIT(0),
              2419    1         2 SECSIZE UBIN(18) UNAL INIT(0),
              2420    1         2 ATTR BIT(18) UNAL INIT('0'B),
PL6.E3A0      #001=NI_DVTS_D File=NI_DVTS_D.:E05TSI                              WED 07/30/97 03:42 Page:41
              2421    1         2 MPC ALIGNED,
              2422    1           3 FWNAME CHAR(4) INIT('M191'),
              2423    1           3 LPNAME CHAR(4) INIT(' '),
              2424    1           3 CRPNAME CHAR(4) INIT(' '),
              2425    1         2 LP REDEF MPC ALIGNED,
              2426    1           3 CHAIN CHAR(4),
              2427    1           3 *(0:1) UBIN,
              2428    1         2 IDCW ALIGNED,
              2429    1           3 DCWLIST BIT(36) INIT('0003'O),
              2430    1           3 RQSTAT BIT(36) INIT('000200020200'O),
              2431    1           3 RDBIN BIT(36) INIT('222506024000'O),
              2432    1           3 WRBIN BIT(36) INIT('322616024000'O),
              2433    1           3 RDASC BIT(36) INIT('022506024000'O),
              2434    1           3 WRASC BIT(36) INIT('122616024000'O),
              2435    1           3 REWIND BIT(36) INIT('0'B),
              2436    1           3 WRCMP BIT(36) INIT('0'B),
              2437    1           3 UNLOAD BIT(36) INIT('0'B),
              2438    1           3 ALARM BIT(36) INIT('0'B),
              2439    1           3 WRFM BIT(36) INIT('0'B),
              2440    1           3 WRZERO BIT(36) INIT('0'B),
              2441    1           3 READ BIT(36) INIT('0'B),
              2442    1           3 WRITE BIT(36) INIT('0'B),
              2443    1           3 SPREC BIT(36) INIT('0'B),
              2444    1           3 SPFILE BIT(36) INIT('0'B),
              2445    1           3 PERMIT BIT(36) INIT('0'B),
              2446    1           3 PROTECT BIT(36) INIT('0'B),
              2447    1           3 RESET BIT(36) INIT('400200020200'O),
              2448    1           3 SD800 BIT(36) INIT('0'B),
              2449    1           3 SD1600 BIT(36) INIT('0'B),
              2450    1           3 SD6250 BIT(36) INIT('0'B),
              2451    1           3 LDCHAIN BIT(36) INIT('0'B),
              2452    1           3 LDTAPE BIT(36) INIT('0'B),
              2453    1           3 RESTORE BIT(36) INIT('0'B),
              2454    1           3 LDVFC BIT(36) INIT('0'B),
              2455    1           3 SYMB BIT(36) INIT('0'B),
              2456    1           3 EXTST BIT(36) INIT('0'B),
              2457    1           3 ERACE BIT(36) INIT('0'B);
PL6.E3A0      #001=NI_DVTS_D File=NI_DVTS_D.:E05TSI                              WED 07/30/97 03:42 Page:42
      465     2459        /**/
      466     2460        %DVT (NAME=NI_DCDVT1,SCHED#=NIW$REQSCHED,POSTER#=NIW$POSTER,DVSCH#=NIW$DEVSCHED,
      467     2461              TYPE#=%DV_MPC,
      468     2462              RQSTAT#="%CONCAT(%MPC_RQSTAT,%RTN_STD,'00'O,'02'O,%CC_NOBUF,'00'O)",
      469     2463             RDBIN#=
              2463                 "%CONCAT(%MPC_READ_BIN,%RTN_MPC_READ,%MPC_INIT_READ,'02'O,%CC_MPC,'00'O)",
      470     2464             WRBIN#=
              2464                "%CONCAT(%MPC_WRITE_BIN,%RTN_MPC_WRITE,%MPC_INIT_WRITE,'02'O,%CC_MPC,'00'O)"
              2464                 ,
      471     2465             RDASC#=
              2465                 "%CONCAT(%MPC_READ_ASC,%RTN_MPC_READ,%MPC_INIT_READ,'02'O,%CC_MPC,'00'O)",
      472     2466             WRASC#=
              2466                "%CONCAT(%MPC_WRITE_ASC,%RTN_MPC_WRITE,%MPC_INIT_WRITE,'02'O,%CC_MPC,'00'O)"
              2466                 ,
      473     2467              RESET#="%CONCAT(%MPC_RESET,%RTN_STD,'00'O,'02'O,%CC_NOBUF,'00'O)",
      474     2468              MODEL#="'MSP0600','MSP0611','MSP0612','MSP8000','MSP8001'",
      475     2469              FWNAME#='D500');
              2470    1   DCL 1 NI_DCDVT1 CONSTANT SYMDEF ALIGNED,
              2471    1         2 SCHED EPTR INIT(ENTADDR(NIW$REQSCHED)),
              2472    1         2 POSTER EPTR INIT(ENTADDR(NIW$POSTER)),
              2473    1         2 DVSCH EPTR INIT(ENTADDR(NIW$DEVSCHED)),
              2474    1         2 MODEL(0:9) CHAR(8) ALIGNED INIT('MSP0600','MSP0611','MSP0612','MSP8000',
              2474                  'MSP8001',' '*0),
              2475    1         2 FEATURE(0:9) CHAR(8) ALIGNED INIT(' ',' ',' '*0),
              2476    1         2 TYPE UBIN(9) UNAL INIT(7),
              2477    1         2 NT@DCYLS UBIN(9) UNAL INIT(0),
              2478    1         2 SPT UBIN(9) UNAL INIT(0),
              2479    1         2 GRANSIZE UBIN(9) UNAL INIT(0),
              2480    1         2 PACKSIZE UBIN(36) UNAL INIT(0),
              2481    1         2 CYLSIZE UBIN(18) UNAL INIT(0),
              2482    1         2 T@DCYL UBIN(18) UNAL INIT(0),
              2483    1         2 SECSIZE UBIN(18) UNAL INIT(0),
              2484    1         2 ATTR BIT(18) UNAL INIT('0'B),
              2485    1         2 MPC ALIGNED,
              2486    1           3 FWNAME CHAR(4) INIT('D500'),
              2487    1           3 LPNAME CHAR(4) INIT(' '),
              2488    1           3 CRPNAME CHAR(4) INIT(' '),
PL6.E3A0      #001=NI_DVTS_D File=NI_DVTS_D.:E05TSI                              WED 07/30/97 03:42 Page:43
              2489    1         2 LP REDEF MPC ALIGNED,
              2490    1           3 CHAIN CHAR(4),
              2491    1           3 *(0:1) UBIN,
              2492    1         2 IDCW ALIGNED,
              2493    1           3 DCWLIST BIT(36) INIT('0003'O),
              2494    1           3 RQSTAT BIT(36) INIT('000200020200'O),
              2495    1           3 RDBIN BIT(36) INIT('222506024000'O),
              2496    1           3 WRBIN BIT(36) INIT('322616024000'O),
              2497    1           3 RDASC BIT(36) INIT('022506024000'O),
              2498    1           3 WRASC BIT(36) INIT('122616024000'O),
              2499    1           3 REWIND BIT(36) INIT('0'B),
              2500    1           3 WRCMP BIT(36) INIT('0'B),
              2501    1           3 UNLOAD BIT(36) INIT('0'B),
              2502    1           3 ALARM BIT(36) INIT('0'B),
              2503    1           3 WRFM BIT(36) INIT('0'B),
              2504    1           3 WRZERO BIT(36) INIT('0'B),
              2505    1           3 READ BIT(36) INIT('0'B),
              2506    1           3 WRITE BIT(36) INIT('0'B),
              2507    1           3 SPREC BIT(36) INIT('0'B),
              2508    1           3 SPFILE BIT(36) INIT('0'B),
              2509    1           3 PERMIT BIT(36) INIT('0'B),
              2510    1           3 PROTECT BIT(36) INIT('0'B),
              2511    1           3 RESET BIT(36) INIT('400200020200'O),
              2512    1           3 SD800 BIT(36) INIT('0'B),
              2513    1           3 SD1600 BIT(36) INIT('0'B),
              2514    1           3 SD6250 BIT(36) INIT('0'B),
              2515    1           3 LDCHAIN BIT(36) INIT('0'B),
              2516    1           3 LDTAPE BIT(36) INIT('0'B),
              2517    1           3 RESTORE BIT(36) INIT('0'B),
              2518    1           3 LDVFC BIT(36) INIT('0'B),
              2519    1           3 SYMB BIT(36) INIT('0'B),
              2520    1           3 EXTST BIT(36) INIT('0'B),
              2521    1           3 ERACE BIT(36) INIT('0'B);
      476     2523        /**/
      477     2524        %DVT (NAME=NI_DCDVT2,SCHED#=NIW$REQSCHED,POSTER#=NIW$POSTER,DVSCH#=NIW$DEVSCHED,
      478     2525              TYPE#=%DV_MPC,
      479     2526              RQSTAT#="%CONCAT(%MPC_RQSTAT,%RTN_STD,'00'O,'02'O,%CC_NOBUF,'00'O)",
PL6.E3A0      #001=NI_DVTS_D File=NI_DVTS_D.:E05TSI                              WED 07/30/97 03:42 Page:44
      480     2527             RDBIN#=
              2527                 "%CONCAT(%MPC_READ_BIN,%RTN_MPC_READ,%MPC_INIT_READ,'02'O,%CC_MPC,'00'O)",
      481     2528             WRBIN#=
              2528                "%CONCAT(%MPC_WRITE_BIN,%RTN_MPC_WRITE,%MPC_INIT_WRITE,'02'O,%CC_MPC,'00'O)"
              2528                 ,
      482     2529             RDASC#=
              2529                 "%CONCAT(%MPC_READ_ASC,%RTN_MPC_READ,%MPC_INIT_READ,'02'O,%CC_MPC,'00'O)",
      483     2530             WRASC#=
              2530                "%CONCAT(%MPC_WRITE_ASC,%RTN_MPC_WRITE,%MPC_INIT_WRITE,'02'O,%CC_MPC,'00'O)"
              2530                 ,
      484     2531              RESET#="%CONCAT(%MPC_RESET,%RTN_STD,'00'O,'02'O,%CC_NOBUF,'00'O)",
      485     2532              MODEL#="'MSP8021','MSP8022','MSP8023'",
      486     2533              FWNAME#='MSP8');
              2534    1   DCL 1 NI_DCDVT2 CONSTANT SYMDEF ALIGNED,
              2535    1         2 SCHED EPTR INIT(ENTADDR(NIW$REQSCHED)),
              2536    1         2 POSTER EPTR INIT(ENTADDR(NIW$POSTER)),
              2537    1         2 DVSCH EPTR INIT(ENTADDR(NIW$DEVSCHED)),
              2538    1         2 MODEL(0:9) CHAR(8) ALIGNED INIT('MSP8021','MSP8022','MSP8023',' '*0),
              2539    1         2 FEATURE(0:9) CHAR(8) ALIGNED INIT(' ',' ',' '*0),
              2540    1         2 TYPE UBIN(9) UNAL INIT(7),
              2541    1         2 NT@DCYLS UBIN(9) UNAL INIT(0),
              2542    1         2 SPT UBIN(9) UNAL INIT(0),
              2543    1         2 GRANSIZE UBIN(9) UNAL INIT(0),
              2544    1         2 PACKSIZE UBIN(36) UNAL INIT(0),
              2545    1         2 CYLSIZE UBIN(18) UNAL INIT(0),
              2546    1         2 T@DCYL UBIN(18) UNAL INIT(0),
              2547    1         2 SECSIZE UBIN(18) UNAL INIT(0),
              2548    1         2 ATTR BIT(18) UNAL INIT('0'B),
              2549    1         2 MPC ALIGNED,
              2550    1           3 FWNAME CHAR(4) INIT('MSP8'),
              2551    1           3 LPNAME CHAR(4) INIT(' '),
              2552    1           3 CRPNAME CHAR(4) INIT(' '),
              2553    1         2 LP REDEF MPC ALIGNED,
              2554    1           3 CHAIN CHAR(4),
              2555    1           3 *(0:1) UBIN,
              2556    1         2 IDCW ALIGNED,
              2557    1           3 DCWLIST BIT(36) INIT('0003'O),
PL6.E3A0      #001=NI_DVTS_D File=NI_DVTS_D.:E05TSI                              WED 07/30/97 03:42 Page:45
              2558    1           3 RQSTAT BIT(36) INIT('000200020200'O),
              2559    1           3 RDBIN BIT(36) INIT('222506024000'O),
              2560    1           3 WRBIN BIT(36) INIT('322616024000'O),
              2561    1           3 RDASC BIT(36) INIT('022506024000'O),
              2562    1           3 WRASC BIT(36) INIT('122616024000'O),
              2563    1           3 REWIND BIT(36) INIT('0'B),
              2564    1           3 WRCMP BIT(36) INIT('0'B),
              2565    1           3 UNLOAD BIT(36) INIT('0'B),
              2566    1           3 ALARM BIT(36) INIT('0'B),
              2567    1           3 WRFM BIT(36) INIT('0'B),
              2568    1           3 WRZERO BIT(36) INIT('0'B),
              2569    1           3 READ BIT(36) INIT('0'B),
              2570    1           3 WRITE BIT(36) INIT('0'B),
              2571    1           3 SPREC BIT(36) INIT('0'B),
              2572    1           3 SPFILE BIT(36) INIT('0'B),
              2573    1           3 PERMIT BIT(36) INIT('0'B),
              2574    1           3 PROTECT BIT(36) INIT('0'B),
              2575    1           3 RESET BIT(36) INIT('400200020200'O),
              2576    1           3 SD800 BIT(36) INIT('0'B),
              2577    1           3 SD1600 BIT(36) INIT('0'B),
              2578    1           3 SD6250 BIT(36) INIT('0'B),
              2579    1           3 LDCHAIN BIT(36) INIT('0'B),
              2580    1           3 LDTAPE BIT(36) INIT('0'B),
              2581    1           3 RESTORE BIT(36) INIT('0'B),
              2582    1           3 LDVFC BIT(36) INIT('0'B),
              2583    1           3 SYMB BIT(36) INIT('0'B),
              2584    1           3 EXTST BIT(36) INIT('0'B),
              2585    1           3 ERACE BIT(36) INIT('0'B);
      487     2587        /**/
      488     2588        %DVT (NAME=NI_DCDVT3,SCHED#=NIW$REQSCHED,POSTER#=NIW$POSTER,DVSCH#=NIW$DEVSCHED,
      489     2589              TYPE#=%DV_MPC,
      490     2590              RQSTAT#="%CONCAT(%MPC_RQSTAT,%RTN_STD,'00'O,'02'O,%CC_NOBUF,'00'O)",
      491     2591              RDBIN#=
              2591                "%CONCAT(%MPC_READ_BIN,%RTN_BADFC_IOERR,%MPC_INIT_READ,'02'O,%CC_MPC,'00'O)"
              2591                  ,
      492     2592              WRBIN#=
              2592              "%CONCAT(%MPC_WRITE_BIN,%RTN_BADFC_IOERR,%MPC_INIT_WRITE,'02'O,%CC_MPC,'00'O)"
PL6.E3A0      #001=NI_DVTS_D File=NI_DVTS_D.:E05TSI                              WED 07/30/97 03:42 Page:46
              2592                  ,
      493     2593              RDASC#=
              2593                  "%CONCAT(%MPC_READ_ASC,%RTN_MPC_READ,%MPC_INIT_READ,'02'O,%CC_MPC,'00'O)",
      494     2594              WRASC#=
              2594                "%CONCAT(%MPC_WRITE_ASC,%RTN_MPC_WRITE,%MPC_INIT_WRITE,'02'O,%CC_MPC,'00'O)"
              2594                  ,
      495     2595              RESET#="%CONCAT(%MPC_RESET,%RTN_STD,'00'O,'02'O,%CC_NOBUF,'00'O)",
      496     2596              MODEL#=
              2596           "'MSP3881','MSP3885','MSP3882','MSP3886','MSP3991','MSP3993','MSP3992','MSP3994'"
              2596                  ,
      497     2597              FWNAME#='D388');
              2598    1   DCL 1 NI_DCDVT3 CONSTANT SYMDEF ALIGNED,
              2599    1         2 SCHED EPTR INIT(ENTADDR(NIW$REQSCHED)),
              2600    1         2 POSTER EPTR INIT(ENTADDR(NIW$POSTER)),
              2601    1         2 DVSCH EPTR INIT(ENTADDR(NIW$DEVSCHED)),
              2602    1         2 MODEL(0:9) CHAR(8) ALIGNED INIT('MSP3881','MSP3885','MSP3882','MSP3886',
              2602                  'MSP3991','MSP3993','MSP3992','MSP3994',' '*0),
              2603    1         2 FEATURE(0:9) CHAR(8) ALIGNED INIT(' ',' ',' '*0),
              2604    1         2 TYPE UBIN(9) UNAL INIT(7),
              2605    1         2 NT@DCYLS UBIN(9) UNAL INIT(0),
              2606    1         2 SPT UBIN(9) UNAL INIT(0),
              2607    1         2 GRANSIZE UBIN(9) UNAL INIT(0),
              2608    1         2 PACKSIZE UBIN(36) UNAL INIT(0),
              2609    1         2 CYLSIZE UBIN(18) UNAL INIT(0),
              2610    1         2 T@DCYL UBIN(18) UNAL INIT(0),
              2611    1         2 SECSIZE UBIN(18) UNAL INIT(0),
              2612    1         2 ATTR BIT(18) UNAL INIT('0'B),
              2613    1         2 MPC ALIGNED,
              2614    1           3 FWNAME CHAR(4) INIT('D388'),
              2615    1           3 LPNAME CHAR(4) INIT(' '),
              2616    1           3 CRPNAME CHAR(4) INIT(' '),
              2617    1         2 LP REDEF MPC ALIGNED,
              2618    1           3 CHAIN CHAR(4),
              2619    1           3 *(0:1) UBIN,
              2620    1         2 IDCW ALIGNED,
              2621    1           3 DCWLIST BIT(36) INIT('0003'O),
              2622    1           3 RQSTAT BIT(36) INIT('000200020200'O),
PL6.E3A0      #001=NI_DVTS_D File=NI_DVTS_D.:E05TSI                              WED 07/30/97 03:42 Page:47
              2623    1           3 RDBIN BIT(36) INIT('220106024000'O),
              2624    1           3 WRBIN BIT(36) INIT('320116024000'O),
              2625    1           3 RDASC BIT(36) INIT('022506024000'O),
              2626    1           3 WRASC BIT(36) INIT('122616024000'O),
              2627    1           3 REWIND BIT(36) INIT('0'B),
              2628    1           3 WRCMP BIT(36) INIT('0'B),
              2629    1           3 UNLOAD BIT(36) INIT('0'B),
              2630    1           3 ALARM BIT(36) INIT('0'B),
              2631    1           3 WRFM BIT(36) INIT('0'B),
              2632    1           3 WRZERO BIT(36) INIT('0'B),
              2633    1           3 READ BIT(36) INIT('0'B),
              2634    1           3 WRITE BIT(36) INIT('0'B),
              2635    1           3 SPREC BIT(36) INIT('0'B),
              2636    1           3 SPFILE BIT(36) INIT('0'B),
              2637    1           3 PERMIT BIT(36) INIT('0'B),
              2638    1           3 PROTECT BIT(36) INIT('0'B),
              2639    1           3 RESET BIT(36) INIT('400200020200'O),
              2640    1           3 SD800 BIT(36) INIT('0'B),
              2641    1           3 SD1600 BIT(36) INIT('0'B),
              2642    1           3 SD6250 BIT(36) INIT('0'B),
              2643    1           3 LDCHAIN BIT(36) INIT('0'B),
              2644    1           3 LDTAPE BIT(36) INIT('0'B),
              2645    1           3 RESTORE BIT(36) INIT('0'B),
              2646    1           3 LDVFC BIT(36) INIT('0'B),
              2647    1           3 SYMB BIT(36) INIT('0'B),
              2648    1           3 EXTST BIT(36) INIT('0'B),
              2649    1           3 ERACE BIT(36) INIT('0'B);
      498     2651        /**/
      499     2652        %DVT (NAME=NI_DCDVT4,SCHED#=NIW$REQSCHED,POSTER#=NIW$POSTER,DVSCH#=NIW$DEVSCHED,
      500     2653              TYPE#=%DV_MPC,
      501     2654              RQSTAT#="%CONCAT(%MPC_RQSTAT,%RTN_STD,'00'O,'02'O,%CC_NOBUF,'00'O)",
      502     2655              RDASC#=
              2655                  "%CONCAT(%MPC_READ_ASC,%RTN_MPC_READ,%MPC_INIT_READ,'02'O,%CC_MPC,'00'O)",
      503     2656              WRASC#=
              2656                "%CONCAT(%MPC_WRITE_ASC,%RTN_MPC_WRITE,%MPC_INIT_WRITE,'02'O,%CC_MPC,'00'O)"
              2656                  ,
      504     2657              MODEL#="'MSS8080','MSS8090','MSP8080','MSP8090'",
PL6.E3A0      #001=NI_DVTS_D File=NI_DVTS_D.:E05TSI                              WED 07/30/97 03:42 Page:48
      505     2658              FWNAME#='IIDK');
              2659    1   DCL 1 NI_DCDVT4 CONSTANT SYMDEF ALIGNED,
              2660    1         2 SCHED EPTR INIT(ENTADDR(NIW$REQSCHED)),
              2661    1         2 POSTER EPTR INIT(ENTADDR(NIW$POSTER)),
              2662    1         2 DVSCH EPTR INIT(ENTADDR(NIW$DEVSCHED)),
              2663    1         2 MODEL(0:9) CHAR(8) ALIGNED INIT('MSS8080','MSS8090','MSP8080','MSP8090',' '*
              2663                  0),
              2664    1         2 FEATURE(0:9) CHAR(8) ALIGNED INIT(' ',' ',' '*0),
              2665    1         2 TYPE UBIN(9) UNAL INIT(7),
              2666    1         2 NT@DCYLS UBIN(9) UNAL INIT(0),
              2667    1         2 SPT UBIN(9) UNAL INIT(0),
              2668    1         2 GRANSIZE UBIN(9) UNAL INIT(0),
              2669    1         2 PACKSIZE UBIN(36) UNAL INIT(0),
              2670    1         2 CYLSIZE UBIN(18) UNAL INIT(0),
              2671    1         2 T@DCYL UBIN(18) UNAL INIT(0),
              2672    1         2 SECSIZE UBIN(18) UNAL INIT(0),
              2673    1         2 ATTR BIT(18) UNAL INIT('0'B),
              2674    1         2 MPC ALIGNED,
              2675    1           3 FWNAME CHAR(4) INIT('IIDK'),
              2676    1           3 LPNAME CHAR(4) INIT(' '),
              2677    1           3 CRPNAME CHAR(4) INIT(' '),
              2678    1         2 LP REDEF MPC ALIGNED,
              2679    1           3 CHAIN CHAR(4),
              2680    1           3 *(0:1) UBIN,
              2681    1         2 IDCW ALIGNED,
              2682    1           3 DCWLIST BIT(36) INIT('0003'O),
              2683    1           3 RQSTAT BIT(36) INIT('000200020200'O),
              2684    1           3 RDBIN BIT(36) INIT('0'B),
              2685    1           3 WRBIN BIT(36) INIT('0'B),
              2686    1           3 RDASC BIT(36) INIT('022506024000'O),
              2687    1           3 WRASC BIT(36) INIT('122616024000'O),
              2688    1           3 REWIND BIT(36) INIT('0'B),
              2689    1           3 WRCMP BIT(36) INIT('0'B),
              2690    1           3 UNLOAD BIT(36) INIT('0'B),
              2691    1           3 ALARM BIT(36) INIT('0'B),
              2692    1           3 WRFM BIT(36) INIT('0'B),
              2693    1           3 WRZERO BIT(36) INIT('0'B),
PL6.E3A0      #001=NI_DVTS_D File=NI_DVTS_D.:E05TSI                              WED 07/30/97 03:42 Page:49
              2694    1           3 READ BIT(36) INIT('0'B),
              2695    1           3 WRITE BIT(36) INIT('0'B),
              2696    1           3 SPREC BIT(36) INIT('0'B),
              2697    1           3 SPFILE BIT(36) INIT('0'B),
              2698    1           3 PERMIT BIT(36) INIT('0'B),
              2699    1           3 PROTECT BIT(36) INIT('0'B),
              2700    1           3 RESET BIT(36) INIT('0'B),
              2701    1           3 SD800 BIT(36) INIT('0'B),
              2702    1           3 SD1600 BIT(36) INIT('0'B),
              2703    1           3 SD6250 BIT(36) INIT('0'B),
              2704    1           3 LDCHAIN BIT(36) INIT('0'B),
              2705    1           3 LDTAPE BIT(36) INIT('0'B),
              2706    1           3 RESTORE BIT(36) INIT('0'B),
              2707    1           3 LDVFC BIT(36) INIT('0'B),
              2708    1           3 SYMB BIT(36) INIT('0'B),
              2709    1           3 EXTST BIT(36) INIT('0'B),
              2710    1           3 ERACE BIT(36) INIT('0'B);
      506     2712        /**/
      507     2713        %DVT (NAME=NI_TCDVT,SCHED#=NIW$REQSCHED,POSTER#=NIW$POSTER,DVSCH#=NIW$DEVSCHED,
      508     2714              TYPE#=%DV_MPC,
      509     2715              RQSTAT#="%CONCAT(%MPC_RQSTAT,%RTN_STD,'00'O,'02'O,%CC_NOBUF,'00'O)",
      510     2716             RDBIN#=
              2716                 "%CONCAT(%MPC_READ_BIN,%RTN_MPC_READ,%MPC_INIT_READ,'02'O,%CC_MPC,'00'O)",
      511     2717             WRBIN#=
              2717                "%CONCAT(%MPC_WRITE_BIN,%RTN_MPC_WRITE,%MPC_INIT_WRITE,'02'O,%CC_MPC,'00'O)"
              2717                 ,
      512     2718             RDASC#=
              2718                 "%CONCAT(%MPC_READ_ASC,%RTN_MPC_READ,%MPC_INIT_READ,'02'O,%CC_MPC,'00'O)",
      513     2719             WRASC#=
              2719                "%CONCAT(%MPC_WRITE_ASC,%RTN_MPC_WRITE,%MPC_INIT_WRITE,'02'O,%CC_MPC,'00'O)"
              2719                 ,
      514     2720              RESET#="%CONCAT(%MPC_RESET,%RTN_STD,'00'O,'02'O,%CC_NOBUF,'00'O)",
      515     2721              MODEL#="'MTP0601','MTP8021','MTP8022','MTP8023'",FWNAME#='M601');
              2722    1   DCL 1 NI_TCDVT CONSTANT SYMDEF ALIGNED,
              2723    1         2 SCHED EPTR INIT(ENTADDR(NIW$REQSCHED)),
              2724    1         2 POSTER EPTR INIT(ENTADDR(NIW$POSTER)),
              2725    1         2 DVSCH EPTR INIT(ENTADDR(NIW$DEVSCHED)),
PL6.E3A0      #001=NI_DVTS_D File=NI_DVTS_D.:E05TSI                              WED 07/30/97 03:42 Page:50
              2726    1         2 MODEL(0:9) CHAR(8) ALIGNED INIT('MTP0601','MTP8021','MTP8022','MTP8023',' '*
              2726                  0),
              2727    1         2 FEATURE(0:9) CHAR(8) ALIGNED INIT(' ',' ',' '*0),
              2728    1         2 TYPE UBIN(9) UNAL INIT(7),
              2729    1         2 NT@DCYLS UBIN(9) UNAL INIT(0),
              2730    1         2 SPT UBIN(9) UNAL INIT(0),
              2731    1         2 GRANSIZE UBIN(9) UNAL INIT(0),
              2732    1         2 PACKSIZE UBIN(36) UNAL INIT(0),
              2733    1         2 CYLSIZE UBIN(18) UNAL INIT(0),
              2734    1         2 T@DCYL UBIN(18) UNAL INIT(0),
              2735    1         2 SECSIZE UBIN(18) UNAL INIT(0),
              2736    1         2 ATTR BIT(18) UNAL INIT('0'B),
              2737    1         2 MPC ALIGNED,
              2738    1           3 FWNAME CHAR(4) INIT('M601'),
              2739    1           3 LPNAME CHAR(4) INIT(' '),
              2740    1           3 CRPNAME CHAR(4) INIT(' '),
              2741    1         2 LP REDEF MPC ALIGNED,
              2742    1           3 CHAIN CHAR(4),
              2743    1           3 *(0:1) UBIN,
              2744    1         2 IDCW ALIGNED,
              2745    1           3 DCWLIST BIT(36) INIT('0003'O),
              2746    1           3 RQSTAT BIT(36) INIT('000200020200'O),
              2747    1           3 RDBIN BIT(36) INIT('222506024000'O),
              2748    1           3 WRBIN BIT(36) INIT('322616024000'O),
              2749    1           3 RDASC BIT(36) INIT('022506024000'O),
              2750    1           3 WRASC BIT(36) INIT('122616024000'O),
              2751    1           3 REWIND BIT(36) INIT('0'B),
              2752    1           3 WRCMP BIT(36) INIT('0'B),
              2753    1           3 UNLOAD BIT(36) INIT('0'B),
              2754    1           3 ALARM BIT(36) INIT('0'B),
              2755    1           3 WRFM BIT(36) INIT('0'B),
              2756    1           3 WRZERO BIT(36) INIT('0'B),
              2757    1           3 READ BIT(36) INIT('0'B),
              2758    1           3 WRITE BIT(36) INIT('0'B),
              2759    1           3 SPREC BIT(36) INIT('0'B),
              2760    1           3 SPFILE BIT(36) INIT('0'B),
              2761    1           3 PERMIT BIT(36) INIT('0'B),
PL6.E3A0      #001=NI_DVTS_D File=NI_DVTS_D.:E05TSI                              WED 07/30/97 03:42 Page:51
              2762    1           3 PROTECT BIT(36) INIT('0'B),
              2763    1           3 RESET BIT(36) INIT('400200020200'O),
              2764    1           3 SD800 BIT(36) INIT('0'B),
              2765    1           3 SD1600 BIT(36) INIT('0'B),
              2766    1           3 SD6250 BIT(36) INIT('0'B),
              2767    1           3 LDCHAIN BIT(36) INIT('0'B),
              2768    1           3 LDTAPE BIT(36) INIT('0'B),
              2769    1           3 RESTORE BIT(36) INIT('0'B),
              2770    1           3 LDVFC BIT(36) INIT('0'B),
              2771    1           3 SYMB BIT(36) INIT('0'B),
              2772    1           3 EXTST BIT(36) INIT('0'B),
              2773    1           3 ERACE BIT(36) INIT('0'B);
      516     2775        /**/
      517     2776        %DVT (NAME=NI_TCDVT1,SCHED#=NIW$REQSCHED,POSTER#=NIW$POSTER,DVSCH#=NIW$DEVSCHED,
      518     2777              TYPE#=%DV_MPC,
      519     2778              RQSTAT#="%CONCAT(%MPC_RQSTAT,%RTN_STD,'00'O,'02'O,%CC_NOBUF,'00'O)",
      520     2779             RDBIN#=
              2779                 "%CONCAT(%MPC_READ_BIN,%RTN_MPC_READ,%MPC_INIT_READ,'02'O,%CC_MPC,'00'O)",
      521     2780             WRBIN#=
              2780                "%CONCAT(%MPC_WRITE_BIN,%RTN_MPC_WRITE,%MPC_INIT_WRITE,'02'O,%CC_MPC,'00'O)"
              2780                 ,
      522     2781             RDASC#=
              2781                 "%CONCAT(%MPC_READ_ASC,%RTN_MPC_READ,%MPC_INIT_READ,'02'O,%CC_MPC,'00'O)",
      523     2782             WRASC#=
              2782                "%CONCAT(%MPC_WRITE_ASC,%RTN_MPC_WRITE,%MPC_INIT_WRITE,'02'O,%CC_MPC,'00'O)"
              2782                 ,
      524     2783              RESET#="%CONCAT(%MPC_RESET,%RTN_STD,'00'O,'02'O,%CC_NOBUF,'00'O)",
      525     2784              MODEL#="'MTP0610','MTP0611'",
      526     2785              FWNAME#='M610');
              2786    1   DCL 1 NI_TCDVT1 CONSTANT SYMDEF ALIGNED,
              2787    1         2 SCHED EPTR INIT(ENTADDR(NIW$REQSCHED)),
              2788    1         2 POSTER EPTR INIT(ENTADDR(NIW$POSTER)),
              2789    1         2 DVSCH EPTR INIT(ENTADDR(NIW$DEVSCHED)),
              2790    1         2 MODEL(0:9) CHAR(8) ALIGNED INIT('MTP0610','MTP0611',' '*0),
              2791    1         2 FEATURE(0:9) CHAR(8) ALIGNED INIT(' ',' ',' '*0),
              2792    1         2 TYPE UBIN(9) UNAL INIT(7),
              2793    1         2 NT@DCYLS UBIN(9) UNAL INIT(0),
PL6.E3A0      #001=NI_DVTS_D File=NI_DVTS_D.:E05TSI                              WED 07/30/97 03:42 Page:52
              2794    1         2 SPT UBIN(9) UNAL INIT(0),
              2795    1         2 GRANSIZE UBIN(9) UNAL INIT(0),
              2796    1         2 PACKSIZE UBIN(36) UNAL INIT(0),
              2797    1         2 CYLSIZE UBIN(18) UNAL INIT(0),
              2798    1         2 T@DCYL UBIN(18) UNAL INIT(0),
              2799    1         2 SECSIZE UBIN(18) UNAL INIT(0),
              2800    1         2 ATTR BIT(18) UNAL INIT('0'B),
              2801    1         2 MPC ALIGNED,
              2802    1           3 FWNAME CHAR(4) INIT('M610'),
              2803    1           3 LPNAME CHAR(4) INIT(' '),
              2804    1           3 CRPNAME CHAR(4) INIT(' '),
              2805    1         2 LP REDEF MPC ALIGNED,
              2806    1           3 CHAIN CHAR(4),
              2807    1           3 *(0:1) UBIN,
              2808    1         2 IDCW ALIGNED,
              2809    1           3 DCWLIST BIT(36) INIT('0003'O),
              2810    1           3 RQSTAT BIT(36) INIT('000200020200'O),
              2811    1           3 RDBIN BIT(36) INIT('222506024000'O),
              2812    1           3 WRBIN BIT(36) INIT('322616024000'O),
              2813    1           3 RDASC BIT(36) INIT('022506024000'O),
              2814    1           3 WRASC BIT(36) INIT('122616024000'O),
              2815    1           3 REWIND BIT(36) INIT('0'B),
              2816    1           3 WRCMP BIT(36) INIT('0'B),
              2817    1           3 UNLOAD BIT(36) INIT('0'B),
              2818    1           3 ALARM BIT(36) INIT('0'B),
              2819    1           3 WRFM BIT(36) INIT('0'B),
              2820    1           3 WRZERO BIT(36) INIT('0'B),
              2821    1           3 READ BIT(36) INIT('0'B),
              2822    1           3 WRITE BIT(36) INIT('0'B),
              2823    1           3 SPREC BIT(36) INIT('0'B),
              2824    1           3 SPFILE BIT(36) INIT('0'B),
              2825    1           3 PERMIT BIT(36) INIT('0'B),
              2826    1           3 PROTECT BIT(36) INIT('0'B),
              2827    1           3 RESET BIT(36) INIT('400200020200'O),
              2828    1           3 SD800 BIT(36) INIT('0'B),
              2829    1           3 SD1600 BIT(36) INIT('0'B),
              2830    1           3 SD6250 BIT(36) INIT('0'B),
PL6.E3A0      #001=NI_DVTS_D File=NI_DVTS_D.:E05TSI                              WED 07/30/97 03:42 Page:53
              2831    1           3 LDCHAIN BIT(36) INIT('0'B),
              2832    1           3 LDTAPE BIT(36) INIT('0'B),
              2833    1           3 RESTORE BIT(36) INIT('0'B),
              2834    1           3 LDVFC BIT(36) INIT('0'B),
              2835    1           3 SYMB BIT(36) INIT('0'B),
              2836    1           3 EXTST BIT(36) INIT('0'B),
              2837    1           3 ERACE BIT(36) INIT('0'B);
      527     2839        /**/
      528     2840        %DVT (NAME=NI_TCDVT2,SCHED#=NIW$REQSCHED,POSTER#=NIW$POSTER,DVSCH#=NIW$DEVSCHED,
      529     2841              TYPE#=%DV_MPC,
      530     2842              RQSTAT#="%CONCAT(%MPC_RQSTAT,%RTN_STD,'00'O,'02'O,%CC_NOBUF,'00'O)",
      531     2843             RDBIN#=
              2843                 "%CONCAT(%MPC_READ_BIN,%RTN_MPC_READ,%MPC_INIT_READ,'02'O,%CC_MPC,'00'O)",
      532     2844             WRBIN#=
              2844                "%CONCAT(%MPC_WRITE_BIN,%RTN_MPC_WRITE,%MPC_INIT_WRITE,'02'O,%CC_MPC,'00'O)"
              2844                 ,
      533     2845             RDASC#=
              2845                 "%CONCAT(%MPC_READ_ASC,%RTN_MPC_READ,%MPC_INIT_READ,'02'O,%CC_MPC,'00'O)",
      534     2846             WRASC#=
              2846                "%CONCAT(%MPC_WRITE_ASC,%RTN_MPC_WRITE,%MPC_INIT_WRITE,'02'O,%CC_MPC,'00'O)"
              2846                 ,
      535     2847              RESET#="%CONCAT(%MPC_RESET,%RTN_STD,'00'O,'02'O,%CC_NOBUF,'00'O)",
      536     2848              MODEL#="'MTPTPUR','MFP8000T','MFP8001T','MTP8000','MTP8001'",
      537     2849              FWNAME#='TPUR');
              2850    1   DCL 1 NI_TCDVT2 CONSTANT SYMDEF ALIGNED,
              2851    1         2 SCHED EPTR INIT(ENTADDR(NIW$REQSCHED)),
              2852    1         2 POSTER EPTR INIT(ENTADDR(NIW$POSTER)),
              2853    1         2 DVSCH EPTR INIT(ENTADDR(NIW$DEVSCHED)),
              2854    1         2 MODEL(0:9) CHAR(8) ALIGNED INIT('MTPTPUR','MFP8000T','MFP8001T','MTP8000',
              2854                  'MTP8001',' '*0),
              2855    1         2 FEATURE(0:9) CHAR(8) ALIGNED INIT(' ',' ',' '*0),
              2856    1         2 TYPE UBIN(9) UNAL INIT(7),
              2857    1         2 NT@DCYLS UBIN(9) UNAL INIT(0),
              2858    1         2 SPT UBIN(9) UNAL INIT(0),
              2859    1         2 GRANSIZE UBIN(9) UNAL INIT(0),
              2860    1         2 PACKSIZE UBIN(36) UNAL INIT(0),
              2861    1         2 CYLSIZE UBIN(18) UNAL INIT(0),
PL6.E3A0      #001=NI_DVTS_D File=NI_DVTS_D.:E05TSI                              WED 07/30/97 03:42 Page:54
              2862    1         2 T@DCYL UBIN(18) UNAL INIT(0),
              2863    1         2 SECSIZE UBIN(18) UNAL INIT(0),
              2864    1         2 ATTR BIT(18) UNAL INIT('0'B),
              2865    1         2 MPC ALIGNED,
              2866    1           3 FWNAME CHAR(4) INIT('TPUR'),
              2867    1           3 LPNAME CHAR(4) INIT(' '),
              2868    1           3 CRPNAME CHAR(4) INIT(' '),
              2869    1         2 LP REDEF MPC ALIGNED,
              2870    1           3 CHAIN CHAR(4),
              2871    1           3 *(0:1) UBIN,
              2872    1         2 IDCW ALIGNED,
              2873    1           3 DCWLIST BIT(36) INIT('0003'O),
              2874    1           3 RQSTAT BIT(36) INIT('000200020200'O),
              2875    1           3 RDBIN BIT(36) INIT('222506024000'O),
              2876    1           3 WRBIN BIT(36) INIT('322616024000'O),
              2877    1           3 RDASC BIT(36) INIT('022506024000'O),
              2878    1           3 WRASC BIT(36) INIT('122616024000'O),
              2879    1           3 REWIND BIT(36) INIT('0'B),
              2880    1           3 WRCMP BIT(36) INIT('0'B),
              2881    1           3 UNLOAD BIT(36) INIT('0'B),
              2882    1           3 ALARM BIT(36) INIT('0'B),
              2883    1           3 WRFM BIT(36) INIT('0'B),
              2884    1           3 WRZERO BIT(36) INIT('0'B),
              2885    1           3 READ BIT(36) INIT('0'B),
              2886    1           3 WRITE BIT(36) INIT('0'B),
              2887    1           3 SPREC BIT(36) INIT('0'B),
              2888    1           3 SPFILE BIT(36) INIT('0'B),
              2889    1           3 PERMIT BIT(36) INIT('0'B),
              2890    1           3 PROTECT BIT(36) INIT('0'B),
              2891    1           3 RESET BIT(36) INIT('400200020200'O),
              2892    1           3 SD800 BIT(36) INIT('0'B),
              2893    1           3 SD1600 BIT(36) INIT('0'B),
              2894    1           3 SD6250 BIT(36) INIT('0'B),
              2895    1           3 LDCHAIN BIT(36) INIT('0'B),
              2896    1           3 LDTAPE BIT(36) INIT('0'B),
              2897    1           3 RESTORE BIT(36) INIT('0'B),
              2898    1           3 LDVFC BIT(36) INIT('0'B),
PL6.E3A0      #001=NI_DVTS_D File=NI_DVTS_D.:E05TSI                              WED 07/30/97 03:42 Page:55
              2899    1           3 SYMB BIT(36) INIT('0'B),
              2900    1           3 EXTST BIT(36) INIT('0'B),
              2901    1           3 ERACE BIT(36) INIT('0'B);
      538     2903        /**/
      539     2904        %DVT (NAME=NI_TCDVT3,SCHED#=NIW$REQSCHED,POSTER#=NIW$POSTER,DVSCH#=NIW$DEVSCHED,
      540     2905              TYPE#=%DV_MPC,
      541     2906              RQSTAT#="%CONCAT(%MPC_RQSTAT,%RTN_STD,'00'O,'02'O,%CC_NOBUF,'00'O)",
      542     2907             RDBIN#=
              2907                 "%CONCAT(%MPC_READ_BIN,%RTN_MPC_READ,%MPC_INIT_READ,'02'O,%CC_MPC,'00'O)",
      543     2908             WRBIN#=
              2908                "%CONCAT(%MPC_WRITE_BIN,%RTN_MPC_WRITE,%MPC_INIT_WRITE,'02'O,%CC_MPC,'00'O)"
              2908                 ,
      544     2909             RDASC#=
              2909                 "%CONCAT(%MPC_READ_ASC,%RTN_MPC_READ,%MPC_INIT_READ,'02'O,%CC_MPC,'00'O)",
      545     2910             WRASC#=
              2910                "%CONCAT(%MPC_WRITE_ASC,%RTN_MPC_WRITE,%MPC_INIT_WRITE,'02'O,%CC_MPC,'00'O)"
              2910                 ,
      546     2911              RESET#="%CONCAT(%MPC_RESET,%RTN_STD,'00'O,'02'O,%CC_NOBUF,'00'O)",
      547     2912              MODEL#='notused',
      548     2913              FWNAME#='M601');
              2914    1   DCL 1 NI_TCDVT3 CONSTANT SYMDEF ALIGNED,
              2915    1         2 SCHED EPTR INIT(ENTADDR(NIW$REQSCHED)),
              2916    1         2 POSTER EPTR INIT(ENTADDR(NIW$POSTER)),
              2917    1         2 DVSCH EPTR INIT(ENTADDR(NIW$DEVSCHED)),
              2918    1         2 MODEL(0:9) CHAR(8) ALIGNED INIT('notused',' '*0),
              2919    1         2 FEATURE(0:9) CHAR(8) ALIGNED INIT(' ',' ',' '*0),
              2920    1         2 TYPE UBIN(9) UNAL INIT(7),
              2921    1         2 NT@DCYLS UBIN(9) UNAL INIT(0),
              2922    1         2 SPT UBIN(9) UNAL INIT(0),
              2923    1         2 GRANSIZE UBIN(9) UNAL INIT(0),
              2924    1         2 PACKSIZE UBIN(36) UNAL INIT(0),
              2925    1         2 CYLSIZE UBIN(18) UNAL INIT(0),
              2926    1         2 T@DCYL UBIN(18) UNAL INIT(0),
              2927    1         2 SECSIZE UBIN(18) UNAL INIT(0),
              2928    1         2 ATTR BIT(18) UNAL INIT('0'B),
              2929    1         2 MPC ALIGNED,
              2930    1           3 FWNAME CHAR(4) INIT('M601'),
PL6.E3A0      #001=NI_DVTS_D File=NI_DVTS_D.:E05TSI                              WED 07/30/97 03:42 Page:56
              2931    1           3 LPNAME CHAR(4) INIT(' '),
              2932    1           3 CRPNAME CHAR(4) INIT(' '),
              2933    1         2 LP REDEF MPC ALIGNED,
              2934    1           3 CHAIN CHAR(4),
              2935    1           3 *(0:1) UBIN,
              2936    1         2 IDCW ALIGNED,
              2937    1           3 DCWLIST BIT(36) INIT('0003'O),
              2938    1           3 RQSTAT BIT(36) INIT('000200020200'O),
              2939    1           3 RDBIN BIT(36) INIT('222506024000'O),
              2940    1           3 WRBIN BIT(36) INIT('322616024000'O),
              2941    1           3 RDASC BIT(36) INIT('022506024000'O),
              2942    1           3 WRASC BIT(36) INIT('122616024000'O),
              2943    1           3 REWIND BIT(36) INIT('0'B),
              2944    1           3 WRCMP BIT(36) INIT('0'B),
              2945    1           3 UNLOAD BIT(36) INIT('0'B),
              2946    1           3 ALARM BIT(36) INIT('0'B),
              2947    1           3 WRFM BIT(36) INIT('0'B),
              2948    1           3 WRZERO BIT(36) INIT('0'B),
              2949    1           3 READ BIT(36) INIT('0'B),
              2950    1           3 WRITE BIT(36) INIT('0'B),
              2951    1           3 SPREC BIT(36) INIT('0'B),
              2952    1           3 SPFILE BIT(36) INIT('0'B),
              2953    1           3 PERMIT BIT(36) INIT('0'B),
              2954    1           3 PROTECT BIT(36) INIT('0'B),
              2955    1           3 RESET BIT(36) INIT('400200020200'O),
              2956    1           3 SD800 BIT(36) INIT('0'B),
              2957    1           3 SD1600 BIT(36) INIT('0'B),
              2958    1           3 SD6250 BIT(36) INIT('0'B),
              2959    1           3 LDCHAIN BIT(36) INIT('0'B),
              2960    1           3 LDTAPE BIT(36) INIT('0'B),
              2961    1           3 RESTORE BIT(36) INIT('0'B),
              2962    1           3 LDVFC BIT(36) INIT('0'B),
              2963    1           3 SYMB BIT(36) INIT('0'B),
              2964    1           3 EXTST BIT(36) INIT('0'B),
              2965    1           3 ERACE BIT(36) INIT('0'B);
      549     2967        /**/
      550     2968        %DVT (NAME=NI_TCDVT4,SCHED#=NIW$REQSCHED,POSTER#=NIW$POSTER,DVSCH#=NIW$DEVSCHED,
PL6.E3A0      #001=NI_DVTS_D File=NI_DVTS_D.:E05TSI                              WED 07/30/97 03:42 Page:57
      551     2969              TYPE#=%DV_MPC,
      552     2970              RQSTAT#="%CONCAT(%MPC_RQSTAT,%RTN_STD,'00'O,'02'O,%CC_NOBUF,'00'O)",
      553     2971              RDBIN#=
              2971                "%CONCAT(%MPC_READ_BIN,%RTN_BADFC_IOERR,%MPC_INIT_READ,'02'O,%CC_MPC,'00'O)"
              2971                  ,
      554     2972              WRBIN#=
              2972              "%CONCAT(%MPC_WRITE_BIN,%RTN_BADFC_IOERR,%MPC_INIT_WRITE,'02'O,%CC_MPC,'00'O)"
              2972                  ,
      555     2973              RDASC#=
              2973                  "%CONCAT(%MPC_READ_ASC,%RTN_MPC_READ,%MPC_INIT_READ,'02'O,%CC_MPC,'00'O)",
      556     2974              WRASC#=
              2974                "%CONCAT(%MPC_WRITE_ASC,%RTN_MPC_WRITE,%MPC_INIT_WRITE,'02'O,%CC_MPC,'00'O)"
              2974                  ,
      557     2975              RESET#="%CONCAT(%MPC_RESET,%RTN_STD,'00'O,'02'O,%CC_NOBUF,'00'O)",
      558     2976              MODEL#="'MTP8215','MTP8216','MTP8218','MTP8225','MTP8226','MTP8228'",
      559     2977              FWNAME#='M460');
              2978    1   DCL 1 NI_TCDVT4 CONSTANT SYMDEF ALIGNED,
              2979    1         2 SCHED EPTR INIT(ENTADDR(NIW$REQSCHED)),
              2980    1         2 POSTER EPTR INIT(ENTADDR(NIW$POSTER)),
              2981    1         2 DVSCH EPTR INIT(ENTADDR(NIW$DEVSCHED)),
              2982    1         2 MODEL(0:9) CHAR(8) ALIGNED INIT('MTP8215','MTP8216','MTP8218','MTP8225',
              2982                  'MTP8226','MTP8228',' '*0),
              2983    1         2 FEATURE(0:9) CHAR(8) ALIGNED INIT(' ',' ',' '*0),
              2984    1         2 TYPE UBIN(9) UNAL INIT(7),
              2985    1         2 NT@DCYLS UBIN(9) UNAL INIT(0),
              2986    1         2 SPT UBIN(9) UNAL INIT(0),
              2987    1         2 GRANSIZE UBIN(9) UNAL INIT(0),
              2988    1         2 PACKSIZE UBIN(36) UNAL INIT(0),
              2989    1         2 CYLSIZE UBIN(18) UNAL INIT(0),
              2990    1         2 T@DCYL UBIN(18) UNAL INIT(0),
              2991    1         2 SECSIZE UBIN(18) UNAL INIT(0),
              2992    1         2 ATTR BIT(18) UNAL INIT('0'B),
              2993    1         2 MPC ALIGNED,
              2994    1           3 FWNAME CHAR(4) INIT('M460'),
              2995    1           3 LPNAME CHAR(4) INIT(' '),
              2996    1           3 CRPNAME CHAR(4) INIT(' '),
              2997    1         2 LP REDEF MPC ALIGNED,
PL6.E3A0      #001=NI_DVTS_D File=NI_DVTS_D.:E05TSI                              WED 07/30/97 03:42 Page:58
              2998    1           3 CHAIN CHAR(4),
              2999    1           3 *(0:1) UBIN,
              3000    1         2 IDCW ALIGNED,
              3001    1           3 DCWLIST BIT(36) INIT('0003'O),
              3002    1           3 RQSTAT BIT(36) INIT('000200020200'O),
              3003    1           3 RDBIN BIT(36) INIT('220106024000'O),
              3004    1           3 WRBIN BIT(36) INIT('320116024000'O),
              3005    1           3 RDASC BIT(36) INIT('022506024000'O),
              3006    1           3 WRASC BIT(36) INIT('122616024000'O),
              3007    1           3 REWIND BIT(36) INIT('0'B),
              3008    1           3 WRCMP BIT(36) INIT('0'B),
              3009    1           3 UNLOAD BIT(36) INIT('0'B),
              3010    1           3 ALARM BIT(36) INIT('0'B),
              3011    1           3 WRFM BIT(36) INIT('0'B),
              3012    1           3 WRZERO BIT(36) INIT('0'B),
              3013    1           3 READ BIT(36) INIT('0'B),
              3014    1           3 WRITE BIT(36) INIT('0'B),
              3015    1           3 SPREC BIT(36) INIT('0'B),
              3016    1           3 SPFILE BIT(36) INIT('0'B),
              3017    1           3 PERMIT BIT(36) INIT('0'B),
              3018    1           3 PROTECT BIT(36) INIT('0'B),
              3019    1           3 RESET BIT(36) INIT('400200020200'O),
              3020    1           3 SD800 BIT(36) INIT('0'B),
              3021    1           3 SD1600 BIT(36) INIT('0'B),
              3022    1           3 SD6250 BIT(36) INIT('0'B),
              3023    1           3 LDCHAIN BIT(36) INIT('0'B),
              3024    1           3 LDTAPE BIT(36) INIT('0'B),
              3025    1           3 RESTORE BIT(36) INIT('0'B),
              3026    1           3 LDVFC BIT(36) INIT('0'B),
              3027    1           3 SYMB BIT(36) INIT('0'B),
              3028    1           3 EXTST BIT(36) INIT('0'B),
              3029    1           3 ERACE BIT(36) INIT('0'B);
      560     3031        /**/
      561     3032        %DVT (NAME=NI_UCDVT,SCHED#=NIW$REQSCHED,POSTER#=NIW$POSTER,DVSCH#=NIW$DEVSCHED,
      562     3033              TYPE#=%DV_MPC,
      563     3034              RQSTAT#="%CONCAT(%MPC_RQSTAT,%RTN_STD,'00'O,'02'O,%CC_NOBUF,'00'O)",
      564     3035             RDBIN#=
PL6.E3A0      #001=NI_DVTS_D File=NI_DVTS_D.:E05TSI                              WED 07/30/97 03:42 Page:59
              3035                 "%CONCAT(%MPC_READ_BIN,%RTN_MPC_READ,%MPC_INIT_READ,'02'O,%CC_MPC,'00'O)",
      565     3036             WRBIN#=
              3036                "%CONCAT(%MPC_WRITE_BIN,%RTN_MPC_WRITE,%MPC_INIT_WRITE,'02'O,%CC_MPC,'00'O)"
              3036                 ,
      566     3037             RDASC#=
              3037                 "%CONCAT(%MPC_READ_ASC,%RTN_MPC_READ,%MPC_INIT_READ,'02'O,%CC_MPC,'00'O)",
      567     3038             WRASC#=
              3038                "%CONCAT(%MPC_WRITE_ASC,%RTN_MPC_WRITE,%MPC_INIT_WRITE,'02'O,%CC_MPC,'00'O)"
              3038                 ,
      568     3039              RESET#="%CONCAT(%MPC_RESET,%RTN_STD,'00'O,'02'O,%CC_NOBUF,'00'O)",
      569     3040              MODEL#="'URP0600','URP0601','URP0602','URP8000'",
      570     3041              FWNAME#='UCMN',LPNAME#='U400',CRPNAME#='UCRP');
              3042    1   DCL 1 NI_UCDVT CONSTANT SYMDEF ALIGNED,
              3043    1         2 SCHED EPTR INIT(ENTADDR(NIW$REQSCHED)),
              3044    1         2 POSTER EPTR INIT(ENTADDR(NIW$POSTER)),
              3045    1         2 DVSCH EPTR INIT(ENTADDR(NIW$DEVSCHED)),
              3046    1         2 MODEL(0:9) CHAR(8) ALIGNED INIT('URP0600','URP0601','URP0602','URP8000',' '*
              3046                  0),
              3047    1         2 FEATURE(0:9) CHAR(8) ALIGNED INIT(' ',' ',' '*0),
              3048    1         2 TYPE UBIN(9) UNAL INIT(7),
              3049    1         2 NT@DCYLS UBIN(9) UNAL INIT(0),
              3050    1         2 SPT UBIN(9) UNAL INIT(0),
              3051    1         2 GRANSIZE UBIN(9) UNAL INIT(0),
              3052    1         2 PACKSIZE UBIN(36) UNAL INIT(0),
              3053    1         2 CYLSIZE UBIN(18) UNAL INIT(0),
              3054    1         2 T@DCYL UBIN(18) UNAL INIT(0),
              3055    1         2 SECSIZE UBIN(18) UNAL INIT(0),
              3056    1         2 ATTR BIT(18) UNAL INIT('0'B),
              3057    1         2 MPC ALIGNED,
              3058    1           3 FWNAME CHAR(4) INIT('UCMN'),
              3059    1           3 LPNAME CHAR(4) INIT('U400'),
              3060    1           3 CRPNAME CHAR(4) INIT('UCRP'),
              3061    1         2 LP REDEF MPC ALIGNED,
              3062    1           3 CHAIN CHAR(4),
              3063    1           3 *(0:1) UBIN,
              3064    1         2 IDCW ALIGNED,
              3065    1           3 DCWLIST BIT(36) INIT('0003'O),
PL6.E3A0      #001=NI_DVTS_D File=NI_DVTS_D.:E05TSI                              WED 07/30/97 03:42 Page:60
              3066    1           3 RQSTAT BIT(36) INIT('000200020200'O),
              3067    1           3 RDBIN BIT(36) INIT('222506024000'O),
              3068    1           3 WRBIN BIT(36) INIT('322616024000'O),
              3069    1           3 RDASC BIT(36) INIT('022506024000'O),
              3070    1           3 WRASC BIT(36) INIT('122616024000'O),
              3071    1           3 REWIND BIT(36) INIT('0'B),
              3072    1           3 WRCMP BIT(36) INIT('0'B),
              3073    1           3 UNLOAD BIT(36) INIT('0'B),
              3074    1           3 ALARM BIT(36) INIT('0'B),
              3075    1           3 WRFM BIT(36) INIT('0'B),
              3076    1           3 WRZERO BIT(36) INIT('0'B),
              3077    1           3 READ BIT(36) INIT('0'B),
              3078    1           3 WRITE BIT(36) INIT('0'B),
              3079    1           3 SPREC BIT(36) INIT('0'B),
              3080    1           3 SPFILE BIT(36) INIT('0'B),
              3081    1           3 PERMIT BIT(36) INIT('0'B),
              3082    1           3 PROTECT BIT(36) INIT('0'B),
              3083    1           3 RESET BIT(36) INIT('400200020200'O),
              3084    1           3 SD800 BIT(36) INIT('0'B),
              3085    1           3 SD1600 BIT(36) INIT('0'B),
              3086    1           3 SD6250 BIT(36) INIT('0'B),
              3087    1           3 LDCHAIN BIT(36) INIT('0'B),
              3088    1           3 LDTAPE BIT(36) INIT('0'B),
              3089    1           3 RESTORE BIT(36) INIT('0'B),
              3090    1           3 LDVFC BIT(36) INIT('0'B),
              3091    1           3 SYMB BIT(36) INIT('0'B),
              3092    1           3 EXTST BIT(36) INIT('0'B),
              3093    1           3 ERACE BIT(36) INIT('0'B);
      571     3095        /**/
      572     3096        %DVT (NAME=NI_UCDVT1,SCHED#=NIW$REQSCHED,POSTER#=NIW$POSTER,DVSCH#=NIW$DEVSCHED,
      573     3097              TYPE#=%DV_MPC,
      574     3098              RQSTAT#="%CONCAT(%MPC_RQSTAT,%RTN_STD,'00'O,'02'O,%CC_NOBUF,'00'O)",
      575     3099             RDBIN#=
              3099                 "%CONCAT(%MPC_READ_BIN,%RTN_MPC_READ,%MPC_INIT_READ,'02'O,%CC_MPC,'00'O)",
      576     3100             WRBIN#=
              3100                "%CONCAT(%MPC_WRITE_BIN,%RTN_MPC_WRITE,%MPC_INIT_WRITE,'02'O,%CC_MPC,'00'O)"
              3100                 ,
PL6.E3A0      #001=NI_DVTS_D File=NI_DVTS_D.:E05TSI                              WED 07/30/97 03:42 Page:61
      577     3101             RDASC#=
              3101                 "%CONCAT(%MPC_READ_ASC,%RTN_MPC_READ,%MPC_INIT_READ,'02'O,%CC_MPC,'00'O)",
      578     3102             WRASC#=
              3102                "%CONCAT(%MPC_WRITE_ASC,%RTN_MPC_WRITE,%MPC_INIT_WRITE,'02'O,%CC_MPC,'00'O)"
              3102                 ,
      579     3103              RESET#="%CONCAT(%MPC_RESET,%RTN_STD,'00'O,'02'O,%CC_NOBUF,'00'O)",
      580     3104              MODEL#="'URPURTP','MFP8000U','MFP8001U'",
      581     3105              FWNAME#='URTP',LPNAME#='U400',CRPNAME#='UCRP');
              3106    1   DCL 1 NI_UCDVT1 CONSTANT SYMDEF ALIGNED,
              3107    1         2 SCHED EPTR INIT(ENTADDR(NIW$REQSCHED)),
              3108    1         2 POSTER EPTR INIT(ENTADDR(NIW$POSTER)),
              3109    1         2 DVSCH EPTR INIT(ENTADDR(NIW$DEVSCHED)),
              3110    1         2 MODEL(0:9) CHAR(8) ALIGNED INIT('URPURTP','MFP8000U','MFP8001U',' '*0),
              3111    1         2 FEATURE(0:9) CHAR(8) ALIGNED INIT(' ',' ',' '*0),
              3112    1         2 TYPE UBIN(9) UNAL INIT(7),
              3113    1         2 NT@DCYLS UBIN(9) UNAL INIT(0),
              3114    1         2 SPT UBIN(9) UNAL INIT(0),
              3115    1         2 GRANSIZE UBIN(9) UNAL INIT(0),
              3116    1         2 PACKSIZE UBIN(36) UNAL INIT(0),
              3117    1         2 CYLSIZE UBIN(18) UNAL INIT(0),
              3118    1         2 T@DCYL UBIN(18) UNAL INIT(0),
              3119    1         2 SECSIZE UBIN(18) UNAL INIT(0),
              3120    1         2 ATTR BIT(18) UNAL INIT('0'B),
              3121    1         2 MPC ALIGNED,
              3122    1           3 FWNAME CHAR(4) INIT('URTP'),
              3123    1           3 LPNAME CHAR(4) INIT('U400'),
              3124    1           3 CRPNAME CHAR(4) INIT('UCRP'),
              3125    1         2 LP REDEF MPC ALIGNED,
              3126    1           3 CHAIN CHAR(4),
              3127    1           3 *(0:1) UBIN,
              3128    1         2 IDCW ALIGNED,
              3129    1           3 DCWLIST BIT(36) INIT('0003'O),
              3130    1           3 RQSTAT BIT(36) INIT('000200020200'O),
              3131    1           3 RDBIN BIT(36) INIT('222506024000'O),
              3132    1           3 WRBIN BIT(36) INIT('322616024000'O),
              3133    1           3 RDASC BIT(36) INIT('022506024000'O),
              3134    1           3 WRASC BIT(36) INIT('122616024000'O),
PL6.E3A0      #001=NI_DVTS_D File=NI_DVTS_D.:E05TSI                              WED 07/30/97 03:42 Page:62
              3135    1           3 REWIND BIT(36) INIT('0'B),
              3136    1           3 WRCMP BIT(36) INIT('0'B),
              3137    1           3 UNLOAD BIT(36) INIT('0'B),
              3138    1           3 ALARM BIT(36) INIT('0'B),
              3139    1           3 WRFM BIT(36) INIT('0'B),
              3140    1           3 WRZERO BIT(36) INIT('0'B),
              3141    1           3 READ BIT(36) INIT('0'B),
              3142    1           3 WRITE BIT(36) INIT('0'B),
              3143    1           3 SPREC BIT(36) INIT('0'B),
              3144    1           3 SPFILE BIT(36) INIT('0'B),
              3145    1           3 PERMIT BIT(36) INIT('0'B),
              3146    1           3 PROTECT BIT(36) INIT('0'B),
              3147    1           3 RESET BIT(36) INIT('400200020200'O),
              3148    1           3 SD800 BIT(36) INIT('0'B),
              3149    1           3 SD1600 BIT(36) INIT('0'B),
              3150    1           3 SD6250 BIT(36) INIT('0'B),
              3151    1           3 LDCHAIN BIT(36) INIT('0'B),
              3152    1           3 LDTAPE BIT(36) INIT('0'B),
              3153    1           3 RESTORE BIT(36) INIT('0'B),
              3154    1           3 LDVFC BIT(36) INIT('0'B),
              3155    1           3 SYMB BIT(36) INIT('0'B),
              3156    1           3 EXTST BIT(36) INIT('0'B),
              3157    1           3 ERACE BIT(36) INIT('0'B);
      582     3159        /**/
      583     3160        %DVT (NAME=NI_UCDVT2,SCHED#=NIW$REQSCHED,POSTER#=NIW$POSTER,DVSCH#=NIW$DEVSCHED,
      584     3161              TYPE#=%DV_MPC,
      585     3162              RQSTAT#="%CONCAT(%MPC_RQSTAT,%RTN_STD,'00'O,'02'O,%CC_NOBUF,'00'O)",
      586     3163             RDBIN#=
              3163                "%CONCAT(%MPC_READ_BIN,%RTN_BADFC_IOERR,%MPC_INIT_READ,'02'O,%CC_MPC,'00'O)"
              3163                 ,
      587     3164             WRBIN#=
              3164              "%CONCAT(%MPC_WRITE_BIN,%RTN_BADFC_IOERR,%MPC_INIT_WRITE,'02'O,%CC_MPC,'00'O)"
              3164                 ,
      588     3165             RDASC#=
              3165                "%CONCAT(%MPC_READ_ASC,%RTN_BADFC_IOERR,%MPC_INIT_READ,'02'O,%CC_MPC,'00'O)"
              3165                 ,
      589     3166             WRASC#=
PL6.E3A0      #001=NI_DVTS_D File=NI_DVTS_D.:E05TSI                              WED 07/30/97 03:42 Page:63
              3166              "%CONCAT(%MPC_WRITE_ASC,%RTN_BADFC_IOERR,%MPC_INIT_WRITE,'02'O,%CC_MPC,'00'O)"
              3166                 ,
      590     3167              RESET#="%CONCAT(%MPC_RESET,%RTN_STD,'00'O,'02'O,%CC_NOBUF,'00'O)",
      591     3168              MODEL#="'URPEURP','URP8011','URP8012','URP8013','URP8600','URP8601'",
      592     3169              FWNAME#='NONE');
              3170    1   DCL 1 NI_UCDVT2 CONSTANT SYMDEF ALIGNED,
              3171    1         2 SCHED EPTR INIT(ENTADDR(NIW$REQSCHED)),
              3172    1         2 POSTER EPTR INIT(ENTADDR(NIW$POSTER)),
              3173    1         2 DVSCH EPTR INIT(ENTADDR(NIW$DEVSCHED)),
              3174    1         2 MODEL(0:9) CHAR(8) ALIGNED INIT('URPEURP','URP8011','URP8012','URP8013',
              3174                  'URP8600','URP8601',' '*0),
              3175    1         2 FEATURE(0:9) CHAR(8) ALIGNED INIT(' ',' ',' '*0),
              3176    1         2 TYPE UBIN(9) UNAL INIT(7),
              3177    1         2 NT@DCYLS UBIN(9) UNAL INIT(0),
              3178    1         2 SPT UBIN(9) UNAL INIT(0),
              3179    1         2 GRANSIZE UBIN(9) UNAL INIT(0),
              3180    1         2 PACKSIZE UBIN(36) UNAL INIT(0),
              3181    1         2 CYLSIZE UBIN(18) UNAL INIT(0),
              3182    1         2 T@DCYL UBIN(18) UNAL INIT(0),
              3183    1         2 SECSIZE UBIN(18) UNAL INIT(0),
              3184    1         2 ATTR BIT(18) UNAL INIT('0'B),
              3185    1         2 MPC ALIGNED,
              3186    1           3 FWNAME CHAR(4) INIT('NONE'),
              3187    1           3 LPNAME CHAR(4) INIT(' '),
              3188    1           3 CRPNAME CHAR(4) INIT(' '),
              3189    1         2 LP REDEF MPC ALIGNED,
              3190    1           3 CHAIN CHAR(4),
              3191    1           3 *(0:1) UBIN,
              3192    1         2 IDCW ALIGNED,
              3193    1           3 DCWLIST BIT(36) INIT('0003'O),
              3194    1           3 RQSTAT BIT(36) INIT('000200020200'O),
              3195    1           3 RDBIN BIT(36) INIT('220106024000'O),
              3196    1           3 WRBIN BIT(36) INIT('320116024000'O),
              3197    1           3 RDASC BIT(36) INIT('020106024000'O),
              3198    1           3 WRASC BIT(36) INIT('120116024000'O),
              3199    1           3 REWIND BIT(36) INIT('0'B),
              3200    1           3 WRCMP BIT(36) INIT('0'B),
PL6.E3A0      #001=NI_DVTS_D File=NI_DVTS_D.:E05TSI                              WED 07/30/97 03:42 Page:64
              3201    1           3 UNLOAD BIT(36) INIT('0'B),
              3202    1           3 ALARM BIT(36) INIT('0'B),
              3203    1           3 WRFM BIT(36) INIT('0'B),
              3204    1           3 WRZERO BIT(36) INIT('0'B),
              3205    1           3 READ BIT(36) INIT('0'B),
              3206    1           3 WRITE BIT(36) INIT('0'B),
              3207    1           3 SPREC BIT(36) INIT('0'B),
              3208    1           3 SPFILE BIT(36) INIT('0'B),
              3209    1           3 PERMIT BIT(36) INIT('0'B),
              3210    1           3 PROTECT BIT(36) INIT('0'B),
              3211    1           3 RESET BIT(36) INIT('400200020200'O),
              3212    1           3 SD800 BIT(36) INIT('0'B),
              3213    1           3 SD1600 BIT(36) INIT('0'B),
              3214    1           3 SD6250 BIT(36) INIT('0'B),
              3215    1           3 LDCHAIN BIT(36) INIT('0'B),
              3216    1           3 LDTAPE BIT(36) INIT('0'B),
              3217    1           3 RESTORE BIT(36) INIT('0'B),
              3218    1           3 LDVFC BIT(36) INIT('0'B),
              3219    1           3 SYMB BIT(36) INIT('0'B),
              3220    1           3 EXTST BIT(36) INIT('0'B),
              3221    1           3 ERACE BIT(36) INIT('0'B);
      593     3223        /**/
      594     3224        /* MSOS DVT */
      595     3225        /**/
      596     3226        %DVT (NAME=NI_MSOSDVT,SCHED#=NIB$REQSCHED,POSTER#=NIB$POSTER,DVSCH#=NIB$DEVSCHED,
      597     3227              TYPE#=%DV_MS,
      598     3228              REWIND#="%CONCAT(%MS_UP,%RTN_STD,'00'O,'02'O,%CC_NOBUF,'00'O)",
      599     3229              UNLOAD#="%CONCAT(%MS_DWN,%RTN_STD,'00'O,'02'O,%CC_NOBUF,'00'O)",
      600     3230              WRITE#="%CONCAT(%MS_WR,%RTN_STD,'00'O,'02'O,%CC_UR,'00'O)",
      601     3231              READ#="%CONCAT(%MS_WR,%RTN_MSOS_DUAL,%MS_RD,'02'O,%CC_UR,'00'O)",
      602     3232              MODEL#="'MSOS'");
              3233    1   DCL 1 NI_MSOSDVT CONSTANT SYMDEF ALIGNED,
              3234    1         2 SCHED EPTR INIT(ENTADDR(NIB$REQSCHED)),
              3235    1         2 POSTER EPTR INIT(ENTADDR(NIB$POSTER)),
              3236    1         2 DVSCH EPTR INIT(ENTADDR(NIB$DEVSCHED)),
              3237    1         2 MODEL(0:9) CHAR(8) ALIGNED INIT('MSOS',' '*0),
              3238    1         2 FEATURE(0:9) CHAR(8) ALIGNED INIT(' ',' ',' '*0),
PL6.E3A0      #001=NI_DVTS_D File=NI_DVTS_D.:E05TSI                              WED 07/30/97 03:42 Page:65
              3239    1         2 TYPE UBIN(9) UNAL INIT(9),
              3240    1         2 NT@DCYLS UBIN(9) UNAL INIT(0),
              3241    1         2 SPT UBIN(9) UNAL INIT(0),
              3242    1         2 GRANSIZE UBIN(9) UNAL INIT(0),
              3243    1         2 PACKSIZE UBIN(36) UNAL INIT(0),
              3244    1         2 CYLSIZE UBIN(18) UNAL INIT(0),
              3245    1         2 T@DCYL UBIN(18) UNAL INIT(0),
              3246    1         2 SECSIZE UBIN(18) UNAL INIT(0),
              3247    1         2 ATTR BIT(18) UNAL INIT('0'B),
              3248    1         2 MPC ALIGNED,
              3249    1           3 FWNAME CHAR(4) INIT(' '),
              3250    1           3 LPNAME CHAR(4) INIT(' '),
              3251    1           3 CRPNAME CHAR(4) INIT(' '),
              3252    1         2 LP REDEF MPC ALIGNED,
              3253    1           3 CHAIN CHAR(4),
              3254    1           3 *(0:1) UBIN,
              3255    1         2 IDCW ALIGNED,
              3256    1           3 DCWLIST BIT(36) INIT('0003'O),
              3257    1           3 RQSTAT BIT(36) INIT('0'B),
              3258    1           3 RDBIN BIT(36) INIT('0'B),
              3259    1           3 WRBIN BIT(36) INIT('0'B),
              3260    1           3 RDASC BIT(36) INIT('0'B),
              3261    1           3 WRASC BIT(36) INIT('0'B),
              3262    1           3 REWIND BIT(36) INIT('010200020200'O),
              3263    1           3 WRCMP BIT(36) INIT('0'B),
              3264    1           3 UNLOAD BIT(36) INIT('000200020200'O),
              3265    1           3 ALARM BIT(36) INIT('0'B),
              3266    1           3 WRFM BIT(36) INIT('0'B),
              3267    1           3 WRZERO BIT(36) INIT('0'B),
              3268    1           3 READ BIT(36) INIT('103020020000'O),
              3269    1           3 WRITE BIT(36) INIT('100200020000'O),
              3270    1           3 SPREC BIT(36) INIT('0'B),
              3271    1           3 SPFILE BIT(36) INIT('0'B),
              3272    1           3 PERMIT BIT(36) INIT('0'B),
              3273    1           3 PROTECT BIT(36) INIT('0'B),
              3274    1           3 RESET BIT(36) INIT('0'B),
              3275    1           3 SD800 BIT(36) INIT('0'B),
PL6.E3A0      #001=NI_DVTS_D File=NI_DVTS_D.:E05TSI                              WED 07/30/97 03:42 Page:66
              3276    1           3 SD1600 BIT(36) INIT('0'B),
              3277    1           3 SD6250 BIT(36) INIT('0'B),
              3278    1           3 LDCHAIN BIT(36) INIT('0'B),
              3279    1           3 LDTAPE BIT(36) INIT('0'B),
              3280    1           3 RESTORE BIT(36) INIT('0'B),
              3281    1           3 LDVFC BIT(36) INIT('0'B),
              3282    1           3 SYMB BIT(36) INIT('0'B),
              3283    1           3 EXTST BIT(36) INIT('0'B),
              3284    1           3 ERACE BIT(36) INIT('0'B);
      603     3286        /**/
      604     3287        /* MCA DVT */
      605     3288        /**/
      606     3289        %DVT (NAME=NI_MCADVT,SCHED#=NIJ$REQSCHED,POSTER#=NIJ$POSTER,DVSCH#=NIJ$DEVSCHED,
      607     3290              TYPE#=%DV_MCA,
      608     3291              RQSTAT#="%CONCAT(%MCA_RQSTAT,%RTN_STD,'00'O,'02'O,%CC_UR,'00'O)",
              3291                  /*N* NOBUF? */
      609     3292              WRBIN#="%CONCAT(%MCA_WRD,%RTN_MCA_DUAL,%MCA_RD,'30'O,%CC_UR,'00'O)",
      610     3293              WRASC#="%CONCAT(%MCA_WRT,%RTN_MCA_DUAL,%MCA_RD,'30'O,%CC_UR,'00'O)",
      611     3294              RESET#="%CONCAT(%MCA_RESET,%RTN_STD,'00'O,'02'O,%CC_UR,'00'O)", /*N* NOBUF? */
      612     3295              MODEL#="'MCA'");
              3296    1   DCL 1 NI_MCADVT CONSTANT SYMDEF ALIGNED,
              3297    1         2 SCHED EPTR INIT(ENTADDR(NIJ$REQSCHED)),
              3298    1         2 POSTER EPTR INIT(ENTADDR(NIJ$POSTER)),
              3299    1         2 DVSCH EPTR INIT(ENTADDR(NIJ$DEVSCHED)),
              3300    1         2 MODEL(0:9) CHAR(8) ALIGNED INIT('MCA',' '*0),
              3301    1         2 FEATURE(0:9) CHAR(8) ALIGNED INIT(' ',' ',' '*0),
              3302    1         2 TYPE UBIN(9) UNAL INIT(10),
              3303    1         2 NT@DCYLS UBIN(9) UNAL INIT(0),
              3304    1         2 SPT UBIN(9) UNAL INIT(0),
              3305    1         2 GRANSIZE UBIN(9) UNAL INIT(0),
              3306    1         2 PACKSIZE UBIN(36) UNAL INIT(0),
              3307    1         2 CYLSIZE UBIN(18) UNAL INIT(0),
              3308    1         2 T@DCYL UBIN(18) UNAL INIT(0),
              3309    1         2 SECSIZE UBIN(18) UNAL INIT(0),
              3310    1         2 ATTR BIT(18) UNAL INIT('0'B),
              3311    1         2 MPC ALIGNED,
              3312    1           3 FWNAME CHAR(4) INIT(' '),
PL6.E3A0      #001=NI_DVTS_D File=NI_DVTS_D.:E05TSI                              WED 07/30/97 03:42 Page:67
              3313    1           3 LPNAME CHAR(4) INIT(' '),
              3314    1           3 CRPNAME CHAR(4) INIT(' '),
              3315    1         2 LP REDEF MPC ALIGNED,
              3316    1           3 CHAIN CHAR(4),
              3317    1           3 *(0:1) UBIN,
              3318    1         2 IDCW ALIGNED,
              3319    1           3 DCWLIST BIT(36) INIT('0003'O),
              3320    1           3 RQSTAT BIT(36) INIT('000200020000'O),
              3321    1           3 RDBIN BIT(36) INIT('0'B),
              3322    1           3 WRBIN BIT(36) INIT('153203300000'O),
              3323    1           3 RDASC BIT(36) INIT('0'B),
              3324    1           3 WRASC BIT(36) INIT('133203300000'O),
              3325    1           3 REWIND BIT(36) INIT('0'B),
              3326    1           3 WRCMP BIT(36) INIT('0'B),
              3327    1           3 UNLOAD BIT(36) INIT('0'B),
              3328    1           3 ALARM BIT(36) INIT('0'B),
              3329    1           3 WRFM BIT(36) INIT('0'B),
              3330    1           3 WRZERO BIT(36) INIT('0'B),
              3331    1           3 READ BIT(36) INIT('0'B),
              3332    1           3 WRITE BIT(36) INIT('0'B),
              3333    1           3 SPREC BIT(36) INIT('0'B),
              3334    1           3 SPFILE BIT(36) INIT('0'B),
              3335    1           3 PERMIT BIT(36) INIT('0'B),
              3336    1           3 PROTECT BIT(36) INIT('0'B),
              3337    1           3 RESET BIT(36) INIT('400200020000'O),
              3338    1           3 SD800 BIT(36) INIT('0'B),
              3339    1           3 SD1600 BIT(36) INIT('0'B),
              3340    1           3 SD6250 BIT(36) INIT('0'B),
              3341    1           3 LDCHAIN BIT(36) INIT('0'B),
              3342    1           3 LDTAPE BIT(36) INIT('0'B),
              3343    1           3 RESTORE BIT(36) INIT('0'B),
              3344    1           3 LDVFC BIT(36) INIT('0'B),
              3345    1           3 SYMB BIT(36) INIT('0'B),
              3346    1           3 EXTST BIT(36) INIT('0'B),
              3347    1           3 ERACE BIT(36) INIT('0'B);
      613     3349        /**/
      614     3350    1   END NI_DVTS_D;
PL6.E3A0      #001=NI_DVTS_D File=NI_DVTS_D.:E05TSI                              WED 07/30/97 03:42 Page:68

PL6.E3A0      #001=NI_DVTS_D File=NI_DVTS_D.:E05TSI                              WED 07/30/97 03:42 Page:69
--  Include file information  --

   TM_DATA_M.:E05TOU  is referenced.
   NI_DATA_C.:E05TOU  is referenced.
   CP_6_SUBS.:E05TOU  is referenced.
   NI_DEVCMD_C.:E05TOU  is referenced.
      No diagnostics issued in procedure NI_DVTS_D.

   No code generated for procedure NI_DVTS_D .
   Procedure NI_DVTS_D requires 4 words of local(AUTO) storage.

    No errors detected in file NI_DVTS_D.:E05TSI    .

PL6.E3A0      #001=NI_DVTS_D File=NI_DVTS_D.:E05TSI                              WED 07/30/97 03:42 Page:70

 Object Unit name= NI_DVTS_D                                  File name= NI_DVTS_D.:E05TOU
 UTS= JUL 30 '97 03:42:48.16 WED                              Compiler= PL-6/E31         Sev=      00
 SharedLib= :SHARED_SYSTEM                                    Alt SharedLib=


    ****  Control sections  ****

 Sect   Type Bound  Init  Size OctSiz  Section name(segment info)
    0  RoData even  UTS   2686   5176  NI_DVTS_D
    1   Proc  even  none     0      0  NI_DVTS_D

    ****  Entry defs  ****

                              Check   Calling
                             calling  sequence
  Sect OctLoc Primary Altret sequence   type   Parms  Name
     1      0   yes            yes     ~proc       0  NI_DVTS_D

  ****  Data defs  ****

 Sect OctLoc  Name                           Sect OctLoc  Name
    0      0  NI_SCDVT                           0    117  NI_CRDVT
    0    236  NI_CPDVT                           0    355  NI_LPDVT
    0    474  NI_LPDVT1                          0    613  NI_MTDVT
    0    732  NI_MTDVT1                          0   1051  NI_MTDVT2
    0   1170  NI_MTDVT3                          0   1307  NI_APDVT
    0   1426  NI_ACDVT                           0   1545  NI_DPDVT1
    0   1664  NI_DPDVT2                          0   2003  NI_DPDVT3
    0   2122  NI_DPDVT4                          0   2241  NI_DPDVT5
    0   2360  NI_DPDVT6                          0   2477  NI_DPDVT7
    0   2616  NI_DPDVT8                          0   2735  NI_DCDVT
    0   3054  NI_DCDVT1                          0   3173  NI_DCDVT2
    0   3312  NI_DCDVT3                          0   3431  NI_DCDVT4
    0   3550  NI_TCDVT                           0   3667  NI_TCDVT1
    0   4006  NI_TCDVT2                          0   4125  NI_TCDVT3
    0   4244  NI_TCDVT4                          0   4363  NI_UCDVT
    0   4502  NI_UCDVT1                          0   4621  NI_UCDVT2
PL6.E3A0      #001=NI_DVTS_D File=NI_DVTS_D.:E05TSI                              WED 07/30/97 03:42 Page:71
    0   4740  NI_MSOSDVT                         0   5057  NI_MCADVT

  ****  Entry refs  ****

         Check        Calling
        calling       sequence
Altret sequence SRef   type   Args  Name
         yes           Std       1 NIC$REQSCHED
         yes           Std       3 NIC$POSTER
         yes           Std       2 NIU$DEVSCHED
         yes           Std       3 NID$POSTER
         yes           Std       3 NIJ$POSTER
         yes           Std       2 NID$DEVSCHED
         yes           Std       1 NIB$REQSCHED
         yes           Std       3 NIR$POSTER
         yes           Std       3 NIL$POSTER
         yes           Std       1 NIU$REQSCHED
         yes           Std       1 NIT$REQSCHED
         yes           Std       3 NIT$POSTER
         yes           Std       3 NAP$POSTER
         yes           Std       1 NIW$REQSCHED
         yes           Std       3 NIW$POSTER
         yes           Std       3 NIP$POSTER
         yes           Std       2 NIT$DEVSCHED
         yes           Std       3 NIB$POSTER
         yes           Std       1 NIJ$DEVSCHED
         yes           Std       1 NIB$DEVSCHED
         yes           Std       1 NID$REQSCHED
         yes           Std       2 NIW$DEVSCHED
         yes           Std       1 NIJ$REQSCHED
PL6.E3A0      #001=NI_DVTS_D File=NI_DVTS_D.:E05TSI                              WED 07/30/97 03:42 Page:72


(unnamed)
 Sect OctLoc
   0     000   000000 000000   000000 000000   000000 000000   103117 116123    ............CONS
   0     004   117114 105040   123103 040040   040040 040040   114103 103040    OLE SC      LCC
   0     010   040040 040040   110117 107040   040040 040040   040040 040040        HOG
   0     014   040040 040040   040040 040040   040040 040040   040040 040040
   0     050*  040040 040040   040040 040040   040040 040040   000000 000000                ....
   0     054   000000 000000   000000 000000   000000 000000   040040 040040    ............
   0     060   040040 040040   040040 040040   000300 000000   000200 020200            ........
   0     064   000000 000000   000000 000000   230200 200000   330200 030000    ................
   0     070   000000 000000   000000 000000   000000 000000   510200 020200    ................
   0     074   000000 000000   000000 000000   330523 200000   330633 030000    ................
   0     100   000000 000000   000000 000000   000000 000000   000000 000000    ................
   0     104   400200 020200   000000 000000   000000 000000   000000 000000    ................
   0     110   000000 000000   000000 000000   000000 000000   000000 000000    ................
   0     120*  000000 000000   000000 000000   103122 125061   060065 060040    ........CRU1050
   0     124   103122 125060   065060 061040   103122 040040   040040 040040    CRU0501 CR
   0     130   040040 040040   040040 040040   040040 040040   040040 040040
   0     170*  040040 040040   040040 040040   001000 000000   000000 000000            ........
   0     174   000000 000000   000000 000043   040040 040040   040040 040040    .......#
   0     200   040040 040040   000300 000000   000200 020200   000000 000000        ............
   0     204   000000 000000   000000 000000   000000 000000   000000 000000    ................
   0     214*  000000 000000   100200 020000   000000 000000   000000 000000    ....@...........
   0     220   000000 000000   000000 000000   000000 000000   400200 020200    ................
   0     224   000000 000000   000000 000000   000000 000000   000000 000000    ................
   0     234*  000700 000000   000000 000000   000000 000000   000000 000000    ................
   0     240   000000 000000   120103 125060   061062 061040   120103 125060    ....PCU0121 PCU0
   0     244   061062 060040   103120 040040   040040 040040   040040 040040    120 CP
   0     250   040040 040040   040040 040040   040040 040040   040040 040040
   0     310*  040040 040040   002000 000000   000000 000000   000000 000000        ............
   0     314   000000 000043   040040 040040   040040 040040   040040 040040    ...#
   0     320   000300 000000   000200 020200   000000 000000   160200 020000    ............p...
   0     324   000000 000000   170200 020000   000000 000000   000000 000000    ....x...........
   0     330   000000 000000   000000 000000   171100 020000   000000 000000    ........y@......
   0     334   000000 000000   171216 020000   000000 000000   000000 000000    ....y...........
   0     340   000000 000000   000000 000000   400200 020200   000000 000000    ................
PL6.E3A0      #001=NI_DVTS_D File=NI_DVTS_D.:E05TSI                              WED 07/30/97 03:42 Page:73
   0     344   000000 000000   000000 000000   000000 000000   000000 000000    ................
   0     350   000000 000000   000000 000000   170416 000000   001000 000000    ........x.......
   0     354   000000 000000   000000 000000   000000 000000   000000 000000    ................
   0     360   120122 125061   062060 060040   120122 125061   066060 060040    PRU1200 PRU1600
   0     364   120122 125060   071060 061040   120122 125060   071060 063040    PRU0901 PRU0903
   0     370   120122 125060   071060 070040   120122 125061   062060 061040    PRU0908 PRU1201
   0     374   120122 125061   062060 063040   120122 125061   062060 070040    PRU1203 PRU1208
   0     400   114120 040040   040040 040040   040040 040040   040040 040040    LP
   0     404   040040 040040   040040 040040   120122 102060   066060 060040            PRB0600
   0     410   120122 102063   066060 060040   040040 040040   040040 040040    PRB3600
   0     414   040040 040040   040040 040040   040040 040040   040040 040040
   0     430*  003000 000000   000000 000000   000000 000000   000000 000051    ...............)
   0     434   066060 060040   040040 040040   040040 040040   000300 000000    600         ....
   0     440   000200 020200   000000 000000   000000 000000   000000 000000    ................
   0     444   601564 020000   000000 000000   000000 000000   000000 000000    ................
   0     450   000000 000000   000000 000000   000000 000000   000000 000000    ................
   0     454   601564 020000   000000 000000   000000 000000   000000 000000    ................
   0     460   000000 000000   400200 020200   000000 000000   000000 000000    ................
   0     464   000000 000000   011300 020000   000000 000000   000000 000000    ................
   0     470   051400 020000   600464 050001   030200 020000   000000 000000    ).....(.........
   0     474   000000 000000   000000 000000   000000 000000   120122 125061    ............PRU1
   0     500   062060 060040   120122 125061   066060 060040   120122 125060    200 PRU1600 PRU0
   0     504   071060 061040   120122 125060   071060 063040   120122 125060    901 PRU0903 PRU0
   0     510   071060 070040   120122 125061   062060 061040   120122 125061    908 PRU1201 PRU1
   0     514   062060 063040   120122 125061   062060 070040   114120 040040    203 PRU1208 LP
   0     520   040040 040040   040040 040040   040040 040040   040040 040040
   0     524   040040 040040   120122 102060   065060 060040   120122 102060        PRB0500 PRB0
   0     530   065061 063040   120122 102060   065062 064040   120122 102063    513 PRB0524 PRB3
   0     534   065060 060040   120122 102063   065061 063040   120122 102063    500 PRB3513 PRB3
   0     540   065062 064040   040040 040040   040040 040040   040040 040040    524
   0     544   040040 040040   040040 040040   040040 040040   003000 000000                ....
   0     550   000000 000000   000000 000000   000000 000050   065060 060040    ...........(500
   0     554   040040 040040   040040 040040   000300 000000   000200 020200            ........
   0     560   000000 000000   000000 000000   000000 000000   601564 020000    ................
   0     564   000000 000000   000000 000000   000000 000000   000000 000000    ................
   0     570   000000 000000   000000 000000   000000 000000   601564 020000    ................
   0     574   000000 000000   000000 000000   000000 000000   000000 000000    ................
PL6.E3A0      #001=NI_DVTS_D File=NI_DVTS_D.:E05TSI                              WED 07/30/97 03:42 Page:74
   0     600   400200 020200   000000 000000   000000 000000   000000 000000    ................
   0     604   011300 020000   000000 000000   000000 000000   051400 020000    ............)...
   0     610   600464 050001   030200 020000   000000 000000   000000 000000    ..(.............
   0     614   000000 000000   000000 000000   115124 125060   066061 060040    ........MTU0610
   0     620   115124 125060   066063 060040   040040 040040   040040 040040    MTU0630
   0     624   040040 040040   040040 040040   040040 040040   040040 040040
   0     644*  115124 106060   066060 065040   115124 106060   066060 067040    MTF0605 MTF0607
   0     650   115124 106060   066063 064040   115124 106060   066063 066040    MTF0634 MTF0636
   0     654   040040 040040   040040 040040   040040 040040   040040 040040
   0     664*  040040 040040   040040 040040   004000 000000   000000 000000            ........
   0     670   000000 000000   000000 300000   040040 040040   040040 040040    ........
   0     674   040040 040040   000300 000000   000200 020200   050200 020000        ........(...
   0     700   150200 020000   030200 020000   132200 020000   700200 020200    h.......Z.......
   0     704   000000 000000   720200 020200   000000 000000   550200 020200    ................
   0     710   000000 000000   032005 020000   132115 020000   441646 400201    ........ZM......
   0     714   441746 400277   630200 020200   620200 020200   400200 020200    ................
   0     720   600200 020200   650200 020200   410100 020200   000000 000000    .........@......
   0     724   750200 020200   000000 000000   000000 000000   000000 000000    ................
   0     730   500200 020000   540200 020200   000000 000000   000000 000000    ................
   0     734   000000 000000   115124 125060   066061 060040   115124 125060    ....MTU0610 MTU0
   0     740   066063 060040   040040 040040   040040 040040   040040 040040    630
   0     744   040040 040040   040040 040040   040040 040040   040040 040040
   0     760*  040040 040040   040040 040040   040040 040040   115124 106060                MTF0
   0     764   066060 070040   115124 106060   066063 065040   115124 106060    608 MTF0635 MTF0
   0     770   066063 067040   040040 040040   040040 040040   040040 040040    637
   0     774   040040 040040   040040 040040   040040 040040   040040 040040
   0    1004*  040040 040040   004000 000000   000000 000000   000000 000000        ............
   0    1010   000000 600000   040040 040040   040040 040040   040040 040040    ....
   0    1014   000300 000000   000200 020200   050200 020000   150200 020000    ........(...h...
   0    1020   030200 020000   132200 020000   700200 020200   000000 000000    ....Z...........
   0    1024   720200 020200   000000 000000   550200 020200   000000 000000    ................
   0    1030   032005 020000   132115 020000   441646 400201   441746 400277    ....ZM..........
   0    1034   630200 020200   620200 020200   400200 020200   600100 020200    .............@..
   0    1040   650200 020200   410200 020200   000000 000000   750200 020200    ................
   0    1044   000000 000000   000000 000000   000000 000000   500200 020000    ................
   0    1050   540200 020200   000000 000000   000000 000000   000000 000000    ................
   0    1054   115124 125070   062060 060040   040040 040040   040040 040040    MTU8200
PL6.E3A0      #001=NI_DVTS_D File=NI_DVTS_D.:E05TSI                              WED 07/30/97 03:42 Page:75
   0    1060   040040 040040   040040 040040   040040 040040   040040 040040
   0    1100*  040040 040040   040040 040040   115124 106070   062060 065040            MTF8205
   0    1104   040040 040040   040040 040040   040040 040040   040040 040040
   0    1124*  004000 000000   000000 000000   000000 000000   000000 300000    ................
   0    1130   040040 040040   040040 040040   040040 040040   000300 000000                ....
   0    1134   000200 020200   050200 020000   150200 020000   030200 020000    ....(...h.......
   0    1140   132200 020000   700200 020200   000000 000000   720200 020200    Z...............
   0    1144   000000 000000   550200 020200   000000 000000   032005 020000    ................
   0    1150   132115 020000   441646 400201   441746 400277   633100 020200    ZM...........@..
   0    1154   623100 020200   400200 020200   600200 020200   650200 020200    .@..............
   0    1160   410100 020200   000000 000000   750100 020200   000000 000000    .@.......@......
   0    1164   000000 000000   000000 000000   500100 020000   540200 020200    .........@......
   0    1170   000000 000000   000000 000000   000000 000000   115124 125070    ............MTU8
   0    1174   062060 060040   040040 040040   040040 040040   040040 040040    200
   0    1200   040040 040040   040040 040040   040040 040040   040040 040040
   0    1220*  040040 040040   115124 106070   062060 066040   115124 106070        MTF8206 MTF8
   0    1224   062060 070040   040040 040040   040040 040040   040040 040040    208
   0    1230   040040 040040   040040 040040   040040 040040   040040 040040
   0    1240*  040040 040040   040040 040040   040040 040040   004000 000000                ....
   0    1244   000000 000000   000000 000000   000000 600000   040040 040040    ............
   0    1250   040040 040040   040040 040040   000300 000000   000200 020200            ........
   0    1254   050200 020000   150200 020000   030200 020000   132200 020000    (...h.......Z...
   0    1260   700200 020200   000000 000000   720200 020200   000000 000000    ................
   0    1264   550200 020200   000000 000000   032005 020000   132115 020000    ............ZM..
   0    1270   441646 400201   441746 400277   633100 020200   623100 020200    .........@...@..
   0    1274   400200 020200   600100 020200   650200 020200   410200 020200    .....@..........
   0    1300   000000 000000   750100 020200   000000 000000   000000 000000    .....@..........
   0    1304   000000 000000   500100 020000   540200 020200   000000 000000    .....@..........
   0    1310   000000 000000   000000 000000   106120 123060   061066 064040    ........FPS0164
   0    1314   040040 040040   040040 040040   040040 040040   040040 040040
   0    1340*  123106 123066   061062 065040   040040 040040   040040 040040    SFS6125
   0    1344   040040 040040   040040 040040   040040 040040   040040 040040
   0    1360*  040040 040040   040040 040040   010000 000000   000000 000000            ........
   0    1364   000000 000000   000000 000000   040040 040040   040040 040040    ........
   0    1370   040040 040040   002700 000000   000000 000000   000000 000000        ............
   0    1374   000000 000000   000000 000000   000000 000000   000000 000000    ................
   0    1430*  000000 000000   106120 123060   061066 064103   040040 040040    ....FPS0164C
PL6.E3A0      #001=NI_DVTS_D File=NI_DVTS_D.:E05TSI                              WED 07/30/97 03:42 Page:76
   0    1434   040040 040040   040040 040040   040040 040040   040040 040040
   0    1500*  040040 040040   007000 000000   000000 000000   000000 000000        ............
   0    1504   000000 000000   116117 116105   040040 040040   040040 040040    ....NONE
   0    1510   002700 000000   000000 000000   000000 000000   000000 000000    ................
   0    1514   000000 000000   000000 000000   000000 000000   000000 000000    ................
   0    1550*  115123 125060   064065 061040   040040 040040   040040 040040    MSU0451
   0    1554   040040 040040   040040 040040   040040 040040   040040 040040
   0    1574*  040040 040040   040040 040040   115123 106060   060060 067040            MSF0007
   0    1600   040040 040040   040040 040040   040040 040040   040040 040040
   0    1620*  006001 050020   000000 113411   001370 001456   000100 010000    ..(...K......@..
   0    1624   040040 040040   040040 040040   040040 040040   000300 000000                ....
   0    1630   000200 020200   342325 020000   342331 020000   342323 020000    ................
   0    1634   342332 020000   000000 000000   342333 020000   720200 020200    ................
   0    1640   000000 000000   000000 000000   342431 020000   000000 000000    ................
   0    1644   000000 000000   000000 000000   000000 000000   000000 000000    ................
   0    1654*  000000 000000   000000 000000   000000 000000   420200 020200    ................
   0    1660   000000 000000   000000 000000   220200 020000   000000 000000    ................
   0    1664   000000 000000   000000 000000   000000 000000   115123 125060    ............MSU0
   0    1670   065060 061040   115123 125060   065060 071040   040040 040040    501 MSU0509
   0    1674   040040 040040   040040 040040   040040 040040   040040 040040
   0    1714*  040040 040040   115123 106060   060061 065040   040040 040040        MSF0015
   0    1720   040040 040040   040040 040040   040040 040040   040040 040040
   0    1734*  040040 040040   040040 040040   040040 040040   006001 010002                ....
   0    1740   000000 406400   000500 001511   001000 040000   040040 040040    .......... .
   0    1744   040040 040040   040040 040040   000300 000000   000200 020200            ........
   0    1750   302325 020000   302331 020000   302323 020000   302332 020000    ................
   0    1754   000000 000000   302333 020000   720200 020200   000000 000000    ................
   0    1760   000000 000000   302431 020000   000000 000000   000000 000000    ................
   0    1764   000000 000000   000000 000000   000000 000000   000000 000000    ................
   0    1774*  000000 000000   000000 000000   420200 020200   000000 000000    ................
   0    2000   000000 000000   220200 020000   000000 000000   000000 000000    ................
   0    2004   000000 000000   000000 000000   115123 125060   065060 061040    ........MSU0501
   0    2010   040040 040040   040040 040040   040040 040040   040040 040040
   0    2034*  115123 106130   130130 130040   040040 040040   040040 040040    MSFXXXX
   0    2040   040040 040040   040040 040040   040040 040040   040040 040040
   0    2054*  040040 040040   040040 040040   006001 010002   000000 203200            ........
   0    2060   000240 001511   001000 040000   040040 040040   040040 040040    ...... .
PL6.E3A0      #001=NI_DVTS_D File=NI_DVTS_D.:E05TSI                              WED 07/30/97 03:42 Page:77
   0    2064   040040 040040   000300 000000   000200 020200   302325 020000        ............
   0    2070   302331 020000   302323 020000   302332 020000   000000 000000    ................
   0    2074   302333 020000   720200 020200   000000 000000   000000 000000    ................
   0    2100   302431 020000   000000 000000   000000 000000   000000 000000    ................
   0    2104   000000 000000   000000 000000   000000 000000   000000 000000    ................
   0    2114*  000000 000000   420200 020200   000000 000000   000000 000000    ................
   0    2120   220200 020000   000000 000000   000000 000000   000000 000000    ................
   0    2124   000000 000000   115123 125063   063070 060040   115123 125063    ....MSU3380 MSU3
   0    2130   063070 062040   115123 125063   063071 060040   115123 125063    382 MSU3390 MSU3
   0    2134   063071 062040   040040 040040   040040 040040   040040 040040    392
   0    2140   040040 040040   040040 040040   040040 040040   040040 040040
   0    2174*  040040 040040   006001 021002   000000 334305   000377 001566        ............
   0    2200   001000 002000   040040 040040   040040 040040   040040 040040    ....
   0    2204   000300 000000   000200 020200   302325 040000   302331 040000    .......... ... .
   0    2210   302323 040000   302332 040000   000000 000000   302333 020000    .. ... .........
   0    2214   720100 020200   000000 000000   000000 000000   302431 020000    .@..............
   0    2220   000000 000000   000000 000000   000000 000000   000000 000000    ................
   0    2234*  420200 020200   000000 000000   000000 000000   220100 020000    .............@..
   0    2240   000000 000000   000000 000000   000000 000000   000000 000000    ................
   0    2244   115123 125063   063070 061040   115123 125063   063070 063040    MSU3381 MSU3383
   0    2250   040040 040040   040040 040040   040040 040040   040040 040040
   0    2314*  006001 021002   000000 670613   000377 003353   001000 001000    ................
   0    2320   040040 040040   040040 040040   040040 040040   000300 000000                ....
   0    2324   000200 020200   302325 040000   302331 040000   302323 040000    ...... ... ... .
   0    2330   302332 040000   000000 000000   302333 020000   720100 020200    .. ..........@..
   0    2334   000000 000000   000000 000000   302431 020000   000000 000000    ................
   0    2340   000000 000000   000000 000000   000000 000000   000000 000000    ................
   0    2350*  000000 000000   000000 000000   000000 000000   420200 020200    ................
   0    2354   000000 000000   000000 000000   220100 020000   000000 000000    .........@......
   0    2360   000000 000000   000000 000000   000000 000000   115123 125063    ............MSU3
   0    2364   063071 061040   115123 125063   063071 063040   040040 040040    391 MSU3393
   0    2370   040040 040040   040040 040040   040040 040040   040040 040040
   0    2430*  040040 040040   040040 040040   040040 040040   006001 021002                ....
   0    2434   000001 225120   000377 005142   001000 020000   040040 040040    ...P...b....
   0    2440   040040 040040   040040 040040   000300 000000   000200 020200            ........
   0    2444   302325 040000   302331 040000   302323 040000   302332 040000    .. ... ... ... .
   0    2450   000000 000000   302333 020000   720100 020200   000000 000000    .........@......
PL6.E3A0      #001=NI_DVTS_D File=NI_DVTS_D.:E05TSI                              WED 07/30/97 03:42 Page:78
   0    2454   000000 000000   302431 020000   000000 000000   000000 000000    ................
   0    2460   000000 000000   000000 000000   000000 000000   000000 000000    ................
   0    2470*  000000 000000   000000 000000   420200 020200   000000 000000    ................
   0    2474   000000 000000   220100 020000   000000 000000   000000 000000    .....@..........
   0    2500   000000 000000   000000 000000   115123 125070   060070 062040    ........MSU8082
   0    2504   040040 040040   040040 040040   040040 040040   040040 040040
   0    2530*  115123 123070   060070 060040   115123 106070   060070 060040    MSS8080 MSF8080
   0    2534   040040 040040   040040 040040   040040 040040   040040 040040
   0    2550*  040040 040040   040040 040040   006001 013002   000000 265174            .......|
   0    2554   000410 001304   001000 004000   040040 040040   040040 040040    ........
   0    2560   040040 040040   000300 000000   000200 070200   302325 070000        ......8...8.
   0    2564   302331 070000   302323 070000   302332 070000   000000 000000    ..8...8...8.....
   0    2570   302333 070000   720100 070200   000000 000000   000000 000000    ..8..@8.........
   0    2574   302431 070000   000000 000000   000000 000000   000000 000000    ..8.............
   0    2600   000000 000000   000000 000000   000000 000000   000000 000000    ................
   0    2610*  000000 000000   420200 070200   000000 000000   000000 000000    ......8.........
   0    2614   220100 070000   000000 000000   000000 000000   000000 000000    .@8.............
   0    2620   000000 000000   115123 125070   060071 062040   040040 040040    ....MSU8092
   0    2624   040040 040040   040040 040040   040040 040040   040040 040040
   0    2644*  040040 040040   040040 040040   040040 040040   115123 123070                MSS8
   0    2650   060071 060040   115123 106070   060071 060040   040040 040040    090 MSF8090
   0    2654   040040 040040   040040 040040   040040 040040   040040 040040
   0    2670*  040040 040040   006001 023002   000000 704647   000435 003140        ...........`
   0    2674   001000 100000   040040 040040   040040 040040   040040 040040    ..@.
   0    2700   000300 000000   000200 070200   302325 070000   302331 070000    ......8...8...8.
   0    2704   302323 070000   302332 070000   000000 000000   302333 070000    ..8...8.......8.
   0    2710   720100 070200   000000 000000   000000 000000   302431 070000    .@8...........8.
   0    2714   000000 000000   000000 000000   000000 000000   000000 000000    ................
   0    2730*  420200 070200   000000 000000   000000 000000   220100 070000    ..8..........@8.
   0    2734   000000 000000   000000 000000   000000 000000   000000 000000    ................
   0    2740   115123 120060   061071 061040   115123 120060   064065 060040    MSP0191 MSP0450
   0    2744   040040 040040   040040 040040   040040 040040   040040 040040
   0    3010*  007000 000000   000000 000000   000000 000000   000000 000000    ................
   0    3014   115061 071061   040040 040040   040040 040040   000300 000000    M191        ....
   0    3020   000200 020200   222506 024000   322616 024000   022506 024000    ................
   0    3024   122616 024000   000000 000000   000000 000000   000000 000000    R...............
   0    3030   000000 000000   000000 000000   000000 000000   000000 000000    ................
PL6.E3A0      #001=NI_DVTS_D File=NI_DVTS_D.:E05TSI                              WED 07/30/97 03:42 Page:79
   0    3040*  000000 000000   400200 020200   000000 000000   000000 000000    ................
   0    3044   000000 000000   000000 000000   000000 000000   000000 000000    ................
   0    3054*  000000 000000   000000 000000   000000 000000   115123 120060    ............MSP0
   0    3060   066060 060040   115123 120060   066061 061040   115123 120060    600 MSP0611 MSP0
   0    3064   066061 062040   115123 120070   060060 060040   115123 120070    612 MSP8000 MSP8
   0    3070   060060 061040   040040 040040   040040 040040   040040 040040    001
   0    3074   040040 040040   040040 040040   040040 040040   040040 040040
   0    3124*  040040 040040   040040 040040   040040 040040   007000 000000                ....
   0    3130   000000 000000   000000 000000   000000 000000   104065 060060    ............D500
   0    3134   040040 040040   040040 040040   000300 000000   000200 020200            ........
   0    3140   222506 024000   322616 024000   022506 024000   122616 024000    ............R...
   0    3144   000000 000000   000000 000000   000000 000000   000000 000000    ................
   0    3160*  400200 020200   000000 000000   000000 000000   000000 000000    ................
   0    3164   000000 000000   000000 000000   000000 000000   000000 000000    ................
   0    3174*  000000 000000   000000 000000   115123 120070   060062 061040    ........MSP8021
   0    3200   115123 120070   060062 062040   115123 120070   060062 063040    MSP8022 MSP8023
   0    3204   040040 040040   040040 040040   040040 040040   040040 040040
   0    3244*  040040 040040   040040 040040   007000 000000   000000 000000            ........
   0    3250   000000 000000   000000 000000   115123 120070   040040 040040    ........MSP8
   0    3254   040040 040040   000300 000000   000200 020200   222506 024000        ............
   0    3260   322616 024000   022506 024000   122616 024000   000000 000000    ........R.......
   0    3264   000000 000000   000000 000000   000000 000000   000000 000000    ................
   0    3274*  000000 000000   000000 000000   000000 000000   400200 020200    ................
   0    3300   000000 000000   000000 000000   000000 000000   000000 000000    ................
   0    3314*  000000 000000   115123 120063   070070 061040   115123 120063    ....MSP3881 MSP3
   0    3320   070070 065040   115123 120063   070070 062040   115123 120063    885 MSP3882 MSP3
   0    3324   070070 066040   115123 120063   071071 061040   115123 120063    886 MSP3991 MSP3
   0    3330   071071 063040   115123 120063   071071 062040   115123 120063    993 MSP3992 MSP3
   0    3334   071071 064040   040040 040040   040040 040040   040040 040040    994
   0    3340   040040 040040   040040 040040   040040 040040   040040 040040
   0    3364*  040040 040040   007000 000000   000000 000000   000000 000000        ............
   0    3370   000000 000000   104063 070070   040040 040040   040040 040040    ....D388
   0    3374   000300 000000   000200 020200   220106 024000   320116 024000    .........F...N..
   0    3400   022506 024000   122616 024000   000000 000000   000000 000000    ....R...........
   0    3404   000000 000000   000000 000000   000000 000000   000000 000000    ................
   0    3414*  000000 000000   000000 000000   400200 020200   000000 000000    ................
   0    3420   000000 000000   000000 000000   000000 000000   000000 000000    ................
PL6.E3A0      #001=NI_DVTS_D File=NI_DVTS_D.:E05TSI                              WED 07/30/97 03:42 Page:80
   0    3434*  115123 123070   060070 060040   115123 123070   060071 060040    MSS8080 MSS8090
   0    3440   115123 120070   060070 060040   115123 120070   060071 060040    MSP8080 MSP8090
   0    3444   040040 040040   040040 040040   040040 040040   040040 040040
   0    3504*  007000 000000   000000 000000   000000 000000   000000 000000    ................
   0    3510   111111 104113   040040 040040   040040 040040   000300 000000    IIDK        ....
   0    3514   000200 020200   000000 000000   000000 000000   022506 024000    ................
   0    3520   122616 024000   000000 000000   000000 000000   000000 000000    R...............
   0    3524   000000 000000   000000 000000   000000 000000   000000 000000    ................
   0    3550*  000000 000000   000000 000000   000000 000000   115124 120060    ............MTP0
   0    3554   066060 061040   115124 120070   060062 061040   115124 120070    601 MTP8021 MTP8
   0    3560   060062 062040   115124 120070   060062 063040   040040 040040    022 MTP8023
   0    3564   040040 040040   040040 040040   040040 040040   040040 040040
   0    3620*  040040 040040   040040 040040   040040 040040   007000 000000                ....
   0    3624   000000 000000   000000 000000   000000 000000   115066 060061    ............M601
   0    3630   040040 040040   040040 040040   000300 000000   000200 020200            ........
   0    3634   222506 024000   322616 024000   022506 024000   122616 024000    ............R...
   0    3640   000000 000000   000000 000000   000000 000000   000000 000000    ................
   0    3654*  400200 020200   000000 000000   000000 000000   000000 000000    ................
   0    3660   000000 000000   000000 000000   000000 000000   000000 000000    ................
   0    3670*  000000 000000   000000 000000   115124 120060   066061 060040    ........MTP0610
   0    3674   115124 120060   066061 061040   040040 040040   040040 040040    MTP0611
   0    3700   040040 040040   040040 040040   040040 040040   040040 040040
   0    3740*  040040 040040   040040 040040   007000 000000   000000 000000            ........
   0    3744   000000 000000   000000 000000   115066 061060   040040 040040    ........M610
   0    3750   040040 040040   000300 000000   000200 020200   222506 024000        ............
   0    3754   322616 024000   022506 024000   122616 024000   000000 000000    ........R.......
   0    3760   000000 000000   000000 000000   000000 000000   000000 000000    ................
   0    3770*  000000 000000   000000 000000   000000 000000   400200 020200    ................
   0    3774   000000 000000   000000 000000   000000 000000   000000 000000    ................
   0    4010*  000000 000000   115124 120124   120125 122040   115106 120070    ....MTPTPUR MFP8
   0    4014   060060 060124   115106 120070   060060 061124   115124 120070    000TMFP8001TMTP8
   0    4020   060060 060040   115124 120070   060060 061040   040040 040040    000 MTP8001
   0    4024   040040 040040   040040 040040   040040 040040   040040 040040
   0    4060*  040040 040040   007000 000000   000000 000000   000000 000000        ............
   0    4064   000000 000000   124120 125122   040040 040040   040040 040040    ....TPUR
   0    4070   000300 000000   000200 020200   222506 024000   322616 024000    ................
   0    4074   022506 024000   122616 024000   000000 000000   000000 000000    ....R...........
PL6.E3A0      #001=NI_DVTS_D File=NI_DVTS_D.:E05TSI                              WED 07/30/97 03:42 Page:81
   0    4100   000000 000000   000000 000000   000000 000000   000000 000000    ................
   0    4110*  000000 000000   000000 000000   400200 020200   000000 000000    ................
   0    4114   000000 000000   000000 000000   000000 000000   000000 000000    ................
   0    4130*  156157 164165   163145 144040   040040 040040   040040 040040    notused
   0    4134   040040 040040   040040 040040   040040 040040   040040 040040
   0    4200*  007000 000000   000000 000000   000000 000000   000000 000000    ................
   0    4204   115066 060061   040040 040040   040040 040040   000300 000000    M601        ....
   0    4210   000200 020200   222506 024000   322616 024000   022506 024000    ................
   0    4214   122616 024000   000000 000000   000000 000000   000000 000000    R...............
   0    4220   000000 000000   000000 000000   000000 000000   000000 000000    ................
   0    4230*  000000 000000   400200 020200   000000 000000   000000 000000    ................
   0    4234   000000 000000   000000 000000   000000 000000   000000 000000    ................
   0    4244*  000000 000000   000000 000000   000000 000000   115124 120070    ............MTP8
   0    4250   062061 065040   115124 120070   062061 066040   115124 120070    215 MTP8216 MTP8
   0    4254   062061 070040   115124 120070   062062 065040   115124 120070    218 MTP8225 MTP8
   0    4260   062062 066040   115124 120070   062062 070040   040040 040040    226 MTP8228
   0    4264   040040 040040   040040 040040   040040 040040   040040 040040
   0    4314*  040040 040040   040040 040040   040040 040040   007000 000000                ....
   0    4320   000000 000000   000000 000000   000000 000000   115064 066060    ............M460
   0    4324   040040 040040   040040 040040   000300 000000   000200 020200            ........
   0    4330   220106 024000   320116 024000   022506 024000   122616 024000    .F...N......R...
   0    4334   000000 000000   000000 000000   000000 000000   000000 000000    ................
   0    4350*  400200 020200   000000 000000   000000 000000   000000 000000    ................
   0    4354   000000 000000   000000 000000   000000 000000   000000 000000    ................
   0    4364*  000000 000000   000000 000000   125122 120060   066060 060040    ........URP0600
   0    4370   125122 120060   066060 061040   125122 120060   066060 062040    URP0601 URP0602
   0    4374   125122 120070   060060 060040   040040 040040   040040 040040    URP8000
   0    4400   040040 040040   040040 040040   040040 040040   040040 040040
   0    4434*  040040 040040   040040 040040   007000 000000   000000 000000            ........
   0    4440   000000 000000   000000 000000   125103 115116   125064 060060    ........UCMNU400
   0    4444   125103 122120   000300 000000   000200 020200   222506 024000    UCRP............
   0    4450   322616 024000   022506 024000   122616 024000   000000 000000    ........R.......
   0    4454   000000 000000   000000 000000   000000 000000   000000 000000    ................
   0    4464*  000000 000000   000000 000000   000000 000000   400200 020200    ................
   0    4470   000000 000000   000000 000000   000000 000000   000000 000000    ................
   0    4504*  000000 000000   125122 120125   122124 120040   115106 120070    ....URPURTP MFP8
   0    4510   060060 060125   115106 120070   060060 061125   040040 040040    000UMFP8001U
PL6.E3A0      #001=NI_DVTS_D File=NI_DVTS_D.:E05TSI                              WED 07/30/97 03:42 Page:82
   0    4514   040040 040040   040040 040040   040040 040040   040040 040040
   0    4554*  040040 040040   007000 000000   000000 000000   000000 000000        ............
   0    4560   000000 000000   125122 124120   125064 060060   125103 122120    ....URTPU400UCRP
   0    4564   000300 000000   000200 020200   222506 024000   322616 024000    ................
   0    4570   022506 024000   122616 024000   000000 000000   000000 000000    ....R...........
   0    4574   000000 000000   000000 000000   000000 000000   000000 000000    ................
   0    4604*  000000 000000   000000 000000   400200 020200   000000 000000    ................
   0    4610   000000 000000   000000 000000   000000 000000   000000 000000    ................
   0    4624*  125122 120105   125122 120040   125122 120070   060061 061040    URPEURP URP8011
   0    4630   125122 120070   060061 062040   125122 120070   060061 063040    URP8012 URP8013
   0    4634   125122 120070   066060 060040   125122 120070   066060 061040    URP8600 URP8601
   0    4640   040040 040040   040040 040040   040040 040040   040040 040040
   0    4674*  007000 000000   000000 000000   000000 000000   000000 000000    ................
   0    4700   116117 116105   040040 040040   040040 040040   000300 000000    NONE        ....
   0    4704   000200 020200   220106 024000   320116 024000   020106 024000    .....F...N...F..
   0    4710   120116 024000   000000 000000   000000 000000   000000 000000    PN..............
   0    4714   000000 000000   000000 000000   000000 000000   000000 000000    ................
   0    4724*  000000 000000   400200 020200   000000 000000   000000 000000    ................
   0    4730   000000 000000   000000 000000   000000 000000   000000 000000    ................
   0    4740*  000000 000000   000000 000000   000000 000000   115123 117123    ............MSOS
   0    4744   040040 040040   040040 040040   040040 040040   040040 040040
   0    5010*  040040 040040   040040 040040   040040 040040   011000 000000                ....
   0    5014   000000 000000   000000 000000   000000 000000   040040 040040    ............
   0    5020   040040 040040   040040 040040   000300 000000   000000 000000            ........
   0    5024   000000 000000   000000 000000   000000 000000   000000 000000    ................
   0    5030   010200 020200   000000 000000   000200 020200   000000 000000    ................
   0    5034   000000 000000   000000 000000   103020 020000   100200 020000    ........C...@...
   0    5040   000000 000000   000000 000000   000000 000000   000000 000000    ................
   0    5060*  000000 000000   000000 000000   115103 101040   040040 040040    ........MCA
   0    5064   040040 040040   040040 040040   040040 040040   040040 040040
   0    5130*  040040 040040   040040 040040   012000 000000   000000 000000            ........
   0    5134   000000 000000   000000 000000   040040 040040   040040 040040    ........
   0    5140   040040 040040   000300 000000   000200 020000   000000 000000        ............
   0    5144   153203 300000   000000 000000   133203 300000   000000 000000    k.......[.......
   0    5150   000000 000000   000000 000000   000000 000000   000000 000000    ................
   0    5160*  000000 000000   000000 000000   000000 000000   400200 020000    ................
   0    5164   000000 000000   000000 000000   000000 000000   000000 000000    ................
PL6.E3A0      #001=NI_DVTS_D File=NI_DVTS_D.:E05TSI                              WED 07/30/97 03:42 Page:83
   0    5174*  000000 000000   000000 000000                                    ........
        1        1        /*M* NI_DVTS_D - DEVICE TABLES FOR IOQ */
        2        2        /*T***********************************************************/
        3        3        /*T*                                                         */
        4        4        /*T* Copyright (c) Bull HN Information Systems Inc., 1997    */
        5        5        /*T*                                                         */
        6        6        /*T***********************************************************/
        7        7        NI_DVTS_D: PROC ;
        8        8        /**/
        9        9        %INCLUDE NI_DEVCMD_C;
       10      192        %INCLUDE CP_6_SUBS;
       11      732        %INCLUDE NI_DATA_C;
       12      845        %INCLUDE TM_DATA_M;
       13      947        /**/
       14      948    1   DCL NIC$REQSCHED ENTRY(1); DCL NIC$POSTER ENTRY(3);
       15      949    1   DCL NIB$REQSCHED ENTRY(1); DCL NIB$POSTER ENTRY(3);DCL NIB$DEVSCHED ENTRY(1);
       16      950    1   DCL NIJ$REQSCHED ENTRY(1); DCL NIJ$POSTER ENTRY(3);DCL NIJ$DEVSCHED ENTRY(1);
       17      951    1   DCL NIU$REQSCHED ENTRY(1); DCL NIU$DEVSCHED ENTRY(2);
       18      952    1   DCL NIR$POSTER ENTRY(3); DCL NIL$POSTER ENTRY(3); DCL NIP$POSTER ENTRY(3);
       19      953    1   DCL NIT$REQSCHED ENTRY(1); DCL NIT$POSTER ENTRY(3); DCL NIT$DEVSCHED ENTRY(2);
       20      954    1   DCL NID$REQSCHED ENTRY(1); DCL NID$POSTER ENTRY(3); DCL NID$DEVSCHED ENTRY(2);
       21      955    1   DCL NIW$REQSCHED ENTRY(1); DCL NIW$POSTER ENTRY(3); DCL NIW$DEVSCHED ENTRY(2);
       22      956    1   DCL NAP$POSTER ENTRY(3);
       23      957        /**/
       24      958        /* WARNING:  The DVT macro must be in sync with the NI$DVT macro in
       25      959                     NI$TABLES and the logical function codes in N_FC_C.   */
       26      960        /* WARNING:  The following conventions must be followed when adding DVTs.
       27      961                   1.  Only DVTs may be declared in this module.
       28      962                   2.  The last DVT must be MCA.
       29      963                   3.  The next to the last DVT must be MSOS.
       30      964                   4.  If the DVTs require more than 4 pages of data, the monitor`s
       31      965                       HJIT must be updated to get more space in LS130.  Currently
       32      966                       4 pages are available in LS130 for DVTS.  The page table
       33      967                       entries for LS130 are 28-31.  The DVTs may not grow past
       34      968                       entry 49.
       35      969                    5. If more than 50 DVTs are defined, NI_DATA_D must be updated
       36      970                       to all for more DVT pointers (NI$DVT$).                */
PL6.E3A0      #001=NI_DVTS_D File=NI_DVTS_D.:E05TSI                              WED 07/30/97 03:42 Page:84
       37      971        /**/
       38      972        %MACRO DVT (NAME=DVT,STCLASS="CONSTANT SYMDEF",
       39      973                    SCHED#=NIL,
       40      974                    POSTER#=NIL,
       41      975                    DVSCH#=NIL,
       42      976                    MODEL#=' ',
       43      977                    FEATURE#=' ',
       44      978                    FWNAME#=' ',
       45      979                    LPNAME#=' ',
       46      980                    CRPNAME#=' ',
       47      981                    TYPE#=0,
       48      982                    GS#=0,
       49      983                    PS#=0,
       50      984                    SS#=0,
       51      985                    CS#=0,
       52      986                    T@DCYL#=0,
       53      987                    SPT#=0,
       54      988                    NT@DCYLS#=0,
       55      989                    ATTR#='0'B,
       56      990                    DCWLIST#="%CONCAT('00'O,%RTN_DCWLIST)",
       57      991                    RQSTAT#='0'B,
       58      992                    RDBIN#='0'B,
       59      993                    WRBIN#='0'B,
       60      994                    RDASC#='0'B,
       61      995                    WRASC#='0'B,
       62      996                    REWIND#='0'B,
       63      997                    WRCMP#='0'B,
       64      998                    UNLOAD#='0'B,
       65      999                    ALARM#='0'B,
       66     1000                    WRFM#='0'B,
       67     1001                    WRZERO#='0'B,
       68     1002                    READ#='0'B,
       69     1003                    WRITE#='0'B,
       70     1004                    SPREC#='0'B,
       71     1005                    SPFILE#='0'B,
       72     1006                    PERMIT#='0'B,
       73     1007                    PROTECT#='0'B,
PL6.E3A0      #001=NI_DVTS_D File=NI_DVTS_D.:E05TSI                              WED 07/30/97 03:42 Page:85
       74     1008                    RESET#='0'B,
       75     1009                    SD800#='0'B,
       76     1010                    SD1600#='0'B,
       77     1011                    SD6250#='0'B,
       78     1012                    LDCHAIN#='0'B,
       79     1013                    LDTAPE#='0'B,
       80     1014                    RESTORE#='0'B,
       81     1015                    LDVFC#='0'B,
       82     1016                    SYMB#='0'B,
       83     1017                    EXTST#='0'B,
       84     1018                    ERASE#='0'B);
       85     1019        DCL 1 NAME STCLASS ALIGNED,
       86     1020              2 SCHED EPTR INIT(ENTADDR(SCHED#)),
       87     1021              2 POSTER EPTR INIT(ENTADDR(POSTER#)),
       88     1022              2 DVSCH EPTR INIT(ENTADDR(DVSCH#)),
       89     1023              2 MODEL(0:9) CHAR(8) ALIGNED INIT(MODEL#,' '*0),
       90     1024              2 FEATURE(0:9) CHAR(8) ALIGNED INIT(' ',FEATURE#,' '*0),
       91     1025              2 TYPE UBIN(9) UNAL INIT(TYPE#),
       92     1026              2 NT@DCYLS UBIN(9) UNAL INIT(NT@DCYLS#),
       93     1027              2 SPT UBIN(9) UNAL INIT(SPT#),
       94     1028              2 GRANSIZE UBIN(9) UNAL INIT(GS#),
       95     1029              2 PACKSIZE UBIN(36) UNAL INIT(PS#),
       96     1030              2 CYLSIZE UBIN(18) UNAL INIT(CS#),
       97     1031              2 T@DCYL UBIN(18) UNAL INIT(T@DCYL#),
       98     1032              2 SECSIZE UBIN(18) UNAL INIT(SS#),
       99     1033              2 ATTR BIT(18) UNAL INIT(ATTR#),
      100     1034              2 MPC ALIGNED,
      101     1035                3 FWNAME CHAR(4) INIT(FWNAME#),
      102     1036                3 LPNAME CHAR(4) INIT(LPNAME#),
      103     1037                3 CRPNAME CHAR(4) INIT(CRPNAME#),
      104     1038              2 LP REDEF MPC ALIGNED,
      105     1039                3 CHAIN CHAR(4),
      106     1040                3 *(0:1) UBIN,
      107     1041              2 IDCW ALIGNED,
      108     1042                3 DCWLIST BIT(36) INIT(DCWLIST#),
      109     1043                3 RQSTAT BIT(36) INIT(RQSTAT#),
      110     1044                3 RDBIN BIT(36) INIT(RDBIN#),
PL6.E3A0      #001=NI_DVTS_D File=NI_DVTS_D.:E05TSI                              WED 07/30/97 03:42 Page:86
      111     1045                3 WRBIN BIT(36) INIT(WRBIN#),
      112     1046                3 RDASC BIT(36) INIT(RDASC#),
      113     1047                3 WRASC BIT(36) INIT(WRASC#),
      114     1048                3 REWIND BIT(36) INIT(REWIND#),
      115     1049                3 WRCMP BIT(36) INIT(WRCMP#),
      116     1050                3 UNLOAD BIT(36) INIT(UNLOAD#),
      117     1051                3 ALARM BIT(36) INIT(ALARM#),
      118     1052                3 WRFM BIT(36) INIT(WRFM#),
      119     1053                3 WRZERO BIT(36) INIT(WRZERO#),
      120     1054                3 READ BIT(36) INIT(READ#),
      121     1055                3 WRITE BIT(36) INIT(WRITE#),
      122     1056                3 SPREC BIT(36) INIT(SPREC#),
      123     1057                3 SPFILE BIT(36) INIT(SPFILE#),
      124     1058                3 PERMIT BIT(36) INIT(PERMIT#),
      125     1059                3 PROTECT BIT(36) INIT(PROTECT#),
      126     1060                3 RESET BIT(36) INIT(RESET#),
      127     1061                3 SD800 BIT(36) INIT(SD800#),
      128     1062                3 SD1600 BIT(36) INIT(SD1600#),
      129     1063                3 SD6250 BIT(36) INIT(SD6250#),
      130     1064                3 LDCHAIN BIT(36) INIT(LDCHAIN#),
      131     1065                3 LDTAPE BIT(36) INIT(LDTAPE#),
      132     1066                3 RESTORE BIT(36) INIT(RESTORE#),
      133     1067                3 LDVFC BIT(36) INIT(LDVFC#),
      134     1068                3 SYMB BIT(36) INIT(SYMB#),
      135     1069                3 EXTST BIT(36) INIT(EXTST#),
      136     1070                3 ERACE BIT(36) INIT(ERASE#);
      137     1071        %MEND;
      138     1072        /**/
      139     1073        /* SYSTEM CONSOLE DVT */
      140     1074        /**/
      141     1075        %LIST;
      142     1076        %SET LISTSUB='1'B;
      143     1077        %SET LISTEXP='1'B;
      144     1078        %DVT (NAME=NI_SCDVT,SCHED#=NIC$REQSCHED,POSTER#=NIC$POSTER,TYPE#=%DV_SC,
      145     1079              RQSTAT#="%CONCAT(%SC_RQSTAT,%RTN_STD,'00'O,'02'O,%CC_NOBUF,'00'O)",
      146     1080              RDASC#="%CONCAT(%SC_RDASC,%RTN_STD,'00'O,'20'O,%CC_UR,'00'O)",
      147     1081              WRASC#="%CONCAT(%SC_WRASC,%RTN_STD,'00'O,'03'O,%CC_UR,'00'O)",
PL6.E3A0      #001=NI_DVTS_D File=NI_DVTS_D.:E05TSI                              WED 07/30/97 03:42 Page:87
      148     1082              ALARM#="%CONCAT(%SC_ALARM,%RTN_STD,'00'O,'02'O,%CC_NOBUF,'00'O)",
      149     1083              READ#="%CONCAT(%SC_WRASC,%RTN_SC_RDPRMPT,%SC_RDASC,'20'O,%CC_UR,'00'O)",
      150     1084              WRITE#="%CONCAT(%SC_WRASC,%RTN_SC_WRCRLF,%SC_WRASC,'03'O,%CC_UR,'00'O)",
      151     1085              RESET#="%CONCAT(%SC_RESET,%RTN_STD,'00'O,'02'O,%CC_NOBUF,'00'O)",
      152     1086              MODEL#="'CONSOLE','SC','LCC','HOG'");
              1087    1   DCL 1 NI_SCDVT CONSTANT SYMDEF ALIGNED,
              1088    1         2 SCHED EPTR INIT(ENTADDR(NIC$REQSCHED)),
              1089    1         2 POSTER EPTR INIT(ENTADDR(NIC$POSTER)),
              1090    1         2 DVSCH EPTR INIT(ENTADDR(NIL)),
              1091    1         2 MODEL(0:9) CHAR(8) ALIGNED INIT('CONSOLE','SC','LCC','HOG',' '*0),
              1092    1         2 FEATURE(0:9) CHAR(8) ALIGNED INIT(' ',' ',' '*0),
              1093    1         2 TYPE UBIN(9) UNAL INIT(0),
              1094    1         2 NT@DCYLS UBIN(9) UNAL INIT(0),
              1095    1         2 SPT UBIN(9) UNAL INIT(0),
              1096    1         2 GRANSIZE UBIN(9) UNAL INIT(0),
              1097    1         2 PACKSIZE UBIN(36) UNAL INIT(0),
              1098    1         2 CYLSIZE UBIN(18) UNAL INIT(0),
              1099    1         2 T@DCYL UBIN(18) UNAL INIT(0),
              1100    1         2 SECSIZE UBIN(18) UNAL INIT(0),
              1101    1         2 ATTR BIT(18) UNAL INIT('0'B),
              1102    1         2 MPC ALIGNED,
              1103    1           3 FWNAME CHAR(4) INIT(' '),
              1104    1           3 LPNAME CHAR(4) INIT(' '),
              1105    1           3 CRPNAME CHAR(4) INIT(' '),
              1106    1         2 LP REDEF MPC ALIGNED,
              1107    1           3 CHAIN CHAR(4),
              1108    1           3 *(0:1) UBIN,
              1109    1         2 IDCW ALIGNED,
              1110    1           3 DCWLIST BIT(36) INIT('0003'O),
              1111    1           3 RQSTAT BIT(36) INIT('000200020200'O),
              1112    1           3 RDBIN BIT(36) INIT('0'B),
              1113    1           3 WRBIN BIT(36) INIT('0'B),
              1114    1           3 RDASC BIT(36) INIT('230200200000'O),
              1115    1           3 WRASC BIT(36) INIT('330200030000'O),
              1116    1           3 REWIND BIT(36) INIT('0'B),
              1117    1           3 WRCMP BIT(36) INIT('0'B),
              1118    1           3 UNLOAD BIT(36) INIT('0'B),
PL6.E3A0      #001=NI_DVTS_D File=NI_DVTS_D.:E05TSI                              WED 07/30/97 03:42 Page:88
              1119    1           3 ALARM BIT(36) INIT('510200020200'O),
              1120    1           3 WRFM BIT(36) INIT('0'B),
              1121    1           3 WRZERO BIT(36) INIT('0'B),
              1122    1           3 READ BIT(36) INIT('330523200000'O),
              1123    1           3 WRITE BIT(36) INIT('330633030000'O),
              1124    1           3 SPREC BIT(36) INIT('0'B),
              1125    1           3 SPFILE BIT(36) INIT('0'B),
              1126    1           3 PERMIT BIT(36) INIT('0'B),
              1127    1           3 PROTECT BIT(36) INIT('0'B),
              1128    1           3 RESET BIT(36) INIT('400200020200'O),
              1129    1           3 SD800 BIT(36) INIT('0'B),
              1130    1           3 SD1600 BIT(36) INIT('0'B),
              1131    1           3 SD6250 BIT(36) INIT('0'B),
              1132    1           3 LDCHAIN BIT(36) INIT('0'B),
              1133    1           3 LDTAPE BIT(36) INIT('0'B),
              1134    1           3 RESTORE BIT(36) INIT('0'B),
              1135    1           3 LDVFC BIT(36) INIT('0'B),
              1136    1           3 SYMB BIT(36) INIT('0'B),
              1137    1           3 EXTST BIT(36) INIT('0'B),
              1138    1           3 ERACE BIT(36) INIT('0'B);
      153     1140        /**/
      154     1141        /* CARD READER DVT */
      155     1142        /**/
      156     1143        %DVT (NAME=NI_CRDVT,SCHED#=NIU$REQSCHED,POSTER#=NIR$POSTER,DVSCH#=NIU$DEVSCHED,
      157     1144              TYPE#=%DV_CR,ATTR#="%(ATTR_BIN#|ATTR_LOWERCASE#|ATTR_UPPERCASE#)",
      158     1145              RQSTAT#="%CONCAT(%CR_RQSTAT,%RTN_STD,'00'O,'02'O,%CC_NOBUF,'00'O)",
      159     1146              READ#="%CONCAT(%CR_RDCP6,%RTN_STD,'00'O,'02'O,%CC_UR,'00'O)",
      160     1147              RESET#="%CONCAT(%CR_RESET,%RTN_STD,'00'O,'02'O,%CC_NOBUF,'00'O)",
      161     1148              EXTST#="%CONCAT('00'O,%RTN_CR_EXTST)",
      162     1149              MODEL#="'CRU1050','CRU0501','CR'");
              1150    1   DCL 1 NI_CRDVT CONSTANT SYMDEF ALIGNED,
              1151    1         2 SCHED EPTR INIT(ENTADDR(NIU$REQSCHED)),
              1152    1         2 POSTER EPTR INIT(ENTADDR(NIR$POSTER)),
              1153    1         2 DVSCH EPTR INIT(ENTADDR(NIU$DEVSCHED)),
              1154    1         2 MODEL(0:9) CHAR(8) ALIGNED INIT('CRU1050','CRU0501','CR',' '*0),
              1155    1         2 FEATURE(0:9) CHAR(8) ALIGNED INIT(' ',' ',' '*0),
              1156    1         2 TYPE UBIN(9) UNAL INIT(1),
PL6.E3A0      #001=NI_DVTS_D File=NI_DVTS_D.:E05TSI                              WED 07/30/97 03:42 Page:89
              1157    1         2 NT@DCYLS UBIN(9) UNAL INIT(0),
              1158    1         2 SPT UBIN(9) UNAL INIT(0),
              1159    1         2 GRANSIZE UBIN(9) UNAL INIT(0),
              1160    1         2 PACKSIZE UBIN(36) UNAL INIT(0),
              1161    1         2 CYLSIZE UBIN(18) UNAL INIT(0),
              1162    1         2 T@DCYL UBIN(18) UNAL INIT(0),
              1163    1         2 SECSIZE UBIN(18) UNAL INIT(0),
              1164    1         2 ATTR BIT(18) UNAL INIT('000043'O),
              1165    1         2 MPC ALIGNED,
              1166    1           3 FWNAME CHAR(4) INIT(' '),
              1167    1           3 LPNAME CHAR(4) INIT(' '),
              1168    1           3 CRPNAME CHAR(4) INIT(' '),
              1169    1         2 LP REDEF MPC ALIGNED,
              1170    1           3 CHAIN CHAR(4),
              1171    1           3 *(0:1) UBIN,
              1172    1         2 IDCW ALIGNED,
              1173    1           3 DCWLIST BIT(36) INIT('0003'O),
              1174    1           3 RQSTAT BIT(36) INIT('000200020200'O),
              1175    1           3 RDBIN BIT(36) INIT('0'B),
              1176    1           3 WRBIN BIT(36) INIT('0'B),
              1177    1           3 RDASC BIT(36) INIT('0'B),
              1178    1           3 WRASC BIT(36) INIT('0'B),
              1179    1           3 REWIND BIT(36) INIT('0'B),
              1180    1           3 WRCMP BIT(36) INIT('0'B),
              1181    1           3 UNLOAD BIT(36) INIT('0'B),
              1182    1           3 ALARM BIT(36) INIT('0'B),
              1183    1           3 WRFM BIT(36) INIT('0'B),
              1184    1           3 WRZERO BIT(36) INIT('0'B),
              1185    1           3 READ BIT(36) INIT('100200020000'O),
              1186    1           3 WRITE BIT(36) INIT('0'B),
              1187    1           3 SPREC BIT(36) INIT('0'B),
              1188    1           3 SPFILE BIT(36) INIT('0'B),
              1189    1           3 PERMIT BIT(36) INIT('0'B),
              1190    1           3 PROTECT BIT(36) INIT('0'B),
              1191    1           3 RESET BIT(36) INIT('400200020200'O),
              1192    1           3 SD800 BIT(36) INIT('0'B),
              1193    1           3 SD1600 BIT(36) INIT('0'B),
PL6.E3A0      #001=NI_DVTS_D File=NI_DVTS_D.:E05TSI                              WED 07/30/97 03:42 Page:90
              1194    1           3 SD6250 BIT(36) INIT('0'B),
              1195    1           3 LDCHAIN BIT(36) INIT('0'B),
              1196    1           3 LDTAPE BIT(36) INIT('0'B),
              1197    1           3 RESTORE BIT(36) INIT('0'B),
              1198    1           3 LDVFC BIT(36) INIT('0'B),
              1199    1           3 SYMB BIT(36) INIT('0'B),
              1200    1           3 EXTST BIT(36) INIT('0007'O),
              1201    1           3 ERACE BIT(36) INIT('0'B);
      163     1203        /**/
      164     1204        /* CARD PUNCH DVT */
      165     1205        /**/
      166     1206        %DVT (NAME=NI_CPDVT,SCHED#=NIU$REQSCHED,POSTER#=NIP$POSTER,DVSCH#=NIU$DEVSCHED,
      167     1207              TYPE#=%DV_CP,ATTR#="%(ATTR_BIN#|ATTR_LOWERCASE#|ATTR_UPPERCASE#)",
      168     1208              RQSTAT#="%CONCAT(%CP_RQSTAT,%RTN_STD,'00'O,'02'O,%CC_NOBUF,'00'O)",
      169     1209              WRBIN#="%CONCAT(%CP_WRBIN,%RTN_STD,'00'O,'02'O,%CC_UR,'00'O)",
      170     1210              WRASC#="%CONCAT(%CP_WRASC,%RTN_STD,'00'O,'02'O,%CC_UR,'00'O)",
      171     1211              WRFM#="%CONCAT(%CP_WRASC,%RTN_CP_WRFM,'00'O,'02'O,%CC_UR,'00'O)",
      172     1212              WRITE#="%CONCAT(%CP_WRASC,%RTN_CP_WRITE,%CP_WRBIN,'02'O,%CC_UR,'00'O)",
      173     1213              RESET#="%CONCAT(%CP_RESET,%RTN_STD,'00'O,'02'O,%CC_NOBUF,'00'O)",
      174     1214              SYMB#="%CONCAT(%CP_WRASC,%RTN_WRSYMB,%CP_WRBIN,'00'O,%CC_UR,'00'O)",
      175     1215              EXTST#="%CONCAT('00'O,%RTN_CP_EXTST)",
      176     1216              MODEL#="'PCU0121','PCU0120','CP'");
              1217    1   DCL 1 NI_CPDVT CONSTANT SYMDEF ALIGNED,
              1218    1         2 SCHED EPTR INIT(ENTADDR(NIU$REQSCHED)),
              1219    1         2 POSTER EPTR INIT(ENTADDR(NIP$POSTER)),
              1220    1         2 DVSCH EPTR INIT(ENTADDR(NIU$DEVSCHED)),
              1221    1         2 MODEL(0:9) CHAR(8) ALIGNED INIT('PCU0121','PCU0120','CP',' '*0),
              1222    1         2 FEATURE(0:9) CHAR(8) ALIGNED INIT(' ',' ',' '*0),
              1223    1         2 TYPE UBIN(9) UNAL INIT(2),
              1224    1         2 NT@DCYLS UBIN(9) UNAL INIT(0),
              1225    1         2 SPT UBIN(9) UNAL INIT(0),
              1226    1         2 GRANSIZE UBIN(9) UNAL INIT(0),
              1227    1         2 PACKSIZE UBIN(36) UNAL INIT(0),
              1228    1         2 CYLSIZE UBIN(18) UNAL INIT(0),
              1229    1         2 T@DCYL UBIN(18) UNAL INIT(0),
              1230    1         2 SECSIZE UBIN(18) UNAL INIT(0),
              1231    1         2 ATTR BIT(18) UNAL INIT('000043'O),
PL6.E3A0      #001=NI_DVTS_D File=NI_DVTS_D.:E05TSI                              WED 07/30/97 03:42 Page:91
              1232    1         2 MPC ALIGNED,
              1233    1           3 FWNAME CHAR(4) INIT(' '),
              1234    1           3 LPNAME CHAR(4) INIT(' '),
              1235    1           3 CRPNAME CHAR(4) INIT(' '),
              1236    1         2 LP REDEF MPC ALIGNED,
              1237    1           3 CHAIN CHAR(4),
              1238    1           3 *(0:1) UBIN,
              1239    1         2 IDCW ALIGNED,
              1240    1           3 DCWLIST BIT(36) INIT('0003'O),
              1241    1           3 RQSTAT BIT(36) INIT('000200020200'O),
              1242    1           3 RDBIN BIT(36) INIT('0'B),
              1243    1           3 WRBIN BIT(36) INIT('160200020000'O),
              1244    1           3 RDASC BIT(36) INIT('0'B),
              1245    1           3 WRASC BIT(36) INIT('170200020000'O),
              1246    1           3 REWIND BIT(36) INIT('0'B),
              1247    1           3 WRCMP BIT(36) INIT('0'B),
              1248    1           3 UNLOAD BIT(36) INIT('0'B),
              1249    1           3 ALARM BIT(36) INIT('0'B),
              1250    1           3 WRFM BIT(36) INIT('171100020000'O),
              1251    1           3 WRZERO BIT(36) INIT('0'B),
              1252    1           3 READ BIT(36) INIT('0'B),
              1253    1           3 WRITE BIT(36) INIT('171216020000'O),
              1254    1           3 SPREC BIT(36) INIT('0'B),
              1255    1           3 SPFILE BIT(36) INIT('0'B),
              1256    1           3 PERMIT BIT(36) INIT('0'B),
              1257    1           3 PROTECT BIT(36) INIT('0'B),
              1258    1           3 RESET BIT(36) INIT('400200020200'O),
              1259    1           3 SD800 BIT(36) INIT('0'B),
              1260    1           3 SD1600 BIT(36) INIT('0'B),
              1261    1           3 SD6250 BIT(36) INIT('0'B),
              1262    1           3 LDCHAIN BIT(36) INIT('0'B),
              1263    1           3 LDTAPE BIT(36) INIT('0'B),
              1264    1           3 RESTORE BIT(36) INIT('0'B),
              1265    1           3 LDVFC BIT(36) INIT('0'B),
              1266    1           3 SYMB BIT(36) INIT('170416000000'O),
              1267    1           3 EXTST BIT(36) INIT('0010'O),
              1268    1           3 ERACE BIT(36) INIT('0'B);
PL6.E3A0      #001=NI_DVTS_D File=NI_DVTS_D.:E05TSI                              WED 07/30/97 03:42 Page:92
      177     1270        /**/
      178     1271        /* LINE PRINTER DVT */
      179     1272        /**/
      180     1273        %DVT (NAME=NI_LPDVT,SCHED#=NIU$REQSCHED,POSTER#=NIL$POSTER,DVSCH#=NIU$DEVSCHED,
      181     1274              TYPE#=%DV_LP,ATTR#="%(ATTR_TRUOVRPRT#|ATTR_LOWERCASE#|ATTR_UPPERCASE#)",
      182     1275              RQSTAT#="%CONCAT(%LP_RQSTAT,%RTN_STD,'00'O,'02'O,%CC_NOBUF,'00'O)",
      183     1276              WRASC#="%CONCAT(%LP_WRNBP,%RTN_LP_WRITE,%LP_WRBP,'02'O,%CC_UR,'00'O)",
      184     1277              WRITE#="%CONCAT(%LP_WRNBP,%RTN_LP_WRITE,%LP_WRBP,'02'O,%CC_UR,'00'O)",
      185     1278              RESET#="%CONCAT(%LP_RESET,%RTN_STD,'00'O,'02'O,%CC_NOBUF,'00'O)",
      186     1279              LDCHAIN#="%CONCAT(%LP_LDCHAIN,%RTN_LP_LDCHAIN,'00'O,'02'O,%CC_UR,'00'O)",
      187     1280              LDVFC#="%CONCAT(%LP_LDVFC,%RTN_LP_LDVFC,'00'O,'02'O,%CC_UR,'00'O)",
      188     1281              SYMB#="%CONCAT(%LP_WRNBP,%RTN_WRSYMB,%LP_WRBP,%LP_LDVFC,%CC_UR,%LP_LDCHAIN)",
      189     1282              EXTST#="%CONCAT(%LP_EXTST,%RTN_STD,'00'O,'02'O,%CC_UR,'00'O)",
      190     1283             MODEL#="'PRU1200','PRU1600','PRU0901','PRU0903','PRU0908','PRU1201','PRU1203',
              1283        'PRU1208','LP'",
      191     1284              FEATURE#="'PRB0600','PRB3600'",
      192     1285              FWNAME#='600');
              1286    1   DCL 1 NI_LPDVT CONSTANT SYMDEF ALIGNED,
              1287    1         2 SCHED EPTR INIT(ENTADDR(NIU$REQSCHED)),
              1288    1         2 POSTER EPTR INIT(ENTADDR(NIL$POSTER)),
              1289    1         2 DVSCH EPTR INIT(ENTADDR(NIU$DEVSCHED)),
              1290    1         2 MODEL(0:9) CHAR(8) ALIGNED INIT('PRU1200','PRU1600','PRU0901','PRU0903',
              1290                  'PRU0908','PRU1201','PRU1203','PRU1208','LP',' '*0),
              1291    1         2 FEATURE(0:9) CHAR(8) ALIGNED INIT(' ','PRB0600','PRB3600',' '*0),
              1292    1         2 TYPE UBIN(9) UNAL INIT(3),
              1293    1         2 NT@DCYLS UBIN(9) UNAL INIT(0),
              1294    1         2 SPT UBIN(9) UNAL INIT(0),
              1295    1         2 GRANSIZE UBIN(9) UNAL INIT(0),
              1296    1         2 PACKSIZE UBIN(36) UNAL INIT(0),
              1297    1         2 CYLSIZE UBIN(18) UNAL INIT(0),
              1298    1         2 T@DCYL UBIN(18) UNAL INIT(0),
              1299    1         2 SECSIZE UBIN(18) UNAL INIT(0),
              1300    1         2 ATTR BIT(18) UNAL INIT('000051'O),
              1301    1         2 MPC ALIGNED,
              1302    1           3 FWNAME CHAR(4) INIT('600'),
              1303    1           3 LPNAME CHAR(4) INIT(' '),
              1304    1           3 CRPNAME CHAR(4) INIT(' '),
PL6.E3A0      #001=NI_DVTS_D File=NI_DVTS_D.:E05TSI                              WED 07/30/97 03:42 Page:93
              1305    1         2 LP REDEF MPC ALIGNED,
              1306    1           3 CHAIN CHAR(4),
              1307    1           3 *(0:1) UBIN,
              1308    1         2 IDCW ALIGNED,
              1309    1           3 DCWLIST BIT(36) INIT('0003'O),
              1310    1           3 RQSTAT BIT(36) INIT('000200020200'O),
              1311    1           3 RDBIN BIT(36) INIT('0'B),
              1312    1           3 WRBIN BIT(36) INIT('0'B),
              1313    1           3 RDASC BIT(36) INIT('0'B),
              1314    1           3 WRASC BIT(36) INIT('601564020000'O),
              1315    1           3 REWIND BIT(36) INIT('0'B),
              1316    1           3 WRCMP BIT(36) INIT('0'B),
              1317    1           3 UNLOAD BIT(36) INIT('0'B),
              1318    1           3 ALARM BIT(36) INIT('0'B),
              1319    1           3 WRFM BIT(36) INIT('0'B),
              1320    1           3 WRZERO BIT(36) INIT('0'B),
              1321    1           3 READ BIT(36) INIT('0'B),
              1322    1           3 WRITE BIT(36) INIT('601564020000'O),
              1323    1           3 SPREC BIT(36) INIT('0'B),
              1324    1           3 SPFILE BIT(36) INIT('0'B),
              1325    1           3 PERMIT BIT(36) INIT('0'B),
              1326    1           3 PROTECT BIT(36) INIT('0'B),
              1327    1           3 RESET BIT(36) INIT('400200020200'O),
              1328    1           3 SD800 BIT(36) INIT('0'B),
              1329    1           3 SD1600 BIT(36) INIT('0'B),
              1330    1           3 SD6250 BIT(36) INIT('0'B),
              1331    1           3 LDCHAIN BIT(36) INIT('011300020000'O),
              1332    1           3 LDTAPE BIT(36) INIT('0'B),
              1333    1           3 RESTORE BIT(36) INIT('0'B),
              1334    1           3 LDVFC BIT(36) INIT('051400020000'O),
              1335    1           3 SYMB BIT(36) INIT('600464050001'O),
              1336    1           3 EXTST BIT(36) INIT('030200020000'O),
              1337    1           3 ERACE BIT(36) INIT('0'B);
      193     1339        /**/
      194     1340        %DVT (NAME=NI_LPDVT1,SCHED#=NIU$REQSCHED,POSTER#=NIL$POSTER,DVSCH#=NIU$DEVSCHED,
      195     1341              TYPE#=%DV_LP,ATTR#="%(ATTR_TRUOVRPRT#|ATTR_UPPERCASE#)",
      196     1342              RQSTAT#="%CONCAT(%LP_RQSTAT,%RTN_STD,'00'O,'02'O,%CC_NOBUF,'00'O)",
PL6.E3A0      #001=NI_DVTS_D File=NI_DVTS_D.:E05TSI                              WED 07/30/97 03:42 Page:94
      197     1343              WRASC#="%CONCAT(%LP_WRNBP,%RTN_LP_WRITE,%LP_WRBP,'02'O,%CC_UR,'00'O)",
      198     1344              WRITE#="%CONCAT(%LP_WRNBP,%RTN_LP_WRITE,%LP_WRBP,'02'O,%CC_UR,'00'O)",
      199     1345              RESET#="%CONCAT(%LP_RESET,%RTN_STD,'00'O,'02'O,%CC_NOBUF,'00'O)",
      200     1346              LDCHAIN#="%CONCAT(%LP_LDCHAIN,%RTN_LP_LDCHAIN,'00'O,'02'O,%CC_UR,'00'O)",
      201     1347              LDVFC#="%CONCAT(%LP_LDVFC,%RTN_LP_LDVFC,'00'O,'02'O,%CC_UR,'00'O)",
      202     1348              SYMB#="%CONCAT(%LP_WRNBP,%RTN_WRSYMB,%LP_WRBP,%LP_LDVFC,%CC_UR,%LP_LDCHAIN)",
      203     1349              EXTST#="%CONCAT(%LP_EXTST,%RTN_STD,'00'O,'02'O,%CC_UR,'00'O)",
      204     1350             MODEL#="'PRU1200','PRU1600','PRU0901','PRU0903','PRU0908','PRU1201','PRU1203',
              1350        'PRU1208','LP'",
      205     1351              FEATURE#="'PRB0500','PRB0513','PRB0524','PRB3500','PRB3513','PRB3524'",
      206     1352              FWNAME#='500');
              1353    1   DCL 1 NI_LPDVT1 CONSTANT SYMDEF ALIGNED,
              1354    1         2 SCHED EPTR INIT(ENTADDR(NIU$REQSCHED)),
              1355    1         2 POSTER EPTR INIT(ENTADDR(NIL$POSTER)),
              1356    1         2 DVSCH EPTR INIT(ENTADDR(NIU$DEVSCHED)),
              1357    1         2 MODEL(0:9) CHAR(8) ALIGNED INIT('PRU1200','PRU1600','PRU0901','PRU0903',
              1357                  'PRU0908','PRU1201','PRU1203','PRU1208','LP',' '*0),
              1358    1         2 FEATURE(0:9) CHAR(8) ALIGNED INIT(' ','PRB0500','PRB0513','PRB0524',
              1358                  'PRB3500','PRB3513','PRB3524',' '*0),
              1359    1         2 TYPE UBIN(9) UNAL INIT(3),
              1360    1         2 NT@DCYLS UBIN(9) UNAL INIT(0),
              1361    1         2 SPT UBIN(9) UNAL INIT(0),
              1362    1         2 GRANSIZE UBIN(9) UNAL INIT(0),
              1363    1         2 PACKSIZE UBIN(36) UNAL INIT(0),
              1364    1         2 CYLSIZE UBIN(18) UNAL INIT(0),
              1365    1         2 T@DCYL UBIN(18) UNAL INIT(0),
              1366    1         2 SECSIZE UBIN(18) UNAL INIT(0),
              1367    1         2 ATTR BIT(18) UNAL INIT('000050'O),
              1368    1         2 MPC ALIGNED,
              1369    1           3 FWNAME CHAR(4) INIT('500'),
              1370    1           3 LPNAME CHAR(4) INIT(' '),
              1371    1           3 CRPNAME CHAR(4) INIT(' '),
              1372    1         2 LP REDEF MPC ALIGNED,
              1373    1           3 CHAIN CHAR(4),
              1374    1           3 *(0:1) UBIN,
              1375    1         2 IDCW ALIGNED,
              1376    1           3 DCWLIST BIT(36) INIT('0003'O),
PL6.E3A0      #001=NI_DVTS_D File=NI_DVTS_D.:E05TSI                              WED 07/30/97 03:42 Page:95
              1377    1           3 RQSTAT BIT(36) INIT('000200020200'O),
              1378    1           3 RDBIN BIT(36) INIT('0'B),
              1379    1           3 WRBIN BIT(36) INIT('0'B),
              1380    1           3 RDASC BIT(36) INIT('0'B),
              1381    1           3 WRASC BIT(36) INIT('601564020000'O),
              1382    1           3 REWIND BIT(36) INIT('0'B),
              1383    1           3 WRCMP BIT(36) INIT('0'B),
              1384    1           3 UNLOAD BIT(36) INIT('0'B),
              1385    1           3 ALARM BIT(36) INIT('0'B),
              1386    1           3 WRFM BIT(36) INIT('0'B),
              1387    1           3 WRZERO BIT(36) INIT('0'B),
              1388    1           3 READ BIT(36) INIT('0'B),
              1389    1           3 WRITE BIT(36) INIT('601564020000'O),
              1390    1           3 SPREC BIT(36) INIT('0'B),
              1391    1           3 SPFILE BIT(36) INIT('0'B),
              1392    1           3 PERMIT BIT(36) INIT('0'B),
              1393    1           3 PROTECT BIT(36) INIT('0'B),
              1394    1           3 RESET BIT(36) INIT('400200020200'O),
              1395    1           3 SD800 BIT(36) INIT('0'B),
              1396    1           3 SD1600 BIT(36) INIT('0'B),
              1397    1           3 SD6250 BIT(36) INIT('0'B),
              1398    1           3 LDCHAIN BIT(36) INIT('011300020000'O),
              1399    1           3 LDTAPE BIT(36) INIT('0'B),
              1400    1           3 RESTORE BIT(36) INIT('0'B),
              1401    1           3 LDVFC BIT(36) INIT('051400020000'O),
              1402    1           3 SYMB BIT(36) INIT('600464050001'O),
              1403    1           3 EXTST BIT(36) INIT('030200020000'O),
              1404    1           3 ERACE BIT(36) INIT('0'B);
      207     1406        /**/
      208     1407        /* TAPE DVTS */
      209     1408        /**/
      210     1409        %DVT (NAME=NI_MTDVT,SCHED#=NIT$REQSCHED,POSTER#=NIT$POSTER,DVSCH#=NIT$DEVSCHED,
      211     1410              TYPE#=%DV_MT,ATTR#="%(ATTR_D800#|ATTR_D1600#)",
      212     1411              RQSTAT#="%CONCAT(%MT_RQSTAT,%RTN_STD,'00'O,'02'O,%CC_NOBUF,'00'O)",
      213     1412              RDBIN#="%CONCAT(%MT_RDBIN,%RTN_STD,'00'O,'02'O,%CC_UR,'00'O)",
      214     1413              WRBIN#="%CONCAT(%MT_WRBIN,%RTN_STD,'00'O,'02'O,%CC_UR,'00'O)",
      215     1414              RDASC#="%CONCAT(%MT_RD9,%RTN_STD,'00'O,'02'O,%CC_UR,'00'O)",
PL6.E3A0      #001=NI_DVTS_D File=NI_DVTS_D.:E05TSI                              WED 07/30/97 03:42 Page:96
      216     1415              WRASC#="%CONCAT(%MT_WR9,%RTN_MT_WRBYTE,'00'O,'02'O,%CC_UR,'00'O)",
      217     1416              REWIND#="%CONCAT(%MT_REWIND,%RTN_STD,'00'O,'02'O,%CC_NOBUF,'00'O)",
      218     1417              UNLOAD#="%CONCAT(%MT_UNLOAD,%RTN_STD,'00'O,'02'O,%CC_NOBUF,'00'O)",
      219     1418              WRFM#="%CONCAT(%MT_WRFM,%RTN_STD,'00'O,'02'O,%CC_NOBUF,'00'O)",
      220     1419              READ#="%CONCAT(%MT_RD9,%RTN_MT_READ,%MT_RDBIN,'02'O,%CC_UR,'00'O)",
      221     1420              WRITE#="%CONCAT(%MT_WR9,%RTN_MT_WRITE,%MT_WRBIN,'02'O,%CC_UR,'00'O)",
      222     1421              SPREC#="%CONCAT(%MT_FSPR,%RTN_MT_SPR,%MT_BSPR,'40'O,%CC_NOBUF,'01'O)",
      223     1422              SPFILE#="%CONCAT(%MT_FSPR,%RTN_MT_SPF,%MT_BSPR,'40'O,%CC_NOBUF,'77'O)",
      224     1423              PERMIT#="%CONCAT(%MT_PERMIT,%RTN_STD,'00'O,'02'O,%CC_NOBUF,'00'O)",
      225     1424              PROTECT#="%CONCAT(%MT_PROTECT,%RTN_STD,'00'O,'02'O,%CC_NOBUF,'00'O)",
      226     1425              RESET#="%CONCAT(%MT_RESET,%RTN_STD,'00'O,'02'O,%CC_NOBUF,'00'O)",
      227     1426              SD800#="%CONCAT(%MT_SD800,%RTN_STD,'00'O,'02'O,%CC_NOBUF,'00'O)",
      228     1427              SD1600#="%CONCAT(%MT_SD1600,%RTN_STD,'00'O,'02'O,%CC_NOBUF,'00'O)",
      229     1428              SD6250#="%CONCAT(%MT_SD6250,%RTN_BADFC_IOERR,'00'O,'02'O,%CC_NOBUF,'00'O)",
      230     1429              LDTAPE#="%CONCAT(%MT_LDTAPE,%RTN_STD,'00'O,'02'O,%CC_NOBUF,'00'O)",
      231     1430              EXTST#="%CONCAT(%MT_EXTST,%RTN_STD,'00'O,'02'O,%CC_UR,'00'O)",
      232     1431              ERASE#="%CONCAT(%MT_ERASE,%RTN_STD,'00'O,'02'O,%CC_NOBUF,'00'O)",
      233     1432              MODEL#="'MTU0610','MTU0630'",
      234     1433              FEATURE#="'MTF0605','MTF0607','MTF0634','MTF0636'");
              1434    1   DCL 1 NI_MTDVT CONSTANT SYMDEF ALIGNED,
              1435    1         2 SCHED EPTR INIT(ENTADDR(NIT$REQSCHED)),
              1436    1         2 POSTER EPTR INIT(ENTADDR(NIT$POSTER)),
              1437    1         2 DVSCH EPTR INIT(ENTADDR(NIT$DEVSCHED)),
              1438    1         2 MODEL(0:9) CHAR(8) ALIGNED INIT('MTU0610','MTU0630',' '*0),
              1439    1         2 FEATURE(0:9) CHAR(8) ALIGNED INIT(' ','MTF0605','MTF0607','MTF0634',
              1439                  'MTF0636',' '*0),
              1440    1         2 TYPE UBIN(9) UNAL INIT(4),
              1441    1         2 NT@DCYLS UBIN(9) UNAL INIT(0),
              1442    1         2 SPT UBIN(9) UNAL INIT(0),
              1443    1         2 GRANSIZE UBIN(9) UNAL INIT(0),
              1444    1         2 PACKSIZE UBIN(36) UNAL INIT(0),
              1445    1         2 CYLSIZE UBIN(18) UNAL INIT(0),
              1446    1         2 T@DCYL UBIN(18) UNAL INIT(0),
              1447    1         2 SECSIZE UBIN(18) UNAL INIT(0),
              1448    1         2 ATTR BIT(18) UNAL INIT('300000'O),
              1449    1         2 MPC ALIGNED,
              1450    1           3 FWNAME CHAR(4) INIT(' '),
PL6.E3A0      #001=NI_DVTS_D File=NI_DVTS_D.:E05TSI                              WED 07/30/97 03:42 Page:97
              1451    1           3 LPNAME CHAR(4) INIT(' '),
              1452    1           3 CRPNAME CHAR(4) INIT(' '),
              1453    1         2 LP REDEF MPC ALIGNED,
              1454    1           3 CHAIN CHAR(4),
              1455    1           3 *(0:1) UBIN,
              1456    1         2 IDCW ALIGNED,
              1457    1           3 DCWLIST BIT(36) INIT('0003'O),
              1458    1           3 RQSTAT BIT(36) INIT('000200020200'O),
              1459    1           3 RDBIN BIT(36) INIT('050200020000'O),
              1460    1           3 WRBIN BIT(36) INIT('150200020000'O),
              1461    1           3 RDASC BIT(36) INIT('030200020000'O),
              1462    1           3 WRASC BIT(36) INIT('132200020000'O),
              1463    1           3 REWIND BIT(36) INIT('700200020200'O),
              1464    1           3 WRCMP BIT(36) INIT('0'B),
              1465    1           3 UNLOAD BIT(36) INIT('720200020200'O),
              1466    1           3 ALARM BIT(36) INIT('0'B),
              1467    1           3 WRFM BIT(36) INIT('550200020200'O),
              1468    1           3 WRZERO BIT(36) INIT('0'B),
              1469    1           3 READ BIT(36) INIT('032005020000'O),
              1470    1           3 WRITE BIT(36) INIT('132115020000'O),
              1471    1           3 SPREC BIT(36) INIT('441646400201'O),
              1472    1           3 SPFILE BIT(36) INIT('441746400277'O),
              1473    1           3 PERMIT BIT(36) INIT('630200020200'O),
              1474    1           3 PROTECT BIT(36) INIT('620200020200'O),
              1475    1           3 RESET BIT(36) INIT('400200020200'O),
              1476    1           3 SD800 BIT(36) INIT('600200020200'O),
              1477    1           3 SD1600 BIT(36) INIT('650200020200'O),
              1478    1           3 SD6250 BIT(36) INIT('410100020200'O),
              1479    1           3 LDCHAIN BIT(36) INIT('0'B),
              1480    1           3 LDTAPE BIT(36) INIT('750200020200'O),
              1481    1           3 RESTORE BIT(36) INIT('0'B),
              1482    1           3 LDVFC BIT(36) INIT('0'B),
              1483    1           3 SYMB BIT(36) INIT('0'B),
              1484    1           3 EXTST BIT(36) INIT('500200020000'O),
              1485    1           3 ERACE BIT(36) INIT('540200020200'O);
      235     1487        %DVT (NAME=NI_MTDVT1,SCHED#=NIT$REQSCHED,POSTER#=NIT$POSTER,DVSCH#=NIT$DEVSCHED,
      236     1488              TYPE#=%DV_MT,ATTR#="%(ATTR_D1600#|ATTR_D6250#)",
PL6.E3A0      #001=NI_DVTS_D File=NI_DVTS_D.:E05TSI                              WED 07/30/97 03:42 Page:98
      237     1489              RQSTAT#="%CONCAT(%MT_RQSTAT,%RTN_STD,'00'O,'02'O,%CC_NOBUF,'00'O)",
      238     1490              RDBIN#="%CONCAT(%MT_RDBIN,%RTN_STD,'00'O,'02'O,%CC_UR,'00'O)",
      239     1491              WRBIN#="%CONCAT(%MT_WRBIN,%RTN_STD,'00'O,'02'O,%CC_UR,'00'O)",
      240     1492              RDASC#="%CONCAT(%MT_RD9,%RTN_STD,'00'O,'02'O,%CC_UR,'00'O)",
      241     1493              WRASC#="%CONCAT(%MT_WR9,%RTN_MT_WRBYTE,'00'O,'02'O,%CC_UR,'00'O)",
      242     1494              REWIND#="%CONCAT(%MT_REWIND,%RTN_STD,'00'O,'02'O,%CC_NOBUF,'00'O)",
      243     1495              UNLOAD#="%CONCAT(%MT_UNLOAD,%RTN_STD,'00'O,'02'O,%CC_NOBUF,'00'O)",
      244     1496              WRFM#="%CONCAT(%MT_WRFM,%RTN_STD,'00'O,'02'O,%CC_NOBUF,'00'O)",
      245     1497              READ#="%CONCAT(%MT_RD9,%RTN_MT_READ,%MT_RDBIN,'02'O,%CC_UR,'00'O)",
      246     1498              WRITE#="%CONCAT(%MT_WR9,%RTN_MT_WRITE,%MT_WRBIN,'02'O,%CC_UR,'00'O)",
      247     1499              SPREC#="%CONCAT(%MT_FSPR,%RTN_MT_SPR,%MT_BSPR,'40'O,%CC_NOBUF,'01'O)",
      248     1500              SPFILE#="%CONCAT(%MT_FSPR,%RTN_MT_SPF,%MT_BSPR,'40'O,%CC_NOBUF,'77'O)",
      249     1501              PERMIT#="%CONCAT(%MT_PERMIT,%RTN_STD,'00'O,'02'O,%CC_NOBUF,'00'O)",
      250     1502              PROTECT#="%CONCAT(%MT_PROTECT,%RTN_STD,'00'O,'02'O,%CC_NOBUF,'00'O)",
      251     1503              RESET#="%CONCAT(%MT_RESET,%RTN_STD,'00'O,'02'O,%CC_NOBUF,'00'O)",
      252     1504              SD800#="%CONCAT(%MT_SD800,%RTN_BADFC_IOERR,'00'O,'02'O,%CC_NOBUF,'00'O)",
      253     1505              SD1600#="%CONCAT(%MT_SD1600,%RTN_STD,'00'O,'02'O,%CC_NOBUF,'00'O)",
      254     1506              SD6250#="%CONCAT(%MT_SD6250,%RTN_STD,'00'O,'02'O,%CC_NOBUF,'00'O)",
      255     1507              LDTAPE#="%CONCAT(%MT_LDTAPE,%RTN_STD,'00'O,'02'O,%CC_NOBUF,'00'O)",
      256     1508              EXTST#="%CONCAT(%MT_EXTST,%RTN_STD,'00'O,'02'O,%CC_UR,'00'O)",
      257     1509              ERASE#="%CONCAT(%MT_ERASE,%RTN_STD,'00'O,'02'O,%CC_NOBUF,'00'O)",
      258     1510              MODEL#="'MTU0610','MTU0630'",
      259     1511              FEATURE#="'MTF0608','MTF0635','MTF0637'");
              1512    1   DCL 1 NI_MTDVT1 CONSTANT SYMDEF ALIGNED,
              1513    1         2 SCHED EPTR INIT(ENTADDR(NIT$REQSCHED)),
              1514    1         2 POSTER EPTR INIT(ENTADDR(NIT$POSTER)),
              1515    1         2 DVSCH EPTR INIT(ENTADDR(NIT$DEVSCHED)),
              1516    1         2 MODEL(0:9) CHAR(8) ALIGNED INIT('MTU0610','MTU0630',' '*0),
              1517    1         2 FEATURE(0:9) CHAR(8) ALIGNED INIT(' ','MTF0608','MTF0635','MTF0637',' '*0),
              1518    1         2 TYPE UBIN(9) UNAL INIT(4),
              1519    1         2 NT@DCYLS UBIN(9) UNAL INIT(0),
              1520    1         2 SPT UBIN(9) UNAL INIT(0),
              1521    1         2 GRANSIZE UBIN(9) UNAL INIT(0),
              1522    1         2 PACKSIZE UBIN(36) UNAL INIT(0),
              1523    1         2 CYLSIZE UBIN(18) UNAL INIT(0),
              1524    1         2 T@DCYL UBIN(18) UNAL INIT(0),
              1525    1         2 SECSIZE UBIN(18) UNAL INIT(0),
PL6.E3A0      #001=NI_DVTS_D File=NI_DVTS_D.:E05TSI                              WED 07/30/97 03:42 Page:99
              1526    1         2 ATTR BIT(18) UNAL INIT('600000'O),
              1527    1         2 MPC ALIGNED,
              1528    1           3 FWNAME CHAR(4) INIT(' '),
              1529    1           3 LPNAME CHAR(4) INIT(' '),
              1530    1           3 CRPNAME CHAR(4) INIT(' '),
              1531    1         2 LP REDEF MPC ALIGNED,
              1532    1           3 CHAIN CHAR(4),
              1533    1           3 *(0:1) UBIN,
              1534    1         2 IDCW ALIGNED,
              1535    1           3 DCWLIST BIT(36) INIT('0003'O),
              1536    1           3 RQSTAT BIT(36) INIT('000200020200'O),
              1537    1           3 RDBIN BIT(36) INIT('050200020000'O),
              1538    1           3 WRBIN BIT(36) INIT('150200020000'O),
              1539    1           3 RDASC BIT(36) INIT('030200020000'O),
              1540    1           3 WRASC BIT(36) INIT('132200020000'O),
              1541    1           3 REWIND BIT(36) INIT('700200020200'O),
              1542    1           3 WRCMP BIT(36) INIT('0'B),
              1543    1           3 UNLOAD BIT(36) INIT('720200020200'O),
              1544    1           3 ALARM BIT(36) INIT('0'B),
              1545    1           3 WRFM BIT(36) INIT('550200020200'O),
              1546    1           3 WRZERO BIT(36) INIT('0'B),
              1547    1           3 READ BIT(36) INIT('032005020000'O),
              1548    1           3 WRITE BIT(36) INIT('132115020000'O),
              1549    1           3 SPREC BIT(36) INIT('441646400201'O),
              1550    1           3 SPFILE BIT(36) INIT('441746400277'O),
              1551    1           3 PERMIT BIT(36) INIT('630200020200'O),
              1552    1           3 PROTECT BIT(36) INIT('620200020200'O),
              1553    1           3 RESET BIT(36) INIT('400200020200'O),
              1554    1           3 SD800 BIT(36) INIT('600100020200'O),
              1555    1           3 SD1600 BIT(36) INIT('650200020200'O),
              1556    1           3 SD6250 BIT(36) INIT('410200020200'O),
              1557    1           3 LDCHAIN BIT(36) INIT('0'B),
              1558    1           3 LDTAPE BIT(36) INIT('750200020200'O),
              1559    1           3 RESTORE BIT(36) INIT('0'B),
              1560    1           3 LDVFC BIT(36) INIT('0'B),
              1561    1           3 SYMB BIT(36) INIT('0'B),
              1562    1           3 EXTST BIT(36) INIT('500200020000'O),
PL6.E3A0      #001=NI_DVTS_D File=NI_DVTS_D.:E05TSI                              WED 07/30/97 03:42 Page:100
              1563    1           3 ERACE BIT(36) INIT('540200020200'O);
      260     1565        %DVT (NAME=NI_MTDVT2,SCHED#=NIT$REQSCHED,POSTER#=NIT$POSTER,DVSCH#=NIT$DEVSCHED,
      261     1566              TYPE#=%DV_MT,ATTR#="%(ATTR_D800#|ATTR_D1600#)",
      262     1567              RQSTAT#="%CONCAT(%MT_RQSTAT,%RTN_STD,'00'O,'02'O,%CC_NOBUF,'00'O)",
      263     1568              RDBIN#="%CONCAT(%MT_RDBIN,%RTN_STD,'00'O,'02'O,%CC_UR,'00'O)",
      264     1569              WRBIN#="%CONCAT(%MT_WRBIN,%RTN_STD,'00'O,'02'O,%CC_UR,'00'O)",
      265     1570              RDASC#="%CONCAT(%MT_RD9,%RTN_STD,'00'O,'02'O,%CC_UR,'00'O)",
      266     1571              WRASC#="%CONCAT(%MT_WR9,%RTN_MT_WRBYTE,'00'O,'02'O,%CC_UR,'00'O)",
      267     1572              REWIND#="%CONCAT(%MT_REWIND,%RTN_STD,'00'O,'02'O,%CC_NOBUF,'00'O)",
      268     1573              UNLOAD#="%CONCAT(%MT_UNLOAD,%RTN_STD,'00'O,'02'O,%CC_NOBUF,'00'O)",
      269     1574              WRFM#="%CONCAT(%MT_WRFM,%RTN_STD,'00'O,'02'O,%CC_NOBUF,'00'O)",
      270     1575              READ#="%CONCAT(%MT_RD9,%RTN_MT_READ,%MT_RDBIN,'02'O,%CC_UR,'00'O)",
      271     1576              WRITE#="%CONCAT(%MT_WR9,%RTN_MT_WRITE,%MT_WRBIN,'02'O,%CC_UR,'00'O)",
      272     1577              SPREC#="%CONCAT(%MT_FSPR,%RTN_MT_SPR,%MT_BSPR,'40'O,%CC_NOBUF,'01'O)",
      273     1578              SPFILE#="%CONCAT(%MT_FSPR,%RTN_MT_SPF,%MT_BSPR,'40'O,%CC_NOBUF,'77'O)",
      274     1579              PERMIT#="%CONCAT(%MT_PERMIT,%RTN_BADFC_IGNORE,'00'O,'02'O,%CC_NOBUF,'00'O)",
      275     1580             PROTECT#="%CONCAT(%MT_PROTECT,%RTN_BADFC_IGNORE,'00'O,'02'O,%CC_NOBUF,'00'O)",
      276     1581              RESET#="%CONCAT(%MT_RESET,%RTN_STD,'00'O,'02'O,%CC_NOBUF,'00'O)",
      277     1582              SD800#="%CONCAT(%MT_SD800,%RTN_STD,'00'O,'02'O,%CC_NOBUF,'00'O)",
      278     1583              SD1600#="%CONCAT(%MT_SD1600,%RTN_STD,'00'O,'02'O,%CC_NOBUF,'00'O)",
      279     1584              SD6250#="%CONCAT(%MT_SD6250,%RTN_BADFC_IOERR,'00'O,'02'O,%CC_NOBUF,'00'O)",
      280     1585              LDTAPE#="%CONCAT(%MT_LDTAPE,%RTN_BADFC_IOERR,'00'O,'02'O,%CC_NOBUF,'00'O)",
      281     1586              EXTST#="%CONCAT(%MT_EXTST,%RTN_BADFC_IOERR,'00'O,'02'O,%CC_UR,'00'O)",
      282     1587              ERASE#="%CONCAT(%MT_ERASE,%RTN_STD,'00'O,'02'O,%CC_NOBUF,'00'O)",
      283     1588              MODEL#='MTU8200',
      284     1589              FEATURE#='MTF8205');
              1590    1   DCL 1 NI_MTDVT2 CONSTANT SYMDEF ALIGNED,
              1591    1         2 SCHED EPTR INIT(ENTADDR(NIT$REQSCHED)),
              1592    1         2 POSTER EPTR INIT(ENTADDR(NIT$POSTER)),
              1593    1         2 DVSCH EPTR INIT(ENTADDR(NIT$DEVSCHED)),
              1594    1         2 MODEL(0:9) CHAR(8) ALIGNED INIT('MTU8200',' '*0),
              1595    1         2 FEATURE(0:9) CHAR(8) ALIGNED INIT(' ','MTF8205',' '*0),
              1596    1         2 TYPE UBIN(9) UNAL INIT(4),
              1597    1         2 NT@DCYLS UBIN(9) UNAL INIT(0),
              1598    1         2 SPT UBIN(9) UNAL INIT(0),
              1599    1         2 GRANSIZE UBIN(9) UNAL INIT(0),
              1600    1         2 PACKSIZE UBIN(36) UNAL INIT(0),
PL6.E3A0      #001=NI_DVTS_D File=NI_DVTS_D.:E05TSI                              WED 07/30/97 03:42 Page:101
              1601    1         2 CYLSIZE UBIN(18) UNAL INIT(0),
              1602    1         2 T@DCYL UBIN(18) UNAL INIT(0),
              1603    1         2 SECSIZE UBIN(18) UNAL INIT(0),
              1604    1         2 ATTR BIT(18) UNAL INIT('300000'O),
              1605    1         2 MPC ALIGNED,
              1606    1           3 FWNAME CHAR(4) INIT(' '),
              1607    1           3 LPNAME CHAR(4) INIT(' '),
              1608    1           3 CRPNAME CHAR(4) INIT(' '),
              1609    1         2 LP REDEF MPC ALIGNED,
              1610    1           3 CHAIN CHAR(4),
              1611    1           3 *(0:1) UBIN,
              1612    1         2 IDCW ALIGNED,
              1613    1           3 DCWLIST BIT(36) INIT('0003'O),
              1614    1           3 RQSTAT BIT(36) INIT('000200020200'O),
              1615    1           3 RDBIN BIT(36) INIT('050200020000'O),
              1616    1           3 WRBIN BIT(36) INIT('150200020000'O),
              1617    1           3 RDASC BIT(36) INIT('030200020000'O),
              1618    1           3 WRASC BIT(36) INIT('132200020000'O),
              1619    1           3 REWIND BIT(36) INIT('700200020200'O),
              1620    1           3 WRCMP BIT(36) INIT('0'B),
              1621    1           3 UNLOAD BIT(36) INIT('720200020200'O),
              1622    1           3 ALARM BIT(36) INIT('0'B),
              1623    1           3 WRFM BIT(36) INIT('550200020200'O),
              1624    1           3 WRZERO BIT(36) INIT('0'B),
              1625    1           3 READ BIT(36) INIT('032005020000'O),
              1626    1           3 WRITE BIT(36) INIT('132115020000'O),
              1627    1           3 SPREC BIT(36) INIT('441646400201'O),
              1628    1           3 SPFILE BIT(36) INIT('441746400277'O),
              1629    1           3 PERMIT BIT(36) INIT('633100020200'O),
              1630    1           3 PROTECT BIT(36) INIT('623100020200'O),
              1631    1           3 RESET BIT(36) INIT('400200020200'O),
              1632    1           3 SD800 BIT(36) INIT('600200020200'O),
              1633    1           3 SD1600 BIT(36) INIT('650200020200'O),
              1634    1           3 SD6250 BIT(36) INIT('410100020200'O),
              1635    1           3 LDCHAIN BIT(36) INIT('0'B),
              1636    1           3 LDTAPE BIT(36) INIT('750100020200'O),
              1637    1           3 RESTORE BIT(36) INIT('0'B),
PL6.E3A0      #001=NI_DVTS_D File=NI_DVTS_D.:E05TSI                              WED 07/30/97 03:42 Page:102
              1638    1           3 LDVFC BIT(36) INIT('0'B),
              1639    1           3 SYMB BIT(36) INIT('0'B),
              1640    1           3 EXTST BIT(36) INIT('500100020000'O),
              1641    1           3 ERACE BIT(36) INIT('540200020200'O);
      285     1643        %DVT (NAME=NI_MTDVT3,SCHED#=NIT$REQSCHED,POSTER#=NIT$POSTER,DVSCH#=NIT$DEVSCHED,
      286     1644              TYPE#=%DV_MT,ATTR#="%(ATTR_D1600#|ATTR_D6250#)",
      287     1645              RQSTAT#="%CONCAT(%MT_RQSTAT,%RTN_STD,'00'O,'02'O,%CC_NOBUF,'00'O)",
      288     1646              RDBIN#="%CONCAT(%MT_RDBIN,%RTN_STD,'00'O,'02'O,%CC_UR,'00'O)",
      289     1647              WRBIN#="%CONCAT(%MT_WRBIN,%RTN_STD,'00'O,'02'O,%CC_UR,'00'O)",
      290     1648              RDASC#="%CONCAT(%MT_RD9,%RTN_STD,'00'O,'02'O,%CC_UR,'00'O)",
      291     1649              WRASC#="%CONCAT(%MT_WR9,%RTN_MT_WRBYTE,'00'O,'02'O,%CC_UR,'00'O)",
      292     1650              REWIND#="%CONCAT(%MT_REWIND,%RTN_STD,'00'O,'02'O,%CC_NOBUF,'00'O)",
      293     1651              UNLOAD#="%CONCAT(%MT_UNLOAD,%RTN_STD,'00'O,'02'O,%CC_NOBUF,'00'O)",
      294     1652              WRFM#="%CONCAT(%MT_WRFM,%RTN_STD,'00'O,'02'O,%CC_NOBUF,'00'O)",
      295     1653              READ#="%CONCAT(%MT_RD9,%RTN_MT_READ,%MT_RDBIN,'02'O,%CC_UR,'00'O)",
      296     1654              WRITE#="%CONCAT(%MT_WR9,%RTN_MT_WRITE,%MT_WRBIN,'02'O,%CC_UR,'00'O)",
      297     1655              SPREC#="%CONCAT(%MT_FSPR,%RTN_MT_SPR,%MT_BSPR,'40'O,%CC_NOBUF,'01'O)",
      298     1656              SPFILE#="%CONCAT(%MT_FSPR,%RTN_MT_SPF,%MT_BSPR,'40'O,%CC_NOBUF,'77'O)",
      299     1657              PERMIT#="%CONCAT(%MT_PERMIT,%RTN_BADFC_IGNORE,'00'O,'02'O,%CC_NOBUF,'00'O)",
      300     1658             PROTECT#="%CONCAT(%MT_PROTECT,%RTN_BADFC_IGNORE,'00'O,'02'O,%CC_NOBUF,'00'O)",
      301     1659              RESET#="%CONCAT(%MT_RESET,%RTN_STD,'00'O,'02'O,%CC_NOBUF,'00'O)",
      302     1660              SD800#="%CONCAT(%MT_SD800,%RTN_BADFC_IOERR,'00'O,'02'O,%CC_NOBUF,'00'O)",
      303     1661              SD1600#="%CONCAT(%MT_SD1600,%RTN_STD,'00'O,'02'O,%CC_NOBUF,'00'O)",
      304     1662              SD6250#="%CONCAT(%MT_SD6250,%RTN_STD,'00'O,'02'O,%CC_NOBUF,'00'O)",
      305     1663              LDTAPE#="%CONCAT(%MT_LDTAPE,%RTN_BADFC_IOERR,'00'O,'02'O,%CC_NOBUF,'00'O)",
      306     1664              EXTST#="%CONCAT(%MT_EXTST,%RTN_BADFC_IOERR,'00'O,'02'O,%CC_UR,'00'O)",
      307     1665              ERASE#="%CONCAT(%MT_ERASE,%RTN_STD,'00'O,'02'O,%CC_NOBUF,'00'O)",
      308     1666              MODEL#='MTU8200',
      309     1667              FEATURE#="'MTF8206','MTF8208'");
              1668    1   DCL 1 NI_MTDVT3 CONSTANT SYMDEF ALIGNED,
              1669    1         2 SCHED EPTR INIT(ENTADDR(NIT$REQSCHED)),
              1670    1         2 POSTER EPTR INIT(ENTADDR(NIT$POSTER)),
              1671    1         2 DVSCH EPTR INIT(ENTADDR(NIT$DEVSCHED)),
              1672    1         2 MODEL(0:9) CHAR(8) ALIGNED INIT('MTU8200',' '*0),
              1673    1         2 FEATURE(0:9) CHAR(8) ALIGNED INIT(' ','MTF8206','MTF8208',' '*0),
              1674    1         2 TYPE UBIN(9) UNAL INIT(4),
              1675    1         2 NT@DCYLS UBIN(9) UNAL INIT(0),
PL6.E3A0      #001=NI_DVTS_D File=NI_DVTS_D.:E05TSI                              WED 07/30/97 03:42 Page:103
              1676    1         2 SPT UBIN(9) UNAL INIT(0),
              1677    1         2 GRANSIZE UBIN(9) UNAL INIT(0),
              1678    1         2 PACKSIZE UBIN(36) UNAL INIT(0),
              1679    1         2 CYLSIZE UBIN(18) UNAL INIT(0),
              1680    1         2 T@DCYL UBIN(18) UNAL INIT(0),
              1681    1         2 SECSIZE UBIN(18) UNAL INIT(0),
              1682    1         2 ATTR BIT(18) UNAL INIT('600000'O),
              1683    1         2 MPC ALIGNED,
              1684    1           3 FWNAME CHAR(4) INIT(' '),
              1685    1           3 LPNAME CHAR(4) INIT(' '),
              1686    1           3 CRPNAME CHAR(4) INIT(' '),
              1687    1         2 LP REDEF MPC ALIGNED,
              1688    1           3 CHAIN CHAR(4),
              1689    1           3 *(0:1) UBIN,
              1690    1         2 IDCW ALIGNED,
              1691    1           3 DCWLIST BIT(36) INIT('0003'O),
              1692    1           3 RQSTAT BIT(36) INIT('000200020200'O),
              1693    1           3 RDBIN BIT(36) INIT('050200020000'O),
              1694    1           3 WRBIN BIT(36) INIT('150200020000'O),
              1695    1           3 RDASC BIT(36) INIT('030200020000'O),
              1696    1           3 WRASC BIT(36) INIT('132200020000'O),
              1697    1           3 REWIND BIT(36) INIT('700200020200'O),
              1698    1           3 WRCMP BIT(36) INIT('0'B),
              1699    1           3 UNLOAD BIT(36) INIT('720200020200'O),
              1700    1           3 ALARM BIT(36) INIT('0'B),
              1701    1           3 WRFM BIT(36) INIT('550200020200'O),
              1702    1           3 WRZERO BIT(36) INIT('0'B),
              1703    1           3 READ BIT(36) INIT('032005020000'O),
              1704    1           3 WRITE BIT(36) INIT('132115020000'O),
              1705    1           3 SPREC BIT(36) INIT('441646400201'O),
              1706    1           3 SPFILE BIT(36) INIT('441746400277'O),
              1707    1           3 PERMIT BIT(36) INIT('633100020200'O),
              1708    1           3 PROTECT BIT(36) INIT('623100020200'O),
              1709    1           3 RESET BIT(36) INIT('400200020200'O),
              1710    1           3 SD800 BIT(36) INIT('600100020200'O),
              1711    1           3 SD1600 BIT(36) INIT('650200020200'O),
              1712    1           3 SD6250 BIT(36) INIT('410200020200'O),
PL6.E3A0      #001=NI_DVTS_D File=NI_DVTS_D.:E05TSI                              WED 07/30/97 03:42 Page:104
              1713    1           3 LDCHAIN BIT(36) INIT('0'B),
              1714    1           3 LDTAPE BIT(36) INIT('750100020200'O),
              1715    1           3 RESTORE BIT(36) INIT('0'B),
              1716    1           3 LDVFC BIT(36) INIT('0'B),
              1717    1           3 SYMB BIT(36) INIT('0'B),
              1718    1           3 EXTST BIT(36) INIT('500100020000'O),
              1719    1           3 ERACE BIT(36) INIT('540200020200'O);
      310     1721        %DVT (NAME=NI_APDVT,SCHED#=NIU$REQSCHED,POSTER#=NAP$POSTER,DVSCH#=NIU$DEVSCHED,
      311     1722              TYPE#=%DV_AP,
      312     1723              DCWLIST#="%CONCAT('00'O,%RTN_AP_IO)",
      313     1724              MODEL#="'FPS0164'",FEATURE#="'SFS6125'");
              1725    1   DCL 1 NI_APDVT CONSTANT SYMDEF ALIGNED,
              1726    1         2 SCHED EPTR INIT(ENTADDR(NIU$REQSCHED)),
              1727    1         2 POSTER EPTR INIT(ENTADDR(NAP$POSTER)),
              1728    1         2 DVSCH EPTR INIT(ENTADDR(NIU$DEVSCHED)),
              1729    1         2 MODEL(0:9) CHAR(8) ALIGNED INIT('FPS0164',' '*0),
              1730    1         2 FEATURE(0:9) CHAR(8) ALIGNED INIT(' ','SFS6125',' '*0),
              1731    1         2 TYPE UBIN(9) UNAL INIT(8),
              1732    1         2 NT@DCYLS UBIN(9) UNAL INIT(0),
              1733    1         2 SPT UBIN(9) UNAL INIT(0),
              1734    1         2 GRANSIZE UBIN(9) UNAL INIT(0),
              1735    1         2 PACKSIZE UBIN(36) UNAL INIT(0),
              1736    1         2 CYLSIZE UBIN(18) UNAL INIT(0),
              1737    1         2 T@DCYL UBIN(18) UNAL INIT(0),
              1738    1         2 SECSIZE UBIN(18) UNAL INIT(0),
              1739    1         2 ATTR BIT(18) UNAL INIT('0'B),
              1740    1         2 MPC ALIGNED,
              1741    1           3 FWNAME CHAR(4) INIT(' '),
              1742    1           3 LPNAME CHAR(4) INIT(' '),
              1743    1           3 CRPNAME CHAR(4) INIT(' '),
              1744    1         2 LP REDEF MPC ALIGNED,
              1745    1           3 CHAIN CHAR(4),
              1746    1           3 *(0:1) UBIN,
              1747    1         2 IDCW ALIGNED,
              1748    1           3 DCWLIST BIT(36) INIT('0027'O),
              1749    1           3 RQSTAT BIT(36) INIT('0'B),
              1750    1           3 RDBIN BIT(36) INIT('0'B),
PL6.E3A0      #001=NI_DVTS_D File=NI_DVTS_D.:E05TSI                              WED 07/30/97 03:42 Page:105
              1751    1           3 WRBIN BIT(36) INIT('0'B),
              1752    1           3 RDASC BIT(36) INIT('0'B),
              1753    1           3 WRASC BIT(36) INIT('0'B),
              1754    1           3 REWIND BIT(36) INIT('0'B),
              1755    1           3 WRCMP BIT(36) INIT('0'B),
              1756    1           3 UNLOAD BIT(36) INIT('0'B),
              1757    1           3 ALARM BIT(36) INIT('0'B),
              1758    1           3 WRFM BIT(36) INIT('0'B),
              1759    1           3 WRZERO BIT(36) INIT('0'B),
              1760    1           3 READ BIT(36) INIT('0'B),
              1761    1           3 WRITE BIT(36) INIT('0'B),
              1762    1           3 SPREC BIT(36) INIT('0'B),
              1763    1           3 SPFILE BIT(36) INIT('0'B),
              1764    1           3 PERMIT BIT(36) INIT('0'B),
              1765    1           3 PROTECT BIT(36) INIT('0'B),
              1766    1           3 RESET BIT(36) INIT('0'B),
              1767    1           3 SD800 BIT(36) INIT('0'B),
              1768    1           3 SD1600 BIT(36) INIT('0'B),
              1769    1           3 SD6250 BIT(36) INIT('0'B),
              1770    1           3 LDCHAIN BIT(36) INIT('0'B),
              1771    1           3 LDTAPE BIT(36) INIT('0'B),
              1772    1           3 RESTORE BIT(36) INIT('0'B),
              1773    1           3 LDVFC BIT(36) INIT('0'B),
              1774    1           3 SYMB BIT(36) INIT('0'B),
              1775    1           3 EXTST BIT(36) INIT('0'B),
              1776    1           3 ERACE BIT(36) INIT('0'B);
      314     1778        %DVT (NAME=NI_ACDVT,SCHED#=NIU$REQSCHED,POSTER#=NAP$POSTER,DVSCH#=NIU$DEVSCHED,
      315     1779              TYPE#=%DV_MPC,
      316     1780              DCWLIST#="%CONCAT('00'O,%RTN_AP_IO)",
      317     1781              MODEL#="'FPS0164C'",
      318     1782              FWNAME#='NONE');
              1783    1   DCL 1 NI_ACDVT CONSTANT SYMDEF ALIGNED,
              1784    1         2 SCHED EPTR INIT(ENTADDR(NIU$REQSCHED)),
              1785    1         2 POSTER EPTR INIT(ENTADDR(NAP$POSTER)),
              1786    1         2 DVSCH EPTR INIT(ENTADDR(NIU$DEVSCHED)),
              1787    1         2 MODEL(0:9) CHAR(8) ALIGNED INIT('FPS0164C',' '*0),
              1788    1         2 FEATURE(0:9) CHAR(8) ALIGNED INIT(' ',' ',' '*0),
PL6.E3A0      #001=NI_DVTS_D File=NI_DVTS_D.:E05TSI                              WED 07/30/97 03:42 Page:106
              1789    1         2 TYPE UBIN(9) UNAL INIT(7),
              1790    1         2 NT@DCYLS UBIN(9) UNAL INIT(0),
              1791    1         2 SPT UBIN(9) UNAL INIT(0),
              1792    1         2 GRANSIZE UBIN(9) UNAL INIT(0),
              1793    1         2 PACKSIZE UBIN(36) UNAL INIT(0),
              1794    1         2 CYLSIZE UBIN(18) UNAL INIT(0),
              1795    1         2 T@DCYL UBIN(18) UNAL INIT(0),
              1796    1         2 SECSIZE UBIN(18) UNAL INIT(0),
              1797    1         2 ATTR BIT(18) UNAL INIT('0'B),
              1798    1         2 MPC ALIGNED,
              1799    1           3 FWNAME CHAR(4) INIT('NONE'),
              1800    1           3 LPNAME CHAR(4) INIT(' '),
              1801    1           3 CRPNAME CHAR(4) INIT(' '),
              1802    1         2 LP REDEF MPC ALIGNED,
              1803    1           3 CHAIN CHAR(4),
              1804    1           3 *(0:1) UBIN,
              1805    1         2 IDCW ALIGNED,
              1806    1           3 DCWLIST BIT(36) INIT('0027'O),
              1807    1           3 RQSTAT BIT(36) INIT('0'B),
              1808    1           3 RDBIN BIT(36) INIT('0'B),
              1809    1           3 WRBIN BIT(36) INIT('0'B),
              1810    1           3 RDASC BIT(36) INIT('0'B),
              1811    1           3 WRASC BIT(36) INIT('0'B),
              1812    1           3 REWIND BIT(36) INIT('0'B),
              1813    1           3 WRCMP BIT(36) INIT('0'B),
              1814    1           3 UNLOAD BIT(36) INIT('0'B),
              1815    1           3 ALARM BIT(36) INIT('0'B),
              1816    1           3 WRFM BIT(36) INIT('0'B),
              1817    1           3 WRZERO BIT(36) INIT('0'B),
              1818    1           3 READ BIT(36) INIT('0'B),
              1819    1           3 WRITE BIT(36) INIT('0'B),
              1820    1           3 SPREC BIT(36) INIT('0'B),
              1821    1           3 SPFILE BIT(36) INIT('0'B),
              1822    1           3 PERMIT BIT(36) INIT('0'B),
              1823    1           3 PROTECT BIT(36) INIT('0'B),
              1824    1           3 RESET BIT(36) INIT('0'B),
              1825    1           3 SD800 BIT(36) INIT('0'B),
PL6.E3A0      #001=NI_DVTS_D File=NI_DVTS_D.:E05TSI                              WED 07/30/97 03:42 Page:107
              1826    1           3 SD1600 BIT(36) INIT('0'B),
              1827    1           3 SD6250 BIT(36) INIT('0'B),
              1828    1           3 LDCHAIN BIT(36) INIT('0'B),
              1829    1           3 LDTAPE BIT(36) INIT('0'B),
              1830    1           3 RESTORE BIT(36) INIT('0'B),
              1831    1           3 LDVFC BIT(36) INIT('0'B),
              1832    1           3 SYMB BIT(36) INIT('0'B),
              1833    1           3 EXTST BIT(36) INIT('0'B),
              1834    1           3 ERACE BIT(36) INIT('0'B);
      319     1836        /**/
      320     1837        /* DISK DVTS */
      321     1838        /**/
      322     1839        /* WARNING!!!
      323     1840              When adding new disk DVTs, remember to update code in THF$FORMAT
      324     1841              which calculates CYL, HD, and SE from SEEK.SECTOR.  Also, don't forget
      325     1842              that a new ATTR is probably necessary - affects PIG, IBEX, etc.
      326     1843              In addition, don't forget to fix ITC - autoconfig.
      327     1844        */
      328     1845        %DVT (NAME=NI_DPDVT1,SCHED#=NID$REQSCHED,POSTER#=NID$POSTER,DVSCH#=NID$DEVSCHED,
      329     1846              TYPE#=%DV_DP,ATTR#=%ATTR_DD200#,
      330     1847              T@DCYL#=814,NT@DCYLS#=1,
      331     1848              GS#=16,SS#=64,CS#=760,PS#=38665,SPT#=40,
      332     1849              RQSTAT#="%CONCAT(%DP_RQSTAT,%RTN_STD,'00'O,'02'O,%CC_NOBUF,'00'O)",
      333     1850              RDBIN#="%CONCAT(%DP_SEEK64,%RTN_DP_SEEK,%DP_RDBIN,'02'O,%CC_UR,'00'O)",
      334     1851              WRBIN#="%CONCAT(%DP_SEEK64,%RTN_DP_SEEK,%DP_WRBIN,'02'O,%CC_UR,'00'O)",
      335     1852              RDASC#="%CONCAT(%DP_SEEK64,%RTN_DP_SEEK,%DP_RDASC,'02'O,%CC_UR,'00'O)",
      336     1853              WRASC#="%CONCAT(%DP_SEEK64,%RTN_DP_SEEK,%DP_WRASC,'02'O,%CC_UR,'00'O)",
      337     1854              WRCMP#="%CONCAT(%DP_SEEK64,%RTN_DP_SEEK,%DP_WRCMP,'02'O,%CC_UR,'00'O)",
      338     1855              UNLOAD#="%CONCAT(%DP_UNLOAD,%RTN_STD,'00'O,'02'O,%CC_NOBUF,'00'O)",
      339     1856              WRZERO#="%CONCAT(%DP_SEEK64,%RTN_DP_WRZERO,%DP_WRBIN,'02'O,%CC_UR,'00'O)",
      340     1857              RESTORE#="%CONCAT(%DP_RESTORE,%RTN_STD,'00'O,'02'O,%CC_NOBUF,'00'O)",
      341     1858              EXTST#="%CONCAT(%DP_EXTST,%RTN_STD,'00'O,'02'O,%CC_UR,'00'O)",
      342     1859              MODEL#='MSU0451',FEATURE#='MSF0007');
              1860    1   DCL 1 NI_DPDVT1 CONSTANT SYMDEF ALIGNED,
              1861    1         2 SCHED EPTR INIT(ENTADDR(NID$REQSCHED)),
              1862    1         2 POSTER EPTR INIT(ENTADDR(NID$POSTER)),
              1863    1         2 DVSCH EPTR INIT(ENTADDR(NID$DEVSCHED)),
PL6.E3A0      #001=NI_DVTS_D File=NI_DVTS_D.:E05TSI                              WED 07/30/97 03:42 Page:108
              1864    1         2 MODEL(0:9) CHAR(8) ALIGNED INIT('MSU0451',' '*0),
              1865    1         2 FEATURE(0:9) CHAR(8) ALIGNED INIT(' ','MSF0007',' '*0),
              1866    1         2 TYPE UBIN(9) UNAL INIT(6),
              1867    1         2 NT@DCYLS UBIN(9) UNAL INIT(1),
              1868    1         2 SPT UBIN(9) UNAL INIT(40),
              1869    1         2 GRANSIZE UBIN(9) UNAL INIT(16),
              1870    1         2 PACKSIZE UBIN(36) UNAL INIT(38665),
              1871    1         2 CYLSIZE UBIN(18) UNAL INIT(760),
              1872    1         2 T@DCYL UBIN(18) UNAL INIT(814),
              1873    1         2 SECSIZE UBIN(18) UNAL INIT(64),
              1874    1         2 ATTR BIT(18) UNAL INIT('010000'O),
              1875    1         2 MPC ALIGNED,
              1876    1           3 FWNAME CHAR(4) INIT(' '),
              1877    1           3 LPNAME CHAR(4) INIT(' '),
              1878    1           3 CRPNAME CHAR(4) INIT(' '),
              1879    1         2 LP REDEF MPC ALIGNED,
              1880    1           3 CHAIN CHAR(4),
              1881    1           3 *(0:1) UBIN,
              1882    1         2 IDCW ALIGNED,
              1883    1           3 DCWLIST BIT(36) INIT('0003'O),
              1884    1           3 RQSTAT BIT(36) INIT('000200020200'O),
              1885    1           3 RDBIN BIT(36) INIT('342325020000'O),
              1886    1           3 WRBIN BIT(36) INIT('342331020000'O),
              1887    1           3 RDASC BIT(36) INIT('342323020000'O),
              1888    1           3 WRASC BIT(36) INIT('342332020000'O),
              1889    1           3 REWIND BIT(36) INIT('0'B),
              1890    1           3 WRCMP BIT(36) INIT('342333020000'O),
              1891    1           3 UNLOAD BIT(36) INIT('720200020200'O),
              1892    1           3 ALARM BIT(36) INIT('0'B),
              1893    1           3 WRFM BIT(36) INIT('0'B),
              1894    1           3 WRZERO BIT(36) INIT('342431020000'O),
              1895    1           3 READ BIT(36) INIT('0'B),
              1896    1           3 WRITE BIT(36) INIT('0'B),
              1897    1           3 SPREC BIT(36) INIT('0'B),
              1898    1           3 SPFILE BIT(36) INIT('0'B),
              1899    1           3 PERMIT BIT(36) INIT('0'B),
              1900    1           3 PROTECT BIT(36) INIT('0'B),
PL6.E3A0      #001=NI_DVTS_D File=NI_DVTS_D.:E05TSI                              WED 07/30/97 03:42 Page:109
              1901    1           3 RESET BIT(36) INIT('0'B),
              1902    1           3 SD800 BIT(36) INIT('0'B),
              1903    1           3 SD1600 BIT(36) INIT('0'B),
              1904    1           3 SD6250 BIT(36) INIT('0'B),
              1905    1           3 LDCHAIN BIT(36) INIT('0'B),
              1906    1           3 LDTAPE BIT(36) INIT('0'B),
              1907    1           3 RESTORE BIT(36) INIT('420200020200'O),
              1908    1           3 LDVFC BIT(36) INIT('0'B),
              1909    1           3 SYMB BIT(36) INIT('0'B),
              1910    1           3 EXTST BIT(36) INIT('220200020000'O),
              1911    1           3 ERACE BIT(36) INIT('0'B);
      343     1913        %DVT (NAME=NI_DPDVT2,SCHED#=NID$REQSCHED,POSTER#=NID$POSTER,DVSCH#=NID$DEVSCHED,
      344     1914              TYPE#=%DV_DP,ATTR#=%ATTR_DD600#,
      345     1915              T@DCYL#=841,NT@DCYLS#=1,
      346     1916              GS#=2,SS#=512,CS#=320,PS#=134400,SPT#=8,
      347     1917              RQSTAT#="%CONCAT(%DP_RQSTAT,%RTN_STD,'00'O,'02'O,%CC_NOBUF,'00'O)",
      348     1918              RDBIN#="%CONCAT(%DP_SEEK512,%RTN_DP_SEEK,%DP_RDBIN,'02'O,%CC_UR,'00'O)",
      349     1919              WRBIN#="%CONCAT(%DP_SEEK512,%RTN_DP_SEEK,%DP_WRBIN,'02'O,%CC_UR,'00'O)",
      350     1920              RDASC#="%CONCAT(%DP_SEEK512,%RTN_DP_SEEK,%DP_RDASC,'02'O,%CC_UR,'00'O)",
      351     1921              WRASC#="%CONCAT(%DP_SEEK512,%RTN_DP_SEEK,%DP_WRASC,'02'O,%CC_UR,'00'O)",
      352     1922              WRCMP#="%CONCAT(%DP_SEEK512,%RTN_DP_SEEK,%DP_WRCMP,'02'O,%CC_UR,'00'O)",
      353     1923              UNLOAD#="%CONCAT(%DP_UNLOAD,%RTN_STD,'00'O,'02'O,%CC_NOBUF,'00'O)",
      354     1924              WRZERO#="%CONCAT(%DP_SEEK512,%RTN_DP_WRZERO,%DP_WRBIN,'02'O,%CC_UR,'00'O)",
      355     1925              RESTORE#="%CONCAT(%DP_RESTORE,%RTN_STD,'00'O,'02'O,%CC_NOBUF,'00'O)",
      356     1926              EXTST#="%CONCAT(%DP_EXTST,%RTN_STD,'00'O,'02'O,%CC_UR,'00'O)",
      357     1927              MODEL#="'MSU0501','MSU0509'",FEATURE#='MSF0015');
              1928    1   DCL 1 NI_DPDVT2 CONSTANT SYMDEF ALIGNED,
              1929    1         2 SCHED EPTR INIT(ENTADDR(NID$REQSCHED)),
              1930    1         2 POSTER EPTR INIT(ENTADDR(NID$POSTER)),
              1931    1         2 DVSCH EPTR INIT(ENTADDR(NID$DEVSCHED)),
              1932    1         2 MODEL(0:9) CHAR(8) ALIGNED INIT('MSU0501','MSU0509',' '*0),
              1933    1         2 FEATURE(0:9) CHAR(8) ALIGNED INIT(' ','MSF0015',' '*0),
              1934    1         2 TYPE UBIN(9) UNAL INIT(6),
              1935    1         2 NT@DCYLS UBIN(9) UNAL INIT(1),
              1936    1         2 SPT UBIN(9) UNAL INIT(8),
              1937    1         2 GRANSIZE UBIN(9) UNAL INIT(2),
              1938    1         2 PACKSIZE UBIN(36) UNAL INIT(134400),
PL6.E3A0      #001=NI_DVTS_D File=NI_DVTS_D.:E05TSI                              WED 07/30/97 03:42 Page:110
              1939    1         2 CYLSIZE UBIN(18) UNAL INIT(320),
              1940    1         2 T@DCYL UBIN(18) UNAL INIT(841),
              1941    1         2 SECSIZE UBIN(18) UNAL INIT(512),
              1942    1         2 ATTR BIT(18) UNAL INIT('040000'O),
              1943    1         2 MPC ALIGNED,
              1944    1           3 FWNAME CHAR(4) INIT(' '),
              1945    1           3 LPNAME CHAR(4) INIT(' '),
              1946    1           3 CRPNAME CHAR(4) INIT(' '),
              1947    1         2 LP REDEF MPC ALIGNED,
              1948    1           3 CHAIN CHAR(4),
              1949    1           3 *(0:1) UBIN,
              1950    1         2 IDCW ALIGNED,
              1951    1           3 DCWLIST BIT(36) INIT('0003'O),
              1952    1           3 RQSTAT BIT(36) INIT('000200020200'O),
              1953    1           3 RDBIN BIT(36) INIT('302325020000'O),
              1954    1           3 WRBIN BIT(36) INIT('302331020000'O),
              1955    1           3 RDASC BIT(36) INIT('302323020000'O),
              1956    1           3 WRASC BIT(36) INIT('302332020000'O),
              1957    1           3 REWIND BIT(36) INIT('0'B),
              1958    1           3 WRCMP BIT(36) INIT('302333020000'O),
              1959    1           3 UNLOAD BIT(36) INIT('720200020200'O),
              1960    1           3 ALARM BIT(36) INIT('0'B),
              1961    1           3 WRFM BIT(36) INIT('0'B),
              1962    1           3 WRZERO BIT(36) INIT('302431020000'O),
              1963    1           3 READ BIT(36) INIT('0'B),
              1964    1           3 WRITE BIT(36) INIT('0'B),
              1965    1           3 SPREC BIT(36) INIT('0'B),
              1966    1           3 SPFILE BIT(36) INIT('0'B),
              1967    1           3 PERMIT BIT(36) INIT('0'B),
              1968    1           3 PROTECT BIT(36) INIT('0'B),
              1969    1           3 RESET BIT(36) INIT('0'B),
              1970    1           3 SD800 BIT(36) INIT('0'B),
              1971    1           3 SD1600 BIT(36) INIT('0'B),
              1972    1           3 SD6250 BIT(36) INIT('0'B),
              1973    1           3 LDCHAIN BIT(36) INIT('0'B),
              1974    1           3 LDTAPE BIT(36) INIT('0'B),
              1975    1           3 RESTORE BIT(36) INIT('420200020200'O),
PL6.E3A0      #001=NI_DVTS_D File=NI_DVTS_D.:E05TSI                              WED 07/30/97 03:42 Page:111
              1976    1           3 LDVFC BIT(36) INIT('0'B),
              1977    1           3 SYMB BIT(36) INIT('0'B),
              1978    1           3 EXTST BIT(36) INIT('220200020000'O),
              1979    1           3 ERACE BIT(36) INIT('0'B);
      358     1981        %DVT (NAME=NI_DPDVT3,SCHED#=NID$REQSCHED,POSTER#=NID$POSTER,DVSCH#=NID$DEVSCHED,
      359     1982              TYPE#=%DV_DP,ATTR#=%ATTR_DD600#,
      360     1983              T@DCYL#=841,NT@DCYLS#=1,
      361     1984              GS#=2,SS#=512,CS#=160,PS#=67200,SPT#=8,
      362     1985              RQSTAT#="%CONCAT(%DP_RQSTAT,%RTN_STD,'00'O,'02'O,%CC_NOBUF,'00'O)",
      363     1986              RDBIN#="%CONCAT(%DP_SEEK512,%RTN_DP_SEEK,%DP_RDBIN,'02'O,%CC_UR,'00'O)",
      364     1987              WRBIN#="%CONCAT(%DP_SEEK512,%RTN_DP_SEEK,%DP_WRBIN,'02'O,%CC_UR,'00'O)",
      365     1988              RDASC#="%CONCAT(%DP_SEEK512,%RTN_DP_SEEK,%DP_RDASC,'02'O,%CC_UR,'00'O)",
      366     1989              WRASC#="%CONCAT(%DP_SEEK512,%RTN_DP_SEEK,%DP_WRASC,'02'O,%CC_UR,'00'O)",
      367     1990              WRCMP#="%CONCAT(%DP_SEEK512,%RTN_DP_SEEK,%DP_WRCMP,'02'O,%CC_UR,'00'O)",
      368     1991              UNLOAD#="%CONCAT(%DP_UNLOAD,%RTN_STD,'00'O,'02'O,%CC_NOBUF,'00'O)",
      369     1992              WRZERO#="%CONCAT(%DP_SEEK512,%RTN_DP_WRZERO,%DP_WRBIN,'02'O,%CC_UR,'00'O)",
      370     1993              RESTORE#="%CONCAT(%DP_RESTORE,%RTN_STD,'00'O,'02'O,%CC_NOBUF,'00'O)",
      371     1994              EXTST#="%CONCAT(%DP_EXTST,%RTN_STD,'00'O,'02'O,%CC_UR,'00'O)",
      372     1995              MODEL#='MSU0501',FEATURE#='MSFXXXX');
              1996    1   DCL 1 NI_DPDVT3 CONSTANT SYMDEF ALIGNED,
              1997    1         2 SCHED EPTR INIT(ENTADDR(NID$REQSCHED)),
              1998    1         2 POSTER EPTR INIT(ENTADDR(NID$POSTER)),
              1999    1         2 DVSCH EPTR INIT(ENTADDR(NID$DEVSCHED)),
              2000    1         2 MODEL(0:9) CHAR(8) ALIGNED INIT('MSU0501',' '*0),
              2001    1         2 FEATURE(0:9) CHAR(8) ALIGNED INIT(' ','MSFXXXX',' '*0),
              2002    1         2 TYPE UBIN(9) UNAL INIT(6),
              2003    1         2 NT@DCYLS UBIN(9) UNAL INIT(1),
              2004    1         2 SPT UBIN(9) UNAL INIT(8),
              2005    1         2 GRANSIZE UBIN(9) UNAL INIT(2),
              2006    1         2 PACKSIZE UBIN(36) UNAL INIT(67200),
              2007    1         2 CYLSIZE UBIN(18) UNAL INIT(160),
              2008    1         2 T@DCYL UBIN(18) UNAL INIT(841),
              2009    1         2 SECSIZE UBIN(18) UNAL INIT(512),
              2010    1         2 ATTR BIT(18) UNAL INIT('040000'O),
              2011    1         2 MPC ALIGNED,
              2012    1           3 FWNAME CHAR(4) INIT(' '),
              2013    1           3 LPNAME CHAR(4) INIT(' '),
PL6.E3A0      #001=NI_DVTS_D File=NI_DVTS_D.:E05TSI                              WED 07/30/97 03:42 Page:112
              2014    1           3 CRPNAME CHAR(4) INIT(' '),
              2015    1         2 LP REDEF MPC ALIGNED,
              2016    1           3 CHAIN CHAR(4),
              2017    1           3 *(0:1) UBIN,
              2018    1         2 IDCW ALIGNED,
              2019    1           3 DCWLIST BIT(36) INIT('0003'O),
              2020    1           3 RQSTAT BIT(36) INIT('000200020200'O),
              2021    1           3 RDBIN BIT(36) INIT('302325020000'O),
              2022    1           3 WRBIN BIT(36) INIT('302331020000'O),
              2023    1           3 RDASC BIT(36) INIT('302323020000'O),
              2024    1           3 WRASC BIT(36) INIT('302332020000'O),
              2025    1           3 REWIND BIT(36) INIT('0'B),
              2026    1           3 WRCMP BIT(36) INIT('302333020000'O),
              2027    1           3 UNLOAD BIT(36) INIT('720200020200'O),
              2028    1           3 ALARM BIT(36) INIT('0'B),
              2029    1           3 WRFM BIT(36) INIT('0'B),
              2030    1           3 WRZERO BIT(36) INIT('302431020000'O),
              2031    1           3 READ BIT(36) INIT('0'B),
              2032    1           3 WRITE BIT(36) INIT('0'B),
              2033    1           3 SPREC BIT(36) INIT('0'B),
              2034    1           3 SPFILE BIT(36) INIT('0'B),
              2035    1           3 PERMIT BIT(36) INIT('0'B),
              2036    1           3 PROTECT BIT(36) INIT('0'B),
              2037    1           3 RESET BIT(36) INIT('0'B),
              2038    1           3 SD800 BIT(36) INIT('0'B),
              2039    1           3 SD1600 BIT(36) INIT('0'B),
              2040    1           3 SD6250 BIT(36) INIT('0'B),
              2041    1           3 LDCHAIN BIT(36) INIT('0'B),
              2042    1           3 LDTAPE BIT(36) INIT('0'B),
              2043    1           3 RESTORE BIT(36) INIT('420200020200'O),
              2044    1           3 LDVFC BIT(36) INIT('0'B),
              2045    1           3 SYMB BIT(36) INIT('0'B),
              2046    1           3 EXTST BIT(36) INIT('220200020000'O),
              2047    1           3 ERACE BIT(36) INIT('0'B);
      373     2049        %DVT (NAME=NI_DPDVT4,SCHED#=NID$REQSCHED,POSTER#=NID$POSTER,DVSCH#=NID$DEVSCHED,
      374     2050              TYPE#=%DV_DP,ATTR#=%ATTR_DD500#,
      375     2051              T@DCYL#=886,NT@DCYLS#=1,
PL6.E3A0      #001=NI_DVTS_D File=NI_DVTS_D.:E05TSI                              WED 07/30/97 03:42 Page:113
      376     2052              GS#=2,SS#=512,CS#=255,PS#=112837,SPT#=17,
      377     2053              RQSTAT#="%CONCAT(%DP_RQSTAT,%RTN_STD,'00'O,'02'O,%CC_NOBUF,'00'O)",
      378     2054              RDBIN#="%CONCAT(%DP_SEEK512,%RTN_DP_SEEK,%DP_RDBIN,'04'O,%CC_UR,'00'O)",
      379     2055              WRBIN#="%CONCAT(%DP_SEEK512,%RTN_DP_SEEK,%DP_WRBIN,'04'O,%CC_UR,'00'O)",
      380     2056              RDASC#="%CONCAT(%DP_SEEK512,%RTN_DP_SEEK,%DP_RDASC,'04'O,%CC_UR,'00'O)",
      381     2057              WRASC#="%CONCAT(%DP_SEEK512,%RTN_DP_SEEK,%DP_WRASC,'04'O,%CC_UR,'00'O)",
      382     2058              WRCMP#="%CONCAT(%DP_SEEK512,%RTN_DP_SEEK,%DP_WRCMP,'02'O,%CC_UR,'00'O)",
      383     2059              UNLOAD#="%CONCAT(%DP_UNLOAD,%RTN_BADFC_IOERR,'00'O,'02'O,%CC_NOBUF,'00'O)",
      384     2060              WRZERO#="%CONCAT(%DP_SEEK512,%RTN_DP_WRZERO,%DP_WRBIN,'02'O,%CC_UR,'00'O)",
      385     2061              RESTORE#="%CONCAT(%DP_RESTORE,%RTN_STD,'00'O,'02'O,%CC_NOBUF,'00'O)",
      386     2062              EXTST#="%CONCAT(%DP_EXTST,%RTN_BADFC_IOERR,'00'O,'02'O,%CC_UR,'00'O)",
      387     2063              MODEL#="'MSU3380','MSU3382','MSU3390','MSU3392'",
      388     2064              FEATURE#='       ');
              2065    1   DCL 1 NI_DPDVT4 CONSTANT SYMDEF ALIGNED,
              2066    1         2 SCHED EPTR INIT(ENTADDR(NID$REQSCHED)),
              2067    1         2 POSTER EPTR INIT(ENTADDR(NID$POSTER)),
              2068    1         2 DVSCH EPTR INIT(ENTADDR(NID$DEVSCHED)),
              2069    1        2 MODEL(0:9) CHAR(8) ALIGNED INIT('MSU3380','MSU3382','MSU3390','MSU3392',' '*
              2069                  0),
              2070    1         2 FEATURE(0:9) CHAR(8) ALIGNED INIT(' ','       ',' '*0),
              2071    1         2 TYPE UBIN(9) UNAL INIT(6),
              2072    1         2 NT@DCYLS UBIN(9) UNAL INIT(1),
              2073    1         2 SPT UBIN(9) UNAL INIT(17),
              2074    1         2 GRANSIZE UBIN(9) UNAL INIT(2),
              2075    1         2 PACKSIZE UBIN(36) UNAL INIT(112837),
              2076    1         2 CYLSIZE UBIN(18) UNAL INIT(255),
              2077    1         2 T@DCYL UBIN(18) UNAL INIT(886),
              2078    1         2 SECSIZE UBIN(18) UNAL INIT(512),
              2079    1         2 ATTR BIT(18) UNAL INIT('002000'O),
              2080    1         2 MPC ALIGNED,
              2081    1           3 FWNAME CHAR(4) INIT(' '),
              2082    1           3 LPNAME CHAR(4) INIT(' '),
              2083    1           3 CRPNAME CHAR(4) INIT(' '),
              2084    1         2 LP REDEF MPC ALIGNED,
              2085    1           3 CHAIN CHAR(4),
              2086    1           3 *(0:1) UBIN,
              2087    1         2 IDCW ALIGNED,
PL6.E3A0      #001=NI_DVTS_D File=NI_DVTS_D.:E05TSI                              WED 07/30/97 03:42 Page:114
              2088    1           3 DCWLIST BIT(36) INIT('0003'O),
              2089    1           3 RQSTAT BIT(36) INIT('000200020200'O),
              2090    1           3 RDBIN BIT(36) INIT('302325040000'O),
              2091    1           3 WRBIN BIT(36) INIT('302331040000'O),
              2092    1           3 RDASC BIT(36) INIT('302323040000'O),
              2093    1           3 WRASC BIT(36) INIT('302332040000'O),
              2094    1           3 REWIND BIT(36) INIT('0'B),
              2095    1           3 WRCMP BIT(36) INIT('302333020000'O),
              2096    1           3 UNLOAD BIT(36) INIT('720100020200'O),
              2097    1           3 ALARM BIT(36) INIT('0'B),
              2098    1           3 WRFM BIT(36) INIT('0'B),
              2099    1           3 WRZERO BIT(36) INIT('302431020000'O),
              2100    1           3 READ BIT(36) INIT('0'B),
              2101    1           3 WRITE BIT(36) INIT('0'B),
              2102    1           3 SPREC BIT(36) INIT('0'B),
              2103    1           3 SPFILE BIT(36) INIT('0'B),
              2104    1           3 PERMIT BIT(36) INIT('0'B),
              2105    1           3 PROTECT BIT(36) INIT('0'B),
              2106    1           3 RESET BIT(36) INIT('0'B),
              2107    1           3 SD800 BIT(36) INIT('0'B),
              2108    1           3 SD1600 BIT(36) INIT('0'B),
              2109    1           3 SD6250 BIT(36) INIT('0'B),
              2110    1           3 LDCHAIN BIT(36) INIT('0'B),
              2111    1           3 LDTAPE BIT(36) INIT('0'B),
              2112    1           3 RESTORE BIT(36) INIT('420200020200'O),
              2113    1           3 LDVFC BIT(36) INIT('0'B),
              2114    1           3 SYMB BIT(36) INIT('0'B),
              2115    1           3 EXTST BIT(36) INIT('220100020000'O),
              2116    1           3 ERACE BIT(36) INIT('0'B);
      389     2118        %DVT (NAME=NI_DPDVT5,SCHED#=NID$REQSCHED,POSTER#=NID$POSTER,DVSCH#=NID$DEVSCHED,
      390     2119              TYPE#=%DV_DP,ATTR#=%ATTR_DD1000#,
      391     2120              T@DCYL#=1771,NT@DCYLS#=1,
      392     2121              GS#=2,SS#=512,CS#=255,PS#=225675,SPT#=17,
      393     2122              RQSTAT#="%CONCAT(%DP_RQSTAT,%RTN_STD,'00'O,'02'O,%CC_NOBUF,'00'O)",
      394     2123              RDBIN#="%CONCAT(%DP_SEEK512,%RTN_DP_SEEK,%DP_RDBIN,'04'O,%CC_UR,'00'O)",
      395     2124              WRBIN#="%CONCAT(%DP_SEEK512,%RTN_DP_SEEK,%DP_WRBIN,'04'O,%CC_UR,'00'O)",
      396     2125              RDASC#="%CONCAT(%DP_SEEK512,%RTN_DP_SEEK,%DP_RDASC,'04'O,%CC_UR,'00'O)",
PL6.E3A0      #001=NI_DVTS_D File=NI_DVTS_D.:E05TSI                              WED 07/30/97 03:42 Page:115
      397     2126              WRASC#="%CONCAT(%DP_SEEK512,%RTN_DP_SEEK,%DP_WRASC,'04'O,%CC_UR,'00'O)",
      398     2127              WRCMP#="%CONCAT(%DP_SEEK512,%RTN_DP_SEEK,%DP_WRCMP,'02'O,%CC_UR,'00'O)",
      399     2128              UNLOAD#="%CONCAT(%DP_UNLOAD,%RTN_BADFC_IOERR,'00'O,'02'O,%CC_NOBUF,'00'O)",
      400     2129              WRZERO#="%CONCAT(%DP_SEEK512,%RTN_DP_WRZERO,%DP_WRBIN,'02'O,%CC_UR,'00'O)",
      401     2130              RESTORE#="%CONCAT(%DP_RESTORE,%RTN_STD,'00'O,'02'O,%CC_NOBUF,'00'O)",
      402     2131              EXTST#="%CONCAT(%DP_EXTST,%RTN_BADFC_IOERR,'00'O,'02'O,%CC_UR,'00'O)",
      403     2132              MODEL#="'MSU3381','MSU3383'",
      404     2133              FEATURE#='       ');
              2134    1   DCL 1 NI_DPDVT5 CONSTANT SYMDEF ALIGNED,
              2135    1         2 SCHED EPTR INIT(ENTADDR(NID$REQSCHED)),
              2136    1         2 POSTER EPTR INIT(ENTADDR(NID$POSTER)),
              2137    1         2 DVSCH EPTR INIT(ENTADDR(NID$DEVSCHED)),
              2138    1         2 MODEL(0:9) CHAR(8) ALIGNED INIT('MSU3381','MSU3383',' '*0),
              2139    1         2 FEATURE(0:9) CHAR(8) ALIGNED INIT(' ','       ',' '*0),
              2140    1         2 TYPE UBIN(9) UNAL INIT(6),
              2141    1         2 NT@DCYLS UBIN(9) UNAL INIT(1),
              2142    1         2 SPT UBIN(9) UNAL INIT(17),
              2143    1         2 GRANSIZE UBIN(9) UNAL INIT(2),
              2144    1         2 PACKSIZE UBIN(36) UNAL INIT(225675),
              2145    1         2 CYLSIZE UBIN(18) UNAL INIT(255),
              2146    1         2 T@DCYL UBIN(18) UNAL INIT(1771),
              2147    1         2 SECSIZE UBIN(18) UNAL INIT(512),
              2148    1         2 ATTR BIT(18) UNAL INIT('001000'O),
              2149    1         2 MPC ALIGNED,
              2150    1           3 FWNAME CHAR(4) INIT(' '),
              2151    1           3 LPNAME CHAR(4) INIT(' '),
              2152    1           3 CRPNAME CHAR(4) INIT(' '),
              2153    1         2 LP REDEF MPC ALIGNED,
              2154    1           3 CHAIN CHAR(4),
              2155    1           3 *(0:1) UBIN,
              2156    1         2 IDCW ALIGNED,
              2157    1           3 DCWLIST BIT(36) INIT('0003'O),
              2158    1           3 RQSTAT BIT(36) INIT('000200020200'O),
              2159    1           3 RDBIN BIT(36) INIT('302325040000'O),
              2160    1           3 WRBIN BIT(36) INIT('302331040000'O),
              2161    1           3 RDASC BIT(36) INIT('302323040000'O),
              2162    1           3 WRASC BIT(36) INIT('302332040000'O),
PL6.E3A0      #001=NI_DVTS_D File=NI_DVTS_D.:E05TSI                              WED 07/30/97 03:42 Page:116
              2163    1           3 REWIND BIT(36) INIT('0'B),
              2164    1           3 WRCMP BIT(36) INIT('302333020000'O),
              2165    1           3 UNLOAD BIT(36) INIT('720100020200'O),
              2166    1           3 ALARM BIT(36) INIT('0'B),
              2167    1           3 WRFM BIT(36) INIT('0'B),
              2168    1           3 WRZERO BIT(36) INIT('302431020000'O),
              2169    1           3 READ BIT(36) INIT('0'B),
              2170    1           3 WRITE BIT(36) INIT('0'B),
              2171    1           3 SPREC BIT(36) INIT('0'B),
              2172    1           3 SPFILE BIT(36) INIT('0'B),
              2173    1           3 PERMIT BIT(36) INIT('0'B),
              2174    1           3 PROTECT BIT(36) INIT('0'B),
              2175    1           3 RESET BIT(36) INIT('0'B),
              2176    1           3 SD800 BIT(36) INIT('0'B),
              2177    1           3 SD1600 BIT(36) INIT('0'B),
              2178    1           3 SD6250 BIT(36) INIT('0'B),
              2179    1           3 LDCHAIN BIT(36) INIT('0'B),
              2180    1           3 LDTAPE BIT(36) INIT('0'B),
              2181    1           3 RESTORE BIT(36) INIT('420200020200'O),
              2182    1           3 LDVFC BIT(36) INIT('0'B),
              2183    1           3 SYMB BIT(36) INIT('0'B),
              2184    1           3 EXTST BIT(36) INIT('220100020000'O),
              2185    1           3 ERACE BIT(36) INIT('0'B);
      405     2187        %DVT (NAME=NI_DPDVT6,SCHED#=NID$REQSCHED,POSTER#=NID$POSTER,DVSCH#=NID$DEVSCHED,
      406     2188              TYPE#=%DV_DP,ATTR#=%ATTR_DD1500#,
      407     2189              T@DCYL#=2658,NT@DCYLS#=1,
      408     2190              GS#=2,SS#=512,CS#=255,PS#=338512,SPT#=17,
      409     2191              RQSTAT#="%CONCAT(%DP_RQSTAT,%RTN_STD,'00'O,'02'O,%CC_NOBUF,'00'O)",
      410     2192              RDBIN#="%CONCAT(%DP_SEEK512,%RTN_DP_SEEK,%DP_RDBIN,'04'O,%CC_UR,'00'O)",
      411     2193              WRBIN#="%CONCAT(%DP_SEEK512,%RTN_DP_SEEK,%DP_WRBIN,'04'O,%CC_UR,'00'O)",
      412     2194              RDASC#="%CONCAT(%DP_SEEK512,%RTN_DP_SEEK,%DP_RDASC,'04'O,%CC_UR,'00'O)",
      413     2195              WRASC#="%CONCAT(%DP_SEEK512,%RTN_DP_SEEK,%DP_WRASC,'04'O,%CC_UR,'00'O)",
      414     2196              WRCMP#="%CONCAT(%DP_SEEK512,%RTN_DP_SEEK,%DP_WRCMP,'02'O,%CC_UR,'00'O)",
      415     2197              UNLOAD#="%CONCAT(%DP_UNLOAD,%RTN_BADFC_IOERR,'00'O,'02'O,%CC_NOBUF,'00'O)",
      416     2198              WRZERO#="%CONCAT(%DP_SEEK512,%RTN_DP_WRZERO,%DP_WRBIN,'02'O,%CC_UR,'00'O)",
      417     2199              RESTORE#="%CONCAT(%DP_RESTORE,%RTN_STD,'00'O,'02'O,%CC_NOBUF,'00'O)",
      418     2200              EXTST#="%CONCAT(%DP_EXTST,%RTN_BADFC_IOERR,'00'O,'02'O,%CC_UR,'00'O)",
PL6.E3A0      #001=NI_DVTS_D File=NI_DVTS_D.:E05TSI                              WED 07/30/97 03:42 Page:117
      419     2201              MODEL#="'MSU3391','MSU3393'",
      420     2202              FEATURE#='       ');
              2203    1   DCL 1 NI_DPDVT6 CONSTANT SYMDEF ALIGNED,
              2204    1         2 SCHED EPTR INIT(ENTADDR(NID$REQSCHED)),
              2205    1         2 POSTER EPTR INIT(ENTADDR(NID$POSTER)),
              2206    1         2 DVSCH EPTR INIT(ENTADDR(NID$DEVSCHED)),
              2207    1         2 MODEL(0:9) CHAR(8) ALIGNED INIT('MSU3391','MSU3393',' '*0),
              2208    1         2 FEATURE(0:9) CHAR(8) ALIGNED INIT(' ','       ',' '*0),
              2209    1         2 TYPE UBIN(9) UNAL INIT(6),
              2210    1         2 NT@DCYLS UBIN(9) UNAL INIT(1),
              2211    1         2 SPT UBIN(9) UNAL INIT(17),
              2212    1         2 GRANSIZE UBIN(9) UNAL INIT(2),
              2213    1         2 PACKSIZE UBIN(36) UNAL INIT(338512),
              2214    1         2 CYLSIZE UBIN(18) UNAL INIT(255),
              2215    1         2 T@DCYL UBIN(18) UNAL INIT(2658),
              2216    1         2 SECSIZE UBIN(18) UNAL INIT(512),
              2217    1         2 ATTR BIT(18) UNAL INIT('020000'O),
              2218    1         2 MPC ALIGNED,
              2219    1           3 FWNAME CHAR(4) INIT(' '),
              2220    1           3 LPNAME CHAR(4) INIT(' '),
              2221    1           3 CRPNAME CHAR(4) INIT(' '),
              2222    1         2 LP REDEF MPC ALIGNED,
              2223    1           3 CHAIN CHAR(4),
              2224    1           3 *(0:1) UBIN,
              2225    1         2 IDCW ALIGNED,
              2226    1           3 DCWLIST BIT(36) INIT('0003'O),
              2227    1           3 RQSTAT BIT(36) INIT('000200020200'O),
              2228    1           3 RDBIN BIT(36) INIT('302325040000'O),
              2229    1           3 WRBIN BIT(36) INIT('302331040000'O),
              2230    1           3 RDASC BIT(36) INIT('302323040000'O),
              2231    1           3 WRASC BIT(36) INIT('302332040000'O),
              2232    1           3 REWIND BIT(36) INIT('0'B),
              2233    1           3 WRCMP BIT(36) INIT('302333020000'O),
              2234    1           3 UNLOAD BIT(36) INIT('720100020200'O),
              2235    1           3 ALARM BIT(36) INIT('0'B),
              2236    1           3 WRFM BIT(36) INIT('0'B),
              2237    1           3 WRZERO BIT(36) INIT('302431020000'O),
PL6.E3A0      #001=NI_DVTS_D File=NI_DVTS_D.:E05TSI                              WED 07/30/97 03:42 Page:118
              2238    1           3 READ BIT(36) INIT('0'B),
              2239    1           3 WRITE BIT(36) INIT('0'B),
              2240    1           3 SPREC BIT(36) INIT('0'B),
              2241    1           3 SPFILE BIT(36) INIT('0'B),
              2242    1           3 PERMIT BIT(36) INIT('0'B),
              2243    1           3 PROTECT BIT(36) INIT('0'B),
              2244    1           3 RESET BIT(36) INIT('0'B),
              2245    1           3 SD800 BIT(36) INIT('0'B),
              2246    1           3 SD1600 BIT(36) INIT('0'B),
              2247    1           3 SD6250 BIT(36) INIT('0'B),
              2248    1           3 LDCHAIN BIT(36) INIT('0'B),
              2249    1           3 LDTAPE BIT(36) INIT('0'B),
              2250    1           3 RESTORE BIT(36) INIT('420200020200'O),
              2251    1           3 LDVFC BIT(36) INIT('0'B),
              2252    1           3 SYMB BIT(36) INIT('0'B),
              2253    1           3 EXTST BIT(36) INIT('220100020000'O),
              2254    1           3 ERACE BIT(36) INIT('0'B);
      421     2256        %DVT (NAME=NI_DPDVT7,SCHED#=NID$REQSCHED,POSTER#=NID$POSTER,DVSCH#=NID$DEVSCHED,
      422     2257              TYPE#=%DV_DP,ATTR#=%ATTR_DD400#,
      423     2258              T@DCYL#=708,NT@DCYLS#=1,
      424     2259              GS#=2,SS#=512,CS#=264,PS#=92796,SPT#=11,
      425     2260              RQSTAT#="%CONCAT(%DP_RQSTAT,%RTN_STD,'00'O,'07'O,%CC_NOBUF,'00'O)",
      426     2261              RDBIN#="%CONCAT(%DP_SEEK512,%RTN_DP_SEEK,%DP_RDBIN,'07'O,%CC_UR,'00'O)",
      427     2262              WRBIN#="%CONCAT(%DP_SEEK512,%RTN_DP_SEEK,%DP_WRBIN,'07'O,%CC_UR,'00'O)",
      428     2263              RDASC#="%CONCAT(%DP_SEEK512,%RTN_DP_SEEK,%DP_RDASC,'07'O,%CC_UR,'00'O)",
      429     2264              WRASC#="%CONCAT(%DP_SEEK512,%RTN_DP_SEEK,%DP_WRASC,'07'O,%CC_UR,'00'O)",
      430     2265              WRCMP#="%CONCAT(%DP_SEEK512,%RTN_DP_SEEK,%DP_WRCMP,'07'O,%CC_UR,'00'O)",
      431     2266              UNLOAD#="%CONCAT(%DP_UNLOAD,%RTN_BADFC_IOERR,'00'O,'07'O,%CC_NOBUF,'00'O)",
      432     2267              WRZERO#="%CONCAT(%DP_SEEK512,%RTN_DP_WRZERO,%DP_WRBIN,'07'O,%CC_UR,'00'O)",
      433     2268              RESTORE#="%CONCAT(%DP_RESTORE,%RTN_STD,'00'O,'07'O,%CC_NOBUF,'00'O)",
      434     2269              EXTST#="%CONCAT(%DP_EXTST,%RTN_BADFC_IOERR,'00'O,'07'O,%CC_UR,'00'O)",
      435     2270              MODEL#="'MSU8082'",
      436     2271              FEATURE#="'MSS8080','MSF8080'");
              2272    1   DCL 1 NI_DPDVT7 CONSTANT SYMDEF ALIGNED,
              2273    1         2 SCHED EPTR INIT(ENTADDR(NID$REQSCHED)),
              2274    1         2 POSTER EPTR INIT(ENTADDR(NID$POSTER)),
              2275    1         2 DVSCH EPTR INIT(ENTADDR(NID$DEVSCHED)),
PL6.E3A0      #001=NI_DVTS_D File=NI_DVTS_D.:E05TSI                              WED 07/30/97 03:42 Page:119
              2276    1         2 MODEL(0:9) CHAR(8) ALIGNED INIT('MSU8082',' '*0),
              2277    1         2 FEATURE(0:9) CHAR(8) ALIGNED INIT(' ','MSS8080','MSF8080',' '*0),
              2278    1         2 TYPE UBIN(9) UNAL INIT(6),
              2279    1         2 NT@DCYLS UBIN(9) UNAL INIT(1),
              2280    1         2 SPT UBIN(9) UNAL INIT(11),
              2281    1         2 GRANSIZE UBIN(9) UNAL INIT(2),
              2282    1         2 PACKSIZE UBIN(36) UNAL INIT(92796),
              2283    1         2 CYLSIZE UBIN(18) UNAL INIT(264),
              2284    1         2 T@DCYL UBIN(18) UNAL INIT(708),
              2285    1         2 SECSIZE UBIN(18) UNAL INIT(512),
              2286    1         2 ATTR BIT(18) UNAL INIT('004000'O),
              2287    1         2 MPC ALIGNED,
              2288    1           3 FWNAME CHAR(4) INIT(' '),
              2289    1           3 LPNAME CHAR(4) INIT(' '),
              2290    1           3 CRPNAME CHAR(4) INIT(' '),
              2291    1         2 LP REDEF MPC ALIGNED,
              2292    1           3 CHAIN CHAR(4),
              2293    1           3 *(0:1) UBIN,
              2294    1         2 IDCW ALIGNED,
              2295    1           3 DCWLIST BIT(36) INIT('0003'O),
              2296    1           3 RQSTAT BIT(36) INIT('000200070200'O),
              2297    1           3 RDBIN BIT(36) INIT('302325070000'O),
              2298    1           3 WRBIN BIT(36) INIT('302331070000'O),
              2299    1           3 RDASC BIT(36) INIT('302323070000'O),
              2300    1           3 WRASC BIT(36) INIT('302332070000'O),
              2301    1           3 REWIND BIT(36) INIT('0'B),
              2302    1           3 WRCMP BIT(36) INIT('302333070000'O),
              2303    1           3 UNLOAD BIT(36) INIT('720100070200'O),
              2304    1           3 ALARM BIT(36) INIT('0'B),
              2305    1           3 WRFM BIT(36) INIT('0'B),
              2306    1           3 WRZERO BIT(36) INIT('302431070000'O),
              2307    1           3 READ BIT(36) INIT('0'B),
              2308    1           3 WRITE BIT(36) INIT('0'B),
              2309    1           3 SPREC BIT(36) INIT('0'B),
              2310    1           3 SPFILE BIT(36) INIT('0'B),
              2311    1           3 PERMIT BIT(36) INIT('0'B),
              2312    1           3 PROTECT BIT(36) INIT('0'B),
PL6.E3A0      #001=NI_DVTS_D File=NI_DVTS_D.:E05TSI                              WED 07/30/97 03:42 Page:120
              2313    1           3 RESET BIT(36) INIT('0'B),
              2314    1           3 SD800 BIT(36) INIT('0'B),
              2315    1           3 SD1600 BIT(36) INIT('0'B),
              2316    1           3 SD6250 BIT(36) INIT('0'B),
              2317    1           3 LDCHAIN BIT(36) INIT('0'B),
              2318    1           3 LDTAPE BIT(36) INIT('0'B),
              2319    1           3 RESTORE BIT(36) INIT('420200070200'O),
              2320    1           3 LDVFC BIT(36) INIT('0'B),
              2321    1           3 SYMB BIT(36) INIT('0'B),
              2322    1           3 EXTST BIT(36) INIT('220100070000'O),
              2323    1           3 ERACE BIT(36) INIT('0'B);
      437     2325        %DVT (NAME=NI_DPDVT8,SCHED#=NID$REQSCHED,POSTER#=NID$POSTER,DVSCH#=NID$DEVSCHED,
      438     2326              TYPE#=%DV_DP,ATTR#=%ATTR_DD1100#,
      439     2327              T@DCYL#=1632,NT@DCYLS#=1,
      440     2328              GS#=2,SS#=512,CS#=285,PS#=231847,SPT#=19,
      441     2329              RQSTAT#="%CONCAT(%DP_RQSTAT,%RTN_STD,'00'O,'07'O,%CC_NOBUF,'00'O)",
      442     2330              RDBIN#="%CONCAT(%DP_SEEK512,%RTN_DP_SEEK,%DP_RDBIN,'07'O,%CC_UR,'00'O)",
      443     2331              WRBIN#="%CONCAT(%DP_SEEK512,%RTN_DP_SEEK,%DP_WRBIN,'07'O,%CC_UR,'00'O)",
      444     2332              RDASC#="%CONCAT(%DP_SEEK512,%RTN_DP_SEEK,%DP_RDASC,'07'O,%CC_UR,'00'O)",
      445     2333              WRASC#="%CONCAT(%DP_SEEK512,%RTN_DP_SEEK,%DP_WRASC,'07'O,%CC_UR,'00'O)",
      446     2334              WRCMP#="%CONCAT(%DP_SEEK512,%RTN_DP_SEEK,%DP_WRCMP,'07'O,%CC_UR,'00'O)",
      447     2335              UNLOAD#="%CONCAT(%DP_UNLOAD,%RTN_BADFC_IOERR,'00'O,'07'O,%CC_NOBUF,'00'O)",
      448     2336              WRZERO#="%CONCAT(%DP_SEEK512,%RTN_DP_WRZERO,%DP_WRBIN,'07'O,%CC_UR,'00'O)",
      449     2337              RESTORE#="%CONCAT(%DP_RESTORE,%RTN_STD,'00'O,'07'O,%CC_NOBUF,'00'O)",
      450     2338              EXTST#="%CONCAT(%DP_EXTST,%RTN_BADFC_IOERR,'00'O,'07'O,%CC_UR,'00'O)",
      451     2339              MODEL#="'MSU8092'",
      452     2340              FEATURE#="'MSS8090','MSF8090'");
              2341    1   DCL 1 NI_DPDVT8 CONSTANT SYMDEF ALIGNED,
              2342    1         2 SCHED EPTR INIT(ENTADDR(NID$REQSCHED)),
              2343    1         2 POSTER EPTR INIT(ENTADDR(NID$POSTER)),
              2344    1         2 DVSCH EPTR INIT(ENTADDR(NID$DEVSCHED)),
              2345    1         2 MODEL(0:9) CHAR(8) ALIGNED INIT('MSU8092',' '*0),
              2346    1         2 FEATURE(0:9) CHAR(8) ALIGNED INIT(' ','MSS8090','MSF8090',' '*0),
              2347    1         2 TYPE UBIN(9) UNAL INIT(6),
              2348    1         2 NT@DCYLS UBIN(9) UNAL INIT(1),
              2349    1         2 SPT UBIN(9) UNAL INIT(19),
              2350    1         2 GRANSIZE UBIN(9) UNAL INIT(2),
PL6.E3A0      #001=NI_DVTS_D File=NI_DVTS_D.:E05TSI                              WED 07/30/97 03:42 Page:121
              2351    1         2 PACKSIZE UBIN(36) UNAL INIT(231847),
              2352    1         2 CYLSIZE UBIN(18) UNAL INIT(285),
              2353    1         2 T@DCYL UBIN(18) UNAL INIT(1632),
              2354    1         2 SECSIZE UBIN(18) UNAL INIT(512),
              2355    1         2 ATTR BIT(18) UNAL INIT('100000'O),
              2356    1         2 MPC ALIGNED,
              2357    1           3 FWNAME CHAR(4) INIT(' '),
              2358    1           3 LPNAME CHAR(4) INIT(' '),
              2359    1           3 CRPNAME CHAR(4) INIT(' '),
              2360    1         2 LP REDEF MPC ALIGNED,
              2361    1           3 CHAIN CHAR(4),
              2362    1           3 *(0:1) UBIN,
              2363    1         2 IDCW ALIGNED,
              2364    1           3 DCWLIST BIT(36) INIT('0003'O),
              2365    1           3 RQSTAT BIT(36) INIT('000200070200'O),
              2366    1           3 RDBIN BIT(36) INIT('302325070000'O),
              2367    1           3 WRBIN BIT(36) INIT('302331070000'O),
              2368    1           3 RDASC BIT(36) INIT('302323070000'O),
              2369    1           3 WRASC BIT(36) INIT('302332070000'O),
              2370    1           3 REWIND BIT(36) INIT('0'B),
              2371    1           3 WRCMP BIT(36) INIT('302333070000'O),
              2372    1           3 UNLOAD BIT(36) INIT('720100070200'O),
              2373    1           3 ALARM BIT(36) INIT('0'B),
              2374    1           3 WRFM BIT(36) INIT('0'B),
              2375    1           3 WRZERO BIT(36) INIT('302431070000'O),
              2376    1           3 READ BIT(36) INIT('0'B),
              2377    1           3 WRITE BIT(36) INIT('0'B),
              2378    1           3 SPREC BIT(36) INIT('0'B),
              2379    1           3 SPFILE BIT(36) INIT('0'B),
              2380    1           3 PERMIT BIT(36) INIT('0'B),
              2381    1           3 PROTECT BIT(36) INIT('0'B),
              2382    1           3 RESET BIT(36) INIT('0'B),
              2383    1           3 SD800 BIT(36) INIT('0'B),
              2384    1           3 SD1600 BIT(36) INIT('0'B),
              2385    1           3 SD6250 BIT(36) INIT('0'B),
              2386    1           3 LDCHAIN BIT(36) INIT('0'B),
              2387    1           3 LDTAPE BIT(36) INIT('0'B),
PL6.E3A0      #001=NI_DVTS_D File=NI_DVTS_D.:E05TSI                              WED 07/30/97 03:42 Page:122
              2388    1           3 RESTORE BIT(36) INIT('420200070200'O),
              2389    1           3 LDVFC BIT(36) INIT('0'B),
              2390    1           3 SYMB BIT(36) INIT('0'B),
              2391    1           3 EXTST BIT(36) INIT('220100070000'O),
              2392    1           3 ERACE BIT(36) INIT('0'B);
      453     2394        /**/
      454     2395        /* MPC DVT */
      455     2396        /**/
      456     2397        %DVT (NAME=NI_DCDVT,SCHED#=NIW$REQSCHED,POSTER#=NIW$POSTER,DVSCH#=NIW$DEVSCHED,
      457     2398              TYPE#=%DV_MPC,
      458     2399              RQSTAT#="%CONCAT(%MPC_RQSTAT,%RTN_STD,'00'O,'02'O,%CC_NOBUF,'00'O)",
      459     2400             RDBIN#=
              2400                 "%CONCAT(%MPC_READ_BIN,%RTN_MPC_READ,%MPC_INIT_READ,'02'O,%CC_MPC,'00'O)",
      460     2401             WRBIN#=
              2401               "%CONCAT(%MPC_WRITE_BIN,%RTN_MPC_WRITE,%MPC_INIT_WRITE,'02'O,%CC_MPC,'00'O)"
              2401                 ,
      461     2402             RDASC#=
              2402                 "%CONCAT(%MPC_READ_ASC,%RTN_MPC_READ,%MPC_INIT_READ,'02'O,%CC_MPC,'00'O)",
      462     2403             WRASC#=
              2403               "%CONCAT(%MPC_WRITE_ASC,%RTN_MPC_WRITE,%MPC_INIT_WRITE,'02'O,%CC_MPC,'00'O)"
              2403                 ,
      463     2404              RESET#="%CONCAT(%MPC_RESET,%RTN_STD,'00'O,'02'O,%CC_NOBUF,'00'O)",
      464     2405              MODEL#="'MSP0191','MSP0450'",FWNAME#='M191');
              2406    1   DCL 1 NI_DCDVT CONSTANT SYMDEF ALIGNED,
              2407    1         2 SCHED EPTR INIT(ENTADDR(NIW$REQSCHED)),
              2408    1         2 POSTER EPTR INIT(ENTADDR(NIW$POSTER)),
              2409    1         2 DVSCH EPTR INIT(ENTADDR(NIW$DEVSCHED)),
              2410    1         2 MODEL(0:9) CHAR(8) ALIGNED INIT('MSP0191','MSP0450',' '*0),
              2411    1         2 FEATURE(0:9) CHAR(8) ALIGNED INIT(' ',' ',' '*0),
              2412    1         2 TYPE UBIN(9) UNAL INIT(7),
              2413    1         2 NT@DCYLS UBIN(9) UNAL INIT(0),
              2414    1         2 SPT UBIN(9) UNAL INIT(0),
              2415    1         2 GRANSIZE UBIN(9) UNAL INIT(0),
              2416    1         2 PACKSIZE UBIN(36) UNAL INIT(0),
              2417    1         2 CYLSIZE UBIN(18) UNAL INIT(0),
              2418    1         2 T@DCYL UBIN(18) UNAL INIT(0),
              2419    1         2 SECSIZE UBIN(18) UNAL INIT(0),
PL6.E3A0      #001=NI_DVTS_D File=NI_DVTS_D.:E05TSI                              WED 07/30/97 03:42 Page:123
              2420    1         2 ATTR BIT(18) UNAL INIT('0'B),
              2421    1         2 MPC ALIGNED,
              2422    1           3 FWNAME CHAR(4) INIT('M191'),
              2423    1           3 LPNAME CHAR(4) INIT(' '),
              2424    1           3 CRPNAME CHAR(4) INIT(' '),
              2425    1         2 LP REDEF MPC ALIGNED,
              2426    1           3 CHAIN CHAR(4),
              2427    1           3 *(0:1) UBIN,
              2428    1         2 IDCW ALIGNED,
              2429    1           3 DCWLIST BIT(36) INIT('0003'O),
              2430    1           3 RQSTAT BIT(36) INIT('000200020200'O),
              2431    1           3 RDBIN BIT(36) INIT('222506024000'O),
              2432    1           3 WRBIN BIT(36) INIT('322616024000'O),
              2433    1           3 RDASC BIT(36) INIT('022506024000'O),
              2434    1           3 WRASC BIT(36) INIT('122616024000'O),
              2435    1           3 REWIND BIT(36) INIT('0'B),
              2436    1           3 WRCMP BIT(36) INIT('0'B),
              2437    1           3 UNLOAD BIT(36) INIT('0'B),
              2438    1           3 ALARM BIT(36) INIT('0'B),
              2439    1           3 WRFM BIT(36) INIT('0'B),
              2440    1           3 WRZERO BIT(36) INIT('0'B),
              2441    1           3 READ BIT(36) INIT('0'B),
              2442    1           3 WRITE BIT(36) INIT('0'B),
              2443    1           3 SPREC BIT(36) INIT('0'B),
              2444    1           3 SPFILE BIT(36) INIT('0'B),
              2445    1           3 PERMIT BIT(36) INIT('0'B),
              2446    1           3 PROTECT BIT(36) INIT('0'B),
              2447    1           3 RESET BIT(36) INIT('400200020200'O),
              2448    1           3 SD800 BIT(36) INIT('0'B),
              2449    1           3 SD1600 BIT(36) INIT('0'B),
              2450    1           3 SD6250 BIT(36) INIT('0'B),
              2451    1           3 LDCHAIN BIT(36) INIT('0'B),
              2452    1           3 LDTAPE BIT(36) INIT('0'B),
              2453    1           3 RESTORE BIT(36) INIT('0'B),
              2454    1           3 LDVFC BIT(36) INIT('0'B),
              2455    1           3 SYMB BIT(36) INIT('0'B),
              2456    1           3 EXTST BIT(36) INIT('0'B),
PL6.E3A0      #001=NI_DVTS_D File=NI_DVTS_D.:E05TSI                              WED 07/30/97 03:42 Page:124
              2457    1           3 ERACE BIT(36) INIT('0'B);
      465     2459        /**/
      466     2460        %DVT (NAME=NI_DCDVT1,SCHED#=NIW$REQSCHED,POSTER#=NIW$POSTER,DVSCH#=NIW$DEVSCHED,
      467     2461              TYPE#=%DV_MPC,
      468     2462              RQSTAT#="%CONCAT(%MPC_RQSTAT,%RTN_STD,'00'O,'02'O,%CC_NOBUF,'00'O)",
      469     2463             RDBIN#=
              2463                 "%CONCAT(%MPC_READ_BIN,%RTN_MPC_READ,%MPC_INIT_READ,'02'O,%CC_MPC,'00'O)",
      470     2464             WRBIN#=
              2464               "%CONCAT(%MPC_WRITE_BIN,%RTN_MPC_WRITE,%MPC_INIT_WRITE,'02'O,%CC_MPC,'00'O)"
              2464                 ,
      471     2465             RDASC#=
              2465                 "%CONCAT(%MPC_READ_ASC,%RTN_MPC_READ,%MPC_INIT_READ,'02'O,%CC_MPC,'00'O)",
      472     2466             WRASC#=
              2466               "%CONCAT(%MPC_WRITE_ASC,%RTN_MPC_WRITE,%MPC_INIT_WRITE,'02'O,%CC_MPC,'00'O)"
              2466                 ,
      473     2467              RESET#="%CONCAT(%MPC_RESET,%RTN_STD,'00'O,'02'O,%CC_NOBUF,'00'O)",
      474     2468              MODEL#="'MSP0600','MSP0611','MSP0612','MSP8000','MSP8001'",
      475     2469              FWNAME#='D500');
              2470    1   DCL 1 NI_DCDVT1 CONSTANT SYMDEF ALIGNED,
              2471    1         2 SCHED EPTR INIT(ENTADDR(NIW$REQSCHED)),
              2472    1         2 POSTER EPTR INIT(ENTADDR(NIW$POSTER)),
              2473    1         2 DVSCH EPTR INIT(ENTADDR(NIW$DEVSCHED)),
              2474    1         2 MODEL(0:9) CHAR(8) ALIGNED INIT('MSP0600','MSP0611','MSP0612','MSP8000',
              2474                  'MSP8001',' '*0),
              2475    1         2 FEATURE(0:9) CHAR(8) ALIGNED INIT(' ',' ',' '*0),
              2476    1         2 TYPE UBIN(9) UNAL INIT(7),
              2477    1         2 NT@DCYLS UBIN(9) UNAL INIT(0),
              2478    1         2 SPT UBIN(9) UNAL INIT(0),
              2479    1         2 GRANSIZE UBIN(9) UNAL INIT(0),
              2480    1         2 PACKSIZE UBIN(36) UNAL INIT(0),
              2481    1         2 CYLSIZE UBIN(18) UNAL INIT(0),
              2482    1         2 T@DCYL UBIN(18) UNAL INIT(0),
              2483    1         2 SECSIZE UBIN(18) UNAL INIT(0),
              2484    1         2 ATTR BIT(18) UNAL INIT('0'B),
              2485    1         2 MPC ALIGNED,
              2486    1           3 FWNAME CHAR(4) INIT('D500'),
              2487    1           3 LPNAME CHAR(4) INIT(' '),
PL6.E3A0      #001=NI_DVTS_D File=NI_DVTS_D.:E05TSI                              WED 07/30/97 03:42 Page:125
              2488    1           3 CRPNAME CHAR(4) INIT(' '),
              2489    1         2 LP REDEF MPC ALIGNED,
              2490    1           3 CHAIN CHAR(4),
              2491    1           3 *(0:1) UBIN,
              2492    1         2 IDCW ALIGNED,
              2493    1           3 DCWLIST BIT(36) INIT('0003'O),
              2494    1           3 RQSTAT BIT(36) INIT('000200020200'O),
              2495    1           3 RDBIN BIT(36) INIT('222506024000'O),
              2496    1           3 WRBIN BIT(36) INIT('322616024000'O),
              2497    1           3 RDASC BIT(36) INIT('022506024000'O),
              2498    1           3 WRASC BIT(36) INIT('122616024000'O),
              2499    1           3 REWIND BIT(36) INIT('0'B),
              2500    1           3 WRCMP BIT(36) INIT('0'B),
              2501    1           3 UNLOAD BIT(36) INIT('0'B),
              2502    1           3 ALARM BIT(36) INIT('0'B),
              2503    1           3 WRFM BIT(36) INIT('0'B),
              2504    1           3 WRZERO BIT(36) INIT('0'B),
              2505    1           3 READ BIT(36) INIT('0'B),
              2506    1           3 WRITE BIT(36) INIT('0'B),
              2507    1           3 SPREC BIT(36) INIT('0'B),
              2508    1           3 SPFILE BIT(36) INIT('0'B),
              2509    1           3 PERMIT BIT(36) INIT('0'B),
              2510    1           3 PROTECT BIT(36) INIT('0'B),
              2511    1           3 RESET BIT(36) INIT('400200020200'O),
              2512    1           3 SD800 BIT(36) INIT('0'B),
              2513    1           3 SD1600 BIT(36) INIT('0'B),
              2514    1           3 SD6250 BIT(36) INIT('0'B),
              2515    1           3 LDCHAIN BIT(36) INIT('0'B),
              2516    1           3 LDTAPE BIT(36) INIT('0'B),
              2517    1           3 RESTORE BIT(36) INIT('0'B),
              2518    1           3 LDVFC BIT(36) INIT('0'B),
              2519    1           3 SYMB BIT(36) INIT('0'B),
              2520    1           3 EXTST BIT(36) INIT('0'B),
              2521    1           3 ERACE BIT(36) INIT('0'B);
      476     2523        /**/
      477     2524        %DVT (NAME=NI_DCDVT2,SCHED#=NIW$REQSCHED,POSTER#=NIW$POSTER,DVSCH#=NIW$DEVSCHED,
      478     2525              TYPE#=%DV_MPC,
PL6.E3A0      #001=NI_DVTS_D File=NI_DVTS_D.:E05TSI                              WED 07/30/97 03:42 Page:126
      479     2526              RQSTAT#="%CONCAT(%MPC_RQSTAT,%RTN_STD,'00'O,'02'O,%CC_NOBUF,'00'O)",
      480     2527             RDBIN#=
              2527                 "%CONCAT(%MPC_READ_BIN,%RTN_MPC_READ,%MPC_INIT_READ,'02'O,%CC_MPC,'00'O)",
      481     2528             WRBIN#=
              2528               "%CONCAT(%MPC_WRITE_BIN,%RTN_MPC_WRITE,%MPC_INIT_WRITE,'02'O,%CC_MPC,'00'O)"
              2528                 ,
      482     2529             RDASC#=
              2529                 "%CONCAT(%MPC_READ_ASC,%RTN_MPC_READ,%MPC_INIT_READ,'02'O,%CC_MPC,'00'O)",
      483     2530             WRASC#=
              2530               "%CONCAT(%MPC_WRITE_ASC,%RTN_MPC_WRITE,%MPC_INIT_WRITE,'02'O,%CC_MPC,'00'O)"
              2530                 ,
      484     2531              RESET#="%CONCAT(%MPC_RESET,%RTN_STD,'00'O,'02'O,%CC_NOBUF,'00'O)",
      485     2532              MODEL#="'MSP8021','MSP8022','MSP8023'",
      486     2533              FWNAME#='MSP8');
              2534    1   DCL 1 NI_DCDVT2 CONSTANT SYMDEF ALIGNED,
              2535    1         2 SCHED EPTR INIT(ENTADDR(NIW$REQSCHED)),
              2536    1         2 POSTER EPTR INIT(ENTADDR(NIW$POSTER)),
              2537    1         2 DVSCH EPTR INIT(ENTADDR(NIW$DEVSCHED)),
              2538    1         2 MODEL(0:9) CHAR(8) ALIGNED INIT('MSP8021','MSP8022','MSP8023',' '*0),
              2539    1         2 FEATURE(0:9) CHAR(8) ALIGNED INIT(' ',' ',' '*0),
              2540    1         2 TYPE UBIN(9) UNAL INIT(7),
              2541    1         2 NT@DCYLS UBIN(9) UNAL INIT(0),
              2542    1         2 SPT UBIN(9) UNAL INIT(0),
              2543    1         2 GRANSIZE UBIN(9) UNAL INIT(0),
              2544    1         2 PACKSIZE UBIN(36) UNAL INIT(0),
              2545    1         2 CYLSIZE UBIN(18) UNAL INIT(0),
              2546    1         2 T@DCYL UBIN(18) UNAL INIT(0),
              2547    1         2 SECSIZE UBIN(18) UNAL INIT(0),
              2548    1         2 ATTR BIT(18) UNAL INIT('0'B),
              2549    1         2 MPC ALIGNED,
              2550    1           3 FWNAME CHAR(4) INIT('MSP8'),
              2551    1           3 LPNAME CHAR(4) INIT(' '),
              2552    1           3 CRPNAME CHAR(4) INIT(' '),
              2553    1         2 LP REDEF MPC ALIGNED,
              2554    1           3 CHAIN CHAR(4),
              2555    1           3 *(0:1) UBIN,
              2556    1         2 IDCW ALIGNED,
PL6.E3A0      #001=NI_DVTS_D File=NI_DVTS_D.:E05TSI                              WED 07/30/97 03:42 Page:127
              2557    1           3 DCWLIST BIT(36) INIT('0003'O),
              2558    1           3 RQSTAT BIT(36) INIT('000200020200'O),
              2559    1           3 RDBIN BIT(36) INIT('222506024000'O),
              2560    1           3 WRBIN BIT(36) INIT('322616024000'O),
              2561    1           3 RDASC BIT(36) INIT('022506024000'O),
              2562    1           3 WRASC BIT(36) INIT('122616024000'O),
              2563    1           3 REWIND BIT(36) INIT('0'B),
              2564    1           3 WRCMP BIT(36) INIT('0'B),
              2565    1           3 UNLOAD BIT(36) INIT('0'B),
              2566    1           3 ALARM BIT(36) INIT('0'B),
              2567    1           3 WRFM BIT(36) INIT('0'B),
              2568    1           3 WRZERO BIT(36) INIT('0'B),
              2569    1           3 READ BIT(36) INIT('0'B),
              2570    1           3 WRITE BIT(36) INIT('0'B),
              2571    1           3 SPREC BIT(36) INIT('0'B),
              2572    1           3 SPFILE BIT(36) INIT('0'B),
              2573    1           3 PERMIT BIT(36) INIT('0'B),
              2574    1           3 PROTECT BIT(36) INIT('0'B),
              2575    1           3 RESET BIT(36) INIT('400200020200'O),
              2576    1           3 SD800 BIT(36) INIT('0'B),
              2577    1           3 SD1600 BIT(36) INIT('0'B),
              2578    1           3 SD6250 BIT(36) INIT('0'B),
              2579    1           3 LDCHAIN BIT(36) INIT('0'B),
              2580    1           3 LDTAPE BIT(36) INIT('0'B),
              2581    1           3 RESTORE BIT(36) INIT('0'B),
              2582    1           3 LDVFC BIT(36) INIT('0'B),
              2583    1           3 SYMB BIT(36) INIT('0'B),
              2584    1           3 EXTST BIT(36) INIT('0'B),
              2585    1           3 ERACE BIT(36) INIT('0'B);
      487     2587        /**/
      488     2588        %DVT (NAME=NI_DCDVT3,SCHED#=NIW$REQSCHED,POSTER#=NIW$POSTER,DVSCH#=NIW$DEVSCHED,
      489     2589              TYPE#=%DV_MPC,
      490     2590              RQSTAT#="%CONCAT(%MPC_RQSTAT,%RTN_STD,'00'O,'02'O,%CC_NOBUF,'00'O)",
      491     2591              RDBIN#=
              2591               "%CONCAT(%MPC_READ_BIN,%RTN_BADFC_IOERR,%MPC_INIT_READ,'02'O,%CC_MPC,'00'O)"
              2591                  ,
      492     2592              WRBIN#=
PL6.E3A0      #001=NI_DVTS_D File=NI_DVTS_D.:E05TSI                              WED 07/30/97 03:42 Page:128
              2592             "%CONCAT(%MPC_WRITE_BIN,%RTN_BADFC_IOERR,%MPC_INIT_WRITE,'02'O,%CC_MPC,'00'O)"
              2592                  ,
      493     2593              RDASC#=
              2593                 "%CONCAT(%MPC_READ_ASC,%RTN_MPC_READ,%MPC_INIT_READ,'02'O,%CC_MPC,'00'O)",
      494     2594              WRASC#=
              2594               "%CONCAT(%MPC_WRITE_ASC,%RTN_MPC_WRITE,%MPC_INIT_WRITE,'02'O,%CC_MPC,'00'O)"
              2594                  ,
      495     2595              RESET#="%CONCAT(%MPC_RESET,%RTN_STD,'00'O,'02'O,%CC_NOBUF,'00'O)",
      496     2596              MODEL#=
              2596          "'MSP3881','MSP3885','MSP3882','MSP3886','MSP3991','MSP3993','MSP3992','MSP3994'"
              2596                  ,
      497     2597              FWNAME#='D388');
              2598    1   DCL 1 NI_DCDVT3 CONSTANT SYMDEF ALIGNED,
              2599    1         2 SCHED EPTR INIT(ENTADDR(NIW$REQSCHED)),
              2600    1         2 POSTER EPTR INIT(ENTADDR(NIW$POSTER)),
              2601    1         2 DVSCH EPTR INIT(ENTADDR(NIW$DEVSCHED)),
              2602    1         2 MODEL(0:9) CHAR(8) ALIGNED INIT('MSP3881','MSP3885','MSP3882','MSP3886',
              2602                  'MSP3991','MSP3993','MSP3992','MSP3994',' '*0),
              2603    1         2 FEATURE(0:9) CHAR(8) ALIGNED INIT(' ',' ',' '*0),
              2604    1         2 TYPE UBIN(9) UNAL INIT(7),
              2605    1         2 NT@DCYLS UBIN(9) UNAL INIT(0),
              2606    1         2 SPT UBIN(9) UNAL INIT(0),
              2607    1         2 GRANSIZE UBIN(9) UNAL INIT(0),
              2608    1         2 PACKSIZE UBIN(36) UNAL INIT(0),
              2609    1         2 CYLSIZE UBIN(18) UNAL INIT(0),
              2610    1         2 T@DCYL UBIN(18) UNAL INIT(0),
              2611    1         2 SECSIZE UBIN(18) UNAL INIT(0),
              2612    1         2 ATTR BIT(18) UNAL INIT('0'B),
              2613    1         2 MPC ALIGNED,
              2614    1           3 FWNAME CHAR(4) INIT('D388'),
              2615    1           3 LPNAME CHAR(4) INIT(' '),
              2616    1           3 CRPNAME CHAR(4) INIT(' '),
              2617    1         2 LP REDEF MPC ALIGNED,
              2618    1           3 CHAIN CHAR(4),
              2619    1           3 *(0:1) UBIN,
              2620    1         2 IDCW ALIGNED,
              2621    1           3 DCWLIST BIT(36) INIT('0003'O),
PL6.E3A0      #001=NI_DVTS_D File=NI_DVTS_D.:E05TSI                              WED 07/30/97 03:42 Page:129
              2622    1           3 RQSTAT BIT(36) INIT('000200020200'O),
              2623    1           3 RDBIN BIT(36) INIT('220106024000'O),
              2624    1           3 WRBIN BIT(36) INIT('320116024000'O),
              2625    1           3 RDASC BIT(36) INIT('022506024000'O),
              2626    1           3 WRASC BIT(36) INIT('122616024000'O),
              2627    1           3 REWIND BIT(36) INIT('0'B),
              2628    1           3 WRCMP BIT(36) INIT('0'B),
              2629    1           3 UNLOAD BIT(36) INIT('0'B),
              2630    1           3 ALARM BIT(36) INIT('0'B),
              2631    1           3 WRFM BIT(36) INIT('0'B),
              2632    1           3 WRZERO BIT(36) INIT('0'B),
              2633    1           3 READ BIT(36) INIT('0'B),
              2634    1           3 WRITE BIT(36) INIT('0'B),
              2635    1           3 SPREC BIT(36) INIT('0'B),
              2636    1           3 SPFILE BIT(36) INIT('0'B),
              2637    1           3 PERMIT BIT(36) INIT('0'B),
              2638    1           3 PROTECT BIT(36) INIT('0'B),
              2639    1           3 RESET BIT(36) INIT('400200020200'O),
              2640    1           3 SD800 BIT(36) INIT('0'B),
              2641    1           3 SD1600 BIT(36) INIT('0'B),
              2642    1           3 SD6250 BIT(36) INIT('0'B),
              2643    1           3 LDCHAIN BIT(36) INIT('0'B),
              2644    1           3 LDTAPE BIT(36) INIT('0'B),
              2645    1           3 RESTORE BIT(36) INIT('0'B),
              2646    1           3 LDVFC BIT(36) INIT('0'B),
              2647    1           3 SYMB BIT(36) INIT('0'B),
              2648    1           3 EXTST BIT(36) INIT('0'B),
              2649    1           3 ERACE BIT(36) INIT('0'B);
      498     2651        /**/
      499     2652        %DVT (NAME=NI_DCDVT4,SCHED#=NIW$REQSCHED,POSTER#=NIW$POSTER,DVSCH#=NIW$DEVSCHED,
      500     2653              TYPE#=%DV_MPC,
      501     2654              RQSTAT#="%CONCAT(%MPC_RQSTAT,%RTN_STD,'00'O,'02'O,%CC_NOBUF,'00'O)",
      502     2655              RDASC#=
              2655                 "%CONCAT(%MPC_READ_ASC,%RTN_MPC_READ,%MPC_INIT_READ,'02'O,%CC_MPC,'00'O)",
      503     2656              WRASC#=
              2656               "%CONCAT(%MPC_WRITE_ASC,%RTN_MPC_WRITE,%MPC_INIT_WRITE,'02'O,%CC_MPC,'00'O)"
              2656                  ,
PL6.E3A0      #001=NI_DVTS_D File=NI_DVTS_D.:E05TSI                              WED 07/30/97 03:42 Page:130
      504     2657              MODEL#="'MSS8080','MSS8090','MSP8080','MSP8090'",
      505     2658              FWNAME#='IIDK');
              2659    1   DCL 1 NI_DCDVT4 CONSTANT SYMDEF ALIGNED,
              2660    1         2 SCHED EPTR INIT(ENTADDR(NIW$REQSCHED)),
              2661    1         2 POSTER EPTR INIT(ENTADDR(NIW$POSTER)),
              2662    1         2 DVSCH EPTR INIT(ENTADDR(NIW$DEVSCHED)),
              2663    1        2 MODEL(0:9) CHAR(8) ALIGNED INIT('MSS8080','MSS8090','MSP8080','MSP8090',' '*
              2663                  0),
              2664    1         2 FEATURE(0:9) CHAR(8) ALIGNED INIT(' ',' ',' '*0),
              2665    1         2 TYPE UBIN(9) UNAL INIT(7),
              2666    1         2 NT@DCYLS UBIN(9) UNAL INIT(0),
              2667    1         2 SPT UBIN(9) UNAL INIT(0),
              2668    1         2 GRANSIZE UBIN(9) UNAL INIT(0),
              2669    1         2 PACKSIZE UBIN(36) UNAL INIT(0),
              2670    1         2 CYLSIZE UBIN(18) UNAL INIT(0),
              2671    1         2 T@DCYL UBIN(18) UNAL INIT(0),
              2672    1         2 SECSIZE UBIN(18) UNAL INIT(0),
              2673    1         2 ATTR BIT(18) UNAL INIT('0'B),
              2674    1         2 MPC ALIGNED,
              2675    1           3 FWNAME CHAR(4) INIT('IIDK'),
              2676    1           3 LPNAME CHAR(4) INIT(' '),
              2677    1           3 CRPNAME CHAR(4) INIT(' '),
              2678    1         2 LP REDEF MPC ALIGNED,
              2679    1           3 CHAIN CHAR(4),
              2680    1           3 *(0:1) UBIN,
              2681    1         2 IDCW ALIGNED,
              2682    1           3 DCWLIST BIT(36) INIT('0003'O),
              2683    1           3 RQSTAT BIT(36) INIT('000200020200'O),
              2684    1           3 RDBIN BIT(36) INIT('0'B),
              2685    1           3 WRBIN BIT(36) INIT('0'B),
              2686    1           3 RDASC BIT(36) INIT('022506024000'O),
              2687    1           3 WRASC BIT(36) INIT('122616024000'O),
              2688    1           3 REWIND BIT(36) INIT('0'B),
              2689    1           3 WRCMP BIT(36) INIT('0'B),
              2690    1           3 UNLOAD BIT(36) INIT('0'B),
              2691    1           3 ALARM BIT(36) INIT('0'B),
              2692    1           3 WRFM BIT(36) INIT('0'B),
PL6.E3A0      #001=NI_DVTS_D File=NI_DVTS_D.:E05TSI                              WED 07/30/97 03:42 Page:131
              2693    1           3 WRZERO BIT(36) INIT('0'B),
              2694    1           3 READ BIT(36) INIT('0'B),
              2695    1           3 WRITE BIT(36) INIT('0'B),
              2696    1           3 SPREC BIT(36) INIT('0'B),
              2697    1           3 SPFILE BIT(36) INIT('0'B),
              2698    1           3 PERMIT BIT(36) INIT('0'B),
              2699    1           3 PROTECT BIT(36) INIT('0'B),
              2700    1           3 RESET BIT(36) INIT('0'B),
              2701    1           3 SD800 BIT(36) INIT('0'B),
              2702    1           3 SD1600 BIT(36) INIT('0'B),
              2703    1           3 SD6250 BIT(36) INIT('0'B),
              2704    1           3 LDCHAIN BIT(36) INIT('0'B),
              2705    1           3 LDTAPE BIT(36) INIT('0'B),
              2706    1           3 RESTORE BIT(36) INIT('0'B),
              2707    1           3 LDVFC BIT(36) INIT('0'B),
              2708    1           3 SYMB BIT(36) INIT('0'B),
              2709    1           3 EXTST BIT(36) INIT('0'B),
              2710    1           3 ERACE BIT(36) INIT('0'B);
      506     2712        /**/
      507     2713        %DVT (NAME=NI_TCDVT,SCHED#=NIW$REQSCHED,POSTER#=NIW$POSTER,DVSCH#=NIW$DEVSCHED,
      508     2714              TYPE#=%DV_MPC,
      509     2715              RQSTAT#="%CONCAT(%MPC_RQSTAT,%RTN_STD,'00'O,'02'O,%CC_NOBUF,'00'O)",
      510     2716             RDBIN#=
              2716                 "%CONCAT(%MPC_READ_BIN,%RTN_MPC_READ,%MPC_INIT_READ,'02'O,%CC_MPC,'00'O)",
      511     2717             WRBIN#=
              2717               "%CONCAT(%MPC_WRITE_BIN,%RTN_MPC_WRITE,%MPC_INIT_WRITE,'02'O,%CC_MPC,'00'O)"
              2717                 ,
      512     2718             RDASC#=
              2718                 "%CONCAT(%MPC_READ_ASC,%RTN_MPC_READ,%MPC_INIT_READ,'02'O,%CC_MPC,'00'O)",
      513     2719             WRASC#=
              2719               "%CONCAT(%MPC_WRITE_ASC,%RTN_MPC_WRITE,%MPC_INIT_WRITE,'02'O,%CC_MPC,'00'O)"
              2719                 ,
      514     2720              RESET#="%CONCAT(%MPC_RESET,%RTN_STD,'00'O,'02'O,%CC_NOBUF,'00'O)",
      515     2721              MODEL#="'MTP0601','MTP8021','MTP8022','MTP8023'",FWNAME#='M601');
              2722    1   DCL 1 NI_TCDVT CONSTANT SYMDEF ALIGNED,
              2723    1         2 SCHED EPTR INIT(ENTADDR(NIW$REQSCHED)),
              2724    1         2 POSTER EPTR INIT(ENTADDR(NIW$POSTER)),
PL6.E3A0      #001=NI_DVTS_D File=NI_DVTS_D.:E05TSI                              WED 07/30/97 03:42 Page:132
              2725    1         2 DVSCH EPTR INIT(ENTADDR(NIW$DEVSCHED)),
              2726    1        2 MODEL(0:9) CHAR(8) ALIGNED INIT('MTP0601','MTP8021','MTP8022','MTP8023',' '*
              2726                  0),
              2727    1         2 FEATURE(0:9) CHAR(8) ALIGNED INIT(' ',' ',' '*0),
              2728    1         2 TYPE UBIN(9) UNAL INIT(7),
              2729    1         2 NT@DCYLS UBIN(9) UNAL INIT(0),
              2730    1         2 SPT UBIN(9) UNAL INIT(0),
              2731    1         2 GRANSIZE UBIN(9) UNAL INIT(0),
              2732    1         2 PACKSIZE UBIN(36) UNAL INIT(0),
              2733    1         2 CYLSIZE UBIN(18) UNAL INIT(0),
              2734    1         2 T@DCYL UBIN(18) UNAL INIT(0),
              2735    1         2 SECSIZE UBIN(18) UNAL INIT(0),
              2736    1         2 ATTR BIT(18) UNAL INIT('0'B),
              2737    1         2 MPC ALIGNED,
              2738    1           3 FWNAME CHAR(4) INIT('M601'),
              2739    1           3 LPNAME CHAR(4) INIT(' '),
              2740    1           3 CRPNAME CHAR(4) INIT(' '),
              2741    1         2 LP REDEF MPC ALIGNED,
              2742    1           3 CHAIN CHAR(4),
              2743    1           3 *(0:1) UBIN,
              2744    1         2 IDCW ALIGNED,
              2745    1           3 DCWLIST BIT(36) INIT('0003'O),
              2746    1           3 RQSTAT BIT(36) INIT('000200020200'O),
              2747    1           3 RDBIN BIT(36) INIT('222506024000'O),
              2748    1           3 WRBIN BIT(36) INIT('322616024000'O),
              2749    1           3 RDASC BIT(36) INIT('022506024000'O),
              2750    1           3 WRASC BIT(36) INIT('122616024000'O),
              2751    1           3 REWIND BIT(36) INIT('0'B),
              2752    1           3 WRCMP BIT(36) INIT('0'B),
              2753    1           3 UNLOAD BIT(36) INIT('0'B),
              2754    1           3 ALARM BIT(36) INIT('0'B),
              2755    1           3 WRFM BIT(36) INIT('0'B),
              2756    1           3 WRZERO BIT(36) INIT('0'B),
              2757    1           3 READ BIT(36) INIT('0'B),
              2758    1           3 WRITE BIT(36) INIT('0'B),
              2759    1           3 SPREC BIT(36) INIT('0'B),
              2760    1           3 SPFILE BIT(36) INIT('0'B),
PL6.E3A0      #001=NI_DVTS_D File=NI_DVTS_D.:E05TSI                              WED 07/30/97 03:42 Page:133
              2761    1           3 PERMIT BIT(36) INIT('0'B),
              2762    1           3 PROTECT BIT(36) INIT('0'B),
              2763    1           3 RESET BIT(36) INIT('400200020200'O),
              2764    1           3 SD800 BIT(36) INIT('0'B),
              2765    1           3 SD1600 BIT(36) INIT('0'B),
              2766    1           3 SD6250 BIT(36) INIT('0'B),
              2767    1           3 LDCHAIN BIT(36) INIT('0'B),
              2768    1           3 LDTAPE BIT(36) INIT('0'B),
              2769    1           3 RESTORE BIT(36) INIT('0'B),
              2770    1           3 LDVFC BIT(36) INIT('0'B),
              2771    1           3 SYMB BIT(36) INIT('0'B),
              2772    1           3 EXTST BIT(36) INIT('0'B),
              2773    1           3 ERACE BIT(36) INIT('0'B);
      516     2775        /**/
      517     2776        %DVT (NAME=NI_TCDVT1,SCHED#=NIW$REQSCHED,POSTER#=NIW$POSTER,DVSCH#=NIW$DEVSCHED,
      518     2777              TYPE#=%DV_MPC,
      519     2778              RQSTAT#="%CONCAT(%MPC_RQSTAT,%RTN_STD,'00'O,'02'O,%CC_NOBUF,'00'O)",
      520     2779             RDBIN#=
              2779                 "%CONCAT(%MPC_READ_BIN,%RTN_MPC_READ,%MPC_INIT_READ,'02'O,%CC_MPC,'00'O)",
      521     2780             WRBIN#=
              2780               "%CONCAT(%MPC_WRITE_BIN,%RTN_MPC_WRITE,%MPC_INIT_WRITE,'02'O,%CC_MPC,'00'O)"
              2780                 ,
      522     2781             RDASC#=
              2781                 "%CONCAT(%MPC_READ_ASC,%RTN_MPC_READ,%MPC_INIT_READ,'02'O,%CC_MPC,'00'O)",
      523     2782             WRASC#=
              2782               "%CONCAT(%MPC_WRITE_ASC,%RTN_MPC_WRITE,%MPC_INIT_WRITE,'02'O,%CC_MPC,'00'O)"
              2782                 ,
      524     2783              RESET#="%CONCAT(%MPC_RESET,%RTN_STD,'00'O,'02'O,%CC_NOBUF,'00'O)",
      525     2784              MODEL#="'MTP0610','MTP0611'",
      526     2785              FWNAME#='M610');
              2786    1   DCL 1 NI_TCDVT1 CONSTANT SYMDEF ALIGNED,
              2787    1         2 SCHED EPTR INIT(ENTADDR(NIW$REQSCHED)),
              2788    1         2 POSTER EPTR INIT(ENTADDR(NIW$POSTER)),
              2789    1         2 DVSCH EPTR INIT(ENTADDR(NIW$DEVSCHED)),
              2790    1         2 MODEL(0:9) CHAR(8) ALIGNED INIT('MTP0610','MTP0611',' '*0),
              2791    1         2 FEATURE(0:9) CHAR(8) ALIGNED INIT(' ',' ',' '*0),
              2792    1         2 TYPE UBIN(9) UNAL INIT(7),
PL6.E3A0      #001=NI_DVTS_D File=NI_DVTS_D.:E05TSI                              WED 07/30/97 03:42 Page:134
              2793    1         2 NT@DCYLS UBIN(9) UNAL INIT(0),
              2794    1         2 SPT UBIN(9) UNAL INIT(0),
              2795    1         2 GRANSIZE UBIN(9) UNAL INIT(0),
              2796    1         2 PACKSIZE UBIN(36) UNAL INIT(0),
              2797    1         2 CYLSIZE UBIN(18) UNAL INIT(0),
              2798    1         2 T@DCYL UBIN(18) UNAL INIT(0),
              2799    1         2 SECSIZE UBIN(18) UNAL INIT(0),
              2800    1         2 ATTR BIT(18) UNAL INIT('0'B),
              2801    1         2 MPC ALIGNED,
              2802    1           3 FWNAME CHAR(4) INIT('M610'),
              2803    1           3 LPNAME CHAR(4) INIT(' '),
              2804    1           3 CRPNAME CHAR(4) INIT(' '),
              2805    1         2 LP REDEF MPC ALIGNED,
              2806    1           3 CHAIN CHAR(4),
              2807    1           3 *(0:1) UBIN,
              2808    1         2 IDCW ALIGNED,
              2809    1           3 DCWLIST BIT(36) INIT('0003'O),
              2810    1           3 RQSTAT BIT(36) INIT('000200020200'O),
              2811    1           3 RDBIN BIT(36) INIT('222506024000'O),
              2812    1           3 WRBIN BIT(36) INIT('322616024000'O),
              2813    1           3 RDASC BIT(36) INIT('022506024000'O),
              2814    1           3 WRASC BIT(36) INIT('122616024000'O),
              2815    1           3 REWIND BIT(36) INIT('0'B),
              2816    1           3 WRCMP BIT(36) INIT('0'B),
              2817    1           3 UNLOAD BIT(36) INIT('0'B),
              2818    1           3 ALARM BIT(36) INIT('0'B),
              2819    1           3 WRFM BIT(36) INIT('0'B),
              2820    1           3 WRZERO BIT(36) INIT('0'B),
              2821    1           3 READ BIT(36) INIT('0'B),
              2822    1           3 WRITE BIT(36) INIT('0'B),
              2823    1           3 SPREC BIT(36) INIT('0'B),
              2824    1           3 SPFILE BIT(36) INIT('0'B),
              2825    1           3 PERMIT BIT(36) INIT('0'B),
              2826    1           3 PROTECT BIT(36) INIT('0'B),
              2827    1           3 RESET BIT(36) INIT('400200020200'O),
              2828    1           3 SD800 BIT(36) INIT('0'B),
              2829    1           3 SD1600 BIT(36) INIT('0'B),
PL6.E3A0      #001=NI_DVTS_D File=NI_DVTS_D.:E05TSI                              WED 07/30/97 03:42 Page:135
              2830    1           3 SD6250 BIT(36) INIT('0'B),
              2831    1           3 LDCHAIN BIT(36) INIT('0'B),
              2832    1           3 LDTAPE BIT(36) INIT('0'B),
              2833    1           3 RESTORE BIT(36) INIT('0'B),
              2834    1           3 LDVFC BIT(36) INIT('0'B),
              2835    1           3 SYMB BIT(36) INIT('0'B),
              2836    1           3 EXTST BIT(36) INIT('0'B),
              2837    1           3 ERACE BIT(36) INIT('0'B);
      527     2839        /**/
      528     2840        %DVT (NAME=NI_TCDVT2,SCHED#=NIW$REQSCHED,POSTER#=NIW$POSTER,DVSCH#=NIW$DEVSCHED,
      529     2841              TYPE#=%DV_MPC,
      530     2842              RQSTAT#="%CONCAT(%MPC_RQSTAT,%RTN_STD,'00'O,'02'O,%CC_NOBUF,'00'O)",
      531     2843             RDBIN#=
              2843                 "%CONCAT(%MPC_READ_BIN,%RTN_MPC_READ,%MPC_INIT_READ,'02'O,%CC_MPC,'00'O)",
      532     2844             WRBIN#=
              2844               "%CONCAT(%MPC_WRITE_BIN,%RTN_MPC_WRITE,%MPC_INIT_WRITE,'02'O,%CC_MPC,'00'O)"
              2844                 ,
      533     2845             RDASC#=
              2845                 "%CONCAT(%MPC_READ_ASC,%RTN_MPC_READ,%MPC_INIT_READ,'02'O,%CC_MPC,'00'O)",
      534     2846             WRASC#=
              2846               "%CONCAT(%MPC_WRITE_ASC,%RTN_MPC_WRITE,%MPC_INIT_WRITE,'02'O,%CC_MPC,'00'O)"
              2846                 ,
      535     2847              RESET#="%CONCAT(%MPC_RESET,%RTN_STD,'00'O,'02'O,%CC_NOBUF,'00'O)",
      536     2848              MODEL#="'MTPTPUR','MFP8000T','MFP8001T','MTP8000','MTP8001'",
      537     2849              FWNAME#='TPUR');
              2850    1   DCL 1 NI_TCDVT2 CONSTANT SYMDEF ALIGNED,
              2851    1         2 SCHED EPTR INIT(ENTADDR(NIW$REQSCHED)),
              2852    1         2 POSTER EPTR INIT(ENTADDR(NIW$POSTER)),
              2853    1         2 DVSCH EPTR INIT(ENTADDR(NIW$DEVSCHED)),
              2854    1         2 MODEL(0:9) CHAR(8) ALIGNED INIT('MTPTPUR','MFP8000T','MFP8001T','MTP8000',
              2854                  'MTP8001',' '*0),
              2855    1         2 FEATURE(0:9) CHAR(8) ALIGNED INIT(' ',' ',' '*0),
              2856    1         2 TYPE UBIN(9) UNAL INIT(7),
              2857    1         2 NT@DCYLS UBIN(9) UNAL INIT(0),
              2858    1         2 SPT UBIN(9) UNAL INIT(0),
              2859    1         2 GRANSIZE UBIN(9) UNAL INIT(0),
              2860    1         2 PACKSIZE UBIN(36) UNAL INIT(0),
PL6.E3A0      #001=NI_DVTS_D File=NI_DVTS_D.:E05TSI                              WED 07/30/97 03:42 Page:136
              2861    1         2 CYLSIZE UBIN(18) UNAL INIT(0),
              2862    1         2 T@DCYL UBIN(18) UNAL INIT(0),
              2863    1         2 SECSIZE UBIN(18) UNAL INIT(0),
              2864    1         2 ATTR BIT(18) UNAL INIT('0'B),
              2865    1         2 MPC ALIGNED,
              2866    1           3 FWNAME CHAR(4) INIT('TPUR'),
              2867    1           3 LPNAME CHAR(4) INIT(' '),
              2868    1           3 CRPNAME CHAR(4) INIT(' '),
              2869    1         2 LP REDEF MPC ALIGNED,
              2870    1           3 CHAIN CHAR(4),
              2871    1           3 *(0:1) UBIN,
              2872    1         2 IDCW ALIGNED,
              2873    1           3 DCWLIST BIT(36) INIT('0003'O),
              2874    1           3 RQSTAT BIT(36) INIT('000200020200'O),
              2875    1           3 RDBIN BIT(36) INIT('222506024000'O),
              2876    1           3 WRBIN BIT(36) INIT('322616024000'O),
              2877    1           3 RDASC BIT(36) INIT('022506024000'O),
              2878    1           3 WRASC BIT(36) INIT('122616024000'O),
              2879    1           3 REWIND BIT(36) INIT('0'B),
              2880    1           3 WRCMP BIT(36) INIT('0'B),
              2881    1           3 UNLOAD BIT(36) INIT('0'B),
              2882    1           3 ALARM BIT(36) INIT('0'B),
              2883    1           3 WRFM BIT(36) INIT('0'B),
              2884    1           3 WRZERO BIT(36) INIT('0'B),
              2885    1           3 READ BIT(36) INIT('0'B),
              2886    1           3 WRITE BIT(36) INIT('0'B),
              2887    1           3 SPREC BIT(36) INIT('0'B),
              2888    1           3 SPFILE BIT(36) INIT('0'B),
              2889    1           3 PERMIT BIT(36) INIT('0'B),
              2890    1           3 PROTECT BIT(36) INIT('0'B),
              2891    1           3 RESET BIT(36) INIT('400200020200'O),
              2892    1           3 SD800 BIT(36) INIT('0'B),
              2893    1           3 SD1600 BIT(36) INIT('0'B),
              2894    1           3 SD6250 BIT(36) INIT('0'B),
              2895    1           3 LDCHAIN BIT(36) INIT('0'B),
              2896    1           3 LDTAPE BIT(36) INIT('0'B),
              2897    1           3 RESTORE BIT(36) INIT('0'B),
PL6.E3A0      #001=NI_DVTS_D File=NI_DVTS_D.:E05TSI                              WED 07/30/97 03:42 Page:137
              2898    1           3 LDVFC BIT(36) INIT('0'B),
              2899    1           3 SYMB BIT(36) INIT('0'B),
              2900    1           3 EXTST BIT(36) INIT('0'B),
              2901    1           3 ERACE BIT(36) INIT('0'B);
      538     2903        /**/
      539     2904        %DVT (NAME=NI_TCDVT3,SCHED#=NIW$REQSCHED,POSTER#=NIW$POSTER,DVSCH#=NIW$DEVSCHED,
      540     2905              TYPE#=%DV_MPC,
      541     2906              RQSTAT#="%CONCAT(%MPC_RQSTAT,%RTN_STD,'00'O,'02'O,%CC_NOBUF,'00'O)",
      542     2907             RDBIN#=
              2907                 "%CONCAT(%MPC_READ_BIN,%RTN_MPC_READ,%MPC_INIT_READ,'02'O,%CC_MPC,'00'O)",
      543     2908             WRBIN#=
              2908               "%CONCAT(%MPC_WRITE_BIN,%RTN_MPC_WRITE,%MPC_INIT_WRITE,'02'O,%CC_MPC,'00'O)"
              2908                 ,
      544     2909             RDASC#=
              2909                 "%CONCAT(%MPC_READ_ASC,%RTN_MPC_READ,%MPC_INIT_READ,'02'O,%CC_MPC,'00'O)",
      545     2910             WRASC#=
              2910               "%CONCAT(%MPC_WRITE_ASC,%RTN_MPC_WRITE,%MPC_INIT_WRITE,'02'O,%CC_MPC,'00'O)"
              2910                 ,
      546     2911              RESET#="%CONCAT(%MPC_RESET,%RTN_STD,'00'O,'02'O,%CC_NOBUF,'00'O)",
      547     2912              MODEL#='notused',
      548     2913              FWNAME#='M601');
              2914    1   DCL 1 NI_TCDVT3 CONSTANT SYMDEF ALIGNED,
              2915    1         2 SCHED EPTR INIT(ENTADDR(NIW$REQSCHED)),
              2916    1         2 POSTER EPTR INIT(ENTADDR(NIW$POSTER)),
              2917    1         2 DVSCH EPTR INIT(ENTADDR(NIW$DEVSCHED)),
              2918    1         2 MODEL(0:9) CHAR(8) ALIGNED INIT('notused',' '*0),
              2919    1         2 FEATURE(0:9) CHAR(8) ALIGNED INIT(' ',' ',' '*0),
              2920    1         2 TYPE UBIN(9) UNAL INIT(7),
              2921    1         2 NT@DCYLS UBIN(9) UNAL INIT(0),
              2922    1         2 SPT UBIN(9) UNAL INIT(0),
              2923    1         2 GRANSIZE UBIN(9) UNAL INIT(0),
              2924    1         2 PACKSIZE UBIN(36) UNAL INIT(0),
              2925    1         2 CYLSIZE UBIN(18) UNAL INIT(0),
              2926    1         2 T@DCYL UBIN(18) UNAL INIT(0),
              2927    1         2 SECSIZE UBIN(18) UNAL INIT(0),
              2928    1         2 ATTR BIT(18) UNAL INIT('0'B),
              2929    1         2 MPC ALIGNED,
PL6.E3A0      #001=NI_DVTS_D File=NI_DVTS_D.:E05TSI                              WED 07/30/97 03:42 Page:138
              2930    1           3 FWNAME CHAR(4) INIT('M601'),
              2931    1           3 LPNAME CHAR(4) INIT(' '),
              2932    1           3 CRPNAME CHAR(4) INIT(' '),
              2933    1         2 LP REDEF MPC ALIGNED,
              2934    1           3 CHAIN CHAR(4),
              2935    1           3 *(0:1) UBIN,
              2936    1         2 IDCW ALIGNED,
              2937    1           3 DCWLIST BIT(36) INIT('0003'O),
              2938    1           3 RQSTAT BIT(36) INIT('000200020200'O),
              2939    1           3 RDBIN BIT(36) INIT('222506024000'O),
              2940    1           3 WRBIN BIT(36) INIT('322616024000'O),
              2941    1           3 RDASC BIT(36) INIT('022506024000'O),
              2942    1           3 WRASC BIT(36) INIT('122616024000'O),
              2943    1           3 REWIND BIT(36) INIT('0'B),
              2944    1           3 WRCMP BIT(36) INIT('0'B),
              2945    1           3 UNLOAD BIT(36) INIT('0'B),
              2946    1           3 ALARM BIT(36) INIT('0'B),
              2947    1           3 WRFM BIT(36) INIT('0'B),
              2948    1           3 WRZERO BIT(36) INIT('0'B),
              2949    1           3 READ BIT(36) INIT('0'B),
              2950    1           3 WRITE BIT(36) INIT('0'B),
              2951    1           3 SPREC BIT(36) INIT('0'B),
              2952    1           3 SPFILE BIT(36) INIT('0'B),
              2953    1           3 PERMIT BIT(36) INIT('0'B),
              2954    1           3 PROTECT BIT(36) INIT('0'B),
              2955    1           3 RESET BIT(36) INIT('400200020200'O),
              2956    1           3 SD800 BIT(36) INIT('0'B),
              2957    1           3 SD1600 BIT(36) INIT('0'B),
              2958    1           3 SD6250 BIT(36) INIT('0'B),
              2959    1           3 LDCHAIN BIT(36) INIT('0'B),
              2960    1           3 LDTAPE BIT(36) INIT('0'B),
              2961    1           3 RESTORE BIT(36) INIT('0'B),
              2962    1           3 LDVFC BIT(36) INIT('0'B),
              2963    1           3 SYMB BIT(36) INIT('0'B),
              2964    1           3 EXTST BIT(36) INIT('0'B),
              2965    1           3 ERACE BIT(36) INIT('0'B);
      549     2967        /**/
PL6.E3A0      #001=NI_DVTS_D File=NI_DVTS_D.:E05TSI                              WED 07/30/97 03:42 Page:139
      550     2968        %DVT (NAME=NI_TCDVT4,SCHED#=NIW$REQSCHED,POSTER#=NIW$POSTER,DVSCH#=NIW$DEVSCHED,
      551     2969              TYPE#=%DV_MPC,
      552     2970              RQSTAT#="%CONCAT(%MPC_RQSTAT,%RTN_STD,'00'O,'02'O,%CC_NOBUF,'00'O)",
      553     2971              RDBIN#=
              2971               "%CONCAT(%MPC_READ_BIN,%RTN_BADFC_IOERR,%MPC_INIT_READ,'02'O,%CC_MPC,'00'O)"
              2971                  ,
      554     2972              WRBIN#=
              2972             "%CONCAT(%MPC_WRITE_BIN,%RTN_BADFC_IOERR,%MPC_INIT_WRITE,'02'O,%CC_MPC,'00'O)"
              2972                  ,
      555     2973              RDASC#=
              2973                 "%CONCAT(%MPC_READ_ASC,%RTN_MPC_READ,%MPC_INIT_READ,'02'O,%CC_MPC,'00'O)",
      556     2974              WRASC#=
              2974               "%CONCAT(%MPC_WRITE_ASC,%RTN_MPC_WRITE,%MPC_INIT_WRITE,'02'O,%CC_MPC,'00'O)"
              2974                  ,
      557     2975              RESET#="%CONCAT(%MPC_RESET,%RTN_STD,'00'O,'02'O,%CC_NOBUF,'00'O)",
      558     2976              MODEL#="'MTP8215','MTP8216','MTP8218','MTP8225','MTP8226','MTP8228'",
      559     2977              FWNAME#='M460');
              2978    1   DCL 1 NI_TCDVT4 CONSTANT SYMDEF ALIGNED,
              2979    1         2 SCHED EPTR INIT(ENTADDR(NIW$REQSCHED)),
              2980    1         2 POSTER EPTR INIT(ENTADDR(NIW$POSTER)),
              2981    1         2 DVSCH EPTR INIT(ENTADDR(NIW$DEVSCHED)),
              2982    1         2 MODEL(0:9) CHAR(8) ALIGNED INIT('MTP8215','MTP8216','MTP8218','MTP8225',
              2982                  'MTP8226','MTP8228',' '*0),
              2983    1         2 FEATURE(0:9) CHAR(8) ALIGNED INIT(' ',' ',' '*0),
              2984    1         2 TYPE UBIN(9) UNAL INIT(7),
              2985    1         2 NT@DCYLS UBIN(9) UNAL INIT(0),
              2986    1         2 SPT UBIN(9) UNAL INIT(0),
              2987    1         2 GRANSIZE UBIN(9) UNAL INIT(0),
              2988    1         2 PACKSIZE UBIN(36) UNAL INIT(0),
              2989    1         2 CYLSIZE UBIN(18) UNAL INIT(0),
              2990    1         2 T@DCYL UBIN(18) UNAL INIT(0),
              2991    1         2 SECSIZE UBIN(18) UNAL INIT(0),
              2992    1         2 ATTR BIT(18) UNAL INIT('0'B),
              2993    1         2 MPC ALIGNED,
              2994    1           3 FWNAME CHAR(4) INIT('M460'),
              2995    1           3 LPNAME CHAR(4) INIT(' '),
              2996    1           3 CRPNAME CHAR(4) INIT(' '),
PL6.E3A0      #001=NI_DVTS_D File=NI_DVTS_D.:E05TSI                              WED 07/30/97 03:42 Page:140
              2997    1         2 LP REDEF MPC ALIGNED,
              2998    1           3 CHAIN CHAR(4),
              2999    1           3 *(0:1) UBIN,
              3000    1         2 IDCW ALIGNED,
              3001    1           3 DCWLIST BIT(36) INIT('0003'O),
              3002    1           3 RQSTAT BIT(36) INIT('000200020200'O),
              3003    1           3 RDBIN BIT(36) INIT('220106024000'O),
              3004    1           3 WRBIN BIT(36) INIT('320116024000'O),
              3005    1           3 RDASC BIT(36) INIT('022506024000'O),
              3006    1           3 WRASC BIT(36) INIT('122616024000'O),
              3007    1           3 REWIND BIT(36) INIT('0'B),
              3008    1           3 WRCMP BIT(36) INIT('0'B),
              3009    1           3 UNLOAD BIT(36) INIT('0'B),
              3010    1           3 ALARM BIT(36) INIT('0'B),
              3011    1           3 WRFM BIT(36) INIT('0'B),
              3012    1           3 WRZERO BIT(36) INIT('0'B),
              3013    1           3 READ BIT(36) INIT('0'B),
              3014    1           3 WRITE BIT(36) INIT('0'B),
              3015    1           3 SPREC BIT(36) INIT('0'B),
              3016    1           3 SPFILE BIT(36) INIT('0'B),
              3017    1           3 PERMIT BIT(36) INIT('0'B),
              3018    1           3 PROTECT BIT(36) INIT('0'B),
              3019    1           3 RESET BIT(36) INIT('400200020200'O),
              3020    1           3 SD800 BIT(36) INIT('0'B),
              3021    1           3 SD1600 BIT(36) INIT('0'B),
              3022    1           3 SD6250 BIT(36) INIT('0'B),
              3023    1           3 LDCHAIN BIT(36) INIT('0'B),
              3024    1           3 LDTAPE BIT(36) INIT('0'B),
              3025    1           3 RESTORE BIT(36) INIT('0'B),
              3026    1           3 LDVFC BIT(36) INIT('0'B),
              3027    1           3 SYMB BIT(36) INIT('0'B),
              3028    1           3 EXTST BIT(36) INIT('0'B),
              3029    1           3 ERACE BIT(36) INIT('0'B);
      560     3031        /**/
      561     3032        %DVT (NAME=NI_UCDVT,SCHED#=NIW$REQSCHED,POSTER#=NIW$POSTER,DVSCH#=NIW$DEVSCHED,
      562     3033              TYPE#=%DV_MPC,
      563     3034              RQSTAT#="%CONCAT(%MPC_RQSTAT,%RTN_STD,'00'O,'02'O,%CC_NOBUF,'00'O)",
PL6.E3A0      #001=NI_DVTS_D File=NI_DVTS_D.:E05TSI                              WED 07/30/97 03:42 Page:141
      564     3035             RDBIN#=
              3035                 "%CONCAT(%MPC_READ_BIN,%RTN_MPC_READ,%MPC_INIT_READ,'02'O,%CC_MPC,'00'O)",
      565     3036             WRBIN#=
              3036               "%CONCAT(%MPC_WRITE_BIN,%RTN_MPC_WRITE,%MPC_INIT_WRITE,'02'O,%CC_MPC,'00'O)"
              3036                 ,
      566     3037             RDASC#=
              3037                 "%CONCAT(%MPC_READ_ASC,%RTN_MPC_READ,%MPC_INIT_READ,'02'O,%CC_MPC,'00'O)",
      567     3038             WRASC#=
              3038               "%CONCAT(%MPC_WRITE_ASC,%RTN_MPC_WRITE,%MPC_INIT_WRITE,'02'O,%CC_MPC,'00'O)"
              3038                 ,
      568     3039              RESET#="%CONCAT(%MPC_RESET,%RTN_STD,'00'O,'02'O,%CC_NOBUF,'00'O)",
      569     3040              MODEL#="'URP0600','URP0601','URP0602','URP8000'",
      570     3041              FWNAME#='UCMN',LPNAME#='U400',CRPNAME#='UCRP');
              3042    1   DCL 1 NI_UCDVT CONSTANT SYMDEF ALIGNED,
              3043    1         2 SCHED EPTR INIT(ENTADDR(NIW$REQSCHED)),
              3044    1         2 POSTER EPTR INIT(ENTADDR(NIW$POSTER)),
              3045    1         2 DVSCH EPTR INIT(ENTADDR(NIW$DEVSCHED)),
              3046    1        2 MODEL(0:9) CHAR(8) ALIGNED INIT('URP0600','URP0601','URP0602','URP8000',' '*
              3046                  0),
              3047    1         2 FEATURE(0:9) CHAR(8) ALIGNED INIT(' ',' ',' '*0),
              3048    1         2 TYPE UBIN(9) UNAL INIT(7),
              3049    1         2 NT@DCYLS UBIN(9) UNAL INIT(0),
              3050    1         2 SPT UBIN(9) UNAL INIT(0),
              3051    1         2 GRANSIZE UBIN(9) UNAL INIT(0),
              3052    1         2 PACKSIZE UBIN(36) UNAL INIT(0),
              3053    1         2 CYLSIZE UBIN(18) UNAL INIT(0),
              3054    1         2 T@DCYL UBIN(18) UNAL INIT(0),
              3055    1         2 SECSIZE UBIN(18) UNAL INIT(0),
              3056    1         2 ATTR BIT(18) UNAL INIT('0'B),
              3057    1         2 MPC ALIGNED,
              3058    1           3 FWNAME CHAR(4) INIT('UCMN'),
              3059    1           3 LPNAME CHAR(4) INIT('U400'),
              3060    1           3 CRPNAME CHAR(4) INIT('UCRP'),
              3061    1         2 LP REDEF MPC ALIGNED,
              3062    1           3 CHAIN CHAR(4),
              3063    1           3 *(0:1) UBIN,
              3064    1         2 IDCW ALIGNED,
PL6.E3A0      #001=NI_DVTS_D File=NI_DVTS_D.:E05TSI                              WED 07/30/97 03:42 Page:142
              3065    1           3 DCWLIST BIT(36) INIT('0003'O),
              3066    1           3 RQSTAT BIT(36) INIT('000200020200'O),
              3067    1           3 RDBIN BIT(36) INIT('222506024000'O),
              3068    1           3 WRBIN BIT(36) INIT('322616024000'O),
              3069    1           3 RDASC BIT(36) INIT('022506024000'O),
              3070    1           3 WRASC BIT(36) INIT('122616024000'O),
              3071    1           3 REWIND BIT(36) INIT('0'B),
              3072    1           3 WRCMP BIT(36) INIT('0'B),
              3073    1           3 UNLOAD BIT(36) INIT('0'B),
              3074    1           3 ALARM BIT(36) INIT('0'B),
              3075    1           3 WRFM BIT(36) INIT('0'B),
              3076    1           3 WRZERO BIT(36) INIT('0'B),
              3077    1           3 READ BIT(36) INIT('0'B),
              3078    1           3 WRITE BIT(36) INIT('0'B),
              3079    1           3 SPREC BIT(36) INIT('0'B),
              3080    1           3 SPFILE BIT(36) INIT('0'B),
              3081    1           3 PERMIT BIT(36) INIT('0'B),
              3082    1           3 PROTECT BIT(36) INIT('0'B),
              3083    1           3 RESET BIT(36) INIT('400200020200'O),
              3084    1           3 SD800 BIT(36) INIT('0'B),
              3085    1           3 SD1600 BIT(36) INIT('0'B),
              3086    1           3 SD6250 BIT(36) INIT('0'B),
              3087    1           3 LDCHAIN BIT(36) INIT('0'B),
              3088    1           3 LDTAPE BIT(36) INIT('0'B),
              3089    1           3 RESTORE BIT(36) INIT('0'B),
              3090    1           3 LDVFC BIT(36) INIT('0'B),
              3091    1           3 SYMB BIT(36) INIT('0'B),
              3092    1           3 EXTST BIT(36) INIT('0'B),
              3093    1           3 ERACE BIT(36) INIT('0'B);
      571     3095        /**/
      572     3096        %DVT (NAME=NI_UCDVT1,SCHED#=NIW$REQSCHED,POSTER#=NIW$POSTER,DVSCH#=NIW$DEVSCHED,
      573     3097              TYPE#=%DV_MPC,
      574     3098              RQSTAT#="%CONCAT(%MPC_RQSTAT,%RTN_STD,'00'O,'02'O,%CC_NOBUF,'00'O)",
      575     3099             RDBIN#=
              3099                 "%CONCAT(%MPC_READ_BIN,%RTN_MPC_READ,%MPC_INIT_READ,'02'O,%CC_MPC,'00'O)",
      576     3100             WRBIN#=
              3100               "%CONCAT(%MPC_WRITE_BIN,%RTN_MPC_WRITE,%MPC_INIT_WRITE,'02'O,%CC_MPC,'00'O)"
PL6.E3A0      #001=NI_DVTS_D File=NI_DVTS_D.:E05TSI                              WED 07/30/97 03:42 Page:143
              3100                 ,
      577     3101             RDASC#=
              3101                 "%CONCAT(%MPC_READ_ASC,%RTN_MPC_READ,%MPC_INIT_READ,'02'O,%CC_MPC,'00'O)",
      578     3102             WRASC#=
              3102               "%CONCAT(%MPC_WRITE_ASC,%RTN_MPC_WRITE,%MPC_INIT_WRITE,'02'O,%CC_MPC,'00'O)"
              3102                 ,
      579     3103              RESET#="%CONCAT(%MPC_RESET,%RTN_STD,'00'O,'02'O,%CC_NOBUF,'00'O)",
      580     3104              MODEL#="'URPURTP','MFP8000U','MFP8001U'",
      581     3105              FWNAME#='URTP',LPNAME#='U400',CRPNAME#='UCRP');
              3106    1   DCL 1 NI_UCDVT1 CONSTANT SYMDEF ALIGNED,
              3107    1         2 SCHED EPTR INIT(ENTADDR(NIW$REQSCHED)),
              3108    1         2 POSTER EPTR INIT(ENTADDR(NIW$POSTER)),
              3109    1         2 DVSCH EPTR INIT(ENTADDR(NIW$DEVSCHED)),
              3110    1         2 MODEL(0:9) CHAR(8) ALIGNED INIT('URPURTP','MFP8000U','MFP8001U',' '*0),
              3111    1         2 FEATURE(0:9) CHAR(8) ALIGNED INIT(' ',' ',' '*0),
              3112    1         2 TYPE UBIN(9) UNAL INIT(7),
              3113    1         2 NT@DCYLS UBIN(9) UNAL INIT(0),
              3114    1         2 SPT UBIN(9) UNAL INIT(0),
              3115    1         2 GRANSIZE UBIN(9) UNAL INIT(0),
              3116    1         2 PACKSIZE UBIN(36) UNAL INIT(0),
              3117    1         2 CYLSIZE UBIN(18) UNAL INIT(0),
              3118    1         2 T@DCYL UBIN(18) UNAL INIT(0),
              3119    1         2 SECSIZE UBIN(18) UNAL INIT(0),
              3120    1         2 ATTR BIT(18) UNAL INIT('0'B),
              3121    1         2 MPC ALIGNED,
              3122    1           3 FWNAME CHAR(4) INIT('URTP'),
              3123    1           3 LPNAME CHAR(4) INIT('U400'),
              3124    1           3 CRPNAME CHAR(4) INIT('UCRP'),
              3125    1         2 LP REDEF MPC ALIGNED,
              3126    1           3 CHAIN CHAR(4),
              3127    1           3 *(0:1) UBIN,
              3128    1         2 IDCW ALIGNED,
              3129    1           3 DCWLIST BIT(36) INIT('0003'O),
              3130    1           3 RQSTAT BIT(36) INIT('000200020200'O),
              3131    1           3 RDBIN BIT(36) INIT('222506024000'O),
              3132    1           3 WRBIN BIT(36) INIT('322616024000'O),
              3133    1           3 RDASC BIT(36) INIT('022506024000'O),
PL6.E3A0      #001=NI_DVTS_D File=NI_DVTS_D.:E05TSI                              WED 07/30/97 03:42 Page:144
              3134    1           3 WRASC BIT(36) INIT('122616024000'O),
              3135    1           3 REWIND BIT(36) INIT('0'B),
              3136    1           3 WRCMP BIT(36) INIT('0'B),
              3137    1           3 UNLOAD BIT(36) INIT('0'B),
              3138    1           3 ALARM BIT(36) INIT('0'B),
              3139    1           3 WRFM BIT(36) INIT('0'B),
              3140    1           3 WRZERO BIT(36) INIT('0'B),
              3141    1           3 READ BIT(36) INIT('0'B),
              3142    1           3 WRITE BIT(36) INIT('0'B),
              3143    1           3 SPREC BIT(36) INIT('0'B),
              3144    1           3 SPFILE BIT(36) INIT('0'B),
              3145    1           3 PERMIT BIT(36) INIT('0'B),
              3146    1           3 PROTECT BIT(36) INIT('0'B),
              3147    1           3 RESET BIT(36) INIT('400200020200'O),
              3148    1           3 SD800 BIT(36) INIT('0'B),
              3149    1           3 SD1600 BIT(36) INIT('0'B),
              3150    1           3 SD6250 BIT(36) INIT('0'B),
              3151    1           3 LDCHAIN BIT(36) INIT('0'B),
              3152    1           3 LDTAPE BIT(36) INIT('0'B),
              3153    1           3 RESTORE BIT(36) INIT('0'B),
              3154    1           3 LDVFC BIT(36) INIT('0'B),
              3155    1           3 SYMB BIT(36) INIT('0'B),
              3156    1           3 EXTST BIT(36) INIT('0'B),
              3157    1           3 ERACE BIT(36) INIT('0'B);
      582     3159        /**/
      583     3160        %DVT (NAME=NI_UCDVT2,SCHED#=NIW$REQSCHED,POSTER#=NIW$POSTER,DVSCH#=NIW$DEVSCHED,
      584     3161              TYPE#=%DV_MPC,
      585     3162              RQSTAT#="%CONCAT(%MPC_RQSTAT,%RTN_STD,'00'O,'02'O,%CC_NOBUF,'00'O)",
      586     3163             RDBIN#=
              3163               "%CONCAT(%MPC_READ_BIN,%RTN_BADFC_IOERR,%MPC_INIT_READ,'02'O,%CC_MPC,'00'O)"
              3163                 ,
      587     3164             WRBIN#=
              3164             "%CONCAT(%MPC_WRITE_BIN,%RTN_BADFC_IOERR,%MPC_INIT_WRITE,'02'O,%CC_MPC,'00'O)"
              3164                 ,
      588     3165             RDASC#=
              3165               "%CONCAT(%MPC_READ_ASC,%RTN_BADFC_IOERR,%MPC_INIT_READ,'02'O,%CC_MPC,'00'O)"
              3165                 ,
PL6.E3A0      #001=NI_DVTS_D File=NI_DVTS_D.:E05TSI                              WED 07/30/97 03:42 Page:145
      589     3166             WRASC#=
              3166             "%CONCAT(%MPC_WRITE_ASC,%RTN_BADFC_IOERR,%MPC_INIT_WRITE,'02'O,%CC_MPC,'00'O)"
              3166                 ,
      590     3167              RESET#="%CONCAT(%MPC_RESET,%RTN_STD,'00'O,'02'O,%CC_NOBUF,'00'O)",
      591     3168              MODEL#="'URPEURP','URP8011','URP8012','URP8013','URP8600','URP8601'",
      592     3169              FWNAME#='NONE');
              3170    1   DCL 1 NI_UCDVT2 CONSTANT SYMDEF ALIGNED,
              3171    1         2 SCHED EPTR INIT(ENTADDR(NIW$REQSCHED)),
              3172    1         2 POSTER EPTR INIT(ENTADDR(NIW$POSTER)),
              3173    1         2 DVSCH EPTR INIT(ENTADDR(NIW$DEVSCHED)),
              3174    1         2 MODEL(0:9) CHAR(8) ALIGNED INIT('URPEURP','URP8011','URP8012','URP8013',
              3174                  'URP8600','URP8601',' '*0),
              3175    1         2 FEATURE(0:9) CHAR(8) ALIGNED INIT(' ',' ',' '*0),
              3176    1         2 TYPE UBIN(9) UNAL INIT(7),
              3177    1         2 NT@DCYLS UBIN(9) UNAL INIT(0),
              3178    1         2 SPT UBIN(9) UNAL INIT(0),
              3179    1         2 GRANSIZE UBIN(9) UNAL INIT(0),
              3180    1         2 PACKSIZE UBIN(36) UNAL INIT(0),
              3181    1         2 CYLSIZE UBIN(18) UNAL INIT(0),
              3182    1         2 T@DCYL UBIN(18) UNAL INIT(0),
              3183    1         2 SECSIZE UBIN(18) UNAL INIT(0),
              3184    1         2 ATTR BIT(18) UNAL INIT('0'B),
              3185    1         2 MPC ALIGNED,
              3186    1           3 FWNAME CHAR(4) INIT('NONE'),
              3187    1           3 LPNAME CHAR(4) INIT(' '),
              3188    1           3 CRPNAME CHAR(4) INIT(' '),
              3189    1         2 LP REDEF MPC ALIGNED,
              3190    1           3 CHAIN CHAR(4),
              3191    1           3 *(0:1) UBIN,
              3192    1         2 IDCW ALIGNED,
              3193    1           3 DCWLIST BIT(36) INIT('0003'O),
              3194    1           3 RQSTAT BIT(36) INIT('000200020200'O),
              3195    1           3 RDBIN BIT(36) INIT('220106024000'O),
              3196    1           3 WRBIN BIT(36) INIT('320116024000'O),
              3197    1           3 RDASC BIT(36) INIT('020106024000'O),
              3198    1           3 WRASC BIT(36) INIT('120116024000'O),
              3199    1           3 REWIND BIT(36) INIT('0'B),
PL6.E3A0      #001=NI_DVTS_D File=NI_DVTS_D.:E05TSI                              WED 07/30/97 03:42 Page:146
              3200    1           3 WRCMP BIT(36) INIT('0'B),
              3201    1           3 UNLOAD BIT(36) INIT('0'B),
              3202    1           3 ALARM BIT(36) INIT('0'B),
              3203    1           3 WRFM BIT(36) INIT('0'B),
              3204    1           3 WRZERO BIT(36) INIT('0'B),
              3205    1           3 READ BIT(36) INIT('0'B),
              3206    1           3 WRITE BIT(36) INIT('0'B),
              3207    1           3 SPREC BIT(36) INIT('0'B),
              3208    1           3 SPFILE BIT(36) INIT('0'B),
              3209    1           3 PERMIT BIT(36) INIT('0'B),
              3210    1           3 PROTECT BIT(36) INIT('0'B),
              3211    1           3 RESET BIT(36) INIT('400200020200'O),
              3212    1           3 SD800 BIT(36) INIT('0'B),
              3213    1           3 SD1600 BIT(36) INIT('0'B),
              3214    1           3 SD6250 BIT(36) INIT('0'B),
              3215    1           3 LDCHAIN BIT(36) INIT('0'B),
              3216    1           3 LDTAPE BIT(36) INIT('0'B),
              3217    1           3 RESTORE BIT(36) INIT('0'B),
              3218    1           3 LDVFC BIT(36) INIT('0'B),
              3219    1           3 SYMB BIT(36) INIT('0'B),
              3220    1           3 EXTST BIT(36) INIT('0'B),
              3221    1           3 ERACE BIT(36) INIT('0'B);
      593     3223        /**/
      594     3224        /* MSOS DVT */
      595     3225        /**/
      596     3226        %DVT (NAME=NI_MSOSDVT,SCHED#=NIB$REQSCHED,POSTER#=NIB$POSTER,DVSCH#=NIB$DEVSCHED,
      597     3227              TYPE#=%DV_MS,
      598     3228              REWIND#="%CONCAT(%MS_UP,%RTN_STD,'00'O,'02'O,%CC_NOBUF,'00'O)",
      599     3229              UNLOAD#="%CONCAT(%MS_DWN,%RTN_STD,'00'O,'02'O,%CC_NOBUF,'00'O)",
      600     3230              WRITE#="%CONCAT(%MS_WR,%RTN_STD,'00'O,'02'O,%CC_UR,'00'O)",
      601     3231              READ#="%CONCAT(%MS_WR,%RTN_MSOS_DUAL,%MS_RD,'02'O,%CC_UR,'00'O)",
      602     3232              MODEL#="'MSOS'");
              3233    1   DCL 1 NI_MSOSDVT CONSTANT SYMDEF ALIGNED,
              3234    1         2 SCHED EPTR INIT(ENTADDR(NIB$REQSCHED)),
              3235    1         2 POSTER EPTR INIT(ENTADDR(NIB$POSTER)),
              3236    1         2 DVSCH EPTR INIT(ENTADDR(NIB$DEVSCHED)),
              3237    1         2 MODEL(0:9) CHAR(8) ALIGNED INIT('MSOS',' '*0),
PL6.E3A0      #001=NI_DVTS_D File=NI_DVTS_D.:E05TSI                              WED 07/30/97 03:42 Page:147
              3238    1         2 FEATURE(0:9) CHAR(8) ALIGNED INIT(' ',' ',' '*0),
              3239    1         2 TYPE UBIN(9) UNAL INIT(9),
              3240    1         2 NT@DCYLS UBIN(9) UNAL INIT(0),
              3241    1         2 SPT UBIN(9) UNAL INIT(0),
              3242    1         2 GRANSIZE UBIN(9) UNAL INIT(0),
              3243    1         2 PACKSIZE UBIN(36) UNAL INIT(0),
              3244    1         2 CYLSIZE UBIN(18) UNAL INIT(0),
              3245    1         2 T@DCYL UBIN(18) UNAL INIT(0),
              3246    1         2 SECSIZE UBIN(18) UNAL INIT(0),
              3247    1         2 ATTR BIT(18) UNAL INIT('0'B),
              3248    1         2 MPC ALIGNED,
              3249    1           3 FWNAME CHAR(4) INIT(' '),
              3250    1           3 LPNAME CHAR(4) INIT(' '),
              3251    1           3 CRPNAME CHAR(4) INIT(' '),
              3252    1         2 LP REDEF MPC ALIGNED,
              3253    1           3 CHAIN CHAR(4),
              3254    1           3 *(0:1) UBIN,
              3255    1         2 IDCW ALIGNED,
              3256    1           3 DCWLIST BIT(36) INIT('0003'O),
              3257    1           3 RQSTAT BIT(36) INIT('0'B),
              3258    1           3 RDBIN BIT(36) INIT('0'B),
              3259    1           3 WRBIN BIT(36) INIT('0'B),
              3260    1           3 RDASC BIT(36) INIT('0'B),
              3261    1           3 WRASC BIT(36) INIT('0'B),
              3262    1           3 REWIND BIT(36) INIT('010200020200'O),
              3263    1           3 WRCMP BIT(36) INIT('0'B),
              3264    1           3 UNLOAD BIT(36) INIT('000200020200'O),
              3265    1           3 ALARM BIT(36) INIT('0'B),
              3266    1           3 WRFM BIT(36) INIT('0'B),
              3267    1           3 WRZERO BIT(36) INIT('0'B),
              3268    1           3 READ BIT(36) INIT('103020020000'O),
              3269    1           3 WRITE BIT(36) INIT('100200020000'O),
              3270    1           3 SPREC BIT(36) INIT('0'B),
              3271    1           3 SPFILE BIT(36) INIT('0'B),
              3272    1           3 PERMIT BIT(36) INIT('0'B),
              3273    1           3 PROTECT BIT(36) INIT('0'B),
              3274    1           3 RESET BIT(36) INIT('0'B),
PL6.E3A0      #001=NI_DVTS_D File=NI_DVTS_D.:E05TSI                              WED 07/30/97 03:42 Page:148
              3275    1           3 SD800 BIT(36) INIT('0'B),
              3276    1           3 SD1600 BIT(36) INIT('0'B),
              3277    1           3 SD6250 BIT(36) INIT('0'B),
              3278    1           3 LDCHAIN BIT(36) INIT('0'B),
              3279    1           3 LDTAPE BIT(36) INIT('0'B),
              3280    1           3 RESTORE BIT(36) INIT('0'B),
              3281    1           3 LDVFC BIT(36) INIT('0'B),
              3282    1           3 SYMB BIT(36) INIT('0'B),
              3283    1           3 EXTST BIT(36) INIT('0'B),
              3284    1           3 ERACE BIT(36) INIT('0'B);
      603     3286        /**/
      604     3287        /* MCA DVT */
      605     3288        /**/
      606     3289        %DVT (NAME=NI_MCADVT,SCHED#=NIJ$REQSCHED,POSTER#=NIJ$POSTER,DVSCH#=NIJ$DEVSCHED,
      607     3290              TYPE#=%DV_MCA,
      608     3291              RQSTAT#="%CONCAT(%MCA_RQSTAT,%RTN_STD,'00'O,'02'O,%CC_UR,'00'O)",
              3291                  /*N* NOBUF? */
      609     3292              WRBIN#="%CONCAT(%MCA_WRD,%RTN_MCA_DUAL,%MCA_RD,'30'O,%CC_UR,'00'O)",
      610     3293              WRASC#="%CONCAT(%MCA_WRT,%RTN_MCA_DUAL,%MCA_RD,'30'O,%CC_UR,'00'O)",
      611     3294             RESET#="%CONCAT(%MCA_RESET,%RTN_STD,'00'O,'02'O,%CC_UR,'00'O)", /*N* NOBUF? */
      612     3295              MODEL#="'MCA'");
              3296    1   DCL 1 NI_MCADVT CONSTANT SYMDEF ALIGNED,
              3297    1         2 SCHED EPTR INIT(ENTADDR(NIJ$REQSCHED)),
              3298    1         2 POSTER EPTR INIT(ENTADDR(NIJ$POSTER)),
              3299    1         2 DVSCH EPTR INIT(ENTADDR(NIJ$DEVSCHED)),
              3300    1         2 MODEL(0:9) CHAR(8) ALIGNED INIT('MCA',' '*0),
              3301    1         2 FEATURE(0:9) CHAR(8) ALIGNED INIT(' ',' ',' '*0),
              3302    1         2 TYPE UBIN(9) UNAL INIT(10),
              3303    1         2 NT@DCYLS UBIN(9) UNAL INIT(0),
              3304    1         2 SPT UBIN(9) UNAL INIT(0),
              3305    1         2 GRANSIZE UBIN(9) UNAL INIT(0),
              3306    1         2 PACKSIZE UBIN(36) UNAL INIT(0),
              3307    1         2 CYLSIZE UBIN(18) UNAL INIT(0),
              3308    1         2 T@DCYL UBIN(18) UNAL INIT(0),
              3309    1         2 SECSIZE UBIN(18) UNAL INIT(0),
              3310    1         2 ATTR BIT(18) UNAL INIT('0'B),
              3311    1         2 MPC ALIGNED,
PL6.E3A0      #001=NI_DVTS_D File=NI_DVTS_D.:E05TSI                              WED 07/30/97 03:42 Page:149
              3312    1           3 FWNAME CHAR(4) INIT(' '),
              3313    1           3 LPNAME CHAR(4) INIT(' '),
              3314    1           3 CRPNAME CHAR(4) INIT(' '),
              3315    1         2 LP REDEF MPC ALIGNED,
              3316    1           3 CHAIN CHAR(4),
              3317    1           3 *(0:1) UBIN,
              3318    1         2 IDCW ALIGNED,
              3319    1           3 DCWLIST BIT(36) INIT('0003'O),
              3320    1           3 RQSTAT BIT(36) INIT('000200020000'O),
              3321    1           3 RDBIN BIT(36) INIT('0'B),
              3322    1           3 WRBIN BIT(36) INIT('153203300000'O),
              3323    1           3 RDASC BIT(36) INIT('0'B),
              3324    1           3 WRASC BIT(36) INIT('133203300000'O),
              3325    1           3 REWIND BIT(36) INIT('0'B),
              3326    1           3 WRCMP BIT(36) INIT('0'B),
              3327    1           3 UNLOAD BIT(36) INIT('0'B),
              3328    1           3 ALARM BIT(36) INIT('0'B),
              3329    1           3 WRFM BIT(36) INIT('0'B),
              3330    1           3 WRZERO BIT(36) INIT('0'B),
              3331    1           3 READ BIT(36) INIT('0'B),
              3332    1           3 WRITE BIT(36) INIT('0'B),
              3333    1           3 SPREC BIT(36) INIT('0'B),
              3334    1           3 SPFILE BIT(36) INIT('0'B),
              3335    1           3 PERMIT BIT(36) INIT('0'B),
              3336    1           3 PROTECT BIT(36) INIT('0'B),
              3337    1           3 RESET BIT(36) INIT('400200020000'O),
              3338    1           3 SD800 BIT(36) INIT('0'B),
              3339    1           3 SD1600 BIT(36) INIT('0'B),
              3340    1           3 SD6250 BIT(36) INIT('0'B),
              3341    1           3 LDCHAIN BIT(36) INIT('0'B),
              3342    1           3 LDTAPE BIT(36) INIT('0'B),
              3343    1           3 RESTORE BIT(36) INIT('0'B),
              3344    1           3 LDVFC BIT(36) INIT('0'B),
              3345    1           3 SYMB BIT(36) INIT('0'B),
              3346    1           3 EXTST BIT(36) INIT('0'B),
              3347    1           3 ERACE BIT(36) INIT('0'B);
      613     3349        /**/
PL6.E3A0      #001=NI_DVTS_D File=NI_DVTS_D.:E05TSI                              WED 07/30/97 03:42 Page:150
      614     3350    1   END NI_DVTS_D;

PL6.E3A0      #001=NI_DVTS_D File=NI_DVTS_D.:E05TSI                              WED 07/30/97 03:42 Page:151
--  Include file information  --

   TM_DATA_M.:E05TOU  is referenced.
   NI_DATA_C.:E05TOU  is referenced.
   CP_6_SUBS.:E05TOU  is referenced.
   NI_DEVCMD_C.:E05TOU  is referenced.
      No diagnostics issued in procedure NI_DVTS_D.
PL6.E3A0      #001=NI_DVTS_D File=NI_DVTS_D.:E05TSI                              WED 07/30/97 03:42 Page:152

 **** Variables and constants ****


   No code generated for procedure NI_DVTS_D .
   Procedure NI_DVTS_D requires 4 words of local(AUTO) storage.

    No errors detected in file NI_DVTS_D.:E05TSI    .
PL6.E3A0      #001=NI_DVTS_D File=NI_DVTS_D.:E05TSI                              WED 07/30/97 03:42 Page:153
          *** CROSS REFERENCE LISTING ***
**     DENOTES     IDENTIFIER DEFINITION
<<                 IDENTIFIER'S VALUE SET
>>                 IDENTIFIER'S VALUE USED
<>                 IDENTIFIER SET AND/OR USED
--                 IDENTIFIER REFERENCED
PL6.E3A0      #001=NI_DVTS_D File=NI_DVTS_D.:E05TSI                              WED 07/30/97 03:42 Page:154
          MINI XREF LISTING

NAP$POSTER
       956**DCL-ENT  1727--DCLINIT  1785--DCLINIT
NIB$DEVSCHED
       949**DCL-ENT  3236--DCLINIT
NIB$POSTER
       949**DCL-ENT  3235--DCLINIT
NIB$REQSCHED
       949**DCL-ENT  3234--DCLINIT
NIC$POSTER
       948**DCL-ENT  1089--DCLINIT
NIC$REQSCHED
       948**DCL-ENT  1088--DCLINIT
NID$DEVSCHED
       954**DCL-ENT  1863--DCLINIT  1931--DCLINIT  1999--DCLINIT  2068--DCLINIT  2137--DCLINIT  2206--DCLINIT
      2275--DCLINIT  2344--DCLINIT
NID$POSTER
       954**DCL-ENT  1862--DCLINIT  1930--DCLINIT  1998--DCLINIT  2067--DCLINIT  2136--DCLINIT  2205--DCLINIT
      2274--DCLINIT  2343--DCLINIT
NID$REQSCHED
       954**DCL-ENT  1861--DCLINIT  1929--DCLINIT  1997--DCLINIT  2066--DCLINIT  2135--DCLINIT  2204--DCLINIT
      2273--DCLINIT  2342--DCLINIT
NIJ$DEVSCHED
       950**DCL-ENT  3299--DCLINIT
NIJ$POSTER
       950**DCL-ENT  3298--DCLINIT
NIJ$REQSCHED
       950**DCL-ENT  3297--DCLINIT
NIL$POSTER
       952**DCL-ENT  1288--DCLINIT  1355--DCLINIT
NIP$POSTER
       952**DCL-ENT  1219--DCLINIT
NIR$POSTER
PL6.E3A0      #001=NI_DVTS_D File=NI_DVTS_D.:E05TSI                              WED 07/30/97 03:42 Page:155
       952**DCL-ENT  1152--DCLINIT
NIT$DEVSCHED
       953**DCL-ENT  1437--DCLINIT  1515--DCLINIT  1593--DCLINIT  1671--DCLINIT
NIT$POSTER
       953**DCL-ENT  1436--DCLINIT  1514--DCLINIT  1592--DCLINIT  1670--DCLINIT
NIT$REQSCHED
       953**DCL-ENT  1435--DCLINIT  1513--DCLINIT  1591--DCLINIT  1669--DCLINIT
NIU$DEVSCHED
       951**DCL-ENT  1153--DCLINIT  1220--DCLINIT  1289--DCLINIT  1356--DCLINIT  1728--DCLINIT  1786--DCLINIT
NIU$REQSCHED
       951**DCL-ENT  1151--DCLINIT  1218--DCLINIT  1287--DCLINIT  1354--DCLINIT  1726--DCLINIT  1784--DCLINIT
NIW$DEVSCHED
       955**DCL-ENT  2409--DCLINIT  2473--DCLINIT  2537--DCLINIT  2601--DCLINIT  2662--DCLINIT  2725--DCLINIT
      2789--DCLINIT  2853--DCLINIT  2917--DCLINIT  2981--DCLINIT  3045--DCLINIT  3109--DCLINIT  3173--DCLINIT
NIW$POSTER
       955**DCL-ENT  2408--DCLINIT  2472--DCLINIT  2536--DCLINIT  2600--DCLINIT  2661--DCLINIT  2724--DCLINIT
      2788--DCLINIT  2852--DCLINIT  2916--DCLINIT  2980--DCLINIT  3044--DCLINIT  3108--DCLINIT  3172--DCLINIT
NIW$REQSCHED
       955**DCL-ENT  2407--DCLINIT  2471--DCLINIT  2535--DCLINIT  2599--DCLINIT  2660--DCLINIT  2723--DCLINIT
      2787--DCLINIT  2851--DCLINIT  2915--DCLINIT  2979--DCLINIT  3043--DCLINIT  3107--DCLINIT  3171--DCLINIT
NI_ACDVT.MPC
      1798**DCL      1802--REDEF
NI_APDVT.MPC
      1740**DCL      1744--REDEF
NI_CPDVT.MPC
      1232**DCL      1236--REDEF
NI_CRDVT.MPC
      1165**DCL      1169--REDEF
NI_DCDVT.MPC
      2421**DCL      2425--REDEF
NI_DCDVT1.MPC
      2485**DCL      2489--REDEF
NI_DCDVT2.MPC
      2549**DCL      2553--REDEF
NI_DCDVT3.MPC
      2613**DCL      2617--REDEF
PL6.E3A0      #001=NI_DVTS_D File=NI_DVTS_D.:E05TSI                              WED 07/30/97 03:42 Page:156
NI_DCDVT4.MPC
      2674**DCL      2678--REDEF
NI_DPDVT1.MPC
      1875**DCL      1879--REDEF
NI_DPDVT2.MPC
      1943**DCL      1947--REDEF
NI_DPDVT3.MPC
      2011**DCL      2015--REDEF
NI_DPDVT4.MPC
      2080**DCL      2084--REDEF
NI_DPDVT5.MPC
      2149**DCL      2153--REDEF
NI_DPDVT6.MPC
      2218**DCL      2222--REDEF
NI_DPDVT7.MPC
      2287**DCL      2291--REDEF
NI_DPDVT8.MPC
      2356**DCL      2360--REDEF
NI_LPDVT.MPC
      1301**DCL      1305--REDEF
NI_LPDVT1.MPC
      1368**DCL      1372--REDEF
NI_MCADVT.MPC
      3311**DCL      3315--REDEF
NI_MSOSDVT.MPC
      3248**DCL      3252--REDEF
NI_MTDVT.MPC
      1449**DCL      1453--REDEF
NI_MTDVT1.MPC
      1527**DCL      1531--REDEF
NI_MTDVT2.MPC
      1605**DCL      1609--REDEF
NI_MTDVT3.MPC
      1683**DCL      1687--REDEF
NI_SCDVT.MPC
      1102**DCL      1106--REDEF
PL6.E3A0      #001=NI_DVTS_D File=NI_DVTS_D.:E05TSI                              WED 07/30/97 03:42 Page:157
NI_TCDVT.MPC
      2737**DCL      2741--REDEF
NI_TCDVT1.MPC
      2801**DCL      2805--REDEF
NI_TCDVT2.MPC
      2865**DCL      2869--REDEF
NI_TCDVT3.MPC
      2929**DCL      2933--REDEF
NI_TCDVT4.MPC
      2993**DCL      2997--REDEF
NI_UCDVT.MPC
      3057**DCL      3061--REDEF
NI_UCDVT1.MPC
      3121**DCL      3125--REDEF
NI_UCDVT2.MPC
      3185**DCL      3189--REDEF
