VERSION E05

PL6.E3A0      #001=NKL$RELDCT File=NKL$LDCT.:E05TSI                              WED 07/30/97 03:45 Page:1
        1        1        /*M* NKL$LDCT Routines to get, release, and control LDCT entries*/
        2        2        /*T***********************************************************/
        3        3        /*T*                                                         */
        4        4        /*T* Copyright (c) Bull HN Information Systems Inc., 1997    */
        5        5        /*T*                                                         */
        6        6        /*T***********************************************************/
        7        7        /*X*DMC,PLM=6,IND=2,ENU=2,DCI=4,CSU=2,ECU=2,THI=2,DTI=0*/
        8        8        /**/
        9        9        /**/
       10       10        NKL$RELDCT: PROC (LDCT$) ALTRET;
       11       11        /**/
       12       12        /**/
       13       13        /*D* NAME:        NKL$RELDCT
       14       14             PURPOSE:     To release an LDCT
       15       15             CALL:        CALL NKL$RELDCT(LDCT$) ALTRET(LBL);
       16       16             INPUT:       LDCT$ pointing to the LDCT to be released
       17       17             DESCRIPTION: NKL$RELDCT locks the K_LOCK gate and then proceeds to
       18       18                          release the LDCT.  The passed pointer is NIL'ed and the gate
       19       19                          is unlocked before RETURNing.
       20       20        */
       21       21        /**/
       22       22        %INCLUDE B_SEGIDS_C;
       23      561        %INCLUDE HF_LOCK_C;
       24      575        %INCLUDE MM_DATA_R;
       25     1095        %INCLUDE NK$LDCT;
       26     1197        %INCLUDE NK_SUBS;
       27     1222        %INCLUDE NK_LDCT_R;
       28     1231        /**/
       29     1232        %NK$LDCT(STCLASS="BASED(LDCT$)");
       30     1278        %NK$LDCT (NAME=NK_NULDCT,STCLASS=SYMREF);
       31     1324    1   DCL K_LOCK BIT(72) SYMREF;
       32     1325        /**/
       33     1326        /**/
       34     1327    1   DCL LDCT$ PTR;
       35     1328    1   DCL 1 PLUGH BASED ALIGNED,
       36     1329    1         2 ADR BIT(18),
       37     1330    1         2 * BIT(18);
PL6.E3A0      #001=NKL$RELDCT File=NKL$LDCT.:E05TSI                              WED 07/30/97 03:45 Page:2
       38     1331        /*****************************************************************
       39     1332         LDX declared below must be at offset 4 into the AUTO frame
       40     1333         in order for the PLUGH reference after label RELDCT to work.
       41     1334        *****************************************************************/
       42     1335    1   DCL LDX UBIN(36);
       43     1336    1   DCL GEN UBIN;
       44     1337    1   DCL NEW# UBIN WORD;
       45     1338    1   DCL NDCT$ PTR;
       46     1339    1   DCL NDCT1$ PTR;
       47     1340    1   DCL MMH$GDS ENTRY(5) ALTRET;
       48     1341    1   DCL SSS$CACHE ENTRY;
       49     1342    1   DCL SSS$CACHEBP ENTRY;
       50     1343        /**/
       51     1344        /**/
       52     1345              %LOCK(G=K_LOCK);
       53     1348    1   RELDCT: ;
       54     1349    1         CALL SSS$CACHEBP;
       55     1350    1         ADDR(LDCT.LOCK)->PLUGH.ADR = PINCRW(ADDR(LDX),-4)->PLUGH.ADR;
       56     1351    1         LDCT.LNK$=NK_FHD$;
       57     1352    1         NK_FHD$=LDCT$;
       58     1353    1         NK$LDCT$(LDCT.LDCTX)=ADDR(NIL);
       59     1354    1         LDCT$ = ADDR(NIL);
       60     1355    1         GOTO RET;
       61     1356        /**/
       62     1357    1   NKL$RELDCTL: ENTRY (LDCT$) ALTRET;
       63     1358        /**/
       64     1359              %LOCK(G=K_LOCK);
       65     1362    1         IF LDCT.DFLG.PRLS
       66     1363    1           THEN GOTO RELDCT;
       67     1364    1         LDCT.DFLG.RLSE='1'B;
       68     1365    1         GOTO RET;
       69     1366        /**/
       70     1367        /**/
       71     1368    1   NKL$GETDCT: ENTRY (LDCT$) ALTRET;
       72     1369        /*D* NAME:        NKL$GETDCT
       73     1370             PURPOSE:     To get an LDCT
       74     1371             CALL:        CALL NKL$GETDCT(LDCT$) ALTRET(LBL);
PL6.E3A0      #001=NKL$RELDCT File=NKL$LDCT.:E05TSI                              WED 07/30/97 03:45 Page:3
       75     1372             OUTPUT:      LDCT$ pointing to the obtained LDCT
       76     1373             DESCRIPTION: NKL$GETDCT locks the K_LOCK gate and then proceeds to
       77     1374                          obtain an LDCT. If one is available, its address is
       78     1375                          stored into LDCT$, the K_LOCK gate is unlocked and
       79     1376                          we RETURN. If one is not available, we unlock K_LOCK
       80     1377                          and ALTRETURN.
       81     1378        */
       82     1379        /**/
       83     1380              %LOCK(G=K_LOCK);
       84     1383    1         CALL SSS$CACHEBP;
       85     1384    2         IF NK_FHD$=ADDR(NIL) THEN DO;
       86     1385    2           IF NK_CUR>=NK_MXTOTAL THEN GOTO ALTRT;
       87     1386    2           NEW# = 1024*MM_DSMAX(%(BITBIN(LDCTSID)-BITBIN(DS1SID)));
       88     1387    2           CALL MMH$GDS (%MONWSQ,BITBIN(%LDCTSID),NEW#,LDX) ALTRET (ALTRT);
       89     1388    2           NEW#=NK_MXTOTAL-NK_CUR;
       90     1389    2           LDCT$=NK_NDCT$;
       91     1390    2           NDCT1$=NK_NDCT$;
       92     1391    3           DO LDX=1 TO NEW#;
       93     1392    3             NDCT$=NDCT1$;
       94     1393    3             NDCT1$=PINCRW(NDCT$,SIZEW(NK$LDCT));
       95     1394    3             NDCT$->LDCT.LNK$=NDCT1$;
       96     1395    3             NDCT$->LDCT.LDCTX=NK_CUR+LDX;
       97     1396    3           END;
       98     1397    2           NK_CUR=NK_CUR+NEW#;
       99     1398    2           NK_NDCT$=NDCT1$;
      100     1399    2           NDCT$->LDCT.LNK$=NK_FHD$;
      101     1400    2         END;
      102     1401    1           ELSE LDCT$=NK_FHD$;
      103     1402    1         NK_FHD$=LDCT.LNK$;
      104     1403    1         LDX=LDCT.LDCTX;
      105     1404    1         GEN=LDCT.GENERATION;
      106     1405    1         LDCT=NK_NULDCT;
      107     1406    1         LDCT.LDCTX=LDX;
      108     1407    1         LDCT.GENERATION=GEN+1;
      109     1408    1         NK$LDCT$(LDX)=LDCT$;
      110     1409    1   RET:  ;
      111     1410    1         CALL SSS$CACHE;
PL6.E3A0      #001=NKL$RELDCT File=NKL$LDCT.:E05TSI                              WED 07/30/97 03:45 Page:4
      112     1411              %UNLOCK(G=K_LOCK);
      113     1414    1         RETURN;
      114     1415    1   ALTRT: ;
      115     1416    1         CALL SSS$CACHE;
      116     1417              %UNLOCK(G=K_LOCK);
      117     1420    1         ALTRETURN;
      118     1421        /**/
      119     1422        /**/
      120     1423    1   END;

PL6.E3A0      #001=NKL$RELDCT File=NKL$LDCT.:E05TSI                              WED 07/30/97 03:45 Page:5
--  Include file information  --

   NK_LDCT_R.:E05TOU  cannot be made into a system file and is referenced.
   NK_SUBS.:E05TOU  is referenced.
   NK$LDCT.:E05TOU  is referenced.
   MM_MACRO_M.:E05TOU  is referenced.
   B_STRINGS_C.:E05TOU  is referenced.
   MM$SYSGEN.:E05TOU  is referenced.
   M_INFO_C.:E05TOU  is referenced.
   MM_DATA_R.:E05TOU  cannot be made into a system file and is referenced.
   HF_LOCK_C.:E05TOU  cannot be made into a system file and is referenced.
   B_SEGIDS_C.:E05TOU  is referenced.
      No diagnostics issued in procedure NKL$RELDCT.

   Procedure NKL$RELDCT requires 150 words for executable code.
   Procedure NKL$RELDCT requires 14 words of local(AUTO) storage.

    No errors detected in file NKL$LDCT.:E05TSI    .

PL6.E3A0      #001=NKL$RELDCT File=NKL$LDCT.:E05TSI                              WED 07/30/97 03:45 Page:6

 Object Unit name= NKL$RELDCT                                 File name= NKL$LDCT.:E05TOU
 UTS= JUL 30 '97 03:45:23.88 WED                              Compiler= PL-6/E31         Sev=      00
 SharedLib= :SHARED_SYSTEM                                    Alt SharedLib=


    ****  Control sections  ****

 Sect   Type Bound  Init  Size OctSiz  Section name(segment info)
    0   Proc  even  none   150    226  NKL$RELDCT
    1  RoData even  none     6      6  NKL$RELDCT

    ****  Entry defs  ****

                              Check   Calling
                             calling  sequence
  Sect OctLoc Primary Altret sequence   type   Parms  Name
     0      0   yes    yes     yes      Std        1  NKL$RELDCT
     0     32          yes     yes      Std        1  NKL$RELDCTL
     0     50          yes     yes      Std        1  NKL$GETDCT

  ****  Entry refs  ****

         Check        Calling
        calling       sequence
Altret sequence SRef   type   Args  Name
         yes           Std       1 HFC$LOCK
         yes           Std       0 SSS$CACHEBP
         yes           Std       1 HFC$UNLOCK
 yes     yes           Std       5 MMH$GDS
         yes           Std       0 SSS$CACHE
                       nStd      0 X66_AUTO_1
                       Std       0 B_CONSPOOL_D
                       nStd      0 X66_ARET
                       nStd      0 X66_AALT
PL6.E3A0      #001=NKL$RELDCT File=NKL$LDCT.:E05TSI                              WED 07/30/97 03:45 Page:7

  ****  Data refs  ****

  Flags:  r = read only, s = secondary
Flgs Name                             Flgs Name                             Flgs Name
r    MM_BYP$                               MM_DSMAX                              N$DCT$$
     NK_FHD$                               NK_MXTOTAL                            NK_CUR
     NK_NDCT$                              NK_NULDCT                             K_LOCK
     B_VECTNIL

  ****  Segment refs  ****

  Flags:  r = read only, s = secondary
Flgs Name                             Flgs Name                             Flgs Name
     ISSID
PL6.E3A0      #001=NKL$RELDCT File=NKL$LDCT.:E05TSI                              WED 07/30/97 03:45 Page:8


        1        1        /*M* NKL$LDCT Routines to get, release, and control LDCT entries*/
        2        2        /*T***********************************************************/
        3        3        /*T*                                                         */
        4        4        /*T* Copyright (c) Bull HN Information Systems Inc., 1997    */
        5        5        /*T*                                                         */
        6        6        /*T***********************************************************/
        7        7        /*X*DMC,PLM=6,IND=2,ENU=2,DCI=4,CSU=2,ECU=2,THI=2,DTI=0*/
        8        8        /**/
        9        9        /**/
       10       10        NKL$RELDCT: PROC (LDCT$) ALTRET;

     10  0 000000   000000 700200 xent  NKL$RELDCT   TSX0  ! X66_AUTO_1
         0 000001   000016 000001                    ZERO    14,1

       11       11        /**/
       12       12        /**/
       13       13        /*D* NAME:        NKL$RELDCT
       14       14             PURPOSE:     To release an LDCT
       15       15             CALL:        CALL NKL$RELDCT(LDCT$) ALTRET(LBL);
       16       16             INPUT:       LDCT$ pointing to the LDCT to be released
       17       17             DESCRIPTION: NKL$RELDCT locks the K_LOCK gate and then proceeds to
       18       18                          release the LDCT.  The passed pointer is NIL'ed and the gate
       19       19                          is unlocked before RETURNing.
       20       20        */
       21       21        /**/
       22       22        %INCLUDE B_SEGIDS_C;
       23      561        %INCLUDE HF_LOCK_C;
       24      575        %INCLUDE MM_DATA_R;
       25     1095        %INCLUDE NK$LDCT;
       26     1197        %INCLUDE NK_SUBS;
       27     1222        %INCLUDE NK_LDCT_R;
       28     1231        /**/
       29     1232        %NK$LDCT(STCLASS="BASED(LDCT$)");
       30     1278        %NK$LDCT (NAME=NK_NULDCT,STCLASS=SYMREF);
       31     1324    1   DCL K_LOCK BIT(72) SYMREF;
       32     1325        /**/
PL6.E3A0      #001=NKL$RELDCT File=NKL$LDCT.:E05TSI                              WED 07/30/97 03:45 Page:9
       33     1326        /**/
       34     1327    1   DCL LDCT$ PTR;
       35     1328    1   DCL 1 PLUGH BASED ALIGNED,
       36     1329    1         2 ADR BIT(18),
       37     1330    1         2 * BIT(18);
       38     1331        /*****************************************************************
       39     1332         LDX declared below must be at offset 4 into the AUTO frame
       40     1333         in order for the PLUGH reference after label RELDCT to work.
       41     1334        *****************************************************************/
       42     1335    1   DCL LDX UBIN(36);
       43     1336    1   DCL GEN UBIN;
       44     1337    1   DCL NEW# UBIN WORD;
       45     1338    1   DCL NDCT$ PTR;
       46     1339    1   DCL NDCT1$ PTR;
       47     1340    1   DCL MMH$GDS ENTRY(5) ALTRET;
       48     1341    1   DCL SSS$CACHE ENTRY;
       49     1342    1   DCL SSS$CACHEBP ENTRY;
       50     1343        /**/
       51     1344        /**/
       52     1345              %LOCK(G=K_LOCK);

   1346  0 000002   000000 630400 1                  EPPR0   0
         0 000003   000017 631400 xsym               EPPR1   B_VECTNIL+15
         0 000004   000000 701000 xent               TSX1    HFC$LOCK
         0 000005   000000 011000                    NOP     0

   1346  0 000006                       RELDCT       null
       53     1348    1   RELDCT: ;
       54     1349    1         CALL SSS$CACHEBP;

   1349  0 000006   000002 631400 xsym               EPPR1   B_VECTNIL+2
         0 000007   000000 701000 xent               TSX1    SSS$CACHEBP
         0 000010   000000 011000                    NOP     0

       55     1350    1         ADDR(LDCT.LOCK)->PLUGH.ADR = PINCRW(ADDR(LDX),-4)->PLUGH.ADR;

   1350  0 000011   200003 470500                    LDP0    @LDCT$,,AUTO
PL6.E3A0      #001=NKL$RELDCT File=NKL$LDCT.:E05TSI                              WED 07/30/97 03:45 Page:10
         0 000012   000000 471500                    LDP1    0,,PR0
         0 000013   200000 220100                    LDX0    0,,AUTO
         0 000014   100020 740100                    STX0    16,,PR1

       56     1351    1         LDCT.LNK$=NK_FHD$;

   1351  0 000015   000000 471500                    LDP1    0,,PR0
         0 000016   000000 236000 xsym               LDQ     NK_FHD$
         0 000017   100004 756100                    STQ     4,,PR1

       57     1352    1         NK_FHD$=LDCT$;

   1352  0 000020   000000 236100                    LDQ     0,,PR0
         0 000021   000000 756000 xsym               STQ     NK_FHD$

       58     1353    1         NK$LDCT$(LDCT.LDCTX)=ADDR(NIL);

   1353  0 000022   000000 471500                    LDP1    0,,PR0
         0 000023   100006 221100                    LDX1    6,,PR1
         0 000024   000001 236000 xsym               LDQ     B_VECTNIL+1
         0 000025   000000 473400 xsym               LDP3    N$DCT$$
         0 000026   300000 756111                    STQ     0,X1,PR3

       59     1354    1         LDCT$ = ADDR(NIL);

   1354  0 000027   000001 236000 xsym               LDQ     B_VECTNIL+1
         0 000030   000000 756100                    STQ     0,,PR0

       60     1355    1         GOTO RET;

   1355  0 000031   000206 710000 0                  TRA     RET

       61     1356        /**/
       62     1357    1   NKL$RELDCTL: ENTRY (LDCT$) ALTRET;

   1357  0 000032   000000 700200 xent  NKL$RELDCTL  TSX0  ! X66_AUTO_1
         0 000033   000016 000001                    ZERO    14,1
PL6.E3A0      #001=NKL$RELDCT File=NKL$LDCT.:E05TSI                              WED 07/30/97 03:45 Page:11

       63     1358        /**/
       64     1359              %LOCK(G=K_LOCK);

   1360  0 000034   000000 630400 1                  EPPR0   0
         0 000035   000017 631400 xsym               EPPR1   B_VECTNIL+15
         0 000036   000000 701000 xent               TSX1    HFC$LOCK
         0 000037   000000 011000                    NOP     0

       65     1362    1         IF LDCT.DFLG.PRLS

   1362  0 000040   200003 470500                    LDP0    @LDCT$,,AUTO
         0 000041   000000 471500                    LDP1    0,,PR0
         0 000042   100006 236100                    LDQ     6,,PR1
         0 000043   000200 316007                    CANQ    128,DL
         0 000044   000006 601000 0                  TNZ     RELDCT

       66     1363    1           THEN GOTO RELDCT;
       67     1364    1         LDCT.DFLG.RLSE='1'B;

   1364  0 000045   000400 236007                    LDQ     256,DL
         0 000046   100006 256100                    ORSQ    6,,PR1

       68     1365    1         GOTO RET;

   1365  0 000047   000206 710000 0                  TRA     RET

       69     1366        /**/
       70     1367        /**/
       71     1368    1   NKL$GETDCT: ENTRY (LDCT$) ALTRET;

   1368  0 000050   000000 700200 xent  NKL$GETDCT   TSX0  ! X66_AUTO_1
         0 000051   000016 000001                    ZERO    14,1

       72     1369        /*D* NAME:        NKL$GETDCT
       73     1370             PURPOSE:     To get an LDCT
       74     1371             CALL:        CALL NKL$GETDCT(LDCT$) ALTRET(LBL);
PL6.E3A0      #001=NKL$RELDCT File=NKL$LDCT.:E05TSI                              WED 07/30/97 03:45 Page:12
       75     1372             OUTPUT:      LDCT$ pointing to the obtained LDCT
       76     1373             DESCRIPTION: NKL$GETDCT locks the K_LOCK gate and then proceeds to
       77     1374                          obtain an LDCT. If one is available, its address is
       78     1375                          stored into LDCT$, the K_LOCK gate is unlocked and
       79     1376                          we RETURN. If one is not available, we unlock K_LOCK
       80     1377                          and ALTRETURN.
       81     1378        */
       82     1379        /**/
       83     1380              %LOCK(G=K_LOCK);

   1381  0 000052   000000 630400 1                  EPPR0   0
         0 000053   000017 631400 xsym               EPPR1   B_VECTNIL+15
         0 000054   000000 701000 xent               TSX1    HFC$LOCK
         0 000055   000000 011000                    NOP     0

       84     1383    1         CALL SSS$CACHEBP;

   1383  0 000056   000002 631400 xsym               EPPR1   B_VECTNIL+2
         0 000057   000000 701000 xent               TSX1    SSS$CACHEBP
         0 000060   000000 011000                    NOP     0

       85     1384    2         IF NK_FHD$=ADDR(NIL) THEN DO;

   1384  0 000061   000000 236000 xsym               LDQ     NK_FHD$
         0 000062   000001 116000 xsym               CMPQ    B_VECTNIL+1
         0 000063   000150 601000 0                  TNZ     s:1401

       86     1385    2           IF NK_CUR>=NK_MXTOTAL THEN GOTO ALTRT;

   1385  0 000064   000000 236000 xsym               LDQ     NK_CUR
         0 000065   000000 116000 xsym               CMPQ    NK_MXTOTAL
         0 000066   000216 603000 0                  TRC     ALTRT

       87     1386    2           NEW# = 1024*MM_DSMAX(%(BITBIN(LDCTSID)-BITBIN(DS1SID)));

   1386  0 000067   000001 236000 xsym               LDQ     MM_DSMAX+1
         0 000070   000012 736000                    QLS     10
PL6.E3A0      #001=NKL$RELDCT File=NKL$LDCT.:E05TSI                              WED 07/30/97 03:45 Page:13
         0 000071   000001 376000 1                  ANQ     1
         0 000072   200006 756100                    STQ     NEW#,,AUTO

       88     1387    2           CALL MMH$GDS (%MONWSQ,BITBIN(%LDCTSID),NEW#,LDX) ALTRET (ALTRT);

   1387  0 000073   200004 630500                    EPPR0   LDX,,AUTO
         0 000074   200015 450500                    STP0    NDCT1$+5,,AUTO
         0 000075   200006 631500                    EPPR1   NEW#,,AUTO
         0 000076   200014 451500                    STP1    NDCT1$+4,,AUTO
         0 000077   000004 237000 1                  LDAQ    4
         0 000100   200012 757100                    STAQ    NDCT1$+2,,AUTO
         0 000101   200012 630500                    EPPR0   NDCT1$+2,,AUTO
         0 000102   000022 631400 xsym               EPPR1   B_VECTNIL+18
         0 000103   000000 701000 xent               TSX1    MMH$GDS
         0 000104   000216 702000 0                  TSX2    ALTRT

       89     1388    2           NEW#=NK_MXTOTAL-NK_CUR;

   1388  0 000105   000000 236000 xsym               LDQ     NK_MXTOTAL
         0 000106   000000 136000 xsym               SBLQ    NK_CUR
         0 000107   200006 756100                    STQ     NEW#,,AUTO

       90     1389    2           LDCT$=NK_NDCT$;

   1389  0 000110   000000 236000 xsym               LDQ     NK_NDCT$
         0 000111   200003 470500                    LDP0    @LDCT$,,AUTO
         0 000112   000000 756100                    STQ     0,,PR0

       91     1390    2           NDCT1$=NK_NDCT$;

   1390  0 000113   000000 236000 xsym               LDQ     NK_NDCT$
         0 000114   200010 756100                    STQ     NDCT1$,,AUTO

       92     1391    3           DO LDX=1 TO NEW#;

   1391  0 000115   000001 235007                    LDA     1,DL
         0 000116   200004 755100                    STA     LDX,,AUTO
PL6.E3A0      #001=NKL$RELDCT File=NKL$LDCT.:E05TSI                              WED 07/30/97 03:45 Page:14
         0 000117   000135 710000 0                  TRA     s:1396+3

       93     1392    3             NDCT$=NDCT1$;

   1392  0 000120   200010 236100                    LDQ     NDCT1$,,AUTO
         0 000121   200007 756100                    STQ     NDCT$,,AUTO

       94     1393    3             NDCT1$=PINCRW(NDCT$,SIZEW(NK$LDCT));

   1393  0 000122   000030 036003                    ADLQ    24,DU
         0 000123   200010 756100                    STQ     NDCT1$,,AUTO

       95     1394    3             NDCT$->LDCT.LNK$=NDCT1$;

   1394  0 000124   200007 470500                    LDP0    NDCT$,,AUTO
         0 000125   000004 756100                    STQ     4,,PR0

       96     1395    3             NDCT$->LDCT.LDCTX=NK_CUR+LDX;

   1395  0 000126   000000 236000 xsym               LDQ     NK_CUR
         0 000127   200004 036100                    ADLQ    LDX,,AUTO
         0 000130   000000 620006                    EAX0    0,QL
         0 000131   000006 740100                    STX0    6,,PR0

       97     1396    3           END;

   1396  0 000132   200004 235100                    LDA     LDX,,AUTO
         0 000133   000001 035007                    ADLA    1,DL
         0 000134   200004 755100                    STA     LDX,,AUTO
         0 000135   200006 236100                    LDQ     NEW#,,AUTO
         0 000136   200004 116100                    CMPQ    LDX,,AUTO
         0 000137   000120 603000 0                  TRC     s:1392

       98     1397    2           NK_CUR=NK_CUR+NEW#;

   1397  0 000140   000000 036000 xsym               ADLQ    NK_CUR
         0 000141   000000 756000 xsym               STQ     NK_CUR
PL6.E3A0      #001=NKL$RELDCT File=NKL$LDCT.:E05TSI                              WED 07/30/97 03:45 Page:15

       99     1398    2           NK_NDCT$=NDCT1$;

   1398  0 000142   200010 236100                    LDQ     NDCT1$,,AUTO
         0 000143   000000 756000 xsym               STQ     NK_NDCT$

      100     1399    2           NDCT$->LDCT.LNK$=NK_FHD$;

   1399  0 000144   000000 236000 xsym               LDQ     NK_FHD$
         0 000145   200007 470500                    LDP0    NDCT$,,AUTO
         0 000146   000004 756100                    STQ     4,,PR0

      101     1400    2         END;

   1400  0 000147   000152 710000 0                  TRA     s:1402

      102     1401    1           ELSE LDCT$=NK_FHD$;

   1401  0 000150   200003 470500                    LDP0    @LDCT$,,AUTO
         0 000151   000000 756100                    STQ     0,,PR0

      103     1402    1         NK_FHD$=LDCT.LNK$;

   1402  0 000152   200003 470500                    LDP0    @LDCT$,,AUTO
         0 000153   000000 471500                    LDP1    0,,PR0
         0 000154   100004 236100                    LDQ     4,,PR1
         0 000155   000000 756000 xsym               STQ     NK_FHD$

      104     1403    1         LDX=LDCT.LDCTX;

   1403  0 000156   000000 471500                    LDP1    0,,PR0
         0 000157   100006 236100                    LDQ     6,,PR1
         0 000160   000022 772000                    QRL     18
         0 000161   200004 756100                    STQ     LDX,,AUTO

      105     1404    1         GEN=LDCT.GENERATION;

PL6.E3A0      #001=NKL$RELDCT File=NKL$LDCT.:E05TSI                              WED 07/30/97 03:45 Page:16
   1404  0 000162   000000 471500                    LDP1    0,,PR0
         0 000163   100014 236100                    LDQ     12,,PR1
         0 000164   000022 772000                    QRL     18
         0 000165   000377 376007                    ANQ     255,DL
         0 000166   200005 756100                    STQ     GEN,,AUTO

      106     1405    1         LDCT=NK_NULDCT;

   1405  0 000167   000100 100400                    MLR     fill='000'O
         0 000170   000000 000140 xsym               ADSC9   NK_NULDCT                cn=0,n=96
         0 000171   100000 000140                    ADSC9   0,,PR1                   cn=0,n=96

      107     1406    1         LDCT.LDCTX=LDX;

   1406  0 000172   000000 471500                    LDP1    0,,PR0
         0 000173   200004 720100                    LXL0    LDX,,AUTO
         0 000174   100006 740100                    STX0    6,,PR1

      108     1407    1         LDCT.GENERATION=GEN+1;

   1407  0 000175   000000 471500                    LDP1    0,,PR0
         0 000176   000001 036007                    ADLQ    1,DL
         0 000177   000022 736000                    QLS     18
         0 000200   100014 676100                    ERQ     12,,PR1
         0 000201   000377 376003                    ANQ     255,DU
         0 000202   100014 656100                    ERSQ    12,,PR1

      109     1408    1         NK$LDCT$(LDX)=LDCT$;

   1408  0 000203   000000 236100                    LDQ     0,,PR0
         0 000204   000000 471400 xsym               LDP1    N$DCT$$
         0 000205   100000 756110                    STQ     0,X0,PR1

   1408  0 000206                       RET          null
      110     1409    1   RET:  ;
      111     1410    1         CALL SSS$CACHE;

PL6.E3A0      #001=NKL$RELDCT File=NKL$LDCT.:E05TSI                              WED 07/30/97 03:45 Page:17
   1410  0 000206   000002 631400 xsym               EPPR1   B_VECTNIL+2
         0 000207   000000 701000 xent               TSX1    SSS$CACHE
         0 000210   000000 011000                    NOP     0

      112     1411              %UNLOCK(G=K_LOCK);

   1412  0 000211   000000 630400 1                  EPPR0   0
         0 000212   000017 631400 xsym               EPPR1   B_VECTNIL+15
         0 000213   000000 701000 xent               TSX1    HFC$UNLOCK
         0 000214   000000 011000                    NOP     0

      113     1414    1         RETURN;

   1414  0 000215   000000 702200 xent               TSX2  ! X66_ARET

   1408  0 000216                       ALTRT        null
      114     1415    1   ALTRT: ;
      115     1416    1         CALL SSS$CACHE;

   1416  0 000216   000002 631400 xsym               EPPR1   B_VECTNIL+2
         0 000217   000000 701000 xent               TSX1    SSS$CACHE
         0 000220   000000 011000                    NOP     0

      116     1417              %UNLOCK(G=K_LOCK);

   1418  0 000221   000000 630400 1                  EPPR0   0
         0 000222   000017 631400 xsym               EPPR1   B_VECTNIL+15
         0 000223   000000 701000 xent               TSX1    HFC$UNLOCK
         0 000224   000000 011000                    NOP     0

      117     1420    1         ALTRETURN;

   1420  0 000225   000000 702200 xent               TSX2  ! X66_AALT

(unnamed)
 Sect OctLoc
   1     000   000000 006000   000001 776000   000000 006013   000000 000000    ................
PL6.E3A0      #001=NKL$RELDCT File=NKL$LDCT.:E05TSI                              WED 07/30/97 03:45 Page:18
   1     004   000003 006000   000002 006000                                    ........
      118     1421        /**/
      119     1422        /**/
      120     1423    1   END;

PL6.E3A0      #001=NKL$RELDCT File=NKL$LDCT.:E05TSI                              WED 07/30/97 03:45 Page:19
--  Include file information  --

   NK_LDCT_R.:E05TOU  cannot be made into a system file and is referenced.
   NK_SUBS.:E05TOU  is referenced.
   NK$LDCT.:E05TOU  is referenced.
   MM_MACRO_M.:E05TOU  is referenced.
   B_STRINGS_C.:E05TOU  is referenced.
   MM$SYSGEN.:E05TOU  is referenced.
   M_INFO_C.:E05TOU  is referenced.
   MM_DATA_R.:E05TOU  cannot be made into a system file and is referenced.
   HF_LOCK_C.:E05TOU  cannot be made into a system file and is referenced.
   B_SEGIDS_C.:E05TOU  is referenced.
      No diagnostics issued in procedure NKL$RELDCT.
PL6.E3A0      #001=NKL$RELDCT File=NKL$LDCT.:E05TSI                              WED 07/30/97 03:45 Page:20

 **** Variables and constants ****

  ****  Auto variables  ****

  ****  Scalars and arrays  ****
OctLoc.c.b A Datatyp(siz) R M Lvl/name                 OctLoc.c.b A Datatyp(siz) R M Lvl/name

     3-0-0/w PTR         r     1 @LDCT$                     5-0-0/w UBIN        r     1 GEN
    *0-0-0/w PTR         r     1 LDCT$                      4-0-0/w UBIN        r     1 LDX
     7-0-0/w PTR         r     1 NDCT$                     10-0-0/w PTR         r     1 NDCT1$
     6-0-0/w UBIN        r     1 NEW#

  ****  SYMREF variables  ****

  ****  Scalars and arrays  ****
OctLoc.c.b A Datatyp(siz) R M Lvl/name                 OctLoc.c.b A Datatyp(siz) R M Lvl/name

     0-0-0/b BIT (72)    r     1 K_LOCK                     0-0-0/w PTR         r     1 MM_BYP$
     0-0-0/b UBIN(9)     r     1 MM_DSMAX(0:7)
     0-0-0/w PTR         r     1 N$DCT$$                    0-0-0/w UBIN        r     1 NK_CUR
     0-0-0/w PTR         r     1 NK_FHD$                    0-0-0/w UBIN        r     1 NK_MXTOTAL
     0-0-0/w PTR         r     1 NK_NDCT$                   0-0-0/d STRC(864)   r     1 NK_NULDCT

  ****  BASED and DCB variables  ****

  ****  Scalars and arrays  ****
OctLoc.c.b A Datatyp(siz) R M Lvl/name                 OctLoc.c.b A Datatyp(siz) R M Lvl/name

     0-0-0/d STRC(864)   r     1 NK$LDCT
     0-0-0/w PTR         r     1 NK$LDCT$(0:0)
     0-0-0/w STRC        r     1 PLUGH


   Procedure NKL$RELDCT requires 150 words for executable code.
   Procedure NKL$RELDCT requires 14 words of local(AUTO) storage.
PL6.E3A0      #001=NKL$RELDCT File=NKL$LDCT.:E05TSI                              WED 07/30/97 03:45 Page:21

    No errors detected in file NKL$LDCT.:E05TSI    .
PL6.E3A0      #001=NKL$RELDCT File=NKL$LDCT.:E05TSI                              WED 07/30/97 03:45 Page:22
          *** CROSS REFERENCE LISTING ***
**     DENOTES     IDENTIFIER DEFINITION
<<                 IDENTIFIER'S VALUE SET
>>                 IDENTIFIER'S VALUE USED
<>                 IDENTIFIER SET AND/OR USED
--                 IDENTIFIER REFERENCED
PL6.E3A0      #001=NKL$RELDCT File=NKL$LDCT.:E05TSI                              WED 07/30/97 03:45 Page:23
          MINI XREF LISTING

ALTRT
      1408**LABEL    1385--GOTO     1387--CALLALT
GEN
      1336**DCL      1404<<ASSIGN   1407>>ASSIGN
HFC$LOCK
       574**DCL-ENT  1346--CALL     1360--CALL     1381--CALL
HFC$UNLOCK
       574**DCL-ENT  1412--CALL     1418--CALL
K_LOCK
      1324**DCL      1346<>CALL     1360<>CALL     1381<>CALL     1412<>CALL     1418<>CALL
LDCT$
      1327**DCL        10--PROC     1245--IMP-PTR  1350>>ASSIGN   1351>>ASSIGN   1352>>ASSIGN   1353>>ASSIGN
      1354<<ASSIGN   1357--ENTRY    1362>>IF       1364>>ASSIGN   1368--ENTRY    1389<<ASSIGN   1401<<ASSIGN
      1402>>ASSIGN   1403>>ASSIGN   1404>>ASSIGN   1405>>ASSIGN   1406>>ASSIGN   1407>>ASSIGN   1408>>ASSIGN
LDX
      1335**DCL      1350--ASSIGN   1387<>CALL     1391<<DOINDEX  1395>>ASSIGN   1403<<ASSIGN   1406>>ASSIGN
      1408>>ASSIGN
MM$DESC.BOUND
      1046**DCL      1047--REDEF
MM$DESC.FLGS
      1047**DCL      1047--REDEF
MM$PPUT.USER#
      1035**DCL      1035--REDEF
MMH$GDS
      1340**DCL-ENT  1387--CALL
MM_BYP$
       966**DCL       966--IMP-PTR
MM_DSMAX
       969**DCL      1386>>ASSIGN
N$DCT$$
      1229**DCL      1229--IMP-PTR  1353>>ASSIGN   1408>>ASSIGN
NDCT$
PL6.E3A0      #001=NKL$RELDCT File=NKL$LDCT.:E05TSI                              WED 07/30/97 03:45 Page:24
      1338**DCL      1392<<ASSIGN   1393>>ASSIGN   1394>>ASSIGN   1395>>ASSIGN   1399>>ASSIGN
NDCT1$
      1339**DCL      1390<<ASSIGN   1392>>ASSIGN   1393<<ASSIGN   1394>>ASSIGN   1398>>ASSIGN
NEW#
      1337**DCL      1386<<ASSIGN   1387<>CALL     1388<<ASSIGN   1391>>DOINDEX  1397>>ASSIGN
NK$LDCT
      1245**DCL      1393--ASSIGN   1405<<ASSIGN
NK$LDCT.DDT$
      1247**DCL      1247--REDEF
NK$LDCT.DFLG.PRLS
      1252**DCL      1362>>IF
NK$LDCT.DFLG.RLSE
      1252**DCL      1364<<ASSIGN
NK$LDCT.GENERATION
      1268**DCL      1404>>ASSIGN   1407<<ASSIGN
NK$LDCT.IOQ$
      1246**DCL      1247--REDEF
NK$LDCT.LDCTX
      1248**DCL      1248--REDEF    1353>>ASSIGN   1395<<ASSIGN   1403>>ASSIGN   1406<<ASSIGN
NK$LDCT.LKFLG.ABORTED
      1260**DCL      1261--REDEF
NK$LDCT.LNK$
      1247**DCL      1351<<ASSIGN   1394<<ASSIGN   1399<<ASSIGN   1402>>ASSIGN
NK$LDCT.LOCK
      1273**DCL      1350--ASSIGN
NK$LDCT.RLCID.LDCTX
      1270**DCL      1270--REDEF
NK$LDCT.STA$
      1266**DCL      1267--REDEF
NK$LDCT.SYMB$
      1245**DCL      1245--REDEF    1245--REDEF    1246--REDEF
NK$LDCT$
      1229**DCL      1353<<ASSIGN   1408<<ASSIGN
NK_CUR
      1230**DCL      1385>>IF       1388>>ASSIGN   1395>>ASSIGN   1397<<ASSIGN   1397>>ASSIGN
NK_FHD$
PL6.E3A0      #001=NKL$RELDCT File=NKL$LDCT.:E05TSI                              WED 07/30/97 03:45 Page:25
      1229**DCL      1351>>ASSIGN   1352<<ASSIGN   1384>>IF       1399>>ASSIGN   1401>>ASSIGN   1402<<ASSIGN
NK_MXTOTAL
      1229**DCL      1385>>IF       1388>>ASSIGN
NK_NDCT$
      1230**DCL      1389>>ASSIGN   1390>>ASSIGN   1398<<ASSIGN
NK_NULDCT
      1291**DCL      1405>>ASSIGN
NK_NULDCT.DDT$
      1293**DCL      1293--REDEF
NK_NULDCT.IOQ$
      1292**DCL      1293--REDEF
NK_NULDCT.LDCTX
      1294**DCL      1294--REDEF
NK_NULDCT.LKFLG.ABORTED
      1306**DCL      1307--REDEF
NK_NULDCT.RLCID.LDCTX
      1316**DCL      1316--REDEF
NK_NULDCT.STA$
      1312**DCL      1313--REDEF
NK_NULDCT.SYMB$
      1291**DCL      1291--REDEF    1291--REDEF    1292--REDEF
PLUGH.ADR
      1329**DCL      1350<<ASSIGN   1350>>ASSIGN
RELDCT
      1346**LABEL    1363--GOTO
RET
      1408**LABEL    1355--GOTO     1365--GOTO
SSS$CACHE
      1341**DCL-ENT  1410--CALL     1416--CALL
SSS$CACHEBP
      1342**DCL-ENT  1349--CALL     1383--CALL
