VERSION E05

PL6.E3A0      #001=NKU$UCCLS File=NKU$OCUC.:E05TSI                               WED 07/30/97 03:45 Page:1
        1        1        /*M* NKU$OCUC Open and close M$UC - disconnect T.S. lines at logoff*/
        2        2        /*T***********************************************************/
        3        3        /*T*                                                         */
        4        4        /*T* Copyright (c) Bull HN Information Systems Inc., 1997    */
        5        5        /*T*                                                         */
        6        6        /*T***********************************************************/
        7        7        /*X*DMC,PLM=6,IND=2,ENU=2,DCI=4,CSU=2,ECU=2,THI=2,DTI=0*/
        8        8        /**/
        9        9        /**/
       10       10        NKU$UCCLS: PROC ALTRET;
       11       11        /**/
       12       12        /**/
       13       13        %PLIST;
       14       14        %INCLUDE F$DCB;
       15       63        %INCLUDE NK$LDCT;
       16      165        %INCLUDE NK_LDCT_R;
       17      174        %INCLUDE CP_6_SUBS;
       18      714        %INCLUDE NK_SUBS;
       19      739        %INCLUDE KV$VDO;
       20     1754        %INCLUDE K$RWPARM;
       21     2140        %INCLUDE HF_LOCK_C;
       22     2154        %KV_VDO_E;
       23     2190        /**/
       24     2191        %NK$LDCT;
       25     2237        %K$RWPARM (NAME=K_RWPARM_CON, STCLASS=SYMREF);
       26     2553        /**/
       27     2554        /**/
       28     2555    1   DCL LDCT$ PTR;
       29     2556    1   DCL DONE BIT(1);
       30     2557        %K$RWPARM (NAME=RWPARM,STCLASS=AUTO);
       31     2873    1   DCL KIA$DSCU ENTRY(3) ALTRET;
       32     2874    1   DCL NKL$RELDCTL ENTRY(1) ALTRET;
       33     2875        /**/
       34     2876    1   DCL SC_NTSDCT ENTRY CONV(2,0);
       35     2877        /**/
       36     2878        /**/
       37     2879    1         LDCT$=NK$LDCT$(DCBADDR(%M$UC#)->F$DCB.LDCTX);
PL6.E3A0      #001=NKU$UCCLS File=NKU$OCUC.:E05TSI                               WED 07/30/97 03:45 Page:2
       38     2880    1         IF LDCT$=ADDR(NIL) THEN CALL SC_NTSDCT;
       39     2881        /*S*  SCREECH_CODE:  NKU-S$NTSDCT
       40     2882              TYPE:          SUA
       41     2883              MESSAGE:       LDCT for timesharing users terminal lost (at disconnect)
       42     2884              REMARKS:       NKU$UCCLS is called by step when running down
       43     2885                             timesharing users.  This SUA occurs when the LDCT
       44     2886                             that should be pointed to by the users M$UC DCB
       45     2887                             does not exist. This has happened in the past because
       46     2888                             the disconnect occured before the user was fully
       47     2889                             started, and this timing hole could reappear.  This
       48     2890                             code is also reported by KIA$UCIO (KIA-S$NTSDCT)
       49     2891                             when the LDCT disappears during I/O                     */
       50     2892    1         IF LDCT$->LDCT.DFLG.OLDSC='0'B THEN ALTRETURN;
       51     2893              %LOCK (G=LDCT$->LDCT.LOCK);
       52     2896    1         RWPARM = K_RWPARM_CON;
       53     2897    1         CALL KIA$DSCU(LDCT$->LDCT,%KV_VDO_FNC_DSC_RSP,RWPARM)
       54     2898    2           WHENALTRETURN DO;
       55     2899    2           LDCT$->LDCT.DFLG.PRLS = '1'B;
       56     2900    2         END;
       57     2901              %UNLOCK (G=LDCT$->LDCT.LOCK);
       58     2904    1         CALL NKL$RELDCTL (LDCT$);
       59     2905    1         DCBADDR(%M$UC#)->F$DCB.LDCTX = 0;
       60     2906    1         DCBADDR(%M$UC#)->F$DCB.SETX = 0;
       61     2907    1         RETURN;
       62     2908        /**/
       63     2909    1   END;
       64     2910        /**/
       65     2911        /**/
       66     2912        %EOD;

PL6.E3A0      #001=NKU$UCCLS File=NKU$OCUC.:E05TSI                               WED 07/30/97 03:45 Page:3
--  Include file information  --

   HF_LOCK_C.:E05TOU  cannot be made into a system file and is referenced.
   K$RWPARM.:E05TOU  is referenced.
   KV$VDO.:E05TOU  is referenced.
   NK_SUBS.:E05TOU  is referenced.
   CP_6_SUBS.:E05TOU  is referenced.
   NK_LDCT_R.:E05TOU  cannot be made into a system file and is referenced.
   NK$LDCT.:E05TOU  is referenced.
   F$DCB.:E05TOU  cannot be made into a system file and is referenced.
      No diagnostics issued in procedure NKU$UCCLS.

   Procedure NKU$UCCLS requires 61 words for executable code.
   Procedure NKU$UCCLS requires 50 words of local(AUTO) storage.

PL6.E3A0      #001=NKU$UCCLS File=NKU$OCUC.:E05TSI                               WED 07/30/97 03:45 Page:4

 Object Unit name= NKU$UCCLS                                  File name= NKU$OCUC.:E05TOU
 UTS= JUL 30 '97 03:45:40.68 WED                              Compiler= PL-6/E31         Sev=      00
 SharedLib= :SHARED_SYSTEM                                    Alt SharedLib=


    ****  Control sections  ****

 Sect   Type Bound  Init  Size OctSiz  Section name(segment info)
    0   Proc  even  none    61     75  NKU$UCCLS
    1  RoData even  none     2      2  NKU$UCCLS

    ****  Entry defs  ****

                              Check   Calling
                             calling  sequence
  Sect OctLoc Primary Altret sequence   type   Parms  Name
     0      0   yes    yes     yes      Std        0  NKU$UCCLS

  ****  Entry refs  ****

         Check        Calling
        calling       sequence
Altret sequence SRef   type   Args  Name
         yes           Std       1 HFC$LOCK
         yes           Std       1 HFC$UNLOCK
 yes     yes           Std       1 NKL$RELDCTL
 yes     yes           Std       3 KIA$DSCU
                       nStd      0 X66_AUTO_0
                       Std       0 B_CONSPOOL_D
                       nStd      0 X66_AALT
                       nStd      0 X66_ARET
PL6.E3A0      #001=NKU$UCCLS File=NKU$OCUC.:E05TSI                               WED 07/30/97 03:45 Page:5

  ****  Data refs  ****

  Flags:  r = read only, s = secondary
Flgs Name                             Flgs Name                             Flgs Name
     SC_NTSDCT                             N$DCT$$                               K_RWPARM_CON
     B_VECTNIL

  ****  Segment refs  ****

  Flags:  r = read only, s = secondary
Flgs Name                             Flgs Name                             Flgs Name
     ROSID                                 ASLENTSID                             ISSID
PL6.E3A0      #001=NKU$UCCLS File=NKU$OCUC.:E05TSI                               WED 07/30/97 03:45 Page:6


        1        1        /*M* NKU$OCUC Open and close M$UC - disconnect T.S. lines at logoff*/
        2        2        /*T***********************************************************/
        3        3        /*T*                                                         */
        4        4        /*T* Copyright (c) Bull HN Information Systems Inc., 1997    */
        5        5        /*T*                                                         */
        6        6        /*T***********************************************************/
        7        7        /*X*DMC,PLM=6,IND=2,ENU=2,DCI=4,CSU=2,ECU=2,THI=2,DTI=0*/
        8        8        /**/
        9        9        /**/
       10       10        NKU$UCCLS: PROC ALTRET;

     10  0 000000   000000 700200 xent  NKU$UCCLS    TSX0  ! X66_AUTO_0
         0 000001   000062 000000                    ZERO    50,0

       11       11        /**/
       12       12        /**/
       13       13        %PLIST;
       14       14        %INCLUDE F$DCB;
       15       63        %INCLUDE NK$LDCT;
       16      165        %INCLUDE NK_LDCT_R;
       17      174        %INCLUDE CP_6_SUBS;
       18      714        %INCLUDE NK_SUBS;
       19      739        %INCLUDE KV$VDO;
       20     1754        %INCLUDE K$RWPARM;
       21     2140        %INCLUDE HF_LOCK_C;
       22     2154        %KV_VDO_E;
       23     2190        /**/
       24     2191        %NK$LDCT;
       25     2237        %K$RWPARM (NAME=K_RWPARM_CON, STCLASS=SYMREF);
       26     2553        /**/
       27     2554        /**/
       28     2555    1   DCL LDCT$ PTR;
       29     2556    1   DCL DONE BIT(1);
       30     2557        %K$RWPARM (NAME=RWPARM,STCLASS=AUTO);
       31     2873    1   DCL KIA$DSCU ENTRY(3) ALTRET;
       32     2874    1   DCL NKL$RELDCTL ENTRY(1) ALTRET;
PL6.E3A0      #001=NKU$UCCLS File=NKU$OCUC.:E05TSI                               WED 07/30/97 03:45 Page:7
       33     2875        /**/
       34     2876    1   DCL SC_NTSDCT ENTRY CONV(2,0);
       35     2877        /**/
       36     2878        /**/
       37     2879    1         LDCT$=NK$LDCT$(DCBADDR(%M$UC#)->F$DCB.LDCTX);

   2879  0 000002   000000 470400 1                  LDP0    0
         0 000003   000000 471500                    LDP1    0,,PR0
         0 000004   100003 473500                    LDP3    3,,PR1
         0 000005   300051 220100                    LDX0    41,,PR3
         0 000006   000000 474400 xsym               LDP4    N$DCT$$
         0 000007   400000 236110                    LDQ     0,X0,PR4
         0 000010   200003 756100                    STQ     LDCT$,,AUTO

       38     2880    1         IF LDCT$=ADDR(NIL) THEN CALL SC_NTSDCT;

   2880  0 000011   000001 116000 xsym               CMPQ    B_VECTNIL+1
         0 000012   000015 601000 0                  TNZ     s:2892

   2880  0 000013   000000 713400 xsym               CLIMB   SC_NTSDCT
         0 000014   000000 600000 xsid               climb   nvectors=         0

       39     2881        /*S*  SCREECH_CODE:  NKU-S$NTSDCT
       40     2882              TYPE:          SUA
       41     2883              MESSAGE:       LDCT for timesharing users terminal lost (at disconnect)
       42     2884              REMARKS:       NKU$UCCLS is called by step when running down
       43     2885                             timesharing users.  This SUA occurs when the LDCT
       44     2886                             that should be pointed to by the users M$UC DCB
       45     2887                             does not exist. This has happened in the past because
       46     2888                             the disconnect occured before the user was fully
       47     2889                             started, and this timing hole could reappear.  This
       48     2890                             code is also reported by KIA$UCIO (KIA-S$NTSDCT)
       49     2891                             when the LDCT disappears during I/O                     */
       50     2892    1         IF LDCT$->LDCT.DFLG.OLDSC='0'B THEN ALTRETURN;

   2892  0 000015   200003 470500                    LDP0    LDCT$,,AUTO
         0 000016   000006 236100                    LDQ     6,,PR0
PL6.E3A0      #001=NKU$UCCLS File=NKU$OCUC.:E05TSI                               WED 07/30/97 03:45 Page:8
         0 000017   010000 316007                    CANQ    4096,DL
         0 000020   000022 601000 0                  TNZ     s:2894

   2892  0 000021   000000 702200 xent               TSX2  ! X66_AALT

       51     2893              %LOCK (G=LDCT$->LDCT.LOCK);

   2894  0 000022   200003 236100                    LDQ     LDCT$,,AUTO
         0 000023   000020 036003                    ADLQ    16,DU
         0 000024   200056 756100                    STQ     RWPARM+40,,AUTO
         0 000025   200056 630500                    EPPR0   RWPARM+40,,AUTO
         0 000026   000017 631400 xsym               EPPR1   B_VECTNIL+15
         0 000027   000000 701000 xent               TSX1    HFC$LOCK
         0 000030   000000 011000                    NOP     0

       52     2896    1         RWPARM = K_RWPARM_CON;

   2896  0 000031   000100 100400                    MLR     fill='000'O
         0 000032   000000 000234 xsym               ADSC9   K_RWPARM_CON             cn=0,n=156
         0 000033   200006 000234                    ADSC9   RWPARM,,AUTO             cn=0,n=156

       53     2897    1         CALL KIA$DSCU(LDCT$->LDCT,%KV_VDO_FNC_DSC_RSP,RWPARM)

   2897  0 000034   200006 630500                    EPPR0   RWPARM,,AUTO
         0 000035   200060 450500                    STP0    RWPARM+42,,AUTO
         0 000036   000001 236000 1                  LDQ     1
         0 000037   200003 235100                    LDA     LDCT$,,AUTO
         0 000040   200056 757100                    STAQ    RWPARM+40,,AUTO
         0 000041   200056 630500                    EPPR0   RWPARM+40,,AUTO
         0 000042   000021 631400 xsym               EPPR1   B_VECTNIL+17
         0 000043   000000 701000 xent               TSX1    KIA$DSCU
         0 000044   000046 702000 0                  TSX2    s:2899
         0 000045   000051 710000 0                  TRA     s:2902

       54     2898    2           WHENALTRETURN DO;

       55     2899    2           LDCT$->LDCT.DFLG.PRLS = '1'B;
PL6.E3A0      #001=NKU$UCCLS File=NKU$OCUC.:E05TSI                               WED 07/30/97 03:45 Page:9

   2899  0 000046   200003 470500                    LDP0    LDCT$,,AUTO
         0 000047   000200 236007                    LDQ     128,DL
         0 000050   000006 256100                    ORSQ    6,,PR0

       56     2900    2         END;

       57     2901              %UNLOCK (G=LDCT$->LDCT.LOCK);

   2902  0 000051   200003 236100                    LDQ     LDCT$,,AUTO
         0 000052   000020 036003                    ADLQ    16,DU
         0 000053   200056 756100                    STQ     RWPARM+40,,AUTO
         0 000054   200056 630500                    EPPR0   RWPARM+40,,AUTO
         0 000055   000017 631400 xsym               EPPR1   B_VECTNIL+15
         0 000056   000000 701000 xent               TSX1    HFC$UNLOCK
         0 000057   000000 011000                    NOP     0

       58     2904    1         CALL NKL$RELDCTL (LDCT$);

   2904  0 000060   200003 630500                    EPPR0   LDCT$,,AUTO
         0 000061   200056 450500                    STP0    RWPARM+40,,AUTO
         0 000062   200056 630500                    EPPR0   RWPARM+40,,AUTO
         0 000063   000017 631400 xsym               EPPR1   B_VECTNIL+15
         0 000064   000000 701000 xent               TSX1    NKL$RELDCTL
         0 000065   000000 011000                    NOP     0

       59     2905    1         DCBADDR(%M$UC#)->F$DCB.LDCTX = 0;

   2905  0 000066   000000 470400 1                  LDP0    0
         0 000067   000000 471500                    LDP1    0,,PR0
         0 000070   100003 473500                    LDP3    3,,PR1
         0 000071   000000 220003                    LDX0    0,DU
         0 000072   300051 740100                    STX0    41,,PR3

       60     2906    1         DCBADDR(%M$UC#)->F$DCB.SETX = 0;

   2906  0 000073   300051 440100                    SXL0    41,,PR3
PL6.E3A0      #001=NKU$UCCLS File=NKU$OCUC.:E05TSI                               WED 07/30/97 03:45 Page:10

       61     2907    1         RETURN;

   2907  0 000074   000000 702200 xent               TSX2  ! X66_ARET

(unnamed)
 Sect OctLoc
   1     000   000000 006003   000015 006000                                    ........
       62     2908        /**/
       63     2909    1   END;
       64     2910        /**/
       65     2911        /**/
       66     2912        %EOD;

PL6.E3A0      #001=NKU$UCCLS File=NKU$OCUC.:E05TSI                               WED 07/30/97 03:45 Page:11
--  Include file information  --

   HF_LOCK_C.:E05TOU  cannot be made into a system file and is referenced.
   K$RWPARM.:E05TOU  is referenced.
   KV$VDO.:E05TOU  is referenced.
   NK_SUBS.:E05TOU  is referenced.
   CP_6_SUBS.:E05TOU  is referenced.
   NK_LDCT_R.:E05TOU  cannot be made into a system file and is referenced.
   NK$LDCT.:E05TOU  is referenced.
   F$DCB.:E05TOU  cannot be made into a system file and is referenced.
      No diagnostics issued in procedure NKU$UCCLS.
PL6.E3A0      #001=NKU$UCCLS File=NKU$OCUC.:E05TSI                               WED 07/30/97 03:45 Page:12

 **** Variables and constants ****

  ****  Auto variables  ****

  ****  Scalars and arrays  ****
OctLoc.c.b A Datatyp(siz) R M Lvl/name                 OctLoc.c.b A Datatyp(siz) R M Lvl/name

     3-0-0/w PTR         r     1 LDCT$                      6-0-0/d STRC(1404)  r     1 RWPARM

  ****  SYMREF variables  ****

  ****  Scalars and arrays  ****
OctLoc.c.b A Datatyp(siz) R M Lvl/name                 OctLoc.c.b A Datatyp(siz) R M Lvl/name

     0-0-0/d STRC(1404)  r     1 K_RWPARM_CON               0-0-0/w PTR         r     1 N$DCT$$

  ****  BASED and DCB variables  ****

  ****  Scalars and arrays  ****
OctLoc.c.b A Datatyp(siz) R M Lvl/name                 OctLoc.c.b A Datatyp(siz) R M Lvl/name

     0-0-0/d ASTR(3528)  r     1 F$DCB                      0-0-0/d STRC(864)   r     1 NK$LDCT
     0-0-0/w PTR         r     1 NK$LDCT$(0:0)


   Procedure NKU$UCCLS requires 61 words for executable code.
   Procedure NKU$UCCLS requires 50 words of local(AUTO) storage.
PL6.E3A0      #001=NKU$UCCLS File=NKU$OCUC.:E05TSI                               WED 07/30/97 03:45 Page:13
          *** CROSS REFERENCE LISTING ***
**     DENOTES     IDENTIFIER DEFINITION
<<                 IDENTIFIER'S VALUE SET
>>                 IDENTIFIER'S VALUE USED
<>                 IDENTIFIER SET AND/OR USED
--                 IDENTIFIER REFERENCED
PL6.E3A0      #001=NKU$UCCLS File=NKU$OCUC.:E05TSI                               WED 07/30/97 03:45 Page:14
          MINI XREF LISTING

F$DCB.ACTPOS
        40**DCL        40--REDEF
F$DCB.ARS
        15**DCL        15--REDEF
F$DCB.ATTR
        33**DCL        34--REDEF
F$DCB.BORROW
        48**DCL        48--REDEF      48--REDEF      48--REDEF
F$DCB.DCBNAME.L
        62**DCL        62--IMP-SIZ
F$DCB.EOMCHAR
        19**DCL        19--REDEF
F$DCB.FLDID
        43**DCL        43--REDEF
F$DCB.FORM$
        37**DCL        37--REDEF
F$DCB.FSECT
        53**DCL        53--REDEF
F$DCB.FSN
        30**DCL        30--REDEF      30--REDEF      31--REDEF
F$DCB.HEADER$
        36**DCL        36--REDEF
F$DCB.IXTNSIZE
        34**DCL        34--REDEF
F$DCB.LASTSTA$
        24**DCL        24--REDEF
F$DCB.LDCTX
        37**DCL      2879>>ASSIGN   2905<<ASSIGN
F$DCB.LVL
        49**DCL        49--REDEF
F$DCB.NAME.C
        24**DCL        24--REDEF
PL6.E3A0      #001=NKU$UCCLS File=NKU$OCUC.:E05TSI                               WED 07/30/97 03:45 Page:15
F$DCB.NOEOF
        45**DCL        45--REDEF
F$DCB.NRECS
        35**DCL        35--REDEF
F$DCB.NRECX
        54**DCL        54--REDEF
F$DCB.OHDR
        46**DCL        46--REDEF
F$DCB.ORG
        29**DCL        29--REDEF
F$DCB.PRECNO
        52**DCL        52--REDEF
F$DCB.RCSZ
        57**DCL        57--REDEF
F$DCB.RES
        25**DCL        25--REDEF
F$DCB.SETX
        37**DCL        37--REDEF    2906<<ASSIGN
F$DCB.TAB$
        36**DCL        37--REDEF
F$DCB.TDA
        51**DCL        51--REDEF
F$DCB.WSN
        26**DCL        26--REDEF
HFC$LOCK
      2153**DCL-ENT  2894--CALL
HFC$UNLOCK
      2153**DCL-ENT  2902--CALL
KIA$DSCU
      2873**DCL-ENT  2897--CALL
K_RWPARM_CON
      2258**DCL      2896>>ASSIGN
K_RWPARM_CON.BLKREC
      2284**DCL      2309--REDEF
K_RWPARM_CON.BLKREC.BLKU#
      2285**DCL      2287--REDEF
PL6.E3A0      #001=NKU$UCCLS File=NKU$OCUC.:E05TSI                               WED 07/30/97 03:45 Page:16
K_RWPARM_CON.BLKREC.RECU#
      2297**DCL      2299--REDEF
K_RWPARM_CON.DVE.DVBYTE.VFC
      2324**DCL      2325--REDEF
K_RWPARM_CON.DVE.EOMCHAR
      2332**DCL      2336--REDEF
K_RWPARM_CON.ERR
      2396**DCL      2401--REDEF
K_RWPARM_CON.FC
      2360**DCL      2361--REDEF
K_RWPARM_CON.FLDID
      2542**DCL      2543--REDEF
K_RWPARM_CON.FPT$
      2423**DCL      2430--REDEF
K_RWPARM_CON.KEYTYPE
      2549**DCL      2550--REDEF
K_RWPARM_CON.MSG$
      2259**DCL      2265--REDEF
K_RWPARM_CON.MSGID
      2371**DCL      2376--REDEF
K_RWPARM_CON.MSGIDXT
      2384**DCL      2388--REDEF
K_RWPARM_CON.ORG
      2520**DCL      2521--REDEF
K_RWPARM_CON.THDRSZ
      2464**DCL      2468--REDEF
K_RWPARM_CON.VDOFLGS
      2522**DCL      2533--REDEF
LDCT$
      2555**DCL      2879<<ASSIGN   2880>>IF       2892>>IF       2894>>CALL     2897>>CALL     2899>>ASSIGN
      2902>>CALL     2904<>CALL
N$DCT$$
       172**DCL       172--IMP-PTR  2879>>ASSIGN
NK$LDCT
      2204**DCL      2897<>CALL
NK$LDCT.DDT$
PL6.E3A0      #001=NKU$UCCLS File=NKU$OCUC.:E05TSI                               WED 07/30/97 03:45 Page:17
      2206**DCL      2206--REDEF
NK$LDCT.DFLG.OLDSC
      2209**DCL      2892>>IF
NK$LDCT.DFLG.PRLS
      2211**DCL      2899<<ASSIGN
NK$LDCT.IOQ$
      2205**DCL      2206--REDEF
NK$LDCT.LDCTX
      2207**DCL      2207--REDEF
NK$LDCT.LKFLG.ABORTED
      2219**DCL      2220--REDEF
NK$LDCT.LOCK
      2232**DCL      2894<>CALL     2902<>CALL
NK$LDCT.RLCID.LDCTX
      2229**DCL      2229--REDEF
NK$LDCT.STA$
      2225**DCL      2226--REDEF
NK$LDCT.SYMB$
      2204**DCL      2204--REDEF    2204--REDEF    2205--REDEF
NK$LDCT$
       172**DCL      2879>>ASSIGN
NKL$RELDCTL
      2874**DCL-ENT  2904--CALL
RWPARM
      2578**DCL      2896<<ASSIGN   2897<>CALL
RWPARM.BLKREC
      2604**DCL      2629--REDEF
RWPARM.BLKREC.BLKU#
      2605**DCL      2607--REDEF
RWPARM.BLKREC.RECU#
      2617**DCL      2619--REDEF
RWPARM.DVE.DVBYTE.VFC
      2644**DCL      2645--REDEF
RWPARM.DVE.EOMCHAR
      2652**DCL      2656--REDEF
RWPARM.ERR
PL6.E3A0      #001=NKU$UCCLS File=NKU$OCUC.:E05TSI                               WED 07/30/97 03:45 Page:18
      2716**DCL      2721--REDEF
RWPARM.FC
      2680**DCL      2681--REDEF
RWPARM.FLDID
      2862**DCL      2863--REDEF
RWPARM.FPT$
      2743**DCL      2750--REDEF
RWPARM.KEYTYPE
      2869**DCL      2870--REDEF
RWPARM.MSG$
      2579**DCL      2585--REDEF
RWPARM.MSGID
      2691**DCL      2696--REDEF
RWPARM.MSGIDXT
      2704**DCL      2708--REDEF
RWPARM.ORG
      2840**DCL      2841--REDEF
RWPARM.THDRSZ
      2784**DCL      2788--REDEF
RWPARM.VDOFLGS
      2842**DCL      2853--REDEF
SC_NTSDCT
      2876**DCL-ENT  2880--CALL

PL6.E3A0      #002=NKU$UCOPN File=NKU$OCUC.:E05TSI                               WED 07/30/97 03:46 Page:19
       67        1        /*T***********************************************************/
       68        2        /*T*                                                         */
       69        3        /*T* Copyright (c) Bull HN Information Systems Inc., 1997    */
       70        4        /*T*                                                         */
       71        5        /*T***********************************************************/
       72        6        /**/
       73        7        /**/
       74        8        NKU$UCOPN: PROC ALTRET;
       75        9        /**/
       76       10        /**/
       77       11        %INCLUDE B$JIT_C;
       78      325        %B$JIT0;
       79      414        %U$JIT1X;
       80      417        %M$JIT2X;
       81      420        %F$JIT3;
       82      425        %A$JIT6X;
       83      428        %INCLUDE B$ROSEG;
       84      491        %INCLUDE CP_6_SUBS;
       85     1031        %INCLUDE F$DCB;
       86     1080        %INCLUDE NK$LDCT;
       87     1182        %INCLUDE NK_LDCT_R;
       88     1191        %INCLUDE KV$VDO;
       89     2206        %KV_VDO_E;
       90     2242        %INCLUDE KV_PRMID_E;
       91     2416        %KV_PRMID_E;
       92     2572        %INCLUDE F_FPTCODE_C;
       93     2608        %INCLUDE KI_CP6;
       94     3704        %INCLUDE NK_SUBS;
       95     3729        %INCLUDE K$RWPARM;
       96     4115        %INCLUDE HF_LOCK_C;
       97     4129        %INCLUDE SS_SCHED_C;
       98     4362        %INCLUDE KI_SUBS_C;
       99     4498
      100     4499        /**/
      101     4500        %NK$LDCT;
      102     4546        /**/
      103     4547    1   DCL LDCT$ PTR;
PL6.E3A0      #002=NKU$UCOPN File=NKU$OCUC.:E05TSI                               WED 07/30/97 03:46 Page:20
      104     4548    1   DCL DCB$ PTR;
      105     4549    1   DCL B$JIT$ PTR SYMREF;
      106     4550    1   DCL B$ROSEG$ PTR SYMREF;
      107     4551    1   DCL S_CUN UBIN(36) SYMREF;
      108     4552        %K$RWPARM (NAME=K_RWPARM_CON, STCLASS=SYMREF);
      109     4868        %K$RWPARM (NAME=RWPARM,STCLASS=AUTO);
      110     5184        %VLP_PLATEN (FPTN=PLATEN,STCLASS=AUTO);
      111     5206        %VLP_PLATEN (STCLASS=CONSTANT);
      112     5228    1   DCL PRMID UBIN BYTE CONSTANT INIT(%KV_PRMID_PLATEN);
      113     5229
      114     5230        /* Symrefs */
      115     5231
      116     5232    1   DCL KIA$FCNOU ENTRY(3) ALTRET;
      117     5233    1   DCL KIA$DCLSTR ENTRY(2) ALTRET;
      118     5234    1   DCL KIA$UCIO ENTRY(5) ALTRET;
      119     5235    1   DCL KIP$PLATEN ENTRY(1);
      120     5236    1   DCL SSR$REG ENTRY(3) ALTRET;
      121     5237    1   DCL SSR$RUE ENTRY(4);
      122     5238    1         RWPARM = K_RWPARM_CON;
      123     5239        /**/
      124     5240        /**/
      125     5241    1         DCB$=B$JIT.DCB$;
      126     5242    1         LDCT$=NK$LDCT$(DCB$->F$DCB.LDCTX);
      127     5243    1         IF LDCT$=ADDR(NIL) OR LDCT$->LDCT.RESCOD~=NK_TSTRM
      128     5244    1           OR LDCT$->LDCT.USER~=S_CUN OR LDCT$->LDCT.DFLG.OLDSC
      129     5245    1           THEN ALTRETURN;
      130     5246    1         LDCT$->NK$LDCT.DCBNO=%M$UC#;
      131     5247    1         DCB$->F$DCB.WIDTH=DCB$->F$DCB.RECL;
      132     5248    1         DCB$->F$DCB.RECL=0;
      133     5249              %LOCK (G=LDCT$->LDCT.LOCK);
      134     5252    1         IF LDCT$->LDCT.RLCID.LDCTX = 0   /* Not connect yet */
      135     5253    2           THEN DO;
      136     5254    2           LDCT$->LDCT.LKFLG.REGGED = '1'B;
      137     5255    2           CALL SSR$REG(%SS_CW,LDCT$)
      138     5256    3             WHENALTRETURN DO;
      139     5257    3             ALTRETURN;
      140     5258    3           END;
PL6.E3A0      #002=NKU$UCOPN File=NKU$OCUC.:E05TSI                               WED 07/30/97 03:46 Page:21
      141     5259                %LOCK (G=LDCT$->LDCT.LOCK);
      142     5262    2           IF LDCT$->LDCT.RLCID.LDCTX = 0
      143     5263    3             THEN DO;
      144     5264    3             LDCT$->LDCT.DFLG.FEDN = '1'B;
      145     5265    3             LDCT$->LDCT.DFLG.OLDSC = '1'B;
      146     5266    3             CALL SSR$RUE(%SS_DISC,LDCT$->LDCT.USER);
      147     5267                  %UNLOCK (G=LDCT$->LDCT.LOCK);
      148     5270    3             RETURN;
      149     5271    3           END;
      150     5272    2         END;
      151     5273    1         CALL KIA$FCNOU (LDCT$->LDCT,%KV_VDO_FNC_OPNSSN_RQS,RWPARM);
      152     5274              %UNLOCK (G=LDCT$->LDCT.LOCK);
      153     5277    2         CALL KIA$DCLSTR (KIDM_CP,KIDM_USER) WHENALTRETURN DO;
      154     5278    2           B$ROSEG$->B$ROSEG.LDEVNAME(KIDM_USER) = ' ';
      155     5279    2         END;
      156     5280    2         CALL KIA$DCLSTR (KIDM_CP,KIDM_DB) WHENALTRETURN DO;
      157     5281    2           B$ROSEG$->B$ROSEG.LDEVNAME(KIDM_DB) = ' ';
      158     5282    2         END;
      159     5283
      160     5284        /* Get the platen from the from end */
      161     5285    1         PLATEN = VLP_PLATEN;
      162     5286    1         B$JIT.DCB$->F$DCB.UB$ = ADDR(PLATEN);
      163     5287    1         B$JIT.DCB$->F$DCB.UBYTES = SIZEC(PLATEN);
      164     5288    1         CALL KIA$UCIO(MFC_RSTAT,0,PRMID,0);
      165     5289    1         CALL KIP$PLATEN(PLATEN);
      166     5290        /**/
      167     5291    1   END;
      168     5292        /**/
      169     5293        /**/
      170     5294        %EOD;

PL6.E3A0      #002=NKU$UCOPN File=NKU$OCUC.:E05TSI                               WED 07/30/97 03:46 Page:22
--  Include file information  --

   KI_SUBS_C.:E05TOU  is referenced.
   SS_SCHED_C.:E05TOU  is referenced.
   HF_LOCK_C.:E05TOU  cannot be made into a system file and is referenced.
   K$RWPARM.:E05TOU  is referenced.
   NK_SUBS.:E05TOU  is referenced.
   KI_CP6.:E05TOU  is referenced.
   F_FPTCODE_C.:E05TOU  is referenced.
   KV_PRMID_E.:E05TOU  is referenced.
   KV$VDO.:E05TOU  is referenced.
   NK_LDCT_R.:E05TOU  cannot be made into a system file and is referenced.
   NK$LDCT.:E05TOU  is referenced.
   F$DCB.:E05TOU  cannot be made into a system file and is referenced.
   CP_6_SUBS.:E05TOU  is referenced.
   B$ROSEG.:E05TOU  cannot be made into a system file and is referenced.
   B$JIT_C.:E05TOU  is referenced.
      No diagnostics issued in procedure NKU$UCOPN.

   Procedure NKU$UCOPN requires 140 words for executable code.
   Procedure NKU$UCOPN requires 54 words of local(AUTO) storage.

PL6.E3A0      #002=NKU$UCOPN File=NKU$OCUC.:E05TSI                               WED 07/30/97 03:46 Page:23

 Object Unit name= NKU$UCOPN                                  File name= NKU$OCUC.:E05TOU
 UTS= JUL 30 '97 03:46:01.32 WED                              Compiler= PL-6/E31         Sev=      00
 SharedLib= :SHARED_SYSTEM                                    Alt SharedLib=


    ****  Control sections  ****

 Sect   Type Bound  Init  Size OctSiz  Section name(segment info)
    0  RoData even  UTS      5      5  NKU$UCOPN
    1   Proc  even  none   140    214  NKU$UCOPN
    2  RoData even  none    15     17  NKU$UCOPN

    ****  Entry defs  ****

                              Check   Calling
                             calling  sequence
  Sect OctLoc Primary Altret sequence   type   Parms  Name
     1      0   yes    yes     yes      Std        0  NKU$UCOPN

  ****  Entry refs  ****

         Check        Calling
        calling       sequence
Altret sequence SRef   type   Args  Name
         yes           Std       1 HFC$LOCK
 yes     yes           Std       3 SSR$REG
         yes           Std       1 HFC$UNLOCK
 yes     yes           Std       5 KIA$UCIO
 yes     yes           Std       3 KIA$FCNOU
         yes           Std       4 SSR$RUE
 yes     yes           Std       2 KIA$DCLSTR
         yes           Std       1 KIP$PLATEN
                       nStd      0 X66_AUTO_0
                       Std       0 B_CONSPOOL_D
                       nStd      0 X66_AALT
                       nStd      0 X66_ARET
PL6.E3A0      #002=NKU$UCOPN File=NKU$OCUC.:E05TSI                               WED 07/30/97 03:46 Page:24

  ****  Data refs  ****

  Flags:  r = read only, s = secondary
Flgs Name                             Flgs Name                             Flgs Name
     N$DCT$$                               B$JIT$                                B$ROSEG$
     S_CUN                                 K_RWPARM_CON                          B_VECTNIL

  ****  Segment refs  ****

  Flags:  r = read only, s = secondary
Flgs Name                             Flgs Name                             Flgs Name
     ISSID
PL6.E3A0      #002=NKU$UCOPN File=NKU$OCUC.:E05TSI                               WED 07/30/97 03:46 Page:25


       67        1        /*T***********************************************************/
       68        2        /*T*                                                         */
       69        3        /*T* Copyright (c) Bull HN Information Systems Inc., 1997    */
       70        4        /*T*                                                         */
       71        5        /*T***********************************************************/
       72        6        /**/
       73        7        /**/
       74        8        NKU$UCOPN: PROC ALTRET;

      8  1 000000   000000 700200 xent  NKU$UCOPN    TSX0  ! X66_AUTO_0
         1 000001   000066 000000                    ZERO    54,0

       75        9        /**/
       76       10        /**/
       77       11        %INCLUDE B$JIT_C;
       78      325        %B$JIT0;
       79      414        %U$JIT1X;
       80      417        %M$JIT2X;
       81      420        %F$JIT3;
       82      425        %A$JIT6X;
       83      428        %INCLUDE B$ROSEG;
       84      491        %INCLUDE CP_6_SUBS;
       85     1031        %INCLUDE F$DCB;
       86     1080        %INCLUDE NK$LDCT;
       87     1182        %INCLUDE NK_LDCT_R;
       88     1191        %INCLUDE KV$VDO;
       89     2206        %KV_VDO_E;
       90     2242        %INCLUDE KV_PRMID_E;
       91     2416        %KV_PRMID_E;
       92     2572        %INCLUDE F_FPTCODE_C;
       93     2608        %INCLUDE KI_CP6;
       94     3704        %INCLUDE NK_SUBS;
       95     3729        %INCLUDE K$RWPARM;
       96     4115        %INCLUDE HF_LOCK_C;
       97     4129        %INCLUDE SS_SCHED_C;
       98     4362        %INCLUDE KI_SUBS_C;
PL6.E3A0      #002=NKU$UCOPN File=NKU$OCUC.:E05TSI                               WED 07/30/97 03:46 Page:26
       99     4498
      100     4499        /**/
      101     4500        %NK$LDCT;
      102     4546        /**/
      103     4547    1   DCL LDCT$ PTR;
      104     4548    1   DCL DCB$ PTR;
      105     4549    1   DCL B$JIT$ PTR SYMREF;
      106     4550    1   DCL B$ROSEG$ PTR SYMREF;
      107     4551    1   DCL S_CUN UBIN(36) SYMREF;
      108     4552        %K$RWPARM (NAME=K_RWPARM_CON, STCLASS=SYMREF);
      109     4868        %K$RWPARM (NAME=RWPARM,STCLASS=AUTO);
      110     5184        %VLP_PLATEN (FPTN=PLATEN,STCLASS=AUTO);
      111     5206        %VLP_PLATEN (STCLASS=CONSTANT);
      112     5228    1   DCL PRMID UBIN BYTE CONSTANT INIT(%KV_PRMID_PLATEN);
      113     5229
      114     5230        /* Symrefs */
      115     5231
      116     5232    1   DCL KIA$FCNOU ENTRY(3) ALTRET;
      117     5233    1   DCL KIA$DCLSTR ENTRY(2) ALTRET;
      118     5234    1   DCL KIA$UCIO ENTRY(5) ALTRET;
      119     5235    1   DCL KIP$PLATEN ENTRY(1);
      120     5236    1   DCL SSR$REG ENTRY(3) ALTRET;
      121     5237    1   DCL SSR$RUE ENTRY(4);
      122     5238    1         RWPARM = K_RWPARM_CON;

   5238  1 000002   000100 100400                    MLR     fill='000'O
         1 000003   000000 000234 xsym               ADSC9   K_RWPARM_CON             cn=0,n=156
         1 000004   200006 000234                    ADSC9   RWPARM,,AUTO             cn=0,n=156

      123     5239        /**/
      124     5240        /**/
      125     5241    1         DCB$=B$JIT.DCB$;

   5241  1 000005   000000 470400 xsym               LDP0    B$JIT$
         1 000006   000232 236100                    LDQ     154,,PR0
         1 000007   200004 756100                    STQ     DCB$,,AUTO

PL6.E3A0      #002=NKU$UCOPN File=NKU$OCUC.:E05TSI                               WED 07/30/97 03:46 Page:27
      126     5242    1         LDCT$=NK$LDCT$(DCB$->F$DCB.LDCTX);

   5242  1 000010   200004 471500                    LDP1    DCB$,,AUTO
         1 000011   100051 220100                    LDX0    41,,PR1
         1 000012   000000 473400 xsym               LDP3    N$DCT$$
         1 000013   300000 236110                    LDQ     0,X0,PR3
         1 000014   200003 756100                    STQ     LDCT$,,AUTO

      127     5243    1         IF LDCT$=ADDR(NIL) OR LDCT$->LDCT.RESCOD~=NK_TSTRM

   5243  1 000015   000001 116000 xsym               CMPQ    B_VECTNIL+1
         1 000016   000034 600000 1                  TZE     s:5245
         1 000017   200003 474500                    LDP4    LDCT$,,AUTO
         1 000020   400006 236100                    LDQ     6,,PR4
         1 000021   000017 376007                    ANQ     15,DL
         1 000022   000001 116007                    CMPQ    1,DL
         1 000023   000034 601000 1                  TNZ     s:5245
         1 000024   400007 236100                    LDQ     7,,PR4
         1 000025   000022 772000                    QRL     18
         1 000026   000777 376007                    ANQ     511,DL
         1 000027   000000 116000 xsym               CMPQ    S_CUN
         1 000030   000034 601000 1                  TNZ     s:5245
         1 000031   400006 236100                    LDQ     6,,PR4
         1 000032   010000 316007                    CANQ    4096,DL
         1 000033   000035 600000 1                  TZE     s:5246

      128     5244    1           OR LDCT$->LDCT.USER~=S_CUN OR LDCT$->LDCT.DFLG.OLDSC
      129     5245    1           THEN ALTRETURN;

   5245  1 000034   000000 702200 xent               TSX2  ! X66_AALT

      130     5246    1         LDCT$->NK$LDCT.DCBNO=%M$UC#;

   5246  1 000035   000003 236007                    LDQ     3,DL
         1 000036   400014 552104                    STBQ    12,'04'O,PR4

      131     5247    1         DCB$->F$DCB.WIDTH=DCB$->F$DCB.RECL;
PL6.E3A0      #002=NKU$UCOPN File=NKU$OCUC.:E05TSI                               WED 07/30/97 03:46 Page:28

   5247  1 000037   100033 236100                    LDQ     27,,PR1
         1 000040   100004 552104                    STBQ    4,'04'O,PR1

      132     5248    1         DCB$->F$DCB.RECL=0;

   5248  1 000041   000000 220003                    LDX0    0,DU
         1 000042   100033 440100                    SXL0    27,,PR1

      133     5249              %LOCK (G=LDCT$->LDCT.LOCK);

   5250  1 000043   200003 236100                    LDQ     LDCT$,,AUTO
         1 000044   000020 036003                    ADLQ    16,DU
         1 000045   200062 756100                    STQ     PLATEN+4,,AUTO
         1 000046   200062 630500                    EPPR0   PLATEN+4,,AUTO
         1 000047   000017 631400 xsym               EPPR1   B_VECTNIL+15
         1 000050   000000 701000 xent               TSX1    HFC$LOCK
         1 000051   000000 011000                    NOP     0

      134     5252    1         IF LDCT$->LDCT.RLCID.LDCTX = 0   /* Not connect yet */

   5252  1 000052   200003 470500                    LDP0    LDCT$,,AUTO
         1 000053   000015 720100                    LXL0    13,,PR0
         1 000054   000127 601000 1                  TNZ     s:5273

      135     5253    2           THEN DO;

      136     5254    2           LDCT$->LDCT.LKFLG.REGGED = '1'B;

   5254  1 000055   100000 236003                    LDQ     32768,DU
         1 000056   000011 256100                    ORSQ    9,,PR0

      137     5255    2           CALL SSR$REG(%SS_CW,LDCT$)

   5255  1 000057   200003 631500                    EPPR1   LDCT$,,AUTO
         1 000060   200063 451500                    STP1    PLATEN+5,,AUTO
         1 000061   000001 236000 2                  LDQ     1
PL6.E3A0      #002=NKU$UCOPN File=NKU$OCUC.:E05TSI                               WED 07/30/97 03:46 Page:29
         1 000062   200062 756100                    STQ     PLATEN+4,,AUTO
         1 000063   200062 630500                    EPPR0   PLATEN+4,,AUTO
         1 000064   000020 631400 xsym               EPPR1   B_VECTNIL+16
         1 000065   000000 701000 xent               TSX1    SSR$REG
         1 000066   000070 702000 1                  TSX2    s:5257
         1 000067   000071 710000 1                  TRA     s:5260

      138     5256    3             WHENALTRETURN DO;

      139     5257    3             ALTRETURN;

   5257  1 000070   000000 702200 xent               TSX2  ! X66_AALT

      140     5258    3           END;
      141     5259                %LOCK (G=LDCT$->LDCT.LOCK);

   5260  1 000071   200003 236100                    LDQ     LDCT$,,AUTO
         1 000072   000020 036003                    ADLQ    16,DU
         1 000073   200062 756100                    STQ     PLATEN+4,,AUTO
         1 000074   200062 630500                    EPPR0   PLATEN+4,,AUTO
         1 000075   000017 631400 xsym               EPPR1   B_VECTNIL+15
         1 000076   000000 701000 xent               TSX1    HFC$LOCK
         1 000077   000000 011000                    NOP     0

      142     5262    2           IF LDCT$->LDCT.RLCID.LDCTX = 0

   5262  1 000100   200003 470500                    LDP0    LDCT$,,AUTO
         1 000101   000015 720100                    LXL0    13,,PR0
         1 000102   000127 601000 1                  TNZ     s:5273

      143     5263    3             THEN DO;

      144     5264    3             LDCT$->LDCT.DFLG.FEDN = '1'B;

   5264  1 000103   000020 236007                    LDQ     16,DL
         1 000104   000006 256100                    ORSQ    6,,PR0

PL6.E3A0      #002=NKU$UCOPN File=NKU$OCUC.:E05TSI                               WED 07/30/97 03:46 Page:30
      145     5265    3             LDCT$->LDCT.DFLG.OLDSC = '1'B;

   5265  1 000105   010000 236007                    LDQ     4096,DL
         1 000106   000006 256100                    ORSQ    6,,PR0

      146     5266    3             CALL SSR$RUE(%SS_DISC,LDCT$->LDCT.USER);

   5266  1 000107   200003 236100                    LDQ     LDCT$,,AUTO
         1 000110   000003 036000 2                  ADLQ    3
         1 000111   000004 235000 2                  LDA     4
         1 000112   200062 757100                    STAQ    PLATEN+4,,AUTO
         1 000113   200062 630500                    EPPR0   PLATEN+4,,AUTO
         1 000114   000020 631400 xsym               EPPR1   B_VECTNIL+16
         1 000115   000000 701000 xent               TSX1    SSR$RUE
         1 000116   000000 011000                    NOP     0

      147     5267                  %UNLOCK (G=LDCT$->LDCT.LOCK);

   5268  1 000117   200003 236100                    LDQ     LDCT$,,AUTO
         1 000120   000020 036003                    ADLQ    16,DU
         1 000121   200062 756100                    STQ     PLATEN+4,,AUTO
         1 000122   200062 630500                    EPPR0   PLATEN+4,,AUTO
         1 000123   000017 631400 xsym               EPPR1   B_VECTNIL+15
         1 000124   000000 701000 xent               TSX1    HFC$UNLOCK
         1 000125   000000 011000                    NOP     0

      148     5270    3             RETURN;

   5270  1 000126   000000 702200 xent               TSX2  ! X66_ARET

      149     5271    3           END;
      150     5272    2         END;
      151     5273    1         CALL KIA$FCNOU (LDCT$->LDCT,%KV_VDO_FNC_OPNSSN_RQS,RWPARM);

   5273  1 000127   200006 631500                    EPPR1   RWPARM,,AUTO
         1 000130   200064 451500                    STP1    PLATEN+6,,AUTO
         1 000131   000006 236000 2                  LDQ     6
PL6.E3A0      #002=NKU$UCOPN File=NKU$OCUC.:E05TSI                               WED 07/30/97 03:46 Page:31
         1 000132   200003 235100                    LDA     LDCT$,,AUTO
         1 000133   200062 757100                    STAQ    PLATEN+4,,AUTO
         1 000134   200062 630500                    EPPR0   PLATEN+4,,AUTO
         1 000135   000021 631400 xsym               EPPR1   B_VECTNIL+17
         1 000136   000000 701000 xent               TSX1    KIA$FCNOU
         1 000137   000000 011000                    NOP     0

      152     5274              %UNLOCK (G=LDCT$->LDCT.LOCK);

   5275  1 000140   200003 236100                    LDQ     LDCT$,,AUTO
         1 000141   000020 036003                    ADLQ    16,DU
         1 000142   200062 756100                    STQ     PLATEN+4,,AUTO
         1 000143   200062 630500                    EPPR0   PLATEN+4,,AUTO
         1 000144   000017 631400 xsym               EPPR1   B_VECTNIL+15
         1 000145   000000 701000 xent               TSX1    HFC$UNLOCK
         1 000146   000000 011000                    NOP     0

      153     5277    2         CALL KIA$DCLSTR (KIDM_CP,KIDM_USER) WHENALTRETURN DO;

   5277  1 000147   000007 630400 2                  EPPR0   7
         1 000150   000020 631400 xsym               EPPR1   B_VECTNIL+16
         1 000151   000000 701000 xent               TSX1    KIA$DCLSTR
         1 000152   000154 702000 1                  TSX2    s:5278
         1 000153   000157 710000 1                  TRA     s:5280

      154     5278    2           B$ROSEG$->B$ROSEG.LDEVNAME(KIDM_USER) = ' ';

   5278  1 000154   000035 236000 xsym               LDQ     B_VECTNIL+29
         1 000155   000000 470400 xsym               LDP0    B$ROSEG$
         1 000156   000056 756100                    STQ     46,,PR0

      155     5279    2         END;

      156     5280    2         CALL KIA$DCLSTR (KIDM_CP,KIDM_DB) WHENALTRETURN DO;

   5280  1 000157   000011 630400 2                  EPPR0   9
         1 000160   000020 631400 xsym               EPPR1   B_VECTNIL+16
PL6.E3A0      #002=NKU$UCOPN File=NKU$OCUC.:E05TSI                               WED 07/30/97 03:46 Page:32
         1 000161   000000 701000 xent               TSX1    KIA$DCLSTR
         1 000162   000164 702000 1                  TSX2    s:5281
         1 000163   000167 710000 1                  TRA     s:5285

      157     5281    2           B$ROSEG$->B$ROSEG.LDEVNAME(KIDM_DB) = ' ';

   5281  1 000164   000035 236000 xsym               LDQ     B_VECTNIL+29
         1 000165   000000 470400 xsym               LDP0    B$ROSEG$
         1 000166   000057 756100                    STQ     47,,PR0

      158     5282    2         END;

      159     5283
      160     5284        /* Get the platen from the from end */
      161     5285    1         PLATEN = VLP_PLATEN;

   5285  1 000167   000100 100400                    MLR     fill='000'O
         1 000170   000000 000020 0                  ADSC9   VLP_PLATEN               cn=0,n=16
         1 000171   200056 000020                    ADSC9   PLATEN,,AUTO             cn=0,n=16

      162     5286    1         B$JIT.DCB$->F$DCB.UB$ = ADDR(PLATEN);

   5286  1 000172   000000 470400 xsym               LDP0    B$JIT$
         1 000173   000232 471500                    LDP1    154,,PR0
         1 000174   200056 633500                    EPPR3   PLATEN,,AUTO
         1 000175   100075 453500                    STP3    61,,PR1

      163     5287    1         B$JIT.DCB$->F$DCB.UBYTES = SIZEC(PLATEN);

   5287  1 000176   000232 471500                    LDP1    154,,PR0
         1 000177   000020 235007                    LDA     16,DL
         1 000200   100076 755100                    STA     62,,PR1

      164     5288    1         CALL KIA$UCIO(MFC_RSTAT,0,PRMID,0);

   5288  1 000201   000013 630400 2                  EPPR0   11
         1 000202   000022 631400 xsym               EPPR1   B_VECTNIL+18
PL6.E3A0      #002=NKU$UCOPN File=NKU$OCUC.:E05TSI                               WED 07/30/97 03:46 Page:33
         1 000203   000000 701000 xent               TSX1    KIA$UCIO
         1 000204   000000 011000                    NOP     0

      165     5289    1         CALL KIP$PLATEN(PLATEN);

   5289  1 000205   200056 630500                    EPPR0   PLATEN,,AUTO
         1 000206   200062 450500                    STP0    PLATEN+4,,AUTO
         1 000207   200062 630500                    EPPR0   PLATEN+4,,AUTO
         1 000210   000017 631400 xsym               EPPR1   B_VECTNIL+15
         1 000211   000000 701000 xent               TSX1    KIP$PLATEN
         1 000212   000000 011000                    NOP     0

      166     5290        /**/
      167     5291    1   END;

   5291  1 000213   000000 702200 xent               TSX2  ! X66_ARET

VLP_PLATEN
 Sect OctLoc
   0     000   377377 377377   000377 000000   000000 000000   000000 000000    ................

PRMID
 Sect OctLoc
   0     004   010*** ******                                                    ....

(unnamed)
 Sect OctLoc
   2     000   000000 000047   000000 006000   000000 000024   000007 200000    ...'............
   2     004   000002 006000   000000 000020   000005 006000   000003 006000    ................
   2     010   000004 006000   000003 006000   000005 006000   000013 006000    ................
   2     014   000002 006000   000004 006000   000002 006000                    ............
      168     5292        /**/
      169     5293        /**/
      170     5294        %EOD;

PL6.E3A0      #002=NKU$UCOPN File=NKU$OCUC.:E05TSI                               WED 07/30/97 03:46 Page:34
--  Include file information  --

   KI_SUBS_C.:E05TOU  is referenced.
   SS_SCHED_C.:E05TOU  is referenced.
   HF_LOCK_C.:E05TOU  cannot be made into a system file and is referenced.
   K$RWPARM.:E05TOU  is referenced.
   NK_SUBS.:E05TOU  is referenced.
   KI_CP6.:E05TOU  is referenced.
   F_FPTCODE_C.:E05TOU  is referenced.
   KV_PRMID_E.:E05TOU  is referenced.
   KV$VDO.:E05TOU  is referenced.
   NK_LDCT_R.:E05TOU  cannot be made into a system file and is referenced.
   NK$LDCT.:E05TOU  is referenced.
   F$DCB.:E05TOU  cannot be made into a system file and is referenced.
   CP_6_SUBS.:E05TOU  is referenced.
   B$ROSEG.:E05TOU  cannot be made into a system file and is referenced.
   B$JIT_C.:E05TOU  is referenced.
      No diagnostics issued in procedure NKU$UCOPN.
PL6.E3A0      #002=NKU$UCOPN File=NKU$OCUC.:E05TSI                               WED 07/30/97 03:46 Page:35

 **** Variables and constants ****

  ****  Section 000 RoData NKU$UCOPN

  ****  Scalars and arrays  ****
OctLoc.c.b A Datatyp(siz) R M Lvl/name                 OctLoc.c.b A Datatyp(siz) R M Lvl/name

     4-0-0/w UBIN(9)     r     1 PRMID                      0-0-0/d STRC(144)   r     1 VLP_PLATEN

  ****  Auto variables  ****

  ****  Scalars and arrays  ****
OctLoc.c.b A Datatyp(siz) R M Lvl/name                 OctLoc.c.b A Datatyp(siz) R M Lvl/name

     4-0-0/w PTR         r     1 DCB$                       3-0-0/w PTR         r     1 LDCT$
    56-0-0/d STRC(144)   r     1 PLATEN                     6-0-0/d STRC(1404)  r     1 RWPARM

  ****  SYMREF variables  ****

  ****  Scalars and arrays  ****
OctLoc.c.b A Datatyp(siz) R M Lvl/name                 OctLoc.c.b A Datatyp(siz) R M Lvl/name

     0-0-0/w PTR         r     1 B$JIT$                     0-0-0/w PTR         r     1 B$ROSEG$
     0-0-0/d STRC(1404)  r     1 K_RWPARM_CON               0-0-0/w PTR         r     1 N$DCT$$
     0-0-0/w UBIN        r     1 S_CUN

  ****  BASED and DCB variables  ****

  ****  Scalars and arrays  ****
OctLoc.c.b A Datatyp(siz) R M Lvl/name                 OctLoc.c.b A Datatyp(siz) R M Lvl/name

     0-0-0/d STRC(7560)  r     1 B$JIT                      0-0-0/d STRC(3024)  r     1 B$ROSEG
     0-0-0/d ASTR(3528)  r     1 F$DCB                      0-0-0/d STRC(864)   r     1 NK$LDCT
     0-0-0/w PTR         r     1 NK$LDCT$(0:0)

PL6.E3A0      #002=NKU$UCOPN File=NKU$OCUC.:E05TSI                               WED 07/30/97 03:46 Page:36

   Procedure NKU$UCOPN requires 140 words for executable code.
   Procedure NKU$UCOPN requires 54 words of local(AUTO) storage.
PL6.E3A0      #002=NKU$UCOPN File=NKU$OCUC.:E05TSI                               WED 07/30/97 03:46 Page:37
          *** CROSS REFERENCE LISTING ***
**     DENOTES     IDENTIFIER DEFINITION
<<                 IDENTIFIER'S VALUE SET
>>                 IDENTIFIER'S VALUE USED
<>                 IDENTIFIER SET AND/OR USED
--                 IDENTIFIER REFERENCED
PL6.E3A0      #002=NKU$UCOPN File=NKU$OCUC.:E05TSI                               WED 07/30/97 03:46 Page:38
          MINI XREF LISTING

B$JIT.DCB$
       421**DCL      5241>>ASSIGN   5286>>ASSIGN   5287>>ASSIGN
B$JIT.ERR.MID
       332**DCL       332--REDEF
B$JIT$
      4549**DCL       326--IMP-PTR  5241>>ASSIGN   5286>>ASSIGN   5287>>ASSIGN
B$ROSEG.LDEVNAME
       449**DCL      5278<<ASSIGN   5281<<ASSIGN
B$ROSEG$
      4550**DCL      5278>>ASSIGN   5281>>ASSIGN
DCB$
      4548**DCL      5241<<ASSIGN   5242>>ASSIGN   5247>>ASSIGN   5247>>ASSIGN   5248>>ASSIGN
F$DCB.ACTPOS
      1057**DCL      1057--REDEF
F$DCB.ARS
      1032**DCL      1032--REDEF
F$DCB.ATTR
      1050**DCL      1051--REDEF
F$DCB.BORROW
      1065**DCL      1065--REDEF    1065--REDEF    1065--REDEF
F$DCB.DCBNAME.L
      1079**DCL      1079--IMP-SIZ
F$DCB.EOMCHAR
      1036**DCL      1036--REDEF
F$DCB.FLDID
      1060**DCL      1060--REDEF
F$DCB.FORM$
      1054**DCL      1054--REDEF
F$DCB.FSECT
      1070**DCL      1070--REDEF
F$DCB.FSN
      1047**DCL      1047--REDEF    1047--REDEF    1048--REDEF
PL6.E3A0      #002=NKU$UCOPN File=NKU$OCUC.:E05TSI                               WED 07/30/97 03:46 Page:39
F$DCB.HEADER$
      1053**DCL      1053--REDEF
F$DCB.IXTNSIZE
      1051**DCL      1051--REDEF
F$DCB.LASTSTA$
      1041**DCL      1041--REDEF
F$DCB.LDCTX
      1054**DCL      5242>>ASSIGN
F$DCB.LVL
      1066**DCL      1066--REDEF
F$DCB.NAME.C
      1041**DCL      1041--REDEF
F$DCB.NOEOF
      1062**DCL      1062--REDEF
F$DCB.NRECS
      1052**DCL      1052--REDEF
F$DCB.NRECX
      1071**DCL      1071--REDEF
F$DCB.OHDR
      1063**DCL      1063--REDEF
F$DCB.ORG
      1046**DCL      1046--REDEF
F$DCB.PRECNO
      1069**DCL      1069--REDEF
F$DCB.RCSZ
      1074**DCL      1074--REDEF
F$DCB.RECL
      1047**DCL      5247>>ASSIGN   5248<<ASSIGN
F$DCB.RES
      1042**DCL      1042--REDEF
F$DCB.SETX
      1054**DCL      1054--REDEF
F$DCB.TAB$
      1053**DCL      1054--REDEF
F$DCB.TDA
      1068**DCL      1068--REDEF
PL6.E3A0      #002=NKU$UCOPN File=NKU$OCUC.:E05TSI                               WED 07/30/97 03:46 Page:40
F$DCB.UB$
      1070**DCL      5286<<ASSIGN
F$DCB.UBYTES
      1070**DCL      5287<<ASSIGN
F$DCB.WIDTH
      1039**DCL      5247<<ASSIGN
F$DCB.WSN
      1043**DCL      1043--REDEF
HFC$LOCK
      4128**DCL-ENT  5250--CALL     5260--CALL
HFC$UNLOCK
      4128**DCL-ENT  5268--CALL     5275--CALL
KIA$DCLSTR
      5233**DCL-ENT  5277--CALL     5280--CALL
KIA$FCNOU
      5232**DCL-ENT  5273--CALL
KIA$UCIO
      5234**DCL-ENT  5288--CALL
KIP$PLATEN
      5235**DCL-ENT  5289--CALL
K_RWPARM_CON
      4573**DCL      5238>>ASSIGN
K_RWPARM_CON.BLKREC
      4599**DCL      4624--REDEF
K_RWPARM_CON.BLKREC.BLKU#
      4600**DCL      4602--REDEF
K_RWPARM_CON.BLKREC.RECU#
      4612**DCL      4614--REDEF
K_RWPARM_CON.DVE.DVBYTE.VFC
      4639**DCL      4640--REDEF
K_RWPARM_CON.DVE.EOMCHAR
      4647**DCL      4651--REDEF
K_RWPARM_CON.ERR
      4711**DCL      4716--REDEF
K_RWPARM_CON.FC
      4675**DCL      4676--REDEF
PL6.E3A0      #002=NKU$UCOPN File=NKU$OCUC.:E05TSI                               WED 07/30/97 03:46 Page:41
K_RWPARM_CON.FLDID
      4857**DCL      4858--REDEF
K_RWPARM_CON.FPT$
      4738**DCL      4745--REDEF
K_RWPARM_CON.KEYTYPE
      4864**DCL      4865--REDEF
K_RWPARM_CON.MSG$
      4574**DCL      4580--REDEF
K_RWPARM_CON.MSGID
      4686**DCL      4691--REDEF
K_RWPARM_CON.MSGIDXT
      4699**DCL      4703--REDEF
K_RWPARM_CON.ORG
      4835**DCL      4836--REDEF
K_RWPARM_CON.THDRSZ
      4779**DCL      4783--REDEF
K_RWPARM_CON.VDOFLGS
      4837**DCL      4848--REDEF
LDCT$
      4547**DCL      5242<<ASSIGN   5243>>IF       5243>>IF       5243>>IF       5243>>IF       5246>>ASSIGN
      5250>>CALL     5252>>IF       5254>>ASSIGN   5255<>CALL     5260>>CALL     5262>>IF       5264>>ASSIGN
      5265>>ASSIGN   5266>>CALL     5268>>CALL     5273>>CALL     5275>>CALL
N$DCT$$
      1189**DCL      1189--IMP-PTR  5242>>ASSIGN
NK$LDCT
      4513**DCL      5273<>CALL
NK$LDCT.DCBNO
      4537**DCL      5246<<ASSIGN
NK$LDCT.DDT$
      4515**DCL      4515--REDEF
NK$LDCT.DFLG.FEDN
      4521**DCL      5264<<ASSIGN
NK$LDCT.DFLG.OLDSC
      4518**DCL      5243>>IF       5265<<ASSIGN
NK$LDCT.IOQ$
      4514**DCL      4515--REDEF
PL6.E3A0      #002=NKU$UCOPN File=NKU$OCUC.:E05TSI                               WED 07/30/97 03:46 Page:42
NK$LDCT.LDCTX
      4516**DCL      4516--REDEF
NK$LDCT.LKFLG.ABORTED
      4528**DCL      4529--REDEF
NK$LDCT.LKFLG.REGGED
      4529**DCL      5254<<ASSIGN
NK$LDCT.LOCK
      4541**DCL      5250<>CALL     5260<>CALL     5268<>CALL     5275<>CALL
NK$LDCT.RESCOD
      4521**DCL      5243>>IF
NK$LDCT.RLCID.LDCTX
      4538**DCL      4538--REDEF    5252>>IF       5262>>IF
NK$LDCT.STA$
      4534**DCL      4535--REDEF
NK$LDCT.SYMB$
      4513**DCL      4513--REDEF    4513--REDEF    4514--REDEF
NK$LDCT.USER
      4523**DCL      5243>>IF       5266<>CALL
NK$LDCT$
      1189**DCL      5242>>ASSIGN
PLATEN
      5201**DCL      5285<<ASSIGN   5286--ASSIGN   5287--ASSIGN   5289<>CALL
PRMID
      5228**DCL      5288<>CALL
RWPARM
      4889**DCL      5238<<ASSIGN   5273<>CALL
RWPARM.BLKREC
      4915**DCL      4940--REDEF
RWPARM.BLKREC.BLKU#
      4916**DCL      4918--REDEF
RWPARM.BLKREC.RECU#
      4928**DCL      4930--REDEF
RWPARM.DVE.DVBYTE.VFC
      4955**DCL      4956--REDEF
RWPARM.DVE.EOMCHAR
      4963**DCL      4967--REDEF
PL6.E3A0      #002=NKU$UCOPN File=NKU$OCUC.:E05TSI                               WED 07/30/97 03:46 Page:43
RWPARM.ERR
      5027**DCL      5032--REDEF
RWPARM.FC
      4991**DCL      4992--REDEF
RWPARM.FLDID
      5173**DCL      5174--REDEF
RWPARM.FPT$
      5054**DCL      5061--REDEF
RWPARM.KEYTYPE
      5180**DCL      5181--REDEF
RWPARM.MSG$
      4890**DCL      4896--REDEF
RWPARM.MSGID
      5002**DCL      5007--REDEF
RWPARM.MSGIDXT
      5015**DCL      5019--REDEF
RWPARM.ORG
      5151**DCL      5152--REDEF
RWPARM.THDRSZ
      5095**DCL      5099--REDEF
RWPARM.VDOFLGS
      5153**DCL      5164--REDEF
SSR$REG
      5236**DCL-ENT  5255--CALL
SSR$RUE
      5237**DCL-ENT  5266--CALL
S_CUN
      4551**DCL      5243>>IF
VLP_PLATEN
      5223**DCL      5285>>ASSIGN

PL6.E3A0      #003=NKU$DRQ File=NKU$OCUC.:E05TSI                                 WED 07/30/97 03:46 Page:44
      171        1        /*T***********************************************************/
      172        2        /*T*                                                         */
      173        3        /*T* Copyright (c) Bull HN Information Systems Inc., 1997    */
      174        4        /*T*                                                         */
      175        5        /*T***********************************************************/
      176        6        /**/
      177        7        /**/
      178        8        NKU$DRQ: PROC ALTRET;
      179        9        /**/
      180       10        /**/
      181       11        %PLIST;
      182       12        %INCLUDE F$DCB;
      183       61        %INCLUDE B$JIT_C;
      184      375        %B$JIT0;
      185      464        %A$JIT6X;
      186      467        %INCLUDE NK_LDCT_R;
      187      476        %INCLUDE CP_6_SUBS;
      188     1016        %INCLUDE NK_SUBS;
      189     1041        %INCLUDE SS_SCHED_C;
      190     1274        %INCLUDE KV$VDO;
      191     2289        %INCLUDE NK$LDCT;
      192     2391        %INCLUDE HF_LOCK_C;
      193     2405        %KV_VDO_E;
      194     2441        /**/
      195     2442        %NK$LDCT;
      196     2488        /**/
      197     2489    1   DCL B$JIT$ PTR SYMREF;
      198     2490    1   DCL LDCT$ PTR;
      199     2491    1   DCL SSR$RUE ENTRY(4);
      200     2492    1   DCL KIA$FCNOU ENTRY(3) ALTRET;
      201     2493        /**/
      202     2494        /**/
      203     2495    1         IF B$JIT$->B$JIT.MODE~=%M_INT# OR DCBADDR(%M$UC#)->F$DCB.ASN~=%DEVICE# THEN
              2495                  ALTRETURN;
      204     2496    1         LDCT$=NK$LDCT$(DCBADDR(%M$UC#)->F$DCB.LDCTX);
      205     2497    1         IF LDCT$->LDCT.DFLG.OLDSC THEN RETURN;
      206     2498    1         LDCT$->LDCT.DFLG.OLDSC = '1'B;
PL6.E3A0      #003=NKU$DRQ File=NKU$OCUC.:E05TSI                                 WED 07/30/97 03:46 Page:45
      207     2499    1         CALL SSR$RUE (%SS_DISC);
      208     2500    1   ARTN: ;
      209     2501    1         ALTRETURN;
      210     2502        /**/
      211     2503    1   END;
      212     2504        /**/
      213     2505        /**/

PL6.E3A0      #003=NKU$DRQ File=NKU$OCUC.:E05TSI                                 WED 07/30/97 03:46 Page:46
--  Include file information  --

   HF_LOCK_C.:E05TOU  cannot be made into a system file and is referenced.
   NK$LDCT.:E05TOU  is referenced.
   KV$VDO.:E05TOU  is referenced.
   SS_SCHED_C.:E05TOU  is referenced.
   NK_SUBS.:E05TOU  is referenced.
   CP_6_SUBS.:E05TOU  is referenced.
   NK_LDCT_R.:E05TOU  cannot be made into a system file and is referenced.
   B$JIT_C.:E05TOU  is referenced.
   F$DCB.:E05TOU  cannot be made into a system file and is referenced.
      No diagnostics issued in procedure NKU$DRQ.

   Procedure NKU$DRQ requires 31 words for executable code.
   Procedure NKU$DRQ requires 4 words of local(AUTO) storage.

    No errors detected in file NKU$OCUC.:E05TSI    .

PL6.E3A0      #003=NKU$DRQ File=NKU$OCUC.:E05TSI                                 WED 07/30/97 03:46 Page:47

 Object Unit name= NKU$DRQ                                    File name= NKU$OCUC.:E05TOU
 UTS= JUL 30 '97 03:46:32.28 WED                              Compiler= PL-6/E31         Sev=      00
 SharedLib= :SHARED_SYSTEM                                    Alt SharedLib=


    ****  Control sections  ****

 Sect   Type Bound  Init  Size OctSiz  Section name(segment info)
    0   Proc  even  none    31     37  NKU$DRQ
    1  RoData even  none     3      3  NKU$DRQ

    ****  Entry defs  ****

                              Check   Calling
                             calling  sequence
  Sect OctLoc Primary Altret sequence   type   Parms  Name
     0      0   yes    yes     yes      Std        0  NKU$DRQ

  ****  Entry refs  ****

         Check        Calling
        calling       sequence
Altret sequence SRef   type   Args  Name
         yes           Std       4 SSR$RUE
                       nStd      0 X66_AUTO_0
                       nStd      0 X66_AALT
                       nStd      0 X66_ARET
                       Std       0 B_CONSPOOL_D

  ****  Data refs  ****

  Flags:  r = read only, s = secondary
Flgs Name                             Flgs Name                             Flgs Name
     N$DCT$$                               B$JIT$                                B_VECTNIL
PL6.E3A0      #003=NKU$DRQ File=NKU$OCUC.:E05TSI                                 WED 07/30/97 03:46 Page:48

  ****  Segment refs  ****

  Flags:  r = read only, s = secondary
Flgs Name                             Flgs Name                             Flgs Name
     ROSID                                 ISSID
PL6.E3A0      #003=NKU$DRQ File=NKU$OCUC.:E05TSI                                 WED 07/30/97 03:46 Page:49


      171        1        /*T***********************************************************/
      172        2        /*T*                                                         */
      173        3        /*T* Copyright (c) Bull HN Information Systems Inc., 1997    */
      174        4        /*T*                                                         */
      175        5        /*T***********************************************************/
      176        6        /**/
      177        7        /**/
      178        8        NKU$DRQ: PROC ALTRET;

      8  0 000000   000000 700200 xent  NKU$DRQ      TSX0  ! X66_AUTO_0
         0 000001   000004 000000                    ZERO    4,0

      179        9        /**/
      180       10        /**/
      181       11        %PLIST;
      182       12        %INCLUDE F$DCB;
      183       61        %INCLUDE B$JIT_C;
      184      375        %B$JIT0;
      185      464        %A$JIT6X;
      186      467        %INCLUDE NK_LDCT_R;
      187      476        %INCLUDE CP_6_SUBS;
      188     1016        %INCLUDE NK_SUBS;
      189     1041        %INCLUDE SS_SCHED_C;
      190     1274        %INCLUDE KV$VDO;
      191     2289        %INCLUDE NK$LDCT;
      192     2391        %INCLUDE HF_LOCK_C;
      193     2405        %KV_VDO_E;
      194     2441        /**/
      195     2442        %NK$LDCT;
      196     2488        /**/
      197     2489    1   DCL B$JIT$ PTR SYMREF;
      198     2490    1   DCL LDCT$ PTR;
      199     2491    1   DCL SSR$RUE ENTRY(4);
      200     2492    1   DCL KIA$FCNOU ENTRY(3) ALTRET;
      201     2493        /**/
      202     2494        /**/
PL6.E3A0      #003=NKU$DRQ File=NKU$OCUC.:E05TSI                                 WED 07/30/97 03:46 Page:50
      203     2495    1         IF B$JIT$->B$JIT.MODE~=%M_INT# OR DCBADDR(%M$UC#)->F$DCB.ASN~=%DEVICE# THEN
              2495                  ALTRETURN;

   2495  0 000002   000000 470400 xsym               LDP0    B$JIT$
         0 000003   000000 236100                    LDQ     0,,PR0
         0 000004   740000 376003                    ANQ     -16384,DU
         0 000005   140000 116003                    CMPQ    49152,DU
         0 000006   000016 601000 0                  TNZ     s:2495+12
         0 000007   000000 471400 1                  LDP1    0
         0 000010   100000 473500                    LDP3    0,,PR1
         0 000011   300003 474500                    LDP4    3,,PR3
         0 000012   400032 236100                    LDQ     26,,PR4
         0 000013   777000 376007                    ANQ     -512,DL
         0 000014   003000 116007                    CMPQ    1536,DL
         0 000015   000017 600000 0                  TZE     s:2496

   2495  0 000016   000000 702200 xent               TSX2  ! X66_AALT

      204     2496    1         LDCT$=NK$LDCT$(DCBADDR(%M$UC#)->F$DCB.LDCTX);

   2496  0 000017   400051 220100                    LDX0    41,,PR4
         0 000020   000000 475400 xsym               LDP5    N$DCT$$
         0 000021   500000 236110                    LDQ     0,X0,PR5
         0 000022   200003 756100                    STQ     LDCT$,,AUTO

      205     2497    1         IF LDCT$->LDCT.DFLG.OLDSC THEN RETURN;

   2497  0 000023   200003 476500                    LDP6    LDCT$,,AUTO
         0 000024   600006 236100                    LDQ     6,,PR6
         0 000025   010000 316007                    CANQ    4096,DL
         0 000026   000030 600000 0                  TZE     s:2498

   2497  0 000027   000000 702200 xent               TSX2  ! X66_ARET

      206     2498    1         LDCT$->LDCT.DFLG.OLDSC = '1'B;

   2498  0 000030   010000 236007                    LDQ     4096,DL
PL6.E3A0      #003=NKU$DRQ File=NKU$OCUC.:E05TSI                                 WED 07/30/97 03:46 Page:51
         0 000031   600006 256100                    ORSQ    6,,PR6

      207     2499    1         CALL SSR$RUE (%SS_DISC);

   2499  0 000032   000002 630400 1                  EPPR0   2
         0 000033   000017 631400 xsym               EPPR1   B_VECTNIL+15
         0 000034   000000 701000 xent               TSX1    SSR$RUE
         0 000035   000000 011000                    NOP     0

   2498  0 000036                       ARTN         null
      208     2500    1   ARTN: ;
      209     2501    1         ALTRETURN;

   2501  0 000036   000000 702200 xent               TSX2  ! X66_AALT

(unnamed)
 Sect OctLoc
   1     000   000000 006003   000000 000024   000001 006000                    ............
      210     2502        /**/
      211     2503    1   END;
      212     2504        /**/
      213     2505        /**/

PL6.E3A0      #003=NKU$DRQ File=NKU$OCUC.:E05TSI                                 WED 07/30/97 03:46 Page:52
--  Include file information  --

   HF_LOCK_C.:E05TOU  cannot be made into a system file and is referenced.
   NK$LDCT.:E05TOU  is referenced.
   KV$VDO.:E05TOU  is referenced.
   SS_SCHED_C.:E05TOU  is referenced.
   NK_SUBS.:E05TOU  is referenced.
   CP_6_SUBS.:E05TOU  is referenced.
   NK_LDCT_R.:E05TOU  cannot be made into a system file and is referenced.
   B$JIT_C.:E05TOU  is referenced.
   F$DCB.:E05TOU  cannot be made into a system file and is referenced.
      No diagnostics issued in procedure NKU$DRQ.
PL6.E3A0      #003=NKU$DRQ File=NKU$OCUC.:E05TSI                                 WED 07/30/97 03:46 Page:53

 **** Variables and constants ****

  ****  Auto variables  ****

  ****  Scalars and arrays  ****
OctLoc.c.b A Datatyp(siz) R M Lvl/name                 OctLoc.c.b A Datatyp(siz) R M Lvl/name

     3-0-0/w PTR         r     1 LDCT$

  ****  SYMREF variables  ****

  ****  Scalars and arrays  ****
OctLoc.c.b A Datatyp(siz) R M Lvl/name                 OctLoc.c.b A Datatyp(siz) R M Lvl/name

     0-0-0/w PTR         r     1 B$JIT$                     0-0-0/w PTR         r     1 N$DCT$$

  ****  BASED and DCB variables  ****

  ****  Scalars and arrays  ****
OctLoc.c.b A Datatyp(siz) R M Lvl/name                 OctLoc.c.b A Datatyp(siz) R M Lvl/name

     0-0-0/d STRC(2088)  r     1 B$JIT                      0-0-0/d ASTR(3528)  r     1 F$DCB
     0-0-0/d STRC(864)   r     1 NK$LDCT
     0-0-0/w PTR         r     1 NK$LDCT$(0:0)


   Procedure NKU$DRQ requires 31 words for executable code.
   Procedure NKU$DRQ requires 4 words of local(AUTO) storage.

    No errors detected in file NKU$OCUC.:E05TSI    .
PL6.E3A0      #003=NKU$DRQ File=NKU$OCUC.:E05TSI                                 WED 07/30/97 03:46 Page:54
          *** CROSS REFERENCE LISTING ***
**     DENOTES     IDENTIFIER DEFINITION
<<                 IDENTIFIER'S VALUE SET
>>                 IDENTIFIER'S VALUE USED
<>                 IDENTIFIER SET AND/OR USED
--                 IDENTIFIER REFERENCED
PL6.E3A0      #003=NKU$DRQ File=NKU$OCUC.:E05TSI                                 WED 07/30/97 03:46 Page:55
          MINI XREF LISTING

B$JIT.ERR.MID
       382**DCL       382--REDEF
B$JIT.MODE
       376**DCL      2495>>IF
B$JIT$
      2489**DCL       376--IMP-PTR  2495>>IF
F$DCB.ACTPOS
        38**DCL        38--REDEF
F$DCB.ARS
        13**DCL        13--REDEF
F$DCB.ASN
        28**DCL      2495>>IF
F$DCB.ATTR
        31**DCL        32--REDEF
F$DCB.BORROW
        46**DCL        46--REDEF      46--REDEF      46--REDEF
F$DCB.DCBNAME.L
        60**DCL        60--IMP-SIZ
F$DCB.EOMCHAR
        17**DCL        17--REDEF
F$DCB.FLDID
        41**DCL        41--REDEF
F$DCB.FORM$
        35**DCL        35--REDEF
F$DCB.FSECT
        51**DCL        51--REDEF
F$DCB.FSN
        28**DCL        28--REDEF      28--REDEF      29--REDEF
F$DCB.HEADER$
        34**DCL        34--REDEF
F$DCB.IXTNSIZE
        32**DCL        32--REDEF
PL6.E3A0      #003=NKU$DRQ File=NKU$OCUC.:E05TSI                                 WED 07/30/97 03:46 Page:56
F$DCB.LASTSTA$
        22**DCL        22--REDEF
F$DCB.LDCTX
        35**DCL      2496>>ASSIGN
F$DCB.LVL
        47**DCL        47--REDEF
F$DCB.NAME.C
        22**DCL        22--REDEF
F$DCB.NOEOF
        43**DCL        43--REDEF
F$DCB.NRECS
        33**DCL        33--REDEF
F$DCB.NRECX
        52**DCL        52--REDEF
F$DCB.OHDR
        44**DCL        44--REDEF
F$DCB.ORG
        27**DCL        27--REDEF
F$DCB.PRECNO
        50**DCL        50--REDEF
F$DCB.RCSZ
        55**DCL        55--REDEF
F$DCB.RES
        23**DCL        23--REDEF
F$DCB.SETX
        35**DCL        35--REDEF
F$DCB.TAB$
        34**DCL        35--REDEF
F$DCB.TDA
        49**DCL        49--REDEF
F$DCB.WSN
        24**DCL        24--REDEF
LDCT$
      2490**DCL      2496<<ASSIGN   2497>>IF       2498>>ASSIGN
N$DCT$$
       474**DCL       474--IMP-PTR  2496>>ASSIGN
PL6.E3A0      #003=NKU$DRQ File=NKU$OCUC.:E05TSI                                 WED 07/30/97 03:46 Page:57
NK$LDCT.DDT$
      2457**DCL      2457--REDEF
NK$LDCT.DFLG.OLDSC
      2460**DCL      2497>>IF       2498<<ASSIGN
NK$LDCT.IOQ$
      2456**DCL      2457--REDEF
NK$LDCT.LDCTX
      2458**DCL      2458--REDEF
NK$LDCT.LKFLG.ABORTED
      2470**DCL      2471--REDEF
NK$LDCT.RLCID.LDCTX
      2480**DCL      2480--REDEF
NK$LDCT.STA$
      2476**DCL      2477--REDEF
NK$LDCT.SYMB$
      2455**DCL      2455--REDEF    2455--REDEF    2456--REDEF
NK$LDCT$
       474**DCL      2496>>ASSIGN
SSR$RUE
      2491**DCL-ENT  2499--CALL
