VERSION E05

PL6.E3A0      #001=NK_LDCT_D File=NK_LDCT_D.:E05TSI                              WED 07/30/97 03:45 Page:1
        1        1        /*M* NK_LDCT_D Data related to the LDCT tables*/
        2        2        /*T***********************************************************/
        3        3        /*T*                                                         */
        4        4        /*T* Copyright (c) Bull HN Information Systems Inc., 1997    */
        5        5        /*T*                                                         */
        6        6        /*T***********************************************************/
        7        7        /*X*DMC,PLM=6,IND=2,ENU=2,DCI=4,CSU=2,ECU=2,THI=2,DTI=0*/
        8        8        /**/
        9        9        /**/
       10       10        /**/
       11       11        NK_LDCT_D: PROC NOAUTO;
       12       12        /**/
       13       13        /**/
       14       14        %INCLUDE NK$LDCT;
       15      116        %INCLUDE B_SEGIDS_C;
       16      655        %INCLUDE JG_GHOSTS_C;
       17      745        %INCLUDE KI_SUBS_C;
       18      881        /**/
       19      882        %NK$LDCT (NAME=NK_NULDCT,STCLASS="CONSTANT SYMDEF");
       20      928        /**/
       21      929        /**/
       22      930    1   DCL NK_HLPUN UBIN(36) STATIC SYMDEF INIT(JG_SLUG#);
       23      931        /**/
       24      932        /**/
       25      933    1   DCL NK_FHD$ PTR STATIC SYMDEF INIT(ADDR(NIL));
       26      934    1   DCL NK_CUR UBIN WORD STATIC SYMDEF INIT(21);
       27      935    1   DCL NK_MXLOCAL UBIN(36) STATIC SYMDEF INIT(21);
       28      936    1   DCL NK_MXTOTAL UBIN(36) STATIC SYMDEF INIT(91);
       29      937    1   DCL NK_MONKLDX UBIN WORD STATIC SYMDEF INIT(0);
       30      938    1   DCL NK_RESUSLDX UBIN WORD STATIC SYMDEF INIT(0);
       31      939    1   DCL NK_RESUSLDX_HLP UBIN WORD STATIC SYMDEF INIT(0);
       32      940    1   DCL NK_BABOONLDX UBIN WORD STATIC SYMDEF INIT(0);
       33      941    1   DCL 1 NK_NDCT$ STATIC SYMDEF ALIGNED,
       34      942    1         2 OFFSET UBIN(24) UNAL INIT(0),
       35      943    1         2 SEGID BIT(12) UNAL INIT(%LDCTSID);
       36      944        /**/
       37      945        /**/
PL6.E3A0      #001=NK_LDCT_D File=NK_LDCT_D.:E05TSI                              WED 07/30/97 03:45 Page:2
       38      946    1   END;

PL6.E3A0      #001=NK_LDCT_D File=NK_LDCT_D.:E05TSI                              WED 07/30/97 03:45 Page:3
--  Include file information  --

   KI_SUBS_C.:E05TOU  is referenced.
   JG_GHOSTS_C.:E05TOU  is referenced.
   B_SEGIDS_C.:E05TOU  is referenced.
   NK$LDCT.:E05TOU  is referenced.
      No diagnostics issued in procedure NK_LDCT_D.

   No code generated for procedure NK_LDCT_D .
   Procedure NK_LDCT_D is declared NOAUTO and requires 12 words of local(STATIC) storage.

    No errors detected in file NK_LDCT_D.:E05TSI    .

PL6.E3A0      #001=NK_LDCT_D File=NK_LDCT_D.:E05TSI                              WED 07/30/97 03:45 Page:4

 Object Unit name= NK_LDCT_D                                  File name= NK_LDCT_D.:E05TOU
 UTS= JUL 30 '97 03:45:56.20 WED                              Compiler= PL-6/E31         Sev=      00
 SharedLib= :SHARED_SYSTEM                                    Alt SharedLib=


    ****  Control sections  ****

 Sect   Type Bound  Init  Size OctSiz  Section name(segment info)
    0   Data  even  none    12     14  NK_LDCT_D
    1  RoData even  UTS     24     30  NK_LDCT_D
    2   Proc  even  none     0      0  NK_LDCT_D

    ****  Entry defs  ****

                              Check   Calling
                             calling  sequence
  Sect OctLoc Primary Altret sequence   type   Parms  Name
     2      0   yes            yes     ~proc       0  NK_LDCT_D

  ****  Data defs  ****

 Sect OctLoc  Name                           Sect OctLoc  Name
    1      0  NK_NULDCT                          0      1  NK_HLPUN
    0      2  NK_FHD$                            0      3  NK_CUR
    0      4  NK_MXLOCAL                         0      5  NK_MXTOTAL
    0      6  NK_MONKLDX                         0      7  NK_RESUSLDX
    0     10  NK_RESUSLDX_HLP                    0     11  NK_BABOONLDX
    0     12  NK_NDCT$

  ****  Segment refs  ****

  Flags:  r = read only, s = secondary
Flgs Name                             Flgs Name                             Flgs Name
     NULLSID
PL6.E3A0      #001=NK_LDCT_D File=NK_LDCT_D.:E05TSI                              WED 07/30/97 03:45 Page:5


(unnamed)
 Sect OctLoc
   0     000   ****** ******   000000 000001   000000 006014   000000 000025    ................
   0     004   000000 000025   000000 000133   000000 000000   000000 000000    .......[........
   0     010   000000 000000   000000 000000   000000 006013   ****** ******    ................

(unnamed)
 Sect OctLoc
   1     000   000000 006014   000000 006014   040040 040040   040040 040040    ........
   1     004   000000 006014   000000 006014   000000 700000   000000 000000    ................
   1     010   000000 000000   200000 000000   000000 006014   000000 006014    ................
   1     014   000000 000000   000000 000000   000000 000000   000000 000000    ................
   1     020   400000 000000   000000 000000   000000 000000   000000 000000    ................
   1     024   040040 040040   040040 040040   000000 000000   000000 006014            ........
        1        1        /*M* NK_LDCT_D Data related to the LDCT tables*/
        2        2        /*T***********************************************************/
        3        3        /*T*                                                         */
        4        4        /*T* Copyright (c) Bull HN Information Systems Inc., 1997    */
        5        5        /*T*                                                         */
        6        6        /*T***********************************************************/
        7        7        /*X*DMC,PLM=6,IND=2,ENU=2,DCI=4,CSU=2,ECU=2,THI=2,DTI=0*/
        8        8        /**/
        9        9        /**/
       10       10        /**/
       11       11        NK_LDCT_D: PROC NOAUTO;
       12       12        /**/
       13       13        /**/
       14       14        %INCLUDE NK$LDCT;
       15      116        %INCLUDE B_SEGIDS_C;
       16      655        %INCLUDE JG_GHOSTS_C;
       17      745        %INCLUDE KI_SUBS_C;
       18      881        /**/
       19      882        %NK$LDCT (NAME=NK_NULDCT,STCLASS="CONSTANT SYMDEF");
       20      928        /**/
       21      929        /**/
       22      930    1   DCL NK_HLPUN UBIN(36) STATIC SYMDEF INIT(JG_SLUG#);
PL6.E3A0      #001=NK_LDCT_D File=NK_LDCT_D.:E05TSI                              WED 07/30/97 03:45 Page:6
       23      931        /**/
       24      932        /**/
       25      933    1   DCL NK_FHD$ PTR STATIC SYMDEF INIT(ADDR(NIL));
       26      934    1   DCL NK_CUR UBIN WORD STATIC SYMDEF INIT(21);
       27      935    1   DCL NK_MXLOCAL UBIN(36) STATIC SYMDEF INIT(21);
       28      936    1   DCL NK_MXTOTAL UBIN(36) STATIC SYMDEF INIT(91);
       29      937    1   DCL NK_MONKLDX UBIN WORD STATIC SYMDEF INIT(0);
       30      938    1   DCL NK_RESUSLDX UBIN WORD STATIC SYMDEF INIT(0);
       31      939    1   DCL NK_RESUSLDX_HLP UBIN WORD STATIC SYMDEF INIT(0);
       32      940    1   DCL NK_BABOONLDX UBIN WORD STATIC SYMDEF INIT(0);
       33      941    1   DCL 1 NK_NDCT$ STATIC SYMDEF ALIGNED,
       34      942    1         2 OFFSET UBIN(24) UNAL INIT(0),
       35      943    1         2 SEGID BIT(12) UNAL INIT(%LDCTSID);
       36      944        /**/
       37      945        /**/
       38      946    1   END;

PL6.E3A0      #001=NK_LDCT_D File=NK_LDCT_D.:E05TSI                              WED 07/30/97 03:45 Page:7
--  Include file information  --

   KI_SUBS_C.:E05TOU  is referenced.
   JG_GHOSTS_C.:E05TOU  is referenced.
   B_SEGIDS_C.:E05TOU  is referenced.
   NK$LDCT.:E05TOU  is referenced.
      No diagnostics issued in procedure NK_LDCT_D.
PL6.E3A0      #001=NK_LDCT_D File=NK_LDCT_D.:E05TSI                              WED 07/30/97 03:45 Page:8

 **** Variables and constants ****


   No code generated for procedure NK_LDCT_D .
   Procedure NK_LDCT_D is declared NOAUTO and requires 12 words of local(STATIC) storage.

    No errors detected in file NK_LDCT_D.:E05TSI    .
PL6.E3A0      #001=NK_LDCT_D File=NK_LDCT_D.:E05TSI                              WED 07/30/97 03:45 Page:9
          *** CROSS REFERENCE LISTING ***
**     DENOTES     IDENTIFIER DEFINITION
<<                 IDENTIFIER'S VALUE SET
>>                 IDENTIFIER'S VALUE USED
<>                 IDENTIFIER SET AND/OR USED
--                 IDENTIFIER REFERENCED
PL6.E3A0      #001=NK_LDCT_D File=NK_LDCT_D.:E05TSI                              WED 07/30/97 03:45 Page:10
          MINI XREF LISTING

NK_NULDCT.DDT$
       897**DCL       897--REDEF
NK_NULDCT.IOQ$
       896**DCL       897--REDEF
NK_NULDCT.LDCTX
       898**DCL       898--REDEF
NK_NULDCT.LKFLG.ABORTED
       910**DCL       911--REDEF
NK_NULDCT.RLCID.LDCTX
       920**DCL       920--REDEF
NK_NULDCT.STA$
       916**DCL       917--REDEF
NK_NULDCT.SYMB$
       895**DCL       895--REDEF     895--REDEF     896--REDEF
