VERSION E05

PL6.E3A0      #001=NK_URTBL_D File=NK_URTBL_D.:E05TSI                            WED 07/30/97 03:46 Page:1
        1        1        /*M* NK_URTBL_D Xlate tables for symbiont translations */
        2        2        /*T***********************************************************/
        3        3        /*T*                                                         */
        4        4        /*T* Copyright (c) Bull HN Information Systems Inc., 1997    */
        5        5        /*T*                                                         */
        6        6        /*T***********************************************************/
        7        7
        8        8
        9        9        NK_URTBL_D: PROC;
       10       10
       11       11
       12       12    1   DCL NK_NATLTBL (0:511) CHAR(1) CONSTANT SYMDEF
       13       13    1        INIT(
       14       14    1             ' '*9,BITASC('011'O),' '*23,
       15       15    1             '!','"','#','$','%','&','''','(',')',
       16       16    1             '*','+',',','-','.','/','0','1','2','3','4','5',
       17       17    1             '6','7','8','9',':',';','<','=','>','?','@','A',
       18       18    1             'B','C','D','E','F','G','H','I','J','K','L','M',
       19       19    1             'N','O','P','Q','R','S','T','U','V','W','X','Y',
       20       20    1             'Z','[','\',']','^','_','`','a','b','c','d','e',
       21       21    1             'f','g','h','i','j','k','l','m','n','o','p','q','r',
       22       22    1             's','t','u','v','w','x','y','z','{','|','}','~',' ',
       23       23    1             ' '*9,BITASC('011'O),' '*23,
       24       24    1             '!','"','#','$','%','&','''','(',')',
       25       25    1             '*','+',',','-','.','/','0','1','2','3','4','5',
       26       26    1             '6','7','8','9',':',';','<','=','>','?','@','A',
       27       27    1             'B','C','D','E','F','G','H','I','J','K','L','M',
       28       28    1             'N','O','P','Q','R','S','T','U','V','W','X','Y',
       29       29    1             'Z','[','\',']','^','_','`','a','b','c','d','e',
       30       30    1             'f','g','h','i','j','k','l','m','n','o','p','q','r',
       31       31    1             's','t','u','v','w','x','y','z','{','|','}','~',' ',
       32       32    1             ' '*9,BITASC('011'O),' '*23,
       33       33    1             '!','"','#','$','%','&','''','(',')',
       34       34    1             '*','+',',','-','.','/','0','1','2','3','4','5',
       35       35    1             '6','7','8','9',':',';','<','=','>','?','@','A',
       36       36    1             'B','C','D','E','F','G','H','I','J','K','L','M',
       37       37    1             'N','O','P','Q','R','S','T','U','V','W','X','Y',
PL6.E3A0      #001=NK_URTBL_D File=NK_URTBL_D.:E05TSI                            WED 07/30/97 03:46 Page:2
       38       38    1             'Z','[','\',']','^','_','`','a','b','c','d','e',
       39       39    1             'f','g','h','i','j','k','l','m','n','o','p','q','r',
       40       40    1             's','t','u','v','w','x','y','z','{','|','}','~',' ',
       41       41    1             ' '*9,BITASC('011'O),' '*23,
       42       42    1             '!','"','#','$','%','&','''','(',')',
       43       43    1             '*','+',',','-','.','/','0','1','2','3','4','5',
       44       44    1             '6','7','8','9',':',';','<','=','>','?','@','A',
       45       45    1             'B','C','D','E','F','G','H','I','J','K','L','M',
       46       46    1             'N','O','P','Q','R','S','T','U','V','W','X','Y',
       47       47    1             'Z','[','\',']','^','_','`','a','b','c','d','e',
       48       48    1             'f','g','h','i','j','k','l','m','n','o','p','q','r',
       49       49    1             's','t','u','v','w','x','y','z','{','|','}','~',' ');
       50       50
       51       51    1     DCL 1 NK_BLNKSUPTBL DALIGNED CONSTANT SYMDEF,
       52       52    1           2 C(0:511) UBIN BYTE UNAL INIT(
       53       53    1             1,1,2,3,4,5,6,7,8,9,10,11,12,13,14,15,
       54       54    1             16,17,18,19,20,21,22,23,24,25,26,27,28,29,30,
       55       55    1             31,0,33,34,35,36,37,38,39,40,41,42,43,44,45,
       56       56    1             46,47,48,49,50,51,52,53,54,55,56,57,58,59,60,
       57       57    1             61,62,63,64,65,66,67,68,69,70,71,72,73,74,75,
       58       58    1             76,77,78,79,80,81,82,83,84,85,86,87,88,89,90,
       59       59    1             91,92,93,94,95,96,97,98,99,100,101,102,103,104,105,
       60       60    1             106,107,108,109,110,111,112,113,114,115,116,117,118,119,120,
       61       61    1             121,122,123,124,125,126,127,128,129,130,131,132,133,134,135,
       62       62    1             136,137,138,139,140,141,142,143,144,145,146,147,148,149,150,
       63       63    1             151,152,153,154,155,156,157,158,159,160,161,162,163,164,165,
       64       64    1             166,167,168,169,170,171,172,173,174,175,176,177,178,179,180,
       65       65    1             181,182,183,184,185,186,187,188,189,190,191,192,193,194,195,
       66       66    1             196,197,198,199,200,201,202,203,204,205,206,207,208,209,210,
       67       67    1             211,212,213,214,215,216,217,218,219,220,221,222,223,224,225,
       68       68    1             226,227,228,229,230,231,232,233,234,235,236,237,238,239,240,
       69       69    1             241,242,243,244,245,246,247,248,249,250,251,252,253,254,255,
       70       70    1             1,1,2,3,4,5,6,7,8,9,10,11,12,13,14,15,
       71       71    1             16,17,18,19,20,21,22,23,24,25,26,27,28,29,30,
       72       72    1             31,32,33,34,35,36,37,38,39,40,41,42,43,44,45,
       73       73    1             46,47,48,49,50,51,52,53,54,55,56,57,58,59,60,
       74       74    1             61,62,63,64,65,66,67,68,69,70,71,72,73,74,75,
PL6.E3A0      #001=NK_URTBL_D File=NK_URTBL_D.:E05TSI                            WED 07/30/97 03:46 Page:3
       75       75    1             76,77,78,79,80,81,82,83,84,85,86,87,88,89,90,
       76       76    1             91,92,93,94,95,96,97,98,99,100,101,102,103,104,105,
       77       77    1             106,107,108,109,110,111,112,113,114,115,116,117,118,119,120,
       78       78    1             121,122,123,124,125,126,127,128,129,130,131,132,133,134,135,
       79       79    1             136,137,138,139,140,141,142,143,144,145,146,147,148,149,150,
       80       80    1             151,152,153,154,155,156,157,158,159,160,161,162,163,164,165,
       81       81    1             166,167,168,169,170,171,172,173,174,175,176,177,178,179,180,
       82       82    1             181,182,183,184,185,186,187,188,189,190,191,192,193,194,195,
       83       83    1             196,197,198,199,200,201,202,203,204,205,206,207,208,209,210,
       84       84    1             211,212,213,214,215,216,217,218,219,220,221,222,223,224,225,
       85       85    1             226,227,228,229,230,231,232,233,234,235,236,237,238,239,240,
       86       86    1             241,242,243,244,245,246,247,248,249,250,251,252,253,254,255);
       87       87
       88       88    1   END NK_URTBL_D;

PL6.E3A0      #001=NK_URTBL_D File=NK_URTBL_D.:E05TSI                            WED 07/30/97 03:46 Page:4
      No diagnostics issued in procedure NK_URTBL_D.

   No code generated for procedure NK_URTBL_D .
   Procedure NK_URTBL_D requires 4 words of local(AUTO) storage.

    No errors detected in file NK_URTBL_D.:E05TSI    .

PL6.E3A0      #001=NK_URTBL_D File=NK_URTBL_D.:E05TSI                            WED 07/30/97 03:46 Page:5

 Object Unit name= NK_URTBL_D                                 File name= NK_URTBL_D.:E05TOU
 UTS= JUL 30 '97 03:46:23.76 WED                              Compiler= PL-6/E31         Sev=      00
 SharedLib= :SHARED_SYSTEM                                    Alt SharedLib=


    ****  Control sections  ****

 Sect   Type Bound  Init  Size OctSiz  Section name(segment info)
    0  RoData even  UTS    256    400  NK_URTBL_D
    1   Proc  even  none     0      0  NK_URTBL_D

    ****  Entry defs  ****

                              Check   Calling
                             calling  sequence
  Sect OctLoc Primary Altret sequence   type   Parms  Name
     1      0   yes            yes     ~proc       0  NK_URTBL_D

  ****  Data defs  ****

 Sect OctLoc  Name                           Sect OctLoc  Name
    0      0  NK_NATLTBL                         0    200  NK_BLNKSUPTBL
PL6.E3A0      #001=NK_URTBL_D File=NK_URTBL_D.:E05TSI                            WED 07/30/97 03:46 Page:6


(unnamed)
 Sect OctLoc
   0     000   040040 040040   040040 040040   040011 040040   040040 040040             .
   0     004   040040 040040   040040 040040   040040 040040   040040 040040
   0     010   040041 042043   044045 046047   050051 052053   054055 056057     !"#$%&'()*+,-./
   0     014   060061 062063   064065 066067   070071 072073   074075 076077    0123456789:;<=>?
   0     020   100101 102103   104105 106107   110111 112113   114115 116117    @ABCDEFGHIJKLMNO
   0     024   120121 122123   124125 126127   130131 132133   134135 136137    PQRSTUVWXYZ[\]^_
   0     030   140141 142143   144145 146147   150151 152153   154155 156157    `abcdefghijklmno
   0     034   160161 162163   164165 166167   170171 172173   174175 176040    pqrstuvwxyz{|}~
   0     040   040040 040040   040040 040040   040011 040040   040040 040040             .
   0     044   040040 040040   040040 040040   040040 040040   040040 040040
   0     050   040041 042043   044045 046047   050051 052053   054055 056057     !"#$%&'()*+,-./
   0     054   060061 062063   064065 066067   070071 072073   074075 076077    0123456789:;<=>?
   0     060   100101 102103   104105 106107   110111 112113   114115 116117    @ABCDEFGHIJKLMNO
   0     064   120121 122123   124125 126127   130131 132133   134135 136137    PQRSTUVWXYZ[\]^_
   0     070   140141 142143   144145 146147   150151 152153   154155 156157    `abcdefghijklmno
   0     074   160161 162163   164165 166167   170171 172173   174175 176040    pqrstuvwxyz{|}~
   0     100   040040 040040   040040 040040   040011 040040   040040 040040             .
   0     104   040040 040040   040040 040040   040040 040040   040040 040040
   0     110   040041 042043   044045 046047   050051 052053   054055 056057     !"#$%&'()*+,-./
   0     114   060061 062063   064065 066067   070071 072073   074075 076077    0123456789:;<=>?
   0     120   100101 102103   104105 106107   110111 112113   114115 116117    @ABCDEFGHIJKLMNO
   0     124   120121 122123   124125 126127   130131 132133   134135 136137    PQRSTUVWXYZ[\]^_
   0     130   140141 142143   144145 146147   150151 152153   154155 156157    `abcdefghijklmno
   0     134   160161 162163   164165 166167   170171 172173   174175 176040    pqrstuvwxyz{|}~
   0     140   040040 040040   040040 040040   040011 040040   040040 040040             .
   0     144   040040 040040   040040 040040   040040 040040   040040 040040
   0     150   040041 042043   044045 046047   050051 052053   054055 056057     !"#$%&'()*+,-./
   0     154   060061 062063   064065 066067   070071 072073   074075 076077    0123456789:;<=>?
   0     160   100101 102103   104105 106107   110111 112113   114115 116117    @ABCDEFGHIJKLMNO
   0     164   120121 122123   124125 126127   130131 132133   134135 136137    PQRSTUVWXYZ[\]^_
   0     170   140141 142143   144145 146147   150151 152153   154155 156157    `abcdefghijklmno
   0     174   160161 162163   164165 166167   170171 172173   174175 176040    pqrstuvwxyz{|}~
   0     200   001001 002003   004005 006007   010011 012013   014015 016017    ................
   0     204   020021 022023   024025 026027   030031 032033   034035 036037    ................
PL6.E3A0      #001=NK_URTBL_D File=NK_URTBL_D.:E05TSI                            WED 07/30/97 03:46 Page:7
   0     210   000041 042043   044045 046047   050051 052053   054055 056057    .!"#$%&'()*+,-./
   0     214   060061 062063   064065 066067   070071 072073   074075 076077    0123456789:;<=>?
   0     220   100101 102103   104105 106107   110111 112113   114115 116117    @ABCDEFGHIJKLMNO
   0     224   120121 122123   124125 126127   130131 132133   134135 136137    PQRSTUVWXYZ[\]^_
   0     230   140141 142143   144145 146147   150151 152153   154155 156157    `abcdefghijklmno
   0     234   160161 162163   164165 166167   170171 172173   174175 176177    pqrstuvwxyz{|}~.
   0     240   200201 202203   204205 206207   210211 212213   214215 216217    ................
   0     244   220221 222223   224225 226227   230231 232233   234235 236237    ................
   0     250   240241 242243   244245 246247   250251 252253   254255 256257    ................
   0     254   260261 262263   264265 266267   270271 272273   274275 276277    ................
   0     260   300301 302303   304305 306307   310311 312313   314315 316317    ................
   0     264   320321 322323   324325 326327   330331 332333   334335 336337    ................
   0     270   340341 342343   344345 346347   350351 352353   354355 356357    ................
   0     274   360361 362363   364365 366367   370371 372373   374375 376377    ................
   0     300   001001 002003   004005 006007   010011 012013   014015 016017    ................
   0     304   020021 022023   024025 026027   030031 032033   034035 036037    ................
   0     310   040041 042043   044045 046047   050051 052053   054055 056057     !"#$%&'()*+,-./
   0     314   060061 062063   064065 066067   070071 072073   074075 076077    0123456789:;<=>?
   0     320   100101 102103   104105 106107   110111 112113   114115 116117    @ABCDEFGHIJKLMNO
   0     324   120121 122123   124125 126127   130131 132133   134135 136137    PQRSTUVWXYZ[\]^_
   0     330   140141 142143   144145 146147   150151 152153   154155 156157    `abcdefghijklmno
   0     334   160161 162163   164165 166167   170171 172173   174175 176177    pqrstuvwxyz{|}~.
   0     340   200201 202203   204205 206207   210211 212213   214215 216217    ................
   0     344   220221 222223   224225 226227   230231 232233   234235 236237    ................
   0     350   240241 242243   244245 246247   250251 252253   254255 256257    ................
   0     354   260261 262263   264265 266267   270271 272273   274275 276277    ................
   0     360   300301 302303   304305 306307   310311 312313   314315 316317    ................
   0     364   320321 322323   324325 326327   330331 332333   334335 336337    ................
   0     370   340341 342343   344345 346347   350351 352353   354355 356357    ................
   0     374   360361 362363   364365 366367   370371 372373   374375 376377    ................
        1        1        /*M* NK_URTBL_D Xlate tables for symbiont translations */
        2        2        /*T***********************************************************/
        3        3        /*T*                                                         */
        4        4        /*T* Copyright (c) Bull HN Information Systems Inc., 1997    */
        5        5        /*T*                                                         */
        6        6        /*T***********************************************************/
        7        7
PL6.E3A0      #001=NK_URTBL_D File=NK_URTBL_D.:E05TSI                            WED 07/30/97 03:46 Page:8
        8        8
        9        9        NK_URTBL_D: PROC;
       10       10
       11       11
       12       12    1   DCL NK_NATLTBL (0:511) CHAR(1) CONSTANT SYMDEF
       13       13    1        INIT(
       14       14    1             ' '*9,BITASC('011'O),' '*23,
       15       15    1             '!','"','#','$','%','&','''','(',')',
       16       16    1             '*','+',',','-','.','/','0','1','2','3','4','5',
       17       17    1             '6','7','8','9',':',';','<','=','>','?','@','A',
       18       18    1             'B','C','D','E','F','G','H','I','J','K','L','M',
       19       19    1             'N','O','P','Q','R','S','T','U','V','W','X','Y',
       20       20    1             'Z','[','\',']','^','_','`','a','b','c','d','e',
       21       21    1             'f','g','h','i','j','k','l','m','n','o','p','q','r',
       22       22    1             's','t','u','v','w','x','y','z','{','|','}','~',' ',
       23       23    1             ' '*9,BITASC('011'O),' '*23,
       24       24    1             '!','"','#','$','%','&','''','(',')',
       25       25    1             '*','+',',','-','.','/','0','1','2','3','4','5',
       26       26    1             '6','7','8','9',':',';','<','=','>','?','@','A',
       27       27    1             'B','C','D','E','F','G','H','I','J','K','L','M',
       28       28    1             'N','O','P','Q','R','S','T','U','V','W','X','Y',
       29       29    1             'Z','[','\',']','^','_','`','a','b','c','d','e',
       30       30    1             'f','g','h','i','j','k','l','m','n','o','p','q','r',
       31       31    1             's','t','u','v','w','x','y','z','{','|','}','~',' ',
       32       32    1             ' '*9,BITASC('011'O),' '*23,
       33       33    1             '!','"','#','$','%','&','''','(',')',
       34       34    1             '*','+',',','-','.','/','0','1','2','3','4','5',
       35       35    1             '6','7','8','9',':',';','<','=','>','?','@','A',
       36       36    1             'B','C','D','E','F','G','H','I','J','K','L','M',
       37       37    1             'N','O','P','Q','R','S','T','U','V','W','X','Y',
       38       38    1             'Z','[','\',']','^','_','`','a','b','c','d','e',
       39       39    1             'f','g','h','i','j','k','l','m','n','o','p','q','r',
       40       40    1             's','t','u','v','w','x','y','z','{','|','}','~',' ',
       41       41    1             ' '*9,BITASC('011'O),' '*23,
       42       42    1             '!','"','#','$','%','&','''','(',')',
       43       43    1             '*','+',',','-','.','/','0','1','2','3','4','5',
       44       44    1             '6','7','8','9',':',';','<','=','>','?','@','A',
PL6.E3A0      #001=NK_URTBL_D File=NK_URTBL_D.:E05TSI                            WED 07/30/97 03:46 Page:9
       45       45    1             'B','C','D','E','F','G','H','I','J','K','L','M',
       46       46    1             'N','O','P','Q','R','S','T','U','V','W','X','Y',
       47       47    1             'Z','[','\',']','^','_','`','a','b','c','d','e',
       48       48    1             'f','g','h','i','j','k','l','m','n','o','p','q','r',
       49       49    1             's','t','u','v','w','x','y','z','{','|','}','~',' ');
       50       50
       51       51    1     DCL 1 NK_BLNKSUPTBL DALIGNED CONSTANT SYMDEF,
       52       52    1           2 C(0:511) UBIN BYTE UNAL INIT(
       53       53    1             1,1,2,3,4,5,6,7,8,9,10,11,12,13,14,15,
       54       54    1             16,17,18,19,20,21,22,23,24,25,26,27,28,29,30,
       55       55    1             31,0,33,34,35,36,37,38,39,40,41,42,43,44,45,
       56       56    1             46,47,48,49,50,51,52,53,54,55,56,57,58,59,60,
       57       57    1             61,62,63,64,65,66,67,68,69,70,71,72,73,74,75,
       58       58    1             76,77,78,79,80,81,82,83,84,85,86,87,88,89,90,
       59       59    1             91,92,93,94,95,96,97,98,99,100,101,102,103,104,105,
       60       60    1             106,107,108,109,110,111,112,113,114,115,116,117,118,119,120,
       61       61    1             121,122,123,124,125,126,127,128,129,130,131,132,133,134,135,
       62       62    1             136,137,138,139,140,141,142,143,144,145,146,147,148,149,150,
       63       63    1             151,152,153,154,155,156,157,158,159,160,161,162,163,164,165,
       64       64    1             166,167,168,169,170,171,172,173,174,175,176,177,178,179,180,
       65       65    1             181,182,183,184,185,186,187,188,189,190,191,192,193,194,195,
       66       66    1             196,197,198,199,200,201,202,203,204,205,206,207,208,209,210,
       67       67    1             211,212,213,214,215,216,217,218,219,220,221,222,223,224,225,
       68       68    1             226,227,228,229,230,231,232,233,234,235,236,237,238,239,240,
       69       69    1             241,242,243,244,245,246,247,248,249,250,251,252,253,254,255,
       70       70    1             1,1,2,3,4,5,6,7,8,9,10,11,12,13,14,15,
       71       71    1             16,17,18,19,20,21,22,23,24,25,26,27,28,29,30,
       72       72    1             31,32,33,34,35,36,37,38,39,40,41,42,43,44,45,
       73       73    1             46,47,48,49,50,51,52,53,54,55,56,57,58,59,60,
       74       74    1             61,62,63,64,65,66,67,68,69,70,71,72,73,74,75,
       75       75    1             76,77,78,79,80,81,82,83,84,85,86,87,88,89,90,
       76       76    1             91,92,93,94,95,96,97,98,99,100,101,102,103,104,105,
       77       77    1             106,107,108,109,110,111,112,113,114,115,116,117,118,119,120,
       78       78    1             121,122,123,124,125,126,127,128,129,130,131,132,133,134,135,
       79       79    1             136,137,138,139,140,141,142,143,144,145,146,147,148,149,150,
       80       80    1             151,152,153,154,155,156,157,158,159,160,161,162,163,164,165,
       81       81    1             166,167,168,169,170,171,172,173,174,175,176,177,178,179,180,
PL6.E3A0      #001=NK_URTBL_D File=NK_URTBL_D.:E05TSI                            WED 07/30/97 03:46 Page:10
       82       82    1             181,182,183,184,185,186,187,188,189,190,191,192,193,194,195,
       83       83    1             196,197,198,199,200,201,202,203,204,205,206,207,208,209,210,
       84       84    1             211,212,213,214,215,216,217,218,219,220,221,222,223,224,225,
       85       85    1             226,227,228,229,230,231,232,233,234,235,236,237,238,239,240,
       86       86    1             241,242,243,244,245,246,247,248,249,250,251,252,253,254,255);
       87       87
       88       88    1   END NK_URTBL_D;

PL6.E3A0      #001=NK_URTBL_D File=NK_URTBL_D.:E05TSI                            WED 07/30/97 03:46 Page:11
      No diagnostics issued in procedure NK_URTBL_D.
PL6.E3A0      #001=NK_URTBL_D File=NK_URTBL_D.:E05TSI                            WED 07/30/97 03:46 Page:12

 **** Variables and constants ****


   No code generated for procedure NK_URTBL_D .
   Procedure NK_URTBL_D requires 4 words of local(AUTO) storage.

    No errors detected in file NK_URTBL_D.:E05TSI    .
PL6.E3A0      #001=NK_URTBL_D File=NK_URTBL_D.:E05TSI                            WED 07/30/97 03:46 Page:13
          *** CROSS REFERENCE LISTING ***
**     DENOTES     IDENTIFIER DEFINITION
<<                 IDENTIFIER'S VALUE SET
>>                 IDENTIFIER'S VALUE USED
<>                 IDENTIFIER SET AND/OR USED
--                 IDENTIFIER REFERENCED
PL6.E3A0      #001=NK_URTBL_D File=NK_URTBL_D.:E05TSI                            WED 07/30/97 03:46 Page:14
          MINI XREF LISTING

