VERSION E05

PL6.E3A0      #001=NMB$BREAK File=NMB$BREAK.:E05TSI                              WED 07/30/97 03:46 Page:1
        1        1        /*M* NMB$BREAK - BREAK handler for MIRROR processor.               */
        2        2        /*T***********************************************************/
        3        3        /*T*                                                         */
        4        4        /*T* Copyright (c) Bull HN Information Systems Inc., 1997    */
        5        5        /*T*                                                         */
        6        6        /*T***********************************************************/
        7        7        /*X* DFC=YES, DMC=YES, EDMC=YES                                    */
        8        8        /*F*
        9        9        NAME:           NMB$BREAK
       10       10
       11       11        PURSPOSE:       To handle BREAK events for the MIRROR processor
       12       12        */
       13       13        /*D*
       14       14        NAME:           NMB$BREAK
       15       15
       16       16        CALL:           CALL NMB$BREAK ;
       17       17
       18       18        PARAMETERS:     None.
       19       19
       20       20        DESCRIPTION:
       21       21
       22       22        The NMB$BREAK procedure is used to handle break
       23       23        events for the MIRROR processor.  NMU$ABORT
       24       24        is called to abort the current command.  And
       25       25        then NMB$BREAK UNWINDS back to the command
       26       26        reading loop in NMA$MAIN.
       27       27
       28       28        */
       29       29        %EJECT ;
PL6.E3A0      #001=NMB$BREAK File=NMB$BREAK.:E05TSI                              WED 07/30/97 03:46 Page:2
       30       30        NMB$BREAK:      PROC ;
       31       31        /*
       32       32                        Includes
       33       33        */
       34       34        %INCLUDE                CP_6 ;
       35     5593        %INCLUDE                NI_DATA_C ;
       36     5706        %INCLUDE                NM_MACRO_M ;
       37     7111        /*
       38     7112                        Entries
       39     7113        */
       40     7114    1   DCL 1 NMU$ABORT         ENTRY(2) ALTRET ;
       41     7115        /*
       42     7116                        Variables
       43     7117        */
       44     7118                                %NMD_PIT ( FPTN =
       45     7119              NMD_PIT           , STCLASS=SYMREF
       46     7120                                                                        ) ;
       47     7573        %EJECT ;
PL6.E3A0      #001=NMB$BREAK File=NMB$BREAK.:E05TSI                              WED 07/30/97 03:46 Page:3
       48     7574        /*
       49     7575        Unlock any locked devices.
       50     7576        */
       51     7577    1           IF  NMD_PIT.FLAGS.CIP#
       52     7578    1           THEN
       53     7579    1               CALL NMU$ABORT ( %NI_MIRROR_OPER, %NI_MIRROR_FAIL ) ;
       54     7580    1           ELSE
       55     7581    1               CALL NMU$ABORT ( /*  NIL  */,     /*  NIL  */     ) ;
       56     7582
       57     7583        /*
       58     7584        Unwind back to command reading loop.
       59     7585        */
       60     7586    1           UNWIND TO NMD_PIT.RESTART ;
       61     7587
       62     7588    1           END NMB$BREAK ;

PL6.E3A0      #001=NMB$BREAK File=NMB$BREAK.:E05TSI                              WED 07/30/97 03:46 Page:4
--  Include file information  --

   NM_SUBS_C.:E05TOU  is referenced.
   NM_EQU_E.:E05TOU  is referenced.
   CP_6_SUBS.:E05TOU  is referenced.
   NM_MACRO_M.:E05TOU  is referenced.
   NI_DATA_C.:E05TOU  is referenced.
   CP_6_C.:E05TOU  is referenced.
   CP_6.:E05TOU  cannot be made into a system file and is referenced.
      No diagnostics issued in procedure NMB$BREAK.

   Procedure NMB$BREAK requires 19 words for executable code.
   Procedure NMB$BREAK requires 6 words of local(AUTO) storage.

    No errors detected in file NMB$BREAK.:E05TSI    .

PL6.E3A0      #001=NMB$BREAK File=NMB$BREAK.:E05TSI                              WED 07/30/97 03:46 Page:5

 Object Unit name= NMB$BREAK                                  File name= NMB$BREAK.:E05TOU
 UTS= JUL 30 '97 03:46:53.56 WED                              Compiler= PL-6/E31         Sev=      00
 SharedLib= :SHARED_SYSTEM                                    Alt SharedLib=


    ****  Control sections  ****

 Sect   Type Bound  Init  Size OctSiz  Section name(segment info)
    0   DCB   even  none     0      0  M$UC
    1   Proc  even  none    19     23  NMB$BREAK
    2  RoData even  none     2      2  NMB$BREAK

    ****  Entry defs  ****

                              Check   Calling
                             calling  sequence
  Sect OctLoc Primary Altret sequence   type   Parms  Name
     1      0   yes            yes      Std        0  NMB$BREAK

  ****  Entry refs  ****

         Check        Calling
        calling       sequence
Altret sequence SRef   type   Args  Name
 yes     yes           Std       2 NMU$ABORT
                       nStd      0 X66_AUTO_0
                       Std       0 B_CONSPOOL_D
                       nStd      0 X66_AUNWIND

  ****  Data refs  ****

  Flags:  r = read only, s = secondary
Flgs Name                             Flgs Name                             Flgs Name
     M$UC                                  NMD_PIT                               B_VECTNIL
PL6.E3A0      #001=NMB$BREAK File=NMB$BREAK.:E05TSI                              WED 07/30/97 03:46 Page:6

  ****  Segment refs  ****

  Flags:  r = read only, s = secondary
Flgs Name                             Flgs Name                             Flgs Name
     ISSID
PL6.E3A0      #001=NMB$BREAK File=NMB$BREAK.:E05TSI                              WED 07/30/97 03:46 Page:7


        1        1        /*M* NMB$BREAK - BREAK handler for MIRROR processor.               */
        2        2        /*T***********************************************************/
        3        3        /*T*                                                         */
        4        4        /*T* Copyright (c) Bull HN Information Systems Inc., 1997    */
        5        5        /*T*                                                         */
        6        6        /*T***********************************************************/
        7        7        /*X* DFC=YES, DMC=YES, EDMC=YES                                    */
        8        8        /*F*
        9        9        NAME:           NMB$BREAK
       10       10
       11       11        PURSPOSE:       To handle BREAK events for the MIRROR processor
       12       12        */
       13       13        /*D*
       14       14        NAME:           NMB$BREAK
       15       15
       16       16        CALL:           CALL NMB$BREAK ;
       17       17
       18       18        PARAMETERS:     None.
       19       19
       20       20        DESCRIPTION:
       21       21
       22       22        The NMB$BREAK procedure is used to handle break
       23       23        events for the MIRROR processor.  NMU$ABORT
       24       24        is called to abort the current command.  And
       25       25        then NMB$BREAK UNWINDS back to the command
       26       26        reading loop in NMA$MAIN.
       27       27
       28       28        */
       29       29        %EJECT ;
PL6.E3A0      #001=NMB$BREAK File=NMB$BREAK.:E05TSI                              WED 07/30/97 03:46 Page:8
       30       30        NMB$BREAK:      PROC ;

     30  1 000000   000000 700200 xent  NMB$BREAK    TSX0  ! X66_AUTO_0
         1 000001   000006 000000                    ZERO    6,0

       31       31        /*
       32       32                        Includes
       33       33        */
       34       34        %INCLUDE                CP_6 ;
       35     5593        %INCLUDE                NI_DATA_C ;
       36     5706        %INCLUDE                NM_MACRO_M ;
       37     7111        /*
       38     7112                        Entries
       39     7113        */
       40     7114    1   DCL 1 NMU$ABORT         ENTRY(2) ALTRET ;
       41     7115        /*
       42     7116                        Variables
       43     7117        */
       44     7118                                %NMD_PIT ( FPTN =
       45     7119              NMD_PIT           , STCLASS=SYMREF
       46     7120                                                                        ) ;
       47     7573        %EJECT ;
PL6.E3A0      #001=NMB$BREAK File=NMB$BREAK.:E05TSI                              WED 07/30/97 03:46 Page:9
       48     7574        /*
       49     7575        Unlock any locked devices.
       50     7576        */
       51     7577    1           IF  NMD_PIT.FLAGS.CIP#

   7577  1 000002   000273 236000 xsym               LDQ     NMD_PIT+187
         1 000003   200000 316003                    CANQ    65536,DU
         1 000004   000012 600000 1                  TZE     s:7581

       52     7578    1           THEN
       53     7579    1               CALL NMU$ABORT ( %NI_MIRROR_OPER, %NI_MIRROR_FAIL ) ;

   7579  1 000005   000000 630400 2                  EPPR0   0
         1 000006   000020 631400 xsym               EPPR1   B_VECTNIL+16
         1 000007   000000 701000 xent               TSX1    NMU$ABORT
         1 000010   000000 011000                    NOP     0
         1 000011   000015 710000 1                  TRA     s:7586

       54     7580    1           ELSE
       55     7581    1               CALL NMU$ABORT ( /*  NIL  */,     /*  NIL  */     ) ;

   7581  1 000012   000002 631400 xsym               EPPR1   B_VECTNIL+2
         1 000013   000000 701000 xent               TSX1    NMU$ABORT
         1 000014   000000 011000                    NOP     0

       56     7582
       57     7583        /*
       58     7584        Unwind back to command reading loop.
       59     7585        */
       60     7586    1           UNWIND TO NMD_PIT.RESTART ;

   7586  1 000015   000100 100600                    MLR   ! fill='000'O
         1 000016   000317 000010 xsym               ADSC9   NMD_PIT+207              cn=0,n=8
         1 000017   200004 000010                    ADSC9   4,,AUTO                  cn=0,n=8
         1 000020   200004 237300                    LDAQ  ! 4,,AUTO
         1 000021   000000 700200 xent               TSX0  ! X66_AUNWIND
         1 000022   000000 000200                    ZERO    0,128
PL6.E3A0      #001=NMB$BREAK File=NMB$BREAK.:E05TSI                              WED 07/30/97 03:46 Page:10
       61     7587
       62     7588    1           END NMB$BREAK ;

PL6.E3A0      #001=NMB$BREAK File=NMB$BREAK.:E05TSI                              WED 07/30/97 03:46 Page:11
--  Include file information  --

   NM_SUBS_C.:E05TOU  is referenced.
   NM_EQU_E.:E05TOU  is referenced.
   CP_6_SUBS.:E05TOU  is referenced.
   NM_MACRO_M.:E05TOU  is referenced.
   NI_DATA_C.:E05TOU  is referenced.
   CP_6_C.:E05TOU  is referenced.
   CP_6.:E05TOU  cannot be made into a system file and is referenced.
      No diagnostics issued in procedure NMB$BREAK.
PL6.E3A0      #001=NMB$BREAK File=NMB$BREAK.:E05TSI                              WED 07/30/97 03:46 Page:12

 **** Variables and constants ****

  ****  SYMREF variables  ****

  ****  Scalars and arrays  ****
OctLoc.c.b A Datatyp(siz) R M Lvl/name                 OctLoc.c.b A Datatyp(siz) R M Lvl/name

     0-0-0/d STRC(8892)  r     1 NMD_PIT


   Procedure NMB$BREAK requires 19 words for executable code.
   Procedure NMB$BREAK requires 6 words of local(AUTO) storage.

    No errors detected in file NMB$BREAK.:E05TSI    .
PL6.E3A0      #001=NMB$BREAK File=NMB$BREAK.:E05TSI                              WED 07/30/97 03:46 Page:13
          *** CROSS REFERENCE LISTING ***
**     DENOTES     IDENTIFIER DEFINITION
<<                 IDENTIFIER'S VALUE SET
>>                 IDENTIFIER'S VALUE USED
<>                 IDENTIFIER SET AND/OR USED
--                 IDENTIFIER REFERENCED
PL6.E3A0      #001=NMB$BREAK File=NMB$BREAK.:E05TSI                              WED 07/30/97 03:46 Page:14
          MINI XREF LISTING

NMD_PIT.FLAGS.CIP#
      7373**DCL      7577>>IF
NMD_PIT.RESTART
      7540**DCL      7586>>UNWIND
NMU$ABORT
      7114**DCL-ENT  7579--CALL     7581--CALL
