VERSION E05

PL6.E3A0      #001=NMD$DISPLAY File=NMD$DISPLAY.:E05TSI                          WED 07/30/97 03:47 Page:1
        1        1        /*M* NMD$DISPLAY - Perform MIRROR DISPLAY operation.               */
        2        2        /*T***********************************************************/
        3        3        /*T*                                                         */
        4        4        /*T* Copyright (c) Bull HN Information Systems Inc., 1997    */
        5        5        /*T*                                                         */
        6        6        /*T***********************************************************/
        7        7        /*X* DFC=YES, DMC=YES, EDMC=YES                                    */
        8        8        /*F*
        9        9        NAME:           NMD$DISPLAY
       10       10
       11       11        PURSPOSE:       To perform MIRROR DISPLAY operation.
       12       12        */
       13       13        /*D*
       14       14        NAME:           NMD$DISPLAY
       15       15
       16       16        CALL:           CALL NMD$DISPLAY ALTRET ( error ) ;
       17       17
       18       18        PARAMETERS:     None.
       19       19
       20       20        DESCRIPTION:
       21       21
       22       22        The NMD$DISPLAY procedure is used to display selected
       23       23        or all Mirrored Disk device DCT information.
       24       24
       25       25        If ALL is specified, the Mirrored Disk device
       26       26        information is displayed for all disk devices.
       27       27
       28       28        If DPxx, DPyy, etc. is specified, information
       29       29        for each specified devices is displayed.
       30       30        */
       31       31        %EJECT ;
PL6.E3A0      #001=NMD$DISPLAY File=NMD$DISPLAY.:E05TSI                          WED 07/30/97 03:47 Page:2
       32       32        NMD$DISPLAY:    PROC            ALTRET ;
       33       33        /*
       34       34                        Includes
       35       35        */
       36       36        %INCLUDE                B_SEGIDS_C ;
       37      575        %INCLUDE                CP_6 ;
       38     6134        %INCLUDE                NI$TABLES ;
       39     6350        %INCLUDE                NI_DATA_C ;
       40     6463        %INCLUDE                NM_MACRO_M ;
       41     7868        %INCLUDE                NM_PERR_C ;
       42     7945        %INCLUDE                XUF_ENTRY ;
       43     7953        %INCLUDE                XU_FORMAT_C ;
       44     8115        %INCLUDE                XU_MACRO_C ;
       45    11221        /*
       46    11222                        Entries
       47    11223        */
       48    11224    1   DCL 1 NME$ERRMSG        ENTRY(6) ;
       49    11225    1   DCL 1 NMO$DCT           ENTRY(2) ALTRET ;
       50    11226    1   DCL 1 NMO$DEV           ENTRY(2) ALTRET ;
       51    11227    1   DCL 1 NMU$CONVERT$      ENTRY(4) ALTRET ;
       52    11228    1   DCL 1 NMV$MIRRORED      ENTRY(1) ALTRET ;
       53    11229        /*
       54    11230                        Variables
       55    11231        */
       56    11232                                %B$ALT ( NAME =
       57    11233              B$ALT             ,     STCLASS=BASED
       58    11234                                                                        ) ;
       59    11242                                %B$TCB  ( NAME =
       60    11243              B$TCB             , STCLASS = "BASED(B$TCB$)"
       61    11244                                                                        ) ;
       62    11247    1   DCL 1 B$TCB$            PTR SYMREF ;
       63    11248                                %NI$DCT ( NAME =
       64    11249              DCT               , STCLASS = "BASED(DCT$)"
       65    11250                                                                        ) ;
       66    11298    1   DCL 1 DCT$              PTR ALIGNED AUTO ;
       67    11299    1   DCL 1 HEADING           BIT(1) ALIGNED AUTO  ;
       68    11300    1   DCL 1 I                 SBIN WORD ALIGNED AUTO ;
PL6.E3A0      #001=NMD$DISPLAY File=NMD$DISPLAY.:E05TSI                          WED 07/30/97 03:47 Page:3
       69    11301    1   DCL 1 N$DCT$(0:0)       PTR ALIGNED BASED(NMD_PIT.N$DCT$$) ;
       70    11302                                %NMD_PIT ( FPTN =
       71    11303              NMD_PIT           , STCLASS=SYMREF
       72    11304                                                                        ) ;
       73    11757                                %PARSE$OUT ( NAME =
       74    11758              OUT               , STCLASS ="BASED(XUG_GETCMD.OUT$)"
       75    11759                                                                        ) ;
       76    11804                                %XUG_GETCMD ( NAME =
       77    11805              XUG_GETCMD        , STCLASS = SYMREF
       78    11806                                                                        ) ;
       79    12144        %EJECT ;
PL6.E3A0      #001=NMD$DISPLAY File=NMD$DISPLAY.:E05TSI                          WED 07/30/97 03:47 Page:4
       80    12145        /*
       81    12146        Process the devices and options specified on the command.
       82    12147        */
       83    12148    1           HEADING = '1'B ;
       84    12149    1           IF  OUT.SUBLK$(0)->OUT.CODE = %NMC#ALL
       85    12150    2           THEN DO  I = 1 TO 359 ;
       86    12151    2               CALL NMU$CONVERT$ ( DCT$,
       87    12152    2                                   BITBIN(%SPCL1SID),
       88    12153    2                                   N$DCT$(I),
       89    12154    2                                   BITBIN(%TIGRSID) )
       90    12155    2                                                   ALTRET ( RET ) ;
       91    12156    2               IF  DCT.TYPE = %DV_DP
       92    12157    3               THEN DO ;
       93    12158    3                   CALL NMO$DCT ( 0, I )           ALTRET ( DCTERR ) ;
       94    12159    3                   CALL LIST ( NMD_PIT.DEV.DCT$(0) ) ;
       95    12160    3                   END ;
       96    12161    2               ELSE
       97    12162    2                   ;
       98    12163    2   DCTERR:     END ;
       99    12164
      100    12165    2           ELSE DO  I = 0 TO OUT.NSUBLKS-1 ;
      101    12166    2               CALL NMO$DEV ( 0, OUT.SUBLK$(I) )   ALTRET ( DEVERR ) ;
      102    12167    2               CALL LIST ( NMD_PIT.DEV.DCT$(0) ) ;
      103    12168    2   DEVERR:     END ;
      104    12169        /*
      105    12170        Return to the calling routine.
      106    12171        */
      107    12172    1   RET:    RETURN ;
      108    12173
      109    12174        %EJECT ;
PL6.E3A0      #001=NMD$DISPLAY File=NMD$DISPLAY.:E05TSI                          WED 07/30/97 03:47 Page:5
      110    12175    1   LIST:           PROC ( DCT$ ) ;
      111    12176        /*
      112    12177                        Parameters
      113    12178        */
      114    12179    2   DCL 1 DCT$              PTR ALIGNED PARAM ;
      115    12180        /*
      116    12181                        Variables
      117    12182        */
      118    12183    2   DCL 1 BUF               CHAR(110) CALIGNED STATIC ;
      119    12184        %NI$DCT                 ( NAME = DCT
      120    12185                                , STCLASS = "BASED(DCT$)"
      121    12186                                                                        ) ;
      122    12234                                %F_FDS ( NAME =
      123    12235              FDS               , STCLASS = STATIC
      124    12236                                , BUF = BUF
      125    12237                                , DCB = M$LO
      126    12238                                                                        ) ;
      127    12351    2   DCL 1 FMT               CONSTANT CALIGNED,
      128    12352    2         2 *               CHAR(0) CALIGNED INIT ( '%4D ' ) ,
      129    12353    2         2 *               CHAR(0) CALIGNED INIT ( '%8A ' ),
      130    12354    2         2 *               CHAR(0) CALIGNED INIT ( '%3A ' ) ,
      131    12355    2         2 *               CHAR(0) CALIGNED INIT ( '%5D ' ),
      132    12356    2         2 *               CHAR(0) CALIGNED INIT ( '%4A  ' ),
      133    12357    2         2 *               CHAR(0) CALIGNED INIT ( '%15..3.10U '),
      134    12358    2         2 *               CHAR(0) CALIGNED INIT ( '%4A ' ),
      135    12359    2         2 *               CHAR(0) CALIGNED INIT ( '%3ZO ' ),
      136    12360    2         2 *               CHAR(0) CALIGNED INIT ( '%12ZO ' ),
      137    12361    2         2 *               CHAR(0) CALIGNED INIT ( '%8D ' ) ;
      138    12362    2   DCL 1 HEADER            CONSTANT CALIGNED,
      139    12363    2         2 *               CHAR(0) CALIGNED INIT (
      140    12364    2           'DCTX DEVNAME  MIR MDCTX STATE UTS             LOCK U#  LQ$          DRZERO'
             12364                                    ),
      141    12365    2         2 *               CHAR(0) CALIGNED INIT ( '%/' ),
      142    12366    2         2 *               CHAR(0) CALIGNED INIT (
      143    12367    2         '---- -------- --- ----- ----- --------------- ---- --- ------------ --------'
             12367                                    ) ;
      144    12368    2   DCL 1 M$LO              DCB ;
PL6.E3A0      #001=NMD$DISPLAY File=NMD$DISPLAY.:E05TSI                          WED 07/30/97 03:47 Page:6
      145    12369    2   DCL 1 REC               ALIGNED AUTO,
      146    12370    2         2 DCTX            SBIN WORD ALIGNED,
      147    12371    2         2 DEVNM           CHAR(8) CALIGNED,
      148    12372    2         2 MIR             CHAR(3) CALIGNED,
      149    12373    2         2 MDCTX           SBIN WORD ALIGNED,
      150    12374    2         2 STATE           CHAR(4) CALIGNED,
      151    12375    2         2 UTS             UBIN WORD ALIGNED,
      152    12376    2         2 LOCK            CHAR(4) CALIGNED,
      153    12377    2         2 USER#           UBIN WORD ALIGNED,
      154    12378    2         2 LQ$             PTR ALIGNED,
      155    12379    2         2 DRZERO          UBIN WORD ALIGNED ;
      156    12380
      157    12381        %EJECT ;
PL6.E3A0      #001=NMD$DISPLAY File=NMD$DISPLAY.:E05TSI                          WED 07/30/97 03:47 Page:7
      158    12382        /*
      159    12383        If necessary, output a header.
      160    12384        */
      161    12385    2           IF  HEADING
      162    12386    3           THEN DO ;
      163    12387    3               CALL X$WRITE ( FDS, VECTOR ( HEADER ) ) ;
      164    12388    3               HEADING = '0'B ;
      165    12389    3               END ;
      166    12390        /*
      167    12391        Move display items from DCT to REC.
      168    12392        */
      169    12393    2           REC.DCTX  = DCT.DCTX ;
      170    12394    2           REC.DEVNM = DCT.DEVNM ;
      171    12395    2           IF  DCT.DP.MIRROR.FLAG
      172    12396    2           THEN
      173    12397    2               IF  DCT.DP.MIRROR.PRI
      174    12398    2               THEN
      175    12399    2                   REC.MIR = 'Pri' ;
      176    12400    2               ELSE
      177    12401    2                   REC.MIR = 'Sec' ;
      178    12402    2           ELSE
      179    12403    2               REC.MIR = 'No ' ;
      180    12404    2           REC.MDCTX = DCT.DP.MIRROR.DCTX ;
      181    12405    2           REC.STATE = SUBSTR ( NMD_PIT.STATE.TEXT.C(DCT.DP.MIRROR.STATE), 0, 4 ) ;
      182    12406    2           REC.UTS   = DCT.DP.MIRROR.UTS ;
      183    12407    2           IF  DCT.DP.MIRROR.LOCK
      184    12408    2           THEN
      185    12409    2               REC.LOCK = 'Yes ' ;
      186    12410    2           ELSE
      187    12411    2               REC.LOCK = 'No  ' ;
      188    12412    2           REC.USER#  = DCT.DP.MIRROR.USER# ;
      189    12413    2           REC.LQ$    = DCT.DP.MIRROR.LQ$ ;
      190    12414    2           REC.DRZERO = DCT.DP.MIRROR.DRZERO ;
      191    12415        /*
      192    12416        Display the values for this DCT.
      193    12417        */
      194    12418    2           CALL X$WRITE ( FDS,
PL6.E3A0      #001=NMD$DISPLAY File=NMD$DISPLAY.:E05TSI                          WED 07/30/97 03:47 Page:8
      195    12419    2                          VECTOR ( FMT        ),
      196    12420    2                          VECTOR ( REC.DCTX   ),
      197    12421    2                          VECTOR ( REC.DEVNM  ),
      198    12422    2                          VECTOR ( REC.MIR    ),
      199    12423    2                          VECTOR ( REC.MDCTX  ),
      200    12424    2                          VECTOR ( REC.STATE  ),
      201    12425    2                          VECTOR ( REC.UTS    ),
      202    12426    2                          VECTOR ( REC.LOCK   ),
      203    12427    2                          VECTOR ( REC.USER#  ),
      204    12428    2                          VECTOR ( REC.LQ$    ),
      205    12429    2                          VECTOR ( REC.DRZERO ) ) ;
      206    12430        /*
      207    12431        Return to the calling routine.
      208    12432        */
      209    12433    2           RETURN ;
      210    12434
      211    12435    2           END LIST ;
      212    12436
      213    12437    1           END NMD$DISPLAY ;

PL6.E3A0      #001=NMD$DISPLAY File=NMD$DISPLAY.:E05TSI                          WED 07/30/97 03:47 Page:9
--  Include file information  --

   XU_MACRO_C.:E05TOU  is referenced.
   XU_FORMAT_C.:E05TOU  is referenced.
   XUF_ENTRY.:E05TOU  cannot be made into a system file and is referenced.
   NM_PERR_C.:E05TOU  is referenced.
   NM_SUBS_C.:E05TOU  is referenced.
   NM_EQU_E.:E05TOU  is referenced.
   CP_6_SUBS.:E05TOU  is referenced.
   NM_MACRO_M.:E05TOU  is referenced.
   NI_DATA_C.:E05TOU  is referenced.
   NI$TABLES.:E05TOU  is referenced.
   CP_6_C.:E05TOU  is referenced.
   CP_6.:E05TOU  cannot be made into a system file and is referenced.
   B_SEGIDS_C.:E05TOU  is referenced.
      No diagnostics issued in procedure NMD$DISPLAY.

   Procedure NMD$DISPLAY requires 241 words for executable code.
   Procedure NMD$DISPLAY requires 92 words of local(AUTO) storage.

    No errors detected in file NMD$DISPLAY.:E05TSI    .

PL6.E3A0      #001=NMD$DISPLAY File=NMD$DISPLAY.:E05TSI                          WED 07/30/97 03:47 Page:10

 Object Unit name= NMD$DISPLAY                                File name= NMD$DISPLAY.:E05TOU
 UTS= JUL 30 '97 03:47:40.68 WED                              Compiler= PL-6/E31         Sev=      00
 SharedLib= :SHARED_SYSTEM                                    Alt SharedLib=


    ****  Control sections  ****

 Sect   Type Bound  Init  Size OctSiz  Section name(segment info)
    0   DCB   even  none     0      0  M$UC
    1   Data  even  none    58     72  NMD$DISPLAY
    2  RoData even  UTS     55     67  NMD$DISPLAY
    3   DCB   even  none     0      0  M$LO
    4   Proc  even  none   241    361  NMD$DISPLAY
    5  RoData even  none    18     22  NMD$DISPLAY

    ****  Entry defs  ****

                              Check   Calling
                             calling  sequence
  Sect OctLoc Primary Altret sequence   type   Parms  Name
     4      0   yes    yes     yes      Std        0  NMD$DISPLAY

  ****  Entry refs  ****

         Check        Calling
        calling       sequence
Altret sequence SRef   type   Args  Name
 yes     yes           Std       4 NMU$CONVERT$
 yes     yes           Std       2 NMO$DCT
 yes     yes           Std       2 NMO$DEV
         yes           Std      22 X$WRITE
                       nStd      0 X66_AUTO_0
                       Std       0 B_CONSPOOL_D
                       nStd      0 X66_ARET
PL6.E3A0      #001=NMD$DISPLAY File=NMD$DISPLAY.:E05TSI                          WED 07/30/97 03:47 Page:11

  ****  Data refs  ****

  Flags:  r = read only, s = secondary
Flgs Name                             Flgs Name                             Flgs Name
     M$UC                                  B$TCB$                                NMD_PIT
     XUG_GETCMD                            M$LO                                  B_VECTNIL

  ****  Segment refs  ****

  Flags:  r = read only, s = secondary
Flgs Name                             Flgs Name                             Flgs Name
     NULLSID                               ISSID
PL6.E3A0      #001=NMD$DISPLAY File=NMD$DISPLAY.:E05TSI                          WED 07/30/97 03:47 Page:12


        1        1        /*M* NMD$DISPLAY - Perform MIRROR DISPLAY operation.               */
        2        2        /*T***********************************************************/
        3        3        /*T*                                                         */
        4        4        /*T* Copyright (c) Bull HN Information Systems Inc., 1997    */
        5        5        /*T*                                                         */
        6        6        /*T***********************************************************/
        7        7        /*X* DFC=YES, DMC=YES, EDMC=YES                                    */
        8        8        /*F*
        9        9        NAME:           NMD$DISPLAY
       10       10
       11       11        PURSPOSE:       To perform MIRROR DISPLAY operation.
       12       12        */
       13       13        /*D*
       14       14        NAME:           NMD$DISPLAY
       15       15
       16       16        CALL:           CALL NMD$DISPLAY ALTRET ( error ) ;
       17       17
       18       18        PARAMETERS:     None.
       19       19
       20       20        DESCRIPTION:
       21       21
       22       22        The NMD$DISPLAY procedure is used to display selected
       23       23        or all Mirrored Disk device DCT information.
       24       24
       25       25        If ALL is specified, the Mirrored Disk device
       26       26        information is displayed for all disk devices.
       27       27
       28       28        If DPxx, DPyy, etc. is specified, information
       29       29        for each specified devices is displayed.
       30       30        */
       31       31        %EJECT ;
PL6.E3A0      #001=NMD$DISPLAY File=NMD$DISPLAY.:E05TSI                          WED 07/30/97 03:47 Page:13
       32       32        NMD$DISPLAY:    PROC            ALTRET ;

     32  4 000000   000000 700200 xent  NMD$DISPLAY  TSX0  ! X66_AUTO_0
         4 000001   000134 000000                    ZERO    92,0

       33       33        /*
       34       34                        Includes
       35       35        */
       36       36        %INCLUDE                B_SEGIDS_C ;
       37      575        %INCLUDE                CP_6 ;
       38     6134        %INCLUDE                NI$TABLES ;
       39     6350        %INCLUDE                NI_DATA_C ;
       40     6463        %INCLUDE                NM_MACRO_M ;
       41     7868        %INCLUDE                NM_PERR_C ;
       42     7945        %INCLUDE                XUF_ENTRY ;
       43     7953        %INCLUDE                XU_FORMAT_C ;
       44     8115        %INCLUDE                XU_MACRO_C ;
       45    11221        /*
       46    11222                        Entries
       47    11223        */
       48    11224    1   DCL 1 NME$ERRMSG        ENTRY(6) ;
       49    11225    1   DCL 1 NMO$DCT           ENTRY(2) ALTRET ;
       50    11226    1   DCL 1 NMO$DEV           ENTRY(2) ALTRET ;
       51    11227    1   DCL 1 NMU$CONVERT$      ENTRY(4) ALTRET ;
       52    11228    1   DCL 1 NMV$MIRRORED      ENTRY(1) ALTRET ;
       53    11229        /*
       54    11230                        Variables
       55    11231        */
       56    11232                                %B$ALT ( NAME =
       57    11233              B$ALT             ,     STCLASS=BASED
       58    11234                                                                        ) ;
       59    11242                                %B$TCB  ( NAME =
       60    11243              B$TCB             , STCLASS = "BASED(B$TCB$)"
       61    11244                                                                        ) ;
       62    11247    1   DCL 1 B$TCB$            PTR SYMREF ;
       63    11248                                %NI$DCT ( NAME =
       64    11249              DCT               , STCLASS = "BASED(DCT$)"
PL6.E3A0      #001=NMD$DISPLAY File=NMD$DISPLAY.:E05TSI                          WED 07/30/97 03:47 Page:14
       65    11250                                                                        ) ;
       66    11298    1   DCL 1 DCT$              PTR ALIGNED AUTO ;
       67    11299    1   DCL 1 HEADING           BIT(1) ALIGNED AUTO  ;
       68    11300    1   DCL 1 I                 SBIN WORD ALIGNED AUTO ;
       69    11301    1   DCL 1 N$DCT$(0:0)       PTR ALIGNED BASED(NMD_PIT.N$DCT$$) ;
       70    11302                                %NMD_PIT ( FPTN =
       71    11303              NMD_PIT           , STCLASS=SYMREF
       72    11304                                                                        ) ;
       73    11757                                %PARSE$OUT ( NAME =
       74    11758              OUT               , STCLASS ="BASED(XUG_GETCMD.OUT$)"
       75    11759                                                                        ) ;
       76    11804                                %XUG_GETCMD ( NAME =
       77    11805              XUG_GETCMD        , STCLASS = SYMREF
       78    11806                                                                        ) ;
       79    12144        %EJECT ;
PL6.E3A0      #001=NMD$DISPLAY File=NMD$DISPLAY.:E05TSI                          WED 07/30/97 03:47 Page:15
       80    12145        /*
       81    12146        Process the devices and options specified on the command.
       82    12147        */
       83    12148    1           HEADING = '1'B ;

  12148  4 000002   400000 236003                    LDQ     -131072,DU
         4 000003   200004 756100                    STQ     HEADING,,AUTO

       84    12149    1           IF  OUT.SUBLK$(0)->OUT.CODE = %NMC#ALL

  12149  4 000004   000001 470400 xsym               LDP0    XUG_GETCMD+1
         4 000005   000003 471500                    LDP1    3,,PR0
         4 000006   100000 720100                    LXL0    0,,PR1
         4 000007   000146 100003                    CMPX0   102,DU
         4 000010   000057 601000 4                  TNZ     s:12165

       85    12150    2           THEN DO  I = 1 TO 359 ;

  12150  4 000011   000001 235007                    LDA     1,DL
         4 000012   200005 755100                    STA     I,,AUTO

       86    12151    2               CALL NMU$CONVERT$ ( DCT$,

  12151  4 000013   000002 236000 5                  LDQ     2
         4 000014   200027 756100                    STQ     REC+15,,AUTO
         4 000015   200005 236100                    LDQ     I,,AUTO
         4 000016   000022 736000                    QLS     18
         4 000017   000304 036000 xsym               ADLQ    NMD_PIT+196
         4 000020   200026 756100                    STQ     REC+14,,AUTO
         4 000021   000003 236000 5                  LDQ     3
         4 000022   200025 756100                    STQ     REC+13,,AUTO
         4 000023   200003 630500                    EPPR0   DCT$,,AUTO
         4 000024   200024 450500                    STP0    REC+12,,AUTO
         4 000025   200024 630500                    EPPR0   REC+12,,AUTO
         4 000026   000022 631400 xsym               EPPR1   B_VECTNIL+18
         4 000027   000000 701000 xent               TSX1    NMU$CONVERT$
         4 000030   000105 702000 4                  TSX2    RET
PL6.E3A0      #001=NMD$DISPLAY File=NMD$DISPLAY.:E05TSI                          WED 07/30/97 03:47 Page:16

       87    12152    2                                   BITBIN(%SPCL1SID),
       88    12153    2                                   N$DCT$(I),
       89    12154    2                                   BITBIN(%TIGRSID) )
       90    12155    2                                                   ALTRET ( RET ) ;
       91    12156    2               IF  DCT.TYPE = %DV_DP

  12156  4 000031   200003 470500                    LDP0    DCT$,,AUTO
         4 000032   000007 236100                    LDQ     7,,PR0
         4 000033   007700 376007                    ANQ     4032,DL
         4 000034   000600 116007                    CMPQ    384,DL
         4 000035   000052 601000 4                  TNZ     DCTERR

       92    12157    3               THEN DO ;

       93    12158    3                   CALL NMO$DCT ( 0, I )           ALTRET ( DCTERR ) ;

  12158  4 000036   200005 631500                    EPPR1   I,,AUTO
         4 000037   200025 451500                    STP1    REC+13,,AUTO
         4 000040   000004 236000 5                  LDQ     4
         4 000041   200024 756100                    STQ     REC+12,,AUTO
         4 000042   200024 630500                    EPPR0   REC+12,,AUTO
         4 000043   000020 631400 xsym               EPPR1   B_VECTNIL+16
         4 000044   000000 701000 xent               TSX1    NMO$DCT
         4 000045   000052 702000 4                  TSX2    DCTERR

       94    12159    3                   CALL LIST ( NMD_PIT.DEV.DCT$(0) ) ;

  12159  4 000046   000005 236000 5                  LDQ     5
         4 000047   200007 756100                    STQ     I+2,,AUTO
         4 000050   000106 701000 4                  TSX1    LIST
         4 000051   000000 011000                    NOP     0

       95    12160    3                   END ;

       96    12161    2               ELSE
       97    12162    2                   ;
PL6.E3A0      #001=NMD$DISPLAY File=NMD$DISPLAY.:E05TSI                          WED 07/30/97 03:47 Page:17
       98    12163    2   DCTERR:     END ;

  12163  4 000052   200005 054100       DCTERR       AOS     I,,AUTO
         4 000053   200005 235100                    LDA     I,,AUTO
         4 000054   000547 115007                    CMPA    359,DL
         4 000055   000013 604400 4                  TMOZ    s:12151
         4 000056   000105 710000 4                  TRA     RET

       99    12164
      100    12165    2           ELSE DO  I = 0 TO OUT.NSUBLKS-1 ;

  12165  4 000057   200005 450100                    STZ     I,,AUTO
         4 000060   000100 710000 4                  TRA     DEVERR+1

      101    12166    2               CALL NMO$DEV ( 0, OUT.SUBLK$(I) )   ALTRET ( DEVERR ) ;

  12166  4 000061   200005 236100                    LDQ     I,,AUTO
         4 000062   000022 736000                    QLS     18
         4 000063   000003 036003                    ADLQ    3,DU
         4 000064   000001 036000 xsym               ADLQ    XUG_GETCMD+1
         4 000065   000004 235000 5                  LDA     4
         4 000066   200024 757100                    STAQ    REC+12,,AUTO
         4 000067   200024 630500                    EPPR0   REC+12,,AUTO
         4 000070   000020 631400 xsym               EPPR1   B_VECTNIL+16
         4 000071   000000 701000 xent               TSX1    NMO$DEV
         4 000072   000077 702000 4                  TSX2    DEVERR

      102    12167    2               CALL LIST ( NMD_PIT.DEV.DCT$(0) ) ;

  12167  4 000073   000005 236000 5                  LDQ     5
         4 000074   200007 756100                    STQ     I+2,,AUTO
         4 000075   000106 701000 4                  TSX1    LIST
         4 000076   000000 011000                    NOP     0

      103    12168    2   DEVERR:     END ;

  12168  4 000077   200005 054100       DEVERR       AOS     I,,AUTO
PL6.E3A0      #001=NMD$DISPLAY File=NMD$DISPLAY.:E05TSI                          WED 07/30/97 03:47 Page:18
         4 000100   000001 470400 xsym               LDP0    XUG_GETCMD+1
         4 000101   000001 236100                    LDQ     1,,PR0
         4 000102   000022 772000                    QRL     18
         4 000103   200005 116100                    CMPQ    I,,AUTO
         4 000104   000061 605400 4                  TPNZ    s:12166

      104    12169        /*
      105    12170        Return to the calling routine.
      106    12171        */
      107    12172    1   RET:    RETURN ;

  12172  4 000105   000000 702200 xent  RET          TSX2  ! X66_ARET

      108    12173
      109    12174        %EJECT ;
PL6.E3A0      #001=NMD$DISPLAY File=NMD$DISPLAY.:E05TSI                          WED 07/30/97 03:47 Page:19
      110    12175    1   LIST:           PROC ( DCT$ ) ;

  12175  4 000106   200006 741300       LIST         STX1  ! I+1,,AUTO

      111    12176        /*
      112    12177                        Parameters
      113    12178        */
      114    12179    2   DCL 1 DCT$              PTR ALIGNED PARAM ;
      115    12180        /*
      116    12181                        Variables
      117    12182        */
      118    12183    2   DCL 1 BUF               CHAR(110) CALIGNED STATIC ;
      119    12184        %NI$DCT                 ( NAME = DCT
      120    12185                                , STCLASS = "BASED(DCT$)"
      121    12186                                                                        ) ;
      122    12234                                %F_FDS ( NAME =
      123    12235              FDS               , STCLASS = STATIC
      124    12236                                , BUF = BUF
      125    12237                                , DCB = M$LO
      126    12238                                                                        ) ;
      127    12351    2   DCL 1 FMT               CONSTANT CALIGNED,
      128    12352    2         2 *               CHAR(0) CALIGNED INIT ( '%4D ' ) ,
      129    12353    2         2 *               CHAR(0) CALIGNED INIT ( '%8A ' ),
      130    12354    2         2 *               CHAR(0) CALIGNED INIT ( '%3A ' ) ,
      131    12355    2         2 *               CHAR(0) CALIGNED INIT ( '%5D ' ),
      132    12356    2         2 *               CHAR(0) CALIGNED INIT ( '%4A  ' ),
      133    12357    2         2 *               CHAR(0) CALIGNED INIT ( '%15..3.10U '),
      134    12358    2         2 *               CHAR(0) CALIGNED INIT ( '%4A ' ),
      135    12359    2         2 *               CHAR(0) CALIGNED INIT ( '%3ZO ' ),
      136    12360    2         2 *               CHAR(0) CALIGNED INIT ( '%12ZO ' ),
      137    12361    2         2 *               CHAR(0) CALIGNED INIT ( '%8D ' ) ;
      138    12362    2   DCL 1 HEADER            CONSTANT CALIGNED,
      139    12363    2         2 *               CHAR(0) CALIGNED INIT (
      140    12364    2           'DCTX DEVNAME  MIR MDCTX STATE UTS             LOCK U#  LQ$         DRZERO'
             12364                                    ),
      141    12365    2         2 *               CHAR(0) CALIGNED INIT ( '%/' ),
      142    12366    2         2 *               CHAR(0) CALIGNED INIT (
PL6.E3A0      #001=NMD$DISPLAY File=NMD$DISPLAY.:E05TSI                          WED 07/30/97 03:47 Page:20
      143    12367    2        '---- -------- --- ----- ----- --------------- ---- --- ------------ --------'
             12367                                    ) ;
      144    12368    2   DCL 1 M$LO              DCB ;
      145    12369    2   DCL 1 REC               ALIGNED AUTO,
      146    12370    2         2 DCTX            SBIN WORD ALIGNED,
      147    12371    2         2 DEVNM           CHAR(8) CALIGNED,
      148    12372    2         2 MIR             CHAR(3) CALIGNED,
      149    12373    2         2 MDCTX           SBIN WORD ALIGNED,
      150    12374    2         2 STATE           CHAR(4) CALIGNED,
      151    12375    2         2 UTS             UBIN WORD ALIGNED,
      152    12376    2         2 LOCK            CHAR(4) CALIGNED,
      153    12377    2         2 USER#           UBIN WORD ALIGNED,
      154    12378    2         2 LQ$             PTR ALIGNED,
      155    12379    2         2 DRZERO          UBIN WORD ALIGNED ;
      156    12380
      157    12381        %EJECT ;
PL6.E3A0      #001=NMD$DISPLAY File=NMD$DISPLAY.:E05TSI                          WED 07/30/97 03:47 Page:21
      158    12382        /*
      159    12383        If necessary, output a header.
      160    12384        */
      161    12385    2           IF  HEADING

  12385  4 000107   200004 234100                    SZN     HEADING,,AUTO
         4 000110   000116 605000 4                  TPL     s:12393

      162    12386    3           THEN DO ;

      163    12387    3               CALL X$WRITE ( FDS, VECTOR ( HEADER ) ) ;

  12387  4 000111   000010 630400 5                  EPPR0   8
         4 000112   000020 631400 xsym               EPPR1   B_VECTNIL+16
         4 000113   000000 701000 xent               TSX1    X$WRITE
         4 000114   000000 011000                    NOP     0

      164    12388    3               HEADING = '0'B ;

  12388  4 000115   200004 450100                    STZ     HEADING,,AUTO

      165    12389    3               END ;

      166    12390        /*
      167    12391        Move display items from DCT to REC.
      168    12392        */
      169    12393    2           REC.DCTX  = DCT.DCTX ;

  12393  4 000116   200007 470500                    LDP0    @DCT$,,AUTO
         4 000117   000000 471500                    LDP1    0,,PR0
         4 000120   100006 236100                    LDQ     6,,PR1
         4 000121   000025 772000                    QRL     21
         4 000122   200010 756100                    STQ     REC,,AUTO

      170    12394    2           REC.DEVNM = DCT.DEVNM ;

  12394  4 000123   000000 471500                    LDP1    0,,PR0
PL6.E3A0      #001=NMD$DISPLAY File=NMD$DISPLAY.:E05TSI                          WED 07/30/97 03:47 Page:22
         4 000124   040100 100500                    MLR     fill='040'O
         4 000125   100002 000010                    ADSC9   2,,PR1                   cn=0,n=8
         4 000126   200011 000010                    ADSC9   REC+1,,AUTO              cn=0,n=8

      171    12395    2           IF  DCT.DP.MIRROR.FLAG

  12395  4 000127   000000 471500                    LDP1    0,,PR0
         4 000130   100036 234100                    SZN     30,,PR1
         4 000131   000147 605000 4                  TPL     s:12403

      172    12396    2           THEN
      173    12397    2               IF  DCT.DP.MIRROR.PRI

  12397  4 000132   100036 236100                    LDQ     30,,PR1
         4 000133   020000 316003                    CANQ    8192,DU
         4 000134   000142 600000 4                  TZE     s:12401

      174    12398    2               THEN
      175    12399    2                   REC.MIR = 'Pri' ;

  12399  4 000135   000063 236000 2                  LDQ     HEADER+38
         4 000136   000012 376000 5                  ANQ     10
         4 000137   000040 276007                    ORQ     32,DL
         4 000140   200013 756100                    STQ     REC+3,,AUTO
         4 000141   000153 710000 4                  TRA     s:12404

      176    12400    2               ELSE
      177    12401    2                   REC.MIR = 'Sec' ;

  12401  4 000142   000064 236000 2                  LDQ     HEADER+39
         4 000143   000012 376000 5                  ANQ     10
         4 000144   000040 276007                    ORQ     32,DL
         4 000145   200013 756100                    STQ     REC+3,,AUTO
         4 000146   000153 710000 4                  TRA     s:12404

      178    12402    2           ELSE
      179    12403    2               REC.MIR = 'No ' ;
PL6.E3A0      #001=NMD$DISPLAY File=NMD$DISPLAY.:E05TSI                          WED 07/30/97 03:47 Page:23

  12403  4 000147   000065 236000 2                  LDQ     HEADER+40
         4 000150   000012 376000 5                  ANQ     10
         4 000151   000040 276007                    ORQ     32,DL
         4 000152   200013 756100                    STQ     REC+3,,AUTO

      180    12404    2           REC.MDCTX = DCT.DP.MIRROR.DCTX ;

  12404  4 000153   000000 471500                    LDP1    0,,PR0
         4 000154   100037 236100                    LDQ     31,,PR1
         4 000155   000022 772000                    QRL     18
         4 000156   200014 756100                    STQ     REC+4,,AUTO

      181    12405    2           REC.STATE = SUBSTR ( NMD_PIT.STATE.TEXT.C(DCT.DP.MIRROR.STATE), 0, 4 ) ;

  12405  4 000157   000000 471500                    LDP1    0,,PR0
         4 000160   100036 236100                    LDQ     30,,PR1
         4 000161   000030 772000                    QRL     24
         4 000162   000077 376007                    ANQ     63,DL
         4 000163   000005 402007                    MPY     5,DL
         4 000164   000322 235006 xsym               LDA     NMD_PIT+210,QL
         4 000165   000323 236006 xsym               LDQ     NMD_PIT+211,QL
         4 000166   000033 773000                    LRL     27
         4 000167   000027 376000 xsym               ANQ     B_VECTNIL+23
         4 000170   200015 756100                    STQ     REC+5,,AUTO

      182    12406    2           REC.UTS   = DCT.DP.MIRROR.UTS ;

  12406  4 000171   000000 471500                    LDP1    0,,PR0
         4 000172   100040 235100                    LDA     32,,PR1
         4 000173   200016 755100                    STA     REC+6,,AUTO

      183    12407    2           IF  DCT.DP.MIRROR.LOCK

  12407  4 000174   000000 471500                    LDP1    0,,PR0
         4 000175   100036 236100                    LDQ     30,,PR1
         4 000176   040000 316003                    CANQ    16384,DU
PL6.E3A0      #001=NMD$DISPLAY File=NMD$DISPLAY.:E05TSI                          WED 07/30/97 03:47 Page:24
         4 000177   000203 600000 4                  TZE     s:12411

      184    12408    2           THEN
      185    12409    2               REC.LOCK = 'Yes ' ;

  12409  4 000200   000066 236000 2                  LDQ     HEADER+41
         4 000201   200017 756100                    STQ     REC+7,,AUTO
         4 000202   000205 710000 4                  TRA     s:12412

      186    12410    2           ELSE
      187    12411    2               REC.LOCK = 'No  ' ;

  12411  4 000203   000065 236000 2                  LDQ     HEADER+40
         4 000204   200017 756100                    STQ     REC+7,,AUTO

      188    12412    2           REC.USER#  = DCT.DP.MIRROR.USER# ;

  12412  4 000205   000000 471500                    LDP1    0,,PR0
         4 000206   100036 236100                    LDQ     30,,PR1
         4 000207   000777 376007                    ANQ     511,DL
         4 000210   200020 756100                    STQ     REC+8,,AUTO

      189    12413    2           REC.LQ$    = DCT.DP.MIRROR.LQ$ ;

  12413  4 000211   000000 471500                    LDP1    0,,PR0
         4 000212   100042 236100                    LDQ     34,,PR1
         4 000213   200021 756100                    STQ     REC+9,,AUTO

      190    12414    2           REC.DRZERO = DCT.DP.MIRROR.DRZERO ;

  12414  4 000214   000000 471500                    LDP1    0,,PR0
         4 000215   100041 235100                    LDA     33,,PR1
         4 000216   200022 755100                    STA     REC+10,,AUTO

      191    12415        /*
      192    12416        Display the values for this DCT.
      193    12417        */
PL6.E3A0      #001=NMD$DISPLAY File=NMD$DISPLAY.:E05TSI                          WED 07/30/97 03:47 Page:25
      194    12418    2           CALL X$WRITE ( FDS,
      195    12419    2                          VECTOR ( FMT        ),
      196    12420    2                          VECTOR ( REC.DCTX   ),
      197    12421    2                          VECTOR ( REC.DEVNM  ),
      198    12422    2                          VECTOR ( REC.MIR    ),
      199    12423    2                          VECTOR ( REC.MDCTX  ),
      200    12424    2                          VECTOR ( REC.STATE  ),
      201    12425    2                          VECTOR ( REC.UTS    ),
      202    12426    2                          VECTOR ( REC.LOCK   ),

  12426  4 000217   777640 235007                    LDA     -96,DL
         4 000220   200024 452500                    STP2    REC+12,,AUTO
         4 000221   200024 236100                    LDQ     REC+12,,AUTO
         4 000222   000010 036003                    ADLQ    8,DU
         4 000223   200026 757100                    STAQ    REC+14,,AUTO
         4 000224   000013 235000 5                  LDA     11
         4 000225   200030 452500                    STP2    REC+16,,AUTO
         4 000226   200030 236100                    LDQ     REC+16,,AUTO
         4 000227   000011 036003                    ADLQ    9,DU
         4 000230   200032 757100                    STAQ    REC+18,,AUTO
         4 000231   577640 235007                    LDA     -65632,DL
         4 000232   200034 452500                    STP2    REC+20,,AUTO
         4 000233   200034 236100                    LDQ     REC+20,,AUTO
         4 000234   000013 036003                    ADLQ    11,DU
         4 000235   200036 757100                    STAQ    REC+22,,AUTO
         4 000236   777640 235007                    LDA     -96,DL
         4 000237   200040 452500                    STP2    REC+24,,AUTO
         4 000240   200040 236100                    LDQ     REC+24,,AUTO
         4 000241   000014 036003                    ADLQ    12,DU
         4 000242   200042 757100                    STAQ    REC+26,,AUTO
         4 000243   777640 235007                    LDA     -96,DL
         4 000244   200044 452500                    STP2    REC+28,,AUTO
         4 000245   200044 236100                    LDQ     REC+28,,AUTO
         4 000246   000015 036003                    ADLQ    13,DU
         4 000247   200046 757100                    STAQ    REC+30,,AUTO
         4 000250   777640 235007                    LDA     -96,DL
         4 000251   200050 452500                    STP2    REC+32,,AUTO
PL6.E3A0      #001=NMD$DISPLAY File=NMD$DISPLAY.:E05TSI                          WED 07/30/97 03:47 Page:26
         4 000252   200050 236100                    LDQ     REC+32,,AUTO
         4 000253   000016 036003                    ADLQ    14,DU
         4 000254   200052 757100                    STAQ    REC+34,,AUTO
         4 000255   777640 235007                    LDA     -96,DL
         4 000256   200054 452500                    STP2    REC+36,,AUTO
         4 000257   200054 236100                    LDQ     REC+36,,AUTO
         4 000260   000017 036003                    ADLQ    15,DU
         4 000261   200056 757100                    STAQ    REC+38,,AUTO
         4 000262   777640 235007                    LDA     -96,DL
         4 000263   200060 452500                    STP2    REC+40,,AUTO
         4 000264   200060 236100                    LDQ     REC+40,,AUTO
         4 000265   000020 036003                    ADLQ    16,DU
         4 000266   200062 757100                    STAQ    REC+42,,AUTO
         4 000267   777640 235007                    LDA     -96,DL
         4 000270   200064 452500                    STP2    REC+44,,AUTO
         4 000271   200064 236100                    LDQ     REC+44,,AUTO
         4 000272   000021 036003                    ADLQ    17,DU
         4 000273   200066 757100                    STAQ    REC+46,,AUTO
         4 000274   777640 235007                    LDA     -96,DL
         4 000275   200070 452500                    STP2    REC+48,,AUTO
         4 000276   200070 236100                    LDQ     REC+48,,AUTO
         4 000277   000022 036003                    ADLQ    18,DU
         4 000300   200074 757100                    STAQ    REC+52,,AUTO
         4 000301   200026 237100                    LDAQ    REC+14,,AUTO
         4 000302   200072 757100                    STAQ    REC+50,,AUTO
         4 000303   200032 237100                    LDAQ    REC+18,,AUTO
         4 000304   200076 757100                    STAQ    REC+54,,AUTO
         4 000305   200036 237100                    LDAQ    REC+22,,AUTO
         4 000306   200100 757100                    STAQ    REC+56,,AUTO
         4 000307   200042 237100                    LDAQ    REC+26,,AUTO
         4 000310   200102 757100                    STAQ    REC+58,,AUTO
         4 000311   200046 237100                    LDAQ    REC+30,,AUTO
         4 000312   200104 757100                    STAQ    REC+60,,AUTO
         4 000313   200052 237100                    LDAQ    REC+34,,AUTO
         4 000314   200106 757100                    STAQ    REC+62,,AUTO
         4 000315   200056 237100                    LDAQ    REC+38,,AUTO
         4 000316   200110 757100                    STAQ    REC+64,,AUTO
PL6.E3A0      #001=NMD$DISPLAY File=NMD$DISPLAY.:E05TSI                          WED 07/30/97 03:47 Page:27
         4 000317   200062 237100                    LDAQ    REC+42,,AUTO
         4 000320   200112 757100                    STAQ    REC+66,,AUTO
         4 000321   200066 237100                    LDAQ    REC+46,,AUTO
         4 000322   200114 757100                    STAQ    REC+68,,AUTO
         4 000323   200074 237100                    LDAQ    REC+52,,AUTO
         4 000324   200116 757100                    STAQ    REC+70,,AUTO
         4 000325   200116 631500                    EPPR1   REC+70,,AUTO
         4 000326   200133 451500                    STP1    REC+83,,AUTO
         4 000327   200114 633500                    EPPR3   REC+68,,AUTO
         4 000330   200132 453500                    STP3    REC+82,,AUTO
         4 000331   200112 634500                    EPPR4   REC+66,,AUTO
         4 000332   200131 454500                    STP4    REC+81,,AUTO
         4 000333   200110 635500                    EPPR5   REC+64,,AUTO
         4 000334   200130 455500                    STP5    REC+80,,AUTO
         4 000335   200106 636500                    EPPR6   REC+62,,AUTO
         4 000336   200127 456500                    STP6    REC+79,,AUTO
         4 000337   200104 637500                    EPPR7   REC+60,,AUTO
         4 000340   200126 457500                    STP7    REC+78,,AUTO
         4 000341   200102 630500                    EPPR0   REC+58,,AUTO
         4 000342   200125 450500                    STP0    REC+77,,AUTO
         4 000343   200100 630500                    EPPR0   REC+56,,AUTO
         4 000344   200124 450500                    STP0    REC+76,,AUTO
         4 000345   200076 630500                    EPPR0   REC+54,,AUTO
         4 000346   200123 450500                    STP0    REC+75,,AUTO
         4 000347   200072 630500                    EPPR0   REC+50,,AUTO
         4 000350   200122 450500                    STP0    REC+74,,AUTO
         4 000351   000020 237000 5                  LDAQ    16
         4 000352   200120 757100                    STAQ    REC+72,,AUTO
         4 000353   200120 630500                    EPPR0   REC+72,,AUTO
         4 000354   000016 631400 5                  EPPR1   14
         4 000355   000000 701000 xent               TSX1    X$WRITE
         4 000356   000000 011000                    NOP     0

      203    12427    2                          VECTOR ( REC.USER#  ),
      204    12428    2                          VECTOR ( REC.LQ$    ),
      205    12429    2                          VECTOR ( REC.DRZERO ) ) ;
      206    12430        /*
PL6.E3A0      #001=NMD$DISPLAY File=NMD$DISPLAY.:E05TSI                          WED 07/30/97 03:47 Page:28
      207    12431        Return to the calling routine.
      208    12432        */
      209    12433    2           RETURN ;

  12433  4 000357   200006 221300                    LDX1  ! I+1,,AUTO
         4 000360   000001 702211                    TSX2  ! 1,X1
      210    12434
      211    12435    2           END LIST ;
      212    12436
      213    12437    1           END NMD$DISPLAY ;

PL6.E3A0      #001=NMD$DISPLAY File=NMD$DISPLAY.:E05TSI                          WED 07/30/97 03:47 Page:29
--  Include file information  --

   XU_MACRO_C.:E05TOU  is referenced.
   XU_FORMAT_C.:E05TOU  is referenced.
   XUF_ENTRY.:E05TOU  cannot be made into a system file and is referenced.
   NM_PERR_C.:E05TOU  is referenced.
   NM_SUBS_C.:E05TOU  is referenced.
   NM_EQU_E.:E05TOU  is referenced.
   CP_6_SUBS.:E05TOU  is referenced.
   NM_MACRO_M.:E05TOU  is referenced.
   NI_DATA_C.:E05TOU  is referenced.
   NI$TABLES.:E05TOU  is referenced.
   CP_6_C.:E05TOU  is referenced.
   CP_6.:E05TOU  cannot be made into a system file and is referenced.
   B_SEGIDS_C.:E05TOU  is referenced.
      No diagnostics issued in procedure NMD$DISPLAY.
PL6.E3A0      #001=NMD$DISPLAY File=NMD$DISPLAY.:E05TSI                          WED 07/30/97 03:47 Page:30

 **** Variables and constants ****

  ****  Section 001  Data  NMD$DISPLAY

  ****  Scalars and arrays  ****
OctLoc.c.b A Datatyp(siz) R M Lvl/name                 OctLoc.c.b A Datatyp(siz) R M Lvl/name

     0-0-0/c CHAR(110)   r     1 BUF                       34-0-0/w STRC(1080)  r     1 FDS

  ****  Section 002 RoData NMD$DISPLAY

  ****  Scalars and arrays  ****
OctLoc.c.b A Datatyp(siz) R M Lvl/name                 OctLoc.c.b A Datatyp(siz) R M Lvl/name

     0-0-0/c STRC(459)   r     1 FMT                       15-0-0/c STRC(1368)  r     1 HEADER

  ****  Auto variables  ****

  ****  Scalars and arrays  ****
OctLoc.c.b A Datatyp(siz) R M Lvl/name                 OctLoc.c.b A Datatyp(siz) R M Lvl/name

     7-0-0/w PTR         r     1 @DCT$                      3-0-0/w PTR         r     1 DCT$
    *0-0-0/w PTR         r     1 DCT$                       4-0-0/w BIT         r     1 HEADING
     5-0-0/w SBIN        r     1 I                         10-0-0/w STRC(396)   r     1 REC

  ****  SYMREF variables  ****

  ****  Scalars and arrays  ****
OctLoc.c.b A Datatyp(siz) R M Lvl/name                 OctLoc.c.b A Datatyp(siz) R M Lvl/name

     0-0-0/w PTR         r     1 B$TCB$                     0-0-0/d STRC(8892)  r     1 NMD_PIT
     0-0-0/d STRC(1512)  r     1 XUG_GETCMD

  ****  BASED and DCB variables  ****

  ****  Scalars and arrays  ****
OctLoc.c.b A Datatyp(siz) R M Lvl/name                 OctLoc.c.b A Datatyp(siz) R M Lvl/name
PL6.E3A0      #001=NMD$DISPLAY File=NMD$DISPLAY.:E05TSI                          WED 07/30/97 03:47 Page:31

     0-0-0/w STRC(1332)  r     1 DCT                        0-0-0/w STRC(1332)  r     1 DCT
     0-0-0N  NULL        r     1 M$LO                       0-0-0/w PTR         r     1 N$DCT$(0:0)
     0-0-0/w STRC(144)   r     1 OUT


   Procedure NMD$DISPLAY requires 241 words for executable code.
   Procedure NMD$DISPLAY requires 92 words of local(AUTO) storage.

    No errors detected in file NMD$DISPLAY.:E05TSI    .
PL6.E3A0      #001=NMD$DISPLAY File=NMD$DISPLAY.:E05TSI                          WED 07/30/97 03:47 Page:32
          *** CROSS REFERENCE LISTING ***
**     DENOTES     IDENTIFIER DEFINITION
<<                 IDENTIFIER'S VALUE SET
>>                 IDENTIFIER'S VALUE USED
<>                 IDENTIFIER SET AND/OR USED
--                 IDENTIFIER REFERENCED
PL6.E3A0      #001=NMD$DISPLAY File=NMD$DISPLAY.:E05TSI                          WED 07/30/97 03:47 Page:33
          MINI XREF LISTING

B$ALT.CODE
     11236**DCL     11236--REDEF   11237--REDEF   11237--REDEF
B$ALT.ERR.ERR#
     11238**DCL     11238--REDEF
B$ALT.EVID
     11237**DCL     11237--REDEF   11237--REDEF
B$TCB$
     11247**DCL     11245--IMP-PTR
BUF IN PROCEDURE LIST
     12183**DCL     12270--DCLINIT 12272--DCLINIT
DCT.DP
     11279**DCL     11286--REDEF   11289--REDEF   11290--REDEF   11292--REDEF   11292--REDEF   11293--REDEF
     11294--REDEF   11294--REDEF
DCT.MPC.IOCHANX
     11287**DCL     11287--REDEF
DCT.TYPE
     11269**DCL     12156>>IF
DCT.DCTX IN PROCEDURE LIST
     12196**DCL     12393>>ASSIGN
DCT.DEVNM IN PROCEDURE LIST
     12195**DCL     12394>>ASSIGN
DCT.DP IN PROCEDURE LIST
     12215**DCL     12222--REDEF   12225--REDEF   12226--REDEF   12228--REDEF   12228--REDEF   12229--REDEF
     12230--REDEF   12230--REDEF
DCT.DP.MIRROR.DCTX IN PROCEDURE LIST
     12220**DCL     12404>>ASSIGN
DCT.DP.MIRROR.DRZERO IN PROCEDURE LIST
     12221**DCL     12414>>ASSIGN
DCT.DP.MIRROR.FLAG IN PROCEDURE LIST
     12217**DCL     12395>>IF
DCT.DP.MIRROR.LOCK IN PROCEDURE LIST
     12218**DCL     12407>>IF
PL6.E3A0      #001=NMD$DISPLAY File=NMD$DISPLAY.:E05TSI                          WED 07/30/97 03:47 Page:34
DCT.DP.MIRROR.LQ$ IN PROCEDURE LIST
     12222**DCL     12413>>ASSIGN
DCT.DP.MIRROR.PRI IN PROCEDURE LIST
     12219**DCL     12397>>IF
DCT.DP.MIRROR.STATE IN PROCEDURE LIST
     12219**DCL     12405>>ASSIGN
DCT.DP.MIRROR.USER# IN PROCEDURE LIST
     12220**DCL     12412>>ASSIGN
DCT.DP.MIRROR.UTS IN PROCEDURE LIST
     12221**DCL     12406>>ASSIGN
DCT.MPC.IOCHANX IN PROCEDURE LIST
     12223**DCL     12223--REDEF
DCT$
     11298**DCL     11259--IMP-PTR 12151<>CALL    12156>>IF
DCT$ IN PROCEDURE LIST
     12179**DCL     12175--PROC    12195--IMP-PTR 12393>>ASSIGN  12394>>ASSIGN  12395>>IF      12397>>IF
     12404>>ASSIGN  12405>>ASSIGN  12406>>ASSIGN  12407>>IF      12412>>ASSIGN  12413>>ASSIGN  12414>>ASSIGN
DCTERR
     12163**LABEL   12158--CALLALT
DEVERR
     12168**LABEL   12166--CALLALT
FDS IN PROCEDURE LIST
     12252**DCL     12387<>CALL    12426<>CALL
FMT IN PROCEDURE LIST
     12351**DCL     12426--CALL
HEADER IN PROCEDURE LIST
     12362**DCL     12387--CALL
HEADING
     11299**DCL     12148<<ASSIGN  12385>>IF      12388<<ASSIGN
I
     11300**DCL     12150<<DOINDEX 12151>>CALL    12158<>CALL    12165<<DOINDEX 12166>>CALL
LIST
     12175**PROC    12159--CALL    12167--CALL
N$DCT$
     11301**DCL     12151<>CALL
NMD_PIT.DEV.DCT$
PL6.E3A0      #001=NMD$DISPLAY File=NMD$DISPLAY.:E05TSI                          WED 07/30/97 03:47 Page:35
     11365**DCL     12159<>CALL    12167<>CALL
NMD_PIT.N$DCT$$
     11627**DCL     11301--IMP-PTR 12151>>CALL
NMD_PIT.STATE.TEXT.C
     11738**DCL     12405>>ASSIGN
NMO$DCT
     11225**DCL-ENT 12158--CALL
NMO$DEV
     11226**DCL-ENT 12166--CALL
NMU$CONVERT$
     11227**DCL-ENT 12151--CALL
OUT.CODE
     11773**DCL     12149>>IF
OUT.NSUBLKS
     11777**DCL     12165>>DOINDEX
OUT.SUBLK$
     11798**DCL     12149>>IF      12166<>CALL
REC.DCTX IN PROCEDURE LIST
     12370**DCL     12393<<ASSIGN  12426--CALL
REC.DEVNM IN PROCEDURE LIST
     12371**DCL     12394<<ASSIGN  12426--CALL
REC.DRZERO IN PROCEDURE LIST
     12379**DCL     12414<<ASSIGN  12426--CALL
REC.LOCK IN PROCEDURE LIST
     12376**DCL     12409<<ASSIGN  12411<<ASSIGN  12426--CALL
REC.LQ$ IN PROCEDURE LIST
     12378**DCL     12413<<ASSIGN  12426--CALL
REC.MDCTX IN PROCEDURE LIST
     12373**DCL     12404<<ASSIGN  12426--CALL
REC.MIR IN PROCEDURE LIST
     12372**DCL     12399<<ASSIGN  12401<<ASSIGN  12403<<ASSIGN  12426--CALL
REC.STATE IN PROCEDURE LIST
     12374**DCL     12405<<ASSIGN  12426--CALL
REC.USER# IN PROCEDURE LIST
     12377**DCL     12412<<ASSIGN  12426--CALL
REC.UTS IN PROCEDURE LIST
PL6.E3A0      #001=NMD$DISPLAY File=NMD$DISPLAY.:E05TSI                          WED 07/30/97 03:47 Page:36
     12375**DCL     12406<<ASSIGN  12426--CALL
RET
     12172**LABEL   12151--CALLALT
X$WRITE
      7951**DCL-ENT 12387--CALL    12426--CALL
XUG_GETCMD.OUT$
     11824**DCL     11765--IMP-PTR 11830--REDEF   12149>>IF      12165>>DOINDEX 12166>>CALL
