VERSION E05

PL6.E3A0      #001=NMF$FAIL File=NMF$FAIL.:E05TSI                                WED 07/30/97 03:48 Page:1
        1        1        /*M* NMF$FAIL - Perform MIRROR FAIL operation.                    */
        2        2        /*T***********************************************************/
        3        3        /*T*                                                         */
        4        4        /*T* Copyright (c) Bull HN Information Systems Inc., 1997    */
        5        5        /*T*                                                         */
        6        6        /*T***********************************************************/
        7        7        /*X* DFC=YES, DMC=YES, EDMC=YES                                    */
        8        8        /*F*
        9        9        NAME:           NMF$FAIL
       10       10
       11       11        PURSPOSE:       To MIRROR FAIL operation.
       12       12        */
       13       13        /*D*
       14       14        NAME:           NMF$FAIL
       15       15
       16       16        CALL:           CALL NMF$FAIL ALTRET ( error ) ;
       17       17
       18       18        PARAMETERS:     None.
       19       19
       20       20        DESCRIPTION:
       21       21
       22       22        The NMF$FAIL procedure is used to change the state of the
       23       23        specified Mirrored Disk device to FAILed.
       24       24
       25       25        DPxx must be a Mirrored Disk that is OPERational or
       26       26        RESToringing.
       27       27
       28       28        DPyy must be a Mirrored Disk that is OPERational.
       29       29
       30       30        The DCT and VIDs for DPxx and DPyy will be updated to
       31       31        reflect that DPxx is now FAILed.
       32       32
       33       33        */
       34       34        %EJECT ;
PL6.E3A0      #001=NMF$FAIL File=NMF$FAIL.:E05TSI                                WED 07/30/97 03:48 Page:2
       35       35        NMF$FAIL:       PROC            ALTRET ;
       36       36        /*
       37       37                        Includes
       38       38        */
       39       39        %INCLUDE                CP_6 ;
       40     5598        %INCLUDE                FM$GRAN ;
       41     5667        %INCLUDE                NI_DATA_C ;
       42     5780        %INCLUDE                NM_MACRO_M ;
       43     7185        %INCLUDE                NM_PERR_C ;
       44     7262        %INCLUDE                XU_MACRO_C ;
       45    10368        /*
       46    10369                        Entries
       47    10370        */
       48    10371    1   DCL 1 NME$ERRMSG        ENTRY(6) ;
       49    10372    1   DCL 1 NMO$DCT           ENTRY(2) ALTRET ;
       50    10373    1   DCL 1 NMO$DEV           ENTRY(2) ALTRET ;
       51    10374    1   DCL 1 NMU$ABORT         ENTRY(2) ALTRET ;
       52    10375    1   DCL 1 NMU$CHGSTATE      ENTRY(3) ALTRET ;
       53    10376    1   DCL 1 NMU$READ          ENTRY(3) ALTRET ;
       54    10377    1   DCL 1 NMU$SCRUB_VID     ENTRY(2) ;
       55    10378    1   DCL 1 NMU$WRITE         ENTRY(3) ALTRET ;
       56    10379    1   DCL 1 NMV$MIRRORED      ENTRY(1) ALTRET ;
       57    10380    1   DCL 1 NMV$STATE         ENTRY(3) ALTRET ;
       58    10381        /*
       59    10382                        Variables
       60    10383        */
       61    10384                                %B$ALT ( NAME =
       62    10385              B$ALT             ,     STCLASS=BASED
       63    10386                                                                        ) ;
       64    10394                                %B$TCB  ( NAME =
       65    10395              B$TCB             , STCLASS = "BASED(B$TCB$)"
       66    10396                                                                        ) ;
       67    10399    1   DCL 1 B$TCB$            PTR SYMREF ;
       68    10400                                %FM$VID ( FM$VID =
       69    10401              FM$VID            , BASED = BASED
       70    10402                                                                        ) ;
       71    10408                                %NMD_PIT ( FPTN =
PL6.E3A0      #001=NMF$FAIL File=NMF$FAIL.:E05TSI                                WED 07/30/97 03:48 Page:3
       72    10409              NMD_PIT           , STCLASS=SYMREF
       73    10410                                                                        ) ;
       74    10863                                %PARSE$OUT ( NAME =
       75    10864              OUT               , STCLASS ="BASED(XUG_GETCMD.OUT$)"
       76    10865                                                                        ) ;
       77    10910                                %FPT_TIME ( FPTN =
       78    10911              TIME              , STCLASS = CONSTANT
       79    10912                                , DEST = UTS
       80    10913                                , SOURCE = CLOCK
       81    10914                                , TSTAMP = UTS
       82    10915                                                                        ) ;
       83    10934    1   DCL 1 UTS               UBIN WORD ALIGNED STATIC ;
       84    10935                                %XUG_GETCMD ( NAME =
       85    10936              XUG_GETCMD        , STCLASS = SYMREF
       86    10937                                                                        ) ;
       87    11275        %EJECT ;
PL6.E3A0      #001=NMF$FAIL File=NMF$FAIL.:E05TSI                                WED 07/30/97 03:48 Page:4
       88    11276        /*
       89    11277        Process the device specified on the command.
       90    11278        */
       91    11279    1           CALL NMO$DEV ( 0, OUT.SUBLK$(0) )       ALTRET ( ERROR ) ;
       92    11280        /*
       93    11281        Get UTS for this operation.
       94    11282        */
       95    11283    1           CALL M$TIME ( TIME )                    ALTRET ( ALTERR ) ;
       96    11284        /*
       97    11285        Verify that the specified device is a Mirrored Disk device
       98    11286        and that the device is either OPERational or RESToring.
       99    11287        */
      100    11288    1           CALL NMV$MIRRORED ( 0 )                 ALTRET ( ERROR ) ;
      101    11289    1           CALL NMV$STATE    ( 0, %NI_MIRROR_OPER, %NI_MIRROR_REST )
      102    11290    1                                                   ALTRET ( ERROR ) ;
      103    11291        /*
      104    11292        Get information for other Mirrored Disk device.  This device
      105    11293        must be OPERational.
      106    11294        */
      107    11295    1           CALL NMO$DCT      ( 1, NMD_PIT.DEV.MDCTX(0) )
      108    11296    1                                                   ALTRET ( ERROR ) ;
      109    11297    1           CALL NMV$STATE    ( 1, %NI_MIRROR_OPER )
      110    11298    1                                                   ALTRET ( ERROR ) ;
      111    11299        /*
      112    11300        Read, modify, and rewrite the VID for this device.
      113    11301        CANNOT TOLERATE AN ERROR ON THE REWRITE OF THE VID!!!!
      114    11302        Then change the state of this device to FAILed in the DCT.
      115    11303        */
      116    11304    1           CALL NMU$READ      ( 0, 0, NMD_PIT.DEV.VID_(0) )
      117    11305    1                                                   ALTRET ( ERROR ) ;
      118    11306    1           CALL NMU$SCRUB_VID ( 0, UTS ) ;
      119    11307    1           CALL NMU$WRITE     ( 0, 0, NMD_PIT.DEV.VID_(0) ) ;
      120    11308    1           CALL NMU$CHGSTATE  ( 0, %NI_MIRROR_FAIL, UTS )
      121    11309    1                                                   ALTRET ( ERROR ) ;
      122    11310        /*
      123    11311        Read, modify, and rewrite the VID for the other device.
      124    11312        CANNOT TOLERATE AN ERROR ON THE REWRITE OF THE VID!!!!
PL6.E3A0      #001=NMF$FAIL File=NMF$FAIL.:E05TSI                                WED 07/30/97 03:48 Page:5
      125    11313        Then change the state of the other device to OPERational in the DCT.
      126    11314        (The state is already OPERational in the DCT, but this will update
      127    11315        the UTS in the DCT to match what is in the VID.)
      128    11316        */
      129    11317    1           CALL NMU$READ     ( 1, 0, NMD_PIT.DEV.VID_(1) )
      130    11318    1                                                   ALTRET ( ERROR ) ;
      131    11319
      132    11320    1           NMD_PIT.DEV.VID$(1)->FM$VID.MIRROR.STATE(1) = %NI_MIRROR_FAIL ;
      133    11321    1           NMD_PIT.DEV.VID$(1)->FM$VID.MIRROR.UTS      = UTS ;
      134    11322
      135    11323    1           CALL NMU$WRITE    ( 1, 0, NMD_PIT.DEV.VID_(1) ) ;
      136    11324    1           CALL NMU$CHGSTATE ( 1, %NI_MIRROR_OPER, UTS )
      137    11325    1                                                   ALTRET ( ERROR ) ;
      138    11326        /*
      139    11327        Return to the calling procedure.
      140    11328        */
      141    11329    1           RETURN ;
      142    11330
      143    11331    1   ALTERR: CALL NME$ERRMSG ( B$TCB.ALT$->B$ALT.ERR ) ;
      144    11332
      145    11333    1   ERROR:  ALTRETURN ;
      146    11334
      147    11335    1           END NMF$FAIL ;

PL6.E3A0      #001=NMF$FAIL File=NMF$FAIL.:E05TSI                                WED 07/30/97 03:48 Page:6
--  Include file information  --

   XU_MACRO_C.:E05TOU  is referenced.
   NM_PERR_C.:E05TOU  is referenced.
   NM_SUBS_C.:E05TOU  is referenced.
   NM_EQU_E.:E05TOU  is referenced.
   CP_6_SUBS.:E05TOU  is referenced.
   NM_MACRO_M.:E05TOU  is referenced.
   NI_DATA_C.:E05TOU  is referenced.
   FM$GRAN.:E05TOU  is referenced.
   CP_6_C.:E05TOU  is referenced.
   CP_6.:E05TOU  cannot be made into a system file and is referenced.
      No diagnostics issued in procedure NMF$FAIL.

   Procedure NMF$FAIL requires 74 words for executable code.
   Procedure NMF$FAIL requires 6 words of local(AUTO) storage.

    No errors detected in file NMF$FAIL.:E05TSI    .

PL6.E3A0      #001=NMF$FAIL File=NMF$FAIL.:E05TSI                                WED 07/30/97 03:48 Page:7

 Object Unit name= NMF$FAIL                                   File name= NMF$FAIL.:E05TOU
 UTS= JUL 30 '97 03:48:13.84 WED                              Compiler= PL-6/E31         Sev=      00
 SharedLib= :SHARED_SYSTEM                                    Alt SharedLib=


    ****  Control sections  ****

 Sect   Type Bound  Init  Size OctSiz  Section name(segment info)
    0   DCB   even  none     0      0  M$UC
    1  RoData even  UTS     12     14  NMF$FAIL
    2   Data  even  none     1      1  NMF$FAIL
    3   Proc  even  none    74    112  NMF$FAIL
    4  RoData even  none    22     26  NMF$FAIL

    ****  Entry defs  ****

                              Check   Calling
                             calling  sequence
  Sect OctLoc Primary Altret sequence   type   Parms  Name
     3      0   yes    yes     yes      Std        0  NMF$FAIL
PL6.E3A0      #001=NMF$FAIL File=NMF$FAIL.:E05TSI                                WED 07/30/97 03:48 Page:8

  ****  Entry refs  ****

         Check        Calling
        calling       sequence
Altret sequence SRef   type   Args  Name
 yes     yes           Std       2 NMO$DEV
 yes     yes           Std       1 NMV$MIRRORED
 yes     yes           Std       3 NMU$WRITE
 yes     yes           Std       2 NMO$DCT
 yes     yes           Std       3 NMU$READ
 yes     yes           Std       3 NMU$CHGSTATE
 yes     yes           Std       3 NMV$STATE
         yes           Std       2 NMU$SCRUB_VID
         yes           Std       6 NME$ERRMSG
                       nStd      0 X66_AUTO_0
                       Std       0 B_CONSPOOL_D
                       nStd      0 X66_ARET
                       nStd      0 X66_AALT

  ****  Data refs  ****

  Flags:  r = read only, s = secondary
Flgs Name                             Flgs Name                             Flgs Name
     M$UC                                  B$TCB$                                NMD_PIT
     XUG_GETCMD                            B_VECTNIL

  ****  Segment refs  ****

  Flags:  r = read only, s = secondary
Flgs Name                             Flgs Name                             Flgs Name
     ISSID                                 NULLSID
PL6.E3A0      #001=NMF$FAIL File=NMF$FAIL.:E05TSI                                WED 07/30/97 03:48 Page:9


        1        1        /*M* NMF$FAIL - Perform MIRROR FAIL operation.                    */
        2        2        /*T***********************************************************/
        3        3        /*T*                                                         */
        4        4        /*T* Copyright (c) Bull HN Information Systems Inc., 1997    */
        5        5        /*T*                                                         */
        6        6        /*T***********************************************************/
        7        7        /*X* DFC=YES, DMC=YES, EDMC=YES                                    */
        8        8        /*F*
        9        9        NAME:           NMF$FAIL
       10       10
       11       11        PURSPOSE:       To MIRROR FAIL operation.
       12       12        */
       13       13        /*D*
       14       14        NAME:           NMF$FAIL
       15       15
       16       16        CALL:           CALL NMF$FAIL ALTRET ( error ) ;
       17       17
       18       18        PARAMETERS:     None.
       19       19
       20       20        DESCRIPTION:
       21       21
       22       22        The NMF$FAIL procedure is used to change the state of the
       23       23        specified Mirrored Disk device to FAILed.
       24       24
       25       25        DPxx must be a Mirrored Disk that is OPERational or
       26       26        RESToringing.
       27       27
       28       28        DPyy must be a Mirrored Disk that is OPERational.
       29       29
       30       30        The DCT and VIDs for DPxx and DPyy will be updated to
       31       31        reflect that DPxx is now FAILed.
       32       32
       33       33        */
       34       34        %EJECT ;
PL6.E3A0      #001=NMF$FAIL File=NMF$FAIL.:E05TSI                                WED 07/30/97 03:48 Page:10
       35       35        NMF$FAIL:       PROC            ALTRET ;

     35  3 000000   000000 700200 xent  NMF$FAIL     TSX0  ! X66_AUTO_0
         3 000001   000006 000000                    ZERO    6,0

       36       36        /*
       37       37                        Includes
       38       38        */
       39       39        %INCLUDE                CP_6 ;
       40     5598        %INCLUDE                FM$GRAN ;
       41     5667        %INCLUDE                NI_DATA_C ;
       42     5780        %INCLUDE                NM_MACRO_M ;
       43     7185        %INCLUDE                NM_PERR_C ;
       44     7262        %INCLUDE                XU_MACRO_C ;
       45    10368        /*
       46    10369                        Entries
       47    10370        */
       48    10371    1   DCL 1 NME$ERRMSG        ENTRY(6) ;
       49    10372    1   DCL 1 NMO$DCT           ENTRY(2) ALTRET ;
       50    10373    1   DCL 1 NMO$DEV           ENTRY(2) ALTRET ;
       51    10374    1   DCL 1 NMU$ABORT         ENTRY(2) ALTRET ;
       52    10375    1   DCL 1 NMU$CHGSTATE      ENTRY(3) ALTRET ;
       53    10376    1   DCL 1 NMU$READ          ENTRY(3) ALTRET ;
       54    10377    1   DCL 1 NMU$SCRUB_VID     ENTRY(2) ;
       55    10378    1   DCL 1 NMU$WRITE         ENTRY(3) ALTRET ;
       56    10379    1   DCL 1 NMV$MIRRORED      ENTRY(1) ALTRET ;
       57    10380    1   DCL 1 NMV$STATE         ENTRY(3) ALTRET ;
       58    10381        /*
       59    10382                        Variables
       60    10383        */
       61    10384                                %B$ALT ( NAME =
       62    10385              B$ALT             ,     STCLASS=BASED
       63    10386                                                                        ) ;
       64    10394                                %B$TCB  ( NAME =
       65    10395              B$TCB             , STCLASS = "BASED(B$TCB$)"
       66    10396                                                                        ) ;
       67    10399    1   DCL 1 B$TCB$            PTR SYMREF ;
PL6.E3A0      #001=NMF$FAIL File=NMF$FAIL.:E05TSI                                WED 07/30/97 03:48 Page:11
       68    10400                                %FM$VID ( FM$VID =
       69    10401              FM$VID            , BASED = BASED
       70    10402                                                                        ) ;
       71    10408                                %NMD_PIT ( FPTN =
       72    10409              NMD_PIT           , STCLASS=SYMREF
       73    10410                                                                        ) ;
       74    10863                                %PARSE$OUT ( NAME =
       75    10864              OUT               , STCLASS ="BASED(XUG_GETCMD.OUT$)"
       76    10865                                                                        ) ;
       77    10910                                %FPT_TIME ( FPTN =
       78    10911              TIME              , STCLASS = CONSTANT
       79    10912                                , DEST = UTS
       80    10913                                , SOURCE = CLOCK
       81    10914                                , TSTAMP = UTS
       82    10915                                                                        ) ;
       83    10934    1   DCL 1 UTS               UBIN WORD ALIGNED STATIC ;
       84    10935                                %XUG_GETCMD ( NAME =
       85    10936              XUG_GETCMD        , STCLASS = SYMREF
       86    10937                                                                        ) ;
       87    11275        %EJECT ;
PL6.E3A0      #001=NMF$FAIL File=NMF$FAIL.:E05TSI                                WED 07/30/97 03:48 Page:12
       88    11276        /*
       89    11277        Process the device specified on the command.
       90    11278        */
       91    11279    1           CALL NMO$DEV ( 0, OUT.SUBLK$(0) )       ALTRET ( ERROR ) ;

  11279  3 000002   000001 236000 xsym               LDQ     XUG_GETCMD+1
         3 000003   000003 036003                    ADLQ    3,DU
         3 000004   000000 235000 4                  LDA     0
         3 000005   200004 757100                    STAQ    4,,AUTO
         3 000006   200004 630500                    EPPR0   4,,AUTO
         3 000007   000020 631400 xsym               EPPR1   B_VECTNIL+16
         3 000010   000000 701000 xent               TSX1    NMO$DEV
         3 000011   000111 702000 3                  TSX2    ERROR

       92    11280        /*
       93    11281        Get UTS for this operation.
       94    11282        */
       95    11283    1           CALL M$TIME ( TIME )                    ALTRET ( ALTERR ) ;

  11283  3 000012   000000 630400 1                  EPPR0   TIME
         3 000013   420004 713400                    CLIMB   alt,+8196
         3 000014   402000 401760                    pmme    nvectors=5
         3 000015   000101 702000 3                  TSX2    ALTERR

       96    11284        /*
       97    11285        Verify that the specified device is a Mirrored Disk device
       98    11286        and that the device is either OPERational or RESToring.
       99    11287        */
      100    11288    1           CALL NMV$MIRRORED ( 0 )                 ALTRET ( ERROR ) ;

  11288  3 000016   000000 630400 4                  EPPR0   0
         3 000017   000017 631400 xsym               EPPR1   B_VECTNIL+15
         3 000020   000000 701000 xent               TSX1    NMV$MIRRORED
         3 000021   000111 702000 3                  TSX2    ERROR

      101    11289    1           CALL NMV$STATE    ( 0, %NI_MIRROR_OPER, %NI_MIRROR_REST )

PL6.E3A0      #001=NMF$FAIL File=NMF$FAIL.:E05TSI                                WED 07/30/97 03:48 Page:13
  11289  3 000022   000001 630400 4                  EPPR0   1
         3 000023   000021 631400 xsym               EPPR1   B_VECTNIL+17
         3 000024   000000 701000 xent               TSX1    NMV$STATE
         3 000025   000111 702000 3                  TSX2    ERROR

      102    11290    1                                                   ALTRET ( ERROR ) ;
      103    11291        /*
      104    11292        Get information for other Mirrored Disk device.  This device
      105    11293        must be OPERational.
      106    11294        */
      107    11295    1           CALL NMO$DCT      ( 1, NMD_PIT.DEV.MDCTX(0) )

  11295  3 000026   000004 630400 4                  EPPR0   4
         3 000027   000020 631400 xsym               EPPR1   B_VECTNIL+16
         3 000030   000000 701000 xent               TSX1    NMO$DCT
         3 000031   000111 702000 3                  TSX2    ERROR

      108    11296    1                                                   ALTRET ( ERROR ) ;
      109    11297    1           CALL NMV$STATE    ( 1, %NI_MIRROR_OPER )

  11297  3 000032   000006 630400 4                  EPPR0   6
         3 000033   000020 631400 xsym               EPPR1   B_VECTNIL+16
         3 000034   000000 701000 xent               TSX1    NMV$STATE
         3 000035   000111 702000 3                  TSX2    ERROR

      110    11298    1                                                   ALTRET ( ERROR ) ;
      111    11299        /*
      112    11300        Read, modify, and rewrite the VID for this device.
      113    11301        CANNOT TOLERATE AN ERROR ON THE REWRITE OF THE VID!!!!
      114    11302        Then change the state of this device to FAILed in the DCT.
      115    11303        */
      116    11304    1           CALL NMU$READ      ( 0, 0, NMD_PIT.DEV.VID_(0) )

  11304  3 000036   000010 630400 4                  EPPR0   8
         3 000037   000021 631400 xsym               EPPR1   B_VECTNIL+17
         3 000040   000000 701000 xent               TSX1    NMU$READ
         3 000041   000111 702000 3                  TSX2    ERROR
PL6.E3A0      #001=NMF$FAIL File=NMF$FAIL.:E05TSI                                WED 07/30/97 03:48 Page:14

      117    11305    1                                                   ALTRET ( ERROR ) ;
      118    11306    1           CALL NMU$SCRUB_VID ( 0, UTS ) ;

  11306  3 000042   000013 630400 4                  EPPR0   11
         3 000043   000020 631400 xsym               EPPR1   B_VECTNIL+16
         3 000044   000000 701000 xent               TSX1    NMU$SCRUB_VID
         3 000045   000000 011000                    NOP     0

      119    11307    1           CALL NMU$WRITE     ( 0, 0, NMD_PIT.DEV.VID_(0) ) ;

  11307  3 000046   000010 630400 4                  EPPR0   8
         3 000047   000021 631400 xsym               EPPR1   B_VECTNIL+17
         3 000050   000000 701000 xent               TSX1    NMU$WRITE
         3 000051   000000 011000                    NOP     0

      120    11308    1           CALL NMU$CHGSTATE  ( 0, %NI_MIRROR_FAIL, UTS )

  11308  3 000052   000015 630400 4                  EPPR0   13
         3 000053   000021 631400 xsym               EPPR1   B_VECTNIL+17
         3 000054   000000 701000 xent               TSX1    NMU$CHGSTATE
         3 000055   000111 702000 3                  TSX2    ERROR

      121    11309    1                                                   ALTRET ( ERROR ) ;
      122    11310        /*
      123    11311        Read, modify, and rewrite the VID for the other device.
      124    11312        CANNOT TOLERATE AN ERROR ON THE REWRITE OF THE VID!!!!
      125    11313        Then change the state of the other device to OPERational in the DCT.
      126    11314        (The state is already OPERational in the DCT, but this will update
      127    11315        the UTS in the DCT to match what is in the VID.)
      128    11316        */
      129    11317    1           CALL NMU$READ     ( 1, 0, NMD_PIT.DEV.VID_(1) )

  11317  3 000056   000020 630400 4                  EPPR0   16
         3 000057   000021 631400 xsym               EPPR1   B_VECTNIL+17
         3 000060   000000 701000 xent               TSX1    NMU$READ
         3 000061   000111 702000 3                  TSX2    ERROR
PL6.E3A0      #001=NMF$FAIL File=NMF$FAIL.:E05TSI                                WED 07/30/97 03:48 Page:15

      130    11318    1                                                   ALTRET ( ERROR ) ;
      131    11319
      132    11320    1           NMD_PIT.DEV.VID$(1)->FM$VID.MIRROR.STATE(1) = %NI_MIRROR_FAIL ;

  11320  3 000062   000064 470400 xsym               LDP0    NMD_PIT+52
         3 000063   000100 236003                    LDQ     64,DU
         3 000064   000045 752120                    STCQ    37,'20'O,PR0

      133    11321    1           NMD_PIT.DEV.VID$(1)->FM$VID.MIRROR.UTS      = UTS ;

  11321  3 000065   000064 470400 xsym               LDP0    NMD_PIT+52
         3 000066   000000 235000 2                  LDA     UTS
         3 000067   000044 755100                    STA     36,,PR0

      134    11322
      135    11323    1           CALL NMU$WRITE    ( 1, 0, NMD_PIT.DEV.VID_(1) ) ;

  11323  3 000070   000020 630400 4                  EPPR0   16
         3 000071   000021 631400 xsym               EPPR1   B_VECTNIL+17
         3 000072   000000 701000 xent               TSX1    NMU$WRITE
         3 000073   000000 011000                    NOP     0

      136    11324    1           CALL NMU$CHGSTATE ( 1, %NI_MIRROR_OPER, UTS )

  11324  3 000074   000023 630400 4                  EPPR0   19
         3 000075   000021 631400 xsym               EPPR1   B_VECTNIL+17
         3 000076   000000 701000 xent               TSX1    NMU$CHGSTATE
         3 000077   000111 702000 3                  TSX2    ERROR

      137    11325    1                                                   ALTRET ( ERROR ) ;
      138    11326        /*
      139    11327        Return to the calling procedure.
      140    11328        */
      141    11329    1           RETURN ;

  11329  3 000100   000000 702200 xent               TSX2  ! X66_ARET
PL6.E3A0      #001=NMF$FAIL File=NMF$FAIL.:E05TSI                                WED 07/30/97 03:48 Page:16

      142    11330
      143    11331    1   ALTERR: CALL NME$ERRMSG ( B$TCB.ALT$->B$ALT.ERR ) ;

  11331  3 000101   000000 470400 xsym  ALTERR       LDP0    B$TCB$
         3 000102   000000 471500                    LDP1    0,,PR0
         3 000103   100102 633500                    EPPR3   66,,PR1
         3 000104   200004 453500                    STP3    4,,AUTO
         3 000105   200004 630500                    EPPR0   4,,AUTO
         3 000106   000017 631400 xsym               EPPR1   B_VECTNIL+15
         3 000107   000000 701000 xent               TSX1    NME$ERRMSG
         3 000110   000000 011000                    NOP     0

      144    11332
      145    11333    1   ERROR:  ALTRETURN ;

  11333  3 000111   000000 702200 xent  ERROR        TSX2  ! X66_AALT
      146    11334
      147    11335    1           END NMF$FAIL ;

PL6.E3A0      #001=NMF$FAIL File=NMF$FAIL.:E05TSI                                WED 07/30/97 03:48 Page:17
--  Include file information  --

   XU_MACRO_C.:E05TOU  is referenced.
   NM_PERR_C.:E05TOU  is referenced.
   NM_SUBS_C.:E05TOU  is referenced.
   NM_EQU_E.:E05TOU  is referenced.
   CP_6_SUBS.:E05TOU  is referenced.
   NM_MACRO_M.:E05TOU  is referenced.
   NI_DATA_C.:E05TOU  is referenced.
   FM$GRAN.:E05TOU  is referenced.
   CP_6_C.:E05TOU  is referenced.
   CP_6.:E05TOU  cannot be made into a system file and is referenced.
      No diagnostics issued in procedure NMF$FAIL.
PL6.E3A0      #001=NMF$FAIL File=NMF$FAIL.:E05TSI                                WED 07/30/97 03:48 Page:18

 **** Variables and constants ****

  ****  Section 001 RoData NMF$FAIL

  ****  Scalars and arrays  ****
OctLoc.c.b A Datatyp(siz) R M Lvl/name                 OctLoc.c.b A Datatyp(siz) R M Lvl/name

     0-0-0/d STRC(432)   r     1 TIME

  ****  Section 002  Data  NMF$FAIL

  ****  Scalars and arrays  ****
OctLoc.c.b A Datatyp(siz) R M Lvl/name                 OctLoc.c.b A Datatyp(siz) R M Lvl/name

     0-0-0/w UBIN        r     1 UTS

  ****  SYMREF variables  ****

  ****  Scalars and arrays  ****
OctLoc.c.b A Datatyp(siz) R M Lvl/name                 OctLoc.c.b A Datatyp(siz) R M Lvl/name

     0-0-0/w PTR         r     1 B$TCB$                     0-0-0/d STRC(8892)  r     1 NMD_PIT
     0-0-0/d STRC(1512)  r     1 XUG_GETCMD

  ****  BASED and DCB variables  ****

  ****  Scalars and arrays  ****
OctLoc.c.b A Datatyp(siz) R M Lvl/name                 OctLoc.c.b A Datatyp(siz) R M Lvl/name

     0-0-0/w STRC(2448)  r     1 B$ALT                      0-0-0/w STRC(144)   r     1 B$TCB
     0-0-0/w STRC(36864) r     1 FM$VID                     0-0-0/w STRC(144)   r     1 OUT


   Procedure NMF$FAIL requires 74 words for executable code.
   Procedure NMF$FAIL requires 6 words of local(AUTO) storage.
PL6.E3A0      #001=NMF$FAIL File=NMF$FAIL.:E05TSI                                WED 07/30/97 03:48 Page:19

    No errors detected in file NMF$FAIL.:E05TSI    .
PL6.E3A0      #001=NMF$FAIL File=NMF$FAIL.:E05TSI                                WED 07/30/97 03:48 Page:20
          *** CROSS REFERENCE LISTING ***
**     DENOTES     IDENTIFIER DEFINITION
<<                 IDENTIFIER'S VALUE SET
>>                 IDENTIFIER'S VALUE USED
<>                 IDENTIFIER SET AND/OR USED
--                 IDENTIFIER REFERENCED
PL6.E3A0      #001=NMF$FAIL File=NMF$FAIL.:E05TSI                                WED 07/30/97 03:48 Page:21
          MINI XREF LISTING

ALTERR
     11331**LABEL   11283--CALLALT
B$ALT.CODE
     10388**DCL     10388--REDEF   10389--REDEF   10389--REDEF
B$ALT.ERR
     10389**DCL     11331<>CALL
B$ALT.ERR.ERR#
     10390**DCL     10390--REDEF
B$ALT.EVID
     10389**DCL     10389--REDEF   10389--REDEF
B$TCB.ALT$
     10397**DCL     11331>>CALL
B$TCB$
     10399**DCL     10397--IMP-PTR 11331>>CALL
ERROR
     11333**LABEL   11279--CALLALT 11288--CALLALT 11289--CALLALT 11295--CALLALT 11297--CALLALT 11304--CALLALT
     11308--CALLALT 11317--CALLALT 11324--CALLALT
FM$VID.DTT
     10405**DCL     10405--REDEF
FM$VID.MIRROR.STATE
     10404**DCL     11320<<ASSIGN
FM$VID.MIRROR.UTS
     10404**DCL     11321<<ASSIGN
M$TIME
      5593**DCL-ENT 11283--CALL
NMD_PIT.DEV.MDCTX
     10521**DCL     11295<>CALL
NMD_PIT.DEV.VID$
     10573**DCL     11320>>ASSIGN  11321>>ASSIGN
NMD_PIT.DEV.VID_
     10567**DCL     11304<>CALL    11307<>CALL    11317<>CALL    11323<>CALL
NME$ERRMSG
PL6.E3A0      #001=NMF$FAIL File=NMF$FAIL.:E05TSI                                WED 07/30/97 03:48 Page:22
     10371**DCL-ENT 11331--CALL
NMO$DCT
     10372**DCL-ENT 11295--CALL
NMO$DEV
     10373**DCL-ENT 11279--CALL
NMU$CHGSTATE
     10375**DCL-ENT 11308--CALL    11324--CALL
NMU$READ
     10376**DCL-ENT 11304--CALL    11317--CALL
NMU$SCRUB_VID
     10377**DCL-ENT 11306--CALL
NMU$WRITE
     10378**DCL-ENT 11307--CALL    11323--CALL
NMV$MIRRORED
     10379**DCL-ENT 11288--CALL
NMV$STATE
     10380**DCL-ENT 11289--CALL    11297--CALL
OUT.SUBLK$
     10904**DCL     11279<>CALL
TIME
     10926**DCL     11283<>CALL
TIME.V
     10930**DCL     10926--DCLINIT
UTS
     10934**DCL     10930--DCLINIT 11306<>CALL    11308<>CALL    11321>>ASSIGN  11324<>CALL
XUG_GETCMD.OUT$
     10955**DCL     10871--IMP-PTR 10961--REDEF   11279>>CALL
