VERSION E05

PL6.E3A0      #001=NMS$SWITCH File=NMS$SWITCH.:E05TSI                            WED 07/30/97 03:50 Page:1
        1        1        /*M* NMS$SWITCH - Perform MIRROR SWITCH operation.                 */
        2        2        /*T***********************************************************/
        3        3        /*T*                                                         */
        4        4        /*T* Copyright (c) Bull HN Information Systems Inc., 1997    */
        5        5        /*T*                                                         */
        6        6        /*T***********************************************************/
        7        7        /*X* DFC=YES, DMC=YES, EDMC=YES                                    */
        8        8        /*F*
        9        9        NAME:           NMS$SWITCH
       10       10
       11       11        PURSPOSE:       To MIRROR SWITCH operation.
       12       12        */
       13       13        /*D*
       14       14        NAME:           NMS$SWITCH
       15       15
       16       16        CALL:           CALL NMS$SWITCH ALTRET ( error ) ;
       17       17
       18       18        PARAMETERS:     None.
       19       19
       20       20        DESCRIPTION:
       21       21
       22       22        The NMS$SWITCH procedure is used to switch the primary
       23       23        Mirrored Disk device to the specified device.
       24       24
       25       25        DPxx must be a Mirrored Disk that is operational and
       26       26        is not currently the primary Mirrored Disk device.
       27       27
       28       28        */
       29       29        %EJECT ;
PL6.E3A0      #001=NMS$SWITCH File=NMS$SWITCH.:E05TSI                            WED 07/30/97 03:50 Page:2
       30       30        NMS$SWITCH:     PROC            ALTRET ;
       31       31        /*
       32       32                        Includes
       33       33        */
       34       34        %INCLUDE                CP_6 ;
       35     5593        %INCLUDE                NI_DATA_C ;
       36     5706        %INCLUDE                NM_MACRO_M ;
       37     7111        %INCLUDE                NM_PERR_C ;
       38     7188        %INCLUDE                XU_MACRO_C ;
       39    10294        /*
       40    10295                        Entries
       41    10296        */
       42    10297    1   DCL 1 NME$ERRMSG        ENTRY(6) ;
       43    10298    1   DCL 1 NMO$DCT           ENTRY(2) ALTRET ;
       44    10299    1   DCL 1 NMO$DEV           ENTRY(2) ALTRET ;
       45    10300    1   DCL 1 NMV$MIRRORED      ENTRY(1) ALTRET ;
       46    10301    1   DCL 1 NMV$PRIMARY       ENTRY(1) ALTRET ;
       47    10302    1   DCL 1 NMV$STATE         ENTRY(3) ALTRET ;
       48    10303        /*
       49    10304                        Variables
       50    10305        */
       51    10306                                %B$ALT ( NAME =
       52    10307              B$ALT             ,     STCLASS=BASED
       53    10308                                                                        ) ;
       54    10316                                %B$TCB  ( NAME =
       55    10317              B$TCB             , STCLASS = "BASED(B$TCB$)"
       56    10318                                                                        ) ;
       57    10321    1   DCL 1 B$TCB$            PTR SYMREF ;
       58    10322    1   DCL 1 MDCTX             SBIN WORD ALIGNED AUTO ;
       59    10323                                %NMD_PIT ( FPTN =
       60    10324              NMD_PIT           , STCLASS=SYMREF
       61    10325                                                                        ) ;
       62    10778                                %PARSE$OUT ( NAME =
       63    10779              OUT               , STCLASS ="BASED(XUG_GETCMD.OUT$)"
       64    10780                                                                        ) ;
       65    10825                                %FPT_MIRROR ( FPTN =
       66    10826               SWITCH           , STCLASS = STATIC
PL6.E3A0      #001=NMS$SWITCH File=NMS$SWITCH.:E05TSI                            WED 07/30/97 03:50 Page:3
       67    10827                                , DCTX = 0
       68    10828                                , FUNCTION = SWITCH
       69    10829                                , MDCTX = 0
       70    10830                                , UTS = 0
       71    10831                                                                        ) ;
       72    10854                                %XUG_GETCMD ( NAME =
       73    10855              XUG_GETCMD        , STCLASS = SYMREF
       74    10856                                                                        ) ;
       75    11194        %EJECT ;
PL6.E3A0      #001=NMS$SWITCH File=NMS$SWITCH.:E05TSI                            WED 07/30/97 03:50 Page:4
       76    11195        /*
       77    11196        Process the devices and options specified on the command.
       78    11197        */
       79    11198    1           CALL NMO$DEV ( 0, OUT.SUBLK$(0) )       ALTRET ( ERROR ) ;
       80    11199        /*
       81    11200        Verify that the specified device is a Mirrored Disk device that
       82    11201        is operational.
       83    11202        */
       84    11203    1           CALL NMV$MIRRORED ( 0 )                 ALTRET ( ERROR ) ;
       85    11204    1           CALL NMV$STATE    ( 0, %NI_MIRROR_OPER )
       86    11205    1                                                   ALTRET ( ERROR ) ;
       87    11206        /*
       88    11207        Get information for other Mirrored Disk device.  Verify that
       89    11208        this Mirrored Disk device is the primary Mirrored Disk device.
       90    11209        */
       91    11210    1           CALL NMO$DCT      ( 1, NMD_PIT.DEV.MDCTX(0) )
       92    11211    1                                                   ALTRET ( ERROR ) ;
       93    11212    1           CALL NMV$MIRRORED ( 1 )                 ALTRET ( ERROR ) ;
       94    11213    1           CALL NMV$PRIMARY  ( 1 )                 ALTRET ( ERROR ) ;
       95    11214        /*
       96    11215        Switch the primary Mirrored Disk device to the specified device.
       97    11216        */
       98    11217    1           SWITCH.V.DCTX#  = NMD_PIT.DEV.DCTX(0) ;
       99    11218
      100    11219    1           CALL M$MIRROR ( SWITCH )                ALTRET ( ALTERR ) ;
      101    11220        /*
      102    11221        Return to the calling routine.
      103    11222        */
      104    11223    1           RETURN ;
      105    11224
      106    11225    1   ALTERR: CALL NME$ERRMSG ( B$TCB.ALT$->B$ALT.ERR ) ;
      107    11226
      108    11227    1   ERROR:  ALTRETURN ;
      109    11228
      110    11229    1           END NMS$SWITCH ;

PL6.E3A0      #001=NMS$SWITCH File=NMS$SWITCH.:E05TSI                            WED 07/30/97 03:50 Page:5
--  Include file information  --

   XU_MACRO_C.:E05TOU  is referenced.
   NM_PERR_C.:E05TOU  is referenced.
   NM_SUBS_C.:E05TOU  is referenced.
   NM_EQU_E.:E05TOU  is referenced.
   CP_6_SUBS.:E05TOU  is referenced.
   NM_MACRO_M.:E05TOU  is referenced.
   NI_DATA_C.:E05TOU  is referenced.
   CP_6_C.:E05TOU  is referenced.
   CP_6.:E05TOU  cannot be made into a system file and is referenced.
      No diagnostics issued in procedure NMS$SWITCH.

   Procedure NMS$SWITCH requires 46 words for executable code.
   Procedure NMS$SWITCH requires 6 words of local(AUTO) storage.

    No errors detected in file NMS$SWITCH.:E05TSI    .

PL6.E3A0      #001=NMS$SWITCH File=NMS$SWITCH.:E05TSI                            WED 07/30/97 03:50 Page:6

 Object Unit name= NMS$SWITCH                                 File name= NMS$SWITCH.:E05TOU
 UTS= JUL 30 '97 03:50:16.60 WED                              Compiler= PL-6/E31         Sev=      00
 SharedLib= :SHARED_SYSTEM                                    Alt SharedLib=


    ****  Control sections  ****

 Sect   Type Bound  Init  Size OctSiz  Section name(segment info)
    0   DCB   even  none     0      0  M$UC
    1   Data  even  none     6      6  NMS$SWITCH
    2   Proc  even  none    46     56  NMS$SWITCH
    3  RoData even  none     5      5  NMS$SWITCH

    ****  Entry defs  ****

                              Check   Calling
                             calling  sequence
  Sect OctLoc Primary Altret sequence   type   Parms  Name
     2      0   yes    yes     yes      Std        0  NMS$SWITCH

  ****  Entry refs  ****

         Check        Calling
        calling       sequence
Altret sequence SRef   type   Args  Name
 yes     yes           Std       2 NMO$DEV
 yes     yes           Std       1 NMV$MIRRORED
 yes     yes           Std       1 NMV$PRIMARY
 yes     yes           Std       2 NMO$DCT
 yes     yes           Std       3 NMV$STATE
         yes           Std       6 NME$ERRMSG
                       nStd      0 X66_AUTO_0
                       Std       0 B_CONSPOOL_D
                       nStd      0 X66_ARET
                       nStd      0 X66_AALT
PL6.E3A0      #001=NMS$SWITCH File=NMS$SWITCH.:E05TSI                            WED 07/30/97 03:50 Page:7

  ****  Data refs  ****

  Flags:  r = read only, s = secondary
Flgs Name                             Flgs Name                             Flgs Name
     M$UC                                  B$TCB$                                NMD_PIT
     XUG_GETCMD                            B_VECTNIL

  ****  Segment refs  ****

  Flags:  r = read only, s = secondary
Flgs Name                             Flgs Name                             Flgs Name
     ISSID
PL6.E3A0      #001=NMS$SWITCH File=NMS$SWITCH.:E05TSI                            WED 07/30/97 03:50 Page:8


        1        1        /*M* NMS$SWITCH - Perform MIRROR SWITCH operation.                 */
        2        2        /*T***********************************************************/
        3        3        /*T*                                                         */
        4        4        /*T* Copyright (c) Bull HN Information Systems Inc., 1997    */
        5        5        /*T*                                                         */
        6        6        /*T***********************************************************/
        7        7        /*X* DFC=YES, DMC=YES, EDMC=YES                                    */
        8        8        /*F*
        9        9        NAME:           NMS$SWITCH
       10       10
       11       11        PURSPOSE:       To MIRROR SWITCH operation.
       12       12        */
       13       13        /*D*
       14       14        NAME:           NMS$SWITCH
       15       15
       16       16        CALL:           CALL NMS$SWITCH ALTRET ( error ) ;
       17       17
       18       18        PARAMETERS:     None.
       19       19
       20       20        DESCRIPTION:
       21       21
       22       22        The NMS$SWITCH procedure is used to switch the primary
       23       23        Mirrored Disk device to the specified device.
       24       24
       25       25        DPxx must be a Mirrored Disk that is operational and
       26       26        is not currently the primary Mirrored Disk device.
       27       27
       28       28        */
       29       29        %EJECT ;
PL6.E3A0      #001=NMS$SWITCH File=NMS$SWITCH.:E05TSI                            WED 07/30/97 03:50 Page:9
       30       30        NMS$SWITCH:     PROC            ALTRET ;

     30  2 000000   000000 700200 xent  NMS$SWITCH   TSX0  ! X66_AUTO_0
         2 000001   000006 000000                    ZERO    6,0

       31       31        /*
       32       32                        Includes
       33       33        */
       34       34        %INCLUDE                CP_6 ;
       35     5593        %INCLUDE                NI_DATA_C ;
       36     5706        %INCLUDE                NM_MACRO_M ;
       37     7111        %INCLUDE                NM_PERR_C ;
       38     7188        %INCLUDE                XU_MACRO_C ;
       39    10294        /*
       40    10295                        Entries
       41    10296        */
       42    10297    1   DCL 1 NME$ERRMSG        ENTRY(6) ;
       43    10298    1   DCL 1 NMO$DCT           ENTRY(2) ALTRET ;
       44    10299    1   DCL 1 NMO$DEV           ENTRY(2) ALTRET ;
       45    10300    1   DCL 1 NMV$MIRRORED      ENTRY(1) ALTRET ;
       46    10301    1   DCL 1 NMV$PRIMARY       ENTRY(1) ALTRET ;
       47    10302    1   DCL 1 NMV$STATE         ENTRY(3) ALTRET ;
       48    10303        /*
       49    10304                        Variables
       50    10305        */
       51    10306                                %B$ALT ( NAME =
       52    10307              B$ALT             ,     STCLASS=BASED
       53    10308                                                                        ) ;
       54    10316                                %B$TCB  ( NAME =
       55    10317              B$TCB             , STCLASS = "BASED(B$TCB$)"
       56    10318                                                                        ) ;
       57    10321    1   DCL 1 B$TCB$            PTR SYMREF ;
       58    10322    1   DCL 1 MDCTX             SBIN WORD ALIGNED AUTO ;
       59    10323                                %NMD_PIT ( FPTN =
       60    10324              NMD_PIT           , STCLASS=SYMREF
       61    10325                                                                        ) ;
       62    10778                                %PARSE$OUT ( NAME =
PL6.E3A0      #001=NMS$SWITCH File=NMS$SWITCH.:E05TSI                            WED 07/30/97 03:50 Page:10
       63    10779              OUT               , STCLASS ="BASED(XUG_GETCMD.OUT$)"
       64    10780                                                                        ) ;
       65    10825                                %FPT_MIRROR ( FPTN =
       66    10826               SWITCH           , STCLASS = STATIC
       67    10827                                , DCTX = 0
       68    10828                                , FUNCTION = SWITCH
       69    10829                                , MDCTX = 0
       70    10830                                , UTS = 0
       71    10831                                                                        ) ;
       72    10854                                %XUG_GETCMD ( NAME =
       73    10855              XUG_GETCMD        , STCLASS = SYMREF
       74    10856                                                                        ) ;
       75    11194        %EJECT ;
PL6.E3A0      #001=NMS$SWITCH File=NMS$SWITCH.:E05TSI                            WED 07/30/97 03:50 Page:11
       76    11195        /*
       77    11196        Process the devices and options specified on the command.
       78    11197        */
       79    11198    1           CALL NMO$DEV ( 0, OUT.SUBLK$(0) )       ALTRET ( ERROR ) ;

  11198  2 000002   000001 236000 xsym               LDQ     XUG_GETCMD+1
         2 000003   000003 036003                    ADLQ    3,DU
         2 000004   000000 235000 3                  LDA     0
         2 000005   200004 757100                    STAQ    4,,AUTO
         2 000006   200004 630500                    EPPR0   4,,AUTO
         2 000007   000020 631400 xsym               EPPR1   B_VECTNIL+16
         2 000010   000000 701000 xent               TSX1    NMO$DEV
         2 000011   000055 702000 2                  TSX2    ERROR

       80    11199        /*
       81    11200        Verify that the specified device is a Mirrored Disk device that
       82    11201        is operational.
       83    11202        */
       84    11203    1           CALL NMV$MIRRORED ( 0 )                 ALTRET ( ERROR ) ;

  11203  2 000012   000000 630400 3                  EPPR0   0
         2 000013   000017 631400 xsym               EPPR1   B_VECTNIL+15
         2 000014   000000 701000 xent               TSX1    NMV$MIRRORED
         2 000015   000055 702000 2                  TSX2    ERROR

       85    11204    1           CALL NMV$STATE    ( 0, %NI_MIRROR_OPER )

  11204  2 000016   000001 630400 3                  EPPR0   1
         2 000017   000020 631400 xsym               EPPR1   B_VECTNIL+16
         2 000020   000000 701000 xent               TSX1    NMV$STATE
         2 000021   000055 702000 2                  TSX2    ERROR

       86    11205    1                                                   ALTRET ( ERROR ) ;
       87    11206        /*
       88    11207        Get information for other Mirrored Disk device.  Verify that
       89    11208        this Mirrored Disk device is the primary Mirrored Disk device.
       90    11209        */
PL6.E3A0      #001=NMS$SWITCH File=NMS$SWITCH.:E05TSI                            WED 07/30/97 03:50 Page:12
       91    11210    1           CALL NMO$DCT      ( 1, NMD_PIT.DEV.MDCTX(0) )

  11210  2 000022   000003 630400 3                  EPPR0   3
         2 000023   000020 631400 xsym               EPPR1   B_VECTNIL+16
         2 000024   000000 701000 xent               TSX1    NMO$DCT
         2 000025   000055 702000 2                  TSX2    ERROR

       92    11211    1                                                   ALTRET ( ERROR ) ;
       93    11212    1           CALL NMV$MIRRORED ( 1 )                 ALTRET ( ERROR ) ;

  11212  2 000026   000003 630400 3                  EPPR0   3
         2 000027   000017 631400 xsym               EPPR1   B_VECTNIL+15
         2 000030   000000 701000 xent               TSX1    NMV$MIRRORED
         2 000031   000055 702000 2                  TSX2    ERROR

       94    11213    1           CALL NMV$PRIMARY  ( 1 )                 ALTRET ( ERROR ) ;

  11213  2 000032   000003 630400 3                  EPPR0   3
         2 000033   000017 631400 xsym               EPPR1   B_VECTNIL+15
         2 000034   000000 701000 xent               TSX1    NMV$PRIMARY
         2 000035   000055 702000 2                  TSX2    ERROR

       95    11214        /*
       96    11215        Switch the primary Mirrored Disk device to the specified device.
       97    11216        */
       98    11217    1           SWITCH.V.DCTX#  = NMD_PIT.DEV.DCTX(0) ;

  11217  2 000036   000011 720000 xsym               LXL0    NMD_PIT+9
         2 000037   000002 440000 1                  SXL0    SWITCH+2

       99    11218
      100    11219    1           CALL M$MIRROR ( SWITCH )                ALTRET ( ALTERR ) ;

  11219  2 000040   000000 630400 1                  EPPR0   SWITCH
         2 000041   470010 713400                    CLIMB   alt,+28680
         2 000042   400000 401760                    pmme    nvectors=1
         2 000043   000045 702000 2                  TSX2    ALTERR
PL6.E3A0      #001=NMS$SWITCH File=NMS$SWITCH.:E05TSI                            WED 07/30/97 03:50 Page:13

      101    11220        /*
      102    11221        Return to the calling routine.
      103    11222        */
      104    11223    1           RETURN ;

  11223  2 000044   000000 702200 xent               TSX2  ! X66_ARET

      105    11224
      106    11225    1   ALTERR: CALL NME$ERRMSG ( B$TCB.ALT$->B$ALT.ERR ) ;

  11225  2 000045   000000 470400 xsym  ALTERR       LDP0    B$TCB$
         2 000046   000000 471500                    LDP1    0,,PR0
         2 000047   100102 633500                    EPPR3   66,,PR1
         2 000050   200004 453500                    STP3    4,,AUTO
         2 000051   200004 630500                    EPPR0   4,,AUTO
         2 000052   000017 631400 xsym               EPPR1   B_VECTNIL+15
         2 000053   000000 701000 xent               TSX1    NME$ERRMSG
         2 000054   000000 011000                    NOP     0

      107    11226
      108    11227    1   ERROR:  ALTRETURN ;

  11227  2 000055   000000 702200 xent  ERROR        TSX2  ! X66_AALT
      109    11228
      110    11229    1           END NMS$SWITCH ;

PL6.E3A0      #001=NMS$SWITCH File=NMS$SWITCH.:E05TSI                            WED 07/30/97 03:50 Page:14
--  Include file information  --

   XU_MACRO_C.:E05TOU  is referenced.
   NM_PERR_C.:E05TOU  is referenced.
   NM_SUBS_C.:E05TOU  is referenced.
   NM_EQU_E.:E05TOU  is referenced.
   CP_6_SUBS.:E05TOU  is referenced.
   NM_MACRO_M.:E05TOU  is referenced.
   NI_DATA_C.:E05TOU  is referenced.
   CP_6_C.:E05TOU  is referenced.
   CP_6.:E05TOU  cannot be made into a system file and is referenced.
      No diagnostics issued in procedure NMS$SWITCH.
PL6.E3A0      #001=NMS$SWITCH File=NMS$SWITCH.:E05TSI                            WED 07/30/97 03:50 Page:15

 **** Variables and constants ****

  ****  Section 001  Data  NMS$SWITCH

  ****  Scalars and arrays  ****
OctLoc.c.b A Datatyp(siz) R M Lvl/name                 OctLoc.c.b A Datatyp(siz) R M Lvl/name

     0-0-0/d STRC(216)   r     1 SWITCH

  ****  SYMREF variables  ****

  ****  Scalars and arrays  ****
OctLoc.c.b A Datatyp(siz) R M Lvl/name                 OctLoc.c.b A Datatyp(siz) R M Lvl/name

     0-0-0/w PTR         r     1 B$TCB$                     0-0-0/d STRC(8892)  r     1 NMD_PIT
     0-0-0/d STRC(1512)  r     1 XUG_GETCMD

  ****  BASED and DCB variables  ****

  ****  Scalars and arrays  ****
OctLoc.c.b A Datatyp(siz) R M Lvl/name                 OctLoc.c.b A Datatyp(siz) R M Lvl/name

     0-0-0/w STRC(2448)  r     1 B$ALT                      0-0-0/w STRC(144)   r     1 B$TCB
     0-0-0/w STRC(144)   r     1 OUT


   Procedure NMS$SWITCH requires 46 words for executable code.
   Procedure NMS$SWITCH requires 6 words of local(AUTO) storage.

    No errors detected in file NMS$SWITCH.:E05TSI    .
PL6.E3A0      #001=NMS$SWITCH File=NMS$SWITCH.:E05TSI                            WED 07/30/97 03:50 Page:16
          *** CROSS REFERENCE LISTING ***
**     DENOTES     IDENTIFIER DEFINITION
<<                 IDENTIFIER'S VALUE SET
>>                 IDENTIFIER'S VALUE USED
<>                 IDENTIFIER SET AND/OR USED
--                 IDENTIFIER REFERENCED
PL6.E3A0      #001=NMS$SWITCH File=NMS$SWITCH.:E05TSI                            WED 07/30/97 03:50 Page:17
          MINI XREF LISTING

ALTERR
     11225**LABEL   11219--CALLALT
B$ALT.CODE
     10310**DCL     10310--REDEF   10311--REDEF   10311--REDEF
B$ALT.ERR
     10311**DCL     11225<>CALL
B$ALT.ERR.ERR#
     10312**DCL     10312--REDEF
B$ALT.EVID
     10311**DCL     10311--REDEF   10311--REDEF
B$TCB.ALT$
     10319**DCL     11225>>CALL
B$TCB$
     10321**DCL     10319--IMP-PTR 11225>>CALL
ERROR
     11227**LABEL   11198--CALLALT 11203--CALLALT 11204--CALLALT 11210--CALLALT 11212--CALLALT 11213--CALLALT
M$MIRROR
      5572**DCL-ENT 11219--CALL
NMD_PIT.DEV.DCTX
     10391**DCL     11217>>ASSIGN
NMD_PIT.DEV.MDCTX
     10436**DCL     11210<>CALL
NME$ERRMSG
     10297**DCL-ENT 11225--CALL
NMO$DCT
     10298**DCL-ENT 11210--CALL
NMO$DEV
     10299**DCL-ENT 11198--CALL
NMV$MIRRORED
     10300**DCL-ENT 11203--CALL    11212--CALL
NMV$PRIMARY
     10301**DCL-ENT 11213--CALL
PL6.E3A0      #001=NMS$SWITCH File=NMS$SWITCH.:E05TSI                            WED 07/30/97 03:50 Page:18
NMV$STATE
     10302**DCL-ENT 11204--CALL
OUT.SUBLK$
     10819**DCL     11198<>CALL
SWITCH
     10848**DCL     11219<>CALL
SWITCH.V
     10848**DCL     10848--DCLINIT
SWITCH.V.DCTX#
     10850**DCL     11217<<ASSIGN
XUG_GETCMD.OUT$
     10874**DCL     10786--IMP-PTR 10880--REDEF   11198>>CALL
