PL6.E3A0      #015=NMU$WRITE File=NMU$UTIL.:E05TSI                               WED 07/30/97 03:58 Page:251
     1433        1        /*M* NMU$WRITE - WRITE the selected device.                        */
     1434        2        /*T***********************************************************/
     1435        3        /*T*                                                         */
     1436        4        /*T* Copyright (c) Bull HN Information Systems Inc., 1997    */
     1437        5        /*T*                                                         */
     1438        6        /*T***********************************************************/
     1439        7        /*X* DFC=YES, DMC=YES, EDMC=YES                                    */
     1440        8        /*F*
     1441        9        NAME:           NMU$WRITE
     1442       10
     1443       11        PURPOSE:        To write to the specified device.
     1444       12
     1445       13        DESCRIPTION:
     1446       14
     1447       15        The NMU$WRITE procedure is used to write to the specified device.
     1448       16        */
     1449       17        /*D*
     1450       18        NAME:           NMU$WRITE
     1451       19
     1452       20        CALL:           CALL NMU$WRITE ( i, dreladdr, buf_ ) ALTRET ( error ) ;
     1453       21
     1454       22        PARAMETERS:
     1455       23        */
     1456       24        /*K*
     1457       25        i               is the index into NMD_PIT.DEV.  i must be
     1458       26                either 0 or 1.
     1459       27        */
     1460       28        /*K*
     1461       29        dreladdr        is the device relative address used to do the write.
     1462       30                dreladdr must be between 0 and PACKSIZE-(SIZE/4096)-1.
     1463       31        */
     1464       32        /*K*
     1465       33        buf_            is a vector framing the buffer to be used when
     1466       34                doing the write.
     1467       35        */
     1468       36        /*D*
     1469       37        DESCRIPTION:
PL6.E3A0      #015=NMU$WRITE File=NMU$UTIL.:E05TSI                               WED 07/30/97 03:58 Page:252
     1470       38
     1471       39        The NMU$WRITE procedure is used to write to the specified device.
     1472       40        */
     1473       41        %EJECT ;
PL6.E3A0      #015=NMU$WRITE File=NMU$UTIL.:E05TSI                               WED 07/30/97 03:58 Page:253
     1474       42        NMU$WRITE:      PROC ( I, DRELADDR, BUF_ ) ALTRET ;
     1475       43        /*
     1476       44                        Includes
     1477       45        */
     1478       46        %INCLUDE                CP_6 ;
     1479     5605        %INCLUDE                NM_MACRO_M ;
     1480     7010        %INCLUDE                NM_PERR_C ;
     1481     7087        %INCLUDE                N_FC_C ;
     1482     7124        /*
     1483     7125                        Parameters
     1484     7126        */
     1485     7127    1   DCL 1 I                 UBIN ALIGNED PARAM ;
     1486     7128    1   DCL 1 DRELADDR          UBIN ALIGNED PARAM ;
     1487     7129    1   DCL 1 BUF_              VECTOR ALIGNED PARAM ;
     1488     7130        /*
     1489     7131                        Entries
     1490     7132        */
     1491     7133    1   DCL 1 NME$ERRMSG        ENTRY(6) ;
     1492     7134        /*
     1493     7135                        Variables
     1494     7136        */
     1495     7137                                %B$ALT ( NAME =
     1496     7138              B$ALT             ,     STCLASS=BASED
     1497     7139                                                                        ) ;
     1498     7147                                %B$TCB  ( NAME =
     1499     7148              B$TCB             , STCLASS = "BASED(B$TCB$)"
     1500     7149                                                                        ) ;
     1501     7152    1   DCL 1 B$TCB$            PTR SYMREF ;
     1502     7153                                %NMD_ERRTEXT ( FPTN = WRITE
     1503     7154        /*    ERRTEXT  */       , FIRST = YES
     1504     7155                                , LAST  = YES
     1505     7156                                                                        ) ;
     1506     7222              %F$DCB ;
     1507     7279                                %NMD_PIT ( FPTN =
     1508     7280              NMD_PIT           , STCLASS = SYMREF
     1509     7281                                                                        ) ;
     1510     7734                                %VLP_ERRCODE ( FPTN =
PL6.E3A0      #015=NMU$WRITE File=NMU$UTIL.:E05TSI                               WED 07/30/97 03:58 Page:254
     1511     7735              NMU#IOQ_ERROR     , STCLASS = CONSTANT
     1512     7736                                , ERR# = %E$NMD#IOQ_ERROR
     1513     7737                                , FCG  = %NMD#FCG
     1514     7738                                , MID  = 'U'
     1515     7739                                , MON  = %NO#
     1516     7740                                , SEV  = 3
     1517     7741                                                                        ) ;
     1518     7786                                %FPT_IOQ ( FPTN =
     1519     7787              WRITE             , STCLASS = STATIC
     1520     7788                                , FC      = %N_WRBIN
     1521     7789                                , BPMIR   = YES
     1522     7790                                , WAIT    = YES
     1523     7791                                                                        ) ;
     1524     7809        %EJECT ;
PL6.E3A0      #015=NMU$WRITE File=NMU$UTIL.:E05TSI                               WED 07/30/97 03:58 Page:255
     1525     7810        /*
     1526     7811        Set up the FPT to write to the specified device and then write
     1527     7812        to the device.
     1528     7813        */
     1529     7814    1           WRITE.BUF_              = BUF_ ;
     1530     7815    1           WRITE.V.DCB#            = NMD_PIT.DEV.DCB#(I) ;
     1531     7816    1           WRITE.V.DLA.DCTX#       = NMD_PIT.DEV.DCTX(I) ;
     1532     7817    1           WRITE.V.DLA.DRELADDR#   = DRELADDR ;
     1533     7818
     1534     7819    1           CALL M$IOQ ( WRITE )                    ALTRET ( ALTERR ) ;
     1535     7820        /*
     1536     7821        Check for an IO error.
     1537     7822        */
     1538     7823    1           IF  NMD_PIT.DEV.DCB$(I)->F$DCB.TYC
     1539     7824    2           THEN DO ;
     1540     7825        /*
     1541     7826        ERROR:  NMU-E$NMD#IOQ_ERROR-3
     1542     7827        MESSAGE:  (Previously defined.)
     1543     7828        DESCRIPTION:  (Previously defined.)
     1544     7829        */
     1545     7830    2               CALL NME$ERRMSG ( NMU#IOQ_ERROR,
     1546     7831    2                                 NMD_PIT.DEV.DCB#(I),
     1547     7832    2                                 ERRTEXT.WRITE_,
     1548     7833    2                                 VECTOR(NMD_PIT.DEV.NAME(I)) ) ;
     1549     7834    2               GOTO ERROR ;
     1550     7835    2               END ;
     1551     7836        /*
     1552     7837        Return to the calling routine.
     1553     7838        */
     1554     7839    1           RETURN ;
     1555     7840
     1556     7841    1   ALTERR: CALL NME$ERRMSG ( B$TCB.ALT$->B$ALT.ERR,
     1557     7842    1                             NMD_PIT.DEV.DCB#(I)           ) ;
     1558     7843
     1559     7844    1   ERROR:  ALTRETURN ;
     1560     7845
     1561     7846    1           END NMU$WRITE ;
PL6.E3A0      #015=NMU$WRITE File=NMU$UTIL.:E05TSI                               WED 07/30/97 03:58 Page:256
     1562     7847        %EOD ;

PL6.E3A0      #015=NMU$WRITE File=NMU$UTIL.:E05TSI                               WED 07/30/97 03:58 Page:257
--  Include file information  --

   N_FC_C.:E05TOU  is referenced.
   NM_PERR_C.:E05TOU  is referenced.
   NM_SUBS_C.:E05TOU  is referenced.
   NM_EQU_E.:E05TOU  is referenced.
   CP_6_SUBS.:E05TOU  is referenced.
   NM_MACRO_M.:E05TOU  is referenced.
   CP_6_C.:E05TOU  is referenced.
   CP_6.:E05TOU  cannot be made into a system file and is referenced.
      No diagnostics issued in procedure NMU$WRITE.

   Procedure NMU$WRITE requires 73 words for executable code.
   Procedure NMU$WRITE requires 12 words of local(AUTO) storage.

PL6.E3A0      #015=NMU$WRITE File=NMU$UTIL.:E05TSI                               WED 07/30/97 03:58 Page:258

 Object Unit name= NMU$WRITE                                  File name= NMU$UTIL.:E05TOU
 UTS= JUL 30 '97 03:58:08.20 WED                              Compiler= PL-6/E31         Sev=      00
 SharedLib= :SHARED_SYSTEM                                    Alt SharedLib=


    ****  Control sections  ****

 Sect   Type Bound  Init  Size OctSiz  Section name(segment info)
    0   DCB   even  none     0      0  M$UC
    1  RoData even  UTS      5      5  NMU$WRITE
    2   Data  even  none     8     10  NMU$WRITE
    3   Proc  even  none    73    111  NMU$WRITE
    4  RoData even  none     6      6  NMU$WRITE

    ****  Entry defs  ****

                              Check   Calling
                             calling  sequence
  Sect OctLoc Primary Altret sequence   type   Parms  Name
     3      0   yes    yes     yes      Std        3  NMU$WRITE

  ****  Entry refs  ****

         Check        Calling
        calling       sequence
Altret sequence SRef   type   Args  Name
         yes           Std       6 NME$ERRMSG
                       nStd      0 X66_AUTO_3
                       Std       0 B_CONSPOOL_D
                       nStd      0 X66_ARET
                       nStd      0 X66_AALT
PL6.E3A0      #015=NMU$WRITE File=NMU$UTIL.:E05TSI                               WED 07/30/97 03:58 Page:259

  ****  Data refs  ****

  Flags:  r = read only, s = secondary
Flgs Name                             Flgs Name                             Flgs Name
     M$UC                                  B$TCB$                                NMD_PIT
     B_VECTNIL

  ****  Segment refs  ****

  Flags:  r = read only, s = secondary
Flgs Name                             Flgs Name                             Flgs Name
     ISSID                                 NULLSID
PL6.E3A0      #015=NMU$WRITE File=NMU$UTIL.:E05TSI                               WED 07/30/97 03:58 Page:260


     1433        1        /*M* NMU$WRITE - WRITE the selected device.                        */
     1434        2        /*T***********************************************************/
     1435        3        /*T*                                                         */
     1436        4        /*T* Copyright (c) Bull HN Information Systems Inc., 1997    */
     1437        5        /*T*                                                         */
     1438        6        /*T***********************************************************/
     1439        7        /*X* DFC=YES, DMC=YES, EDMC=YES                                    */
     1440        8        /*F*
     1441        9        NAME:           NMU$WRITE
     1442       10
     1443       11        PURPOSE:        To write to the specified device.
     1444       12
     1445       13        DESCRIPTION:
     1446       14
     1447       15        The NMU$WRITE procedure is used to write to the specified device.
     1448       16        */
     1449       17        /*D*
     1450       18        NAME:           NMU$WRITE
     1451       19
     1452       20        CALL:           CALL NMU$WRITE ( i, dreladdr, buf_ ) ALTRET ( error ) ;
     1453       21
     1454       22        PARAMETERS:
     1455       23        */
     1456       24        /*K*
     1457       25        i               is the index into NMD_PIT.DEV.  i must be
     1458       26                either 0 or 1.
     1459       27        */
     1460       28        /*K*
     1461       29        dreladdr        is the device relative address used to do the write.
     1462       30                dreladdr must be between 0 and PACKSIZE-(SIZE/4096)-1.
     1463       31        */
     1464       32        /*K*
     1465       33        buf_            is a vector framing the buffer to be used when
     1466       34                doing the write.
     1467       35        */
     1468       36        /*D*
PL6.E3A0      #015=NMU$WRITE File=NMU$UTIL.:E05TSI                               WED 07/30/97 03:58 Page:261
     1469       37        DESCRIPTION:
     1470       38
     1471       39        The NMU$WRITE procedure is used to write to the specified device.
     1472       40        */
     1473       41        %EJECT ;
PL6.E3A0      #015=NMU$WRITE File=NMU$UTIL.:E05TSI                               WED 07/30/97 03:58 Page:262
     1474       42        NMU$WRITE:      PROC ( I, DRELADDR, BUF_ ) ALTRET ;

     42  3 000000   000000 700200 xent  NMU$WRITE    TSX0  ! X66_AUTO_3
         3 000001   000014 000003                    ZERO    12,3

     1475       43        /*
     1476       44                        Includes
     1477       45        */
     1478       46        %INCLUDE                CP_6 ;
     1479     5605        %INCLUDE                NM_MACRO_M ;
     1480     7010        %INCLUDE                NM_PERR_C ;
     1481     7087        %INCLUDE                N_FC_C ;
     1482     7124        /*
     1483     7125                        Parameters
     1484     7126        */
     1485     7127    1   DCL 1 I                 UBIN ALIGNED PARAM ;
     1486     7128    1   DCL 1 DRELADDR          UBIN ALIGNED PARAM ;
     1487     7129    1   DCL 1 BUF_              VECTOR ALIGNED PARAM ;
     1488     7130        /*
     1489     7131                        Entries
     1490     7132        */
     1491     7133    1   DCL 1 NME$ERRMSG        ENTRY(6) ;
     1492     7134        /*
     1493     7135                        Variables
     1494     7136        */
     1495     7137                                %B$ALT ( NAME =
     1496     7138              B$ALT             ,     STCLASS=BASED
     1497     7139                                                                        ) ;
     1498     7147                                %B$TCB  ( NAME =
     1499     7148              B$TCB             , STCLASS = "BASED(B$TCB$)"
     1500     7149                                                                        ) ;
     1501     7152    1   DCL 1 B$TCB$            PTR SYMREF ;
     1502     7153                                %NMD_ERRTEXT ( FPTN = WRITE
     1503     7154        /*    ERRTEXT  */       , FIRST = YES
     1504     7155                                , LAST  = YES
     1505     7156                                                                        ) ;
     1506     7222              %F$DCB ;
PL6.E3A0      #015=NMU$WRITE File=NMU$UTIL.:E05TSI                               WED 07/30/97 03:58 Page:263
     1507     7279                                %NMD_PIT ( FPTN =
     1508     7280              NMD_PIT           , STCLASS = SYMREF
     1509     7281                                                                        ) ;
     1510     7734                                %VLP_ERRCODE ( FPTN =
     1511     7735              NMU#IOQ_ERROR     , STCLASS = CONSTANT
     1512     7736                                , ERR# = %E$NMD#IOQ_ERROR
     1513     7737                                , FCG  = %NMD#FCG
     1514     7738                                , MID  = 'U'
     1515     7739                                , MON  = %NO#
     1516     7740                                , SEV  = 3
     1517     7741                                                                        ) ;
     1518     7786                                %FPT_IOQ ( FPTN =
     1519     7787              WRITE             , STCLASS = STATIC
     1520     7788                                , FC      = %N_WRBIN
     1521     7789                                , BPMIR   = YES
     1522     7790                                , WAIT    = YES
     1523     7791                                                                        ) ;
     1524     7809        %EJECT ;
PL6.E3A0      #015=NMU$WRITE File=NMU$UTIL.:E05TSI                               WED 07/30/97 03:58 Page:264
     1525     7810        /*
     1526     7811        Set up the FPT to write to the specified device and then write
     1527     7812        to the device.
     1528     7813        */
     1529     7814    1           WRITE.BUF_              = BUF_ ;

   7814  3 000002   200005 470500                    LDP0    @BUF_,,AUTO
         3 000003   000000 100500                    MLR     fill='000'O
         3 000004   000000 000010                    ADSC9   0,,PR0                   cn=0,n=8
         3 000005   000002 000010 2                  ADSC9   WRITE+2                  cn=0,n=8

     1530     7815    1           WRITE.V.DCB#            = NMD_PIT.DEV.DCB#(I) ;

   7815  3 000006   200003 471500                    LDP1    @I,,AUTO
         3 000007   100000 236100                    LDQ     0,,PR1
         3 000010   000015 402007                    MPY     13,DL
         3 000011   000001 736000                    QLS     1
         3 000012   000006 720006 xsym               LXL0    NMD_PIT+6,QL
         3 000013   000004 740000 2                  STX0    WRITE+4

     1531     7816    1           WRITE.V.DLA.DCTX#       = NMD_PIT.DEV.DCTX(I) ;

   7816  3 000014   100000 236100                    LDQ     0,,PR1
         3 000015   000015 402007                    MPY     13,DL
         3 000016   000001 736000                    QLS     1
         3 000017   000011 236006 xsym               LDQ     NMD_PIT+9,QL
         3 000020   000025 736000                    QLS     21
         3 000021   000005 676000 2                  ERQ     WRITE+5
         3 000022   777770 376003                    ANQ     -8,DU
         3 000023   000005 656000 2                  ERSQ    WRITE+5

     1532     7817    1           WRITE.V.DLA.DRELADDR#   = DRELADDR ;

   7817  3 000024   200004 473500                    LDP3    @DRELADDR,,AUTO
         3 000025   300000 236100                    LDQ     0,,PR3
         3 000026   000005 676000 2                  ERQ     WRITE+5
         3 000027   000000 376000 4                  ANQ     0
PL6.E3A0      #015=NMU$WRITE File=NMU$UTIL.:E05TSI                               WED 07/30/97 03:58 Page:265
         3 000030   000005 656000 2                  ERSQ    WRITE+5

     1533     7818
     1534     7819    1           CALL M$IOQ ( WRITE )                    ALTRET ( ALTERR ) ;

   7819  3 000031   000000 630400 2                  EPPR0   WRITE
         3 000032   470006 713400                    CLIMB   alt,+28678
         3 000033   400400 401760                    pmme    nvectors=2
         3 000034   000072 702000 3                  TSX2    ALTERR

     1535     7820        /*
     1536     7821        Check for an IO error.
     1537     7822        */
     1538     7823    1           IF  NMD_PIT.DEV.DCB$(I)->F$DCB.TYC

   7823  3 000035   200003 470500                    LDP0    @I,,AUTO
         3 000036   000000 236100                    LDQ     0,,PR0
         3 000037   000015 402007                    MPY     13,DL
         3 000040   000001 736000                    QLS     1
         3 000041   000007 471406 xsym               LDP1    NMD_PIT+7,QL
         3 000042   100002 235100                    LDA     2,,PR1
         3 000043   000071 600000 3                  TZE     s:7839

     1539     7824    2           THEN DO ;

     1540     7825        /*
     1541     7826        ERROR:  NMU-E$NMD#IOQ_ERROR-3
     1542     7827        MESSAGE:  (Previously defined.)
     1543     7828        DESCRIPTION:  (Previously defined.)
     1544     7829        */
     1545     7830    2               CALL NME$ERRMSG ( NMU#IOQ_ERROR,

   7830  3 000044   000000 236100                    LDQ     0,,PR0
         3 000045   000015 402007                    MPY     13,DL
         3 000046   000001 235000 4                  LDA     1
         3 000047   000000 620006                    EAX0    0,QL
         3 000050   000023 736000                    QLS     19
PL6.E3A0      #015=NMU$WRITE File=NMU$UTIL.:E05TSI                               WED 07/30/97 03:58 Page:266
         3 000051   000002 036000 4                  ADLQ    2
         3 000052   200006 757100                    STAQ    @BUF_+1,,AUTO
         3 000053   200006 631500                    EPPR1   @BUF_+1,,AUTO
         3 000054   200013 451500                    STP1    @BUF_+6,,AUTO
         3 000055   000003 236000 4                  LDQ     3
         3 000056   200012 756100                    STQ     @BUF_+5,,AUTO
         3 000057   000000 636010                    EAQ     0,X0
         3 000060   000001 736000                    QLS     1
         3 000061   000004 036000 4                  ADLQ    4
         3 000062   000005 235000 4                  LDA     5
         3 000063   200010 757100                    STAQ    @BUF_+3,,AUTO
         3 000064   200010 630500                    EPPR0   @BUF_+3,,AUTO
         3 000065   000022 631400 xsym               EPPR1   B_VECTNIL+18
         3 000066   000000 701000 xent               TSX1    NME$ERRMSG
         3 000067   000000 011000                    NOP     0

     1546     7831    2                                 NMD_PIT.DEV.DCB#(I),
     1547     7832    2                                 ERRTEXT.WRITE_,
     1548     7833    2                                 VECTOR(NMD_PIT.DEV.NAME(I)) ) ;
     1549     7834    2               GOTO ERROR ;

   7834  3 000070   000110 710000 3                  TRA     ERROR

     1550     7835    2               END ;
     1551     7836        /*
     1552     7837        Return to the calling routine.
     1553     7838        */
     1554     7839    1           RETURN ;

   7839  3 000071   000000 702200 xent               TSX2  ! X66_ARET

     1555     7840
     1556     7841    1   ALTERR: CALL NME$ERRMSG ( B$TCB.ALT$->B$ALT.ERR,

   7841  3 000072   000000 470400 xsym  ALTERR       LDP0    B$TCB$
         3 000073   000000 471500                    LDP1    0,,PR0
         3 000074   200003 473500                    LDP3    @I,,AUTO
PL6.E3A0      #015=NMU$WRITE File=NMU$UTIL.:E05TSI                               WED 07/30/97 03:58 Page:267
         3 000075   300000 236100                    LDQ     0,,PR3
         3 000076   000015 402007                    MPY     13,DL
         3 000077   000023 736000                    QLS     19
         3 000100   000004 036000 4                  ADLQ    4
         3 000101   200007 756100                    STQ     @BUF_+2,,AUTO
         3 000102   100102 634500                    EPPR4   66,,PR1
         3 000103   200006 454500                    STP4    @BUF_+1,,AUTO
         3 000104   200006 630500                    EPPR0   @BUF_+1,,AUTO
         3 000105   000020 631400 xsym               EPPR1   B_VECTNIL+16
         3 000106   000000 701000 xent               TSX1    NME$ERRMSG
         3 000107   000000 011000                    NOP     0

     1557     7842    1                             NMD_PIT.DEV.DCB#(I)           ) ;
     1558     7843
     1559     7844    1   ERROR:  ALTRETURN ;

   7844  3 000110   000000 702200 xent  ERROR        TSX2  ! X66_AALT
     1560     7845
     1561     7846    1           END NMU$WRITE ;
     1562     7847        %EOD ;

PL6.E3A0      #015=NMU$WRITE File=NMU$UTIL.:E05TSI                               WED 07/30/97 03:58 Page:268
--  Include file information  --

   N_FC_C.:E05TOU  is referenced.
   NM_PERR_C.:E05TOU  is referenced.
   NM_SUBS_C.:E05TOU  is referenced.
   NM_EQU_E.:E05TOU  is referenced.
   CP_6_SUBS.:E05TOU  is referenced.
   NM_MACRO_M.:E05TOU  is referenced.
   CP_6_C.:E05TOU  is referenced.
   CP_6.:E05TOU  cannot be made into a system file and is referenced.
      No diagnostics issued in procedure NMU$WRITE.
PL6.E3A0      #015=NMU$WRITE File=NMU$UTIL.:E05TSI                               WED 07/30/97 03:58 Page:269

 **** Variables and constants ****

  ****  Section 001 RoData NMU$WRITE

  ****  Scalars and arrays  ****
OctLoc.c.b A Datatyp(siz) R M Lvl/name                 OctLoc.c.b A Datatyp(siz) R M Lvl/name

     0-0-0/w STRC(144)   r     1 ERRTEXT                    4-0-0/w STRC        r     1 NMU#IOQ_ERROR

  ****  Section 002  Data  NMU$WRITE

  ****  Scalars and arrays  ****
OctLoc.c.b A Datatyp(siz) R M Lvl/name                 OctLoc.c.b A Datatyp(siz) R M Lvl/name

     0-0-0/d STRC(288)   r     1 WRITE

  ****  Auto variables  ****

  ****  Scalars and arrays  ****
OctLoc.c.b A Datatyp(siz) R M Lvl/name                 OctLoc.c.b A Datatyp(siz) R M Lvl/name

     5-0-0/w PTR         r     1 @BUF_                      4-0-0/w PTR         r     1 @DRELADDR
     3-0-0/w PTR         r     1 @I                        *0-0-0/w VECT        r     1 BUF_
    *0-0-0/w UBIN        r     1 DRELADDR                  *0-0-0/w UBIN        r     1 I

  ****  SYMREF variables  ****

  ****  Scalars and arrays  ****
OctLoc.c.b A Datatyp(siz) R M Lvl/name                 OctLoc.c.b A Datatyp(siz) R M Lvl/name

     0-0-0/w PTR         r     1 B$TCB$                     0-0-0/d STRC(8892)  r     1 NMD_PIT

  ****  BASED and DCB variables  ****

  ****  Scalars and arrays  ****
OctLoc.c.b A Datatyp(siz) R M Lvl/name                 OctLoc.c.b A Datatyp(siz) R M Lvl/name

PL6.E3A0      #015=NMU$WRITE File=NMU$UTIL.:E05TSI                               WED 07/30/97 03:58 Page:270
     0-0-0/w STRC(2448)  r     1 B$ALT                      0-0-0/w STRC(144)   r     1 B$TCB
     0-0-0/d ASTR(3528)  r     1 F$DCB


   Procedure NMU$WRITE requires 73 words for executable code.
   Procedure NMU$WRITE requires 12 words of local(AUTO) storage.
PL6.E3A0      #015=NMU$WRITE File=NMU$UTIL.:E05TSI                               WED 07/30/97 03:58 Page:271
          *** CROSS REFERENCE LISTING ***
**     DENOTES     IDENTIFIER DEFINITION
<<                 IDENTIFIER'S VALUE SET
>>                 IDENTIFIER'S VALUE USED
<>                 IDENTIFIER SET AND/OR USED
--                 IDENTIFIER REFERENCED
PL6.E3A0      #015=NMU$WRITE File=NMU$UTIL.:E05TSI                               WED 07/30/97 03:58 Page:272
          MINI XREF LISTING

ALTERR
      7841**LABEL    7819--CALLALT
B$ALT.CODE
      7141**DCL      7141--REDEF    7142--REDEF    7142--REDEF
B$ALT.ERR
      7142**DCL      7841<>CALL
B$ALT.ERR.ERR#
      7143**DCL      7143--REDEF
B$ALT.EVID
      7142**DCL      7142--REDEF    7142--REDEF
B$TCB.ALT$
      7150**DCL      7841>>CALL
B$TCB$
      7152**DCL      7150--IMP-PTR  7841>>CALL
BUF_
      7129**DCL        42--PROC     7814>>ASSIGN
DRELADDR
      7128**DCL        42--PROC     7817>>ASSIGN
ERROR
      7844**LABEL    7834--GOTO
ERRTEXT.WRITE
      7213**DCL      7220--DCLINIT
ERRTEXT.WRITE_
      7220**DCL      7830<>CALL
F$DCB.ACTPOS
      7255**DCL      7255--REDEF
F$DCB.ARS#
      7229**DCL      7229--REDEF
F$DCB.ATTR
      7248**DCL      7249--REDEF
F$DCB.BORROW
      7263**DCL      7263--REDEF    7263--REDEF    7263--REDEF
PL6.E3A0      #015=NMU$WRITE File=NMU$UTIL.:E05TSI                               WED 07/30/97 03:58 Page:273
F$DCB.DCBNAME.L
      7277**DCL      7277--IMP-SIZ
F$DCB.EOMCHAR#
      7233**DCL      7233--REDEF
F$DCB.FLDID
      7258**DCL      7258--REDEF
F$DCB.FORM$
      7252**DCL      7252--REDEF
F$DCB.FSECT
      7268**DCL      7268--REDEF
F$DCB.FSN#
      7245**DCL      7245--REDEF    7245--REDEF    7246--REDEF
F$DCB.HEADER$
      7251**DCL      7251--REDEF
F$DCB.IXTNSIZE#
      7249**DCL      7249--REDEF
F$DCB.LASTSTA$
      7238**DCL      7238--REDEF
F$DCB.LVL
      7264**DCL      7264--REDEF
F$DCB.NAME#.C
      7239**DCL      7239--REDEF
F$DCB.NOEOF
      7261**DCL      7261--REDEF
F$DCB.NRECS#
      7250**DCL      7250--REDEF
F$DCB.NRECX
      7269**DCL      7269--REDEF
F$DCB.OHDR
      7261**DCL      7261--REDEF
F$DCB.ORG#
      7244**DCL      7244--REDEF
F$DCB.PRECNO
      7267**DCL      7267--REDEF
F$DCB.RCSZ
      7273**DCL      7273--REDEF
PL6.E3A0      #015=NMU$WRITE File=NMU$UTIL.:E05TSI                               WED 07/30/97 03:58 Page:274
F$DCB.RES#
      7240**DCL      7240--REDEF
F$DCB.SETX
      7252**DCL      7252--REDEF
F$DCB.TAB$
      7252**DCL      7252--REDEF
F$DCB.TDA
      7266**DCL      7267--REDEF
F$DCB.TYC
      7229**DCL      7823>>IF
F$DCB.WSN#
      7240**DCL      7240--REDEF
I
      7127**DCL        42--PROC     7815>>ASSIGN   7816>>ASSIGN   7823>>IF       7830>>CALL     7830>>CALL
      7841>>CALL
M$IOQ
      5584**DCL-ENT  7819--CALL
NMD_PIT.DEV.DCB#
      7330**DCL      7815>>ASSIGN   7830<>CALL     7841<>CALL
NMD_PIT.DEV.DCB$
      7337**DCL      7823>>IF
NMD_PIT.DEV.DCTX
      7347**DCL      7816>>ASSIGN
NMD_PIT.DEV.NAME
      7397**DCL      7830--CALL
NME$ERRMSG
      7133**DCL-ENT  7830--CALL     7841--CALL
NMU#IOQ_ERROR
      7753**DCL      7830<>CALL
WRITE
      7802**DCL      7819<>CALL
WRITE.BUF_
      7802**DCL      7814<<ASSIGN
WRITE.V
      7804**DCL      7802--DCLINIT
WRITE.V.DCB#
PL6.E3A0      #015=NMU$WRITE File=NMU$UTIL.:E05TSI                               WED 07/30/97 03:58 Page:275
      7804**DCL      7815<<ASSIGN
WRITE.V.DLA.DCTX#
      7806**DCL      7816<<ASSIGN
WRITE.V.DLA.DRELADDR#
      7806**DCL      7817<<ASSIGN

PL6.E3A0      #016=NMU$XCON File=NMU$UTIL.:E05TSI                                WED 07/30/97 03:58 Page:276
     1563        1        /*M* NMU$XCON - Exit control procedure                             */
     1564        2        /*T***********************************************************/
     1565        3        /*T*                                                         */
     1566        4        /*T* Copyright (c) Bull HN Information Systems Inc., 1997    */
     1567        5        /*T*                                                         */
     1568        6        /*T***********************************************************/
     1569        7        /*X* DFC=YES, DMC=YES, EDMC=YES                                    */
     1570        8        /*F*
     1571        9        NAME:           NMU$XCON
     1572       10
     1573       11        PURPOSE:        To provide the exit control procedure for the
     1574       12                        MIRROR program.
     1575       13        */
     1576       14        /*D*
     1577       15        NAME:           NMU$XCON
     1578       16
     1579       17        CALL:           None.
     1580       18
     1581       19        PARAMETERS:     None.
     1582       20
     1583       21        DESCRIPTION:
     1584       22
     1585       23        The NMU$XCON procedure is the exit control procedure for the MIRROR
     1586       24        program.  NMU$XCON calls the NMU$RESET procedure to reset the
     1587       25        user environment modified by the MIRROR program.
     1588       26        Finally, NMU$XCON calls NMU$QUIT to terminate the MIRROR program.
     1589       27        */
     1590       28        %EJECT ;
PL6.E3A0      #016=NMU$XCON File=NMU$UTIL.:E05TSI                                WED 07/30/97 03:58 Page:277
     1591       29        NMU$XCON:       PROC ASYNC ;
     1592       30        /*
     1593       31                        Includes
     1594       32        */
     1595       33        %INCLUDE                CP_6 ;
     1596     5592        %INCLUDE                NM_MACRO_M ;
     1597     6997        /*
     1598     6998                        Entries
     1599     6999        */
     1600     7000    1   DCL 1 NMU$QUIT          ENTRY ;
     1601     7001    1   DCL 1 NMU$RESET         ENTRY ;
     1602     7002        /*
     1603     7003                        Variables
     1604     7004        */
     1605     7005                                %NMD_PIT ( FPTN =
     1606     7006              NMD_PIT           , STCLASS = SYMREF
     1607     7007                                                                        ) ;
     1608     7460                                %FPT_XCON ( FPTN =
     1609     7461              XCON              , STCLASS = STATIC
     1610     7462                                                                        ) ;
     1611     7476        %EJECT ;
PL6.E3A0      #016=NMU$XCON File=NMU$UTIL.:E05TSI                                WED 07/30/97 03:58 Page:278
     1612     7477        /*
     1613     7478        Remove the Exit Control routine from XCON tables.
     1614     7479        */
     1615     7480    1           XCON.V.UENTRY# = NMD_PIT.PXCON$$ ;
     1616     7481    1           CALL M$XCON ( XCON ) ;
     1617     7482    1           NMD_PIT.FLAGS.XCON# =  %NO# ;
     1618     7483        /*
     1619     7484        Call the NMU$RESET procedure to reset the user environment
     1620     7485        that may have been modified by the MIRROR program.
     1621     7486        */
     1622     7487    1           CALL NMU$RESET ;
     1623     7488        /*
     1624     7489        Call the NMU$QUIT procedure to terminate the MIRROR program.
     1625     7490        */
     1626     7491    1           CALL NMU$QUIT ;
     1627     7492
     1628     7493    1           END NMU$XCON ;
     1629     7494

PL6.E3A0      #016=NMU$XCON File=NMU$UTIL.:E05TSI                                WED 07/30/97 03:58 Page:279
--  Include file information  --

   NM_SUBS_C.:E05TOU  is referenced.
   NM_EQU_E.:E05TOU  is referenced.
   CP_6_SUBS.:E05TOU  is referenced.
   NM_MACRO_M.:E05TOU  is referenced.
   CP_6_C.:E05TOU  is referenced.
   CP_6.:E05TOU  cannot be made into a system file and is referenced.
      No diagnostics issued in procedure NMU$XCON.

   Procedure NMU$XCON requires 16 words for executable code.
   Procedure NMU$XCON requires 4 words of local(AUTO) storage.

    No errors detected in file NMU$UTIL.:E05TSI    .

PL6.E3A0      #016=NMU$XCON File=NMU$UTIL.:E05TSI                                WED 07/30/97 03:58 Page:280

 Object Unit name= NMU$XCON                                   File name= NMU$UTIL.:E05TOU
 UTS= JUL 30 '97 03:58:50.24 WED                              Compiler= PL-6/E31         Sev=      00
 SharedLib= :SHARED_SYSTEM                                    Alt SharedLib=


    ****  Control sections  ****

 Sect   Type Bound  Init  Size OctSiz  Section name(segment info)
    0   DCB   even  none     0      0  M$UC
    1   Data  even  none     6      6  NMU$XCON
    2   Proc  even  none    16     20  NMU$XCON
    3  RoData even  none     1      1  NMU$XCON

    ****  Entry defs  ****

                              Check   Calling
                             calling  sequence
  Sect OctLoc Primary Altret sequence   type   Parms  Name
     2      0   yes            yes     Async       0  NMU$XCON

  ****  Entry refs  ****

         Check        Calling
        calling       sequence
Altret sequence SRef   type   Args  Name
         yes           Std       0 NMU$RESET
         yes           Std       0 NMU$QUIT
                       nStd      0 X66_AAUTO
                       Std       0 B_CONSPOOL_D
                       nStd      0 X66_AARET

  ****  Data refs  ****

  Flags:  r = read only, s = secondary
Flgs Name                             Flgs Name                             Flgs Name
     M$UC                                  NMD_PIT                               B_VECTNIL
PL6.E3A0      #016=NMU$XCON File=NMU$UTIL.:E05TSI                                WED 07/30/97 03:58 Page:281

  ****  Segment refs  ****

  Flags:  r = read only, s = secondary
Flgs Name                             Flgs Name                             Flgs Name
     ISSID                                 NULLSID
PL6.E3A0      #016=NMU$XCON File=NMU$UTIL.:E05TSI                                WED 07/30/97 03:58 Page:282


     1563        1        /*M* NMU$XCON - Exit control procedure                             */
     1564        2        /*T***********************************************************/
     1565        3        /*T*                                                         */
     1566        4        /*T* Copyright (c) Bull HN Information Systems Inc., 1997    */
     1567        5        /*T*                                                         */
     1568        6        /*T***********************************************************/
     1569        7        /*X* DFC=YES, DMC=YES, EDMC=YES                                    */
     1570        8        /*F*
     1571        9        NAME:           NMU$XCON
     1572       10
     1573       11        PURPOSE:        To provide the exit control procedure for the
     1574       12                        MIRROR program.
     1575       13        */
     1576       14        /*D*
     1577       15        NAME:           NMU$XCON
     1578       16
     1579       17        CALL:           None.
     1580       18
     1581       19        PARAMETERS:     None.
     1582       20
     1583       21        DESCRIPTION:
     1584       22
     1585       23        The NMU$XCON procedure is the exit control procedure for the MIRROR
     1586       24        program.  NMU$XCON calls the NMU$RESET procedure to reset the
     1587       25        user environment modified by the MIRROR program.
     1588       26        Finally, NMU$XCON calls NMU$QUIT to terminate the MIRROR program.
     1589       27        */
     1590       28        %EJECT ;
PL6.E3A0      #016=NMU$XCON File=NMU$UTIL.:E05TSI                                WED 07/30/97 03:58 Page:283
     1591       29        NMU$XCON:       PROC ASYNC ;

     29  2 000000   000000 700200 xent  NMU$XCON     TSX0  ! X66_AAUTO
         2 000001   000004 000000                    ZERO    4,0

     1592       30        /*
     1593       31                        Includes
     1594       32        */
     1595       33        %INCLUDE                CP_6 ;
     1596     5592        %INCLUDE                NM_MACRO_M ;
     1597     6997        /*
     1598     6998                        Entries
     1599     6999        */
     1600     7000    1   DCL 1 NMU$QUIT          ENTRY ;
     1601     7001    1   DCL 1 NMU$RESET         ENTRY ;
     1602     7002        /*
     1603     7003                        Variables
     1604     7004        */
     1605     7005                                %NMD_PIT ( FPTN =
     1606     7006              NMD_PIT           , STCLASS = SYMREF
     1607     7007                                                                        ) ;
     1608     7460                                %FPT_XCON ( FPTN =
     1609     7461              XCON              , STCLASS = STATIC
     1610     7462                                                                        ) ;
     1611     7476        %EJECT ;
PL6.E3A0      #016=NMU$XCON File=NMU$UTIL.:E05TSI                                WED 07/30/97 03:58 Page:284
     1612     7477        /*
     1613     7478        Remove the Exit Control routine from XCON tables.
     1614     7479        */
     1615     7480    1           XCON.V.UENTRY# = NMD_PIT.PXCON$$ ;

   7480  2 000002   000311 236000 xsym               LDQ     NMD_PIT+201
         2 000003   000004 756000 1                  STQ     XCON+4

     1616     7481    1           CALL M$XCON ( XCON ) ;

   7481  2 000004   000000 630400 1                  EPPR0   XCON
         2 000005   010003 713400                    CLIMB   4099
         2 000006   400400 401760                    pmme    nvectors=2

     1617     7482    1           NMD_PIT.FLAGS.XCON# =  %NO# ;

   7482  2 000007   000000 236000 3                  LDQ     0
         2 000010   000273 356000 xsym               ANSQ    NMD_PIT+187

     1618     7483        /*
     1619     7484        Call the NMU$RESET procedure to reset the user environment
     1620     7485        that may have been modified by the MIRROR program.
     1621     7486        */
     1622     7487    1           CALL NMU$RESET ;

   7487  2 000011   000002 631400 xsym               EPPR1   B_VECTNIL+2
         2 000012   000000 701000 xent               TSX1    NMU$RESET
         2 000013   000000 011000                    NOP     0

     1623     7488        /*
     1624     7489        Call the NMU$QUIT procedure to terminate the MIRROR program.
     1625     7490        */
     1626     7491    1           CALL NMU$QUIT ;

   7491  2 000014   000002 631400 xsym               EPPR1   B_VECTNIL+2
         2 000015   000000 701000 xent               TSX1    NMU$QUIT
         2 000016   000000 011000                    NOP     0
PL6.E3A0      #016=NMU$XCON File=NMU$UTIL.:E05TSI                                WED 07/30/97 03:58 Page:285

     1627     7492
     1628     7493    1           END NMU$XCON ;

   7493  2 000017   000000 702200 xent               TSX2  ! X66_AARET
     1629     7494

PL6.E3A0      #016=NMU$XCON File=NMU$UTIL.:E05TSI                                WED 07/30/97 03:58 Page:286
--  Include file information  --

   NM_SUBS_C.:E05TOU  is referenced.
   NM_EQU_E.:E05TOU  is referenced.
   CP_6_SUBS.:E05TOU  is referenced.
   NM_MACRO_M.:E05TOU  is referenced.
   CP_6_C.:E05TOU  is referenced.
   CP_6.:E05TOU  cannot be made into a system file and is referenced.
      No diagnostics issued in procedure NMU$XCON.
PL6.E3A0      #016=NMU$XCON File=NMU$UTIL.:E05TSI                                WED 07/30/97 03:58 Page:287

 **** Variables and constants ****

  ****  Section 001  Data  NMU$XCON

  ****  Scalars and arrays  ****
OctLoc.c.b A Datatyp(siz) R M Lvl/name                 OctLoc.c.b A Datatyp(siz) R M Lvl/name

     0-0-0/d STRC(216)   r     1 XCON

  ****  SYMREF variables  ****

  ****  Scalars and arrays  ****
OctLoc.c.b A Datatyp(siz) R M Lvl/name                 OctLoc.c.b A Datatyp(siz) R M Lvl/name

     0-0-0/d STRC(8892)  r     1 NMD_PIT


   Procedure NMU$XCON requires 16 words for executable code.
   Procedure NMU$XCON requires 4 words of local(AUTO) storage.

    No errors detected in file NMU$UTIL.:E05TSI    .
PL6.E3A0      #016=NMU$XCON File=NMU$UTIL.:E05TSI                                WED 07/30/97 03:58 Page:288
          *** CROSS REFERENCE LISTING ***
**     DENOTES     IDENTIFIER DEFINITION
<<                 IDENTIFIER'S VALUE SET
>>                 IDENTIFIER'S VALUE USED
<>                 IDENTIFIER SET AND/OR USED
--                 IDENTIFIER REFERENCED
PL6.E3A0      #016=NMU$XCON File=NMU$UTIL.:E05TSI                                WED 07/30/97 03:58 Page:289
          MINI XREF LISTING

M$XCON
      5575**DCL-ENT  7481--CALL
NMD_PIT.FLAGS.XCON#
      7291**DCL      7482<<ASSIGN
NMD_PIT.PXCON$$
      7402**DCL      7480>>ASSIGN
NMU$QUIT
      7000**DCL-ENT  7491--CALL
NMU$RESET
      7001**DCL-ENT  7487--CALL
XCON
      7473**DCL      7481<>CALL
XCON.V
      7474**DCL      7473--DCLINIT
XCON.V.UENTRY#
      7474**DCL      7480<<ASSIGN
