VERSION E05

PL6.E3A0      #001=NM_DATA_D File=NM_DATA_D.:E05TSI                              WED 07/30/97 03:52 Page:1
        1        1        /*M* NM_DATA_D - Data definition procedure for MIRROR program.     */
        2        2        /*T***********************************************************/
        3        3        /*T*                                                         */
        4        4        /*T* Copyright (c) Bull HN Information Systems Inc., 1997    */
        5        5        /*T*                                                         */
        6        6        /*T***********************************************************/
        7        7        /*X* DFC=YES, DMC=YES, EDMC=YES                                    */
        8        8        /*F*
        9        9        NAME:           NM_DATA_D
       10       10
       11       11        PURPOSE:        To define all external data definitions.
       12       12        */
       13       13        /*D*
       14       14        NAME:           NM_DATA_D
       15       15
       16       16        CALL:           Not allowed.
       17       17
       18       18        PARAMETERS:     None.
       19       19
       20       20        DESCRIPTION:
       21       21
       22       22        THe NM_DATA_D      procedure is a noncallable procedure that
       23       23        defines all DCB definitions/references, external procedure
       24       24        references, and external data definitions/references.  Documentation
       25       25        for all of these definitions/references is taken from the
       26       26        NM_DATA_D      procedure.  The documentation for these definitions/
       27       27        references are not repeated elsewhere in the MIRROR program.
       28       28        */
       29       29        %EJECT ;
PL6.E3A0      #001=NM_DATA_D File=NM_DATA_D.:E05TSI                              WED 07/30/97 03:52 Page:2
       30       30        NM_DATA_D:              PROC ;
       31       31        /*
       32       32                        Includes
       33       33        */
       34       34        /*B*
       35       35        B_SEGIDS_C      is a PL-6 INCLUDE file that defines the CP-6
       36       36                SEGIDs for pointers and descriptors.
       37       37        */
       38       38        %INCLUDE                B_SEGIDS_C ;
       39      577
       40      578        /*B*
       41      579        CP_6            is a PL-6 INCLUDE file that defines the CP-6
       42      580                macros.
       43      581        */
       44      582        %INCLUDE                CP_6 ;
       45     6141
       46     6142        /*B*
       47     6143        FM$GRAN         is a PL-6 INCLUDE file that defines the CP-6
       48     6144                VID and granule structures.
       49     6145        */
       50     6146        %INCLUDE                FM$GRAN ;
       51     6215        /*B*
       52     6216        NI$TABLES       is a PL-6 INCLUDE file that defines the CP-6
       53     6217                IO system table macros.
       54     6218        */
       55     6219        %INCLUDE                NI$TABLES ;
       56     6435
       57     6436        /*B*
       58     6437        NI_DATA_C       is a PL-6 INCLUDE file that defines the CP-6
       59     6438                IO system constants.
       60     6439        */
       61     6440        %INCLUDE                NI_DATA_C ;
       62     6553        /*B*
       63     6554        NM_PERR_C  is a PL-6 INCLUDE file that defines the error codes
       64     6555                for the MIRROR program.
       65     6556        */
       66     6557        %INCLUDE                NM_PERR_C ;
PL6.E3A0      #001=NM_DATA_D File=NM_DATA_D.:E05TSI                              WED 07/30/97 03:52 Page:3
       67     6634
       68     6635        /*B*
       69     6636        NM_MACRO_M  is a PL-6 INCLUDE file that defines the macros
       70     6637                for the MIRROR program.
       71     6638        */
       72     6639        %INCLUDE                NM_MACRO_M ;
       73     8044
       74     8045        /*B*
       75     8046        XUX$INTERFACE_M is a PL-6 INCLUDE file that defines the macros for
       76     8047                the XUX library services.
       77     8048        */
       78     8049        %INCLUDE                XUX$INTERFACE_M ;
       79     8826
       80     8827        /*B*
       81     8828        XU_MACRO_C      is a PL-6 INCLUDE file that defines the macros for
       82     8829                the XUG library services.
       83     8830        */
       84     8831        %INCLUDE                XU_MACRO_C ;
       85    11937
       86    11938        /*
       87    11939                        Entries
       88    11940        */
       89    11941        /*B*
       90    11942        NMB$BREAK               is an external procedure that is used to
       91    11943                handle BREAK key events.
       92    11944        */
       93    11945    1   DCL 1 NMB$BREAK         ENTRY ;
       94    11946        /*B*
       95    11947        X$PRE_PROCESS           is an external procedure that is used to
       96    11948                do the preprocessing of expressions in commands.
       97    11949        */
       98    11950    1   DCL 1 X$PRE_PROCESS     ENTRY(1) ALTRET ;
       99    11951        /*B*
      100    11952        XUG_ENTRY               is an INCLUDE file that defines the ENTRY
      101    11953                DCLs for the XUG library services.
      102    11954        */
      103    11955        %INCLUDE                XUG_ENTRY ;
PL6.E3A0      #001=NM_DATA_D File=NM_DATA_D.:E05TSI                              WED 07/30/97 03:52 Page:4
      104    11986        /*B*
      105    11987        XUX$COMMON_OPTIONS      is an external procedure that is used to
      106    11988                process the contents of the invocation line.  This
      107    11989                procedure checks for valid positional DCB entries and
      108    11990                processes any options specified.
      109    11991        */
      110    11992    1   DCL 1 XUX$COMMON_OPTIONS        ENTRY(1) ALTRET ;
      111    11993
      112    11994        /*
      113    11995                        Variables
      114    11996        */
      115    11997        /*B*
      116    11998        B$TCB$          is an external pointer to the B$TCB structure.
      117    11999        */
      118    12000    1   DCL 1 B$TCB$            PTR SYMREF ;
      119    12001
      120    12002        /*B*
      121    12003        M$DO            is the DCB that is used to print error messages.
      122    12004        */
      123    12005    1   DCL 1 M$DO              DCB ;
      124    12006
      125    12007        /*B*
      126    12008        M$EI            is the DCB that is used to read/write the first
      127    12009                Mirrored Disk device.
      128    12010        */
      129    12011    1   DCL 1 M$EI              DCB ;
      130    12012
      131    12013        /*B*
      132    12014        M$EO            is the DCB that is used to read/write the second
      133    12015                Mirrored Disk device.
      134    12016        */
      135    12017    1   DCL 1 M$EO              DCB ;
      136    12018
      137    12019        /*B*
      138    12020        M$LM            is the DCB that is used to get the run unit name.
      139    12021        */
      140    12022    1   DCL 1 M$LM              DCB ;
PL6.E3A0      #001=NM_DATA_D File=NM_DATA_D.:E05TSI                              WED 07/30/97 03:52 Page:5
      141    12023
      142    12024        /*B*
      143    12025        M$LO            is the DCB that is used to print error messages.
      144    12026        */
      145    12027    1   DCL 1 M$LO              DCB ;
      146    12028
      147    12029        /*B*
      148    12030        M$ME            is the DCB that is used to print the greeting.
      149    12031        */
      150    12032    1   DCL 1 M$ME              DCB ;
      151    12033        /*B*
      152    12034        M$SI            is the DCB that is used to read the MIRROR
      153    12035                commands.
      154    12036        */
      155    12037    1   DCL 1 M$SI              DCB ;
      156    12038
      157    12039        /*B*
      158    12040        NMC#COMMANDS    is a structure built by PARTRGE for commands
      159    12041                accepted by the MIRROR program.
      160    12042        */
      161    12043    1   DCL 1 NMC#COMMANDS      UBIN SYMREF ;
      162    12044
      163    12045        /*B*
      164    12046        NMD_ERRFID      is a VLP_NAME structure that contains the fid
      165    12047                of the error message file.
      166    12048        */
      167    12049                                %VLP_NAME ( FPTN =
      168    12050              NMD_ERRFID        , STCLASS = STATIC
      169    12051                                , LEN = 59
      170    12052                                                                        ) ;
      171    12079        /*B*
      172    12080        NMD_PIT         is the structure that is used to control the
      173    12081                execution of the MIRROR program.
      174    12082        */
      175    12083                                %NMD_PIT ( FPTN =
      176    12084              NMD_PIT           , STCLASS = "STATIC SYMDEF"
      177    12085                                , DCB0 = M$EI
PL6.E3A0      #001=NM_DATA_D File=NM_DATA_D.:E05TSI                              WED 07/30/97 03:52 Page:6
      178    12086                                , DCB1 = M$EO
      179    12087                                , ERRFID = NMD_ERRFID
      180    12088                                , RUFID = NMD_RUFID
      181    12089                                , VID0 = NMD_VID0
      182    12090                                , VID1 = NMD_VID1
      183    12091                                                                ) ;
      184    12544        /*B*
      185    12545        NMD_PROMPT      is a VLP_NAME structure that defines the
      186    12546                prompt that is used by the XUG$GETCMD routines.
      187    12547        */
      188    12548                                %VLP_NAME ( FPTN =
      189    12549                NMD_PROMPT      , STCLASS = "STATIC SYMDEF"
      190    12550                                , NAME = '<MIRROR>'
      191    12551                                                                ) ;
      192    12578        /*B*
      193    12579        NMD_RUFID       is a VLP_NAME structure that contains the fid
      194    12580                of the run unit file.
      195    12581        */
      196    12582                                %VLP_NAME ( FPTN =
      197    12583              NMD_RUFID         , STCLASS = STATIC
      198    12584                                , LEN = 59
      199    12585                                                                        ) ;
      200    12612        /*B*
      201    12613        NMD_VID0        is a NMD_VID structure used to contain the VID
      202    12614                of for NMD_PIT.DEV(0).
      203    12615        */
      204    12616                                %NMD_VID ( FPTN =
      205    12617                NMD_VID0        , STCLASS = "STATIC SYMDEF"
      206    12618                                                                        ) ;
      207    12635        /*B*
      208    12636        NMD_VID1        is a NMD_VID structure used to contain the VID
      209    12637                of for NMD_PIT.DEV(1).
      210    12638        */
      211    12639                                %NMD_VID ( FPTN =
      212    12640                NMD_VID1        , STCLASS = "STATIC SYMDEF"
      213    12641                                                                        ) ;
      214    12658        /*B*
PL6.E3A0      #001=NM_DATA_D File=NM_DATA_D.:E05TSI                              WED 07/30/97 03:52 Page:7
      215    12659        XUG_GETCMD      is a XUG_GETCMD structure that is used with the
      216    12660                XUG library services to read commands and report errors.
      217    12661        */
      218    12662                                %XUG_GETCMD ( NAME =
      219    12663              XUG_GETCMD        , STCLASS = "STATIC SYMDEF"
      220    12664                                , DCB_PARAM = M$LO
      221    12665                                , DCB2_PARAM = M$DO
      222    12666                                , DISP = 0
      223    12667                                , ERRMFID = NMD_ERRFID
      224    12668                                , INDCB = M$SI
      225    12669                                , NODES = NMC#COMMANDS
      226    12670                                , OUTDCB = M$LO
      227    12671                                , PROMPT = NMD_PROMPT
      228    12672                                , PROMPT_VFC = NO
      229    12673                                                                        ) ;
      230    13011        /*B*
      231    13012        XUG_INIT        is a XUG_INIT structure that is used in the call
      232    13013                to the XUG$INIT procedure to initialize the XUG library
      233    13014                services.
      234    13015        */
      235    13016                                %XUG_INIT ( NAME =
      236    13017              XUG_INIT          , STCLASS = "STATIC SYMDEF"
      237    13018                                , ABORT = NMB$BREAK
      238    13019                                , ALWAYS_SET_PROMPT = YES
      239    13020                                , COMMANDS = YES
      240    13021                                , ECHO = HONOR_FLAG
      241    13022                                , GOODCMD = YES
      242    13023                                , PP_DCB = NIL
      243    13024                                , PREPROCESS = YES
      244    13025                                , PREPROCESSOR = X$PRE_PROCESS
      245    13026                                , SPELLING = YES
      246    13027                                , WORK = NIL
      247    13028                                , WSEG = 0
      248    13029                                                                        ) ;
      249    13442        /*B*
      250    13443        XUX$LEGAL_OPTIONS       is a structure that defines the legal
      251    13444                standard options for the MIRROR program.
PL6.E3A0      #001=NM_DATA_D File=NM_DATA_D.:E05TSI                              WED 07/30/97 03:52 Page:8
      252    13445        */
      253    13446                                %XUX$LEGAL_OPTIONS ( NAME =
      254    13447              XUX$LEGAL_OPTIONS , STCLASS = CONSTANT
      255    13448                                , BC = NO
      256    13449                                , DCB_LS = YES
      257    13450                                , DCB_OU = NO
      258    13451                                , DCB_UI = NO
      259    13452                                , DMAP = NO
      260    13453                                , LO = NO
      261    13454                                , LS = NO
      262    13455                                , NSTD = NO
      263    13456                                , OU = NO
      264    13457                                , PMAP = NO
      265    13458                                , SCHEMA = NO
      266    13459                                , SO = NO
      267    13460                                , SRCH = NO
      268    13461                                , UI = NO
      269    13462                                , UREF = NO
      270    13463                                , WARN = NO
      271    13464                                , XREF = NO
      272    13465                                                                        ) ;
      273    13592        /*B*
      274    13593        XUX$STD_OPTIONS is a structure that is used to return the flags
      275    13594                for the standard options specified on the invocation line.
      276    13595        */
      277    13596                                %XUX$STD_OPTIONS ( NAME =
      278    13597              XUX$STD_OPTIONS   , STCLASS = STATIC
      279    13598                                                                        ) ;
      280    13762        /*B*
      281    13763        XUX_PARAM       is a structure that is used with the library
      282    13764                routines used to process the options:  XUX$COMMON_OPTIONS.
      283    13765        */
      284    13766                                %XUX$PARAM ( NAME =
      285    13767              XUX_PARAM         , STCLASS = "STATIC SYMDEF"
      286    13768                                , BC_UNIT = NIL
      287    13769                                , DCB1 = M$DO
      288    13770                                , DCB2 = M$LO
PL6.E3A0      #001=NM_DATA_D File=NM_DATA_D.:E05TSI                              WED 07/30/97 03:52 Page:9
      289    13771                                , LEGAL_OPTIONS = XUX$LEGAL_OPTIONS
      290    13772                                , SRCH_LIST = NIL
      291    13773                                , STD_OPTIONS = XUX$STD_OPTIONS
      292    13774                                , USER_NODES = NIL
      293    13775                                , USER_ROUTINE = NIL
      294    13776                                                                        ) ;
      295    13917    1           END NM_DATA_D      ;

PL6.E3A0      #001=NM_DATA_D File=NM_DATA_D.:E05TSI                              WED 07/30/97 03:52 Page:10
--  Include file information  --

   XUG_ENTRY.:E05TOU  cannot be made into a system file and is referenced.
   XU_MACRO_C.:E05TOU  is referenced.
   XUX$INTERFACE_M.:E05TOU  is referenced.
   NM_SUBS_C.:E05TOU  is referenced.
   NM_EQU_E.:E05TOU  is referenced.
   CP_6_SUBS.:E05TOU  is referenced.
   NM_MACRO_M.:E05TOU  is referenced.
   NM_PERR_C.:E05TOU  is referenced.
   NI_DATA_C.:E05TOU  is referenced.
   NI$TABLES.:E05TOU  is referenced.
   FM$GRAN.:E05TOU  is referenced.
   CP_6_C.:E05TOU  is referenced.
   CP_6.:E05TOU  cannot be made into a system file and is referenced.
   B_SEGIDS_C.:E05TOU  is referenced.
      No diagnostics issued in procedure NM_DATA_D.

   No code generated for procedure NM_DATA_D .
   Procedure NM_DATA_D requires 4 words of local(AUTO) storage.

    No errors detected in file NM_DATA_D.:E05TSI    .

PL6.E3A0      #001=NM_DATA_D File=NM_DATA_D.:E05TSI                              WED 07/30/97 03:52 Page:11

 Object Unit name= NM_DATA_D                                  File name= NM_DATA_D.:E05TOU
 UTS= JUL 30 '97 03:52:42.88 WED                              Compiler= PL-6/E31         Sev=      00
 SharedLib= :SHARED_SYSTEM                                    Alt SharedLib=


    ****  Control sections  ****

 Sect   Type Bound  Init  Size OctSiz  Section name(segment info)
    0   DCB   even  none     0      0  M$UC
    1   DCB   even  none     0      0  M$DO
    2   DCB   even  none     0      0  M$EI
    3   DCB   even  none     0      0  M$EO
    4   DCB   even  none     0      0  M$LM
    5   DCB   even  none     0      0  M$LO
    6   DCB   even  none     0      0  M$ME
    7   DCB   even  none     0      0  M$SI
    8   Data  even  none  2452   4624  NM_DATA_D
    9  RoData even  UTS      2      2  NM_DATA_D
   10   Proc  even  none     0      0  NM_DATA_D

    ****  Entry defs  ****

                              Check   Calling
                             calling  sequence
  Sect OctLoc Primary Altret sequence   type   Parms  Name
    10      0   yes            yes     ~proc       0  NM_DATA_D

  ****  Data defs  ****

 Sect OctLoc  Name                           Sect OctLoc  Name
    8     20  NMD_PIT                            8    410  NMD_PROMPT
    8    432  NMD_VID0                           8   2432  NMD_VID1
    8   4432  XUG_GETCMD                         8   4504  XUG_INIT
    8   4603  XUX_PARAM
PL6.E3A0      #001=NM_DATA_D File=NM_DATA_D.:E05TSI                              WED 07/30/97 03:52 Page:12

  ****  Entry refs  ****

         Check        Calling
        calling       sequence
Altret sequence SRef   type   Args  Name
         yes           Std       0 NMB$BREAK
 yes     yes           Std       1 X$PRE_PROCESS
 yes     yes           Std       2 XTX$ADAPT

  ****  Data refs  ****

  Flags:  r = read only, s = secondary
Flgs Name                             Flgs Name                             Flgs Name
     M$UC                                  M$DO                                  M$EI
     M$EO                                  M$LM                                  M$LO
     M$ME                                  M$SI                                  NMC#COMMANDS

  ****  Segment refs  ****

  Flags:  r = read only, s = secondary
Flgs Name                             Flgs Name                             Flgs Name
     NULLSID                               ISSID
PL6.E3A0      #001=NM_DATA_D File=NM_DATA_D.:E05TSI                              WED 07/30/97 03:52 Page:13

        1        1        /*M* NM_DATA_D - Data definition procedure for MIRROR program.     */
        2        2        /*T***********************************************************/
        3        3        /*T*                                                         */
        4        4        /*T* Copyright (c) Bull HN Information Systems Inc., 1997    */
        5        5        /*T*                                                         */
        6        6        /*T***********************************************************/
        7        7        /*X* DFC=YES, DMC=YES, EDMC=YES                                    */
        8        8        /*F*
        9        9        NAME:           NM_DATA_D
       10       10
       11       11        PURPOSE:        To define all external data definitions.
       12       12        */
       13       13        /*D*
       14       14        NAME:           NM_DATA_D
       15       15
       16       16        CALL:           Not allowed.
       17       17
       18       18        PARAMETERS:     None.
       19       19
       20       20        DESCRIPTION:
       21       21
       22       22        THe NM_DATA_D      procedure is a noncallable procedure that
       23       23        defines all DCB definitions/references, external procedure
       24       24        references, and external data definitions/references.  Documentation
       25       25        for all of these definitions/references is taken from the
       26       26        NM_DATA_D      procedure.  The documentation for these definitions/
       27       27        references are not repeated elsewhere in the MIRROR program.
       28       28        */
       29       29        %EJECT ;
PL6.E3A0      #001=NM_DATA_D File=NM_DATA_D.:E05TSI                              WED 07/30/97 03:52 Page:14
       30       30        NM_DATA_D:              PROC ;
       31       31        /*
       32       32                        Includes
       33       33        */
       34       34        /*B*
       35       35        B_SEGIDS_C      is a PL-6 INCLUDE file that defines the CP-6
       36       36                SEGIDs for pointers and descriptors.
       37       37        */
       38       38        %INCLUDE                B_SEGIDS_C ;
       39      577
       40      578        /*B*
       41      579        CP_6            is a PL-6 INCLUDE file that defines the CP-6
       42      580                macros.
       43      581        */
       44      582        %INCLUDE                CP_6 ;
       45     6141
       46     6142        /*B*
       47     6143        FM$GRAN         is a PL-6 INCLUDE file that defines the CP-6
       48     6144                VID and granule structures.
       49     6145        */
       50     6146        %INCLUDE                FM$GRAN ;
       51     6215        /*B*
       52     6216        NI$TABLES       is a PL-6 INCLUDE file that defines the CP-6
       53     6217                IO system table macros.
       54     6218        */
       55     6219        %INCLUDE                NI$TABLES ;
       56     6435
       57     6436        /*B*
       58     6437        NI_DATA_C       is a PL-6 INCLUDE file that defines the CP-6
       59     6438                IO system constants.
       60     6439        */
       61     6440        %INCLUDE                NI_DATA_C ;
       62     6553        /*B*
       63     6554        NM_PERR_C  is a PL-6 INCLUDE file that defines the error codes
       64     6555                for the MIRROR program.
       65     6556        */
       66     6557        %INCLUDE                NM_PERR_C ;
PL6.E3A0      #001=NM_DATA_D File=NM_DATA_D.:E05TSI                              WED 07/30/97 03:52 Page:15
       67     6634
       68     6635        /*B*
       69     6636        NM_MACRO_M  is a PL-6 INCLUDE file that defines the macros
       70     6637                for the MIRROR program.
       71     6638        */
       72     6639        %INCLUDE                NM_MACRO_M ;
       73     8044
       74     8045        /*B*
       75     8046        XUX$INTERFACE_M is a PL-6 INCLUDE file that defines the macros for
       76     8047                the XUX library services.
       77     8048        */
       78     8049        %INCLUDE                XUX$INTERFACE_M ;
       79     8826
       80     8827        /*B*
       81     8828        XU_MACRO_C      is a PL-6 INCLUDE file that defines the macros for
       82     8829                the XUG library services.
       83     8830        */
       84     8831        %INCLUDE                XU_MACRO_C ;
       85    11937
       86    11938        /*
       87    11939                        Entries
       88    11940        */
       89    11941        /*B*
       90    11942        NMB$BREAK               is an external procedure that is used to
       91    11943                handle BREAK key events.
       92    11944        */
       93    11945    1   DCL 1 NMB$BREAK         ENTRY ;
       94    11946        /*B*
       95    11947        X$PRE_PROCESS           is an external procedure that is used to
       96    11948                do the preprocessing of expressions in commands.
       97    11949        */
       98    11950    1   DCL 1 X$PRE_PROCESS     ENTRY(1) ALTRET ;
       99    11951        /*B*
      100    11952        XUG_ENTRY               is an INCLUDE file that defines the ENTRY
      101    11953                DCLs for the XUG library services.
      102    11954        */
      103    11955        %INCLUDE                XUG_ENTRY ;
PL6.E3A0      #001=NM_DATA_D File=NM_DATA_D.:E05TSI                              WED 07/30/97 03:52 Page:16
      104    11986        /*B*
      105    11987        XUX$COMMON_OPTIONS      is an external procedure that is used to
      106    11988                process the contents of the invocation line.  This
      107    11989                procedure checks for valid positional DCB entries and
      108    11990                processes any options specified.
      109    11991        */
      110    11992    1   DCL 1 XUX$COMMON_OPTIONS        ENTRY(1) ALTRET ;
      111    11993
      112    11994        /*
      113    11995                        Variables
      114    11996        */
      115    11997        /*B*
      116    11998        B$TCB$          is an external pointer to the B$TCB structure.
      117    11999        */
      118    12000    1   DCL 1 B$TCB$            PTR SYMREF ;
      119    12001
      120    12002        /*B*
      121    12003        M$DO            is the DCB that is used to print error messages.
      122    12004        */
      123    12005    1   DCL 1 M$DO              DCB ;
      124    12006
      125    12007        /*B*
      126    12008        M$EI            is the DCB that is used to read/write the first
      127    12009                Mirrored Disk device.
      128    12010        */
      129    12011    1   DCL 1 M$EI              DCB ;
      130    12012
      131    12013        /*B*
      132    12014        M$EO            is the DCB that is used to read/write the second
      133    12015                Mirrored Disk device.
      134    12016        */
      135    12017    1   DCL 1 M$EO              DCB ;
      136    12018
      137    12019        /*B*
      138    12020        M$LM            is the DCB that is used to get the run unit name.
      139    12021        */
      140    12022    1   DCL 1 M$LM              DCB ;
PL6.E3A0      #001=NM_DATA_D File=NM_DATA_D.:E05TSI                              WED 07/30/97 03:52 Page:17
      141    12023
      142    12024        /*B*
      143    12025        M$LO            is the DCB that is used to print error messages.
      144    12026        */
      145    12027    1   DCL 1 M$LO              DCB ;
      146    12028
      147    12029        /*B*
      148    12030        M$ME            is the DCB that is used to print the greeting.
      149    12031        */
      150    12032    1   DCL 1 M$ME              DCB ;
      151    12033        /*B*
      152    12034        M$SI            is the DCB that is used to read the MIRROR
      153    12035                commands.
      154    12036        */
      155    12037    1   DCL 1 M$SI              DCB ;
      156    12038
      157    12039        /*B*
      158    12040        NMC#COMMANDS    is a structure built by PARTRGE for commands
      159    12041                accepted by the MIRROR program.
      160    12042        */
      161    12043    1   DCL 1 NMC#COMMANDS      UBIN SYMREF ;
      162    12044
      163    12045        /*B*
      164    12046        NMD_ERRFID      is a VLP_NAME structure that contains the fid
      165    12047                of the error message file.
      166    12048        */
      167    12049                                %VLP_NAME ( FPTN =
      168    12050              NMD_ERRFID        , STCLASS = STATIC
      169    12051                                , LEN = 59
      170    12052                                                                        ) ;
      171    12079        /*B*
      172    12080        NMD_PIT         is the structure that is used to control the
      173    12081                execution of the MIRROR program.
      174    12082        */
      175    12083                                %NMD_PIT ( FPTN =
      176    12084              NMD_PIT           , STCLASS = "STATIC SYMDEF"
      177    12085                                , DCB0 = M$EI
PL6.E3A0      #001=NM_DATA_D File=NM_DATA_D.:E05TSI                              WED 07/30/97 03:52 Page:18
      178    12086                                , DCB1 = M$EO
      179    12087                                , ERRFID = NMD_ERRFID
      180    12088                                , RUFID = NMD_RUFID
      181    12089                                , VID0 = NMD_VID0
      182    12090                                , VID1 = NMD_VID1
      183    12091                                                                ) ;
      184    12544        /*B*
      185    12545        NMD_PROMPT      is a VLP_NAME structure that defines the
      186    12546                prompt that is used by the XUG$GETCMD routines.
      187    12547        */
      188    12548                                %VLP_NAME ( FPTN =
      189    12549                NMD_PROMPT      , STCLASS = "STATIC SYMDEF"
      190    12550                                , NAME = '<MIRROR>'
      191    12551                                                                ) ;
      192    12578        /*B*
      193    12579        NMD_RUFID       is a VLP_NAME structure that contains the fid
      194    12580                of the run unit file.
      195    12581        */
      196    12582                                %VLP_NAME ( FPTN =
      197    12583              NMD_RUFID         , STCLASS = STATIC
      198    12584                                , LEN = 59
      199    12585                                                                        ) ;
      200    12612        /*B*
      201    12613        NMD_VID0        is a NMD_VID structure used to contain the VID
      202    12614                of for NMD_PIT.DEV(0).
      203    12615        */
      204    12616                                %NMD_VID ( FPTN =
      205    12617                NMD_VID0        , STCLASS = "STATIC SYMDEF"
      206    12618                                                                        ) ;
      207    12635        /*B*
      208    12636        NMD_VID1        is a NMD_VID structure used to contain the VID
      209    12637                of for NMD_PIT.DEV(1).
      210    12638        */
      211    12639                                %NMD_VID ( FPTN =
      212    12640                NMD_VID1        , STCLASS = "STATIC SYMDEF"
      213    12641                                                                        ) ;
      214    12658        /*B*
PL6.E3A0      #001=NM_DATA_D File=NM_DATA_D.:E05TSI                              WED 07/30/97 03:52 Page:19
      215    12659        XUG_GETCMD      is a XUG_GETCMD structure that is used with the
      216    12660                XUG library services to read commands and report errors.
      217    12661        */
      218    12662                                %XUG_GETCMD ( NAME =
      219    12663              XUG_GETCMD        , STCLASS = "STATIC SYMDEF"
      220    12664                                , DCB_PARAM = M$LO
      221    12665                                , DCB2_PARAM = M$DO
      222    12666                                , DISP = 0
      223    12667                                , ERRMFID = NMD_ERRFID
      224    12668                                , INDCB = M$SI
      225    12669                                , NODES = NMC#COMMANDS
      226    12670                                , OUTDCB = M$LO
      227    12671                                , PROMPT = NMD_PROMPT
      228    12672                                , PROMPT_VFC = NO
      229    12673                                                                        ) ;
      230    13011        /*B*
      231    13012        XUG_INIT        is a XUG_INIT structure that is used in the call
      232    13013                to the XUG$INIT procedure to initialize the XUG library
      233    13014                services.
      234    13015        */
      235    13016                                %XUG_INIT ( NAME =
      236    13017              XUG_INIT          , STCLASS = "STATIC SYMDEF"
      237    13018                                , ABORT = NMB$BREAK
      238    13019                                , ALWAYS_SET_PROMPT = YES
      239    13020                                , COMMANDS = YES
      240    13021                                , ECHO = HONOR_FLAG
      241    13022                                , GOODCMD = YES
      242    13023                                , PP_DCB = NIL
      243    13024                                , PREPROCESS = YES
      244    13025                                , PREPROCESSOR = X$PRE_PROCESS
      245    13026                                , SPELLING = YES
      246    13027                                , WORK = NIL
      247    13028                                , WSEG = 0
      248    13029                                                                        ) ;
      249    13442        /*B*
      250    13443        XUX$LEGAL_OPTIONS       is a structure that defines the legal
      251    13444                standard options for the MIRROR program.
PL6.E3A0      #001=NM_DATA_D File=NM_DATA_D.:E05TSI                              WED 07/30/97 03:52 Page:20
      252    13445        */
      253    13446                                %XUX$LEGAL_OPTIONS ( NAME =
      254    13447              XUX$LEGAL_OPTIONS , STCLASS = CONSTANT
      255    13448                                , BC = NO
      256    13449                                , DCB_LS = YES
      257    13450                                , DCB_OU = NO
      258    13451                                , DCB_UI = NO
      259    13452                                , DMAP = NO
      260    13453                                , LO = NO
      261    13454                                , LS = NO
      262    13455                                , NSTD = NO
      263    13456                                , OU = NO
      264    13457                                , PMAP = NO
      265    13458                                , SCHEMA = NO
      266    13459                                , SO = NO
      267    13460                                , SRCH = NO
      268    13461                                , UI = NO
      269    13462                                , UREF = NO
      270    13463                                , WARN = NO
      271    13464                                , XREF = NO
      272    13465                                                                        ) ;
      273    13592        /*B*
      274    13593        XUX$STD_OPTIONS is a structure that is used to return the flags
      275    13594                for the standard options specified on the invocation line.
      276    13595        */
      277    13596                                %XUX$STD_OPTIONS ( NAME =
      278    13597              XUX$STD_OPTIONS   , STCLASS = STATIC
      279    13598                                                                        ) ;
      280    13762        /*B*
      281    13763        XUX_PARAM       is a structure that is used with the library
      282    13764                routines used to process the options:  XUX$COMMON_OPTIONS.
      283    13765        */
      284    13766                                %XUX$PARAM ( NAME =
      285    13767              XUX_PARAM         , STCLASS = "STATIC SYMDEF"
      286    13768                                , BC_UNIT = NIL
      287    13769                                , DCB1 = M$DO
      288    13770                                , DCB2 = M$LO
PL6.E3A0      #001=NM_DATA_D File=NM_DATA_D.:E05TSI                              WED 07/30/97 03:52 Page:21
      289    13771                                , LEGAL_OPTIONS = XUX$LEGAL_OPTIONS
      290    13772                                , SRCH_LIST = NIL
      291    13773                                , STD_OPTIONS = XUX$STD_OPTIONS
      292    13774                                , USER_NODES = NIL
      293    13775                                , USER_ROUTINE = NIL
      294    13776                                                                        ) ;
      295    13917    1           END NM_DATA_D      ;

PL6.E3A0      #001=NM_DATA_D File=NM_DATA_D.:E05TSI                              WED 07/30/97 03:52 Page:22
--  Include file information  --

   XUG_ENTRY.:E05TOU  cannot be made into a system file and is referenced.
   XU_MACRO_C.:E05TOU  is referenced.
   XUX$INTERFACE_M.:E05TOU  is referenced.
   NM_SUBS_C.:E05TOU  is referenced.
   NM_EQU_E.:E05TOU  is referenced.
   CP_6_SUBS.:E05TOU  is referenced.
   NM_MACRO_M.:E05TOU  is referenced.
   NM_PERR_C.:E05TOU  is referenced.
   NI_DATA_C.:E05TOU  is referenced.
   NI$TABLES.:E05TOU  is referenced.
   FM$GRAN.:E05TOU  is referenced.
   CP_6_C.:E05TOU  is referenced.
   CP_6.:E05TOU  cannot be made into a system file and is referenced.
   B_SEGIDS_C.:E05TOU  is referenced.
      No diagnostics issued in procedure NM_DATA_D.
PL6.E3A0      #001=NM_DATA_D File=NM_DATA_D.:E05TSI                              WED 07/30/97 03:52 Page:23

 **** Variables and constants ****

  ****  Section 008  Data  NM_DATA_D

  ****  Scalars and arrays  ****
OctLoc.c.b A Datatyp(siz) R M Lvl/name                 OctLoc.c.b A Datatyp(siz) R M Lvl/name

     0-0-0/c STRC(540)   r     1 NMD_ERRFID                20-0-0/d STRC(8892)  r     1 NMD_PIT
   410-0-0/c STRC(81)    r     1 NMD_PROMPT               413-0-0/c STRC(540)   r     1 NMD_RUFID
   432-0-0/w UBIN        r     1 NMD_VID0(0:1023)        2432-0-0/w UBIN        r     1 NMD_VID1(0:1023)
  4550-0-0/w STRC(972)   r     1 XUX$STD_OPTIONS

  ****  Section 009 RoData NM_DATA_D

  ****  Scalars and arrays  ****
OctLoc.c.b A Datatyp(siz) R M Lvl/name                 OctLoc.c.b A Datatyp(siz) R M Lvl/name

     0-0-0/w STRC(72)    r     1 XUX$LEGAL_OPTIONS

  ****  SYMREF variables  ****

  ****  Scalars and arrays  ****
OctLoc.c.b A Datatyp(siz) R M Lvl/name                 OctLoc.c.b A Datatyp(siz) R M Lvl/name

     0-0-0/w UBIN        r     1 NMC#COMMANDS

  ****  BASED and DCB variables  ****

  ****  Scalars and arrays  ****
OctLoc.c.b A Datatyp(siz) R M Lvl/name                 OctLoc.c.b A Datatyp(siz) R M Lvl/name

     0-0-0N  NULL        r     1 M$DO                       0-0-0N  NULL        r     1 M$EI
     0-0-0N  NULL        r     1 M$EO                       0-0-0N  NULL        r     1 M$LO
     0-0-0N  NULL        r     1 M$SI

PL6.E3A0      #001=NM_DATA_D File=NM_DATA_D.:E05TSI                              WED 07/30/97 03:52 Page:24

   No code generated for procedure NM_DATA_D .
   Procedure NM_DATA_D requires 4 words of local(AUTO) storage.

    No errors detected in file NM_DATA_D.:E05TSI    .
PL6.E3A0      #001=NM_DATA_D File=NM_DATA_D.:E05TSI                              WED 07/30/97 03:52 Page:25
          *** CROSS REFERENCE LISTING ***
**     DENOTES     IDENTIFIER DEFINITION
<<                 IDENTIFIER'S VALUE SET
>>                 IDENTIFIER'S VALUE USED
<>                 IDENTIFIER SET AND/OR USED
--                 IDENTIFIER REFERENCED
PL6.E3A0      #001=NM_DATA_D File=NM_DATA_D.:E05TSI                              WED 07/30/97 03:52 Page:26
          MINI XREF LISTING

NMB$BREAK
     11945**DCL-ENT 13052--DCLINIT
NMC#COMMANDS
     12043**DCL     12687--DCLINIT
NMD_ERRFID
     12077**DCL     12327--DCLINIT 12705--DCLINIT
NMD_PIT.STATE.TEXT
     12523**DCL     12532--DCLINIT 12533--DCLINIT 12534--DCLINIT 12535--DCLINIT 12536--DCLINIT
NMD_PROMPT
     12576**DCL     12895--DCLINIT
NMD_RUFID
     12610**DCL     12516--DCLINIT
NMD_VID0
     12632**DCL     12248--DCLINIT 12254--DCLINIT
NMD_VID1
     12655**DCL     12249--DCLINIT 12255--DCLINIT
X$PRE_PROCESS
     11950**DCL-ENT 13147--DCLINIT
XTX$ADAPT
     13046**DCL-ENT 13362--DCLINIT
XUG_GETCMD.OUT$
     12691**DCL     12697--REDEF
XUX$LEGAL_OPTIONS
     13500**DCL     13804--DCLINIT
XUX$STD_OPTIONS
     13635**DCL     13808--DCLINIT
