VERSION E05

PL6.E3A0      #001=N_SCREECH_D File=N_SCREECH_D.:E05TSI                          WED 07/30/97 03:54 Page:1
        1        1        /*M*   N_SCREECH_D    CP-6 IO SYSTEM SCREECH Codes  */
        2        2        /*T***********************************************************/
        3        3        /*T*                                                         */
        4        4        /*T* Copyright (c) Bull HN Information Systems Inc., 1997    */
        5        5        /*T*                                                         */
        6        6        /*T***********************************************************/
        7        7        /*X* AIC,DMR,PLM=7,IND=4,DCI=4,THI=2,DTI=4 */
        8        8        N_SCREECH_D: PROC;
        9        9
       10       10        %INCLUDE JS_CP6;
       11      428        %INCLUDE NI_SCODE_C;
       12      446        %INCLUDE HF_SCODE_C;
       13      529                                                /*  I/O system screech codes  */
       14      530
       15      531        /* NIB screeches */
       16      532        %VLP_SCREECH (STCLASS=CONSTANT SYMDEF,FPTN=SC_NIBBADSQHCQ,FCG=NI,MID=B,CODE=
               532            %S$BADSQHCQ,SEV=SEV_SCREECH);
       17      602
       18      603        /* NID screeches */
       19      604
       20      605        %VLP_SCREECH (STCLASS=CONSTANT SYMDEF,FPTN=SC_NIDBADINTLVL,FCG=NI,MID=D,CODE=
               605            %S$BADINTLVL,SEV=SEV_SNAP);
       21      675
       22      676        %VLP_SCREECH (STCLASS=CONSTANT SYMDEF, FPTN=SC_NIDINVMIR,FCG=NI,MID=D,CODE=%S$INVMIR
               676            ,SEV=SEV_SCREECH);
       23      746
       24      747        %VLP_SCREECH (STCLASS=CONSTANT SYMDEF,FPTN=SC_NIDNOPMIR,FCG=NI,MID=D,CODE=%S$NOPMIR,
               747            SEV=SEV_SCREECH);
       25      817
       26      818        /* NIO screeches */
       27      819
       28      820        %VLP_SCREECH (STCLASS=CONSTANT SYMDEF, FPTN=SC_NIOBADIOQ,FCG=NI,MID=O,CODE=%S$BADIOQ
               820            ,SEV=SEV_SCREECH) ;
       29      890
       30      891        %VLP_SCREECH (STCLASS=CONSTANT SYMDEF,FPTN=SC_NIOINVDLA,FCG=NI,MID=O,CODE=%S$INVDLA,
               891            SEV=SEV_SCREECH);
       31      961
PL6.E3A0      #001=N_SCREECH_D File=N_SCREECH_D.:E05TSI                          WED 07/30/97 03:54 Page:2
       32      962        %VLP_SCREECH (STCLASS=CONSTANT SYMDEF,FPTN=SC_NIONRD,FCG=NI,MID=O,CODE=%S$NRD,SEV=
               962            SEV_SCREECH);
       33     1032
       34     1033        %VLP_SCREECH (STCLASS=CONSTANT SYMDEF,FPTN=SC_NIOBADFC,FCG=NI,MID=O,CODE=%S$BADFC,
              1033            SEV=SEV_SCREECH);
       35     1103
       36     1104        /* NIQ screeches */
       37     1105
       38     1106        %VLP_SCREECH (STCLASS=CONSTANT SYMDEF, FPTN=SC_NIQBADIOQ,FCG=NI,MID=Q,CODE=%S$BADIOQ
              1106            ,SEV=SEV_SCREECH) ;
       39     1176
       40     1177        /* NIS screeches */
       41     1178
       42     1179        %VLP_SCREECH (STCLASS=CONSTANT SYMDEF, FPTN=SC_NISBADIOQ,FCG=NI,MID=S,CODE=%S$BADIOQ
              1179            ,SEV=SEV_SCREECH) ;
       43     1249
       44     1250        %VLP_SCREECH (STCLASS=CONSTANT SYMDEF,FPTN=SC_NOTIOINT,FCG=NI,MID=S,CODE=%S$NOTIOINT
              1250            );
       45     1320        %VLP_SCREECH (STCLASS=CONSTANT SYMDEF,FPTN=SC_NISSSF,FCG=NI,MID=S,CODE=%S$SSFULL);
       46     1390
       47     1391        /* NIW screeches */
       48     1392
       49     1393        %VLP_SCREECH (STCLASS=CONSTANT SYMDEF,FPTN=SC_NIWBADSTATE,FCG=NI,MID=W,CODE=
              1393            %S$BADSTATE,SEV=SEV_SCREECH);
       50     1463
       51     1464        %VLP_SCREECH (STCLASS=CONSTANT SYMDEF,FPTN=SC_NIWBADINTLVL,FCG=NI,MID=W,CODE=
              1464            %S$BADINTLVL,SEV=SEV_SCREECH);
       52     1534
       53     1535        %VLP_SCREECH (STCLASS=CONSTANT SYMDEF, FPTN=SC_TDMINVMIR,FCG=TD,MID=M,CODE=%S$INVMIR
              1535            ,SEV=SEV_SCREECH);
       54     1605
       55     1606        %VLP_SCREECH (STCLASS=CONSTANT SYMDEF,FPTN=SC_TDMNOPMIR,FCG=TD,MID=M,CODE=%S$NOPMIR,
              1606            SEV=SEV_SCREECH);
       56     1676
       57     1677    1   END;

PL6.E3A0      #001=N_SCREECH_D File=N_SCREECH_D.:E05TSI                          WED 07/30/97 03:54 Page:3
--  Include file information  --

   HF_SCODE_C.:E05TOU  is referenced.
   NI_SCODE_C.:E05TOU  is referenced.
   JS_CP6.:E05TOU  is referenced.
      No diagnostics issued in procedure N_SCREECH_D.

   No code generated for procedure N_SCREECH_D .
   Procedure N_SCREECH_D requires 4 words of local(AUTO) storage.

    No errors detected in file N_SCREECH_D.:E05TSI    .

PL6.E3A0      #001=N_SCREECH_D File=N_SCREECH_D.:E05TSI                          WED 07/30/97 03:54 Page:4

 Object Unit name= N_SCREECH_D                                File name= N_SCREECH_D.:E05TOU
 UTS= JUL 30 '97 03:54:19.04 WED                              Compiler= PL-6/E31         Sev=      00
 SharedLib= :SHARED_SYSTEM                                    Alt SharedLib=


    ****  Control sections  ****

 Sect   Type Bound  Init  Size OctSiz  Section name(segment info)
    0  RoData even  UTS     32     40  N_SCREECH_D
    1   Proc  even  none     0      0  N_SCREECH_D

    ****  Entry defs  ****

                              Check   Calling
                             calling  sequence
  Sect OctLoc Primary Altret sequence   type   Parms  Name
     1      0   yes            yes     ~proc       0  N_SCREECH_D

  ****  Data defs  ****

 Sect OctLoc  Name                           Sect OctLoc  Name
    0      0  SC_NIBBADSQHCQ                     0      2  SC_NIDBADINTLVL
    0      4  SC_NIDINVMIR                       0      6  SC_NIDNOPMIR
    0     10  SC_NIOBADIOQ                       0     12  SC_NIOINVDLA
    0     14  SC_NIONRD                          0     16  SC_NIOBADFC
    0     20  SC_NIQBADIOQ                       0     22  SC_NISBADIOQ
    0     24  SC_NOTIOINT                        0     26  SC_NISSSF
    0     30  SC_NIWBADSTATE                     0     32  SC_NIWBADINTLVL
    0     34  SC_TDMINVMIR                       0     36  SC_TDMNOPMIR
PL6.E3A0      #001=N_SCREECH_D File=N_SCREECH_D.:E05TSI                          WED 07/30/97 03:54 Page:5


(unnamed)
 Sect OctLoc
   0     000   161102 403007   777776 177760   161104 402545   777776 177760    qB......qD......
   0     004   161104 402637   777776 177760   161104 402657   777776 177760    qD......qD......
   0     010   161117 403057   777776 177760   161117 402627   777776 177760    qO./....qO......
   0     014   161117 403047   777776 177760   161117 402647   777776 177760    qO.'....qO......
   0     020   161121 403057   777776 177760   161123 403057   777776 177760    qQ./....qS./....
   0     024   161123 402537   777776 177760   161123 410137   777776 177760    qS......qS._....
   0     030   161127 402777   777776 177760   161127 402547   777776 177760    qW......qW......
   0     034   240415 402637   777776 177760   240415 402657   777776 177760    ................
        1        1        /*M*   N_SCREECH_D    CP-6 IO SYSTEM SCREECH Codes  */
        2        2        /*T***********************************************************/
        3        3        /*T*                                                         */
        4        4        /*T* Copyright (c) Bull HN Information Systems Inc., 1997    */
        5        5        /*T*                                                         */
        6        6        /*T***********************************************************/
        7        7        /*X* AIC,DMR,PLM=7,IND=4,DCI=4,THI=2,DTI=4 */
        8        8        N_SCREECH_D: PROC;
        9        9
       10       10        %INCLUDE JS_CP6;
       11      428        %INCLUDE NI_SCODE_C;
       12      446        %INCLUDE HF_SCODE_C;
       13      529                                                /*  I/O system screech codes  */
       14      530
       15      531        /* NIB screeches */
       16      532        %VLP_SCREECH (STCLASS=CONSTANT SYMDEF,FPTN=SC_NIBBADSQHCQ,FCG=NI,MID=B,CODE=
               532            %S$BADSQHCQ,SEV=SEV_SCREECH);
       17      602
       18      603        /* NID screeches */
       19      604
       20      605        %VLP_SCREECH (STCLASS=CONSTANT SYMDEF,FPTN=SC_NIDBADINTLVL,FCG=NI,MID=D,CODE=
               605            %S$BADINTLVL,SEV=SEV_SNAP);
       21      675
       22      676       %VLP_SCREECH (STCLASS=CONSTANT SYMDEF, FPTN=SC_NIDINVMIR,FCG=NI,MID=D,CODE=%S$INVMIR
               676            ,SEV=SEV_SCREECH);
       23      746
PL6.E3A0      #001=N_SCREECH_D File=N_SCREECH_D.:E05TSI                          WED 07/30/97 03:54 Page:6
       24      747       %VLP_SCREECH (STCLASS=CONSTANT SYMDEF,FPTN=SC_NIDNOPMIR,FCG=NI,MID=D,CODE=%S$NOPMIR,
               747            SEV=SEV_SCREECH);
       25      817
       26      818        /* NIO screeches */
       27      819
       28      820       %VLP_SCREECH (STCLASS=CONSTANT SYMDEF, FPTN=SC_NIOBADIOQ,FCG=NI,MID=O,CODE=%S$BADIOQ
               820            ,SEV=SEV_SCREECH) ;
       29      890
       30      891       %VLP_SCREECH (STCLASS=CONSTANT SYMDEF,FPTN=SC_NIOINVDLA,FCG=NI,MID=O,CODE=%S$INVDLA,
               891            SEV=SEV_SCREECH);
       31      961
       32      962        %VLP_SCREECH (STCLASS=CONSTANT SYMDEF,FPTN=SC_NIONRD,FCG=NI,MID=O,CODE=%S$NRD,SEV=
               962            SEV_SCREECH);
       33     1032
       34     1033        %VLP_SCREECH (STCLASS=CONSTANT SYMDEF,FPTN=SC_NIOBADFC,FCG=NI,MID=O,CODE=%S$BADFC,
              1033            SEV=SEV_SCREECH);
       35     1103
       36     1104        /* NIQ screeches */
       37     1105
       38     1106       %VLP_SCREECH (STCLASS=CONSTANT SYMDEF, FPTN=SC_NIQBADIOQ,FCG=NI,MID=Q,CODE=%S$BADIOQ
              1106            ,SEV=SEV_SCREECH) ;
       39     1176
       40     1177        /* NIS screeches */
       41     1178
       42     1179       %VLP_SCREECH (STCLASS=CONSTANT SYMDEF, FPTN=SC_NISBADIOQ,FCG=NI,MID=S,CODE=%S$BADIOQ
              1179            ,SEV=SEV_SCREECH) ;
       43     1249
       44     1250       %VLP_SCREECH (STCLASS=CONSTANT SYMDEF,FPTN=SC_NOTIOINT,FCG=NI,MID=S,CODE=%S$NOTIOINT
              1250            );
       45     1320        %VLP_SCREECH (STCLASS=CONSTANT SYMDEF,FPTN=SC_NISSSF,FCG=NI,MID=S,CODE=%S$SSFULL);
       46     1390
       47     1391        /* NIW screeches */
       48     1392
       49     1393        %VLP_SCREECH (STCLASS=CONSTANT SYMDEF,FPTN=SC_NIWBADSTATE,FCG=NI,MID=W,CODE=
              1393            %S$BADSTATE,SEV=SEV_SCREECH);
       50     1463
       51     1464        %VLP_SCREECH (STCLASS=CONSTANT SYMDEF,FPTN=SC_NIWBADINTLVL,FCG=NI,MID=W,CODE=
PL6.E3A0      #001=N_SCREECH_D File=N_SCREECH_D.:E05TSI                          WED 07/30/97 03:54 Page:7
              1464            %S$BADINTLVL,SEV=SEV_SCREECH);
       52     1534
       53     1535       %VLP_SCREECH (STCLASS=CONSTANT SYMDEF, FPTN=SC_TDMINVMIR,FCG=TD,MID=M,CODE=%S$INVMIR
              1535            ,SEV=SEV_SCREECH);
       54     1605
       55     1606       %VLP_SCREECH (STCLASS=CONSTANT SYMDEF,FPTN=SC_TDMNOPMIR,FCG=TD,MID=M,CODE=%S$NOPMIR,
              1606            SEV=SEV_SCREECH);
       56     1676
       57     1677    1   END;

PL6.E3A0      #001=N_SCREECH_D File=N_SCREECH_D.:E05TSI                          WED 07/30/97 03:54 Page:8
--  Include file information  --

   HF_SCODE_C.:E05TOU  is referenced.
   NI_SCODE_C.:E05TOU  is referenced.
   JS_CP6.:E05TOU  is referenced.
      No diagnostics issued in procedure N_SCREECH_D.
PL6.E3A0      #001=N_SCREECH_D File=N_SCREECH_D.:E05TSI                          WED 07/30/97 03:54 Page:9

 **** Variables and constants ****


   No code generated for procedure N_SCREECH_D .
   Procedure N_SCREECH_D requires 4 words of local(AUTO) storage.

    No errors detected in file N_SCREECH_D.:E05TSI    .
PL6.E3A0      #001=N_SCREECH_D File=N_SCREECH_D.:E05TSI                          WED 07/30/97 03:54 Page:10
          *** CROSS REFERENCE LISTING ***
**     DENOTES     IDENTIFIER DEFINITION
<<                 IDENTIFIER'S VALUE SET
>>                 IDENTIFIER'S VALUE USED
<>                 IDENTIFIER SET AND/OR USED
--                 IDENTIFIER REFERENCED
PL6.E3A0      #001=N_SCREECH_D File=N_SCREECH_D.:E05TSI                          WED 07/30/97 03:54 Page:11
          MINI XREF LISTING

