VERSION E05

PL6.E3A0      #001=OCC$CHKDIG File=OCC$CONVERT.:E05TSI                           WED 07/30/97 03:55 Page:1
        1        1        /*M* OCC$CONVERT Keyin's internal conversion routines for workstations */
        2        2        /*T***********************************************************/
        3        3        /*T*                                                         */
        4        4        /*T* Copyright (c) Bull HN Information Systems Inc., 1997    */
        5        5        /*T*                                                         */
        6        6        /*T***********************************************************/
        7        7        /*X* DMR,PLM=5,IND=5,CTI=5,SDI=5,MCL=10,CSI=0,ECI=0 */
        8        8        %SET LISTSUB='1'B;
        9        9        /*
       10       10         ###    ###   ###     #    ###    ###   #   #  #   #  #####  ####   #####
       11       11        #   #  #   # #   #   ###  #   #  #   #  #   #  #   #  #      #   #    #
       12       12        #   #  #     #      # #   #      #   #  ##  #  #   #  #      #   #    #
       13       13        #   #  #     #       ###  #      #   #  # # #  #   #  ####   ####     #
       14       14        #   #  #     #        # # #      #   #  #  ##  #   #  #      # #      #
       15       15        #   #  #   # #   #   ###  #   #  #   #  #   #   # #   #      #  #     #
       16       16         ###    ###   ###     #    ###    ###   #   #    #    #####  #   #    #
       17       17                                                                          */
       18       18                                                /**/
       19       19                                                /**/
       20       20        %EJECT;
PL6.E3A0      #001=OCC$CHKDIG File=OCC$CONVERT.:E05TSI                           WED 07/30/97 03:55 Page:2
       21       21        /*M* OCC$CHKDIG KEYINs internal routine to check for digits */
       22       22             %SET LISTSUB='1'B;
       23       23        /*
       24       24         ###    ###    ###     #     ###   #   #  #   #  ####    ###    ###
       25       25        # # #  #   #  #   #   ###   #   #  #   #  #  #   #   #    #    #   #
       26       26        # # #  #      #      # #    #      #   #  # #    #   #    #    #
       27       27        #  ##  #      #       ###   #      #####  ##     #   #    #    #
       28       28        #   #  #      #        # #  #      #   #  # #    #   #    #    #  ##
       29       29        #   #  #   #  #   #   ###   #   #  #   #  #  #   #   #    #    #   #
       30       30         ###    ###    ###     #     ###   #   #  #   #  ####    ###    ###
       31       31                                                                          */
       32       32        OCC$CHKDIG: PROC(TEST_STRING,COUNT) ALTRET;
       33       33                                                /**/
       34       34    1   DCL COUNT UBIN WORD;
       35       35    1   DCL COUNTS REDEF COUNT SBIN;
       36       36    1   DCL TEST_STRING CHAR(COUNT);
       37       37                                                /**/
       38       38    1   DCL DECIMALS STATIC CHAR(10) ALIGNED INIT('0123456789');
       39       39                                                /**/
       40       40    1   DCL I SBIN WORD STATIC ALIGNED;
       41       41    1   DCL J SBIN WORD STATIC ALIGNED;
       42       42                                                /**/
       43       43    2        DO J = 0 TO COUNTS-1;
       44       44                                                /**/
       45       45    2             CALL INDEX(I,SUBSTR(TEST_STRING,J,1),DECIMALS) ALTRET(JUSTALT);
       46       46                                                /**/
       47       47    2           END;                            /* DO J */
       48       48                                                /**/
       49       49    1        RETURN;
       50       50                                                /**/
       51       51    1   JUSTALT: ;
       52       52    1        ALTRETURN;
       53       53                                                /**/
       54       54    1   END OCC$CHKDIG;

PL6.E3A0      #001=OCC$CHKDIG File=OCC$CONVERT.:E05TSI                           WED 07/30/97 03:55 Page:3
      No diagnostics issued in procedure OCC$CHKDIG.

   Procedure OCC$CHKDIG requires 20 words for executable code.
   Procedure OCC$CHKDIG requires 6 words of local(AUTO) storage.

    No errors detected in file OCC$CONVERT.:E05TSI    .

PL6.E3A0      #001=OCC$CHKDIG File=OCC$CONVERT.:E05TSI                           WED 07/30/97 03:55 Page:4

 Object Unit name= OCC$CHKDIG                                 File name= OCC$CONVERT.:E05TOU
 UTS= JUL 30 '97 03:55:01.88 WED                              Compiler= PL-6/E31         Sev=      00
 SharedLib= :SHARED_SYSTEM                                    Alt SharedLib=


    ****  Control sections  ****

 Sect   Type Bound  Init  Size OctSiz  Section name(segment info)
    0   Data  even  none     5      5  OCC$CHKDIG
    1   Proc  even  none    20     24  OCC$CHKDIG

    ****  Entry defs  ****

                              Check   Calling
                             calling  sequence
  Sect OctLoc Primary Altret sequence   type   Parms  Name
     1      0   yes    yes     yes      Std        2  OCC$CHKDIG

  ****  Entry refs  ****

         Check        Calling
        calling       sequence
Altret sequence SRef   type   Args  Name
                       nStd      0 X66_AUTO_2
                       nStd      0 X66_ARET
                       nStd      0 X66_AALT
PL6.E3A0      #001=OCC$CHKDIG File=OCC$CONVERT.:E05TSI                           WED 07/30/97 03:55 Page:5


        1        1        /*M* OCC$CONVERT Keyin's internal conversion routines for workstations */
        2        2        /*T***********************************************************/
        3        3        /*T*                                                         */
        4        4        /*T* Copyright (c) Bull HN Information Systems Inc., 1997    */
        5        5        /*T*                                                         */
        6        6        /*T***********************************************************/
        7        7        /*X* DMR,PLM=5,IND=5,CTI=5,SDI=5,MCL=10,CSI=0,ECI=0 */
        8        8        %SET LISTSUB='1'B;
        9        9        /*
       10       10         ###    ###   ###     #    ###    ###   #   #  #   #  #####  ####   #####
       11       11        #   #  #   # #   #   ###  #   #  #   #  #   #  #   #  #      #   #    #
       12       12        #   #  #     #      # #   #      #   #  ##  #  #   #  #      #   #    #
       13       13        #   #  #     #       ###  #      #   #  # # #  #   #  ####   ####     #
       14       14        #   #  #     #        # # #      #   #  #  ##  #   #  #      # #      #
       15       15        #   #  #   # #   #   ###  #   #  #   #  #   #   # #   #      #  #     #
       16       16         ###    ###   ###     #    ###    ###   #   #    #    #####  #   #    #
       17       17                                                                          */
       18       18                                                /**/
       19       19                                                /**/
       20       20        %EJECT;
PL6.E3A0      #001=OCC$CHKDIG File=OCC$CONVERT.:E05TSI                           WED 07/30/97 03:55 Page:6
       21       21        /*M* OCC$CHKDIG KEYINs internal routine to check for digits */
       22       22             %SET LISTSUB='1'B;
       23       23        /*
       24       24         ###    ###    ###     #     ###   #   #  #   #  ####    ###    ###
       25       25        # # #  #   #  #   #   ###   #   #  #   #  #  #   #   #    #    #   #
       26       26        # # #  #      #      # #    #      #   #  # #    #   #    #    #
       27       27        #  ##  #      #       ###   #      #####  ##     #   #    #    #
       28       28        #   #  #      #        # #  #      #   #  # #    #   #    #    #  ##
       29       29        #   #  #   #  #   #   ###   #   #  #   #  #  #   #   #    #    #   #
       30       30         ###    ###    ###     #     ###   #   #  #   #  ####    ###    ###
       31       31                                                                          */
       32       32        OCC$CHKDIG: PROC(TEST_STRING,COUNT) ALTRET;

     32  1 000000   000000 700200 xent  OCC$CHKDIG   TSX0  ! X66_AUTO_2
         1 000001   000006 000002                    ZERO    6,2

       33       33                                                /**/
       34       34    1   DCL COUNT UBIN WORD;
       35       35    1   DCL COUNTS REDEF COUNT SBIN;
       36       36    1   DCL TEST_STRING CHAR(COUNT);
       37       37                                                /**/
       38       38    1   DCL DECIMALS STATIC CHAR(10) ALIGNED INIT('0123456789');
       39       39                                                /**/
       40       40    1   DCL I SBIN WORD STATIC ALIGNED;
       41       41    1   DCL J SBIN WORD STATIC ALIGNED;
       42       42                                                /**/
       43       43    2        DO J = 0 TO COUNTS-1;

     43  1 000002   000004 450000 0                  STZ     J
         1 000003   000016 710000 1                  TRA     s:47+1

       44       44                                                /**/
       45       45    2             CALL INDEX(I,SUBSTR(TEST_STRING,J,1),DECIMALS) ALTRET(JUSTALT);

     45  1 000004   200004 470500                    LDP0    @COUNT,,AUTO
         1 000005   000000 720100                    LXL0    0,,PR0
         1 000006   200003 471500                    LDP1    @TEST_STRING,,AUTO
PL6.E3A0      #001=OCC$CHKDIG File=OCC$CONVERT.:E05TSI                           WED 07/30/97 03:55 Page:7
         1 000007   000004 235000 0                  LDA     J
         1 000010   000105 124400                    SCM     mask='000'O
         1 000011   000000 000012 0                  ADSC9   DECIMALS                 cn=0,n=10
         1 000012   100000 000001                    ADSC9   0,A,PR1                  cn=0,n=1
         1 000013   000003 000000 0                  ARG     I
         1 000014   000023 606400 1                  TTN     JUSTALT

       46       46                                                /**/
       47       47    2           END;                            /* DO J */

     47  1 000015   000004 054000 0                  AOS     J
         1 000016   200004 470500                    LDP0    @COUNT,,AUTO
         1 000017   000004 236000 0                  LDQ     J
         1 000020   000000 116100                    CMPQ    0,,PR0
         1 000021   000004 604000 1                  TMI     s:45

       48       48                                                /**/
       49       49    1        RETURN;

     49  1 000022   000000 702200 xent               TSX2  ! X66_ARET

     45  1 000023                       JUSTALT      null
       50       50                                                /**/
       51       51    1   JUSTALT: ;
       52       52    1        ALTRETURN;

     52  1 000023   000000 702200 xent               TSX2  ! X66_AALT
       53       53                                                /**/
       54       54    1   END OCC$CHKDIG;

PL6.E3A0      #001=OCC$CHKDIG File=OCC$CONVERT.:E05TSI                           WED 07/30/97 03:55 Page:8
      No diagnostics issued in procedure OCC$CHKDIG.
PL6.E3A0      #001=OCC$CHKDIG File=OCC$CONVERT.:E05TSI                           WED 07/30/97 03:55 Page:9

 **** Variables and constants ****

  ****  Section 000  Data  OCC$CHKDIG

  ****  Scalars and arrays  ****
OctLoc.c.b A Datatyp(siz) R M Lvl/name                 OctLoc.c.b A Datatyp(siz) R M Lvl/name

     0-0-0/w CHAR(10)    r     1 DECIMALS                   3-0-0/w SBIN        r     1 I
     4-0-0/w SBIN        r     1 J

  ****  Auto variables  ****

  ****  Scalars and arrays  ****
OctLoc.c.b A Datatyp(siz) R M Lvl/name                 OctLoc.c.b A Datatyp(siz) R M Lvl/name

     4-0-0/w PTR         r     1 @COUNT                     3-0-0/w PTR         r     1 @TEST_STRING
    *0-0-0/w UBIN        r     1 COUNT                     *0-0-0/w SBIN        r     1 COUNTS
    *0-0-0/c ACHR        r     1 TEST_STRING


   Procedure OCC$CHKDIG requires 20 words for executable code.
   Procedure OCC$CHKDIG requires 6 words of local(AUTO) storage.

    No errors detected in file OCC$CONVERT.:E05TSI    .
PL6.E3A0      #001=OCC$CHKDIG File=OCC$CONVERT.:E05TSI                           WED 07/30/97 03:55 Page:10
          *** CROSS REFERENCE LISTING ***
**     DENOTES     IDENTIFIER DEFINITION
<<                 IDENTIFIER'S VALUE SET
>>                 IDENTIFIER'S VALUE USED
<>                 IDENTIFIER SET AND/OR USED
--                 IDENTIFIER REFERENCED
PL6.E3A0      #001=OCC$CHKDIG File=OCC$CONVERT.:E05TSI                           WED 07/30/97 03:55 Page:11
          MINI XREF LISTING

COUNT
        34**DCL        32--PROC       35--REDEF      36--IMP-SIZ    45>>CALLBLT
COUNTS
        35**DCL        43>>DOINDEX
DECIMALS
        38**DCL        45>>CALLBLT
I
        40**DCL        45<<CALLBLT
J
        41**DCL        43<<DOINDEX    45>>CALLBLT
JUSTALT
        45**LABEL      45--CALLALT
TEST_STRING
        36**DCL        32--PROC       45>>CALLBLT
