VERSION E05

PL6.E3A0      #001=OCD_DATA_D File=OCD_DATA_D.:E05TSI                            WED 07/30/97 03:56 Page:1
        1        1        /*M* OCD_DATA_D  KEYINs zap-time  static data */
        2        2        /*T***********************************************************/
        3        3        /*T*                                                         */
        4        4        /*T* Copyright (c) Bull HN Information Systems Inc., 1997    */
        5        5        /*T*                                                         */
        6        6        /*T***********************************************************/
        7        7        /*X* DMR,PLM=5,IND=5,CTI=5,SDI=5,MCL=10,CSI=0,ECI=0 */
        8        8        %SET LISTSUB='1'B;
        9        9                                                /**/
       10       10        OCD_DATA_D: PROC NOAUTO;
       11       11                                                /**/
       12       12        /*!!*/                                  /* munger commands */
       13       13                                                /**/
       14       14        %INCLUDE OC_SUBS_C;
       15      745        %INCLUDE OCI_SUBS_C;
       16      843        %INCLUDE JG_GHOSTS_C;
       17      933                                                /**/
       18      934        /*!R!*/                                 /* munger commands */
       19      935                                                /**/
       20      936                                                /**/
       21      937    1   DCL 1 OCD_GHOSTS (0:15/*JG_MING#    */) STATIC SYMDEF,
       22      938    1            2 SENT BIT(1) UNAL INIT('0'B /*FALSE#*/*0),
       23      939    1            2 BACK BIT(1) UNAL INIT('0'B /*FALSE#*/*0),
       24      940    1            2 NAME CHAR(8) ALIGNED INIT(
       25      941    1              'OUTSYM',
       26      942    1              'PRESCAN',
       27      943    1              'INSYM',
       28      944    1              'DOG',
       29      945    1              ' ',                         /* SLUG */
       30      946    1              ' ',                         /* ELF */
       31      947    1              ' ',                         /* GOOSE */
       32      948    1              ' ',                         /* KEYIN */
       33      949    1              ' ',                         /* PIG */
       34      950    1              ' ',                         /* FROG */
       35      951    1              ' '*0);
       36      952                                                /**/
       37      953
PL6.E3A0      #001=OCD_DATA_D File=OCD_DATA_D.:E05TSI                            WED 07/30/97 03:56 Page:2
       38      954    1   DCL OCD_ZAPPHASE UBIN BYTE CALIGNED STATIC SYMDEF INIT (0);
       39      955    1   DCL OCD_ZAPTIME CHAR (11) CALIGNED STATIC SYMDEF INIT (' ');
       40      956
       41      957    1   DCL 1 OCD_ZAP_SAVE STATIC SYMDEF,
       42      958    1            2 CONS_STA CHAR(8) CALIGNED,
       43      959    1            2 OPER_CNT UBIN BYTE UNAL,
       44      960    1            2 MESSAGE,
       45      961    1                 3 MK_VECT UBIN BYTE UNAL,
       46      962    1                 3 KEYIN# UBIN BYTE UNAL,
       47      963    1                 3 CADDR BIT(18) UNAL,
       48      964    1                 3 FILR UBIN WORD UNAL,
       49      965    1                 3 TEXT CHAR (%(140 /* CSCG_MAXMC# */ - 8)) UNAL,
       50      966    1            2 CSCG_EVID,
       51      967    1                 3 CADDR BIT(18) UNAL,
       52      968    1                 3 * UBIN(18) UNAL INIT(4 /* OC_WRDN_O */);
       53      969    1   END OCD_DATA_D;

PL6.E3A0      #001=OCD_DATA_D File=OCD_DATA_D.:E05TSI                            WED 07/30/97 03:56 Page:3
--  Include file information  --

   JG_GHOSTS_C.:E05TOU  is referenced.
   OCI_SUBS_C.:E05TOU  is referenced.
   OC_SUBS_C.:E05TOU  is referenced.
      No diagnostics issued in procedure OCD_DATA_D.

   No code generated for procedure OCD_DATA_D .
   Procedure OCD_DATA_D is declared NOAUTO and requires 92 words of local(STATIC) storage.

    No errors detected in file OCD_DATA_D.:E05TSI    .

PL6.E3A0      #001=OCD_DATA_D File=OCD_DATA_D.:E05TSI                            WED 07/30/97 03:56 Page:4

 Object Unit name= OCD_DATA_D                                 File name= OCD_DATA_D.:E05TOU
 UTS= JUL 30 '97 03:56:23.44 WED                              Compiler= PL-6/E31         Sev=      00
 SharedLib= :SHARED_SYSTEM                                    Alt SharedLib=


    ****  Control sections  ****

 Sect   Type Bound  Init  Size OctSiz  Section name(segment info)
    0   Data  even  none    92    134  OCD_DATA_D
    1   Proc  even  none     0      0  OCD_DATA_D

    ****  Entry defs  ****

                              Check   Calling
                             calling  sequence
  Sect OctLoc Primary Altret sequence   type   Parms  Name
     1      0   yes            yes     ~proc       0  OCD_DATA_D

  ****  Data defs  ****

 Sect OctLoc  Name                           Sect OctLoc  Name
    0      1  OCD_GHOSTS                         0     61  OCD_ZAPPHASE
    0     62  OCD_ZAPTIME                        0     65  OCD_ZAP_SAVE
PL6.E3A0      #001=OCD_DATA_D File=OCD_DATA_D.:E05TSI                            WED 07/30/97 03:56 Page:5

        1        1        /*M* OCD_DATA_D  KEYINs zap-time  static data */
        2        2        /*T***********************************************************/
        3        3        /*T*                                                         */
        4        4        /*T* Copyright (c) Bull HN Information Systems Inc., 1997    */
        5        5        /*T*                                                         */
        6        6        /*T***********************************************************/
        7        7        /*X* DMR,PLM=5,IND=5,CTI=5,SDI=5,MCL=10,CSI=0,ECI=0 */
        8        8        %SET LISTSUB='1'B;
        9        9                                                /**/
       10       10        OCD_DATA_D: PROC NOAUTO;
       11       11                                                /**/
       12       12        /*!!*/                                  /* munger commands */
       13       13                                                /**/
       14       14        %INCLUDE OC_SUBS_C;
       15      745        %INCLUDE OCI_SUBS_C;
       16      843        %INCLUDE JG_GHOSTS_C;
       17      933                                                /**/
       18      934        /*!R!*/                                 /* munger commands */
       19      935                                                /**/
       20      936                                                /**/
       21      937    1   DCL 1 OCD_GHOSTS (0:15/*JG_MING#    */) STATIC SYMDEF,
       22      938    1            2 SENT BIT(1) UNAL INIT('0'B /*FALSE#*/*0),
       23      939    1            2 BACK BIT(1) UNAL INIT('0'B /*FALSE#*/*0),
       24      940    1            2 NAME CHAR(8) ALIGNED INIT(
       25      941    1              'OUTSYM',
       26      942    1              'PRESCAN',
       27      943    1              'INSYM',
       28      944    1              'DOG',
       29      945    1              ' ',                         /* SLUG */
       30      946    1              ' ',                         /* ELF */
       31      947    1              ' ',                         /* GOOSE */
       32      948    1              ' ',                         /* KEYIN */
       33      949    1              ' ',                         /* PIG */
       34      950    1              ' ',                         /* FROG */
       35      951    1              ' '*0);
       36      952                                                /**/
       37      953
PL6.E3A0      #001=OCD_DATA_D File=OCD_DATA_D.:E05TSI                            WED 07/30/97 03:56 Page:6
       38      954    1   DCL OCD_ZAPPHASE UBIN BYTE CALIGNED STATIC SYMDEF INIT (0);
       39      955    1   DCL OCD_ZAPTIME CHAR (11) CALIGNED STATIC SYMDEF INIT (' ');
       40      956
       41      957    1   DCL 1 OCD_ZAP_SAVE STATIC SYMDEF,
       42      958    1            2 CONS_STA CHAR(8) CALIGNED,
       43      959    1            2 OPER_CNT UBIN BYTE UNAL,
       44      960    1            2 MESSAGE,
       45      961    1                 3 MK_VECT UBIN BYTE UNAL,
       46      962    1                 3 KEYIN# UBIN BYTE UNAL,
       47      963    1                 3 CADDR BIT(18) UNAL,
       48      964    1                 3 FILR UBIN WORD UNAL,
       49      965    1                 3 TEXT CHAR (%(140 /* CSCG_MAXMC# */ - 8)) UNAL,
       50      966    1            2 CSCG_EVID,
       51      967    1                 3 CADDR BIT(18) UNAL,
       52      968    1                 3 * UBIN(18) UNAL INIT(4 /* OC_WRDN_O */);
       53      969    1   END OCD_DATA_D;

PL6.E3A0      #001=OCD_DATA_D File=OCD_DATA_D.:E05TSI                            WED 07/30/97 03:56 Page:7
--  Include file information  --

   JG_GHOSTS_C.:E05TOU  is referenced.
   OCI_SUBS_C.:E05TOU  is referenced.
   OC_SUBS_C.:E05TOU  is referenced.
      No diagnostics issued in procedure OCD_DATA_D.
PL6.E3A0      #001=OCD_DATA_D File=OCD_DATA_D.:E05TSI                            WED 07/30/97 03:56 Page:8

 **** Variables and constants ****


   No code generated for procedure OCD_DATA_D .
   Procedure OCD_DATA_D is declared NOAUTO and requires 92 words of local(STATIC) storage.

    No errors detected in file OCD_DATA_D.:E05TSI    .
PL6.E3A0      #001=OCD_DATA_D File=OCD_DATA_D.:E05TSI                            WED 07/30/97 03:56 Page:9
          *** CROSS REFERENCE LISTING ***
**     DENOTES     IDENTIFIER DEFINITION
<<                 IDENTIFIER'S VALUE SET
>>                 IDENTIFIER'S VALUE USED
<>                 IDENTIFIER SET AND/OR USED
--                 IDENTIFIER REFERENCED
PL6.E3A0      #001=OCD_DATA_D File=OCD_DATA_D.:E05TSI                            WED 07/30/97 03:56 Page:10
          MINI XREF LISTING

