VERSION E05

PL6.E3A0      #001=OCI_DATA_D File=OCI_DATA_D.:E05TSI                            WED 07/30/97 03:57 Page:1
        1        1        /*M* OCI_DATA_D  SYMDEFs for intra-monitor KEYIN stuff */
        2        2        /*T***********************************************************/
        3        3        /*T*                                                         */
        4        4        /*T* Copyright (c) Bull HN Information Systems Inc., 1997    */
        5        5        /*T*                                                         */
        6        6        /*T***********************************************************/
        7        7        /*X* DMR,PLM=5,IND=5,CTI=5,SDI=5,MCL=10,CSI=0,ECI=0 */
        8        8        OCI_DATA_D: PROC NOAUTO;
        9        9        /* !! munger stuff */
       10       10    1   DCL NIK$KEYIN ENTRY(1) ALTRET;
       11       11    1   DCL OCX$XDELTA ENTRY(1);
       12       12    1   DCL FRC$KEYIN ENTRY(1) ALTRET;
       13       13    1   DCL SSW$CTLCPU ENTRY(1) ALTRET;
       14       14    1   DCL TDK$KEYIN ENTRY(1) ALTRET;
       15       15    1   DCL OCA$KMISC ENTRY(1) ALTRET;
       16       16    1   DCL KIP$KEYIN ENTRY(3) ALTRET;
       17       17    1   DCL OCA$HDMON ENTRY(1) ALTRET;
       18       18    1   DCL NKP$KEYIN ENTRY(1) ALTRET;
       19       19    1   DCL FPK$KEYIN ENTRY(1) ALTRET;
       20       20    1   DCL FTR$KEYIN ENTRY(1);
       21       21        /* munger stuff !R! */
       22       22        %EQU OC_NROUTINES# = 11;
       23       23    1   DCL OCI_MSGID UBIN HALF STATIC SYMDEF INIT(1) ALIGNED;
       24       24    1   DCL OCI_ROUTINE(0:%OC_NROUTINES#) EPTR CONSTANT SYMDEF INIT(
       25       25    1         ENTADDR(OCX$XDELTA)*2,
       26       26    1         ENTADDR(NIK$KEYIN),
       27       27    1         ENTADDR(TDK$KEYIN),
       28       28    1         ENTADDR(SSW$CTLCPU),
       29       29    1         ENTADDR(FRC$KEYIN),
       30       30    1         ENTADDR(OCA$KMISC),
       31       31    1         ENTADDR(KIP$KEYIN),
       32       32    1         ENTADDR(OCA$HDMON),
       33       33    1        ENTADDR(FTR$KEYIN),
       34       34    1        ENTADDR(NKP$KEYIN),
       35       35    1        ENTADDR(FPK$KEYIN));
       36       36    1   DCL 1 OCI_PARAM STATIC SYMDEF,
       37       37    1            2 RTN# UBIN(9) UNAL,
PL6.E3A0      #001=OCI_DATA_D File=OCI_DATA_D.:E05TSI                            WED 07/30/97 03:57 Page:2
       38       38    1            2 KIN# UBIN(9) UNAL,
       39       39    1            2 CADDR UBIN HALF UNAL,
       40       40    1            2 BUF CHAR(136) UNAL;
       41       41    1   DCL OCI_KEYIN CHAR(80) STATIC SYMDEF;
       42       42    1   DCL OCI_PARAM$ PTR CONSTANT SYMDEF INIT(ADDR (OCI_PARAM));
       43       43    1   DCL OCI_INT BIT(1) STATIC SYMDEF ALIGNED INIT('0'B);
       44       44    1   DCL OCI_BOOT BIT(1) STATIC SYMDEF INIT('1'B) ALIGNED;
       45       45    1   DCL OCI_DIAG BIT(1) STATIC SYMDEF INIT('1'B) ALIGNED;
       46       46    1   END OCI_DATA_D;

PL6.E3A0      #001=OCI_DATA_D File=OCI_DATA_D.:E05TSI                            WED 07/30/97 03:57 Page:3
      No diagnostics issued in procedure OCI_DATA_D.

   No code generated for procedure OCI_DATA_D .
   Procedure OCI_DATA_D is declared NOAUTO and requires 60 words of local(STATIC) storage.

    No errors detected in file OCI_DATA_D.:E05TSI    .

PL6.E3A0      #001=OCI_DATA_D File=OCI_DATA_D.:E05TSI                            WED 07/30/97 03:57 Page:4

 Object Unit name= OCI_DATA_D                                 File name= OCI_DATA_D.:E05TOU
 UTS= JUL 30 '97 03:57:47.48 WED                              Compiler= PL-6/E31         Sev=      00
 SharedLib= :SHARED_SYSTEM                                    Alt SharedLib=


    ****  Control sections  ****

 Sect   Type Bound  Init  Size OctSiz  Section name(segment info)
    0   Data  even  none    60     74  OCI_DATA_D
    1  RoData even  UTS     13     15  OCI_DATA_D
    2   Proc  even  none     0      0  OCI_DATA_D

    ****  Entry defs  ****

                              Check   Calling
                             calling  sequence
  Sect OctLoc Primary Altret sequence   type   Parms  Name
     2      0   yes            yes     ~proc       0  OCI_DATA_D

  ****  Data defs  ****

 Sect OctLoc  Name                           Sect OctLoc  Name
    0      1  OCI_MSGID                          1      0  OCI_ROUTINE
    0      2  OCI_PARAM                          0     45  OCI_KEYIN
    1     14  OCI_PARAM$                         0     71  OCI_INT
    0     72  OCI_BOOT                           0     73  OCI_DIAG
PL6.E3A0      #001=OCI_DATA_D File=OCI_DATA_D.:E05TSI                            WED 07/30/97 03:57 Page:5

  ****  Entry refs  ****

         Check        Calling
        calling       sequence
Altret sequence SRef   type   Args  Name
         yes           Std       1 OCX$XDELTA
 yes     yes           Std       1 NIK$KEYIN
 yes     yes           Std       1 FRC$KEYIN
 yes     yes           Std       1 TDK$KEYIN
 yes     yes           Std       1 FPK$KEYIN
 yes     yes           Std       1 OCA$HDMON
 yes     yes           Std       1 SSW$CTLCPU
 yes     yes           Std       1 OCA$KMISC
         yes           Std       1 FTR$KEYIN
 yes     yes           Std       1 NKP$KEYIN
 yes     yes           Std       3 KIP$KEYIN

  ****  Segment refs  ****

  Flags:  r = read only, s = secondary
Flgs Name                             Flgs Name                             Flgs Name
     ISSID
PL6.E3A0      #001=OCI_DATA_D File=OCI_DATA_D.:E05TSI                            WED 07/30/97 03:57 Page:6


(unnamed)
 Sect OctLoc
   0     000   ****** ******   000001 ******                                    ........

OCI_PARAM
 Sect OctLoc
   0     002   ****** ******   ****** ******   ****** ******   ****** ******    ................

(unnamed)
 Sect OctLoc
   0     045   ****** ******   ****** ******   ****** ******   ****** ******    ................
   0     071*  0***** ******   4***** ******   4***** ******                    ............

OCI_ROUTINE
 Sect OctLoc
   1     000   000000 000000   000000 000000   000000 000000   000000 000000    ................
   1     010*  000000 000000   000000 000000   000000 000000   000000 000000    ................

(unnamed)
 Sect OctLoc
   1     014   000002 006000                                                    ....
        1        1        /*M* OCI_DATA_D  SYMDEFs for intra-monitor KEYIN stuff */
        2        2        /*T***********************************************************/
        3        3        /*T*                                                         */
        4        4        /*T* Copyright (c) Bull HN Information Systems Inc., 1997    */
        5        5        /*T*                                                         */
        6        6        /*T***********************************************************/
        7        7        /*X* DMR,PLM=5,IND=5,CTI=5,SDI=5,MCL=10,CSI=0,ECI=0 */
        8        8        OCI_DATA_D: PROC NOAUTO;
        9        9        /* !! munger stuff */
       10       10    1   DCL NIK$KEYIN ENTRY(1) ALTRET;
       11       11    1   DCL OCX$XDELTA ENTRY(1);
       12       12    1   DCL FRC$KEYIN ENTRY(1) ALTRET;
       13       13    1   DCL SSW$CTLCPU ENTRY(1) ALTRET;
       14       14    1   DCL TDK$KEYIN ENTRY(1) ALTRET;
       15       15    1   DCL OCA$KMISC ENTRY(1) ALTRET;
PL6.E3A0      #001=OCI_DATA_D File=OCI_DATA_D.:E05TSI                            WED 07/30/97 03:57 Page:7
       16       16    1   DCL KIP$KEYIN ENTRY(3) ALTRET;
       17       17    1   DCL OCA$HDMON ENTRY(1) ALTRET;
       18       18    1   DCL NKP$KEYIN ENTRY(1) ALTRET;
       19       19    1   DCL FPK$KEYIN ENTRY(1) ALTRET;
       20       20    1   DCL FTR$KEYIN ENTRY(1);
       21       21        /* munger stuff !R! */
       22       22        %EQU OC_NROUTINES# = 11;
       23       23    1   DCL OCI_MSGID UBIN HALF STATIC SYMDEF INIT(1) ALIGNED;
       24       24    1   DCL OCI_ROUTINE(0:%OC_NROUTINES#) EPTR CONSTANT SYMDEF INIT(
       25       25    1         ENTADDR(OCX$XDELTA)*2,
       26       26    1         ENTADDR(NIK$KEYIN),
       27       27    1         ENTADDR(TDK$KEYIN),
       28       28    1         ENTADDR(SSW$CTLCPU),
       29       29    1         ENTADDR(FRC$KEYIN),
       30       30    1         ENTADDR(OCA$KMISC),
       31       31    1         ENTADDR(KIP$KEYIN),
       32       32    1         ENTADDR(OCA$HDMON),
       33       33    1        ENTADDR(FTR$KEYIN),
       34       34    1        ENTADDR(NKP$KEYIN),
       35       35    1        ENTADDR(FPK$KEYIN));
       36       36    1   DCL 1 OCI_PARAM STATIC SYMDEF,
       37       37    1            2 RTN# UBIN(9) UNAL,
       38       38    1            2 KIN# UBIN(9) UNAL,
       39       39    1            2 CADDR UBIN HALF UNAL,
       40       40    1            2 BUF CHAR(136) UNAL;
       41       41    1   DCL OCI_KEYIN CHAR(80) STATIC SYMDEF;
       42       42    1   DCL OCI_PARAM$ PTR CONSTANT SYMDEF INIT(ADDR (OCI_PARAM));
       43       43    1   DCL OCI_INT BIT(1) STATIC SYMDEF ALIGNED INIT('0'B);
       44       44    1   DCL OCI_BOOT BIT(1) STATIC SYMDEF INIT('1'B) ALIGNED;
       45       45    1   DCL OCI_DIAG BIT(1) STATIC SYMDEF INIT('1'B) ALIGNED;
       46       46    1   END OCI_DATA_D;

PL6.E3A0      #001=OCI_DATA_D File=OCI_DATA_D.:E05TSI                            WED 07/30/97 03:57 Page:8
      No diagnostics issued in procedure OCI_DATA_D.
PL6.E3A0      #001=OCI_DATA_D File=OCI_DATA_D.:E05TSI                            WED 07/30/97 03:57 Page:9

 **** Variables and constants ****

  ****  Section 000  Data  OCI_DATA_D

  ****  Scalars and arrays  ****
OctLoc.c.b A Datatyp(siz) R M Lvl/name                 OctLoc.c.b A Datatyp(siz) R M Lvl/name

     2-0-0/c STRC(1260)  r     1 OCI_PARAM

  ****  Section 001 RoData OCI_DATA_D

  ****  Scalars and arrays  ****
OctLoc.c.b A Datatyp(siz) R M Lvl/name                 OctLoc.c.b A Datatyp(siz) R M Lvl/name

     0-0-0/w EPTR        r     1 OCI_ROUTINE(0:11)


   No code generated for procedure OCI_DATA_D .
   Procedure OCI_DATA_D is declared NOAUTO and requires 60 words of local(STATIC) storage.

    No errors detected in file OCI_DATA_D.:E05TSI    .
PL6.E3A0      #001=OCI_DATA_D File=OCI_DATA_D.:E05TSI                            WED 07/30/97 03:57 Page:10
          *** CROSS REFERENCE LISTING ***
**     DENOTES     IDENTIFIER DEFINITION
<<                 IDENTIFIER'S VALUE SET
>>                 IDENTIFIER'S VALUE USED
<>                 IDENTIFIER SET AND/OR USED
--                 IDENTIFIER REFERENCED
PL6.E3A0      #001=OCI_DATA_D File=OCI_DATA_D.:E05TSI                            WED 07/30/97 03:57 Page:11
          MINI XREF LISTING

FPK$KEYIN
        19**DCL-ENT    35--DCLINIT
FRC$KEYIN
        12**DCL-ENT    29--DCLINIT
FTR$KEYIN
        20**DCL-ENT    33--DCLINIT
KIP$KEYIN
        16**DCL-ENT    31--DCLINIT
NIK$KEYIN
        10**DCL-ENT    26--DCLINIT
NKP$KEYIN
        18**DCL-ENT    34--DCLINIT
OCA$HDMON
        17**DCL-ENT    32--DCLINIT
OCA$KMISC
        15**DCL-ENT    30--DCLINIT
OCI_PARAM
        36**DCL        42--DCLINIT
OCX$XDELTA
        11**DCL-ENT    25--DCLINIT
SSW$CTLCPU
        13**DCL-ENT    28--DCLINIT
TDK$KEYIN
        14**DCL-ENT    27--DCLINIT
