PL6.E3A0      #004=OCL$STATUS File=OCL$LISTER.:E05TSI                            WED 07/30/97 04:02 Page:157
      974        1        /*M* OCL$STATUS KEYINs routine to update the status record for
      975        2             the history file */
      976        3        /*T***********************************************************/
      977        4        /*T*                                                         */
      978        5        /*T* Copyright (c) Bull HN Information Systems Inc., 1997    */
      979        6        /*T*                                                         */
      980        7        /*T***********************************************************/
      981        8        %SET LISTSUB='1'B;
      982        9        %EJECT;
PL6.E3A0      #004=OCL$STATUS File=OCL$LISTER.:E05TSI                            WED 07/30/97 04:02 Page:158
      983       10        OCL$STATUS: PROC(UPDATE_IND);
      984       11                                                /* */
      985       12    1   DCL UPDATE_IND SBIN WORD;
      986       13        %INCLUDE OCI_SUBS_C;
      987      111        %INCLUDE OC_SUBS_C;
      988      842                                                /**/
      989      843        %INCLUDE CP_6;
      990      924        %INCLUDE OC_DAT_R;
      991     1085        %INCLUDE B$JIT;
      992     1375    1   DCL B$JIT$ PTR SYMREF;
      993     1376                                                /**/
      994     1377    1   DCL B$TCB$ PTR SYMREF;
      995     1378             %B$TCB;
      996     1381             %B$ALT;
      997     1389                                                /**/
      998     1390        %SUB B$ALT=B$TCB$->B$TCB.ALT$->B$ALT;
      999     1391                                                /**/
     1000     1392                                                /**/
     1001     1393        %INCLUDE B_ERRORS_C;
     1002     2520                                                /**/
     1003     2521                                                /**/
     1004     2522    1   DCL F$HISTFILE DCB;
     1005     2523                                                /**/
     1006     2524    1   DCL OCO$IWRITE ENTRY(8);
     1007     2525    1   DCL MSG# UBIN HALF UNAL STATIC INIT (372 /*TURNO_MSG#*/);
     1008     2526    1   DCL NP# UBIN BYTE UNAL STATIC INIT(4);
     1009     2527                                                /**/
     1010     2528        %INCLUDE OCL_DATA_R;
     1011     2553                                                /**/
     1012     2554                                                /**/
     1013     2555                  %VLP_NAME (FPTN=OCHIST,
     1014     2556                                 NAME=':OCHIST');
     1015     2583                                                /**/
     1016     2584                  %VLP_ACCT (FPTN=SYS,
     1017     2585                                 ACCT=':SYSTAC');
     1018     2598                                                /**/
     1019     2599             %FPT_OPEN      (FPTN=OPEN_HISTORYU,
PL6.E3A0      #004=OCL$STATUS File=OCL$LISTER.:E05TSI                            WED 07/30/97 04:02 Page:159
     1020     2600                                 NAME=OCHIST,
     1021     2601                                 ACCT=SYS,
     1022     2602                                 ASN=FILE,
     1023     2603                                 ACS=DIRECT,
     1024     2604                                 DCB=F$HISTFILE,
     1025     2605                                 DISP=NAMED,
     1026     2606                                 CTG=YES,
     1027     2607                                 FUN=UPDATE,
     1028     2608                            SHARE=NONE,
     1029     2609                                 ORG=KEYED);
     1030     2718             %FPT_READ      (FPTN=READ_STAT,
     1031     2719                                 BUF=OCL_STATUS_REC,
     1032     2720                                 DCB=F$HISTFILE,
     1033     2721                                 KEY=OCL_STATUS_KEY,
     1034     2722                                 KEYS=YES,
     1035     2723                                 WAIT=YES);
     1036     2762                                                /**/
     1037     2763             %FPT_WRITE     (FPTN=WRITE_STATUS,
     1038     2764                            BUF=OCL_STATUS_REC,
     1039     2765                                 DCB=F$HISTFILE,
     1040     2766                                 KEY=OCL_STATUS_KEY,
     1041     2767                                 WAIT=YES);
     1042     2798                                                /**/
     1043     2799             %FPT_CLOSE     (FPTN=CLOSE_SAVE,
     1044     2800                                 DCB=F$HISTFILE);
     1045     2842                                                /**/
     1046     2843             %FPT_PRIV      (FPTN=RESET_FMSEC,
     1047     2844                                 PRIV=%PR_FMSEC#);
     1048     2859    1   DCL LEN(0:3) UBIN BYTE STATIC UNAL INIT(1,1,1,1);
     1049     2860    1   DCL 1 PARM,
     1050     2861    1            2 TYPE UBIN BYTE UNAL,
     1051     2862    1            2 ACTION UBIN BYTE UNAL,
     1052     2863    1            2 HOUR UBIN BYTE UNAL,
     1053     2864    1            2 MIN UBIN BYTE UNAL;
     1054     2865        %EJECT;
PL6.E3A0      #004=OCL$STATUS File=OCL$LISTER.:E05TSI                            WED 07/30/97 04:02 Page:160
     1055     2866        /*
     1056     2867                  Begin   O C L $ S T A T U S   Main
     1057     2868                                                                          */
     1058     2869
     1059     2870    1        IF ~OC_LIST
     1060     2871    1        THEN
     1061     2872    2        DO;
     1062     2873    2             CALL M$SPRIV (RESET_FMSEC) ALTRET (PRESS_ON1);
     1063     2874    2   PRESS_ON1:;
     1064     2875    2             CALL M$OPEN (OPEN_HISTORYU) ALTRET(NO_CAN_DO);
     1065     2876    2             CALL M$RPRIV (RESET_FMSEC) ALTRET (PRESS_ON2);
     1066     2877    2   PRESS_ON2:;
     1067     2878    2           END;
     1068     2879                                                /**/
     1069     2880                                                /**/
     1070     2881                                                /* SAVE TURNOVER INFORMATION */
     1071     2882    1        CALL M$READ (READ_STAT) ALTRET (TOO_BAD);
     1072     2883    1   TOO_BAD:;
     1073     2884    1        OCL_STATUS_REC.OACTIVE = OC_HIST_SAVE.ACTIVE ;
     1074     2885    1        OCL_STATUS_REC.OHOUR = OC_HIST_SAVE.HOUR ;
     1075     2886    1        OCL_STATUS_REC.OMIN = OC_HIST_SAVE.MIN ;
     1076     2887    1        OCL_STATUS_REC.AACTIVE = OC_ACCT_SAVE.ACTIVE ;
     1077     2888    1        OCL_STATUS_REC.AHOUR = OC_ACCT_SAVE.HOUR ;
     1078     2889    1        OCL_STATUS_REC.AMIN = OC_ACCT_SAVE.MIN ;
     1079     2890    1        OCL_STATUS_REC.PREV_FILE = OCL_PREVIOUS_FILE;
     1080     2891    1        OCL_STATUS_REC.CONSOLE_KEY = OCL_CONSOLE_FIELD;
     1081     2892                                                /**/
     1082     2893    1        CALL M$WRITE (WRITE_STATUS) ALTRET (NO_CAN_DO);
     1083     2894                                                /**/
     1084     2895    1        IF ~OC_LIST
     1085     2896    1        THEN
     1086     2897    1             CALL M$CLOSE(CLOSE_SAVE) ALTRET(OOPS);
     1087     2898    1   OOPS: ;
     1088     2899    1        PARM.TYPE = 1;
     1089     2900    1        IF UPDATE_IND = 0 /* OCN_UPDAT_BOTH# */
     1090     2901    1             OR
     1091     2902    1             UPDATE_IND = 2 /* OCN_UPDAT_HIST# */
PL6.E3A0      #004=OCL$STATUS File=OCL$LISTER.:E05TSI                            WED 07/30/97 04:02 Page:161
     1092     2903    1        THEN
     1093     2904    2        DO;
     1094     2905    2             IF OC_HIST_SAVE.ACTIVE
     1095     2906    2             THEN
     1096     2907    3             DO;
     1097     2908    3                  PARM.HOUR = OC_HIST_SAVE.HOUR;
     1098     2909    3                  PARM.MIN = OC_HIST_SAVE.MIN;
     1099     2910    3                  PARM.ACTION = 1;
     1100     2911    3                  CALL OCO$IWRITE('200000'O /* M_SYS  */,MSG#,NP#,LEN,PARM,0);
     1101     2912    3                END;
     1102     2913    2             ELSE
     1103     2914    3             DO;
     1104     2915    3                  PARM.ACTION = 0;
     1105     2916    3                  CALL OCO$IWRITE('200000'O /* M_SYS  */,MSG#,NP#,LEN,PARM,0);
     1106     2917    3                END;
     1107     2918    2           END;
     1108     2919    1        IF UPDATE_IND = 0 /* OCN_UPDAT_BOTH# */
     1109     2920    1             OR
     1110     2921    1             UPDATE_IND = 1 /* OCN_UPDAT_ACCT# */
     1111     2922    1        THEN
     1112     2923    2        DO;
     1113     2924    2             PARM.TYPE = 0;
     1114     2925    2             IF OC_ACCT_SAVE.ACTIVE
     1115     2926    2             THEN
     1116     2927    3             DO;
     1117     2928    3                  PARM.ACTION = 1;
     1118     2929    3                  PARM.HOUR = OC_ACCT_SAVE.HOUR;
     1119     2930    3                  PARM.MIN = OC_ACCT_SAVE.MIN;
     1120     2931    3                  CALL OCO$IWRITE('200000'O /* M_SYS  */,MSG#,NP#,LEN,PARM,0);
     1121     2932    3                END;
     1122     2933    2             ELSE
     1123     2934    3             DO;
     1124     2935    3                  PARM.ACTION=0;
     1125     2936    3                  CALL OCO$IWRITE('200000'O /* M_SYS  */,MSG#,NP#,LEN,PARM,0);
     1126     2937    3                END;
     1127     2938    2           END;
     1128     2939        %EJECT;
PL6.E3A0      #004=OCL$STATUS File=OCL$LISTER.:E05TSI                            WED 07/30/97 04:02 Page:162
     1129     2940                                                /**/
     1130     2941                                                /**/
     1131     2942    1   NO_CAN_DO: ;
     1132     2943                                                /**/
     1133     2944    1        CALL M$RPRIV (RESET_FMSEC) ALTRET (PRESS_ON3);
     1134     2945    1   PRESS_ON3:;
     1135     2946    1        RETURN;
     1136     2947    1   END OCL$STATUS;

PL6.E3A0      #004=OCL$STATUS File=OCL$LISTER.:E05TSI                            WED 07/30/97 04:02 Page:163
--  Include file information  --

   OCL_DATA_R.:E05TOU  cannot be made into a system file and is referenced.
   B_ERRORS_C.:E05TOU  is referenced.
   B$JIT.:E05TOU  cannot be made into a system file and is referenced.
   OC$MESSHD_C.:E05TOU  is referenced.
   OC_DAT_R.:E05TOU  cannot be made into a system file and is referenced.
   CP_6.:E05TOU  cannot be made into a system file and is referenced.
   OC_SUBS_C.:E05TOU  is referenced.
   OCI_SUBS_C.:E05TOU  is referenced.
   B$JIT_C.:E05TOU  was found in the system file and is referenced.
   CP_6_C.:E05TOU  was found in the system file and is referenced.
      No diagnostics issued in procedure OCL$STATUS.

   Procedure OCL$STATUS requires 149 words for executable code.
   Procedure OCL$STATUS requires 12 words of local(AUTO) storage.

    No errors detected in file OCL$LISTER.:E05TSI    .

PL6.E3A0      #004=OCL$STATUS File=OCL$LISTER.:E05TSI                            WED 07/30/97 04:02 Page:164

 Object Unit name= OCL$STATUS                                 File name= OCL$LISTER.:E05TOU
 UTS= JUL 30 '97 04:02:18.28 WED                              Compiler= PL-6/E31         Sev=      00
 SharedLib= :SHARED_SYSTEM                                    Alt SharedLib=


    ****  Control sections  ****

 Sect   Type Bound  Init  Size OctSiz  Section name(segment info)
    0   DCB   even  none     0      0  M$UC
    1   DCB   even  none     0      0  F$HISTFILE
    2   Data  even  none   125    175  OCL$STATUS
    3   Proc  even  none   149    225  OCL$STATUS
    4  RoData even  none     6      6  OCL$STATUS

    ****  Entry defs  ****

                              Check   Calling
                             calling  sequence
  Sect OctLoc Primary Altret sequence   type   Parms  Name
     3      0   yes            yes      Std        1  OCL$STATUS

  ****  Entry refs  ****

         Check        Calling
        calling       sequence
Altret sequence SRef   type   Args  Name
         yes           Std       8 OCO$IWRITE
                       nStd      0 X66_AUTO_1
                       Std       0 B_CONSPOOL_D
                       nStd      0 X66_ARET
PL6.E3A0      #004=OCL$STATUS File=OCL$LISTER.:E05TSI                            WED 07/30/97 04:02 Page:165

  ****  Data refs  ****

  Flags:  r = read only, s = secondary
Flgs Name                             Flgs Name                             Flgs Name
     M$UC                                  OC_INTMSG                             OC_MESSBUF
     OC_MSGBUFFER                          OC_PARAM                              OC_CONSOLE$
     OC_DIR                                OC_INTBIT                             OC_MASK
     OC_LIST                               OC_HIST_SAVE                          OC_ACCT_SAVE
     B$JIT$                                F$HISTFILE                            OCL_STATUS_REC
     OCL_PREVIOUS_FILE                     OCL_STATUS_KEY                        OCL_CONSOLE_FIELD
     B_VECTNIL

  ****  Segment refs  ****

  Flags:  r = read only, s = secondary
Flgs Name                             Flgs Name                             Flgs Name
     ISSID                                 NULLSID
PL6.E3A0      #004=OCL$STATUS File=OCL$LISTER.:E05TSI                            WED 07/30/97 04:02 Page:166


      974        1        /*M* OCL$STATUS KEYINs routine to update the status record for
      975        2             the history file */
      976        3        /*T***********************************************************/
      977        4        /*T*                                                         */
      978        5        /*T* Copyright (c) Bull HN Information Systems Inc., 1997    */
      979        6        /*T*                                                         */
      980        7        /*T***********************************************************/
      981        8        %SET LISTSUB='1'B;
      982        9        %EJECT;
PL6.E3A0      #004=OCL$STATUS File=OCL$LISTER.:E05TSI                            WED 07/30/97 04:02 Page:167
      983       10        OCL$STATUS: PROC(UPDATE_IND);

     10  3 000000   000000 700200 xent  OCL$STATUS   TSX0  ! X66_AUTO_1
         3 000001   000014 000001                    ZERO    12,1

      984       11                                                /* */
      985       12    1   DCL UPDATE_IND SBIN WORD;
      986       13        %INCLUDE OCI_SUBS_C;
      987      111        %INCLUDE OC_SUBS_C;
      988      842                                                /**/
      989      843        %INCLUDE CP_6;
      990      924        %INCLUDE OC_DAT_R;
      991     1085        %INCLUDE B$JIT;
      992     1375    1   DCL B$JIT$ PTR SYMREF;
      993     1376                                                /**/
      994     1377    1   DCL B$TCB$ PTR SYMREF;
      995     1378             %B$TCB;
      996     1381             %B$ALT;
      997     1389                                                /**/
      998     1390        %SUB B$ALT=B$TCB$->B$TCB.ALT$->B$ALT;
      999     1391                                                /**/
     1000     1392                                                /**/
     1001     1393        %INCLUDE B_ERRORS_C;
     1002     2520                                                /**/
     1003     2521                                                /**/
     1004     2522    1   DCL F$HISTFILE DCB;
     1005     2523                                                /**/
     1006     2524    1   DCL OCO$IWRITE ENTRY(8);
     1007     2525    1   DCL MSG# UBIN HALF UNAL STATIC INIT (372 /*TURNO_MSG#*/);
     1008     2526    1   DCL NP# UBIN BYTE UNAL STATIC INIT(4);
     1009     2527                                                /**/
     1010     2528        %INCLUDE OCL_DATA_R;
     1011     2553                                                /**/
     1012     2554                                                /**/
     1013     2555                  %VLP_NAME (FPTN=OCHIST,
     1014     2556                                 NAME=':OCHIST');
     1015     2583                                                /**/
PL6.E3A0      #004=OCL$STATUS File=OCL$LISTER.:E05TSI                            WED 07/30/97 04:02 Page:168
     1016     2584                  %VLP_ACCT (FPTN=SYS,
     1017     2585                                 ACCT=':SYSTAC');
     1018     2598                                                /**/
     1019     2599             %FPT_OPEN      (FPTN=OPEN_HISTORYU,
     1020     2600                                 NAME=OCHIST,
     1021     2601                                 ACCT=SYS,
     1022     2602                                 ASN=FILE,
     1023     2603                                 ACS=DIRECT,
     1024     2604                                 DCB=F$HISTFILE,
     1025     2605                                 DISP=NAMED,
     1026     2606                                 CTG=YES,
     1027     2607                                 FUN=UPDATE,
     1028     2608                            SHARE=NONE,
     1029     2609                                 ORG=KEYED);
     1030     2718             %FPT_READ      (FPTN=READ_STAT,
     1031     2719                                 BUF=OCL_STATUS_REC,
     1032     2720                                 DCB=F$HISTFILE,
     1033     2721                                 KEY=OCL_STATUS_KEY,
     1034     2722                                 KEYS=YES,
     1035     2723                                 WAIT=YES);
     1036     2762                                                /**/
     1037     2763             %FPT_WRITE     (FPTN=WRITE_STATUS,
     1038     2764                            BUF=OCL_STATUS_REC,
     1039     2765                                 DCB=F$HISTFILE,
     1040     2766                                 KEY=OCL_STATUS_KEY,
     1041     2767                                 WAIT=YES);
     1042     2798                                                /**/
     1043     2799             %FPT_CLOSE     (FPTN=CLOSE_SAVE,
     1044     2800                                 DCB=F$HISTFILE);
     1045     2842                                                /**/
     1046     2843             %FPT_PRIV      (FPTN=RESET_FMSEC,
     1047     2844                                 PRIV=%PR_FMSEC#);
     1048     2859    1   DCL LEN(0:3) UBIN BYTE STATIC UNAL INIT(1,1,1,1);
     1049     2860    1   DCL 1 PARM,
     1050     2861    1            2 TYPE UBIN BYTE UNAL,
     1051     2862    1            2 ACTION UBIN BYTE UNAL,
     1052     2863    1            2 HOUR UBIN BYTE UNAL,
PL6.E3A0      #004=OCL$STATUS File=OCL$LISTER.:E05TSI                            WED 07/30/97 04:02 Page:169
     1053     2864    1            2 MIN UBIN BYTE UNAL;
     1054     2865        %EJECT;
PL6.E3A0      #004=OCL$STATUS File=OCL$LISTER.:E05TSI                            WED 07/30/97 04:02 Page:170
     1055     2866        /*
     1056     2867                  Begin   O C L $ S T A T U S   Main
     1057     2868                                                                          */
     1058     2869
     1059     2870    1        IF ~OC_LIST

   2870  3 000002   000000 236000 xsym               LDQ     OC_LIST
         3 000003   400000 376003                    ANQ     -131072,DU
         3 000004   400000 676003                    ERQ     -131072,DU
         3 000005   000022 600000 3                  TZE     PRESS_ON2

     1060     2871    1        THEN
     1061     2872    2        DO;

     1062     2873    2             CALL M$SPRIV (RESET_FMSEC) ALTRET (PRESS_ON1);

   2873  3 000006   000170 630400 2                  EPPR0   RESET_FMSEC
         3 000007   420012 713400                    CLIMB   alt,+8202
         3 000010   400000 401760                    pmme    nvectors=1
         3 000011   000012 702000 3                  TSX2    PRESS_ON1

   2873  3 000012                       PRESS_ON1    null
     1063     2874    2   PRESS_ON1:;
     1064     2875    2             CALL M$OPEN (OPEN_HISTORYU) ALTRET(NO_CAN_DO);

   2875  3 000012   000006 630400 2                  EPPR0   OPEN_HISTORYU
         3 000013   450000 713400                    CLIMB   alt,open
         3 000014   410400 401760                    pmme    nvectors=18
         3 000015   000220 702000 3                  TSX2    NO_CAN_DO

     1065     2876    2             CALL M$RPRIV (RESET_FMSEC) ALTRET (PRESS_ON2);

   2876  3 000016   000170 630400 2                  EPPR0   RESET_FMSEC
         3 000017   420013 713400                    CLIMB   alt,+8203
         3 000020   400000 401760                    pmme    nvectors=1
         3 000021   000022 702000 3                  TSX2    PRESS_ON2

PL6.E3A0      #004=OCL$STATUS File=OCL$LISTER.:E05TSI                            WED 07/30/97 04:02 Page:171
   2873  3 000022                       PRESS_ON2    null
     1066     2877    2   PRESS_ON2:;
     1067     2878    2           END;

     1068     2879                                                /**/
     1069     2880                                                /**/
     1070     2881                                                /* SAVE TURNOVER INFORMATION */
     1071     2882    1        CALL M$READ (READ_STAT) ALTRET (TOO_BAD);

   2882  3 000022   000100 630400 2                  EPPR0   READ_STAT
         3 000023   440000 713400                    CLIMB   alt,read
         3 000024   401400 401760                    pmme    nvectors=4
         3 000025   000026 702000 3                  TSX2    TOO_BAD

     1072     2883    1   TOO_BAD:;

   2883  3 000026                       TOO_BAD      null
     1073     2884    1        OCL_STATUS_REC.OACTIVE = OC_HIST_SAVE.ACTIVE ;

   2884  3 000026   000000 236000 xsym               LDQ     OC_HIST_SAVE
         3 000027   000002 676000 xsym               ERQ     OCL_STATUS_REC+2
         3 000030   400000 376003                    ANQ     -131072,DU
         3 000031   000002 656000 xsym               ERSQ    OCL_STATUS_REC+2

     1074     2885    1        OCL_STATUS_REC.OHOUR = OC_HIST_SAVE.HOUR ;

   2885  3 000032   000000 236000 xsym               LDQ     OC_HIST_SAVE
         3 000033   000002 676000 xsym               ERQ     OCL_STATUS_REC+2
         3 000034   377777 376003                    ANQ     131071,DU
         3 000035   000002 656000 xsym               ERSQ    OCL_STATUS_REC+2

     1075     2886    1        OCL_STATUS_REC.OMIN = OC_HIST_SAVE.MIN ;

   2886  3 000036   000000 720000 xsym               LXL0    OC_HIST_SAVE
         3 000037   000002 440000 xsym               SXL0    OCL_STATUS_REC+2

     1076     2887    1        OCL_STATUS_REC.AACTIVE = OC_ACCT_SAVE.ACTIVE ;
PL6.E3A0      #004=OCL$STATUS File=OCL$LISTER.:E05TSI                            WED 07/30/97 04:02 Page:172

   2887  3 000040   000000 236000 xsym               LDQ     OC_ACCT_SAVE
         3 000041   000001 676000 xsym               ERQ     OCL_STATUS_REC+1
         3 000042   400000 376003                    ANQ     -131072,DU
         3 000043   000001 656000 xsym               ERSQ    OCL_STATUS_REC+1

     1077     2888    1        OCL_STATUS_REC.AHOUR = OC_ACCT_SAVE.HOUR ;

   2888  3 000044   000000 236000 xsym               LDQ     OC_ACCT_SAVE
         3 000045   000001 676000 xsym               ERQ     OCL_STATUS_REC+1
         3 000046   377777 376003                    ANQ     131071,DU
         3 000047   000001 656000 xsym               ERSQ    OCL_STATUS_REC+1

     1078     2889    1        OCL_STATUS_REC.AMIN = OC_ACCT_SAVE.MIN ;

   2889  3 000050   000000 721000 xsym               LXL1    OC_ACCT_SAVE
         3 000051   000001 441000 xsym               SXL1    OCL_STATUS_REC+1

     1079     2890    1        OCL_STATUS_REC.PREV_FILE = OCL_PREVIOUS_FILE;

   2890  3 000052   000000 100400                    MLR     fill='000'O
         3 000053   000000 000040 xsym               ADSC9   OCL_PREVIOUS_FILE        cn=0,n=32
         3 000054   000003 000040 xsym               ADSC9   OCL_STATUS_REC+3         cn=0,n=32

     1080     2891    1        OCL_STATUS_REC.CONSOLE_KEY = OCL_CONSOLE_FIELD;

   2891  3 000055   000000 235000 xsym               LDA     OCL_CONSOLE_FIELD
         3 000056   000013 755000 xsym               STA     OCL_STATUS_REC+11

     1081     2892                                                /**/
     1082     2893    1        CALL M$WRITE (WRITE_STATUS) ALTRET (NO_CAN_DO);

   2893  3 000057   000116 630400 2                  EPPR0   WRITE_STATUS
         3 000060   440001 713400                    CLIMB   alt,write
         3 000061   401400 401760                    pmme    nvectors=4
         3 000062   000220 702000 3                  TSX2    NO_CAN_DO

PL6.E3A0      #004=OCL$STATUS File=OCL$LISTER.:E05TSI                            WED 07/30/97 04:02 Page:173
     1083     2894                                                /**/
     1084     2895    1        IF ~OC_LIST

   2895  3 000063   000000 236000 xsym               LDQ     OC_LIST
         3 000064   400000 376003                    ANQ     -131072,DU
         3 000065   400000 676003                    ERQ     -131072,DU
         3 000066   000073 600000 3                  TZE     OOPS

     1085     2896    1        THEN
     1086     2897    1             CALL M$CLOSE(CLOSE_SAVE) ALTRET(OOPS);

   2897  3 000067   000132 630400 2                  EPPR0   CLOSE_SAVE
         3 000070   450001 713400                    CLIMB   alt,close
         3 000071   406000 401760                    pmme    nvectors=13
         3 000072   000073 702000 3                  TSX2    OOPS

   2895  3 000073                       OOPS         null
     1087     2898    1   OOPS: ;
     1088     2899    1        PARM.TYPE = 1;

   2899  3 000073   001000 236003                    LDQ     512,DU
         3 000074   200004 552140                    STBQ    PARM,'40'O,AUTO

     1089     2900    1        IF UPDATE_IND = 0 /* OCN_UPDAT_BOTH# */

   2900  3 000075   200003 470500                    LDP0    @UPDATE_IND,,AUTO
         3 000076   000000 235100                    LDA     0,,PR0
         3 000077   000102 600000 3                  TZE     s:2905
         3 000100   000002 115007                    CMPA    2,DL
         3 000101   000146 601000 3                  TNZ     s:2919

     1090     2901    1             OR
     1091     2902    1             UPDATE_IND = 2 /* OCN_UPDAT_HIST# */
     1092     2903    1        THEN
     1093     2904    2        DO;

     1094     2905    2             IF OC_HIST_SAVE.ACTIVE
PL6.E3A0      #004=OCL$STATUS File=OCL$LISTER.:E05TSI                            WED 07/30/97 04:02 Page:174

   2905  3 000102   000000 234000 xsym               SZN     OC_HIST_SAVE
         3 000103   000130 605000 3                  TPL     s:2915

     1095     2906    2             THEN
     1096     2907    3             DO;

     1097     2908    3                  PARM.HOUR = OC_HIST_SAVE.HOUR;

   2908  3 000104   000000 236000 xsym               LDQ     OC_HIST_SAVE
         3 000105   000011 772000                    QRL     9
         3 000106   200004 552110                    STBQ    PARM,'10'O,AUTO

     1098     2909    3                  PARM.MIN = OC_HIST_SAVE.MIN;

   2909  3 000107   000000 236000 xsym               LDQ     OC_HIST_SAVE
         3 000110   200004 552104                    STBQ    PARM,'04'O,AUTO

     1099     2910    3                  PARM.ACTION = 1;

   2910  3 000111   000001 236003                    LDQ     1,DU
         3 000112   200004 552120                    STBQ    PARM,'20'O,AUTO

     1100     2911    3                  CALL OCO$IWRITE('200000'O /* M_SYS  */,MSG#,NP#,LEN,PARM,0);

   2911  3 000113   000001 236000 4                  LDQ     1
         3 000114   200013 756100                    STQ     PARM+7,,AUTO
         3 000115   200004 631500                    EPPR1   PARM,,AUTO
         3 000116   200012 451500                    STP1    PARM+6,,AUTO
         3 000117   000002 237000 4                  LDAQ    2
         3 000120   200010 757100                    STAQ    PARM+4,,AUTO
         3 000121   000004 237000 4                  LDAQ    4
         3 000122   200006 757100                    STAQ    PARM+2,,AUTO
         3 000123   200006 630500                    EPPR0   PARM+2,,AUTO
         3 000124   000024 631400 xsym               EPPR1   B_VECTNIL+20
         3 000125   000000 701000 xent               TSX1    OCO$IWRITE
         3 000126   000000 011000                    NOP     0
PL6.E3A0      #004=OCL$STATUS File=OCL$LISTER.:E05TSI                            WED 07/30/97 04:02 Page:175

     1101     2912    3                END;

   2912  3 000127   000146 710000 3                  TRA     s:2919

     1102     2913    2             ELSE
     1103     2914    3             DO;

     1104     2915    3                  PARM.ACTION = 0;

   2915  3 000130   000000 236003                    LDQ     0,DU
         3 000131   200004 552120                    STBQ    PARM,'20'O,AUTO

     1105     2916    3                  CALL OCO$IWRITE('200000'O /* M_SYS  */,MSG#,NP#,LEN,PARM,0);

   2916  3 000132   000001 236000 4                  LDQ     1
         3 000133   200013 756100                    STQ     PARM+7,,AUTO
         3 000134   200004 631500                    EPPR1   PARM,,AUTO
         3 000135   200012 451500                    STP1    PARM+6,,AUTO
         3 000136   000002 237000 4                  LDAQ    2
         3 000137   200010 757100                    STAQ    PARM+4,,AUTO
         3 000140   000004 237000 4                  LDAQ    4
         3 000141   200006 757100                    STAQ    PARM+2,,AUTO
         3 000142   200006 630500                    EPPR0   PARM+2,,AUTO
         3 000143   000024 631400 xsym               EPPR1   B_VECTNIL+20
         3 000144   000000 701000 xent               TSX1    OCO$IWRITE
         3 000145   000000 011000                    NOP     0

     1106     2917    3                END;

     1107     2918    2           END;

     1108     2919    1        IF UPDATE_IND = 0 /* OCN_UPDAT_BOTH# */

   2919  3 000146   200003 470500                    LDP0    @UPDATE_IND,,AUTO
         3 000147   000000 235100                    LDA     0,,PR0
         3 000150   000153 600000 3                  TZE     s:2924
PL6.E3A0      #004=OCL$STATUS File=OCL$LISTER.:E05TSI                            WED 07/30/97 04:02 Page:176
         3 000151   000001 115007                    CMPA    1,DL
         3 000152   000220 601000 3                  TNZ     NO_CAN_DO

     1109     2920    1             OR
     1110     2921    1             UPDATE_IND = 1 /* OCN_UPDAT_ACCT# */
     1111     2922    1        THEN
     1112     2923    2        DO;

     1113     2924    2             PARM.TYPE = 0;

   2924  3 000153   000000 236003                    LDQ     0,DU
         3 000154   200004 552140                    STBQ    PARM,'40'O,AUTO

     1114     2925    2             IF OC_ACCT_SAVE.ACTIVE

   2925  3 000155   000000 234000 xsym               SZN     OC_ACCT_SAVE
         3 000156   000203 605000 3                  TPL     s:2935

     1115     2926    2             THEN
     1116     2927    3             DO;

     1117     2928    3                  PARM.ACTION = 1;

   2928  3 000157   000001 236003                    LDQ     1,DU
         3 000160   200004 552120                    STBQ    PARM,'20'O,AUTO

     1118     2929    3                  PARM.HOUR = OC_ACCT_SAVE.HOUR;

   2929  3 000161   000000 236000 xsym               LDQ     OC_ACCT_SAVE
         3 000162   000011 772000                    QRL     9
         3 000163   200004 552110                    STBQ    PARM,'10'O,AUTO

     1119     2930    3                  PARM.MIN = OC_ACCT_SAVE.MIN;

   2930  3 000164   000000 236000 xsym               LDQ     OC_ACCT_SAVE
         3 000165   200004 552104                    STBQ    PARM,'04'O,AUTO

PL6.E3A0      #004=OCL$STATUS File=OCL$LISTER.:E05TSI                            WED 07/30/97 04:02 Page:177
     1120     2931    3                  CALL OCO$IWRITE('200000'O /* M_SYS  */,MSG#,NP#,LEN,PARM,0);

   2931  3 000166   000001 236000 4                  LDQ     1
         3 000167   200013 756100                    STQ     PARM+7,,AUTO
         3 000170   200004 631500                    EPPR1   PARM,,AUTO
         3 000171   200012 451500                    STP1    PARM+6,,AUTO
         3 000172   000002 237000 4                  LDAQ    2
         3 000173   200010 757100                    STAQ    PARM+4,,AUTO
         3 000174   000004 237000 4                  LDAQ    4
         3 000175   200006 757100                    STAQ    PARM+2,,AUTO
         3 000176   200006 630500                    EPPR0   PARM+2,,AUTO
         3 000177   000024 631400 xsym               EPPR1   B_VECTNIL+20
         3 000200   000000 701000 xent               TSX1    OCO$IWRITE
         3 000201   000000 011000                    NOP     0

     1121     2932    3                END;

   2932  3 000202   000220 710000 3                  TRA     NO_CAN_DO

     1122     2933    2             ELSE
     1123     2934    3             DO;

     1124     2935    3                  PARM.ACTION=0;

   2935  3 000203   200004 552120                    STBQ    PARM,'20'O,AUTO

     1125     2936    3                  CALL OCO$IWRITE('200000'O /* M_SYS  */,MSG#,NP#,LEN,PARM,0);

   2936  3 000204   000001 236000 4                  LDQ     1
         3 000205   200013 756100                    STQ     PARM+7,,AUTO
         3 000206   200004 631500                    EPPR1   PARM,,AUTO
         3 000207   200012 451500                    STP1    PARM+6,,AUTO
         3 000210   000002 237000 4                  LDAQ    2
         3 000211   200010 757100                    STAQ    PARM+4,,AUTO
         3 000212   000004 237000 4                  LDAQ    4
         3 000213   200006 757100                    STAQ    PARM+2,,AUTO
         3 000214   200006 630500                    EPPR0   PARM+2,,AUTO
PL6.E3A0      #004=OCL$STATUS File=OCL$LISTER.:E05TSI                            WED 07/30/97 04:02 Page:178
         3 000215   000024 631400 xsym               EPPR1   B_VECTNIL+20
         3 000216   000000 701000 xent               TSX1    OCO$IWRITE
         3 000217   000000 011000                    NOP     0

     1126     2937    3                END;

     1127     2938    2           END;

   2931  3 000220                       NO_CAN_DO    null
     1128     2939        %EJECT;
PL6.E3A0      #004=OCL$STATUS File=OCL$LISTER.:E05TSI                            WED 07/30/97 04:02 Page:179
     1129     2940                                                /**/
     1130     2941                                                /**/
     1131     2942    1   NO_CAN_DO: ;
     1132     2943                                                /**/
     1133     2944    1        CALL M$RPRIV (RESET_FMSEC) ALTRET (PRESS_ON3);

   2944  3 000220   000170 630400 2                  EPPR0   RESET_FMSEC
         3 000221   420013 713400                    CLIMB   alt,+8203
         3 000222   400000 401760                    pmme    nvectors=1
         3 000223   000224 702000 3                  TSX2    PRESS_ON3

   2944  3 000224                       PRESS_ON3    null
     1134     2945    1   PRESS_ON3:;
     1135     2946    1        RETURN;

   2946  3 000224   000000 702200 xent               TSX2  ! X66_ARET
     1136     2947    1   END OCL$STATUS;

PL6.E3A0      #004=OCL$STATUS File=OCL$LISTER.:E05TSI                            WED 07/30/97 04:02 Page:180
--  Include file information  --

   OCL_DATA_R.:E05TOU  cannot be made into a system file and is referenced.
   B_ERRORS_C.:E05TOU  is referenced.
   B$JIT.:E05TOU  cannot be made into a system file and is referenced.
   OC$MESSHD_C.:E05TOU  is referenced.
   OC_DAT_R.:E05TOU  cannot be made into a system file and is referenced.
   CP_6.:E05TOU  cannot be made into a system file and is referenced.
   OC_SUBS_C.:E05TOU  is referenced.
   OCI_SUBS_C.:E05TOU  is referenced.
   B$JIT_C.:E05TOU  was found in the system file and is referenced.
   CP_6_C.:E05TOU  was found in the system file and is referenced.
      No diagnostics issued in procedure OCL$STATUS.
PL6.E3A0      #004=OCL$STATUS File=OCL$LISTER.:E05TSI                            WED 07/30/97 04:02 Page:181

 **** Variables and constants ****

  ****  Section 002  Data  OCL$STATUS

  ****  Scalars and arrays  ****
OctLoc.c.b A Datatyp(siz) R M Lvl/name                 OctLoc.c.b A Datatyp(siz) R M Lvl/name

   132-0-0/d STRC(1080)  r     1 CLOSE_SAVE               174-0-0/b UBIN(9)     r     1 LEN(0:3)
     0-0-0/b UBIN(18)    r     1 MSG#                       1-0-0/b UBIN(9)     r     1 NP#
     2-0-0/c STRC(72)    r     1 OCHIST                     6-0-0/d STRC(2088)  r     1 OPEN_HISTORYU
   100-0-0/d STRC(504)   r     1 READ_STAT                170-0-0/d STRC(144)   r     1 RESET_FMSEC
     4-0-0/c STRC(72)    r     1 SYS                      116-0-0/d STRC(432)   r     1 WRITE_STATUS

  ****  Auto variables  ****

  ****  Scalars and arrays  ****
OctLoc.c.b A Datatyp(siz) R M Lvl/name                 OctLoc.c.b A Datatyp(siz) R M Lvl/name

     3-0-0/w PTR         r     1 @UPDATE_IND                4-0-0/b STRC        r     1 PARM
    *0-0-0/w SBIN        r     1 UPDATE_IND

  ****  SYMREF variables  ****

  ****  Scalars and arrays  ****
OctLoc.c.b A Datatyp(siz) R M Lvl/name                 OctLoc.c.b A Datatyp(siz) R M Lvl/name

     0-0-0/w PTR         r     1 B$JIT$                     0-0-0/w UBIN        r     1 OCL_CONSOLE_FIELD
     0-0-0/c STRC(288)   r     1 OCL_PREVIOUS_FILE          0-0-0/b STRC(45)    r     1 OCL_STATUS_KEY
     0-0-0/c STRC(432)   r     1 OCL_STATUS_REC             0-0-0/b STRC        r     1 OC_ACCT_SAVE
     0-0-0/w PTR         r     1 OC_CONSOLE$                0-0-0/b STRC        r     1 OC_HIST_SAVE
     0-0-0/w BIT         r     1 OC_LIST

  ****  BASED and DCB variables  ****

  ****  Scalars and arrays  ****
OctLoc.c.b A Datatyp(siz) R M Lvl/name                 OctLoc.c.b A Datatyp(siz) R M Lvl/name

PL6.E3A0      #004=OCL$STATUS File=OCL$LISTER.:E05TSI                            WED 07/30/97 04:02 Page:182
     0-0-0N  NULL        r     1 F$HISTFILE


   Procedure OCL$STATUS requires 149 words for executable code.
   Procedure OCL$STATUS requires 12 words of local(AUTO) storage.

    No errors detected in file OCL$LISTER.:E05TSI    .
PL6.E3A0      #004=OCL$STATUS File=OCL$LISTER.:E05TSI                            WED 07/30/97 04:02 Page:183
          *** CROSS REFERENCE LISTING ***
**     DENOTES     IDENTIFIER DEFINITION
<<                 IDENTIFIER'S VALUE SET
>>                 IDENTIFIER'S VALUE USED
<>                 IDENTIFIER SET AND/OR USED
--                 IDENTIFIER REFERENCED
PL6.E3A0      #004=OCL$STATUS File=OCL$LISTER.:E05TSI                            WED 07/30/97 04:02 Page:184
          MINI XREF LISTING

B$ALT.CODE
      1383**DCL      1383--REDEF    1384--REDEF    1384--REDEF
B$ALT.ERR.ERR#
      1385**DCL      1385--REDEF
B$ALT.EVID
      1384**DCL      1384--REDEF    1384--REDEF
B$JIT.CPFLAGS1.SLEAZE
      1193**DCL      1193--REDEF
B$JIT.ERR.MID
      1100**DCL      1100--REDEF
B$JIT.JRESPEAK
      1261**DCL      1262--REDEF
B$JIT.ORIGINATOR_PORT.FROM_CR
      1370**DCL      1370--REDEF    1371--REDEF
B$JIT.PNR
      1274**DCL      1274--REDEF
B$JIT.TSLINE
      1368**DCL      1369--REDEF
B$JIT$
      1375**DCL      1094--IMP-PTR
CLOSE_SAVE
      2823**DCL      2897<>CALL
CLOSE_SAVE.SN_
      2823**DCL      2823--REDEF
CLOSE_SAVE.UTL_
      2824**DCL      2824--REDEF
CLOSE_SAVE.V
      2828**DCL      2823--DCLINIT
CLOSE_SAVE.V.EXPIRE#
      2838**DCL      2838--REDEF
CLOSE_SAVE.V.TYPE#
      2836**DCL      2836--REDEF
PL6.E3A0      #004=OCL$STATUS File=OCL$LISTER.:E05TSI                            WED 07/30/97 04:02 Page:185
CLOSE_SAVE.V.XTNSIZE#
      2833**DCL      2833--REDEF    2835--REDEF
LEN
      2859**DCL      2911<>CALL     2916<>CALL     2931<>CALL     2936<>CALL
M$CLOSE
       852**DCL-ENT  2897--CALL
M$OPEN
       852**DCL-ENT  2875--CALL
M$READ
       853**DCL-ENT  2882--CALL
M$RPRIV
       911**DCL-ENT  2876--CALL     2944--CALL
M$SPRIV
       911**DCL-ENT  2873--CALL
M$WRITE
       853**DCL-ENT  2893--CALL
MSG#
      2525**DCL      2911<>CALL     2916<>CALL     2931<>CALL     2936<>CALL
NO_CAN_DO
      2931**LABEL    2875--CALLALT  2893--CALLALT
NP#
      2526**DCL      2911<>CALL     2916<>CALL     2931<>CALL     2936<>CALL
OCHIST
      2581**DCL      2675--DCLINIT
OCL_CONSOLE_FIELD
      2551**DCL      2891>>ASSIGN
OCL_HIST_BUF.STAT
      2546**DCL      2547--REDEF
OCL_MSGB.ERR
      2544**DCL      2545--REDEF
OCL_PREVIOUS_FILE
      2538**DCL      2890>>ASSIGN
OCL_STATUS_KEY
      2539**DCL      2740--DCLINIT  2741--DCLINIT  2784--DCLINIT
OCL_STATUS_REC
      2537**DCL      2742--DCLINIT  2743--DCLINIT  2785--DCLINIT  2786--DCLINIT
PL6.E3A0      #004=OCL$STATUS File=OCL$LISTER.:E05TSI                            WED 07/30/97 04:02 Page:186
OCL_STATUS_REC.AACTIVE
      2537**DCL      2887<<ASSIGN
OCL_STATUS_REC.AHOUR
      2537**DCL      2888<<ASSIGN
OCL_STATUS_REC.AMIN
      2537**DCL      2889<<ASSIGN
OCL_STATUS_REC.CONSOLE_KEY
      2538**DCL      2891<<ASSIGN
OCL_STATUS_REC.OACTIVE
      2537**DCL      2884<<ASSIGN
OCL_STATUS_REC.OHOUR
      2537**DCL      2885<<ASSIGN
OCL_STATUS_REC.OMIN
      2538**DCL      2886<<ASSIGN
OCL_STATUS_REC.PREV_FILE
      2538**DCL      2890<<ASSIGN
OCO$IWRITE
      2524**DCL-ENT  2911--CALL     2916--CALL     2931--CALL     2936--CALL
OC_ACCT_SAVE.ACTIVE
      1083**DCL      2887>>ASSIGN   2925>>IF
OC_ACCT_SAVE.HOUR
      1083**DCL      2888>>ASSIGN   2929>>ASSIGN
OC_ACCT_SAVE.MIN
      1083**DCL      2889>>ASSIGN   2930>>ASSIGN
OC_CONSOLE.ATTR
      1038**DCL      1038--REDEF
OC_CONSOLE.ATTRO
      1039**DCL      1039--REDEF
OC_CONSOLE.CID
      1037**DCL      1038--REDEF
OC_CONSOLE.STATION
      1036**DCL      1036--REDEF
OC_CONSOLE$
      1035**DCL      1036--IMP-PTR
OC_DIR
      1078**DCL      1078--REDEF
PL6.E3A0      #004=OCL$STATUS File=OCL$LISTER.:E05TSI                            WED 07/30/97 04:02 Page:187
OC_HIST_SAVE.ACTIVE
      1082**DCL      2884>>ASSIGN   2905>>IF
OC_HIST_SAVE.HOUR
      1082**DCL      2885>>ASSIGN   2908>>ASSIGN
OC_HIST_SAVE.MIN
      1082**DCL      2886>>ASSIGN   2909>>ASSIGN
OC_INTBIT
      1078**DCL      1079--REDEF
OC_INTMSG
       955**DCL       968--REDEF
OC_INTMSG.FLAGS
       962**DCL       963--REDEF
OC_INTMSG.MESS
       968**DCL       968--REDEF
OC_INTMSG.MSGID
       958**DCL       959--REDEF
OC_INTMSG.WSN
       965**DCL       966--REDEF
OC_LIST
      1081**DCL      2870>>IF       2895>>IF
OC_MASK
      1079**DCL      1079--REDEF
OC_MESSBUF
       970**DCL       985--REDEF     999--REDEF
OC_MESSBUF.FLAGS
       977**DCL       978--REDEF
OC_MESSBUF.MESS
       983**DCL       983--REDEF
OC_MESSBUF.MSGID
       973**DCL       974--REDEF
OC_MESSBUF.WSN
       980**DCL       981--REDEF
OC_MESSBUF1.FLAGS
       992**DCL       993--REDEF
OC_MESSBUF1.LEN
       998**DCL       998--REDEF
PL6.E3A0      #004=OCL$STATUS File=OCL$LISTER.:E05TSI                            WED 07/30/97 04:02 Page:188
OC_MESSBUF1.MSGID
       988**DCL       989--REDEF
OC_MESSBUF1.WSN
       995**DCL       996--REDEF
OC_MSGBUFFER
      1001**DCL      1016--REDEF
OC_MSGBUFFER.FLAGS
      1008**DCL      1009--REDEF
OC_MSGBUFFER.MESS
      1014**DCL      1014--REDEF
OC_MSGBUFFER.MSGID
      1004**DCL      1005--REDEF
OC_MSGBUFFER.WSN
      1011**DCL      1012--REDEF
OC_MSGBUFFER2.FLAGS
      1023**DCL      1024--REDEF
OC_MSGBUFFER2.MSGID
      1019**DCL      1020--REDEF
OC_MSGBUFFER2.WSN
      1026**DCL      1027--REDEF
OC_PARAM
      1034**DCL      1034--REDEF
OC_QUEUE.PARMC
      1033**DCL      1033--REDEF
OOPS
      2895**LABEL    2897--CALLALT
OPEN_HISTORYU
      2674**DCL      2875<>CALL
OPEN_HISTORYU.ACSVEH_
      2676**DCL      2677--REDEF
OPEN_HISTORYU.ALTKEYS_
      2682**DCL      2683--REDEF    2683--REDEF
OPEN_HISTORYU.HDR_
      2681**DCL      2682--REDEF
OPEN_HISTORYU.TAB_
      2680**DCL      2681--REDEF
PL6.E3A0      #004=OCL$STATUS File=OCL$LISTER.:E05TSI                            WED 07/30/97 04:02 Page:189
OPEN_HISTORYU.UHL_
      2674**DCL      2675--REDEF    2675--REDEF
OPEN_HISTORYU.V
      2683**DCL      2674--DCLINIT
OPEN_HISTORYU.V.FSN#
      2714**DCL      2714--REDEF    2714--REDEF
OPEN_HISTORYU.WSN_
      2680**DCL      2680--REDEF
PARM
      2860**DCL      2911<>CALL     2916<>CALL     2931<>CALL     2936<>CALL
PARM.ACTION
      2862**DCL      2910<<ASSIGN   2915<<ASSIGN   2928<<ASSIGN   2935<<ASSIGN
PARM.HOUR
      2863**DCL      2908<<ASSIGN   2929<<ASSIGN
PARM.MIN
      2864**DCL      2909<<ASSIGN   2930<<ASSIGN
PARM.TYPE
      2861**DCL      2899<<ASSIGN   2924<<ASSIGN
PRESS_ON1
      2873**LABEL    2873--CALLALT
PRESS_ON2
      2873**LABEL    2876--CALLALT
PRESS_ON3
      2944**LABEL    2944--CALLALT
READ_STAT
      2740**DCL      2882<>CALL
READ_STAT.STATION_
      2743**DCL      2744--REDEF
READ_STAT.V
      2744**DCL      2740--DCLINIT
READ_STAT.V.DVBYTE.REREAD#
      2755**DCL      2755--REDEF
READ_STAT.V.INDX#
      2753**DCL      2753--REDEF
RESET_FMSEC
      2855**DCL      2873<>CALL     2876<>CALL     2944<>CALL
PL6.E3A0      #004=OCL$STATUS File=OCL$LISTER.:E05TSI                            WED 07/30/97 04:02 Page:190
RESET_FMSEC.V
      2855**DCL      2855--DCLINIT
SYS
      2596**DCL      2679--DCLINIT
TOO_BAD
      2883**LABEL    2882--CALLALT
UPDATE_IND
        12**DCL        10--PROC     2900>>IF       2900>>IF       2919>>IF       2919>>IF
WRITE_STATUS
      2784**DCL      2893<>CALL
WRITE_STATUS.STATION_
      2786**DCL      2786--REDEF
WRITE_STATUS.V
      2787**DCL      2784--DCLINIT
WRITE_STATUS.V.DVBYTE.VFC#
      2793**DCL      2793--REDEF
