VERSION E05

PL6.E3A0      #001=OCL_DATA_D File=OCL_DATA_D.:E05TSI                            WED 07/30/97 03:59 Page:1
        1        1        /*M* OCL_DATA_D SYMDEFed data for KEYINs history file manager. */
        2        2        /*T***********************************************************/
        3        3        /*T*                                                         */
        4        4        /*T* Copyright (c) Bull HN Information Systems Inc., 1997    */
        5        5        /*T*                                                         */
        6        6        /*T***********************************************************/
        7        7        %SET LISTSUB='1'B;
        8        8        /*X* DMR,THI=0,PLM=5,IND=5,CTI=5,SDI=5,MCL=10,DCI=5,CSU=5,ECU=5,DTI=2*/
        9        9                                                /**/
       10       10        OCL_DATA_D: PROC NOAUTO;
       11       11
       12       12                                                /**/
       13       13        /*!!*/                                  /* munger commands */
       14       14        %INCLUDE OCI_SUBS_C;
       15      112        %INCLUDE OC_SUBS_C;
       16      843                                                /**/
       17      844        /* !R!*/                                /* munger commands */
       18      845    1   DCL 1 OCL_STATUS_REC STATIC SYMDEF,
       19      846    1            2 LSTATUS UBIN WORD UNAL,
       20      847    1            2 AACTIVE BIT(1) UNAL,
       21      848    1            2 AHOUR UBIN(17) UNAL,         /*  ACCOUNTING LOG HOUR  */
       22      849    1            2 AMIN UBIN HALF UNAL,         /* ACCOUNTING LOG MIN */
       23      850    1            2 OACTIVE BIT (1) UNAL,        /* HISTORY ACTIVE  */
       24      851    1            2 OHOUR UBIN(17) UNAL,         /* HISTORY HOUR */
       25      852    1            2 OMIN UBIN HALF UNAL,         /* HISTORY MIN */
       26      853    1            2 PREV_FILE UNAL,              /* PREVIOUS FILENAME */
       27      854    1                 3 COUNT UBIN BYTE UNAL,
       28      855    1                 3 TXT CHAR (31) UNAL,
       29      856    1            2 CONSOLE_KEY UBIN WORD UNAL INIT (0);
       30      857    1   DCL 1 OCL_PREVIOUS_FILE STATIC SYMDEF,
       31      858    1            2 COUNT UBIN BYTE CALIGNED INIT(0),
       32      859    1            2 TXT CHAR (31) CALIGNED
       33      860    1               INIT('                               ');
       34      861    1   DCL OCL_STATUS_BUF STATIC SYMDEF UBIN WORD ALIGNED;
       35      862    1   DCL 1 OCL_STATUS_KEY STATIC SYMDEF,
       36      863    1            2 * UBIN BYTE UNAL INIT(4),
       37      864    1            2 UTS UBIN WORD UNAL INIT (0);
PL6.E3A0      #001=OCL_DATA_D File=OCL_DATA_D.:E05TSI                            WED 07/30/97 03:59 Page:2
       38      865                                                /**/
       39      866    1   DCL 1 OCL_KEY_BUF STATIC SYMDEF,
       40      867    1            2 * UBIN BYTE UNAL INIT(4),
       41      868    1            2 UTS UBIN WORD UNAL INIT(0);
       42      869                                                /**/
       43      870                                                /**/
       44      871        %SUB OCL_ATTR# ="10 /* OCL_ATTR# */";
       45      872    1   DCL 1 OCL_UNMASK(0:10 /* OCL_ATTR# */)  STATIC SYMDEF ALIGNED,
       46      873    1            2 MASK BIT(18) UNAL INIT (
       47      874    1              '100000'O /* M_DEVC  */,
       48      875    1              '044000'O /* M_ADCOM */,
       49      876    1              '004000'O /* M_COMM */,
       50      877    1              '040000'O /* M_ADMIN */,
       51      878    1              '200000'O /* M_SYS  */,
       52      879    1              '0'B*0),
       53      880    1            2 TERM BIT(1) UNAL INIT (
       54      881    1              '1'B /*TRUE#*/,                       /* DEVC */
       55      882    1              '0'B /*FALSE#*/,
       56      883    1              '0'B /*FALSE#*/,
       57      884    1              '0'B /*FALSE#*/,
       58      885    1              '0'B /*FALSE#*/,
       59      886    1              '0'B*0),
       60      887    1            2 WSN BIT(1) UNAL INIT (
       61      888    1              '0'B /*FALSE#*/,
       62      889    1              '1'B /*TRUE#*/,                       /* ADCOM */
       63      890    1              '0'B /*FALSE#*/,
       64      891    1              '1'B /*TRUE#*/,                       /* ADMIN */
       65      892    1              '0'B /*FALSE#*/,
       66      893    1              '0'B*0),
       67      894    1            2 NM_CT UBIN BYTE ALIGNED INIT (
       68      895    1              4,                           /* DEVC */
       69      896    1              5,                           /* ADCOM */
       70      897    1              4,                           /* COMM */
       71      898    1              5,                           /* ADMIN */
       72      899    1              6,                           /* SYSTEM */
       73      900    1              0*0),
       74      901    1            2 NM CHAR(8) UNAL INIT      (
PL6.E3A0      #001=OCL_DATA_D File=OCL_DATA_D.:E05TSI                            WED 07/30/97 03:59 Page:3
       75      902    1              'DEVC    ',
       76      903    1              'ADCOM  @',
       77      904    1              'COMM    ',
       78      905    1              'ADMIN   ',
       79      906    1              'SYSTEM  ',
       80      907    1              ' '*0);
       81      908                                                /**/
       82      909        %SUB OCL_NUM#  ="9 /* OCL_NUM# */";
       83      910    1   DCL OCL_BADMSG(0:9 /* OCL_NUM# */) UBIN HALF UNAL STATIC SYMDEF INIT (
       84      911    1                       386 /* PARSERR_MSG# */,
       85      912    1                       390 /* HOUR_MSG# */,
       86      913    1                       391 /* TIME_MSG# */,
       87      914    1                       397 /* INFO_MSG# */,
       88      915    1                       398 /* CONSOLE_MSG# */,
       89      916    1                       399 /* MASTER_MSG# */,
       90      917    1                       502 /* OGWR_MSG# */,
       91      918    1                       403/*OD_UFMT_MSG*/,
       92      919    1                       0*0);
       93      920                                                /**/
       94      921                                                /**/
       95      922    1   DCL 1 OCL_MSGC STATIC SYMDEF,
       96      923    1            2 * UBIN BYTE UNAL INIT(4),
       97      924    1            2 * UBIN BYTE UNAL INIT(1);
       98      925                                                /**/
       99      926    1   DCL 1 OCL_MSGB STATIC SYMDEF,
      100      927    1            2 ERR UBIN WORD UNAL INIT(0),
      101      928    1            2 ERROR REDEF ERR BIT(36) UNAL,
      102      929    1            2 CODE UBIN BYTE UNAL INIT(0);
      103      930                                                /**/
      104      931                                                /**/
      105      932                                                /**/
      106      933    1   DCL 1 OCL_NORM_KEY STATIC SYMDEF UNAL,
      107      934    1            2 COUNT UBIN BYTE UNAL INIT(4),
      108      935    1            2 UTS UBIN WORD UNAL INIT(0);
      109      936                                                /**/
      110      937    1   DCL 1 OCL_HIST_BUF STATIC SYMDEF,
      111      938    1            2 TSTAMP UBIN WORD,            /* TIME STAMP OF MESSAGE */
PL6.E3A0      #001=OCL_DATA_D File=OCL_DATA_D.:E05TSI                            WED 07/30/97 03:59 Page:4
      112      939    1            2 WSN CHAR(8) CALIGNED,
      113      940    1            2 LOGON CHAR(8) CALIGNED,
      114      941    1            2 DEVNM CHAR(4) CALIGNED,
      115      942    1            2 STAT CHAR(8) CALIGNED,
      116      943    1            2 STATION REDEF STAT,
      117      944    1                 3 FIRST_HALF CHAR (4) CALIGNED,
      118      945    1                 3 SECND_HALF CHAR (4) CALIGNED,
      119      946    1            2 TERMINAL CHAR(8) CALIGNED,
      120      947    1            2 ATTR BIT(18) CALIGNED,
      121      948    1            2 TEMPLATE BIT(1) CALIGNED, /* Does this history msg have a template */
      122      949    1            2 TYPE UBIN BYTE CALIGNED,     /* 0=OUTPUT, 1=OUTPUT DIRECT, 2=KEYIN */
      123      950    1            2 PROMPT_LENGTH UBIN BYTE CALIGNED,
      124      951    1            2 MESS CHAR(255);
      125      952                                                /**/
      126      953    1   DCL 1 OCL_CONSOLE_KEY STATIC SYMDEF UNAL,
      127      954    1            2 COUNT UBIN BYTE UNAL INIT(4),
      128      955    1            2 FIELD UBIN WORD UNAL INIT (0);
      129      956                                                /**/
      130      957    1   DCL 1 OCL_CONSOLE_REC STATIC SYMDEF,
      131      958    1            2 TERM_NAME CHAR(8) CALIGNED,
      132      959    1            2 WSN CHAR(8) CALIGNED,
      133      960    1            2 ATTR BIT(18) HALIGNED,
      134      961    1            2 ATTRO BIT(18) HALIGNED,
      135      962    1            2 LOGON CHAR(8) CALIGNED,
      136      963    1            2 STATION,
      137      964    1                 3 FIRST_HALF CHAR(4) CALIGNED,
      138      965    1                 3 SECND_HALF CHAR(4) CALIGNED,
      139      966    1            2 UTS UBIN WORD UNAL,
      140      967    1            2 ON_AT_START BIT(1) UNAL,     /* ALREADY ON AT START OF LOGGING? */
      141      968    1            2 STATUS UBIN WORD UNAL;
      142      969                                                /**/
      143      970    1   DCL 1 OCL_CONSOLE_FIELD STATIC SYMDEF UBIN WORD ALIGNED;
      144      971                                                /**/
      145      972    1   DCL OCL_WRITE_CONSOLE_RECS BIT(1) ALIGNED STATIC SYMDEF INIT ('0'B);
      146      973                                                /**/
      147      974                                                /**/
      148      975    1   DCL 1 OCL_BROKEN_FILE BIT(1) STATIC SYMDEF CALIGNED INIT ('0'B);
PL6.E3A0      #001=OCL_DATA_D File=OCL_DATA_D.:E05TSI                            WED 07/30/97 03:59 Page:5
      149      976    1   END OCL_DATA_D;

PL6.E3A0      #001=OCL_DATA_D File=OCL_DATA_D.:E05TSI                            WED 07/30/97 03:59 Page:6
--  Include file information  --

   OC_SUBS_C.:E05TOU  is referenced.
   OCI_SUBS_C.:E05TOU  is referenced.
      No diagnostics issued in procedure OCL_DATA_D.

   No code generated for procedure OCL_DATA_D .
   Procedure OCL_DATA_D is declared NOAUTO and requires 172 words of local(STATIC) storage.

    No errors detected in file OCL_DATA_D.:E05TSI    .

PL6.E3A0      #001=OCL_DATA_D File=OCL_DATA_D.:E05TSI                            WED 07/30/97 03:59 Page:7

 Object Unit name= OCL_DATA_D                                 File name= OCL_DATA_D.:E05TOU
 UTS= JUL 30 '97 03:59:43.88 WED                              Compiler= PL-6/E31         Sev=      00
 SharedLib= :SHARED_SYSTEM                                    Alt SharedLib=


    ****  Control sections  ****

 Sect   Type Bound  Init  Size OctSiz  Section name(segment info)
    0   Data  even  none   172    254  OCL_DATA_D
    1   Proc  even  none     0      0  OCL_DATA_D

    ****  Entry defs  ****

                              Check   Calling
                             calling  sequence
  Sect OctLoc Primary Altret sequence   type   Parms  Name
     1      0   yes            yes     ~proc       0  OCL_DATA_D

  ****  Data defs  ****

 Sect OctLoc  Name                           Sect OctLoc  Name
    0      1  OCL_STATUS_REC                     0     15  OCL_PREVIOUS_FILE
    0     25  OCL_STATUS_BUF                     0     26  OCL_STATUS_KEY
    0     30  OCL_KEY_BUF                        0     32  OCL_UNMASK
    0    106  OCL_BADMSG                         0    113  OCL_MSGC
    0    114  OCL_MSGB                           0    116  OCL_NORM_KEY
    0    120  OCL_HIST_BUF                       0    233  OCL_CONSOLE_KEY
    0    235  OCL_CONSOLE_REC                    0    251  OCL_CONSOLE_FIELD
    0    252  OCL_WRITE_CONSOLE_RECS             0    253  OCL_BROKEN_FILE
PL6.E3A0      #001=OCL_DATA_D File=OCL_DATA_D.:E05TSI                            WED 07/30/97 03:59 Page:8

        1        1        /*M* OCL_DATA_D SYMDEFed data for KEYINs history file manager. */
        2        2        /*T***********************************************************/
        3        3        /*T*                                                         */
        4        4        /*T* Copyright (c) Bull HN Information Systems Inc., 1997    */
        5        5        /*T*                                                         */
        6        6        /*T***********************************************************/
        7        7        %SET LISTSUB='1'B;
        8        8        /*X* DMR,THI=0,PLM=5,IND=5,CTI=5,SDI=5,MCL=10,DCI=5,CSU=5,ECU=5,DTI=2*/
        9        9                                                /**/
       10       10        OCL_DATA_D: PROC NOAUTO;
       11       11
       12       12                                                /**/
       13       13        /*!!*/                                  /* munger commands */
       14       14        %INCLUDE OCI_SUBS_C;
       15      112        %INCLUDE OC_SUBS_C;
       16      843                                                /**/
       17      844        /* !R!*/                                /* munger commands */
       18      845    1   DCL 1 OCL_STATUS_REC STATIC SYMDEF,
       19      846    1            2 LSTATUS UBIN WORD UNAL,
       20      847    1            2 AACTIVE BIT(1) UNAL,
       21      848    1            2 AHOUR UBIN(17) UNAL,         /*  ACCOUNTING LOG HOUR  */
       22      849    1            2 AMIN UBIN HALF UNAL,         /* ACCOUNTING LOG MIN */
       23      850    1            2 OACTIVE BIT (1) UNAL,        /* HISTORY ACTIVE  */
       24      851    1            2 OHOUR UBIN(17) UNAL,         /* HISTORY HOUR */
       25      852    1            2 OMIN UBIN HALF UNAL,         /* HISTORY MIN */
       26      853    1            2 PREV_FILE UNAL,              /* PREVIOUS FILENAME */
       27      854    1                 3 COUNT UBIN BYTE UNAL,
       28      855    1                 3 TXT CHAR (31) UNAL,
       29      856    1            2 CONSOLE_KEY UBIN WORD UNAL INIT (0);
       30      857    1   DCL 1 OCL_PREVIOUS_FILE STATIC SYMDEF,
       31      858    1            2 COUNT UBIN BYTE CALIGNED INIT(0),
       32      859    1            2 TXT CHAR (31) CALIGNED
       33      860    1               INIT('                               ');
       34      861    1   DCL OCL_STATUS_BUF STATIC SYMDEF UBIN WORD ALIGNED;
       35      862    1   DCL 1 OCL_STATUS_KEY STATIC SYMDEF,
       36      863    1            2 * UBIN BYTE UNAL INIT(4),
       37      864    1            2 UTS UBIN WORD UNAL INIT (0);
PL6.E3A0      #001=OCL_DATA_D File=OCL_DATA_D.:E05TSI                            WED 07/30/97 03:59 Page:9
       38      865                                                /**/
       39      866    1   DCL 1 OCL_KEY_BUF STATIC SYMDEF,
       40      867    1            2 * UBIN BYTE UNAL INIT(4),
       41      868    1            2 UTS UBIN WORD UNAL INIT(0);
       42      869                                                /**/
       43      870                                                /**/
       44      871        %SUB OCL_ATTR# ="10 /* OCL_ATTR# */";
       45      872    1   DCL 1 OCL_UNMASK(0:10 /* OCL_ATTR# */)  STATIC SYMDEF ALIGNED,
       46      873    1            2 MASK BIT(18) UNAL INIT (
       47      874    1              '100000'O /* M_DEVC  */,
       48      875    1              '044000'O /* M_ADCOM */,
       49      876    1              '004000'O /* M_COMM */,
       50      877    1              '040000'O /* M_ADMIN */,
       51      878    1              '200000'O /* M_SYS  */,
       52      879    1              '0'B*0),
       53      880    1            2 TERM BIT(1) UNAL INIT (
       54      881    1              '1'B /*TRUE#*/,                       /* DEVC */
       55      882    1              '0'B /*FALSE#*/,
       56      883    1              '0'B /*FALSE#*/,
       57      884    1              '0'B /*FALSE#*/,
       58      885    1              '0'B /*FALSE#*/,
       59      886    1              '0'B*0),
       60      887    1            2 WSN BIT(1) UNAL INIT (
       61      888    1              '0'B /*FALSE#*/,
       62      889    1              '1'B /*TRUE#*/,                       /* ADCOM */
       63      890    1              '0'B /*FALSE#*/,
       64      891    1              '1'B /*TRUE#*/,                       /* ADMIN */
       65      892    1              '0'B /*FALSE#*/,
       66      893    1              '0'B*0),
       67      894    1            2 NM_CT UBIN BYTE ALIGNED INIT (
       68      895    1              4,                           /* DEVC */
       69      896    1              5,                           /* ADCOM */
       70      897    1              4,                           /* COMM */
       71      898    1              5,                           /* ADMIN */
       72      899    1              6,                           /* SYSTEM */
       73      900    1              0*0),
       74      901    1            2 NM CHAR(8) UNAL INIT      (
PL6.E3A0      #001=OCL_DATA_D File=OCL_DATA_D.:E05TSI                            WED 07/30/97 03:59 Page:10
       75      902    1              'DEVC    ',
       76      903    1              'ADCOM  @',
       77      904    1              'COMM    ',
       78      905    1              'ADMIN   ',
       79      906    1              'SYSTEM  ',
       80      907    1              ' '*0);
       81      908                                                /**/
       82      909        %SUB OCL_NUM#  ="9 /* OCL_NUM# */";
       83      910    1   DCL OCL_BADMSG(0:9 /* OCL_NUM# */) UBIN HALF UNAL STATIC SYMDEF INIT (
       84      911    1                       386 /* PARSERR_MSG# */,
       85      912    1                       390 /* HOUR_MSG# */,
       86      913    1                       391 /* TIME_MSG# */,
       87      914    1                       397 /* INFO_MSG# */,
       88      915    1                       398 /* CONSOLE_MSG# */,
       89      916    1                       399 /* MASTER_MSG# */,
       90      917    1                       502 /* OGWR_MSG# */,
       91      918    1                       403/*OD_UFMT_MSG*/,
       92      919    1                       0*0);
       93      920                                                /**/
       94      921                                                /**/
       95      922    1   DCL 1 OCL_MSGC STATIC SYMDEF,
       96      923    1            2 * UBIN BYTE UNAL INIT(4),
       97      924    1            2 * UBIN BYTE UNAL INIT(1);
       98      925                                                /**/
       99      926    1   DCL 1 OCL_MSGB STATIC SYMDEF,
      100      927    1            2 ERR UBIN WORD UNAL INIT(0),
      101      928    1            2 ERROR REDEF ERR BIT(36) UNAL,
      102      929    1            2 CODE UBIN BYTE UNAL INIT(0);
      103      930                                                /**/
      104      931                                                /**/
      105      932                                                /**/
      106      933    1   DCL 1 OCL_NORM_KEY STATIC SYMDEF UNAL,
      107      934    1            2 COUNT UBIN BYTE UNAL INIT(4),
      108      935    1            2 UTS UBIN WORD UNAL INIT(0);
      109      936                                                /**/
      110      937    1   DCL 1 OCL_HIST_BUF STATIC SYMDEF,
      111      938    1            2 TSTAMP UBIN WORD,            /* TIME STAMP OF MESSAGE */
PL6.E3A0      #001=OCL_DATA_D File=OCL_DATA_D.:E05TSI                            WED 07/30/97 03:59 Page:11
      112      939    1            2 WSN CHAR(8) CALIGNED,
      113      940    1            2 LOGON CHAR(8) CALIGNED,
      114      941    1            2 DEVNM CHAR(4) CALIGNED,
      115      942    1            2 STAT CHAR(8) CALIGNED,
      116      943    1            2 STATION REDEF STAT,
      117      944    1                 3 FIRST_HALF CHAR (4) CALIGNED,
      118      945    1                 3 SECND_HALF CHAR (4) CALIGNED,
      119      946    1            2 TERMINAL CHAR(8) CALIGNED,
      120      947    1            2 ATTR BIT(18) CALIGNED,
      121      948    1            2 TEMPLATE BIT(1) CALIGNED, /* Does this history msg have a template */
      122      949    1            2 TYPE UBIN BYTE CALIGNED,     /* 0=OUTPUT, 1=OUTPUT DIRECT, 2=KEYIN */
      123      950    1            2 PROMPT_LENGTH UBIN BYTE CALIGNED,
      124      951    1            2 MESS CHAR(255);
      125      952                                                /**/
      126      953    1   DCL 1 OCL_CONSOLE_KEY STATIC SYMDEF UNAL,
      127      954    1            2 COUNT UBIN BYTE UNAL INIT(4),
      128      955    1            2 FIELD UBIN WORD UNAL INIT (0);
      129      956                                                /**/
      130      957    1   DCL 1 OCL_CONSOLE_REC STATIC SYMDEF,
      131      958    1            2 TERM_NAME CHAR(8) CALIGNED,
      132      959    1            2 WSN CHAR(8) CALIGNED,
      133      960    1            2 ATTR BIT(18) HALIGNED,
      134      961    1            2 ATTRO BIT(18) HALIGNED,
      135      962    1            2 LOGON CHAR(8) CALIGNED,
      136      963    1            2 STATION,
      137      964    1                 3 FIRST_HALF CHAR(4) CALIGNED,
      138      965    1                 3 SECND_HALF CHAR(4) CALIGNED,
      139      966    1            2 UTS UBIN WORD UNAL,
      140      967    1            2 ON_AT_START BIT(1) UNAL,     /* ALREADY ON AT START OF LOGGING? */
      141      968    1            2 STATUS UBIN WORD UNAL;
      142      969                                                /**/
      143      970    1   DCL 1 OCL_CONSOLE_FIELD STATIC SYMDEF UBIN WORD ALIGNED;
      144      971                                                /**/
      145      972    1   DCL OCL_WRITE_CONSOLE_RECS BIT(1) ALIGNED STATIC SYMDEF INIT ('0'B);
      146      973                                                /**/
      147      974                                                /**/
      148      975    1   DCL 1 OCL_BROKEN_FILE BIT(1) STATIC SYMDEF CALIGNED INIT ('0'B);
PL6.E3A0      #001=OCL_DATA_D File=OCL_DATA_D.:E05TSI                            WED 07/30/97 03:59 Page:12
      149      976    1   END OCL_DATA_D;

PL6.E3A0      #001=OCL_DATA_D File=OCL_DATA_D.:E05TSI                            WED 07/30/97 03:59 Page:13
--  Include file information  --

   OC_SUBS_C.:E05TOU  is referenced.
   OCI_SUBS_C.:E05TOU  is referenced.
      No diagnostics issued in procedure OCL_DATA_D.
PL6.E3A0      #001=OCL_DATA_D File=OCL_DATA_D.:E05TSI                            WED 07/30/97 03:59 Page:14

 **** Variables and constants ****


   No code generated for procedure OCL_DATA_D .
   Procedure OCL_DATA_D is declared NOAUTO and requires 172 words of local(STATIC) storage.

    No errors detected in file OCL_DATA_D.:E05TSI    .
PL6.E3A0      #001=OCL_DATA_D File=OCL_DATA_D.:E05TSI                            WED 07/30/97 03:59 Page:15
          *** CROSS REFERENCE LISTING ***
**     DENOTES     IDENTIFIER DEFINITION
<<                 IDENTIFIER'S VALUE SET
>>                 IDENTIFIER'S VALUE USED
<>                 IDENTIFIER SET AND/OR USED
--                 IDENTIFIER REFERENCED
PL6.E3A0      #001=OCL_DATA_D File=OCL_DATA_D.:E05TSI                            WED 07/30/97 03:59 Page:16
          MINI XREF LISTING

OCL_HIST_BUF.STAT
       942**DCL       943--REDEF
OCL_MSGB.ERR
       927**DCL       928--REDEF
