PL6.E3A0      #003=OCM$TPSET File=OCM$MESSAGE.:E05TSI                            WED 07/30/97 04:01 Page:137
      918        1        /*M* OCM$TPSET KEYINs routine to read template file then template
      919        2                                           the message */
      920        3        /*T***********************************************************/
      921        4        /*T*                                                         */
      922        5        /*T* Copyright (c) Bull HN Information Systems Inc., 1997    */
      923        6        /*T*                                                         */
      924        7        /*T***********************************************************/
      925        8        %SET LISTSUB='1'B;
      926        9
      927       10        /*
      928       11          ###   ###  #   #   #   ##### ####   ###  ##### #####
      929       12         # # # #   # ## ##  ###    #   #   # #   # #       #
      930       13         # # # #     # # # # #     #   #   # #     #       #
      931       14         #  ## #     #   #  ###    #   ####   ###  ####    #
      932       15         #   # #     #   #   # #   #   #         # #       #
      933       16         #   # #   # #   #  ###    #   #     #   # #       #
      934       17          ###   ###  #   #   #     #   #      ###  #####   #
      935       18                                                                          */
      936       19
      937       20        OCM$TPSET: PROC(LANGUAGE,MESSAGE_BUFFER) ALTRET;
      938       21                                                /**/
      939       22    1   DCL F$TEMPLATE DCB;
      940       23    1   DCL M$LO DCB;
      941       24                                                /**/
      942       25                                                /**/
      943       26    1   DCL OCM$TEMPLATE ENTRY;
      944       27    1   DCL OCW$WRITE ENTRY(5);
      945       28                                                /**/
      946       29                                                /**/
      947       30    1   DCL LANGUAGE CHAR(1) UNAL;              /* PASSED AS ARGUMENT */
      948       31    1   DCL MESSAGE_BUFFER CHAR(140) UNAL;      /* PASSED AS ARGUMENT */
      949       32                                                /**/
      950       33                                                /**/
      951       34    1   DCL 1 ERRCODE STATIC,
      952       35    1            2 B BIT(36) UNAL,
      953       36    1            2 U REDEF B UBIN WORD UNAL;
      954       37    1   DCL 1 MKEY STATIC ALIGNED,
PL6.E3A0      #003=OCM$TPSET File=OCM$MESSAGE.:E05TSI                            WED 07/30/97 04:01 Page:138
      955       38    1            2 * UBIN(9) INIT(3) UNAL,
      956       39    1            2 LANG_BYTE CHAR(1) UNAL INIT(' '),
      957       40    1            2 KEY UBIN HALF UNAL INIT(BITBIN('377777'O));
      958       41    1   DCL NOGO CHAR(0) STATIC INIT
      959       42    1        ('KEYIN cant find template #000000');
      960       43                                                /**/
      961       44                                                /**/
      962       45                                                /**/
      963       46                                                /**/
      964       47                                                /**/
      965       48    1   DCL I SBIN WORD STATIC ALIGNED;
      966       49    1   DCL J SBIN WORD STATIC ALIGNED;
      967       50    1   DCL FCN UBIN BYTE UNAL STATIC;
      968       51                                                /**/
      969       52                                                /**/
      970       53    1   DCL B$TCB$ PTR SYMREF;
      971       54        %INCLUDE B$TABLES_C;
      972      162             %B$XL_ASC_DUMP;
      973      166        %INCLUDE F$DCB;
      974      215        %INCLUDE OC$PEND;
      975      260             %OC$PEND_NOMSG;
      976      276        %INCLUDE OCI_SUBS_C;
      977      374                                                /**/
      978      375        %INCLUDE OCP_DATA_R;
      979      392        %INCLUDE OC_SUBS_C;
      980     1123        %INCLUDE OCM_SUBS_C;
      981     1140        %INCLUDE OUT_SUBS_C;
      982     1263        %INCLUDE OCM_DATA_R;
      983     1276        %INCLUDE CP_6_SUBS;
      984     1816        %INCLUDE CP_6;
      985     1897        %INCLUDE OC_DAT_R;
      986     2058                                                /**/
      987     2059              %B$TCB;
      988     2062             %B$ALT;
      989     2070                                                /**/
      990     2071        %SUB B$ALT=B$TCB$->B$TCB.ALT$->B$ALT;
      991     2072                                                /**/
PL6.E3A0      #003=OCM$TPSET File=OCM$MESSAGE.:E05TSI                            WED 07/30/97 04:01 Page:139
      992     2073             %FPT_READ      (FPTN=TEMP_READ,
      993     2074                                 DCB=F$TEMPLATE,
      994     2075                                 BUF=OCM_TEMPLATE,
      995     2076                                 KEY=MKEY,
      996     2077                                 KEYS=YES);
      997     2116                                                /**/
      998     2117             %FPT_ERRMSG    (BUF=OCM_BUFFER,
      999     2118                                 CODE=ERRCODE.U,
     1000     2119                                 DCB=F$TEMPLATE,
     1001     2120                                 OUTDCB1=M$LO,
     1002     2121                                 INCLCODE=NO);
     1003     2148                                                /**/
     1004     2149                                                /**/
     1005     2150        %EJECT;
PL6.E3A0      #003=OCM$TPSET File=OCM$MESSAGE.:E05TSI                            WED 07/30/97 04:01 Page:140
     1006     2151    1        OC_MESSBUF2 = MESSAGE_BUFFER;
     1007     2152    1        OCM_PARAM$ = PINCRC ( ADDR (OC_MESSBUF),
     1008     2153    1             OC_MESSBUF.NPARAMS + 20 /* SIZEC_OC_MESSHD# */);
     1009     2154    1        REMEMBER BAD_TEMPLATE IN OCM_ERRTRN;
     1010     2155    1        OCM_TPOSN = 1;
     1011     2156    1        OCM_BPOSN = 0;
     1012     2157                                                /**/
     1013     2158    1        IF MKEY.KEY = OC_MESSBUF.MSG# AND MKEY.LANG_BYTE = LANGUAGE
     1014     2159    1        THEN
     1015     2160    1             GOTO GOT_TEMPLATE;
     1016     2161                                                /**/
     1017     2162                                                /* In case of zero-length read */
     1018     2163    1        CALL INSERT (OCM_TEMPLATE, 0, 1, BINASC (1 /* T_STRING */));
     1019     2164    1        MKEY.KEY = OC_MESSBUF.MSG#;
     1020     2165    1        MKEY.LANG_BYTE = LANGUAGE;
     1021     2166                                                /**/
     1022     2167    1        IF ~OC_MSG_GOOD
     1023     2168    1        THEN
     1024     2169    1             GOTO NEXT;
     1025     2170                                                /**/
     1026     2171                                                /* Read the message template */
     1027     2172    1        CALL M$READ(TEMP_READ) ALTRET(TRYAGAIN);
     1028     2173    1        GOTO FOUND_TEMP;
     1029     2174    1   TRYAGAIN: MKEY.LANG_BYTE = ' ';
     1030     2175    1        CALL M$READ (TEMP_READ) ALTRET (BAD_READ);
     1031     2176    1   FOUND_TEMP: ;
     1032     2177    1        OCM_TSIZE = DCBADDR (DCBNUM (F$TEMPLATE)) -> F$DCB.ARS;
     1033     2178                                                /**/
     1034     2179    1   GOT_TEMPLATE: ;
     1035     2180                                                /**/
     1036     2181    1        IF SUBSTR(OCM_TEMPLATE,0,1) = BINASC(0 /* T_TEMPLATE */)
     1037     2182    1        THEN
     1038     2183    1             CALL OCM$TEMPLATE;
     1039     2184    1        ELSE
     1040     2185    1             GOTO BAD_TEMPLATE;
     1041     2186    1        IF OC_MESSBUF.MSG# = 502 /* OGWR_MSG# */ OR
     1042     2187    1             OC_MESSBUF.MSG# = 389 /* FROMMSTR_MSG# */ THEN
PL6.E3A0      #003=OCM$TPSET File=OCM$MESSAGE.:E05TSI                            WED 07/30/97 04:01 Page:141
     1043     2188    1             CALL XLATE (OCM_BUFFER, B$XL_ASC_DUMP, OCM_BUFFER);
     1044     2189    1        RETURN;
     1045     2190    1   BAD_TEMPLATE: ;
     1046     2191    1        CALL DUMP;               /*  dump bad template to lineprinter in octal   */
     1047     2192    1        CALL OCW$WRITE (OCM_BUFFER, OCM_BPOSN, /* output whatever is */
     1048     2193    1             OC_MESSBUF.CADDR, OC_MESSBUF.WSN); /* in the buffer */
     1049     2194    1        ALTRETURN;
     1050     2195                                                /**/
     1051     2196    1   BAD_READ: ;                   /* come here if problem reading template file   */
     1052     2197    1        MKEY.KEY = BITBIN('377777'O);
     1053     2198    1        ERRCODE.B = B$TCB$->B$TCB.ALT$->B$ALT.ERR;
     1054     2199    1        CALL M$ERRMSG(FPT_ERRMSG) ALTRET (NEXT);
     1055     2200    1   NEXT: ;
     1056     2201    1        CALL BINCHAR(SUBSTR(NOGO,26,6),OC_MESSBUF.MSG#);
     1057     2202    1        CALL OCW$WRITE (NOGO, LENGTHC (NOGO), '200000'O /* M_SYS  */,
     1058     2203    1             OCP_NON_STA);
     1059     2204    1        ALTRETURN;
     1060     2205        /**/
     1061     2206        %EJECT;
PL6.E3A0      #003=OCM$TPSET File=OCM$MESSAGE.:E05TSI                            WED 07/30/97 04:01 Page:142
     1062     2207    1   DUMP: PROC;                   /*  procedure to dump tempbuf to lineprinter    */
     1063     2208    2   DCL BOUND SBIN WORD;
     1064     2209    2   DCL DPOSN SBIN WORD;
     1065     2210    2   DCL 1 TEMP,
     1066     2211    2            2 C CHAR(4) UNAL,
     1067     2212    2            2 B REDEF C BIT(36) UNAL,
     1068     2213    2            2 U REDEF C UBIN WORD;
     1069     2214    2   DCL DUMPBUF CHAR(104) STATIC UNAL;
     1070     2215    2   DCL BAD_TEMP_MESS CHAR(0) STATIC INIT(
     1071     2216    2           ' Dump of template #') UNAL;
     1072     2217    2   DCL BAD_MESSG CHAR(0) STATIC INIT
     1073     2218    2        (' Dump of Bad message buffer ---');
     1074     2219    2   DCL OCM_TPOSN_TEXT CHAR(0) STATIC INIT
     1075     2220    2        ('OCM_TPOSN');
     1076     2221    2   DCL OCM_BPOSN_TEXT CHAR(0) STATIC INIT
     1077     2222    2        ('OCM_BPOSN');
     1078     2223    2   DCL LP_DUMP BIT(1) ALIGNED CONSTANT SYMDEF INIT ('1'B /*TRUE#*/);
     1079     2224    2   DCL OC_DUMP BIT(1) ALIGNED CONSTANT SYMDEF INIT ('1'B /*TRUE#*/);
     1080     2225    2   DCL ITPOSN UBIN WORD STATIC;
     1081     2226        %SUB DSIZE=DUMP_OUT.BUF_.BOUND;
     1082     2227             %FPT_OPEN      (FPTN=DUMP_OPEN,
     1083     2228                                 DCB=M$LO,
     1084     2229                                 ASN=DEVICE,
     1085     2230                                 RES="'LP'",
     1086     2231                                 FUN=CREATE);
     1087     2340                                                /**/
     1088     2341             %FPT_CLOSE     (FPTN=DUMP_CLOSE,
     1089     2342                                 DCB=M$LO);
     1090     2384                                                /**/
     1091     2385             %FPT_WRITE     (FPTN=DUMP_OUT,
     1092     2386                                 DCB=M$LO,
     1093     2387                                 BUF=DUMPBUF);
     1094     2418                                                /**/
     1095     2419                                                /**/
     1096     2420                                                /**/
     1097     2421    2   DUMP_IT: PROC;
     1098     2422    3        DUMP_OUT.BUF_.BOUND = DPOSN - 1;
PL6.E3A0      #003=OCM$TPSET File=OCM$MESSAGE.:E05TSI                            WED 07/30/97 04:01 Page:143
     1099     2423    3        IF OC_DUMP
     1100     2424    3        THEN
     1101     2425    3             CALL OCW$WRITE (DUMPBUF, DUMP_OUT.BUF_.BOUND, '200000'O /* M_SYS  */,
              2425                      OCP_NON_STA);
     1102     2426    3        IF LP_DUMP
     1103     2427    3        THEN
     1104     2428    3             CALL M$WRITE (DUMP_OUT);
     1105     2429    3        RETURN;
     1106     2430    3   END DUMP_IT;
     1107     2431                                                /**/
     1108     2432                                                /**/
     1109     2433    2   DUMP_LINE:PROC(NCHARS,SOURCE_BUF);
     1110     2434    3   DCL NCHARS UBIN WORD;
     1111     2435    3   DCL SOURCE_BUF CHAR(1) UNAL;
     1112     2436
     1113     2437    3        CALL INSERT (DUMPBUF,DPOSN,1,' ');
     1114     2438    3        DPOSN = DPOSN + 1;
     1115     2439    3        CALL XLATE (SUBSTR(DUMPBUF,DPOSN,NCHARS),
     1116     2440    3             B$XL_ASC_DUMP,
     1117     2441    3             SUBSTR(SOURCE_BUF,ITPOSN,NCHARS));
     1118     2442    3        DPOSN = DPOSN + NCHARS;
     1119     2443    3        CALL DUMP_IT;
     1120     2444    3        DPOSN = 0;
     1121     2445    3        ITPOSN = I * 4;
     1122     2446    3        RETURN;
     1123     2447    3   END DUMP_LINE;
     1124     2448                                                /**/
     1125     2449                                                /**/
     1126     2450    2   CONV_OCT: PROC;
     1127     2451    3        CALL INSERT (DUMPBUF,DPOSN,1,' ');
     1128     2452    3        DPOSN = DPOSN + 12;
     1129     2453    4        DO J = 0 TO 11;
     1130     2454    4             CALL INSERT (DUMPBUF, DPOSN-J, 1,
     1131     2455    4                  BINASC(BITBIN(TEMP.B & '000000000007'O) + 48));
     1132     2456    4             TEMP.U = TEMP.U / 8;
     1133     2457    4           END;
     1134     2458    3        DPOSN = DPOSN + 1;
PL6.E3A0      #003=OCM$TPSET File=OCM$MESSAGE.:E05TSI                            WED 07/30/97 04:01 Page:144
     1135     2459    3        RETURN;
     1136     2460    3   END CONV_OCT;
     1137     2461                                                /**/
     1138     2462                                                /**/
     1139     2463    2        DUMPBUF = BAD_TEMP_MESS;
     1140     2464    2        CALL BINCHAR(SUBSTR(DUMPBUF,SIZEC(BAD_TEMP_MESS),4), MKEY.KEY);
     1141     2465    2        DPOSN = SIZEC(BAD_TEMP_MESS) + 4;
     1142     2466    2        IF LP_DUMP
     1143     2467    2        THEN
     1144     2468    2             CALL M$OPEN (DUMP_OPEN);
     1145     2469                                                /**/
     1146     2470    2        CALL DUMP_IT;
     1147     2471                                                /**/
     1148     2472    2        DPOSN = 0;
     1149     2473    2        ITPOSN = 0;
     1150     2474                                                /**/
     1151     2475    2        BOUND = (OCM_TSIZE + 3) / 4;
     1152     2476                                                /**/
     1153     2477    3        DO I = 0 TO BOUND;
     1154     2478    3             IF DPOSN > 51
     1155     2479    3             THEN
     1156     2480    3                  CALL DUMP_LINE(16, OCM_TEMPLATE);
     1157     2481                                                /**/
     1158     2482    3             CALL INSERT (TEMP.C, 0, 4, SUBSTR(OCM_TEMPLATE,I*4,4));
     1159     2483    3             CALL CONV_OCT;
     1160     2484    3           END;                            /* DO I = 0 TO BOUND */
     1161     2485                                                /**/
     1162     2486    2        IF DPOSN ~= 0
     1163     2487    2        THEN
     1164     2488    2             CALL DUMP_LINE ( ((I*4) - 1) - ITPOSN, OCM_TEMPLATE);
     1165     2489                                                /**/
     1166     2490    2        DUMPBUF = ' ';
     1167     2491    2        DPOSN = 1;
     1168     2492                                                /**/
     1169     2493    2        CALL DUMP_IT;
     1170     2494                                                /**/
     1171     2495    2        DUMPBUF = BAD_MESSG;
PL6.E3A0      #003=OCM$TPSET File=OCM$MESSAGE.:E05TSI                            WED 07/30/97 04:01 Page:145
     1172     2496                                                /**/
     1173     2497    2        DPOSN = SIZEC(BAD_MESSG);
     1174     2498    2        CALL DUMP_IT;
     1175     2499                                                /**/
     1176     2500    2        DPOSN = 0;
     1177     2501    2        ITPOSN = 0;
     1178     2502                                                /**/
     1179     2503    3        DO I = 0 TO 29;
     1180     2504    3             IF DPOSN > 51
     1181     2505    3             THEN
     1182     2506    3                  CALL DUMP_LINE (16,OC_MESSBUF2);
     1183     2507    3             CALL INSERT (TEMP.C, 0 ,4, SUBSTR(OC_MESSBUF2,I*4,4));
     1184     2508    3             CALL CONV_OCT;
     1185     2509    3           END;                            /* DO I = 0 TO 29 */
     1186     2510    2        IF DPOSN ~= 0
     1187     2511    2        THEN
     1188     2512    2             CALL DUMP_LINE((((I*4) -1) -ITPOSN), OC_MESSBUF2);
     1189     2513    2        CALL BINCHAR(SUBSTR(DUMPBUF,0,4),OCM_TPOSN);
     1190     2514    2        CALL INSERT (DUMPBUF,4,1,'/');
     1191     2515    2        CALL BINCHAR(SUBSTR(DUMPBUF,5,4),OCM_BPOSN);
     1192     2516    2        CALL INSERT (DUMPBUF,9,1,' ');
     1193     2517    2        CALL INSERT (DUMPBUF,10,SIZEC(OCM_TPOSN_TEXT),OCM_TPOSN_TEXT);
     1194     2518    2        CALL INSERT (DUMPBUF,10+SIZEC(OCM_TPOSN_TEXT),1,'/');
     1195     2519    2        CALL INSERT (DUMPBUF,11+SIZEC(OCM_TPOSN_TEXT),
     1196     2520    2             SIZEC(OCM_BPOSN_TEXT), OCM_BPOSN_TEXT);
     1197     2521    2        DPOSN = 11 + SIZEC(OCM_BPOSN_TEXT) + SIZEC(OCM_TPOSN_TEXT);
     1198     2522    2        CALL DUMP_IT;
     1199     2523    2        IF LP_DUMP
     1200     2524    2        THEN
     1201     2525    2             CALL M$CLOSE (DUMP_CLOSE);
     1202     2526    2        RETURN;
     1203     2527    2   END DUMP;
     1204     2528                                                /**/
     1205     2529        %EJECT;
PL6.E3A0      #003=OCM$TPSET File=OCM$MESSAGE.:E05TSI                            WED 07/30/97 04:01 Page:146
     1206     2530    1   END;

PL6.E3A0      #003=OCM$TPSET File=OCM$MESSAGE.:E05TSI                            WED 07/30/97 04:01 Page:147
--  Include file information  --

   OC$MESSHD_C.:E05TOU  is referenced.
   OC_DAT_R.:E05TOU  cannot be made into a system file and is referenced.
   CP_6.:E05TOU  cannot be made into a system file and is referenced.
   CP_6_SUBS.:E05TOU  is referenced.
   OCM_DATA_R.:E05TOU  cannot be made into a system file and is referenced.
   OUT_SUBS_C.:E05TOU  is referenced.
   OCM_SUBS_C.:E05TOU  is referenced.
   OC_SUBS_C.:E05TOU  is referenced.
   OCP_DATA_R.:E05TOU  cannot be made into a system file and is referenced.
   OCI_SUBS_C.:E05TOU  is referenced.
   OC$PEND.:E05TOU  cannot be made into a system file and is referenced.
   F$DCB.:E05TOU  cannot be made into a system file and is referenced.
   B$TABLES_C.:E05TOU  cannot be made into a system file and is referenced.
   B$JIT_C.:E05TOU  was found in the system file and is never referenced.
   CP_6_C.:E05TOU  was found in the system file and is referenced.
      No diagnostics issued in procedure OCM$TPSET.

   Procedure OCM$TPSET requires 320 words for executable code.
   Procedure OCM$TPSET requires 20 words of local(AUTO) storage.

    No errors detected in file OCM$MESSAGE.:E05TSI    .

PL6.E3A0      #003=OCM$TPSET File=OCM$MESSAGE.:E05TSI                            WED 07/30/97 04:01 Page:148

 Object Unit name= OCM$TPSET                                  File name= OCM$MESSAGE.:E05TOU
 UTS= JUL 30 '97 04:01:48.96 WED                              Compiler= PL-6/E31         Sev=      00
 SharedLib= :SHARED_SYSTEM                                    Alt SharedLib=


    ****  Control sections  ****

 Sect   Type Bound  Init  Size OctSiz  Section name(segment info)
    0   DCB   even  none     0      0  F$TEMPLATE
    1   DCB   even  none     0      0  M$LO
    2   Data  even  none   210    322  OCM$TPSET
    3   DCB   even  none     0      0  M$UC
    4  RoData even  UTS      2      2  OCM$TPSET
    5   Proc  even  none   320    500  OCM$TPSET
    6  RoData even  none    20     24  OCM$TPSET

    ****  Entry defs  ****

                              Check   Calling
                             calling  sequence
  Sect OctLoc Primary Altret sequence   type   Parms  Name
     5      0   yes    yes     yes      Std        2  OCM$TPSET

  ****  Data defs  ****

 Sect OctLoc  Name                           Sect OctLoc  Name
    4      0  LP_DUMP                            4      1  OC_DUMP
PL6.E3A0      #003=OCM$TPSET File=OCM$MESSAGE.:E05TSI                            WED 07/30/97 04:01 Page:149

  ****  Entry refs  ****

         Check        Calling
        calling       sequence
Altret sequence SRef   type   Args  Name
         yes          ~proc      0 B_POINTER
         yes           Std       0 OCM$TEMPLATE
         yes           Std       5 OCW$WRITE
                       Std       0 B_CONSPOOL_D
                       nStd      0 X66_AUTO_2
                       nStd      0 X66_ARET
                       nStd      0 X66_AALT

  ****  Data refs  ****

  Flags:  r = read only, s = secondary
Flgs Name                             Flgs Name                             Flgs Name
     F$TEMPLATE                            M$LO                                  B$TCB$
r    B$XL_ASC_DUMP$                        OCP_FREE_HEAD                         OCP_USED_HEAD
     OCP_USED_TAIL                         OCP_NON_STA                           OCM_BPOSN
     OCM_TPOSN                             OCM_TSIZE                             OCM_ERRTRN
     OCM_PARAM$                            OCM_BUFFER                            OCM_TEMPLATE
     M$UC                                  OC_INTMSG                             OC_MESSBUF
     OC_MSGBUFFER                          OC_PARAM                              OC_CONSOLE$
     OC_DIR                                OC_INTBIT                             OC_MASK
     OC_MSG_GOOD                           B_VECTNIL

  ****  Segment refs  ****

  Flags:  r = read only, s = secondary
Flgs Name                             Flgs Name                             Flgs Name
     ISSID                                 NULLSID                               ROSID
PL6.E3A0      #003=OCM$TPSET File=OCM$MESSAGE.:E05TSI                            WED 07/30/97 04:01 Page:150


      918        1        /*M* OCM$TPSET KEYINs routine to read template file then template
      919        2                                           the message */
      920        3        /*T***********************************************************/
      921        4        /*T*                                                         */
      922        5        /*T* Copyright (c) Bull HN Information Systems Inc., 1997    */
      923        6        /*T*                                                         */
      924        7        /*T***********************************************************/
      925        8        %SET LISTSUB='1'B;
      926        9
      927       10        /*
      928       11          ###   ###  #   #   #   ##### ####   ###  ##### #####
      929       12         # # # #   # ## ##  ###    #   #   # #   # #       #
      930       13         # # # #     # # # # #     #   #   # #     #       #
      931       14         #  ## #     #   #  ###    #   ####   ###  ####    #
      932       15         #   # #     #   #   # #   #   #         # #       #
      933       16         #   # #   # #   #  ###    #   #     #   # #       #
      934       17          ###   ###  #   #   #     #   #      ###  #####   #
      935       18                                                                          */
      936       19
      937       20        OCM$TPSET: PROC(LANGUAGE,MESSAGE_BUFFER) ALTRET;

     20  5 000000   000000 700200 xent  OCM$TPSET    TSX0  ! X66_AUTO_2
         5 000001   000024 000002                    ZERO    20,2

      938       21                                                /**/
      939       22    1   DCL F$TEMPLATE DCB;
      940       23    1   DCL M$LO DCB;
      941       24                                                /**/
      942       25                                                /**/
      943       26    1   DCL OCM$TEMPLATE ENTRY;
      944       27    1   DCL OCW$WRITE ENTRY(5);
      945       28                                                /**/
      946       29                                                /**/
      947       30    1   DCL LANGUAGE CHAR(1) UNAL;              /* PASSED AS ARGUMENT */
      948       31    1   DCL MESSAGE_BUFFER CHAR(140) UNAL;      /* PASSED AS ARGUMENT */
      949       32                                                /**/
PL6.E3A0      #003=OCM$TPSET File=OCM$MESSAGE.:E05TSI                            WED 07/30/97 04:01 Page:151
      950       33                                                /**/
      951       34    1   DCL 1 ERRCODE STATIC,
      952       35    1            2 B BIT(36) UNAL,
      953       36    1            2 U REDEF B UBIN WORD UNAL;
      954       37    1   DCL 1 MKEY STATIC ALIGNED,
      955       38    1            2 * UBIN(9) INIT(3) UNAL,
      956       39    1            2 LANG_BYTE CHAR(1) UNAL INIT(' '),
      957       40    1            2 KEY UBIN HALF UNAL INIT(BITBIN('377777'O));
      958       41    1   DCL NOGO CHAR(0) STATIC INIT
      959       42    1        ('KEYIN cant find template #000000');
      960       43                                                /**/
      961       44                                                /**/
      962       45                                                /**/
      963       46                                                /**/
      964       47                                                /**/
      965       48    1   DCL I SBIN WORD STATIC ALIGNED;
      966       49    1   DCL J SBIN WORD STATIC ALIGNED;
      967       50    1   DCL FCN UBIN BYTE UNAL STATIC;
      968       51                                                /**/
      969       52                                                /**/
      970       53    1   DCL B$TCB$ PTR SYMREF;
      971       54        %INCLUDE B$TABLES_C;
      972      162             %B$XL_ASC_DUMP;
      973      166        %INCLUDE F$DCB;
      974      215        %INCLUDE OC$PEND;
      975      260             %OC$PEND_NOMSG;
      976      276        %INCLUDE OCI_SUBS_C;
      977      374                                                /**/
      978      375        %INCLUDE OCP_DATA_R;
      979      392        %INCLUDE OC_SUBS_C;
      980     1123        %INCLUDE OCM_SUBS_C;
      981     1140        %INCLUDE OUT_SUBS_C;
      982     1263        %INCLUDE OCM_DATA_R;
      983     1276        %INCLUDE CP_6_SUBS;
      984     1816        %INCLUDE CP_6;
      985     1897        %INCLUDE OC_DAT_R;
      986     2058                                                /**/
PL6.E3A0      #003=OCM$TPSET File=OCM$MESSAGE.:E05TSI                            WED 07/30/97 04:01 Page:152
      987     2059              %B$TCB;
      988     2062             %B$ALT;
      989     2070                                                /**/
      990     2071        %SUB B$ALT=B$TCB$->B$TCB.ALT$->B$ALT;
      991     2072                                                /**/
      992     2073             %FPT_READ      (FPTN=TEMP_READ,
      993     2074                                 DCB=F$TEMPLATE,
      994     2075                                 BUF=OCM_TEMPLATE,
      995     2076                                 KEY=MKEY,
      996     2077                                 KEYS=YES);
      997     2116                                                /**/
      998     2117             %FPT_ERRMSG    (BUF=OCM_BUFFER,
      999     2118                                 CODE=ERRCODE.U,
     1000     2119                                 DCB=F$TEMPLATE,
     1001     2120                                 OUTDCB1=M$LO,
     1002     2121                                 INCLCODE=NO);
     1003     2148                                                /**/
     1004     2149                                                /**/
     1005     2150        %EJECT;
PL6.E3A0      #003=OCM$TPSET File=OCM$MESSAGE.:E05TSI                            WED 07/30/97 04:01 Page:153
     1006     2151    1        OC_MESSBUF2 = MESSAGE_BUFFER;

   2151  5 000002   200004 470500                    LDP0    @MESSAGE_BUFFER,,AUTO
         5 000003   040000 100500                    MLR     fill='040'O
         5 000004   000000 000214                    ADSC9   0,,PR0                   cn=0,n=140
         5 000005   000000 000310 xsym               ADSC9   OC_MESSBUF               cn=0,n=200

     1007     2152    1        OCM_PARAM$ = PINCRC ( ADDR (OC_MESSBUF),

   2152  5 000006   000001 236000 xsym               LDQ     OC_MESSBUF+1
         5 000007   000011 772000                    QRL     9
         5 000010   000777 376007                    ANQ     511,DL
         5 000011   000020 736000                    QLS     16
         5 000012   000000 036000 6                  ADLQ    0
         5 000013   000000 756000 xsym               STQ     OCM_PARAM$

     1008     2153    1             OC_MESSBUF.NPARAMS + 20 /* SIZEC_OC_MESSHD# */);
     1009     2154    1        REMEMBER BAD_TEMPLATE IN OCM_ERRTRN;

   2154  5 000014   000113 635000 5                  EAA     BAD_TEMPLATE
         5 000015   000000 452400 xsym               STP2    OCM_ERRTRN
         5 000016   000001 755000 xsym               STA     OCM_ERRTRN+1

     1010     2155    1        OCM_TPOSN = 1;

   2155  5 000017   000001 235007                    LDA     1,DL
         5 000020   000000 755000 xsym               STA     OCM_TPOSN

     1011     2156    1        OCM_BPOSN = 0;

   2156  5 000021   000000 450000 xsym               STZ     OCM_BPOSN

     1012     2157                                                /**/
     1013     2158    1        IF MKEY.KEY = OC_MESSBUF.MSG# AND MKEY.LANG_BYTE = LANGUAGE

   2158  5 000022   000001 236000 2                  LDQ     MKEY
         5 000023   000000 676000 xsym               ERQ     OC_MESSBUF
PL6.E3A0      #003=OCM$TPSET File=OCM$MESSAGE.:E05TSI                            WED 07/30/97 04:01 Page:154
         5 000024   777777 376007                    ANQ     -1,DL
         5 000025   000033 601000 5                  TNZ     s:2163
         5 000026   200003 471500                    LDP1    @LANGUAGE,,AUTO
         5 000027   040100 106400                    CMPC    fill='040'O
         5 000030   000001 200001 2                  ADSC9   MKEY                     cn=1,n=1
         5 000031   100000 000001                    ADSC9   0,,PR1                   cn=0,n=1
         5 000032   000070 600000 5                  TZE     GOT_TEMPLATE

     1014     2159    1        THEN
     1015     2160    1             GOTO GOT_TEMPLATE;
     1016     2161                                                /**/
     1017     2162                                                /* In case of zero-length read */
     1018     2163    1        CALL INSERT (OCM_TEMPLATE, 0, 1, BINASC (1 /* T_STRING */));

   2163  5 000033   001000 236003                    LDQ     512,DU
         5 000034   000000 552040 xsym               STBQ    OCM_TEMPLATE,'40'O

     1019     2164    1        MKEY.KEY = OC_MESSBUF.MSG#;

   2164  5 000035   000000 720000 xsym               LXL0    OC_MESSBUF
         5 000036   000001 440000 2                  SXL0    MKEY

     1020     2165    1        MKEY.LANG_BYTE = LANGUAGE;

   2165  5 000037   200003 471500                    LDP1    @LANGUAGE,,AUTO
         5 000040   040000 100500                    MLR     fill='040'O
         5 000041   100000 000001                    ADSC9   0,,PR1                   cn=0,n=1
         5 000042   000001 200001 2                  ADSC9   MKEY                     cn=1,n=1

     1021     2166                                                /**/
     1022     2167    1        IF ~OC_MSG_GOOD

   2167  5 000043   000000 236000 xsym               LDQ     OC_MSG_GOOD
         5 000044   400000 376003                    ANQ     -131072,DU
         5 000045   400000 676003                    ERQ     -131072,DU
         5 000046   000134 601000 5                  TNZ     NEXT

PL6.E3A0      #003=OCM$TPSET File=OCM$MESSAGE.:E05TSI                            WED 07/30/97 04:01 Page:155
     1023     2168    1        THEN
     1024     2169    1             GOTO NEXT;
     1025     2170                                                /**/
     1026     2171                                                /* Read the message template */
     1027     2172    1        CALL M$READ(TEMP_READ) ALTRET(TRYAGAIN);

   2172  5 000047   000030 630400 2                  EPPR0   TEMP_READ
         5 000050   440000 713400                    CLIMB   alt,read
         5 000051   401400 401760                    pmme    nvectors=4
         5 000052   000054 702000 5                  TSX2    TRYAGAIN

     1028     2173    1        GOTO FOUND_TEMP;

   2173  5 000053   000062 710000 5                  TRA     FOUND_TEMP

     1029     2174    1   TRYAGAIN: MKEY.LANG_BYTE = ' ';

   2174  5 000054   000040 236003       TRYAGAIN     LDQ     32,DU
         5 000055   000001 552020 2                  STBQ    MKEY,'20'O

     1030     2175    1        CALL M$READ (TEMP_READ) ALTRET (BAD_READ);

   2175  5 000056   000030 630400 2                  EPPR0   TEMP_READ
         5 000057   440000 713400                    CLIMB   alt,read
         5 000060   401400 401760                    pmme    nvectors=4
         5 000061   000122 702000 5                  TSX2    BAD_READ

   2167  5 000062                       FOUND_TEMP   null
     1031     2176    1   FOUND_TEMP: ;
     1032     2177    1        OCM_TSIZE = DCBADDR (DCBNUM (F$TEMPLATE)) -> F$DCB.ARS;

   2177  5 000062   000000 236007 xsym               LDQ     F$TEMPLATE,DL
         5 000063   000001 470400 6                  LDP0    1
         5 000064   000000 471500                    LDP1    0,,PR0
         5 000065   100000 473506                    LDP3    0,QL,PR1
         5 000066   300000 235100                    LDA     0,,PR3
         5 000067   000000 755000 xsym               STA     OCM_TSIZE
PL6.E3A0      #003=OCM$TPSET File=OCM$MESSAGE.:E05TSI                            WED 07/30/97 04:01 Page:156

   2177  5 000070                       GOT_TEMPLATE null
     1033     2178                                                /**/
     1034     2179    1   GOT_TEMPLATE: ;
     1035     2180                                                /**/
     1036     2181    1        IF SUBSTR(OCM_TEMPLATE,0,1) = BINASC(0 /* T_TEMPLATE */)

   2181  5 000070   000000 236000 xsym               LDQ     OCM_TEMPLATE
         5 000071   777000 376003                    ANQ     -512,DU
         5 000072   000000 116003                    CMPQ    0,DU
         5 000073   000113 601000 5                  TNZ     BAD_TEMPLATE

     1037     2182    1        THEN
     1038     2183    1             CALL OCM$TEMPLATE;

   2183  5 000074   000002 631400 xsym               EPPR1   B_VECTNIL+2
         5 000075   000000 701000 xent               TSX1    OCM$TEMPLATE
         5 000076   000000 011000                    NOP     0
         5 000077   000100 710000 5                  TRA     s:2186

     1039     2184    1        ELSE
     1040     2185    1             GOTO BAD_TEMPLATE;
     1041     2186    1        IF OC_MESSBUF.MSG# = 502 /* OGWR_MSG# */ OR

   2186  5 000100   000000 720000 xsym               LXL0    OC_MESSBUF
         5 000101   000766 100003                    CMPX0   502,DU
         5 000102   000105 600000 5                  TZE     s:2188
         5 000103   000605 100003                    CMPX0   389,DU
         5 000104   000112 601000 5                  TNZ     s:2189

     1042     2187    1             OC_MESSBUF.MSG# = 389 /* FROMMSTR_MSG# */ THEN
     1043     2188    1             CALL XLATE (OCM_BUFFER, B$XL_ASC_DUMP, OCM_BUFFER);

   2188  5 000105   000000 470400 xsym               LDP0    B$XL_ASC_DUMP$
         5 000106   040000 160400                    MVT     fill='040'O
         5 000107   000000 000400 xsym               ADSC9   OCM_BUFFER               cn=0,n=256
         5 000110   000000 000400 xsym               ADSC9   OCM_BUFFER               cn=0,n=256
PL6.E3A0      #003=OCM$TPSET File=OCM$MESSAGE.:E05TSI                            WED 07/30/97 04:01 Page:157
         5 000111   000000 000100                    ARG     0,,PR0

     1044     2189    1        RETURN;

   2189  5 000112   000000 702200 xent               TSX2  ! X66_ARET

   2186  5 000113                       BAD_TEMPLATE null
     1045     2190    1   BAD_TEMPLATE: ;
     1046     2191    1        CALL DUMP;               /*  dump bad template to lineprinter in octal   */

   2191  5 000113   000150 701000 5                  TSX1    DUMP
         5 000114   000000 011000                    NOP     0

     1047     2192    1        CALL OCW$WRITE (OCM_BUFFER, OCM_BPOSN, /* output whatever is */

   2192  5 000115   000002 630400 6                  EPPR0   2
         5 000116   000022 631400 xsym               EPPR1   B_VECTNIL+18
         5 000117   000000 701000 xent               TSX1    OCW$WRITE
         5 000120   000000 011000                    NOP     0

     1048     2193    1             OC_MESSBUF.CADDR, OC_MESSBUF.WSN); /* in the buffer */
     1049     2194    1        ALTRETURN;

   2194  5 000121   000000 702200 xent               TSX2  ! X66_AALT

   2186  5 000122                       BAD_READ     null
     1050     2195                                                /**/
     1051     2196    1   BAD_READ: ;                   /* come here if problem reading template file   */
     1052     2197    1        MKEY.KEY = BITBIN('377777'O);

   2197  5 000122   377777 220003                    LDX0    131071,DU
         5 000123   000001 440000 2                  SXL0    MKEY

     1053     2198    1        ERRCODE.B = B$TCB$->B$TCB.ALT$->B$ALT.ERR;

   2198  5 000124   000000 470400 xsym               LDP0    B$TCB$
         5 000125   000000 471500                    LDP1    0,,PR0
PL6.E3A0      #003=OCM$TPSET File=OCM$MESSAGE.:E05TSI                            WED 07/30/97 04:01 Page:158
         5 000126   100102 236100                    LDQ     66,,PR1
         5 000127   000000 756000 2                  STQ     ERRCODE

     1054     2199    1        CALL M$ERRMSG(FPT_ERRMSG) ALTRET (NEXT);

   2199  5 000130   000046 630400 2                  EPPR0   FPT_ERRMSG
         5 000131   420000 713400                    CLIMB   alt,+8192
         5 000132   405000 401760                    pmme    nvectors=11
         5 000133   000134 702000 5                  TSX2    NEXT

   2198  5 000134                       NEXT         null
     1055     2200    1   NEXT: ;
     1056     2201    1        CALL BINCHAR(SUBSTR(NOGO,26,6),OC_MESSBUF.MSG#);

   2201  5 000134   000000 236000 xsym               LDQ     OC_MESSBUF
         5 000135   777777 376007                    ANQ     -1,DL
         5 000136   000000 235003                    LDA     0,DU
         5 000137   200020 757100                    STAQ    @SOURCE_BUF+4,,AUTO
         5 000140   000000 301500                    BTD
         5 000141   200020 000010                    NDSC9   @SOURCE_BUF+4,,AUTO      cn=0,s=lsgnf,sf=0,n=8
         5 000142   000010 430006 2                  NDSC9   NOGO+6                   cn=2,s=nosgn,sf=0,n=6

     1057     2202    1        CALL OCW$WRITE (NOGO, LENGTHC (NOGO), '200000'O /* M_SYS  */,

   2202  5 000143   000010 630400 6                  EPPR0   8
         5 000144   000022 631400 xsym               EPPR1   B_VECTNIL+18
         5 000145   000000 701000 xent               TSX1    OCW$WRITE
         5 000146   000000 011000                    NOP     0

     1058     2203    1             OCP_NON_STA);
     1059     2204    1        ALTRETURN;

   2204  5 000147   000000 702200 xent               TSX2  ! X66_AALT

     1060     2205        /**/
     1061     2206        %EJECT;
PL6.E3A0      #003=OCM$TPSET File=OCM$MESSAGE.:E05TSI                            WED 07/30/97 04:01 Page:159
     1062     2207    1   DUMP: PROC;                   /*  procedure to dump tempbuf to lineprinter    */

   2207  5 000150   200006 741300       DUMP         STX1  ! @MESSAGE_BUFFER+2,,AUTO
         5 000151   000270 710000 5                  TRA     s:2463

     1063     2208    2   DCL BOUND SBIN WORD;
     1064     2209    2   DCL DPOSN SBIN WORD;
     1065     2210    2   DCL 1 TEMP,
     1066     2211    2            2 C CHAR(4) UNAL,
     1067     2212    2            2 B REDEF C BIT(36) UNAL,
     1068     2213    2            2 U REDEF C UBIN WORD;
     1069     2214    2   DCL DUMPBUF CHAR(104) STATIC UNAL;
     1070     2215    2   DCL BAD_TEMP_MESS CHAR(0) STATIC INIT(
     1071     2216    2           ' Dump of template #') UNAL;
     1072     2217    2   DCL BAD_MESSG CHAR(0) STATIC INIT
     1073     2218    2        (' Dump of Bad message buffer ---');
     1074     2219    2   DCL OCM_TPOSN_TEXT CHAR(0) STATIC INIT
     1075     2220    2        ('OCM_TPOSN');
     1076     2221    2   DCL OCM_BPOSN_TEXT CHAR(0) STATIC INIT
     1077     2222    2        ('OCM_BPOSN');
     1078     2223    2   DCL LP_DUMP BIT(1) ALIGNED CONSTANT SYMDEF INIT ('1'B /*TRUE#*/);
     1079     2224    2   DCL OC_DUMP BIT(1) ALIGNED CONSTANT SYMDEF INIT ('1'B /*TRUE#*/);
     1080     2225    2   DCL ITPOSN UBIN WORD STATIC;
     1081     2226        %SUB DSIZE=DUMP_OUT.BUF_.BOUND;
     1082     2227             %FPT_OPEN      (FPTN=DUMP_OPEN,
     1083     2228                                 DCB=M$LO,
     1084     2229                                 ASN=DEVICE,
     1085     2230                                 RES="'LP'",
     1086     2231                                 FUN=CREATE);
     1087     2340                                                /**/
     1088     2341             %FPT_CLOSE     (FPTN=DUMP_CLOSE,
     1089     2342                                 DCB=M$LO);
     1090     2384                                                /**/
     1091     2385             %FPT_WRITE     (FPTN=DUMP_OUT,
     1092     2386                                 DCB=M$LO,
     1093     2387                                 BUF=DUMPBUF);
     1094     2418                                                /**/
PL6.E3A0      #003=OCM$TPSET File=OCM$MESSAGE.:E05TSI                            WED 07/30/97 04:01 Page:160
     1095     2419                                                /**/
     1096     2420                                                /**/
     1097     2421    2   DUMP_IT: PROC;

   2421  5 000152   200016 741300       DUMP_IT      STX1  ! @SOURCE_BUF+2,,AUTO

     1098     2422    3        DUMP_OUT.BUF_.BOUND = DPOSN - 1;

   2422  5 000153   200010 236100                    LDQ     DPOSN,,AUTO
         5 000154   000001 136007                    SBLQ    1,DL
         5 000155   000020 736000                    QLS     16
         5 000156   000312 676000 2                  ERQ     DUMP_OUT+4
         5 000157   000034 376000 xsym               ANQ     B_VECTNIL+28
         5 000160   000312 656000 2                  ERSQ    DUMP_OUT+4

     1099     2423    3        IF OC_DUMP

   2423  5 000161   000001 234000 4                  SZN     OC_DUMP
         5 000162   000167 605000 5                  TPL     s:2426

     1100     2424    3        THEN
     1101     2425    3             CALL OCW$WRITE (DUMPBUF, DUMP_OUT.BUF_.BOUND, '200000'O /* M_SYS  */,
              2425                      OCP_NON_STA);

   2425  5 000163   000014 630400 6                  EPPR0   12
         5 000164   000022 631400 xsym               EPPR1   B_VECTNIL+18
         5 000165   000000 701000 xent               TSX1    OCW$WRITE
         5 000166   000000 011000                    NOP     0

     1102     2426    3        IF LP_DUMP

   2426  5 000167   000000 234000 4                  SZN     LP_DUMP
         5 000170   000174 605000 5                  TPL     s:2429

     1103     2427    3        THEN
     1104     2428    3             CALL M$WRITE (DUMP_OUT);

PL6.E3A0      #003=OCM$TPSET File=OCM$MESSAGE.:E05TSI                            WED 07/30/97 04:01 Page:161
   2428  5 000171   000306 630400 2                  EPPR0   DUMP_OUT
         5 000172   040001 713400                    CLIMB   write
         5 000173   401400 401760                    pmme    nvectors=4

     1105     2429    3        RETURN;

   2429  5 000174   200016 221300                    LDX1  ! @SOURCE_BUF+2,,AUTO
         5 000175   000001 702211                    TSX2  ! 1,X1

     1106     2430    3   END DUMP_IT;
     1107     2431                                                /**/
     1108     2432                                                /**/
     1109     2433    2   DUMP_LINE:PROC(NCHARS,SOURCE_BUF);

   2433  5 000176   200012 741300       DUMP_LINE    STX1  ! TEMP+1,,AUTO

     1110     2434    3   DCL NCHARS UBIN WORD;
     1111     2435    3   DCL SOURCE_BUF CHAR(1) UNAL;
     1112     2436
     1113     2437    3        CALL INSERT (DUMPBUF,DPOSN,1,' ');

   2437  5 000177   200010 235100                    LDA     DPOSN,,AUTO
         5 000200   040005 100400                    MLR     fill='040'O
         5 000201   000035 000001 xsym               ADSC9   B_VECTNIL+29             cn=0,n=1
         5 000202   000100 000001 2                  ADSC9   DUMPBUF,A                cn=0,n=1

     1114     2438    3        DPOSN = DPOSN + 1;

   2438  5 000203   200010 054100                    AOS     DPOSN,,AUTO

     1115     2439    3        CALL XLATE (SUBSTR(DUMPBUF,DPOSN,NCHARS),

   2439  5 000204   200013 470500                    LDP0    @NCHARS,,AUTO
         5 000205   000000 720100                    LXL0    0,,PR0
         5 000206   000000 722100                    LXL2    0,,PR0
         5 000207   200014 471500                    LDP1    @SOURCE_BUF,,AUTO
         5 000210   000155 235000 2                  LDA     ITPOSN
PL6.E3A0      #003=OCM$TPSET File=OCM$MESSAGE.:E05TSI                            WED 07/30/97 04:01 Page:162
         5 000211   000000 473400 xsym               LDP3    B$XL_ASC_DUMP$
         5 000212   200010 236100                    LDQ     DPOSN,,AUTO
         5 000213   040046 160545                    MVT     fill='040'O
         5 000214   100000 000012                    ADSC9   0,A,PR1                  cn=0,n=*X2
         5 000215   000100 000010 2                  ADSC9   DUMPBUF,Q                cn=0,n=*X0
         5 000216   300000 000100                    ARG     0,,PR3

     1116     2440    3             B$XL_ASC_DUMP,
     1117     2441    3             SUBSTR(SOURCE_BUF,ITPOSN,NCHARS));
     1118     2442    3        DPOSN = DPOSN + NCHARS;

   2442  5 000217   000000 036100                    ADLQ    0,,PR0
         5 000220   200010 756100                    STQ     DPOSN,,AUTO

     1119     2443    3        CALL DUMP_IT;

   2443  5 000221   000152 701000 5                  TSX1    DUMP_IT
         5 000222   000000 011000                    NOP     0

     1120     2444    3        DPOSN = 0;

   2444  5 000223   200010 450100                    STZ     DPOSN,,AUTO

     1121     2445    3        ITPOSN = I * 4;

   2445  5 000224   000012 235000 2                  LDA     I
         5 000225   000002 735000                    ALS     2
         5 000226   000155 755000 2                  STA     ITPOSN

     1122     2446    3        RETURN;

   2446  5 000227   200012 221300                    LDX1  ! TEMP+1,,AUTO
         5 000230   000001 702211                    TSX2  ! 1,X1

     1123     2447    3   END DUMP_LINE;
     1124     2448                                                /**/
     1125     2449                                                /**/
PL6.E3A0      #003=OCM$TPSET File=OCM$MESSAGE.:E05TSI                            WED 07/30/97 04:01 Page:163
     1126     2450    2   CONV_OCT: PROC;

   2450  5 000231   200012 741300       CONV_OCT     STX1  ! TEMP+1,,AUTO

     1127     2451    3        CALL INSERT (DUMPBUF,DPOSN,1,' ');

   2451  5 000232   200010 235100                    LDA     DPOSN,,AUTO
         5 000233   040005 100400                    MLR     fill='040'O
         5 000234   000035 000001 xsym               ADSC9   B_VECTNIL+29             cn=0,n=1
         5 000235   000100 000001 2                  ADSC9   DUMPBUF,A                cn=0,n=1

     1128     2452    3        DPOSN = DPOSN + 12;

   2452  5 000236   000014 236007                    LDQ     12,DL
         5 000237   200010 056100                    ASQ     DPOSN,,AUTO

     1129     2453    4        DO J = 0 TO 11;

   2453  5 000240   000013 450000 2                  STZ     J

     1130     2454    4             CALL INSERT (DUMPBUF, DPOSN-J, 1,

   2454  5 000241   200010 236100                    LDQ     DPOSN,,AUTO
         5 000242   000013 136000 2                  SBLQ    J
         5 000243   200020 756100                    STQ     @SOURCE_BUF+4,,AUTO
         5 000244   200011 236100                    LDQ     TEMP,,AUTO
         5 000245   000011 376000 xsym               ANQ     B_VECTNIL+9
         5 000246   000060 036007                    ADLQ    48,DL
         5 000247   000033 736000                    QLS     27
         5 000250   000020 276000 6                  ORQ     16
         5 000251   200021 756100                    STQ     @SOURCE_BUF+5,,AUTO
         5 000252   200020 235100                    LDA     @SOURCE_BUF+4,,AUTO
         5 000253   040005 100500                    MLR     fill='040'O
         5 000254   200021 000004                    ADSC9   @SOURCE_BUF+5,,AUTO      cn=0,n=4
         5 000255   000100 000001 2                  ADSC9   DUMPBUF,A                cn=0,n=1

     1131     2455    4                  BINASC(BITBIN(TEMP.B & '000000000007'O) + 48));
PL6.E3A0      #003=OCM$TPSET File=OCM$MESSAGE.:E05TSI                            WED 07/30/97 04:01 Page:164
     1132     2456    4             TEMP.U = TEMP.U / 8;

   2456  5 000256   200011 236100                    LDQ     TEMP,,AUTO
         5 000257   000003 772000                    QRL     3
         5 000260   200011 756100                    STQ     TEMP,,AUTO

     1133     2457    4           END;

   2457  5 000261   000013 054000 2                  AOS     J
         5 000262   000013 235000 2                  LDA     J
         5 000263   000013 115007                    CMPA    11,DL
         5 000264   000241 604400 5                  TMOZ    s:2454

     1134     2458    3        DPOSN = DPOSN + 1;

   2458  5 000265   200010 054100                    AOS     DPOSN,,AUTO

     1135     2459    3        RETURN;

   2459  5 000266   200012 221300                    LDX1  ! TEMP+1,,AUTO
         5 000267   000001 702211                    TSX2  ! 1,X1

     1136     2460    3   END CONV_OCT;
     1137     2461                                                /**/
     1138     2462                                                /**/
     1139     2463    2        DUMPBUF = BAD_TEMP_MESS;

   2463  5 000270   040000 100400                    MLR     fill='040'O
         5 000271   000132 000023 2                  ADSC9   BAD_TEMP_MESS            cn=0,n=19
         5 000272   000100 000150 2                  ADSC9   DUMPBUF                  cn=0,n=104

     1140     2464    2        CALL BINCHAR(SUBSTR(DUMPBUF,SIZEC(BAD_TEMP_MESS),4), MKEY.KEY);

   2464  5 000273   000001 236000 2                  LDQ     MKEY
         5 000274   777777 376007                    ANQ     -1,DL
         5 000275   000000 235003                    LDA     0,DU
         5 000276   200020 757100                    STAQ    @SOURCE_BUF+4,,AUTO
PL6.E3A0      #003=OCM$TPSET File=OCM$MESSAGE.:E05TSI                            WED 07/30/97 04:01 Page:165
         5 000277   000000 301500                    BTD
         5 000300   200020 000010                    NDSC9   @SOURCE_BUF+4,,AUTO      cn=0,s=lsgnf,sf=0,n=8
         5 000301   000104 630004 2                  NDSC9   DUMPBUF+4                cn=3,s=nosgn,sf=0,n=4

     1141     2465    2        DPOSN = SIZEC(BAD_TEMP_MESS) + 4;

   2465  5 000302   000027 236007                    LDQ     23,DL
         5 000303   200010 756100                    STQ     DPOSN,,AUTO

     1142     2466    2        IF LP_DUMP

   2466  5 000304   000000 234000 4                  SZN     LP_DUMP
         5 000305   000311 605000 5                  TPL     s:2470

     1143     2467    2        THEN
     1144     2468    2             CALL M$OPEN (DUMP_OPEN);

   2468  5 000306   000156 630400 2                  EPPR0   DUMP_OPEN
         5 000307   050000 713400                    CLIMB   open
         5 000310   410400 401760                    pmme    nvectors=18

     1145     2469                                                /**/
     1146     2470    2        CALL DUMP_IT;

   2470  5 000311   000152 701000 5                  TSX1    DUMP_IT
         5 000312   000000 011000                    NOP     0

     1147     2471                                                /**/
     1148     2472    2        DPOSN = 0;

   2472  5 000313   200010 450100                    STZ     DPOSN,,AUTO

     1149     2473    2        ITPOSN = 0;

   2473  5 000314   000155 450000 2                  STZ     ITPOSN

     1150     2474                                                /**/
PL6.E3A0      #003=OCM$TPSET File=OCM$MESSAGE.:E05TSI                            WED 07/30/97 04:01 Page:166
     1151     2475    2        BOUND = (OCM_TSIZE + 3) / 4;

   2475  5 000315   000000 236000 xsym               LDQ     OCM_TSIZE
         5 000316   000003 036007                    ADLQ    3,DL
         5 000317   000002 772000                    QRL     2
         5 000320   200007 756100                    STQ     BOUND,,AUTO

     1152     2476                                                /**/
     1153     2477    3        DO I = 0 TO BOUND;

   2477  5 000321   000012 450000 2                  STZ     I
         5 000322   000342 710000 5                  TRA     s:2484+1

     1154     2478    3             IF DPOSN > 51

   2478  5 000323   200010 235100                    LDA     DPOSN,,AUTO
         5 000324   000063 115007                    CMPA    51,DL
         5 000325   000334 604400 5                  TMOZ    s:2482

     1155     2479    3             THEN
     1156     2480    3                  CALL DUMP_LINE(16, OCM_TEMPLATE);

   2480  5 000326   000022 236000 6                  LDQ     18
         5 000327   200014 756100                    STQ     @NCHARS+1,,AUTO
         5 000330   000023 236000 6                  LDQ     19
         5 000331   200013 756100                    STQ     TEMP+2,,AUTO
         5 000332   000176 701000 5                  TSX1    DUMP_LINE
         5 000333   000000 011000                    NOP     0

     1157     2481                                                /**/
     1158     2482    3             CALL INSERT (TEMP.C, 0, 4, SUBSTR(OCM_TEMPLATE,I*4,4));

   2482  5 000334   000012 720000 2                  LXL0    I
         5 000335   000000 236010 xsym               LDQ     OCM_TEMPLATE,X0
         5 000336   200011 756100                    STQ     TEMP,,AUTO

     1159     2483    3             CALL CONV_OCT;
PL6.E3A0      #003=OCM$TPSET File=OCM$MESSAGE.:E05TSI                            WED 07/30/97 04:01 Page:167

   2483  5 000337   000231 701000 5                  TSX1    CONV_OCT
         5 000340   000000 011000                    NOP     0

     1160     2484    3           END;                            /* DO I = 0 TO BOUND */

   2484  5 000341   000012 054000 2                  AOS     I
         5 000342   000012 236000 2                  LDQ     I
         5 000343   200007 116100                    CMPQ    BOUND,,AUTO
         5 000344   000323 604400 5                  TMOZ    s:2478

     1161     2485                                                /**/
     1162     2486    2        IF DPOSN ~= 0

   2486  5 000345   200010 235100                    LDA     DPOSN,,AUTO
         5 000346   000363 600000 5                  TZE     s:2490

     1163     2487    2        THEN
     1164     2488    2             CALL DUMP_LINE ( ((I*4) - 1) - ITPOSN, OCM_TEMPLATE);

   2488  5 000347   000002 736000                    QLS     2
         5 000350   000027 676000 xsym               ERQ     B_VECTNIL+23
         5 000351   000001 036007                    ADLQ    1,DL
         5 000352   000155 036000 2                  ADLQ    ITPOSN
         5 000353   000027 676000 xsym               ERQ     B_VECTNIL+23
         5 000354   200022 756100                    STQ     @SOURCE_BUF+6,,AUTO
         5 000355   000022 236000 6                  LDQ     18
         5 000356   200014 756100                    STQ     @NCHARS+1,,AUTO
         5 000357   200022 630500                    EPPR0   @SOURCE_BUF+6,,AUTO
         5 000360   200013 450500                    STP0    TEMP+2,,AUTO
         5 000361   000176 701000 5                  TSX1    DUMP_LINE
         5 000362   000000 011000                    NOP     0

     1165     2489                                                /**/
     1166     2490    2        DUMPBUF = ' ';

   2490  5 000363   040000 100400                    MLR     fill='040'O
PL6.E3A0      #003=OCM$TPSET File=OCM$MESSAGE.:E05TSI                            WED 07/30/97 04:01 Page:168
         5 000364   000035 000001 xsym               ADSC9   B_VECTNIL+29             cn=0,n=1
         5 000365   000100 000150 2                  ADSC9   DUMPBUF                  cn=0,n=104

     1167     2491    2        DPOSN = 1;

   2491  5 000366   000001 235007                    LDA     1,DL
         5 000367   200010 755100                    STA     DPOSN,,AUTO

     1168     2492                                                /**/
     1169     2493    2        CALL DUMP_IT;

   2493  5 000370   000152 701000 5                  TSX1    DUMP_IT
         5 000371   000000 011000                    NOP     0

     1170     2494                                                /**/
     1171     2495    2        DUMPBUF = BAD_MESSG;

   2495  5 000372   040000 100400                    MLR     fill='040'O
         5 000373   000137 000037 2                  ADSC9   BAD_MESSG                cn=0,n=31
         5 000374   000100 000150 2                  ADSC9   DUMPBUF                  cn=0,n=104

     1172     2496                                                /**/
     1173     2497    2        DPOSN = SIZEC(BAD_MESSG);

   2497  5 000375   000037 235007                    LDA     31,DL
         5 000376   200010 755100                    STA     DPOSN,,AUTO

     1174     2498    2        CALL DUMP_IT;

   2498  5 000377   000152 701000 5                  TSX1    DUMP_IT
         5 000400   000000 011000                    NOP     0

     1175     2499                                                /**/
     1176     2500    2        DPOSN = 0;

   2500  5 000401   200010 450100                    STZ     DPOSN,,AUTO

PL6.E3A0      #003=OCM$TPSET File=OCM$MESSAGE.:E05TSI                            WED 07/30/97 04:01 Page:169
     1177     2501    2        ITPOSN = 0;

   2501  5 000402   000155 450000 2                  STZ     ITPOSN

     1178     2502                                                /**/
     1179     2503    3        DO I = 0 TO 29;

   2503  5 000403   000012 450000 2                  STZ     I

     1180     2504    3             IF DPOSN > 51

   2504  5 000404   200010 235100                    LDA     DPOSN,,AUTO
         5 000405   000063 115007                    CMPA    51,DL
         5 000406   000415 604400 5                  TMOZ    s:2507

     1181     2505    3             THEN
     1182     2506    3                  CALL DUMP_LINE (16,OC_MESSBUF2);

   2506  5 000407   000004 236000 6                  LDQ     4
         5 000410   200014 756100                    STQ     @NCHARS+1,,AUTO
         5 000411   000023 236000 6                  LDQ     19
         5 000412   200013 756100                    STQ     TEMP+2,,AUTO
         5 000413   000176 701000 5                  TSX1    DUMP_LINE
         5 000414   000000 011000                    NOP     0

     1183     2507    3             CALL INSERT (TEMP.C, 0 ,4, SUBSTR(OC_MESSBUF2,I*4,4));

   2507  5 000415   000012 720000 2                  LXL0    I
         5 000416   000000 236010 xsym               LDQ     OC_MESSBUF,X0
         5 000417   200011 756100                    STQ     TEMP,,AUTO

     1184     2508    3             CALL CONV_OCT;

   2508  5 000420   000231 701000 5                  TSX1    CONV_OCT
         5 000421   000000 011000                    NOP     0

     1185     2509    3           END;                            /* DO I = 0 TO 29 */
PL6.E3A0      #003=OCM$TPSET File=OCM$MESSAGE.:E05TSI                            WED 07/30/97 04:01 Page:170

   2509  5 000422   000012 054000 2                  AOS     I
         5 000423   000012 235000 2                  LDA     I
         5 000424   000035 115007                    CMPA    29,DL
         5 000425   000404 604400 5                  TMOZ    s:2504

     1186     2510    2        IF DPOSN ~= 0

   2510  5 000426   200010 236100                    LDQ     DPOSN,,AUTO
         5 000427   000443 600000 5                  TZE     s:2513

     1187     2511    2        THEN
     1188     2512    2             CALL DUMP_LINE((((I*4) -1) -ITPOSN), OC_MESSBUF2);

   2512  5 000430   000012 336000 2                  LCQ     I
         5 000431   000002 736000                    QLS     2
         5 000432   000155 036000 2                  ADLQ    ITPOSN
         5 000433   000027 676000 xsym               ERQ     B_VECTNIL+23
         5 000434   200023 756100                    STQ     @SOURCE_BUF+7,,AUTO
         5 000435   000004 236000 6                  LDQ     4
         5 000436   200014 756100                    STQ     @NCHARS+1,,AUTO
         5 000437   200023 630500                    EPPR0   @SOURCE_BUF+7,,AUTO
         5 000440   200013 450500                    STP0    TEMP+2,,AUTO
         5 000441   000176 701000 5                  TSX1    DUMP_LINE
         5 000442   000000 011000                    NOP     0

     1189     2513    2        CALL BINCHAR(SUBSTR(DUMPBUF,0,4),OCM_TPOSN);

   2513  5 000443   000000 301400                    BTD
         5 000444   000000 000004 xsym               NDSC9   OCM_TPOSN                cn=0,s=lsgnf,sf=0,n=4
         5 000445   000100 030004 2                  NDSC9   DUMPBUF                  cn=0,s=nosgn,sf=0,n=4

     1190     2514    2        CALL INSERT (DUMPBUF,4,1,'/');

   2514  5 000446   057000 236003                    LDQ     24064,DU
         5 000447   000101 552040 2                  STBQ    DUMPBUF+1,'40'O

PL6.E3A0      #003=OCM$TPSET File=OCM$MESSAGE.:E05TSI                            WED 07/30/97 04:01 Page:171
     1191     2515    2        CALL BINCHAR(SUBSTR(DUMPBUF,5,4),OCM_BPOSN);

   2515  5 000450   000000 301400                    BTD
         5 000451   000000 000004 xsym               NDSC9   OCM_BPOSN                cn=0,s=lsgnf,sf=0,n=4
         5 000452   000101 230004 2                  NDSC9   DUMPBUF+1                cn=1,s=nosgn,sf=0,n=4

     1192     2516    2        CALL INSERT (DUMPBUF,9,1,' ');

   2516  5 000453   000040 236003                    LDQ     32,DU
         5 000454   000102 552020 2                  STBQ    DUMPBUF+2,'20'O

     1193     2517    2        CALL INSERT (DUMPBUF,10,SIZEC(OCM_TPOSN_TEXT),OCM_TPOSN_TEXT);

   2517  5 000455   040000 100400                    MLR     fill='040'O
         5 000456   000147 000011 2                  ADSC9   OCM_TPOSN_TEXT           cn=0,n=9
         5 000457   000102 400011 2                  ADSC9   DUMPBUF+2                cn=2,n=9

     1194     2518    2        CALL INSERT (DUMPBUF,10+SIZEC(OCM_TPOSN_TEXT),1,'/');

   2518  5 000460   000057 236007                    LDQ     47,DL
         5 000461   000104 552004 2                  STBQ    DUMPBUF+4,'04'O

     1195     2519    2        CALL INSERT (DUMPBUF,11+SIZEC(OCM_TPOSN_TEXT),

   2519  5 000462   040000 100400                    MLR     fill='040'O
         5 000463   000152 000011 2                  ADSC9   OCM_BPOSN_TEXT           cn=0,n=9
         5 000464   000105 000011 2                  ADSC9   DUMPBUF+5                cn=0,n=9

     1196     2520    2             SIZEC(OCM_BPOSN_TEXT), OCM_BPOSN_TEXT);
     1197     2521    2        DPOSN = 11 + SIZEC(OCM_BPOSN_TEXT) + SIZEC(OCM_TPOSN_TEXT);

   2521  5 000465   000035 235007                    LDA     29,DL
         5 000466   200010 755100                    STA     DPOSN,,AUTO

     1198     2522    2        CALL DUMP_IT;

   2522  5 000467   000152 701000 5                  TSX1    DUMP_IT
PL6.E3A0      #003=OCM$TPSET File=OCM$MESSAGE.:E05TSI                            WED 07/30/97 04:01 Page:172
         5 000470   000000 011000                    NOP     0

     1199     2523    2        IF LP_DUMP

   2523  5 000471   000000 234000 4                  SZN     LP_DUMP
         5 000472   000476 605000 5                  TPL     s:2526

     1200     2524    2        THEN
     1201     2525    2             CALL M$CLOSE (DUMP_CLOSE);

   2525  5 000473   000250 630400 2                  EPPR0   DUMP_CLOSE
         5 000474   050001 713400                    CLIMB   close
         5 000475   406000 401760                    pmme    nvectors=13

     1202     2526    2        RETURN;

   2526  5 000476   200006 221300                    LDX1  ! @MESSAGE_BUFFER+2,,AUTO
         5 000477   000001 702211                    TSX2  ! 1,X1
     1203     2527    2   END DUMP;
     1204     2528                                                /**/
     1205     2529        %EJECT;
PL6.E3A0      #003=OCM$TPSET File=OCM$MESSAGE.:E05TSI                            WED 07/30/97 04:01 Page:173
     1206     2530    1   END;

PL6.E3A0      #003=OCM$TPSET File=OCM$MESSAGE.:E05TSI                            WED 07/30/97 04:01 Page:174
--  Include file information  --

   OC$MESSHD_C.:E05TOU  is referenced.
   OC_DAT_R.:E05TOU  cannot be made into a system file and is referenced.
   CP_6.:E05TOU  cannot be made into a system file and is referenced.
   CP_6_SUBS.:E05TOU  is referenced.
   OCM_DATA_R.:E05TOU  cannot be made into a system file and is referenced.
   OUT_SUBS_C.:E05TOU  is referenced.
   OCM_SUBS_C.:E05TOU  is referenced.
   OC_SUBS_C.:E05TOU  is referenced.
   OCP_DATA_R.:E05TOU  cannot be made into a system file and is referenced.
   OCI_SUBS_C.:E05TOU  is referenced.
   OC$PEND.:E05TOU  cannot be made into a system file and is referenced.
   F$DCB.:E05TOU  cannot be made into a system file and is referenced.
   B$TABLES_C.:E05TOU  cannot be made into a system file and is referenced.
   B$JIT_C.:E05TOU  was found in the system file and is never referenced.
   CP_6_C.:E05TOU  was found in the system file and is referenced.
      No diagnostics issued in procedure OCM$TPSET.
PL6.E3A0      #003=OCM$TPSET File=OCM$MESSAGE.:E05TSI                            WED 07/30/97 04:01 Page:175

 **** Variables and constants ****

  ****  Section 002  Data  OCM$TPSET

  ****  Scalars and arrays  ****
OctLoc.c.b A Datatyp(siz) R M Lvl/name                 OctLoc.c.b A Datatyp(siz) R M Lvl/name

   137-0-0/c CHAR(31)    r     1 BAD_MESSG                132-0-0/c CHAR(19)    r     1 BAD_TEMP_MESS
   100-0-0/c CHAR(104)   r     1 DUMPBUF                  250-0-0/d STRC(1080)  r     1 DUMP_CLOSE
   156-0-0/d STRC(2088)  r     1 DUMP_OPEN                306-0-0/d STRC(432)   r     1 DUMP_OUT
     0-0-0/b STRC        r     1 ERRCODE                   46-0-0/d STRC(936)   r     1 FPT_ERRMSG
    12-0-0/w SBIN        r     1 I                        155-0-0/w UBIN        r     1 ITPOSN
    13-0-0/w SBIN        r     1 J                          1-0-0/w STRC        r     1 MKEY
     2-0-0/c CHAR(32)    r     1 NOGO                     152-0-0/c CHAR(9)     r     1 OCM_BPOSN_TEXT
   147-0-0/c CHAR(9)     r     1 OCM_TPOSN_TEXT            30-0-0/d STRC(504)   r     1 TEMP_READ

  ****  Section 004 RoData OCM$TPSET

  ****  Scalars and arrays  ****
OctLoc.c.b A Datatyp(siz) R M Lvl/name                 OctLoc.c.b A Datatyp(siz) R M Lvl/name

     0-0-0/w BIT         r     1 LP_DUMP                    1-0-0/w BIT         r     1 OC_DUMP

  ****  Auto variables  ****

  ****  Scalars and arrays  ****
OctLoc.c.b A Datatyp(siz) R M Lvl/name                 OctLoc.c.b A Datatyp(siz) R M Lvl/name

     3-0-0/w PTR         r     1 @LANGUAGE                  4-0-0/w PTR         r     1 @MESSAGE_BUFFER
    13-0-0/w PTR         r     1 @NCHARS                   14-0-0/w PTR         r     1 @SOURCE_BUF
     7-0-0/w SBIN        r     1 BOUND                     10-0-0/w SBIN        r     1 DPOSN
    *0-0-0/c CHAR        r     1 LANGUAGE                  *0-0-0/c CHAR(140)   r     1 MESSAGE_BUFFER
    *0-0-0/w UBIN        r     1 NCHARS                    *0-0-0/c CHAR        r     1 SOURCE_BUF
    11-0-0/w STRC        r     1 TEMP

  ****  SYMREF variables  ****

PL6.E3A0      #003=OCM$TPSET File=OCM$MESSAGE.:E05TSI                            WED 07/30/97 04:01 Page:176
  ****  Scalars and arrays  ****
OctLoc.c.b A Datatyp(siz) R M Lvl/name                 OctLoc.c.b A Datatyp(siz) R M Lvl/name

     0-0-0/w PTR         r     1 B$TCB$                     0-0-0/w PTR         r     1 B$XL_ASC_DUMP$
     0-0-0/w SBIN        r     1 OCM_BPOSN                  0-0-0/c CHAR(256)   r     1 OCM_BUFFER
     0-0-0/d REMB        r     1 OCM_ERRTRN                 0-0-0/w PTR         r     1 OCM_PARAM$
     0-0-0/c CHAR(4096)  r     1 OCM_TEMPLATE               0-0-0/w SBIN        r     1 OCM_TPOSN
     0-0-0/w UBIN        r     1 OCM_TSIZE                  0-0-0/c CHAR(8)     r     1 OCP_NON_STA
     0-0-0/w PTR         r     1 OC_CONSOLE$                0-0-0/c STRC(1800)  r     1 OC_MESSBUF
     0-0-0/c CHAR(200)   r     1 OC_MESSBUF2                0-0-0/w BIT         r     1 OC_MSG_GOOD

  ****  BASED and DCB variables  ****

  ****  Scalars and arrays  ****
OctLoc.c.b A Datatyp(siz) R M Lvl/name                 OctLoc.c.b A Datatyp(siz) R M Lvl/name

     0-0-0/w STRC(2448)  r     1 B$ALT                      0-0-0/w STRC(144)   r     1 B$TCB
     0-0-0/d STRC(4608)  r     1 B$XL_ASC_DUMP              0-0-0/d ASTR(3528)  r     1 F$DCB
     0-0-0N  NULL        r     1 F$TEMPLATE                 0-0-0N  NULL        r     1 M$LO
     0-0-0/w ASTR(360)   r     1 OC$PEND


   Procedure OCM$TPSET requires 320 words for executable code.
   Procedure OCM$TPSET requires 20 words of local(AUTO) storage.

    No errors detected in file OCM$MESSAGE.:E05TSI    .
PL6.E3A0      #003=OCM$TPSET File=OCM$MESSAGE.:E05TSI                            WED 07/30/97 04:01 Page:177
          *** CROSS REFERENCE LISTING ***
**     DENOTES     IDENTIFIER DEFINITION
<<                 IDENTIFIER'S VALUE SET
>>                 IDENTIFIER'S VALUE USED
<>                 IDENTIFIER SET AND/OR USED
--                 IDENTIFIER REFERENCED
PL6.E3A0      #003=OCM$TPSET File=OCM$MESSAGE.:E05TSI                            WED 07/30/97 04:01 Page:178
          MINI XREF LISTING

B$ALT.CODE
      2064**DCL      2064--REDEF    2065--REDEF    2065--REDEF
B$ALT.ERR
      2065**DCL      2198>>ASSIGN
B$ALT.ERR.ERR#
      2066**DCL      2066--REDEF
B$ALT.EVID
      2065**DCL      2065--REDEF    2065--REDEF
B$TCB.ALT$
      2060**DCL      2198>>ASSIGN
B$TCB$
        53**DCL      2198>>ASSIGN
B$XL_ASC_DUMP
       164**DCL      2188>>CALLBLT  2439>>CALLBLT
B$XL_ASC_DUMP$
       163**DCL       164--IMP-PTR  2188>>CALLBLT  2439>>CALLBLT
BAD_MESSG IN PROCEDURE DUMP
      2217**DCL      2495>>ASSIGN   2497--ASSIGN
BAD_READ
      2186**LABEL    2175--CALLALT
BAD_TEMPLATE
      2186**LABEL    2154--REMEMBR  2185--GOTO
BAD_TEMP_MESS IN PROCEDURE DUMP
      2215**DCL      2463>>ASSIGN   2464--CALLBLT  2465--ASSIGN
BOUND IN PROCEDURE DUMP
      2208**DCL      2475<<ASSIGN   2477>>DOINDEX
CONV_OCT IN PROCEDURE DUMP
      2450**PROC     2483--CALL     2508--CALL
DPOSN IN PROCEDURE DUMP
      2209**DCL      2422>>ASSIGN   2437>>CALLBLT  2438<<ASSIGN   2438>>ASSIGN   2439>>CALLBLT  2442<<ASSIGN
      2442>>ASSIGN   2444<<ASSIGN   2451>>CALLBLT  2452<<ASSIGN   2452>>ASSIGN   2454>>CALLBLT  2458<<ASSIGN
      2458>>ASSIGN   2465<<ASSIGN   2472<<ASSIGN   2478>>IF       2486>>IF       2491<<ASSIGN   2497<<ASSIGN
PL6.E3A0      #003=OCM$TPSET File=OCM$MESSAGE.:E05TSI                            WED 07/30/97 04:01 Page:179
      2500<<ASSIGN   2504>>IF       2510>>IF       2521<<ASSIGN
DUMP
      2207**PROC     2191--CALL
DUMPBUF IN PROCEDURE DUMP
      2214**DCL      2405--DCLINIT  2406--DCLINIT  2425<>CALL     2437<<CALLBLT  2439<<CALLBLT  2451<<CALLBLT
      2454<<CALLBLT  2463<<ASSIGN   2464<<CALLBLT  2490<<ASSIGN   2495<<ASSIGN   2513<<CALLBLT  2514<<CALLBLT
      2515<<CALLBLT  2516<<CALLBLT  2517<<CALLBLT  2518<<CALLBLT  2519<<CALLBLT
DUMP_CLOSE IN PROCEDURE DUMP
      2365**DCL      2525<>CALL
DUMP_CLOSE.SN_ IN PROCEDURE DUMP
      2365**DCL      2365--REDEF
DUMP_CLOSE.UTL_ IN PROCEDURE DUMP
      2366**DCL      2366--REDEF
DUMP_CLOSE.V IN PROCEDURE DUMP
      2370**DCL      2365--DCLINIT
DUMP_CLOSE.V.EXPIRE# IN PROCEDURE DUMP
      2380**DCL      2380--REDEF
DUMP_CLOSE.V.TYPE# IN PROCEDURE DUMP
      2378**DCL      2378--REDEF
DUMP_CLOSE.V.XTNSIZE# IN PROCEDURE DUMP
      2375**DCL      2375--REDEF    2377--REDEF
DUMP_IT IN PROCEDURE DUMP
      2421**PROC     2443--CALL     2470--CALL     2493--CALL     2498--CALL     2522--CALL
DUMP_LINE IN PROCEDURE DUMP
      2433**PROC     2480--CALL     2488--CALL     2506--CALL     2512--CALL
DUMP_OPEN IN PROCEDURE DUMP
      2296**DCL      2468<>CALL
DUMP_OPEN.ACSVEH_ IN PROCEDURE DUMP
      2298**DCL      2299--REDEF
DUMP_OPEN.ALTKEYS_ IN PROCEDURE DUMP
      2304**DCL      2305--REDEF    2305--REDEF
DUMP_OPEN.HDR_ IN PROCEDURE DUMP
      2303**DCL      2304--REDEF
DUMP_OPEN.TAB_ IN PROCEDURE DUMP
      2302**DCL      2303--REDEF
DUMP_OPEN.UHL_ IN PROCEDURE DUMP
PL6.E3A0      #003=OCM$TPSET File=OCM$MESSAGE.:E05TSI                            WED 07/30/97 04:01 Page:180
      2296**DCL      2297--REDEF    2297--REDEF
DUMP_OPEN.V IN PROCEDURE DUMP
      2305**DCL      2296--DCLINIT
DUMP_OPEN.V.FSN# IN PROCEDURE DUMP
      2336**DCL      2336--REDEF    2336--REDEF
DUMP_OPEN.WSN_ IN PROCEDURE DUMP
      2302**DCL      2302--REDEF
DUMP_OUT IN PROCEDURE DUMP
      2404**DCL      2428<>CALL
DUMP_OUT.BUF_.BOUND IN PROCEDURE DUMP
      2404**DCL      2422<<ASSIGN   2425<>CALL
DUMP_OUT.STATION_ IN PROCEDURE DUMP
      2406**DCL      2406--REDEF
DUMP_OUT.V IN PROCEDURE DUMP
      2407**DCL      2404--DCLINIT
DUMP_OUT.V.DVBYTE.VFC# IN PROCEDURE DUMP
      2413**DCL      2413--REDEF
ERRCODE.B
        35**DCL        36--REDEF    2198<<ASSIGN
ERRCODE.U
        36**DCL      2132--DCLINIT
F$DCB.ACTPOS
       192**DCL       192--REDEF
F$DCB.ARS
       167**DCL       167--REDEF    2177>>ASSIGN
F$DCB.ATTR
       185**DCL       186--REDEF
F$DCB.BORROW
       200**DCL       200--REDEF     200--REDEF     200--REDEF
F$DCB.DCBNAME.L
       214**DCL       214--IMP-SIZ
F$DCB.EOMCHAR
       171**DCL       171--REDEF
F$DCB.FLDID
       195**DCL       195--REDEF
F$DCB.FORM$
PL6.E3A0      #003=OCM$TPSET File=OCM$MESSAGE.:E05TSI                            WED 07/30/97 04:01 Page:181
       189**DCL       189--REDEF
F$DCB.FSECT
       205**DCL       205--REDEF
F$DCB.FSN
       182**DCL       182--REDEF     182--REDEF     183--REDEF
F$DCB.HEADER$
       188**DCL       188--REDEF
F$DCB.IXTNSIZE
       186**DCL       186--REDEF
F$DCB.LASTSTA$
       176**DCL       176--REDEF
F$DCB.LVL
       201**DCL       201--REDEF
F$DCB.NAME.C
       176**DCL       176--REDEF
F$DCB.NOEOF
       197**DCL       197--REDEF
F$DCB.NRECS
       187**DCL       187--REDEF
F$DCB.NRECX
       206**DCL       206--REDEF
F$DCB.OHDR
       198**DCL       198--REDEF
F$DCB.ORG
       181**DCL       181--REDEF
F$DCB.PRECNO
       204**DCL       204--REDEF
F$DCB.RCSZ
       209**DCL       209--REDEF
F$DCB.RES
       177**DCL       177--REDEF
F$DCB.SETX
       189**DCL       189--REDEF
F$DCB.TAB$
       188**DCL       189--REDEF
F$DCB.TDA
PL6.E3A0      #003=OCM$TPSET File=OCM$MESSAGE.:E05TSI                            WED 07/30/97 04:01 Page:182
       203**DCL       203--REDEF
F$DCB.WSN
       178**DCL       178--REDEF
F$TEMPLATE
        22**DCL      2177--ASSIGN
FOUND_TEMP
      2167**LABEL    2173--GOTO
FPT_ERRMSG
      2132**DCL      2199<>CALL
FPT_ERRMSG.V
      2136**DCL      2132--DCLINIT
GOT_TEMPLATE
      2177**LABEL    2160--GOTO
I
        48**DCL      2445>>ASSIGN   2477<<DOINDEX  2482>>CALLBLT  2488>>CALL     2503<<DOINDEX  2507>>CALLBLT
      2512>>CALL
ITPOSN IN PROCEDURE DUMP
      2225**DCL      2439>>CALLBLT  2445<<ASSIGN   2473<<ASSIGN   2488>>CALL     2501<<ASSIGN   2512>>CALL
J
        49**DCL      2453<<DOINDEX  2454>>CALLBLT
LANGUAGE
        30**DCL        20--PROC     2158>>IF       2165>>ASSIGN
LP_DUMP IN PROCEDURE DUMP
      2223**DCL      2426>>IF       2466>>IF       2523>>IF
M$CLOSE
      1825**DCL-ENT  2525--CALL
M$ERRMSG
      1888**DCL-ENT  2199--CALL
M$OPEN
      1825**DCL-ENT  2468--CALL
M$READ
      1826**DCL-ENT  2172--CALL     2175--CALL
M$WRITE
      1826**DCL-ENT  2428--CALL
MESSAGE_BUFFER
        31**DCL        20--PROC     2151>>ASSIGN
PL6.E3A0      #003=OCM$TPSET File=OCM$MESSAGE.:E05TSI                            WED 07/30/97 04:01 Page:183
MKEY
        37**DCL      2094--DCLINIT  2095--DCLINIT
MKEY.KEY
        40**DCL      2158>>IF       2164<<ASSIGN   2197<<ASSIGN   2464>>CALLBLT
MKEY.LANG_BYTE
        39**DCL      2158>>IF       2165<<ASSIGN   2174<<ASSIGN
NCHARS IN PROCEDURE DUMP_LINE
      2434**DCL      2433--PROC     2439>>CALLBLT  2439>>CALLBLT  2442>>ASSIGN
NEXT
      2198**LABEL    2169--GOTO     2199--CALLALT
NOGO
        41**DCL      2201<<CALLBLT  2202<>CALL     2202--CALL
OC$PEND.SIZEB_MSG
       226**DCL       237--IMP-SIZ
OC$PEND.WSN
       232**DCL       233--REDEF
OC$PEND_NOMSG.WSN
       270**DCL       271--REDEF
OCM$TEMPLATE
        26**DCL-ENT  2183--CALL
OCM_BPOSN
      1272**DCL      2156<<ASSIGN   2192<>CALL     2515>>CALLBLT
OCM_BPOSN_TEXT IN PROCEDURE DUMP
      2221**DCL      2519--CALLBLT  2519>>CALLBLT  2521--ASSIGN
OCM_BUFFER
      1273**DCL      2133--DCLINIT  2188<<CALLBLT  2188>>CALLBLT  2192<>CALL
OCM_ERRTRN
      1272**DCL      2154<<REMEMBR
OCM_PARAM$
      1273**DCL      2152<<ASSIGN
OCM_TEMPLATE
      1273**DCL      2096--DCLINIT  2097--DCLINIT  2163<<CALLBLT  2181>>IF       2480<>CALL     2482>>CALLBLT
      2488<>CALL
OCM_TPOSN
      1272**DCL      2155<<ASSIGN   2513>>CALLBLT
OCM_TPOSN_TEXT IN PROCEDURE DUMP
PL6.E3A0      #003=OCM$TPSET File=OCM$MESSAGE.:E05TSI                            WED 07/30/97 04:01 Page:184
      2219**DCL      2517--CALLBLT  2517>>CALLBLT  2518--CALLBLT  2519--CALLBLT  2521--ASSIGN
OCM_TSIZE
      1272**DCL      2177<<ASSIGN   2475>>ASSIGN
OCP_FREE_HEAD
       384**DCL       385--REDEF
OCP_MSGBUF_FREE.B
       388**DCL       388--REDEF
OCP_NON_STA
       390**DCL      2202<>CALL     2425<>CALL
OCP_USED_HEAD
       385**DCL       386--REDEF
OCP_USED_TAIL
       386**DCL       386--REDEF
OCW$WRITE
        27**DCL-ENT  2192--CALL     2202--CALL     2425--CALL
OC_CONSOLE.ATTR
      2011**DCL      2011--REDEF
OC_CONSOLE.ATTRO
      2012**DCL      2012--REDEF
OC_CONSOLE.CID
      2010**DCL      2011--REDEF
OC_CONSOLE.STATION
      2009**DCL      2009--REDEF
OC_CONSOLE$
      2008**DCL      2009--IMP-PTR
OC_DIR
      2051**DCL      2051--REDEF
OC_DUMP IN PROCEDURE DUMP
      2224**DCL      2423>>IF
OC_INTBIT
      2051**DCL      2052--REDEF
OC_INTMSG
      1928**DCL      1941--REDEF
OC_INTMSG.FLAGS
      1935**DCL      1936--REDEF
OC_INTMSG.MESS
PL6.E3A0      #003=OCM$TPSET File=OCM$MESSAGE.:E05TSI                            WED 07/30/97 04:01 Page:185
      1941**DCL      1941--REDEF
OC_INTMSG.MSGID
      1931**DCL      1932--REDEF
OC_INTMSG.WSN
      1938**DCL      1939--REDEF
OC_MASK
      2052**DCL      2052--REDEF
OC_MESSBUF
      1943**DCL      1958--REDEF    1972--REDEF    2152--ASSIGN
OC_MESSBUF.CADDR
      1944**DCL      2192<>CALL
OC_MESSBUF.FLAGS
      1950**DCL      1951--REDEF
OC_MESSBUF.MESS
      1956**DCL      1956--REDEF
OC_MESSBUF.MSG#
      1945**DCL      2158>>IF       2164>>ASSIGN   2186>>IF       2186>>IF       2201>>CALLBLT
OC_MESSBUF.MSGID
      1946**DCL      1947--REDEF
OC_MESSBUF.NPARAMS
      1948**DCL      2152>>ASSIGN
OC_MESSBUF.WSN
      1953**DCL      1954--REDEF    2192<>CALL
OC_MESSBUF1.FLAGS
      1965**DCL      1966--REDEF
OC_MESSBUF1.LEN
      1971**DCL      1971--REDEF
OC_MESSBUF1.MSGID
      1961**DCL      1962--REDEF
OC_MESSBUF1.WSN
      1968**DCL      1969--REDEF
OC_MESSBUF2
      1972**DCL      2151<<ASSIGN   2506<>CALL     2507>>CALLBLT  2512<>CALL
OC_MSGBUFFER
      1974**DCL      1989--REDEF
OC_MSGBUFFER.FLAGS
PL6.E3A0      #003=OCM$TPSET File=OCM$MESSAGE.:E05TSI                            WED 07/30/97 04:01 Page:186
      1981**DCL      1982--REDEF
OC_MSGBUFFER.MESS
      1987**DCL      1987--REDEF
OC_MSGBUFFER.MSGID
      1977**DCL      1978--REDEF
OC_MSGBUFFER.WSN
      1984**DCL      1985--REDEF
OC_MSGBUFFER2.FLAGS
      1996**DCL      1997--REDEF
OC_MSGBUFFER2.MSGID
      1992**DCL      1993--REDEF
OC_MSGBUFFER2.WSN
      1999**DCL      2000--REDEF
OC_MSG_GOOD
      2052**DCL      2167>>IF
OC_PARAM
      2007**DCL      2007--REDEF
OC_QUEUE.PARMC
      2006**DCL      2006--REDEF
SOURCE_BUF IN PROCEDURE DUMP_LINE
      2435**DCL      2433--PROC     2439>>CALLBLT
TEMP.B IN PROCEDURE DUMP
      2212**DCL      2454>>CALLBLT
TEMP.C IN PROCEDURE DUMP
      2211**DCL      2212--REDEF    2213--REDEF    2482<<CALLBLT  2507<<CALLBLT
TEMP.U IN PROCEDURE DUMP
      2213**DCL      2456<<ASSIGN   2456>>ASSIGN
TEMP_READ
      2094**DCL      2172<>CALL     2175<>CALL
TEMP_READ.STATION_
      2097**DCL      2098--REDEF
TEMP_READ.V
      2098**DCL      2094--DCLINIT
TEMP_READ.V.DVBYTE.REREAD#
      2109**DCL      2109--REDEF
TEMP_READ.V.INDX#
PL6.E3A0      #003=OCM$TPSET File=OCM$MESSAGE.:E05TSI                            WED 07/30/97 04:01 Page:187
      2107**DCL      2107--REDEF
TRYAGAIN
      2174**LABEL    2172--CALLALT
