VERSION E05

PL6.E3A0      #001=OCM_DATA_D File=OCM_DATA_D.:E05TSI                            WED 07/30/97 04:00 Page:1
        1        1        /*M* OCM_DATA_D  SYMDEFs used by message-formatting routines */
        2        2        /*T***********************************************************/
        3        3        /*T*                                                         */
        4        4        /*T* Copyright (c) Bull HN Information Systems Inc., 1997    */
        5        5        /*T*                                                         */
        6        6        /*T***********************************************************/
        7        7        /*X* DMR,PLM=5,IND=5,CTI=5,SDI=5,MCL=10,CSI=0,ECI=0 */
        8        8        %SET LISTSUB='1'B;
        9        9        OCM_DATA_D: PROC NOAUTO;
       10       10    1   DCL OCM_BPOSN SBIN WORD STATIC SYMDEF;
       11       11    1   DCL OCM_TPOSN SBIN WORD STATIC SYMDEF;
       12       12    1   DCL OCM_TSIZE UBIN WORD STATIC SYMDEF;
       13       13    1   DCL OCM_PARAM# SBIN WORD STATIC SYMDEF;
       14       14    1   DCL OCM_ERRTRN REMEMBER STATIC SYMDEF;
       15       15    1   DCL OCM_PARAM$ PTR STATIC SYMDEF;
       16       16    1   DCL OCM_BUFFER CHAR(256) STATIC SYMDEF;
       17       17    1   DCL OCM_PARAM CHAR(256) STATIC SYMDEF;
       18       18    1   DCL OCM_TEMPLATE CHAR(4096) STATIC SYMDEF;
       19       19    1   DCL 1 OCM_PROMPT STATIC SYMDEF,
       20       20    1            2 SIZE UBIN BYTE CALIGNED,
       21       21    1            2 TEXT CHAR(31) CALIGNED;
       22       22    1   DCL OCM_TSTAMP UBIN WORD STATIC SYMDEF;
       23       23    1   DCL OCM_WSN CHAR(8) STATIC SYMDEF;
       24       24    1   DCL OCM_KEY_FLAG BIT(1) STATIC SYMDEF INIT('1'B); /* 0=USE INFO IN TABLES */
       25       25        /* !! */                                /* Munger command */
       26       26        %INCLUDE OUT_SUBS_C;
       27      149        /* !R! */
       28      150    1   DCL 1 OCM_CLASSES(0:9 /* MAX_FOR_CLA# */) STATIC SYMDEF,
       29      151    1            2 COUNT_ UBIN BYTE UNAL INIT (
       30      152    1              0,
       31      153    1              0,
       32      154    1              4,
       33      155    1              4,
       34      156    1              4,
       35      157    1              4,
       36      158    1              4,
       37      159    1              4,
PL6.E3A0      #001=OCM_DATA_D File=OCM_DATA_D.:E05TSI                            WED 07/30/97 04:00 Page:2
       38      160    1              4,
       39      161    1              0),
       40      162    1            2 TEXT_ CHAR(60) UNAL INIT
       41      163    1              (' ',
       42      164    1              ' ',
       43      165    1              '  ->',
       44      166    1              '--->',
       45      167    1              '****',
       46      168    1              '    ',
       47      169    1              '  >>',
       48      170    1              '  **',
       49      171    1              '  !!',
       50      172    1              ' ');
       51      173    1   END OCM_DATA_D;

PL6.E3A0      #001=OCM_DATA_D File=OCM_DATA_D.:E05TSI                            WED 07/30/97 04:00 Page:3
--  Include file information  --

   OUT_SUBS_C.:E05TOU  is referenced.
      No diagnostics issued in procedure OCM_DATA_D.

   No code generated for procedure OCM_DATA_D .
   Procedure OCM_DATA_D is declared NOAUTO and requires 1326 words of local(STATIC) storage.

    No errors detected in file OCM_DATA_D.:E05TSI    .

PL6.E3A0      #001=OCM_DATA_D File=OCM_DATA_D.:E05TSI                            WED 07/30/97 04:00 Page:4

 Object Unit name= OCM_DATA_D                                 File name= OCM_DATA_D.:E05TOU
 UTS= JUL 30 '97 04:00:13.80 WED                              Compiler= PL-6/E31         Sev=      00
 SharedLib= :SHARED_SYSTEM                                    Alt SharedLib=


    ****  Control sections  ****

 Sect   Type Bound  Init  Size OctSiz  Section name(segment info)
    0   Data  even  none  1326   2456  OCM_DATA_D
    1   Proc  even  none     0      0  OCM_DATA_D

    ****  Entry defs  ****

                              Check   Calling
                             calling  sequence
  Sect OctLoc Primary Altret sequence   type   Parms  Name
     1      0   yes            yes     ~proc       0  OCM_DATA_D

  ****  Data defs  ****

 Sect OctLoc  Name                           Sect OctLoc  Name
    0      1  OCM_BPOSN                          0      2  OCM_TPOSN
    0      3  OCM_TSIZE                          0      4  OCM_PARAM#
    0      6  OCM_ERRTRN                         0     10  OCM_PARAM$
    0     11  OCM_BUFFER                         0    111  OCM_PARAM
    0    211  OCM_TEMPLATE                       0   2211  OCM_PROMPT
    0   2221  OCM_TSTAMP                         0   2222  OCM_WSN
    0   2224  OCM_KEY_FLAG                       0   2225  OCM_CLASSES
PL6.E3A0      #001=OCM_DATA_D File=OCM_DATA_D.:E05TSI                            WED 07/30/97 04:00 Page:5

        1        1        /*M* OCM_DATA_D  SYMDEFs used by message-formatting routines */
        2        2        /*T***********************************************************/
        3        3        /*T*                                                         */
        4        4        /*T* Copyright (c) Bull HN Information Systems Inc., 1997    */
        5        5        /*T*                                                         */
        6        6        /*T***********************************************************/
        7        7        /*X* DMR,PLM=5,IND=5,CTI=5,SDI=5,MCL=10,CSI=0,ECI=0 */
        8        8        %SET LISTSUB='1'B;
        9        9        OCM_DATA_D: PROC NOAUTO;
       10       10    1   DCL OCM_BPOSN SBIN WORD STATIC SYMDEF;
       11       11    1   DCL OCM_TPOSN SBIN WORD STATIC SYMDEF;
       12       12    1   DCL OCM_TSIZE UBIN WORD STATIC SYMDEF;
       13       13    1   DCL OCM_PARAM# SBIN WORD STATIC SYMDEF;
       14       14    1   DCL OCM_ERRTRN REMEMBER STATIC SYMDEF;
       15       15    1   DCL OCM_PARAM$ PTR STATIC SYMDEF;
       16       16    1   DCL OCM_BUFFER CHAR(256) STATIC SYMDEF;
       17       17    1   DCL OCM_PARAM CHAR(256) STATIC SYMDEF;
       18       18    1   DCL OCM_TEMPLATE CHAR(4096) STATIC SYMDEF;
       19       19    1   DCL 1 OCM_PROMPT STATIC SYMDEF,
       20       20    1            2 SIZE UBIN BYTE CALIGNED,
       21       21    1            2 TEXT CHAR(31) CALIGNED;
       22       22    1   DCL OCM_TSTAMP UBIN WORD STATIC SYMDEF;
       23       23    1   DCL OCM_WSN CHAR(8) STATIC SYMDEF;
       24       24    1   DCL OCM_KEY_FLAG BIT(1) STATIC SYMDEF INIT('1'B); /* 0=USE INFO IN TABLES */
       25       25        /* !! */                                /* Munger command */
       26       26        %INCLUDE OUT_SUBS_C;
       27      149        /* !R! */
       28      150    1   DCL 1 OCM_CLASSES(0:9 /* MAX_FOR_CLA# */) STATIC SYMDEF,
       29      151    1            2 COUNT_ UBIN BYTE UNAL INIT (
       30      152    1              0,
       31      153    1              0,
       32      154    1              4,
       33      155    1              4,
       34      156    1              4,
       35      157    1              4,
       36      158    1              4,
       37      159    1              4,
PL6.E3A0      #001=OCM_DATA_D File=OCM_DATA_D.:E05TSI                            WED 07/30/97 04:00 Page:6
       38      160    1              4,
       39      161    1              0),
       40      162    1            2 TEXT_ CHAR(60) UNAL INIT
       41      163    1              (' ',
       42      164    1              ' ',
       43      165    1              '  ->',
       44      166    1              '--->',
       45      167    1              '****',
       46      168    1              '    ',
       47      169    1              '  >>',
       48      170    1              '  **',
       49      171    1              '  !!',
       50      172    1              ' ');
       51      173    1   END OCM_DATA_D;

PL6.E3A0      #001=OCM_DATA_D File=OCM_DATA_D.:E05TSI                            WED 07/30/97 04:00 Page:7
--  Include file information  --

   OUT_SUBS_C.:E05TOU  is referenced.
      No diagnostics issued in procedure OCM_DATA_D.
PL6.E3A0      #001=OCM_DATA_D File=OCM_DATA_D.:E05TSI                            WED 07/30/97 04:00 Page:8

 **** Variables and constants ****


   No code generated for procedure OCM_DATA_D .
   Procedure OCM_DATA_D is declared NOAUTO and requires 1326 words of local(STATIC) storage.

    No errors detected in file OCM_DATA_D.:E05TSI    .
PL6.E3A0      #001=OCM_DATA_D File=OCM_DATA_D.:E05TSI                            WED 07/30/97 04:00 Page:9
          *** CROSS REFERENCE LISTING ***
**     DENOTES     IDENTIFIER DEFINITION
<<                 IDENTIFIER'S VALUE SET
>>                 IDENTIFIER'S VALUE USED
<>                 IDENTIFIER SET AND/OR USED
--                 IDENTIFIER REFERENCED
PL6.E3A0      #001=OCM_DATA_D File=OCM_DATA_D.:E05TSI                            WED 07/30/97 04:00 Page:10
          MINI XREF LISTING

