PL6.E3A0      #002=OCN$SKEYIN File=OCN$KEYIN.:E05TSI                             WED 07/30/97 04:05 Page:370
     2524        1        /*M* OCN$SKEYIN KEYINs routine to setup and perform keyin from OCCG */
     2525        2        /*T***********************************************************/
     2526        3        /*T*                                                         */
     2527        4        /*T* Copyright (c) Bull HN Information Systems Inc., 1997    */
     2528        5        /*T*                                                         */
     2529        6        /*T***********************************************************/
     2530        7        %SET LISTSUB='1'B;
     2531        8
     2532        9
     2533       10        /*
     2534       11          ###   ###  #   #   #    ###  #   # ##### #   #  ###  #   #
     2535       12         # # # #   # #   #  ###  #   # #  #  #     #   #   #   #   #
     2536       13         # # # #     ##  # # #   #     # #   #      # #    #   ##  #
     2537       14         #  ## #     # # #  ###   ###  ##    ####    #     #   # # #
     2538       15         #   # #     #  ##   # #     # # #   #       #     #   #  ##
     2539       16         #   # #   # #   #  ###  #   # #  #  #       #     #   #   #
     2540       17          ###   ###  #   #   #    ###  #   # #####   #    ###  #   #
     2541       18                                                                          */
     2542       19
     2543       20
     2544       21        OCN$SKEYIN: PROC;
     2545       22
     2546       23        %INCLUDE CP_6;
     2547      104
     2548      105    1   DCL NWIO$ PTR;
     2549      106    1   DCL I UBIN WORD;
     2550      107
     2551      108    1   DCL OCN$KEYIN ENTRY(3);
     2552      109    1   DCL OCP$OCCG ENTRY;
     2553      110
     2554      111        %INCLUDE OC_SUBS_C;
     2555      842        %INCLUDE OCI_SUBS_C;
     2556      940        %INCLUDE OCS_SUBS_C;
     2557     1157        %INCLUDE OC_DAT_R;
     2558     1318
     2559     1319        %B$NWIO (STCLASS="BASED(NWIO$)",PARONLY=1,NAME=NWIO);
     2560     1400
PL6.E3A0      #002=OCN$SKEYIN File=OCN$KEYIN.:E05TSI                             WED 07/30/97 04:05 Page:371
     2561     1401        %EJECT;
PL6.E3A0      #002=OCN$SKEYIN File=OCN$KEYIN.:E05TSI                             WED 07/30/97 04:05 Page:372
     2562     1402        /*
     2563     1403             Begin  O C N $ S K E Y I N   main
     2564     1404                                                                          */
     2565     1405
     2566     1406    1      NWIO$=ADDR(OC_QUEUE.PARMS(OC_QHEAD));
     2567     1407
     2568     1408    1      IF NWIO.CGPARM.MSGTYP#='*AUEV'
     2569     1409    1      THEN
     2570     1410    2      DO;
     2571     1411    2         CALL OCP$OCCG;
     2572     1412    2         RETURN;
     2573     1413    2      END;
     2574     1414
     2575     1415    1      CALL OCN$KEYIN(OC_KEYINBUF,NWIO.ARS,NWIO.CGPARM.STATION#);
     2576     1416
     2577     1417    1      RETURN;
     2578     1418    1   END OCN$SKEYIN;

PL6.E3A0      #002=OCN$SKEYIN File=OCN$KEYIN.:E05TSI                             WED 07/30/97 04:05 Page:373
--  Include file information  --

   OC$MESSHD_C.:E05TOU  is referenced.
   OC_DAT_R.:E05TOU  cannot be made into a system file and is referenced.
   OCS_SUBS_C.:E05TOU  is referenced.
   OCI_SUBS_C.:E05TOU  is referenced.
   OC_SUBS_C.:E05TOU  is referenced.
   CP_6.:E05TOU  cannot be made into a system file and is referenced.
   B$JIT_C.:E05TOU  was found in the system file and is never referenced.
   CP_6_C.:E05TOU  was found in the system file and is referenced.
      No diagnostics issued in procedure OCN$SKEYIN.

   Procedure OCN$SKEYIN requires 26 words for executable code.
   Procedure OCN$SKEYIN requires 10 words of local(AUTO) storage.

    No errors detected in file OCN$KEYIN.:E05TSI    .

PL6.E3A0      #002=OCN$SKEYIN File=OCN$KEYIN.:E05TSI                             WED 07/30/97 04:05 Page:374

 Object Unit name= OCN$SKEYIN                                 File name= OCN$KEYIN.:E05TOU
 UTS= JUL 30 '97 04:05:34.00 WED                              Compiler= PL-6/E31         Sev=      00
 SharedLib= :SHARED_SYSTEM                                    Alt SharedLib=


    ****  Control sections  ****

 Sect   Type Bound  Init  Size OctSiz  Section name(segment info)
    0   DCB   even  none     0      0  M$UC
    1  RoData even  UTS      2      2  OCN$SKEYIN
    2   Proc  even  none    26     32  OCN$SKEYIN
    3  RoData even  none     2      2  OCN$SKEYIN

    ****  Entry defs  ****

                              Check   Calling
                             calling  sequence
  Sect OctLoc Primary Altret sequence   type   Parms  Name
     2      0   yes            yes      Std        0  OCN$SKEYIN

  ****  Entry refs  ****

         Check        Calling
        calling       sequence
Altret sequence SRef   type   Args  Name
         yes           Std       0 OCP$OCCG
         yes           Std       3 OCN$KEYIN
                       nStd      0 X66_AUTO_0
                       Std       0 B_CONSPOOL_D
                       nStd      0 X66_ARET
PL6.E3A0      #002=OCN$SKEYIN File=OCN$KEYIN.:E05TSI                             WED 07/30/97 04:05 Page:375

  ****  Data refs  ****

  Flags:  r = read only, s = secondary
Flgs Name                             Flgs Name                             Flgs Name
     M$UC                                  OC_INTMSG                             OC_MESSBUF
     OC_MSGBUFFER                          OC_QHEAD                              OC_KEYINBUF
     OC_QUEUE                              OC_PARAM                              OC_CONSOLE$
     OC_DIR                                OC_INTBIT                             OC_MASK
     B_VECTNIL

  ****  Segment refs  ****

  Flags:  r = read only, s = secondary
Flgs Name                             Flgs Name                             Flgs Name
     ISSID
PL6.E3A0      #002=OCN$SKEYIN File=OCN$KEYIN.:E05TSI                             WED 07/30/97 04:05 Page:376


     2524        1        /*M* OCN$SKEYIN KEYINs routine to setup and perform keyin from OCCG */
     2525        2        /*T***********************************************************/
     2526        3        /*T*                                                         */
     2527        4        /*T* Copyright (c) Bull HN Information Systems Inc., 1997    */
     2528        5        /*T*                                                         */
     2529        6        /*T***********************************************************/
     2530        7        %SET LISTSUB='1'B;
     2531        8
     2532        9
     2533       10        /*
     2534       11          ###   ###  #   #   #    ###  #   # ##### #   #  ###  #   #
     2535       12         # # # #   # #   #  ###  #   # #  #  #     #   #   #   #   #
     2536       13         # # # #     ##  # # #   #     # #   #      # #    #   ##  #
     2537       14         #  ## #     # # #  ###   ###  ##    ####    #     #   # # #
     2538       15         #   # #     #  ##   # #     # # #   #       #     #   #  ##
     2539       16         #   # #   # #   #  ###  #   # #  #  #       #     #   #   #
     2540       17          ###   ###  #   #   #    ###  #   # #####   #    ###  #   #
     2541       18                                                                          */
     2542       19
     2543       20
     2544       21        OCN$SKEYIN: PROC;

     21  2 000000   000000 700200 xent  OCN$SKEYIN   TSX0  ! X66_AUTO_0
         2 000001   000012 000000                    ZERO    10,0

     2545       22
     2546       23        %INCLUDE CP_6;
     2547      104
     2548      105    1   DCL NWIO$ PTR;
     2549      106    1   DCL I UBIN WORD;
     2550      107
     2551      108    1   DCL OCN$KEYIN ENTRY(3);
     2552      109    1   DCL OCP$OCCG ENTRY;
     2553      110
     2554      111        %INCLUDE OC_SUBS_C;
     2555      842        %INCLUDE OCI_SUBS_C;
PL6.E3A0      #002=OCN$SKEYIN File=OCN$KEYIN.:E05TSI                             WED 07/30/97 04:05 Page:377
     2556      940        %INCLUDE OCS_SUBS_C;
     2557     1157        %INCLUDE OC_DAT_R;
     2558     1318
     2559     1319        %B$NWIO (STCLASS="BASED(NWIO$)",PARONLY=1,NAME=NWIO);
     2560     1400
     2561     1401        %EJECT;
PL6.E3A0      #002=OCN$SKEYIN File=OCN$KEYIN.:E05TSI                             WED 07/30/97 04:05 Page:378
     2562     1402        /*
     2563     1403             Begin  O C N $ S K E Y I N   main
     2564     1404                                                                          */
     2565     1405
     2566     1406    1      NWIO$=ADDR(OC_QUEUE.PARMS(OC_QHEAD));

   1406  2 000002   000000 236000 xsym               LDQ     OC_QHEAD
         2 000003   000017 402003                    MPY     15,DU
         2 000004   000000 036000 3                  ADLQ    0
         2 000005   200003 756100                    STQ     NWIO$,,AUTO

     2567     1407
     2568     1408    1      IF NWIO.CGPARM.MSGTYP#='*AUEV'

   1408  2 000006   200003 470500                    LDP0    NWIO$,,AUTO
         2 000007   040000 106500                    CMPC    fill='040'O
         2 000010   000006 000010                    ADSC9   6,,PR0                   cn=0,n=8
         2 000011   000000 000005 1                  ADSC9   0                        cn=0,n=5
         2 000012   000017 601000 2                  TNZ     s:1415

     2569     1409    1      THEN
     2570     1410    2      DO;

     2571     1411    2         CALL OCP$OCCG;

   1411  2 000013   000002 631400 xsym               EPPR1   B_VECTNIL+2
         2 000014   000000 701000 xent               TSX1    OCP$OCCG
         2 000015   000000 011000                    NOP     0

     2572     1412    2         RETURN;

   1412  2 000016   000000 702200 xent               TSX2  ! X66_ARET

     2573     1413    2      END;
     2574     1414
     2575     1415    1      CALL OCN$KEYIN(OC_KEYINBUF,NWIO.ARS,NWIO.CGPARM.STATION#);

PL6.E3A0      #002=OCN$SKEYIN File=OCN$KEYIN.:E05TSI                             WED 07/30/97 04:05 Page:379
   1415  2 000017   000004 036003                    ADLQ    4,DU
         2 000020   200010 756100                    STQ     NWIO$+5,,AUTO
         2 000021   200003 236100                    LDQ     NWIO$,,AUTO
         2 000022   000002 036003                    ADLQ    2,DU
         2 000023   000001 235000 3                  LDA     1
         2 000024   200006 757100                    STAQ    NWIO$+3,,AUTO
         2 000025   200006 630500                    EPPR0   NWIO$+3,,AUTO
         2 000026   000021 631400 xsym               EPPR1   B_VECTNIL+17
         2 000027   000000 701000 xent               TSX1    OCN$KEYIN
         2 000030   000000 011000                    NOP     0

     2576     1416
     2577     1417    1      RETURN;

   1417  2 000031   000000 702200 xent               TSX2  ! X66_ARET
     2578     1418    1   END OCN$SKEYIN;

PL6.E3A0      #002=OCN$SKEYIN File=OCN$KEYIN.:E05TSI                             WED 07/30/97 04:05 Page:380
--  Include file information  --

   OC$MESSHD_C.:E05TOU  is referenced.
   OC_DAT_R.:E05TOU  cannot be made into a system file and is referenced.
   OCS_SUBS_C.:E05TOU  is referenced.
   OCI_SUBS_C.:E05TOU  is referenced.
   OC_SUBS_C.:E05TOU  is referenced.
   CP_6.:E05TOU  cannot be made into a system file and is referenced.
   B$JIT_C.:E05TOU  was found in the system file and is never referenced.
   CP_6_C.:E05TOU  was found in the system file and is referenced.
      No diagnostics issued in procedure OCN$SKEYIN.
PL6.E3A0      #002=OCN$SKEYIN File=OCN$KEYIN.:E05TSI                             WED 07/30/97 04:05 Page:381

 **** Variables and constants ****

  ****  Auto variables  ****

  ****  Scalars and arrays  ****
OctLoc.c.b A Datatyp(siz) R M Lvl/name                 OctLoc.c.b A Datatyp(siz) R M Lvl/name

     3-0-0/w PTR         r     1 NWIO$

  ****  SYMREF variables  ****

  ****  Scalars and arrays  ****
OctLoc.c.b A Datatyp(siz) R M Lvl/name                 OctLoc.c.b A Datatyp(siz) R M Lvl/name

     0-0-0/w PTR         r     1 OC_CONSOLE$                0-0-0/c CHAR(256)   r     1 OC_KEYINBUF
     0-0-0/w UBIN        r     1 OC_QHEAD                   0-0-0/w STRC(540)   r     1 OC_QUEUE(0:8191)

  ****  BASED and DCB variables  ****

  ****  Scalars and arrays  ****
OctLoc.c.b A Datatyp(siz) R M Lvl/name                 OctLoc.c.b A Datatyp(siz) R M Lvl/name

     0-0-0/w STRC(468)   r     1 NWIO


   Procedure OCN$SKEYIN requires 26 words for executable code.
   Procedure OCN$SKEYIN requires 10 words of local(AUTO) storage.

    No errors detected in file OCN$KEYIN.:E05TSI    .
PL6.E3A0      #002=OCN$SKEYIN File=OCN$KEYIN.:E05TSI                             WED 07/30/97 04:05 Page:382
          *** CROSS REFERENCE LISTING ***
**     DENOTES     IDENTIFIER DEFINITION
<<                 IDENTIFIER'S VALUE SET
>>                 IDENTIFIER'S VALUE USED
<>                 IDENTIFIER SET AND/OR USED
--                 IDENTIFIER REFERENCED
PL6.E3A0      #002=OCN$SKEYIN File=OCN$KEYIN.:E05TSI                             WED 07/30/97 04:05 Page:383
          MINI XREF LISTING

NWIO.ARS
      1325**DCL      1415<>CALL
NWIO.CGPARM.MSGIDXT
      1349**DCL      1352--REDEF
NWIO.CGPARM.MSGTYP#
      1343**DCL      1408>>IF
NWIO.CGPARM.STATION#
      1343**DCL      1415<>CALL
NWIO$
       105**DCL      1323--IMP-PTR  1406<<ASSIGN   1408>>IF       1415>>CALL     1415>>CALL
OCN$KEYIN
       108**DCL-ENT  1415--CALL
OCP$OCCG
       109**DCL-ENT  1411--CALL
OC_CONSOLE.ATTR
      1271**DCL      1271--REDEF
OC_CONSOLE.ATTRO
      1272**DCL      1272--REDEF
OC_CONSOLE.CID
      1270**DCL      1271--REDEF
OC_CONSOLE.STATION
      1269**DCL      1269--REDEF
OC_CONSOLE$
      1268**DCL      1269--IMP-PTR
OC_DIR
      1311**DCL      1311--REDEF
OC_INTBIT
      1311**DCL      1312--REDEF
OC_INTMSG
      1188**DCL      1201--REDEF
OC_INTMSG.FLAGS
      1195**DCL      1196--REDEF
PL6.E3A0      #002=OCN$SKEYIN File=OCN$KEYIN.:E05TSI                             WED 07/30/97 04:05 Page:384
OC_INTMSG.MESS
      1201**DCL      1201--REDEF
OC_INTMSG.MSGID
      1191**DCL      1192--REDEF
OC_INTMSG.WSN
      1198**DCL      1199--REDEF
OC_KEYINBUF
      1265**DCL      1415<>CALL
OC_MASK
      1312**DCL      1312--REDEF
OC_MESSBUF
      1203**DCL      1218--REDEF    1232--REDEF
OC_MESSBUF.FLAGS
      1210**DCL      1211--REDEF
OC_MESSBUF.MESS
      1216**DCL      1216--REDEF
OC_MESSBUF.MSGID
      1206**DCL      1207--REDEF
OC_MESSBUF.WSN
      1213**DCL      1214--REDEF
OC_MESSBUF1.FLAGS
      1225**DCL      1226--REDEF
OC_MESSBUF1.LEN
      1231**DCL      1231--REDEF
OC_MESSBUF1.MSGID
      1221**DCL      1222--REDEF
OC_MESSBUF1.WSN
      1228**DCL      1229--REDEF
OC_MSGBUFFER
      1234**DCL      1249--REDEF
OC_MSGBUFFER.FLAGS
      1241**DCL      1242--REDEF
OC_MSGBUFFER.MESS
      1247**DCL      1247--REDEF
OC_MSGBUFFER.MSGID
      1237**DCL      1238--REDEF
PL6.E3A0      #002=OCN$SKEYIN File=OCN$KEYIN.:E05TSI                             WED 07/30/97 04:05 Page:385
OC_MSGBUFFER.WSN
      1244**DCL      1245--REDEF
OC_MSGBUFFER2.FLAGS
      1256**DCL      1257--REDEF
OC_MSGBUFFER2.MSGID
      1252**DCL      1253--REDEF
OC_MSGBUFFER2.WSN
      1259**DCL      1260--REDEF
OC_PARAM
      1267**DCL      1267--REDEF
OC_QHEAD
      1263**DCL      1406>>ASSIGN
OC_QUEUE.PARMC
      1266**DCL      1266--REDEF
OC_QUEUE.PARMS
      1266**DCL      1406--ASSIGN
