PL6.E3A0      #006=OCP$CSCG File=OCP$PROCESS.:E05TSI                             WED 07/30/97 04:06 Page:168
      876        1        /*M* OCP$CSCG   handle Central-System-COMGROUP events */
      877        2        /*T***********************************************************/
      878        3        /*T*                                                         */
      879        4        /*T* Copyright (c) Bull HN Information Systems Inc., 1997    */
      880        5        /*T*                                                         */
      881        6        /*T***********************************************************/
      882        7        %SET LISTSUB='1'B;
      883        8        /*
      884        9         ###    ###   ####    #    ###    ###    ###    ###
      885       10        #   #  #   #  #   #  ###  #   #  #   #  #   #  #   #
      886       11        #   #  #      #   # # #   #      #      #      #
      887       12        #   #  #      ####   ###  #       ###   #      #
      888       13        #   #  #      #       # # #          #  #      #  ##
      889       14        #   #  #   #  #      ###  #   #  #   #  #   #  #   #
      890       15         ###    ###   #       #    ###    ###    ###    ###
      891       16                                                                   */
      892       17                                                /**/
      893       18                                                /**/
      894       19        OCP$CSCG: PROC;
      895       20        %INCLUDE CP_6;
      896      101             %EQU_CG;
      897      149             %B$CGAURD;
      898      168                                                /**/
      899      169    1   DCL OCD$MARKEM ENTRY(1);
      900      170                                                /**/
      901      171        %INCLUDE OCI_SUBS_C;
      902      269                                                /**/
      903      270    1   DCL I UBIN WORD STATIC ALIGNED;
      904      271                                                /**/
      905      272    1   DCL M$CSCG DCB;
      906      273        %INCLUDE JG_GHOSTS_C;
      907      363                                                /**/
      908      364             %JG_GHOSTS (FPTN=JG_GHOSTS,
      909      365                            ARRAY=YES,
      910      366                            STCLASS=STATIC);
      911      404                                                /**/
      912      405                                                /**/
PL6.E3A0      #006=OCP$CSCG File=OCP$PROCESS.:E05TSI                             WED 07/30/97 04:06 Page:169
      913      406                                                /**/
      914      407        %FPT_FWCG (FPTN=FLUSH_OUTPUT,
      915      408                   DCB=M$CSCG,
      916      409                   CRITERIA=CGMA_FLUSH,
      917      410                   SCA=SCGMA_FLUSH,
      918      411                   QSELECT=DIRECT,
      919      412                   DELETE=YES);
      920      431
      921      432        %VLP_CGMA (FPTN=CGMA_FLUSH);
      922      459
      923      460        %VLP_SCGMA (FPTN=SCGMA_FLUSH,
      924      461                    DEST=YES);
      925      478
      926      479                  %VLP_STATION (FPTN=STAT,
      927      480                                 STATION=' ');
      928      507                                                /**/
      929      508             %FPT_ACTIVATE  (FPTN=KILL_GHOST,
      930      509                                      DCB=M$CSCG,
      931      510                                 STATION=STAT,
      932      511                                      DISCONNECT=YES);
      933      534                                                /**/
      934      535             %FPT_EXTEND (FPTN=EXTND_CSCG,
      935      536                            DCB=M$CSCG,
      936      537                            SIZ=50);
      937      551                                                /**/
      938      552             %FPT_CGINFO (FPTN=CS_CGINFO,
      939      553                            DCB=M$CSCG,
      940      554                            CGCP=CS_CGCP,
      941      555                            STCLASS=CONSTANT);
      942      575                                                /**/
      943      576             %VLP_CGCP (FPTN=CS_CGCP);
      944      619                                                /**/
      945      620             %FPT_CGCTL (FPTN=CS_CGCTL,
      946      621                            DCB=M$CSCG,
      947      622                            CGCP=CS_CGCP,
      948      623                            STCLASS=CONSTANT);
      949      646                                                /**/
PL6.E3A0      #006=OCP$CSCG File=OCP$PROCESS.:E05TSI                             WED 07/30/97 04:06 Page:170
      950      647        %INCLUDE OC$PEND;
      951      692        %INCLUDE OC_DAT_R;
      952      853        %INCLUDE OCP_DATA_R;
      953      870                                                /**/
      954      871    1   DCL OCP$PENDRMV ENTRY(1);
      955      872    1   DCL EVENT UBIN WORD STATIC;
      956      873    1   DCL NEXT$ PTR STATIC;
      957      874    1   DCL STA CHAR(8) UNAL STATIC;
      958      875                                                /**/
      959      876    1   DCL 1 RESTA REDEF STA,
      960      877    1            2 TEXT CHAR(4) UNAL,
      961      878    1            2 SYSID UBIN(18) UNAL,
      962      879    1            2 * BIT(1) UNAL,
      963      880    1            2 CADDR UBIN(17) UNAL;
      964      881                                                /**/
      965      882                                                /**/
      966      883        %EJECT;
PL6.E3A0      #006=OCP$CSCG File=OCP$PROCESS.:E05TSI                             WED 07/30/97 04:06 Page:171
      967      884                                                /**/
      968      885        /*
      969      886                  Begin  O C P $ C S C G  main
      970      887                                                         */
      971      888    1        EVENT = ADDR(OC_MSGBUFFER)->B$CGAURD.EVENT;
      972      889    1        STA = ADDR(OC_MSGBUFFER)->B$CGAURD.STATION;
      973      890    2        DO CASE (EVENT);
      974      891                                                /**/
      975      892    2        CASE (%CG_DOPN#);                  /* DCB open to comgroup */
      976      893                                                /**/
      977      894    2           IF RESTA.TEXT = 'GHST'
      978      895    2           THEN
      979      896    3           DO;
      980      897    4                DO I = 0 TO OC_MAXCONSOLE /* MAX_CONSOLES# */;
      981      898    4                     IF RESTA.CADDR = OC_CONSOLE.CID(I)
      982      899    4                     THEN
      983      900    5                     DO;
      984      901    5                          IF OC_CONSOLE.ACTIVE(I)
      985      902    5                          THEN
      986      903    6                          DO;
      987      904    6                               OC_CONSOLE.GHST(I) = '1'B /*TRUE#*/;
      988      905    6                               OC_CONSOLE.SYSID(I) = RESTA.SYSID;
      989      906    6                               GOTO LOGGED_IN;
      990      907    6                             END;          /* IF ACTIVE */
      991      908    5                          ELSE
      992      909    5                               GOTO KILL_GHOST;
      993      910    5                        END;               /* SETTING UP GHST */
      994      911    4                   END;                    /* DO I = 0 TO MAX_CONSOLES# */
      995      912                                                /**/
      996      913    3   KILL_GHOST:  ;
      997      914    3                STAT.STATION# = STA;
      998      915    3                CALL M$DEACTIVATE (KILL_GHOST) ALTRET (LOGGED_IN);
      999      916                                                /**/
     1000      917    3   LOGGED_IN:   ;
     1001      918                                                /**/
     1002      919    3              END;                         /* IF GHST STATION */
     1003      920                                                /**/
PL6.E3A0      #006=OCP$CSCG File=OCP$PROCESS.:E05TSI                             WED 07/30/97 04:06 Page:172
     1004      921    2        CASE (%CG_WARN#);                  /* Increase disc size and comgroup */
     1005      922    2           CALL M$EXTEND (EXTND_CSCG) ALTRET (NEXT_LINE);
     1006      923    2   NEXT_LINE:;
     1007      924    2           CALL M$CGINFO (CS_CGINFO) ALTRET (NEXT_LINE2);
     1008      925    2   NEXT_LINE2:;
     1009      926    2           CS_CGCP.MAXPG# = CS_CGCP.MAXPG# + 25;
     1010      927    2           CALL M$CGCTL (CS_CGCTL) ALTRET (NEXT_LINE3);
     1011      928    2   NEXT_LINE3:;
     1012      929                                                /**/
     1013      930    2        CASE (%CG_DCLS#);             /* remove pending reads for this station */
     1014      931                                                /**/
     1015      932    2           IF RESTA.TEXT = 'GHST'
     1016      933    2           THEN
     1017      934    3           DO;
     1018      935    4                DO I = 0 TO OC_MAXCONSOLE /* MAX_CONSOLES# */;
     1019      936    4                     IF RESTA.CADDR = OC_CONSOLE.CID(I)
     1020      937    4                     THEN
     1021      938    5                     DO;
     1022      939    5                          OC_CONSOLE.GHST(I) = '0'B /*FALSE#*/;
     1023      940    5                          OC_CONSOLE.SYSID(I) = 0;
     1024      941    5                          OC_CONSOLE.GHSTRD(I) = '0'B /*FALSE#*/;
     1025      942    5                          I = OC_MAXCONSOLE + 1 /* NUM_CONSOLES# */;
     1026      943    5                        END;               /* DO IF FOUND */
     1027      944    4                   END;                    /* DO I=0 TO MAX_CONSOLES# */
     1028      945    3              END;                         /* DO IF GHST */
     1029      946    2           NEXT$ = OCP_USED_HEAD$;
     1030      947    3           DO WHILE (NEXT$ ~= ADDR (NIL));
     1031      948    3                IF NEXT$ -> OC$PEND.STATION = STA /* found one */
     1032      949    3                THEN
     1033      950    3                     CALL OCP$PENDRMV (NEXT$);
     1034      951    3                NEXT$ = NEXT$ -> OC$PEND.LINK$;
     1035      952    3              END;                         /* WHILE (NEXT$ ~= ADDR (NIL)         */
     1036      953                                                /**/
     1037      954    3           DO I = 0 TO ((LENGTHC (JG_GHOSTS)) / 8);
     1038      955    3                IF STA = JG_GHOSTS (I)
     1039      956    3                THEN GOTO DONT_FLUSH;
     1040      957    3              END;
PL6.E3A0      #006=OCP$CSCG File=OCP$PROCESS.:E05TSI                             WED 07/30/97 04:06 Page:173
     1041      958
     1042      959    2           CGMA_FLUSH.DEST# = STA;
     1043      960    2           CALL M$FWCG (FLUSH_OUTPUT) ALTRET (DONT_FLUSH);
     1044      961    2   DONT_FLUSH: ;
     1045      962                                                /**/
     1046      963    2           IF OC_ZIP
     1047      964    2           THEN
     1048      965    2                CALL OCD$MARKEM (STA);
     1049      966                                                /**/
     1050      967                                                /**/
     1051      968    2        END;                               /* CASE (EVENT)                       */
     1052      969    1        RETURN;
     1053      970    1   END OCP$CSCG;
     1054      971        %EOD;

PL6.E3A0      #006=OCP$CSCG File=OCP$PROCESS.:E05TSI                             WED 07/30/97 04:06 Page:174
--  Include file information  --

   OCP_DATA_R.:E05TOU  cannot be made into a system file and is referenced.
   OC$MESSHD_C.:E05TOU  is referenced.
   OC_DAT_R.:E05TOU  cannot be made into a system file and is referenced.
   OC$PEND.:E05TOU  cannot be made into a system file and is referenced.
   JG_GHOSTS_C.:E05TOU  is referenced.
   OCI_SUBS_C.:E05TOU  is referenced.
   CP_6.:E05TOU  cannot be made into a system file and is referenced.
   B$JIT_C.:E05TOU  was found in the system file and is never referenced.
   CP_6_C.:E05TOU  was found in the system file and is referenced.
      No diagnostics issued in procedure OCP$CSCG.

   Procedure OCP$CSCG requires 161 words for executable code.
   Procedure OCP$CSCG requires 6 words of local(AUTO) storage.

PL6.E3A0      #006=OCP$CSCG File=OCP$PROCESS.:E05TSI                             WED 07/30/97 04:06 Page:175

 Object Unit name= OCP$CSCG                                   File name= OCP$PROCESS.:E05TOU
 UTS= JUL 30 '97 04:06:00.64 WED                              Compiler= PL-6/E31         Sev=      00
 SharedLib= :SHARED_SYSTEM                                    Alt SharedLib=


    ****  Control sections  ****

 Sect   Type Bound  Init  Size OctSiz  Section name(segment info)
    0   DCB   even  none     0      0  M$UC
    1   Data  even  none   162    242  OCP$CSCG
    2   DCB   even  none     0      0  M$CSCG
    3  RoData even  UTS    103    147  OCP$CSCG
    4   Proc  even  none   161    241  OCP$CSCG
    5  RoData even  none     4      4  OCP$CSCG

    ****  Entry defs  ****

                              Check   Calling
                             calling  sequence
  Sect OctLoc Primary Altret sequence   type   Parms  Name
     4      0   yes            yes      Std        0  OCP$CSCG

  ****  Entry refs  ****

         Check        Calling
        calling       sequence
Altret sequence SRef   type   Args  Name
         yes           Std       1 OCP$PENDRMV
         yes           Std       1 OCD$MARKEM
                       nStd      0 X66_AUTO_0
                       Std       0 B_CONSPOOL_D
                       nStd      0 X66_ARET
PL6.E3A0      #006=OCP$CSCG File=OCP$PROCESS.:E05TSI                             WED 07/30/97 04:06 Page:176

  ****  Data refs  ****

  Flags:  r = read only, s = secondary
Flgs Name                             Flgs Name                             Flgs Name
     M$UC                                  M$CSCG                                OC_INTMSG
     OC_MESSBUF                            OC_MSGBUFFER                          OC_PARAM
     OC_CONSOLE$                           OC_MAXCONSOLE                         OC_DIR
     OC_INTBIT                             OC_MASK                               OC_ZIP
     OCP_FREE_HEAD                         OCP_USED_HEAD                         OCP_USED_TAIL
     B_VECTNIL

  ****  Segment refs  ****

  Flags:  r = read only, s = secondary
Flgs Name                             Flgs Name                             Flgs Name
     ISSID                                 NULLSID
PL6.E3A0      #006=OCP$CSCG File=OCP$PROCESS.:E05TSI                             WED 07/30/97 04:06 Page:177


      876        1        /*M* OCP$CSCG   handle Central-System-COMGROUP events */
      877        2        /*T***********************************************************/
      878        3        /*T*                                                         */
      879        4        /*T* Copyright (c) Bull HN Information Systems Inc., 1997    */
      880        5        /*T*                                                         */
      881        6        /*T***********************************************************/
      882        7        %SET LISTSUB='1'B;
      883        8        /*
      884        9         ###    ###   ####    #    ###    ###    ###    ###
      885       10        #   #  #   #  #   #  ###  #   #  #   #  #   #  #   #
      886       11        #   #  #      #   # # #   #      #      #      #
      887       12        #   #  #      ####   ###  #       ###   #      #
      888       13        #   #  #      #       # # #          #  #      #  ##
      889       14        #   #  #   #  #      ###  #   #  #   #  #   #  #   #
      890       15         ###    ###   #       #    ###    ###    ###    ###
      891       16                                                                   */
      892       17                                                /**/
      893       18                                                /**/
      894       19        OCP$CSCG: PROC;

     19  4 000000   000000 700200 xent  OCP$CSCG     TSX0  ! X66_AUTO_0
         4 000001   000006 000000                    ZERO    6,0

      895       20        %INCLUDE CP_6;
      896      101             %EQU_CG;
      897      149             %B$CGAURD;
      898      168                                                /**/
      899      169    1   DCL OCD$MARKEM ENTRY(1);
      900      170                                                /**/
      901      171        %INCLUDE OCI_SUBS_C;
      902      269                                                /**/
      903      270    1   DCL I UBIN WORD STATIC ALIGNED;
      904      271                                                /**/
      905      272    1   DCL M$CSCG DCB;
      906      273        %INCLUDE JG_GHOSTS_C;
      907      363                                                /**/
PL6.E3A0      #006=OCP$CSCG File=OCP$PROCESS.:E05TSI                             WED 07/30/97 04:06 Page:178
      908      364             %JG_GHOSTS (FPTN=JG_GHOSTS,
      909      365                            ARRAY=YES,
      910      366                            STCLASS=STATIC);
      911      404                                                /**/
      912      405                                                /**/
      913      406                                                /**/
      914      407        %FPT_FWCG (FPTN=FLUSH_OUTPUT,
      915      408                   DCB=M$CSCG,
      916      409                   CRITERIA=CGMA_FLUSH,
      917      410                   SCA=SCGMA_FLUSH,
      918      411                   QSELECT=DIRECT,
      919      412                   DELETE=YES);
      920      431
      921      432        %VLP_CGMA (FPTN=CGMA_FLUSH);
      922      459
      923      460        %VLP_SCGMA (FPTN=SCGMA_FLUSH,
      924      461                    DEST=YES);
      925      478
      926      479                  %VLP_STATION (FPTN=STAT,
      927      480                                 STATION=' ');
      928      507                                                /**/
      929      508             %FPT_ACTIVATE  (FPTN=KILL_GHOST,
      930      509                                      DCB=M$CSCG,
      931      510                                 STATION=STAT,
      932      511                                      DISCONNECT=YES);
      933      534                                                /**/
      934      535             %FPT_EXTEND (FPTN=EXTND_CSCG,
      935      536                            DCB=M$CSCG,
      936      537                            SIZ=50);
      937      551                                                /**/
      938      552             %FPT_CGINFO (FPTN=CS_CGINFO,
      939      553                            DCB=M$CSCG,
      940      554                            CGCP=CS_CGCP,
      941      555                            STCLASS=CONSTANT);
      942      575                                                /**/
      943      576             %VLP_CGCP (FPTN=CS_CGCP);
      944      619                                                /**/
PL6.E3A0      #006=OCP$CSCG File=OCP$PROCESS.:E05TSI                             WED 07/30/97 04:06 Page:179
      945      620             %FPT_CGCTL (FPTN=CS_CGCTL,
      946      621                            DCB=M$CSCG,
      947      622                            CGCP=CS_CGCP,
      948      623                            STCLASS=CONSTANT);
      949      646                                                /**/
      950      647        %INCLUDE OC$PEND;
      951      692        %INCLUDE OC_DAT_R;
      952      853        %INCLUDE OCP_DATA_R;
      953      870                                                /**/
      954      871    1   DCL OCP$PENDRMV ENTRY(1);
      955      872    1   DCL EVENT UBIN WORD STATIC;
      956      873    1   DCL NEXT$ PTR STATIC;
      957      874    1   DCL STA CHAR(8) UNAL STATIC;
      958      875                                                /**/
      959      876    1   DCL 1 RESTA REDEF STA,
      960      877    1            2 TEXT CHAR(4) UNAL,
      961      878    1            2 SYSID UBIN(18) UNAL,
      962      879    1            2 * BIT(1) UNAL,
      963      880    1            2 CADDR UBIN(17) UNAL;
      964      881                                                /**/
      965      882                                                /**/
      966      883        %EJECT;
PL6.E3A0      #006=OCP$CSCG File=OCP$PROCESS.:E05TSI                             WED 07/30/97 04:06 Page:180
      967      884                                                /**/
      968      885        /*
      969      886                  Begin  O C P $ C S C G  main
      970      887                                                         */
      971      888    1        EVENT = ADDR(OC_MSGBUFFER)->B$CGAURD.EVENT;

    888  4 000002   000000 235000 xsym               LDA     OC_MSGBUFFER
         4 000003   000236 755000 1                  STA     EVENT

      972      889    1        STA = ADDR(OC_MSGBUFFER)->B$CGAURD.STATION;

    889  4 000004   040000 100400                    MLR     fill='040'O
         4 000005   000001 000010 xsym               ADSC9   OC_MSGBUFFER+1           cn=0,n=8
         4 000006   000240 000010 1                  ADSC9   STA                      cn=0,n=8

      973      890    2        DO CASE (EVENT);

    890  4 000007   000012 115007                    CMPA    10,DL
         4 000010   000012 602005 4                  TNC     s:890+3,AL
         4 000011   000240 710000 4                  TRA     s:969
         4 000012   000024 710000 4                  TRA     s:894
         4 000013   000117 710000 4                  TRA     s:932
         4 000014   000240 710000 4                  TRA     s:969
         4 000015   000240 710000 4                  TRA     s:969
         4 000016   000240 710000 4                  TRA     s:969
         4 000017   000240 710000 4                  TRA     s:969
         4 000020   000240 710000 4                  TRA     s:969
         4 000021   000240 710000 4                  TRA     s:969
         4 000022   000240 710000 4                  TRA     s:969
         4 000023   000077 710000 4                  TRA     s:922

      974      891                                                /**/
      975      892    2        CASE (%CG_DOPN#);                  /* DCB open to comgroup */

      976      893                                                /**/
      977      894    2           IF RESTA.TEXT = 'GHST'

PL6.E3A0      #006=OCP$CSCG File=OCP$PROCESS.:E05TSI                             WED 07/30/97 04:06 Page:181
    894  4 000024   000240 236000 1                  LDQ     STA
         4 000025   000146 116000 3                  CMPQ    CS_CGCTL+52
         4 000026   000240 601000 4                  TNZ     s:969

      978      895    2           THEN
      979      896    3           DO;

      980      897    4                DO I = 0 TO OC_MAXCONSOLE /* MAX_CONSOLES# */;

    897  4 000027   000000 450000 1                  STZ     I
         4 000030   000064 710000 4                  TRA     s:911+3

      981      898    4                     IF RESTA.CADDR = OC_CONSOLE.CID(I)

    898  4 000031   000000 236000 1                  LDQ     I
         4 000032   000076 402007                    MPY     62,DL
         4 000033   000000 470400 xsym               LDP0    OC_CONSOLE$
         4 000034   000012 236106                    LDQ     10,QL,PR0
         4 000035   000022 772000                    QRL     18
         4 000036   200004 756100                    STQ     4,,AUTO
         4 000037   000241 236000 1                  LDQ     STA+1
         4 000040   377777 376007                    ANQ     131071,DL
         4 000041   200004 116100                    CMPQ    4,,AUTO
         4 000042   000061 601000 4                  TNZ     s:911

      982      899    4                     THEN
      983      900    5                     DO;

      984      901    5                          IF OC_CONSOLE.ACTIVE(I)

    901  4 000043   000000 236000 1                  LDQ     I
         4 000044   000076 402007                    MPY     62,DL
         4 000045   000017 236106                    LDQ     15,QL,PR0
         4 000046   010000 316007                    CANQ    4096,DL
         4 000047   000070 600000 4                  TZE     KILL_GHOST

      985      902    5                          THEN
PL6.E3A0      #006=OCP$CSCG File=OCP$PROCESS.:E05TSI                             WED 07/30/97 04:06 Page:182
      986      903    6                          DO;

      987      904    6                               OC_CONSOLE.GHST(I) = '1'B /*TRUE#*/;

    904  4 000050   000000 236000 1                  LDQ     I
         4 000051   000076 402007                    MPY     62,DL
         4 000052   000000 620006                    EAX0    0,QL
         4 000053   400000 236007                    LDQ     -131072,DL
         4 000054   000017 256110                    ORSQ    15,X0,PR0

      988      905    6                               OC_CONSOLE.SYSID(I) = RESTA.SYSID;

    905  4 000055   000241 221000 1                  LDX1    STA+1
         4 000056   000000 470400 xsym               LDP0    OC_CONSOLE$
         4 000057   000012 441110                    SXL1    10,X0,PR0

      989      906    6                               GOTO LOGGED_IN;

    906  4 000060   000076 710000 4                  TRA     LOGGED_IN

      990      907    6                             END;          /* IF ACTIVE */
      991      908    5                          ELSE
      992      909    5                               GOTO KILL_GHOST;
      993      910    5                        END;               /* SETTING UP GHST */
      994      911    4                   END;                    /* DO I = 0 TO MAX_CONSOLES# */

    911  4 000061   000000 235000 1                  LDA     I
         4 000062   000001 035007                    ADLA    1,DL
         4 000063   000000 755000 1                  STA     I
         4 000064   000000 236000 xsym               LDQ     OC_MAXCONSOLE
         4 000065   000022 772000                    QRL     18
         4 000066   000000 116000 1                  CMPQ    I
         4 000067   000031 603000 4                  TRC     s:898

    909  4 000070                       KILL_GHOST   null
      995      912                                                /**/
      996      913    3   KILL_GHOST:  ;
PL6.E3A0      #006=OCP$CSCG File=OCP$PROCESS.:E05TSI                             WED 07/30/97 04:06 Page:183
      997      914    3                STAT.STATION# = STA;

    914  4 000070   000240 237000 1                  LDAQ    STA
         4 000071   000156 757000 1                  STAQ    STAT

      998      915    3                CALL M$DEACTIVATE (KILL_GHOST) ALTRET (LOGGED_IN);

    915  4 000072   000166 630400 1                  EPPR0   KILL_GHOST
         4 000073   500001 713400                    CLIMB   alt,+32769
         4 000074   401400 401760                    pmme    nvectors=4
         4 000075   000076 702000 4                  TSX2    LOGGED_IN

    914  4 000076                       LOGGED_IN    null
      999      916                                                /**/
     1000      917    3   LOGGED_IN:   ;
     1001      918                                                /**/
     1002      919    3              END;                         /* IF GHST STATION */

    919  4 000076   000240 710000 4                  TRA     s:969

     1003      920                                                /**/
     1004      921    2        CASE (%CG_WARN#);                  /* Increase disc size and comgroup */

     1005      922    2           CALL M$EXTEND (EXTND_CSCG) ALTRET (NEXT_LINE);

    922  4 000077   000206 630400 1                  EPPR0   EXTND_CSCG
         4 000100   440005 713400                    CLIMB   alt,+16389
         4 000101   400000 401760                    pmme    nvectors=1
         4 000102   000103 702000 4                  TSX2    NEXT_LINE

    922  4 000103                       NEXT_LINE    null
     1006      923    2   NEXT_LINE:;
     1007      924    2           CALL M$CGINFO (CS_CGINFO) ALTRET (NEXT_LINE2);

    924  4 000103   000000 630400 3                  EPPR0   CS_CGINFO
         4 000104   500004 713400                    CLIMB   alt,+32772
         4 000105   411400 401760                    pmme    nvectors=20
PL6.E3A0      #006=OCP$CSCG File=OCP$PROCESS.:E05TSI                             WED 07/30/97 04:06 Page:184
         4 000106   000107 702000 4                  TSX2    NEXT_LINE2

    922  4 000107                       NEXT_LINE2   null
     1008      925    2   NEXT_LINE2:;
     1009      926    2           CS_CGCP.MAXPG# = CS_CGCP.MAXPG# + 25;

    926  4 000107   000220 220000 1                  LDX0    CS_CGCP+6
         4 000110   000031 621010                    EAX1    25,X0
         4 000111   000220 741000 1                  STX1    CS_CGCP+6

     1010      927    2           CALL M$CGCTL (CS_CGCTL) ALTRET (NEXT_LINE3);

    927  4 000112   000062 630400 3                  EPPR0   CS_CGCTL
         4 000113   500003 713400                    CLIMB   alt,+32771
         4 000114   411400 401760                    pmme    nvectors=20
         4 000115   000116 702000 4                  TSX2    NEXT_LINE3

    926  4 000116   000240 710000 4     NEXT_LINE3   TRA     s:969

     1011      928    2   NEXT_LINE3:;
     1012      929                                                /**/
     1013      930    2        CASE (%CG_DCLS#);             /* remove pending reads for this station */

     1014      931                                                /**/
     1015      932    2           IF RESTA.TEXT = 'GHST'

    932  4 000117   000240 236000 1                  LDQ     STA
         4 000120   000146 116000 3                  CMPQ    CS_CGCTL+52
         4 000121   000164 601000 4                  TNZ     s:946

     1016      933    2           THEN
     1017      934    3           DO;

     1018      935    4                DO I = 0 TO OC_MAXCONSOLE /* MAX_CONSOLES# */;

    935  4 000122   000000 450000 1                  STZ     I
         4 000123   000160 710000 4                  TRA     s:944+3
PL6.E3A0      #006=OCP$CSCG File=OCP$PROCESS.:E05TSI                             WED 07/30/97 04:06 Page:185

     1019      936    4                     IF RESTA.CADDR = OC_CONSOLE.CID(I)

    936  4 000124   000000 236000 1                  LDQ     I
         4 000125   000076 402007                    MPY     62,DL
         4 000126   000000 470400 xsym               LDP0    OC_CONSOLE$
         4 000127   000012 236106                    LDQ     10,QL,PR0
         4 000130   000022 772000                    QRL     18
         4 000131   200004 756100                    STQ     4,,AUTO
         4 000132   000241 236000 1                  LDQ     STA+1
         4 000133   377777 376007                    ANQ     131071,DL
         4 000134   200004 116100                    CMPQ    4,,AUTO
         4 000135   000155 601000 4                  TNZ     s:944

     1020      937    4                     THEN
     1021      938    5                     DO;

     1022      939    5                          OC_CONSOLE.GHST(I) = '0'B /*FALSE#*/;

    939  4 000136   000000 236000 1                  LDQ     I
         4 000137   000076 402007                    MPY     62,DL
         4 000140   000000 620006                    EAX0    0,QL
         4 000141   000000 236000 5                  LDQ     0
         4 000142   000017 356110                    ANSQ    15,X0,PR0

     1023      940    5                          OC_CONSOLE.SYSID(I) = 0;

    940  4 000143   000000 221003                    LDX1    0,DU
         4 000144   000000 470400 xsym               LDP0    OC_CONSOLE$
         4 000145   000012 441110                    SXL1    10,X0,PR0

     1024      941    5                          OC_CONSOLE.GHSTRD(I) = '0'B /*FALSE#*/;

    941  4 000146   000000 470400 xsym               LDP0    OC_CONSOLE$
         4 000147   000001 236000 5                  LDQ     1
         4 000150   000017 356110                    ANSQ    15,X0,PR0

PL6.E3A0      #006=OCP$CSCG File=OCP$PROCESS.:E05TSI                             WED 07/30/97 04:06 Page:186
     1025      942    5                          I = OC_MAXCONSOLE + 1 /* NUM_CONSOLES# */;

    942  4 000151   000000 235000 xsym               LDA     OC_MAXCONSOLE
         4 000152   000022 771000                    ARL     18
         4 000153   000001 035007                    ADLA    1,DL
         4 000154   000000 755000 1                  STA     I

     1026      943    5                        END;               /* DO IF FOUND */

     1027      944    4                   END;                    /* DO I=0 TO MAX_CONSOLES# */

    944  4 000155   000000 235000 1                  LDA     I
         4 000156   000001 035007                    ADLA    1,DL
         4 000157   000000 755000 1                  STA     I
         4 000160   000000 236000 xsym               LDQ     OC_MAXCONSOLE
         4 000161   000022 772000                    QRL     18
         4 000162   000000 116000 1                  CMPQ    I
         4 000163   000124 603000 4                  TRC     s:936

     1028      945    3              END;                         /* DO IF GHST */

     1029      946    2           NEXT$ = OCP_USED_HEAD$;

    946  4 000164   000000 236000 xsym               LDQ     OCP_USED_HEAD
         4 000165   000237 756000 1                  STQ     NEXT$

     1030      947    3           DO WHILE (NEXT$ ~= ADDR (NIL));

    947  4 000166   000203 710000 4                  TRA     s:952

     1031      948    3                IF NEXT$ -> OC$PEND.STATION = STA /* found one */

    948  4 000167   000237 470400 1                  LDP0    NEXT$
         4 000170   040000 106500                    CMPC    fill='040'O
         4 000171   000004 000010                    ADSC9   4,,PR0                   cn=0,n=8
         4 000172   000240 000010 1                  ADSC9   STA                      cn=0,n=8
         4 000173   000200 601000 4                  TNZ     s:951
PL6.E3A0      #006=OCP$CSCG File=OCP$PROCESS.:E05TSI                             WED 07/30/97 04:06 Page:187

     1032      949    3                THEN
     1033      950    3                     CALL OCP$PENDRMV (NEXT$);

    950  4 000174   000002 630400 5                  EPPR0   2
         4 000175   000017 631400 xsym               EPPR1   B_VECTNIL+15
         4 000176   000000 701000 xent               TSX1    OCP$PENDRMV
         4 000177   000000 011000                    NOP     0

     1034      951    3                NEXT$ = NEXT$ -> OC$PEND.LINK$;

    951  4 000200   000237 470400 1                  LDP0    NEXT$
         4 000201   000000 236100                    LDQ     0,,PR0
         4 000202   000237 756000 1                  STQ     NEXT$

     1035      952    3              END;                         /* WHILE (NEXT$ ~= ADDR (NIL)         */

    952  4 000203   000001 116000 xsym               CMPQ    B_VECTNIL+1
         4 000204   000167 601000 4                  TNZ     s:948

     1036      953                                                /**/
     1037      954    3           DO I = 0 TO ((LENGTHC (JG_GHOSTS)) / 8);

    954  4 000205   000000 450000 1                  STZ     I
         4 000206   000220 710000 4                  TRA     s:957+3

     1038      955    3                IF STA = JG_GHOSTS (I)

    955  4 000207   000000 235000 1                  LDA     I
         4 000210   000001 735000                    ALS     1
         4 000211   000000 620005                    EAX0    0,AL
         4 000212   000240 237000 1                  LDAQ    STA
         4 000213   000002 117010 1                  CMPAQ   JG_GHOSTS,X0
         4 000214   000232 600000 4                  TZE     DONT_FLUSH

     1039      956    3                THEN GOTO DONT_FLUSH;
     1040      957    3              END;
PL6.E3A0      #006=OCP$CSCG File=OCP$PROCESS.:E05TSI                             WED 07/30/97 04:06 Page:188

    957  4 000215   000000 235000 1                  LDA     I
         4 000216   000001 035007                    ADLA    1,DL
         4 000217   000000 755000 1                  STA     I
         4 000220   000000 235000 1                  LDA     I
         4 000221   000031 115007                    CMPA    25,DL
         4 000222   000207 602000 4                  TNC     s:955

     1041      958
     1042      959    2           CGMA_FLUSH.DEST# = STA;

    959  4 000223   000240 237000 1                  LDAQ    STA
         4 000224   000145 755000 1                  STA     CGMA_FLUSH+9
         4 000225   000146 756000 1                  STQ     CGMA_FLUSH+10

     1043      960    2           CALL M$FWCG (FLUSH_OUTPUT) ALTRET (DONT_FLUSH);

    960  4 000226   000062 630400 1                  EPPR0   FLUSH_OUTPUT
         4 000227   500005 713400                    CLIMB   alt,+32773
         4 000230   406400 401760                    pmme    nvectors=14
         4 000231   000232 702000 4                  TSX2    DONT_FLUSH

    959  4 000232                       DONT_FLUSH   null
     1044      961    2   DONT_FLUSH: ;
     1045      962                                                /**/
     1046      963    2           IF OC_ZIP

    963  4 000232   000000 234000 xsym               SZN     OC_ZIP
         4 000233   000240 605000 4                  TPL     s:969

     1047      964    2           THEN
     1048      965    2                CALL OCD$MARKEM (STA);

    965  4 000234   000003 630400 5                  EPPR0   3
         4 000235   000017 631400 xsym               EPPR1   B_VECTNIL+15
         4 000236   000000 701000 xent               TSX1    OCD$MARKEM
         4 000237   000000 011000                    NOP     0
PL6.E3A0      #006=OCP$CSCG File=OCP$PROCESS.:E05TSI                             WED 07/30/97 04:06 Page:189

     1049      966                                                /**/
     1050      967                                                /**/
     1051      968    2        END;                               /* CASE (EVENT)                       */

     1052      969    1        RETURN;

    969  4 000240   000000 702200 xent               TSX2  ! X66_ARET
     1053      970    1   END OCP$CSCG;
     1054      971        %EOD;

PL6.E3A0      #006=OCP$CSCG File=OCP$PROCESS.:E05TSI                             WED 07/30/97 04:06 Page:190
--  Include file information  --

   OCP_DATA_R.:E05TOU  cannot be made into a system file and is referenced.
   OC$MESSHD_C.:E05TOU  is referenced.
   OC_DAT_R.:E05TOU  cannot be made into a system file and is referenced.
   OC$PEND.:E05TOU  cannot be made into a system file and is referenced.
   JG_GHOSTS_C.:E05TOU  is referenced.
   OCI_SUBS_C.:E05TOU  is referenced.
   CP_6.:E05TOU  cannot be made into a system file and is referenced.
   B$JIT_C.:E05TOU  was found in the system file and is never referenced.
   CP_6_C.:E05TOU  was found in the system file and is referenced.
      No diagnostics issued in procedure OCP$CSCG.
PL6.E3A0      #006=OCP$CSCG File=OCP$PROCESS.:E05TSI                             WED 07/30/97 04:06 Page:191

 **** Variables and constants ****

  ****  Section 001  Data  OCP$CSCG

  ****  Scalars and arrays  ****
OctLoc.c.b A Datatyp(siz) R M Lvl/name                 OctLoc.c.b A Datatyp(siz) R M Lvl/name

   134-0-0/w STRC(576)   r     1 CGMA_FLUSH               212-0-0/d STRC(720)   r     1 CS_CGCP
   236-0-0/w UBIN        r     1 EVENT                    206-0-0/d STRC(144)   r     1 EXTND_CSCG
    62-0-0/d STRC(1512)  r     1 FLUSH_OUTPUT               0-0-0/w UBIN        r     1 I
     2-0-0/d CHAR(8)     r     1 JG_GHOSTS(0:23)
   166-0-0/d STRC(576)   r     1 KILL_GHOST               237-0-0/w PTR         r     1 NEXT$
   240-0-0/c STRC(72)    r     1 RESTA                    154-0-0/d STRC(72)    r     1 SCGMA_FLUSH
   240-0-0/c CHAR(8)     r     1 STA                      156-0-0/w STRC(288)   r     1 STAT

  ****  Section 003 RoData OCP$CSCG

  ****  Scalars and arrays  ****
OctLoc.c.b A Datatyp(siz) R M Lvl/name                 OctLoc.c.b A Datatyp(siz) R M Lvl/name

    62-0-0/d STRC(1872)  r     1 CS_CGCTL                   0-0-0/d STRC(1800)  r     1 CS_CGINFO

  ****  SYMREF variables  ****

  ****  Scalars and arrays  ****
OctLoc.c.b A Datatyp(siz) R M Lvl/name                 OctLoc.c.b A Datatyp(siz) R M Lvl/name

     0-0-0/w STRC        r     1 OCP_USED_HEAD              0-0-0/w PTR         r     1 OCP_USED_HEAD$
     0-0-0/w PTR         r     1 OC_CONSOLE$                0-0-0/w UBIN(18)    r     1 OC_MAXCONSOLE
     0-0-0/c STRC(1800)  r     1 OC_MSGBUFFER               0-0-0/w BIT         r     1 OC_ZIP

  ****  BASED and DCB variables  ****

  ****  Scalars and arrays  ****
OctLoc.c.b A Datatyp(siz) R M Lvl/name                 OctLoc.c.b A Datatyp(siz) R M Lvl/name

     0-0-0/w STRC(144)   r     1 B$CGAURD                   0-0-0N  NULL        r     1 M$CSCG
PL6.E3A0      #006=OCP$CSCG File=OCP$PROCESS.:E05TSI                             WED 07/30/97 04:06 Page:192
     0-0-0/w ASTR(360)   r     1 OC$PEND
     0-0-0/w STRC(2205)  r     1 OC_CONSOLE(0:0)


   Procedure OCP$CSCG requires 161 words for executable code.
   Procedure OCP$CSCG requires 6 words of local(AUTO) storage.
PL6.E3A0      #006=OCP$CSCG File=OCP$PROCESS.:E05TSI                             WED 07/30/97 04:06 Page:193
          *** CROSS REFERENCE LISTING ***
**     DENOTES     IDENTIFIER DEFINITION
<<                 IDENTIFIER'S VALUE SET
>>                 IDENTIFIER'S VALUE USED
<>                 IDENTIFIER SET AND/OR USED
--                 IDENTIFIER REFERENCED
PL6.E3A0      #006=OCP$CSCG File=OCP$PROCESS.:E05TSI                             WED 07/30/97 04:06 Page:194
          MINI XREF LISTING

B$CGAURD.EVENT
       165**DCL       888>>ASSIGN
B$CGAURD.STATION
       165**DCL       165--REDEF     889>>ASSIGN
CGMA_FLUSH
       444**DCL       423--DCLINIT
CGMA_FLUSH.DEST#
       452**DCL       959<<ASSIGN
CGMA_FLUSH.MSGIDXT
       453**DCL       456--REDEF
CS_CGCP
       588**DCL       567--DCLINIT   635--DCLINIT
CS_CGCP.DVBYTE.REREAD#
       602**DCL       603--REDEF
CS_CGCP.MAXPG#
       594**DCL       926<<ASSIGN    926>>ASSIGN
CS_CGCTL
       634**DCL       927<>CALL
CS_CGCTL.V
       639**DCL       634--DCLINIT
CS_CGINFO
       566**DCL       924<>CALL
CS_CGINFO.V
       571**DCL       566--DCLINIT
DONT_FLUSH
       959**LABEL     956--GOTO      960--CALLALT
EVENT
       872**DCL       888<<ASSIGN    890>>DOCASE
EXTND_CSCG
       548**DCL       922<>CALL
EXTND_CSCG.V
       548**DCL       548--DCLINIT
PL6.E3A0      #006=OCP$CSCG File=OCP$PROCESS.:E05TSI                             WED 07/30/97 04:06 Page:195
FLUSH_OUTPUT
       423**DCL       960<>CALL
FLUSH_OUTPUT.V
       426**DCL       423--DCLINIT
I
       270**DCL       897<<DOINDEX   898>>IF        901>>IF        904>>ASSIGN    905>>ASSIGN    935<<DOINDEX
       936>>IF        939>>ASSIGN    940>>ASSIGN    941>>ASSIGN    942<<ASSIGN    954<<DOINDEX   955>>IF
JG_GHOSTS
       380**DCL       954--DOINDEX   955>>IF
KILL_GHOST
       909**LABEL     909--GOTO      915<>CALL
KILL_GHOST.V
       523**DCL       522--DCLINIT
KILL_GHOST.V.DVBYTE.REREAD#
       525**DCL       525--REDEF
LOGGED_IN
       914**LABEL     906--GOTO      915--CALLALT
M$CGCTL
        50**DCL-ENT   927--CALL
M$CGINFO
        50**DCL-ENT   924--CALL
M$DEACTIVATE
        49**DCL-ENT   915--CALL
M$EXTEND
        33**DCL-ENT   922--CALL
M$FWCG
        50**DCL-ENT   960--CALL
NEXT$
       873**DCL       946<<ASSIGN    947>>DOWHILE   948>>IF        950<>CALL      951<<ASSIGN    951>>ASSIGN
NEXT_LINE
       922**LABEL     922--CALLALT
NEXT_LINE2
       922**LABEL     924--CALLALT
NEXT_LINE3
       926**LABEL     927--CALLALT
OC$PEND.LINK$
PL6.E3A0      #006=OCP$CSCG File=OCP$PROCESS.:E05TSI                             WED 07/30/97 04:06 Page:196
       656**DCL       951>>ASSIGN
OC$PEND.SIZEB_MSG
       658**DCL       669--IMP-SIZ
OC$PEND.STATION
       663**DCL       948>>IF
OC$PEND.WSN
       664**DCL       665--REDEF
OCD$MARKEM
       169**DCL-ENT   965--CALL
OCP$PENDRMV
       871**DCL-ENT   950--CALL
OCP_FREE_HEAD
       862**DCL       863--REDEF
OCP_MSGBUF_FREE.B
       866**DCL       866--REDEF
OCP_USED_HEAD
       863**DCL       864--REDEF
OCP_USED_HEAD$
       864**DCL       946>>ASSIGN
OCP_USED_TAIL
       864**DCL       864--REDEF
OC_CONSOLE.ACTIVE
       809**DCL       901>>IF
OC_CONSOLE.ATTR
       806**DCL       806--REDEF
OC_CONSOLE.ATTRO
       807**DCL       807--REDEF
OC_CONSOLE.CID
       805**DCL       806--REDEF     898>>IF        936>>IF
OC_CONSOLE.GHST
       809**DCL       904<<ASSIGN    939<<ASSIGN
OC_CONSOLE.GHSTRD
       809**DCL       941<<ASSIGN
OC_CONSOLE.STATION
       804**DCL       804--REDEF
OC_CONSOLE.SYSID
PL6.E3A0      #006=OCP$CSCG File=OCP$PROCESS.:E05TSI                             WED 07/30/97 04:06 Page:197
       806**DCL       905<<ASSIGN    940<<ASSIGN
OC_CONSOLE$
       803**DCL       804--IMP-PTR   898>>IF        901>>IF        904>>ASSIGN    905>>ASSIGN    936>>IF
       939>>ASSIGN    940>>ASSIGN    941>>ASSIGN
OC_DIR
       846**DCL       846--REDEF
OC_INTBIT
       846**DCL       847--REDEF
OC_INTMSG
       723**DCL       736--REDEF
OC_INTMSG.FLAGS
       730**DCL       731--REDEF
OC_INTMSG.MESS
       736**DCL       736--REDEF
OC_INTMSG.MSGID
       726**DCL       727--REDEF
OC_INTMSG.WSN
       733**DCL       734--REDEF
OC_MASK
       847**DCL       847--REDEF
OC_MAXCONSOLE
       803**DCL       897>>DOINDEX   935>>DOINDEX   942>>ASSIGN
OC_MESSBUF
       738**DCL       753--REDEF     767--REDEF
OC_MESSBUF.FLAGS
       745**DCL       746--REDEF
OC_MESSBUF.MESS
       751**DCL       751--REDEF
OC_MESSBUF.MSGID
       741**DCL       742--REDEF
OC_MESSBUF.WSN
       748**DCL       749--REDEF
OC_MESSBUF1.FLAGS
       760**DCL       761--REDEF
OC_MESSBUF1.LEN
       766**DCL       766--REDEF
PL6.E3A0      #006=OCP$CSCG File=OCP$PROCESS.:E05TSI                             WED 07/30/97 04:06 Page:198
OC_MESSBUF1.MSGID
       756**DCL       757--REDEF
OC_MESSBUF1.WSN
       763**DCL       764--REDEF
OC_MSGBUFFER
       769**DCL       784--REDEF     888--ASSIGN    889--ASSIGN
OC_MSGBUFFER.FLAGS
       776**DCL       777--REDEF
OC_MSGBUFFER.MESS
       782**DCL       782--REDEF
OC_MSGBUFFER.MSGID
       772**DCL       773--REDEF
OC_MSGBUFFER.WSN
       779**DCL       780--REDEF
OC_MSGBUFFER2.FLAGS
       791**DCL       792--REDEF
OC_MSGBUFFER2.MSGID
       787**DCL       788--REDEF
OC_MSGBUFFER2.WSN
       794**DCL       795--REDEF
OC_PARAM
       802**DCL       802--REDEF
OC_QUEUE.PARMC
       801**DCL       801--REDEF
OC_ZIP
       848**DCL       963>>IF
RESTA.CADDR
       880**DCL       898>>IF        936>>IF
RESTA.SYSID
       878**DCL       905>>ASSIGN
RESTA.TEXT
       877**DCL       894>>IF        932>>IF
SCGMA_FLUSH
       472**DCL       424--DCLINIT
STA
       874**DCL       876--REDEF     889<<ASSIGN    914>>ASSIGN    948>>IF        955>>IF        959>>ASSIGN
PL6.E3A0      #006=OCP$CSCG File=OCP$PROCESS.:E05TSI                             WED 07/30/97 04:06 Page:199
       965<>CALL
STAT
       492**DCL       522--DCLINIT
STAT.MSGIDXT
       502**DCL       505--REDEF
STAT.STATION#
       496**DCL       914<<ASSIGN

PL6.E3A0      #007=OCP$PENDRMV File=OCP$PROCESS.:E05TSI                          WED 07/30/97 04:06 Page:200
     1055        1        /*M* OCP$PENDRMV remove read-to-console-pending entry */
     1056        2        /*T***********************************************************/
     1057        3        /*T*                                                         */
     1058        4        /*T* Copyright (c) Bull HN Information Systems Inc., 1997    */
     1059        5        /*T*                                                         */
     1060        6        /*T***********************************************************/
     1061        7        %SET LISTSUB='1'B;
     1062        8        /*
     1063        9         ###    ###   ####    #   ####   #####  #   #  ####   ####   #   #  #   #
     1064       10        #   #  #   #  #   #  ###  #   #  #      #   #  #   #  #   #  ## ##  #   #
     1065       11        #   #  #      #   # # #   #   #  #      ##  #  #   #  #   #  # # #  #   #
     1066       12        #   #  #      ####   ###  ####   ####   # # #  #   #  ####   #   #  #   #
     1067       13        #   #  #      #       # # #      #      #  ##  #   #  # #    #   #  #   #
     1068       14        #   #  #   #  #      ###  #      #      #   #  #   #  #  #   #   #   # #
     1069       15         ###    ###   #       #   #      #####  #   #  ####   #   #  #   #    #
     1070       16                                                                   */
     1071       17                                                /**/
     1072       18                                                /**/
     1073       19        OCP$PENDRMV: PROC (REMOVE$);
     1074       20    1   DCL REMOVE$ PTR;
     1075       21    1   DCL FREE$ PTR STATIC;
     1076       22    1   DCL SAVE$ PTR STATIC;
     1077       23    1   DCL NEXT$ PTR STATIC;
     1078       24    1   DCL 1 NEXT REDEF NEXT$,
     1079       25    1            2 PG# UBIN(8) UNAL,
     1080       26    1            2 * UBIN(28) UNAL;
     1081       27        %INCLUDE CP_6;
     1082      108        %INCLUDE B_SEGIDS_C;
     1083      647    1   DCL 1 DS3_VECT STATIC,
     1084      648    1            2 * BIT(60) UNAL,
     1085      649    1            2 SEGID BIT(12) INIT(%DS3SID) UNAL;
     1086      650    1   DCL 1 DS3_PTR STATIC ALIGNED,
     1087      651    1            2 * UBIN(24) UNAL INIT(0),
     1088      652    1            2 * BIT(12) UNAL INIT(%DS3SID);
     1089      653    1   DCL DS3$ REDEF DS3_PTR PTR;
     1090      654                                                /**/
     1091      655    1   DCL BYTE_COUNT STATIC UBIN WORD ALIGNED;
PL6.E3A0      #007=OCP$PENDRMV File=OCP$PROCESS.:E05TSI                          WED 07/30/97 04:06 Page:201
     1092      656    1   DCL SUPPOSED$ PTR STATIC ALIGNED;
     1093      657    1   DCL REAL$ PTR STATIC ALIGNED;
     1094      658                                                /**/
     1095      659        %INCLUDE OC$PEND;
     1096      704             %OC$PENDING;
     1097      708                                                /**/
     1098      709                                                /**/
     1099      710        %INCLUDE OCI_SUBS_C;
     1100      808                                                /**/
     1101      809                                                /**/
     1102      810                                                /**/
     1103      811        %INCLUDE OCP_DATA_R;
     1104      828            %FPT_FDS (RESULTS=DS3_VECT,SEGSIZE=1024);
     1105      843        /*
     1106      844                                         */
     1107      845    1        FREE$ = REMOVE$;
     1108      846                                                /**/
     1109      847                                           /* If this is the first entry in
     1110      848                                                the list, it may be the only
     1111      849                                                entry...in any case, the used
     1112      850                                                head pointer must be fixed */
     1113      851    1        IF FREE$ = OCP_USED_HEAD$
     1114      852    1        THEN
     1115      853    2        DO;
     1116      854    2             IF FREE$ -> OC$PEND.LINK$ = ADDR(NIL)
     1117      855    2             THEN
     1118      856    3             DO;
     1119      857    3                  OCP_FREE_HEAD$ = DS3$;
     1120      858    3                  OCP_USED_HEAD$ = ADDR(NIL);
     1121      859    3                  OCP_USED_TAIL$ = DS3$;
     1122      860    3                  OCP_PEND_USED = 0;
     1123      861    3                END;                       /* DO IF the only entry */
     1124      862    2             ELSE
     1125      863    3             DO;
     1126      864    3                  OCP_USED_HEAD$ = OCP_USED_HEAD$ -> OC$PEND.LINK$;
     1127      865    3                END;                       /* DO IF multiple entries */
     1128      866    2           END;                            /* DO IF first in chain */
PL6.E3A0      #007=OCP$PENDRMV File=OCP$PROCESS.:E05TSI                          WED 07/30/97 04:06 Page:202
     1129      867                                                /**/
     1130      868                                                /**/
     1131      869                                           /* The entry to be removed is down
     1132      870                                                in the chain...find it, saving
     1133      871                                                the BLINK$ to the entry before
     1134      872                                                it in the chain */
     1135      873    1        ELSE
     1136      874    2        DO;
     1137      875    2             SAVE$ = OCP_USED_HEAD$;
     1138      876    2             NEXT$ = OCP_USED_HEAD$ -> OC$PEND.LINK$;
     1139      877                                                /**/
     1140      878    3             DO WHILE (NEXT$ ~= FREE$);
     1141      879    3                  SAVE$ = NEXT$;
     1142      880    3                  NEXT$ = NEXT$ -> OC$PEND.LINK$;
     1143      881    3                END;                       /* The hunt for the entry */
     1144      882                                                /**/
     1145      883    2             IF FREE$ = OCP_USED_TAIL$     /* Special case cleanup for
     1146      884                                                     the end of the memory
     1147      885                                                     chunk used */
     1148      886    2             THEN
     1149      887    3             DO;
     1150      888    3                  OCP_PEND_USED = OCP_PEND_USED - FREE$ -> OC$PEND.SIZEW_ENTRY;
     1151      889    3                  SAVE$ -> OC$PEND.LINK$ = ADDR(NIL);
     1152      890    3                  OCP_USED_TAIL$ = SAVE$;
     1153      891    3                  OCP_FREE_HEAD$ = FREE$;
     1154      892    3                END;                       /* DO if none following me */
     1155      893    2             ELSE
     1156      894    2                  SAVE$ -> OC$PEND.LINK$ = NEXT$ -> OC$PEND.LINK$;
     1157      895                                                /**/
     1158      896    2           END;                            /* DO IF NOT FIRST IN LINE */
     1159      897                                                /**/
     1160      898                                                /**/
     1161      899    1        OCP_PEND_CLEANUP = OCP_PEND_CLEANUP + 1;
     1162      900                                                /**/
     1163      901    1        IF (OCP_PEND_CLEANUP >= OCP_PEND_CLEANUP_THRESH)
     1164      902    1             AND
     1165      903    1             (OCP_PEND_USED ~= 0)
PL6.E3A0      #007=OCP$PENDRMV File=OCP$PROCESS.:E05TSI                          WED 07/30/97 04:06 Page:203
     1166      904    1        THEN
     1167      905    2        DO;
     1168      906                                                /**/
     1169      907                                           /* Perform garbage collection on
     1170      908                                                the remaining entries, moving
     1171      909                                                them to be one after another
     1172      910                                                starting from the beginning
     1173      911                                                of the memory segment */
     1174      912    2             OCP_PEND_CLEANUP = 0;
     1175      913                                                /**/
     1176      914                                           /* ****************************
     1177      915                                                WARNING! WARNING! WARNING!
     1178      916                                                There is a very dirty trick
     1179      917                                                performed on the next line.
     1180      918                                                SAVE$ is being set to an
     1181      919                                                address that is not in an
     1182      920                                                OC$PEND structure (LINK$)
     1183      921                                                THIS MEANS THAT THE FIRST
     1184      922                                                ENTRY IN OC$PEND MUST BE
     1185      923                                                THE FLINK$...OTHERWISE ANOTHER
     1186      924                                                METHOD OF UPDATING
     1187      925                                                     OCP_USED_HEAD$
     1188      926                                                          MUST BE FOUND!!!! */
     1189      927    2             SAVE$ = ADDR(OCP_USED_HEAD$);
     1190      928                                                /**/
     1191      929    2             SUPPOSED$ = DS3$;
     1192      930    2             REAL$ = OCP_USED_HEAD$;
     1193      931                                                /**/
     1194      932                                                /* The chain is searched. For
     1195      933                                                     each entry that does not
     1196      934                                                     fall where it is suppos-
     1197      935                                                     ed to, move it to where
     1198      936                                                     it's supposed to be, and
     1199      937                                                     update the FLINK$ in the
     1200      938                                                     preceeding entry */
     1201      939    3             DO WHILE (REAL$ ~= ADDR(NIL));
     1202      940                                                /**/
PL6.E3A0      #007=OCP$PENDRMV File=OCP$PROCESS.:E05TSI                          WED 07/30/97 04:06 Page:204
     1203      941    3                  IF SUPPOSED$ ~= REAL$
     1204      942    3                  THEN
     1205      943    4                  DO;
     1206      944    4                       BYTE_COUNT = REAL$ -> OC$PEND.SIZEW_ENTRY *
     1207      945    4                            4 /* BYTESPERWD# */;
     1208      946    4                       SUPPOSED$ -> OC$PENDING = REAL$ -> OC$PENDING;
     1209      947    4                       SAVE$ -> OC$PEND.LINK$ = SUPPOSED$;
     1210      948    4                     END;                  /* DO IF OUT OF PLACE */
     1211      949                                                /**/
     1212      950    3                  SAVE$ = SUPPOSED$;
     1213      951    3                  REAL$ = SUPPOSED$ -> OC$PEND.LINK$;
     1214      952    3                  SUPPOSED$ = PINCRW(SUPPOSED$, SAVE$ -> OC$PEND.SIZEW_ENTRY);
     1215      953    3                END;                       /* DO WHILE MORE TO DO */
     1216      954                                                /**/
     1217      955    2             OCP_USED_TAIL$ = SAVE$;
     1218      956    2             OCP_FREE_HEAD$ = SUPPOSED$;
     1219      957    2             OCP_PEND_USED = 0;
     1220      958                                                /* Sum up the number of
     1221      959                                                     used words in the rest
     1222      960                                                     of the entries */
     1223      961    2             NEXT$ = OCP_USED_HEAD$;
     1224      962    3             DO WHILE (NEXT$ ~= ADDR(NIL));
     1225      963    3                  OCP_PEND_USED = OCP_PEND_USED + NEXT$ -> OC$PEND.SIZEW_ENTRY;
     1226      964    3                  NEXT$ = NEXT$ -> OC$PEND.LINK$;
     1227      965    3                END;                       /* DO WHILE MORE TO SUM */
     1228      966                                                /**/
     1229      967                                                /**/
     1230      968                                           /* Now attempt to free excess pages
     1231      969                                                that may be unneeded */
     1232      970    3             DO WHILE ((OCP_PEND_TOT - OCP_PEND_USED) > 1024 /* WDSPERPAGE# */);
     1233      971    3                  CALL M$FDS (FPT_FDS) ALTRET (CANT_FREE_PAGE);
     1234      972    3                  OCP_PEND_TOT = OCP_PEND_TOT - 1024 /* WDSPERPAGE# */;
     1235      973    3                END;                       /* DO WHILE MORE TO RELEASE */
     1236      974                                                /**/
     1237      975    3             DO WHILE ('0'B);
     1238      976    3   CANT_FREE_PAGE: ;
     1239      977    3                END;                       /* WHILE ALTRET */
PL6.E3A0      #007=OCP$PENDRMV File=OCP$PROCESS.:E05TSI                          WED 07/30/97 04:06 Page:205
     1240      978    2           END;                            /* DO IF TIME TO CLEANUP */
     1241      979    1        RETURN;
     1242      980    1   END OCP$PENDRMV;
     1243      981        %EOD;

PL6.E3A0      #007=OCP$PENDRMV File=OCP$PROCESS.:E05TSI                          WED 07/30/97 04:06 Page:206
--  Include file information  --

   OCP_DATA_R.:E05TOU  cannot be made into a system file and is referenced.
   OCI_SUBS_C.:E05TOU  is referenced.
   OC$PEND.:E05TOU  cannot be made into a system file and is referenced.
   B_SEGIDS_C.:E05TOU  is referenced.
   CP_6.:E05TOU  cannot be made into a system file and is referenced.
   B$JIT_C.:E05TOU  was found in the system file and is never referenced.
   CP_6_C.:E05TOU  was found in the system file and is referenced.
      No diagnostics issued in procedure OCP$PENDRMV.

   Procedure OCP$PENDRMV requires 134 words for executable code.
   Procedure OCP$PENDRMV requires 6 words of local(AUTO) storage.

PL6.E3A0      #007=OCP$PENDRMV File=OCP$PROCESS.:E05TSI                          WED 07/30/97 04:06 Page:207

 Object Unit name= OCP$PENDRMV                                File name= OCP$PROCESS.:E05TOU
 UTS= JUL 30 '97 04:06:23.40 WED                              Compiler= PL-6/E31         Sev=      00
 SharedLib= :SHARED_SYSTEM                                    Alt SharedLib=


    ****  Control sections  ****

 Sect   Type Bound  Init  Size OctSiz  Section name(segment info)
    0   Data  even  none    16     20  OCP$PENDRMV
    1   DCB   even  none     0      0  M$UC
    2   Proc  even  none   134    206  OCP$PENDRMV
    3  RoData even  none     2      2  OCP$PENDRMV

    ****  Entry defs  ****

                              Check   Calling
                             calling  sequence
  Sect OctLoc Primary Altret sequence   type   Parms  Name
     2      0   yes            yes      Std        1  OCP$PENDRMV

  ****  Entry refs  ****

         Check        Calling
        calling       sequence
Altret sequence SRef   type   Args  Name
                       nStd      0 X66_AUTO_1
                       Std       0 B_CONSPOOL_D
                       nStd      0 X66_ARET

  ****  Data refs  ****

  Flags:  r = read only, s = secondary
Flgs Name                             Flgs Name                             Flgs Name
     M$UC                                  OCP_PEND_TOT                          OCP_PEND_USED
     OCP_FREE_HEAD                         OCP_USED_HEAD                         OCP_USED_TAIL
     OCP_PEND_CLEANUP                      OCP_PEND_CLEANUP_THRESH               B_VECTNIL
PL6.E3A0      #007=OCP$PENDRMV File=OCP$PROCESS.:E05TSI                          WED 07/30/97 04:06 Page:208

  ****  Segment refs  ****

  Flags:  r = read only, s = secondary
Flgs Name                             Flgs Name                             Flgs Name
     ISSID
PL6.E3A0      #007=OCP$PENDRMV File=OCP$PROCESS.:E05TSI                          WED 07/30/97 04:06 Page:209


     1055        1        /*M* OCP$PENDRMV remove read-to-console-pending entry */
     1056        2        /*T***********************************************************/
     1057        3        /*T*                                                         */
     1058        4        /*T* Copyright (c) Bull HN Information Systems Inc., 1997    */
     1059        5        /*T*                                                         */
     1060        6        /*T***********************************************************/
     1061        7        %SET LISTSUB='1'B;
     1062        8        /*
     1063        9         ###    ###   ####    #   ####   #####  #   #  ####   ####   #   #  #   #
     1064       10        #   #  #   #  #   #  ###  #   #  #      #   #  #   #  #   #  ## ##  #   #
     1065       11        #   #  #      #   # # #   #   #  #      ##  #  #   #  #   #  # # #  #   #
     1066       12        #   #  #      ####   ###  ####   ####   # # #  #   #  ####   #   #  #   #
     1067       13        #   #  #      #       # # #      #      #  ##  #   #  # #    #   #  #   #
     1068       14        #   #  #   #  #      ###  #      #      #   #  #   #  #  #   #   #   # #
     1069       15         ###    ###   #       #   #      #####  #   #  ####   #   #  #   #    #
     1070       16                                                                   */
     1071       17                                                /**/
     1072       18                                                /**/
     1073       19        OCP$PENDRMV: PROC (REMOVE$);

     19  2 000000   000000 700200 xent  OCP$PENDRMV  TSX0  ! X66_AUTO_1
         2 000001   000006 000001                    ZERO    6,1

     1074       20    1   DCL REMOVE$ PTR;
     1075       21    1   DCL FREE$ PTR STATIC;
     1076       22    1   DCL SAVE$ PTR STATIC;
     1077       23    1   DCL NEXT$ PTR STATIC;
     1078       24    1   DCL 1 NEXT REDEF NEXT$,
     1079       25    1            2 PG# UBIN(8) UNAL,
     1080       26    1            2 * UBIN(28) UNAL;
     1081       27        %INCLUDE CP_6;
     1082      108        %INCLUDE B_SEGIDS_C;
     1083      647    1   DCL 1 DS3_VECT STATIC,
     1084      648    1            2 * BIT(60) UNAL,
     1085      649    1            2 SEGID BIT(12) INIT(%DS3SID) UNAL;
     1086      650    1   DCL 1 DS3_PTR STATIC ALIGNED,
PL6.E3A0      #007=OCP$PENDRMV File=OCP$PROCESS.:E05TSI                          WED 07/30/97 04:06 Page:210
     1087      651    1            2 * UBIN(24) UNAL INIT(0),
     1088      652    1            2 * BIT(12) UNAL INIT(%DS3SID);
     1089      653    1   DCL DS3$ REDEF DS3_PTR PTR;
     1090      654                                                /**/
     1091      655    1   DCL BYTE_COUNT STATIC UBIN WORD ALIGNED;
     1092      656    1   DCL SUPPOSED$ PTR STATIC ALIGNED;
     1093      657    1   DCL REAL$ PTR STATIC ALIGNED;
     1094      658                                                /**/
     1095      659        %INCLUDE OC$PEND;
     1096      704             %OC$PENDING;
     1097      708                                                /**/
     1098      709                                                /**/
     1099      710        %INCLUDE OCI_SUBS_C;
     1100      808                                                /**/
     1101      809                                                /**/
     1102      810                                                /**/
     1103      811        %INCLUDE OCP_DATA_R;
     1104      828            %FPT_FDS (RESULTS=DS3_VECT,SEGSIZE=1024);
     1105      843        /*
     1106      844                                         */
     1107      845    1        FREE$ = REMOVE$;

    845  2 000002   200003 470500                    LDP0    @REMOVE$,,AUTO
         2 000003   000000 236100                    LDQ     0,,PR0
         2 000004   000000 756000 0                  STQ     FREE$

     1108      846                                                /**/
     1109      847                                           /* If this is the first entry in
     1110      848                                                the list, it may be the only
     1111      849                                                entry...in any case, the used
     1112      850                                                head pointer must be fixed */
     1113      851    1        IF FREE$ = OCP_USED_HEAD$

    851  2 000005   000000 116000 xsym               CMPQ    OCP_USED_HEAD
         2 000006   000027 601000 2                  TNZ     s:875

     1114      852    1        THEN
PL6.E3A0      #007=OCP$PENDRMV File=OCP$PROCESS.:E05TSI                          WED 07/30/97 04:06 Page:211
     1115      853    2        DO;

     1116      854    2             IF FREE$ -> OC$PEND.LINK$ = ADDR(NIL)

    854  2 000007   000000 471400 0                  LDP1    FREE$
         2 000010   100000 236100                    LDQ     0,,PR1
         2 000011   000001 116000 xsym               CMPQ    B_VECTNIL+1
         2 000012   000023 601000 2                  TNZ     s:864

     1117      855    2             THEN
     1118      856    3             DO;

     1119      857    3                  OCP_FREE_HEAD$ = DS3$;

    857  2 000013   000005 236000 0                  LDQ     DS3_PTR
         2 000014   000000 756000 xsym               STQ     OCP_FREE_HEAD

     1120      858    3                  OCP_USED_HEAD$ = ADDR(NIL);

    858  2 000015   000001 236000 xsym               LDQ     B_VECTNIL+1
         2 000016   000000 756000 xsym               STQ     OCP_USED_HEAD

     1121      859    3                  OCP_USED_TAIL$ = DS3$;

    859  2 000017   000005 236000 0                  LDQ     DS3_PTR
         2 000020   000000 756000 xsym               STQ     OCP_USED_TAIL

     1122      860    3                  OCP_PEND_USED = 0;

    860  2 000021   000000 450000 xsym               STZ     OCP_PEND_USED

     1123      861    3                END;                       /* DO IF the only entry */

    861  2 000022   000073 710000 2                  TRA     s:899

     1124      862    2             ELSE
     1125      863    3             DO;
PL6.E3A0      #007=OCP$PENDRMV File=OCP$PROCESS.:E05TSI                          WED 07/30/97 04:06 Page:212

     1126      864    3                  OCP_USED_HEAD$ = OCP_USED_HEAD$ -> OC$PEND.LINK$;

    864  2 000023   000000 473400 xsym               LDP3    OCP_USED_HEAD
         2 000024   300000 236100                    LDQ     0,,PR3
         2 000025   000000 756000 xsym               STQ     OCP_USED_HEAD

     1127      865    3                END;                       /* DO IF multiple entries */

     1128      866    2           END;                            /* DO IF first in chain */

    866  2 000026   000073 710000 2                  TRA     s:899

     1129      867                                                /**/
     1130      868                                                /**/
     1131      869                                           /* The entry to be removed is down
     1132      870                                                in the chain...find it, saving
     1133      871                                                the BLINK$ to the entry before
     1134      872                                                it in the chain */
     1135      873    1        ELSE
     1136      874    2        DO;

     1137      875    2             SAVE$ = OCP_USED_HEAD$;

    875  2 000027   000000 236000 xsym               LDQ     OCP_USED_HEAD
         2 000030   000001 756000 0                  STQ     SAVE$

     1138      876    2             NEXT$ = OCP_USED_HEAD$ -> OC$PEND.LINK$;

    876  2 000031   000000 471400 xsym               LDP1    OCP_USED_HEAD
         2 000032   100000 236100                    LDQ     0,,PR1
         2 000033   000002 756000 0                  STQ     NEXT$

     1139      877                                                /**/
     1140      878    3             DO WHILE (NEXT$ ~= FREE$);

    878  2 000034   000000 116000 0                  CMPQ    FREE$
PL6.E3A0      #007=OCP$PENDRMV File=OCP$PROCESS.:E05TSI                          WED 07/30/97 04:06 Page:213
         2 000035   000045 600000 2                  TZE     s:883

     1141      879    3                  SAVE$ = NEXT$;

    879  2 000036   000002 236000 0                  LDQ     NEXT$
         2 000037   000001 756000 0                  STQ     SAVE$

     1142      880    3                  NEXT$ = NEXT$ -> OC$PEND.LINK$;

    880  2 000040   000002 470400 0                  LDP0    NEXT$
         2 000041   000000 236100                    LDQ     0,,PR0
         2 000042   000002 756000 0                  STQ     NEXT$

     1143      881    3                END;                       /* The hunt for the entry */

    881  2 000043   000000 116000 0                  CMPQ    FREE$
         2 000044   000036 601000 2                  TNZ     s:879

     1144      882                                                /**/
     1145      883    2             IF FREE$ = OCP_USED_TAIL$     /* Special case cleanup for

    883  2 000045   000000 236000 0                  LDQ     FREE$
         2 000046   000000 116000 xsym               CMPQ    OCP_USED_TAIL
         2 000047   000067 601000 2                  TNZ     s:894

     1146      884                                                     the end of the memory
     1147      885                                                     chunk used */
     1148      886    2             THEN
     1149      887    3             DO;

     1150      888    3                  OCP_PEND_USED = OCP_PEND_USED - FREE$ -> OC$PEND.SIZEW_ENTRY;

    888  2 000050   000000 470400 0                  LDP0    FREE$
         2 000051   000001 236100                    LDQ     1,,PR0
         2 000052   000022 772000                    QRL     18
         2 000053   200004 756100                    STQ     @REMOVE$+1,,AUTO
         2 000054   000000 236000 xsym               LDQ     OCP_PEND_USED
PL6.E3A0      #007=OCP$PENDRMV File=OCP$PROCESS.:E05TSI                          WED 07/30/97 04:06 Page:214
         2 000055   200004 136100                    SBLQ    @REMOVE$+1,,AUTO
         2 000056   000000 756000 xsym               STQ     OCP_PEND_USED

     1151      889    3                  SAVE$ -> OC$PEND.LINK$ = ADDR(NIL);

    889  2 000057   000001 236000 xsym               LDQ     B_VECTNIL+1
         2 000060   000001 471400 0                  LDP1    SAVE$
         2 000061   100000 756100                    STQ     0,,PR1

     1152      890    3                  OCP_USED_TAIL$ = SAVE$;

    890  2 000062   000001 236000 0                  LDQ     SAVE$
         2 000063   000000 756000 xsym               STQ     OCP_USED_TAIL

     1153      891    3                  OCP_FREE_HEAD$ = FREE$;

    891  2 000064   000000 236000 0                  LDQ     FREE$
         2 000065   000000 756000 xsym               STQ     OCP_FREE_HEAD

     1154      892    3                END;                       /* DO if none following me */

    892  2 000066   000073 710000 2                  TRA     s:899

     1155      893    2             ELSE
     1156      894    2                  SAVE$ -> OC$PEND.LINK$ = NEXT$ -> OC$PEND.LINK$;

    894  2 000067   000002 470400 0                  LDP0    NEXT$
         2 000070   000000 236100                    LDQ     0,,PR0
         2 000071   000001 471400 0                  LDP1    SAVE$
         2 000072   100000 756100                    STQ     0,,PR1

     1157      895                                                /**/
     1158      896    2           END;                            /* DO IF NOT FIRST IN LINE */

     1159      897                                                /**/
     1160      898                                                /**/
     1161      899    1        OCP_PEND_CLEANUP = OCP_PEND_CLEANUP + 1;
PL6.E3A0      #007=OCP$PENDRMV File=OCP$PROCESS.:E05TSI                          WED 07/30/97 04:06 Page:215

    899  2 000073   000000 235000 xsym               LDA     OCP_PEND_CLEANUP
         2 000074   000001 035007                    ADLA    1,DL
         2 000075   000000 755000 xsym               STA     OCP_PEND_CLEANUP

     1162      900                                                /**/
     1163      901    1        IF (OCP_PEND_CLEANUP >= OCP_PEND_CLEANUP_THRESH)

    901  2 000076   000000 236000 xsym               LDQ     OCP_PEND_CLEANUP
         2 000077   000000 116000 xsym               CMPQ    OCP_PEND_CLEANUP_THRESH
         2 000100   000205 602000 2                  TNC     CANT_FREE_PAGE
         2 000101   000000 235000 xsym               LDA     OCP_PEND_USED
         2 000102   000205 600000 2                  TZE     CANT_FREE_PAGE

     1164      902    1             AND
     1165      903    1             (OCP_PEND_USED ~= 0)
     1166      904    1        THEN
     1167      905    2        DO;

     1168      906                                                /**/
     1169      907                                           /* Perform garbage collection on
     1170      908                                                the remaining entries, moving
     1171      909                                                them to be one after another
     1172      910                                                starting from the beginning
     1173      911                                                of the memory segment */
     1174      912    2             OCP_PEND_CLEANUP = 0;

    912  2 000103   000000 450000 xsym               STZ     OCP_PEND_CLEANUP

     1175      913                                                /**/
     1176      914                                           /* ****************************
     1177      915                                                WARNING! WARNING! WARNING!
     1178      916                                                There is a very dirty trick
     1179      917                                                performed on the next line.
     1180      918                                                SAVE$ is being set to an
     1181      919                                                address that is not in an
     1182      920                                                OC$PEND structure (LINK$)
PL6.E3A0      #007=OCP$PENDRMV File=OCP$PROCESS.:E05TSI                          WED 07/30/97 04:06 Page:216
     1183      921                                                THIS MEANS THAT THE FIRST
     1184      922                                                ENTRY IN OC$PEND MUST BE
     1185      923                                                THE FLINK$...OTHERWISE ANOTHER
     1186      924                                                METHOD OF UPDATING
     1187      925                                                     OCP_USED_HEAD$
     1188      926                                                          MUST BE FOUND!!!! */
     1189      927    2             SAVE$ = ADDR(OCP_USED_HEAD$);

    927  2 000104   000000 236000 3                  LDQ     0
         2 000105   000001 756000 0                  STQ     SAVE$

     1190      928                                                /**/
     1191      929    2             SUPPOSED$ = DS3$;

    929  2 000106   000005 236000 0                  LDQ     DS3_PTR
         2 000107   000007 756000 0                  STQ     SUPPOSED$

     1192      930    2             REAL$ = OCP_USED_HEAD$;

    930  2 000110   000000 236000 xsym               LDQ     OCP_USED_HEAD
         2 000111   000010 756000 0                  STQ     REAL$

     1193      931                                                /**/
     1194      932                                                /* The chain is searched. For
     1195      933                                                     each entry that does not
     1196      934                                                     fall where it is suppos-
     1197      935                                                     ed to, move it to where
     1198      936                                                     it's supposed to be, and
     1199      937                                                     update the FLINK$ in the
     1200      938                                                     preceeding entry */
     1201      939    3             DO WHILE (REAL$ ~= ADDR(NIL));

    939  2 000112   000145 710000 2                  TRA     s:953

     1202      940                                                /**/
     1203      941    3                  IF SUPPOSED$ ~= REAL$

PL6.E3A0      #007=OCP$PENDRMV File=OCP$PROCESS.:E05TSI                          WED 07/30/97 04:06 Page:217
    941  2 000113   000007 236000 0                  LDQ     SUPPOSED$
         2 000114   000010 116000 0                  CMPQ    REAL$
         2 000115   000134 600000 2                  TZE     s:950

     1204      942    3                  THEN
     1205      943    4                  DO;

     1206      944    4                       BYTE_COUNT = REAL$ -> OC$PEND.SIZEW_ENTRY *

    944  2 000116   000010 470400 0                  LDP0    REAL$
         2 000117   000001 236100                    LDQ     1,,PR0
         2 000120   000020 772000                    QRL     16
         2 000121   000001 376000 3                  ANQ     1
         2 000122   000006 756000 0                  STQ     BYTE_COUNT

     1207      945    4                            4 /* BYTESPERWD# */;
     1208      946    4                       SUPPOSED$ -> OC$PENDING = REAL$ -> OC$PENDING;

    946  2 000123   000000 620006                    EAX0    0,QL
         2 000124   000007 471400 0                  LDP1    SUPPOSED$
         2 000125   000006 721000 0                  LXL1    BYTE_COUNT
         2 000126   000140 100540                    MLR     fill='000'O
         2 000127   000000 000010                    ADSC9   0,,PR0                   cn=0,n=*X0
         2 000130   100000 000011                    ADSC9   0,,PR1                   cn=0,n=*X1

     1209      947    4                       SAVE$ -> OC$PEND.LINK$ = SUPPOSED$;

    947  2 000131   000007 236000 0                  LDQ     SUPPOSED$
         2 000132   000001 473400 0                  LDP3    SAVE$
         2 000133   300000 756100                    STQ     0,,PR3

     1210      948    4                     END;                  /* DO IF OUT OF PLACE */

     1211      949                                                /**/
     1212      950    3                  SAVE$ = SUPPOSED$;

    950  2 000134   000001 756000 0                  STQ     SAVE$
PL6.E3A0      #007=OCP$PENDRMV File=OCP$PROCESS.:E05TSI                          WED 07/30/97 04:06 Page:218

     1213      951    3                  REAL$ = SUPPOSED$ -> OC$PEND.LINK$;

    951  2 000135   000007 470400 0                  LDP0    SUPPOSED$
         2 000136   000000 236100                    LDQ     0,,PR0
         2 000137   000010 756000 0                  STQ     REAL$

     1214      952    3                  SUPPOSED$ = PINCRW(SUPPOSED$, SAVE$ -> OC$PEND.SIZEW_ENTRY);

    952  2 000140   000001 471400 0                  LDP1    SAVE$
         2 000141   100001 220100                    LDX0    1,,PR1
         2 000142   000000 636010                    EAQ     0,X0
         2 000143   000007 036000 0                  ADLQ    SUPPOSED$
         2 000144   000007 756000 0                  STQ     SUPPOSED$

     1215      953    3                END;                       /* DO WHILE MORE TO DO */

    953  2 000145   000010 236000 0                  LDQ     REAL$
         2 000146   000001 116000 xsym               CMPQ    B_VECTNIL+1
         2 000147   000113 601000 2                  TNZ     s:941

     1216      954                                                /**/
     1217      955    2             OCP_USED_TAIL$ = SAVE$;

    955  2 000150   000001 236000 0                  LDQ     SAVE$
         2 000151   000000 756000 xsym               STQ     OCP_USED_TAIL

     1218      956    2             OCP_FREE_HEAD$ = SUPPOSED$;

    956  2 000152   000007 236000 0                  LDQ     SUPPOSED$
         2 000153   000000 756000 xsym               STQ     OCP_FREE_HEAD

     1219      957    2             OCP_PEND_USED = 0;

    957  2 000154   000000 450000 xsym               STZ     OCP_PEND_USED

     1220      958                                                /* Sum up the number of
PL6.E3A0      #007=OCP$PENDRMV File=OCP$PROCESS.:E05TSI                          WED 07/30/97 04:06 Page:219
     1221      959                                                     used words in the rest
     1222      960                                                     of the entries */
     1223      961    2             NEXT$ = OCP_USED_HEAD$;

    961  2 000155   000000 236000 xsym               LDQ     OCP_USED_HEAD
         2 000156   000002 756000 0                  STQ     NEXT$

     1224      962    3             DO WHILE (NEXT$ ~= ADDR(NIL));

    962  2 000157   000167 710000 2                  TRA     s:965

     1225      963    3                  OCP_PEND_USED = OCP_PEND_USED + NEXT$ -> OC$PEND.SIZEW_ENTRY;

    963  2 000160   000002 470400 0                  LDP0    NEXT$
         2 000161   000001 236100                    LDQ     1,,PR0
         2 000162   000022 772000                    QRL     18
         2 000163   000000 036000 xsym               ADLQ    OCP_PEND_USED
         2 000164   000000 756000 xsym               STQ     OCP_PEND_USED

     1226      964    3                  NEXT$ = NEXT$ -> OC$PEND.LINK$;

    964  2 000165   000000 236100                    LDQ     0,,PR0
         2 000166   000002 756000 0                  STQ     NEXT$

     1227      965    3                END;                       /* DO WHILE MORE TO SUM */

    965  2 000167   000001 116000 xsym               CMPQ    B_VECTNIL+1
         2 000170   000160 601000 2                  TNZ     s:963

     1228      966                                                /**/
     1229      967                                                /**/
     1230      968                                           /* Now attempt to free excess pages
     1231      969                                                that may be unneeded */
     1232      970    3             DO WHILE ((OCP_PEND_TOT - OCP_PEND_USED) > 1024 /* WDSPERPAGE# */);

    970  2 000171   000200 710000 2                  TRA     s:973

PL6.E3A0      #007=OCP$PENDRMV File=OCP$PROCESS.:E05TSI                          WED 07/30/97 04:06 Page:220
     1233      971    3                  CALL M$FDS (FPT_FDS) ALTRET (CANT_FREE_PAGE);

    971  2 000172   000012 630400 0                  EPPR0   FPT_FDS
         2 000173   430002 713400                    CLIMB   alt,fds
         2 000174   400400 401760                    pmme    nvectors=2
         2 000175   000205 702000 2                  TSX2    CANT_FREE_PAGE

     1234      972    3                  OCP_PEND_TOT = OCP_PEND_TOT - 1024 /* WDSPERPAGE# */;

    972  2 000176   002000 336007                    LCQ     1024,DL
         2 000177   000000 056000 xsym               ASQ     OCP_PEND_TOT

     1235      973    3                END;                       /* DO WHILE MORE TO RELEASE */

    973  2 000200   000000 236000 xsym               LDQ     OCP_PEND_TOT
         2 000201   000000 136000 xsym               SBLQ    OCP_PEND_USED
         2 000202   002000 116007                    CMPQ    1024,DL
         2 000203   000172 605400 2                  TPNZ    s:971

     1236      974                                                /**/
     1237      975    3             DO WHILE ('0'B);

    975  2 000204   000205 710000 2                  TRA     CANT_FREE_PAGE

    972  2 000205                       CANT_FREE_P* null
     1238      976    3   CANT_FREE_PAGE: ;
     1239      977    3                END;                       /* WHILE ALTRET */

     1240      978    2           END;                            /* DO IF TIME TO CLEANUP */

     1241      979    1        RETURN;

    979  2 000205   000000 702200 xent               TSX2  ! X66_ARET
     1242      980    1   END OCP$PENDRMV;
     1243      981        %EOD;

PL6.E3A0      #007=OCP$PENDRMV File=OCP$PROCESS.:E05TSI                          WED 07/30/97 04:06 Page:221
--  Include file information  --

   OCP_DATA_R.:E05TOU  cannot be made into a system file and is referenced.
   OCI_SUBS_C.:E05TOU  is referenced.
   OC$PEND.:E05TOU  cannot be made into a system file and is referenced.
   B_SEGIDS_C.:E05TOU  is referenced.
   CP_6.:E05TOU  cannot be made into a system file and is referenced.
   B$JIT_C.:E05TOU  was found in the system file and is never referenced.
   CP_6_C.:E05TOU  was found in the system file and is referenced.
      No diagnostics issued in procedure OCP$PENDRMV.
PL6.E3A0      #007=OCP$PENDRMV File=OCP$PROCESS.:E05TSI                          WED 07/30/97 04:06 Page:222

 **** Variables and constants ****

  ****  Section 000  Data  OCP$PENDRMV

  ****  Scalars and arrays  ****
OctLoc.c.b A Datatyp(siz) R M Lvl/name                 OctLoc.c.b A Datatyp(siz) R M Lvl/name

     6-0-0/w UBIN        r     1 BYTE_COUNT                 5-0-0/w PTR         r     1 DS3$
     5-0-0/w STRC        r     1 DS3_PTR                    3-0-0/b STRC(72)    r     1 DS3_VECT
    12-0-0/d STRC(216)   r     1 FPT_FDS                    0-0-0/w PTR         r     1 FREE$
     2-0-0/w PTR         r     1 NEXT$                     10-0-0/w PTR         r     1 REAL$
     1-0-0/w PTR         r     1 SAVE$                      7-0-0/w PTR         r     1 SUPPOSED$

  ****  Auto variables  ****

  ****  Scalars and arrays  ****
OctLoc.c.b A Datatyp(siz) R M Lvl/name                 OctLoc.c.b A Datatyp(siz) R M Lvl/name

     3-0-0/w PTR         r     1 @REMOVE$                  *0-0-0/w PTR         r     1 REMOVE$

  ****  SYMREF variables  ****

  ****  Scalars and arrays  ****
OctLoc.c.b A Datatyp(siz) R M Lvl/name                 OctLoc.c.b A Datatyp(siz) R M Lvl/name

     0-0-0/w STRC        r     1 OCP_FREE_HEAD              0-0-0/w PTR         r     1 OCP_FREE_HEAD$
     0-0-0/w UBIN        r     1 OCP_PEND_CLEANUP
     0-0-0/w UBIN        r     1 OCP_PEND_CLEANUP_THRESH
     0-0-0/w SBIN        r     1 OCP_PEND_TOT               0-0-0/w SBIN        r     1 OCP_PEND_USED
     0-0-0/w STRC        r     1 OCP_USED_HEAD              0-0-0/w PTR         r     1 OCP_USED_HEAD$
     0-0-0/w STRC        r     1 OCP_USED_TAIL              0-0-0/w PTR         r     1 OCP_USED_TAIL$

  ****  BASED and DCB variables  ****

  ****  Scalars and arrays  ****
OctLoc.c.b A Datatyp(siz) R M Lvl/name                 OctLoc.c.b A Datatyp(siz) R M Lvl/name

PL6.E3A0      #007=OCP$PENDRMV File=OCP$PROCESS.:E05TSI                          WED 07/30/97 04:06 Page:223
     0-0-0/w ASTR(360)   r     1 OC$PEND                    0-0-0/w ASTR(0)     r     1 OC$PENDING


   Procedure OCP$PENDRMV requires 134 words for executable code.
   Procedure OCP$PENDRMV requires 6 words of local(AUTO) storage.
PL6.E3A0      #007=OCP$PENDRMV File=OCP$PROCESS.:E05TSI                          WED 07/30/97 04:06 Page:224
          *** CROSS REFERENCE LISTING ***
**     DENOTES     IDENTIFIER DEFINITION
<<                 IDENTIFIER'S VALUE SET
>>                 IDENTIFIER'S VALUE USED
<>                 IDENTIFIER SET AND/OR USED
--                 IDENTIFIER REFERENCED
PL6.E3A0      #007=OCP$PENDRMV File=OCP$PROCESS.:E05TSI                          WED 07/30/97 04:06 Page:225
          MINI XREF LISTING

BYTE_COUNT
       655**DCL       706--IMP-SIZ   944<<ASSIGN    946>>ASSIGN    946>>ASSIGN
CANT_FREE_PAGE
       972**LABEL     971--CALLALT
DS3$
       653**DCL       857>>ASSIGN    859>>ASSIGN    929>>ASSIGN
DS3_PTR
       650**DCL       653--REDEF
DS3_VECT
       647**DCL       839--DCLINIT
FPT_FDS
       839**DCL       971<>CALL
FPT_FDS.V
       839**DCL       839--DCLINIT
FREE$
        21**DCL       845<<ASSIGN    851>>IF        854>>IF        878>>DOWHILE   883>>IF        888>>ASSIGN
       891>>ASSIGN
M$FDS
        71**DCL-ENT   971--CALL
NEXT$
        23**DCL        24--REDEF     876<<ASSIGN    878>>DOWHILE   879>>ASSIGN    880<<ASSIGN    880>>ASSIGN
       894>>ASSIGN    961<<ASSIGN    962>>DOWHILE   963>>ASSIGN    964<<ASSIGN    964>>ASSIGN
OC$PEND.LINK$
       668**DCL       854>>IF        864>>ASSIGN    876>>ASSIGN    880>>ASSIGN    889<<ASSIGN    894<<ASSIGN
       894>>ASSIGN    947<<ASSIGN    951>>ASSIGN    964>>ASSIGN
OC$PEND.SIZEB_MSG
       670**DCL       681--IMP-SIZ
OC$PEND.SIZEW_ENTRY
       669**DCL       888>>ASSIGN    944>>ASSIGN    952>>ASSIGN    963>>ASSIGN
OC$PEND.WSN
       676**DCL       677--REDEF
OC$PENDING
PL6.E3A0      #007=OCP$PENDRMV File=OCP$PROCESS.:E05TSI                          WED 07/30/97 04:06 Page:226
       705**DCL       946<<ASSIGN    946>>ASSIGN
OCP_FREE_HEAD
       820**DCL       821--REDEF
OCP_FREE_HEAD$
       821**DCL       857<<ASSIGN    891<<ASSIGN    956<<ASSIGN
OCP_MSGBUF_FREE.B
       824**DCL       824--REDEF
OCP_PEND_CLEANUP
       826**DCL       899<<ASSIGN    899>>ASSIGN    901>>IF        912<<ASSIGN
OCP_PEND_CLEANUP_THRESH
       826**DCL       901>>IF
OCP_PEND_TOT
       820**DCL       970>>DOWHILE   972<<ASSIGN    972>>ASSIGN
OCP_PEND_USED
       820**DCL       860<<ASSIGN    888<<ASSIGN    888>>ASSIGN    901>>IF        957<<ASSIGN    963<<ASSIGN
       963>>ASSIGN    970>>DOWHILE
OCP_USED_HEAD
       821**DCL       822--REDEF
OCP_USED_HEAD$
       822**DCL       851>>IF        858<<ASSIGN    864<<ASSIGN    864>>ASSIGN    875>>ASSIGN    876>>ASSIGN
       927--ASSIGN    930>>ASSIGN    961>>ASSIGN
OCP_USED_TAIL
       822**DCL       822--REDEF
OCP_USED_TAIL$
       822**DCL       859<<ASSIGN    883>>IF        890<<ASSIGN    955<<ASSIGN
REAL$
       657**DCL       930<<ASSIGN    939>>DOWHILE   941>>IF        944>>ASSIGN    946>>ASSIGN    951<<ASSIGN
REMOVE$
        20**DCL        19--PROC      845>>ASSIGN
SAVE$
        22**DCL       875<<ASSIGN    879<<ASSIGN    889>>ASSIGN    890>>ASSIGN    894>>ASSIGN    927<<ASSIGN
       947>>ASSIGN    950<<ASSIGN    952>>ASSIGN    955>>ASSIGN
SUPPOSED$
       656**DCL       929<<ASSIGN    941>>IF        946>>ASSIGN    947>>ASSIGN    950>>ASSIGN    951>>ASSIGN
       952<<ASSIGN    952>>ASSIGN    956>>ASSIGN

PL6.E3A0      #008=OCP$FINDCX File=OCP$PROCESS.:E05TSI                           WED 07/30/97 04:06 Page:227
     1244        1        /*M* OCP$FINDCX  find console index given its station */
     1245        2        /*T***********************************************************/
     1246        3        /*T*                                                         */
     1247        4        /*T* Copyright (c) Bull HN Information Systems Inc., 1997    */
     1248        5        /*T*                                                         */
     1249        6        /*T***********************************************************/
     1250        7        %SET LISTSUB='1'B;
     1251        8        /*
     1252        9         ###    ###   ####    #   #####   ###   #   #  ####    ###   #   #
     1253       10        #   #  #   #  #   #  ###  #        #    #   #  #   #  #   #  #   #
     1254       11        #   #  #      #   # # #   #        #    ##  #  #   #  #       # #
     1255       12        #   #  #      ####   ###  ####     #    # # #  #   #  #        #
     1256       13        #   #  #      #       # # #        #    #  ##  #   #  #       # #
     1257       14        #   #  #   #  #      ###  #        #    #   #  #   #  #   #  #   #
     1258       15         ###    ###   #       #   #       ###   #   #  ####    ###   #   #
     1259       16                                                                   */
     1260       17                                                /**/
     1261       18        /*F* NAME:  OCP$FINDCX
     1262       19             PURPOSE:  To find the internal console index of a
     1263       20                       console given its station.
     1264       21             DESCRIPTION:  All non-empty entries of OC_CONSOLE
     1265       22                           are searched until one matching the
     1266       23                           given station is found.
     1267       24                                                               */
     1268       25        /*D* NAME:  OCP$FINDCX
     1269       26             CALL:  CALL OCP$FINDCX (INDEX_, STATION);
     1270       27             DESCRIPTION:  The OC_CONSOLE console table is searched
     1271       28                           linearly for non-empty entries (ATTR = '0'B).
     1272       29                           When a non-empty entry containing a station
     1273       30                           which matches STATION is found, INDEX_ is
     1274       31                           set equal to its index and the calling
     1275       32                           procedure RETURNed to.
     1276       33             ASSUMPTIONS:  A non-empty entry will be found which
     1277       34                           matches STATION.
     1278       35                                                                     */
     1279       36        /*S*
     1280       37             SCREECH_CODE: OCP-S$OCCANTFINDU
PL6.E3A0      #008=OCP$FINDCX File=OCP$PROCESS.:E05TSI                           WED 07/30/97 04:06 Page:228
     1281       38             TYPE: SCREECH
     1282       39             MESSAGE: KEYIN got a direct-addressed message for a non-existent
     1283       40                       console.
     1284       41             REMARKS: An internal routine in KEYIN has not set the flag which
     1285       42                       would indicate it was O.K. to ignore this message.
     1286       43                                                                          */
     1287       44        OCP$FINDCX: PROC (INDEX_, STATION);
     1288       45    1   DCL INDEX_ UBIN WORD;
     1289       46    1   DCL STATION CHAR(8);
     1290       47    1   DCL I UBIN WORD STATIC;
     1291       48    1   DCL OCW$WRITE ENTRY(5);
     1292       49                                                /**/
     1293       50    1   DCL ARRG_MSG STATIC CHAR(0) INIT
     1294       51    1        (' KEYIN aborting -- CANT FIND STATION XXXXXXXX');
     1295       52                                                /**/
     1296       53        %INCLUDE CP_6;
     1297      134        %INCLUDE OC_SCODE_C;
     1298      159        %INCLUDE OC_SUBS_C;
     1299      890             %FPT_SCREECH (FPTN=OCP$SCREECH,
     1300      891                                 SCODE=OCP$SCODE);
     1301      905                                                /**/
     1302      906                                                /**/
     1303      907                  %VLP_SCREECH (FPTN=OCP$SCODE,STCLASS=CONSTANT SYMDEF,
     1304      908                                 FCG=OC,
     1305      909                                 MID=P,
     1306      910                                 MON='0'B,
     1307      911                                 CODE=%S$OCCANTFINDU);
     1308      981                                                /**/
     1309      982             %FPT_WAIT      (FPTN=WAIT_IT_OUT,
     1310      983                                 UNITS=25);
     1311      997                                                /**/
     1312      998                                                /**/
     1313      999        %INCLUDE OCI_SUBS_C;
     1314     1097        %INCLUDE OC_DAT_R;
     1315     1258        /*
     1316     1259                  Begin O C P $ F I N D C X  main
     1317     1260                                         */
PL6.E3A0      #008=OCP$FINDCX File=OCP$PROCESS.:E05TSI                           WED 07/30/97 04:06 Page:229
     1318     1261    2        DO I = 0 TO OC_MAXCONSOLE /* MAX_CONSOLES# */;
     1319     1262    2             IF OC_CONSOLE.ATTR (I) ~= '0'B
     1320     1263    2                  OR
     1321     1264    2                  OC_CONSOLE.ATTRO (I) ~= '0'B
     1322     1265    2             THEN
     1323     1266    2                  IF OC_CONSOLE.STATION (I) = STATION
     1324     1267    2                  THEN
     1325     1268    3                  DO;
     1326     1269    3                       INDEX_ = I;
     1327     1270    3                       RETURN;
     1328     1271    3                     END;
     1329     1272    2           END;
     1330     1273                                                /**/
     1331     1274    1        IF INDEX_ = OC_MAXCONSOLE + 1 /* NUM_CONSOLES# */
     1332     1275    1        THEN
     1333     1276    1             RETURN;
     1334     1277                                                /**/
     1335     1278                                           /* If we cant find a console with
     1336     1279                                                the requested station, dump it
     1337     1280                                                on the SYStem or DeLTA console
     1338     1281                                                wait a few...then screech */
     1339     1282                                                /**/
     1340     1283    1        CALL INSERT (ARRG_MSG, 37, 8, STATION);
     1341     1284    1        CALL OCW$WRITE (ARRG_MSG,
     1342     1285    1             SIZEC(ARRG_MSG),
     1343     1286    1             '020000'O /* M_DLTA  */ | '200000'O /* M_SYS  */,
     1344     1287    1             ' ');
     1345     1288    1        CALL M$WAIT (WAIT_IT_OUT);
     1346     1289                                                /**/
     1347     1290    1        CALL M$SCREECH (OCP$SCREECH);
     1348     1291    1   END OCP$FINDCX;

PL6.E3A0      #008=OCP$FINDCX File=OCP$PROCESS.:E05TSI                           WED 07/30/97 04:06 Page:230
--  Include file information  --

   OC$MESSHD_C.:E05TOU  is referenced.
   OC_DAT_R.:E05TOU  cannot be made into a system file and is referenced.
   OCI_SUBS_C.:E05TOU  is referenced.
   OC_SUBS_C.:E05TOU  is referenced.
   OC_SCODE_C.:E05TOU  is referenced.
   CP_6.:E05TOU  cannot be made into a system file and is referenced.
   B$JIT_C.:E05TOU  was found in the system file and is never referenced.
   CP_6_C.:E05TOU  was found in the system file and is referenced.
      No diagnostics issued in procedure OCP$FINDCX.

   Procedure OCP$FINDCX requires 49 words for executable code.
   Procedure OCP$FINDCX requires 6 words of local(AUTO) storage.

    No errors detected in file OCP$PROCESS.:E05TSI    .

PL6.E3A0      #008=OCP$FINDCX File=OCP$PROCESS.:E05TSI                           WED 07/30/97 04:06 Page:231

 Object Unit name= OCP$FINDCX                                 File name= OCP$PROCESS.:E05TOU
 UTS= JUL 30 '97 04:06:41.92 WED                              Compiler= PL-6/E31         Sev=      00
 SharedLib= :SHARED_SYSTEM                                    Alt SharedLib=


    ****  Control sections  ****

 Sect   Type Bound  Init  Size OctSiz  Section name(segment info)
    0   Data  even  none    26     32  OCP$FINDCX
    1   DCB   even  none     0      0  M$UC
    2  RoData even  UTS      2      2  OCP$FINDCX
    3   Proc  even  none    49     61  OCP$FINDCX
    4  RoData even  none     6      6  OCP$FINDCX

    ****  Entry defs  ****

                              Check   Calling
                             calling  sequence
  Sect OctLoc Primary Altret sequence   type   Parms  Name
     3      0   yes            yes      Std        2  OCP$FINDCX

  ****  Data defs  ****

 Sect OctLoc  Name                           Sect OctLoc  Name
    2      0  OCP$SCODE

  ****  Entry refs  ****

         Check        Calling
        calling       sequence
Altret sequence SRef   type   Args  Name
         yes           Std       5 OCW$WRITE
                       nStd      0 X66_AUTO_2
                       nStd      0 X66_ARET
                       Std       0 B_CONSPOOL_D
PL6.E3A0      #008=OCP$FINDCX File=OCP$PROCESS.:E05TSI                           WED 07/30/97 04:06 Page:232

  ****  Data refs  ****

  Flags:  r = read only, s = secondary
Flgs Name                             Flgs Name                             Flgs Name
     M$UC                                  OC_INTMSG                             OC_MESSBUF
     OC_MSGBUFFER                          OC_PARAM                              OC_CONSOLE$
     OC_MAXCONSOLE                         OC_DIR                                OC_INTBIT
     OC_MASK                               B_VECTNIL

  ****  Segment refs  ****

  Flags:  r = read only, s = secondary
Flgs Name                             Flgs Name                             Flgs Name
     ISSID                                 NULLSID
PL6.E3A0      #008=OCP$FINDCX File=OCP$PROCESS.:E05TSI                           WED 07/30/97 04:06 Page:233


     1244        1        /*M* OCP$FINDCX  find console index given its station */
     1245        2        /*T***********************************************************/
     1246        3        /*T*                                                         */
     1247        4        /*T* Copyright (c) Bull HN Information Systems Inc., 1997    */
     1248        5        /*T*                                                         */
     1249        6        /*T***********************************************************/
     1250        7        %SET LISTSUB='1'B;
     1251        8        /*
     1252        9         ###    ###   ####    #   #####   ###   #   #  ####    ###   #   #
     1253       10        #   #  #   #  #   #  ###  #        #    #   #  #   #  #   #  #   #
     1254       11        #   #  #      #   # # #   #        #    ##  #  #   #  #       # #
     1255       12        #   #  #      ####   ###  ####     #    # # #  #   #  #        #
     1256       13        #   #  #      #       # # #        #    #  ##  #   #  #       # #
     1257       14        #   #  #   #  #      ###  #        #    #   #  #   #  #   #  #   #
     1258       15         ###    ###   #       #   #       ###   #   #  ####    ###   #   #
     1259       16                                                                   */
     1260       17                                                /**/
     1261       18        /*F* NAME:  OCP$FINDCX
     1262       19             PURPOSE:  To find the internal console index of a
     1263       20                       console given its station.
     1264       21             DESCRIPTION:  All non-empty entries of OC_CONSOLE
     1265       22                           are searched until one matching the
     1266       23                           given station is found.
     1267       24                                                               */
     1268       25        /*D* NAME:  OCP$FINDCX
     1269       26             CALL:  CALL OCP$FINDCX (INDEX_, STATION);
     1270       27             DESCRIPTION:  The OC_CONSOLE console table is searched
     1271       28                           linearly for non-empty entries (ATTR = '0'B).
     1272       29                           When a non-empty entry containing a station
     1273       30                           which matches STATION is found, INDEX_ is
     1274       31                           set equal to its index and the calling
     1275       32                           procedure RETURNed to.
     1276       33             ASSUMPTIONS:  A non-empty entry will be found which
     1277       34                           matches STATION.
     1278       35                                                                     */
     1279       36        /*S*
PL6.E3A0      #008=OCP$FINDCX File=OCP$PROCESS.:E05TSI                           WED 07/30/97 04:06 Page:234
     1280       37             SCREECH_CODE: OCP-S$OCCANTFINDU
     1281       38             TYPE: SCREECH
     1282       39             MESSAGE: KEYIN got a direct-addressed message for a non-existent
     1283       40                       console.
     1284       41             REMARKS: An internal routine in KEYIN has not set the flag which
     1285       42                       would indicate it was O.K. to ignore this message.
     1286       43                                                                          */
     1287       44        OCP$FINDCX: PROC (INDEX_, STATION);

     44  3 000000   000000 700200 xent  OCP$FINDCX   TSX0  ! X66_AUTO_2
         3 000001   000006 000002                    ZERO    6,2

     1288       45    1   DCL INDEX_ UBIN WORD;
     1289       46    1   DCL STATION CHAR(8);
     1290       47    1   DCL I UBIN WORD STATIC;
     1291       48    1   DCL OCW$WRITE ENTRY(5);
     1292       49                                                /**/
     1293       50    1   DCL ARRG_MSG STATIC CHAR(0) INIT
     1294       51    1        (' KEYIN aborting -- CANT FIND STATION XXXXXXXX');
     1295       52                                                /**/
     1296       53        %INCLUDE CP_6;
     1297      134        %INCLUDE OC_SCODE_C;
     1298      159        %INCLUDE OC_SUBS_C;
     1299      890             %FPT_SCREECH (FPTN=OCP$SCREECH,
     1300      891                                 SCODE=OCP$SCODE);
     1301      905                                                /**/
     1302      906                                                /**/
     1303      907                  %VLP_SCREECH (FPTN=OCP$SCODE,STCLASS=CONSTANT SYMDEF,
     1304      908                                 FCG=OC,
     1305      909                                 MID=P,
     1306      910                                 MON='0'B,
     1307      911                                 CODE=%S$OCCANTFINDU);
     1308      981                                                /**/
     1309      982             %FPT_WAIT      (FPTN=WAIT_IT_OUT,
     1310      983                                 UNITS=25);
     1311      997                                                /**/
     1312      998                                                /**/
PL6.E3A0      #008=OCP$FINDCX File=OCP$PROCESS.:E05TSI                           WED 07/30/97 04:06 Page:235
     1313      999        %INCLUDE OCI_SUBS_C;
     1314     1097        %INCLUDE OC_DAT_R;
     1315     1258        /*
     1316     1259                  Begin O C P $ F I N D C X  main
     1317     1260                                         */
     1318     1261    2        DO I = 0 TO OC_MAXCONSOLE /* MAX_CONSOLES# */;

   1261  3 000002   000000 450000 0                  STZ     I
         3 000003   000031 710000 3                  TRA     s:1272+3

     1319     1262    2             IF OC_CONSOLE.ATTR (I) ~= '0'B

   1262  3 000004   000000 236000 0                  LDQ     I
         3 000005   000076 402007                    MPY     62,DL
         3 000006   000000 470400 xsym               LDP0    OC_CONSOLE$
         3 000007   000013 220106                    LDX0    11,QL,PR0
         3 000010   000013 601000 3                  TNZ     s:1266
         3 000011   000014 221106                    LDX1    12,QL,PR0
         3 000012   000026 600000 3                  TZE     s:1272

     1320     1263    2                  OR
     1321     1264    2                  OC_CONSOLE.ATTRO (I) ~= '0'B
     1322     1265    2             THEN
     1323     1266    2                  IF OC_CONSOLE.STATION (I) = STATION

   1266  3 000013   000000 236000 0                  LDQ     I
         3 000014   000370 402007                    MPY     248,DL
         3 000015   200004 471500                    LDP1    @STATION,,AUTO
         3 000016   040100 106506                    CMPC    fill='040'O
         3 000017   000000 000010                    ADSC9   0,Q,PR0                  cn=0,n=8
         3 000020   100000 000010                    ADSC9   0,,PR1                   cn=0,n=8
         3 000021   000026 601000 3                  TNZ     s:1272

     1324     1267    2                  THEN
     1325     1268    3                  DO;

     1326     1269    3                       INDEX_ = I;
PL6.E3A0      #008=OCP$FINDCX File=OCP$PROCESS.:E05TSI                           WED 07/30/97 04:06 Page:236

   1269  3 000022   200003 473500                    LDP3    @INDEX_,,AUTO
         3 000023   000000 235000 0                  LDA     I
         3 000024   300000 755100                    STA     0,,PR3

     1327     1270    3                       RETURN;

   1270  3 000025   000000 702200 xent               TSX2  ! X66_ARET

     1328     1271    3                     END;
     1329     1272    2           END;

   1272  3 000026   000000 235000 0                  LDA     I
         3 000027   000001 035007                    ADLA    1,DL
         3 000030   000000 755000 0                  STA     I
         3 000031   000000 236000 xsym               LDQ     OC_MAXCONSOLE
         3 000032   000022 772000                    QRL     18
         3 000033   000000 116000 0                  CMPQ    I
         3 000034   000004 603000 3                  TRC     s:1262

     1330     1273                                                /**/
     1331     1274    1        IF INDEX_ = OC_MAXCONSOLE + 1 /* NUM_CONSOLES# */

   1274  3 000035   200003 470500                    LDP0    @INDEX_,,AUTO
         3 000036   000001 036007                    ADLQ    1,DL
         3 000037   000000 116100                    CMPQ    0,,PR0
         3 000040   000042 601000 3                  TNZ     s:1283

     1332     1275    1        THEN
     1333     1276    1             RETURN;

   1276  3 000041   000000 702200 xent               TSX2  ! X66_ARET

     1334     1277                                                /**/
     1335     1278                                           /* If we cant find a console with
     1336     1279                                                the requested station, dump it
     1337     1280                                                on the SYStem or DeLTA console
PL6.E3A0      #008=OCP$FINDCX File=OCP$PROCESS.:E05TSI                           WED 07/30/97 04:06 Page:237
     1338     1281                                                wait a few...then screech */
     1339     1282                                                /**/
     1340     1283    1        CALL INSERT (ARRG_MSG, 37, 8, STATION);

   1283  3 000042   200004 471500                    LDP1    @STATION,,AUTO
         3 000043   040000 100500                    MLR     fill='040'O
         3 000044   100000 000010                    ADSC9   0,,PR1                   cn=0,n=8
         3 000045   000012 200010 0                  ADSC9   ARRG_MSG+9               cn=1,n=8

     1341     1284    1        CALL OCW$WRITE (ARRG_MSG,

   1284  3 000046   000002 630400 4                  EPPR0   2
         3 000047   000022 631400 xsym               EPPR1   B_VECTNIL+18
         3 000050   000000 701000 xent               TSX1    OCW$WRITE
         3 000051   000000 011000                    NOP     0

     1342     1285    1             SIZEC(ARRG_MSG),
     1343     1286    1             '020000'O /* M_DLTA  */ | '200000'O /* M_SYS  */,
     1344     1287    1             ' ');
     1345     1288    1        CALL M$WAIT (WAIT_IT_OUT);

   1288  3 000052   000024 630400 0                  EPPR0   WAIT_IT_OUT
         3 000053   020006 713400                    CLIMB   8198
         3 000054   400400 401760                    pmme    nvectors=2

     1346     1289                                                /**/
     1347     1290    1        CALL M$SCREECH (OCP$SCREECH);

   1290  3 000055   000016 630400 0                  EPPR0   OCP$SCREECH
         3 000056   000013 713400                    CLIMB   11
         3 000057   401000 401760                    pmme    nvectors=3

     1348     1291    1   END OCP$FINDCX;

   1291  3 000060   000000 702200 xent               TSX2  ! X66_ARET

PL6.E3A0      #008=OCP$FINDCX File=OCP$PROCESS.:E05TSI                           WED 07/30/97 04:06 Page:238
--  Include file information  --

   OC$MESSHD_C.:E05TOU  is referenced.
   OC_DAT_R.:E05TOU  cannot be made into a system file and is referenced.
   OCI_SUBS_C.:E05TOU  is referenced.
   OC_SUBS_C.:E05TOU  is referenced.
   OC_SCODE_C.:E05TOU  is referenced.
   CP_6.:E05TOU  cannot be made into a system file and is referenced.
   B$JIT_C.:E05TOU  was found in the system file and is never referenced.
   CP_6_C.:E05TOU  was found in the system file and is referenced.
      No diagnostics issued in procedure OCP$FINDCX.
PL6.E3A0      #008=OCP$FINDCX File=OCP$PROCESS.:E05TSI                           WED 07/30/97 04:06 Page:239

 **** Variables and constants ****

  ****  Section 000  Data  OCP$FINDCX

  ****  Scalars and arrays  ****
OctLoc.c.b A Datatyp(siz) R M Lvl/name                 OctLoc.c.b A Datatyp(siz) R M Lvl/name

     1-0-0/c CHAR(45)    r     1 ARRG_MSG                   0-0-0/w UBIN        r     1 I
    16-0-0/d STRC(216)   r     1 OCP$SCREECH               24-0-0/d STRC(216)   r     1 WAIT_IT_OUT

  ****  Section 002 RoData OCP$FINDCX

  ****  Scalars and arrays  ****
OctLoc.c.b A Datatyp(siz) R M Lvl/name                 OctLoc.c.b A Datatyp(siz) R M Lvl/name

     0-0-0/d STRC(72)    r     1 OCP$SCODE

  ****  Auto variables  ****

  ****  Scalars and arrays  ****
OctLoc.c.b A Datatyp(siz) R M Lvl/name                 OctLoc.c.b A Datatyp(siz) R M Lvl/name

     3-0-0/w PTR         r     1 @INDEX_                    4-0-0/w PTR         r     1 @STATION
    *0-0-0/w UBIN        r     1 INDEX_                    *0-0-0/c CHAR(8)     r     1 STATION

  ****  SYMREF variables  ****

  ****  Scalars and arrays  ****
OctLoc.c.b A Datatyp(siz) R M Lvl/name                 OctLoc.c.b A Datatyp(siz) R M Lvl/name

     0-0-0/w PTR         r     1 OC_CONSOLE$                0-0-0/w UBIN(18)    r     1 OC_MAXCONSOLE

  ****  BASED and DCB variables  ****

  ****  Scalars and arrays  ****
OctLoc.c.b A Datatyp(siz) R M Lvl/name                 OctLoc.c.b A Datatyp(siz) R M Lvl/name

PL6.E3A0      #008=OCP$FINDCX File=OCP$PROCESS.:E05TSI                           WED 07/30/97 04:06 Page:240
     0-0-0/w STRC(2205)  r     1 OC_CONSOLE(0:0)


   Procedure OCP$FINDCX requires 49 words for executable code.
   Procedure OCP$FINDCX requires 6 words of local(AUTO) storage.

    No errors detected in file OCP$PROCESS.:E05TSI    .
PL6.E3A0      #008=OCP$FINDCX File=OCP$PROCESS.:E05TSI                           WED 07/30/97 04:06 Page:241
          *** CROSS REFERENCE LISTING ***
**     DENOTES     IDENTIFIER DEFINITION
<<                 IDENTIFIER'S VALUE SET
>>                 IDENTIFIER'S VALUE USED
<>                 IDENTIFIER SET AND/OR USED
--                 IDENTIFIER REFERENCED
PL6.E3A0      #008=OCP$FINDCX File=OCP$PROCESS.:E05TSI                           WED 07/30/97 04:06 Page:242
          MINI XREF LISTING

ARRG_MSG
        50**DCL      1283<<CALLBLT  1284<>CALL     1284--CALL
I
        47**DCL      1261<<DOINDEX  1262>>IF       1262>>IF       1266>>IF       1269>>ASSIGN
INDEX_
        45**DCL        44--PROC     1269<<ASSIGN   1274>>IF
M$SCREECH
        76**DCL-ENT  1290--CALL
M$WAIT
       120**DCL-ENT  1288--CALL
OCP$SCODE
       934**DCL       902--DCLINIT
OCP$SCREECH
       902**DCL      1290<>CALL
OCW$WRITE
        48**DCL-ENT  1284--CALL
OC_CONSOLE.ATTR
      1211**DCL      1211--REDEF    1262>>IF
OC_CONSOLE.ATTRO
      1212**DCL      1212--REDEF    1262>>IF
OC_CONSOLE.CID
      1210**DCL      1211--REDEF
OC_CONSOLE.STATION
      1209**DCL      1209--REDEF    1266>>IF
OC_CONSOLE$
      1208**DCL      1209--IMP-PTR  1262>>IF       1262>>IF       1266>>IF
OC_DIR
      1251**DCL      1251--REDEF
OC_INTBIT
      1251**DCL      1252--REDEF
OC_INTMSG
      1128**DCL      1141--REDEF
PL6.E3A0      #008=OCP$FINDCX File=OCP$PROCESS.:E05TSI                           WED 07/30/97 04:06 Page:243
OC_INTMSG.FLAGS
      1135**DCL      1136--REDEF
OC_INTMSG.MESS
      1141**DCL      1141--REDEF
OC_INTMSG.MSGID
      1131**DCL      1132--REDEF
OC_INTMSG.WSN
      1138**DCL      1139--REDEF
OC_MASK
      1252**DCL      1252--REDEF
OC_MAXCONSOLE
      1208**DCL      1261>>DOINDEX  1274>>IF
OC_MESSBUF
      1143**DCL      1158--REDEF    1172--REDEF
OC_MESSBUF.FLAGS
      1150**DCL      1151--REDEF
OC_MESSBUF.MESS
      1156**DCL      1156--REDEF
OC_MESSBUF.MSGID
      1146**DCL      1147--REDEF
OC_MESSBUF.WSN
      1153**DCL      1154--REDEF
OC_MESSBUF1.FLAGS
      1165**DCL      1166--REDEF
OC_MESSBUF1.LEN
      1171**DCL      1171--REDEF
OC_MESSBUF1.MSGID
      1161**DCL      1162--REDEF
OC_MESSBUF1.WSN
      1168**DCL      1169--REDEF
OC_MSGBUFFER
      1174**DCL      1189--REDEF
OC_MSGBUFFER.FLAGS
      1181**DCL      1182--REDEF
OC_MSGBUFFER.MESS
      1187**DCL      1187--REDEF
PL6.E3A0      #008=OCP$FINDCX File=OCP$PROCESS.:E05TSI                           WED 07/30/97 04:06 Page:244
OC_MSGBUFFER.MSGID
      1177**DCL      1178--REDEF
OC_MSGBUFFER.WSN
      1184**DCL      1185--REDEF
OC_MSGBUFFER2.FLAGS
      1196**DCL      1197--REDEF
OC_MSGBUFFER2.MSGID
      1192**DCL      1193--REDEF
OC_MSGBUFFER2.WSN
      1199**DCL      1200--REDEF
OC_PARAM
      1207**DCL      1207--REDEF
OC_QUEUE.PARMC
      1206**DCL      1206--REDEF
STATION
        46**DCL        44--PROC     1266>>IF       1283>>CALLBLT
WAIT_IT_OUT
       994**DCL      1288<>CALL
WAIT_IT_OUT.V
       995**DCL       994--DCLINIT
