VERSION E05

PL6.E3A0      #001=OCP_DATA_D File=OCP_DATA_D.:E05TSI                            WED 07/30/97 04:05 Page:1
        1        1        /*M* OCP_DATA_D is SYMDEFed data for OCP modules */
        2        2        /*T***********************************************************/
        3        3        /*T*                                                         */
        4        4        /*T* Copyright (c) Bull HN Information Systems Inc., 1997    */
        5        5        /*T*                                                         */
        6        6        /*T***********************************************************/
        7        7        /*X* DMR,PLM=5,IND=5,CTI=5,SDI=5,MCL=10,CSI=0,ECI=0 */
        8        8        OCP_DATA_D: PROC NOAUTO;
        9        9          %SUB NULL=511;
       10       10        /* !! */                                /* MUNGER COMMANDS */
       11       11        %INCLUDE B_SEGIDS_C;
       12      550        /* !R! */                               /* MUNGER COMMANDS */
       13      551    1   DCL OCP_PEND_TOT SBIN WORD STATIC SYMDEF INIT(0);
       14      552    1   DCL OCP_PEND_USED SBIN WORD STATIC SYMDEF INIT(0);
       15      553    1   DCL OCP_READID UBIN HALF STATIC SYMDEF INIT(0);
       16      554                                                /**/
       17      555                                                /**/
       18      556    1   DCL 1 OCP_FREE_HEAD ALIGNED STATIC SYMDEF,
       19      557    1            2 * UBIN(24) UNAL INIT(0),
       20      558    1            2 * BIT(12) UNAL INIT(%DS3SID);
       21      559    1   DCL OCP_FREE_HEAD$ REDEF OCP_FREE_HEAD PTR;
       22      560                                                /**/
       23      561                                                /**/
       24      562    1   DCL 1 OCP_USED_HEAD ALIGNED STATIC SYMDEF,
       25      563    1            2 * UBIN(24) UNAL INIT(0),
       26      564    1            2 * BIT(12) UNAL INIT(%NULLSID);
       27      565    1   DCL OCP_USED_HEAD$ REDEF OCP_USED_HEAD PTR;
       28      566                                                /**/
       29      567                                                /**/
       30      568    1   DCL 1 OCP_USED_TAIL ALIGNED STATIC SYMDEF,
       31      569    1            2 * UBIN(24) UNAL INIT(0),
       32      570    1            2 * BIT(12) UNAL INIT(%DS3SID);
       33      571    1   DCL OCP_USED_TAIL$ REDEF OCP_USED_TAIL PTR;
       34      572    1   DCL OCP_MSGBUF(0:2015) UBIN WORD STATIC SYMDEF;
       35      573    1   DCL OCP_MSGBUF$ PTR CONSTANT SYMDEF INIT(ADDR (OCP_MSGBUF));
       36      574    1   DCL 1 OCP_MSGBUF_FREE STATIC SYMDEF,
       37      575    1            2 B(0:251) BIT(1) INIT('1'B*0) UNAL,
PL6.E3A0      #001=OCP_DATA_D File=OCP_DATA_D.:E05TSI                            WED 07/30/97 04:05 Page:2
       38      576    1            2 U(0:6) REDEF B BIT(36) UNAL;
       39      577    1   DCL 1 OCP_MSGBUF_LIST(0:255) STATIC SYMDEF,
       40      578    1            2 MSGID UBIN HALF UNAL,
       41      579    1            2 CADDR BIT(18) UNAL,
       42      580    1            2 LINK UBIN(9) INIT(NULL*0) UNAL,
       43      581    1            2 * UBIN(27) UNAL,
       44      582    1            2 WSN CHAR(8) UNAL;
       45      583    1   DCL 1 OCP$MSGBUF_UNIT BASED,
       46      584    1            2 BUF CHAR(31) UNAL,
       47      585    1            2 LINK UBIN(9) UNAL;
       48      586    1   DCL OCP_TIMED_BUF CHAR(256) STATIC SYMDEF UNAL;
       49      587    1   DCL OCP_NON_STA CHAR(8) STATIC SYMDEF INIT(' ');
       50      588    1   DCL OCP_PEND_CLEANUP UBIN WORD ALIGNED STATIC SYMDEF INIT(0);
       51      589    1   DCL OCP_PEND_CLEANUP_THRESH UBIN WORD ALIGNED STATIC SYMDEF INIT(10);
       52      590    1   END OCP_DATA_D;

PL6.E3A0      #001=OCP_DATA_D File=OCP_DATA_D.:E05TSI                            WED 07/30/97 04:05 Page:3
--  Include file information  --

   B_SEGIDS_C.:E05TOU  is referenced.
      No diagnostics issued in procedure OCP_DATA_D.

   No code generated for procedure OCP_DATA_D .
   Procedure OCP_DATA_D is declared NOAUTO and requires 3122 words of local(STATIC) storage.

    No errors detected in file OCP_DATA_D.:E05TSI    .

PL6.E3A0      #001=OCP_DATA_D File=OCP_DATA_D.:E05TSI                            WED 07/30/97 04:05 Page:4

 Object Unit name= OCP_DATA_D                                 File name= OCP_DATA_D.:E05TOU
 UTS= JUL 30 '97 04:05:41.44 WED                              Compiler= PL-6/E31         Sev=      00
 SharedLib= :SHARED_SYSTEM                                    Alt SharedLib=


    ****  Control sections  ****

 Sect   Type Bound  Init  Size OctSiz  Section name(segment info)
    0   Data  even  none  3122   6062  OCP_DATA_D
    1  RoData even  UTS      1      1  OCP_DATA_D
    2   Proc  even  none     0      0  OCP_DATA_D

    ****  Entry defs  ****

                              Check   Calling
                             calling  sequence
  Sect OctLoc Primary Altret sequence   type   Parms  Name
     2      0   yes            yes     ~proc       0  OCP_DATA_D

  ****  Data defs  ****

 Sect OctLoc  Name                           Sect OctLoc  Name
    0      1  OCP_PEND_TOT                       0      2  OCP_PEND_USED
    0      3  OCP_READID                         0      4  OCP_FREE_HEAD
    0      5  OCP_USED_HEAD                      0      6  OCP_USED_TAIL
    0      7  OCP_MSGBUF                         1      0  OCP_MSGBUF$
    0   3747  OCP_MSGBUF_FREE                    0   3756  OCP_MSGBUF_LIST
    0   5756  OCP_TIMED_BUF                      0   6056  OCP_NON_STA
    0   6060  OCP_PEND_CLEANUP                   0   6061  OCP_PEND_CLEANUP_THRESH

  ****  Segment refs  ****

  Flags:  r = read only, s = secondary
Flgs Name                             Flgs Name                             Flgs Name
     ISSID
PL6.E3A0      #001=OCP_DATA_D File=OCP_DATA_D.:E05TSI                            WED 07/30/97 04:05 Page:5

        1        1        /*M* OCP_DATA_D is SYMDEFed data for OCP modules */
        2        2        /*T***********************************************************/
        3        3        /*T*                                                         */
        4        4        /*T* Copyright (c) Bull HN Information Systems Inc., 1997    */
        5        5        /*T*                                                         */
        6        6        /*T***********************************************************/
        7        7        /*X* DMR,PLM=5,IND=5,CTI=5,SDI=5,MCL=10,CSI=0,ECI=0 */
        8        8        OCP_DATA_D: PROC NOAUTO;
        9        9          %SUB NULL=511;
       10       10        /* !! */                                /* MUNGER COMMANDS */
       11       11        %INCLUDE B_SEGIDS_C;
       12      550        /* !R! */                               /* MUNGER COMMANDS */
       13      551    1   DCL OCP_PEND_TOT SBIN WORD STATIC SYMDEF INIT(0);
       14      552    1   DCL OCP_PEND_USED SBIN WORD STATIC SYMDEF INIT(0);
       15      553    1   DCL OCP_READID UBIN HALF STATIC SYMDEF INIT(0);
       16      554                                                /**/
       17      555                                                /**/
       18      556    1   DCL 1 OCP_FREE_HEAD ALIGNED STATIC SYMDEF,
       19      557    1            2 * UBIN(24) UNAL INIT(0),
       20      558    1            2 * BIT(12) UNAL INIT(%DS3SID);
       21      559    1   DCL OCP_FREE_HEAD$ REDEF OCP_FREE_HEAD PTR;
       22      560                                                /**/
       23      561                                                /**/
       24      562    1   DCL 1 OCP_USED_HEAD ALIGNED STATIC SYMDEF,
       25      563    1            2 * UBIN(24) UNAL INIT(0),
       26      564    1            2 * BIT(12) UNAL INIT(%NULLSID);
       27      565    1   DCL OCP_USED_HEAD$ REDEF OCP_USED_HEAD PTR;
       28      566                                                /**/
       29      567                                                /**/
       30      568    1   DCL 1 OCP_USED_TAIL ALIGNED STATIC SYMDEF,
       31      569    1            2 * UBIN(24) UNAL INIT(0),
       32      570    1            2 * BIT(12) UNAL INIT(%DS3SID);
       33      571    1   DCL OCP_USED_TAIL$ REDEF OCP_USED_TAIL PTR;
       34      572    1   DCL OCP_MSGBUF(0:2015) UBIN WORD STATIC SYMDEF;
       35      573    1   DCL OCP_MSGBUF$ PTR CONSTANT SYMDEF INIT(ADDR (OCP_MSGBUF));
       36      574    1   DCL 1 OCP_MSGBUF_FREE STATIC SYMDEF,
       37      575    1            2 B(0:251) BIT(1) INIT('1'B*0) UNAL,
PL6.E3A0      #001=OCP_DATA_D File=OCP_DATA_D.:E05TSI                            WED 07/30/97 04:05 Page:6
       38      576    1            2 U(0:6) REDEF B BIT(36) UNAL;
       39      577    1   DCL 1 OCP_MSGBUF_LIST(0:255) STATIC SYMDEF,
       40      578    1            2 MSGID UBIN HALF UNAL,
       41      579    1            2 CADDR BIT(18) UNAL,
       42      580    1            2 LINK UBIN(9) INIT(NULL*0) UNAL,
       43      581    1            2 * UBIN(27) UNAL,
       44      582    1            2 WSN CHAR(8) UNAL;
       45      583    1   DCL 1 OCP$MSGBUF_UNIT BASED,
       46      584    1            2 BUF CHAR(31) UNAL,
       47      585    1            2 LINK UBIN(9) UNAL;
       48      586    1   DCL OCP_TIMED_BUF CHAR(256) STATIC SYMDEF UNAL;
       49      587    1   DCL OCP_NON_STA CHAR(8) STATIC SYMDEF INIT(' ');
       50      588    1   DCL OCP_PEND_CLEANUP UBIN WORD ALIGNED STATIC SYMDEF INIT(0);
       51      589    1   DCL OCP_PEND_CLEANUP_THRESH UBIN WORD ALIGNED STATIC SYMDEF INIT(10);
       52      590    1   END OCP_DATA_D;

PL6.E3A0      #001=OCP_DATA_D File=OCP_DATA_D.:E05TSI                            WED 07/30/97 04:05 Page:7
--  Include file information  --

   B_SEGIDS_C.:E05TOU  is referenced.
      No diagnostics issued in procedure OCP_DATA_D.
PL6.E3A0      #001=OCP_DATA_D File=OCP_DATA_D.:E05TSI                            WED 07/30/97 04:05 Page:8

 **** Variables and constants ****

  ****  Section 000  Data  OCP_DATA_D

  ****  Scalars and arrays  ****
OctLoc.c.b A Datatyp(siz) R M Lvl/name                 OctLoc.c.b A Datatyp(siz) R M Lvl/name

     7-0-0/w UBIN        r     1 OCP_MSGBUF(0:2015)


   No code generated for procedure OCP_DATA_D .
   Procedure OCP_DATA_D is declared NOAUTO and requires 3122 words of local(STATIC) storage.

    No errors detected in file OCP_DATA_D.:E05TSI    .
PL6.E3A0      #001=OCP_DATA_D File=OCP_DATA_D.:E05TSI                            WED 07/30/97 04:05 Page:9
          *** CROSS REFERENCE LISTING ***
**     DENOTES     IDENTIFIER DEFINITION
<<                 IDENTIFIER'S VALUE SET
>>                 IDENTIFIER'S VALUE USED
<>                 IDENTIFIER SET AND/OR USED
--                 IDENTIFIER REFERENCED
PL6.E3A0      #001=OCP_DATA_D File=OCP_DATA_D.:E05TSI                            WED 07/30/97 04:05 Page:10
          MINI XREF LISTING

OCP_FREE_HEAD
       556**DCL       559--REDEF
OCP_MSGBUF
       572**DCL       573--DCLINIT
OCP_MSGBUF_FREE.B
       575**DCL       576--REDEF
OCP_USED_HEAD
       562**DCL       565--REDEF
OCP_USED_TAIL
       568**DCL       571--REDEF
