PL6.E3A0      #003=OCS$ANLZ File=OCS$SYNTAX.:E05TSI                              WED 07/30/97 04:07 Page:174
     1117        1        /*M* OCS$ANLZ KEYINs procedure to find human errors in keyins */
     1118        2        /*T***********************************************************/
     1119        3        /*T*                                                         */
     1120        4        /*T* Copyright (c) Bull HN Information Systems Inc., 1997    */
     1121        5        /*T*                                                         */
     1122        6        /*T***********************************************************/
     1123        7        %SET LISTSUB='1'B;
     1124        8        /*
     1125        9          ###    ###    ###     #     ###   #   #  #      #####
     1126       10         # # #  #   #  #   #   ###   #   #  #   #  #          #
     1127       11         # # #  #      #      # #    #   #  ##  #  #         #
     1128       12         #  ##  #       ###    ###   #####  # # #  #        #
     1129       13         #   #  #          #    # #  #   #  #  ##  #       #
     1130       14         #   #  #   #  #   #   ###   #   #  #   #  #      #
     1131       15          ###    ###    ###     #    #   #  #   #  #####  #####
     1132       16                                                                           */
     1133       17                                                /**/
     1134       18                                                /**/
     1135       19        OCS$ANLZ: PROC (PTR$, ERROR_CODE);
     1136       20                                                /**/
     1137       21    1   DCL PTR$ PTR;
     1138       22    1   DCL ERROR_CODE UBIN WORD;
     1139       23    1   DCL PCB_HI_CHAR REDEF ERROR_CODE UBIN WORD;
     1140       24                                                /**/
     1141       25        %INCLUDE OCS_SUBS_C;
     1142      242                                                /**/
     1143      243        %INCLUDE OCS_DATA_R;
     1144      260                                                /**/
     1145      261    1   DCL 1 TEXTC BASED,
     1146      262    1            2 COUNT UBIN BYTE UNAL,
     1147      263    1            2 TEXT CHAR(TEXTC.COUNT) UNAL;
     1148      264    1   DCL OCS$T1 BASED CHAR(1) CALIGNED;
     1149      265    1   DCL OCS$TN BASED CHAR(SIZEC_TEXT) CALIGNED;
     1150      266                                                /**/
     1151      267                                                /**/
     1152      268    1   DCL SIZEC_TEXT UBIN WORD STATIC;
     1153      269    1   DCL START$ PTR STATIC;
PL6.E3A0      #003=OCS$ANLZ File=OCS$SYNTAX.:E05TSI                              WED 07/30/97 04:07 Page:175
     1154      270    1   DCL END$ PTR STATIC;
     1155      271    1   DCL HERE$ PTR STATIC;
     1156      272    1   DCL I SBIN WORD STATIC;
     1157      273    1   DCL I_UBIN REDEF I UBIN WORD;
     1158      274    1   DCL J SBIN WORD STATIC;
     1159      275                                                /**/
     1160      276        %EJECT;
PL6.E3A0      #003=OCS$ANLZ File=OCS$SYNTAX.:E05TSI                              WED 07/30/97 04:07 Page:176
     1161      277        /*
     1162      278                  Internal routine PUTITIN
     1163      279                                                */
     1164      280    1   PUTITIN: PROC( SSTART$, SEND$, FLAG);
     1165      281                                                /**/
     1166      282    2   DCL SSTART$ PTR;
     1167      283    2   DCL SEND$ PTR;
     1168      284    2   DCL LPTR$ PTR;
     1169      285    2   DCL FLAG BIT(1) ALIGNED;                /* IF ON, RIGHT JUSTIFY */
     1170      286                                                /**/
     1171      287    2        SIZEC_TEXT = POFFC (SEND$, SSTART$) + 1;
     1172      288    2        LPTR$ = SSTART$;
     1173      289                                                /**/
     1174      290    2        IF SIZEC_TEXT > SIZEC(OCS_ERRMSGB.TEXT_STRING)
     1175      291    2        THEN
     1176      292    3        DO;
     1177      293    3             SIZEC_TEXT = SIZEC(OCS_ERRMSGB.TEXT_STRING);
     1178      294    3             IF FLAG
     1179      295    3             THEN
     1180      296    3                  LPTR$ = PINCRC(SEND$, -SIZEC(OCS_ERRMSGB.TEXT_STRING));
     1181      297                                                /**/
     1182      298    3             CALL INSERT (OCS_ERRMSGB.TEXT_STRING, 0,
     1183      299    3                  SIZEC(OCS_ERRMSGB.TEXT_STRING),
     1184      300    3                  LPTR$ -> OCS$TN);
     1185      301    3           END;                            /* DO IF OVERFLOW */
     1186      302    2        ELSE
     1187      303    3        DO;
     1188      304    3             CALL INSERT (OCS_ERRMSGB.TEXT_STRING, 0,
     1189      305    3                  SIZEC_TEXT, LPTR$ -> OCS$TN);
     1190      306    3           END;                            /* DO IF NOT OVERFLOW */
     1191      307    2        OCS_ERRMSGC.SIZE_TEXT = SIZEC_TEXT;
     1192      308                                                /**/
     1193      309                                                /**/
     1194      310    2   END PUTITIN;
     1195      311        %EJECT;
PL6.E3A0      #003=OCS$ANLZ File=OCS$SYNTAX.:E05TSI                              WED 07/30/97 04:07 Page:177
     1196      312        /*
     1197      313                  Begin  O C S $ A N L Z   main
     1198      314                                                                          */
     1199      315                                                /**/
     1200      316                                                /**/
     1201      317    1        IF OCS_ERRCODE ~= 3 /* OCS_ERRORS#  */
     1202      318    1        THEN
     1203      319    2        DO;
     1204      320    2             OCS_ERRMSGB.TYPE = OCS_ERRCODE;
     1205      321    2             OCS_ERRMSGB.SYNERR_AT = 0;
     1206      322    2             OCS_ERRMSGB.MSG_SELECT = ERROR_CODE;
     1207      323    2             IF OCS_ERRCODE = 2 /* OCS_ILLEGAL# */
     1208      324    2             THEN
     1209      325    3             DO;
     1210      326    3                  OCS_ERRMSGB.MSG_SELECT = 0;
     1211      327    3                  OCS_ERRMSGC.SIZE_TEXT = 1;
     1212      328    3                  OCS_ERRMSGB.TEXT_STRING = ' ';
     1213      329    3                END;                       /* DO IF CHKINP */
     1214      330    2             ELSE
     1215      331    3             DO;
     1216      332    3                  OCS_ERRMSGB.MSG_SELECT = ERROR_CODE;
     1217      333    3                  IF PTR$ -> TEXTC.COUNT > SIZEC(OCS_ERRMSGB.TEXT_STRING)
     1218      334    3                  THEN
     1219      335    4                  DO;
     1220      336    4                       OCS_ERRMSGC.SIZE_TEXT = SIZEC(OCS_ERRMSGB.TEXT_STRING);
     1221      337    4                       OCS_ERRMSGB.TEXT_STRING = PTR$ -> TEXTC.TEXT;
     1222      338    4                     END;                  /* DO IF OVER FLOW */
     1223      339    3                  ELSE
     1224      340    4                  DO;
     1225      341    4                       OCS_ERRMSGC.SIZE_TEXT = PTR$ -> TEXTC.COUNT;
     1226      342    4                       OCS_ERRMSGB.TEXT_STRING = PTR$ -> TEXTC.TEXT;
     1227      343    4                     END;                  /* DO IF NO OVER FLOW */
     1228      344    3                END;                       /* DO IF NOT BAD NODES */
     1229      345    2             RETURN;                       /* If not syntax error, return */
     1230      346    2           END;                            /* DO IF not syntax error */
     1231      347                                                /**/
     1232      348                                                /**/
PL6.E3A0      #003=OCS$ANLZ File=OCS$SYNTAX.:E05TSI                              WED 07/30/97 04:07 Page:178
     1233      349        %EJECT;
PL6.E3A0      #003=OCS$ANLZ File=OCS$SYNTAX.:E05TSI                              WED 07/30/97 04:07 Page:179
     1234      350                                           /* Process the X$PARSE syntax error
     1235      351                                                in some kind of general manner
     1236      352                                                here....the following "rules"
     1237      353                                                were determined by trial and
     1238      354                                                error:
     1239      355                                           1) PCB.HICHAR > INBUFFER
     1240      356                                                Something is missing after the
     1241      357                                                last character input.  It's
     1242      358                                                ok till there.
     1243      359                                           2) PCB.HICHAR = 0 or PCB.HICHAR
     1244      360                                                = first non_prompt character
     1245      361                                                (like space or !)
     1246      362                                                indicates, in general, that
     1247      363                                                the command is illegal, i.e.
     1248      364                                                the keyword or command word
     1249      365                                                was not recognized.
     1250      366                                           3) PCB.HICHAR ~= 0 but no delimiter
     1251      367                                                between HICHAR and start of
     1252      368                                                line.
     1253      369                                                This usually indicates that
     1254      370                                                the command was legal until
     1255      371                                                HICHAR. After that, no dice.
     1256      372                                           4) PCB.HICHAR ~= 0 and a delimiter
     1257      373                                                is at HICHAR or HICHAR - 1.
     1258      374                                                Indicates illegal value start-
     1259      375                                                ing at the indicated character
     1260      376                                                (sometimes implies incorrect
     1261      377                                                field, such as non-numeric
     1262      378                                                when numeric expected, etc.)
     1263      379                                           5) PCB.HICHAR ~= 0 and a delimiter
     1264      380                                                is not at HICHAR - 1.
     1265      381                                                I dunno. I couldn't produce it
     1266      382                                                                          */
     1267      383    1        IF PCB_HI_CHAR >= OCS_KSIZE  /* HI_CHAR is zero_based;
     1268      384                                                KSIZE is 1_based */
     1269      385    1        THEN
     1270      386    2        DO;
PL6.E3A0      #003=OCS$ANLZ File=OCS$SYNTAX.:E05TSI                              WED 07/30/97 04:07 Page:180
     1271      387    2             OCS_ERRMSGB.TYPE = OCS_ERRCODE;
     1272      388    2             OCS_ERRMSGB.SYNERR_AT = PCB_HI_CHAR;
     1273      389    2             OCS_ERRMSGB.MSG_SELECT = 3 /*E#SMISNG*/;
     1274      390                                                /**/
     1275      391    2             HERE$ = PINCRC (PTR$, (PCB_HI_CHAR - 1));
     1276      392    2             END$ = HERE$;
     1277      393                                                /**/
     1278      394    3             DO WHILE ((HERE$ > PTR$) AND (HERE$ -> OCS$T1 ~= ' '));
     1279      395    3                  HERE$ = PINCRC (HERE$, -1);
     1280      396    3                END;                       /* DO WHILE HERE$ NOT RIGHT */
     1281      397                                                /**/
     1282      398    2             IF HERE$ -> OCS$T1 = ' '
     1283      399    2             THEN
     1284      400    2                  HERE$ = PINCRC(HERE$,1);
     1285      401                                                /**/
     1286      402    2             CALL PUTITIN(HERE$,END$,'1'B);
     1287      403    2             RETURN;
     1288      404    2           END;                            /* DO IF E#SMISNG */
     1289      405                                                /**/
     1290      406                                                /**/
     1291      407        %EJECT;
PL6.E3A0      #003=OCS$ANLZ File=OCS$SYNTAX.:E05TSI                              WED 07/30/97 04:07 Page:181
     1292      408                                           /* Here we check to see if
     1293      409                                                "Illegal command" by virtue
     1294      410                                                of the fact that the parser
     1295      411                                                choked on the first character
     1296      412                                                that was "legal".  Legal means
     1297      413                                                that maybe there was a series
     1298      414                                                of spaces or bangs before it
     1299      415                                                which may or may not be legal
     1300      416                                                This is checked for       */
     1301      417    1        START$ = PTR$;
     1302      418    1        END$ = PINCRC(START$,OCS_KSIZE - 1);
     1303      419                                                /**/
     1304      420    2        DO I = 0 TO OCS_KSIZE - 1;
     1305      421    2             IF I_UBIN >= PCB_HI_CHAR
     1306      422    2             THEN
     1307      423    2                  I = OCS_KSIZE;
     1308      424    2             ELSE
     1309      425    2                  IF START$ -> OCS$T1 ~= ' '
     1310      426    2                       AND
     1311      427    2                       START$ -> OCS$T1 ~= '!'
     1312      428    2                  THEN
     1313      429    2                       I = OCS_KSIZE;
     1314      430    2                  ELSE
     1315      431    2                       START$ = PINCRC(START$,1);
     1316      432    2           END;                            /* DO I = 0 TO END_OF_BUF */
     1317      433                                                /**/
     1318      434                                                /**/
     1319      435    1        IF PCB_HI_CHAR = 0
     1320      436    1             OR
     1321      437    1             START$ >= PINCRC(PTR$, PCB_HI_CHAR)
     1322      438    1        THEN
     1323      439    2        DO;
     1324      440    2             HERE$ = START$;
     1325      441    3             DO WHILE ((HERE$ -> OCS$T1 ~=' ')
     1326      442    3                  AND
     1327      443    3                  (HERE$ < END$));
     1328      444    3                  HERE$ = PINCRC(HERE$,1);
PL6.E3A0      #003=OCS$ANLZ File=OCS$SYNTAX.:E05TSI                              WED 07/30/97 04:07 Page:182
     1329      445    3                END;                       /* DO WHILE MORE IN STRING */
     1330      446    2             IF START$ > PINCRC (PTR$, PCB_HI_CHAR)
     1331      447    2             THEN
     1332      448    2                  START$ = PINCRC(PTR$, PCB_HI_CHAR);
     1333      449    2             IF HERE$ > END$
     1334      450    2             THEN
     1335      451    2                  HERE$ = END$;
     1336      452    2             IF HERE$ -> OCS$T1 = ' '
     1337      453    2             THEN
     1338      454    2                  HERE$ = PINCRC(HERE$, -1);
     1339      455    2             CALL PUTITIN( START$, HERE$, '0'B);
     1340      456    2             OCS_ERRMSGB.TYPE = OCS_ERRCODE;
     1341      457    2             OCS_ERRMSGB.SYNERR_AT = PCB_HI_CHAR;
     1342      458    2             OCS_ERRMSGB.MSG_SELECT = 1 /*E#NOTCMD*/;
     1343      459    2             RETURN;                       /* TO PRINT MESSAGE */
     1344      460    2           END;                            /* DO IF BAD COMMAND */
     1345      461                                                /**/
     1346      462        %EJECT;
PL6.E3A0      #003=OCS$ANLZ File=OCS$SYNTAX.:E05TSI                              WED 07/30/97 04:07 Page:183
     1347      463                                           /* Here we check for "bad command"
     1348      464                                                but this time it could be bad
     1349      465                                                because the first few characters
     1350      466                                                "n" werent....attempt to detect
     1351      467                                                this by trying to find a space
     1352      468                                                somewhere before HI_CHAR
     1353      469                                                If START$ is found before a
     1354      470                                                space, frame START$ to END$
     1355      471                                                and complain */
     1356      472    1        HERE$ = PINCRC(PTR$, PCB_HI_CHAR);
     1357      473                                                /**/
     1358      474    2        DO WHILE (( HERE$ -> OCS$T1 = ' ')
     1359      475    2             AND
     1360      476    2             (HERE$ < END$));
     1361      477    2             HERE$ = PINCRC (HERE$, 1);
     1362      478    2           END;                            /* DO WHILE BLANKS */
     1363      479                                                /**/
     1364      480                                                /**/
     1365      481    2        DO WHILE ((HERE$ -> OCS$T1 ~= ' ')
     1366      482    2             AND
     1367      483    2             (HERE$ < END$));
     1368      484    2             HERE$ = PINCRC (HERE$, 1);
     1369      485    2           END;                            /* DO WHILE */
     1370      486                                                /**/
     1371      487    1        IF HERE$ -> OCS$T1 = ' '
     1372      488    1        THEN
     1373      489    1             HERE$ = PINCRC(HERE$, -1);
     1374      490                                                /**/
     1375      491    1        END$ = HERE$;
     1376      492                                                /**/
     1377      493    1        HERE$ = PINCRC (PTR$, PCB_HI_CHAR);
     1378      494                                                /**/
     1379      495    2        DO WHILE ((PINCRC(HERE$,-1) -> OCS$T1 ~=' ')
     1380      496    2             AND
     1381      497    2             (HERE$ > START$));
     1382      498    2             HERE$ = PINCRC (HERE$, -1);
     1383      499    2           END;                            /* DO WHILE */
PL6.E3A0      #003=OCS$ANLZ File=OCS$SYNTAX.:E05TSI                              WED 07/30/97 04:07 Page:184
     1384      500                                                /**/
     1385      501    1        IF HERE$ = START$
     1386      502    1        THEN
     1387      503    2        DO;
     1388      504    2             CALL PUTITIN(START$, END$, '0'B);
     1389      505    2             OCS_ERRMSGB.TYPE = OCS_ERRCODE;
     1390      506    2             OCS_ERRMSGB.SYNERR_AT = PCB_HI_CHAR;
     1391      507    2             OCS_ERRMSGB.MSG_SELECT = 1 /*E#NOTCMD*/;
     1392      508    2             RETURN;                       /* TO PRINT MESSAGE */
     1393      509    2           END;                            /* DO IF BAD COMMAND */
     1394      510                                                /**/
     1395      511                                                /**/
     1396      512        %EJECT;
PL6.E3A0      #003=OCS$ANLZ File=OCS$SYNTAX.:E05TSI                              WED 07/30/97 04:07 Page:185
     1397      513    1        IF PINCRC(HERE$, -1) -> OCS$T1 = ' '
     1398      514    1        THEN
     1399      515    2        DO;
     1400      516    2             CALL PUTITIN (HERE$, END$, '0'B);
     1401      517    2             OCS_ERRMSGB.TYPE = OCS_ERRCODE;
     1402      518    2             OCS_ERRMSGB.SYNERR_AT = PCB_HI_CHAR;
     1403      519    2             OCS_ERRMSGB.MSG_SELECT = 2 /*E#NOTLGL*/;
     1404      520    2             RETURN;                       /* TO PRINT MESSAGE */
     1405      521    2           END;                            /* DO IF BAD COMMAND */
     1406      522                                                /**/
     1407      523                                                /**/
     1408      524    1        OCS_ERRMSGB.TYPE = OCS_ERRCODE;
     1409      525    1        OCS_ERRMSGB.SYNERR_AT = PCB_HI_CHAR;
     1410      526    1        OCS_ERRMSGB.MSG_SELECT = 5 /*E#UNEVAL*/;
     1411      527    1        RETURN;                            /* TO PRINT MESSAGE */
     1412      528                                                /**/
     1413      529    1   END OCS$ANLZ;
     1414      530        %EOD;

PL6.E3A0      #003=OCS$ANLZ File=OCS$SYNTAX.:E05TSI                              WED 07/30/97 04:07 Page:186
--  Include file information  --

   OCS_DATA_R.:E05TOU  cannot be made into a system file and is referenced.
   OCS_SUBS_C.:E05TOU  is referenced.
   B$JIT_C.:E05TOU  was found in the system file and is never referenced.
   CP_6_C.:E05TOU  was found in the system file and is never referenced.
      No diagnostics issued in procedure OCS$ANLZ.

   Procedure OCS$ANLZ requires 360 words for executable code.
   Procedure OCS$ANLZ requires 14 words of local(AUTO) storage.

PL6.E3A0      #003=OCS$ANLZ File=OCS$SYNTAX.:E05TSI                              WED 07/30/97 04:07 Page:187

 Object Unit name= OCS$ANLZ                                   File name= OCS$SYNTAX.:E05TOU
 UTS= JUL 30 '97 04:07:37.76 WED                              Compiler= PL-6/E31         Sev=      00
 SharedLib= :SHARED_SYSTEM                                    Alt SharedLib=


    ****  Control sections  ****

 Sect   Type Bound  Init  Size OctSiz  Section name(segment info)
    0   Data  even  none     6      6  OCS$ANLZ
    1   Proc  even  none   360    550  OCS$ANLZ
    2  RoData even  none    10     12  OCS$ANLZ

    ****  Entry defs  ****

                              Check   Calling
                             calling  sequence
  Sect OctLoc Primary Altret sequence   type   Parms  Name
     1      0   yes            yes      Std        2  OCS$ANLZ

  ****  Entry refs  ****

         Check        Calling
        calling       sequence
Altret sequence SRef   type   Args  Name
                       nStd      0 X66_AUTO_2
                       Std       0 B_CONSPOOL_D
                       nStd      0 X66_ARET

  ****  Data refs  ****

  Flags:  r = read only, s = secondary
Flgs Name                             Flgs Name                             Flgs Name
     OCS_STRUCTURE                         OCS_KSIZE                             OCS_ERRCODE
     OCS_ERRMSGC                           OCS_ERRMSGB                           B_VECTNIL
PL6.E3A0      #003=OCS$ANLZ File=OCS$SYNTAX.:E05TSI                              WED 07/30/97 04:07 Page:188

  ****  Segment refs  ****

  Flags:  r = read only, s = secondary
Flgs Name                             Flgs Name                             Flgs Name
     ISSID
PL6.E3A0      #003=OCS$ANLZ File=OCS$SYNTAX.:E05TSI                              WED 07/30/97 04:07 Page:189


     1117        1        /*M* OCS$ANLZ KEYINs procedure to find human errors in keyins */
     1118        2        /*T***********************************************************/
     1119        3        /*T*                                                         */
     1120        4        /*T* Copyright (c) Bull HN Information Systems Inc., 1997    */
     1121        5        /*T*                                                         */
     1122        6        /*T***********************************************************/
     1123        7        %SET LISTSUB='1'B;
     1124        8        /*
     1125        9          ###    ###    ###     #     ###   #   #  #      #####
     1126       10         # # #  #   #  #   #   ###   #   #  #   #  #          #
     1127       11         # # #  #      #      # #    #   #  ##  #  #         #
     1128       12         #  ##  #       ###    ###   #####  # # #  #        #
     1129       13         #   #  #          #    # #  #   #  #  ##  #       #
     1130       14         #   #  #   #  #   #   ###   #   #  #   #  #      #
     1131       15          ###    ###    ###     #    #   #  #   #  #####  #####
     1132       16                                                                           */
     1133       17                                                /**/
     1134       18                                                /**/
     1135       19        OCS$ANLZ: PROC (PTR$, ERROR_CODE);

     19  1 000000   000000 700200 xent  OCS$ANLZ     TSX0  ! X66_AUTO_2
         1 000001   000016 000002                    ZERO    14,2
         1 000002   000052 710000 1                  TRA     s:317

     1136       20                                                /**/
     1137       21    1   DCL PTR$ PTR;
     1138       22    1   DCL ERROR_CODE UBIN WORD;
     1139       23    1   DCL PCB_HI_CHAR REDEF ERROR_CODE UBIN WORD;
     1140       24                                                /**/
     1141       25        %INCLUDE OCS_SUBS_C;
     1142      242                                                /**/
     1143      243        %INCLUDE OCS_DATA_R;
     1144      260                                                /**/
     1145      261    1   DCL 1 TEXTC BASED,
     1146      262    1            2 COUNT UBIN BYTE UNAL,
     1147      263    1            2 TEXT CHAR(TEXTC.COUNT) UNAL;
PL6.E3A0      #003=OCS$ANLZ File=OCS$SYNTAX.:E05TSI                              WED 07/30/97 04:07 Page:190
     1148      264    1   DCL OCS$T1 BASED CHAR(1) CALIGNED;
     1149      265    1   DCL OCS$TN BASED CHAR(SIZEC_TEXT) CALIGNED;
     1150      266                                                /**/
     1151      267                                                /**/
     1152      268    1   DCL SIZEC_TEXT UBIN WORD STATIC;
     1153      269    1   DCL START$ PTR STATIC;
     1154      270    1   DCL END$ PTR STATIC;
     1155      271    1   DCL HERE$ PTR STATIC;
     1156      272    1   DCL I SBIN WORD STATIC;
     1157      273    1   DCL I_UBIN REDEF I UBIN WORD;
     1158      274    1   DCL J SBIN WORD STATIC;
     1159      275                                                /**/
     1160      276        %EJECT;
PL6.E3A0      #003=OCS$ANLZ File=OCS$SYNTAX.:E05TSI                              WED 07/30/97 04:07 Page:191
     1161      277        /*
     1162      278                  Internal routine PUTITIN
     1163      279                                                */
     1164      280    1   PUTITIN: PROC( SSTART$, SEND$, FLAG);

    280  1 000003   200006 741300       PUTITIN      STX1  ! @ERROR_CODE+2,,AUTO

     1165      281                                                /**/
     1166      282    2   DCL SSTART$ PTR;
     1167      283    2   DCL SEND$ PTR;
     1168      284    2   DCL LPTR$ PTR;
     1169      285    2   DCL FLAG BIT(1) ALIGNED;                /* IF ON, RIGHT JUSTIFY */
     1170      286                                                /**/
     1171      287    2        SIZEC_TEXT = POFFC (SEND$, SSTART$) + 1;

    287  1 000004   200007 470500                    LDP0    @SSTART$,,AUTO
         1 000005   000000 236100                    LDQ     0,,PR0
         1 000006   000020 772000                    QRL     16
         1 000007   200014 756100                    STQ     LPTR$+2,,AUTO
         1 000010   200010 471500                    LDP1    @SEND$,,AUTO
         1 000011   100000 236100                    LDQ     0,,PR1
         1 000012   000020 772000                    QRL     16
         1 000013   200014 136100                    SBLQ    LPTR$+2,,AUTO
         1 000014   000001 036007                    ADLQ    1,DL
         1 000015   000000 756000 0                  STQ     SIZEC_TEXT

     1172      288    2        LPTR$ = SSTART$;

    288  1 000016   000000 236100                    LDQ     0,,PR0
         1 000017   200012 756100                    STQ     LPTR$,,AUTO

     1173      289                                                /**/
     1174      290    2        IF SIZEC_TEXT > SIZEC(OCS_ERRMSGB.TEXT_STRING)

    290  1 000020   000000 235000 0                  LDA     SIZEC_TEXT
         1 000021   000121 115007                    CMPA    81,DL
         1 000022   000041 602000 1                  TNC     s:304
PL6.E3A0      #003=OCS$ANLZ File=OCS$SYNTAX.:E05TSI                              WED 07/30/97 04:07 Page:192

     1175      291    2        THEN
     1176      292    3        DO;

     1177      293    3             SIZEC_TEXT = SIZEC(OCS_ERRMSGB.TEXT_STRING);

    293  1 000023   000120 235007                    LDA     80,DL
         1 000024   000000 755000 0                  STA     SIZEC_TEXT

     1178      294    3             IF FLAG

    294  1 000025   200011 473500                    LDP3    @FLAG,,AUTO
         1 000026   300000 234100                    SZN     0,,PR3
         1 000027   000033 605000 1                  TPL     s:298

     1179      295    3             THEN
     1180      296    3                  LPTR$ = PINCRC(SEND$, -SIZEC(OCS_ERRMSGB.TEXT_STRING));

    296  1 000030   100000 236100                    LDQ     0,,PR1
         1 000031   777754 036003                    ADLQ    -20,DU
         1 000032   200012 756100                    STQ     LPTR$,,AUTO

     1181      297                                                /**/
     1182      298    3             CALL INSERT (OCS_ERRMSGB.TEXT_STRING, 0,

    298  1 000033   200012 474500                    LDP4    LPTR$,,AUTO
         1 000034   000000 620005                    EAX0    0,AL
         1 000035   040000 100540                    MLR     fill='040'O
         1 000036   400000 000010                    ADSC9   0,,PR4                   cn=0,n=*X0
         1 000037   000000 600120 xsym               ADSC9   OCS_ERRMSGB              cn=3,n=80

     1183      299    3                  SIZEC(OCS_ERRMSGB.TEXT_STRING),
     1184      300    3                  LPTR$ -> OCS$TN);
     1185      301    3           END;                            /* DO IF OVERFLOW */

    301  1 000040   000047 710000 1                  TRA     s:307

PL6.E3A0      #003=OCS$ANLZ File=OCS$SYNTAX.:E05TSI                              WED 07/30/97 04:07 Page:193
     1186      302    2        ELSE
     1187      303    3        DO;

     1188      304    3             CALL INSERT (OCS_ERRMSGB.TEXT_STRING, 0,

    304  1 000041   200012 473500                    LDP3    LPTR$,,AUTO
         1 000042   000000 620005                    EAX0    0,AL
         1 000043   000000 722000 0                  LXL2    SIZEC_TEXT
         1 000044   040040 100540                    MLR     fill='040'O
         1 000045   300000 000010                    ADSC9   0,,PR3                   cn=0,n=*X0
         1 000046   000000 600012 xsym               ADSC9   OCS_ERRMSGB              cn=3,n=*X2

     1189      305    3                  SIZEC_TEXT, LPTR$ -> OCS$TN);
     1190      306    3           END;                            /* DO IF NOT OVERFLOW */

     1191      307    2        OCS_ERRMSGC.SIZE_TEXT = SIZEC_TEXT;

    307  1 000047   000000 236000 0                  LDQ     SIZEC_TEXT
         1 000050   000000 552004 xsym               STBQ    OCS_ERRMSGC,'04'O

     1192      308                                                /**/
     1193      309                                                /**/
     1194      310    2   END PUTITIN;

    310  1 000051   000001 702211                    TSX2  ! 1,X1

     1195      311        %EJECT;
PL6.E3A0      #003=OCS$ANLZ File=OCS$SYNTAX.:E05TSI                              WED 07/30/97 04:07 Page:194
     1196      312        /*
     1197      313                  Begin  O C S $ A N L Z   main
     1198      314                                                                          */
     1199      315                                                /**/
     1200      316                                                /**/
     1201      317    1        IF OCS_ERRCODE ~= 3 /* OCS_ERRORS#  */

    317  1 000052   000000 235000 xsym               LDA     OCS_ERRCODE
         1 000053   000003 115007                    CMPA    3,DL
         1 000054   000143 600000 1                  TZE     s:383

     1202      318    1        THEN
     1203      319    2        DO;

     1204      320    2             OCS_ERRMSGB.TYPE = OCS_ERRCODE;

    320  1 000055   000000 236000 xsym               LDQ     OCS_ERRCODE
         1 000056   000033 736000                    QLS     27
         1 000057   000000 552040 xsym               STBQ    OCS_ERRMSGB,'40'O

     1205      321    2             OCS_ERRMSGB.SYNERR_AT = 0;

    321  1 000060   000000 236003                    LDQ     0,DU
         1 000061   000000 552020 xsym               STBQ    OCS_ERRMSGB,'20'O

     1206      322    2             OCS_ERRMSGB.MSG_SELECT = ERROR_CODE;

    322  1 000062   200004 470500                    LDP0    @ERROR_CODE,,AUTO
         1 000063   000000 236100                    LDQ     0,,PR0
         1 000064   000011 736000                    QLS     9
         1 000065   000000 552010 xsym               STBQ    OCS_ERRMSGB,'10'O

     1207      323    2             IF OCS_ERRCODE = 2 /* OCS_ILLEGAL# */

    323  1 000066   000002 115007                    CMPA    2,DL
         1 000067   000100 601000 1                  TNZ     s:332

PL6.E3A0      #003=OCS$ANLZ File=OCS$SYNTAX.:E05TSI                              WED 07/30/97 04:07 Page:195
     1208      324    2             THEN
     1209      325    3             DO;

     1210      326    3                  OCS_ERRMSGB.MSG_SELECT = 0;

    326  1 000070   000000 236003                    LDQ     0,DU
         1 000071   000000 552010 xsym               STBQ    OCS_ERRMSGB,'10'O

     1211      327    3                  OCS_ERRMSGC.SIZE_TEXT = 1;

    327  1 000072   000001 236007                    LDQ     1,DL
         1 000073   000000 552004 xsym               STBQ    OCS_ERRMSGC,'04'O

     1212      328    3                  OCS_ERRMSGB.TEXT_STRING = ' ';

    328  1 000074   040000 100400                    MLR     fill='040'O
         1 000075   000035 000001 xsym               ADSC9   B_VECTNIL+29             cn=0,n=1
         1 000076   000000 600120 xsym               ADSC9   OCS_ERRMSGB              cn=3,n=80

     1213      329    3                END;                       /* DO IF CHKINP */

    329  1 000077   000142 710000 1                  TRA     s:345

     1214      330    2             ELSE
     1215      331    3             DO;

     1216      332    3                  OCS_ERRMSGB.MSG_SELECT = ERROR_CODE;

    332  1 000100   000000 236100                    LDQ     0,,PR0
         1 000101   000011 736000                    QLS     9
         1 000102   000000 552010 xsym               STBQ    OCS_ERRMSGB,'10'O

     1217      333    3                  IF PTR$ -> TEXTC.COUNT > SIZEC(OCS_ERRMSGB.TEXT_STRING)

    333  1 000103   200003 471500                    LDP1    @PTR$,,AUTO
         1 000104   100000 473500                    LDP3    0,,PR1
         1 000105   000100 101500                    MRL     fill='000'O
PL6.E3A0      #003=OCS$ANLZ File=OCS$SYNTAX.:E05TSI                              WED 07/30/97 04:07 Page:196
         1 000106   300000 000001                    ADSC9   0,,PR3                   cn=0,n=1
         1 000107   200014 000004                    ADSC9   LPTR$+2,,AUTO            cn=0,n=4
         1 000110   200014 236100                    LDQ     LPTR$+2,,AUTO
         1 000111   000121 116007                    CMPQ    81,DL
         1 000112   000126 604000 1                  TMI     s:341

     1218      334    3                  THEN
     1219      335    4                  DO;

     1220      336    4                       OCS_ERRMSGC.SIZE_TEXT = SIZEC(OCS_ERRMSGB.TEXT_STRING);

    336  1 000113   000120 236007                    LDQ     80,DL
         1 000114   000000 552004 xsym               STBQ    OCS_ERRMSGC,'04'O

     1221      337    4                       OCS_ERRMSGB.TEXT_STRING = PTR$ -> TEXTC.TEXT;

    337  1 000115   100000 473500                    LDP3    0,,PR1
         1 000116   000100 101500                    MRL     fill='000'O
         1 000117   300000 000001                    ADSC9   0,,PR3                   cn=0,n=1
         1 000120   200014 000002                    ADSC9   LPTR$+2,,AUTO            cn=0,n=2
         1 000121   200014 220100                    LDX0    LPTR$+2,,AUTO
         1 000122   040000 100540                    MLR     fill='040'O
         1 000123   300000 200010                    ADSC9   0,,PR3                   cn=1,n=*X0
         1 000124   000000 600120 xsym               ADSC9   OCS_ERRMSGB              cn=3,n=80

     1222      338    4                     END;                  /* DO IF OVER FLOW */

    338  1 000125   000142 710000 1                  TRA     s:345

     1223      339    3                  ELSE
     1224      340    4                  DO;

     1225      341    4                       OCS_ERRMSGC.SIZE_TEXT = PTR$ -> TEXTC.COUNT;

    341  1 000126   100000 473500                    LDP3    0,,PR1
         1 000127   000000 100500                    MLR     fill='000'O
         1 000130   300000 000001                    ADSC9   0,,PR3                   cn=0,n=1
PL6.E3A0      #003=OCS$ANLZ File=OCS$SYNTAX.:E05TSI                              WED 07/30/97 04:07 Page:197
         1 000131   000000 600001 xsym               ADSC9   OCS_ERRMSGC              cn=3,n=1

     1226      342    4                       OCS_ERRMSGB.TEXT_STRING = PTR$ -> TEXTC.TEXT;

    342  1 000132   100000 473500                    LDP3    0,,PR1
         1 000133   000100 101500                    MRL     fill='000'O
         1 000134   300000 000001                    ADSC9   0,,PR3                   cn=0,n=1
         1 000135   200014 000002                    ADSC9   LPTR$+2,,AUTO            cn=0,n=2
         1 000136   200014 220100                    LDX0    LPTR$+2,,AUTO
         1 000137   040000 100540                    MLR     fill='040'O
         1 000140   300000 200010                    ADSC9   0,,PR3                   cn=1,n=*X0
         1 000141   000000 600120 xsym               ADSC9   OCS_ERRMSGB              cn=3,n=80

     1227      343    4                     END;                  /* DO IF NO OVER FLOW */

     1228      344    3                END;                       /* DO IF NOT BAD NODES */

     1229      345    2             RETURN;                       /* If not syntax error, return */

    345  1 000142   000000 702200 xent               TSX2  ! X66_ARET

     1230      346    2           END;                            /* DO IF not syntax error */
     1231      347                                                /**/
     1232      348                                                /**/
     1233      349        %EJECT;
PL6.E3A0      #003=OCS$ANLZ File=OCS$SYNTAX.:E05TSI                              WED 07/30/97 04:07 Page:198
     1234      350                                           /* Process the X$PARSE syntax error
     1235      351                                                in some kind of general manner
     1236      352                                                here....the following "rules"
     1237      353                                                were determined by trial and
     1238      354                                                error:
     1239      355                                           1) PCB.HICHAR > INBUFFER
     1240      356                                                Something is missing after the
     1241      357                                                last character input.  It's
     1242      358                                                ok till there.
     1243      359                                           2) PCB.HICHAR = 0 or PCB.HICHAR
     1244      360                                                = first non_prompt character
     1245      361                                                (like space or !)
     1246      362                                                indicates, in general, that
     1247      363                                                the command is illegal, i.e.
     1248      364                                                the keyword or command word
     1249      365                                                was not recognized.
     1250      366                                           3) PCB.HICHAR ~= 0 but no delimiter
     1251      367                                                between HICHAR and start of
     1252      368                                                line.
     1253      369                                                This usually indicates that
     1254      370                                                the command was legal until
     1255      371                                                HICHAR. After that, no dice.
     1256      372                                           4) PCB.HICHAR ~= 0 and a delimiter
     1257      373                                                is at HICHAR or HICHAR - 1.
     1258      374                                                Indicates illegal value start-
     1259      375                                                ing at the indicated character
     1260      376                                                (sometimes implies incorrect
     1261      377                                                field, such as non-numeric
     1262      378                                                when numeric expected, etc.)
     1263      379                                           5) PCB.HICHAR ~= 0 and a delimiter
     1264      380                                                is not at HICHAR - 1.
     1265      381                                                I dunno. I couldn't produce it
     1266      382                                                                          */
     1267      383    1        IF PCB_HI_CHAR >= OCS_KSIZE  /* HI_CHAR is zero_based;

    383  1 000143   200004 470500                    LDP0    @ERROR_CODE,,AUTO
         1 000144   000000 236100                    LDQ     0,,PR0
PL6.E3A0      #003=OCS$ANLZ File=OCS$SYNTAX.:E05TSI                              WED 07/30/97 04:07 Page:199
         1 000145   000000 116000 xsym               CMPQ    OCS_KSIZE
         1 000146   000225 602000 1                  TNC     s:417

     1268      384                                                KSIZE is 1_based */
     1269      385    1        THEN
     1270      386    2        DO;

     1271      387    2             OCS_ERRMSGB.TYPE = OCS_ERRCODE;

    387  1 000147   000000 236000 xsym               LDQ     OCS_ERRCODE
         1 000150   000033 736000                    QLS     27
         1 000151   000000 552040 xsym               STBQ    OCS_ERRMSGB,'40'O

     1272      388    2             OCS_ERRMSGB.SYNERR_AT = PCB_HI_CHAR;

    388  1 000152   000000 236100                    LDQ     0,,PR0
         1 000153   000022 736000                    QLS     18
         1 000154   000000 552020 xsym               STBQ    OCS_ERRMSGB,'20'O

     1273      389    2             OCS_ERRMSGB.MSG_SELECT = 3 /*E#SMISNG*/;

    389  1 000155   003000 236007                    LDQ     1536,DL
         1 000156   000000 552010 xsym               STBQ    OCS_ERRMSGB,'10'O

     1274      390                                                /**/
     1275      391    2             HERE$ = PINCRC (PTR$, (PCB_HI_CHAR - 1));

    391  1 000157   000000 236100                    LDQ     0,,PR0
         1 000160   200003 471500                    LDP1    @PTR$,,AUTO
         1 000161   100000 473500                    LDP3    0,,PR1
         1 000162   000011 402007                    MPY     9,DL
         1 000163   000011 136007                    SBLQ    9,DL
         1 000164   000166 605000 1                  TPL     s:391+7
         1 000165   000044 036003                    ADLQ    36,DU
         1 000166   300000 503506                    ABD     0,QL,PR3
         1 000167   000003 453400 0                  STP3    HERE$

PL6.E3A0      #003=OCS$ANLZ File=OCS$SYNTAX.:E05TSI                              WED 07/30/97 04:07 Page:200
     1276      392    2             END$ = HERE$;

    392  1 000170   000003 236000 0                  LDQ     HERE$
         1 000171   000002 756000 0                  STQ     END$

     1277      393                                                /**/
     1278      394    3             DO WHILE ((HERE$ > PTR$) AND (HERE$ -> OCS$T1 ~= ' '));

    394  1 000172   000176 710000 1                  TRA     s:396

     1279      395    3                  HERE$ = PINCRC (HERE$, -1);

    395  1 000173   000003 236000 0                  LDQ     HERE$
         1 000174   000034 036000 xsym               ADLQ    B_VECTNIL+28
         1 000175   000003 756000 0                  STQ     HERE$

     1280      396    3                END;                       /* DO WHILE HERE$ NOT RIGHT */

    396  1 000176   200003 470500                    LDP0    @PTR$,,AUTO
         1 000177   000000 116100                    CMPQ    0,,PR0
         1 000200   000207 602000 1                  TNC     s:398
         1 000201   000207 600000 1                  TZE     s:398
         1 000202   000003 471400 0                  LDP1    HERE$
         1 000203   040000 106500                    CMPC    fill='040'O
         1 000204   100000 000001                    ADSC9   0,,PR1                   cn=0,n=1
         1 000205   000035 000001 xsym               ADSC9   B_VECTNIL+29             cn=0,n=1
         1 000206   000173 601000 1                  TNZ     s:395

     1281      397                                                /**/
     1282      398    2             IF HERE$ -> OCS$T1 = ' '

    398  1 000207   000003 471400 0                  LDP1    HERE$
         1 000210   040000 106500                    CMPC    fill='040'O
         1 000211   100000 000001                    ADSC9   0,,PR1                   cn=0,n=1
         1 000212   000035 000001 xsym               ADSC9   B_VECTNIL+29             cn=0,n=1
         1 000213   000216 601000 1                  TNZ     s:402

PL6.E3A0      #003=OCS$ANLZ File=OCS$SYNTAX.:E05TSI                              WED 07/30/97 04:07 Page:201
     1283      399    2             THEN
     1284      400    2                  HERE$ = PINCRC(HERE$,1);

    400  1 000214   200000 036007                    ADLQ    65536,DL
         1 000215   000003 756000 0                  STQ     HERE$

     1285      401                                                /**/
     1286      402    2             CALL PUTITIN(HERE$,END$,'1'B);

    402  1 000216   000000 237000 2                  LDAQ    0
         1 000217   200010 757100                    STAQ    @SSTART$+1,,AUTO
         1 000220   000002 236000 2                  LDQ     2
         1 000221   200007 756100                    STQ     @ERROR_CODE+3,,AUTO
         1 000222   000003 701000 1                  TSX1    PUTITIN
         1 000223   000000 011000                    NOP     0

     1287      403    2             RETURN;

    403  1 000224   000000 702200 xent               TSX2  ! X66_ARET

     1288      404    2           END;                            /* DO IF E#SMISNG */
     1289      405                                                /**/
     1290      406                                                /**/
     1291      407        %EJECT;
PL6.E3A0      #003=OCS$ANLZ File=OCS$SYNTAX.:E05TSI                              WED 07/30/97 04:07 Page:202
     1292      408                                           /* Here we check to see if
     1293      409                                                "Illegal command" by virtue
     1294      410                                                of the fact that the parser
     1295      411                                                choked on the first character
     1296      412                                                that was "legal".  Legal means
     1297      413                                                that maybe there was a series
     1298      414                                                of spaces or bangs before it
     1299      415                                                which may or may not be legal
     1300      416                                                This is checked for       */
     1301      417    1        START$ = PTR$;

    417  1 000225   200003 471500                    LDP1    @PTR$,,AUTO
         1 000226   100000 236100                    LDQ     0,,PR1
         1 000227   000001 756000 0                  STQ     START$

     1302      418    1        END$ = PINCRC(START$,OCS_KSIZE - 1);

    418  1 000230   000000 236000 xsym               LDQ     OCS_KSIZE
         1 000231   000020 736000                    QLS     16
         1 000232   200000 136007                    SBLQ    65536,DL
         1 000233   000001 036000 0                  ADLQ    START$
         1 000234   000002 756000 0                  STQ     END$

     1303      419                                                /**/
     1304      420    2        DO I = 0 TO OCS_KSIZE - 1;

    420  1 000235   000004 450000 0                  STZ     I
         1 000236   000266 710000 1                  TRA     s:432+1

     1305      421    2             IF I_UBIN >= PCB_HI_CHAR

    421  1 000237   200004 470500                    LDP0    @ERROR_CODE,,AUTO
         1 000240   000004 236000 0                  LDQ     I
         1 000241   000000 116100                    CMPQ    0,,PR0
         1 000242   000246 602000 1                  TNC     s:425

     1306      422    2             THEN
PL6.E3A0      #003=OCS$ANLZ File=OCS$SYNTAX.:E05TSI                              WED 07/30/97 04:07 Page:203
     1307      423    2                  I = OCS_KSIZE;

    423  1 000243   000000 235000 xsym               LDA     OCS_KSIZE
         1 000244   000004 755000 0                  STA     I
         1 000245   000265 710000 1                  TRA     s:432

     1308      424    2             ELSE
     1309      425    2                  IF START$ -> OCS$T1 ~= ' '

    425  1 000246   000001 471400 0                  LDP1    START$
         1 000247   040000 106500                    CMPC    fill='040'O
         1 000250   100000 000001                    ADSC9   0,,PR1                   cn=0,n=1
         1 000251   000035 000001 xsym               ADSC9   B_VECTNIL+29             cn=0,n=1
         1 000252   000262 600000 1                  TZE     s:431
         1 000253   040000 106500                    CMPC    fill='040'O
         1 000254   100000 000001                    ADSC9   0,,PR1                   cn=0,n=1
         1 000255   000003 000001 2                  ADSC9   3                        cn=0,n=1
         1 000256   000262 600000 1                  TZE     s:431

     1310      426    2                       AND
     1311      427    2                       START$ -> OCS$T1 ~= '!'
     1312      428    2                  THEN
     1313      429    2                       I = OCS_KSIZE;

    429  1 000257   000000 235000 xsym               LDA     OCS_KSIZE
         1 000260   000004 755000 0                  STA     I
         1 000261   000265 710000 1                  TRA     s:432

     1314      430    2                  ELSE
     1315      431    2                       START$ = PINCRC(START$,1);

    431  1 000262   000001 236000 0                  LDQ     START$
         1 000263   200000 036007                    ADLQ    65536,DL
         1 000264   000001 756000 0                  STQ     START$

     1316      432    2           END;                            /* DO I = 0 TO END_OF_BUF */

PL6.E3A0      #003=OCS$ANLZ File=OCS$SYNTAX.:E05TSI                              WED 07/30/97 04:07 Page:204
    432  1 000265   000004 054000 0                  AOS     I
         1 000266   000004 236000 0                  LDQ     I
         1 000267   000237 604000 1                  TMI     s:421
         1 000270   000000 116000 xsym               CMPQ    OCS_KSIZE
         1 000271   000237 602000 1                  TNC     s:421

     1317      433                                                /**/
     1318      434                                                /**/
     1319      435    1        IF PCB_HI_CHAR = 0

    435  1 000272   000000 235100                    LDA     0,,PR0
         1 000273   000306 600000 1                  TZE     s:440
         1 000274   000000 236100                    LDQ     0,,PR0
         1 000275   200003 471500                    LDP1    @PTR$,,AUTO
         1 000276   100000 473500                    LDP3    0,,PR1
         1 000277   000011 402007                    MPY     9,DL
         1 000300   300000 503506                    ABD     0,QL,PR3
         1 000301   200014 453500                    STP3    LPTR$+2,,AUTO
         1 000302   200014 236100                    LDQ     LPTR$+2,,AUTO
         1 000303   000001 116000 0                  CMPQ    START$
         1 000304   000306 600000 1                  TZE     s:440
         1 000305   000376 603000 1                  TRC     s:472

     1320      436    1             OR
     1321      437    1             START$ >= PINCRC(PTR$, PCB_HI_CHAR)
     1322      438    1        THEN
     1323      439    2        DO;

     1324      440    2             HERE$ = START$;

    440  1 000306   000001 236000 0                  LDQ     START$
         1 000307   000003 756000 0                  STQ     HERE$

     1325      441    3             DO WHILE ((HERE$ -> OCS$T1 ~=' ')

    441  1 000310   000314 710000 1                  TRA     s:445

PL6.E3A0      #003=OCS$ANLZ File=OCS$SYNTAX.:E05TSI                              WED 07/30/97 04:07 Page:205
     1326      442    3                  AND
     1327      443    3                  (HERE$ < END$));
     1328      444    3                  HERE$ = PINCRC(HERE$,1);

    444  1 000311   000003 236000 0                  LDQ     HERE$
         1 000312   200000 036007                    ADLQ    65536,DL
         1 000313   000003 756000 0                  STQ     HERE$

     1329      445    3                END;                       /* DO WHILE MORE IN STRING */

    445  1 000314   000003 470400 0                  LDP0    HERE$
         1 000315   040000 106500                    CMPC    fill='040'O
         1 000316   000000 000001                    ADSC9   0,,PR0                   cn=0,n=1
         1 000317   000035 000001 xsym               ADSC9   B_VECTNIL+29             cn=0,n=1
         1 000320   000323 600000 1                  TZE     s:446
         1 000321   000002 116000 0                  CMPQ    END$
         1 000322   000311 602000 1                  TNC     s:444

     1330      446    2             IF START$ > PINCRC (PTR$, PCB_HI_CHAR)

    446  1 000323   200004 471500                    LDP1    @ERROR_CODE,,AUTO
         1 000324   100000 236100                    LDQ     0,,PR1
         1 000325   200003 473500                    LDP3    @PTR$,,AUTO
         1 000326   300000 474500                    LDP4    0,,PR3
         1 000327   000011 402007                    MPY     9,DL
         1 000330   400000 503506                    ABD     0,QL,PR4
         1 000331   200014 454500                    STP4    LPTR$+2,,AUTO
         1 000332   200014 236100                    LDQ     LPTR$+2,,AUTO
         1 000333   000001 116000 0                  CMPQ    START$
         1 000334   000342 603000 1                  TRC     s:449

     1331      447    2             THEN
     1332      448    2                  START$ = PINCRC(PTR$, PCB_HI_CHAR);

    448  1 000335   100000 236100                    LDQ     0,,PR1
         1 000336   300000 474500                    LDP4    0,,PR3
         1 000337   000011 402007                    MPY     9,DL
PL6.E3A0      #003=OCS$ANLZ File=OCS$SYNTAX.:E05TSI                              WED 07/30/97 04:07 Page:206
         1 000340   400000 503506                    ABD     0,QL,PR4
         1 000341   000001 454400 0                  STP4    START$

     1333      449    2             IF HERE$ > END$

    449  1 000342   000002 236000 0                  LDQ     END$
         1 000343   000003 116000 0                  CMPQ    HERE$
         1 000344   000346 603000 1                  TRC     s:452

     1334      450    2             THEN
     1335      451    2                  HERE$ = END$;

    451  1 000345   000003 756000 0                  STQ     HERE$

     1336      452    2             IF HERE$ -> OCS$T1 = ' '

    452  1 000346   000003 470400 0                  LDP0    HERE$
         1 000347   040000 106500                    CMPC    fill='040'O
         1 000350   000000 000001                    ADSC9   0,,PR0                   cn=0,n=1
         1 000351   000035 000001 xsym               ADSC9   B_VECTNIL+29             cn=0,n=1
         1 000352   000356 601000 1                  TNZ     s:455

     1337      453    2             THEN
     1338      454    2                  HERE$ = PINCRC(HERE$, -1);

    454  1 000353   000003 236000 0                  LDQ     HERE$
         1 000354   000034 036000 xsym               ADLQ    B_VECTNIL+28
         1 000355   000003 756000 0                  STQ     HERE$

     1339      455    2             CALL PUTITIN( START$, HERE$, '0'B);

    455  1 000356   000004 237000 2                  LDAQ    4
         1 000357   200010 757100                    STAQ    @SSTART$+1,,AUTO
         1 000360   000006 236000 2                  LDQ     6
         1 000361   200007 756100                    STQ     @ERROR_CODE+3,,AUTO
         1 000362   000003 701000 1                  TSX1    PUTITIN
         1 000363   000000 011000                    NOP     0
PL6.E3A0      #003=OCS$ANLZ File=OCS$SYNTAX.:E05TSI                              WED 07/30/97 04:07 Page:207

     1340      456    2             OCS_ERRMSGB.TYPE = OCS_ERRCODE;

    456  1 000364   000000 236000 xsym               LDQ     OCS_ERRCODE
         1 000365   000033 736000                    QLS     27
         1 000366   000000 552040 xsym               STBQ    OCS_ERRMSGB,'40'O

     1341      457    2             OCS_ERRMSGB.SYNERR_AT = PCB_HI_CHAR;

    457  1 000367   200004 470500                    LDP0    @ERROR_CODE,,AUTO
         1 000370   000000 236100                    LDQ     0,,PR0
         1 000371   000022 736000                    QLS     18
         1 000372   000000 552020 xsym               STBQ    OCS_ERRMSGB,'20'O

     1342      458    2             OCS_ERRMSGB.MSG_SELECT = 1 /*E#NOTCMD*/;

    458  1 000373   001000 236007                    LDQ     512,DL
         1 000374   000000 552010 xsym               STBQ    OCS_ERRMSGB,'10'O

     1343      459    2             RETURN;                       /* TO PRINT MESSAGE */

    459  1 000375   000000 702200 xent               TSX2  ! X66_ARET

     1344      460    2           END;                            /* DO IF BAD COMMAND */
     1345      461                                                /**/
     1346      462        %EJECT;
PL6.E3A0      #003=OCS$ANLZ File=OCS$SYNTAX.:E05TSI                              WED 07/30/97 04:07 Page:208
     1347      463                                           /* Here we check for "bad command"
     1348      464                                                but this time it could be bad
     1349      465                                                because the first few characters
     1350      466                                                "n" werent....attempt to detect
     1351      467                                                this by trying to find a space
     1352      468                                                somewhere before HI_CHAR
     1353      469                                                If START$ is found before a
     1354      470                                                space, frame START$ to END$
     1355      471                                                and complain */
     1356      472    1        HERE$ = PINCRC(PTR$, PCB_HI_CHAR);

    472  1 000376   000000 236100                    LDQ     0,,PR0
         1 000377   100000 474500                    LDP4    0,,PR1
         1 000400   000011 402007                    MPY     9,DL
         1 000401   400000 503506                    ABD     0,QL,PR4
         1 000402   000003 454400 0                  STP4    HERE$

     1357      473                                                /**/
     1358      474    2        DO WHILE (( HERE$ -> OCS$T1 = ' ')

    474  1 000403   000407 710000 1                  TRA     s:478

     1359      475    2             AND
     1360      476    2             (HERE$ < END$));
     1361      477    2             HERE$ = PINCRC (HERE$, 1);

    477  1 000404   000003 236000 0                  LDQ     HERE$
         1 000405   200000 036007                    ADLQ    65536,DL
         1 000406   000003 756000 0                  STQ     HERE$

     1362      478    2           END;                            /* DO WHILE BLANKS */

    478  1 000407   000003 470400 0                  LDP0    HERE$
         1 000410   040000 106500                    CMPC    fill='040'O
         1 000411   000000 000001                    ADSC9   0,,PR0                   cn=0,n=1
         1 000412   000035 000001 xsym               ADSC9   B_VECTNIL+29             cn=0,n=1
         1 000413   000417 601000 1                  TNZ     s:481
PL6.E3A0      #003=OCS$ANLZ File=OCS$SYNTAX.:E05TSI                              WED 07/30/97 04:07 Page:209
         1 000414   000003 236000 0                  LDQ     HERE$
         1 000415   000002 116000 0                  CMPQ    END$
         1 000416   000404 602000 1                  TNC     s:477

     1363      479                                                /**/
     1364      480                                                /**/
     1365      481    2        DO WHILE ((HERE$ -> OCS$T1 ~= ' ')

    481  1 000417   000423 710000 1                  TRA     s:485

     1366      482    2             AND
     1367      483    2             (HERE$ < END$));
     1368      484    2             HERE$ = PINCRC (HERE$, 1);

    484  1 000420   000003 236000 0                  LDQ     HERE$
         1 000421   200000 036007                    ADLQ    65536,DL
         1 000422   000003 756000 0                  STQ     HERE$

     1369      485    2           END;                            /* DO WHILE */

    485  1 000423   000003 470400 0                  LDP0    HERE$
         1 000424   040000 106500                    CMPC    fill='040'O
         1 000425   000000 000001                    ADSC9   0,,PR0                   cn=0,n=1
         1 000426   000035 000001 xsym               ADSC9   B_VECTNIL+29             cn=0,n=1
         1 000427   000433 600000 1                  TZE     s:487
         1 000430   000003 236000 0                  LDQ     HERE$
         1 000431   000002 116000 0                  CMPQ    END$
         1 000432   000420 602000 1                  TNC     s:484

     1370      486                                                /**/
     1371      487    1        IF HERE$ -> OCS$T1 = ' '

    487  1 000433   040000 106500                    CMPC    fill='040'O
         1 000434   000000 000001                    ADSC9   0,,PR0                   cn=0,n=1
         1 000435   000035 000001 xsym               ADSC9   B_VECTNIL+29             cn=0,n=1
         1 000436   000442 601000 1                  TNZ     s:491

PL6.E3A0      #003=OCS$ANLZ File=OCS$SYNTAX.:E05TSI                              WED 07/30/97 04:07 Page:210
     1372      488    1        THEN
     1373      489    1             HERE$ = PINCRC(HERE$, -1);

    489  1 000437   000003 236000 0                  LDQ     HERE$
         1 000440   000034 036000 xsym               ADLQ    B_VECTNIL+28
         1 000441   000003 756000 0                  STQ     HERE$

     1374      490                                                /**/
     1375      491    1        END$ = HERE$;

    491  1 000442   000003 236000 0                  LDQ     HERE$
         1 000443   000002 756000 0                  STQ     END$

     1376      492                                                /**/
     1377      493    1        HERE$ = PINCRC (PTR$, PCB_HI_CHAR);

    493  1 000444   200004 470500                    LDP0    @ERROR_CODE,,AUTO
         1 000445   000000 236100                    LDQ     0,,PR0
         1 000446   200003 471500                    LDP1    @PTR$,,AUTO
         1 000447   100000 473500                    LDP3    0,,PR1
         1 000450   000011 402007                    MPY     9,DL
         1 000451   300000 503506                    ABD     0,QL,PR3
         1 000452   000003 453400 0                  STP3    HERE$

     1378      494                                                /**/
     1379      495    2        DO WHILE ((PINCRC(HERE$,-1) -> OCS$T1 ~=' ')

    495  1 000453   000457 710000 1                  TRA     s:499

     1380      496    2             AND
     1381      497    2             (HERE$ > START$));
     1382      498    2             HERE$ = PINCRC (HERE$, -1);

    498  1 000454   000003 236000 0                  LDQ     HERE$
         1 000455   000034 036000 xsym               ADLQ    B_VECTNIL+28
         1 000456   000003 756000 0                  STQ     HERE$

PL6.E3A0      #003=OCS$ANLZ File=OCS$SYNTAX.:E05TSI                              WED 07/30/97 04:07 Page:211
     1383      499    2           END;                            /* DO WHILE */

    499  1 000457   000003 470400 0                  LDP0    HERE$
         1 000460   040000 106500                    CMPC    fill='040'O
         1 000461   077777 600001                    ADSC9   -1,,PR0                  cn=3,n=1
         1 000462   000035 000001 xsym               ADSC9   B_VECTNIL+29             cn=0,n=1
         1 000463   000467 600000 1                  TZE     s:501
         1 000464   000001 236000 0                  LDQ     START$
         1 000465   000003 116000 0                  CMPQ    HERE$
         1 000466   000454 602000 1                  TNC     s:498

     1384      500                                                /**/
     1385      501    1        IF HERE$ = START$

    501  1 000467   000003 236000 0                  LDQ     HERE$
         1 000470   000001 116000 0                  CMPQ    START$
         1 000471   000512 601000 1                  TNZ     s:513

     1386      502    1        THEN
     1387      503    2        DO;

     1388      504    2             CALL PUTITIN(START$, END$, '0'B);

    504  1 000472   000010 237000 2                  LDAQ    8
         1 000473   200010 757100                    STAQ    @SSTART$+1,,AUTO
         1 000474   000006 236000 2                  LDQ     6
         1 000475   200007 756100                    STQ     @ERROR_CODE+3,,AUTO
         1 000476   000003 701000 1                  TSX1    PUTITIN
         1 000477   000000 011000                    NOP     0

     1389      505    2             OCS_ERRMSGB.TYPE = OCS_ERRCODE;

    505  1 000500   000000 236000 xsym               LDQ     OCS_ERRCODE
         1 000501   000033 736000                    QLS     27
         1 000502   000000 552040 xsym               STBQ    OCS_ERRMSGB,'40'O

     1390      506    2             OCS_ERRMSGB.SYNERR_AT = PCB_HI_CHAR;
PL6.E3A0      #003=OCS$ANLZ File=OCS$SYNTAX.:E05TSI                              WED 07/30/97 04:07 Page:212

    506  1 000503   200004 470500                    LDP0    @ERROR_CODE,,AUTO
         1 000504   000000 236100                    LDQ     0,,PR0
         1 000505   000022 736000                    QLS     18
         1 000506   000000 552020 xsym               STBQ    OCS_ERRMSGB,'20'O

     1391      507    2             OCS_ERRMSGB.MSG_SELECT = 1 /*E#NOTCMD*/;

    507  1 000507   001000 236007                    LDQ     512,DL
         1 000510   000000 552010 xsym               STBQ    OCS_ERRMSGB,'10'O

     1392      508    2             RETURN;                       /* TO PRINT MESSAGE */

    508  1 000511   000000 702200 xent               TSX2  ! X66_ARET

     1393      509    2           END;                            /* DO IF BAD COMMAND */
     1394      510                                                /**/
     1395      511                                                /**/
     1396      512        %EJECT;
PL6.E3A0      #003=OCS$ANLZ File=OCS$SYNTAX.:E05TSI                              WED 07/30/97 04:07 Page:213
     1397      513    1        IF PINCRC(HERE$, -1) -> OCS$T1 = ' '

    513  1 000512   040000 106500                    CMPC    fill='040'O
         1 000513   077777 600001                    ADSC9   -1,,PR0                  cn=3,n=1
         1 000514   000035 000001 xsym               ADSC9   B_VECTNIL+29             cn=0,n=1
         1 000515   000536 601000 1                  TNZ     s:524

     1398      514    1        THEN
     1399      515    2        DO;

     1400      516    2             CALL PUTITIN (HERE$, END$, '0'B);

    516  1 000516   000010 237000 2                  LDAQ    8
         1 000517   200010 757100                    STAQ    @SSTART$+1,,AUTO
         1 000520   000002 236000 2                  LDQ     2
         1 000521   200007 756100                    STQ     @ERROR_CODE+3,,AUTO
         1 000522   000003 701000 1                  TSX1    PUTITIN
         1 000523   000000 011000                    NOP     0

     1401      517    2             OCS_ERRMSGB.TYPE = OCS_ERRCODE;

    517  1 000524   000000 236000 xsym               LDQ     OCS_ERRCODE
         1 000525   000033 736000                    QLS     27
         1 000526   000000 552040 xsym               STBQ    OCS_ERRMSGB,'40'O

     1402      518    2             OCS_ERRMSGB.SYNERR_AT = PCB_HI_CHAR;

    518  1 000527   200004 470500                    LDP0    @ERROR_CODE,,AUTO
         1 000530   000000 236100                    LDQ     0,,PR0
         1 000531   000022 736000                    QLS     18
         1 000532   000000 552020 xsym               STBQ    OCS_ERRMSGB,'20'O

     1403      519    2             OCS_ERRMSGB.MSG_SELECT = 2 /*E#NOTLGL*/;

    519  1 000533   002000 236007                    LDQ     1024,DL
         1 000534   000000 552010 xsym               STBQ    OCS_ERRMSGB,'10'O

PL6.E3A0      #003=OCS$ANLZ File=OCS$SYNTAX.:E05TSI                              WED 07/30/97 04:07 Page:214
     1404      520    2             RETURN;                       /* TO PRINT MESSAGE */

    520  1 000535   000000 702200 xent               TSX2  ! X66_ARET

     1405      521    2           END;                            /* DO IF BAD COMMAND */
     1406      522                                                /**/
     1407      523                                                /**/
     1408      524    1        OCS_ERRMSGB.TYPE = OCS_ERRCODE;

    524  1 000536   000000 236000 xsym               LDQ     OCS_ERRCODE
         1 000537   000033 736000                    QLS     27
         1 000540   000000 552040 xsym               STBQ    OCS_ERRMSGB,'40'O

     1409      525    1        OCS_ERRMSGB.SYNERR_AT = PCB_HI_CHAR;

    525  1 000541   200004 471500                    LDP1    @ERROR_CODE,,AUTO
         1 000542   100000 236100                    LDQ     0,,PR1
         1 000543   000022 736000                    QLS     18
         1 000544   000000 552020 xsym               STBQ    OCS_ERRMSGB,'20'O

     1410      526    1        OCS_ERRMSGB.MSG_SELECT = 5 /*E#UNEVAL*/;

    526  1 000545   005000 236007                    LDQ     2560,DL
         1 000546   000000 552010 xsym               STBQ    OCS_ERRMSGB,'10'O

     1411      527    1        RETURN;                            /* TO PRINT MESSAGE */

    527  1 000547   000000 702200 xent               TSX2  ! X66_ARET
     1412      528                                                /**/
     1413      529    1   END OCS$ANLZ;
     1414      530        %EOD;

PL6.E3A0      #003=OCS$ANLZ File=OCS$SYNTAX.:E05TSI                              WED 07/30/97 04:07 Page:215
--  Include file information  --

   OCS_DATA_R.:E05TOU  cannot be made into a system file and is referenced.
   OCS_SUBS_C.:E05TOU  is referenced.
   B$JIT_C.:E05TOU  was found in the system file and is never referenced.
   CP_6_C.:E05TOU  was found in the system file and is never referenced.
      No diagnostics issued in procedure OCS$ANLZ.
PL6.E3A0      #003=OCS$ANLZ File=OCS$SYNTAX.:E05TSI                              WED 07/30/97 04:07 Page:216

 **** Variables and constants ****

  ****  Section 000  Data  OCS$ANLZ

  ****  Scalars and arrays  ****
OctLoc.c.b A Datatyp(siz) R M Lvl/name                 OctLoc.c.b A Datatyp(siz) R M Lvl/name

     2-0-0/w PTR         r     1 END$                       3-0-0/w PTR         r     1 HERE$
     4-0-0/w SBIN        r     1 I                          4-0-0/w UBIN        r     1 I_UBIN
     0-0-0/w UBIN        r     1 SIZEC_TEXT                 1-0-0/w PTR         r     1 START$

  ****  Auto variables  ****

  ****  Scalars and arrays  ****
OctLoc.c.b A Datatyp(siz) R M Lvl/name                 OctLoc.c.b A Datatyp(siz) R M Lvl/name

     4-0-0/w PTR         r     1 @ERROR_CODE               11-0-0/w PTR         r     1 @FLAG
     3-0-0/w PTR         r     1 @PTR$                     10-0-0/w PTR         r     1 @SEND$
     7-0-0/w PTR         r     1 @SSTART$                  *0-0-0/w UBIN        r     1 ERROR_CODE
    *0-0-0/w BIT         r     1 FLAG                      12-0-0/w PTR         r     1 LPTR$
    *0-0-0/w UBIN        r     1 PCB_HI_CHAR               *0-0-0/w PTR         r     1 PTR$
    *0-0-0/w PTR         r     1 SEND$                     *0-0-0/w PTR         r     1 SSTART$

  ****  SYMREF variables  ****

  ****  Scalars and arrays  ****
OctLoc.c.b A Datatyp(siz) R M Lvl/name                 OctLoc.c.b A Datatyp(siz) R M Lvl/name

     0-0-0/w UBIN        r     1 OCS_ERRCODE                0-0-0/c STRC(747)   r     1 OCS_ERRMSGB
     0-0-0/b STRC        r     1 OCS_ERRMSGC                0-0-0/w UBIN        r     1 OCS_KSIZE

  ****  BASED and DCB variables  ****

  ****  Scalars and arrays  ****
OctLoc.c.b A Datatyp(siz) R M Lvl/name                 OctLoc.c.b A Datatyp(siz) R M Lvl/name

     0-0-0/c CHAR        r     1 OCS$T1                     0-0-0/c ACHR        r     1 OCS$TN
PL6.E3A0      #003=OCS$ANLZ File=OCS$SYNTAX.:E05TSI                              WED 07/30/97 04:07 Page:217
     0-0-0/c ASTR(9)     r     1 TEXTC


   Procedure OCS$ANLZ requires 360 words for executable code.
   Procedure OCS$ANLZ requires 14 words of local(AUTO) storage.
PL6.E3A0      #003=OCS$ANLZ File=OCS$SYNTAX.:E05TSI                              WED 07/30/97 04:07 Page:218
          *** CROSS REFERENCE LISTING ***
**     DENOTES     IDENTIFIER DEFINITION
<<                 IDENTIFIER'S VALUE SET
>>                 IDENTIFIER'S VALUE USED
<>                 IDENTIFIER SET AND/OR USED
--                 IDENTIFIER REFERENCED
PL6.E3A0      #003=OCS$ANLZ File=OCS$SYNTAX.:E05TSI                              WED 07/30/97 04:07 Page:219
          MINI XREF LISTING

END$
       270**DCL       392<<ASSIGN    402<>CALL      418<<ASSIGN    441>>DOWHILE   449>>IF        451>>ASSIGN
       474>>DOWHILE   481>>DOWHILE   491<<ASSIGN    504<>CALL      516<>CALL
ERROR_CODE
        22**DCL        19--PROC       23--REDEF     322>>ASSIGN    332>>ASSIGN
FLAG IN PROCEDURE PUTITIN
       285**DCL       280--PROC      294>>IF
HERE$
       271**DCL       391<<ASSIGN    392>>ASSIGN    394>>DOWHILE   394>>DOWHILE   395<<ASSIGN    395>>ASSIGN
       398>>IF        400<<ASSIGN    400>>ASSIGN    402<>CALL      440<<ASSIGN    441>>DOWHILE   441>>DOWHILE
       444<<ASSIGN    444>>ASSIGN    449>>IF        451<<ASSIGN    452>>IF        454<<ASSIGN    454>>ASSIGN
       455<>CALL      472<<ASSIGN    474>>DOWHILE   474>>DOWHILE   477<<ASSIGN    477>>ASSIGN    481>>DOWHILE
       481>>DOWHILE   484<<ASSIGN    484>>ASSIGN    487>>IF        489<<ASSIGN    489>>ASSIGN    491>>ASSIGN
       493<<ASSIGN    495>>DOWHILE   495>>DOWHILE   498<<ASSIGN    498>>ASSIGN    501>>IF        513>>IF
       516<>CALL
I
       272**DCL       273--REDEF     420<<DOINDEX   423<<ASSIGN    429<<ASSIGN
I_UBIN
       273**DCL       421>>IF
LPTR$ IN PROCEDURE PUTITIN
       284**DCL       288<<ASSIGN    296<<ASSIGN    298>>CALLBLT   304>>CALLBLT
OCS$T1
       264**DCL       394>>DOWHILE   398>>IF        425>>IF        425>>IF        441>>DOWHILE   452>>IF
       474>>DOWHILE   481>>DOWHILE   487>>IF        495>>DOWHILE   513>>IF
OCS$TN
       265**DCL       298>>CALLBLT   304>>CALLBLT
OCS_ERRCODE
       253**DCL       317>>IF        320>>ASSIGN    323>>IF        387>>ASSIGN    456>>ASSIGN    505>>ASSIGN
       517>>ASSIGN    524>>ASSIGN
OCS_ERRMSGB.MSG_SELECT
       257**DCL       322<<ASSIGN    326<<ASSIGN    332<<ASSIGN    389<<ASSIGN    458<<ASSIGN    507<<ASSIGN
       519<<ASSIGN    526<<ASSIGN
PL6.E3A0      #003=OCS$ANLZ File=OCS$SYNTAX.:E05TSI                              WED 07/30/97 04:07 Page:220
OCS_ERRMSGB.SYNERR_AT
       256**DCL       321<<ASSIGN    388<<ASSIGN    457<<ASSIGN    506<<ASSIGN    518<<ASSIGN    525<<ASSIGN
OCS_ERRMSGB.TEXT_STRING
       257**DCL       290--IF        293--ASSIGN    296--ASSIGN    298<<CALLBLT   298--CALLBLT   304<<CALLBLT
       328<<ASSIGN    333--IF        336--ASSIGN    337<<ASSIGN    342<<ASSIGN
OCS_ERRMSGB.TYPE
       256**DCL       320<<ASSIGN    387<<ASSIGN    456<<ASSIGN    505<<ASSIGN    517<<ASSIGN    524<<ASSIGN
OCS_ERRMSGC.SIZE_TEXT
       256**DCL       307<<ASSIGN    327<<ASSIGN    336<<ASSIGN    341<<ASSIGN
OCS_KSIZE
       251**DCL       383>>IF        418>>ASSIGN    420>>DOINDEX   423>>ASSIGN    429>>ASSIGN
OCS_LEXEMES.MAX
       258**DCL       258--REDEF
OCS_LEXEMES.MIN
       258**DCL       258--REDEF
OCS_STRUCTURE
       251**DCL       251--REDEF
PCB_HI_CHAR
        23**DCL       383>>IF        388>>ASSIGN    391>>ASSIGN    421>>IF        435>>IF        435>>IF
       446>>IF        448>>ASSIGN    457>>ASSIGN    472>>ASSIGN    493>>ASSIGN    506>>ASSIGN    518>>ASSIGN
       525>>ASSIGN
PTR$
        21**DCL        19--PROC      333>>IF        337>>ASSIGN    337>>ASSIGN    341>>ASSIGN    342>>ASSIGN
       342>>ASSIGN    391>>ASSIGN    394>>DOWHILE   417>>ASSIGN    435>>IF        446>>IF        448>>ASSIGN
       472>>ASSIGN    493>>ASSIGN
PUTITIN
       280**PROC      402--CALL      455--CALL      504--CALL      516--CALL
SEND$ IN PROCEDURE PUTITIN
       283**DCL       280--PROC      287>>ASSIGN    296>>ASSIGN
SIZEC_TEXT
       268**DCL       265--IMP-SIZ   287<<ASSIGN    290>>IF        293<<ASSIGN    298>>CALLBLT   304>>CALLBLT
       304>>CALLBLT   307>>ASSIGN
SSTART$ IN PROCEDURE PUTITIN
       282**DCL       280--PROC      287>>ASSIGN    288>>ASSIGN
START$
       269**DCL       417<<ASSIGN    418>>ASSIGN    425>>IF        425>>IF        431<<ASSIGN    431>>ASSIGN
PL6.E3A0      #003=OCS$ANLZ File=OCS$SYNTAX.:E05TSI                              WED 07/30/97 04:07 Page:221
       435>>IF        440>>ASSIGN    446>>IF        448<<ASSIGN    455<>CALL      495>>DOWHILE   501>>IF
       504<>CALL
TEXTC.COUNT
       262**DCL       263--IMP-SIZ   333>>IF        337>>ASSIGN    341>>ASSIGN    342>>ASSIGN
TEXTC.TEXT
       263**DCL       337>>ASSIGN    342>>ASSIGN

PL6.E3A0      #004=OCS$FAILURES File=OCS$SYNTAX.:E05TSI                          WED 07/30/97 04:07 Page:222
     1415        1        /*M* OCS$FAILURES Intercepts parser failure nodes to initialize
     1416        2                  forced data */
     1417        3        /*T***********************************************************/
     1418        4        /*T*                                                         */
     1419        5        /*T* Copyright (c) Bull HN Information Systems Inc., 1997    */
     1420        6        /*T*                                                         */
     1421        7        /*T***********************************************************/
     1422        8        %SET LISTSUB='1'B;
     1423        9        /*
     1424       10         ###    ###    ###    #   #####   ###    ###   #      #   #  ####   #####   ###
     1425       11        #   #  #   #  #   #  ###  #      #   #    #    #      #   #  #   #  #      #   #
     1426       12        #   #  #      #     # #   #      #   #    #    #      #   #  #   #  #      #
     1427       13        #   #  #       ###   ###  ####   #####    #    #      #   #  ####   ####    ###
     1428       14        #   #  #          #   # # #      #   #    #    #      #   #  # #    #          #
     1429       15        #   #  #   #  #   #  ###  #      #   #    #    #      #   #  #  #   #      #   #
     1430       16         ###    ###    ###    #   #      #   #   ###   #####   ###   #   #  #####   ###
     1431       17                                                                   */
     1432       18                                                /**/
     1433       19                                                /**/
     1434       20        OCS$FAILURES: PROC (XU$PARAM);
     1435       21                                                /**/
     1436       22                                                /**/
     1437       23        %INCLUDE XU_MACRO_C;
     1438     3129        %INCLUDE XU_SUBS_C;
     1439     3221                                                /**/
     1440     3222                                                /**/
     1441     3223             %P$PCB         (NAME=OC_PCB,
     1442     3224                                 STCLASS="SYMREF");
     1443     3425                                                /**/
     1444     3426             %P$NODE        (NAME=P$NODE,
     1445     3427                                 STCLASS="BASED");
     1446     3521                                                /**/
     1447     3522             %G$D           (NAME=G$D,
     1448     3523                                 STCLASS="BASED");
     1449     3619                                                /**/
     1450     3620             %PARSE$OUT;
     1451     3665                                                /**/
PL6.E3A0      #004=OCS$FAILURES File=OCS$SYNTAX.:E05TSI                          WED 07/30/97 04:07 Page:223
     1452     3666             %PARSE$SYM;
     1453     3704                                                /**/
     1454     3705             %P$LIT         (NAME=P$LIT,
     1455     3706                                 STCLASS="BASED",
     1456     3707                                 LEN="P$LIT.COUNT");
     1457     3760                                                /**/
     1458     3761        %EJECT;
PL6.E3A0      #004=OCS$FAILURES File=OCS$SYNTAX.:E05TSI                          WED 07/30/97 04:07 Page:224
     1459     3762                                                /**/
     1460     3763                                           /* Create "mask" templates to store
     1461     3764                                                and manipulate various sized
     1462     3765                                                fields under pointer control */
     1463     3766    1   DCL OCS$T1 BASED CHAR(1) CALIGNED;
     1464     3767    1   DCL OCS$T2 BASED CHAR(2) CALIGNED;
     1465     3768    1   DCL OCS$T3 BASED CHAR(3) CALIGNED;
     1466     3769    1   DCL OCS$T4 BASED CHAR(4) CALIGNED;
     1467     3770    1   DCL OCS$T6 BASED CHAR(6) CALIGNED;
     1468     3771    1   DCL OCS$T8 BASED CHAR(8) CALIGNED;
     1469     3772    1   DCL OCS$T12 BASED CHAR(12) CALIGNED;
     1470     3773                                                /**/
     1471     3774    1   DCL 1 OCS$TN BASED CALIGNED,
     1472     3775    1            2 COUNT UBIN BYTE CALIGNED,
     1473     3776    1            2 TEXT CHAR(OCS$TN.COUNT) CALIGNED;
     1474     3777                                                /**/
     1475     3778    1   DCL OCS$D1 BASED UBIN BYTE CALIGNED;
     1476     3779    1   DCL OCS$D2 BASED UBIN HALF CALIGNED;
     1477     3780    1   DCL OCS$D3 BASED UBIN(27) CALIGNED;
     1478     3781    1   DCL OCS$D4 BASED UBIN WORD CALIGNED;
     1479     3782                                                /**/
     1480     3783    1   DCL OCS$DS1 BASED SBIN BYTE CALIGNED;
     1481     3784    1   DCL OCS$DS2 BASED SBIN HALF CALIGNED;
     1482     3785    1   DCL OCS$DS3 BASED SBIN(27) CALIGNED;
     1483     3786    1   DCL OCS$DS4 BASED SBIN WORD CALIGNED;
     1484     3787                                                /**/
     1485     3788        %EJECT;
PL6.E3A0      #004=OCS$FAILURES File=OCS$SYNTAX.:E05TSI                          WED 07/30/97 04:07 Page:225
     1486     3789                                                /**/
     1487     3790    1   DCL X$GETSPACE ENTRY(3);
     1488     3791    1   DCL OCS$NCODE ENTRY(1);
     1489     3792                                                /**/
     1490     3793             %PARSE$PARAM   (NAME=XU$PARAM);
     1491     3874                                                /**/
     1492     3875        %PLIST;
     1493     3876                                                /**/
     1494     3877    1   DCL SIZE_PARSEB UBIN WORD ALIGNED STATIC;
     1495     3878    1   DCL I UBIN WORD ALIGNED STATIC;
     1496     3879    1   DCL MAX_ UBIN WORD ALIGNED STATIC;
     1497     3880    1   DCL INDEX_ UBIN WORD ALIGNED STATIC;
     1498     3881    1   DCL OCS_PTR$ PTR STATIC INIT(ADDR(I));
     1499     3882    1   DCL OCS_PTRO$ PTR STATIC;
     1500     3883    1   DCL CVSN_ UBIN WORD STATIC;
     1501     3884    1   DCL BLK$ PTR STATIC;
     1502     3885                                                /**/
     1503     3886    1   DCL OCS_CODE_ STATIC SYMDEF UBIN WORD;
     1504     3887    1   DCL OCS_NODE$ STATIC SYMDEF PTR;
     1505     3888                                                /**/
     1506     3889        %INCLUDE OCI_SUBS_C;
     1507     3987        %INCLUDE CP_6;
     1508     4068        %INCLUDE OC_DAT_R;
     1509     4229                                                /**/
     1510     4230        %INCLUDE OCS_SUBS_C;
     1511     4447                                                /**/
     1512     4448        %INCLUDE OC_SUBS_C;
     1513     5179                                                /**/
     1514     5180        %INCLUDE OCS_DATA_R;
     1515     5197                                                /**/
     1516     5198        %EJECT;
PL6.E3A0      #004=OCS$FAILURES File=OCS$SYNTAX.:E05TSI                          WED 07/30/97 04:07 Page:226
     1517     5199        /*
     1518     5200                  Begin  O C S $ F A I L U R E S
     1519     5201                                                                      */
     1520     5202    1        IF XU$PARAM.TYPE ~= %FAIL#
     1521     5203    1        THEN RETURN;
     1522     5204                                                /**/
     1523     5205                                           /* Calculate the SIZEW of a PARSE$BLK
     1524     5206                                                that only has 1 TEXTC word */
     1525     5207                                                /**/
     1526     5208    1        SIZE_PARSEB = POFFW(ADDR(OCS_PTR$->OUT$SYM.COUNT),
     1527     5209    1             ADDR(OCS_PTR$->OUT$SYM.TEMP));
     1528     5210                                                /**/
     1529     5211                                                /**/
     1530     5212    1        CALL X$GETSPACE (SIZE_PARSEB, BLK$, XU$PARAM.GLOBAL$->G$D);
     1531     5213                                                /**/
     1532     5214    1        BLK$->OUT$BLK.CODE = XU$PARAM.NODE$->P$NODE.CODE;
     1533     5215    1        BLK$->OUT$BLK.CPOS = XU$PARAM.CHARPOS;
     1534     5216    1        BLK$->OUT$BLK.NDTYPE = %KONCAT#;
     1535     5217    1        BLK$->OUT$BLK.NSUBLKS = 1;
     1536     5218    1        OCS_PTRO$ = BLK$;
     1537     5219    1        SIZE_PARSEB = SIZE_PARSEB + 1;
     1538     5220                                                /**/
     1539     5221        %EJECT;
PL6.E3A0      #004=OCS$FAILURES File=OCS$SYNTAX.:E05TSI                          WED 07/30/97 04:07 Page:227
     1540     5222                                                /**/
     1541     5223                                           /* Search input node for first non-
     1542     5224                                                intrinsic node type, and use
     1543     5225                                                its code as the code of the
     1544     5226                                                lexeme to build a phoney output
     1545     5227                                                node for                  */
     1546     5228    1        OCS_DFW_LEVEL = '0'B /*FALSE#*/;
     1547     5229    1        OCS_LEVEL_MARK = 0;
     1548     5230    1        OCS_CODE_ = 0;
     1549     5231    1        OCS_NODE$ = ADDR(NIL);
     1550     5232    1        CALL OCS$NCODE ( XU$PARAM.NODE$ );
     1551     5233                                                /**/
     1552     5234    1        IF OCS_CODE_ = 0
     1553     5235    1        THEN
     1554     5236    1             RETURN;
     1555     5237                                                /**/
     1556     5238    1        IF OCS_CODE_ =  971 /* XNOT# */
     1557     5239    1        THEN
     1558     5240    1             OCS_CODE_ = 909 /* XDEC9# */;           /* TREAT LIKE DEICMAL */
     1559     5241                                                /**/
     1560     5242    1        CVSN_ = 0;
     1561     5243                                                /**/
     1562     5244    2        DO I = 0 TO 49 /* MAX_LEXEMES# */;
     1563     5245    2             IF OCS_CODE_ = OCS_LEXEMES.CODE(I)
     1564     5246    2             THEN
     1565     5247    3             DO;
     1566     5248    3                  CVSN_ = OCS_LEXEMES.CVSN(I);
     1567     5249    3                  INDEX_ = I;
     1568     5250    3                  I = 49 /* MAX_LEXEMES# */ + 1;    /* to exit loop */
     1569     5251    3                END;
     1570     5252    2           END;
     1571     5253                                                /**/
     1572     5254    1        IF CVSN_ = 0
     1573     5255    1        THEN
     1574     5256    1             RETURN;
     1575     5257                                                /**/
     1576     5258        %EJECT;
PL6.E3A0      #004=OCS$FAILURES File=OCS$SYNTAX.:E05TSI                          WED 07/30/97 04:07 Page:228
     1577     5259                                                /**/
     1578     5260                                           /* Process the detected node here
     1579     5261                                                There are two possibilities:
     1580     5262                                                a) The detected node has no
     1581     5263                                                     initializing value, and
     1582     5264                                                     the output block should
     1583     5265                                                     get the initializing value
     1584     5266                                                     from the default table
     1585     5267                                                b) The node was determined to
     1586     5268                                                     have an initializing value
     1587     5269                                                     which should be moved to
     1588     5270                                                     the output block.
     1589     5271                                                                          */
     1590     5272    1        IF OCS_NODE$ = ADDR(NIL)
     1591     5273    1        THEN
     1592     5274    2        DO;
     1593     5275    2             CALL X$GETSPACE (SIZE_PARSEB, BLK$, XU$PARAM.GLOBAL$ -> G$D);
     1594     5276                                                /**/
     1595     5277                                                /**/
     1596     5278                                           /* DO CASE ON CONVERSION VALUE
     1597     5279                                                (special handling is required
     1598     5280                                                for TXTC...
     1599     5281                                                others just get INITIAL values */
     1600     5282    3             DO CASE ( CVSN_ );
     1601     5283                                                /**/
     1602     5284    3             CASE ( 1 /* TTXT# */,
     1603     5285    3                  3 /* TDEC# */,
     1604     5286    3                  4 /* TDECS# */,
     1605     5287    3                  5 /* TOCT# */,
     1606     5288    3                  6 /* THEX# */,
     1607     5289    3                  9 /* TNUL# */,
     1608     5290    3                  7 /* TBLK# */,
     1609     5291    3                  10 /* TXWSN# */,
     1610     5292    3                  11 /* TXDEV# */ );
     1611     5293                                                /**/
     1612     5294    3                BLK$->OUT$SYM.TEXTC$ = ADDR(BLK$->OUT$SYM.COUNT);
     1613     5295    3                BLK$->OUT$SYM.COUNT = 1;
PL6.E3A0      #004=OCS$FAILURES File=OCS$SYNTAX.:E05TSI                          WED 07/30/97 04:07 Page:229
     1614     5296    3                BLK$->OUT$SYM.TEXT = OCS_LEXEMES.INITIAL(INDEX_);
     1615     5297                                                /**/
     1616     5298    3             CASE ( 2 /* TTXTC# */ );
     1617     5299    3                BLK$->OUT$SYM.TEXTC$ = ADDR(BLK$->OUT$SYM.COUNT);
     1618     5300    3                BLK$->OUT$SYM.COUNT = 0;
     1619     5301                                                /**/
     1620     5302    3             END;                          /* DO CASE CVSN_ */
     1621     5303                                                /**/
     1622     5304    2           END;                          /* DO IF OCS_NODE$ = ADDR(NIL)
     1623     5305                                           (Meaning no literal node found
     1624     5306                                            on input tree search          */
     1625     5307                                                /**/
     1626     5308    1        ELSE
     1627     5309    2        DO;                           /* There was a detectable literal
     1628     5310                                                node in the input tree */
     1629     5311    2             I = OCS_NODE$ -> P$LIT.COUNT / 4 /* BYTESPERWD# */;
     1630     5312    2             SIZE_PARSEB = SIZE_PARSEB + I;
     1631     5313                                                /**/
     1632     5314    2             CALL X$GETSPACE (SIZE_PARSEB, BLK$, XU$PARAM.GLOBAL$ -> G$D);
     1633     5315                                                /**/
     1634     5316    2             BLK$ -> OUT$SYM.TEXTC$ = ADDR(BLK$ -> OUT$SYM.COUNT);
     1635     5317    2             BLK$ -> OUT$SYM.COUNT = OCS_NODE$ -> P$LIT.COUNT;
     1636     5318    2             BLK$ -> OUT$SYM.TEXT = OCS_NODE$ -> P$LIT.TEXT;
     1637     5319                                                /**/
     1638     5320    2           END;                            /* DO IF OCS_NODE$ ~= ADDR(NIL) */
     1639     5321                                                /**/
     1640     5322        %EJECT;
PL6.E3A0      #004=OCS$FAILURES File=OCS$SYNTAX.:E05TSI                          WED 07/30/97 04:07 Page:230
     1641     5323                                                /**/
     1642     5324    1        BLK$->OUT$SYM.CODE = OCS_CODE_;
     1643     5325    1        BLK$->OUT$SYM.CPOS = XU$PARAM.CHARPOS;
     1644     5326    1        BLK$->OUT$SYM.NDTYPE = %ALNUM#;
     1645     5327    1        BLK$->OUT$SYM.NSUBLKS = 1;
     1646     5328    1        OCS_PTRO$->OUT$BLK.SUBLK$(0) = BLK$;
     1647     5329                                                /**/
     1648     5330    1        XU$PARAM.ACCEPT = '1'B /*TRUE#*/;
     1649     5331    1        XU$PARAM.OUT$ = OCS_PTRO$;
     1650     5332                                                /**/
     1651     5333    1        RETURN;
     1652     5334                                                /**/
     1653     5335    1   END OCS$FAILURES;
     1654     5336        %EOD;

PL6.E3A0      #004=OCS$FAILURES File=OCS$SYNTAX.:E05TSI                          WED 07/30/97 04:07 Page:231
--  Include file information  --

   OCS_DATA_R.:E05TOU  cannot be made into a system file and is referenced.
   OC_SUBS_C.:E05TOU  is referenced.
   OCS_SUBS_C.:E05TOU  is referenced.
   OC$MESSHD_C.:E05TOU  is referenced.
   OC_DAT_R.:E05TOU  cannot be made into a system file and is referenced.
   CP_6.:E05TOU  cannot be made into a system file and is referenced.
   OCI_SUBS_C.:E05TOU  is referenced.
   XU_SUBS_C.:E05TOU  is referenced.
   XU_MACRO_C.:E05TOU  is referenced.
   B$JIT_C.:E05TOU  was found in the system file and is never referenced.
   CP_6_C.:E05TOU  was found in the system file and is referenced.
      No diagnostics issued in procedure OCS$FAILURES.

   Procedure OCS$FAILURES requires 196 words for executable code.
   Procedure OCS$FAILURES requires 8 words of local(AUTO) storage.

PL6.E3A0      #004=OCS$FAILURES File=OCS$SYNTAX.:E05TSI                          WED 07/30/97 04:07 Page:232

 Object Unit name= OCS$FAILURES                               File name= OCS$SYNTAX.:E05TOU
 UTS= JUL 30 '97 04:07:55.32 WED                              Compiler= PL-6/E31         Sev=      00
 SharedLib= :SHARED_SYSTEM                                    Alt SharedLib=


    ****  Control sections  ****

 Sect   Type Bound  Init  Size OctSiz  Section name(segment info)
    0   Data  even  none    10     12  OCS$FAILURES
    1   DCB   even  none     0      0  M$UC
    2   Proc  even  none   196    304  OCS$FAILURES
    3  RoData even  none     2      2  OCS$FAILURES

    ****  Entry defs  ****

                              Check   Calling
                             calling  sequence
  Sect OctLoc Primary Altret sequence   type   Parms  Name
     2      0   yes            yes      Std        1  OCS$FAILURES

  ****  Data defs  ****

 Sect OctLoc  Name                           Sect OctLoc  Name
    0     10  OCS_CODE_                          0     11  OCS_NODE$

  ****  Entry refs  ****

         Check        Calling
        calling       sequence
Altret sequence SRef   type   Args  Name
         yes           Std       3 X$GETSPACE
         yes           Std       1 OCS$NCODE
                       nStd      0 X66_AUTO_1
                       nStd      0 X66_ARET
                       Std       0 B_CONSPOOL_D
PL6.E3A0      #004=OCS$FAILURES File=OCS$SYNTAX.:E05TSI                          WED 07/30/97 04:07 Page:233

  ****  Data refs  ****

  Flags:  r = read only, s = secondary
Flgs Name                             Flgs Name                             Flgs Name
     M$UC                                  OC_INTMSG                             OC_MESSBUF
     OC_MSGBUFFER                          OC_PARAM                              OC_CONSOLE$
     OC_DIR                                OC_INTBIT                             OC_MASK
     OCS_STRUCTURE                         OCS_LEVEL_MARK                        OCS_DFW_LEVEL
     OCS_LEXEMES                           B_VECTNIL

  ****  Segment refs  ****

  Flags:  r = read only, s = secondary
Flgs Name                             Flgs Name                             Flgs Name
     ISSID
PL6.E3A0      #004=OCS$FAILURES File=OCS$SYNTAX.:E05TSI                          WED 07/30/97 04:07 Page:234


     1415        1        /*M* OCS$FAILURES Intercepts parser failure nodes to initialize
     1416        2                  forced data */
     1417        3        /*T***********************************************************/
     1418        4        /*T*                                                         */
     1419        5        /*T* Copyright (c) Bull HN Information Systems Inc., 1997    */
     1420        6        /*T*                                                         */
     1421        7        /*T***********************************************************/
     1422        8        %SET LISTSUB='1'B;
     1423        9        /*
     1424       10         ###    ###    ###    #   #####   ###    ###   #      #   #  ####   #####   ###
     1425       11        #   #  #   #  #   #  ###  #      #   #    #    #      #   #  #   #  #      #   #
     1426       12        #   #  #      #     # #   #      #   #    #    #      #   #  #   #  #      #
     1427       13        #   #  #       ###   ###  ####   #####    #    #      #   #  ####   ####    ###
     1428       14        #   #  #          #   # # #      #   #    #    #      #   #  # #    #          #
     1429       15        #   #  #   #  #   #  ###  #      #   #    #    #      #   #  #  #   #      #   #
     1430       16         ###    ###    ###    #   #      #   #   ###   #####   ###   #   #  #####   ###
     1431       17                                                                   */
     1432       18                                                /**/
     1433       19                                                /**/
     1434       20        OCS$FAILURES: PROC (XU$PARAM);

     20  2 000000   000000 700200 xent  OCS$FAILURES TSX0  ! X66_AUTO_1
         2 000001   000010 000001                    ZERO    8,1

     1435       21                                                /**/
     1436       22                                                /**/
     1437       23        %INCLUDE XU_MACRO_C;
     1438     3129        %INCLUDE XU_SUBS_C;
     1439     3221                                                /**/
     1440     3222                                                /**/
     1441     3223             %P$PCB         (NAME=OC_PCB,
     1442     3224                                 STCLASS="SYMREF");
     1443     3425                                                /**/
     1444     3426             %P$NODE        (NAME=P$NODE,
     1445     3427                                 STCLASS="BASED");
     1446     3521                                                /**/
PL6.E3A0      #004=OCS$FAILURES File=OCS$SYNTAX.:E05TSI                          WED 07/30/97 04:07 Page:235
     1447     3522             %G$D           (NAME=G$D,
     1448     3523                                 STCLASS="BASED");
     1449     3619                                                /**/
     1450     3620             %PARSE$OUT;
     1451     3665                                                /**/
     1452     3666             %PARSE$SYM;
     1453     3704                                                /**/
     1454     3705             %P$LIT         (NAME=P$LIT,
     1455     3706                                 STCLASS="BASED",
     1456     3707                                 LEN="P$LIT.COUNT");
     1457     3760                                                /**/
     1458     3761        %EJECT;
PL6.E3A0      #004=OCS$FAILURES File=OCS$SYNTAX.:E05TSI                          WED 07/30/97 04:07 Page:236
     1459     3762                                                /**/
     1460     3763                                           /* Create "mask" templates to store
     1461     3764                                                and manipulate various sized
     1462     3765                                                fields under pointer control */
     1463     3766    1   DCL OCS$T1 BASED CHAR(1) CALIGNED;
     1464     3767    1   DCL OCS$T2 BASED CHAR(2) CALIGNED;
     1465     3768    1   DCL OCS$T3 BASED CHAR(3) CALIGNED;
     1466     3769    1   DCL OCS$T4 BASED CHAR(4) CALIGNED;
     1467     3770    1   DCL OCS$T6 BASED CHAR(6) CALIGNED;
     1468     3771    1   DCL OCS$T8 BASED CHAR(8) CALIGNED;
     1469     3772    1   DCL OCS$T12 BASED CHAR(12) CALIGNED;
     1470     3773                                                /**/
     1471     3774    1   DCL 1 OCS$TN BASED CALIGNED,
     1472     3775    1            2 COUNT UBIN BYTE CALIGNED,
     1473     3776    1            2 TEXT CHAR(OCS$TN.COUNT) CALIGNED;
     1474     3777                                                /**/
     1475     3778    1   DCL OCS$D1 BASED UBIN BYTE CALIGNED;
     1476     3779    1   DCL OCS$D2 BASED UBIN HALF CALIGNED;
     1477     3780    1   DCL OCS$D3 BASED UBIN(27) CALIGNED;
     1478     3781    1   DCL OCS$D4 BASED UBIN WORD CALIGNED;
     1479     3782                                                /**/
     1480     3783    1   DCL OCS$DS1 BASED SBIN BYTE CALIGNED;
     1481     3784    1   DCL OCS$DS2 BASED SBIN HALF CALIGNED;
     1482     3785    1   DCL OCS$DS3 BASED SBIN(27) CALIGNED;
     1483     3786    1   DCL OCS$DS4 BASED SBIN WORD CALIGNED;
     1484     3787                                                /**/
     1485     3788        %EJECT;
PL6.E3A0      #004=OCS$FAILURES File=OCS$SYNTAX.:E05TSI                          WED 07/30/97 04:07 Page:237
     1486     3789                                                /**/
     1487     3790    1   DCL X$GETSPACE ENTRY(3);
     1488     3791    1   DCL OCS$NCODE ENTRY(1);
     1489     3792                                                /**/
     1490     3793             %PARSE$PARAM   (NAME=XU$PARAM);
     1491     3874                                                /**/
     1492     3875        %PLIST;
     1493     3876                                                /**/
     1494     3877    1   DCL SIZE_PARSEB UBIN WORD ALIGNED STATIC;
     1495     3878    1   DCL I UBIN WORD ALIGNED STATIC;
     1496     3879    1   DCL MAX_ UBIN WORD ALIGNED STATIC;
     1497     3880    1   DCL INDEX_ UBIN WORD ALIGNED STATIC;
     1498     3881    1   DCL OCS_PTR$ PTR STATIC INIT(ADDR(I));
     1499     3882    1   DCL OCS_PTRO$ PTR STATIC;
     1500     3883    1   DCL CVSN_ UBIN WORD STATIC;
     1501     3884    1   DCL BLK$ PTR STATIC;
     1502     3885                                                /**/
     1503     3886    1   DCL OCS_CODE_ STATIC SYMDEF UBIN WORD;
     1504     3887    1   DCL OCS_NODE$ STATIC SYMDEF PTR;
     1505     3888                                                /**/
     1506     3889        %INCLUDE OCI_SUBS_C;
     1507     3987        %INCLUDE CP_6;
     1508     4068        %INCLUDE OC_DAT_R;
     1509     4229                                                /**/
     1510     4230        %INCLUDE OCS_SUBS_C;
     1511     4447                                                /**/
     1512     4448        %INCLUDE OC_SUBS_C;
     1513     5179                                                /**/
     1514     5180        %INCLUDE OCS_DATA_R;
     1515     5197                                                /**/
     1516     5198        %EJECT;
PL6.E3A0      #004=OCS$FAILURES File=OCS$SYNTAX.:E05TSI                          WED 07/30/97 04:07 Page:238
     1517     5199        /*
     1518     5200                  Begin  O C S $ F A I L U R E S
     1519     5201                                                                      */
     1520     5202    1        IF XU$PARAM.TYPE ~= %FAIL#

   5202  2 000002   200003 470500                    LDP0    @XU$PARAM,,AUTO
         2 000003   000000 236100                    LDQ     0,,PR0
         2 000004   777000 376003                    ANQ     -512,DU
         2 000005   003000 116003                    CMPQ    1536,DU
         2 000006   000010 600000 2                  TZE     s:5208

     1521     5203    1        THEN RETURN;

   5203  2 000007   000000 702200 xent               TSX2  ! X66_ARET

     1522     5204                                                /**/
     1523     5205                                           /* Calculate the SIZEW of a PARSE$BLK
     1524     5206                                                that only has 1 TEXTC word */
     1525     5207                                                /**/
     1526     5208    1        SIZE_PARSEB = POFFW(ADDR(OCS_PTR$->OUT$SYM.COUNT),

   5208  2 000010   000004 236000 0                  LDQ     OCS_PTR$
         2 000011   000022 772000                    QRL     18
         2 000012   200004 756100                    STQ     @XU$PARAM+1,,AUTO
         2 000013   000004 236000 0                  LDQ     OCS_PTR$
         2 000014   000004 036003                    ADLQ    4,DU
         2 000015   000022 772000                    QRL     18
         2 000016   200004 136100                    SBLQ    @XU$PARAM+1,,AUTO
         2 000017   000000 756000 0                  STQ     SIZE_PARSEB

     1527     5209    1             ADDR(OCS_PTR$->OUT$SYM.TEMP));
     1528     5210                                                /**/
     1529     5211                                                /**/
     1530     5212    1        CALL X$GETSPACE (SIZE_PARSEB, BLK$, XU$PARAM.GLOBAL$->G$D);

   5212  2 000020   000003 471500                    LDP1    3,,PR0
         2 000021   200006 451500                    STP1    @XU$PARAM+3,,AUTO
PL6.E3A0      #004=OCS$FAILURES File=OCS$SYNTAX.:E05TSI                          WED 07/30/97 04:07 Page:239
         2 000022   000000 237000 3                  LDAQ    0
         2 000023   200004 757100                    STAQ    @XU$PARAM+1,,AUTO
         2 000024   200004 630500                    EPPR0   @XU$PARAM+1,,AUTO
         2 000025   000021 631400 xsym               EPPR1   B_VECTNIL+17
         2 000026   000000 701000 xent               TSX1    X$GETSPACE
         2 000027   000000 011000                    NOP     0

     1531     5213                                                /**/
     1532     5214    1        BLK$->OUT$BLK.CODE = XU$PARAM.NODE$->P$NODE.CODE;

   5214  2 000030   200003 470500                    LDP0    @XU$PARAM,,AUTO
         2 000031   000001 471500                    LDP1    1,,PR0
         2 000032   100000 720100                    LXL0    0,,PR1
         2 000033   177777 360003                    ANX0    65535,DU
         2 000034   000007 473400 0                  LDP3    BLK$
         2 000035   300000 440100                    SXL0    0,,PR3

     1533     5215    1        BLK$->OUT$BLK.CPOS = XU$PARAM.CHARPOS;

   5215  2 000036   000007 471400 0                  LDP1    BLK$
         2 000037   000004 235100                    LDA     4,,PR0
         2 000040   100002 755100                    STA     2,,PR1

     1534     5216    1        BLK$->OUT$BLK.NDTYPE = %KONCAT#;

   5216  2 000041   000007 471400 0                  LDP1    BLK$
         2 000042   000002 236003                    LDQ     2,DU
         2 000043   100000 752110                    STCQ    0,'10'O,PR1

     1535     5217    1        BLK$->OUT$BLK.NSUBLKS = 1;

   5217  2 000044   000001 220003                    LDX0    1,DU
         2 000045   000007 471400 0                  LDP1    BLK$
         2 000046   100001 740100                    STX0    1,,PR1

     1536     5218    1        OCS_PTRO$ = BLK$;

PL6.E3A0      #004=OCS$FAILURES File=OCS$SYNTAX.:E05TSI                          WED 07/30/97 04:07 Page:240
   5218  2 000047   000007 236000 0                  LDQ     BLK$
         2 000050   000005 756000 0                  STQ     OCS_PTRO$

     1537     5219    1        SIZE_PARSEB = SIZE_PARSEB + 1;

   5219  2 000051   000000 235000 0                  LDA     SIZE_PARSEB
         2 000052   000001 035007                    ADLA    1,DL
         2 000053   000000 755000 0                  STA     SIZE_PARSEB

     1538     5220                                                /**/
     1539     5221        %EJECT;
PL6.E3A0      #004=OCS$FAILURES File=OCS$SYNTAX.:E05TSI                          WED 07/30/97 04:07 Page:241
     1540     5222                                                /**/
     1541     5223                                           /* Search input node for first non-
     1542     5224                                                intrinsic node type, and use
     1543     5225                                                its code as the code of the
     1544     5226                                                lexeme to build a phoney output
     1545     5227                                                node for                  */
     1546     5228    1        OCS_DFW_LEVEL = '0'B /*FALSE#*/;

   5228  2 000054   000000 450000 xsym               STZ     OCS_DFW_LEVEL

     1547     5229    1        OCS_LEVEL_MARK = 0;

   5229  2 000055   000000 450000 xsym               STZ     OCS_LEVEL_MARK

     1548     5230    1        OCS_CODE_ = 0;

   5230  2 000056   000010 450000 0                  STZ     OCS_CODE_

     1549     5231    1        OCS_NODE$ = ADDR(NIL);

   5231  2 000057   000001 236000 xsym               LDQ     B_VECTNIL+1
         2 000060   000011 756000 0                  STQ     OCS_NODE$

     1550     5232    1        CALL OCS$NCODE ( XU$PARAM.NODE$ );

   5232  2 000061   200003 236100                    LDQ     @XU$PARAM,,AUTO
         2 000062   000001 036003                    ADLQ    1,DU
         2 000063   200004 756100                    STQ     @XU$PARAM+1,,AUTO
         2 000064   200004 630500                    EPPR0   @XU$PARAM+1,,AUTO
         2 000065   000017 631400 xsym               EPPR1   B_VECTNIL+15
         2 000066   000000 701000 xent               TSX1    OCS$NCODE
         2 000067   000000 011000                    NOP     0

     1551     5233                                                /**/
     1552     5234    1        IF OCS_CODE_ = 0

   5234  2 000070   000010 235000 0                  LDA     OCS_CODE_
PL6.E3A0      #004=OCS$FAILURES File=OCS$SYNTAX.:E05TSI                          WED 07/30/97 04:07 Page:242
         2 000071   000073 601000 2                  TNZ     s:5238

     1553     5235    1        THEN
     1554     5236    1             RETURN;

   5236  2 000072   000000 702200 xent               TSX2  ! X66_ARET

     1555     5237                                                /**/
     1556     5238    1        IF OCS_CODE_ =  971 /* XNOT# */

   5238  2 000073   001713 115007                    CMPA    971,DL
         2 000074   000077 601000 2                  TNZ     s:5242

     1557     5239    1        THEN
     1558     5240    1             OCS_CODE_ = 909 /* XDEC9# */;           /* TREAT LIKE DEICMAL */

   5240  2 000075   001615 236007                    LDQ     909,DL
         2 000076   000010 756000 0                  STQ     OCS_CODE_

     1559     5241                                                /**/
     1560     5242    1        CVSN_ = 0;

   5242  2 000077   000006 450000 0                  STZ     CVSN_

     1561     5243                                                /**/
     1562     5244    2        DO I = 0 TO 49 /* MAX_LEXEMES# */;

   5244  2 000100   000001 450000 0                  STZ     I

     1563     5245    2             IF OCS_CODE_ = OCS_LEXEMES.CODE(I)

   5245  2 000101   000001 235000 0                  LDA     I
         2 000102   000002 735000                    ALS     2
         2 000103   000000 236005 xsym               LDQ     OCS_LEXEMES,AL
         2 000104   777777 376007                    ANQ     -1,DL
         2 000105   000010 116000 0                  CMPQ    OCS_CODE_
         2 000106   000117 601000 2                  TNZ     s:5252
PL6.E3A0      #004=OCS$FAILURES File=OCS$SYNTAX.:E05TSI                          WED 07/30/97 04:07 Page:243

     1564     5246    2             THEN
     1565     5247    3             DO;

     1566     5248    3                  CVSN_ = OCS_LEXEMES.CVSN(I);

   5248  2 000107   000000 236005 xsym               LDQ     OCS_LEXEMES,AL
         2 000110   000022 772000                    QRL     18
         2 000111   000777 376007                    ANQ     511,DL
         2 000112   000006 756000 0                  STQ     CVSN_

     1567     5249    3                  INDEX_ = I;

   5249  2 000113   000001 235000 0                  LDA     I
         2 000114   000003 755000 0                  STA     INDEX_

     1568     5250    3                  I = 49 /* MAX_LEXEMES# */ + 1;    /* to exit loop */

   5250  2 000115   000062 235007                    LDA     50,DL
         2 000116   000001 755000 0                  STA     I

     1569     5251    3                END;

     1570     5252    2           END;

   5252  2 000117   000001 235000 0                  LDA     I
         2 000120   000001 035007                    ADLA    1,DL
         2 000121   000001 755000 0                  STA     I
         2 000122   000062 115007                    CMPA    50,DL
         2 000123   000101 602000 2                  TNC     s:5245

     1571     5253                                                /**/
     1572     5254    1        IF CVSN_ = 0

   5254  2 000124   000006 236000 0                  LDQ     CVSN_
         2 000125   000127 601000 2                  TNZ     s:5272

PL6.E3A0      #004=OCS$FAILURES File=OCS$SYNTAX.:E05TSI                          WED 07/30/97 04:07 Page:244
     1573     5255    1        THEN
     1574     5256    1             RETURN;

   5256  2 000126   000000 702200 xent               TSX2  ! X66_ARET

     1575     5257                                                /**/
     1576     5258        %EJECT;
PL6.E3A0      #004=OCS$FAILURES File=OCS$SYNTAX.:E05TSI                          WED 07/30/97 04:07 Page:245
     1577     5259                                                /**/
     1578     5260                                           /* Process the detected node here
     1579     5261                                                There are two possibilities:
     1580     5262                                                a) The detected node has no
     1581     5263                                                     initializing value, and
     1582     5264                                                     the output block should
     1583     5265                                                     get the initializing value
     1584     5266                                                     from the default table
     1585     5267                                                b) The node was determined to
     1586     5268                                                     have an initializing value
     1587     5269                                                     which should be moved to
     1588     5270                                                     the output block.
     1589     5271                                                                          */
     1590     5272    1        IF OCS_NODE$ = ADDR(NIL)

   5272  2 000127   000011 236000 0                  LDQ     OCS_NODE$
         2 000130   000001 116000 xsym               CMPQ    B_VECTNIL+1
         2 000131   000214 601000 2                  TNZ     s:5311

     1591     5273    1        THEN
     1592     5274    2        DO;

     1593     5275    2             CALL X$GETSPACE (SIZE_PARSEB, BLK$, XU$PARAM.GLOBAL$ -> G$D);

   5275  2 000132   200003 470500                    LDP0    @XU$PARAM,,AUTO
         2 000133   000003 471500                    LDP1    3,,PR0
         2 000134   200006 451500                    STP1    @XU$PARAM+3,,AUTO
         2 000135   000000 237000 3                  LDAQ    0
         2 000136   200004 757100                    STAQ    @XU$PARAM+1,,AUTO
         2 000137   200004 630500                    EPPR0   @XU$PARAM+1,,AUTO
         2 000140   000021 631400 xsym               EPPR1   B_VECTNIL+17
         2 000141   000000 701000 xent               TSX1    X$GETSPACE
         2 000142   000000 011000                    NOP     0

     1594     5276                                                /**/
     1595     5277                                                /**/
     1596     5278                                           /* DO CASE ON CONVERSION VALUE
PL6.E3A0      #004=OCS$FAILURES File=OCS$SYNTAX.:E05TSI                          WED 07/30/97 04:07 Page:246
     1597     5279                                                (special handling is required
     1598     5280                                                for TXTC...
     1599     5281                                                others just get INITIAL values */
     1600     5282    3             DO CASE ( CVSN_ );

   5282  2 000143   000006 235000 0                  LDA     CVSN_
         2 000144   000014 115007                    CMPA    12,DL
         2 000145   000147 602005 2                  TNC     s:5282+4,AL
         2 000146   000257 710000 2                  TRA     s:5324
         2 000147   000213 710000 2                  TRA     s:5304
         2 000150   000163 710000 2                  TRA     s:5294
         2 000151   000204 710000 2                  TRA     s:5299
         2 000152   000163 710000 2                  TRA     s:5294
         2 000153   000163 710000 2                  TRA     s:5294
         2 000154   000163 710000 2                  TRA     s:5294
         2 000155   000163 710000 2                  TRA     s:5294
         2 000156   000163 710000 2                  TRA     s:5294
         2 000157   000213 710000 2                  TRA     s:5304
         2 000160   000163 710000 2                  TRA     s:5294
         2 000161   000163 710000 2                  TRA     s:5294
         2 000162   000163 710000 2                  TRA     s:5294

     1601     5283                                                /**/
     1602     5284    3             CASE ( 1 /* TTXT# */,

     1603     5285    3                  3 /* TDEC# */,
     1604     5286    3                  4 /* TDECS# */,
     1605     5287    3                  5 /* TOCT# */,
     1606     5288    3                  6 /* THEX# */,
     1607     5289    3                  9 /* TNUL# */,
     1608     5290    3                  7 /* TBLK# */,
     1609     5291    3                  10 /* TXWSN# */,
     1610     5292    3                  11 /* TXDEV# */ );
     1611     5293                                                /**/
     1612     5294    3                BLK$->OUT$SYM.TEXTC$ = ADDR(BLK$->OUT$SYM.COUNT);

   5294  2 000163   000007 236000 0                  LDQ     BLK$
PL6.E3A0      #004=OCS$FAILURES File=OCS$SYNTAX.:E05TSI                          WED 07/30/97 04:07 Page:247
         2 000164   000004 036003                    ADLQ    4,DU
         2 000165   000007 470400 0                  LDP0    BLK$
         2 000166   000003 756100                    STQ     3,,PR0

     1613     5295    3                BLK$->OUT$SYM.COUNT = 1;

   5295  2 000167   000007 470400 0                  LDP0    BLK$
         2 000170   001000 236003                    LDQ     512,DU
         2 000171   000004 552140                    STBQ    4,'40'O,PR0

     1614     5296    3                BLK$->OUT$SYM.TEXT = OCS_LEXEMES.INITIAL(INDEX_);

   5296  2 000172   000007 470400 0                  LDP0    BLK$
         2 000173   000004 236100                    LDQ     4,,PR0
         2 000174   000033 772000                    QRL     27
         2 000175   000003 235000 0                  LDA     INDEX_
         2 000176   000004 735000                    ALS     4
         2 000177   000000 620006                    EAX0    0,QL
         2 000200   040140 100405                    MLR     fill='040'O
         2 000201   000003 200001 xsym               ADSC9   OCS_LEXEMES+3,A          cn=1,n=1
         2 000202   000004 200010                    ADSC9   4,,PR0                   cn=1,n=*X0
         2 000203   000257 710000 2                  TRA     s:5324

     1615     5297                                                /**/
     1616     5298    3             CASE ( 2 /* TTXTC# */ );

     1617     5299    3                BLK$->OUT$SYM.TEXTC$ = ADDR(BLK$->OUT$SYM.COUNT);

   5299  2 000204   000007 236000 0                  LDQ     BLK$
         2 000205   000004 036003                    ADLQ    4,DU
         2 000206   000007 470400 0                  LDP0    BLK$
         2 000207   000003 756100                    STQ     3,,PR0

     1618     5300    3                BLK$->OUT$SYM.COUNT = 0;

   5300  2 000210   000007 470400 0                  LDP0    BLK$
         2 000211   000000 236003                    LDQ     0,DU
PL6.E3A0      #004=OCS$FAILURES File=OCS$SYNTAX.:E05TSI                          WED 07/30/97 04:07 Page:248
         2 000212   000004 552140                    STBQ    4,'40'O,PR0

     1619     5301                                                /**/
     1620     5302    3             END;                          /* DO CASE CVSN_ */

     1621     5303                                                /**/
     1622     5304    2           END;                          /* DO IF OCS_NODE$ = ADDR(NIL)

   5304  2 000213   000257 710000 2                  TRA     s:5324

     1623     5305                                           (Meaning no literal node found
     1624     5306                                            on input tree search          */
     1625     5307                                                /**/
     1626     5308    1        ELSE
     1627     5309    2        DO;                           /* There was a detectable literal

     1628     5310                                                node in the input tree */
     1629     5311    2             I = OCS_NODE$ -> P$LIT.COUNT / 4 /* BYTESPERWD# */;

   5311  2 000214   000011 470400 0                  LDP0    OCS_NODE$
         2 000215   000001 236100                    LDQ     1,,PR0
         2 000216   000033 772000                    QRL     27
         2 000217   000002 772000                    QRL     2
         2 000220   000001 756000 0                  STQ     I

     1630     5312    2             SIZE_PARSEB = SIZE_PARSEB + I;

   5312  2 000221   000000 036000 0                  ADLQ    SIZE_PARSEB
         2 000222   000000 756000 0                  STQ     SIZE_PARSEB

     1631     5313                                                /**/
     1632     5314    2             CALL X$GETSPACE (SIZE_PARSEB, BLK$, XU$PARAM.GLOBAL$ -> G$D);

   5314  2 000223   200003 471500                    LDP1    @XU$PARAM,,AUTO
         2 000224   100003 473500                    LDP3    3,,PR1
         2 000225   200006 453500                    STP3    @XU$PARAM+3,,AUTO
         2 000226   000000 237000 3                  LDAQ    0
PL6.E3A0      #004=OCS$FAILURES File=OCS$SYNTAX.:E05TSI                          WED 07/30/97 04:07 Page:249
         2 000227   200004 757100                    STAQ    @XU$PARAM+1,,AUTO
         2 000230   200004 630500                    EPPR0   @XU$PARAM+1,,AUTO
         2 000231   000021 631400 xsym               EPPR1   B_VECTNIL+17
         2 000232   000000 701000 xent               TSX1    X$GETSPACE
         2 000233   000000 011000                    NOP     0

     1633     5315                                                /**/
     1634     5316    2             BLK$ -> OUT$SYM.TEXTC$ = ADDR(BLK$ -> OUT$SYM.COUNT);

   5316  2 000234   000007 236000 0                  LDQ     BLK$
         2 000235   000004 036003                    ADLQ    4,DU
         2 000236   000007 470400 0                  LDP0    BLK$
         2 000237   000003 756100                    STQ     3,,PR0

     1635     5317    2             BLK$ -> OUT$SYM.COUNT = OCS_NODE$ -> P$LIT.COUNT;

   5317  2 000240   000011 470400 0                  LDP0    OCS_NODE$
         2 000241   000007 471400 0                  LDP1    BLK$
         2 000242   000001 236100                    LDQ     1,,PR0
         2 000243   100004 552140                    STBQ    4,'40'O,PR1

     1636     5318    2             BLK$ -> OUT$SYM.TEXT = OCS_NODE$ -> P$LIT.TEXT;

   5318  2 000244   000007 470400 0                  LDP0    BLK$
         2 000245   000004 236100                    LDQ     4,,PR0
         2 000246   000033 772000                    QRL     27
         2 000247   000011 471400 0                  LDP1    OCS_NODE$
         2 000250   000000 620006                    EAX0    0,QL
         2 000251   100001 236100                    LDQ     1,,PR1
         2 000252   000033 772000                    QRL     27
         2 000253   000000 621006                    EAX1    0,QL
         2 000254   040140 100540                    MLR     fill='040'O
         2 000255   100001 200011                    ADSC9   1,,PR1                   cn=1,n=*X1
         2 000256   000004 200010                    ADSC9   4,,PR0                   cn=1,n=*X0

     1637     5319                                                /**/
     1638     5320    2           END;                            /* DO IF OCS_NODE$ ~= ADDR(NIL) */
PL6.E3A0      #004=OCS$FAILURES File=OCS$SYNTAX.:E05TSI                          WED 07/30/97 04:07 Page:250

     1639     5321                                                /**/
     1640     5322        %EJECT;
PL6.E3A0      #004=OCS$FAILURES File=OCS$SYNTAX.:E05TSI                          WED 07/30/97 04:07 Page:251
     1641     5323                                                /**/
     1642     5324    1        BLK$->OUT$SYM.CODE = OCS_CODE_;

   5324  2 000257   000010 720000 0                  LXL0    OCS_CODE_
         2 000260   000007 470400 0                  LDP0    BLK$
         2 000261   000000 440100                    SXL0    0,,PR0

     1643     5325    1        BLK$->OUT$SYM.CPOS = XU$PARAM.CHARPOS;

   5325  2 000262   200003 470500                    LDP0    @XU$PARAM,,AUTO
         2 000263   000007 471400 0                  LDP1    BLK$
         2 000264   000004 235100                    LDA     4,,PR0
         2 000265   100002 755100                    STA     2,,PR1

     1644     5326    1        BLK$->OUT$SYM.NDTYPE = %ALNUM#;

   5326  2 000266   000007 471400 0                  LDP1    BLK$
         2 000267   000024 236003                    LDQ     20,DU
         2 000270   100000 752110                    STCQ    0,'10'O,PR1

     1645     5327    1        BLK$->OUT$SYM.NSUBLKS = 1;

   5327  2 000271   000001 220003                    LDX0    1,DU
         2 000272   000007 471400 0                  LDP1    BLK$
         2 000273   100001 740100                    STX0    1,,PR1

     1646     5328    1        OCS_PTRO$->OUT$BLK.SUBLK$(0) = BLK$;

   5328  2 000274   000007 236000 0                  LDQ     BLK$
         2 000275   000005 471400 0                  LDP1    OCS_PTRO$
         2 000276   100003 756100                    STQ     3,,PR1

     1647     5329                                                /**/
     1648     5330    1        XU$PARAM.ACCEPT = '1'B /*TRUE#*/;

   5330  2 000277   000400 236003                    LDQ     256,DU
         2 000300   000000 256100                    ORSQ    0,,PR0
PL6.E3A0      #004=OCS$FAILURES File=OCS$SYNTAX.:E05TSI                          WED 07/30/97 04:07 Page:252

     1649     5331    1        XU$PARAM.OUT$ = OCS_PTRO$;

   5331  2 000301   000005 236000 0                  LDQ     OCS_PTRO$
         2 000302   000002 756100                    STQ     2,,PR0

     1650     5332                                                /**/
     1651     5333    1        RETURN;

   5333  2 000303   000000 702200 xent               TSX2  ! X66_ARET
     1652     5334                                                /**/
     1653     5335    1   END OCS$FAILURES;
     1654     5336        %EOD;

PL6.E3A0      #004=OCS$FAILURES File=OCS$SYNTAX.:E05TSI                          WED 07/30/97 04:07 Page:253
--  Include file information  --

   OCS_DATA_R.:E05TOU  cannot be made into a system file and is referenced.
   OC_SUBS_C.:E05TOU  is referenced.
   OCS_SUBS_C.:E05TOU  is referenced.
   OC$MESSHD_C.:E05TOU  is referenced.
   OC_DAT_R.:E05TOU  cannot be made into a system file and is referenced.
   CP_6.:E05TOU  cannot be made into a system file and is referenced.
   OCI_SUBS_C.:E05TOU  is referenced.
   XU_SUBS_C.:E05TOU  is referenced.
   XU_MACRO_C.:E05TOU  is referenced.
   B$JIT_C.:E05TOU  was found in the system file and is never referenced.
   CP_6_C.:E05TOU  was found in the system file and is referenced.
      No diagnostics issued in procedure OCS$FAILURES.
PL6.E3A0      #004=OCS$FAILURES File=OCS$SYNTAX.:E05TSI                          WED 07/30/97 04:07 Page:254

 **** Variables and constants ****

  ****  Section 000  Data  OCS$FAILURES

  ****  Scalars and arrays  ****
OctLoc.c.b A Datatyp(siz) R M Lvl/name                 OctLoc.c.b A Datatyp(siz) R M Lvl/name

     7-0-0/w PTR         r     1 BLK$                       6-0-0/w UBIN        r     1 CVSN_
     1-0-0/w UBIN        r     1 I                          3-0-0/w UBIN        r     1 INDEX_
    10-0-0/w UBIN        r     1 OCS_CODE_                 11-0-0/w PTR         r     1 OCS_NODE$
     4-0-0/w PTR         r     1 OCS_PTR$                   5-0-0/w PTR         r     1 OCS_PTRO$
     0-0-0/w UBIN        r     1 SIZE_PARSEB

  ****  Auto variables  ****

  ****  Scalars and arrays  ****
OctLoc.c.b A Datatyp(siz) R M Lvl/name                 OctLoc.c.b A Datatyp(siz) R M Lvl/name

     3-0-0/w PTR         r     1 @XU$PARAM                 *0-0-0/w STRC(270)   r     1 XU$PARAM

  ****  SYMREF variables  ****

  ****  Scalars and arrays  ****
OctLoc.c.b A Datatyp(siz) R M Lvl/name                 OctLoc.c.b A Datatyp(siz) R M Lvl/name

     0-0-0/w BIT         r     1 OCS_DFW_LEVEL              0-0-0/w UBIN        r     1 OCS_LEVEL_MARK
     0-0-0/w STRC(126)   r     1 OCS_LEXEMES(0:8191)
     0-0-0/w PTR         r     1 OC_CONSOLE$

  ****  BASED and DCB variables  ****

  ****  Scalars and arrays  ****
OctLoc.c.b A Datatyp(siz) R M Lvl/name                 OctLoc.c.b A Datatyp(siz) R M Lvl/name

     0-0-0/d STRC(5175)  r     1 G$D                        0-0-0/c ASTR(9)     r     1 OCS$TN
     0-0-0/w STRC(144)   r     1 OUT$BLK                    0-0-0/w ASTR(153)   r     1 OUT$SYM
     0-0-0/w ASTR(45)    r     1 P$LIT                      0-0-0/w STRC(72)    r     1 P$NODE
PL6.E3A0      #004=OCS$FAILURES File=OCS$SYNTAX.:E05TSI                          WED 07/30/97 04:07 Page:255


   Procedure OCS$FAILURES requires 196 words for executable code.
   Procedure OCS$FAILURES requires 8 words of local(AUTO) storage.
PL6.E3A0      #004=OCS$FAILURES File=OCS$SYNTAX.:E05TSI                          WED 07/30/97 04:07 Page:256
          *** CROSS REFERENCE LISTING ***
**     DENOTES     IDENTIFIER DEFINITION
<<                 IDENTIFIER'S VALUE SET
>>                 IDENTIFIER'S VALUE USED
<>                 IDENTIFIER SET AND/OR USED
--                 IDENTIFIER REFERENCED
PL6.E3A0      #004=OCS$FAILURES File=OCS$SYNTAX.:E05TSI                          WED 07/30/97 04:07 Page:257
          MINI XREF LISTING

BLK$
      3884**DCL      3626--IMP-PTR  3673--IMP-PTR  5212<>CALL     5214>>ASSIGN   5215>>ASSIGN   5216>>ASSIGN
      5217>>ASSIGN   5218>>ASSIGN   5275<>CALL     5294>>ASSIGN   5294>>ASSIGN   5295>>ASSIGN   5296>>ASSIGN
      5296>>ASSIGN   5299>>ASSIGN   5299>>ASSIGN   5300>>ASSIGN   5314<>CALL     5316>>ASSIGN   5316>>ASSIGN
      5317>>ASSIGN   5318>>ASSIGN   5318>>ASSIGN   5324>>ASSIGN   5325>>ASSIGN   5326>>ASSIGN   5327>>ASSIGN
      5328>>ASSIGN
CVSN_
      3883**DCL      5242<<ASSIGN   5248<<ASSIGN   5254>>IF       5282>>DOCASE
G$D
      3532**DCL      5212<>CALL     5275<>CALL     5314<>CALL
G$D.LDCMNT.TX
      3602**DCL      3603--REDEF
G$D.SCRATCH
      3569**DCL      3572--REDEF
G$D.TRCMNT.TX
      3610**DCL      3611--REDEF
I
      3878**DCL      3881--DCLINIT  5244<<DOINDEX  5245>>IF       5248>>ASSIGN   5249>>ASSIGN   5250<<ASSIGN
      5311<<ASSIGN   5312>>ASSIGN
INDEX_
      3880**DCL      5249<<ASSIGN   5296>>ASSIGN
OCS$NCODE
      3791**DCL-ENT  5232--CALL
OCS$TN.COUNT
      3775**DCL      3776--IMP-SIZ
OCS_CODE_
      3886**DCL      5230<<ASSIGN   5234>>IF       5238>>IF       5240<<ASSIGN   5245>>IF       5324>>ASSIGN
OCS_DFW_LEVEL
      5192**DCL      5228<<ASSIGN
OCS_LEVEL_MARK
      5192**DCL      5229<<ASSIGN
OCS_LEXEMES.CODE
PL6.E3A0      #004=OCS$FAILURES File=OCS$SYNTAX.:E05TSI                          WED 07/30/97 04:07 Page:258
      5195**DCL      5245>>IF
OCS_LEXEMES.CVSN
      5194**DCL      5248>>ASSIGN
OCS_LEXEMES.INITIAL
      5196**DCL      5296>>ASSIGN
OCS_LEXEMES.MAX
      5195**DCL      5195--REDEF
OCS_LEXEMES.MIN
      5195**DCL      5195--REDEF
OCS_NODE$
      3887**DCL      5231<<ASSIGN   5272>>IF       5311>>ASSIGN   5317>>ASSIGN   5318>>ASSIGN   5318>>ASSIGN
OCS_PTR$
      3881**DCL      5208>>ASSIGN   5208>>ASSIGN
OCS_PTRO$
      3882**DCL      5218<<ASSIGN   5328>>ASSIGN   5331>>ASSIGN
OCS_STRUCTURE
      5188**DCL      5188--REDEF
OC_CONSOLE.ATTR
      4182**DCL      4182--REDEF
OC_CONSOLE.ATTRO
      4183**DCL      4183--REDEF
OC_CONSOLE.CID
      4181**DCL      4182--REDEF
OC_CONSOLE.STATION
      4180**DCL      4180--REDEF
OC_CONSOLE$
      4179**DCL      4180--IMP-PTR
OC_DIR
      4222**DCL      4222--REDEF
OC_INTBIT
      4222**DCL      4223--REDEF
OC_INTMSG
      4099**DCL      4112--REDEF
OC_INTMSG.FLAGS
      4106**DCL      4107--REDEF
OC_INTMSG.MESS
PL6.E3A0      #004=OCS$FAILURES File=OCS$SYNTAX.:E05TSI                          WED 07/30/97 04:07 Page:259
      4112**DCL      4112--REDEF
OC_INTMSG.MSGID
      4102**DCL      4103--REDEF
OC_INTMSG.WSN
      4109**DCL      4110--REDEF
OC_MASK
      4223**DCL      4223--REDEF
OC_MESSBUF
      4114**DCL      4129--REDEF    4143--REDEF
OC_MESSBUF.FLAGS
      4121**DCL      4122--REDEF
OC_MESSBUF.MESS
      4127**DCL      4127--REDEF
OC_MESSBUF.MSGID
      4117**DCL      4118--REDEF
OC_MESSBUF.WSN
      4124**DCL      4125--REDEF
OC_MESSBUF1.FLAGS
      4136**DCL      4137--REDEF
OC_MESSBUF1.LEN
      4142**DCL      4142--REDEF
OC_MESSBUF1.MSGID
      4132**DCL      4133--REDEF
OC_MESSBUF1.WSN
      4139**DCL      4140--REDEF
OC_MSGBUFFER
      4145**DCL      4160--REDEF
OC_MSGBUFFER.FLAGS
      4152**DCL      4153--REDEF
OC_MSGBUFFER.MESS
      4158**DCL      4158--REDEF
OC_MSGBUFFER.MSGID
      4148**DCL      4149--REDEF
OC_MSGBUFFER.WSN
      4155**DCL      4156--REDEF
OC_MSGBUFFER2.FLAGS
PL6.E3A0      #004=OCS$FAILURES File=OCS$SYNTAX.:E05TSI                          WED 07/30/97 04:07 Page:260
      4167**DCL      4168--REDEF
OC_MSGBUFFER2.MSGID
      4163**DCL      4164--REDEF
OC_MSGBUFFER2.WSN
      4170**DCL      4171--REDEF
OC_PARAM
      4178**DCL      4178--REDEF
OC_QUEUE.PARMC
      4177**DCL      4177--REDEF
OUT$BLK.CODE
      3634**DCL      5214<<ASSIGN
OUT$BLK.CPOS
      3652**DCL      5215<<ASSIGN
OUT$BLK.NDTYPE
      3629**DCL      5216<<ASSIGN
OUT$BLK.NSUBLKS
      3638**DCL      5217<<ASSIGN
OUT$BLK.SUBLK$
      3659**DCL      5328<<ASSIGN
OUT$SYM.CODE
      3679**DCL      5324<<ASSIGN
OUT$SYM.COUNT
      3696**DCL      3699--IMP-SIZ  5208--ASSIGN   5294--ASSIGN   5295<<ASSIGN   5296>>ASSIGN   5299--ASSIGN
      5300<<ASSIGN   5316--ASSIGN   5317<<ASSIGN   5318>>ASSIGN
OUT$SYM.CPOS
      3688**DCL      5325<<ASSIGN
OUT$SYM.NDTYPE
      3676**DCL      5326<<ASSIGN
OUT$SYM.NSUBLKS
      3682**DCL      5327<<ASSIGN
OUT$SYM.TEMP
      3674**DCL      5208--ASSIGN
OUT$SYM.TEXT
      3699**DCL      5296<<ASSIGN   5318<<ASSIGN
OUT$SYM.TEXTC$
      3691**DCL      5294<<ASSIGN   5299<<ASSIGN   5316<<ASSIGN
PL6.E3A0      #004=OCS$FAILURES File=OCS$SYNTAX.:E05TSI                          WED 07/30/97 04:07 Page:261
P$LIT.COUNT
      3748**DCL      3751--IMP-SIZ  5311>>ASSIGN   5317>>ASSIGN   5318>>ASSIGN
P$LIT.TEXT
      3751**DCL      5318>>ASSIGN
P$NODE.CODE
      3506**DCL      5214>>ASSIGN
SIZE_PARSEB
      3877**DCL      5208<<ASSIGN   5212<>CALL     5219<<ASSIGN   5219>>ASSIGN   5275<>CALL     5312<<ASSIGN
      5312>>ASSIGN   5314<>CALL
X$GETSPACE
      3790**DCL-ENT  5212--CALL     5275--CALL     5314--CALL
XU$PARAM
      3812**DCL        20--PROC
XU$PARAM.ACCEPT
      3819**DCL      5330<<ASSIGN
XU$PARAM.CHARPOS
      3850**DCL      5215>>ASSIGN   5325>>ASSIGN
XU$PARAM.GLOBAL$
      3846**DCL      5212>>CALL     5275>>CALL     5314>>CALL
XU$PARAM.NODE$
      3838**DCL      5214>>ASSIGN   5232<>CALL
XU$PARAM.OUT$
      3842**DCL      5331<<ASSIGN
XU$PARAM.TYPE
      3813**DCL      5202>>IF

PL6.E3A0      #005=OCS$NCODE File=OCS$SYNTAX.:E05TSI                             WED 07/30/97 04:08 Page:262
     1655        1        /*M* OCS$NCODE procedure to recursively examine input nodes to determine
     1656        2                       node code for failure output block gneration       */
     1657        3        /*T***********************************************************/
     1658        4        /*T*                                                         */
     1659        5        /*T* Copyright (c) Bull HN Information Systems Inc., 1997    */
     1660        6        /*T*                                                         */
     1661        7        /*T***********************************************************/
     1662        8        %SET LISTSUB='1'B;
     1663        9        /*
     1664       10         ###    ###    ###    #   #   #   ###    ###   ####   #####
     1665       11        #   #  #   #  #   #  ###  #   #  #   #  #   #  #   #  #
     1666       12        #   #  #      #     # #   ##  #  #      #   #  #   #  #
     1667       13        #   #  #       ###   ###  # # #  #      #   #  #   #  ####
     1668       14        #   #  #          #   # # #  ##  #      #   #  #   #  #
     1669       15        #   #  #   #  #   #  ###  #   #  #   #  #   #  #   #  #
     1670       16         ###    ###    ###    #   #   #   ###    ###   ####   #####
     1671       17                                                                   */
     1672       18                                                /**/
     1673       19        OCS$NCODE: PROC (PTR$);
     1674       20                                                /**/
     1675       21        %INCLUDE XU_MACRO_C;
     1676     3127                                                /**/
     1677     3128        %INCLUDE XU_SUBS_C;
     1678     3220                                                /**/
     1679     3221             %P$NODE        (NAME=P$NODE,
     1680     3222                                 STCLASS="BASED");
     1681     3316                                                /**/
     1682     3317        %INCLUDE OCS_SUBS_C;
     1683     3534        %INCLUDE OCI_SUBS_C;
     1684     3632                                                /**/
     1685     3633        %EJECT;
PL6.E3A0      #005=OCS$NCODE File=OCS$SYNTAX.:E05TSI                             WED 07/30/97 04:08 Page:263
     1686     3634                                                /**/
     1687     3635    1   DCL PTR$ PTR;
     1688     3636    1   DCL IA UBIN WORD;
     1689     3637    1   DCL OCS_CODE_ UBIN WORD SYMREF;
     1690     3638    1   DCL OCS_NODE$ PTR SYMREF;
     1691     3639    1   DCL OCS_LEVEL_MARK UBIN WORD ALIGNED SYMREF;
     1692     3640    1   DCL OCS_DFW_LEVEL BIT(1) ALIGNED SYMREF;
     1693     3641    1   DCL IMAX_ UBIN WORD;
     1694     3642                                                /**/
     1695     3643        %EJECT;
PL6.E3A0      #005=OCS$NCODE File=OCS$SYNTAX.:E05TSI                             WED 07/30/97 04:08 Page:264
     1696     3644                                                /**/
     1697     3645        /*
     1698     3646                  Begin O C S $ N C O D E
     1699     3647                                                     */
     1700     3648                                                /**/
     1701     3649    2        DO CASE ( PTR$->P$NODE.TYPE );
     1702     3650                                                /**/
     1703     3651    2        CASE ( %TYPE_ALTERN#,
     1704     3652    2             %TYPE_KONCAT#,
     1705     3653    2             %TYPE_LIST#,
     1706     3654    2             %TYPE_RALTERN# );
     1707     3655                                                /**/
     1708     3656    2           IF PTR$->P$NODE.NSUBNDS > 1
     1709     3657    2           THEN
     1710     3658    3           DO;
     1711     3659                                                /**/
     1712     3660    3                IMAX_ = PTR$->P$NODE.NSUBNDS - 1;
     1713     3661    4                DO IA = 0 TO IMAX_;
     1714     3662                                                /**/
     1715     3663    4                     IF PTR$->P$NODE.SUBNDS$(IA)->P$NODE.NSUBNDS > 1
     1716     3664    4                     THEN
     1717     3665    5                     DO;
     1718     3666    5                          CALL OCS$NCODE ( PTR$->P$NODE.SUBNDS$(IA) );
     1719     3667                                                /**/
     1720     3668    5                          IF OCS_CODE_ ~= 0
     1721     3669    5                          THEN
     1722     3670    5                               IF OCS_DFW_LEVEL = '0'B /*FALSE#*/
     1723     3671    5                               THEN
     1724     3672    5                                    IF OCS_LEVEL_MARK < 2
     1725     3673    5                                    THEN
     1726     3674    6                                    DO;
     1727     3675    6                                         OCS_LEVEL_MARK = OCS_LEVEL_MARK + 1;
     1728     3676    6                                       END;
     1729     3677    5                                    ELSE
     1730     3678    6                                    DO;
     1731     3679    6                                         IF PTR$ -> P$NODE.TYPE =
     1732     3680    6                                              %TYPE_ALTERN#
PL6.E3A0      #005=OCS$NCODE File=OCS$SYNTAX.:E05TSI                             WED 07/30/97 04:08 Page:265
     1733     3681    6                                         THEN
     1734     3682    6                                              IF PTR$ -> P$NODE.NSUBNDS
     1735     3683    6                                                   = 2
     1736     3684    6                                              THEN
     1737     3685    6                                                   IF IA = 0
     1738     3686    6                                                   THEN
     1739     3687    6                                                        IF PTR$ ->
     1740     3688    6                                                             P$NODE.SUBNDS$(1)
     1741     3689    6                                                             ->
     1742     3690    6                                                             P$NODE.TYPE
     1743     3691    6                                                             =
     1744     3692    6                                                             %TYPE_LITERAL#
     1745     3693    6                                                        THEN
     1746     3694    6                                                             OCS_NODE$
     1747     3695    6                                                                  =
     1748     3696    6                                                                  PTR$ ->
     1749     3697    6                                                                  P$NODE.SUBNDS$(1);
     1750     3698                                                /**/
     1751     3699    6                                         OCS_DFW_LEVEL = '1'B /*TRUE#*/;
     1752     3700                                                /**/
     1753     3701    6                                       END; /* DO IF SETTING */
     1754     3702    5                        END;               /* DO IF NON_ZERO */
     1755     3703    4                     ELSE
     1756     3704    5                     DO;
     1757     3705    5                          OCS_CODE_ = PTR$->P$NODE.SUBNDS$(IA)->P$NODE.CODE;
     1758     3706                                                /**/
     1759     3707    5                          IF PTR$ -> P$NODE.TYPE = %TYPE_ALTERN#
     1760     3708    5                          THEN
     1761     3709    5                               IF PTR$ -> P$NODE.NSUBNDS = 2
     1762     3710    5                               THEN
     1763     3711    5                                    IF IA = 0
     1764     3712    5                                    THEN
     1765     3713    5                                         IF PTR$ -> P$NODE.SUBNDS$(1) ->
     1766     3714    5                                              P$NODE.TYPE = %TYPE_LITERAL#
     1767     3715    5                                         THEN
     1768     3716    5                                              OCS_NODE$ = PTR$ -> P$NODE.SUBNDS$(1);
     1769     3717    5                        END;               /* DO If valid node found */
PL6.E3A0      #005=OCS$NCODE File=OCS$SYNTAX.:E05TSI                             WED 07/30/97 04:08 Page:266
     1770     3718                                                /**/
     1771     3719    4                     IF OCS_CODE_ > 500 /* LOW_LEXEME# */
     1772     3720    4                     THEN
     1773     3721    4                          RETURN;
     1774     3722    4                   END;
     1775     3723    3                RETURN;
     1776     3724    3              END;
     1777     3725    2        CASE (ELSE);
     1778     3726    2           OCS_CODE_ = PTR$->P$NODE.CODE;
     1779     3727                                                /**/
     1780     3728                                                /**/
     1781     3729                                                /**/
     1782     3730    2        END;                               /* DO CASE (NDTYPE) */
     1783     3731    1        RETURN;
     1784     3732    1   END OCS$NCODE;

PL6.E3A0      #005=OCS$NCODE File=OCS$SYNTAX.:E05TSI                             WED 07/30/97 04:08 Page:267
--  Include file information  --

   OCI_SUBS_C.:E05TOU  is referenced.
   OCS_SUBS_C.:E05TOU  is referenced.
   XU_SUBS_C.:E05TOU  is referenced.
   XU_MACRO_C.:E05TOU  is referenced.
   B$JIT_C.:E05TOU  was found in the system file and is never referenced.
   CP_6_C.:E05TOU  was found in the system file and is never referenced.
      No diagnostics issued in procedure OCS$NCODE.

   Procedure OCS$NCODE requires 107 words for executable code.
   Procedure OCS$NCODE requires 8 words of local(AUTO) storage.

    No errors detected in file OCS$SYNTAX.:E05TSI    .

PL6.E3A0      #005=OCS$NCODE File=OCS$SYNTAX.:E05TSI                             WED 07/30/97 04:08 Page:268

 Object Unit name= OCS$NCODE                                  File name= OCS$SYNTAX.:E05TOU
 UTS= JUL 30 '97 04:08:25.04 WED                              Compiler= PL-6/E31         Sev=      00
 SharedLib= :SHARED_SYSTEM                                    Alt SharedLib=


    ****  Control sections  ****

 Sect   Type Bound  Init  Size OctSiz  Section name(segment info)
    0   Proc  even  none   107    153  OCS$NCODE
    1  RoData even  none     1      1  OCS$NCODE

    ****  Entry defs  ****

                              Check   Calling
                             calling  sequence
  Sect OctLoc Primary Altret sequence   type   Parms  Name
     0      0   yes            yes      Std        1  OCS$NCODE

  ****  Entry refs  ****

         Check        Calling
        calling       sequence
Altret sequence SRef   type   Args  Name
                       nStd      0 X66_AUTO_1
                       Std       0 B_CONSPOOL_D
                       nStd      0 X66_ARET

  ****  Data refs  ****

  Flags:  r = read only, s = secondary
Flgs Name                             Flgs Name                             Flgs Name
     OCS_CODE_                             OCS_NODE$                             OCS_LEVEL_MARK
     OCS_DFW_LEVEL                         B_VECTNIL
PL6.E3A0      #005=OCS$NCODE File=OCS$SYNTAX.:E05TSI                             WED 07/30/97 04:08 Page:269


     1655        1        /*M* OCS$NCODE procedure to recursively examine input nodes to determine
     1656        2                       node code for failure output block gneration       */
     1657        3        /*T***********************************************************/
     1658        4        /*T*                                                         */
     1659        5        /*T* Copyright (c) Bull HN Information Systems Inc., 1997    */
     1660        6        /*T*                                                         */
     1661        7        /*T***********************************************************/
     1662        8        %SET LISTSUB='1'B;
     1663        9        /*
     1664       10         ###    ###    ###    #   #   #   ###    ###   ####   #####
     1665       11        #   #  #   #  #   #  ###  #   #  #   #  #   #  #   #  #
     1666       12        #   #  #      #     # #   ##  #  #      #   #  #   #  #
     1667       13        #   #  #       ###   ###  # # #  #      #   #  #   #  ####
     1668       14        #   #  #          #   # # #  ##  #      #   #  #   #  #
     1669       15        #   #  #   #  #   #  ###  #   #  #   #  #   #  #   #  #
     1670       16         ###    ###    ###    #   #   #   ###    ###   ####   #####
     1671       17                                                                   */
     1672       18                                                /**/
     1673       19        OCS$NCODE: PROC (PTR$);

     19  0 000000   000000 700200 xent  OCS$NCODE    TSX0  ! X66_AUTO_1
         0 000001   000010 000001                    ZERO    8,1

     1674       20                                                /**/
     1675       21        %INCLUDE XU_MACRO_C;
     1676     3127                                                /**/
     1677     3128        %INCLUDE XU_SUBS_C;
     1678     3220                                                /**/
     1679     3221             %P$NODE        (NAME=P$NODE,
     1680     3222                                 STCLASS="BASED");
     1681     3316                                                /**/
     1682     3317        %INCLUDE OCS_SUBS_C;
     1683     3534        %INCLUDE OCI_SUBS_C;
     1684     3632                                                /**/
     1685     3633        %EJECT;
PL6.E3A0      #005=OCS$NCODE File=OCS$SYNTAX.:E05TSI                             WED 07/30/97 04:08 Page:270
     1686     3634                                                /**/
     1687     3635    1   DCL PTR$ PTR;
     1688     3636    1   DCL IA UBIN WORD;
     1689     3637    1   DCL OCS_CODE_ UBIN WORD SYMREF;
     1690     3638    1   DCL OCS_NODE$ PTR SYMREF;
     1691     3639    1   DCL OCS_LEVEL_MARK UBIN WORD ALIGNED SYMREF;
     1692     3640    1   DCL OCS_DFW_LEVEL BIT(1) ALIGNED SYMREF;
     1693     3641    1   DCL IMAX_ UBIN WORD;
     1694     3642                                                /**/
     1695     3643        %EJECT;
PL6.E3A0      #005=OCS$NCODE File=OCS$SYNTAX.:E05TSI                             WED 07/30/97 04:08 Page:271
     1696     3644                                                /**/
     1697     3645        /*
     1698     3646                  Begin O C S $ N C O D E
     1699     3647                                                     */
     1700     3648                                                /**/
     1701     3649    2        DO CASE ( PTR$->P$NODE.TYPE );

   3649  0 000002   200003 470500                    LDP0    @PTR$,,AUTO
         0 000003   000000 471500                    LDP1    0,,PR0
         0 000004   100000 236100                    LDQ     0,,PR1
         0 000005   000041 772000                    QRL     33
         0 000006   000005 116007                    CMPQ    5,DL
         0 000007   000011 602006 0                  TNC     s:3649+7,QL
         0 000010   000147 710000 0                  TRA     s:3726
         0 000011   000147 710000 0                  TRA     s:3726
         0 000012   000016 710000 0                  TRA     s:3656
         0 000013   000016 710000 0                  TRA     s:3656
         0 000014   000016 710000 0                  TRA     s:3656
         0 000015   000016 710000 0                  TRA     s:3656

     1702     3650                                                /**/
     1703     3651    2        CASE ( %TYPE_ALTERN#,

     1704     3652    2             %TYPE_KONCAT#,
     1705     3653    2             %TYPE_LIST#,
     1706     3654    2             %TYPE_RALTERN# );
     1707     3655                                                /**/
     1708     3656    2           IF PTR$->P$NODE.NSUBNDS > 1

   3656  0 000016   100000 236100                    LDQ     0,,PR1
         0 000017   000000 376000 1                  ANQ     0
         0 000020   400000 116007                    CMPQ    -131072,DL
         0 000021   000152 602000 0                  TNC     s:3731

     1709     3657    2           THEN
     1710     3658    3           DO;

PL6.E3A0      #005=OCS$NCODE File=OCS$SYNTAX.:E05TSI                             WED 07/30/97 04:08 Page:272
     1711     3659                                                /**/
     1712     3660    3                IMAX_ = PTR$->P$NODE.NSUBNDS - 1;

   3660  0 000022   100000 236100                    LDQ     0,,PR1
         0 000023   000020 772000                    QRL     16
         0 000024   000777 376007                    ANQ     511,DL
         0 000025   000001 136007                    SBLQ    1,DL
         0 000026   200005 756100                    STQ     IMAX_,,AUTO

     1713     3661    4                DO IA = 0 TO IMAX_;

   3661  0 000027   200004 450100                    STZ     IA,,AUTO
         0 000030   000143 710000 0                  TRA     s:3722+3

     1714     3662                                                /**/
     1715     3663    4                     IF PTR$->P$NODE.SUBNDS$(IA)->P$NODE.NSUBNDS > 1

   3663  0 000031   200003 470500                    LDP0    @PTR$,,AUTO
         0 000032   000000 471500                    LDP1    0,,PR0
         0 000033   200004 720100                    LXL0    IA,,AUTO
         0 000034   100001 473510                    LDP3    1,X0,PR1
         0 000035   300000 236100                    LDQ     0,,PR3
         0 000036   000000 376000 1                  ANQ     0
         0 000037   400000 116007                    CMPQ    -131072,DL
         0 000040   000107 602000 0                  TNC     s:3705

     1716     3664    4                     THEN
     1717     3665    5                     DO;

     1718     3666    5                          CALL OCS$NCODE ( PTR$->P$NODE.SUBNDS$(IA) );

   3666  0 000041   100001 634510                    EPPR4   1,X0,PR1
         0 000042   200006 454500                    STP4    IMAX_+1,,AUTO
         0 000043   200006 630500                    EPPR0   IMAX_+1,,AUTO
         0 000044   000017 631400 xsym               EPPR1   B_VECTNIL+15
         0 000045   000000 701000 0                  TSX1    s:19
         0 000046   000000 011000                    NOP     0
PL6.E3A0      #005=OCS$NCODE File=OCS$SYNTAX.:E05TSI                             WED 07/30/97 04:08 Page:273

     1719     3667                                                /**/
     1720     3668    5                          IF OCS_CODE_ ~= 0

   3668  0 000047   000000 235000 xsym               LDA     OCS_CODE_
         0 000050   000134 600000 0                  TZE     s:3719

     1721     3669    5                          THEN
     1722     3670    5                               IF OCS_DFW_LEVEL = '0'B /*FALSE#*/

   3670  0 000051   000000 234000 xsym               SZN     OCS_DFW_LEVEL
         0 000052   000134 604000 0                  TMI     s:3719

     1723     3671    5                               THEN
     1724     3672    5                                    IF OCS_LEVEL_MARK < 2

   3672  0 000053   000000 236000 xsym               LDQ     OCS_LEVEL_MARK
         0 000054   000002 116007                    CMPQ    2,DL
         0 000055   000061 603000 0                  TRC     s:3679

     1725     3673    5                                    THEN
     1726     3674    6                                    DO;

     1727     3675    6                                         OCS_LEVEL_MARK = OCS_LEVEL_MARK + 1;

   3675  0 000056   000001 036007                    ADLQ    1,DL
         0 000057   000000 756000 xsym               STQ     OCS_LEVEL_MARK

     1728     3676    6                                       END;

   3676  0 000060   000134 710000 0                  TRA     s:3719

     1729     3677    5                                    ELSE
     1730     3678    6                                    DO;

     1731     3679    6                                         IF PTR$ -> P$NODE.TYPE =

PL6.E3A0      #005=OCS$NCODE File=OCS$SYNTAX.:E05TSI                             WED 07/30/97 04:08 Page:274
   3679  0 000061   200003 470500                    LDP0    @PTR$,,AUTO
         0 000062   000000 471500                    LDP1    0,,PR0
         0 000063   100000 236100                    LDQ     0,,PR1
         0 000064   700000 376003                    ANQ     -32768,DU
         0 000065   100000 116003                    CMPQ    32768,DU
         0 000066   000104 601000 0                  TNZ     s:3699

     1732     3680    6                                              %TYPE_ALTERN#
     1733     3681    6                                         THEN
     1734     3682    6                                              IF PTR$ -> P$NODE.NSUBNDS

   3682  0 000067   100000 236100                    LDQ     0,,PR1
         0 000070   000000 376000 1                  ANQ     0
         0 000071   400000 116007                    CMPQ    -131072,DL
         0 000072   000104 601000 0                  TNZ     s:3699

     1735     3683    6                                                   = 2
     1736     3684    6                                              THEN
     1737     3685    6                                                   IF IA = 0

   3685  0 000073   200004 235100                    LDA     IA,,AUTO
         0 000074   000104 601000 0                  TNZ     s:3699

     1738     3686    6                                                   THEN
     1739     3687    6                                                        IF PTR$ ->

   3687  0 000075   100002 473500                    LDP3    2,,PR1
         0 000076   300000 236100                    LDQ     0,,PR3
         0 000077   700000 376003                    ANQ     -32768,DU
         0 000100   500000 116003                    CMPQ    -98304,DU
         0 000101   000104 601000 0                  TNZ     s:3699

     1740     3688    6                                                             P$NODE.SUBNDS$(1)
     1741     3689    6                                                             ->
     1742     3690    6                                                             P$NODE.TYPE
     1743     3691    6                                                             =
     1744     3692    6                                                             %TYPE_LITERAL#
PL6.E3A0      #005=OCS$NCODE File=OCS$SYNTAX.:E05TSI                             WED 07/30/97 04:08 Page:275
     1745     3693    6                                                        THEN
     1746     3694    6                                                             OCS_NODE$

   3694  0 000102   100002 236100                    LDQ     2,,PR1
         0 000103   000000 756000 xsym               STQ     OCS_NODE$

     1747     3695    6                                                                  =
     1748     3696    6                                                                  PTR$ ->
     1749     3697    6                                                                  P$NODE.SUBNDS$(1);
     1750     3698                                                /**/
     1751     3699    6                                         OCS_DFW_LEVEL = '1'B /*TRUE#*/;

   3699  0 000104   400000 236003                    LDQ     -131072,DU
         0 000105   000000 756000 xsym               STQ     OCS_DFW_LEVEL

     1752     3700                                                /**/
     1753     3701    6                                       END; /* DO IF SETTING */

     1754     3702    5                        END;               /* DO IF NON_ZERO */

   3702  0 000106   000134 710000 0                  TRA     s:3719

     1755     3703    4                     ELSE
     1756     3704    5                     DO;

     1757     3705    5                          OCS_CODE_ = PTR$->P$NODE.SUBNDS$(IA)->P$NODE.CODE;

   3705  0 000107   300000 236100                    LDQ     0,,PR3
         0 000110   177777 376007                    ANQ     65535,DL
         0 000111   000000 756000 xsym               STQ     OCS_CODE_

     1758     3706                                                /**/
     1759     3707    5                          IF PTR$ -> P$NODE.TYPE = %TYPE_ALTERN#

   3707  0 000112   000000 471500                    LDP1    0,,PR0
         0 000113   100000 236100                    LDQ     0,,PR1
         0 000114   700000 376003                    ANQ     -32768,DU
PL6.E3A0      #005=OCS$NCODE File=OCS$SYNTAX.:E05TSI                             WED 07/30/97 04:08 Page:276
         0 000115   100000 116003                    CMPQ    32768,DU
         0 000116   000134 601000 0                  TNZ     s:3719

     1760     3708    5                          THEN
     1761     3709    5                               IF PTR$ -> P$NODE.NSUBNDS = 2

   3709  0 000117   100000 236100                    LDQ     0,,PR1
         0 000120   000000 376000 1                  ANQ     0
         0 000121   400000 116007                    CMPQ    -131072,DL
         0 000122   000134 601000 0                  TNZ     s:3719

     1762     3710    5                               THEN
     1763     3711    5                                    IF IA = 0

   3711  0 000123   200004 235100                    LDA     IA,,AUTO
         0 000124   000134 601000 0                  TNZ     s:3719

     1764     3712    5                                    THEN
     1765     3713    5                                         IF PTR$ -> P$NODE.SUBNDS$(1) ->

   3713  0 000125   100002 473500                    LDP3    2,,PR1
         0 000126   300000 236100                    LDQ     0,,PR3
         0 000127   700000 376003                    ANQ     -32768,DU
         0 000130   500000 116003                    CMPQ    -98304,DU
         0 000131   000134 601000 0                  TNZ     s:3719

     1766     3714    5                                              P$NODE.TYPE = %TYPE_LITERAL#
     1767     3715    5                                         THEN
     1768     3716    5                                              OCS_NODE$ = PTR$ -> P$NODE.SUBNDS$(1);

   3716  0 000132   100002 236100                    LDQ     2,,PR1
         0 000133   000000 756000 xsym               STQ     OCS_NODE$

     1769     3717    5                        END;               /* DO If valid node found */

     1770     3718                                                /**/
     1771     3719    4                     IF OCS_CODE_ > 500 /* LOW_LEXEME# */
PL6.E3A0      #005=OCS$NCODE File=OCS$SYNTAX.:E05TSI                             WED 07/30/97 04:08 Page:277

   3719  0 000134   000000 235000 xsym               LDA     OCS_CODE_
         0 000135   000765 115007                    CMPA    501,DL
         0 000136   000140 602000 0                  TNC     s:3722

     1772     3720    4                     THEN
     1773     3721    4                          RETURN;

   3721  0 000137   000000 702200 xent               TSX2  ! X66_ARET

     1774     3722    4                   END;

   3722  0 000140   200004 236100                    LDQ     IA,,AUTO
         0 000141   000001 036007                    ADLQ    1,DL
         0 000142   200004 756100                    STQ     IA,,AUTO
         0 000143   200005 236100                    LDQ     IMAX_,,AUTO
         0 000144   200004 116100                    CMPQ    IA,,AUTO
         0 000145   000031 603000 0                  TRC     s:3663

     1775     3723    3                RETURN;

   3723  0 000146   000000 702200 xent               TSX2  ! X66_ARET

     1776     3724    3              END;
     1777     3725    2        CASE (ELSE);

     1778     3726    2           OCS_CODE_ = PTR$->P$NODE.CODE;

   3726  0 000147   100000 236100                    LDQ     0,,PR1
         0 000150   177777 376007                    ANQ     65535,DL
         0 000151   000000 756000 xsym               STQ     OCS_CODE_

     1779     3727                                                /**/
     1780     3728                                                /**/
     1781     3729                                                /**/
     1782     3730    2        END;                               /* DO CASE (NDTYPE) */

PL6.E3A0      #005=OCS$NCODE File=OCS$SYNTAX.:E05TSI                             WED 07/30/97 04:08 Page:278
     1783     3731    1        RETURN;

   3731  0 000152   000000 702200 xent               TSX2  ! X66_ARET
     1784     3732    1   END OCS$NCODE;

PL6.E3A0      #005=OCS$NCODE File=OCS$SYNTAX.:E05TSI                             WED 07/30/97 04:08 Page:279
--  Include file information  --

   OCI_SUBS_C.:E05TOU  is referenced.
   OCS_SUBS_C.:E05TOU  is referenced.
   XU_SUBS_C.:E05TOU  is referenced.
   XU_MACRO_C.:E05TOU  is referenced.
   B$JIT_C.:E05TOU  was found in the system file and is never referenced.
   CP_6_C.:E05TOU  was found in the system file and is never referenced.
      No diagnostics issued in procedure OCS$NCODE.
PL6.E3A0      #005=OCS$NCODE File=OCS$SYNTAX.:E05TSI                             WED 07/30/97 04:08 Page:280

 **** Variables and constants ****

  ****  Auto variables  ****

  ****  Scalars and arrays  ****
OctLoc.c.b A Datatyp(siz) R M Lvl/name                 OctLoc.c.b A Datatyp(siz) R M Lvl/name

     3-0-0/w PTR         r     1 @PTR$                      4-0-0/w UBIN        r     1 IA
     5-0-0/w UBIN        r     1 IMAX_                     *0-0-0/w PTR         r     1 PTR$

  ****  SYMREF variables  ****

  ****  Scalars and arrays  ****
OctLoc.c.b A Datatyp(siz) R M Lvl/name                 OctLoc.c.b A Datatyp(siz) R M Lvl/name

     0-0-0/w UBIN        r     1 OCS_CODE_                  0-0-0/w BIT         r     1 OCS_DFW_LEVEL
     0-0-0/w UBIN        r     1 OCS_LEVEL_MARK             0-0-0/w PTR         r     1 OCS_NODE$

  ****  BASED and DCB variables  ****

  ****  Scalars and arrays  ****
OctLoc.c.b A Datatyp(siz) R M Lvl/name                 OctLoc.c.b A Datatyp(siz) R M Lvl/name

     0-0-0/w STRC(72)    r     1 P$NODE


   Procedure OCS$NCODE requires 107 words for executable code.
   Procedure OCS$NCODE requires 8 words of local(AUTO) storage.

    No errors detected in file OCS$SYNTAX.:E05TSI    .
PL6.E3A0      #005=OCS$NCODE File=OCS$SYNTAX.:E05TSI                             WED 07/30/97 04:08 Page:281
          *** CROSS REFERENCE LISTING ***
**     DENOTES     IDENTIFIER DEFINITION
<<                 IDENTIFIER'S VALUE SET
>>                 IDENTIFIER'S VALUE USED
<>                 IDENTIFIER SET AND/OR USED
--                 IDENTIFIER REFERENCED
PL6.E3A0      #005=OCS$NCODE File=OCS$SYNTAX.:E05TSI                             WED 07/30/97 04:08 Page:282
          MINI XREF LISTING

IA
      3636**DCL      3661<<DOINDEX  3663>>IF       3666>>CALL     3685>>IF       3705>>ASSIGN   3711>>IF
IMAX_
      3641**DCL      3660<<ASSIGN   3661>>DOINDEX
OCS$NCODE
        19**PROC     3666--CALL
OCS_CODE_
      3637**DCL      3668>>IF       3705<<ASSIGN   3719>>IF       3726<<ASSIGN
OCS_DFW_LEVEL
      3640**DCL      3670>>IF       3699<<ASSIGN
OCS_LEVEL_MARK
      3639**DCL      3672>>IF       3675<<ASSIGN   3675>>ASSIGN
OCS_NODE$
      3638**DCL      3694<<ASSIGN   3716<<ASSIGN
P$NODE.CODE
      3301**DCL      3705>>ASSIGN   3726>>ASSIGN
P$NODE.NSUBNDS
      3298**DCL      3656>>IF       3660>>ASSIGN   3663>>IF       3682>>IF       3709>>IF
P$NODE.SUBNDS$
      3306**DCL      3663>>IF       3666<>CALL     3687>>IF       3694>>ASSIGN   3705>>ASSIGN   3713>>IF
      3716>>ASSIGN
P$NODE.TYPE
      3244**DCL      3649>>DOCASE   3679>>IF       3687>>IF       3707>>IF       3713>>IF
PTR$
      3635**DCL        19--PROC     3649>>DOCASE   3656>>IF       3660>>ASSIGN   3663>>IF       3666>>CALL
      3679>>IF       3682>>IF       3687>>IF       3694>>ASSIGN   3705>>ASSIGN   3707>>IF       3709>>IF
      3713>>IF       3716>>ASSIGN   3726>>ASSIGN
