VERSION E05

PL6.E3A0      #001=OCS_DATA_D File=OCS_DATA_D.:E05TSI                            WED 07/30/97 04:07 Page:1
        1        1        /*M* OCS_DATA_D KEYINs syntax parsing global data */
        2        2        /*T***********************************************************/
        3        3        /*T*                                                         */
        4        4        /*T* Copyright (c) Bull HN Information Systems Inc., 1997    */
        5        5        /*T*                                                         */
        6        6        /*T***********************************************************/
        7        7        /*X* DMR,PLM=5,IND=5,CTI=5,SDI=5,MCL=10,CSI=0,ECI=0 */
        8        8                                                /**/
        9        9                                                /**/
       10       10        OCS_DATA_D: PROC NOAUTO;
       11       11        /* !! */                                /* Munger commands */
       12       12        %SET LISTSUB='1'B;
       13       13        %INCLUDE OCS_SUBS_C;
       14      230        /* !R! */                               /* Munger commands */
       15      231                                                /**/
       16      232                                                /**/
       17      233    1   DCL 1 OCS_STRUCTURE (0:139) STATIC SYMDEF,
       18      234    1            2 * BIT (9) UNAL;
       19      235    1   DCL OCS_STRUCTC REDEF OCS_STRUCTURE CHAR(140);
       20      236    1   DCL OCS_SSIZE UBIN WORD STATIC SYMDEF;
       21      237    1   DCL OCS_KSIZE UBIN WORD STATIC SYMDEF;
       22      238    1   DCL OCS_STA(0:3 /* MAX_NAMES# */) CHAR(8) STATIC SYMDEF;
       23      239    1   DCL OCS_NAMES UBIN WORD STATIC SYMDEF;
       24      240    1   DCL OCS_ATTR BIT(36) STATIC SYMDEF ALIGNED;
       25      241    1   DCL OCS_VECT UBIN(36) STATIC SYMDEF ALIGNED;
       26      242    1   DCL OCS_ERRCODE UBIN WORD STATIC SYMDEF ALIGNED;
       27      243    1   DCL OCS_UNWIND BIT(72) STATIC SYMDEF DALIGNED;
       28      244    1   DCL OCS_CINDEX UBIN WORD STATIC SYMDEF ALIGNED;
       29      245    1   DCL OCS_VECTOR UBIN WORD STATIC SYMDEF ALIGNED;
       30      246    1   DCL OCS_ERROR_ADDR REMEMBER STATIC SYMDEF DALIGNED;
       31      247    1   DCL OCS_FIRST_TIME BIT(1) STATIC SYMDEF ALIGNED INIT('1'B);
       32      248    1   DCL OCS_LEVEL_MARK UBIN WORD ALIGNED STATIC SYMDEF INIT(0);
       33      249    1   DCL OCS_DFW_LEVEL BIT(1) ALIGNED STATIC SYMDEF INIT('0'B);
       34      250                                                /**/
       35      251    1   DCL 1 OCS_ERRMSGC STATIC SYMDEF,
       36      252    1            2 * UBIN BYTE UNAL INIT(1),
       37      253    1            2 * UBIN BYTE UNAL INIT(1),
PL6.E3A0      #001=OCS_DATA_D File=OCS_DATA_D.:E05TSI                            WED 07/30/97 04:07 Page:2
       38      254    1            2 * UBIN BYTE UNAL INIT(1),
       39      255    1            2 SIZE_TEXT UBIN BYTE UNAL INIT(0);
       40      256                                                /**/
       41      257    1   DCL 1 OCS_ERRMSGB STATIC SYMDEF,
       42      258    1            2 TYPE UBIN BYTE UNAL,
       43      259    1            2 SYNERR_AT UBIN BYTE UNAL,
       44      260    1            2 MSG_SELECT UBIN BYTE UNAL,
       45      261    1            2 TEXT_STRING CHAR(80) UNAL;
       46      262                                                /**/
       47      263                                                /**/
       48      264        /* !! */ /* MUNGER COMMANDS */
       49      265        %INCLUDE OC_SUBS_C;
       50      996        %INCLUDE OCI_SUBS_C;
       51     1094        /* !R! */                               /* MUNGER COMMANDS */
       52     1095                                                /**/
       53     1096                                           /* Create in-core table of parseable
       54     1097                                                item recognizers */
       55     1098    1   DCL 1 OCS_LEXEMES (0:49 /* MAX_LEXEMES# */) STATIC SYMDEF,
       56     1099    1            2 BYTES UBIN BYTE UNAL INIT (
       57     1100    1              1,                           /* XTXT1# */
       58     1101    1              2,                           /* XTXT2# */
       59     1102    1              3,                           /* XTXT3# */
       60     1103    1              4,                           /* XTXT4# */
       61     1104    1              6,                           /* XTXT6# */
       62     1105    1              8,                           /* XTXT8# */
       63     1106    1              12,                          /* XTXT12# */
       64     1107    1              99,                          /* XTXTC# */
       65     1108    1              1,                           /* XDEC1# */
       66     1109    1              2,                           /* XDEC2# */
       67     1110    1              3,                           /* XDEC3# */
       68     1111    1              4,                           /* XDEC4# */
       69     1112    1              1,                           /* XDECS1# */
       70     1113    1              2,                           /* XDECS2# */
       71     1114    1              3,                           /* XDECS3# */
       72     1115    1              4,                           /* XDECS4# */
       73     1116    1              1,                           /* XOCT1# */
       74     1117    1              2,                           /* XOCT2# */
PL6.E3A0      #001=OCS_DATA_D File=OCS_DATA_D.:E05TSI                            WED 07/30/97 04:07 Page:3
       75     1118    1              3,                           /* XOCT3# */
       76     1119    1              4,                           /* XOCT4# */
       77     1120    1              1,                           /* XHEX1# */
       78     1121    1              2,                           /* XHEX2# */
       79     1122    1              3,                           /* XHEX3# */
       80     1123    1              4,                           /* XHEX4# */
       81     1124    1              1,                           /* XBLK1# */
       82     1125    1              2,                           /* XBLK2# */
       83     1126    1              3,                           /* XBLK3# */
       84     1127    1              4,                           /* XBLK4# */
       85     1128    1              6,                           /* XBLK6# */
       86     1129    1              8,                           /* XBLK8# */
       87     1130    1              12,                          /* XBLK12# */
       88     1131    1              1,                           /* XNUL1# */
       89     1132    1              2,                           /* XNUL2# */
       90     1133    1              3,                           /* XNUL3# */
       91     1134    1              4,                           /* XNUL4# */
       92     1135    1              8,                           /* XWSN# */
       93     1136    1              8,                           /* XDEV# */
       94     1137    1              1,                           /* XPRIO# */
       95     1138    1              8,                           /* XTERM# */
       96     1139    1             4,                            /* XCATTR# */
       97     1140    1              8,                           /* XCWSN# */
       98     1141    1              8,                           /* XNAME# */
       99     1142    1              16,                          /* XBWSN# */
      100     1143    1              16,                          /* XBWSN# */
      101     1144    1              8,                           /* XSTA# */
      102     1145    1              1,                           /* XNATL# */
      103     1146    1              1,                           /* XNOT# */
      104     1147    1              56,                          /* XCGFID# */
      105     1148    1              8,                           /* XLPWSN# */
      106     1149    1              8                            /* XGNDEV# */),
      107     1150    1            2 CVSN UBIN BYTE UNAL INIT (
      108     1151    1              1 /* TTXT# */,
      109     1152    1              1 /* TTXT# */,
      110     1153    1              1 /* TTXT# */,
      111     1154    1              1 /* TTXT# */,
PL6.E3A0      #001=OCS_DATA_D File=OCS_DATA_D.:E05TSI                            WED 07/30/97 04:07 Page:4
      112     1155    1              1 /* TTXT# */,
      113     1156    1              1 /* TTXT# */,
      114     1157    1              1 /* TTXT# */,
      115     1158    1              2 /* TTXTC# */,
      116     1159    1              3 /* TDEC# */,
      117     1160    1              3 /* TDEC# */,
      118     1161    1              3 /* TDEC# */,
      119     1162    1              3 /* TDEC# */,
      120     1163    1              4 /* TDECS# */,
      121     1164    1              4 /* TDECS# */,
      122     1165    1              4 /* TDECS# */,
      123     1166    1              4 /* TDECS# */,
      124     1167    1              5 /* TOCT# */,
      125     1168    1              5 /* TOCT# */,
      126     1169    1              5 /* TOCT# */,
      127     1170    1              5 /* TOCT# */,
      128     1171    1              6 /* THEX# */,
      129     1172    1              6 /* THEX# */,
      130     1173    1              6 /* THEX# */,
      131     1174    1              6 /* THEX# */,
      132     1175    1              7 /* TBLK# */,
      133     1176    1              7 /* TBLK# */,
      134     1177    1              7 /* TBLK# */,
      135     1178    1              7 /* TBLK# */,
      136     1179    1              7 /* TBLK# */,
      137     1180    1              7 /* TBLK# */,
      138     1181    1              7 /* TBLK# */,
      139     1182    1              9 /* TNUL# */,
      140     1183    1              9 /* TNUL# */,
      141     1184    1              9 /* TNUL# */,
      142     1185    1              9 /* TNUL# */,
      143     1186    1              10 /* TXWSN# */,
      144     1187    1              11 /* TXDEV# */,
      145     1188    1              12 /* TXPRIO# */,
      146     1189    1              13 /* TXTERM# */,
      147     1190    1              14 /* TXCATTR# */,
      148     1191    1              15 /* TXCWSN# */,
PL6.E3A0      #001=OCS_DATA_D File=OCS_DATA_D.:E05TSI                            WED 07/30/97 04:07 Page:5
      149     1192    1              16 /* TXNAME# */,
      150     1193    1              17 /* TXBWSN# */,
      151     1194    1             18 /* TXBTWSN# */,
      152     1195    1             19 /* TXSTA# */,
      153     1196    1             20 /* TXNATL# */,
      154     1197    1              21 /* TXNOT# */,
      155     1198    1              22 /* TXCGFID# */,
      156     1199    1              23 /* TXLPWSN# */,
      157     1200    1              24 /* TXGNDEV# */),
      158     1201    1            2 CODE UBIN HALF UNAL INIT (
      159     1202    1              901 /* XTXT1# */,
      160     1203    1              902 /* XTXT2# */,
      161     1204    1              903 /* XTXT3# */,
      162     1205    1              904 /* XTXT4# */,
      163     1206    1              905 /* XTXT6# */,
      164     1207    1              906 /* XTXT8# */,
      165     1208    1              907 /* XTXT12# */,
      166     1209    1              908 /* XTXTC# */,
      167     1210    1              909 /* XDEC9# */,
      168     1211    1              910 /* XDEC18# */,
      169     1212    1              911 /* XDEC27# */,
      170     1213    1              912 /* XDEC36# */,
      171     1214    1              914 /* XDECS9# */,
      172     1215    1              915 /* XDECS18# */,
      173     1216    1              916 /* XDECS27# */,
      174     1217    1              917 /* XDECS36# */,
      175     1218    1              919 /* XOCT9# */,
      176     1219    1              920 /* XOCT18# */,
      177     1220    1              921 /* XOCT27# */,
      178     1221    1              922 /* XOCT36# */,
      179     1222    1              924 /* XHEX9# */,
      180     1223    1              925 /* XHEX18# */,
      181     1224    1              926 /* XHEX27# */,
      182     1225    1              927 /* XHEX36# */,
      183     1226    1              940 /* XBLK1# */,
      184     1227    1              941 /* XBLK2# */,
      185     1228    1              942 /* XBLK3# */,
PL6.E3A0      #001=OCS_DATA_D File=OCS_DATA_D.:E05TSI                            WED 07/30/97 04:07 Page:6
      186     1229    1              943 /* XBLK4# */,
      187     1230    1              944 /* XBLK6# */,
      188     1231    1              945 /* XBLK8# */,
      189     1232    1              946 /* XBLK12# */,
      190     1233    1              947 /* XNUL9# */,
      191     1234    1              948 /* XNUL18# */,
      192     1235    1              949 /* XNUL27# */,
      193     1236    1              950 /* XNUL36# */,
      194     1237    1              960 /* XWSN# */,
      195     1238    1              961 /* XDEV# */,
      196     1239    1              962 /* XPRIO# */,
      197     1240    1              963 /* XTERM# */,
      198     1241    1              964 /* XCATTR# */,
      199     1242    1              965 /* XCWSN# */,
      200     1243    1              966 /* XNAME# */,
      201     1244    1              967 /* XBWSN# */,
      202     1245    1             968 /* XBTWSN# */,
      203     1246    1             969 /* XSTA# */,
      204     1247    1             970 /* XNATL# */,
      205     1248    1             971 /* XNOT# */,                        /* XNOT# */
      206     1249    1              972 /* XCGFID# */,
      207     1250    1              973 /* XLPWSN# */,
      208     1251    1              974 /* XGNDEV# */),
      209     1252    1            2 MIN UBIN WORD INIT (
      210     1253    1              0,                           /* XTXT1# */
      211     1254    1              0,                           /* XTXT2# */
      212     1255    1              0,                           /* XTXT3# */
      213     1256    1              0,                           /* XTXT4# */
      214     1257    1              0,                           /* XTXT6# */
      215     1258    1              0,                           /* XTXT8# */
      216     1259    1              0,                           /* XTXT12# */
      217     1260    1              0,                           /* XTXTC# */
      218     1261    1              0,                           /* XDEC9# */
      219     1262    1              0,                           /* XDEC18# */
      220     1263    1              0,                           /* XDEC27# */
      221     1264    1              0,                           /* XDEC36# */
      222     1265    1              BITBIN('777777777400'O),     /* XDECS9# */
PL6.E3A0      #001=OCS_DATA_D File=OCS_DATA_D.:E05TSI                            WED 07/30/97 04:07 Page:7
      223     1266    1              BITBIN('777777400000'O),     /* XDECS18# */
      224     1267    1              BITBIN('777400000000'O),     /* XDECS27# */
      225     1268    1              BITBIN('400000000000'O),     /* XDECS36# */
      226     1269    1              0,                           /* XOCT9# */
      227     1270    1              0,                           /* XOCT18# */
      228     1271    1              0,                           /* XOCT27# */
      229     1272    1              0,                           /* XOCT36# */
      230     1273    1              0,                           /* XHEX9# */
      231     1274    1              0,                           /* XHEX18# */
      232     1275    1              0,                           /* XHEX27# */
      233     1276    1              0,                           /* XHEX36# */
      234     1277    1              0,                           /* XBLK1# */
      235     1278    1              0,                           /* XBLK2# */
      236     1279    1              0,                           /* XBLK3# */
      237     1280    1              0,                           /* XBLK4# */
      238     1281    1              0,                           /* XBLK6# */
      239     1282    1              0,                           /* XBLK8# */
      240     1283    1              0,                           /* XBLK12# */
      241     1284    1              0,                           /* XNUL9# */
      242     1285    1              0,                           /* XNUL18# */
      243     1286    1              0,                           /* XNUL27# */
      244     1287    1              0,                           /* XNUL36# */
      245     1288    1              0,                           /* XWSN# */
      246     1289    1              0,                           /* XDEV# */
      247     1290    1              0,                           /* XPRIO# */
      248     1291    1              0,                           /* XTERM# */
      249     1292    1              0,                           /* XCATTR# */
      250     1293    1              0,                           /* XCWSN# */
      251     1294    1              0,                           /* XNAME# */
      252     1295    1              0,                           /* XBWSN# */
      253     1296    1             0,                            /* XBTWSN# */
      254     1297    1             0,                            /* XSTA# */
      255     1298    1             0,                            /* XNATL# */
      256     1299    1              0,                           /* XNOT# */
      257     1300    1              0,                           /* XCGFID# */
      258     1301    1              0,                           /* XLPWSN# */
      259     1302    1              0                            /* XGNDEV# */),
PL6.E3A0      #001=OCS_DATA_D File=OCS_DATA_D.:E05TSI                            WED 07/30/97 04:07 Page:8
      260     1303    1            2 MINS REDEF MIN SBIN WORD,
      261     1304    1            2 MAX UBIN WORD INIT (
      262     1305    1              0,                           /* XTXT1# */
      263     1306    1              0,                           /* XTXT2# */
      264     1307    1              0,                           /* XTXT3# */
      265     1308    1              0,                           /* XTXT4# */
      266     1309    1              0,                           /* XTXT6# */
      267     1310    1              0,                           /* XTXT8# */
      268     1311    1              0,                           /* XTXT12# */
      269     1312    1              0,                           /* XTXTC# */
      270     1313    1              BITBIN('000000000777'O),     /* XDEC9# */
      271     1314    1              BITBIN('000000777777'O),     /* XDEC18# */
      272     1315    1              BITBIN('000777777777'O),     /* XDEC27# */
      273     1316    1              BITBIN('777777777777'O),     /* XDEC36# */
      274     1317    1              BITBIN('000000000377'O),     /* XDECS9# */
      275     1318    1              BITBIN('000000377777'O),     /* XDECS18# */
      276     1319    1              BITBIN('000377777777'O),     /* XDECS27# */
      277     1320    1              BITBIN('377777777777'O),     /* XDECS36# */
      278     1321    1              BITBIN('000000000777'O),     /* XOCT9# */
      279     1322    1              BITBIN('000000777777'O),     /* XOCT18# */
      280     1323    1              BITBIN('000777777777'O),     /* XOCT27# */
      281     1324    1              BITBIN('777777777777'O),     /* XOCT36 */
      282     1325    1              BITBIN('000000000777'O),     /* XHEX9# */
      283     1326    1              BITBIN('000000777777'O),     /* XHEX18# */
      284     1327    1              BITBIN('000777777777'O),     /* XHEX27# */
      285     1328    1              BITBIN('777777777777'O),     /* XHEX36# */
      286     1329    1              0,                           /* XBLK1# */
      287     1330    1              0,                           /* XBLK2# */
      288     1331    1              0,                           /* XBLK3# */
      289     1332    1              0,                           /* XBLK4# */
      290     1333    1              0,                           /* XBLK6# */
      291     1334    1              0,                           /* XBLK8# */
      292     1335    1              0,                           /* XBLK12# */
      293     1336    1              0,                           /* XNUL9# */
      294     1337    1              0,                           /* XNUL18# */
      295     1338    1              0,                           /* XNUL27# */
      296     1339    1              0,                           /* XNUL36# */
PL6.E3A0      #001=OCS_DATA_D File=OCS_DATA_D.:E05TSI                            WED 07/30/97 04:07 Page:9
      297     1340    1              0,                           /* XWSN# */
      298     1341    1              0,                           /* XDEV# */
      299     1342    1              0,                           /* XPRIO# */
      300     1343    1              0,                           /* XTERM# */
      301     1344    1              0,                           /* XCATTR# */
      302     1345    1              0,                           /* XCWSN# */
      303     1346    1              0,                           /* XNAME# */
      304     1347    1              0,                           /* XBWSN# */
      305     1348    1             0,                            /* XBTWSN# */
      306     1349    1             0,                            /* XSTA# */
      307     1350    1             0,                            /* XNATL# */
      308     1351    1              0,                           /* XNOT# */
      309     1352    1              0,                           /* XCGFID# */
      310     1353    1              0,                           /* XLPWSN# */
      311     1354    1              0                            /* XGNDEV# */),
      312     1355    1            2 MAXS REDEF MAX SBIN WORD,
      313     1356    1            2 OFFSET UBIN BYTE UNAL INIT (
      314     1357    1              0 /* T1_BYTE# */,
      315     1358    1              1 /* T2_BYTE# */,
      316     1359    1              2 /* T3_BYTE# */,
      317     1360    1              3 /* T4_BYTE# */,
      318     1361    1              4 /* T6_BYTE# */,
      319     1362    1              5 /* T8_BYTE# */,
      320     1363    1              6 /* T12_BYTE# */,
      321     1364    1              0 /* TN_BYTE# */,
      322     1365    1              0 /* D1_BYTE# */,
      323     1366    1              1 /* D2_BYTE# */,
      324     1367    1              2 /* D3_BYTE# */,
      325     1368    1              3 /* D4_BYTE# */,
      326     1369    1              0 /* DS1_BYTE# */,
      327     1370    1              1 /* DS2_BYTE# */,
      328     1371    1              2 /* DS3_BYTE# */,
      329     1372    1              3 /* DS4_BYTE# */,
      330     1373    1              0 /* O1_BYTE# */,
      331     1374    1              1 /* O2_BYTE# */,
      332     1375    1              2 /* O3_BYTE# */,
      333     1376    1              3 /* O4_BYTE# */,
PL6.E3A0      #001=OCS_DATA_D File=OCS_DATA_D.:E05TSI                            WED 07/30/97 04:07 Page:10
      334     1377    1              0 /* H1_BYTE# */,
      335     1378    1              1 /* H2_BYTE# */,
      336     1379    1              2 /* H3_BYTE# */,
      337     1380    1              3 /* H4_BYTE# */,
      338     1381    1              0 /* B1_BYTE# */,
      339     1382    1              1 /* B2_BYTE# */,
      340     1383    1              2 /* B3_BYTE# */,
      341     1384    1              3 /* B4_BYTE# */,
      342     1385    1              4 /* B6_BYTE# */,
      343     1386    1              5 /* B8_BYTE# */,
      344     1387    1              6 /* B12_BYTE# */,
      345     1388    1              0 /* N1_BYTE# */,
      346     1389    1              1 /* N2_BYTE# */,
      347     1390    1              2 /* N3_BYTE# */,
      348     1391    1              3 /* N4_BYTE# */,
      349     1392    1              0,
      350     1393    1              0,                           /* XDEV# */
      351     1394    1              0,                           /* XPRIO# */
      352     1395    1              0,                           /* XTERM# */
      353     1396    1              0,                           /* XCATTR# */
      354     1397    1              0,                           /* XCWSN# */
      355     1398    1              0,                           /* XNAME# */
      356     1399    1              0,                           /* XBWSN# */
      357     1400    1             0,                            /* XBTWSN# */
      358     1401    1             0,                            /* XSTA# */
      359     1402    1             0,                            /* XNATL# */
      360     1403    1              0,                           /* XNOT# */
      361     1404    1              0,                           /* XCGFID# */
      362     1405    1              0,                           /* XLPWSN# */
      363     1406    1              0                            /* XGNDEV# */),
      364     1407    1            2 INITIAL CHAR(1) UNAL INIT (
      365     1408    1              ' ',                         /* XTXT1 */
      366     1409    1              ' ',                         /* XTXT2 */
      367     1410    1              ' ',                         /* XTXT3 */
      368     1411    1              ' ',                         /* XTXT4 */
      369     1412    1              ' ',                         /* XTXT6 */
      370     1413    1              ' ',                         /* XTXT8 */
PL6.E3A0      #001=OCS_DATA_D File=OCS_DATA_D.:E05TSI                            WED 07/30/97 04:07 Page:11
      371     1414    1              ' ',                         /* XTXT12 */
      372     1415    1              ' ',                         /* XTXTC */
      373     1416    1              '0',                         /* XDEC9 */
      374     1417    1              '0',                         /* XDEC18 */
      375     1418    1              '0',                         /* XDEC27 */
      376     1419    1              '0',                         /* XDEC36 */
      377     1420    1              '0',                         /* XDECS9 */
      378     1421    1              '0',                         /* XDECS18 */
      379     1422    1              '0',                         /* XDECS27 */
      380     1423    1              '0',                         /* XDECS36 */
      381     1424    1              '0',                         /* XOCT9 */
      382     1425    1              '0',                         /* XOCT18 */
      383     1426    1              '0',                         /* XOCT27 */
      384     1427    1              '0',                         /* XOCT36 */
      385     1428    1              '0',                         /* XHEX9 */
      386     1429    1              '0',                         /* XHEX18 */
      387     1430    1              '0',                         /* XHEX27 */
      388     1431    1              '0',                         /* XHEX36 */
      389     1432    1              ' ',                         /* XBLK1 */
      390     1433    1              ' ',                         /* XBLK2 */
      391     1434    1              ' ',                         /* XBLK3 */
      392     1435    1              ' ',                         /* XBLK4 */
      393     1436    1              ' ',                         /* XBLK6 */
      394     1437    1              ' ',                         /* XBLK8 */
      395     1438    1              ' ',                         /* XBLK12 */
      396     1439    1              '0',                         /* XNUL9 */
      397     1440    1              '0',                         /* XNUL18 */
      398     1441    1              '0',                         /* XNUL27 */
      399     1442    1              '0',                         /* XNUL36 */
      400     1443    1              ' ',                         /* XWSN */
      401     1444    1              ' ',                         /* XDEV */
      402     1445    1              '1',                         /* XPRIO */
      403     1446    1              ' ',                         /* XTERM */
      404     1447    1              '0',                         /* XCATTR# */
      405     1448    1              ' ',                         /* XCWSN# */
      406     1449    1              ' ',                         /* XNAME# */
      407     1450    1              ' ',                         /* XBWSN# */
PL6.E3A0      #001=OCS_DATA_D File=OCS_DATA_D.:E05TSI                            WED 07/30/97 04:07 Page:12
      408     1451    1             ' ',                          /* XBTWSN# */
      409     1452    1             ' ',                          /* XSTA# */
      410     1453    1             ' ',                          /* XNATL# */
      411     1454    1             '0',                          /* XNOT# */
      412     1455    1              ' ',                         /* XCGFID# */
      413     1456    1              ' ',                         /* XLPWSN# */
      414     1457    1              ' '                          /* XGNDEV# */);
      415     1458                                                /**/
      416     1459    1   DCL OCS_WORKSPACE (0:1023) STATIC SYMDEF UBIN WORD;
      417     1460                                                /**/
      418     1461                                                /**/
      419     1462    1   END OCS_DATA_D;

PL6.E3A0      #001=OCS_DATA_D File=OCS_DATA_D.:E05TSI                            WED 07/30/97 04:07 Page:13
--  Include file information  --

   OCI_SUBS_C.:E05TOU  is referenced.
   OC_SUBS_C.:E05TOU  is referenced.
   OCS_SUBS_C.:E05TOU  is referenced.
      No diagnostics issued in procedure OCS_DATA_D.

   No code generated for procedure OCS_DATA_D .
   Procedure OCS_DATA_D is declared NOAUTO and requires 1306 words of local(STATIC) storage.

    No errors detected in file OCS_DATA_D.:E05TSI    .

PL6.E3A0      #001=OCS_DATA_D File=OCS_DATA_D.:E05TSI                            WED 07/30/97 04:07 Page:14

 Object Unit name= OCS_DATA_D                                 File name= OCS_DATA_D.:E05TOU
 UTS= JUL 30 '97 04:07:21.84 WED                              Compiler= PL-6/E31         Sev=      00
 SharedLib= :SHARED_SYSTEM                                    Alt SharedLib=


    ****  Control sections  ****

 Sect   Type Bound  Init  Size OctSiz  Section name(segment info)
    0   Data  even  none  1306   2432  OCS_DATA_D
    1   Proc  even  none     0      0  OCS_DATA_D

    ****  Entry defs  ****

                              Check   Calling
                             calling  sequence
  Sect OctLoc Primary Altret sequence   type   Parms  Name
     1      0   yes            yes     ~proc       0  OCS_DATA_D

  ****  Data defs  ****

 Sect OctLoc  Name                           Sect OctLoc  Name
    0      1  OCS_STRUCTURE                      0     44  OCS_SSIZE
    0     45  OCS_KSIZE                          0     46  OCS_STA
    0     56  OCS_NAMES                          0     57  OCS_ATTR
    0     60  OCS_VECT                           0     61  OCS_ERRCODE
    0     62  OCS_UNWIND                         0     64  OCS_CINDEX
    0     65  OCS_VECTOR                         0     66  OCS_ERROR_ADDR
    0     70  OCS_FIRST_TIME                     0     71  OCS_LEVEL_MARK
    0     72  OCS_DFW_LEVEL                      0     73  OCS_ERRMSGC
    0     74  OCS_ERRMSGB                        0    121  OCS_LEXEMES
    0    431  OCS_WORKSPACE
PL6.E3A0      #001=OCS_DATA_D File=OCS_DATA_D.:E05TSI                            WED 07/30/97 04:07 Page:15

        1        1        /*M* OCS_DATA_D KEYINs syntax parsing global data */
        2        2        /*T***********************************************************/
        3        3        /*T*                                                         */
        4        4        /*T* Copyright (c) Bull HN Information Systems Inc., 1997    */
        5        5        /*T*                                                         */
        6        6        /*T***********************************************************/
        7        7        /*X* DMR,PLM=5,IND=5,CTI=5,SDI=5,MCL=10,CSI=0,ECI=0 */
        8        8                                                /**/
        9        9                                                /**/
       10       10        OCS_DATA_D: PROC NOAUTO;
       11       11        /* !! */                                /* Munger commands */
       12       12        %SET LISTSUB='1'B;
       13       13        %INCLUDE OCS_SUBS_C;
       14      230        /* !R! */                               /* Munger commands */
       15      231                                                /**/
       16      232                                                /**/
       17      233    1   DCL 1 OCS_STRUCTURE (0:139) STATIC SYMDEF,
       18      234    1            2 * BIT (9) UNAL;
       19      235    1   DCL OCS_STRUCTC REDEF OCS_STRUCTURE CHAR(140);
       20      236    1   DCL OCS_SSIZE UBIN WORD STATIC SYMDEF;
       21      237    1   DCL OCS_KSIZE UBIN WORD STATIC SYMDEF;
       22      238    1   DCL OCS_STA(0:3 /* MAX_NAMES# */) CHAR(8) STATIC SYMDEF;
       23      239    1   DCL OCS_NAMES UBIN WORD STATIC SYMDEF;
       24      240    1   DCL OCS_ATTR BIT(36) STATIC SYMDEF ALIGNED;
       25      241    1   DCL OCS_VECT UBIN(36) STATIC SYMDEF ALIGNED;
       26      242    1   DCL OCS_ERRCODE UBIN WORD STATIC SYMDEF ALIGNED;
       27      243    1   DCL OCS_UNWIND BIT(72) STATIC SYMDEF DALIGNED;
       28      244    1   DCL OCS_CINDEX UBIN WORD STATIC SYMDEF ALIGNED;
       29      245    1   DCL OCS_VECTOR UBIN WORD STATIC SYMDEF ALIGNED;
       30      246    1   DCL OCS_ERROR_ADDR REMEMBER STATIC SYMDEF DALIGNED;
       31      247    1   DCL OCS_FIRST_TIME BIT(1) STATIC SYMDEF ALIGNED INIT('1'B);
       32      248    1   DCL OCS_LEVEL_MARK UBIN WORD ALIGNED STATIC SYMDEF INIT(0);
       33      249    1   DCL OCS_DFW_LEVEL BIT(1) ALIGNED STATIC SYMDEF INIT('0'B);
       34      250                                                /**/
       35      251    1   DCL 1 OCS_ERRMSGC STATIC SYMDEF,
       36      252    1            2 * UBIN BYTE UNAL INIT(1),
       37      253    1            2 * UBIN BYTE UNAL INIT(1),
PL6.E3A0      #001=OCS_DATA_D File=OCS_DATA_D.:E05TSI                            WED 07/30/97 04:07 Page:16
       38      254    1            2 * UBIN BYTE UNAL INIT(1),
       39      255    1            2 SIZE_TEXT UBIN BYTE UNAL INIT(0);
       40      256                                                /**/
       41      257    1   DCL 1 OCS_ERRMSGB STATIC SYMDEF,
       42      258    1            2 TYPE UBIN BYTE UNAL,
       43      259    1            2 SYNERR_AT UBIN BYTE UNAL,
       44      260    1            2 MSG_SELECT UBIN BYTE UNAL,
       45      261    1            2 TEXT_STRING CHAR(80) UNAL;
       46      262                                                /**/
       47      263                                                /**/
       48      264        /* !! */ /* MUNGER COMMANDS */
       49      265        %INCLUDE OC_SUBS_C;
       50      996        %INCLUDE OCI_SUBS_C;
       51     1094        /* !R! */                               /* MUNGER COMMANDS */
       52     1095                                                /**/
       53     1096                                           /* Create in-core table of parseable
       54     1097                                                item recognizers */
       55     1098    1   DCL 1 OCS_LEXEMES (0:49 /* MAX_LEXEMES# */) STATIC SYMDEF,
       56     1099    1            2 BYTES UBIN BYTE UNAL INIT (
       57     1100    1              1,                           /* XTXT1# */
       58     1101    1              2,                           /* XTXT2# */
       59     1102    1              3,                           /* XTXT3# */
       60     1103    1              4,                           /* XTXT4# */
       61     1104    1              6,                           /* XTXT6# */
       62     1105    1              8,                           /* XTXT8# */
       63     1106    1              12,                          /* XTXT12# */
       64     1107    1              99,                          /* XTXTC# */
       65     1108    1              1,                           /* XDEC1# */
       66     1109    1              2,                           /* XDEC2# */
       67     1110    1              3,                           /* XDEC3# */
       68     1111    1              4,                           /* XDEC4# */
       69     1112    1              1,                           /* XDECS1# */
       70     1113    1              2,                           /* XDECS2# */
       71     1114    1              3,                           /* XDECS3# */
       72     1115    1              4,                           /* XDECS4# */
       73     1116    1              1,                           /* XOCT1# */
       74     1117    1              2,                           /* XOCT2# */
PL6.E3A0      #001=OCS_DATA_D File=OCS_DATA_D.:E05TSI                            WED 07/30/97 04:07 Page:17
       75     1118    1              3,                           /* XOCT3# */
       76     1119    1              4,                           /* XOCT4# */
       77     1120    1              1,                           /* XHEX1# */
       78     1121    1              2,                           /* XHEX2# */
       79     1122    1              3,                           /* XHEX3# */
       80     1123    1              4,                           /* XHEX4# */
       81     1124    1              1,                           /* XBLK1# */
       82     1125    1              2,                           /* XBLK2# */
       83     1126    1              3,                           /* XBLK3# */
       84     1127    1              4,                           /* XBLK4# */
       85     1128    1              6,                           /* XBLK6# */
       86     1129    1              8,                           /* XBLK8# */
       87     1130    1              12,                          /* XBLK12# */
       88     1131    1              1,                           /* XNUL1# */
       89     1132    1              2,                           /* XNUL2# */
       90     1133    1              3,                           /* XNUL3# */
       91     1134    1              4,                           /* XNUL4# */
       92     1135    1              8,                           /* XWSN# */
       93     1136    1              8,                           /* XDEV# */
       94     1137    1              1,                           /* XPRIO# */
       95     1138    1              8,                           /* XTERM# */
       96     1139    1             4,                            /* XCATTR# */
       97     1140    1              8,                           /* XCWSN# */
       98     1141    1              8,                           /* XNAME# */
       99     1142    1              16,                          /* XBWSN# */
      100     1143    1              16,                          /* XBWSN# */
      101     1144    1              8,                           /* XSTA# */
      102     1145    1              1,                           /* XNATL# */
      103     1146    1              1,                           /* XNOT# */
      104     1147    1              56,                          /* XCGFID# */
      105     1148    1              8,                           /* XLPWSN# */
      106     1149    1              8                            /* XGNDEV# */),
      107     1150    1            2 CVSN UBIN BYTE UNAL INIT (
      108     1151    1              1 /* TTXT# */,
      109     1152    1              1 /* TTXT# */,
      110     1153    1              1 /* TTXT# */,
      111     1154    1              1 /* TTXT# */,
PL6.E3A0      #001=OCS_DATA_D File=OCS_DATA_D.:E05TSI                            WED 07/30/97 04:07 Page:18
      112     1155    1              1 /* TTXT# */,
      113     1156    1              1 /* TTXT# */,
      114     1157    1              1 /* TTXT# */,
      115     1158    1              2 /* TTXTC# */,
      116     1159    1              3 /* TDEC# */,
      117     1160    1              3 /* TDEC# */,
      118     1161    1              3 /* TDEC# */,
      119     1162    1              3 /* TDEC# */,
      120     1163    1              4 /* TDECS# */,
      121     1164    1              4 /* TDECS# */,
      122     1165    1              4 /* TDECS# */,
      123     1166    1              4 /* TDECS# */,
      124     1167    1              5 /* TOCT# */,
      125     1168    1              5 /* TOCT# */,
      126     1169    1              5 /* TOCT# */,
      127     1170    1              5 /* TOCT# */,
      128     1171    1              6 /* THEX# */,
      129     1172    1              6 /* THEX# */,
      130     1173    1              6 /* THEX# */,
      131     1174    1              6 /* THEX# */,
      132     1175    1              7 /* TBLK# */,
      133     1176    1              7 /* TBLK# */,
      134     1177    1              7 /* TBLK# */,
      135     1178    1              7 /* TBLK# */,
      136     1179    1              7 /* TBLK# */,
      137     1180    1              7 /* TBLK# */,
      138     1181    1              7 /* TBLK# */,
      139     1182    1              9 /* TNUL# */,
      140     1183    1              9 /* TNUL# */,
      141     1184    1              9 /* TNUL# */,
      142     1185    1              9 /* TNUL# */,
      143     1186    1              10 /* TXWSN# */,
      144     1187    1              11 /* TXDEV# */,
      145     1188    1              12 /* TXPRIO# */,
      146     1189    1              13 /* TXTERM# */,
      147     1190    1              14 /* TXCATTR# */,
      148     1191    1              15 /* TXCWSN# */,
PL6.E3A0      #001=OCS_DATA_D File=OCS_DATA_D.:E05TSI                            WED 07/30/97 04:07 Page:19
      149     1192    1              16 /* TXNAME# */,
      150     1193    1              17 /* TXBWSN# */,
      151     1194    1             18 /* TXBTWSN# */,
      152     1195    1             19 /* TXSTA# */,
      153     1196    1             20 /* TXNATL# */,
      154     1197    1              21 /* TXNOT# */,
      155     1198    1              22 /* TXCGFID# */,
      156     1199    1              23 /* TXLPWSN# */,
      157     1200    1              24 /* TXGNDEV# */),
      158     1201    1            2 CODE UBIN HALF UNAL INIT (
      159     1202    1              901 /* XTXT1# */,
      160     1203    1              902 /* XTXT2# */,
      161     1204    1              903 /* XTXT3# */,
      162     1205    1              904 /* XTXT4# */,
      163     1206    1              905 /* XTXT6# */,
      164     1207    1              906 /* XTXT8# */,
      165     1208    1              907 /* XTXT12# */,
      166     1209    1              908 /* XTXTC# */,
      167     1210    1              909 /* XDEC9# */,
      168     1211    1              910 /* XDEC18# */,
      169     1212    1              911 /* XDEC27# */,
      170     1213    1              912 /* XDEC36# */,
      171     1214    1              914 /* XDECS9# */,
      172     1215    1              915 /* XDECS18# */,
      173     1216    1              916 /* XDECS27# */,
      174     1217    1              917 /* XDECS36# */,
      175     1218    1              919 /* XOCT9# */,
      176     1219    1              920 /* XOCT18# */,
      177     1220    1              921 /* XOCT27# */,
      178     1221    1              922 /* XOCT36# */,
      179     1222    1              924 /* XHEX9# */,
      180     1223    1              925 /* XHEX18# */,
      181     1224    1              926 /* XHEX27# */,
      182     1225    1              927 /* XHEX36# */,
      183     1226    1              940 /* XBLK1# */,
      184     1227    1              941 /* XBLK2# */,
      185     1228    1              942 /* XBLK3# */,
PL6.E3A0      #001=OCS_DATA_D File=OCS_DATA_D.:E05TSI                            WED 07/30/97 04:07 Page:20
      186     1229    1              943 /* XBLK4# */,
      187     1230    1              944 /* XBLK6# */,
      188     1231    1              945 /* XBLK8# */,
      189     1232    1              946 /* XBLK12# */,
      190     1233    1              947 /* XNUL9# */,
      191     1234    1              948 /* XNUL18# */,
      192     1235    1              949 /* XNUL27# */,
      193     1236    1              950 /* XNUL36# */,
      194     1237    1              960 /* XWSN# */,
      195     1238    1              961 /* XDEV# */,
      196     1239    1              962 /* XPRIO# */,
      197     1240    1              963 /* XTERM# */,
      198     1241    1              964 /* XCATTR# */,
      199     1242    1              965 /* XCWSN# */,
      200     1243    1              966 /* XNAME# */,
      201     1244    1              967 /* XBWSN# */,
      202     1245    1             968 /* XBTWSN# */,
      203     1246    1             969 /* XSTA# */,
      204     1247    1             970 /* XNATL# */,
      205     1248    1             971 /* XNOT# */,                        /* XNOT# */
      206     1249    1              972 /* XCGFID# */,
      207     1250    1              973 /* XLPWSN# */,
      208     1251    1              974 /* XGNDEV# */),
      209     1252    1            2 MIN UBIN WORD INIT (
      210     1253    1              0,                           /* XTXT1# */
      211     1254    1              0,                           /* XTXT2# */
      212     1255    1              0,                           /* XTXT3# */
      213     1256    1              0,                           /* XTXT4# */
      214     1257    1              0,                           /* XTXT6# */
      215     1258    1              0,                           /* XTXT8# */
      216     1259    1              0,                           /* XTXT12# */
      217     1260    1              0,                           /* XTXTC# */
      218     1261    1              0,                           /* XDEC9# */
      219     1262    1              0,                           /* XDEC18# */
      220     1263    1              0,                           /* XDEC27# */
      221     1264    1              0,                           /* XDEC36# */
      222     1265    1              BITBIN('777777777400'O),     /* XDECS9# */
PL6.E3A0      #001=OCS_DATA_D File=OCS_DATA_D.:E05TSI                            WED 07/30/97 04:07 Page:21
      223     1266    1              BITBIN('777777400000'O),     /* XDECS18# */
      224     1267    1              BITBIN('777400000000'O),     /* XDECS27# */
      225     1268    1              BITBIN('400000000000'O),     /* XDECS36# */
      226     1269    1              0,                           /* XOCT9# */
      227     1270    1              0,                           /* XOCT18# */
      228     1271    1              0,                           /* XOCT27# */
      229     1272    1              0,                           /* XOCT36# */
      230     1273    1              0,                           /* XHEX9# */
      231     1274    1              0,                           /* XHEX18# */
      232     1275    1              0,                           /* XHEX27# */
      233     1276    1              0,                           /* XHEX36# */
      234     1277    1              0,                           /* XBLK1# */
      235     1278    1              0,                           /* XBLK2# */
      236     1279    1              0,                           /* XBLK3# */
      237     1280    1              0,                           /* XBLK4# */
      238     1281    1              0,                           /* XBLK6# */
      239     1282    1              0,                           /* XBLK8# */
      240     1283    1              0,                           /* XBLK12# */
      241     1284    1              0,                           /* XNUL9# */
      242     1285    1              0,                           /* XNUL18# */
      243     1286    1              0,                           /* XNUL27# */
      244     1287    1              0,                           /* XNUL36# */
      245     1288    1              0,                           /* XWSN# */
      246     1289    1              0,                           /* XDEV# */
      247     1290    1              0,                           /* XPRIO# */
      248     1291    1              0,                           /* XTERM# */
      249     1292    1              0,                           /* XCATTR# */
      250     1293    1              0,                           /* XCWSN# */
      251     1294    1              0,                           /* XNAME# */
      252     1295    1              0,                           /* XBWSN# */
      253     1296    1             0,                            /* XBTWSN# */
      254     1297    1             0,                            /* XSTA# */
      255     1298    1             0,                            /* XNATL# */
      256     1299    1              0,                           /* XNOT# */
      257     1300    1              0,                           /* XCGFID# */
      258     1301    1              0,                           /* XLPWSN# */
      259     1302    1              0                            /* XGNDEV# */),
PL6.E3A0      #001=OCS_DATA_D File=OCS_DATA_D.:E05TSI                            WED 07/30/97 04:07 Page:22
      260     1303    1            2 MINS REDEF MIN SBIN WORD,
      261     1304    1            2 MAX UBIN WORD INIT (
      262     1305    1              0,                           /* XTXT1# */
      263     1306    1              0,                           /* XTXT2# */
      264     1307    1              0,                           /* XTXT3# */
      265     1308    1              0,                           /* XTXT4# */
      266     1309    1              0,                           /* XTXT6# */
      267     1310    1              0,                           /* XTXT8# */
      268     1311    1              0,                           /* XTXT12# */
      269     1312    1              0,                           /* XTXTC# */
      270     1313    1              BITBIN('000000000777'O),     /* XDEC9# */
      271     1314    1              BITBIN('000000777777'O),     /* XDEC18# */
      272     1315    1              BITBIN('000777777777'O),     /* XDEC27# */
      273     1316    1              BITBIN('777777777777'O),     /* XDEC36# */
      274     1317    1              BITBIN('000000000377'O),     /* XDECS9# */
      275     1318    1              BITBIN('000000377777'O),     /* XDECS18# */
      276     1319    1              BITBIN('000377777777'O),     /* XDECS27# */
      277     1320    1              BITBIN('377777777777'O),     /* XDECS36# */
      278     1321    1              BITBIN('000000000777'O),     /* XOCT9# */
      279     1322    1              BITBIN('000000777777'O),     /* XOCT18# */
      280     1323    1              BITBIN('000777777777'O),     /* XOCT27# */
      281     1324    1              BITBIN('777777777777'O),     /* XOCT36 */
      282     1325    1              BITBIN('000000000777'O),     /* XHEX9# */
      283     1326    1              BITBIN('000000777777'O),     /* XHEX18# */
      284     1327    1              BITBIN('000777777777'O),     /* XHEX27# */
      285     1328    1              BITBIN('777777777777'O),     /* XHEX36# */
      286     1329    1              0,                           /* XBLK1# */
      287     1330    1              0,                           /* XBLK2# */
      288     1331    1              0,                           /* XBLK3# */
      289     1332    1              0,                           /* XBLK4# */
      290     1333    1              0,                           /* XBLK6# */
      291     1334    1              0,                           /* XBLK8# */
      292     1335    1              0,                           /* XBLK12# */
      293     1336    1              0,                           /* XNUL9# */
      294     1337    1              0,                           /* XNUL18# */
      295     1338    1              0,                           /* XNUL27# */
      296     1339    1              0,                           /* XNUL36# */
PL6.E3A0      #001=OCS_DATA_D File=OCS_DATA_D.:E05TSI                            WED 07/30/97 04:07 Page:23
      297     1340    1              0,                           /* XWSN# */
      298     1341    1              0,                           /* XDEV# */
      299     1342    1              0,                           /* XPRIO# */
      300     1343    1              0,                           /* XTERM# */
      301     1344    1              0,                           /* XCATTR# */
      302     1345    1              0,                           /* XCWSN# */
      303     1346    1              0,                           /* XNAME# */
      304     1347    1              0,                           /* XBWSN# */
      305     1348    1             0,                            /* XBTWSN# */
      306     1349    1             0,                            /* XSTA# */
      307     1350    1             0,                            /* XNATL# */
      308     1351    1              0,                           /* XNOT# */
      309     1352    1              0,                           /* XCGFID# */
      310     1353    1              0,                           /* XLPWSN# */
      311     1354    1              0                            /* XGNDEV# */),
      312     1355    1            2 MAXS REDEF MAX SBIN WORD,
      313     1356    1            2 OFFSET UBIN BYTE UNAL INIT (
      314     1357    1              0 /* T1_BYTE# */,
      315     1358    1              1 /* T2_BYTE# */,
      316     1359    1              2 /* T3_BYTE# */,
      317     1360    1              3 /* T4_BYTE# */,
      318     1361    1              4 /* T6_BYTE# */,
      319     1362    1              5 /* T8_BYTE# */,
      320     1363    1              6 /* T12_BYTE# */,
      321     1364    1              0 /* TN_BYTE# */,
      322     1365    1              0 /* D1_BYTE# */,
      323     1366    1              1 /* D2_BYTE# */,
      324     1367    1              2 /* D3_BYTE# */,
      325     1368    1              3 /* D4_BYTE# */,
      326     1369    1              0 /* DS1_BYTE# */,
      327     1370    1              1 /* DS2_BYTE# */,
      328     1371    1              2 /* DS3_BYTE# */,
      329     1372    1              3 /* DS4_BYTE# */,
      330     1373    1              0 /* O1_BYTE# */,
      331     1374    1              1 /* O2_BYTE# */,
      332     1375    1              2 /* O3_BYTE# */,
      333     1376    1              3 /* O4_BYTE# */,
PL6.E3A0      #001=OCS_DATA_D File=OCS_DATA_D.:E05TSI                            WED 07/30/97 04:07 Page:24
      334     1377    1              0 /* H1_BYTE# */,
      335     1378    1              1 /* H2_BYTE# */,
      336     1379    1              2 /* H3_BYTE# */,
      337     1380    1              3 /* H4_BYTE# */,
      338     1381    1              0 /* B1_BYTE# */,
      339     1382    1              1 /* B2_BYTE# */,
      340     1383    1              2 /* B3_BYTE# */,
      341     1384    1              3 /* B4_BYTE# */,
      342     1385    1              4 /* B6_BYTE# */,
      343     1386    1              5 /* B8_BYTE# */,
      344     1387    1              6 /* B12_BYTE# */,
      345     1388    1              0 /* N1_BYTE# */,
      346     1389    1              1 /* N2_BYTE# */,
      347     1390    1              2 /* N3_BYTE# */,
      348     1391    1              3 /* N4_BYTE# */,
      349     1392    1              0,
      350     1393    1              0,                           /* XDEV# */
      351     1394    1              0,                           /* XPRIO# */
      352     1395    1              0,                           /* XTERM# */
      353     1396    1              0,                           /* XCATTR# */
      354     1397    1              0,                           /* XCWSN# */
      355     1398    1              0,                           /* XNAME# */
      356     1399    1              0,                           /* XBWSN# */
      357     1400    1             0,                            /* XBTWSN# */
      358     1401    1             0,                            /* XSTA# */
      359     1402    1             0,                            /* XNATL# */
      360     1403    1              0,                           /* XNOT# */
      361     1404    1              0,                           /* XCGFID# */
      362     1405    1              0,                           /* XLPWSN# */
      363     1406    1              0                            /* XGNDEV# */),
      364     1407    1            2 INITIAL CHAR(1) UNAL INIT (
      365     1408    1              ' ',                         /* XTXT1 */
      366     1409    1              ' ',                         /* XTXT2 */
      367     1410    1              ' ',                         /* XTXT3 */
      368     1411    1              ' ',                         /* XTXT4 */
      369     1412    1              ' ',                         /* XTXT6 */
      370     1413    1              ' ',                         /* XTXT8 */
PL6.E3A0      #001=OCS_DATA_D File=OCS_DATA_D.:E05TSI                            WED 07/30/97 04:07 Page:25
      371     1414    1              ' ',                         /* XTXT12 */
      372     1415    1              ' ',                         /* XTXTC */
      373     1416    1              '0',                         /* XDEC9 */
      374     1417    1              '0',                         /* XDEC18 */
      375     1418    1              '0',                         /* XDEC27 */
      376     1419    1              '0',                         /* XDEC36 */
      377     1420    1              '0',                         /* XDECS9 */
      378     1421    1              '0',                         /* XDECS18 */
      379     1422    1              '0',                         /* XDECS27 */
      380     1423    1              '0',                         /* XDECS36 */
      381     1424    1              '0',                         /* XOCT9 */
      382     1425    1              '0',                         /* XOCT18 */
      383     1426    1              '0',                         /* XOCT27 */
      384     1427    1              '0',                         /* XOCT36 */
      385     1428    1              '0',                         /* XHEX9 */
      386     1429    1              '0',                         /* XHEX18 */
      387     1430    1              '0',                         /* XHEX27 */
      388     1431    1              '0',                         /* XHEX36 */
      389     1432    1              ' ',                         /* XBLK1 */
      390     1433    1              ' ',                         /* XBLK2 */
      391     1434    1              ' ',                         /* XBLK3 */
      392     1435    1              ' ',                         /* XBLK4 */
      393     1436    1              ' ',                         /* XBLK6 */
      394     1437    1              ' ',                         /* XBLK8 */
      395     1438    1              ' ',                         /* XBLK12 */
      396     1439    1              '0',                         /* XNUL9 */
      397     1440    1              '0',                         /* XNUL18 */
      398     1441    1              '0',                         /* XNUL27 */
      399     1442    1              '0',                         /* XNUL36 */
      400     1443    1              ' ',                         /* XWSN */
      401     1444    1              ' ',                         /* XDEV */
      402     1445    1              '1',                         /* XPRIO */
      403     1446    1              ' ',                         /* XTERM */
      404     1447    1              '0',                         /* XCATTR# */
      405     1448    1              ' ',                         /* XCWSN# */
      406     1449    1              ' ',                         /* XNAME# */
      407     1450    1              ' ',                         /* XBWSN# */
PL6.E3A0      #001=OCS_DATA_D File=OCS_DATA_D.:E05TSI                            WED 07/30/97 04:07 Page:26
      408     1451    1             ' ',                          /* XBTWSN# */
      409     1452    1             ' ',                          /* XSTA# */
      410     1453    1             ' ',                          /* XNATL# */
      411     1454    1             '0',                          /* XNOT# */
      412     1455    1              ' ',                         /* XCGFID# */
      413     1456    1              ' ',                         /* XLPWSN# */
      414     1457    1              ' '                          /* XGNDEV# */);
      415     1458                                                /**/
      416     1459    1   DCL OCS_WORKSPACE (0:1023) STATIC SYMDEF UBIN WORD;
      417     1460                                                /**/
      418     1461                                                /**/
      419     1462    1   END OCS_DATA_D;

PL6.E3A0      #001=OCS_DATA_D File=OCS_DATA_D.:E05TSI                            WED 07/30/97 04:07 Page:27
--  Include file information  --

   OCI_SUBS_C.:E05TOU  is referenced.
   OC_SUBS_C.:E05TOU  is referenced.
   OCS_SUBS_C.:E05TOU  is referenced.
      No diagnostics issued in procedure OCS_DATA_D.
PL6.E3A0      #001=OCS_DATA_D File=OCS_DATA_D.:E05TSI                            WED 07/30/97 04:07 Page:28

 **** Variables and constants ****


   No code generated for procedure OCS_DATA_D .
   Procedure OCS_DATA_D is declared NOAUTO and requires 1306 words of local(STATIC) storage.

    No errors detected in file OCS_DATA_D.:E05TSI    .
PL6.E3A0      #001=OCS_DATA_D File=OCS_DATA_D.:E05TSI                            WED 07/30/97 04:07 Page:29
          *** CROSS REFERENCE LISTING ***
**     DENOTES     IDENTIFIER DEFINITION
<<                 IDENTIFIER'S VALUE SET
>>                 IDENTIFIER'S VALUE USED
<>                 IDENTIFIER SET AND/OR USED
--                 IDENTIFIER REFERENCED
PL6.E3A0      #001=OCS_DATA_D File=OCS_DATA_D.:E05TSI                            WED 07/30/97 04:07 Page:30
          MINI XREF LISTING

OCS_LEXEMES.MAX
      1304**DCL      1355--REDEF
OCS_LEXEMES.MIN
      1252**DCL      1303--REDEF
OCS_STRUCTURE
       233**DCL       235--REDEF
