VERSION E05

PL6.E3A0      #001=OCU_DATA_D File=OCU_DATA_D.:E05TSI                            WED 07/30/97 04:07 Page:1
        1        1        /*M* OCU_DATA_D - SYMDEF's for operator/user communications */
        2        2        /*T***********************************************************/
        3        3        /*T*                                                         */
        4        4        /*T* Copyright (c) Bull HN Information Systems Inc., 1997    */
        5        5        /*T*                                                         */
        6        6        /*T***********************************************************/
        7        7        OCU_DATA_D: PROC NOAUTO;
        8        8        /* !! munger command */
        9        9          %INCLUDE F_ERRORS_C;
       10      249        %INCLUDE OC_SUBS_C;
       11      980        /* munger command !R! */
       12      981    1   DCL OCU_FCN(0:3) UBIN(3) CONSTANT SYMDEF INIT(0, OC_WR, OC_RD, OC_KI) ALIGNED;
       13      982    1   DCL 1 OCU_ERR CONSTANT SYMDEF,
       14      983    1         2 FCG BIT(12) INIT('1703'O) UNAL, /* 'OC'                               */
       15      984    1         2 MID BIT(6) INIT('25'O) UNAL,    /* 'U'                                */
       16      985    1         2 M BIT(1) INIT('1'B) UNAL,
       17      986    1         2 CODE UBIN(14) INIT(%E$KEYIN) UNAL,
       18      987    1         2 * UBIN(3) INIT(7) UNAL;
       19      988    1   DCL 1 OCU_DCBNAME CONSTANT SYMDEF,
       20      989    1         2 * UBIN BYTE INIT(4) UNAL,
       21      990    1         2 * CHAR(4) INIT('M$OC') UNAL;
       22      991    1   DCL 1 OCU_COMGROUP CONSTANT SYMDEF,
       23      992    1         2 * UBIN BYTE INIT(4) UNAL,
       24      993    1         2 * CHAR(4) INIT('CSCG') UNAL;
       25      994    1   DCL OCU_CADDR (0:15) BIT(18) UNAL CONSTANT SYMDEF INIT(M_ADMIN,M_SYS,
       26      995    1                                                   M_DEVC,M_LIBRN,
       27      996    1                                                   M_COMM,M_TAPE,
       28      997    1                                                   M_DISK,M_UR,
       29      998    1                                                   M_ADCOM,
       30      999    1                                                   M_TP,
       31     1000    1                                                   M_SYS*6);
       32     1001    1   END OCU_DATA_D;

PL6.E3A0      #001=OCU_DATA_D File=OCU_DATA_D.:E05TSI                            WED 07/30/97 04:07 Page:2
--  Include file information  --

   OC_SUBS_C.:E05TOU  is referenced.
   F_ERRORS_C.:E05TOU  is referenced.
      No diagnostics issued in procedure OCU_DATA_D.

   No code generated for procedure OCU_DATA_D .
   Procedure OCU_DATA_D is declared NOAUTO and requires 2 words of local(STATIC) storage.

    No errors detected in file OCU_DATA_D.:E05TSI    .

PL6.E3A0      #001=OCU_DATA_D File=OCU_DATA_D.:E05TSI                            WED 07/30/97 04:07 Page:3

 Object Unit name= OCU_DATA_D                                 File name= OCU_DATA_D.:E05TOU
 UTS= JUL 30 '97 04:07:55.92 WED                              Compiler= PL-6/E31         Sev=      00
 SharedLib= :SHARED_SYSTEM                                    Alt SharedLib=


    ****  Control sections  ****

 Sect   Type Bound  Init  Size OctSiz  Section name(segment info)
    0   Data  even  none     2      2  OCU_DATA_D
    1  RoData even  UTS     17     21  OCU_DATA_D
    2   Proc  even  none     0      0  OCU_DATA_D

    ****  Entry defs  ****

                              Check   Calling
                             calling  sequence
  Sect OctLoc Primary Altret sequence   type   Parms  Name
     2      0   yes            yes     ~proc       0  OCU_DATA_D

  ****  Data defs  ****

 Sect OctLoc  Name                           Sect OctLoc  Name
    1      0  OCU_FCN                            1      4  OCU_ERR
    1      5  OCU_DCBNAME                        1      7  OCU_COMGROUP
    1     11  OCU_CADDR
PL6.E3A0      #001=OCU_DATA_D File=OCU_DATA_D.:E05TSI                            WED 07/30/97 04:07 Page:4


(unnamed)
 Sect OctLoc
   1     000   0***** ******   3***** ******   0***** ******   4***** ******    ................
   1     004   170325 413567   004115 044117   103*** ******   004103 123103    x....M$OC....CSC
   1     010   107*** ******   040000 200000   100000 010000   004000 100000    G... ...@.....@.
   1     014   100000 100000   044000 001000   200000 200000   200000 200000    @.@.$...........
   1     020   200000 200000                                                    ....
        1        1        /*M* OCU_DATA_D - SYMDEF's for operator/user communications */
        2        2        /*T***********************************************************/
        3        3        /*T*                                                         */
        4        4        /*T* Copyright (c) Bull HN Information Systems Inc., 1997    */
        5        5        /*T*                                                         */
        6        6        /*T***********************************************************/
        7        7        OCU_DATA_D: PROC NOAUTO;
        8        8        /* !! munger command */
        9        9          %INCLUDE F_ERRORS_C;
       10      249        %INCLUDE OC_SUBS_C;
       11      980        /* munger command !R! */
       12      981    1   DCL OCU_FCN(0:3) UBIN(3) CONSTANT SYMDEF INIT(0, OC_WR, OC_RD, OC_KI) ALIGNED;
       13      982    1   DCL 1 OCU_ERR CONSTANT SYMDEF,
       14      983    1         2 FCG BIT(12) INIT('1703'O) UNAL, /* 'OC'                               */
       15      984    1         2 MID BIT(6) INIT('25'O) UNAL,    /* 'U'                                */
       16      985    1         2 M BIT(1) INIT('1'B) UNAL,
       17      986    1         2 CODE UBIN(14) INIT(%E$KEYIN) UNAL,
       18      987    1         2 * UBIN(3) INIT(7) UNAL;
       19      988    1   DCL 1 OCU_DCBNAME CONSTANT SYMDEF,
       20      989    1         2 * UBIN BYTE INIT(4) UNAL,
       21      990    1         2 * CHAR(4) INIT('M$OC') UNAL;
       22      991    1   DCL 1 OCU_COMGROUP CONSTANT SYMDEF,
       23      992    1         2 * UBIN BYTE INIT(4) UNAL,
       24      993    1         2 * CHAR(4) INIT('CSCG') UNAL;
       25      994    1   DCL OCU_CADDR (0:15) BIT(18) UNAL CONSTANT SYMDEF INIT(M_ADMIN,M_SYS,
       26      995    1                                                   M_DEVC,M_LIBRN,
       27      996    1                                                   M_COMM,M_TAPE,
       28      997    1                                                   M_DISK,M_UR,
       29      998    1                                                   M_ADCOM,
PL6.E3A0      #001=OCU_DATA_D File=OCU_DATA_D.:E05TSI                            WED 07/30/97 04:07 Page:5
       30      999    1                                                   M_TP,
       31     1000    1                                                   M_SYS*6);
       32     1001    1   END OCU_DATA_D;

PL6.E3A0      #001=OCU_DATA_D File=OCU_DATA_D.:E05TSI                            WED 07/30/97 04:07 Page:6
--  Include file information  --

   OC_SUBS_C.:E05TOU  is referenced.
   F_ERRORS_C.:E05TOU  is referenced.
      No diagnostics issued in procedure OCU_DATA_D.
PL6.E3A0      #001=OCU_DATA_D File=OCU_DATA_D.:E05TSI                            WED 07/30/97 04:07 Page:7

 **** Variables and constants ****


   No code generated for procedure OCU_DATA_D .
   Procedure OCU_DATA_D is declared NOAUTO and requires 2 words of local(STATIC) storage.

    No errors detected in file OCU_DATA_D.:E05TSI    .
PL6.E3A0      #001=OCU_DATA_D File=OCU_DATA_D.:E05TSI                            WED 07/30/97 04:07 Page:8
          *** CROSS REFERENCE LISTING ***
**     DENOTES     IDENTIFIER DEFINITION
<<                 IDENTIFIER'S VALUE SET
>>                 IDENTIFIER'S VALUE USED
<>                 IDENTIFIER SET AND/OR USED
--                 IDENTIFIER REFERENCED
PL6.E3A0      #001=OCU_DATA_D File=OCU_DATA_D.:E05TSI                            WED 07/30/97 04:07 Page:9
          MINI XREF LISTING

