VERSION E05

PL6.E3A0      #001=OC_DATA_D File=OC_DATA_D.:E05TSI                              WED 07/30/97 04:09 Page:1
        1        1        /*M* OC_DATA_D system-wide symdefs for operator communications */
        2        2        /*T***********************************************************/
        3        3        /*T*                                                         */
        4        4        /*T* Copyright (c) Bull HN Information Systems Inc., 1997    */
        5        5        /*T*                                                         */
        6        6        /*T***********************************************************/
        7        7        OC_DATA_D: PROC;
        8        8    1   DCL B_SCDCTX UBIN WORD STATIC   SYMDEF  INIT(0);
        9        9    1   DCL B_ZIP SBIN WORD STATIC SYMDEF ALIGNED INIT(0);
       10       10    1   END OC_DATA_D;

PL6.E3A0      #001=OC_DATA_D File=OC_DATA_D.:E05TSI                              WED 07/30/97 04:09 Page:2
      No diagnostics issued in procedure OC_DATA_D.

   No code generated for procedure OC_DATA_D .
   Procedure OC_DATA_D requires 4 words of local(AUTO) storage.

    No errors detected in file OC_DATA_D.:E05TSI    .

PL6.E3A0      #001=OC_DATA_D File=OC_DATA_D.:E05TSI                              WED 07/30/97 04:09 Page:3

 Object Unit name= OC_DATA_D                                  File name= OC_DATA_D.:E05TOU
 UTS= JUL 30 '97 04:09:17.64 WED                              Compiler= PL-6/E31         Sev=      00
 SharedLib= :SHARED_SYSTEM                                    Alt SharedLib=


    ****  Control sections  ****

 Sect   Type Bound  Init  Size OctSiz  Section name(segment info)
    0   Data  even  none     2      2  OC_DATA_D
    1   Proc  even  none     0      0  OC_DATA_D

    ****  Entry defs  ****

                              Check   Calling
                             calling  sequence
  Sect OctLoc Primary Altret sequence   type   Parms  Name
     1      0   yes            yes     ~proc       0  OC_DATA_D

  ****  Data defs  ****

 Sect OctLoc  Name                           Sect OctLoc  Name
    0      0  B_SCDCTX                           0      1  B_ZIP
PL6.E3A0      #001=OC_DATA_D File=OC_DATA_D.:E05TSI                              WED 07/30/97 04:09 Page:4


(unnamed)
 Sect OctLoc
   0     000   000000 000000   000000 000000                                    ........
        1        1        /*M* OC_DATA_D system-wide symdefs for operator communications */
        2        2        /*T***********************************************************/
        3        3        /*T*                                                         */
        4        4        /*T* Copyright (c) Bull HN Information Systems Inc., 1997    */
        5        5        /*T*                                                         */
        6        6        /*T***********************************************************/
        7        7        OC_DATA_D: PROC;
        8        8    1   DCL B_SCDCTX UBIN WORD STATIC   SYMDEF  INIT(0);
        9        9    1   DCL B_ZIP SBIN WORD STATIC SYMDEF ALIGNED INIT(0);
       10       10    1   END OC_DATA_D;

PL6.E3A0      #001=OC_DATA_D File=OC_DATA_D.:E05TSI                              WED 07/30/97 04:09 Page:5
      No diagnostics issued in procedure OC_DATA_D.
PL6.E3A0      #001=OC_DATA_D File=OC_DATA_D.:E05TSI                              WED 07/30/97 04:09 Page:6

 **** Variables and constants ****


   No code generated for procedure OC_DATA_D .
   Procedure OC_DATA_D requires 4 words of local(AUTO) storage.

    No errors detected in file OC_DATA_D.:E05TSI    .
PL6.E3A0      #001=OC_DATA_D File=OC_DATA_D.:E05TSI                              WED 07/30/97 04:09 Page:7
          *** CROSS REFERENCE LISTING ***
**     DENOTES     IDENTIFIER DEFINITION
<<                 IDENTIFIER'S VALUE SET
>>                 IDENTIFIER'S VALUE USED
<>                 IDENTIFIER SET AND/OR USED
--                 IDENTIFIER REFERENCED
PL6.E3A0      #001=OC_DATA_D File=OC_DATA_D.:E05TSI                              WED 07/30/97 04:09 Page:8
          MINI XREF LISTING

