VERSION E05

PL6.E3A0      #001=OC_DAT_D File=OC_DAT_D.:E05TSI                                WED 07/30/97 04:09 Page:1
        1        1        /*M* OC_DAT_D SYMDEFS for data available to all KEYIN modules */
        2        2        /*T***********************************************************/
        3        3        /*T*                                                         */
        4        4        /*T* Copyright (c) Bull HN Information Systems Inc., 1997    */
        5        5        /*T*                                                         */
        6        6        /*T***********************************************************/
        7        7        /*X* DMR,PLM=5,IND=5,CTI=5,SDI=5,MCL=10,CSI=0,ECI=0 */
        8        8                                      /* !R! */ /* Munger commands */
        9        9        OC_DAT_D: PROC NOAUTO;
       10       10        %INCLUDE OC$MESSHD_C;
       11       31                                       /* !! */ /* munger stuff */
       12       32        %SET LISTSUB='1'B;
       13       33        %INCLUDE B_MACROS_C;
       14      144        %INCLUDE OCI_SUBS_C;
       15      242        %INCLUDE B_SEGIDS_C;
       16      781        %INCLUDE CP_6;
       17      862        /* munger stuff !R!
       18      863        DCL B$DS3$ PTR SYMREF;
       19      864             %OC$MESSHD (NAME=OC_INTMSG,
       20      865                                 STCLASS="SYMREF");
       21      866                  2 MESS CHAR(SIZEC_LEN#) UNAL,
       22      867                  2 LEN (0:MAX_LEN#) REDEF MESS UBIN BYTE UNAL; */
       23      868                                                /**/
       24      869                                  /**/ /* !! */ /* munger stuff */
       25      870             %OC$MESSHD (NAME=OC_INTMSG,
       26      871                                 STCLASS="STATIC SYMDEF");
       27      885    1        2 MESS CHAR(180 /* SIZEC_LEN# */) UNAL,
       28      886    1             2 LEN (0:179 /* MAX_LEN# */) REDEF MESS UBIN BYTE UNAL;
       29      887                                 /**/ /* !R! */ /* munger stuff */
       30      888    1   DCL OC_INTMSG_CHARS REDEF OC_INTMSG CHAR(200) UNAL;
       31      889                                                /**/
       32      890                                  /**/ /* !! */ /* munger stuff */
       33      891            %OC$MESSHD (NAME=OC_MESSBUF,
       34      892                                 STCLASS="STATIC SYMDEF");
       35      906                                                /**/
       36      907    1        2 MESS CHAR(180 /* SIZEC_LEN# */) UNAL,
       37      908    1             2 LEN (0:179 /* MAX_LEN# */) REDEF MESS UBIN BYTE UNAL;
PL6.E3A0      #001=OC_DAT_D File=OC_DAT_D.:E05TSI                                WED 07/30/97 04:09 Page:2
       38      909        /* munger stuff !R!
       39      910            %OC$MESSHD (NAME=OC_MESSBUF,
       40      911                                 STCLASS="SYMREF");
       41      912                  2 MESS CHAR(SIZEC_LEN#) UNAL,
       42      913                  2 LEN (0:MAX_LEN#) REDEF MESS UBIN BYTE UNAL;
       43      914                                                            */
       44      915                                 /**/ /* !R! */ /* munger stuff */
       45      916             %OC$MESSHD (NAME=OC_MESSBUF1,
       46      917                  STCLASS="REDEF OC_MESSBUF");
       47      931    1        2 LEN (0:4) UBIN BYTE UNAL,
       48      932    1             2 GRD REDEF LEN,
       49      933    1             3 * UBIN HALF UNAL,
       50      934    1             3 SZR UBIN HALF UNAL,
       51      935    1             3 * UBIN BYTE UNAL,
       52      936    1             2 READID UBIN HALF UNAL,
       53      937    1             2 SZR UBIN BYTE UNAL,
       54      938    1             2 ACCN CHAR(8) UNAL,
       55      939    1             2 UNAME CHAR(12) UNAL,
       56      940    1             2 MESS CHAR(152) UNAL;
       57      941                                                /**/
       58      942    1   DCL OC_MESSBUF2 REDEF OC_MESSBUF CHAR(200) UNAL;
       59      943                                                /**/
       60      944                                                /**/
       61      945                                       /* !! */ /* munger stuff */
       62      946             %OC$MESSHD (NAME=OC_MSGBUFFER,
       63      947                            STCLASS="STATIC SYMDEF");
       64      961    1        2 MESS CHAR(180 /* SIZEC_LEN# */) UNAL,
       65      962    1             2 LEN (0:179 /* MAX_LEN# */) REDEF MESS UBIN BYTE UNAL;
       66      963                                                /**/
       67      964        /* munger stuff !R!
       68      965             %OC$MESSHD (NAME=OC_MSGBUFFER,
       69      966                            STCLASS="SYMREF");
       70      967                  2 MESS CHAR(SIZEC_LEN#) UNAL,
       71      968                  2 LEN (0:MAX_LEN#) REDEF MESS UBIN BYTE UNAL;           */
       72      969             %OC$MESSHD (NAME=OC_MSGBUFFER2,
       73      970                            STCLASS="REDEF OC_MSGBUFFER");
       74      984    1        2 SIZE UBIN BYTE CALIGNED,
PL6.E3A0      #001=OC_DAT_D File=OC_DAT_D.:E05TSI                                WED 07/30/97 04:09 Page:3
       75      985    1             2 MESS CHAR(179 /* MAX_LEN# */) CALIGNED;
       76      986                                                /**/
       77      987    1   DCL OC_#CONSOLES SBIN WORD STATIC SYMDEF INIT(1);
       78      988    1   DCL OC_KEYIN# UBIN WORD STATIC SYMDEF;
       79      989    1   DCL OC_QDEPTH SBIN WORD STATIC SYMDEF;
       80      990    1   DCL OC_QHEAD UBIN WORD STATIC SYMDEF;
       81      991    1   DCL OC_QPOSN UBIN WORD STATIC SYMDEF;
       82      992    1   DCL OC_REMAIN UBIN WORD STATIC SYMDEF;
       83      993    1   DCL OC_CID UBIN HALF STATIC SYMDEF INIT(0); /* next console identifier        */
       84      994                                                /**/
       85      995                                                /**/
       86      996    1   DCL OC_NEXT_MIN UBIN WORD STATIC SYMDEF ALIGNED INIT(0);
       87      997    1   DCL OC_NEXT_PEND UBIN WORD STATIC SYMDEF ALIGNED INIT(0);
       88      998                                                /**/
       89      999    1   DCL OC_NEXT_MINX UBIN WORD STATIC SYMDEF ALIGNED INIT(2 /* MAX_PER_MIN# */);
       90     1000    1   DCL OC_NEXT_PENDX UBIN WORD STATIC SYMDEF ALIGNED INIT(15 /* MAX_PER_PEND# */);
       91     1001                                                /**/
       92     1002                                                /**/
       93     1003    1   DCL OC_KEYINBUF CHAR(256) STATIC SYMDEF INIT(' ');
       94     1004    1   DCL 1 OC_QUEUE (0:199 /* MAX_EVNT# */) STATIC SYMDEF,
       95     1005    1            2 SUBC UBIN WORD,
       96     1006    1            2 EVID UBIN WORD,
       97     1007    1            2 ERR,
       98     1008    1                 3 FCG BIT(12) UNAL,
       99     1009    1                 3 MID BIT(6) UNAL,
      100     1010    1                 3 MON BIT(1) UNAL,
      101     1011    1                 3 CODE UBIN(14) UNAL,
      102     1012    1                 3 SEV UBIN(3) UNAL,
      103     1013    1            2 PARMC CHAR(48),
      104     1014    1            2 PARMS REDEF PARMC,
      105     1015    1                 3 * CHAR(48);
      106     1016    1   DCL 1 OC_PARAM STATIC SYMDEF,
      107     1017    1            2 BUF CHAR(140) UNAL;
      108     1018    1   DCL 1 OC_PARAM1 REDEF OC_PARAM,
      109     1019    1            2 KEYIN# UBIN HALF UNAL,
      110     1020    1            2 CID UBIN HALF UNAL,
      111     1021    1            2 READID UBIN HALF UNAL,
PL6.E3A0      #001=OC_DAT_D File=OC_DAT_D.:E05TSI                                WED 07/30/97 04:09 Page:4
      112     1022    1            2 COUNT UBIN BYTE UNAL,
      113     1023    1            2 REPLY CHAR(133) UNAL;
      114     1024    1   DCL OC_CONSOLE$ PTR STATIC SYMDEF;
      115     1025    1   DCL OC_MAXCONSOLE UBIN(18) STATIC SYMDEF INIT(0);
      116     1026    1   DCL 1 OC_CONSOLE (0:0) BASED(OC_CONSOLE$),
      117     1027    1            2 STATION CHAR(8) CALIGNED,
      118     1028    1            2 STATIONR REDEF STATION,
      119     1029    1                 3 FIRST_HALF CHAR(4) CALIGNED,
      120     1030    1                 3 SECND_HALF CHAR(4) CALIGNED,
      121     1031    1            2 TERM_NAME CHAR(8) CALIGNED,
      122     1032    1            2 WSN CHAR(8) CALIGNED,
      123     1033    1            2 LOGON CHAR(8) CALIGNED,
      124     1034    1            2 LP_WSN CHAR(8) CALIGNED,
      125     1035    1            2 CID UBIN HALF HALIGNED,
      126     1036    1            2 CID_O REDEF CID BIT(18) HALIGNED,
      127     1037    1            2 SYSID UBIN HALF HALIGNED,
      128     1038    1            2 ATTR BIT(18) HALIGNED,
      129     1039    1            2 ATTR_INPUT REDEF ATTR BIT(18) HALIGNED,
      130     1040    1            2 ATTR_INPUT_SAVE BIT(18) HALIGNED,
      131     1041    1            2 ATTRO BIT(18) HALIGNED,
      132     1042    1            2 ATTR_OUTPUT REDEF ATTRO BIT(18) HALIGNED,
      133     1043    1            2 ATTR_OUTPUT_SAVE BIT(18) HALIGNED,
      134     1044    1            2 I_DCBNUM UBIN(18) HALIGNED,
      135     1045    1            2 X_DCBNUM UBIN(18) HALIGNED,
      136     1046    1            2 NEXT UBIN(18) HALIGNED,
      137     1047    1            2 * CHAR(2) CALIGNED,
      138     1048    1            2 FLAGS,
      139     1049    1                 3 INPT BIT(1) UNAL,
      140     1050    1                 3 OUTP BIT(1) UNAL,
      141     1051    1                 3 * BIT(16) UNAL,
      142     1052    1            2 GHST BIT(1) UNAL,
      143     1053    1            2 GHSTRD BIT(1) UNAL,
      144     1054    1            2 SHIFT BIT(1) UNAL,
      145     1055    1            2 BKSP BIT(1) UNAL,
      146     1056    1            2 TRANSAC_LAST_MIN BIT(1) UNAL,
      147     1057    1            2 ACTIVE BIT(1) UNAL,
      148     1058    1            2 DONT_TIME BIT(1) UNAL,
PL6.E3A0      #001=OC_DAT_D File=OC_DAT_D.:E05TSI                                WED 07/30/97 04:09 Page:5
      149     1059    1            2 FIRST_READ BIT(1) UNAL,
      150     1060    1            2 * BIT(1) UNAL,
      151     1061    1            2 NATLANG CHAR(1) CALIGNED,
      152     1062    1            2 ACCT CHAR(8) CALIGNED,
      153     1063    1            2 PROMPTS CHAR(102) CALIGNED,
      154     1064    1            2 * UBIN BYTE CALIGNED,
      155     1065        %SET LISTMAC='1'B;
      156     1066             %VLR_HELP (FPTN=VLR_HELP,
      157     1067                  LVL=2,
      158     1068                  LAST=",",
      159     1069                  STCLASS=BASED);
              1070        %LSET LISTDIR='0'B;
              1083    1   2 VLR_HELP ALIGNED,
              1085    1   3 BADCALL BIT(1)/*('0'B)/**/,3 NOFILE BIT(1)/*('0'B)/**/,3 NOMSG BIT(1)/*
              1086    1   ('0'B)/**/,3 ALTMSG BIT(1)/*('0'B)/**/,3 MSGCOMP BIT(1)/*('0'B)/**/,
              1087    1   3 OUTERR1 BIT(1)/*('0'B)/**/,3 OUTERR2 BIT(1)/*('0'B)/**/,3 NNATIVE BIT(1)/*
              1088    1   ('0'B)/**/,3 BUFERR BIT(1)/*('0'B)/**/,3 INERR BIT(1)/*('0'B)/**/,
              1089    1   3 * BIT(17)/*('0'B)/**/,3 * BIT(27)/*('0'B)/**/,3 RECCNT UBIN(18)UNAL /*(0
              1090    1   )/**/,3 ERRCODE1 UNAL,4 FCG BIT(12)/*('0'B)/**/,4 MID BIT(6)/*('0'B)
              1091    1   /**/,4 MON BIT(1)/*('0'B)/**/,4 ERR# UBIN(14)UNAL /*(0)/**/,4 SEV UBIN(3)
              1092    1   UNAL /*(0)/**/,3 ERRCODE2 UNAL,4 FCG BIT(12)/*('0'B)/**/,4 MID BIT(6)/*
              1093    1   ('0'B)/**/,4 MON BIT(1)/*('0'B)/**/,4 ERR# UBIN(14)UNAL /*(0)/**/,
              1094    1   4 SEV UBIN(3)UNAL /*(0)/**/,3 CODEUSED UNAL,4 LEN UBIN(9)UNAL /*(0)/**/,
              1095    1   4 TEXT CHAR(34)/*(' ')/**/,3 * UBIN(9)UNAL /*(0)/**/,3 * BIT(36)/*('0'B
              1096    1   )/**/ ,
      160     1098        %SET LISTMAC='0'B;
      161     1099    1        2 PROFILE,
      162     1100    1             3 COUNT UBIN BYTE CALIGNED,
      163     1101    1             3 TXT CHAR(11) CALIGNED,
      164     1102    1             2 MXPRIO UBIN BYTE CALIGNED;  /* FILL TO WORD BOUNDARY */
      165     1103                                                /**/
      166     1104    1   DCL 1 PROMPT_TABLE (0:2) BASED,
      167     1105    1            2 LAST_READ BIT(1) UNAL,
      168     1106    1            2 COUNT_ UBIN(8) UNAL,
      169     1107    1            2 PROMPT CHAR(31) UNAL,
      170     1108    1            2 SIZER UBIN HALF UNAL;
      171     1109    1   DCL OC_KEYINBUF$ PTR STATIC SYMDEF INIT(ADDR (OC_KEYINBUF));
PL6.E3A0      #001=OC_DAT_D File=OC_DAT_D.:E05TSI                                WED 07/30/97 04:09 Page:6
      172     1110    1   DCL OC_PARAMBUF$ PTR CONSTANT SYMDEF INIT(ADDR (OC_PARAM.BUF));
      173     1111    1   DCL OC_PARAM$ PTR STATIC SYMDEF ALIGNED INIT(ADDR(OC_PARAM));
      174     1112    1   DCL M$OCCG$ PTR STATIC SYMDEF;
      175     1113    1   DCL M$CSCG$ PTR STATIC SYMDEF;
      176     1114    1   DCL OC_CADDR BIT(18) STATIC SYMDEF ALIGNED;
      177     1115    1   DCL OC_FIRST BIT(1) STATIC SYMDEF ALIGNED;
      178     1116                                                /**/
      179     1117    1   DCL OC_DIR BIT(18) ALIGNED STATIC SYMDEF INIT('400000'O);
      180     1118    1   DCL OC_DIRBIT REDEF OC_DIR UBIN HALF ALIGNED;
      181     1119                                                /**/
      182     1120    1   DCL OC_INTBIT BIT(18) ALIGNED STATIC SYMDEF INIT('200000'O);
      183     1121    1   DCL OC_INT REDEF OC_INTBIT UBIN HALF;
      184     1122                                                /**/
      185     1123    1   DCL OC_MASK STATIC SYMDEF BIT(18) UNAL INIT('377777'O);
      186     1124    1   DCL OC_MASK_U REDEF OC_MASK UBIN HALF UNAL;
      187     1125                                                /**/
      188     1126    1   DCL OC_MSG_GOOD BIT(1) ALIGNED STATIC SYMDEF INIT('0'B);
      189     1127    1   DCL OC_KEY_GOOD BIT(1) ALIGNED STATIC SYMDEF INIT('0'B);
      190     1128                                                /**/
      191     1129                                                /* ZAP flags */
      192     1130    1   DCL OC_ZIP BIT(1) ALIGNED STATIC SYMDEF INIT('0'B);
      193     1131    1   DCL OC_ZIPALL BIT(1) ALIGNED STATIC SYMDEF INIT('0'B);
      194     1132                                                /**/
      195     1133    1   DCL OC_NOACT BIT(1) ALIGNED STATIC SYMDEF INIT('0'B);
      196     1134                                                /**/
      197     1135                                                /**/
      198     1136                                                /**/
      199     1137    1   DCL OC_CSTA CHAR(8) STATIC SYMDEF;      /* CSCG COMP. STATION */
      200     1138    1   DCL OC_WSTA CHAR(8) STATIC SYMDEF;      /* WRDONE STATION */
      201     1139
      202     1140                                                /**/
      203     1141    1   DCL OC_LIST BIT(1) ALIGNED STATIC SYMDEF INIT('1'B);
      204     1142    1   DCL OC_TLIST BIT(1) ALIGNED STATIC SYMDEF INIT('0'B);
      205     1143    1   DCL OC_DEF_ACCT CHAR(8) STATIC SYMDEF INIT(':SYS    ');
      206     1144    1   DCL 1 OC_HIST_SAVE STATIC SYMDEF,
      207     1145    1            2 ACTIVE BIT(1) UNAL INIT ('0'B /*FALSE#*/),
      208     1146    1            2 HOUR UBIN(17) UNAL INIT (23 /* TURN_HOUR# */),
PL6.E3A0      #001=OC_DAT_D File=OC_DAT_D.:E05TSI                                WED 07/30/97 04:09 Page:7
      209     1147    1            2 MIN UBIN HALF UNAL INIT(59 /* TURN_MIN# */);
      210     1148    1   DCL 1 OC_ACCT_SAVE STATIC SYMDEF,
      211     1149    1            2 ACTIVE BIT(1) UNAL INIT('0'B /*FALSE#*/),
      212     1150    1            2 HOUR UBIN (17) UNAL INIT (23 /* TURN_HOUR# */),
      213     1151    1            2 MIN UBIN HALF UNAL INIT(59 /* TURN_MIN# */);
      214     1152    1   DCL OC_REPLAYS# SBIN WORD ALIGNED STATIC SYMDEF INIT(0);
      215     1153                                                /**/
      216     1154    1   DCL OC_PLATEN_WIDTH SBIN WORD ALIGNED STATIC SYMDEF INIT(132);
      217     1155                                                /**/
      218     1156    1   DCL OC_FIRST_CONSOLE BIT(1) ALIGNED STATIC SYMDEF INIT ('0'B);
      219     1157
      220     1158    1   END OC_DAT_D;

PL6.E3A0      #001=OC_DAT_D File=OC_DAT_D.:E05TSI                                WED 07/30/97 04:09 Page:8
--  Include file information  --

   CP_6.:E05TOU  cannot be made into a system file and is referenced.
   B_SEGIDS_C.:E05TOU  is referenced.
   OCI_SUBS_C.:E05TOU  is referenced.
   B_MACROS_C.:E05TOU  is referenced.
   OC$MESSHD_C.:E05TOU  is referenced.
   B$JIT_C.:E05TOU  was found in the system file and is never referenced.
   CP_6_C.:E05TOU  was found in the system file and is referenced.
      No diagnostics issued in procedure OC_DAT_D.

   No code generated for procedure OC_DAT_D .
   Procedure OC_DAT_D is declared NOAUTO and requires 3290 words of local(STATIC) storage.

    No errors detected in file OC_DAT_D.:E05TSI    .

PL6.E3A0      #001=OC_DAT_D File=OC_DAT_D.:E05TSI                                WED 07/30/97 04:09 Page:9

 Object Unit name= OC_DAT_D                                   File name= OC_DAT_D.:E05TOU
 UTS= JUL 30 '97 04:09:40.56 WED                              Compiler= PL-6/E31         Sev=      00
 SharedLib= :SHARED_SYSTEM                                    Alt SharedLib=


    ****  Control sections  ****

 Sect   Type Bound  Init  Size OctSiz  Section name(segment info)
    0   Data  even  none  3290   6332  OC_DAT_D
    1   DCB   even  none     0      0  M$UC
    2  RoData even  UTS      1      1  OC_DAT_D
    3   Proc  even  none     0      0  OC_DAT_D

    ****  Entry defs  ****

                              Check   Calling
                             calling  sequence
  Sect OctLoc Primary Altret sequence   type   Parms  Name
     3      0   yes            yes     ~proc       0  OC_DAT_D
PL6.E3A0      #001=OC_DAT_D File=OC_DAT_D.:E05TSI                                WED 07/30/97 04:09 Page:10

  ****  Data defs  ****

 Sect OctLoc  Name                           Sect OctLoc  Name
    0      1  OC_INTMSG                          0     63  OC_MESSBUF
    0    145  OC_MSGBUFFER                       0    227  OC_#CONSOLES
    0    230  OC_KEYIN#                          0    231  OC_QDEPTH
    0    232  OC_QHEAD                           0    233  OC_QPOSN
    0    234  OC_REMAIN                          0    235  OC_CID
    0    236  OC_NEXT_MIN                        0    237  OC_NEXT_PEND
    0    240  OC_NEXT_MINX                       0    241  OC_NEXT_PENDX
    0    242  OC_KEYINBUF                        0    342  OC_QUEUE
    0   6232  OC_PARAM                           0   6275  OC_CONSOLE$
    0   6276  OC_MAXCONSOLE                      0   6277  OC_KEYINBUF$
    2      0  OC_PARAMBUF$                       0   6300  OC_PARAM$
    0   6301  M$OCCG$                            0   6302  M$CSCG$
    0   6303  OC_CADDR                           0   6304  OC_FIRST
    0   6305  OC_DIR                             0   6306  OC_INTBIT
    0   6307  OC_MASK                            0   6310  OC_MSG_GOOD
    0   6311  OC_KEY_GOOD                        0   6312  OC_ZIP
    0   6313  OC_ZIPALL                          0   6314  OC_NOACT
    0   6315  OC_CSTA                            0   6317  OC_WSTA
    0   6321  OC_LIST                            0   6322  OC_TLIST
    0   6323  OC_DEF_ACCT                        0   6325  OC_HIST_SAVE
    0   6326  OC_ACCT_SAVE                       0   6327  OC_REPLAYS#
    0   6330  OC_PLATEN_WIDTH                    0   6331  OC_FIRST_CONSOLE

  ****  Data refs  ****

  Flags:  r = read only, s = secondary
Flgs Name                             Flgs Name                             Flgs Name
     M$UC
PL6.E3A0      #001=OC_DAT_D File=OC_DAT_D.:E05TSI                                WED 07/30/97 04:09 Page:11

  ****  Segment refs  ****

  Flags:  r = read only, s = secondary
Flgs Name                             Flgs Name                             Flgs Name
     ISSID
PL6.E3A0      #001=OC_DAT_D File=OC_DAT_D.:E05TSI                                WED 07/30/97 04:09 Page:12

        1        1        /*M* OC_DAT_D SYMDEFS for data available to all KEYIN modules */
        2        2        /*T***********************************************************/
        3        3        /*T*                                                         */
        4        4        /*T* Copyright (c) Bull HN Information Systems Inc., 1997    */
        5        5        /*T*                                                         */
        6        6        /*T***********************************************************/
        7        7        /*X* DMR,PLM=5,IND=5,CTI=5,SDI=5,MCL=10,CSI=0,ECI=0 */
        8        8                                      /* !R! */ /* Munger commands */
        9        9        OC_DAT_D: PROC NOAUTO;
       10       10        %INCLUDE OC$MESSHD_C;
       11       31                                       /* !! */ /* munger stuff */
       12       32        %SET LISTSUB='1'B;
       13       33        %INCLUDE B_MACROS_C;
       14      144        %INCLUDE OCI_SUBS_C;
       15      242        %INCLUDE B_SEGIDS_C;
       16      781        %INCLUDE CP_6;
       17      862        /* munger stuff !R!
       18      863        DCL B$DS3$ PTR SYMREF;
       19      864             %OC$MESSHD (NAME=OC_INTMSG,
       20      865                                 STCLASS="SYMREF");
       21      866                  2 MESS CHAR(SIZEC_LEN#) UNAL,
       22      867                  2 LEN (0:MAX_LEN#) REDEF MESS UBIN BYTE UNAL; */
       23      868                                                /**/
       24      869                                  /**/ /* !! */ /* munger stuff */
       25      870             %OC$MESSHD (NAME=OC_INTMSG,
       26      871                                 STCLASS="STATIC SYMDEF");
       27      885    1        2 MESS CHAR(180 /* SIZEC_LEN# */) UNAL,
       28      886    1             2 LEN (0:179 /* MAX_LEN# */) REDEF MESS UBIN BYTE UNAL;
       29      887                                 /**/ /* !R! */ /* munger stuff */
       30      888    1   DCL OC_INTMSG_CHARS REDEF OC_INTMSG CHAR(200) UNAL;
       31      889                                                /**/
       32      890                                  /**/ /* !! */ /* munger stuff */
       33      891            %OC$MESSHD (NAME=OC_MESSBUF,
       34      892                                 STCLASS="STATIC SYMDEF");
       35      906                                                /**/
       36      907    1        2 MESS CHAR(180 /* SIZEC_LEN# */) UNAL,
       37      908    1             2 LEN (0:179 /* MAX_LEN# */) REDEF MESS UBIN BYTE UNAL;
PL6.E3A0      #001=OC_DAT_D File=OC_DAT_D.:E05TSI                                WED 07/30/97 04:09 Page:13
       38      909        /* munger stuff !R!
       39      910            %OC$MESSHD (NAME=OC_MESSBUF,
       40      911                                 STCLASS="SYMREF");
       41      912                  2 MESS CHAR(SIZEC_LEN#) UNAL,
       42      913                  2 LEN (0:MAX_LEN#) REDEF MESS UBIN BYTE UNAL;
       43      914                                                            */
       44      915                                 /**/ /* !R! */ /* munger stuff */
       45      916             %OC$MESSHD (NAME=OC_MESSBUF1,
       46      917                  STCLASS="REDEF OC_MESSBUF");
       47      931    1        2 LEN (0:4) UBIN BYTE UNAL,
       48      932    1             2 GRD REDEF LEN,
       49      933    1             3 * UBIN HALF UNAL,
       50      934    1             3 SZR UBIN HALF UNAL,
       51      935    1             3 * UBIN BYTE UNAL,
       52      936    1             2 READID UBIN HALF UNAL,
       53      937    1             2 SZR UBIN BYTE UNAL,
       54      938    1             2 ACCN CHAR(8) UNAL,
       55      939    1             2 UNAME CHAR(12) UNAL,
       56      940    1             2 MESS CHAR(152) UNAL;
       57      941                                                /**/
       58      942    1   DCL OC_MESSBUF2 REDEF OC_MESSBUF CHAR(200) UNAL;
       59      943                                                /**/
       60      944                                                /**/
       61      945                                       /* !! */ /* munger stuff */
       62      946             %OC$MESSHD (NAME=OC_MSGBUFFER,
       63      947                            STCLASS="STATIC SYMDEF");
       64      961    1        2 MESS CHAR(180 /* SIZEC_LEN# */) UNAL,
       65      962    1             2 LEN (0:179 /* MAX_LEN# */) REDEF MESS UBIN BYTE UNAL;
       66      963                                                /**/
       67      964        /* munger stuff !R!
       68      965             %OC$MESSHD (NAME=OC_MSGBUFFER,
       69      966                            STCLASS="SYMREF");
       70      967                  2 MESS CHAR(SIZEC_LEN#) UNAL,
       71      968                  2 LEN (0:MAX_LEN#) REDEF MESS UBIN BYTE UNAL;           */
       72      969             %OC$MESSHD (NAME=OC_MSGBUFFER2,
       73      970                            STCLASS="REDEF OC_MSGBUFFER");
       74      984    1        2 SIZE UBIN BYTE CALIGNED,
PL6.E3A0      #001=OC_DAT_D File=OC_DAT_D.:E05TSI                                WED 07/30/97 04:09 Page:14
       75      985    1             2 MESS CHAR(179 /* MAX_LEN# */) CALIGNED;
       76      986                                                /**/
       77      987    1   DCL OC_#CONSOLES SBIN WORD STATIC SYMDEF INIT(1);
       78      988    1   DCL OC_KEYIN# UBIN WORD STATIC SYMDEF;
       79      989    1   DCL OC_QDEPTH SBIN WORD STATIC SYMDEF;
       80      990    1   DCL OC_QHEAD UBIN WORD STATIC SYMDEF;
       81      991    1   DCL OC_QPOSN UBIN WORD STATIC SYMDEF;
       82      992    1   DCL OC_REMAIN UBIN WORD STATIC SYMDEF;
       83      993    1   DCL OC_CID UBIN HALF STATIC SYMDEF INIT(0); /* next console identifier        */
       84      994                                                /**/
       85      995                                                /**/
       86      996    1   DCL OC_NEXT_MIN UBIN WORD STATIC SYMDEF ALIGNED INIT(0);
       87      997    1   DCL OC_NEXT_PEND UBIN WORD STATIC SYMDEF ALIGNED INIT(0);
       88      998                                                /**/
       89      999    1   DCL OC_NEXT_MINX UBIN WORD STATIC SYMDEF ALIGNED INIT(2 /* MAX_PER_MIN# */);
       90     1000    1   DCL OC_NEXT_PENDX UBIN WORD STATIC SYMDEF ALIGNED INIT(15 /* MAX_PER_PEND# */);
       91     1001                                                /**/
       92     1002                                                /**/
       93     1003    1   DCL OC_KEYINBUF CHAR(256) STATIC SYMDEF INIT(' ');
       94     1004    1   DCL 1 OC_QUEUE (0:199 /* MAX_EVNT# */) STATIC SYMDEF,
       95     1005    1            2 SUBC UBIN WORD,
       96     1006    1            2 EVID UBIN WORD,
       97     1007    1            2 ERR,
       98     1008    1                 3 FCG BIT(12) UNAL,
       99     1009    1                 3 MID BIT(6) UNAL,
      100     1010    1                 3 MON BIT(1) UNAL,
      101     1011    1                 3 CODE UBIN(14) UNAL,
      102     1012    1                 3 SEV UBIN(3) UNAL,
      103     1013    1            2 PARMC CHAR(48),
      104     1014    1            2 PARMS REDEF PARMC,
      105     1015    1                 3 * CHAR(48);
      106     1016    1   DCL 1 OC_PARAM STATIC SYMDEF,
      107     1017    1            2 BUF CHAR(140) UNAL;
      108     1018    1   DCL 1 OC_PARAM1 REDEF OC_PARAM,
      109     1019    1            2 KEYIN# UBIN HALF UNAL,
      110     1020    1            2 CID UBIN HALF UNAL,
      111     1021    1            2 READID UBIN HALF UNAL,
PL6.E3A0      #001=OC_DAT_D File=OC_DAT_D.:E05TSI                                WED 07/30/97 04:09 Page:15
      112     1022    1            2 COUNT UBIN BYTE UNAL,
      113     1023    1            2 REPLY CHAR(133) UNAL;
      114     1024    1   DCL OC_CONSOLE$ PTR STATIC SYMDEF;
      115     1025    1   DCL OC_MAXCONSOLE UBIN(18) STATIC SYMDEF INIT(0);
      116     1026    1   DCL 1 OC_CONSOLE (0:0) BASED(OC_CONSOLE$),
      117     1027    1            2 STATION CHAR(8) CALIGNED,
      118     1028    1            2 STATIONR REDEF STATION,
      119     1029    1                 3 FIRST_HALF CHAR(4) CALIGNED,
      120     1030    1                 3 SECND_HALF CHAR(4) CALIGNED,
      121     1031    1            2 TERM_NAME CHAR(8) CALIGNED,
      122     1032    1            2 WSN CHAR(8) CALIGNED,
      123     1033    1            2 LOGON CHAR(8) CALIGNED,
      124     1034    1            2 LP_WSN CHAR(8) CALIGNED,
      125     1035    1            2 CID UBIN HALF HALIGNED,
      126     1036    1            2 CID_O REDEF CID BIT(18) HALIGNED,
      127     1037    1            2 SYSID UBIN HALF HALIGNED,
      128     1038    1            2 ATTR BIT(18) HALIGNED,
      129     1039    1            2 ATTR_INPUT REDEF ATTR BIT(18) HALIGNED,
      130     1040    1            2 ATTR_INPUT_SAVE BIT(18) HALIGNED,
      131     1041    1            2 ATTRO BIT(18) HALIGNED,
      132     1042    1            2 ATTR_OUTPUT REDEF ATTRO BIT(18) HALIGNED,
      133     1043    1            2 ATTR_OUTPUT_SAVE BIT(18) HALIGNED,
      134     1044    1            2 I_DCBNUM UBIN(18) HALIGNED,
      135     1045    1            2 X_DCBNUM UBIN(18) HALIGNED,
      136     1046    1            2 NEXT UBIN(18) HALIGNED,
      137     1047    1            2 * CHAR(2) CALIGNED,
      138     1048    1            2 FLAGS,
      139     1049    1                 3 INPT BIT(1) UNAL,
      140     1050    1                 3 OUTP BIT(1) UNAL,
      141     1051    1                 3 * BIT(16) UNAL,
      142     1052    1            2 GHST BIT(1) UNAL,
      143     1053    1            2 GHSTRD BIT(1) UNAL,
      144     1054    1            2 SHIFT BIT(1) UNAL,
      145     1055    1            2 BKSP BIT(1) UNAL,
      146     1056    1            2 TRANSAC_LAST_MIN BIT(1) UNAL,
      147     1057    1            2 ACTIVE BIT(1) UNAL,
      148     1058    1            2 DONT_TIME BIT(1) UNAL,
PL6.E3A0      #001=OC_DAT_D File=OC_DAT_D.:E05TSI                                WED 07/30/97 04:09 Page:16
      149     1059    1            2 FIRST_READ BIT(1) UNAL,
      150     1060    1            2 * BIT(1) UNAL,
      151     1061    1            2 NATLANG CHAR(1) CALIGNED,
      152     1062    1            2 ACCT CHAR(8) CALIGNED,
      153     1063    1            2 PROMPTS CHAR(102) CALIGNED,
      154     1064    1            2 * UBIN BYTE CALIGNED,
      155     1065        %SET LISTMAC='1'B;
      156     1066             %VLR_HELP (FPTN=VLR_HELP,
      157     1067                  LVL=2,
      158     1068                  LAST=",",
      159     1069                  STCLASS=BASED);
              1070        %LSET LISTDIR='0'B;
              1083    1   2 VLR_HELP ALIGNED,
              1085    1   3 BADCALL BIT(1)/*('0'B)/**/,3 NOFILE BIT(1)/*('0'B)/**/,3 NOMSG BIT(1)/*
              1086    1   ('0'B)/**/,3 ALTMSG BIT(1)/*('0'B)/**/,3 MSGCOMP BIT(1)/*('0'B)/**/,
              1087    1   3 OUTERR1 BIT(1)/*('0'B)/**/,3 OUTERR2 BIT(1)/*('0'B)/**/,3 NNATIVE BIT(1)/*
              1088    1   ('0'B)/**/,3 BUFERR BIT(1)/*('0'B)/**/,3 INERR BIT(1)/*('0'B)/**/,
              1089    1   3 * BIT(17)/*('0'B)/**/,3 * BIT(27)/*('0'B)/**/,3 RECCNT UBIN(18)UNAL /*(0
              1090    1   )/**/,3 ERRCODE1 UNAL,4 FCG BIT(12)/*('0'B)/**/,4 MID BIT(6)/*('0'B)
              1091    1   /**/,4 MON BIT(1)/*('0'B)/**/,4 ERR# UBIN(14)UNAL /*(0)/**/,4 SEV UBIN(3)
              1092    1   UNAL /*(0)/**/,3 ERRCODE2 UNAL,4 FCG BIT(12)/*('0'B)/**/,4 MID BIT(6)/*
              1093    1   ('0'B)/**/,4 MON BIT(1)/*('0'B)/**/,4 ERR# UBIN(14)UNAL /*(0)/**/,
              1094    1   4 SEV UBIN(3)UNAL /*(0)/**/,3 CODEUSED UNAL,4 LEN UBIN(9)UNAL /*(0)/**/,
              1095    1   4 TEXT CHAR(34)/*(' ')/**/,3 * UBIN(9)UNAL /*(0)/**/,3 * BIT(36)/*('0'B
              1096    1   )/**/ ,
      160     1098        %SET LISTMAC='0'B;
      161     1099    1        2 PROFILE,
      162     1100    1             3 COUNT UBIN BYTE CALIGNED,
      163     1101    1             3 TXT CHAR(11) CALIGNED,
      164     1102    1             2 MXPRIO UBIN BYTE CALIGNED;  /* FILL TO WORD BOUNDARY */
      165     1103                                                /**/
      166     1104    1   DCL 1 PROMPT_TABLE (0:2) BASED,
      167     1105    1            2 LAST_READ BIT(1) UNAL,
      168     1106    1            2 COUNT_ UBIN(8) UNAL,
      169     1107    1            2 PROMPT CHAR(31) UNAL,
      170     1108    1            2 SIZER UBIN HALF UNAL;
      171     1109    1   DCL OC_KEYINBUF$ PTR STATIC SYMDEF INIT(ADDR (OC_KEYINBUF));
PL6.E3A0      #001=OC_DAT_D File=OC_DAT_D.:E05TSI                                WED 07/30/97 04:09 Page:17
      172     1110    1   DCL OC_PARAMBUF$ PTR CONSTANT SYMDEF INIT(ADDR (OC_PARAM.BUF));
      173     1111    1   DCL OC_PARAM$ PTR STATIC SYMDEF ALIGNED INIT(ADDR(OC_PARAM));
      174     1112    1   DCL M$OCCG$ PTR STATIC SYMDEF;
      175     1113    1   DCL M$CSCG$ PTR STATIC SYMDEF;
      176     1114    1   DCL OC_CADDR BIT(18) STATIC SYMDEF ALIGNED;
      177     1115    1   DCL OC_FIRST BIT(1) STATIC SYMDEF ALIGNED;
      178     1116                                                /**/
      179     1117    1   DCL OC_DIR BIT(18) ALIGNED STATIC SYMDEF INIT('400000'O);
      180     1118    1   DCL OC_DIRBIT REDEF OC_DIR UBIN HALF ALIGNED;
      181     1119                                                /**/
      182     1120    1   DCL OC_INTBIT BIT(18) ALIGNED STATIC SYMDEF INIT('200000'O);
      183     1121    1   DCL OC_INT REDEF OC_INTBIT UBIN HALF;
      184     1122                                                /**/
      185     1123    1   DCL OC_MASK STATIC SYMDEF BIT(18) UNAL INIT('377777'O);
      186     1124    1   DCL OC_MASK_U REDEF OC_MASK UBIN HALF UNAL;
      187     1125                                                /**/
      188     1126    1   DCL OC_MSG_GOOD BIT(1) ALIGNED STATIC SYMDEF INIT('0'B);
      189     1127    1   DCL OC_KEY_GOOD BIT(1) ALIGNED STATIC SYMDEF INIT('0'B);
      190     1128                                                /**/
      191     1129                                                /* ZAP flags */
      192     1130    1   DCL OC_ZIP BIT(1) ALIGNED STATIC SYMDEF INIT('0'B);
      193     1131    1   DCL OC_ZIPALL BIT(1) ALIGNED STATIC SYMDEF INIT('0'B);
      194     1132                                                /**/
      195     1133    1   DCL OC_NOACT BIT(1) ALIGNED STATIC SYMDEF INIT('0'B);
      196     1134                                                /**/
      197     1135                                                /**/
      198     1136                                                /**/
      199     1137    1   DCL OC_CSTA CHAR(8) STATIC SYMDEF;      /* CSCG COMP. STATION */
      200     1138    1   DCL OC_WSTA CHAR(8) STATIC SYMDEF;      /* WRDONE STATION */
      201     1139
      202     1140                                                /**/
      203     1141    1   DCL OC_LIST BIT(1) ALIGNED STATIC SYMDEF INIT('1'B);
      204     1142    1   DCL OC_TLIST BIT(1) ALIGNED STATIC SYMDEF INIT('0'B);
      205     1143    1   DCL OC_DEF_ACCT CHAR(8) STATIC SYMDEF INIT(':SYS    ');
      206     1144    1   DCL 1 OC_HIST_SAVE STATIC SYMDEF,
      207     1145    1            2 ACTIVE BIT(1) UNAL INIT ('0'B /*FALSE#*/),
      208     1146    1            2 HOUR UBIN(17) UNAL INIT (23 /* TURN_HOUR# */),
PL6.E3A0      #001=OC_DAT_D File=OC_DAT_D.:E05TSI                                WED 07/30/97 04:09 Page:18
      209     1147    1            2 MIN UBIN HALF UNAL INIT(59 /* TURN_MIN# */);
      210     1148    1   DCL 1 OC_ACCT_SAVE STATIC SYMDEF,
      211     1149    1            2 ACTIVE BIT(1) UNAL INIT('0'B /*FALSE#*/),
      212     1150    1            2 HOUR UBIN (17) UNAL INIT (23 /* TURN_HOUR# */),
      213     1151    1            2 MIN UBIN HALF UNAL INIT(59 /* TURN_MIN# */);
      214     1152    1   DCL OC_REPLAYS# SBIN WORD ALIGNED STATIC SYMDEF INIT(0);
      215     1153                                                /**/
      216     1154    1   DCL OC_PLATEN_WIDTH SBIN WORD ALIGNED STATIC SYMDEF INIT(132);
      217     1155                                                /**/
      218     1156    1   DCL OC_FIRST_CONSOLE BIT(1) ALIGNED STATIC SYMDEF INIT ('0'B);
      219     1157
      220     1158    1   END OC_DAT_D;

PL6.E3A0      #001=OC_DAT_D File=OC_DAT_D.:E05TSI                                WED 07/30/97 04:09 Page:19
--  Include file information  --

   CP_6.:E05TOU  cannot be made into a system file and is referenced.
   B_SEGIDS_C.:E05TOU  is referenced.
   OCI_SUBS_C.:E05TOU  is referenced.
   B_MACROS_C.:E05TOU  is referenced.
   OC$MESSHD_C.:E05TOU  is referenced.
   B$JIT_C.:E05TOU  was found in the system file and is never referenced.
   CP_6_C.:E05TOU  was found in the system file and is referenced.
      No diagnostics issued in procedure OC_DAT_D.
PL6.E3A0      #001=OC_DAT_D File=OC_DAT_D.:E05TSI                                WED 07/30/97 04:09 Page:20

 **** Variables and constants ****

  ****  Section 000  Data  OC_DAT_D

  ****  Scalars and arrays  ****
OctLoc.c.b A Datatyp(siz) R M Lvl/name                 OctLoc.c.b A Datatyp(siz) R M Lvl/name

  6275-0-0/w PTR         r     1 OC_CONSOLE$              242-0-0/c CHAR(256)   r     1 OC_KEYINBUF
  6232-0-0/c STRC(1260)  r     1 OC_PARAM


   No code generated for procedure OC_DAT_D .
   Procedure OC_DAT_D is declared NOAUTO and requires 3290 words of local(STATIC) storage.

    No errors detected in file OC_DAT_D.:E05TSI    .
PL6.E3A0      #001=OC_DAT_D File=OC_DAT_D.:E05TSI                                WED 07/30/97 04:09 Page:21
          *** CROSS REFERENCE LISTING ***
**     DENOTES     IDENTIFIER DEFINITION
<<                 IDENTIFIER'S VALUE SET
>>                 IDENTIFIER'S VALUE USED
<>                 IDENTIFIER SET AND/OR USED
--                 IDENTIFIER REFERENCED
PL6.E3A0      #001=OC_DAT_D File=OC_DAT_D.:E05TSI                                WED 07/30/97 04:09 Page:22
          MINI XREF LISTING

OC_CONSOLE.ATTR
      1038**DCL      1039--REDEF
OC_CONSOLE.ATTRO
      1041**DCL      1042--REDEF
OC_CONSOLE.CID
      1035**DCL      1036--REDEF
OC_CONSOLE.STATION
      1027**DCL      1028--REDEF
OC_CONSOLE$
      1024**DCL      1026--IMP-PTR
OC_DIR
      1117**DCL      1118--REDEF
OC_INTBIT
      1120**DCL      1121--REDEF
OC_INTMSG
       872**DCL       888--REDEF
OC_INTMSG.FLAGS
       879**DCL       880--REDEF
OC_INTMSG.MESS
       885**DCL       886--REDEF
OC_INTMSG.MSGID
       875**DCL       876--REDEF
OC_INTMSG.WSN
       882**DCL       883--REDEF
OC_KEYINBUF
      1003**DCL      1109--DCLINIT
OC_MASK
      1123**DCL      1124--REDEF
OC_MESSBUF
       893**DCL       918--REDEF     942--REDEF
OC_MESSBUF.FLAGS
       900**DCL       901--REDEF
PL6.E3A0      #001=OC_DAT_D File=OC_DAT_D.:E05TSI                                WED 07/30/97 04:09 Page:23
OC_MESSBUF.MESS
       907**DCL       908--REDEF
OC_MESSBUF.MSGID
       896**DCL       897--REDEF
OC_MESSBUF.WSN
       903**DCL       904--REDEF
OC_MESSBUF1.FLAGS
       925**DCL       926--REDEF
OC_MESSBUF1.LEN
       931**DCL       932--REDEF
OC_MESSBUF1.MSGID
       921**DCL       922--REDEF
OC_MESSBUF1.WSN
       928**DCL       929--REDEF
OC_MSGBUFFER
       948**DCL       971--REDEF
OC_MSGBUFFER.FLAGS
       955**DCL       956--REDEF
OC_MSGBUFFER.MESS
       961**DCL       962--REDEF
OC_MSGBUFFER.MSGID
       951**DCL       952--REDEF
OC_MSGBUFFER.WSN
       958**DCL       959--REDEF
OC_MSGBUFFER2.FLAGS
       978**DCL       979--REDEF
OC_MSGBUFFER2.MSGID
       974**DCL       975--REDEF
OC_MSGBUFFER2.WSN
       981**DCL       982--REDEF
OC_PARAM
      1016**DCL      1018--REDEF    1111--DCLINIT
OC_PARAM.BUF
      1017**DCL      1110--DCLINIT
OC_QUEUE.PARMC
      1013**DCL      1014--REDEF
