VERSION E05

PL6.E3A0      #001=ODE$EVNT File=ODE$EVNT.:E05TSI                                WED 07/30/97 04:10 Page:1
        1        1        /*M* ODE$EVNT DOG ghost event handling routine */
        2        2        /*T***********************************************************/
        3        3        /*T*                                                         */
        4        4        /*T* Copyright (c) Bull HN Information Systems Inc., 1997    */
        5        5        /*T*                                                         */
        6        6        /*T***********************************************************/
        7        7        /*X* DMC,PLM=6,IND=0,IDT=2,SDI=2,CTI=0,ENU=0,AND,DCI=4,CSU=2,ECU=4,THI=0,DTI=0,STI=1
                 7        ,IAD=0,PRB */
        8        8        /**/
        9        9        /*P* NAME:         ODE$EVNT
       10       10             PURPOSE:      To receive EVENTs for the DOG ghost
       11       11        */
       12       12        /*F* NAME:         ODE$EVNT
       13       13             PURPOSE:      To receive asynchronous events for the DOG
       14       14                           ghost.
       15       15             DESCRIPTION:  ODE$EVNT is the M$EVENT receiver for the DOG
       16       16                           ghost.
       17       17
       18       18                           It receives BREAK control (online only).
       19       19        */
       20       20        /**/
       21       21        ODE$EVNT: PROC ASYNC;
       22       22
       23       23
       24       24
       25       25        /**/
       26       26        /* INCLUDES */
       27       27        /**/
       28       28        %INCLUDE CP_6;
       29      109        %INCLUDE OD_MAC_C;
       30      197        %INCLUDE UE_ERRORS_C;
       31      215        %INCLUDE OD_DATA_R;
       32      441        %INCLUDE OD_SCODE_C;
       33      449
       34      450
       35      451
       36      452        /**/
PL6.E3A0      #001=ODE$EVNT File=ODE$EVNT.:E05TSI                                WED 07/30/97 04:10 Page:2
       37      453        /* BASED STRUCTURES */
       38      454        /**/
       39      455        %B$TCB;
       40      458        %B$EXCFR;
       41      476
       42      477
       43      478
       44      479        /**/
       45      480        /* AUTO */
       46      481        /**/
       47      482    1   DCL STK$ PTR;
       48      483
       49      484
       50      485
       51      486        /**/
       52      487        /* CONSTANT */
       53      488        /**/
       54      489    1   DCL DOGNAME CHAR(8) CONSTANT DALIGNED INIT('DOG');
       55      490
       56      491
       57      492
       58      493        /**/
       59      494        /* REFS */
       60      495        /**/
       61      496    1   DCL B$TCB$ PTR SYMREF;
       62      497    1   DCL FOI$LDTRC ENTRY(4) ALTRET;
       63      498
       64      499
       65      500
       66      501        /**/
       67      502        /* SUBS */
       68      503        /**/
       69      504        %SUB_EXC;
       70      551        %SUB F_OD='1704'O;
       71      552        %SUB M_E='05'O;
       72      553        %EJECT;
PL6.E3A0      #001=ODE$EVNT File=ODE$EVNT.:E05TSI                                WED 07/30/97 04:10 Page:3
       73      554
       74      555        /**/
       75      556        /* BEGIN HERE */
       76      557        /**/
       77      558    1         STK$=B$TCB$->B$TCB.STK$;
       78      559    1         IF STK$->B$EXCFR.ECC = %ECC_INT# THEN
       79      560    2           DO;
       80      561                           /* BREAK - JUST SET FLAG */
       81      562    2           OD_INT=1;
       82      563    2           END;
       83      564    1         RETURN;
       84      565        %EJECT;
PL6.E3A0      #001=ODE$EVNT File=ODE$EVNT.:E05TSI                                WED 07/30/97 04:10 Page:4
       85      566        /**/
       86      567        /*F* NAME:         ODE$XCON
       87      568             PURPOSE:      To receive exit control for the DOG ghost
       88      569             DESCRIPTION:  A SNAP dump is generated and DOG does an
       89      570                           M$LDTRC to itself. */
       90      571    1   ODE$XCON: ENTRY ASYNC;
       91      572        /**/
       92      573    1         CALL FOI$LDTRC (%S$ODXCON,F_OD,M_E,DOGNAME);
       93      574        /*S* SCREECH_CODE: ODE-S$ODXCON
       94      575             TYPE:         SNAP
       95      576             MESSAGE:      DOG has aborted
       96      577             REMARKS:      Following this SNAP, DOG will LDTRC to itself */
       97      578    1   END ODE$EVNT;

PL6.E3A0      #001=ODE$EVNT File=ODE$EVNT.:E05TSI                                WED 07/30/97 04:10 Page:5
--  Include file information  --

   OD_SCODE_C.:E05TOU  is referenced.
   OD_DATA_R.:E05TOU  cannot be made into a system file and is referenced.
   UE_ERRORS_C.:E05TOU  is referenced.
   OD_MAC_C.:E05TOU  is referenced.
   CP_6.:E05TOU  cannot be made into a system file and is referenced.
   B$JIT_C.:E05TOU  was found in the system file and is never referenced.
   CP_6_C.:E05TOU  was found in the system file and is referenced.
      No diagnostics issued in procedure ODE$EVNT.

   Procedure ODE$EVNT requires 19 words for executable code.
   Procedure ODE$EVNT requires 4 words of local(AUTO) storage.

    No errors detected in file ODE$EVNT.:E05TSI    .

PL6.E3A0      #001=ODE$EVNT File=ODE$EVNT.:E05TSI                                WED 07/30/97 04:10 Page:6

 Object Unit name= ODE$EVNT                                   File name= ODE$EVNT.:E05TOU
 UTS= JUL 30 '97 04:10:54.24 WED                              Compiler= PL-6/E31         Sev=      00
 SharedLib= :SHARED_SYSTEM                                    Alt SharedLib=


    ****  Control sections  ****

 Sect   Type Bound  Init  Size OctSiz  Section name(segment info)
    0   DCB   even  none     0      0  M$UC
    1  RoData even  UTS      2      2  ODE$EVNT
    2   Proc  even  none    19     23  ODE$EVNT
    3  RoData even  none     7      7  ODE$EVNT

    ****  Entry defs  ****

                              Check   Calling
                             calling  sequence
  Sect OctLoc Primary Altret sequence   type   Parms  Name
     2      0   yes            yes     Async       0  ODE$EVNT
     2     14                  yes     Async       0  ODE$XCON

  ****  Entry refs  ****

         Check        Calling
        calling       sequence
Altret sequence SRef   type   Args  Name
 yes     yes           Std       4 FOI$LDTRC
                       nStd      0 X66_AAUTO
                       nStd      0 X66_AARET
                       Std       0 B_CONSPOOL_D
PL6.E3A0      #001=ODE$EVNT File=ODE$EVNT.:E05TSI                                WED 07/30/97 04:10 Page:7

  ****  Data refs  ****

  Flags:  r = read only, s = secondary
Flgs Name                             Flgs Name                             Flgs Name
     M$UC                                  OD_INT                                B$TCB$
     B_VECTNIL

  ****  Segment refs  ****

  Flags:  r = read only, s = secondary
Flgs Name                             Flgs Name                             Flgs Name
     ISSID
PL6.E3A0      #001=ODE$EVNT File=ODE$EVNT.:E05TSI                                WED 07/30/97 04:10 Page:8


        1        1        /*M* ODE$EVNT DOG ghost event handling routine */
        2        2        /*T***********************************************************/
        3        3        /*T*                                                         */
        4        4        /*T* Copyright (c) Bull HN Information Systems Inc., 1997    */
        5        5        /*T*                                                         */
        6        6        /*T***********************************************************/
        7        7       /*X* DMC,PLM=6,IND=0,IDT=2,SDI=2,CTI=0,ENU=0,AND,DCI=4,CSU=2,ECU=4,THI=0,DTI=0,STI=1
                 7        ,IAD=0,PRB */
        8        8        /**/
        9        9        /*P* NAME:         ODE$EVNT
       10       10             PURPOSE:      To receive EVENTs for the DOG ghost
       11       11        */
       12       12        /*F* NAME:         ODE$EVNT
       13       13             PURPOSE:      To receive asynchronous events for the DOG
       14       14                           ghost.
       15       15             DESCRIPTION:  ODE$EVNT is the M$EVENT receiver for the DOG
       16       16                           ghost.
       17       17
       18       18                           It receives BREAK control (online only).
       19       19        */
       20       20        /**/
       21       21        ODE$EVNT: PROC ASYNC;

     21  2 000000   000000 700200 xent  ODE$EVNT     TSX0  ! X66_AAUTO
         2 000001   000004 000000                    ZERO    4,0

       22       22
       23       23
       24       24
       25       25        /**/
       26       26        /* INCLUDES */
       27       27        /**/
       28       28        %INCLUDE CP_6;
       29      109        %INCLUDE OD_MAC_C;
       30      197        %INCLUDE UE_ERRORS_C;
       31      215        %INCLUDE OD_DATA_R;
PL6.E3A0      #001=ODE$EVNT File=ODE$EVNT.:E05TSI                                WED 07/30/97 04:10 Page:9
       32      441        %INCLUDE OD_SCODE_C;
       33      449
       34      450
       35      451
       36      452        /**/
       37      453        /* BASED STRUCTURES */
       38      454        /**/
       39      455        %B$TCB;
       40      458        %B$EXCFR;
       41      476
       42      477
       43      478
       44      479        /**/
       45      480        /* AUTO */
       46      481        /**/
       47      482    1   DCL STK$ PTR;
       48      483
       49      484
       50      485
       51      486        /**/
       52      487        /* CONSTANT */
       53      488        /**/
       54      489    1   DCL DOGNAME CHAR(8) CONSTANT DALIGNED INIT('DOG');
       55      490
       56      491
       57      492
       58      493        /**/
       59      494        /* REFS */
       60      495        /**/
       61      496    1   DCL B$TCB$ PTR SYMREF;
       62      497    1   DCL FOI$LDTRC ENTRY(4) ALTRET;
       63      498
       64      499
       65      500
       66      501        /**/
       67      502        /* SUBS */
       68      503        /**/
PL6.E3A0      #001=ODE$EVNT File=ODE$EVNT.:E05TSI                                WED 07/30/97 04:10 Page:10
       69      504        %SUB_EXC;
       70      551        %SUB F_OD='1704'O;
       71      552        %SUB M_E='05'O;
       72      553        %EJECT;
PL6.E3A0      #001=ODE$EVNT File=ODE$EVNT.:E05TSI                                WED 07/30/97 04:10 Page:11
       73      554
       74      555        /**/
       75      556        /* BEGIN HERE */
       76      557        /**/
       77      558    1         STK$=B$TCB$->B$TCB.STK$;

    558  2 000002   000000 470400 xsym               LDP0    B$TCB$
         2 000003   000001 236100                    LDQ     1,,PR0
         2 000004   200003 756100                    STQ     STK$,,AUTO

       78      559    1         IF STK$->B$EXCFR.ECC = %ECC_INT# THEN

    559  2 000005   200003 471500                    LDP1    STK$,,AUTO
         2 000006   100000 720100                    LXL0    0,,PR1
         2 000007   000002 100003                    CMPX0   2,DU
         2 000010   000013 601000 2                  TNZ     s:564

       79      560    2           DO;

       80      561                           /* BREAK - JUST SET FLAG */
       81      562    2           OD_INT=1;

    562  2 000011   000001 235007                    LDA     1,DL
         2 000012   000000 755000 xsym               STA     OD_INT

       82      563    2           END;

       83      564    1         RETURN;

    564  2 000013   000000 702200 xent               TSX2  ! X66_AARET

       84      565        %EJECT;
PL6.E3A0      #001=ODE$EVNT File=ODE$EVNT.:E05TSI                                WED 07/30/97 04:10 Page:12
       85      566        /**/
       86      567        /*F* NAME:         ODE$XCON
       87      568             PURPOSE:      To receive exit control for the DOG ghost
       88      569             DESCRIPTION:  A SNAP dump is generated and DOG does an
       89      570                           M$LDTRC to itself. */
       90      571    1   ODE$XCON: ENTRY ASYNC;

    571  2 000014   000000 700200 xent  ODE$XCON     TSX0  ! X66_AAUTO
         2 000015   000004 000000                    ZERO    4,0

       91      572        /**/
       92      573    1         CALL FOI$LDTRC (%S$ODXCON,F_OD,M_E,DOGNAME);

    573  2 000016   000003 630400 3                  EPPR0   3
         2 000017   000022 631400 xsym               EPPR1   B_VECTNIL+18
         2 000020   000000 701000 xent               TSX1    FOI$LDTRC
         2 000021   000000 011000                    NOP     0

       93      574        /*S* SCREECH_CODE: ODE-S$ODXCON
       94      575             TYPE:         SNAP
       95      576             MESSAGE:      DOG has aborted
       96      577             REMARKS:      Following this SNAP, DOG will LDTRC to itself */
       97      578    1   END ODE$EVNT;

    578  2 000022   000000 702200 xent               TSX2  ! X66_AARET

PL6.E3A0      #001=ODE$EVNT File=ODE$EVNT.:E05TSI                                WED 07/30/97 04:10 Page:13
--  Include file information  --

   OD_SCODE_C.:E05TOU  is referenced.
   OD_DATA_R.:E05TOU  cannot be made into a system file and is referenced.
   UE_ERRORS_C.:E05TOU  is referenced.
   OD_MAC_C.:E05TOU  is referenced.
   CP_6.:E05TOU  cannot be made into a system file and is referenced.
   B$JIT_C.:E05TOU  was found in the system file and is never referenced.
   CP_6_C.:E05TOU  was found in the system file and is referenced.
      No diagnostics issued in procedure ODE$EVNT.
PL6.E3A0      #001=ODE$EVNT File=ODE$EVNT.:E05TSI                                WED 07/30/97 04:10 Page:14

 **** Variables and constants ****

  ****  Section 001 RoData ODE$EVNT

  ****  Scalars and arrays  ****
OctLoc.c.b A Datatyp(siz) R M Lvl/name                 OctLoc.c.b A Datatyp(siz) R M Lvl/name

     0-0-0/d CHAR(8)     r     1 DOGNAME

  ****  Auto variables  ****

  ****  Scalars and arrays  ****
OctLoc.c.b A Datatyp(siz) R M Lvl/name                 OctLoc.c.b A Datatyp(siz) R M Lvl/name

     3-0-0/w PTR         r     1 STK$

  ****  SYMREF variables  ****

  ****  Scalars and arrays  ****
OctLoc.c.b A Datatyp(siz) R M Lvl/name                 OctLoc.c.b A Datatyp(siz) R M Lvl/name

     0-0-0/w PTR         r     1 B$TCB$                     0-0-0/w UBIN        r     1 OD_INT

  ****  BASED and DCB variables  ****

  ****  Scalars and arrays  ****
OctLoc.c.b A Datatyp(siz) R M Lvl/name                 OctLoc.c.b A Datatyp(siz) R M Lvl/name

     0-0-0/w STRC(2448)  r     1 B$EXCFR                    0-0-0/w STRC(144)   r     1 B$TCB


   Procedure ODE$EVNT requires 19 words for executable code.
   Procedure ODE$EVNT requires 4 words of local(AUTO) storage.

    No errors detected in file ODE$EVNT.:E05TSI    .
PL6.E3A0      #001=ODE$EVNT File=ODE$EVNT.:E05TSI                                WED 07/30/97 04:10 Page:15
          *** CROSS REFERENCE LISTING ***
**     DENOTES     IDENTIFIER DEFINITION
<<                 IDENTIFIER'S VALUE SET
>>                 IDENTIFIER'S VALUE USED
<>                 IDENTIFIER SET AND/OR USED
--                 IDENTIFIER REFERENCED
PL6.E3A0      #001=ODE$EVNT File=ODE$EVNT.:E05TSI                                WED 07/30/97 04:10 Page:16
          MINI XREF LISTING

B$EXCFR.ASL
       459**DCL       459--REDEF
B$EXCFR.ECC
       459**DCL       559>>IF
B$EXCFR.ERR.ERR#
       473**DCL       473--REDEF
B$EXCFR.EVID
       472**DCL       472--REDEF     473--REDEF
B$EXCFR.IR
       460**DCL       460--REDEF
B$EXCFR.PREVSZ
       459**DCL       459--REDEF
B$EXCFR.SUBC
       471**DCL       471--REDEF     472--REDEF     472--REDEF
B$TCB.STK$
       456**DCL       558>>ASSIGN
B$TCB$
       496**DCL       558>>ASSIGN
DOGNAME
       489**DCL       573<>CALL
FOI$LDTRC
       497**DCL-ENT   573--CALL
OD_CXT.HIPRIO
       358**DCL       359--REDEF
OD_CXT.NOTWSN
       355**DCL       356--REDEF
OD_CXT_INIT.HIPRIO
       289**DCL       290--REDEF
OD_CXT_INIT.NOTWSN
       286**DCL       287--REDEF
OD_INT
       226**DCL       562<<ASSIGN
PL6.E3A0      #001=ODE$EVNT File=ODE$EVNT.:E05TSI                                WED 07/30/97 04:10 Page:17
OD_READCSCG.STATION_
       405**DCL       406--REDEF
OD_READCSCG.V.DVBYTE.REREAD#
       417**DCL       417--REDEF
OD_READCSCG.V.INDX#
       415**DCL       415--REDEF
STK$
       482**DCL       558<<ASSIGN    559>>IF
