VERSION E05

PL6.E3A0      #001=OD_DATA_D File=OD_DATA_D.:E05TSI                              WED 07/30/97 04:13 Page:1
        1        1        /*M* OD_DATA_D SYMDEFed data for DOG */
        2        2        /*T***********************************************************/
        3        3        /*T*                                                         */
        4        4        /*T* Copyright (c) Bull HN Information Systems Inc., 1997    */
        5        5        /*T*                                                         */
        6        6        /*T***********************************************************/
        7        7        /*X* DMC,PLM=4,IND=0,SDI=2,CTI=0,ENU=0,AND,DCI=4,CSU=2,ECU=4,THI=0,DTI=2 */
        8        8        /**/
        9        9        OD_DATA_D: PROC NOAUTO;
       10       10        /**/
       11       11        /**/
       12       12        %INCLUDE OD_MAC_C;
       13      100        %INCLUDE OD_SUBS_C;
       14      161        %INCLUDE CP_6;
       15      242    1   DCL M$CSCG DCB;
       16      243        %OD_CXT (FPTN=OD$CXT,STCLASS=BASED);
       17      311        /**/
       18      312        /**/
       19      313    1   DCL OD_CSCGBUF CHAR(140) STATIC SYMDEF DALIGNED INIT(' ');
       20      314    1   DCL OD_SGHST BIT(36) STATIC SYMDEF ALIGNED INIT('1'B);
       21      315    1   DCL OD_INT UBIN WORD STATIC SYMDEF ALIGNED INIT(0);
       22      316    1   DCL OD_OBMAX UBIN WORD STATIC SYMDEF ALIGNED INIT(ODMI_OBMX#);
       23      317    1   DCL 1 OD_XCON STATIC SYMDEF ALIGNED,
       24      318    1         2 * UBIN HALF UNAL,
       25      319    1         2 IC UBIN HALF UNAL,
       26      320    1         2 ERR BIT(36) UNAL;
       27      321        /**/
       28      322        %OD_CXT                                (FPTN=OD_CXT_INIT,
       29      323                 STCLASS   ="CONSTANT SYMDEF");
       30      391        /**/
       31      392        %OD_CXT (FPTN=OD_CXT,STCLASS="STATIC SYMDEF");
       32      460        /**/
       33      461        %VLP_ACCT                              (FPTN=OD_SYSACCT,
       34      462                 ACCT      = ':SYS',
       35      463                 STCLASS   ="CONSTANT SYMDEF");
       36      476        %FPT_READ                              (FPTN=OD_READCSCG,
       37      477                 DCB       = M$CSCG,
PL6.E3A0      #001=OD_DATA_D File=OD_DATA_D.:E05TSI                              WED 07/30/97 04:13 Page:2
       38      478                 WAIT      = YES,
       39      479                 BUF       = OD_CSCGBUF,
       40      480                 STCLASS   ="CONSTANT SYMDEF");
       41      519        %VLP_PSEUDO                            (FPTN=OD_PSEUDOS,
       42      520                 N         = 8,
       43      521                 STCLASS   ="STATIC SYMDEF");
       44      537        /**/
       45      538        /**/
       46      539    1   END OD_DATA_D;
       47      540        /**/
       48      541        /**/

PL6.E3A0      #001=OD_DATA_D File=OD_DATA_D.:E05TSI                              WED 07/30/97 04:13 Page:3
--  Include file information  --

   CP_6.:E05TOU  cannot be made into a system file and is referenced.
   OD_SUBS_C.:E05TOU  is referenced.
   OD_MAC_C.:E05TOU  is referenced.
   B$JIT_C.:E05TOU  was found in the system file and is never referenced.
   CP_6_C.:E05TOU  was found in the system file and is referenced.
      No diagnostics issued in procedure OD_DATA_D.

   No code generated for procedure OD_DATA_D .
   Procedure OD_DATA_D is declared NOAUTO and requires 98 words of local(STATIC) storage.

    No errors detected in file OD_DATA_D.:E05TSI    .

PL6.E3A0      #001=OD_DATA_D File=OD_DATA_D.:E05TSI                              WED 07/30/97 04:13 Page:4

 Object Unit name= OD_DATA_D                                  File name= OD_DATA_D.:E05TOU
 UTS= JUL 30 '97 04:13:46.44 WED                              Compiler= PL-6/E31         Sev=      00
 SharedLib= :SHARED_SYSTEM                                    Alt SharedLib=


    ****  Control sections  ****

 Sect   Type Bound  Init  Size OctSiz  Section name(segment info)
    0   Data  even  none    98    142  OD_DATA_D
    1   DCB   even  none     0      0  M$UC
    2   DCB   even  none     0      0  M$CSCG
    3  RoData even  UTS     38     46  OD_DATA_D
    4   Proc  even  none     0      0  OD_DATA_D

    ****  Entry defs  ****

                              Check   Calling
                             calling  sequence
  Sect OctLoc Primary Altret sequence   type   Parms  Name
     4      0   yes            yes     ~proc       0  OD_DATA_D

  ****  Data defs  ****

 Sect OctLoc  Name                           Sect OctLoc  Name
    0      2  OD_CSCGBUF                         0     46  OD_SGHST
    0     47  OD_INT                             0     50  OD_OBMAX
    0     51  OD_XCON                            3      0  OD_CXT_INIT
    0     53  OD_CXT                             3     26  OD_SYSACCT
    3     30  OD_READCSCG                        0    102  OD_PSEUDOS

  ****  Data refs  ****

  Flags:  r = read only, s = secondary
Flgs Name                             Flgs Name                             Flgs Name
     M$UC                                  M$CSCG
PL6.E3A0      #001=OD_DATA_D File=OD_DATA_D.:E05TSI                              WED 07/30/97 04:13 Page:5

  ****  Segment refs  ****

  Flags:  r = read only, s = secondary
Flgs Name                             Flgs Name                             Flgs Name
     NULLSID                               ISSID
PL6.E3A0      #001=OD_DATA_D File=OD_DATA_D.:E05TSI                              WED 07/30/97 04:13 Page:6

        1        1        /*M* OD_DATA_D SYMDEFed data for DOG */
        2        2        /*T***********************************************************/
        3        3        /*T*                                                         */
        4        4        /*T* Copyright (c) Bull HN Information Systems Inc., 1997    */
        5        5        /*T*                                                         */
        6        6        /*T***********************************************************/
        7        7        /*X* DMC,PLM=4,IND=0,SDI=2,CTI=0,ENU=0,AND,DCI=4,CSU=2,ECU=4,THI=0,DTI=2 */
        8        8        /**/
        9        9        OD_DATA_D: PROC NOAUTO;
       10       10        /**/
       11       11        /**/
       12       12        %INCLUDE OD_MAC_C;
       13      100        %INCLUDE OD_SUBS_C;
       14      161        %INCLUDE CP_6;
       15      242    1   DCL M$CSCG DCB;
       16      243        %OD_CXT (FPTN=OD$CXT,STCLASS=BASED);
       17      311        /**/
       18      312        /**/
       19      313    1   DCL OD_CSCGBUF CHAR(140) STATIC SYMDEF DALIGNED INIT(' ');
       20      314    1   DCL OD_SGHST BIT(36) STATIC SYMDEF ALIGNED INIT('1'B);
       21      315    1   DCL OD_INT UBIN WORD STATIC SYMDEF ALIGNED INIT(0);
       22      316    1   DCL OD_OBMAX UBIN WORD STATIC SYMDEF ALIGNED INIT(ODMI_OBMX#);
       23      317    1   DCL 1 OD_XCON STATIC SYMDEF ALIGNED,
       24      318    1         2 * UBIN HALF UNAL,
       25      319    1         2 IC UBIN HALF UNAL,
       26      320    1         2 ERR BIT(36) UNAL;
       27      321        /**/
       28      322        %OD_CXT                                (FPTN=OD_CXT_INIT,
       29      323                 STCLASS   ="CONSTANT SYMDEF");
       30      391        /**/
       31      392        %OD_CXT (FPTN=OD_CXT,STCLASS="STATIC SYMDEF");
       32      460        /**/
       33      461        %VLP_ACCT                              (FPTN=OD_SYSACCT,
       34      462                 ACCT      = ':SYS',
       35      463                 STCLASS   ="CONSTANT SYMDEF");
       36      476        %FPT_READ                              (FPTN=OD_READCSCG,
       37      477                 DCB       = M$CSCG,
PL6.E3A0      #001=OD_DATA_D File=OD_DATA_D.:E05TSI                              WED 07/30/97 04:13 Page:7
       38      478                 WAIT      = YES,
       39      479                 BUF       = OD_CSCGBUF,
       40      480                 STCLASS   ="CONSTANT SYMDEF");
       41      519        %VLP_PSEUDO                            (FPTN=OD_PSEUDOS,
       42      520                 N         = 8,
       43      521                 STCLASS   ="STATIC SYMDEF");
       44      537        /**/
       45      538        /**/
       46      539    1   END OD_DATA_D;
       47      540        /**/
       48      541        /**/

PL6.E3A0      #001=OD_DATA_D File=OD_DATA_D.:E05TSI                              WED 07/30/97 04:13 Page:8
--  Include file information  --

   CP_6.:E05TOU  cannot be made into a system file and is referenced.
   OD_SUBS_C.:E05TOU  is referenced.
   OD_MAC_C.:E05TOU  is referenced.
   B$JIT_C.:E05TOU  was found in the system file and is never referenced.
   CP_6_C.:E05TOU  was found in the system file and is referenced.
      No diagnostics issued in procedure OD_DATA_D.
PL6.E3A0      #001=OD_DATA_D File=OD_DATA_D.:E05TSI                              WED 07/30/97 04:13 Page:9

 **** Variables and constants ****

  ****  Section 000  Data  OD_DATA_D

  ****  Scalars and arrays  ****
OctLoc.c.b A Datatyp(siz) R M Lvl/name                 OctLoc.c.b A Datatyp(siz) R M Lvl/name

     2-0-0/d CHAR(140)   r     1 OD_CSCGBUF

  ****  Section 003 RoData OD_DATA_D

  ****  Scalars and arrays  ****
OctLoc.c.b A Datatyp(siz) R M Lvl/name                 OctLoc.c.b A Datatyp(siz) R M Lvl/name

    30-0-0/d STRC(504)   r     1 OD_READCSCG

  ****  BASED and DCB variables  ****

  ****  Scalars and arrays  ****
OctLoc.c.b A Datatyp(siz) R M Lvl/name                 OctLoc.c.b A Datatyp(siz) R M Lvl/name

     0-0-0N  NULL        r     1 M$CSCG


   No code generated for procedure OD_DATA_D .
   Procedure OD_DATA_D is declared NOAUTO and requires 98 words of local(STATIC) storage.

    No errors detected in file OD_DATA_D.:E05TSI    .
PL6.E3A0      #001=OD_DATA_D File=OD_DATA_D.:E05TSI                              WED 07/30/97 04:13 Page:10
          *** CROSS REFERENCE LISTING ***
**     DENOTES     IDENTIFIER DEFINITION
<<                 IDENTIFIER'S VALUE SET
>>                 IDENTIFIER'S VALUE USED
<>                 IDENTIFIER SET AND/OR USED
--                 IDENTIFIER REFERENCED
PL6.E3A0      #001=OD_DATA_D File=OD_DATA_D.:E05TSI                              WED 07/30/97 04:13 Page:11
          MINI XREF LISTING

OD$CXT.HIPRIO
       298**DCL       299--REDEF
OD$CXT.NOTWSN
       295**DCL       296--REDEF
OD_CSCGBUF
       313**DCL       499--DCLINIT   500--DCLINIT
OD_CXT.HIPRIO
       447**DCL       448--REDEF
OD_CXT.NOTWSN
       444**DCL       445--REDEF
OD_CXT_INIT.HIPRIO
       378**DCL       379--REDEF
OD_CXT_INIT.NOTWSN
       375**DCL       376--REDEF
OD_READCSCG.STATION_
       500**DCL       501--REDEF
OD_READCSCG.V
       501**DCL       497--DCLINIT
OD_READCSCG.V.DVBYTE.REREAD#
       512**DCL       512--REDEF
OD_READCSCG.V.INDX#
       510**DCL       510--REDEF
