PL6.E3A0      #002=ORR$BRKMSG File=ORR$REPLAY.:E05TSI                            WED 07/30/97 04:19 Page:479
     3326        1        /*T***********************************************************/
     3327        2        /*T*                                                         */
     3328        3        /*T* Copyright (c) Bull HN Information Systems Inc., 1997    */
     3329        4        /*T*                                                         */
     3330        5        /*T***********************************************************/
     3331        6
     3332        7        ORR$BRKMSG: PROC;
     3333        8
     3334        9        %INCLUDE CP_6;
     3335       90        %INCLUDE CP_6_SUBS;
     3336      630        %INCLUDE OCL_DATA_R;
     3337      655
     3338      656    1   DCL 1 BRKMSG STATIC CALIGNED,
     3339      657    1          2 * CHAR(0) INIT('Break at '),
     3340      658    1          2 TIME CHAR(0) INIT('HH:MM:SS.SS'),
     3341      659    1          2 * CHAR(0) INIT(' '),
     3342      660    1          2 DATE CHAR(0) INIT('MON DD ''YY'),
     3343      661    1          2 * CHAR(0) INIT('!  C to continue.');
     3344      662
     3345      663        %FPT_TIME(FPTN=KEY_TO_MSG,
     3346      664         SOURCE=UTS,TSTAMP=OCL_NORM_KEY.UTS,
     3347      665         DEST=EXT,DATE=BRKMSG.DATE,TIME=BRKMSG.TIME);
     3348      684
     3349      685        %FPT_WRITE(FPTN=WRITE_BRKMSG,
     3350      686         DCB=M$UC,
     3351      687         BUF=BRKMSG);
     3352      718
     3353      719    2      CALL M$TIME(KEY_TO_MSG) WHENALTRETURN DO; END;
     3354      720    2      CALL M$WRITE(WRITE_BRKMSG) WHENALTRETURN DO; END;
     3355      721
     3356      722    1      RETURN;
     3357      723    1   END ORR$BRKMSG;
     3358      724        %EOD;

PL6.E3A0      #002=ORR$BRKMSG File=ORR$REPLAY.:E05TSI                            WED 07/30/97 04:19 Page:480
--  Include file information  --

   OCL_DATA_R.:E05TOU  cannot be made into a system file and is referenced.
   CP_6_SUBS.:E05TOU  is referenced.
   CP_6.:E05TOU  cannot be made into a system file and is referenced.
   B$JIT_C.:E05TOU  was found in the system file and is never referenced.
   CP_6_C.:E05TOU  was found in the system file and is referenced.
      No diagnostics issued in procedure ORR$BRKMSG.

   Procedure ORR$BRKMSG requires 13 words for executable code.
   Procedure ORR$BRKMSG requires 4 words of local(AUTO) storage.

PL6.E3A0      #002=ORR$BRKMSG File=ORR$REPLAY.:E05TSI                            WED 07/30/97 04:19 Page:481

 Object Unit name= ORR$BRKMSG                                 File name= ORR$REPLAY.:E05TOU
 UTS= JUL 30 '97 04:19:23.40 WED                              Compiler= PL-6/E31         Sev=      00
 SharedLib= :SHARED_SYSTEM                                    Alt SharedLib=


    ****  Control sections  ****

 Sect   Type Bound  Init  Size OctSiz  Section name(segment info)
    0   DCB   even  none     0      0  M$UC
    1   Data  even  none    36     44  ORR$BRKMSG
    2   Proc  even  none    13     15  ORR$BRKMSG

    ****  Entry defs  ****

                              Check   Calling
                             calling  sequence
  Sect OctLoc Primary Altret sequence   type   Parms  Name
     2      0   yes            yes      Std        0  ORR$BRKMSG

  ****  Entry refs  ****

         Check        Calling
        calling       sequence
Altret sequence SRef   type   Args  Name
                       nStd      0 X66_AUTO_0
                       nStd      0 X66_ARET

  ****  Data refs  ****

  Flags:  r = read only, s = secondary
Flgs Name                             Flgs Name                             Flgs Name
     M$UC                                  OCL_NORM_KEY
PL6.E3A0      #002=ORR$BRKMSG File=ORR$REPLAY.:E05TSI                            WED 07/30/97 04:19 Page:482

  ****  Segment refs  ****

  Flags:  r = read only, s = secondary
Flgs Name                             Flgs Name                             Flgs Name
     ISSID                                 NULLSID
PL6.E3A0      #002=ORR$BRKMSG File=ORR$REPLAY.:E05TSI                            WED 07/30/97 04:19 Page:483


     3326        1        /*T***********************************************************/
     3327        2        /*T*                                                         */
     3328        3        /*T* Copyright (c) Bull HN Information Systems Inc., 1997    */
     3329        4        /*T*                                                         */
     3330        5        /*T***********************************************************/
     3331        6
     3332        7        ORR$BRKMSG: PROC;

      7  2 000000   000000 700200 xent  ORR$BRKMSG   TSX0  ! X66_AUTO_0
         2 000001   000004 000000                    ZERO    4,0

     3333        8
     3334        9        %INCLUDE CP_6;
     3335       90        %INCLUDE CP_6_SUBS;
     3336      630        %INCLUDE OCL_DATA_R;
     3337      655
     3338      656    1   DCL 1 BRKMSG STATIC CALIGNED,
     3339      657    1          2 * CHAR(0) INIT('Break at '),
     3340      658    1          2 TIME CHAR(0) INIT('HH:MM:SS.SS'),
     3341      659    1          2 * CHAR(0) INIT(' '),
     3342      660    1          2 DATE CHAR(0) INIT('MON DD ''YY'),
     3343      661    1          2 * CHAR(0) INIT('!  C to continue.');
     3344      662
     3345      663        %FPT_TIME(FPTN=KEY_TO_MSG,
     3346      664         SOURCE=UTS,TSTAMP=OCL_NORM_KEY.UTS,
     3347      665         DEST=EXT,DATE=BRKMSG.DATE,TIME=BRKMSG.TIME);
     3348      684
     3349      685        %FPT_WRITE(FPTN=WRITE_BRKMSG,
     3350      686         DCB=M$UC,
     3351      687         BUF=BRKMSG);
     3352      718
     3353      719    2      CALL M$TIME(KEY_TO_MSG) WHENALTRETURN DO; END;

    719  2 000002   000014 630400 1                  EPPR0   KEY_TO_MSG
         2 000003   420004 713400                    CLIMB   alt,+8196
         2 000004   402000 401760                    pmme    nvectors=5
PL6.E3A0      #002=ORR$BRKMSG File=ORR$REPLAY.:E05TSI                            WED 07/30/97 04:19 Page:484
         2 000005   000007 702000 2                  TSX2    s:720
         2 000006   000007 710000 2                  TRA     s:720

     3354      720    2      CALL M$WRITE(WRITE_BRKMSG) WHENALTRETURN DO; END;

    720  2 000007   000030 630400 1                  EPPR0   WRITE_BRKMSG
         2 000010   440001 713400                    CLIMB   alt,write
         2 000011   401400 401760                    pmme    nvectors=4
         2 000012   000014 702000 2                  TSX2    s:722
         2 000013   000014 710000 2                  TRA     s:722

     3355      721
     3356      722    1      RETURN;

    722  2 000014   000000 702200 xent               TSX2  ! X66_ARET
     3357      723    1   END ORR$BRKMSG;
     3358      724        %EOD;

PL6.E3A0      #002=ORR$BRKMSG File=ORR$REPLAY.:E05TSI                            WED 07/30/97 04:19 Page:485
--  Include file information  --

   OCL_DATA_R.:E05TOU  cannot be made into a system file and is referenced.
   CP_6_SUBS.:E05TOU  is referenced.
   CP_6.:E05TOU  cannot be made into a system file and is referenced.
   B$JIT_C.:E05TOU  was found in the system file and is never referenced.
   CP_6_C.:E05TOU  was found in the system file and is referenced.
      No diagnostics issued in procedure ORR$BRKMSG.
PL6.E3A0      #002=ORR$BRKMSG File=ORR$REPLAY.:E05TSI                            WED 07/30/97 04:19 Page:486

 **** Variables and constants ****

  ****  Section 001  Data  ORR$BRKMSG

  ****  Scalars and arrays  ****
OctLoc.c.b A Datatyp(siz) R M Lvl/name                 OctLoc.c.b A Datatyp(siz) R M Lvl/name

     0-0-0/c STRC(432)   r     1 BRKMSG                    14-0-0/d STRC(432)   r     1 KEY_TO_MSG
    30-0-0/d STRC(432)   r     1 WRITE_BRKMSG

  ****  SYMREF variables  ****

  ****  Scalars and arrays  ****
OctLoc.c.b A Datatyp(siz) R M Lvl/name                 OctLoc.c.b A Datatyp(siz) R M Lvl/name

     0-0-0/b STRC(45)    r     1 OCL_NORM_KEY

  ****  BASED and DCB variables  ****

  ****  Scalars and arrays  ****
OctLoc.c.b A Datatyp(siz) R M Lvl/name                 OctLoc.c.b A Datatyp(siz) R M Lvl/name

     0-0-0N  NULL        r     1 M$UC


   Procedure ORR$BRKMSG requires 13 words for executable code.
   Procedure ORR$BRKMSG requires 4 words of local(AUTO) storage.
PL6.E3A0      #002=ORR$BRKMSG File=ORR$REPLAY.:E05TSI                            WED 07/30/97 04:19 Page:487
          *** CROSS REFERENCE LISTING ***
**     DENOTES     IDENTIFIER DEFINITION
<<                 IDENTIFIER'S VALUE SET
>>                 IDENTIFIER'S VALUE USED
<>                 IDENTIFIER SET AND/OR USED
--                 IDENTIFIER REFERENCED
PL6.E3A0      #002=ORR$BRKMSG File=ORR$REPLAY.:E05TSI                            WED 07/30/97 04:19 Page:488
          MINI XREF LISTING

BRKMSG
       656**DCL       705--DCLINIT   706--DCLINIT
BRKMSG.DATE
       660**DCL       676--DCLINIT   677--DCLINIT
BRKMSG.TIME
       658**DCL       678--DCLINIT   679--DCLINIT
KEY_TO_MSG
       676**DCL       719<>CALL
KEY_TO_MSG.V
       680**DCL       676--DCLINIT
M$TIME
        85**DCL-ENT   719--CALL
M$WRITE
        19**DCL-ENT   720--CALL
OCL_HIST_BUF.STAT
       648**DCL       649--REDEF
OCL_MSGB.ERR
       646**DCL       647--REDEF
OCL_NORM_KEY.UTS
       647**DCL       680--DCLINIT
WRITE_BRKMSG
       704**DCL       720<>CALL
WRITE_BRKMSG.STATION_
       706**DCL       706--REDEF
WRITE_BRKMSG.V
       707**DCL       704--DCLINIT
WRITE_BRKMSG.V.DVBYTE.VFC#
       713**DCL       713--REDEF

PL6.E3A0      #003=OCC$TWSN2WSN File=ORR$REPLAY.:E05TSI                          WED 07/30/97 04:19 Page:489
     3359        1        /*T***********************************************************/
     3360        2        /*T*                                                         */
     3361        3        /*T* Copyright (c) Bull HN Information Systems Inc., 1997    */
     3362        4        /*T*                                                         */
     3363        5        /*T***********************************************************/
     3364        6
     3365        7        OCC$TWSN2WSN: PROC(ONE,TWO) ALTRET;
     3366        8    1   DCL ONE CHAR(8) UNAL;
     3367        9    1   DCL TWO CHAR(8) UNAL;
     3368       10    1      RETURN;
     3369       11    1   END OCC$TWSN2WSN;
     3370       12        %EOD;

PL6.E3A0      #003=OCC$TWSN2WSN File=ORR$REPLAY.:E05TSI                          WED 07/30/97 04:19 Page:490
--  Include file information  --

   B$JIT_C.:E05TOU  was found in the system file and is never referenced.
   CP_6_C.:E05TOU  was found in the system file and is never referenced.
      No diagnostics issued in procedure OCC$TWSN2WSN.

   Procedure OCC$TWSN2WSN requires 3 words for executable code.
   Procedure OCC$TWSN2WSN requires 6 words of local(AUTO) storage.

PL6.E3A0      #003=OCC$TWSN2WSN File=ORR$REPLAY.:E05TSI                          WED 07/30/97 04:19 Page:491

 Object Unit name= OCC$TWSN2WSN                               File name= ORR$REPLAY.:E05TOU
 UTS= JUL 30 '97 04:19:32.80 WED                              Compiler= PL-6/E31         Sev=      00
 SharedLib= :SHARED_SYSTEM                                    Alt SharedLib=


    ****  Control sections  ****

 Sect   Type Bound  Init  Size OctSiz  Section name(segment info)
    0   Proc  even  none     3      3  OCC$TWSN2WSN

    ****  Entry defs  ****

                              Check   Calling
                             calling  sequence
  Sect OctLoc Primary Altret sequence   type   Parms  Name
     0      0   yes    yes     yes      Std        2  OCC$TWSN2WSN

  ****  Entry refs  ****

         Check        Calling
        calling       sequence
Altret sequence SRef   type   Args  Name
                       nStd      0 X66_AUTO_2
                       nStd      0 X66_ARET
PL6.E3A0      #003=OCC$TWSN2WSN File=ORR$REPLAY.:E05TSI                          WED 07/30/97 04:19 Page:492


     3359        1        /*T***********************************************************/
     3360        2        /*T*                                                         */
     3361        3        /*T* Copyright (c) Bull HN Information Systems Inc., 1997    */
     3362        4        /*T*                                                         */
     3363        5        /*T***********************************************************/
     3364        6
     3365        7        OCC$TWSN2WSN: PROC(ONE,TWO) ALTRET;

      7  0 000000   000000 700200 xent  OCC$TWSN2WSN TSX0  ! X66_AUTO_2
         0 000001   000006 000002                    ZERO    6,2

     3366        8    1   DCL ONE CHAR(8) UNAL;
     3367        9    1   DCL TWO CHAR(8) UNAL;
     3368       10    1      RETURN;

     10  0 000002   000000 702200 xent               TSX2  ! X66_ARET
     3369       11    1   END OCC$TWSN2WSN;
     3370       12        %EOD;

PL6.E3A0      #003=OCC$TWSN2WSN File=ORR$REPLAY.:E05TSI                          WED 07/30/97 04:19 Page:493
--  Include file information  --

   B$JIT_C.:E05TOU  was found in the system file and is never referenced.
   CP_6_C.:E05TOU  was found in the system file and is never referenced.
      No diagnostics issued in procedure OCC$TWSN2WSN.
PL6.E3A0      #003=OCC$TWSN2WSN File=ORR$REPLAY.:E05TSI                          WED 07/30/97 04:19 Page:494

 **** Variables and constants ****

  ****  Auto variables  ****

  ****  Scalars and arrays  ****
OctLoc.c.b A Datatyp(siz) R M Lvl/name                 OctLoc.c.b A Datatyp(siz) R M Lvl/name

     3-0-0/w PTR         r     1 @ONE                       4-0-0/w PTR         r     1 @TWO
    *0-0-0/c CHAR(8)     r     1 ONE                       *0-0-0/c CHAR(8)     r     1 TWO


   Procedure OCC$TWSN2WSN requires 3 words for executable code.
   Procedure OCC$TWSN2WSN requires 6 words of local(AUTO) storage.
PL6.E3A0      #003=OCC$TWSN2WSN File=ORR$REPLAY.:E05TSI                          WED 07/30/97 04:19 Page:495
          *** CROSS REFERENCE LISTING ***
**     DENOTES     IDENTIFIER DEFINITION
<<                 IDENTIFIER'S VALUE SET
>>                 IDENTIFIER'S VALUE USED
<>                 IDENTIFIER SET AND/OR USED
--                 IDENTIFIER REFERENCED
PL6.E3A0      #003=OCC$TWSN2WSN File=ORR$REPLAY.:E05TSI                          WED 07/30/97 04:19 Page:496
          MINI XREF LISTING

ONE
         8**DCL         7--PROC
TWO
         9**DCL         7--PROC

PL6.E3A0      #004=ORR$ABRKRTN File=ORR$REPLAY.:E05TSI                           WED 07/30/97 04:19 Page:497
     3371        1        /*T***********************************************************/
     3372        2        /*T*                                                         */
     3373        3        /*T* Copyright (c) Bull HN Information Systems Inc., 1997    */
     3374        4        /*T*                                                         */
     3375        5        /*T***********************************************************/
     3376        6
     3377        7        ORR$ABRKRTN: PROC ASYNC;
     3378        8
     3379        9        %INCLUDE CP_6;
     3380       90        %INCLUDE CP_6_SUBS;
     3381      630        %INCLUDE OR_DAT_R;
     3382      640        %F$DCB;
     3383      697    1   DCL ORR$BRKRTN ENTRY;
     3384      698
     3385      699        %FPT_TRMPRG (FPTN=RESET_BREAKS,
     3386      700         RSTBRK=YES);
     3387      729
     3388      730    2      DO INHIBIT;
     3389      731    2         IF OR_BREAKING OR OR_IN_XCON THEN
     3390      732    3         CALL M$TRMPRG (RESET_BREAKS) WHENALTRETURN DO; END;
     3391      733    2         ELSE IF OR_OK_TO_BREAK THEN CALL ORR$BRKRTN;
     3392      734    2         ELSE OR_BRK_FLAG = %YES#;
     3393      735    2         RETURN;
     3394      736    2      END /* INHIBIT */;
     3395      737    1   END ORR$ABRKRTN;
     3396      738        %EOD;

PL6.E3A0      #004=ORR$ABRKRTN File=ORR$REPLAY.:E05TSI                           WED 07/30/97 04:19 Page:498
--  Include file information  --

   OR_DAT_R.:E05TOU  cannot be made into a system file and is referenced.
   CP_6_SUBS.:E05TOU  is referenced.
   CP_6.:E05TOU  cannot be made into a system file and is referenced.
   B$JIT_C.:E05TOU  was found in the system file and is never referenced.
   CP_6_C.:E05TOU  was found in the system file and is referenced.
      No diagnostics issued in procedure ORR$ABRKRTN.

   Procedure ORR$ABRKRTN requires 22 words for executable code.
   Procedure ORR$ABRKRTN requires 4 words of local(AUTO) storage.

PL6.E3A0      #004=ORR$ABRKRTN File=ORR$REPLAY.:E05TSI                           WED 07/30/97 04:19 Page:499

 Object Unit name= ORR$ABRKRTN                                File name= ORR$REPLAY.:E05TOU
 UTS= JUL 30 '97 04:19:34.84 WED                              Compiler= PL-6/E31         Sev=      00
 SharedLib= :SHARED_SYSTEM                                    Alt SharedLib=


    ****  Control sections  ****

 Sect   Type Bound  Init  Size OctSiz  Section name(segment info)
    0   DCB   even  none     0      0  M$UC
    1   Data  even  none     8     10  ORR$ABRKRTN
    2   Proc  even  none    22     26  ORR$ABRKRTN

    ****  Entry defs  ****

                              Check   Calling
                             calling  sequence
  Sect OctLoc Primary Altret sequence   type   Parms  Name
     2      0   yes            yes     Async       0  ORR$ABRKRTN

  ****  Entry refs  ****

         Check        Calling
        calling       sequence
Altret sequence SRef   type   Args  Name
         yes           Std       0 ORR$BRKRTN
                       nStd      0 X66_AAUTO
                       Std       0 B_CONSPOOL_D
                       nStd      0 X66_AARET

  ****  Data refs  ****

  Flags:  r = read only, s = secondary
Flgs Name                             Flgs Name                             Flgs Name
     M$UC                                  OR_BRK_FLAG                           OR_OK_TO_BREAK
     OR_BREAKING                           OR_IN_XCON                            B_VECTNIL
PL6.E3A0      #004=ORR$ABRKRTN File=ORR$REPLAY.:E05TSI                           WED 07/30/97 04:19 Page:500

  ****  Segment refs  ****

  Flags:  r = read only, s = secondary
Flgs Name                             Flgs Name                             Flgs Name
     ISSID                                 NULLSID
PL6.E3A0      #004=ORR$ABRKRTN File=ORR$REPLAY.:E05TSI                           WED 07/30/97 04:19 Page:501


     3371        1        /*T***********************************************************/
     3372        2        /*T*                                                         */
     3373        3        /*T* Copyright (c) Bull HN Information Systems Inc., 1997    */
     3374        4        /*T*                                                         */
     3375        5        /*T***********************************************************/
     3376        6
     3377        7        ORR$ABRKRTN: PROC ASYNC;

      7  2 000000   000000 700200 xent  ORR$ABRKRTN  TSX0  ! X66_AAUTO
         2 000001   000004 000000                    ZERO    4,0

     3378        8
     3379        9        %INCLUDE CP_6;
     3380       90        %INCLUDE CP_6_SUBS;
     3381      630        %INCLUDE OR_DAT_R;
     3382      640        %F$DCB;
     3383      697    1   DCL ORR$BRKRTN ENTRY;
     3384      698
     3385      699        %FPT_TRMPRG (FPTN=RESET_BREAKS,
     3386      700         RSTBRK=YES);
     3387      729
     3388      730    2      DO INHIBIT;

     3389      731    2         IF OR_BREAKING OR OR_IN_XCON THEN

    731  2 000002   000000 234200 xsym               SZN   ! OR_BREAKING
         2 000003   000006 604200 2                  TMI   ! s:732
         2 000004   000000 234200 xsym               SZN   ! OR_IN_XCON
         2 000005   000014 605200 2                  TPL   ! s:733

     3390      732    3         CALL M$TRMPRG (RESET_BREAKS) WHENALTRETURN DO; END;

    732  2 000006   000000 630600 1                  EPPR0 ! RESET_BREAKS
         2 000007   560004 713600                    CLIMB ! alt,+57348
         2 000010   400400 401760                    pmme    nvectors=2
         2 000011   000013 702200 2                  TSX2  ! s:732+5
PL6.E3A0      #004=ORR$ABRKRTN File=ORR$REPLAY.:E05TSI                           WED 07/30/97 04:19 Page:502
         2 000012   000013 710200 2                  TRA   ! s:732+5

    732  2 000013   000024 710200 2                  TRA   ! s:735

     3391      733    2         ELSE IF OR_OK_TO_BREAK THEN CALL ORR$BRKRTN;

    733  2 000014   000000 234200 xsym               SZN   ! OR_OK_TO_BREAK
         2 000015   000022 605200 2                  TPL   ! s:734

    733  2 000016   000002 631600 xsym               EPPR1 ! B_VECTNIL+2
         2 000017   000000 701200 xent               TSX1  ! ORR$BRKRTN
         2 000020   000000 011200                    NOP   ! 0
         2 000021   000024 710200 2                  TRA   ! s:735

     3392      734    2         ELSE OR_BRK_FLAG = %YES#;

    734  2 000022   400000 236203                    LDQ   ! -131072,DU
         2 000023   000000 756200 xsym               STQ   ! OR_BRK_FLAG

     3393      735    2         RETURN;

    735  2 000024   000000 702200 xent               TSX2  ! X66_AARET

     3394      736    2      END /* INHIBIT */;

     3395      737    1   END ORR$ABRKRTN;

    737  2 000025   000000 702200 xent               TSX2  ! X66_AARET
     3396      738        %EOD;

PL6.E3A0      #004=ORR$ABRKRTN File=ORR$REPLAY.:E05TSI                           WED 07/30/97 04:19 Page:503
--  Include file information  --

   OR_DAT_R.:E05TOU  cannot be made into a system file and is referenced.
   CP_6_SUBS.:E05TOU  is referenced.
   CP_6.:E05TOU  cannot be made into a system file and is referenced.
   B$JIT_C.:E05TOU  was found in the system file and is never referenced.
   CP_6_C.:E05TOU  was found in the system file and is referenced.
      No diagnostics issued in procedure ORR$ABRKRTN.
PL6.E3A0      #004=ORR$ABRKRTN File=ORR$REPLAY.:E05TSI                           WED 07/30/97 04:19 Page:504

 **** Variables and constants ****

  ****  Section 001  Data  ORR$ABRKRTN

  ****  Scalars and arrays  ****
OctLoc.c.b A Datatyp(siz) R M Lvl/name                 OctLoc.c.b A Datatyp(siz) R M Lvl/name

     0-0-0/d STRC(288)   r     1 RESET_BREAKS

  ****  SYMREF variables  ****

  ****  Scalars and arrays  ****
OctLoc.c.b A Datatyp(siz) R M Lvl/name                 OctLoc.c.b A Datatyp(siz) R M Lvl/name

     0-0-0/c BIT         r     1 OR_BREAKING                0-0-0/c BIT         r     1 OR_BRK_FLAG
     0-0-0/c BIT         r     1 OR_IN_XCON                 0-0-0/c BIT         r     1 OR_OK_TO_BREAK

  ****  BASED and DCB variables  ****

  ****  Scalars and arrays  ****
OctLoc.c.b A Datatyp(siz) R M Lvl/name                 OctLoc.c.b A Datatyp(siz) R M Lvl/name

     0-0-0/d ASTR(3528)  r     1 F$DCB                      0-0-0N  NULL        r     1 M$UC


   Procedure ORR$ABRKRTN requires 22 words for executable code.
   Procedure ORR$ABRKRTN requires 4 words of local(AUTO) storage.
PL6.E3A0      #004=ORR$ABRKRTN File=ORR$REPLAY.:E05TSI                           WED 07/30/97 04:19 Page:505
          *** CROSS REFERENCE LISTING ***
**     DENOTES     IDENTIFIER DEFINITION
<<                 IDENTIFIER'S VALUE SET
>>                 IDENTIFIER'S VALUE USED
<>                 IDENTIFIER SET AND/OR USED
--                 IDENTIFIER REFERENCED
PL6.E3A0      #004=ORR$ABRKRTN File=ORR$REPLAY.:E05TSI                           WED 07/30/97 04:19 Page:506
          MINI XREF LISTING

F$DCB.ACTPOS
       673**DCL       673--REDEF
F$DCB.ARS#
       647**DCL       647--REDEF
F$DCB.ATTR
       666**DCL       667--REDEF
F$DCB.BORROW
       681**DCL       681--REDEF     681--REDEF     681--REDEF
F$DCB.DCBNAME.L
       695**DCL       695--IMP-SIZ
F$DCB.EOMCHAR#
       651**DCL       651--REDEF
F$DCB.FLDID
       676**DCL       676--REDEF
F$DCB.FORM$
       670**DCL       670--REDEF
F$DCB.FSECT
       686**DCL       686--REDEF
F$DCB.FSN#
       663**DCL       663--REDEF     663--REDEF     664--REDEF
F$DCB.HEADER$
       669**DCL       669--REDEF
F$DCB.IXTNSIZE#
       667**DCL       667--REDEF
F$DCB.LASTSTA$
       656**DCL       656--REDEF
F$DCB.LVL
       682**DCL       682--REDEF
F$DCB.NAME#.C
       657**DCL       657--REDEF
F$DCB.NOEOF
       679**DCL       679--REDEF
PL6.E3A0      #004=ORR$ABRKRTN File=ORR$REPLAY.:E05TSI                           WED 07/30/97 04:19 Page:507
F$DCB.NRECS#
       668**DCL       668--REDEF
F$DCB.NRECX
       687**DCL       687--REDEF
F$DCB.OHDR
       679**DCL       679--REDEF
F$DCB.ORG#
       662**DCL       662--REDEF
F$DCB.PRECNO
       685**DCL       685--REDEF
F$DCB.RCSZ
       691**DCL       691--REDEF
F$DCB.RES#
       658**DCL       658--REDEF
F$DCB.SETX
       670**DCL       670--REDEF
F$DCB.TAB$
       670**DCL       670--REDEF
F$DCB.TDA
       684**DCL       685--REDEF
F$DCB.WSN#
       658**DCL       658--REDEF
M$TRMPRG
        43**DCL-ENT   732--CALL
ORR$BRKRTN
       697**DCL-ENT   733--CALL
OR_BREAKING
       639**DCL       731>>IF
OR_BRK_FLAG
       638**DCL       734<<ASSIGN
OR_IN_XCON
       639**DCL       731>>IF
OR_OK_TO_BREAK
       638**DCL       733>>IF
RESET_BREAKS
       716**DCL       732<>CALL
PL6.E3A0      #004=ORR$ABRKRTN File=ORR$REPLAY.:E05TSI                           WED 07/30/97 04:19 Page:508
RESET_BREAKS.V
       723**DCL       718--DCLINIT
RESET_BREAKS.V.CTLFLG.RSTBRK#
       724**DCL       725--REDEF

PL6.E3A0      #005=ORR$BRKRTN File=ORR$REPLAY.:E05TSI                            WED 07/30/97 04:19 Page:509
     3397        1        /*T***********************************************************/
     3398        2        /*T*                                                         */
     3399        3        /*T* Copyright (c) Bull HN Information Systems Inc., 1997    */
     3400        4        /*T*                                                         */
     3401        5        /*T***********************************************************/
     3402        6
     3403        7        ORR$BRKRTN: PROC;
     3404        8
     3405        9        %INCLUDE CP_6;
     3406       90        %INCLUDE CP_6_SUBS;
     3407      630        %INCLUDE OC_SUBS_C;
     3408     1361        %INCLUDE OC_MESSHD_C;
     3409     1414        %INCLUDE OR_DAT_R;
     3410     1424        %F$DCB;
     3411     1481    1   DCL F$HISTFILE DCB;
     3412     1482    1   DCL F$TEMPLATE DCB;
     3413     1483    1   DCL M$CSCG DCB;
     3414     1484    1   DCL REM_START REMEMBER SYMREF;
     3415     1485        %OC_MESSHD_W (NAME=OR_MESSBUF,
     3416     1486         DELIM=";");
     3417     1499
     3418     1500        %FPT_OPEN (FPTN=CS_OPEN,
     3419     1501         DCB=M$CSCG,
     3420     1502         ASN=COMGROUP,
     3421     1503         SETSTA=KSST,
     3422     1504         FUN=UPDATE,
     3423     1505         SHARE=ALL,
     3424     1506         ACCT=CSACCT,
     3425     1507         NAME=CSCGNM);
     3426     1616
     3427     1617        %VLP_NAME (FPTN=CSCGNM,
     3428     1618         NAME='CSCG');
     3429     1645
     3430     1646        %VLP_SETSTA (FPTN=KSST,
     3431     1647         STCLASS=CONSTANT,
     3432     1648         MYSTATION='OREPLAY');
     3433     1676
PL6.E3A0      #005=ORR$BRKRTN File=ORR$REPLAY.:E05TSI                            WED 07/30/97 04:19 Page:510
     3434     1677        %VLP_ACCT (FPTN=CSACCT,
     3435     1678         ACCT=':SYS');
     3436     1691
     3437     1692        %FPT_WRITE (FPTN=WRITE_CS,
     3438     1693         DCB=M$CSCG,
     3439     1694         STATION=STA,
     3440     1695         BP=YES,
     3441     1696         BUF=OR_MESSBUF);
     3442     1727
     3443     1728        %VLP_STATION (FPTN=STA,
     3444     1729         STATION='KEYIN');
     3445     1756
     3446     1757        %FPT_CLOSE (FPTN=CS_CLOSE,
     3447     1758         DCB=M$CSCG);
     3448     1800
     3449     1801        %FPT_CLOSE (FPTN=CLOSE_HIST,
     3450     1802         DCB=F$HISTFILE);
     3451     1844
     3452     1845        %FPT_CLOSE (FPTN=CLOSE_OCMSG,
     3453     1846         DCB=F$TEMPLATE);
     3454     1888
     3455     1889        %FPT_CLOSE (FPTN=CLOSE_CSCG,
     3456     1890         DCB=M$CSCG);
     3457     1932
     3458     1933
     3459     1934    2      DO INHIBIT;
     3460     1935    2         OR_BRK_FLAG = %NO#;
     3461     1936    2         OR_BREAKING = %YES#;
     3462     1937    2         IF DCBADDR (DCBNUM (F$HISTFILE)) -> F$DCB.FCD#
     3463     1938    3         THEN CALL M$CLOSE (CLOSE_HIST) WHENALTRETURN DO; END;
     3464     1939
     3465     1940    2         IF DCBADDR (DCBNUM (M$CSCG)) -> F$DCB.FCD#
     3466     1941    2         THEN CALL M$CLOSE (CS_CLOSE);
     3467     1942
     3468     1943    2         IF OCHIST_FLAG
     3469     1944    2         THEN
     3470     1945    3         DO INHIBIT;
PL6.E3A0      #005=ORR$BRKRTN File=ORR$REPLAY.:E05TSI                            WED 07/30/97 04:19 Page:511
     3471     1946    3            CALL M$OPEN (CS_OPEN);
     3472     1947    3            OR_MESSBUF.FCN = OC_START_EXCLU;
     3473     1948    3            OCHIST_FLAG = %NO#;
     3474     1949    3            CALL M$WRITE (WRITE_CS);
     3475     1950    3            CALL M$CLOSE (CS_CLOSE);
     3476     1951    3         END;
     3477     1952
     3478     1953    2         IF DCBADDR (DCBNUM (F$TEMPLATE)) -> F$DCB.FCD#
     3479     1954    3         THEN CALL M$CLOSE (CLOSE_OCMSG) WHENALTRETURN DO; END;
     3480     1955
     3481     1956    2         IF DCBADDR (DCBNUM (M$CSCG)) -> F$DCB.FCD#
     3482     1957    3         THEN CALL M$CLOSE (CS_CLOSE) WHENALTRETURN DO; END;
     3483     1958
     3484     1959    3         DO INHIBIT;
     3485     1960    3            OR_BREAKING = %NO#;
     3486     1961    4            CALL M$CLRSTK WHENALTRETURN DO; END;
     3487     1962    3            UNWIND TO REM_START;
     3488     1963    3         END;
     3489     1964    2      END;
     3490     1965    1   END ORR$BRKRTN;
     3491     1966        %EOD;

PL6.E3A0      #005=ORR$BRKRTN File=ORR$REPLAY.:E05TSI                            WED 07/30/97 04:19 Page:512
--  Include file information  --

   OR_DAT_R.:E05TOU  cannot be made into a system file and is referenced.
   OC_MESSHD_C.:E05TOU  is referenced.
   OC_SUBS_C.:E05TOU  is referenced.
   CP_6_SUBS.:E05TOU  is referenced.
   CP_6.:E05TOU  cannot be made into a system file and is referenced.
   B$JIT_C.:E05TOU  was found in the system file and is never referenced.
   CP_6_C.:E05TOU  was found in the system file and is referenced.
      No diagnostics issued in procedure ORR$BRKRTN.

   Procedure ORR$BRKRTN requires 74 words for executable code.
   Procedure ORR$BRKRTN requires 4 words of local(AUTO) storage.

PL6.E3A0      #005=ORR$BRKRTN File=ORR$REPLAY.:E05TSI                            WED 07/30/97 04:19 Page:513

 Object Unit name= ORR$BRKRTN                                 File name= ORR$REPLAY.:E05TOU
 UTS= JUL 30 '97 04:19:46.36 WED                              Compiler= PL-6/E31         Sev=      00
 SharedLib= :SHARED_SYSTEM                                    Alt SharedLib=


    ****  Control sections  ****

 Sect   Type Bound  Init  Size OctSiz  Section name(segment info)
    0   DCB   even  none     0      0  M$UC
    1   DCB   even  none     0      0  F$HISTFILE
    2   DCB   even  none     0      0  F$TEMPLATE
    3   DCB   even  none     0      0  M$CSCG
    4   Data  even  none   208    320  ORR$BRKRTN
    5  RoData even  UTS     12     14  ORR$BRKRTN
    6   Proc  even  none    74    112  ORR$BRKRTN
    7  RoData even  none     1      1  ORR$BRKRTN

    ****  Entry defs  ****

                              Check   Calling
                             calling  sequence
  Sect OctLoc Primary Altret sequence   type   Parms  Name
     6      0   yes            yes      Std        0  ORR$BRKRTN

  ****  Entry refs  ****

         Check        Calling
        calling       sequence
Altret sequence SRef   type   Args  Name
                       nStd      0 X66_AUTO_0
                       nStd      0 X66_AUNWIND
                       nStd      0 X66_ARET
PL6.E3A0      #005=ORR$BRKRTN File=ORR$REPLAY.:E05TSI                            WED 07/30/97 04:19 Page:514

  ****  Data refs  ****

  Flags:  r = read only, s = secondary
Flgs Name                             Flgs Name                             Flgs Name
     M$UC                                  OCHIST_FLAG                           OR_BRK_FLAG
     OR_BREAKING                           F$HISTFILE                            F$TEMPLATE
     M$CSCG                                REM_START

  ****  Segment refs  ****

  Flags:  r = read only, s = secondary
Flgs Name                             Flgs Name                             Flgs Name
     ISSID                                 NULLSID                               ROSID
PL6.E3A0      #005=ORR$BRKRTN File=ORR$REPLAY.:E05TSI                            WED 07/30/97 04:19 Page:515


     3397        1        /*T***********************************************************/
     3398        2        /*T*                                                         */
     3399        3        /*T* Copyright (c) Bull HN Information Systems Inc., 1997    */
     3400        4        /*T*                                                         */
     3401        5        /*T***********************************************************/
     3402        6
     3403        7        ORR$BRKRTN: PROC;

      7  6 000000   000000 700200 xent  ORR$BRKRTN   TSX0  ! X66_AUTO_0
         6 000001   000004 000000                    ZERO    4,0

     3404        8
     3405        9        %INCLUDE CP_6;
     3406       90        %INCLUDE CP_6_SUBS;
     3407      630        %INCLUDE OC_SUBS_C;
     3408     1361        %INCLUDE OC_MESSHD_C;
     3409     1414        %INCLUDE OR_DAT_R;
     3410     1424        %F$DCB;
     3411     1481    1   DCL F$HISTFILE DCB;
     3412     1482    1   DCL F$TEMPLATE DCB;
     3413     1483    1   DCL M$CSCG DCB;
     3414     1484    1   DCL REM_START REMEMBER SYMREF;
     3415     1485        %OC_MESSHD_W (NAME=OR_MESSBUF,
     3416     1486         DELIM=";");
     3417     1499
     3418     1500        %FPT_OPEN (FPTN=CS_OPEN,
     3419     1501         DCB=M$CSCG,
     3420     1502         ASN=COMGROUP,
     3421     1503         SETSTA=KSST,
     3422     1504         FUN=UPDATE,
     3423     1505         SHARE=ALL,
     3424     1506         ACCT=CSACCT,
     3425     1507         NAME=CSCGNM);
     3426     1616
     3427     1617        %VLP_NAME (FPTN=CSCGNM,
     3428     1618         NAME='CSCG');
PL6.E3A0      #005=ORR$BRKRTN File=ORR$REPLAY.:E05TSI                            WED 07/30/97 04:19 Page:516
     3429     1645
     3430     1646        %VLP_SETSTA (FPTN=KSST,
     3431     1647         STCLASS=CONSTANT,
     3432     1648         MYSTATION='OREPLAY');
     3433     1676
     3434     1677        %VLP_ACCT (FPTN=CSACCT,
     3435     1678         ACCT=':SYS');
     3436     1691
     3437     1692        %FPT_WRITE (FPTN=WRITE_CS,
     3438     1693         DCB=M$CSCG,
     3439     1694         STATION=STA,
     3440     1695         BP=YES,
     3441     1696         BUF=OR_MESSBUF);
     3442     1727
     3443     1728        %VLP_STATION (FPTN=STA,
     3444     1729         STATION='KEYIN');
     3445     1756
     3446     1757        %FPT_CLOSE (FPTN=CS_CLOSE,
     3447     1758         DCB=M$CSCG);
     3448     1800
     3449     1801        %FPT_CLOSE (FPTN=CLOSE_HIST,
     3450     1802         DCB=F$HISTFILE);
     3451     1844
     3452     1845        %FPT_CLOSE (FPTN=CLOSE_OCMSG,
     3453     1846         DCB=F$TEMPLATE);
     3454     1888
     3455     1889        %FPT_CLOSE (FPTN=CLOSE_CSCG,
     3456     1890         DCB=M$CSCG);
     3457     1932
     3458     1933
     3459     1934    2      DO INHIBIT;

     3460     1935    2         OR_BRK_FLAG = %NO#;

   1935  6 000002   000000 450200 xsym               STZ   ! OR_BRK_FLAG

     3461     1936    2         OR_BREAKING = %YES#;
PL6.E3A0      #005=ORR$BRKRTN File=ORR$REPLAY.:E05TSI                            WED 07/30/97 04:19 Page:517

   1936  6 000003   400000 236203                    LDQ   ! -131072,DU
         6 000004   000000 756200 xsym               STQ   ! OR_BREAKING

     3462     1937    2         IF DCBADDR (DCBNUM (F$HISTFILE)) -> F$DCB.FCD#

   1937  6 000005   000000 236207 xsym               LDQ   ! F$HISTFILE,DL
         6 000006   000000 470600 7                  LDP0  ! 0
         6 000007   000000 471700                    LDP1  ! 0,,PR0
         6 000010   100000 473706                    LDP3  ! 0,QL,PR1
         6 000011   300031 236300                    LDQ   ! 25,,PR3
         6 000012   020000 316207                    CANQ  ! 8192,DL
         6 000013   000021 600200 6                  TZE   ! s:1940

     3463     1938    3         THEN CALL M$CLOSE (CLOSE_HIST) WHENALTRETURN DO; END;

   1938  6 000014   000166 630600 4                  EPPR0 ! CLOSE_HIST
         6 000015   450001 713600                    CLIMB ! alt,close
         6 000016   406000 401760                    pmme    nvectors=13
         6 000017   000021 702200 6                  TSX2  ! s:1940
         6 000020   000021 710200 6                  TRA   ! s:1940

     3464     1939
     3465     1940    2         IF DCBADDR (DCBNUM (M$CSCG)) -> F$DCB.FCD#

   1940  6 000021   000000 236207 xsym               LDQ   ! M$CSCG,DL
         6 000022   000000 470600 7                  LDP0  ! 0
         6 000023   000000 471700                    LDP1  ! 0,,PR0
         6 000024   100000 473706                    LDP3  ! 0,QL,PR1
         6 000025   300031 236300                    LDQ   ! 25,,PR3
         6 000026   020000 316207                    CANQ  ! 8192,DL
         6 000027   000033 600200 6                  TZE   ! s:1943

     3466     1941    2         THEN CALL M$CLOSE (CS_CLOSE);

   1941  6 000030   000130 630600 4                  EPPR0 ! CS_CLOSE
         6 000031   050001 713600                    CLIMB ! close
PL6.E3A0      #005=ORR$BRKRTN File=ORR$REPLAY.:E05TSI                            WED 07/30/97 04:19 Page:518
         6 000032   406000 401760                    pmme    nvectors=13

     3467     1942
     3468     1943    2         IF OCHIST_FLAG

   1943  6 000033   000000 234200 xsym               SZN   ! OCHIST_FLAG
         6 000034   000051 605200 6                  TPL   ! s:1953

     3469     1944    2         THEN
     3470     1945    3         DO INHIBIT;

     3471     1946    3            CALL M$OPEN (CS_OPEN);

   1946  6 000035   000006 630600 4                  EPPR0 ! CS_OPEN
         6 000036   050000 713600                    CLIMB ! open
         6 000037   410400 401760                    pmme    nvectors=18

     3472     1947    3            OR_MESSBUF.FCN = OC_START_EXCLU;

   1947  6 000040   000012 236207                    LDQ   ! 10,DL
         6 000041   000001 552204 4                  STBQ  ! OR_MESSBUF+1,'04'O

     3473     1948    3            OCHIST_FLAG = %NO#;

   1948  6 000042   000000 450200 xsym               STZ   ! OCHIST_FLAG

     3474     1949    3            CALL M$WRITE (WRITE_CS);

   1949  6 000043   000104 630600 4                  EPPR0 ! WRITE_CS
         6 000044   040001 713600                    CLIMB ! write
         6 000045   401400 401760                    pmme    nvectors=4

     3475     1950    3            CALL M$CLOSE (CS_CLOSE);

   1950  6 000046   000130 630600 4                  EPPR0 ! CS_CLOSE
         6 000047   050001 713600                    CLIMB ! close
         6 000050   406000 401760                    pmme    nvectors=13
PL6.E3A0      #005=ORR$BRKRTN File=ORR$REPLAY.:E05TSI                            WED 07/30/97 04:19 Page:519

     3476     1951    3         END;

     3477     1952
     3478     1953    2         IF DCBADDR (DCBNUM (F$TEMPLATE)) -> F$DCB.FCD#

   1953  6 000051   000000 236207 xsym               LDQ   ! F$TEMPLATE,DL
         6 000052   000000 470600 7                  LDP0  ! 0
         6 000053   000000 471700                    LDP1  ! 0,,PR0
         6 000054   100000 473706                    LDP3  ! 0,QL,PR1
         6 000055   300031 236300                    LDQ   ! 25,,PR3
         6 000056   020000 316207                    CANQ  ! 8192,DL
         6 000057   000065 600200 6                  TZE   ! s:1956

     3479     1954    3         THEN CALL M$CLOSE (CLOSE_OCMSG) WHENALTRETURN DO; END;

   1954  6 000060   000224 630600 4                  EPPR0 ! CLOSE_OCMSG
         6 000061   450001 713600                    CLIMB ! alt,close
         6 000062   406000 401760                    pmme    nvectors=13
         6 000063   000065 702200 6                  TSX2  ! s:1956
         6 000064   000065 710200 6                  TRA   ! s:1956

     3480     1955
     3481     1956    2         IF DCBADDR (DCBNUM (M$CSCG)) -> F$DCB.FCD#

   1956  6 000065   000000 236207 xsym               LDQ   ! M$CSCG,DL
         6 000066   000000 470600 7                  LDP0  ! 0
         6 000067   000000 471700                    LDP1  ! 0,,PR0
         6 000070   100000 473706                    LDP3  ! 0,QL,PR1
         6 000071   300031 236300                    LDQ   ! 25,,PR3
         6 000072   020000 316207                    CANQ  ! 8192,DL
         6 000073   000101 600200 6                  TZE   ! s:1960

     3482     1957    3         THEN CALL M$CLOSE (CS_CLOSE) WHENALTRETURN DO; END;

   1957  6 000074   000130 630600 4                  EPPR0 ! CS_CLOSE
         6 000075   450001 713600                    CLIMB ! alt,close
PL6.E3A0      #005=ORR$BRKRTN File=ORR$REPLAY.:E05TSI                            WED 07/30/97 04:19 Page:520
         6 000076   406000 401760                    pmme    nvectors=13
         6 000077   000101 702200 6                  TSX2  ! s:1960
         6 000100   000101 710200 6                  TRA   ! s:1960

     3483     1958
     3484     1959    3         DO INHIBIT;

     3485     1960    3            OR_BREAKING = %NO#;

   1960  6 000101   000000 450200 xsym               STZ   ! OR_BREAKING

     3486     1961    4            CALL M$CLRSTK WHENALTRETURN DO; END;

   1961  6 000102   410013 713600                    CLIMB ! alt,+4107
         6 000103   000000 401760                    pmme    nvectors=0
         6 000104   000106 702200 6                  TSX2  ! s:1962
         6 000105   000106 710200 6                  TRA   ! s:1962

     3487     1962    3            UNWIND TO REM_START;

   1962  6 000106   000000 237200 xsym               LDAQ  ! REM_START
         6 000107   000000 700200 xent               TSX0  ! X66_AUNWIND
         6 000110   000000 000200                    ZERO    0,128

     3488     1963    3         END;

     3489     1964    2      END;

     3490     1965    1   END ORR$BRKRTN;

   1965  6 000111   000000 702200 xent               TSX2  ! X66_ARET
     3491     1966        %EOD;

PL6.E3A0      #005=ORR$BRKRTN File=ORR$REPLAY.:E05TSI                            WED 07/30/97 04:19 Page:521
--  Include file information  --

   OR_DAT_R.:E05TOU  cannot be made into a system file and is referenced.
   OC_MESSHD_C.:E05TOU  is referenced.
   OC_SUBS_C.:E05TOU  is referenced.
   CP_6_SUBS.:E05TOU  is referenced.
   CP_6.:E05TOU  cannot be made into a system file and is referenced.
   B$JIT_C.:E05TOU  was found in the system file and is never referenced.
   CP_6_C.:E05TOU  was found in the system file and is referenced.
      No diagnostics issued in procedure ORR$BRKRTN.
PL6.E3A0      #005=ORR$BRKRTN File=ORR$REPLAY.:E05TSI                            WED 07/30/97 04:19 Page:522

 **** Variables and constants ****

  ****  Section 004  Data  ORR$BRKRTN

  ****  Scalars and arrays  ****
OctLoc.c.b A Datatyp(siz) R M Lvl/name                 OctLoc.c.b A Datatyp(siz) R M Lvl/name

   262-0-0/d STRC(1080)  r     1 CLOSE_CSCG               166-0-0/d STRC(1080)  r     1 CLOSE_HIST
   224-0-0/d STRC(1080)  r     1 CLOSE_OCMSG              102-0-0/c STRC(72)    r     1 CSACCT
   100-0-0/c STRC(45)    r     1 CSCGNM                   130-0-0/d STRC(1080)  r     1 CS_CLOSE
     6-0-0/d STRC(2088)  r     1 CS_OPEN                    0-0-0/c STRC(180)   r     1 OR_MESSBUF
   120-0-0/w STRC(288)   r     1 STA                      104-0-0/d STRC(432)   r     1 WRITE_CS

  ****  Section 005 RoData ORR$BRKRTN

  ****  Scalars and arrays  ****
OctLoc.c.b A Datatyp(siz) R M Lvl/name                 OctLoc.c.b A Datatyp(siz) R M Lvl/name

     0-0-0/w STRC(432)   r     1 KSST

  ****  SYMREF variables  ****

  ****  Scalars and arrays  ****
OctLoc.c.b A Datatyp(siz) R M Lvl/name                 OctLoc.c.b A Datatyp(siz) R M Lvl/name

     0-0-0/c BIT         r     1 OCHIST_FLAG                0-0-0/c BIT         r     1 OR_BREAKING
     0-0-0/c BIT         r     1 OR_BRK_FLAG                0-0-0/d REMB        r     1 REM_START

  ****  BASED and DCB variables  ****

  ****  Scalars and arrays  ****
OctLoc.c.b A Datatyp(siz) R M Lvl/name                 OctLoc.c.b A Datatyp(siz) R M Lvl/name

     0-0-0/d ASTR(3528)  r     1 F$DCB                      0-0-0N  NULL        r     1 F$HISTFILE
     0-0-0N  NULL        r     1 F$TEMPLATE                 0-0-0N  NULL        r     1 M$CSCG

PL6.E3A0      #005=ORR$BRKRTN File=ORR$REPLAY.:E05TSI                            WED 07/30/97 04:19 Page:523

   Procedure ORR$BRKRTN requires 74 words for executable code.
   Procedure ORR$BRKRTN requires 4 words of local(AUTO) storage.
PL6.E3A0      #005=ORR$BRKRTN File=ORR$REPLAY.:E05TSI                            WED 07/30/97 04:19 Page:524
          *** CROSS REFERENCE LISTING ***
**     DENOTES     IDENTIFIER DEFINITION
<<                 IDENTIFIER'S VALUE SET
>>                 IDENTIFIER'S VALUE USED
<>                 IDENTIFIER SET AND/OR USED
--                 IDENTIFIER REFERENCED
PL6.E3A0      #005=ORR$BRKRTN File=ORR$REPLAY.:E05TSI                            WED 07/30/97 04:19 Page:525
          MINI XREF LISTING

CLOSE_CSCG.SN_
      1913**DCL      1913--REDEF
CLOSE_CSCG.UTL_
      1914**DCL      1914--REDEF
CLOSE_CSCG.V
      1918**DCL      1913--DCLINIT
CLOSE_CSCG.V.EXPIRE#
      1928**DCL      1928--REDEF
CLOSE_CSCG.V.TYPE#
      1926**DCL      1926--REDEF
CLOSE_CSCG.V.XTNSIZE#
      1923**DCL      1923--REDEF    1925--REDEF
CLOSE_HIST
      1825**DCL      1938<>CALL
CLOSE_HIST.SN_
      1825**DCL      1825--REDEF
CLOSE_HIST.UTL_
      1826**DCL      1826--REDEF
CLOSE_HIST.V
      1830**DCL      1825--DCLINIT
CLOSE_HIST.V.EXPIRE#
      1840**DCL      1840--REDEF
CLOSE_HIST.V.TYPE#
      1838**DCL      1838--REDEF
CLOSE_HIST.V.XTNSIZE#
      1835**DCL      1835--REDEF    1837--REDEF
CLOSE_OCMSG
      1869**DCL      1954<>CALL
CLOSE_OCMSG.SN_
      1869**DCL      1869--REDEF
CLOSE_OCMSG.UTL_
      1870**DCL      1870--REDEF
PL6.E3A0      #005=ORR$BRKRTN File=ORR$REPLAY.:E05TSI                            WED 07/30/97 04:19 Page:526
CLOSE_OCMSG.V
      1874**DCL      1869--DCLINIT
CLOSE_OCMSG.V.EXPIRE#
      1884**DCL      1884--REDEF
CLOSE_OCMSG.V.TYPE#
      1882**DCL      1882--REDEF
CLOSE_OCMSG.V.XTNSIZE#
      1879**DCL      1879--REDEF    1881--REDEF
CSACCT
      1689**DCL      1577--DCLINIT
CSCGNM
      1643**DCL      1573--DCLINIT
CS_CLOSE
      1781**DCL      1941<>CALL     1950<>CALL     1957<>CALL
CS_CLOSE.SN_
      1781**DCL      1781--REDEF
CS_CLOSE.UTL_
      1782**DCL      1782--REDEF
CS_CLOSE.V
      1786**DCL      1781--DCLINIT
CS_CLOSE.V.EXPIRE#
      1796**DCL      1796--REDEF
CS_CLOSE.V.TYPE#
      1794**DCL      1794--REDEF
CS_CLOSE.V.XTNSIZE#
      1791**DCL      1791--REDEF    1793--REDEF
CS_OPEN
      1572**DCL      1946<>CALL
CS_OPEN.ACSVEH_
      1574**DCL      1575--REDEF
CS_OPEN.ALTKEYS_
      1580**DCL      1581--REDEF    1581--REDEF
CS_OPEN.HDR_
      1579**DCL      1580--REDEF
CS_OPEN.TAB_
      1578**DCL      1579--REDEF
PL6.E3A0      #005=ORR$BRKRTN File=ORR$REPLAY.:E05TSI                            WED 07/30/97 04:19 Page:527
CS_OPEN.UHL_
      1572**DCL      1573--REDEF    1573--REDEF
CS_OPEN.V
      1581**DCL      1572--DCLINIT
CS_OPEN.V.FSN#
      1612**DCL      1612--REDEF    1612--REDEF
CS_OPEN.WSN_
      1578**DCL      1578--REDEF
F$DCB.ACTPOS
      1457**DCL      1457--REDEF
F$DCB.ARS#
      1431**DCL      1431--REDEF
F$DCB.ATTR
      1450**DCL      1451--REDEF
F$DCB.BORROW
      1465**DCL      1465--REDEF    1465--REDEF    1465--REDEF
F$DCB.DCBNAME.L
      1479**DCL      1479--IMP-SIZ
F$DCB.EOMCHAR#
      1435**DCL      1435--REDEF
F$DCB.FCD#
      1444**DCL      1937>>IF       1940>>IF       1953>>IF       1956>>IF
F$DCB.FLDID
      1460**DCL      1460--REDEF
F$DCB.FORM$
      1454**DCL      1454--REDEF
F$DCB.FSECT
      1470**DCL      1470--REDEF
F$DCB.FSN#
      1447**DCL      1447--REDEF    1447--REDEF    1448--REDEF
F$DCB.HEADER$
      1453**DCL      1453--REDEF
F$DCB.IXTNSIZE#
      1451**DCL      1451--REDEF
F$DCB.LASTSTA$
      1440**DCL      1440--REDEF
PL6.E3A0      #005=ORR$BRKRTN File=ORR$REPLAY.:E05TSI                            WED 07/30/97 04:19 Page:528
F$DCB.LVL
      1466**DCL      1466--REDEF
F$DCB.NAME#.C
      1441**DCL      1441--REDEF
F$DCB.NOEOF
      1463**DCL      1463--REDEF
F$DCB.NRECS#
      1452**DCL      1452--REDEF
F$DCB.NRECX
      1471**DCL      1471--REDEF
F$DCB.OHDR
      1463**DCL      1463--REDEF
F$DCB.ORG#
      1446**DCL      1446--REDEF
F$DCB.PRECNO
      1469**DCL      1469--REDEF
F$DCB.RCSZ
      1475**DCL      1475--REDEF
F$DCB.RES#
      1442**DCL      1442--REDEF
F$DCB.SETX
      1454**DCL      1454--REDEF
F$DCB.TAB$
      1454**DCL      1454--REDEF
F$DCB.TDA
      1468**DCL      1469--REDEF
F$DCB.WSN#
      1442**DCL      1442--REDEF
F$HISTFILE
      1481**DCL      1937--IF
F$TEMPLATE
      1482**DCL      1953--IF
KSST
      1660**DCL      1573--DCLINIT
M$CLOSE
        18**DCL-ENT  1938--CALL     1941--CALL     1950--CALL     1954--CALL     1957--CALL
PL6.E3A0      #005=ORR$BRKRTN File=ORR$REPLAY.:E05TSI                            WED 07/30/97 04:19 Page:529
M$CLRSTK
        76**DCL-ENT  1961--CALL
M$CSCG
      1483**DCL      1940--IF       1956--IF
M$OPEN
        18**DCL-ENT  1946--CALL
M$WRITE
        19**DCL-ENT  1949--CALL
OCHIST_FLAG
      1422**DCL      1943>>IF       1948<<ASSIGN
OR_BREAKING
      1423**DCL      1936<<ASSIGN   1960<<ASSIGN
OR_BRK_FLAG
      1422**DCL      1935<<ASSIGN
OR_MESSBUF
      1487**DCL      1714--DCLINIT  1715--DCLINIT
OR_MESSBUF.FCN
      1493**DCL      1947<<ASSIGN
OR_MESSBUF.FLAGS
      1494**DCL      1495--REDEF
OR_MESSBUF.MSGID
      1490**DCL      1491--REDEF
REM_START
      1484**DCL      1962>>UNWIND
STA
      1741**DCL      1715--DCLINIT
STA.MSGIDXT
      1751**DCL      1754--REDEF
WRITE_CS
      1713**DCL      1949<>CALL
WRITE_CS.STATION_
      1715**DCL      1715--REDEF
WRITE_CS.V
      1716**DCL      1713--DCLINIT
WRITE_CS.V.DVBYTE.VFC#
      1722**DCL      1722--REDEF

PL6.E3A0      #006=ORR$AXCONRTN File=ORR$REPLAY.:E05TSI                          WED 07/30/97 04:20 Page:530
     3492        1        /*T***********************************************************/
     3493        2        /*T*                                                         */
     3494        3        /*T* Copyright (c) Bull HN Information Systems Inc., 1997    */
     3495        4        /*T*                                                         */
     3496        5        /*T***********************************************************/
     3497        6        ORR$AXCONRTN: PROC ASYNC;
     3498        7
     3499        8        %INCLUDE CP_6;
     3500       89        %INCLUDE CP_6_SUBS;
     3501      629        %INCLUDE OR_DAT_R;
     3502      639        %F$DCB;
     3503      696
     3504      697    1   DCL ORR$XCONRTN ENTRY;
     3505      698
     3506      699        %FPT_TRMPRG (FPTN=RESET_BREAKS,
     3507      700         RSTBRK=YES);
     3508      729
     3509      730    2      DO INHIBIT;
     3510      731    2         IF OR_IN_XCON
     3511      732    3         THEN CALL M$TRMPRG (RESET_BREAKS) WHENALTRETURN DO; END;
     3512      733    2         ELSE IF OR_OK_TO_BREAK THEN CALL ORR$XCONRTN;
     3513      734    2         ELSE OR_XCON_FLAG = %YES#;
     3514      735    2         RETURN;
     3515      736    2      END; /*INHIBIT*/
     3516      737    1   END ORR$AXCONRTN;
     3517      738        %EOD;

PL6.E3A0      #006=ORR$AXCONRTN File=ORR$REPLAY.:E05TSI                          WED 07/30/97 04:20 Page:531
--  Include file information  --

   OR_DAT_R.:E05TOU  cannot be made into a system file and is referenced.
   CP_6_SUBS.:E05TOU  is referenced.
   CP_6.:E05TOU  cannot be made into a system file and is referenced.
   B$JIT_C.:E05TOU  was found in the system file and is never referenced.
   CP_6_C.:E05TOU  was found in the system file and is referenced.
      No diagnostics issued in procedure ORR$AXCONRTN.

   Procedure ORR$AXCONRTN requires 20 words for executable code.
   Procedure ORR$AXCONRTN requires 4 words of local(AUTO) storage.

PL6.E3A0      #006=ORR$AXCONRTN File=ORR$REPLAY.:E05TSI                          WED 07/30/97 04:20 Page:532

 Object Unit name= ORR$AXCONRTN                               File name= ORR$REPLAY.:E05TOU
 UTS= JUL 30 '97 04:20:14.48 WED                              Compiler= PL-6/E31         Sev=      00
 SharedLib= :SHARED_SYSTEM                                    Alt SharedLib=


    ****  Control sections  ****

 Sect   Type Bound  Init  Size OctSiz  Section name(segment info)
    0   DCB   even  none     0      0  M$UC
    1   Data  even  none     8     10  ORR$AXCONRTN
    2   Proc  even  none    20     24  ORR$AXCONRTN

    ****  Entry defs  ****

                              Check   Calling
                             calling  sequence
  Sect OctLoc Primary Altret sequence   type   Parms  Name
     2      0   yes            yes     Async       0  ORR$AXCONRTN

  ****  Entry refs  ****

         Check        Calling
        calling       sequence
Altret sequence SRef   type   Args  Name
         yes           Std       0 ORR$XCONRTN
                       nStd      0 X66_AAUTO
                       Std       0 B_CONSPOOL_D
                       nStd      0 X66_AARET

  ****  Data refs  ****

  Flags:  r = read only, s = secondary
Flgs Name                             Flgs Name                             Flgs Name
     M$UC                                  OR_XCON_FLAG                          OR_OK_TO_BREAK
     OR_IN_XCON                            B_VECTNIL
PL6.E3A0      #006=ORR$AXCONRTN File=ORR$REPLAY.:E05TSI                          WED 07/30/97 04:20 Page:533

  ****  Segment refs  ****

  Flags:  r = read only, s = secondary
Flgs Name                             Flgs Name                             Flgs Name
     ISSID                                 NULLSID
PL6.E3A0      #006=ORR$AXCONRTN File=ORR$REPLAY.:E05TSI                          WED 07/30/97 04:20 Page:534


     3492        1        /*T***********************************************************/
     3493        2        /*T*                                                         */
     3494        3        /*T* Copyright (c) Bull HN Information Systems Inc., 1997    */
     3495        4        /*T*                                                         */
     3496        5        /*T***********************************************************/
     3497        6        ORR$AXCONRTN: PROC ASYNC;

      6  2 000000   000000 700200 xent  ORR$AXCONRTN TSX0  ! X66_AAUTO
         2 000001   000004 000000                    ZERO    4,0

     3498        7
     3499        8        %INCLUDE CP_6;
     3500       89        %INCLUDE CP_6_SUBS;
     3501      629        %INCLUDE OR_DAT_R;
     3502      639        %F$DCB;
     3503      696
     3504      697    1   DCL ORR$XCONRTN ENTRY;
     3505      698
     3506      699        %FPT_TRMPRG (FPTN=RESET_BREAKS,
     3507      700         RSTBRK=YES);
     3508      729
     3509      730    2      DO INHIBIT;

     3510      731    2         IF OR_IN_XCON

    731  2 000002   000000 234200 xsym               SZN   ! OR_IN_XCON
         2 000003   000012 605200 2                  TPL   ! s:733

     3511      732    3         THEN CALL M$TRMPRG (RESET_BREAKS) WHENALTRETURN DO; END;

    732  2 000004   000000 630600 1                  EPPR0 ! RESET_BREAKS
         2 000005   560004 713600                    CLIMB ! alt,+57348
         2 000006   400400 401760                    pmme    nvectors=2
         2 000007   000011 702200 2                  TSX2  ! s:732+5
         2 000010   000011 710200 2                  TRA   ! s:732+5

PL6.E3A0      #006=ORR$AXCONRTN File=ORR$REPLAY.:E05TSI                          WED 07/30/97 04:20 Page:535
    732  2 000011   000022 710200 2                  TRA   ! s:735

     3512      733    2         ELSE IF OR_OK_TO_BREAK THEN CALL ORR$XCONRTN;

    733  2 000012   000000 234200 xsym               SZN   ! OR_OK_TO_BREAK
         2 000013   000020 605200 2                  TPL   ! s:734

    733  2 000014   000002 631600 xsym               EPPR1 ! B_VECTNIL+2
         2 000015   000000 701200 xent               TSX1  ! ORR$XCONRTN
         2 000016   000000 011200                    NOP   ! 0
         2 000017   000022 710200 2                  TRA   ! s:735

     3513      734    2         ELSE OR_XCON_FLAG = %YES#;

    734  2 000020   400000 236203                    LDQ   ! -131072,DU
         2 000021   000000 756200 xsym               STQ   ! OR_XCON_FLAG

     3514      735    2         RETURN;

    735  2 000022   000000 702200 xent               TSX2  ! X66_AARET

     3515      736    2      END; /*INHIBIT*/

     3516      737    1   END ORR$AXCONRTN;

    737  2 000023   000000 702200 xent               TSX2  ! X66_AARET
     3517      738        %EOD;

PL6.E3A0      #006=ORR$AXCONRTN File=ORR$REPLAY.:E05TSI                          WED 07/30/97 04:20 Page:536
--  Include file information  --

   OR_DAT_R.:E05TOU  cannot be made into a system file and is referenced.
   CP_6_SUBS.:E05TOU  is referenced.
   CP_6.:E05TOU  cannot be made into a system file and is referenced.
   B$JIT_C.:E05TOU  was found in the system file and is never referenced.
   CP_6_C.:E05TOU  was found in the system file and is referenced.
      No diagnostics issued in procedure ORR$AXCONRTN.
PL6.E3A0      #006=ORR$AXCONRTN File=ORR$REPLAY.:E05TSI                          WED 07/30/97 04:20 Page:537

 **** Variables and constants ****

  ****  Section 001  Data  ORR$AXCONRTN

  ****  Scalars and arrays  ****
OctLoc.c.b A Datatyp(siz) R M Lvl/name                 OctLoc.c.b A Datatyp(siz) R M Lvl/name

     0-0-0/d STRC(288)   r     1 RESET_BREAKS

  ****  SYMREF variables  ****

  ****  Scalars and arrays  ****
OctLoc.c.b A Datatyp(siz) R M Lvl/name                 OctLoc.c.b A Datatyp(siz) R M Lvl/name

     0-0-0/c BIT         r     1 OR_IN_XCON                 0-0-0/c BIT         r     1 OR_OK_TO_BREAK
     0-0-0/c BIT         r     1 OR_XCON_FLAG

  ****  BASED and DCB variables  ****

  ****  Scalars and arrays  ****
OctLoc.c.b A Datatyp(siz) R M Lvl/name                 OctLoc.c.b A Datatyp(siz) R M Lvl/name

     0-0-0/d ASTR(3528)  r     1 F$DCB                      0-0-0N  NULL        r     1 M$UC


   Procedure ORR$AXCONRTN requires 20 words for executable code.
   Procedure ORR$AXCONRTN requires 4 words of local(AUTO) storage.
PL6.E3A0      #006=ORR$AXCONRTN File=ORR$REPLAY.:E05TSI                          WED 07/30/97 04:20 Page:538
          *** CROSS REFERENCE LISTING ***
**     DENOTES     IDENTIFIER DEFINITION
<<                 IDENTIFIER'S VALUE SET
>>                 IDENTIFIER'S VALUE USED
<>                 IDENTIFIER SET AND/OR USED
--                 IDENTIFIER REFERENCED
PL6.E3A0      #006=ORR$AXCONRTN File=ORR$REPLAY.:E05TSI                          WED 07/30/97 04:20 Page:539
          MINI XREF LISTING

F$DCB.ACTPOS
       672**DCL       672--REDEF
F$DCB.ARS#
       646**DCL       646--REDEF
F$DCB.ATTR
       665**DCL       666--REDEF
F$DCB.BORROW
       680**DCL       680--REDEF     680--REDEF     680--REDEF
F$DCB.DCBNAME.L
       694**DCL       694--IMP-SIZ
F$DCB.EOMCHAR#
       650**DCL       650--REDEF
F$DCB.FLDID
       675**DCL       675--REDEF
F$DCB.FORM$
       669**DCL       669--REDEF
F$DCB.FSECT
       685**DCL       685--REDEF
F$DCB.FSN#
       662**DCL       662--REDEF     662--REDEF     663--REDEF
F$DCB.HEADER$
       668**DCL       668--REDEF
F$DCB.IXTNSIZE#
       666**DCL       666--REDEF
F$DCB.LASTSTA$
       655**DCL       655--REDEF
F$DCB.LVL
       681**DCL       681--REDEF
F$DCB.NAME#.C
       656**DCL       656--REDEF
F$DCB.NOEOF
       678**DCL       678--REDEF
PL6.E3A0      #006=ORR$AXCONRTN File=ORR$REPLAY.:E05TSI                          WED 07/30/97 04:20 Page:540
F$DCB.NRECS#
       667**DCL       667--REDEF
F$DCB.NRECX
       686**DCL       686--REDEF
F$DCB.OHDR
       678**DCL       678--REDEF
F$DCB.ORG#
       661**DCL       661--REDEF
F$DCB.PRECNO
       684**DCL       684--REDEF
F$DCB.RCSZ
       690**DCL       690--REDEF
F$DCB.RES#
       657**DCL       657--REDEF
F$DCB.SETX
       669**DCL       669--REDEF
F$DCB.TAB$
       669**DCL       669--REDEF
F$DCB.TDA
       683**DCL       684--REDEF
F$DCB.WSN#
       657**DCL       657--REDEF
M$TRMPRG
        42**DCL-ENT   732--CALL
ORR$XCONRTN
       697**DCL-ENT   733--CALL
OR_IN_XCON
       638**DCL       731>>IF
OR_OK_TO_BREAK
       637**DCL       733>>IF
OR_XCON_FLAG
       637**DCL       734<<ASSIGN
RESET_BREAKS
       716**DCL       732<>CALL
RESET_BREAKS.V
       723**DCL       718--DCLINIT
PL6.E3A0      #006=ORR$AXCONRTN File=ORR$REPLAY.:E05TSI                          WED 07/30/97 04:20 Page:541
RESET_BREAKS.V.CTLFLG.RSTBRK#
       724**DCL       725--REDEF

PL6.E3A0      #007=ORR$XCONRTN File=ORR$REPLAY.:E05TSI                           WED 07/30/97 04:20 Page:542
     3518        1        /*T***********************************************************/
     3519        2        /*T*                                                         */
     3520        3        /*T* Copyright (c) Bull HN Information Systems Inc., 1997    */
     3521        4        /*T*                                                         */
     3522        5        /*T***********************************************************/
     3523        6        ORR$XCONRTN: PROC;
     3524        7
     3525        8        %INCLUDE CP_6;
     3526       89        %INCLUDE CP_6_SUBS;
     3527      629        %INCLUDE OC_SUBS_C;
     3528     1360        %INCLUDE OC_MESSHD_C;
     3529     1413        %INCLUDE OR_DAT_R;
     3530     1423        %F$DCB;
     3531     1480    1   DCL F$HISTFILE DCB;
     3532     1481    1   DCL F$TEMPLATE DCB;
     3533     1482    1   DCL M$CSCG DCB;
     3534     1483
     3535     1484        %OC_MESSHD_W (NAME=OR_MESSBUF,
     3536     1485         DELIM=";");
     3537     1498
     3538     1499        %FPT_OPEN (FPTN=CS_OPEN,
     3539     1500         DCB=M$CSCG,
     3540     1501         ASN=COMGROUP,
     3541     1502         SETSTA=KSST,
     3542     1503         FUN=UPDATE,
     3543     1504         SHARE=ALL,
     3544     1505         ACCT=CSACCT,
     3545     1506         NAME=CSCGNM);
     3546     1615
     3547     1616        %FPT_XCON (FPTN=SET_EXIT);
     3548     1630
     3549     1631
     3550     1632        %VLP_NAME (FPTN=CSCGNM,
     3551     1633         NAME='CSCG');
     3552     1660
     3553     1661        %VLP_SETSTA (FPTN=KSST,
     3554     1662         STCLASS=CONSTANT,
PL6.E3A0      #007=ORR$XCONRTN File=ORR$REPLAY.:E05TSI                           WED 07/30/97 04:20 Page:543
     3555     1663         MYSTATION='OREPLAY');
     3556     1691
     3557     1692        %VLP_ACCT (FPTN=CSACCT,
     3558     1693         ACCT=':SYS');
     3559     1706
     3560     1707        %FPT_WRITE (FPTN=WRITE_CS,
     3561     1708         DCB=M$CSCG,
     3562     1709         STATION=STA,
     3563     1710         BP=YES,
     3564     1711         BUF=OR_MESSBUF);
     3565     1742
     3566     1743        %VLP_STATION (FPTN=STA,
     3567     1744         STATION='KEYIN');
     3568     1771
     3569     1772        %FPT_CLOSE (FPTN=CS_CLOSE,
     3570     1773         DCB=M$CSCG);
     3571     1815
     3572     1816
     3573     1817        %FPT_CLOSE (FPTN=CLOSE_HIST,
     3574     1818         DCB=F$HISTFILE);
     3575     1860
     3576     1861        %FPT_CLOSE (FPTN=CLOSE_OCMSG,
     3577     1862         DCB=F$TEMPLATE);
     3578     1904
     3579     1905        %FPT_CLOSE (FPTN=CLOSE_CSCG,
     3580     1906         DCB=M$CSCG);
     3581     1948
     3582     1949    2      DO INHIBIT;
     3583     1950    2         OR_BREAKING = %NO#;
     3584     1951    2         OR_XCON_FLAG = %NO#;
     3585     1952    2         OR_IN_XCON = %YES#;
     3586     1953    2         OR_BRK_FLAG = %NO#;
     3587     1954
     3588     1955    2         IF DCBADDR (DCBNUM (F$HISTFILE)) -> F$DCB.FCD#
     3589     1956    3         THEN CALL M$CLOSE (CLOSE_HIST) WHENALTRETURN DO; END;
     3590     1957
     3591     1958    3         IF OCHIST_FLAG THEN DO;
PL6.E3A0      #007=ORR$XCONRTN File=ORR$REPLAY.:E05TSI                           WED 07/30/97 04:20 Page:544
     3592     1959    3            OCHIST_FLAG = %NO#;            /* No use trying this twice!          */
     3593     1960
     3594     1961    4            CALL M$OPEN (CS_OPEN) WHENALTRETURN DO; END;
     3595     1962
     3596     1963    3            OR_MESSBUF.FCN = OC_START_EXCLU; /* Give :OCHIST back to KEYIN       */
     3597     1964    4            CALL M$WRITE (WRITE_CS) WHENALTRETURN DO; END;
     3598     1965    3         END;
     3599     1966
     3600     1967    2         IF DCBADDR (DCBNUM (F$TEMPLATE)) -> F$DCB.FCD#
     3601     1968    3         THEN CALL M$CLOSE (CLOSE_OCMSG) WHENALTRETURN DO; END;
     3602     1969
     3603     1970    2         IF DCBADDR (DCBNUM (M$CSCG)) -> F$DCB.FCD#
     3604     1971    3         THEN CALL M$CLOSE (CS_CLOSE) WHENALTRETURN DO; END;
     3605     1972
     3606     1973    3         DO INHIBIT;
     3607     1974    3            OR_IN_XCON = %NO#;
     3608     1975    4            CALL M$XCON (SET_EXIT) WHENALTRETURN DO; END;
     3609     1976    3            CALL M$XXX;
     3610     1977    3         END;
     3611     1978    2      END;
     3612     1979    1   END ORR$XCONRTN;
     3613     1980        %EOD;

PL6.E3A0      #007=ORR$XCONRTN File=ORR$REPLAY.:E05TSI                           WED 07/30/97 04:20 Page:545
--  Include file information  --

   OR_DAT_R.:E05TOU  cannot be made into a system file and is referenced.
   OC_MESSHD_C.:E05TOU  is referenced.
   OC_SUBS_C.:E05TOU  is referenced.
   CP_6_SUBS.:E05TOU  is referenced.
   CP_6.:E05TOU  cannot be made into a system file and is referenced.
   B$JIT_C.:E05TOU  was found in the system file and is never referenced.
   CP_6_C.:E05TOU  was found in the system file and is referenced.
      No diagnostics issued in procedure ORR$XCONRTN.

   Procedure ORR$XCONRTN requires 67 words for executable code.
   Procedure ORR$XCONRTN requires 4 words of local(AUTO) storage.

PL6.E3A0      #007=ORR$XCONRTN File=ORR$REPLAY.:E05TSI                           WED 07/30/97 04:20 Page:546

 Object Unit name= ORR$XCONRTN                                File name= ORR$REPLAY.:E05TOU
 UTS= JUL 30 '97 04:20:27.64 WED                              Compiler= PL-6/E31         Sev=      00
 SharedLib= :SHARED_SYSTEM                                    Alt SharedLib=


    ****  Control sections  ****

 Sect   Type Bound  Init  Size OctSiz  Section name(segment info)
    0   DCB   even  none     0      0  M$UC
    1   DCB   even  none     0      0  F$HISTFILE
    2   DCB   even  none     0      0  F$TEMPLATE
    3   DCB   even  none     0      0  M$CSCG
    4   Data  even  none   214    326  ORR$XCONRTN
    5  RoData even  UTS     12     14  ORR$XCONRTN
    6   Proc  even  none    67    103  ORR$XCONRTN
    7  RoData even  none     1      1  ORR$XCONRTN

    ****  Entry defs  ****

                              Check   Calling
                             calling  sequence
  Sect OctLoc Primary Altret sequence   type   Parms  Name
     6      0   yes            yes      Std        0  ORR$XCONRTN

  ****  Entry refs  ****

         Check        Calling
        calling       sequence
Altret sequence SRef   type   Args  Name
                       nStd      0 X66_AUTO_0
                       nStd      0 X66_ARET
PL6.E3A0      #007=ORR$XCONRTN File=ORR$REPLAY.:E05TSI                           WED 07/30/97 04:20 Page:547

  ****  Data refs  ****

  Flags:  r = read only, s = secondary
Flgs Name                             Flgs Name                             Flgs Name
     M$UC                                  OCHIST_FLAG                           OR_BRK_FLAG
     OR_XCON_FLAG                          OR_BREAKING                           OR_IN_XCON
     F$HISTFILE                            F$TEMPLATE                            M$CSCG

  ****  Segment refs  ****

  Flags:  r = read only, s = secondary
Flgs Name                             Flgs Name                             Flgs Name
     ISSID                                 NULLSID                               ROSID
PL6.E3A0      #007=ORR$XCONRTN File=ORR$REPLAY.:E05TSI                           WED 07/30/97 04:20 Page:548


     3518        1        /*T***********************************************************/
     3519        2        /*T*                                                         */
     3520        3        /*T* Copyright (c) Bull HN Information Systems Inc., 1997    */
     3521        4        /*T*                                                         */
     3522        5        /*T***********************************************************/
     3523        6        ORR$XCONRTN: PROC;

      6  6 000000   000000 700200 xent  ORR$XCONRTN  TSX0  ! X66_AUTO_0
         6 000001   000004 000000                    ZERO    4,0

     3524        7
     3525        8        %INCLUDE CP_6;
     3526       89        %INCLUDE CP_6_SUBS;
     3527      629        %INCLUDE OC_SUBS_C;
     3528     1360        %INCLUDE OC_MESSHD_C;
     3529     1413        %INCLUDE OR_DAT_R;
     3530     1423        %F$DCB;
     3531     1480    1   DCL F$HISTFILE DCB;
     3532     1481    1   DCL F$TEMPLATE DCB;
     3533     1482    1   DCL M$CSCG DCB;
     3534     1483
     3535     1484        %OC_MESSHD_W (NAME=OR_MESSBUF,
     3536     1485         DELIM=";");
     3537     1498
     3538     1499        %FPT_OPEN (FPTN=CS_OPEN,
     3539     1500         DCB=M$CSCG,
     3540     1501         ASN=COMGROUP,
     3541     1502         SETSTA=KSST,
     3542     1503         FUN=UPDATE,
     3543     1504         SHARE=ALL,
     3544     1505         ACCT=CSACCT,
     3545     1506         NAME=CSCGNM);
     3546     1615
     3547     1616        %FPT_XCON (FPTN=SET_EXIT);
     3548     1630
     3549     1631
PL6.E3A0      #007=ORR$XCONRTN File=ORR$REPLAY.:E05TSI                           WED 07/30/97 04:20 Page:549
     3550     1632        %VLP_NAME (FPTN=CSCGNM,
     3551     1633         NAME='CSCG');
     3552     1660
     3553     1661        %VLP_SETSTA (FPTN=KSST,
     3554     1662         STCLASS=CONSTANT,
     3555     1663         MYSTATION='OREPLAY');
     3556     1691
     3557     1692        %VLP_ACCT (FPTN=CSACCT,
     3558     1693         ACCT=':SYS');
     3559     1706
     3560     1707        %FPT_WRITE (FPTN=WRITE_CS,
     3561     1708         DCB=M$CSCG,
     3562     1709         STATION=STA,
     3563     1710         BP=YES,
     3564     1711         BUF=OR_MESSBUF);
     3565     1742
     3566     1743        %VLP_STATION (FPTN=STA,
     3567     1744         STATION='KEYIN');
     3568     1771
     3569     1772        %FPT_CLOSE (FPTN=CS_CLOSE,
     3570     1773         DCB=M$CSCG);
     3571     1815
     3572     1816
     3573     1817        %FPT_CLOSE (FPTN=CLOSE_HIST,
     3574     1818         DCB=F$HISTFILE);
     3575     1860
     3576     1861        %FPT_CLOSE (FPTN=CLOSE_OCMSG,
     3577     1862         DCB=F$TEMPLATE);
     3578     1904
     3579     1905        %FPT_CLOSE (FPTN=CLOSE_CSCG,
     3580     1906         DCB=M$CSCG);
     3581     1948
     3582     1949    2      DO INHIBIT;

     3583     1950    2         OR_BREAKING = %NO#;

   1950  6 000002   000000 450200 xsym               STZ   ! OR_BREAKING
PL6.E3A0      #007=ORR$XCONRTN File=ORR$REPLAY.:E05TSI                           WED 07/30/97 04:20 Page:550

     3584     1951    2         OR_XCON_FLAG = %NO#;

   1951  6 000003   000000 450200 xsym               STZ   ! OR_XCON_FLAG

     3585     1952    2         OR_IN_XCON = %YES#;

   1952  6 000004   400000 236203                    LDQ   ! -131072,DU
         6 000005   000000 756200 xsym               STQ   ! OR_IN_XCON

     3586     1953    2         OR_BRK_FLAG = %NO#;

   1953  6 000006   000000 450200 xsym               STZ   ! OR_BRK_FLAG

     3587     1954
     3588     1955    2         IF DCBADDR (DCBNUM (F$HISTFILE)) -> F$DCB.FCD#

   1955  6 000007   000000 236207 xsym               LDQ   ! F$HISTFILE,DL
         6 000010   000000 470600 7                  LDP0  ! 0
         6 000011   000000 471700                    LDP1  ! 0,,PR0
         6 000012   100000 473706                    LDP3  ! 0,QL,PR1
         6 000013   300031 236300                    LDQ   ! 25,,PR3
         6 000014   020000 316207                    CANQ  ! 8192,DL
         6 000015   000023 600200 6                  TZE   ! s:1958

     3589     1956    3         THEN CALL M$CLOSE (CLOSE_HIST) WHENALTRETURN DO; END;

   1956  6 000016   000174 630600 4                  EPPR0 ! CLOSE_HIST
         6 000017   450001 713600                    CLIMB ! alt,close
         6 000020   406000 401760                    pmme    nvectors=13
         6 000021   000023 702200 6                  TSX2  ! s:1958
         6 000022   000023 710200 6                  TRA   ! s:1958

     3590     1957
     3591     1958    3         IF OCHIST_FLAG THEN DO;

   1958  6 000023   000000 234200 xsym               SZN   ! OCHIST_FLAG
PL6.E3A0      #007=ORR$XCONRTN File=ORR$REPLAY.:E05TSI                           WED 07/30/97 04:20 Page:551
         6 000024   000042 605200 6                  TPL   ! s:1967

     3592     1959    3            OCHIST_FLAG = %NO#;            /* No use trying this twice!          */

   1959  6 000025   000000 450200 xsym               STZ   ! OCHIST_FLAG

     3593     1960
     3594     1961    4            CALL M$OPEN (CS_OPEN) WHENALTRETURN DO; END;

   1961  6 000026   000006 630600 4                  EPPR0 ! CS_OPEN
         6 000027   450000 713600                    CLIMB ! alt,open
         6 000030   410400 401760                    pmme    nvectors=18
         6 000031   000033 702200 6                  TSX2  ! s:1963
         6 000032   000033 710200 6                  TRA   ! s:1963

     3595     1962
     3596     1963    3            OR_MESSBUF.FCN = OC_START_EXCLU; /* Give :OCHIST back to KEYIN       */

   1963  6 000033   000012 236207                    LDQ   ! 10,DL
         6 000034   000001 552204 4                  STBQ  ! OR_MESSBUF+1,'04'O

     3597     1964    4            CALL M$WRITE (WRITE_CS) WHENALTRETURN DO; END;

   1964  6 000035   000112 630600 4                  EPPR0 ! WRITE_CS
         6 000036   440001 713600                    CLIMB ! alt,write
         6 000037   401400 401760                    pmme    nvectors=4
         6 000040   000042 702200 6                  TSX2  ! s:1967
         6 000041   000042 710200 6                  TRA   ! s:1967

     3598     1965    3         END;

     3599     1966
     3600     1967    2         IF DCBADDR (DCBNUM (F$TEMPLATE)) -> F$DCB.FCD#

   1967  6 000042   000000 236207 xsym               LDQ   ! F$TEMPLATE,DL
         6 000043   000000 470600 7                  LDP0  ! 0
         6 000044   000000 471700                    LDP1  ! 0,,PR0
PL6.E3A0      #007=ORR$XCONRTN File=ORR$REPLAY.:E05TSI                           WED 07/30/97 04:20 Page:552
         6 000045   100000 473706                    LDP3  ! 0,QL,PR1
         6 000046   300031 236300                    LDQ   ! 25,,PR3
         6 000047   020000 316207                    CANQ  ! 8192,DL
         6 000050   000056 600200 6                  TZE   ! s:1970

     3601     1968    3         THEN CALL M$CLOSE (CLOSE_OCMSG) WHENALTRETURN DO; END;

   1968  6 000051   000232 630600 4                  EPPR0 ! CLOSE_OCMSG
         6 000052   450001 713600                    CLIMB ! alt,close
         6 000053   406000 401760                    pmme    nvectors=13
         6 000054   000056 702200 6                  TSX2  ! s:1970
         6 000055   000056 710200 6                  TRA   ! s:1970

     3602     1969
     3603     1970    2         IF DCBADDR (DCBNUM (M$CSCG)) -> F$DCB.FCD#

   1970  6 000056   000000 236207 xsym               LDQ   ! M$CSCG,DL
         6 000057   000000 470600 7                  LDP0  ! 0
         6 000060   000000 471700                    LDP1  ! 0,,PR0
         6 000061   100000 473706                    LDP3  ! 0,QL,PR1
         6 000062   300031 236300                    LDQ   ! 25,,PR3
         6 000063   020000 316207                    CANQ  ! 8192,DL
         6 000064   000072 600200 6                  TZE   ! s:1974

     3604     1971    3         THEN CALL M$CLOSE (CS_CLOSE) WHENALTRETURN DO; END;

   1971  6 000065   000136 630600 4                  EPPR0 ! CS_CLOSE
         6 000066   450001 713600                    CLIMB ! alt,close
         6 000067   406000 401760                    pmme    nvectors=13
         6 000070   000072 702200 6                  TSX2  ! s:1974
         6 000071   000072 710200 6                  TRA   ! s:1974

     3605     1972
     3606     1973    3         DO INHIBIT;

     3607     1974    3            OR_IN_XCON = %NO#;

PL6.E3A0      #007=ORR$XCONRTN File=ORR$REPLAY.:E05TSI                           WED 07/30/97 04:20 Page:553
   1974  6 000072   000000 450200 xsym               STZ   ! OR_IN_XCON

     3608     1975    4            CALL M$XCON (SET_EXIT) WHENALTRETURN DO; END;

   1975  6 000073   000100 630600 4                  EPPR0 ! SET_EXIT
         6 000074   410003 713600                    CLIMB ! alt,+4099
         6 000075   400400 401760                    pmme    nvectors=2
         6 000076   000100 702200 6                  TSX2  ! s:1976
         6 000077   000100 710200 6                  TRA   ! s:1976

     3609     1976    3            CALL M$XXX;

   1976  6 000100   000003 713600                    CLIMB ! 3
         6 000101   000000 401760                    pmme    nvectors=0

     3610     1977    3         END;

     3611     1978    2      END;

     3612     1979    1   END ORR$XCONRTN;

   1979  6 000102   000000 702200 xent               TSX2  ! X66_ARET
     3613     1980        %EOD;

PL6.E3A0      #007=ORR$XCONRTN File=ORR$REPLAY.:E05TSI                           WED 07/30/97 04:20 Page:554
--  Include file information  --

   OR_DAT_R.:E05TOU  cannot be made into a system file and is referenced.
   OC_MESSHD_C.:E05TOU  is referenced.
   OC_SUBS_C.:E05TOU  is referenced.
   CP_6_SUBS.:E05TOU  is referenced.
   CP_6.:E05TOU  cannot be made into a system file and is referenced.
   B$JIT_C.:E05TOU  was found in the system file and is never referenced.
   CP_6_C.:E05TOU  was found in the system file and is referenced.
      No diagnostics issued in procedure ORR$XCONRTN.
PL6.E3A0      #007=ORR$XCONRTN File=ORR$REPLAY.:E05TSI                           WED 07/30/97 04:20 Page:555

 **** Variables and constants ****

  ****  Section 004  Data  ORR$XCONRTN

  ****  Scalars and arrays  ****
OctLoc.c.b A Datatyp(siz) R M Lvl/name                 OctLoc.c.b A Datatyp(siz) R M Lvl/name

   270-0-0/d STRC(1080)  r     1 CLOSE_CSCG               174-0-0/d STRC(1080)  r     1 CLOSE_HIST
   232-0-0/d STRC(1080)  r     1 CLOSE_OCMSG              110-0-0/c STRC(72)    r     1 CSACCT
   106-0-0/c STRC(45)    r     1 CSCGNM                   136-0-0/d STRC(1080)  r     1 CS_CLOSE
     6-0-0/d STRC(2088)  r     1 CS_OPEN                    0-0-0/c STRC(180)   r     1 OR_MESSBUF
   100-0-0/d STRC(216)   r     1 SET_EXIT                 126-0-0/w STRC(288)   r     1 STA
   112-0-0/d STRC(432)   r     1 WRITE_CS

  ****  Section 005 RoData ORR$XCONRTN

  ****  Scalars and arrays  ****
OctLoc.c.b A Datatyp(siz) R M Lvl/name                 OctLoc.c.b A Datatyp(siz) R M Lvl/name

     0-0-0/w STRC(432)   r     1 KSST

  ****  SYMREF variables  ****

  ****  Scalars and arrays  ****
OctLoc.c.b A Datatyp(siz) R M Lvl/name                 OctLoc.c.b A Datatyp(siz) R M Lvl/name

     0-0-0/c BIT         r     1 OCHIST_FLAG                0-0-0/c BIT         r     1 OR_BREAKING
     0-0-0/c BIT         r     1 OR_BRK_FLAG                0-0-0/c BIT         r     1 OR_IN_XCON
     0-0-0/c BIT         r     1 OR_XCON_FLAG

  ****  BASED and DCB variables  ****

  ****  Scalars and arrays  ****
OctLoc.c.b A Datatyp(siz) R M Lvl/name                 OctLoc.c.b A Datatyp(siz) R M Lvl/name

     0-0-0/d ASTR(3528)  r     1 F$DCB                      0-0-0N  NULL        r     1 F$HISTFILE
     0-0-0N  NULL        r     1 F$TEMPLATE                 0-0-0N  NULL        r     1 M$CSCG
PL6.E3A0      #007=ORR$XCONRTN File=ORR$REPLAY.:E05TSI                           WED 07/30/97 04:20 Page:556


   Procedure ORR$XCONRTN requires 67 words for executable code.
   Procedure ORR$XCONRTN requires 4 words of local(AUTO) storage.
PL6.E3A0      #007=ORR$XCONRTN File=ORR$REPLAY.:E05TSI                           WED 07/30/97 04:20 Page:557
          *** CROSS REFERENCE LISTING ***
**     DENOTES     IDENTIFIER DEFINITION
<<                 IDENTIFIER'S VALUE SET
>>                 IDENTIFIER'S VALUE USED
<>                 IDENTIFIER SET AND/OR USED
--                 IDENTIFIER REFERENCED
PL6.E3A0      #007=ORR$XCONRTN File=ORR$REPLAY.:E05TSI                           WED 07/30/97 04:20 Page:558
          MINI XREF LISTING

CLOSE_CSCG.SN_
      1929**DCL      1929--REDEF
CLOSE_CSCG.UTL_
      1930**DCL      1930--REDEF
CLOSE_CSCG.V
      1934**DCL      1929--DCLINIT
CLOSE_CSCG.V.EXPIRE#
      1944**DCL      1944--REDEF
CLOSE_CSCG.V.TYPE#
      1942**DCL      1942--REDEF
CLOSE_CSCG.V.XTNSIZE#
      1939**DCL      1939--REDEF    1941--REDEF
CLOSE_HIST
      1841**DCL      1956<>CALL
CLOSE_HIST.SN_
      1841**DCL      1841--REDEF
CLOSE_HIST.UTL_
      1842**DCL      1842--REDEF
CLOSE_HIST.V
      1846**DCL      1841--DCLINIT
CLOSE_HIST.V.EXPIRE#
      1856**DCL      1856--REDEF
CLOSE_HIST.V.TYPE#
      1854**DCL      1854--REDEF
CLOSE_HIST.V.XTNSIZE#
      1851**DCL      1851--REDEF    1853--REDEF
CLOSE_OCMSG
      1885**DCL      1968<>CALL
CLOSE_OCMSG.SN_
      1885**DCL      1885--REDEF
CLOSE_OCMSG.UTL_
      1886**DCL      1886--REDEF
PL6.E3A0      #007=ORR$XCONRTN File=ORR$REPLAY.:E05TSI                           WED 07/30/97 04:20 Page:559
CLOSE_OCMSG.V
      1890**DCL      1885--DCLINIT
CLOSE_OCMSG.V.EXPIRE#
      1900**DCL      1900--REDEF
CLOSE_OCMSG.V.TYPE#
      1898**DCL      1898--REDEF
CLOSE_OCMSG.V.XTNSIZE#
      1895**DCL      1895--REDEF    1897--REDEF
CSACCT
      1704**DCL      1576--DCLINIT
CSCGNM
      1658**DCL      1572--DCLINIT
CS_CLOSE
      1796**DCL      1971<>CALL
CS_CLOSE.SN_
      1796**DCL      1796--REDEF
CS_CLOSE.UTL_
      1797**DCL      1797--REDEF
CS_CLOSE.V
      1801**DCL      1796--DCLINIT
CS_CLOSE.V.EXPIRE#
      1811**DCL      1811--REDEF
CS_CLOSE.V.TYPE#
      1809**DCL      1809--REDEF
CS_CLOSE.V.XTNSIZE#
      1806**DCL      1806--REDEF    1808--REDEF
CS_OPEN
      1571**DCL      1961<>CALL
CS_OPEN.ACSVEH_
      1573**DCL      1574--REDEF
CS_OPEN.ALTKEYS_
      1579**DCL      1580--REDEF    1580--REDEF
CS_OPEN.HDR_
      1578**DCL      1579--REDEF
CS_OPEN.TAB_
      1577**DCL      1578--REDEF
PL6.E3A0      #007=ORR$XCONRTN File=ORR$REPLAY.:E05TSI                           WED 07/30/97 04:20 Page:560
CS_OPEN.UHL_
      1571**DCL      1572--REDEF    1572--REDEF
CS_OPEN.V
      1580**DCL      1571--DCLINIT
CS_OPEN.V.FSN#
      1611**DCL      1611--REDEF    1611--REDEF
CS_OPEN.WSN_
      1577**DCL      1577--REDEF
F$DCB.ACTPOS
      1456**DCL      1456--REDEF
F$DCB.ARS#
      1430**DCL      1430--REDEF
F$DCB.ATTR
      1449**DCL      1450--REDEF
F$DCB.BORROW
      1464**DCL      1464--REDEF    1464--REDEF    1464--REDEF
F$DCB.DCBNAME.L
      1478**DCL      1478--IMP-SIZ
F$DCB.EOMCHAR#
      1434**DCL      1434--REDEF
F$DCB.FCD#
      1443**DCL      1955>>IF       1967>>IF       1970>>IF
F$DCB.FLDID
      1459**DCL      1459--REDEF
F$DCB.FORM$
      1453**DCL      1453--REDEF
F$DCB.FSECT
      1469**DCL      1469--REDEF
F$DCB.FSN#
      1446**DCL      1446--REDEF    1446--REDEF    1447--REDEF
F$DCB.HEADER$
      1452**DCL      1452--REDEF
F$DCB.IXTNSIZE#
      1450**DCL      1450--REDEF
F$DCB.LASTSTA$
      1439**DCL      1439--REDEF
PL6.E3A0      #007=ORR$XCONRTN File=ORR$REPLAY.:E05TSI                           WED 07/30/97 04:20 Page:561
F$DCB.LVL
      1465**DCL      1465--REDEF
F$DCB.NAME#.C
      1440**DCL      1440--REDEF
F$DCB.NOEOF
      1462**DCL      1462--REDEF
F$DCB.NRECS#
      1451**DCL      1451--REDEF
F$DCB.NRECX
      1470**DCL      1470--REDEF
F$DCB.OHDR
      1462**DCL      1462--REDEF
F$DCB.ORG#
      1445**DCL      1445--REDEF
F$DCB.PRECNO
      1468**DCL      1468--REDEF
F$DCB.RCSZ
      1474**DCL      1474--REDEF
F$DCB.RES#
      1441**DCL      1441--REDEF
F$DCB.SETX
      1453**DCL      1453--REDEF
F$DCB.TAB$
      1453**DCL      1453--REDEF
F$DCB.TDA
      1467**DCL      1468--REDEF
F$DCB.WSN#
      1441**DCL      1441--REDEF
F$HISTFILE
      1480**DCL      1955--IF
F$TEMPLATE
      1481**DCL      1967--IF
KSST
      1675**DCL      1572--DCLINIT
M$CLOSE
        17**DCL-ENT  1956--CALL     1968--CALL     1971--CALL
PL6.E3A0      #007=ORR$XCONRTN File=ORR$REPLAY.:E05TSI                           WED 07/30/97 04:20 Page:562
M$CSCG
      1482**DCL      1970--IF
M$OPEN
        17**DCL-ENT  1961--CALL
M$WRITE
        18**DCL-ENT  1964--CALL
M$XCON
        72**DCL-ENT  1975--CALL
M$XXX
        29**DCL-ENT  1976--CALL
OCHIST_FLAG
      1421**DCL      1958>>IF       1959<<ASSIGN
OR_BREAKING
      1422**DCL      1950<<ASSIGN
OR_BRK_FLAG
      1421**DCL      1953<<ASSIGN
OR_IN_XCON
      1422**DCL      1952<<ASSIGN   1974<<ASSIGN
OR_MESSBUF
      1486**DCL      1729--DCLINIT  1730--DCLINIT
OR_MESSBUF.FCN
      1492**DCL      1963<<ASSIGN
OR_MESSBUF.FLAGS
      1493**DCL      1494--REDEF
OR_MESSBUF.MSGID
      1489**DCL      1490--REDEF
OR_XCON_FLAG
      1421**DCL      1951<<ASSIGN
SET_EXIT
      1627**DCL      1975<>CALL
SET_EXIT.V
      1628**DCL      1627--DCLINIT
STA
      1756**DCL      1730--DCLINIT
STA.MSGIDXT
      1766**DCL      1769--REDEF
PL6.E3A0      #007=ORR$XCONRTN File=ORR$REPLAY.:E05TSI                           WED 07/30/97 04:20 Page:563
WRITE_CS
      1728**DCL      1964<>CALL
WRITE_CS.STATION_
      1730**DCL      1730--REDEF
WRITE_CS.V
      1731**DCL      1728--DCLINIT
WRITE_CS.V.DVBYTE.VFC#
      1737**DCL      1737--REDEF

PL6.E3A0      #008=OCW$WRITE File=ORR$REPLAY.:E05TSI                             WED 07/30/97 04:20 Page:564
     3614        1        /*T***********************************************************/
     3615        2        /*T*                                                         */
     3616        3        /*T* Copyright (c) Bull HN Information Systems Inc., 1997    */
     3617        4        /*T*                                                         */
     3618        5        /*T***********************************************************/
     3619        6
     3620        7        OCW$WRITE: PROC(ONE,TWO,THREE,FOUR,FIVE);
     3621        8    1   DCL TWO UBIN WORD CALIGNED;
     3622        9    1   DCL ONE CHAR(TWO) CALIGNED;
     3623       10    1   DCL THREE BIT(18) CALIGNED;
     3624       11    1   DCL FIVE UBIN HALF CALIGNED;
     3625       12    1   DCL 1 FOUR,
     3626       13    1          2 FIRST_HALF CHAR(4) UNAL,
     3627       14    1          2 SEC_HALF CHAR(4) UNAL;
     3628       15    1      RETURN;
     3629       16    1   END OCW$WRITE;

PL6.E3A0      #008=OCW$WRITE File=ORR$REPLAY.:E05TSI                             WED 07/30/97 04:20 Page:565
--  Include file information  --

   B$JIT_C.:E05TOU  was found in the system file and is never referenced.
   CP_6_C.:E05TOU  was found in the system file and is never referenced.
      No diagnostics issued in procedure OCW$WRITE.

   Procedure OCW$WRITE requires 3 words for executable code.
   Procedure OCW$WRITE requires 8 words of local(AUTO) storage.

    No errors detected in file ORR$REPLAY.:E05TSI    .

PL6.E3A0      #008=OCW$WRITE File=ORR$REPLAY.:E05TSI                             WED 07/30/97 04:20 Page:566

 Object Unit name= OCW$WRITE                                  File name= ORR$REPLAY.:E05TOU
 UTS= JUL 30 '97 04:20:57.40 WED                              Compiler= PL-6/E31         Sev=      00
 SharedLib= :SHARED_SYSTEM                                    Alt SharedLib=


    ****  Control sections  ****

 Sect   Type Bound  Init  Size OctSiz  Section name(segment info)
    0   Proc  even  none     3      3  OCW$WRITE

    ****  Entry defs  ****

                              Check   Calling
                             calling  sequence
  Sect OctLoc Primary Altret sequence   type   Parms  Name
     0      0   yes            yes      Std        5  OCW$WRITE

  ****  Entry refs  ****

         Check        Calling
        calling       sequence
Altret sequence SRef   type   Args  Name
                       nStd      0 X66_AUTO_5
                       nStd      0 X66_ARET
PL6.E3A0      #008=OCW$WRITE File=ORR$REPLAY.:E05TSI                             WED 07/30/97 04:20 Page:567


     3614        1        /*T***********************************************************/
     3615        2        /*T*                                                         */
     3616        3        /*T* Copyright (c) Bull HN Information Systems Inc., 1997    */
     3617        4        /*T*                                                         */
     3618        5        /*T***********************************************************/
     3619        6
     3620        7        OCW$WRITE: PROC(ONE,TWO,THREE,FOUR,FIVE);

      7  0 000000   000000 700200 xent  OCW$WRITE    TSX0  ! X66_AUTO_5
         0 000001   000010 000005                    ZERO    8,5

     3621        8    1   DCL TWO UBIN WORD CALIGNED;
     3622        9    1   DCL ONE CHAR(TWO) CALIGNED;
     3623       10    1   DCL THREE BIT(18) CALIGNED;
     3624       11    1   DCL FIVE UBIN HALF CALIGNED;
     3625       12    1   DCL 1 FOUR,
     3626       13    1          2 FIRST_HALF CHAR(4) UNAL,
     3627       14    1          2 SEC_HALF CHAR(4) UNAL;
     3628       15    1      RETURN;

     15  0 000002   000000 702200 xent               TSX2  ! X66_ARET
     3629       16    1   END OCW$WRITE;

PL6.E3A0      #008=OCW$WRITE File=ORR$REPLAY.:E05TSI                             WED 07/30/97 04:20 Page:568
--  Include file information  --

   B$JIT_C.:E05TOU  was found in the system file and is never referenced.
   CP_6_C.:E05TOU  was found in the system file and is never referenced.
      No diagnostics issued in procedure OCW$WRITE.
PL6.E3A0      #008=OCW$WRITE File=ORR$REPLAY.:E05TSI                             WED 07/30/97 04:20 Page:569

 **** Variables and constants ****

  ****  Auto variables  ****

  ****  Scalars and arrays  ****
OctLoc.c.b A Datatyp(siz) R M Lvl/name                 OctLoc.c.b A Datatyp(siz) R M Lvl/name

     7-0-0/w PTR         r     1 @FIVE                      6-0-0/w PTR         r     1 @FOUR
     3-0-0/w PTR         r     1 @ONE                       5-0-0/w PTR         r     1 @THREE
     4-0-0/w PTR         r     1 @TWO                      *0-0-0/c UBIN(18)    r     1 FIVE
    *0-0-0/c STRC(72)    r     1 FOUR                      *0-0-0/c ACHR        r     1 ONE
    *0-0-0/c BIT (18)    r     1 THREE                     *0-0-0/c UBIN        r     1 TWO


   Procedure OCW$WRITE requires 3 words for executable code.
   Procedure OCW$WRITE requires 8 words of local(AUTO) storage.

    No errors detected in file ORR$REPLAY.:E05TSI    .
PL6.E3A0      #008=OCW$WRITE File=ORR$REPLAY.:E05TSI                             WED 07/30/97 04:20 Page:570
          *** CROSS REFERENCE LISTING ***
**     DENOTES     IDENTIFIER DEFINITION
<<                 IDENTIFIER'S VALUE SET
>>                 IDENTIFIER'S VALUE USED
<>                 IDENTIFIER SET AND/OR USED
--                 IDENTIFIER REFERENCED
PL6.E3A0      #008=OCW$WRITE File=ORR$REPLAY.:E05TSI                             WED 07/30/97 04:20 Page:571
          MINI XREF LISTING

FIVE
        11**DCL         7--PROC
FOUR
        12**DCL         7--PROC
ONE
         9**DCL         7--PROC
THREE
        10**DCL         7--PROC
TWO
         8**DCL         7--PROC        9--IMP-SIZ
