VERSION E05

PL6.E3A0      #001=OR_DAT_D File=OR_DAT_D.:E05TSI                                WED 07/30/97 04:14 Page:1
        1        1        /*M* OR_DAT_D SYMDEFS for data available to all replay modules */
        2        2        /*T***********************************************************/
        3        3        /*T*                                                         */
        4        4        /*T* Copyright (c) Bull HN Information Systems Inc., 1997    */
        5        5        /*T*                                                         */
        6        6        /*T***********************************************************/
        7        7
        8        8        OR_DAT_D: PROC NOAUTO;
        9        9
       10       10    1   DCL OCHIST_FLAG BIT(1) CALIGNED STATIC SYMDEF INIT('0'B);
       11       11    1   DCL OR_BRK_FLAG BIT(1) CALIGNED STATIC SYMDEF INIT('0'B);
       12       12    1   DCL OR_XCON_FLAG BIT(1) CALIGNED STATIC SYMDEF INIT ('0'B);
       13       13    1   DCL OR_OK_TO_BREAK BIT(1) CALIGNED STATIC SYMDEF INIT ('1'B);
       14       14    1   DCL OR_BREAKING BIT(1) CALIGNED STATIC SYMDEF INIT ('0'B);
       15       15    1   DCL OR_IN_XCON BIT(1) CALIGNED STATIC SYMDEF INIT ('0'B);
       16       16
       17       17    1   END OR_DAT_D;

PL6.E3A0      #001=OR_DAT_D File=OR_DAT_D.:E05TSI                                WED 07/30/97 04:14 Page:2
      No diagnostics issued in procedure OR_DAT_D.

   No code generated for procedure OR_DAT_D .
   Procedure OR_DAT_D is declared NOAUTO and requires 8 words of local(STATIC) storage.

    No errors detected in file OR_DAT_D.:E05TSI    .

PL6.E3A0      #001=OR_DAT_D File=OR_DAT_D.:E05TSI                                WED 07/30/97 04:14 Page:3

 Object Unit name= OR_DAT_D                                   File name= OR_DAT_D.:E05TOU
 UTS= JUL 30 '97 04:14:42.60 WED                              Compiler= PL-6/E31         Sev=      00
 SharedLib= :SHARED_SYSTEM                                    Alt SharedLib=


    ****  Control sections  ****

 Sect   Type Bound  Init  Size OctSiz  Section name(segment info)
    0   Data  even  none     8     10  OR_DAT_D
    1   Proc  even  none     0      0  OR_DAT_D

    ****  Entry defs  ****

                              Check   Calling
                             calling  sequence
  Sect OctLoc Primary Altret sequence   type   Parms  Name
     1      0   yes            yes     ~proc       0  OR_DAT_D

  ****  Data defs  ****

 Sect OctLoc  Name                           Sect OctLoc  Name
    0      1  OCHIST_FLAG                        0      2  OR_BRK_FLAG
    0      3  OR_XCON_FLAG                       0      4  OR_OK_TO_BREAK
    0      5  OR_BREAKING                        0      6  OR_IN_XCON
PL6.E3A0      #001=OR_DAT_D File=OR_DAT_D.:E05TSI                                WED 07/30/97 04:14 Page:4

        1        1        /*M* OR_DAT_D SYMDEFS for data available to all replay modules */
        2        2        /*T***********************************************************/
        3        3        /*T*                                                         */
        4        4        /*T* Copyright (c) Bull HN Information Systems Inc., 1997    */
        5        5        /*T*                                                         */
        6        6        /*T***********************************************************/
        7        7
        8        8        OR_DAT_D: PROC NOAUTO;
        9        9
       10       10    1   DCL OCHIST_FLAG BIT(1) CALIGNED STATIC SYMDEF INIT('0'B);
       11       11    1   DCL OR_BRK_FLAG BIT(1) CALIGNED STATIC SYMDEF INIT('0'B);
       12       12    1   DCL OR_XCON_FLAG BIT(1) CALIGNED STATIC SYMDEF INIT ('0'B);
       13       13    1   DCL OR_OK_TO_BREAK BIT(1) CALIGNED STATIC SYMDEF INIT ('1'B);
       14       14    1   DCL OR_BREAKING BIT(1) CALIGNED STATIC SYMDEF INIT ('0'B);
       15       15    1   DCL OR_IN_XCON BIT(1) CALIGNED STATIC SYMDEF INIT ('0'B);
       16       16
       17       17    1   END OR_DAT_D;

PL6.E3A0      #001=OR_DAT_D File=OR_DAT_D.:E05TSI                                WED 07/30/97 04:14 Page:5
      No diagnostics issued in procedure OR_DAT_D.
PL6.E3A0      #001=OR_DAT_D File=OR_DAT_D.:E05TSI                                WED 07/30/97 04:14 Page:6

 **** Variables and constants ****


   No code generated for procedure OR_DAT_D .
   Procedure OR_DAT_D is declared NOAUTO and requires 8 words of local(STATIC) storage.

    No errors detected in file OR_DAT_D.:E05TSI    .
PL6.E3A0      #001=OR_DAT_D File=OR_DAT_D.:E05TSI                                WED 07/30/97 04:14 Page:7
          *** CROSS REFERENCE LISTING ***
**     DENOTES     IDENTIFIER DEFINITION
<<                 IDENTIFIER'S VALUE SET
>>                 IDENTIFIER'S VALUE USED
<>                 IDENTIFIER SET AND/OR USED
--                 IDENTIFIER REFERENCED
PL6.E3A0      #001=OR_DAT_D File=OR_DAT_D.:E05TSI                                WED 07/30/97 04:14 Page:8
          MINI XREF LISTING

