VERSION E05

PL6.E3A0      #001=OUE$ZWF_ENTRY File=OUE$ZWF_ENT.:E05TSI                        WED 07/30/97 04:15 Page:1
        1        1        /*M* OUE$ZWF_ENTRY interface between PL-6 processor and TEMPLAT */
        2        2        /*T***********************************************************/
        3        3        /*T*                                                         */
        4        4        /*T* Copyright (c) Bull HN Information Systems Inc., 1997    */
        5        5        /*T*                                                         */
        6        6        /*T***********************************************************/
        7        7        /*X* DMR,PLM=5,IND=5,CTI=5,SDI=5,MCL=10,CSI=0,ECI=0 */
        8        8        %SET LISTSUB='1'B;
        9        9        /*
       10       10          ###   #   #  #####    #    #####  #   #  #####         #####  #   #  #####
       11       11         # # #  #   #  #       ###       #  #   #  #             #      #   #    #
       12       12         # # #  #   #  #      # #       #   #   #  #             #      ##  #    #
       13       13         #  ##  #   #  ####    ###     #    # # #  ####          ####   # # #    #
       14       14         #   #  #   #  #        # #   #     # # #  #             #      #  ##    #
       15       15         #   #  #   #  #       ###   #      # # #  #             #      #   #    #
       16       16          ###    ###   #####    #    #####   # #   #             #####  #   #    #
       17       17                                                          #####
       18       18                                                                          */
       19       19                                                /**/
       20       20                                           /* This module handles the
       21       21                                                interface between
       22       22                                                ZW5$FRONT_END_DRIVER
       23       23                                                and
       24       24                                                OUT$TEMPLAT by providing
       25       25                                                the entry point ZWF$PARSE */
       26       26        OUE$ZWF_ENTRY: PROC;
       27       27
       28       28    1   DCL OUT$TEMPLAT ENTRY;
       29       29
       30       30    1   ZWF$PARSE: ENTRY;
       31       31
       32       32    1        CALL OUT$TEMPLAT;
       33       33
       34       34    1        RETURN;
       35       35    1   END OUE$ZWF_ENTRY;
       36       36        %EOD;

PL6.E3A0      #001=OUE$ZWF_ENTRY File=OUE$ZWF_ENT.:E05TSI                        WED 07/30/97 04:15 Page:2
      No diagnostics issued in procedure OUE$ZWF_ENTRY.

   Procedure OUE$ZWF_ENTRY requires 9 words for executable code.
   Procedure OUE$ZWF_ENTRY requires 4 words of local(AUTO) storage.

PL6.E3A0      #001=OUE$ZWF_ENTRY File=OUE$ZWF_ENT.:E05TSI                        WED 07/30/97 04:15 Page:3

 Object Unit name= OUE$ZWF_ENTRY                              File name= OUE$ZWF_ENT.:E05TOU
 UTS= JUL 30 '97 04:15:03.20 WED                              Compiler= PL-6/E31         Sev=      00
 SharedLib= :SHARED_SYSTEM                                    Alt SharedLib=


    ****  Control sections  ****

 Sect   Type Bound  Init  Size OctSiz  Section name(segment info)
    0   Proc  even  none     9     11  OUE$ZWF_ENTRY

    ****  Entry defs  ****

                              Check   Calling
                             calling  sequence
  Sect OctLoc Primary Altret sequence   type   Parms  Name
     0      0   yes            yes      Std        0  OUE$ZWF_ENTRY
     0      3                  yes      Std        0  ZWF$PARSE

  ****  Entry refs  ****

         Check        Calling
        calling       sequence
Altret sequence SRef   type   Args  Name
         yes           Std       0 OUT$TEMPLAT
                       nStd      0 X66_AUTO_0
                       Std       0 B_CONSPOOL_D
                       nStd      0 X66_ARET

  ****  Data refs  ****

  Flags:  r = read only, s = secondary
Flgs Name                             Flgs Name                             Flgs Name
     B_VECTNIL
PL6.E3A0      #001=OUE$ZWF_ENTRY File=OUE$ZWF_ENT.:E05TSI                        WED 07/30/97 04:15 Page:4


        1        1        /*M* OUE$ZWF_ENTRY interface between PL-6 processor and TEMPLAT */
        2        2        /*T***********************************************************/
        3        3        /*T*                                                         */
        4        4        /*T* Copyright (c) Bull HN Information Systems Inc., 1997    */
        5        5        /*T*                                                         */
        6        6        /*T***********************************************************/
        7        7        /*X* DMR,PLM=5,IND=5,CTI=5,SDI=5,MCL=10,CSI=0,ECI=0 */
        8        8        %SET LISTSUB='1'B;
        9        9        /*
       10       10          ###   #   #  #####    #    #####  #   #  #####         #####  #   #  #####
       11       11         # # #  #   #  #       ###       #  #   #  #             #      #   #    #
       12       12         # # #  #   #  #      # #       #   #   #  #             #      ##  #    #
       13       13         #  ##  #   #  ####    ###     #    # # #  ####          ####   # # #    #
       14       14         #   #  #   #  #        # #   #     # # #  #             #      #  ##    #
       15       15         #   #  #   #  #       ###   #      # # #  #             #      #   #    #
       16       16          ###    ###   #####    #    #####   # #   #             #####  #   #    #
       17       17                                                          #####
       18       18                                                                          */
       19       19                                                /**/
       20       20                                           /* This module handles the
       21       21                                                interface between
       22       22                                                ZW5$FRONT_END_DRIVER
       23       23                                                and
       24       24                                                OUT$TEMPLAT by providing
       25       25                                                the entry point ZWF$PARSE */
       26       26        OUE$ZWF_ENTRY: PROC;

     26  0 000000   000000 700200 xent  OUE$ZWF_ENT* TSX0  ! X66_AUTO_0
         0 000001   000004 000000                    ZERO    4,0
         0 000002   000005 710000 0                  TRA     s:32

       27       27
       28       28    1   DCL OUT$TEMPLAT ENTRY;
       29       29
       30       30    1   ZWF$PARSE: ENTRY;

PL6.E3A0      #001=OUE$ZWF_ENTRY File=OUE$ZWF_ENT.:E05TSI                        WED 07/30/97 04:15 Page:5
     30  0 000003   000000 700200 xent  ZWF$PARSE    TSX0  ! X66_AUTO_0
         0 000004   000004 000000                    ZERO    4,0

       31       31
       32       32    1        CALL OUT$TEMPLAT;

     32  0 000005   000002 631400 xsym               EPPR1   B_VECTNIL+2
         0 000006   000000 701000 xent               TSX1    OUT$TEMPLAT
         0 000007   000000 011000                    NOP     0

       33       33
       34       34    1        RETURN;

     34  0 000010   000000 702200 xent               TSX2  ! X66_ARET
       35       35    1   END OUE$ZWF_ENTRY;
       36       36        %EOD;

PL6.E3A0      #001=OUE$ZWF_ENTRY File=OUE$ZWF_ENT.:E05TSI                        WED 07/30/97 04:15 Page:6
      No diagnostics issued in procedure OUE$ZWF_ENTRY.
PL6.E3A0      #001=OUE$ZWF_ENTRY File=OUE$ZWF_ENT.:E05TSI                        WED 07/30/97 04:15 Page:7

 **** Variables and constants ****


   Procedure OUE$ZWF_ENTRY requires 9 words for executable code.
   Procedure OUE$ZWF_ENTRY requires 4 words of local(AUTO) storage.
PL6.E3A0      #001=OUE$ZWF_ENTRY File=OUE$ZWF_ENT.:E05TSI                        WED 07/30/97 04:15 Page:8
          *** CROSS REFERENCE LISTING ***
**     DENOTES     IDENTIFIER DEFINITION
<<                 IDENTIFIER'S VALUE SET
>>                 IDENTIFIER'S VALUE USED
<>                 IDENTIFIER SET AND/OR USED
--                 IDENTIFIER REFERENCED
PL6.E3A0      #001=OUE$ZWF_ENTRY File=OUE$ZWF_ENT.:E05TSI                        WED 07/30/97 04:15 Page:9
          MINI XREF LISTING

OUT$TEMPLAT
        28**DCL-ENT    32--CALL

PL6.E3A0      #002=OUE$ENTRIES File=OUE$ZWF_ENT.:E05TSI                          WED 07/30/97 04:15 Page:10
       37        1        /*M* OUE$ENTRIES Satisfies extraneous PL6 entry references */
       38        2        /*T***********************************************************/
       39        3        /*T*                                                         */
       40        4        /*T* Copyright (c) Bull HN Information Systems Inc., 1997    */
       41        5        /*T*                                                         */
       42        6        /*T***********************************************************/
       43        7        %SET LISTSUB='1'B;
       44        8        /*
       45        9          ###   #   #  #####    #    #####  #   #  #####  ####    ###   #####   ###
       46       10         # # #  #   #  #       ###   #      #   #    #    #   #    #    #      #   #
       47       11         # # #  #   #  #      # #    #      ##  #    #    #   #    #    #      #
       48       12         #  ##  #   #  ####    ###   ####   # # #    #    ####     #    ####    ###
       49       13         #   #  #   #  #        # #  #      #  ##    #    # #      #    #          #
       50       14         #   #  #   #  #       ###   #      #   #    #    #  #     #    #      #   #
       51       15          ###    ###   #####    #    #####  #   #    #    #   #   ###   #####   ###
       52       16                                                                          */
       53       17        OUE$ENTRIES: PROC (A,B,C,D,E);
       54       18    1   DCL A UBIN;
       55       19    1   DCL B UBIN;
       56       20    1   DCL C UBIN;
       57       21    1   DCL D UBIN;
       58       22    1   DCL E UBIN;
       59       23    1   PMEND: ENTRY;
       60       24    1   PMSTART:ENTRY;
       61       25    1   ZWI$PMSTART: ENTRY;
       62       26    1   ZWI$PMEND: ENTRY;
       63       27    1   XFF$FORMATREC:ENTRY(A,B);
       64       28    1   XFF$INIT:ENTRY;
       65       29    1   XFF$PREINIT:ENTRY;
       66       30    1   ZWX$XREF_PRINT:ENTRY;
       67       31    1   ZPG$ERROR_WRITE:ENTRY(A,B,C);
       68       32    1   ZW2$GCOS_OU_DRIVER:ENTRY(A);
       69       33    1   ZWR$KILL_COMPILE_UNIT:ENTRY;
       70       34    1        RETURN;
       71       35    1   END OUE$ENTRIES;
       72       36        %EOD;

PL6.E3A0      #002=OUE$ENTRIES File=OUE$ZWF_ENT.:E05TSI                          WED 07/30/97 04:15 Page:11
      No diagnostics issued in procedure OUE$ENTRIES.

   Procedure OUE$ENTRIES requires 36 words for executable code.
   Procedure OUE$ENTRIES requires 8 words of local(AUTO) storage.

PL6.E3A0      #002=OUE$ENTRIES File=OUE$ZWF_ENT.:E05TSI                          WED 07/30/97 04:15 Page:12

 Object Unit name= OUE$ENTRIES                                File name= OUE$ZWF_ENT.:E05TOU
 UTS= JUL 30 '97 04:15:06.84 WED                              Compiler= PL-6/E31         Sev=      00
 SharedLib= :SHARED_SYSTEM                                    Alt SharedLib=


    ****  Control sections  ****

 Sect   Type Bound  Init  Size OctSiz  Section name(segment info)
    0   Proc  even  none    36     44  OUE$ENTRIES

    ****  Entry defs  ****

                              Check   Calling
                             calling  sequence
  Sect OctLoc Primary Altret sequence   type   Parms  Name
     0      0   yes            yes      Std        5  OUE$ENTRIES
     0      3                  yes      Std        0  PMEND
     0      6                  yes      Std        0  PMSTART
     0     11                  yes      Std        0  ZWI$PMSTART
     0     14                  yes      Std        0  ZWI$PMEND
     0     17                  yes      Std        2  XFF$FORMATREC
     0     22                  yes      Std        0  XFF$INIT
     0     25                  yes      Std        0  XFF$PREINIT
     0     30                  yes      Std        0  ZWX$XREF_PRINT
     0     33                  yes      Std        3  ZPG$ERROR_WRITE
     0     36                  yes      Std        1  ZW2$GCOS_OU_DRIVER
     0     41                  yes      Std        0  ZWR$KILL_COMPILE_UNIT

  ****  Entry refs  ****

         Check        Calling
        calling       sequence
Altret sequence SRef   type   Args  Name
                       nStd      0 X66_AUTO_5
                       nStd      0 X66_ARET
PL6.E3A0      #002=OUE$ENTRIES File=OUE$ZWF_ENT.:E05TSI                          WED 07/30/97 04:15 Page:13


       37        1        /*M* OUE$ENTRIES Satisfies extraneous PL6 entry references */
       38        2        /*T***********************************************************/
       39        3        /*T*                                                         */
       40        4        /*T* Copyright (c) Bull HN Information Systems Inc., 1997    */
       41        5        /*T*                                                         */
       42        6        /*T***********************************************************/
       43        7        %SET LISTSUB='1'B;
       44        8        /*
       45        9          ###   #   #  #####    #    #####  #   #  #####  ####    ###   #####   ###
       46       10         # # #  #   #  #       ###   #      #   #    #    #   #    #    #      #   #
       47       11         # # #  #   #  #      # #    #      ##  #    #    #   #    #    #      #
       48       12         #  ##  #   #  ####    ###   ####   # # #    #    ####     #    ####    ###
       49       13         #   #  #   #  #        # #  #      #  ##    #    # #      #    #          #
       50       14         #   #  #   #  #       ###   #      #   #    #    #  #     #    #      #   #
       51       15          ###    ###   #####    #    #####  #   #    #    #   #   ###   #####   ###
       52       16                                                                          */
       53       17        OUE$ENTRIES: PROC (A,B,C,D,E);

     17  0 000000   000000 700200 xent  OUE$ENTRIES  TSX0  ! X66_AUTO_5
         0 000001   000010 000005                    ZERO    8,5
         0 000002   000005 710000 0                  TRA     s:23+2

       54       18    1   DCL A UBIN;
       55       19    1   DCL B UBIN;
       56       20    1   DCL C UBIN;
       57       21    1   DCL D UBIN;
       58       22    1   DCL E UBIN;
       59       23    1   PMEND: ENTRY;

     23  0 000003   000000 700200 xent  PMEND        TSX0  ! X66_AUTO_5
         0 000004   000010 000005                    ZERO    8,5
         0 000005   000010 710000 0                  TRA     s:24+2

       60       24    1   PMSTART:ENTRY;

     24  0 000006   000000 700200 xent  PMSTART      TSX0  ! X66_AUTO_5
PL6.E3A0      #002=OUE$ENTRIES File=OUE$ZWF_ENT.:E05TSI                          WED 07/30/97 04:15 Page:14
         0 000007   000010 000005                    ZERO    8,5
         0 000010   000013 710000 0                  TRA     s:25+2

       61       25    1   ZWI$PMSTART: ENTRY;

     25  0 000011   000000 700200 xent  ZWI$PMSTART  TSX0  ! X66_AUTO_5
         0 000012   000010 000005                    ZERO    8,5
         0 000013   000016 710000 0                  TRA     s:26+2

       62       26    1   ZWI$PMEND: ENTRY;

     26  0 000014   000000 700200 xent  ZWI$PMEND    TSX0  ! X66_AUTO_5
         0 000015   000010 000005                    ZERO    8,5
         0 000016   000021 710000 0                  TRA     s:27+2

       63       27    1   XFF$FORMATREC:ENTRY(A,B);

     27  0 000017   000000 700200 xent  XFF$FORMATR* TSX0  ! X66_AUTO_5
         0 000020   000010 000005                    ZERO    8,5
         0 000021   000024 710000 0                  TRA     s:28+2

       64       28    1   XFF$INIT:ENTRY;

     28  0 000022   000000 700200 xent  XFF$INIT     TSX0  ! X66_AUTO_5
         0 000023   000010 000005                    ZERO    8,5
         0 000024   000027 710000 0                  TRA     s:29+2

       65       29    1   XFF$PREINIT:ENTRY;

     29  0 000025   000000 700200 xent  XFF$PREINIT  TSX0  ! X66_AUTO_5
         0 000026   000010 000005                    ZERO    8,5
         0 000027   000032 710000 0                  TRA     s:30+2

       66       30    1   ZWX$XREF_PRINT:ENTRY;

     30  0 000030   000000 700200 xent  ZWX$XREF_PR* TSX0  ! X66_AUTO_5
         0 000031   000010 000005                    ZERO    8,5
PL6.E3A0      #002=OUE$ENTRIES File=OUE$ZWF_ENT.:E05TSI                          WED 07/30/97 04:15 Page:15
         0 000032   000035 710000 0                  TRA     s:31+2

       67       31    1   ZPG$ERROR_WRITE:ENTRY(A,B,C);

     31  0 000033   000000 700200 xent  ZPG$ERROR_W* TSX0  ! X66_AUTO_5
         0 000034   000010 000005                    ZERO    8,5
         0 000035   000040 710000 0                  TRA     s:32+2

       68       32    1   ZW2$GCOS_OU_DRIVER:ENTRY(A);

     32  0 000036   000000 700200 xent  ZW2$GCOS_OU* TSX0  ! X66_AUTO_5
         0 000037   000010 000005                    ZERO    8,5
         0 000040   000043 710000 0                  TRA     s:34

       69       33    1   ZWR$KILL_COMPILE_UNIT:ENTRY;

     33  0 000041   000000 700200 xent  ZWR$KILL_CO* TSX0  ! X66_AUTO_5
         0 000042   000010 000005                    ZERO    8,5

       70       34    1        RETURN;

     34  0 000043   000000 702200 xent               TSX2  ! X66_ARET
       71       35    1   END OUE$ENTRIES;
       72       36        %EOD;

PL6.E3A0      #002=OUE$ENTRIES File=OUE$ZWF_ENT.:E05TSI                          WED 07/30/97 04:15 Page:16
      No diagnostics issued in procedure OUE$ENTRIES.
PL6.E3A0      #002=OUE$ENTRIES File=OUE$ZWF_ENT.:E05TSI                          WED 07/30/97 04:15 Page:17

 **** Variables and constants ****

  ****  Auto variables  ****

  ****  Scalars and arrays  ****
OctLoc.c.b A Datatyp(siz) R M Lvl/name                 OctLoc.c.b A Datatyp(siz) R M Lvl/name

     3-0-0/w PTR         r     1 @A                         4-0-0/w PTR         r     1 @B
     5-0-0/w PTR         r     1 @C                         6-0-0/w PTR         r     1 @D
     7-0-0/w PTR         r     1 @E                        *0-0-0/w UBIN        r     1 A
    *0-0-0/w UBIN        r     1 B                         *0-0-0/w UBIN        r     1 C
    *0-0-0/w UBIN        r     1 D                         *0-0-0/w UBIN        r     1 E


   Procedure OUE$ENTRIES requires 36 words for executable code.
   Procedure OUE$ENTRIES requires 8 words of local(AUTO) storage.
PL6.E3A0      #002=OUE$ENTRIES File=OUE$ZWF_ENT.:E05TSI                          WED 07/30/97 04:15 Page:18
          *** CROSS REFERENCE LISTING ***
**     DENOTES     IDENTIFIER DEFINITION
<<                 IDENTIFIER'S VALUE SET
>>                 IDENTIFIER'S VALUE USED
<>                 IDENTIFIER SET AND/OR USED
--                 IDENTIFIER REFERENCED
PL6.E3A0      #002=OUE$ENTRIES File=OUE$ZWF_ENT.:E05TSI                          WED 07/30/97 04:15 Page:19
          MINI XREF LISTING

A
        18**DCL        17--PROC       27--ENTRY      31--ENTRY      32--ENTRY
B
        19**DCL        17--PROC       27--ENTRY      31--ENTRY
C
        20**DCL        17--PROC       31--ENTRY
D
        21**DCL        17--PROC
E
        22**DCL        17--PROC

PL6.E3A0      #003=OUE$ALTS File=OUE$ZWF_ENT.:E05TSI                             WED 07/30/97 04:15 Page:20
       73        1        /*M* OUE$ALTS Satisfies ALTRET type PL6 entries */
       74        2        /*T***********************************************************/
       75        3        /*T*                                                         */
       76        4        /*T* Copyright (c) Bull HN Information Systems Inc., 1997    */
       77        5        /*T*                                                         */
       78        6        /*T***********************************************************/
       79        7        %SET LISTSUB='1'B;
       80        8        /*
       81        9          ###   #   #  #####    #     ###   #      #####   ###
       82       10         # # #  #   #  #       ###   #   #  #        #    #   #
       83       11         # # #  #   #  #      # #    #   #  #        #    #
       84       12         #  ##  #   #  ####    ###   #####  #        #     ###
       85       13         #   #  #   #  #        # #  #   #  #        #        #
       86       14         #   #  #   #  #       ###   #   #  #        #    #   #
       87       15          ###    ###   #####    #    #   #  #####    #     ###
       88       16                                                                          */
       89       17        OUE$ALTS: PROC (A,B,C,D,E,F,G,H,I,J) ALTRET;
       90       18    1   DCL A SBIN;
       91       19    1   DCL B SBIN;
       92       20    1   DCL C SBIN;
       93       21    1   DCL D SBIN;
       94       22    1   DCL E SBIN;
       95       23    1   DCL F SBIN;
       96       24    1   DCL G SBIN;
       97       25    1   DCL H SBIN;
       98       26    1   DCL I SBIN;
       99       27    1   DCL J SBIN;
      100       28    1   ZW6$CODE_GEN_DRIVER:ENTRY ALTRET;
      101       29    1   ZW6$L6_CODE_GEN_DRIVER:ENTRY ALTRET;
      102       30    1   ZPC$UNGMAP:ENTRY (A,B,C,D,E,F,G,H,I,J)  ALTRET;
      103       31    1        RETURN;
      104       32    1   END OUE$ALTS;

PL6.E3A0      #003=OUE$ALTS File=OUE$ZWF_ENT.:E05TSI                             WED 07/30/97 04:15 Page:21
      No diagnostics issued in procedure OUE$ALTS.

   Procedure OUE$ALTS requires 12 words for executable code.
   Procedure OUE$ALTS requires 14 words of local(AUTO) storage.

    No errors detected in file OUE$ZWF_ENT.:E05TSI    .

PL6.E3A0      #003=OUE$ALTS File=OUE$ZWF_ENT.:E05TSI                             WED 07/30/97 04:15 Page:22

 Object Unit name= OUE$ALTS                                   File name= OUE$ZWF_ENT.:E05TOU
 UTS= JUL 30 '97 04:15:10.72 WED                              Compiler= PL-6/E31         Sev=      00
 SharedLib= :SHARED_SYSTEM                                    Alt SharedLib=


    ****  Control sections  ****

 Sect   Type Bound  Init  Size OctSiz  Section name(segment info)
    0   Proc  even  none    12     14  OUE$ALTS

    ****  Entry defs  ****

                              Check   Calling
                             calling  sequence
  Sect OctLoc Primary Altret sequence   type   Parms  Name
     0      0   yes    yes     yes      Std       10  OUE$ALTS
     0      3          yes     yes      Std        0  ZW6$CODE_GEN_DRIVER
     0      6          yes     yes      Std        0  ZW6$L6_CODE_GEN_DRIVER
     0     11          yes     yes      Std       10  ZPC$UNGMAP

  ****  Entry refs  ****

         Check        Calling
        calling       sequence
Altret sequence SRef   type   Args  Name
                       nStd      0 X66_AUTO_N
                       nStd      0 X66_ARET
PL6.E3A0      #003=OUE$ALTS File=OUE$ZWF_ENT.:E05TSI                             WED 07/30/97 04:15 Page:23


       73        1        /*M* OUE$ALTS Satisfies ALTRET type PL6 entries */
       74        2        /*T***********************************************************/
       75        3        /*T*                                                         */
       76        4        /*T* Copyright (c) Bull HN Information Systems Inc., 1997    */
       77        5        /*T*                                                         */
       78        6        /*T***********************************************************/
       79        7        %SET LISTSUB='1'B;
       80        8        /*
       81        9          ###   #   #  #####    #     ###   #      #####   ###
       82       10         # # #  #   #  #       ###   #   #  #        #    #   #
       83       11         # # #  #   #  #      # #    #   #  #        #    #
       84       12         #  ##  #   #  ####    ###   #####  #        #     ###
       85       13         #   #  #   #  #        # #  #   #  #        #        #
       86       14         #   #  #   #  #       ###   #   #  #        #    #   #
       87       15          ###    ###   #####    #    #   #  #####    #     ###
       88       16                                                                          */
       89       17        OUE$ALTS: PROC (A,B,C,D,E,F,G,H,I,J) ALTRET;

     17  0 000000   000000 700200 xent  OUE$ALTS     TSX0  ! X66_AUTO_N
         0 000001   000016 000012                    ZERO    14,10
         0 000002   000005 710000 0                  TRA     s:28+2

       90       18    1   DCL A SBIN;
       91       19    1   DCL B SBIN;
       92       20    1   DCL C SBIN;
       93       21    1   DCL D SBIN;
       94       22    1   DCL E SBIN;
       95       23    1   DCL F SBIN;
       96       24    1   DCL G SBIN;
       97       25    1   DCL H SBIN;
       98       26    1   DCL I SBIN;
       99       27    1   DCL J SBIN;
      100       28    1   ZW6$CODE_GEN_DRIVER:ENTRY ALTRET;

     28  0 000003   000000 700200 xent  ZW6$CODE_GE* TSX0  ! X66_AUTO_N
         0 000004   000016 000012                    ZERO    14,10
PL6.E3A0      #003=OUE$ALTS File=OUE$ZWF_ENT.:E05TSI                             WED 07/30/97 04:15 Page:24
         0 000005   000010 710000 0                  TRA     s:29+2

      101       29    1   ZW6$L6_CODE_GEN_DRIVER:ENTRY ALTRET;

     29  0 000006   000000 700200 xent  ZW6$L6_CODE* TSX0  ! X66_AUTO_N
         0 000007   000016 000012                    ZERO    14,10
         0 000010   000013 710000 0                  TRA     s:31

      102       30    1   ZPC$UNGMAP:ENTRY (A,B,C,D,E,F,G,H,I,J)  ALTRET;

     30  0 000011   000000 700200 xent  ZPC$UNGMAP   TSX0  ! X66_AUTO_N
         0 000012   000016 000012                    ZERO    14,10

      103       31    1        RETURN;

     31  0 000013   000000 702200 xent               TSX2  ! X66_ARET
      104       32    1   END OUE$ALTS;

PL6.E3A0      #003=OUE$ALTS File=OUE$ZWF_ENT.:E05TSI                             WED 07/30/97 04:15 Page:25
      No diagnostics issued in procedure OUE$ALTS.
PL6.E3A0      #003=OUE$ALTS File=OUE$ZWF_ENT.:E05TSI                             WED 07/30/97 04:15 Page:26

 **** Variables and constants ****

  ****  Auto variables  ****

  ****  Scalars and arrays  ****
OctLoc.c.b A Datatyp(siz) R M Lvl/name                 OctLoc.c.b A Datatyp(siz) R M Lvl/name

     3-0-0/w PTR         r     1 @A                         4-0-0/w PTR         r     1 @B
     5-0-0/w PTR         r     1 @C                         6-0-0/w PTR         r     1 @D
     7-0-0/w PTR         r     1 @E                        10-0-0/w PTR         r     1 @F
    11-0-0/w PTR         r     1 @G                        12-0-0/w PTR         r     1 @H
    13-0-0/w PTR         r     1 @I                        14-0-0/w PTR         r     1 @J
    *0-0-0/w SBIN        r     1 A                         *0-0-0/w SBIN        r     1 B
    *0-0-0/w SBIN        r     1 C                         *0-0-0/w SBIN        r     1 D
    *0-0-0/w SBIN        r     1 E                         *0-0-0/w SBIN        r     1 F
    *0-0-0/w SBIN        r     1 G                         *0-0-0/w SBIN        r     1 H
    *0-0-0/w SBIN        r     1 I                         *0-0-0/w SBIN        r     1 J


   Procedure OUE$ALTS requires 12 words for executable code.
   Procedure OUE$ALTS requires 14 words of local(AUTO) storage.

    No errors detected in file OUE$ZWF_ENT.:E05TSI    .
PL6.E3A0      #003=OUE$ALTS File=OUE$ZWF_ENT.:E05TSI                             WED 07/30/97 04:15 Page:27
          *** CROSS REFERENCE LISTING ***
**     DENOTES     IDENTIFIER DEFINITION
<<                 IDENTIFIER'S VALUE SET
>>                 IDENTIFIER'S VALUE USED
<>                 IDENTIFIER SET AND/OR USED
--                 IDENTIFIER REFERENCED
PL6.E3A0      #003=OUE$ALTS File=OUE$ZWF_ENT.:E05TSI                             WED 07/30/97 04:15 Page:28
          MINI XREF LISTING

A
        18**DCL        17--PROC       30--ENTRY
B
        19**DCL        17--PROC       30--ENTRY
C
        20**DCL        17--PROC       30--ENTRY
D
        21**DCL        17--PROC       30--ENTRY
E
        22**DCL        17--PROC       30--ENTRY
F
        23**DCL        17--PROC       30--ENTRY
G
        24**DCL        17--PROC       30--ENTRY
H
        25**DCL        17--PROC       30--ENTRY
I
        26**DCL        17--PROC       30--ENTRY
J
        27**DCL        17--PROC       30--ENTRY
