VERSION E05

PL6.E3A0      #001=OUT$TEMPLAT File=OUT$TEMPLAT.:E05TSI                          WED 07/30/97 04:15 Page:1
        1        1        /*M* OUT$TEMPLAT Creates KEYINs message templates */
        2        2        /*T***********************************************************/
        3        3        /*T*                                                         */
        4        4        /*T* Copyright (c) Bull HN Information Systems Inc., 1997    */
        5        5        /*T*                                                         */
        6        6        /*T***********************************************************/
        7        7        /*X* DMR,PLM=5,IND=5,CTI=5,SDI=5,MCL=10,CSI=0,ECI=0 */
        8        8        %SET LISTSUB='1'B;
        9        9                                                /**/
       10       10                                                /**/
       11       11        /*M* OUT$TEMPLAT entry point for creating templates */
       12       12        /*
       13       13         ###   #   #  #####   #   #####  #####  #   #  ####   #       ###   #####
       14       14        # # #  #   #    #    ###    #    #      ## ##  #   #  #      #   #    #
       15       15        # # #  #   #    #   # #     #    #      # # #  #   #  #      #   #    #
       16       16        #  ##  #   #    #    ###    #    ####   #   #  ####   #      #####    #
       17       17        #   #  #   #    #     # #   #    #      #   #  #      #      #   #    #
       18       18        #   #  #   #    #    ###    #    #      #   #  #      #      #   #    #
       19       19         ###    ###     #     #     #    #####  #   #  #      #####  #   #    #
       20       20                                                                          */
       21       21                                                /**/
       22       22        OUT$TEMPLAT: PROC;
       23       23                                                /**/
       24       24                                                /**/
       25       25                                           /*
       26       26                                                SYMREFS
       27       27                                                                          */
       28       28    1   DCL ZWI$M$NS# UBIN SYMREF;
       29       29    1   DCL OUT$TOPNODE UBIN SYMREF;
       30       30    1   DCL B$TCB$ PTR SYMREF;
       31       31    1   DCL OUX_BUF CHAR(300) SYMREF;
       32       32    1   DCL OUX_CSIZE SBIN SYMREF;
       33       33    1   DCL ZWI$RECNO UBIN SYMREF;
       34       34    1   DCL 1 ZWI$INPUT_KEY ALIGNED SYMREF,
       35       35    1            2 TCHAR UBIN(8) UNAL,
       36       36    1            2 EDIT_VAL SBIN(28) UNAL;
       37       37    1   DCL ZWH$ERR ENTRY(11);
PL6.E3A0      #001=OUT$TEMPLAT File=OUT$TEMPLAT.:E05TSI                          WED 07/30/97 04:15 Page:2
       38       38    1   DCL OUT$BUILD ENTRY(1) ALTRET;
       39       39                                                /**/
       40       40                                           /*
       41       41                                                INCLUDES
       42       42                                                                          */
       43       43        %INCLUDE OUX_ENTRY;
       44       61        %INCLUDE XU_PERR_C;
       45      252        %INCLUDE OUT_DATA_R;
       46      267        %INCLUDE OU_PERR_C;
       47      288        %INCLUDE CP_6;
       48      369                                                /**/
       49      370             %FPT_GDS       (FPTN=GET_COMMON_PAGES,
       50      371                                 COMMON=YES,
       51      372                                 RESULTS=OUX_VECTOR,
       52      373                                 SEGSIZE=16384);
       53      389                                                /**/
       54      390                  %VLP_VECTOR (FPTN=OUX_VECTOR);
       55      405                                                /**/
       56      406
       57      407                                                /**/
       58      408                                           /*
       59      409                                                LOCAL STORAGE
       60      410                                                                          */
       61      411    1   DCL I SBIN WORD STATIC;
       62      412    1   DCL J SBIN WORD STATIC;
       63      413    1   DCL K SBIN WORD STATIC;
       64      414    1   DCL TOPNODE$ STATIC PTR;
       65      415    1   DCL ERROR_CODE REDEF TOPNODE$ UBIN WORD;
       66      416    1   DCL 1 ERROR_CODED REDEF TOPNODE$,
       67      417    1            2 MID BIT(12) UNAL,
       68      418    1            2 FCG BIT(6) UNAL,
       69      419    1            2 MON BIT(1) UNAL,
       70      420    1            2 CODE UBIN(14) UNAL,
       71      421    1            2 SEV UBIN(3) UNAL;
       72      422    1   DCL STRING CHAR(140) STATIC UNAL;
       73      423                                                /**/
       74      424                                           /*
PL6.E3A0      #001=OUT$TEMPLAT File=OUT$TEMPLAT.:E05TSI                          WED 07/30/97 04:15 Page:3
       75      425                                                LOCAL CONSTANTS
       76      426                                                                          */
       77      427    1   DCL XUP_MID BIT(12) CONSTANT INIT('3025'O);
       78      428    1   DCL XUP_FCG BIT(6) CONSTANT INIT('20'O);
       79      429        %EJECT;
PL6.E3A0      #001=OUT$TEMPLAT File=OUT$TEMPLAT.:E05TSI                          WED 07/30/97 04:15 Page:4
       80      430        /*****************************************************************
       81      431
       82      432             Begin     OUT$TEMPLAT        main
       83      433
       84      434        *******************************************************************/
       85      435                                                /**/
       86      436                                                /**/
       87      437    1        CALL M$GDS (GET_COMMON_PAGES) ALTRET (ALT_ERROR);
       88      438                                                /**/
       89      439    1        CALL OUX$SETMEM (OUX_VECTOR) ALTRET (ALT_INT_ERROR);
       90      440                                                /**/
       91      441    1        CALL OUX$SETDCBS (ZWI$M$NS#, DCBNUM(NIL));
       92      442                                                /**/
       93      443    2        DO WHILE('1'B);
       94      444                                                /**/
       95      445    2   TRY_TRY_AGAIN: ;
       96      446    2             CALL OUX$GETCMD (OUT$TOPNODE, TOPNODE$,
       97      447    2                  ,                        /* NIL PROMPT */
       98      448    2                  ,                        /* NIL TEXT */
       99      449    2                  ,                        /* NIL TSIZ */
      100      450    2                  )                        /* NIL ROUTINE */
      101      451    2                  ALTRET (ALT_PARSE);
      102      452                                                /**/
      103      453    2             CALL OUT$BUILD (TOPNODE$) ALTRET (ALT_BUILD);
      104      454    2           END;                            /* DO WHILE */
      105      455                                                /**/
      106      456                                                /**/
      107      457                                                /**/
      108      458    1   ALT_PARSE: ;
      109      459    1        IF ERROR_CODED.MID = XUP_MID
      110      460    1        THEN
      111      461    2        DO;
      112      462    3             DO CASE(ERROR_CODED.CODE);
      113      463                                                /**/
      114      464    3             CASE (%E$SYNERR);
      115      465    3                CALL OUX$ERRPTR ( ,DCBNUM(NIL)); /* Use PCB.HI_CHAR */
      116      466                                                /* return %U1 */
PL6.E3A0      #001=OUT$TEMPLAT File=OUT$TEMPLAT.:E05TSI                          WED 07/30/97 04:15 Page:5
      117      467                                                /**/
      118      468        /*E*      ERROR: OUT-E$OUTSYNERR-3
      119      469                  MESSAGE: Syntax error at %U1.
      120      470                                                                          */
      121      471
      122      472    3                OUT_RECNO = ZWI$RECNO;
      123      473    3                OUT_INPUT_KEY = ZWI$INPUT_KEY;
      124      474    3                OUT_MIDD.MID = '24'O /* T_MID# */;
      125      475    3                OUT_MIDD.FCG = '1725'O /* OU_FCG# */;
      126      476    3                OUT_ERROR_CODE = %E$OUTSYNERR;
      127      477    3                OUT_SEV = 3;
      128      478    3                OUT_ERR_CNT = OUX_CSIZE;
      129      479    3                OUT_ERR_STRING = SUBSTR(OUX_BUF,0,OUX_CSIZE);
      130      480                                                /**/
      131      481    3                CALL ZWH$ERR (OUT_RECNO,
      132      482    3                     OUT_INPUT_KEY,
      133      483    3                     OUT_MID,
      134      484    3                     OUT_ERROR_CODE,
      135      485    3                     OUT_SEV,
      136      486    3                     OUT_ERR_CNT,
      137      487    3                     OUT_ERR_STRING);
      138      488    3             CASE (ELSE);
      139      489    3             END;                          /* DO CASE ERROR CODE */
      140      490    2           END;                            /* DO IF XUP ERROR */
      141      491    1        IF ERROR_CODED.MID ~= XUP_MID      /* TEMPORARY ONLY! */
      142      492    1        THEN                               /* TEMPORARY ONLY! */
      143      493    1             RETURN;
      144      494    1        GOTO TRY_TRY_AGAIN;
      145      495                                                /**/
      146      496    1   ALT_BUILD: ;                            /* COME HERE IF BAD BUILD */
      147      497    1        OUT_RECNO = ZWI$RECNO;
      148      498    1        OUT_INPUT_KEY = ZWI$INPUT_KEY;
      149      499    1        OUT_MIDD.MID = '24'O /* T_MID# */;
      150      500    1        OUT_MIDD.FCG = '1725'O /* OU_FCG# */;
      151      501    1        OUT_ERROR_CODE = OUT_ERRORED;
      152      502    1        OUT_SEV = 3;
      153      503                                                /**/
PL6.E3A0      #001=OUT$TEMPLAT File=OUT$TEMPLAT.:E05TSI                          WED 07/30/97 04:15 Page:6
      154      504    1        CALL ZWH$ERR (OUT_RECNO,
      155      505    1             OUT_INPUT_KEY,
      156      506    1             OUT_MID,
      157      507    1             OUT_ERROR_CODE,
      158      508    1             OUT_SEV);
      159      509    1        GOTO TRY_TRY_AGAIN;
      160      510
      161      511    1   ALT_INT_ERROR: ;                        /* COME HERE IF INTERNAL ERROR */
      162      512    1   ALT_ERROR: ;                            /* COME HERE IF NO PAGES */
      163      513    1        RETURN;                            /* GO BACK FOR NOW */
      164      514    1   END OUT$TEMPLAT;
      165      515        %EOD;

PL6.E3A0      #001=OUT$TEMPLAT File=OUT$TEMPLAT.:E05TSI                          WED 07/30/97 04:15 Page:7
--  Include file information  --

   CP_6.:E05TOU  cannot be made into a system file and is referenced.
   OU_PERR_C.:E05TOU  is referenced.
   OUT_DATA_R.:E05TOU  cannot be made into a system file and is referenced.
   XU_PERR_C.:E05TOU  is referenced.
   OUX_ENTRY.:E05TOU  cannot be made into a system file and is referenced.
   B$JIT_C.:E05TOU  was found in the system file and is never referenced.
   CP_6_C.:E05TOU  was found in the system file and is referenced.
      No diagnostics issued in procedure OUT$TEMPLAT.

   Procedure OUT$TEMPLAT requires 89 words for executable code.
   Procedure OUT$TEMPLAT requires 6 words of local(AUTO) storage.

PL6.E3A0      #001=OUT$TEMPLAT File=OUT$TEMPLAT.:E05TSI                          WED 07/30/97 04:15 Page:8

 Object Unit name= OUT$TEMPLAT                                File name= OUT$TEMPLAT.:E05TOU
 UTS= JUL 30 '97 04:15:42.16 WED                              Compiler= PL-6/E31         Sev=      00
 SharedLib= :SHARED_SYSTEM                                    Alt SharedLib=


    ****  Control sections  ****

 Sect   Type Bound  Init  Size OctSiz  Section name(segment info)
    0   DCB   even  none     0      0  M$UC
    1   Data  even  none    47     57  OUT$TEMPLAT
    2  RoData even  UTS      2      2  OUT$TEMPLAT
    3   Proc  even  none    89    131  OUT$TEMPLAT
    4  RoData even  none    12     14  OUT$TEMPLAT

    ****  Entry defs  ****

                              Check   Calling
                             calling  sequence
  Sect OctLoc Primary Altret sequence   type   Parms  Name
     3      0   yes            yes      Std        0  OUT$TEMPLAT

  ****  Entry refs  ****

         Check        Calling
        calling       sequence
Altret sequence SRef   type   Args  Name
 yes     yes           Std       1 OUX$SETMEM
 yes     yes           Std       1 OUT$BUILD
 yes     yes           Std       2 OUX$ERRPTR
         yes           Std      11 ZWH$ERR
 yes     yes           Std       2 OUX$SETDCBS
 yes     yes           Std       6 OUX$GETCMD
                       nStd      0 X66_AUTO_0
                       Std       0 B_CONSPOOL_D
                       nStd      0 X66_ARET
PL6.E3A0      #001=OUT$TEMPLAT File=OUT$TEMPLAT.:E05TSI                          WED 07/30/97 04:15 Page:9

  ****  Data refs  ****

  Flags:  r = read only, s = secondary
Flgs Name                             Flgs Name                             Flgs Name
     ZWI$M$NS#                             OUT$TOPNODE                           OUX_BUF
     OUX_CSIZE                             ZWI$RECNO                             ZWI$INPUT_KEY
     OUT_RECNO                             OUT_INPUT_KEY                         OUT_MID
     OUT_ERROR_CODE                        OUT_SEV                               OUT_ERR_CNT
     OUT_ERR_STRING                        OUT_ERRORED                           M$UC
     B_VECTNIL

  ****  Segment refs  ****

  Flags:  r = read only, s = secondary
Flgs Name                             Flgs Name                             Flgs Name
     ISSID
PL6.E3A0      #001=OUT$TEMPLAT File=OUT$TEMPLAT.:E05TSI                          WED 07/30/97 04:15 Page:10


        1        1        /*M* OUT$TEMPLAT Creates KEYINs message templates */
        2        2        /*T***********************************************************/
        3        3        /*T*                                                         */
        4        4        /*T* Copyright (c) Bull HN Information Systems Inc., 1997    */
        5        5        /*T*                                                         */
        6        6        /*T***********************************************************/
        7        7        /*X* DMR,PLM=5,IND=5,CTI=5,SDI=5,MCL=10,CSI=0,ECI=0 */
        8        8        %SET LISTSUB='1'B;
        9        9                                                /**/
       10       10                                                /**/
       11       11        /*M* OUT$TEMPLAT entry point for creating templates */
       12       12        /*
       13       13         ###   #   #  #####   #   #####  #####  #   #  ####   #       ###   #####
       14       14        # # #  #   #    #    ###    #    #      ## ##  #   #  #      #   #    #
       15       15        # # #  #   #    #   # #     #    #      # # #  #   #  #      #   #    #
       16       16        #  ##  #   #    #    ###    #    ####   #   #  ####   #      #####    #
       17       17        #   #  #   #    #     # #   #    #      #   #  #      #      #   #    #
       18       18        #   #  #   #    #    ###    #    #      #   #  #      #      #   #    #
       19       19         ###    ###     #     #     #    #####  #   #  #      #####  #   #    #
       20       20                                                                          */
       21       21                                                /**/
       22       22        OUT$TEMPLAT: PROC;

     22  3 000000   000000 700200 xent  OUT$TEMPLAT  TSX0  ! X66_AUTO_0
         3 000001   000006 000000                    ZERO    6,0

       23       23                                                /**/
       24       24                                                /**/
       25       25                                           /*
       26       26                                                SYMREFS
       27       27                                                                          */
       28       28    1   DCL ZWI$M$NS# UBIN SYMREF;
       29       29    1   DCL OUT$TOPNODE UBIN SYMREF;
       30       30    1   DCL B$TCB$ PTR SYMREF;
       31       31    1   DCL OUX_BUF CHAR(300) SYMREF;
       32       32    1   DCL OUX_CSIZE SBIN SYMREF;
PL6.E3A0      #001=OUT$TEMPLAT File=OUT$TEMPLAT.:E05TSI                          WED 07/30/97 04:15 Page:11
       33       33    1   DCL ZWI$RECNO UBIN SYMREF;
       34       34    1   DCL 1 ZWI$INPUT_KEY ALIGNED SYMREF,
       35       35    1            2 TCHAR UBIN(8) UNAL,
       36       36    1            2 EDIT_VAL SBIN(28) UNAL;
       37       37    1   DCL ZWH$ERR ENTRY(11);
       38       38    1   DCL OUT$BUILD ENTRY(1) ALTRET;
       39       39                                                /**/
       40       40                                           /*
       41       41                                                INCLUDES
       42       42                                                                          */
       43       43        %INCLUDE OUX_ENTRY;
       44       61        %INCLUDE XU_PERR_C;
       45      252        %INCLUDE OUT_DATA_R;
       46      267        %INCLUDE OU_PERR_C;
       47      288        %INCLUDE CP_6;
       48      369                                                /**/
       49      370             %FPT_GDS       (FPTN=GET_COMMON_PAGES,
       50      371                                 COMMON=YES,
       51      372                                 RESULTS=OUX_VECTOR,
       52      373                                 SEGSIZE=16384);
       53      389                                                /**/
       54      390                  %VLP_VECTOR (FPTN=OUX_VECTOR);
       55      405                                                /**/
       56      406
       57      407                                                /**/
       58      408                                           /*
       59      409                                                LOCAL STORAGE
       60      410                                                                          */
       61      411    1   DCL I SBIN WORD STATIC;
       62      412    1   DCL J SBIN WORD STATIC;
       63      413    1   DCL K SBIN WORD STATIC;
       64      414    1   DCL TOPNODE$ STATIC PTR;
       65      415    1   DCL ERROR_CODE REDEF TOPNODE$ UBIN WORD;
       66      416    1   DCL 1 ERROR_CODED REDEF TOPNODE$,
       67      417    1            2 MID BIT(12) UNAL,
       68      418    1            2 FCG BIT(6) UNAL,
       69      419    1            2 MON BIT(1) UNAL,
PL6.E3A0      #001=OUT$TEMPLAT File=OUT$TEMPLAT.:E05TSI                          WED 07/30/97 04:15 Page:12
       70      420    1            2 CODE UBIN(14) UNAL,
       71      421    1            2 SEV UBIN(3) UNAL;
       72      422    1   DCL STRING CHAR(140) STATIC UNAL;
       73      423                                                /**/
       74      424                                           /*
       75      425                                                LOCAL CONSTANTS
       76      426                                                                          */
       77      427    1   DCL XUP_MID BIT(12) CONSTANT INIT('3025'O);
       78      428    1   DCL XUP_FCG BIT(6) CONSTANT INIT('20'O);
       79      429        %EJECT;
PL6.E3A0      #001=OUT$TEMPLAT File=OUT$TEMPLAT.:E05TSI                          WED 07/30/97 04:15 Page:13
       80      430        /*****************************************************************
       81      431
       82      432             Begin     OUT$TEMPLAT        main
       83      433
       84      434        *******************************************************************/
       85      435                                                /**/
       86      436                                                /**/
       87      437    1        CALL M$GDS (GET_COMMON_PAGES) ALTRET (ALT_ERROR);

    437  3 000002   000000 630400 1                  EPPR0   GET_COMMON_PAGES
         3 000003   430001 713400                    CLIMB   alt,gds
         3 000004   400400 401760                    pmme    nvectors=2
         3 000005   000130 702000 3                  TSX2    ALT_INT_ERROR

       88      438                                                /**/
       89      439    1        CALL OUX$SETMEM (OUX_VECTOR) ALTRET (ALT_INT_ERROR);

    439  3 000006   000000 630400 4                  EPPR0   0
         3 000007   000017 631400 xsym               EPPR1   B_VECTNIL+15
         3 000010   000000 701000 xent               TSX1    OUX$SETMEM
         3 000011   000130 702000 3                  TSX2    ALT_INT_ERROR

       90      440                                                /**/
       91      441    1        CALL OUX$SETDCBS (ZWI$M$NS#, DCBNUM(NIL));

    441  3 000012   000001 630400 4                  EPPR0   1
         3 000013   000020 631400 xsym               EPPR1   B_VECTNIL+16
         3 000014   000000 701000 xent               TSX1    OUX$SETDCBS
         3 000015   000000 011000                    NOP     0

       92      442                                                /**/
       93      443    2        DO WHILE('1'B);

    441  3 000016                       TRY_TRY_AGA* null
       94      444                                                /**/
       95      445    2   TRY_TRY_AGAIN: ;
       96      446    2             CALL OUX$GETCMD (OUT$TOPNODE, TOPNODE$,
PL6.E3A0      #001=OUT$TEMPLAT File=OUT$TEMPLAT.:E05TSI                          WED 07/30/97 04:15 Page:14

    446  3 000016   000003 630400 4                  EPPR0   3
         3 000017   000020 631400 xsym               EPPR1   B_VECTNIL+16
         3 000020   000000 701000 xent               TSX1    OUX$GETCMD
         3 000021   000027 702000 3                  TSX2    ALT_PARSE

       97      447    2                  ,                        /* NIL PROMPT */
       98      448    2                  ,                        /* NIL TEXT */
       99      449    2                  ,                        /* NIL TSIZ */
      100      450    2                  )                        /* NIL ROUTINE */
      101      451    2                  ALTRET (ALT_PARSE);
      102      452                                                /**/
      103      453    2             CALL OUT$BUILD (TOPNODE$) ALTRET (ALT_BUILD);

    453  3 000022   000004 630400 4                  EPPR0   4
         3 000023   000017 631400 xsym               EPPR1   B_VECTNIL+15
         3 000024   000000 701000 xent               TSX1    OUT$BUILD
         3 000025   000107 702000 3                  TSX2    ALT_BUILD

      104      454    2           END;                            /* DO WHILE */

    454  3 000026   000016 710000 3                  TRA     TRY_TRY_AGAIN

    445  3 000027                       ALT_PARSE    null
      105      455                                                /**/
      106      456                                                /**/
      107      457                                                /**/
      108      458    1   ALT_PARSE: ;
      109      459    1        IF ERROR_CODED.MID = XUP_MID

    459  3 000027   000013 236000 1                  LDQ     TOPNODE$
         3 000030   000000 676000 2                  ERQ     XUP_MID
         3 000031   777700 376003                    ANQ     -64,DU
         3 000032   000101 601000 3                  TNZ     s:491

      110      460    1        THEN
      111      461    2        DO;
PL6.E3A0      #001=OUT$TEMPLAT File=OUT$TEMPLAT.:E05TSI                          WED 07/30/97 04:15 Page:15

      112      462    3             DO CASE(ERROR_CODED.CODE);

    462  3 000033   000013 236000 1                  LDQ     TOPNODE$
         3 000034   000003 772000                    QRL     3
         3 000035   037777 376007                    ANQ     16383,DL
         3 000036   000002 116007                    CMPQ    2,DL
         3 000037   000041 602006 3                  TNC     s:462+6,QL
         3 000040   000101 710000 3                  TRA     s:491
         3 000041   000101 710000 3                  TRA     s:491
         3 000042   000043 710000 3                  TRA     s:465

      113      463                                                /**/
      114      464    3             CASE (%E$SYNERR);

      115      465    3                CALL OUX$ERRPTR ( ,DCBNUM(NIL)); /* Use PCB.HI_CHAR */

    465  3 000043   000002 236000 4                  LDQ     2
         3 000044   000001 235000 xsym               LDA     B_VECTNIL+1
         3 000045   200004 757100                    STAQ    4,,AUTO
         3 000046   200004 630500                    EPPR0   4,,AUTO
         3 000047   000020 631400 xsym               EPPR1   B_VECTNIL+16
         3 000050   000000 701000 xent               TSX1    OUX$ERRPTR
         3 000051   000000 011000                    NOP     0

      116      466                                                /* return %U1 */
      117      467                                                /**/
      118      468        /*E*      ERROR: OUT-E$OUTSYNERR-3
      119      469                  MESSAGE: Syntax error at %U1.
      120      470                                                                          */
      121      471
      122      472    3                OUT_RECNO = ZWI$RECNO;

    472  3 000052   000000 235000 xsym               LDA     ZWI$RECNO
         3 000053   000000 755000 xsym               STA     OUT_RECNO

      123      473    3                OUT_INPUT_KEY = ZWI$INPUT_KEY;
PL6.E3A0      #001=OUT$TEMPLAT File=OUT$TEMPLAT.:E05TSI                          WED 07/30/97 04:15 Page:16

    473  3 000054   000000 236000 xsym               LDQ     ZWI$INPUT_KEY
         3 000055   000000 756000 xsym               STQ     OUT_INPUT_KEY

      124      474    3                OUT_MIDD.MID = '24'O /* T_MID# */;

    474  3 000056   000024 236003                    LDQ     20,DU
         3 000057   000000 752010 xsym               STCQ    OUT_MID,'10'O

      125      475    3                OUT_MIDD.FCG = '1725'O /* OU_FCG# */;

    475  3 000060   172500 236003                    LDQ     62784,DU
         3 000061   000000 752060 xsym               STCQ    OUT_MID,'60'O

      126      476    3                OUT_ERROR_CODE = %E$OUTSYNERR;

    476  3 000062   000001 235007                    LDA     1,DL
         3 000063   000000 755000 xsym               STA     OUT_ERROR_CODE

      127      477    3                OUT_SEV = 3;

    477  3 000064   000003 235007                    LDA     3,DL
         3 000065   000000 755000 xsym               STA     OUT_SEV

      128      478    3                OUT_ERR_CNT = OUX_CSIZE;

    478  3 000066   000000 235000 xsym               LDA     OUX_CSIZE
         3 000067   000000 755000 xsym               STA     OUT_ERR_CNT

      129      479    3                OUT_ERR_STRING = SUBSTR(OUX_BUF,0,OUX_CSIZE);

    479  3 000070   000000 620005                    EAX0    0,AL
         3 000071   040000 100440                    MLR     fill='040'O
         3 000072   000000 000010 xsym               ADSC9   OUX_BUF                  cn=0,n=*X0
         3 000073   000000 000214 xsym               ADSC9   OUT_ERR_STRING           cn=0,n=140

      130      480                                                /**/
PL6.E3A0      #001=OUT$TEMPLAT File=OUT$TEMPLAT.:E05TSI                          WED 07/30/97 04:15 Page:17
      131      481    3                CALL ZWH$ERR (OUT_RECNO,

    481  3 000074   000005 630400 4                  EPPR0   5
         3 000075   000025 631400 xsym               EPPR1   B_VECTNIL+21
         3 000076   000000 701000 xent               TSX1    ZWH$ERR
         3 000077   000000 011000                    NOP     0
         3 000100   000101 710000 3                  TRA     s:491

      132      482    3                     OUT_INPUT_KEY,
      133      483    3                     OUT_MID,
      134      484    3                     OUT_ERROR_CODE,
      135      485    3                     OUT_SEV,
      136      486    3                     OUT_ERR_CNT,
      137      487    3                     OUT_ERR_STRING);
      138      488    3             CASE (ELSE);

      139      489    3             END;                          /* DO CASE ERROR CODE */

      140      490    2           END;                            /* DO IF XUP ERROR */

      141      491    1        IF ERROR_CODED.MID ~= XUP_MID      /* TEMPORARY ONLY! */

    491  3 000101   000013 236000 1                  LDQ     TOPNODE$
         3 000102   000000 676000 2                  ERQ     XUP_MID
         3 000103   777700 376003                    ANQ     -64,DU
         3 000104   000106 600000 3                  TZE     s:494

      142      492    1        THEN                               /* TEMPORARY ONLY! */
      143      493    1             RETURN;

    493  3 000105   000000 702200 xent               TSX2  ! X66_ARET

      144      494    1        GOTO TRY_TRY_AGAIN;

    494  3 000106   000016 710000 3                  TRA     TRY_TRY_AGAIN

    491  3 000107                       ALT_BUILD    null
PL6.E3A0      #001=OUT$TEMPLAT File=OUT$TEMPLAT.:E05TSI                          WED 07/30/97 04:15 Page:18
      145      495                                                /**/
      146      496    1   ALT_BUILD: ;                            /* COME HERE IF BAD BUILD */
      147      497    1        OUT_RECNO = ZWI$RECNO;

    497  3 000107   000000 235000 xsym               LDA     ZWI$RECNO
         3 000110   000000 755000 xsym               STA     OUT_RECNO

      148      498    1        OUT_INPUT_KEY = ZWI$INPUT_KEY;

    498  3 000111   000000 236000 xsym               LDQ     ZWI$INPUT_KEY
         3 000112   000000 756000 xsym               STQ     OUT_INPUT_KEY

      149      499    1        OUT_MIDD.MID = '24'O /* T_MID# */;

    499  3 000113   000024 236003                    LDQ     20,DU
         3 000114   000000 752010 xsym               STCQ    OUT_MID,'10'O

      150      500    1        OUT_MIDD.FCG = '1725'O /* OU_FCG# */;

    500  3 000115   172500 236003                    LDQ     62784,DU
         3 000116   000000 752060 xsym               STCQ    OUT_MID,'60'O

      151      501    1        OUT_ERROR_CODE = OUT_ERRORED;

    501  3 000117   000000 235000 xsym               LDA     OUT_ERRORED
         3 000120   000000 755000 xsym               STA     OUT_ERROR_CODE

      152      502    1        OUT_SEV = 3;

    502  3 000121   000003 235007                    LDA     3,DL
         3 000122   000000 755000 xsym               STA     OUT_SEV

      153      503                                                /**/
      154      504    1        CALL ZWH$ERR (OUT_RECNO,

    504  3 000123   000005 630400 4                  EPPR0   5
         3 000124   000023 631400 xsym               EPPR1   B_VECTNIL+19
PL6.E3A0      #001=OUT$TEMPLAT File=OUT$TEMPLAT.:E05TSI                          WED 07/30/97 04:15 Page:19
         3 000125   000000 701000 xent               TSX1    ZWH$ERR
         3 000126   000000 011000                    NOP     0

      155      505    1             OUT_INPUT_KEY,
      156      506    1             OUT_MID,
      157      507    1             OUT_ERROR_CODE,
      158      508    1             OUT_SEV);
      159      509    1        GOTO TRY_TRY_AGAIN;

    509  3 000127   000016 710000 3                  TRA     TRY_TRY_AGAIN

    502  3 000130                       ALT_INT_ERR* null
    502  3 000130                       ALT_ERROR    null
      160      510
      161      511    1   ALT_INT_ERROR: ;                        /* COME HERE IF INTERNAL ERROR */
      162      512    1   ALT_ERROR: ;                            /* COME HERE IF NO PAGES */
      163      513    1        RETURN;                            /* GO BACK FOR NOW */

    513  3 000130   000000 702200 xent               TSX2  ! X66_ARET
      164      514    1   END OUT$TEMPLAT;
      165      515        %EOD;

PL6.E3A0      #001=OUT$TEMPLAT File=OUT$TEMPLAT.:E05TSI                          WED 07/30/97 04:15 Page:20
--  Include file information  --

   CP_6.:E05TOU  cannot be made into a system file and is referenced.
   OU_PERR_C.:E05TOU  is referenced.
   OUT_DATA_R.:E05TOU  cannot be made into a system file and is referenced.
   XU_PERR_C.:E05TOU  is referenced.
   OUX_ENTRY.:E05TOU  cannot be made into a system file and is referenced.
   B$JIT_C.:E05TOU  was found in the system file and is never referenced.
   CP_6_C.:E05TOU  was found in the system file and is referenced.
      No diagnostics issued in procedure OUT$TEMPLAT.
PL6.E3A0      #001=OUT$TEMPLAT File=OUT$TEMPLAT.:E05TSI                          WED 07/30/97 04:15 Page:21

 **** Variables and constants ****

  ****  Section 001  Data  OUT$TEMPLAT

  ****  Scalars and arrays  ****
OctLoc.c.b A Datatyp(siz) R M Lvl/name                 OctLoc.c.b A Datatyp(siz) R M Lvl/name

    13-0-0/w STRC        r     1 ERROR_CODED                0-0-0/d STRC(216)   r     1 GET_COMMON_PAGES
     6-0-0/d STRC(72)    r     1 OUX_VECTOR                13-0-0/w PTR         r     1 TOPNODE$

  ****  Section 002 RoData OUT$TEMPLAT

  ****  Scalars and arrays  ****
OctLoc.c.b A Datatyp(siz) R M Lvl/name                 OctLoc.c.b A Datatyp(siz) R M Lvl/name

     0-0-0/b BIT (12)    r     1 XUP_MID

  ****  SYMREF variables  ****

  ****  Scalars and arrays  ****
OctLoc.c.b A Datatyp(siz) R M Lvl/name                 OctLoc.c.b A Datatyp(siz) R M Lvl/name

     0-0-0/w UBIN        r     1 OUT$TOPNODE                0-0-0/w SBIN        r     1 OUT_ERRORED
     0-0-0/b UBIN        r     1 OUT_ERROR_CODE             0-0-0/w SBIN        r     1 OUT_ERR_CNT
     0-0-0/w CHAR(140)   r     1 OUT_ERR_STRING             0-0-0/w STRC        r     1 OUT_INPUT_KEY
     0-0-0/b BIT         r     1 OUT_MID                    0-0-0/b STRC        r     1 OUT_MIDD
     0-0-0/w UBIN        r     1 OUT_RECNO                  0-0-0/b UBIN        r     1 OUT_SEV
     0-0-0/c CHAR(300)   r     1 OUX_BUF                    0-0-0/w SBIN        r     1 OUX_CSIZE
     0-0-0/w STRC        r     1 ZWI$INPUT_KEY              0-0-0/w UBIN        r     1 ZWI$M$NS#
     0-0-0/w UBIN        r     1 ZWI$RECNO


   Procedure OUT$TEMPLAT requires 89 words for executable code.
   Procedure OUT$TEMPLAT requires 6 words of local(AUTO) storage.
PL6.E3A0      #001=OUT$TEMPLAT File=OUT$TEMPLAT.:E05TSI                          WED 07/30/97 04:15 Page:22
          *** CROSS REFERENCE LISTING ***
**     DENOTES     IDENTIFIER DEFINITION
<<                 IDENTIFIER'S VALUE SET
>>                 IDENTIFIER'S VALUE USED
<>                 IDENTIFIER SET AND/OR USED
--                 IDENTIFIER REFERENCED
PL6.E3A0      #001=OUT$TEMPLAT File=OUT$TEMPLAT.:E05TSI                          WED 07/30/97 04:15 Page:23
          MINI XREF LISTING

ALT_BUILD
       491**LABEL     453--CALLALT
ALT_ERROR
       502**LABEL     437--CALLALT
ALT_INT_ERROR
       502**LABEL     439--CALLALT
ALT_PARSE
       445**LABEL     446--CALLALT
ERROR_CODED.CODE
       420**DCL       462>>DOCASE
ERROR_CODED.MID
       417**DCL       459>>IF        491>>IF
GET_COMMON_PAGES
       384**DCL       437<>CALL
GET_COMMON_PAGES.V
       384**DCL       384--DCLINIT
M$GDS
       332**DCL-ENT   437--CALL
OUT$BUILD
        38**DCL-ENT   453--CALL
OUT$TOPNODE
        29**DCL       446<>CALL
OUT_ERRORED
       266**DCL       501>>ASSIGN
OUT_ERROR_CODE
       262**DCL       476<<ASSIGN    481<>CALL      501<<ASSIGN    504<>CALL
OUT_ERR_CNT
       263**DCL       478<<ASSIGN    481<>CALL
OUT_ERR_STRING
       263**DCL       479<<ASSIGN    481<>CALL
OUT_INPUT_KEY
       261**DCL       473<<ASSIGN    481<>CALL      498<<ASSIGN    504<>CALL
PL6.E3A0      #001=OUT$TEMPLAT File=OUT$TEMPLAT.:E05TSI                          WED 07/30/97 04:15 Page:24
OUT_MID
       261**DCL       262--REDEF     481<>CALL      504<>CALL
OUT_MIDD.FCG
       262**DCL       475<<ASSIGN    500<<ASSIGN
OUT_MIDD.MID
       262**DCL       474<<ASSIGN    499<<ASSIGN
OUT_RECNO
       261**DCL       472<<ASSIGN    481<>CALL      497<<ASSIGN    504<>CALL
OUT_SEV
       262**DCL       477<<ASSIGN    481<>CALL      502<<ASSIGN    504<>CALL
OUT_VALUE.CHAR4
       265**DCL       265--REDEF     265--REDEF
OUX$ERRPTR
        51**DCL-ENT   465--CALL
OUX$GETCMD
        50**DCL-ENT   446--CALL
OUX$SETDCBS
        54**DCL-ENT   441--CALL
OUX$SETMEM
        55**DCL-ENT   439--CALL
OUX_BUF
        31**DCL       479>>ASSIGN
OUX_CSIZE
        32**DCL       478>>ASSIGN    479>>ASSIGN
OUX_VECTOR
       401**DCL       384--DCLINIT   439<>CALL
OUX_VECTOR.W2
       402**DCL       403--REDEF
TOPNODE$
       414**DCL       415--REDEF     416--REDEF     446<>CALL      453<>CALL
TRY_TRY_AGAIN
       441**LABEL     494--GOTO      509--GOTO
XUP_MID
       427**DCL       459>>IF        491>>IF
ZWH$ERR
        37**DCL-ENT   481--CALL      504--CALL
PL6.E3A0      #001=OUT$TEMPLAT File=OUT$TEMPLAT.:E05TSI                          WED 07/30/97 04:15 Page:25
ZWI$INPUT_KEY
        34**DCL       473>>ASSIGN    498>>ASSIGN
ZWI$M$NS#
        28**DCL       441<>CALL
ZWI$RECNO
        33**DCL       472>>ASSIGN    497>>ASSIGN

PL6.E3A0      #002=OUT$ADDBYTE File=OUT$TEMPLAT.:E05TSI                          WED 07/30/97 04:15 Page:26
      166        1        /*M* OUT$ADDBYTE Routine to stuff a byte into the template buffer */
      167        2        /*T***********************************************************/
      168        3        /*T*                                                         */
      169        4        /*T* Copyright (c) Bull HN Information Systems Inc., 1997    */
      170        5        /*T*                                                         */
      171        6        /*T***********************************************************/
      172        7        %SET LISTSUB='1'B;
      173        8
      174        9        /*
      175       10          ###  #   # #####   #    ###  ####  ####  ####  #   # ##### #####
      176       11         # # # #   #   #    ###  #   # #   # #   # #   # #   #   #   #
      177       12         # # # #   #   #   # #   #   # #   # #   # #   #  # #    #   #
      178       13         #  ## #   #   #    ###  ##### #   # #   # ####    #     #   ####
      179       14         #   # #   #   #     # # #   # #   # #   # #   #   #     #   #
      180       15         #   # #   #   #    ###  #   # #   # #   # #   #   #     #   #
      181       16          ###   ###    #     #   #   # ####  ####  ####    #     #   #####
      182       17                                                                          */
      183       18
      184       19        OUT$ADDBYTE: PROC (INTEGER_);
      185       20
      186       21
      187       22                                           /*
      188       23                                                ARGUMENTS
      189       24                                                                          */
      190       25    1   DCL INTEGER_ SBIN;
      191       26    1   DCL 1 INTEGER_R REDEF INTEGER_,
      192       27    1            2 * BIT(27) UNAL,
      193       28    1            2 BYTE_ CHAR(1) UNAL;
      194       29
      195       30
      196       31                                           /*
      197       32                                                INCLUDES
      198       33                                                                          */
      199       34        %INCLUDE OUT_DATA_R;
      200       49        %INCLUDE OU_PERR_C;
      201       70
      202       71                                           /*
PL6.E3A0      #002=OUT$ADDBYTE File=OUT$TEMPLAT.:E05TSI                          WED 07/30/97 04:15 Page:27
      203       72                                                LOCALS
      204       73                                                                          */
      205       74    1   DCL I SBIN;
      206       75
      207       76                                           /*
      208       77                                                EXTERNALS
      209       78                                                                          */
      210       79    1   DCL OUT$ADDSTR ENTRY(2);
      211       80
      212       81
      213       82        %EJECT;
PL6.E3A0      #002=OUT$ADDBYTE File=OUT$TEMPLAT.:E05TSI                          WED 07/30/97 04:15 Page:28
      214       83    1        CALL OUT$ADDSTR (INTEGER_R.BYTE_, 1);
      215       84
      216       85    1        RETURN;
      217       86    1   END OUT$ADDBYTE;
      218       87        %EOD;

PL6.E3A0      #002=OUT$ADDBYTE File=OUT$TEMPLAT.:E05TSI                          WED 07/30/97 04:15 Page:29
--  Include file information  --

   OU_PERR_C.:E05TOU  is referenced.
   OUT_DATA_R.:E05TOU  cannot be made into a system file and is referenced.
   B$JIT_C.:E05TOU  was found in the system file and is never referenced.
   CP_6_C.:E05TOU  was found in the system file and is never referenced.
      No diagnostics issued in procedure OUT$ADDBYTE.

   Procedure OUT$ADDBYTE requires 12 words for executable code.
   Procedure OUT$ADDBYTE requires 8 words of local(AUTO) storage.

PL6.E3A0      #002=OUT$ADDBYTE File=OUT$TEMPLAT.:E05TSI                          WED 07/30/97 04:15 Page:30

 Object Unit name= OUT$ADDBYTE                                File name= OUT$TEMPLAT.:E05TOU
 UTS= JUL 30 '97 04:15:53.72 WED                              Compiler= PL-6/E31         Sev=      00
 SharedLib= :SHARED_SYSTEM                                    Alt SharedLib=


    ****  Control sections  ****

 Sect   Type Bound  Init  Size OctSiz  Section name(segment info)
    0   Proc  even  none    12     14  OUT$ADDBYTE
    1  RoData even  none     1      1  OUT$ADDBYTE

    ****  Entry defs  ****

                              Check   Calling
                             calling  sequence
  Sect OctLoc Primary Altret sequence   type   Parms  Name
     0      0   yes            yes      Std        1  OUT$ADDBYTE

  ****  Entry refs  ****

         Check        Calling
        calling       sequence
Altret sequence SRef   type   Args  Name
         yes           Std       2 OUT$ADDSTR
                       nStd      0 X66_AUTO_1
                       Std       0 B_CONSPOOL_D
                       nStd      0 X66_ARET

  ****  Data refs  ****

  Flags:  r = read only, s = secondary
Flgs Name                             Flgs Name                             Flgs Name
     OUT_MID                               B_VECTNIL
PL6.E3A0      #002=OUT$ADDBYTE File=OUT$TEMPLAT.:E05TSI                          WED 07/30/97 04:15 Page:31

  ****  Segment refs  ****

  Flags:  r = read only, s = secondary
Flgs Name                             Flgs Name                             Flgs Name
     ISSID
PL6.E3A0      #002=OUT$ADDBYTE File=OUT$TEMPLAT.:E05TSI                          WED 07/30/97 04:15 Page:32


      166        1        /*M* OUT$ADDBYTE Routine to stuff a byte into the template buffer */
      167        2        /*T***********************************************************/
      168        3        /*T*                                                         */
      169        4        /*T* Copyright (c) Bull HN Information Systems Inc., 1997    */
      170        5        /*T*                                                         */
      171        6        /*T***********************************************************/
      172        7        %SET LISTSUB='1'B;
      173        8
      174        9        /*
      175       10          ###  #   # #####   #    ###  ####  ####  ####  #   # ##### #####
      176       11         # # # #   #   #    ###  #   # #   # #   # #   # #   #   #   #
      177       12         # # # #   #   #   # #   #   # #   # #   # #   #  # #    #   #
      178       13         #  ## #   #   #    ###  ##### #   # #   # ####    #     #   ####
      179       14         #   # #   #   #     # # #   # #   # #   # #   #   #     #   #
      180       15         #   # #   #   #    ###  #   # #   # #   # #   #   #     #   #
      181       16          ###   ###    #     #   #   # ####  ####  ####    #     #   #####
      182       17                                                                          */
      183       18
      184       19        OUT$ADDBYTE: PROC (INTEGER_);

     19  0 000000   000000 700200 xent  OUT$ADDBYTE  TSX0  ! X66_AUTO_1
         0 000001   000010 000001                    ZERO    8,1

      185       20
      186       21
      187       22                                           /*
      188       23                                                ARGUMENTS
      189       24                                                                          */
      190       25    1   DCL INTEGER_ SBIN;
      191       26    1   DCL 1 INTEGER_R REDEF INTEGER_,
      192       27    1            2 * BIT(27) UNAL,
      193       28    1            2 BYTE_ CHAR(1) UNAL;
      194       29
      195       30
      196       31                                           /*
      197       32                                                INCLUDES
PL6.E3A0      #002=OUT$ADDBYTE File=OUT$TEMPLAT.:E05TSI                          WED 07/30/97 04:15 Page:33
      198       33                                                                          */
      199       34        %INCLUDE OUT_DATA_R;
      200       49        %INCLUDE OU_PERR_C;
      201       70
      202       71                                           /*
      203       72                                                LOCALS
      204       73                                                                          */
      205       74    1   DCL I SBIN;
      206       75
      207       76                                           /*
      208       77                                                EXTERNALS
      209       78                                                                          */
      210       79    1   DCL OUT$ADDSTR ENTRY(2);
      211       80
      212       81
      213       82        %EJECT;
PL6.E3A0      #002=OUT$ADDBYTE File=OUT$TEMPLAT.:E05TSI                          WED 07/30/97 04:15 Page:34
      214       83    1        CALL OUT$ADDSTR (INTEGER_R.BYTE_, 1);

     83  0 000002   000000 236000 1                  LDQ     0
         0 000003   200007 756100                    STQ     @INTEGER_+4,,AUTO
         0 000004   200003 236100                    LDQ     @INTEGER_,,AUTO
         0 000005   600000 036007                    ADLQ    -65536,DL
         0 000006   200006 756100                    STQ     @INTEGER_+3,,AUTO
         0 000007   200006 630500                    EPPR0   @INTEGER_+3,,AUTO
         0 000010   000020 631400 xsym               EPPR1   B_VECTNIL+16
         0 000011   000000 701000 xent               TSX1    OUT$ADDSTR
         0 000012   000000 011000                    NOP     0

      215       84
      216       85    1        RETURN;

     85  0 000013   000000 702200 xent               TSX2  ! X66_ARET
      217       86    1   END OUT$ADDBYTE;
      218       87        %EOD;

PL6.E3A0      #002=OUT$ADDBYTE File=OUT$TEMPLAT.:E05TSI                          WED 07/30/97 04:15 Page:35
--  Include file information  --

   OU_PERR_C.:E05TOU  is referenced.
   OUT_DATA_R.:E05TOU  cannot be made into a system file and is referenced.
   B$JIT_C.:E05TOU  was found in the system file and is never referenced.
   CP_6_C.:E05TOU  was found in the system file and is never referenced.
      No diagnostics issued in procedure OUT$ADDBYTE.
PL6.E3A0      #002=OUT$ADDBYTE File=OUT$TEMPLAT.:E05TSI                          WED 07/30/97 04:15 Page:36

 **** Variables and constants ****

  ****  Auto variables  ****

  ****  Scalars and arrays  ****
OctLoc.c.b A Datatyp(siz) R M Lvl/name                 OctLoc.c.b A Datatyp(siz) R M Lvl/name

     3-0-0/w PTR         r     1 @INTEGER_                 *0-0-0/w SBIN        r     1 INTEGER_
    *0-0-0/w STRC        r     1 INTEGER_R


   Procedure OUT$ADDBYTE requires 12 words for executable code.
   Procedure OUT$ADDBYTE requires 8 words of local(AUTO) storage.
PL6.E3A0      #002=OUT$ADDBYTE File=OUT$TEMPLAT.:E05TSI                          WED 07/30/97 04:15 Page:37
          *** CROSS REFERENCE LISTING ***
**     DENOTES     IDENTIFIER DEFINITION
<<                 IDENTIFIER'S VALUE SET
>>                 IDENTIFIER'S VALUE USED
<>                 IDENTIFIER SET AND/OR USED
--                 IDENTIFIER REFERENCED
PL6.E3A0      #002=OUT$ADDBYTE File=OUT$TEMPLAT.:E05TSI                          WED 07/30/97 04:15 Page:38
          MINI XREF LISTING

INTEGER_
        25**DCL        19--PROC       26--REDEF
INTEGER_R.BYTE_
        28**DCL        83<>CALL
OUT$ADDSTR
        79**DCL-ENT    83--CALL
OUT_MID
        43**DCL        44--REDEF
OUT_VALUE.CHAR4
        47**DCL        47--REDEF      47--REDEF

PL6.E3A0      #003=OUT$ADDSTR File=OUT$TEMPLAT.:E05TSI                           WED 07/30/97 04:15 Page:39
      219        1        /*M* OUT$ADDSTR Stuffs a character string into template buffer */
      220        2        /*T***********************************************************/
      221        3        /*T*                                                         */
      222        4        /*T* Copyright (c) Bull HN Information Systems Inc., 1997    */
      223        5        /*T*                                                         */
      224        6        /*T***********************************************************/
      225        7        %SET LISTSUB='1'B;
      226        8
      227        9
      228       10        /*
      229       11          ###  #   # #####   #    ###  ####  ####   ###  ##### ####
      230       12         # # # #   #   #    ###  #   # #   # #   # #   #   #   #   #
      231       13         # # # #   #   #   # #   #   # #   # #   # #       #   #   #
      232       14         #  ## #   #   #    ###  ##### #   # #   #  ###    #   ####
      233       15         #   # #   #   #     # # #   # #   # #   #     #   #   # #
      234       16         #   # #   #   #    ###  #   # #   # #   # #   #   #   #  #
      235       17          ###   ###    #     #   #   # ####  ####   ###    #   #   #
      236       18                                                                          */
      237       19
      238       20        OUT$ADDSTR: PROC (STRING_, SIZE_);
      239       21
      240       22                                           /*
      241       23                                                ARGUMENTS
      242       24                                                                          */
      243       25    1   DCL SIZE_ SBIN WORD;
      244       26    1   DCL STRING_ CHAR(SIZE_);
      245       27
      246       28                                           /*
      247       29                                                INCLUDES
      248       30                                                                          */
      249       31        %INCLUDE OUT_DATA_R;
      250       46        %INCLUDE OU_PERR_C;
      251       67
      252       68                                           /*
      253       69                                                LOCALS
      254       70                                                                          */
      255       71    1   DCL I SBIN WORD;
PL6.E3A0      #003=OUT$ADDSTR File=OUT$TEMPLAT.:E05TSI                           WED 07/30/97 04:15 Page:40
      256       72
      257       73                                           /*
      258       74                                                EXTERNALS
      259       75                                                                          */
      260       76    1   DCL OUT$ERROR ENTRY(1);
      261       77        %EJECT;
PL6.E3A0      #003=OUT$ADDSTR File=OUT$TEMPLAT.:E05TSI                           WED 07/30/97 04:15 Page:41
      262       78        /*
      263       79             Begin   O U T $ A D D S T R  main
      264       80                                                                          */
      265       81
      266       82
      267       83    1        I = OUT_TPOSN + SIZE_;
      268       84
      269       85        /*E*      ERROR: OUT-E$OUT_BUFROVF
      270       86                  MESSAGE: Message template too large.
      271       87                                                                          */
      272       88    1        IF I > LENGTHC(OUT_TEMPLATE)
      273       89    1        THEN
      274       90    1             CALL OUT$ERROR (%E$OUT_BUFROVF);
      275       91
      276       92    1        CALL INSERT (OUT_TEMPLATE, OUT_TPOSN, SIZE_, STRING_);
      277       93
      278       94    1        OUT_TPOSN = I;
      279       95
      280       96    1        RETURN;
      281       97    1   END OUT$ADDSTR;
      282       98        %EOD;

PL6.E3A0      #003=OUT$ADDSTR File=OUT$TEMPLAT.:E05TSI                           WED 07/30/97 04:15 Page:42
--  Include file information  --

   OU_PERR_C.:E05TOU  is referenced.
   OUT_DATA_R.:E05TOU  cannot be made into a system file and is referenced.
   B$JIT_C.:E05TOU  was found in the system file and is never referenced.
   CP_6_C.:E05TOU  was found in the system file and is never referenced.
      No diagnostics issued in procedure OUT$ADDSTR.

   Procedure OUT$ADDSTR requires 24 words for executable code.
   Procedure OUT$ADDSTR requires 8 words of local(AUTO) storage.

PL6.E3A0      #003=OUT$ADDSTR File=OUT$TEMPLAT.:E05TSI                           WED 07/30/97 04:15 Page:43

 Object Unit name= OUT$ADDSTR                                 File name= OUT$TEMPLAT.:E05TOU
 UTS= JUL 30 '97 04:15:57.28 WED                              Compiler= PL-6/E31         Sev=      00
 SharedLib= :SHARED_SYSTEM                                    Alt SharedLib=


    ****  Control sections  ****

 Sect   Type Bound  Init  Size OctSiz  Section name(segment info)
    0   Proc  even  none    24     30  OUT$ADDSTR
    1  RoData even  none     1      1  OUT$ADDSTR

    ****  Entry defs  ****

                              Check   Calling
                             calling  sequence
  Sect OctLoc Primary Altret sequence   type   Parms  Name
     0      0   yes            yes      Std        2  OUT$ADDSTR

  ****  Entry refs  ****

         Check        Calling
        calling       sequence
Altret sequence SRef   type   Args  Name
         yes           Std       1 OUT$ERROR
                       nStd      0 X66_AUTO_2
                       Std       0 B_CONSPOOL_D
                       nStd      0 X66_ARET

  ****  Data refs  ****

  Flags:  r = read only, s = secondary
Flgs Name                             Flgs Name                             Flgs Name
     OUT_MID                               OUT_TEMPLATE                          OUT_TPOSN
     B_VECTNIL
PL6.E3A0      #003=OUT$ADDSTR File=OUT$TEMPLAT.:E05TSI                           WED 07/30/97 04:15 Page:44

  ****  Segment refs  ****

  Flags:  r = read only, s = secondary
Flgs Name                             Flgs Name                             Flgs Name
     ISSID
PL6.E3A0      #003=OUT$ADDSTR File=OUT$TEMPLAT.:E05TSI                           WED 07/30/97 04:15 Page:45


      219        1        /*M* OUT$ADDSTR Stuffs a character string into template buffer */
      220        2        /*T***********************************************************/
      221        3        /*T*                                                         */
      222        4        /*T* Copyright (c) Bull HN Information Systems Inc., 1997    */
      223        5        /*T*                                                         */
      224        6        /*T***********************************************************/
      225        7        %SET LISTSUB='1'B;
      226        8
      227        9
      228       10        /*
      229       11          ###  #   # #####   #    ###  ####  ####   ###  ##### ####
      230       12         # # # #   #   #    ###  #   # #   # #   # #   #   #   #   #
      231       13         # # # #   #   #   # #   #   # #   # #   # #       #   #   #
      232       14         #  ## #   #   #    ###  ##### #   # #   #  ###    #   ####
      233       15         #   # #   #   #     # # #   # #   # #   #     #   #   # #
      234       16         #   # #   #   #    ###  #   # #   # #   # #   #   #   #  #
      235       17          ###   ###    #     #   #   # ####  ####   ###    #   #   #
      236       18                                                                          */
      237       19
      238       20        OUT$ADDSTR: PROC (STRING_, SIZE_);

     20  0 000000   000000 700200 xent  OUT$ADDSTR   TSX0  ! X66_AUTO_2
         0 000001   000010 000002                    ZERO    8,2

      239       21
      240       22                                           /*
      241       23                                                ARGUMENTS
      242       24                                                                          */
      243       25    1   DCL SIZE_ SBIN WORD;
      244       26    1   DCL STRING_ CHAR(SIZE_);
      245       27
      246       28                                           /*
      247       29                                                INCLUDES
      248       30                                                                          */
      249       31        %INCLUDE OUT_DATA_R;
      250       46        %INCLUDE OU_PERR_C;
PL6.E3A0      #003=OUT$ADDSTR File=OUT$TEMPLAT.:E05TSI                           WED 07/30/97 04:15 Page:46
      251       67
      252       68                                           /*
      253       69                                                LOCALS
      254       70                                                                          */
      255       71    1   DCL I SBIN WORD;
      256       72
      257       73                                           /*
      258       74                                                EXTERNALS
      259       75                                                                          */
      260       76    1   DCL OUT$ERROR ENTRY(1);
      261       77        %EJECT;
PL6.E3A0      #003=OUT$ADDSTR File=OUT$TEMPLAT.:E05TSI                           WED 07/30/97 04:15 Page:47
      262       78        /*
      263       79             Begin   O U T $ A D D S T R  main
      264       80                                                                          */
      265       81
      266       82
      267       83    1        I = OUT_TPOSN + SIZE_;

     83  0 000002   200004 470500                    LDP0    @SIZE_,,AUTO
         0 000003   000000 236000 xsym               LDQ     OUT_TPOSN
         0 000004   000000 036100                    ADLQ    0,,PR0
         0 000005   200005 756100                    STQ     I,,AUTO

      268       84
      269       85        /*E*      ERROR: OUT-E$OUT_BUFROVF
      270       86                  MESSAGE: Message template too large.
      271       87                                                                          */
      272       88    1        IF I > LENGTHC(OUT_TEMPLATE)

     88  0 000006   010000 116007                    CMPQ    4096,DL
         0 000007   000014 604400 0                  TMOZ    s:92

      273       89    1        THEN
      274       90    1             CALL OUT$ERROR (%E$OUT_BUFROVF);

     90  0 000010   000000 630400 1                  EPPR0   0
         0 000011   000017 631400 xsym               EPPR1   B_VECTNIL+15
         0 000012   000000 701000 xent               TSX1    OUT$ERROR
         0 000013   000000 011000                    NOP     0

      275       91
      276       92    1        CALL INSERT (OUT_TEMPLATE, OUT_TPOSN, SIZE_, STRING_);

     92  0 000014   200004 470500                    LDP0    @SIZE_,,AUTO
         0 000015   000000 720100                    LXL0    0,,PR0
         0 000016   200006 740100                    STX0    I+1,,AUTO
         0 000017   200003 471500                    LDP1    @STRING_,,AUTO
         0 000020   200006 221100                    LDX1    I+1,,AUTO
PL6.E3A0      #003=OUT$ADDSTR File=OUT$TEMPLAT.:E05TSI                           WED 07/30/97 04:15 Page:48
         0 000021   000000 235000 xsym               LDA     OUT_TPOSN
         0 000022   040045 100540                    MLR     fill='040'O
         0 000023   100000 000011                    ADSC9   0,,PR1                   cn=0,n=*X1
         0 000024   000000 000010 xsym               ADSC9   OUT_TEMPLATE,A           cn=0,n=*X0

      277       93
      278       94    1        OUT_TPOSN = I;

     94  0 000025   200005 236100                    LDQ     I,,AUTO
         0 000026   000000 756000 xsym               STQ     OUT_TPOSN

      279       95
      280       96    1        RETURN;

     96  0 000027   000000 702200 xent               TSX2  ! X66_ARET
      281       97    1   END OUT$ADDSTR;
      282       98        %EOD;

PL6.E3A0      #003=OUT$ADDSTR File=OUT$TEMPLAT.:E05TSI                           WED 07/30/97 04:15 Page:49
--  Include file information  --

   OU_PERR_C.:E05TOU  is referenced.
   OUT_DATA_R.:E05TOU  cannot be made into a system file and is referenced.
   B$JIT_C.:E05TOU  was found in the system file and is never referenced.
   CP_6_C.:E05TOU  was found in the system file and is never referenced.
      No diagnostics issued in procedure OUT$ADDSTR.
PL6.E3A0      #003=OUT$ADDSTR File=OUT$TEMPLAT.:E05TSI                           WED 07/30/97 04:15 Page:50

 **** Variables and constants ****

  ****  Auto variables  ****

  ****  Scalars and arrays  ****
OctLoc.c.b A Datatyp(siz) R M Lvl/name                 OctLoc.c.b A Datatyp(siz) R M Lvl/name

     4-0-0/w PTR         r     1 @SIZE_                     3-0-0/w PTR         r     1 @STRING_
     5-0-0/w SBIN        r     1 I                         *0-0-0/w SBIN        r     1 SIZE_
    *0-0-0/c ACHR        r     1 STRING_

  ****  SYMREF variables  ****

  ****  Scalars and arrays  ****
OctLoc.c.b A Datatyp(siz) R M Lvl/name                 OctLoc.c.b A Datatyp(siz) R M Lvl/name

     0-0-0/c CHAR(4096)  r     1 OUT_TEMPLATE               0-0-0/w UBIN        r     1 OUT_TPOSN


   Procedure OUT$ADDSTR requires 24 words for executable code.
   Procedure OUT$ADDSTR requires 8 words of local(AUTO) storage.
PL6.E3A0      #003=OUT$ADDSTR File=OUT$TEMPLAT.:E05TSI                           WED 07/30/97 04:15 Page:51
          *** CROSS REFERENCE LISTING ***
**     DENOTES     IDENTIFIER DEFINITION
<<                 IDENTIFIER'S VALUE SET
>>                 IDENTIFIER'S VALUE USED
<>                 IDENTIFIER SET AND/OR USED
--                 IDENTIFIER REFERENCED
PL6.E3A0      #003=OUT$ADDSTR File=OUT$TEMPLAT.:E05TSI                           WED 07/30/97 04:15 Page:52
          MINI XREF LISTING

I
        71**DCL        83<<ASSIGN     88>>IF         94>>ASSIGN
OUT$ERROR
        76**DCL-ENT    90--CALL
OUT_MID
        40**DCL        41--REDEF
OUT_TEMPLATE
        43**DCL        88--IF         92<<CALLBLT
OUT_TPOSN
        43**DCL        83>>ASSIGN     92>>CALLBLT    94<<ASSIGN
OUT_VALUE.CHAR4
        44**DCL        44--REDEF      44--REDEF
SIZE_
        25**DCL        20--PROC       26--IMP-SIZ    83>>ASSIGN     92>>CALLBLT    92>>CALLBLT
STRING_
        26**DCL        20--PROC       92>>CALLBLT

PL6.E3A0      #004=OUT$ADDTKN File=OUT$TEMPLAT.:E05TSI                           WED 07/30/97 04:16 Page:53
      283        1        /*M* OUT$ADDTKN Positions a token in the template buffer */
      284        2        /*T***********************************************************/
      285        3        /*T*                                                         */
      286        4        /*T* Copyright (c) Bull HN Information Systems Inc., 1997    */
      287        5        /*T*                                                         */
      288        6        /*T***********************************************************/
      289        7        %SET LISTSUB='1'B;
      290        8
      291        9
      292       10        /*
      293       11          ###  #   # #####   #    ###  ####  ####  ##### #   # #   #
      294       12         # # # #   #   #    ###  #   # #   # #   #   #   #  #  #   #
      295       13         # # # #   #   #   # #   #   # #   # #   #   #   # #   ##  #
      296       14         #  ## #   #   #    ###  ##### #   # #   #   #   ##    # # #
      297       15         #   # #   #   #     # # #   # #   # #   #   #   # #   #  ##
      298       16         #   # #   #   #    ###  #   # #   # #   #   #   #  #  #   #
      299       17          ###   ###    #     #   #   # ####  ####    #   #   # #   #
      300       18                                                                          */
      301       19
      302       20        OUT$ADDTKN: PROC (TOKEN_, COUNT_POSN_);
      303       21
      304       22                                           /*
      305       23                                                ARGUMENTS
      306       24                                                                          */
      307       25    1   DCL TOKEN_ SBIN WORD;
      308       26    1   DCL COUNT_POSN_ SBIN WORD;
      309       27
      310       28                                           /*
      311       29                                                INCLUDES
      312       30                                                                          */
      313       31        %INCLUDE OUT_DATA_R;
      314       46        %INCLUDE OUT_SUBS_C;
      315      169
      316      170                                           /*
      317      171                                                EXTERNALS
      318      172                                                                          */
      319      173    1   DCL OUT$ADDBYTE ENTRY(1);
PL6.E3A0      #004=OUT$ADDTKN File=OUT$TEMPLAT.:E05TSI                           WED 07/30/97 04:16 Page:54
      320      174
      321      175    1        CALL OUT$ADDBYTE (TOKEN_);
      322      176                                                /**/
      323      177    1        COUNT_POSN_ = OUT_TPOSN;
      324      178                                                /**/
      325      179    1        OUT_TPOSN = OUT_TPOSN + 2 /* SIZEC_COUNT# */;
      326      180                                                /**/
      327      181    1        RETURN;
      328      182    1   END OUT$ADDTKN;
      329      183        %EOD;

PL6.E3A0      #004=OUT$ADDTKN File=OUT$TEMPLAT.:E05TSI                           WED 07/30/97 04:16 Page:55
--  Include file information  --

   OUT_SUBS_C.:E05TOU  is referenced.
   OUT_DATA_R.:E05TOU  cannot be made into a system file and is referenced.
   B$JIT_C.:E05TOU  was found in the system file and is never referenced.
   CP_6_C.:E05TOU  was found in the system file and is never referenced.
      No diagnostics issued in procedure OUT$ADDTKN.

   Procedure OUT$ADDTKN requires 13 words for executable code.
   Procedure OUT$ADDTKN requires 6 words of local(AUTO) storage.

PL6.E3A0      #004=OUT$ADDTKN File=OUT$TEMPLAT.:E05TSI                           WED 07/30/97 04:16 Page:56

 Object Unit name= OUT$ADDTKN                                 File name= OUT$TEMPLAT.:E05TOU
 UTS= JUL 30 '97 04:16:01.60 WED                              Compiler= PL-6/E31         Sev=      00
 SharedLib= :SHARED_SYSTEM                                    Alt SharedLib=


    ****  Control sections  ****

 Sect   Type Bound  Init  Size OctSiz  Section name(segment info)
    0   Proc  even  none    13     15  OUT$ADDTKN

    ****  Entry defs  ****

                              Check   Calling
                             calling  sequence
  Sect OctLoc Primary Altret sequence   type   Parms  Name
     0      0   yes            yes      Std        2  OUT$ADDTKN

  ****  Entry refs  ****

         Check        Calling
        calling       sequence
Altret sequence SRef   type   Args  Name
         yes           Std       1 OUT$ADDBYTE
                       nStd      0 X66_AUTO_2
                       Std       0 B_CONSPOOL_D
                       nStd      0 X66_ARET

  ****  Data refs  ****

  Flags:  r = read only, s = secondary
Flgs Name                             Flgs Name                             Flgs Name
     OUT_MID                               OUT_TPOSN                             B_VECTNIL
PL6.E3A0      #004=OUT$ADDTKN File=OUT$TEMPLAT.:E05TSI                           WED 07/30/97 04:16 Page:57


      283        1        /*M* OUT$ADDTKN Positions a token in the template buffer */
      284        2        /*T***********************************************************/
      285        3        /*T*                                                         */
      286        4        /*T* Copyright (c) Bull HN Information Systems Inc., 1997    */
      287        5        /*T*                                                         */
      288        6        /*T***********************************************************/
      289        7        %SET LISTSUB='1'B;
      290        8
      291        9
      292       10        /*
      293       11          ###  #   # #####   #    ###  ####  ####  ##### #   # #   #
      294       12         # # # #   #   #    ###  #   # #   # #   #   #   #  #  #   #
      295       13         # # # #   #   #   # #   #   # #   # #   #   #   # #   ##  #
      296       14         #  ## #   #   #    ###  ##### #   # #   #   #   ##    # # #
      297       15         #   # #   #   #     # # #   # #   # #   #   #   # #   #  ##
      298       16         #   # #   #   #    ###  #   # #   # #   #   #   #  #  #   #
      299       17          ###   ###    #     #   #   # ####  ####    #   #   # #   #
      300       18                                                                          */
      301       19
      302       20        OUT$ADDTKN: PROC (TOKEN_, COUNT_POSN_);

     20  0 000000   000000 700200 xent  OUT$ADDTKN   TSX0  ! X66_AUTO_2
         0 000001   000006 000002                    ZERO    6,2

      303       21
      304       22                                           /*
      305       23                                                ARGUMENTS
      306       24                                                                          */
      307       25    1   DCL TOKEN_ SBIN WORD;
      308       26    1   DCL COUNT_POSN_ SBIN WORD;
      309       27
      310       28                                           /*
      311       29                                                INCLUDES
      312       30                                                                          */
      313       31        %INCLUDE OUT_DATA_R;
      314       46        %INCLUDE OUT_SUBS_C;
PL6.E3A0      #004=OUT$ADDTKN File=OUT$TEMPLAT.:E05TSI                           WED 07/30/97 04:16 Page:58
      315      169
      316      170                                           /*
      317      171                                                EXTERNALS
      318      172                                                                          */
      319      173    1   DCL OUT$ADDBYTE ENTRY(1);
      320      174
      321      175    1        CALL OUT$ADDBYTE (TOKEN_);

    175  0 000002   200003 630500                    EPPR0   @TOKEN_,,AUTO
         0 000003   000017 631400 xsym               EPPR1   B_VECTNIL+15
         0 000004   000000 701000 xent               TSX1    OUT$ADDBYTE
         0 000005   000000 011000                    NOP     0

      322      176                                                /**/
      323      177    1        COUNT_POSN_ = OUT_TPOSN;

    177  0 000006   000000 235000 xsym               LDA     OUT_TPOSN
         0 000007   200004 470500                    LDP0    @COUNT_POSN_,,AUTO
         0 000010   000000 755100                    STA     0,,PR0

      324      178                                                /**/
      325      179    1        OUT_TPOSN = OUT_TPOSN + 2 /* SIZEC_COUNT# */;

    179  0 000011   000000 236000 xsym               LDQ     OUT_TPOSN
         0 000012   000002 036007                    ADLQ    2,DL
         0 000013   000000 756000 xsym               STQ     OUT_TPOSN

      326      180                                                /**/
      327      181    1        RETURN;

    181  0 000014   000000 702200 xent               TSX2  ! X66_ARET
      328      182    1   END OUT$ADDTKN;
      329      183        %EOD;

PL6.E3A0      #004=OUT$ADDTKN File=OUT$TEMPLAT.:E05TSI                           WED 07/30/97 04:16 Page:59
--  Include file information  --

   OUT_SUBS_C.:E05TOU  is referenced.
   OUT_DATA_R.:E05TOU  cannot be made into a system file and is referenced.
   B$JIT_C.:E05TOU  was found in the system file and is never referenced.
   CP_6_C.:E05TOU  was found in the system file and is never referenced.
      No diagnostics issued in procedure OUT$ADDTKN.
PL6.E3A0      #004=OUT$ADDTKN File=OUT$TEMPLAT.:E05TSI                           WED 07/30/97 04:16 Page:60

 **** Variables and constants ****

  ****  Auto variables  ****

  ****  Scalars and arrays  ****
OctLoc.c.b A Datatyp(siz) R M Lvl/name                 OctLoc.c.b A Datatyp(siz) R M Lvl/name

     4-0-0/w PTR         r     1 @COUNT_POSN_               3-0-0/w PTR         r     1 @TOKEN_
    *0-0-0/w SBIN        r     1 COUNT_POSN_               *0-0-0/w SBIN        r     1 TOKEN_

  ****  SYMREF variables  ****

  ****  Scalars and arrays  ****
OctLoc.c.b A Datatyp(siz) R M Lvl/name                 OctLoc.c.b A Datatyp(siz) R M Lvl/name

     0-0-0/w UBIN        r     1 OUT_TPOSN


   Procedure OUT$ADDTKN requires 13 words for executable code.
   Procedure OUT$ADDTKN requires 6 words of local(AUTO) storage.
PL6.E3A0      #004=OUT$ADDTKN File=OUT$TEMPLAT.:E05TSI                           WED 07/30/97 04:16 Page:61
          *** CROSS REFERENCE LISTING ***
**     DENOTES     IDENTIFIER DEFINITION
<<                 IDENTIFIER'S VALUE SET
>>                 IDENTIFIER'S VALUE USED
<>                 IDENTIFIER SET AND/OR USED
--                 IDENTIFIER REFERENCED
PL6.E3A0      #004=OUT$ADDTKN File=OUT$TEMPLAT.:E05TSI                           WED 07/30/97 04:16 Page:62
          MINI XREF LISTING

COUNT_POSN_
        26**DCL        20--PROC      177<<ASSIGN
OUT$ADDBYTE
       173**DCL-ENT   175--CALL
OUT_MID
        40**DCL        41--REDEF
OUT_TPOSN
        43**DCL       177>>ASSIGN    179<<ASSIGN    179>>ASSIGN
OUT_VALUE.CHAR4
        44**DCL        44--REDEF      44--REDEF
TOKEN_
        25**DCL        20--PROC      175<>CALL

PL6.E3A0      #005=OUT$BUILD File=OUT$TEMPLAT.:E05TSI                            WED 07/30/97 04:16 Page:63
      330        1        /*M* OUT$BUILD Build template buffers */
      331        2        /*T***********************************************************/
      332        3        /*T*                                                         */
      333        4        /*T* Copyright (c) Bull HN Information Systems Inc., 1997    */
      334        5        /*T*                                                         */
      335        6        /*T***********************************************************/
      336        7        %SET LISTSUB='1'B;
      337        8                                                /**/
      338        9        /*
      339       10          ###   #   #  #####    #    ####   #   #   ###   #      ####
      340       11         # # #  #   #    #     ###   #   #  #   #    #    #      #   #
      341       12         # # #  #   #    #    # #    #   #  #   #    #    #      #   #
      342       13         #  ##  #   #    #     ###   ####   #   #    #    #      #   #
      343       14         #   #  #   #    #      # #  #   #  #   #    #    #      #   #
      344       15         #   #  #   #    #     ###   #   #  #   #    #    #      #   #
      345       16          ###    ###     #      #    ####    ###    ###   #####  ####
      346       17                                                                          */
      347       18        OUT$BUILD: PROC (HI_NODE$) ALTRET;
      348       19                                                /**/
      349       20                                           /*
      350       21                                                ARGUMENTS
      351       22                                                                          */
      352       23    1   DCL HI_NODE$ PTR;
      353       24
      354       25                                                /*
      355       26                                                     EXTERNALS
      356       27                                                                          */
      357       28    1   DCL ZWI$M$OU# SBIN SYMREF;
      358       29    1   DCL OUT$TEMPL ENTRY(1);
      359       30    1   DCL OUT$ERROR ENTRY(1);
      360       31                                                /*
      361       32                                                     INCLUDES
      362       33                                                                          */
      363       34        %INCLUDE XU_MACRO_C;
      364     3140        %INCLUDE OUT_DATA_R;
      365     3155        %INCLUDE OU_PERR_C;
      366     3176        %INCLUDE OUT_SUBS_C;
PL6.E3A0      #005=OUT$BUILD File=OUT$TEMPLAT.:E05TSI                            WED 07/30/97 04:16 Page:64
      367     3299        %INCLUDE CP_6;
      368     3380        %INCLUDE CP_6_SUBS;
      369     3920        %INCLUDE ZWI$OPTION_C;
      370     4217
      371     4218             %OPTION (STCLASS="SYMREF");
      372     4375             %F$DCB;
      373     4432
      374     4433                                                /*
      375     4434                                                     LOCALS
      376     4435                                                                          */
      377     4436    1   DCL HERE1CE STATIC ALIGNED BIT(1) INIT('0'B);
      378     4437
      379     4438
      380     4439                                                /*
      381     4440                                                     FPTS
      382     4441                                                                          */
      383     4442             %FPT_CLOSE     (FPTN=CLOSE_OU,
      384     4443                                 DISP=SAVE);
      385     4485                                                /**/
      386     4486             %FPT_OPEN      (FPTN=OPEN_OU,
      387     4487                                 CTG=YES,
      388     4488                                 FUN=CREATE,
      389     4489                                 SHARE=ALL,
      390     4490                                 ACS=DIRECT,
      391     4491                                 EXIST=OLDFILE);
      392     4600                                                /**/
      393     4601             %FPT_WRITE     (FPTN=WRITE_MESSAGE,
      394     4602                                 KEY=OUT_KEY,
      395     4603                                 NEWKEY=YES,
      396     4604                                 BUF=OUT_TEMPLATE);
      397     4635                                                /**/
      398     4636             %PARSE$SYM     (NAME=OU$OUTSYM,
      399     4637                                 STCLASS="BASED");
      400     4675                                                /**/
      401     4676             %PARSE$OUT     (NAME=OU$OUTBLK,
      402     4677                                 STCLASS="BASED");
      403     4722                                                /**/
PL6.E3A0      #005=OUT$BUILD File=OUT$TEMPLAT.:E05TSI                            WED 07/30/97 04:16 Page:65
      404     4723             %P$NODE        (NAME=P$NODE,
      405     4724                                 STCLASS="BASED");
      406     4818                                                /**/
      407     4819             %P$LIT         (NAME=P$LIT,
      408     4820                                 STCLASS="BASED");
      409     4873                                                /**/
      410     4874    1   DCL NEXT_NODE$ PTR;
      411     4875    1   DCL I SBIN;
      412     4876    1   DCL J SBIN;
      413     4877    1   DCL SPTR$ PTR;
      414     4878                                                /**/
      415     4879        %EJECT;
PL6.E3A0      #005=OUT$BUILD File=OUT$TEMPLAT.:E05TSI                            WED 07/30/97 04:16 Page:66
      416     4880        /*
      417     4881                  Begin   O U T $ B U I L D   main
      418     4882                                                                          */
      419     4883    1        IF ~HERE1CE
      420     4884    1        THEN
      421     4885    2        DO;
      422     4886    2             HERE1CE = '1'B;
      423     4887    2             WRITE_MESSAGE.V.DCB# = ZWI$M$OU#;
      424     4888
      425     4889    2             IF ZWI$OPTION.OU
      426     4890    2             THEN
      427     4891    3             DO;
      428     4892    3                  IF DCBADDR(ZWI$M$OU#) -> F$DCB.EXIST# = %NEWFILE#
      429     4893    3                       AND
      430     4894    3                       DCBADDR(ZWI$M$OU#) -> F$DCB.FUN# = %CREATE#
      431     4895    3                  THEN
      432     4896    3                       WRITE_MESSAGE.V.ONEWKEY# = %NO#;
      433     4897
      434     4898    3                  CLOSE_OU.V.DCB# = ZWI$M$OU#;
      435     4899    3                  OPEN_OU.V.DCB# = ZWI$M$OU#;
      436     4900    3                  CALL M$CLOSE (CLOSE_OU) ALTRET (XX0);
      437     4901    3   XX0:           ;
      438     4902    3                  CALL M$OPEN (OPEN_OU) ALTRET (XX1);
      439     4903    3   XX1:           ;
      440     4904    3                END;                       /* DO IF MAKING OU */
      441     4905
      442     4906    2           END;                            /* DO one shot inits */
      443     4907                                                /**/
      444     4908    1        OUT_KEY.LANG_ = ' ';
      445     4909    1        OUT_KEY.MESS# = 0;
      446     4910                                                /**/
      447     4911    1        REMEMBER OUT$ERROR_WIND IN OUT_UNWIND;
      448     4912                                                /**/
      449     4913                                                /**/
      450     4914    2        DO I = 0 TO (HI_NODE$ -> OU$OUTBLK.NSUBLKS - 1);
      451     4915
      452     4916    2             SPTR$ = HI_NODE$ -> OU$OUTBLK.SUBLK$(I);
PL6.E3A0      #005=OUT$BUILD File=OUT$TEMPLAT.:E05TSI                            WED 07/30/97 04:16 Page:67
      453     4917
      454     4918    3             DO CASE (SPTR$ -> OU$OUTBLK.CODE);
      455     4919
      456     4920    3             CASE (10 /* T_MESSAGENUMBER# */);
      457     4921
      458     4922    3                CALL CHARBIN (J, SPTR$ -> OU$OUTSYM.TEXT);
      459     4923
      460     4924        /*E*      ERROR: OUT-E$OUT_MSG2BIG-3
      461     4925                  MESSAGE: Message number is too large.
      462     4926                                                                          */
      463     4927    3                IF J > 262143 /* UBIN18_MAX# */
      464     4928    3                THEN
      465     4929    3                     CALL OUT$ERROR (%E$OUT_MSG2BIG);
      466     4930
      467     4931    3                OUT_KEY.MESS# = J;
      468     4932
      469     4933    3             CASE (11 /* T_LANGUAGE# */);
      470     4934
      471     4935    3                OUT_KEY.LANG_ = SPTR$ -> OU$OUTBLK.SUBLK$(0) ->
      472     4936    3                     OU$OUTSYM.TEXT;
      473     4937
      474     4938    3             CASE (20 /* T_TEMPLATE# */);
      475     4939
      476     4940    3                OUT_TPOSN = 0;
      477     4941    3                NEXT_NODE$ = SPTR$;
      478     4942
      479     4943    3                CALL OUT$TEMPL (NEXT_NODE$);
      480     4944
      481     4945    3             END;                          /* DO CASE NODE.CODE */
      482     4946    2           END;                            /* DO I = 0 TO NSUBLKS - 1 */
      483     4947
      484     4948                                                /**/
      485     4949    1        IF ZWI$OPTION.OU
      486     4950    1        THEN
      487     4951    2        DO;
      488     4952    2             WRITE_MESSAGE.BUF_.BOUND = OUT_TPOSN - 1;
      489     4953    2             CALL M$WRITE (WRITE_MESSAGE) ALTRET (HMMM_ALTED_M);
PL6.E3A0      #005=OUT$BUILD File=OUT$TEMPLAT.:E05TSI                            WED 07/30/97 04:16 Page:68
      490     4954    2           END;                            /* DO IF MAKING FILE */
      491     4955                                                /**/
      492     4956    1        RETURN;
      493     4957    1   HMMM_ALTED_M: ;
      494     4958        /*E*      ERROR: OUT-E$OUT_OLDKEY-3
      495     4959                  MESSAGE: You cannot create this message...it already exists!
      496     4960                                                                          */
      497     4961    1        OUT_ERRORED = %E$OUT_OLDKEY;
      498     4962    1        ALTRETURN;
      499     4963                                                /**/
      500     4964                                                /**/
      501     4965    1   OUT$ERROR_WIND: ;
      502     4966    1        ALTRETURN;
      503     4967    1   END OUT$BUILD;
      504     4968        %EOD;

PL6.E3A0      #005=OUT$BUILD File=OUT$TEMPLAT.:E05TSI                            WED 07/30/97 04:16 Page:69
--  Include file information  --

   ZWI$OPTION_C.:TOOLE04  is referenced.
   CP_6_SUBS.:E05TOU  is referenced.
   CP_6.:E05TOU  cannot be made into a system file and is referenced.
   OUT_SUBS_C.:E05TOU  is referenced.
   OU_PERR_C.:E05TOU  is referenced.
   OUT_DATA_R.:E05TOU  cannot be made into a system file and is referenced.
   XU_MACRO_C.:E05TOU  is referenced.
   B$JIT_C.:E05TOU  was found in the system file and is never referenced.
   CP_6_C.:E05TOU  was found in the system file and is referenced.
      No diagnostics issued in procedure OUT$BUILD.

   Procedure OUT$BUILD requires 124 words for executable code.
   Procedure OUT$BUILD requires 10 words of local(AUTO) storage.

PL6.E3A0      #005=OUT$BUILD File=OUT$TEMPLAT.:E05TSI                            WED 07/30/97 04:16 Page:70

 Object Unit name= OUT$BUILD                                  File name= OUT$TEMPLAT.:E05TOU
 UTS= JUL 30 '97 04:16:05.84 WED                              Compiler= PL-6/E31         Sev=      00
 SharedLib= :SHARED_SYSTEM                                    Alt SharedLib=


    ****  Control sections  ****

 Sect   Type Bound  Init  Size OctSiz  Section name(segment info)
    0   DCB   even  none     0      0  M$UC
    1   Data  even  none   102    146  OUT$BUILD
    2   Proc  even  none   124    174  OUT$BUILD
    3  RoData even  none     3      3  OUT$BUILD

    ****  Entry defs  ****

                              Check   Calling
                             calling  sequence
  Sect OctLoc Primary Altret sequence   type   Parms  Name
     2      0   yes    yes     yes      Std        1  OUT$BUILD

  ****  Entry refs  ****

         Check        Calling
        calling       sequence
Altret sequence SRef   type   Args  Name
         yes           Std       1 OUT$TEMPL
         yes           Std       1 OUT$ERROR
                       nStd      0 X66_AUTO_1
                       Std       0 B_CONSPOOL_D
                       nStd      0 X66_ARET
                       nStd      0 X66_AALT
PL6.E3A0      #005=OUT$BUILD File=OUT$TEMPLAT.:E05TSI                            WED 07/30/97 04:16 Page:71

  ****  Data refs  ****

  Flags:  r = read only, s = secondary
Flgs Name                             Flgs Name                             Flgs Name
     ZWI$M$OU#                             OUT_MID                               OUT_KEY
     OUT_TEMPLATE                          OUT_TPOSN                             OUT_UNWIND
     OUT_ERRORED                           M$UC                                  ZWI$OPTION
     B_VECTNIL

  ****  Segment refs  ****

  Flags:  r = read only, s = secondary
Flgs Name                             Flgs Name                             Flgs Name
     ISSID                                 NULLSID                               ROSID
PL6.E3A0      #005=OUT$BUILD File=OUT$TEMPLAT.:E05TSI                            WED 07/30/97 04:16 Page:72


      330        1        /*M* OUT$BUILD Build template buffers */
      331        2        /*T***********************************************************/
      332        3        /*T*                                                         */
      333        4        /*T* Copyright (c) Bull HN Information Systems Inc., 1997    */
      334        5        /*T*                                                         */
      335        6        /*T***********************************************************/
      336        7        %SET LISTSUB='1'B;
      337        8                                                /**/
      338        9        /*
      339       10          ###   #   #  #####    #    ####   #   #   ###   #      ####
      340       11         # # #  #   #    #     ###   #   #  #   #    #    #      #   #
      341       12         # # #  #   #    #    # #    #   #  #   #    #    #      #   #
      342       13         #  ##  #   #    #     ###   ####   #   #    #    #      #   #
      343       14         #   #  #   #    #      # #  #   #  #   #    #    #      #   #
      344       15         #   #  #   #    #     ###   #   #  #   #    #    #      #   #
      345       16          ###    ###     #      #    ####    ###    ###   #####  ####
      346       17                                                                          */
      347       18        OUT$BUILD: PROC (HI_NODE$) ALTRET;

     18  2 000000   000000 700200 xent  OUT$BUILD    TSX0  ! X66_AUTO_1
         2 000001   000012 000001                    ZERO    10,1

      348       19                                                /**/
      349       20                                           /*
      350       21                                                ARGUMENTS
      351       22                                                                          */
      352       23    1   DCL HI_NODE$ PTR;
      353       24
      354       25                                                /*
      355       26                                                     EXTERNALS
      356       27                                                                          */
      357       28    1   DCL ZWI$M$OU# SBIN SYMREF;
      358       29    1   DCL OUT$TEMPL ENTRY(1);
      359       30    1   DCL OUT$ERROR ENTRY(1);
      360       31                                                /*
      361       32                                                     INCLUDES
PL6.E3A0      #005=OUT$BUILD File=OUT$TEMPLAT.:E05TSI                            WED 07/30/97 04:16 Page:73
      362       33                                                                          */
      363       34        %INCLUDE XU_MACRO_C;
      364     3140        %INCLUDE OUT_DATA_R;
      365     3155        %INCLUDE OU_PERR_C;
      366     3176        %INCLUDE OUT_SUBS_C;
      367     3299        %INCLUDE CP_6;
      368     3380        %INCLUDE CP_6_SUBS;
      369     3920        %INCLUDE ZWI$OPTION_C;
      370     4217
      371     4218             %OPTION (STCLASS="SYMREF");
      372     4375             %F$DCB;
      373     4432
      374     4433                                                /*
      375     4434                                                     LOCALS
      376     4435                                                                          */
      377     4436    1   DCL HERE1CE STATIC ALIGNED BIT(1) INIT('0'B);
      378     4437
      379     4438
      380     4439                                                /*
      381     4440                                                     FPTS
      382     4441                                                                          */
      383     4442             %FPT_CLOSE     (FPTN=CLOSE_OU,
      384     4443                                 DISP=SAVE);
      385     4485                                                /**/
      386     4486             %FPT_OPEN      (FPTN=OPEN_OU,
      387     4487                                 CTG=YES,
      388     4488                                 FUN=CREATE,
      389     4489                                 SHARE=ALL,
      390     4490                                 ACS=DIRECT,
      391     4491                                 EXIST=OLDFILE);
      392     4600                                                /**/
      393     4601             %FPT_WRITE     (FPTN=WRITE_MESSAGE,
      394     4602                                 KEY=OUT_KEY,
      395     4603                                 NEWKEY=YES,
      396     4604                                 BUF=OUT_TEMPLATE);
      397     4635                                                /**/
      398     4636             %PARSE$SYM     (NAME=OU$OUTSYM,
PL6.E3A0      #005=OUT$BUILD File=OUT$TEMPLAT.:E05TSI                            WED 07/30/97 04:16 Page:74
      399     4637                                 STCLASS="BASED");
      400     4675                                                /**/
      401     4676             %PARSE$OUT     (NAME=OU$OUTBLK,
      402     4677                                 STCLASS="BASED");
      403     4722                                                /**/
      404     4723             %P$NODE        (NAME=P$NODE,
      405     4724                                 STCLASS="BASED");
      406     4818                                                /**/
      407     4819             %P$LIT         (NAME=P$LIT,
      408     4820                                 STCLASS="BASED");
      409     4873                                                /**/
      410     4874    1   DCL NEXT_NODE$ PTR;
      411     4875    1   DCL I SBIN;
      412     4876    1   DCL J SBIN;
      413     4877    1   DCL SPTR$ PTR;
      414     4878                                                /**/
      415     4879        %EJECT;
PL6.E3A0      #005=OUT$BUILD File=OUT$TEMPLAT.:E05TSI                            WED 07/30/97 04:16 Page:75
      416     4880        /*
      417     4881                  Begin   O U T $ B U I L D   main
      418     4882                                                                          */
      419     4883    1        IF ~HERE1CE

   4883  2 000002   000000 236000 1                  LDQ     HERE1CE
         2 000003   400000 376003                    ANQ     -131072,DU
         2 000004   400000 676003                    ERQ     -131072,DU
         2 000005   000043 600000 2                  TZE     XX1

      420     4884    1        THEN
      421     4885    2        DO;

      422     4886    2             HERE1CE = '1'B;

   4886  2 000006   400000 236003                    LDQ     -131072,DU
         2 000007   000000 756000 1                  STQ     HERE1CE

      423     4887    2             WRITE_MESSAGE.V.DCB# = ZWI$M$OU#;

   4887  2 000010   000000 720000 xsym               LXL0    ZWI$M$OU#
         2 000011   000142 740000 1                  STX0    WRITE_MESSAGE+8

      424     4888
      425     4889    2             IF ZWI$OPTION.OU

   4889  2 000012   000004 234000 xsym               SZN     ZWI$OPTION+4
         2 000013   000043 605000 2                  TPL     XX1

      426     4890    2             THEN
      427     4891    3             DO;

      428     4892    3                  IF DCBADDR(ZWI$M$OU#) -> F$DCB.EXIST# = %NEWFILE#

   4892  2 000014   000000 470400 3                  LDP0    0
         2 000015   000000 471500                    LDP1    0,,PR0
         2 000016   100000 473510                    LDP3    0,X0,PR1
PL6.E3A0      #005=OUT$BUILD File=OUT$TEMPLAT.:E05TSI                            WED 07/30/97 04:16 Page:76
         2 000017   300031 236100                    LDQ     25,,PR3
         2 000020   003000 376007                    ANQ     1536,DL
         2 000021   003000 116007                    CMPQ    1536,DL
         2 000022   000031 601000 2                  TNZ     s:4898
         2 000023   300032 236100                    LDQ     26,,PR3
         2 000024   000777 376003                    ANQ     511,DU
         2 000025   000003 116003                    CMPQ    3,DU
         2 000026   000031 601000 2                  TNZ     s:4898

      429     4893    3                       AND
      430     4894    3                       DCBADDR(ZWI$M$OU#) -> F$DCB.FUN# = %CREATE#
      431     4895    3                  THEN
      432     4896    3                       WRITE_MESSAGE.V.ONEWKEY# = %NO#;

   4896  2 000027   000001 236000 3                  LDQ     1
         2 000030   000142 356000 1                  ANSQ    WRITE_MESSAGE+8

      433     4897
      434     4898    3                  CLOSE_OU.V.DCB# = ZWI$M$OU#;

   4898  2 000031   000034 740000 1                  STX0    CLOSE_OU+26

      435     4899    3                  OPEN_OU.V.DCB# = ZWI$M$OU#;

   4899  2 000032   000104 740000 1                  STX0    OPEN_OU+36

      436     4900    3                  CALL M$CLOSE (CLOSE_OU) ALTRET (XX0);

   4900  2 000033   000002 630400 1                  EPPR0   CLOSE_OU
         2 000034   450001 713400                    CLIMB   alt,close
         2 000035   406000 401760                    pmme    nvectors=13
         2 000036   000037 702000 2                  TSX2    XX0

   4899  2 000037                       XX0          null
      437     4901    3   XX0:           ;
      438     4902    3                  CALL M$OPEN (OPEN_OU) ALTRET (XX1);

PL6.E3A0      #005=OUT$BUILD File=OUT$TEMPLAT.:E05TSI                            WED 07/30/97 04:16 Page:77
   4902  2 000037   000040 630400 1                  EPPR0   OPEN_OU
         2 000040   450000 713400                    CLIMB   alt,open
         2 000041   410400 401760                    pmme    nvectors=18
         2 000042   000043 702000 2                  TSX2    XX1

   4899  2 000043                       XX1          null
      439     4903    3   XX1:           ;
      440     4904    3                END;                       /* DO IF MAKING OU */

      441     4905
      442     4906    2           END;                            /* DO one shot inits */

      443     4907                                                /**/
      444     4908    1        OUT_KEY.LANG_ = ' ';

   4908  2 000043   000040 236003                    LDQ     32,DU
         2 000044   000000 552020 xsym               STBQ    OUT_KEY,'20'O

      445     4909    1        OUT_KEY.MESS# = 0;

   4909  2 000045   000000 220003                    LDX0    0,DU
         2 000046   000000 440000 xsym               SXL0    OUT_KEY

      446     4910                                                /**/
      447     4911    1        REMEMBER OUT$ERROR_WIND IN OUT_UNWIND;

   4911  2 000047   000173 635000 2                  EAA     OUT$ERROR_WIND
         2 000050   000000 452400 xsym               STP2    OUT_UNWIND
         2 000051   000001 755000 xsym               STA     OUT_UNWIND+1

      448     4912                                                /**/
      449     4913                                                /**/
      450     4914    2        DO I = 0 TO (HI_NODE$ -> OU$OUTBLK.NSUBLKS - 1);

   4914  2 000052   200005 450100                    STZ     I,,AUTO
         2 000053   000145 710000 2                  TRA     s:4946+1

PL6.E3A0      #005=OUT$BUILD File=OUT$TEMPLAT.:E05TSI                            WED 07/30/97 04:16 Page:78
      451     4915
      452     4916    2             SPTR$ = HI_NODE$ -> OU$OUTBLK.SUBLK$(I);

   4916  2 000054   200003 470500                    LDP0    @HI_NODE$,,AUTO
         2 000055   000000 471500                    LDP1    0,,PR0
         2 000056   200005 720100                    LXL0    I,,AUTO
         2 000057   100003 236110                    LDQ     3,X0,PR1
         2 000060   200007 756100                    STQ     SPTR$,,AUTO

      453     4917
      454     4918    3             DO CASE (SPTR$ -> OU$OUTBLK.CODE);

   4918  2 000061   200007 473500                    LDP3    SPTR$,,AUTO
         2 000062   300000 236100                    LDQ     0,,PR3
         2 000063   777777 376007                    ANQ     -1,DL
         2 000064   000012 136007                    SBLQ    10,DL
         2 000065   000013 116007                    CMPQ    11,DL
         2 000066   000070 602006 2                  TNC     s:4918+7,QL
         2 000067   000144 710000 2                  TRA     s:4946
         2 000070   000103 710000 2                  TRA     s:4922
         2 000071   000123 710000 2                  TRA     s:4935
         2 000072   000144 710000 2                  TRA     s:4946
         2 000073   000144 710000 2                  TRA     s:4946
         2 000074   000144 710000 2                  TRA     s:4946
         2 000075   000144 710000 2                  TRA     s:4946
         2 000076   000144 710000 2                  TRA     s:4946
         2 000077   000144 710000 2                  TRA     s:4946
         2 000100   000144 710000 2                  TRA     s:4946
         2 000101   000144 710000 2                  TRA     s:4946
         2 000102   000133 710000 2                  TRA     s:4940

      455     4919
      456     4920    3             CASE (10 /* T_MESSAGENUMBER# */);

      457     4921
      458     4922    3                CALL CHARBIN (J, SPTR$ -> OU$OUTSYM.TEXT);

PL6.E3A0      #005=OUT$BUILD File=OUT$TEMPLAT.:E05TSI                            WED 07/30/97 04:16 Page:79
   4922  2 000103   300004 236100                    LDQ     4,,PR3
         2 000104   000033 772000                    QRL     27
         2 000105   000000 621006                    EAX1    0,QL
         2 000106   000100 305540                    DTB
         2 000107   300004 230011                    NDSC9   4,,PR3                   cn=1,s=nosgn,sf=0,n=*X1
         2 000110   200006 000004                    NDSC9   J,,AUTO                  cn=0,s=lsgnf,sf=0,n=4

      459     4923
      460     4924        /*E*      ERROR: OUT-E$OUT_MSG2BIG-3
      461     4925                  MESSAGE: Message number is too large.
      462     4926                                                                          */
      463     4927    3                IF J > 262143 /* UBIN18_MAX# */

   4927  2 000111   200006 235100                    LDA     J,,AUTO
         2 000112   777777 115007                    CMPA    -1,DL
         2 000113   000120 604400 2                  TMOZ    s:4931

      464     4928    3                THEN
      465     4929    3                     CALL OUT$ERROR (%E$OUT_MSG2BIG);

   4929  2 000114   000002 630400 3                  EPPR0   2
         2 000115   000017 631400 xsym               EPPR1   B_VECTNIL+15
         2 000116   000000 701000 xent               TSX1    OUT$ERROR
         2 000117   000000 011000                    NOP     0

      466     4930
      467     4931    3                OUT_KEY.MESS# = J;

   4931  2 000120   200006 720100                    LXL0    J,,AUTO
         2 000121   000000 440000 xsym               SXL0    OUT_KEY
         2 000122   000144 710000 2                  TRA     s:4946

      468     4932
      469     4933    3             CASE (11 /* T_LANGUAGE# */);

      470     4934
      471     4935    3                OUT_KEY.LANG_ = SPTR$ -> OU$OUTBLK.SUBLK$(0) ->
PL6.E3A0      #005=OUT$BUILD File=OUT$TEMPLAT.:E05TSI                            WED 07/30/97 04:16 Page:80

   4935  2 000123   300003 474500                    LDP4    3,,PR3
         2 000124   400004 236100                    LDQ     4,,PR4
         2 000125   000033 772000                    QRL     27
         2 000126   000000 621006                    EAX1    0,QL
         2 000127   040000 100540                    MLR     fill='040'O
         2 000130   400004 200011                    ADSC9   4,,PR4                   cn=1,n=*X1
         2 000131   000000 200001 xsym               ADSC9   OUT_KEY                  cn=1,n=1
         2 000132   000144 710000 2                  TRA     s:4946

      472     4936    3                     OU$OUTSYM.TEXT;
      473     4937
      474     4938    3             CASE (20 /* T_TEMPLATE# */);

      475     4939
      476     4940    3                OUT_TPOSN = 0;

   4940  2 000133   000000 450000 xsym               STZ     OUT_TPOSN

      477     4941    3                NEXT_NODE$ = SPTR$;

   4941  2 000134   200007 236100                    LDQ     SPTR$,,AUTO
         2 000135   200004 756100                    STQ     NEXT_NODE$,,AUTO

      478     4942
      479     4943    3                CALL OUT$TEMPL (NEXT_NODE$);

   4943  2 000136   200004 631500                    EPPR1   NEXT_NODE$,,AUTO
         2 000137   200010 451500                    STP1    SPTR$+1,,AUTO
         2 000140   200010 630500                    EPPR0   SPTR$+1,,AUTO
         2 000141   000017 631400 xsym               EPPR1   B_VECTNIL+15
         2 000142   000000 701000 xent               TSX1    OUT$TEMPL
         2 000143   000000 011000                    NOP     0

      480     4944
      481     4945    3             END;                          /* DO CASE NODE.CODE */

PL6.E3A0      #005=OUT$BUILD File=OUT$TEMPLAT.:E05TSI                            WED 07/30/97 04:16 Page:81
      482     4946    2           END;                            /* DO I = 0 TO NSUBLKS - 1 */

   4946  2 000144   200005 054100                    AOS     I,,AUTO
         2 000145   200003 470500                    LDP0    @HI_NODE$,,AUTO
         2 000146   000000 471500                    LDP1    0,,PR0
         2 000147   100001 236100                    LDQ     1,,PR1
         2 000150   000022 772000                    QRL     18
         2 000151   200005 116100                    CMPQ    I,,AUTO
         2 000152   000054 605400 2                  TPNZ    s:4916

      483     4947
      484     4948                                                /**/
      485     4949    1        IF ZWI$OPTION.OU

   4949  2 000153   000004 234000 xsym               SZN     ZWI$OPTION+4
         2 000154   000167 605000 2                  TPL     s:4956

      486     4950    1        THEN
      487     4951    2        DO;

      488     4952    2             WRITE_MESSAGE.BUF_.BOUND = OUT_TPOSN - 1;

   4952  2 000155   000000 236000 xsym               LDQ     OUT_TPOSN
         2 000156   000001 136007                    SBLQ    1,DL
         2 000157   000020 736000                    QLS     16
         2 000160   000136 676000 1                  ERQ     WRITE_MESSAGE+4
         2 000161   000034 376000 xsym               ANQ     B_VECTNIL+28
         2 000162   000136 656000 1                  ERSQ    WRITE_MESSAGE+4

      489     4953    2             CALL M$WRITE (WRITE_MESSAGE) ALTRET (HMMM_ALTED_M);

   4953  2 000163   000132 630400 1                  EPPR0   WRITE_MESSAGE
         2 000164   440001 713400                    CLIMB   alt,write
         2 000165   401400 401760                    pmme    nvectors=4
         2 000166   000170 702000 2                  TSX2    HMMM_ALTED_M

      490     4954    2           END;                            /* DO IF MAKING FILE */
PL6.E3A0      #005=OUT$BUILD File=OUT$TEMPLAT.:E05TSI                            WED 07/30/97 04:16 Page:82

      491     4955                                                /**/
      492     4956    1        RETURN;

   4956  2 000167   000000 702200 xent               TSX2  ! X66_ARET

   4949  2 000170                       HMMM_ALTED_M null
      493     4957    1   HMMM_ALTED_M: ;
      494     4958        /*E*      ERROR: OUT-E$OUT_OLDKEY-3
      495     4959                  MESSAGE: You cannot create this message...it already exists!
      496     4960                                                                          */
      497     4961    1        OUT_ERRORED = %E$OUT_OLDKEY;

   4961  2 000170   000013 235007                    LDA     11,DL
         2 000171   000000 755000 xsym               STA     OUT_ERRORED

      498     4962    1        ALTRETURN;

   4962  2 000172   000000 702200 xent               TSX2  ! X66_AALT

   4961  2 000173                       OUT$ERROR_W* null
      499     4963                                                /**/
      500     4964                                                /**/
      501     4965    1   OUT$ERROR_WIND: ;
      502     4966    1        ALTRETURN;

   4966  2 000173   000000 702200 xent               TSX2  ! X66_AALT
      503     4967    1   END OUT$BUILD;
      504     4968        %EOD;

PL6.E3A0      #005=OUT$BUILD File=OUT$TEMPLAT.:E05TSI                            WED 07/30/97 04:16 Page:83
--  Include file information  --

   ZWI$OPTION_C.:TOOLE04  is referenced.
   CP_6_SUBS.:E05TOU  is referenced.
   CP_6.:E05TOU  cannot be made into a system file and is referenced.
   OUT_SUBS_C.:E05TOU  is referenced.
   OU_PERR_C.:E05TOU  is referenced.
   OUT_DATA_R.:E05TOU  cannot be made into a system file and is referenced.
   XU_MACRO_C.:E05TOU  is referenced.
   B$JIT_C.:E05TOU  was found in the system file and is never referenced.
   CP_6_C.:E05TOU  was found in the system file and is referenced.
      No diagnostics issued in procedure OUT$BUILD.
PL6.E3A0      #005=OUT$BUILD File=OUT$TEMPLAT.:E05TSI                            WED 07/30/97 04:16 Page:84

 **** Variables and constants ****

  ****  Section 001  Data  OUT$BUILD

  ****  Scalars and arrays  ****
OctLoc.c.b A Datatyp(siz) R M Lvl/name                 OctLoc.c.b A Datatyp(siz) R M Lvl/name

     2-0-0/d STRC(1080)  r     1 CLOSE_OU                   0-0-0/w BIT         r     1 HERE1CE
    40-0-0/d STRC(2088)  r     1 OPEN_OU                  132-0-0/d STRC(432)   r     1 WRITE_MESSAGE

  ****  Auto variables  ****

  ****  Scalars and arrays  ****
OctLoc.c.b A Datatyp(siz) R M Lvl/name                 OctLoc.c.b A Datatyp(siz) R M Lvl/name

     3-0-0/w PTR         r     1 @HI_NODE$                 *0-0-0/w PTR         r     1 HI_NODE$
     5-0-0/w SBIN        r     1 I                          6-0-0/w SBIN        r     1 J
     4-0-0/w PTR         r     1 NEXT_NODE$                 7-0-0/w PTR         r     1 SPTR$

  ****  SYMREF variables  ****

  ****  Scalars and arrays  ****
OctLoc.c.b A Datatyp(siz) R M Lvl/name                 OctLoc.c.b A Datatyp(siz) R M Lvl/name

     0-0-0/w SBIN        r     1 OUT_ERRORED                0-0-0/w STRC        r     1 OUT_KEY
     0-0-0/c CHAR(4096)  r     1 OUT_TEMPLATE               0-0-0/w UBIN        r     1 OUT_TPOSN
     0-0-0/d REMB        r     1 OUT_UNWIND                 0-0-0/w SBIN        r     1 ZWI$M$OU#
     0-0-0/w STRC(1440)  r     1 ZWI$OPTION

  ****  BASED and DCB variables  ****

  ****  Scalars and arrays  ****
OctLoc.c.b A Datatyp(siz) R M Lvl/name                 OctLoc.c.b A Datatyp(siz) R M Lvl/name

     0-0-0/d ASTR(3528)  r     1 F$DCB                      0-0-0/w STRC(144)   r     1 OU$OUTBLK
     0-0-0/w ASTR(153)   r     1 OU$OUTSYM

PL6.E3A0      #005=OUT$BUILD File=OUT$TEMPLAT.:E05TSI                            WED 07/30/97 04:16 Page:85

   Procedure OUT$BUILD requires 124 words for executable code.
   Procedure OUT$BUILD requires 10 words of local(AUTO) storage.
PL6.E3A0      #005=OUT$BUILD File=OUT$TEMPLAT.:E05TSI                            WED 07/30/97 04:16 Page:86
          *** CROSS REFERENCE LISTING ***
**     DENOTES     IDENTIFIER DEFINITION
<<                 IDENTIFIER'S VALUE SET
>>                 IDENTIFIER'S VALUE USED
<>                 IDENTIFIER SET AND/OR USED
--                 IDENTIFIER REFERENCED
PL6.E3A0      #005=OUT$BUILD File=OUT$TEMPLAT.:E05TSI                            WED 07/30/97 04:16 Page:87
          MINI XREF LISTING

CLOSE_OU
      4466**DCL      4900<>CALL
CLOSE_OU.SN_
      4466**DCL      4466--REDEF
CLOSE_OU.UTL_
      4467**DCL      4467--REDEF
CLOSE_OU.V
      4471**DCL      4466--DCLINIT
CLOSE_OU.V.DCB#
      4472**DCL      4898<<ASSIGN
CLOSE_OU.V.EXPIRE#
      4481**DCL      4481--REDEF
CLOSE_OU.V.TYPE#
      4479**DCL      4479--REDEF
CLOSE_OU.V.XTNSIZE#
      4476**DCL      4476--REDEF    4478--REDEF
F$DCB.ACTPOS
      4408**DCL      4408--REDEF
F$DCB.ARS#
      4382**DCL      4382--REDEF
F$DCB.ATTR
      4401**DCL      4402--REDEF
F$DCB.BORROW
      4416**DCL      4416--REDEF    4416--REDEF    4416--REDEF
F$DCB.DCBNAME.L
      4430**DCL      4430--IMP-SIZ
F$DCB.EOMCHAR#
      4386**DCL      4386--REDEF
F$DCB.EXIST#
      4396**DCL      4892>>IF
F$DCB.FLDID
      4411**DCL      4411--REDEF
PL6.E3A0      #005=OUT$BUILD File=OUT$TEMPLAT.:E05TSI                            WED 07/30/97 04:16 Page:88
F$DCB.FORM$
      4405**DCL      4405--REDEF
F$DCB.FSECT
      4421**DCL      4421--REDEF
F$DCB.FSN#
      4398**DCL      4398--REDEF    4398--REDEF    4399--REDEF
F$DCB.FUN#
      4397**DCL      4892>>IF
F$DCB.HEADER$
      4404**DCL      4404--REDEF
F$DCB.IXTNSIZE#
      4402**DCL      4402--REDEF
F$DCB.LASTSTA$
      4391**DCL      4391--REDEF
F$DCB.LVL
      4417**DCL      4417--REDEF
F$DCB.NAME#.C
      4392**DCL      4392--REDEF
F$DCB.NOEOF
      4414**DCL      4414--REDEF
F$DCB.NRECS#
      4403**DCL      4403--REDEF
F$DCB.NRECX
      4422**DCL      4422--REDEF
F$DCB.OHDR
      4414**DCL      4414--REDEF
F$DCB.ORG#
      4397**DCL      4397--REDEF
F$DCB.PRECNO
      4420**DCL      4420--REDEF
F$DCB.RCSZ
      4426**DCL      4426--REDEF
F$DCB.RES#
      4393**DCL      4393--REDEF
F$DCB.SETX
      4405**DCL      4405--REDEF
PL6.E3A0      #005=OUT$BUILD File=OUT$TEMPLAT.:E05TSI                            WED 07/30/97 04:16 Page:89
F$DCB.TAB$
      4405**DCL      4405--REDEF
F$DCB.TDA
      4419**DCL      4420--REDEF
F$DCB.WSN#
      4393**DCL      4393--REDEF
HERE1CE
      4436**DCL      4883>>IF       4886<<ASSIGN
HI_NODE$
        23**DCL        18--PROC     4914>>DOINDEX  4916>>ASSIGN
HMMM_ALTED_M
      4949**LABEL    4953--CALLALT
I
      4875**DCL      4914<<DOINDEX  4916>>ASSIGN
J
      4876**DCL      4922<<CALLBLT  4927>>IF       4931>>ASSIGN
M$CLOSE
      3308**DCL-ENT  4900--CALL
M$OPEN
      3308**DCL-ENT  4902--CALL
M$WRITE
      3309**DCL-ENT  4953--CALL
NEXT_NODE$
      4874**DCL      4941<<ASSIGN   4943<>CALL
OPEN_OU
      4556**DCL      4902<>CALL
OPEN_OU.ACSVEH_
      4558**DCL      4559--REDEF
OPEN_OU.ALTKEYS_
      4564**DCL      4565--REDEF    4565--REDEF
OPEN_OU.HDR_
      4563**DCL      4564--REDEF
OPEN_OU.TAB_
      4562**DCL      4563--REDEF
OPEN_OU.UHL_
      4556**DCL      4557--REDEF    4557--REDEF
PL6.E3A0      #005=OUT$BUILD File=OUT$TEMPLAT.:E05TSI                            WED 07/30/97 04:16 Page:90
OPEN_OU.V
      4565**DCL      4556--DCLINIT
OPEN_OU.V.DCB#
      4565**DCL      4899<<ASSIGN
OPEN_OU.V.FSN#
      4596**DCL      4596--REDEF    4596--REDEF
OPEN_OU.WSN_
      4562**DCL      4562--REDEF
OU$OUTBLK.CODE
      4691**DCL      4918>>DOCASE
OU$OUTBLK.NSUBLKS
      4695**DCL      4914>>DOINDEX
OU$OUTBLK.SUBLK$
      4716**DCL      4916>>ASSIGN   4935>>ASSIGN   4935>>ASSIGN
OU$OUTSYM.COUNT
      4667**DCL      4670--IMP-SIZ  4922>>CALLBLT  4935>>ASSIGN
OU$OUTSYM.TEXT
      4670**DCL      4922>>CALLBLT  4935>>ASSIGN
OUT$ERROR
        30**DCL-ENT  4929--CALL
OUT$ERROR_WIND
      4961**LABEL    4911--REMEMBR
OUT$TEMPL
        29**DCL-ENT  4943--CALL
OUT_ERRORED
      3154**DCL      4961<<ASSIGN
OUT_KEY
      3151**DCL      4621--DCLINIT
OUT_KEY.LANG_
      3152**DCL      4908<<ASSIGN   4935<<ASSIGN
OUT_KEY.MESS#
      3152**DCL      4909<<ASSIGN   4931<<ASSIGN
OUT_MID
      3149**DCL      3150--REDEF
OUT_TEMPLATE
      3152**DCL      4622--DCLINIT  4623--DCLINIT
PL6.E3A0      #005=OUT$BUILD File=OUT$TEMPLAT.:E05TSI                            WED 07/30/97 04:16 Page:91
OUT_TPOSN
      3152**DCL      4940<<ASSIGN   4952>>ASSIGN
OUT_UNWIND
      3154**DCL      4911<<REMEMBR
OUT_VALUE.CHAR4
      3153**DCL      3153--REDEF    3153--REDEF
SPTR$
      4877**DCL      4916<<ASSIGN   4918>>DOCASE   4922>>CALLBLT  4922>>CALLBLT  4935>>ASSIGN   4935>>ASSIGN
      4941>>ASSIGN
WRITE_MESSAGE
      4621**DCL      4953<>CALL
WRITE_MESSAGE.BUF_.BOUND
      4621**DCL      4952<<ASSIGN
WRITE_MESSAGE.STATION_
      4623**DCL      4623--REDEF
WRITE_MESSAGE.V
      4624**DCL      4621--DCLINIT
WRITE_MESSAGE.V.DCB#
      4624**DCL      4887<<ASSIGN
WRITE_MESSAGE.V.DVBYTE.VFC#
      4630**DCL      4630--REDEF
WRITE_MESSAGE.V.ONEWKEY#
      4626**DCL      4896<<ASSIGN
XX0
      4899**LABEL    4900--CALLALT
XX1
      4899**LABEL    4902--CALLALT
ZWI$M$OU#
        28**DCL      4887>>ASSIGN   4892--IF       4892--IF       4898>>ASSIGN   4899>>ASSIGN
ZWI$OPTION.OU
      4278**DCL      4889>>IF       4949>>IF

PL6.E3A0      #006=OUT$CHLIST File=OUT$TEMPLAT.:E05TSI                           WED 07/30/97 04:16 Page:92
      505        1        /*M* OUT$CHLIST Generates choice-list sub-templates */
      506        2        /*T***********************************************************/
      507        3        /*T*                                                         */
      508        4        /*T* Copyright (c) Bull HN Information Systems Inc., 1997    */
      509        5        /*T*                                                         */
      510        6        /*T***********************************************************/
      511        7
      512        8        %SET LISTSUB='1'B;
      513        9
      514       10
      515       11
      516       12        /*
      517       13          ###  #   # #####   #    ###  #   # #      ###   ###  #####
      518       14         # # # #   #   #    ###  #   # #   # #       #   #   #   #
      519       15         # # # #   #   #   # #   #     #   # #       #   #       #
      520       16         #  ## #   #   #    ###  #     ##### #       #    ###    #
      521       17         #   # #   #   #     # # #     #   # #       #       #   #
      522       18         #   # #   #   #    ###  #   # #   # #       #   #   #   #
      523       19          ###   ###    #     #    ###  #   # #####  ###   ###    #
      524       20                                                                          */
      525       21
      526       22        OUT$CHLIST: PROC (NODE_PTR$, TYPE_IND);
      527       23
      528       24                                           /*
      529       25                                                ARGUMENTS
      530       26                                                                          */
      531       27    1   DCL NODE_PTR$ PTR;
      532       28    1   DCL TYPE_IND SBIN;
      533       29
      534       30                                           /*
      535       31                                                INCLUDES
      536       32                                                                          */
      537       33        %INCLUDE OUT_SUBS_C;
      538      156        %INCLUDE XU_MACRO_C;
      539     3262        %INCLUDE OU_PERR_C;
      540     3283
      541     3284             %PARSE$SYM     (NAME=OU$OUTSYM,
PL6.E3A0      #006=OUT$CHLIST File=OUT$TEMPLAT.:E05TSI                           WED 07/30/97 04:16 Page:93
      542     3285                                 STCLASS="BASED");
      543     3323             %PARSE$OUT     (NAME=OU$OUTBLK,
      544     3324                                 STCLASS="BASED");
      545     3369
      546     3370                                           /*
      547     3371                                                EXTERNALS
      548     3372                                                                          */
      549     3373
      550     3374    1   DCL OUT$ERROR ENTRY(1);
      551     3375    1   DCL OUT$ADDSTR ENTRY(2);
      552     3376    1   DCL OUT$ADDTKN ENTRY(2);
      553     3377    1   DCL OUT$ADDBYTE ENTRY(1);
      554     3378    1   DCL OUT$MAKESEL ENTRY(1);
      555     3379    1   DCL OUT$STUFCNT ENTRY(1);
      556     3380    1   DCL OUT$TEMPL ENTRY(1);
      557     3381
      558     3382                                           /*
      559     3383                                                LOCALS
      560     3384                                                                          */
      561     3385    1   DCL TPOSN_HERE SBIN;
      562     3386    1   DCL I SBIN;
      563     3387    1   DCL J SBIN;
      564     3388    1   DCL SPTR$ PTR;
      565     3389    1   DCL PTR$ PTR;
      566     3390
      567     3391        %EJECT;
PL6.E3A0      #006=OUT$CHLIST File=OUT$TEMPLAT.:E05TSI                           WED 07/30/97 04:16 Page:94
      568     3392        /*
      569     3393             Begin  O U T $ C H L I S T  main
      570     3394                                                                          */
      571     3395
      572     3396    1        CALL OUT$ADDTKN (5 /* TYP_CHLIST# */, TPOSN_HERE);
      573     3397
      574     3398    1        PTR$ = NODE_PTR$ -> OU$OUTBLK.SUBLK$(0) -> OU$OUTBLK.SUBLK$(0);
      575     3399
      576     3400    2        DO CASE ( PTR$ -> OU$OUTBLK.CODE);
      577     3401
      578     3402    2        CASE (71 /* T_NUMSEL# */);
      579     3403        /*E*      ERROR: OUT-E$OUT_BADTYP
      580     3404                  MESSAGE: Selection criteria does not match data type of selector.
      581     3405                           Text was requested and numeric was specified, or
      582     3406                           numeric was requested and text was specified.
      583     3407                                                                          */
      584     3408    2           IF TYPE_IND ~= 1 /* NUMERIC */
      585     3409    2           THEN
      586     3410    2                CALL OUT$ERROR (%E$OUT_BADTYP);
      587     3411
      588     3412    2           CALL OUT$MAKESEL (PTR$ -> OU$OUTBLK.SUBLK$(0));
      589     3413
      590     3414    2        CASE (73 /* T_NUMSELLIST# */);
      591     3415
      592     3416    2           IF TYPE_IND ~= 1 /* NUMERIC */
      593     3417    2           THEN
      594     3418    2                CALL OUT$ERROR (%E$OUT_BADTYP);
      595     3419
      596     3420    3           DO I = 0 TO PTR$ -> OU$OUTBLK.NSUBLKS - 1;
      597     3421
      598     3422    3                CALL OUT$MAKESEL (PTR$ -> OU$OUTBLK.SUBLK$(I));
      599     3423    3              END;                         /* DO I */
      600     3424
      601     3425    2        CASE (74 /* T_TEXTSEL# */);
      602     3426
      603     3427    2           IF TYPE_IND ~= 2 /* TEXTYPE */
      604     3428    2           THEN
PL6.E3A0      #006=OUT$CHLIST File=OUT$TEMPLAT.:E05TSI                           WED 07/30/97 04:16 Page:95
      605     3429    2                CALL OUT$ERROR (%E$OUT_BADTYP);
      606     3430
      607     3431    2           CALL OUT$MAKESEL (PTR$ -> OU$OUTBLK.SUBLK$(0));
      608     3432
      609     3433    2        CASE (76 /* T_TEXTSELLIST# */);
      610     3434
      611     3435    2           IF TYPE_IND ~= 2 /* TEXTYPE */
      612     3436    2           THEN
      613     3437    2                CALL OUT$ERROR (%E$OUT_BADTYP);
      614     3438
      615     3439    3           DO I = 0 TO PTR$ -> OU$OUTBLK.NSUBLKS - 1;
      616     3440
      617     3441    3                CALL OUT$MAKESEL (PTR$ -> OU$OUTBLK.SUBLK$(I));
      618     3442
      619     3443    3              END;                         /* DO I = 0 TO NSUBLKS */
      620     3444    2        CASE (78 /* T_ELSESEL# */);
      621     3445    2           CALL OUT$ADDBYTE(8 /* TYP_OTHERWISE# */);
      622     3446
      623     3447    2        CASE(77 /* T_NULLSEL# */);
      624     3448    2           CALL OUT$ADDBYTE (7 /* TYP_NULL# */);
      625     3449
      626     3450    2        END;                               /* DO CASE NODE.CODE */
      627     3451
      628     3452    1        CALL OUT$STUFCNT (TPOSN_HERE);
      629     3453                                                /**/
      630     3454    1        CALL OUT$TEMPL (NODE_PTR$ -> OU$OUTBLK.SUBLK$(1));
      631     3455                                                /**/
      632     3456    1        RETURN;
      633     3457    1   END OUT$CHLIST;
      634     3458        %EOD;

PL6.E3A0      #006=OUT$CHLIST File=OUT$TEMPLAT.:E05TSI                           WED 07/30/97 04:16 Page:96
--  Include file information  --

   OU_PERR_C.:E05TOU  is referenced.
   XU_MACRO_C.:E05TOU  is referenced.
   OUT_SUBS_C.:E05TOU  is referenced.
   B$JIT_C.:E05TOU  was found in the system file and is never referenced.
   CP_6_C.:E05TOU  was found in the system file and is never referenced.
      No diagnostics issued in procedure OUT$CHLIST.

   Procedure OUT$CHLIST requires 138 words for executable code.
   Procedure OUT$CHLIST requires 12 words of local(AUTO) storage.

PL6.E3A0      #006=OUT$CHLIST File=OUT$TEMPLAT.:E05TSI                           WED 07/30/97 04:16 Page:97

 Object Unit name= OUT$CHLIST                                 File name= OUT$TEMPLAT.:E05TOU
 UTS= JUL 30 '97 04:16:41.88 WED                              Compiler= PL-6/E31         Sev=      00
 SharedLib= :SHARED_SYSTEM                                    Alt SharedLib=


    ****  Control sections  ****

 Sect   Type Bound  Init  Size OctSiz  Section name(segment info)
    0   Proc  even  none   138    212  OUT$CHLIST
    1  RoData even  none     3      3  OUT$CHLIST

    ****  Entry defs  ****

                              Check   Calling
                             calling  sequence
  Sect OctLoc Primary Altret sequence   type   Parms  Name
     0      0   yes            yes      Std        2  OUT$CHLIST

  ****  Entry refs  ****

         Check        Calling
        calling       sequence
Altret sequence SRef   type   Args  Name
         yes           Std       2 OUT$ADDTKN
         yes           Std       1 OUT$MAKESEL
         yes           Std       1 OUT$ADDBYTE
         yes           Std       1 OUT$STUFCNT
         yes           Std       1 OUT$ERROR
         yes           Std       1 OUT$TEMPL
                       nStd      0 X66_AUTO_2
                       Std       0 B_CONSPOOL_D
                       nStd      0 X66_ARET
PL6.E3A0      #006=OUT$CHLIST File=OUT$TEMPLAT.:E05TSI                           WED 07/30/97 04:16 Page:98

  ****  Data refs  ****

  Flags:  r = read only, s = secondary
Flgs Name                             Flgs Name                             Flgs Name
     B_VECTNIL

  ****  Segment refs  ****

  Flags:  r = read only, s = secondary
Flgs Name                             Flgs Name                             Flgs Name
     ISSID
PL6.E3A0      #006=OUT$CHLIST File=OUT$TEMPLAT.:E05TSI                           WED 07/30/97 04:16 Page:99


      505        1        /*M* OUT$CHLIST Generates choice-list sub-templates */
      506        2        /*T***********************************************************/
      507        3        /*T*                                                         */
      508        4        /*T* Copyright (c) Bull HN Information Systems Inc., 1997    */
      509        5        /*T*                                                         */
      510        6        /*T***********************************************************/
      511        7
      512        8        %SET LISTSUB='1'B;
      513        9
      514       10
      515       11
      516       12        /*
      517       13          ###  #   # #####   #    ###  #   # #      ###   ###  #####
      518       14         # # # #   #   #    ###  #   # #   # #       #   #   #   #
      519       15         # # # #   #   #   # #   #     #   # #       #   #       #
      520       16         #  ## #   #   #    ###  #     ##### #       #    ###    #
      521       17         #   # #   #   #     # # #     #   # #       #       #   #
      522       18         #   # #   #   #    ###  #   # #   # #       #   #   #   #
      523       19          ###   ###    #     #    ###  #   # #####  ###   ###    #
      524       20                                                                          */
      525       21
      526       22        OUT$CHLIST: PROC (NODE_PTR$, TYPE_IND);

     22  0 000000   000000 700200 xent  OUT$CHLIST   TSX0  ! X66_AUTO_2
         0 000001   000014 000002                    ZERO    12,2

      527       23
      528       24                                           /*
      529       25                                                ARGUMENTS
      530       26                                                                          */
      531       27    1   DCL NODE_PTR$ PTR;
      532       28    1   DCL TYPE_IND SBIN;
      533       29
      534       30                                           /*
      535       31                                                INCLUDES
      536       32                                                                          */
PL6.E3A0      #006=OUT$CHLIST File=OUT$TEMPLAT.:E05TSI                           WED 07/30/97 04:16 Page:100
      537       33        %INCLUDE OUT_SUBS_C;
      538      156        %INCLUDE XU_MACRO_C;
      539     3262        %INCLUDE OU_PERR_C;
      540     3283
      541     3284             %PARSE$SYM     (NAME=OU$OUTSYM,
      542     3285                                 STCLASS="BASED");
      543     3323             %PARSE$OUT     (NAME=OU$OUTBLK,
      544     3324                                 STCLASS="BASED");
      545     3369
      546     3370                                           /*
      547     3371                                                EXTERNALS
      548     3372                                                                          */
      549     3373
      550     3374    1   DCL OUT$ERROR ENTRY(1);
      551     3375    1   DCL OUT$ADDSTR ENTRY(2);
      552     3376    1   DCL OUT$ADDTKN ENTRY(2);
      553     3377    1   DCL OUT$ADDBYTE ENTRY(1);
      554     3378    1   DCL OUT$MAKESEL ENTRY(1);
      555     3379    1   DCL OUT$STUFCNT ENTRY(1);
      556     3380    1   DCL OUT$TEMPL ENTRY(1);
      557     3381
      558     3382                                           /*
      559     3383                                                LOCALS
      560     3384                                                                          */
      561     3385    1   DCL TPOSN_HERE SBIN;
      562     3386    1   DCL I SBIN;
      563     3387    1   DCL J SBIN;
      564     3388    1   DCL SPTR$ PTR;
      565     3389    1   DCL PTR$ PTR;
      566     3390
      567     3391        %EJECT;
PL6.E3A0      #006=OUT$CHLIST File=OUT$TEMPLAT.:E05TSI                           WED 07/30/97 04:16 Page:101
      568     3392        /*
      569     3393             Begin  O U T $ C H L I S T  main
      570     3394                                                                          */
      571     3395
      572     3396    1        CALL OUT$ADDTKN (5 /* TYP_CHLIST# */, TPOSN_HERE);

   3396  0 000002   200005 630500                    EPPR0   TPOSN_HERE,,AUTO
         0 000003   200013 450500                    STP0    PTR$+2,,AUTO
         0 000004   000000 236000 1                  LDQ     0
         0 000005   200012 756100                    STQ     PTR$+1,,AUTO
         0 000006   200012 630500                    EPPR0   PTR$+1,,AUTO
         0 000007   000020 631400 xsym               EPPR1   B_VECTNIL+16
         0 000010   000000 701000 xent               TSX1    OUT$ADDTKN
         0 000011   000000 011000                    NOP     0

      573     3397
      574     3398    1        PTR$ = NODE_PTR$ -> OU$OUTBLK.SUBLK$(0) -> OU$OUTBLK.SUBLK$(0);

   3398  0 000012   200003 470500                    LDP0    @NODE_PTR$,,AUTO
         0 000013   000000 471500                    LDP1    0,,PR0
         0 000014   100003 473500                    LDP3    3,,PR1
         0 000015   300003 236100                    LDQ     3,,PR3
         0 000016   200011 756100                    STQ     PTR$,,AUTO

      575     3399
      576     3400    2        DO CASE ( PTR$ -> OU$OUTBLK.CODE);

   3400  0 000017   200011 474500                    LDP4    PTR$,,AUTO
         0 000020   400000 236100                    LDQ     0,,PR4
         0 000021   777777 376007                    ANQ     -1,DL
         0 000022   000107 136007                    SBLQ    71,DL
         0 000023   000010 116007                    CMPQ    8,DL
         0 000024   000026 602006 0                  TNC     s:3400+7,QL
         0 000025   000173 710000 0                  TRA     s:3452
         0 000026   000036 710000 0                  TRA     s:3408
         0 000027   000173 710000 0                  TRA     s:3452
         0 000030   000056 710000 0                  TRA     s:3416
PL6.E3A0      #006=OUT$CHLIST File=OUT$TEMPLAT.:E05TSI                           WED 07/30/97 04:16 Page:102
         0 000031   000110 710000 0                  TRA     s:3427
         0 000032   000173 710000 0                  TRA     s:3452
         0 000033   000130 710000 0                  TRA     s:3435
         0 000034   000167 710000 0                  TRA     s:3448
         0 000035   000162 710000 0                  TRA     s:3445

      577     3401
      578     3402    2        CASE (71 /* T_NUMSEL# */);

      579     3403        /*E*      ERROR: OUT-E$OUT_BADTYP
      580     3404                  MESSAGE: Selection criteria does not match data type of selector.
      581     3405                           Text was requested and numeric was specified, or
      582     3406                           numeric was requested and text was specified.
      583     3407                                                                          */
      584     3408    2           IF TYPE_IND ~= 1 /* NUMERIC */

   3408  0 000036   200004 475500                    LDP5    @TYPE_IND,,AUTO
         0 000037   500000 235100                    LDA     0,,PR5
         0 000040   000001 115007                    CMPA    1,DL
         0 000041   000046 600000 0                  TZE     s:3412

      585     3409    2           THEN
      586     3410    2                CALL OUT$ERROR (%E$OUT_BADTYP);

   3410  0 000042   000001 630400 1                  EPPR0   1
         0 000043   000017 631400 xsym               EPPR1   B_VECTNIL+15
         0 000044   000000 701000 xent               TSX1    OUT$ERROR
         0 000045   000000 011000                    NOP     0

      587     3411
      588     3412    2           CALL OUT$MAKESEL (PTR$ -> OU$OUTBLK.SUBLK$(0));

   3412  0 000046   200011 236100                    LDQ     PTR$,,AUTO
         0 000047   000003 036003                    ADLQ    3,DU
         0 000050   200012 756100                    STQ     PTR$+1,,AUTO
         0 000051   200012 630500                    EPPR0   PTR$+1,,AUTO
         0 000052   000017 631400 xsym               EPPR1   B_VECTNIL+15
PL6.E3A0      #006=OUT$CHLIST File=OUT$TEMPLAT.:E05TSI                           WED 07/30/97 04:16 Page:103
         0 000053   000000 701000 xent               TSX1    OUT$MAKESEL
         0 000054   000000 011000                    NOP     0
         0 000055   000173 710000 0                  TRA     s:3452

      589     3413
      590     3414    2        CASE (73 /* T_NUMSELLIST# */);

      591     3415
      592     3416    2           IF TYPE_IND ~= 1 /* NUMERIC */

   3416  0 000056   200004 475500                    LDP5    @TYPE_IND,,AUTO
         0 000057   500000 235100                    LDA     0,,PR5
         0 000060   000001 115007                    CMPA    1,DL
         0 000061   000066 600000 0                  TZE     s:3420

      593     3417    2           THEN
      594     3418    2                CALL OUT$ERROR (%E$OUT_BADTYP);

   3418  0 000062   000001 630400 1                  EPPR0   1
         0 000063   000017 631400 xsym               EPPR1   B_VECTNIL+15
         0 000064   000000 701000 xent               TSX1    OUT$ERROR
         0 000065   000000 011000                    NOP     0

      595     3419
      596     3420    3           DO I = 0 TO PTR$ -> OU$OUTBLK.NSUBLKS - 1;

   3420  0 000066   200006 450100                    STZ     I,,AUTO
         0 000067   000102 710000 0                  TRA     s:3423+1

      597     3421
      598     3422    3                CALL OUT$MAKESEL (PTR$ -> OU$OUTBLK.SUBLK$(I));

   3422  0 000070   200006 236100                    LDQ     I,,AUTO
         0 000071   000022 736000                    QLS     18
         0 000072   000003 036003                    ADLQ    3,DU
         0 000073   200011 036100                    ADLQ    PTR$,,AUTO
         0 000074   200012 756100                    STQ     PTR$+1,,AUTO
PL6.E3A0      #006=OUT$CHLIST File=OUT$TEMPLAT.:E05TSI                           WED 07/30/97 04:16 Page:104
         0 000075   200012 630500                    EPPR0   PTR$+1,,AUTO
         0 000076   000017 631400 xsym               EPPR1   B_VECTNIL+15
         0 000077   000000 701000 xent               TSX1    OUT$MAKESEL
         0 000100   000000 011000                    NOP     0

      599     3423    3              END;                         /* DO I */

   3423  0 000101   200006 054100                    AOS     I,,AUTO
         0 000102   200011 470500                    LDP0    PTR$,,AUTO
         0 000103   000001 236100                    LDQ     1,,PR0
         0 000104   000022 772000                    QRL     18
         0 000105   200006 116100                    CMPQ    I,,AUTO
         0 000106   000070 605400 0                  TPNZ    s:3422
         0 000107   000173 710000 0                  TRA     s:3452

      600     3424
      601     3425    2        CASE (74 /* T_TEXTSEL# */);

      602     3426
      603     3427    2           IF TYPE_IND ~= 2 /* TEXTYPE */

   3427  0 000110   200004 475500                    LDP5    @TYPE_IND,,AUTO
         0 000111   500000 235100                    LDA     0,,PR5
         0 000112   000002 115007                    CMPA    2,DL
         0 000113   000120 600000 0                  TZE     s:3431

      604     3428    2           THEN
      605     3429    2                CALL OUT$ERROR (%E$OUT_BADTYP);

   3429  0 000114   000001 630400 1                  EPPR0   1
         0 000115   000017 631400 xsym               EPPR1   B_VECTNIL+15
         0 000116   000000 701000 xent               TSX1    OUT$ERROR
         0 000117   000000 011000                    NOP     0

      606     3430
      607     3431    2           CALL OUT$MAKESEL (PTR$ -> OU$OUTBLK.SUBLK$(0));

PL6.E3A0      #006=OUT$CHLIST File=OUT$TEMPLAT.:E05TSI                           WED 07/30/97 04:16 Page:105
   3431  0 000120   200011 236100                    LDQ     PTR$,,AUTO
         0 000121   000003 036003                    ADLQ    3,DU
         0 000122   200012 756100                    STQ     PTR$+1,,AUTO
         0 000123   200012 630500                    EPPR0   PTR$+1,,AUTO
         0 000124   000017 631400 xsym               EPPR1   B_VECTNIL+15
         0 000125   000000 701000 xent               TSX1    OUT$MAKESEL
         0 000126   000000 011000                    NOP     0
         0 000127   000173 710000 0                  TRA     s:3452

      608     3432
      609     3433    2        CASE (76 /* T_TEXTSELLIST# */);

      610     3434
      611     3435    2           IF TYPE_IND ~= 2 /* TEXTYPE */

   3435  0 000130   200004 475500                    LDP5    @TYPE_IND,,AUTO
         0 000131   500000 235100                    LDA     0,,PR5
         0 000132   000002 115007                    CMPA    2,DL
         0 000133   000140 600000 0                  TZE     s:3439

      612     3436    2           THEN
      613     3437    2                CALL OUT$ERROR (%E$OUT_BADTYP);

   3437  0 000134   000001 630400 1                  EPPR0   1
         0 000135   000017 631400 xsym               EPPR1   B_VECTNIL+15
         0 000136   000000 701000 xent               TSX1    OUT$ERROR
         0 000137   000000 011000                    NOP     0

      614     3438
      615     3439    3           DO I = 0 TO PTR$ -> OU$OUTBLK.NSUBLKS - 1;

   3439  0 000140   200006 450100                    STZ     I,,AUTO
         0 000141   000154 710000 0                  TRA     s:3443+1

      616     3440
      617     3441    3                CALL OUT$MAKESEL (PTR$ -> OU$OUTBLK.SUBLK$(I));

PL6.E3A0      #006=OUT$CHLIST File=OUT$TEMPLAT.:E05TSI                           WED 07/30/97 04:16 Page:106
   3441  0 000142   200006 236100                    LDQ     I,,AUTO
         0 000143   000022 736000                    QLS     18
         0 000144   000003 036003                    ADLQ    3,DU
         0 000145   200011 036100                    ADLQ    PTR$,,AUTO
         0 000146   200012 756100                    STQ     PTR$+1,,AUTO
         0 000147   200012 630500                    EPPR0   PTR$+1,,AUTO
         0 000150   000017 631400 xsym               EPPR1   B_VECTNIL+15
         0 000151   000000 701000 xent               TSX1    OUT$MAKESEL
         0 000152   000000 011000                    NOP     0

      618     3442
      619     3443    3              END;                         /* DO I = 0 TO NSUBLKS */

   3443  0 000153   200006 054100                    AOS     I,,AUTO
         0 000154   200011 470500                    LDP0    PTR$,,AUTO
         0 000155   000001 236100                    LDQ     1,,PR0
         0 000156   000022 772000                    QRL     18
         0 000157   200006 116100                    CMPQ    I,,AUTO
         0 000160   000142 605400 0                  TPNZ    s:3441
         0 000161   000173 710000 0                  TRA     s:3452

      620     3444    2        CASE (78 /* T_ELSESEL# */);

      621     3445    2           CALL OUT$ADDBYTE(8 /* TYP_OTHERWISE# */);

   3445  0 000162   000001 630400 1                  EPPR0   1
         0 000163   000017 631400 xsym               EPPR1   B_VECTNIL+15
         0 000164   000000 701000 xent               TSX1    OUT$ADDBYTE
         0 000165   000000 011000                    NOP     0
         0 000166   000173 710000 0                  TRA     s:3452

      622     3446
      623     3447    2        CASE(77 /* T_NULLSEL# */);

      624     3448    2           CALL OUT$ADDBYTE (7 /* TYP_NULL# */);

   3448  0 000167   000002 630400 1                  EPPR0   2
PL6.E3A0      #006=OUT$CHLIST File=OUT$TEMPLAT.:E05TSI                           WED 07/30/97 04:16 Page:107
         0 000170   000017 631400 xsym               EPPR1   B_VECTNIL+15
         0 000171   000000 701000 xent               TSX1    OUT$ADDBYTE
         0 000172   000000 011000                    NOP     0

      625     3449
      626     3450    2        END;                               /* DO CASE NODE.CODE */

      627     3451
      628     3452    1        CALL OUT$STUFCNT (TPOSN_HERE);

   3452  0 000173   200005 630500                    EPPR0   TPOSN_HERE,,AUTO
         0 000174   200012 450500                    STP0    PTR$+1,,AUTO
         0 000175   200012 630500                    EPPR0   PTR$+1,,AUTO
         0 000176   000017 631400 xsym               EPPR1   B_VECTNIL+15
         0 000177   000000 701000 xent               TSX1    OUT$STUFCNT
         0 000200   000000 011000                    NOP     0

      629     3453                                                /**/
      630     3454    1        CALL OUT$TEMPL (NODE_PTR$ -> OU$OUTBLK.SUBLK$(1));

   3454  0 000201   200003 470500                    LDP0    @NODE_PTR$,,AUTO
         0 000202   000000 471500                    LDP1    0,,PR0
         0 000203   100004 633500                    EPPR3   4,,PR1
         0 000204   200012 453500                    STP3    PTR$+1,,AUTO
         0 000205   200012 630500                    EPPR0   PTR$+1,,AUTO
         0 000206   000017 631400 xsym               EPPR1   B_VECTNIL+15
         0 000207   000000 701000 xent               TSX1    OUT$TEMPL
         0 000210   000000 011000                    NOP     0

      631     3455                                                /**/
      632     3456    1        RETURN;

   3456  0 000211   000000 702200 xent               TSX2  ! X66_ARET
      633     3457    1   END OUT$CHLIST;
      634     3458        %EOD;

PL6.E3A0      #006=OUT$CHLIST File=OUT$TEMPLAT.:E05TSI                           WED 07/30/97 04:16 Page:108
--  Include file information  --

   OU_PERR_C.:E05TOU  is referenced.
   XU_MACRO_C.:E05TOU  is referenced.
   OUT_SUBS_C.:E05TOU  is referenced.
   B$JIT_C.:E05TOU  was found in the system file and is never referenced.
   CP_6_C.:E05TOU  was found in the system file and is never referenced.
      No diagnostics issued in procedure OUT$CHLIST.
PL6.E3A0      #006=OUT$CHLIST File=OUT$TEMPLAT.:E05TSI                           WED 07/30/97 04:16 Page:109

 **** Variables and constants ****

  ****  Auto variables  ****

  ****  Scalars and arrays  ****
OctLoc.c.b A Datatyp(siz) R M Lvl/name                 OctLoc.c.b A Datatyp(siz) R M Lvl/name

     3-0-0/w PTR         r     1 @NODE_PTR$                 4-0-0/w PTR         r     1 @TYPE_IND
     6-0-0/w SBIN        r     1 I                         *0-0-0/w PTR         r     1 NODE_PTR$
    11-0-0/w PTR         r     1 PTR$                       5-0-0/w SBIN        r     1 TPOSN_HERE
    *0-0-0/w SBIN        r     1 TYPE_IND

  ****  BASED and DCB variables  ****

  ****  Scalars and arrays  ****
OctLoc.c.b A Datatyp(siz) R M Lvl/name                 OctLoc.c.b A Datatyp(siz) R M Lvl/name

     0-0-0/w STRC(144)   r     1 OU$OUTBLK                  0-0-0/w ASTR(153)   r     1 OU$OUTSYM


   Procedure OUT$CHLIST requires 138 words for executable code.
   Procedure OUT$CHLIST requires 12 words of local(AUTO) storage.
PL6.E3A0      #006=OUT$CHLIST File=OUT$TEMPLAT.:E05TSI                           WED 07/30/97 04:16 Page:110
          *** CROSS REFERENCE LISTING ***
**     DENOTES     IDENTIFIER DEFINITION
<<                 IDENTIFIER'S VALUE SET
>>                 IDENTIFIER'S VALUE USED
<>                 IDENTIFIER SET AND/OR USED
--                 IDENTIFIER REFERENCED
PL6.E3A0      #006=OUT$CHLIST File=OUT$TEMPLAT.:E05TSI                           WED 07/30/97 04:16 Page:111
          MINI XREF LISTING

I
      3386**DCL      3420<<DOINDEX  3422>>CALL     3439<<DOINDEX  3441>>CALL
NODE_PTR$
        27**DCL        22--PROC     3398>>ASSIGN   3454>>CALL
OU$OUTBLK.CODE
      3338**DCL      3400>>DOCASE
OU$OUTBLK.NSUBLKS
      3342**DCL      3420>>DOINDEX  3439>>DOINDEX
OU$OUTBLK.SUBLK$
      3363**DCL      3398>>ASSIGN   3398>>ASSIGN   3412<>CALL     3422<>CALL     3431<>CALL     3441<>CALL
      3454<>CALL
OU$OUTSYM.COUNT
      3315**DCL      3318--IMP-SIZ
OUT$ADDBYTE
      3377**DCL-ENT  3445--CALL     3448--CALL
OUT$ADDTKN
      3376**DCL-ENT  3396--CALL
OUT$ERROR
      3374**DCL-ENT  3410--CALL     3418--CALL     3429--CALL     3437--CALL
OUT$MAKESEL
      3378**DCL-ENT  3412--CALL     3422--CALL     3431--CALL     3441--CALL
OUT$STUFCNT
      3379**DCL-ENT  3452--CALL
OUT$TEMPL
      3380**DCL-ENT  3454--CALL
PTR$
      3389**DCL      3398<<ASSIGN   3400>>DOCASE   3412>>CALL     3420>>DOINDEX  3422>>CALL     3431>>CALL
      3439>>DOINDEX  3441>>CALL
TPOSN_HERE
      3385**DCL      3396<>CALL     3452<>CALL
TYPE_IND
        28**DCL        22--PROC     3408>>IF       3416>>IF       3427>>IF       3435>>IF

PL6.E3A0      #007=OUT$ERROR File=OUT$TEMPLAT.:E05TSI                            WED 07/30/97 04:16 Page:112
      635        1        /*M* OUT$ERROR Handles errors during template building */
      636        2        /*T***********************************************************/
      637        3        /*T*                                                         */
      638        4        /*T* Copyright (c) Bull HN Information Systems Inc., 1997    */
      639        5        /*T*                                                         */
      640        6        /*T***********************************************************/
      641        7        %SET LISTSUB='1'B;
      642        8
      643        9
      644       10        /*
      645       11          ###  #   # #####   #   ##### ####  ####   ###  ####
      646       12         # # # #   #   #    ###  #     #   # #   # # # # #   #
      647       13         # # # #   #   #   # #   #     #   # #   # # # # #   #
      648       14         #  ## #   #   #    ###  ####  ####  ####  #  ## ####
      649       15         #   # #   #   #     # # #     # #   # #   #   # # #
      650       16         #   # #   #   #    ###  #     #  #  #  #  #   # #  #
      651       17          ###   ###    #     #   ##### #   # #   #  ###  #   #
      652       18                                                                          */
      653       19
      654       20        OUT$ERROR: PROC (ERROR_CODE_);
      655       21
      656       22    1   DCL ERROR_CODE_ UBIN;
      657       23                                           /*
      658       24                                                INCLUDES
      659       25                                                                          */
      660       26        %INCLUDE OUT_DATA_R;
      661       41
      662       42
      663       43    1        OUT_ERRORED = ERROR_CODE_;
      664       44    1        UNWIND TO OUT_UNWIND;
      665       45                                                /**/
      666       46
      667       47    1   END OUT$ERROR;
      668       48        %EOD;

PL6.E3A0      #007=OUT$ERROR File=OUT$TEMPLAT.:E05TSI                            WED 07/30/97 04:16 Page:113
--  Include file information  --

   OUT_DATA_R.:E05TOU  cannot be made into a system file and is referenced.
   B$JIT_C.:E05TOU  was found in the system file and is never referenced.
   CP_6_C.:E05TOU  was found in the system file and is never referenced.
      No diagnostics issued in procedure OUT$ERROR.

   Procedure OUT$ERROR requires 8 words for executable code.
   Procedure OUT$ERROR requires 4 words of local(AUTO) storage.

PL6.E3A0      #007=OUT$ERROR File=OUT$TEMPLAT.:E05TSI                            WED 07/30/97 04:16 Page:114

 Object Unit name= OUT$ERROR                                  File name= OUT$TEMPLAT.:E05TOU
 UTS= JUL 30 '97 04:16:58.92 WED                              Compiler= PL-6/E31         Sev=      00
 SharedLib= :SHARED_SYSTEM                                    Alt SharedLib=


    ****  Control sections  ****

 Sect   Type Bound  Init  Size OctSiz  Section name(segment info)
    0   Proc  even  none     8     10  OUT$ERROR

    ****  Entry defs  ****

                              Check   Calling
                             calling  sequence
  Sect OctLoc Primary Altret sequence   type   Parms  Name
     0      0   yes            yes      Std        1  OUT$ERROR

  ****  Entry refs  ****

         Check        Calling
        calling       sequence
Altret sequence SRef   type   Args  Name
                       nStd      0 X66_AUTO_1
                       nStd      0 X66_AUNWIND

  ****  Data refs  ****

  Flags:  r = read only, s = secondary
Flgs Name                             Flgs Name                             Flgs Name
     OUT_MID                               OUT_UNWIND                            OUT_ERRORED
PL6.E3A0      #007=OUT$ERROR File=OUT$TEMPLAT.:E05TSI                            WED 07/30/97 04:16 Page:115


      635        1        /*M* OUT$ERROR Handles errors during template building */
      636        2        /*T***********************************************************/
      637        3        /*T*                                                         */
      638        4        /*T* Copyright (c) Bull HN Information Systems Inc., 1997    */
      639        5        /*T*                                                         */
      640        6        /*T***********************************************************/
      641        7        %SET LISTSUB='1'B;
      642        8
      643        9
      644       10        /*
      645       11          ###  #   # #####   #   ##### ####  ####   ###  ####
      646       12         # # # #   #   #    ###  #     #   # #   # # # # #   #
      647       13         # # # #   #   #   # #   #     #   # #   # # # # #   #
      648       14         #  ## #   #   #    ###  ####  ####  ####  #  ## ####
      649       15         #   # #   #   #     # # #     # #   # #   #   # # #
      650       16         #   # #   #   #    ###  #     #  #  #  #  #   # #  #
      651       17          ###   ###    #     #   ##### #   # #   #  ###  #   #
      652       18                                                                          */
      653       19
      654       20        OUT$ERROR: PROC (ERROR_CODE_);

     20  0 000000   000000 700200 xent  OUT$ERROR    TSX0  ! X66_AUTO_1
         0 000001   000004 000001                    ZERO    4,1

      655       21
      656       22    1   DCL ERROR_CODE_ UBIN;
      657       23                                           /*
      658       24                                                INCLUDES
      659       25                                                                          */
      660       26        %INCLUDE OUT_DATA_R;
      661       41
      662       42
      663       43    1        OUT_ERRORED = ERROR_CODE_;

     43  0 000002   200003 470500                    LDP0    @ERROR_CODE_,,AUTO
         0 000003   000000 235100                    LDA     0,,PR0
PL6.E3A0      #007=OUT$ERROR File=OUT$TEMPLAT.:E05TSI                            WED 07/30/97 04:16 Page:116
         0 000004   000000 755000 xsym               STA     OUT_ERRORED

      664       44    1        UNWIND TO OUT_UNWIND;

     44  0 000005   000000 237200 xsym               LDAQ  ! OUT_UNWIND
         0 000006   000000 700200 xent               TSX0  ! X66_AUNWIND
         0 000007   000000 000200                    ZERO    0,128
      665       45                                                /**/
      666       46
      667       47    1   END OUT$ERROR;
      668       48        %EOD;

PL6.E3A0      #007=OUT$ERROR File=OUT$TEMPLAT.:E05TSI                            WED 07/30/97 04:16 Page:117
--  Include file information  --

   OUT_DATA_R.:E05TOU  cannot be made into a system file and is referenced.
   B$JIT_C.:E05TOU  was found in the system file and is never referenced.
   CP_6_C.:E05TOU  was found in the system file and is never referenced.
      No diagnostics issued in procedure OUT$ERROR.
PL6.E3A0      #007=OUT$ERROR File=OUT$TEMPLAT.:E05TSI                            WED 07/30/97 04:16 Page:118

 **** Variables and constants ****

  ****  Auto variables  ****

  ****  Scalars and arrays  ****
OctLoc.c.b A Datatyp(siz) R M Lvl/name                 OctLoc.c.b A Datatyp(siz) R M Lvl/name

     3-0-0/w PTR         r     1 @ERROR_CODE_              *0-0-0/w UBIN        r     1 ERROR_CODE_

  ****  SYMREF variables  ****

  ****  Scalars and arrays  ****
OctLoc.c.b A Datatyp(siz) R M Lvl/name                 OctLoc.c.b A Datatyp(siz) R M Lvl/name

     0-0-0/w SBIN        r     1 OUT_ERRORED                0-0-0/d REMB        r     1 OUT_UNWIND


   Procedure OUT$ERROR requires 8 words for executable code.
   Procedure OUT$ERROR requires 4 words of local(AUTO) storage.
PL6.E3A0      #007=OUT$ERROR File=OUT$TEMPLAT.:E05TSI                            WED 07/30/97 04:16 Page:119
          *** CROSS REFERENCE LISTING ***
**     DENOTES     IDENTIFIER DEFINITION
<<                 IDENTIFIER'S VALUE SET
>>                 IDENTIFIER'S VALUE USED
<>                 IDENTIFIER SET AND/OR USED
--                 IDENTIFIER REFERENCED
PL6.E3A0      #007=OUT$ERROR File=OUT$TEMPLAT.:E05TSI                            WED 07/30/97 04:16 Page:120
          MINI XREF LISTING

ERROR_CODE_
        22**DCL        20--PROC       43>>ASSIGN
OUT_ERRORED
        40**DCL        43<<ASSIGN
OUT_MID
        35**DCL        36--REDEF
OUT_UNWIND
        40**DCL        44>>UNWIND
OUT_VALUE.CHAR4
        39**DCL        39--REDEF      39--REDEF

PL6.E3A0      #008=OUT$IMAG File=OUT$TEMPLAT.:E05TSI                             WED 07/30/97 04:17 Page:121
      669        1        /*M* OUT$IMAG process formatting image occurrence */
      670        2        /*T***********************************************************/
      671        3        /*T*                                                         */
      672        4        /*T* Copyright (c) Bull HN Information Systems Inc., 1997    */
      673        5        /*T*                                                         */
      674        6        /*T***********************************************************/
      675        7
      676        8        %SET LISTSUB='1'B;
      677        9
      678       10        /*
      679       11          ###  #   # #####   #    ###  #   #  ###   ###
      680       12         # # # #   #   #    ###    #   ## ## #   # #   #
      681       13         # # # #   #   #   # #     #   # # # #   # #
      682       14         #  ## #   #   #    ###    #   #   # ##### #
      683       15         #   # #   #   #     # #   #   #   # #   # #  ##
      684       16         #   # #   #   #    ###    #   #   # #   # #   #
      685       17          ###   ###    #     #    ###  #   # #   #  ###
      686       18                                                                          */
      687       19
      688       20        OUT$IMAG: PROC (NODE_PTR$, TYPE_IND);
      689       21
      690       22                                           /*
      691       23                                                ARGUMENTS
      692       24                                                                          */
      693       25    1   DCL NODE_PTR$ PTR;
      694       26    1   DCL TYPE_IND SBIN WORD;
      695       27
      696       28                                           /*
      697       29                                                INCLUDES
      698       30                                                                          */
      699       31        %INCLUDE OUT_SUBS_C;
      700      154        %INCLUDE XU_MACRO_C;
      701     3260        %INCLUDE OU_PERR_C;
      702     3281
      703     3282             %PARSE$SYM     (NAME=OU$OUTSYM,
      704     3283                                 STCLASS="BASED");
      705     3321             %PARSE$OUT     (NAME=OU$OUTBLK,
PL6.E3A0      #008=OUT$IMAG File=OUT$TEMPLAT.:E05TSI                             WED 07/30/97 04:17 Page:122
      706     3322                                 STCLASS="BASED");
      707     3367
      708     3368                                           /*
      709     3369                                                EXTERNALS
      710     3370                                                                          */
      711     3371    1   DCL OUT$ERROR ENTRY(1);
      712     3372    1   DCL OUT$ADDSTR ENTRY(2);
      713     3373
      714     3374                                           /*
      715     3375                                                LOCALS
      716     3376                                                                          */
      717     3377    1   DCL TPOSN_HERE SBIN;
      718     3378    1   DCL I SBIN;
      719     3379    1   DCL J SBIN;
      720     3380        %LIST;
      721     3381             %OUT_IMAGE;
              3382    1   DCL 1 OUT_IMAGE AUTO,
              3383    1        2 TYP_ UBIN BYTE UNAL,
              3384    1        2 PARAM_ UBIN BYTE UNAL,
              3385    1        2 FORMAT_ BIT(9) UNAL,
              3386    1        2 * BIT(3) UNAL,
              3387    1        2 DISPW_ UBIN(6) UNAL,
              3388    1        2 JUST_ BIT(1) UNAL,
              3389    1        2 * BIT(2) UNAL,
              3390    1        2 FIELDW_ UBIN(6) UNAL;
      722     3392        %PLIST;
      723     3393    1   DCL PTR$ PTR;
      724     3394    1   DCL SPTR$ PTR;
      725     3395
      726     3396        %EJECT;
PL6.E3A0      #008=OUT$IMAG File=OUT$TEMPLAT.:E05TSI                             WED 07/30/97 04:17 Page:123
      727     3397        /*
      728     3398                  Begin  O U T $ I M A G  main
      729     3399                                                                          */
      730     3400
      731     3401    1        OUT_IMAGE = '0'B;
      732     3402    1        TYPE_IND = 0 /* NONE */;
      733     3403
      734     3404    1        OUT_IMAGE.TYP_ = 2 /* TYP_PARAM# */;
      735     3405
      736     3406    1        PTR$ = NODE_PTR$ -> OU$OUTBLK.SUBLK$(0)
      737     3407    1             -> OU$OUTBLK.SUBLK$(0);
      738     3408
      739     3409    2        DO CASE (PTR$ -> OU$OUTBLK.CODE);
      740     3410
      741     3411    2        CASE (92 /* T_ITEMNO# */);
      742     3412    2           CALL CHARBIN (J, PTR$ -> OU$OUTSYM.TEXT);
      743     3413
      744     3414        /*E*      ERROR: OUT-E$OUT_PARM2BIG
      745     3415                  MESSAGE: Parameter number too large.
      746     3416                                                                          */
      747     3417    2           IF J >= 450 /* DEVICE# */
      748     3418    2           THEN
      749     3419    2                CALL OUT$ERROR (%E$OUT_PARM2BIG);
      750     3420
      751     3421    2           OUT_IMAGE.PARAM_ = J;
      752     3422
      753     3423
      754     3424    2        CASE (93 /* T_ITEMSPEC# */);
      755     3425
      756     3426    3           DO CASE (PTR$ -> OU$OUTBLK.SUBLK$(0) -> OU$OUTBLK.CODE);
      757     3427
      758     3428    3           CASE (101 /* T_SYSID# */);
      759     3429    3              OUT_IMAGE.PARAM_ = 450 /* DEVICE# */ + 1 /* $SYSID */;
      760     3430
      761     3431    3           CASE (102 /* T_DEVICE# */);
      762     3432    3              OUT_IMAGE.PARAM_ = 450 /* DEVICE# */ + 0 /* $DEVICE */;
      763     3433
PL6.E3A0      #008=OUT$IMAG File=OUT$TEMPLAT.:E05TSI                             WED 07/30/97 04:17 Page:124
      764     3434    3           CASE (104 /* T_PROMPT# */);
      765     3435    3              OUT_IMAGE.PARAM_ = 450 /* DEVICE# */ + 2 /* $PROMPT */;
      766     3436
      767     3437    3           CASE (ELSE);
      768     3438        /*E*      ERROR: OUT-E$OUT_NOPARAM
      769     3439                  MESSAGE: Illegal or out of range parameter selected.
      770     3440                                                                          */
      771     3441    3              CALL OUT$ERROR (%E$OUT_NOPARAM);
      772     3442
      773     3443    3           END;                            /* DO CASE PER SPECIAL ITEM */
      774     3444    2        END;                               /* DO CASE NODE.CODE */
      775     3445
      776     3446    1        PTR$ = NODE_PTR$ -> OU$OUTBLK.SUBLK$(1)
      777     3447    1             -> OU$OUTBLK.SUBLK$(0);
      778     3448
      779     3449    2        DO CASE (PTR$ -> OU$OUTBLK.CODE);
      780     3450
      781     3451    2        CASE (41 /* T_DECFORMAT# */);
      782     3452
      783     3453    2           OUT_IMAGE.FORMAT_ = OUT_IMAGE.FORMAT_ | '040'O /* IMG_DECN# */;
      784     3454    2           TYPE_IND = 1 /* NUMERIC */;
      785     3455
      786     3456    2        CASE (42 /* T_HEXFORMAT# */);
      787     3457
      788     3458    2           OUT_IMAGE.FORMAT_ = OUT_IMAGE.FORMAT_ | '010'O /* IMG_HEXN# */;
      789     3459    2           TYPE_IND = 1 /* NUMERIC */;
      790     3460
      791     3461    2        CASE (43 /* T_OCTFORMAT# */);
      792     3462
      793     3463    2           OUT_IMAGE.FORMAT_ = OUT_IMAGE.FORMAT_ | '020'O /* IMG_OCTN# */;
      794     3464    2           TYPE_IND = 1 /* NUMERIC */;
      795     3465
      796     3466    2        CASE (44 /* T_WSNFORMAT# */);
      797     3467
      798     3468    2           OUT_IMAGE.FORMAT_ = OUT_IMAGE.FORMAT_ | '004'O /* IMG_TWSN# */;
      799     3469    2           TYPE_IND = 2 /* TEXTYPE */;
      800     3470
PL6.E3A0      #008=OUT$IMAG File=OUT$TEMPLAT.:E05TSI                             WED 07/30/97 04:17 Page:125
      801     3471    2        CASE (45 /* T_JITFORMAT# */);
      802     3472
      803     3473    2           OUT_IMAGE.FORMAT_ = OUT_IMAGE.FORMAT_ | '002'O /* IMG_JITE# */;
      804     3474    2           TYPE_IND = 2 /* TEXTYPE */;
      805     3475
      806     3476    2        CASE (40 /* T_TEXTFORMAT# */);
      807     3477
      808     3478    2           OUT_IMAGE.FORMAT_ = OUT_IMAGE.FORMAT_ | '400'O /* IMG_TEXT# */;
      809     3479    2           TYPE_IND = 2 /* TEXTYPE */;
      810     3480
      811     3481    2        END;                               /* DO CASE FORMATTYPE */
      812     3482
      813     3483
      814     3484    1        IF PTR$ -> OU$OUTBLK.NSUBLKS > 0
      815     3485    1        THEN
      816     3486    2        DO I = 0 TO (PTR$ -> OU$OUTBLK.NSUBLKS - 1);
      817     3487    3             DO CASE (PTR$ -> OU$OUTBLK.SUBLK$(I)-> OU$OUTBLK.CODE);
      818     3488
      819     3489    3             CASE (190 /* T_KLBLANK# */);
      820     3490
      821     3491    3                OUT_IMAGE.FORMAT_ = OUT_IMAGE.FORMAT_ | '200'O /* IMG_LDGB# */;
      822     3492
      823     3493    3             CASE (191 /* T_KTBLANK# */);
      824     3494
      825     3495    3                OUT_IMAGE.FORMAT_ = OUT_IMAGE.FORMAT_ | '100'O /* IMG_TRLB# */;
      826     3496
      827     3497    3             CASE (50 /* T_FORMATWIDTH# */);
      828     3498
      829     3499    3                CALL CHARBIN (J,
      830     3500    3                     PTR$ -> OU$OUTBLK.SUBLK$(I) -> OU$OUTSYM.TEXT);
      831     3501
      832     3502        /*E*      ERROR: OUT-E$OUT_FWIDTH
      833     3503                  MESSAGE: A format width was specified which was too large.
      834     3504                                                                          */
      835     3505    3                IF J > 63 /* UBIN6_MAX# */
      836     3506    3                THEN
      837     3507    3                     CALL OUT$ERROR (%E$OUT_FWIDTH);
PL6.E3A0      #008=OUT$IMAG File=OUT$TEMPLAT.:E05TSI                             WED 07/30/97 04:17 Page:126
      838     3508
      839     3509    3                OUT_IMAGE.DISPW_ = J;
      840     3510
      841     3511    3             CASE (ELSE);
      842     3512
      843     3513    3             END;                          /* DO CASE LD/TRL BLANK */
      844     3514    2           END;                            /* DO I */
      845     3515
      846     3516
      847     3517    1        IF NODE_PTR$ -> OU$OUTBLK.NSUBLKS > 2
      848     3518    1        THEN
      849     3519    2        DO;
      850     3520    2             PTR$ = NODE_PTR$ -> OU$OUTBLK.SUBLK$(2);
      851     3521
      852     3522    3             DO I = 0 TO (PTR$ -> OU$OUTBLK.NSUBLKS - 1);
      853     3523
      854     3524    4                  DO CASE (PTR$ -> OU$OUTBLK.SUBLK$(I) -> OU$OUTBLK.CODE);
      855     3525
      856     3526    4                  CASE (52 /* T_FIELDWIDTH# */);
      857     3527
      858     3528    4                     CALL CHARBIN (J,
      859     3529    4                          PTR$ -> OU$OUTBLK.SUBLK$(I) -> OU$OUTSYM.TEXT);
      860     3530
      861     3531    4                     IF J > 63 /* UBIN6_MAX# */
      862     3532    4                     THEN
      863     3533    4                          CALL OUT$ERROR (%E$OUT_FWIDTH);
      864     3534
      865     3535    4                     OUT_IMAGE.FIELDW_ = J;
      866     3536
      867     3537    4                  CASE (53 /* T_RIGHT# */);
      868     3538
      869     3539    4                     OUT_IMAGE.JUST_ = '1'B /* IMG_RIGH# */;
      870     3540
      871     3541    4                  CASE (54 /* T_LEFT# */);
      872     3542
      873     3543    4                     OUT_IMAGE.JUST_ = '0'B /* IMG_LEFT# */;
      874     3544
PL6.E3A0      #008=OUT$IMAG File=OUT$TEMPLAT.:E05TSI                             WED 07/30/97 04:17 Page:127
      875     3545    4                  END;                     /* DO CASE SUBCODE */
      876     3546    3                END;                       /* DO I */
      877     3547    2           END;                            /* DO IF OPTNL FIELD NODE */
      878     3548
      879     3549    1        CALL OUT$ADDSTR (OUT_IMAGE, SIZEC(OUT_IMAGE));
      880     3550
      881     3551    1        RETURN;
      882     3552    1   END OUT$IMAG;
      883     3553        %EOD;

PL6.E3A0      #008=OUT$IMAG File=OUT$TEMPLAT.:E05TSI                             WED 07/30/97 04:17 Page:128
--  Include file information  --

   OU_PERR_C.:E05TOU  is referenced.
   XU_MACRO_C.:E05TOU  is referenced.
   OUT_SUBS_C.:E05TOU  is referenced.
   B$JIT_C.:E05TOU  was found in the system file and is never referenced.
   CP_6_C.:E05TOU  was found in the system file and is never referenced.
      No diagnostics issued in procedure OUT$IMAG.

   Procedure OUT$IMAG requires 391 words for executable code.
   Procedure OUT$IMAG requires 14 words of local(AUTO) storage.

PL6.E3A0      #008=OUT$IMAG File=OUT$TEMPLAT.:E05TSI                             WED 07/30/97 04:17 Page:129

 Object Unit name= OUT$IMAG                                   File name= OUT$TEMPLAT.:E05TOU
 UTS= JUL 30 '97 04:17:03.52 WED                              Compiler= PL-6/E31         Sev=      00
 SharedLib= :SHARED_SYSTEM                                    Alt SharedLib=


    ****  Control sections  ****

 Sect   Type Bound  Init  Size OctSiz  Section name(segment info)
    0   Proc  even  none   391    607  OUT$IMAG
    1  RoData even  none     3      3  OUT$IMAG

    ****  Entry defs  ****

                              Check   Calling
                             calling  sequence
  Sect OctLoc Primary Altret sequence   type   Parms  Name
     0      0   yes            yes      Std        2  OUT$IMAG

  ****  Entry refs  ****

         Check        Calling
        calling       sequence
Altret sequence SRef   type   Args  Name
         yes           Std       1 OUT$ERROR
         yes           Std       2 OUT$ADDSTR
                       nStd      0 X66_AUTO_2
                       Std       0 B_CONSPOOL_D
                       nStd      0 X66_ARET

  ****  Data refs  ****

  Flags:  r = read only, s = secondary
Flgs Name                             Flgs Name                             Flgs Name
     B_VECTNIL
PL6.E3A0      #008=OUT$IMAG File=OUT$TEMPLAT.:E05TSI                             WED 07/30/97 04:17 Page:130

  ****  Segment refs  ****

  Flags:  r = read only, s = secondary
Flgs Name                             Flgs Name                             Flgs Name
     ISSID
PL6.E3A0      #008=OUT$IMAG File=OUT$TEMPLAT.:E05TSI                             WED 07/30/97 04:17 Page:131


      669        1        /*M* OUT$IMAG process formatting image occurrence */
      670        2        /*T***********************************************************/
      671        3        /*T*                                                         */
      672        4        /*T* Copyright (c) Bull HN Information Systems Inc., 1997    */
      673        5        /*T*                                                         */
      674        6        /*T***********************************************************/
      675        7
      676        8        %SET LISTSUB='1'B;
      677        9
      678       10        /*
      679       11          ###  #   # #####   #    ###  #   #  ###   ###
      680       12         # # # #   #   #    ###    #   ## ## #   # #   #
      681       13         # # # #   #   #   # #     #   # # # #   # #
      682       14         #  ## #   #   #    ###    #   #   # ##### #
      683       15         #   # #   #   #     # #   #   #   # #   # #  ##
      684       16         #   # #   #   #    ###    #   #   # #   # #   #
      685       17          ###   ###    #     #    ###  #   # #   #  ###
      686       18                                                                          */
      687       19
      688       20        OUT$IMAG: PROC (NODE_PTR$, TYPE_IND);

     20  0 000000   000000 700200 xent  OUT$IMAG     TSX0  ! X66_AUTO_2
         0 000001   000016 000002                    ZERO    14,2

      689       21
      690       22                                           /*
      691       23                                                ARGUMENTS
      692       24                                                                          */
      693       25    1   DCL NODE_PTR$ PTR;
      694       26    1   DCL TYPE_IND SBIN WORD;
      695       27
      696       28                                           /*
      697       29                                                INCLUDES
      698       30                                                                          */
      699       31        %INCLUDE OUT_SUBS_C;
      700      154        %INCLUDE XU_MACRO_C;
PL6.E3A0      #008=OUT$IMAG File=OUT$TEMPLAT.:E05TSI                             WED 07/30/97 04:17 Page:132
      701     3260        %INCLUDE OU_PERR_C;
      702     3281
      703     3282             %PARSE$SYM     (NAME=OU$OUTSYM,
      704     3283                                 STCLASS="BASED");
      705     3321             %PARSE$OUT     (NAME=OU$OUTBLK,
      706     3322                                 STCLASS="BASED");
      707     3367
      708     3368                                           /*
      709     3369                                                EXTERNALS
      710     3370                                                                          */
      711     3371    1   DCL OUT$ERROR ENTRY(1);
      712     3372    1   DCL OUT$ADDSTR ENTRY(2);
      713     3373
      714     3374                                           /*
      715     3375                                                LOCALS
      716     3376                                                                          */
      717     3377    1   DCL TPOSN_HERE SBIN;
      718     3378    1   DCL I SBIN;
      719     3379    1   DCL J SBIN;
      720     3380        %LIST;
      721     3381             %OUT_IMAGE;
              3382    1   DCL 1 OUT_IMAGE AUTO,
              3383    1        2 TYP_ UBIN BYTE UNAL,
              3384    1        2 PARAM_ UBIN BYTE UNAL,
              3385    1        2 FORMAT_ BIT(9) UNAL,
              3386    1        2 * BIT(3) UNAL,
              3387    1        2 DISPW_ UBIN(6) UNAL,
              3388    1        2 JUST_ BIT(1) UNAL,
              3389    1        2 * BIT(2) UNAL,
              3390    1        2 FIELDW_ UBIN(6) UNAL;
      722     3392        %PLIST;
      723     3393    1   DCL PTR$ PTR;
      724     3394    1   DCL SPTR$ PTR;
      725     3395
      726     3396        %EJECT;
PL6.E3A0      #008=OUT$IMAG File=OUT$TEMPLAT.:E05TSI                             WED 07/30/97 04:17 Page:133
      727     3397        /*
      728     3398                  Begin  O U T $ I M A G  main
      729     3399                                                                          */
      730     3400
      731     3401    1        OUT_IMAGE = '0'B;

   3401  0 000002   200010 450100                    STZ     OUT_IMAGE,,AUTO
         0 000003   200011 450100                    STZ     OUT_IMAGE+1,,AUTO

      732     3402    1        TYPE_IND = 0 /* NONE */;

   3402  0 000004   200004 470500                    LDP0    @TYPE_IND,,AUTO
         0 000005   000000 450100                    STZ     0,,PR0

      733     3403
      734     3404    1        OUT_IMAGE.TYP_ = 2 /* TYP_PARAM# */;

   3404  0 000006   002000 236003                    LDQ     1024,DU
         0 000007   200010 552140                    STBQ    OUT_IMAGE,'40'O,AUTO

      735     3405
      736     3406    1        PTR$ = NODE_PTR$ -> OU$OUTBLK.SUBLK$(0)

   3406  0 000010   200003 471500                    LDP1    @NODE_PTR$,,AUTO
         0 000011   100000 473500                    LDP3    0,,PR1
         0 000012   300003 474500                    LDP4    3,,PR3
         0 000013   400003 236100                    LDQ     3,,PR4
         0 000014   200012 756100                    STQ     PTR$,,AUTO

      737     3407    1             -> OU$OUTBLK.SUBLK$(0);
      738     3408
      739     3409    2        DO CASE (PTR$ -> OU$OUTBLK.CODE);

   3409  0 000015   200012 475500                    LDP5    PTR$,,AUTO
         0 000016   500000 236100                    LDQ     0,,PR5
         0 000017   777777 376007                    ANQ     -1,DL
         0 000020   000134 136007                    SBLQ    92,DL
PL6.E3A0      #008=OUT$IMAG File=OUT$TEMPLAT.:E05TSI                             WED 07/30/97 04:17 Page:134
         0 000021   000002 116007                    CMPQ    2,DL
         0 000022   000024 602006 0                  TNC     s:3409+7,QL
         0 000023   000077 710000 0                  TRA     s:3446
         0 000024   000026 710000 0                  TRA     s:3412
         0 000025   000047 710000 0                  TRA     s:3426

      740     3410
      741     3411    2        CASE (92 /* T_ITEMNO# */);

      742     3412    2           CALL CHARBIN (J, PTR$ -> OU$OUTSYM.TEXT);

   3412  0 000026   500004 236100                    LDQ     4,,PR5
         0 000027   000033 772000                    QRL     27
         0 000030   000000 620006                    EAX0    0,QL
         0 000031   000100 305540                    DTB
         0 000032   500004 230010                    NDSC9   4,,PR5                   cn=1,s=nosgn,sf=0,n=*X0
         0 000033   200007 000004                    NDSC9   J,,AUTO                  cn=0,s=lsgnf,sf=0,n=4

      743     3413
      744     3414        /*E*      ERROR: OUT-E$OUT_PARM2BIG
      745     3415                  MESSAGE: Parameter number too large.
      746     3416                                                                          */
      747     3417    2           IF J >= 450 /* DEVICE# */

   3417  0 000034   200007 235100                    LDA     J,,AUTO
         0 000035   000702 115007                    CMPA    450,DL
         0 000036   000043 604000 0                  TMI     s:3421

      748     3418    2           THEN
      749     3419    2                CALL OUT$ERROR (%E$OUT_PARM2BIG);

   3419  0 000037   000000 630400 1                  EPPR0   0
         0 000040   000017 631400 xsym               EPPR1   B_VECTNIL+15
         0 000041   000000 701000 xent               TSX1    OUT$ERROR
         0 000042   000000 011000                    NOP     0

      750     3420
PL6.E3A0      #008=OUT$IMAG File=OUT$TEMPLAT.:E05TSI                             WED 07/30/97 04:17 Page:135
      751     3421    2           OUT_IMAGE.PARAM_ = J;

   3421  0 000043   200007 236100                    LDQ     J,,AUTO
         0 000044   000022 736000                    QLS     18
         0 000045   200010 552120                    STBQ    OUT_IMAGE,'20'O,AUTO
         0 000046   000077 710000 0                  TRA     s:3446

      752     3422
      753     3423
      754     3424    2        CASE (93 /* T_ITEMSPEC# */);

      755     3425
      756     3426    3           DO CASE (PTR$ -> OU$OUTBLK.SUBLK$(0) -> OU$OUTBLK.CODE);

   3426  0 000047   500003 476500                    LDP6    3,,PR5
         0 000050   600000 236100                    LDQ     0,,PR6
         0 000051   777777 376007                    ANQ     -1,DL
         0 000052   000145 136007                    SBLQ    101,DL
         0 000053   000004 116007                    CMPQ    4,DL
         0 000054   000056 602006 0                  TNC     s:3426+7,QL
         0 000055   000073 710000 0                  TRA     s:3441
         0 000056   000062 710000 0                  TRA     s:3429
         0 000057   000065 710000 0                  TRA     s:3432
         0 000060   000073 710000 0                  TRA     s:3441
         0 000061   000070 710000 0                  TRA     s:3435

      757     3427
      758     3428    3           CASE (101 /* T_SYSID# */);

      759     3429    3              OUT_IMAGE.PARAM_ = 450 /* DEVICE# */ + 1 /* $SYSID */;

   3429  0 000062   000703 236003                    LDQ     451,DU
         0 000063   200010 552120                    STBQ    OUT_IMAGE,'20'O,AUTO
         0 000064   000077 710000 0                  TRA     s:3446

      760     3430
      761     3431    3           CASE (102 /* T_DEVICE# */);
PL6.E3A0      #008=OUT$IMAG File=OUT$TEMPLAT.:E05TSI                             WED 07/30/97 04:17 Page:136

      762     3432    3              OUT_IMAGE.PARAM_ = 450 /* DEVICE# */ + 0 /* $DEVICE */;

   3432  0 000065   000702 236003                    LDQ     450,DU
         0 000066   200010 552120                    STBQ    OUT_IMAGE,'20'O,AUTO
         0 000067   000077 710000 0                  TRA     s:3446

      763     3433
      764     3434    3           CASE (104 /* T_PROMPT# */);

      765     3435    3              OUT_IMAGE.PARAM_ = 450 /* DEVICE# */ + 2 /* $PROMPT */;

   3435  0 000070   000704 236003                    LDQ     452,DU
         0 000071   200010 552120                    STBQ    OUT_IMAGE,'20'O,AUTO
         0 000072   000077 710000 0                  TRA     s:3446

      766     3436
      767     3437    3           CASE (ELSE);

      768     3438        /*E*      ERROR: OUT-E$OUT_NOPARAM
      769     3439                  MESSAGE: Illegal or out of range parameter selected.
      770     3440                                                                          */
      771     3441    3              CALL OUT$ERROR (%E$OUT_NOPARAM);

   3441  0 000073   000001 630400 1                  EPPR0   1
         0 000074   000017 631400 xsym               EPPR1   B_VECTNIL+15
         0 000075   000000 701000 xent               TSX1    OUT$ERROR
         0 000076   000000 011000                    NOP     0

      772     3442
      773     3443    3           END;                            /* DO CASE PER SPECIAL ITEM */

      774     3444    2        END;                               /* DO CASE NODE.CODE */

      775     3445
      776     3446    1        PTR$ = NODE_PTR$ -> OU$OUTBLK.SUBLK$(1)

PL6.E3A0      #008=OUT$IMAG File=OUT$TEMPLAT.:E05TSI                             WED 07/30/97 04:17 Page:137
   3446  0 000077   200003 470500                    LDP0    @NODE_PTR$,,AUTO
         0 000100   000000 471500                    LDP1    0,,PR0
         0 000101   100004 473500                    LDP3    4,,PR1
         0 000102   300003 236100                    LDQ     3,,PR3
         0 000103   200012 756100                    STQ     PTR$,,AUTO

      777     3447    1             -> OU$OUTBLK.SUBLK$(0);
      778     3448
      779     3449    2        DO CASE (PTR$ -> OU$OUTBLK.CODE);

   3449  0 000104   200012 474500                    LDP4    PTR$,,AUTO
         0 000105   400000 236100                    LDQ     0,,PR4
         0 000106   777777 376007                    ANQ     -1,DL
         0 000107   000050 136007                    SBLQ    40,DL
         0 000110   000006 116007                    CMPQ    6,DL
         0 000111   000113 602006 0                  TNC     s:3449+7,QL
         0 000112   000214 710000 0                  TRA     s:3484
         0 000113   000203 710000 0                  TRA     s:3478
         0 000114   000121 710000 0                  TRA     s:3453
         0 000115   000133 710000 0                  TRA     s:3458
         0 000116   000145 710000 0                  TRA     s:3463
         0 000117   000157 710000 0                  TRA     s:3468
         0 000120   000171 710000 0                  TRA     s:3473

      780     3450
      781     3451    2        CASE (41 /* T_DECFORMAT# */);

      782     3452
      783     3453    2           OUT_IMAGE.FORMAT_ = OUT_IMAGE.FORMAT_ | '040'O /* IMG_DECN# */;

   3453  0 000121   200010 236100                    LDQ     OUT_IMAGE,,AUTO
         0 000122   000022 736000                    QLS     18
         0 000123   777000 376003                    ANQ     -512,DU
         0 000124   040000 276003                    ORQ     16384,DU
         0 000125   000022 772000                    QRL     18
         0 000126   200010 552110                    STBQ    OUT_IMAGE,'10'O,AUTO

PL6.E3A0      #008=OUT$IMAG File=OUT$TEMPLAT.:E05TSI                             WED 07/30/97 04:17 Page:138
      784     3454    2           TYPE_IND = 1 /* NUMERIC */;

   3454  0 000127   000001 235007                    LDA     1,DL
         0 000130   200004 471500                    LDP1    @TYPE_IND,,AUTO
         0 000131   100000 755100                    STA     0,,PR1
         0 000132   000214 710000 0                  TRA     s:3484

      785     3455
      786     3456    2        CASE (42 /* T_HEXFORMAT# */);

      787     3457
      788     3458    2           OUT_IMAGE.FORMAT_ = OUT_IMAGE.FORMAT_ | '010'O /* IMG_HEXN# */;

   3458  0 000133   200010 236100                    LDQ     OUT_IMAGE,,AUTO
         0 000134   000022 736000                    QLS     18
         0 000135   777000 376003                    ANQ     -512,DU
         0 000136   010000 276003                    ORQ     4096,DU
         0 000137   000022 772000                    QRL     18
         0 000140   200010 552110                    STBQ    OUT_IMAGE,'10'O,AUTO

      789     3459    2           TYPE_IND = 1 /* NUMERIC */;

   3459  0 000141   000001 235007                    LDA     1,DL
         0 000142   200004 471500                    LDP1    @TYPE_IND,,AUTO
         0 000143   100000 755100                    STA     0,,PR1
         0 000144   000214 710000 0                  TRA     s:3484

      790     3460
      791     3461    2        CASE (43 /* T_OCTFORMAT# */);

      792     3462
      793     3463    2           OUT_IMAGE.FORMAT_ = OUT_IMAGE.FORMAT_ | '020'O /* IMG_OCTN# */;

   3463  0 000145   200010 236100                    LDQ     OUT_IMAGE,,AUTO
         0 000146   000022 736000                    QLS     18
         0 000147   777000 376003                    ANQ     -512,DU
         0 000150   020000 276003                    ORQ     8192,DU
PL6.E3A0      #008=OUT$IMAG File=OUT$TEMPLAT.:E05TSI                             WED 07/30/97 04:17 Page:139
         0 000151   000022 772000                    QRL     18
         0 000152   200010 552110                    STBQ    OUT_IMAGE,'10'O,AUTO

      794     3464    2           TYPE_IND = 1 /* NUMERIC */;

   3464  0 000153   000001 235007                    LDA     1,DL
         0 000154   200004 471500                    LDP1    @TYPE_IND,,AUTO
         0 000155   100000 755100                    STA     0,,PR1
         0 000156   000214 710000 0                  TRA     s:3484

      795     3465
      796     3466    2        CASE (44 /* T_WSNFORMAT# */);

      797     3467
      798     3468    2           OUT_IMAGE.FORMAT_ = OUT_IMAGE.FORMAT_ | '004'O /* IMG_TWSN# */;

   3468  0 000157   200010 236100                    LDQ     OUT_IMAGE,,AUTO
         0 000160   000022 736000                    QLS     18
         0 000161   777000 376003                    ANQ     -512,DU
         0 000162   004000 276003                    ORQ     2048,DU
         0 000163   000022 772000                    QRL     18
         0 000164   200010 552110                    STBQ    OUT_IMAGE,'10'O,AUTO

      799     3469    2           TYPE_IND = 2 /* TEXTYPE */;

   3469  0 000165   000002 235007                    LDA     2,DL
         0 000166   200004 471500                    LDP1    @TYPE_IND,,AUTO
         0 000167   100000 755100                    STA     0,,PR1
         0 000170   000214 710000 0                  TRA     s:3484

      800     3470
      801     3471    2        CASE (45 /* T_JITFORMAT# */);

      802     3472
      803     3473    2           OUT_IMAGE.FORMAT_ = OUT_IMAGE.FORMAT_ | '002'O /* IMG_JITE# */;

   3473  0 000171   200010 236100                    LDQ     OUT_IMAGE,,AUTO
PL6.E3A0      #008=OUT$IMAG File=OUT$TEMPLAT.:E05TSI                             WED 07/30/97 04:17 Page:140
         0 000172   000022 736000                    QLS     18
         0 000173   777000 376003                    ANQ     -512,DU
         0 000174   002000 276003                    ORQ     1024,DU
         0 000175   000022 772000                    QRL     18
         0 000176   200010 552110                    STBQ    OUT_IMAGE,'10'O,AUTO

      804     3474    2           TYPE_IND = 2 /* TEXTYPE */;

   3474  0 000177   000002 235007                    LDA     2,DL
         0 000200   200004 471500                    LDP1    @TYPE_IND,,AUTO
         0 000201   100000 755100                    STA     0,,PR1
         0 000202   000214 710000 0                  TRA     s:3484

      805     3475
      806     3476    2        CASE (40 /* T_TEXTFORMAT# */);

      807     3477
      808     3478    2           OUT_IMAGE.FORMAT_ = OUT_IMAGE.FORMAT_ | '400'O /* IMG_TEXT# */;

   3478  0 000203   200010 236100                    LDQ     OUT_IMAGE,,AUTO
         0 000204   000022 736000                    QLS     18
         0 000205   777000 376003                    ANQ     -512,DU
         0 000206   400000 276003                    ORQ     -131072,DU
         0 000207   000022 772000                    QRL     18
         0 000210   200010 552110                    STBQ    OUT_IMAGE,'10'O,AUTO

      809     3479    2           TYPE_IND = 2 /* TEXTYPE */;

   3479  0 000211   000002 235007                    LDA     2,DL
         0 000212   200004 471500                    LDP1    @TYPE_IND,,AUTO
         0 000213   100000 755100                    STA     0,,PR1

      810     3480
      811     3481    2        END;                               /* DO CASE FORMATTYPE */

      812     3482
      813     3483
PL6.E3A0      #008=OUT$IMAG File=OUT$TEMPLAT.:E05TSI                             WED 07/30/97 04:17 Page:141
      814     3484    1        IF PTR$ -> OU$OUTBLK.NSUBLKS > 0

   3484  0 000214   400001 220100                    LDX0    1,,PR4
         0 000215   000513 600000 0                  TZE     s:3517

      815     3485    1        THEN
      816     3486    2        DO I = 0 TO (PTR$ -> OU$OUTBLK.NSUBLKS - 1);

   3486  0 000216   200006 450100                    STZ     I,,AUTO
         0 000217   000506 710000 0                  TRA     s:3514+1

      817     3487    3             DO CASE (PTR$ -> OU$OUTBLK.SUBLK$(I)-> OU$OUTBLK.CODE);

   3487  0 000220   200012 470500                    LDP0    PTR$,,AUTO
         0 000221   200006 720100                    LXL0    I,,AUTO
         0 000222   000003 471510                    LDP1    3,X0,PR0
         0 000223   100000 236100                    LDQ     0,,PR1
         0 000224   777777 376007                    ANQ     -1,DL
         0 000225   000062 136007                    SBLQ    50,DL
         0 000226   000216 116007                    CMPQ    142,DL
         0 000227   000231 602006 0                  TNC     s:3487+9,QL
         0 000230   000505 710000 0                  TRA     s:3514
         0 000231   000465 710000 0                  TRA     s:3499
         0 000232   000505 710000 0                  TRA     s:3514
         0 000233   000505 710000 0                  TRA     s:3514
         0 000234   000505 710000 0                  TRA     s:3514
         0 000235   000505 710000 0                  TRA     s:3514
         0 000236   000505 710000 0                  TRA     s:3514
         0 000237   000505 710000 0                  TRA     s:3514
         0 000240   000505 710000 0                  TRA     s:3514
         0 000241   000505 710000 0                  TRA     s:3514
         0 000242   000505 710000 0                  TRA     s:3514
         0 000243   000505 710000 0                  TRA     s:3514
         0 000244   000505 710000 0                  TRA     s:3514
         0 000245   000505 710000 0                  TRA     s:3514
         0 000246   000505 710000 0                  TRA     s:3514
         0 000247   000505 710000 0                  TRA     s:3514
PL6.E3A0      #008=OUT$IMAG File=OUT$TEMPLAT.:E05TSI                             WED 07/30/97 04:17 Page:142
         0 000250   000505 710000 0                  TRA     s:3514
         0 000251   000505 710000 0                  TRA     s:3514
         0 000252   000505 710000 0                  TRA     s:3514
         0 000253   000505 710000 0                  TRA     s:3514
         0 000254   000505 710000 0                  TRA     s:3514
         0 000255   000505 710000 0                  TRA     s:3514
         0 000256   000505 710000 0                  TRA     s:3514
         0 000257   000505 710000 0                  TRA     s:3514
         0 000260   000505 710000 0                  TRA     s:3514
         0 000261   000505 710000 0                  TRA     s:3514
         0 000262   000505 710000 0                  TRA     s:3514
         0 000263   000505 710000 0                  TRA     s:3514
         0 000264   000505 710000 0                  TRA     s:3514
         0 000265   000505 710000 0                  TRA     s:3514
         0 000266   000505 710000 0                  TRA     s:3514
         0 000267   000505 710000 0                  TRA     s:3514
         0 000270   000505 710000 0                  TRA     s:3514
         0 000271   000505 710000 0                  TRA     s:3514
         0 000272   000505 710000 0                  TRA     s:3514
         0 000273   000505 710000 0                  TRA     s:3514
         0 000274   000505 710000 0                  TRA     s:3514
         0 000275   000505 710000 0                  TRA     s:3514
         0 000276   000505 710000 0                  TRA     s:3514
         0 000277   000505 710000 0                  TRA     s:3514
         0 000300   000505 710000 0                  TRA     s:3514
         0 000301   000505 710000 0                  TRA     s:3514
         0 000302   000505 710000 0                  TRA     s:3514
         0 000303   000505 710000 0                  TRA     s:3514
         0 000304   000505 710000 0                  TRA     s:3514
         0 000305   000505 710000 0                  TRA     s:3514
         0 000306   000505 710000 0                  TRA     s:3514
         0 000307   000505 710000 0                  TRA     s:3514
         0 000310   000505 710000 0                  TRA     s:3514
         0 000311   000505 710000 0                  TRA     s:3514
         0 000312   000505 710000 0                  TRA     s:3514
         0 000313   000505 710000 0                  TRA     s:3514
         0 000314   000505 710000 0                  TRA     s:3514
PL6.E3A0      #008=OUT$IMAG File=OUT$TEMPLAT.:E05TSI                             WED 07/30/97 04:17 Page:143
         0 000315   000505 710000 0                  TRA     s:3514
         0 000316   000505 710000 0                  TRA     s:3514
         0 000317   000505 710000 0                  TRA     s:3514
         0 000320   000505 710000 0                  TRA     s:3514
         0 000321   000505 710000 0                  TRA     s:3514
         0 000322   000505 710000 0                  TRA     s:3514
         0 000323   000505 710000 0                  TRA     s:3514
         0 000324   000505 710000 0                  TRA     s:3514
         0 000325   000505 710000 0                  TRA     s:3514
         0 000326   000505 710000 0                  TRA     s:3514
         0 000327   000505 710000 0                  TRA     s:3514
         0 000330   000505 710000 0                  TRA     s:3514
         0 000331   000505 710000 0                  TRA     s:3514
         0 000332   000505 710000 0                  TRA     s:3514
         0 000333   000505 710000 0                  TRA     s:3514
         0 000334   000505 710000 0                  TRA     s:3514
         0 000335   000505 710000 0                  TRA     s:3514
         0 000336   000505 710000 0                  TRA     s:3514
         0 000337   000505 710000 0                  TRA     s:3514
         0 000340   000505 710000 0                  TRA     s:3514
         0 000341   000505 710000 0                  TRA     s:3514
         0 000342   000505 710000 0                  TRA     s:3514
         0 000343   000505 710000 0                  TRA     s:3514
         0 000344   000505 710000 0                  TRA     s:3514
         0 000345   000505 710000 0                  TRA     s:3514
         0 000346   000505 710000 0                  TRA     s:3514
         0 000347   000505 710000 0                  TRA     s:3514
         0 000350   000505 710000 0                  TRA     s:3514
         0 000351   000505 710000 0                  TRA     s:3514
         0 000352   000505 710000 0                  TRA     s:3514
         0 000353   000505 710000 0                  TRA     s:3514
         0 000354   000505 710000 0                  TRA     s:3514
         0 000355   000505 710000 0                  TRA     s:3514
         0 000356   000505 710000 0                  TRA     s:3514
         0 000357   000505 710000 0                  TRA     s:3514
         0 000360   000505 710000 0                  TRA     s:3514
         0 000361   000505 710000 0                  TRA     s:3514
PL6.E3A0      #008=OUT$IMAG File=OUT$TEMPLAT.:E05TSI                             WED 07/30/97 04:17 Page:144
         0 000362   000505 710000 0                  TRA     s:3514
         0 000363   000505 710000 0                  TRA     s:3514
         0 000364   000505 710000 0                  TRA     s:3514
         0 000365   000505 710000 0                  TRA     s:3514
         0 000366   000505 710000 0                  TRA     s:3514
         0 000367   000505 710000 0                  TRA     s:3514
         0 000370   000505 710000 0                  TRA     s:3514
         0 000371   000505 710000 0                  TRA     s:3514
         0 000372   000505 710000 0                  TRA     s:3514
         0 000373   000505 710000 0                  TRA     s:3514
         0 000374   000505 710000 0                  TRA     s:3514
         0 000375   000505 710000 0                  TRA     s:3514
         0 000376   000505 710000 0                  TRA     s:3514
         0 000377   000505 710000 0                  TRA     s:3514
         0 000400   000505 710000 0                  TRA     s:3514
         0 000401   000505 710000 0                  TRA     s:3514
         0 000402   000505 710000 0                  TRA     s:3514
         0 000403   000505 710000 0                  TRA     s:3514
         0 000404   000505 710000 0                  TRA     s:3514
         0 000405   000505 710000 0                  TRA     s:3514
         0 000406   000505 710000 0                  TRA     s:3514
         0 000407   000505 710000 0                  TRA     s:3514
         0 000410   000505 710000 0                  TRA     s:3514
         0 000411   000505 710000 0                  TRA     s:3514
         0 000412   000505 710000 0                  TRA     s:3514
         0 000413   000505 710000 0                  TRA     s:3514
         0 000414   000505 710000 0                  TRA     s:3514
         0 000415   000505 710000 0                  TRA     s:3514
         0 000416   000505 710000 0                  TRA     s:3514
         0 000417   000505 710000 0                  TRA     s:3514
         0 000420   000505 710000 0                  TRA     s:3514
         0 000421   000505 710000 0                  TRA     s:3514
         0 000422   000505 710000 0                  TRA     s:3514
         0 000423   000505 710000 0                  TRA     s:3514
         0 000424   000505 710000 0                  TRA     s:3514
         0 000425   000505 710000 0                  TRA     s:3514
         0 000426   000505 710000 0                  TRA     s:3514
PL6.E3A0      #008=OUT$IMAG File=OUT$TEMPLAT.:E05TSI                             WED 07/30/97 04:17 Page:145
         0 000427   000505 710000 0                  TRA     s:3514
         0 000430   000505 710000 0                  TRA     s:3514
         0 000431   000505 710000 0                  TRA     s:3514
         0 000432   000505 710000 0                  TRA     s:3514
         0 000433   000505 710000 0                  TRA     s:3514
         0 000434   000505 710000 0                  TRA     s:3514
         0 000435   000505 710000 0                  TRA     s:3514
         0 000436   000505 710000 0                  TRA     s:3514
         0 000437   000505 710000 0                  TRA     s:3514
         0 000440   000505 710000 0                  TRA     s:3514
         0 000441   000505 710000 0                  TRA     s:3514
         0 000442   000505 710000 0                  TRA     s:3514
         0 000443   000505 710000 0                  TRA     s:3514
         0 000444   000505 710000 0                  TRA     s:3514
         0 000445   000447 710000 0                  TRA     s:3491
         0 000446   000456 710000 0                  TRA     s:3495

      818     3488
      819     3489    3             CASE (190 /* T_KLBLANK# */);

      820     3490
      821     3491    3                OUT_IMAGE.FORMAT_ = OUT_IMAGE.FORMAT_ | '200'O /* IMG_LDGB# */;

   3491  0 000447   200010 236100                    LDQ     OUT_IMAGE,,AUTO
         0 000450   000022 736000                    QLS     18
         0 000451   777000 376003                    ANQ     -512,DU
         0 000452   200000 276003                    ORQ     65536,DU
         0 000453   000022 772000                    QRL     18
         0 000454   200010 552110                    STBQ    OUT_IMAGE,'10'O,AUTO
         0 000455   000505 710000 0                  TRA     s:3514

      822     3492
      823     3493    3             CASE (191 /* T_KTBLANK# */);

      824     3494
      825     3495    3                OUT_IMAGE.FORMAT_ = OUT_IMAGE.FORMAT_ | '100'O /* IMG_TRLB# */;

PL6.E3A0      #008=OUT$IMAG File=OUT$TEMPLAT.:E05TSI                             WED 07/30/97 04:17 Page:146
   3495  0 000456   200010 236100                    LDQ     OUT_IMAGE,,AUTO
         0 000457   000022 736000                    QLS     18
         0 000460   777000 376003                    ANQ     -512,DU
         0 000461   100000 276003                    ORQ     32768,DU
         0 000462   000022 772000                    QRL     18
         0 000463   200010 552110                    STBQ    OUT_IMAGE,'10'O,AUTO
         0 000464   000505 710000 0                  TRA     s:3514

      826     3496
      827     3497    3             CASE (50 /* T_FORMATWIDTH# */);

      828     3498
      829     3499    3                CALL CHARBIN (J,

   3499  0 000465   100004 236100                    LDQ     4,,PR1
         0 000466   000033 772000                    QRL     27
         0 000467   000000 621006                    EAX1    0,QL
         0 000470   000100 305540                    DTB
         0 000471   100004 230011                    NDSC9   4,,PR1                   cn=1,s=nosgn,sf=0,n=*X1
         0 000472   200007 000004                    NDSC9   J,,AUTO                  cn=0,s=lsgnf,sf=0,n=4

      830     3500    3                     PTR$ -> OU$OUTBLK.SUBLK$(I) -> OU$OUTSYM.TEXT);
      831     3501
      832     3502        /*E*      ERROR: OUT-E$OUT_FWIDTH
      833     3503                  MESSAGE: A format width was specified which was too large.
      834     3504                                                                          */
      835     3505    3                IF J > 63 /* UBIN6_MAX# */

   3505  0 000473   200007 235100                    LDA     J,,AUTO
         0 000474   000077 115007                    CMPA    63,DL
         0 000475   000502 604400 0                  TMOZ    s:3509

      836     3506    3                THEN
      837     3507    3                     CALL OUT$ERROR (%E$OUT_FWIDTH);

   3507  0 000476   000002 630400 1                  EPPR0   2
         0 000477   000017 631400 xsym               EPPR1   B_VECTNIL+15
PL6.E3A0      #008=OUT$IMAG File=OUT$TEMPLAT.:E05TSI                             WED 07/30/97 04:17 Page:147
         0 000500   000000 701000 xent               TSX1    OUT$ERROR
         0 000501   000000 011000                    NOP     0

      838     3508
      839     3509    3                OUT_IMAGE.DISPW_ = J;

   3509  0 000502   200007 236100                    LDQ     J,,AUTO
         0 000503   200010 752101                    STCQ    OUT_IMAGE,'01'O,AUTO
         0 000504   000505 710000 0                  TRA     s:3514

      840     3510
      841     3511    3             CASE (ELSE);

      842     3512
      843     3513    3             END;                          /* DO CASE LD/TRL BLANK */

      844     3514    2           END;                            /* DO I */

   3514  0 000505   200006 054100                    AOS     I,,AUTO
         0 000506   200012 470500                    LDP0    PTR$,,AUTO
         0 000507   000001 236100                    LDQ     1,,PR0
         0 000510   000022 772000                    QRL     18
         0 000511   200006 116100                    CMPQ    I,,AUTO
         0 000512   000220 605400 0                  TPNZ    s:3487

      845     3515
      846     3516
      847     3517    1        IF NODE_PTR$ -> OU$OUTBLK.NSUBLKS > 2

   3517  0 000513   200003 470500                    LDP0    @NODE_PTR$,,AUTO
         0 000514   000000 471500                    LDP1    0,,PR0
         0 000515   100001 220100                    LDX0    1,,PR1
         0 000516   000003 100003                    CMPX0   3,DU
         0 000517   000576 602000 0                  TNC     s:3549

      848     3518    1        THEN
      849     3519    2        DO;
PL6.E3A0      #008=OUT$IMAG File=OUT$TEMPLAT.:E05TSI                             WED 07/30/97 04:17 Page:148

      850     3520    2             PTR$ = NODE_PTR$ -> OU$OUTBLK.SUBLK$(2);

   3520  0 000520   100005 236100                    LDQ     5,,PR1
         0 000521   200012 756100                    STQ     PTR$,,AUTO

      851     3521
      852     3522    3             DO I = 0 TO (PTR$ -> OU$OUTBLK.NSUBLKS - 1);

   3522  0 000522   200006 450100                    STZ     I,,AUTO
         0 000523   000571 710000 0                  TRA     s:3546+1

      853     3523
      854     3524    4                  DO CASE (PTR$ -> OU$OUTBLK.SUBLK$(I) -> OU$OUTBLK.CODE);

   3524  0 000524   200012 470500                    LDP0    PTR$,,AUTO
         0 000525   200006 720100                    LXL0    I,,AUTO
         0 000526   000003 471510                    LDP1    3,X0,PR0
         0 000527   100000 236100                    LDQ     0,,PR1
         0 000530   777777 376007                    ANQ     -1,DL
         0 000531   000064 136007                    SBLQ    52,DL
         0 000532   000003 116007                    CMPQ    3,DL
         0 000533   000535 602006 0                  TNC     s:3524+9,QL
         0 000534   000570 710000 0                  TRA     s:3546
         0 000535   000540 710000 0                  TRA     s:3528
         0 000536   000563 710000 0                  TRA     s:3539
         0 000537   000566 710000 0                  TRA     s:3543

      855     3525
      856     3526    4                  CASE (52 /* T_FIELDWIDTH# */);

      857     3527
      858     3528    4                     CALL CHARBIN (J,

   3528  0 000540   100004 236100                    LDQ     4,,PR1
         0 000541   000033 772000                    QRL     27
         0 000542   000000 621006                    EAX1    0,QL
PL6.E3A0      #008=OUT$IMAG File=OUT$TEMPLAT.:E05TSI                             WED 07/30/97 04:17 Page:149
         0 000543   000100 305540                    DTB
         0 000544   100004 230011                    NDSC9   4,,PR1                   cn=1,s=nosgn,sf=0,n=*X1
         0 000545   200007 000004                    NDSC9   J,,AUTO                  cn=0,s=lsgnf,sf=0,n=4

      859     3529    4                          PTR$ -> OU$OUTBLK.SUBLK$(I) -> OU$OUTSYM.TEXT);
      860     3530
      861     3531    4                     IF J > 63 /* UBIN6_MAX# */

   3531  0 000546   200007 235100                    LDA     J,,AUTO
         0 000547   000077 115007                    CMPA    63,DL
         0 000550   000555 604400 0                  TMOZ    s:3535

      862     3532    4                     THEN
      863     3533    4                          CALL OUT$ERROR (%E$OUT_FWIDTH);

   3533  0 000551   000002 630400 1                  EPPR0   2
         0 000552   000017 631400 xsym               EPPR1   B_VECTNIL+15
         0 000553   000000 701000 xent               TSX1    OUT$ERROR
         0 000554   000000 011000                    NOP     0

      864     3534
      865     3535    4                     OUT_IMAGE.FIELDW_ = J;

   3535  0 000555   200007 236100                    LDQ     J,,AUTO
         0 000556   000033 736000                    QLS     27
         0 000557   200011 676100                    ERQ     OUT_IMAGE+1,,AUTO
         0 000560   077000 376003                    ANQ     32256,DU
         0 000561   200011 656100                    ERSQ    OUT_IMAGE+1,,AUTO
         0 000562   000570 710000 0                  TRA     s:3546

      866     3536
      867     3537    4                  CASE (53 /* T_RIGHT# */);

      868     3538
      869     3539    4                     OUT_IMAGE.JUST_ = '1'B /* IMG_RIGH# */;

   3539  0 000563   400000 236003                    LDQ     -131072,DU
PL6.E3A0      #008=OUT$IMAG File=OUT$TEMPLAT.:E05TSI                             WED 07/30/97 04:17 Page:150
         0 000564   200011 256100                    ORSQ    OUT_IMAGE+1,,AUTO
         0 000565   000570 710000 0                  TRA     s:3546

      870     3540
      871     3541    4                  CASE (54 /* T_LEFT# */);

      872     3542
      873     3543    4                     OUT_IMAGE.JUST_ = '0'B /* IMG_LEFT# */;

   3543  0 000566   000031 236000 xsym               LDQ     B_VECTNIL+25
         0 000567   200011 356100                    ANSQ    OUT_IMAGE+1,,AUTO

      874     3544
      875     3545    4                  END;                     /* DO CASE SUBCODE */

      876     3546    3                END;                       /* DO I */

   3546  0 000570   200006 054100                    AOS     I,,AUTO
         0 000571   200012 470500                    LDP0    PTR$,,AUTO
         0 000572   000001 236100                    LDQ     1,,PR0
         0 000573   000022 772000                    QRL     18
         0 000574   200006 116100                    CMPQ    I,,AUTO
         0 000575   000524 605400 0                  TPNZ    s:3524

      877     3547    2           END;                            /* DO IF OPTNL FIELD NODE */

      878     3548
      879     3549    1        CALL OUT$ADDSTR (OUT_IMAGE, SIZEC(OUT_IMAGE));

   3549  0 000576   000001 236000 1                  LDQ     1
         0 000577   200015 756100                    STQ     PTR$+3,,AUTO
         0 000600   200010 630500                    EPPR0   OUT_IMAGE,,AUTO
         0 000601   200014 450500                    STP0    PTR$+2,,AUTO
         0 000602   200014 630500                    EPPR0   PTR$+2,,AUTO
         0 000603   000020 631400 xsym               EPPR1   B_VECTNIL+16
         0 000604   000000 701000 xent               TSX1    OUT$ADDSTR
         0 000605   000000 011000                    NOP     0
PL6.E3A0      #008=OUT$IMAG File=OUT$TEMPLAT.:E05TSI                             WED 07/30/97 04:17 Page:151

      880     3550
      881     3551    1        RETURN;

   3551  0 000606   000000 702200 xent               TSX2  ! X66_ARET
      882     3552    1   END OUT$IMAG;
      883     3553        %EOD;

PL6.E3A0      #008=OUT$IMAG File=OUT$TEMPLAT.:E05TSI                             WED 07/30/97 04:17 Page:152
--  Include file information  --

   OU_PERR_C.:E05TOU  is referenced.
   XU_MACRO_C.:E05TOU  is referenced.
   OUT_SUBS_C.:E05TOU  is referenced.
   B$JIT_C.:E05TOU  was found in the system file and is never referenced.
   CP_6_C.:E05TOU  was found in the system file and is never referenced.
      No diagnostics issued in procedure OUT$IMAG.
PL6.E3A0      #008=OUT$IMAG File=OUT$TEMPLAT.:E05TSI                             WED 07/30/97 04:17 Page:153

 **** Variables and constants ****

  ****  Auto variables  ****

  ****  Scalars and arrays  ****
OctLoc.c.b A Datatyp(siz) R M Lvl/name                 OctLoc.c.b A Datatyp(siz) R M Lvl/name

     3-0-0/w PTR         r     1 @NODE_PTR$                 4-0-0/w PTR         r     1 @TYPE_IND
     6-0-0/w SBIN        r     1 I                          7-0-0/w SBIN        r     1 J
    *0-0-0/w PTR         r     1 NODE_PTR$                 10-0-0/b STRC(45)    r     1 OUT_IMAGE
    12-0-0/w PTR         r     1 PTR$                      *0-0-0/w SBIN        r     1 TYPE_IND

  ****  BASED and DCB variables  ****

  ****  Scalars and arrays  ****
OctLoc.c.b A Datatyp(siz) R M Lvl/name                 OctLoc.c.b A Datatyp(siz) R M Lvl/name

     0-0-0/w STRC(144)   r     1 OU$OUTBLK                  0-0-0/w ASTR(153)   r     1 OU$OUTSYM


   Procedure OUT$IMAG requires 391 words for executable code.
   Procedure OUT$IMAG requires 14 words of local(AUTO) storage.
PL6.E3A0      #008=OUT$IMAG File=OUT$TEMPLAT.:E05TSI                             WED 07/30/97 04:17 Page:154
          *** CROSS REFERENCE LISTING ***
**     DENOTES     IDENTIFIER DEFINITION
<<                 IDENTIFIER'S VALUE SET
>>                 IDENTIFIER'S VALUE USED
<>                 IDENTIFIER SET AND/OR USED
--                 IDENTIFIER REFERENCED
PL6.E3A0      #008=OUT$IMAG File=OUT$TEMPLAT.:E05TSI                             WED 07/30/97 04:17 Page:155
          MINI XREF LISTING

I
      3378**DCL      3486<<DOINDEX  3487>>DOCASE   3499>>CALLBLT  3499>>CALLBLT  3522<<DOINDEX  3524>>DOCASE
      3528>>CALLBLT  3528>>CALLBLT
J
      3379**DCL      3412<<CALLBLT  3417>>IF       3421>>ASSIGN   3499<<CALLBLT  3505>>IF       3509>>ASSIGN
      3528<<CALLBLT  3531>>IF       3535>>ASSIGN
NODE_PTR$
        25**DCL        20--PROC     3406>>ASSIGN   3446>>ASSIGN   3517>>IF       3520>>ASSIGN
OU$OUTBLK.CODE
      3336**DCL      3409>>DOCASE   3426>>DOCASE   3449>>DOCASE   3487>>DOCASE   3524>>DOCASE
OU$OUTBLK.NSUBLKS
      3340**DCL      3484>>IF       3486>>DOINDEX  3517>>IF       3522>>DOINDEX
OU$OUTBLK.SUBLK$
      3361**DCL      3406>>ASSIGN   3406>>ASSIGN   3426>>DOCASE   3446>>ASSIGN   3446>>ASSIGN   3487>>DOCASE
      3499>>CALLBLT  3499>>CALLBLT  3520>>ASSIGN   3524>>DOCASE   3528>>CALLBLT  3528>>CALLBLT
OU$OUTSYM.COUNT
      3313**DCL      3316--IMP-SIZ  3412>>CALLBLT  3499>>CALLBLT  3528>>CALLBLT
OU$OUTSYM.TEXT
      3316**DCL      3412>>CALLBLT  3499>>CALLBLT  3528>>CALLBLT
OUT$ADDSTR
      3372**DCL-ENT  3549--CALL
OUT$ERROR
      3371**DCL-ENT  3419--CALL     3441--CALL     3507--CALL     3533--CALL
OUT_IMAGE
      3382**DCL      3401<<ASSIGN   3549<>CALL     3549--CALL
OUT_IMAGE.DISPW_
      3387**DCL      3509<<ASSIGN
OUT_IMAGE.FIELDW_
      3390**DCL      3535<<ASSIGN
OUT_IMAGE.FORMAT_
      3385**DCL      3453<<ASSIGN   3453>>ASSIGN   3458<<ASSIGN   3458>>ASSIGN   3463<<ASSIGN   3463>>ASSIGN
      3468<<ASSIGN   3468>>ASSIGN   3473<<ASSIGN   3473>>ASSIGN   3478<<ASSIGN   3478>>ASSIGN   3491<<ASSIGN
PL6.E3A0      #008=OUT$IMAG File=OUT$TEMPLAT.:E05TSI                             WED 07/30/97 04:17 Page:156
      3491>>ASSIGN   3495<<ASSIGN   3495>>ASSIGN
OUT_IMAGE.JUST_
      3388**DCL      3539<<ASSIGN   3543<<ASSIGN
OUT_IMAGE.PARAM_
      3384**DCL      3421<<ASSIGN   3429<<ASSIGN   3432<<ASSIGN   3435<<ASSIGN
OUT_IMAGE.TYP_
      3383**DCL      3404<<ASSIGN
PTR$
      3393**DCL      3406<<ASSIGN   3409>>DOCASE   3412>>CALLBLT  3412>>CALLBLT  3426>>DOCASE   3446<<ASSIGN
      3449>>DOCASE   3484>>IF       3486>>DOINDEX  3487>>DOCASE   3499>>CALLBLT  3499>>CALLBLT  3520<<ASSIGN
      3522>>DOINDEX  3524>>DOCASE   3528>>CALLBLT  3528>>CALLBLT
TYPE_IND
        26**DCL        20--PROC     3402<<ASSIGN   3454<<ASSIGN   3459<<ASSIGN   3464<<ASSIGN   3469<<ASSIGN
      3474<<ASSIGN   3479<<ASSIGN

PL6.E3A0      #009=OUT$INTRIN File=OUT$TEMPLAT.:E05TSI                           WED 07/30/97 04:17 Page:157
      884        1        /*M* OUT$INTRIN Process and insert a TEMPLAT intrinsic */
      885        2        /*T***********************************************************/
      886        3        /*T*                                                         */
      887        4        /*T* Copyright (c) Bull HN Information Systems Inc., 1997    */
      888        5        /*T*                                                         */
      889        6        /*T***********************************************************/
      890        7
      891        8
      892        9        %SET LISTSUB='1'B;
      893       10
      894       11        /*
      895       12          ###  #   # #####   #    ###  #   # ##### ####   ###  #   #
      896       13         # # # #   #   #    ###    #   #   #   #   #   #   #   #   #
      897       14         # # # #   #   #   # #     #   ##  #   #   #   #   #   ##  #
      898       15         #  ## #   #   #    ###    #   # # #   #   ####    #   # # #
      899       16         #   # #   #   #     # #   #   #  ##   #   # #     #   #  ##
      900       17         #   # #   #   #    ###    #   #   #   #   #  #    #   #   #
      901       18          ###   ###    #     #    ###  #   #   #   #   #  ###  #   #
      902       19                                                                          */
      903       20
      904       21        OUT$INTRIN: PROC (NODE_PTR$);
      905       22
      906       23                                           /*
      907       24                                                ARGUMENTS
      908       25                                                                          */
      909       26    1   DCL NODE_PTR$ PTR;
      910       27
      911       28                                           /*
      912       29                                                INCLUDES
      913       30                                                                          */
      914       31        %INCLUDE OUT_SUBS_C;
      915      154
      916      155        %LIST;
      917      156
      918      157             %OUT_IMAGE;
               158    1   DCL 1 OUT_IMAGE AUTO,
               159    1        2 TYP_ UBIN BYTE UNAL,
PL6.E3A0      #009=OUT$INTRIN File=OUT$TEMPLAT.:E05TSI                           WED 07/30/97 04:17 Page:158
               160    1        2 PARAM_ UBIN BYTE UNAL,
               161    1        2 FORMAT_ BIT(9) UNAL,
               162    1        2 * BIT(3) UNAL,
               163    1        2 DISPW_ UBIN(6) UNAL,
               164    1        2 JUST_ BIT(1) UNAL,
               165    1        2 * BIT(2) UNAL,
               166    1        2 FIELDW_ UBIN(6) UNAL;
      919      168
      920      169        %PLIST;
      921      170
      922      171        %INCLUDE OU_PERR_C;
      923      192        %INCLUDE XU_MACRO_C;
      924     3298
      925     3299             %PARSE$SYM     (NAME=OU$OUTSYM,
      926     3300                                 STCLASS="BASED");
      927     3338             %PARSE$OUT     (NAME=OU$OUTBLK,
      928     3339                                 STCLASS="BASED");
      929     3384
      930     3385                                           /*
      931     3386                                                EXTERNALS
      932     3387                                                                           */
      933     3388    1   DCL OUT$ADDSTR ENTRY(2);
      934     3389    1   DCL OUT$ERROR ENTRY(1);
      935     3390
      936     3391                                           /*
      937     3392                                                LOCALS
      938     3393                                                                          */
      939     3394    1   DCL I SBIN;
      940     3395    1   DCL J SBIN;
      941     3396    1   DCL K SBIN;
      942     3397    1   DCL PTR$ PTR;
      943     3398
      944     3399        %EJECT;
PL6.E3A0      #009=OUT$INTRIN File=OUT$TEMPLAT.:E05TSI                           WED 07/30/97 04:17 Page:159
      945     3400        /*
      946     3401             Begin   O U T $ I N T R I N   main
      947     3402                                                                          */
      948     3403
      949     3404    1        PTR$ = NODE_PTR$ -> OU$OUTBLK.SUBLK$(0);
      950     3405
      951     3406    2        DO CASE (PTR$ -> OU$OUTBLK.CODE);
      952     3407
      953     3408    2        CASE (61 /* T_TIMEINTRINS# */);
      954     3409    2           CALL CHARBIN (J, PTR$ -> OU$OUTBLK.SUBLK$(0) ->
      955     3410    2                OU$OUTSYM.TEXT);
      956     3411
      957     3412        /*E*      ERROR: OUT-E$OUT_BADTIM
      958     3413                  MESSAGE: The time intrinsic selected was not legal.
      959     3414                                                                          */
      960     3415
      961     3416    2           IF J < 1 /* MIN_FOR_MIN# */
      962     3417    2                OR
      963     3418    2                J > 5 /* MAX_FOR_MIN# */
      964     3419    2           THEN
      965     3420    2                CALL OUT$ERROR (%E$OUT_BADTIM);
      966     3421
      967     3422    2           OUT_IMAGE.PARAM_ = J + 3 /* $MINUTES */ + 450 /* DEVICE# */;
      968     3423
      969     3424    2           OUT_IMAGE.FORMAT_ = '400'O /* IMG_TEXT# */;
      970     3425
      971     3426    2        CASE (63 /* T_CLASSINTRINS# */);
      972     3427    2           CALL CHARBIN (J, PTR$ -> OU$OUTBLK.SUBLK$(0) ->
      973     3428    2                OU$OUTSYM.TEXT);
      974     3429
      975     3430        /*E*      ERROR: OUT-E$OUT_BADCLA
      976     3431                  MESSAGE: The class intrinsic selected was not legal.
      977     3432                                                                          */
      978     3433
      979     3434    2           IF J < 0 /* MIN_FOR_CLA# */
      980     3435    2                OR
      981     3436    2                J > 9 /* MAX_FOR_CLA# */
PL6.E3A0      #009=OUT$INTRIN File=OUT$TEMPLAT.:E05TSI                           WED 07/30/97 04:17 Page:160
      982     3437    2           THEN
      983     3438    2                CALL OUT$ERROR (%E$OUT_BADCLA);
      984     3439
      985     3440    2           OUT_IMAGE.PARAM_ = J + 10 /* $CLASS */ + 450 /* DEVICE# */;
      986     3441
      987     3442    2           OUT_IMAGE.FORMAT_ = '400'O /* IMG_TEXT# */ |
      988     3443    2                '100'O /* IMG_TRLB# */ | '200'O /* IMG_LDGB# */;
      989     3444
      990     3445    2        END;                               /* DO CASE NODE.CODE */
      991     3446
      992     3447    1        OUT_IMAGE.TYP_ = 2 /* TYP_PARAM# */;
      993     3448    1        OUT_IMAGE.DISPW_ = 0;
      994     3449    1        OUT_IMAGE.JUST_ = '0'B /* IMG_LEFT# */;
      995     3450    1        OUT_IMAGE.FIELDW_ = 0;
      996     3451
      997     3452    1        CALL OUT$ADDSTR (OUT_IMAGE, SIZEC(OUT_IMAGE));
      998     3453
      999     3454    1        RETURN;
     1000     3455    1   END OUT$INTRIN;
     1001     3456        %EOD;

PL6.E3A0      #009=OUT$INTRIN File=OUT$TEMPLAT.:E05TSI                           WED 07/30/97 04:17 Page:161
--  Include file information  --

   XU_MACRO_C.:E05TOU  is referenced.
   OU_PERR_C.:E05TOU  is referenced.
   OUT_SUBS_C.:E05TOU  is referenced.
   B$JIT_C.:E05TOU  was found in the system file and is never referenced.
   CP_6_C.:E05TOU  was found in the system file and is never referenced.
      No diagnostics issued in procedure OUT$INTRIN.

   Procedure OUT$INTRIN requires 76 words for executable code.
   Procedure OUT$INTRIN requires 12 words of local(AUTO) storage.

PL6.E3A0      #009=OUT$INTRIN File=OUT$TEMPLAT.:E05TSI                           WED 07/30/97 04:17 Page:162

 Object Unit name= OUT$INTRIN                                 File name= OUT$TEMPLAT.:E05TOU
 UTS= JUL 30 '97 04:17:27.36 WED                              Compiler= PL-6/E31         Sev=      00
 SharedLib= :SHARED_SYSTEM                                    Alt SharedLib=


    ****  Control sections  ****

 Sect   Type Bound  Init  Size OctSiz  Section name(segment info)
    0   Proc  even  none    76    114  OUT$INTRIN
    1  RoData even  none     4      4  OUT$INTRIN

    ****  Entry defs  ****

                              Check   Calling
                             calling  sequence
  Sect OctLoc Primary Altret sequence   type   Parms  Name
     0      0   yes            yes      Std        1  OUT$INTRIN

  ****  Entry refs  ****

         Check        Calling
        calling       sequence
Altret sequence SRef   type   Args  Name
         yes           Std       1 OUT$ERROR
         yes           Std       2 OUT$ADDSTR
                       nStd      0 X66_AUTO_1
                       Std       0 B_CONSPOOL_D
                       nStd      0 X66_ARET

  ****  Data refs  ****

  Flags:  r = read only, s = secondary
Flgs Name                             Flgs Name                             Flgs Name
     B_VECTNIL
PL6.E3A0      #009=OUT$INTRIN File=OUT$TEMPLAT.:E05TSI                           WED 07/30/97 04:17 Page:163

  ****  Segment refs  ****

  Flags:  r = read only, s = secondary
Flgs Name                             Flgs Name                             Flgs Name
     ISSID
PL6.E3A0      #009=OUT$INTRIN File=OUT$TEMPLAT.:E05TSI                           WED 07/30/97 04:17 Page:164


      884        1        /*M* OUT$INTRIN Process and insert a TEMPLAT intrinsic */
      885        2        /*T***********************************************************/
      886        3        /*T*                                                         */
      887        4        /*T* Copyright (c) Bull HN Information Systems Inc., 1997    */
      888        5        /*T*                                                         */
      889        6        /*T***********************************************************/
      890        7
      891        8
      892        9        %SET LISTSUB='1'B;
      893       10
      894       11        /*
      895       12          ###  #   # #####   #    ###  #   # ##### ####   ###  #   #
      896       13         # # # #   #   #    ###    #   #   #   #   #   #   #   #   #
      897       14         # # # #   #   #   # #     #   ##  #   #   #   #   #   ##  #
      898       15         #  ## #   #   #    ###    #   # # #   #   ####    #   # # #
      899       16         #   # #   #   #     # #   #   #  ##   #   # #     #   #  ##
      900       17         #   # #   #   #    ###    #   #   #   #   #  #    #   #   #
      901       18          ###   ###    #     #    ###  #   #   #   #   #  ###  #   #
      902       19                                                                          */
      903       20
      904       21        OUT$INTRIN: PROC (NODE_PTR$);

     21  0 000000   000000 700200 xent  OUT$INTRIN   TSX0  ! X66_AUTO_1
         0 000001   000014 000001                    ZERO    12,1

      905       22
      906       23                                           /*
      907       24                                                ARGUMENTS
      908       25                                                                          */
      909       26    1   DCL NODE_PTR$ PTR;
      910       27
      911       28                                           /*
      912       29                                                INCLUDES
      913       30                                                                          */
      914       31        %INCLUDE OUT_SUBS_C;
      915      154
PL6.E3A0      #009=OUT$INTRIN File=OUT$TEMPLAT.:E05TSI                           WED 07/30/97 04:17 Page:165
      916      155        %LIST;
      917      156
      918      157             %OUT_IMAGE;
               158    1   DCL 1 OUT_IMAGE AUTO,
               159    1        2 TYP_ UBIN BYTE UNAL,
               160    1        2 PARAM_ UBIN BYTE UNAL,
               161    1        2 FORMAT_ BIT(9) UNAL,
               162    1        2 * BIT(3) UNAL,
               163    1        2 DISPW_ UBIN(6) UNAL,
               164    1        2 JUST_ BIT(1) UNAL,
               165    1        2 * BIT(2) UNAL,
               166    1        2 FIELDW_ UBIN(6) UNAL;
      919      168
      920      169        %PLIST;
      921      170
      922      171        %INCLUDE OU_PERR_C;
      923      192        %INCLUDE XU_MACRO_C;
      924     3298
      925     3299             %PARSE$SYM     (NAME=OU$OUTSYM,
      926     3300                                 STCLASS="BASED");
      927     3338             %PARSE$OUT     (NAME=OU$OUTBLK,
      928     3339                                 STCLASS="BASED");
      929     3384
      930     3385                                           /*
      931     3386                                                EXTERNALS
      932     3387                                                                           */
      933     3388    1   DCL OUT$ADDSTR ENTRY(2);
      934     3389    1   DCL OUT$ERROR ENTRY(1);
      935     3390
      936     3391                                           /*
      937     3392                                                LOCALS
      938     3393                                                                          */
      939     3394    1   DCL I SBIN;
      940     3395    1   DCL J SBIN;
      941     3396    1   DCL K SBIN;
      942     3397    1   DCL PTR$ PTR;
      943     3398
PL6.E3A0      #009=OUT$INTRIN File=OUT$TEMPLAT.:E05TSI                           WED 07/30/97 04:17 Page:166
      944     3399        %EJECT;
PL6.E3A0      #009=OUT$INTRIN File=OUT$TEMPLAT.:E05TSI                           WED 07/30/97 04:17 Page:167
      945     3400        /*
      946     3401             Begin   O U T $ I N T R I N   main
      947     3402                                                                          */
      948     3403
      949     3404    1        PTR$ = NODE_PTR$ -> OU$OUTBLK.SUBLK$(0);

   3404  0 000002   200003 470500                    LDP0    @NODE_PTR$,,AUTO
         0 000003   000000 471500                    LDP1    0,,PR0
         0 000004   100003 236100                    LDQ     3,,PR1
         0 000005   200011 756100                    STQ     PTR$,,AUTO

      950     3405
      951     3406    2        DO CASE (PTR$ -> OU$OUTBLK.CODE);

   3406  0 000006   200011 473500                    LDP3    PTR$,,AUTO
         0 000007   300000 236100                    LDQ     0,,PR3
         0 000010   777777 376007                    ANQ     -1,DL
         0 000011   000075 136007                    SBLQ    61,DL
         0 000012   000003 116007                    CMPQ    3,DL
         0 000013   000015 602006 0                  TNC     s:3406+7,QL
         0 000014   000073 710000 0                  TRA     s:3447
         0 000015   000020 710000 0                  TRA     s:3409
         0 000016   000073 710000 0                  TRA     s:3447
         0 000017   000046 710000 0                  TRA     s:3427

      952     3407
      953     3408    2        CASE (61 /* T_TIMEINTRINS# */);

      954     3409    2           CALL CHARBIN (J, PTR$ -> OU$OUTBLK.SUBLK$(0) ->

   3409  0 000020   300003 474500                    LDP4    3,,PR3
         0 000021   400004 236100                    LDQ     4,,PR4
         0 000022   000033 772000                    QRL     27
         0 000023   000000 620006                    EAX0    0,QL
         0 000024   000100 305540                    DTB
         0 000025   400004 230010                    NDSC9   4,,PR4                   cn=1,s=nosgn,sf=0,n=*X0
         0 000026   200007 000004                    NDSC9   J,,AUTO                  cn=0,s=lsgnf,sf=0,n=4
PL6.E3A0      #009=OUT$INTRIN File=OUT$TEMPLAT.:E05TSI                           WED 07/30/97 04:17 Page:168

      955     3410    2                OU$OUTSYM.TEXT);
      956     3411
      957     3412        /*E*      ERROR: OUT-E$OUT_BADTIM
      958     3413                  MESSAGE: The time intrinsic selected was not legal.
      959     3414                                                                          */
      960     3415
      961     3416    2           IF J < 1 /* MIN_FOR_MIN# */

   3416  0 000027   200007 235100                    LDA     J,,AUTO
         0 000030   000033 604400 0                  TMOZ    s:3420
         0 000031   000005 115007                    CMPA    5,DL
         0 000032   000037 604400 0                  TMOZ    s:3422

      962     3417    2                OR
      963     3418    2                J > 5 /* MAX_FOR_MIN# */
      964     3419    2           THEN
      965     3420    2                CALL OUT$ERROR (%E$OUT_BADTIM);

   3420  0 000033   000000 630400 1                  EPPR0   0
         0 000034   000017 631400 xsym               EPPR1   B_VECTNIL+15
         0 000035   000000 701000 xent               TSX1    OUT$ERROR
         0 000036   000000 011000                    NOP     0

      966     3421
      967     3422    2           OUT_IMAGE.PARAM_ = J + 3 /* $MINUTES */ + 450 /* DEVICE# */;

   3422  0 000037   200007 236100                    LDQ     J,,AUTO
         0 000040   000705 036007                    ADLQ    453,DL
         0 000041   000022 736000                    QLS     18
         0 000042   200004 552120                    STBQ    OUT_IMAGE,'20'O,AUTO

      968     3423
      969     3424    2           OUT_IMAGE.FORMAT_ = '400'O /* IMG_TEXT# */;

   3424  0 000043   400000 236007                    LDQ     -131072,DL
         0 000044   200004 552110                    STBQ    OUT_IMAGE,'10'O,AUTO
PL6.E3A0      #009=OUT$INTRIN File=OUT$TEMPLAT.:E05TSI                           WED 07/30/97 04:17 Page:169
         0 000045   000073 710000 0                  TRA     s:3447

      970     3425
      971     3426    2        CASE (63 /* T_CLASSINTRINS# */);

      972     3427    2           CALL CHARBIN (J, PTR$ -> OU$OUTBLK.SUBLK$(0) ->

   3427  0 000046   300003 474500                    LDP4    3,,PR3
         0 000047   400004 236100                    LDQ     4,,PR4
         0 000050   000033 772000                    QRL     27
         0 000051   000000 620006                    EAX0    0,QL
         0 000052   000100 305540                    DTB
         0 000053   400004 230010                    NDSC9   4,,PR4                   cn=1,s=nosgn,sf=0,n=*X0
         0 000054   200007 000004                    NDSC9   J,,AUTO                  cn=0,s=lsgnf,sf=0,n=4

      973     3428    2                OU$OUTSYM.TEXT);
      974     3429
      975     3430        /*E*      ERROR: OUT-E$OUT_BADCLA
      976     3431                  MESSAGE: The class intrinsic selected was not legal.
      977     3432                                                                          */
      978     3433
      979     3434    2           IF J < 0 /* MIN_FOR_CLA# */

   3434  0 000055   200007 235100                    LDA     J,,AUTO
         0 000056   000061 604000 0                  TMI     s:3438
         0 000057   000011 115007                    CMPA    9,DL
         0 000060   000065 604400 0                  TMOZ    s:3440

      980     3435    2                OR
      981     3436    2                J > 9 /* MAX_FOR_CLA# */
      982     3437    2           THEN
      983     3438    2                CALL OUT$ERROR (%E$OUT_BADCLA);

   3438  0 000061   000001 630400 1                  EPPR0   1
         0 000062   000017 631400 xsym               EPPR1   B_VECTNIL+15
         0 000063   000000 701000 xent               TSX1    OUT$ERROR
         0 000064   000000 011000                    NOP     0
PL6.E3A0      #009=OUT$INTRIN File=OUT$TEMPLAT.:E05TSI                           WED 07/30/97 04:17 Page:170

      984     3439
      985     3440    2           OUT_IMAGE.PARAM_ = J + 10 /* $CLASS */ + 450 /* DEVICE# */;

   3440  0 000065   200007 236100                    LDQ     J,,AUTO
         0 000066   000714 036007                    ADLQ    460,DL
         0 000067   000022 736000                    QLS     18
         0 000070   200004 552120                    STBQ    OUT_IMAGE,'20'O,AUTO

      986     3441
      987     3442    2           OUT_IMAGE.FORMAT_ = '400'O /* IMG_TEXT# */ |

   3442  0 000071   700000 236007                    LDQ     -32768,DL
         0 000072   200004 552110                    STBQ    OUT_IMAGE,'10'O,AUTO

      988     3443    2                '100'O /* IMG_TRLB# */ | '200'O /* IMG_LDGB# */;
      989     3444
      990     3445    2        END;                               /* DO CASE NODE.CODE */

      991     3446
      992     3447    1        OUT_IMAGE.TYP_ = 2 /* TYP_PARAM# */;

   3447  0 000073   002000 236003                    LDQ     1024,DU
         0 000074   200004 552140                    STBQ    OUT_IMAGE,'40'O,AUTO

      993     3448    1        OUT_IMAGE.DISPW_ = 0;

   3448  0 000075   000000 236003                    LDQ     0,DU
         0 000076   200004 752101                    STCQ    OUT_IMAGE,'01'O,AUTO

      994     3449    1        OUT_IMAGE.JUST_ = '0'B /* IMG_LEFT# */;

   3449  0 000077   000031 236000 xsym               LDQ     B_VECTNIL+25
         0 000100   200005 356100                    ANSQ    OUT_IMAGE+1,,AUTO

      995     3450    1        OUT_IMAGE.FIELDW_ = 0;

PL6.E3A0      #009=OUT$INTRIN File=OUT$TEMPLAT.:E05TSI                           WED 07/30/97 04:17 Page:171
   3450  0 000101   000002 236000 1                  LDQ     2
         0 000102   200005 356100                    ANSQ    OUT_IMAGE+1,,AUTO

      996     3451
      997     3452    1        CALL OUT$ADDSTR (OUT_IMAGE, SIZEC(OUT_IMAGE));

   3452  0 000103   000003 236000 1                  LDQ     3
         0 000104   200013 756100                    STQ     PTR$+2,,AUTO
         0 000105   200004 630500                    EPPR0   OUT_IMAGE,,AUTO
         0 000106   200012 450500                    STP0    PTR$+1,,AUTO
         0 000107   200012 630500                    EPPR0   PTR$+1,,AUTO
         0 000110   000020 631400 xsym               EPPR1   B_VECTNIL+16
         0 000111   000000 701000 xent               TSX1    OUT$ADDSTR
         0 000112   000000 011000                    NOP     0

      998     3453
      999     3454    1        RETURN;

   3454  0 000113   000000 702200 xent               TSX2  ! X66_ARET
     1000     3455    1   END OUT$INTRIN;
     1001     3456        %EOD;

PL6.E3A0      #009=OUT$INTRIN File=OUT$TEMPLAT.:E05TSI                           WED 07/30/97 04:17 Page:172
--  Include file information  --

   XU_MACRO_C.:E05TOU  is referenced.
   OU_PERR_C.:E05TOU  is referenced.
   OUT_SUBS_C.:E05TOU  is referenced.
   B$JIT_C.:E05TOU  was found in the system file and is never referenced.
   CP_6_C.:E05TOU  was found in the system file and is never referenced.
      No diagnostics issued in procedure OUT$INTRIN.
PL6.E3A0      #009=OUT$INTRIN File=OUT$TEMPLAT.:E05TSI                           WED 07/30/97 04:17 Page:173

 **** Variables and constants ****

  ****  Auto variables  ****

  ****  Scalars and arrays  ****
OctLoc.c.b A Datatyp(siz) R M Lvl/name                 OctLoc.c.b A Datatyp(siz) R M Lvl/name

     3-0-0/w PTR         r     1 @NODE_PTR$                 7-0-0/w SBIN        r     1 J
    *0-0-0/w PTR         r     1 NODE_PTR$                  4-0-0/b STRC(45)    r     1 OUT_IMAGE
    11-0-0/w PTR         r     1 PTR$

  ****  BASED and DCB variables  ****

  ****  Scalars and arrays  ****
OctLoc.c.b A Datatyp(siz) R M Lvl/name                 OctLoc.c.b A Datatyp(siz) R M Lvl/name

     0-0-0/w STRC(144)   r     1 OU$OUTBLK                  0-0-0/w ASTR(153)   r     1 OU$OUTSYM


   Procedure OUT$INTRIN requires 76 words for executable code.
   Procedure OUT$INTRIN requires 12 words of local(AUTO) storage.
PL6.E3A0      #009=OUT$INTRIN File=OUT$TEMPLAT.:E05TSI                           WED 07/30/97 04:17 Page:174
          *** CROSS REFERENCE LISTING ***
**     DENOTES     IDENTIFIER DEFINITION
<<                 IDENTIFIER'S VALUE SET
>>                 IDENTIFIER'S VALUE USED
<>                 IDENTIFIER SET AND/OR USED
--                 IDENTIFIER REFERENCED
PL6.E3A0      #009=OUT$INTRIN File=OUT$TEMPLAT.:E05TSI                           WED 07/30/97 04:17 Page:175
          MINI XREF LISTING

J
      3395**DCL      3409<<CALLBLT  3416>>IF       3416>>IF       3422>>ASSIGN   3427<<CALLBLT  3434>>IF
      3434>>IF       3440>>ASSIGN
NODE_PTR$
        26**DCL        21--PROC     3404>>ASSIGN
OU$OUTBLK.CODE
      3353**DCL      3406>>DOCASE
OU$OUTBLK.SUBLK$
      3378**DCL      3404>>ASSIGN   3409>>CALLBLT  3409>>CALLBLT  3427>>CALLBLT  3427>>CALLBLT
OU$OUTSYM.COUNT
      3330**DCL      3333--IMP-SIZ  3409>>CALLBLT  3427>>CALLBLT
OU$OUTSYM.TEXT
      3333**DCL      3409>>CALLBLT  3427>>CALLBLT
OUT$ADDSTR
      3388**DCL-ENT  3452--CALL
OUT$ERROR
      3389**DCL-ENT  3420--CALL     3438--CALL
OUT_IMAGE
       158**DCL      3452<>CALL     3452--CALL
OUT_IMAGE.DISPW_
       163**DCL      3448<<ASSIGN
OUT_IMAGE.FIELDW_
       166**DCL      3450<<ASSIGN
OUT_IMAGE.FORMAT_
       161**DCL      3424<<ASSIGN   3442<<ASSIGN
OUT_IMAGE.JUST_
       164**DCL      3449<<ASSIGN
OUT_IMAGE.PARAM_
       160**DCL      3422<<ASSIGN   3440<<ASSIGN
OUT_IMAGE.TYP_
       159**DCL      3447<<ASSIGN
PTR$
PL6.E3A0      #009=OUT$INTRIN File=OUT$TEMPLAT.:E05TSI                           WED 07/30/97 04:17 Page:176
      3397**DCL      3404<<ASSIGN   3406>>DOCASE   3409>>CALLBLT  3409>>CALLBLT  3427>>CALLBLT  3427>>CALLBLT

PL6.E3A0      #010=OUT$MAKESEL File=OUT$TEMPLAT.:E05TSI                          WED 07/30/97 04:17 Page:177
     1002        1        /*M* OUT$MAKESEL creates selection entries for choice lists */
     1003        2        /*T***********************************************************/
     1004        3        /*T*                                                         */
     1005        4        /*T* Copyright (c) Bull HN Information Systems Inc., 1997    */
     1006        5        /*T*                                                         */
     1007        6        /*T***********************************************************/
     1008        7
     1009        8
     1010        9        %SET LISTSUB='1'B;
     1011       10
     1012       11
     1013       12        /*
     1014       13          ###  #   # #####   #   #   #  ###  #   # #####  ###  ##### #
     1015       14         # # # #   #   #    ###  ## ## #   # #  #  #     #   # #     #
     1016       15         # # # #   #   #   # #   # # # #   # # #   #     #     #     #
     1017       16         #  ## #   #   #    ###  #   # ##### ##    ####   ###  ####  #
     1018       17         #   # #   #   #     # # #   # #   # # #   #         # #     #
     1019       18         #   # #   #   #    ###  #   # #   # #  #  #     #   # #     #
     1020       19          ###   ###    #     #   #   # #   # #   # #####  ###  ##### #####
     1021       20                                                                          */
     1022       21
     1023       22
     1024       23        OUT$MAKESEL: PROC (NODE_PTR$);
     1025       24
     1026       25                                           /*
     1027       26                                                ARGUMENTS
     1028       27                                                                          */
     1029       28    1   DCL NODE_PTR$ PTR;
     1030       29
     1031       30                                           /*
     1032       31                                                INCLUDES
     1033       32                                                                          */
     1034       33        %INCLUDE XU_MACRO_C;
     1035     3139        %INCLUDE OUT_SUBS_C;
     1036     3262
     1037     3263             %PARSE$SYM     (NAME=OU$OUTSYM,
     1038     3264                                 STCLASS="BASED");
PL6.E3A0      #010=OUT$MAKESEL File=OUT$TEMPLAT.:E05TSI                          WED 07/30/97 04:17 Page:178
     1039     3302             %PARSE$OUT     (NAME=OU$OUTBLK,
     1040     3303                                 STCLASS="BASED");
     1041     3348
     1042     3349                                           /*
     1043     3350                                                EXTERNALS
     1044     3351                                                                          */
     1045     3352    1   DCL OUT$ADDSTR ENTRY(2);
     1046     3353
     1047     3354                                           /*
     1048     3355                                                LOCALS
     1049     3356                                                                          */
     1050     3357        %LIST;
     1051     3358             %OUT_CHOICE;
              3359    1   DCL 1 OUT_CHOICE AUTO,
              3360    1        2 TYP_ UBIN BYTE UNAL,
              3361    1        2 CNT_ UBIN HALF UNAL,
              3362    1        2 ARG_ CHAR(140) UNAL;
     1052     3364        %PLIST;
     1053     3365
     1054     3366    1   DCL PTR$ PTR;
     1055     3367    1   DCL SPTR$ PTR;
     1056     3368    1   DCL I SBIN;
     1057     3369    1   DCL J SBIN;
     1058     3370    1   DCL K SBIN;
     1059     3371
     1060     3372                                           /*
     1061     3373                                                CONSTANTS
     1062     3374                                                                          */
     1063     3375    1   DCL HEX_TABLE CHAR(16) STATIC SYMDEF INIT('0123456789ABCDEF');
     1064     3376    1   DCL OCT_TABLE CHAR(8)  STATIC SYMDEF INIT('01234567');
     1065     3377
     1066     3378        %EJECT;
PL6.E3A0      #010=OUT$MAKESEL File=OUT$TEMPLAT.:E05TSI                          WED 07/30/97 04:17 Page:179
     1067     3379        /*
     1068     3380             Begin  O U T $ M A K E S E L   main
     1069     3381                                                                          */
     1070     3382
     1071     3383    2        DO CASE (NODE_PTR$ -> OU$OUTBLK.CODE);
     1072     3384
     1073     3385    2        CASE (74 /* T_TEXTSEL# */);
     1074     3386    2           K = NODE_PTR$ -> OU$OUTSYM.COUNT;
     1075     3387    2           CALL STUFTXT (NODE_PTR$ -> OU$OUTSYM.TEXT, K);
     1076     3388
     1077     3389    2        CASE (ELSE);
     1078     3390
     1079     3391    2           PTR$ = NODE_PTR$ -> OU$OUTBLK.SUBLK$(0);
     1080     3392                                                /**/
     1081     3393    3           DO CASE (PTR$ -> OU$OUTBLK.CODE);
     1082     3394
     1083     3395    3           CASE (130 /* T_DECNUM# */);
     1084     3396
     1085     3397    3              CALL CHARBIN (J, PTR$ -> OU$OUTSYM.TEXT);
     1086     3398
     1087     3399    3              CALL STUFNUM (J);
     1088     3400
     1089     3401    3           CASE (131 /* T_OCTNUM# */);
     1090     3402
     1091     3403    3              J = 0;
     1092     3404
     1093     3405    3              SPTR$ = PTR$ -> OU$OUTBLK.SUBLK$(0);
     1094     3406
     1095     3407    4              DO I = 0 TO SPTR$ -> OU$OUTSYM.COUNT - 1;
     1096     3408
     1097     3409    5                   DO K = 0 TO 7;
     1098     3410
     1099     3411    5                        IF SUBSTR(SPTR$->OU$OUTSYM.TEXT,I,1) =
     1100     3412    5                             SUBSTR(OCT_TABLE,K,1)
     1101     3413    5                        THEN
     1102     3414    6                        DO;
     1103     3415    6                             J = J * 8;
PL6.E3A0      #010=OUT$MAKESEL File=OUT$TEMPLAT.:E05TSI                          WED 07/30/97 04:17 Page:180
     1104     3416    6                             J = J + K;
     1105     3417    6                           END;
     1106     3418    5                      END;                 /* DO K */
     1107     3419    4                 END;                      /* DO I */
     1108     3420
     1109     3421    3              CALL STUFNUM(J);
     1110     3422
     1111     3423    3           CASE (132 /* T_HEXNUM# */);
     1112     3424
     1113     3425    3              J = 0;
     1114     3426
     1115     3427    3              SPTR$ = PTR$ -> OU$OUTBLK.SUBLK$(0);
     1116     3428
     1117     3429    4              DO I = 0 TO SPTR$ -> OU$OUTSYM.COUNT - 1;
     1118     3430
     1119     3431    5                   DO K = 0 TO 15;
     1120     3432
     1121     3433    5                        IF SUBSTR(SPTR$->OU$OUTSYM.TEXT,I,1) =
     1122     3434    5                             SUBSTR(HEX_TABLE,K,1)
     1123     3435    5                        THEN
     1124     3436    6                        DO;
     1125     3437    6                             J = J * 16;
     1126     3438    6                             J = J + K;
     1127     3439    6                           END;
     1128     3440    5                      END;                 /* DO K */
     1129     3441    4                 END;                      /* DO I */
     1130     3442
     1131     3443    3              CALL STUFNUM(J);
     1132     3444
     1133     3445    3           END;                            /* DO CASE NODE.CODE */
     1134     3446    2        END;                               /* DO CASE NODE.CODE */
     1135     3447
     1136     3448    1        RETURN;
     1137     3449
     1138     3450        %EJECT;
PL6.E3A0      #010=OUT$MAKESEL File=OUT$TEMPLAT.:E05TSI                          WED 07/30/97 04:17 Page:181
     1139     3451
     1140     3452        /*
     1141     3453             Begin  INTERNAL ROUTINE  STUFNUM
     1142     3454                                                                          */
     1143     3455
     1144     3456    1   STUFNUM: PROC (NUMBER_);
     1145     3457
     1146     3458    2   DCL NUMBER_ SBIN;
     1147     3459    2   DCL CHARS_ REDEF NUMBER_ CHAR(4);
     1148     3460
     1149     3461    2   DCL KK SBIN;
     1150     3462
     1151     3463    3        DO KK = 0 TO 2;
     1152     3464
     1153     3465    3             IF SUBSTR(CHARS_,KK,1) ~= BINASC(0)
     1154     3466    3             THEN
     1155     3467    3                  GOTO OUT_STUFNUM;
     1156     3468    3           END;                            /* DO KK */
     1157     3469    2   OUT_STUFNUM: ;
     1158     3470    2        OUT_CHOICE.TYP_ = 6 /* TYP_CHOICE# */;
     1159     3471    2        OUT_CHOICE.CNT_ = 4 - KK;
     1160     3472    2        OUT_CHOICE.ARG_ = SUBSTR (CHARS_, KK, 4 - KK);
     1161     3473    2        CALL OUT$ADDSTR (OUT_CHOICE, SIZEC(OUT_CHOICE.TYP_) +
     1162     3474    2             SIZEC(OUT_CHOICE.CNT_) + OUT_CHOICE.CNT_);
     1163     3475
     1164     3476    2        RETURN;
     1165     3477    2   END STUFNUM;
     1166     3478
     1167     3479        /*
     1168     3480                  Begin INTERNAL ROUTINE  STUFTXT
     1169     3481                                                                          */
     1170     3482
     1171     3483    1   STUFTXT: PROC (TEXT_,NUM_);
     1172     3484
     1173     3485    2   DCL NUM_ SBIN;
     1174     3486    2   DCL TEXT_ CHAR(NUM_);
     1175     3487
PL6.E3A0      #010=OUT$MAKESEL File=OUT$TEMPLAT.:E05TSI                          WED 07/30/97 04:17 Page:182
     1176     3488    2        OUT_CHOICE.TYP_ = 6 /* TYP_CHOICE# */;
     1177     3489    2        OUT_CHOICE.CNT_ = NUM_;
     1178     3490    2        OUT_CHOICE.ARG_ = TEXT_;
     1179     3491
     1180     3492    2        CALL OUT$ADDSTR (OUT_CHOICE, SIZEC(OUT_CHOICE.TYP_) +
     1181     3493    2             SIZEC(OUT_CHOICE.CNT_) + NUM_);
     1182     3494
     1183     3495    2        RETURN;
     1184     3496
     1185     3497    2   END STUFTXT;
     1186     3498    1   END OUT$MAKESEL;
     1187     3499        %EOD;

PL6.E3A0      #010=OUT$MAKESEL File=OUT$TEMPLAT.:E05TSI                          WED 07/30/97 04:17 Page:183
--  Include file information  --

   OUT_SUBS_C.:E05TOU  is referenced.
   XU_MACRO_C.:E05TOU  is referenced.
   B$JIT_C.:E05TOU  was found in the system file and is never referenced.
   CP_6_C.:E05TOU  was found in the system file and is never referenced.
      No diagnostics issued in procedure OUT$MAKESEL.

   Procedure OUT$MAKESEL requires 180 words for executable code.
   Procedure OUT$MAKESEL requires 54 words of local(AUTO) storage.

PL6.E3A0      #010=OUT$MAKESEL File=OUT$TEMPLAT.:E05TSI                          WED 07/30/97 04:17 Page:184

 Object Unit name= OUT$MAKESEL                                File name= OUT$TEMPLAT.:E05TOU
 UTS= JUL 30 '97 04:17:44.64 WED                              Compiler= PL-6/E31         Sev=      00
 SharedLib= :SHARED_SYSTEM                                    Alt SharedLib=


    ****  Control sections  ****

 Sect   Type Bound  Init  Size OctSiz  Section name(segment info)
    0   Data  even  none     6      6  OUT$MAKESEL
    1   Proc  even  none   180    264  OUT$MAKESEL
    2  RoData even  none     2      2  OUT$MAKESEL

    ****  Entry defs  ****

                              Check   Calling
                             calling  sequence
  Sect OctLoc Primary Altret sequence   type   Parms  Name
     1      0   yes            yes      Std        1  OUT$MAKESEL

  ****  Data defs  ****

 Sect OctLoc  Name                           Sect OctLoc  Name
    0      0  HEX_TABLE                          0      4  OCT_TABLE

  ****  Entry refs  ****

         Check        Calling
        calling       sequence
Altret sequence SRef   type   Args  Name
         yes           Std       2 OUT$ADDSTR
                       nStd      0 X66_AUTO_1
                       nStd      0 X66_ARET
                       Std       0 B_CONSPOOL_D
PL6.E3A0      #010=OUT$MAKESEL File=OUT$TEMPLAT.:E05TSI                          WED 07/30/97 04:17 Page:185

  ****  Data refs  ****

  Flags:  r = read only, s = secondary
Flgs Name                             Flgs Name                             Flgs Name
     B_VECTNIL
PL6.E3A0      #010=OUT$MAKESEL File=OUT$TEMPLAT.:E05TSI                          WED 07/30/97 04:17 Page:186


     1002        1        /*M* OUT$MAKESEL creates selection entries for choice lists */
     1003        2        /*T***********************************************************/
     1004        3        /*T*                                                         */
     1005        4        /*T* Copyright (c) Bull HN Information Systems Inc., 1997    */
     1006        5        /*T*                                                         */
     1007        6        /*T***********************************************************/
     1008        7
     1009        8
     1010        9        %SET LISTSUB='1'B;
     1011       10
     1012       11
     1013       12        /*
     1014       13          ###  #   # #####   #   #   #  ###  #   # #####  ###  ##### #
     1015       14         # # # #   #   #    ###  ## ## #   # #  #  #     #   # #     #
     1016       15         # # # #   #   #   # #   # # # #   # # #   #     #     #     #
     1017       16         #  ## #   #   #    ###  #   # ##### ##    ####   ###  ####  #
     1018       17         #   # #   #   #     # # #   # #   # # #   #         # #     #
     1019       18         #   # #   #   #    ###  #   # #   # #  #  #     #   # #     #
     1020       19          ###   ###    #     #   #   # #   # #   # #####  ###  ##### #####
     1021       20                                                                          */
     1022       21
     1023       22
     1024       23        OUT$MAKESEL: PROC (NODE_PTR$);

     23  1 000000   000000 700200 xent  OUT$MAKESEL  TSX0  ! X66_AUTO_1
         1 000001   000066 000001                    ZERO    54,1

     1025       24
     1026       25                                           /*
     1027       26                                                ARGUMENTS
     1028       27                                                                          */
     1029       28    1   DCL NODE_PTR$ PTR;
     1030       29
     1031       30                                           /*
     1032       31                                                INCLUDES
     1033       32                                                                          */
PL6.E3A0      #010=OUT$MAKESEL File=OUT$TEMPLAT.:E05TSI                          WED 07/30/97 04:17 Page:187
     1034       33        %INCLUDE XU_MACRO_C;
     1035     3139        %INCLUDE OUT_SUBS_C;
     1036     3262
     1037     3263             %PARSE$SYM     (NAME=OU$OUTSYM,
     1038     3264                                 STCLASS="BASED");
     1039     3302             %PARSE$OUT     (NAME=OU$OUTBLK,
     1040     3303                                 STCLASS="BASED");
     1041     3348
     1042     3349                                           /*
     1043     3350                                                EXTERNALS
     1044     3351                                                                          */
     1045     3352    1   DCL OUT$ADDSTR ENTRY(2);
     1046     3353
     1047     3354                                           /*
     1048     3355                                                LOCALS
     1049     3356                                                                          */
     1050     3357        %LIST;
     1051     3358             %OUT_CHOICE;
              3359    1   DCL 1 OUT_CHOICE AUTO,
              3360    1        2 TYP_ UBIN BYTE UNAL,
              3361    1        2 CNT_ UBIN HALF UNAL,
              3362    1        2 ARG_ CHAR(140) UNAL;
     1052     3364        %PLIST;
     1053     3365
     1054     3366    1   DCL PTR$ PTR;
     1055     3367    1   DCL SPTR$ PTR;
     1056     3368    1   DCL I SBIN;
     1057     3369    1   DCL J SBIN;
     1058     3370    1   DCL K SBIN;
     1059     3371
     1060     3372                                           /*
     1061     3373                                                CONSTANTS
     1062     3374                                                                          */
     1063     3375    1   DCL HEX_TABLE CHAR(16) STATIC SYMDEF INIT('0123456789ABCDEF');
     1064     3376    1   DCL OCT_TABLE CHAR(8)  STATIC SYMDEF INIT('01234567');
     1065     3377
     1066     3378        %EJECT;
PL6.E3A0      #010=OUT$MAKESEL File=OUT$TEMPLAT.:E05TSI                          WED 07/30/97 04:17 Page:188
     1067     3379        /*
     1068     3380             Begin  O U T $ M A K E S E L   main
     1069     3381                                                                          */
     1070     3382
     1071     3383    2        DO CASE (NODE_PTR$ -> OU$OUTBLK.CODE);

   3383  1 000002   200003 470500                    LDP0    @NODE_PTR$,,AUTO
         1 000003   000000 471500                    LDP1    0,,PR0
         1 000004   100000 236100                    LDQ     0,,PR1
         1 000005   777777 376007                    ANQ     -1,DL
         1 000006   000112 136007                    SBLQ    74,DL
         1 000007   000001 116007                    CMPQ    1,DL
         1 000010   000012 602006 1                  TNC     s:3383+8,QL
         1 000011   000030 710000 1                  TRA     s:3391
         1 000012   000013 710000 1                  TRA     s:3386

     1072     3384
     1073     3385    2        CASE (74 /* T_TEXTSEL# */);

     1074     3386    2           K = NODE_PTR$ -> OU$OUTSYM.COUNT;

   3386  1 000013   100004 236100                    LDQ     4,,PR1
         1 000014   000033 772000                    QRL     27
         1 000015   200054 756100                    STQ     K,,AUTO

     1075     3387    2           CALL STUFTXT (NODE_PTR$ -> OU$OUTSYM.TEXT, K);

   3387  1 000016   000000 471500                    LDP1    0,,PR0
         1 000017   200054 633500                    EPPR3   K,,AUTO
         1 000020   200060 453500                    STP3    @TEXT_+1,,AUTO
         1 000021   200062 451500                    STP1    @NUM_+2,,AUTO
         1 000022   200062 236100                    LDQ     @NUM_+2,,AUTO
         1 000023   000000 036000 2                  ADLQ    0
         1 000024   200057 756100                    STQ     K+3,,AUTO
         1 000025   000233 701000 1                  TSX1    STUFTXT
         1 000026   000000 011000                    NOP     0
         1 000027   000164 710000 1                  TRA     s:3448
PL6.E3A0      #010=OUT$MAKESEL File=OUT$TEMPLAT.:E05TSI                          WED 07/30/97 04:17 Page:189

     1076     3388
     1077     3389    2        CASE (ELSE);

     1078     3390
     1079     3391    2           PTR$ = NODE_PTR$ -> OU$OUTBLK.SUBLK$(0);

   3391  1 000030   100003 236100                    LDQ     3,,PR1
         1 000031   200050 756100                    STQ     PTR$,,AUTO

     1080     3392                                                /**/
     1081     3393    3           DO CASE (PTR$ -> OU$OUTBLK.CODE);

   3393  1 000032   200050 473500                    LDP3    PTR$,,AUTO
         1 000033   300000 236100                    LDQ     0,,PR3
         1 000034   777777 376007                    ANQ     -1,DL
         1 000035   000202 136007                    SBLQ    130,DL
         1 000036   000003 116007                    CMPQ    3,DL
         1 000037   000041 602006 1                  TNC     s:3393+7,QL
         1 000040   000164 710000 1                  TRA     s:3448
         1 000041   000044 710000 1                  TRA     s:3397
         1 000042   000057 710000 1                  TRA     s:3403
         1 000043   000122 710000 1                  TRA     s:3425

     1082     3394
     1083     3395    3           CASE (130 /* T_DECNUM# */);

     1084     3396
     1085     3397    3              CALL CHARBIN (J, PTR$ -> OU$OUTSYM.TEXT);

   3397  1 000044   300004 236100                    LDQ     4,,PR3
         1 000045   000033 772000                    QRL     27
         1 000046   000000 620006                    EAX0    0,QL
         1 000047   000100 305540                    DTB
         1 000050   300004 230010                    NDSC9   4,,PR3                   cn=1,s=nosgn,sf=0,n=*X0
         1 000051   200053 000004                    NDSC9   J,,AUTO                  cn=0,s=lsgnf,sf=0,n=4

PL6.E3A0      #010=OUT$MAKESEL File=OUT$TEMPLAT.:E05TSI                          WED 07/30/97 04:17 Page:190
     1086     3398
     1087     3399    3              CALL STUFNUM (J);

   3399  1 000052   200053 631500                    EPPR1   J,,AUTO
         1 000053   200057 451500                    STP1    K+3,,AUTO
         1 000054   000165 701000 1                  TSX1    STUFNUM
         1 000055   000000 011000                    NOP     0
         1 000056   000164 710000 1                  TRA     s:3448

     1088     3400
     1089     3401    3           CASE (131 /* T_OCTNUM# */);

     1090     3402
     1091     3403    3              J = 0;

   3403  1 000057   200053 450100                    STZ     J,,AUTO

     1092     3404
     1093     3405    3              SPTR$ = PTR$ -> OU$OUTBLK.SUBLK$(0);

   3405  1 000060   300003 236100                    LDQ     3,,PR3
         1 000061   200051 756100                    STQ     SPTR$,,AUTO

     1094     3406
     1095     3407    4              DO I = 0 TO SPTR$ -> OU$OUTSYM.COUNT - 1;

   3407  1 000062   200052 450100                    STZ     I,,AUTO
         1 000063   000110 710000 1                  TRA     s:3419+1

     1096     3408
     1097     3409    5                   DO K = 0 TO 7;

   3409  1 000064   200054 450100                    STZ     K,,AUTO

     1098     3410
     1099     3411    5                        IF SUBSTR(SPTR$->OU$OUTSYM.TEXT,I,1) =

PL6.E3A0      #010=OUT$MAKESEL File=OUT$TEMPLAT.:E05TSI                          WED 07/30/97 04:17 Page:191
   3411  1 000065   200051 470500                    LDP0    SPTR$,,AUTO
         1 000066   000004 236100                    LDQ     4,,PR0
         1 000067   000033 772000                    QRL     27
         1 000070   200052 235100                    LDA     I,,AUTO
         1 000071   200054 236100                    LDQ     K,,AUTO
         1 000072   040006 106505                    CMPC    fill='040'O
         1 000073   000004 200001                    ADSC9   4,A,PR0                  cn=1,n=1
         1 000074   000004 000001 0                  ADSC9   OCT_TABLE,Q              cn=0,n=1
         1 000075   000103 601000 1                  TNZ     s:3418

     1100     3412    5                             SUBSTR(OCT_TABLE,K,1)
     1101     3413    5                        THEN
     1102     3414    6                        DO;

     1103     3415    6                             J = J * 8;

   3415  1 000076   200053 235100                    LDA     J,,AUTO
         1 000077   000003 735000                    ALS     3
         1 000100   200053 755100                    STA     J,,AUTO

     1104     3416    6                             J = J + K;

   3416  1 000101   200053 036100                    ADLQ    J,,AUTO
         1 000102   200053 756100                    STQ     J,,AUTO

     1105     3417    6                           END;

     1106     3418    5                      END;                 /* DO K */

   3418  1 000103   200054 054100                    AOS     K,,AUTO
         1 000104   200054 235100                    LDA     K,,AUTO
         1 000105   000007 115007                    CMPA    7,DL
         1 000106   000065 604400 1                  TMOZ    s:3411

     1107     3419    4                 END;                      /* DO I */

   3419  1 000107   200052 054100                    AOS     I,,AUTO
PL6.E3A0      #010=OUT$MAKESEL File=OUT$TEMPLAT.:E05TSI                          WED 07/30/97 04:17 Page:192
         1 000110   200051 470500                    LDP0    SPTR$,,AUTO
         1 000111   000004 236100                    LDQ     4,,PR0
         1 000112   000033 772000                    QRL     27
         1 000113   200052 116100                    CMPQ    I,,AUTO
         1 000114   000064 605400 1                  TPNZ    s:3409

     1108     3420
     1109     3421    3              CALL STUFNUM(J);

   3421  1 000115   200053 631500                    EPPR1   J,,AUTO
         1 000116   200057 451500                    STP1    K+3,,AUTO
         1 000117   000165 701000 1                  TSX1    STUFNUM
         1 000120   000000 011000                    NOP     0
         1 000121   000164 710000 1                  TRA     s:3448

     1110     3422
     1111     3423    3           CASE (132 /* T_HEXNUM# */);

     1112     3424
     1113     3425    3              J = 0;

   3425  1 000122   200053 450100                    STZ     J,,AUTO

     1114     3426
     1115     3427    3              SPTR$ = PTR$ -> OU$OUTBLK.SUBLK$(0);

   3427  1 000123   300003 236100                    LDQ     3,,PR3
         1 000124   200051 756100                    STQ     SPTR$,,AUTO

     1116     3428
     1117     3429    4              DO I = 0 TO SPTR$ -> OU$OUTSYM.COUNT - 1;

   3429  1 000125   200052 450100                    STZ     I,,AUTO
         1 000126   000153 710000 1                  TRA     s:3441+1

     1118     3430
     1119     3431    5                   DO K = 0 TO 15;
PL6.E3A0      #010=OUT$MAKESEL File=OUT$TEMPLAT.:E05TSI                          WED 07/30/97 04:17 Page:193

   3431  1 000127   200054 450100                    STZ     K,,AUTO

     1120     3432
     1121     3433    5                        IF SUBSTR(SPTR$->OU$OUTSYM.TEXT,I,1) =

   3433  1 000130   200051 470500                    LDP0    SPTR$,,AUTO
         1 000131   000004 236100                    LDQ     4,,PR0
         1 000132   000033 772000                    QRL     27
         1 000133   200052 235100                    LDA     I,,AUTO
         1 000134   200054 236100                    LDQ     K,,AUTO
         1 000135   040006 106505                    CMPC    fill='040'O
         1 000136   000004 200001                    ADSC9   4,A,PR0                  cn=1,n=1
         1 000137   000000 000001 0                  ADSC9   HEX_TABLE,Q              cn=0,n=1
         1 000140   000146 601000 1                  TNZ     s:3440

     1122     3434    5                             SUBSTR(HEX_TABLE,K,1)
     1123     3435    5                        THEN
     1124     3436    6                        DO;

     1125     3437    6                             J = J * 16;

   3437  1 000141   200053 235100                    LDA     J,,AUTO
         1 000142   000004 735000                    ALS     4
         1 000143   200053 755100                    STA     J,,AUTO

     1126     3438    6                             J = J + K;

   3438  1 000144   200053 036100                    ADLQ    J,,AUTO
         1 000145   200053 756100                    STQ     J,,AUTO

     1127     3439    6                           END;

     1128     3440    5                      END;                 /* DO K */

   3440  1 000146   200054 054100                    AOS     K,,AUTO
         1 000147   200054 235100                    LDA     K,,AUTO
PL6.E3A0      #010=OUT$MAKESEL File=OUT$TEMPLAT.:E05TSI                          WED 07/30/97 04:17 Page:194
         1 000150   000017 115007                    CMPA    15,DL
         1 000151   000130 604400 1                  TMOZ    s:3433

     1129     3441    4                 END;                      /* DO I */

   3441  1 000152   200052 054100                    AOS     I,,AUTO
         1 000153   200051 470500                    LDP0    SPTR$,,AUTO
         1 000154   000004 236100                    LDQ     4,,PR0
         1 000155   000033 772000                    QRL     27
         1 000156   200052 116100                    CMPQ    I,,AUTO
         1 000157   000127 605400 1                  TPNZ    s:3431

     1130     3442
     1131     3443    3              CALL STUFNUM(J);

   3443  1 000160   200053 631500                    EPPR1   J,,AUTO
         1 000161   200057 451500                    STP1    K+3,,AUTO
         1 000162   000165 701000 1                  TSX1    STUFNUM
         1 000163   000000 011000                    NOP     0

     1132     3444
     1133     3445    3           END;                            /* DO CASE NODE.CODE */

     1134     3446    2        END;                               /* DO CASE NODE.CODE */

     1135     3447
     1136     3448    1        RETURN;

   3448  1 000164   000000 702200 xent               TSX2  ! X66_ARET

     1137     3449
     1138     3450        %EJECT;
PL6.E3A0      #010=OUT$MAKESEL File=OUT$TEMPLAT.:E05TSI                          WED 07/30/97 04:17 Page:195
     1139     3451
     1140     3452        /*
     1141     3453             Begin  INTERNAL ROUTINE  STUFNUM
     1142     3454                                                                          */
     1143     3455
     1144     3456    1   STUFNUM: PROC (NUMBER_);

   3456  1 000165   200056 741300       STUFNUM      STX1  ! K+2,,AUTO

     1145     3457
     1146     3458    2   DCL NUMBER_ SBIN;
     1147     3459    2   DCL CHARS_ REDEF NUMBER_ CHAR(4);
     1148     3460
     1149     3461    2   DCL KK SBIN;
     1150     3462
     1151     3463    3        DO KK = 0 TO 2;

   3463  1 000166   200060 450100                    STZ     KK,,AUTO

     1152     3464
     1153     3465    3             IF SUBSTR(CHARS_,KK,1) ~= BINASC(0)

   3465  1 000167   200057 470500                    LDP0    @NUMBER_,,AUTO
         1 000170   200060 235100                    LDA     KK,,AUTO
         1 000171   040000 106505                    CMPC    fill='040'O
         1 000172   000000 000001                    ADSC9   0,A,PR0                  cn=0,n=1
         1 000173   000001 000001 2                  ADSC9   1                        cn=0,n=1
         1 000174   000201 601000 1                  TNZ     OUT_STUFNUM

     1154     3466    3             THEN
     1155     3467    3                  GOTO OUT_STUFNUM;
     1156     3468    3           END;                            /* DO KK */

   3468  1 000175   200060 054100                    AOS     KK,,AUTO
         1 000176   200060 235100                    LDA     KK,,AUTO
         1 000177   000002 115007                    CMPA    2,DL
         1 000200   000167 604400 1                  TMOZ    s:3465
PL6.E3A0      #010=OUT$MAKESEL File=OUT$TEMPLAT.:E05TSI                          WED 07/30/97 04:17 Page:196

   3465  1 000201                       OUT_STUFNUM  null
     1157     3469    2   OUT_STUFNUM: ;
     1158     3470    2        OUT_CHOICE.TYP_ = 6 /* TYP_CHOICE# */;

   3470  1 000201   006000 236003                    LDQ     3072,DU
         1 000202   200004 552140                    STBQ    OUT_CHOICE,'40'O,AUTO

     1159     3471    2        OUT_CHOICE.CNT_ = 4 - KK;

   3471  1 000203   000004 236007                    LDQ     4,DL
         1 000204   200060 136100                    SBLQ    KK,,AUTO
         1 000205   000011 736000                    QLS     9
         1 000206   200004 552130                    STBQ    OUT_CHOICE,'30'O,AUTO

     1160     3472    2        OUT_CHOICE.ARG_ = SUBSTR (CHARS_, KK, 4 - KK);

   3472  1 000207   777773 620005                    EAX0    -5,AL
         1 000210   777777 660003                    ERX0    -1,DU
         1 000211   040100 100545                    MLR     fill='040'O
         1 000212   000000 000010                    ADSC9   0,A,PR0                  cn=0,n=*X0
         1 000213   200004 600214                    ADSC9   OUT_CHOICE,,AUTO         cn=3,n=140

     1161     3473    2        CALL OUT$ADDSTR (OUT_CHOICE, SIZEC(OUT_CHOICE.TYP_) +

   3473  1 000214   200004 236100                    LDQ     OUT_CHOICE,,AUTO
         1 000215   000011 772000                    QRL     9
         1 000216   777777 376007                    ANQ     -1,DL
         1 000217   000003 036007                    ADLQ    3,DL
         1 000220   200062 756100                    STQ     @NUM_+2,,AUTO
         1 000221   200062 631500                    EPPR1   @NUM_+2,,AUTO
         1 000222   200065 451500                    STP1    @NUM_+5,,AUTO
         1 000223   200004 633500                    EPPR3   OUT_CHOICE,,AUTO
         1 000224   200064 453500                    STP3    @NUM_+4,,AUTO
         1 000225   200064 630500                    EPPR0   @NUM_+4,,AUTO
         1 000226   000020 631400 xsym               EPPR1   B_VECTNIL+16
         1 000227   000000 701000 xent               TSX1    OUT$ADDSTR
PL6.E3A0      #010=OUT$MAKESEL File=OUT$TEMPLAT.:E05TSI                          WED 07/30/97 04:17 Page:197
         1 000230   000000 011000                    NOP     0

     1162     3474    2             SIZEC(OUT_CHOICE.CNT_) + OUT_CHOICE.CNT_);
     1163     3475
     1164     3476    2        RETURN;

   3476  1 000231   200056 221300                    LDX1  ! K+2,,AUTO
         1 000232   000001 702211                    TSX2  ! 1,X1

     1165     3477    2   END STUFNUM;
     1166     3478
     1167     3479        /*
     1168     3480                  Begin INTERNAL ROUTINE  STUFTXT
     1169     3481                                                                          */
     1170     3482
     1171     3483    1   STUFTXT: PROC (TEXT_,NUM_);

   3483  1 000233   200056 741300       STUFTXT      STX1  ! K+2,,AUTO

     1172     3484
     1173     3485    2   DCL NUM_ SBIN;
     1174     3486    2   DCL TEXT_ CHAR(NUM_);
     1175     3487
     1176     3488    2        OUT_CHOICE.TYP_ = 6 /* TYP_CHOICE# */;

   3488  1 000234   006000 236003                    LDQ     3072,DU
         1 000235   200004 552140                    STBQ    OUT_CHOICE,'40'O,AUTO

     1177     3489    2        OUT_CHOICE.CNT_ = NUM_;

   3489  1 000236   200060 470500                    LDP0    @NUM_,,AUTO
         1 000237   000000 236100                    LDQ     0,,PR0
         1 000240   000011 736000                    QLS     9
         1 000241   200004 552130                    STBQ    OUT_CHOICE,'30'O,AUTO

     1178     3490    2        OUT_CHOICE.ARG_ = TEXT_;

PL6.E3A0      #010=OUT$MAKESEL File=OUT$TEMPLAT.:E05TSI                          WED 07/30/97 04:17 Page:198
   3490  1 000242   000000 720100                    LXL0    0,,PR0
         1 000243   200057 471500                    LDP1    @TEXT_,,AUTO
         1 000244   040100 100540                    MLR     fill='040'O
         1 000245   100000 000010                    ADSC9   0,,PR1                   cn=0,n=*X0
         1 000246   200004 600214                    ADSC9   OUT_CHOICE,,AUTO         cn=3,n=140

     1179     3491
     1180     3492    2        CALL OUT$ADDSTR (OUT_CHOICE, SIZEC(OUT_CHOICE.TYP_) +

   3492  1 000247   000000 235100                    LDA     0,,PR0
         1 000250   000003 035007                    ADLA    3,DL
         1 000251   200062 755100                    STA     @NUM_+2,,AUTO
         1 000252   200062 633500                    EPPR3   @NUM_+2,,AUTO
         1 000253   200065 453500                    STP3    @NUM_+5,,AUTO
         1 000254   200004 634500                    EPPR4   OUT_CHOICE,,AUTO
         1 000255   200064 454500                    STP4    @NUM_+4,,AUTO
         1 000256   200064 630500                    EPPR0   @NUM_+4,,AUTO
         1 000257   000020 631400 xsym               EPPR1   B_VECTNIL+16
         1 000260   000000 701000 xent               TSX1    OUT$ADDSTR
         1 000261   000000 011000                    NOP     0

     1181     3493    2             SIZEC(OUT_CHOICE.CNT_) + NUM_);
     1182     3494
     1183     3495    2        RETURN;

   3495  1 000262   200056 221300                    LDX1  ! K+2,,AUTO
         1 000263   000001 702211                    TSX2  ! 1,X1
     1184     3496
     1185     3497    2   END STUFTXT;
     1186     3498    1   END OUT$MAKESEL;
     1187     3499        %EOD;

PL6.E3A0      #010=OUT$MAKESEL File=OUT$TEMPLAT.:E05TSI                          WED 07/30/97 04:17 Page:199
--  Include file information  --

   OUT_SUBS_C.:E05TOU  is referenced.
   XU_MACRO_C.:E05TOU  is referenced.
   B$JIT_C.:E05TOU  was found in the system file and is never referenced.
   CP_6_C.:E05TOU  was found in the system file and is never referenced.
      No diagnostics issued in procedure OUT$MAKESEL.
PL6.E3A0      #010=OUT$MAKESEL File=OUT$TEMPLAT.:E05TSI                          WED 07/30/97 04:17 Page:200

 **** Variables and constants ****

  ****  Section 000  Data  OUT$MAKESEL

  ****  Scalars and arrays  ****
OctLoc.c.b A Datatyp(siz) R M Lvl/name                 OctLoc.c.b A Datatyp(siz) R M Lvl/name

     0-0-0/c CHAR(16)    r     1 HEX_TABLE                  4-0-0/c CHAR(8)     r     1 OCT_TABLE

  ****  Auto variables  ****

  ****  Scalars and arrays  ****
OctLoc.c.b A Datatyp(siz) R M Lvl/name                 OctLoc.c.b A Datatyp(siz) R M Lvl/name

     3-0-0/w PTR         r     1 @NODE_PTR$                57-0-0/w PTR         r     1 @NUMBER_
    60-0-0/w PTR         r     1 @NUM_                     57-0-0/w PTR         r     1 @TEXT_
    *0-0-0/w CHAR(4)     r     1 CHARS_                    52-0-0/w SBIN        r     1 I
    53-0-0/w SBIN        r     1 J                         54-0-0/w SBIN        r     1 K
    60-0-0/w SBIN        r     1 KK                        *0-0-0/w PTR         r     1 NODE_PTR$
    *0-0-0/w SBIN        r     1 NUMBER_                   *0-0-0/w SBIN        r     1 NUM_
     4-0-0/c STRC(1287)  r     1 OUT_CHOICE                50-0-0/w PTR         r     1 PTR$
    51-0-0/w PTR         r     1 SPTR$                     *0-0-0/c ACHR        r     1 TEXT_

  ****  BASED and DCB variables  ****

  ****  Scalars and arrays  ****
OctLoc.c.b A Datatyp(siz) R M Lvl/name                 OctLoc.c.b A Datatyp(siz) R M Lvl/name

     0-0-0/w STRC(144)   r     1 OU$OUTBLK                  0-0-0/w ASTR(153)   r     1 OU$OUTSYM


   Procedure OUT$MAKESEL requires 180 words for executable code.
   Procedure OUT$MAKESEL requires 54 words of local(AUTO) storage.
PL6.E3A0      #010=OUT$MAKESEL File=OUT$TEMPLAT.:E05TSI                          WED 07/30/97 04:17 Page:201
          *** CROSS REFERENCE LISTING ***
**     DENOTES     IDENTIFIER DEFINITION
<<                 IDENTIFIER'S VALUE SET
>>                 IDENTIFIER'S VALUE USED
<>                 IDENTIFIER SET AND/OR USED
--                 IDENTIFIER REFERENCED
PL6.E3A0      #010=OUT$MAKESEL File=OUT$TEMPLAT.:E05TSI                          WED 07/30/97 04:17 Page:202
          MINI XREF LISTING

CHARS_ IN PROCEDURE STUFNUM
      3459**DCL      3465>>IF       3472>>ASSIGN
HEX_TABLE
      3375**DCL      3433>>IF
I
      3368**DCL      3407<<DOINDEX  3411>>IF       3429<<DOINDEX  3433>>IF
J
      3369**DCL      3397<<CALLBLT  3399<>CALL     3403<<ASSIGN   3415<<ASSIGN   3415>>ASSIGN   3416<<ASSIGN
      3416>>ASSIGN   3421<>CALL     3425<<ASSIGN   3437<<ASSIGN   3437>>ASSIGN   3438<<ASSIGN   3438>>ASSIGN
      3443<>CALL
K
      3370**DCL      3386<<ASSIGN   3387<>CALL     3409<<DOINDEX  3411>>IF       3416>>ASSIGN   3431<<DOINDEX
      3433>>IF       3438>>ASSIGN
KK IN PROCEDURE STUFNUM
      3461**DCL      3463<<DOINDEX  3465>>IF       3471>>ASSIGN   3472>>ASSIGN   3472>>ASSIGN
NODE_PTR$
        28**DCL        23--PROC     3383>>DOCASE   3386>>ASSIGN   3387>>CALL     3387>>CALL     3391>>ASSIGN
NUMBER_ IN PROCEDURE STUFNUM
      3458**DCL      3456--PROC     3459--REDEF
NUM_ IN PROCEDURE STUFTXT
      3485**DCL      3483--PROC     3486--IMP-SIZ  3489>>ASSIGN   3490>>ASSIGN   3492>>CALL
OCT_TABLE
      3376**DCL      3411>>IF
OU$OUTBLK.CODE
      3317**DCL      3383>>DOCASE   3393>>DOCASE
OU$OUTBLK.SUBLK$
      3342**DCL      3391>>ASSIGN   3405>>ASSIGN   3427>>ASSIGN
OU$OUTSYM.COUNT
      3294**DCL      3297--IMP-SIZ  3386>>ASSIGN   3387>>CALL     3397>>CALLBLT  3407>>DOINDEX  3411>>IF
      3429>>DOINDEX  3433>>IF
OU$OUTSYM.TEXT
      3297**DCL      3387<>CALL     3397>>CALLBLT  3411>>IF       3433>>IF
PL6.E3A0      #010=OUT$MAKESEL File=OUT$TEMPLAT.:E05TSI                          WED 07/30/97 04:17 Page:203
OUT$ADDSTR
      3352**DCL-ENT  3473--CALL     3492--CALL
OUT_CHOICE
      3359**DCL      3473<>CALL     3492<>CALL
OUT_CHOICE.ARG_
      3362**DCL      3472<<ASSIGN   3490<<ASSIGN
OUT_CHOICE.CNT_
      3361**DCL      3471<<ASSIGN   3473--CALL     3473>>CALL     3489<<ASSIGN   3492--CALL
OUT_CHOICE.TYP_
      3360**DCL      3470<<ASSIGN   3473--CALL     3488<<ASSIGN   3492--CALL
OUT_STUFNUM IN PROCEDURE STUFNUM
      3465**LABEL    3467--GOTO
PTR$
      3366**DCL      3391<<ASSIGN   3393>>DOCASE   3397>>CALLBLT  3397>>CALLBLT  3405>>ASSIGN   3427>>ASSIGN
SPTR$
      3367**DCL      3405<<ASSIGN   3407>>DOINDEX  3411>>IF       3411>>IF       3427<<ASSIGN   3429>>DOINDEX
      3433>>IF       3433>>IF
STUFNUM
      3456**PROC     3399--CALL     3421--CALL     3443--CALL
STUFTXT
      3483**PROC     3387--CALL
TEXT_ IN PROCEDURE STUFTXT
      3486**DCL      3483--PROC     3490>>ASSIGN

