PL6.E3A0      #011=OUT$PTRLIST File=OUT$TEMPLAT.:E05TSI                          WED 07/30/97 04:18 Page:204
     1188        1        /*M* OUT$PTRLIST produces pointerlists from nodes */
     1189        2        /*T***********************************************************/
     1190        3        /*T*                                                         */
     1191        4        /*T* Copyright (c) Bull HN Information Systems Inc., 1997    */
     1192        5        /*T*                                                         */
     1193        6        /*T***********************************************************/
     1194        7
     1195        8        %SET LISTSUB='1'B;
     1196        9
     1197       10        /*
     1198       11          ###  #   # #####   #   ####  ##### ####  #      ###   ###  #####
     1199       12         # # # #   #   #    ###  #   #   #   #   # #       #   #   #   #
     1200       13         # # # #   #   #   # #   #   #   #   #   # #       #   #       #
     1201       14         #  ## #   #   #    ###  ####    #   ####  #       #    ###    #
     1202       15         #   # #   #   #     # # #       #   # #   #       #       #   #
     1203       16         #   # #   #   #    ###  #       #   #  #  #       #   #   #   #
     1204       17          ###   ###    #     #   #       #   #   # #####  ###   ###    #
     1205       18                                                                          */
     1206       19
     1207       20
     1208       21        OUT$PTRLIST: PROC (NODE_PTR$, TYPE_IND);
     1209       22
     1210       23                                           /*
     1211       24                                                ARGUMENTS
     1212       25                                                                          */
     1213       26    1   DCL NODE_PTR$ PTR;
     1214       27    1   DCL TYPE_IND SBIN;
     1215       28
     1216       29                                           /*
     1217       30                                                INCLUDES
     1218       31                                                                          */
     1219       32        %INCLUDE XU_MACRO_C;
     1220     3138        %INCLUDE OUT_SUBS_C;
     1221     3261
     1222     3262             %PARSE$SYM     (NAME=OU$OUTSYM,
     1223     3263                                 STCLASS="BASED");
     1224     3301             %PARSE$OUT     (NAME=OU$OUTBLK,
PL6.E3A0      #011=OUT$PTRLIST File=OUT$TEMPLAT.:E05TSI                          WED 07/30/97 04:18 Page:205
     1225     3302                                 STCLASS="BASED");
     1226     3347
     1227     3348        %INCLUDE OUT_DATA_R;
     1228     3363
     1229     3364                                           /*
     1230     3365                                                EXTERNALS
     1231     3366                                                                          */
     1232     3367    1   DCL OUT$ADDTKN ENTRY(2);
     1233     3368    1   DCL OUT$ADDSTR ENTRY(2);
     1234     3369    1   DCL OUT$CHLIST ENTRY(2);
     1235     3370    1   DCL OUT$STUFCNT ENTRY(1);
     1236     3371
     1237     3372
     1238     3373                                           /*
     1239     3374                                                LOCALS
     1240     3375                                                                          */
     1241     3376    1   DCL TPOSN_HERE SBIN;
     1242     3377    1   DCL I SBIN;
     1243     3378    1   DCL J SBIN;
     1244     3379    1   DCL SPTR$ PTR;
     1245     3380    1   DCL PTR$ PTR;
     1246     3381
     1247     3382
     1248     3383        %EJECT;
PL6.E3A0      #011=OUT$PTRLIST File=OUT$TEMPLAT.:E05TSI                          WED 07/30/97 04:18 Page:206
     1249     3384        /*
     1250     3385             Begin  O U T $ P T R L I S T  main
     1251     3386                                                                          */
     1252     3387
     1253     3388    1        CALL OUT$ADDTKN (4 /* TYP_PTRLIST# */, TPOSN_HERE);
     1254     3389
     1255     3390    2        DO I = 1 TO (NODE_PTR$ -> OU$OUTBLK.NSUBLKS - 1);
     1256     3391
     1257     3392    2             CALL OUT$CHLIST (NODE_PTR$ -> OU$OUTBLK.SUBLK$(I),
     1258     3393    2                  TYPE_IND);
     1259     3394
     1260     3395    2           END;                            /* DO I = 1 TO SUBLKS */
     1261     3396
     1262     3397    1        CALL OUT$STUFCNT (TPOSN_HERE);
     1263     3398
     1264     3399    1        RETURN;
     1265     3400
     1266     3401    1   END OUT$PTRLIST;
     1267     3402        %EOD;

PL6.E3A0      #011=OUT$PTRLIST File=OUT$TEMPLAT.:E05TSI                          WED 07/30/97 04:18 Page:207
--  Include file information  --

   OUT_DATA_R.:E05TOU  cannot be made into a system file and is referenced.
   OUT_SUBS_C.:E05TOU  is referenced.
   XU_MACRO_C.:E05TOU  is referenced.
   B$JIT_C.:E05TOU  was found in the system file and is never referenced.
   CP_6_C.:E05TOU  was found in the system file and is never referenced.
      No diagnostics issued in procedure OUT$PTRLIST.

   Procedure OUT$PTRLIST requires 38 words for executable code.
   Procedure OUT$PTRLIST requires 12 words of local(AUTO) storage.

PL6.E3A0      #011=OUT$PTRLIST File=OUT$TEMPLAT.:E05TSI                          WED 07/30/97 04:18 Page:208

 Object Unit name= OUT$PTRLIST                                File name= OUT$TEMPLAT.:E05TOU
 UTS= JUL 30 '97 04:18:03.76 WED                              Compiler= PL-6/E31         Sev=      00
 SharedLib= :SHARED_SYSTEM                                    Alt SharedLib=


    ****  Control sections  ****

 Sect   Type Bound  Init  Size OctSiz  Section name(segment info)
    0   Proc  even  none    38     46  OUT$PTRLIST
    1  RoData even  none     1      1  OUT$PTRLIST

    ****  Entry defs  ****

                              Check   Calling
                             calling  sequence
  Sect OctLoc Primary Altret sequence   type   Parms  Name
     0      0   yes            yes      Std        2  OUT$PTRLIST

  ****  Entry refs  ****

         Check        Calling
        calling       sequence
Altret sequence SRef   type   Args  Name
         yes           Std       2 OUT$ADDTKN
         yes           Std       2 OUT$CHLIST
         yes           Std       1 OUT$STUFCNT
                       nStd      0 X66_AUTO_2
                       Std       0 B_CONSPOOL_D
                       nStd      0 X66_ARET

  ****  Data refs  ****

  Flags:  r = read only, s = secondary
Flgs Name                             Flgs Name                             Flgs Name
     OUT_MID                               B_VECTNIL
PL6.E3A0      #011=OUT$PTRLIST File=OUT$TEMPLAT.:E05TSI                          WED 07/30/97 04:18 Page:209

  ****  Segment refs  ****

  Flags:  r = read only, s = secondary
Flgs Name                             Flgs Name                             Flgs Name
     ISSID
PL6.E3A0      #011=OUT$PTRLIST File=OUT$TEMPLAT.:E05TSI                          WED 07/30/97 04:18 Page:210


     1188        1        /*M* OUT$PTRLIST produces pointerlists from nodes */
     1189        2        /*T***********************************************************/
     1190        3        /*T*                                                         */
     1191        4        /*T* Copyright (c) Bull HN Information Systems Inc., 1997    */
     1192        5        /*T*                                                         */
     1193        6        /*T***********************************************************/
     1194        7
     1195        8        %SET LISTSUB='1'B;
     1196        9
     1197       10        /*
     1198       11          ###  #   # #####   #   ####  ##### ####  #      ###   ###  #####
     1199       12         # # # #   #   #    ###  #   #   #   #   # #       #   #   #   #
     1200       13         # # # #   #   #   # #   #   #   #   #   # #       #   #       #
     1201       14         #  ## #   #   #    ###  ####    #   ####  #       #    ###    #
     1202       15         #   # #   #   #     # # #       #   # #   #       #       #   #
     1203       16         #   # #   #   #    ###  #       #   #  #  #       #   #   #   #
     1204       17          ###   ###    #     #   #       #   #   # #####  ###   ###    #
     1205       18                                                                          */
     1206       19
     1207       20
     1208       21        OUT$PTRLIST: PROC (NODE_PTR$, TYPE_IND);

     21  0 000000   000000 700200 xent  OUT$PTRLIST  TSX0  ! X66_AUTO_2
         0 000001   000014 000002                    ZERO    12,2

     1209       22
     1210       23                                           /*
     1211       24                                                ARGUMENTS
     1212       25                                                                          */
     1213       26    1   DCL NODE_PTR$ PTR;
     1214       27    1   DCL TYPE_IND SBIN;
     1215       28
     1216       29                                           /*
     1217       30                                                INCLUDES
     1218       31                                                                          */
     1219       32        %INCLUDE XU_MACRO_C;
PL6.E3A0      #011=OUT$PTRLIST File=OUT$TEMPLAT.:E05TSI                          WED 07/30/97 04:18 Page:211
     1220     3138        %INCLUDE OUT_SUBS_C;
     1221     3261
     1222     3262             %PARSE$SYM     (NAME=OU$OUTSYM,
     1223     3263                                 STCLASS="BASED");
     1224     3301             %PARSE$OUT     (NAME=OU$OUTBLK,
     1225     3302                                 STCLASS="BASED");
     1226     3347
     1227     3348        %INCLUDE OUT_DATA_R;
     1228     3363
     1229     3364                                           /*
     1230     3365                                                EXTERNALS
     1231     3366                                                                          */
     1232     3367    1   DCL OUT$ADDTKN ENTRY(2);
     1233     3368    1   DCL OUT$ADDSTR ENTRY(2);
     1234     3369    1   DCL OUT$CHLIST ENTRY(2);
     1235     3370    1   DCL OUT$STUFCNT ENTRY(1);
     1236     3371
     1237     3372
     1238     3373                                           /*
     1239     3374                                                LOCALS
     1240     3375                                                                          */
     1241     3376    1   DCL TPOSN_HERE SBIN;
     1242     3377    1   DCL I SBIN;
     1243     3378    1   DCL J SBIN;
     1244     3379    1   DCL SPTR$ PTR;
     1245     3380    1   DCL PTR$ PTR;
     1246     3381
     1247     3382
     1248     3383        %EJECT;
PL6.E3A0      #011=OUT$PTRLIST File=OUT$TEMPLAT.:E05TSI                          WED 07/30/97 04:18 Page:212
     1249     3384        /*
     1250     3385             Begin  O U T $ P T R L I S T  main
     1251     3386                                                                          */
     1252     3387
     1253     3388    1        CALL OUT$ADDTKN (4 /* TYP_PTRLIST# */, TPOSN_HERE);

   3388  0 000002   200005 630500                    EPPR0   TPOSN_HERE,,AUTO
         0 000003   200013 450500                    STP0    I+5,,AUTO
         0 000004   000000 236000 1                  LDQ     0
         0 000005   200012 756100                    STQ     I+4,,AUTO
         0 000006   200012 630500                    EPPR0   I+4,,AUTO
         0 000007   000020 631400 xsym               EPPR1   B_VECTNIL+16
         0 000010   000000 701000 xent               TSX1    OUT$ADDTKN
         0 000011   000000 011000                    NOP     0

     1254     3389
     1255     3390    2        DO I = 1 TO (NODE_PTR$ -> OU$OUTBLK.NSUBLKS - 1);

   3390  0 000012   000001 235007                    LDA     1,DL
         0 000013   200006 755100                    STA     I,,AUTO
         0 000014   000031 710000 0                  TRA     s:3395+1

     1256     3391
     1257     3392    2             CALL OUT$CHLIST (NODE_PTR$ -> OU$OUTBLK.SUBLK$(I),

   3392  0 000015   200003 470500                    LDP0    @NODE_PTR$,,AUTO
         0 000016   000000 471500                    LDP1    0,,PR0
         0 000017   200004 236100                    LDQ     @TYPE_IND,,AUTO
         0 000020   200013 756100                    STQ     I+5,,AUTO
         0 000021   200006 720100                    LXL0    I,,AUTO
         0 000022   100003 633510                    EPPR3   3,X0,PR1
         0 000023   200012 453500                    STP3    I+4,,AUTO
         0 000024   200012 630500                    EPPR0   I+4,,AUTO
         0 000025   000020 631400 xsym               EPPR1   B_VECTNIL+16
         0 000026   000000 701000 xent               TSX1    OUT$CHLIST
         0 000027   000000 011000                    NOP     0

PL6.E3A0      #011=OUT$PTRLIST File=OUT$TEMPLAT.:E05TSI                          WED 07/30/97 04:18 Page:213
     1258     3393    2                  TYPE_IND);
     1259     3394
     1260     3395    2           END;                            /* DO I = 1 TO SUBLKS */

   3395  0 000030   200006 054100                    AOS     I,,AUTO
         0 000031   200003 470500                    LDP0    @NODE_PTR$,,AUTO
         0 000032   000000 471500                    LDP1    0,,PR0
         0 000033   100001 236100                    LDQ     1,,PR1
         0 000034   000022 772000                    QRL     18
         0 000035   200006 116100                    CMPQ    I,,AUTO
         0 000036   000015 605400 0                  TPNZ    s:3392

     1261     3396
     1262     3397    1        CALL OUT$STUFCNT (TPOSN_HERE);

   3397  0 000037   200005 633500                    EPPR3   TPOSN_HERE,,AUTO
         0 000040   200012 453500                    STP3    I+4,,AUTO
         0 000041   200012 630500                    EPPR0   I+4,,AUTO
         0 000042   000017 631400 xsym               EPPR1   B_VECTNIL+15
         0 000043   000000 701000 xent               TSX1    OUT$STUFCNT
         0 000044   000000 011000                    NOP     0

     1263     3398
     1264     3399    1        RETURN;

   3399  0 000045   000000 702200 xent               TSX2  ! X66_ARET
     1265     3400
     1266     3401    1   END OUT$PTRLIST;
     1267     3402        %EOD;

PL6.E3A0      #011=OUT$PTRLIST File=OUT$TEMPLAT.:E05TSI                          WED 07/30/97 04:18 Page:214
--  Include file information  --

   OUT_DATA_R.:E05TOU  cannot be made into a system file and is referenced.
   OUT_SUBS_C.:E05TOU  is referenced.
   XU_MACRO_C.:E05TOU  is referenced.
   B$JIT_C.:E05TOU  was found in the system file and is never referenced.
   CP_6_C.:E05TOU  was found in the system file and is never referenced.
      No diagnostics issued in procedure OUT$PTRLIST.
PL6.E3A0      #011=OUT$PTRLIST File=OUT$TEMPLAT.:E05TSI                          WED 07/30/97 04:18 Page:215

 **** Variables and constants ****

  ****  Auto variables  ****

  ****  Scalars and arrays  ****
OctLoc.c.b A Datatyp(siz) R M Lvl/name                 OctLoc.c.b A Datatyp(siz) R M Lvl/name

     3-0-0/w PTR         r     1 @NODE_PTR$                 4-0-0/w PTR         r     1 @TYPE_IND
     6-0-0/w SBIN        r     1 I                         *0-0-0/w PTR         r     1 NODE_PTR$
     5-0-0/w SBIN        r     1 TPOSN_HERE                *0-0-0/w SBIN        r     1 TYPE_IND

  ****  BASED and DCB variables  ****

  ****  Scalars and arrays  ****
OctLoc.c.b A Datatyp(siz) R M Lvl/name                 OctLoc.c.b A Datatyp(siz) R M Lvl/name

     0-0-0/w STRC(144)   r     1 OU$OUTBLK                  0-0-0/w ASTR(153)   r     1 OU$OUTSYM


   Procedure OUT$PTRLIST requires 38 words for executable code.
   Procedure OUT$PTRLIST requires 12 words of local(AUTO) storage.
PL6.E3A0      #011=OUT$PTRLIST File=OUT$TEMPLAT.:E05TSI                          WED 07/30/97 04:18 Page:216
          *** CROSS REFERENCE LISTING ***
**     DENOTES     IDENTIFIER DEFINITION
<<                 IDENTIFIER'S VALUE SET
>>                 IDENTIFIER'S VALUE USED
<>                 IDENTIFIER SET AND/OR USED
--                 IDENTIFIER REFERENCED
PL6.E3A0      #011=OUT$PTRLIST File=OUT$TEMPLAT.:E05TSI                          WED 07/30/97 04:18 Page:217
          MINI XREF LISTING

I
      3377**DCL      3390<<DOINDEX  3392>>CALL
NODE_PTR$
        26**DCL        21--PROC     3390>>DOINDEX  3392>>CALL
OU$OUTBLK.NSUBLKS
      3320**DCL      3390>>DOINDEX
OU$OUTBLK.SUBLK$
      3341**DCL      3392<>CALL
OU$OUTSYM.COUNT
      3293**DCL      3296--IMP-SIZ
OUT$ADDTKN
      3367**DCL-ENT  3388--CALL
OUT$CHLIST
      3369**DCL-ENT  3392--CALL
OUT$STUFCNT
      3370**DCL-ENT  3397--CALL
OUT_MID
      3357**DCL      3358--REDEF
OUT_VALUE.CHAR4
      3361**DCL      3361--REDEF    3361--REDEF
TPOSN_HERE
      3376**DCL      3388<>CALL     3397<>CALL
TYPE_IND
        27**DCL        21--PROC     3392<>CALL

PL6.E3A0      #012=OUT$TEMPL File=OUT$TEMPLAT.:E05TSI                            WED 07/30/97 04:18 Page:218
     1268        1        /*M* OUT$TEMPL build a template image into OUT_TEMPLATE */
     1269        2        /*T***********************************************************/
     1270        3        /*T*                                                         */
     1271        4        /*T* Copyright (c) Bull HN Information Systems Inc., 1997    */
     1272        5        /*T*                                                         */
     1273        6        /*T***********************************************************/
     1274        7        %SET LISTSUB='1'B;
     1275        8
     1276        9        /*
     1277       10          ###  #   # #####   #   ##### ##### #   # ####  #
     1278       11         # # # #   #   #    ###    #   #     ## ## #   # #
     1279       12         # # # #   #   #   # #     #   #     # # # #   # #
     1280       13         #  ## #   #   #    ###    #   ####  #   # ####  #
     1281       14         #   # #   #   #     # #   #   #     #   # #     #
     1282       15         #   # #   #   #    ###    #   #     #   # #     #
     1283       16          ###   ###    #     #     #   ##### #   # #     #####
     1284       17                                                                          */
     1285       18
     1286       19        OUT$TEMPL: PROC (NODE$);
     1287       20                                                /**/
     1288       21                                           /*
     1289       22                                                ARGUMENTS
     1290       23                                                                          */
     1291       24    1   DCL NODE$ PTR;
     1292       25                                           /*
     1293       26                                                LOCAL AUTOMATIC
     1294       27                                                                          */
     1295       28    1   DCL TPOSN_HERE UBIN WORD;
     1296       29    1   DCL I SBIN WORD;
     1297       30    1   DCL MATCH_TYPE SBIN WORD;
     1298       31    1   DCL PTR$ PTR;
     1299       32                                           /*
     1300       33                                                EXTERNALS
     1301       34                                                                          */
     1302       35    1   DCL OUT$ADDTKN ENTRY(2);
     1303       36    1   DCL OUT$IMAG ENTRY(2);
     1304       37    1   DCL OUT$TXT ENTRY(1);
PL6.E3A0      #012=OUT$TEMPL File=OUT$TEMPLAT.:E05TSI                            WED 07/30/97 04:18 Page:219
     1305       38    1   DCL OUT$PTRLIST ENTRY(2);
     1306       39    1   DCL OUT$STUFCNT ENTRY(1);
     1307       40    1   DCL OUT$INTRIN ENTRY(1);
     1308       41                                           /*
     1309       42                                                INCLUDES
     1310       43                                                                          */
     1311       44        %INCLUDE XU_MACRO_C;
     1312     3150        %INCLUDE OUT_SUBS_C;
     1313     3273
     1314     3274             %PARSE$SYM     (NAME=OU$OUTSYM,
     1315     3275                                 STCLASS="BASED");
     1316     3313             %PARSE$OUT     (NAME=OU$OUTBLK,
     1317     3314                                 STCLASS="BASED");
     1318     3359
     1319     3360        %EJECT;
PL6.E3A0      #012=OUT$TEMPL File=OUT$TEMPLAT.:E05TSI                            WED 07/30/97 04:18 Page:220
     1320     3361        /*
     1321     3362                  Begin   O U T $ T E M P L  main
     1322     3363                                                                          */
     1323     3364
     1324     3365    1        CALL OUT$ADDTKN (0 /* TYP_TEMPLATE# */, TPOSN_HERE);
     1325     3366
     1326     3367    2        DO I = 0 TO (NODE$ -> OU$OUTBLK.NSUBLKS - 1);
     1327     3368
     1328     3369    2             PTR$ = NODE$ -> OU$OUTBLK.SUBLK$(I);
     1329     3370
     1330     3371    3             DO CASE (PTR$ -> OU$OUTBLK.CODE);
     1331     3372
     1332     3373    3             CASE (31 /* T_CHLIST# */);
     1333     3374    3                CALL OUT$IMAG (PTR$ -> OU$OUTBLK.SUBLK$(0),MATCH_TYPE);
     1334     3375    3                CALL OUT$PTRLIST (PTR$,MATCH_TYPE);
     1335     3376
     1336     3377    3             CASE (79 /* T_TEXT# */);
     1337     3378    3                CALL OUT$TXT (PTR$);
     1338     3379
     1339     3380
     1340     3381    3             CASE (90 /* T_IMAGE# */);
     1341     3382    3                CALL OUT$IMAG (PTR$,MATCH_TYPE);
     1342     3383
     1343     3384
     1344     3385    3             CASE (60 /* T_INTRINSIC# */);
     1345     3386    3                CALL OUT$INTRIN (PTR$);
     1346     3387
     1347     3388
     1348     3389    3             END;                          /* DO CASE OUTBLK.CODE */
     1349     3390
     1350     3391    2           END;                            /* DO I = 0 TO #NODES */
     1351     3392
     1352     3393    1        CALL OUT$STUFCNT (TPOSN_HERE);
     1353     3394
     1354     3395    1        RETURN;
     1355     3396    1   END OUT$TEMPL;
     1356     3397        %EOD;
PL6.E3A0      #012=OUT$TEMPL File=OUT$TEMPLAT.:E05TSI                            WED 07/30/97 04:18 Page:221

PL6.E3A0      #012=OUT$TEMPL File=OUT$TEMPLAT.:E05TSI                            WED 07/30/97 04:18 Page:222
--  Include file information  --

   OUT_SUBS_C.:E05TOU  is referenced.
   XU_MACRO_C.:E05TOU  is referenced.
   B$JIT_C.:E05TOU  was found in the system file and is never referenced.
   CP_6_C.:E05TOU  was found in the system file and is never referenced.
      No diagnostics issued in procedure OUT$TEMPL.

   Procedure OUT$TEMPL requires 138 words for executable code.
   Procedure OUT$TEMPL requires 10 words of local(AUTO) storage.

PL6.E3A0      #012=OUT$TEMPL File=OUT$TEMPLAT.:E05TSI                            WED 07/30/97 04:18 Page:223

 Object Unit name= OUT$TEMPL                                  File name= OUT$TEMPLAT.:E05TOU
 UTS= JUL 30 '97 04:18:18.28 WED                              Compiler= PL-6/E31         Sev=      00
 SharedLib= :SHARED_SYSTEM                                    Alt SharedLib=


    ****  Control sections  ****

 Sect   Type Bound  Init  Size OctSiz  Section name(segment info)
    0   Proc  even  none   138    212  OUT$TEMPL
    1  RoData even  none     1      1  OUT$TEMPL

    ****  Entry defs  ****

                              Check   Calling
                             calling  sequence
  Sect OctLoc Primary Altret sequence   type   Parms  Name
     0      0   yes            yes      Std        1  OUT$TEMPL

  ****  Entry refs  ****

         Check        Calling
        calling       sequence
Altret sequence SRef   type   Args  Name
         yes           Std       2 OUT$ADDTKN
         yes           Std       2 OUT$IMAG
         yes           Std       1 OUT$STUFCNT
         yes           Std       1 OUT$INTRIN
         yes           Std       2 OUT$PTRLIST
         yes           Std       1 OUT$TXT
                       nStd      0 X66_AUTO_1
                       Std       0 B_CONSPOOL_D
                       nStd      0 X66_ARET
PL6.E3A0      #012=OUT$TEMPL File=OUT$TEMPLAT.:E05TSI                            WED 07/30/97 04:18 Page:224

  ****  Data refs  ****

  Flags:  r = read only, s = secondary
Flgs Name                             Flgs Name                             Flgs Name
     B_VECTNIL

  ****  Segment refs  ****

  Flags:  r = read only, s = secondary
Flgs Name                             Flgs Name                             Flgs Name
     ISSID
PL6.E3A0      #012=OUT$TEMPL File=OUT$TEMPLAT.:E05TSI                            WED 07/30/97 04:18 Page:225


     1268        1        /*M* OUT$TEMPL build a template image into OUT_TEMPLATE */
     1269        2        /*T***********************************************************/
     1270        3        /*T*                                                         */
     1271        4        /*T* Copyright (c) Bull HN Information Systems Inc., 1997    */
     1272        5        /*T*                                                         */
     1273        6        /*T***********************************************************/
     1274        7        %SET LISTSUB='1'B;
     1275        8
     1276        9        /*
     1277       10          ###  #   # #####   #   ##### ##### #   # ####  #
     1278       11         # # # #   #   #    ###    #   #     ## ## #   # #
     1279       12         # # # #   #   #   # #     #   #     # # # #   # #
     1280       13         #  ## #   #   #    ###    #   ####  #   # ####  #
     1281       14         #   # #   #   #     # #   #   #     #   # #     #
     1282       15         #   # #   #   #    ###    #   #     #   # #     #
     1283       16          ###   ###    #     #     #   ##### #   # #     #####
     1284       17                                                                          */
     1285       18
     1286       19        OUT$TEMPL: PROC (NODE$);

     19  0 000000   000000 700200 xent  OUT$TEMPL    TSX0  ! X66_AUTO_1
         0 000001   000012 000001                    ZERO    10,1

     1287       20                                                /**/
     1288       21                                           /*
     1289       22                                                ARGUMENTS
     1290       23                                                                          */
     1291       24    1   DCL NODE$ PTR;
     1292       25                                           /*
     1293       26                                                LOCAL AUTOMATIC
     1294       27                                                                          */
     1295       28    1   DCL TPOSN_HERE UBIN WORD;
     1296       29    1   DCL I SBIN WORD;
     1297       30    1   DCL MATCH_TYPE SBIN WORD;
     1298       31    1   DCL PTR$ PTR;
     1299       32                                           /*
PL6.E3A0      #012=OUT$TEMPL File=OUT$TEMPLAT.:E05TSI                            WED 07/30/97 04:18 Page:226
     1300       33                                                EXTERNALS
     1301       34                                                                          */
     1302       35    1   DCL OUT$ADDTKN ENTRY(2);
     1303       36    1   DCL OUT$IMAG ENTRY(2);
     1304       37    1   DCL OUT$TXT ENTRY(1);
     1305       38    1   DCL OUT$PTRLIST ENTRY(2);
     1306       39    1   DCL OUT$STUFCNT ENTRY(1);
     1307       40    1   DCL OUT$INTRIN ENTRY(1);
     1308       41                                           /*
     1309       42                                                INCLUDES
     1310       43                                                                          */
     1311       44        %INCLUDE XU_MACRO_C;
     1312     3150        %INCLUDE OUT_SUBS_C;
     1313     3273
     1314     3274             %PARSE$SYM     (NAME=OU$OUTSYM,
     1315     3275                                 STCLASS="BASED");
     1316     3313             %PARSE$OUT     (NAME=OU$OUTBLK,
     1317     3314                                 STCLASS="BASED");
     1318     3359
     1319     3360        %EJECT;
PL6.E3A0      #012=OUT$TEMPL File=OUT$TEMPLAT.:E05TSI                            WED 07/30/97 04:18 Page:227
     1320     3361        /*
     1321     3362                  Begin   O U T $ T E M P L  main
     1322     3363                                                                          */
     1323     3364
     1324     3365    1        CALL OUT$ADDTKN (0 /* TYP_TEMPLATE# */, TPOSN_HERE);

   3365  0 000002   200004 630500                    EPPR0   TPOSN_HERE,,AUTO
         0 000003   200011 450500                    STP0    PTR$+2,,AUTO
         0 000004   000000 236000 1                  LDQ     0
         0 000005   200010 756100                    STQ     PTR$+1,,AUTO
         0 000006   200010 630500                    EPPR0   PTR$+1,,AUTO
         0 000007   000020 631400 xsym               EPPR1   B_VECTNIL+16
         0 000010   000000 701000 xent               TSX1    OUT$ADDTKN
         0 000011   000000 011000                    NOP     0

     1325     3366
     1326     3367    2        DO I = 0 TO (NODE$ -> OU$OUTBLK.NSUBLKS - 1);

   3367  0 000012   200005 450100                    STZ     I,,AUTO
         0 000013   000175 710000 0                  TRA     s:3391+1

     1327     3368
     1328     3369    2             PTR$ = NODE$ -> OU$OUTBLK.SUBLK$(I);

   3369  0 000014   200003 470500                    LDP0    @NODE$,,AUTO
         0 000015   000000 471500                    LDP1    0,,PR0
         0 000016   200005 720100                    LXL0    I,,AUTO
         0 000017   100003 236110                    LDQ     3,X0,PR1
         0 000020   200007 756100                    STQ     PTR$,,AUTO

     1329     3370
     1330     3371    3             DO CASE (PTR$ -> OU$OUTBLK.CODE);

   3371  0 000021   200007 471500                    LDP1    PTR$,,AUTO
         0 000022   100000 236100                    LDQ     0,,PR1
         0 000023   777777 376007                    ANQ     -1,DL
         0 000024   000037 136007                    SBLQ    31,DL
PL6.E3A0      #012=OUT$TEMPL File=OUT$TEMPLAT.:E05TSI                            WED 07/30/97 04:18 Page:228
         0 000025   000074 116007                    CMPQ    60,DL
         0 000026   000030 602006 0                  TNC     s:3371+7,QL
         0 000027   000174 710000 0                  TRA     s:3391
         0 000030   000124 710000 0                  TRA     s:3374
         0 000031   000174 710000 0                  TRA     s:3391
         0 000032   000174 710000 0                  TRA     s:3391
         0 000033   000174 710000 0                  TRA     s:3391
         0 000034   000174 710000 0                  TRA     s:3391
         0 000035   000174 710000 0                  TRA     s:3391
         0 000036   000174 710000 0                  TRA     s:3391
         0 000037   000174 710000 0                  TRA     s:3391
         0 000040   000174 710000 0                  TRA     s:3391
         0 000041   000174 710000 0                  TRA     s:3391
         0 000042   000174 710000 0                  TRA     s:3391
         0 000043   000174 710000 0                  TRA     s:3391
         0 000044   000174 710000 0                  TRA     s:3391
         0 000045   000174 710000 0                  TRA     s:3391
         0 000046   000174 710000 0                  TRA     s:3391
         0 000047   000174 710000 0                  TRA     s:3391
         0 000050   000174 710000 0                  TRA     s:3391
         0 000051   000174 710000 0                  TRA     s:3391
         0 000052   000174 710000 0                  TRA     s:3391
         0 000053   000174 710000 0                  TRA     s:3391
         0 000054   000174 710000 0                  TRA     s:3391
         0 000055   000174 710000 0                  TRA     s:3391
         0 000056   000174 710000 0                  TRA     s:3391
         0 000057   000174 710000 0                  TRA     s:3391
         0 000060   000174 710000 0                  TRA     s:3391
         0 000061   000174 710000 0                  TRA     s:3391
         0 000062   000174 710000 0                  TRA     s:3391
         0 000063   000174 710000 0                  TRA     s:3391
         0 000064   000174 710000 0                  TRA     s:3391
         0 000065   000166 710000 0                  TRA     s:3386
         0 000066   000174 710000 0                  TRA     s:3391
         0 000067   000174 710000 0                  TRA     s:3391
         0 000070   000174 710000 0                  TRA     s:3391
         0 000071   000174 710000 0                  TRA     s:3391
PL6.E3A0      #012=OUT$TEMPL File=OUT$TEMPLAT.:E05TSI                            WED 07/30/97 04:18 Page:229
         0 000072   000174 710000 0                  TRA     s:3391
         0 000073   000174 710000 0                  TRA     s:3391
         0 000074   000174 710000 0                  TRA     s:3391
         0 000075   000174 710000 0                  TRA     s:3391
         0 000076   000174 710000 0                  TRA     s:3391
         0 000077   000174 710000 0                  TRA     s:3391
         0 000100   000174 710000 0                  TRA     s:3391
         0 000101   000174 710000 0                  TRA     s:3391
         0 000102   000174 710000 0                  TRA     s:3391
         0 000103   000174 710000 0                  TRA     s:3391
         0 000104   000174 710000 0                  TRA     s:3391
         0 000105   000174 710000 0                  TRA     s:3391
         0 000106   000174 710000 0                  TRA     s:3391
         0 000107   000174 710000 0                  TRA     s:3391
         0 000110   000146 710000 0                  TRA     s:3378
         0 000111   000174 710000 0                  TRA     s:3391
         0 000112   000174 710000 0                  TRA     s:3391
         0 000113   000174 710000 0                  TRA     s:3391
         0 000114   000174 710000 0                  TRA     s:3391
         0 000115   000174 710000 0                  TRA     s:3391
         0 000116   000174 710000 0                  TRA     s:3391
         0 000117   000174 710000 0                  TRA     s:3391
         0 000120   000174 710000 0                  TRA     s:3391
         0 000121   000174 710000 0                  TRA     s:3391
         0 000122   000174 710000 0                  TRA     s:3391
         0 000123   000155 710000 0                  TRA     s:3382

     1331     3372
     1332     3373    3             CASE (31 /* T_CHLIST# */);

     1333     3374    3                CALL OUT$IMAG (PTR$ -> OU$OUTBLK.SUBLK$(0),MATCH_TYPE);

   3374  0 000124   200006 633500                    EPPR3   MATCH_TYPE,,AUTO
         0 000125   200011 453500                    STP3    PTR$+2,,AUTO
         0 000126   200007 236100                    LDQ     PTR$,,AUTO
         0 000127   000003 036003                    ADLQ    3,DU
         0 000130   200010 756100                    STQ     PTR$+1,,AUTO
PL6.E3A0      #012=OUT$TEMPL File=OUT$TEMPLAT.:E05TSI                            WED 07/30/97 04:18 Page:230
         0 000131   200010 630500                    EPPR0   PTR$+1,,AUTO
         0 000132   000020 631400 xsym               EPPR1   B_VECTNIL+16
         0 000133   000000 701000 xent               TSX1    OUT$IMAG
         0 000134   000000 011000                    NOP     0

     1334     3375    3                CALL OUT$PTRLIST (PTR$,MATCH_TYPE);

   3375  0 000135   200006 630500                    EPPR0   MATCH_TYPE,,AUTO
         0 000136   200011 450500                    STP0    PTR$+2,,AUTO
         0 000137   200007 631500                    EPPR1   PTR$,,AUTO
         0 000140   200010 451500                    STP1    PTR$+1,,AUTO
         0 000141   200010 630500                    EPPR0   PTR$+1,,AUTO
         0 000142   000020 631400 xsym               EPPR1   B_VECTNIL+16
         0 000143   000000 701000 xent               TSX1    OUT$PTRLIST
         0 000144   000000 011000                    NOP     0
         0 000145   000174 710000 0                  TRA     s:3391

     1335     3376
     1336     3377    3             CASE (79 /* T_TEXT# */);

     1337     3378    3                CALL OUT$TXT (PTR$);

   3378  0 000146   200007 633500                    EPPR3   PTR$,,AUTO
         0 000147   200010 453500                    STP3    PTR$+1,,AUTO
         0 000150   200010 630500                    EPPR0   PTR$+1,,AUTO
         0 000151   000017 631400 xsym               EPPR1   B_VECTNIL+15
         0 000152   000000 701000 xent               TSX1    OUT$TXT
         0 000153   000000 011000                    NOP     0
         0 000154   000174 710000 0                  TRA     s:3391

     1338     3379
     1339     3380
     1340     3381    3             CASE (90 /* T_IMAGE# */);

     1341     3382    3                CALL OUT$IMAG (PTR$,MATCH_TYPE);

   3382  0 000155   200006 633500                    EPPR3   MATCH_TYPE,,AUTO
PL6.E3A0      #012=OUT$TEMPL File=OUT$TEMPLAT.:E05TSI                            WED 07/30/97 04:18 Page:231
         0 000156   200011 453500                    STP3    PTR$+2,,AUTO
         0 000157   200007 634500                    EPPR4   PTR$,,AUTO
         0 000160   200010 454500                    STP4    PTR$+1,,AUTO
         0 000161   200010 630500                    EPPR0   PTR$+1,,AUTO
         0 000162   000020 631400 xsym               EPPR1   B_VECTNIL+16
         0 000163   000000 701000 xent               TSX1    OUT$IMAG
         0 000164   000000 011000                    NOP     0
         0 000165   000174 710000 0                  TRA     s:3391

     1342     3383
     1343     3384
     1344     3385    3             CASE (60 /* T_INTRINSIC# */);

     1345     3386    3                CALL OUT$INTRIN (PTR$);

   3386  0 000166   200007 633500                    EPPR3   PTR$,,AUTO
         0 000167   200010 453500                    STP3    PTR$+1,,AUTO
         0 000170   200010 630500                    EPPR0   PTR$+1,,AUTO
         0 000171   000017 631400 xsym               EPPR1   B_VECTNIL+15
         0 000172   000000 701000 xent               TSX1    OUT$INTRIN
         0 000173   000000 011000                    NOP     0

     1346     3387
     1347     3388
     1348     3389    3             END;                          /* DO CASE OUTBLK.CODE */

     1349     3390
     1350     3391    2           END;                            /* DO I = 0 TO #NODES */

   3391  0 000174   200005 054100                    AOS     I,,AUTO
         0 000175   200003 470500                    LDP0    @NODE$,,AUTO
         0 000176   000000 471500                    LDP1    0,,PR0
         0 000177   100001 236100                    LDQ     1,,PR1
         0 000200   000022 772000                    QRL     18
         0 000201   200005 116100                    CMPQ    I,,AUTO
         0 000202   000014 605400 0                  TPNZ    s:3369

PL6.E3A0      #012=OUT$TEMPL File=OUT$TEMPLAT.:E05TSI                            WED 07/30/97 04:18 Page:232
     1351     3392
     1352     3393    1        CALL OUT$STUFCNT (TPOSN_HERE);

   3393  0 000203   200004 633500                    EPPR3   TPOSN_HERE,,AUTO
         0 000204   200010 453500                    STP3    PTR$+1,,AUTO
         0 000205   200010 630500                    EPPR0   PTR$+1,,AUTO
         0 000206   000017 631400 xsym               EPPR1   B_VECTNIL+15
         0 000207   000000 701000 xent               TSX1    OUT$STUFCNT
         0 000210   000000 011000                    NOP     0

     1353     3394
     1354     3395    1        RETURN;

   3395  0 000211   000000 702200 xent               TSX2  ! X66_ARET
     1355     3396    1   END OUT$TEMPL;
     1356     3397        %EOD;

PL6.E3A0      #012=OUT$TEMPL File=OUT$TEMPLAT.:E05TSI                            WED 07/30/97 04:18 Page:233
--  Include file information  --

   OUT_SUBS_C.:E05TOU  is referenced.
   XU_MACRO_C.:E05TOU  is referenced.
   B$JIT_C.:E05TOU  was found in the system file and is never referenced.
   CP_6_C.:E05TOU  was found in the system file and is never referenced.
      No diagnostics issued in procedure OUT$TEMPL.
PL6.E3A0      #012=OUT$TEMPL File=OUT$TEMPLAT.:E05TSI                            WED 07/30/97 04:18 Page:234

 **** Variables and constants ****

  ****  Auto variables  ****

  ****  Scalars and arrays  ****
OctLoc.c.b A Datatyp(siz) R M Lvl/name                 OctLoc.c.b A Datatyp(siz) R M Lvl/name

     3-0-0/w PTR         r     1 @NODE$                     5-0-0/w SBIN        r     1 I
     6-0-0/w SBIN        r     1 MATCH_TYPE                *0-0-0/w PTR         r     1 NODE$
     7-0-0/w PTR         r     1 PTR$                       4-0-0/w UBIN        r     1 TPOSN_HERE

  ****  BASED and DCB variables  ****

  ****  Scalars and arrays  ****
OctLoc.c.b A Datatyp(siz) R M Lvl/name                 OctLoc.c.b A Datatyp(siz) R M Lvl/name

     0-0-0/w STRC(144)   r     1 OU$OUTBLK                  0-0-0/w ASTR(153)   r     1 OU$OUTSYM


   Procedure OUT$TEMPL requires 138 words for executable code.
   Procedure OUT$TEMPL requires 10 words of local(AUTO) storage.
PL6.E3A0      #012=OUT$TEMPL File=OUT$TEMPLAT.:E05TSI                            WED 07/30/97 04:18 Page:235
          *** CROSS REFERENCE LISTING ***
**     DENOTES     IDENTIFIER DEFINITION
<<                 IDENTIFIER'S VALUE SET
>>                 IDENTIFIER'S VALUE USED
<>                 IDENTIFIER SET AND/OR USED
--                 IDENTIFIER REFERENCED
PL6.E3A0      #012=OUT$TEMPL File=OUT$TEMPLAT.:E05TSI                            WED 07/30/97 04:18 Page:236
          MINI XREF LISTING

I
        29**DCL      3367<<DOINDEX  3369>>ASSIGN
MATCH_TYPE
        30**DCL      3374<>CALL     3375<>CALL     3382<>CALL
NODE$
        24**DCL        19--PROC     3367>>DOINDEX  3369>>ASSIGN
OU$OUTBLK.CODE
      3328**DCL      3371>>DOCASE
OU$OUTBLK.NSUBLKS
      3332**DCL      3367>>DOINDEX
OU$OUTBLK.SUBLK$
      3353**DCL      3369>>ASSIGN   3374<>CALL
OU$OUTSYM.COUNT
      3305**DCL      3308--IMP-SIZ
OUT$ADDTKN
        35**DCL-ENT  3365--CALL
OUT$IMAG
        36**DCL-ENT  3374--CALL     3382--CALL
OUT$INTRIN
        40**DCL-ENT  3386--CALL
OUT$PTRLIST
        38**DCL-ENT  3375--CALL
OUT$STUFCNT
        39**DCL-ENT  3393--CALL
OUT$TXT
        37**DCL-ENT  3378--CALL
PTR$
        31**DCL      3369<<ASSIGN   3371>>DOCASE   3374>>CALL     3375<>CALL     3378<>CALL     3382<>CALL
      3386<>CALL
TPOSN_HERE
        28**DCL      3365<>CALL     3393<>CALL

PL6.E3A0      #013=OUT$STUFCNT File=OUT$TEMPLAT.:E05TSI                          WED 07/30/97 04:18 Page:237
     1357        1        /*M* OUT$STUFCNT compute and place element counts in the template */
     1358        2        /*T***********************************************************/
     1359        3        /*T*                                                         */
     1360        4        /*T* Copyright (c) Bull HN Information Systems Inc., 1997    */
     1361        5        /*T*                                                         */
     1362        6        /*T***********************************************************/
     1363        7
     1364        8        %SET LISTSUB='1'B;
     1365        9
     1366       10        /*
     1367       11          ###  #   # #####   #    ###  ##### #   # #####  ###  #   # #####
     1368       12         # # # #   #   #    ###  #   #   #   #   # #     #   # #   #   #
     1369       13         # # # #   #   #   # #   #       #   #   # #     #     ##  #   #
     1370       14         #  ## #   #   #    ###   ###    #   #   # ####  #     # # #   #
     1371       15         #   # #   #   #     # #     #   #   #   # #     #     #  ##   #
     1372       16         #   # #   #   #    ###  #   #   #   #   # #     #   # #   #   #
     1373       17          ###   ###    #     #    ###    #    ###  #      ###  #   #   #
     1374       18                                                                          */
     1375       19
     1376       20        OUT$STUFCNT : PROC (POSN_);
     1377       21
     1378       22                                           /*
     1379       23                                                ARGUMENTS
     1380       24                                                                          */
     1381       25    1   DCL POSN_ SBIN;
     1382       26
     1383       27                                           /*
     1384       28                                                INCLUDES
     1385       29                                                                          */
     1386       30        %INCLUDE OUT_DATA_R;
     1387       45        %INCLUDE OUT_SUBS_C;
     1388      168        %INCLUDE OU_PERR_C;
     1389      189
     1390      190                                           /*
     1391      191                                                LOCALS
     1392      192                                                                          */
     1393      193    1   DCL TEMP_ SBIN;
PL6.E3A0      #013=OUT$STUFCNT File=OUT$TEMPLAT.:E05TSI                          WED 07/30/97 04:18 Page:238
     1394      194    1   DCL TEMP_C REDEF TEMP_ CHAR(4);
     1395      195
     1396      196                                           /*
     1397      197                                                EXTERNALS
     1398      198                                                                          */
     1399      199    1   DCL OUT$ERROR ENTRY(1);
     1400      200
     1401      201                                           /*
     1402      202                                                CONSTANTS
     1403      203                                                                          */
     1404      204    1   DCL BIT_V BIT(36) ALIGNED CONSTANT INIT('000000777777'O);
     1405      205    1   DCL MAX_SIZE REDEF BIT_V SBIN WORD;
     1406      206
     1407      207        %EJECT;
PL6.E3A0      #013=OUT$STUFCNT File=OUT$TEMPLAT.:E05TSI                          WED 07/30/97 04:18 Page:239
     1408      208        /*
     1409      209             Begin  O U T $ S T U F C N T  main
     1410      210                                                                          */
     1411      211
     1412      212    1        TEMP_ = OUT_TPOSN - POSN_ - 2 /* SIZEC_COUNT# */;
     1413      213
     1414      214        /*E*      ERROR: OUT-E$OUT_TOOBIG
     1415      215                  MESSAGE: Template or sub-template greater than maximum allowed.
     1416      216                                                                          */
     1417      217    1        IF TEMP_ > MAX_SIZE
     1418      218    1        THEN
     1419      219    1             CALL OUT$ERROR (%E$OUT_TOOBIG);
     1420      220
     1421      221    1        CALL INSERT (OUT_TEMPLATE, POSN_,
     1422      222    1             2 /* SIZEC_COUNT# */,
     1423      223    1             SUBSTR(TEMP_C,2 /* START_COUNT# */, 2 /* SIZEC_COUNT# */));
     1424      224
     1425      225    1        RETURN;
     1426      226    1   END OUT$STUFCNT;
     1427      227        %EOD;

PL6.E3A0      #013=OUT$STUFCNT File=OUT$TEMPLAT.:E05TSI                          WED 07/30/97 04:18 Page:240
--  Include file information  --

   OU_PERR_C.:E05TOU  is referenced.
   OUT_SUBS_C.:E05TOU  is referenced.
   OUT_DATA_R.:E05TOU  cannot be made into a system file and is referenced.
   B$JIT_C.:E05TOU  was found in the system file and is never referenced.
   CP_6_C.:E05TOU  was found in the system file and is never referenced.
      No diagnostics issued in procedure OUT$STUFCNT.

   Procedure OUT$STUFCNT requires 19 words for executable code.
   Procedure OUT$STUFCNT requires 6 words of local(AUTO) storage.

PL6.E3A0      #013=OUT$STUFCNT File=OUT$TEMPLAT.:E05TSI                          WED 07/30/97 04:18 Page:241

 Object Unit name= OUT$STUFCNT                                File name= OUT$TEMPLAT.:E05TOU
 UTS= JUL 30 '97 04:18:31.60 WED                              Compiler= PL-6/E31         Sev=      00
 SharedLib= :SHARED_SYSTEM                                    Alt SharedLib=


    ****  Control sections  ****

 Sect   Type Bound  Init  Size OctSiz  Section name(segment info)
    0  RoData even  UTS      1      1  OUT$STUFCNT
    1   Proc  even  none    19     23  OUT$STUFCNT
    2  RoData even  none     1      1  OUT$STUFCNT

    ****  Entry defs  ****

                              Check   Calling
                             calling  sequence
  Sect OctLoc Primary Altret sequence   type   Parms  Name
     1      0   yes            yes      Std        1  OUT$STUFCNT

  ****  Entry refs  ****

         Check        Calling
        calling       sequence
Altret sequence SRef   type   Args  Name
         yes           Std       1 OUT$ERROR
                       nStd      0 X66_AUTO_1
                       Std       0 B_CONSPOOL_D
                       nStd      0 X66_ARET

  ****  Data refs  ****

  Flags:  r = read only, s = secondary
Flgs Name                             Flgs Name                             Flgs Name
     OUT_MID                               OUT_TEMPLATE                          OUT_TPOSN
     B_VECTNIL
PL6.E3A0      #013=OUT$STUFCNT File=OUT$TEMPLAT.:E05TSI                          WED 07/30/97 04:18 Page:242

  ****  Segment refs  ****

  Flags:  r = read only, s = secondary
Flgs Name                             Flgs Name                             Flgs Name
     ISSID
PL6.E3A0      #013=OUT$STUFCNT File=OUT$TEMPLAT.:E05TSI                          WED 07/30/97 04:18 Page:243


     1357        1        /*M* OUT$STUFCNT compute and place element counts in the template */
     1358        2        /*T***********************************************************/
     1359        3        /*T*                                                         */
     1360        4        /*T* Copyright (c) Bull HN Information Systems Inc., 1997    */
     1361        5        /*T*                                                         */
     1362        6        /*T***********************************************************/
     1363        7
     1364        8        %SET LISTSUB='1'B;
     1365        9
     1366       10        /*
     1367       11          ###  #   # #####   #    ###  ##### #   # #####  ###  #   # #####
     1368       12         # # # #   #   #    ###  #   #   #   #   # #     #   # #   #   #
     1369       13         # # # #   #   #   # #   #       #   #   # #     #     ##  #   #
     1370       14         #  ## #   #   #    ###   ###    #   #   # ####  #     # # #   #
     1371       15         #   # #   #   #     # #     #   #   #   # #     #     #  ##   #
     1372       16         #   # #   #   #    ###  #   #   #   #   # #     #   # #   #   #
     1373       17          ###   ###    #     #    ###    #    ###  #      ###  #   #   #
     1374       18                                                                          */
     1375       19
     1376       20        OUT$STUFCNT : PROC (POSN_);

     20  1 000000   000000 700200 xent  OUT$STUFCNT  TSX0  ! X66_AUTO_1
         1 000001   000006 000001                    ZERO    6,1

     1377       21
     1378       22                                           /*
     1379       23                                                ARGUMENTS
     1380       24                                                                          */
     1381       25    1   DCL POSN_ SBIN;
     1382       26
     1383       27                                           /*
     1384       28                                                INCLUDES
     1385       29                                                                          */
     1386       30        %INCLUDE OUT_DATA_R;
     1387       45        %INCLUDE OUT_SUBS_C;
     1388      168        %INCLUDE OU_PERR_C;
PL6.E3A0      #013=OUT$STUFCNT File=OUT$TEMPLAT.:E05TSI                          WED 07/30/97 04:18 Page:244
     1389      189
     1390      190                                           /*
     1391      191                                                LOCALS
     1392      192                                                                          */
     1393      193    1   DCL TEMP_ SBIN;
     1394      194    1   DCL TEMP_C REDEF TEMP_ CHAR(4);
     1395      195
     1396      196                                           /*
     1397      197                                                EXTERNALS
     1398      198                                                                          */
     1399      199    1   DCL OUT$ERROR ENTRY(1);
     1400      200
     1401      201                                           /*
     1402      202                                                CONSTANTS
     1403      203                                                                          */
     1404      204    1   DCL BIT_V BIT(36) ALIGNED CONSTANT INIT('000000777777'O);
     1405      205    1   DCL MAX_SIZE REDEF BIT_V SBIN WORD;
     1406      206
     1407      207        %EJECT;
PL6.E3A0      #013=OUT$STUFCNT File=OUT$TEMPLAT.:E05TSI                          WED 07/30/97 04:18 Page:245
     1408      208        /*
     1409      209             Begin  O U T $ S T U F C N T  main
     1410      210                                                                          */
     1411      211
     1412      212    1        TEMP_ = OUT_TPOSN - POSN_ - 2 /* SIZEC_COUNT# */;

    212  1 000002   200003 470500                    LDP0    @POSN_,,AUTO
         1 000003   000000 236000 xsym               LDQ     OUT_TPOSN
         1 000004   000000 136100                    SBLQ    0,,PR0
         1 000005   000002 136007                    SBLQ    2,DL
         1 000006   200004 756100                    STQ     TEMP_,,AUTO

     1413      213
     1414      214        /*E*      ERROR: OUT-E$OUT_TOOBIG
     1415      215                  MESSAGE: Template or sub-template greater than maximum allowed.
     1416      216                                                                          */
     1417      217    1        IF TEMP_ > MAX_SIZE

    217  1 000007   000000 116000 0                  CMPQ    BIT_V
         1 000010   000015 604400 1                  TMOZ    s:221

     1418      218    1        THEN
     1419      219    1             CALL OUT$ERROR (%E$OUT_TOOBIG);

    219  1 000011   000000 630400 2                  EPPR0   0
         1 000012   000017 631400 xsym               EPPR1   B_VECTNIL+15
         1 000013   000000 701000 xent               TSX1    OUT$ERROR
         1 000014   000000 011000                    NOP     0

     1420      220
     1421      221    1        CALL INSERT (OUT_TEMPLATE, POSN_,

    221  1 000015   200003 470500                    LDP0    @POSN_,,AUTO
         1 000016   000000 235100                    LDA     0,,PR0
         1 000017   040005 100500                    MLR     fill='040'O
         1 000020   200004 400002                    ADSC9   TEMP_,,AUTO              cn=2,n=2
         1 000021   000000 000002 xsym               ADSC9   OUT_TEMPLATE,A           cn=0,n=2
PL6.E3A0      #013=OUT$STUFCNT File=OUT$TEMPLAT.:E05TSI                          WED 07/30/97 04:18 Page:246

     1422      222    1             2 /* SIZEC_COUNT# */,
     1423      223    1             SUBSTR(TEMP_C,2 /* START_COUNT# */, 2 /* SIZEC_COUNT# */));
     1424      224
     1425      225    1        RETURN;

    225  1 000022   000000 702200 xent               TSX2  ! X66_ARET
     1426      226    1   END OUT$STUFCNT;
     1427      227        %EOD;

PL6.E3A0      #013=OUT$STUFCNT File=OUT$TEMPLAT.:E05TSI                          WED 07/30/97 04:18 Page:247
--  Include file information  --

   OU_PERR_C.:E05TOU  is referenced.
   OUT_SUBS_C.:E05TOU  is referenced.
   OUT_DATA_R.:E05TOU  cannot be made into a system file and is referenced.
   B$JIT_C.:E05TOU  was found in the system file and is never referenced.
   CP_6_C.:E05TOU  was found in the system file and is never referenced.
      No diagnostics issued in procedure OUT$STUFCNT.
PL6.E3A0      #013=OUT$STUFCNT File=OUT$TEMPLAT.:E05TSI                          WED 07/30/97 04:18 Page:248

 **** Variables and constants ****

  ****  Section 000 RoData OUT$STUFCNT

  ****  Scalars and arrays  ****
OctLoc.c.b A Datatyp(siz) R M Lvl/name                 OctLoc.c.b A Datatyp(siz) R M Lvl/name

     0-0-0/w BIT         r     1 BIT_V                      0-0-0/w SBIN        r     1 MAX_SIZE

  ****  Auto variables  ****

  ****  Scalars and arrays  ****
OctLoc.c.b A Datatyp(siz) R M Lvl/name                 OctLoc.c.b A Datatyp(siz) R M Lvl/name

     3-0-0/w PTR         r     1 @POSN_                    *0-0-0/w SBIN        r     1 POSN_
     4-0-0/w SBIN        r     1 TEMP_                      4-0-0/w CHAR(4)     r     1 TEMP_C

  ****  SYMREF variables  ****

  ****  Scalars and arrays  ****
OctLoc.c.b A Datatyp(siz) R M Lvl/name                 OctLoc.c.b A Datatyp(siz) R M Lvl/name

     0-0-0/c CHAR(4096)  r     1 OUT_TEMPLATE               0-0-0/w UBIN        r     1 OUT_TPOSN


   Procedure OUT$STUFCNT requires 19 words for executable code.
   Procedure OUT$STUFCNT requires 6 words of local(AUTO) storage.
PL6.E3A0      #013=OUT$STUFCNT File=OUT$TEMPLAT.:E05TSI                          WED 07/30/97 04:18 Page:249
          *** CROSS REFERENCE LISTING ***
**     DENOTES     IDENTIFIER DEFINITION
<<                 IDENTIFIER'S VALUE SET
>>                 IDENTIFIER'S VALUE USED
<>                 IDENTIFIER SET AND/OR USED
--                 IDENTIFIER REFERENCED
PL6.E3A0      #013=OUT$STUFCNT File=OUT$TEMPLAT.:E05TSI                          WED 07/30/97 04:18 Page:250
          MINI XREF LISTING

BIT_V
       204**DCL       205--REDEF
MAX_SIZE
       205**DCL       217>>IF
OUT$ERROR
       199**DCL-ENT   219--CALL
OUT_MID
        39**DCL        40--REDEF
OUT_TEMPLATE
        42**DCL       221<<CALLBLT
OUT_TPOSN
        42**DCL       212>>ASSIGN
OUT_VALUE.CHAR4
        43**DCL        43--REDEF      43--REDEF
POSN_
        25**DCL        20--PROC      212>>ASSIGN    221>>CALLBLT
TEMP_
       193**DCL       194--REDEF     212<<ASSIGN    217>>IF
TEMP_C
       194**DCL       221>>CALLBLT

PL6.E3A0      #014=OUT$TXT File=OUT$TEMPLAT.:E05TSI                              WED 07/30/97 04:18 Page:251
     1428        1        /*M* OUT$TXT move text string into template buffer */
     1429        2        /*T***********************************************************/
     1430        3        /*T*                                                         */
     1431        4        /*T* Copyright (c) Bull HN Information Systems Inc., 1997    */
     1432        5        /*T*                                                         */
     1433        6        /*T***********************************************************/
     1434        7
     1435        8        %SET LISTSUB='1'B;
     1436        9
     1437       10        /*
     1438       11          ###  #   # #####   #   ##### #   # #####
     1439       12         # # # #   #   #    ###    #   #   #   #
     1440       13         # # # #   #   #   # #     #    # #    #
     1441       14         #  ## #   #   #    ###    #     #     #
     1442       15         #   # #   #   #     # #   #    # #    #
     1443       16         #   # #   #   #    ###    #   #   #   #
     1444       17          ###   ###    #     #     #   #   #   #
     1445       18                                                                          */
     1446       19
     1447       20        OUT$TXT: PROC (NODE_PTR$);
     1448       21
     1449       22                                           /*
     1450       23                                                ARGUMENTS
     1451       24                                                                          */
     1452       25    1   DCL NODE_PTR$ PTR;
     1453       26
     1454       27                                           /*
     1455       28                                                INCLUDES
     1456       29                                                                          */
     1457       30        %INCLUDE XU_MACRO_C;
     1458     3136        %INCLUDE OUT_SUBS_C;
     1459     3259
     1460     3260             %PARSE$SYM     (NAME=OU$OUTSYM,
     1461     3261                                 STCLASS="BASED");
     1462     3299             %PARSE$OUT     (NAME=OU$OUTBLK,
     1463     3300                                 STCLASS="BASED");
     1464     3345
PL6.E3A0      #014=OUT$TXT File=OUT$TEMPLAT.:E05TSI                              WED 07/30/97 04:18 Page:252
     1465     3346                                           /*
     1466     3347                                                EXTERNALS
     1467     3348                                                                          */
     1468     3349    1   DCL OUT$ADDTKN ENTRY(2);
     1469     3350    1   DCL OUT$ADDSTR ENTRY(2);
     1470     3351    1   DCL OUT$STUFCNT ENTRY(1);
     1471     3352
     1472     3353                                           /*
     1473     3354                                                LOCALS
     1474     3355                                                                          */
     1475     3356    1   DCL I SBIN;
     1476     3357    1   DCL BUF_POSN SBIN;
     1477     3358
     1478     3359        %EJECT;
PL6.E3A0      #014=OUT$TXT File=OUT$TEMPLAT.:E05TSI                              WED 07/30/97 04:18 Page:253
     1479     3360        /*
     1480     3361             Begin  O U T $ T X T  main
     1481     3362                                                                          */
     1482     3363
     1483     3364
     1484     3365    1        CALL OUT$ADDTKN (1 /* TYP_STRING# */, BUF_POSN);
     1485     3366
     1486     3367    1        I = NODE_PTR$ -> OU$OUTSYM.COUNT;
     1487     3368
     1488     3369    1        CALL OUT$ADDSTR (NODE_PTR$ -> OU$OUTSYM.TEXT, I);
     1489     3370
     1490     3371    1        CALL OUT$STUFCNT (BUF_POSN);
     1491     3372
     1492     3373    1        RETURN;
     1493     3374    1   END OUT$TXT;

PL6.E3A0      #014=OUT$TXT File=OUT$TEMPLAT.:E05TSI                              WED 07/30/97 04:18 Page:254
--  Include file information  --

   OUT_SUBS_C.:E05TOU  is referenced.
   XU_MACRO_C.:E05TOU  is referenced.
   B$JIT_C.:E05TOU  was found in the system file and is never referenced.
   CP_6_C.:E05TOU  was found in the system file and is never referenced.
      No diagnostics issued in procedure OUT$TXT.

   Procedure OUT$TXT requires 33 words for executable code.
   Procedure OUT$TXT requires 10 words of local(AUTO) storage.

    No errors detected in file OUT$TEMPLAT.:E05TSI    .

PL6.E3A0      #014=OUT$TXT File=OUT$TEMPLAT.:E05TSI                              WED 07/30/97 04:18 Page:255

 Object Unit name= OUT$TXT                                    File name= OUT$TEMPLAT.:E05TOU
 UTS= JUL 30 '97 04:18:36.56 WED                              Compiler= PL-6/E31         Sev=      00
 SharedLib= :SHARED_SYSTEM                                    Alt SharedLib=


    ****  Control sections  ****

 Sect   Type Bound  Init  Size OctSiz  Section name(segment info)
    0   Proc  even  none    33     41  OUT$TXT
    1  RoData even  none     2      2  OUT$TXT

    ****  Entry defs  ****

                              Check   Calling
                             calling  sequence
  Sect OctLoc Primary Altret sequence   type   Parms  Name
     0      0   yes            yes      Std        1  OUT$TXT

  ****  Entry refs  ****

         Check        Calling
        calling       sequence
Altret sequence SRef   type   Args  Name
         yes           Std       2 OUT$ADDTKN
         yes           Std       2 OUT$ADDSTR
         yes           Std       1 OUT$STUFCNT
                       nStd      0 X66_AUTO_1
                       Std       0 B_CONSPOOL_D
                       nStd      0 X66_ARET

  ****  Data refs  ****

  Flags:  r = read only, s = secondary
Flgs Name                             Flgs Name                             Flgs Name
     B_VECTNIL
PL6.E3A0      #014=OUT$TXT File=OUT$TEMPLAT.:E05TSI                              WED 07/30/97 04:18 Page:256

  ****  Segment refs  ****

  Flags:  r = read only, s = secondary
Flgs Name                             Flgs Name                             Flgs Name
     ISSID
PL6.E3A0      #014=OUT$TXT File=OUT$TEMPLAT.:E05TSI                              WED 07/30/97 04:18 Page:257


     1428        1        /*M* OUT$TXT move text string into template buffer */
     1429        2        /*T***********************************************************/
     1430        3        /*T*                                                         */
     1431        4        /*T* Copyright (c) Bull HN Information Systems Inc., 1997    */
     1432        5        /*T*                                                         */
     1433        6        /*T***********************************************************/
     1434        7
     1435        8        %SET LISTSUB='1'B;
     1436        9
     1437       10        /*
     1438       11          ###  #   # #####   #   ##### #   # #####
     1439       12         # # # #   #   #    ###    #   #   #   #
     1440       13         # # # #   #   #   # #     #    # #    #
     1441       14         #  ## #   #   #    ###    #     #     #
     1442       15         #   # #   #   #     # #   #    # #    #
     1443       16         #   # #   #   #    ###    #   #   #   #
     1444       17          ###   ###    #     #     #   #   #   #
     1445       18                                                                          */
     1446       19
     1447       20        OUT$TXT: PROC (NODE_PTR$);

     20  0 000000   000000 700200 xent  OUT$TXT      TSX0  ! X66_AUTO_1
         0 000001   000012 000001                    ZERO    10,1

     1448       21
     1449       22                                           /*
     1450       23                                                ARGUMENTS
     1451       24                                                                          */
     1452       25    1   DCL NODE_PTR$ PTR;
     1453       26
     1454       27                                           /*
     1455       28                                                INCLUDES
     1456       29                                                                          */
     1457       30        %INCLUDE XU_MACRO_C;
     1458     3136        %INCLUDE OUT_SUBS_C;
     1459     3259
PL6.E3A0      #014=OUT$TXT File=OUT$TEMPLAT.:E05TSI                              WED 07/30/97 04:18 Page:258
     1460     3260             %PARSE$SYM     (NAME=OU$OUTSYM,
     1461     3261                                 STCLASS="BASED");
     1462     3299             %PARSE$OUT     (NAME=OU$OUTBLK,
     1463     3300                                 STCLASS="BASED");
     1464     3345
     1465     3346                                           /*
     1466     3347                                                EXTERNALS
     1467     3348                                                                          */
     1468     3349    1   DCL OUT$ADDTKN ENTRY(2);
     1469     3350    1   DCL OUT$ADDSTR ENTRY(2);
     1470     3351    1   DCL OUT$STUFCNT ENTRY(1);
     1471     3352
     1472     3353                                           /*
     1473     3354                                                LOCALS
     1474     3355                                                                          */
     1475     3356    1   DCL I SBIN;
     1476     3357    1   DCL BUF_POSN SBIN;
     1477     3358
     1478     3359        %EJECT;
PL6.E3A0      #014=OUT$TXT File=OUT$TEMPLAT.:E05TSI                              WED 07/30/97 04:18 Page:259
     1479     3360        /*
     1480     3361             Begin  O U T $ T X T  main
     1481     3362                                                                          */
     1482     3363
     1483     3364
     1484     3365    1        CALL OUT$ADDTKN (1 /* TYP_STRING# */, BUF_POSN);

   3365  0 000002   200005 630500                    EPPR0   BUF_POSN,,AUTO
         0 000003   200007 450500                    STP0    BUF_POSN+2,,AUTO
         0 000004   000000 236000 1                  LDQ     0
         0 000005   200006 756100                    STQ     BUF_POSN+1,,AUTO
         0 000006   200006 630500                    EPPR0   BUF_POSN+1,,AUTO
         0 000007   000020 631400 xsym               EPPR1   B_VECTNIL+16
         0 000010   000000 701000 xent               TSX1    OUT$ADDTKN
         0 000011   000000 011000                    NOP     0

     1485     3366
     1486     3367    1        I = NODE_PTR$ -> OU$OUTSYM.COUNT;

   3367  0 000012   200003 470500                    LDP0    @NODE_PTR$,,AUTO
         0 000013   000000 471500                    LDP1    0,,PR0
         0 000014   100004 236100                    LDQ     4,,PR1
         0 000015   000033 772000                    QRL     27
         0 000016   200004 756100                    STQ     I,,AUTO

     1487     3368
     1488     3369    1        CALL OUT$ADDSTR (NODE_PTR$ -> OU$OUTSYM.TEXT, I);

   3369  0 000017   000000 471500                    LDP1    0,,PR0
         0 000020   200004 633500                    EPPR3   I,,AUTO
         0 000021   200007 453500                    STP3    BUF_POSN+2,,AUTO
         0 000022   200010 451500                    STP1    BUF_POSN+3,,AUTO
         0 000023   200010 236100                    LDQ     BUF_POSN+3,,AUTO
         0 000024   000001 036000 1                  ADLQ    1
         0 000025   200006 756100                    STQ     BUF_POSN+1,,AUTO
         0 000026   200006 630500                    EPPR0   BUF_POSN+1,,AUTO
         0 000027   000020 631400 xsym               EPPR1   B_VECTNIL+16
PL6.E3A0      #014=OUT$TXT File=OUT$TEMPLAT.:E05TSI                              WED 07/30/97 04:18 Page:260
         0 000030   000000 701000 xent               TSX1    OUT$ADDSTR
         0 000031   000000 011000                    NOP     0

     1489     3370
     1490     3371    1        CALL OUT$STUFCNT (BUF_POSN);

   3371  0 000032   200005 630500                    EPPR0   BUF_POSN,,AUTO
         0 000033   200006 450500                    STP0    BUF_POSN+1,,AUTO
         0 000034   200006 630500                    EPPR0   BUF_POSN+1,,AUTO
         0 000035   000017 631400 xsym               EPPR1   B_VECTNIL+15
         0 000036   000000 701000 xent               TSX1    OUT$STUFCNT
         0 000037   000000 011000                    NOP     0

     1491     3372
     1492     3373    1        RETURN;

   3373  0 000040   000000 702200 xent               TSX2  ! X66_ARET
     1493     3374    1   END OUT$TXT;

PL6.E3A0      #014=OUT$TXT File=OUT$TEMPLAT.:E05TSI                              WED 07/30/97 04:18 Page:261
--  Include file information  --

   OUT_SUBS_C.:E05TOU  is referenced.
   XU_MACRO_C.:E05TOU  is referenced.
   B$JIT_C.:E05TOU  was found in the system file and is never referenced.
   CP_6_C.:E05TOU  was found in the system file and is never referenced.
      No diagnostics issued in procedure OUT$TXT.
PL6.E3A0      #014=OUT$TXT File=OUT$TEMPLAT.:E05TSI                              WED 07/30/97 04:18 Page:262

 **** Variables and constants ****

  ****  Auto variables  ****

  ****  Scalars and arrays  ****
OctLoc.c.b A Datatyp(siz) R M Lvl/name                 OctLoc.c.b A Datatyp(siz) R M Lvl/name

     3-0-0/w PTR         r     1 @NODE_PTR$                 5-0-0/w SBIN        r     1 BUF_POSN
     4-0-0/w SBIN        r     1 I                         *0-0-0/w PTR         r     1 NODE_PTR$

  ****  BASED and DCB variables  ****

  ****  Scalars and arrays  ****
OctLoc.c.b A Datatyp(siz) R M Lvl/name                 OctLoc.c.b A Datatyp(siz) R M Lvl/name

     0-0-0/w ASTR(153)   r     1 OU$OUTSYM


   Procedure OUT$TXT requires 33 words for executable code.
   Procedure OUT$TXT requires 10 words of local(AUTO) storage.

    No errors detected in file OUT$TEMPLAT.:E05TSI    .
PL6.E3A0      #014=OUT$TXT File=OUT$TEMPLAT.:E05TSI                              WED 07/30/97 04:18 Page:263
          *** CROSS REFERENCE LISTING ***
**     DENOTES     IDENTIFIER DEFINITION
<<                 IDENTIFIER'S VALUE SET
>>                 IDENTIFIER'S VALUE USED
<>                 IDENTIFIER SET AND/OR USED
--                 IDENTIFIER REFERENCED
PL6.E3A0      #014=OUT$TXT File=OUT$TEMPLAT.:E05TSI                              WED 07/30/97 04:18 Page:264
          MINI XREF LISTING

BUF_POSN
      3357**DCL      3365<>CALL     3371<>CALL
I
      3356**DCL      3367<<ASSIGN   3369<>CALL
NODE_PTR$
        25**DCL        20--PROC     3367>>ASSIGN   3369>>CALL     3369>>CALL
OU$OUTSYM.COUNT
      3291**DCL      3294--IMP-SIZ  3367>>ASSIGN   3369>>CALL
OU$OUTSYM.TEXT
      3294**DCL      3369<>CALL
OUT$ADDSTR
      3350**DCL-ENT  3369--CALL
OUT$ADDTKN
      3349**DCL-ENT  3365--CALL
OUT$STUFCNT
      3351**DCL-ENT  3371--CALL
