VERSION E05

PL6.E3A0      #001=OUT_DATA_D File=OUT_DATA_D.:E05TSI                            WED 07/30/97 04:15 Page:1
        1        1        /*M* OUT_DATA_D TEMPLATs common data areas */
        2        2        /*T***********************************************************/
        3        3        /*T*                                                         */
        4        4        /*T* Copyright (c) Bull HN Information Systems Inc., 1997    */
        5        5        /*T*                                                         */
        6        6        /*T***********************************************************/
        7        7        /*X* DMR,PLM=5,IND=5,CTI=5,SDI=5,MCL=10,CSI=0,ECI=0 */
        8        8        %SET LISTSUB='1'B;
        9        9        OUT_DATA_D: PROC NOAUTO;
       10       10    1   DCL OUT_RECNO UBIN STATIC SYMDEF ALIGNED;
       11       11    1   DCL 1 OUT_INPUT_KEY STATIC SYMDEF ALIGNED,
       12       12    1            2 TCHAR UBIN(8) UNAL,
       13       13    1            2 EDIT_VAL SBIN(28) UNAL;
       14       14    1   DCL OUT_MID BIT(36) STATIC SYMDEF UNAL;
       15       15    1   DCL 1 OUT_MIDD REDEF OUT_MID,
       16       16    1            2 FCG BIT(12) UNAL,
       17       17    1            2 MID BIT(6) UNAL,
       18       18    1            2 * BIT(18) UNAL;
       19       19    1   DCL OUT_ERROR_CODE UBIN STATIC SYMDEF UNAL;
       20       20    1   DCL OUT_SEV UBIN STATIC SYMDEF UNAL;
       21       21    1   DCL OUT_ERR_CNT SBIN STATIC SYMDEF ALIGNED;
       22       22    1   DCL OUT_ERR_STRING CHAR(140) STATIC SYMDEF ALIGNED;
       23       23    1   DCL OUT$TOPNODE$ PTR STATIC SYMDEF ALIGNED;
       24       24    1   DCL 1 OUT_KEY STATIC SYMDEF ALIGNED,
       25       25    1            2 * UBIN BYTE UNAL INIT(3),
       26       26    1            2 LANG_ CHAR(1) UNAL,
       27       27    1            2 MESS# UBIN HALF UNAL INIT(0);
       28       28    1   DCL OUT_TEMPLATE CHAR(4096) STATIC SYMDEF;
       29       29    1   DCL OUT_TPOSN UBIN WORD ALIGNED STATIC SYMDEF;
       30       30    1   DCL 1 OUT_VALUE STATIC SYMDEF,
       31       31    1            2 CHAR4 CHAR(4) UNAL,
       32       32    1            2 BIT36 REDEF CHAR4 BIT(36) UNAL,
       33       33    1            2 UBINWORD REDEF CHAR4 UBIN WORD UNAL;
       34       34                                                /**/
       35       35    1   DCL OUT_UNWIND REMEMBER DALIGNED STATIC SYMDEF;
       36       36
       37       37    1   DCL OUT_ERRORED SBIN ALIGNED STATIC SYMDEF;
PL6.E3A0      #001=OUT_DATA_D File=OUT_DATA_D.:E05TSI                            WED 07/30/97 04:15 Page:2
       38       38                                                /**/
       39       39    1   END OUT_DATA_D;

PL6.E3A0      #001=OUT_DATA_D File=OUT_DATA_D.:E05TSI                            WED 07/30/97 04:15 Page:3
      No diagnostics issued in procedure OUT_DATA_D.

   No code generated for procedure OUT_DATA_D .
   Procedure OUT_DATA_D is declared NOAUTO and requires 1074 words of local(STATIC) storage.

    No errors detected in file OUT_DATA_D.:E05TSI    .

PL6.E3A0      #001=OUT_DATA_D File=OUT_DATA_D.:E05TSI                            WED 07/30/97 04:15 Page:4

 Object Unit name= OUT_DATA_D                                 File name= OUT_DATA_D.:E05TOU
 UTS= JUL 30 '97 04:15:55.40 WED                              Compiler= PL-6/E31         Sev=      00
 SharedLib= :SHARED_SYSTEM                                    Alt SharedLib=


    ****  Control sections  ****

 Sect   Type Bound  Init  Size OctSiz  Section name(segment info)
    0   Data  even  none  1074   2062  OUT_DATA_D
    1   Proc  even  none     0      0  OUT_DATA_D

    ****  Entry defs  ****

                              Check   Calling
                             calling  sequence
  Sect OctLoc Primary Altret sequence   type   Parms  Name
     1      0   yes            yes     ~proc       0  OUT_DATA_D

  ****  Data defs  ****

 Sect OctLoc  Name                           Sect OctLoc  Name
    0      1  OUT_RECNO                          0      2  OUT_INPUT_KEY
    0      3  OUT_MID                            0      4  OUT_ERROR_CODE
    0      5  OUT_SEV                            0      6  OUT_ERR_CNT
    0      7  OUT_ERR_STRING                     0     52  OUT$TOPNODE$
    0     53  OUT_KEY                            0     54  OUT_TEMPLATE
    0   2054  OUT_TPOSN                          0   2055  OUT_VALUE
    0   2056  OUT_UNWIND                         0   2060  OUT_ERRORED
PL6.E3A0      #001=OUT_DATA_D File=OUT_DATA_D.:E05TSI                            WED 07/30/97 04:15 Page:5

        1        1        /*M* OUT_DATA_D TEMPLATs common data areas */
        2        2        /*T***********************************************************/
        3        3        /*T*                                                         */
        4        4        /*T* Copyright (c) Bull HN Information Systems Inc., 1997    */
        5        5        /*T*                                                         */
        6        6        /*T***********************************************************/
        7        7        /*X* DMR,PLM=5,IND=5,CTI=5,SDI=5,MCL=10,CSI=0,ECI=0 */
        8        8        %SET LISTSUB='1'B;
        9        9        OUT_DATA_D: PROC NOAUTO;
       10       10    1   DCL OUT_RECNO UBIN STATIC SYMDEF ALIGNED;
       11       11    1   DCL 1 OUT_INPUT_KEY STATIC SYMDEF ALIGNED,
       12       12    1            2 TCHAR UBIN(8) UNAL,
       13       13    1            2 EDIT_VAL SBIN(28) UNAL;
       14       14    1   DCL OUT_MID BIT(36) STATIC SYMDEF UNAL;
       15       15    1   DCL 1 OUT_MIDD REDEF OUT_MID,
       16       16    1            2 FCG BIT(12) UNAL,
       17       17    1            2 MID BIT(6) UNAL,
       18       18    1            2 * BIT(18) UNAL;
       19       19    1   DCL OUT_ERROR_CODE UBIN STATIC SYMDEF UNAL;
       20       20    1   DCL OUT_SEV UBIN STATIC SYMDEF UNAL;
       21       21    1   DCL OUT_ERR_CNT SBIN STATIC SYMDEF ALIGNED;
       22       22    1   DCL OUT_ERR_STRING CHAR(140) STATIC SYMDEF ALIGNED;
       23       23    1   DCL OUT$TOPNODE$ PTR STATIC SYMDEF ALIGNED;
       24       24    1   DCL 1 OUT_KEY STATIC SYMDEF ALIGNED,
       25       25    1            2 * UBIN BYTE UNAL INIT(3),
       26       26    1            2 LANG_ CHAR(1) UNAL,
       27       27    1            2 MESS# UBIN HALF UNAL INIT(0);
       28       28    1   DCL OUT_TEMPLATE CHAR(4096) STATIC SYMDEF;
       29       29    1   DCL OUT_TPOSN UBIN WORD ALIGNED STATIC SYMDEF;
       30       30    1   DCL 1 OUT_VALUE STATIC SYMDEF,
       31       31    1            2 CHAR4 CHAR(4) UNAL,
       32       32    1            2 BIT36 REDEF CHAR4 BIT(36) UNAL,
       33       33    1            2 UBINWORD REDEF CHAR4 UBIN WORD UNAL;
       34       34                                                /**/
       35       35    1   DCL OUT_UNWIND REMEMBER DALIGNED STATIC SYMDEF;
       36       36
       37       37    1   DCL OUT_ERRORED SBIN ALIGNED STATIC SYMDEF;
PL6.E3A0      #001=OUT_DATA_D File=OUT_DATA_D.:E05TSI                            WED 07/30/97 04:15 Page:6
       38       38                                                /**/
       39       39    1   END OUT_DATA_D;

PL6.E3A0      #001=OUT_DATA_D File=OUT_DATA_D.:E05TSI                            WED 07/30/97 04:15 Page:7
      No diagnostics issued in procedure OUT_DATA_D.
PL6.E3A0      #001=OUT_DATA_D File=OUT_DATA_D.:E05TSI                            WED 07/30/97 04:15 Page:8

 **** Variables and constants ****


   No code generated for procedure OUT_DATA_D .
   Procedure OUT_DATA_D is declared NOAUTO and requires 1074 words of local(STATIC) storage.

    No errors detected in file OUT_DATA_D.:E05TSI    .
PL6.E3A0      #001=OUT_DATA_D File=OUT_DATA_D.:E05TSI                            WED 07/30/97 04:15 Page:9
          *** CROSS REFERENCE LISTING ***
**     DENOTES     IDENTIFIER DEFINITION
<<                 IDENTIFIER'S VALUE SET
>>                 IDENTIFIER'S VALUE USED
<>                 IDENTIFIER SET AND/OR USED
--                 IDENTIFIER REFERENCED
PL6.E3A0      #001=OUT_DATA_D File=OUT_DATA_D.:E05TSI                            WED 07/30/97 04:15 Page:10
          MINI XREF LISTING

OUT_MID
        14**DCL        15--REDEF
OUT_VALUE.CHAR4
        31**DCL        32--REDEF      33--REDEF
