VERSION E05

PL6.E3A0      #001=O_SCREECH_D File=O_SCREECH_D.:E05TSI                          WED 07/30/97 04:18 Page:1
        1        1        /*M* OC_SCREECH_D contains screech SYMDEFs for Operator Communication
        2        2             screeches */
        3        3        /*T***********************************************************/
        4        4        /*T*                                                         */
        5        5        /*T* Copyright (c) Bull HN Information Systems Inc., 1997    */
        6        6        /*T*                                                         */
        7        7        /*T***********************************************************/
        8        8        /*X* DMR,PLM=5,IND=5,CTI=5,SDI=5,MCL=10,CSI=0,ECI=0 */
        9        9                                                /**/
       10       10        O_SCREECH_D: PROC NOAUTO;
       11       11                                                /**/
       12       12        %INCLUDE OC_SCODE_C;
       13       37                                                /**/
       14       38        %INCLUDE JS_CP6;
       15      456        /*S*
       16      457             SCREECH_CODE: OCI-S$OCBADDCTX
       17      458             TYPE: SCREECH
       18      459             MESSAGE: Someone asked MONKEY to print a message about a
       19      460                       non-existant device.
       20      461             REMARKS: The system configuration may be wrong or confused,
       21      462                       or MONKEY may have lost track of where the DCT tables
       22      463                       are, or someone may have indeed passed an invalid
       23      464                       DCTX to OCI$MK_WR or OCI$MK_WRTM.
       24      465                                                                          */
       25      466        /*S*
       26      467             SCREECH_CODE: OCI-S$OCOPERRECOV
       27      468             TYPE: SCREECH
       28      469             MESSAGE: The operator requested automatic system recovery.
       29      470             REMARKS:  The operator should have some reason for typing in
       30      471                       the !DIE! keyin.
       31      472                                                                          */
       32      473        /*S*
       33      474             SCREECH_CODE: OCI-S$OCZAP
       34      475             TYPE: ZAP
       35      476             MESSAGE: OPERATOR ZAPPED THE SYSTEM
       36      477             REMARKS: NONE
       37      478                                                               */
PL6.E3A0      #001=O_SCREECH_D File=O_SCREECH_D.:E05TSI                          WED 07/30/97 04:18 Page:2
       38      479                                                /**/
       39      480        %VLP_SCREECH  (STCLASS=CONSTANT SYMDEF,FPTN=SC_OCBADDCTX,
       40      481                                 FCG=OC,
       41      482                                 MID=I,
       42      483                                 CODE=%S$OCBADDCTX,
       43      484                                 ALLUSR=NO,
       44      485                                 PMDATA=NO);
       45      555                                                /**/
       46      556                                                /**/
       47      557        %VLP_SCREECH (STCLASS=CONSTANT SYMDEF,FPTN=SC_OCOPERRECOV,
       48      558                                 FCG=OC,
       49      559                                 MID=I,
       50      560                                 CODE=%S$OCOPERRECOV);
       51      630                                                /**/
       52      631        %VLP_SCREECH     (STCLASS=CONSTANT SYMDEF,FPTN=SC_OCZAP,
       53      632                                 FCG=OC,
       54      633                                 MID=I,
       55      634                                 CODE=%S$OCZAP,
       56      635                                 SEV=SEV_ZAP);
       57      705                                                /**/
       58      706        %VLP_SCREECH     (STCLASS=CONSTANT SYMDEF,FPTN=SC_OCIDIAG,
       59      707                                 FCG=OC,
       60      708                                 MID=I,
       61      709                                 CODE=%S$OCIDIAG,
       62      710                                 SEV=SEV_SNAP);
       63      780    1   END O_SCREECH_D;

PL6.E3A0      #001=O_SCREECH_D File=O_SCREECH_D.:E05TSI                          WED 07/30/97 04:18 Page:3
--  Include file information  --

   JS_CP6.:E05TOU  is referenced.
   OC_SCODE_C.:E05TOU  is referenced.
      No diagnostics issued in procedure O_SCREECH_D.

   No code generated for procedure O_SCREECH_D .
   Procedure O_SCREECH_D is declared NOAUTO and requires 2 words of local(STATIC) storage.

    No errors detected in file O_SCREECH_D.:E05TSI    .

PL6.E3A0      #001=O_SCREECH_D File=O_SCREECH_D.:E05TSI                          WED 07/30/97 04:18 Page:4

 Object Unit name= O_SCREECH_D                                File name= O_SCREECH_D.:E05TOU
 UTS= JUL 30 '97 04:18:36.36 WED                              Compiler= PL-6/E31         Sev=      00
 SharedLib= :SHARED_SYSTEM                                    Alt SharedLib=


    ****  Control sections  ****

 Sect   Type Bound  Init  Size OctSiz  Section name(segment info)
    0   Data  even  none     2      2  O_SCREECH_D
    1  RoData even  UTS      8     10  O_SCREECH_D
    2   Proc  even  none     0      0  O_SCREECH_D

    ****  Entry defs  ****

                              Check   Calling
                             calling  sequence
  Sect OctLoc Primary Altret sequence   type   Parms  Name
     2      0   yes            yes     ~proc       0  O_SCREECH_D

  ****  Data defs  ****

 Sect OctLoc  Name                           Sect OctLoc  Name
    1      0  SC_OCBADDCTX                       1      2  SC_OCOPERRECOV
    1      4  SC_OCZAP                           1      6  SC_OCIDIAG
PL6.E3A0      #001=O_SCREECH_D File=O_SCREECH_D.:E05TSI                          WED 07/30/97 04:18 Page:5


(unnamed)
 Sect OctLoc
   1     000   170311 405057   777772 167760   170311 404547   777776 177760    x../..w.x.......
   1     004   170311 404664   777776 177760   170311 404725   777776 177760    x.......x.......
        1        1        /*M* OC_SCREECH_D contains screech SYMDEFs for Operator Communication
        2        2             screeches */
        3        3        /*T***********************************************************/
        4        4        /*T*                                                         */
        5        5        /*T* Copyright (c) Bull HN Information Systems Inc., 1997    */
        6        6        /*T*                                                         */
        7        7        /*T***********************************************************/
        8        8        /*X* DMR,PLM=5,IND=5,CTI=5,SDI=5,MCL=10,CSI=0,ECI=0 */
        9        9                                                /**/
       10       10        O_SCREECH_D: PROC NOAUTO;
       11       11                                                /**/
       12       12        %INCLUDE OC_SCODE_C;
       13       37                                                /**/
       14       38        %INCLUDE JS_CP6;
       15      456        /*S*
       16      457             SCREECH_CODE: OCI-S$OCBADDCTX
       17      458             TYPE: SCREECH
       18      459             MESSAGE: Someone asked MONKEY to print a message about a
       19      460                       non-existant device.
       20      461             REMARKS: The system configuration may be wrong or confused,
       21      462                       or MONKEY may have lost track of where the DCT tables
       22      463                       are, or someone may have indeed passed an invalid
       23      464                       DCTX to OCI$MK_WR or OCI$MK_WRTM.
       24      465                                                                          */
       25      466        /*S*
       26      467             SCREECH_CODE: OCI-S$OCOPERRECOV
       27      468             TYPE: SCREECH
       28      469             MESSAGE: The operator requested automatic system recovery.
       29      470             REMARKS:  The operator should have some reason for typing in
       30      471                       the !DIE! keyin.
       31      472                                                                          */
       32      473        /*S*
PL6.E3A0      #001=O_SCREECH_D File=O_SCREECH_D.:E05TSI                          WED 07/30/97 04:18 Page:6
       33      474             SCREECH_CODE: OCI-S$OCZAP
       34      475             TYPE: ZAP
       35      476             MESSAGE: OPERATOR ZAPPED THE SYSTEM
       36      477             REMARKS: NONE
       37      478                                                               */
       38      479                                                /**/
       39      480        %VLP_SCREECH  (STCLASS=CONSTANT SYMDEF,FPTN=SC_OCBADDCTX,
       40      481                                 FCG=OC,
       41      482                                 MID=I,
       42      483                                 CODE=%S$OCBADDCTX,
       43      484                                 ALLUSR=NO,
       44      485                                 PMDATA=NO);
       45      555                                                /**/
       46      556                                                /**/
       47      557        %VLP_SCREECH (STCLASS=CONSTANT SYMDEF,FPTN=SC_OCOPERRECOV,
       48      558                                 FCG=OC,
       49      559                                 MID=I,
       50      560                                 CODE=%S$OCOPERRECOV);
       51      630                                                /**/
       52      631        %VLP_SCREECH     (STCLASS=CONSTANT SYMDEF,FPTN=SC_OCZAP,
       53      632                                 FCG=OC,
       54      633                                 MID=I,
       55      634                                 CODE=%S$OCZAP,
       56      635                                 SEV=SEV_ZAP);
       57      705                                                /**/
       58      706        %VLP_SCREECH     (STCLASS=CONSTANT SYMDEF,FPTN=SC_OCIDIAG,
       59      707                                 FCG=OC,
       60      708                                 MID=I,
       61      709                                 CODE=%S$OCIDIAG,
       62      710                                 SEV=SEV_SNAP);
       63      780    1   END O_SCREECH_D;

PL6.E3A0      #001=O_SCREECH_D File=O_SCREECH_D.:E05TSI                          WED 07/30/97 04:18 Page:7
--  Include file information  --

   JS_CP6.:E05TOU  is referenced.
   OC_SCODE_C.:E05TOU  is referenced.
      No diagnostics issued in procedure O_SCREECH_D.
PL6.E3A0      #001=O_SCREECH_D File=O_SCREECH_D.:E05TSI                          WED 07/30/97 04:18 Page:8

 **** Variables and constants ****


   No code generated for procedure O_SCREECH_D .
   Procedure O_SCREECH_D is declared NOAUTO and requires 2 words of local(STATIC) storage.

    No errors detected in file O_SCREECH_D.:E05TSI    .
PL6.E3A0      #001=O_SCREECH_D File=O_SCREECH_D.:E05TSI                          WED 07/30/97 04:18 Page:9
          *** CROSS REFERENCE LISTING ***
**     DENOTES     IDENTIFIER DEFINITION
<<                 IDENTIFIER'S VALUE SET
>>                 IDENTIFIER'S VALUE USED
<>                 IDENTIFIER SET AND/OR USED
--                 IDENTIFIER REFERENCED
PL6.E3A0      #001=O_SCREECH_D File=O_SCREECH_D.:E05TSI                          WED 07/30/97 04:18 Page:10
          MINI XREF LISTING

