PL6.E3A0      #001=PCC$CONTROL File=PCC$CONTROL.:E05TSI                          WED 07/30/97 04:19 Page:486
P$TBL.MULT
     15961**DCL     20558>>ASSIGN  20572>>IF      20583>>CALL    20589>>CALL    20596>>IF      20607>>CALL
     20613>>CALL    20697>>CALL    20704>>CALL    20714>>CALL    20721>>CALL    20725>>IF      20805>>IF
     20810>>IF      20850>>ASSIGN  20856>>ASSIGN  20866>>ASSIGN
P$TBL.PSUPTR$
     15955**DCL     15956--REDEF
P$TBL.PTR$
     15951**DCL     15952--REDEF   19845>>ASSIGN  20560>>ASSIGN  20579>>ASSIGN  20603>>ASSIGN  20889>>CALLBLT
     20889>>CALLBLT 20892>>ASSIGN
P$TBL.REPSUPTR$.ADDRESS
     15957**DCL     20670>>ASSIGN  20781>>ASSIGN
P$TBL.REPTR$.ADDRESS
     15953**DCL     20658>>ASSIGN  20771>>ASSIGN
P$TBL.RESPTR$
     15947**DCL     19197>>ASSIGN  19263>>ASSIGN  19391>>ASSIGN  21065>>IF
P$TBL.TEXT
     15948**DCL     21067>>ASSIGN  21091<>CALL
P$TBL.TEXT.COUNT
     15949**DCL     20878>>ASSIGN
P$TBL.TEXT.TEXT
     15950**DCL     20879>>CALLBLT
P$TBL.VALCODE
     15946**DCL     19971>>IF      20025>>IF      20068>>IF      20100>>IF      20163>>IF
PARAM$
     11670**DCL     19517<<ASSIGN  19519>>IF      19532>>IF      19545>>IF      19558>>IF      19571>>ASSIGN
     19572>>ASSIGN  19574>>IF      19574>>IF      19574>>IF      19577>>CALL    19577>>CALL    19955<<ASSIGN
     19956>>ASSIGN  20010>>IF      20010>>IF      20090<<ASSIGN  20091>>ASSIGN  20114>>CALL    20114>>CALL
     20153<<ASSIGN  20154>>ASSIGN  20177>>IF      20178>>CALL    20178>>CALL    20564<<ASSIGN  20571>>IF
     20572>>IF      20572>>IF      20574>>CALL    20579>>ASSIGN  20579>>ASSIGN  20581>>IF      20581>>IF
     20583>>CALL    20587>>IF      20587>>IF      20589>>CALL    20595>>IF      20596>>IF      20596>>IF
     20598>>CALL    20603>>ASSIGN  20603>>ASSIGN  20605>>IF      20605>>IF      20607>>CALL    20611>>IF
     20611>>IF      20613>>CALL    20878>>ASSIGN  20879>>CALLBLT 20881>>IF      20888>>IF      20889>>CALLBLT
     20889>>CALLBLT 20892>>ASSIGN
PARSE_ERR
     19105**LABEL   19069--CALLALT
PART#$
PL6.E3A0      #001=PCC$CONTROL File=PCC$CONTROL.:E05TSI                          WED 07/30/97 04:19 Page:487
     11669**DCL     19221<<ASSIGN  19223>>IF      19229>>ASSIGN  19231>>IF      19234>>ASSIGN  19452<<ASSIGN
     19454>>IF      19460>>ASSIGN  19462>>IF      19465>>ASSIGN
PART#_FLGS
     11709**DCL     19448<<ASSIGN  19476<<ASSIGN  19844<<ASSIGN  19848<<ASSIGN
PART$
     11635**DCL     20697>>CALL    20704>>CALL    20714>>CALL    20721>>CALL    20725>>IF      20725>>IF
     20727>>CALL    20792>>IF      20793>>CALL    20796>>IF      20797>>CALL    20805>>IF      20805>>IF
     20807>>CALL    20810>>IF      20810>>IF      20812>>CALL    20818>>IF      20819>>CALL    20822>>IF
     20823>>CALL    20829>>IF      20830>>CALL    20833>>IF      20834>>CALL    20840>>IF      20841>>CALL
PARTITION_TBL
     14965**DCL     11635--DCLINIT 15661--DCLINIT
PARTSKIPSET IN PROCEDURE SET_VALUE
     20848**LABEL   20699--GOTO    20706--GOTO    20716--GOTO    20723--GOTO    20728--GOTO    20738--GOTO
     20745--GOTO    20755--GOTO    20762--GOTO    20767--GOTO    20776--GOTO    20786--GOTO    20794--GOTO
     20798--GOTO    20808--GOTO    20813--GOTO    20820--GOTO    20824--GOTO    20831--GOTO    20835--GOTO
     20842--GOTO
PC$
     11744**DCL     19998<<ASSIGN  20004>>IF
PC$HDR
     12822**DCL     19043--ASSIGN  19047--ASSIGN  20313--ASSIGN  20334--ASSIGN  20336--ASSIGN  20350--ASSIGN
     20366--ASSIGN  20401--ASSIGN  20424--ASSIGN  20441--ASSIGN  20468--ASSIGN  20945--ASSIGN  20959--ASSIGN
PC$HDR.CURINSTANCES
     12823**DCL     19042>>ASSIGN  20313>>ASSIGN  20335<<ASSIGN  20351>>DOINDEX 20375<<ASSIGN  20375>>ASSIGN
     20402>>DOINDEX 20425>>DOINDEX 20442>>DOINDEX 20469>>DOINDEX 20947>>DOINDEX
PC$INSTANCE
     12826**DCL     19043--ASSIGN  19062--ASSIGN  20313--ASSIGN  20361--ASSIGN  20372--ASSIGN  20374--CALL
     20377<<ASSIGN  20411--ASSIGN  20430--ASSIGN  20455--ASSIGN  20478--ASSIGN  20953--ASSIGN  20959--ASSIGN
PC$INSTANCE.FLAGS.ACTIVE
     12830**DCL     20960>>IF
PC$INSTANCE.FLAGS.DELETED
     12831**DCL     19054>>ASSIGN  19055>>IF      20352>>IF      20369>>IF      20403>>IF      20426>>IF
     20443>>IF      20470>>IF      20948>>IF      20964<<ASSIGN
PC$INSTANCE.FLAGS.HEADER
     12832**DCL     19059>>ASSIGN  20450<<ASSIGN  20473<<ASSIGN  20967<<ASSIGN
PC$INSTANCE.HDR
     12834**DCL     19061>>ASSIGN
PL6.E3A0      #001=PCC$CONTROL File=PCC$CONTROL.:E05TSI                          WED 07/30/97 04:19 Page:488
PC$INSTANCE.HDR.CNT
     12835**DCL     20448<<ASSIGN  20471<<ASSIGN
PC$INSTANCE.HDR.MSG
     12836**DCL     20449<<ASSIGN  20472<<ASSIGN
PC$INSTANCE.INSTANCE_NAME
     12827**DCL     19049>>ASSIGN  20352>>IF      20378<<ASSIGN  20403>>IF      20443>>IF      20948>>IF
PC$INSTANCE.MAXTPU
     12828**DCL     19058>>ASSIGN  20379<<ASSIGN  20408<<ASSIGN  20427<<ASSIGN
PC$INSTANCE.STATS
     12852**DCL     20380<<ASSIGN
PC$JIT$
     11645**DCL     18972>>IF      18972>>IF      19139>>IF      19139>>IF      19139>>IF      21142>>IF
PC$JITPTR
     11641**DCL     11645--REDEF
PCB$BREAK
     15996**DCL-ENT 17682--DCLINIT
PCB$BREAKSET
     15997**DCL-ENT 17698--DCLINIT
PCB$TRAP
     15998**DCL-ENT 18840--DCLINIT
PCE$ERROR
     15992**DCL-ENT 19097--CALL    19113--CALL    19120--CALL    19150--CALL    19237--CALL    19328--CALL
     19375--CALL    19403--CALL    19468--CALL    19588--CALL    19614--CALL    19736--CALL    19739--CALL
     19740--CALL    19748--CALL    19863--CALL    19940--CALL    19960--CALL    19974--CALL    20018--CALL
     20029--CALL    20079--CALL    20095--CALL    20104--CALL    20118--CALL    20141--CALL    20158--CALL
     20167--CALL    20201--CALL    20224--CALL    20243--CALL    20279--CALL    20291--CALL    20294--CALL
     20295--CALL    20300--CALL    20330--CALL    20342--CALL    20358--CALL    20419--CALL    20463--CALL
     20497--CALL    20502--CALL    20854--CALL    20855--CALL    20905--CALL    20956--CALL    20961--CALL
     20968--CALL    20986--CALL    20987--CALL    21007--CALL    21143--CALL    21235--CALL    21236--CALL
PCN_CMDS
     16029**DCL     19069<>CALL
PCP$PDISP
     15994**DCL-ENT 19528--CALL    19541--CALL    19554--CALL    19567--CALL    19833--CALL    19857--CALL
PCR$RESTEXT
     15995**DCL-ENT 20882--CALL    21068--CALL
PCT$EXCEPTION
PL6.E3A0      #001=PCC$CONTROL File=PCC$CONTROL.:E05TSI                          WED 07/30/97 04:19 Page:489
     16003**DCL-ENT 19423--CALL    19444--CALL    19853--CALL
PCT$PARTITION
     16002**DCL-ENT 19422--CALL    19443--CALL    19480--CALL    19850--CALL
PCT$RESOURCE
     16001**DCL-ENT 19421--CALL    19442--CALL    19842--CALL
PCT$SYSTEM
     16000**DCL-ENT 19420--CALL    19441--CALL    19840--CALL
PCT$TPCAT
     16004**DCL-ENT 19424--CALL    19485--CALL    19489--CALL    19492--CALL    19498--CALL    19503--CALL
     19509--CALL
PCW$WRITE
     15993**DCL-ENT 18990--CALL    21048--CALL    21115--CALL    21127--CALL
PC_CODE
     11748**DCL     20004>>IF
PC_REASON
     11639**DCL     18965<<ASSIGN  19038<<ASSIGN  19065<<ASSIGN
PDT
     11721**DCL     11724--DCLINIT
PDT$
     11724**DCL     20688>>ASSIGN  21165>>ASSIGN  21224>>ASSIGN
PDTFLAG$
     11725**DCL     19756>>ASSIGN  20689>>ASSIGN  21166>>ASSIGN  21225>>ASSIGN
PDTFLAGS
     11722**DCL     11725--DCLINIT
PMAXRFLGS
     15700**DCL     15091--DCLINIT
PMINRFLGS
     15696**DCL     15064--DCLINIT
PMME
     11740**DCL     11741--REDEF   19989<<ASSIGN
PMME_REDEF.CODE
     11743**DCL     19991>>ASSIGN
PMME_REDEF.FCG
     11742**DCL     19990>>ASSIGN
PRINT_BUF
     11702**DCL     21033<<ASSIGN  21038<<CALLBLT 21041<<CALLBLT 21046<<CALLBLT 21048<>CALL    21049<<ASSIGN
PL6.E3A0      #001=PCC$CONTROL File=PCC$CONTROL.:E05TSI                          WED 07/30/97 04:19 Page:490
     21115<>CALL    21118<<ASSIGN  21121<<CALLBLT 21127<>CALL    21129<<ASSIGN
PRINT_ERR IN PROCEDURE LIST_PRINT
     21135**LABEL   21115--CALLALT 21127--CALLALT
PRINT_FLAG IN PROCEDURE LIST_PRINT
     21108**DCL     21106--PROC    21126>>IF
PRIV_FPT
     17715**DCL     18977<>CALL    18981<>CALL
PRIV_FPT.V
     17715**DCL     17715--DCLINIT
PRIV_FPT.V.PRIV#
     17715**DCL     18980<<ASSIGN
PRIV_VALS.PC_CODE
     11751**DCL     19998--ASSIGN
PRIV_VALS.VAL_CODE
     11780**DCL     19999--ASSIGN
PSURES$TEXT
     15971**DCL     19015>>ASSIGN
PSURES_TEXT
     11695**DCL     19015<<ASSIGN  19922>>IF
PTR$
     11824**DCL     20940<<ASSIGN  20941>>DOINDEX 20942>>ASSIGN  20942>>ASSIGN  20943>>ASSIGN
P_PCB.NCHARS
     16196**DCL     19135<<ASSIGN  19144>>ASSIGN
P_PCB.OUT$
     16062**DCL     19069<>CALL    19071>>DOCASE  19105<>CALL    19166>>IF      19167>>ASSIGN  19168>>ASSIGN
     19168>>ASSIGN  19169>>ASSIGN  19172>>DOINDEX 19173>>ASSIGN  19418>>IF      19418>>IF      19432>>IF
     19435>>DOINDEX 19436>>ASSIGN  19937>>DOINDEX 19938>>ASSIGN  20937>>DOSELCT 20940>>ASSIGN
P_PCB.WORK$
     16058**DCL     19022<<ASSIGN
P_PCB$
     11857**DCL     16049--IMP-PTR 19018<<ASSIGN  19019<>CALL    19022>>ASSIGN  19069>>CALL    19071>>DOCASE
     19105>>CALL    19135>>ASSIGN  19144>>ASSIGN  19166>>IF      19167>>ASSIGN  19168>>ASSIGN  19168>>ASSIGN
     19169>>ASSIGN  19172>>DOINDEX 19173>>ASSIGN  19418>>IF      19418>>IF      19432>>IF      19435>>DOINDEX
     19436>>ASSIGN  19937>>DOINDEX 19938>>ASSIGN  20937>>DOSELCT 20940>>ASSIGN
READ_CMD_FPT
     17576**DCL     19133<>CALL
PL6.E3A0      #001=PCC$CONTROL File=PCC$CONTROL.:E05TSI                          WED 07/30/97 04:19 Page:491
READ_CMD_FPT.STATION_
     17579**DCL     17580--REDEF
READ_CMD_FPT.V
     17580**DCL     17576--DCLINIT
READ_CMD_FPT.V.DVBYTE.REREAD#
     17591**DCL     17591--REDEF
READ_CMD_FPT.V.INDX#
     17589**DCL     17589--REDEF
READ_ERR IN PROCEDURE READ_CMD
     19150**LABEL   19133--CALLALT
READ_HEAD
     18770**DCL     19627<>CALL    20213<>CALL
READ_HEAD.STATION_
     18773**DCL     18774--REDEF
READ_HEAD.V
     18774**DCL     18770--DCLINIT
READ_HEAD.V.DVBYTE.REREAD#
     18785**DCL     18785--REDEF
READ_HEAD.V.INDX#
     18783**DCL     18783--REDEF
REMEM_CMD_READ
     11689**DCL     18994<<REMEMBR
REREAD IN PROCEDURE READ_CMD
     19132**LABEL   19137--GOTO
RES$
     11636**DCL     20122>>IF      20658>>ASSIGN  20670>>ASSIGN  20771>>ASSIGN  20781>>ASSIGN
RES$FLGS
     15970**DCL     19197<<ASSIGN  19263<<ASSIGN  19391<<ASSIGN  21065>>IF
RESET_BREAK IN PROCEDURE EXEC_SET
     20493**LABEL   19975--GOTO    20019--GOTO    20030--GOTO    20105--GOTO    20168--GOTO
RESOURCE_TBL
     14850**DCL     11636--DCLINIT 15652--DCLINIT
RESSKIPSET IN PROCEDURE SET_VALUE
     20685**LABEL   20652--GOTO    20664--GOTO    20676--GOTO
RESTEXT_C
     13125**DCL     20882<>CALL    21068<>CALL
PL6.E3A0      #001=PCC$CONTROL File=PCC$CONTROL.:E05TSI                          WED 07/30/97 04:19 Page:492
RESTEXT_C.COUNT
     13126**DCL     20883>>CALLBLT 20885>>ASSIGN  21069>>CALLBLT 21071>>ASSIGN
RESTEXT_C.TEXT
     13127**DCL     20883>>CALLBLT 21069>>CALLBLT
RES_INDEX IN PROCEDURE GET_RES
     19872**DCL     19870--PROC
RES_INDX
     11696**DCL     19196<<DOINDEX 19197>>ASSIGN  19262<<DOINDEX 19263>>ASSIGN  19387<>CALL    19391>>ASSIGN
     19577<>CALL    19579>>ASSIGN  19916<<ASSIGN  19923<<ASSIGN  20114<>CALL    20116>>IF      20178<>CALL
     20181<<ASSIGN  20646>>IF      20657>>IF      20661>>IF      20662>>CALL    20666>>ASSIGN  20673>>IF
     20674>>CALL    20678>>ASSIGN  20734>>IF      20735>>IF      20736>>ASSIGN  20742>>IF      20743>>ASSIGN
     20747>>ASSIGN  20748>>ASSIGN  20751>>IF      20752>>IF      20753>>ASSIGN  20759>>IF      20760>>ASSIGN
     20764>>IF      20770>>IF      20773>>IF      20774>>CALL    20783>>IF      20784>>CALL    20789>>ASSIGN
     20790>>ASSIGN  20882<>CALL    21063<<DOINDEX 21065>>IF      21068<>CALL
RES_TEXT
     11691**DCL     19915>>IF
RUBUF
     11833**DCL     19721--CALL    19731--CALL    19732--CALL
RUBUF.COUNT
     11834**DCL     19642<<ASSIGN  19720>>IF      19723<<ASSIGN  19726>>CALLBLT 19727<<ASSIGN  19727>>ASSIGN
RUBUF.TEXT
     11835**DCL     19643<<ASSIGN  19722<<ASSIGN  19726<<CALLBLT
RUPARAM_TBL.COUNT
     11840**DCL     19648>>ASSIGN
RUPARAM_TBL.TEXT
     11841**DCL     19649>>CALLBLT
RU_FMT
     11832**DCL     19639--CALL
RU_PARAMS
     11831**DCL     19622<<ASSIGN  19631<<ASSIGN  19633<<ASSIGN  19634<<ASSIGN  19636<<ASSIGN  19647>>IF
     19709<<ASSIGN  19730>>IF
SETAUTH
     11687**DCL     18985<<ASSIGN  19939>>IF
SET_CAT
     11733**DCL     19952<<ASSIGN  19953>>IF      19954<<ASSIGN  19958>>IF      19969>>IF      19971>>IF
     19978>>IF      20015>>IF      20025>>IF      20025>>IF      20042>>IF      20047>>IF      20066>>IF
PL6.E3A0      #001=PCC$CONTROL File=PCC$CONTROL.:E05TSI                          WED 07/30/97 04:19 Page:493
     20068>>IF      20089<<ASSIGN  20093>>IF      20100>>IF      20100>>IF      20152<<ASSIGN  20156>>IF
     20163>>IF      20163>>IF      20558>>ASSIGN  20560>>ASSIGN  20564>>ASSIGN  20566>>DOCASE  20620>>IF
     20629>>IF      20850>>ASSIGN  20856>>ASSIGN  20866>>ASSIGN
SET_INDEXHI
     11736**DCL     20049<<ASSIGN  20053<<ASSIGN  20061<<ASSIGN  20073<<ASSIGN  20084<<ASSIGN  20127<<ASSIGN
     20134<<ASSIGN  20146<<ASSIGN  20187<<ASSIGN  20196<<ASSIGN  20198<<ASSIGN  20200>>IF      20525<<ASSIGN
     20570>>DOINDEX 20645>>DOINDEX 20687>>DOINDEX
SET_INDEXLO
     11735**DCL     20048<<ASSIGN  20052<<ASSIGN  20059<<ASSIGN  20061>>ASSIGN  20072<<ASSIGN  20083<<ASSIGN
     20126<<ASSIGN  20132<<ASSIGN  20134>>ASSIGN  20145<<ASSIGN  20186<<ASSIGN  20193<<ASSIGN  20196>>ASSIGN
     20200>>IF      20524<<ASSIGN  20570>>DOINDEX 20645>>DOINDEX 20687>>DOINDEX
SET_PARAM
     11734**DCL     19956<<ASSIGN  19958>>IF      19969>>IF      19971>>IF      19978>>IF      20015>>IF
     20025>>IF      20025>>IF      20042>>IF      20066>>IF      20068>>IF      20091<<ASSIGN  20093>>IF
     20100>>IF      20100>>IF      20116>>IF      20122>>IF      20154<<ASSIGN  20156>>IF      20163>>IF
     20163>>IF      20545<<ASSIGN  20548<<ASSIGN  20558>>ASSIGN  20560>>ASSIGN  20571>>IF      20572>>IF
     20572>>IF      20574>>CALL    20579>>ASSIGN  20581>>IF      20583>>CALL    20587>>IF      20589>>CALL
     20595>>IF      20596>>IF      20596>>IF      20598>>CALL    20603>>ASSIGN  20605>>IF      20607>>CALL
     20611>>IF      20613>>CALL    20620>>IF      20620>>IF      20620>>IF      20629>>IF      20658>>ASSIGN
     20670>>ASSIGN  20692>>DOCASE  20850>>ASSIGN  20856>>ASSIGN  20866>>ASSIGN  20878>>ASSIGN  20879>>CALLBLT
     20881>>IF      20888>>IF
SET_PDT$
     11727**DCL     20688<<ASSIGN  20696>>IF      20697>>CALL    20708>>ASSIGN  20713>>IF      20714>>CALL
     20730>>ASSIGN  20735>>IF      20736>>ASSIGN  20747>>ASSIGN  20752>>IF      20753>>ASSIGN  20789>>ASSIGN
     20801>>ASSIGN  20802>>ASSIGN  20815>>ASSIGN  20826>>ASSIGN  20837>>ASSIGN  20844>>ASSIGN  21165<<ASSIGN
     21172>>ASSIGN  21176>>ASSIGN  21181>>ASSIGN  21185>>ASSIGN  21190>>ASSIGN  21193>>ASSIGN  21197>>ASSIGN
     21201>>ASSIGN  21205>>ASSIGN  21224<<ASSIGN  21227>>ASSIGN
SET_PDTFLAG$
     11728**DCL     19756<<ASSIGN  19760>>IF      19764>>IF      19770>>IF      19787>>IF      19802>>IF
     19806>>IF      19810>>IF      19814>>IF      19818>>IF      20689<<ASSIGN  20695>>IF      20709>>ASSIGN
     20712>>IF      20731>>ASSIGN  20734>>IF      20748>>ASSIGN  20751>>IF      20790>>ASSIGN  20803>>ASSIGN
     20816>>ASSIGN  20827>>ASSIGN  20838>>ASSIGN  20845>>ASSIGN  21166<<ASSIGN  21168>>IF      21171>>IF
     21175>>IF      21180>>IF      21184>>IF      21189>>IF      21192>>IF      21196>>IF      21200>>IF
     21204>>IF      21225<<ASSIGN  21228>>ASSIGN
SET_TIMEZONE IN PROCEDURE EXEC_SET
     20516**PROC    20021--CALL
PL6.E3A0      #001=PCC$CONTROL File=PCC$CONTROL.:E05TSI                          WED 07/30/97 04:19 Page:494
SET_VALUE IN PROCEDURE EXEC_SET
     20556**PROC    20055--CALL    20062--CALL    20074--CALL    20085--CALL    20128--CALL    20135--CALL
     20147--CALL    20188--CALL    20205--CALL    20546--CALL    20549--CALL
SIZE IN PROCEDURE GBLK
     20922**DCL     20920--PROC    20924>>DOWHILE 20929>>ASSIGN  20930>>ASSIGN
SKIPSET IN PROCEDURE SET_VALUE
     20642**LABEL   20575--GOTO    20585--GOTO    20591--GOTO    20599--GOTO    20609--GOTO    20615--GOTO
SKIP_IT
     19065**LABEL   19026--CALLALT
SL_IOTA
     16280**DCL     13515--DCLINIT
SL_MF
     16280**DCL     13543--DCLINIT
SL_MFU
     16280**DCL     13571--DCLINIT
SL_QMIN
     16281**DCL     13431--DCLINIT
SL_QUAN
     16280**DCL     13459--DCLINIT
START_CMD IN PROCEDURE EXEC_ADD
     19166**LABEL   19159--GOTO
SUBLK$
     11809**DCL     19977<<ASSIGN  19981>>IF      19982>>IF      19987>>DOINDEX 19988>>ASSIGN  20001>>DOINDEX
     20002>>ASSIGN
SUB_BUF_1.COUNT
     16235**DCL     19326<<ASSIGN  19373<<ASSIGN  20356<<ASSIGN  20416<<ASSIGN  20460<<ASSIGN  20878<<ASSIGN
     20879>>CALLBLT 20883>>CALLBLT 20885<<ASSIGN  20885>>ASSIGN  20889>>CALLBLT 20892<<ASSIGN  20892>>ASSIGN
     20943<<ASSIGN
SUB_BUF_1.TEXT
     16236**DCL     19327<<ASSIGN  19374<<ASSIGN  20357<<ASSIGN  20418<<ASSIGN  20462<<ASSIGN  20879<<CALLBLT
     20883<<CALLBLT 20889<<CALLBLT 20944<<ASSIGN
SUB_BUF_2.COUNT
     16238**DCL     20902<<ASSIGN
SUB_BUF_2.TEXT
     16239**DCL     20903<<ASSIGN
SYSACCT
PL6.E3A0      #001=PCC$CONTROL File=PCC$CONTROL.:E05TSI                          WED 07/30/97 04:19 Page:495
     18500**DCL     17811--DCLINIT 17926--DCLINIT 18047--DCLINIT
SYSTEM_TBL
     13245**DCL     11634--DCLINIT 15643--DCLINIT
SYSTEM_TBL.QMIN.MIN
     13434**DCL     19030<<ASSIGN  19035<<ASSIGN
SYSTEM_TBL.QUAN.MIN
     13462**DCL     19031<<ASSIGN  19036<<ASSIGN
S_CTUIS
     16270**DCL     13348--DCLINIT
S_CUIS
     16270**DCL     13321--DCLINIT
S_MUIS
     16270**DCL     13294--DCLINIT
S_PRIOB
     16280**DCL     13487--DCLINIT
S_TUIS
     16270**DCL     13376--DCLINIT
TABLE$
     11822**DCL     20312<<ASSIGN  20314<<ASSIGN  20314>>ASSIGN  20334<<ASSIGN  20928>>ASSIGN  20929<<ASSIGN
     20929>>ASSIGN
TBLINDX
     11829**DCL     20367<<ASSIGN  20371<<ASSIGN  20371>>ASSIGN  20381>>ASSIGN  20382>>ASSIGN  20383>>ASSIGN
     20385>>ASSIGN  20386>>ASSIGN
TBLINSTANCES
     11682**DCL     19042<<ASSIGN  19043>>ASSIGN  19048>>DOINDEX 19291>>DOINDEX 19303>>DOINDEX 19338>>DOINDEX
     19350>>DOINDEX 20338<<ASSIGN  20368>>DOINDEX 20376<<ASSIGN  20376>>ASSIGN
TEMP$
     11660**DCL     11661--REDEF   19219<<ASSIGN  19220>>DOINDEX 19221>>ASSIGN  19287<<ASSIGN  19288>>IF
     19289>>IF      19299>>ASSIGN  19335>>IF      19336>>IF      19346>>ASSIGN  19450<<ASSIGN  19451>>DOINDEX
     19452>>ASSIGN  19494<<ASSIGN  19495>>DOINDEX 19496>>ASSIGN  19496>>ASSIGN  19496>>ASSIGN  19505<<ASSIGN
     19506>>DOINDEX 19507>>ASSIGN  19507>>ASSIGN  19507>>ASSIGN  19604<<ASSIGN  19606>>ASSIGN  19609>>IF
     19610>>ASSIGN  20208<<ASSIGN  20209>>ASSIGN  20209>>ASSIGN  20215<<ASSIGN  20216>>ASSIGN  20217>>ASSIGN
     20217>>ASSIGN  20218>>ASSIGN  20267>>ASSIGN  20394<<ASSIGN  20395>>CALLBLT 20395>>CALLBLT 20435<<ASSIGN
     20448>>ASSIGN  20449>>ASSIGN  20449>>ASSIGN  20450>>ASSIGN  20451>>ASSIGN  20452>>ASSIGN  20452>>ASSIGN
     20453>>ASSIGN  20471>>ASSIGN  20472>>ASSIGN  20472>>ASSIGN  20473>>ASSIGN  20474>>ASSIGN  20475>>ASSIGN
     20475>>ASSIGN  20476>>ASSIGN  20579<<ASSIGN  20581>>IF      20583>>CALL    20587>>IF      20589>>CALL
PL6.E3A0      #001=PCC$CONTROL File=PCC$CONTROL.:E05TSI                          WED 07/30/97 04:19 Page:496
     20603<<ASSIGN  20605>>IF      20607>>CALL    20611>>IF      20613>>CALL    20631<<ASSIGN  20634>>ASSIGN
     20661>>IF      20662>>CALL    20673>>IF      20674>>CALL    21000<<ASSIGN  21001>>IF      21001>>ASSIGN
     21160<<ASSIGN  21169>>ASSIGN
TEMP1
     11675**DCL     19224<<ASSIGN  19229<<ASSIGN  19231>>ASSIGN  19236>>IF      19248>>DOINDEX 19286<<ASSIGN
     19288>>IF      19335>>IF      19385>>IF      19391>>ASSIGN  19395>>ASSIGN  19455<<ASSIGN  19460<<ASSIGN
     19462>>ASSIGN  19467>>IF      19475>>DOINDEX 19751<<ASSIGN  19754>>ASSIGN  19755>>ASSIGN  19761>>ASSIGN
     19765>>ASSIGN  19772>>ASSIGN  19772>>ASSIGN  19773>>ASSIGN  19774>>ASSIGN  19775>>ASSIGN  19776<<ASSIGN
     19776>>ASSIGN  19779>>ASSIGN  19780>>ASSIGN  19789>>ASSIGN  19789>>ASSIGN  19790>>ASSIGN  19791>>ASSIGN
     19792>>ASSIGN  19793<<ASSIGN  19793>>ASSIGN  19796>>ASSIGN  19797>>ASSIGN  19803>>ASSIGN  19807>>ASSIGN
     19811>>ASSIGN  19815>>ASSIGN  19819>>ASSIGN  19822>>IF      19823>>ASSIGN  19824>>ASSIGN  19825>>ASSIGN
     19826<<ASSIGN  19826>>ASSIGN  19831>>IF      19832>>ASSIGN  20393<<ASSIGN  20396>>IF      20434<<ASSIGN
     20436>>IF      20633<<DOINDEX 20634>>ASSIGN  20736<<ASSIGN  20737<>CALL    20743<<ASSIGN  20744<>CALL
     20753<<ASSIGN  20754<>CALL    20760<<ASSIGN  20761<>CALL
TEMP1$
     11664**DCL     19299<<ASSIGN  19300>>DOINDEX 19301>>ASSIGN  19301>>ASSIGN  19346<<ASSIGN  19347>>DOINDEX
     19348>>ASSIGN  19348>>ASSIGN  20267<<ASSIGN  20268>>ASSIGN  20269>>DOINDEX 20270>>DOCASE  20272>>CALLBLT
     20272>>CALLBLT 20275>>CALLBLT 20275>>CALLBLT 20276>>CALLBLT 20276>>CALLBLT
TEMP2
     11676**DCL     19225<<ASSIGN  19231<<ASSIGN  19234<<ASSIGN  19236>>IF      19248>>DOINDEX 19383<<ASSIGN
     19385>>IF      19391>>ASSIGN  19395>>ASSIGN  19456<<ASSIGN  19462<<ASSIGN  19465<<ASSIGN  19467>>IF
     19475>>DOINDEX 19753<<DOINDEX 19756>>ASSIGN  19774>>ASSIGN  19775>>ASSIGN  19791>>ASSIGN  19792>>ASSIGN
     19824>>ASSIGN  19825>>ASSIGN
TEMPBUF
     11836**DCL     19646<<ASSIGN  19649<<CALLBLT 19653<<CALLBLT 19657<<CALLBLT 19662<<CALLBLT 19666<<CALLBLT
     19671<<CALLBLT 19675<<CALLBLT 19680<<CALLBLT 19684<<CALLBLT 19689<<CALLBLT 19693<<CALLBLT 19698<<CALLBLT
     19699<<CALLBLT 19703<<CALLBLT 19707<<CALLBLT 19717<<CALLBLT 19726>>CALLBLT
TEMPLEN
     11851**DCL     19645<<ASSIGN  19648<<ASSIGN  19648>>ASSIGN  19649>>CALLBLT 19653>>CALLBLT 19654<<ASSIGN
     19654>>ASSIGN  19657>>CALLBLT 19658<<ASSIGN  19658>>ASSIGN  19662>>CALLBLT 19663<<ASSIGN  19663>>ASSIGN
     19666>>CALLBLT 19667<<ASSIGN  19667>>ASSIGN  19671>>CALLBLT 19672<<ASSIGN  19672>>ASSIGN  19675>>CALLBLT
     19676<<ASSIGN  19676>>ASSIGN  19680>>CALLBLT 19681<<ASSIGN  19681>>ASSIGN  19684>>CALLBLT 19685<<ASSIGN
     19685>>ASSIGN  19689>>CALLBLT 19690<<ASSIGN  19690>>ASSIGN  19693>>CALLBLT 19694<<ASSIGN  19694>>ASSIGN
     19700<<ASSIGN  19700>>ASSIGN  19703>>CALLBLT 19704<<ASSIGN  19704>>ASSIGN  19707>>CALLBLT 19708<<ASSIGN
     19708>>ASSIGN  19717>>CALLBLT 19718<<ASSIGN  19718>>ASSIGN  19720>>IF      19725<<ASSIGN  19725>>ASSIGN
     19726>>CALLBLT 19727>>ASSIGN  20218<<ASSIGN  20221>>DOINDEX 20228>>CALLBLT
PL6.E3A0      #001=PCC$CONTROL File=PCC$CONTROL.:E05TSI                          WED 07/30/97 04:19 Page:497
TEMPNAME
     11837**DCL     19496<<ASSIGN  19498<>CALL    19507<<ASSIGN  19509<>CALL    19712<<CALLBLT 19714>>DOWHILE
     19717>>CALLBLT 20217<<ASSIGN  20222>>IF      20222>>IF      20228>>CALLBLT 20231<<CALLBLT 20231>>CALLBLT
     20232>>IF      20232>>IF      20232>>IF      20232>>IF      20238>>IF      20238>>IF      20238>>IF
     20260>>ASSIGN
TEMPPTR.ADDRESS
     11662**DCL     20659<<ASSIGN  20671<<ASSIGN
TEMPPTR.SEGID
     11663**DCL     20562<<ASSIGN  20580<<ASSIGN  20604<<ASSIGN  20632<<ASSIGN  21161<<ASSIGN
TEMPTEXT IN PROCEDURE VAL_ERROR
     20875**DCL     20876--REDEF   20896<<CALLBLT 20899--DOWHILE 20902--ASSIGN  20903>>ASSIGN  20903--ASSIGN
TEMPTEXT_ARRAY IN PROCEDURE VAL_ERROR
     20876**DCL     20899>>DOWHILE
TEXTC$INDX.COUNT
     15974**DCL     20889>>CALLBLT 20892>>ASSIGN
TEXTC$INDX.TEXT
     15975**DCL     20889>>CALLBLT
TEXTC_CAT
     13097**DCL     21020<>CALL
TEXTC_DOMAIN
     13114**DCL     21054<>CALL
TEXTC_DOMAINX
     13093**DCL     15344--DCLINIT
TEXTC_MODE
     13106**DCL     21027<>CALL
TEXTC_MODEX
     13086**DCL     13267--DCLINIT 14872--DCLINIT 15537--DCLINIT
TEXTC_PART#X
     13089**DCL     14987--DCLINIT
TEXTC_PART#X.COUNT
     13090**DCL     21041>>CALLBLT 21043>>ASSIGN
TEXTC_PART#X.TEXT
     13091**DCL     21041>>CALLBLT
TEXT_C
     13121**DCL     21067<<ASSIGN  21073<>CALL    21086<>CALL
TEXT_C.COUNT
PL6.E3A0      #001=PCC$CONTROL File=PCC$CONTROL.:E05TSI                          WED 07/30/97 04:19 Page:498
     13122**DCL     21069>>CALLBLT 21071<<ASSIGN  21071>>ASSIGN  21082<<ASSIGN
TEXT_C.TEXT
     13123**DCL     21069<<CALLBLT 21085<<ASSIGN
TEXT_C IN PROCEDURE LIST_PRINT
     21109**DCL     21106--PROC    21113--IF
TEXT_C.COUNT IN PROCEDURE LIST_PRINT
     21110**DCL     21114>>IF      21121>>CALLBLT 21123>>ASSIGN
TEXT_C.TEXT IN PROCEDURE LIST_PRINT
     21111**DCL     21121>>CALLBLT
TEXT_CONTROLHERE
     13129**DCL     18987>>CALLBLT 18988<<CALLBLT 18990<>CALL    18990--CALL
TOTRFLGS
     15692**DCL     14952--DCLINIT
TPHDR_TBL
     15712**DCL     15591--DCLINIT
TPHDR_TBL.FLAGS.PRESENT
     15718**DCL     19059<<ASSIGN  19060>>IF      20453<<ASSIGN  20476<<ASSIGN  20966<<ASSIGN
TPHDR_TBL.FLAGS.PRINT
     15717**DCL     19281<<ASSIGN  19339<<ASSIGN  19353<<ASSIGN
TPHDR_TBL.HDR
     15713**DCL     19061<<ASSIGN
TPHDR_TBL.HDR.CNT
     15714**DCL     20451<<ASSIGN  20474<<ASSIGN
TPHDR_TBL.HDR.MSG
     15715**DCL     20452<<ASSIGN  20475<<ASSIGN
TP_CNTRL_D
     18112**DCL     18043--DCLINIT
TP_TBL
     15515**DCL     11638--DCLINIT 15670--DCLINIT
TP_TBL.MAXTPU.FLAGS.PRINT
     15601**DCL     19290<<ASSIGN  19309<<ASSIGN  19317<<ASSIGN  20386>>ASSIGN  20387>>IF      21078>>IF
TP_TBL.MAXTPU.MAX
     15620**DCL     19206<<ASSIGN  19207<<ASSIGN  19272<<ASSIGN  19273<<ASSIGN  19295<<ASSIGN  19296<<ASSIGN
     19310>>IF      19311<<ASSIGN  19311>>ASSIGN  19314>>IF      19315<<ASSIGN  19315>>ASSIGN  19316>>IF
     20388<<ASSIGN  20388>>ASSIGN
TP_TBL.TPHDR.FLAGS.PRINT
PL6.E3A0      #001=PCC$CONTROL File=PCC$CONTROL.:E05TSI                          WED 07/30/97 04:19 Page:499
     15574**DCL     19337<<ASSIGN  19356<<ASSIGN  19364<<ASSIGN
TP_TBL.TPHDR.MAX
     15593**DCL     19278<<ASSIGN  19279<<ASSIGN  19342<<ASSIGN  19343<<ASSIGN  19357>>IF      19358<<ASSIGN
     19358>>ASSIGN  19361>>IF      19362<<ASSIGN  19362>>ASSIGN  19363>>IF
TRY_DISP
     18979**LABEL   18977--CALLALT
UMT_TIMEZONE
     17500**DCL     14812--DCLINIT
UMT_UTC_OFFSET
     17500**DCL     14841--DCLINIT
UQ_MAXENQ
     17510**DCL     13709--DCLINIT
VAL$
     11745**DCL     19990<<ASSIGN  19991>>ASSIGN  19999<<ASSIGN  20005>>ASSIGN
VALUE
     11737**DCL     11738--REDEF   19768<<DOINDEX 19770>>IF      19780>>ASSIGN  19785<<DOINDEX 19787>>IF
     19797>>ASSIGN  20032<<ASSIGN  20037<<ASSIGN  20037>>ASSIGN  20039<<CALLBLT 20107<<ASSIGN  20109<<ASSIGN
     20109>>ASSIGN  20111<<CALLBLT 20170<<ASSIGN  20172<<ASSIGN  20172>>ASSIGN  20174<<CALLBLT 20228<<CALLBLT
     20236<<ASSIGN  20241<<ASSIGN  20250>>ASSIGN  20252>>ASSIGN  20254>>ASSIGN  20256>>ASSIGN  20258>>ASSIGN
     20263>>ASSIGN  20264>>IF      20283>>ASSIGN  20395<<CALLBLT 20408>>ASSIGN  20409>>ASSIGN  20427>>ASSIGN
     20428>>ASSIGN  20544<<ASSIGN  20547<<ASSIGN  20558<<ASSIGN  20558>>ASSIGN  20572>>IF      20581>>IF
     20587>>IF      20596>>IF      20605>>IF      20611>>IF      20625>>ASSIGN  20627>>ASSIGN  20633>>DOINDEX
     20649>>IF      20654>>ASSIGN  20661>>IF      20666>>ASSIGN  20673>>IF      20678>>ASSIGN  20696>>IF
     20703>>IF      20708>>ASSIGN  20713>>IF      20720>>IF      20725>>IF      20730>>ASSIGN  20735>>IF
     20742>>IF      20747>>ASSIGN  20752>>IF      20759>>IF      20765>>IF      20773>>IF      20783>>IF
     20789>>ASSIGN  20792>>IF      20796>>IF      20800>>IF      20805>>IF      20810>>IF      20815>>ASSIGN
     20818>>IF      20822>>IF      20826>>ASSIGN  20829>>IF      20833>>IF      20837>>ASSIGN  20840>>IF
     20844>>ASSIGN  20850<<ASSIGN  20850>>ASSIGN  20856<<ASSIGN  20856>>ASSIGN  20866<<ASSIGN  20866>>ASSIGN
VAL_CODE
     11749**DCL     20005>>ASSIGN
VAL_ERROR IN PROCEDURE SET_VALUE
     20869**PROC    20574--CALL    20583--CALL    20589--CALL    20598--CALL    20607--CALL    20613--CALL
     20650--CALL    20662--CALL    20674--CALL    20697--CALL    20704--CALL    20714--CALL    20721--CALL
     20727--CALL    20737--CALL    20744--CALL    20754--CALL    20761--CALL    20766--CALL    20774--CALL
     20784--CALL    20793--CALL    20797--CALL    20807--CALL    20812--CALL    20819--CALL    20823--CALL
     20830--CALL    20834--CALL    20841--CALL
PL6.E3A0      #001=PCC$CONTROL File=PCC$CONTROL.:E05TSI                          WED 07/30/97 04:19 Page:500
VEHLIST
     18156**DCL     18045--DCLINIT
VEHLIST.Q
     18157**DCL     18156--DCLINIT
VLR_SITEINFO
     18936**DCL     18921--DCLINIT
VLR_SITEINFO.CPU_TYPE#
     18940**DCL     19027>>IF      19027>>IF      19033>>IF
WAIT IN PROCEDURE EXEC_STORE
     21156**LABEL   21158--CALLALT
WORDS_AVAIL
     11811**DCL     19045<<ASSIGN  20336<<ASSIGN  20924>>DOWHILE 20926<<ASSIGN  20926>>ASSIGN  20930<<ASSIGN
     20930>>ASSIGN
WRITE_CNTRL_FPT
     18324**DCL     20639<>CALL    20682<>CALL    21215<>CALL
WRITE_CNTRL_FPT.BUF_.BOUND
     18324**DCL     19006<<ASSIGN
WRITE_CNTRL_FPT.BUF_.BUF$
     18326**DCL     19003<<ASSIGN  19006>>ASSIGN
WRITE_CNTRL_FPT.STATION_
     18326**DCL     18326--REDEF
WRITE_CNTRL_FPT.V
     18327**DCL     18324--DCLINIT
WRITE_CNTRL_FPT.V.DVBYTE.VFC#
     18333**DCL     18333--REDEF
WRITE_HEAD
     18812**DCL     20289<>CALL
WRITE_HEAD.STATION_
     18814**DCL     18814--REDEF
WRITE_HEAD.V
     18815**DCL     18812--DCLINIT
WRITE_HEAD.V.DVBYTE.VFC#
     18821**DCL     18821--REDEF
X$WRITE
     11075**DCL-ENT 19639--CALL    19721--CALL    19731--CALL    19732--CALL
XST$TIMEZONE
PL6.E3A0      #001=PCC$CONTROL File=PCC$CONTROL.:E05TSI                          WED 07/30/97 04:19 Page:501
     16009**DCL-ENT 20537--CALL
XST_TIMEZONE
     16011**DCL     12384--DCLINIT
XTX$ADAPT
     11875**DCL-ENT 11954--DCLINIT 12290--DCLINIT
XUG$GETCMD
     16012**DCL-ENT 20534--CALL
XUG$INIT
     16013**DCL-ENT 19023--CALL
XUG_GETCMD
     12383**DCL     19023<>CALL    20534<>CALL
XUG_GETCMD.OUT$
     12388**DCL     12394--REDEF   20535>>ASSIGN
XUG_GETCMD.TEXT_
     12646**DCL     20533<<ASSIGN
XUG_INIT
     11979**DCL     19023<>CALL
XUR$ERRMSG
     15990**DCL-ENT 19105--CALL
XUR$GETCMD
     15988**DCL-ENT 19069--CALL
XUR$INIT
     15989**DCL-ENT 19019--CALL
XUR_INIT
     11880**DCL     19019<>CALL
XUR_INIT.WORKR_
     11894**DCL     11895--REDEF
