VERSION E05

PL6.E3A0      #001=PCE$ERROR File=PCE$ERROR.:E05TSI                              WED 07/30/97 04:19 Page:1
        1        1        /*M*     PCE$ERROR - ERROR MESSAGE REPORTER FOR CONTROL    */
        2        2        /*T***********************************************************/
        3        3        /*T*                                                         */
        4        4        /*T* Copyright (c) Bull HN Information Systems Inc., 1997    */
        5        5        /*T*                                                         */
        6        6        /*T***********************************************************/
        7        7        /*X*/
        8        8        PCE$ERROR: PROC (ERR#,FLAGLEV) ALTRET;
        9        9        /**/
       10       10        /**********************************************************************/
       11       11        /*   PARAMETERS   PARAMETERS   PARAMETERS   PARAMETERS   PARAMETERS   */
       12       12        /**********************************************************************/
       13       13    1   DCL ERR# UBIN(36);
       14       14    1   DCL FLAGLEV UBIN(36);
       15       15        /**/
       16       16        /*********************************************************************/
       17       17        /*   INCLUDE FILES   INCLUDE FILES   INCLUDE FILES   INCLUDE FILES   */
       18       18        /*********************************************************************/
       19       19        %INCLUDE CP_6;
       20      100        %B$TCB;
       21      103        %B$ALT;
       22      111    1   DCL XUR$ERRMSG ENTRY(7) ALTRET;
       23      112    1   DCL 1 ERR_CODE STATIC SYMDEF,
       24      113    1         2 FCG_MID BIT(18) UNAL,
       25      114    1         2 MON BIT(1) UNAL,
       26      115    1         2 ERR# UBIN(14) UNAL,
       27      116    1         2 SEV UBIN(3) UNAL;
       28      117    1   DCL 1 SUB_BUF_1 STATIC SYMDEF,
       29      118    1         2 COUNT UBIN(9) UNAL,
       30      119    1         2 TEXT CHAR(31) UNAL;
       31      120    1   DCL 1 SUB_BUF_2 STATIC SYMDEF,
       32      121    1         2 COUNT UBIN(9) UNAL,
       33      122    1         2 TEXT CHAR(31) UNAL;
       34      123    1   DCL 1 SUB_BUF_3 STATIC SYMDEF,
       35      124    1         2 COUNT UBIN(9) UNAL,
       36      125    1         2 TEXT CHAR(31) UNAL;
       37      126    1   DCL B$TCB$ PTR SYMREF;
PL6.E3A0      #001=PCE$ERROR File=PCE$ERROR.:E05TSI                              WED 07/30/97 04:19 Page:2
       38      127        /**/
       39      128        %FPT_EXIT( FPTN=BYE_BYE, STCLASS="SYMREF");
       40      143        /**/
       41      144        %EJECT;
PL6.E3A0      #001=PCE$ERROR File=PCE$ERROR.:E05TSI                              WED 07/30/97 04:19 Page:3
       42      145    1        ERR_CODE = '200303000000'O;
       43      146    1        IF ERR# = 0
       44      147    1           THEN ERR_CODE = B$TCB$->B$TCB.ALT$->B$ALT.ERR;
       45      148    1           ELSE ERR_CODE.ERR# = ERR#;
       46      149    1        CALL XUR$ERRMSG(ERR_CODE,,,VECTOR(SUB_BUF_1),VECTOR(SUB_BUF_2),VECTOR(SUB_BUF_3
               149                 ),FLAGLEV);
       47      150    1        IF (FLAGLEV > 2)  THEN
       48      151    1           BYE_BYE.V.STEPCC# = FLAGLEV;
       49      152    1        RETURN;
       50      153    1   END PCE$ERROR;

PL6.E3A0      #001=PCE$ERROR File=PCE$ERROR.:E05TSI                              WED 07/30/97 04:19 Page:4
--  Include file information  --

   CP_6.:E05TOU  cannot be made into a system file and is referenced.
   B$JIT_C.:E05TOU  was found in the system file and is never referenced.
   CP_6_C.:E05TOU  was found in the system file and is referenced.
      No diagnostics issued in procedure PCE$ERROR.

   Procedure PCE$ERROR requires 39 words for executable code.
   Procedure PCE$ERROR requires 14 words of local(AUTO) storage.

    No errors detected in file PCE$ERROR.:E05TSI    .

PL6.E3A0      #001=PCE$ERROR File=PCE$ERROR.:E05TSI                              WED 07/30/97 04:19 Page:5

 Object Unit name= PCE$ERROR                                  File name= PCE$ERROR.:E05TOU
 UTS= JUL 30 '97 04:19:41.36 WED                              Compiler= PL-6/E31         Sev=      00
 SharedLib= :SHARED_SYSTEM                                    Alt SharedLib=


    ****  Control sections  ****

 Sect   Type Bound  Init  Size OctSiz  Section name(segment info)
    0   DCB   even  none     0      0  M$UC
    1   Data  even  none    25     31  PCE$ERROR
    2  RoData even  UTS      1      1  PCE$ERROR
    3   Proc  even  none    39     47  PCE$ERROR
    4  RoData even  none    10     12  PCE$ERROR

    ****  Entry defs  ****

                              Check   Calling
                             calling  sequence
  Sect OctLoc Primary Altret sequence   type   Parms  Name
     3      0   yes    yes     yes      Std        2  PCE$ERROR

  ****  Data defs  ****

 Sect OctLoc  Name                           Sect OctLoc  Name
    1      0  ERR_CODE                           1      1  SUB_BUF_1
    1     11  SUB_BUF_2                          1     21  SUB_BUF_3

  ****  Entry refs  ****

         Check        Calling
        calling       sequence
Altret sequence SRef   type   Args  Name
 yes     yes           Std       7 XUR$ERRMSG
                       nStd      0 X66_AUTO_2
                       Std       0 B_CONSPOOL_D
                       nStd      0 X66_ARET
PL6.E3A0      #001=PCE$ERROR File=PCE$ERROR.:E05TSI                              WED 07/30/97 04:19 Page:6

  ****  Data refs  ****

  Flags:  r = read only, s = secondary
Flgs Name                             Flgs Name                             Flgs Name
     M$UC                                  B$TCB$                                BYE_BYE
     B_VECTNIL

  ****  Segment refs  ****

  Flags:  r = read only, s = secondary
Flgs Name                             Flgs Name                             Flgs Name
     ISSID
PL6.E3A0      #001=PCE$ERROR File=PCE$ERROR.:E05TSI                              WED 07/30/97 04:19 Page:7


        1        1        /*M*     PCE$ERROR - ERROR MESSAGE REPORTER FOR CONTROL    */
        2        2        /*T***********************************************************/
        3        3        /*T*                                                         */
        4        4        /*T* Copyright (c) Bull HN Information Systems Inc., 1997    */
        5        5        /*T*                                                         */
        6        6        /*T***********************************************************/
        7        7        /*X*/
        8        8        PCE$ERROR: PROC (ERR#,FLAGLEV) ALTRET;

      8  3 000000   000000 700200 xent  PCE$ERROR    TSX0  ! X66_AUTO_2
         3 000001   000016 000002                    ZERO    14,2

        9        9        /**/
       10       10        /**********************************************************************/
       11       11        /*   PARAMETERS   PARAMETERS   PARAMETERS   PARAMETERS   PARAMETERS   */
       12       12        /**********************************************************************/
       13       13    1   DCL ERR# UBIN(36);
       14       14    1   DCL FLAGLEV UBIN(36);
       15       15        /**/
       16       16        /*********************************************************************/
       17       17        /*   INCLUDE FILES   INCLUDE FILES   INCLUDE FILES   INCLUDE FILES   */
       18       18        /*********************************************************************/
       19       19        %INCLUDE CP_6;
       20      100        %B$TCB;
       21      103        %B$ALT;
       22      111    1   DCL XUR$ERRMSG ENTRY(7) ALTRET;
       23      112    1   DCL 1 ERR_CODE STATIC SYMDEF,
       24      113    1         2 FCG_MID BIT(18) UNAL,
       25      114    1         2 MON BIT(1) UNAL,
       26      115    1         2 ERR# UBIN(14) UNAL,
       27      116    1         2 SEV UBIN(3) UNAL;
       28      117    1   DCL 1 SUB_BUF_1 STATIC SYMDEF,
       29      118    1         2 COUNT UBIN(9) UNAL,
       30      119    1         2 TEXT CHAR(31) UNAL;
       31      120    1   DCL 1 SUB_BUF_2 STATIC SYMDEF,
       32      121    1         2 COUNT UBIN(9) UNAL,
PL6.E3A0      #001=PCE$ERROR File=PCE$ERROR.:E05TSI                              WED 07/30/97 04:19 Page:8
       33      122    1         2 TEXT CHAR(31) UNAL;
       34      123    1   DCL 1 SUB_BUF_3 STATIC SYMDEF,
       35      124    1         2 COUNT UBIN(9) UNAL,
       36      125    1         2 TEXT CHAR(31) UNAL;
       37      126    1   DCL B$TCB$ PTR SYMREF;
       38      127        /**/
       39      128        %FPT_EXIT( FPTN=BYE_BYE, STCLASS="SYMREF");
       40      143        /**/
       41      144        %EJECT;
PL6.E3A0      #001=PCE$ERROR File=PCE$ERROR.:E05TSI                              WED 07/30/97 04:19 Page:9
       42      145    1        ERR_CODE = '200303000000'O;

    145  3 000002   000000 236000 2                  LDQ     0
         3 000003   000000 756000 1                  STQ     ERR_CODE

       43      146    1        IF ERR# = 0

    146  3 000004   200003 470500                    LDP0    @ERR#,,AUTO
         3 000005   000000 235100                    LDA     0,,PR0
         3 000006   000014 601000 3                  TNZ     s:148

       44      147    1           THEN ERR_CODE = B$TCB$->B$TCB.ALT$->B$ALT.ERR;

    147  3 000007   000000 471400 xsym               LDP1    B$TCB$
         3 000010   100000 473500                    LDP3    0,,PR1
         3 000011   300102 236100                    LDQ     66,,PR3
         3 000012   000000 756000 1                  STQ     ERR_CODE
         3 000013   000021 710000 3                  TRA     s:149

       45      148    1           ELSE ERR_CODE.ERR# = ERR#;

    148  3 000014   000000 236100                    LDQ     0,,PR0
         3 000015   000003 736000                    QLS     3
         3 000016   000000 676000 1                  ERQ     ERR_CODE
         3 000017   377770 376007                    ANQ     131064,DL
         3 000020   000000 656000 1                  ERSQ    ERR_CODE

       46      149    1       CALL XUR$ERRMSG(ERR_CODE,,,VECTOR(SUB_BUF_1),VECTOR(SUB_BUF_2),VECTOR(SUB_BUF_3
               149                 ),FLAGLEV);

    149  3 000021   200004 236100                    LDQ     @FLAGLEV,,AUTO
         3 000022   200014 756100                    STQ     @FLAGLEV+8,,AUTO
         3 000023   000006 237000 4                  LDAQ    6
         3 000024   200012 757100                    STAQ    @FLAGLEV+6,,AUTO
         3 000025   000010 236000 4                  LDQ     8
         3 000026   000001 235000 xsym               LDA     B_VECTNIL+1
         3 000027   200010 757100                    STAQ    @FLAGLEV+4,,AUTO
PL6.E3A0      #001=PCE$ERROR File=PCE$ERROR.:E05TSI                              WED 07/30/97 04:19 Page:10
         3 000030   000001 236000 xsym               LDQ     B_VECTNIL+1
         3 000031   000011 235000 4                  LDA     9
         3 000032   200006 757100                    STAQ    @FLAGLEV+2,,AUTO
         3 000033   200006 630500                    EPPR0   @FLAGLEV+2,,AUTO
         3 000034   000025 631400 xsym               EPPR1   B_VECTNIL+21
         3 000035   000000 701000 xent               TSX1    XUR$ERRMSG
         3 000036   000000 011000                    NOP     0

       47      150    1        IF (FLAGLEV > 2)  THEN

    150  3 000037   200004 470500                    LDP0    @FLAGLEV,,AUTO
         3 000040   000000 235100                    LDA     0,,PR0
         3 000041   000003 115007                    CMPA    3,DL
         3 000042   000046 602000 3                  TNC     s:152

       48      151    1           BYE_BYE.V.STEPCC# = FLAGLEV;

    151  3 000043   000000 236100                    LDQ     0,,PR0
         3 000044   000033 736000                    QLS     27
         3 000045   000004 552040 xsym               STBQ    BYE_BYE+4,'40'O

       49      152    1        RETURN;

    152  3 000046   000000 702200 xent               TSX2  ! X66_ARET
       50      153    1   END PCE$ERROR;

PL6.E3A0      #001=PCE$ERROR File=PCE$ERROR.:E05TSI                              WED 07/30/97 04:19 Page:11
--  Include file information  --

   CP_6.:E05TOU  cannot be made into a system file and is referenced.
   B$JIT_C.:E05TOU  was found in the system file and is never referenced.
   CP_6_C.:E05TOU  was found in the system file and is referenced.
      No diagnostics issued in procedure PCE$ERROR.
PL6.E3A0      #001=PCE$ERROR File=PCE$ERROR.:E05TSI                              WED 07/30/97 04:19 Page:12

 **** Variables and constants ****

  ****  Section 001  Data  PCE$ERROR

  ****  Scalars and arrays  ****
OctLoc.c.b A Datatyp(siz) R M Lvl/name                 OctLoc.c.b A Datatyp(siz) R M Lvl/name

     0-0-0/b STRC        r     1 ERR_CODE                   1-0-0/c STRC(288)   r     1 SUB_BUF_1
    11-0-0/c STRC(288)   r     1 SUB_BUF_2                 21-0-0/c STRC(288)   r     1 SUB_BUF_3

  ****  Auto variables  ****

  ****  Scalars and arrays  ****
OctLoc.c.b A Datatyp(siz) R M Lvl/name                 OctLoc.c.b A Datatyp(siz) R M Lvl/name

     3-0-0/w PTR         r     1 @ERR#                      4-0-0/w PTR         r     1 @FLAGLEV
    *0-0-0/w UBIN        r     1 ERR#                      *0-0-0/w UBIN        r     1 FLAGLEV

  ****  SYMREF variables  ****

  ****  Scalars and arrays  ****
OctLoc.c.b A Datatyp(siz) R M Lvl/name                 OctLoc.c.b A Datatyp(siz) R M Lvl/name

     0-0-0/w PTR         r     1 B$TCB$                     0-0-0/d STRC(216)   r     1 BYE_BYE

  ****  BASED and DCB variables  ****

  ****  Scalars and arrays  ****
OctLoc.c.b A Datatyp(siz) R M Lvl/name                 OctLoc.c.b A Datatyp(siz) R M Lvl/name

     0-0-0/w STRC(2448)  r     1 B$ALT                      0-0-0/w STRC(144)   r     1 B$TCB


   Procedure PCE$ERROR requires 39 words for executable code.
   Procedure PCE$ERROR requires 14 words of local(AUTO) storage.
PL6.E3A0      #001=PCE$ERROR File=PCE$ERROR.:E05TSI                              WED 07/30/97 04:19 Page:13

    No errors detected in file PCE$ERROR.:E05TSI    .
PL6.E3A0      #001=PCE$ERROR File=PCE$ERROR.:E05TSI                              WED 07/30/97 04:19 Page:14
          *** CROSS REFERENCE LISTING ***
**     DENOTES     IDENTIFIER DEFINITION
<<                 IDENTIFIER'S VALUE SET
>>                 IDENTIFIER'S VALUE USED
<>                 IDENTIFIER SET AND/OR USED
--                 IDENTIFIER REFERENCED
PL6.E3A0      #001=PCE$ERROR File=PCE$ERROR.:E05TSI                              WED 07/30/97 04:19 Page:15
          MINI XREF LISTING

B$ALT.CODE
       105**DCL       105--REDEF     106--REDEF     106--REDEF
B$ALT.ERR
       106**DCL       147>>ASSIGN
B$ALT.ERR.ERR#
       107**DCL       107--REDEF
B$ALT.EVID
       106**DCL       106--REDEF     106--REDEF
B$TCB.ALT$
       101**DCL       147>>ASSIGN
B$TCB$
       126**DCL       147>>ASSIGN
BYE_BYE.V.STEPCC#
       140**DCL       140--REDEF     151<<ASSIGN
ERR#
        13**DCL         8--PROC      146>>IF        148>>ASSIGN
ERR_CODE
       112**DCL       145<<ASSIGN    147<<ASSIGN    149<>CALL
ERR_CODE.ERR#
       115**DCL       148<<ASSIGN
FLAGLEV
        14**DCL         8--PROC      149<>CALL      150>>IF        151>>ASSIGN
SUB_BUF_1
       117**DCL       149--CALL
SUB_BUF_2
       120**DCL       149--CALL
SUB_BUF_3
       123**DCL       149--CALL
XUR$ERRMSG
       111**DCL-ENT   149--CALL
