VERSION E05

PL6.E3A0      #001=PCR$RESTEXT File=PCR$RESTEXT.:E05TSI                          WED 07/30/97 04:21 Page:1
        1        1        /*M*     PCR$RESTEXT - GETS RESOURCE TEXT FOR CONTROL      */
        2        2        /*T***********************************************************/
        3        3        /*T*                                                         */
        4        4        /*T* Copyright (c) Bull HN Information Systems Inc., 1997    */
        5        5        /*T*                                                         */
        6        6        /*T***********************************************************/
        7        7        /**/
        8        8        PCR$RESTEXT: PROC(RESINDX,TEXTC);
        9        9        /**/
       10       10    1   DCL RESINDX SBIN WORD;
       11       11    1   DCL 1 TEXTC,
       12       12    1         2 COUNT UBIN(9) UNAL,
       13       13    1         2 TEXT CHAR(12) UNAL;
       14       14        /**/
       15       15        /*****************************************************************/
       16       16        /*   AUTO DATA   AUTO DATA   AUTO DATA   AUTO DATA   AUTO DATA   */
       17       17        /*****************************************************************/
       18       18        /**/
       19       19    1   DCL TEMP SBIN WORD AUTO;
       20       20        /**/
       21       21        /*****************************************************************/
       22       22        /*   SYMREFS   SYMREFS   SYMREFS   SYMREFS   SYMREFS   SYMREFS   */
       23       23        /*****************************************************************/
       24       24        /**/
       25       25    1   DCL RES_TEXT(0:3) CHAR(2) SYMREF;
       26       26    1   DCL PSURES_TEXT(0:7) CHAR(8) SYMREF;
       27       27        /**/
       28       28        %SUB PSURES_OFFSET = 4;
       29       29        /**/
       30       30        %EJECT;
PL6.E3A0      #001=PCR$RESTEXT File=PCR$RESTEXT.:E05TSI                          WED 07/30/97 04:21 Page:2
       31       31        /*****************************************************************************/
       32       32        /*   PROCEDURE   PROCEDURE   PROCEDURE   PROCEDURE   PROCEDURE   PROCEDURE   */
       33       33        /*****************************************************************************/
       34       34        /**/
       35       35    2           IF (RESINDX < PSURES_OFFSET) THEN DO;
       36       36    2              TEXTC.TEXT = RES_TEXT(RESINDX);
       37       37    2              TEXTC.COUNT = 2;
       38       38    2              RETURN;
       39       39    2              END;
       40       40        /**/
       41       41    1           TEMP = RESINDX - PSURES_OFFSET;
       42       42        /**/
       43       43    1           TEXTC.TEXT = PSURES_TEXT(TEMP);
       44       44        /**/
       45       45    1           TEMP = 0;
       46       46    2           DO WHILE (SUBSTR(TEXTC.TEXT,TEMP,1) ~= ' ');
       47       47    2              TEMP = TEMP + 1;             /* COUNT CHARACTERS                   */
       48       48    2              END;
       49       49        /**/
       50       50    1           TEXTC.COUNT = TEMP;
       51       51    1           RETURN;
       52       52    1   END PCR$RESTEXT;

PL6.E3A0      #001=PCR$RESTEXT File=PCR$RESTEXT.:E05TSI                          WED 07/30/97 04:21 Page:3
--  Include file information  --

   B$JIT_C.:E05TOU  was found in the system file and is never referenced.
   CP_6_C.:E05TOU  was found in the system file and is never referenced.
      No diagnostics issued in procedure PCR$RESTEXT.

   Procedure PCR$RESTEXT requires 35 words for executable code.
   Procedure PCR$RESTEXT requires 6 words of local(AUTO) storage.

    No errors detected in file PCR$RESTEXT.:E05TSI    .

PL6.E3A0      #001=PCR$RESTEXT File=PCR$RESTEXT.:E05TSI                          WED 07/30/97 04:21 Page:4

 Object Unit name= PCR$RESTEXT                                File name= PCR$RESTEXT.:E05TOU
 UTS= JUL 30 '97 04:21:19.96 WED                              Compiler= PL-6/E31         Sev=      00
 SharedLib= :SHARED_SYSTEM                                    Alt SharedLib=


    ****  Control sections  ****

 Sect   Type Bound  Init  Size OctSiz  Section name(segment info)
    0   Proc  even  none    35     43  PCR$RESTEXT

    ****  Entry defs  ****

                              Check   Calling
                             calling  sequence
  Sect OctLoc Primary Altret sequence   type   Parms  Name
     0      0   yes            yes      Std        2  PCR$RESTEXT

  ****  Entry refs  ****

         Check        Calling
        calling       sequence
Altret sequence SRef   type   Args  Name
                       nStd      0 X66_AUTO_2
                       Std       0 B_CONSPOOL_D
                       nStd      0 X66_ARET

  ****  Data refs  ****

  Flags:  r = read only, s = secondary
Flgs Name                             Flgs Name                             Flgs Name
     RES_TEXT                              PSURES_TEXT                           B_VECTNIL
PL6.E3A0      #001=PCR$RESTEXT File=PCR$RESTEXT.:E05TSI                          WED 07/30/97 04:21 Page:5


        1        1        /*M*     PCR$RESTEXT - GETS RESOURCE TEXT FOR CONTROL      */
        2        2        /*T***********************************************************/
        3        3        /*T*                                                         */
        4        4        /*T* Copyright (c) Bull HN Information Systems Inc., 1997    */
        5        5        /*T*                                                         */
        6        6        /*T***********************************************************/
        7        7        /**/
        8        8        PCR$RESTEXT: PROC(RESINDX,TEXTC);

      8  0 000000   000000 700200 xent  PCR$RESTEXT  TSX0  ! X66_AUTO_2
         0 000001   000006 000002                    ZERO    6,2

        9        9        /**/
       10       10    1   DCL RESINDX SBIN WORD;
       11       11    1   DCL 1 TEXTC,
       12       12    1         2 COUNT UBIN(9) UNAL,
       13       13    1         2 TEXT CHAR(12) UNAL;
       14       14        /**/
       15       15        /*****************************************************************/
       16       16        /*   AUTO DATA   AUTO DATA   AUTO DATA   AUTO DATA   AUTO DATA   */
       17       17        /*****************************************************************/
       18       18        /**/
       19       19    1   DCL TEMP SBIN WORD AUTO;
       20       20        /**/
       21       21        /*****************************************************************/
       22       22        /*   SYMREFS   SYMREFS   SYMREFS   SYMREFS   SYMREFS   SYMREFS   */
       23       23        /*****************************************************************/
       24       24        /**/
       25       25    1   DCL RES_TEXT(0:3) CHAR(2) SYMREF;
       26       26    1   DCL PSURES_TEXT(0:7) CHAR(8) SYMREF;
       27       27        /**/
       28       28        %SUB PSURES_OFFSET = 4;
       29       29        /**/
       30       30        %EJECT;
PL6.E3A0      #001=PCR$RESTEXT File=PCR$RESTEXT.:E05TSI                          WED 07/30/97 04:21 Page:6
       31       31        /*****************************************************************************/
       32       32        /*   PROCEDURE   PROCEDURE   PROCEDURE   PROCEDURE   PROCEDURE   PROCEDURE   */
       33       33        /*****************************************************************************/
       34       34        /**/
       35       35    2           IF (RESINDX < PSURES_OFFSET) THEN DO;

     35  0 000002   200003 470500                    LDP0    @RESINDX,,AUTO
         0 000003   000000 235100                    LDA     0,,PR0
         0 000004   000004 115007                    CMPA    4,DL
         0 000005   000017 605000 0                  TPL     s:41

       36       36    2              TEXTC.TEXT = RES_TEXT(RESINDX);

     36  0 000006   000001 735000                    ALS     1
         0 000007   200004 471500                    LDP1    @TEXTC,,AUTO
         0 000010   040100 100405                    MLR     fill='040'O
         0 000011   000000 000002 xsym               ADSC9   RES_TEXT,A               cn=0,n=2
         0 000012   100000 200014                    ADSC9   0,,PR1                   cn=1,n=12

       37       37    2              TEXTC.COUNT = 2;

     37  0 000013   000100 101400                    MRL     fill='000'O
         0 000014   000004 000004 xsym               ADSC9   B_VECTNIL+4              cn=0,n=4
         0 000015   100000 000001                    ADSC9   0,,PR1                   cn=0,n=1

       38       38    2              RETURN;

     38  0 000016   000000 702200 xent               TSX2  ! X66_ARET

       39       39    2              END;
       40       40        /**/
       41       41    1           TEMP = RESINDX - PSURES_OFFSET;

     41  0 000017   000004 135007                    SBLA    4,DL
         0 000020   200005 755100                    STA     TEMP,,AUTO

       42       42        /**/
PL6.E3A0      #001=PCR$RESTEXT File=PCR$RESTEXT.:E05TSI                          WED 07/30/97 04:21 Page:7
       43       43    1           TEXTC.TEXT = PSURES_TEXT(TEMP);

     43  0 000021   000003 735000                    ALS     3
         0 000022   200004 471500                    LDP1    @TEXTC,,AUTO
         0 000023   040100 100405                    MLR     fill='040'O
         0 000024   000000 000010 xsym               ADSC9   PSURES_TEXT,A            cn=0,n=8
         0 000025   100000 200014                    ADSC9   0,,PR1                   cn=1,n=12

       44       44        /**/
       45       45    1           TEMP = 0;

     45  0 000026   200005 450100                    STZ     TEMP,,AUTO

       46       46    2           DO WHILE (SUBSTR(TEXTC.TEXT,TEMP,1) ~= ' ');

     46  0 000027   000031 710000 0                  TRA     s:48

       47       47    2              TEMP = TEMP + 1;             /* COUNT CHARACTERS                   */

     47  0 000030   200005 054100                    AOS     TEMP,,AUTO

       48       48    2              END;

     48  0 000031   200004 470500                    LDP0    @TEXTC,,AUTO
         0 000032   200005 235100                    LDA     TEMP,,AUTO
         0 000033   040000 106505                    CMPC    fill='040'O
         0 000034   000000 200001                    ADSC9   0,A,PR0                  cn=1,n=1
         0 000035   000035 000001 xsym               ADSC9   B_VECTNIL+29             cn=0,n=1
         0 000036   000030 601000 0                  TNZ     s:47

       49       49        /**/
       50       50    1           TEXTC.COUNT = TEMP;

     50  0 000037   000100 101500                    MRL     fill='000'O
         0 000040   200005 000004                    ADSC9   TEMP,,AUTO               cn=0,n=4
         0 000041   000000 000001                    ADSC9   0,,PR0                   cn=0,n=1

PL6.E3A0      #001=PCR$RESTEXT File=PCR$RESTEXT.:E05TSI                          WED 07/30/97 04:21 Page:8
       51       51    1           RETURN;

     51  0 000042   000000 702200 xent               TSX2  ! X66_ARET
       52       52    1   END PCR$RESTEXT;

PL6.E3A0      #001=PCR$RESTEXT File=PCR$RESTEXT.:E05TSI                          WED 07/30/97 04:21 Page:9
--  Include file information  --

   B$JIT_C.:E05TOU  was found in the system file and is never referenced.
   CP_6_C.:E05TOU  was found in the system file and is never referenced.
      No diagnostics issued in procedure PCR$RESTEXT.
PL6.E3A0      #001=PCR$RESTEXT File=PCR$RESTEXT.:E05TSI                          WED 07/30/97 04:21 Page:10

 **** Variables and constants ****

  ****  Auto variables  ****

  ****  Scalars and arrays  ****
OctLoc.c.b A Datatyp(siz) R M Lvl/name                 OctLoc.c.b A Datatyp(siz) R M Lvl/name

     3-0-0/w PTR         r     1 @RESINDX                   4-0-0/w PTR         r     1 @TEXTC
    *0-0-0/w SBIN        r     1 RESINDX                    5-0-0/w SBIN        r     1 TEMP
    *0-0-0/c STRC(117)   r     1 TEXTC

  ****  SYMREF variables  ****

  ****  Scalars and arrays  ****
OctLoc.c.b A Datatyp(siz) R M Lvl/name                 OctLoc.c.b A Datatyp(siz) R M Lvl/name

     0-0-0/c CHAR(8)     r     1 PSURES_TEXT(0:7)
     0-0-0/c CHAR(2)     r     1 RES_TEXT(0:3)


   Procedure PCR$RESTEXT requires 35 words for executable code.
   Procedure PCR$RESTEXT requires 6 words of local(AUTO) storage.

    No errors detected in file PCR$RESTEXT.:E05TSI    .
PL6.E3A0      #001=PCR$RESTEXT File=PCR$RESTEXT.:E05TSI                          WED 07/30/97 04:21 Page:11
          *** CROSS REFERENCE LISTING ***
**     DENOTES     IDENTIFIER DEFINITION
<<                 IDENTIFIER'S VALUE SET
>>                 IDENTIFIER'S VALUE USED
<>                 IDENTIFIER SET AND/OR USED
--                 IDENTIFIER REFERENCED
PL6.E3A0      #001=PCR$RESTEXT File=PCR$RESTEXT.:E05TSI                          WED 07/30/97 04:21 Page:12
          MINI XREF LISTING

PSURES_TEXT
        26**DCL        43>>ASSIGN
RESINDX
        10**DCL         8--PROC       35>>IF         36>>ASSIGN     41>>ASSIGN
RES_TEXT
        25**DCL        36>>ASSIGN
TEMP
        19**DCL        41<<ASSIGN     43>>ASSIGN     45<<ASSIGN     46>>DOWHILE    47<<ASSIGN     47>>ASSIGN
        50>>ASSIGN
TEXTC
        11**DCL         8--PROC
TEXTC.COUNT
        12**DCL        37<<ASSIGN     50<<ASSIGN
TEXTC.TEXT
        13**DCL        36<<ASSIGN     43<<ASSIGN     46>>DOWHILE
