PL6.E3A0      #002=PCT$TPCAT File=PCT$TABLES.:E05TSI                             WED 07/30/97 04:23 Page:140
      846        1        /*M* PCT$TPCAT - DISPLAY TP PARAMS FOR CONTROL */
      847        2        /*T***********************************************************/
      848        3        /*T*                                                         */
      849        4        /*T* Copyright (c) Bull HN Information Systems Inc., 1997    */
      850        5        /*T*                                                         */
      851        6        /*T***********************************************************/
      852        7        PCT$TPCAT: PROC(CODE,NAME) ALTRET;
      853        8        /**/
      854        9        /* PARAMS */
      855       10    1   DCL CODE SBIN WORD;
      856       11    1   DCL NAME CHAR(8);
      857       12        /**/
      858       13        /* INCLUDE FILES */
      859       14        %INCLUDE CP_6;
      860       95        %INCLUDE PC_SUBS_C;
      861      427        %INCLUDE PC_PERR_C;
      862      460        %INCLUDE F$DCB;
      863      509        %INCLUDE XU_FORMAT_C;
      864      671        %INCLUDE XUF_ENTRY;
      865      679        /**/
      866      680        /* DCBS */
      867      681    1   DCL M$LO DCB;
      868      682        /**/
      869      683        /* ENTRY DCLS */
      870      684    1   DCL PCE$ERROR ENTRY(2) ALTRET;
      871      685        /**/
      872      686        /* VARS */
      873      687    1   DCL TP$ PTR SYMREF;
      874      688    1   DCL CURINSTANCES SBIN WORD SYMREF;
      875      689    1   DCL TBLINSTANCES SBIN WORD SYMREF;
      876      690    1   DCL 1 MAXTPU_TBL(0:71) ALIGNED SYMREF,
      877      691    1         2 NAME CHAR(8),
      878      692    1         2 MAXTPU UBIN WORD,
      879      693    1         2 COUNT UBIN HALF UNAL,
      880      694    1         2 FLAGS UNAL,
      881      695    1           3 PRINT BIT(1) UNAL,
      882      696    1           3 DELETED BIT(1) UNAL,
PL6.E3A0      #002=PCT$TPCAT File=PCT$TABLES.:E05TSI                             WED 07/30/97 04:23 Page:141
      883      697    1           3 * BIT(16) UNAL;
      884      698    1   DCL 1 TPHDR_TBL(0:71) ALIGNED SYMREF,
      885      699    1    2 HDR,
      886      700    1           3 CNT UBIN BYTE UNAL,
      887      701    1           3 MSG CHAR(80)  UNAL,
      888      702    1    2 FLAGS UNAL,
      889      703    1           3 PRINT BIT(1) UNAL,
      890      704    1           3 PRESENT BIT(1) UNAL,
      891      705    1           3 * BIT(16) UNAL;
      892      706        /**/
      893      707    1   DCL 1 SUB_BUF_1 SYMREF,
      894      708    1         2 COUNT UBIN BYTE UNAL,
      895      709    1         2 TEXT CHAR(31) UNAL;
      896      710    1   DCL I SBIN WORD;
      897      711    1   DCL J SBIN WORD;
      898      712    1   DCL K SBIN WORD;
      899      713    1   DCL OUTBUF CHAR(132) STATIC INIT(' ');
      900      714    1   DCL MAXTPUBUF CHAR(32) STATIC INIT('MAXTPU(');
      901      715    1   DCL TPHDRBUF CHAR(132) STATIC INIT('HEADER(');
      902      716    1   DCL DCB_WIDTH SBIN WORD;
      903      717    1   DCL 1 TPBUF STATIC ALIGNED,
      904      718    1         2 COUNT UBIN BYTE UNAL INIT(0),
      905      719    1         2 TEXT CHAR(132) UNAL INIT(' ');
      906      720         %F_FDS (NAME=FDS,DCB=M$LO,BUF=OUTBUF);
      907      833    1   DCL TPIHDR CHAR(0) CONSTANT INIT('Currently defined TP instances:%10P');
      908      834    1   DCL DUMPBUF CHAR(0) CONSTANT INIT('%T%10P');
      909      835    1   DCL TEMP CHAR(8);
      910      836    1   DCL LEN SBIN WORD;
      911      837    1   DCL TEMPLEN SBIN WORD;
      912      838    1   DCL 1 P$TBL(0:0) BASED ALIGNED,
      913      839    1         2 FLAGS,
      914      840    1           3 PRINT BIT(1) UNAL,
      915      841    1           3 DISPONLY BIT(1) UNAL,
      916      842    1           3 INDX BIT(1) UNAL,
      917      843    1           3 RES BIT(1) UNAL,
      918      844    1           3 MAXCONST BIT(1) UNAL,
      919      845    1           3 MINCONST BIT(1) UNAL,
PL6.E3A0      #002=PCT$TPCAT File=PCT$TABLES.:E05TSI                             WED 07/30/97 04:23 Page:142
      920      846    1           3 VALTEXT BIT(1) UNAL,
      921      847    1             3 VALTEXTLIST BIT(1) UNAL,
      922      848    1             3 * BIT(10) UNAL,
      923      849    1         2 VALCODE UBIN(18) UNAL,
      924      850    1         2 RESPTR$ PTR ALIGNED,
      925      851    1         2 TEXT ALIGNED,
      926      852    1           3 COUNT UBIN(9) UNAL,
      927      853    1           3 TEXT CHAR(19) UNAL,
      928      854    1         2 PTR$ PTR,
      929      855    1         2 REPTR$ REDEF PTR$,
      930      856    1           3 ADDRESS UBIN(24) UNAL,
      931      857    1           3 SEGID UBIN(12) UNAL,
      932      858    1         2 PSUPTR$ PTR,
      933      859    1         2 REPSUPTR$ REDEF PSUPTR$,
      934      860    1           3 ADDRESS UBIN(24) UNAL,
      935      861    1           3 SEGID UBIN(12) UNAL,
      936      862    1         2 MAX UBIN WORD UNAL,
      937      863    1         2 MIN UBIN WORD UNAL,
      938      864    1         2 MULT UBIN WORD UNAL;
      939      865        %EJECT;
PL6.E3A0      #002=PCT$TPCAT File=PCT$TABLES.:E05TSI                             WED 07/30/97 04:23 Page:143
      940      866    1        TPBUF.COUNT = 0;
      941      867    1        TPBUF.TEXT = ' ';
      942      868    1        DCB_WIDTH = DCBADDR(DCBNUM(M$LO))->F$DCB.WIDTH;
      943      869    1        IF DCB_WIDTH = 0 THEN DCB_WIDTH = 80;
      944      870    2        DO CASE(CODE);
      945      871    2           CASE(%PC_PCTFLAGS);
      946      872    3              IF TP$->P$TBL.FLAGS.PRINT(%PC_TPINSTANCE) THEN DO;
      947      873    4                 IF CURINSTANCES > 0 THEN DO;
      948      874    4                    CALL X$WRITE(FDS,VECTOR(TPIHDR));
      949      875    5                    DO I = 0 TO TBLINSTANCES - 1;
      950      876    6                       IF NOT MAXTPU_TBL.FLAGS.DELETED(I) THEN DO;
      951      877    7                          IF TPBUF.COUNT + MAXTPU_TBL.COUNT(I) > DCB_WIDTH THEN DO;
      952      878    7                             CALL X$WRITE(FDS,VECTOR(DUMPBUF),VECTOR(TPBUF));
      953      879    7                             TPBUF.TEXT = ' ';
      954      880    7                             TPBUF.COUNT = 0;
      955      881    7                             END;  /* IF */
      956      882    6                          CALL INSERT(TPBUF.TEXT,TPBUF.COUNT,MAXTPU_TBL.COUNT(I)+1,
      957      883    6                          SUBSTR(MAXTPU_TBL.NAME(I),0,MAXTPU_TBL.COUNT(I)),' ');
      958      884    6                          TPBUF.COUNT = TPBUF.COUNT + MAXTPU_TBL.COUNT(I) + 1;
      959      885    6                          END;  /* IF NOT DELETED */
      960      886    5                       END;  /* DO I */
      961      887    4                    CALL X$WRITE(FDS,VECTOR(DUMPBUF),VECTOR(TPBUF));
      962      888    4                    END;  /* IF CURINSTANCES > 0 */
      963      889    4                 ELSE DO;
      964      890    4                    CALL PCE$ERROR(%E$P_NOTPI,0);
      965      891    4                    RETURN;
      966      892    4                    END;  /* ELSE */
      967      893    3                 END;  /* IF PRINT(%PC_TPINSTANCE) */
      968      894    2              TPBUF.COUNT = 0;
      969      895    2              TPBUF.TEXT = ' ';
      970      896    3              IF TP$->P$TBL.MAX(%PC_MAXTPU) ~= 0 THEN DO;
      971      897    4                 DO I = 0 TO TBLINSTANCES - 1;
      972      898    5                    IF MAXTPU_TBL.FLAGS.PRINT(I) AND NOT MAXTPU_TBL.FLAGS.DELETED(I)
               898                             THEN DO;
      973      899    5                       TEMPLEN = MAXTPU_TBL.COUNT(I) + 2;
      974      900    5                       CALL INSERT(MAXTPUBUF,7,TEMPLEN,SUBSTR(MAXTPU_TBL.NAME(I),0,
               900                                MAXTPU_TBL.COUNT(I)),')=');
PL6.E3A0      #002=PCT$TPCAT File=PCT$TABLES.:E05TSI                             WED 07/30/97 04:23 Page:144
      975      901    5                       TEMPLEN = TEMPLEN + 7;
      976      902    5                       CALL BINCHAR(TEMP,MAXTPU_TBL.MAXTPU(I));
      977      903    5                       K = 0;
      978      904    6                       DO WHILE(SUBSTR(TEMP,K,1) = '0' AND K < 8);
      979      905    6                          K = K + 1;
      980      906    6                          END;  /* DO WHILE */
      981      907    5                       LEN = 8 - K;
      982      908    6                       IF LEN = 0 THEN DO;
      983      909    6                          LEN = 1;
      984      910    6                          K = 0;
      985      911    6                          END;  /* IF LEN = 0 */
      986      912    5                       CALL INSERT(MAXTPUBUF,TEMPLEN,LEN,SUBSTR(TEMP,K,LEN));
      987      913    5                       TEMPLEN = TEMPLEN + LEN;
      988      914    6                       IF TPBUF.COUNT + TEMPLEN > DCB_WIDTH THEN DO;
      989      915    6                          CALL X$WRITE(FDS,VECTOR(DUMPBUF),VECTOR(TPBUF));
      990      916    6                          TPBUF.COUNT = 0;
      991      917    6                          TPBUF.TEXT = ' ';
      992      918    6                          END;  /* IF */
      993      919    5                       CALL INSERT(TPBUF.TEXT,TPBUF.COUNT,TEMPLEN+1,SUBSTR(MAXTPUBUF,0,
               919                                TEMPLEN),' ');
      994      920    5                       TPBUF.COUNT = TPBUF.COUNT + TEMPLEN + 1;
      995      921    5                       END;  /* IF PRINT */
      996      922    4                    END;  /* DO I */
      997      923    3                 CALL X$WRITE(FDS,VECTOR(DUMPBUF),VECTOR(TPBUF));
      998      924    3                 END;  /* IF */
      999      925    3              IF TP$->P$TBL.MAX(%PC_TPHDR) ~= 0 THEN DO;
     1000      926    4                 DO I = 0 TO TBLINSTANCES - 1;
     1001      927    5                    IF TPHDR_TBL.FLAGS.PRINT(I) AND NOT MAXTPU_TBL.FLAGS.DELETED(I)
               927                             THEN DO;
     1002      928    5                       TEMPLEN = MAXTPU_TBL.COUNT(I) + 2;
     1003      929    5                       CALL INSERT(TPHDRBUF,7,TEMPLEN,SUBSTR(MAXTPU_TBL.NAME(I),0,
               929                                MAXTPU_TBL.COUNT(I)),')=');
     1004      930    5                       TEMPLEN = TEMPLEN + 7;
     1005      931    5                       IF (TPHDR_TBL.HDR.CNT(I) > 0)
     1006      932    6                         THEN DO;
     1007      933    6                            LEN = MINIMUM(TPHDR_TBL.HDR.CNT(I),100);
     1008      934    6                            CALL INSERT(TPHDRBUF,TEMPLEN,LEN,
PL6.E3A0      #002=PCT$TPCAT File=PCT$TABLES.:E05TSI                             WED 07/30/97 04:23 Page:145
     1009      935    6                                        SUBSTR(TPHDR_TBL.HDR.MSG(I),0,LEN));
     1010      936    6                            END;
     1011      937    6                          ELSE DO;
     1012      938    6                            CALL INSERT(TPHDRBUF,TEMPLEN,4,'NONE');
     1013      939    6                            LEN = 4;
     1014      940    6                            END;  /* IF PRESENT */
     1015      941    5                       TEMPLEN = TEMPLEN + LEN;
     1016      942    6                       IF TPBUF.COUNT + TEMPLEN > DCB_WIDTH THEN DO;
     1017      943    6                          CALL X$WRITE(FDS,VECTOR(DUMPBUF),VECTOR(TPBUF));
     1018      944    6                          TPBUF.COUNT = 0;
     1019      945    6                          TPBUF.TEXT = ' ';
     1020      946    6                          END;  /* IF */
     1021      947    5                       CALL INSERT(TPBUF.TEXT,TPBUF.COUNT,TEMPLEN+1,SUBSTR(TPHDRBUF,0,
               947                                TEMPLEN),' ');
     1022      948    5                       TPBUF.COUNT = TPBUF.COUNT + TEMPLEN + 1;
     1023      949    5                       END;  /* IF PRINT */
     1024      950    4                    END;  /* DO I */
     1025      951    3                 CALL X$WRITE(FDS,VECTOR(DUMPBUF),VECTOR(TPBUF));
     1026      952    3                 END;  /* IF */
     1027      953    2           CASE(%PC_DITPI,%PC_PCTALL);
     1028      954    3              IF CURINSTANCES > 0 THEN DO;
     1029      955    3                 CALL X$WRITE(FDS,VECTOR(TPIHDR));
     1030      956    4                 DO I = 0 TO TBLINSTANCES - 1;
     1031      957    5                    IF NOT MAXTPU_TBL.FLAGS.DELETED(I) THEN DO;
     1032      958    6                       IF TPBUF.COUNT + MAXTPU_TBL.COUNT(I) > DCB_WIDTH THEN DO;
     1033      959    6                          CALL X$WRITE(FDS,VECTOR(DUMPBUF),VECTOR(TPBUF));
     1034      960    6                          TPBUF.TEXT = ' ';
     1035      961    6                          TPBUF.COUNT = 0;
     1036      962    6                          END;  /* IF */
     1037      963    5                       CALL INSERT(TPBUF.TEXT,TPBUF.COUNT,MAXTPU_TBL.COUNT(I)+1,
     1038      964    5                       SUBSTR(MAXTPU_TBL.NAME(I),0,MAXTPU_TBL.COUNT(I)),' ');
     1039      965    5                       TPBUF.COUNT = TPBUF.COUNT + MAXTPU_TBL.COUNT(I) + 1;
     1040      966    5                       END;  /* IF NOT DELETED */
     1041      967    4                    END;  /* DO I */
     1042      968    3                 CALL X$WRITE(FDS,VECTOR(DUMPBUF),VECTOR(TPBUF));
     1043      969    3                 END;  /* IF CURINSTANCES > 0 */
     1044      970    3              ELSE DO;
PL6.E3A0      #002=PCT$TPCAT File=PCT$TABLES.:E05TSI                             WED 07/30/97 04:23 Page:146
     1045      971    3                 CALL PCE$ERROR(%E$P_NOTPI,0);
     1046      972    3                 RETURN;
     1047      973    3                 END;  /* ELSE */
     1048      974    2              IF CODE = %PC_PCTALL THEN GOTO DISP_MAXTPU;
     1049      975    2           CASE(%PC_DIMAXTPU);
     1050      976    2   DISP_MAXTPU:
     1051      977    2              TPBUF.COUNT = 0;
     1052      978    2              TPBUF.TEXT = ' ';
     1053      979    3              IF ADDR(NAME) = ADDR(NIL) THEN DO;
     1054      980    3                 IF CURINSTANCES = 0
     1055      981    3                    THEN CALL PCE$ERROR(%E$P_NOTPI,0);
     1056      982    4                 ELSE DO;
     1057      983    5                    DO I = 0 TO TBLINSTANCES - 1;
     1058      984    6                       IF NOT MAXTPU_TBL.FLAGS.DELETED(I) THEN DO;
     1059      985    6                          TEMPLEN = MAXTPU_TBL.COUNT(I) + 2;
     1060      986    6                          CALL INSERT(MAXTPUBUF,7,TEMPLEN,SUBSTR(MAXTPU_TBL.NAME(I),0,
               986                                   MAXTPU_TBL.COUNT(I)),')=');
     1061      987    6                          TEMPLEN = TEMPLEN + 7;
     1062      988    6                          CALL BINCHAR(TEMP,MAXTPU_TBL.MAXTPU(I));
     1063      989    6                          K = 0;
     1064      990    7                          DO WHILE(SUBSTR(TEMP,K,1) = '0' AND K < 8);
     1065      991    7                             K = K + 1;
     1066      992    7                             END;  /* DO WHILE */
     1067      993    6                          LEN = 8 - K;
     1068      994    7                          IF LEN = 0 THEN DO;
     1069      995    7                             LEN = 1;
     1070      996    7                             K = 0;
     1071      997    7                             END;  /* IF */
     1072      998    6                          CALL INSERT(MAXTPUBUF,TEMPLEN,LEN,SUBSTR(TEMP,K,LEN));
     1073      999    6                          TEMPLEN = TEMPLEN + LEN;
     1074     1000    7                          IF TPBUF.COUNT + TEMPLEN > DCB_WIDTH THEN DO;
     1075     1001    7                             CALL X$WRITE(FDS,VECTOR(DUMPBUF),VECTOR(TPBUF));
     1076     1002    7                             TPBUF.COUNT = 0;
     1077     1003    7                             TPBUF.TEXT = ' ';
     1078     1004    7                             END;  /* IF */
     1079     1005    6                          CALL INSERT(TPBUF.TEXT,TPBUF.COUNT,TEMPLEN+1,SUBSTR(MAXTPUBUF
              1005                                   ,0,TEMPLEN),' ');
PL6.E3A0      #002=PCT$TPCAT File=PCT$TABLES.:E05TSI                             WED 07/30/97 04:23 Page:147
     1080     1006    6                          TPBUF.COUNT = TPBUF.COUNT + TEMPLEN + 1;
     1081     1007    6                          END;  /* IF NOT DELETED */
     1082     1008    5                       END;  /* DO I */
     1083     1009    4                    CALL X$WRITE(FDS,VECTOR(DUMPBUF),VECTOR(TPBUF));
     1084     1010    4                    END;  /* ELSE */
     1085     1011    3                 END;  /* IF ADDR(NAME) = ADDR(NIL) */
     1086     1012    3              ELSE DO;  /* NAME SPECIFIED */
     1087     1013    4                 DO I = 0 TO TBLINSTANCES - 1;
     1088     1014    4                    IF NAME = MAXTPU_TBL.NAME(I) AND NOT MAXTPU_TBL.FLAGS.DELETED(I)
     1089     1015    4                       THEN GOTO FOUND_IT;
     1090     1016    4                    END;  /* DO I */
     1091     1017    3                 K = 0;
     1092     1018    4                 DO WHILE(SUBSTR(NAME,K,1) ~= ' ' AND K < 8);
     1093     1019    4                    K = K + 1;
     1094     1020    4                    END;  /* DO WHILE */
     1095     1021    3                 SUB_BUF_1.COUNT = K;
     1096     1022    3                 SUB_BUF_1.TEXT = NAME;
     1097     1023    3                 CALL PCE$ERROR(%E$P_BAD_INSTANCE_NAME,3);
     1098     1024    3                 RETURN;
     1099     1025    3   FOUND_IT:     TEMPLEN = MAXTPU_TBL.COUNT(I) + 2;
     1100     1026    3                 CALL INSERT(MAXTPUBUF,7,TEMPLEN,SUBSTR(MAXTPU_TBL.NAME(I),0,MAXTPU_TBL
              1026                          .COUNT(I)),')=');
     1101     1027    3                 TEMPLEN = TEMPLEN + 7;
     1102     1028    3                 CALL BINCHAR(TEMP,MAXTPU_TBL.MAXTPU(I));
     1103     1029    3                 K = 0;
     1104     1030    4                 DO WHILE(SUBSTR(TEMP,K,1) = '0' AND K < 8);
     1105     1031    4                    K = K + 1;
     1106     1032    4                    END;  /* DO WHILE */
     1107     1033    3                 LEN = 8 - K;
     1108     1034    4                 IF LEN = 0 THEN DO;
     1109     1035    4                    LEN = 1;
     1110     1036    4                    K = 0;
     1111     1037    4                    END;  /* IF */
     1112     1038    3                 CALL INSERT(MAXTPUBUF,TEMPLEN,LEN,SUBSTR(TEMP,K,LEN));
     1113     1039    3                 TPBUF.TEXT = MAXTPUBUF;
     1114     1040    3                 TPBUF.COUNT = TEMPLEN + LEN;
     1115     1041    3                 CALL X$WRITE(FDS,VECTOR(DUMPBUF),VECTOR(TPBUF));
PL6.E3A0      #002=PCT$TPCAT File=PCT$TABLES.:E05TSI                             WED 07/30/97 04:23 Page:148
     1116     1042    3                 END;  /* ELSE NAME SPECIFIED */
     1117     1043    2              IF CODE = %PC_PCTALL THEN GOTO DISP_TPHDR;
     1118     1044    2           CASE(%PC_DITPHDR);
     1119     1045    2   DISP_TPHDR:
     1120     1046    2              TPBUF.COUNT = 0;
     1121     1047    2              TPBUF.TEXT = ' ';
     1122     1048    3              IF ADDR(NAME) = ADDR(NIL) THEN DO;
     1123     1049    3                 IF CURINSTANCES = 0
     1124     1050    3                    THEN CALL PCE$ERROR(%E$P_NOTPI,0);
     1125     1051    4                 ELSE DO;
     1126     1052    5                    DO I = 0 TO TBLINSTANCES - 1;
     1127     1053    6                       IF NOT MAXTPU_TBL.FLAGS.DELETED(I) THEN DO;
     1128     1054    6                          TEMPLEN = MAXTPU_TBL.COUNT(I) + 2;
     1129     1055    6                          CALL INSERT(TPHDRBUF,7,TEMPLEN,SUBSTR(MAXTPU_TBL.NAME(I),0,
              1055                                   MAXTPU_TBL.COUNT(I)),')=');
     1130     1056    6                          TEMPLEN = TEMPLEN + 7;
     1131     1057    6                          IF (TPHDR_TBL.HDR.CNT(I) > 0)
     1132     1058    7                            THEN DO;
     1133     1059    7                               LEN = MINIMUM(TPHDR_TBL.HDR.CNT(I),100);
     1134     1060    7                               CALL INSERT(TPHDRBUF,TEMPLEN,LEN,
     1135     1061    7                                           SUBSTR(TPHDR_TBL.HDR.MSG(I),0,LEN));
     1136     1062    7                               END;
     1137     1063    7                             ELSE DO;
     1138     1064    7                               CALL INSERT(TPHDRBUF,TEMPLEN,4,'NONE');
     1139     1065    7                               LEN = 4;
     1140     1066    7                               END;  /* IF PRESENT */
     1141     1067    6                          TEMPLEN = TEMPLEN + LEN;
     1142     1068    7                          IF TPBUF.COUNT + TEMPLEN > DCB_WIDTH THEN DO;
     1143     1069    7                             CALL X$WRITE(FDS,VECTOR(DUMPBUF),VECTOR(TPBUF));
     1144     1070    7                             TPBUF.COUNT = 0;
     1145     1071    7                             TPBUF.TEXT = ' ';
     1146     1072    7                             END;  /* IF */
     1147     1073    6                          CALL INSERT(TPBUF.TEXT,TPBUF.COUNT,TEMPLEN+1,SUBSTR(TPHDRBUF,
              1073                                   0,TEMPLEN),' ');
     1148     1074    6                          TPBUF.COUNT = TPBUF.COUNT + TEMPLEN + 1;
     1149     1075    6                          END;  /* IF NOT DELETED */
     1150     1076    5                       END;  /* DO I */
PL6.E3A0      #002=PCT$TPCAT File=PCT$TABLES.:E05TSI                             WED 07/30/97 04:23 Page:149
     1151     1077    4                    CALL X$WRITE(FDS,VECTOR(DUMPBUF),VECTOR(TPBUF));
     1152     1078    4                    END;  /* ELSE */
     1153     1079    3                 END;  /* IF ADDR(NAME) = ADDR(NIL) */
     1154     1080    3              ELSE DO;  /* NAME SPECIFIED */
     1155     1081    4                 DO I = 0 TO TBLINSTANCES - 1;
     1156     1082    4                    IF NAME = MAXTPU_TBL.NAME(I) AND NOT MAXTPU_TBL.FLAGS.DELETED(I)
     1157     1083    4                       THEN GOTO FOUND_IT2;
     1158     1084    4                    END;  /* DO I */
     1159     1085    3                 K = 0;
     1160     1086    4                 DO WHILE(SUBSTR(NAME,K,1) ~= ' ' AND K < 8);
     1161     1087    4                    K = K + 1;
     1162     1088    4                    END;  /* DO WHILE */
     1163     1089    3                 SUB_BUF_1.COUNT = K;
     1164     1090    3                 SUB_BUF_1.TEXT = NAME;
     1165     1091    3                 CALL PCE$ERROR(%E$P_BAD_INSTANCE_NAME,3);
     1166     1092    3                 RETURN;
     1167     1093    3   FOUND_IT2:    TEMPLEN = MAXTPU_TBL.COUNT(I) + 2;
     1168     1094    3                 CALL INSERT(TPHDRBUF,7,TEMPLEN,SUBSTR(MAXTPU_TBL.NAME(I),0,MAXTPU_TBL.
              1094                          COUNT(I)),')=');
     1169     1095    3                 TEMPLEN = TEMPLEN + 7;
     1170     1096    3                 IF (TPHDR_TBL.HDR.CNT(I) > 0)
     1171     1097    4                   THEN DO;
     1172     1098    4                      LEN = MINIMUM(TPHDR_TBL.HDR.CNT(I),100);
     1173     1099    4                      CALL INSERT(TPHDRBUF,TEMPLEN,LEN,
     1174     1100    4                                  SUBSTR(TPHDR_TBL.HDR.MSG(I),0,LEN));
     1175     1101    4                      END;
     1176     1102    4                    ELSE DO;
     1177     1103    4                      CALL INSERT(TPHDRBUF,TEMPLEN,4,'NONE');
     1178     1104    4                      LEN = 4;
     1179     1105    4                      END;  /* IF PRESENT */
     1180     1106    3                 TPBUF.TEXT = TPHDRBUF;
     1181     1107    3                 TPBUF.COUNT = TEMPLEN + LEN;
     1182     1108    3                 CALL X$WRITE(FDS,VECTOR(DUMPBUF),VECTOR(TPBUF));
     1183     1109    3                 END;  /* ELSE NAME SPECIFIED */
     1184     1110    2           END;  /* DO CASE(CODE) */
     1185     1111    1           RETURN;
     1186     1112    1   END PCT$TPCAT;
PL6.E3A0      #002=PCT$TPCAT File=PCT$TABLES.:E05TSI                             WED 07/30/97 04:23 Page:150

PL6.E3A0      #002=PCT$TPCAT File=PCT$TABLES.:E05TSI                             WED 07/30/97 04:23 Page:151
--  Include file information  --

   XUF_ENTRY.:E05TOU  cannot be made into a system file and is referenced.
   XU_FORMAT_C.:E05TOU  is referenced.
   F$DCB.:E05TOU  cannot be made into a system file and is referenced.
   PC_PERR_C.:E05TOU  is referenced.
   PC_SUBS_C.:E05TOU  is referenced.
   CP_6.:E05TOU  cannot be made into a system file and is referenced.
   B$JIT_C.:E05TOU  was found in the system file and is never referenced.
   CP_6_C.:E05TOU  was found in the system file and is referenced.
      No diagnostics issued in procedure PCT$TPCAT.

   Procedure PCT$TPCAT requires 932 words for executable code.
   Procedure PCT$TPCAT requires 18 words of local(AUTO) storage.

    No errors detected in file PCT$TABLES.:E05TSI    .

PL6.E3A0      #002=PCT$TPCAT File=PCT$TABLES.:E05TSI                             WED 07/30/97 04:23 Page:152

 Object Unit name= PCT$TPCAT                                  File name= PCT$TABLES.:E05TOU
 UTS= JUL 30 '97 04:23:06.84 WED                              Compiler= PL-6/E31         Sev=      00
 SharedLib= :SHARED_SYSTEM                                    Alt SharedLib=


    ****  Control sections  ****

 Sect   Type Bound  Init  Size OctSiz  Section name(segment info)
    0   DCB   even  none     0      0  M$UC
    1   DCB   even  none     0      0  M$LO
    2   Data  even  none   138    212  PCT$TPCAT
    3  RoData even  UTS     13     15  PCT$TPCAT
    4   Proc  even  none   932   1644  PCT$TPCAT
    5  RoData even  none    20     24  PCT$TPCAT

    ****  Entry defs  ****

                              Check   Calling
                             calling  sequence
  Sect OctLoc Primary Altret sequence   type   Parms  Name
     4      0   yes    yes     yes      Std        2  PCT$TPCAT

  ****  Entry refs  ****

         Check        Calling
        calling       sequence
Altret sequence SRef   type   Args  Name
         yes           Std      22 X$WRITE
 yes     yes           Std       2 PCE$ERROR
                       nStd      0 X66_AUTO_2
                       Std       0 B_CONSPOOL_D
                       nStd      0 X66_ARET
PL6.E3A0      #002=PCT$TPCAT File=PCT$TABLES.:E05TSI                             WED 07/30/97 04:23 Page:153

  ****  Data refs  ****

  Flags:  r = read only, s = secondary
Flgs Name                             Flgs Name                             Flgs Name
     M$UC                                  M$LO                                  TP$
     CURINSTANCES                          TBLINSTANCES                          MAXTPU_TBL
     TPHDR_TBL                             SUB_BUF_1                             B_VECTNIL

  ****  Segment refs  ****

  Flags:  r = read only, s = secondary
Flgs Name                             Flgs Name                             Flgs Name
     NULLSID                               ISSID                                 ROSID
PL6.E3A0      #002=PCT$TPCAT File=PCT$TABLES.:E05TSI                             WED 07/30/97 04:23 Page:154


      846        1        /*M* PCT$TPCAT - DISPLAY TP PARAMS FOR CONTROL */
      847        2        /*T***********************************************************/
      848        3        /*T*                                                         */
      849        4        /*T* Copyright (c) Bull HN Information Systems Inc., 1997    */
      850        5        /*T*                                                         */
      851        6        /*T***********************************************************/
      852        7        PCT$TPCAT: PROC(CODE,NAME) ALTRET;

      7  4 000000   000000 700200 xent  PCT$TPCAT    TSX0  ! X66_AUTO_2
         4 000001   000022 000002                    ZERO    18,2

      853        8        /**/
      854        9        /* PARAMS */
      855       10    1   DCL CODE SBIN WORD;
      856       11    1   DCL NAME CHAR(8);
      857       12        /**/
      858       13        /* INCLUDE FILES */
      859       14        %INCLUDE CP_6;
      860       95        %INCLUDE PC_SUBS_C;
      861      427        %INCLUDE PC_PERR_C;
      862      460        %INCLUDE F$DCB;
      863      509        %INCLUDE XU_FORMAT_C;
      864      671        %INCLUDE XUF_ENTRY;
      865      679        /**/
      866      680        /* DCBS */
      867      681    1   DCL M$LO DCB;
      868      682        /**/
      869      683        /* ENTRY DCLS */
      870      684    1   DCL PCE$ERROR ENTRY(2) ALTRET;
      871      685        /**/
      872      686        /* VARS */
      873      687    1   DCL TP$ PTR SYMREF;
      874      688    1   DCL CURINSTANCES SBIN WORD SYMREF;
      875      689    1   DCL TBLINSTANCES SBIN WORD SYMREF;
      876      690    1   DCL 1 MAXTPU_TBL(0:71) ALIGNED SYMREF,
      877      691    1         2 NAME CHAR(8),
PL6.E3A0      #002=PCT$TPCAT File=PCT$TABLES.:E05TSI                             WED 07/30/97 04:23 Page:155
      878      692    1         2 MAXTPU UBIN WORD,
      879      693    1         2 COUNT UBIN HALF UNAL,
      880      694    1         2 FLAGS UNAL,
      881      695    1           3 PRINT BIT(1) UNAL,
      882      696    1           3 DELETED BIT(1) UNAL,
      883      697    1           3 * BIT(16) UNAL;
      884      698    1   DCL 1 TPHDR_TBL(0:71) ALIGNED SYMREF,
      885      699    1    2 HDR,
      886      700    1           3 CNT UBIN BYTE UNAL,
      887      701    1           3 MSG CHAR(80)  UNAL,
      888      702    1    2 FLAGS UNAL,
      889      703    1           3 PRINT BIT(1) UNAL,
      890      704    1           3 PRESENT BIT(1) UNAL,
      891      705    1           3 * BIT(16) UNAL;
      892      706        /**/
      893      707    1   DCL 1 SUB_BUF_1 SYMREF,
      894      708    1         2 COUNT UBIN BYTE UNAL,
      895      709    1         2 TEXT CHAR(31) UNAL;
      896      710    1   DCL I SBIN WORD;
      897      711    1   DCL J SBIN WORD;
      898      712    1   DCL K SBIN WORD;
      899      713    1   DCL OUTBUF CHAR(132) STATIC INIT(' ');
      900      714    1   DCL MAXTPUBUF CHAR(32) STATIC INIT('MAXTPU(');
      901      715    1   DCL TPHDRBUF CHAR(132) STATIC INIT('HEADER(');
      902      716    1   DCL DCB_WIDTH SBIN WORD;
      903      717    1   DCL 1 TPBUF STATIC ALIGNED,
      904      718    1         2 COUNT UBIN BYTE UNAL INIT(0),
      905      719    1         2 TEXT CHAR(132) UNAL INIT(' ');
      906      720         %F_FDS (NAME=FDS,DCB=M$LO,BUF=OUTBUF);
      907      833    1   DCL TPIHDR CHAR(0) CONSTANT INIT('Currently defined TP instances:%10P');
      908      834    1   DCL DUMPBUF CHAR(0) CONSTANT INIT('%T%10P');
      909      835    1   DCL TEMP CHAR(8);
      910      836    1   DCL LEN SBIN WORD;
      911      837    1   DCL TEMPLEN SBIN WORD;
      912      838    1   DCL 1 P$TBL(0:0) BASED ALIGNED,
      913      839    1         2 FLAGS,
      914      840    1           3 PRINT BIT(1) UNAL,
PL6.E3A0      #002=PCT$TPCAT File=PCT$TABLES.:E05TSI                             WED 07/30/97 04:23 Page:156
      915      841    1           3 DISPONLY BIT(1) UNAL,
      916      842    1           3 INDX BIT(1) UNAL,
      917      843    1           3 RES BIT(1) UNAL,
      918      844    1           3 MAXCONST BIT(1) UNAL,
      919      845    1           3 MINCONST BIT(1) UNAL,
      920      846    1           3 VALTEXT BIT(1) UNAL,
      921      847    1             3 VALTEXTLIST BIT(1) UNAL,
      922      848    1             3 * BIT(10) UNAL,
      923      849    1         2 VALCODE UBIN(18) UNAL,
      924      850    1         2 RESPTR$ PTR ALIGNED,
      925      851    1         2 TEXT ALIGNED,
      926      852    1           3 COUNT UBIN(9) UNAL,
      927      853    1           3 TEXT CHAR(19) UNAL,
      928      854    1         2 PTR$ PTR,
      929      855    1         2 REPTR$ REDEF PTR$,
      930      856    1           3 ADDRESS UBIN(24) UNAL,
      931      857    1           3 SEGID UBIN(12) UNAL,
      932      858    1         2 PSUPTR$ PTR,
      933      859    1         2 REPSUPTR$ REDEF PSUPTR$,
      934      860    1           3 ADDRESS UBIN(24) UNAL,
      935      861    1           3 SEGID UBIN(12) UNAL,
      936      862    1         2 MAX UBIN WORD UNAL,
      937      863    1         2 MIN UBIN WORD UNAL,
      938      864    1         2 MULT UBIN WORD UNAL;
      939      865        %EJECT;
PL6.E3A0      #002=PCT$TPCAT File=PCT$TABLES.:E05TSI                             WED 07/30/97 04:23 Page:157
      940      866    1        TPBUF.COUNT = 0;

    866  4 000002   000000 236003                    LDQ     0,DU
         4 000003   000112 552040 2                  STBQ    TPBUF,'40'O

      941      867    1        TPBUF.TEXT = ' ';

    867  4 000004   040000 100400                    MLR     fill='040'O
         4 000005   000035 000001 xsym               ADSC9   B_VECTNIL+29             cn=0,n=1
         4 000006   000112 200204 2                  ADSC9   TPBUF                    cn=1,n=132

      942      868    1        DCB_WIDTH = DCBADDR(DCBNUM(M$LO))->F$DCB.WIDTH;

    868  4 000007   000000 236007 xsym               LDQ     M$LO,DL
         4 000010   000000 470400 5                  LDP0    0
         4 000011   000000 471500                    LDP1    0,,PR0
         4 000012   100000 473506                    LDP3    0,QL,PR1
         4 000013   300004 236100                    LDQ     4,,PR3
         4 000014   000777 376007                    ANQ     511,DL
         4 000015   200010 756100                    STQ     DCB_WIDTH,,AUTO

      943      869    1        IF DCB_WIDTH = 0 THEN DCB_WIDTH = 80;

    869  4 000016   000021 601000 4                  TNZ     s:870

    869  4 000017   000120 235007                    LDA     80,DL
         4 000020   200010 755100                    STA     DCB_WIDTH,,AUTO

      944      870    2        DO CASE(CODE);

    870  4 000021   200003 473500                    LDP3    @CODE,,AUTO
         4 000022   300000 235100                    LDA     0,,PR3
         4 000023   000007 115007                    CMPA    7,DL
         4 000024   000026 602005 4                  TNC     s:870+5,AL
         4 000025   001643 710000 4                  TRA     s:1111
         4 000026   001643 710000 4                  TRA     s:1111
         4 000027   000551 710000 4                  TRA     s:954
PL6.E3A0      #002=PCT$TPCAT File=PCT$TABLES.:E05TSI                             WED 07/30/97 04:23 Page:158
         4 000030   000035 710000 4                  TRA     s:872
         4 000031   001643 710000 4                  TRA     s:1111
         4 000032   000551 710000 4                  TRA     s:954
         4 000033   000702 710000 4                  TRA     DISP_MAXTPU
         4 000034   001267 710000 4                  TRA     DISP_TPHDR

      945      871    2           CASE(%PC_PCTFLAGS);

      946      872    3              IF TP$->P$TBL.FLAGS.PRINT(%PC_TPINSTANCE) THEN DO;

    872  4 000035   000000 474400 xsym               LDP4    TP$
         4 000036   400014 234100                    SZN     12,,PR4
         4 000037   000164 605000 4                  TPL     s:894

      947      873    4                 IF CURINSTANCES > 0 THEN DO;

    873  4 000040   000000 236000 xsym               LDQ     CURINSTANCES
         4 000041   000157 604400 4                  TMOZ    s:890

      948      874    4                    CALL X$WRITE(FDS,VECTOR(TPIHDR));

    874  4 000042   000004 630400 5                  EPPR0   4
         4 000043   000020 631400 xsym               EPPR1   B_VECTNIL+16
         4 000044   000000 701000 xent               TSX1    X$WRITE
         4 000045   000000 011000                    NOP     0

      949      875    5                    DO I = 0 TO TBLINSTANCES - 1;

    875  4 000046   200005 450100                    STZ     I,,AUTO
         4 000047   000147 710000 4                  TRA     s:886+1

      950      876    6                       IF NOT MAXTPU_TBL.FLAGS.DELETED(I) THEN DO;

    876  4 000050   200005 235100                    LDA     I,,AUTO
         4 000051   000002 735000                    ALS     2
         4 000052   000003 236005 xsym               LDQ     MAXTPU_TBL+3,AL
         4 000053   200000 316007                    CANQ    65536,DL
PL6.E3A0      #002=PCT$TPCAT File=PCT$TABLES.:E05TSI                             WED 07/30/97 04:23 Page:159
         4 000054   000146 601000 4                  TNZ     s:886

      951      877    7                          IF TPBUF.COUNT + MAXTPU_TBL.COUNT(I) > DCB_WIDTH THEN DO;

    877  4 000055   000003 236005 xsym               LDQ     MAXTPU_TBL+3,AL
         4 000056   000022 772000                    QRL     18
         4 000057   200016 756100                    STQ     TEMPLEN+2,,AUTO
         4 000060   000112 236000 2                  LDQ     TPBUF
         4 000061   000033 772000                    QRL     27
         4 000062   200016 036100                    ADLQ    TEMPLEN+2,,AUTO
         4 000063   000066 604000 4                  TMI     s:878
         4 000064   200010 116100                    CMPQ    DCB_WIDTH,,AUTO
         4 000065   000077 604400 4                  TMOZ    s:882

      952      878    7                             CALL X$WRITE(FDS,VECTOR(DUMPBUF),VECTOR(TPBUF));

    878  4 000066   000012 630400 5                  EPPR0   10
         4 000067   000021 631400 xsym               EPPR1   B_VECTNIL+17
         4 000070   000000 701000 xent               TSX1    X$WRITE
         4 000071   000000 011000                    NOP     0

      953      879    7                             TPBUF.TEXT = ' ';

    879  4 000072   040000 100400                    MLR     fill='040'O
         4 000073   000035 000001 xsym               ADSC9   B_VECTNIL+29             cn=0,n=1
         4 000074   000112 200204 2                  ADSC9   TPBUF                    cn=1,n=132

      954      880    7                             TPBUF.COUNT = 0;

    880  4 000075   000000 236003                    LDQ     0,DU
         4 000076   000112 552040 2                  STBQ    TPBUF,'40'O

      955      881    7                             END;  /* IF */

      956      882    6                          CALL INSERT(TPBUF.TEXT,TPBUF.COUNT,MAXTPU_TBL.COUNT(I)+1,

    882  4 000077   200005 235100                    LDA     I,,AUTO
PL6.E3A0      #002=PCT$TPCAT File=PCT$TABLES.:E05TSI                             WED 07/30/97 04:23 Page:160
         4 000100   000002 735000                    ALS     2
         4 000101   000003 220005 xsym               LDX0    MAXTPU_TBL+3,AL
         4 000102   000112 236000 2                  LDQ     TPBUF
         4 000103   000033 772000                    QRL     27
         4 000104   000003 221005 xsym               LDX1    MAXTPU_TBL+3,AL
         4 000105   000001 622011                    EAX2    1,X1
         4 000106   200005 235100                    LDA     I,,AUTO
         4 000107   000004 735000                    ALS     4
         4 000110   040046 100445                    MLR     fill='040'O
         4 000111   000000 000010 xsym               ADSC9   MAXTPU_TBL,A             cn=0,n=*X0
         4 000112   000112 200012 2                  ADSC9   TPBUF,Q                  cn=1,n=*X2
         4 000113   000000 635010                    EAA     0,X0
         4 000114   000022 771000                    ARL     18
         4 000115   200016 755100                    STA     TEMPLEN+2,,AUTO
         4 000116   200017 756100                    STQ     TEMPLEN+3,,AUTO
         4 000117   000000 636012                    EAQ     0,X2
         4 000120   000022 772000                    QRL     18
         4 000121   200016 136100                    SBLQ    TEMPLEN+2,,AUTO
         4 000122   000133 604400 4                  TMOZ    s:884
         4 000123   200020 756100                    STQ     TEMPLEN+4,,AUTO
         4 000124   000000 636010                    EAQ     0,X0
         4 000125   000022 772000                    QRL     18
         4 000126   200017 036100                    ADLQ    TEMPLEN+3,,AUTO
         4 000127   200020 720100                    LXL0    TEMPLEN+4,,AUTO
         4 000130   040046 100400                    MLR     fill='040'O
         4 000131   000035 000001 xsym               ADSC9   B_VECTNIL+29             cn=0,n=1
         4 000132   000112 200010 2                  ADSC9   TPBUF,Q                  cn=1,n=*X0

      957      883    6                          SUBSTR(MAXTPU_TBL.NAME(I),0,MAXTPU_TBL.COUNT(I)),' ');
      958      884    6                          TPBUF.COUNT = TPBUF.COUNT + MAXTPU_TBL.COUNT(I) + 1;

    884  4 000133   200005 235100                    LDA     I,,AUTO
         4 000134   000002 735000                    ALS     2
         4 000135   000003 236005 xsym               LDQ     MAXTPU_TBL+3,AL
         4 000136   000022 772000                    QRL     18
         4 000137   200016 756100                    STQ     TEMPLEN+2,,AUTO
         4 000140   000112 236000 2                  LDQ     TPBUF
PL6.E3A0      #002=PCT$TPCAT File=PCT$TABLES.:E05TSI                             WED 07/30/97 04:23 Page:161
         4 000141   000033 772000                    QRL     27
         4 000142   200016 036100                    ADLQ    TEMPLEN+2,,AUTO
         4 000143   000001 036007                    ADLQ    1,DL
         4 000144   000033 736000                    QLS     27
         4 000145   000112 552040 2                  STBQ    TPBUF,'40'O

      959      885    6                          END;  /* IF NOT DELETED */

      960      886    5                       END;  /* DO I */

    886  4 000146   200005 054100                    AOS     I,,AUTO
         4 000147   200005 236100                    LDQ     I,,AUTO
         4 000150   000000 116000 xsym               CMPQ    TBLINSTANCES
         4 000151   000050 604000 4                  TMI     s:876

      961      887    4                    CALL X$WRITE(FDS,VECTOR(DUMPBUF),VECTOR(TPBUF));

    887  4 000152   000012 630400 5                  EPPR0   10
         4 000153   000021 631400 xsym               EPPR1   B_VECTNIL+17
         4 000154   000000 701000 xent               TSX1    X$WRITE
         4 000155   000000 011000                    NOP     0

      962      888    4                    END;  /* IF CURINSTANCES > 0 */

    888  4 000156   000164 710000 4                  TRA     s:894

      963      889    4                 ELSE DO;

      964      890    4                    CALL PCE$ERROR(%E$P_NOTPI,0);

    890  4 000157   000016 630400 5                  EPPR0   14
         4 000160   000020 631400 xsym               EPPR1   B_VECTNIL+16
         4 000161   000000 701000 xent               TSX1    PCE$ERROR
         4 000162   000000 011000                    NOP     0

      965      891    4                    RETURN;

PL6.E3A0      #002=PCT$TPCAT File=PCT$TABLES.:E05TSI                             WED 07/30/97 04:23 Page:162
    891  4 000163   000000 702200 xent               TSX2  ! X66_ARET

      966      892    4                    END;  /* ELSE */
      967      893    3                 END;  /* IF PRINT(%PC_TPINSTANCE) */
      968      894    2              TPBUF.COUNT = 0;

    894  4 000164   000000 236003                    LDQ     0,DU
         4 000165   000112 552040 2                  STBQ    TPBUF,'40'O

      969      895    2              TPBUF.TEXT = ' ';

    895  4 000166   040000 100400                    MLR     fill='040'O
         4 000167   000035 000001 xsym               ADSC9   B_VECTNIL+29             cn=0,n=1
         4 000170   000112 200204 2                  ADSC9   TPBUF                    cn=1,n=132

      970      896    3              IF TP$->P$TBL.MAX(%PC_MAXTPU) ~= 0 THEN DO;

    896  4 000171   000000 470400 xsym               LDP0    TP$
         4 000172   000055 235100                    LDA     45,,PR0
         4 000173   000360 600000 4                  TZE     s:925

      971      897    4                 DO I = 0 TO TBLINSTANCES - 1;

    897  4 000174   200005 450100                    STZ     I,,AUTO
         4 000175   000351 710000 4                  TRA     s:922+1

      972      898    5                    IF MAXTPU_TBL.FLAGS.PRINT(I) AND NOT MAXTPU_TBL.FLAGS.DELETED(I)
               898                             THEN DO;

    898  4 000176   200005 235100                    LDA     I,,AUTO
         4 000177   000002 735000                    ALS     2
         4 000200   000003 236005 xsym               LDQ     MAXTPU_TBL+3,AL
         4 000201   400000 316007                    CANQ    -131072,DL
         4 000202   000350 600000 4                  TZE     s:922
         4 000203   200000 316007                    CANQ    65536,DL
         4 000204   000350 601000 4                  TNZ     s:922

PL6.E3A0      #002=PCT$TPCAT File=PCT$TABLES.:E05TSI                             WED 07/30/97 04:23 Page:163
      973      899    5                       TEMPLEN = MAXTPU_TBL.COUNT(I) + 2;

    899  4 000205   000003 236005 xsym               LDQ     MAXTPU_TBL+3,AL
         4 000206   000022 772000                    QRL     18
         4 000207   000002 036007                    ADLQ    2,DL
         4 000210   200014 756100                    STQ     TEMPLEN,,AUTO

      974      900    5                       CALL INSERT(MAXTPUBUF,7,TEMPLEN,SUBSTR(MAXTPU_TBL.NAME(I),0,
               900                                MAXTPU_TBL.COUNT(I)),')=');

    900  4 000211   000003 220005 xsym               LDX0    MAXTPU_TBL+3,AL
         4 000212   200005 235100                    LDA     I,,AUTO
         4 000213   000004 735000                    ALS     4
         4 000214   000000 621006                    EAX1    0,QL
         4 000215   040040 100445                    MLR     fill='040'O
         4 000216   000000 000010 xsym               ADSC9   MAXTPU_TBL,A             cn=0,n=*X0
         4 000217   000042 600011 2                  ADSC9   MAXTPUBUF+1              cn=3,n=*X1
         4 000220   000000 636010                    EAQ     0,X0
         4 000221   000022 772000                    QRL     18
         4 000222   200016 756100                    STQ     TEMPLEN+2,,AUTO
         4 000223   200014 236100                    LDQ     TEMPLEN,,AUTO
         4 000224   200016 136100                    SBLQ    TEMPLEN+2,,AUTO
         4 000225   000234 604400 4                  TMOZ    s:901
         4 000226   000000 621006                    EAX1    0,QL
         4 000227   000000 636010                    EAQ     0,X0
         4 000230   000022 772000                    QRL     18
         4 000231   040046 100400                    MLR     fill='040'O
         4 000232   000013 000002 3                  ADSC9   DUMPBUF+2                cn=0,n=2
         4 000233   000042 600011 2                  ADSC9   MAXTPUBUF+1,Q            cn=3,n=*X1

      975      901    5                       TEMPLEN = TEMPLEN + 7;

    901  4 000234   000007 236007                    LDQ     7,DL
         4 000235   200014 056100                    ASQ     TEMPLEN,,AUTO

      976      902    5                       CALL BINCHAR(TEMP,MAXTPU_TBL.MAXTPU(I));

PL6.E3A0      #002=PCT$TPCAT File=PCT$TABLES.:E05TSI                             WED 07/30/97 04:23 Page:164
    902  4 000236   200005 235100                    LDA     I,,AUTO
         4 000237   000002 735000                    ALS     2
         4 000240   000002 235005 xsym               LDA     MAXTPU_TBL+2,AL
         4 000241   000044 773000                    LRL     36
         4 000242   200016 757100                    STAQ    TEMPLEN+2,,AUTO
         4 000243   000100 301500                    BTD
         4 000244   200016 000010                    NDSC9   TEMPLEN+2,,AUTO          cn=0,s=lsgnf,sf=0,n=8
         4 000245   200011 030010                    NDSC9   TEMP,,AUTO               cn=0,s=nosgn,sf=0,n=8

      977      903    5                       K = 0;

    903  4 000246   200007 450100                    STZ     K,,AUTO

      978      904    6                       DO WHILE(SUBSTR(TEMP,K,1) = '0' AND K < 8);

    904  4 000247   000251 710000 4                  TRA     s:906

      979      905    6                          K = K + 1;

    905  4 000250   200007 054100                    AOS     K,,AUTO

      980      906    6                          END;  /* DO WHILE */

    906  4 000251   200007 235100                    LDA     K,,AUTO
         4 000252   040000 106505                    CMPC    fill='040'O
         4 000253   200011 000001                    ADSC9   TEMP,A,AUTO              cn=0,n=1
         4 000254   000020 000001 5                  ADSC9   16                       cn=0,n=1
         4 000255   000260 601000 4                  TNZ     s:907
         4 000256   000010 115007                    CMPA    8,DL
         4 000257   000250 604000 4                  TMI     s:905

      981      907    5                       LEN = 8 - K;

    907  4 000260   000027 675000 xsym               ERA     B_VECTNIL+23
         4 000261   000011 035007                    ADLA    9,DL
         4 000262   200013 755100                    STA     LEN,,AUTO

PL6.E3A0      #002=PCT$TPCAT File=PCT$TABLES.:E05TSI                             WED 07/30/97 04:23 Page:165
      982      908    6                       IF LEN = 0 THEN DO;

    908  4 000263   000267 601000 4                  TNZ     s:912

      983      909    6                          LEN = 1;

    909  4 000264   000001 236007                    LDQ     1,DL
         4 000265   200013 756100                    STQ     LEN,,AUTO

      984      910    6                          K = 0;

    910  4 000266   200007 450100                    STZ     K,,AUTO

      985      911    6                          END;  /* IF LEN = 0 */

      986      912    5                       CALL INSERT(MAXTPUBUF,TEMPLEN,LEN,SUBSTR(TEMP,K,LEN));

    912  4 000267   200013 720100                    LXL0    LEN,,AUTO
         4 000270   200007 235100                    LDA     K,,AUTO
         4 000271   200014 236100                    LDQ     TEMPLEN,,AUTO
         4 000272   040046 100545                    MLR     fill='040'O
         4 000273   200011 000010                    ADSC9   TEMP,A,AUTO              cn=0,n=*X0
         4 000274   000041 000010 2                  ADSC9   MAXTPUBUF,Q              cn=0,n=*X0

      987      913    5                       TEMPLEN = TEMPLEN + LEN;

    913  4 000275   200013 036100                    ADLQ    LEN,,AUTO
         4 000276   200014 756100                    STQ     TEMPLEN,,AUTO

      988      914    6                       IF TPBUF.COUNT + TEMPLEN > DCB_WIDTH THEN DO;

    914  4 000277   000112 236000 2                  LDQ     TPBUF
         4 000300   000033 772000                    QRL     27
         4 000301   200014 036100                    ADLQ    TEMPLEN,,AUTO
         4 000302   200010 116100                    CMPQ    DCB_WIDTH,,AUTO
         4 000303   000315 604400 4                  TMOZ    s:919

PL6.E3A0      #002=PCT$TPCAT File=PCT$TABLES.:E05TSI                             WED 07/30/97 04:23 Page:166
      989      915    6                          CALL X$WRITE(FDS,VECTOR(DUMPBUF),VECTOR(TPBUF));

    915  4 000304   000012 630400 5                  EPPR0   10
         4 000305   000021 631400 xsym               EPPR1   B_VECTNIL+17
         4 000306   000000 701000 xent               TSX1    X$WRITE
         4 000307   000000 011000                    NOP     0

      990      916    6                          TPBUF.COUNT = 0;

    916  4 000310   000000 236003                    LDQ     0,DU
         4 000311   000112 552040 2                  STBQ    TPBUF,'40'O

      991      917    6                          TPBUF.TEXT = ' ';

    917  4 000312   040000 100400                    MLR     fill='040'O
         4 000313   000035 000001 xsym               ADSC9   B_VECTNIL+29             cn=0,n=1
         4 000314   000112 200204 2                  ADSC9   TPBUF                    cn=1,n=132

      992      918    6                          END;  /* IF */

      993      919    5                      CALL INSERT(TPBUF.TEXT,TPBUF.COUNT,TEMPLEN+1,SUBSTR(MAXTPUBUF,0,
               919                                TEMPLEN),' ');

    919  4 000315   000112 236000 2                  LDQ     TPBUF
         4 000316   000033 772000                    QRL     27
         4 000317   200014 720100                    LXL0    TEMPLEN,,AUTO
         4 000320   000001 621010                    EAX1    1,X0
         4 000321   200014 722100                    LXL2    TEMPLEN,,AUTO
         4 000322   040046 100440                    MLR     fill='040'O
         4 000323   000041 000012 2                  ADSC9   MAXTPUBUF                cn=0,n=*X2
         4 000324   000112 200011 2                  ADSC9   TPBUF,Q                  cn=1,n=*X1
         4 000325   200016 756100                    STQ     TEMPLEN+2,,AUTO
         4 000326   200014 236100                    LDQ     TEMPLEN,,AUTO
         4 000327   200014 136100                    SBLQ    TEMPLEN,,AUTO
         4 000330   000027 116000 xsym               CMPQ    B_VECTNIL+23
         4 000331   000342 604400 4                  TMOZ    s:920
         4 000332   200017 756100                    STQ     TEMPLEN+3,,AUTO
PL6.E3A0      #002=PCT$TPCAT File=PCT$TABLES.:E05TSI                             WED 07/30/97 04:23 Page:167
         4 000333   200016 236100                    LDQ     TEMPLEN+2,,AUTO
         4 000334   200014 036100                    ADLQ    TEMPLEN,,AUTO
         4 000335   200017 723100                    LXL3    TEMPLEN+3,,AUTO
         4 000336   000001 624013                    EAX4    1,X3
         4 000337   040046 100400                    MLR     fill='040'O
         4 000340   000035 000001 xsym               ADSC9   B_VECTNIL+29             cn=0,n=1
         4 000341   000112 200014 2                  ADSC9   TPBUF,Q                  cn=1,n=*X4

      994      920    5                       TPBUF.COUNT = TPBUF.COUNT + TEMPLEN + 1;

    920  4 000342   000112 236000 2                  LDQ     TPBUF
         4 000343   000033 772000                    QRL     27
         4 000344   200014 036100                    ADLQ    TEMPLEN,,AUTO
         4 000345   000001 036007                    ADLQ    1,DL
         4 000346   000033 736000                    QLS     27
         4 000347   000112 552040 2                  STBQ    TPBUF,'40'O

      995      921    5                       END;  /* IF PRINT */

      996      922    4                    END;  /* DO I */

    922  4 000350   200005 054100                    AOS     I,,AUTO
         4 000351   200005 236100                    LDQ     I,,AUTO
         4 000352   000000 116000 xsym               CMPQ    TBLINSTANCES
         4 000353   000176 604000 4                  TMI     s:898

      997      923    3                 CALL X$WRITE(FDS,VECTOR(DUMPBUF),VECTOR(TPBUF));

    923  4 000354   000012 630400 5                  EPPR0   10
         4 000355   000021 631400 xsym               EPPR1   B_VECTNIL+17
         4 000356   000000 701000 xent               TSX1    X$WRITE
         4 000357   000000 011000                    NOP     0

      998      924    3                 END;  /* IF */

      999      925    3              IF TP$->P$TBL.MAX(%PC_TPHDR) ~= 0 THEN DO;

PL6.E3A0      #002=PCT$TPCAT File=PCT$TABLES.:E05TSI                             WED 07/30/97 04:23 Page:168
    925  4 000360   000000 470400 xsym               LDP0    TP$
         4 000361   000041 235100                    LDA     33,,PR0
         4 000362   001643 600000 4                  TZE     s:1111

     1000      926    4                 DO I = 0 TO TBLINSTANCES - 1;

    926  4 000363   200005 450100                    STZ     I,,AUTO
         4 000364   000541 710000 4                  TRA     s:950+1

     1001      927    5                    IF TPHDR_TBL.FLAGS.PRINT(I) AND NOT MAXTPU_TBL.FLAGS.DELETED(I)
               927                             THEN DO;

    927  4 000365   200005 236100                    LDQ     I,,AUTO
         4 000366   000025 402007                    MPY     21,DL
         4 000367   000024 236006 xsym               LDQ     TPHDR_TBL+20,QL
         4 000370   000400 316003                    CANQ    256,DU
         4 000371   000540 600000 4                  TZE     s:950
         4 000372   200005 235100                    LDA     I,,AUTO
         4 000373   000002 735000                    ALS     2
         4 000374   000003 236005 xsym               LDQ     MAXTPU_TBL+3,AL
         4 000375   200000 316007                    CANQ    65536,DL
         4 000376   000540 601000 4                  TNZ     s:950

     1002      928    5                       TEMPLEN = MAXTPU_TBL.COUNT(I) + 2;

    928  4 000377   000003 236005 xsym               LDQ     MAXTPU_TBL+3,AL
         4 000400   000022 772000                    QRL     18
         4 000401   000002 036007                    ADLQ    2,DL
         4 000402   200014 756100                    STQ     TEMPLEN,,AUTO

     1003      929    5                       CALL INSERT(TPHDRBUF,7,TEMPLEN,SUBSTR(MAXTPU_TBL.NAME(I),0,
               929                                MAXTPU_TBL.COUNT(I)),')=');

    929  4 000403   000003 220005 xsym               LDX0    MAXTPU_TBL+3,AL
         4 000404   200005 235100                    LDA     I,,AUTO
         4 000405   000004 735000                    ALS     4
         4 000406   000000 621006                    EAX1    0,QL
PL6.E3A0      #002=PCT$TPCAT File=PCT$TABLES.:E05TSI                             WED 07/30/97 04:23 Page:169
         4 000407   040040 100445                    MLR     fill='040'O
         4 000410   000000 000010 xsym               ADSC9   MAXTPU_TBL,A             cn=0,n=*X0
         4 000411   000052 600011 2                  ADSC9   TPHDRBUF+1               cn=3,n=*X1
         4 000412   000000 636010                    EAQ     0,X0
         4 000413   000022 772000                    QRL     18
         4 000414   200016 756100                    STQ     TEMPLEN+2,,AUTO
         4 000415   200014 236100                    LDQ     TEMPLEN,,AUTO
         4 000416   200016 136100                    SBLQ    TEMPLEN+2,,AUTO
         4 000417   000426 604400 4                  TMOZ    s:930
         4 000420   000000 621006                    EAX1    0,QL
         4 000421   000000 636010                    EAQ     0,X0
         4 000422   000022 772000                    QRL     18
         4 000423   040046 100400                    MLR     fill='040'O
         4 000424   000013 000002 3                  ADSC9   DUMPBUF+2                cn=0,n=2
         4 000425   000052 600011 2                  ADSC9   TPHDRBUF+1,Q             cn=3,n=*X1

     1004      930    5                       TEMPLEN = TEMPLEN + 7;

    930  4 000426   000007 236007                    LDQ     7,DL
         4 000427   200014 056100                    ASQ     TEMPLEN,,AUTO

     1005      931    5                       IF (TPHDR_TBL.HDR.CNT(I) > 0)

    931  4 000430   200005 236100                    LDQ     I,,AUTO
         4 000431   000025 402007                    MPY     21,DL
         4 000432   000000 236006 xsym               LDQ     TPHDR_TBL,QL
         4 000433   777000 316003                    CANQ    -512,DU
         4 000434   000456 600000 4                  TZE     s:938

     1006      932    6                         THEN DO;

     1007      933    6                            LEN = MINIMUM(TPHDR_TBL.HDR.CNT(I),100);

    933  4 000435   200005 236100                    LDQ     I,,AUTO
         4 000436   000025 402007                    MPY     21,DL
         4 000437   000000 236006 xsym               LDQ     TPHDR_TBL,QL
         4 000440   000033 772000                    QRL     27
PL6.E3A0      #002=PCT$TPCAT File=PCT$TABLES.:E05TSI                             WED 07/30/97 04:23 Page:170
         4 000441   000144 116007                    CMPQ    100,DL
         4 000442   000445 602000 4                  TNC     s:933+8
         4 000443   000445 600000 4                  TZE     s:933+8
         4 000444   000144 236007                    LDQ     100,DL
         4 000445   200013 756100                    STQ     LEN,,AUTO

     1008      934    6                            CALL INSERT(TPHDRBUF,TEMPLEN,LEN,

    934  4 000446   200005 236100                    LDQ     I,,AUTO
         4 000447   000124 402007                    MPY     84,DL
         4 000450   200013 720100                    LXL0    LEN,,AUTO
         4 000451   200014 235100                    LDA     TEMPLEN,,AUTO
         4 000452   040045 100446                    MLR     fill='040'O
         4 000453   000000 200010 xsym               ADSC9   TPHDR_TBL,Q              cn=1,n=*X0
         4 000454   000051 000010 2                  ADSC9   TPHDRBUF,A               cn=0,n=*X0

     1009      935    6                                        SUBSTR(TPHDR_TBL.HDR.MSG(I),0,LEN));
     1010      936    6                            END;

    936  4 000455   000464 710000 4                  TRA     s:941

     1011      937    6                          ELSE DO;

     1012      938    6                            CALL INSERT(TPHDRBUF,TEMPLEN,4,'NONE');

    938  4 000456   200014 235100                    LDA     TEMPLEN,,AUTO
         4 000457   040005 100400                    MLR     fill='040'O
         4 000460   000014 000004 3                  ADSC9   DUMPBUF+3                cn=0,n=4
         4 000461   000051 000004 2                  ADSC9   TPHDRBUF,A               cn=0,n=4

     1013      939    6                            LEN = 4;

    939  4 000462   000004 236007                    LDQ     4,DL
         4 000463   200013 756100                    STQ     LEN,,AUTO

     1014      940    6                            END;  /* IF PRESENT */

PL6.E3A0      #002=PCT$TPCAT File=PCT$TABLES.:E05TSI                             WED 07/30/97 04:23 Page:171
     1015      941    5                       TEMPLEN = TEMPLEN + LEN;

    941  4 000464   200014 236100                    LDQ     TEMPLEN,,AUTO
         4 000465   200013 036100                    ADLQ    LEN,,AUTO
         4 000466   200014 756100                    STQ     TEMPLEN,,AUTO

     1016      942    6                       IF TPBUF.COUNT + TEMPLEN > DCB_WIDTH THEN DO;

    942  4 000467   000112 236000 2                  LDQ     TPBUF
         4 000470   000033 772000                    QRL     27
         4 000471   200014 036100                    ADLQ    TEMPLEN,,AUTO
         4 000472   200010 116100                    CMPQ    DCB_WIDTH,,AUTO
         4 000473   000505 604400 4                  TMOZ    s:947

     1017      943    6                          CALL X$WRITE(FDS,VECTOR(DUMPBUF),VECTOR(TPBUF));

    943  4 000474   000012 630400 5                  EPPR0   10
         4 000475   000021 631400 xsym               EPPR1   B_VECTNIL+17
         4 000476   000000 701000 xent               TSX1    X$WRITE
         4 000477   000000 011000                    NOP     0

     1018      944    6                          TPBUF.COUNT = 0;

    944  4 000500   000000 236003                    LDQ     0,DU
         4 000501   000112 552040 2                  STBQ    TPBUF,'40'O

     1019      945    6                          TPBUF.TEXT = ' ';

    945  4 000502   040000 100400                    MLR     fill='040'O
         4 000503   000035 000001 xsym               ADSC9   B_VECTNIL+29             cn=0,n=1
         4 000504   000112 200204 2                  ADSC9   TPBUF                    cn=1,n=132

     1020      946    6                          END;  /* IF */

     1021      947    5                       CALL INSERT(TPBUF.TEXT,TPBUF.COUNT,TEMPLEN+1,SUBSTR(TPHDRBUF,0,
               947                                TEMPLEN),' ');

PL6.E3A0      #002=PCT$TPCAT File=PCT$TABLES.:E05TSI                             WED 07/30/97 04:23 Page:172
    947  4 000505   000112 236000 2                  LDQ     TPBUF
         4 000506   000033 772000                    QRL     27
         4 000507   200014 720100                    LXL0    TEMPLEN,,AUTO
         4 000510   000001 621010                    EAX1    1,X0
         4 000511   200014 722100                    LXL2    TEMPLEN,,AUTO
         4 000512   040046 100440                    MLR     fill='040'O
         4 000513   000051 000012 2                  ADSC9   TPHDRBUF                 cn=0,n=*X2
         4 000514   000112 200011 2                  ADSC9   TPBUF,Q                  cn=1,n=*X1
         4 000515   200016 756100                    STQ     TEMPLEN+2,,AUTO
         4 000516   200014 236100                    LDQ     TEMPLEN,,AUTO
         4 000517   200014 136100                    SBLQ    TEMPLEN,,AUTO
         4 000520   000027 116000 xsym               CMPQ    B_VECTNIL+23
         4 000521   000532 604400 4                  TMOZ    s:948
         4 000522   200017 756100                    STQ     TEMPLEN+3,,AUTO
         4 000523   200016 236100                    LDQ     TEMPLEN+2,,AUTO
         4 000524   200014 036100                    ADLQ    TEMPLEN,,AUTO
         4 000525   200017 723100                    LXL3    TEMPLEN+3,,AUTO
         4 000526   000001 624013                    EAX4    1,X3
         4 000527   040046 100400                    MLR     fill='040'O
         4 000530   000035 000001 xsym               ADSC9   B_VECTNIL+29             cn=0,n=1
         4 000531   000112 200014 2                  ADSC9   TPBUF,Q                  cn=1,n=*X4

     1022      948    5                       TPBUF.COUNT = TPBUF.COUNT + TEMPLEN + 1;

    948  4 000532   000112 236000 2                  LDQ     TPBUF
         4 000533   000033 772000                    QRL     27
         4 000534   200014 036100                    ADLQ    TEMPLEN,,AUTO
         4 000535   000001 036007                    ADLQ    1,DL
         4 000536   000033 736000                    QLS     27
         4 000537   000112 552040 2                  STBQ    TPBUF,'40'O

     1023      949    5                       END;  /* IF PRINT */

     1024      950    4                    END;  /* DO I */

    950  4 000540   200005 054100                    AOS     I,,AUTO
         4 000541   200005 236100                    LDQ     I,,AUTO
PL6.E3A0      #002=PCT$TPCAT File=PCT$TABLES.:E05TSI                             WED 07/30/97 04:23 Page:173
         4 000542   000000 116000 xsym               CMPQ    TBLINSTANCES
         4 000543   000365 604000 4                  TMI     s:927

     1025      951    3                 CALL X$WRITE(FDS,VECTOR(DUMPBUF),VECTOR(TPBUF));

    951  4 000544   000012 630400 5                  EPPR0   10
         4 000545   000021 631400 xsym               EPPR1   B_VECTNIL+17
         4 000546   000000 701000 xent               TSX1    X$WRITE
         4 000547   000000 011000                    NOP     0

     1026      952    3                 END;  /* IF */

    952  4 000550   001643 710000 4                  TRA     s:1111

     1027      953    2           CASE(%PC_DITPI,%PC_PCTALL);

     1028      954    3              IF CURINSTANCES > 0 THEN DO;

    954  4 000551   000000 236000 xsym               LDQ     CURINSTANCES
         4 000552   000670 604400 4                  TMOZ    s:971

     1029      955    3                 CALL X$WRITE(FDS,VECTOR(TPIHDR));

    955  4 000553   000004 630400 5                  EPPR0   4
         4 000554   000020 631400 xsym               EPPR1   B_VECTNIL+16
         4 000555   000000 701000 xent               TSX1    X$WRITE
         4 000556   000000 011000                    NOP     0

     1030      956    4                 DO I = 0 TO TBLINSTANCES - 1;

    956  4 000557   200005 450100                    STZ     I,,AUTO
         4 000560   000660 710000 4                  TRA     s:967+1

     1031      957    5                    IF NOT MAXTPU_TBL.FLAGS.DELETED(I) THEN DO;

    957  4 000561   200005 235100                    LDA     I,,AUTO
         4 000562   000002 735000                    ALS     2
PL6.E3A0      #002=PCT$TPCAT File=PCT$TABLES.:E05TSI                             WED 07/30/97 04:23 Page:174
         4 000563   000003 236005 xsym               LDQ     MAXTPU_TBL+3,AL
         4 000564   200000 316007                    CANQ    65536,DL
         4 000565   000657 601000 4                  TNZ     s:967

     1032      958    6                       IF TPBUF.COUNT + MAXTPU_TBL.COUNT(I) > DCB_WIDTH THEN DO;

    958  4 000566   000003 236005 xsym               LDQ     MAXTPU_TBL+3,AL
         4 000567   000022 772000                    QRL     18
         4 000570   200016 756100                    STQ     TEMPLEN+2,,AUTO
         4 000571   000112 236000 2                  LDQ     TPBUF
         4 000572   000033 772000                    QRL     27
         4 000573   200016 036100                    ADLQ    TEMPLEN+2,,AUTO
         4 000574   000577 604000 4                  TMI     s:959
         4 000575   200010 116100                    CMPQ    DCB_WIDTH,,AUTO
         4 000576   000610 604400 4                  TMOZ    s:963

     1033      959    6                          CALL X$WRITE(FDS,VECTOR(DUMPBUF),VECTOR(TPBUF));

    959  4 000577   000012 630400 5                  EPPR0   10
         4 000600   000021 631400 xsym               EPPR1   B_VECTNIL+17
         4 000601   000000 701000 xent               TSX1    X$WRITE
         4 000602   000000 011000                    NOP     0

     1034      960    6                          TPBUF.TEXT = ' ';

    960  4 000603   040000 100400                    MLR     fill='040'O
         4 000604   000035 000001 xsym               ADSC9   B_VECTNIL+29             cn=0,n=1
         4 000605   000112 200204 2                  ADSC9   TPBUF                    cn=1,n=132

     1035      961    6                          TPBUF.COUNT = 0;

    961  4 000606   000000 236003                    LDQ     0,DU
         4 000607   000112 552040 2                  STBQ    TPBUF,'40'O

     1036      962    6                          END;  /* IF */

     1037      963    5                       CALL INSERT(TPBUF.TEXT,TPBUF.COUNT,MAXTPU_TBL.COUNT(I)+1,
PL6.E3A0      #002=PCT$TPCAT File=PCT$TABLES.:E05TSI                             WED 07/30/97 04:23 Page:175

    963  4 000610   200005 235100                    LDA     I,,AUTO
         4 000611   000002 735000                    ALS     2
         4 000612   000003 220005 xsym               LDX0    MAXTPU_TBL+3,AL
         4 000613   000112 236000 2                  LDQ     TPBUF
         4 000614   000033 772000                    QRL     27
         4 000615   000003 221005 xsym               LDX1    MAXTPU_TBL+3,AL
         4 000616   000001 622011                    EAX2    1,X1
         4 000617   200005 235100                    LDA     I,,AUTO
         4 000620   000004 735000                    ALS     4
         4 000621   040046 100445                    MLR     fill='040'O
         4 000622   000000 000010 xsym               ADSC9   MAXTPU_TBL,A             cn=0,n=*X0
         4 000623   000112 200012 2                  ADSC9   TPBUF,Q                  cn=1,n=*X2
         4 000624   000000 635010                    EAA     0,X0
         4 000625   000022 771000                    ARL     18
         4 000626   200016 755100                    STA     TEMPLEN+2,,AUTO
         4 000627   200017 756100                    STQ     TEMPLEN+3,,AUTO
         4 000630   000000 636012                    EAQ     0,X2
         4 000631   000022 772000                    QRL     18
         4 000632   200016 136100                    SBLQ    TEMPLEN+2,,AUTO
         4 000633   000644 604400 4                  TMOZ    s:965
         4 000634   200020 756100                    STQ     TEMPLEN+4,,AUTO
         4 000635   000000 636010                    EAQ     0,X0
         4 000636   000022 772000                    QRL     18
         4 000637   200017 036100                    ADLQ    TEMPLEN+3,,AUTO
         4 000640   200020 720100                    LXL0    TEMPLEN+4,,AUTO
         4 000641   040046 100400                    MLR     fill='040'O
         4 000642   000035 000001 xsym               ADSC9   B_VECTNIL+29             cn=0,n=1
         4 000643   000112 200010 2                  ADSC9   TPBUF,Q                  cn=1,n=*X0

     1038      964    5                       SUBSTR(MAXTPU_TBL.NAME(I),0,MAXTPU_TBL.COUNT(I)),' ');
     1039      965    5                       TPBUF.COUNT = TPBUF.COUNT + MAXTPU_TBL.COUNT(I) + 1;

    965  4 000644   200005 235100                    LDA     I,,AUTO
         4 000645   000002 735000                    ALS     2
         4 000646   000003 236005 xsym               LDQ     MAXTPU_TBL+3,AL
         4 000647   000022 772000                    QRL     18
PL6.E3A0      #002=PCT$TPCAT File=PCT$TABLES.:E05TSI                             WED 07/30/97 04:23 Page:176
         4 000650   200016 756100                    STQ     TEMPLEN+2,,AUTO
         4 000651   000112 236000 2                  LDQ     TPBUF
         4 000652   000033 772000                    QRL     27
         4 000653   200016 036100                    ADLQ    TEMPLEN+2,,AUTO
         4 000654   000001 036007                    ADLQ    1,DL
         4 000655   000033 736000                    QLS     27
         4 000656   000112 552040 2                  STBQ    TPBUF,'40'O

     1040      966    5                       END;  /* IF NOT DELETED */

     1041      967    4                    END;  /* DO I */

    967  4 000657   200005 054100                    AOS     I,,AUTO
         4 000660   200005 236100                    LDQ     I,,AUTO
         4 000661   000000 116000 xsym               CMPQ    TBLINSTANCES
         4 000662   000561 604000 4                  TMI     s:957

     1042      968    3                 CALL X$WRITE(FDS,VECTOR(DUMPBUF),VECTOR(TPBUF));

    968  4 000663   000012 630400 5                  EPPR0   10
         4 000664   000021 631400 xsym               EPPR1   B_VECTNIL+17
         4 000665   000000 701000 xent               TSX1    X$WRITE
         4 000666   000000 011000                    NOP     0

     1043      969    3                 END;  /* IF CURINSTANCES > 0 */

    969  4 000667   000675 710000 4                  TRA     s:974

     1044      970    3              ELSE DO;

     1045      971    3                 CALL PCE$ERROR(%E$P_NOTPI,0);

    971  4 000670   000016 630400 5                  EPPR0   14
         4 000671   000020 631400 xsym               EPPR1   B_VECTNIL+16
         4 000672   000000 701000 xent               TSX1    PCE$ERROR
         4 000673   000000 011000                    NOP     0

PL6.E3A0      #002=PCT$TPCAT File=PCT$TABLES.:E05TSI                             WED 07/30/97 04:23 Page:177
     1046      972    3                 RETURN;

    972  4 000674   000000 702200 xent               TSX2  ! X66_ARET

     1047      973    3                 END;  /* ELSE */
     1048      974    2              IF CODE = %PC_PCTALL THEN GOTO DISP_MAXTPU;

    974  4 000675   200003 470500                    LDP0    @CODE,,AUTO
         4 000676   000000 235100                    LDA     0,,PR0
         4 000677   000001 115007                    CMPA    1,DL
         4 000700   000702 600000 4                  TZE     DISP_MAXTPU
         4 000701   001643 710000 4                  TRA     s:1111

     1049      975    2           CASE(%PC_DIMAXTPU);

     1050      976    2   DISP_MAXTPU:
     1051      977    2              TPBUF.COUNT = 0;

    977  4 000702   000000 236003       DISP_MAXTPU  LDQ     0,DU
         4 000703   000112 552040 2                  STBQ    TPBUF,'40'O

     1052      978    2              TPBUF.TEXT = ' ';

    978  4 000704   040000 100400                    MLR     fill='040'O
         4 000705   000035 000001 xsym               ADSC9   B_VECTNIL+29             cn=0,n=1
         4 000706   000112 200204 2                  ADSC9   TPBUF                    cn=1,n=132

     1053      979    3              IF ADDR(NAME) = ADDR(NIL) THEN DO;

    979  4 000707   200004 236100                    LDQ     @NAME,,AUTO
         4 000710   000001 116000 xsym               CMPQ    B_VECTNIL+1
         4 000711   001104 601000 4                  TNZ     s:1013

     1054      980    3                 IF CURINSTANCES = 0

    980  4 000712   000000 235000 xsym               LDA     CURINSTANCES
         4 000713   000721 601000 4                  TNZ     s:983
PL6.E3A0      #002=PCT$TPCAT File=PCT$TABLES.:E05TSI                             WED 07/30/97 04:23 Page:178

     1055      981    3                    THEN CALL PCE$ERROR(%E$P_NOTPI,0);

    981  4 000714   000016 630400 5                  EPPR0   14
         4 000715   000020 631400 xsym               EPPR1   B_VECTNIL+16
         4 000716   000000 701000 xent               TSX1    PCE$ERROR
         4 000717   000000 011000                    NOP     0
         4 000720   001262 710000 4                  TRA     s:1043

     1056      982    4                 ELSE DO;

     1057      983    5                    DO I = 0 TO TBLINSTANCES - 1;

    983  4 000721   200005 450100                    STZ     I,,AUTO
         4 000722   001074 710000 4                  TRA     s:1008+1

     1058      984    6                       IF NOT MAXTPU_TBL.FLAGS.DELETED(I) THEN DO;

    984  4 000723   200005 235100                    LDA     I,,AUTO
         4 000724   000002 735000                    ALS     2
         4 000725   000003 236005 xsym               LDQ     MAXTPU_TBL+3,AL
         4 000726   200000 316007                    CANQ    65536,DL
         4 000727   001073 601000 4                  TNZ     s:1008

     1059      985    6                          TEMPLEN = MAXTPU_TBL.COUNT(I) + 2;

    985  4 000730   000003 236005 xsym               LDQ     MAXTPU_TBL+3,AL
         4 000731   000022 772000                    QRL     18
         4 000732   000002 036007                    ADLQ    2,DL
         4 000733   200014 756100                    STQ     TEMPLEN,,AUTO

     1060      986    6                          CALL INSERT(MAXTPUBUF,7,TEMPLEN,SUBSTR(MAXTPU_TBL.NAME(I),0,
               986                                   MAXTPU_TBL.COUNT(I)),')=');

    986  4 000734   000003 220005 xsym               LDX0    MAXTPU_TBL+3,AL
         4 000735   200005 235100                    LDA     I,,AUTO
         4 000736   000004 735000                    ALS     4
PL6.E3A0      #002=PCT$TPCAT File=PCT$TABLES.:E05TSI                             WED 07/30/97 04:23 Page:179
         4 000737   000000 621006                    EAX1    0,QL
         4 000740   040040 100445                    MLR     fill='040'O
         4 000741   000000 000010 xsym               ADSC9   MAXTPU_TBL,A             cn=0,n=*X0
         4 000742   000042 600011 2                  ADSC9   MAXTPUBUF+1              cn=3,n=*X1
         4 000743   000000 636010                    EAQ     0,X0
         4 000744   000022 772000                    QRL     18
         4 000745   200016 756100                    STQ     TEMPLEN+2,,AUTO
         4 000746   200014 236100                    LDQ     TEMPLEN,,AUTO
         4 000747   200016 136100                    SBLQ    TEMPLEN+2,,AUTO
         4 000750   000757 604400 4                  TMOZ    s:987
         4 000751   000000 621006                    EAX1    0,QL
         4 000752   000000 636010                    EAQ     0,X0
         4 000753   000022 772000                    QRL     18
         4 000754   040046 100400                    MLR     fill='040'O
         4 000755   000013 000002 3                  ADSC9   DUMPBUF+2                cn=0,n=2
         4 000756   000042 600011 2                  ADSC9   MAXTPUBUF+1,Q            cn=3,n=*X1

     1061      987    6                          TEMPLEN = TEMPLEN + 7;

    987  4 000757   000007 236007                    LDQ     7,DL
         4 000760   200014 056100                    ASQ     TEMPLEN,,AUTO

     1062      988    6                          CALL BINCHAR(TEMP,MAXTPU_TBL.MAXTPU(I));

    988  4 000761   200005 235100                    LDA     I,,AUTO
         4 000762   000002 735000                    ALS     2
         4 000763   000002 235005 xsym               LDA     MAXTPU_TBL+2,AL
         4 000764   000044 773000                    LRL     36
         4 000765   200016 757100                    STAQ    TEMPLEN+2,,AUTO
         4 000766   000100 301500                    BTD
         4 000767   200016 000010                    NDSC9   TEMPLEN+2,,AUTO          cn=0,s=lsgnf,sf=0,n=8
         4 000770   200011 030010                    NDSC9   TEMP,,AUTO               cn=0,s=nosgn,sf=0,n=8

     1063      989    6                          K = 0;

    989  4 000771   200007 450100                    STZ     K,,AUTO

PL6.E3A0      #002=PCT$TPCAT File=PCT$TABLES.:E05TSI                             WED 07/30/97 04:23 Page:180
     1064      990    7                          DO WHILE(SUBSTR(TEMP,K,1) = '0' AND K < 8);

    990  4 000772   000774 710000 4                  TRA     s:992

     1065      991    7                             K = K + 1;

    991  4 000773   200007 054100                    AOS     K,,AUTO

     1066      992    7                             END;  /* DO WHILE */

    992  4 000774   200007 235100                    LDA     K,,AUTO
         4 000775   040000 106505                    CMPC    fill='040'O
         4 000776   200011 000001                    ADSC9   TEMP,A,AUTO              cn=0,n=1
         4 000777   000020 000001 5                  ADSC9   16                       cn=0,n=1
         4 001000   001003 601000 4                  TNZ     s:993
         4 001001   000010 115007                    CMPA    8,DL
         4 001002   000773 604000 4                  TMI     s:991

     1067      993    6                          LEN = 8 - K;

    993  4 001003   000027 675000 xsym               ERA     B_VECTNIL+23
         4 001004   000011 035007                    ADLA    9,DL
         4 001005   200013 755100                    STA     LEN,,AUTO

     1068      994    7                          IF LEN = 0 THEN DO;

    994  4 001006   001012 601000 4                  TNZ     s:998

     1069      995    7                             LEN = 1;

    995  4 001007   000001 236007                    LDQ     1,DL
         4 001010   200013 756100                    STQ     LEN,,AUTO

     1070      996    7                             K = 0;

    996  4 001011   200007 450100                    STZ     K,,AUTO

PL6.E3A0      #002=PCT$TPCAT File=PCT$TABLES.:E05TSI                             WED 07/30/97 04:23 Page:181
     1071      997    7                             END;  /* IF */

     1072      998    6                          CALL INSERT(MAXTPUBUF,TEMPLEN,LEN,SUBSTR(TEMP,K,LEN));

    998  4 001012   200013 720100                    LXL0    LEN,,AUTO
         4 001013   200007 235100                    LDA     K,,AUTO
         4 001014   200014 236100                    LDQ     TEMPLEN,,AUTO
         4 001015   040046 100545                    MLR     fill='040'O
         4 001016   200011 000010                    ADSC9   TEMP,A,AUTO              cn=0,n=*X0
         4 001017   000041 000010 2                  ADSC9   MAXTPUBUF,Q              cn=0,n=*X0

     1073      999    6                          TEMPLEN = TEMPLEN + LEN;

    999  4 001020   200013 036100                    ADLQ    LEN,,AUTO
         4 001021   200014 756100                    STQ     TEMPLEN,,AUTO

     1074     1000    7                          IF TPBUF.COUNT + TEMPLEN > DCB_WIDTH THEN DO;

   1000  4 001022   000112 236000 2                  LDQ     TPBUF
         4 001023   000033 772000                    QRL     27
         4 001024   200014 036100                    ADLQ    TEMPLEN,,AUTO
         4 001025   200010 116100                    CMPQ    DCB_WIDTH,,AUTO
         4 001026   001040 604400 4                  TMOZ    s:1005

     1075     1001    7                             CALL X$WRITE(FDS,VECTOR(DUMPBUF),VECTOR(TPBUF));

   1001  4 001027   000012 630400 5                  EPPR0   10
         4 001030   000021 631400 xsym               EPPR1   B_VECTNIL+17
         4 001031   000000 701000 xent               TSX1    X$WRITE
         4 001032   000000 011000                    NOP     0

     1076     1002    7                             TPBUF.COUNT = 0;

   1002  4 001033   000000 236003                    LDQ     0,DU
         4 001034   000112 552040 2                  STBQ    TPBUF,'40'O

     1077     1003    7                             TPBUF.TEXT = ' ';
PL6.E3A0      #002=PCT$TPCAT File=PCT$TABLES.:E05TSI                             WED 07/30/97 04:23 Page:182

   1003  4 001035   040000 100400                    MLR     fill='040'O
         4 001036   000035 000001 xsym               ADSC9   B_VECTNIL+29             cn=0,n=1
         4 001037   000112 200204 2                  ADSC9   TPBUF                    cn=1,n=132

     1078     1004    7                             END;  /* IF */

     1079     1005    6                         CALL INSERT(TPBUF.TEXT,TPBUF.COUNT,TEMPLEN+1,SUBSTR(MAXTPUBUF
              1005                                   ,0,TEMPLEN),' ');

   1005  4 001040   000112 236000 2                  LDQ     TPBUF
         4 001041   000033 772000                    QRL     27
         4 001042   200014 720100                    LXL0    TEMPLEN,,AUTO
         4 001043   000001 621010                    EAX1    1,X0
         4 001044   200014 722100                    LXL2    TEMPLEN,,AUTO
         4 001045   040046 100440                    MLR     fill='040'O
         4 001046   000041 000012 2                  ADSC9   MAXTPUBUF                cn=0,n=*X2
         4 001047   000112 200011 2                  ADSC9   TPBUF,Q                  cn=1,n=*X1
         4 001050   200016 756100                    STQ     TEMPLEN+2,,AUTO
         4 001051   200014 236100                    LDQ     TEMPLEN,,AUTO
         4 001052   200014 136100                    SBLQ    TEMPLEN,,AUTO
         4 001053   000027 116000 xsym               CMPQ    B_VECTNIL+23
         4 001054   001065 604400 4                  TMOZ    s:1006
         4 001055   200017 756100                    STQ     TEMPLEN+3,,AUTO
         4 001056   200016 236100                    LDQ     TEMPLEN+2,,AUTO
         4 001057   200014 036100                    ADLQ    TEMPLEN,,AUTO
         4 001060   200017 723100                    LXL3    TEMPLEN+3,,AUTO
         4 001061   000001 624013                    EAX4    1,X3
         4 001062   040046 100400                    MLR     fill='040'O
         4 001063   000035 000001 xsym               ADSC9   B_VECTNIL+29             cn=0,n=1
         4 001064   000112 200014 2                  ADSC9   TPBUF,Q                  cn=1,n=*X4

     1080     1006    6                          TPBUF.COUNT = TPBUF.COUNT + TEMPLEN + 1;

   1006  4 001065   000112 236000 2                  LDQ     TPBUF
         4 001066   000033 772000                    QRL     27
         4 001067   200014 036100                    ADLQ    TEMPLEN,,AUTO
PL6.E3A0      #002=PCT$TPCAT File=PCT$TABLES.:E05TSI                             WED 07/30/97 04:23 Page:183
         4 001070   000001 036007                    ADLQ    1,DL
         4 001071   000033 736000                    QLS     27
         4 001072   000112 552040 2                  STBQ    TPBUF,'40'O

     1081     1007    6                          END;  /* IF NOT DELETED */

     1082     1008    5                       END;  /* DO I */

   1008  4 001073   200005 054100                    AOS     I,,AUTO
         4 001074   200005 236100                    LDQ     I,,AUTO
         4 001075   000000 116000 xsym               CMPQ    TBLINSTANCES
         4 001076   000723 604000 4                  TMI     s:984

     1083     1009    4                    CALL X$WRITE(FDS,VECTOR(DUMPBUF),VECTOR(TPBUF));

   1009  4 001077   000012 630400 5                  EPPR0   10
         4 001100   000021 631400 xsym               EPPR1   B_VECTNIL+17
         4 001101   000000 701000 xent               TSX1    X$WRITE
         4 001102   000000 011000                    NOP     0

     1084     1010    4                    END;  /* ELSE */

     1085     1011    3                 END;  /* IF ADDR(NAME) = ADDR(NIL) */

   1011  4 001103   001262 710000 4                  TRA     s:1043

     1086     1012    3              ELSE DO;  /* NAME SPECIFIED */

     1087     1013    4                 DO I = 0 TO TBLINSTANCES - 1;

   1013  4 001104   200005 450100                    STZ     I,,AUTO
         4 001105   001123 710000 4                  TRA     s:1016+1

     1088     1014    4                    IF NAME = MAXTPU_TBL.NAME(I) AND NOT MAXTPU_TBL.FLAGS.DELETED(I)

   1014  4 001106   200005 235100                    LDA     I,,AUTO
         4 001107   000004 735000                    ALS     4
PL6.E3A0      #002=PCT$TPCAT File=PCT$TABLES.:E05TSI                             WED 07/30/97 04:23 Page:184
         4 001110   200004 470500                    LDP0    @NAME,,AUTO
         4 001111   040005 106500                    CMPC    fill='040'O
         4 001112   000000 000010                    ADSC9   0,,PR0                   cn=0,n=8
         4 001113   000000 000010 xsym               ADSC9   MAXTPU_TBL,A             cn=0,n=8
         4 001114   001122 601000 4                  TNZ     s:1016
         4 001115   200005 236100                    LDQ     I,,AUTO
         4 001116   000002 736000                    QLS     2
         4 001117   000003 236006 xsym               LDQ     MAXTPU_TBL+3,QL
         4 001120   200000 316007                    CANQ    65536,DL
         4 001121   001154 600000 4                  TZE     FOUND_IT

     1089     1015    4                       THEN GOTO FOUND_IT;
     1090     1016    4                    END;  /* DO I */

   1016  4 001122   200005 054100                    AOS     I,,AUTO
         4 001123   200005 236100                    LDQ     I,,AUTO
         4 001124   000000 116000 xsym               CMPQ    TBLINSTANCES
         4 001125   001106 604000 4                  TMI     s:1014

     1091     1017    3                 K = 0;

   1017  4 001126   200007 450100                    STZ     K,,AUTO

     1092     1018    4                 DO WHILE(SUBSTR(NAME,K,1) ~= ' ' AND K < 8);

   1018  4 001127   001131 710000 4                  TRA     s:1020

     1093     1019    4                    K = K + 1;

   1019  4 001130   200007 054100                    AOS     K,,AUTO

     1094     1020    4                    END;  /* DO WHILE */

   1020  4 001131   200004 470500                    LDP0    @NAME,,AUTO
         4 001132   200007 235100                    LDA     K,,AUTO
         4 001133   040000 106505                    CMPC    fill='040'O
         4 001134   000000 000001                    ADSC9   0,A,PR0                  cn=0,n=1
PL6.E3A0      #002=PCT$TPCAT File=PCT$TABLES.:E05TSI                             WED 07/30/97 04:23 Page:185
         4 001135   000035 000001 xsym               ADSC9   B_VECTNIL+29             cn=0,n=1
         4 001136   001141 600000 4                  TZE     s:1021
         4 001137   000010 115007                    CMPA    8,DL
         4 001140   001130 604000 4                  TMI     s:1019

     1095     1021    3                 SUB_BUF_1.COUNT = K;

   1021  4 001141   200007 236100                    LDQ     K,,AUTO
         4 001142   000033 736000                    QLS     27
         4 001143   000000 552040 xsym               STBQ    SUB_BUF_1,'40'O

     1096     1022    3                 SUB_BUF_1.TEXT = NAME;

   1022  4 001144   040000 100500                    MLR     fill='040'O
         4 001145   000000 000010                    ADSC9   0,,PR0                   cn=0,n=8
         4 001146   000000 200037 xsym               ADSC9   SUB_BUF_1                cn=1,n=31

     1097     1023    3                 CALL PCE$ERROR(%E$P_BAD_INSTANCE_NAME,3);

   1023  4 001147   000022 630400 5                  EPPR0   18
         4 001150   000020 631400 xsym               EPPR1   B_VECTNIL+16
         4 001151   000000 701000 xent               TSX1    PCE$ERROR
         4 001152   000000 011000                    NOP     0

     1098     1024    3                 RETURN;

   1024  4 001153   000000 702200 xent               TSX2  ! X66_ARET

     1099     1025    3   FOUND_IT:     TEMPLEN = MAXTPU_TBL.COUNT(I) + 2;

   1025  4 001154   200005 236100       FOUND_IT     LDQ     I,,AUTO
         4 001155   000002 736000                    QLS     2
         4 001156   000003 236006 xsym               LDQ     MAXTPU_TBL+3,QL
         4 001157   000022 772000                    QRL     18
         4 001160   000002 036007                    ADLQ    2,DL
         4 001161   200014 756100                    STQ     TEMPLEN,,AUTO

PL6.E3A0      #002=PCT$TPCAT File=PCT$TABLES.:E05TSI                             WED 07/30/97 04:23 Page:186
     1100     1026    3                CALL INSERT(MAXTPUBUF,7,TEMPLEN,SUBSTR(MAXTPU_TBL.NAME(I),0,MAXTPU_TBL
              1026                          .COUNT(I)),')=');

   1026  4 001162   200005 235100                    LDA     I,,AUTO
         4 001163   000002 735000                    ALS     2
         4 001164   000003 220005 xsym               LDX0    MAXTPU_TBL+3,AL
         4 001165   200005 235100                    LDA     I,,AUTO
         4 001166   000004 735000                    ALS     4
         4 001167   000000 621006                    EAX1    0,QL
         4 001170   040040 100445                    MLR     fill='040'O
         4 001171   000000 000010 xsym               ADSC9   MAXTPU_TBL,A             cn=0,n=*X0
         4 001172   000042 600011 2                  ADSC9   MAXTPUBUF+1              cn=3,n=*X1
         4 001173   000000 636010                    EAQ     0,X0
         4 001174   000022 772000                    QRL     18
         4 001175   200016 756100                    STQ     TEMPLEN+2,,AUTO
         4 001176   200014 236100                    LDQ     TEMPLEN,,AUTO
         4 001177   200016 136100                    SBLQ    TEMPLEN+2,,AUTO
         4 001200   001207 604400 4                  TMOZ    s:1027
         4 001201   000000 621006                    EAX1    0,QL
         4 001202   000000 636010                    EAQ     0,X0
         4 001203   000022 772000                    QRL     18
         4 001204   040046 100400                    MLR     fill='040'O
         4 001205   000013 000002 3                  ADSC9   DUMPBUF+2                cn=0,n=2
         4 001206   000042 600011 2                  ADSC9   MAXTPUBUF+1,Q            cn=3,n=*X1

     1101     1027    3                 TEMPLEN = TEMPLEN + 7;

   1027  4 001207   000007 236007                    LDQ     7,DL
         4 001210   200014 056100                    ASQ     TEMPLEN,,AUTO

     1102     1028    3                 CALL BINCHAR(TEMP,MAXTPU_TBL.MAXTPU(I));

   1028  4 001211   200005 235100                    LDA     I,,AUTO
         4 001212   000002 735000                    ALS     2
         4 001213   000002 235005 xsym               LDA     MAXTPU_TBL+2,AL
         4 001214   000044 773000                    LRL     36
         4 001215   200016 757100                    STAQ    TEMPLEN+2,,AUTO
PL6.E3A0      #002=PCT$TPCAT File=PCT$TABLES.:E05TSI                             WED 07/30/97 04:23 Page:187
         4 001216   000100 301500                    BTD
         4 001217   200016 000010                    NDSC9   TEMPLEN+2,,AUTO          cn=0,s=lsgnf,sf=0,n=8
         4 001220   200011 030010                    NDSC9   TEMP,,AUTO               cn=0,s=nosgn,sf=0,n=8

     1103     1029    3                 K = 0;

   1029  4 001221   200007 450100                    STZ     K,,AUTO

     1104     1030    4                 DO WHILE(SUBSTR(TEMP,K,1) = '0' AND K < 8);

   1030  4 001222   001224 710000 4                  TRA     s:1032

     1105     1031    4                    K = K + 1;

   1031  4 001223   200007 054100                    AOS     K,,AUTO

     1106     1032    4                    END;  /* DO WHILE */

   1032  4 001224   200007 235100                    LDA     K,,AUTO
         4 001225   040000 106505                    CMPC    fill='040'O
         4 001226   200011 000001                    ADSC9   TEMP,A,AUTO              cn=0,n=1
         4 001227   000020 000001 5                  ADSC9   16                       cn=0,n=1
         4 001230   001233 601000 4                  TNZ     s:1033
         4 001231   000010 115007                    CMPA    8,DL
         4 001232   001223 604000 4                  TMI     s:1031

     1107     1033    3                 LEN = 8 - K;

   1033  4 001233   000027 675000 xsym               ERA     B_VECTNIL+23
         4 001234   000011 035007                    ADLA    9,DL
         4 001235   200013 755100                    STA     LEN,,AUTO

     1108     1034    4                 IF LEN = 0 THEN DO;

   1034  4 001236   001242 601000 4                  TNZ     s:1038

     1109     1035    4                    LEN = 1;
PL6.E3A0      #002=PCT$TPCAT File=PCT$TABLES.:E05TSI                             WED 07/30/97 04:23 Page:188

   1035  4 001237   000001 236007                    LDQ     1,DL
         4 001240   200013 756100                    STQ     LEN,,AUTO

     1110     1036    4                    K = 0;

   1036  4 001241   200007 450100                    STZ     K,,AUTO

     1111     1037    4                    END;  /* IF */

     1112     1038    3                 CALL INSERT(MAXTPUBUF,TEMPLEN,LEN,SUBSTR(TEMP,K,LEN));

   1038  4 001242   200013 720100                    LXL0    LEN,,AUTO
         4 001243   200007 235100                    LDA     K,,AUTO
         4 001244   200014 236100                    LDQ     TEMPLEN,,AUTO
         4 001245   040046 100545                    MLR     fill='040'O
         4 001246   200011 000010                    ADSC9   TEMP,A,AUTO              cn=0,n=*X0
         4 001247   000041 000010 2                  ADSC9   MAXTPUBUF,Q              cn=0,n=*X0

     1113     1039    3                 TPBUF.TEXT = MAXTPUBUF;

   1039  4 001250   040000 100400                    MLR     fill='040'O
         4 001251   000041 000040 2                  ADSC9   MAXTPUBUF                cn=0,n=32
         4 001252   000112 200204 2                  ADSC9   TPBUF                    cn=1,n=132

     1114     1040    3                 TPBUF.COUNT = TEMPLEN + LEN;

   1040  4 001253   200013 036100                    ADLQ    LEN,,AUTO
         4 001254   000033 736000                    QLS     27
         4 001255   000112 552040 2                  STBQ    TPBUF,'40'O

     1115     1041    3                 CALL X$WRITE(FDS,VECTOR(DUMPBUF),VECTOR(TPBUF));

   1041  4 001256   000012 630400 5                  EPPR0   10
         4 001257   000021 631400 xsym               EPPR1   B_VECTNIL+17
         4 001260   000000 701000 xent               TSX1    X$WRITE
         4 001261   000000 011000                    NOP     0
PL6.E3A0      #002=PCT$TPCAT File=PCT$TABLES.:E05TSI                             WED 07/30/97 04:23 Page:189

     1116     1042    3                 END;  /* ELSE NAME SPECIFIED */

     1117     1043    2              IF CODE = %PC_PCTALL THEN GOTO DISP_TPHDR;

   1043  4 001262   200003 470500                    LDP0    @CODE,,AUTO
         4 001263   000000 235100                    LDA     0,,PR0
         4 001264   000001 115007                    CMPA    1,DL
         4 001265   001267 600000 4                  TZE     DISP_TPHDR
         4 001266   001643 710000 4                  TRA     s:1111

     1118     1044    2           CASE(%PC_DITPHDR);

     1119     1045    2   DISP_TPHDR:
     1120     1046    2              TPBUF.COUNT = 0;

   1046  4 001267   000000 236003       DISP_TPHDR   LDQ     0,DU
         4 001270   000112 552040 2                  STBQ    TPBUF,'40'O

     1121     1047    2              TPBUF.TEXT = ' ';

   1047  4 001271   040000 100400                    MLR     fill='040'O
         4 001272   000035 000001 xsym               ADSC9   B_VECTNIL+29             cn=0,n=1
         4 001273   000112 200204 2                  ADSC9   TPBUF                    cn=1,n=132

     1122     1048    3              IF ADDR(NAME) = ADDR(NIL) THEN DO;

   1048  4 001274   200004 236100                    LDQ     @NAME,,AUTO
         4 001275   000001 116000 xsym               CMPQ    B_VECTNIL+1
         4 001276   001467 601000 4                  TNZ     s:1081

     1123     1049    3                 IF CURINSTANCES = 0

   1049  4 001277   000000 235000 xsym               LDA     CURINSTANCES
         4 001300   001306 601000 4                  TNZ     s:1052

     1124     1050    3                    THEN CALL PCE$ERROR(%E$P_NOTPI,0);
PL6.E3A0      #002=PCT$TPCAT File=PCT$TABLES.:E05TSI                             WED 07/30/97 04:23 Page:190

   1050  4 001301   000016 630400 5                  EPPR0   14
         4 001302   000020 631400 xsym               EPPR1   B_VECTNIL+16
         4 001303   000000 701000 xent               TSX1    PCE$ERROR
         4 001304   000000 011000                    NOP     0
         4 001305   001643 710000 4                  TRA     s:1111

     1125     1051    4                 ELSE DO;

     1126     1052    5                    DO I = 0 TO TBLINSTANCES - 1;

   1052  4 001306   200005 450100                    STZ     I,,AUTO
         4 001307   001457 710000 4                  TRA     s:1076+1

     1127     1053    6                       IF NOT MAXTPU_TBL.FLAGS.DELETED(I) THEN DO;

   1053  4 001310   200005 235100                    LDA     I,,AUTO
         4 001311   000002 735000                    ALS     2
         4 001312   000003 236005 xsym               LDQ     MAXTPU_TBL+3,AL
         4 001313   200000 316007                    CANQ    65536,DL
         4 001314   001456 601000 4                  TNZ     s:1076

     1128     1054    6                          TEMPLEN = MAXTPU_TBL.COUNT(I) + 2;

   1054  4 001315   000003 236005 xsym               LDQ     MAXTPU_TBL+3,AL
         4 001316   000022 772000                    QRL     18
         4 001317   000002 036007                    ADLQ    2,DL
         4 001320   200014 756100                    STQ     TEMPLEN,,AUTO

     1129     1055    6                          CALL INSERT(TPHDRBUF,7,TEMPLEN,SUBSTR(MAXTPU_TBL.NAME(I),0,
              1055                                   MAXTPU_TBL.COUNT(I)),')=');

   1055  4 001321   000003 220005 xsym               LDX0    MAXTPU_TBL+3,AL
         4 001322   200005 235100                    LDA     I,,AUTO
         4 001323   000004 735000                    ALS     4
         4 001324   000000 621006                    EAX1    0,QL
         4 001325   040040 100445                    MLR     fill='040'O
PL6.E3A0      #002=PCT$TPCAT File=PCT$TABLES.:E05TSI                             WED 07/30/97 04:23 Page:191
         4 001326   000000 000010 xsym               ADSC9   MAXTPU_TBL,A             cn=0,n=*X0
         4 001327   000052 600011 2                  ADSC9   TPHDRBUF+1               cn=3,n=*X1
         4 001330   000000 636010                    EAQ     0,X0
         4 001331   000022 772000                    QRL     18
         4 001332   200016 756100                    STQ     TEMPLEN+2,,AUTO
         4 001333   200014 236100                    LDQ     TEMPLEN,,AUTO
         4 001334   200016 136100                    SBLQ    TEMPLEN+2,,AUTO
         4 001335   001344 604400 4                  TMOZ    s:1056
         4 001336   000000 621006                    EAX1    0,QL
         4 001337   000000 636010                    EAQ     0,X0
         4 001340   000022 772000                    QRL     18
         4 001341   040046 100400                    MLR     fill='040'O
         4 001342   000013 000002 3                  ADSC9   DUMPBUF+2                cn=0,n=2
         4 001343   000052 600011 2                  ADSC9   TPHDRBUF+1,Q             cn=3,n=*X1

     1130     1056    6                          TEMPLEN = TEMPLEN + 7;

   1056  4 001344   000007 236007                    LDQ     7,DL
         4 001345   200014 056100                    ASQ     TEMPLEN,,AUTO

     1131     1057    6                          IF (TPHDR_TBL.HDR.CNT(I) > 0)

   1057  4 001346   200005 236100                    LDQ     I,,AUTO
         4 001347   000025 402007                    MPY     21,DL
         4 001350   000000 236006 xsym               LDQ     TPHDR_TBL,QL
         4 001351   777000 316003                    CANQ    -512,DU
         4 001352   001374 600000 4                  TZE     s:1064

     1132     1058    7                            THEN DO;

     1133     1059    7                               LEN = MINIMUM(TPHDR_TBL.HDR.CNT(I),100);

   1059  4 001353   200005 236100                    LDQ     I,,AUTO
         4 001354   000025 402007                    MPY     21,DL
         4 001355   000000 236006 xsym               LDQ     TPHDR_TBL,QL
         4 001356   000033 772000                    QRL     27
         4 001357   000144 116007                    CMPQ    100,DL
PL6.E3A0      #002=PCT$TPCAT File=PCT$TABLES.:E05TSI                             WED 07/30/97 04:23 Page:192
         4 001360   001363 602000 4                  TNC     s:1059+8
         4 001361   001363 600000 4                  TZE     s:1059+8
         4 001362   000144 236007                    LDQ     100,DL
         4 001363   200013 756100                    STQ     LEN,,AUTO

     1134     1060    7                               CALL INSERT(TPHDRBUF,TEMPLEN,LEN,

   1060  4 001364   200005 236100                    LDQ     I,,AUTO
         4 001365   000124 402007                    MPY     84,DL
         4 001366   200013 720100                    LXL0    LEN,,AUTO
         4 001367   200014 235100                    LDA     TEMPLEN,,AUTO
         4 001370   040045 100446                    MLR     fill='040'O
         4 001371   000000 200010 xsym               ADSC9   TPHDR_TBL,Q              cn=1,n=*X0
         4 001372   000051 000010 2                  ADSC9   TPHDRBUF,A               cn=0,n=*X0

     1135     1061    7                                           SUBSTR(TPHDR_TBL.HDR.MSG(I),0,LEN));
     1136     1062    7                               END;

   1062  4 001373   001402 710000 4                  TRA     s:1067

     1137     1063    7                             ELSE DO;

     1138     1064    7                               CALL INSERT(TPHDRBUF,TEMPLEN,4,'NONE');

   1064  4 001374   200014 235100                    LDA     TEMPLEN,,AUTO
         4 001375   040005 100400                    MLR     fill='040'O
         4 001376   000014 000004 3                  ADSC9   DUMPBUF+3                cn=0,n=4
         4 001377   000051 000004 2                  ADSC9   TPHDRBUF,A               cn=0,n=4

     1139     1065    7                               LEN = 4;

   1065  4 001400   000004 236007                    LDQ     4,DL
         4 001401   200013 756100                    STQ     LEN,,AUTO

     1140     1066    7                               END;  /* IF PRESENT */

     1141     1067    6                          TEMPLEN = TEMPLEN + LEN;
PL6.E3A0      #002=PCT$TPCAT File=PCT$TABLES.:E05TSI                             WED 07/30/97 04:23 Page:193

   1067  4 001402   200014 236100                    LDQ     TEMPLEN,,AUTO
         4 001403   200013 036100                    ADLQ    LEN,,AUTO
         4 001404   200014 756100                    STQ     TEMPLEN,,AUTO

     1142     1068    7                          IF TPBUF.COUNT + TEMPLEN > DCB_WIDTH THEN DO;

   1068  4 001405   000112 236000 2                  LDQ     TPBUF
         4 001406   000033 772000                    QRL     27
         4 001407   200014 036100                    ADLQ    TEMPLEN,,AUTO
         4 001410   200010 116100                    CMPQ    DCB_WIDTH,,AUTO
         4 001411   001423 604400 4                  TMOZ    s:1073

     1143     1069    7                             CALL X$WRITE(FDS,VECTOR(DUMPBUF),VECTOR(TPBUF));

   1069  4 001412   000012 630400 5                  EPPR0   10
         4 001413   000021 631400 xsym               EPPR1   B_VECTNIL+17
         4 001414   000000 701000 xent               TSX1    X$WRITE
         4 001415   000000 011000                    NOP     0

     1144     1070    7                             TPBUF.COUNT = 0;

   1070  4 001416   000000 236003                    LDQ     0,DU
         4 001417   000112 552040 2                  STBQ    TPBUF,'40'O

     1145     1071    7                             TPBUF.TEXT = ' ';

   1071  4 001420   040000 100400                    MLR     fill='040'O
         4 001421   000035 000001 xsym               ADSC9   B_VECTNIL+29             cn=0,n=1
         4 001422   000112 200204 2                  ADSC9   TPBUF                    cn=1,n=132

     1146     1072    7                             END;  /* IF */

     1147     1073    6                         CALL INSERT(TPBUF.TEXT,TPBUF.COUNT,TEMPLEN+1,SUBSTR(TPHDRBUF,
              1073                                   0,TEMPLEN),' ');

   1073  4 001423   000112 236000 2                  LDQ     TPBUF
PL6.E3A0      #002=PCT$TPCAT File=PCT$TABLES.:E05TSI                             WED 07/30/97 04:23 Page:194
         4 001424   000033 772000                    QRL     27
         4 001425   200014 720100                    LXL0    TEMPLEN,,AUTO
         4 001426   000001 621010                    EAX1    1,X0
         4 001427   200014 722100                    LXL2    TEMPLEN,,AUTO
         4 001430   040046 100440                    MLR     fill='040'O
         4 001431   000051 000012 2                  ADSC9   TPHDRBUF                 cn=0,n=*X2
         4 001432   000112 200011 2                  ADSC9   TPBUF,Q                  cn=1,n=*X1
         4 001433   200016 756100                    STQ     TEMPLEN+2,,AUTO
         4 001434   200014 236100                    LDQ     TEMPLEN,,AUTO
         4 001435   200014 136100                    SBLQ    TEMPLEN,,AUTO
         4 001436   000027 116000 xsym               CMPQ    B_VECTNIL+23
         4 001437   001450 604400 4                  TMOZ    s:1074
         4 001440   200017 756100                    STQ     TEMPLEN+3,,AUTO
         4 001441   200016 236100                    LDQ     TEMPLEN+2,,AUTO
         4 001442   200014 036100                    ADLQ    TEMPLEN,,AUTO
         4 001443   200017 723100                    LXL3    TEMPLEN+3,,AUTO
         4 001444   000001 624013                    EAX4    1,X3
         4 001445   040046 100400                    MLR     fill='040'O
         4 001446   000035 000001 xsym               ADSC9   B_VECTNIL+29             cn=0,n=1
         4 001447   000112 200014 2                  ADSC9   TPBUF,Q                  cn=1,n=*X4

     1148     1074    6                          TPBUF.COUNT = TPBUF.COUNT + TEMPLEN + 1;

   1074  4 001450   000112 236000 2                  LDQ     TPBUF
         4 001451   000033 772000                    QRL     27
         4 001452   200014 036100                    ADLQ    TEMPLEN,,AUTO
         4 001453   000001 036007                    ADLQ    1,DL
         4 001454   000033 736000                    QLS     27
         4 001455   000112 552040 2                  STBQ    TPBUF,'40'O

     1149     1075    6                          END;  /* IF NOT DELETED */

     1150     1076    5                       END;  /* DO I */

   1076  4 001456   200005 054100                    AOS     I,,AUTO
         4 001457   200005 236100                    LDQ     I,,AUTO
         4 001460   000000 116000 xsym               CMPQ    TBLINSTANCES
PL6.E3A0      #002=PCT$TPCAT File=PCT$TABLES.:E05TSI                             WED 07/30/97 04:23 Page:195
         4 001461   001310 604000 4                  TMI     s:1053

     1151     1077    4                    CALL X$WRITE(FDS,VECTOR(DUMPBUF),VECTOR(TPBUF));

   1077  4 001462   000012 630400 5                  EPPR0   10
         4 001463   000021 631400 xsym               EPPR1   B_VECTNIL+17
         4 001464   000000 701000 xent               TSX1    X$WRITE
         4 001465   000000 011000                    NOP     0

     1152     1078    4                    END;  /* ELSE */

     1153     1079    3                 END;  /* IF ADDR(NAME) = ADDR(NIL) */

   1079  4 001466   001643 710000 4                  TRA     s:1111

     1154     1080    3              ELSE DO;  /* NAME SPECIFIED */

     1155     1081    4                 DO I = 0 TO TBLINSTANCES - 1;

   1081  4 001467   200005 450100                    STZ     I,,AUTO
         4 001470   001506 710000 4                  TRA     s:1084+1

     1156     1082    4                    IF NAME = MAXTPU_TBL.NAME(I) AND NOT MAXTPU_TBL.FLAGS.DELETED(I)

   1082  4 001471   200005 235100                    LDA     I,,AUTO
         4 001472   000004 735000                    ALS     4
         4 001473   200004 470500                    LDP0    @NAME,,AUTO
         4 001474   040005 106500                    CMPC    fill='040'O
         4 001475   000000 000010                    ADSC9   0,,PR0                   cn=0,n=8
         4 001476   000000 000010 xsym               ADSC9   MAXTPU_TBL,A             cn=0,n=8
         4 001477   001505 601000 4                  TNZ     s:1084
         4 001500   200005 236100                    LDQ     I,,AUTO
         4 001501   000002 736000                    QLS     2
         4 001502   000003 236006 xsym               LDQ     MAXTPU_TBL+3,QL
         4 001503   200000 316007                    CANQ    65536,DL
         4 001504   001537 600000 4                  TZE     FOUND_IT2

PL6.E3A0      #002=PCT$TPCAT File=PCT$TABLES.:E05TSI                             WED 07/30/97 04:23 Page:196
     1157     1083    4                       THEN GOTO FOUND_IT2;
     1158     1084    4                    END;  /* DO I */

   1084  4 001505   200005 054100                    AOS     I,,AUTO
         4 001506   200005 236100                    LDQ     I,,AUTO
         4 001507   000000 116000 xsym               CMPQ    TBLINSTANCES
         4 001510   001471 604000 4                  TMI     s:1082

     1159     1085    3                 K = 0;

   1085  4 001511   200007 450100                    STZ     K,,AUTO

     1160     1086    4                 DO WHILE(SUBSTR(NAME,K,1) ~= ' ' AND K < 8);

   1086  4 001512   001514 710000 4                  TRA     s:1088

     1161     1087    4                    K = K + 1;

   1087  4 001513   200007 054100                    AOS     K,,AUTO

     1162     1088    4                    END;  /* DO WHILE */

   1088  4 001514   200004 470500                    LDP0    @NAME,,AUTO
         4 001515   200007 235100                    LDA     K,,AUTO
         4 001516   040000 106505                    CMPC    fill='040'O
         4 001517   000000 000001                    ADSC9   0,A,PR0                  cn=0,n=1
         4 001520   000035 000001 xsym               ADSC9   B_VECTNIL+29             cn=0,n=1
         4 001521   001524 600000 4                  TZE     s:1089
         4 001522   000010 115007                    CMPA    8,DL
         4 001523   001513 604000 4                  TMI     s:1087

     1163     1089    3                 SUB_BUF_1.COUNT = K;

   1089  4 001524   200007 236100                    LDQ     K,,AUTO
         4 001525   000033 736000                    QLS     27
         4 001526   000000 552040 xsym               STBQ    SUB_BUF_1,'40'O

PL6.E3A0      #002=PCT$TPCAT File=PCT$TABLES.:E05TSI                             WED 07/30/97 04:23 Page:197
     1164     1090    3                 SUB_BUF_1.TEXT = NAME;

   1090  4 001527   040000 100500                    MLR     fill='040'O
         4 001530   000000 000010                    ADSC9   0,,PR0                   cn=0,n=8
         4 001531   000000 200037 xsym               ADSC9   SUB_BUF_1                cn=1,n=31

     1165     1091    3                 CALL PCE$ERROR(%E$P_BAD_INSTANCE_NAME,3);

   1091  4 001532   000022 630400 5                  EPPR0   18
         4 001533   000020 631400 xsym               EPPR1   B_VECTNIL+16
         4 001534   000000 701000 xent               TSX1    PCE$ERROR
         4 001535   000000 011000                    NOP     0

     1166     1092    3                 RETURN;

   1092  4 001536   000000 702200 xent               TSX2  ! X66_ARET

     1167     1093    3   FOUND_IT2:    TEMPLEN = MAXTPU_TBL.COUNT(I) + 2;

   1093  4 001537   200005 236100       FOUND_IT2    LDQ     I,,AUTO
         4 001540   000002 736000                    QLS     2
         4 001541   000003 236006 xsym               LDQ     MAXTPU_TBL+3,QL
         4 001542   000022 772000                    QRL     18
         4 001543   000002 036007                    ADLQ    2,DL
         4 001544   200014 756100                    STQ     TEMPLEN,,AUTO

     1168     1094    3                CALL INSERT(TPHDRBUF,7,TEMPLEN,SUBSTR(MAXTPU_TBL.NAME(I),0,MAXTPU_TBL.
              1094                          COUNT(I)),')=');

   1094  4 001545   200005 235100                    LDA     I,,AUTO
         4 001546   000002 735000                    ALS     2
         4 001547   000003 220005 xsym               LDX0    MAXTPU_TBL+3,AL
         4 001550   200005 235100                    LDA     I,,AUTO
         4 001551   000004 735000                    ALS     4
         4 001552   000000 621006                    EAX1    0,QL
         4 001553   040040 100445                    MLR     fill='040'O
         4 001554   000000 000010 xsym               ADSC9   MAXTPU_TBL,A             cn=0,n=*X0
PL6.E3A0      #002=PCT$TPCAT File=PCT$TABLES.:E05TSI                             WED 07/30/97 04:23 Page:198
         4 001555   000052 600011 2                  ADSC9   TPHDRBUF+1               cn=3,n=*X1
         4 001556   000000 636010                    EAQ     0,X0
         4 001557   000022 772000                    QRL     18
         4 001560   200016 756100                    STQ     TEMPLEN+2,,AUTO
         4 001561   200014 236100                    LDQ     TEMPLEN,,AUTO
         4 001562   200016 136100                    SBLQ    TEMPLEN+2,,AUTO
         4 001563   001572 604400 4                  TMOZ    s:1095
         4 001564   000000 621006                    EAX1    0,QL
         4 001565   000000 636010                    EAQ     0,X0
         4 001566   000022 772000                    QRL     18
         4 001567   040046 100400                    MLR     fill='040'O
         4 001570   000013 000002 3                  ADSC9   DUMPBUF+2                cn=0,n=2
         4 001571   000052 600011 2                  ADSC9   TPHDRBUF+1,Q             cn=3,n=*X1

     1169     1095    3                 TEMPLEN = TEMPLEN + 7;

   1095  4 001572   000007 236007                    LDQ     7,DL
         4 001573   200014 056100                    ASQ     TEMPLEN,,AUTO

     1170     1096    3                 IF (TPHDR_TBL.HDR.CNT(I) > 0)

   1096  4 001574   200005 236100                    LDQ     I,,AUTO
         4 001575   000025 402007                    MPY     21,DL
         4 001576   000000 236006 xsym               LDQ     TPHDR_TBL,QL
         4 001577   777000 316003                    CANQ    -512,DU
         4 001600   001622 600000 4                  TZE     s:1103

     1171     1097    4                   THEN DO;

     1172     1098    4                      LEN = MINIMUM(TPHDR_TBL.HDR.CNT(I),100);

   1098  4 001601   200005 236100                    LDQ     I,,AUTO
         4 001602   000025 402007                    MPY     21,DL
         4 001603   000000 236006 xsym               LDQ     TPHDR_TBL,QL
         4 001604   000033 772000                    QRL     27
         4 001605   000144 116007                    CMPQ    100,DL
         4 001606   001611 602000 4                  TNC     s:1098+8
PL6.E3A0      #002=PCT$TPCAT File=PCT$TABLES.:E05TSI                             WED 07/30/97 04:23 Page:199
         4 001607   001611 600000 4                  TZE     s:1098+8
         4 001610   000144 236007                    LDQ     100,DL
         4 001611   200013 756100                    STQ     LEN,,AUTO

     1173     1099    4                      CALL INSERT(TPHDRBUF,TEMPLEN,LEN,

   1099  4 001612   200005 236100                    LDQ     I,,AUTO
         4 001613   000124 402007                    MPY     84,DL
         4 001614   200013 720100                    LXL0    LEN,,AUTO
         4 001615   200014 235100                    LDA     TEMPLEN,,AUTO
         4 001616   040045 100446                    MLR     fill='040'O
         4 001617   000000 200010 xsym               ADSC9   TPHDR_TBL,Q              cn=1,n=*X0
         4 001620   000051 000010 2                  ADSC9   TPHDRBUF,A               cn=0,n=*X0

     1174     1100    4                                  SUBSTR(TPHDR_TBL.HDR.MSG(I),0,LEN));
     1175     1101    4                      END;

   1101  4 001621   001630 710000 4                  TRA     s:1106

     1176     1102    4                    ELSE DO;

     1177     1103    4                      CALL INSERT(TPHDRBUF,TEMPLEN,4,'NONE');

   1103  4 001622   200014 235100                    LDA     TEMPLEN,,AUTO
         4 001623   040005 100400                    MLR     fill='040'O
         4 001624   000014 000004 3                  ADSC9   DUMPBUF+3                cn=0,n=4
         4 001625   000051 000004 2                  ADSC9   TPHDRBUF,A               cn=0,n=4

     1178     1104    4                      LEN = 4;

   1104  4 001626   000004 236007                    LDQ     4,DL
         4 001627   200013 756100                    STQ     LEN,,AUTO

     1179     1105    4                      END;  /* IF PRESENT */

     1180     1106    3                 TPBUF.TEXT = TPHDRBUF;

PL6.E3A0      #002=PCT$TPCAT File=PCT$TABLES.:E05TSI                             WED 07/30/97 04:23 Page:200
   1106  4 001630   040000 100400                    MLR     fill='040'O
         4 001631   000051 000204 2                  ADSC9   TPHDRBUF                 cn=0,n=132
         4 001632   000112 200204 2                  ADSC9   TPBUF                    cn=1,n=132

     1181     1107    3                 TPBUF.COUNT = TEMPLEN + LEN;

   1107  4 001633   200014 236100                    LDQ     TEMPLEN,,AUTO
         4 001634   200013 036100                    ADLQ    LEN,,AUTO
         4 001635   000033 736000                    QLS     27
         4 001636   000112 552040 2                  STBQ    TPBUF,'40'O

     1182     1108    3                 CALL X$WRITE(FDS,VECTOR(DUMPBUF),VECTOR(TPBUF));

   1108  4 001637   000012 630400 5                  EPPR0   10
         4 001640   000021 631400 xsym               EPPR1   B_VECTNIL+17
         4 001641   000000 701000 xent               TSX1    X$WRITE
         4 001642   000000 011000                    NOP     0

     1183     1109    3                 END;  /* ELSE NAME SPECIFIED */

     1184     1110    2           END;  /* DO CASE(CODE) */

     1185     1111    1           RETURN;

   1111  4 001643   000000 702200 xent               TSX2  ! X66_ARET
     1186     1112    1   END PCT$TPCAT;

PL6.E3A0      #002=PCT$TPCAT File=PCT$TABLES.:E05TSI                             WED 07/30/97 04:23 Page:201
--  Include file information  --

   XUF_ENTRY.:E05TOU  cannot be made into a system file and is referenced.
   XU_FORMAT_C.:E05TOU  is referenced.
   F$DCB.:E05TOU  cannot be made into a system file and is referenced.
   PC_PERR_C.:E05TOU  is referenced.
   PC_SUBS_C.:E05TOU  is referenced.
   CP_6.:E05TOU  cannot be made into a system file and is referenced.
   B$JIT_C.:E05TOU  was found in the system file and is never referenced.
   CP_6_C.:E05TOU  was found in the system file and is referenced.
      No diagnostics issued in procedure PCT$TPCAT.
PL6.E3A0      #002=PCT$TPCAT File=PCT$TABLES.:E05TSI                             WED 07/30/97 04:23 Page:202

 **** Variables and constants ****

  ****  Section 002  Data  PCT$TPCAT

  ****  Scalars and arrays  ****
OctLoc.c.b A Datatyp(siz) R M Lvl/name                 OctLoc.c.b A Datatyp(siz) R M Lvl/name

   154-0-0/w STRC(1080)  r     1 FDS                       41-0-0/c CHAR(32)    r     1 MAXTPUBUF
     0-0-0/c CHAR(132)   r     1 OUTBUF                   112-0-0/w STRC(1197)  r     1 TPBUF
    51-0-0/c CHAR(132)   r     1 TPHDRBUF

  ****  Section 003 RoData PCT$TPCAT

  ****  Scalars and arrays  ****
OctLoc.c.b A Datatyp(siz) R M Lvl/name                 OctLoc.c.b A Datatyp(siz) R M Lvl/name

    11-0-0/c CHAR(6)     r     1 DUMPBUF                    0-0-0/c CHAR(35)    r     1 TPIHDR

  ****  Auto variables  ****

  ****  Scalars and arrays  ****
OctLoc.c.b A Datatyp(siz) R M Lvl/name                 OctLoc.c.b A Datatyp(siz) R M Lvl/name

     3-0-0/w PTR         r     1 @CODE                      4-0-0/w PTR         r     1 @NAME
    *0-0-0/w SBIN        r     1 CODE                      10-0-0/w SBIN        r     1 DCB_WIDTH
     5-0-0/w SBIN        r     1 I                          7-0-0/w SBIN        r     1 K
    13-0-0/w SBIN        r     1 LEN                       *0-0-0/c CHAR(8)     r     1 NAME
    11-0-0/c CHAR(8)     r     1 TEMP                      14-0-0/w SBIN        r     1 TEMPLEN

  ****  SYMREF variables  ****

  ****  Scalars and arrays  ****
OctLoc.c.b A Datatyp(siz) R M Lvl/name                 OctLoc.c.b A Datatyp(siz) R M Lvl/name

     0-0-0/w SBIN        r     1 CURINSTANCES
     0-0-0/w STRC(144)   r     1 MAXTPU_TBL(0:71)
     0-0-0/c STRC(288)   r     1 SUB_BUF_1                  0-0-0/w SBIN        r     1 TBLINSTANCES
PL6.E3A0      #002=PCT$TPCAT File=PCT$TABLES.:E05TSI                             WED 07/30/97 04:23 Page:203
     0-0-0/w PTR         r     1 TP$
     0-0-0/w STRC(747)   r     1 TPHDR_TBL(0:71)

  ****  BASED and DCB variables  ****

  ****  Scalars and arrays  ****
OctLoc.c.b A Datatyp(siz) R M Lvl/name                 OctLoc.c.b A Datatyp(siz) R M Lvl/name

     0-0-0/d ASTR(3528)  r     1 F$DCB                      0-0-0N  NULL        r     1 M$LO
     0-0-0/w STRC(432)   r     1 P$TBL(0:0)


   Procedure PCT$TPCAT requires 932 words for executable code.
   Procedure PCT$TPCAT requires 18 words of local(AUTO) storage.

    No errors detected in file PCT$TABLES.:E05TSI    .
PL6.E3A0      #002=PCT$TPCAT File=PCT$TABLES.:E05TSI                             WED 07/30/97 04:23 Page:204
          *** CROSS REFERENCE LISTING ***
**     DENOTES     IDENTIFIER DEFINITION
<<                 IDENTIFIER'S VALUE SET
>>                 IDENTIFIER'S VALUE USED
<>                 IDENTIFIER SET AND/OR USED
--                 IDENTIFIER REFERENCED
PL6.E3A0      #002=PCT$TPCAT File=PCT$TABLES.:E05TSI                             WED 07/30/97 04:23 Page:205
          MINI XREF LISTING

CODE
        10**DCL         7--PROC      870>>DOCASE    974>>IF       1043>>IF
CURINSTANCES
       688**DCL       873>>IF        954>>IF        980>>IF       1049>>IF
DCB_WIDTH
       716**DCL       868<<ASSIGN    869>>IF        869<<ASSIGN    877>>IF        914>>IF        942>>IF
       958>>IF       1000>>IF       1068>>IF
DISP_MAXTPU
       977**LABEL     974--GOTO
DISP_TPHDR
      1046**LABEL    1043--GOTO
DUMPBUF
       834**DCL       878--CALL      887--CALL      915--CALL      923--CALL      943--CALL      951--CALL
       959--CALL      968--CALL     1001--CALL     1009--CALL     1041--CALL     1069--CALL     1077--CALL
      1108--CALL
F$DCB.ACTPOS
       486**DCL       486--REDEF
F$DCB.ARS
       461**DCL       461--REDEF
F$DCB.ATTR
       479**DCL       480--REDEF
F$DCB.BORROW
       494**DCL       494--REDEF     494--REDEF     494--REDEF
F$DCB.DCBNAME.L
       508**DCL       508--IMP-SIZ
F$DCB.EOMCHAR
       465**DCL       465--REDEF
F$DCB.FLDID
       489**DCL       489--REDEF
F$DCB.FORM$
       483**DCL       483--REDEF
F$DCB.FSECT
PL6.E3A0      #002=PCT$TPCAT File=PCT$TABLES.:E05TSI                             WED 07/30/97 04:23 Page:206
       499**DCL       499--REDEF
F$DCB.FSN
       476**DCL       476--REDEF     476--REDEF     477--REDEF
F$DCB.HEADER$
       482**DCL       482--REDEF
F$DCB.IXTNSIZE
       480**DCL       480--REDEF
F$DCB.LASTSTA$
       470**DCL       470--REDEF
F$DCB.LVL
       495**DCL       495--REDEF
F$DCB.NAME.C
       470**DCL       470--REDEF
F$DCB.NOEOF
       491**DCL       491--REDEF
F$DCB.NRECS
       481**DCL       481--REDEF
F$DCB.NRECX
       500**DCL       500--REDEF
F$DCB.OHDR
       492**DCL       492--REDEF
F$DCB.ORG
       475**DCL       475--REDEF
F$DCB.PRECNO
       498**DCL       498--REDEF
F$DCB.RCSZ
       503**DCL       503--REDEF
F$DCB.RES
       471**DCL       471--REDEF
F$DCB.SETX
       483**DCL       483--REDEF
F$DCB.TAB$
       482**DCL       483--REDEF
F$DCB.TDA
       497**DCL       497--REDEF
F$DCB.WIDTH
PL6.E3A0      #002=PCT$TPCAT File=PCT$TABLES.:E05TSI                             WED 07/30/97 04:23 Page:207
       468**DCL       868>>ASSIGN
F$DCB.WSN
       472**DCL       472--REDEF
FDS
       734**DCL       874<>CALL      878<>CALL      887<>CALL      915<>CALL      923<>CALL      943<>CALL
       951<>CALL      955<>CALL      959<>CALL      968<>CALL     1001<>CALL     1009<>CALL     1041<>CALL
      1069<>CALL     1077<>CALL     1108<>CALL
FOUND_IT
      1025**LABEL    1015--GOTO
FOUND_IT2
      1093**LABEL    1083--GOTO
I
       710**DCL       875<<DOINDEX   876>>IF        877>>IF        882>>CALLBLT   882>>CALLBLT   882>>CALLBLT
       884>>ASSIGN    897<<DOINDEX   898>>IF        898>>IF        899>>ASSIGN    900>>CALLBLT   900>>CALLBLT
       902>>CALLBLT   926<<DOINDEX   927>>IF        927>>IF        928>>ASSIGN    929>>CALLBLT   929>>CALLBLT
       931>>IF        933>>ASSIGN    934>>CALLBLT   956<<DOINDEX   957>>IF        958>>IF        963>>CALLBLT
       963>>CALLBLT   963>>CALLBLT   965>>ASSIGN    983<<DOINDEX   984>>IF        985>>ASSIGN    986>>CALLBLT
       986>>CALLBLT   988>>CALLBLT  1013<<DOINDEX  1014>>IF       1014>>IF       1025>>ASSIGN   1026>>CALLBLT
      1026>>CALLBLT  1028>>CALLBLT  1052<<DOINDEX  1053>>IF       1054>>ASSIGN   1055>>CALLBLT  1055>>CALLBLT
      1057>>IF       1059>>ASSIGN   1060>>CALLBLT  1081<<DOINDEX  1082>>IF       1082>>IF       1093>>ASSIGN
      1094>>CALLBLT  1094>>CALLBLT  1096>>IF       1098>>ASSIGN   1099>>CALLBLT
K
       712**DCL       903<<ASSIGN    904>>DOWHILE   904>>DOWHILE   905<<ASSIGN    905>>ASSIGN    907>>ASSIGN
       910<<ASSIGN    912>>CALLBLT   989<<ASSIGN    990>>DOWHILE   990>>DOWHILE   991<<ASSIGN    991>>ASSIGN
       993>>ASSIGN    996<<ASSIGN    998>>CALLBLT  1017<<ASSIGN   1018>>DOWHILE  1018>>DOWHILE  1019<<ASSIGN
      1019>>ASSIGN   1021>>ASSIGN   1029<<ASSIGN   1030>>DOWHILE  1030>>DOWHILE  1031<<ASSIGN   1031>>ASSIGN
      1033>>ASSIGN   1036<<ASSIGN   1038>>CALLBLT  1085<<ASSIGN   1086>>DOWHILE  1086>>DOWHILE  1087<<ASSIGN
      1087>>ASSIGN   1089>>ASSIGN
LEN
       836**DCL       907<<ASSIGN    908>>IF        909<<ASSIGN    912>>CALLBLT   912>>CALLBLT   913>>ASSIGN
       933<<ASSIGN    934>>CALLBLT   934>>CALLBLT   939<<ASSIGN    941>>ASSIGN    993<<ASSIGN    994>>IF
       995<<ASSIGN    998>>CALLBLT   998>>CALLBLT   999>>ASSIGN   1033<<ASSIGN   1034>>IF       1035<<ASSIGN
      1038>>CALLBLT  1038>>CALLBLT  1040>>ASSIGN   1059<<ASSIGN   1060>>CALLBLT  1060>>CALLBLT  1065<<ASSIGN
      1067>>ASSIGN   1098<<ASSIGN   1099>>CALLBLT  1099>>CALLBLT  1104<<ASSIGN   1107>>ASSIGN
M$LO
       681**DCL       868--ASSIGN
PL6.E3A0      #002=PCT$TPCAT File=PCT$TABLES.:E05TSI                             WED 07/30/97 04:23 Page:208
MAXTPUBUF
       714**DCL       900<<CALLBLT   912<<CALLBLT   919>>CALLBLT   986<<CALLBLT   998<<CALLBLT  1005>>CALLBLT
      1026<<CALLBLT  1038<<CALLBLT  1039>>ASSIGN
MAXTPU_TBL.COUNT
       693**DCL       877>>IF        882>>CALLBLT   882>>CALLBLT   884>>ASSIGN    899>>ASSIGN    900>>CALLBLT
       928>>ASSIGN    929>>CALLBLT   958>>IF        963>>CALLBLT   963>>CALLBLT   965>>ASSIGN    985>>ASSIGN
       986>>CALLBLT  1025>>ASSIGN   1026>>CALLBLT  1054>>ASSIGN   1055>>CALLBLT  1093>>ASSIGN   1094>>CALLBLT
MAXTPU_TBL.FLAGS.DELETED
       696**DCL       876>>IF        898>>IF        927>>IF        957>>IF        984>>IF       1014>>IF
      1053>>IF       1082>>IF
MAXTPU_TBL.FLAGS.PRINT
       695**DCL       898>>IF
MAXTPU_TBL.MAXTPU
       692**DCL       902>>CALLBLT   988>>CALLBLT  1028>>CALLBLT
MAXTPU_TBL.NAME
       691**DCL       882>>CALLBLT   900>>CALLBLT   929>>CALLBLT   963>>CALLBLT   986>>CALLBLT  1014>>IF
      1026>>CALLBLT  1055>>CALLBLT  1082>>IF       1094>>CALLBLT
NAME
        11**DCL         7--PROC      979--IF       1014>>IF       1018>>DOWHILE  1022>>ASSIGN   1048--IF
      1082>>IF       1086>>DOWHILE  1090>>ASSIGN
OUTBUF
       713**DCL       752--DCLINIT   754--DCLINIT
P$TBL.FLAGS.PRINT
       840**DCL       872>>IF
P$TBL.MAX
       862**DCL       896>>IF        925>>IF
P$TBL.PSUPTR$
       858**DCL       859--REDEF
P$TBL.PTR$
       854**DCL       855--REDEF
PCE$ERROR
       684**DCL-ENT   890--CALL      971--CALL      981--CALL     1023--CALL     1050--CALL     1091--CALL
SUB_BUF_1.COUNT
       708**DCL      1021<<ASSIGN   1089<<ASSIGN
SUB_BUF_1.TEXT
       709**DCL      1022<<ASSIGN   1090<<ASSIGN
PL6.E3A0      #002=PCT$TPCAT File=PCT$TABLES.:E05TSI                             WED 07/30/97 04:23 Page:209
TBLINSTANCES
       689**DCL       875>>DOINDEX   897>>DOINDEX   926>>DOINDEX   956>>DOINDEX   983>>DOINDEX  1013>>DOINDEX
      1052>>DOINDEX  1081>>DOINDEX
TEMP
       835**DCL       902<<CALLBLT   904>>DOWHILE   912>>CALLBLT   988<<CALLBLT   990>>DOWHILE   998>>CALLBLT
      1028<<CALLBLT  1030>>DOWHILE  1038>>CALLBLT
TEMPLEN
       837**DCL       899<<ASSIGN    900>>CALLBLT   901<<ASSIGN    901>>ASSIGN    912>>CALLBLT   913<<ASSIGN
       913>>ASSIGN    914>>IF        919>>CALLBLT   919>>CALLBLT   920>>ASSIGN    928<<ASSIGN    929>>CALLBLT
       930<<ASSIGN    930>>ASSIGN    934>>CALLBLT   938>>CALLBLT   941<<ASSIGN    941>>ASSIGN    942>>IF
       947>>CALLBLT   947>>CALLBLT   948>>ASSIGN    985<<ASSIGN    986>>CALLBLT   987<<ASSIGN    987>>ASSIGN
       998>>CALLBLT   999<<ASSIGN    999>>ASSIGN   1000>>IF       1005>>CALLBLT  1005>>CALLBLT  1006>>ASSIGN
      1025<<ASSIGN   1026>>CALLBLT  1027<<ASSIGN   1027>>ASSIGN   1038>>CALLBLT  1040>>ASSIGN   1054<<ASSIGN
      1055>>CALLBLT  1056<<ASSIGN   1056>>ASSIGN   1060>>CALLBLT  1064>>CALLBLT  1067<<ASSIGN   1067>>ASSIGN
      1068>>IF       1073>>CALLBLT  1073>>CALLBLT  1074>>ASSIGN   1093<<ASSIGN   1094>>CALLBLT  1095<<ASSIGN
      1095>>ASSIGN   1099>>CALLBLT  1103>>CALLBLT  1107>>ASSIGN
TP$
       687**DCL       872>>IF        896>>IF        925>>IF
TPBUF
       717**DCL       878--CALL      887--CALL      915--CALL      923--CALL      943--CALL      951--CALL
       959--CALL      968--CALL     1001--CALL     1009--CALL     1041--CALL     1069--CALL     1077--CALL
      1108--CALL
TPBUF.COUNT
       718**DCL       866<<ASSIGN    877>>IF        880<<ASSIGN    882>>CALLBLT   884<<ASSIGN    884>>ASSIGN
       894<<ASSIGN    914>>IF        916<<ASSIGN    919>>CALLBLT   920<<ASSIGN    920>>ASSIGN    942>>IF
       944<<ASSIGN    947>>CALLBLT   948<<ASSIGN    948>>ASSIGN    958>>IF        961<<ASSIGN    963>>CALLBLT
       965<<ASSIGN    965>>ASSIGN    977<<ASSIGN   1000>>IF       1002<<ASSIGN   1005>>CALLBLT  1006<<ASSIGN
      1006>>ASSIGN   1040<<ASSIGN   1046<<ASSIGN   1068>>IF       1070<<ASSIGN   1073>>CALLBLT  1074<<ASSIGN
      1074>>ASSIGN   1107<<ASSIGN
TPBUF.TEXT
       719**DCL       867<<ASSIGN    879<<ASSIGN    882<<CALLBLT   895<<ASSIGN    917<<ASSIGN    919<<CALLBLT
       945<<ASSIGN    947<<CALLBLT   960<<ASSIGN    963<<CALLBLT   978<<ASSIGN   1003<<ASSIGN   1005<<CALLBLT
      1039<<ASSIGN   1047<<ASSIGN   1071<<ASSIGN   1073<<CALLBLT  1106<<ASSIGN
TPHDRBUF
       715**DCL       929<<CALLBLT   934<<CALLBLT   938<<CALLBLT   947>>CALLBLT  1055<<CALLBLT  1060<<CALLBLT
      1064<<CALLBLT  1073>>CALLBLT  1094<<CALLBLT  1099<<CALLBLT  1103<<CALLBLT  1106>>ASSIGN
PL6.E3A0      #002=PCT$TPCAT File=PCT$TABLES.:E05TSI                             WED 07/30/97 04:23 Page:210
TPHDR_TBL.FLAGS.PRINT
       703**DCL       927>>IF
TPHDR_TBL.HDR.CNT
       700**DCL       931>>IF        933>>ASSIGN   1057>>IF       1059>>ASSIGN   1096>>IF       1098>>ASSIGN
TPHDR_TBL.HDR.MSG
       701**DCL       934>>CALLBLT  1060>>CALLBLT  1099>>CALLBLT
TPIHDR
       833**DCL       874--CALL      955--CALL
X$WRITE
       677**DCL-ENT   874--CALL      878--CALL      887--CALL      915--CALL      923--CALL      943--CALL
       951--CALL      955--CALL      959--CALL      968--CALL     1001--CALL     1009--CALL     1041--CALL
      1069--CALL     1077--CALL     1108--CALL
