VERSION E05

PL6.E3A0      #001=PCW$WRITE File=PCW$WRITE.:E05TSI                              WED 07/30/97 04:22 Page:1
        1        1        /*M*     PCW$WRITE - OUTPUT MODULE FOR CONTROL   */
        2        2        /*T***********************************************************/
        3        3        /*T*                                                         */
        4        4        /*T* Copyright (c) Bull HN Information Systems Inc., 1997    */
        5        5        /*T*                                                         */
        6        6        /*T***********************************************************/
        7        7        /**/
        8        8        PCW$WRITE: PROC(BUFFER,BUF_SIZE) ALTRET;
        9        9        /**/
       10       10    1   DCL BUFFER CHAR(132);
       11       11    1   DCL BUF_SIZE SBIN WORD;
       12       12        /**/
       13       13        /*********************************************************************/
       14       14        /*   INCLUDE FILES   INCLUDE FILES   INCLUDE FILES   INCLUDE FILES   */
       15       15        /*********************************************************************/
       16       16        %INCLUDE CP_6;
       17       97        %INCLUDE PC_PERR_C;
       18      130        /********************************************************************/
       19      131        /*   FPTS   FPTS   FPTS   FPTS   FPTS   FPTS   FPTS   FPTS   FPTS   */
       20      132        /********************************************************************/
       21      133        %FPT_WRITE (FPTN = WRITE_FPT,
       22      134                    DCB = M$LO);
       23      165        /********************************************************************/
       24      166        /*   DCBS   DCBS   DCBS   DCBS   DCBS   DCBS   DCBS   DCBS   DCBS   */
       25      167        /********************************************************************/
       26      168    1   DCL M$LO DCB;
       27      169        /**/
       28      170        /***********************************************************************/
       29      171        /*    ENTRY DCLS   ENTRY DCLS   ENTRY DCLS   ENTRY DCLS   ENTRY DCLS   */
       30      172        /**********************************************************************/
       31      173        /**/
       32      174    1   DCL PCE$ERROR ENTRY(2) ALTRET;
       33      175        /**/
       34      176        %EJECT;
PL6.E3A0      #001=PCW$WRITE File=PCW$WRITE.:E05TSI                              WED 07/30/97 04:22 Page:2
       35      177        /*****************************************************************************/
       36      178        /*   PROCEDURE   PROCEDURE   PROCEDURE   PROCEDURE   PROCEDURE   PROCEDURE   */
       37      179        /*****************************************************************************/
       38      180        /**/
       39      181    1           WRITE_FPT.BUF_ = VECTOR(BUFFER);
       40      182    1           WRITE_FPT.BUF_.BOUND = BUF_SIZE - 1;
       41      183        /**/
       42      184    1           CALL M$WRITE(WRITE_FPT) ALTRET(WRITE_ERR);
       43      185        /**/
       44      186    1           RETURN;
       45      187        /**/
       46      188    1   WRITE_ERR:
       47      189    1           CALL PCE$ERROR(0,3);
       48      190    1           ALTRETURN;
       49      191    1   END PCW$WRITE;

PL6.E3A0      #001=PCW$WRITE File=PCW$WRITE.:E05TSI                              WED 07/30/97 04:22 Page:3
--  Include file information  --

   PC_PERR_C.:E05TOU  is referenced.
   CP_6.:E05TOU  cannot be made into a system file and is referenced.
   B$JIT_C.:E05TOU  was found in the system file and is never referenced.
   CP_6_C.:E05TOU  was found in the system file and is referenced.
      No diagnostics issued in procedure PCW$WRITE.

   Procedure PCW$WRITE requires 22 words for executable code.
   Procedure PCW$WRITE requires 6 words of local(AUTO) storage.

    No errors detected in file PCW$WRITE.:E05TSI    .

PL6.E3A0      #001=PCW$WRITE File=PCW$WRITE.:E05TSI                              WED 07/30/97 04:22 Page:4

 Object Unit name= PCW$WRITE                                  File name= PCW$WRITE.:E05TOU
 UTS= JUL 30 '97 04:22:36.92 WED                              Compiler= PL-6/E31         Sev=      00
 SharedLib= :SHARED_SYSTEM                                    Alt SharedLib=


    ****  Control sections  ****

 Sect   Type Bound  Init  Size OctSiz  Section name(segment info)
    0   DCB   even  none     0      0  M$UC
    1   Data  even  none    12     14  PCW$WRITE
    2   DCB   even  none     0      0  M$LO
    3   Proc  even  none    22     26  PCW$WRITE
    4  RoData even  none     3      3  PCW$WRITE

    ****  Entry defs  ****

                              Check   Calling
                             calling  sequence
  Sect OctLoc Primary Altret sequence   type   Parms  Name
     3      0   yes    yes     yes      Std        2  PCW$WRITE

  ****  Entry refs  ****

         Check        Calling
        calling       sequence
Altret sequence SRef   type   Args  Name
 yes     yes           Std       2 PCE$ERROR
                       nStd      0 X66_AUTO_2
                       Std       0 B_CONSPOOL_D
                       nStd      0 X66_ARET
                       nStd      0 X66_AALT
PL6.E3A0      #001=PCW$WRITE File=PCW$WRITE.:E05TSI                              WED 07/30/97 04:22 Page:5

  ****  Data refs  ****

  Flags:  r = read only, s = secondary
Flgs Name                             Flgs Name                             Flgs Name
     M$UC                                  M$LO                                  B_VECTNIL

  ****  Segment refs  ****

  Flags:  r = read only, s = secondary
Flgs Name                             Flgs Name                             Flgs Name
     ISSID                                 NULLSID
PL6.E3A0      #001=PCW$WRITE File=PCW$WRITE.:E05TSI                              WED 07/30/97 04:22 Page:6


        1        1        /*M*     PCW$WRITE - OUTPUT MODULE FOR CONTROL   */
        2        2        /*T***********************************************************/
        3        3        /*T*                                                         */
        4        4        /*T* Copyright (c) Bull HN Information Systems Inc., 1997    */
        5        5        /*T*                                                         */
        6        6        /*T***********************************************************/
        7        7        /**/
        8        8        PCW$WRITE: PROC(BUFFER,BUF_SIZE) ALTRET;

      8  3 000000   000000 700200 xent  PCW$WRITE    TSX0  ! X66_AUTO_2
         3 000001   000006 000002                    ZERO    6,2

        9        9        /**/
       10       10    1   DCL BUFFER CHAR(132);
       11       11    1   DCL BUF_SIZE SBIN WORD;
       12       12        /**/
       13       13        /*********************************************************************/
       14       14        /*   INCLUDE FILES   INCLUDE FILES   INCLUDE FILES   INCLUDE FILES   */
       15       15        /*********************************************************************/
       16       16        %INCLUDE CP_6;
       17       97        %INCLUDE PC_PERR_C;
       18      130        /********************************************************************/
       19      131        /*   FPTS   FPTS   FPTS   FPTS   FPTS   FPTS   FPTS   FPTS   FPTS   */
       20      132        /********************************************************************/
       21      133        %FPT_WRITE (FPTN = WRITE_FPT,
       22      134                    DCB = M$LO);
       23      165        /********************************************************************/
       24      166        /*   DCBS   DCBS   DCBS   DCBS   DCBS   DCBS   DCBS   DCBS   DCBS   */
       25      167        /********************************************************************/
       26      168    1   DCL M$LO DCB;
       27      169        /**/
       28      170        /***********************************************************************/
       29      171        /*    ENTRY DCLS   ENTRY DCLS   ENTRY DCLS   ENTRY DCLS   ENTRY DCLS   */
       30      172        /**********************************************************************/
       31      173        /**/
       32      174    1   DCL PCE$ERROR ENTRY(2) ALTRET;
PL6.E3A0      #001=PCW$WRITE File=PCW$WRITE.:E05TSI                              WED 07/30/97 04:22 Page:7
       33      175        /**/
       34      176        %EJECT;
PL6.E3A0      #001=PCW$WRITE File=PCW$WRITE.:E05TSI                              WED 07/30/97 04:22 Page:8
       35      177        /*****************************************************************************/
       36      178        /*   PROCEDURE   PROCEDURE   PROCEDURE   PROCEDURE   PROCEDURE   PROCEDURE   */
       37      179        /*****************************************************************************/
       38      180        /**/
       39      181    1           WRITE_FPT.BUF_ = VECTOR(BUFFER);

    181  3 000002   000000 235000 4                  LDA     0
         3 000003   200003 236100                    LDQ     @BUFFER,,AUTO
         3 000004   000004 757000 1                  STAQ    WRITE_FPT+4

       40      182    1           WRITE_FPT.BUF_.BOUND = BUF_SIZE - 1;

    182  3 000005   200004 470500                    LDP0    @BUF_SIZE,,AUTO
         3 000006   000000 236100                    LDQ     0,,PR0
         3 000007   000001 136007                    SBLQ    1,DL
         3 000010   000020 736000                    QLS     16
         3 000011   000004 676000 1                  ERQ     WRITE_FPT+4
         3 000012   000034 376000 xsym               ANQ     B_VECTNIL+28
         3 000013   000004 656000 1                  ERSQ    WRITE_FPT+4

       41      183        /**/
       42      184    1           CALL M$WRITE(WRITE_FPT) ALTRET(WRITE_ERR);

    184  3 000014   000000 630400 1                  EPPR0   WRITE_FPT
         3 000015   440001 713400                    CLIMB   alt,write
         3 000016   401400 401760                    pmme    nvectors=4
         3 000017   000021 702000 3                  TSX2    WRITE_ERR

       43      185        /**/
       44      186    1           RETURN;

    186  3 000020   000000 702200 xent               TSX2  ! X66_ARET

       45      187        /**/
       46      188    1   WRITE_ERR:
       47      189    1           CALL PCE$ERROR(0,3);

PL6.E3A0      #001=PCW$WRITE File=PCW$WRITE.:E05TSI                              WED 07/30/97 04:22 Page:9
    189  3 000021   000001 630400 4     WRITE_ERR    EPPR0   1
         3 000022   000020 631400 xsym               EPPR1   B_VECTNIL+16
         3 000023   000000 701000 xent               TSX1    PCE$ERROR
         3 000024   000000 011000                    NOP     0

       48      190    1           ALTRETURN;

    190  3 000025   000000 702200 xent               TSX2  ! X66_AALT
       49      191    1   END PCW$WRITE;

PL6.E3A0      #001=PCW$WRITE File=PCW$WRITE.:E05TSI                              WED 07/30/97 04:22 Page:10
--  Include file information  --

   PC_PERR_C.:E05TOU  is referenced.
   CP_6.:E05TOU  cannot be made into a system file and is referenced.
   B$JIT_C.:E05TOU  was found in the system file and is never referenced.
   CP_6_C.:E05TOU  was found in the system file and is referenced.
      No diagnostics issued in procedure PCW$WRITE.
PL6.E3A0      #001=PCW$WRITE File=PCW$WRITE.:E05TSI                              WED 07/30/97 04:22 Page:11

 **** Variables and constants ****

  ****  Section 001  Data  PCW$WRITE

  ****  Scalars and arrays  ****
OctLoc.c.b A Datatyp(siz) R M Lvl/name                 OctLoc.c.b A Datatyp(siz) R M Lvl/name

     0-0-0/d STRC(432)   r     1 WRITE_FPT

  ****  Auto variables  ****

  ****  Scalars and arrays  ****
OctLoc.c.b A Datatyp(siz) R M Lvl/name                 OctLoc.c.b A Datatyp(siz) R M Lvl/name

     3-0-0/w PTR         r     1 @BUFFER                    4-0-0/w PTR         r     1 @BUF_SIZE
    *0-0-0/c CHAR(132)   r     1 BUFFER                    *0-0-0/w SBIN        r     1 BUF_SIZE

  ****  BASED and DCB variables  ****

  ****  Scalars and arrays  ****
OctLoc.c.b A Datatyp(siz) R M Lvl/name                 OctLoc.c.b A Datatyp(siz) R M Lvl/name

     0-0-0N  NULL        r     1 M$LO


   Procedure PCW$WRITE requires 22 words for executable code.
   Procedure PCW$WRITE requires 6 words of local(AUTO) storage.

    No errors detected in file PCW$WRITE.:E05TSI    .
PL6.E3A0      #001=PCW$WRITE File=PCW$WRITE.:E05TSI                              WED 07/30/97 04:22 Page:12
          *** CROSS REFERENCE LISTING ***
**     DENOTES     IDENTIFIER DEFINITION
<<                 IDENTIFIER'S VALUE SET
>>                 IDENTIFIER'S VALUE USED
<>                 IDENTIFIER SET AND/OR USED
--                 IDENTIFIER REFERENCED
PL6.E3A0      #001=PCW$WRITE File=PCW$WRITE.:E05TSI                              WED 07/30/97 04:22 Page:13
          MINI XREF LISTING

BUFFER
        10**DCL         8--PROC      181--ASSIGN
BUF_SIZE
        11**DCL         8--PROC      182>>ASSIGN
M$WRITE
        26**DCL-ENT   184--CALL
PCE$ERROR
       174**DCL-ENT   189--CALL
WRITE_ERR
       189**LABEL     184--CALLALT
WRITE_FPT
       151**DCL       184<>CALL
WRITE_FPT.BUF_
       151**DCL       181<<ASSIGN
WRITE_FPT.BUF_.BOUND
       151**DCL       182<<ASSIGN
WRITE_FPT.STATION_
       153**DCL       153--REDEF
WRITE_FPT.V
       154**DCL       151--DCLINIT
WRITE_FPT.V.DVBYTE.VFC#
       160**DCL       160--REDEF
