VERSION E05

 04:25 07/30/97  FILE=PMN$COLLECT.:E05TSI                                                                1    BMAP - B00
                                         1  *M* Performance Monitor I/O Data Collecting Routine
                                         2  *T***********************************************************
                                         3  *T*                                                         *
                                         4  *T* Copyright (c) Bull HN Information Systems Inc., 1997    *
                                         5  *T*                                                         *
                                         6  *T***********************************************************
                                         7  *
                                         8  * REGISTER DEFINITIONS
                                         9  *
             000000000000               10  X0     EQU     0
             000000000001               11  X1     EQU     1
             000000000002               12  X2     EQU     2
             000000000003               13  X3     EQU     3
             000000000004               14  X4     EQU     4
             000000000005               15  X5     EQU     5
             000000000006               16  X6     EQU     6
             000000000007               17  X7     EQU     7
                                        18  *
             000000000000               19  PR0    EQU     0
             000000000001               20  PR1    EQU     1
             000000000002               21  PR2    EQU     2
             000000000003               22  PR3    EQU     3
             000000000004               23  PR4    EQU     4
             000000000005               24  PR5    EQU     5
             000000000006               25  PR6    EQU     6
             000000000007               26  PR7    EQU     7
                                        27  *
             000000000000               28  ARG$   EQU     PR0
             000000000001               29  ADSC$  EQU     PR1
             000000000002               30  AUTO$  EQU     PR2
                                        31  * EXTERNAL REFERENCES
                                        32  *
                                        33         SEGREF  SCUSID
                                        34  *
                                        35  * MODE VALUES
                                        36  *
             000000000000               37  PM_IDLE EQU    0                       DEVICE/CHANNEL IDLE
 04:25 07/30/97  FILE=PMN$COLLECT.:E05TSI                                                                2    BMAP - B00
             000000000001               38  PM_WAIT EQU    1                       DEVICE WAITING FOR CHANNEL
             000000000002               39  PM_BUSY EQU    2                       DEVICE/CHANNEL BUSY, NOTHING QUEUED
             000000000003               40  PM_QUED EQU    3                       DEVICE/CHANNEL BUSY, ADD'L REQUESTS QUEUED
                                        41  *
                                        42  * CALLING SEQUENCE:
                                        43  *
                                        44  *      CALL PMN$COLLECT(PM,NEWMODE[,INCREMENT]);
                                        45  *
                                        46  * OFFSETS IN PM PACKET (UGH!)
                                        47  *
             000000000000               48  MODE   EQU     0
             000000000000               49  CONNCT EQU     0
             000000000002               50  START  EQU     2
             000000000003               51  TIME   EQU     3
                                        52  *
                                        53  * PROCEDURE
                                        54  *
 0 000000                               55         USE     PMN$COLLECT,1
                                        56         ENTDEF  PMN$COLLECT
                                        57         ENTREF  HFC$BMAP_CLOCK7
                                        58         INHIB   ON
   000000                               59  PMN$COLLECT NULL
   000000    0 00000 4737 00            60         LDP3    0,,ARG$         PR3 -> PM PACKET
   000001    0 00001 4747 00            61         LDP4    1,,ARG$         PR4 -> NEW MODE
   000002    4 00000 7263 00            62         LXL6    0,,PR4          GET NEW MODE
   000003    004010 6342 07             63         LDI     =O4010,DL       Set overflow-mask and hex floating bits
   000004  X 000000 4776 07             64         LDP7    SCUSID,DL
   000005  X 000000 7042 00             65         TSX4    HFC$BMAP_CLOCK7 READ ELAPSED TIME CLOCK
   000006    000012 7732 00             66         LRL     10              Change to (roughly) milliseconds
   000007    3 00002 3353 00            67         LCA     START,,PR3      SUBTRACT PM.START_TIME
   000010    3 00002 7563 00            68         STQ     START,,PR3              (SAVE CURRENT TIME)
   000011    3 00002 0753 00            69         ADA     START,,PR3      FROM CURRENT TIME
   000012    3 00000 2253 00            70         LDX5    MODE,,PR3       AND ADD THE RESULT
   000013    3 00003 0553 15            71         ASA     TIME,X5,PR3     TO PM.ELAPSED_TIME(PM.MODE)
   000014    3 00000 7463 00            72         STX6    MODE,,PR3       SAVE NEW MODE
   000015    1 00000 2223 00            73         LDX2    0,,ADSC$        CHECK FOR THIRD ARG
   000016    000003 1022 03             74         CMPX2   3,DU
 04:25 07/30/97  FILE=PMN$COLLECT.:E05TSI                                                                3    BMAP - B00
   000017    000001 6042 11             75         TMI     1,X1            NOPE,  DONT RETURN INCREMENT
   000020    0 00002 4747 00            76         LDP4    2,,ARG$         GET POINTER TO INCREMENT
   000021    4 00000 7553 00            77         STA     0,,PR4          RETURN INCREMENT
   000022    000001 7102 11             78         TRA     1,X1
                                        79         END

  CONTROL SECTION TABLE

   0 CODE   EVEN  000023 PMN$COLLECT
   1 RODATA EVEN  000000 LITERALS

 04:25 07/30/97  FILE=PMN$COLLECT.:E05TSI     SYMBOL TABLE                                               4    BMAP - B00
 41000000 000000000001 ADSC$          *29        73
 41000000 000000000000 ARG$           *28        60        61        76
 40000000 000000000002 AUTO$          *30
 40000000 000000000000 CONNCT         *49
 03201000 000000000000 HFC$BMAP_CLOCK7          *57        65
 41000000 000000000000 MODE           *48        70        72
 12101000 000000000000 PMN$COLLECT     56       *59
 40000000 000000000002 PM_BUSY        *39
 40000000 000000000000 PM_IDLE        *37
 40000000 000000000003 PM_QUED        *40
 40000000 000000000001 PM_WAIT        *38
 41000000 000000000000 PR0            *19        28
 41000000 000000000001 PR1            *20        29
 41000000 000000000002 PR2            *21        30
 41000000 000000000003 PR3            *22        67        68        69        70        71        72
 41000000 000000000004 PR4            *23        62        77
 40000000 000000000005 PR5            *24
 40000000 000000000006 PR6            *25
 40000000 000000000007 PR7            *26
 03601000 000000000000 SCUSID         *33        64
 41000000 000000000002 START          *50        67        68        69
 41000000 000000000003 TIME           *51        71
 40000000 000000000000 X0             *10
 40000000 000000000001 X1             *11
 40000000 000000000002 X2             *12
 40000000 000000000003 X3             *13
 40000000 000000000004 X4             *14
 40000000 000000000005 X5             *15
 40000000 000000000006 X6             *16
 40000000 000000000007 X7             *17

      30 SYMBOLS

       0 MACROS

    SYMBOL SPACE USED   328 WORDS
     MACRO SPACE USED     0 WORDS
 04:25 07/30/97  FILE=PMN$COLLECT.:E05TSI     SYMBOL TABLE                                               5    BMAP - B00
   INPUT RECORDS READ   158
 STATEMENTS PROCESSED    83
         ELAPSED TIME  0:02.16
             CPU TIME     0.69 SEC.
        ASSEMBLY RATE  7217 STATEMENTS/CPU MIN.

      NO ERRORS

