VERSION E05

PL6.E3A0      #001=PSA$MAIN File=PSA$MAIN.:E05TSI                                WED 07/30/97 04:25 Page:1
        1        1        /*M* PSA$MAIN  Main STATS modules                                             */
        2        2        /*T***********************************************************/
        3        3        /*T*                                                         */
        4        4        /*T* Copyright (c) Bull HN Information Systems Inc., 1997    */
        5        5        /*T*                                                         */
        6        6        /*T***********************************************************/
        7        7        /*X* PLM=3,SQB,AND,ENI=0,SDI=3,CSI=0,ECI=0,IND=0,IAD=3,MOC,MEC,CLM=0,MCL=1,EXM=0,NTB
                 7         */
        8        8        PSA$MAIN: PROC MAIN;
        9        9
       10       10        %INCLUDE PS_DATA_R;
       11     5306        %INCLUDE PS_PERR_C;
       12     5337
       13     5338    1   DCL PSE$GRIPE ENTRY (5);
       14     5339    1   DCL PSA$INIT ENTRY;
       15     5340    1   DCL PSA$RESTART ENTRY;
       16     5341    1   DCL PSA$INPUT ENTRY;
       17     5342    1   DCL PSA$DOIT ENTRY;
       18     5343
       19     5344    1      CALL PSA$INIT;
       20     5345
       21     5346    1      REMEMBER RESTART IN PS_BAILOUT;
       22     5347
       23     5348    2   RESTART: DO FOREVER;
       24     5349
       25     5350    2         CALL PSA$RESTART;
       26     5351
       27     5352    2         CALL PSA$INPUT;
       28     5353
       29     5354    2         CALL PSA$DOIT;
       30     5355
       31     5356    2      END;
       32     5357
       33     5358    1   END PSA$MAIN;
       34     5359        %EOD;

PL6.E3A0      #001=PSA$MAIN File=PSA$MAIN.:E05TSI                                WED 07/30/97 04:25 Page:2
--  Include file information  --

   PS_PERR_C.:E05TOU  is referenced.
   KL_MACRO_C.:E05TOU  is referenced.
   KL_AFCN_C.:E05TOU  is referenced.
   P_FEP_M.:E05TOU  is referenced.
   K_ID_E.:E05TOU  is referenced.
   XU_FORMAT_C.:E05TOU  is referenced.
   PM_BUCKET_C.:E05TOU  is referenced.
   PS_SUBS_C.:E05TOU  is referenced.
   PS_DATA_R.:E05TOU  cannot be made into a system file and is referenced.
   B$JIT_C.:E05TOU  was found in the system file and is never referenced.
   CP_6_C.:E05TOU  was found in the system file and is never referenced.
      No diagnostics issued in procedure PSA$MAIN.

   Procedure PSA$MAIN requires 18 words for executable code.
   Procedure PSA$MAIN requires 4 words of local(AUTO) storage.

PL6.E3A0      #001=PSA$MAIN File=PSA$MAIN.:E05TSI                                WED 07/30/97 04:25 Page:3

 Object Unit name= PSA$MAIN                                   File name= PSA$MAIN.:E05TOU
 UTS= JUL 30 '97 04:25:36.76 WED                              Compiler= PL-6/E31         Sev=      00
 SharedLib= :SHARED_SYSTEM                                    Alt SharedLib=


    ****  Control sections  ****

 Sect   Type Bound  Init  Size OctSiz  Section name(segment info)
    0   DCB   even  none     0      0  M$LO
    1   DCB   even  none     0      0  M$DO
    2   DCB   even  none     0      0  M$SI
    3   DCB   even  none     0      0  F$LOG
    4   DCB   even  none     0      0  M$ME
    5   DCB   even  none     0      0  M$HLPCG
    6  RtLbCm even  none    30     36  PS_FDS
    7  RtLbCm even  none    32     40  PS_SELECT_RPN
    8  RtLbCm even  none    17     21  PS_STATS_RPN
    9  RtLbCm even  none    34     42  PS_STATS_BUCKET
   10   Proc  even  none    18     22  PSA$MAIN

    ****  Entry defs  ****

                              Check   Calling
                             calling  sequence
  Sect OctLoc Primary Altret sequence   type   Parms  Name
    10      0   yes            yes      Main       0  PSA$MAIN
PL6.E3A0      #001=PSA$MAIN File=PSA$MAIN.:E05TSI                                WED 07/30/97 04:25 Page:4

  ****  Entry refs  ****

         Check        Calling
        calling       sequence
Altret sequence SRef   type   Args  Name
         yes           Std       0 PSA$INIT
         yes           Std       0 PSA$RESTART
         yes           Std       0 PSA$INPUT
         yes           Std       0 PSA$DOIT
                       nStd      0 X66_MAUTO
                       Std       0 B_CONSPOOL_D

  ****  Data refs  ****

  Flags:  r = read only, s = secondary
Flgs Name                             Flgs Name                             Flgs Name
     M$LO                                  M$DO                                  M$SI
     F$LOG                                 M$ME                                  M$HLPCG
     PS_BAILOUT                            PS_BUFFER                             PS_STATS$
     B_VECTNIL

  ****  Segment refs  ****

  Flags:  r = read only, s = secondary
Flgs Name                             Flgs Name                             Flgs Name
     NULLSID                               ISSID
PL6.E3A0      #001=PSA$MAIN File=PSA$MAIN.:E05TSI                                WED 07/30/97 04:25 Page:5


        1        1        /*M* PSA$MAIN  Main STATS modules                                             */
        2        2        /*T***********************************************************/
        3        3        /*T*                                                         */
        4        4        /*T* Copyright (c) Bull HN Information Systems Inc., 1997    */
        5        5        /*T*                                                         */
        6        6        /*T***********************************************************/
        7        7       /*X* PLM=3,SQB,AND,ENI=0,SDI=3,CSI=0,ECI=0,IND=0,IAD=3,MOC,MEC,CLM=0,MCL=1,EXM=0,NTB
                 7         */
        8        8        PSA$MAIN: PROC MAIN;

      8 10 000000   000000 700200 xent  PSA$MAIN     TSX0  ! X66_MAUTO
        10 000001   000004 000000                    ZERO    4,0

        9        9
       10       10        %INCLUDE PS_DATA_R;
       11     5306        %INCLUDE PS_PERR_C;
       12     5337
       13     5338    1   DCL PSE$GRIPE ENTRY (5);
       14     5339    1   DCL PSA$INIT ENTRY;
       15     5340    1   DCL PSA$RESTART ENTRY;
       16     5341    1   DCL PSA$INPUT ENTRY;
       17     5342    1   DCL PSA$DOIT ENTRY;
       18     5343
       19     5344    1      CALL PSA$INIT;

   5344 10 000002   000002 631400 xsym               EPPR1   B_VECTNIL+2
        10 000003   000000 701000 xent               TSX1    PSA$INIT
        10 000004   000000 011000                    NOP     0

       20     5345
       21     5346    1      REMEMBER RESTART IN PS_BAILOUT;

   5346 10 000005   000010 635000 10                 EAA     RESTART
        10 000006   000000 452400 xsym               STP2    PS_BAILOUT
        10 000007   000001 755000 xsym               STA     PS_BAILOUT+1

PL6.E3A0      #001=PSA$MAIN File=PSA$MAIN.:E05TSI                                WED 07/30/97 04:25 Page:6
       22     5347
       23     5348    2   RESTART: DO FOREVER;

   5348 10 000010                       RESTART      null
       24     5349
       25     5350    2         CALL PSA$RESTART;

   5350 10 000010   000002 631400 xsym               EPPR1   B_VECTNIL+2
        10 000011   000000 701000 xent               TSX1    PSA$RESTART
        10 000012   000000 011000                    NOP     0

       26     5351
       27     5352    2         CALL PSA$INPUT;

   5352 10 000013   000002 631400 xsym               EPPR1   B_VECTNIL+2
        10 000014   000000 701000 xent               TSX1    PSA$INPUT
        10 000015   000000 011000                    NOP     0

       28     5353
       29     5354    2         CALL PSA$DOIT;

   5354 10 000016   000002 631400 xsym               EPPR1   B_VECTNIL+2
        10 000017   000000 701000 xent               TSX1    PSA$DOIT
        10 000020   000000 011000                    NOP     0

       30     5355
       31     5356    2      END;

   5356 10 000021   000010 710000 10                 TRA     RESTART
       32     5357
       33     5358    1   END PSA$MAIN;
       34     5359        %EOD;

PL6.E3A0      #001=PSA$MAIN File=PSA$MAIN.:E05TSI                                WED 07/30/97 04:25 Page:7
--  Include file information  --

   PS_PERR_C.:E05TOU  is referenced.
   KL_MACRO_C.:E05TOU  is referenced.
   KL_AFCN_C.:E05TOU  is referenced.
   P_FEP_M.:E05TOU  is referenced.
   K_ID_E.:E05TOU  is referenced.
   XU_FORMAT_C.:E05TOU  is referenced.
   PM_BUCKET_C.:E05TOU  is referenced.
   PS_SUBS_C.:E05TOU  is referenced.
   PS_DATA_R.:E05TOU  cannot be made into a system file and is referenced.
   B$JIT_C.:E05TOU  was found in the system file and is never referenced.
   CP_6_C.:E05TOU  was found in the system file and is never referenced.
      No diagnostics issued in procedure PSA$MAIN.
PL6.E3A0      #001=PSA$MAIN File=PSA$MAIN.:E05TSI                                WED 07/30/97 04:25 Page:8

 **** Variables and constants ****

  ****  SYMREF variables  ****

  ****  Scalars and arrays  ****
OctLoc.c.b A Datatyp(siz) R M Lvl/name                 OctLoc.c.b A Datatyp(siz) R M Lvl/name

     0-0-0/d REMB        r     1 PS_BAILOUT                 0-0-0/c CHAR(140)   r     1 PS_BUFFER
     0-0-0/w PTR         r     1 PS_STATS$

  ****  BASED and DCB variables  ****

  ****  Scalars and arrays  ****
OctLoc.c.b A Datatyp(siz) R M Lvl/name                 OctLoc.c.b A Datatyp(siz) R M Lvl/name

     0-0-0N  NULL        r     1 M$LO                       0-0-0/c ASTR(9)     r     1 TEXTC


   Procedure PSA$MAIN requires 18 words for executable code.
   Procedure PSA$MAIN requires 4 words of local(AUTO) storage.
PL6.E3A0      #001=PSA$MAIN File=PSA$MAIN.:E05TSI                                WED 07/30/97 04:25 Page:9
          *** CROSS REFERENCE LISTING ***
**     DENOTES     IDENTIFIER DEFINITION
<<                 IDENTIFIER'S VALUE SET
>>                 IDENTIFIER'S VALUE USED
<>                 IDENTIFIER SET AND/OR USED
--                 IDENTIFIER REFERENCED
PL6.E3A0      #001=PSA$MAIN File=PSA$MAIN.:E05TSI                                WED 07/30/97 04:25 Page:10
          MINI XREF LISTING

PSA$DOIT
      5342**DCL-ENT  5354--CALL
PSA$INIT
      5339**DCL-ENT  5344--CALL
PSA$INPUT
      5341**DCL-ENT  5352--CALL
PSA$RESTART
      5340**DCL-ENT  5350--CALL
PS_BAILOUT
      4839**DCL      5346<<REMEMBR
PS_BUFFER
      4841**DCL      4876--DCLINIT  4878--DCLINIT
PS_COLLECT.CALCNT
      4996**DCL      4996--REDEF
PS_COLLECT.USRSRV
      4993**DCL      4994--REDEF
PS_HLPCGBUF.DSPMSK
      5253**DCL      5259--REDEF
PS_HLPCGBUF.SLCMSK
      5294**DCL      5301--REDEF
PS_OLD_COLLECT.CALCNT
      5000**DCL      5001--REDEF
PS_OLD_COLLECT.USRSRV
      4998**DCL      4998--REDEF
PS_STATS$
      5002**DCL      5004--IMP-PTR
RESTART
      5348**LABEL    5346--REMEMBR
TEXTC.LEN
      5006**DCL      5006--IMP-SIZ

