PL6.E3A0      #003=PSA$BREAK File=PSA$MAIN.:E05TSI                               WED 07/30/97 04:29 Page:295
     1870        1        /*T***********************************************************/
     1871        2        /*T*                                                         */
     1872        3        /*T* Copyright (c) Bull HN Information Systems Inc., 1997    */
     1873        4        /*T*                                                         */
     1874        5        /*T***********************************************************/
     1875        6        PSA$BREAK: PROC ASYNC;
     1876        7        %INCLUDE CP_6;
     1877       88        %INCLUDE CP_6_SUBS;
     1878      628        %INCLUDE PS_DATA_R;
     1879     5924        %INCLUDE PS_PERR_C;
     1880     5955
     1881     5956
     1882     5957        %B$TCB (STCLASS="BASED(B$TCB$)");
     1883     5960
     1884     5961        %B$EXCFR;
     1885     5979
     1886     5980
     1887     5981        %FPT_ALIB (FPTN=DUMP_THE_TCB,
     1888     5982         LIBNAME=DELTA,
     1889     5983         CMD=DUMP_TCB,
     1890     5984         DLIB=YES,
     1891     5985         RETRN=YES);
     1892     6002
     1893     6003
     1894     6004        %FPT_TRMPRG (FPTN=PURGE_BREAKS,
     1895     6005         RSTBRK=YES);
     1896     6034
     1897     6035
     1898     6036        %VLP_NAME (FPTN=DELTA, NAME='DELTA');
     1899     6063
     1900     6064    1   DCL DUMP_TCB CHAR (0) CONSTANT INIT ('DUMP $LS15->0 ''TCB after trap''');
     1901     6065    1   DCL B$TCB$ PTR SYMREF;
     1902     6066    1   DCL TRAP_IN_PROGRESS LOGICAL STATIC INIT (%NO#);
     1903     6067    1   DCL TEMP_ERRCODE BIT(36) ALIGNED;
     1904     6068    1   DCL PSE$GRIPE ENTRY (5); /* Gripe about BREAK */
     1905     6069
     1906     6070    1      CALL M$TRMPRG (PURGE_BREAKS);
PL6.E3A0      #003=PSA$BREAK File=PSA$MAIN.:E05TSI                               WED 07/30/97 04:29 Page:296
     1907     6071
     1908     6072    1      UNWIND TO PS_BAILOUT;
     1909     6073
     1910     6074        %EJECT;
PL6.E3A0      #003=PSA$BREAK File=PSA$MAIN.:E05TSI                               WED 07/30/97 04:29 Page:297
     1911     6075    1   PSA$TRAPPED: ENTRY ASYNC;
     1912     6076
     1913     6077    2      DO INHIBIT;
     1914     6078
     1915     6079    2         IF TRAP_IN_PROGRESS
     1916     6080    2         THEN
     1917     6081    2         CALL M$MERCS;
     1918     6082
     1919     6083    2         TRAP_IN_PROGRESS = %YES#;
     1920     6084
     1921     6085    2      END;
     1922     6086
     1923     6087    1      CALL PSE$GRIPE (B$TCB.STK$ -> B$EXCFR.ERR, SERIOUS#);
     1924     6088
     1925     6089    1      CALL M$ALIB (DUMP_THE_TCB) ALTRET (ALIB_TROUBLE);
     1926     6090
     1927     6091    1   ALIB_TROUBLE:
     1928     6092
     1929     6093    1      CALL M$CLRSTK;
     1930     6094
     1931     6095    1      TRAP_IN_PROGRESS = %NO#;
     1932     6096
     1933     6097    1      UNWIND TO PS_BAILOUT;
     1934     6098
     1935     6099    1   END PSA$BREAK;

PL6.E3A0      #003=PSA$BREAK File=PSA$MAIN.:E05TSI                               WED 07/30/97 04:29 Page:298
--  Include file information  --

   PS_PERR_C.:E05TOU  is referenced.
   KL_MACRO_C.:E05TOU  is referenced.
   KL_AFCN_C.:E05TOU  is referenced.
   P_FEP_M.:E05TOU  is referenced.
   K_ID_E.:E05TOU  is referenced.
   XU_FORMAT_C.:E05TOU  is referenced.
   PM_BUCKET_C.:E05TOU  is referenced.
   PS_SUBS_C.:E05TOU  is referenced.
   PS_DATA_R.:E05TOU  cannot be made into a system file and is referenced.
   CP_6_SUBS.:E05TOU  is referenced.
   CP_6.:E05TOU  cannot be made into a system file and is referenced.
   B$JIT_C.:E05TOU  was found in the system file and is never referenced.
   CP_6_C.:E05TOU  was found in the system file and is referenced.
      No diagnostics issued in procedure PSA$BREAK.

   Procedure PSA$BREAK requires 36 words for executable code.
   Procedure PSA$BREAK requires 8 words of local(AUTO) storage.

    No errors detected in file PSA$MAIN.:E05TSI    .

PL6.E3A0      #003=PSA$BREAK File=PSA$MAIN.:E05TSI                               WED 07/30/97 04:29 Page:299

 Object Unit name= PSA$BREAK                                  File name= PSA$MAIN.:E05TOU
 UTS= JUL 30 '97 04:29:17.72 WED                              Compiler= PL-6/E31         Sev=      00
 SharedLib= :SHARED_SYSTEM                                    Alt SharedLib=


    ****  Control sections  ****

 Sect   Type Bound  Init  Size OctSiz  Section name(segment info)
    0   DCB   even  none     0      0  M$UC
    1   DCB   even  none     0      0  M$LO
    2   DCB   even  none     0      0  M$DO
    3   DCB   even  none     0      0  M$SI
    4   DCB   even  none     0      0  F$LOG
    5   DCB   even  none     0      0  M$ME
    6   DCB   even  none     0      0  M$HLPCG
    7  RtLbCm even  none    30     36  PS_FDS
    8  RtLbCm even  none    32     40  PS_SELECT_RPN
    9  RtLbCm even  none    17     21  PS_STATS_RPN
   10  RtLbCm even  none    34     42  PS_STATS_BUCKET
   11   Data  even  none    21     25  PSA$BREAK
   12  RoData even  UTS      8     10  PSA$BREAK
   13   Proc  even  none    36     44  PSA$BREAK
   14  RoData even  none     1      1  PSA$BREAK

    ****  Entry defs  ****

                              Check   Calling
                             calling  sequence
  Sect OctLoc Primary Altret sequence   type   Parms  Name
    13      0   yes            yes     Async       0  PSA$BREAK
    13     10                  yes     Async       0  PSA$TRAPPED
PL6.E3A0      #003=PSA$BREAK File=PSA$MAIN.:E05TSI                               WED 07/30/97 04:29 Page:300

  ****  Entry refs  ****

         Check        Calling
        calling       sequence
Altret sequence SRef   type   Args  Name
         yes           Std       5 PSE$GRIPE
                       nStd      0 X66_AAUTO
                       nStd      0 X66_AAUNWIND
                       Std       0 B_CONSPOOL_D

  ****  Data refs  ****

  Flags:  r = read only, s = secondary
Flgs Name                             Flgs Name                             Flgs Name
     M$UC                                  M$LO                                  M$DO
     M$SI                                  F$LOG                                 M$ME
     M$HLPCG                               PS_BAILOUT                            PS_BUFFER
     PS_STATS$                             B$TCB$                                B_VECTNIL

  ****  Segment refs  ****

  Flags:  r = read only, s = secondary
Flgs Name                             Flgs Name                             Flgs Name
     NULLSID                               ISSID
PL6.E3A0      #003=PSA$BREAK File=PSA$MAIN.:E05TSI                               WED 07/30/97 04:29 Page:301


     1870        1        /*T***********************************************************/
     1871        2        /*T*                                                         */
     1872        3        /*T* Copyright (c) Bull HN Information Systems Inc., 1997    */
     1873        4        /*T*                                                         */
     1874        5        /*T***********************************************************/
     1875        6        PSA$BREAK: PROC ASYNC;

      6 13 000000   000000 700200 xent  PSA$BREAK    TSX0  ! X66_AAUTO
        13 000001   000010 000000                    ZERO    8,0

     1876        7        %INCLUDE CP_6;
     1877       88        %INCLUDE CP_6_SUBS;
     1878      628        %INCLUDE PS_DATA_R;
     1879     5924        %INCLUDE PS_PERR_C;
     1880     5955
     1881     5956
     1882     5957        %B$TCB (STCLASS="BASED(B$TCB$)");
     1883     5960
     1884     5961        %B$EXCFR;
     1885     5979
     1886     5980
     1887     5981        %FPT_ALIB (FPTN=DUMP_THE_TCB,
     1888     5982         LIBNAME=DELTA,
     1889     5983         CMD=DUMP_TCB,
     1890     5984         DLIB=YES,
     1891     5985         RETRN=YES);
     1892     6002
     1893     6003
     1894     6004        %FPT_TRMPRG (FPTN=PURGE_BREAKS,
     1895     6005         RSTBRK=YES);
     1896     6034
     1897     6035
     1898     6036        %VLP_NAME (FPTN=DELTA, NAME='DELTA');
     1899     6063
     1900     6064    1   DCL DUMP_TCB CHAR (0) CONSTANT INIT ('DUMP $LS15->0 ''TCB after trap''');
     1901     6065    1   DCL B$TCB$ PTR SYMREF;
PL6.E3A0      #003=PSA$BREAK File=PSA$MAIN.:E05TSI                               WED 07/30/97 04:29 Page:302
     1902     6066    1   DCL TRAP_IN_PROGRESS LOGICAL STATIC INIT (%NO#);
     1903     6067    1   DCL TEMP_ERRCODE BIT(36) ALIGNED;
     1904     6068    1   DCL PSE$GRIPE ENTRY (5); /* Gripe about BREAK */
     1905     6069
     1906     6070    1      CALL M$TRMPRG (PURGE_BREAKS);

   6070 13 000002   000012 630400 11                 EPPR0   PURGE_BREAKS
        13 000003   160004 713400                    CLIMB   57348
        13 000004   400400 401760                    pmme    nvectors=2

     1907     6071
     1908     6072    1      UNWIND TO PS_BAILOUT;

   6072 13 000005   000000 237200 xsym               LDAQ  ! PS_BAILOUT
        13 000006   000000 700200 xent               TSX0  ! X66_AAUNWIND
        13 000007   000000 000200                    ZERO    0,128

     1909     6073
     1910     6074        %EJECT;
PL6.E3A0      #003=PSA$BREAK File=PSA$MAIN.:E05TSI                               WED 07/30/97 04:29 Page:303
     1911     6075    1   PSA$TRAPPED: ENTRY ASYNC;

   6075 13 000010   000000 700200 xent  PSA$TRAPPED  TSX0  ! X66_AAUTO
        13 000011   000010 000000                    ZERO    8,0

     1912     6076
     1913     6077    2      DO INHIBIT;

     1914     6078
     1915     6079    2         IF TRAP_IN_PROGRESS

   6079 13 000012   000024 234200 11                 SZN   ! TRAP_IN_PROGRESS
        13 000013   000016 605200 13                 TPL   ! s:6083

     1916     6080    2         THEN
     1917     6081    2         CALL M$MERCS;

   6081 13 000014   010014 713600                    CLIMB ! 4108
        13 000015   000000 401760                    pmme    nvectors=0

     1918     6082
     1919     6083    2         TRAP_IN_PROGRESS = %YES#;

   6083 13 000016   400000 236203                    LDQ   ! -131072,DU
        13 000017   000024 756200 11                 STQ   ! TRAP_IN_PROGRESS

     1920     6084
     1921     6085    2      END;

     1922     6086
     1923     6087    1      CALL PSE$GRIPE (B$TCB.STK$ -> B$EXCFR.ERR, SERIOUS#);

   6087 13 000020   000000 470400 xsym               LDP0    B$TCB$
        13 000021   000001 471500                    LDP1    1,,PR0
        13 000022   000000 236000 14                 LDQ     0
        13 000023   200007 756100                    STQ     7,,AUTO
        13 000024   100102 633500                    EPPR3   66,,PR1
PL6.E3A0      #003=PSA$BREAK File=PSA$MAIN.:E05TSI                               WED 07/30/97 04:29 Page:304
        13 000025   200006 453500                    STP3    6,,AUTO
        13 000026   200006 630500                    EPPR0   6,,AUTO
        13 000027   000020 631400 xsym               EPPR1   B_VECTNIL+16
        13 000030   000000 701000 xent               TSX1    PSE$GRIPE
        13 000031   000000 011000                    NOP     0

     1924     6088
     1925     6089    1      CALL M$ALIB (DUMP_THE_TCB) ALTRET (ALIB_TROUBLE);

   6089 13 000032   000000 630400 11                 EPPR0   DUMP_THE_TCB
        13 000033   400007 713400                    CLIMB   alt,+7
        13 000034   401400 401760                    pmme    nvectors=4
        13 000035   000036 702000 13                 TSX2    ALIB_TROUBLE

     1926     6090
     1927     6091    1   ALIB_TROUBLE:
     1928     6092
     1929     6093    1      CALL M$CLRSTK;

   6093 13 000036   010013 713400       ALIB_TROUBLE CLIMB   4107
        13 000037   000000 401760                    pmme    nvectors=0

     1930     6094
     1931     6095    1      TRAP_IN_PROGRESS = %NO#;

   6095 13 000040   000024 450000 11                 STZ     TRAP_IN_PROGRESS

     1932     6096
     1933     6097    1      UNWIND TO PS_BAILOUT;

   6097 13 000041   000000 237200 xsym               LDAQ  ! PS_BAILOUT
        13 000042   000000 700200 xent               TSX0  ! X66_AAUNWIND
        13 000043   000000 000200                    ZERO    0,128
     1934     6098
     1935     6099    1   END PSA$BREAK;

PL6.E3A0      #003=PSA$BREAK File=PSA$MAIN.:E05TSI                               WED 07/30/97 04:29 Page:305
--  Include file information  --

   PS_PERR_C.:E05TOU  is referenced.
   KL_MACRO_C.:E05TOU  is referenced.
   KL_AFCN_C.:E05TOU  is referenced.
   P_FEP_M.:E05TOU  is referenced.
   K_ID_E.:E05TOU  is referenced.
   XU_FORMAT_C.:E05TOU  is referenced.
   PM_BUCKET_C.:E05TOU  is referenced.
   PS_SUBS_C.:E05TOU  is referenced.
   PS_DATA_R.:E05TOU  cannot be made into a system file and is referenced.
   CP_6_SUBS.:E05TOU  is referenced.
   CP_6.:E05TOU  cannot be made into a system file and is referenced.
   B$JIT_C.:E05TOU  was found in the system file and is never referenced.
   CP_6_C.:E05TOU  was found in the system file and is referenced.
      No diagnostics issued in procedure PSA$BREAK.
PL6.E3A0      #003=PSA$BREAK File=PSA$MAIN.:E05TSI                               WED 07/30/97 04:29 Page:306

 **** Variables and constants ****

  ****  Section 011  Data  PSA$BREAK

  ****  Scalars and arrays  ****
OctLoc.c.b A Datatyp(siz) R M Lvl/name                 OctLoc.c.b A Datatyp(siz) R M Lvl/name

    22-0-0/c STRC(54)    r     1 DELTA                      0-0-0/d STRC(360)   r     1 DUMP_THE_TCB
    12-0-0/d STRC(288)   r     1 PURGE_BREAKS              24-0-0/b BIT         r     1 TRAP_IN_PROGRESS

  ****  Section 012 RoData PSA$BREAK

  ****  Scalars and arrays  ****
OctLoc.c.b A Datatyp(siz) R M Lvl/name                 OctLoc.c.b A Datatyp(siz) R M Lvl/name

     0-0-0/c CHAR(30)    r     1 DUMP_TCB

  ****  SYMREF variables  ****

  ****  Scalars and arrays  ****
OctLoc.c.b A Datatyp(siz) R M Lvl/name                 OctLoc.c.b A Datatyp(siz) R M Lvl/name

     0-0-0/w PTR         r     1 B$TCB$                     0-0-0/d REMB        r     1 PS_BAILOUT
     0-0-0/c CHAR(140)   r     1 PS_BUFFER                  0-0-0/w PTR         r     1 PS_STATS$

  ****  BASED and DCB variables  ****

  ****  Scalars and arrays  ****
OctLoc.c.b A Datatyp(siz) R M Lvl/name                 OctLoc.c.b A Datatyp(siz) R M Lvl/name

     0-0-0/w STRC(2448)  r     1 B$EXCFR                    0-0-0/w STRC(144)   r     1 B$TCB
     0-0-0N  NULL        r     1 M$LO                       0-0-0N  NULL        r     1 M$UC
     0-0-0/c ASTR(9)     r     1 TEXTC


   Procedure PSA$BREAK requires 36 words for executable code.
PL6.E3A0      #003=PSA$BREAK File=PSA$MAIN.:E05TSI                               WED 07/30/97 04:29 Page:307
   Procedure PSA$BREAK requires 8 words of local(AUTO) storage.

    No errors detected in file PSA$MAIN.:E05TSI    .
PL6.E3A0      #003=PSA$BREAK File=PSA$MAIN.:E05TSI                               WED 07/30/97 04:29 Page:308
          *** CROSS REFERENCE LISTING ***
**     DENOTES     IDENTIFIER DEFINITION
<<                 IDENTIFIER'S VALUE SET
>>                 IDENTIFIER'S VALUE USED
<>                 IDENTIFIER SET AND/OR USED
--                 IDENTIFIER REFERENCED
PL6.E3A0      #003=PSA$BREAK File=PSA$MAIN.:E05TSI                               WED 07/30/97 04:29 Page:309
          MINI XREF LISTING

ALIB_TROUBLE
      6093**LABEL    6089--CALLALT
B$EXCFR.ASL
      5962**DCL      5962--REDEF
B$EXCFR.ERR
      5976**DCL      6087<>CALL
B$EXCFR.ERR.ERR#
      5976**DCL      5976--REDEF
B$EXCFR.EVID
      5975**DCL      5975--REDEF    5976--REDEF
B$EXCFR.IR
      5963**DCL      5963--REDEF
B$EXCFR.PREVSZ
      5962**DCL      5962--REDEF
B$EXCFR.SUBC
      5974**DCL      5974--REDEF    5975--REDEF    5975--REDEF
B$TCB.STK$
      5958**DCL      6087>>CALL
B$TCB$
      6065**DCL      5958--IMP-PTR  6087>>CALL
DELTA
      6061**DCL      5996--DCLINIT
DUMP_TCB
      6064**DCL      5996--DCLINIT
DUMP_THE_TCB
      5996**DCL      6089<>CALL
DUMP_THE_TCB.V
      5997**DCL      5997--DCLINIT
M$ALIB
        29**DCL-ENT  6089--CALL
M$CLRSTK
        74**DCL-ENT  6093--CALL
PL6.E3A0      #003=PSA$BREAK File=PSA$MAIN.:E05TSI                               WED 07/30/97 04:29 Page:310
M$MERCS
        73**DCL-ENT  6081--CALL
M$TRMPRG
        41**DCL-ENT  6070--CALL
PSE$GRIPE
      6068**DCL-ENT  6087--CALL
PS_BAILOUT
      5457**DCL      6072>>UNWIND   6097>>UNWIND
PS_BUFFER
      5459**DCL      5494--DCLINIT  5496--DCLINIT
PS_COLLECT.CALCNT
      5614**DCL      5614--REDEF
PS_COLLECT.USRSRV
      5611**DCL      5612--REDEF
PS_HLPCGBUF.DSPMSK
      5871**DCL      5877--REDEF
PS_HLPCGBUF.SLCMSK
      5912**DCL      5919--REDEF
PS_OLD_COLLECT.CALCNT
      5618**DCL      5619--REDEF
PS_OLD_COLLECT.USRSRV
      5616**DCL      5616--REDEF
PS_STATS$
      5620**DCL      5622--IMP-PTR
PURGE_BREAKS
      6021**DCL      6070<>CALL
PURGE_BREAKS.V
      6028**DCL      6023--DCLINIT
PURGE_BREAKS.V.CTLFLG.RSTBRK#
      6029**DCL      6030--REDEF
TEXTC.LEN
      5624**DCL      5624--IMP-SIZ
TRAP_IN_PROGRESS
      6066**DCL      6079>>IF       6083<<ASSIGN   6095<<ASSIGN
