PL6.E3A0      #002=PSD$READ_IN File=PSD$DISP.:E05TSI                             WED 07/30/97 04:28 Page:168
     1032        1        /*T***********************************************************/
     1033        2        /*T*                                                         */
     1034        3        /*T* Copyright (c) Bull HN Information Systems Inc., 1997    */
     1035        4        /*T*                                                         */
     1036        5        /*T***********************************************************/
     1037        6        /*X* PLM=5,IND=5,CTI=5,DCI=5,SQB=Y,PRB=Y,DTI=0,ENI=0,AND=Y,ECI=0,CSI=0,THI=0,SDI=5,M
                 6        OC=Y,CRT=1,CLM=5,DMR */
     1038        7        PSD$READ_IN: PROC (POINTER$, ACTUAL) ALTRET;
     1039        8        %INCLUDE CP_6;
     1040       89        %INCLUDE CP_6_SUBS;
     1041      629        %INCLUDE PS_DATA_R;
     1042     5925        %INCLUDE PS_PERR_C;
     1043     5956
     1044     5957        %B$TCB;
     1045     5960
     1046     5961        %B$EXCFR;
     1047     5979        %INCLUDE B_ERRORS_C;
     1048     7106
     1049     7107        %FPT_GETPM;
     1050     7120
     1051     7121        %FPT_GETMOUSE;
     1052     7135
     1053     7136        %FPT_READ (DCB=F$LOG,
     1054     7137         KEY=PS_LOGFILE_KEY,
     1055     7138         KEYR=YES,
     1056     7139         KEYS=NO);
     1057     7178
     1058     7179        %FPT_PRECORD (DCB=F$LOG,
     1059     7180         STCLASS=CONSTANT,
     1060     7181         N=-1);
     1061     7202
     1062     7203
     1063     7204
     1064     7205    1   DCL B$JIT$ PTR SYMREF;
     1065     7206 S      %INCLUDE B$JIT_C;
     1066     7207         %B$JIT0;
     1067     7296         %U$JIT1X;
PL6.E3A0      #002=PSD$READ_IN File=PSD$DISP.:E05TSI                             WED 07/30/97 04:28 Page:169
     1068     7299         %M$JIT2X;
     1069     7302         %F$JIT3X;
     1070     7305         %S$JIT4X;
     1071     7308         %J$JIT5X;
     1072     7311         %A$JIT6X;
     1073     7314
     1074     7315        %F$DCB;
     1075     7372
     1076     7373        %FPT_OPEN (FPTN=OPEN_HLPCG,
     1077     7374         STCLASS=CONSTANT,
     1078     7375         ASN=COMGROUP,
     1079     7376         DCB=M$HLPCG,
     1080     7377         NAME=NAME_HLPCG,
     1081     7378         ACCT=ACCT_HLPCG,
     1082     7379         REASSIGN=YES,
     1083     7380         SETSTA=SETSTA_ST,
     1084     7381         FUN=UPDATE);
     1085     7490
     1086     7491        %VLP_NAME (FPTN=NAME_HLPCG,
     1087     7492         STCLASS=CONSTANT,
     1088     7493         NAME='HLPCG');
     1089     7520
     1090     7521        %VLP_ACCT (FPTN=ACCT_HLPCG,
     1091     7522         STCLASS=CONSTANT,
     1092     7523         ACCT=':SYS');
     1093     7536
     1094     7537        %VLP_SETSTA (FPTN=SETSTA_ST,
     1095     7538         STCLASS=STATIC,
     1096     7539         DIRONLY=YES,
     1097     7540         WAS=NO);
     1098     7568
     1099     7569        %VLP_STATION (FPTN=HLP_STA,
     1100     7570         STCLASS=CONSTANT,
     1101     7571         STATION='HLPADMIN');
     1102     7598
     1103     7599        %FPT_WRITE (FPTN=WRITE_STATSRQS,
     1104     7600         STCLASS=STATIC,
PL6.E3A0      #002=PSD$READ_IN File=PSD$DISP.:E05TSI                             WED 07/30/97 04:28 Page:170
     1105     7601         BUF=KL_REQSTATS,
     1106     7602         DCB=M$HLPCG,
     1107     7603         STATION=HLP_STA);
     1108     7634
     1109     7635        %FPT_CLOSE (FPTN=CLOSE_HLPCG,
     1110     7636         STCLASS=CONSTANT,
     1111     7637         DCB=M$HLPCG,
     1112     7638         DISP=SAVE);
     1113     7680
     1114     7681        %FPT_READ (FPTN=READ_HLPCG,
     1115     7682         STCLASS=CONSTANT,
     1116     7683         DCB=M$HLPCG,
     1117     7684         BUF=PS_HLPCGBUF,
     1118     7685         WAIT=NO,
     1119     7686         EVENT=1);
     1120     7725
     1121     7726        %KL_REQSTATS(STCLASS=STATIC);
     1122     8019
     1123     8020        %PS_FEPMASK (NAME=MONMSK, STCLASS=CONSTANT, MONITOR=YES);
     1124     8086        %FPT_EVENT (FPTN=TAKE_CONTROL,
     1125     8087         STCLASS=STATIC,
     1126     8088         UENTRY=PSF$FEPSTATS);
     1127     8102
     1128     8103        %FPT_MONINFO (MONINFO=VLR_MONINFO,
     1129     8104         STCLASS=CONSTANT);
     1130     8119        %VLR_MONINFO;
     1131     8137
     1132     8138        %FPT_WAIT(UNITS=12);
     1133     8152
     1134     8153    1   DCL PSF$FEPSTATS ENTRY ASYNC;
     1135     8154    1   DCL FEPNO UBIN;
     1136     8155
     1137     8156    1   DCL POINTER$ PTR;
     1138     8157    1   DCL ACTUAL UBIN;
     1139     8158    1   DCL ERR UBIN WORD;
     1140     8159    1   DCL B$TCB$ PTR SYMREF;
     1141     8160    1   DCL PSE$ERRMSG ENTRY (5);
PL6.E3A0      #002=PSD$READ_IN File=PSD$DISP.:E05TSI                             WED 07/30/97 04:28 Page:171
     1142     8161    1   DCL PSE$GRIPE ENTRY (5);
     1143     8162        %EJECT;
PL6.E3A0      #002=PSD$READ_IN File=PSD$DISP.:E05TSI                             WED 07/30/97 04:28 Page:172
     1144     8163    1   MAKE_VECTOR: PROC (VECTOR_, POINTER$, WORD_COUNT);
     1145     8164
     1146     8165    2   DCL 1 VECTOR_,
     1147     8166    2            2 SIZE UBIN(20) UNAL,
     1148     8167    2            2 * BIT(16) UNAL,
     1149     8168    2            2 PTR$ PTR;
     1150     8169    2   DCL POINTER$ PTR;
     1151     8170    2   DCL WORD_COUNT UBIN;
     1152     8171
     1153     8172    2        VECTOR_.PTR$ = POINTER$;
     1154     8173
     1155     8174    2        VECTOR_.SIZE = (WORD_COUNT * 4) - 1;
     1156     8175
     1157     8176    2        RETURN;
     1158     8177
     1159     8178    2   END MAKE_VECTOR;
     1160     8179        %EJECT;
PL6.E3A0      #002=PSD$READ_IN File=PSD$DISP.:E05TSI                             WED 07/30/97 04:28 Page:173
     1161     8180        /* PSD$READ_IN procedure.                                           */
     1162     8181
     1163     8182    1        CALL MAKE_VECTOR (FPT_READ.BUF_, POINTER$, ACTUAL);
     1164     8183
     1165     8184
     1166     8185    1        ERR = 0;
     1167     8186
     1168     8187    1        CALL M$READ (FPT_READ) ALTRET (READ_ALTRET);
     1169     8188    1        PS_TAG = PS_LOGFILE_KEY.TAG;
     1170     8189    1        IF PS_LOGFILE_KEY.COUNT~=5
     1171     8190    1        THEN CALL PSE$ERRMSG (E$PS_BAD_FILE, SERIOUS#);
     1172     8191
     1173     8192    1        RETURN;
     1174     8193
     1175     8194    1   READ_ALTRET:
     1176     8195    1        ERR = B$TCB$ -> B$TCB.ALT$ -> B$EXCFR.ERR.CODE;
     1177     8196
     1178     8197    1        IF ERR = %E$LD
     1179     8198    1        THEN
     1180     8199    1             CALL M$PRECORD (FPT_PRECORD);
     1181     8200
     1182     8201    1        ALTRETURN;
     1183     8202
     1184     8203        %EJECT;
PL6.E3A0      #002=PSD$READ_IN File=PSD$DISP.:E05TSI                             WED 07/30/97 04:28 Page:174
     1185     8204    1   PSD$GET_PMDAT: ENTRY (POINTER$, ACTUAL) ALTRET;
     1186     8205
     1187     8206    1        CALL MAKE_VECTOR (FPT_GETPM.RESULTS_, POINTER$, ACTUAL);
     1188     8207
     1189     8208    1        CALL M$GETPM (FPT_GETPM) ALTRET (GLURP);
     1190     8209
     1191     8210    1        PS_TAG = 'D';
     1192     8211
     1193     8212    1        RETURN;
     1194     8213
     1195     8214        %SPACE 6;

     1196     8215    1   PSD$GET_MOUSE: ENTRY (POINTER$, ACTUAL) ALTRET;
     1197     8216
     1198     8217    1        CALL MAKE_VECTOR (FPT_GETMOUSE.RESULTS_, POINTER$, ACTUAL);
     1199     8218
     1200     8219    1        CALL M$GETMOUSE (FPT_GETMOUSE) ALTRET (GLURP);
     1201     8220
     1202     8221    1        PS_TAG = 'M';
     1203     8222
     1204     8223    1        RETURN;
     1205     8224
     1206     8225
     1207     8226    1   GLURP: /* ALTRETURN from here tells ATTACH to make buffer bigger
     1208     8227             and try again. */
     1209     8228    1        ALTRETURN;
     1210     8229        %EJECT;
PL6.E3A0      #002=PSD$READ_IN File=PSD$DISP.:E05TSI                             WED 07/30/97 04:28 Page:175
     1211     8230    1   PSD$GET_FEP: ENTRY (POINTER$, ACTUAL) ALTRET;
     1212     8231
     1213     8232    1        IF NOT DCBADDR(DCBNUM(M$HLPCG))->F$DCB.FCD#
     1214     8233    2        THEN DO;
     1215     8234    2             IF NOT B$JIT.PRIV.ACTIVE&%PR_PM#
     1216     8235    2             THEN CALL PSE$ERRMSG(E$PS_NEED_EXPM,SERIOUS#);
     1217     8236
     1218     8237    2             CALL BINCHAR(SETSTA_ST.MYSTATION#,B$JIT.SYSID);
     1219     8238    2             CALL INSERT(SETSTA_ST.MYSTATION#,0,2,'ST');
     1220     8239    2             CALL M$OPEN(OPEN_HLPCG) ALTRET (ERRMSG);
     1221     8240    2             CALL M$EVENT(TAKE_CONTROL) ALTRET(ERRMSG);
     1222     8241
     1223     8242    2             CALL M$MONINFO(FPT_MONINFO);
     1224     8243    2             PS_NUM_NODES = VLR_MONINFO.NUM_NODES;
     1225     8244
     1226     8245    2        END;
     1227     8246
     1228     8247    1        KL_REQSTATS.FNC = %IGA_REQSTATS;
     1229     8248    1        CALL BINCHAR(KL_REQSTATS.STATSSTA,B$JIT.SYSID);
     1230     8249    1        CALL INSERT(KL_REQSTATS.STATSSTA,0,2,'ST');
     1231     8250
     1232     8251    2        DO FEPNO = 1 TO PS_NUM_NODES;
     1233     8252
     1234     8253    2             IF PS_FEP_DISP_FLAGS.DISP (FEPNO)
     1235     8254    3                  OR PS_FEP_LOG_FLAGS.DISP (FEPNO) THEN DO;
     1236     8255    3   WRITE_IT: /* A convenient place for a breakpoint */
     1237     8256    3                  PS_NEED_READ_HLPCG = %YES#;
     1238     8257    3                  KL_REQSTATS.NODE_NUM = FEPNO;
     1239     8258    3   /*N* TEMP*/    CALL BINCHAR(KL_REQSTATS.FEPNAME, FEPNO);
     1240     8259
     1241     8260    3                  CALL COMPFLAGS(KL_REQSTATS.DSPMSK, PS_FEP_DISP_FLAGS.DISP(FEPNO),
     1242     8261    3                       PS_FEP_LOG_FLAGS.DISP(FEPNO));
     1243     8262    3                  CALL COMPFLAGS(KL_REQSTATS.SLCMSK, PS_FEP_DISP_FLAGS.SLCT(FEPNO),
     1244     8263    3                       PS_FEP_LOG_FLAGS.SLCT(FEPNO));
     1245     8264        /*N*  KLUDGE to get ALL handlers to return ALL stats.
     1246     8265              When all handlers honor and obey SLCT and DISP bits,
     1247     8266              this kludge can be removed.  ---gordon.
PL6.E3A0      #002=PSD$READ_IN File=PSD$DISP.:E05TSI                             WED 07/30/97 04:28 Page:176
     1248     8267        */
     1249     8268    3                  CALL COMPFLAGS ( KL_REQSTATS.DSPMSK, '037777777777'O, '000000000000'O
              8268                           ) ;
     1250     8269    3                  CALL COMPFLAGS ( KL_REQSTATS.SLCMSK, '037777777777'O, '000000000000'O
              8269                           ) ;
     1251     8270    3                  CALL M$WRITE(WRITE_STATSRQS) ALTRET(ERRMSG);
     1252     8271    3                  PS_FEP_STATUS(FEPNO) = %FEP_KICKED#;
     1253     8272    3             END;
     1254     8273    2        END /* DO FEPNO */;
     1255     8274
     1256     8275    1        PS_USED_FEP_SIZE = 0;
     1257     8276
     1258     8277    2        DO INHIBIT; /* So interrupts can't strike between testing
     1259     8278             PS_NEED_READ_HLPCG and doing M$WAIT     */
     1260     8279
     1261     8280    3             DO WHILE(PS_NEED_READ_HLPCG);
     1262     8281    3                  PS_NEED_READ_HLPCG = %NO#;
     1263     8282    3                  CALL M$READ(READ_HLPCG) ALTRET(ERRMSG);
     1264     8283    3                  IF NOT PS_NEED_READ_HLPCG
     1265     8284    3                  THEN CALL M$WAIT (FPT_WAIT);
     1266     8285    3             END;
     1267     8286    2        END /* INHIBIT */;
     1268     8287
     1269     8288    1        IF DCBADDR(DCBNUM(M$HLPCG)) -> F$DCB.FCD#
     1270     8289    1        THEN CALL M$CLOSE(CLOSE_HLPCG)
     1271     8290    2             WHENALTRETURN DO; END;
     1272     8291    1        IF PS_USED_FEP_SIZE = 0 THEN
     1273     8292    2        DO;
     1274     8293    2             CALL PSE$GRIPE(%E$PS_FEP_KICKED,WARNING#);
     1275     8294    2             ALTRETURN;
     1276     8295    2        END;
     1277     8296
     1278     8297    1        PS_TAG = 'F';
     1279     8298
     1280     8299    1        RETURN;
     1281     8300
     1282     8301    1   ERRMSG:
PL6.E3A0      #002=PSD$READ_IN File=PSD$DISP.:E05TSI                             WED 07/30/97 04:28 Page:177
     1283     8302    1        CALL PSE$ERRMSG(,SERIOUS#);
     1284     8303             /* ALTRETing here would only cause ATTACH to try again; that can't help. */
     1285     8304
     1286     8305        %EJECT;
PL6.E3A0      #002=PSD$READ_IN File=PSD$DISP.:E05TSI                             WED 07/30/97 04:28 Page:178
     1287     8306    1   COMPFLAGS: PROC( FEPFLAGS, DSPFLAGS, LOGFLAGS);
     1288     8307
     1289     8308    2   DCL 1 FEPFLAGS ALIGNED,
     1290     8309    2            2 * BIT(1) UNAL,
     1291     8310    2            2 DBYTE0 BIT(8) UNAL,
     1292     8311    2            2 * BIT(1) UNAL,
     1293     8312    2            2 DBYTE1 BIT(8) UNAL,
     1294     8313    2            2 * BIT(1) UNAL,
     1295     8314    2            2 DBYTE2 BIT(8) UNAL,
     1296     8315    2            2 * BIT(1) UNAL,
     1297     8316    2            2 DBYTE3 BIT(8) UNAL;
     1298     8317
     1299     8318    2   DCL DSPFLAGS BIT(36) ALIGNED;
     1300     8319    2   DCL LOGFLAGS BIT(36) ALIGNED;
     1301     8320
     1302     8321    2   DCL 1 LCLFLAGS ALIGNED,
     1303     8322    2            2 * BIT(4) UNAL,
     1304     8323    2            2 DBYTE0 BIT(8) UNAL,
     1305     8324    2            2 DBYTE1 BIT(8) UNAL,
     1306     8325    2            2 DBYTE2 BIT(8) UNAL,
     1307     8326    2            2 DBYTE3 BIT(8) UNAL;
     1308     8327
     1309     8328    2        LCLFLAGS = DSPFLAGS | LOGFLAGS;
     1310     8329
     1311     8330    2        FEPFLAGS.DBYTE0 = LCLFLAGS.DBYTE0;
     1312     8331    2        FEPFLAGS.DBYTE1 = LCLFLAGS.DBYTE1;
     1313     8332    2        FEPFLAGS.DBYTE2 = LCLFLAGS.DBYTE2;
     1314     8333    2        FEPFLAGS.DBYTE3 = LCLFLAGS.DBYTE3;
     1315     8334
     1316     8335    2        RETURN;
     1317     8336    2   END COMPFLAGS;
     1318     8337    1   END PSD$READ_IN;
     1319     8338        %EOD;

PL6.E3A0      #002=PSD$READ_IN File=PSD$DISP.:E05TSI                             WED 07/30/97 04:28 Page:179
--  Include file information  --

   B_ERRORS_C.:E05TOU  is referenced.
   PS_PERR_C.:E05TOU  is referenced.
   KL_MACRO_C.:E05TOU  is referenced.
   KL_AFCN_C.:E05TOU  is referenced.
   P_FEP_M.:E05TOU  is referenced.
   K_ID_E.:E05TOU  is referenced.
   XU_FORMAT_C.:E05TOU  is referenced.
   PM_BUCKET_C.:E05TOU  is referenced.
   PS_SUBS_C.:E05TOU  is referenced.
   PS_DATA_R.:E05TOU  cannot be made into a system file and is referenced.
   CP_6_SUBS.:E05TOU  is referenced.
   CP_6.:E05TOU  cannot be made into a system file and is referenced.
   B$JIT_C.:E05TOU  was found in the system file and is referenced.
   CP_6_C.:E05TOU  was found in the system file and is referenced.
      No diagnostics issued in procedure PSD$READ_IN.

   Procedure PSD$READ_IN requires 286 words for executable code.
   Procedure PSD$READ_IN requires 16 words of local(AUTO) storage.

PL6.E3A0      #002=PSD$READ_IN File=PSD$DISP.:E05TSI                             WED 07/30/97 04:28 Page:180

 Object Unit name= PSD$READ_IN                                File name= PSD$DISP.:E05TOU
 UTS= JUL 30 '97 04:28:19.88 WED                              Compiler= PL-6/E31         Sev=      00
 SharedLib= :SHARED_SYSTEM                                    Alt SharedLib=


    ****  Control sections  ****

 Sect   Type Bound  Init  Size OctSiz  Section name(segment info)
    0   DCB   even  none     0      0  M$UC
    1   DCB   even  none     0      0  M$LO
    2   DCB   even  none     0      0  M$DO
    3   DCB   even  none     0      0  M$SI
    4   DCB   even  none     0      0  F$LOG
    5   DCB   even  none     0      0  M$ME
    6   DCB   even  none     0      0  M$HLPCG
    7  RtLbCm even  none    30     36  PS_FDS
    8  RtLbCm even  none    32     40  PS_SELECT_RPN
    9  RtLbCm even  none    17     21  PS_STATS_RPN
   10  RtLbCm even  none    34     42  PS_STATS_BUCKET
   11   Data  even  none    78    116  PSD$READ_IN
   12  RoData even  UTS    141    215  PSD$READ_IN
   13   Proc  even  none   286    436  PSD$READ_IN
   14  RoData even  none    21     25  PSD$READ_IN

    ****  Entry defs  ****

                              Check   Calling
                             calling  sequence
  Sect OctLoc Primary Altret sequence   type   Parms  Name
    13      0   yes    yes     yes      Std        2  PSD$READ_IN
    13     70          yes     yes      Std        2  PSD$GET_PMDAT
    13    110          yes     yes      Std        2  PSD$GET_MOUSE
    13    131          yes     yes      Std        2  PSD$GET_FEP
PL6.E3A0      #002=PSD$READ_IN File=PSD$DISP.:E05TSI                             WED 07/30/97 04:28 Page:181

  ****  Entry refs  ****

         Check        Calling
        calling       sequence
Altret sequence SRef   type   Args  Name
         yes          Async      0 PSF$FEPSTATS
         yes           Std       5 PSE$ERRMSG
         yes           Std       5 PSE$GRIPE
                       Std       0 B_CONSPOOL_D
                       nStd      0 X66_AUTO_2
                       nStd      0 X66_ARET
                       nStd      0 X66_AALT

  ****  Data refs  ****

  Flags:  r = read only, s = secondary
Flgs Name                             Flgs Name                             Flgs Name
     M$UC                                  M$LO                                  M$DO
     M$SI                                  F$LOG                                 M$ME
     M$HLPCG                               PS_FEP_DISP_FLAGS                     PS_FEP_LOG_FLAGS
     PS_LOGFILE_KEY                        PS_TAG                                PS_BUFFER
     PS_STATS$                             PS_NEED_READ_HLPCG                    PS_USED_FEP_SIZE
     PS_HLPCGBUF                           PS_NUM_NODES                          PS_FEP_STATUS
     B$JIT$                                B$TCB$                                B_VECTNIL

  ****  Segment refs  ****

  Flags:  r = read only, s = secondary
Flgs Name                             Flgs Name                             Flgs Name
     NULLSID                               ISSID                                 ROSID
PL6.E3A0      #002=PSD$READ_IN File=PSD$DISP.:E05TSI                             WED 07/30/97 04:28 Page:182


     1032        1        /*T***********************************************************/
     1033        2        /*T*                                                         */
     1034        3        /*T* Copyright (c) Bull HN Information Systems Inc., 1997    */
     1035        4        /*T*                                                         */
     1036        5        /*T***********************************************************/
     1037        6       /*X* PLM=5,IND=5,CTI=5,DCI=5,SQB=Y,PRB=Y,DTI=0,ENI=0,AND=Y,ECI=0,CSI=0,THI=0,SDI=5,M
                 6        OC=Y,CRT=1,CLM=5,DMR */
     1038        7        PSD$READ_IN: PROC (POINTER$, ACTUAL) ALTRET;

      7 13 000000   000000 700200 xent  PSD$READ_IN  TSX0  ! X66_AUTO_2
        13 000001   000020 000002                    ZERO    16,2
        13 000002   000022 710000 13                 TRA     s:8182

     1039        8        %INCLUDE CP_6;
     1040       89        %INCLUDE CP_6_SUBS;
     1041      629        %INCLUDE PS_DATA_R;
     1042     5925        %INCLUDE PS_PERR_C;
     1043     5956
     1044     5957        %B$TCB;
     1045     5960
     1046     5961        %B$EXCFR;
     1047     5979        %INCLUDE B_ERRORS_C;
     1048     7106
     1049     7107        %FPT_GETPM;
     1050     7120
     1051     7121        %FPT_GETMOUSE;
     1052     7135
     1053     7136        %FPT_READ (DCB=F$LOG,
     1054     7137         KEY=PS_LOGFILE_KEY,
     1055     7138         KEYR=YES,
     1056     7139         KEYS=NO);
     1057     7178
     1058     7179        %FPT_PRECORD (DCB=F$LOG,
     1059     7180         STCLASS=CONSTANT,
     1060     7181         N=-1);
     1061     7202
PL6.E3A0      #002=PSD$READ_IN File=PSD$DISP.:E05TSI                             WED 07/30/97 04:28 Page:183
     1062     7203
     1063     7204
     1064     7205    1   DCL B$JIT$ PTR SYMREF;
     1065     7206 S      %INCLUDE B$JIT_C;
     1066     7207         %B$JIT0;
     1067     7296         %U$JIT1X;
     1068     7299         %M$JIT2X;
     1069     7302         %F$JIT3X;
     1070     7305         %S$JIT4X;
     1071     7308         %J$JIT5X;
     1072     7311         %A$JIT6X;
     1073     7314
     1074     7315        %F$DCB;
     1075     7372
     1076     7373        %FPT_OPEN (FPTN=OPEN_HLPCG,
     1077     7374         STCLASS=CONSTANT,
     1078     7375         ASN=COMGROUP,
     1079     7376         DCB=M$HLPCG,
     1080     7377         NAME=NAME_HLPCG,
     1081     7378         ACCT=ACCT_HLPCG,
     1082     7379         REASSIGN=YES,
     1083     7380         SETSTA=SETSTA_ST,
     1084     7381         FUN=UPDATE);
     1085     7490
     1086     7491        %VLP_NAME (FPTN=NAME_HLPCG,
     1087     7492         STCLASS=CONSTANT,
     1088     7493         NAME='HLPCG');
     1089     7520
     1090     7521        %VLP_ACCT (FPTN=ACCT_HLPCG,
     1091     7522         STCLASS=CONSTANT,
     1092     7523         ACCT=':SYS');
     1093     7536
     1094     7537        %VLP_SETSTA (FPTN=SETSTA_ST,
     1095     7538         STCLASS=STATIC,
     1096     7539         DIRONLY=YES,
     1097     7540         WAS=NO);
     1098     7568
PL6.E3A0      #002=PSD$READ_IN File=PSD$DISP.:E05TSI                             WED 07/30/97 04:28 Page:184
     1099     7569        %VLP_STATION (FPTN=HLP_STA,
     1100     7570         STCLASS=CONSTANT,
     1101     7571         STATION='HLPADMIN');
     1102     7598
     1103     7599        %FPT_WRITE (FPTN=WRITE_STATSRQS,
     1104     7600         STCLASS=STATIC,
     1105     7601         BUF=KL_REQSTATS,
     1106     7602         DCB=M$HLPCG,
     1107     7603         STATION=HLP_STA);
     1108     7634
     1109     7635        %FPT_CLOSE (FPTN=CLOSE_HLPCG,
     1110     7636         STCLASS=CONSTANT,
     1111     7637         DCB=M$HLPCG,
     1112     7638         DISP=SAVE);
     1113     7680
     1114     7681        %FPT_READ (FPTN=READ_HLPCG,
     1115     7682         STCLASS=CONSTANT,
     1116     7683         DCB=M$HLPCG,
     1117     7684         BUF=PS_HLPCGBUF,
     1118     7685         WAIT=NO,
     1119     7686         EVENT=1);
     1120     7725
     1121     7726        %KL_REQSTATS(STCLASS=STATIC);
     1122     8019
     1123     8020        %PS_FEPMASK (NAME=MONMSK, STCLASS=CONSTANT, MONITOR=YES);
     1124     8086        %FPT_EVENT (FPTN=TAKE_CONTROL,
     1125     8087         STCLASS=STATIC,
     1126     8088         UENTRY=PSF$FEPSTATS);
     1127     8102
     1128     8103        %FPT_MONINFO (MONINFO=VLR_MONINFO,
     1129     8104         STCLASS=CONSTANT);
     1130     8119        %VLR_MONINFO;
     1131     8137
     1132     8138        %FPT_WAIT(UNITS=12);
     1133     8152
     1134     8153    1   DCL PSF$FEPSTATS ENTRY ASYNC;
     1135     8154    1   DCL FEPNO UBIN;
PL6.E3A0      #002=PSD$READ_IN File=PSD$DISP.:E05TSI                             WED 07/30/97 04:28 Page:185
     1136     8155
     1137     8156    1   DCL POINTER$ PTR;
     1138     8157    1   DCL ACTUAL UBIN;
     1139     8158    1   DCL ERR UBIN WORD;
     1140     8159    1   DCL B$TCB$ PTR SYMREF;
     1141     8160    1   DCL PSE$ERRMSG ENTRY (5);
     1142     8161    1   DCL PSE$GRIPE ENTRY (5);
     1143     8162        %EJECT;
PL6.E3A0      #002=PSD$READ_IN File=PSD$DISP.:E05TSI                             WED 07/30/97 04:28 Page:186
     1144     8163    1   MAKE_VECTOR: PROC (VECTOR_, POINTER$, WORD_COUNT);

   8163 13 000003   200010 741300       MAKE_VECTOR  STX1  ! ERR+1,,AUTO

     1145     8164
     1146     8165    2   DCL 1 VECTOR_,
     1147     8166    2            2 SIZE UBIN(20) UNAL,
     1148     8167    2            2 * BIT(16) UNAL,
     1149     8168    2            2 PTR$ PTR;
     1150     8169    2   DCL POINTER$ PTR;
     1151     8170    2   DCL WORD_COUNT UBIN;
     1152     8171
     1153     8172    2        VECTOR_.PTR$ = POINTER$;

   8172 13 000004   200012 470500                    LDP0    @POINTER$,,AUTO
        13 000005   000000 236100                    LDQ     0,,PR0
        13 000006   200011 471500                    LDP1    @VECTOR_,,AUTO
        13 000007   100001 756100                    STQ     1,,PR1

     1154     8173
     1155     8174    2        VECTOR_.SIZE = (WORD_COUNT * 4) - 1;

   8174 13 000010   200013 473500                    LDP3    @WORD_COUNT,,AUTO
        13 000011   300000 236100                    LDQ     0,,PR3
        13 000012   000002 736000                    QLS     2
        13 000013   000001 136007                    SBLQ    1,DL
        13 000014   000020 736000                    QLS     16
        13 000015   100000 676100                    ERQ     0,,PR1
        13 000016   000034 376000 xsym               ANQ     B_VECTNIL+28
        13 000017   100000 656100                    ERSQ    0,,PR1

     1156     8175
     1157     8176    2        RETURN;

   8176 13 000020   200010 221300                    LDX1  ! ERR+1,,AUTO
        13 000021   000001 702211                    TSX2  ! 1,X1

PL6.E3A0      #002=PSD$READ_IN File=PSD$DISP.:E05TSI                             WED 07/30/97 04:28 Page:187
     1158     8177
     1159     8178    2   END MAKE_VECTOR;
     1160     8179        %EJECT;
PL6.E3A0      #002=PSD$READ_IN File=PSD$DISP.:E05TSI                             WED 07/30/97 04:28 Page:188
     1161     8180        /* PSD$READ_IN procedure.                                           */
     1162     8181
     1163     8182    1        CALL MAKE_VECTOR (FPT_READ.BUF_, POINTER$, ACTUAL);

   8182 13 000022   200004 236100                    LDQ     @ACTUAL,,AUTO
        13 000023   200003 235100                    LDA     @POINTER$,,AUTO
        13 000024   200012 757100                    STAQ    @FEPFLAGS+1,,AUTO
        13 000025   000000 236000 14                 LDQ     0
        13 000026   200011 756100                    STQ     ERR+2,,AUTO
        13 000027   000003 701000 13                 TSX1    MAKE_VECTOR
        13 000030   000000 011000                    NOP     0

     1164     8183
     1165     8184
     1166     8185    1        ERR = 0;

   8185 13 000031   200007 450100                    STZ     ERR,,AUTO

     1167     8186
     1168     8187    1        CALL M$READ (FPT_READ) ALTRET (READ_ALTRET);

   8187 13 000032   000004 630400 11                 EPPR0   FPT_READ
        13 000033   440000 713400                    CLIMB   alt,read
        13 000034   401400 401760                    pmme    nvectors=4
        13 000035   000054 702000 13                 TSX2    READ_ALTRET

     1169     8188    1        PS_TAG = PS_LOGFILE_KEY.TAG;

   8188 13 000036   000001 236000 xsym               LDQ     PS_LOGFILE_KEY+1
        13 000037   000011 736000                    QLS     9
        13 000040   777000 376003                    ANQ     -512,DU
        13 000041   000001 276000 14                 ORQ     1
        13 000042   000000 756000 xsym               STQ     PS_TAG

     1170     8189    1        IF PS_LOGFILE_KEY.COUNT~=5

   8189 13 000043   000000 236000 xsym               LDQ     PS_LOGFILE_KEY
PL6.E3A0      #002=PSD$READ_IN File=PSD$DISP.:E05TSI                             WED 07/30/97 04:28 Page:189
        13 000044   777000 376003                    ANQ     -512,DU
        13 000045   005000 116003                    CMPQ    2560,DU
        13 000046   000053 600000 13                 TZE     s:8192

     1171     8190    1        THEN CALL PSE$ERRMSG (E$PS_BAD_FILE, SERIOUS#);

   8190 13 000047   000003 630400 14                 EPPR0   3
        13 000050   000020 631400 xsym               EPPR1   B_VECTNIL+16
        13 000051   000000 701000 xent               TSX1    PSE$ERRMSG
        13 000052   000000 011000                    NOP     0

     1172     8191
     1173     8192    1        RETURN;

   8192 13 000053   000000 702200 xent               TSX2  ! X66_ARET

     1174     8193
     1175     8194    1   READ_ALTRET:
     1176     8195    1        ERR = B$TCB$ -> B$TCB.ALT$ -> B$EXCFR.ERR.CODE;

   8195 13 000054   000000 470400 xsym  READ_ALTRET  LDP0    B$TCB$
        13 000055   000000 471500                    LDP1    0,,PR0
        13 000056   100102 236100                    LDQ     66,,PR1
        13 000057   000003 772000                    QRL     3
        13 000060   037777 376007                    ANQ     16383,DL
        13 000061   200007 756100                    STQ     ERR,,AUTO

     1177     8196
     1178     8197    1        IF ERR = %E$LD

   8197 13 000062   000007 116007                    CMPQ    7,DL
        13 000063   000067 601000 13                 TNZ     s:8201

     1179     8198    1        THEN
     1180     8199    1             CALL M$PRECORD (FPT_PRECORD);

   8199 13 000064   000000 630400 12                 EPPR0   FPT_PRECORD
PL6.E3A0      #002=PSD$READ_IN File=PSD$DISP.:E05TSI                             WED 07/30/97 04:28 Page:190
        13 000065   040003 713400                    CLIMB   16387
        13 000066   401000 401760                    pmme    nvectors=3

     1181     8200
     1182     8201    1        ALTRETURN;

   8201 13 000067   000000 702200 xent               TSX2  ! X66_AALT

     1183     8202
     1184     8203        %EJECT;
PL6.E3A0      #002=PSD$READ_IN File=PSD$DISP.:E05TSI                             WED 07/30/97 04:28 Page:191
     1185     8204    1   PSD$GET_PMDAT: ENTRY (POINTER$, ACTUAL) ALTRET;

   8204 13 000070   000000 700200 xent  PSD$GET_PMD* TSX0  ! X66_AUTO_2
        13 000071   000020 000002                    ZERO    16,2

     1186     8205
     1187     8206    1        CALL MAKE_VECTOR (FPT_GETPM.RESULTS_, POINTER$, ACTUAL);

   8206 13 000072   200004 236100                    LDQ     @ACTUAL,,AUTO
        13 000073   200003 235100                    LDA     @POINTER$,,AUTO
        13 000074   200012 757100                    STAQ    @FEPFLAGS+1,,AUTO
        13 000075   000005 236000 14                 LDQ     5
        13 000076   200011 756100                    STQ     ERR+2,,AUTO
        13 000077   000003 701000 13                 TSX1    MAKE_VECTOR
        13 000100   000000 011000                    NOP     0

     1188     8207
     1189     8208    1        CALL M$GETPM (FPT_GETPM) ALTRET (GLURP);

   8208 13 000101   000000 630400 11                 EPPR0   FPT_GETPM
        13 000102   540006 713400                    CLIMB   alt,+49158
        13 000103   400000 401760                    pmme    nvectors=1
        13 000104   000130 702000 13                 TSX2    GLURP

     1190     8209
     1191     8210    1        PS_TAG = 'D';

   8210 13 000105   104000 236003                    LDQ     34816,DU
        13 000106   000000 756000 xsym               STQ     PS_TAG

     1192     8211
     1193     8212    1        RETURN;

   8212 13 000107   000000 702200 xent               TSX2  ! X66_ARET

     1194     8213
     1195     8214        %SPACE 6;
PL6.E3A0      #002=PSD$READ_IN File=PSD$DISP.:E05TSI                             WED 07/30/97 04:28 Page:192

     1196     8215    1   PSD$GET_MOUSE: ENTRY (POINTER$, ACTUAL) ALTRET;

   8215 13 000110   000000 700200 xent  PSD$GET_MOU* TSX0  ! X66_AUTO_2
        13 000111   000020 000002                    ZERO    16,2

     1197     8216
     1198     8217    1        CALL MAKE_VECTOR (FPT_GETMOUSE.RESULTS_, POINTER$, ACTUAL);

   8217 13 000112   200004 236100                    LDQ     @ACTUAL,,AUTO
        13 000113   200003 235100                    LDA     @POINTER$,,AUTO
        13 000114   200012 757100                    STAQ    @FEPFLAGS+1,,AUTO
        13 000115   000006 236000 14                 LDQ     6
        13 000116   200011 756100                    STQ     ERR+2,,AUTO
        13 000117   000003 701000 13                 TSX1    MAKE_VECTOR
        13 000120   000000 011000                    NOP     0

     1199     8218
     1200     8219    1        CALL M$GETMOUSE (FPT_GETMOUSE) ALTRET (GLURP);

   8219 13 000121   000002 630400 11                 EPPR0   FPT_GETMOUSE
        13 000122   540005 713400                    CLIMB   alt,+49157
        13 000123   400000 401760                    pmme    nvectors=1
        13 000124   000130 702000 13                 TSX2    GLURP

     1201     8220
     1202     8221    1        PS_TAG = 'M';

   8221 13 000125   115000 236003                    LDQ     39424,DU
        13 000126   000000 756000 xsym               STQ     PS_TAG

     1203     8222
PL6.E3A0      #002=PSD$READ_IN File=PSD$DISP.:E05TSI                             WED 07/30/97 04:28 Page:193
     1204     8223    1        RETURN;

   8223 13 000127   000000 702200 xent               TSX2  ! X66_ARET

     1205     8224
     1206     8225
     1207     8226    1   GLURP: /* ALTRETURN from here tells ATTACH to make buffer bigger
     1208     8227             and try again. */
     1209     8228    1        ALTRETURN;

   8228 13 000130   000000 702200 xent  GLURP        TSX2  ! X66_AALT

     1210     8229        %EJECT;
PL6.E3A0      #002=PSD$READ_IN File=PSD$DISP.:E05TSI                             WED 07/30/97 04:28 Page:194
     1211     8230    1   PSD$GET_FEP: ENTRY (POINTER$, ACTUAL) ALTRET;

   8230 13 000131   000000 700200 xent  PSD$GET_FEP  TSX0  ! X66_AUTO_2
        13 000132   000020 000002                    ZERO    16,2

     1212     8231
     1213     8232    1        IF NOT DCBADDR(DCBNUM(M$HLPCG))->F$DCB.FCD#

   8232 13 000133   000000 236007 xsym               LDQ     M$HLPCG,DL
        13 000134   000007 470400 14                 LDP0    7
        13 000135   000000 471500                    LDP1    0,,PR0
        13 000136   100000 473506                    LDP3    0,QL,PR1
        13 000137   300031 236100                    LDQ     25,,PR3
        13 000140   020000 316007                    CANQ    8192,DL
        13 000141   000201 601000 13                 TNZ     s:8247

     1214     8233    2        THEN DO;

     1215     8234    2             IF NOT B$JIT.PRIV.ACTIVE&%PR_PM#

   8234 13 000142   000000 473400 xsym               LDP3    B$JIT$
        13 000143   300013 236100                    LDQ     11,,PR3
        13 000144   000212 376000 12                 ANQ     FPT_MONINFO+12
        13 000145   000152 601000 13                 TNZ     s:8237

     1216     8235    2             THEN CALL PSE$ERRMSG(E$PS_NEED_EXPM,SERIOUS#);

   8235 13 000146   000010 630400 14                 EPPR0   8
        13 000147   000020 631400 xsym               EPPR1   B_VECTNIL+16
        13 000150   000000 701000 xent               TSX1    PSE$ERRMSG
        13 000151   000000 011000                    NOP     0

     1217     8236
     1218     8237    2             CALL BINCHAR(SETSTA_ST.MYSTATION#,B$JIT.SYSID);

   8237 13 000152   000000 470400 xsym               LDP0    B$JIT$
        13 000153   000000 236100                    LDQ     0,,PR0
PL6.E3A0      #002=PSD$READ_IN File=PSD$DISP.:E05TSI                             WED 07/30/97 04:28 Page:195
        13 000154   777777 376007                    ANQ     -1,DL
        13 000155   000000 235003                    LDA     0,DU
        13 000156   200016 757100                    STAQ    LCLFLAGS+2,,AUTO
        13 000157   000000 301500                    BTD
        13 000160   200016 000010                    NDSC9   LCLFLAGS+2,,AUTO         cn=0,s=lsgnf,sf=0,n=8
        13 000161   000022 030010 11                 NDSC9   SETSTA_ST                cn=0,s=nosgn,sf=0,n=8

     1219     8238    2             CALL INSERT(SETSTA_ST.MYSTATION#,0,2,'ST');

   8238 13 000162   000213 220000 12                 LDX0    FPT_MONINFO+13
        13 000163   000022 740000 11                 STX0    SETSTA_ST

     1220     8239    2             CALL M$OPEN(OPEN_HLPCG) ALTRET (ERRMSG);

   8239 13 000164   000012 630400 12                 EPPR0   OPEN_HLPCG
        13 000165   450000 713400                    CLIMB   alt,open
        13 000166   410400 401760                    pmme    nvectors=18
        13 000167   000372 702000 13                 TSX2    ERRMSG

     1221     8240    2             CALL M$EVENT(TAKE_CONTROL) ALTRET(ERRMSG);

   8240 13 000170   000064 630400 11                 EPPR0   TAKE_CONTROL
        13 000171   410001 713400                    CLIMB   alt,+4097
        13 000172   400000 401760                    pmme    nvectors=1
        13 000173   000372 702000 13                 TSX2    ERRMSG

     1222     8241
     1223     8242    2             CALL M$MONINFO(FPT_MONINFO);

   8242 13 000174   000176 630400 12                 EPPR0   FPT_MONINFO
        13 000175   020023 713400                    CLIMB   8211
        13 000176   402400 401760                    pmme    nvectors=6

     1224     8243    2             PS_NUM_NODES = VLR_MONINFO.NUM_NODES;

   8243 13 000177   000104 235000 11                 LDA     VLR_MONINFO+12
        13 000200   000000 755000 xsym               STA     PS_NUM_NODES
PL6.E3A0      #002=PSD$READ_IN File=PSD$DISP.:E05TSI                             WED 07/30/97 04:28 Page:196

     1225     8244
     1226     8245    2        END;

     1227     8246
     1228     8247    1        KL_REQSTATS.FNC = %IGA_REQSTATS;

   8247 13 000201   044000 236003                    LDQ     18432,DU
        13 000202   000052 552040 11                 STBQ    KL_REQSTATS,'40'O

     1229     8248    1        CALL BINCHAR(KL_REQSTATS.STATSSTA,B$JIT.SYSID);

   8248 13 000203   000000 470400 xsym               LDP0    B$JIT$
        13 000204   000000 236100                    LDQ     0,,PR0
        13 000205   777777 376007                    ANQ     -1,DL
        13 000206   000000 235003                    LDA     0,DU
        13 000207   200016 757100                    STAQ    LCLFLAGS+2,,AUTO
        13 000210   000000 301500                    BTD
        13 000211   200016 000010                    NDSC9   LCLFLAGS+2,,AUTO         cn=0,s=lsgnf,sf=0,n=8
        13 000212   000054 030010 11                 NDSC9   KL_REQSTATS+2            cn=0,s=nosgn,sf=0,n=8

     1230     8249    1        CALL INSERT(KL_REQSTATS.STATSSTA,0,2,'ST');

   8249 13 000213   000213 220000 12                 LDX0    FPT_MONINFO+13
        13 000214   000054 740000 11                 STX0    KL_REQSTATS+2

     1231     8250
     1232     8251    2        DO FEPNO = 1 TO PS_NUM_NODES;

   8251 13 000215   000001 236007                    LDQ     1,DL
        13 000216   200006 756100                    STQ     FEPNO,,AUTO
        13 000217   000322 710000 13                 TRA     s:8273+3

     1233     8252
     1234     8253    2             IF PS_FEP_DISP_FLAGS.DISP (FEPNO)

   8253 13 000220   200006 235100                    LDA     FEPNO,,AUTO
PL6.E3A0      #002=PSD$READ_IN File=PSD$DISP.:E05TSI                             WED 07/30/97 04:28 Page:197
        13 000221   000002 735000                    ALS     2
        13 000222   000000 235005 xsym               LDA     PS_FEP_DISP_FLAGS,AL
        13 000223   000230 601000 13                 TNZ     WRITE_IT
        13 000224   200006 235100                    LDA     FEPNO,,AUTO
        13 000225   000002 735000                    ALS     2
        13 000226   000000 235005 xsym               LDA     PS_FEP_LOG_FLAGS,AL
        13 000227   000317 600000 13                 TZE     s:8273

     1235     8254    3                  OR PS_FEP_LOG_FLAGS.DISP (FEPNO) THEN DO;

     1236     8255    3   WRITE_IT: /* A convenient place for a breakpoint */
     1237     8256    3                  PS_NEED_READ_HLPCG = %YES#;

   8256 13 000230   400000 236003       WRITE_IT     LDQ     -131072,DU
        13 000231   000000 756000 xsym               STQ     PS_NEED_READ_HLPCG

     1238     8257    3                  KL_REQSTATS.NODE_NUM = FEPNO;

   8257 13 000232   200006 236100                    LDQ     FEPNO,,AUTO
        13 000233   000022 736000                    QLS     18
        13 000234   000052 552020 11                 STBQ    KL_REQSTATS,'20'O

     1239     8258    3   /*N* TEMP*/    CALL BINCHAR(KL_REQSTATS.FEPNAME, FEPNO);

   8258 13 000235   200006 235100                    LDA     FEPNO,,AUTO
        13 000236   000044 773000                    LRL     36
        13 000237   200016 757100                    STAQ    LCLFLAGS+2,,AUTO
        13 000240   000000 301500                    BTD
        13 000241   200016 000010                    NDSC9   LCLFLAGS+2,,AUTO         cn=0,s=lsgnf,sf=0,n=8
        13 000242   000056 030010 11                 NDSC9   KL_REQSTATS+4            cn=0,s=nosgn,sf=0,n=8

     1240     8259
     1241     8260    3                  CALL COMPFLAGS(KL_REQSTATS.DSPMSK, PS_FEP_DISP_FLAGS.DISP(FEPNO),

   8260 13 000243   200006 236100                    LDQ     FEPNO,,AUTO
        13 000244   000024 736000                    QLS     20
        13 000245   000012 036000 14                 ADLQ    10
PL6.E3A0      #002=PSD$READ_IN File=PSD$DISP.:E05TSI                             WED 07/30/97 04:28 Page:198
        13 000246   200013 756100                    STQ     @DSPFLAGS+1,,AUTO
        13 000247   200006 236100                    LDQ     FEPNO,,AUTO
        13 000250   000024 736000                    QLS     20
        13 000251   000013 036000 14                 ADLQ    11
        13 000252   200012 756100                    STQ     @FEPFLAGS+1,,AUTO
        13 000253   000014 236000 14                 LDQ     12
        13 000254   200011 756100                    STQ     ERR+2,,AUTO
        13 000255   000402 701000 13                 TSX1    COMPFLAGS
        13 000256   000000 011000                    NOP     0

     1242     8261    3                       PS_FEP_LOG_FLAGS.DISP(FEPNO));
     1243     8262    3                  CALL COMPFLAGS(KL_REQSTATS.SLCMSK, PS_FEP_DISP_FLAGS.SLCT(FEPNO),

   8262 13 000257   200006 236100                    LDQ     FEPNO,,AUTO
        13 000260   000024 736000                    QLS     20
        13 000261   000015 036000 14                 ADLQ    13
        13 000262   200013 756100                    STQ     @DSPFLAGS+1,,AUTO
        13 000263   200006 236100                    LDQ     FEPNO,,AUTO
        13 000264   000024 736000                    QLS     20
        13 000265   000016 036000 14                 ADLQ    14
        13 000266   200012 756100                    STQ     @FEPFLAGS+1,,AUTO
        13 000267   000017 236000 14                 LDQ     15
        13 000270   200011 756100                    STQ     ERR+2,,AUTO
        13 000271   000402 701000 13                 TSX1    COMPFLAGS
        13 000272   000000 011000                    NOP     0

     1244     8263    3                       PS_FEP_LOG_FLAGS.SLCT(FEPNO));
     1245     8264        /*N*  KLUDGE to get ALL handlers to return ALL stats.
     1246     8265              When all handlers honor and obey SLCT and DISP bits,
     1247     8266              this kludge can be removed.  ---gordon.
     1248     8267        */
     1249     8268    3                 CALL COMPFLAGS ( KL_REQSTATS.DSPMSK, '037777777777'O, '000000000000'O
              8268                           ) ;

   8268 13 000273   000020 237000 14                 LDAQ    16
        13 000274   200012 757100                    STAQ    @FEPFLAGS+1,,AUTO
        13 000275   000014 236000 14                 LDQ     12
PL6.E3A0      #002=PSD$READ_IN File=PSD$DISP.:E05TSI                             WED 07/30/97 04:28 Page:199
        13 000276   200011 756100                    STQ     ERR+2,,AUTO
        13 000277   000402 701000 13                 TSX1    COMPFLAGS
        13 000300   000000 011000                    NOP     0

     1250     8269    3                 CALL COMPFLAGS ( KL_REQSTATS.SLCMSK, '037777777777'O, '000000000000'O
              8269                           ) ;

   8269 13 000301   000020 237000 14                 LDAQ    16
        13 000302   200012 757100                    STAQ    @FEPFLAGS+1,,AUTO
        13 000303   000017 236000 14                 LDQ     15
        13 000304   200011 756100                    STQ     ERR+2,,AUTO
        13 000305   000402 701000 13                 TSX1    COMPFLAGS
        13 000306   000000 011000                    NOP     0

     1251     8270    3                  CALL M$WRITE(WRITE_STATSRQS) ALTRET(ERRMSG);

   8270 13 000307   000036 630400 11                 EPPR0   WRITE_STATSRQS
        13 000310   440001 713400                    CLIMB   alt,write
        13 000311   401400 401760                    pmme    nvectors=4
        13 000312   000372 702000 13                 TSX2    ERRMSG

     1252     8271    3                  PS_FEP_STATUS(FEPNO) = %FEP_KICKED#;

   8271 13 000313   200006 235100                    LDA     FEPNO,,AUTO
        13 000314   000005 101400                    MRL     fill='000'O
        13 000315   000006 000004 xsym               ADSC9   B_VECTNIL+6              cn=0,n=4
        13 000316   000000 000001 xsym               ADSC9   PS_FEP_STATUS,A          cn=0,n=1

     1253     8272    3             END;

     1254     8273    2        END /* DO FEPNO */;

   8273 13 000317   200006 235100                    LDA     FEPNO,,AUTO
        13 000320   000001 035007                    ADLA    1,DL
        13 000321   200006 755100                    STA     FEPNO,,AUTO
        13 000322   000000 236000 xsym               LDQ     PS_NUM_NODES
        13 000323   200006 116100                    CMPQ    FEPNO,,AUTO
PL6.E3A0      #002=PSD$READ_IN File=PSD$DISP.:E05TSI                             WED 07/30/97 04:28 Page:200
        13 000324   000220 603000 13                 TRC     s:8253

     1255     8274
     1256     8275    1        PS_USED_FEP_SIZE = 0;

   8275 13 000325   000000 450000 xsym               STZ     PS_USED_FEP_SIZE

     1257     8276
     1258     8277    2        DO INHIBIT; /* So interrupts can't strike between testing

     1259     8278             PS_NEED_READ_HLPCG and doing M$WAIT     */
     1260     8279
     1261     8280    3             DO WHILE(PS_NEED_READ_HLPCG);

   8280 13 000326   000000 234200 xsym               SZN   ! PS_NEED_READ_HLPCG
        13 000327   000344 605200 13                 TPL   ! s:8288

     1262     8281    3                  PS_NEED_READ_HLPCG = %NO#;

   8281 13 000330   000000 450200 xsym               STZ   ! PS_NEED_READ_HLPCG

     1263     8282    3                  CALL M$READ(READ_HLPCG) ALTRET(ERRMSG);

   8282 13 000331   000156 630600 12                 EPPR0 ! READ_HLPCG
        13 000332   440000 713600                    CLIMB ! alt,read
        13 000333   401400 401760                    pmme    nvectors=4
        13 000334   000372 702200 13                 TSX2  ! ERRMSG

     1264     8283    3                  IF NOT PS_NEED_READ_HLPCG

   8283 13 000335   000000 234200 xsym               SZN   ! PS_NEED_READ_HLPCG
        13 000336   000342 604200 13                 TMI   ! s:8285

     1265     8284    3                  THEN CALL M$WAIT (FPT_WAIT);

   8284 13 000337   000110 630600 11                 EPPR0 ! FPT_WAIT
        13 000340   020006 713600                    CLIMB ! 8198
PL6.E3A0      #002=PSD$READ_IN File=PSD$DISP.:E05TSI                             WED 07/30/97 04:28 Page:201
        13 000341   400400 401760                    pmme    nvectors=2

     1266     8285    3             END;

   8285 13 000342   000000 234200 xsym               SZN   ! PS_NEED_READ_HLPCG
        13 000343   000330 604200 13                 TMI   ! s:8281

     1267     8286    2        END /* INHIBIT */;

     1268     8287
     1269     8288    1        IF DCBADDR(DCBNUM(M$HLPCG)) -> F$DCB.FCD#

   8288 13 000344   000000 236007 xsym               LDQ     M$HLPCG,DL
        13 000345   000007 470400 14                 LDP0    7
        13 000346   000000 471500                    LDP1    0,,PR0
        13 000347   100000 473506                    LDP3    0,QL,PR1
        13 000350   300031 236100                    LDQ     25,,PR3
        13 000351   020000 316007                    CANQ    8192,DL
        13 000352   000360 600000 13                 TZE     s:8291

     1270     8289    1        THEN CALL M$CLOSE(CLOSE_HLPCG)

   8289 13 000353   000120 630400 12                 EPPR0   CLOSE_HLPCG
        13 000354   450001 713400                    CLIMB   alt,close
        13 000355   406000 401760                    pmme    nvectors=13
        13 000356   000360 702000 13                 TSX2    s:8291
        13 000357   000360 710000 13                 TRA     s:8291

     1271     8290    2             WHENALTRETURN DO; END;

     1272     8291    1        IF PS_USED_FEP_SIZE = 0 THEN

   8291 13 000360   000000 235000 xsym               LDA     PS_USED_FEP_SIZE
        13 000361   000367 601000 13                 TNZ     s:8297

     1273     8292    2        DO;

PL6.E3A0      #002=PSD$READ_IN File=PSD$DISP.:E05TSI                             WED 07/30/97 04:28 Page:202
     1274     8293    2             CALL PSE$GRIPE(%E$PS_FEP_KICKED,WARNING#);

   8293 13 000362   000023 630400 14                 EPPR0   19
        13 000363   000020 631400 xsym               EPPR1   B_VECTNIL+16
        13 000364   000000 701000 xent               TSX1    PSE$GRIPE
        13 000365   000000 011000                    NOP     0

     1275     8294    2             ALTRETURN;

   8294 13 000366   000000 702200 xent               TSX2  ! X66_AALT

     1276     8295    2        END;
     1277     8296
     1278     8297    1        PS_TAG = 'F';

   8297 13 000367   106000 236003                    LDQ     35840,DU
        13 000370   000000 756000 xsym               STQ     PS_TAG

     1279     8298
     1280     8299    1        RETURN;

   8299 13 000371   000000 702200 xent               TSX2  ! X66_ARET

     1281     8300
     1282     8301    1   ERRMSG:
     1283     8302    1        CALL PSE$ERRMSG(,SERIOUS#);

   8302 13 000372   000004 236000 14    ERRMSG       LDQ     4
        13 000373   000001 235000 xsym               LDA     B_VECTNIL+1
        13 000374   200016 757100                    STAQ    LCLFLAGS+2,,AUTO
        13 000375   200016 630500                    EPPR0   LCLFLAGS+2,,AUTO
        13 000376   000020 631400 xsym               EPPR1   B_VECTNIL+16
        13 000377   000000 701000 xent               TSX1    PSE$ERRMSG
        13 000400   000000 011000                    NOP     0
        13 000401   000435 710000 13                 TRA     s:8337

     1284     8303             /* ALTRETing here would only cause ATTACH to try again; that can't help. */
PL6.E3A0      #002=PSD$READ_IN File=PSD$DISP.:E05TSI                             WED 07/30/97 04:28 Page:203
     1285     8304
     1286     8305        %EJECT;
PL6.E3A0      #002=PSD$READ_IN File=PSD$DISP.:E05TSI                             WED 07/30/97 04:28 Page:204
     1287     8306    1   COMPFLAGS: PROC( FEPFLAGS, DSPFLAGS, LOGFLAGS);

   8306 13 000402   200010 741300       COMPFLAGS    STX1  ! ERR+1,,AUTO

     1288     8307
     1289     8308    2   DCL 1 FEPFLAGS ALIGNED,
     1290     8309    2            2 * BIT(1) UNAL,
     1291     8310    2            2 DBYTE0 BIT(8) UNAL,
     1292     8311    2            2 * BIT(1) UNAL,
     1293     8312    2            2 DBYTE1 BIT(8) UNAL,
     1294     8313    2            2 * BIT(1) UNAL,
     1295     8314    2            2 DBYTE2 BIT(8) UNAL,
     1296     8315    2            2 * BIT(1) UNAL,
     1297     8316    2            2 DBYTE3 BIT(8) UNAL;
     1298     8317
     1299     8318    2   DCL DSPFLAGS BIT(36) ALIGNED;
     1300     8319    2   DCL LOGFLAGS BIT(36) ALIGNED;
     1301     8320
     1302     8321    2   DCL 1 LCLFLAGS ALIGNED,
     1303     8322    2            2 * BIT(4) UNAL,
     1304     8323    2            2 DBYTE0 BIT(8) UNAL,
     1305     8324    2            2 DBYTE1 BIT(8) UNAL,
     1306     8325    2            2 DBYTE2 BIT(8) UNAL,
     1307     8326    2            2 DBYTE3 BIT(8) UNAL;
     1308     8327
     1309     8328    2        LCLFLAGS = DSPFLAGS | LOGFLAGS;

   8328 13 000403   200012 470500                    LDP0    @DSPFLAGS,,AUTO
        13 000404   200013 471500                    LDP1    @LOGFLAGS,,AUTO
        13 000405   000000 236100                    LDQ     0,,PR0
        13 000406   100000 276100                    ORQ     0,,PR1
        13 000407   200014 756100                    STQ     LCLFLAGS,,AUTO

     1310     8329
     1311     8330    2        FEPFLAGS.DBYTE0 = LCLFLAGS.DBYTE0;

   8330 13 000410   200011 473500                    LDP3    @FEPFLAGS,,AUTO
PL6.E3A0      #002=PSD$READ_IN File=PSD$DISP.:E05TSI                             WED 07/30/97 04:28 Page:205
        13 000411   000003 736000                    QLS     3
        13 000412   300000 676100                    ERQ     0,,PR3
        13 000413   377000 376003                    ANQ     130560,DU
        13 000414   300000 656100                    ERSQ    0,,PR3

     1312     8331    2        FEPFLAGS.DBYTE1 = LCLFLAGS.DBYTE1;

   8331 13 000415   200014 236100                    LDQ     LCLFLAGS,,AUTO
        13 000416   000002 736000                    QLS     2
        13 000417   300000 676100                    ERQ     0,,PR3
        13 000420   000377 376003                    ANQ     255,DU
        13 000421   300000 656100                    ERSQ    0,,PR3

     1313     8332    2        FEPFLAGS.DBYTE2 = LCLFLAGS.DBYTE2;

   8332 13 000422   200014 236100                    LDQ     LCLFLAGS,,AUTO
        13 000423   000001 736000                    QLS     1
        13 000424   300000 676100                    ERQ     0,,PR3
        13 000425   377000 376007                    ANQ     130560,DL
        13 000426   300000 656100                    ERSQ    0,,PR3

     1314     8333    2        FEPFLAGS.DBYTE3 = LCLFLAGS.DBYTE3;

   8333 13 000427   200014 236100                    LDQ     LCLFLAGS,,AUTO
        13 000430   300000 676100                    ERQ     0,,PR3
        13 000431   000377 376007                    ANQ     255,DL
        13 000432   300000 656100                    ERSQ    0,,PR3

     1315     8334
     1316     8335    2        RETURN;

   8335 13 000433   200010 221300                    LDX1  ! ERR+1,,AUTO
        13 000434   000001 702211                    TSX2  ! 1,X1

     1317     8336    2   END COMPFLAGS;
     1318     8337    1   END PSD$READ_IN;

PL6.E3A0      #002=PSD$READ_IN File=PSD$DISP.:E05TSI                             WED 07/30/97 04:28 Page:206
   8337 13 000435   000000 702200 xent               TSX2  ! X66_ARET
     1319     8338        %EOD;

PL6.E3A0      #002=PSD$READ_IN File=PSD$DISP.:E05TSI                             WED 07/30/97 04:28 Page:207
--  Include file information  --

   B_ERRORS_C.:E05TOU  is referenced.
   PS_PERR_C.:E05TOU  is referenced.
   KL_MACRO_C.:E05TOU  is referenced.
   KL_AFCN_C.:E05TOU  is referenced.
   P_FEP_M.:E05TOU  is referenced.
   K_ID_E.:E05TOU  is referenced.
   XU_FORMAT_C.:E05TOU  is referenced.
   PM_BUCKET_C.:E05TOU  is referenced.
   PS_SUBS_C.:E05TOU  is referenced.
   PS_DATA_R.:E05TOU  cannot be made into a system file and is referenced.
   CP_6_SUBS.:E05TOU  is referenced.
   CP_6.:E05TOU  cannot be made into a system file and is referenced.
   B$JIT_C.:E05TOU  was found in the system file and is referenced.
   CP_6_C.:E05TOU  was found in the system file and is referenced.
      No diagnostics issued in procedure PSD$READ_IN.
PL6.E3A0      #002=PSD$READ_IN File=PSD$DISP.:E05TSI                             WED 07/30/97 04:28 Page:208

 **** Variables and constants ****

  ****  Section 011  Data  PSD$READ_IN

  ****  Scalars and arrays  ****
OctLoc.c.b A Datatyp(siz) R M Lvl/name                 OctLoc.c.b A Datatyp(siz) R M Lvl/name

     2-0-0/d STRC(72)    r     1 FPT_GETMOUSE               0-0-0/d STRC(72)    r     1 FPT_GETPM
     4-0-0/d STRC(504)   r     1 FPT_READ                 110-0-0/d STRC(216)   r     1 FPT_WAIT
    52-0-0/w STRC(360)   r     1 KL_REQSTATS               22-0-0/w STRC(432)   r     1 SETSTA_ST
    64-0-0/d STRC(144)   r     1 TAKE_CONTROL              70-0-0/d STRC(540)   r     1 VLR_MONINFO
    36-0-0/d STRC(432)   r     1 WRITE_STATSRQS

  ****  Section 012 RoData PSD$READ_IN

  ****  Scalars and arrays  ****
OctLoc.c.b A Datatyp(siz) R M Lvl/name                 OctLoc.c.b A Datatyp(siz) R M Lvl/name

   106-0-0/c STRC(72)    r     1 ACCT_HLPCG               120-0-0/d STRC(1080)  r     1 CLOSE_HLPCG
   176-0-0/d STRC(432)   r     1 FPT_MONINFO                0-0-0/d STRC(360)   r     1 FPT_PRECORD
   110-0-0/w STRC(288)   r     1 HLP_STA                  104-0-0/c STRC(54)    r     1 NAME_HLPCG
    12-0-0/d STRC(2088)  r     1 OPEN_HLPCG               156-0-0/d STRC(504)   r     1 READ_HLPCG

  ****  Auto variables  ****

  ****  Scalars and arrays  ****
OctLoc.c.b A Datatyp(siz) R M Lvl/name                 OctLoc.c.b A Datatyp(siz) R M Lvl/name

     4-0-0/w PTR         r     1 @ACTUAL                   12-0-0/w PTR         r     1 @DSPFLAGS
    11-0-0/w PTR         r     1 @FEPFLAGS                 13-0-0/w PTR         r     1 @LOGFLAGS
     3-0-0/w PTR         r     1 @POINTER$                 12-0-0/w PTR         r     1 @POINTER$
    11-0-0/w PTR         r     1 @VECTOR_                  13-0-0/w PTR         r     1 @WORD_COUNT
    *0-0-0/w UBIN        r     1 ACTUAL                    *0-0-0/w BIT         r     1 DSPFLAGS
     7-0-0/w UBIN        r     1 ERR                       *0-0-0/w STRC        r     1 FEPFLAGS
     6-0-0/w UBIN        r     1 FEPNO                     14-0-0/w STRC        r     1 LCLFLAGS
    *0-0-0/w BIT         r     1 LOGFLAGS                  *0-0-0/w PTR         r     1 POINTER$
    *0-0-0/w PTR         r     1 POINTER$                  *0-0-0/w STRC(72)    r     1 VECTOR_
PL6.E3A0      #002=PSD$READ_IN File=PSD$DISP.:E05TSI                             WED 07/30/97 04:28 Page:209
    *0-0-0/w UBIN        r     1 WORD_COUNT

  ****  SYMREF variables  ****

  ****  Scalars and arrays  ****
OctLoc.c.b A Datatyp(siz) R M Lvl/name                 OctLoc.c.b A Datatyp(siz) R M Lvl/name

     0-0-0/w PTR         r     1 B$JIT$                     0-0-0/w PTR         r     1 B$TCB$
     0-0-0/c CHAR(140)   r     1 PS_BUFFER
     0-0-0/w STRC(144)   r     1 PS_FEP_DISP_FLAGS(0:99)
     0-0-0/w STRC(144)   r     1 PS_FEP_LOG_FLAGS(0:99)
     0-0-0/c UBIN(9)     r     1 PS_FEP_STATUS(0:99)
     0-0-0/w STRC(14760) r     1 PS_HLPCGBUF                0-0-0/c STRC(252)   r     1 PS_LOGFILE_KEY
     0-0-0/b BIT         r     1 PS_NEED_READ_HLPCG         0-0-0/w UBIN        r     1 PS_NUM_NODES
     0-0-0/w PTR         r     1 PS_STATS$                  0-0-0/c CHAR        r     1 PS_TAG
     0-0-0/w UBIN        r     1 PS_USED_FEP_SIZE

  ****  BASED and DCB variables  ****

  ****  Scalars and arrays  ****
OctLoc.c.b A Datatyp(siz) R M Lvl/name                 OctLoc.c.b A Datatyp(siz) R M Lvl/name

     0-0-0/w STRC(2448)  r     1 B$EXCFR                    0-0-0/d STRC(8856)  r     1 B$JIT
     0-0-0/w STRC(144)   r     1 B$TCB                      0-0-0/d ASTR(3528)  r     1 F$DCB
     0-0-0N  NULL        r     1 F$LOG                      0-0-0N  NULL        r     1 M$HLPCG
     0-0-0N  NULL        r     1 M$LO                       0-0-0/c ASTR(9)     r     1 TEXTC


   Procedure PSD$READ_IN requires 286 words for executable code.
   Procedure PSD$READ_IN requires 16 words of local(AUTO) storage.
PL6.E3A0      #002=PSD$READ_IN File=PSD$DISP.:E05TSI                             WED 07/30/97 04:28 Page:210
          *** CROSS REFERENCE LISTING ***
**     DENOTES     IDENTIFIER DEFINITION
<<                 IDENTIFIER'S VALUE SET
>>                 IDENTIFIER'S VALUE USED
<>                 IDENTIFIER SET AND/OR USED
--                 IDENTIFIER REFERENCED
PL6.E3A0      #002=PSD$READ_IN File=PSD$DISP.:E05TSI                             WED 07/30/97 04:28 Page:211
          MINI XREF LISTING

ACCT_HLPCG
      7534**DCL      7451--DCLINIT
ACTUAL
      8157**DCL         7--PROC     8182<>CALL     8204--ENTRY    8206<>CALL     8215--ENTRY    8217<>CALL
      8230--ENTRY
B$EXCFR.ASL
      5962**DCL      5962--REDEF
B$EXCFR.ERR.CODE
      5976**DCL      8195>>ASSIGN
B$EXCFR.ERR.ERR#
      5976**DCL      5976--REDEF
B$EXCFR.EVID
      5975**DCL      5975--REDEF    5976--REDEF
B$EXCFR.IR
      5963**DCL      5963--REDEF
B$EXCFR.PREVSZ
      5962**DCL      5962--REDEF
B$EXCFR.SUBC
      5974**DCL      5974--REDEF    5975--REDEF    5975--REDEF
B$JIT.ERR.MID
      7214**DCL      7214--REDEF
B$JIT.PRIV.ACTIVE
      7214**DCL      8234>>IF
B$JIT.SYSID
      7213**DCL      8237>>CALLBLT  8248>>CALLBLT
B$JIT$
      7205**DCL      7208--IMP-PTR  8234>>IF       8237>>CALLBLT  8248>>CALLBLT
B$TCB.ALT$
      5958**DCL      8195>>ASSIGN
B$TCB$
      8159**DCL      8195>>ASSIGN
CLOSE_HLPCG
PL6.E3A0      #002=PSD$READ_IN File=PSD$DISP.:E05TSI                             WED 07/30/97 04:28 Page:212
      7661**DCL      8289<>CALL
CLOSE_HLPCG.SN_
      7661**DCL      7661--REDEF
CLOSE_HLPCG.UTL_
      7662**DCL      7662--REDEF
CLOSE_HLPCG.V
      7666**DCL      7661--DCLINIT
CLOSE_HLPCG.V.EXPIRE#
      7676**DCL      7676--REDEF
CLOSE_HLPCG.V.TYPE#
      7674**DCL      7674--REDEF
CLOSE_HLPCG.V.XTNSIZE#
      7671**DCL      7671--REDEF    7673--REDEF
COMPFLAGS
      8306**PROC     8260--CALL     8262--CALL     8268--CALL     8269--CALL
DSPFLAGS IN PROCEDURE COMPFLAGS
      8318**DCL      8306--PROC     8328>>ASSIGN
ERR
      8158**DCL      8185<<ASSIGN   8195<<ASSIGN   8197>>IF
ERRMSG
      8302**LABEL    8239--CALLALT  8240--CALLALT  8270--CALLALT  8282--CALLALT
F$DCB.ACTPOS
      7348**DCL      7348--REDEF
F$DCB.ARS#
      7322**DCL      7322--REDEF
F$DCB.ATTR
      7341**DCL      7342--REDEF
F$DCB.BORROW
      7356**DCL      7356--REDEF    7356--REDEF    7356--REDEF
F$DCB.DCBNAME.L
      7370**DCL      7370--IMP-SIZ
F$DCB.EOMCHAR#
      7326**DCL      7326--REDEF
F$DCB.FCD#
      7335**DCL      8232>>IF       8288>>IF
F$DCB.FLDID
PL6.E3A0      #002=PSD$READ_IN File=PSD$DISP.:E05TSI                             WED 07/30/97 04:28 Page:213
      7351**DCL      7351--REDEF
F$DCB.FORM$
      7345**DCL      7345--REDEF
F$DCB.FSECT
      7361**DCL      7361--REDEF
F$DCB.FSN#
      7338**DCL      7338--REDEF    7338--REDEF    7339--REDEF
F$DCB.HEADER$
      7344**DCL      7344--REDEF
F$DCB.IXTNSIZE#
      7342**DCL      7342--REDEF
F$DCB.LASTSTA$
      7331**DCL      7331--REDEF
F$DCB.LVL
      7357**DCL      7357--REDEF
F$DCB.NAME#.C
      7332**DCL      7332--REDEF
F$DCB.NOEOF
      7354**DCL      7354--REDEF
F$DCB.NRECS#
      7343**DCL      7343--REDEF
F$DCB.NRECX
      7362**DCL      7362--REDEF
F$DCB.OHDR
      7354**DCL      7354--REDEF
F$DCB.ORG#
      7337**DCL      7337--REDEF
F$DCB.PRECNO
      7360**DCL      7360--REDEF
F$DCB.RCSZ
      7366**DCL      7366--REDEF
F$DCB.RES#
      7333**DCL      7333--REDEF
F$DCB.SETX
      7345**DCL      7345--REDEF
F$DCB.TAB$
PL6.E3A0      #002=PSD$READ_IN File=PSD$DISP.:E05TSI                             WED 07/30/97 04:28 Page:214
      7345**DCL      7345--REDEF
F$DCB.TDA
      7359**DCL      7360--REDEF
F$DCB.WSN#
      7333**DCL      7333--REDEF
FEPFLAGS IN PROCEDURE COMPFLAGS
      8308**DCL      8306--PROC
FEPFLAGS.DBYTE0 IN PROCEDURE COMPFLAGS
      8310**DCL      8330<<ASSIGN
FEPFLAGS.DBYTE1 IN PROCEDURE COMPFLAGS
      8312**DCL      8331<<ASSIGN
FEPFLAGS.DBYTE2 IN PROCEDURE COMPFLAGS
      8314**DCL      8332<<ASSIGN
FEPFLAGS.DBYTE3 IN PROCEDURE COMPFLAGS
      8316**DCL      8333<<ASSIGN
FEPNO
      8154**DCL      8251<<DOINDEX  8253>>IF       8253>>IF       8257>>ASSIGN   8258>>CALLBLT  8260>>CALL
      8260>>CALL     8262>>CALL     8262>>CALL     8271>>ASSIGN
FPT_GETMOUSE
      7132**DCL      8219<>CALL
FPT_GETMOUSE.RESULTS_
      7132**DCL      8217<>CALL
FPT_GETPM
      7118**DCL      8208<>CALL
FPT_GETPM.RESULTS_
      7118**DCL      8206<>CALL
FPT_MONINFO
      8115**DCL      8242<>CALL
FPT_PRECORD
      7192**DCL      8199<>CALL
FPT_PRECORD.V
      7194**DCL      7192--DCLINIT
FPT_READ
      7156**DCL      8187<>CALL
FPT_READ.BUF_
      7158**DCL      8182<>CALL
PL6.E3A0      #002=PSD$READ_IN File=PSD$DISP.:E05TSI                             WED 07/30/97 04:28 Page:215
FPT_READ.STATION_
      7159**DCL      7160--REDEF
FPT_READ.V
      7160**DCL      7156--DCLINIT
FPT_READ.V.DVBYTE.REREAD#
      7171**DCL      7171--REDEF
FPT_READ.V.INDX#
      7169**DCL      7169--REDEF
FPT_WAIT
      8149**DCL      8284<>CALL
FPT_WAIT.V
      8150**DCL      8149--DCLINIT
GLURP
      8228**LABEL    8208--CALLALT  8219--CALLALT
HLP_STA
      7583**DCL      7622--DCLINIT
HLP_STA.MSGIDXT
      7593**DCL      7596--REDEF
KL_REQSTATS
      7878**DCL      7621--DCLINIT  7622--DCLINIT
KL_REQSTATS.DSPMSK
      7967**DCL      7973--REDEF    8260<>CALL     8268<>CALL
KL_REQSTATS.FEPNAME
      7948**DCL      8258<<CALLBLT
KL_REQSTATS.FNC
      7886**DCL      8247<<ASSIGN
KL_REQSTATS.NODE_NUM
      7891**DCL      8257<<ASSIGN
KL_REQSTATS.SLCMSK
      8008**DCL      8015--REDEF    8262<>CALL     8269<>CALL
KL_REQSTATS.STATSSTA
      7944**DCL      8248<<CALLBLT  8249<<CALLBLT
LCLFLAGS IN PROCEDURE COMPFLAGS
      8321**DCL      8328<<ASSIGN
LCLFLAGS.DBYTE0 IN PROCEDURE COMPFLAGS
      8323**DCL      8330>>ASSIGN
PL6.E3A0      #002=PSD$READ_IN File=PSD$DISP.:E05TSI                             WED 07/30/97 04:28 Page:216
LCLFLAGS.DBYTE1 IN PROCEDURE COMPFLAGS
      8324**DCL      8331>>ASSIGN
LCLFLAGS.DBYTE2 IN PROCEDURE COMPFLAGS
      8325**DCL      8332>>ASSIGN
LCLFLAGS.DBYTE3 IN PROCEDURE COMPFLAGS
      8326**DCL      8333>>ASSIGN
LOGFLAGS IN PROCEDURE COMPFLAGS
      8319**DCL      8306--PROC     8328>>ASSIGN
M$CLOSE
        17**DCL-ENT  8289--CALL
M$EVENT
        72**DCL-ENT  8240--CALL
M$GETMOUSE
        63**DCL-ENT  8219--CALL
M$GETPM
        64**DCL-ENT  8208--CALL
M$HLPCG
       637**DCL      8232--IF       8288--IF
M$MONINFO
        85**DCL-ENT  8242--CALL
M$OPEN
        17**DCL-ENT  8239--CALL
M$PRECORD
        21**DCL-ENT  8199--CALL
M$READ
        18**DCL-ENT  8187--CALL     8282--CALL
M$WAIT
        75**DCL-ENT  8284--CALL
M$WRITE
        18**DCL-ENT  8270--CALL
MAKE_VECTOR
      8163**PROC     8182--CALL     8206--CALL     8217--CALL
NAME_HLPCG
      7518**DCL      7447--DCLINIT
OPEN_HLPCG
      7446**DCL      8239<>CALL
PL6.E3A0      #002=PSD$READ_IN File=PSD$DISP.:E05TSI                             WED 07/30/97 04:28 Page:217
OPEN_HLPCG.ACSVEH_
      7448**DCL      7449--REDEF
OPEN_HLPCG.ALTKEYS_
      7454**DCL      7455--REDEF    7455--REDEF
OPEN_HLPCG.HDR_
      7453**DCL      7454--REDEF
OPEN_HLPCG.TAB_
      7452**DCL      7453--REDEF
OPEN_HLPCG.UHL_
      7446**DCL      7447--REDEF    7447--REDEF
OPEN_HLPCG.V
      7455**DCL      7446--DCLINIT
OPEN_HLPCG.V.FSN#
      7486**DCL      7486--REDEF    7486--REDEF
OPEN_HLPCG.WSN_
      7452**DCL      7452--REDEF
POINTER$
      8156**DCL         7--PROC     8182<>CALL     8204--ENTRY    8206<>CALL     8215--ENTRY    8217<>CALL
      8230--ENTRY
POINTER$ IN PROCEDURE MAKE_VECTOR
      8169**DCL      8163--PROC     8172>>ASSIGN
PSE$ERRMSG
      8160**DCL-ENT  8190--CALL     8235--CALL     8302--CALL
PSE$GRIPE
      8161**DCL-ENT  8293--CALL
PSF$FEPSTATS
      8153**DCL-ENT  8099--DCLINIT
PS_BUFFER
      5460**DCL      5495--DCLINIT  5497--DCLINIT
PS_COLLECT.CALCNT
      5615**DCL      5615--REDEF
PS_COLLECT.USRSRV
      5612**DCL      5613--REDEF
PS_FEP_DISP_FLAGS.DISP
      5110**DCL      8253>>IF       8260<>CALL
PS_FEP_DISP_FLAGS.SLCT
PL6.E3A0      #002=PSD$READ_IN File=PSD$DISP.:E05TSI                             WED 07/30/97 04:28 Page:218
      5176**DCL      8262<>CALL
PS_FEP_LOG_FLAGS.DISP
      5243**DCL      8253>>IF       8260<>CALL
PS_FEP_LOG_FLAGS.SLCT
      5309**DCL      8262<>CALL
PS_FEP_STATUS
      5924**DCL      8271<<ASSIGN
PS_HLPCGBUF
      5783**DCL      7705--DCLINIT  7706--DCLINIT
PS_HLPCGBUF.DSPMSK
      5872**DCL      5878--REDEF
PS_HLPCGBUF.SLCMSK
      5913**DCL      5920--REDEF
PS_LOGFILE_KEY
      5457**DCL      7156--DCLINIT  7157--DCLINIT
PS_LOGFILE_KEY.COUNT
      5457**DCL      8189>>IF
PS_LOGFILE_KEY.TAG
      5458**DCL      8188>>ASSIGN
PS_NEED_READ_HLPCG
      5629**DCL      8256<<ASSIGN   8280>>DOWHILE  8281<<ASSIGN   8283>>IF
PS_NUM_NODES
      5924**DCL      8243<<ASSIGN   8251>>DOINDEX
PS_OLD_COLLECT.CALCNT
      5619**DCL      5620--REDEF
PS_OLD_COLLECT.USRSRV
      5617**DCL      5617--REDEF
PS_STATS$
      5621**DCL      5623--IMP-PTR
PS_TAG
      5458**DCL      8188<<ASSIGN   8210<<ASSIGN   8221<<ASSIGN   8297<<ASSIGN
PS_USED_FEP_SIZE
      5629**DCL      8275<<ASSIGN   8291>>IF
READ_ALTRET
      8195**LABEL    8187--CALLALT
READ_HLPCG
PL6.E3A0      #002=PSD$READ_IN File=PSD$DISP.:E05TSI                             WED 07/30/97 04:28 Page:219
      7703**DCL      8282<>CALL
READ_HLPCG.STATION_
      7706**DCL      7707--REDEF
READ_HLPCG.V
      7707**DCL      7703--DCLINIT
READ_HLPCG.V.DVBYTE.REREAD#
      7718**DCL      7718--REDEF
READ_HLPCG.V.INDX#
      7716**DCL      7716--REDEF
SETSTA_ST
      7552**DCL      7447--DCLINIT
SETSTA_ST.MYSTATION#
      7556**DCL      8237<<CALLBLT  8238<<CALLBLT
TAKE_CONTROL
      8099**DCL      8240<>CALL
TAKE_CONTROL.V
      8099**DCL      8099--DCLINIT
TEXTC.LEN
      5625**DCL      5625--IMP-SIZ
VECTOR_ IN PROCEDURE MAKE_VECTOR
      8165**DCL      8163--PROC
VECTOR_.PTR$ IN PROCEDURE MAKE_VECTOR
      8168**DCL      8172<<ASSIGN
VECTOR_.SIZE IN PROCEDURE MAKE_VECTOR
      8166**DCL      8174<<ASSIGN
VLR_MONINFO
      8130**DCL      8115--DCLINIT
VLR_MONINFO.NUM_NODES
      8134**DCL      8243>>ASSIGN
WORD_COUNT IN PROCEDURE MAKE_VECTOR
      8170**DCL      8163--PROC     8174>>ASSIGN
WRITE_STATSRQS
      7620**DCL      8270<>CALL
WRITE_STATSRQS.STATION_
      7622**DCL      7622--REDEF
WRITE_STATSRQS.V
PL6.E3A0      #002=PSD$READ_IN File=PSD$DISP.:E05TSI                             WED 07/30/97 04:28 Page:220
      7623**DCL      7620--DCLINIT
WRITE_STATSRQS.V.DVBYTE.VFC#
      7629**DCL      7629--REDEF

PL6.E3A0      #003=PSD$EJECT File=PSD$DISP.:E05TSI                               WED 07/30/97 04:29 Page:221
     1320        1        /*M*  PSD$EJECT   Eject the M$LO DCB if it's open */
     1321        2        /*T***********************************************************/
     1322        3        /*T*                                                         */
     1323        4        /*T* Copyright (c) Bull HN Information Systems Inc., 1997    */
     1324        5        /*T*                                                         */
     1325        6        /*T***********************************************************/
     1326        7        /*X* PLM=5,IND=5,CTI=5,DCI=5,SQB=Y,PRB=Y,DTI=0,ENI=0,AND=Y,ECI=0,CSI=0,THI=0,SDI=5,M
                 7        OC=Y,CRT=1,CLM=5,DMR */
     1327        8        PSD$EJECT: PROC (LINES_NEEDED);
     1328        9
     1329       10        %INCLUDE CP_6;
     1330       91        %INCLUDE CP_6_SUBS;
     1331      631        %INCLUDE PS_DATA_R;
     1332     5927
     1333     5928    1   DCL LINES_NEEDED UBIN;
     1334     5929
     1335     5930
     1336     5931        %FPT_DEVICE (DCB=M$LO,
     1337     5932         STCLASS=CONSTANT,
     1338     5933         PAGE=YES);
     1339     5951
     1340     5952
     1341     5953        %FPT_LINES (FPTN=GET_LINES_REMAINING,
     1342     5954         STCLASS=CONSTANT,
     1343     5955         DCB=M$LO,
     1344     5956         LINES=LINES_REMAINING);
     1345     5970
     1346     5971
     1347     5972        %VLR_LINES (FPTN=LINES_REMAINING);
     1348     5986
     1349     5987
     1350     5988        %F$DCB;
     1351     6045
     1352     6046    1   DCL PSD$SKIP ENTRY;
     1353     6047
     1354     6048    1        IF DCBADDR(DCBNUM(M$LO)) -> F$DCB.FCD#
     1355     6049    2        THEN DO;
PL6.E3A0      #003=PSD$EJECT File=PSD$DISP.:E05TSI                               WED 07/30/97 04:29 Page:222
     1356     6050
     1357     6051    2             CALL M$LINES (GET_LINES_REMAINING);
     1358     6052
     1359     6053    2             IF LINES_REMAINING.RLINES# = -1
     1360     6054    3             THEN DO;
     1361     6055
     1362     6056    3                  IF ADDR(LINES_NEEDED) = ADDR(NIL)
     1363     6057    3                  THEN
     1364     6058    3                       CALL PSD$SKIP;
     1365     6059
     1366     6060    3             END;
     1367     6061
     1368     6062    2             ELSE
     1369     6063    2                  IF ADDR(LINES_NEEDED) = ADDR(NIL)
     1370     6064    2                       OR LINES_NEEDED > LINES_REMAINING.RLINES#
     1371     6065    2                  THEN
     1372     6066    2                       CALL M$DEVICE (FPT_DEVICE);
     1373     6067
     1374     6068    2        END;
     1375     6069
     1376     6070    1        RETURN;
     1377     6071
     1378     6072    1   END PSD$EJECT;
     1379     6073        %EOD;

PL6.E3A0      #003=PSD$EJECT File=PSD$DISP.:E05TSI                               WED 07/30/97 04:29 Page:223
--  Include file information  --

   KL_MACRO_C.:E05TOU  is referenced.
   KL_AFCN_C.:E05TOU  is referenced.
   P_FEP_M.:E05TOU  is referenced.
   K_ID_E.:E05TOU  is referenced.
   XU_FORMAT_C.:E05TOU  is referenced.
   PM_BUCKET_C.:E05TOU  is referenced.
   PS_SUBS_C.:E05TOU  is referenced.
   PS_DATA_R.:E05TOU  cannot be made into a system file and is referenced.
   CP_6_SUBS.:E05TOU  is referenced.
   CP_6.:E05TOU  cannot be made into a system file and is referenced.
   B$JIT_C.:E05TOU  was found in the system file and is never referenced.
   CP_6_C.:E05TOU  was found in the system file and is referenced.
      No diagnostics issued in procedure PSD$EJECT.

   Procedure PSD$EJECT requires 35 words for executable code.
   Procedure PSD$EJECT requires 6 words of local(AUTO) storage.

PL6.E3A0      #003=PSD$EJECT File=PSD$DISP.:E05TSI                               WED 07/30/97 04:29 Page:224

 Object Unit name= PSD$EJECT                                  File name= PSD$DISP.:E05TOU
 UTS= JUL 30 '97 04:29:29.80 WED                              Compiler= PL-6/E31         Sev=      00
 SharedLib= :SHARED_SYSTEM                                    Alt SharedLib=


    ****  Control sections  ****

 Sect   Type Bound  Init  Size OctSiz  Section name(segment info)
    0   DCB   even  none     0      0  M$UC
    1   DCB   even  none     0      0  M$LO
    2   DCB   even  none     0      0  M$DO
    3   DCB   even  none     0      0  M$SI
    4   DCB   even  none     0      0  F$LOG
    5   DCB   even  none     0      0  M$ME
    6   DCB   even  none     0      0  M$HLPCG
    7  RtLbCm even  none    30     36  PS_FDS
    8  RtLbCm even  none    32     40  PS_SELECT_RPN
    9  RtLbCm even  none    17     21  PS_STATS_RPN
   10  RtLbCm even  none    34     42  PS_STATS_BUCKET
   11  RoData even  UTS     16     20  PSD$EJECT
   12   Data  even  none     2      2  PSD$EJECT
   13   Proc  even  none    35     43  PSD$EJECT
   14  RoData even  none     1      1  PSD$EJECT

    ****  Entry defs  ****

                              Check   Calling
                             calling  sequence
  Sect OctLoc Primary Altret sequence   type   Parms  Name
    13      0   yes            yes      Std        1  PSD$EJECT
PL6.E3A0      #003=PSD$EJECT File=PSD$DISP.:E05TSI                               WED 07/30/97 04:29 Page:225

  ****  Entry refs  ****

         Check        Calling
        calling       sequence
Altret sequence SRef   type   Args  Name
         yes           Std       0 PSD$SKIP
                       nStd      0 X66_AUTO_1
                       Std       0 B_CONSPOOL_D
                       nStd      0 X66_ARET

  ****  Data refs  ****

  Flags:  r = read only, s = secondary
Flgs Name                             Flgs Name                             Flgs Name
     M$UC                                  M$LO                                  M$DO
     M$SI                                  F$LOG                                 M$ME
     M$HLPCG                               PS_BUFFER                             PS_STATS$
     B_VECTNIL

  ****  Segment refs  ****

  Flags:  r = read only, s = secondary
Flgs Name                             Flgs Name                             Flgs Name
     NULLSID                               ISSID                                 ROSID
PL6.E3A0      #003=PSD$EJECT File=PSD$DISP.:E05TSI                               WED 07/30/97 04:29 Page:226


     1320        1        /*M*  PSD$EJECT   Eject the M$LO DCB if it's open */
     1321        2        /*T***********************************************************/
     1322        3        /*T*                                                         */
     1323        4        /*T* Copyright (c) Bull HN Information Systems Inc., 1997    */
     1324        5        /*T*                                                         */
     1325        6        /*T***********************************************************/
     1326        7       /*X* PLM=5,IND=5,CTI=5,DCI=5,SQB=Y,PRB=Y,DTI=0,ENI=0,AND=Y,ECI=0,CSI=0,THI=0,SDI=5,M
                 7        OC=Y,CRT=1,CLM=5,DMR */
     1327        8        PSD$EJECT: PROC (LINES_NEEDED);

      8 13 000000   000000 700200 xent  PSD$EJECT    TSX0  ! X66_AUTO_1
        13 000001   000006 000001                    ZERO    6,1

     1328        9
     1329       10        %INCLUDE CP_6;
     1330       91        %INCLUDE CP_6_SUBS;
     1331      631        %INCLUDE PS_DATA_R;
     1332     5927
     1333     5928    1   DCL LINES_NEEDED UBIN;
     1334     5929
     1335     5930
     1336     5931        %FPT_DEVICE (DCB=M$LO,
     1337     5932         STCLASS=CONSTANT,
     1338     5933         PAGE=YES);
     1339     5951
     1340     5952
     1341     5953        %FPT_LINES (FPTN=GET_LINES_REMAINING,
     1342     5954         STCLASS=CONSTANT,
     1343     5955         DCB=M$LO,
     1344     5956         LINES=LINES_REMAINING);
     1345     5970
     1346     5971
     1347     5972        %VLR_LINES (FPTN=LINES_REMAINING);
     1348     5986
     1349     5987
     1350     5988        %F$DCB;
PL6.E3A0      #003=PSD$EJECT File=PSD$DISP.:E05TSI                               WED 07/30/97 04:29 Page:227
     1351     6045
     1352     6046    1   DCL PSD$SKIP ENTRY;
     1353     6047
     1354     6048    1        IF DCBADDR(DCBNUM(M$LO)) -> F$DCB.FCD#

   6048 13 000002   000000 236007 xsym               LDQ     M$LO,DL
        13 000003   000000 470400 14                 LDP0    0
        13 000004   000000 471500                    LDP1    0,,PR0
        13 000005   100000 473506                    LDP3    0,QL,PR1
        13 000006   300031 236100                    LDQ     25,,PR3
        13 000007   020000 316007                    CANQ    8192,DL
        13 000010   000042 600000 13                 TZE     s:6070

     1355     6049    2        THEN DO;

     1356     6050
     1357     6051    2             CALL M$LINES (GET_LINES_REMAINING);

   6051 13 000011   000012 630400 11                 EPPR0   GET_LINES_REMAINING
        13 000012   050005 713400                    CLIMB   20485
        13 000013   400400 401760                    pmme    nvectors=2

     1358     6052
     1359     6053    2             IF LINES_REMAINING.RLINES# = -1

   6053 13 000014   000000 220000 12                 LDX0    LINES_REMAINING
        13 000015   777777 100003                    CMPX0   -1,DU
        13 000016   000026 601000 13                 TNZ     s:6063

     1360     6054    3             THEN DO;

     1361     6055
     1362     6056    3                  IF ADDR(LINES_NEEDED) = ADDR(NIL)

   6056 13 000017   200003 236100                    LDQ     @LINES_NEEDED,,AUTO
        13 000020   000001 116000 xsym               CMPQ    B_VECTNIL+1
        13 000021   000042 601000 13                 TNZ     s:6070
PL6.E3A0      #003=PSD$EJECT File=PSD$DISP.:E05TSI                               WED 07/30/97 04:29 Page:228

     1363     6057    3                  THEN
     1364     6058    3                       CALL PSD$SKIP;

   6058 13 000022   000002 631400 xsym               EPPR1   B_VECTNIL+2
        13 000023   000000 701000 xent               TSX1    PSD$SKIP
        13 000024   000000 011000                    NOP     0

     1365     6059
     1366     6060    3             END;

   6060 13 000025   000042 710000 13                 TRA     s:6070

     1367     6061
     1368     6062    2             ELSE
     1369     6063    2                  IF ADDR(LINES_NEEDED) = ADDR(NIL)

   6063 13 000026   200003 236100                    LDQ     @LINES_NEEDED,,AUTO
        13 000027   000001 116000 xsym               CMPQ    B_VECTNIL+1
        13 000030   000037 600000 13                 TZE     s:6066
        13 000031   200003 470500                    LDP0    @LINES_NEEDED,,AUTO
        13 000032   000000 236000 12                 LDQ     LINES_REMAINING
        13 000033   000022 732000                    QRS     18
        13 000034   000037 604000 13                 TMI     s:6066
        13 000035   000000 116100                    CMPQ    0,,PR0
        13 000036   000042 603000 13                 TRC     s:6070

     1370     6064    2                       OR LINES_NEEDED > LINES_REMAINING.RLINES#
     1371     6065    2                  THEN
     1372     6066    2                       CALL M$DEVICE (FPT_DEVICE);

   6066 13 000037   000000 630400 11                 EPPR0   FPT_DEVICE
        13 000040   050006 713400                    CLIMB   20486
        13 000041   401000 401760                    pmme    nvectors=3

     1373     6067
     1374     6068    2        END;
PL6.E3A0      #003=PSD$EJECT File=PSD$DISP.:E05TSI                               WED 07/30/97 04:29 Page:229

     1375     6069
     1376     6070    1        RETURN;

   6070 13 000042   000000 702200 xent               TSX2  ! X66_ARET
     1377     6071
     1378     6072    1   END PSD$EJECT;
     1379     6073        %EOD;

PL6.E3A0      #003=PSD$EJECT File=PSD$DISP.:E05TSI                               WED 07/30/97 04:29 Page:230
--  Include file information  --

   KL_MACRO_C.:E05TOU  is referenced.
   KL_AFCN_C.:E05TOU  is referenced.
   P_FEP_M.:E05TOU  is referenced.
   K_ID_E.:E05TOU  is referenced.
   XU_FORMAT_C.:E05TOU  is referenced.
   PM_BUCKET_C.:E05TOU  is referenced.
   PS_SUBS_C.:E05TOU  is referenced.
   PS_DATA_R.:E05TOU  cannot be made into a system file and is referenced.
   CP_6_SUBS.:E05TOU  is referenced.
   CP_6.:E05TOU  cannot be made into a system file and is referenced.
   B$JIT_C.:E05TOU  was found in the system file and is never referenced.
   CP_6_C.:E05TOU  was found in the system file and is referenced.
      No diagnostics issued in procedure PSD$EJECT.
PL6.E3A0      #003=PSD$EJECT File=PSD$DISP.:E05TSI                               WED 07/30/97 04:29 Page:231

 **** Variables and constants ****

  ****  Section 011 RoData PSD$EJECT

  ****  Scalars and arrays  ****
OctLoc.c.b A Datatyp(siz) R M Lvl/name                 OctLoc.c.b A Datatyp(siz) R M Lvl/name

     0-0-0/d STRC(360)   r     1 FPT_DEVICE                12-0-0/d STRC(216)   r     1 GET_LINES_REMAINING

  ****  Section 012  Data  PSD$EJECT

  ****  Scalars and arrays  ****
OctLoc.c.b A Datatyp(siz) R M Lvl/name                 OctLoc.c.b A Datatyp(siz) R M Lvl/name

     0-0-0/d STRC(72)    r     1 LINES_REMAINING

  ****  Auto variables  ****

  ****  Scalars and arrays  ****
OctLoc.c.b A Datatyp(siz) R M Lvl/name                 OctLoc.c.b A Datatyp(siz) R M Lvl/name

     3-0-0/w PTR         r     1 @LINES_NEEDED             *0-0-0/w UBIN        r     1 LINES_NEEDED

  ****  SYMREF variables  ****

  ****  Scalars and arrays  ****
OctLoc.c.b A Datatyp(siz) R M Lvl/name                 OctLoc.c.b A Datatyp(siz) R M Lvl/name

     0-0-0/c CHAR(140)   r     1 PS_BUFFER                  0-0-0/w PTR         r     1 PS_STATS$

  ****  BASED and DCB variables  ****

  ****  Scalars and arrays  ****
OctLoc.c.b A Datatyp(siz) R M Lvl/name                 OctLoc.c.b A Datatyp(siz) R M Lvl/name

     0-0-0/d ASTR(3528)  r     1 F$DCB                      0-0-0N  NULL        r     1 M$LO
     0-0-0/c ASTR(9)     r     1 TEXTC
PL6.E3A0      #003=PSD$EJECT File=PSD$DISP.:E05TSI                               WED 07/30/97 04:29 Page:232


   Procedure PSD$EJECT requires 35 words for executable code.
   Procedure PSD$EJECT requires 6 words of local(AUTO) storage.
PL6.E3A0      #003=PSD$EJECT File=PSD$DISP.:E05TSI                               WED 07/30/97 04:29 Page:233
          *** CROSS REFERENCE LISTING ***
**     DENOTES     IDENTIFIER DEFINITION
<<                 IDENTIFIER'S VALUE SET
>>                 IDENTIFIER'S VALUE USED
<>                 IDENTIFIER SET AND/OR USED
--                 IDENTIFIER REFERENCED
PL6.E3A0      #003=PSD$EJECT File=PSD$DISP.:E05TSI                               WED 07/30/97 04:29 Page:234
          MINI XREF LISTING

F$DCB.ACTPOS
      6021**DCL      6021--REDEF
F$DCB.ARS#
      5995**DCL      5995--REDEF
F$DCB.ATTR
      6014**DCL      6015--REDEF
F$DCB.BORROW
      6029**DCL      6029--REDEF    6029--REDEF    6029--REDEF
F$DCB.DCBNAME.L
      6043**DCL      6043--IMP-SIZ
F$DCB.EOMCHAR#
      5999**DCL      5999--REDEF
F$DCB.FCD#
      6008**DCL      6048>>IF
F$DCB.FLDID
      6024**DCL      6024--REDEF
F$DCB.FORM$
      6018**DCL      6018--REDEF
F$DCB.FSECT
      6034**DCL      6034--REDEF
F$DCB.FSN#
      6011**DCL      6011--REDEF    6011--REDEF    6012--REDEF
F$DCB.HEADER$
      6017**DCL      6017--REDEF
F$DCB.IXTNSIZE#
      6015**DCL      6015--REDEF
F$DCB.LASTSTA$
      6004**DCL      6004--REDEF
F$DCB.LVL
      6030**DCL      6030--REDEF
F$DCB.NAME#.C
      6005**DCL      6005--REDEF
PL6.E3A0      #003=PSD$EJECT File=PSD$DISP.:E05TSI                               WED 07/30/97 04:29 Page:235
F$DCB.NOEOF
      6027**DCL      6027--REDEF
F$DCB.NRECS#
      6016**DCL      6016--REDEF
F$DCB.NRECX
      6035**DCL      6035--REDEF
F$DCB.OHDR
      6027**DCL      6027--REDEF
F$DCB.ORG#
      6010**DCL      6010--REDEF
F$DCB.PRECNO
      6033**DCL      6033--REDEF
F$DCB.RCSZ
      6039**DCL      6039--REDEF
F$DCB.RES#
      6006**DCL      6006--REDEF
F$DCB.SETX
      6018**DCL      6018--REDEF
F$DCB.TAB$
      6018**DCL      6018--REDEF
F$DCB.TDA
      6032**DCL      6033--REDEF
F$DCB.WSN#
      6006**DCL      6006--REDEF
FPT_DEVICE
      5944**DCL      6066<>CALL
FPT_DEVICE.V
      5945**DCL      5944--DCLINIT
GET_LINES_REMAINING
      5967**DCL      6051<>CALL
GET_LINES_REMAINING.V
      5967**DCL      5967--DCLINIT
LINES_NEEDED
      5928**DCL         8--PROC     6056--IF       6063--IF       6063>>IF
LINES_REMAINING
      5983**DCL      5967--DCLINIT
PL6.E3A0      #003=PSD$EJECT File=PSD$DISP.:E05TSI                               WED 07/30/97 04:29 Page:236
LINES_REMAINING.RLINES#
      5983**DCL      6053>>IF       6063>>IF
M$DEVICE
        23**DCL-ENT  6066--CALL
M$LINES
        24**DCL-ENT  6051--CALL
M$LO
       639**DCL      6048--IF
PSD$SKIP
      6046**DCL-ENT  6058--CALL
PS_BUFFER
      5462**DCL      5497--DCLINIT  5499--DCLINIT
PS_COLLECT.CALCNT
      5617**DCL      5617--REDEF
PS_COLLECT.USRSRV
      5614**DCL      5615--REDEF
PS_HLPCGBUF.DSPMSK
      5874**DCL      5880--REDEF
PS_HLPCGBUF.SLCMSK
      5915**DCL      5922--REDEF
PS_OLD_COLLECT.CALCNT
      5621**DCL      5622--REDEF
PS_OLD_COLLECT.USRSRV
      5619**DCL      5619--REDEF
PS_STATS$
      5623**DCL      5625--IMP-PTR
TEXTC.LEN
      5627**DCL      5627--IMP-SIZ

PL6.E3A0      #004=PSD$SKIP File=PSD$DISP.:E05TSI                                WED 07/30/97 04:30 Page:237
     1380        1        /*T***********************************************************/
     1381        2        /*T*                                                         */
     1382        3        /*T* Copyright (c) Bull HN Information Systems Inc., 1997    */
     1383        4        /*T*                                                         */
     1384        5        /*T***********************************************************/
     1385        6        PSD$SKIP: PROC;
     1386        7        %INCLUDE CP_6;
     1387       88        %INCLUDE PS_DATA_R;
     1388     5384    1   DCL SKIP_FMT CHAR(0) CONSTANT INIT (' ');
     1389     5385        %INCLUDE XUF_ENTRY;
     1390     5393
     1391     5394    1        CALL X$WRITE (PS_FDS, VECTOR(SKIP_FMT));
     1392     5395
     1393     5396    1        RETURN;
     1394     5397
     1395     5398    1   END PSD$SKIP;
     1396     5399        %EOD;

PL6.E3A0      #004=PSD$SKIP File=PSD$DISP.:E05TSI                                WED 07/30/97 04:30 Page:238
--  Include file information  --

   XUF_ENTRY.:E05TOU  cannot be made into a system file and is referenced.
   KL_MACRO_C.:E05TOU  is referenced.
   KL_AFCN_C.:E05TOU  is referenced.
   P_FEP_M.:E05TOU  is referenced.
   K_ID_E.:E05TOU  is referenced.
   XU_FORMAT_C.:E05TOU  is referenced.
   PM_BUCKET_C.:E05TOU  is referenced.
   PS_SUBS_C.:E05TOU  is referenced.
   PS_DATA_R.:E05TOU  cannot be made into a system file and is referenced.
   CP_6.:E05TOU  cannot be made into a system file and is referenced.
   B$JIT_C.:E05TOU  was found in the system file and is never referenced.
   CP_6_C.:E05TOU  was found in the system file and is referenced.
      No diagnostics issued in procedure PSD$SKIP.

   Procedure PSD$SKIP requires 7 words for executable code.
   Procedure PSD$SKIP requires 4 words of local(AUTO) storage.

PL6.E3A0      #004=PSD$SKIP File=PSD$DISP.:E05TSI                                WED 07/30/97 04:30 Page:239

 Object Unit name= PSD$SKIP                                   File name= PSD$DISP.:E05TOU
 UTS= JUL 30 '97 04:30:05.16 WED                              Compiler= PL-6/E31         Sev=      00
 SharedLib= :SHARED_SYSTEM                                    Alt SharedLib=


    ****  Control sections  ****

 Sect   Type Bound  Init  Size OctSiz  Section name(segment info)
    0   DCB   even  none     0      0  M$UC
    1   DCB   even  none     0      0  M$LO
    2   DCB   even  none     0      0  M$DO
    3   DCB   even  none     0      0  M$SI
    4   DCB   even  none     0      0  F$LOG
    5   DCB   even  none     0      0  M$ME
    6   DCB   even  none     0      0  M$HLPCG
    7  RtLbCm even  none    30     36  PS_FDS
    8  RtLbCm even  none    32     40  PS_SELECT_RPN
    9  RtLbCm even  none    17     21  PS_STATS_RPN
   10  RtLbCm even  none    34     42  PS_STATS_BUCKET
   11  RoData even  UTS      1      1  PSD$SKIP
   12   Proc  even  none     7      7  PSD$SKIP
   13  RoData even  none     4      4  PSD$SKIP

    ****  Entry defs  ****

                              Check   Calling
                             calling  sequence
  Sect OctLoc Primary Altret sequence   type   Parms  Name
    12      0   yes            yes      Std        0  PSD$SKIP
PL6.E3A0      #004=PSD$SKIP File=PSD$DISP.:E05TSI                                WED 07/30/97 04:30 Page:240

  ****  Entry refs  ****

         Check        Calling
        calling       sequence
Altret sequence SRef   type   Args  Name
         yes           Std      22 X$WRITE
                       nStd      0 X66_AUTO_0
                       Std       0 B_CONSPOOL_D
                       nStd      0 X66_ARET

  ****  Data refs  ****

  Flags:  r = read only, s = secondary
Flgs Name                             Flgs Name                             Flgs Name
     M$UC                                  M$LO                                  M$DO
     M$SI                                  F$LOG                                 M$ME
     M$HLPCG                               PS_BUFFER                             PS_STATS$
     B_VECTNIL

  ****  Segment refs  ****

  Flags:  r = read only, s = secondary
Flgs Name                             Flgs Name                             Flgs Name
     NULLSID                               ISSID
PL6.E3A0      #004=PSD$SKIP File=PSD$DISP.:E05TSI                                WED 07/30/97 04:30 Page:241


     1380        1        /*T***********************************************************/
     1381        2        /*T*                                                         */
     1382        3        /*T* Copyright (c) Bull HN Information Systems Inc., 1997    */
     1383        4        /*T*                                                         */
     1384        5        /*T***********************************************************/
     1385        6        PSD$SKIP: PROC;

      6 12 000000   000000 700200 xent  PSD$SKIP     TSX0  ! X66_AUTO_0
        12 000001   000004 000000                    ZERO    4,0

     1386        7        %INCLUDE CP_6;
     1387       88        %INCLUDE PS_DATA_R;
     1388     5384    1   DCL SKIP_FMT CHAR(0) CONSTANT INIT (' ');
     1389     5385        %INCLUDE XUF_ENTRY;
     1390     5393
     1391     5394    1        CALL X$WRITE (PS_FDS, VECTOR(SKIP_FMT));

   5394 12 000002   000002 630400 13                 EPPR0   2
        12 000003   000020 631400 xsym               EPPR1   B_VECTNIL+16
        12 000004   000000 701000 xent               TSX1    X$WRITE
        12 000005   000000 011000                    NOP     0

     1392     5395
     1393     5396    1        RETURN;

   5396 12 000006   000000 702200 xent               TSX2  ! X66_ARET
     1394     5397
     1395     5398    1   END PSD$SKIP;
     1396     5399        %EOD;

PL6.E3A0      #004=PSD$SKIP File=PSD$DISP.:E05TSI                                WED 07/30/97 04:30 Page:242
--  Include file information  --

   XUF_ENTRY.:E05TOU  cannot be made into a system file and is referenced.
   KL_MACRO_C.:E05TOU  is referenced.
   KL_AFCN_C.:E05TOU  is referenced.
   P_FEP_M.:E05TOU  is referenced.
   K_ID_E.:E05TOU  is referenced.
   XU_FORMAT_C.:E05TOU  is referenced.
   PM_BUCKET_C.:E05TOU  is referenced.
   PS_SUBS_C.:E05TOU  is referenced.
   PS_DATA_R.:E05TOU  cannot be made into a system file and is referenced.
   CP_6.:E05TOU  cannot be made into a system file and is referenced.
   B$JIT_C.:E05TOU  was found in the system file and is never referenced.
   CP_6_C.:E05TOU  was found in the system file and is referenced.
      No diagnostics issued in procedure PSD$SKIP.
PL6.E3A0      #004=PSD$SKIP File=PSD$DISP.:E05TSI                                WED 07/30/97 04:30 Page:243

 **** Variables and constants ****

  ****  Section 007 RtLmCm PS_FDS

  ****  Scalars and arrays  ****
OctLoc.c.b A Datatyp(siz) R M Lvl/name                 OctLoc.c.b A Datatyp(siz) R M Lvl/name

     0-0-0/w STRC(1080)  r     1 PS_FDS

  ****  Section 011 RoData PSD$SKIP

  ****  Scalars and arrays  ****
OctLoc.c.b A Datatyp(siz) R M Lvl/name                 OctLoc.c.b A Datatyp(siz) R M Lvl/name

     0-0-0/c CHAR        r     1 SKIP_FMT

  ****  SYMREF variables  ****

  ****  Scalars and arrays  ****
OctLoc.c.b A Datatyp(siz) R M Lvl/name                 OctLoc.c.b A Datatyp(siz) R M Lvl/name

     0-0-0/c CHAR(140)   r     1 PS_BUFFER                  0-0-0/w PTR         r     1 PS_STATS$

  ****  BASED and DCB variables  ****

  ****  Scalars and arrays  ****
OctLoc.c.b A Datatyp(siz) R M Lvl/name                 OctLoc.c.b A Datatyp(siz) R M Lvl/name

     0-0-0N  NULL        r     1 M$LO                       0-0-0/c ASTR(9)     r     1 TEXTC


   Procedure PSD$SKIP requires 7 words for executable code.
   Procedure PSD$SKIP requires 4 words of local(AUTO) storage.
PL6.E3A0      #004=PSD$SKIP File=PSD$DISP.:E05TSI                                WED 07/30/97 04:30 Page:244
          *** CROSS REFERENCE LISTING ***
**     DENOTES     IDENTIFIER DEFINITION
<<                 IDENTIFIER'S VALUE SET
>>                 IDENTIFIER'S VALUE USED
<>                 IDENTIFIER SET AND/OR USED
--                 IDENTIFIER REFERENCED
PL6.E3A0      #004=PSD$SKIP File=PSD$DISP.:E05TSI                                WED 07/30/97 04:30 Page:245
          MINI XREF LISTING

PS_BUFFER
      4919**DCL      4954--DCLINIT  4956--DCLINIT
PS_COLLECT.CALCNT
      5074**DCL      5074--REDEF
PS_COLLECT.USRSRV
      5071**DCL      5072--REDEF
PS_FDS
      4936**DCL      5394<>CALL
PS_HLPCGBUF.DSPMSK
      5331**DCL      5337--REDEF
PS_HLPCGBUF.SLCMSK
      5372**DCL      5379--REDEF
PS_OLD_COLLECT.CALCNT
      5078**DCL      5079--REDEF
PS_OLD_COLLECT.USRSRV
      5076**DCL      5076--REDEF
PS_STATS$
      5080**DCL      5082--IMP-PTR
SKIP_FMT
      5384**DCL      5394--CALL
TEXTC.LEN
      5084**DCL      5084--IMP-SIZ
X$WRITE
      5391**DCL-ENT  5394--CALL

PL6.E3A0      #005=PSD$HEADER File=PSD$DISP.:E05TSI                              WED 07/30/97 04:30 Page:246
     1397        1        /*T***********************************************************/
     1398        2        /*T*                                                         */
     1399        3        /*T* Copyright (c) Bull HN Information Systems Inc., 1997    */
     1400        4        /*T*                                                         */
     1401        5        /*T***********************************************************/
     1402        6        PSD$HEADER: PROC (INTERVAL_START, INTERVAL_END);
     1403        7        %INCLUDE CP_6;
     1404       88        %INCLUDE PS_DATA_R;
     1405     5384
     1406     5385    1   DCL 1 HEADER_FORMAT CONSTANT,
     1407     5386    1            2 * CHAR(0) INIT ('%/%22-CP-6 STATS performance displays%/%/'),
     1408     5387    1            2 * CHAR(0) INIT ('%15-Interval from  %A%/%26-to  %A');
     1409     5388
     1410     5389    1   DCL FAST_FORMAT CHAR (0) CONSTANT
     1411     5390    1    INIT ('%/%15-STATS interval from %A to %A   ');
     1412     5391
     1413     5392
     1414     5393
     1415     5394        %EXT_TIME (NAME=INT_START, STCLASS=STATIC);
     1416     5402
     1417     5403        %EXT_TIME (NAME=INT_END, STCLASS=STATIC);
     1418     5411
     1419     5412    1   DCL INTERVAL_START UBIN;
     1420     5413    1   DCL INTERVAL_END UBIN;
     1421     5414    1   DCL PSL$TIME ENTRY (2);
     1422     5415        %INCLUDE XUF_ENTRY;
     1423     5423
     1424     5424    1        CALL PSL$TIME (INTERVAL_START, INT_START);
     1425     5425    1        CALL PSL$TIME (INTERVAL_END, INT_END);
     1426     5426
     1427     5427    1        IF PS_TODAYS_DATE = INT_START.DATE@
     1428     5428    1             AND PS_TODAYS_DATE = INT_END.DATE@
     1429     5429    1        THEN
     1430     5430    1             CALL X$WRITE (PS_FDS, VECTOR(FAST_FORMAT),
     1431     5431    1                  VECTOR(INT_START.TIME@), VECTOR(INT_END.TIME@));
     1432     5432    1        ELSE
     1433     5433    1             CALL X$WRITE (PS_FDS, VECTOR(HEADER_FORMAT),
PL6.E3A0      #005=PSD$HEADER File=PSD$DISP.:E05TSI                              WED 07/30/97 04:30 Page:247
     1434     5434    1                  VECTOR(INT_START), VECTOR(INT_END));
     1435     5435
     1436     5436    1        RETURN;
     1437     5437
     1438     5438    1   END PSD$HEADER;

PL6.E3A0      #005=PSD$HEADER File=PSD$DISP.:E05TSI                              WED 07/30/97 04:30 Page:248
--  Include file information  --

   XUF_ENTRY.:E05TOU  cannot be made into a system file and is referenced.
   KL_MACRO_C.:E05TOU  is referenced.
   KL_AFCN_C.:E05TOU  is referenced.
   P_FEP_M.:E05TOU  is referenced.
   K_ID_E.:E05TOU  is referenced.
   XU_FORMAT_C.:E05TOU  is referenced.
   PM_BUCKET_C.:E05TOU  is referenced.
   PS_SUBS_C.:E05TOU  is referenced.
   PS_DATA_R.:E05TOU  cannot be made into a system file and is referenced.
   CP_6.:E05TOU  cannot be made into a system file and is referenced.
   B$JIT_C.:E05TOU  was found in the system file and is never referenced.
   CP_6_C.:E05TOU  was found in the system file and is referenced.
      No diagnostics issued in procedure PSD$HEADER.

   Procedure PSD$HEADER requires 34 words for executable code.
   Procedure PSD$HEADER requires 8 words of local(AUTO) storage.

    No errors detected in file PSD$DISP.:E05TSI    .

PL6.E3A0      #005=PSD$HEADER File=PSD$DISP.:E05TSI                              WED 07/30/97 04:30 Page:249

 Object Unit name= PSD$HEADER                                 File name= PSD$DISP.:E05TOU
 UTS= JUL 30 '97 04:30:40.84 WED                              Compiler= PL-6/E31         Sev=      00
 SharedLib= :SHARED_SYSTEM                                    Alt SharedLib=


    ****  Control sections  ****

 Sect   Type Bound  Init  Size OctSiz  Section name(segment info)
    0   DCB   even  none     0      0  M$UC
    1   DCB   even  none     0      0  M$LO
    2   DCB   even  none     0      0  M$DO
    3   DCB   even  none     0      0  M$SI
    4   DCB   even  none     0      0  F$LOG
    5   DCB   even  none     0      0  M$ME
    6   DCB   even  none     0      0  M$HLPCG
    7  RtLbCm even  none    30     36  PS_FDS
    8  RtLbCm even  none    32     40  PS_SELECT_RPN
    9  RtLbCm even  none    17     21  PS_STATS_RPN
   10  RtLbCm even  none    34     42  PS_STATS_BUCKET
   11  RoData even  UTS     29     35  PSD$HEADER
   12   Data  even  none    16     20  PSD$HEADER
   13   Proc  even  none    34     42  PSD$HEADER
   14  RoData even  none    22     26  PSD$HEADER

    ****  Entry defs  ****

                              Check   Calling
                             calling  sequence
  Sect OctLoc Primary Altret sequence   type   Parms  Name
    13      0   yes            yes      Std        2  PSD$HEADER
PL6.E3A0      #005=PSD$HEADER File=PSD$DISP.:E05TSI                              WED 07/30/97 04:30 Page:250

  ****  Entry refs  ****

         Check        Calling
        calling       sequence
Altret sequence SRef   type   Args  Name
         yes           Std       2 PSL$TIME
         yes           Std      22 X$WRITE
                       nStd      0 X66_AUTO_2
                       Std       0 B_CONSPOOL_D
                       nStd      0 X66_ARET

  ****  Data refs  ****

  Flags:  r = read only, s = secondary
Flgs Name                             Flgs Name                             Flgs Name
     M$UC                                  M$LO                                  M$DO
     M$SI                                  F$LOG                                 M$ME
     M$HLPCG                               PS_BUFFER                             PS_TODAYS_DATE
     PS_STATS$                             B_VECTNIL

  ****  Segment refs  ****

  Flags:  r = read only, s = secondary
Flgs Name                             Flgs Name                             Flgs Name
     NULLSID                               ISSID
PL6.E3A0      #005=PSD$HEADER File=PSD$DISP.:E05TSI                              WED 07/30/97 04:30 Page:251


     1397        1        /*T***********************************************************/
     1398        2        /*T*                                                         */
     1399        3        /*T* Copyright (c) Bull HN Information Systems Inc., 1997    */
     1400        4        /*T*                                                         */
     1401        5        /*T***********************************************************/
     1402        6        PSD$HEADER: PROC (INTERVAL_START, INTERVAL_END);

      6 13 000000   000000 700200 xent  PSD$HEADER   TSX0  ! X66_AUTO_2
        13 000001   000010 000002                    ZERO    8,2

     1403        7        %INCLUDE CP_6;
     1404       88        %INCLUDE PS_DATA_R;
     1405     5384
     1406     5385    1   DCL 1 HEADER_FORMAT CONSTANT,
     1407     5386    1            2 * CHAR(0) INIT ('%/%22-CP-6 STATS performance displays%/%/'),
     1408     5387    1            2 * CHAR(0) INIT ('%15-Interval from  %A%/%26-to  %A');
     1409     5388
     1410     5389    1   DCL FAST_FORMAT CHAR (0) CONSTANT
     1411     5390    1    INIT ('%/%15-STATS interval from %A to %A   ');
     1412     5391
     1413     5392
     1414     5393
     1415     5394        %EXT_TIME (NAME=INT_START, STCLASS=STATIC);
     1416     5402
     1417     5403        %EXT_TIME (NAME=INT_END, STCLASS=STATIC);
     1418     5411
     1419     5412    1   DCL INTERVAL_START UBIN;
     1420     5413    1   DCL INTERVAL_END UBIN;
     1421     5414    1   DCL PSL$TIME ENTRY (2);
     1422     5415        %INCLUDE XUF_ENTRY;
     1423     5423
     1424     5424    1        CALL PSL$TIME (INTERVAL_START, INT_START);

   5424 13 000002   000000 236000 14                 LDQ     0
        13 000003   200003 235100                    LDA     @INTERVAL_START,,AUTO
        13 000004   200006 757100                    STAQ    @INTERVAL_END+2,,AUTO
PL6.E3A0      #005=PSD$HEADER File=PSD$DISP.:E05TSI                              WED 07/30/97 04:30 Page:252
        13 000005   200006 630500                    EPPR0   @INTERVAL_END+2,,AUTO
        13 000006   000020 631400 xsym               EPPR1   B_VECTNIL+16
        13 000007   000000 701000 xent               TSX1    PSL$TIME
        13 000010   000000 011000                    NOP     0

     1425     5425    1        CALL PSL$TIME (INTERVAL_END, INT_END);

   5425 13 000011   000001 236000 14                 LDQ     1
        13 000012   200004 235100                    LDA     @INTERVAL_END,,AUTO
        13 000013   200006 757100                    STAQ    @INTERVAL_END+2,,AUTO
        13 000014   200006 630500                    EPPR0   @INTERVAL_END+2,,AUTO
        13 000015   000020 631400 xsym               EPPR1   B_VECTNIL+16
        13 000016   000000 701000 xent               TSX1    PSL$TIME
        13 000017   000000 011000                    NOP     0

     1426     5426
     1427     5427    1        IF PS_TODAYS_DATE = INT_START.DATE@

   5427 13 000020   040000 106400                    CMPC    fill='040'O
        13 000021   000000 000012 xsym               ADSC9   PS_TODAYS_DATE           cn=0,n=10
        13 000022   000001 200012 12                 ADSC9   INT_START+1              cn=1,n=10
        13 000023   000035 601000 13                 TNZ     s:5433
        13 000024   040000 106400                    CMPC    fill='040'O
        13 000025   000000 000012 xsym               ADSC9   PS_TODAYS_DATE           cn=0,n=10
        13 000026   000011 200012 12                 ADSC9   INT_END+1                cn=1,n=10
        13 000027   000035 601000 13                 TNZ     s:5433

     1428     5428    1             AND PS_TODAYS_DATE = INT_END.DATE@
     1429     5429    1        THEN
     1430     5430    1             CALL X$WRITE (PS_FDS, VECTOR(FAST_FORMAT),

   5430 13 000030   000010 630400 14                 EPPR0   8
        13 000031   000022 631400 xsym               EPPR1   B_VECTNIL+18
        13 000032   000000 701000 xent               TSX1    X$WRITE
        13 000033   000000 011000                    NOP     0
        13 000034   000041 710000 13                 TRA     s:5436

PL6.E3A0      #005=PSD$HEADER File=PSD$DISP.:E05TSI                              WED 07/30/97 04:30 Page:253
     1431     5431    1                  VECTOR(INT_START.TIME@), VECTOR(INT_END.TIME@));
     1432     5432    1        ELSE
     1433     5433    1             CALL X$WRITE (PS_FDS, VECTOR(HEADER_FORMAT),

   5433 13 000035   000022 630400 14                 EPPR0   18
        13 000036   000022 631400 xsym               EPPR1   B_VECTNIL+18
        13 000037   000000 701000 xent               TSX1    X$WRITE
        13 000040   000000 011000                    NOP     0

     1434     5434    1                  VECTOR(INT_START), VECTOR(INT_END));
     1435     5435
     1436     5436    1        RETURN;

   5436 13 000041   000000 702200 xent               TSX2  ! X66_ARET
     1437     5437
     1438     5438    1   END PSD$HEADER;

PL6.E3A0      #005=PSD$HEADER File=PSD$DISP.:E05TSI                              WED 07/30/97 04:30 Page:254
--  Include file information  --

   XUF_ENTRY.:E05TOU  cannot be made into a system file and is referenced.
   KL_MACRO_C.:E05TOU  is referenced.
   KL_AFCN_C.:E05TOU  is referenced.
   P_FEP_M.:E05TOU  is referenced.
   K_ID_E.:E05TOU  is referenced.
   XU_FORMAT_C.:E05TOU  is referenced.
   PM_BUCKET_C.:E05TOU  is referenced.
   PS_SUBS_C.:E05TOU  is referenced.
   PS_DATA_R.:E05TOU  cannot be made into a system file and is referenced.
   CP_6.:E05TOU  cannot be made into a system file and is referenced.
   B$JIT_C.:E05TOU  was found in the system file and is never referenced.
   CP_6_C.:E05TOU  was found in the system file and is referenced.
      No diagnostics issued in procedure PSD$HEADER.
PL6.E3A0      #005=PSD$HEADER File=PSD$DISP.:E05TSI                              WED 07/30/97 04:30 Page:255

 **** Variables and constants ****

  ****  Section 007 RtLmCm PS_FDS

  ****  Scalars and arrays  ****
OctLoc.c.b A Datatyp(siz) R M Lvl/name                 OctLoc.c.b A Datatyp(siz) R M Lvl/name

     0-0-0/w STRC(1080)  r     1 PS_FDS

  ****  Section 011 RoData PSD$HEADER

  ****  Scalars and arrays  ****
OctLoc.c.b A Datatyp(siz) R M Lvl/name                 OctLoc.c.b A Datatyp(siz) R M Lvl/name

    23-0-0/c CHAR(37)    r     1 FAST_FORMAT                0-0-0/c STRC(666)   r     1 HEADER_FORMAT

  ****  Section 012  Data  PSD$HEADER

  ****  Scalars and arrays  ****
OctLoc.c.b A Datatyp(siz) R M Lvl/name                 OctLoc.c.b A Datatyp(siz) R M Lvl/name

    10-0-0/c STRC(270)   r     1 INT_END                    0-0-0/c STRC(270)   r     1 INT_START

  ****  Auto variables  ****

  ****  Scalars and arrays  ****
OctLoc.c.b A Datatyp(siz) R M Lvl/name                 OctLoc.c.b A Datatyp(siz) R M Lvl/name

     4-0-0/w PTR         r     1 @INTERVAL_END              3-0-0/w PTR         r     1 @INTERVAL_START
    *0-0-0/w UBIN        r     1 INTERVAL_END              *0-0-0/w UBIN        r     1 INTERVAL_START

  ****  SYMREF variables  ****

  ****  Scalars and arrays  ****
OctLoc.c.b A Datatyp(siz) R M Lvl/name                 OctLoc.c.b A Datatyp(siz) R M Lvl/name

     0-0-0/c CHAR(140)   r     1 PS_BUFFER                  0-0-0/w PTR         r     1 PS_STATS$
PL6.E3A0      #005=PSD$HEADER File=PSD$DISP.:E05TSI                              WED 07/30/97 04:30 Page:256
     0-0-0/c CHAR(10)    r     1 PS_TODAYS_DATE

  ****  BASED and DCB variables  ****

  ****  Scalars and arrays  ****
OctLoc.c.b A Datatyp(siz) R M Lvl/name                 OctLoc.c.b A Datatyp(siz) R M Lvl/name

     0-0-0N  NULL        r     1 M$LO                       0-0-0/c ASTR(9)     r     1 TEXTC


   Procedure PSD$HEADER requires 34 words for executable code.
   Procedure PSD$HEADER requires 8 words of local(AUTO) storage.

    No errors detected in file PSD$DISP.:E05TSI    .
PL6.E3A0      #005=PSD$HEADER File=PSD$DISP.:E05TSI                              WED 07/30/97 04:30 Page:257
          *** CROSS REFERENCE LISTING ***
**     DENOTES     IDENTIFIER DEFINITION
<<                 IDENTIFIER'S VALUE SET
>>                 IDENTIFIER'S VALUE USED
<>                 IDENTIFIER SET AND/OR USED
--                 IDENTIFIER REFERENCED
PL6.E3A0      #005=PSD$HEADER File=PSD$DISP.:E05TSI                              WED 07/30/97 04:30 Page:258
          MINI XREF LISTING

FAST_FORMAT
      5389**DCL      5430--CALL
HEADER_FORMAT
      5385**DCL      5433--CALL
INTERVAL_END
      5413**DCL         6--PROC     5425<>CALL
INTERVAL_START
      5412**DCL         6--PROC     5424<>CALL
INT_END
      5404**DCL      5425<>CALL     5433--CALL
INT_END.DATE@
      5407**DCL      5427>>IF
INT_END.TIME@
      5409**DCL      5430--CALL
INT_START
      5395**DCL      5424<>CALL     5433--CALL
INT_START.DATE@
      5398**DCL      5427>>IF
INT_START.TIME@
      5400**DCL      5430--CALL
PSL$TIME
      5414**DCL-ENT  5424--CALL     5425--CALL
PS_BUFFER
      4919**DCL      4954--DCLINIT  4956--DCLINIT
PS_COLLECT.CALCNT
      5074**DCL      5074--REDEF
PS_COLLECT.USRSRV
      5071**DCL      5072--REDEF
PS_FDS
      4936**DCL      5430<>CALL     5433<>CALL
PS_HLPCGBUF.DSPMSK
      5331**DCL      5337--REDEF
PL6.E3A0      #005=PSD$HEADER File=PSD$DISP.:E05TSI                              WED 07/30/97 04:30 Page:259
PS_HLPCGBUF.SLCMSK
      5372**DCL      5379--REDEF
PS_OLD_COLLECT.CALCNT
      5078**DCL      5079--REDEF
PS_OLD_COLLECT.USRSRV
      5076**DCL      5076--REDEF
PS_STATS$
      5080**DCL      5082--IMP-PTR
PS_TODAYS_DATE
      4921**DCL      5427>>IF       5427>>IF
TEXTC.LEN
      5084**DCL      5084--IMP-SIZ
X$WRITE
      5421**DCL-ENT  5430--CALL     5433--CALL
