PL6.E3A0      #001=PSD$FEP File=PSD$FEP.:E05TSI                                  WED 07/30/97 04:27 Page:1
        1        1        /*M*  PSD$FEP  Display data collected by the Front End Processors */
        2        2        /*T***********************************************************/
        3        3        /*T*                                                         */
        4        4        /*T* Copyright (c) Bull HN Information Systems Inc., 1997    */
        5        5        /*T*                                                         */
        6        6        /*T***********************************************************/
        7        7        /*X* PLM=3,SQB,AND,ENI=0,SDI=3,CSI=0,ECI=0,IND=0,IAD=3,MOC,MEC,CLM=0,MCL=1,EXM=0,NTB
                 7         */
        8        8        %SET LISTSUB = '1'B;
        9        9
       10       10        PSD$FEP: PROC;
       11       11
       12       12        %INCLUDE CP_6;
       13       93        %INCLUDE PS_DATA_R;
       14     5389        %INCLUDE CP_6_SUBS;
       15     5929        %INCLUDE B_MICROPS_C;
       16     6101        %INCLUDE KV_GLBCNS_E;
       17     6442        %KV_USR_EVT_ID_E;
       18     6462        %KV_USR_FNC_E;
       19     6478        %KV_VDH_EVT_ID_E;
       20     6484        %KV_VDH_FNC_E;
       21     6504        %KV_STRTYP_E;
       22     6542        %INCLUDE KV$VDO;
       23     7557        %KV_VDO_E;
       24     7593        %INCLUDE PS_FEP_E;
       25     8077        %INCLUDE PS_PERR_C ;
       26     8108        %INCLUDE XUD_UTS_M;
       27     8190
       28     8191        %F$DCB;
       29     8248
       30     8249        %FPT_TIME(FPTN=FUTS_UTS,
       31     8250         STCLASS=STATIC,
       32     8251         SOURCE=FUTS,
       33     8252         DEST=UTS);
       34     8271
       35     8272        %PS_FEPSTATS;
       36     8482
PL6.E3A0      #001=PSD$FEP File=PSD$FEP.:E05TSI                                  WED 07/30/97 04:27 Page:2
       37     8483        %KL_REQSTATS (STCLASS=BASED);
       38     8776
       39     8777        %EXT_TIME (NAME=INT_START, STCLASS=STATIC);
       40     8785        %EXT_TIME (NAME=INT_END, STCLASS=STATIC);
       41     8793        %EXT_TIME (NAME=BOOT_TIME, STCLASS=STATIC);
       42     8801        %XUD$UTS_ENTRIES;
       43     8833
       44     8834        %MACRO FEP_GROUP (TITLE="' '",MORE="' '");
       45     8835
       46     8836           2 %(CHARTEXT(CONCAT('P', BINCHAR(ITEMS, 4)))) WALIGNED,
       47     8837             3 TYPE# SBIN BYTE UNAL INIT (0),
       48     8838             3 LEN# SBIN BYTE UNAL INIT (%(LENGTHC(TITLE)+LENGTHC(MORE))),
       49     8839             3 TITLE# CHAR (0) UNAL INIT (TITLE),
       50     8840             3 MORE# CHAR (0) UNAL INIT (MORE),
       51     8841
       52     8842         %SET ITEMS=ITEMS+1;
       53     8843
       54     8844        %MEND;
       55     8845
       56     8846        %MACRO FEP_ITEM (SCALE(ABS=0, ABS_LEFT=1, PER_MINUTE=2, PER_SECOND=3,
       57     8847         MS_PER=4, PCT_TIME=5, QUOTIENT=6, DUMMY=7, PCT_UTS_UNITS=8)=0,
       58     8848         CONSEC=1,
       59     8849         ITEM=0,
       60     8850         SUBSCR=0,
       61     8851         DIVISOR=0,
       62     8852         SLCT=0,
       63     8853         DISP=0);
       64     8854
       65     8855             2 %(CHARTEXT(CONCAT('P', BINCHAR(ITEMS, 4)))) WALIGNED,
       66     8856             3 * SBIN BYTE CALIGNED INIT(1), /* TYPE */
       67     8857             3 * SBIN BYTE CALIGNED INIT(SCALE),
       68     8858             3 * SBIN BYTE CALIGNED INIT(CONSEC),
       69     8859             3 * SBIN BYTE CALIGNED INIT(SLCT),
       70     8860             3 * SBIN BYTE CALIGNED INIT(DISP),
       71     8861             3 * SBIN (18) CALIGNED INIT(%(ITEM+SUBSCR)),
       72     8862             3 * SBIN BYTE CALIGNED INIT(DIVISOR),
       73     8863
PL6.E3A0      #001=PSD$FEP File=PSD$FEP.:E05TSI                                  WED 07/30/97 04:27 Page:3
       74     8864         %SET ITEMS=ITEMS+1;
       75     8865
       76     8866        %MEND;
       77     8867
       78     8868        %MACRO FEP_FORM (FORM="' '",MORE="' '");
       79     8869
       80     8870             2 %(CHARTEXT(CONCAT('P', BINCHAR(ITEMS, 4)))) WALIGNED,
       81     8871             3 TYPE# SBIN BYTE UNAL INIT (2),
       82     8872             3 LEN# SBIN BYTE UNAL INIT (%(LENGTHC(FORM)+LENGTHC(MORE))),
       83     8873             3 FORM# CHAR (0) UNAL INIT (FORM),
       84     8874             3 MORE# CHAR (0) UNAL INIT (MORE),
       85     8875
       86     8876        %SET ITEMS=ITEMS+1;
       87     8877
       88     8878        %MEND;
       89     8879
       90     8880        %MACRO FEP_ENDTBL;
       91     8881             2 PLAST WALIGNED,
       92     8882             3 TYPE# SBIN BYTE INIT(3),
       93     8883             3 CONDITION$ PTR WALIGNED INIT(ADDR(LAST_FLAG)),
       94     8884             3 NEXT$ PTR WALIGNED INIT(ADDR(NIL)),
       95     8885             2 PATCH(0:20) UBIN WORD WALIGNED INIT(0*0);
       96     8886        %MEND;
       97     8887
       98     8888        %EQU ABS#=0;
       99     8889        %EQU ABS_LEFT#=1;
      100     8890        %EQU PER_MINUTE#=2;
      101     8891        %EQU PER_SECOND#=3;
      102     8892        %EQU MS_PER#=4;
      103     8893        %EQU PCT_TIME#=5;
      104     8894        %EQU QUOTIENT#=6;
      105     8895        %EQU DUMMY#=7;
      106     8896        %EQU PCT_UTS_UNITS# = 8;
      107     8897
      108     8898        %EQU GROUP#=0;
      109     8899        %EQU ITEM#=1;
      110     8900        %EQU FFORM#=2;
PL6.E3A0      #001=PSD$FEP File=PSD$FEP.:E05TSI                                  WED 07/30/97 04:27 Page:4
      111     8901        %EQU JUMP#=3; /* END OF TABLE, ALSO USEFULL FOR PATCHING */
      112     8902
      113     8903        %EQU MICROSECONDS_PER_FEP_TIC = 1000000 / 120;
      114     8904        %EQU FEP_TICS_PER_MINUTE = 60 * 120;
      115     8905        %EQU FEP_TICS_PER_SECOND = 120;
      116     8906
      117     8907        %INCLUDE XUF_ENTRY;
      118     8915    1   DCL PSD$EJECT ENTRY (1);
      119     8916    1   DCL PSD$SKIP ENTRY;
      120     8917    1   DCL PSE$GRIPE ENTRY(5) ;
      121     8918    1   DCL PSL$TIME ENTRY (2);
      122     8919
      123     8920    1   DCL INTERVAL_START UBIN;
      124     8921    1   DCL INTERVAL_END UBIN;
      125     8922    1   DCL DELTA_TICS_ELAPSED SBIN;
      126     8923    1   DCL TOTAL_TICS_ELAPSED UBIN;
      127     8924    1   DCL FIRST_BOOT UBIN;
      128     8925    1   DCL SECOND_BOOT UBIN;
      129     8926    1   DCL I UBIN;
      130     8927    1   DCL I1 UBIN;
      131     8928    1   DCL FEP_COUNT UBIN;
      132     8929    1   DCL CONSEC_COUNT UBIN;
      133     8930    1   DCL FEP_ITEM_ITEM$ PTR;
      134     8931    1   DCL DISP_INDEX UBIN;
      135     8932    1   DCL ZERO UBIN WORD STATIC INIT(0);
      136     8933
      137     8934    1   DCL TABLE$ PTR;
      138     8935
      139     8936    1   DCL FEPNO UBIN;
      140     8937
      141     8938    1   DCL WIDTH UBIN;
      142     8939    1   DCL FEPS_PER_LINE UBIN;
      143     8940
      144     8941    1   DCL FEP$ PTR;
      145     8942    1   DCL OLD_FEP$ PTR;
      146     8943    1   DCL FEP_SIZE UBIN;
      147     8944    1   DCL OLD_FEP_SIZE UBIN;
PL6.E3A0      #001=PSD$FEP File=PSD$FEP.:E05TSI                                  WED 07/30/97 04:27 Page:5
      148     8945    1   DCL THIS_OLD_FEP$ PTR;
      149     8946
      150     8947    1   DCL GROUP_HEAD$ PTR;
      151     8948
      152     8949    1   DCL ITEM UBIN;
      153     8950    1   DCL OLD_ITEM UBIN;
      154     8951    1   DCL SNAP_ITEM SBIN;
      155     8952
      156     8953    1   DCL DIVISOR UBIN;
      157     8954    1   DCL OLD_DIVISOR UBIN;
      158     8955
      159     8956    1   DCL ITEM_FLAG /* logical */ BIT(1) UNAL;
      160     8957    1   DCL ITEM_COUNT UBIN;
      161     8958    1   DCL ITEM_BYTE_COUNT UBIN;
      162     8959
      163     8960    1   DCL CURRENT_ITEM (0:19) UBIN;
      164     8961    1   DCL CURRENT_ITEMS CHAR(ITEM_BYTE_COUNT) BASED;
      165     8962
      166     8963    1   DCL LAST_FLAG STATIC UBIN INIT(1);
      167     8964    1   DCL UBIN_(0:0) BASED UBIN;
      168     8965
      169     8966    1   DCL 1 FEP_DISPLAY_FMT CONSTANT,
      170     8967    1          2 P1 CHAR(0) INIT ('%/ FEP %D from %A to %A');
      171     8968
      172     8969    1   DCL 1 FEP_SINCE_BOOT_FMT CONSTANT,
      173     8970    1          2 P1 CHAR(0) INIT ('%/ FEP %D booted %A to %A');
      174     8971
      175     8972    1   DCL DAYS_SINCE_BOOT UBIN;
      176     8973    1   DCL HOURS_SINCE_BOOT SBIN;
      177     8974    1   DCL MINUTES_SINCE_BOOT SBIN;
      178     8975
      179     8976    1   DCL LOCATE_ANOTHER BIT(1) STATIC ALIGNED INIT('0'B);
      180     8977
      181     8978    1   DCL SHORT_FLAG BIT(36) WALIGNED STATIC INIT('0'B);
      182     8979
      183     8980    1   DCL 1 FEP_TITLES STATIC,
      184     8981    1          2 TITLE1 (0:8),
PL6.E3A0      #001=PSD$FEP File=PSD$FEP.:E05TSI                                  WED 07/30/97 04:27 Page:6
      185     8982    1             3 FEP_TAG CHAR(5) INIT (' '*0),
      186     8983    1             3 FEP_NUM CHAR(2) INIT (' '*0),
      187     8984    1          2 TITLE1A (0:8) REDEF TITLE1 CHAR(7);
      188     8985
      189     8986    1   DCL 1 FEP_HDR CONSTANT CHAR(0) INIT
      190     8987    1    ('%/%A%25-%9(  %7A%Q%)');
      191     8988
      192     8989    1   DCL FEP_FORMAT CONSTANT CHAR(0) INIT
      193     8990    1    ('%A%25-%9(%9D%Q%)');
      194     8991
      195     8992    1   DCL 1 DATA_VECTOR DALIGNED,
      196     8993    1          2 BOUND UBIN (20) UNAL,
      197     8994    1          2 FLAGS BIT (16),
      198     8995    1          2 PTR$ PTR;
      199     8996
      200     8997        %FEPTEMP (NAME=FEPTEMP, STCLASS=STATIC);
      201     9028        %FEPTEMP (NAME=OLD_FEPTEMP, STCLASS=STATIC);
      202     9059
      203     9060    1   DCL 1 FEP_DATA(0:%PS_MAXFE#),
      204     9061    1          2 ASYNC_TERMINALS UBIN,
      205     9062    1          2 ASYNC_OUTPUT UBIN,
      206     9063    1          2 ASYNC_INPUT UBIN,
      207     9064    1          2 RBT_TERMINALS UBIN,
      208     9065    1          2 RBT_OUTPUT UBIN,
      209     9066    1          2 RBT_INPUT UBIN,
      210     9067    1          2 URP_TERMINALS UBIN,
      211     9068    1          2 URP_OUTPUT UBIN,
      212     9069    1          2 URP_INPUT UBIN,
      213     9070    1          2 T3270_TERMINALS UBIN,
      214     9071    1          2 T3270_OUTPUT UBIN,
      215     9072    1          2 T3270_INPUT UBIN,
      216     9073    1          2 HDLC_TERMINALS UBIN,
      217     9074    1          2 HDLC_OUTPUT UBIN,
      218     9075    1          2 HDLC_INPUT UBIN,
      219     9076    1          2 * UBIN, /* RFU */
      220     9077    1          2 * UBIN, /* RFU */
      221     9078    1          2 * UBIN, /* RFU */
PL6.E3A0      #001=PSD$FEP File=PSD$FEP.:E05TSI                                  WED 07/30/97 04:27 Page:7
      222     9079    1          2 * UBIN, /* RFU */
      223     9080    1          2 * UBIN, /* RFU */
      224     9081    1          2 * UBIN, /* RFU */
      225     9082    1          2 IDLE_TIME UBIN,
      226     9083    1          2 AVAIL_MEM UBIN ;
      227     9084
      228     9085    1   DCL 1 FEPD,
      229     9086    1          2 ASYNC_TERMINALS(0:8) UBIN,
      230     9087    1          2 ASYNC_OUTPUT(0:8) UBIN,
      231     9088    1          2 ASYNC_INPUT(0:8) UBIN,
      232     9089    1          2 RBT_TERMINALS(0:8) UBIN,
      233     9090    1          2 RBT_OUTPUT(0:8) UBIN,
      234     9091    1          2 RBT_INPUT(0:8) UBIN,
      235     9092    1          2 URP_TERMINALS(0:8) UBIN,
      236     9093    1          2 URP_OUTPUT(0:8) UBIN,
      237     9094    1          2 URP_INPUT(0:8) UBIN,
      238     9095    1          2 T3270_TERMINALS(0:8) UBIN,
      239     9096    1          2 T3270_OUTPUT(0:8) UBIN,
      240     9097    1          2 T3270_INPUT(0:8) UBIN,
      241     9098    1          2 HDLC_TERMINALS(0:8) UBIN,
      242     9099    1          2 HDLC_OUTPUT(0:8) UBIN,
      243     9100    1          2 HDLC_INPUT(0:8) UBIN,
      244     9101    1          2 *(0:8) UBIN, /* RFU */
      245     9102    1          2 *(0:8) UBIN, /* RFU */
      246     9103    1          2 *(0:8) UBIN, /* RFU */
      247     9104    1          2 *(0:8) UBIN, /* RFU */
      248     9105    1          2 *(0:8) UBIN, /* RFU */
      249     9106    1          2 *(0:8) UBIN, /* RFU */
      250     9107    1          2 IDLE_TIME(0:8) UBIN,
      251     9108    1          2 AVAIL_MEM(0:8) UBIN ;
      252     9109
      253     9110
      254     9111        %EJECT;
PL6.E3A0      #001=PSD$FEP File=PSD$FEP.:E05TSI                                  WED 07/30/97 04:27 Page:8
      255     9112        /*
      256     9113                 Build the table of items to be displayed
      257     9114        */
      258     9115        %SET ITEMS=0;
      259     9116        %SET LISTINC = '1'B;
      260     9117        %INCLUDE PS_FEPITEMS_C;
        1+    9118        /*M* PS_FEPITEMS_C - Defines format for FEP STATS           */
        2+    9119        /*T***********************************************************/
        3+    9120        /*T*                                                         */
        4+    9121        /*T* Copyright (c) Bull HN Information Systems Inc., 1997    */
        5+    9122        /*T*                                                         */
        6+    9123        /*T***********************************************************/
        7+    9124
        8+    9125    1   DCL 1 PS_FEPTBL_MONITOR ALIGNED CONSTANT,
        9+    9126
       10+    9127        %FEP_FORM (FORM="'%/ *** LCP-6 Monitor statistics for FEP ''%8A'''");
       11+    9135
       12+    9136        %FEP_ITEM (ITEM=%PS_LCP6STT_UXEQTIME#,CONSEC=4,SCALE=PCT_TIME);
       13+    9147        %FEP_FORM (FORM="' %% User exec (Ts Cg Hn Gh)  %4(%6D.%2ZD%)'");
       14+    9155
       15+    9156        %FEP_ITEM (ITEM=%PS_LCP6STT_USRVTIME#,CONSEC=4,SCALE=PCT_TIME);
       16+    9167        %FEP_FORM (FORM="' %% User serv (Ts Cg Hn Gh)  %4(%6D.%2ZD%)'");
       17+    9175
       18+    9176        %FEP_ITEM (ITEM=%PS_LCP6STT_MXEQTIME#,SCALE=PCT_TIME);
       19+    9187        %FEP_FORM (FORM="' %% Monitor execution time      %3D.%2ZD'");
       20+    9195
       21+    9196        %FEP_ITEM (ITEM=%PS_LCP6STT_MIDLTIME#,SCALE=PCT_TIME);
       22+    9207        %FEP_FORM (FORM="' %% idle                        %3D.%2ZD'");
       23+    9215
       24+    9216        %FEP_ITEM (ITEM="%(-FEPTEMP_SCHED_TICS#)",SCALE=PCT_TIME);
       25+    9227        %FEP_FORM (FORM="' %% Total Scheduled Time        %3D.%2ZD'");
       26+    9235
       27+    9236        %FEP_GROUP (TITLE="'%/ Memory pool statistics                -Pages-'");
       28+    9244        %FEP_ITEM (ITEM=%PS_LCP6STT_PAGES_TOTNONSHF#,SCALE=ABS);
       29+    9255        %FEP_FORM (FORM="' IO pages in use                      %8D'");
       30+    9263
       31+    9264        %FEP_ITEM (ITEM=%PS_LCP6STT_PAGES_FRENONSHF#,SCALE=ABS);
PL6.E3A0      #001=PSD$FEP File=PSD$FEP.:E05TSI                                  WED 07/30/97 04:27 Page:9
       32+    9275        %FEP_FORM (FORM="' Fragmented IO pages not in use       %8D'");
       33+    9283
       34+    9284        %FEP_ITEM (ITEM=%PS_LCP6STT_PAGES_TOTSHF#,SCALE=ABS);
       35+    9295        %FEP_FORM (FORM="' Fprg-Sfile pages total               %8D'");
       36+    9303
       37+    9304        %FEP_ITEM (ITEM=%PS_LCP6STT_PAGES_AVLSHF#,SCALE=ABS);
       38+    9315        %FEP_FORM (FORM="' Maximum pages available to any user  %8D'");
       39+    9323
       40+    9324        %FEP_ITEM (ITEM=%PS_LCP6STT_PAGES_FRESHF#,SCALE=ABS);
       41+    9335        %FEP_FORM (FORM="' Current pages available to any user  %8D'");
       42+    9343
       43+    9344        %FEP_GROUP (TITLE=
              9344            "'%/ -User class-                 -Users-  -Pages-  -Pages per user-'");
       44+    9352
       45+    9353        %FEP_ITEM (ITEM=%PS_LCP6STT_USERS_TS_FPRG#,SCALE=ABS);
       46+    9364        %FEP_ITEM (ITEM=%PS_LCP6STT_PAGES_TS_FPRG#,SCALE=ABS);
       47+    9375        %FEP_ITEM (ITEM=%PS_LCP6STT_PAGES_TS_FPRG#,DIVISOR=%PS_LCP6STT_USERS_TS_FPRG#,SCALE=
              9375            ABS);
       48+    9386        %FEP_FORM (FORM="' Timesharing FPRG           %3(%9D%)'");
       49+    9394
       50+    9395        %FEP_ITEM (ITEM=%PS_LCP6STT_USERS_CG_FPRG#,SCALE=ABS);
       51+    9406        %FEP_ITEM (ITEM=%PS_LCP6STT_PAGES_CG_FPRG#,SCALE=ABS);
       52+    9417        %FEP_ITEM (ITEM=%PS_LCP6STT_PAGES_CG_FPRG#,DIVISOR=%PS_LCP6STT_USERS_CG_FPRG#,SCALE=
              9417            ABS);
       53+    9428        %FEP_FORM (FORM="' Comgroup connected FPRG    %3(%9D%)'");
       54+    9436
       55+    9437        %FEP_ITEM (ITEM=%PS_LCP6STT_USERS_HANDLER#,SCALE=ABS);
       56+    9448        %FEP_ITEM (ITEM=%PS_LCP6STT_PAGES_HANDLER#,SCALE=ABS);
       57+    9459        %FEP_ITEM (ITEM=%PS_LCP6STT_PAGES_HANDLER#,DIVISOR=%PS_LCP6STT_USERS_HANDLER#,SCALE=
              9459            ABS);
       58+    9470        %FEP_FORM (FORM="' Handler                    %3(%9D%)'");
       59+    9478
       60+    9479        %FEP_ITEM (ITEM=%PS_LCP6STT_USERS_GHOST#,SCALE=ABS);
       61+    9490        %FEP_ITEM (ITEM=%PS_LCP6STT_PAGES_GHOST#,SCALE=ABS);
       62+    9501        %FEP_ITEM (ITEM=%PS_LCP6STT_PAGES_GHOST#,DIVISOR=%PS_LCP6STT_USERS_GHOST#,SCALE=ABS)
              9501            ;
       63+    9512        %FEP_FORM (FORM="' Ghost                      %3(%9D%)'");
PL6.E3A0      #001=PSD$FEP File=PSD$FEP.:E05TSI                                  WED 07/30/97 04:27 Page:10
       64+    9520
       65+    9521        %FEP_ITEM (ITEM=%PS_LCP6STT_PAGES_MONITOR#,SCALE=ABS);
       66+    9532        %FEP_FORM (FORM="' LCP-6 Monitor                        %8D'");
       67+    9540
       68+    9541        %FEP_ITEM (ITEM=%PS_LCP6STT_PAGES_TOTAL#,SCALE=ABS);
       69+    9552        %FEP_FORM (FORM="' TOTAL                                %8D'");
       70+    9560
       71+    9561        %FEP_GROUP (TITLE=
              9561            "'%/ Read-Write Statistics by RES    -HO-     -UC-     -LG-     -NA-'");
       72+    9569
       73+    9570        %FEP_ITEM (ITEM=%PS_LCP6STT_READS_HOST#,CONSEC=4,SCALE=PER_MINUTE);
       74+    9581        %FEP_FORM (FORM="' # Reads/minute             %4(%9D%)'");
       75+    9589
       76+    9590        %FEP_ITEM (ITEM=%PS_LCP6STT_BYTES_READ_HOST#,CONSEC=4,SCALE=PER_MINUTE);
       77+    9601        %FEP_FORM (FORM="' Bytes Read/minute          %4(%9D%)'");
       78+    9609
       79+    9610        %FEP_ITEM (ITEM=%PS_LCP6STT_BYTES_READ_HOST#,DIVISOR=%PS_LCP6STT_READS_HOST#,SCALE=
              9610            QUOTIENT);
       80+    9621        %FEP_ITEM (ITEM=%PS_LCP6STT_BYTES_READ_UC#,DIVISOR=%PS_LCP6STT_READS_UC#,SCALE=
              9621            QUOTIENT);
       81+    9632        %FEP_ITEM (ITEM=%PS_LCP6STT_BYTES_READ_LG#,DIVISOR=%PS_LCP6STT_READS_LG#,SCALE=
              9632            QUOTIENT);
       82+    9643        %FEP_ITEM (ITEM=%PS_LCP6STT_BYTES_READ_NA#,DIVISOR=%PS_LCP6STT_READS_NA#,SCALE=
              9643            QUOTIENT);
       83+    9654        %FEP_FORM (FORM="' Bytes/Read                 %4(%9D%)'");
       84+    9662
       85+    9663        %FEP_ITEM (ITEM=%PS_LCP6STT_WRITES_HOST#,CONSEC=4,SCALE=PER_MINUTE);
       86+    9674        %FEP_FORM (FORM="' # Writes/minute            %4(%9D%)'");
       87+    9682
       88+    9683        %FEP_ITEM (ITEM=%PS_LCP6STT_BYTES_WRT_HOST#,CONSEC=4,SCALE=PER_MINUTE);
       89+    9694        %FEP_FORM (FORM="' Bytes Written/minute       %4(%9D%)'");
       90+    9702
       91+    9703        %FEP_ITEM (ITEM=%PS_LCP6STT_BYTES_WRT_HOST#,DIVISOR=%PS_LCP6STT_WRITES_HOST#,SCALE=
              9703            QUOTIENT);
       92+    9714        %FEP_ITEM (ITEM=%PS_LCP6STT_BYTES_WRT_UC#,DIVISOR=%PS_LCP6STT_WRITES_UC#,SCALE=
              9714            QUOTIENT);
       93+    9725        %FEP_ITEM (ITEM=%PS_LCP6STT_BYTES_WRT_LG#,DIVISOR=%PS_LCP6STT_WRITES_LG#,SCALE=
PL6.E3A0      #001=PSD$FEP File=PSD$FEP.:E05TSI                                  WED 07/30/97 04:27 Page:11
              9725            QUOTIENT);
       94+    9736        %FEP_ITEM (ITEM=%PS_LCP6STT_BYTES_WRT_NA#,DIVISOR=%PS_LCP6STT_WRITES_NA#,SCALE=
              9736            QUOTIENT);
       95+    9747        %FEP_FORM (FORM="' Bytes/Write                %4(%9D%)'");
       96+    9755
       97+    9756        %FEP_GROUP (TITLE=
              9756            "'%/ Bobcat Context Usage          -USER-    -SSN-   -LDCT-    -IOP-'");
       98+    9764        %FEP_ITEM (ITEM=%PS_LCP6STT_CURR_USERS#,CONSEC=4,SCALE=ABS);
       99+    9775        %FEP_FORM (FORM="' Current                    %4(%9D%)'");
      100+    9783
      101+    9784        %FEP_ITEM (ITEM=%PS_LCP6STT_PEAK_USERS#,CONSEC=4,SCALE=ABS);
      102+    9795        %FEP_FORM (FORM="' Peak                       %4(%9D%)'");
      103+    9803
      104+    9804        %FEP_ITEM (ITEM=%PS_LCP6STT_FPRG_FTCH_HOST#,SCALE=ABS);
      105+    9815        %FEP_ITEM (ITEM=%PS_LCP6STT_FPRG_FTCH_SFILE#,SCALE=ABS);
      106+    9826        %FEP_FORM (FORM="'%/ Fetches from host: %6D      Fetches from Sfile Table: %6D'");
      107+    9834
      108+    9835        %FEP_ITEM (ITEM=%PS_LCP6STT_FPRG_FTCH_HOST#,SCALE=PER_MINUTE);
      109+    9846        %FEP_ITEM (ITEM=%PS_LCP6STT_FPRG_FTCH_SFILE#,SCALE=PER_MINUTE);
      110+    9857        %FEP_FORM (FORM="'%/ Host fetches/min:  %6D      Sfile Table fetches/min:  %6D'");
      111+    9865
      112+    9866        %FEP_ENDTBL;
      113+    9873
      114+    9874        %EJECT;
PL6.E3A0      #001=PSD$FEP File=PSD$FEP.:E05TSI                                  WED 07/30/97 04:27 Page:12
      115+    9875    1   DCL 1 PS_FEPTBL_ASYNC ALIGNED CONSTANT,
      116+    9876
      117+    9877        %FEP_FORM (FORM="'%/ *** ASYNC statistics for handler %.8>A '");
      118+    9885
      119+    9886        %FEP_GROUP (TITLE=
              9886            "'   -Item-                            Hndlr-to-line  Line-to-hndlr'");
      120+    9894
      121+    9895        %FEP_ITEM (ITEM=%KA_STT_KHSTT_OTPINTCNT#,SCALE=PER_MINUTE);
      122+    9906        %FEP_ITEM (ITEM=%KA_STT_KHSTT_INPINTCNT#,SCALE=PER_MINUTE);
      123+    9917        %FEP_FORM (FORM="' Interrupts/minute                         %6D         %6D'");
      124+    9925
      125+    9926        %FEP_ITEM (ITEM=%KA_STT_KHSTT_OTPINTISATIM#,SCALE=PCT_TIME);
      126+    9937        %FEP_ITEM (ITEM=%KA_STT_KHSTT_INPINTISATIM#,SCALE=PCT_TIME);
      127+    9948        %FEP_FORM (FORM=
              9948            "' %% Interrupt service time                 %4D.%2ZD        %4D.%2ZD'");
      128+    9956
      129+    9957        %FEP_ITEM (ITEM=%KA_STT_KHSTT_OTPBFRBYTUTL#,SCALE=ABS);
      130+    9968        %FEP_ITEM (ITEM=%KA_STT_KHSTT_INPBFRBYTUTL#,SCALE=ABS);
      131+    9979        %FEP_FORM (FORM="' Buffer utilization, bytes                %7D        %7D'");
      132+    9987
      133+    9988        %FEP_ITEM (ITEM=%KA_STT_KHSTT_CTXBYTUTL#,SCALE=ABS);
      134+    9999        %FEP_FORM (FORM="' Context utilization, bytes                         %7D'");
      135+   10007
      136+   10008        %FEP_ITEM (ITEM=%KA_STT_DVCDFNBYTUTL#,SCALE=ABS);
      137+   10019        %FEP_FORM (FORM="' Device definition utilization, bytes               %7D'");
      138+   10027
      139+   10028        %FEP_ITEM (ITEM=%KA_STT_OTPBFRGETCNT_SML#,SCALE=PER_MINUTE);
      140+   10039        %FEP_ITEM (ITEM=%KA_STT_OTPBFRGETCNT_BIG#,SCALE=PER_MINUTE);
      141+   10050        %FEP_FORM (FORM=
             10050            "' Small output buffer gets/min  %6D       Large output buffer gets/min  %6D'");
      142+   10058
      143+   10059        %FEP_ITEM (ITEM=%KA_STT_OTPBFRFULCNT_SML#,SCALE=PER_MINUTE);
      144+   10070        %FEP_ITEM (ITEM=%KA_STT_OTPBFRFULCNT_BIG#,SCALE=PER_MINUTE);
      145+   10081        %FEP_FORM (FORM=
             10081            "' Small output buffers full/min %6D       Large output buffers full/min %6D'");
      146+   10089
      147+   10090
PL6.E3A0      #001=PSD$FEP File=PSD$FEP.:E05TSI                                  WED 07/30/97 04:27 Page:13
      148+   10091        %FEP_ITEM (ITEM=%KA_STT_LINSPDDST#,SUBSCR=2,SCALE=ABS);
      149+   10102        %FEP_ITEM (ITEM=%KA_STT_LINSPDDST#,SUBSCR=4,CONSEC=12,SCALE=ABS);
      150+   10113        %FEP_FORM (FORM=
             10113            "'%/ Line speeds  110 150 200 300 600 1050 1200 1800 2000 2400 4800 9600 19.2'",
      151+   10114                   MORE=
             10114             "'%/              %3D %3D %3D %3D %3D  %3D  %3D  %3D  %3D  %3D  %3D  %3D  %3D'"
             10114                       );
      152+   10122
      153+   10123        %FEP_GROUP (TITLE="'%/ ASYNC buffer management'");
      154+   10131
      155+   10132        %FEP_ITEM (ITEM=KA_STT_BPSTT_TOT#,SCALE=ABS);
      156+   10143        %FEP_ITEM (ITEM=KA_STT_BPSTT_USE#,SCALE=ABS);
      157+   10154        %FEP_ITEM (ITEM=KA_STT_BPSTT_MXU#,SCALE=ABS);
      158+   10165        %FEP_FORM (FORM="' words total   %6D   in use   %6D   peak in use   %6D'");
      159+   10173
      160+   10174        %FEP_ITEM (ITEM=KA_STT_BPSTT_GETC#,SCALE=PER_MINUTE);
      161+   10185        %FEP_ITEM (ITEM=KA_STT_BPSTT_GETT#,SCALE=PCT_TIME);
      162+   10196        %FEP_FORM (FORM="' # of get calls/minute           %6D   %% time        %3D.%2ZD'");
      163+   10204
      164+   10205        %FEP_ITEM (ITEM=KA_STT_BPSTT_RLSC#,SCALE=PER_MINUTE);
      165+   10216        %FEP_ITEM (ITEM=KA_STT_BPSTT_RLST#,SCALE=PCT_TIME);
      166+   10227        %FEP_FORM (FORM="' # of release calls/minute       %6D   %% time        %3D.%2ZD'");
      167+   10235
      168+   10236        %FEP_ITEM (ITEM=KA_STT_BPSTT_GETF#,SCALE=PER_MINUTE);
      169+   10247        %FEP_FORM (FORM="' # of get failures with enough free/minute   %6D'");
      170+   10255
      171+   10256        %FEP_ITEM (ITEM=KA_STT_BPSTT_FRG#,SCALE=PER_MINUTE);
      172+   10267        %FEP_FORM (FORM="' # of fragmentations/minute                  %6D'");
      173+   10275
      174+   10276        %FEP_ITEM (ITEM=KA_STT_BPSTT_CMB#,SCALE=PER_MINUTE);
      175+   10287        %FEP_FORM (FORM="' # of re-combinations/minute                 %6D'");
      176+   10295
      177+   10296        %FEP_ITEM (ITEM=KA_STT_BPSTT_SCH#,SCALE=PER_MINUTE);
      178+   10307        %FEP_FORM (FORM="' # of buddy searches/minute                  %6D'");
      179+   10315
      180+   10316        %FEP_ITEM (ITEM=KA_STT_BPSTT_CLKCTX#,SCALE=ABS);
      181+   10327        %FEP_ITEM (ITEM=KA_STT_BPSTT_CLKC#,SCALE=PER_MINUTE);
PL6.E3A0      #001=PSD$FEP File=PSD$FEP.:E05TSI                                  WED 07/30/97 04:27 Page:14
      182+   10338        %FEP_ITEM (ITEM=KA_STT_BPSTT_CLKE#,SCALE=PER_MINUTE);
      183+   10349        %FEP_FORM (FORM=
             10349            "'%/ Clock context blocks %5D   Service calls/min %5D   expirations/min %5D'");
      184+   10357
      185+   10358        %FEP_GROUP (TITLE="'%/ Free buffer distribution'");
      186+   10366
      187+   10367        %FEP_ITEM (ITEM=KA_STT_BPSTT_MINSIZ#,SCALE=ABS);
      188+   10378        %FEP_FORM (FORM="' size     %N=%13(%#:1023?.1[%4.#:1024/KDK%?%5.#KD%]%#:2*=%)'");
      189+   10386
      190+   10387        %FEP_ITEM (ITEM=KA_STT_BPSTT_COUNT#,CONSEC=13,SCALE=ABS);
      191+   10398        %FEP_FORM (FORM="' # free   %13(%5D%)'");
      192+   10406        /*N* THIS TOO
      193+   10407        %FEP_ITEM (ITEM=FEPTEMP_BFRWRDS#,CONSEC=13,SCALE=ABS);
      194+   10408        %FEP_FORM (FORM="' words    %13(%5D%)'");
      195+   10409        */
      196+   10410        %FEP_ITEM (ITEM=KA_STT_BPSTT_PKCNT#,CONSEC=13,SCALE=ABS);
      197+   10421        %FEP_FORM (FORM="' peak free%13(%5D%)'");
      198+   10429
      199+   10430        %FEP_ENDTBL;
      200+   10437        %EJECT;
PL6.E3A0      #001=PSD$FEP File=PSD$FEP.:E05TSI                                  WED 07/30/97 04:27 Page:15
      201+   10438    1   DCL 1 PS_FEPTBL_RBT ALIGNED CONSTANT,
      202+   10439
      203+   10440        %FEP_ITEM (ITEM=%KZ$SYNC_ACTSTR#,SCALE=ABS);
      204+   10451        %FEP_FORM (FORM=
             10451            "'%/ *** RBT statistics for handler %.8>A *** active streams = %5D '");
      205+   10459
      206+   10460        %FEP_GROUP (TITLE=
             10460            "'   -Item-                            Hndlr-to-line  Line-to-hndlr'");
      207+   10468
      208+   10469        %FEP_ITEM (ITEM=%KZ$SYNC_CHROUT#,SCALE=PER_MINUTE);
      209+   10480        %FEP_ITEM (ITEM=%KZ$SYNC_CHRIN#,SCALE=PER_MINUTE);
      210+   10491        %FEP_FORM (FORM="' Characters/minute                        %07D        %07D'");
      211+   10499
      212+   10500
      213+   10501        %FEP_ITEM (ITEM=%KZ$SYNC_BLKOUT#,SCALE=PER_MINUTE);
      214+   10512        %FEP_ITEM (ITEM=%KZ$SYNC_BLKIN#,SCALE=PER_MINUTE);
      215+   10523        %FEP_FORM (FORM="' Data blocks/minute                        %6D         %6D'");
      216+   10531
      217+   10532        %FEP_ITEM (ITEM=%KZ$SYNC_CHROUT#,DIVISOR=%KZ$SYNC_BLKOUT#,SCALE=PER_MINUTE);
      218+   10543        %FEP_ITEM (ITEM=%KZ$SYNC_CHRIN#,DIVISOR=%KZ$SYNC_BLKIN#,SCALE=PER_MINUTE);
      219+   10554        %FEP_FORM (FORM="' Characters/block                          %6D         %6D'");
      220+   10562
      221+   10563        %FEP_ITEM (ITEM=%KZ$SYNC_KHSTT_OTPINTCNT#,SCALE=PER_MINUTE);
      222+   10574        %FEP_ITEM (ITEM=%KZ$SYNC_KHSTT_INPINTCNT#,SCALE=PER_MINUTE);
      223+   10585        %FEP_FORM (FORM="' Interrupts/minute                         %6D         %6D'");
      224+   10593
      225+   10594        %FEP_ITEM (ITEM=%KZ$SYNC_KHSTT_OTPINTISATIM#,SCALE=PCT_TIME);
      226+   10605        %FEP_ITEM (ITEM=%KZ$SYNC_KHSTT_INPINTISATIM#,SCALE=PCT_TIME);
      227+   10616        %FEP_FORM (FORM=
             10616            "' %% Interrupt service time                 %4D.%2ZD        %4D.%2ZD'");
      228+   10624
      229+   10625        %FEP_ITEM (ITEM=%KZ$SYNC_PTHTICS#,SCALE=PCT_TIME);
      230+   10636        %FEP_FORM (FORM="' %% Path service time                               %4D.%2ZD'");
      231+   10644
      232+   10645        %FEP_ITEM (ITEM=%KZ$SYNC_KHSTT_OTPBFRBYTUTL#,SCALE=ABS);
      233+   10656        %FEP_ITEM (ITEM=%KZ$SYNC_KHSTT_INPBFRBYTUTL#,SCALE=ABS);
      234+   10667        %FEP_FORM (FORM="' Buffer utilization, bytes                %7D        %7D'");
PL6.E3A0      #001=PSD$FEP File=PSD$FEP.:E05TSI                                  WED 07/30/97 04:27 Page:16
      235+   10675
      236+   10676        %FEP_ITEM (ITEM=%KZ$SYNC_KHSTT_CTXBYTUTL#,SCALE=ABS);
      237+   10687        %FEP_FORM (FORM="'%/ Context utilization, bytes                         %7D'");
      238+   10695
      239+   10696        %FEP_ITEM (ITEM=%KZ$SYNC_TRNSCT#,SCALE=PER_MINUTE);
      240+   10707        %FEP_FORM (FORM="'%/ # of transactions/minute                           %6D'");
      241+   10715
      242+   10716        %FEP_ITEM (ITEM=%KZ$SYNC_TOTSSN#,SCALE=PER_MINUTE);
      243+   10727        %FEP_FORM (FORM="' # of sessions/minute                               %6D'");
      244+   10735
      245+   10736        %FEP_ITEM (ITEM=%KZ$SYNC_TOTCNC#,SCALE=PER_MINUTE);
      246+   10747        %FEP_FORM (FORM="' # of connects/minute                               %6D'");
      247+   10755
      248+   10756
      249+   10757        %FEP_GROUP (TITLE="'%/ RBT buffer management'");
      250+   10765
      251+   10766        %FEP_ITEM (ITEM=KZ$SYNC_BPSTT_TOT#,SCALE=ABS);
      252+   10777        %FEP_ITEM (ITEM=KZ$SYNC_BPSTT_USE#,SCALE=ABS);
      253+   10788        %FEP_ITEM (ITEM=KZ$SYNC_BPSTT_MXU#,SCALE=ABS);
      254+   10799        %FEP_FORM (FORM="' words total   %6D   in use   %6D   peak in use   %6D'");
      255+   10807
      256+   10808        %FEP_ITEM (ITEM=KZ$SYNC_BPSTT_GETC#,SCALE=PER_MINUTE);
      257+   10819        %FEP_ITEM (ITEM=KZ$SYNC_BPSTT_GETT#,SCALE=PCT_TIME);
      258+   10830        %FEP_FORM (FORM="' # of get calls/minute           %6D   %% time        %3D.%2ZD'");
      259+   10838
      260+   10839        %FEP_ITEM (ITEM=KZ$SYNC_BPSTT_RLSC#,SCALE=PER_MINUTE);
      261+   10850        %FEP_ITEM (ITEM=KZ$SYNC_BPSTT_RLST#,SCALE=PCT_TIME);
      262+   10861        %FEP_FORM (FORM="' # of release calls/minute       %6D   %% time        %3D.%2ZD'");
      263+   10869
      264+   10870        %FEP_ITEM (ITEM=KZ$SYNC_BPSTT_GETF#,SCALE=PER_MINUTE);
      265+   10881        %FEP_FORM (FORM="' # of get failures with enough free/minute   %6D'");
      266+   10889
      267+   10890        %FEP_ITEM (ITEM=KZ$SYNC_BPSTT_FRG#,SCALE=PER_MINUTE);
      268+   10901        %FEP_FORM (FORM="' # of fragmentations/minute                  %6D'");
      269+   10909
      270+   10910        %FEP_ITEM (ITEM=KZ$SYNC_BPSTT_CMB#,SCALE=PER_MINUTE);
      271+   10921        %FEP_FORM (FORM="' # of re-combinations/minute                 %6D'");
PL6.E3A0      #001=PSD$FEP File=PSD$FEP.:E05TSI                                  WED 07/30/97 04:27 Page:17
      272+   10929
      273+   10930        %FEP_ITEM (ITEM=KZ$SYNC_BPSTT_SCH#,SCALE=PER_MINUTE);
      274+   10941        %FEP_FORM (FORM="' # of buddy searches/minute                  %6D'");
      275+   10949
      276+   10950        %FEP_ITEM (ITEM=KZ$SYNC_BPSTT_CLKCTX#,SCALE=ABS);
      277+   10961        %FEP_ITEM (ITEM=KZ$SYNC_BPSTT_CLKC#,SCALE=PER_MINUTE);
      278+   10972        %FEP_ITEM (ITEM=KZ$SYNC_BPSTT_CLKE#,SCALE=PER_MINUTE);
      279+   10983        %FEP_FORM (FORM=
             10983            "'%/ Clock context blocks %5D   Service calls/min %5D   expirations/min %5D'");
      280+   10991
      281+   10992        %FEP_GROUP (TITLE="'%/ Free buffer distribution'");
      282+   11000
      283+   11001        %FEP_ITEM (ITEM=KZ$SYNC_BPSTT_MINSIZ#,SCALE=ABS);
      284+   11012        %FEP_FORM (FORM="' size     %N=%13(%#:1023?.1[%4.#:1024/KDK%?%5.#KD%]%#:2*=%)'");
      285+   11020
      286+   11021        %FEP_ITEM (ITEM=KZ$SYNC_BPSTT_COUNT#,CONSEC=13,SCALE=ABS);
      287+   11032        %FEP_FORM (FORM="' # free   %13(%5D%)'");
      288+   11040        /*N* THIS TOO
      289+   11041        %FEP_ITEM (ITEM=FEPTEMP_BFRWRDS#,CONSEC=13,SCALE=ABS);
      290+   11042        %FEP_FORM (FORM="' words    %13(%5D%)'");
      291+   11043        */
      292+   11044        %FEP_ITEM (ITEM=KZ$SYNC_BPSTT_PKCNT#,CONSEC=13,SCALE=ABS);
      293+   11055        %FEP_FORM (FORM="' peak free%13(%5D%)'");
      294+   11063
      295+   11064        %FEP_ENDTBL;
      296+   11071        %EJECT;
PL6.E3A0      #001=PSD$FEP File=PSD$FEP.:E05TSI                                  WED 07/30/97 04:27 Page:18
      297+   11072    1   DCL 1 PS_FEPTBL_URP ALIGNED CONSTANT,
      298+   11073
      299+   11074        %FEP_FORM (FORM="'%/ *** URP statistics for handler %.8>A ***'");
      300+   11082
      301+   11083        %FEP_GROUP (TITLE=
             11083            "'   -Item-                            Hndlr-to-line  Line-to-hndlr'");
      302+   11091
      303+   11092        %FEP_ITEM (ITEM=%KY_URP_USRSTT_OTPINTCNT#,SCALE=PER_MINUTE);
      304+   11103        %FEP_ITEM (ITEM=%KY_URP_USRSTT_INPINTCNT#,SCALE=PER_MINUTE);
      305+   11114        %FEP_FORM (FORM="' Interrupts/minute                         %6D         %6D'");
      306+   11122
      307+   11123        %FEP_ITEM (ITEM=%KY_URP_USRSTT_OTPINTISATIM#,SCALE=PCT_TIME);
      308+   11134        %FEP_ITEM (ITEM=%KY_URP_USRSTT_INPINTISATIM#,SCALE=PCT_TIME);
      309+   11145        %FEP_FORM (FORM=
             11145            "' %% Interrupt service time                 %4D.%2ZD        %4D.%2ZD'");
      310+   11153
      311+   11154        %FEP_ITEM (ITEM=%KY_URP_USRSTT_OTPBFRBYTUTL#,SCALE=ABS);
      312+   11165        %FEP_ITEM (ITEM=%KY_URP_USRSTT_INPBFRBYTUTL#,SCALE=ABS);
      313+   11176        %FEP_FORM (FORM="' Buffer utilization, bytes                %7D        %7D'");
      314+   11184
      315+   11185        %FEP_ITEM (ITEM=%KY_URP_USRSTT_CTXBYTUTL#,SCALE=ABS);
      316+   11196        %FEP_FORM (FORM="' Context utilization, bytes                         %7D'");
      317+   11204
      318+   11205        %FEP_ITEM (ITEM=%KY_URP_NUMDVC#,SUBSCR=1,CONSEC=3,SCALE=ABS);
      319+   11216        %FEP_FORM (FORM="' Devices    %2D LP     %2D CP     %2D CR'");
      320+   11224
      321+   11225        %FEP_ENDTBL;
      322+   11232        %EJECT;
PL6.E3A0      #001=PSD$FEP File=PSD$FEP.:E05TSI                                  WED 07/30/97 04:27 Page:19
      323+   11233    1   DCL 1 PS_FEPTBL_3270 ALIGNED CONSTANT,
      324+   11234
      325+   11235        %FEP_ITEM (ITEM=%KZ$3270STT_TOTCNC#,SCALE=ABS);
      326+   11246        %FEP_FORM (FORM=
             11246            "'%/ *** 3270 statistics for handler %.8>A *** active sessions = %5D '");
      327+   11254
      328+   11255        %FEP_GROUP (TITLE=
             11255            "'   -Item-                            Hndlr-to-line  Line-to-hndlr'");
      329+   11263
      330+   11264        %FEP_ITEM (ITEM=%KZ$3270STT_CHROUT#,SCALE=PER_MINUTE);
      331+   11275        %FEP_ITEM (ITEM=%KZ$3270STT_CHRIN#,SCALE=PER_MINUTE);
      332+   11286        %FEP_FORM (FORM="' Characters/minute                %07D        %07D'");
      333+   11294
      334+   11295
      335+   11296
      336+   11297        %FEP_ITEM (ITEM=%KZ$3270STT_BLKOUT#,SCALE=PER_MINUTE);
      337+   11308        %FEP_ITEM (ITEM=%KZ$3270STT_BLKIN#,SCALE=PER_MINUTE);
      338+   11319        %FEP_FORM (FORM="' Data blocks/minute                         %6D         %6D'");
      339+   11327
      340+   11328        %FEP_ITEM (ITEM=%KZ$SYNC_KHSTT_OTPINTCNT#,SCALE=PER_MINUTE);
      341+   11339        %FEP_ITEM (ITEM=%KZ$SYNC_KHSTT_INPINTCNT#,SCALE=PER_MINUTE);
      342+   11350        %FEP_FORM (FORM="' Interrupts/minute                         %6D         %6D'");
      343+   11358
      344+   11359        %FEP_ITEM (ITEM=%KZ$SYNC_KHSTT_OTPINTISATIM#,SCALE=PCT_TIME);
      345+   11370        %FEP_ITEM (ITEM=%KZ$SYNC_KHSTT_INPINTISATIM#,SCALE=PCT_TIME);
      346+   11381        %FEP_FORM (FORM=
             11381            "' %% Interrupt service time                 %4D.%2ZD        %4D.%2ZD'");
      347+   11389
      348+   11390        %FEP_ITEM (ITEM=%KZ$SYNC_PTHTICS#,SCALE=PCT_TIME);
      349+   11401        %FEP_FORM (FORM="' %% Path service time                               %4D.%2ZD'");
      350+   11409
      351+   11410        %FEP_ITEM (ITEM=%KZ$SYNC_KHSTT_OTPBFRBYTUTL#,SCALE=ABS);
      352+   11421        %FEP_ITEM (ITEM=%KZ$SYNC_KHSTT_INPBFRBYTUTL#,SCALE=ABS);
      353+   11432        %FEP_FORM (FORM="' Buffer utilization, bytes                %7D        %7D'");
      354+   11440
      355+   11441        %FEP_ITEM (ITEM=%KZ$SYNC_KHSTT_CTXBYTUTL#,SCALE=ABS);
      356+   11452        %FEP_FORM (FORM="'%/ Context utilization, bytes                         %7D'");
PL6.E3A0      #001=PSD$FEP File=PSD$FEP.:E05TSI                                  WED 07/30/97 04:27 Page:20
      357+   11460
      358+   11461        %FEP_GROUP;
      359+   11469
      360+   11470        %FEP_ITEM (ITEM=%KZ$3270STT_OTPBFRSIZ#,CONSEC=8,SCALE=PER_MINUTE);
      361+   11481        %FEP_FORM (FORM=
             11481            "'%/ Output buffers     32     64    128    256    512   1024   2048   4096'",
      362+   11482                   MORE="'%/                 %5D  %5D  %5D  %5D  %5D  %5D  %5D  %5D'");
      363+   11490
      364+   11491        %FEP_ITEM (ITEM=%KZ$3270STT_TRNSCT#,SCALE=PER_MINUTE);
      365+   11502        %FEP_FORM (FORM="'%/ # of transactions/minute                           %6D'");
      366+   11510
      367+   11511        %FEP_ITEM (ITEM=%KZ$3270STT_TOTSSN#,SCALE=PER_MINUTE);
      368+   11522        %FEP_FORM (FORM="' # of sessions/minute                               %6D'");
      369+   11530
      370+   11531        %FEP_ITEM (ITEM=%KZ$3270STT_GENPOL#,SCALE=PER_MINUTE);
      371+   11542        %FEP_FORM (FORM="' # of general poll loops/minute                     %6D'");
      372+   11550
      373+   11551        %FEP_ITEM (ITEM=%KZ$3270STT_SNDOTP#,SCALE=PER_MINUTE);
      374+   11562        %FEP_FORM (FORM="' # of general polls followed by output/minute       %6D'");
      375+   11570
      376+   11571        %FEP_ITEM (ITEM=%KZ$3270STT_WAT#,SCALE=PER_MINUTE);
      377+   11582        %FEP_FORM (FORM="' # of general polls followed by nothing to do/min   %6D'");
      378+   11590
      379+   11591        %FEP_ITEM (ITEM=%KZ$3270STT_SEL#,SCALE=PER_MINUTE);
      380+   11602        %FEP_FORM (FORM="' # of select sequences sent/minute                  %6D'");
      381+   11610
      382+   11611
      383+   11612        %FEP_GROUP (TITLE="'%/ 3270 buffer management'");
      384+   11620
      385+   11621        %FEP_ITEM (ITEM=KZ$3270STT_BPSTT_TOT#,SCALE=ABS);
      386+   11632        %FEP_ITEM (ITEM=KZ$3270STT_BPSTT_USE#,SCALE=ABS);
      387+   11643        %FEP_ITEM (ITEM=KZ$3270STT_BPSTT_MXU#,SCALE=ABS);
      388+   11654        %FEP_FORM (FORM="' words total   %6D   in use   %6D   peak in use   %6D'");
      389+   11662
      390+   11663        %FEP_ITEM (ITEM=KZ$3270STT_BPSTT_GETC#,SCALE=PER_MINUTE);
      391+   11674        %FEP_ITEM (ITEM=KZ$3270STT_BPSTT_GETT#,SCALE=PCT_TIME);
      392+   11685        %FEP_FORM (FORM="' # of get calls/minute           %6D   %% time        %3D.%2ZD'");
PL6.E3A0      #001=PSD$FEP File=PSD$FEP.:E05TSI                                  WED 07/30/97 04:27 Page:21
      393+   11693
      394+   11694        %FEP_ITEM (ITEM=KZ$3270STT_BPSTT_RLSC#,SCALE=PER_MINUTE);
      395+   11705        %FEP_ITEM (ITEM=KZ$3270STT_BPSTT_RLST#,SCALE=PCT_TIME);
      396+   11716        %FEP_FORM (FORM="' # of release calls/minute       %6D   %% time        %3D.%2ZD'");
      397+   11724
      398+   11725        %FEP_ITEM (ITEM=KZ$3270STT_BPSTT_GETF#,SCALE=PER_MINUTE);
      399+   11736        %FEP_FORM (FORM="' # of get failures with enough free/minute   %6D'");
      400+   11744
      401+   11745        %FEP_ITEM (ITEM=KZ$3270STT_BPSTT_FRG#,SCALE=PER_MINUTE);
      402+   11756        %FEP_FORM (FORM="' # of fragmentations/minute                  %6D'");
      403+   11764
      404+   11765        %FEP_ITEM (ITEM=KZ$3270STT_BPSTT_CMB#,SCALE=PER_MINUTE);
      405+   11776        %FEP_FORM (FORM="' # of re-combinations/minute                 %6D'");
      406+   11784
      407+   11785        %FEP_ITEM (ITEM=KZ$3270STT_BPSTT_SCH#,SCALE=PER_MINUTE);
      408+   11796        %FEP_FORM (FORM="' # of buddy searches/minute                  %6D'");
      409+   11804
      410+   11805        %FEP_ITEM (ITEM=KZ$3270STT_BPSTT_CLKCTX#,SCALE=ABS);
      411+   11816        %FEP_ITEM (ITEM=KZ$3270STT_BPSTT_CLKC#,SCALE=PER_MINUTE);
      412+   11827        %FEP_ITEM (ITEM=KZ$3270STT_BPSTT_CLKE#,SCALE=PER_MINUTE);
      413+   11838        %FEP_FORM (FORM=
             11838            "'%/ Clock context blocks %5D   Service calls/min %5D   expirations/min %5D'");
      414+   11846
      415+   11847        %FEP_GROUP (TITLE="'%/ Free buffer distribution'");
      416+   11855
      417+   11856        %FEP_ITEM (ITEM=KZ$3270STT_BPSTT_MINSIZ#,SCALE=ABS);
      418+   11867        %FEP_FORM (FORM="' size     %N=%13(%#:1023?.1[%4.#:1024/KDK%?%5.#KD%]%#:2*=%)'");
      419+   11875
      420+   11876        %FEP_ITEM (ITEM=KZ$3270STT_BPSTT_COUNT#,CONSEC=13,SCALE=ABS);
      421+   11887        %FEP_FORM (FORM="' # free   %13(%5D%)'");
      422+   11895        /*N* THIS TOO
      423+   11896        %FEP_ITEM (ITEM=FEPTEMP_BFRWRDS#,CONSEC=13,SCALE=ABS);
      424+   11897        %FEP_FORM (FORM="' words    %13(%5D%)'");
      425+   11898        */
      426+   11899        %FEP_ITEM (ITEM=KZ$3270STT_BPSTT_PKCNT#,CONSEC=13,SCALE=ABS);
      427+   11910        %FEP_FORM (FORM="' peak free%13(%5D%)'");
      428+   11918
PL6.E3A0      #001=PSD$FEP File=PSD$FEP.:E05TSI                                  WED 07/30/97 04:27 Page:22
      429+   11919        %FEP_ENDTBL;
      430+   11926        %EJECT;
PL6.E3A0      #001=PSD$FEP File=PSD$FEP.:E05TSI                                  WED 07/30/97 04:27 Page:23
      431+   11927    1   DCL 1 PS_FEPTBL_PLDVIP ALIGNED CONSTANT,
      432+   11928
      433+   11929        %FEP_ITEM (ITEM=%KZ$3270STT_TOTCNC#,SCALE=ABS);
      434+   11940        %FEP_FORM (FORM=
             11940            "'%/ *** Polled VIP statistics for handler %.8>A *** active sessions = %5D '");
      435+   11948
      436+   11949        %FEP_GROUP (TITLE=
             11949            "'   -Item-                            Hndlr-to-line  Line-to-hndlr'");
      437+   11957
      438+   11958        %FEP_ITEM (ITEM=%KZ$3270STT_CHROUT#,SCALE=PER_MINUTE);
      439+   11969        %FEP_ITEM (ITEM=%KZ$3270STT_CHRIN#,SCALE=PER_MINUTE);
      440+   11980        %FEP_FORM (FORM="' Characters/minute                %07D        %07D'");
      441+   11988
      442+   11989
      443+   11990
      444+   11991        %FEP_ITEM (ITEM=%KZ$3270STT_BLKOUT#,SCALE=PER_MINUTE);
      445+   12002        %FEP_ITEM (ITEM=%KZ$3270STT_BLKIN#,SCALE=PER_MINUTE);
      446+   12013        %FEP_FORM (FORM="' Data blocks/minute                         %6D         %6D'");
      447+   12021
      448+   12022        %FEP_ITEM (ITEM=%KZ$SYNC_KHSTT_OTPINTCNT#,SCALE=PER_MINUTE);
      449+   12033        %FEP_ITEM (ITEM=%KZ$SYNC_KHSTT_INPINTCNT#,SCALE=PER_MINUTE);
      450+   12044        %FEP_FORM (FORM="' Interrupts/minute                         %6D         %6D'");
      451+   12052
      452+   12053        %FEP_ITEM (ITEM=%KZ$SYNC_KHSTT_OTPINTISATIM#,SCALE=PCT_TIME);
      453+   12064        %FEP_ITEM (ITEM=%KZ$SYNC_KHSTT_INPINTISATIM#,SCALE=PCT_TIME);
      454+   12075        %FEP_FORM (FORM=
             12075            "' %% Interrupt service time                 %4D.%2ZD        %4D.%2ZD'");
      455+   12083
      456+   12084        %FEP_ITEM (ITEM=%KZ$SYNC_PTHTICS#,SCALE=PCT_TIME);
      457+   12095        %FEP_FORM (FORM="' %% Path service time                               %4D.%2ZD'");
      458+   12103
      459+   12104        %FEP_ITEM (ITEM=%KZ$SYNC_KHSTT_OTPBFRBYTUTL#,SCALE=ABS);
      460+   12115        %FEP_ITEM (ITEM=%KZ$SYNC_KHSTT_INPBFRBYTUTL#,SCALE=ABS);
      461+   12126        %FEP_FORM (FORM="' Buffer utilization, bytes                %7D        %7D'");
      462+   12134
      463+   12135        %FEP_ITEM (ITEM=%KZ$SYNC_KHSTT_CTXBYTUTL#,SCALE=ABS);
      464+   12146        %FEP_FORM (FORM="'%/ Context utilization, bytes                         %7D'");
PL6.E3A0      #001=PSD$FEP File=PSD$FEP.:E05TSI                                  WED 07/30/97 04:27 Page:24
      465+   12154
      466+   12155        %FEP_GROUP;
      467+   12163
      468+   12164        %FEP_ITEM (ITEM=%KZ$3270STT_OTPBFRSIZ#,CONSEC=8,SCALE=PER_MINUTE);
      469+   12175        %FEP_FORM (FORM=
             12175            "'%/ Output buffers     32     64    128    256    512   1024   2048   4096'",
      470+   12176                   MORE="'%/                 %5D  %5D  %5D  %5D  %5D  %5D  %5D  %5D'");
      471+   12184
      472+   12185        %FEP_ITEM (ITEM=%KZ$3270STT_TRNSCT#,SCALE=PER_MINUTE);
      473+   12196        %FEP_FORM (FORM="'%/ # of transactions/minute                           %6D'");
      474+   12204
      475+   12205        %FEP_ITEM (ITEM=%KZ$3270STT_TOTSSN#,SCALE=PER_MINUTE);
      476+   12216        %FEP_FORM (FORM="' # of sessions/minute                               %6D'");
      477+   12224
      478+   12225        %FEP_ITEM (ITEM=%KZ$3270STT_GENPOL#,SCALE=PER_MINUTE);
      479+   12236        %FEP_FORM (FORM="' # of general poll loops/minute                     %6D'");
      480+   12244
      481+   12245        %FEP_ITEM (ITEM=%KZ$3270STT_SNDOTP#,SCALE=PER_MINUTE);
      482+   12256        %FEP_FORM (FORM="' # of general polls followed by output/minute       %6D'");
      483+   12264
      484+   12265        %FEP_ITEM (ITEM=%KZ$3270STT_WAT#,SCALE=PER_MINUTE);
      485+   12276        %FEP_FORM (FORM="' # of general polls followed by nothing to do/min   %6D'");
      486+   12284
      487+   12285        %FEP_ITEM (ITEM=%KZ$3270STT_SEL#,SCALE=PER_MINUTE);
      488+   12296        %FEP_FORM (FORM="' # of select sequences sent/minute                  %6D'");
      489+   12304
      490+   12305
      491+   12306        %FEP_GROUP (TITLE="'%/ Polled VIP buffer management'");
      492+   12314
      493+   12315        %FEP_ITEM (ITEM=KZ$3270STT_BPSTT_TOT#,SCALE=ABS);
      494+   12326        %FEP_ITEM (ITEM=KZ$3270STT_BPSTT_USE#,SCALE=ABS);
      495+   12337        %FEP_ITEM (ITEM=KZ$3270STT_BPSTT_MXU#,SCALE=ABS);
      496+   12348        %FEP_FORM (FORM="' words total   %6D   in use   %6D   peak in use   %6D'");
      497+   12356
      498+   12357        %FEP_ITEM (ITEM=KZ$3270STT_BPSTT_GETC#,SCALE=PER_MINUTE);
      499+   12368        %FEP_ITEM (ITEM=KZ$3270STT_BPSTT_GETT#,SCALE=PCT_TIME);
      500+   12379        %FEP_FORM (FORM="' # of get calls/minute           %6D   %% time        %3D.%2ZD'");
PL6.E3A0      #001=PSD$FEP File=PSD$FEP.:E05TSI                                  WED 07/30/97 04:27 Page:25
      501+   12387
      502+   12388        %FEP_ITEM (ITEM=KZ$3270STT_BPSTT_RLSC#,SCALE=PER_MINUTE);
      503+   12399        %FEP_ITEM (ITEM=KZ$3270STT_BPSTT_RLST#,SCALE=PCT_TIME);
      504+   12410        %FEP_FORM (FORM="' # of release calls/minute       %6D   %% time        %3D.%2ZD'");
      505+   12418
      506+   12419        %FEP_ITEM (ITEM=KZ$3270STT_BPSTT_GETF#,SCALE=PER_MINUTE);
      507+   12430        %FEP_FORM (FORM="' # of get failures with enough free/minute   %6D'");
      508+   12438
      509+   12439        %FEP_ITEM (ITEM=KZ$3270STT_BPSTT_FRG#,SCALE=PER_MINUTE);
      510+   12450        %FEP_FORM (FORM="' # of fragmentations/minute                  %6D'");
      511+   12458
      512+   12459        %FEP_ITEM (ITEM=KZ$3270STT_BPSTT_CMB#,SCALE=PER_MINUTE);
      513+   12470        %FEP_FORM (FORM="' # of re-combinations/minute                 %6D'");
      514+   12478
      515+   12479        %FEP_ITEM (ITEM=KZ$3270STT_BPSTT_SCH#,SCALE=PER_MINUTE);
      516+   12490        %FEP_FORM (FORM="' # of buddy searches/minute                  %6D'");
      517+   12498
      518+   12499        %FEP_ITEM (ITEM=KZ$3270STT_BPSTT_CLKCTX#,SCALE=ABS);
      519+   12510        %FEP_ITEM (ITEM=KZ$3270STT_BPSTT_CLKC#,SCALE=PER_MINUTE);
      520+   12521        %FEP_ITEM (ITEM=KZ$3270STT_BPSTT_CLKE#,SCALE=PER_MINUTE);
      521+   12532        %FEP_FORM (FORM=
             12532            "'%/ Clock context blocks %5D   Service calls/min %5D   expirations/min %5D'");
      522+   12540
      523+   12541        %FEP_GROUP (TITLE="'%/ Free buffer distribution'");
      524+   12549
      525+   12550        %FEP_ITEM (ITEM=KZ$3270STT_BPSTT_MINSIZ#,SCALE=ABS);
      526+   12561        %FEP_FORM (FORM="' size     %N=%13(%#:1023?.1[%4.#:1024/KDK%?%5.#KD%]%#:2*=%)'");
      527+   12569
      528+   12570        %FEP_ITEM (ITEM=KZ$3270STT_BPSTT_COUNT#,CONSEC=13,SCALE=ABS);
      529+   12581        %FEP_FORM (FORM="' # free   %13(%5D%)'");
      530+   12589        /*N* THIS TOO
      531+   12590        %FEP_ITEM (ITEM=FEPTEMP_BFRWRDS#,CONSEC=13,SCALE=ABS);
      532+   12591        %FEP_FORM (FORM="' words    %13(%5D%)'");
      533+   12592        */
      534+   12593        %FEP_ITEM (ITEM=KZ$3270STT_BPSTT_PKCNT#,CONSEC=13,SCALE=ABS);
      535+   12604        %FEP_FORM (FORM="' peak free%13(%5D%)'");
      536+   12612
PL6.E3A0      #001=PSD$FEP File=PSD$FEP.:E05TSI                                  WED 07/30/97 04:27 Page:26
      537+   12613        %FEP_ENDTBL;
      538+   12620        %EJECT;
PL6.E3A0      #001=PSD$FEP File=PSD$FEP.:E05TSI                                  WED 07/30/97 04:27 Page:27
      539+   12621    1   DCL 1 PS_FEPTBL_X29   ALIGNED CONSTANT,
      540+   12622
      541+   12623        %FEP_FORM (FORM="'%/ *** X.29 statistics for handler %A '");
      542+   12631
      543+   12632        %FEP_GROUP (TITLE=
             12632            "'   -Item-                            Hndlr-to-line  Line-to-hndlr'");
      544+   12640
      545+   12641        %FEP_ITEM (ITEM=%KX_X29_KHSTT_OTPINTCNT#,SCALE=PER_MINUTE);
      546+   12652        %FEP_ITEM (ITEM=%KX_X29_KHSTT_INPINTCNT#,SCALE=PER_MINUTE);
      547+   12663        %FEP_FORM (FORM="' Interrupts/minute                         %6D         %6D'");
      548+   12671
      549+   12672        %FEP_ITEM (ITEM=%KX_X29_KHSTT_OTPINTISATIM#,SCALE=PCT_TIME);
      550+   12683        %FEP_ITEM (ITEM=%KX_X29_KHSTT_INPINTISATIM#,SCALE=PCT_TIME);
      551+   12694        %FEP_FORM (FORM=
             12694            "' %% Interrupt service time                 %4D.%2ZD        %4D.%2ZD'");
      552+   12702
      553+   12703        %FEP_ITEM (ITEM=%KX_X29_KHSTT_OTPBFRBYTUTL#,SCALE=ABS);
      554+   12714        %FEP_ITEM (ITEM=%KX_X29_KHSTT_INPBFRBYTUTL#,SCALE=ABS);
      555+   12725        %FEP_FORM (FORM="' Buffer utilization, bytes                %7D        %7D'");
      556+   12733
      557+   12734        %FEP_ITEM (ITEM=%KX_X29_KHSTT_CTXBYTUTL#,SCALE=ABS);
      558+   12745        %FEP_FORM (FORM="' Context utilization, bytes                         %7D'");
      559+   12753
      560+   12754        %FEP_ITEM (ITEM=%KX_X29_OTPBFRGETCNT_SML#,SCALE=PER_MINUTE);
      561+   12765        %FEP_ITEM (ITEM=%KX_X29_OTPBFRGETCNT_BIG#,SCALE=PER_MINUTE);
      562+   12776        %FEP_FORM (FORM=
             12776            "' Small output buffer gets/min  %6D       Large output buffer gets/min  %6D'");
      563+   12784
      564+   12785        %FEP_ITEM (ITEM=%KX_X29_OTPBFRFULCNT_SML#,SCALE=PER_MINUTE);
      565+   12796        %FEP_ITEM (ITEM=%KX_X29_OTPBFRFULCNT_BIG#,SCALE=PER_MINUTE);
      566+   12807        %FEP_FORM (FORM=
             12807            "' Small output buffers full/min %6D       Large output buffers full/min %6D'");
      567+   12815
      568+   12816
      569+   12817        %FEP_ITEM (ITEM=%KX_X29_LINSPDDST#,SUBSCR=2,SCALE=ABS);
      570+   12828        %FEP_ITEM (ITEM=%KX_X29_LINSPDDST#,SUBSCR=4,CONSEC=12,SCALE=ABS);
      571+   12839        %FEP_FORM (FORM=
PL6.E3A0      #001=PSD$FEP File=PSD$FEP.:E05TSI                                  WED 07/30/97 04:27 Page:28
             12839            "'%/ Line speeds  110 150 200 300 600 1050 1200 1800 2000 2400 4800 9600 19.2'",
      572+   12840                   MORE=
             12840             "'%/              %3D %3D %3D %3D %3D  %3D  %3D  %3D  %3D  %3D  %3D  %3D  %3D'"
             12840                       );
      573+   12848
      574+   12849        %FEP_ITEM (ITEM=%KX_X29_TIMEOUTS#,SCALE=PER_MINUTE);
      575+   12860        %FEP_FORM (FORM="' X.29 timeouts/minute                   %6D'");
      576+   12868
      577+   12869        %FEP_ITEM (ITEM=%KX_X29_CIRCUITS#,SCALE=ABS);
      578+   12880        %FEP_FORM (FORM="' X.29 circuits                          %6D'");
      579+   12888
      580+   12889        %FEP_ENDTBL;
      581+   12896        %EJECT;
PL6.E3A0      #001=PSD$FEP File=PSD$FEP.:E05TSI                                  WED 07/30/97 04:27 Page:29
      582+   12897    1   DCL 1 PS_FEPTBL_HDLC ALIGNED CONSTANT,
      583+   12898
      584+   12899        %FEP_ITEM (ITEM=%KX_HDLC_LINES#,SCALE=ABS);
      585+   12910        %FEP_FORM (FORM="'%/ *** HDLC statistics for handler %.8>A *** lines = %5D'");
      586+   12918
      587+   12919        %FEP_GROUP (TITLE="'   -Item-                     FEP-to-line  Line-to-FEP'");
      588+   12927
      589+   12928        %FEP_ITEM (ITEM=%KX_HDLC_OUT_TCB_COUNT#,SCALE=PER_MINUTE);
      590+   12939        %FEP_ITEM (ITEM=%KX_HDLC_IN_TCB_COUNT#,SCALE=PER_MINUTE);
      591+   12950        %FEP_FORM (FORM="' Interrupts/minute               %6D       %6D'");
      592+   12958
      593+   12959        %FEP_ITEM (ITEM=%KX_HDLC_OUT_TCB_TICS#,SCALE=PCT_TIME);
      594+   12970        %FEP_ITEM (ITEM=%KX_HDLC_IN_TCB_TICS#,SCALE=PCT_TIME);
      595+   12981        %FEP_FORM (FORM="' %% Interrupt level execution     %3D.%2ZD       %3D.%2ZD'");
      596+   12989
      597+   12990        %FEP_ITEM (ITEM=%KX_HDLC_FRAMES_OUT#,SCALE=PER_MINUTE);
      598+   13001        %FEP_ITEM (ITEM=%KX_HDLC_FRAMES_IN#,SCALE=PER_MINUTE);
      599+   13012        %FEP_FORM (FORM="' Frames/minute                   %6D       %6D'");
      600+   13020
      601+   13021        %FEP_ITEM (ITEM=%KX_HDLC_BYTES_OUT#,SCALE=PER_MINUTE);
      602+   13032        %FEP_ITEM (ITEM=%KX_HDLC_BYTES_IN#,SCALE=PER_MINUTE);
      603+   13043        %FEP_FORM (FORM="' Frame bytes/minute             %07D      %07D'");
      604+   13051
      605+   13052        %FEP_ITEM (ITEM=%KX_HDLC_BYTES_OUT#,DIVISOR=%KX_HDLC_FRAMES_OUT#,SCALE=QUOTIENT);
      606+   13063        %FEP_ITEM (ITEM=%KX_HDLC_BYTES_IN#,DIVISOR=%KX_HDLC_FRAMES_IN#,SCALE=QUOTIENT);
      607+   13074        %FEP_FORM (FORM="' Bytes/frame                     %6D       %6D'");
      608+   13082
      609+   13083        %FEP_ITEM (ITEM=%KX_HDLC_TIMEOUTS#,SCALE=PER_MINUTE);
      610+   13094        %FEP_FORM (FORM="' Frame level timeouts/minute            %6D'");
      611+   13102
      612+   13103        %FEP_ITEM (ITEM=%KX_HDLC_F_REJECTS_OUT#,SCALE=PER_MINUTE);
      613+   13114        %FEP_ITEM (ITEM=%KX_HDLC_F_REJECTS_IN#,SCALE=PER_MINUTE);
      614+   13125        %FEP_FORM (FORM="' Frame level rejects/minute      %6D       %6D'");
      615+   13133
      616+   13134        %FEP_ITEM (ITEM=%KX_HDLC_RESETS#,SCALE=PER_MINUTE);
      617+   13145        %FEP_FORM (FORM="' Frame level resets/minute              %6D'");
      618+   13153
PL6.E3A0      #001=PSD$FEP File=PSD$FEP.:E05TSI                                  WED 07/30/97 04:27 Page:30
      619+   13154        %FEP_ITEM (ITEM=%KX_HDLC_CONNECTS#,SCALE=PER_MINUTE);
      620+   13165        %FEP_FORM (FORM="' Frame connects/minute                  %6D'");
      621+   13173
      622+   13174        %FEP_ITEM (ITEM=%KX_HDLC_DISCONNECTS#,SCALE=PER_MINUTE);
      623+   13185        %FEP_FORM (FORM="' Frame disconnects/minute               %6D'");
      624+   13193
      625+   13194        %FEP_ENDTBL;
      626+   13201        %EJECT;
PL6.E3A0      #001=PSD$FEP File=PSD$FEP.:E05TSI                                  WED 07/30/97 04:27 Page:31
      627+   13202    1   DCL 1 PS_FEPTBL_X25 ALIGNED CONSTANT,
      628+   13203
      629+   13204        %FEP_ITEM (ITEM=%KX_X25_CIRCUITS#,SCALE=ABS);
      630+   13215        %FEP_FORM (FORM="'%/ *** X.25 statistics for handler %.8>A *** circuits = %5D'");
      631+   13223
      632+   13224        %FEP_GROUP (TITLE="'   -Item-                     FEP-to-line  Line-to-FEP'");
      633+   13232
      634+   13233        %FEP_ITEM (ITEM=%KX_X25_PACKETS_OUT#,SCALE=PER_MINUTE);
      635+   13244        %FEP_ITEM (ITEM=%KX_X25_PACKETS_IN#,SCALE=PER_MINUTE);
      636+   13255        %FEP_FORM (FORM="' Packets/minute                  %6D       %6D'");
      637+   13263
      638+   13264        %FEP_ITEM (ITEM=%KX_X25_BYTES_OUT#,SCALE=PER_MINUTE);
      639+   13275        %FEP_ITEM (ITEM=%KX_X25_BYTES_IN#,SCALE=PER_MINUTE);
      640+   13286        %FEP_FORM (FORM="' Bytes/minute                   %07D      %07D'");
      641+   13294
      642+   13295        %FEP_ITEM (ITEM=%KX_X25_BYTES_OUT#,DIVISOR=%KX_X25_PACKETS_OUT#,SCALE=QUOTIENT);
      643+   13306        %FEP_ITEM (ITEM=%KX_X25_BYTES_IN#,DIVISOR=%KX_X25_PACKETS_IN#,SCALE=QUOTIENT);
      644+   13317        %FEP_FORM (FORM="' Bytes/packet                    %6D       %6D'");
      645+   13325
      646+   13326        %FEP_ITEM (ITEM=%KX_X25_CALLS_OUT#,SCALE=PER_MINUTE);
      647+   13337        %FEP_ITEM (ITEM=%KX_X25_CALLS_IN#,SCALE=PER_MINUTE);
      648+   13348        %FEP_FORM (FORM="' Call packets/minute             %6D       %6D'");
      649+   13356
      650+   13357        %FEP_ITEM (ITEM=%KX_X25_CLEARS_OUT#,SCALE=PER_MINUTE);
      651+   13368        %FEP_ITEM (ITEM=%KX_X25_CLEARS_IN#,SCALE=PER_MINUTE);
      652+   13379        %FEP_FORM (FORM="' Clear packets/minute            %6D       %6D'");
      653+   13387
      654+   13388        %FEP_ITEM (ITEM=%KX_X25_D_PACKETS_OUT#,SCALE=PER_MINUTE);
      655+   13399        %FEP_ITEM (ITEM=%KX_X25_D_PACKETS_IN#,SCALE=PER_MINUTE);
      656+   13410        %FEP_FORM (FORM="' Data packets/minute             %6D       %6D'");
      657+   13418
      658+   13419        %FEP_ITEM (ITEM=%KX_X25_D_BYTES_OUT#,SCALE=PER_MINUTE);
      659+   13430        %FEP_ITEM (ITEM=%KX_X25_D_BYTES_IN#,SCALE=PER_MINUTE);
      660+   13441        %FEP_FORM (FORM="' Data bytes/minute              %07D      %07D'");
      661+   13449
      662+   13450        %FEP_ITEM (ITEM=%KX_X25_D_BYTES_OUT#,DIVISOR=%KX_X25_D_PACKETS_OUT#,SCALE=QUOTIENT);
      663+   13461        %FEP_ITEM (ITEM=%KX_X25_D_BYTES_IN#,DIVISOR=%KX_X25_D_PACKETS_IN#,SCALE=QUOTIENT);
PL6.E3A0      #001=PSD$FEP File=PSD$FEP.:E05TSI                                  WED 07/30/97 04:27 Page:32
      664+   13472        %FEP_FORM (FORM="' Data bytes/packet               %6D       %6D'");
      665+   13480
      666+   13481        %FEP_ITEM (ITEM=%KX_X25_D_CMPPACKETS_OUT#,SCALE=PER_MINUTE);
      667+   13492        %FEP_ITEM (ITEM=%KX_X25_D_CMPPACKETS_IN#,SCALE=PER_MINUTE);
      668+   13503        %FEP_FORM (FORM="' Non-continued packets/minute    %6D       %6D'");
      669+   13511
      670+   13512        %FEP_ITEM (ITEM=%KX_X25_P_FLOW_OUT#,SCALE=PER_MINUTE);
      671+   13523        %FEP_ITEM (ITEM=%KX_X25_P_FLOW_IN#,SCALE=PER_MINUTE);
      672+   13534        %FEP_FORM (FORM="' Flow packets/minute             %6D       %6D'");
      673+   13542
      674+   13543        %FEP_ITEM (ITEM=%KX_X25_RESTART_OUT#,SCALE=PER_MINUTE);
      675+   13554        %FEP_ITEM (ITEM=%KX_X25_RESTART_IN#,SCALE=PER_MINUTE);
      676+   13565        %FEP_FORM (FORM="' Packet level restarts/minute    %6D       %6D'");
      677+   13573
      678+   13574        %FEP_ITEM (ITEM=%KX_X25_P_REJECTS_OUT#,SCALE=PER_MINUTE);
      679+   13585        %FEP_ITEM (ITEM=%KX_X25_P_REJECTS_IN#,SCALE=PER_MINUTE);
      680+   13596        %FEP_FORM (FORM="' Packet level rejects/minute     %6D       %6D'");
      681+   13604
      682+   13605        %FEP_ITEM (ITEM=%KX_X25_RESETS#,SCALE=PER_MINUTE);
      683+   13616        %FEP_FORM (FORM="' Packet level resets/minute           %6D'");
      684+   13624
      685+   13625        %FEP_ITEM (ITEM=%KX_X25_P_BLK#,SCALE=PER_MINUTE);
      686+   13636        %FEP_FORM (FORM="' Packet window full/minute            %6D'");
      687+   13644
      688+   13645        %FEP_ITEM (ITEM=%KX_X25_F_BLK#,SCALE=PER_MINUTE);
      689+   13656        %FEP_FORM (FORM="' Packet blocked by frame/minute       %6D'");
      690+   13664
      691+   13665        %FEP_ITEM (ITEM=%KX_X25_KXSGET#,SCALE=PER_MINUTE);
      692+   13676        %FEP_FORM (FORM="' I/O buffer gets/minute               %6D'");
      693+   13684
      694+   13685        %FEP_ITEM (ITEM=%KX_X25_KVBGET#,SCALE=PER_MINUTE);
      695+   13696        %FEP_FORM (FORM="' I/O buddy space gets/minute          %6D'");
      696+   13704
      697+   13705        %FEP_ENDTBL;
      698+   13712        %EJECT;
PL6.E3A0      #001=PSD$FEP File=PSD$FEP.:E05TSI                                  WED 07/30/97 04:27 Page:33
      699+   13713    1   DCL 1 PS_FEPTBL_VDH ALIGNED CONSTANT,
      700+   13714        %FEP_ITEM (ITEM=%KV$STT_BFRCNT#,SUBSCR=%KV_STRTYP_VDI,SCALE=ABS);
      701+   13725        %FEP_FORM (FORM=
             13725            "'%/ *** VDH statistics for handler %.8>A *** VDI connections = %5D'");
      702+   13733
      703+   13734
      704+   13735        %FEP_ITEM (ITEM=%KV$STT_USRENTCNT#,SCALE=PER_MINUTE);
      705+   13746        %FEP_FORM (FORM="' User to VDH entry attempts       %7D'");
      706+   13754
      707+   13755        %FEP_ITEM (ITEM=%KV$STT_USRENTDFRCNT#,SCALE=PER_MINUTE);
      708+   13766        %FEP_FORM (FORM="' User to VDH entry deferrals      %7D'");
      709+   13774
      710+   13775        %FEP_ITEM (ITEM=%KV$STT_CNCEVTCNT#,SCALE=PER_MINUTE);
      711+   13786        %FEP_FORM (FORM="' Connect events                   %7D'");
      712+   13794
      713+   13795        %FEP_ITEM (ITEM=%KV$STT_SCHEXCTIM#,SCALE=PCT_TIME);
      714+   13806        %FEP_FORM (FORM="' %% Scheduled (non-interrupt) CPU   %3D.%2ZD'");
      715+   13814
      716+   13815        %FEP_GROUP (TITLE="'%/   -Item-             User-to-hndlr  Hndlr-to-line  Line-to-hn
             13815        dlr Hndlr-to-user'");
      717+   13823
      718+   13824        %FEP_ITEM (ITEM=%KV$STT_RCV_VDOCNT#,SCALE=PER_MINUTE);
      719+   13835        %FEP_ITEM (ITEM=%KV$STT_SND_VDOCNT#,SCALE=PER_MINUTE);
      720+   13846        %FEP_FORM (FORM=
             13846            "' Total msgs/minute           %6D                                      %6D'");
      721+   13854
      722+   13855        %FEP_ITEM (ITEM=%KV$STT_RCV_VDOBYTCNT#,SCALE=PER_MINUTE);
      723+   13866        %FEP_ITEM (ITEM=%KV$STT_SND_VDOBYTCNT#,SCALE=PER_MINUTE);
      724+   13877        %FEP_FORM (FORM=
             13877            "' Total msg bytes/minute     %07D                                     %07D'");
      725+   13885
      726+   13886        %FEP_ITEM (ITEM=%KV$STT_RCV_VDOBYTCNT#,DIVISOR=%KV$STT_RCV_VDOCNT#,SCALE=QUOTIENT);
      727+   13897        %FEP_ITEM (ITEM=%KV$STT_SND_VDOBYTCNT#,DIVISOR=%KV$STT_SND_VDOCNT#,SCALE=QUOTIENT);
      728+   13908        %FEP_FORM (FORM=
             13908            "' Total msg bytes/msg         %6D                                      %6D'");
      729+   13916
      730+   13917        %FEP_ITEM (ITEM=%KV$STT_RCV_SSNINTDATUNTCNT#,SCALE=PER_MINUTE);
PL6.E3A0      #001=PSD$FEP File=PSD$FEP.:E05TSI                                  WED 07/30/97 04:27 Page:34
      731+   13928        %FEP_ITEM (ITEM=%KV$STT_SND_SSNINTDATUNTCNT#,SCALE=PER_MINUTE);
      732+   13939        %FEP_FORM (FORM=
             13939            "' Session msgs/minute         %6D                                      %6D'");
      733+   13947
      734+   13948        %FEP_ITEM (ITEM=%KV$STT_RCV_SSNINTDATUNTBYTCNT#,SCALE=PER_MINUTE);
      735+   13959        %FEP_ITEM (ITEM=%KV$STT_SND_SSNINTDATUNTBYTCNT#,SCALE=PER_MINUTE);
      736+   13970        %FEP_FORM (FORM=
             13970            "' Session msg bytes/minute   %07D                                     %07D'");
      737+   13978
      738+   13979        %FEP_ITEM (ITEM=%KV$STT_RCV_SSNINTDATUNTBYTCNT#,DIVISOR=%KV$STT_RCV_SSNINTDATUNTCNT#
             13979            ,SCALE=QUOTIENT);
      739+   13990        %FEP_ITEM (ITEM=%KV$STT_SND_SSNINTDATUNTBYTCNT#,DIVISOR=%KV$STT_SND_SSNINTDATUNTCNT#
             13990            ,SCALE=QUOTIENT);
      740+   14001        %FEP_FORM (FORM=
             14001            "' Session msg bytes/msg       %6D                                      %6D'");
      741+   14009
      742+   14010        %FEP_ITEM (ITEM=%KV$STT_RCV_DATVDOCNT#,SCALE=PER_MINUTE);
      743+   14021        %FEP_ITEM (ITEM=%KV$STT_SND_DATVDOCNT#,SCALE=PER_MINUTE);
      744+   14032        %FEP_FORM (FORM=
             14032            "' Data msgs(records)/minute   %6D                                      %6D'");
      745+   14040
      746+   14041        %FEP_ITEM (ITEM=%KV$STT_RCV_DATVDOBYTCNT#,SCALE=PER_MINUTE);
      747+   14052        %FEP_ITEM (ITEM=%KV$STT_SND_DATVDOBYTCNT#,SCALE=PER_MINUTE);
      748+   14063        %FEP_FORM (FORM=
             14063            "' Data msg total bytes/min   %07D                                     %07D'");
      749+   14071
      750+   14072        %FEP_ITEM (ITEM=%KV$STT_RCV_DATVDOBYTCNT#,DIVISOR=%KV$STT_RCV_DATVDOCNT#,SCALE=
             14072            QUOTIENT);
      751+   14083        %FEP_ITEM (ITEM=%KV$STT_SND_DATVDOBYTCNT#,DIVISOR=%KV$STT_SND_DATVDOCNT#,SCALE=
             14083            QUOTIENT);
      752+   14094        %FEP_FORM (FORM=
             14094            "' Data msg total bytes/msg    %6D                                      %6D'");
      753+   14102
      754+   14103        %FEP_ITEM (ITEM=%KV$STT_RCV_DATVDODATBYTCNT#,SCALE=PER_MINUTE);
      755+   14114        %FEP_ITEM (ITEM=%KV$STT_OTPCHRCNT#,SCALE=PER_MINUTE);
      756+   14125        %FEP_ITEM (ITEM=%KV$STT_INPCHRCNT#,SCALE=PER_MINUTE);
      757+   14136        %FEP_ITEM (ITEM=%KV$STT_SND_DATVDODATBYTCNT#,SCALE=PER_MINUTE);
PL6.E3A0      #001=PSD$FEP File=PSD$FEP.:E05TSI                                  WED 07/30/97 04:27 Page:35
      758+   14147        %FEP_FORM (FORM=
             14147            "' Data msg data bytes/minute %07D        %07D        %07D       %07D'");
      759+   14155
      760+   14156        %FEP_ITEM (ITEM=%KV$STT_RCV_DATVDODATBYTCNT#,DIVISOR=%KV$STT_RCV_DATVDOCNT#,SCALE=
             14156            QUOTIENT);
      761+   14167        %FEP_ITEM (ITEM=%KV$STT_OTPCHRCNT#,DIVISOR=%KV$STT_RCV_DATVDOCNT#,SCALE=QUOTIENT);
      762+   14178        %FEP_ITEM (ITEM=%KV$STT_INPCHRCNT#,DIVISOR=%KV$STT_SND_DATVDOCNT#,SCALE=QUOTIENT);
      763+   14189        %FEP_ITEM (ITEM=%KV$STT_SND_DATVDODATBYTCNT#,DIVISOR=%KV$STT_SND_DATVDOCNT#,SCALE=
             14189            QUOTIENT);
      764+   14200        %FEP_FORM (FORM=
             14200            "' Data msg data bytes/msg     %6D         %6D         %6D        %6D'");
      765+   14208
      766+   14209
      767+   14210             /* From here down is the "Long Form."  */
      768+   14211             /* branch to ADDR(NIL) if SHORT_FLAG is set. */
      769+   14212
      770+   14213    1        2 SHORT_JUMP,
      771+   14214    1             3 TYPE# SBIN BYTE UNAL INIT(%JUMP#),
      772+   14215    1             3 COND$ PTR WALIGNED INIT(ADDR(SHORT_FLAG)),
      773+   14216    1             3 PTR$ PTR WALIGNED INIT(ADDR(NIL)),
      774+   14217
      775+   14218        %FEP_GROUP (TITLE="'%/ Message function counts, per minute'",
      776+   14219                MORE="'%/ Send = VDH to network or host%/ Recv = Network or host to VDH'");
      777+   14227
      778+   14228
      779+   14229        %IF '0'B;
      881+   14331        %ENDIF;
      882+   14332
      883+   14333
      884+   14334        %FEP_GROUP (TITLE="'%/ Current buffer information by structure type'",
      885+   14335                     MORE=
             14335                      "'%/ -Structure type-     #-of-buffers  #-of-buffer-gets  #-of-bytes'"
             14335                         );
      886+   14343
      887+   14344        %FEP_ITEM (ITEM=%KV$STT_BFRCNT#,SUBSCR=%KV_STRTYP_ACTCHR,SCALE=ABS);
      888+   14355        %FEP_ITEM (ITEM=%KV$STT_BFRGETCNT#,SUBSCR=%KV_STRTYP_ACTCHR,SCALE=PER_MINUTE);
      889+   14366        %FEP_ITEM (ITEM=%KV$STT_BYTUTL#,SUBSCR=%KV_STRTYP_ACTCHR,SCALE=ABS);
PL6.E3A0      #001=PSD$FEP File=PSD$FEP.:E05TSI                                  WED 07/30/97 04:27 Page:36
      890+   14377        %FEP_FORM (FORM="' Activation char           %6D          %6D        %6D'");
      891+   14385
      892+   14386        %FEP_ITEM (ITEM=%KV$STT_BFRCNT#,SUBSCR=%KV_STRTYP_DCB,SCALE=ABS);
      893+   14397        %FEP_ITEM (ITEM=%KV$STT_BFRGETCNT#,SUBSCR=%KV_STRTYP_DCB,SCALE=PER_MINUTE);
      894+   14408        %FEP_ITEM (ITEM=%KV$STT_BYTUTL#,SUBSCR=%KV_STRTYP_DCB,SCALE=ABS);
      895+   14419        %FEP_FORM (FORM="' DCB                       %6D          %6D        %6D'");
      896+   14427
      897+   14428        %FEP_ITEM (ITEM=%KV$STT_BFRCNT#,SUBSCR=%KV_STRTYP_DCBHDN,SCALE=ABS);
      898+   14439        %FEP_ITEM (ITEM=%KV$STT_BFRGETCNT#,SUBSCR=%KV_STRTYP_DCBHDN,SCALE=PER_MINUTE);
      899+   14450        %FEP_ITEM (ITEM=%KV$STT_BYTUTL#,SUBSCR=%KV_STRTYP_DCBHDN,SCALE=ABS);
      900+   14461        %FEP_FORM (FORM="' DCB heading               %6D          %6D        %6D'");
      901+   14469
      902+   14470        %FEP_ITEM (ITEM=%KV$STT_BFRCNT#,SUBSCR=%KV_STRTYP_ENTSRD,SCALE=ABS);
      903+   14481        %FEP_ITEM (ITEM=%KV$STT_BFRGETCNT#,SUBSCR=%KV_STRTYP_ENTSRD,SCALE=PER_MINUTE);
      904+   14492        %FEP_ITEM (ITEM=%KV$STT_BYTUTL#,SUBSCR=%KV_STRTYP_ENTSRD,SCALE=ABS);
      905+   14503        %FEP_FORM (FORM="' Enter-SRD string          %6D          %6D        %6D'");
      906+   14511
      907+   14512        %FEP_ITEM (ITEM=%KV$STT_BFRCNT#,SUBSCR=%KV_STRTYP_ERR,SCALE=ABS);
      908+   14523        %FEP_ITEM (ITEM=%KV$STT_BFRGETCNT#,SUBSCR=%KV_STRTYP_ERR,SCALE=PER_MINUTE);
      909+   14534        %FEP_ITEM (ITEM=%KV$STT_BYTUTL#,SUBSCR=%KV_STRTYP_ERR,SCALE=ABS);
      910+   14545        %FEP_FORM (FORM="' Error                     %6D          %6D        %6D'");
      911+   14553
      912+   14554        %FEP_ITEM (ITEM=%KV$STT_BFRCNT#,SUBSCR=%KV_STRTYP_ERD,SCALE=ABS);
      913+   14565        %FEP_ITEM (ITEM=%KV$STT_BFRGETCNT#,SUBSCR=%KV_STRTYP_ERD,SCALE=PER_MINUTE);
      914+   14576        %FEP_ITEM (ITEM=%KV$STT_BYTUTL#,SUBSCR=%KV_STRTYP_ERD,SCALE=ABS);
      915+   14587        %FEP_FORM (FORM="' Extension Real Device     %6D          %6D        %6D'");
      916+   14595
      917+   14596        %FEP_ITEM (ITEM=%KV$STT_BFRCNT#,SUBSCR=%KV_STRTYP_FLD,SCALE=ABS);
      918+   14607        %FEP_ITEM (ITEM=%KV$STT_BFRGETCNT#,SUBSCR=%KV_STRTYP_FLD,SCALE=PER_MINUTE);
      919+   14618        %FEP_ITEM (ITEM=%KV$STT_BYTUTL#,SUBSCR=%KV_STRTYP_FLD,SCALE=ABS);
      920+   14629        %FEP_FORM (FORM="' Field                     %6D          %6D        %6D'");
      921+   14637
      922+   14638        %FEP_ITEM (ITEM=%KV$STT_BFRCNT#,SUBSCR=%KV_STRTYP_FLDLST,SCALE=ABS);
      923+   14649        %FEP_ITEM (ITEM=%KV$STT_BFRGETCNT#,SUBSCR=%KV_STRTYP_FLDLST,SCALE=PER_MINUTE);
      924+   14660        %FEP_ITEM (ITEM=%KV$STT_BYTUTL#,SUBSCR=%KV_STRTYP_FLDLST,SCALE=ABS);
      925+   14671        %FEP_FORM (FORM="' Field list                %6D          %6D        %6D'");
      926+   14679
PL6.E3A0      #001=PSD$FEP File=PSD$FEP.:E05TSI                                  WED 07/30/97 04:27 Page:37
      927+   14680        %FEP_ITEM (ITEM=%KV$STT_BFRCNT#,SUBSCR=%KV_STRTYP_INPTAB,SCALE=ABS);
      928+   14691        %FEP_ITEM (ITEM=%KV$STT_BFRGETCNT#,SUBSCR=%KV_STRTYP_INPTAB,SCALE=PER_MINUTE);
      929+   14702        %FEP_ITEM (ITEM=%KV$STT_BYTUTL#,SUBSCR=%KV_STRTYP_INPTAB,SCALE=ABS);
      930+   14713        %FEP_FORM (FORM="' Input tabs                %6D          %6D        %6D'");
      931+   14721
      932+   14722        %FEP_ITEM (ITEM=%KV$STT_BFRCNT#,SUBSCR=%KV_STRTYP_LIN,SCALE=ABS);
      933+   14733        %FEP_ITEM (ITEM=%KV$STT_BFRGETCNT#,SUBSCR=%KV_STRTYP_LIN,SCALE=PER_MINUTE);
      934+   14744        %FEP_ITEM (ITEM=%KV$STT_BYTUTL#,SUBSCR=%KV_STRTYP_LIN,SCALE=ABS);
      935+   14755        %FEP_FORM (FORM="' Line                      %6D          %6D        %6D'");
      936+   14763
      937+   14764        %FEP_ITEM (ITEM=%KV$STT_BFRCNT#,SUBSCR=%KV_STRTYP_LINLST,SCALE=ABS);
      938+   14775        %FEP_ITEM (ITEM=%KV$STT_BFRGETCNT#,SUBSCR=%KV_STRTYP_LINLST,SCALE=PER_MINUTE);
      939+   14786        %FEP_ITEM (ITEM=%KV$STT_BYTUTL#,SUBSCR=%KV_STRTYP_LINLST,SCALE=ABS);
      940+   14797        %FEP_FORM (FORM="' Line list                 %6D          %6D        %6D'");
      941+   14805
      942+   14806        %FEP_ITEM (ITEM=%KV$STT_BFRCNT#,SUBSCR=%KV_STRTYP_MRD,SCALE=ABS);
      943+   14817        %FEP_ITEM (ITEM=%KV$STT_BFRGETCNT#,SUBSCR=%KV_STRTYP_MRD,SCALE=PER_MINUTE);
      944+   14828        %FEP_ITEM (ITEM=%KV$STT_BYTUTL#,SUBSCR=%KV_STRTYP_MRD,SCALE=ABS);
      945+   14839        %FEP_FORM (FORM="' Master real device        %6D          %6D        %6D'");
      946+   14847
      947+   14848        %FEP_ITEM (ITEM=%KV$STT_BFRCNT#,SUBSCR=%KV_STRTYP_MVD,SCALE=ABS);
      948+   14859        %FEP_ITEM (ITEM=%KV$STT_BFRGETCNT#,SUBSCR=%KV_STRTYP_MVD,SCALE=PER_MINUTE);
      949+   14870        %FEP_ITEM (ITEM=%KV$STT_BYTUTL#,SUBSCR=%KV_STRTYP_MVD,SCALE=ABS);
      950+   14881        %FEP_FORM (FORM="' Master virtual device     %6D          %6D        %6D'");
      951+   14889
      952+   14890        %FEP_ITEM (ITEM=%KV$STT_BFRCNT#,SUBSCR=%KV_STRTYP_MSG,SCALE=ABS);
      953+   14901        %FEP_ITEM (ITEM=%KV$STT_BFRGETCNT#,SUBSCR=%KV_STRTYP_MSG,SCALE=PER_MINUTE);
      954+   14912        %FEP_ITEM (ITEM=%KV$STT_BYTUTL#,SUBSCR=%KV_STRTYP_MSG,SCALE=ABS);
      955+   14923        %FEP_FORM (FORM="' Message                   %6D          %6D        %6D'");
      956+   14931
      957+   14932        %FEP_ITEM (ITEM=%KV$STT_BFRCNT#,SUBSCR=%KV_STRTYP_OTPTAB,SCALE=ABS);
      958+   14943        %FEP_ITEM (ITEM=%KV$STT_BFRGETCNT#,SUBSCR=%KV_STRTYP_OTPTAB,SCALE=PER_MINUTE);
      959+   14954        %FEP_ITEM (ITEM=%KV$STT_BYTUTL#,SUBSCR=%KV_STRTYP_OTPTAB,SCALE=ABS);
      960+   14965        %FEP_FORM (FORM="' Output tabs               %6D          %6D        %6D'");
      961+   14973
      962+   14974        %FEP_ITEM (ITEM=%KV$STT_BFRCNT#,SUBSCR=%KV_STRTYP_PAG,SCALE=ABS);
      963+   14985        %FEP_ITEM (ITEM=%KV$STT_BFRGETCNT#,SUBSCR=%KV_STRTYP_PAG,SCALE=PER_MINUTE);
PL6.E3A0      #001=PSD$FEP File=PSD$FEP.:E05TSI                                  WED 07/30/97 04:27 Page:38
      964+   14996        %FEP_ITEM (ITEM=%KV$STT_BYTUTL#,SUBSCR=%KV_STRTYP_PAG,SCALE=ABS);
      965+   15007        %FEP_FORM (FORM="' Page                      %6D          %6D        %6D'");
      966+   15015
      967+   15016        %FEP_ITEM (ITEM=%KV$STT_BFRCNT#,SUBSCR=%KV_STRTYP_PRM,SCALE=ABS);
      968+   15027        %FEP_ITEM (ITEM=%KV$STT_BFRGETCNT#,SUBSCR=%KV_STRTYP_PRM,SCALE=PER_MINUTE);
      969+   15038        %FEP_ITEM (ITEM=%KV$STT_BYTUTL#,SUBSCR=%KV_STRTYP_PRM,SCALE=ABS);
      970+   15049        %FEP_FORM (FORM="' Prompt                    %6D          %6D        %6D'");
      971+   15057
      972+   15058        %FEP_ITEM (ITEM=%KV$STT_BFRCNT#,SUBSCR=%KV_STRTYP_PTR,SCALE=ABS);
      973+   15069        %FEP_ITEM (ITEM=%KV$STT_BFRGETCNT#,SUBSCR=%KV_STRTYP_PTR,SCALE=PER_MINUTE);
      974+   15080        %FEP_ITEM (ITEM=%KV$STT_BYTUTL#,SUBSCR=%KV_STRTYP_PTR,SCALE=ABS);
      975+   15091        %FEP_FORM (FORM="' Pointer                   %6D          %6D        %6D'");
      976+   15099
      977+   15100        %FEP_ITEM (ITEM=%KV$STT_BFRCNT#,SUBSCR=%KV_STRTYP_REDBFR,SCALE=ABS);
      978+   15111        %FEP_ITEM (ITEM=%KV$STT_BFRGETCNT#,SUBSCR=%KV_STRTYP_REDBFR,SCALE=PER_MINUTE);
      979+   15122        %FEP_ITEM (ITEM=%KV$STT_BYTUTL#,SUBSCR=%KV_STRTYP_REDBFR,SCALE=ABS);
      980+   15133        %FEP_FORM (FORM="' Read buffer               %6D          %6D        %6D'");
      981+   15141
      982+   15142        %FEP_ITEM (ITEM=%KV$STT_BFRCNT#,SUBSCR=%KV_STRTYP_RCR,SCALE=ABS);
      983+   15153        %FEP_ITEM (ITEM=%KV$STT_BFRGETCNT#,SUBSCR=%KV_STRTYP_RCR,SCALE=PER_MINUTE);
      984+   15164        %FEP_ITEM (ITEM=%KV$STT_BYTUTL#,SUBSCR=%KV_STRTYP_RCR,SCALE=ABS);
      985+   15175        %FEP_FORM (FORM="' Record (SE)               %6D          %6D        %6D'");
      986+   15183
      987+   15184        %FEP_ITEM (ITEM=%KV$STT_BFRCNT#,SUBSCR=%KV_STRTYP_RCRLST,SCALE=ABS);
      988+   15195        %FEP_ITEM (ITEM=%KV$STT_BFRGETCNT#,SUBSCR=%KV_STRTYP_RCRLST,SCALE=PER_MINUTE);
      989+   15206        %FEP_ITEM (ITEM=%KV$STT_BYTUTL#,SUBSCR=%KV_STRTYP_RCRLST,SCALE=ABS);
      990+   15217        %FEP_FORM (FORM="' Record list (SE)          %6D          %6D        %6D'");
      991+   15225
      992+   15226        %FEP_ITEM (ITEM=%KV$STT_BFRCNT#,SUBSCR=%KV_STRTYP_SRD,SCALE=ABS);
      993+   15237        %FEP_ITEM (ITEM=%KV$STT_BFRGETCNT#,SUBSCR=%KV_STRTYP_SRD,SCALE=PER_MINUTE);
      994+   15248        %FEP_ITEM (ITEM=%KV$STT_BYTUTL#,SUBSCR=%KV_STRTYP_SRD,SCALE=ABS);
      995+   15259        %FEP_FORM (FORM="' Subordinate real device   %6D          %6D        %6D'");
      996+   15267
      997+   15268        %FEP_ITEM (ITEM=%KV$STT_BFRCNT#,SUBSCR=%KV_STRTYP_SSN,SCALE=ABS);
      998+   15279        %FEP_ITEM (ITEM=%KV$STT_BFRGETCNT#,SUBSCR=%KV_STRTYP_SSN,SCALE=PER_MINUTE);
      999+   15290        %FEP_ITEM (ITEM=%KV$STT_BYTUTL#,SUBSCR=%KV_STRTYP_SSN,SCALE=ABS);
     1000+   15301        %FEP_FORM (FORM="' Session                   %6D          %6D        %6D'");
PL6.E3A0      #001=PSD$FEP File=PSD$FEP.:E05TSI                                  WED 07/30/97 04:27 Page:39
     1001+   15309
     1002+   15310        %FEP_ITEM (ITEM=%KV$STT_BFRCNT#,SUBSCR=%KV_STRTYP_SSNHDN,SCALE=ABS);
     1003+   15321        %FEP_ITEM (ITEM=%KV$STT_BFRGETCNT#,SUBSCR=%KV_STRTYP_SSNHDN,SCALE=PER_MINUTE);
     1004+   15332        %FEP_ITEM (ITEM=%KV$STT_BYTUTL#,SUBSCR=%KV_STRTYP_SSNHDN,SCALE=ABS);
     1005+   15343        %FEP_FORM (FORM="' Session heading           %6D          %6D        %6D'");
     1006+   15351
     1007+   15352        %FEP_ITEM (ITEM=%KV$STT_BFRCNT#,SUBSCR=%KV_STRTYP_STR,SCALE=ABS);
     1008+   15363        %FEP_ITEM (ITEM=%KV$STT_BFRGETCNT#,SUBSCR=%KV_STRTYP_STR,SCALE=PER_MINUTE);
     1009+   15374        %FEP_ITEM (ITEM=%KV$STT_BYTUTL#,SUBSCR=%KV_STRTYP_STR,SCALE=ABS);
     1010+   15385        %FEP_FORM (FORM="' Stream                    %6D          %6D        %6D'");
     1011+   15393
     1012+   15394        %FEP_ITEM (ITEM=%KV$STT_BFRCNT#,SUBSCR=%KV_STRTYP_TRMTAB,SCALE=ABS);
     1013+   15405        %FEP_ITEM (ITEM=%KV$STT_BFRGETCNT#,SUBSCR=%KV_STRTYP_TRMTAB,SCALE=PER_MINUTE);
     1014+   15416        %FEP_ITEM (ITEM=%KV$STT_BYTUTL#,SUBSCR=%KV_STRTYP_TRMTAB,SCALE=ABS);
     1015+   15427        %FEP_FORM (FORM="' Terminal tabs             %6D          %6D        %6D'");
     1016+   15435
     1017+   15436        %FEP_ITEM (ITEM=%KV$STT_BFRCNT#,SUBSCR=%KV_STRTYP_TRNTBL,SCALE=ABS);
     1018+   15447        %FEP_ITEM (ITEM=%KV$STT_BFRGETCNT#,SUBSCR=%KV_STRTYP_TRNTBL,SCALE=PER_MINUTE);
     1019+   15458        %FEP_ITEM (ITEM=%KV$STT_BYTUTL#,SUBSCR=%KV_STRTYP_TRNTBL,SCALE=ABS);
     1020+   15469        %FEP_FORM (FORM="' Translate Table           %6D          %6D        %6D'");
     1021+   15477
     1022+   15478        %FEP_ITEM (ITEM=%KV$STT_BFRCNT#,SUBSCR=%KV_STRTYP_TYPAHDBFR,SCALE=ABS);
     1023+   15489        %FEP_ITEM (ITEM=%KV$STT_BFRGETCNT#,SUBSCR=%KV_STRTYP_TYPAHDBFR,SCALE=PER_MINUTE);
     1024+   15500        %FEP_ITEM (ITEM=%KV$STT_BYTUTL#,SUBSCR=%KV_STRTYP_TYPAHDBFR,SCALE=ABS);
     1025+   15511        %FEP_FORM (FORM="' Type-ahead buffer         %6D          %6D        %6D'");
     1026+   15519
     1027+   15520        %FEP_ITEM (ITEM=%KV$STT_BFRCNT#,SUBSCR=%KV_STRTYP_USRINPFNCTBL,SCALE=ABS);
     1028+   15531        %FEP_ITEM (ITEM=%KV$STT_BFRGETCNT#,SUBSCR=%KV_STRTYP_USRINPFNCTBL,SCALE=PER_MINUTE);
     1029+   15542        %FEP_ITEM (ITEM=%KV$STT_BYTUTL#,SUBSCR=%KV_STRTYP_USRINPFNCTBL,SCALE=ABS);
     1030+   15553        %FEP_FORM (FORM="' IMP or function-key table %6D          %6D        %6D'");
     1031+   15561
     1032+   15562        %FEP_ITEM (ITEM=%KV$STT_BFRCNT#,SUBSCR=%KV_STRTYP_TRCBFR,SCALE=ABS);
     1033+   15573        %FEP_ITEM (ITEM=%KV$STT_BFRGETCNT#,SUBSCR=%KV_STRTYP_TRCBFR,SCALE=PER_MINUTE);
     1034+   15584        %FEP_ITEM (ITEM=%KV$STT_BYTUTL#,SUBSCR=%KV_STRTYP_TRCBFR,SCALE=ABS);
     1035+   15595        %FEP_FORM (FORM="' VDH Trace Buffer          %6D          %6D        %6D'");
     1036+   15603
     1037+   15604        %FEP_ITEM (ITEM=%KV$STT_BFRCNT#,SUBSCR=%KV_STRTYP_USRBFR,SCALE=ABS);
PL6.E3A0      #001=PSD$FEP File=PSD$FEP.:E05TSI                                  WED 07/30/97 04:27 Page:40
     1038+   15615        %FEP_ITEM (ITEM=%KV$STT_BFRGETCNT#,SUBSCR=%KV_STRTYP_USRBFR,SCALE=PER_MINUTE);
     1039+   15626        %FEP_ITEM (ITEM=%KV$STT_BYTUTL#,SUBSCR=%KV_STRTYP_USRBFR,SCALE=ABS);
     1040+   15637        %FEP_FORM (FORM="' VDH-user buffers          %6D          %6D        %6D'");
     1041+   15645
     1042+   15646        %FEP_ITEM (ITEM=%KV$STT_BFRCNT#,SUBSCR=%KV_STRTYP_USRSHRBFR,SCALE=ABS);
     1043+   15657        %FEP_ITEM (ITEM=%KV$STT_BFRGETCNT#,SUBSCR=%KV_STRTYP_USRSHRBFR,SCALE=PER_MINUTE);
     1044+   15668        %FEP_ITEM (ITEM=%KV$STT_BYTUTL#,SUBSCR=%KV_STRTYP_USRSHRBFR,SCALE=ABS);
     1045+   15679        %FEP_FORM (FORM="' VDH-user shared buffers   %6D          %6D        %6D'");
     1046+   15687
     1047+   15688        %FEP_ITEM (ITEM=%KV$STT_BFRCNT#,SUBSCR=%KV_STRTYP_VDI,SCALE=ABS);
     1048+   15699        %FEP_ITEM (ITEM=%KV$STT_BFRGETCNT#,SUBSCR=%KV_STRTYP_VDI,SCALE=PER_MINUTE);
     1049+   15710        %FEP_ITEM (ITEM=%KV$STT_BYTUTL#,SUBSCR=%KV_STRTYP_VDI,SCALE=ABS);
     1050+   15721        %FEP_FORM (FORM="' VDI                       %6D          %6D        %6D'");
     1051+   15729
     1052+   15730        %FEP_ITEM (ITEM=%KV$STT_BFRCNT#,SUBSCR=%KV_STRTYP_VFU,SCALE=ABS);
     1053+   15741        %FEP_ITEM (ITEM=%KV$STT_BFRGETCNT#,SUBSCR=%KV_STRTYP_VFU,SCALE=PER_MINUTE);
     1054+   15752        %FEP_ITEM (ITEM=%KV$STT_BYTUTL#,SUBSCR=%KV_STRTYP_VFU,SCALE=ABS);
     1055+   15763        %FEP_FORM (FORM="' VFU                       %6D          %6D        %6D'");
     1056+   15771
     1057+   15772        %FEP_ITEM (ITEM=%KV$STT_BFRCNT#,SUBSCR=%KV_STRTYP_X364,SCALE=ABS);
     1058+   15783        %FEP_ITEM (ITEM=%KV$STT_BFRGETCNT#,SUBSCR=%KV_STRTYP_X364,SCALE=PER_MINUTE);
     1059+   15794        %FEP_ITEM (ITEM=%KV$STT_BYTUTL#,SUBSCR=%KV_STRTYP_X364,SCALE=ABS);
     1060+   15805        %FEP_FORM (FORM="' X3.64 Context             %6D          %6D        %6D'");
     1061+   15813
     1062+   15814
     1063+   15815
     1064+   15816
     1065+   15817        %FEP_GROUP (TITLE="'%/ User to VDH function counts, per minute'",
     1066+   15818                     MORE="'%/ -Function-                       -Per Minute-'");
     1067+   15826
     1068+   15827        %FEP_ITEM (ITEM=%KV$STT_VDIVDHFNCCNT#,SUBSCR=%KV_VDH_FNC_CNC,SCALE=PER_MINUTE);
     1069+   15838        %FEP_FORM (FORM="' Connect                          %7D'");
     1070+   15846
     1071+   15847        %FEP_ITEM (ITEM=%KV$STT_VDIVDHFNCCNT#,SUBSCR=%KV_VDH_FNC_DAT,SCALE=PER_MINUTE);
     1072+   15858        %FEP_FORM (FORM="' Data                             %7D'");
     1073+   15866
     1074+   15867        %FEP_ITEM (ITEM=%KV$STT_VDIVDHFNCCNT#,SUBSCR=%KV_VDH_FNC_DCLLCLPST,SCALE=PER_MINUTE)
PL6.E3A0      #001=PSD$FEP File=PSD$FEP.:E05TSI                                  WED 07/30/97 04:27 Page:41
             15867            ;
     1075+   15878        %FEP_FORM (FORM="' Declare local position           %7D'");
     1076+   15886
     1077+   15887        %FEP_ITEM (ITEM=%KV$STT_VDIVDHFNCCNT#,SUBSCR=%KV_VDH_FNC_DSC,SCALE=PER_MINUTE);
     1078+   15898        %FEP_FORM (FORM="' Disconnect                       %7D'");
     1079+   15906
     1080+   15907        %FEP_ITEM (ITEM=%KV$STT_VDIVDHFNCCNT#,SUBSCR=%KV_VDH_FNC_EVT,SCALE=PER_MINUTE);
     1081+   15918        %FEP_FORM (FORM="' Event                            %7D'");
     1082+   15926
     1083+   15927        %FEP_ITEM (ITEM=%KV$STT_VDIVDHFNCCNT#,SUBSCR=%KV_VDH_FNC_FNDINPTAB,SCALE=PER_MINUTE)
             15927            ;
     1084+   15938        %FEP_FORM (FORM="' Find input tab                   %7D'");
     1085+   15946
     1086+   15947        %FEP_ITEM (ITEM=%KV$STT_VDIVDHFNCCNT#,SUBSCR=%KV_VDH_FNC_GETBFR,SCALE=PER_MINUTE);
     1087+   15958        %FEP_FORM (FORM="' Get buffer (USRBFR/USRSHRBFR)    %7D'");
     1088+   15966
     1089+   15967        %FEP_ITEM (ITEM=%KV$STT_VDIVDHFNCCNT#,SUBSCR=%KV_VDH_FNC_INT,SCALE=PER_MINUTE);
     1090+   15978        %FEP_FORM (FORM="' Initialize                       %7D'");
     1091+   15986
     1092+   15987        %FEP_ITEM (ITEM=%KV$STT_VDIVDHFNCCNT#,SUBSCR=%KV_VDH_FNC_INTINPOPR,SCALE=PER_MINUTE)
             15987            ;
     1093+   15998        %FEP_FORM (FORM="' Interpret input operator         %7D'");
     1094+   16006
     1095+   16007        %FEP_ITEM (ITEM=%KV$STT_VDIVDHFNCCNT#,SUBSCR=%KV_VDH_FNC_OTPLCL,SCALE=PER_MINUTE);
     1096+   16018        %FEP_FORM (FORM="' Output local                     %7D'");
     1097+   16026
     1098+   16027        %FEP_ITEM (ITEM=%KV$STT_VDIVDHFNCCNT#,SUBSCR=%KV_VDH_FNC_OTPMRK,SCALE=PER_MINUTE);
     1099+   16038        %FEP_FORM (FORM="' Output marker                    %7D'");
     1100+   16046
     1101+   16047        %FEP_ITEM (ITEM=%KV$STT_VDIVDHFNCCNT#,SUBSCR=%KV_VDH_FNC_PST,SCALE=PER_MINUTE);
     1102+   16058        %FEP_FORM (FORM="' Position                         %7D'");
     1103+   16066
     1104+   16067        %FEP_ITEM (ITEM=%KV$STT_VDIVDHFNCCNT#,SUBSCR=%KV_VDH_FNC_RLSBFR,SCALE=PER_MINUTE);
     1105+   16078        %FEP_FORM (FORM="' Release buffer (USRBFR/USRSHRBFR)%7D'");
     1106+   16086
     1107+   16087        %FEP_ITEM (ITEM=%KV$STT_VDIVDHFNCCNT#,SUBSCR=%KV_VDH_FNC_RQSDAT,SCALE=PER_MINUTE);
     1108+   16098        %FEP_FORM (FORM="' Request data                     %7D'");
PL6.E3A0      #001=PSD$FEP File=PSD$FEP.:E05TSI                                  WED 07/30/97 04:27 Page:42
     1109+   16106
     1110+   16107        %FEP_ITEM (ITEM=%KV$STT_VDIVDHFNCCNT#,SUBSCR=%KV_VDH_FNC_SETPRM,SCALE=PER_MINUTE);
     1111+   16118        %FEP_FORM (FORM="' Set parameters                   %7D'");
     1112+   16126
     1113+   16127        %FEP_ITEM (ITEM=%KV$STT_VDIVDHFNCCNT#,SUBSCR=%KV_VDH_FNC_SRCINPFNCID,SCALE=
             16127            PER_MINUTE);
     1114+   16138        %FEP_FORM (FORM="' Search input function ID         %7D'");
     1115+   16146
     1116+   16147        %FEP_ITEM (ITEM=%KV$STT_VDIVDHFNCCNT#,SUBSCR=%KV_VDH_FNC_GETPRM,SCALE=PER_MINUTE);
     1117+   16158        %FEP_FORM (FORM="' Get parameter                    %7D'");
     1118+   16166
     1119+   16167        %FEP_ITEM (ITEM=%KV$STT_VDIVDHFNCCNT#,SUBSCR=%KV_VDH_FNC_SETCLK,SCALE=PER_MINUTE);
     1120+   16178        %FEP_FORM (FORM="' Set clock                        %7D'");
     1121+   16186
     1122+   16187
     1123+   16188        %FEP_GROUP (TITLE="'%/ VDH to user function counts, per minute'",
     1124+   16189                     MORE="'%/ -Function-                       -Per Minute-'");
     1125+   16197
     1126+   16198        %FEP_ITEM (ITEM=%KV$STT_VDIUSRFNCCNT#,SUBSCR=%KV_USR_FNC_DAT,SCALE=PER_MINUTE);
     1127+   16209        %FEP_FORM (FORM="' Data                             %7D'");
     1128+   16217
     1129+   16218        %FEP_ITEM (ITEM=%KV$STT_VDIUSRFNCCNT#,SUBSCR=%KV_USR_FNC_ERS,SCALE=PER_MINUTE);
     1130+   16229        %FEP_FORM (FORM="' Erase                            %7D'");
     1131+   16237
     1132+   16238        %FEP_ITEM (ITEM=%KV$STT_VDIUSRFNCCNT#,SUBSCR=%KV_USR_FNC_EVT,SCALE=PER_MINUTE);
     1133+   16249        %FEP_FORM (FORM="' Event                            %7D'");
     1134+   16257
     1135+   16258        %FEP_ITEM (ITEM=%KV$STT_VDIUSRFNCCNT#,SUBSCR=%KV_USR_FNC_GETOTPBFR,SCALE=PER_MINUTE)
             16258            ;
     1136+   16269        %FEP_FORM (FORM="' Get output buffer                %7D'");
     1137+   16277
     1138+   16278        %FEP_ITEM (ITEM=%KV$STT_VDIUSRFNCCNT#,SUBSCR=%KV_USR_FNC_GETPRM,SCALE=PER_MINUTE);
     1139+   16289        %FEP_FORM (FORM="' Get parameter                    %7D'");
     1140+   16297
     1141+   16298        %FEP_ITEM (ITEM=%KV$STT_VDIUSRFNCCNT#,SUBSCR=%KV_USR_FNC_EXTINPTRN,SCALE=PER_MINUTE)
             16298            ;
     1142+   16309        %FEP_FORM (FORM="' Extended input translation       %7D'");
PL6.E3A0      #001=PSD$FEP File=PSD$FEP.:E05TSI                                  WED 07/30/97 04:27 Page:43
     1143+   16317
     1144+   16318        %FEP_ITEM (ITEM=%KV$STT_VDIUSRFNCCNT#,SUBSCR=%KV_USR_FNC_EXTOTPTRN,SCALE=PER_MINUTE)
             16318            ;
     1145+   16329        %FEP_FORM (FORM="' Extended output translation      %7D'");
     1146+   16337
     1147+   16338        %FEP_ITEM (ITEM=%KV$STT_VDIUSRFNCCNT#,SUBSCR=%KV_USR_FNC_OTPMRK,SCALE=PER_MINUTE);
     1148+   16349        %FEP_FORM (FORM="' Output marker                    %7D'");
     1149+   16357
     1150+   16358        %FEP_ITEM (ITEM=%KV$STT_VDIUSRFNCCNT#,SUBSCR=%KV_USR_FNC_OTPRPTCHR,SCALE=PER_MINUTE)
             16358            ;
     1151+   16369        %FEP_FORM (FORM="' Output repeated character        %7D'");
     1152+   16377
     1153+   16378        %FEP_ITEM (ITEM=%KV$STT_VDIUSRFNCCNT#,SUBSCR=%KV_USR_FNC_PST,SCALE=PER_MINUTE);
     1154+   16389        %FEP_FORM (FORM="' Position                         %7D'");
     1155+   16397
     1156+   16398        %FEP_ITEM (ITEM=%KV$STT_VDIUSRFNCCNT#,SUBSCR=%KV_USR_FNC_RQSDAT,SCALE=PER_MINUTE);
     1157+   16409        %FEP_FORM (FORM="' Request data                     %7D'");
     1158+   16417
     1159+   16418        %FEP_ITEM (ITEM=%KV$STT_VDIUSRFNCCNT#,SUBSCR=%KV_USR_FNC_SETATR,SCALE=PER_MINUTE);
     1160+   16429        %FEP_FORM (FORM="' Set attributes                   %7D'");
     1161+   16437
     1162+   16438        %FEP_ITEM (ITEM=%KV$STT_VDIUSRFNCCNT#,SUBSCR=%KV_USR_FNC_SETPRM,SCALE=PER_MINUTE);
     1163+   16449        %FEP_FORM (FORM="' Set parameter                    %7D'");
     1164+   16457
     1165+   16458        %FEP_ITEM (ITEM=%KV$STT_VDIUSRFNCCNT#,SUBSCR=%KV_USR_FNC_INPPRC,SCALE=PER_MINUTE);
     1166+   16469        %FEP_FORM (FORM="' Input procedure                  %7D'");
     1167+   16477
     1168+   16478
     1169+   16479        %FEP_GROUP (TITLE="'%/ User to VDH event counts, per minute'",
     1170+   16480                     MORE="'%/ -Event-                          -Per Minute-'");
     1171+   16488
     1172+   16489        %FEP_ITEM (ITEM=%KV$STT_VDIVDHEVTCNT#,SUBSCR=%KV_VDH_EVT_ID_CMPOTP,SCALE=PER_MINUTE)
             16489            ;
     1173+   16500        %FEP_FORM (FORM="' Complete output                  %7D'");
     1174+   16508
     1175+   16509        %FEP_ITEM (ITEM=%KV$STT_VDIVDHEVTCNT#,SUBSCR=%KV_VDH_EVT_ID_RQSOTP,SCALE=PER_MINUTE)
             16509            ;
PL6.E3A0      #001=PSD$FEP File=PSD$FEP.:E05TSI                                  WED 07/30/97 04:27 Page:44
     1176+   16520        %FEP_FORM (FORM="' Request output                   %7D'");
     1177+   16528
     1178+   16529        %FEP_ITEM (ITEM=%KV$STT_VDIVDHEVTCNT#,SUBSCR=%KV_VDH_EVT_ID_RLSVDI,SCALE=PER_MINUTE)
             16529            ;
     1179+   16540        %FEP_FORM (FORM="' Release VDI                      %7D'");
     1180+   16548
     1181+   16549        %FEP_ITEM (ITEM=%KV$STT_VDIVDHEVTCNT#,SUBSCR=%KV_VDH_EVT_ID_ATN,SCALE=PER_MINUTE);
     1182+   16560        %FEP_FORM (FORM="' Attention                        %7D'");
     1183+   16568
     1184+   16569
     1185+   16570        %FEP_GROUP (TITLE="'%/ VDH to user event counts, per minute'",
     1186+   16571                     MORE="'%/ -Event-                          -Per Minute-'");
     1187+   16579
     1188+   16580        %FEP_ITEM (ITEM=%KV$STT_VDIUSREVTCNT#,SUBSCR=%KV_USR_EVT_ID_BGNSETPRM,SCALE=
             16580            PER_MINUTE);
     1189+   16591        %FEP_FORM (FORM="' Begin set parameter              %7D'");
     1190+   16599
     1191+   16600        %FEP_ITEM (ITEM=%KV$STT_VDIUSREVTCNT#,SUBSCR=%KV_USR_EVT_ID_CLKEXP,SCALE=PER_MINUTE)
             16600            ;
     1192+   16611        %FEP_FORM (FORM="' Clock expiration                 %7D'");
     1193+   16619
     1194+   16620        %FEP_ITEM (ITEM=%KV$STT_VDIUSREVTCNT#,SUBSCR=%KV_USR_EVT_ID_CLS,SCALE=PER_MINUTE);
     1195+   16631        %FEP_FORM (FORM="' Close                            %7D'");
     1196+   16639
     1197+   16640        %FEP_ITEM (ITEM=%KV$STT_VDIUSREVTCNT#,SUBSCR=%KV_USR_EVT_ID_DLTOTP,SCALE=PER_MINUTE)
             16640            ;
     1198+   16651        %FEP_FORM (FORM="' Delete output                    %7D'");
     1199+   16659
     1200+   16660        %FEP_ITEM (ITEM=%KV$STT_VDIUSREVTCNT#,SUBSCR=%KV_USR_EVT_ID_DSC,SCALE=PER_MINUTE);
     1201+   16671        %FEP_FORM (FORM="' Disconnect                       %7D'");
     1202+   16679
     1203+   16680        %FEP_ITEM (ITEM=%KV$STT_VDIUSREVTCNT#,SUBSCR=%KV_USR_EVT_ID_ENDSETPRM,SCALE=
             16680            PER_MINUTE);
     1204+   16691        %FEP_FORM (FORM="' End set parameter                %7D'");
     1205+   16699
     1206+   16700        %FEP_ITEM (ITEM=%KV$STT_VDIUSREVTCNT#,SUBSCR=%KV_USR_EVT_ID_GETSTR,SCALE=PER_MINUTE)
             16700            ;
PL6.E3A0      #001=PSD$FEP File=PSD$FEP.:E05TSI                                  WED 07/30/97 04:27 Page:45
     1207+   16711        %FEP_FORM (FORM="' Get structure                    %7D'");
     1208+   16719
     1209+   16720        %FEP_ITEM (ITEM=%KV$STT_VDIUSREVTCNT#,SUBSCR=%KV_USR_EVT_ID_HLTOTP,SCALE=PER_MINUTE)
             16720            ;
     1210+   16731        %FEP_FORM (FORM="' Halt output                      %7D'");
     1211+   16739
     1212+   16740        %FEP_ITEM (ITEM=%KV$STT_VDIUSREVTCNT#,SUBSCR=%KV_USR_EVT_ID_INHDLTOTP,SCALE=
             16740            PER_MINUTE);
     1213+   16751        %FEP_FORM (FORM="' Inhibit delete-output            %7D'");
     1214+   16759
     1215+   16760        %FEP_ITEM (ITEM=%KV$STT_VDIUSREVTCNT#,SUBSCR=%KV_USR_EVT_ID_LGNACP,SCALE=PER_MINUTE)
             16760            ;
     1216+   16771        %FEP_FORM (FORM="' Logon accept                     %7D'");
     1217+   16779
     1218+   16780        %FEP_ITEM (ITEM=%KV$STT_VDIUSREVTCNT#,SUBSCR=%KV_USR_EVT_ID_LGNRJC,SCALE=PER_MINUTE)
             16780            ;
     1219+   16791        %FEP_FORM (FORM="' Logon reject                     %7D'");
     1220+   16799
     1221+   16800        %FEP_ITEM (ITEM=%KV$STT_VDIUSREVTCNT#,SUBSCR=%KV_USR_EVT_ID_OPN,SCALE=PER_MINUTE);
     1222+   16811        %FEP_FORM (FORM="' Open                             %7D'");
     1223+   16819
     1224+   16820        %FEP_ITEM (ITEM=%KV$STT_VDIUSREVTCNT#,SUBSCR=%KV_USR_EVT_ID_OTP1_CHR,SCALE=
             16820            PER_MINUTE);
     1225+   16831        %FEP_FORM (FORM="' Output 1 character               %7D'");
     1226+   16839
     1227+   16840        %FEP_ITEM (ITEM=%KV$STT_VDIUSREVTCNT#,SUBSCR=%KV_USR_EVT_ID_RLSSTR,SCALE=PER_MINUTE)
             16840            ;
     1228+   16851        %FEP_FORM (FORM="' Release structure                %7D'");
     1229+   16859
     1230+   16860        %FEP_ITEM (ITEM=%KV$STT_VDIUSREVTCNT#,SUBSCR=%KV_USR_EVT_ID_RLSVDI,SCALE=PER_MINUTE)
             16860            ;
     1231+   16871        %FEP_FORM (FORM="' Release VDI                      %7D'");
     1232+   16879
     1233+   16880        %FEP_ITEM (ITEM=%KV$STT_VDIUSREVTCNT#,SUBSCR=%KV_USR_EVT_ID_SCH,SCALE=PER_MINUTE);
     1234+   16891        %FEP_FORM (FORM="' Schedule                         %7D'");
     1235+   16899
     1236+   16900        %FEP_ITEM (ITEM=%KV$STT_VDIUSREVTCNT#,SUBSCR=%KV_USR_EVT_ID_TRMUSRRQSDAT,SCALE=
PL6.E3A0      #001=PSD$FEP File=PSD$FEP.:E05TSI                                  WED 07/30/97 04:27 Page:46
             16900            PER_MINUTE);
     1237+   16911        %FEP_FORM (FORM="' Terminate request-data           %7D'");
     1238+   16919
     1239+   16920        %FEP_ITEM (ITEM=%KV$STT_VDIUSREVTCNT#,SUBSCR=%KV_USR_EVT_ID_VDHEXT,SCALE=PER_MINUTE)
             16920            ;
     1240+   16931        %FEP_FORM (FORM="' VDH exit                         %7D'");
     1241+   16939
     1242+   16940        %FEP_GROUP (TITLE="'%/ VDO function counts/minute                  Sent   Received'"
             16940            );
     1243+   16948
     1244+   16949        %FEP_ITEM (ITEM=%KV$STT_SNDVDOFNCCNT#,SUBSCR=%KV_VDO_FNC_BLKDAT,SCALE=PER_MINUTE);
     1245+   16960        %FEP_ITEM (ITEM=%KV$STT_RCVVDOFNCCNT#,SUBSCR=%KV_VDO_FNC_BLKDAT,SCALE=PER_MINUTE);
     1246+   16971        %FEP_FORM (FORM="' Block data (for flow control).          %8D   %8D'");
     1247+   16979
     1248+   16980        %FEP_ITEM (ITEM=%KV$STT_SNDVDOFNCCNT#,SUBSCR=%KV_VDO_FNC_CLSSSN_RQS,SCALE=PER_MINUTE
             16980            );
     1249+   16991        %FEP_ITEM (ITEM=%KV$STT_RCVVDOFNCCNT#,SUBSCR=%KV_VDO_FNC_CLSSSN_RQS,SCALE=PER_MINUTE
             16991            );
     1250+   17002        %FEP_FORM (FORM="' Close session request.                  %8D   %8D'");
     1251+   17010
     1252+   17011        %FEP_ITEM (ITEM=%KV$STT_SNDVDOFNCCNT#,SUBSCR=%KV_VDO_FNC_CLSSSN_RSP,SCALE=PER_MINUTE
             17011            );
     1253+   17022        %FEP_ITEM (ITEM=%KV$STT_RCVVDOFNCCNT#,SUBSCR=%KV_VDO_FNC_CLSSSN_RSP,SCALE=PER_MINUTE
             17022            );
     1254+   17033        %FEP_FORM (FORM="' Close session response.                 %8D   %8D'");
     1255+   17041
     1256+   17042        %FEP_ITEM (ITEM=%KV$STT_SNDVDOFNCCNT#,SUBSCR=%KV_VDO_FNC_CLSSTR,SCALE=PER_MINUTE);
     1257+   17053        %FEP_ITEM (ITEM=%KV$STT_RCVVDOFNCCNT#,SUBSCR=%KV_VDO_FNC_CLSSTR,SCALE=PER_MINUTE);
     1258+   17064        %FEP_FORM (FORM="' Close a stream.                         %8D   %8D'");
     1259+   17072
     1260+   17073        %FEP_ITEM (ITEM=%KV$STT_SNDVDOFNCCNT#,SUBSCR=%KV_VDO_FNC_DAT,SCALE=PER_MINUTE);
     1261+   17084        %FEP_ITEM (ITEM=%KV$STT_RCVVDOFNCCNT#,SUBSCR=%KV_VDO_FNC_DAT,SCALE=PER_MINUTE);
     1262+   17095        %FEP_FORM (FORM="' Data.                                   %8D   %8D'");
     1263+   17103
     1264+   17104        %FEP_ITEM (ITEM=%KV$STT_SNDVDOFNCCNT#,SUBSCR=%KV_VDO_FNC_DAT_IMD,SCALE=PER_MINUTE);
     1265+   17115        %FEP_ITEM (ITEM=%KV$STT_RCVVDOFNCCNT#,SUBSCR=%KV_VDO_FNC_DAT_IMD,SCALE=PER_MINUTE);
     1266+   17126        %FEP_FORM (FORM="' Data immediate.                         %8D   %8D'");
PL6.E3A0      #001=PSD$FEP File=PSD$FEP.:E05TSI                                  WED 07/30/97 04:27 Page:47
     1267+   17134
     1268+   17135        %FEP_ITEM (ITEM=%KV$STT_SNDVDOFNCCNT#,SUBSCR=%KV_VDO_FNC_DCLFLD,SCALE=PER_MINUTE);
     1269+   17146        %FEP_ITEM (ITEM=%KV$STT_RCVVDOFNCCNT#,SUBSCR=%KV_VDO_FNC_DCLFLD,SCALE=PER_MINUTE);
     1270+   17157        %FEP_FORM (FORM="' Declare field.                          %8D   %8D'");
     1271+   17165
     1272+   17166        %FEP_ITEM (ITEM=%KV$STT_SNDVDOFNCCNT#,SUBSCR=%KV_VDO_FNC_DCLSTR,SCALE=PER_MINUTE);
     1273+   17177        %FEP_ITEM (ITEM=%KV$STT_RCVVDOFNCCNT#,SUBSCR=%KV_VDO_FNC_DCLSTR,SCALE=PER_MINUTE);
     1274+   17188        %FEP_FORM (FORM="' Declare new stream.                     %8D   %8D'");
     1275+   17196
     1276+   17197        %FEP_ITEM (ITEM=%KV$STT_SNDVDOFNCCNT#,SUBSCR=%KV_VDO_FNC_DLT,SCALE=PER_MINUTE);
     1277+   17208        %FEP_ITEM (ITEM=%KV$STT_RCVVDOFNCCNT#,SUBSCR=%KV_VDO_FNC_DLT,SCALE=PER_MINUTE);
     1278+   17219        %FEP_FORM (FORM="' Delete.                                 %8D   %8D'");
     1279+   17227
     1280+   17228        %FEP_ITEM (ITEM=%KV$STT_SNDVDOFNCCNT#,SUBSCR=%KV_VDO_FNC_DSC_RQS,SCALE=PER_MINUTE);
     1281+   17239        %FEP_ITEM (ITEM=%KV$STT_RCVVDOFNCCNT#,SUBSCR=%KV_VDO_FNC_DSC_RQS,SCALE=PER_MINUTE);
     1282+   17250        %FEP_FORM (FORM="' Disconnect request.                     %8D   %8D'");
     1283+   17258
     1284+   17259        %FEP_ITEM (ITEM=%KV$STT_SNDVDOFNCCNT#,SUBSCR=%KV_VDO_FNC_DSC_RSP,SCALE=PER_MINUTE);
     1285+   17270        %FEP_ITEM (ITEM=%KV$STT_RCVVDOFNCCNT#,SUBSCR=%KV_VDO_FNC_DSC_RSP,SCALE=PER_MINUTE);
     1286+   17281        %FEP_FORM (FORM="' Disconnect response.                    %8D   %8D'");
     1287+   17289
     1288+   17290        %FEP_ITEM (ITEM=%KV$STT_SNDVDOFNCCNT#,SUBSCR=%KV_VDO_FNC_ERS,SCALE=PER_MINUTE);
     1289+   17301        %FEP_ITEM (ITEM=%KV$STT_RCVVDOFNCCNT#,SUBSCR=%KV_VDO_FNC_ERS,SCALE=PER_MINUTE);
     1290+   17312        %FEP_FORM (FORM="' Erase.                                  %8D   %8D'");
     1291+   17320
     1292+   17321        %FEP_ITEM (ITEM=%KV$STT_SNDVDOFNCCNT#,SUBSCR=%KV_VDO_FNC_EVT,SCALE=PER_MINUTE);
     1293+   17332        %FEP_ITEM (ITEM=%KV$STT_RCVVDOFNCCNT#,SUBSCR=%KV_VDO_FNC_EVT,SCALE=PER_MINUTE);
     1294+   17343        %FEP_FORM (FORM="' Event.                                  %8D   %8D'");
     1295+   17351
     1296+   17352        %FEP_ITEM (ITEM=%KV$STT_SNDVDOFNCCNT#,SUBSCR=%KV_VDO_FNC_HVPS,SCALE=PER_MINUTE);
     1297+   17363        %FEP_ITEM (ITEM=%KV$STT_RCVVDOFNCCNT#,SUBSCR=%KV_VDO_FNC_HVPS,SCALE=PER_MINUTE);
     1298+   17374        %FEP_FORM (FORM="' Horizontal vertical position, short.    %8D   %8D'");
     1299+   17382
     1300+   17383        %FEP_ITEM (ITEM=%KV$STT_SNDVDOFNCCNT#,SUBSCR=%KV_VDO_FNC_MRK,SCALE=PER_MINUTE);
     1301+   17394        %FEP_ITEM (ITEM=%KV$STT_RCVVDOFNCCNT#,SUBSCR=%KV_VDO_FNC_MRK,SCALE=PER_MINUTE);
     1302+   17405        %FEP_FORM (FORM="' Marker.                                 %8D   %8D'");
     1303+   17413
PL6.E3A0      #001=PSD$FEP File=PSD$FEP.:E05TSI                                  WED 07/30/97 04:27 Page:48
     1304+   17414        %FEP_ITEM (ITEM=%KV$STT_SNDVDOFNCCNT#,SUBSCR=%KV_VDO_FNC_NOP,SCALE=PER_MINUTE);
     1305+   17425        %FEP_ITEM (ITEM=%KV$STT_RCVVDOFNCCNT#,SUBSCR=%KV_VDO_FNC_NOP,SCALE=PER_MINUTE);
     1306+   17436        %FEP_FORM (FORM="' No operation.                           %8D   %8D'");
     1307+   17444
     1308+   17445        %FEP_ITEM (ITEM=%KV$STT_SNDVDOFNCCNT#,SUBSCR=%KV_VDO_FNC_OPNSSN_RQS,SCALE=PER_MINUTE
             17445            );
     1309+   17456        %FEP_ITEM (ITEM=%KV$STT_RCVVDOFNCCNT#,SUBSCR=%KV_VDO_FNC_OPNSSN_RQS,SCALE=PER_MINUTE
             17456            );
     1310+   17467        %FEP_FORM (FORM="' Open session request.                   %8D   %8D'");
     1311+   17475
     1312+   17476        %FEP_ITEM (ITEM=%KV$STT_SNDVDOFNCCNT#,SUBSCR=%KV_VDO_FNC_OPNSSN_RSP,SCALE=PER_MINUTE
             17476            );
     1313+   17487        %FEP_ITEM (ITEM=%KV$STT_RCVVDOFNCCNT#,SUBSCR=%KV_VDO_FNC_OPNSSN_RSP,SCALE=PER_MINUTE
             17487            );
     1314+   17498        %FEP_FORM (FORM="' Open session response.                  %8D   %8D'");
     1315+   17506
     1316+   17507        %FEP_ITEM (ITEM=%KV$STT_SNDVDOFNCCNT#,SUBSCR=%KV_VDO_FNC_OPNSTR,SCALE=PER_MINUTE);
     1317+   17518        %FEP_ITEM (ITEM=%KV$STT_RCVVDOFNCCNT#,SUBSCR=%KV_VDO_FNC_OPNSTR,SCALE=PER_MINUTE);
     1318+   17529        %FEP_FORM (FORM="' Open a stream.                          %8D   %8D'");
     1319+   17537
     1320+   17538        %FEP_ITEM (ITEM=%KV$STT_SNDVDOFNCCNT#,SUBSCR=%KV_VDO_FNC_PRM_RSP,SCALE=PER_MINUTE);
     1321+   17549        %FEP_ITEM (ITEM=%KV$STT_RCVVDOFNCCNT#,SUBSCR=%KV_VDO_FNC_PRM_RSP,SCALE=PER_MINUTE);
     1322+   17560        %FEP_FORM (FORM="' Parameter response.                     %8D   %8D'");
     1323+   17568
     1324+   17569        %FEP_ITEM (ITEM=%KV$STT_SNDVDOFNCCNT#,SUBSCR=%KV_VDO_FNC_PRM_SET,SCALE=PER_MINUTE);
     1325+   17580        %FEP_ITEM (ITEM=%KV$STT_RCVVDOFNCCNT#,SUBSCR=%KV_VDO_FNC_PRM_SET,SCALE=PER_MINUTE);
     1326+   17591        %FEP_FORM (FORM="' Parameters set.                         %8D   %8D'");
     1327+   17599
     1328+   17600        %FEP_ITEM (ITEM=%KV$STT_SNDVDOFNCCNT#,SUBSCR=%KV_VDO_FNC_RLSFLD,SCALE=PER_MINUTE);
     1329+   17611        %FEP_ITEM (ITEM=%KV$STT_RCVVDOFNCCNT#,SUBSCR=%KV_VDO_FNC_RLSFLD,SCALE=PER_MINUTE);
     1330+   17622        %FEP_FORM (FORM="' Release field.                          %8D   %8D'");
     1331+   17630
     1332+   17631        %FEP_ITEM (ITEM=%KV$STT_SNDVDOFNCCNT#,SUBSCR=%KV_VDO_FNC_RMS,SCALE=PER_MINUTE);
     1333+   17642        %FEP_ITEM (ITEM=%KV$STT_RCVVDOFNCCNT#,SUBSCR=%KV_VDO_FNC_RMS,SCALE=PER_MINUTE);
     1334+   17653        %FEP_FORM (FORM="' Reset mode, short.                      %8D   %8D'");
     1335+   17661
     1336+   17662        %FEP_ITEM (ITEM=%KV$STT_SNDVDOFNCCNT#,SUBSCR=%KV_VDO_FNC_RQSDAT,SCALE=PER_MINUTE);
PL6.E3A0      #001=PSD$FEP File=PSD$FEP.:E05TSI                                  WED 07/30/97 04:27 Page:49
     1337+   17673        %FEP_ITEM (ITEM=%KV$STT_RCVVDOFNCCNT#,SUBSCR=%KV_VDO_FNC_RQSDAT,SCALE=PER_MINUTE);
     1338+   17684        %FEP_FORM (FORM="' Request data.                           %8D   %8D'");
     1339+   17692
     1340+   17693        %FEP_ITEM (ITEM=%KV$STT_SNDVDOFNCCNT#,SUBSCR=%KV_VDO_FNC_RQSMRK,SCALE=PER_MINUTE);
     1341+   17704        %FEP_ITEM (ITEM=%KV$STT_RCVVDOFNCCNT#,SUBSCR=%KV_VDO_FNC_RQSMRK,SCALE=PER_MINUTE);
     1342+   17715        %FEP_FORM (FORM="' Request marker.                         %8D   %8D'");
     1343+   17723
     1344+   17724        %FEP_ITEM (ITEM=%KV$STT_SNDVDOFNCCNT#,SUBSCR=%KV_VDO_FNC_RQSPRM,SCALE=PER_MINUTE);
     1345+   17735        %FEP_ITEM (ITEM=%KV$STT_RCVVDOFNCCNT#,SUBSCR=%KV_VDO_FNC_RQSPRM,SCALE=PER_MINUTE);
     1346+   17746        %FEP_FORM (FORM="' Request parameters.                     %8D   %8D'");
     1347+   17754
     1348+   17755        %FEP_ITEM (ITEM=%KV$STT_SNDVDOFNCCNT#,SUBSCR=%KV_VDO_FNC_RQSSTT,SCALE=PER_MINUTE);
     1349+   17766        %FEP_ITEM (ITEM=%KV$STT_RCVVDOFNCCNT#,SUBSCR=%KV_VDO_FNC_RQSSTT,SCALE=PER_MINUTE);
     1350+   17777        %FEP_FORM (FORM="' Request status.                         %8D   %8D'");
     1351+   17785
     1352+   17786        %FEP_ITEM (ITEM=%KV$STT_SNDVDOFNCCNT#,SUBSCR=%KV_VDO_FNC_SLCFLD,SCALE=PER_MINUTE);
     1353+   17797        %FEP_ITEM (ITEM=%KV$STT_RCVVDOFNCCNT#,SUBSCR=%KV_VDO_FNC_SLCFLD,SCALE=PER_MINUTE);
     1354+   17808        %FEP_FORM (FORM="' Select field.                           %8D   %8D'");
     1355+   17816
     1356+   17817        %FEP_ITEM (ITEM=%KV$STT_SNDVDOFNCCNT#,SUBSCR=%KV_VDO_FNC_SLCGRPRND,SCALE=PER_MINUTE)
             17817            ;
     1357+   17828        %FEP_ITEM (ITEM=%KV$STT_RCVVDOFNCCNT#,SUBSCR=%KV_VDO_FNC_SLCGRPRND,SCALE=PER_MINUTE)
             17828            ;
     1358+   17839        %FEP_FORM (FORM="' Select graphic rendition.               %8D   %8D'");
     1359+   17847
     1360+   17848        %FEP_ITEM (ITEM=%KV$STT_SNDVDOFNCCNT#,SUBSCR=%KV_VDO_FNC_SLCQLF,SCALE=PER_MINUTE);
     1361+   17859        %FEP_ITEM (ITEM=%KV$STT_RCVVDOFNCCNT#,SUBSCR=%KV_VDO_FNC_SLCQLF,SCALE=PER_MINUTE);
     1362+   17870        %FEP_FORM (FORM="' Select qualification.                   %8D   %8D'");
     1363+   17878
     1364+   17879        %FEP_ITEM (ITEM=%KV$STT_SNDVDOFNCCNT#,SUBSCR=%KV_VDO_FNC_SMS,SCALE=PER_MINUTE);
     1365+   17890        %FEP_ITEM (ITEM=%KV$STT_RCVVDOFNCCNT#,SUBSCR=%KV_VDO_FNC_SMS,SCALE=PER_MINUTE);
     1366+   17901        %FEP_FORM (FORM="' Set mode, short.                        %8D   %8D'");
     1367+   17909
     1368+   17910        %FEP_ITEM (ITEM=%KV$STT_SNDVDOFNCCNT#,SUBSCR=%KV_VDO_FNC_STT,SCALE=PER_MINUTE);
     1369+   17921        %FEP_ITEM (ITEM=%KV$STT_RCVVDOFNCCNT#,SUBSCR=%KV_VDO_FNC_STT,SCALE=PER_MINUTE);
     1370+   17932        %FEP_FORM (FORM="' Status response.                        %8D   %8D'");
     1371+   17940
PL6.E3A0      #001=PSD$FEP File=PSD$FEP.:E05TSI                                  WED 07/30/97 04:27 Page:50
     1372+   17941        %FEP_ITEM (ITEM=%KV$STT_SNDVDOFNCCNT#,SUBSCR=%KV_VDO_FNC_UPDRELDVC,SCALE=PER_MINUTE)
             17941            ;
     1373+   17952        %FEP_ITEM (ITEM=%KV$STT_RCVVDOFNCCNT#,SUBSCR=%KV_VDO_FNC_UPDRELDVC,SCALE=PER_MINUTE)
             17952            ;
     1374+   17963        %FEP_FORM (FORM="' Update real device.                     %8D   %8D'");
     1375+   17971
     1376+   17972        %FEP_ENDTBL;
     1377+   17979    1   DCL 1 PS_FEPTBL_FEI ALIGNED CONSTANT,
     1378+   17980
     1379+   17981        %FEP_FORM (FORM="'%/ *** FEI statistics for handler %.8>A ***'");
     1380+   17989
     1381+   17990        %FEP_GROUP (TITLE="'    -Item-                    -to host-   -from host-'");
     1382+   17998        %FEP_ITEM (ITEM=%KJ_FEI_USRSTT_INPINTCNT#,SCALE=PER_MINUTE);
     1383+   18009        %FEP_ITEM (ITEM=%KJ_FEI_USRSTT_OTPINTCNT#,SCALE=PER_MINUTE);
     1384+   18020        %FEP_FORM (FORM="' Interrupts/minute               %6D        %6D'");
     1385+   18028
     1386+   18029        %FEP_ITEM (ITEM=%KJ_FEI_USRSTT_INPINTISATIM#,SCALE=PCT_TIME);
     1387+   18040        %FEP_FORM (FORM="' %% Interrupt service time              %4D.%2ZD'");
     1388+   18048
     1389+   18049        %FEP_ITEM (ITEM=%KJ_FEI_USRSTT_INPBFRBYTUTL#,SCALE=ABS);
     1390+   18060        %FEP_ITEM (ITEM=%KJ_FEI_USRSTT_OTPBFRBYTUTL#,SCALE=ABS);
     1391+   18071        %FEP_FORM (FORM="' Buffer utilization, bytes      %7D       %7D'");
     1392+   18079
     1393+   18080        %FEP_ITEM (ITEM=%KJ_FEI_USRSTT_CTXBYTUTL#,SCALE=ABS);
     1394+   18091        %FEP_FORM (FORM="' Context utilization, bytes     %7X       %7D'");
     1395+   18099
     1396+   18100        %FEP_ITEM (ITEM=%KJ_FEI_ICQ_MSGS#,SCALE=PER_MINUTE);
     1397+   18111        %FEP_ITEM (ITEM=%KJ_FEI_OCQ_MSGS#,SCALE=PER_MINUTE);
     1398+   18122        %FEP_FORM (FORM="' Circular buffer messages/min   %7D       %7D'");
     1399+   18130
     1400+   18131        %FEP_ITEM (ITEM=%KJ_FEI_ICQ_MBC#,SCALE=PER_MINUTE);
     1401+   18142        %FEP_ITEM (ITEM=%KJ_FEI_OCQ_MBC#,SCALE=PER_MINUTE);
     1402+   18153        %FEP_FORM (FORM="' Circular buffer bytes/min      %7D       %7D'");
     1403+   18161
     1404+   18162        %FEP_ITEM (ITEM=%KJ_FEI_DCW_ABRT#,SCALE=PER_MINUTE);
     1405+   18173        %FEP_FORM (FORM="' Dcw aborts/minute              %7X       %7D'");
     1406+   18181
PL6.E3A0      #001=PSD$FEP File=PSD$FEP.:E05TSI                                  WED 07/30/97 04:27 Page:51
     1407+   18182        %FEP_ITEM (ITEM=%KJ_FEI_SCHXEQTIM#,SCALE=PCT_TIME);
     1408+   18193        %FEP_FORM (FORM="' %% Scheduled execution time            %4D.%2ZD'");
     1409+   18201
     1410+   18202        %FEP_ITEM (ITEM=%KJ_FEI_DATAFNC_RUOK#,SCALE=PER_MINUTE);
     1411+   18213        %FEP_FORM (FORM="' Fep okay functions/minute      %7X       %7D'");
     1412+   18221
     1413+   18222        %FEP_ITEM (ITEM=%KJ_FEI_DATAFNC_ODATA#,SCALE=PER_MINUTE);
     1414+   18233        %FEP_FORM (FORM="' Output functions/minute        %7X       %7D'");
     1415+   18241
     1416+   18242        %FEP_ITEM (ITEM=%KJ_FEI_DATAFNC_NOP#,SCALE=PER_MINUTE);
     1417+   18253        %FEP_FORM (FORM="' Nop functions/minute           %7X       %7D'");
     1418+   18261
     1419+   18262        %FEP_ITEM (ITEM=%KJ_FEI_DATAFNC_TIM#,SCALE=PER_MINUTE);
     1420+   18273        %FEP_FORM (FORM="' Time functions/minute          %7X       %7D'");
     1421+   18281
     1422+   18282        %FEP_ENDTBL;
      261    18289        %EJECT;
PL6.E3A0      #001=PSD$FEP File=PSD$FEP.:E05TSI                                  WED 07/30/97 04:27 Page:52
      262    18290    1   DCL 1 FEP_DISPLAY_TBL CONSTANT ALIGNED,
      263    18291    1          2 * UBIN INIT(%KH#ENTID_MONITOR),
      264    18292    1          2 * PTR INIT(ADDR(PS_FEPTBL_MONITOR)),
      265    18293    1          2 * UBIN INIT(%KH#ENTID_ASYNC),
      266    18294    1          2 * PTR INIT(ADDR(PS_FEPTBL_ASYNC)),
      267    18295    1          2 * UBIN INIT(%KH#ENTID_HDLC),
      268    18296    1          2 * PTR INIT(ADDR(PS_FEPTBL_HDLC)),
      269    18297    1          2 * UBIN INIT(%KH#ENTID_X29),
      270    18298    1          2 * PTR INIT(ADDR(PS_FEPTBL_X29)),
      271    18299    1          2 * UBIN INIT(%KH#ENTID_URP),
      272    18300    1          2 * PTR INIT(ADDR(PS_FEPTBL_URP)),
      273    18301    1          2 * UBIN INIT(%KH#ENTID_3270),
      274    18302    1          2 * PTR INIT(ADDR(PS_FEPTBL_3270)),
      275    18303    1          2 * UBIN INIT(%KH#ENTID_RBT),
      276    18304    1          2 * PTR INIT(ADDR(PS_FEPTBL_RBT)),
      277    18305    1          2 * UBIN INIT(%KH#ENTID_X25),
      278    18306    1          2 * PTR INIT(ADDR(PS_FEPTBL_X25)),
      279    18307    1          2 * SBIN INIT(%KH#ENTID_PLDVIP),
      280    18308    1          2 * PTR INIT(ADDR(PS_FEPTBL_PLDVIP)),
      281    18309    1          2 * UBIN INIT(%KH#ENTID_VDH),
      282    18310    1          2 * PTR INIT(ADDR(PS_FEPTBL_VDH)),
      283    18311    1          2 * UBIN INIT(%KH#ENTID_FEI),
      284    18312    1          2 * PTR INIT(ADDR(PS_FEPTBL_FEI)),
      285    18313    1          2 *(0:7) UBIN INIT(0*0);
      286    18314
      287    18315    1   DCL 1 FEP_TABLE(0:14) REDEF FEP_DISPLAY_TBL,
      288    18316    1          2 ENTID UBIN,
      289    18317    1          2 TBLPTR$ PTR;
      290    18318        %EJECT;
PL6.E3A0      #001=PSD$FEP File=PSD$FEP.:E05TSI                                  WED 07/30/97 04:27 Page:53
      291    18319
      292    18320    1   DCL 1 FEP_ITEM WALIGNED BASED (TABLE$),
      293    18321    1          2 TYPE# SBIN BYTE CALIGNED,
      294    18322    1          2 SCALE# SBIN BYTE CALIGNED,
      295    18323    1          2 CONSEC# SBIN BYTE CALIGNED,
      296    18324    1          2 SLCT# SBIN BYTE CALIGNED,
      297    18325    1          2 DISP# SBIN BYTE CALIGNED,
      298    18326    1          2 OFFSET# SBIN (18) CALIGNED,
      299    18327    1          2 DIVISOR# SBIN BYTE CALIGNED;
      300    18328
      301    18329    1   DCL 1 FEP_FORM WALIGNED BASED (TABLE$),
      302    18330    1          2 TYPE# SBIN BYTE UNAL,
      303    18331    1          2 LEN# SBIN BYTE UNAL,
      304    18332    1          2 FORM# CHAR(FEP_FORM.LEN#) UNAL;
      305    18333
      306    18334    1   DCL 1 FEP_GROUP WALIGNED BASED (GROUP_HEAD$),
      307    18335    1          2 TYPE# SBIN BYTE UNAL,
      308    18336    1          2 LEN# SBIN BYTE UNAL,
      309    18337    1          2 TITLE# CHAR(FEP_GROUP.LEN#) UNAL;
      310    18338
      311    18339    1   DCL 1 FEP_JUMP WALIGNED BASED (TABLE$),
      312    18340    1          2 TYPE# SBIN BYTE UNAL,
      313    18341    1          2 CONDITION$ PTR WALIGNED,
      314    18342    1          2 PTR$ PTR WALIGNED;
      315    18343
      316    18344        %EJECT;
PL6.E3A0      #001=PSD$FEP File=PSD$FEP.:E05TSI                                  WED 07/30/97 04:27 Page:54
      317    18345    1   LOCATE: PROC (P, SEGSIZE, ENT) ALTRET;
      318    18346
      319    18347    2   DCL SEGSIZE UBIN;
      320    18348    2   DCL 1 P ALIGNED,
      321    18349    2          2 PTR$ PTR,
      322    18350    2          2 PTR_ REDEF PTR$,
      323    18351    2             3 BASE# UBIN(20) UNAL,
      324    18352    2             3 * UBIN(4) UNAL,
      325    18353    2             3 SEGID# BIT(12);
      326    18354    2   DCL ENT UBIN;
      327    18355
      328    18356    2   DCL ANOTHER BIT(1) ALIGNED;
      329    18357
      330    18358    2      ANOTHER = LOCATE_ANOTHER;
      331    18359
      332    18360    3      IF P.PTR$~=ADDR(NIL) THEN DO;
      333    18361
      334    18362    4         DO WHILE P.PTR$->PS_FEPSTATS.NODE_NUM ~= PS_FEPNO
      335    18363    4           OR NOT P.PTR$->PS_FEPSTATS.DISP.BITS(ENT)
      336    18364    4           OR P.PTR$->PS_FEPSTATS.HANDLER ~= FEP$->PS_FEPSTATS.HANDLER
      337    18365    4           OR P.PTR$->PS_FEPSTATS.SLCT ~= FEP$->PS_FEPSTATS.SLCT
      338    18366    4           OR ANOTHER;
      339    18367    4            IF P.PTR$->PS_FEPSTATS.WORDS = 0
      340    18368    4              OR P.PTR$->PS_FEPSTATS.FINAL
      341    18369    5            THEN DO;
      342    18370    5               P.PTR$ = ADDR(NIL);
      343    18371    5               ALTRETURN;
      344    18372    5            END; ELSE DO;
      345    18373    5               P.PTR$ = PINCRW(P.PTR$, P.PTR$->PS_FEPSTATS.WORDS);
      346    18374    5               ANOTHER = '0'B;
      347    18375    5            END;
      348    18376    4         END;
      349    18377    3      END;
      350    18378    2      RETURN;
      351    18379    2   END LOCATE;
      352    18380
      353    18381        %EJECT;
PL6.E3A0      #001=PSD$FEP File=PSD$FEP.:E05TSI                                  WED 07/30/97 04:27 Page:55
      354    18382    1   SETUP: PROC (NEW, OLD, OFFSET, DEFAULT);
      355    18383
      356    18384    2   DCL NEW UBIN;
      357    18385    2   DCL OLD UBIN;
      358    18386    2   DCL DEFAULT UBIN;
      359    18387
      360    18388    2   DCL OFFSET SBIN;
      361    18389
      362    18390    2      IF FEP$ = ADDR(NIL) OR OFFSET=0 OR OFFSET>FEP$->PS_FEPSTATS.WORDS
      363    18391    3      THEN DO;
      364    18392
      365    18393    3         NEW = DEFAULT;
      366    18394    3         OLD = 0;
      367    18395    3         RETURN;
      368    18396    3      END;
      369    18397
      370    18398    3      IF OFFSET>0 THEN DO;
      371    18399
      372    18400    3         NEW = FEP$->UBIN_(OFFSET);
      373    18401
      374    18402    3         IF OLD_FEP$ = ADDR(NIL)
      375    18403    3         THEN
      376    18404    3         OLD = 0;
      377    18405    3         ELSE
      378    18406    3         OLD = OLD_FEP$->UBIN_(OFFSET);
      379    18407
      380    18408    3      END;
      381    18409    3      ELSE DO;
      382    18410    3         NEW = ADDR(FEPTEMP)->UBIN_(-OFFSET);
      383    18411    3         OLD = ADDR(OLD_FEPTEMP)->UBIN_(-OFFSET);
      384    18412    3      END;
      385    18413
      386    18414    2      RETURN;
      387    18415    2   END SETUP;
      388    18416
      389    18417        %EJECT;
PL6.E3A0      #001=PSD$FEP File=PSD$FEP.:E05TSI                                  WED 07/30/97 04:27 Page:56
      390    18418    1   SET_ITEM: PROC( A_ITEM );
      391    18419
      392    18420    2   DCL A_ITEM UBIN;
      393    18421
      394    18422    2      IF A_ITEM~=0 THEN ITEM_FLAG = %YES#;
      395    18423
      396    18424    2      CURRENT_ITEM(ITEM_COUNT) = A_ITEM;
      397    18425    2      ITEM_COUNT = ITEM_COUNT + 1;
      398    18426    2      ITEM_BYTE_COUNT = 4 * ITEM_COUNT;
      399    18427
      400    18428    2      RETURN;
      401    18429    2   END SET_ITEM;
      402    18430        %EJECT;
PL6.E3A0      #001=PSD$FEP File=PSD$FEP.:E05TSI                                  WED 07/30/97 04:27 Page:57
      403    18431    1   CRUNCH: PROC (RESULT, ITEM, DIVISOR, TICS, TICS_PER_UNIT);
      404    18432
      405    18433    2   DCL RESULT SBIN;
      406    18434    2   DCL ITEM SBIN;
      407    18435    2   DCL DIVISOR SBIN;
      408    18436    2   DCL TICS SBIN;
      409    18437    2   DCL TICS_PER_UNIT SBIN;
      410    18438
      411    18439    2      IF (DIVISOR*TICS)=0
      412    18440    2      THEN RESULT=0;
      413    18441    2      ELSE IF TICS < TICS_PER_UNIT * 100
      414    18442    2      THEN IF (ITEM * TICS_PER_UNIT) / TICS_PER_UNIT = ITEM
      415    18443    2      THEN RESULT = (ITEM * TICS_PER_UNIT) / (DIVISOR * TICS);
      416    18444    2      ELSE RESULT = (ITEM / TICS) * (TICS_PER_UNIT / DIVISOR);
      417    18445    2      ELSE
      418    18446    2      RESULT = ITEM / (DIVISOR * TICS / TICS_PER_UNIT);
      419    18447
      420    18448    2      RETURN;
      421    18449
      422    18450    2   END CRUNCH;
      423    18451
      424    18452        %EJECT;
PL6.E3A0      #001=PSD$FEP File=PSD$FEP.:E05TSI                                  WED 07/30/97 04:27 Page:58
      425    18453    1   CRUNCHUP: PROC (RESULT, ITEM, DIVISOR, TICS, TICS_PER_UNIT);
      426    18454
      427    18455    2   DCL RESULT SBIN;
      428    18456    2   DCL ITEM SBIN;
      429    18457    2   DCL DIVISOR SBIN;
      430    18458    2   DCL TICS SBIN;
      431    18459    2   DCL TICS_PER_UNIT SBIN;
      432    18460
      433    18461    2      IF (DIVISOR*TICS)>0
      434    18462    2      THEN IF TICS < TICS_PER_UNIT * 100
      435    18463    2      THEN IF (ITEM * TICS_PER_UNIT) / TICS_PER_UNIT = ITEM
      436    18464    2      THEN RESULT = RESULT + (ITEM * TICS_PER_UNIT) / (DIVISOR * TICS);
      437    18465    2      ELSE RESULT = RESULT + (ITEM / TICS) * (TICS_PER_UNIT / DIVISOR);
      438    18466    2      ELSE
      439    18467    2      RESULT = RESULT + ITEM / (DIVISOR * TICS / TICS_PER_UNIT);
      440    18468
      441    18469    2      RETURN;
      442    18470
      443    18471    2   END CRUNCHUP;
      444    18472
      445    18473        %EJECT;
PL6.E3A0      #001=PSD$FEP File=PSD$FEP.:E05TSI                                  WED 07/30/97 04:27 Page:59
      446    18474    1   CALC_TICS: PROC (STARTING, ENDING, RESULT);
      447    18475
      448    18476    2   DCL STARTING UBIN;
      449    18477    2   DCL ENDING UBIN;
      450    18478    2   DCL RESULT UBIN;
      451    18479    2   DCL INTERVAL UBIN;
      452    18480
      453    18481    2      CALL XUD$UTS_DIFF (INTERVAL, ENDING, STARTING);
      454    18482
      455    18483    2      IF ENDING <= STARTING
      456    18484    2      THEN
      457    18485    2      RESULT = 0;
      458    18486    2      ELSE
      459    18487
      460    18488         /* Convert UTS interval to FEP TICS, by converting the
      461    18489            interval into seconds and then dividing by 120. */
      462    18490
      463    18491    2      IF (INTERVAL) > 1000000
      464    18492    2      THEN
      465    18493    2      RESULT = INTERVAL / %MICROSECONDS_PER_FEP_TIC * 10000;
      466    18494    2      ELSE
      467    18495    2      RESULT = INTERVAL * 10000 / %MICROSECONDS_PER_FEP_TIC;
      468    18496
      469    18497    2      RETURN;
      470    18498
      471    18499    2   END CALC_TICS;
      472    18500
      473    18501        %EJECT;
PL6.E3A0      #001=PSD$FEP File=PSD$FEP.:E05TSI                                  WED 07/30/97 04:27 Page:60
      474    18502    1   GEN: PROC (RESULT, NEW, OLD, SCALE);
      475    18503
      476    18504    2   DCL 1 RESULT CHAR (7);
      477    18505    2   DCL NEW UBIN;
      478    18506    2   DCL OLD UBIN;
      479    18507    2   DCL SCALE UBIN;
      480    18508    2      IF SCALE = %/* abs# */ 0
      481    18509    3      THEN DO;
      482    18510
      483    18511    3         CALL GENERATE (RESULT, NEW, 1, SCALE);
      484    18512    3      END;
      485    18513
      486    18514    3      ELSE DO;
      487    18515
      488    18516
      489    18517    3         IF DELTA_TICS_ELAPSED=0 OR SECOND_BOOT>INTERVAL_START
      490    18518    3         THEN
      491    18519    3         RESULT = ' ';
      492    18520    3         ELSE
      493    18521    3         CALL GENERATE (RESULT, NEW - OLD, DELTA_TICS_ELAPSED,
      494    18522    3           SCALE);
      495    18523    3      END;
      496    18524
      497    18525
      498    18526    2      RETURN;
      499    18527
      500    18528    2   END GEN;
      501    18529
      502    18530        %EJECT;
PL6.E3A0      #001=PSD$FEP File=PSD$FEP.:E05TSI                                  WED 07/30/97 04:27 Page:61
      503    18531    1   GENERATE: PROC (RESULT, VALUE, DELTA_T, SCALE);
      504    18532
      505    18533    2   DCL RESULT CHAR (7);
      506    18534    2   DCL VALUE SBIN;
      507    18535    2   DCL DELTA_T UBIN;
      508    18536    2   DCL DELTA_TS REDEF DELTA_T SBIN;
      509    18537    2   DCL SCALE UBIN;
      510    18538    2   DCL TEMP UBIN;
      511    18539    2   DCL TEMPCHAR CHAR (7);
      512    18540    2   DCL PATTERN (0:1) BIT (9) CONSTANT INIT (%MVZB6, %MVC1);
      513    18541
      514    18542    3      DO CASE (SCALE);
      515    18543
      516    18544    3      CASE (%/* abs# */ 0);
      517    18545    3         TEMP = VALUE;
      518    18546
      519    18547    3      CASE (%PER_MINUTE#);
      520    18548    3         CALL CRUNCH (TEMP, VALUE, 1, DELTA_T, %FEP_TICS_PER_MINUTE);
      521    18549
      522    18550    3      CASE (%PER_SECOND#);
      523    18551    3         CALL CRUNCH (TEMP, VALUE, 1, DELTA_T, %FEP_TICS_PER_SECOND);
      524    18552
      525    18553    3      CASE (%PCT_TIME#);
      526    18554    3         TEMP = (VALUE * 100 + DELTA_T / 2) / DELTA_TS;
      527    18555
      528    18556    3      END;
      529    18557
      530    18558    2      CALL BINCHAR (TEMPCHAR, TEMP);
      531    18559    2      CALL EDITCHAR (RESULT, , , PATTERN, TEMPCHAR);
      532    18560    2      RETURN;
      533    18561
      534    18562    2   END GENERATE;
      535    18563        %EJECT;
PL6.E3A0      #001=PSD$FEP File=PSD$FEP.:E05TSI                                  WED 07/30/97 04:27 Page:62
      536    18564    1   PRINT: PROC (TITLE, VALUES);
      537    18565
      538    18566    2   DCL VALUES(0:9) UBIN;
      539    18567    2   DCL TITLE CHAR(30);
      540    18568    2   DCL TITLE_LEN UBIN;
      541    18569    2   DCL IP UBIN;
      542    18570
      543    18571    3      DO IP = 0 TO FEP_COUNT-1;
      544    18572    3         IF VALUES(IP)~=0
      545    18573    3         THEN GOTO PRINT_IT;
      546    18574    3      END;
      547    18575    2      RETURN /* ALL ZERO */;
      548    18576
      549    18577    2   PRINT_IT:
      550    18578    2      CALL INDEX (TITLE_LEN, '.', TITLE);
      551    18579
      552    18580    2      DATA_VECTOR.PTR$ = ADDR(VALUES);
      553    18581    2      DATA_VECTOR.BOUND = (4 * FEP_COUNT) -1;
      554    18582
      555    18583    2      CALL X$WRITE (PS_FDS, VECTOR(FEP_FORMAT),
      556    18584    2        VECTOR(SUBSTR(TITLE, 0, TITLE_LEN)), DATA_VECTOR);
      557    18585
      558    18586    2      RETURN;
      559    18587
      560    18588    2   END PRINT;
      561    18589
      562    18590        %EJECT;
PL6.E3A0      #001=PSD$FEP File=PSD$FEP.:E05TSI                                  WED 07/30/97 04:27 Page:63
      563    18591        /* PSD$FEP procedure                                                */
      564    18592
      565    18593    1      FEP_DATA = '0'B;
      566    18594
      567    18595    2      DO PS_FEPNO = 1 TO %PS_MAXFE#;
      568    18596    2         IF PS_FEP_DISP_FLAGS.DISP(PS_FEPNO)
      569    18597    3         THEN DO;
      570    18598
      571    18599    3            FEPTEMP = '0'B;
      572    18600    3            OLD_FEPTEMP = '0'B;
      573    18601
      574    18602    3            FEP$ = PS_FEP$;
      575    18603    3            OLD_FEP$ = PS_OLD_FEP$;
      576    18604
      577    18605    3            LOCATE_ANOTHER = '0'B;
      578    18606
      579    18607    3            CALL LOCATE( FEP$, FEP_SIZE, %KH#ENTID_MONITOR)
      580    18608    3              ALTRET(ANOTHER_FEP);
      581    18609    3            CALL LOCATE( OLD_FEP$, OLD_FEP_SIZE, %KH#ENTID_MONITOR);
      582    18610    3            THIS_OLD_FEP$ = OLD_FEP$;
      583    18611
      584    18612    3            FEPTEMP.SCHED_TICS = 0;
      585    18613    3            IF FEP$~=ADDR(NIL)
      586    18614    4            THEN DO I = %PS_LCP6STT_UXEQTIME# TO %PS_LCP6STT_MIDLTIME#+3;
      587    18615    4               FEPTEMP.SCHED_TICS = FEPTEMP.SCHED_TICS + FEP$->UBIN_(I);
      588    18616    4            END;
      589    18617
      590    18618    3            OLD_FEPTEMP.SCHED_TICS = 0;
      591    18619    4            IF OLD_FEP$~=ADDR(NIL) THEN DO I = %PS_LCP6STT_UXEQTIME# TO %
             18619                     PS_LCP6STT_MIDLTIME# + 3;
      592    18620    4               OLD_FEPTEMP.SCHED_TICS = OLD_FEPTEMP.SCHED_TICS + OLD_FEP$->UBIN_(I);
      593    18621    4            END;
      594    18622
      595    18623
      596    18624    3            FEPTEMP.BOOT_UTS = FEP$->UBIN_(%PS_LCP6STT_BOOT_UTS#);
      597    18625    3            FUTS_UTS.TSTAMP_ = VECTOR(FEPTEMP.BOOT_UTS);
      598    18626    3            CALL M$TIME(FUTS_UTS);
PL6.E3A0      #001=PSD$FEP File=PSD$FEP.:E05TSI                                  WED 07/30/97 04:27 Page:64
      599    18627
      600    18628    3            FEPTEMP.CURR_UTS = FEP$->UBIN_(%PS_LCP6STT_BOOT_UTS#)
      601    18629    3              + FEP$->UBIN_(%PS_LCP6STT_CURR_UTS#);
      602    18630    3            FUTS_UTS.TSTAMP_ = VECTOR(FEPTEMP.CURR_UTS);
      603    18631    3            CALL M$TIME(FUTS_UTS);
      604    18632
      605    18633    4            IF OLD_FEP$ ~= ADDR(NIL) THEN DO;
      606    18634    4               OLD_FEPTEMP.BOOT_UTS = OLD_FEP$->UBIN_(%PS_LCP6STT_BOOT_UTS#);
      607    18635    4               FUTS_UTS.TSTAMP_ = VECTOR(OLD_FEPTEMP.BOOT_UTS);
      608    18636    4               CALL M$TIME(FUTS_UTS);
      609    18637
      610    18638    4               OLD_FEPTEMP.CURR_UTS = OLD_FEP$->UBIN_(%PS_LCP6STT_BOOT_UTS#)
      611    18639    4                 + OLD_FEP$->UBIN_(%PS_LCP6STT_CURR_UTS#);
      612    18640    4               FUTS_UTS.TSTAMP_ = VECTOR(OLD_FEPTEMP.CURR_UTS);
      613    18641    4               CALL M$TIME(FUTS_UTS);
      614    18642    4            END;
      615    18643    4            ELSE DO;
      616    18644    4               OLD_FEPTEMP.BOOT_UTS = FEPTEMP.BOOT_UTS;
      617    18645    4               OLD_FEPTEMP.CURR_UTS = FEPTEMP.BOOT_UTS;
      618    18646    4            END;
      619    18647
      620    18648
      621    18649
      622    18650    3            FEPTEMP.DELTA_HUNDR = DELTA_TICS_ELAPSED / (%FEP_TICS_PER_MINUTE/100);
      623    18651    3            FEPTEMP.DELTA_MIN = FEPTEMP.DELTA_HUNDR / 100;
      624    18652    3            FEPTEMP.DELTA_HUNDR = MOD( FEPTEMP.DELTA_HUNDR, 100);
      625    18653
      626    18654
      627    18655    3            CALL CALC_TICS (OLD_FEPTEMP.CURR_UTS, FEPTEMP.CURR_UTS, DELTA_TICS_ELAPSED)
             18655                     ;
      628    18656    3            CALL CALC_TICS (FEPTEMP.BOOT_UTS, FEPTEMP.CURR_UTS, TOTAL_TICS_ELAPSED);
      629    18657    3            CALL PSL$TIME (OLD_FEPTEMP.CURR_UTS, INT_START);
      630    18658    3            CALL PSL$TIME (FEPTEMP.CURR_UTS, INT_END);
      631    18659    3            CALL PSL$TIME (FEPTEMP.BOOT_UTS, BOOT_TIME);
      632    18660
      633    18661    4            IF OLD_FEPTEMP.BOOT_UTS ~= FEPTEMP.BOOT_UTS THEN DO ;
      634    18662    5               IF PS_MODE = 2 /* glom_mode# */ THEN DO ;
PL6.E3A0      #001=PSD$FEP File=PSD$FEP.:E05TSI                                  WED 07/30/97 04:27 Page:65
      635    18663        /*E*     ERROR:  PS-E$PS_FEP_REBOOTED
      636    18664                 MESSAGE:  GLOM not possbile -  FEP %U1 was rebooted at %U2.
      637    18665                 MESSAGE1:  GLOM of the indicated time interval cannot be
      638    18666                            done because FEP %U1 was rebooted at %U2,
      639    18667                            and the parameters that STATS uses for
      640    18668                            measurement were reset to zero during the reboot.
      641    18669                                                                        */
      642    18670    5                  CALL BINCHAR ( FEP_TITLES.TITLE1.FEP_NUM(0), PS_FEPNO ) ;
      643    18671    5                  CALL PSE$GRIPE ( 24 /* E$PS_FEP_REBOOTED */, 2 /* warning */,
      644    18672    5                    VECTOR ( FEP_TITLES.TITLE1.FEP_NUM(0) ),
      645    18673    5                    VECTOR ( BOOT_TIME ) ) ;
      646    18674    5               END ;
      647    18675    4               GOTO ANOTHER_FEP ;
      648    18676    4            END ;
      649    18677
      650    18678    3            MINUTES_SINCE_BOOT = (TOTAL_TICS_ELAPSED + %FEP_TICS_PER_MINUTE / 2) / %
             18678                     FEP_TICS_PER_MINUTE;
      651    18679    3            HOURS_SINCE_BOOT = MINUTES_SINCE_BOOT / 60;
      652    18680    3            DAYS_SINCE_BOOT = HOURS_SINCE_BOOT / 24;
      653    18681
      654    18682    3            MINUTES_SINCE_BOOT = MOD(MINUTES_SINCE_BOOT,60);
      655    18683    3            HOURS_SINCE_BOOT = MOD(HOURS_SINCE_BOOT, 24);
      656    18684
      657    18685    3            IF NOT PS_FEP_DISP_FLAGS.DISP(PS_FEPNO) & '400000000000'O
      658    18686    4            THEN DO; /* Print title */
      659    18687    4               CALL PSD$EJECT (36);
      660    18688    4               IF OLD_FEP$ ~= ADDR(NIL)
      661    18689    4               THEN CALL X$WRITE (PS_FDS, VECTOR(FEP_DISPLAY_FMT), VECTOR(PS_FEPNO),
      662    18690    4                 VECTOR(INT_START), VECTOR(INT_END));
      663    18691    4               ELSE CALL X$WRITE (PS_FDS, VECTOR(FEP_SINCE_BOOT_FMT),
      664    18692    4                 VECTOR(PS_FEPNO), VECTOR(INT_START), VECTOR(INT_END));
      665    18693    4            END;
      666    18694
      667    18695    4            DO DISP_INDEX = 0 TO 10;
      668    18696
      669    18697    4               LOCATE_ANOTHER = '0'B;
      670    18698
PL6.E3A0      #001=PSD$FEP File=PSD$FEP.:E05TSI                                  WED 07/30/97 04:27 Page:66
      671    18699    4               FEP$ = PS_FEP$;
      672    18700
      673    18701    5               DO WHILE '1'B; /* OR UNTIL LOCATE ALTRETS */
      674    18702
      675    18703    5                  CALL LOCATE( FEP$, FEP_SIZE,
      676    18704    5                    FEP_TABLE.ENTID(DISP_INDEX)) ALTRET(NONE_SUCH);
      677    18705    5                  OLD_FEP$ = THIS_OLD_FEP$;
      678    18706    5                  CALL LOCATE( OLD_FEP$, OLD_FEP_SIZE,
      679    18707    5                    FEP_TABLE.ENTID(DISP_INDEX)) ALTRET(NONE_MATCHING);
      680    18708
      681    18709    5                  IF FEP$->PS_FEPSTATS.DISP.BITS(%KH#ENTID_MONITOR)
      682    18710    6                  THEN DO;
      683    18711    6                     CALL SETUP(ITEM, OLD_ITEM, %PS_LCP6STT_MIDLTIME#, 0);
      684    18712    6                     IF (ITEM - OLD_ITEM) < 3435973
      685    18713    6                     THEN FEP_DATA.IDLE_TIME(PS_FEPNO) = (ITEM-OLD_ITEM) * 100
      686    18714    6                       / DELTA_TICS_ELAPSED;
      687    18715    6                     ELSE FEP_DATA.IDLE_TIME(PS_FEPNO) = (ITEM - OLD_ITEM)
      688    18716    6                       / ( DELTA_TICS_ELAPSED / 100);
      689    18717    6                     FEP_DATA.IDLE_TIME(PS_FEPNO) =
      690    18718    6                       100 - FEP_DATA.IDLE_TIME(PS_FEPNO);
      691    18719    6                     CALL SETUP(ITEM, OLD_ITEM, %PS_LCP6STT_PAGES_FRESHF#, 0);
      692    18720    6                     FEP_DATA.AVAIL_MEM(PS_FEPNO) = ITEM ;
      693    18721    6                  END /* MON for sum */;
      694    18722
      695    18723    5                  IF ( FEP$->PS_FEPSTATS.DISP & PS_FEP_DISP_FLAGS.DISP(PS_FEPNO) )
      696    18724    5                    AND ( ( ( PS_FEP_DISP_FLAGS.SLCT(PS_FEPNO) & '400000000000'O )
      697    18725    5                    AND ( FEP$->PS_FEPSTATS.HANDLER = PS_FEP_DISP_FLAGS.HANDLER(
             18725                             PS_FEPNO) ) )
      698    18726    5                    OR ( ( NOT PS_FEP_DISP_FLAGS.SLCT(PS_FEPNO) & '400000000000'O )
      699    18727    5                    AND ( FEP$->PS_FEPSTATS.SLCT & PS_FEP_DISP_FLAGS.SLCT(PS_FEPNO) ) )
             18727                             )
      700    18728    6                  THEN DO; /* this type is selected */
      701    18729
      702    18730    6                     IF PS_FEP_DISP_FLAGS.DISP(PS_FEPNO) & '200000000000'O
      703    18731    6                     THEN SHORT_FLAG = '0'B;
      704    18732    6                     ELSE SHORT_FLAG = '1'B;
      705    18733
PL6.E3A0      #001=PSD$FEP File=PSD$FEP.:E05TSI                                  WED 07/30/97 04:27 Page:67
      706    18734    7                     IF FEP$->PS_FEPSTATS.DISP.BITS(%KH#ENTID_VDH) THEN DO;
      707    18735
      708    18736    7                        IF FEP$->PS_FEPSTATS.SLCT.BITS(%KH#ENTID_ASYNC)
      709    18737    8                        THEN DO;
      710    18738    8                           CALL SETUP(ITEM, OLD_ITEM,
      711    18739    8                             %(KV$STT_BFRCNT#+KV_STRTYP_VDI), 0);
      712    18740    8                           FEP_DATA.ASYNC_TERMINALS(PS_FEPNO) =
      713    18741    8                             FEP_DATA.ASYNC_TERMINALS(PS_FEPNO) + ITEM;
      714    18742    8                           CALL SETUP(ITEM,OLD_ITEM, %KV$STT_OTPCHRCNT#, 0);
      715    18743    8                           CALL CRUNCHUP(FEP_DATA.ASYNC_OUTPUT(PS_FEPNO),
      716    18744    8                             ITEM-OLD_ITEM, 1,
      717    18745    8                             DELTA_TICS_ELAPSED, %FEP_TICS_PER_MINUTE);
      718    18746    8                           CALL SETUP(ITEM, OLD_ITEM, %KV$STT_INPCHRCNT#, 0);
      719    18747    8                           CALL CRUNCHUP(FEP_DATA.ASYNC_INPUT(PS_FEPNO),
      720    18748    8                             ITEM-OLD_ITEM, 1,
      721    18749    8                             DELTA_TICS_ELAPSED, %FEP_TICS_PER_MINUTE);
      722    18750    8                        END;
      723    18751    7                        ELSE IF FEP$->PS_FEPSTATS.SLCT.BITS(%KH#ENTID_RBT)
      724    18752    8                        THEN DO;
      725    18753    8                           CALL SETUP(ITEM, OLD_ITEM,
      726    18754    8                             %(KV$STT_BFRCNT#+KV_STRTYP_VDI), 0);
      727    18755    8                           FEP_DATA.RBT_TERMINALS(PS_FEPNO) =
      728    18756    8                             FEP_DATA.RBT_TERMINALS(PS_FEPNO) + ITEM;
      729    18757    8                           CALL SETUP(ITEM,OLD_ITEM, %KV$STT_OTPCHRCNT#, 0);
      730    18758    8                           CALL CRUNCHUP(FEP_DATA.RBT_OUTPUT(PS_FEPNO),
      731    18759    8                             ITEM-OLD_ITEM, 1,
      732    18760    8                             DELTA_TICS_ELAPSED, %FEP_TICS_PER_MINUTE);
      733    18761    8                           CALL SETUP(ITEM, OLD_ITEM, %KV$STT_INPCHRCNT#, 0);
      734    18762    8                           CALL CRUNCHUP(FEP_DATA.RBT_INPUT(PS_FEPNO),
      735    18763    8                             ITEM-OLD_ITEM, 1,
      736    18764    8                             DELTA_TICS_ELAPSED, %FEP_TICS_PER_MINUTE);
      737    18765    8                        END;
      738    18766    7                        ELSE IF FEP$->PS_FEPSTATS.SLCT.BITS(%KH#ENTID_URP)
      739    18767    8                        THEN DO;
      740    18768    8                           CALL SETUP(ITEM, OLD_ITEM,
      741    18769    8                             %(KV$STT_BFRCNT#+KV_STRTYP_VDI), 0);
      742    18770    8                           FEP_DATA.URP_TERMINALS(PS_FEPNO) =
PL6.E3A0      #001=PSD$FEP File=PSD$FEP.:E05TSI                                  WED 07/30/97 04:27 Page:68
      743    18771    8                             FEP_DATA.URP_TERMINALS(PS_FEPNO) + ITEM;
      744    18772    8                           CALL SETUP(ITEM,OLD_ITEM, %KV$STT_OTPCHRCNT#, 0);
      745    18773    8                           CALL CRUNCHUP(FEP_DATA.URP_OUTPUT(PS_FEPNO),
      746    18774    8                             ITEM-OLD_ITEM, 1,
      747    18775    8                             DELTA_TICS_ELAPSED, %FEP_TICS_PER_MINUTE);
      748    18776    8                           CALL SETUP(ITEM, OLD_ITEM, %KV$STT_INPCHRCNT#, 0);
      749    18777    8                           CALL CRUNCHUP(FEP_DATA.URP_INPUT(PS_FEPNO),
      750    18778    8                             ITEM-OLD_ITEM, 1,
      751    18779    8                             DELTA_TICS_ELAPSED, %FEP_TICS_PER_MINUTE);
      752    18780    8                        END;
      753    18781    7                        ELSE IF
      754    18782    8                          FEP$->PS_FEPSTATS.SLCT.BITS(%KH#ENTID_3270) THEN DO;
      755    18783    8                           CALL SETUP(ITEM, OLD_ITEM,
      756    18784    8                             %(KV$STT_BFRCNT#+KV_STRTYP_VDI), 0);
      757    18785    8                           FEP_DATA.T3270_TERMINALS(PS_FEPNO) =
      758    18786    8                             FEP_DATA.T3270_TERMINALS(PS_FEPNO) + ITEM;
      759    18787    8                           CALL SETUP(ITEM,OLD_ITEM, %KV$STT_OTPCHRCNT#, 0);
      760    18788    8                           CALL CRUNCHUP(FEP_DATA.T3270_OUTPUT(PS_FEPNO),
      761    18789    8                             ITEM-OLD_ITEM, 1,
      762    18790    8                             DELTA_TICS_ELAPSED, %FEP_TICS_PER_MINUTE);
      763    18791    8                           CALL SETUP(ITEM, OLD_ITEM, %KV$STT_INPCHRCNT#, 0);
      764    18792    8                           CALL CRUNCHUP(FEP_DATA.T3270_INPUT(PS_FEPNO),
      765    18793    8                             ITEM-OLD_ITEM, 1,
      766    18794    8                             DELTA_TICS_ELAPSED, %FEP_TICS_PER_MINUTE);
      767    18795    8                        END;
      768    18796    7                     END /* VDH for sum */;
      769    18797    6                     ELSE IF
      770    18798    7                       FEP$->PS_FEPSTATS.DISP.BITS(%KH#ENTID_HDLC) THEN DO;
      771    18799    7                        CALL SETUP(ITEM, OLD_ITEM,
      772    18800    7                          %KX_HDLC_LINES#, 0);
      773    18801    7                        FEP_DATA.HDLC_TERMINALS(PS_FEPNO) =
      774    18802    7                          FEP_DATA.HDLC_TERMINALS(PS_FEPNO) + ITEM;
      775    18803    7                        CALL SETUP(ITEM,OLD_ITEM, %KX_HDLC_BYTES_OUT#, 0);
      776    18804    7                        CALL CRUNCHUP(FEP_DATA.HDLC_OUTPUT(PS_FEPNO),
      777    18805    7                          ITEM-OLD_ITEM, 1,
      778    18806    7                          DELTA_TICS_ELAPSED, %FEP_TICS_PER_MINUTE);
      779    18807    7                        CALL SETUP(ITEM, OLD_ITEM, %KX_HDLC_BYTES_IN#, 0);
PL6.E3A0      #001=PSD$FEP File=PSD$FEP.:E05TSI                                  WED 07/30/97 04:27 Page:69
      780    18808    7                        CALL CRUNCHUP(FEP_DATA.HDLC_INPUT(PS_FEPNO),
      781    18809    7                          ITEM-OLD_ITEM, 1,
      782    18810    7                          DELTA_TICS_ELAPSED, %FEP_TICS_PER_MINUTE);
      783    18811    7                     END;
      784    18812    6                     IF NOT PS_FEP_DISP_FLAGS.DISP(PS_FEPNO) & '400000000000'O
      785    18813    7                     THEN DO; /* full FEP display */
      786    18814
      787    18815
      788    18816    7                        ITEM_COUNT = 0;
      789    18817    7                        CALL SET_ITEM(FEP$->UBIN_(%KL_REQSTATS_HANDLER#));
      790    18818    7                        CALL SET_ITEM(FEP$->UBIN_(%KL_REQSTATS_HANDLER#+1));
      791    18819
      792    18820    7                        TABLE$ = FEP_TABLE.TBLPTR$(DISP_INDEX);
      793    18821
      794    18822    7                        GROUP_HEAD$ = ADDR(NIL);
      795    18823    8                        DO WHILE TABLE$~=ADDR(NIL);
      796    18824    9                           DO CASE (FEP_ITEM.TYPE#);
      797    18825
      798    18826    9                           CASE (%JUMP#);
      799    18827    9   TYPE_JUMP:
      800    18828
      801    18829    9                              IF FEP_JUMP.CONDITION$->UBIN_(0) = 0
      802    18830    9                              THEN
      803    18831    9                              TABLE$ = PINCRW(TABLE$,LENGTHW(FEP_JUMP));
      804    18832    9                              ELSE
      805    18833    9                              TABLE$ = FEP_JUMP.PTR$;
      806    18834
      807    18835
      808    18836    9                           CASE (%FFORM#);
      809    18837    9   TYPE_FFORM:
      810    18838
      811    18839   10                              IF ITEM_FLAG THEN DO;
      812    18840   11                                 IF GROUP_HEAD$~=ADDR(NIL) THEN DO;
      813    18841   11                                    CALL X$WRITE(PS_FDS,VECTOR(FEP_GROUP.TITLE#));
      814    18842   11                                    GROUP_HEAD$ = ADDR(NIL);
      815    18843   11                                 END;
      816    18844
PL6.E3A0      #001=PSD$FEP File=PSD$FEP.:E05TSI                                  WED 07/30/97 04:27 Page:70
      817    18845   10                             CALL X$WRITE(PS_FDS, VECTOR(FEP_FORM.FORM#), VECTOR(ADDR(
             18845                                      CURRENT_ITEM)->CURRENT_ITEMS));
      818    18846   10                              END;
      819    18847    9                              ITEM_COUNT = 0;
      820    18848    9                              ITEM_BYTE_COUNT = 4 * ITEM_COUNT;
      821    18849    9                              ITEM_FLAG = %NO#;
      822    18850
      823    18851    9                              TABLE$ = PINCRW(TABLE$,LENGTHW(FEP_FORM));
      824    18852
      825    18853    9                           CASE (%GROUP#);
      826    18854    9   TYPE_GROUP:
      827    18855
      828    18856    9                              GROUP_HEAD$ = TABLE$;
      829    18857    9                              TABLE$ = PINCRW(TABLE$,LENGTHW(FEP_GROUP));
      830    18858
      831    18859    9                           CASE (%ITEM#);
      832    18860    9   TYPE_ITEM:
      833    18861
      834    18862   10                              DO CONSEC_COUNT = 1 TO FEP_ITEM.CONSEC#;
      835    18863
      836    18864   10                                 CALL SETUP (ITEM, OLD_ITEM, FEP_ITEM.OFFSET#+
             18864                                          CONSEC_COUNT-1, 0);
      837    18865   10                                 CALL SETUP (DIVISOR, OLD_DIVISOR, FEP_ITEM.DIVISOR#+
             18865                                          ZERO, 1);
      838    18866
      839    18867
      840    18868   11                                 DO CASE (FEP_ITEM.SCALE#);
      841    18869
      842    18870   11                                 CASE (%/* abs# */ 0);
      843    18871   11   SCALE_ABS:
      844    18872
      845    18873   11                                    CALL CRUNCH(SNAP_ITEM, ITEM, DIVISOR, 1, 1);
      846    18874   11                                    CALL SET_ITEM(SNAP_ITEM);
      847    18875
      848    18876   11                                 CASE (%DUMMY#);
      849    18877   11   SCALE_DUMMY:
      850    18878
PL6.E3A0      #001=PSD$FEP File=PSD$FEP.:E05TSI                                  WED 07/30/97 04:27 Page:71
      851    18879   11                                    CALL CRUNCH (SNAP_ITEM, ITEM - OLD_ITEM, DIVISOR -
             18879                                             OLD_DIVISOR,
      852    18880   11                                      DELTA_TICS_ELAPSED, %FEP_TICS_PER_MINUTE);
      853    18881   11                                    IF SNAP_ITEM~=0 THEN ITEM_FLAG = %YES#;
      854    18882
      855    18883   11                                 CASE (%PER_MINUTE#);
      856    18884   11   SCALE_PER_MINUTE:
      857    18885
      858    18886   11                                    CALL CRUNCH (SNAP_ITEM, ITEM - OLD_ITEM, DIVISOR -
             18886                                             OLD_DIVISOR,
      859    18887   11                                      DELTA_TICS_ELAPSED, %FEP_TICS_PER_MINUTE);
      860    18888
      861    18889   11                                    CALL SET_ITEM (SNAP_ITEM);
      862    18890
      863    18891   11                                 CASE (%PER_SECOND#);
      864    18892   11   SCALE_PER_SECOND:
      865    18893
      866    18894   11                                    CALL CRUNCH (SNAP_ITEM, ITEM - OLD_ITEM, DIVISOR -
             18894                                             OLD_DIVISOR,
      867    18895   11                                      DELTA_TICS_ELAPSED, %FEP_TICS_PER_SECOND);
      868    18896
      869    18897   11                                    CALL SET_ITEM (SNAP_ITEM);
      870    18898
      871    18899   11                                 CASE (%MS_PER#);
      872    18900   11   SCALE_MS_PER:
      873    18901
      874    18902   11                                    CALL CRUNCH(SNAP_ITEM, ITEM - OLD_ITEM,
      875    18903   11                                      DIVISOR - OLD_DIVISOR, 1, %
             18903                                               MICROSECONDS_PER_FEP_TIC );
      876    18904
      877    18905   11                                    CALL SET_ITEM( SNAP_ITEM );
      878    18906
      879    18907   11                                 CASE (%PCT_TIME#);
      880    18908   11   SCALE_PCT_TIME:
      881    18909
      882    18910   11                                    IF (DIVISOR - OLD_DIVISOR) * DELTA_TICS_ELAPSED <
             18910                                             100
PL6.E3A0      #001=PSD$FEP File=PSD$FEP.:E05TSI                                  WED 07/30/97 04:27 Page:72
      883    18911   11                                    THEN
      884    18912   11                                    SNAP_ITEM = 0;
      885    18913   11                                    ELSE
      886    18914   11                                    IF (ITEM - OLD_ITEM) < 3435973
      887    18915   11                                    THEN
      888    18916   11                                    SNAP_ITEM = (ITEM - OLD_ITEM) * 10000 /
      889    18917   11                                      ((DIVISOR - OLD_DIVISOR) * DELTA_TICS_ELAPSED);
      890    18918   11                                    ELSE
      891    18919   11                                    SNAP_ITEM = (ITEM - OLD_ITEM) * 100 /
      892    18920   11                                      ((DIVISOR - OLD_DIVISOR) * DELTA_TICS_ELAPSED /
             18920                                               100);
      893    18921
      894    18922   11                                    CALL SET_ITEM( SNAP_ITEM / 100);
      895    18923   11                                    CALL SET_ITEM( MOD(SNAP_ITEM, 100));
      896    18924   11                                 CASE (%PCT_UTS_UNITS#);
      897    18925   11   SCALE_PCT_UTS_UNITS:
      898    18926
      899    18927   11                                    IF (DIVISOR - OLD_DIVISOR) * DELTA_TICS_ELAPSED <
             18927                                             100
      900    18928   11                                    THEN
      901    18929   11                                    SNAP_ITEM = 0;
      902    18930   11                                    ELSE
      903    18931   11                                    IF (ITEM - OLD_ITEM) *160 < 3435973
      904    18932   11                                    THEN
      905    18933   11                                    SNAP_ITEM = (ITEM - OLD_ITEM) * 1600000 /
      906    18934   11                                      ((DIVISOR - OLD_DIVISOR) * DELTA_TICS_ELAPSED);
      907    18935   11                                    ELSE
      908    18936   11                                    SNAP_ITEM = (ITEM - OLD_ITEM) * 16000 /
      909    18937   11                                      ((DIVISOR - OLD_DIVISOR) * DELTA_TICS_ELAPSED /
             18937                                               100);
      910    18938
      911    18939   11                                    CALL SET_ITEM( SNAP_ITEM / 100);
      912    18940   11                                    CALL SET_ITEM( MOD(SNAP_ITEM, 100));
      913    18941
      914    18942   11                                 CASE (%QUOTIENT#);
      915    18943   11   SCALE_QUOTIENT:
      916    18944
PL6.E3A0      #001=PSD$FEP File=PSD$FEP.:E05TSI                                  WED 07/30/97 04:27 Page:73
      917    18945
      918    18946   11                                    CALL CRUNCH(SNAP_ITEM, ITEM - OLD_ITEM,
      919    18947   11                                      DIVISOR - OLD_DIVISOR, 1, 1);
      920    18948
      921    18949   11                                    CALL SET_ITEM(SNAP_ITEM);
      922    18950
      923    18951   11                                 END /* CASE SCALE */;
      924    18952   10                                 FEP_ITEM_ITEM$ = PINCRW(FEP_ITEM_ITEM$,1);
      925    18953
      926    18954   10                              END /* DO CONSEC */;
      927    18955
      928    18956    9                              TABLE$ = PINCRW(TABLE$,LENGTHW(FEP_ITEM));
      929    18957
      930    18958    9                           END /* CASE TYPE */;
      931    18959
      932    18960    8                        END /* WHILE */;
      933    18961
      934    18962    7                     END; /* Not summary stuff */
      935    18963    6                  END /* If this type was selected */;
      936    18964
      937    18965    5   NONE_MATCHING: ;
      938    18966    5                  LOCATE_ANOTHER = '1'B;
      939    18967
      940    18968    5               END /* DO UNTIL LOCATE ALTRETS */;
      941    18969    4   NONE_SUCH:
      942    18970    4            END /* DO DISP_INDEX */;
      943    18971
      944    18972    3         END /* IF DSPMSK */;
      945    18973    2   ANOTHER_FEP:
      946    18974    2      END /* DO PS_FEPNO */;
      947    18975
      948    18976    1      CALL PSD$EJECT;
      949    18977
      950    18978        %EJECT;
PL6.E3A0      #001=PSD$FEP File=PSD$FEP.:E05TSI                                  WED 07/30/97 04:27 Page:74
      951    18979
      952    18980    1      WIDTH = DCBADDR(DCBNUM(M$LO)) -> F$DCB.WIDTH#;
      953    18981
      954    18982    1      FEPS_PER_LINE = (WIDTH - 25) / 9;
      955    18983
      956    18984    1      IF FEPS_PER_LINE < 1 THEN FEPS_PER_LINE=1;
      957    18985    1      IF FEPS_PER_LINE > 9 THEN FEPS_PER_LINE=9;
      958    18986
      959    18987    1      CALL PSD$EJECT(8);
      960    18988
      961    18989    1      INTERVAL_END = 0;
      962    18990
      963    18991    1      FEPNO = 0;
      964    18992    2      DO WHILE FEPNO<%PS_MAXFE#;
      965    18993
      966    18994    2         FEP_COUNT = 0;
      967    18995    3         DO WHILE FEP_COUNT<FEPS_PER_LINE AND FEPNO<%PS_MAXFE#;
      968    18996
      969    18997    4            IF FEP_DATA(FEPNO) ~= '0'B THEN DO;
      970    18998
      971    18999    4               FEP_TITLES.TITLE1.FEP_TAG(FEP_COUNT) = ' FEP ';
      972    19000    4               CALL BINCHAR(FEP_TITLES.TITLE1.FEP_NUM(FEP_COUNT), FEPNO);
      973    19001
      974    19002    4               FEPD.ASYNC_TERMINALS(FEP_COUNT) = FEP_DATA.ASYNC_TERMINALS(FEPNO);
      975    19003    4               FEPD.ASYNC_OUTPUT(FEP_COUNT) = FEP_DATA.ASYNC_OUTPUT(FEPNO);
      976    19004    4               FEPD.ASYNC_INPUT(FEP_COUNT) = FEP_DATA.ASYNC_INPUT(FEPNO);
      977    19005    4               FEPD.RBT_TERMINALS(FEP_COUNT) = FEP_DATA.RBT_TERMINALS(FEPNO);
      978    19006    4               FEPD.RBT_OUTPUT(FEP_COUNT) = FEP_DATA.RBT_OUTPUT(FEPNO);
      979    19007    4               FEPD.RBT_INPUT(FEP_COUNT) = FEP_DATA.RBT_INPUT(FEPNO);
      980    19008    4               FEPD.URP_TERMINALS(FEP_COUNT) = FEP_DATA.URP_TERMINALS(FEPNO);
      981    19009    4               FEPD.URP_OUTPUT(FEP_COUNT) = FEP_DATA.URP_OUTPUT(FEPNO);
      982    19010    4               FEPD.URP_INPUT(FEP_COUNT) = FEP_DATA.URP_INPUT(FEPNO);
      983    19011    4               FEPD.T3270_TERMINALS(FEP_COUNT) = FEP_DATA.T3270_TERMINALS(FEPNO);
      984    19012    4               FEPD.T3270_OUTPUT(FEP_COUNT) = FEP_DATA.T3270_OUTPUT(FEPNO);
      985    19013    4               FEPD.T3270_INPUT(FEP_COUNT) = FEP_DATA.T3270_INPUT(FEPNO);
      986    19014    4               FEPD.HDLC_TERMINALS(FEP_COUNT) = FEP_DATA.HDLC_TERMINALS(FEPNO);
      987    19015    4               FEPD.HDLC_OUTPUT(FEP_COUNT) = FEP_DATA.HDLC_OUTPUT(FEPNO);
PL6.E3A0      #001=PSD$FEP File=PSD$FEP.:E05TSI                                  WED 07/30/97 04:27 Page:75
      988    19016    4               FEPD.HDLC_INPUT(FEP_COUNT) = FEP_DATA.HDLC_INPUT(FEPNO);
      989    19017    4               FEPD.IDLE_TIME(FEP_COUNT) = FEP_DATA.IDLE_TIME(FEPNO);
      990    19018    4               FEPD.AVAIL_MEM(FEP_COUNT) = FEP_DATA.AVAIL_MEM(FEPNO);
      991    19019
      992    19020    4               FEP_COUNT = FEP_COUNT + 1;
      993    19021    4            END /* IF UPDATED */;
      994    19022
      995    19023    3            FEPNO = FEPNO + 1;
      996    19024    2         END; /* WHILE FEP_COUNT, FEPNO */;
      997    19025
      998    19026    3         IF FEP_COUNT>0 THEN DO;
      999    19027    4            DO I = FEP_COUNT TO 8;
     1000    19028
     1001    19029    4               FEP_TITLES.TITLE1A(I) = ' ';
     1002    19030
     1003    19031    4            END;
     1004    19032
     1005    19033    3            CALL X$WRITE (PS_FDS, VECTOR(FEP_HDR),
     1006    19034    3              VECTOR(INT_END), VECTOR(FEP_TITLES));
     1007    19035
     1008    19036    3            CALL PRINT('Async terminals.', FEPD.ASYNC_TERMINALS);
     1009    19037    3            CALL PRINT('Async bytes output/min.', FEPD.ASYNC_OUTPUT);
     1010    19038    3            CALL PRINT('Async bytes input/min.', FEPD.ASYNC_INPUT);
     1011    19039    3            CALL PRINT('RBT devices.', FEPD.RBT_TERMINALS);
     1012    19040    3            CALL PRINT('RBT bytes output/min.', FEPD.RBT_OUTPUT);
     1013    19041    3            CALL PRINT('RBT bytes input/min.', FEPD.RBT_INPUT);
     1014    19042    3            CALL PRINT('urp devices.', FEPD.URP_TERMINALS);
     1015    19043    3            CALL PRINT('urp bytes output/min.', FEPD.URP_OUTPUT);
     1016    19044    3            CALL PRINT('urp bytes input/min.', FEPD.URP_INPUT);
     1017    19045    3            CALL PRINT('3270 terminals.', FEPD.T3270_TERMINALS);
     1018    19046    3            CALL PRINT('3270 bytes output/min.', FEPD.T3270_OUTPUT);
     1019    19047    3            CALL PRINT('3270 bytes input/min.', FEPD.T3270_INPUT);
     1020    19048    3            CALL PRINT('HDLC connections.',FEPD.HDLC_TERMINALS);
     1021    19049    3            CALL PRINT('HDLC output bytes/min.',FEPD.HDLC_OUTPUT);
     1022    19050    3            CALL PRINT('HDLC input bytes/min.',FEPD.HDLC_INPUT);
     1023    19051    4            DO WHILE ( '0'B ) ; /* RFU */
     1024    19052    4   RFU:        CALL PRINT ( '                         .', FEPD ) ;
PL6.E3A0      #001=PSD$FEP File=PSD$FEP.:E05TSI                                  WED 07/30/97 04:27 Page:76
     1025    19053    4               CALL PRINT ( '                         .', FEPD ) ;
     1026    19054    4               CALL PRINT ( '                         .', FEPD ) ;
     1027    19055    4               CALL PRINT ( '                         .', FEPD ) ;
     1028    19056    4               CALL PRINT ( '                         .', FEPD ) ;
     1029    19057    4               CALL PRINT ( '                         .', FEPD ) ;
     1030    19058    4               GOTO RFU ;
     1031    19059    4            END ;
     1032    19060    3            CALL PRINT('% FEP busy.', FEPD.IDLE_TIME);
     1033    19061    3            CALL PRINT('Memory pages available.', FEPD.AVAIL_MEM);
     1034    19062
     1035    19063    3            CALL PSD$SKIP;
     1036    19064
     1037    19065    3         END /* FEP_COUNT>0 */;
     1038    19066    2      END /* WHILE FEPNO */;
     1039    19067
     1040    19068    1      RETURN;
     1041    19069
     1042    19070    1   END PSD$FEP;

PL6.E3A0      #001=PSD$FEP File=PSD$FEP.:E05TSI                                  WED 07/30/97 04:27 Page:77
--  Include file information  --

   PS_FEPITEMS_C.:E05TOU  cannot be made into a system file and is referenced.
   XUF_ENTRY.:E05TOU  cannot be made into a system file and is referenced.
   XUD_UTS_M.:E05TOU  is referenced.
   PS_PERR_C.:E05TOU  is referenced.
   PS_FEP_E.:E05TOU  is referenced.
   KV$VDO.:E05TOU  is referenced.
   KV_GLBCNS_E.:E05TOU  is referenced.
   B_MICROPS_C.:E05TOU  is referenced.
   CP_6_SUBS.:E05TOU  is referenced.
   KL_MACRO_C.:E05TOU  is referenced.
   KL_AFCN_C.:E05TOU  is referenced.
   P_FEP_M.:E05TOU  is referenced.
   K_ID_E.:E05TOU  is referenced.
   XU_FORMAT_C.:E05TOU  is referenced.
   PM_BUCKET_C.:E05TOU  is referenced.
   PS_SUBS_C.:E05TOU  is referenced.
   PS_DATA_R.:E05TOU  cannot be made into a system file and is referenced.
   CP_6.:E05TOU  cannot be made into a system file and is referenced.
   B$JIT_C.:E05TOU  was found in the system file and is never referenced.
   CP_6_C.:E05TOU  was found in the system file and is referenced.
      No diagnostics issued in procedure PSD$FEP.

   Procedure PSD$FEP requires 1807 words for executable code.
   Procedure PSD$FEP requires 2616 words of local(AUTO) storage.

    No errors detected in file PSD$FEP.:E05TSI    .

PL6.E3A0      #001=PSD$FEP File=PSD$FEP.:E05TSI                                  WED 07/30/97 04:27 Page:78

 Object Unit name= PSD$FEP                                    File name= PSD$FEP.:E05TOU
 UTS= JUL 30 '97 04:27:38.52 WED                              Compiler= PL-6/E31         Sev=      00
 SharedLib= :SHARED_SYSTEM                                    Alt SharedLib=


    ****  Control sections  ****

 Sect   Type Bound  Init  Size OctSiz  Section name(segment info)
    0   DCB   even  none     0      0  M$UC
    1   DCB   even  none     0      0  M$LO
    2   DCB   even  none     0      0  M$DO
    3   DCB   even  none     0      0  M$SI
    4   DCB   even  none     0      0  F$LOG
    5   DCB   even  none     0      0  M$ME
    6   DCB   even  none     0      0  M$HLPCG
    7  RtLbCm even  none    30     36  PS_FDS
    8  RtLbCm even  none    32     40  PS_SELECT_RPN
    9  RtLbCm even  none    17     21  PS_STATS_RPN
   10  RtLbCm even  none    34     42  PS_STATS_BUCKET
   11   Data  even  none   146    222  PSD$FEP
   12  RoData even  UTS   6261  14165  PSD$FEP
   13   Proc  even  none  1807   3417  PSD$FEP
   14  RoData even  none   114    162  PSD$FEP

    ****  Entry defs  ****

                              Check   Calling
                             calling  sequence
  Sect OctLoc Primary Altret sequence   type   Parms  Name
    13      0   yes            yes      Std        0  PSD$FEP
PL6.E3A0      #001=PSD$FEP File=PSD$FEP.:E05TSI                                  WED 07/30/97 04:27 Page:79

  ****  Entry refs  ****

         Check        Calling
        calling       sequence
Altret sequence SRef   type   Args  Name
         yes           Std       1 PSD$EJECT
         yes           Std       5 PSE$GRIPE
         yes           Std       2 PSL$TIME
         yes           Std      22 X$WRITE
         yes           Std       0 PSD$SKIP
 yes     yes           Std       3 XUD$UTS_DIFF
                       Std       0 B_CONSPOOL_D
                       nStd      0 X66_AUTO_0
                       nStd      0 X66_ARET

  ****  Data refs  ****

  Flags:  r = read only, s = secondary
Flgs Name                             Flgs Name                             Flgs Name
     M$UC                                  M$LO                                  M$DO
     M$SI                                  F$LOG                                 M$ME
     M$HLPCG                               PS_FEP$                               PS_OLD_FEP$
     PS_FEP_DISP_FLAGS                     PS_BUFFER                             PS_STATS$
     PS_MODE                               PS_FEPNO                              B_VECTNIL

  ****  Segment refs  ****

  Flags:  r = read only, s = secondary
Flgs Name                             Flgs Name                             Flgs Name
     NULLSID                               ISSID                                 ROSID
PL6.E3A0      #001=PSD$FEP File=PSD$FEP.:E05TSI                                  WED 07/30/97 04:27 Page:80


        1        1        /*M*  PSD$FEP  Display data collected by the Front End Processors */
        2        2        /*T***********************************************************/
        3        3        /*T*                                                         */
        4        4        /*T* Copyright (c) Bull HN Information Systems Inc., 1997    */
        5        5        /*T*                                                         */
        6        6        /*T***********************************************************/
        7        7       /*X* PLM=3,SQB,AND,ENI=0,SDI=3,CSI=0,ECI=0,IND=0,IAD=3,MOC,MEC,CLM=0,MCL=1,EXM=0,NTB
                 7         */
        8        8        %SET LISTSUB = '1'B;
        9        9
       10       10        PSD$FEP: PROC;

     10 13 000000   000000 700200 xent  PSD$FEP      TSX0  ! X66_AUTO_0
        13 000001   005070 000000                    ZERO    2616,0
        13 000002   000626 710000 13                 TRA     s:18593

       11       11
       12       12        %INCLUDE CP_6;
       13       93        %INCLUDE PS_DATA_R;
       14     5389        %INCLUDE CP_6_SUBS;
       15     5929        %INCLUDE B_MICROPS_C;
       16     6101        %INCLUDE KV_GLBCNS_E;
       17     6442        %KV_USR_EVT_ID_E;
       18     6462        %KV_USR_FNC_E;
       19     6478        %KV_VDH_EVT_ID_E;
       20     6484        %KV_VDH_FNC_E;
       21     6504        %KV_STRTYP_E;
       22     6542        %INCLUDE KV$VDO;
       23     7557        %KV_VDO_E;
       24     7593        %INCLUDE PS_FEP_E;
       25     8077        %INCLUDE PS_PERR_C ;
       26     8108        %INCLUDE XUD_UTS_M;
       27     8190
       28     8191        %F$DCB;
       29     8248
       30     8249        %FPT_TIME(FPTN=FUTS_UTS,
PL6.E3A0      #001=PSD$FEP File=PSD$FEP.:E05TSI                                  WED 07/30/97 04:27 Page:81
       31     8250         STCLASS=STATIC,
       32     8251         SOURCE=FUTS,
       33     8252         DEST=UTS);
       34     8271
       35     8272        %PS_FEPSTATS;
       36     8482
       37     8483        %KL_REQSTATS (STCLASS=BASED);
       38     8776
       39     8777        %EXT_TIME (NAME=INT_START, STCLASS=STATIC);
       40     8785        %EXT_TIME (NAME=INT_END, STCLASS=STATIC);
       41     8793        %EXT_TIME (NAME=BOOT_TIME, STCLASS=STATIC);
       42     8801        %XUD$UTS_ENTRIES;
       43     8833
       44     8834        %MACRO FEP_GROUP (TITLE="' '",MORE="' '");
       45     8835
       46     8836           2 %(CHARTEXT(CONCAT('P', BINCHAR(ITEMS, 4)))) WALIGNED,
       47     8837             3 TYPE# SBIN BYTE UNAL INIT (0),
       48     8838             3 LEN# SBIN BYTE UNAL INIT (%(LENGTHC(TITLE)+LENGTHC(MORE))),
       49     8839             3 TITLE# CHAR (0) UNAL INIT (TITLE),
       50     8840             3 MORE# CHAR (0) UNAL INIT (MORE),
       51     8841
       52     8842         %SET ITEMS=ITEMS+1;
       53     8843
       54     8844        %MEND;
       55     8845
       56     8846        %MACRO FEP_ITEM (SCALE(ABS=0, ABS_LEFT=1, PER_MINUTE=2, PER_SECOND=3,
       57     8847         MS_PER=4, PCT_TIME=5, QUOTIENT=6, DUMMY=7, PCT_UTS_UNITS=8)=0,
       58     8848         CONSEC=1,
       59     8849         ITEM=0,
       60     8850         SUBSCR=0,
       61     8851         DIVISOR=0,
       62     8852         SLCT=0,
       63     8853         DISP=0);
       64     8854
       65     8855             2 %(CHARTEXT(CONCAT('P', BINCHAR(ITEMS, 4)))) WALIGNED,
       66     8856             3 * SBIN BYTE CALIGNED INIT(1), /* TYPE */
       67     8857             3 * SBIN BYTE CALIGNED INIT(SCALE),
PL6.E3A0      #001=PSD$FEP File=PSD$FEP.:E05TSI                                  WED 07/30/97 04:27 Page:82
       68     8858             3 * SBIN BYTE CALIGNED INIT(CONSEC),
       69     8859             3 * SBIN BYTE CALIGNED INIT(SLCT),
       70     8860             3 * SBIN BYTE CALIGNED INIT(DISP),
       71     8861             3 * SBIN (18) CALIGNED INIT(%(ITEM+SUBSCR)),
       72     8862             3 * SBIN BYTE CALIGNED INIT(DIVISOR),
       73     8863
       74     8864         %SET ITEMS=ITEMS+1;
       75     8865
       76     8866        %MEND;
       77     8867
       78     8868        %MACRO FEP_FORM (FORM="' '",MORE="' '");
       79     8869
       80     8870             2 %(CHARTEXT(CONCAT('P', BINCHAR(ITEMS, 4)))) WALIGNED,
       81     8871             3 TYPE# SBIN BYTE UNAL INIT (2),
       82     8872             3 LEN# SBIN BYTE UNAL INIT (%(LENGTHC(FORM)+LENGTHC(MORE))),
       83     8873             3 FORM# CHAR (0) UNAL INIT (FORM),
       84     8874             3 MORE# CHAR (0) UNAL INIT (MORE),
       85     8875
       86     8876        %SET ITEMS=ITEMS+1;
       87     8877
       88     8878        %MEND;
       89     8879
       90     8880        %MACRO FEP_ENDTBL;
       91     8881             2 PLAST WALIGNED,
       92     8882             3 TYPE# SBIN BYTE INIT(3),
       93     8883             3 CONDITION$ PTR WALIGNED INIT(ADDR(LAST_FLAG)),
       94     8884             3 NEXT$ PTR WALIGNED INIT(ADDR(NIL)),
       95     8885             2 PATCH(0:20) UBIN WORD WALIGNED INIT(0*0);
       96     8886        %MEND;
       97     8887
       98     8888        %EQU ABS#=0;
       99     8889        %EQU ABS_LEFT#=1;
      100     8890        %EQU PER_MINUTE#=2;
      101     8891        %EQU PER_SECOND#=3;
      102     8892        %EQU MS_PER#=4;
      103     8893        %EQU PCT_TIME#=5;
      104     8894        %EQU QUOTIENT#=6;
PL6.E3A0      #001=PSD$FEP File=PSD$FEP.:E05TSI                                  WED 07/30/97 04:27 Page:83
      105     8895        %EQU DUMMY#=7;
      106     8896        %EQU PCT_UTS_UNITS# = 8;
      107     8897
      108     8898        %EQU GROUP#=0;
      109     8899        %EQU ITEM#=1;
      110     8900        %EQU FFORM#=2;
      111     8901        %EQU JUMP#=3; /* END OF TABLE, ALSO USEFULL FOR PATCHING */
      112     8902
      113     8903        %EQU MICROSECONDS_PER_FEP_TIC = 1000000 / 120;
      114     8904        %EQU FEP_TICS_PER_MINUTE = 60 * 120;
      115     8905        %EQU FEP_TICS_PER_SECOND = 120;
      116     8906
      117     8907        %INCLUDE XUF_ENTRY;
      118     8915    1   DCL PSD$EJECT ENTRY (1);
      119     8916    1   DCL PSD$SKIP ENTRY;
      120     8917    1   DCL PSE$GRIPE ENTRY(5) ;
      121     8918    1   DCL PSL$TIME ENTRY (2);
      122     8919
      123     8920    1   DCL INTERVAL_START UBIN;
      124     8921    1   DCL INTERVAL_END UBIN;
      125     8922    1   DCL DELTA_TICS_ELAPSED SBIN;
      126     8923    1   DCL TOTAL_TICS_ELAPSED UBIN;
      127     8924    1   DCL FIRST_BOOT UBIN;
      128     8925    1   DCL SECOND_BOOT UBIN;
      129     8926    1   DCL I UBIN;
      130     8927    1   DCL I1 UBIN;
      131     8928    1   DCL FEP_COUNT UBIN;
      132     8929    1   DCL CONSEC_COUNT UBIN;
      133     8930    1   DCL FEP_ITEM_ITEM$ PTR;
      134     8931    1   DCL DISP_INDEX UBIN;
      135     8932    1   DCL ZERO UBIN WORD STATIC INIT(0);
      136     8933
      137     8934    1   DCL TABLE$ PTR;
      138     8935
      139     8936    1   DCL FEPNO UBIN;
      140     8937
      141     8938    1   DCL WIDTH UBIN;
PL6.E3A0      #001=PSD$FEP File=PSD$FEP.:E05TSI                                  WED 07/30/97 04:27 Page:84
      142     8939    1   DCL FEPS_PER_LINE UBIN;
      143     8940
      144     8941    1   DCL FEP$ PTR;
      145     8942    1   DCL OLD_FEP$ PTR;
      146     8943    1   DCL FEP_SIZE UBIN;
      147     8944    1   DCL OLD_FEP_SIZE UBIN;
      148     8945    1   DCL THIS_OLD_FEP$ PTR;
      149     8946
      150     8947    1   DCL GROUP_HEAD$ PTR;
      151     8948
      152     8949    1   DCL ITEM UBIN;
      153     8950    1   DCL OLD_ITEM UBIN;
      154     8951    1   DCL SNAP_ITEM SBIN;
      155     8952
      156     8953    1   DCL DIVISOR UBIN;
      157     8954    1   DCL OLD_DIVISOR UBIN;
      158     8955
      159     8956    1   DCL ITEM_FLAG /* logical */ BIT(1) UNAL;
      160     8957    1   DCL ITEM_COUNT UBIN;
      161     8958    1   DCL ITEM_BYTE_COUNT UBIN;
      162     8959
      163     8960    1   DCL CURRENT_ITEM (0:19) UBIN;
      164     8961    1   DCL CURRENT_ITEMS CHAR(ITEM_BYTE_COUNT) BASED;
      165     8962
      166     8963    1   DCL LAST_FLAG STATIC UBIN INIT(1);
      167     8964    1   DCL UBIN_(0:0) BASED UBIN;
      168     8965
      169     8966    1   DCL 1 FEP_DISPLAY_FMT CONSTANT,
      170     8967    1          2 P1 CHAR(0) INIT ('%/ FEP %D from %A to %A');
      171     8968
      172     8969    1   DCL 1 FEP_SINCE_BOOT_FMT CONSTANT,
      173     8970    1          2 P1 CHAR(0) INIT ('%/ FEP %D booted %A to %A');
      174     8971
      175     8972    1   DCL DAYS_SINCE_BOOT UBIN;
      176     8973    1   DCL HOURS_SINCE_BOOT SBIN;
      177     8974    1   DCL MINUTES_SINCE_BOOT SBIN;
      178     8975
PL6.E3A0      #001=PSD$FEP File=PSD$FEP.:E05TSI                                  WED 07/30/97 04:27 Page:85
      179     8976    1   DCL LOCATE_ANOTHER BIT(1) STATIC ALIGNED INIT('0'B);
      180     8977
      181     8978    1   DCL SHORT_FLAG BIT(36) WALIGNED STATIC INIT('0'B);
      182     8979
      183     8980    1   DCL 1 FEP_TITLES STATIC,
      184     8981    1          2 TITLE1 (0:8),
      185     8982    1             3 FEP_TAG CHAR(5) INIT (' '*0),
      186     8983    1             3 FEP_NUM CHAR(2) INIT (' '*0),
      187     8984    1          2 TITLE1A (0:8) REDEF TITLE1 CHAR(7);
      188     8985
      189     8986    1   DCL 1 FEP_HDR CONSTANT CHAR(0) INIT
      190     8987    1    ('%/%A%25-%9(  %7A%Q%)');
      191     8988
      192     8989    1   DCL FEP_FORMAT CONSTANT CHAR(0) INIT
      193     8990    1    ('%A%25-%9(%9D%Q%)');
      194     8991
      195     8992    1   DCL 1 DATA_VECTOR DALIGNED,
      196     8993    1          2 BOUND UBIN (20) UNAL,
      197     8994    1          2 FLAGS BIT (16),
      198     8995    1          2 PTR$ PTR;
      199     8996
      200     8997        %FEPTEMP (NAME=FEPTEMP, STCLASS=STATIC);
      201     9028        %FEPTEMP (NAME=OLD_FEPTEMP, STCLASS=STATIC);
      202     9059
      203     9060    1   DCL 1 FEP_DATA(0:%PS_MAXFE#),
      204     9061    1          2 ASYNC_TERMINALS UBIN,
      205     9062    1          2 ASYNC_OUTPUT UBIN,
      206     9063    1          2 ASYNC_INPUT UBIN,
      207     9064    1          2 RBT_TERMINALS UBIN,
      208     9065    1          2 RBT_OUTPUT UBIN,
      209     9066    1          2 RBT_INPUT UBIN,
      210     9067    1          2 URP_TERMINALS UBIN,
      211     9068    1          2 URP_OUTPUT UBIN,
      212     9069    1          2 URP_INPUT UBIN,
      213     9070    1          2 T3270_TERMINALS UBIN,
      214     9071    1          2 T3270_OUTPUT UBIN,
      215     9072    1          2 T3270_INPUT UBIN,
PL6.E3A0      #001=PSD$FEP File=PSD$FEP.:E05TSI                                  WED 07/30/97 04:27 Page:86
      216     9073    1          2 HDLC_TERMINALS UBIN,
      217     9074    1          2 HDLC_OUTPUT UBIN,
      218     9075    1          2 HDLC_INPUT UBIN,
      219     9076    1          2 * UBIN, /* RFU */
      220     9077    1          2 * UBIN, /* RFU */
      221     9078    1          2 * UBIN, /* RFU */
      222     9079    1          2 * UBIN, /* RFU */
      223     9080    1          2 * UBIN, /* RFU */
      224     9081    1          2 * UBIN, /* RFU */
      225     9082    1          2 IDLE_TIME UBIN,
      226     9083    1          2 AVAIL_MEM UBIN ;
      227     9084
      228     9085    1   DCL 1 FEPD,
      229     9086    1          2 ASYNC_TERMINALS(0:8) UBIN,
      230     9087    1          2 ASYNC_OUTPUT(0:8) UBIN,
      231     9088    1          2 ASYNC_INPUT(0:8) UBIN,
      232     9089    1          2 RBT_TERMINALS(0:8) UBIN,
      233     9090    1          2 RBT_OUTPUT(0:8) UBIN,
      234     9091    1          2 RBT_INPUT(0:8) UBIN,
      235     9092    1          2 URP_TERMINALS(0:8) UBIN,
      236     9093    1          2 URP_OUTPUT(0:8) UBIN,
      237     9094    1          2 URP_INPUT(0:8) UBIN,
      238     9095    1          2 T3270_TERMINALS(0:8) UBIN,
      239     9096    1          2 T3270_OUTPUT(0:8) UBIN,
      240     9097    1          2 T3270_INPUT(0:8) UBIN,
      241     9098    1          2 HDLC_TERMINALS(0:8) UBIN,
      242     9099    1          2 HDLC_OUTPUT(0:8) UBIN,
      243     9100    1          2 HDLC_INPUT(0:8) UBIN,
      244     9101    1          2 *(0:8) UBIN, /* RFU */
      245     9102    1          2 *(0:8) UBIN, /* RFU */
      246     9103    1          2 *(0:8) UBIN, /* RFU */
      247     9104    1          2 *(0:8) UBIN, /* RFU */
      248     9105    1          2 *(0:8) UBIN, /* RFU */
      249     9106    1          2 *(0:8) UBIN, /* RFU */
      250     9107    1          2 IDLE_TIME(0:8) UBIN,
      251     9108    1          2 AVAIL_MEM(0:8) UBIN ;
      252     9109
PL6.E3A0      #001=PSD$FEP File=PSD$FEP.:E05TSI                                  WED 07/30/97 04:27 Page:87
      253     9110
      254     9111        %EJECT;
PL6.E3A0      #001=PSD$FEP File=PSD$FEP.:E05TSI                                  WED 07/30/97 04:27 Page:88
      255     9112        /*
      256     9113                 Build the table of items to be displayed
      257     9114        */
      258     9115        %SET ITEMS=0;
      259     9116        %SET LISTINC = '1'B;
      260     9117        %INCLUDE PS_FEPITEMS_C;
        1+    9118        /*M* PS_FEPITEMS_C - Defines format for FEP STATS           */
        2+    9119        /*T***********************************************************/
        3+    9120        /*T*                                                         */
        4+    9121        /*T* Copyright (c) Bull HN Information Systems Inc., 1997    */
        5+    9122        /*T*                                                         */
        6+    9123        /*T***********************************************************/
        7+    9124
        8+    9125    1   DCL 1 PS_FEPTBL_MONITOR ALIGNED CONSTANT,
        9+    9126
       10+    9127        %FEP_FORM (FORM="'%/ *** LCP-6 Monitor statistics for FEP ''%8A'''");
       11+    9135
       12+    9136        %FEP_ITEM (ITEM=%PS_LCP6STT_UXEQTIME#,CONSEC=4,SCALE=PCT_TIME);
       13+    9147        %FEP_FORM (FORM="' %% User exec (Ts Cg Hn Gh)  %4(%6D.%2ZD%)'");
       14+    9155
       15+    9156        %FEP_ITEM (ITEM=%PS_LCP6STT_USRVTIME#,CONSEC=4,SCALE=PCT_TIME);
       16+    9167        %FEP_FORM (FORM="' %% User serv (Ts Cg Hn Gh)  %4(%6D.%2ZD%)'");
       17+    9175
       18+    9176        %FEP_ITEM (ITEM=%PS_LCP6STT_MXEQTIME#,SCALE=PCT_TIME);
       19+    9187        %FEP_FORM (FORM="' %% Monitor execution time      %3D.%2ZD'");
       20+    9195
       21+    9196        %FEP_ITEM (ITEM=%PS_LCP6STT_MIDLTIME#,SCALE=PCT_TIME);
       22+    9207        %FEP_FORM (FORM="' %% idle                        %3D.%2ZD'");
       23+    9215
       24+    9216        %FEP_ITEM (ITEM="%(-FEPTEMP_SCHED_TICS#)",SCALE=PCT_TIME);
       25+    9227        %FEP_FORM (FORM="' %% Total Scheduled Time        %3D.%2ZD'");
       26+    9235
       27+    9236        %FEP_GROUP (TITLE="'%/ Memory pool statistics                -Pages-'");
       28+    9244        %FEP_ITEM (ITEM=%PS_LCP6STT_PAGES_TOTNONSHF#,SCALE=ABS);
       29+    9255        %FEP_FORM (FORM="' IO pages in use                      %8D'");
       30+    9263
       31+    9264        %FEP_ITEM (ITEM=%PS_LCP6STT_PAGES_FRENONSHF#,SCALE=ABS);
PL6.E3A0      #001=PSD$FEP File=PSD$FEP.:E05TSI                                  WED 07/30/97 04:27 Page:89
       32+    9275        %FEP_FORM (FORM="' Fragmented IO pages not in use       %8D'");
       33+    9283
       34+    9284        %FEP_ITEM (ITEM=%PS_LCP6STT_PAGES_TOTSHF#,SCALE=ABS);
       35+    9295        %FEP_FORM (FORM="' Fprg-Sfile pages total               %8D'");
       36+    9303
       37+    9304        %FEP_ITEM (ITEM=%PS_LCP6STT_PAGES_AVLSHF#,SCALE=ABS);
       38+    9315        %FEP_FORM (FORM="' Maximum pages available to any user  %8D'");
       39+    9323
       40+    9324        %FEP_ITEM (ITEM=%PS_LCP6STT_PAGES_FRESHF#,SCALE=ABS);
       41+    9335        %FEP_FORM (FORM="' Current pages available to any user  %8D'");
       42+    9343
       43+    9344        %FEP_GROUP (TITLE=
              9344            "'%/ -User class-                 -Users-  -Pages-  -Pages per user-'");
       44+    9352
       45+    9353        %FEP_ITEM (ITEM=%PS_LCP6STT_USERS_TS_FPRG#,SCALE=ABS);
       46+    9364        %FEP_ITEM (ITEM=%PS_LCP6STT_PAGES_TS_FPRG#,SCALE=ABS);
       47+    9375       %FEP_ITEM (ITEM=%PS_LCP6STT_PAGES_TS_FPRG#,DIVISOR=%PS_LCP6STT_USERS_TS_FPRG#,SCALE=
              9375            ABS);
       48+    9386        %FEP_FORM (FORM="' Timesharing FPRG           %3(%9D%)'");
       49+    9394
       50+    9395        %FEP_ITEM (ITEM=%PS_LCP6STT_USERS_CG_FPRG#,SCALE=ABS);
       51+    9406        %FEP_ITEM (ITEM=%PS_LCP6STT_PAGES_CG_FPRG#,SCALE=ABS);
       52+    9417       %FEP_ITEM (ITEM=%PS_LCP6STT_PAGES_CG_FPRG#,DIVISOR=%PS_LCP6STT_USERS_CG_FPRG#,SCALE=
              9417            ABS);
       53+    9428        %FEP_FORM (FORM="' Comgroup connected FPRG    %3(%9D%)'");
       54+    9436
       55+    9437        %FEP_ITEM (ITEM=%PS_LCP6STT_USERS_HANDLER#,SCALE=ABS);
       56+    9448        %FEP_ITEM (ITEM=%PS_LCP6STT_PAGES_HANDLER#,SCALE=ABS);
       57+    9459       %FEP_ITEM (ITEM=%PS_LCP6STT_PAGES_HANDLER#,DIVISOR=%PS_LCP6STT_USERS_HANDLER#,SCALE=
              9459            ABS);
       58+    9470        %FEP_FORM (FORM="' Handler                    %3(%9D%)'");
       59+    9478
       60+    9479        %FEP_ITEM (ITEM=%PS_LCP6STT_USERS_GHOST#,SCALE=ABS);
       61+    9490        %FEP_ITEM (ITEM=%PS_LCP6STT_PAGES_GHOST#,SCALE=ABS);
       62+    9501       %FEP_ITEM (ITEM=%PS_LCP6STT_PAGES_GHOST#,DIVISOR=%PS_LCP6STT_USERS_GHOST#,SCALE=ABS)
              9501            ;
       63+    9512        %FEP_FORM (FORM="' Ghost                      %3(%9D%)'");
PL6.E3A0      #001=PSD$FEP File=PSD$FEP.:E05TSI                                  WED 07/30/97 04:27 Page:90
       64+    9520
       65+    9521        %FEP_ITEM (ITEM=%PS_LCP6STT_PAGES_MONITOR#,SCALE=ABS);
       66+    9532        %FEP_FORM (FORM="' LCP-6 Monitor                        %8D'");
       67+    9540
       68+    9541        %FEP_ITEM (ITEM=%PS_LCP6STT_PAGES_TOTAL#,SCALE=ABS);
       69+    9552        %FEP_FORM (FORM="' TOTAL                                %8D'");
       70+    9560
       71+    9561        %FEP_GROUP (TITLE=
              9561            "'%/ Read-Write Statistics by RES    -HO-     -UC-     -LG-     -NA-'");
       72+    9569
       73+    9570        %FEP_ITEM (ITEM=%PS_LCP6STT_READS_HOST#,CONSEC=4,SCALE=PER_MINUTE);
       74+    9581        %FEP_FORM (FORM="' # Reads/minute             %4(%9D%)'");
       75+    9589
       76+    9590        %FEP_ITEM (ITEM=%PS_LCP6STT_BYTES_READ_HOST#,CONSEC=4,SCALE=PER_MINUTE);
       77+    9601        %FEP_FORM (FORM="' Bytes Read/minute          %4(%9D%)'");
       78+    9609
       79+    9610        %FEP_ITEM (ITEM=%PS_LCP6STT_BYTES_READ_HOST#,DIVISOR=%PS_LCP6STT_READS_HOST#,SCALE=
              9610            QUOTIENT);
       80+    9621        %FEP_ITEM (ITEM=%PS_LCP6STT_BYTES_READ_UC#,DIVISOR=%PS_LCP6STT_READS_UC#,SCALE=
              9621            QUOTIENT);
       81+    9632        %FEP_ITEM (ITEM=%PS_LCP6STT_BYTES_READ_LG#,DIVISOR=%PS_LCP6STT_READS_LG#,SCALE=
              9632            QUOTIENT);
       82+    9643        %FEP_ITEM (ITEM=%PS_LCP6STT_BYTES_READ_NA#,DIVISOR=%PS_LCP6STT_READS_NA#,SCALE=
              9643            QUOTIENT);
       83+    9654        %FEP_FORM (FORM="' Bytes/Read                 %4(%9D%)'");
       84+    9662
       85+    9663        %FEP_ITEM (ITEM=%PS_LCP6STT_WRITES_HOST#,CONSEC=4,SCALE=PER_MINUTE);
       86+    9674        %FEP_FORM (FORM="' # Writes/minute            %4(%9D%)'");
       87+    9682
       88+    9683        %FEP_ITEM (ITEM=%PS_LCP6STT_BYTES_WRT_HOST#,CONSEC=4,SCALE=PER_MINUTE);
       89+    9694        %FEP_FORM (FORM="' Bytes Written/minute       %4(%9D%)'");
       90+    9702
       91+    9703        %FEP_ITEM (ITEM=%PS_LCP6STT_BYTES_WRT_HOST#,DIVISOR=%PS_LCP6STT_WRITES_HOST#,SCALE=
              9703            QUOTIENT);
       92+    9714        %FEP_ITEM (ITEM=%PS_LCP6STT_BYTES_WRT_UC#,DIVISOR=%PS_LCP6STT_WRITES_UC#,SCALE=
              9714            QUOTIENT);
       93+    9725        %FEP_ITEM (ITEM=%PS_LCP6STT_BYTES_WRT_LG#,DIVISOR=%PS_LCP6STT_WRITES_LG#,SCALE=
PL6.E3A0      #001=PSD$FEP File=PSD$FEP.:E05TSI                                  WED 07/30/97 04:27 Page:91
              9725            QUOTIENT);
       94+    9736        %FEP_ITEM (ITEM=%PS_LCP6STT_BYTES_WRT_NA#,DIVISOR=%PS_LCP6STT_WRITES_NA#,SCALE=
              9736            QUOTIENT);
       95+    9747        %FEP_FORM (FORM="' Bytes/Write                %4(%9D%)'");
       96+    9755
       97+    9756        %FEP_GROUP (TITLE=
              9756            "'%/ Bobcat Context Usage          -USER-    -SSN-   -LDCT-    -IOP-'");
       98+    9764        %FEP_ITEM (ITEM=%PS_LCP6STT_CURR_USERS#,CONSEC=4,SCALE=ABS);
       99+    9775        %FEP_FORM (FORM="' Current                    %4(%9D%)'");
      100+    9783
      101+    9784        %FEP_ITEM (ITEM=%PS_LCP6STT_PEAK_USERS#,CONSEC=4,SCALE=ABS);
      102+    9795        %FEP_FORM (FORM="' Peak                       %4(%9D%)'");
      103+    9803
      104+    9804        %FEP_ITEM (ITEM=%PS_LCP6STT_FPRG_FTCH_HOST#,SCALE=ABS);
      105+    9815        %FEP_ITEM (ITEM=%PS_LCP6STT_FPRG_FTCH_SFILE#,SCALE=ABS);
      106+    9826        %FEP_FORM (FORM="'%/ Fetches from host: %6D      Fetches from Sfile Table: %6D'");
      107+    9834
      108+    9835        %FEP_ITEM (ITEM=%PS_LCP6STT_FPRG_FTCH_HOST#,SCALE=PER_MINUTE);
      109+    9846        %FEP_ITEM (ITEM=%PS_LCP6STT_FPRG_FTCH_SFILE#,SCALE=PER_MINUTE);
      110+    9857        %FEP_FORM (FORM="'%/ Host fetches/min:  %6D      Sfile Table fetches/min:  %6D'");
      111+    9865
      112+    9866        %FEP_ENDTBL;
      113+    9873
      114+    9874        %EJECT;
PL6.E3A0      #001=PSD$FEP File=PSD$FEP.:E05TSI                                  WED 07/30/97 04:27 Page:92
      115+    9875    1   DCL 1 PS_FEPTBL_ASYNC ALIGNED CONSTANT,
      116+    9876
      117+    9877        %FEP_FORM (FORM="'%/ *** ASYNC statistics for handler %.8>A '");
      118+    9885
      119+    9886        %FEP_GROUP (TITLE=
              9886            "'   -Item-                            Hndlr-to-line  Line-to-hndlr'");
      120+    9894
      121+    9895        %FEP_ITEM (ITEM=%KA_STT_KHSTT_OTPINTCNT#,SCALE=PER_MINUTE);
      122+    9906        %FEP_ITEM (ITEM=%KA_STT_KHSTT_INPINTCNT#,SCALE=PER_MINUTE);
      123+    9917        %FEP_FORM (FORM="' Interrupts/minute                         %6D         %6D'");
      124+    9925
      125+    9926        %FEP_ITEM (ITEM=%KA_STT_KHSTT_OTPINTISATIM#,SCALE=PCT_TIME);
      126+    9937        %FEP_ITEM (ITEM=%KA_STT_KHSTT_INPINTISATIM#,SCALE=PCT_TIME);
      127+    9948        %FEP_FORM (FORM=
              9948            "' %% Interrupt service time                 %4D.%2ZD        %4D.%2ZD'");
      128+    9956
      129+    9957        %FEP_ITEM (ITEM=%KA_STT_KHSTT_OTPBFRBYTUTL#,SCALE=ABS);
      130+    9968        %FEP_ITEM (ITEM=%KA_STT_KHSTT_INPBFRBYTUTL#,SCALE=ABS);
      131+    9979        %FEP_FORM (FORM="' Buffer utilization, bytes                %7D        %7D'");
      132+    9987
      133+    9988        %FEP_ITEM (ITEM=%KA_STT_KHSTT_CTXBYTUTL#,SCALE=ABS);
      134+    9999        %FEP_FORM (FORM="' Context utilization, bytes                         %7D'");
      135+   10007
      136+   10008        %FEP_ITEM (ITEM=%KA_STT_DVCDFNBYTUTL#,SCALE=ABS);
      137+   10019        %FEP_FORM (FORM="' Device definition utilization, bytes               %7D'");
      138+   10027
      139+   10028        %FEP_ITEM (ITEM=%KA_STT_OTPBFRGETCNT_SML#,SCALE=PER_MINUTE);
      140+   10039        %FEP_ITEM (ITEM=%KA_STT_OTPBFRGETCNT_BIG#,SCALE=PER_MINUTE);
      141+   10050        %FEP_FORM (FORM=
             10050            "' Small output buffer gets/min  %6D       Large output buffer gets/min %6D'");
      142+   10058
      143+   10059        %FEP_ITEM (ITEM=%KA_STT_OTPBFRFULCNT_SML#,SCALE=PER_MINUTE);
      144+   10070        %FEP_ITEM (ITEM=%KA_STT_OTPBFRFULCNT_BIG#,SCALE=PER_MINUTE);
      145+   10081        %FEP_FORM (FORM=
             10081            "' Small output buffers full/min %6D      Large output buffers full/min %6D'");
      146+   10089
      147+   10090
PL6.E3A0      #001=PSD$FEP File=PSD$FEP.:E05TSI                                  WED 07/30/97 04:27 Page:93
      148+   10091        %FEP_ITEM (ITEM=%KA_STT_LINSPDDST#,SUBSCR=2,SCALE=ABS);
      149+   10102        %FEP_ITEM (ITEM=%KA_STT_LINSPDDST#,SUBSCR=4,CONSEC=12,SCALE=ABS);
      150+   10113        %FEP_FORM (FORM=
             10113            "'%/ Line speeds 110 150 200 300 600 1050 1200 1800 2000 2400 4800 9600 19.2'",
      151+   10114                   MORE=
             10114             "'%/              %3D %3D %3D %3D %3D  %3D  %3D  %3D  %3D  %3D  %3D  %3D %3D'"
             10114                       );
      152+   10122
      153+   10123        %FEP_GROUP (TITLE="'%/ ASYNC buffer management'");
      154+   10131
      155+   10132        %FEP_ITEM (ITEM=KA_STT_BPSTT_TOT#,SCALE=ABS);
      156+   10143        %FEP_ITEM (ITEM=KA_STT_BPSTT_USE#,SCALE=ABS);
      157+   10154        %FEP_ITEM (ITEM=KA_STT_BPSTT_MXU#,SCALE=ABS);
      158+   10165        %FEP_FORM (FORM="' words total   %6D   in use   %6D   peak in use   %6D'");
      159+   10173
      160+   10174        %FEP_ITEM (ITEM=KA_STT_BPSTT_GETC#,SCALE=PER_MINUTE);
      161+   10185        %FEP_ITEM (ITEM=KA_STT_BPSTT_GETT#,SCALE=PCT_TIME);
      162+   10196        %FEP_FORM (FORM="' # of get calls/minute           %6D   %% time       %3D.%2ZD'");
      163+   10204
      164+   10205        %FEP_ITEM (ITEM=KA_STT_BPSTT_RLSC#,SCALE=PER_MINUTE);
      165+   10216        %FEP_ITEM (ITEM=KA_STT_BPSTT_RLST#,SCALE=PCT_TIME);
      166+   10227        %FEP_FORM (FORM="' # of release calls/minute       %6D   %% time       %3D.%2ZD'");
      167+   10235
      168+   10236        %FEP_ITEM (ITEM=KA_STT_BPSTT_GETF#,SCALE=PER_MINUTE);
      169+   10247        %FEP_FORM (FORM="' # of get failures with enough free/minute   %6D'");
      170+   10255
      171+   10256        %FEP_ITEM (ITEM=KA_STT_BPSTT_FRG#,SCALE=PER_MINUTE);
      172+   10267        %FEP_FORM (FORM="' # of fragmentations/minute                  %6D'");
      173+   10275
      174+   10276        %FEP_ITEM (ITEM=KA_STT_BPSTT_CMB#,SCALE=PER_MINUTE);
      175+   10287        %FEP_FORM (FORM="' # of re-combinations/minute                 %6D'");
      176+   10295
      177+   10296        %FEP_ITEM (ITEM=KA_STT_BPSTT_SCH#,SCALE=PER_MINUTE);
      178+   10307        %FEP_FORM (FORM="' # of buddy searches/minute                  %6D'");
      179+   10315
      180+   10316        %FEP_ITEM (ITEM=KA_STT_BPSTT_CLKCTX#,SCALE=ABS);
      181+   10327        %FEP_ITEM (ITEM=KA_STT_BPSTT_CLKC#,SCALE=PER_MINUTE);
PL6.E3A0      #001=PSD$FEP File=PSD$FEP.:E05TSI                                  WED 07/30/97 04:27 Page:94
      182+   10338        %FEP_ITEM (ITEM=KA_STT_BPSTT_CLKE#,SCALE=PER_MINUTE);
      183+   10349        %FEP_FORM (FORM=
             10349            "'%/ Clock context blocks %5D   Service calls/min %5D   expirations/min %5D'");
      184+   10357
      185+   10358        %FEP_GROUP (TITLE="'%/ Free buffer distribution'");
      186+   10366
      187+   10367        %FEP_ITEM (ITEM=KA_STT_BPSTT_MINSIZ#,SCALE=ABS);
      188+   10378        %FEP_FORM (FORM="' size     %N=%13(%#:1023?.1[%4.#:1024/KDK%?%5.#KD%]%#:2*=%)'");
      189+   10386
      190+   10387        %FEP_ITEM (ITEM=KA_STT_BPSTT_COUNT#,CONSEC=13,SCALE=ABS);
      191+   10398        %FEP_FORM (FORM="' # free   %13(%5D%)'");
      192+   10406        /*N* THIS TOO
      193+   10407        %FEP_ITEM (ITEM=FEPTEMP_BFRWRDS#,CONSEC=13,SCALE=ABS);
      194+   10408        %FEP_FORM (FORM="' words    %13(%5D%)'");
      195+   10409        */
      196+   10410        %FEP_ITEM (ITEM=KA_STT_BPSTT_PKCNT#,CONSEC=13,SCALE=ABS);
      197+   10421        %FEP_FORM (FORM="' peak free%13(%5D%)'");
      198+   10429
      199+   10430        %FEP_ENDTBL;
      200+   10437        %EJECT;
PL6.E3A0      #001=PSD$FEP File=PSD$FEP.:E05TSI                                  WED 07/30/97 04:27 Page:95
      201+   10438    1   DCL 1 PS_FEPTBL_RBT ALIGNED CONSTANT,
      202+   10439
      203+   10440        %FEP_ITEM (ITEM=%KZ$SYNC_ACTSTR#,SCALE=ABS);
      204+   10451        %FEP_FORM (FORM=
             10451            "'%/ *** RBT statistics for handler %.8>A *** active streams = %5D '");
      205+   10459
      206+   10460        %FEP_GROUP (TITLE=
             10460            "'   -Item-                            Hndlr-to-line  Line-to-hndlr'");
      207+   10468
      208+   10469        %FEP_ITEM (ITEM=%KZ$SYNC_CHROUT#,SCALE=PER_MINUTE);
      209+   10480        %FEP_ITEM (ITEM=%KZ$SYNC_CHRIN#,SCALE=PER_MINUTE);
      210+   10491        %FEP_FORM (FORM="' Characters/minute                        %07D        %07D'");
      211+   10499
      212+   10500
      213+   10501        %FEP_ITEM (ITEM=%KZ$SYNC_BLKOUT#,SCALE=PER_MINUTE);
      214+   10512        %FEP_ITEM (ITEM=%KZ$SYNC_BLKIN#,SCALE=PER_MINUTE);
      215+   10523        %FEP_FORM (FORM="' Data blocks/minute                        %6D         %6D'");
      216+   10531
      217+   10532        %FEP_ITEM (ITEM=%KZ$SYNC_CHROUT#,DIVISOR=%KZ$SYNC_BLKOUT#,SCALE=PER_MINUTE);
      218+   10543        %FEP_ITEM (ITEM=%KZ$SYNC_CHRIN#,DIVISOR=%KZ$SYNC_BLKIN#,SCALE=PER_MINUTE);
      219+   10554        %FEP_FORM (FORM="' Characters/block                          %6D         %6D'");
      220+   10562
      221+   10563        %FEP_ITEM (ITEM=%KZ$SYNC_KHSTT_OTPINTCNT#,SCALE=PER_MINUTE);
      222+   10574        %FEP_ITEM (ITEM=%KZ$SYNC_KHSTT_INPINTCNT#,SCALE=PER_MINUTE);
      223+   10585        %FEP_FORM (FORM="' Interrupts/minute                         %6D         %6D'");
      224+   10593
      225+   10594        %FEP_ITEM (ITEM=%KZ$SYNC_KHSTT_OTPINTISATIM#,SCALE=PCT_TIME);
      226+   10605        %FEP_ITEM (ITEM=%KZ$SYNC_KHSTT_INPINTISATIM#,SCALE=PCT_TIME);
      227+   10616        %FEP_FORM (FORM=
             10616            "' %% Interrupt service time                 %4D.%2ZD        %4D.%2ZD'");
      228+   10624
      229+   10625        %FEP_ITEM (ITEM=%KZ$SYNC_PTHTICS#,SCALE=PCT_TIME);
      230+   10636        %FEP_FORM (FORM="' %% Path service time                               %4D.%2ZD'");
      231+   10644
      232+   10645        %FEP_ITEM (ITEM=%KZ$SYNC_KHSTT_OTPBFRBYTUTL#,SCALE=ABS);
      233+   10656        %FEP_ITEM (ITEM=%KZ$SYNC_KHSTT_INPBFRBYTUTL#,SCALE=ABS);
      234+   10667        %FEP_FORM (FORM="' Buffer utilization, bytes                %7D        %7D'");
PL6.E3A0      #001=PSD$FEP File=PSD$FEP.:E05TSI                                  WED 07/30/97 04:27 Page:96
      235+   10675
      236+   10676        %FEP_ITEM (ITEM=%KZ$SYNC_KHSTT_CTXBYTUTL#,SCALE=ABS);
      237+   10687        %FEP_FORM (FORM="'%/ Context utilization, bytes                         %7D'");
      238+   10695
      239+   10696        %FEP_ITEM (ITEM=%KZ$SYNC_TRNSCT#,SCALE=PER_MINUTE);
      240+   10707        %FEP_FORM (FORM="'%/ # of transactions/minute                           %6D'");
      241+   10715
      242+   10716        %FEP_ITEM (ITEM=%KZ$SYNC_TOTSSN#,SCALE=PER_MINUTE);
      243+   10727        %FEP_FORM (FORM="' # of sessions/minute                               %6D'");
      244+   10735
      245+   10736        %FEP_ITEM (ITEM=%KZ$SYNC_TOTCNC#,SCALE=PER_MINUTE);
      246+   10747        %FEP_FORM (FORM="' # of connects/minute                               %6D'");
      247+   10755
      248+   10756
      249+   10757        %FEP_GROUP (TITLE="'%/ RBT buffer management'");
      250+   10765
      251+   10766        %FEP_ITEM (ITEM=KZ$SYNC_BPSTT_TOT#,SCALE=ABS);
      252+   10777        %FEP_ITEM (ITEM=KZ$SYNC_BPSTT_USE#,SCALE=ABS);
      253+   10788        %FEP_ITEM (ITEM=KZ$SYNC_BPSTT_MXU#,SCALE=ABS);
      254+   10799        %FEP_FORM (FORM="' words total   %6D   in use   %6D   peak in use   %6D'");
      255+   10807
      256+   10808        %FEP_ITEM (ITEM=KZ$SYNC_BPSTT_GETC#,SCALE=PER_MINUTE);
      257+   10819        %FEP_ITEM (ITEM=KZ$SYNC_BPSTT_GETT#,SCALE=PCT_TIME);
      258+   10830        %FEP_FORM (FORM="' # of get calls/minute           %6D   %% time       %3D.%2ZD'");
      259+   10838
      260+   10839        %FEP_ITEM (ITEM=KZ$SYNC_BPSTT_RLSC#,SCALE=PER_MINUTE);
      261+   10850        %FEP_ITEM (ITEM=KZ$SYNC_BPSTT_RLST#,SCALE=PCT_TIME);
      262+   10861        %FEP_FORM (FORM="' # of release calls/minute       %6D   %% time       %3D.%2ZD'");
      263+   10869
      264+   10870        %FEP_ITEM (ITEM=KZ$SYNC_BPSTT_GETF#,SCALE=PER_MINUTE);
      265+   10881        %FEP_FORM (FORM="' # of get failures with enough free/minute   %6D'");
      266+   10889
      267+   10890        %FEP_ITEM (ITEM=KZ$SYNC_BPSTT_FRG#,SCALE=PER_MINUTE);
      268+   10901        %FEP_FORM (FORM="' # of fragmentations/minute                  %6D'");
      269+   10909
      270+   10910        %FEP_ITEM (ITEM=KZ$SYNC_BPSTT_CMB#,SCALE=PER_MINUTE);
      271+   10921        %FEP_FORM (FORM="' # of re-combinations/minute                 %6D'");
PL6.E3A0      #001=PSD$FEP File=PSD$FEP.:E05TSI                                  WED 07/30/97 04:27 Page:97
      272+   10929
      273+   10930        %FEP_ITEM (ITEM=KZ$SYNC_BPSTT_SCH#,SCALE=PER_MINUTE);
      274+   10941        %FEP_FORM (FORM="' # of buddy searches/minute                  %6D'");
      275+   10949
      276+   10950        %FEP_ITEM (ITEM=KZ$SYNC_BPSTT_CLKCTX#,SCALE=ABS);
      277+   10961        %FEP_ITEM (ITEM=KZ$SYNC_BPSTT_CLKC#,SCALE=PER_MINUTE);
      278+   10972        %FEP_ITEM (ITEM=KZ$SYNC_BPSTT_CLKE#,SCALE=PER_MINUTE);
      279+   10983        %FEP_FORM (FORM=
             10983            "'%/ Clock context blocks %5D   Service calls/min %5D   expirations/min %5D'");
      280+   10991
      281+   10992        %FEP_GROUP (TITLE="'%/ Free buffer distribution'");
      282+   11000
      283+   11001        %FEP_ITEM (ITEM=KZ$SYNC_BPSTT_MINSIZ#,SCALE=ABS);
      284+   11012        %FEP_FORM (FORM="' size     %N=%13(%#:1023?.1[%4.#:1024/KDK%?%5.#KD%]%#:2*=%)'");
      285+   11020
      286+   11021        %FEP_ITEM (ITEM=KZ$SYNC_BPSTT_COUNT#,CONSEC=13,SCALE=ABS);
      287+   11032        %FEP_FORM (FORM="' # free   %13(%5D%)'");
      288+   11040        /*N* THIS TOO
      289+   11041        %FEP_ITEM (ITEM=FEPTEMP_BFRWRDS#,CONSEC=13,SCALE=ABS);
      290+   11042        %FEP_FORM (FORM="' words    %13(%5D%)'");
      291+   11043        */
      292+   11044        %FEP_ITEM (ITEM=KZ$SYNC_BPSTT_PKCNT#,CONSEC=13,SCALE=ABS);
      293+   11055        %FEP_FORM (FORM="' peak free%13(%5D%)'");
      294+   11063
      295+   11064        %FEP_ENDTBL;
      296+   11071        %EJECT;
PL6.E3A0      #001=PSD$FEP File=PSD$FEP.:E05TSI                                  WED 07/30/97 04:27 Page:98
      297+   11072    1   DCL 1 PS_FEPTBL_URP ALIGNED CONSTANT,
      298+   11073
      299+   11074        %FEP_FORM (FORM="'%/ *** URP statistics for handler %.8>A ***'");
      300+   11082
      301+   11083        %FEP_GROUP (TITLE=
             11083            "'   -Item-                            Hndlr-to-line  Line-to-hndlr'");
      302+   11091
      303+   11092        %FEP_ITEM (ITEM=%KY_URP_USRSTT_OTPINTCNT#,SCALE=PER_MINUTE);
      304+   11103        %FEP_ITEM (ITEM=%KY_URP_USRSTT_INPINTCNT#,SCALE=PER_MINUTE);
      305+   11114        %FEP_FORM (FORM="' Interrupts/minute                         %6D         %6D'");
      306+   11122
      307+   11123        %FEP_ITEM (ITEM=%KY_URP_USRSTT_OTPINTISATIM#,SCALE=PCT_TIME);
      308+   11134        %FEP_ITEM (ITEM=%KY_URP_USRSTT_INPINTISATIM#,SCALE=PCT_TIME);
      309+   11145        %FEP_FORM (FORM=
             11145            "' %% Interrupt service time                 %4D.%2ZD        %4D.%2ZD'");
      310+   11153
      311+   11154        %FEP_ITEM (ITEM=%KY_URP_USRSTT_OTPBFRBYTUTL#,SCALE=ABS);
      312+   11165        %FEP_ITEM (ITEM=%KY_URP_USRSTT_INPBFRBYTUTL#,SCALE=ABS);
      313+   11176        %FEP_FORM (FORM="' Buffer utilization, bytes                %7D        %7D'");
      314+   11184
      315+   11185        %FEP_ITEM (ITEM=%KY_URP_USRSTT_CTXBYTUTL#,SCALE=ABS);
      316+   11196        %FEP_FORM (FORM="' Context utilization, bytes                         %7D'");
      317+   11204
      318+   11205        %FEP_ITEM (ITEM=%KY_URP_NUMDVC#,SUBSCR=1,CONSEC=3,SCALE=ABS);
      319+   11216        %FEP_FORM (FORM="' Devices    %2D LP     %2D CP     %2D CR'");
      320+   11224
      321+   11225        %FEP_ENDTBL;
      322+   11232        %EJECT;
PL6.E3A0      #001=PSD$FEP File=PSD$FEP.:E05TSI                                  WED 07/30/97 04:27 Page:99
      323+   11233    1   DCL 1 PS_FEPTBL_3270 ALIGNED CONSTANT,
      324+   11234
      325+   11235        %FEP_ITEM (ITEM=%KZ$3270STT_TOTCNC#,SCALE=ABS);
      326+   11246        %FEP_FORM (FORM=
             11246            "'%/ *** 3270 statistics for handler %.8>A *** active sessions = %5D '");
      327+   11254
      328+   11255        %FEP_GROUP (TITLE=
             11255            "'   -Item-                            Hndlr-to-line  Line-to-hndlr'");
      329+   11263
      330+   11264        %FEP_ITEM (ITEM=%KZ$3270STT_CHROUT#,SCALE=PER_MINUTE);
      331+   11275        %FEP_ITEM (ITEM=%KZ$3270STT_CHRIN#,SCALE=PER_MINUTE);
      332+   11286        %FEP_FORM (FORM="' Characters/minute                %07D        %07D'");
      333+   11294
      334+   11295
      335+   11296
      336+   11297        %FEP_ITEM (ITEM=%KZ$3270STT_BLKOUT#,SCALE=PER_MINUTE);
      337+   11308        %FEP_ITEM (ITEM=%KZ$3270STT_BLKIN#,SCALE=PER_MINUTE);
      338+   11319        %FEP_FORM (FORM="' Data blocks/minute                         %6D         %6D'");
      339+   11327
      340+   11328        %FEP_ITEM (ITEM=%KZ$SYNC_KHSTT_OTPINTCNT#,SCALE=PER_MINUTE);
      341+   11339        %FEP_ITEM (ITEM=%KZ$SYNC_KHSTT_INPINTCNT#,SCALE=PER_MINUTE);
      342+   11350        %FEP_FORM (FORM="' Interrupts/minute                         %6D         %6D'");
      343+   11358
      344+   11359        %FEP_ITEM (ITEM=%KZ$SYNC_KHSTT_OTPINTISATIM#,SCALE=PCT_TIME);
      345+   11370        %FEP_ITEM (ITEM=%KZ$SYNC_KHSTT_INPINTISATIM#,SCALE=PCT_TIME);
      346+   11381        %FEP_FORM (FORM=
             11381            "' %% Interrupt service time                 %4D.%2ZD        %4D.%2ZD'");
      347+   11389
      348+   11390        %FEP_ITEM (ITEM=%KZ$SYNC_PTHTICS#,SCALE=PCT_TIME);
      349+   11401        %FEP_FORM (FORM="' %% Path service time                               %4D.%2ZD'");
      350+   11409
      351+   11410        %FEP_ITEM (ITEM=%KZ$SYNC_KHSTT_OTPBFRBYTUTL#,SCALE=ABS);
      352+   11421        %FEP_ITEM (ITEM=%KZ$SYNC_KHSTT_INPBFRBYTUTL#,SCALE=ABS);
      353+   11432        %FEP_FORM (FORM="' Buffer utilization, bytes                %7D        %7D'");
      354+   11440
      355+   11441        %FEP_ITEM (ITEM=%KZ$SYNC_KHSTT_CTXBYTUTL#,SCALE=ABS);
      356+   11452        %FEP_FORM (FORM="'%/ Context utilization, bytes                         %7D'");
PL6.E3A0      #001=PSD$FEP File=PSD$FEP.:E05TSI                                  WED 07/30/97 04:27 Page:100
      357+   11460
      358+   11461        %FEP_GROUP;
      359+   11469
      360+   11470        %FEP_ITEM (ITEM=%KZ$3270STT_OTPBFRSIZ#,CONSEC=8,SCALE=PER_MINUTE);
      361+   11481        %FEP_FORM (FORM=
             11481            "'%/ Output buffers     32     64    128    256    512   1024   2048   4096'",
      362+   11482                   MORE="'%/                 %5D  %5D  %5D  %5D  %5D  %5D  %5D  %5D'");
      363+   11490
      364+   11491        %FEP_ITEM (ITEM=%KZ$3270STT_TRNSCT#,SCALE=PER_MINUTE);
      365+   11502        %FEP_FORM (FORM="'%/ # of transactions/minute                           %6D'");
      366+   11510
      367+   11511        %FEP_ITEM (ITEM=%KZ$3270STT_TOTSSN#,SCALE=PER_MINUTE);
      368+   11522        %FEP_FORM (FORM="' # of sessions/minute                               %6D'");
      369+   11530
      370+   11531        %FEP_ITEM (ITEM=%KZ$3270STT_GENPOL#,SCALE=PER_MINUTE);
      371+   11542        %FEP_FORM (FORM="' # of general poll loops/minute                     %6D'");
      372+   11550
      373+   11551        %FEP_ITEM (ITEM=%KZ$3270STT_SNDOTP#,SCALE=PER_MINUTE);
      374+   11562        %FEP_FORM (FORM="' # of general polls followed by output/minute       %6D'");
      375+   11570
      376+   11571        %FEP_ITEM (ITEM=%KZ$3270STT_WAT#,SCALE=PER_MINUTE);
      377+   11582        %FEP_FORM (FORM="' # of general polls followed by nothing to do/min   %6D'");
      378+   11590
      379+   11591        %FEP_ITEM (ITEM=%KZ$3270STT_SEL#,SCALE=PER_MINUTE);
      380+   11602        %FEP_FORM (FORM="' # of select sequences sent/minute                  %6D'");
      381+   11610
      382+   11611
      383+   11612        %FEP_GROUP (TITLE="'%/ 3270 buffer management'");
      384+   11620
      385+   11621        %FEP_ITEM (ITEM=KZ$3270STT_BPSTT_TOT#,SCALE=ABS);
      386+   11632        %FEP_ITEM (ITEM=KZ$3270STT_BPSTT_USE#,SCALE=ABS);
      387+   11643        %FEP_ITEM (ITEM=KZ$3270STT_BPSTT_MXU#,SCALE=ABS);
      388+   11654        %FEP_FORM (FORM="' words total   %6D   in use   %6D   peak in use   %6D'");
      389+   11662
      390+   11663        %FEP_ITEM (ITEM=KZ$3270STT_BPSTT_GETC#,SCALE=PER_MINUTE);
      391+   11674        %FEP_ITEM (ITEM=KZ$3270STT_BPSTT_GETT#,SCALE=PCT_TIME);
      392+   11685        %FEP_FORM (FORM="' # of get calls/minute           %6D   %% time       %3D.%2ZD'");
PL6.E3A0      #001=PSD$FEP File=PSD$FEP.:E05TSI                                  WED 07/30/97 04:27 Page:101
      393+   11693
      394+   11694        %FEP_ITEM (ITEM=KZ$3270STT_BPSTT_RLSC#,SCALE=PER_MINUTE);
      395+   11705        %FEP_ITEM (ITEM=KZ$3270STT_BPSTT_RLST#,SCALE=PCT_TIME);
      396+   11716        %FEP_FORM (FORM="' # of release calls/minute       %6D   %% time       %3D.%2ZD'");
      397+   11724
      398+   11725        %FEP_ITEM (ITEM=KZ$3270STT_BPSTT_GETF#,SCALE=PER_MINUTE);
      399+   11736        %FEP_FORM (FORM="' # of get failures with enough free/minute   %6D'");
      400+   11744
      401+   11745        %FEP_ITEM (ITEM=KZ$3270STT_BPSTT_FRG#,SCALE=PER_MINUTE);
      402+   11756        %FEP_FORM (FORM="' # of fragmentations/minute                  %6D'");
      403+   11764
      404+   11765        %FEP_ITEM (ITEM=KZ$3270STT_BPSTT_CMB#,SCALE=PER_MINUTE);
      405+   11776        %FEP_FORM (FORM="' # of re-combinations/minute                 %6D'");
      406+   11784
      407+   11785        %FEP_ITEM (ITEM=KZ$3270STT_BPSTT_SCH#,SCALE=PER_MINUTE);
      408+   11796        %FEP_FORM (FORM="' # of buddy searches/minute                  %6D'");
      409+   11804
      410+   11805        %FEP_ITEM (ITEM=KZ$3270STT_BPSTT_CLKCTX#,SCALE=ABS);
      411+   11816        %FEP_ITEM (ITEM=KZ$3270STT_BPSTT_CLKC#,SCALE=PER_MINUTE);
      412+   11827        %FEP_ITEM (ITEM=KZ$3270STT_BPSTT_CLKE#,SCALE=PER_MINUTE);
      413+   11838        %FEP_FORM (FORM=
             11838            "'%/ Clock context blocks %5D   Service calls/min %5D   expirations/min %5D'");
      414+   11846
      415+   11847        %FEP_GROUP (TITLE="'%/ Free buffer distribution'");
      416+   11855
      417+   11856        %FEP_ITEM (ITEM=KZ$3270STT_BPSTT_MINSIZ#,SCALE=ABS);
      418+   11867        %FEP_FORM (FORM="' size     %N=%13(%#:1023?.1[%4.#:1024/KDK%?%5.#KD%]%#:2*=%)'");
      419+   11875
      420+   11876        %FEP_ITEM (ITEM=KZ$3270STT_BPSTT_COUNT#,CONSEC=13,SCALE=ABS);
      421+   11887        %FEP_FORM (FORM="' # free   %13(%5D%)'");
      422+   11895        /*N* THIS TOO
      423+   11896        %FEP_ITEM (ITEM=FEPTEMP_BFRWRDS#,CONSEC=13,SCALE=ABS);
      424+   11897        %FEP_FORM (FORM="' words    %13(%5D%)'");
      425+   11898        */
      426+   11899        %FEP_ITEM (ITEM=KZ$3270STT_BPSTT_PKCNT#,CONSEC=13,SCALE=ABS);
      427+   11910        %FEP_FORM (FORM="' peak free%13(%5D%)'");
      428+   11918
PL6.E3A0      #001=PSD$FEP File=PSD$FEP.:E05TSI                                  WED 07/30/97 04:27 Page:102
      429+   11919        %FEP_ENDTBL;
      430+   11926        %EJECT;
PL6.E3A0      #001=PSD$FEP File=PSD$FEP.:E05TSI                                  WED 07/30/97 04:27 Page:103
      431+   11927    1   DCL 1 PS_FEPTBL_PLDVIP ALIGNED CONSTANT,
      432+   11928
      433+   11929        %FEP_ITEM (ITEM=%KZ$3270STT_TOTCNC#,SCALE=ABS);
      434+   11940        %FEP_FORM (FORM=
             11940            "'%/ *** Polled VIP statistics for handler %.8>A *** active sessions = %5D '");
      435+   11948
      436+   11949        %FEP_GROUP (TITLE=
             11949            "'   -Item-                            Hndlr-to-line  Line-to-hndlr'");
      437+   11957
      438+   11958        %FEP_ITEM (ITEM=%KZ$3270STT_CHROUT#,SCALE=PER_MINUTE);
      439+   11969        %FEP_ITEM (ITEM=%KZ$3270STT_CHRIN#,SCALE=PER_MINUTE);
      440+   11980        %FEP_FORM (FORM="' Characters/minute                %07D        %07D'");
      441+   11988
      442+   11989
      443+   11990
      444+   11991        %FEP_ITEM (ITEM=%KZ$3270STT_BLKOUT#,SCALE=PER_MINUTE);
      445+   12002        %FEP_ITEM (ITEM=%KZ$3270STT_BLKIN#,SCALE=PER_MINUTE);
      446+   12013        %FEP_FORM (FORM="' Data blocks/minute                         %6D         %6D'");
      447+   12021
      448+   12022        %FEP_ITEM (ITEM=%KZ$SYNC_KHSTT_OTPINTCNT#,SCALE=PER_MINUTE);
      449+   12033        %FEP_ITEM (ITEM=%KZ$SYNC_KHSTT_INPINTCNT#,SCALE=PER_MINUTE);
      450+   12044        %FEP_FORM (FORM="' Interrupts/minute                         %6D         %6D'");
      451+   12052
      452+   12053        %FEP_ITEM (ITEM=%KZ$SYNC_KHSTT_OTPINTISATIM#,SCALE=PCT_TIME);
      453+   12064        %FEP_ITEM (ITEM=%KZ$SYNC_KHSTT_INPINTISATIM#,SCALE=PCT_TIME);
      454+   12075        %FEP_FORM (FORM=
             12075            "' %% Interrupt service time                 %4D.%2ZD        %4D.%2ZD'");
      455+   12083
      456+   12084        %FEP_ITEM (ITEM=%KZ$SYNC_PTHTICS#,SCALE=PCT_TIME);
      457+   12095        %FEP_FORM (FORM="' %% Path service time                               %4D.%2ZD'");
      458+   12103
      459+   12104        %FEP_ITEM (ITEM=%KZ$SYNC_KHSTT_OTPBFRBYTUTL#,SCALE=ABS);
      460+   12115        %FEP_ITEM (ITEM=%KZ$SYNC_KHSTT_INPBFRBYTUTL#,SCALE=ABS);
      461+   12126        %FEP_FORM (FORM="' Buffer utilization, bytes                %7D        %7D'");
      462+   12134
      463+   12135        %FEP_ITEM (ITEM=%KZ$SYNC_KHSTT_CTXBYTUTL#,SCALE=ABS);
      464+   12146        %FEP_FORM (FORM="'%/ Context utilization, bytes                         %7D'");
PL6.E3A0      #001=PSD$FEP File=PSD$FEP.:E05TSI                                  WED 07/30/97 04:27 Page:104
      465+   12154
      466+   12155        %FEP_GROUP;
      467+   12163
      468+   12164        %FEP_ITEM (ITEM=%KZ$3270STT_OTPBFRSIZ#,CONSEC=8,SCALE=PER_MINUTE);
      469+   12175        %FEP_FORM (FORM=
             12175            "'%/ Output buffers     32     64    128    256    512   1024   2048   4096'",
      470+   12176                   MORE="'%/                 %5D  %5D  %5D  %5D  %5D  %5D  %5D  %5D'");
      471+   12184
      472+   12185        %FEP_ITEM (ITEM=%KZ$3270STT_TRNSCT#,SCALE=PER_MINUTE);
      473+   12196        %FEP_FORM (FORM="'%/ # of transactions/minute                           %6D'");
      474+   12204
      475+   12205        %FEP_ITEM (ITEM=%KZ$3270STT_TOTSSN#,SCALE=PER_MINUTE);
      476+   12216        %FEP_FORM (FORM="' # of sessions/minute                               %6D'");
      477+   12224
      478+   12225        %FEP_ITEM (ITEM=%KZ$3270STT_GENPOL#,SCALE=PER_MINUTE);
      479+   12236        %FEP_FORM (FORM="' # of general poll loops/minute                     %6D'");
      480+   12244
      481+   12245        %FEP_ITEM (ITEM=%KZ$3270STT_SNDOTP#,SCALE=PER_MINUTE);
      482+   12256        %FEP_FORM (FORM="' # of general polls followed by output/minute       %6D'");
      483+   12264
      484+   12265        %FEP_ITEM (ITEM=%KZ$3270STT_WAT#,SCALE=PER_MINUTE);
      485+   12276        %FEP_FORM (FORM="' # of general polls followed by nothing to do/min   %6D'");
      486+   12284
      487+   12285        %FEP_ITEM (ITEM=%KZ$3270STT_SEL#,SCALE=PER_MINUTE);
      488+   12296        %FEP_FORM (FORM="' # of select sequences sent/minute                  %6D'");
      489+   12304
      490+   12305
      491+   12306        %FEP_GROUP (TITLE="'%/ Polled VIP buffer management'");
      492+   12314
      493+   12315        %FEP_ITEM (ITEM=KZ$3270STT_BPSTT_TOT#,SCALE=ABS);
      494+   12326        %FEP_ITEM (ITEM=KZ$3270STT_BPSTT_USE#,SCALE=ABS);
      495+   12337        %FEP_ITEM (ITEM=KZ$3270STT_BPSTT_MXU#,SCALE=ABS);
      496+   12348        %FEP_FORM (FORM="' words total   %6D   in use   %6D   peak in use   %6D'");
      497+   12356
      498+   12357        %FEP_ITEM (ITEM=KZ$3270STT_BPSTT_GETC#,SCALE=PER_MINUTE);
      499+   12368        %FEP_ITEM (ITEM=KZ$3270STT_BPSTT_GETT#,SCALE=PCT_TIME);
      500+   12379        %FEP_FORM (FORM="' # of get calls/minute           %6D   %% time       %3D.%2ZD'");
PL6.E3A0      #001=PSD$FEP File=PSD$FEP.:E05TSI                                  WED 07/30/97 04:27 Page:105
      501+   12387
      502+   12388        %FEP_ITEM (ITEM=KZ$3270STT_BPSTT_RLSC#,SCALE=PER_MINUTE);
      503+   12399        %FEP_ITEM (ITEM=KZ$3270STT_BPSTT_RLST#,SCALE=PCT_TIME);
      504+   12410        %FEP_FORM (FORM="' # of release calls/minute       %6D   %% time       %3D.%2ZD'");
      505+   12418
      506+   12419        %FEP_ITEM (ITEM=KZ$3270STT_BPSTT_GETF#,SCALE=PER_MINUTE);
      507+   12430        %FEP_FORM (FORM="' # of get failures with enough free/minute   %6D'");
      508+   12438
      509+   12439        %FEP_ITEM (ITEM=KZ$3270STT_BPSTT_FRG#,SCALE=PER_MINUTE);
      510+   12450        %FEP_FORM (FORM="' # of fragmentations/minute                  %6D'");
      511+   12458
      512+   12459        %FEP_ITEM (ITEM=KZ$3270STT_BPSTT_CMB#,SCALE=PER_MINUTE);
      513+   12470        %FEP_FORM (FORM="' # of re-combinations/minute                 %6D'");
      514+   12478
      515+   12479        %FEP_ITEM (ITEM=KZ$3270STT_BPSTT_SCH#,SCALE=PER_MINUTE);
      516+   12490        %FEP_FORM (FORM="' # of buddy searches/minute                  %6D'");
      517+   12498
      518+   12499        %FEP_ITEM (ITEM=KZ$3270STT_BPSTT_CLKCTX#,SCALE=ABS);
      519+   12510        %FEP_ITEM (ITEM=KZ$3270STT_BPSTT_CLKC#,SCALE=PER_MINUTE);
      520+   12521        %FEP_ITEM (ITEM=KZ$3270STT_BPSTT_CLKE#,SCALE=PER_MINUTE);
      521+   12532        %FEP_FORM (FORM=
             12532            "'%/ Clock context blocks %5D   Service calls/min %5D   expirations/min %5D'");
      522+   12540
      523+   12541        %FEP_GROUP (TITLE="'%/ Free buffer distribution'");
      524+   12549
      525+   12550        %FEP_ITEM (ITEM=KZ$3270STT_BPSTT_MINSIZ#,SCALE=ABS);
      526+   12561        %FEP_FORM (FORM="' size     %N=%13(%#:1023?.1[%4.#:1024/KDK%?%5.#KD%]%#:2*=%)'");
      527+   12569
      528+   12570        %FEP_ITEM (ITEM=KZ$3270STT_BPSTT_COUNT#,CONSEC=13,SCALE=ABS);
      529+   12581        %FEP_FORM (FORM="' # free   %13(%5D%)'");
      530+   12589        /*N* THIS TOO
      531+   12590        %FEP_ITEM (ITEM=FEPTEMP_BFRWRDS#,CONSEC=13,SCALE=ABS);
      532+   12591        %FEP_FORM (FORM="' words    %13(%5D%)'");
      533+   12592        */
      534+   12593        %FEP_ITEM (ITEM=KZ$3270STT_BPSTT_PKCNT#,CONSEC=13,SCALE=ABS);
      535+   12604        %FEP_FORM (FORM="' peak free%13(%5D%)'");
      536+   12612
PL6.E3A0      #001=PSD$FEP File=PSD$FEP.:E05TSI                                  WED 07/30/97 04:27 Page:106
      537+   12613        %FEP_ENDTBL;
      538+   12620        %EJECT;
PL6.E3A0      #001=PSD$FEP File=PSD$FEP.:E05TSI                                  WED 07/30/97 04:27 Page:107
      539+   12621    1   DCL 1 PS_FEPTBL_X29   ALIGNED CONSTANT,
      540+   12622
      541+   12623        %FEP_FORM (FORM="'%/ *** X.29 statistics for handler %A '");
      542+   12631
      543+   12632        %FEP_GROUP (TITLE=
             12632            "'   -Item-                            Hndlr-to-line  Line-to-hndlr'");
      544+   12640
      545+   12641        %FEP_ITEM (ITEM=%KX_X29_KHSTT_OTPINTCNT#,SCALE=PER_MINUTE);
      546+   12652        %FEP_ITEM (ITEM=%KX_X29_KHSTT_INPINTCNT#,SCALE=PER_MINUTE);
      547+   12663        %FEP_FORM (FORM="' Interrupts/minute                         %6D         %6D'");
      548+   12671
      549+   12672        %FEP_ITEM (ITEM=%KX_X29_KHSTT_OTPINTISATIM#,SCALE=PCT_TIME);
      550+   12683        %FEP_ITEM (ITEM=%KX_X29_KHSTT_INPINTISATIM#,SCALE=PCT_TIME);
      551+   12694        %FEP_FORM (FORM=
             12694            "' %% Interrupt service time                 %4D.%2ZD        %4D.%2ZD'");
      552+   12702
      553+   12703        %FEP_ITEM (ITEM=%KX_X29_KHSTT_OTPBFRBYTUTL#,SCALE=ABS);
      554+   12714        %FEP_ITEM (ITEM=%KX_X29_KHSTT_INPBFRBYTUTL#,SCALE=ABS);
      555+   12725        %FEP_FORM (FORM="' Buffer utilization, bytes                %7D        %7D'");
      556+   12733
      557+   12734        %FEP_ITEM (ITEM=%KX_X29_KHSTT_CTXBYTUTL#,SCALE=ABS);
      558+   12745        %FEP_FORM (FORM="' Context utilization, bytes                         %7D'");
      559+   12753
      560+   12754        %FEP_ITEM (ITEM=%KX_X29_OTPBFRGETCNT_SML#,SCALE=PER_MINUTE);
      561+   12765        %FEP_ITEM (ITEM=%KX_X29_OTPBFRGETCNT_BIG#,SCALE=PER_MINUTE);
      562+   12776        %FEP_FORM (FORM=
             12776            "' Small output buffer gets/min  %6D       Large output buffer gets/min %6D'");
      563+   12784
      564+   12785        %FEP_ITEM (ITEM=%KX_X29_OTPBFRFULCNT_SML#,SCALE=PER_MINUTE);
      565+   12796        %FEP_ITEM (ITEM=%KX_X29_OTPBFRFULCNT_BIG#,SCALE=PER_MINUTE);
      566+   12807        %FEP_FORM (FORM=
             12807            "' Small output buffers full/min %6D      Large output buffers full/min %6D'");
      567+   12815
      568+   12816
      569+   12817        %FEP_ITEM (ITEM=%KX_X29_LINSPDDST#,SUBSCR=2,SCALE=ABS);
      570+   12828        %FEP_ITEM (ITEM=%KX_X29_LINSPDDST#,SUBSCR=4,CONSEC=12,SCALE=ABS);
      571+   12839        %FEP_FORM (FORM=
PL6.E3A0      #001=PSD$FEP File=PSD$FEP.:E05TSI                                  WED 07/30/97 04:27 Page:108
             12839            "'%/ Line speeds 110 150 200 300 600 1050 1200 1800 2000 2400 4800 9600 19.2'",
      572+   12840                   MORE=
             12840             "'%/              %3D %3D %3D %3D %3D  %3D  %3D  %3D  %3D  %3D  %3D  %3D %3D'"
             12840                       );
      573+   12848
      574+   12849        %FEP_ITEM (ITEM=%KX_X29_TIMEOUTS#,SCALE=PER_MINUTE);
      575+   12860        %FEP_FORM (FORM="' X.29 timeouts/minute                   %6D'");
      576+   12868
      577+   12869        %FEP_ITEM (ITEM=%KX_X29_CIRCUITS#,SCALE=ABS);
      578+   12880        %FEP_FORM (FORM="' X.29 circuits                          %6D'");
      579+   12888
      580+   12889        %FEP_ENDTBL;
      581+   12896        %EJECT;
PL6.E3A0      #001=PSD$FEP File=PSD$FEP.:E05TSI                                  WED 07/30/97 04:27 Page:109
      582+   12897    1   DCL 1 PS_FEPTBL_HDLC ALIGNED CONSTANT,
      583+   12898
      584+   12899        %FEP_ITEM (ITEM=%KX_HDLC_LINES#,SCALE=ABS);
      585+   12910        %FEP_FORM (FORM="'%/ *** HDLC statistics for handler %.8>A *** lines = %5D'");
      586+   12918
      587+   12919        %FEP_GROUP (TITLE="'   -Item-                     FEP-to-line  Line-to-FEP'");
      588+   12927
      589+   12928        %FEP_ITEM (ITEM=%KX_HDLC_OUT_TCB_COUNT#,SCALE=PER_MINUTE);
      590+   12939        %FEP_ITEM (ITEM=%KX_HDLC_IN_TCB_COUNT#,SCALE=PER_MINUTE);
      591+   12950        %FEP_FORM (FORM="' Interrupts/minute               %6D       %6D'");
      592+   12958
      593+   12959        %FEP_ITEM (ITEM=%KX_HDLC_OUT_TCB_TICS#,SCALE=PCT_TIME);
      594+   12970        %FEP_ITEM (ITEM=%KX_HDLC_IN_TCB_TICS#,SCALE=PCT_TIME);
      595+   12981        %FEP_FORM (FORM="' %% Interrupt level execution     %3D.%2ZD       %3D.%2ZD'");
      596+   12989
      597+   12990        %FEP_ITEM (ITEM=%KX_HDLC_FRAMES_OUT#,SCALE=PER_MINUTE);
      598+   13001        %FEP_ITEM (ITEM=%KX_HDLC_FRAMES_IN#,SCALE=PER_MINUTE);
      599+   13012        %FEP_FORM (FORM="' Frames/minute                   %6D       %6D'");
      600+   13020
      601+   13021        %FEP_ITEM (ITEM=%KX_HDLC_BYTES_OUT#,SCALE=PER_MINUTE);
      602+   13032        %FEP_ITEM (ITEM=%KX_HDLC_BYTES_IN#,SCALE=PER_MINUTE);
      603+   13043        %FEP_FORM (FORM="' Frame bytes/minute             %07D      %07D'");
      604+   13051
      605+   13052        %FEP_ITEM (ITEM=%KX_HDLC_BYTES_OUT#,DIVISOR=%KX_HDLC_FRAMES_OUT#,SCALE=QUOTIENT);
      606+   13063        %FEP_ITEM (ITEM=%KX_HDLC_BYTES_IN#,DIVISOR=%KX_HDLC_FRAMES_IN#,SCALE=QUOTIENT);
      607+   13074        %FEP_FORM (FORM="' Bytes/frame                     %6D       %6D'");
      608+   13082
      609+   13083        %FEP_ITEM (ITEM=%KX_HDLC_TIMEOUTS#,SCALE=PER_MINUTE);
      610+   13094        %FEP_FORM (FORM="' Frame level timeouts/minute            %6D'");
      611+   13102
      612+   13103        %FEP_ITEM (ITEM=%KX_HDLC_F_REJECTS_OUT#,SCALE=PER_MINUTE);
      613+   13114        %FEP_ITEM (ITEM=%KX_HDLC_F_REJECTS_IN#,SCALE=PER_MINUTE);
      614+   13125        %FEP_FORM (FORM="' Frame level rejects/minute      %6D       %6D'");
      615+   13133
      616+   13134        %FEP_ITEM (ITEM=%KX_HDLC_RESETS#,SCALE=PER_MINUTE);
      617+   13145        %FEP_FORM (FORM="' Frame level resets/minute              %6D'");
      618+   13153
PL6.E3A0      #001=PSD$FEP File=PSD$FEP.:E05TSI                                  WED 07/30/97 04:27 Page:110
      619+   13154        %FEP_ITEM (ITEM=%KX_HDLC_CONNECTS#,SCALE=PER_MINUTE);
      620+   13165        %FEP_FORM (FORM="' Frame connects/minute                  %6D'");
      621+   13173
      622+   13174        %FEP_ITEM (ITEM=%KX_HDLC_DISCONNECTS#,SCALE=PER_MINUTE);
      623+   13185        %FEP_FORM (FORM="' Frame disconnects/minute               %6D'");
      624+   13193
      625+   13194        %FEP_ENDTBL;
      626+   13201        %EJECT;
PL6.E3A0      #001=PSD$FEP File=PSD$FEP.:E05TSI                                  WED 07/30/97 04:27 Page:111
      627+   13202    1   DCL 1 PS_FEPTBL_X25 ALIGNED CONSTANT,
      628+   13203
      629+   13204        %FEP_ITEM (ITEM=%KX_X25_CIRCUITS#,SCALE=ABS);
      630+   13215        %FEP_FORM (FORM="'%/ *** X.25 statistics for handler %.8>A *** circuits = %5D'");
      631+   13223
      632+   13224        %FEP_GROUP (TITLE="'   -Item-                     FEP-to-line  Line-to-FEP'");
      633+   13232
      634+   13233        %FEP_ITEM (ITEM=%KX_X25_PACKETS_OUT#,SCALE=PER_MINUTE);
      635+   13244        %FEP_ITEM (ITEM=%KX_X25_PACKETS_IN#,SCALE=PER_MINUTE);
      636+   13255        %FEP_FORM (FORM="' Packets/minute                  %6D       %6D'");
      637+   13263
      638+   13264        %FEP_ITEM (ITEM=%KX_X25_BYTES_OUT#,SCALE=PER_MINUTE);
      639+   13275        %FEP_ITEM (ITEM=%KX_X25_BYTES_IN#,SCALE=PER_MINUTE);
      640+   13286        %FEP_FORM (FORM="' Bytes/minute                   %07D      %07D'");
      641+   13294
      642+   13295        %FEP_ITEM (ITEM=%KX_X25_BYTES_OUT#,DIVISOR=%KX_X25_PACKETS_OUT#,SCALE=QUOTIENT);
      643+   13306        %FEP_ITEM (ITEM=%KX_X25_BYTES_IN#,DIVISOR=%KX_X25_PACKETS_IN#,SCALE=QUOTIENT);
      644+   13317        %FEP_FORM (FORM="' Bytes/packet                    %6D       %6D'");
      645+   13325
      646+   13326        %FEP_ITEM (ITEM=%KX_X25_CALLS_OUT#,SCALE=PER_MINUTE);
      647+   13337        %FEP_ITEM (ITEM=%KX_X25_CALLS_IN#,SCALE=PER_MINUTE);
      648+   13348        %FEP_FORM (FORM="' Call packets/minute             %6D       %6D'");
      649+   13356
      650+   13357        %FEP_ITEM (ITEM=%KX_X25_CLEARS_OUT#,SCALE=PER_MINUTE);
      651+   13368        %FEP_ITEM (ITEM=%KX_X25_CLEARS_IN#,SCALE=PER_MINUTE);
      652+   13379        %FEP_FORM (FORM="' Clear packets/minute            %6D       %6D'");
      653+   13387
      654+   13388        %FEP_ITEM (ITEM=%KX_X25_D_PACKETS_OUT#,SCALE=PER_MINUTE);
      655+   13399        %FEP_ITEM (ITEM=%KX_X25_D_PACKETS_IN#,SCALE=PER_MINUTE);
      656+   13410        %FEP_FORM (FORM="' Data packets/minute             %6D       %6D'");
      657+   13418
      658+   13419        %FEP_ITEM (ITEM=%KX_X25_D_BYTES_OUT#,SCALE=PER_MINUTE);
      659+   13430        %FEP_ITEM (ITEM=%KX_X25_D_BYTES_IN#,SCALE=PER_MINUTE);
      660+   13441        %FEP_FORM (FORM="' Data bytes/minute              %07D      %07D'");
      661+   13449
      662+   13450       %FEP_ITEM (ITEM=%KX_X25_D_BYTES_OUT#,DIVISOR=%KX_X25_D_PACKETS_OUT#,SCALE=QUOTIENT);
      663+   13461        %FEP_ITEM (ITEM=%KX_X25_D_BYTES_IN#,DIVISOR=%KX_X25_D_PACKETS_IN#,SCALE=QUOTIENT);
PL6.E3A0      #001=PSD$FEP File=PSD$FEP.:E05TSI                                  WED 07/30/97 04:27 Page:112
      664+   13472        %FEP_FORM (FORM="' Data bytes/packet               %6D       %6D'");
      665+   13480
      666+   13481        %FEP_ITEM (ITEM=%KX_X25_D_CMPPACKETS_OUT#,SCALE=PER_MINUTE);
      667+   13492        %FEP_ITEM (ITEM=%KX_X25_D_CMPPACKETS_IN#,SCALE=PER_MINUTE);
      668+   13503        %FEP_FORM (FORM="' Non-continued packets/minute    %6D       %6D'");
      669+   13511
      670+   13512        %FEP_ITEM (ITEM=%KX_X25_P_FLOW_OUT#,SCALE=PER_MINUTE);
      671+   13523        %FEP_ITEM (ITEM=%KX_X25_P_FLOW_IN#,SCALE=PER_MINUTE);
      672+   13534        %FEP_FORM (FORM="' Flow packets/minute             %6D       %6D'");
      673+   13542
      674+   13543        %FEP_ITEM (ITEM=%KX_X25_RESTART_OUT#,SCALE=PER_MINUTE);
      675+   13554        %FEP_ITEM (ITEM=%KX_X25_RESTART_IN#,SCALE=PER_MINUTE);
      676+   13565        %FEP_FORM (FORM="' Packet level restarts/minute    %6D       %6D'");
      677+   13573
      678+   13574        %FEP_ITEM (ITEM=%KX_X25_P_REJECTS_OUT#,SCALE=PER_MINUTE);
      679+   13585        %FEP_ITEM (ITEM=%KX_X25_P_REJECTS_IN#,SCALE=PER_MINUTE);
      680+   13596        %FEP_FORM (FORM="' Packet level rejects/minute     %6D       %6D'");
      681+   13604
      682+   13605        %FEP_ITEM (ITEM=%KX_X25_RESETS#,SCALE=PER_MINUTE);
      683+   13616        %FEP_FORM (FORM="' Packet level resets/minute           %6D'");
      684+   13624
      685+   13625        %FEP_ITEM (ITEM=%KX_X25_P_BLK#,SCALE=PER_MINUTE);
      686+   13636        %FEP_FORM (FORM="' Packet window full/minute            %6D'");
      687+   13644
      688+   13645        %FEP_ITEM (ITEM=%KX_X25_F_BLK#,SCALE=PER_MINUTE);
      689+   13656        %FEP_FORM (FORM="' Packet blocked by frame/minute       %6D'");
      690+   13664
      691+   13665        %FEP_ITEM (ITEM=%KX_X25_KXSGET#,SCALE=PER_MINUTE);
      692+   13676        %FEP_FORM (FORM="' I/O buffer gets/minute               %6D'");
      693+   13684
      694+   13685        %FEP_ITEM (ITEM=%KX_X25_KVBGET#,SCALE=PER_MINUTE);
      695+   13696        %FEP_FORM (FORM="' I/O buddy space gets/minute          %6D'");
      696+   13704
      697+   13705        %FEP_ENDTBL;
      698+   13712        %EJECT;
PL6.E3A0      #001=PSD$FEP File=PSD$FEP.:E05TSI                                  WED 07/30/97 04:27 Page:113
      699+   13713    1   DCL 1 PS_FEPTBL_VDH ALIGNED CONSTANT,
      700+   13714        %FEP_ITEM (ITEM=%KV$STT_BFRCNT#,SUBSCR=%KV_STRTYP_VDI,SCALE=ABS);
      701+   13725        %FEP_FORM (FORM=
             13725            "'%/ *** VDH statistics for handler %.8>A *** VDI connections = %5D'");
      702+   13733
      703+   13734
      704+   13735        %FEP_ITEM (ITEM=%KV$STT_USRENTCNT#,SCALE=PER_MINUTE);
      705+   13746        %FEP_FORM (FORM="' User to VDH entry attempts       %7D'");
      706+   13754
      707+   13755        %FEP_ITEM (ITEM=%KV$STT_USRENTDFRCNT#,SCALE=PER_MINUTE);
      708+   13766        %FEP_FORM (FORM="' User to VDH entry deferrals      %7D'");
      709+   13774
      710+   13775        %FEP_ITEM (ITEM=%KV$STT_CNCEVTCNT#,SCALE=PER_MINUTE);
      711+   13786        %FEP_FORM (FORM="' Connect events                   %7D'");
      712+   13794
      713+   13795        %FEP_ITEM (ITEM=%KV$STT_SCHEXCTIM#,SCALE=PCT_TIME);
      714+   13806        %FEP_FORM (FORM="' %% Scheduled (non-interrupt) CPU   %3D.%2ZD'");
      715+   13814
      716+   13815        %FEP_GROUP (TITLE="'%/   -Item-             User-to-hndlr  Hndlr-to-line Line-to-hn
             13815        dlr Hndlr-to-user'");
      717+   13823
      718+   13824        %FEP_ITEM (ITEM=%KV$STT_RCV_VDOCNT#,SCALE=PER_MINUTE);
      719+   13835        %FEP_ITEM (ITEM=%KV$STT_SND_VDOCNT#,SCALE=PER_MINUTE);
      720+   13846        %FEP_FORM (FORM=
             13846            "' Total msgs/minute           %6D                                      %6D'");
      721+   13854
      722+   13855        %FEP_ITEM (ITEM=%KV$STT_RCV_VDOBYTCNT#,SCALE=PER_MINUTE);
      723+   13866        %FEP_ITEM (ITEM=%KV$STT_SND_VDOBYTCNT#,SCALE=PER_MINUTE);
      724+   13877        %FEP_FORM (FORM=
             13877            "' Total msg bytes/minute     %07D                                     %07D'");
      725+   13885
      726+   13886        %FEP_ITEM (ITEM=%KV$STT_RCV_VDOBYTCNT#,DIVISOR=%KV$STT_RCV_VDOCNT#,SCALE=QUOTIENT);
      727+   13897        %FEP_ITEM (ITEM=%KV$STT_SND_VDOBYTCNT#,DIVISOR=%KV$STT_SND_VDOCNT#,SCALE=QUOTIENT);
      728+   13908        %FEP_FORM (FORM=
             13908            "' Total msg bytes/msg         %6D                                      %6D'");
      729+   13916
      730+   13917        %FEP_ITEM (ITEM=%KV$STT_RCV_SSNINTDATUNTCNT#,SCALE=PER_MINUTE);
PL6.E3A0      #001=PSD$FEP File=PSD$FEP.:E05TSI                                  WED 07/30/97 04:27 Page:114
      731+   13928        %FEP_ITEM (ITEM=%KV$STT_SND_SSNINTDATUNTCNT#,SCALE=PER_MINUTE);
      732+   13939        %FEP_FORM (FORM=
             13939            "' Session msgs/minute         %6D                                      %6D'");
      733+   13947
      734+   13948        %FEP_ITEM (ITEM=%KV$STT_RCV_SSNINTDATUNTBYTCNT#,SCALE=PER_MINUTE);
      735+   13959        %FEP_ITEM (ITEM=%KV$STT_SND_SSNINTDATUNTBYTCNT#,SCALE=PER_MINUTE);
      736+   13970        %FEP_FORM (FORM=
             13970            "' Session msg bytes/minute   %07D                                     %07D'");
      737+   13978
      738+   13979       %FEP_ITEM (ITEM=%KV$STT_RCV_SSNINTDATUNTBYTCNT#,DIVISOR=%KV$STT_RCV_SSNINTDATUNTCNT#
             13979            ,SCALE=QUOTIENT);
      739+   13990       %FEP_ITEM (ITEM=%KV$STT_SND_SSNINTDATUNTBYTCNT#,DIVISOR=%KV$STT_SND_SSNINTDATUNTCNT#
             13990            ,SCALE=QUOTIENT);
      740+   14001        %FEP_FORM (FORM=
             14001            "' Session msg bytes/msg       %6D                                      %6D'");
      741+   14009
      742+   14010        %FEP_ITEM (ITEM=%KV$STT_RCV_DATVDOCNT#,SCALE=PER_MINUTE);
      743+   14021        %FEP_ITEM (ITEM=%KV$STT_SND_DATVDOCNT#,SCALE=PER_MINUTE);
      744+   14032        %FEP_FORM (FORM=
             14032            "' Data msgs(records)/minute   %6D                                      %6D'");
      745+   14040
      746+   14041        %FEP_ITEM (ITEM=%KV$STT_RCV_DATVDOBYTCNT#,SCALE=PER_MINUTE);
      747+   14052        %FEP_ITEM (ITEM=%KV$STT_SND_DATVDOBYTCNT#,SCALE=PER_MINUTE);
      748+   14063        %FEP_FORM (FORM=
             14063            "' Data msg total bytes/min   %07D                                     %07D'");
      749+   14071
      750+   14072        %FEP_ITEM (ITEM=%KV$STT_RCV_DATVDOBYTCNT#,DIVISOR=%KV$STT_RCV_DATVDOCNT#,SCALE=
             14072            QUOTIENT);
      751+   14083        %FEP_ITEM (ITEM=%KV$STT_SND_DATVDOBYTCNT#,DIVISOR=%KV$STT_SND_DATVDOCNT#,SCALE=
             14083            QUOTIENT);
      752+   14094        %FEP_FORM (FORM=
             14094            "' Data msg total bytes/msg    %6D                                      %6D'");
      753+   14102
      754+   14103        %FEP_ITEM (ITEM=%KV$STT_RCV_DATVDODATBYTCNT#,SCALE=PER_MINUTE);
      755+   14114        %FEP_ITEM (ITEM=%KV$STT_OTPCHRCNT#,SCALE=PER_MINUTE);
      756+   14125        %FEP_ITEM (ITEM=%KV$STT_INPCHRCNT#,SCALE=PER_MINUTE);
      757+   14136        %FEP_ITEM (ITEM=%KV$STT_SND_DATVDODATBYTCNT#,SCALE=PER_MINUTE);
PL6.E3A0      #001=PSD$FEP File=PSD$FEP.:E05TSI                                  WED 07/30/97 04:27 Page:115
      758+   14147        %FEP_FORM (FORM=
             14147            "' Data msg data bytes/minute %07D        %07D        %07D       %07D'");
      759+   14155
      760+   14156        %FEP_ITEM (ITEM=%KV$STT_RCV_DATVDODATBYTCNT#,DIVISOR=%KV$STT_RCV_DATVDOCNT#,SCALE=
             14156            QUOTIENT);
      761+   14167        %FEP_ITEM (ITEM=%KV$STT_OTPCHRCNT#,DIVISOR=%KV$STT_RCV_DATVDOCNT#,SCALE=QUOTIENT);
      762+   14178        %FEP_ITEM (ITEM=%KV$STT_INPCHRCNT#,DIVISOR=%KV$STT_SND_DATVDOCNT#,SCALE=QUOTIENT);
      763+   14189        %FEP_ITEM (ITEM=%KV$STT_SND_DATVDODATBYTCNT#,DIVISOR=%KV$STT_SND_DATVDOCNT#,SCALE=
             14189            QUOTIENT);
      764+   14200        %FEP_FORM (FORM=
             14200            "' Data msg data bytes/msg     %6D         %6D         %6D        %6D'");
      765+   14208
      766+   14209
      767+   14210             /* From here down is the "Long Form."  */
      768+   14211             /* branch to ADDR(NIL) if SHORT_FLAG is set. */
      769+   14212
      770+   14213    1        2 SHORT_JUMP,
      771+   14214    1             3 TYPE# SBIN BYTE UNAL INIT(%JUMP#),
      772+   14215    1             3 COND$ PTR WALIGNED INIT(ADDR(SHORT_FLAG)),
      773+   14216    1             3 PTR$ PTR WALIGNED INIT(ADDR(NIL)),
      774+   14217
      775+   14218        %FEP_GROUP (TITLE="'%/ Message function counts, per minute'",
      776+   14219                MORE="'%/ Send = VDH to network or host%/ Recv = Network or host to VDH'");
      777+   14227
      778+   14228
      779+   14229        %IF '0'B;
      881+   14331        %ENDIF;
      882+   14332
      883+   14333
      884+   14334        %FEP_GROUP (TITLE="'%/ Current buffer information by structure type'",
      885+   14335                     MORE=
             14335                      "'%/ -Structure type-     #-of-buffers  #-of-buffer-gets #-of-bytes'"
             14335                         );
      886+   14343
      887+   14344        %FEP_ITEM (ITEM=%KV$STT_BFRCNT#,SUBSCR=%KV_STRTYP_ACTCHR,SCALE=ABS);
      888+   14355        %FEP_ITEM (ITEM=%KV$STT_BFRGETCNT#,SUBSCR=%KV_STRTYP_ACTCHR,SCALE=PER_MINUTE);
      889+   14366        %FEP_ITEM (ITEM=%KV$STT_BYTUTL#,SUBSCR=%KV_STRTYP_ACTCHR,SCALE=ABS);
PL6.E3A0      #001=PSD$FEP File=PSD$FEP.:E05TSI                                  WED 07/30/97 04:27 Page:116
      890+   14377        %FEP_FORM (FORM="' Activation char           %6D          %6D        %6D'");
      891+   14385
      892+   14386        %FEP_ITEM (ITEM=%KV$STT_BFRCNT#,SUBSCR=%KV_STRTYP_DCB,SCALE=ABS);
      893+   14397        %FEP_ITEM (ITEM=%KV$STT_BFRGETCNT#,SUBSCR=%KV_STRTYP_DCB,SCALE=PER_MINUTE);
      894+   14408        %FEP_ITEM (ITEM=%KV$STT_BYTUTL#,SUBSCR=%KV_STRTYP_DCB,SCALE=ABS);
      895+   14419        %FEP_FORM (FORM="' DCB                       %6D          %6D        %6D'");
      896+   14427
      897+   14428        %FEP_ITEM (ITEM=%KV$STT_BFRCNT#,SUBSCR=%KV_STRTYP_DCBHDN,SCALE=ABS);
      898+   14439        %FEP_ITEM (ITEM=%KV$STT_BFRGETCNT#,SUBSCR=%KV_STRTYP_DCBHDN,SCALE=PER_MINUTE);
      899+   14450        %FEP_ITEM (ITEM=%KV$STT_BYTUTL#,SUBSCR=%KV_STRTYP_DCBHDN,SCALE=ABS);
      900+   14461        %FEP_FORM (FORM="' DCB heading               %6D          %6D        %6D'");
      901+   14469
      902+   14470        %FEP_ITEM (ITEM=%KV$STT_BFRCNT#,SUBSCR=%KV_STRTYP_ENTSRD,SCALE=ABS);
      903+   14481        %FEP_ITEM (ITEM=%KV$STT_BFRGETCNT#,SUBSCR=%KV_STRTYP_ENTSRD,SCALE=PER_MINUTE);
      904+   14492        %FEP_ITEM (ITEM=%KV$STT_BYTUTL#,SUBSCR=%KV_STRTYP_ENTSRD,SCALE=ABS);
      905+   14503        %FEP_FORM (FORM="' Enter-SRD string          %6D          %6D        %6D'");
      906+   14511
      907+   14512        %FEP_ITEM (ITEM=%KV$STT_BFRCNT#,SUBSCR=%KV_STRTYP_ERR,SCALE=ABS);
      908+   14523        %FEP_ITEM (ITEM=%KV$STT_BFRGETCNT#,SUBSCR=%KV_STRTYP_ERR,SCALE=PER_MINUTE);
      909+   14534        %FEP_ITEM (ITEM=%KV$STT_BYTUTL#,SUBSCR=%KV_STRTYP_ERR,SCALE=ABS);
      910+   14545        %FEP_FORM (FORM="' Error                     %6D          %6D        %6D'");
      911+   14553
      912+   14554        %FEP_ITEM (ITEM=%KV$STT_BFRCNT#,SUBSCR=%KV_STRTYP_ERD,SCALE=ABS);
      913+   14565        %FEP_ITEM (ITEM=%KV$STT_BFRGETCNT#,SUBSCR=%KV_STRTYP_ERD,SCALE=PER_MINUTE);
      914+   14576        %FEP_ITEM (ITEM=%KV$STT_BYTUTL#,SUBSCR=%KV_STRTYP_ERD,SCALE=ABS);
      915+   14587        %FEP_FORM (FORM="' Extension Real Device     %6D          %6D        %6D'");
      916+   14595
      917+   14596        %FEP_ITEM (ITEM=%KV$STT_BFRCNT#,SUBSCR=%KV_STRTYP_FLD,SCALE=ABS);
      918+   14607        %FEP_ITEM (ITEM=%KV$STT_BFRGETCNT#,SUBSCR=%KV_STRTYP_FLD,SCALE=PER_MINUTE);
      919+   14618        %FEP_ITEM (ITEM=%KV$STT_BYTUTL#,SUBSCR=%KV_STRTYP_FLD,SCALE=ABS);
      920+   14629        %FEP_FORM (FORM="' Field                     %6D          %6D        %6D'");
      921+   14637
      922+   14638        %FEP_ITEM (ITEM=%KV$STT_BFRCNT#,SUBSCR=%KV_STRTYP_FLDLST,SCALE=ABS);
      923+   14649        %FEP_ITEM (ITEM=%KV$STT_BFRGETCNT#,SUBSCR=%KV_STRTYP_FLDLST,SCALE=PER_MINUTE);
      924+   14660        %FEP_ITEM (ITEM=%KV$STT_BYTUTL#,SUBSCR=%KV_STRTYP_FLDLST,SCALE=ABS);
      925+   14671        %FEP_FORM (FORM="' Field list                %6D          %6D        %6D'");
      926+   14679
PL6.E3A0      #001=PSD$FEP File=PSD$FEP.:E05TSI                                  WED 07/30/97 04:27 Page:117
      927+   14680        %FEP_ITEM (ITEM=%KV$STT_BFRCNT#,SUBSCR=%KV_STRTYP_INPTAB,SCALE=ABS);
      928+   14691        %FEP_ITEM (ITEM=%KV$STT_BFRGETCNT#,SUBSCR=%KV_STRTYP_INPTAB,SCALE=PER_MINUTE);
      929+   14702        %FEP_ITEM (ITEM=%KV$STT_BYTUTL#,SUBSCR=%KV_STRTYP_INPTAB,SCALE=ABS);
      930+   14713        %FEP_FORM (FORM="' Input tabs                %6D          %6D        %6D'");
      931+   14721
      932+   14722        %FEP_ITEM (ITEM=%KV$STT_BFRCNT#,SUBSCR=%KV_STRTYP_LIN,SCALE=ABS);
      933+   14733        %FEP_ITEM (ITEM=%KV$STT_BFRGETCNT#,SUBSCR=%KV_STRTYP_LIN,SCALE=PER_MINUTE);
      934+   14744        %FEP_ITEM (ITEM=%KV$STT_BYTUTL#,SUBSCR=%KV_STRTYP_LIN,SCALE=ABS);
      935+   14755        %FEP_FORM (FORM="' Line                      %6D          %6D        %6D'");
      936+   14763
      937+   14764        %FEP_ITEM (ITEM=%KV$STT_BFRCNT#,SUBSCR=%KV_STRTYP_LINLST,SCALE=ABS);
      938+   14775        %FEP_ITEM (ITEM=%KV$STT_BFRGETCNT#,SUBSCR=%KV_STRTYP_LINLST,SCALE=PER_MINUTE);
      939+   14786        %FEP_ITEM (ITEM=%KV$STT_BYTUTL#,SUBSCR=%KV_STRTYP_LINLST,SCALE=ABS);
      940+   14797        %FEP_FORM (FORM="' Line list                 %6D          %6D        %6D'");
      941+   14805
      942+   14806        %FEP_ITEM (ITEM=%KV$STT_BFRCNT#,SUBSCR=%KV_STRTYP_MRD,SCALE=ABS);
      943+   14817        %FEP_ITEM (ITEM=%KV$STT_BFRGETCNT#,SUBSCR=%KV_STRTYP_MRD,SCALE=PER_MINUTE);
      944+   14828        %FEP_ITEM (ITEM=%KV$STT_BYTUTL#,SUBSCR=%KV_STRTYP_MRD,SCALE=ABS);
      945+   14839        %FEP_FORM (FORM="' Master real device        %6D          %6D        %6D'");
      946+   14847
      947+   14848        %FEP_ITEM (ITEM=%KV$STT_BFRCNT#,SUBSCR=%KV_STRTYP_MVD,SCALE=ABS);
      948+   14859        %FEP_ITEM (ITEM=%KV$STT_BFRGETCNT#,SUBSCR=%KV_STRTYP_MVD,SCALE=PER_MINUTE);
      949+   14870        %FEP_ITEM (ITEM=%KV$STT_BYTUTL#,SUBSCR=%KV_STRTYP_MVD,SCALE=ABS);
      950+   14881        %FEP_FORM (FORM="' Master virtual device     %6D          %6D        %6D'");
      951+   14889
      952+   14890        %FEP_ITEM (ITEM=%KV$STT_BFRCNT#,SUBSCR=%KV_STRTYP_MSG,SCALE=ABS);
      953+   14901        %FEP_ITEM (ITEM=%KV$STT_BFRGETCNT#,SUBSCR=%KV_STRTYP_MSG,SCALE=PER_MINUTE);
      954+   14912        %FEP_ITEM (ITEM=%KV$STT_BYTUTL#,SUBSCR=%KV_STRTYP_MSG,SCALE=ABS);
      955+   14923        %FEP_FORM (FORM="' Message                   %6D          %6D        %6D'");
      956+   14931
      957+   14932        %FEP_ITEM (ITEM=%KV$STT_BFRCNT#,SUBSCR=%KV_STRTYP_OTPTAB,SCALE=ABS);
      958+   14943        %FEP_ITEM (ITEM=%KV$STT_BFRGETCNT#,SUBSCR=%KV_STRTYP_OTPTAB,SCALE=PER_MINUTE);
      959+   14954        %FEP_ITEM (ITEM=%KV$STT_BYTUTL#,SUBSCR=%KV_STRTYP_OTPTAB,SCALE=ABS);
      960+   14965        %FEP_FORM (FORM="' Output tabs               %6D          %6D        %6D'");
      961+   14973
      962+   14974        %FEP_ITEM (ITEM=%KV$STT_BFRCNT#,SUBSCR=%KV_STRTYP_PAG,SCALE=ABS);
      963+   14985        %FEP_ITEM (ITEM=%KV$STT_BFRGETCNT#,SUBSCR=%KV_STRTYP_PAG,SCALE=PER_MINUTE);
PL6.E3A0      #001=PSD$FEP File=PSD$FEP.:E05TSI                                  WED 07/30/97 04:27 Page:118
      964+   14996        %FEP_ITEM (ITEM=%KV$STT_BYTUTL#,SUBSCR=%KV_STRTYP_PAG,SCALE=ABS);
      965+   15007        %FEP_FORM (FORM="' Page                      %6D          %6D        %6D'");
      966+   15015
      967+   15016        %FEP_ITEM (ITEM=%KV$STT_BFRCNT#,SUBSCR=%KV_STRTYP_PRM,SCALE=ABS);
      968+   15027        %FEP_ITEM (ITEM=%KV$STT_BFRGETCNT#,SUBSCR=%KV_STRTYP_PRM,SCALE=PER_MINUTE);
      969+   15038        %FEP_ITEM (ITEM=%KV$STT_BYTUTL#,SUBSCR=%KV_STRTYP_PRM,SCALE=ABS);
      970+   15049        %FEP_FORM (FORM="' Prompt                    %6D          %6D        %6D'");
      971+   15057
      972+   15058        %FEP_ITEM (ITEM=%KV$STT_BFRCNT#,SUBSCR=%KV_STRTYP_PTR,SCALE=ABS);
      973+   15069        %FEP_ITEM (ITEM=%KV$STT_BFRGETCNT#,SUBSCR=%KV_STRTYP_PTR,SCALE=PER_MINUTE);
      974+   15080        %FEP_ITEM (ITEM=%KV$STT_BYTUTL#,SUBSCR=%KV_STRTYP_PTR,SCALE=ABS);
      975+   15091        %FEP_FORM (FORM="' Pointer                   %6D          %6D        %6D'");
      976+   15099
      977+   15100        %FEP_ITEM (ITEM=%KV$STT_BFRCNT#,SUBSCR=%KV_STRTYP_REDBFR,SCALE=ABS);
      978+   15111        %FEP_ITEM (ITEM=%KV$STT_BFRGETCNT#,SUBSCR=%KV_STRTYP_REDBFR,SCALE=PER_MINUTE);
      979+   15122        %FEP_ITEM (ITEM=%KV$STT_BYTUTL#,SUBSCR=%KV_STRTYP_REDBFR,SCALE=ABS);
      980+   15133        %FEP_FORM (FORM="' Read buffer               %6D          %6D        %6D'");
      981+   15141
      982+   15142        %FEP_ITEM (ITEM=%KV$STT_BFRCNT#,SUBSCR=%KV_STRTYP_RCR,SCALE=ABS);
      983+   15153        %FEP_ITEM (ITEM=%KV$STT_BFRGETCNT#,SUBSCR=%KV_STRTYP_RCR,SCALE=PER_MINUTE);
      984+   15164        %FEP_ITEM (ITEM=%KV$STT_BYTUTL#,SUBSCR=%KV_STRTYP_RCR,SCALE=ABS);
      985+   15175        %FEP_FORM (FORM="' Record (SE)               %6D          %6D        %6D'");
      986+   15183
      987+   15184        %FEP_ITEM (ITEM=%KV$STT_BFRCNT#,SUBSCR=%KV_STRTYP_RCRLST,SCALE=ABS);
      988+   15195        %FEP_ITEM (ITEM=%KV$STT_BFRGETCNT#,SUBSCR=%KV_STRTYP_RCRLST,SCALE=PER_MINUTE);
      989+   15206        %FEP_ITEM (ITEM=%KV$STT_BYTUTL#,SUBSCR=%KV_STRTYP_RCRLST,SCALE=ABS);
      990+   15217        %FEP_FORM (FORM="' Record list (SE)          %6D          %6D        %6D'");
      991+   15225
      992+   15226        %FEP_ITEM (ITEM=%KV$STT_BFRCNT#,SUBSCR=%KV_STRTYP_SRD,SCALE=ABS);
      993+   15237        %FEP_ITEM (ITEM=%KV$STT_BFRGETCNT#,SUBSCR=%KV_STRTYP_SRD,SCALE=PER_MINUTE);
      994+   15248        %FEP_ITEM (ITEM=%KV$STT_BYTUTL#,SUBSCR=%KV_STRTYP_SRD,SCALE=ABS);
      995+   15259        %FEP_FORM (FORM="' Subordinate real device   %6D          %6D        %6D'");
      996+   15267
      997+   15268        %FEP_ITEM (ITEM=%KV$STT_BFRCNT#,SUBSCR=%KV_STRTYP_SSN,SCALE=ABS);
      998+   15279        %FEP_ITEM (ITEM=%KV$STT_BFRGETCNT#,SUBSCR=%KV_STRTYP_SSN,SCALE=PER_MINUTE);
      999+   15290        %FEP_ITEM (ITEM=%KV$STT_BYTUTL#,SUBSCR=%KV_STRTYP_SSN,SCALE=ABS);
     1000+   15301        %FEP_FORM (FORM="' Session                   %6D          %6D        %6D'");
PL6.E3A0      #001=PSD$FEP File=PSD$FEP.:E05TSI                                  WED 07/30/97 04:27 Page:119
     1001+   15309
     1002+   15310        %FEP_ITEM (ITEM=%KV$STT_BFRCNT#,SUBSCR=%KV_STRTYP_SSNHDN,SCALE=ABS);
     1003+   15321        %FEP_ITEM (ITEM=%KV$STT_BFRGETCNT#,SUBSCR=%KV_STRTYP_SSNHDN,SCALE=PER_MINUTE);
     1004+   15332        %FEP_ITEM (ITEM=%KV$STT_BYTUTL#,SUBSCR=%KV_STRTYP_SSNHDN,SCALE=ABS);
     1005+   15343        %FEP_FORM (FORM="' Session heading           %6D          %6D        %6D'");
     1006+   15351
     1007+   15352        %FEP_ITEM (ITEM=%KV$STT_BFRCNT#,SUBSCR=%KV_STRTYP_STR,SCALE=ABS);
     1008+   15363        %FEP_ITEM (ITEM=%KV$STT_BFRGETCNT#,SUBSCR=%KV_STRTYP_STR,SCALE=PER_MINUTE);
     1009+   15374        %FEP_ITEM (ITEM=%KV$STT_BYTUTL#,SUBSCR=%KV_STRTYP_STR,SCALE=ABS);
     1010+   15385        %FEP_FORM (FORM="' Stream                    %6D          %6D        %6D'");
     1011+   15393
     1012+   15394        %FEP_ITEM (ITEM=%KV$STT_BFRCNT#,SUBSCR=%KV_STRTYP_TRMTAB,SCALE=ABS);
     1013+   15405        %FEP_ITEM (ITEM=%KV$STT_BFRGETCNT#,SUBSCR=%KV_STRTYP_TRMTAB,SCALE=PER_MINUTE);
     1014+   15416        %FEP_ITEM (ITEM=%KV$STT_BYTUTL#,SUBSCR=%KV_STRTYP_TRMTAB,SCALE=ABS);
     1015+   15427        %FEP_FORM (FORM="' Terminal tabs             %6D          %6D        %6D'");
     1016+   15435
     1017+   15436        %FEP_ITEM (ITEM=%KV$STT_BFRCNT#,SUBSCR=%KV_STRTYP_TRNTBL,SCALE=ABS);
     1018+   15447        %FEP_ITEM (ITEM=%KV$STT_BFRGETCNT#,SUBSCR=%KV_STRTYP_TRNTBL,SCALE=PER_MINUTE);
     1019+   15458        %FEP_ITEM (ITEM=%KV$STT_BYTUTL#,SUBSCR=%KV_STRTYP_TRNTBL,SCALE=ABS);
     1020+   15469        %FEP_FORM (FORM="' Translate Table           %6D          %6D        %6D'");
     1021+   15477
     1022+   15478        %FEP_ITEM (ITEM=%KV$STT_BFRCNT#,SUBSCR=%KV_STRTYP_TYPAHDBFR,SCALE=ABS);
     1023+   15489        %FEP_ITEM (ITEM=%KV$STT_BFRGETCNT#,SUBSCR=%KV_STRTYP_TYPAHDBFR,SCALE=PER_MINUTE);
     1024+   15500        %FEP_ITEM (ITEM=%KV$STT_BYTUTL#,SUBSCR=%KV_STRTYP_TYPAHDBFR,SCALE=ABS);
     1025+   15511        %FEP_FORM (FORM="' Type-ahead buffer         %6D          %6D        %6D'");
     1026+   15519
     1027+   15520        %FEP_ITEM (ITEM=%KV$STT_BFRCNT#,SUBSCR=%KV_STRTYP_USRINPFNCTBL,SCALE=ABS);
     1028+   15531       %FEP_ITEM (ITEM=%KV$STT_BFRGETCNT#,SUBSCR=%KV_STRTYP_USRINPFNCTBL,SCALE=PER_MINUTE);
     1029+   15542        %FEP_ITEM (ITEM=%KV$STT_BYTUTL#,SUBSCR=%KV_STRTYP_USRINPFNCTBL,SCALE=ABS);
     1030+   15553        %FEP_FORM (FORM="' IMP or function-key table %6D          %6D        %6D'");
     1031+   15561
     1032+   15562        %FEP_ITEM (ITEM=%KV$STT_BFRCNT#,SUBSCR=%KV_STRTYP_TRCBFR,SCALE=ABS);
     1033+   15573        %FEP_ITEM (ITEM=%KV$STT_BFRGETCNT#,SUBSCR=%KV_STRTYP_TRCBFR,SCALE=PER_MINUTE);
     1034+   15584        %FEP_ITEM (ITEM=%KV$STT_BYTUTL#,SUBSCR=%KV_STRTYP_TRCBFR,SCALE=ABS);
     1035+   15595        %FEP_FORM (FORM="' VDH Trace Buffer          %6D          %6D        %6D'");
     1036+   15603
     1037+   15604        %FEP_ITEM (ITEM=%KV$STT_BFRCNT#,SUBSCR=%KV_STRTYP_USRBFR,SCALE=ABS);
PL6.E3A0      #001=PSD$FEP File=PSD$FEP.:E05TSI                                  WED 07/30/97 04:27 Page:120
     1038+   15615        %FEP_ITEM (ITEM=%KV$STT_BFRGETCNT#,SUBSCR=%KV_STRTYP_USRBFR,SCALE=PER_MINUTE);
     1039+   15626        %FEP_ITEM (ITEM=%KV$STT_BYTUTL#,SUBSCR=%KV_STRTYP_USRBFR,SCALE=ABS);
     1040+   15637        %FEP_FORM (FORM="' VDH-user buffers          %6D          %6D        %6D'");
     1041+   15645
     1042+   15646        %FEP_ITEM (ITEM=%KV$STT_BFRCNT#,SUBSCR=%KV_STRTYP_USRSHRBFR,SCALE=ABS);
     1043+   15657        %FEP_ITEM (ITEM=%KV$STT_BFRGETCNT#,SUBSCR=%KV_STRTYP_USRSHRBFR,SCALE=PER_MINUTE);
     1044+   15668        %FEP_ITEM (ITEM=%KV$STT_BYTUTL#,SUBSCR=%KV_STRTYP_USRSHRBFR,SCALE=ABS);
     1045+   15679        %FEP_FORM (FORM="' VDH-user shared buffers   %6D          %6D        %6D'");
     1046+   15687
     1047+   15688        %FEP_ITEM (ITEM=%KV$STT_BFRCNT#,SUBSCR=%KV_STRTYP_VDI,SCALE=ABS);
     1048+   15699        %FEP_ITEM (ITEM=%KV$STT_BFRGETCNT#,SUBSCR=%KV_STRTYP_VDI,SCALE=PER_MINUTE);
     1049+   15710        %FEP_ITEM (ITEM=%KV$STT_BYTUTL#,SUBSCR=%KV_STRTYP_VDI,SCALE=ABS);
     1050+   15721        %FEP_FORM (FORM="' VDI                       %6D          %6D        %6D'");
     1051+   15729
     1052+   15730        %FEP_ITEM (ITEM=%KV$STT_BFRCNT#,SUBSCR=%KV_STRTYP_VFU,SCALE=ABS);
     1053+   15741        %FEP_ITEM (ITEM=%KV$STT_BFRGETCNT#,SUBSCR=%KV_STRTYP_VFU,SCALE=PER_MINUTE);
     1054+   15752        %FEP_ITEM (ITEM=%KV$STT_BYTUTL#,SUBSCR=%KV_STRTYP_VFU,SCALE=ABS);
     1055+   15763        %FEP_FORM (FORM="' VFU                       %6D          %6D        %6D'");
     1056+   15771
     1057+   15772        %FEP_ITEM (ITEM=%KV$STT_BFRCNT#,SUBSCR=%KV_STRTYP_X364,SCALE=ABS);
     1058+   15783        %FEP_ITEM (ITEM=%KV$STT_BFRGETCNT#,SUBSCR=%KV_STRTYP_X364,SCALE=PER_MINUTE);
     1059+   15794        %FEP_ITEM (ITEM=%KV$STT_BYTUTL#,SUBSCR=%KV_STRTYP_X364,SCALE=ABS);
     1060+   15805        %FEP_FORM (FORM="' X3.64 Context             %6D          %6D        %6D'");
     1061+   15813
     1062+   15814
     1063+   15815
     1064+   15816
     1065+   15817        %FEP_GROUP (TITLE="'%/ User to VDH function counts, per minute'",
     1066+   15818                     MORE="'%/ -Function-                       -Per Minute-'");
     1067+   15826
     1068+   15827        %FEP_ITEM (ITEM=%KV$STT_VDIVDHFNCCNT#,SUBSCR=%KV_VDH_FNC_CNC,SCALE=PER_MINUTE);
     1069+   15838        %FEP_FORM (FORM="' Connect                          %7D'");
     1070+   15846
     1071+   15847        %FEP_ITEM (ITEM=%KV$STT_VDIVDHFNCCNT#,SUBSCR=%KV_VDH_FNC_DAT,SCALE=PER_MINUTE);
     1072+   15858        %FEP_FORM (FORM="' Data                             %7D'");
     1073+   15866
     1074+   15867       %FEP_ITEM (ITEM=%KV$STT_VDIVDHFNCCNT#,SUBSCR=%KV_VDH_FNC_DCLLCLPST,SCALE=PER_MINUTE)
PL6.E3A0      #001=PSD$FEP File=PSD$FEP.:E05TSI                                  WED 07/30/97 04:27 Page:121
             15867            ;
     1075+   15878        %FEP_FORM (FORM="' Declare local position           %7D'");
     1076+   15886
     1077+   15887        %FEP_ITEM (ITEM=%KV$STT_VDIVDHFNCCNT#,SUBSCR=%KV_VDH_FNC_DSC,SCALE=PER_MINUTE);
     1078+   15898        %FEP_FORM (FORM="' Disconnect                       %7D'");
     1079+   15906
     1080+   15907        %FEP_ITEM (ITEM=%KV$STT_VDIVDHFNCCNT#,SUBSCR=%KV_VDH_FNC_EVT,SCALE=PER_MINUTE);
     1081+   15918        %FEP_FORM (FORM="' Event                            %7D'");
     1082+   15926
     1083+   15927       %FEP_ITEM (ITEM=%KV$STT_VDIVDHFNCCNT#,SUBSCR=%KV_VDH_FNC_FNDINPTAB,SCALE=PER_MINUTE)
             15927            ;
     1084+   15938        %FEP_FORM (FORM="' Find input tab                   %7D'");
     1085+   15946
     1086+   15947        %FEP_ITEM (ITEM=%KV$STT_VDIVDHFNCCNT#,SUBSCR=%KV_VDH_FNC_GETBFR,SCALE=PER_MINUTE);
     1087+   15958        %FEP_FORM (FORM="' Get buffer (USRBFR/USRSHRBFR)    %7D'");
     1088+   15966
     1089+   15967        %FEP_ITEM (ITEM=%KV$STT_VDIVDHFNCCNT#,SUBSCR=%KV_VDH_FNC_INT,SCALE=PER_MINUTE);
     1090+   15978        %FEP_FORM (FORM="' Initialize                       %7D'");
     1091+   15986
     1092+   15987       %FEP_ITEM (ITEM=%KV$STT_VDIVDHFNCCNT#,SUBSCR=%KV_VDH_FNC_INTINPOPR,SCALE=PER_MINUTE)
             15987            ;
     1093+   15998        %FEP_FORM (FORM="' Interpret input operator         %7D'");
     1094+   16006
     1095+   16007        %FEP_ITEM (ITEM=%KV$STT_VDIVDHFNCCNT#,SUBSCR=%KV_VDH_FNC_OTPLCL,SCALE=PER_MINUTE);
     1096+   16018        %FEP_FORM (FORM="' Output local                     %7D'");
     1097+   16026
     1098+   16027        %FEP_ITEM (ITEM=%KV$STT_VDIVDHFNCCNT#,SUBSCR=%KV_VDH_FNC_OTPMRK,SCALE=PER_MINUTE);
     1099+   16038        %FEP_FORM (FORM="' Output marker                    %7D'");
     1100+   16046
     1101+   16047        %FEP_ITEM (ITEM=%KV$STT_VDIVDHFNCCNT#,SUBSCR=%KV_VDH_FNC_PST,SCALE=PER_MINUTE);
     1102+   16058        %FEP_FORM (FORM="' Position                         %7D'");
     1103+   16066
     1104+   16067        %FEP_ITEM (ITEM=%KV$STT_VDIVDHFNCCNT#,SUBSCR=%KV_VDH_FNC_RLSBFR,SCALE=PER_MINUTE);
     1105+   16078        %FEP_FORM (FORM="' Release buffer (USRBFR/USRSHRBFR)%7D'");
     1106+   16086
     1107+   16087        %FEP_ITEM (ITEM=%KV$STT_VDIVDHFNCCNT#,SUBSCR=%KV_VDH_FNC_RQSDAT,SCALE=PER_MINUTE);
     1108+   16098        %FEP_FORM (FORM="' Request data                     %7D'");
PL6.E3A0      #001=PSD$FEP File=PSD$FEP.:E05TSI                                  WED 07/30/97 04:27 Page:122
     1109+   16106
     1110+   16107        %FEP_ITEM (ITEM=%KV$STT_VDIVDHFNCCNT#,SUBSCR=%KV_VDH_FNC_SETPRM,SCALE=PER_MINUTE);
     1111+   16118        %FEP_FORM (FORM="' Set parameters                   %7D'");
     1112+   16126
     1113+   16127        %FEP_ITEM (ITEM=%KV$STT_VDIVDHFNCCNT#,SUBSCR=%KV_VDH_FNC_SRCINPFNCID,SCALE=
             16127            PER_MINUTE);
     1114+   16138        %FEP_FORM (FORM="' Search input function ID         %7D'");
     1115+   16146
     1116+   16147        %FEP_ITEM (ITEM=%KV$STT_VDIVDHFNCCNT#,SUBSCR=%KV_VDH_FNC_GETPRM,SCALE=PER_MINUTE);
     1117+   16158        %FEP_FORM (FORM="' Get parameter                    %7D'");
     1118+   16166
     1119+   16167        %FEP_ITEM (ITEM=%KV$STT_VDIVDHFNCCNT#,SUBSCR=%KV_VDH_FNC_SETCLK,SCALE=PER_MINUTE);
     1120+   16178        %FEP_FORM (FORM="' Set clock                        %7D'");
     1121+   16186
     1122+   16187
     1123+   16188        %FEP_GROUP (TITLE="'%/ VDH to user function counts, per minute'",
     1124+   16189                     MORE="'%/ -Function-                       -Per Minute-'");
     1125+   16197
     1126+   16198        %FEP_ITEM (ITEM=%KV$STT_VDIUSRFNCCNT#,SUBSCR=%KV_USR_FNC_DAT,SCALE=PER_MINUTE);
     1127+   16209        %FEP_FORM (FORM="' Data                             %7D'");
     1128+   16217
     1129+   16218        %FEP_ITEM (ITEM=%KV$STT_VDIUSRFNCCNT#,SUBSCR=%KV_USR_FNC_ERS,SCALE=PER_MINUTE);
     1130+   16229        %FEP_FORM (FORM="' Erase                            %7D'");
     1131+   16237
     1132+   16238        %FEP_ITEM (ITEM=%KV$STT_VDIUSRFNCCNT#,SUBSCR=%KV_USR_FNC_EVT,SCALE=PER_MINUTE);
     1133+   16249        %FEP_FORM (FORM="' Event                            %7D'");
     1134+   16257
     1135+   16258       %FEP_ITEM (ITEM=%KV$STT_VDIUSRFNCCNT#,SUBSCR=%KV_USR_FNC_GETOTPBFR,SCALE=PER_MINUTE)
             16258            ;
     1136+   16269        %FEP_FORM (FORM="' Get output buffer                %7D'");
     1137+   16277
     1138+   16278        %FEP_ITEM (ITEM=%KV$STT_VDIUSRFNCCNT#,SUBSCR=%KV_USR_FNC_GETPRM,SCALE=PER_MINUTE);
     1139+   16289        %FEP_FORM (FORM="' Get parameter                    %7D'");
     1140+   16297
     1141+   16298       %FEP_ITEM (ITEM=%KV$STT_VDIUSRFNCCNT#,SUBSCR=%KV_USR_FNC_EXTINPTRN,SCALE=PER_MINUTE)
             16298            ;
     1142+   16309        %FEP_FORM (FORM="' Extended input translation       %7D'");
PL6.E3A0      #001=PSD$FEP File=PSD$FEP.:E05TSI                                  WED 07/30/97 04:27 Page:123
     1143+   16317
     1144+   16318       %FEP_ITEM (ITEM=%KV$STT_VDIUSRFNCCNT#,SUBSCR=%KV_USR_FNC_EXTOTPTRN,SCALE=PER_MINUTE)
             16318            ;
     1145+   16329        %FEP_FORM (FORM="' Extended output translation      %7D'");
     1146+   16337
     1147+   16338        %FEP_ITEM (ITEM=%KV$STT_VDIUSRFNCCNT#,SUBSCR=%KV_USR_FNC_OTPMRK,SCALE=PER_MINUTE);
     1148+   16349        %FEP_FORM (FORM="' Output marker                    %7D'");
     1149+   16357
     1150+   16358       %FEP_ITEM (ITEM=%KV$STT_VDIUSRFNCCNT#,SUBSCR=%KV_USR_FNC_OTPRPTCHR,SCALE=PER_MINUTE)
             16358            ;
     1151+   16369        %FEP_FORM (FORM="' Output repeated character        %7D'");
     1152+   16377
     1153+   16378        %FEP_ITEM (ITEM=%KV$STT_VDIUSRFNCCNT#,SUBSCR=%KV_USR_FNC_PST,SCALE=PER_MINUTE);
     1154+   16389        %FEP_FORM (FORM="' Position                         %7D'");
     1155+   16397
     1156+   16398        %FEP_ITEM (ITEM=%KV$STT_VDIUSRFNCCNT#,SUBSCR=%KV_USR_FNC_RQSDAT,SCALE=PER_MINUTE);
     1157+   16409        %FEP_FORM (FORM="' Request data                     %7D'");
     1158+   16417
     1159+   16418        %FEP_ITEM (ITEM=%KV$STT_VDIUSRFNCCNT#,SUBSCR=%KV_USR_FNC_SETATR,SCALE=PER_MINUTE);
     1160+   16429        %FEP_FORM (FORM="' Set attributes                   %7D'");
     1161+   16437
     1162+   16438        %FEP_ITEM (ITEM=%KV$STT_VDIUSRFNCCNT#,SUBSCR=%KV_USR_FNC_SETPRM,SCALE=PER_MINUTE);
     1163+   16449        %FEP_FORM (FORM="' Set parameter                    %7D'");
     1164+   16457
     1165+   16458        %FEP_ITEM (ITEM=%KV$STT_VDIUSRFNCCNT#,SUBSCR=%KV_USR_FNC_INPPRC,SCALE=PER_MINUTE);
     1166+   16469        %FEP_FORM (FORM="' Input procedure                  %7D'");
     1167+   16477
     1168+   16478
     1169+   16479        %FEP_GROUP (TITLE="'%/ User to VDH event counts, per minute'",
     1170+   16480                     MORE="'%/ -Event-                          -Per Minute-'");
     1171+   16488
     1172+   16489       %FEP_ITEM (ITEM=%KV$STT_VDIVDHEVTCNT#,SUBSCR=%KV_VDH_EVT_ID_CMPOTP,SCALE=PER_MINUTE)
             16489            ;
     1173+   16500        %FEP_FORM (FORM="' Complete output                  %7D'");
     1174+   16508
     1175+   16509       %FEP_ITEM (ITEM=%KV$STT_VDIVDHEVTCNT#,SUBSCR=%KV_VDH_EVT_ID_RQSOTP,SCALE=PER_MINUTE)
             16509            ;
PL6.E3A0      #001=PSD$FEP File=PSD$FEP.:E05TSI                                  WED 07/30/97 04:27 Page:124
     1176+   16520        %FEP_FORM (FORM="' Request output                   %7D'");
     1177+   16528
     1178+   16529       %FEP_ITEM (ITEM=%KV$STT_VDIVDHEVTCNT#,SUBSCR=%KV_VDH_EVT_ID_RLSVDI,SCALE=PER_MINUTE)
             16529            ;
     1179+   16540        %FEP_FORM (FORM="' Release VDI                      %7D'");
     1180+   16548
     1181+   16549        %FEP_ITEM (ITEM=%KV$STT_VDIVDHEVTCNT#,SUBSCR=%KV_VDH_EVT_ID_ATN,SCALE=PER_MINUTE);
     1182+   16560        %FEP_FORM (FORM="' Attention                        %7D'");
     1183+   16568
     1184+   16569
     1185+   16570        %FEP_GROUP (TITLE="'%/ VDH to user event counts, per minute'",
     1186+   16571                     MORE="'%/ -Event-                          -Per Minute-'");
     1187+   16579
     1188+   16580        %FEP_ITEM (ITEM=%KV$STT_VDIUSREVTCNT#,SUBSCR=%KV_USR_EVT_ID_BGNSETPRM,SCALE=
             16580            PER_MINUTE);
     1189+   16591        %FEP_FORM (FORM="' Begin set parameter              %7D'");
     1190+   16599
     1191+   16600       %FEP_ITEM (ITEM=%KV$STT_VDIUSREVTCNT#,SUBSCR=%KV_USR_EVT_ID_CLKEXP,SCALE=PER_MINUTE)
             16600            ;
     1192+   16611        %FEP_FORM (FORM="' Clock expiration                 %7D'");
     1193+   16619
     1194+   16620        %FEP_ITEM (ITEM=%KV$STT_VDIUSREVTCNT#,SUBSCR=%KV_USR_EVT_ID_CLS,SCALE=PER_MINUTE);
     1195+   16631        %FEP_FORM (FORM="' Close                            %7D'");
     1196+   16639
     1197+   16640       %FEP_ITEM (ITEM=%KV$STT_VDIUSREVTCNT#,SUBSCR=%KV_USR_EVT_ID_DLTOTP,SCALE=PER_MINUTE)
             16640            ;
     1198+   16651        %FEP_FORM (FORM="' Delete output                    %7D'");
     1199+   16659
     1200+   16660        %FEP_ITEM (ITEM=%KV$STT_VDIUSREVTCNT#,SUBSCR=%KV_USR_EVT_ID_DSC,SCALE=PER_MINUTE);
     1201+   16671        %FEP_FORM (FORM="' Disconnect                       %7D'");
     1202+   16679
     1203+   16680        %FEP_ITEM (ITEM=%KV$STT_VDIUSREVTCNT#,SUBSCR=%KV_USR_EVT_ID_ENDSETPRM,SCALE=
             16680            PER_MINUTE);
     1204+   16691        %FEP_FORM (FORM="' End set parameter                %7D'");
     1205+   16699
     1206+   16700       %FEP_ITEM (ITEM=%KV$STT_VDIUSREVTCNT#,SUBSCR=%KV_USR_EVT_ID_GETSTR,SCALE=PER_MINUTE)
             16700            ;
PL6.E3A0      #001=PSD$FEP File=PSD$FEP.:E05TSI                                  WED 07/30/97 04:27 Page:125
     1207+   16711        %FEP_FORM (FORM="' Get structure                    %7D'");
     1208+   16719
     1209+   16720       %FEP_ITEM (ITEM=%KV$STT_VDIUSREVTCNT#,SUBSCR=%KV_USR_EVT_ID_HLTOTP,SCALE=PER_MINUTE)
             16720            ;
     1210+   16731        %FEP_FORM (FORM="' Halt output                      %7D'");
     1211+   16739
     1212+   16740        %FEP_ITEM (ITEM=%KV$STT_VDIUSREVTCNT#,SUBSCR=%KV_USR_EVT_ID_INHDLTOTP,SCALE=
             16740            PER_MINUTE);
     1213+   16751        %FEP_FORM (FORM="' Inhibit delete-output            %7D'");
     1214+   16759
     1215+   16760       %FEP_ITEM (ITEM=%KV$STT_VDIUSREVTCNT#,SUBSCR=%KV_USR_EVT_ID_LGNACP,SCALE=PER_MINUTE)
             16760            ;
     1216+   16771        %FEP_FORM (FORM="' Logon accept                     %7D'");
     1217+   16779
     1218+   16780       %FEP_ITEM (ITEM=%KV$STT_VDIUSREVTCNT#,SUBSCR=%KV_USR_EVT_ID_LGNRJC,SCALE=PER_MINUTE)
             16780            ;
     1219+   16791        %FEP_FORM (FORM="' Logon reject                     %7D'");
     1220+   16799
     1221+   16800        %FEP_ITEM (ITEM=%KV$STT_VDIUSREVTCNT#,SUBSCR=%KV_USR_EVT_ID_OPN,SCALE=PER_MINUTE);
     1222+   16811        %FEP_FORM (FORM="' Open                             %7D'");
     1223+   16819
     1224+   16820        %FEP_ITEM (ITEM=%KV$STT_VDIUSREVTCNT#,SUBSCR=%KV_USR_EVT_ID_OTP1_CHR,SCALE=
             16820            PER_MINUTE);
     1225+   16831        %FEP_FORM (FORM="' Output 1 character               %7D'");
     1226+   16839
     1227+   16840       %FEP_ITEM (ITEM=%KV$STT_VDIUSREVTCNT#,SUBSCR=%KV_USR_EVT_ID_RLSSTR,SCALE=PER_MINUTE)
             16840            ;
     1228+   16851        %FEP_FORM (FORM="' Release structure                %7D'");
     1229+   16859
     1230+   16860       %FEP_ITEM (ITEM=%KV$STT_VDIUSREVTCNT#,SUBSCR=%KV_USR_EVT_ID_RLSVDI,SCALE=PER_MINUTE)
             16860            ;
     1231+   16871        %FEP_FORM (FORM="' Release VDI                      %7D'");
     1232+   16879
     1233+   16880        %FEP_ITEM (ITEM=%KV$STT_VDIUSREVTCNT#,SUBSCR=%KV_USR_EVT_ID_SCH,SCALE=PER_MINUTE);
     1234+   16891        %FEP_FORM (FORM="' Schedule                         %7D'");
     1235+   16899
     1236+   16900        %FEP_ITEM (ITEM=%KV$STT_VDIUSREVTCNT#,SUBSCR=%KV_USR_EVT_ID_TRMUSRRQSDAT,SCALE=
PL6.E3A0      #001=PSD$FEP File=PSD$FEP.:E05TSI                                  WED 07/30/97 04:27 Page:126
             16900            PER_MINUTE);
     1237+   16911        %FEP_FORM (FORM="' Terminate request-data           %7D'");
     1238+   16919
     1239+   16920       %FEP_ITEM (ITEM=%KV$STT_VDIUSREVTCNT#,SUBSCR=%KV_USR_EVT_ID_VDHEXT,SCALE=PER_MINUTE)
             16920            ;
     1240+   16931        %FEP_FORM (FORM="' VDH exit                         %7D'");
     1241+   16939
     1242+   16940        %FEP_GROUP (TITLE="'%/ VDO function counts/minute                  Sent  Received'"
             16940            );
     1243+   16948
     1244+   16949        %FEP_ITEM (ITEM=%KV$STT_SNDVDOFNCCNT#,SUBSCR=%KV_VDO_FNC_BLKDAT,SCALE=PER_MINUTE);
     1245+   16960        %FEP_ITEM (ITEM=%KV$STT_RCVVDOFNCCNT#,SUBSCR=%KV_VDO_FNC_BLKDAT,SCALE=PER_MINUTE);
     1246+   16971        %FEP_FORM (FORM="' Block data (for flow control).          %8D   %8D'");
     1247+   16979
     1248+   16980       %FEP_ITEM (ITEM=%KV$STT_SNDVDOFNCCNT#,SUBSCR=%KV_VDO_FNC_CLSSSN_RQS,SCALE=PER_MINUTE
             16980            );
     1249+   16991       %FEP_ITEM (ITEM=%KV$STT_RCVVDOFNCCNT#,SUBSCR=%KV_VDO_FNC_CLSSSN_RQS,SCALE=PER_MINUTE
             16991            );
     1250+   17002        %FEP_FORM (FORM="' Close session request.                  %8D   %8D'");
     1251+   17010
     1252+   17011       %FEP_ITEM (ITEM=%KV$STT_SNDVDOFNCCNT#,SUBSCR=%KV_VDO_FNC_CLSSSN_RSP,SCALE=PER_MINUTE
             17011            );
     1253+   17022       %FEP_ITEM (ITEM=%KV$STT_RCVVDOFNCCNT#,SUBSCR=%KV_VDO_FNC_CLSSSN_RSP,SCALE=PER_MINUTE
             17022            );
     1254+   17033        %FEP_FORM (FORM="' Close session response.                 %8D   %8D'");
     1255+   17041
     1256+   17042        %FEP_ITEM (ITEM=%KV$STT_SNDVDOFNCCNT#,SUBSCR=%KV_VDO_FNC_CLSSTR,SCALE=PER_MINUTE);
     1257+   17053        %FEP_ITEM (ITEM=%KV$STT_RCVVDOFNCCNT#,SUBSCR=%KV_VDO_FNC_CLSSTR,SCALE=PER_MINUTE);
     1258+   17064        %FEP_FORM (FORM="' Close a stream.                         %8D   %8D'");
     1259+   17072
     1260+   17073        %FEP_ITEM (ITEM=%KV$STT_SNDVDOFNCCNT#,SUBSCR=%KV_VDO_FNC_DAT,SCALE=PER_MINUTE);
     1261+   17084        %FEP_ITEM (ITEM=%KV$STT_RCVVDOFNCCNT#,SUBSCR=%KV_VDO_FNC_DAT,SCALE=PER_MINUTE);
     1262+   17095        %FEP_FORM (FORM="' Data.                                   %8D   %8D'");
     1263+   17103
     1264+   17104        %FEP_ITEM (ITEM=%KV$STT_SNDVDOFNCCNT#,SUBSCR=%KV_VDO_FNC_DAT_IMD,SCALE=PER_MINUTE);
     1265+   17115        %FEP_ITEM (ITEM=%KV$STT_RCVVDOFNCCNT#,SUBSCR=%KV_VDO_FNC_DAT_IMD,SCALE=PER_MINUTE);
     1266+   17126        %FEP_FORM (FORM="' Data immediate.                         %8D   %8D'");
PL6.E3A0      #001=PSD$FEP File=PSD$FEP.:E05TSI                                  WED 07/30/97 04:27 Page:127
     1267+   17134
     1268+   17135        %FEP_ITEM (ITEM=%KV$STT_SNDVDOFNCCNT#,SUBSCR=%KV_VDO_FNC_DCLFLD,SCALE=PER_MINUTE);
     1269+   17146        %FEP_ITEM (ITEM=%KV$STT_RCVVDOFNCCNT#,SUBSCR=%KV_VDO_FNC_DCLFLD,SCALE=PER_MINUTE);
     1270+   17157        %FEP_FORM (FORM="' Declare field.                          %8D   %8D'");
     1271+   17165
     1272+   17166        %FEP_ITEM (ITEM=%KV$STT_SNDVDOFNCCNT#,SUBSCR=%KV_VDO_FNC_DCLSTR,SCALE=PER_MINUTE);
     1273+   17177        %FEP_ITEM (ITEM=%KV$STT_RCVVDOFNCCNT#,SUBSCR=%KV_VDO_FNC_DCLSTR,SCALE=PER_MINUTE);
     1274+   17188        %FEP_FORM (FORM="' Declare new stream.                     %8D   %8D'");
     1275+   17196
     1276+   17197        %FEP_ITEM (ITEM=%KV$STT_SNDVDOFNCCNT#,SUBSCR=%KV_VDO_FNC_DLT,SCALE=PER_MINUTE);
     1277+   17208        %FEP_ITEM (ITEM=%KV$STT_RCVVDOFNCCNT#,SUBSCR=%KV_VDO_FNC_DLT,SCALE=PER_MINUTE);
     1278+   17219        %FEP_FORM (FORM="' Delete.                                 %8D   %8D'");
     1279+   17227
     1280+   17228        %FEP_ITEM (ITEM=%KV$STT_SNDVDOFNCCNT#,SUBSCR=%KV_VDO_FNC_DSC_RQS,SCALE=PER_MINUTE);
     1281+   17239        %FEP_ITEM (ITEM=%KV$STT_RCVVDOFNCCNT#,SUBSCR=%KV_VDO_FNC_DSC_RQS,SCALE=PER_MINUTE);
     1282+   17250        %FEP_FORM (FORM="' Disconnect request.                     %8D   %8D'");
     1283+   17258
     1284+   17259        %FEP_ITEM (ITEM=%KV$STT_SNDVDOFNCCNT#,SUBSCR=%KV_VDO_FNC_DSC_RSP,SCALE=PER_MINUTE);
     1285+   17270        %FEP_ITEM (ITEM=%KV$STT_RCVVDOFNCCNT#,SUBSCR=%KV_VDO_FNC_DSC_RSP,SCALE=PER_MINUTE);
     1286+   17281        %FEP_FORM (FORM="' Disconnect response.                    %8D   %8D'");
     1287+   17289
     1288+   17290        %FEP_ITEM (ITEM=%KV$STT_SNDVDOFNCCNT#,SUBSCR=%KV_VDO_FNC_ERS,SCALE=PER_MINUTE);
     1289+   17301        %FEP_ITEM (ITEM=%KV$STT_RCVVDOFNCCNT#,SUBSCR=%KV_VDO_FNC_ERS,SCALE=PER_MINUTE);
     1290+   17312        %FEP_FORM (FORM="' Erase.                                  %8D   %8D'");
     1291+   17320
     1292+   17321        %FEP_ITEM (ITEM=%KV$STT_SNDVDOFNCCNT#,SUBSCR=%KV_VDO_FNC_EVT,SCALE=PER_MINUTE);
     1293+   17332        %FEP_ITEM (ITEM=%KV$STT_RCVVDOFNCCNT#,SUBSCR=%KV_VDO_FNC_EVT,SCALE=PER_MINUTE);
     1294+   17343        %FEP_FORM (FORM="' Event.                                  %8D   %8D'");
     1295+   17351
     1296+   17352        %FEP_ITEM (ITEM=%KV$STT_SNDVDOFNCCNT#,SUBSCR=%KV_VDO_FNC_HVPS,SCALE=PER_MINUTE);
     1297+   17363        %FEP_ITEM (ITEM=%KV$STT_RCVVDOFNCCNT#,SUBSCR=%KV_VDO_FNC_HVPS,SCALE=PER_MINUTE);
     1298+   17374        %FEP_FORM (FORM="' Horizontal vertical position, short.    %8D   %8D'");
     1299+   17382
     1300+   17383        %FEP_ITEM (ITEM=%KV$STT_SNDVDOFNCCNT#,SUBSCR=%KV_VDO_FNC_MRK,SCALE=PER_MINUTE);
     1301+   17394        %FEP_ITEM (ITEM=%KV$STT_RCVVDOFNCCNT#,SUBSCR=%KV_VDO_FNC_MRK,SCALE=PER_MINUTE);
     1302+   17405        %FEP_FORM (FORM="' Marker.                                 %8D   %8D'");
     1303+   17413
PL6.E3A0      #001=PSD$FEP File=PSD$FEP.:E05TSI                                  WED 07/30/97 04:27 Page:128
     1304+   17414        %FEP_ITEM (ITEM=%KV$STT_SNDVDOFNCCNT#,SUBSCR=%KV_VDO_FNC_NOP,SCALE=PER_MINUTE);
     1305+   17425        %FEP_ITEM (ITEM=%KV$STT_RCVVDOFNCCNT#,SUBSCR=%KV_VDO_FNC_NOP,SCALE=PER_MINUTE);
     1306+   17436        %FEP_FORM (FORM="' No operation.                           %8D   %8D'");
     1307+   17444
     1308+   17445       %FEP_ITEM (ITEM=%KV$STT_SNDVDOFNCCNT#,SUBSCR=%KV_VDO_FNC_OPNSSN_RQS,SCALE=PER_MINUTE
             17445            );
     1309+   17456       %FEP_ITEM (ITEM=%KV$STT_RCVVDOFNCCNT#,SUBSCR=%KV_VDO_FNC_OPNSSN_RQS,SCALE=PER_MINUTE
             17456            );
     1310+   17467        %FEP_FORM (FORM="' Open session request.                   %8D   %8D'");
     1311+   17475
     1312+   17476       %FEP_ITEM (ITEM=%KV$STT_SNDVDOFNCCNT#,SUBSCR=%KV_VDO_FNC_OPNSSN_RSP,SCALE=PER_MINUTE
             17476            );
     1313+   17487       %FEP_ITEM (ITEM=%KV$STT_RCVVDOFNCCNT#,SUBSCR=%KV_VDO_FNC_OPNSSN_RSP,SCALE=PER_MINUTE
             17487            );
     1314+   17498        %FEP_FORM (FORM="' Open session response.                  %8D   %8D'");
     1315+   17506
     1316+   17507        %FEP_ITEM (ITEM=%KV$STT_SNDVDOFNCCNT#,SUBSCR=%KV_VDO_FNC_OPNSTR,SCALE=PER_MINUTE);
     1317+   17518        %FEP_ITEM (ITEM=%KV$STT_RCVVDOFNCCNT#,SUBSCR=%KV_VDO_FNC_OPNSTR,SCALE=PER_MINUTE);
     1318+   17529        %FEP_FORM (FORM="' Open a stream.                          %8D   %8D'");
     1319+   17537
     1320+   17538        %FEP_ITEM (ITEM=%KV$STT_SNDVDOFNCCNT#,SUBSCR=%KV_VDO_FNC_PRM_RSP,SCALE=PER_MINUTE);
     1321+   17549        %FEP_ITEM (ITEM=%KV$STT_RCVVDOFNCCNT#,SUBSCR=%KV_VDO_FNC_PRM_RSP,SCALE=PER_MINUTE);
     1322+   17560        %FEP_FORM (FORM="' Parameter response.                     %8D   %8D'");
     1323+   17568
     1324+   17569        %FEP_ITEM (ITEM=%KV$STT_SNDVDOFNCCNT#,SUBSCR=%KV_VDO_FNC_PRM_SET,SCALE=PER_MINUTE);
     1325+   17580        %FEP_ITEM (ITEM=%KV$STT_RCVVDOFNCCNT#,SUBSCR=%KV_VDO_FNC_PRM_SET,SCALE=PER_MINUTE);
     1326+   17591        %FEP_FORM (FORM="' Parameters set.                         %8D   %8D'");
     1327+   17599
     1328+   17600        %FEP_ITEM (ITEM=%KV$STT_SNDVDOFNCCNT#,SUBSCR=%KV_VDO_FNC_RLSFLD,SCALE=PER_MINUTE);
     1329+   17611        %FEP_ITEM (ITEM=%KV$STT_RCVVDOFNCCNT#,SUBSCR=%KV_VDO_FNC_RLSFLD,SCALE=PER_MINUTE);
     1330+   17622        %FEP_FORM (FORM="' Release field.                          %8D   %8D'");
     1331+   17630
     1332+   17631        %FEP_ITEM (ITEM=%KV$STT_SNDVDOFNCCNT#,SUBSCR=%KV_VDO_FNC_RMS,SCALE=PER_MINUTE);
     1333+   17642        %FEP_ITEM (ITEM=%KV$STT_RCVVDOFNCCNT#,SUBSCR=%KV_VDO_FNC_RMS,SCALE=PER_MINUTE);
     1334+   17653        %FEP_FORM (FORM="' Reset mode, short.                      %8D   %8D'");
     1335+   17661
     1336+   17662        %FEP_ITEM (ITEM=%KV$STT_SNDVDOFNCCNT#,SUBSCR=%KV_VDO_FNC_RQSDAT,SCALE=PER_MINUTE);
PL6.E3A0      #001=PSD$FEP File=PSD$FEP.:E05TSI                                  WED 07/30/97 04:27 Page:129
     1337+   17673        %FEP_ITEM (ITEM=%KV$STT_RCVVDOFNCCNT#,SUBSCR=%KV_VDO_FNC_RQSDAT,SCALE=PER_MINUTE);
     1338+   17684        %FEP_FORM (FORM="' Request data.                           %8D   %8D'");
     1339+   17692
     1340+   17693        %FEP_ITEM (ITEM=%KV$STT_SNDVDOFNCCNT#,SUBSCR=%KV_VDO_FNC_RQSMRK,SCALE=PER_MINUTE);
     1341+   17704        %FEP_ITEM (ITEM=%KV$STT_RCVVDOFNCCNT#,SUBSCR=%KV_VDO_FNC_RQSMRK,SCALE=PER_MINUTE);
     1342+   17715        %FEP_FORM (FORM="' Request marker.                         %8D   %8D'");
     1343+   17723
     1344+   17724        %FEP_ITEM (ITEM=%KV$STT_SNDVDOFNCCNT#,SUBSCR=%KV_VDO_FNC_RQSPRM,SCALE=PER_MINUTE);
     1345+   17735        %FEP_ITEM (ITEM=%KV$STT_RCVVDOFNCCNT#,SUBSCR=%KV_VDO_FNC_RQSPRM,SCALE=PER_MINUTE);
     1346+   17746        %FEP_FORM (FORM="' Request parameters.                     %8D   %8D'");
     1347+   17754
     1348+   17755        %FEP_ITEM (ITEM=%KV$STT_SNDVDOFNCCNT#,SUBSCR=%KV_VDO_FNC_RQSSTT,SCALE=PER_MINUTE);
     1349+   17766        %FEP_ITEM (ITEM=%KV$STT_RCVVDOFNCCNT#,SUBSCR=%KV_VDO_FNC_RQSSTT,SCALE=PER_MINUTE);
     1350+   17777        %FEP_FORM (FORM="' Request status.                         %8D   %8D'");
     1351+   17785
     1352+   17786        %FEP_ITEM (ITEM=%KV$STT_SNDVDOFNCCNT#,SUBSCR=%KV_VDO_FNC_SLCFLD,SCALE=PER_MINUTE);
     1353+   17797        %FEP_ITEM (ITEM=%KV$STT_RCVVDOFNCCNT#,SUBSCR=%KV_VDO_FNC_SLCFLD,SCALE=PER_MINUTE);
     1354+   17808        %FEP_FORM (FORM="' Select field.                           %8D   %8D'");
     1355+   17816
     1356+   17817       %FEP_ITEM (ITEM=%KV$STT_SNDVDOFNCCNT#,SUBSCR=%KV_VDO_FNC_SLCGRPRND,SCALE=PER_MINUTE)
             17817            ;
     1357+   17828       %FEP_ITEM (ITEM=%KV$STT_RCVVDOFNCCNT#,SUBSCR=%KV_VDO_FNC_SLCGRPRND,SCALE=PER_MINUTE)
             17828            ;
     1358+   17839        %FEP_FORM (FORM="' Select graphic rendition.               %8D   %8D'");
     1359+   17847
     1360+   17848        %FEP_ITEM (ITEM=%KV$STT_SNDVDOFNCCNT#,SUBSCR=%KV_VDO_FNC_SLCQLF,SCALE=PER_MINUTE);
     1361+   17859        %FEP_ITEM (ITEM=%KV$STT_RCVVDOFNCCNT#,SUBSCR=%KV_VDO_FNC_SLCQLF,SCALE=PER_MINUTE);
     1362+   17870        %FEP_FORM (FORM="' Select qualification.                   %8D   %8D'");
     1363+   17878
     1364+   17879        %FEP_ITEM (ITEM=%KV$STT_SNDVDOFNCCNT#,SUBSCR=%KV_VDO_FNC_SMS,SCALE=PER_MINUTE);
     1365+   17890        %FEP_ITEM (ITEM=%KV$STT_RCVVDOFNCCNT#,SUBSCR=%KV_VDO_FNC_SMS,SCALE=PER_MINUTE);
     1366+   17901        %FEP_FORM (FORM="' Set mode, short.                        %8D   %8D'");
     1367+   17909
     1368+   17910        %FEP_ITEM (ITEM=%KV$STT_SNDVDOFNCCNT#,SUBSCR=%KV_VDO_FNC_STT,SCALE=PER_MINUTE);
     1369+   17921        %FEP_ITEM (ITEM=%KV$STT_RCVVDOFNCCNT#,SUBSCR=%KV_VDO_FNC_STT,SCALE=PER_MINUTE);
     1370+   17932        %FEP_FORM (FORM="' Status response.                        %8D   %8D'");
     1371+   17940
PL6.E3A0      #001=PSD$FEP File=PSD$FEP.:E05TSI                                  WED 07/30/97 04:27 Page:130
     1372+   17941       %FEP_ITEM (ITEM=%KV$STT_SNDVDOFNCCNT#,SUBSCR=%KV_VDO_FNC_UPDRELDVC,SCALE=PER_MINUTE)
             17941            ;
     1373+   17952       %FEP_ITEM (ITEM=%KV$STT_RCVVDOFNCCNT#,SUBSCR=%KV_VDO_FNC_UPDRELDVC,SCALE=PER_MINUTE)
             17952            ;
     1374+   17963        %FEP_FORM (FORM="' Update real device.                     %8D   %8D'");
     1375+   17971
     1376+   17972        %FEP_ENDTBL;
     1377+   17979    1   DCL 1 PS_FEPTBL_FEI ALIGNED CONSTANT,
     1378+   17980
     1379+   17981        %FEP_FORM (FORM="'%/ *** FEI statistics for handler %.8>A ***'");
     1380+   17989
     1381+   17990        %FEP_GROUP (TITLE="'    -Item-                    -to host-   -from host-'");
     1382+   17998        %FEP_ITEM (ITEM=%KJ_FEI_USRSTT_INPINTCNT#,SCALE=PER_MINUTE);
     1383+   18009        %FEP_ITEM (ITEM=%KJ_FEI_USRSTT_OTPINTCNT#,SCALE=PER_MINUTE);
     1384+   18020        %FEP_FORM (FORM="' Interrupts/minute               %6D        %6D'");
     1385+   18028
     1386+   18029        %FEP_ITEM (ITEM=%KJ_FEI_USRSTT_INPINTISATIM#,SCALE=PCT_TIME);
     1387+   18040        %FEP_FORM (FORM="' %% Interrupt service time              %4D.%2ZD'");
     1388+   18048
     1389+   18049        %FEP_ITEM (ITEM=%KJ_FEI_USRSTT_INPBFRBYTUTL#,SCALE=ABS);
     1390+   18060        %FEP_ITEM (ITEM=%KJ_FEI_USRSTT_OTPBFRBYTUTL#,SCALE=ABS);
     1391+   18071        %FEP_FORM (FORM="' Buffer utilization, bytes      %7D       %7D'");
     1392+   18079
     1393+   18080        %FEP_ITEM (ITEM=%KJ_FEI_USRSTT_CTXBYTUTL#,SCALE=ABS);
     1394+   18091        %FEP_FORM (FORM="' Context utilization, bytes     %7X       %7D'");
     1395+   18099
     1396+   18100        %FEP_ITEM (ITEM=%KJ_FEI_ICQ_MSGS#,SCALE=PER_MINUTE);
     1397+   18111        %FEP_ITEM (ITEM=%KJ_FEI_OCQ_MSGS#,SCALE=PER_MINUTE);
     1398+   18122        %FEP_FORM (FORM="' Circular buffer messages/min   %7D       %7D'");
     1399+   18130
     1400+   18131        %FEP_ITEM (ITEM=%KJ_FEI_ICQ_MBC#,SCALE=PER_MINUTE);
     1401+   18142        %FEP_ITEM (ITEM=%KJ_FEI_OCQ_MBC#,SCALE=PER_MINUTE);
     1402+   18153        %FEP_FORM (FORM="' Circular buffer bytes/min      %7D       %7D'");
     1403+   18161
     1404+   18162        %FEP_ITEM (ITEM=%KJ_FEI_DCW_ABRT#,SCALE=PER_MINUTE);
     1405+   18173        %FEP_FORM (FORM="' Dcw aborts/minute              %7X       %7D'");
     1406+   18181
PL6.E3A0      #001=PSD$FEP File=PSD$FEP.:E05TSI                                  WED 07/30/97 04:27 Page:131
     1407+   18182        %FEP_ITEM (ITEM=%KJ_FEI_SCHXEQTIM#,SCALE=PCT_TIME);
     1408+   18193        %FEP_FORM (FORM="' %% Scheduled execution time            %4D.%2ZD'");
     1409+   18201
     1410+   18202        %FEP_ITEM (ITEM=%KJ_FEI_DATAFNC_RUOK#,SCALE=PER_MINUTE);
     1411+   18213        %FEP_FORM (FORM="' Fep okay functions/minute      %7X       %7D'");
     1412+   18221
     1413+   18222        %FEP_ITEM (ITEM=%KJ_FEI_DATAFNC_ODATA#,SCALE=PER_MINUTE);
     1414+   18233        %FEP_FORM (FORM="' Output functions/minute        %7X       %7D'");
     1415+   18241
     1416+   18242        %FEP_ITEM (ITEM=%KJ_FEI_DATAFNC_NOP#,SCALE=PER_MINUTE);
     1417+   18253        %FEP_FORM (FORM="' Nop functions/minute           %7X       %7D'");
     1418+   18261
     1419+   18262        %FEP_ITEM (ITEM=%KJ_FEI_DATAFNC_TIM#,SCALE=PER_MINUTE);
     1420+   18273        %FEP_FORM (FORM="' Time functions/minute          %7X       %7D'");
     1421+   18281
     1422+   18282        %FEP_ENDTBL;
      261    18289        %EJECT;
PL6.E3A0      #001=PSD$FEP File=PSD$FEP.:E05TSI                                  WED 07/30/97 04:27 Page:132
      262    18290    1   DCL 1 FEP_DISPLAY_TBL CONSTANT ALIGNED,
      263    18291    1          2 * UBIN INIT(%KH#ENTID_MONITOR),
      264    18292    1          2 * PTR INIT(ADDR(PS_FEPTBL_MONITOR)),
      265    18293    1          2 * UBIN INIT(%KH#ENTID_ASYNC),
      266    18294    1          2 * PTR INIT(ADDR(PS_FEPTBL_ASYNC)),
      267    18295    1          2 * UBIN INIT(%KH#ENTID_HDLC),
      268    18296    1          2 * PTR INIT(ADDR(PS_FEPTBL_HDLC)),
      269    18297    1          2 * UBIN INIT(%KH#ENTID_X29),
      270    18298    1          2 * PTR INIT(ADDR(PS_FEPTBL_X29)),
      271    18299    1          2 * UBIN INIT(%KH#ENTID_URP),
      272    18300    1          2 * PTR INIT(ADDR(PS_FEPTBL_URP)),
      273    18301    1          2 * UBIN INIT(%KH#ENTID_3270),
      274    18302    1          2 * PTR INIT(ADDR(PS_FEPTBL_3270)),
      275    18303    1          2 * UBIN INIT(%KH#ENTID_RBT),
      276    18304    1          2 * PTR INIT(ADDR(PS_FEPTBL_RBT)),
      277    18305    1          2 * UBIN INIT(%KH#ENTID_X25),
      278    18306    1          2 * PTR INIT(ADDR(PS_FEPTBL_X25)),
      279    18307    1          2 * SBIN INIT(%KH#ENTID_PLDVIP),
      280    18308    1          2 * PTR INIT(ADDR(PS_FEPTBL_PLDVIP)),
      281    18309    1          2 * UBIN INIT(%KH#ENTID_VDH),
      282    18310    1          2 * PTR INIT(ADDR(PS_FEPTBL_VDH)),
      283    18311    1          2 * UBIN INIT(%KH#ENTID_FEI),
      284    18312    1          2 * PTR INIT(ADDR(PS_FEPTBL_FEI)),
      285    18313    1          2 *(0:7) UBIN INIT(0*0);
      286    18314
      287    18315    1   DCL 1 FEP_TABLE(0:14) REDEF FEP_DISPLAY_TBL,
      288    18316    1          2 ENTID UBIN,
      289    18317    1          2 TBLPTR$ PTR;
      290    18318        %EJECT;
PL6.E3A0      #001=PSD$FEP File=PSD$FEP.:E05TSI                                  WED 07/30/97 04:27 Page:133
      291    18319
      292    18320    1   DCL 1 FEP_ITEM WALIGNED BASED (TABLE$),
      293    18321    1          2 TYPE# SBIN BYTE CALIGNED,
      294    18322    1          2 SCALE# SBIN BYTE CALIGNED,
      295    18323    1          2 CONSEC# SBIN BYTE CALIGNED,
      296    18324    1          2 SLCT# SBIN BYTE CALIGNED,
      297    18325    1          2 DISP# SBIN BYTE CALIGNED,
      298    18326    1          2 OFFSET# SBIN (18) CALIGNED,
      299    18327    1          2 DIVISOR# SBIN BYTE CALIGNED;
      300    18328
      301    18329    1   DCL 1 FEP_FORM WALIGNED BASED (TABLE$),
      302    18330    1          2 TYPE# SBIN BYTE UNAL,
      303    18331    1          2 LEN# SBIN BYTE UNAL,
      304    18332    1          2 FORM# CHAR(FEP_FORM.LEN#) UNAL;
      305    18333
      306    18334    1   DCL 1 FEP_GROUP WALIGNED BASED (GROUP_HEAD$),
      307    18335    1          2 TYPE# SBIN BYTE UNAL,
      308    18336    1          2 LEN# SBIN BYTE UNAL,
      309    18337    1          2 TITLE# CHAR(FEP_GROUP.LEN#) UNAL;
      310    18338
      311    18339    1   DCL 1 FEP_JUMP WALIGNED BASED (TABLE$),
      312    18340    1          2 TYPE# SBIN BYTE UNAL,
      313    18341    1          2 CONDITION$ PTR WALIGNED,
      314    18342    1          2 PTR$ PTR WALIGNED;
      315    18343
      316    18344        %EJECT;
PL6.E3A0      #001=PSD$FEP File=PSD$FEP.:E05TSI                                  WED 07/30/97 04:27 Page:134
      317    18345    1   LOCATE: PROC (P, SEGSIZE, ENT) ALTRET;

  18345 13 000003   205010 741300       LOCATE       STX1  ! FEPD+208,,AUTO

      318    18346
      319    18347    2   DCL SEGSIZE UBIN;
      320    18348    2   DCL 1 P ALIGNED,
      321    18349    2          2 PTR$ PTR,
      322    18350    2          2 PTR_ REDEF PTR$,
      323    18351    2             3 BASE# UBIN(20) UNAL,
      324    18352    2             3 * UBIN(4) UNAL,
      325    18353    2             3 SEGID# BIT(12);
      326    18354    2   DCL ENT UBIN;
      327    18355
      328    18356    2   DCL ANOTHER BIT(1) ALIGNED;
      329    18357
      330    18358    2      ANOTHER = LOCATE_ANOTHER;

  18358 13 000004   000046 236000 11                 LDQ     LOCATE_ANOTHER
        13 000005   400000 376003                    ANQ     -131072,DU
        13 000006   205014 756100                    STQ     ANOTHER,,AUTO

      331    18359
      332    18360    3      IF P.PTR$~=ADDR(NIL) THEN DO;

  18360 13 000007   205011 470500                    LDP0    @P,,AUTO
        13 000010   000000 236100                    LDQ     0,,PR0
        13 000011   000001 116000 xsym               CMPQ    B_VECTNIL+1
        13 000012   000060 600000 13                 TZE     s:18378

      333    18361
      334    18362    4         DO WHILE P.PTR$->PS_FEPSTATS.NODE_NUM ~= PS_FEPNO

  18362 13 000013   000032 710000 13                 TRA     s:18376

      335    18363    4           OR NOT P.PTR$->PS_FEPSTATS.DISP.BITS(ENT)
      336    18364    4           OR P.PTR$->PS_FEPSTATS.HANDLER ~= FEP$->PS_FEPSTATS.HANDLER
PL6.E3A0      #001=PSD$FEP File=PSD$FEP.:E05TSI                                  WED 07/30/97 04:27 Page:135
      337    18365    4           OR P.PTR$->PS_FEPSTATS.SLCT ~= FEP$->PS_FEPSTATS.SLCT
      338    18366    4           OR ANOTHER;
      339    18367    4            IF P.PTR$->PS_FEPSTATS.WORDS = 0

  18367 13 000014   205011 470500                    LDP0    @P,,AUTO
        13 000015   000000 471500                    LDP1    0,,PR0
        13 000016   100002 235100                    LDA     2,,PR1
        13 000017   000022 600000 13                 TZE     s:18370
        13 000020   100000 234100                    SZN     0,,PR1
        13 000021   000026 605000 13                 TPL     s:18373

      340    18368    4              OR P.PTR$->PS_FEPSTATS.FINAL
      341    18369    5            THEN DO;

      342    18370    5               P.PTR$ = ADDR(NIL);

  18370 13 000022   000001 236000 xsym               LDQ     B_VECTNIL+1
        13 000023   000000 756100                    STQ     0,,PR0

      343    18371    5               ALTRETURN;

  18371 13 000024   205010 221300                    LDX1  ! FEPD+208,,AUTO
        13 000025   000000 702211                    TSX2  ! 0,X1

      344    18372    5            END; ELSE DO;

      345    18373    5               P.PTR$ = PINCRW(P.PTR$, P.PTR$->PS_FEPSTATS.WORDS);

  18373 13 000026   100002 720100                    LXL0    2,,PR1
        13 000027   100000 633510                    EPPR3   0,X0,PR1
        13 000030   000000 453500                    STP3    0,,PR0

      346    18374    5               ANOTHER = '0'B;

  18374 13 000031   205014 450100                    STZ     ANOTHER,,AUTO

      347    18375    5            END;
PL6.E3A0      #001=PSD$FEP File=PSD$FEP.:E05TSI                                  WED 07/30/97 04:27 Page:136

      348    18376    4         END;

  18376 13 000032   000000 471500                    LDP1    0,,PR0
        13 000033   100000 236100                    LDQ     0,,PR1
        13 000034   000022 772000                    QRL     18
        13 000035   000777 376007                    ANQ     511,DL
        13 000036   000000 116000 xsym               CMPQ    PS_FEPNO
        13 000037   000014 601000 13                 TNZ     s:18367
        13 000040   205013 473500                    LDP3    @ENT,,AUTO
        13 000041   300000 235100                    LDA     0,,PR3
        13 000042   000000 066505                    CMPB    filb='0'B
        13 000043   100010 040001                    BDSC    8,A,PR1                  by=0,bit=4,n=1
        13 000044   000002 000022 xsym               BDSC    B_VECTNIL+2              by=0,bit=0,n=18
        13 000045   000014 600000 13                 TZE     s:18367
        13 000046   200024 474500                    LDP4    FEP$,,AUTO
        13 000047   040100 106500                    CMPC    fill='040'O
        13 000050   100006 000010                    ADSC9   6,,PR1                   cn=0,n=8
        13 000051   400006 000010                    ADSC9   6,,PR4                   cn=0,n=8
        13 000052   000014 601000 13                 TNZ     s:18367
        13 000053   100011 236100                    LDQ     9,,PR1
        13 000054   400011 116100                    CMPQ    9,,PR4
        13 000055   000014 601000 13                 TNZ     s:18367
        13 000056   205014 234100                    SZN     ANOTHER,,AUTO
        13 000057   000014 604000 13                 TMI     s:18367

      349    18377    3      END;

      350    18378    2      RETURN;

  18378 13 000060   205010 221300                    LDX1  ! FEPD+208,,AUTO
        13 000061   000001 702211                    TSX2  ! 1,X1

      351    18379    2   END LOCATE;
      352    18380
      353    18381        %EJECT;
PL6.E3A0      #001=PSD$FEP File=PSD$FEP.:E05TSI                                  WED 07/30/97 04:27 Page:137
      354    18382    1   SETUP: PROC (NEW, OLD, OFFSET, DEFAULT);

  18382 13 000062   205010 741300       SETUP        STX1  ! FEPD+208,,AUTO

      355    18383
      356    18384    2   DCL NEW UBIN;
      357    18385    2   DCL OLD UBIN;
      358    18386    2   DCL DEFAULT UBIN;
      359    18387
      360    18388    2   DCL OFFSET SBIN;
      361    18389
      362    18390    2      IF FEP$ = ADDR(NIL) OR OFFSET=0 OR OFFSET>FEP$->PS_FEPSTATS.WORDS

  18390 13 000063   200024 236100                    LDQ     FEP$,,AUTO
        13 000064   000001 116000 xsym               CMPQ    B_VECTNIL+1
        13 000065   000076 600000 13                 TZE     s:18393
        13 000066   205013 470500                    LDP0    @OFFSET,,AUTO
        13 000067   000000 235100                    LDA     0,,PR0
        13 000070   000076 600000 13                 TZE     s:18393
        13 000071   200024 471500                    LDP1    FEP$,,AUTO
        13 000072   100002 236100                    LDQ     2,,PR1
        13 000073   000106 604000 13                 TMI     s:18398
        13 000074   000000 116100                    CMPQ    0,,PR0
        13 000075   000106 605000 13                 TPL     s:18398

      363    18391    3      THEN DO;

      364    18392
      365    18393    3         NEW = DEFAULT;

  18393 13 000076   205014 470500                    LDP0    @DEFAULT,,AUTO
        13 000077   205011 471500                    LDP1    @NEW,,AUTO
        13 000100   000000 235100                    LDA     0,,PR0
        13 000101   100000 755100                    STA     0,,PR1

      366    18394    3         OLD = 0;

PL6.E3A0      #001=PSD$FEP File=PSD$FEP.:E05TSI                                  WED 07/30/97 04:27 Page:138
  18394 13 000102   205012 473500                    LDP3    @OLD,,AUTO
        13 000103   300000 450100                    STZ     0,,PR3

      367    18395    3         RETURN;

  18395 13 000104   205010 221300                    LDX1  ! FEPD+208,,AUTO
        13 000105   000001 702211                    TSX2  ! 1,X1

      368    18396    3      END;
      369    18397
      370    18398    3      IF OFFSET>0 THEN DO;

  18398 13 000106   000000 115003                    CMPA    0,DU
        13 000107   000130 604400 13                 TMOZ    s:18410

      371    18399
      372    18400    3         NEW = FEP$->UBIN_(OFFSET);

  18400 13 000110   000000 720100                    LXL0    0,,PR0
        13 000111   205011 473500                    LDP3    @NEW,,AUTO
        13 000112   100000 235110                    LDA     0,X0,PR1
        13 000113   300000 755100                    STA     0,,PR3

      373    18401
      374    18402    3         IF OLD_FEP$ = ADDR(NIL)

  18402 13 000114   200025 236100                    LDQ     OLD_FEP$,,AUTO
        13 000115   000001 116000 xsym               CMPQ    B_VECTNIL+1
        13 000116   000122 601000 13                 TNZ     s:18406

      375    18403    3         THEN
      376    18404    3         OLD = 0;

  18404 13 000117   205012 471500                    LDP1    @OLD,,AUTO
        13 000120   100000 450100                    STZ     0,,PR1
        13 000121   000142 710000 13                 TRA     s:18414

PL6.E3A0      #001=PSD$FEP File=PSD$FEP.:E05TSI                                  WED 07/30/97 04:27 Page:139
      377    18405    3         ELSE
      378    18406    3         OLD = OLD_FEP$->UBIN_(OFFSET);

  18406 13 000122   000000 720100                    LXL0    0,,PR0
        13 000123   200025 471500                    LDP1    OLD_FEP$,,AUTO
        13 000124   205012 474500                    LDP4    @OLD,,AUTO
        13 000125   100000 235110                    LDA     0,X0,PR1
        13 000126   400000 755100                    STA     0,,PR4

      379    18407
      380    18408    3      END;

  18408 13 000127   000142 710000 13                 TRA     s:18414

      381    18409    3      ELSE DO;

      382    18410    3         NEW = ADDR(FEPTEMP)->UBIN_(-OFFSET);

  18410 13 000130   000000 235100                    LDA     0,,PR0
        13 000131   000000 531000                    NEG     0
        13 000132   205011 473500                    LDP3    @NEW,,AUTO
        13 000133   000070 235005 11                 LDA     FEPTEMP,AL
        13 000134   300000 755100                    STA     0,,PR3

      383    18411    3         OLD = ADDR(OLD_FEPTEMP)->UBIN_(-OFFSET);

  18411 13 000135   000000 235100                    LDA     0,,PR0
        13 000136   000000 531000                    NEG     0
        13 000137   205012 471500                    LDP1    @OLD,,AUTO
        13 000140   000145 235005 11                 LDA     OLD_FEPTEMP,AL
        13 000141   100000 755100                    STA     0,,PR1

      384    18412    3      END;

      385    18413
      386    18414    2      RETURN;

PL6.E3A0      #001=PSD$FEP File=PSD$FEP.:E05TSI                                  WED 07/30/97 04:27 Page:140
  18414 13 000142   205010 221300                    LDX1  ! FEPD+208,,AUTO
        13 000143   000001 702211                    TSX2  ! 1,X1

      387    18415    2   END SETUP;
      388    18416
      389    18417        %EJECT;
PL6.E3A0      #001=PSD$FEP File=PSD$FEP.:E05TSI                                  WED 07/30/97 04:27 Page:141
      390    18418    1   SET_ITEM: PROC( A_ITEM );

  18418 13 000144   205010 741300       SET_ITEM     STX1  ! FEPD+208,,AUTO

      391    18419
      392    18420    2   DCL A_ITEM UBIN;
      393    18421
      394    18422    2      IF A_ITEM~=0 THEN ITEM_FLAG = %YES#;

  18422 13 000145   205011 470500                    LDP0    @A_ITEM,,AUTO
        13 000146   000000 235100                    LDA     0,,PR0
        13 000147   000152 600000 13                 TZE     s:18424

  18422 13 000150   400000 236003                    LDQ     -131072,DU
        13 000151   200037 756100                    STQ     ITEM_FLAG,,AUTO

      395    18423
      396    18424    2      CURRENT_ITEM(ITEM_COUNT) = A_ITEM;

  18424 13 000152   200040 720100                    LXL0    ITEM_COUNT,,AUTO
        13 000153   200042 755110                    STA     CURRENT_ITEM,X0,AUTO

      397    18425    2      ITEM_COUNT = ITEM_COUNT + 1;

  18425 13 000154   200040 236100                    LDQ     ITEM_COUNT,,AUTO
        13 000155   000001 036007                    ADLQ    1,DL
        13 000156   200040 756100                    STQ     ITEM_COUNT,,AUTO

      398    18426    2      ITEM_BYTE_COUNT = 4 * ITEM_COUNT;

  18426 13 000157   200040 235100                    LDA     ITEM_COUNT,,AUTO
        13 000160   000002 735000                    ALS     2
        13 000161   200041 755100                    STA     ITEM_BYTE_COUNT,,AUTO

      399    18427
      400    18428    2      RETURN;

PL6.E3A0      #001=PSD$FEP File=PSD$FEP.:E05TSI                                  WED 07/30/97 04:27 Page:142
  18428 13 000162   205010 221300                    LDX1  ! FEPD+208,,AUTO
        13 000163   000001 702211                    TSX2  ! 1,X1

      401    18429    2   END SET_ITEM;
      402    18430        %EJECT;
PL6.E3A0      #001=PSD$FEP File=PSD$FEP.:E05TSI                                  WED 07/30/97 04:27 Page:143
      403    18431    1   CRUNCH: PROC (RESULT, ITEM, DIVISOR, TICS, TICS_PER_UNIT);

  18431 13 000164   205010 741300       CRUNCH       STX1  ! FEPD+208,,AUTO

      404    18432
      405    18433    2   DCL RESULT SBIN;
      406    18434    2   DCL ITEM SBIN;
      407    18435    2   DCL DIVISOR SBIN;
      408    18436    2   DCL TICS SBIN;
      409    18437    2   DCL TICS_PER_UNIT SBIN;
      410    18438
      411    18439    2      IF (DIVISOR*TICS)=0

  18439 13 000165   205013 470500                    LDP0    @DIVISOR,,AUTO
        13 000166   205014 471500                    LDP1    @TICS,,AUTO
        13 000167   000000 236100                    LDQ     0,,PR0
        13 000170   100000 402100                    MPY     0,,PR1
        13 000171   000000 116003                    CMPQ    0,DU
        13 000172   000176 601000 13                 TNZ     s:18441

      412    18440    2      THEN RESULT=0;

  18440 13 000173   205011 473500                    LDP3    @RESULT,,AUTO
        13 000174   300000 450100                    STZ     0,,PR3
        13 000175   000246 710000 13                 TRA     s:18448

      413    18441    2      ELSE IF TICS < TICS_PER_UNIT * 100

  18441 13 000176   205015 473500                    LDP3    @TICS_PER_UNIT,,AUTO
        13 000177   300000 236100                    LDQ     0,,PR3
        13 000200   000144 402007                    MPY     100,DL
        13 000201   100000 116100                    CMPQ    0,,PR1
        13 000202   000235 604400 13                 TMOZ    s:18446

      414    18442    2      THEN IF (ITEM * TICS_PER_UNIT) / TICS_PER_UNIT = ITEM

  18442 13 000203   205012 474500                    LDP4    @ITEM,,AUTO
PL6.E3A0      #001=PSD$FEP File=PSD$FEP.:E05TSI                                  WED 07/30/97 04:27 Page:144
        13 000204   400000 236100                    LDQ     0,,PR4
        13 000205   300000 402100                    MPY     0,,PR3
        13 000206   300000 506100                    DIV     0,,PR3
        13 000207   400000 116100                    CMPQ    0,,PR4
        13 000210   000224 601000 13                 TNZ     s:18444

      415    18443    2      THEN RESULT = (ITEM * TICS_PER_UNIT) / (DIVISOR * TICS);

  18443 13 000211   400000 236100                    LDQ     0,,PR4
        13 000212   300000 402100                    MPY     0,,PR3
        13 000213   205020 756100                    STQ     TEMPCHAR+2,,AUTO
        13 000214   000000 236100                    LDQ     0,,PR0
        13 000215   100000 402100                    MPY     0,,PR1
        13 000216   205021 756100                    STQ     TEMPCHAR+3,,AUTO
        13 000217   205020 236100                    LDQ     TEMPCHAR+2,,AUTO
        13 000220   205021 506100                    DIV     TEMPCHAR+3,,AUTO
        13 000221   205011 475500                    LDP5    @RESULT,,AUTO
        13 000222   500000 756100                    STQ     0,,PR5
        13 000223   000246 710000 13                 TRA     s:18448

      416    18444    2      ELSE RESULT = (ITEM / TICS) * (TICS_PER_UNIT / DIVISOR);

  18444 13 000224   400000 236100                    LDQ     0,,PR4
        13 000225   100000 506100                    DIV     0,,PR1
        13 000226   205020 756100                    STQ     TEMPCHAR+2,,AUTO
        13 000227   300000 236100                    LDQ     0,,PR3
        13 000230   000000 506100                    DIV     0,,PR0
        13 000231   205020 402100                    MPY     TEMPCHAR+2,,AUTO
        13 000232   205011 475500                    LDP5    @RESULT,,AUTO
        13 000233   500000 756100                    STQ     0,,PR5
        13 000234   000246 710000 13                 TRA     s:18448

      417    18445    2      ELSE
      418    18446    2      RESULT = ITEM / (DIVISOR * TICS / TICS_PER_UNIT);

  18446 13 000235   000000 236100                    LDQ     0,,PR0
        13 000236   100000 402100                    MPY     0,,PR1
PL6.E3A0      #001=PSD$FEP File=PSD$FEP.:E05TSI                                  WED 07/30/97 04:27 Page:145
        13 000237   300000 506100                    DIV     0,,PR3
        13 000240   205020 756100                    STQ     TEMPCHAR+2,,AUTO
        13 000241   205012 474500                    LDP4    @ITEM,,AUTO
        13 000242   400000 236100                    LDQ     0,,PR4
        13 000243   205020 506100                    DIV     TEMPCHAR+2,,AUTO
        13 000244   205011 475500                    LDP5    @RESULT,,AUTO
        13 000245   500000 756100                    STQ     0,,PR5

      419    18447
      420    18448    2      RETURN;

  18448 13 000246   205010 221300                    LDX1  ! FEPD+208,,AUTO
        13 000247   000001 702211                    TSX2  ! 1,X1

      421    18449
      422    18450    2   END CRUNCH;
      423    18451
      424    18452        %EJECT;
PL6.E3A0      #001=PSD$FEP File=PSD$FEP.:E05TSI                                  WED 07/30/97 04:27 Page:146
      425    18453    1   CRUNCHUP: PROC (RESULT, ITEM, DIVISOR, TICS, TICS_PER_UNIT);

  18453 13 000250   205010 741300       CRUNCHUP     STX1  ! FEPD+208,,AUTO

      426    18454
      427    18455    2   DCL RESULT SBIN;
      428    18456    2   DCL ITEM SBIN;
      429    18457    2   DCL DIVISOR SBIN;
      430    18458    2   DCL TICS SBIN;
      431    18459    2   DCL TICS_PER_UNIT SBIN;
      432    18460
      433    18461    2      IF (DIVISOR*TICS)>0

  18461 13 000251   205013 470500                    LDP0    @DIVISOR,,AUTO
        13 000252   205014 471500                    LDP1    @TICS,,AUTO
        13 000253   000000 236100                    LDQ     0,,PR0
        13 000254   100000 402100                    MPY     0,,PR1
        13 000255   000000 116003                    CMPQ    0,DU
        13 000256   000332 604400 13                 TMOZ    s:18469

      434    18462    2      THEN IF TICS < TICS_PER_UNIT * 100

  18462 13 000257   205015 473500                    LDP3    @TICS_PER_UNIT,,AUTO
        13 000260   300000 236100                    LDQ     0,,PR3
        13 000261   000144 402007                    MPY     100,DL
        13 000262   100000 116100                    CMPQ    0,,PR1
        13 000263   000320 604400 13                 TMOZ    s:18467

      435    18463    2      THEN IF (ITEM * TICS_PER_UNIT) / TICS_PER_UNIT = ITEM

  18463 13 000264   205012 474500                    LDP4    @ITEM,,AUTO
        13 000265   400000 236100                    LDQ     0,,PR4
        13 000266   300000 402100                    MPY     0,,PR3
        13 000267   300000 506100                    DIV     0,,PR3
        13 000270   400000 116100                    CMPQ    0,,PR4
        13 000271   000306 601000 13                 TNZ     s:18465

PL6.E3A0      #001=PSD$FEP File=PSD$FEP.:E05TSI                                  WED 07/30/97 04:27 Page:147
      436    18464    2      THEN RESULT = RESULT + (ITEM * TICS_PER_UNIT) / (DIVISOR * TICS);

  18464 13 000272   400000 236100                    LDQ     0,,PR4
        13 000273   300000 402100                    MPY     0,,PR3
        13 000274   205020 756100                    STQ     TEMPCHAR+2,,AUTO
        13 000275   000000 236100                    LDQ     0,,PR0
        13 000276   100000 402100                    MPY     0,,PR1
        13 000277   205021 756100                    STQ     TEMPCHAR+3,,AUTO
        13 000300   205020 236100                    LDQ     TEMPCHAR+2,,AUTO
        13 000301   205021 506100                    DIV     TEMPCHAR+3,,AUTO
        13 000302   205011 475500                    LDP5    @RESULT,,AUTO
        13 000303   500000 036100                    ADLQ    0,,PR5
        13 000304   500000 756100                    STQ     0,,PR5
        13 000305   000332 710000 13                 TRA     s:18469

      437    18465    2      ELSE RESULT = RESULT + (ITEM / TICS) * (TICS_PER_UNIT / DIVISOR);

  18465 13 000306   400000 236100                    LDQ     0,,PR4
        13 000307   100000 506100                    DIV     0,,PR1
        13 000310   205020 756100                    STQ     TEMPCHAR+2,,AUTO
        13 000311   300000 236100                    LDQ     0,,PR3
        13 000312   000000 506100                    DIV     0,,PR0
        13 000313   205020 402100                    MPY     TEMPCHAR+2,,AUTO
        13 000314   205011 475500                    LDP5    @RESULT,,AUTO
        13 000315   500000 036100                    ADLQ    0,,PR5
        13 000316   500000 756100                    STQ     0,,PR5
        13 000317   000332 710000 13                 TRA     s:18469

      438    18466    2      ELSE
      439    18467    2      RESULT = RESULT + ITEM / (DIVISOR * TICS / TICS_PER_UNIT);

  18467 13 000320   000000 236100                    LDQ     0,,PR0
        13 000321   100000 402100                    MPY     0,,PR1
        13 000322   300000 506100                    DIV     0,,PR3
        13 000323   205020 756100                    STQ     TEMPCHAR+2,,AUTO
        13 000324   205012 474500                    LDP4    @ITEM,,AUTO
        13 000325   400000 236100                    LDQ     0,,PR4
PL6.E3A0      #001=PSD$FEP File=PSD$FEP.:E05TSI                                  WED 07/30/97 04:27 Page:148
        13 000326   205020 506100                    DIV     TEMPCHAR+2,,AUTO
        13 000327   205011 475500                    LDP5    @RESULT,,AUTO
        13 000330   500000 036100                    ADLQ    0,,PR5
        13 000331   500000 756100                    STQ     0,,PR5

      440    18468
      441    18469    2      RETURN;

  18469 13 000332   205010 221300                    LDX1  ! FEPD+208,,AUTO
        13 000333   000001 702211                    TSX2  ! 1,X1

      442    18470
      443    18471    2   END CRUNCHUP;
      444    18472
      445    18473        %EJECT;
PL6.E3A0      #001=PSD$FEP File=PSD$FEP.:E05TSI                                  WED 07/30/97 04:27 Page:149
      446    18474    1   CALC_TICS: PROC (STARTING, ENDING, RESULT);

  18474 13 000334   205010 741300       CALC_TICS    STX1  ! FEPD+208,,AUTO

      447    18475
      448    18476    2   DCL STARTING UBIN;
      449    18477    2   DCL ENDING UBIN;
      450    18478    2   DCL RESULT UBIN;
      451    18479    2   DCL INTERVAL UBIN;
      452    18480
      453    18481    2      CALL XUD$UTS_DIFF (INTERVAL, ENDING, STARTING);

  18481 13 000335   205011 236100                    LDQ     @STARTING,,AUTO
        13 000336   205022 756100                    STQ     TEMPCHAR+4,,AUTO
        13 000337   205012 236100                    LDQ     @ENDING,,AUTO
        13 000340   205021 756100                    STQ     TEMPCHAR+3,,AUTO
        13 000341   205014 630500                    EPPR0   INTERVAL,,AUTO
        13 000342   205020 450500                    STP0    TEMPCHAR+2,,AUTO
        13 000343   205020 630500                    EPPR0   TEMPCHAR+2,,AUTO
        13 000344   000021 631400 xsym               EPPR1   B_VECTNIL+17
        13 000345   000000 701000 xent               TSX1    XUD$UTS_DIFF
        13 000346   000000 011000                    NOP     0

      454    18482
      455    18483    2      IF ENDING <= STARTING

  18483 13 000347   205011 470500                    LDP0    @STARTING,,AUTO
        13 000350   205012 471500                    LDP1    @ENDING,,AUTO
        13 000351   000000 236100                    LDQ     0,,PR0
        13 000352   100000 116100                    CMPQ    0,,PR1
        13 000353   000357 602000 13                 TNC     s:18491

      456    18484    2      THEN
      457    18485    2      RESULT = 0;

  18485 13 000354   205013 473500                    LDP3    @RESULT,,AUTO
        13 000355   300000 450100                    STZ     0,,PR3
PL6.E3A0      #001=PSD$FEP File=PSD$FEP.:E05TSI                                  WED 07/30/97 04:27 Page:150
        13 000356   000400 710000 13                 TRA     s:18497

      458    18486    2      ELSE
      459    18487
      460    18488         /* Convert UTS interval to FEP TICS, by converting the
      461    18489            interval into seconds and then dividing by 120. */
      462    18490
      463    18491    2      IF (INTERVAL) > 1000000

  18491 13 000357   205014 235100                    LDA     INTERVAL,,AUTO
        13 000360   000000 115000 14                 CMPA    0
        13 000361   000371 602000 13                 TNC     s:18495

      464    18492    2      THEN
      465    18493    2      RESULT = INTERVAL / %MICROSECONDS_PER_FEP_TIC * 10000;

  18493 13 000362   000043 773000                    LRL     35
        13 000363   020215 507007                    DVF     8333,DL
        13 000364   000044 733000                    LRS     36
        13 000365   023420 402007                    MPY     10000,DL
        13 000366   205013 473500                    LDP3    @RESULT,,AUTO
        13 000367   300000 756100                    STQ     0,,PR3
        13 000370   000400 710000 13                 TRA     s:18497

      466    18494    2      ELSE
      467    18495    2      RESULT = INTERVAL * 10000 / %MICROSECONDS_PER_FEP_TIC;

  18495 13 000371   205014 236100                    LDQ     INTERVAL,,AUTO
        13 000372   023420 402007                    MPY     10000,DL
        13 000373   000044 737000                    LLS     36
        13 000374   000043 773000                    LRL     35
        13 000375   020215 507007                    DVF     8333,DL
        13 000376   205013 473500                    LDP3    @RESULT,,AUTO
        13 000377   300000 755100                    STA     0,,PR3

      468    18496
      469    18497    2      RETURN;
PL6.E3A0      #001=PSD$FEP File=PSD$FEP.:E05TSI                                  WED 07/30/97 04:27 Page:151

  18497 13 000400   205010 221300                    LDX1  ! FEPD+208,,AUTO
        13 000401   000001 702211                    TSX2  ! 1,X1

      470    18498
      471    18499    2   END CALC_TICS;
      472    18500
      473    18501        %EJECT;
PL6.E3A0      #001=PSD$FEP File=PSD$FEP.:E05TSI                                  WED 07/30/97 04:27 Page:152
      474    18502    1   GEN: PROC (RESULT, NEW, OLD, SCALE);

  18502 13 000402   205010 741300       GEN          STX1  ! FEPD+208,,AUTO

      475    18503
      476    18504    2   DCL 1 RESULT CHAR (7);
      477    18505    2   DCL NEW UBIN;
      478    18506    2   DCL OLD UBIN;
      479    18507    2   DCL SCALE UBIN;
      480    18508    2      IF SCALE = %/* abs# */ 0

  18508 13 000403   205014 470500                    LDP0    @SCALE,,AUTO
        13 000404   000000 235100                    LDA     0,,PR0
        13 000405   000420 601000 13                 TNZ     s:18517

      481    18509    3      THEN DO;

      482    18510
      483    18511    3         CALL GENERATE (RESULT, NEW, 1, SCALE);

  18511 13 000406   205014 236100                    LDQ     @SCALE,,AUTO
        13 000407   205014 756100                    STQ     @SCALE,,AUTO
        13 000410   000001 236000 14                 LDQ     1
        13 000411   205012 235100                    LDA     @NEW,,AUTO
        13 000412   205012 757100                    STAQ    @NEW,,AUTO
        13 000413   205011 236100                    LDQ     @RESULT,,AUTO
        13 000414   205011 756100                    STQ     @RESULT,,AUTO
        13 000415   000453 701000 13                 TSX1    GENERATE
        13 000416   000000 011000                    NOP     0

      484    18512    3      END;

  18512 13 000417   000451 710000 13                 TRA     s:18526

      485    18513
      486    18514    3      ELSE DO;

PL6.E3A0      #001=PSD$FEP File=PSD$FEP.:E05TSI                                  WED 07/30/97 04:27 Page:153
      487    18515
      488    18516
      489    18517    3         IF DELTA_TICS_ELAPSED=0 OR SECOND_BOOT>INTERVAL_START

  18517 13 000420   200006 236100                    LDQ     DELTA_TICS_ELAPSED,,AUTO
        13 000421   000425 600000 13                 TZE     s:18519
        13 000422   200004 236100                    LDQ     INTERVAL_START,,AUTO
        13 000423   200011 116100                    CMPQ    SECOND_BOOT,,AUTO
        13 000424   000432 603000 13                 TRC     s:18521

      490    18518    3         THEN
      491    18519    3         RESULT = ' ';

  18519 13 000425   205011 471500                    LDP1    @RESULT,,AUTO
        13 000426   040100 100400                    MLR     fill='040'O
        13 000427   000035 000001 xsym               ADSC9   B_VECTNIL+29             cn=0,n=1
        13 000430   100000 000007                    ADSC9   0,,PR1                   cn=0,n=7
        13 000431   000451 710000 13                 TRA     s:18526

      492    18520    3         ELSE
      493    18521    3         CALL GENERATE (RESULT, NEW - OLD, DELTA_TICS_ELAPSED,

  18521 13 000432   205013 471500                    LDP1    @OLD,,AUTO
        13 000433   205012 473500                    LDP3    @NEW,,AUTO
        13 000434   300000 236100                    LDQ     0,,PR3
        13 000435   100000 136100                    SBLQ    0,,PR1
        13 000436   205035 756100                    STQ     TEMPCHAR+15,,AUTO
        13 000437   205014 236100                    LDQ     @SCALE,,AUTO
        13 000440   205014 756100                    STQ     @SCALE,,AUTO
        13 000441   200006 630500                    EPPR0   DELTA_TICS_ELAPSED,,AUTO
        13 000442   205013 450500                    STP0    @OLD,,AUTO
        13 000443   205035 631500                    EPPR1   TEMPCHAR+15,,AUTO
        13 000444   205012 451500                    STP1    @NEW,,AUTO
        13 000445   205011 236100                    LDQ     @RESULT,,AUTO
        13 000446   205011 756100                    STQ     @RESULT,,AUTO
        13 000447   000453 701000 13                 TSX1    GENERATE
        13 000450   000000 011000                    NOP     0
PL6.E3A0      #001=PSD$FEP File=PSD$FEP.:E05TSI                                  WED 07/30/97 04:27 Page:154

      494    18522    3           SCALE);
      495    18523    3      END;

      496    18524
      497    18525
      498    18526    2      RETURN;

  18526 13 000451   205010 221300                    LDX1  ! FEPD+208,,AUTO
        13 000452   000001 702211                    TSX2  ! 1,X1

      499    18527
      500    18528    2   END GEN;
      501    18529
      502    18530        %EJECT;
PL6.E3A0      #001=PSD$FEP File=PSD$FEP.:E05TSI                                  WED 07/30/97 04:27 Page:155
      503    18531    1   GENERATE: PROC (RESULT, VALUE, DELTA_T, SCALE);

  18531 13 000453   205010 741300       GENERATE     STX1  ! FEPD+208,,AUTO

      504    18532
      505    18533    2   DCL RESULT CHAR (7);
      506    18534    2   DCL VALUE SBIN;
      507    18535    2   DCL DELTA_T UBIN;
      508    18536    2   DCL DELTA_TS REDEF DELTA_T SBIN;
      509    18537    2   DCL SCALE UBIN;
      510    18538    2   DCL TEMP UBIN;
      511    18539    2   DCL TEMPCHAR CHAR (7);
      512    18540    2   DCL PATTERN (0:1) BIT (9) CONSTANT INIT (%MVZB6, %MVC1);
      513    18541
      514    18542    3      DO CASE (SCALE);

  18542 13 000454   205014 470500                    LDP0    @SCALE,,AUTO
        13 000455   000000 235100                    LDA     0,,PR0
        13 000456   000006 115007                    CMPA    6,DL
        13 000457   000461 602005 13                 TNC     s:18542+5,AL
        13 000460   000533 710000 13                 TRA     s:18558
        13 000461   000467 710000 13                 TRA     s:18545
        13 000462   000533 710000 13                 TRA     s:18558
        13 000463   000473 710000 13                 TRA     s:18548
        13 000464   000506 710000 13                 TRA     s:18551
        13 000465   000533 710000 13                 TRA     s:18558
        13 000466   000521 710000 13                 TRA     s:18554

      515    18543
      516    18544    3      CASE (%/* abs# */ 0);

      517    18545    3         TEMP = VALUE;

  18545 13 000467   205012 471500                    LDP1    @VALUE,,AUTO
        13 000470   100000 235100                    LDA     0,,PR1
        13 000471   205015 755100                    STA     TEMP,,AUTO
        13 000472   000533 710000 13                 TRA     s:18558
PL6.E3A0      #001=PSD$FEP File=PSD$FEP.:E05TSI                                  WED 07/30/97 04:27 Page:156

      518    18546
      519    18547    3      CASE (%PER_MINUTE#);

      520    18548    3         CALL CRUNCH (TEMP, VALUE, 1, DELTA_T, %FEP_TICS_PER_MINUTE);

  18548 13 000473   000003 236000 14                 LDQ     3
        13 000474   205013 235100                    LDA     @DELTA_T,,AUTO
        13 000475   205014 757100                    STAQ    @SCALE,,AUTO
        13 000476   000001 236000 14                 LDQ     1
        13 000477   205012 235100                    LDA     @VALUE,,AUTO
        13 000500   205012 757100                    STAQ    @VALUE,,AUTO
        13 000501   205015 630500                    EPPR0   TEMP,,AUTO
        13 000502   205011 450500                    STP0    @RESULT,,AUTO
        13 000503   000164 701000 13                 TSX1    CRUNCH
        13 000504   000000 011000                    NOP     0
        13 000505   000533 710000 13                 TRA     s:18558

      521    18549
      522    18550    3      CASE (%PER_SECOND#);

      523    18551    3         CALL CRUNCH (TEMP, VALUE, 1, DELTA_T, %FEP_TICS_PER_SECOND);

  18551 13 000506   000005 236000 14                 LDQ     5
        13 000507   205013 235100                    LDA     @DELTA_T,,AUTO
        13 000510   205014 757100                    STAQ    @SCALE,,AUTO
        13 000511   000001 236000 14                 LDQ     1
        13 000512   205012 235100                    LDA     @VALUE,,AUTO
        13 000513   205012 757100                    STAQ    @VALUE,,AUTO
        13 000514   205015 630500                    EPPR0   TEMP,,AUTO
        13 000515   205011 450500                    STP0    @RESULT,,AUTO
        13 000516   000164 701000 13                 TSX1    CRUNCH
        13 000517   000000 011000                    NOP     0
        13 000520   000533 710000 13                 TRA     s:18558

      524    18552
      525    18553    3      CASE (%PCT_TIME#);
PL6.E3A0      #001=PSD$FEP File=PSD$FEP.:E05TSI                                  WED 07/30/97 04:27 Page:157

      526    18554    3         TEMP = (VALUE * 100 + DELTA_T / 2) / DELTA_TS;

  18554 13 000521   205013 471500                    LDP1    @DELTA_T,,AUTO
        13 000522   100000 236100                    LDQ     0,,PR1
        13 000523   000001 772000                    QRL     1
        13 000524   205020 756100                    STQ     TEMPCHAR+2,,AUTO
        13 000525   205012 473500                    LDP3    @VALUE,,AUTO
        13 000526   300000 236100                    LDQ     0,,PR3
        13 000527   000144 402007                    MPY     100,DL
        13 000530   205020 036100                    ADLQ    TEMPCHAR+2,,AUTO
        13 000531   100000 506100                    DIV     0,,PR1
        13 000532   205015 756100                    STQ     TEMP,,AUTO

      527    18555
      528    18556    3      END;

      529    18557
      530    18558    2      CALL BINCHAR (TEMPCHAR, TEMP);

  18558 13 000533   205015 235100                    LDA     TEMP,,AUTO
        13 000534   000044 773000                    LRL     36
        13 000535   205020 757100                    STAQ    TEMPCHAR+2,,AUTO
        13 000536   000100 301500                    BTD
        13 000537   205020 000010                    NDSC9   TEMPCHAR+2,,AUTO         cn=0,s=lsgnf,sf=0,n=8
        13 000540   205016 030007                    NDSC9   TEMPCHAR,,AUTO           cn=0,s=nosgn,sf=0,n=7

      531    18559    2      CALL EDITCHAR (RESULT, , , PATTERN, TEMPCHAR);

  18559 13 000541   205011 470500                    LDP0    @RESULT,,AUTO
        13 000542   100000 024500                    MVNE
        13 000543   205016 030007                    NDSC9   TEMPCHAR,,AUTO           cn=0,s=nosgn,sf=0,n=7
        13 000544   014024 000002 12                 ADSC9   PATTERN                  cn=0,n=2
        13 000545   000000 000007                    ADSC9   0,,PR0                   cn=0,n=7

      532    18560    2      RETURN;

PL6.E3A0      #001=PSD$FEP File=PSD$FEP.:E05TSI                                  WED 07/30/97 04:27 Page:158
  18560 13 000546   205010 221300                    LDX1  ! FEPD+208,,AUTO
        13 000547   000001 702211                    TSX2  ! 1,X1

      533    18561
      534    18562    2   END GENERATE;
      535    18563        %EJECT;
PL6.E3A0      #001=PSD$FEP File=PSD$FEP.:E05TSI                                  WED 07/30/97 04:27 Page:159
      536    18564    1   PRINT: PROC (TITLE, VALUES);

  18564 13 000550   205010 741300       PRINT        STX1  ! FEPD+208,,AUTO

      537    18565
      538    18566    2   DCL VALUES(0:9) UBIN;
      539    18567    2   DCL TITLE CHAR(30);
      540    18568    2   DCL TITLE_LEN UBIN;
      541    18569    2   DCL IP UBIN;
      542    18570
      543    18571    3      DO IP = 0 TO FEP_COUNT-1;

  18571 13 000551   205014 450100                    STZ     IP,,AUTO
        13 000552   000562 710000 13                 TRA     s:18574+3

      544    18572    3         IF VALUES(IP)~=0

  18572 13 000553   205012 470500                    LDP0    @VALUES,,AUTO
        13 000554   205014 720100                    LXL0    IP,,AUTO
        13 000555   000000 235110                    LDA     0,X0,PR0
        13 000556   000567 601000 13                 TNZ     PRINT_IT

      545    18573    3         THEN GOTO PRINT_IT;
      546    18574    3      END;

  18574 13 000557   205014 236100                    LDQ     IP,,AUTO
        13 000560   000001 036007                    ADLQ    1,DL
        13 000561   205014 756100                    STQ     IP,,AUTO
        13 000562   205014 236100                    LDQ     IP,,AUTO
        13 000563   200014 116100                    CMPQ    FEP_COUNT,,AUTO
        13 000564   000553 602000 13                 TNC     s:18572

      547    18575    2      RETURN /* ALL ZERO */;

  18575 13 000565   205010 221300                    LDX1  ! FEPD+208,,AUTO
        13 000566   000001 702211                    TSX2  ! 1,X1

PL6.E3A0      #001=PSD$FEP File=PSD$FEP.:E05TSI                                  WED 07/30/97 04:27 Page:160
      548    18576
      549    18577    2   PRINT_IT:
      550    18578    2      CALL INDEX (TITLE_LEN, '.', TITLE);

  18578 13 000567   205011 471500       PRINT_IT     LDP1    @TITLE,,AUTO
        13 000570   000000 124500                    SCM     mask='000'O
        13 000571   100000 000036                    ADSC9   0,,PR1                   cn=0,n=30
        13 000572   000006 000001 14                 ADSC9   6                        cn=0,n=1
        13 000573   205013 000100                    ARG     TITLE_LEN,,AUTO

      551    18579
      552    18580    2      DATA_VECTOR.PTR$ = ADDR(VALUES);

  18580 13 000574   205012 236100                    LDQ     @VALUES,,AUTO
        13 000575   200073 756100                    STQ     DATA_VECTOR+1,,AUTO

      553    18581    2      DATA_VECTOR.BOUND = (4 * FEP_COUNT) -1;

  18581 13 000576   200014 236100                    LDQ     FEP_COUNT,,AUTO
        13 000577   000002 736000                    QLS     2
        13 000600   000001 136007                    SBLQ    1,DL
        13 000601   000020 736000                    QLS     16
        13 000602   200072 676100                    ERQ     DATA_VECTOR,,AUTO
        13 000603   000034 376000 xsym               ANQ     B_VECTNIL+28
        13 000604   200072 656100                    ERSQ    DATA_VECTOR,,AUTO

      554    18582
      555    18583    2      CALL X$WRITE (PS_FDS, VECTOR(FEP_FORMAT),

  18583 13 000605   205013 235100                    LDA     TITLE_LEN,,AUTO
        13 000606   000020 735000                    ALS     16
        13 000607   000140 135007                    SBLA    96,DL
        13 000610   205011 236100                    LDQ     @TITLE,,AUTO
        13 000611   205020 757100                    STAQ    TEMPCHAR+2,,AUTO
        13 000612   200072 633500                    EPPR3   DATA_VECTOR,,AUTO
        13 000613   205025 453500                    STP3    TEMPCHAR+7,,AUTO
        13 000614   205020 634500                    EPPR4   TEMPCHAR+2,,AUTO
PL6.E3A0      #001=PSD$FEP File=PSD$FEP.:E05TSI                                  WED 07/30/97 04:27 Page:161
        13 000615   205024 454500                    STP4    TEMPCHAR+6,,AUTO
        13 000616   000012 237000 14                 LDAQ    10
        13 000617   205022 757100                    STAQ    TEMPCHAR+4,,AUTO
        13 000620   205022 630500                    EPPR0   TEMPCHAR+4,,AUTO
        13 000621   000022 631400 xsym               EPPR1   B_VECTNIL+18
        13 000622   000000 701000 xent               TSX1    X$WRITE
        13 000623   000000 011000                    NOP     0

      556    18584    2        VECTOR(SUBSTR(TITLE, 0, TITLE_LEN)), DATA_VECTOR);
      557    18585
      558    18586    2      RETURN;

  18586 13 000624   205010 221300                    LDX1  ! FEPD+208,,AUTO
        13 000625   000001 702211                    TSX2  ! 1,X1

      559    18587
      560    18588    2   END PRINT;
      561    18589
      562    18590        %EJECT;
PL6.E3A0      #001=PSD$FEP File=PSD$FEP.:E05TSI                                  WED 07/30/97 04:27 Page:162
      563    18591        /* PSD$FEP procedure                                                */
      564    18592
      565    18593    1      FEP_DATA = '0'B;

  18593 13 000626   021760 220003                    LDX0    9200,DU
        13 000627   000140 100400                    MLR     fill='000'O
        13 000630   000002 000001 xsym               ADSC9   B_VECTNIL+2              cn=0,n=1
        13 000631   200074 000010                    ADSC9   FEP_DATA,,AUTO           cn=0,n=*X0

      566    18594
      567    18595    2      DO PS_FEPNO = 1 TO %PS_MAXFE#;

  18595 13 000632   000001 235007                    LDA     1,DL
        13 000633   000000 755000 xsym               STA     PS_FEPNO

      568    18596    2         IF PS_FEP_DISP_FLAGS.DISP(PS_FEPNO)

  18596 13 000634   000000 235000 xsym               LDA     PS_FEPNO
        13 000635   000002 735000                    ALS     2
        13 000636   000000 235005 xsym               LDA     PS_FEP_DISP_FLAGS,AL
        13 000637   002777 600000 13                 TZE     ANOTHER_FEP

      569    18597    3         THEN DO;

      570    18598
      571    18599    3            FEPTEMP = '0'B;

  18599 13 000640   000000 100400                    MLR     fill='000'O
        13 000641   000002 000001 xsym               ADSC9   B_VECTNIL+2              cn=0,n=1
        13 000642   000070 000264 11                 ADSC9   FEPTEMP                  cn=0,n=180

      572    18600    3            OLD_FEPTEMP = '0'B;

  18600 13 000643   000000 100400                    MLR     fill='000'O
        13 000644   000002 000001 xsym               ADSC9   B_VECTNIL+2              cn=0,n=1
        13 000645   000145 000264 11                 ADSC9   OLD_FEPTEMP              cn=0,n=180

PL6.E3A0      #001=PSD$FEP File=PSD$FEP.:E05TSI                                  WED 07/30/97 04:27 Page:163
      573    18601
      574    18602    3            FEP$ = PS_FEP$;

  18602 13 000646   000000 236000 xsym               LDQ     PS_FEP$
        13 000647   200024 756100                    STQ     FEP$,,AUTO

      575    18603    3            OLD_FEP$ = PS_OLD_FEP$;

  18603 13 000650   000000 236000 xsym               LDQ     PS_OLD_FEP$
        13 000651   200025 756100                    STQ     OLD_FEP$,,AUTO

      576    18604
      577    18605    3            LOCATE_ANOTHER = '0'B;

  18605 13 000652   000046 450000 11                 STZ     LOCATE_ANOTHER

      578    18606
      579    18607    3            CALL LOCATE( FEP$, FEP_SIZE, %KH#ENTID_MONITOR)

  18607 13 000653   000014 236000 14                 LDQ     12
        13 000654   205013 756100                    STQ     @VALUES+1,,AUTO
        13 000655   200026 630500                    EPPR0   FEP_SIZE,,AUTO
        13 000656   205012 450500                    STP0    @TITLE+1,,AUTO
        13 000657   200024 631500                    EPPR1   FEP$,,AUTO
        13 000660   205011 451500                    STP1    FEPD+209,,AUTO
        13 000661   000003 701000 13                 TSX1    LOCATE
        13 000662   002777 702000 13                 TSX2    ANOTHER_FEP

      580    18608    3              ALTRET(ANOTHER_FEP);
      581    18609    3            CALL LOCATE( OLD_FEP$, OLD_FEP_SIZE, %KH#ENTID_MONITOR);

  18609 13 000663   000014 236000 14                 LDQ     12
        13 000664   205013 756100                    STQ     @VALUES+1,,AUTO
        13 000665   200027 630500                    EPPR0   OLD_FEP_SIZE,,AUTO
        13 000666   205012 450500                    STP0    @TITLE+1,,AUTO
        13 000667   200025 631500                    EPPR1   OLD_FEP$,,AUTO
        13 000670   205011 451500                    STP1    FEPD+209,,AUTO
PL6.E3A0      #001=PSD$FEP File=PSD$FEP.:E05TSI                                  WED 07/30/97 04:27 Page:164
        13 000671   000003 701000 13                 TSX1    LOCATE
        13 000672   000000 011000                    NOP     0

      582    18610    3            THIS_OLD_FEP$ = OLD_FEP$;

  18610 13 000673   200025 236100                    LDQ     OLD_FEP$,,AUTO
        13 000674   200030 756100                    STQ     THIS_OLD_FEP$,,AUTO

      583    18611
      584    18612    3            FEPTEMP.SCHED_TICS = 0;

  18612 13 000675   000071 450000 11                 STZ     FEPTEMP+1

      585    18613    3            IF FEP$~=ADDR(NIL)

  18613 13 000676   200024 236100                    LDQ     FEP$,,AUTO
        13 000677   000001 116000 xsym               CMPQ    B_VECTNIL+1
        13 000700   000716 600000 13                 TZE     s:18618

      586    18614    4            THEN DO I = %PS_LCP6STT_UXEQTIME# TO %PS_LCP6STT_MIDLTIME#+3;

  18614 13 000701   000012 235007                    LDA     10,DL
        13 000702   200012 755100                    STA     I,,AUTO
        13 000703   000714 710000 13                 TRA     s:18616+3

      587    18615    4               FEPTEMP.SCHED_TICS = FEPTEMP.SCHED_TICS + FEP$->UBIN_(I);

  18615 13 000704   200024 470500                    LDP0    FEP$,,AUTO
        13 000705   200012 720100                    LXL0    I,,AUTO
        13 000706   000071 236000 11                 LDQ     FEPTEMP+1
        13 000707   000000 036110                    ADLQ    0,X0,PR0
        13 000710   000071 756000 11                 STQ     FEPTEMP+1

      588    18616    4            END;

  18616 13 000711   200012 235100                    LDA     I,,AUTO
        13 000712   000001 035007                    ADLA    1,DL
PL6.E3A0      #001=PSD$FEP File=PSD$FEP.:E05TSI                                  WED 07/30/97 04:27 Page:165
        13 000713   200012 755100                    STA     I,,AUTO
        13 000714   000032 115007                    CMPA    26,DL
        13 000715   000704 602000 13                 TNC     s:18615

      589    18617
      590    18618    3            OLD_FEPTEMP.SCHED_TICS = 0;

  18618 13 000716   000146 450000 11                 STZ     OLD_FEPTEMP+1

      591    18619    4            IF OLD_FEP$~=ADDR(NIL) THEN DO I = %PS_LCP6STT_UXEQTIME# TO %
             18619                     PS_LCP6STT_MIDLTIME# + 3;

  18619 13 000717   200025 236100                    LDQ     OLD_FEP$,,AUTO
        13 000720   000001 116000 xsym               CMPQ    B_VECTNIL+1
        13 000721   000737 600000 13                 TZE     s:18624

  18619 13 000722   000012 235007                    LDA     10,DL
        13 000723   200012 755100                    STA     I,,AUTO
        13 000724   000735 710000 13                 TRA     s:18621+3

      592    18620    4               OLD_FEPTEMP.SCHED_TICS = OLD_FEPTEMP.SCHED_TICS + OLD_FEP$->UBIN_(I);

  18620 13 000725   200025 470500                    LDP0    OLD_FEP$,,AUTO
        13 000726   200012 720100                    LXL0    I,,AUTO
        13 000727   000146 236000 11                 LDQ     OLD_FEPTEMP+1
        13 000730   000000 036110                    ADLQ    0,X0,PR0
        13 000731   000146 756000 11                 STQ     OLD_FEPTEMP+1

      593    18621    4            END;

  18621 13 000732   200012 235100                    LDA     I,,AUTO
        13 000733   000001 035007                    ADLA    1,DL
        13 000734   200012 755100                    STA     I,,AUTO
        13 000735   000032 115007                    CMPA    26,DL
        13 000736   000725 602000 13                 TNC     s:18620

      594    18622
PL6.E3A0      #001=PSD$FEP File=PSD$FEP.:E05TSI                                  WED 07/30/97 04:27 Page:166
      595    18623
      596    18624    3            FEPTEMP.BOOT_UTS = FEP$->UBIN_(%PS_LCP6STT_BOOT_UTS#);

  18624 13 000737   200024 470500                    LDP0    FEP$,,AUTO
        13 000740   000032 235100                    LDA     26,,PR0
        13 000741   000131 755000 11                 STA     FEPTEMP+33

      597    18625    3            FUTS_UTS.TSTAMP_ = VECTOR(FEPTEMP.BOOT_UTS);

  18625 13 000742   000016 237000 14                 LDAQ    14
        13 000743   000010 757000 11                 STAQ    FUTS_UTS+8

      598    18626    3            CALL M$TIME(FUTS_UTS);

  18626 13 000744   000000 630400 11                 EPPR0   FUTS_UTS
        13 000745   020004 713400                    CLIMB   8196
        13 000746   402000 401760                    pmme    nvectors=5

      599    18627
      600    18628    3            FEPTEMP.CURR_UTS = FEP$->UBIN_(%PS_LCP6STT_BOOT_UTS#)

  18628 13 000747   200024 470500                    LDP0    FEP$,,AUTO
        13 000750   000032 236100                    LDQ     26,,PR0
        13 000751   000033 036100                    ADLQ    27,,PR0
        13 000752   000130 756000 11                 STQ     FEPTEMP+32

      601    18629    3              + FEP$->UBIN_(%PS_LCP6STT_CURR_UTS#);
      602    18630    3            FUTS_UTS.TSTAMP_ = VECTOR(FEPTEMP.CURR_UTS);

  18630 13 000753   000020 237000 14                 LDAQ    16
        13 000754   000010 757000 11                 STAQ    FUTS_UTS+8

      603    18631    3            CALL M$TIME(FUTS_UTS);

  18631 13 000755   000000 630400 11                 EPPR0   FUTS_UTS
        13 000756   020004 713400                    CLIMB   8196
        13 000757   402000 401760                    pmme    nvectors=5
PL6.E3A0      #001=PSD$FEP File=PSD$FEP.:E05TSI                                  WED 07/30/97 04:27 Page:167

      604    18632
      605    18633    4            IF OLD_FEP$ ~= ADDR(NIL) THEN DO;

  18633 13 000760   200025 236100                    LDQ     OLD_FEP$,,AUTO
        13 000761   000001 116000 xsym               CMPQ    B_VECTNIL+1
        13 000762   001005 600000 13                 TZE     s:18644

      606    18634    4               OLD_FEPTEMP.BOOT_UTS = OLD_FEP$->UBIN_(%PS_LCP6STT_BOOT_UTS#);

  18634 13 000763   200025 470500                    LDP0    OLD_FEP$,,AUTO
        13 000764   000032 235100                    LDA     26,,PR0
        13 000765   000206 755000 11                 STA     OLD_FEPTEMP+33

      607    18635    4               FUTS_UTS.TSTAMP_ = VECTOR(OLD_FEPTEMP.BOOT_UTS);

  18635 13 000766   000022 237000 14                 LDAQ    18
        13 000767   000010 757000 11                 STAQ    FUTS_UTS+8

      608    18636    4               CALL M$TIME(FUTS_UTS);

  18636 13 000770   000000 630400 11                 EPPR0   FUTS_UTS
        13 000771   020004 713400                    CLIMB   8196
        13 000772   402000 401760                    pmme    nvectors=5

      609    18637
      610    18638    4               OLD_FEPTEMP.CURR_UTS = OLD_FEP$->UBIN_(%PS_LCP6STT_BOOT_UTS#)

  18638 13 000773   200025 470500                    LDP0    OLD_FEP$,,AUTO
        13 000774   000032 236100                    LDQ     26,,PR0
        13 000775   000033 036100                    ADLQ    27,,PR0
        13 000776   000205 756000 11                 STQ     OLD_FEPTEMP+32

      611    18639    4                 + OLD_FEP$->UBIN_(%PS_LCP6STT_CURR_UTS#);
      612    18640    4               FUTS_UTS.TSTAMP_ = VECTOR(OLD_FEPTEMP.CURR_UTS);

  18640 13 000777   000024 237000 14                 LDAQ    20
PL6.E3A0      #001=PSD$FEP File=PSD$FEP.:E05TSI                                  WED 07/30/97 04:27 Page:168
        13 001000   000010 757000 11                 STAQ    FUTS_UTS+8

      613    18641    4               CALL M$TIME(FUTS_UTS);

  18641 13 001001   000000 630400 11                 EPPR0   FUTS_UTS
        13 001002   020004 713400                    CLIMB   8196
        13 001003   402000 401760                    pmme    nvectors=5

      614    18642    4            END;

  18642 13 001004   001010 710000 13                 TRA     s:18650

      615    18643    4            ELSE DO;

      616    18644    4               OLD_FEPTEMP.BOOT_UTS = FEPTEMP.BOOT_UTS;

  18644 13 001005   000131 235000 11                 LDA     FEPTEMP+33
        13 001006   000206 755000 11                 STA     OLD_FEPTEMP+33

      617    18645    4               OLD_FEPTEMP.CURR_UTS = FEPTEMP.BOOT_UTS;

  18645 13 001007   000205 755000 11                 STA     OLD_FEPTEMP+32

      618    18646    4            END;

      619    18647
      620    18648
      621    18649
      622    18650    3            FEPTEMP.DELTA_HUNDR = DELTA_TICS_ELAPSED / (%FEP_TICS_PER_MINUTE/100);

  18650 13 001010   200006 236100                    LDQ     DELTA_TICS_ELAPSED,,AUTO
        13 001011   000110 506007                    DIV     72,DL
        13 001012   000073 756000 11                 STQ     FEPTEMP+3

      623    18651    3            FEPTEMP.DELTA_MIN = FEPTEMP.DELTA_HUNDR / 100;

  18651 13 001013   000144 506007                    DIV     100,DL
PL6.E3A0      #001=PSD$FEP File=PSD$FEP.:E05TSI                                  WED 07/30/97 04:27 Page:169
        13 001014   000072 756000 11                 STQ     FEPTEMP+2

      624    18652    3            FEPTEMP.DELTA_HUNDR = MOD( FEPTEMP.DELTA_HUNDR, 100);

  18652 13 001015   000073 236000 11                 LDQ     FEPTEMP+3
        13 001016   000144 506007                    DIV     100,DL
        13 001017   000073 755000 11                 STA     FEPTEMP+3

      625    18653
      626    18654
      627    18655    3           CALL CALC_TICS (OLD_FEPTEMP.CURR_UTS, FEPTEMP.CURR_UTS, DELTA_TICS_ELAPSED)
             18655                     ;

  18655 13 001020   200006 630500                    EPPR0   DELTA_TICS_ELAPSED,,AUTO
        13 001021   205013 450500                    STP0    @VALUES+1,,AUTO
        13 001022   000021 236000 14                 LDQ     17
        13 001023   205012 756100                    STQ     @TITLE+1,,AUTO
        13 001024   000025 236000 14                 LDQ     21
        13 001025   205011 756100                    STQ     FEPD+209,,AUTO
        13 001026   000334 701000 13                 TSX1    CALC_TICS
        13 001027   000000 011000                    NOP     0

      628    18656    3            CALL CALC_TICS (FEPTEMP.BOOT_UTS, FEPTEMP.CURR_UTS, TOTAL_TICS_ELAPSED);

  18656 13 001030   200007 630500                    EPPR0   TOTAL_TICS_ELAPSED,,AUTO
        13 001031   205013 450500                    STP0    @VALUES+1,,AUTO
        13 001032   000021 236000 14                 LDQ     17
        13 001033   205012 756100                    STQ     @TITLE+1,,AUTO
        13 001034   000017 236000 14                 LDQ     15
        13 001035   205011 756100                    STQ     FEPD+209,,AUTO
        13 001036   000334 701000 13                 TSX1    CALC_TICS
        13 001037   000000 011000                    NOP     0

      629    18657    3            CALL PSL$TIME (OLD_FEPTEMP.CURR_UTS, INT_START);

  18657 13 001040   000026 630400 14                 EPPR0   22
        13 001041   000020 631400 xsym               EPPR1   B_VECTNIL+16
PL6.E3A0      #001=PSD$FEP File=PSD$FEP.:E05TSI                                  WED 07/30/97 04:27 Page:170
        13 001042   000000 701000 xent               TSX1    PSL$TIME
        13 001043   000000 011000                    NOP     0

      630    18658    3            CALL PSL$TIME (FEPTEMP.CURR_UTS, INT_END);

  18658 13 001044   000030 630400 14                 EPPR0   24
        13 001045   000020 631400 xsym               EPPR1   B_VECTNIL+16
        13 001046   000000 701000 xent               TSX1    PSL$TIME
        13 001047   000000 011000                    NOP     0

      631    18659    3            CALL PSL$TIME (FEPTEMP.BOOT_UTS, BOOT_TIME);

  18659 13 001050   000032 630400 14                 EPPR0   26
        13 001051   000020 631400 xsym               EPPR1   B_VECTNIL+16
        13 001052   000000 701000 xent               TSX1    PSL$TIME
        13 001053   000000 011000                    NOP     0

      632    18660
      633    18661    4            IF OLD_FEPTEMP.BOOT_UTS ~= FEPTEMP.BOOT_UTS THEN DO ;

  18661 13 001054   000206 236000 11                 LDQ     OLD_FEPTEMP+33
        13 001055   000131 116000 11                 CMPQ    FEPTEMP+33
        13 001056   001075 600000 13                 TZE     s:18678

      634    18662    5               IF PS_MODE = 2 /* glom_mode# */ THEN DO ;

  18662 13 001057   000000 235000 xsym               LDA     PS_MODE
        13 001060   000002 115007                    CMPA    2,DL
        13 001061   001074 601000 13                 TNZ     s:18675

      635    18663        /*E*     ERROR:  PS-E$PS_FEP_REBOOTED
      636    18664                 MESSAGE:  GLOM not possbile -  FEP %U1 was rebooted at %U2.
      637    18665                 MESSAGE1:  GLOM of the indicated time interval cannot be
      638    18666                            done because FEP %U1 was rebooted at %U2,
      639    18667                            and the parameters that STATS uses for
      640    18668                            measurement were reset to zero during the reboot.
      641    18669                                                                        */
PL6.E3A0      #001=PSD$FEP File=PSD$FEP.:E05TSI                                  WED 07/30/97 04:27 Page:171
      642    18670    5                  CALL BINCHAR ( FEP_TITLES.TITLE1.FEP_NUM(0), PS_FEPNO ) ;

  18670 13 001062   000000 235000 xsym               LDA     PS_FEPNO
        13 001063   000044 773000                    LRL     36
        13 001064   205020 757100                    STAQ    TEMPCHAR+2,,AUTO
        13 001065   000000 301500                    BTD
        13 001066   205020 000010                    NDSC9   TEMPCHAR+2,,AUTO         cn=0,s=lsgnf,sf=0,n=8
        13 001067   000051 230002 11                 NDSC9   FEP_TITLES+1             cn=1,s=nosgn,sf=0,n=2

      643    18671    5                  CALL PSE$GRIPE ( 24 /* E$PS_FEP_REBOOTED */, 2 /* warning */,

  18671 13 001070   000041 630400 14                 EPPR0   33
        13 001071   000022 631400 xsym               EPPR1   B_VECTNIL+18
        13 001072   000000 701000 xent               TSX1    PSE$GRIPE
        13 001073   000000 011000                    NOP     0

      644    18672    5                    VECTOR ( FEP_TITLES.TITLE1.FEP_NUM(0) ),
      645    18673    5                    VECTOR ( BOOT_TIME ) ) ;
      646    18674    5               END ;

      647    18675    4               GOTO ANOTHER_FEP ;

  18675 13 001074   002777 710000 13                 TRA     ANOTHER_FEP

      648    18676    4            END ;
      649    18677
      650    18678    3            MINUTES_SINCE_BOOT = (TOTAL_TICS_ELAPSED + %FEP_TICS_PER_MINUTE / 2) / %
             18678                     FEP_TICS_PER_MINUTE;

  18678 13 001075   200007 236100                    LDQ     TOTAL_TICS_ELAPSED,,AUTO
        13 001076   007020 036007                    ADLQ    3600,DL
        13 001077   000001 772000                    QRL     1
        13 001100   007020 506007                    DIV     3600,DL
        13 001101   200070 756100                    STQ     MINUTES_SINCE_BOOT,,AUTO

      651    18679    3            HOURS_SINCE_BOOT = MINUTES_SINCE_BOOT / 60;

PL6.E3A0      #001=PSD$FEP File=PSD$FEP.:E05TSI                                  WED 07/30/97 04:27 Page:172
  18679 13 001102   000074 506007                    DIV     60,DL
        13 001103   200067 756100                    STQ     HOURS_SINCE_BOOT,,AUTO

      652    18680    3            DAYS_SINCE_BOOT = HOURS_SINCE_BOOT / 24;

  18680 13 001104   000030 506007                    DIV     24,DL
        13 001105   200066 756100                    STQ     DAYS_SINCE_BOOT,,AUTO

      653    18681
      654    18682    3            MINUTES_SINCE_BOOT = MOD(MINUTES_SINCE_BOOT,60);

  18682 13 001106   200070 236100                    LDQ     MINUTES_SINCE_BOOT,,AUTO
        13 001107   000074 506007                    DIV     60,DL
        13 001110   200070 755100                    STA     MINUTES_SINCE_BOOT,,AUTO

      655    18683    3            HOURS_SINCE_BOOT = MOD(HOURS_SINCE_BOOT, 24);

  18683 13 001111   200067 236100                    LDQ     HOURS_SINCE_BOOT,,AUTO
        13 001112   000030 506007                    DIV     24,DL
        13 001113   200067 755100                    STA     HOURS_SINCE_BOOT,,AUTO

      656    18684
      657    18685    3            IF NOT PS_FEP_DISP_FLAGS.DISP(PS_FEPNO) & '400000000000'O

  18685 13 001114   000000 236000 xsym               LDQ     PS_FEPNO
        13 001115   000002 736000                    QLS     2
        13 001116   000000 236006 xsym               LDQ     PS_FEP_DISP_FLAGS,QL
        13 001117   000030 376000 xsym               ANQ     B_VECTNIL+24
        13 001120   001141 601000 13                 TNZ     s:18695

      658    18686    4            THEN DO; /* Print title */

      659    18687    4               CALL PSD$EJECT (36);

  18687 13 001121   000046 630400 14                 EPPR0   38
        13 001122   000017 631400 xsym               EPPR1   B_VECTNIL+15
        13 001123   000000 701000 xent               TSX1    PSD$EJECT
PL6.E3A0      #001=PSD$FEP File=PSD$FEP.:E05TSI                                  WED 07/30/97 04:27 Page:173
        13 001124   000000 011000                    NOP     0

      660    18688    4               IF OLD_FEP$ ~= ADDR(NIL)

  18688 13 001125   200025 236100                    LDQ     OLD_FEP$,,AUTO
        13 001126   000001 116000 xsym               CMPQ    B_VECTNIL+1
        13 001127   001135 600000 13                 TZE     s:18691

      661    18689    4               THEN CALL X$WRITE (PS_FDS, VECTOR(FEP_DISPLAY_FMT), VECTOR(PS_FEPNO),

  18689 13 001130   000060 630400 14                 EPPR0   48
        13 001131   000023 631400 xsym               EPPR1   B_VECTNIL+19
        13 001132   000000 701000 xent               TSX1    X$WRITE
        13 001133   000000 011000                    NOP     0
        13 001134   001141 710000 13                 TRA     s:18695

      662    18690    4                 VECTOR(INT_START), VECTOR(INT_END));
      663    18691    4               ELSE CALL X$WRITE (PS_FDS, VECTOR(FEP_SINCE_BOOT_FMT),

  18691 13 001135   000070 630400 14                 EPPR0   56
        13 001136   000023 631400 xsym               EPPR1   B_VECTNIL+19
        13 001137   000000 701000 xent               TSX1    X$WRITE
        13 001140   000000 011000                    NOP     0

      664    18692    4                 VECTOR(PS_FEPNO), VECTOR(INT_START), VECTOR(INT_END));
      665    18693    4            END;

      666    18694
      667    18695    4            DO DISP_INDEX = 0 TO 10;

  18695 13 001141   200017 450100                    STZ     DISP_INDEX,,AUTO

      668    18696
      669    18697    4               LOCATE_ANOTHER = '0'B;

  18697 13 001142   000046 450000 11                 STZ     LOCATE_ANOTHER

PL6.E3A0      #001=PSD$FEP File=PSD$FEP.:E05TSI                                  WED 07/30/97 04:27 Page:174
      670    18698
      671    18699    4               FEP$ = PS_FEP$;

  18699 13 001143   000000 236000 xsym               LDQ     PS_FEP$
        13 001144   200024 756100                    STQ     FEP$,,AUTO

      672    18700
      673    18701    5               DO WHILE '1'B; /* OR UNTIL LOCATE ALTRETS */

      674    18702
      675    18703    5                  CALL LOCATE( FEP$, FEP_SIZE,

  18703 13 001145   200017 236100                    LDQ     DISP_INDEX,,AUTO
        13 001146   000023 736000                    QLS     19
        13 001147   000075 036000 14                 ADLQ    61
        13 001150   205013 756100                    STQ     @VALUES+1,,AUTO
        13 001151   200026 630500                    EPPR0   FEP_SIZE,,AUTO
        13 001152   205012 450500                    STP0    @TITLE+1,,AUTO
        13 001153   200024 631500                    EPPR1   FEP$,,AUTO
        13 001154   205011 451500                    STP1    FEPD+209,,AUTO
        13 001155   000003 701000 13                 TSX1    LOCATE
        13 001156   002772 702000 13                 TSX2    NONE_SUCH

      676    18704    5                    FEP_TABLE.ENTID(DISP_INDEX)) ALTRET(NONE_SUCH);
      677    18705    5                  OLD_FEP$ = THIS_OLD_FEP$;

  18705 13 001157   200030 236100                    LDQ     THIS_OLD_FEP$,,AUTO
        13 001160   200025 756100                    STQ     OLD_FEP$,,AUTO

      678    18706    5                  CALL LOCATE( OLD_FEP$, OLD_FEP_SIZE,

  18706 13 001161   200017 236100                    LDQ     DISP_INDEX,,AUTO
        13 001162   000023 736000                    QLS     19
        13 001163   000075 036000 14                 ADLQ    61
        13 001164   205013 756100                    STQ     @VALUES+1,,AUTO
        13 001165   200027 630500                    EPPR0   OLD_FEP_SIZE,,AUTO
        13 001166   205012 450500                    STP0    @TITLE+1,,AUTO
PL6.E3A0      #001=PSD$FEP File=PSD$FEP.:E05TSI                                  WED 07/30/97 04:27 Page:175
        13 001167   200025 631500                    EPPR1   OLD_FEP$,,AUTO
        13 001170   205011 451500                    STP1    FEPD+209,,AUTO
        13 001171   000003 701000 13                 TSX1    LOCATE
        13 001172   002767 702000 13                 TSX2    NONE_MATCHING

      679    18707    5                    FEP_TABLE.ENTID(DISP_INDEX)) ALTRET(NONE_MATCHING);
      680    18708
      681    18709    5                  IF FEP$->PS_FEPSTATS.DISP.BITS(%KH#ENTID_MONITOR)

  18709 13 001173   200024 470500                    LDP0    FEP$,,AUTO
        13 001174   000010 236100                    LDQ     8,,PR0
        13 001175   100000 316007                    CANQ    32768,DL
        13 001176   001264 600000 13                 TZE     s:18723

      682    18710    6                  THEN DO;

      683    18711    6                     CALL SETUP(ITEM, OLD_ITEM, %PS_LCP6STT_MIDLTIME#, 0);

  18711 13 001177   000077 236000 14                 LDQ     63
        13 001200   205014 756100                    STQ     TITLE_LEN+1,,AUTO
        13 001201   000100 236000 14                 LDQ     64
        13 001202   205013 756100                    STQ     @VALUES+1,,AUTO
        13 001203   200033 631500                    EPPR1   OLD_ITEM,,AUTO
        13 001204   205012 451500                    STP1    @TITLE+1,,AUTO
        13 001205   200032 633500                    EPPR3   ITEM,,AUTO
        13 001206   205011 453500                    STP3    FEPD+209,,AUTO
        13 001207   000062 701000 13                 TSX1    SETUP
        13 001210   000000 011000                    NOP     0

      684    18712    6                     IF (ITEM - OLD_ITEM) < 3435973

  18712 13 001211   200032 236100                    LDQ     ITEM,,AUTO
        13 001212   200033 136100                    SBLQ    OLD_ITEM,,AUTO
        13 001213   000101 116000 14                 CMPQ    65
        13 001214   001226 605000 13                 TPL     s:18715

      685    18713    6                     THEN FEP_DATA.IDLE_TIME(PS_FEPNO) = (ITEM-OLD_ITEM) * 100
PL6.E3A0      #001=PSD$FEP File=PSD$FEP.:E05TSI                                  WED 07/30/97 04:27 Page:176

  18713 13 001215   000000 236000 xsym               LDQ     PS_FEPNO
        13 001216   000027 402007                    MPY     23,DL
        13 001217   000000 620006                    EAX0    0,QL
        13 001220   200032 236100                    LDQ     ITEM,,AUTO
        13 001221   200033 136100                    SBLQ    OLD_ITEM,,AUTO
        13 001222   000144 402007                    MPY     100,DL
        13 001223   200006 506100                    DIV     DELTA_TICS_ELAPSED,,AUTO
        13 001224   200121 756110                    STQ     FEP_DATA+21,X0,AUTO
        13 001225   001242 710000 13                 TRA     s:18717

      686    18714    6                       / DELTA_TICS_ELAPSED;
      687    18715    6                     ELSE FEP_DATA.IDLE_TIME(PS_FEPNO) = (ITEM - OLD_ITEM)

  18715 13 001226   000000 236000 xsym               LDQ     PS_FEPNO
        13 001227   000027 402007                    MPY     23,DL
        13 001230   000000 620006                    EAX0    0,QL
        13 001231   200032 236100                    LDQ     ITEM,,AUTO
        13 001232   200033 136100                    SBLQ    OLD_ITEM,,AUTO
        13 001233   205020 756100                    STQ     TEMPCHAR+2,,AUTO
        13 001234   200006 236100                    LDQ     DELTA_TICS_ELAPSED,,AUTO
        13 001235   000144 506007                    DIV     100,DL
        13 001236   205021 756100                    STQ     TEMPCHAR+3,,AUTO
        13 001237   205020 236100                    LDQ     TEMPCHAR+2,,AUTO
        13 001240   205021 506100                    DIV     TEMPCHAR+3,,AUTO
        13 001241   200121 756110                    STQ     FEP_DATA+21,X0,AUTO

      688    18716    6                       / ( DELTA_TICS_ELAPSED / 100);
      689    18717    6                     FEP_DATA.IDLE_TIME(PS_FEPNO) =

  18717 13 001242   200121 235110                    LDA     FEP_DATA+21,X0,AUTO
        13 001243   000027 675000 xsym               ERA     B_VECTNIL+23
        13 001244   000145 035007                    ADLA    101,DL
        13 001245   200121 755110                    STA     FEP_DATA+21,X0,AUTO

      690    18718    6                       100 - FEP_DATA.IDLE_TIME(PS_FEPNO);
      691    18719    6                     CALL SETUP(ITEM, OLD_ITEM, %PS_LCP6STT_PAGES_FRESHF#, 0);
PL6.E3A0      #001=PSD$FEP File=PSD$FEP.:E05TSI                                  WED 07/30/97 04:27 Page:177

  18719 13 001246   000077 236000 14                 LDQ     63
        13 001247   205014 756100                    STQ     TITLE_LEN+1,,AUTO
        13 001250   000103 236000 14                 LDQ     67
        13 001251   205013 756100                    STQ     @VALUES+1,,AUTO
        13 001252   200033 630500                    EPPR0   OLD_ITEM,,AUTO
        13 001253   205012 450500                    STP0    @TITLE+1,,AUTO
        13 001254   200032 631500                    EPPR1   ITEM,,AUTO
        13 001255   205011 451500                    STP1    FEPD+209,,AUTO
        13 001256   000062 701000 13                 TSX1    SETUP
        13 001257   000000 011000                    NOP     0

      692    18720    6                     FEP_DATA.AVAIL_MEM(PS_FEPNO) = ITEM ;

  18720 13 001260   000000 236000 xsym               LDQ     PS_FEPNO
        13 001261   000027 402007                    MPY     23,DL
        13 001262   200032 235100                    LDA     ITEM,,AUTO
        13 001263   200122 755106                    STA     FEP_DATA+22,QL,AUTO

      693    18721    6                  END /* MON for sum */;

      694    18722
      695    18723    5                  IF ( FEP$->PS_FEPSTATS.DISP & PS_FEP_DISP_FLAGS.DISP(PS_FEPNO) )

  18723 13 001264   200024 470500                    LDP0    FEP$,,AUTO
        13 001265   000000 235000 xsym               LDA     PS_FEPNO
        13 001266   000002 735000                    ALS     2
        13 001267   000010 236100                    LDQ     8,,PR0
        13 001270   000000 376005 xsym               ANQ     PS_FEP_DISP_FLAGS,AL
        13 001271   002767 600000 13                 TZE     NONE_MATCHING
        13 001272   000001 236005 xsym               LDQ     PS_FEP_DISP_FLAGS+1,AL
        13 001273   000030 376000 xsym               ANQ     B_VECTNIL+24
        13 001274   001303 600000 13                 TZE     s:18723+15
        13 001275   000000 236000 xsym               LDQ     PS_FEPNO
        13 001276   000004 736000                    QLS     4
        13 001277   040006 106500                    CMPC    fill='040'O
        13 001300   000006 000010                    ADSC9   6,,PR0                   cn=0,n=8
PL6.E3A0      #001=PSD$FEP File=PSD$FEP.:E05TSI                                  WED 07/30/97 04:27 Page:178
        13 001301   000002 000010 xsym               ADSC9   PS_FEP_DISP_FLAGS+2,Q    cn=0,n=8
        13 001302   001311 600000 13                 TZE     s:18730
        13 001303   000001 236005 xsym               LDQ     PS_FEP_DISP_FLAGS+1,AL
        13 001304   000030 376000 xsym               ANQ     B_VECTNIL+24
        13 001305   002767 601000 13                 TNZ     NONE_MATCHING
        13 001306   000011 236100                    LDQ     9,,PR0
        13 001307   000001 376005 xsym               ANQ     PS_FEP_DISP_FLAGS+1,AL
        13 001310   002767 600000 13                 TZE     NONE_MATCHING

      696    18724    5                    AND ( ( ( PS_FEP_DISP_FLAGS.SLCT(PS_FEPNO) & '400000000000'O )
      697    18725    5                    AND ( FEP$->PS_FEPSTATS.HANDLER = PS_FEP_DISP_FLAGS.HANDLER(
             18725                             PS_FEPNO) ) )
      698    18726    5                    OR ( ( NOT PS_FEP_DISP_FLAGS.SLCT(PS_FEPNO) & '400000000000'O )
      699    18727    5                   AND ( FEP$->PS_FEPSTATS.SLCT & PS_FEP_DISP_FLAGS.SLCT(PS_FEPNO) ) )
             18727                             )
      700    18728    6                  THEN DO; /* this type is selected */

      701    18729
      702    18730    6                     IF PS_FEP_DISP_FLAGS.DISP(PS_FEPNO) & '200000000000'O

  18730 13 001311   000000 236005 xsym               LDQ     PS_FEP_DISP_FLAGS,AL
        13 001312   014025 376000 12                 ANQ     PATTERN+1
        13 001313   001316 600000 13                 TZE     s:18732

      703    18731    6                     THEN SHORT_FLAG = '0'B;

  18731 13 001314   000047 450000 11                 STZ     SHORT_FLAG
        13 001315   001320 710000 13                 TRA     s:18734

      704    18732    6                     ELSE SHORT_FLAG = '1'B;

  18732 13 001316   400000 236003                    LDQ     -131072,DU
        13 001317   000047 756000 11                 STQ     SHORT_FLAG

      705    18733
      706    18734    7                     IF FEP$->PS_FEPSTATS.DISP.BITS(%KH#ENTID_VDH) THEN DO;

PL6.E3A0      #001=PSD$FEP File=PSD$FEP.:E05TSI                                  WED 07/30/97 04:27 Page:179
  18734 13 001320   000010 236100                    LDQ     8,,PR0
        13 001321   000010 316003                    CANQ    8,DU
        13 001322   001770 600000 13                 TZE     s:18797

      707    18735
      708    18736    7                        IF FEP$->PS_FEPSTATS.SLCT.BITS(%KH#ENTID_ASYNC)

  18736 13 001323   000011 236100                    LDQ     9,,PR0
        13 001324   010000 316003                    CANQ    4096,DU
        13 001325   001435 600000 13                 TZE     s:18751

      709    18737    8                        THEN DO;

      710    18738    8                           CALL SETUP(ITEM, OLD_ITEM,

  18738 13 001326   000077 236000 14                 LDQ     63
        13 001327   205014 756100                    STQ     TITLE_LEN+1,,AUTO
        13 001330   000105 236000 14                 LDQ     69
        13 001331   205013 756100                    STQ     @VALUES+1,,AUTO
        13 001332   200033 631500                    EPPR1   OLD_ITEM,,AUTO
        13 001333   205012 451500                    STP1    @TITLE+1,,AUTO
        13 001334   200032 633500                    EPPR3   ITEM,,AUTO
        13 001335   205011 453500                    STP3    FEPD+209,,AUTO
        13 001336   000062 701000 13                 TSX1    SETUP
        13 001337   000000 011000                    NOP     0

      711    18739    8                             %(KV$STT_BFRCNT#+KV_STRTYP_VDI), 0);
      712    18740    8                           FEP_DATA.ASYNC_TERMINALS(PS_FEPNO) =

  18740 13 001340   000000 236000 xsym               LDQ     PS_FEPNO
        13 001341   000027 402007                    MPY     23,DL
        13 001342   000000 620006                    EAX0    0,QL
        13 001343   200074 236106                    LDQ     FEP_DATA,QL,AUTO
        13 001344   200032 036100                    ADLQ    ITEM,,AUTO
        13 001345   200074 756110                    STQ     FEP_DATA,X0,AUTO

      713    18741    8                             FEP_DATA.ASYNC_TERMINALS(PS_FEPNO) + ITEM;
PL6.E3A0      #001=PSD$FEP File=PSD$FEP.:E05TSI                                  WED 07/30/97 04:27 Page:180
      714    18742    8                           CALL SETUP(ITEM,OLD_ITEM, %KV$STT_OTPCHRCNT#, 0);

  18742 13 001346   000077 236000 14                 LDQ     63
        13 001347   205014 756100                    STQ     TITLE_LEN+1,,AUTO
        13 001350   000107 236000 14                 LDQ     71
        13 001351   205013 756100                    STQ     @VALUES+1,,AUTO
        13 001352   200033 630500                    EPPR0   OLD_ITEM,,AUTO
        13 001353   205012 450500                    STP0    @TITLE+1,,AUTO
        13 001354   200032 631500                    EPPR1   ITEM,,AUTO
        13 001355   205011 451500                    STP1    FEPD+209,,AUTO
        13 001356   000062 701000 13                 TSX1    SETUP
        13 001357   000000 011000                    NOP     0

      715    18743    8                           CALL CRUNCHUP(FEP_DATA.ASYNC_OUTPUT(PS_FEPNO),

  18743 13 001360   200032 236100                    LDQ     ITEM,,AUTO
        13 001361   200033 136100                    SBLQ    OLD_ITEM,,AUTO
        13 001362   205036 756100                    STQ     TEMPCHAR+16,,AUTO
        13 001363   000003 236000 14                 LDQ     3
        13 001364   205015 756100                    STQ     IP+1,,AUTO
        13 001365   200006 630500                    EPPR0   DELTA_TICS_ELAPSED,,AUTO
        13 001366   205014 450500                    STP0    TITLE_LEN+1,,AUTO
        13 001367   000001 236000 14                 LDQ     1
        13 001370   205013 756100                    STQ     @VALUES+1,,AUTO
        13 001371   205036 631500                    EPPR1   TEMPCHAR+16,,AUTO
        13 001372   205012 451500                    STP1    @TITLE+1,,AUTO
        13 001373   000000 236000 xsym               LDQ     PS_FEPNO
        13 001374   000027 402007                    MPY     23,DL
        13 001375   200075 633506                    EPPR3   FEP_DATA+1,QL,AUTO
        13 001376   205011 453500                    STP3    FEPD+209,,AUTO
        13 001377   000250 701000 13                 TSX1    CRUNCHUP
        13 001400   000000 011000                    NOP     0

      716    18744    8                             ITEM-OLD_ITEM, 1,
      717    18745    8                             DELTA_TICS_ELAPSED, %FEP_TICS_PER_MINUTE);
      718    18746    8                           CALL SETUP(ITEM, OLD_ITEM, %KV$STT_INPCHRCNT#, 0);

PL6.E3A0      #001=PSD$FEP File=PSD$FEP.:E05TSI                                  WED 07/30/97 04:27 Page:181
  18746 13 001401   000077 236000 14                 LDQ     63
        13 001402   205014 756100                    STQ     TITLE_LEN+1,,AUTO
        13 001403   000111 236000 14                 LDQ     73
        13 001404   205013 756100                    STQ     @VALUES+1,,AUTO
        13 001405   200033 630500                    EPPR0   OLD_ITEM,,AUTO
        13 001406   205012 450500                    STP0    @TITLE+1,,AUTO
        13 001407   200032 631500                    EPPR1   ITEM,,AUTO
        13 001410   205011 451500                    STP1    FEPD+209,,AUTO
        13 001411   000062 701000 13                 TSX1    SETUP
        13 001412   000000 011000                    NOP     0

      719    18747    8                           CALL CRUNCHUP(FEP_DATA.ASYNC_INPUT(PS_FEPNO),

  18747 13 001413   200032 236100                    LDQ     ITEM,,AUTO
        13 001414   200033 136100                    SBLQ    OLD_ITEM,,AUTO
        13 001415   205037 756100                    STQ     TEMPCHAR+17,,AUTO
        13 001416   000003 236000 14                 LDQ     3
        13 001417   205015 756100                    STQ     IP+1,,AUTO
        13 001420   200006 630500                    EPPR0   DELTA_TICS_ELAPSED,,AUTO
        13 001421   205014 450500                    STP0    TITLE_LEN+1,,AUTO
        13 001422   000001 236000 14                 LDQ     1
        13 001423   205013 756100                    STQ     @VALUES+1,,AUTO
        13 001424   205037 631500                    EPPR1   TEMPCHAR+17,,AUTO
        13 001425   205012 451500                    STP1    @TITLE+1,,AUTO
        13 001426   000000 236000 xsym               LDQ     PS_FEPNO
        13 001427   000027 402007                    MPY     23,DL
        13 001430   200076 633506                    EPPR3   FEP_DATA+2,QL,AUTO
        13 001431   205011 453500                    STP3    FEPD+209,,AUTO
        13 001432   000250 701000 13                 TSX1    CRUNCHUP
        13 001433   000000 011000                    NOP     0

      720    18748    8                             ITEM-OLD_ITEM, 1,
      721    18749    8                             DELTA_TICS_ELAPSED, %FEP_TICS_PER_MINUTE);
      722    18750    8                        END;

  18750 13 001434   002100 710000 13                 TRA     s:18812

PL6.E3A0      #001=PSD$FEP File=PSD$FEP.:E05TSI                                  WED 07/30/97 04:27 Page:182
      723    18751    7                        ELSE IF FEP$->PS_FEPSTATS.SLCT.BITS(%KH#ENTID_RBT)

  18751 13 001435   000040 316003                    CANQ    32,DU
        13 001436   001546 600000 13                 TZE     s:18766

      724    18752    8                        THEN DO;

      725    18753    8                           CALL SETUP(ITEM, OLD_ITEM,

  18753 13 001437   000077 236000 14                 LDQ     63
        13 001440   205014 756100                    STQ     TITLE_LEN+1,,AUTO
        13 001441   000105 236000 14                 LDQ     69
        13 001442   205013 756100                    STQ     @VALUES+1,,AUTO
        13 001443   200033 631500                    EPPR1   OLD_ITEM,,AUTO
        13 001444   205012 451500                    STP1    @TITLE+1,,AUTO
        13 001445   200032 633500                    EPPR3   ITEM,,AUTO
        13 001446   205011 453500                    STP3    FEPD+209,,AUTO
        13 001447   000062 701000 13                 TSX1    SETUP
        13 001450   000000 011000                    NOP     0

      726    18754    8                             %(KV$STT_BFRCNT#+KV_STRTYP_VDI), 0);
      727    18755    8                           FEP_DATA.RBT_TERMINALS(PS_FEPNO) =

  18755 13 001451   000000 236000 xsym               LDQ     PS_FEPNO
        13 001452   000027 402007                    MPY     23,DL
        13 001453   000000 620006                    EAX0    0,QL
        13 001454   200077 236106                    LDQ     FEP_DATA+3,QL,AUTO
        13 001455   200032 036100                    ADLQ    ITEM,,AUTO
        13 001456   200077 756110                    STQ     FEP_DATA+3,X0,AUTO

      728    18756    8                             FEP_DATA.RBT_TERMINALS(PS_FEPNO) + ITEM;
      729    18757    8                           CALL SETUP(ITEM,OLD_ITEM, %KV$STT_OTPCHRCNT#, 0);

  18757 13 001457   000077 236000 14                 LDQ     63
        13 001460   205014 756100                    STQ     TITLE_LEN+1,,AUTO
        13 001461   000107 236000 14                 LDQ     71
        13 001462   205013 756100                    STQ     @VALUES+1,,AUTO
PL6.E3A0      #001=PSD$FEP File=PSD$FEP.:E05TSI                                  WED 07/30/97 04:27 Page:183
        13 001463   200033 630500                    EPPR0   OLD_ITEM,,AUTO
        13 001464   205012 450500                    STP0    @TITLE+1,,AUTO
        13 001465   200032 631500                    EPPR1   ITEM,,AUTO
        13 001466   205011 451500                    STP1    FEPD+209,,AUTO
        13 001467   000062 701000 13                 TSX1    SETUP
        13 001470   000000 011000                    NOP     0

      730    18758    8                           CALL CRUNCHUP(FEP_DATA.RBT_OUTPUT(PS_FEPNO),

  18758 13 001471   200032 236100                    LDQ     ITEM,,AUTO
        13 001472   200033 136100                    SBLQ    OLD_ITEM,,AUTO
        13 001473   205040 756100                    STQ     TEMPCHAR+18,,AUTO
        13 001474   000003 236000 14                 LDQ     3
        13 001475   205015 756100                    STQ     IP+1,,AUTO
        13 001476   200006 630500                    EPPR0   DELTA_TICS_ELAPSED,,AUTO
        13 001477   205014 450500                    STP0    TITLE_LEN+1,,AUTO
        13 001500   000001 236000 14                 LDQ     1
        13 001501   205013 756100                    STQ     @VALUES+1,,AUTO
        13 001502   205040 631500                    EPPR1   TEMPCHAR+18,,AUTO
        13 001503   205012 451500                    STP1    @TITLE+1,,AUTO
        13 001504   000000 236000 xsym               LDQ     PS_FEPNO
        13 001505   000027 402007                    MPY     23,DL
        13 001506   200100 633506                    EPPR3   FEP_DATA+4,QL,AUTO
        13 001507   205011 453500                    STP3    FEPD+209,,AUTO
        13 001510   000250 701000 13                 TSX1    CRUNCHUP
        13 001511   000000 011000                    NOP     0

      731    18759    8                             ITEM-OLD_ITEM, 1,
      732    18760    8                             DELTA_TICS_ELAPSED, %FEP_TICS_PER_MINUTE);
      733    18761    8                           CALL SETUP(ITEM, OLD_ITEM, %KV$STT_INPCHRCNT#, 0);

  18761 13 001512   000077 236000 14                 LDQ     63
        13 001513   205014 756100                    STQ     TITLE_LEN+1,,AUTO
        13 001514   000111 236000 14                 LDQ     73
        13 001515   205013 756100                    STQ     @VALUES+1,,AUTO
        13 001516   200033 630500                    EPPR0   OLD_ITEM,,AUTO
        13 001517   205012 450500                    STP0    @TITLE+1,,AUTO
PL6.E3A0      #001=PSD$FEP File=PSD$FEP.:E05TSI                                  WED 07/30/97 04:27 Page:184
        13 001520   200032 631500                    EPPR1   ITEM,,AUTO
        13 001521   205011 451500                    STP1    FEPD+209,,AUTO
        13 001522   000062 701000 13                 TSX1    SETUP
        13 001523   000000 011000                    NOP     0

      734    18762    8                           CALL CRUNCHUP(FEP_DATA.RBT_INPUT(PS_FEPNO),

  18762 13 001524   200032 236100                    LDQ     ITEM,,AUTO
        13 001525   200033 136100                    SBLQ    OLD_ITEM,,AUTO
        13 001526   205041 756100                    STQ     TEMPCHAR+19,,AUTO
        13 001527   000003 236000 14                 LDQ     3
        13 001530   205015 756100                    STQ     IP+1,,AUTO
        13 001531   200006 630500                    EPPR0   DELTA_TICS_ELAPSED,,AUTO
        13 001532   205014 450500                    STP0    TITLE_LEN+1,,AUTO
        13 001533   000001 236000 14                 LDQ     1
        13 001534   205013 756100                    STQ     @VALUES+1,,AUTO
        13 001535   205041 631500                    EPPR1   TEMPCHAR+19,,AUTO
        13 001536   205012 451500                    STP1    @TITLE+1,,AUTO
        13 001537   000000 236000 xsym               LDQ     PS_FEPNO
        13 001540   000027 402007                    MPY     23,DL
        13 001541   200101 633506                    EPPR3   FEP_DATA+5,QL,AUTO
        13 001542   205011 453500                    STP3    FEPD+209,,AUTO
        13 001543   000250 701000 13                 TSX1    CRUNCHUP
        13 001544   000000 011000                    NOP     0

      735    18763    8                             ITEM-OLD_ITEM, 1,
      736    18764    8                             DELTA_TICS_ELAPSED, %FEP_TICS_PER_MINUTE);
      737    18765    8                        END;

  18765 13 001545   002100 710000 13                 TRA     s:18812

      738    18766    7                        ELSE IF FEP$->PS_FEPSTATS.SLCT.BITS(%KH#ENTID_URP)

  18766 13 001546   000400 316003                    CANQ    256,DU
        13 001547   001657 600000 13                 TZE     s:18781

      739    18767    8                        THEN DO;
PL6.E3A0      #001=PSD$FEP File=PSD$FEP.:E05TSI                                  WED 07/30/97 04:27 Page:185

      740    18768    8                           CALL SETUP(ITEM, OLD_ITEM,

  18768 13 001550   000077 236000 14                 LDQ     63
        13 001551   205014 756100                    STQ     TITLE_LEN+1,,AUTO
        13 001552   000105 236000 14                 LDQ     69
        13 001553   205013 756100                    STQ     @VALUES+1,,AUTO
        13 001554   200033 631500                    EPPR1   OLD_ITEM,,AUTO
        13 001555   205012 451500                    STP1    @TITLE+1,,AUTO
        13 001556   200032 633500                    EPPR3   ITEM,,AUTO
        13 001557   205011 453500                    STP3    FEPD+209,,AUTO
        13 001560   000062 701000 13                 TSX1    SETUP
        13 001561   000000 011000                    NOP     0

      741    18769    8                             %(KV$STT_BFRCNT#+KV_STRTYP_VDI), 0);
      742    18770    8                           FEP_DATA.URP_TERMINALS(PS_FEPNO) =

  18770 13 001562   000000 236000 xsym               LDQ     PS_FEPNO
        13 001563   000027 402007                    MPY     23,DL
        13 001564   000000 620006                    EAX0    0,QL
        13 001565   200102 236106                    LDQ     FEP_DATA+6,QL,AUTO
        13 001566   200032 036100                    ADLQ    ITEM,,AUTO
        13 001567   200102 756110                    STQ     FEP_DATA+6,X0,AUTO

      743    18771    8                             FEP_DATA.URP_TERMINALS(PS_FEPNO) + ITEM;
      744    18772    8                           CALL SETUP(ITEM,OLD_ITEM, %KV$STT_OTPCHRCNT#, 0);

  18772 13 001570   000077 236000 14                 LDQ     63
        13 001571   205014 756100                    STQ     TITLE_LEN+1,,AUTO
        13 001572   000107 236000 14                 LDQ     71
        13 001573   205013 756100                    STQ     @VALUES+1,,AUTO
        13 001574   200033 630500                    EPPR0   OLD_ITEM,,AUTO
        13 001575   205012 450500                    STP0    @TITLE+1,,AUTO
        13 001576   200032 631500                    EPPR1   ITEM,,AUTO
        13 001577   205011 451500                    STP1    FEPD+209,,AUTO
        13 001600   000062 701000 13                 TSX1    SETUP
        13 001601   000000 011000                    NOP     0
PL6.E3A0      #001=PSD$FEP File=PSD$FEP.:E05TSI                                  WED 07/30/97 04:27 Page:186

      745    18773    8                           CALL CRUNCHUP(FEP_DATA.URP_OUTPUT(PS_FEPNO),

  18773 13 001602   200032 236100                    LDQ     ITEM,,AUTO
        13 001603   200033 136100                    SBLQ    OLD_ITEM,,AUTO
        13 001604   205042 756100                    STQ     TEMPCHAR+20,,AUTO
        13 001605   000003 236000 14                 LDQ     3
        13 001606   205015 756100                    STQ     IP+1,,AUTO
        13 001607   200006 630500                    EPPR0   DELTA_TICS_ELAPSED,,AUTO
        13 001610   205014 450500                    STP0    TITLE_LEN+1,,AUTO
        13 001611   000001 236000 14                 LDQ     1
        13 001612   205013 756100                    STQ     @VALUES+1,,AUTO
        13 001613   205042 631500                    EPPR1   TEMPCHAR+20,,AUTO
        13 001614   205012 451500                    STP1    @TITLE+1,,AUTO
        13 001615   000000 236000 xsym               LDQ     PS_FEPNO
        13 001616   000027 402007                    MPY     23,DL
        13 001617   200103 633506                    EPPR3   FEP_DATA+7,QL,AUTO
        13 001620   205011 453500                    STP3    FEPD+209,,AUTO
        13 001621   000250 701000 13                 TSX1    CRUNCHUP
        13 001622   000000 011000                    NOP     0

      746    18774    8                             ITEM-OLD_ITEM, 1,
      747    18775    8                             DELTA_TICS_ELAPSED, %FEP_TICS_PER_MINUTE);
      748    18776    8                           CALL SETUP(ITEM, OLD_ITEM, %KV$STT_INPCHRCNT#, 0);

  18776 13 001623   000077 236000 14                 LDQ     63
        13 001624   205014 756100                    STQ     TITLE_LEN+1,,AUTO
        13 001625   000111 236000 14                 LDQ     73
        13 001626   205013 756100                    STQ     @VALUES+1,,AUTO
        13 001627   200033 630500                    EPPR0   OLD_ITEM,,AUTO
        13 001630   205012 450500                    STP0    @TITLE+1,,AUTO
        13 001631   200032 631500                    EPPR1   ITEM,,AUTO
        13 001632   205011 451500                    STP1    FEPD+209,,AUTO
        13 001633   000062 701000 13                 TSX1    SETUP
        13 001634   000000 011000                    NOP     0

      749    18777    8                           CALL CRUNCHUP(FEP_DATA.URP_INPUT(PS_FEPNO),
PL6.E3A0      #001=PSD$FEP File=PSD$FEP.:E05TSI                                  WED 07/30/97 04:27 Page:187

  18777 13 001635   200032 236100                    LDQ     ITEM,,AUTO
        13 001636   200033 136100                    SBLQ    OLD_ITEM,,AUTO
        13 001637   205043 756100                    STQ     TEMPCHAR+21,,AUTO
        13 001640   000003 236000 14                 LDQ     3
        13 001641   205015 756100                    STQ     IP+1,,AUTO
        13 001642   200006 630500                    EPPR0   DELTA_TICS_ELAPSED,,AUTO
        13 001643   205014 450500                    STP0    TITLE_LEN+1,,AUTO
        13 001644   000001 236000 14                 LDQ     1
        13 001645   205013 756100                    STQ     @VALUES+1,,AUTO
        13 001646   205043 631500                    EPPR1   TEMPCHAR+21,,AUTO
        13 001647   205012 451500                    STP1    @TITLE+1,,AUTO
        13 001650   000000 236000 xsym               LDQ     PS_FEPNO
        13 001651   000027 402007                    MPY     23,DL
        13 001652   200104 633506                    EPPR3   FEP_DATA+8,QL,AUTO
        13 001653   205011 453500                    STP3    FEPD+209,,AUTO
        13 001654   000250 701000 13                 TSX1    CRUNCHUP
        13 001655   000000 011000                    NOP     0

      750    18778    8                             ITEM-OLD_ITEM, 1,
      751    18779    8                             DELTA_TICS_ELAPSED, %FEP_TICS_PER_MINUTE);
      752    18780    8                        END;

  18780 13 001656   002100 710000 13                 TRA     s:18812

      753    18781    7                        ELSE IF

  18781 13 001657   000200 316003                    CANQ    128,DU
        13 001660   002100 600000 13                 TZE     s:18812

      754    18782    8                          FEP$->PS_FEPSTATS.SLCT.BITS(%KH#ENTID_3270) THEN DO;

      755    18783    8                           CALL SETUP(ITEM, OLD_ITEM,

  18783 13 001661   000077 236000 14                 LDQ     63
        13 001662   205014 756100                    STQ     TITLE_LEN+1,,AUTO
        13 001663   000105 236000 14                 LDQ     69
PL6.E3A0      #001=PSD$FEP File=PSD$FEP.:E05TSI                                  WED 07/30/97 04:27 Page:188
        13 001664   205013 756100                    STQ     @VALUES+1,,AUTO
        13 001665   200033 631500                    EPPR1   OLD_ITEM,,AUTO
        13 001666   205012 451500                    STP1    @TITLE+1,,AUTO
        13 001667   200032 633500                    EPPR3   ITEM,,AUTO
        13 001670   205011 453500                    STP3    FEPD+209,,AUTO
        13 001671   000062 701000 13                 TSX1    SETUP
        13 001672   000000 011000                    NOP     0

      756    18784    8                             %(KV$STT_BFRCNT#+KV_STRTYP_VDI), 0);
      757    18785    8                           FEP_DATA.T3270_TERMINALS(PS_FEPNO) =

  18785 13 001673   000000 236000 xsym               LDQ     PS_FEPNO
        13 001674   000027 402007                    MPY     23,DL
        13 001675   000000 620006                    EAX0    0,QL
        13 001676   200105 236106                    LDQ     FEP_DATA+9,QL,AUTO
        13 001677   200032 036100                    ADLQ    ITEM,,AUTO
        13 001700   200105 756110                    STQ     FEP_DATA+9,X0,AUTO

      758    18786    8                             FEP_DATA.T3270_TERMINALS(PS_FEPNO) + ITEM;
      759    18787    8                           CALL SETUP(ITEM,OLD_ITEM, %KV$STT_OTPCHRCNT#, 0);

  18787 13 001701   000077 236000 14                 LDQ     63
        13 001702   205014 756100                    STQ     TITLE_LEN+1,,AUTO
        13 001703   000107 236000 14                 LDQ     71
        13 001704   205013 756100                    STQ     @VALUES+1,,AUTO
        13 001705   200033 630500                    EPPR0   OLD_ITEM,,AUTO
        13 001706   205012 450500                    STP0    @TITLE+1,,AUTO
        13 001707   200032 631500                    EPPR1   ITEM,,AUTO
        13 001710   205011 451500                    STP1    FEPD+209,,AUTO
        13 001711   000062 701000 13                 TSX1    SETUP
        13 001712   000000 011000                    NOP     0

      760    18788    8                           CALL CRUNCHUP(FEP_DATA.T3270_OUTPUT(PS_FEPNO),

  18788 13 001713   200032 236100                    LDQ     ITEM,,AUTO
        13 001714   200033 136100                    SBLQ    OLD_ITEM,,AUTO
        13 001715   205044 756100                    STQ     TEMPCHAR+22,,AUTO
PL6.E3A0      #001=PSD$FEP File=PSD$FEP.:E05TSI                                  WED 07/30/97 04:27 Page:189
        13 001716   000003 236000 14                 LDQ     3
        13 001717   205015 756100                    STQ     IP+1,,AUTO
        13 001720   200006 630500                    EPPR0   DELTA_TICS_ELAPSED,,AUTO
        13 001721   205014 450500                    STP0    TITLE_LEN+1,,AUTO
        13 001722   000001 236000 14                 LDQ     1
        13 001723   205013 756100                    STQ     @VALUES+1,,AUTO
        13 001724   205044 631500                    EPPR1   TEMPCHAR+22,,AUTO
        13 001725   205012 451500                    STP1    @TITLE+1,,AUTO
        13 001726   000000 236000 xsym               LDQ     PS_FEPNO
        13 001727   000027 402007                    MPY     23,DL
        13 001730   200106 633506                    EPPR3   FEP_DATA+10,QL,AUTO
        13 001731   205011 453500                    STP3    FEPD+209,,AUTO
        13 001732   000250 701000 13                 TSX1    CRUNCHUP
        13 001733   000000 011000                    NOP     0

      761    18789    8                             ITEM-OLD_ITEM, 1,
      762    18790    8                             DELTA_TICS_ELAPSED, %FEP_TICS_PER_MINUTE);
      763    18791    8                           CALL SETUP(ITEM, OLD_ITEM, %KV$STT_INPCHRCNT#, 0);

  18791 13 001734   000077 236000 14                 LDQ     63
        13 001735   205014 756100                    STQ     TITLE_LEN+1,,AUTO
        13 001736   000111 236000 14                 LDQ     73
        13 001737   205013 756100                    STQ     @VALUES+1,,AUTO
        13 001740   200033 630500                    EPPR0   OLD_ITEM,,AUTO
        13 001741   205012 450500                    STP0    @TITLE+1,,AUTO
        13 001742   200032 631500                    EPPR1   ITEM,,AUTO
        13 001743   205011 451500                    STP1    FEPD+209,,AUTO
        13 001744   000062 701000 13                 TSX1    SETUP
        13 001745   000000 011000                    NOP     0

      764    18792    8                           CALL CRUNCHUP(FEP_DATA.T3270_INPUT(PS_FEPNO),

  18792 13 001746   200032 236100                    LDQ     ITEM,,AUTO
        13 001747   200033 136100                    SBLQ    OLD_ITEM,,AUTO
        13 001750   205045 756100                    STQ     TEMPCHAR+23,,AUTO
        13 001751   000003 236000 14                 LDQ     3
        13 001752   205015 756100                    STQ     IP+1,,AUTO
PL6.E3A0      #001=PSD$FEP File=PSD$FEP.:E05TSI                                  WED 07/30/97 04:27 Page:190
        13 001753   200006 630500                    EPPR0   DELTA_TICS_ELAPSED,,AUTO
        13 001754   205014 450500                    STP0    TITLE_LEN+1,,AUTO
        13 001755   000001 236000 14                 LDQ     1
        13 001756   205013 756100                    STQ     @VALUES+1,,AUTO
        13 001757   205045 631500                    EPPR1   TEMPCHAR+23,,AUTO
        13 001760   205012 451500                    STP1    @TITLE+1,,AUTO
        13 001761   000000 236000 xsym               LDQ     PS_FEPNO
        13 001762   000027 402007                    MPY     23,DL
        13 001763   200107 633506                    EPPR3   FEP_DATA+11,QL,AUTO
        13 001764   205011 453500                    STP3    FEPD+209,,AUTO
        13 001765   000250 701000 13                 TSX1    CRUNCHUP
        13 001766   000000 011000                    NOP     0

      765    18793    8                             ITEM-OLD_ITEM, 1,
      766    18794    8                             DELTA_TICS_ELAPSED, %FEP_TICS_PER_MINUTE);
      767    18795    8                        END;

      768    18796    7                     END /* VDH for sum */;

  18796 13 001767   002100 710000 13                 TRA     s:18812

      769    18797    6                     ELSE IF

  18797 13 001770   000010 430100                    FSZN    8,,PR0
        13 001771   002100 605000 13                 TPL     s:18812

      770    18798    7                       FEP$->PS_FEPSTATS.DISP.BITS(%KH#ENTID_HDLC) THEN DO;

      771    18799    7                        CALL SETUP(ITEM, OLD_ITEM,

  18799 13 001772   000077 236000 14                 LDQ     63
        13 001773   205014 756100                    STQ     TITLE_LEN+1,,AUTO
        13 001774   000112 236000 14                 LDQ     74
        13 001775   205013 756100                    STQ     @VALUES+1,,AUTO
        13 001776   200033 631500                    EPPR1   OLD_ITEM,,AUTO
        13 001777   205012 451500                    STP1    @TITLE+1,,AUTO
        13 002000   200032 633500                    EPPR3   ITEM,,AUTO
PL6.E3A0      #001=PSD$FEP File=PSD$FEP.:E05TSI                                  WED 07/30/97 04:27 Page:191
        13 002001   205011 453500                    STP3    FEPD+209,,AUTO
        13 002002   000062 701000 13                 TSX1    SETUP
        13 002003   000000 011000                    NOP     0

      772    18800    7                          %KX_HDLC_LINES#, 0);
      773    18801    7                        FEP_DATA.HDLC_TERMINALS(PS_FEPNO) =

  18801 13 002004   000000 236000 xsym               LDQ     PS_FEPNO
        13 002005   000027 402007                    MPY     23,DL
        13 002006   000000 620006                    EAX0    0,QL
        13 002007   200110 236106                    LDQ     FEP_DATA+12,QL,AUTO
        13 002010   200032 036100                    ADLQ    ITEM,,AUTO
        13 002011   200110 756110                    STQ     FEP_DATA+12,X0,AUTO

      774    18802    7                          FEP_DATA.HDLC_TERMINALS(PS_FEPNO) + ITEM;
      775    18803    7                        CALL SETUP(ITEM,OLD_ITEM, %KX_HDLC_BYTES_OUT#, 0);

  18803 13 002012   000077 236000 14                 LDQ     63
        13 002013   205014 756100                    STQ     TITLE_LEN+1,,AUTO
        13 002014   000114 236000 14                 LDQ     76
        13 002015   205013 756100                    STQ     @VALUES+1,,AUTO
        13 002016   200033 630500                    EPPR0   OLD_ITEM,,AUTO
        13 002017   205012 450500                    STP0    @TITLE+1,,AUTO
        13 002020   200032 631500                    EPPR1   ITEM,,AUTO
        13 002021   205011 451500                    STP1    FEPD+209,,AUTO
        13 002022   000062 701000 13                 TSX1    SETUP
        13 002023   000000 011000                    NOP     0

      776    18804    7                        CALL CRUNCHUP(FEP_DATA.HDLC_OUTPUT(PS_FEPNO),

  18804 13 002024   200032 236100                    LDQ     ITEM,,AUTO
        13 002025   200033 136100                    SBLQ    OLD_ITEM,,AUTO
        13 002026   205046 756100                    STQ     TEMPCHAR+24,,AUTO
        13 002027   000003 236000 14                 LDQ     3
        13 002030   205015 756100                    STQ     IP+1,,AUTO
        13 002031   200006 630500                    EPPR0   DELTA_TICS_ELAPSED,,AUTO
        13 002032   205014 450500                    STP0    TITLE_LEN+1,,AUTO
PL6.E3A0      #001=PSD$FEP File=PSD$FEP.:E05TSI                                  WED 07/30/97 04:27 Page:192
        13 002033   000001 236000 14                 LDQ     1
        13 002034   205013 756100                    STQ     @VALUES+1,,AUTO
        13 002035   205046 631500                    EPPR1   TEMPCHAR+24,,AUTO
        13 002036   205012 451500                    STP1    @TITLE+1,,AUTO
        13 002037   000000 236000 xsym               LDQ     PS_FEPNO
        13 002040   000027 402007                    MPY     23,DL
        13 002041   200111 633506                    EPPR3   FEP_DATA+13,QL,AUTO
        13 002042   205011 453500                    STP3    FEPD+209,,AUTO
        13 002043   000250 701000 13                 TSX1    CRUNCHUP
        13 002044   000000 011000                    NOP     0

      777    18805    7                          ITEM-OLD_ITEM, 1,
      778    18806    7                          DELTA_TICS_ELAPSED, %FEP_TICS_PER_MINUTE);
      779    18807    7                        CALL SETUP(ITEM, OLD_ITEM, %KX_HDLC_BYTES_IN#, 0);

  18807 13 002045   000077 236000 14                 LDQ     63
        13 002046   205014 756100                    STQ     TITLE_LEN+1,,AUTO
        13 002047   000116 236000 14                 LDQ     78
        13 002050   205013 756100                    STQ     @VALUES+1,,AUTO
        13 002051   200033 630500                    EPPR0   OLD_ITEM,,AUTO
        13 002052   205012 450500                    STP0    @TITLE+1,,AUTO
        13 002053   200032 631500                    EPPR1   ITEM,,AUTO
        13 002054   205011 451500                    STP1    FEPD+209,,AUTO
        13 002055   000062 701000 13                 TSX1    SETUP
        13 002056   000000 011000                    NOP     0

      780    18808    7                        CALL CRUNCHUP(FEP_DATA.HDLC_INPUT(PS_FEPNO),

  18808 13 002057   200032 236100                    LDQ     ITEM,,AUTO
        13 002060   200033 136100                    SBLQ    OLD_ITEM,,AUTO
        13 002061   205047 756100                    STQ     TEMPCHAR+25,,AUTO
        13 002062   000003 236000 14                 LDQ     3
        13 002063   205015 756100                    STQ     IP+1,,AUTO
        13 002064   200006 630500                    EPPR0   DELTA_TICS_ELAPSED,,AUTO
        13 002065   205014 450500                    STP0    TITLE_LEN+1,,AUTO
        13 002066   000001 236000 14                 LDQ     1
        13 002067   205013 756100                    STQ     @VALUES+1,,AUTO
PL6.E3A0      #001=PSD$FEP File=PSD$FEP.:E05TSI                                  WED 07/30/97 04:27 Page:193
        13 002070   205047 631500                    EPPR1   TEMPCHAR+25,,AUTO
        13 002071   205012 451500                    STP1    @TITLE+1,,AUTO
        13 002072   000000 236000 xsym               LDQ     PS_FEPNO
        13 002073   000027 402007                    MPY     23,DL
        13 002074   200112 633506                    EPPR3   FEP_DATA+14,QL,AUTO
        13 002075   205011 453500                    STP3    FEPD+209,,AUTO
        13 002076   000250 701000 13                 TSX1    CRUNCHUP
        13 002077   000000 011000                    NOP     0

      781    18809    7                          ITEM-OLD_ITEM, 1,
      782    18810    7                          DELTA_TICS_ELAPSED, %FEP_TICS_PER_MINUTE);
      783    18811    7                     END;

      784    18812    6                     IF NOT PS_FEP_DISP_FLAGS.DISP(PS_FEPNO) & '400000000000'O

  18812 13 002100   000000 235000 xsym               LDA     PS_FEPNO
        13 002101   000002 735000                    ALS     2
        13 002102   000000 236005 xsym               LDQ     PS_FEP_DISP_FLAGS,AL
        13 002103   000030 376000 xsym               ANQ     B_VECTNIL+24
        13 002104   002767 601000 13                 TNZ     NONE_MATCHING

      785    18813    7                     THEN DO; /* full FEP display */

      786    18814
      787    18815
      788    18816    7                        ITEM_COUNT = 0;

  18816 13 002105   200040 450100                    STZ     ITEM_COUNT,,AUTO

      789    18817    7                        CALL SET_ITEM(FEP$->UBIN_(%KL_REQSTATS_HANDLER#));

  18817 13 002106   200024 236100                    LDQ     FEP$,,AUTO
        13 002107   000006 036003                    ADLQ    6,DU
        13 002110   205011 756100                    STQ     FEPD+209,,AUTO
        13 002111   000144 701000 13                 TSX1    SET_ITEM
        13 002112   000000 011000                    NOP     0

PL6.E3A0      #001=PSD$FEP File=PSD$FEP.:E05TSI                                  WED 07/30/97 04:27 Page:194
      790    18818    7                        CALL SET_ITEM(FEP$->UBIN_(%KL_REQSTATS_HANDLER#+1));

  18818 13 002113   200024 236100                    LDQ     FEP$,,AUTO
        13 002114   000007 036003                    ADLQ    7,DU
        13 002115   205011 756100                    STQ     FEPD+209,,AUTO
        13 002116   000144 701000 13                 TSX1    SET_ITEM
        13 002117   000000 011000                    NOP     0

      791    18819
      792    18820    7                        TABLE$ = FEP_TABLE.TBLPTR$(DISP_INDEX);

  18820 13 002120   200017 235100                    LDA     DISP_INDEX,,AUTO
        13 002121   000001 735000                    ALS     1
        13 002122   013767 236005 12                 LDQ     FEP_DISPLAY_TBL+1,AL
        13 002123   200020 756100                    STQ     TABLE$,,AUTO

      793    18821
      794    18822    7                        GROUP_HEAD$ = ADDR(NIL);

  18822 13 002124   000001 236000 xsym               LDQ     B_VECTNIL+1
        13 002125   200031 756100                    STQ     GROUP_HEAD$,,AUTO

      795    18823    8                        DO WHILE TABLE$~=ADDR(NIL);

  18823 13 002126   002764 710000 13                 TRA     s:18960

      796    18824    9                           DO CASE (FEP_ITEM.TYPE#);

  18824 13 002127   200020 470500                    LDP0    TABLE$,,AUTO
        13 002130   000000 236100                    LDQ     0,,PR0
        13 002131   000033 732000                    QRS     27
        13 002132   000004 116007                    CMPQ    4,DL
        13 002133   002135 602006 13                 TNC     s:18824+6,QL
        13 002134   002764 710000 13                 TRA     s:18960
        13 002135   002264 710000 13                 TRA     TYPE_GROUP
        13 002136   002304 710000 13                 TRA     TYPE_ITEM
        13 002137   002153 710000 13                 TRA     TYPE_FFORM
PL6.E3A0      #001=PSD$FEP File=PSD$FEP.:E05TSI                                  WED 07/30/97 04:27 Page:195
        13 002140   002141 710000 13                 TRA     TYPE_JUMP

      797    18825
      798    18826    9                           CASE (%JUMP#);

      799    18827    9   TYPE_JUMP:
      800    18828
      801    18829    9                              IF FEP_JUMP.CONDITION$->UBIN_(0) = 0

  18829 13 002141   000001 471500       TYPE_JUMP    LDP1    1,,PR0
        13 002142   100000 235100                    LDA     0,,PR1
        13 002143   002150 601000 13                 TNZ     s:18833

      802    18830    9                              THEN
      803    18831    9                              TABLE$ = PINCRW(TABLE$,LENGTHW(FEP_JUMP));

  18831 13 002144   200020 236100                    LDQ     TABLE$,,AUTO
        13 002145   000003 036003                    ADLQ    3,DU
        13 002146   200020 756100                    STQ     TABLE$,,AUTO
        13 002147   002764 710000 13                 TRA     s:18960

      804    18832    9                              ELSE
      805    18833    9                              TABLE$ = FEP_JUMP.PTR$;

  18833 13 002150   000002 236100                    LDQ     2,,PR0
        13 002151   200020 756100                    STQ     TABLE$,,AUTO
        13 002152   002764 710000 13                 TRA     s:18960

      806    18834
      807    18835
      808    18836    9                           CASE (%FFORM#);

      809    18837    9   TYPE_FFORM:
      810    18838
      811    18839   10                              IF ITEM_FLAG THEN DO;

  18839 13 002153   200037 234100       TYPE_FFORM   SZN     ITEM_FLAG,,AUTO
PL6.E3A0      #001=PSD$FEP File=PSD$FEP.:E05TSI                                  WED 07/30/97 04:27 Page:196
        13 002154   002241 605000 13                 TPL     s:18847

      812    18840   11                                 IF GROUP_HEAD$~=ADDR(NIL) THEN DO;

  18840 13 002155   200031 236100                    LDQ     GROUP_HEAD$,,AUTO
        13 002156   000001 116000 xsym               CMPQ    B_VECTNIL+1
        13 002157   002203 600000 13                 TZE     s:18845

      813    18841   11                                    CALL X$WRITE(PS_FDS,VECTOR(FEP_GROUP.TITLE#));

  18841 13 002160   200031 471500                    LDP1    GROUP_HEAD$,,AUTO
        13 002161   100000 236100                    LDQ     0,,PR1
        13 002162   000011 736000                    QLS     9
        13 002163   000033 732000                    QRS     27
        13 002164   000064 737000                    LLS     52
        13 002165   000140 135007                    SBLA    96,DL
        13 002166   200031 236100                    LDQ     GROUP_HEAD$,,AUTO
        13 002167   400000 036007                    ADLQ    -131072,DL
        13 002170   205020 757100                    STAQ    TEMPCHAR+2,,AUTO
        13 002171   205020 633500                    EPPR3   TEMPCHAR+2,,AUTO
        13 002172   205023 453500                    STP3    TEMPCHAR+5,,AUTO
        13 002173   000012 236000 14                 LDQ     10
        13 002174   205022 756100                    STQ     TEMPCHAR+4,,AUTO
        13 002175   205022 630500                    EPPR0   TEMPCHAR+4,,AUTO
        13 002176   000020 631400 xsym               EPPR1   B_VECTNIL+16
        13 002177   000000 701000 xent               TSX1    X$WRITE
        13 002200   000000 011000                    NOP     0

      814    18842   11                                    GROUP_HEAD$ = ADDR(NIL);

  18842 13 002201   000001 236000 xsym               LDQ     B_VECTNIL+1
        13 002202   200031 756100                    STQ     GROUP_HEAD$,,AUTO

      815    18843   11                                 END;

      816    18844
      817    18845   10                             CALL X$WRITE(PS_FDS, VECTOR(FEP_FORM.FORM#), VECTOR(ADDR(
PL6.E3A0      #001=PSD$FEP File=PSD$FEP.:E05TSI                                  WED 07/30/97 04:27 Page:197
             18845                                      CURRENT_ITEM)->CURRENT_ITEMS));

  18845 13 002203   200020 470500                    LDP0    TABLE$,,AUTO
        13 002204   000000 236100                    LDQ     0,,PR0
        13 002205   000011 736000                    QLS     9
        13 002206   000033 732000                    QRS     27
        13 002207   000064 737000                    LLS     52
        13 002210   000140 135007                    SBLA    96,DL
        13 002211   200020 236100                    LDQ     TABLE$,,AUTO
        13 002212   400000 036007                    ADLQ    -131072,DL
        13 002213   205020 757100                    STAQ    TEMPCHAR+2,,AUTO
        13 002214   200041 235100                    LDA     ITEM_BYTE_COUNT,,AUTO
        13 002215   000020 735000                    ALS     16
        13 002216   000140 135007                    SBLA    96,DL
        13 002217   205022 452500                    STP2    TEMPCHAR+4,,AUTO
        13 002220   205022 236100                    LDQ     TEMPCHAR+4,,AUTO
        13 002221   000042 036003                    ADLQ    34,DU
        13 002222   205026 757100                    STAQ    TEMPCHAR+8,,AUTO
        13 002223   205020 237100                    LDAQ    TEMPCHAR+2,,AUTO
        13 002224   205024 757100                    STAQ    TEMPCHAR+6,,AUTO
        13 002225   205026 237100                    LDAQ    TEMPCHAR+8,,AUTO
        13 002226   205030 757100                    STAQ    TEMPCHAR+10,,AUTO
        13 002227   205030 631500                    EPPR1   TEMPCHAR+10,,AUTO
        13 002230   205034 451500                    STP1    TEMPCHAR+14,,AUTO
        13 002231   205024 633500                    EPPR3   TEMPCHAR+6,,AUTO
        13 002232   205033 453500                    STP3    TEMPCHAR+13,,AUTO
        13 002233   000012 236000 14                 LDQ     10
        13 002234   205032 756100                    STQ     TEMPCHAR+12,,AUTO
        13 002235   205032 630500                    EPPR0   TEMPCHAR+12,,AUTO
        13 002236   000021 631400 xsym               EPPR1   B_VECTNIL+17
        13 002237   000000 701000 xent               TSX1    X$WRITE
        13 002240   000000 011000                    NOP     0

      818    18846   10                              END;

      819    18847    9                              ITEM_COUNT = 0;

PL6.E3A0      #001=PSD$FEP File=PSD$FEP.:E05TSI                                  WED 07/30/97 04:27 Page:198
  18847 13 002241   200040 450100                    STZ     ITEM_COUNT,,AUTO

      820    18848    9                              ITEM_BYTE_COUNT = 4 * ITEM_COUNT;

  18848 13 002242   200040 235100                    LDA     ITEM_COUNT,,AUTO
        13 002243   000002 735000                    ALS     2
        13 002244   200041 755100                    STA     ITEM_BYTE_COUNT,,AUTO

      821    18849    9                              ITEM_FLAG = %NO#;

  18849 13 002245   200037 450100                    STZ     ITEM_FLAG,,AUTO

      822    18850
      823    18851    9                              TABLE$ = PINCRW(TABLE$,LENGTHW(FEP_FORM));

  18851 13 002246   200020 470500                    LDP0    TABLE$,,AUTO
        13 002247   000000 236100                    LDQ     0,,PR0
        13 002250   000011 736000                    QLS     9
        13 002251   000033 732000                    QRS     27
        13 002252   000002 620006                    EAX0    2,QL
        13 002253   000000 636010                    EAQ     0,X0
        13 002254   000022 732000                    QRS     18
        13 002255   000011 402007                    MPY     9,DL
        13 002256   000043 036007                    ADLQ    35,DL
        13 002257   000044 506007                    DIV     36,DL
        13 002260   000022 736000                    QLS     18
        13 002261   200020 036100                    ADLQ    TABLE$,,AUTO
        13 002262   200020 756100                    STQ     TABLE$,,AUTO
        13 002263   002764 710000 13                 TRA     s:18960

      824    18852
      825    18853    9                           CASE (%GROUP#);

      826    18854    9   TYPE_GROUP:
      827    18855
      828    18856    9                              GROUP_HEAD$ = TABLE$;

PL6.E3A0      #001=PSD$FEP File=PSD$FEP.:E05TSI                                  WED 07/30/97 04:27 Page:199
  18856 13 002264   200020 236100       TYPE_GROUP   LDQ     TABLE$,,AUTO
        13 002265   200031 756100                    STQ     GROUP_HEAD$,,AUTO

      829    18857    9                              TABLE$ = PINCRW(TABLE$,LENGTHW(FEP_GROUP));

  18857 13 002266   200031 471500                    LDP1    GROUP_HEAD$,,AUTO
        13 002267   100000 236100                    LDQ     0,,PR1
        13 002270   000011 736000                    QLS     9
        13 002271   000033 732000                    QRS     27
        13 002272   000002 620006                    EAX0    2,QL
        13 002273   000000 636010                    EAQ     0,X0
        13 002274   000022 732000                    QRS     18
        13 002275   000011 402007                    MPY     9,DL
        13 002276   000043 036007                    ADLQ    35,DL
        13 002277   000044 506007                    DIV     36,DL
        13 002300   000022 736000                    QLS     18
        13 002301   200020 036100                    ADLQ    TABLE$,,AUTO
        13 002302   200020 756100                    STQ     TABLE$,,AUTO
        13 002303   002764 710000 13                 TRA     s:18960

      830    18858
      831    18859    9                           CASE (%ITEM#);

      832    18860    9   TYPE_ITEM:
      833    18861
      834    18862   10                              DO CONSEC_COUNT = 1 TO FEP_ITEM.CONSEC#;

  18862 13 002304   000001 235007       TYPE_ITEM    LDA     1,DL
        13 002305   200015 755100                    STA     CONSEC_COUNT,,AUTO
        13 002306   002752 710000 13                 TRA     s:18954+3

      835    18863
      836    18864   10                                 CALL SETUP (ITEM, OLD_ITEM, FEP_ITEM.OFFSET#+
             18864                                          CONSEC_COUNT-1, 0);

  18864 13 002307   200020 470500                    LDP0    TABLE$,,AUTO
        13 002310   000001 236100                    LDQ     1,,PR0
PL6.E3A0      #001=PSD$FEP File=PSD$FEP.:E05TSI                                  WED 07/30/97 04:27 Page:200
        13 002311   000011 736000                    QLS     9
        13 002312   000022 732000                    QRS     18
        13 002313   200015 036100                    ADLQ    CONSEC_COUNT,,AUTO
        13 002314   000001 136007                    SBLQ    1,DL
        13 002315   205050 756100                    STQ     TEMPCHAR+26,,AUTO
        13 002316   000077 236000 14                 LDQ     63
        13 002317   205014 756100                    STQ     TITLE_LEN+1,,AUTO
        13 002320   205050 631500                    EPPR1   TEMPCHAR+26,,AUTO
        13 002321   205013 451500                    STP1    @VALUES+1,,AUTO
        13 002322   200033 633500                    EPPR3   OLD_ITEM,,AUTO
        13 002323   205012 453500                    STP3    @TITLE+1,,AUTO
        13 002324   200032 634500                    EPPR4   ITEM,,AUTO
        13 002325   205011 454500                    STP4    FEPD+209,,AUTO
        13 002326   000062 701000 13                 TSX1    SETUP
        13 002327   000000 011000                    NOP     0

      837    18865   10                                 CALL SETUP (DIVISOR, OLD_DIVISOR, FEP_ITEM.DIVISOR#+
             18865                                          ZERO, 1);

  18865 13 002330   200020 470500                    LDP0    TABLE$,,AUTO
        13 002331   000001 236100                    LDQ     1,,PR0
        13 002332   000033 736000                    QLS     27
        13 002333   000033 732000                    QRS     27
        13 002334   000044 036000 11                 ADLQ    ZERO
        13 002335   205051 756100                    STQ     TEMPCHAR+27,,AUTO
        13 002336   000001 236000 14                 LDQ     1
        13 002337   205014 756100                    STQ     TITLE_LEN+1,,AUTO
        13 002340   205051 631500                    EPPR1   TEMPCHAR+27,,AUTO
        13 002341   205013 451500                    STP1    @VALUES+1,,AUTO
        13 002342   200036 633500                    EPPR3   OLD_DIVISOR,,AUTO
        13 002343   205012 453500                    STP3    @TITLE+1,,AUTO
        13 002344   200035 634500                    EPPR4   DIVISOR,,AUTO
        13 002345   205011 454500                    STP4    FEPD+209,,AUTO
        13 002346   000062 701000 13                 TSX1    SETUP
        13 002347   000000 011000                    NOP     0

      838    18866
PL6.E3A0      #001=PSD$FEP File=PSD$FEP.:E05TSI                                  WED 07/30/97 04:27 Page:201
      839    18867
      840    18868   11                                 DO CASE (FEP_ITEM.SCALE#);

  18868 13 002350   200020 470500                    LDP0    TABLE$,,AUTO
        13 002351   000000 236100                    LDQ     0,,PR0
        13 002352   000011 736000                    QLS     9
        13 002353   000033 732000                    QRS     27
        13 002354   000011 116007                    CMPQ    9,DL
        13 002355   002357 602006 13                 TNC     s:18868+7,QL
        13 002356   002744 710000 13                 TRA     s:18952
        13 002357   002370 710000 13                 TRA     SCALE_ABS
        13 002360   002744 710000 13                 TRA     s:18952
        13 002361   002440 710000 13                 TRA     SCALE_PER_MINUTE
        13 002362   002471 710000 13                 TRA     SCALE_PER_SECOND
        13 002363   002522 710000 13                 TRA     SCALE_MS_PER
        13 002364   002551 710000 13                 TRA     SCALE_PCT_TIME
        13 002365   002716 710000 13                 TRA     SCALE_QUOTIENT
        13 002366   002407 710000 13                 TRA     SCALE_DUMMY
        13 002367   002633 710000 13                 TRA     SCALE_PCT_UTS_UNITS

      841    18869
      842    18870   11                                 CASE (%/* abs# */ 0);

      843    18871   11   SCALE_ABS:
      844    18872
      845    18873   11                                    CALL CRUNCH(SNAP_ITEM, ITEM, DIVISOR, 1, 1);

  18873 13 002370   000120 237000 14    SCALE_ABS    LDAQ    80
        13 002371   205014 757100                    STAQ    TITLE_LEN+1,,AUTO
        13 002372   200035 631500                    EPPR1   DIVISOR,,AUTO
        13 002373   205013 451500                    STP1    @VALUES+1,,AUTO
        13 002374   200032 633500                    EPPR3   ITEM,,AUTO
        13 002375   205012 453500                    STP3    @TITLE+1,,AUTO
        13 002376   200034 634500                    EPPR4   SNAP_ITEM,,AUTO
        13 002377   205011 454500                    STP4    FEPD+209,,AUTO
        13 002400   000164 701000 13                 TSX1    CRUNCH
        13 002401   000000 011000                    NOP     0
PL6.E3A0      #001=PSD$FEP File=PSD$FEP.:E05TSI                                  WED 07/30/97 04:27 Page:202

      846    18874   11                                    CALL SET_ITEM(SNAP_ITEM);

  18874 13 002402   200034 630500                    EPPR0   SNAP_ITEM,,AUTO
        13 002403   205011 450500                    STP0    FEPD+209,,AUTO
        13 002404   000144 701000 13                 TSX1    SET_ITEM
        13 002405   000000 011000                    NOP     0
        13 002406   002744 710000 13                 TRA     s:18952

      847    18875
      848    18876   11                                 CASE (%DUMMY#);

      849    18877   11   SCALE_DUMMY:
      850    18878
      851    18879   11                                    CALL CRUNCH (SNAP_ITEM, ITEM - OLD_ITEM, DIVISOR -
             18879                                             OLD_DIVISOR,

  18879 13 002407   200032 236100       SCALE_DUMMY  LDQ     ITEM,,AUTO
        13 002410   200033 136100                    SBLQ    OLD_ITEM,,AUTO
        13 002411   205020 756100                    STQ     TEMPCHAR+2,,AUTO
        13 002412   200035 236100                    LDQ     DIVISOR,,AUTO
        13 002413   200036 136100                    SBLQ    OLD_DIVISOR,,AUTO
        13 002414   205020 235100                    LDA     TEMPCHAR+2,,AUTO
        13 002415   205052 755100                    STA     TEMPCHAR+28,,AUTO
        13 002416   205053 756100                    STQ     TEMPCHAR+29,,AUTO
        13 002417   000003 236000 14                 LDQ     3
        13 002420   205015 756100                    STQ     IP+1,,AUTO
        13 002421   200006 631500                    EPPR1   DELTA_TICS_ELAPSED,,AUTO
        13 002422   205014 451500                    STP1    TITLE_LEN+1,,AUTO
        13 002423   205053 633500                    EPPR3   TEMPCHAR+29,,AUTO
        13 002424   205013 453500                    STP3    @VALUES+1,,AUTO
        13 002425   205052 634500                    EPPR4   TEMPCHAR+28,,AUTO
        13 002426   205012 454500                    STP4    @TITLE+1,,AUTO
        13 002427   200034 635500                    EPPR5   SNAP_ITEM,,AUTO
        13 002430   205011 455500                    STP5    FEPD+209,,AUTO
        13 002431   000164 701000 13                 TSX1    CRUNCH
        13 002432   000000 011000                    NOP     0
PL6.E3A0      #001=PSD$FEP File=PSD$FEP.:E05TSI                                  WED 07/30/97 04:27 Page:203

      852    18880   11                                      DELTA_TICS_ELAPSED, %FEP_TICS_PER_MINUTE);
      853    18881   11                                    IF SNAP_ITEM~=0 THEN ITEM_FLAG = %YES#;

  18881 13 002433   200034 235100                    LDA     SNAP_ITEM,,AUTO
        13 002434   002744 600000 13                 TZE     s:18952

  18881 13 002435   400000 236003                    LDQ     -131072,DU
        13 002436   200037 756100                    STQ     ITEM_FLAG,,AUTO
        13 002437   002744 710000 13                 TRA     s:18952

      854    18882
      855    18883   11                                 CASE (%PER_MINUTE#);

      856    18884   11   SCALE_PER_MINUTE:
      857    18885
      858    18886   11                                    CALL CRUNCH (SNAP_ITEM, ITEM - OLD_ITEM, DIVISOR -
             18886                                             OLD_DIVISOR,

  18886 13 002440   200032 236100       SCALE_PER_M* LDQ     ITEM,,AUTO
        13 002441   200033 136100                    SBLQ    OLD_ITEM,,AUTO
        13 002442   205020 756100                    STQ     TEMPCHAR+2,,AUTO
        13 002443   200035 236100                    LDQ     DIVISOR,,AUTO
        13 002444   200036 136100                    SBLQ    OLD_DIVISOR,,AUTO
        13 002445   205020 235100                    LDA     TEMPCHAR+2,,AUTO
        13 002446   205054 755100                    STA     TEMPCHAR+30,,AUTO
        13 002447   205055 756100                    STQ     TEMPCHAR+31,,AUTO
        13 002450   000003 236000 14                 LDQ     3
        13 002451   205015 756100                    STQ     IP+1,,AUTO
        13 002452   200006 631500                    EPPR1   DELTA_TICS_ELAPSED,,AUTO
        13 002453   205014 451500                    STP1    TITLE_LEN+1,,AUTO
        13 002454   205055 633500                    EPPR3   TEMPCHAR+31,,AUTO
        13 002455   205013 453500                    STP3    @VALUES+1,,AUTO
        13 002456   205054 634500                    EPPR4   TEMPCHAR+30,,AUTO
        13 002457   205012 454500                    STP4    @TITLE+1,,AUTO
        13 002460   200034 635500                    EPPR5   SNAP_ITEM,,AUTO
        13 002461   205011 455500                    STP5    FEPD+209,,AUTO
PL6.E3A0      #001=PSD$FEP File=PSD$FEP.:E05TSI                                  WED 07/30/97 04:27 Page:204
        13 002462   000164 701000 13                 TSX1    CRUNCH
        13 002463   000000 011000                    NOP     0

      859    18887   11                                      DELTA_TICS_ELAPSED, %FEP_TICS_PER_MINUTE);
      860    18888
      861    18889   11                                    CALL SET_ITEM (SNAP_ITEM);

  18889 13 002464   200034 630500                    EPPR0   SNAP_ITEM,,AUTO
        13 002465   205011 450500                    STP0    FEPD+209,,AUTO
        13 002466   000144 701000 13                 TSX1    SET_ITEM
        13 002467   000000 011000                    NOP     0
        13 002470   002744 710000 13                 TRA     s:18952

      862    18890
      863    18891   11                                 CASE (%PER_SECOND#);

      864    18892   11   SCALE_PER_SECOND:
      865    18893
      866    18894   11                                    CALL CRUNCH (SNAP_ITEM, ITEM - OLD_ITEM, DIVISOR -
             18894                                             OLD_DIVISOR,

  18894 13 002471   200032 236100       SCALE_PER_S* LDQ     ITEM,,AUTO
        13 002472   200033 136100                    SBLQ    OLD_ITEM,,AUTO
        13 002473   205020 756100                    STQ     TEMPCHAR+2,,AUTO
        13 002474   200035 236100                    LDQ     DIVISOR,,AUTO
        13 002475   200036 136100                    SBLQ    OLD_DIVISOR,,AUTO
        13 002476   205020 235100                    LDA     TEMPCHAR+2,,AUTO
        13 002477   205056 755100                    STA     TEMPCHAR+32,,AUTO
        13 002500   205057 756100                    STQ     TEMPCHAR+33,,AUTO
        13 002501   000005 236000 14                 LDQ     5
        13 002502   205015 756100                    STQ     IP+1,,AUTO
        13 002503   200006 631500                    EPPR1   DELTA_TICS_ELAPSED,,AUTO
        13 002504   205014 451500                    STP1    TITLE_LEN+1,,AUTO
        13 002505   205057 633500                    EPPR3   TEMPCHAR+33,,AUTO
        13 002506   205013 453500                    STP3    @VALUES+1,,AUTO
        13 002507   205056 634500                    EPPR4   TEMPCHAR+32,,AUTO
        13 002510   205012 454500                    STP4    @TITLE+1,,AUTO
PL6.E3A0      #001=PSD$FEP File=PSD$FEP.:E05TSI                                  WED 07/30/97 04:27 Page:205
        13 002511   200034 635500                    EPPR5   SNAP_ITEM,,AUTO
        13 002512   205011 455500                    STP5    FEPD+209,,AUTO
        13 002513   000164 701000 13                 TSX1    CRUNCH
        13 002514   000000 011000                    NOP     0

      867    18895   11                                      DELTA_TICS_ELAPSED, %FEP_TICS_PER_SECOND);
      868    18896
      869    18897   11                                    CALL SET_ITEM (SNAP_ITEM);

  18897 13 002515   200034 630500                    EPPR0   SNAP_ITEM,,AUTO
        13 002516   205011 450500                    STP0    FEPD+209,,AUTO
        13 002517   000144 701000 13                 TSX1    SET_ITEM
        13 002520   000000 011000                    NOP     0
        13 002521   002744 710000 13                 TRA     s:18952

      870    18898
      871    18899   11                                 CASE (%MS_PER#);

      872    18900   11   SCALE_MS_PER:
      873    18901
      874    18902   11                                    CALL CRUNCH(SNAP_ITEM, ITEM - OLD_ITEM,

  18902 13 002522   200032 236100       SCALE_MS_PER LDQ     ITEM,,AUTO
        13 002523   200033 136100                    SBLQ    OLD_ITEM,,AUTO
        13 002524   205020 756100                    STQ     TEMPCHAR+2,,AUTO
        13 002525   200035 236100                    LDQ     DIVISOR,,AUTO
        13 002526   200036 136100                    SBLQ    OLD_DIVISOR,,AUTO
        13 002527   205020 235100                    LDA     TEMPCHAR+2,,AUTO
        13 002530   205060 755100                    STA     TEMPCHAR+34,,AUTO
        13 002531   205061 756100                    STQ     TEMPCHAR+35,,AUTO
        13 002532   000124 237000 14                 LDAQ    84
        13 002533   205014 757100                    STAQ    TITLE_LEN+1,,AUTO
        13 002534   205061 631500                    EPPR1   TEMPCHAR+35,,AUTO
        13 002535   205013 451500                    STP1    @VALUES+1,,AUTO
        13 002536   205060 633500                    EPPR3   TEMPCHAR+34,,AUTO
        13 002537   205012 453500                    STP3    @TITLE+1,,AUTO
        13 002540   200034 634500                    EPPR4   SNAP_ITEM,,AUTO
PL6.E3A0      #001=PSD$FEP File=PSD$FEP.:E05TSI                                  WED 07/30/97 04:27 Page:206
        13 002541   205011 454500                    STP4    FEPD+209,,AUTO
        13 002542   000164 701000 13                 TSX1    CRUNCH
        13 002543   000000 011000                    NOP     0

      875    18903   11                                      DIVISOR - OLD_DIVISOR, 1, %
             18903                                               MICROSECONDS_PER_FEP_TIC );
      876    18904
      877    18905   11                                    CALL SET_ITEM( SNAP_ITEM );

  18905 13 002544   200034 630500                    EPPR0   SNAP_ITEM,,AUTO
        13 002545   205011 450500                    STP0    FEPD+209,,AUTO
        13 002546   000144 701000 13                 TSX1    SET_ITEM
        13 002547   000000 011000                    NOP     0
        13 002550   002744 710000 13                 TRA     s:18952

      878    18906
      879    18907   11                                 CASE (%PCT_TIME#);

      880    18908   11   SCALE_PCT_TIME:
      881    18909
      882    18910   11                                    IF (DIVISOR - OLD_DIVISOR) * DELTA_TICS_ELAPSED <
             18910                                             100

  18910 13 002551   200035 236100       SCALE_PCT_T* LDQ     DIVISOR,,AUTO
        13 002552   200036 136100                    SBLQ    OLD_DIVISOR,,AUTO
        13 002553   200006 402100                    MPY     DELTA_TICS_ELAPSED,,AUTO
        13 002554   000144 116007                    CMPQ    100,DL
        13 002555   002560 605000 13                 TPL     s:18914

      883    18911   11                                    THEN
      884    18912   11                                    SNAP_ITEM = 0;

  18912 13 002556   200034 450100                    STZ     SNAP_ITEM,,AUTO
        13 002557   002614 710000 13                 TRA     s:18922

      885    18913   11                                    ELSE
      886    18914   11                                    IF (ITEM - OLD_ITEM) < 3435973
PL6.E3A0      #001=PSD$FEP File=PSD$FEP.:E05TSI                                  WED 07/30/97 04:27 Page:207

  18914 13 002560   200032 236100                    LDQ     ITEM,,AUTO
        13 002561   200033 136100                    SBLQ    OLD_ITEM,,AUTO
        13 002562   000101 116000 14                 CMPQ    65
        13 002563   002600 605000 13                 TPL     s:18919

      887    18915   11                                    THEN
      888    18916   11                                    SNAP_ITEM = (ITEM - OLD_ITEM) * 10000 /

  18916 13 002564   200032 236100                    LDQ     ITEM,,AUTO
        13 002565   200033 136100                    SBLQ    OLD_ITEM,,AUTO
        13 002566   205020 756100                    STQ     TEMPCHAR+2,,AUTO
        13 002567   200035 236100                    LDQ     DIVISOR,,AUTO
        13 002570   200036 136100                    SBLQ    OLD_DIVISOR,,AUTO
        13 002571   200006 402100                    MPY     DELTA_TICS_ELAPSED,,AUTO
        13 002572   205021 756100                    STQ     TEMPCHAR+3,,AUTO
        13 002573   205020 236100                    LDQ     TEMPCHAR+2,,AUTO
        13 002574   023420 402007                    MPY     10000,DL
        13 002575   205021 506100                    DIV     TEMPCHAR+3,,AUTO
        13 002576   200034 756100                    STQ     SNAP_ITEM,,AUTO
        13 002577   002614 710000 13                 TRA     s:18922

      889    18917   11                                      ((DIVISOR - OLD_DIVISOR) * DELTA_TICS_ELAPSED);
      890    18918   11                                    ELSE
      891    18919   11                                    SNAP_ITEM = (ITEM - OLD_ITEM) * 100 /

  18919 13 002600   200032 236100                    LDQ     ITEM,,AUTO
        13 002601   200033 136100                    SBLQ    OLD_ITEM,,AUTO
        13 002602   205020 756100                    STQ     TEMPCHAR+2,,AUTO
        13 002603   200035 236100                    LDQ     DIVISOR,,AUTO
        13 002604   200036 136100                    SBLQ    OLD_DIVISOR,,AUTO
        13 002605   200006 402100                    MPY     DELTA_TICS_ELAPSED,,AUTO
        13 002606   000144 506007                    DIV     100,DL
        13 002607   205021 756100                    STQ     TEMPCHAR+3,,AUTO
        13 002610   205020 236100                    LDQ     TEMPCHAR+2,,AUTO
        13 002611   000144 402007                    MPY     100,DL
        13 002612   205021 506100                    DIV     TEMPCHAR+3,,AUTO
PL6.E3A0      #001=PSD$FEP File=PSD$FEP.:E05TSI                                  WED 07/30/97 04:27 Page:208
        13 002613   200034 756100                    STQ     SNAP_ITEM,,AUTO

      892    18920   11                                      ((DIVISOR - OLD_DIVISOR) * DELTA_TICS_ELAPSED /
             18920                                               100);
      893    18921
      894    18922   11                                    CALL SET_ITEM( SNAP_ITEM / 100);

  18922 13 002614   200034 236100                    LDQ     SNAP_ITEM,,AUTO
        13 002615   000144 506007                    DIV     100,DL
        13 002616   205062 756100                    STQ     TEMPCHAR+36,,AUTO
        13 002617   205062 631500                    EPPR1   TEMPCHAR+36,,AUTO
        13 002620   205011 451500                    STP1    FEPD+209,,AUTO
        13 002621   000144 701000 13                 TSX1    SET_ITEM
        13 002622   000000 011000                    NOP     0

      895    18923   11                                    CALL SET_ITEM( MOD(SNAP_ITEM, 100));

  18923 13 002623   200034 236100                    LDQ     SNAP_ITEM,,AUTO
        13 002624   000144 506007                    DIV     100,DL
        13 002625   205063 755100                    STA     TEMPCHAR+37,,AUTO
        13 002626   205063 630500                    EPPR0   TEMPCHAR+37,,AUTO
        13 002627   205011 450500                    STP0    FEPD+209,,AUTO
        13 002630   000144 701000 13                 TSX1    SET_ITEM
        13 002631   000000 011000                    NOP     0
        13 002632   002744 710000 13                 TRA     s:18952

      896    18924   11                                 CASE (%PCT_UTS_UNITS#);

      897    18925   11   SCALE_PCT_UTS_UNITS:
      898    18926
      899    18927   11                                    IF (DIVISOR - OLD_DIVISOR) * DELTA_TICS_ELAPSED <
             18927                                             100

  18927 13 002633   200035 236100       SCALE_PCT_U* LDQ     DIVISOR,,AUTO
        13 002634   200036 136100                    SBLQ    OLD_DIVISOR,,AUTO
        13 002635   200006 402100                    MPY     DELTA_TICS_ELAPSED,,AUTO
        13 002636   000144 116007                    CMPQ    100,DL
PL6.E3A0      #001=PSD$FEP File=PSD$FEP.:E05TSI                                  WED 07/30/97 04:27 Page:209
        13 002637   002642 605000 13                 TPL     s:18931

      900    18928   11                                    THEN
      901    18929   11                                    SNAP_ITEM = 0;

  18929 13 002640   200034 450100                    STZ     SNAP_ITEM,,AUTO
        13 002641   002677 710000 13                 TRA     s:18939

      902    18930   11                                    ELSE
      903    18931   11                                    IF (ITEM - OLD_ITEM) *160 < 3435973

  18931 13 002642   200032 236100                    LDQ     ITEM,,AUTO
        13 002643   200033 136100                    SBLQ    OLD_ITEM,,AUTO
        13 002644   000240 402007                    MPY     160,DL
        13 002645   000101 116000 14                 CMPQ    65
        13 002646   002663 605000 13                 TPL     s:18936

      904    18932   11                                    THEN
      905    18933   11                                    SNAP_ITEM = (ITEM - OLD_ITEM) * 1600000 /

  18933 13 002647   200032 236100                    LDQ     ITEM,,AUTO
        13 002650   200033 136100                    SBLQ    OLD_ITEM,,AUTO
        13 002651   205020 756100                    STQ     TEMPCHAR+2,,AUTO
        13 002652   200035 236100                    LDQ     DIVISOR,,AUTO
        13 002653   200036 136100                    SBLQ    OLD_DIVISOR,,AUTO
        13 002654   200006 402100                    MPY     DELTA_TICS_ELAPSED,,AUTO
        13 002655   205021 756100                    STQ     TEMPCHAR+3,,AUTO
        13 002656   205020 236100                    LDQ     TEMPCHAR+2,,AUTO
        13 002657   000123 402000 14                 MPY     83
        13 002660   205021 506100                    DIV     TEMPCHAR+3,,AUTO
        13 002661   200034 756100                    STQ     SNAP_ITEM,,AUTO
        13 002662   002677 710000 13                 TRA     s:18939

      906    18934   11                                      ((DIVISOR - OLD_DIVISOR) * DELTA_TICS_ELAPSED);
      907    18935   11                                    ELSE
      908    18936   11                                    SNAP_ITEM = (ITEM - OLD_ITEM) * 16000 /

PL6.E3A0      #001=PSD$FEP File=PSD$FEP.:E05TSI                                  WED 07/30/97 04:27 Page:210
  18936 13 002663   200032 236100                    LDQ     ITEM,,AUTO
        13 002664   200033 136100                    SBLQ    OLD_ITEM,,AUTO
        13 002665   205020 756100                    STQ     TEMPCHAR+2,,AUTO
        13 002666   200035 236100                    LDQ     DIVISOR,,AUTO
        13 002667   200036 136100                    SBLQ    OLD_DIVISOR,,AUTO
        13 002670   200006 402100                    MPY     DELTA_TICS_ELAPSED,,AUTO
        13 002671   000144 506007                    DIV     100,DL
        13 002672   205021 756100                    STQ     TEMPCHAR+3,,AUTO
        13 002673   205020 236100                    LDQ     TEMPCHAR+2,,AUTO
        13 002674   037200 402007                    MPY     16000,DL
        13 002675   205021 506100                    DIV     TEMPCHAR+3,,AUTO
        13 002676   200034 756100                    STQ     SNAP_ITEM,,AUTO

      909    18937   11                                      ((DIVISOR - OLD_DIVISOR) * DELTA_TICS_ELAPSED /
             18937                                               100);
      910    18938
      911    18939   11                                    CALL SET_ITEM( SNAP_ITEM / 100);

  18939 13 002677   200034 236100                    LDQ     SNAP_ITEM,,AUTO
        13 002700   000144 506007                    DIV     100,DL
        13 002701   205064 756100                    STQ     TEMPCHAR+38,,AUTO
        13 002702   205064 631500                    EPPR1   TEMPCHAR+38,,AUTO
        13 002703   205011 451500                    STP1    FEPD+209,,AUTO
        13 002704   000144 701000 13                 TSX1    SET_ITEM
        13 002705   000000 011000                    NOP     0

      912    18940   11                                    CALL SET_ITEM( MOD(SNAP_ITEM, 100));

  18940 13 002706   200034 236100                    LDQ     SNAP_ITEM,,AUTO
        13 002707   000144 506007                    DIV     100,DL
        13 002710   205065 755100                    STA     TEMPCHAR+39,,AUTO
        13 002711   205065 630500                    EPPR0   TEMPCHAR+39,,AUTO
        13 002712   205011 450500                    STP0    FEPD+209,,AUTO
        13 002713   000144 701000 13                 TSX1    SET_ITEM
        13 002714   000000 011000                    NOP     0
        13 002715   002744 710000 13                 TRA     s:18952

PL6.E3A0      #001=PSD$FEP File=PSD$FEP.:E05TSI                                  WED 07/30/97 04:27 Page:211
      913    18941
      914    18942   11                                 CASE (%QUOTIENT#);

      915    18943   11   SCALE_QUOTIENT:
      916    18944
      917    18945
      918    18946   11                                    CALL CRUNCH(SNAP_ITEM, ITEM - OLD_ITEM,

  18946 13 002716   200032 236100       SCALE_QUOTI* LDQ     ITEM,,AUTO
        13 002717   200033 136100                    SBLQ    OLD_ITEM,,AUTO
        13 002720   205020 756100                    STQ     TEMPCHAR+2,,AUTO
        13 002721   200035 236100                    LDQ     DIVISOR,,AUTO
        13 002722   200036 136100                    SBLQ    OLD_DIVISOR,,AUTO
        13 002723   205020 235100                    LDA     TEMPCHAR+2,,AUTO
        13 002724   205066 755100                    STA     TEMPCHAR+40,,AUTO
        13 002725   205067 756100                    STQ     TEMPCHAR+41,,AUTO
        13 002726   000120 237000 14                 LDAQ    80
        13 002727   205014 757100                    STAQ    TITLE_LEN+1,,AUTO
        13 002730   205067 631500                    EPPR1   TEMPCHAR+41,,AUTO
        13 002731   205013 451500                    STP1    @VALUES+1,,AUTO
        13 002732   205066 633500                    EPPR3   TEMPCHAR+40,,AUTO
        13 002733   205012 453500                    STP3    @TITLE+1,,AUTO
        13 002734   200034 634500                    EPPR4   SNAP_ITEM,,AUTO
        13 002735   205011 454500                    STP4    FEPD+209,,AUTO
        13 002736   000164 701000 13                 TSX1    CRUNCH
        13 002737   000000 011000                    NOP     0

      919    18947   11                                      DIVISOR - OLD_DIVISOR, 1, 1);
      920    18948
      921    18949   11                                    CALL SET_ITEM(SNAP_ITEM);

  18949 13 002740   200034 630500                    EPPR0   SNAP_ITEM,,AUTO
        13 002741   205011 450500                    STP0    FEPD+209,,AUTO
        13 002742   000144 701000 13                 TSX1    SET_ITEM
        13 002743   000000 011000                    NOP     0

      922    18950
PL6.E3A0      #001=PSD$FEP File=PSD$FEP.:E05TSI                                  WED 07/30/97 04:27 Page:212
      923    18951   11                                 END /* CASE SCALE */;

      924    18952   10                                 FEP_ITEM_ITEM$ = PINCRW(FEP_ITEM_ITEM$,1);

  18952 13 002744   200016 236100                    LDQ     FEP_ITEM_ITEM$,,AUTO
        13 002745   000001 036003                    ADLQ    1,DU
        13 002746   200016 756100                    STQ     FEP_ITEM_ITEM$,,AUTO

      925    18953
      926    18954   10                              END /* DO CONSEC */;

  18954 13 002747   200015 235100                    LDA     CONSEC_COUNT,,AUTO
        13 002750   000001 035007                    ADLA    1,DL
        13 002751   200015 755100                    STA     CONSEC_COUNT,,AUTO
        13 002752   200020 470500                    LDP0    TABLE$,,AUTO
        13 002753   000000 236100                    LDQ     0,,PR0
        13 002754   000022 736000                    QLS     18
        13 002755   000033 732000                    QRS     27
        13 002756   002761 604000 13                 TMI     s:18956
        13 002757   200015 116100                    CMPQ    CONSEC_COUNT,,AUTO
        13 002760   002307 603000 13                 TRC     s:18864

      927    18955
      928    18956    9                              TABLE$ = PINCRW(TABLE$,LENGTHW(FEP_ITEM));

  18956 13 002761   200020 236100                    LDQ     TABLE$,,AUTO
        13 002762   000002 036003                    ADLQ    2,DU
        13 002763   200020 756100                    STQ     TABLE$,,AUTO

      929    18957
      930    18958    9                           END /* CASE TYPE */;

      931    18959
      932    18960    8                        END /* WHILE */;

  18960 13 002764   200020 236100                    LDQ     TABLE$,,AUTO
        13 002765   000001 116000 xsym               CMPQ    B_VECTNIL+1
PL6.E3A0      #001=PSD$FEP File=PSD$FEP.:E05TSI                                  WED 07/30/97 04:27 Page:213
        13 002766   002127 601000 13                 TNZ     s:18824

      933    18961
      934    18962    7                     END; /* Not summary stuff */

      935    18963    6                  END /* If this type was selected */;

  18949 13 002767                       NONE_MATCHI* null
      936    18964
      937    18965    5   NONE_MATCHING: ;
      938    18966    5                  LOCATE_ANOTHER = '1'B;

  18966 13 002767   400000 236003                    LDQ     -131072,DU
        13 002770   000046 756000 11                 STQ     LOCATE_ANOTHER

      939    18967
      940    18968    5               END /* DO UNTIL LOCATE ALTRETS */;

  18968 13 002771   001145 710000 13                 TRA     s:18703

      941    18969    4   NONE_SUCH:
      942    18970    4            END /* DO DISP_INDEX */;

  18970 13 002772   200017 235100       NONE_SUCH    LDA     DISP_INDEX,,AUTO
        13 002773   000001 035007                    ADLA    1,DL
        13 002774   200017 755100                    STA     DISP_INDEX,,AUTO
        13 002775   000013 115007                    CMPA    11,DL
        13 002776   001142 602000 13                 TNC     s:18697

      943    18971
      944    18972    3         END /* IF DSPMSK */;

      945    18973    2   ANOTHER_FEP:
      946    18974    2      END /* DO PS_FEPNO */;

  18974 13 002777   000000 235000 xsym  ANOTHER_FEP  LDA     PS_FEPNO
        13 003000   000001 035007                    ADLA    1,DL
PL6.E3A0      #001=PSD$FEP File=PSD$FEP.:E05TSI                                  WED 07/30/97 04:27 Page:214
        13 003001   000000 755000 xsym               STA     PS_FEPNO
        13 003002   000144 115007                    CMPA    100,DL
        13 003003   000634 602000 13                 TNC     s:18596

      947    18975
      948    18976    1      CALL PSD$EJECT;

  18976 13 003004   000002 631400 xsym               EPPR1   B_VECTNIL+2
        13 003005   000000 701000 xent               TSX1    PSD$EJECT
        13 003006   000000 011000                    NOP     0

      949    18977
      950    18978        %EJECT;
PL6.E3A0      #001=PSD$FEP File=PSD$FEP.:E05TSI                                  WED 07/30/97 04:27 Page:215
      951    18979
      952    18980    1      WIDTH = DCBADDR(DCBNUM(M$LO)) -> F$DCB.WIDTH#;

  18980 13 003007   000000 236007 xsym               LDQ     M$LO,DL
        13 003010   000126 470400 14                 LDP0    86
        13 003011   000000 471500                    LDP1    0,,PR0
        13 003012   100000 473506                    LDP3    0,QL,PR1
        13 003013   300004 236100                    LDQ     4,,PR3
        13 003014   000777 376007                    ANQ     511,DL
        13 003015   200022 756100                    STQ     WIDTH,,AUTO

      953    18981
      954    18982    1      FEPS_PER_LINE = (WIDTH - 25) / 9;

  18982 13 003016   000031 136007                    SBLQ    25,DL
        13 003017   000011 506007                    DIV     9,DL
        13 003020   200023 756100                    STQ     FEPS_PER_LINE,,AUTO

      955    18983
      956    18984    1      IF FEPS_PER_LINE < 1 THEN FEPS_PER_LINE=1;

  18984 13 003021   000000 116003                    CMPQ    0,DU
        13 003022   003025 601000 13                 TNZ     s:18985

  18984 13 003023   000001 235007                    LDA     1,DL
        13 003024   200023 755100                    STA     FEPS_PER_LINE,,AUTO

      957    18985    1      IF FEPS_PER_LINE > 9 THEN FEPS_PER_LINE=9;

  18985 13 003025   200023 235100                    LDA     FEPS_PER_LINE,,AUTO
        13 003026   000012 115007                    CMPA    10,DL
        13 003027   003032 602000 13                 TNC     s:18987

  18985 13 003030   000011 236007                    LDQ     9,DL
        13 003031   200023 756100                    STQ     FEPS_PER_LINE,,AUTO

      958    18986
PL6.E3A0      #001=PSD$FEP File=PSD$FEP.:E05TSI                                  WED 07/30/97 04:27 Page:216
      959    18987    1      CALL PSD$EJECT(8);

  18987 13 003032   000127 630400 14                 EPPR0   87
        13 003033   000017 631400 xsym               EPPR1   B_VECTNIL+15
        13 003034   000000 701000 xent               TSX1    PSD$EJECT
        13 003035   000000 011000                    NOP     0

      960    18988
      961    18989    1      INTERVAL_END = 0;

  18989 13 003036   200005 450100                    STZ     INTERVAL_END,,AUTO

      962    18990
      963    18991    1      FEPNO = 0;

  18991 13 003037   200021 450100                    STZ     FEPNO,,AUTO

      964    18992    2      DO WHILE FEPNO<%PS_MAXFE#;

  18992 13 003040   200021 235100                    LDA     FEPNO,,AUTO
        13 003041   000143 115007                    CMPA    99,DL
        13 003042   003416 603000 13                 TRC     s:19068

      965    18993
      966    18994    2         FEP_COUNT = 0;

  18994 13 003043   200014 450100                    STZ     FEP_COUNT,,AUTO

      967    18995    3         DO WHILE FEP_COUNT<FEPS_PER_LINE AND FEPNO<%PS_MAXFE#;

  18995 13 003044   003143 710000 13                 TRA     s:19024

      968    18996
      969    18997    4            IF FEP_DATA(FEPNO) ~= '0'B THEN DO;

  18997 13 003045   200021 236100                    LDQ     FEPNO,,AUTO
        13 003046   000134 402007                    MPY     92,DL
PL6.E3A0      #001=PSD$FEP File=PSD$FEP.:E05TSI                                  WED 07/30/97 04:27 Page:217
        13 003047   000000 106506                    CMPC    fill='000'O
        13 003050   200074 000134                    ADSC9   FEP_DATA,Q,AUTO          cn=0,n=92
        13 003051   000002 000002 xsym               ADSC9   B_VECTNIL+2              cn=0,n=2
        13 003052   003140 600000 13                 TZE     s:19023

      970    18998
      971    18999    4               FEP_TITLES.TITLE1.FEP_TAG(FEP_COUNT) = ' FEP ';

  18999 13 003053   200014 236100                    LDQ     FEP_COUNT,,AUTO
        13 003054   000007 402007                    MPY     7,DL
        13 003055   040006 100400                    MLR     fill='040'O
        13 003056   014026 000005 12                 ADSC9   PATTERN+2                cn=0,n=5
        13 003057   000050 000005 11                 ADSC9   FEP_TITLES,Q             cn=0,n=5

      972    19000    4               CALL BINCHAR(FEP_TITLES.TITLE1.FEP_NUM(FEP_COUNT), FEPNO);

  19000 13 003060   200021 235100                    LDA     FEPNO,,AUTO
        13 003061   205020 756100                    STQ     TEMPCHAR+2,,AUTO
        13 003062   000044 773000                    LRL     36
        13 003063   205022 757100                    STAQ    TEMPCHAR+4,,AUTO
        13 003064   205020 235100                    LDA     TEMPCHAR+2,,AUTO
        13 003065   000005 301500                    BTD
        13 003066   205022 000010                    NDSC9   TEMPCHAR+4,,AUTO         cn=0,s=lsgnf,sf=0,n=8
        13 003067   000051 230002 11                 NDSC9   FEP_TITLES+1,A           cn=1,s=nosgn,sf=0,n=2

      973    19001
      974    19002    4               FEPD.ASYNC_TERMINALS(FEP_COUNT) = FEP_DATA.ASYNC_TERMINALS(FEPNO);

  19002 13 003070   200021 236100                    LDQ     FEPNO,,AUTO
        13 003071   000027 402007                    MPY     23,DL
        13 003072   200014 720100                    LXL0    FEP_COUNT,,AUTO
        13 003073   200074 235106                    LDA     FEP_DATA,QL,AUTO
        13 003074   204470 755110                    STA     FEPD,X0,AUTO

      975    19003    4               FEPD.ASYNC_OUTPUT(FEP_COUNT) = FEP_DATA.ASYNC_OUTPUT(FEPNO);

  19003 13 003075   200075 235106                    LDA     FEP_DATA+1,QL,AUTO
PL6.E3A0      #001=PSD$FEP File=PSD$FEP.:E05TSI                                  WED 07/30/97 04:27 Page:218
        13 003076   204501 755110                    STA     FEPD+9,X0,AUTO

      976    19004    4               FEPD.ASYNC_INPUT(FEP_COUNT) = FEP_DATA.ASYNC_INPUT(FEPNO);

  19004 13 003077   200076 235106                    LDA     FEP_DATA+2,QL,AUTO
        13 003100   204512 755110                    STA     FEPD+18,X0,AUTO

      977    19005    4               FEPD.RBT_TERMINALS(FEP_COUNT) = FEP_DATA.RBT_TERMINALS(FEPNO);

  19005 13 003101   200077 235106                    LDA     FEP_DATA+3,QL,AUTO
        13 003102   204523 755110                    STA     FEPD+27,X0,AUTO

      978    19006    4               FEPD.RBT_OUTPUT(FEP_COUNT) = FEP_DATA.RBT_OUTPUT(FEPNO);

  19006 13 003103   200100 235106                    LDA     FEP_DATA+4,QL,AUTO
        13 003104   204534 755110                    STA     FEPD+36,X0,AUTO

      979    19007    4               FEPD.RBT_INPUT(FEP_COUNT) = FEP_DATA.RBT_INPUT(FEPNO);

  19007 13 003105   200101 235106                    LDA     FEP_DATA+5,QL,AUTO
        13 003106   204545 755110                    STA     FEPD+45,X0,AUTO

      980    19008    4               FEPD.URP_TERMINALS(FEP_COUNT) = FEP_DATA.URP_TERMINALS(FEPNO);

  19008 13 003107   200102 235106                    LDA     FEP_DATA+6,QL,AUTO
        13 003110   204556 755110                    STA     FEPD+54,X0,AUTO

      981    19009    4               FEPD.URP_OUTPUT(FEP_COUNT) = FEP_DATA.URP_OUTPUT(FEPNO);

  19009 13 003111   200103 235106                    LDA     FEP_DATA+7,QL,AUTO
        13 003112   204567 755110                    STA     FEPD+63,X0,AUTO

      982    19010    4               FEPD.URP_INPUT(FEP_COUNT) = FEP_DATA.URP_INPUT(FEPNO);

  19010 13 003113   200104 235106                    LDA     FEP_DATA+8,QL,AUTO
        13 003114   204600 755110                    STA     FEPD+72,X0,AUTO

PL6.E3A0      #001=PSD$FEP File=PSD$FEP.:E05TSI                                  WED 07/30/97 04:27 Page:219
      983    19011    4               FEPD.T3270_TERMINALS(FEP_COUNT) = FEP_DATA.T3270_TERMINALS(FEPNO);

  19011 13 003115   200105 235106                    LDA     FEP_DATA+9,QL,AUTO
        13 003116   204611 755110                    STA     FEPD+81,X0,AUTO

      984    19012    4               FEPD.T3270_OUTPUT(FEP_COUNT) = FEP_DATA.T3270_OUTPUT(FEPNO);

  19012 13 003117   200106 235106                    LDA     FEP_DATA+10,QL,AUTO
        13 003120   204622 755110                    STA     FEPD+90,X0,AUTO

      985    19013    4               FEPD.T3270_INPUT(FEP_COUNT) = FEP_DATA.T3270_INPUT(FEPNO);

  19013 13 003121   200107 235106                    LDA     FEP_DATA+11,QL,AUTO
        13 003122   204633 755110                    STA     FEPD+99,X0,AUTO

      986    19014    4               FEPD.HDLC_TERMINALS(FEP_COUNT) = FEP_DATA.HDLC_TERMINALS(FEPNO);

  19014 13 003123   200110 235106                    LDA     FEP_DATA+12,QL,AUTO
        13 003124   204644 755110                    STA     FEPD+108,X0,AUTO

      987    19015    4               FEPD.HDLC_OUTPUT(FEP_COUNT) = FEP_DATA.HDLC_OUTPUT(FEPNO);

  19015 13 003125   200111 235106                    LDA     FEP_DATA+13,QL,AUTO
        13 003126   204655 755110                    STA     FEPD+117,X0,AUTO

      988    19016    4               FEPD.HDLC_INPUT(FEP_COUNT) = FEP_DATA.HDLC_INPUT(FEPNO);

  19016 13 003127   200112 235106                    LDA     FEP_DATA+14,QL,AUTO
        13 003130   204666 755110                    STA     FEPD+126,X0,AUTO

      989    19017    4               FEPD.IDLE_TIME(FEP_COUNT) = FEP_DATA.IDLE_TIME(FEPNO);

  19017 13 003131   200121 235106                    LDA     FEP_DATA+21,QL,AUTO
        13 003132   204765 755110                    STA     FEPD+189,X0,AUTO

      990    19018    4               FEPD.AVAIL_MEM(FEP_COUNT) = FEP_DATA.AVAIL_MEM(FEPNO);

PL6.E3A0      #001=PSD$FEP File=PSD$FEP.:E05TSI                                  WED 07/30/97 04:27 Page:220
  19018 13 003133   200122 235106                    LDA     FEP_DATA+22,QL,AUTO
        13 003134   204776 755110                    STA     FEPD+198,X0,AUTO

      991    19019
      992    19020    4               FEP_COUNT = FEP_COUNT + 1;

  19020 13 003135   200014 235100                    LDA     FEP_COUNT,,AUTO
        13 003136   000001 035007                    ADLA    1,DL
        13 003137   200014 755100                    STA     FEP_COUNT,,AUTO

      993    19021    4            END /* IF UPDATED */;

      994    19022
      995    19023    3            FEPNO = FEPNO + 1;

  19023 13 003140   200021 235100                    LDA     FEPNO,,AUTO
        13 003141   000001 035007                    ADLA    1,DL
        13 003142   200021 755100                    STA     FEPNO,,AUTO

      996    19024    2         END; /* WHILE FEP_COUNT, FEPNO */;

  19024 13 003143   200014 236100                    LDQ     FEP_COUNT,,AUTO
        13 003144   200023 116100                    CMPQ    FEPS_PER_LINE,,AUTO
        13 003145   003151 603000 13                 TRC     s:19026
        13 003146   200021 235100                    LDA     FEPNO,,AUTO
        13 003147   000143 115007                    CMPA    99,DL
        13 003150   003045 602000 13                 TNC     s:18997

      997    19025
      998    19026    3         IF FEP_COUNT>0 THEN DO;

  19026 13 003151   000000 116003                    CMPQ    0,DU
        13 003152   003413 600000 13                 TZE     s:19066

      999    19027    4            DO I = FEP_COUNT TO 8;

  19027 13 003153   200012 756100                    STQ     I,,AUTO
PL6.E3A0      #001=PSD$FEP File=PSD$FEP.:E05TSI                                  WED 07/30/97 04:27 Page:221
        13 003154   003165 710000 13                 TRA     s:19031+3

     1000    19028
     1001    19029    4               FEP_TITLES.TITLE1A(I) = ' ';

  19029 13 003155   200012 236100                    LDQ     I,,AUTO
        13 003156   000007 402007                    MPY     7,DL
        13 003157   040006 100400                    MLR     fill='040'O
        13 003160   000035 000001 xsym               ADSC9   B_VECTNIL+29             cn=0,n=1
        13 003161   000050 000007 11                 ADSC9   FEP_TITLES,Q             cn=0,n=7

     1002    19030
     1003    19031    4            END;

  19031 13 003162   200012 235100                    LDA     I,,AUTO
        13 003163   000001 035007                    ADLA    1,DL
        13 003164   200012 755100                    STA     I,,AUTO
        13 003165   200012 235100                    LDA     I,,AUTO
        13 003166   000011 115007                    CMPA    9,DL
        13 003167   003155 602000 13                 TNC     s:19029

     1004    19032
     1005    19033    3            CALL X$WRITE (PS_FDS, VECTOR(FEP_HDR),

  19033 13 003170   000134 630400 14                 EPPR0   92
        13 003171   000022 631400 xsym               EPPR1   B_VECTNIL+18
        13 003172   000000 701000 xent               TSX1    X$WRITE
        13 003173   000000 011000                    NOP     0

     1006    19034    3              VECTOR(INT_END), VECTOR(FEP_TITLES));
     1007    19035
     1008    19036    3            CALL PRINT('Async terminals.', FEPD.ASYNC_TERMINALS);

  19036 13 003174   204470 630500                    EPPR0   FEPD,,AUTO
        13 003175   205012 450500                    STP0    @TITLE+1,,AUTO
        13 003176   000140 236000 14                 LDQ     96
        13 003177   205011 756100                    STQ     FEPD+209,,AUTO
PL6.E3A0      #001=PSD$FEP File=PSD$FEP.:E05TSI                                  WED 07/30/97 04:27 Page:222
        13 003200   000550 701000 13                 TSX1    PRINT
        13 003201   000000 011000                    NOP     0

     1009    19037    3            CALL PRINT('Async bytes output/min.', FEPD.ASYNC_OUTPUT);

  19037 13 003202   204501 630500                    EPPR0   FEPD+9,,AUTO
        13 003203   205012 450500                    STP0    @TITLE+1,,AUTO
        13 003204   000141 236000 14                 LDQ     97
        13 003205   205011 756100                    STQ     FEPD+209,,AUTO
        13 003206   000550 701000 13                 TSX1    PRINT
        13 003207   000000 011000                    NOP     0

     1010    19038    3            CALL PRINT('Async bytes input/min.', FEPD.ASYNC_INPUT);

  19038 13 003210   204512 630500                    EPPR0   FEPD+18,,AUTO
        13 003211   205012 450500                    STP0    @TITLE+1,,AUTO
        13 003212   000142 236000 14                 LDQ     98
        13 003213   205011 756100                    STQ     FEPD+209,,AUTO
        13 003214   000550 701000 13                 TSX1    PRINT
        13 003215   000000 011000                    NOP     0

     1011    19039    3            CALL PRINT('RBT devices.', FEPD.RBT_TERMINALS);

  19039 13 003216   204523 630500                    EPPR0   FEPD+27,,AUTO
        13 003217   205012 450500                    STP0    @TITLE+1,,AUTO
        13 003220   000143 236000 14                 LDQ     99
        13 003221   205011 756100                    STQ     FEPD+209,,AUTO
        13 003222   000550 701000 13                 TSX1    PRINT
        13 003223   000000 011000                    NOP     0

     1012    19040    3            CALL PRINT('RBT bytes output/min.', FEPD.RBT_OUTPUT);

  19040 13 003224   204534 630500                    EPPR0   FEPD+36,,AUTO
        13 003225   205012 450500                    STP0    @TITLE+1,,AUTO
        13 003226   000144 236000 14                 LDQ     100
        13 003227   205011 756100                    STQ     FEPD+209,,AUTO
        13 003230   000550 701000 13                 TSX1    PRINT
PL6.E3A0      #001=PSD$FEP File=PSD$FEP.:E05TSI                                  WED 07/30/97 04:27 Page:223
        13 003231   000000 011000                    NOP     0

     1013    19041    3            CALL PRINT('RBT bytes input/min.', FEPD.RBT_INPUT);

  19041 13 003232   204545 630500                    EPPR0   FEPD+45,,AUTO
        13 003233   205012 450500                    STP0    @TITLE+1,,AUTO
        13 003234   000145 236000 14                 LDQ     101
        13 003235   205011 756100                    STQ     FEPD+209,,AUTO
        13 003236   000550 701000 13                 TSX1    PRINT
        13 003237   000000 011000                    NOP     0

     1014    19042    3            CALL PRINT('urp devices.', FEPD.URP_TERMINALS);

  19042 13 003240   204556 630500                    EPPR0   FEPD+54,,AUTO
        13 003241   205012 450500                    STP0    @TITLE+1,,AUTO
        13 003242   000146 236000 14                 LDQ     102
        13 003243   205011 756100                    STQ     FEPD+209,,AUTO
        13 003244   000550 701000 13                 TSX1    PRINT
        13 003245   000000 011000                    NOP     0

     1015    19043    3            CALL PRINT('urp bytes output/min.', FEPD.URP_OUTPUT);

  19043 13 003246   204567 630500                    EPPR0   FEPD+63,,AUTO
        13 003247   205012 450500                    STP0    @TITLE+1,,AUTO
        13 003250   000147 236000 14                 LDQ     103
        13 003251   205011 756100                    STQ     FEPD+209,,AUTO
        13 003252   000550 701000 13                 TSX1    PRINT
        13 003253   000000 011000                    NOP     0

     1016    19044    3            CALL PRINT('urp bytes input/min.', FEPD.URP_INPUT);

  19044 13 003254   204600 630500                    EPPR0   FEPD+72,,AUTO
        13 003255   205012 450500                    STP0    @TITLE+1,,AUTO
        13 003256   000150 236000 14                 LDQ     104
        13 003257   205011 756100                    STQ     FEPD+209,,AUTO
        13 003260   000550 701000 13                 TSX1    PRINT
        13 003261   000000 011000                    NOP     0
PL6.E3A0      #001=PSD$FEP File=PSD$FEP.:E05TSI                                  WED 07/30/97 04:27 Page:224

     1017    19045    3            CALL PRINT('3270 terminals.', FEPD.T3270_TERMINALS);

  19045 13 003262   204611 630500                    EPPR0   FEPD+81,,AUTO
        13 003263   205012 450500                    STP0    @TITLE+1,,AUTO
        13 003264   000151 236000 14                 LDQ     105
        13 003265   205011 756100                    STQ     FEPD+209,,AUTO
        13 003266   000550 701000 13                 TSX1    PRINT
        13 003267   000000 011000                    NOP     0

     1018    19046    3            CALL PRINT('3270 bytes output/min.', FEPD.T3270_OUTPUT);

  19046 13 003270   204622 630500                    EPPR0   FEPD+90,,AUTO
        13 003271   205012 450500                    STP0    @TITLE+1,,AUTO
        13 003272   000152 236000 14                 LDQ     106
        13 003273   205011 756100                    STQ     FEPD+209,,AUTO
        13 003274   000550 701000 13                 TSX1    PRINT
        13 003275   000000 011000                    NOP     0

     1019    19047    3            CALL PRINT('3270 bytes input/min.', FEPD.T3270_INPUT);

  19047 13 003276   204633 630500                    EPPR0   FEPD+99,,AUTO
        13 003277   205012 450500                    STP0    @TITLE+1,,AUTO
        13 003300   000153 236000 14                 LDQ     107
        13 003301   205011 756100                    STQ     FEPD+209,,AUTO
        13 003302   000550 701000 13                 TSX1    PRINT
        13 003303   000000 011000                    NOP     0

     1020    19048    3            CALL PRINT('HDLC connections.',FEPD.HDLC_TERMINALS);

  19048 13 003304   204644 630500                    EPPR0   FEPD+108,,AUTO
        13 003305   205012 450500                    STP0    @TITLE+1,,AUTO
        13 003306   000154 236000 14                 LDQ     108
        13 003307   205011 756100                    STQ     FEPD+209,,AUTO
        13 003310   000550 701000 13                 TSX1    PRINT
        13 003311   000000 011000                    NOP     0

PL6.E3A0      #001=PSD$FEP File=PSD$FEP.:E05TSI                                  WED 07/30/97 04:27 Page:225
     1021    19049    3            CALL PRINT('HDLC output bytes/min.',FEPD.HDLC_OUTPUT);

  19049 13 003312   204655 630500                    EPPR0   FEPD+117,,AUTO
        13 003313   205012 450500                    STP0    @TITLE+1,,AUTO
        13 003314   000155 236000 14                 LDQ     109
        13 003315   205011 756100                    STQ     FEPD+209,,AUTO
        13 003316   000550 701000 13                 TSX1    PRINT
        13 003317   000000 011000                    NOP     0

     1022    19050    3            CALL PRINT('HDLC input bytes/min.',FEPD.HDLC_INPUT);

  19050 13 003320   204666 630500                    EPPR0   FEPD+126,,AUTO
        13 003321   205012 450500                    STP0    @TITLE+1,,AUTO
        13 003322   000156 236000 14                 LDQ     110
        13 003323   205011 756100                    STQ     FEPD+209,,AUTO
        13 003324   000550 701000 13                 TSX1    PRINT
        13 003325   000000 011000                    NOP     0

     1023    19051    4            DO WHILE ( '0'B ) ; /* RFU */

  19051 13 003326   003374 710000 13                 TRA     s:19060

     1024    19052    4   RFU:        CALL PRINT ( '                         .', FEPD ) ;

  19052 13 003327   204470 630500       RFU          EPPR0   FEPD,,AUTO
        13 003330   205012 450500                    STP0    @TITLE+1,,AUTO
        13 003331   000157 236000 14                 LDQ     111
        13 003332   205011 756100                    STQ     FEPD+209,,AUTO
        13 003333   000550 701000 13                 TSX1    PRINT
        13 003334   000000 011000                    NOP     0

     1025    19053    4               CALL PRINT ( '                         .', FEPD ) ;

  19053 13 003335   204470 630500                    EPPR0   FEPD,,AUTO
        13 003336   205012 450500                    STP0    @TITLE+1,,AUTO
        13 003337   000157 236000 14                 LDQ     111
        13 003340   205011 756100                    STQ     FEPD+209,,AUTO
PL6.E3A0      #001=PSD$FEP File=PSD$FEP.:E05TSI                                  WED 07/30/97 04:27 Page:226
        13 003341   000550 701000 13                 TSX1    PRINT
        13 003342   000000 011000                    NOP     0

     1026    19054    4               CALL PRINT ( '                         .', FEPD ) ;

  19054 13 003343   204470 630500                    EPPR0   FEPD,,AUTO
        13 003344   205012 450500                    STP0    @TITLE+1,,AUTO
        13 003345   000157 236000 14                 LDQ     111
        13 003346   205011 756100                    STQ     FEPD+209,,AUTO
        13 003347   000550 701000 13                 TSX1    PRINT
        13 003350   000000 011000                    NOP     0

     1027    19055    4               CALL PRINT ( '                         .', FEPD ) ;

  19055 13 003351   204470 630500                    EPPR0   FEPD,,AUTO
        13 003352   205012 450500                    STP0    @TITLE+1,,AUTO
        13 003353   000157 236000 14                 LDQ     111
        13 003354   205011 756100                    STQ     FEPD+209,,AUTO
        13 003355   000550 701000 13                 TSX1    PRINT
        13 003356   000000 011000                    NOP     0

     1028    19056    4               CALL PRINT ( '                         .', FEPD ) ;

  19056 13 003357   204470 630500                    EPPR0   FEPD,,AUTO
        13 003360   205012 450500                    STP0    @TITLE+1,,AUTO
        13 003361   000157 236000 14                 LDQ     111
        13 003362   205011 756100                    STQ     FEPD+209,,AUTO
        13 003363   000550 701000 13                 TSX1    PRINT
        13 003364   000000 011000                    NOP     0

     1029    19057    4               CALL PRINT ( '                         .', FEPD ) ;

  19057 13 003365   204470 630500                    EPPR0   FEPD,,AUTO
        13 003366   205012 450500                    STP0    @TITLE+1,,AUTO
        13 003367   000157 236000 14                 LDQ     111
        13 003370   205011 756100                    STQ     FEPD+209,,AUTO
        13 003371   000550 701000 13                 TSX1    PRINT
PL6.E3A0      #001=PSD$FEP File=PSD$FEP.:E05TSI                                  WED 07/30/97 04:27 Page:227
        13 003372   000000 011000                    NOP     0

     1030    19058    4               GOTO RFU ;

  19058 13 003373   003327 710000 13                 TRA     RFU

     1031    19059    4            END ;

     1032    19060    3            CALL PRINT('% FEP busy.', FEPD.IDLE_TIME);

  19060 13 003374   204765 630500                    EPPR0   FEPD+189,,AUTO
        13 003375   205012 450500                    STP0    @TITLE+1,,AUTO
        13 003376   000160 236000 14                 LDQ     112
        13 003377   205011 756100                    STQ     FEPD+209,,AUTO
        13 003400   000550 701000 13                 TSX1    PRINT
        13 003401   000000 011000                    NOP     0

     1033    19061    3            CALL PRINT('Memory pages available.', FEPD.AVAIL_MEM);

  19061 13 003402   204776 630500                    EPPR0   FEPD+198,,AUTO
        13 003403   205012 450500                    STP0    @TITLE+1,,AUTO
        13 003404   000161 236000 14                 LDQ     113
        13 003405   205011 756100                    STQ     FEPD+209,,AUTO
        13 003406   000550 701000 13                 TSX1    PRINT
        13 003407   000000 011000                    NOP     0

     1034    19062
     1035    19063    3            CALL PSD$SKIP;

  19063 13 003410   000002 631400 xsym               EPPR1   B_VECTNIL+2
        13 003411   000000 701000 xent               TSX1    PSD$SKIP
        13 003412   000000 011000                    NOP     0

     1036    19064
     1037    19065    3         END /* FEP_COUNT>0 */;

     1038    19066    2      END /* WHILE FEPNO */;
PL6.E3A0      #001=PSD$FEP File=PSD$FEP.:E05TSI                                  WED 07/30/97 04:27 Page:228

  19066 13 003413   200021 235100                    LDA     FEPNO,,AUTO
        13 003414   000143 115007                    CMPA    99,DL
        13 003415   003043 602000 13                 TNC     s:18994

     1039    19067
     1040    19068    1      RETURN;

  19068 13 003416   000000 702200 xent               TSX2  ! X66_ARET
     1041    19069
     1042    19070    1   END PSD$FEP;

PL6.E3A0      #001=PSD$FEP File=PSD$FEP.:E05TSI                                  WED 07/30/97 04:27 Page:229
--  Include file information  --

   PS_FEPITEMS_C.:E05TOU  cannot be made into a system file and is referenced.
   XUF_ENTRY.:E05TOU  cannot be made into a system file and is referenced.
   XUD_UTS_M.:E05TOU  is referenced.
   PS_PERR_C.:E05TOU  is referenced.
   PS_FEP_E.:E05TOU  is referenced.
   KV$VDO.:E05TOU  is referenced.
   KV_GLBCNS_E.:E05TOU  is referenced.
   B_MICROPS_C.:E05TOU  is referenced.
   CP_6_SUBS.:E05TOU  is referenced.
   KL_MACRO_C.:E05TOU  is referenced.
   KL_AFCN_C.:E05TOU  is referenced.
   P_FEP_M.:E05TOU  is referenced.
   K_ID_E.:E05TOU  is referenced.
   XU_FORMAT_C.:E05TOU  is referenced.
   PM_BUCKET_C.:E05TOU  is referenced.
   PS_SUBS_C.:E05TOU  is referenced.
   PS_DATA_R.:E05TOU  cannot be made into a system file and is referenced.
   CP_6.:E05TOU  cannot be made into a system file and is referenced.
   B$JIT_C.:E05TOU  was found in the system file and is never referenced.
   CP_6_C.:E05TOU  was found in the system file and is referenced.
      No diagnostics issued in procedure PSD$FEP.
PL6.E3A0      #001=PSD$FEP File=PSD$FEP.:E05TSI                                  WED 07/30/97 04:27 Page:230

 **** Variables and constants ****

  ****  Section 007 RtLmCm PS_FDS

  ****  Scalars and arrays  ****
OctLoc.c.b A Datatyp(siz) R M Lvl/name                 OctLoc.c.b A Datatyp(siz) R M Lvl/name

     0-0-0/w STRC(1080)  r     1 PS_FDS

  ****  Section 011  Data  PSD$FEP

  ****  Scalars and arrays  ****
OctLoc.c.b A Datatyp(siz) R M Lvl/name                 OctLoc.c.b A Datatyp(siz) R M Lvl/name

    34-0-0/c STRC(270)   r     1 BOOT_TIME                 70-0-0/w STRC(1620)  r     1 FEPTEMP
    50-0-0/c STRC(567)   r     1 FEP_TITLES                 0-0-0/d STRC(432)   r     1 FUTS_UTS
    24-0-0/c STRC(270)   r     1 INT_END                   14-0-0/c STRC(270)   r     1 INT_START
    45-0-0/w UBIN        r     1 LAST_FLAG                 46-0-0/w BIT         r     1 LOCATE_ANOTHER
   145-0-0/w STRC(1620)  r     1 OLD_FEPTEMP               47-0-0/w BIT         r     1 SHORT_FLAG
    44-0-0/w UBIN        r     1 ZERO

  ****  Section 012 RoData PSD$FEP

  ****  Scalars and arrays  ****
OctLoc.c.b A Datatyp(siz) R M Lvl/name                 OctLoc.c.b A Datatyp(siz) R M Lvl/name

     0-0-0/c STRC(207)   r     1 FEP_DISPLAY_FMT        13766-0-0/w STRC(1080)  r     1 FEP_DISPLAY_TBL
    22-0-0/c CHAR(16)    r     1 FEP_FORMAT                15-0-0/c CHAR(20)    r     1 FEP_HDR
     6-0-0/c STRC(225)   r     1 FEP_SINCE_BOOT_FMT
 13766-0-0/w STRC(72)    r     1 FEP_TABLE(0:14)
 14024-0-0/b BIT (9)     r     1 PATTERN(0:1)
  3001-0-0/w STRC(19044) r     1 PS_FEPTBL_3270           757-0-0/w STRC(15660) r     1 PS_FEPTBL_ASYNC
 13421-0-0/w STRC(8244)  r     1 PS_FEPTBL_FEI           5436-0-0/w STRC(7776)  r     1 PS_FEPTBL_HDLC
    26-0-0/w STRC(17028) r     1 PS_FEPTBL_MONITOR       4022-0-0/w STRC(19152) r     1 PS_FEPTBL_PLDVIP
  1642-0-0/w STRC(16668) r     1 PS_FEPTBL_RBT           2561-0-0/w STRC(5184)  r     1 PS_FEPTBL_URP
  6474-0-0/w STRC(90612) r     1 PS_FEPTBL_VDH           5766-0-0/w STRC(11736) r     1 PS_FEPTBL_X25
  5046-0-0/w STRC(8928)  r     1 PS_FEPTBL_X29
PL6.E3A0      #001=PSD$FEP File=PSD$FEP.:E05TSI                                  WED 07/30/97 04:27 Page:231

  ****  Auto variables  ****

  ****  Scalars and arrays  ****
OctLoc.c.b A Datatyp(siz) R M Lvl/name                 OctLoc.c.b A Datatyp(siz) R M Lvl/name

  5011-0-0/w PTR         r     1 @A_ITEM                 5014-0-0/w PTR         r     1 @DEFAULT
  5013-0-0/w PTR         r     1 @DELTA_T                5013-0-0/w PTR         r     1 @DIVISOR
  5013-0-0/w PTR         r     1 @DIVISOR                5012-0-0/w PTR         r     1 @ENDING
  5013-0-0/w PTR         r     1 @ENT                    5012-0-0/w PTR         r     1 @ITEM
  5012-0-0/w PTR         r     1 @ITEM                   5011-0-0/w PTR         r     1 @NEW
  5012-0-0/w PTR         r     1 @NEW                    5013-0-0/w PTR         r     1 @OFFSET
  5012-0-0/w PTR         r     1 @OLD                    5013-0-0/w PTR         r     1 @OLD
  5011-0-0/w PTR         r     1 @P                      5011-0-0/w PTR         r     1 @RESULT
  5011-0-0/w PTR         r     1 @RESULT                 5013-0-0/w PTR         r     1 @RESULT
  5011-0-0/w PTR         r     1 @RESULT                 5011-0-0/w PTR         r     1 @RESULT
  5014-0-0/w PTR         r     1 @SCALE                  5014-0-0/w PTR         r     1 @SCALE
  5012-0-0/w PTR         r     1 @SEGSIZE                5011-0-0/w PTR         r     1 @STARTING
  5014-0-0/w PTR         r     1 @TICS                   5014-0-0/w PTR         r     1 @TICS
  5015-0-0/w PTR         r     1 @TICS_PER_UNIT          5015-0-0/w PTR         r     1 @TICS_PER_UNIT
  5011-0-0/w PTR         r     1 @TITLE                  5012-0-0/w PTR         r     1 @VALUE
  5012-0-0/w PTR         r     1 @VALUES                 5014-0-0/w BIT         r     1 ANOTHER
    *0-0-0/w UBIN        r     1 A_ITEM                    15-0-0/w UBIN        r     1 CONSEC_COUNT
    42-0-0/w UBIN        r     1 CURRENT_ITEM(0:19)
    72-0-0/d STRC(72)    r     1 DATA_VECTOR               66-0-0/w UBIN        r     1 DAYS_SINCE_BOOT
    *0-0-0/w UBIN        r     1 DEFAULT                   *0-0-0/w UBIN        r     1 DELTA_T
     6-0-0/w SBIN        r     1 DELTA_TICS_ELAPSED        *0-0-0/w SBIN        r     1 DELTA_TS
    17-0-0/w UBIN        r     1 DISP_INDEX                35-0-0/w UBIN        r     1 DIVISOR
    *0-0-0/w SBIN        r     1 DIVISOR                   *0-0-0/w SBIN        r     1 DIVISOR
    *0-0-0/w UBIN        r     1 ENDING                    *0-0-0/w UBIN        r     1 ENT
    24-0-0/w PTR         r     1 FEP$                    4470-0-0/w STRC(7452)  r     1 FEPD
    21-0-0/w UBIN        r     1 FEPNO                     23-0-0/w UBIN        r     1 FEPS_PER_LINE
    14-0-0/w UBIN        r     1 FEP_COUNT
    74-0-0/w STRC(828)   r     1 FEP_DATA(0:99)
    16-0-0/w PTR         r     1 FEP_ITEM_ITEM$            26-0-0/w UBIN        r     1 FEP_SIZE
    31-0-0/w PTR         r     1 GROUP_HEAD$               67-0-0/w SBIN        r     1 HOURS_SINCE_BOOT
    12-0-0/w UBIN        r     1 I                       5014-0-0/w UBIN        r     1 INTERVAL
PL6.E3A0      #001=PSD$FEP File=PSD$FEP.:E05TSI                                  WED 07/30/97 04:27 Page:232
     5-0-0/w UBIN        r     1 INTERVAL_END               4-0-0/w UBIN        r     1 INTERVAL_START
  5014-0-0/w UBIN        r     1 IP                        32-0-0/w UBIN        r     1 ITEM
    *0-0-0/w SBIN        r     1 ITEM                      *0-0-0/w SBIN        r     1 ITEM
    41-0-0/w UBIN        r     1 ITEM_BYTE_COUNT           40-0-0/w UBIN        r     1 ITEM_COUNT
    37-0-0/b BIT         r     1 ITEM_FLAG                 70-0-0/w SBIN        r     1 MINUTES_SINCE_BOOT
    *0-0-0/w UBIN        r     1 NEW                       *0-0-0/w UBIN        r     1 NEW
    *0-0-0/w SBIN        r     1 OFFSET                    *0-0-0/w UBIN        r     1 OLD
    *0-0-0/w UBIN        r     1 OLD                       36-0-0/w UBIN        r     1 OLD_DIVISOR
    25-0-0/w PTR         r     1 OLD_FEP$                  27-0-0/w UBIN        r     1 OLD_FEP_SIZE
    33-0-0/w UBIN        r     1 OLD_ITEM                  *0-0-0/w STRC        r     1 P
    *0-0-0/w SBIN        r     1 RESULT                    *0-0-0/w SBIN        r     1 RESULT
    *0-0-0/w UBIN        r     1 RESULT                    *0-0-0/c CHAR(7)     r     1 RESULT
    *0-0-0/c CHAR(7)     r     1 RESULT                    *0-0-0/w UBIN        r     1 SCALE
    *0-0-0/w UBIN        r     1 SCALE                     11-0-0/w UBIN        r     1 SECOND_BOOT
    *0-0-0/w UBIN        r     1 SEGSIZE                   34-0-0/w SBIN        r     1 SNAP_ITEM
    *0-0-0/w UBIN        r     1 STARTING                  20-0-0/w PTR         r     1 TABLE$
  5015-0-0/w UBIN        r     1 TEMP                    5016-0-0/c CHAR(7)     r     1 TEMPCHAR
    30-0-0/w PTR         r     1 THIS_OLD_FEP$             *0-0-0/w SBIN        r     1 TICS
    *0-0-0/w SBIN        r     1 TICS                      *0-0-0/w SBIN        r     1 TICS_PER_UNIT
    *0-0-0/w SBIN        r     1 TICS_PER_UNIT             *0-0-0/c CHAR(30)    r     1 TITLE
  5013-0-0/w UBIN        r     1 TITLE_LEN                  7-0-0/w UBIN        r     1 TOTAL_TICS_ELAPSED
    *0-0-0/w SBIN        r     1 VALUE                     *0-0-0/w UBIN        r     1 VALUES(0:9)
    22-0-0/w UBIN        r     1 WIDTH

  ****  SYMREF variables  ****

  ****  Scalars and arrays  ****
OctLoc.c.b A Datatyp(siz) R M Lvl/name                 OctLoc.c.b A Datatyp(siz) R M Lvl/name

     0-0-0/c CHAR(140)   r     1 PS_BUFFER                  0-0-0/w PTR         r     1 PS_FEP$
     0-0-0/w UBIN        r     1 PS_FEPNO
     0-0-0/w STRC(144)   r     1 PS_FEP_DISP_FLAGS(0:99)
     0-0-0/w UBIN        r     1 PS_MODE                    0-0-0/w PTR         r     1 PS_OLD_FEP$
     0-0-0/w PTR         r     1 PS_STATS$

  ****  BASED and DCB variables  ****

PL6.E3A0      #001=PSD$FEP File=PSD$FEP.:E05TSI                                  WED 07/30/97 04:27 Page:233
  ****  Scalars and arrays  ****
OctLoc.c.b A Datatyp(siz) R M Lvl/name                 OctLoc.c.b A Datatyp(siz) R M Lvl/name

     0-0-0/c ACHR        r     1 CURRENT_ITEMS              0-0-0/d ASTR(3528)  r     1 F$DCB
     0-0-0/w ASTR(18)    r     1 FEP_FORM                   0-0-0/w ASTR(18)    r     1 FEP_GROUP
     0-0-0/w STRC(72)    r     1 FEP_ITEM                   0-0-0/w STRC(108)   r     1 FEP_JUMP
     0-0-0N  NULL        r     1 M$LO                       0-0-0/w STRC(360)   r     1 PS_FEPSTATS
     0-0-0/c ASTR(9)     r     1 TEXTC                      0-0-0/w UBIN        r     1 UBIN_(0:0)


   Procedure PSD$FEP requires 1807 words for executable code.
   Procedure PSD$FEP requires 2616 words of local(AUTO) storage.

    No errors detected in file PSD$FEP.:E05TSI    .
PL6.E3A0      #001=PSD$FEP File=PSD$FEP.:E05TSI                                  WED 07/30/97 04:27 Page:234
          *** CROSS REFERENCE LISTING ***
**     DENOTES     IDENTIFIER DEFINITION
<<                 IDENTIFIER'S VALUE SET
>>                 IDENTIFIER'S VALUE USED
<>                 IDENTIFIER SET AND/OR USED
--                 IDENTIFIER REFERENCED
PL6.E3A0      #001=PSD$FEP File=PSD$FEP.:E05TSI                                  WED 07/30/97 04:27 Page:235
          MINI XREF LISTING

ANOTHER IN PROCEDURE LOCATE
     18356**DCL     18358<<ASSIGN  18362>>DOWHILE 18374<<ASSIGN
ANOTHER_FEP
     18974**LABEL   18607--CALLALT 18675--GOTO
A_ITEM IN PROCEDURE SET_ITEM
     18420**DCL     18418--PROC    18422>>IF      18424>>ASSIGN
BOOT_TIME
      8794**DCL     18659<>CALL    18671--CALL
CALC_TICS
     18474**PROC    18655--CALL    18656--CALL
CONSEC_COUNT
      8929**DCL     18862<<DOINDEX 18864>>CALL
CRUNCH
     18431**PROC    18548--CALL    18551--CALL    18873--CALL    18879--CALL    18886--CALL    18894--CALL
     18902--CALL    18946--CALL
CRUNCHUP
     18453**PROC    18743--CALL    18747--CALL    18758--CALL    18762--CALL    18773--CALL    18777--CALL
     18788--CALL    18792--CALL    18804--CALL    18808--CALL
CURRENT_ITEM
      8960**DCL     18424<<ASSIGN  18845--CALL
CURRENT_ITEMS
      8961**DCL     18845--CALL
DATA_VECTOR
      8992**DCL     18583<>CALL
DATA_VECTOR.BOUND
      8993**DCL     18581<<ASSIGN
DATA_VECTOR.PTR$
      8995**DCL     18580<<ASSIGN
DAYS_SINCE_BOOT
      8972**DCL     18680<<ASSIGN
DEFAULT IN PROCEDURE SETUP
     18386**DCL     18382--PROC    18393>>ASSIGN
PL6.E3A0      #001=PSD$FEP File=PSD$FEP.:E05TSI                                  WED 07/30/97 04:27 Page:236
DELTA_T IN PROCEDURE GENERATE
     18535**DCL     18531--PROC    18536--REDEF   18548<>CALL    18551<>CALL    18554>>ASSIGN
DELTA_TICS_ELAPSED
      8922**DCL     18517>>IF      18521<>CALL    18650>>ASSIGN  18655<>CALL    18713>>ASSIGN  18715>>ASSIGN
     18743<>CALL    18747<>CALL    18758<>CALL    18762<>CALL    18773<>CALL    18777<>CALL    18788<>CALL
     18792<>CALL    18804<>CALL    18808<>CALL    18879<>CALL    18886<>CALL    18894<>CALL    18910>>IF
     18916>>ASSIGN  18919>>ASSIGN  18927>>IF      18933>>ASSIGN  18936>>ASSIGN
DELTA_TS IN PROCEDURE GENERATE
     18536**DCL     18554>>ASSIGN
DISP_INDEX
      8931**DCL     18695<<DOINDEX 18703>>CALL    18706>>CALL    18820>>ASSIGN
DIVISOR
      8953**DCL     18865<>CALL    18873<>CALL    18879>>CALL    18886>>CALL    18894>>CALL    18902>>CALL
     18910>>IF      18916>>ASSIGN  18919>>ASSIGN  18927>>IF      18933>>ASSIGN  18936>>ASSIGN  18946>>CALL
DIVISOR IN PROCEDURE CRUNCH
     18435**DCL     18431--PROC    18439>>IF      18443>>ASSIGN  18444>>ASSIGN  18446>>ASSIGN
DIVISOR IN PROCEDURE CRUNCHUP
     18457**DCL     18453--PROC    18461>>IF      18464>>ASSIGN  18465>>ASSIGN  18467>>ASSIGN
ENDING IN PROCEDURE CALC_TICS
     18477**DCL     18474--PROC    18481<>CALL    18483>>IF
ENT IN PROCEDURE LOCATE
     18354**DCL     18345--PROC    18362>>DOWHILE
F$DCB.ACTPOS
      8224**DCL      8224--REDEF
F$DCB.ARS#
      8198**DCL      8198--REDEF
F$DCB.ATTR
      8217**DCL      8218--REDEF
F$DCB.BORROW
      8232**DCL      8232--REDEF    8232--REDEF    8232--REDEF
F$DCB.DCBNAME.L
      8246**DCL      8246--IMP-SIZ
F$DCB.EOMCHAR#
      8202**DCL      8202--REDEF
F$DCB.FLDID
      8227**DCL      8227--REDEF
PL6.E3A0      #001=PSD$FEP File=PSD$FEP.:E05TSI                                  WED 07/30/97 04:27 Page:237
F$DCB.FORM$
      8221**DCL      8221--REDEF
F$DCB.FSECT
      8237**DCL      8237--REDEF
F$DCB.FSN#
      8214**DCL      8214--REDEF    8214--REDEF    8215--REDEF
F$DCB.HEADER$
      8220**DCL      8220--REDEF
F$DCB.IXTNSIZE#
      8218**DCL      8218--REDEF
F$DCB.LASTSTA$
      8207**DCL      8207--REDEF
F$DCB.LVL
      8233**DCL      8233--REDEF
F$DCB.NAME#.C
      8208**DCL      8208--REDEF
F$DCB.NOEOF
      8230**DCL      8230--REDEF
F$DCB.NRECS#
      8219**DCL      8219--REDEF
F$DCB.NRECX
      8238**DCL      8238--REDEF
F$DCB.OHDR
      8230**DCL      8230--REDEF
F$DCB.ORG#
      8213**DCL      8213--REDEF
F$DCB.PRECNO
      8236**DCL      8236--REDEF
F$DCB.RCSZ
      8242**DCL      8242--REDEF
F$DCB.RES#
      8209**DCL      8209--REDEF
F$DCB.SETX
      8221**DCL      8221--REDEF
F$DCB.TAB$
      8221**DCL      8221--REDEF
PL6.E3A0      #001=PSD$FEP File=PSD$FEP.:E05TSI                                  WED 07/30/97 04:27 Page:238
F$DCB.TDA
      8235**DCL      8236--REDEF
F$DCB.WIDTH#
      8205**DCL     18980>>ASSIGN
F$DCB.WSN#
      8209**DCL      8209--REDEF
FEP$
      8941**DCL     18362>>DOWHILE 18362>>DOWHILE 18390>>IF      18390>>IF      18400>>ASSIGN  18602<<ASSIGN
     18607<>CALL    18613>>IF      18615>>ASSIGN  18624>>ASSIGN  18628>>ASSIGN  18628>>ASSIGN  18699<<ASSIGN
     18703<>CALL    18709>>IF      18723>>IF      18723>>IF      18723>>IF      18734>>IF      18736>>IF
     18751>>IF      18766>>IF      18781>>IF      18797>>IF      18817>>CALL    18818>>CALL
FEPD
      9085**DCL     19052<>CALL    19053<>CALL    19054<>CALL    19055<>CALL    19056<>CALL    19057<>CALL
FEPD.ASYNC_INPUT
      9088**DCL     19004<<ASSIGN  19038<>CALL
FEPD.ASYNC_OUTPUT
      9087**DCL     19003<<ASSIGN  19037<>CALL
FEPD.ASYNC_TERMINALS
      9086**DCL     19002<<ASSIGN  19036<>CALL
FEPD.AVAIL_MEM
      9108**DCL     19018<<ASSIGN  19061<>CALL
FEPD.HDLC_INPUT
      9100**DCL     19016<<ASSIGN  19050<>CALL
FEPD.HDLC_OUTPUT
      9099**DCL     19015<<ASSIGN  19049<>CALL
FEPD.HDLC_TERMINALS
      9098**DCL     19014<<ASSIGN  19048<>CALL
FEPD.IDLE_TIME
      9107**DCL     19017<<ASSIGN  19060<>CALL
FEPD.RBT_INPUT
      9091**DCL     19007<<ASSIGN  19041<>CALL
FEPD.RBT_OUTPUT
      9090**DCL     19006<<ASSIGN  19040<>CALL
FEPD.RBT_TERMINALS
      9089**DCL     19005<<ASSIGN  19039<>CALL
FEPD.T3270_INPUT
PL6.E3A0      #001=PSD$FEP File=PSD$FEP.:E05TSI                                  WED 07/30/97 04:27 Page:239
      9097**DCL     19013<<ASSIGN  19047<>CALL
FEPD.T3270_OUTPUT
      9096**DCL     19012<<ASSIGN  19046<>CALL
FEPD.T3270_TERMINALS
      9095**DCL     19011<<ASSIGN  19045<>CALL
FEPD.URP_INPUT
      9094**DCL     19010<<ASSIGN  19044<>CALL
FEPD.URP_OUTPUT
      9093**DCL     19009<<ASSIGN  19043<>CALL
FEPD.URP_TERMINALS
      9092**DCL     19008<<ASSIGN  19042<>CALL
FEPNO
      8936**DCL     18991<<ASSIGN  18992>>DOWHILE 18995>>DOWHILE 18997>>IF      19000>>CALLBLT 19002>>ASSIGN
     19003>>ASSIGN  19004>>ASSIGN  19005>>ASSIGN  19006>>ASSIGN  19007>>ASSIGN  19008>>ASSIGN  19009>>ASSIGN
     19010>>ASSIGN  19011>>ASSIGN  19012>>ASSIGN  19013>>ASSIGN  19014>>ASSIGN  19015>>ASSIGN  19016>>ASSIGN
     19017>>ASSIGN  19018>>ASSIGN  19023<<ASSIGN  19023>>ASSIGN
FEPS_PER_LINE
      8939**DCL     18982<<ASSIGN  18984>>IF      18984<<ASSIGN  18985>>IF      18985<<ASSIGN  18995>>DOWHILE
FEPTEMP
      9012**DCL     18410--ASSIGN  18599<<ASSIGN
FEPTEMP.BOOT_UTS
      9025**DCL     18624<<ASSIGN  18625--ASSIGN  18644>>ASSIGN  18645>>ASSIGN  18656<>CALL    18659<>CALL
     18661>>IF
FEPTEMP.CURR_UTS
      9024**DCL     18628<<ASSIGN  18630--ASSIGN  18655<>CALL    18656<>CALL    18658<>CALL
FEPTEMP.DELTA_HUNDR
      9019**DCL     18650<<ASSIGN  18651>>ASSIGN  18652<<ASSIGN  18652>>ASSIGN
FEPTEMP.DELTA_MIN
      9018**DCL     18651<<ASSIGN
FEPTEMP.SCHED_TICS
      9017**DCL     18612<<ASSIGN  18615<<ASSIGN  18615>>ASSIGN
FEP_COUNT
      8928**DCL     18571>>DOINDEX 18581>>ASSIGN  18994<<ASSIGN  18995>>DOWHILE 18999>>ASSIGN  19000>>CALLBLT
     19002>>ASSIGN  19003>>ASSIGN  19004>>ASSIGN  19005>>ASSIGN  19006>>ASSIGN  19007>>ASSIGN  19008>>ASSIGN
     19009>>ASSIGN  19010>>ASSIGN  19011>>ASSIGN  19012>>ASSIGN  19013>>ASSIGN  19014>>ASSIGN  19015>>ASSIGN
     19016>>ASSIGN  19017>>ASSIGN  19018>>ASSIGN  19020<<ASSIGN  19020>>ASSIGN  19026>>IF      19027>>DOINDEX
PL6.E3A0      #001=PSD$FEP File=PSD$FEP.:E05TSI                                  WED 07/30/97 04:27 Page:240
FEP_DATA
      9060**DCL     18593<<ASSIGN  18997>>IF
FEP_DATA.ASYNC_INPUT
      9063**DCL     18747<>CALL    19004>>ASSIGN
FEP_DATA.ASYNC_OUTPUT
      9062**DCL     18743<>CALL    19003>>ASSIGN
FEP_DATA.ASYNC_TERMINALS
      9061**DCL     18740<<ASSIGN  18740>>ASSIGN  19002>>ASSIGN
FEP_DATA.AVAIL_MEM
      9083**DCL     18720<<ASSIGN  19018>>ASSIGN
FEP_DATA.HDLC_INPUT
      9075**DCL     18808<>CALL    19016>>ASSIGN
FEP_DATA.HDLC_OUTPUT
      9074**DCL     18804<>CALL    19015>>ASSIGN
FEP_DATA.HDLC_TERMINALS
      9073**DCL     18801<<ASSIGN  18801>>ASSIGN  19014>>ASSIGN
FEP_DATA.IDLE_TIME
      9082**DCL     18713<<ASSIGN  18715<<ASSIGN  18717<<ASSIGN  18717>>ASSIGN  19017>>ASSIGN
FEP_DATA.RBT_INPUT
      9066**DCL     18762<>CALL    19007>>ASSIGN
FEP_DATA.RBT_OUTPUT
      9065**DCL     18758<>CALL    19006>>ASSIGN
FEP_DATA.RBT_TERMINALS
      9064**DCL     18755<<ASSIGN  18755>>ASSIGN  19005>>ASSIGN
FEP_DATA.T3270_INPUT
      9072**DCL     18792<>CALL    19013>>ASSIGN
FEP_DATA.T3270_OUTPUT
      9071**DCL     18788<>CALL    19012>>ASSIGN
FEP_DATA.T3270_TERMINALS
      9070**DCL     18785<<ASSIGN  18785>>ASSIGN  19011>>ASSIGN
FEP_DATA.URP_INPUT
      9069**DCL     18777<>CALL    19010>>ASSIGN
FEP_DATA.URP_OUTPUT
      9068**DCL     18773<>CALL    19009>>ASSIGN
FEP_DATA.URP_TERMINALS
      9067**DCL     18770<<ASSIGN  18770>>ASSIGN  19008>>ASSIGN
PL6.E3A0      #001=PSD$FEP File=PSD$FEP.:E05TSI                                  WED 07/30/97 04:27 Page:241
FEP_DISPLAY_FMT
      8966**DCL     18689--CALL
FEP_DISPLAY_TBL
     18290**DCL     18315--REDEF
FEP_FORM
     18329**DCL     18851--ASSIGN
FEP_FORM.FORM#
     18332**DCL     18845--CALL
FEP_FORM.LEN#
     18331**DCL     18332--IMP-SIZ 18845>>CALL    18851>>ASSIGN
FEP_FORMAT
      8989**DCL     18583--CALL
FEP_GROUP
     18334**DCL     18857--ASSIGN
FEP_GROUP.LEN#
     18336**DCL     18337--IMP-SIZ 18841>>CALL    18857>>ASSIGN
FEP_GROUP.TITLE#
     18337**DCL     18841--CALL
FEP_HDR
      8986**DCL     19033--CALL
FEP_ITEM
     18320**DCL     18956--ASSIGN
FEP_ITEM.CONSEC#
     18323**DCL     18862>>DOINDEX
FEP_ITEM.DIVISOR#
     18327**DCL     18865>>CALL
FEP_ITEM.OFFSET#
     18326**DCL     18864>>CALL
FEP_ITEM.SCALE#
     18322**DCL     18868>>DOCASE
FEP_ITEM.TYPE#
     18321**DCL     18824>>DOCASE
FEP_ITEM_ITEM$
      8930**DCL     18952<<ASSIGN  18952>>ASSIGN
FEP_JUMP
     18339**DCL     18831--ASSIGN
PL6.E3A0      #001=PSD$FEP File=PSD$FEP.:E05TSI                                  WED 07/30/97 04:27 Page:242
FEP_JUMP.CONDITION$
     18341**DCL     18829>>IF
FEP_JUMP.PTR$
     18342**DCL     18833>>ASSIGN
FEP_SINCE_BOOT_FMT
      8969**DCL     18691--CALL
FEP_SIZE
      8943**DCL     18607<>CALL    18703<>CALL
FEP_TABLE.ENTID
     18316**DCL     18703<>CALL    18706<>CALL
FEP_TABLE.TBLPTR$
     18317**DCL     18820>>ASSIGN
FEP_TITLES
      8980**DCL     19033--CALL
FEP_TITLES.TITLE1
      8981**DCL      8984--REDEF
FEP_TITLES.TITLE1.FEP_NUM
      8983**DCL     18670<<CALLBLT 18671--CALL    19000<<CALLBLT
FEP_TITLES.TITLE1.FEP_TAG
      8982**DCL     18999<<ASSIGN
FEP_TITLES.TITLE1A
      8984**DCL     19029<<ASSIGN
FUTS_UTS
      8263**DCL     18626<>CALL    18631<>CALL    18636<>CALL    18641<>CALL
FUTS_UTS.TSTAMP_
      8266**DCL     18625<<ASSIGN  18630<<ASSIGN  18635<<ASSIGN  18640<<ASSIGN
FUTS_UTS.V
      8267**DCL      8263--DCLINIT
GENERATE
     18531**PROC    18511--CALL    18521--CALL
GROUP_HEAD$
      8947**DCL     18334--IMP-PTR 18822<<ASSIGN  18840>>IF      18841>>CALL    18841>>CALL    18842<<ASSIGN
     18856<<ASSIGN  18857>>ASSIGN  18857>>ASSIGN
HOURS_SINCE_BOOT
      8973**DCL     18679<<ASSIGN  18680>>ASSIGN  18683<<ASSIGN  18683>>ASSIGN
I
PL6.E3A0      #001=PSD$FEP File=PSD$FEP.:E05TSI                                  WED 07/30/97 04:27 Page:243
      8926**DCL     18614<<DOINDEX 18615>>ASSIGN  18619<<DOINDEX 18620>>ASSIGN  19027<<DOINDEX 19029>>ASSIGN
INTERVAL IN PROCEDURE CALC_TICS
     18479**DCL     18481<>CALL    18491>>IF      18493>>ASSIGN  18495>>ASSIGN
INTERVAL_END
      8921**DCL     18989<<ASSIGN
INTERVAL_START
      8920**DCL     18517>>IF
INT_END
      8786**DCL     18658<>CALL    18689--CALL    18691--CALL    19033--CALL
INT_START
      8778**DCL     18657<>CALL    18689--CALL    18691--CALL
IP IN PROCEDURE PRINT
     18569**DCL     18571<<DOINDEX 18572>>IF
ITEM
      8949**DCL     18711<>CALL    18712>>IF      18713>>ASSIGN  18715>>ASSIGN  18719<>CALL    18720>>ASSIGN
     18738<>CALL    18740>>ASSIGN  18742<>CALL    18743>>CALL    18746<>CALL    18747>>CALL    18753<>CALL
     18755>>ASSIGN  18757<>CALL    18758>>CALL    18761<>CALL    18762>>CALL    18768<>CALL    18770>>ASSIGN
     18772<>CALL    18773>>CALL    18776<>CALL    18777>>CALL    18783<>CALL    18785>>ASSIGN  18787<>CALL
     18788>>CALL    18791<>CALL    18792>>CALL    18799<>CALL    18801>>ASSIGN  18803<>CALL    18804>>CALL
     18807<>CALL    18808>>CALL    18864<>CALL    18873<>CALL    18879>>CALL    18886>>CALL    18894>>CALL
     18902>>CALL    18914>>IF      18916>>ASSIGN  18919>>ASSIGN  18931>>IF      18933>>ASSIGN  18936>>ASSIGN
     18946>>CALL
ITEM IN PROCEDURE CRUNCH
     18434**DCL     18431--PROC    18442>>IF      18442>>IF      18443>>ASSIGN  18444>>ASSIGN  18446>>ASSIGN
ITEM IN PROCEDURE CRUNCHUP
     18456**DCL     18453--PROC    18463>>IF      18463>>IF      18464>>ASSIGN  18465>>ASSIGN  18467>>ASSIGN
ITEM_BYTE_COUNT
      8958**DCL      8961--IMP-SIZ 18426<<ASSIGN  18845>>CALL    18848<<ASSIGN
ITEM_COUNT
      8957**DCL     18424>>ASSIGN  18425<<ASSIGN  18425>>ASSIGN  18426>>ASSIGN  18816<<ASSIGN  18847<<ASSIGN
     18848>>ASSIGN
ITEM_FLAG
      8956**DCL     18422<<ASSIGN  18839>>IF      18849<<ASSIGN  18881<<ASSIGN
KL_REQSTATS.DSPMSK
      8724**DCL      8730--REDEF
KL_REQSTATS.SLCMSK
PL6.E3A0      #001=PSD$FEP File=PSD$FEP.:E05TSI                                  WED 07/30/97 04:27 Page:244
      8765**DCL      8772--REDEF
LAST_FLAG
      8963**DCL      9869--DCLINIT 10433--DCLINIT 11067--DCLINIT 11228--DCLINIT 11922--DCLINIT 12616--DCLINIT
     12892--DCLINIT 13197--DCLINIT 13708--DCLINIT 17975--DCLINIT 18285--DCLINIT
LOCATE
     18345**PROC    18607--CALL    18609--CALL    18703--CALL    18706--CALL
LOCATE_ANOTHER
      8976**DCL     18358>>ASSIGN  18605<<ASSIGN  18697<<ASSIGN  18966<<ASSIGN
M$LO
       101**DCL     18980--ASSIGN
M$TIME
        88**DCL-ENT 18626--CALL    18631--CALL    18636--CALL    18641--CALL
MINUTES_SINCE_BOOT
      8974**DCL     18678<<ASSIGN  18679>>ASSIGN  18682<<ASSIGN  18682>>ASSIGN
NEW IN PROCEDURE GEN
     18505**DCL     18502--PROC    18511<>CALL    18521>>CALL
NEW IN PROCEDURE SETUP
     18384**DCL     18382--PROC    18393<<ASSIGN  18400<<ASSIGN  18410<<ASSIGN
NONE_MATCHING
     18949**LABEL   18706--CALLALT
NONE_SUCH
     18970**LABEL   18703--CALLALT
OFFSET IN PROCEDURE SETUP
     18388**DCL     18382--PROC    18390>>IF      18390>>IF      18398>>IF      18400>>ASSIGN  18406>>ASSIGN
     18410>>ASSIGN  18411>>ASSIGN
OLD IN PROCEDURE GEN
     18506**DCL     18502--PROC    18521>>CALL
OLD IN PROCEDURE SETUP
     18385**DCL     18382--PROC    18394<<ASSIGN  18404<<ASSIGN  18406<<ASSIGN  18411<<ASSIGN
OLD_DIVISOR
      8954**DCL     18865<>CALL    18879>>CALL    18886>>CALL    18894>>CALL    18902>>CALL    18910>>IF
     18916>>ASSIGN  18919>>ASSIGN  18927>>IF      18933>>ASSIGN  18936>>ASSIGN  18946>>CALL
OLD_FEP$
      8942**DCL     18402>>IF      18406>>ASSIGN  18603<<ASSIGN  18609<>CALL    18610>>ASSIGN  18619>>IF
     18620>>ASSIGN  18633>>IF      18634>>ASSIGN  18638>>ASSIGN  18638>>ASSIGN  18688>>IF      18705<<ASSIGN
     18706<>CALL
PL6.E3A0      #001=PSD$FEP File=PSD$FEP.:E05TSI                                  WED 07/30/97 04:27 Page:245
OLD_FEPTEMP
      9043**DCL     18411--ASSIGN  18600<<ASSIGN
OLD_FEPTEMP.BOOT_UTS
      9056**DCL     18634<<ASSIGN  18635--ASSIGN  18644<<ASSIGN  18661>>IF
OLD_FEPTEMP.CURR_UTS
      9055**DCL     18638<<ASSIGN  18640--ASSIGN  18645<<ASSIGN  18655<>CALL    18657<>CALL
OLD_FEPTEMP.SCHED_TICS
      9048**DCL     18618<<ASSIGN  18620<<ASSIGN  18620>>ASSIGN
OLD_FEP_SIZE
      8944**DCL     18609<>CALL    18706<>CALL
OLD_ITEM
      8950**DCL     18711<>CALL    18712>>IF      18713>>ASSIGN  18715>>ASSIGN  18719<>CALL    18738<>CALL
     18742<>CALL    18743>>CALL    18746<>CALL    18747>>CALL    18753<>CALL    18757<>CALL    18758>>CALL
     18761<>CALL    18762>>CALL    18768<>CALL    18772<>CALL    18773>>CALL    18776<>CALL    18777>>CALL
     18783<>CALL    18787<>CALL    18788>>CALL    18791<>CALL    18792>>CALL    18799<>CALL    18803<>CALL
     18804>>CALL    18807<>CALL    18808>>CALL    18864<>CALL    18879>>CALL    18886>>CALL    18894>>CALL
     18902>>CALL    18914>>IF      18916>>ASSIGN  18919>>ASSIGN  18931>>IF      18933>>ASSIGN  18936>>ASSIGN
     18946>>CALL
P IN PROCEDURE LOCATE
     18348**DCL     18345--PROC
P.PTR$ IN PROCEDURE LOCATE
     18349**DCL     18350--REDEF   18360>>IF      18362>>DOWHILE 18362>>DOWHILE 18362>>DOWHILE 18362>>DOWHILE
     18367>>IF      18367>>IF      18370<<ASSIGN  18373<<ASSIGN  18373>>ASSIGN  18373>>ASSIGN
PATTERN IN PROCEDURE GENERATE
     18540**DCL     18559>>CALLBLT
PRINT
     18564**PROC    19036--CALL    19037--CALL    19038--CALL    19039--CALL    19040--CALL    19041--CALL
     19042--CALL    19043--CALL    19044--CALL    19045--CALL    19046--CALL    19047--CALL    19048--CALL
     19049--CALL    19050--CALL    19052--CALL    19053--CALL    19054--CALL    19055--CALL    19056--CALL
     19057--CALL    19060--CALL    19061--CALL
PRINT_IT IN PROCEDURE PRINT
     18578**LABEL   18573--GOTO
PSD$EJECT
      8915**DCL-ENT 18687--CALL    18976--CALL    18987--CALL
PSD$SKIP
      8916**DCL-ENT 19063--CALL
PL6.E3A0      #001=PSD$FEP File=PSD$FEP.:E05TSI                                  WED 07/30/97 04:27 Page:246
PSE$GRIPE
      8917**DCL-ENT 18671--CALL
PSL$TIME
      8918**DCL-ENT 18657--CALL    18658--CALL    18659--CALL
PS_BUFFER
      4924**DCL      4959--DCLINIT  4961--DCLINIT
PS_COLLECT.CALCNT
      5079**DCL      5079--REDEF
PS_COLLECT.USRSRV
      5076**DCL      5077--REDEF
PS_FDS
      4941**DCL     18583<>CALL    18689<>CALL    18691<>CALL    18841<>CALL    18845<>CALL    19033<>CALL
PS_FEP$
      4504**DCL     18602>>ASSIGN  18699>>ASSIGN
PS_FEPNO
      5093**DCL     18362>>DOWHILE 18595<<DOINDEX 18596>>IF      18670>>CALLBLT 18685>>IF      18689--CALL
     18691--CALL    18713>>ASSIGN  18715>>ASSIGN  18717>>ASSIGN  18717>>ASSIGN  18720>>ASSIGN  18723>>IF
     18723>>IF      18723>>IF      18723>>IF      18723>>IF      18730>>IF      18740>>ASSIGN  18740>>ASSIGN
     18743>>CALL    18747>>CALL    18755>>ASSIGN  18755>>ASSIGN  18758>>CALL    18762>>CALL    18770>>ASSIGN
     18770>>ASSIGN  18773>>CALL    18777>>CALL    18785>>ASSIGN  18785>>ASSIGN  18788>>CALL    18792>>CALL
     18801>>ASSIGN  18801>>ASSIGN  18804>>CALL    18808>>CALL    18812>>IF
PS_FEPSTATS.DISP
      8403**DCL     18723>>IF
PS_FEPSTATS.DISP.BITS
      8411**DCL     18362>>DOWHILE 18709>>IF      18734>>IF      18797>>IF
PS_FEPSTATS.DISP.MASK
      8408**DCL      8411--REDEF
PS_FEPSTATS.FINAL
      8296**DCL     18367>>IF
PS_FEPSTATS.HANDLER
      8348**DCL     18362>>DOWHILE 18362>>DOWHILE 18723>>IF
PS_FEPSTATS.NODE_NUM
      8297**DCL     18362>>DOWHILE
PS_FEPSTATS.SLCT
      8469**DCL     18362>>DOWHILE 18362>>DOWHILE 18723>>IF
PS_FEPSTATS.SLCT.BITS
PL6.E3A0      #001=PSD$FEP File=PSD$FEP.:E05TSI                                  WED 07/30/97 04:27 Page:247
      8477**DCL     18736>>IF      18751>>IF      18766>>IF      18781>>IF
PS_FEPSTATS.SLCT.MASK
      8474**DCL      8477--REDEF
PS_FEPSTATS.WORDS
      8345**DCL     18367>>IF      18373>>ASSIGN  18390>>IF
PS_FEPTBL_3270
     11233**DCL     18302--DCLINIT
PS_FEPTBL_ASYNC
      9875**DCL     18294--DCLINIT
PS_FEPTBL_FEI
     17979**DCL     18312--DCLINIT
PS_FEPTBL_HDLC
     12897**DCL     18296--DCLINIT
PS_FEPTBL_MONITOR
      9125**DCL     18292--DCLINIT
PS_FEPTBL_PLDVIP
     11927**DCL     18308--DCLINIT
PS_FEPTBL_RBT
     10438**DCL     18304--DCLINIT
PS_FEPTBL_URP
     11072**DCL     18300--DCLINIT
PS_FEPTBL_VDH
     13713**DCL     18310--DCLINIT
PS_FEPTBL_X25
     13202**DCL     18306--DCLINIT
PS_FEPTBL_X29
     12621**DCL     18298--DCLINIT
PS_FEP_DISP_FLAGS.DISP
      4574**DCL     18596>>IF      18685>>IF      18723>>IF      18730>>IF      18812>>IF
PS_FEP_DISP_FLAGS.HANDLER
      4652**DCL     18723>>IF
PS_FEP_DISP_FLAGS.SLCT
      4640**DCL     18723>>IF      18723>>IF      18723>>IF
PS_HLPCGBUF.DSPMSK
      5336**DCL      5342--REDEF
PS_HLPCGBUF.SLCMSK
PL6.E3A0      #001=PSD$FEP File=PSD$FEP.:E05TSI                                  WED 07/30/97 04:27 Page:248
      5377**DCL      5384--REDEF
PS_MODE
      5091**DCL     18662>>IF
PS_OLD_COLLECT.CALCNT
      5083**DCL      5084--REDEF
PS_OLD_COLLECT.USRSRV
      5081**DCL      5081--REDEF
PS_OLD_FEP$
      4504**DCL     18603>>ASSIGN
PS_STATS$
      5085**DCL      5087--IMP-PTR
RESULT IN PROCEDURE CALC_TICS
     18478**DCL     18474--PROC    18485<<ASSIGN  18493<<ASSIGN  18495<<ASSIGN
RESULT IN PROCEDURE CRUNCH
     18433**DCL     18431--PROC    18440<<ASSIGN  18443<<ASSIGN  18444<<ASSIGN  18446<<ASSIGN
RESULT IN PROCEDURE CRUNCHUP
     18455**DCL     18453--PROC    18464<<ASSIGN  18464>>ASSIGN  18465<<ASSIGN  18465>>ASSIGN  18467<<ASSIGN
     18467>>ASSIGN
RESULT IN PROCEDURE GEN
     18504**DCL     18502--PROC    18511<>CALL    18519<<ASSIGN  18521<>CALL
RESULT IN PROCEDURE GENERATE
     18533**DCL     18531--PROC    18559<<CALLBLT
RFU
     19052**LABEL   19058--GOTO
SCALE IN PROCEDURE GEN
     18507**DCL     18502--PROC    18508>>IF      18511<>CALL    18521<>CALL
SCALE IN PROCEDURE GENERATE
     18537**DCL     18531--PROC    18542>>DOCASE
SECOND_BOOT
      8925**DCL     18517>>IF
SEGSIZE IN PROCEDURE LOCATE
     18347**DCL     18345--PROC
SETUP
     18382**PROC    18711--CALL    18719--CALL    18738--CALL    18742--CALL    18746--CALL    18753--CALL
     18757--CALL    18761--CALL    18768--CALL    18772--CALL    18776--CALL    18783--CALL    18787--CALL
     18791--CALL    18799--CALL    18803--CALL    18807--CALL    18864--CALL    18865--CALL
PL6.E3A0      #001=PSD$FEP File=PSD$FEP.:E05TSI                                  WED 07/30/97 04:27 Page:249
SET_ITEM
     18418**PROC    18817--CALL    18818--CALL    18874--CALL    18889--CALL    18897--CALL    18905--CALL
     18922--CALL    18923--CALL    18939--CALL    18940--CALL    18949--CALL
SHORT_FLAG
      8978**DCL     14215--DCLINIT 18731<<ASSIGN  18732<<ASSIGN
SNAP_ITEM
      8951**DCL     18873<>CALL    18874<>CALL    18879<>CALL    18881>>IF      18886<>CALL    18889<>CALL
     18894<>CALL    18897<>CALL    18902<>CALL    18905<>CALL    18912<<ASSIGN  18916<<ASSIGN  18919<<ASSIGN
     18922>>CALL    18923>>CALL    18929<<ASSIGN  18933<<ASSIGN  18936<<ASSIGN  18939>>CALL    18940>>CALL
     18946<>CALL    18949<>CALL
STARTING IN PROCEDURE CALC_TICS
     18476**DCL     18474--PROC    18481<>CALL    18483>>IF
TABLE$
      8934**DCL     18320--IMP-PTR 18329--IMP-PTR 18339--IMP-PTR 18820<<ASSIGN  18823>>DOWHILE 18824>>DOCASE
     18829>>IF      18831<<ASSIGN  18831>>ASSIGN  18833<<ASSIGN  18833>>ASSIGN  18845>>CALL    18845>>CALL
     18851<<ASSIGN  18851>>ASSIGN  18851>>ASSIGN  18851>>ASSIGN  18856>>ASSIGN  18857<<ASSIGN  18857>>ASSIGN
     18862>>DOINDEX 18864>>CALL    18865>>CALL    18868>>DOCASE  18956<<ASSIGN  18956>>ASSIGN
TEMP IN PROCEDURE GENERATE
     18538**DCL     18545<<ASSIGN  18548<>CALL    18551<>CALL    18554<<ASSIGN  18558>>CALLBLT
TEMPCHAR IN PROCEDURE GENERATE
     18539**DCL     18558<<CALLBLT 18559>>CALLBLT
TEXTC.LEN
      5089**DCL      5089--IMP-SIZ
THIS_OLD_FEP$
      8945**DCL     18610<<ASSIGN  18705>>ASSIGN
TICS IN PROCEDURE CRUNCH
     18436**DCL     18431--PROC    18439>>IF      18441>>IF      18443>>ASSIGN  18444>>ASSIGN  18446>>ASSIGN
TICS IN PROCEDURE CRUNCHUP
     18458**DCL     18453--PROC    18461>>IF      18462>>IF      18464>>ASSIGN  18465>>ASSIGN  18467>>ASSIGN
TICS_PER_UNIT IN PROCEDURE CRUNCH
     18437**DCL     18431--PROC    18441>>IF      18442>>IF      18442>>IF      18443>>ASSIGN  18444>>ASSIGN
     18446>>ASSIGN
TICS_PER_UNIT IN PROCEDURE CRUNCHUP
     18459**DCL     18453--PROC    18462>>IF      18463>>IF      18463>>IF      18464>>ASSIGN  18465>>ASSIGN
     18467>>ASSIGN
TITLE IN PROCEDURE PRINT
PL6.E3A0      #001=PSD$FEP File=PSD$FEP.:E05TSI                                  WED 07/30/97 04:27 Page:250
     18567**DCL     18564--PROC    18578>>CALLBLT 18583--CALL
TITLE_LEN IN PROCEDURE PRINT
     18568**DCL     18578<<CALLBLT 18583>>CALL
TOTAL_TICS_ELAPSED
      8923**DCL     18656<>CALL    18678>>ASSIGN
UBIN_
      8964**DCL     18400>>ASSIGN  18406>>ASSIGN  18410>>ASSIGN  18411>>ASSIGN  18615>>ASSIGN  18620>>ASSIGN
     18624>>ASSIGN  18628>>ASSIGN  18628>>ASSIGN  18634>>ASSIGN  18638>>ASSIGN  18638>>ASSIGN  18817<>CALL
     18818<>CALL    18829>>IF
VALUE IN PROCEDURE GENERATE
     18534**DCL     18531--PROC    18545>>ASSIGN  18548<>CALL    18551<>CALL    18554>>ASSIGN
VALUES IN PROCEDURE PRINT
     18566**DCL     18564--PROC    18572>>IF      18580--ASSIGN
WIDTH
      8938**DCL     18980<<ASSIGN  18982>>ASSIGN
X$WRITE
      8913**DCL-ENT 18583--CALL    18689--CALL    18691--CALL    18841--CALL    18845--CALL    19033--CALL
XUD$UTS_DIFF
      8802**DCL-ENT 18481--CALL
ZERO
      8932**DCL     18865>>CALL
