VERSION E05

PL6.E3A0      #001=PSD$MOUSE File=PSD$MOUSE.:E05TSI                              WED 07/30/97 04:31 Page:1
        1        1        /*M*  PSD$MOUSE    Generate STATS' "MOUSE" (i.e., CALMON) display             */
        2        2        /*T***********************************************************/
        3        3        /*T*                                                         */
        4        4        /*T* Copyright (c) Bull HN Information Systems Inc., 1997    */
        5        5        /*T*                                                         */
        6        6        /*T***********************************************************/
        7        7        /*X* CLM=77,CRM=80,CRT=1,PLM=3,CTI=1,THI=2                                    */
        8        8        PSD$MOUSE: PROC;
        9        9        %INCLUDE CP_6;
       10       90        %INCLUDE PS_DATA_R;
       11     5386        %MACRO PM_LIST (NAME="*");
       12     5387        DCL 1 NAME CONSTANT,
       13     5388        %MEND;
       14     5389        %MACRO PM_PMME(NAME=" ");
       15     5390              2 *,
       16     5391                3 * UBIN BYTE UNAL INIT(LENGTHC(NAME)),
       17     5392                3 * CHAR(0) INIT(NAME),
       18     5393        %MEND;
       19     5394        %MACRO PM_ENDLIST;
       20     5395              2 * UBIN BYTE UNAL INIT(0);
       21     5396        %MEND;
       22     5397        %EJECT;
PL6.E3A0      #001=PSD$MOUSE File=PSD$MOUSE.:E05TSI                              WED 07/30/97 04:31 Page:2
       23     5398    1   DCL P$ PTR;
       24     5399    1   DCL Q$ PTR;
       25     5400    1   DCL R$ PTR;
       26     5401    1   DCL I UBIN WORD;
       27     5402    1   DCL J UBIN WORD;
       28     5403    1   DCL K UBIN WORD;
       29     5404    1   DCL L UBIN;
       30     5405    1   DCL ASN UBIN;
       31     5406    1   DCL TOTAL_COUNT UBIN;
       32     5407    1   DCL TOTAL_CPU UBIN;
       33     5408    1   DCL TOTAL_IOS UBIN;
       34     5409    1   DCL ITEM_COUNT UBIN WORD;
       35     5410    1   DCL BREAKDN BIT(1);
       36     5411
       37     5412    1   DCL 1 CHEESE BASED(PS_MOUSE$),
       38     5413    1         2 SIZE UBIN WORD,
       39     5414    1         2 FCGS UBIN WORD,
       40     5415    1         2 FCG (0:0) ALIGNED,
       41     5416    1           3 OFFSET UBIN HALF UNAL,
       42     5417    1           3 BREAKDOWN BIT(1),
       43     5418    1           3 * BIT(8),
       44     5419    1           3 COUNT UBIN BYTE UNAL;
       45     5420
       46     5421    1   DCL 1 CHEDDAR BASED (P$),
       47     5422    1         2 COUNT UBIN WORD,
       48     5423    1         2 CPU UBIN WORD,
       49     5424    1         2 I_O UBIN WORD;
       50     5425
       51     5426    1   DCL 1 SUM_PMME,
       52     5427    1         2 COUNT UBIN WORD,
       53     5428    1         2 CPU UBIN WORD,
       54     5429    1         2 I_O UBIN WORD;
       55     5430
       56     5431    1   DCL 1 OUTPUT STATIC,
       57     5432    1         2 PMME CHAR (16),
       58     5433    1         2 BRKDN CHAR(12),
       59     5434    1         2 COUNT UBIN WORD,
PL6.E3A0      #001=PSD$MOUSE File=PSD$MOUSE.:E05TSI                              WED 07/30/97 04:31 Page:3
       60     5435    1         2 PCT_COUNT,
       61     5436    1           3 INT UBIN,
       62     5437    1           3 FRAC UBIN,
       63     5438    1         2 CPU UBIN,
       64     5439    1         2 PCT_CPU,
       65     5440    1           3 INT UBIN,
       66     5441    1           3 FRAC UBIN,
       67     5442    1         2 AVG_CPU,
       68     5443    1           3 MSEC UBIN WORD,
       69     5444    1           3 USEC UBIN WORD,
       70     5445    1         2 I_O UBIN WORD,
       71     5446    1         2 PCT_IOS,
       72     5447    1           3 INT UBIN,
       73     5448    1           3 FRAC UBIN,
       74     5449    1         2 AVG_I_O,
       75     5450    1           3 INTEGER UBIN WORD,
       76     5451    1           3 FRAC UBIN WORD;
       77     5452
       78     5453        %EQU NULL_ASN=0;
       79     5454        %EQU ALL_ASNS=1;
       80     5455        %EQU THIS_ASN=2;
       81     5456        %EQU ALL_SERVICES=3;
       82     5457        %EJECT;
PL6.E3A0      #001=PSD$MOUSE File=PSD$MOUSE.:E05TSI                              WED 07/30/97 04:31 Page:4
       83     5458        %PM_LIST (NAME=PS_MOUSE_NAMES);
       84     5461           %INCLUDE PM_NAMES;                        /* Magicly created from UD_EQU_E */
       85     6337        %PM_ENDLIST;
       86     6340    1   DCL PS_ASN_NAMES (0:7) CHAR (16) CONSTANT INIT (
       87     6341    1         '(?dryrot?)',
       88     6342    1         '(file)',
       89     6343    1         '(tape)',
       90     6344    1         '(device)',
       91     6345    1         '(comgroup)',
       92     6346    1         '(stream)',
       93     6347    1         '(T&D)',
       94     6348    1         '(FM diag)' );
       95     6349        %EJECT;
PL6.E3A0      #001=PSD$MOUSE File=PSD$MOUSE.:E05TSI                              WED 07/30/97 04:31 Page:5
       96     6350    1   DCL 1 MOUSE_HEAD_FMT CONSTANT,
       97     6351    1         2 P1 CHAR (0) INIT ('%/Service%15-ASN of DCB%31-number%42-%% of   '),
       98     6352    1         2 P2 CHAR (0) INIT ('%49-Msec. of %61-%% of %70-Msec. %81-# of   '),
       99     6353    1         2 P3 CHAR (0) INIT ('%90-%% of %101-I/O''s %/ %16-(if any) %31-'),
      100     6354    1         2 P4 CHAR (0) INIT ('of uses %42-uses %49-CPU time %61-CPU'),
      101     6355    1         2 P5 CHAR (0) INIT (' %69-per use %80-I/O''s %89-I/O''s %100-'),
      102     6356    1         2 P6 CHAR (0) INIT ('per use %2/');
      103     6357
      104     6358    1   DCL 1 OUTPUT_FORMAT CONSTANT,
      105     6359    1         2 P1 CHAR (0) INIT ('%16A %17-%12A %29-%8D %40-%3D.%Z3D %49-%8D '),
      106     6360    1         2 P2 CHAR (0) INIT ('%59-%3D.%Z3D %68-%4D.%Z3D %77-%8D %87-%3D.%Z3D '),
      107     6361    1         2 P3 CHAR (0) INIT ('%99-%3D.%Z3D      ');
      108     6362
      109     6363    1   DCL 1 DASH_FORMAT CONSTANT,
      110     6364    1         2 P1 CHAR (0) INIT ('%29--------- %40-------- %49--------- %59-------- '),
      111     6365    1         2 P2 CHAR (0) INIT ('%68--------- %77--------- %87-------- %99--------');
      112     6366
      113     6367        %INCLUDE XUF_ENTRY;
      114     6375    1   DCL PSD$EJECT ENTRY (1);
      115     6376        %EJECT;
PL6.E3A0      #001=PSD$MOUSE File=PSD$MOUSE.:E05TSI                              WED 07/30/97 04:31 Page:6
      116     6377    1   THURB: PROC (VALUE, WHERE);
      117     6378
      118     6379    2   DCL VALUE UBIN;
      119     6380    2   DCL VALUE_SBIN REDEF VALUE SBIN;
      120     6381
      121     6382    2   DCL 1 WHERE,
      122     6383    2         2 MSEC UBIN WORD,
      123     6384    2         2 USEC UBIN WORD;
      124     6385
      125     6386    2      WHERE.MSEC = VALUE / 1000;
      126     6387    2      WHERE.USEC = MOD(VALUE_SBIN, 1000);
      127     6388
      128     6389    2      RETURN;
      129     6390
      130     6391    2   END THURB;
      131     6392
      132     6393    1   FROBB: PROC (I, J, K);
      133     6394
      134     6395    2   DCL I UBIN;
      135     6396    2   DCL J UBIN;
      136     6397    2   DCL J_SBIN REDEF J SBIN;
      137     6398    2   DCL K UBIN;
      138     6399
      139     6400    2   DCL T UBIN;
      140     6401    2   DCL FACTOR UBIN;
      141     6402    2   DCL FACTOR_SBIN REDEF FACTOR SBIN;
      142     6403
      143     6404    2   DCL 1 BIGGEST SBIN WORD STATIC INIT ( BITBIN('377777777777'O) ) ;
      144     6405        %EQU FUDGE_FACTOR = 100000;
      145     6406
      146     6407    2      FACTOR = %FUDGE_FACTOR;
      147     6408
      148     6409    3      DO WHILE ( FACTOR > 1  AND  I > BIGGEST / FACTOR_SBIN ) ;
      149     6410
      150     6411    3         FACTOR = FACTOR / 2;
      151     6412
      152     6413    3         END;
PL6.E3A0      #001=PSD$MOUSE File=PSD$MOUSE.:E05TSI                              WED 07/30/97 04:31 Page:7
      153     6414
      154     6415    2      IF ( J_SBIN / ( %FUDGE_FACTOR / FACTOR_SBIN ) ) = 0
      155     6416    2        THEN
      156     6417    2         T = 0;
      157     6418    2        ELSE
      158     6419    2         T = ( I * FACTOR_SBIN ) / ( J_SBIN / ( %FUDGE_FACTOR / FACTOR_SBIN ) ) ;
      159     6420
      160     6421    2      CALL THURB (T, K);
      161     6422
      162     6423    2      RETURN;
      163     6424
      164     6425    2   END FROBB;
      165     6426
      166     6427
      167     6428    1   MARK_LINE: PROC (CODER, ARRAY);
      168     6429
      169     6430    2   DCL 1 ARRAY,
      170     6431    2         2 COUNT UBIN WORD,
      171     6432    2         2 COUNT_SBIN REDEF COUNT SBIN WORD,
      172     6433    2         2 CPU UBIN WORD,
      173     6434    2         2 CPU_SBIN REDEF CPU SBIN WORD,
      174     6435    2         2 I_O UBIN WORD,
      175     6436    2         2 I_O_SBIN REDEF I_O SBIN WORD;
      176     6437
      177     6438    2   DCL CODER SBIN WORD;
      178     6439
      179     6440    2      IF CODER = %ALL_SERVICES
      180     6441    2        THEN
      181     6442    2         OUTPUT.PMME = '(all services)';
      182     6443    2        ELSE
      183     6444    2         OUTPUT.PMME = R$ -> TEXTC.TEXT;
      184     6445
      185     6446    3      DO CASE (CODER);
      186     6447
      187     6448    3       CASE (%NULL_ASN, %ALL_SERVICES);
      188     6449
      189     6450    3         OUTPUT.BRKDN = ' ';
PL6.E3A0      #001=PSD$MOUSE File=PSD$MOUSE.:E05TSI                              WED 07/30/97 04:31 Page:8
      190     6451
      191     6452    3       CASE (%ALL_ASNS);
      192     6453
      193     6454    3         OUTPUT.BRKDN = '(all ASNs)';
      194     6455
      195     6456    3       CASE (%THIS_ASN);
      196     6457
      197     6458    3         OUTPUT.BRKDN = PS_ASN_NAMES(ASN);
      198     6459
      199     6460    3       END;
      200     6461
      201     6462    3      IF ARRAY.COUNT > 0 THEN DO;
      202     6463
      203     6464    3         ITEM_COUNT = ITEM_COUNT + 1;
      204     6465
      205     6466    3         OUTPUT.COUNT = ARRAY.COUNT;
      206     6467    3         CALL FROBB (ARRAY.COUNT, TOTAL_COUNT, OUTPUT.PCT_COUNT);
      207     6468    3         OUTPUT.CPU = ARRAY.CPU / 1000;
      208     6469    3         CALL FROBB (ARRAY.CPU, TOTAL_CPU, OUTPUT.PCT_CPU);
      209     6470    3         CALL THURB ( ARRAY.CPU_SBIN / ARRAY.COUNT_SBIN, OUTPUT.AVG_CPU );
      210     6471    3         OUTPUT.I_O = ARRAY.I_O;
      211     6472    3         CALL FROBB (ARRAY.I_O, TOTAL_IOS, OUTPUT.PCT_IOS);
      212     6473    3         CALL THURB ( ARRAY.I_O_SBIN * 1000 / ARRAY.COUNT_SBIN, OUTPUT.AVG_I_O );
      213     6474
      214     6475    3         CALL X$WRITE (PS_FDS, VECTOR(OUTPUT_FORMAT),
      215     6476    3          VECTOR(OUTPUT));
      216     6477
      217     6478    3         END;
      218     6479
      219     6480    2      RETURN;
      220     6481    2   END MARK_LINE;
      221     6482        %EJECT;
PL6.E3A0      #001=PSD$MOUSE File=PSD$MOUSE.:E05TSI                              WED 07/30/97 04:31 Page:9
      222     6483    1      CALL PSD$EJECT;
      223     6484
      224     6485    1      CALL X$WRITE (PS_FDS, VECTOR(MOUSE_HEAD_FMT));
      225     6486
      226     6487    1      R$ = ADDR(PS_MOUSE_NAMES);
      227     6488
      228     6489    1      TOTAL_COUNT = 0;
      229     6490    1      TOTAL_CPU = 0;
      230     6491    1      TOTAL_IOS = 0;
      231     6492
      232     6493    1      P$ = PINCRW(PS_MOUSE$, CHEESE.FCG.OFFSET(0));
      233     6494
      234     6495    2      DO I = 0 TO CHEESE.FCGS;
      235     6496
      236     6497    2         IF CHEESE.FCG.BREAKDOWN(I)
      237     6498    2           THEN
      238     6499    2            K = 7;
      239     6500    2           ELSE
      240     6501    2            K = 0;
      241     6502
      242     6503    3         DO J = 0 TO CHEESE.FCG.COUNT(I);
      243     6504
      244     6505    4            DO L = 0 TO K;
      245     6506
      246     6507    4               TOTAL_COUNT = TOTAL_COUNT + CHEDDAR.COUNT;
      247     6508    4               TOTAL_CPU = TOTAL_CPU + CHEDDAR.CPU;
      248     6509    4               TOTAL_IOS = TOTAL_IOS + CHEDDAR.I_O;
      249     6510    4               P$ = PINCRW(P$, SIZEW(CHEDDAR));
      250     6511
      251     6512    4               END;
      252     6513
      253     6514    3            END;
      254     6515
      255     6516    2         END;
      256     6517
      257     6518    2      DO I = 0 TO CHEESE.FCGS;
      258     6519
PL6.E3A0      #001=PSD$MOUSE File=PSD$MOUSE.:E05TSI                              WED 07/30/97 04:31 Page:10
      259     6520    2         P$ = PINCRW(PS_MOUSE$, CHEESE.FCG.OFFSET(I));
      260     6521    2         BREAKDN = CHEESE.FCG.BREAKDOWN(I);
      261     6522
      262     6523    3         DO J = 0 TO CHEESE.FCG.COUNT(I);
      263     6524
      264     6525    3            IF BREAKDN = '0'B
      265     6526    4              THEN DO;
      266     6527
      267     6528    4               CALL MARK_LINE (%NULL_ASN, CHEDDAR);
      268     6529    4               P$ = PINCRW(P$, SIZEW(SUM_PMME));
      269     6530    4               END;
      270     6531
      271     6532    4              ELSE DO;
      272     6533
      273     6534    4               SUM_PMME.COUNT = 0;
      274     6535    4               SUM_PMME.CPU = 0;
      275     6536    4               SUM_PMME.I_O = 0;
      276     6537    4               ITEM_COUNT = 0;
      277     6538    5               DO ASN = 0 TO 7;
      278     6539
      279     6540    5                  CALL MARK_LINE (%THIS_ASN, CHEDDAR);
      280     6541    5                  SUM_PMME.COUNT = SUM_PMME.COUNT + CHEDDAR.COUNT;
      281     6542    5                  SUM_PMME.CPU = SUM_PMME.CPU + CHEDDAR.CPU;
      282     6543    5                  SUM_PMME.I_O = SUM_PMME.I_O + CHEDDAR.I_O;
      283     6544    5                  P$ = PINCRW(P$, SIZEW(SUM_PMME));
      284     6545    5                  END;
      285     6546
      286     6547    4               IF ITEM_COUNT > 1 THEN
      287     6548    4                  CALL MARK_LINE (%ALL_ASNS, SUM_PMME);
      288     6549
      289     6550    4               END;
      290     6551
      291     6552    3            R$ = PINCRC(R$, R$ -> TEXTC.LEN + 1);
      292     6553
      293     6554    3            END;
      294     6555
      295     6556    2         END;
PL6.E3A0      #001=PSD$MOUSE File=PSD$MOUSE.:E05TSI                              WED 07/30/97 04:31 Page:11
      296     6557
      297     6558    1      IF TOTAL_COUNT > 0
      298     6559    2        THEN DO;
      299     6560
      300     6561    2         CALL X$WRITE (PS_FDS, VECTOR(DASH_FORMAT));
      301     6562
      302     6563    2         SUM_PMME.COUNT = TOTAL_COUNT;
      303     6564    2         SUM_PMME.CPU = TOTAL_CPU;
      304     6565    2         SUM_PMME.I_O = TOTAL_IOS;
      305     6566
      306     6567    2         CALL MARK_LINE (%ALL_SERVICES, SUM_PMME);
      307     6568
      308     6569    2         END;
      309     6570
      310     6571    1      CALL PSD$EJECT;
      311     6572
      312     6573    1      RETURN;
      313     6574
      314     6575    1   END PSD$MOUSE;

PL6.E3A0      #001=PSD$MOUSE File=PSD$MOUSE.:E05TSI                              WED 07/30/97 04:31 Page:12
--  Include file information  --

   XUF_ENTRY.:E05TOU  cannot be made into a system file and is referenced.
   PM_NAMES.:E05TOU  cannot be made into a system file and is referenced.
   KL_MACRO_C.:E05TOU  is referenced.
   KL_AFCN_C.:E05TOU  is referenced.
   P_FEP_M.:E05TOU  is referenced.
   K_ID_E.:E05TOU  is referenced.
   XU_FORMAT_C.:E05TOU  is referenced.
   PM_BUCKET_C.:E05TOU  is referenced.
   PS_SUBS_C.:E05TOU  is referenced.
   PS_DATA_R.:E05TOU  cannot be made into a system file and is referenced.
   CP_6.:E05TOU  cannot be made into a system file and is referenced.
   B$JIT_C.:E05TOU  was found in the system file and is never referenced.
   CP_6_C.:E05TOU  was found in the system file and is referenced.
      No diagnostics issued in procedure PSD$MOUSE.

   Procedure PSD$MOUSE requires 345 words for executable code.
   Procedure PSD$MOUSE requires 40 words of local(AUTO) storage.

    No errors detected in file PSD$MOUSE.:E05TSI    .

PL6.E3A0      #001=PSD$MOUSE File=PSD$MOUSE.:E05TSI                              WED 07/30/97 04:31 Page:13

 Object Unit name= PSD$MOUSE                                  File name= PSD$MOUSE.:E05TOU
 UTS= JUL 30 '97 04:31:48.32 WED                              Compiler= PL-6/E31         Sev=      00
 SharedLib= :SHARED_SYSTEM                                    Alt SharedLib=


    ****  Control sections  ****

 Sect   Type Bound  Init  Size OctSiz  Section name(segment info)
    0   DCB   even  none     0      0  M$UC
    1   DCB   even  none     0      0  M$LO
    2   DCB   even  none     0      0  M$DO
    3   DCB   even  none     0      0  M$SI
    4   DCB   even  none     0      0  F$LOG
    5   DCB   even  none     0      0  M$ME
    6   DCB   even  none     0      0  M$HLPCG
    7  RtLbCm even  none    30     36  PS_FDS
    8  RtLbCm even  none    32     40  PS_SELECT_RPN
    9  RtLbCm even  none    17     21  PS_STATS_RPN
   10  RtLbCm even  none    34     42  PS_STATS_BUCKET
   11   Data  even  none    21     25  PSD$MOUSE
   12  RoData even  UTS    425    651  PSD$MOUSE
   13   Proc  even  none   345    531  PSD$MOUSE
   14  RoData even  none    27     33  PSD$MOUSE

    ****  Entry defs  ****

                              Check   Calling
                             calling  sequence
  Sect OctLoc Primary Altret sequence   type   Parms  Name
    13      0   yes            yes      Std        0  PSD$MOUSE
PL6.E3A0      #001=PSD$MOUSE File=PSD$MOUSE.:E05TSI                              WED 07/30/97 04:31 Page:14

  ****  Entry refs  ****

         Check        Calling
        calling       sequence
Altret sequence SRef   type   Args  Name
         yes           Std       1 PSD$EJECT
         yes           Std      22 X$WRITE
                       nStd      0 X66_AUTO_0
                       Std       0 B_CONSPOOL_D
                       nStd      0 X66_ARET

  ****  Data refs  ****

  Flags:  r = read only, s = secondary
Flgs Name                             Flgs Name                             Flgs Name
     M$UC                                  M$LO                                  M$DO
     M$SI                                  F$LOG                                 M$ME
     M$HLPCG                               PS_MOUSE$                             PS_BUFFER
     PS_STATS$                             B_VECTNIL

  ****  Segment refs  ****

  Flags:  r = read only, s = secondary
Flgs Name                             Flgs Name                             Flgs Name
     NULLSID                               ISSID
PL6.E3A0      #001=PSD$MOUSE File=PSD$MOUSE.:E05TSI                              WED 07/30/97 04:31 Page:15


        1        1        /*M*  PSD$MOUSE    Generate STATS' "MOUSE" (i.e., CALMON) display             */
        2        2        /*T***********************************************************/
        3        3        /*T*                                                         */
        4        4        /*T* Copyright (c) Bull HN Information Systems Inc., 1997    */
        5        5        /*T*                                                         */
        6        6        /*T***********************************************************/
        7        7        /*X* CLM=77,CRM=80,CRT=1,PLM=3,CTI=1,THI=2                                    */
        8        8        PSD$MOUSE: PROC;

      8 13 000000   000000 700200 xent  PSD$MOUSE    TSX0  ! X66_AUTO_0
        13 000001   000050 000000                    ZERO    40,0
        13 000002   000251 710000 13                 TRA     s:6483

        9        9        %INCLUDE CP_6;
       10       90        %INCLUDE PS_DATA_R;
       11     5386        %MACRO PM_LIST (NAME="*");
       12     5387        DCL 1 NAME CONSTANT,
       13     5388        %MEND;
       14     5389        %MACRO PM_PMME(NAME=" ");
       15     5390              2 *,
       16     5391                3 * UBIN BYTE UNAL INIT(LENGTHC(NAME)),
       17     5392                3 * CHAR(0) INIT(NAME),
       18     5393        %MEND;
       19     5394        %MACRO PM_ENDLIST;
       20     5395              2 * UBIN BYTE UNAL INIT(0);
       21     5396        %MEND;
       22     5397        %EJECT;
PL6.E3A0      #001=PSD$MOUSE File=PSD$MOUSE.:E05TSI                              WED 07/30/97 04:31 Page:16
       23     5398    1   DCL P$ PTR;
       24     5399    1   DCL Q$ PTR;
       25     5400    1   DCL R$ PTR;
       26     5401    1   DCL I UBIN WORD;
       27     5402    1   DCL J UBIN WORD;
       28     5403    1   DCL K UBIN WORD;
       29     5404    1   DCL L UBIN;
       30     5405    1   DCL ASN UBIN;
       31     5406    1   DCL TOTAL_COUNT UBIN;
       32     5407    1   DCL TOTAL_CPU UBIN;
       33     5408    1   DCL TOTAL_IOS UBIN;
       34     5409    1   DCL ITEM_COUNT UBIN WORD;
       35     5410    1   DCL BREAKDN BIT(1);
       36     5411
       37     5412    1   DCL 1 CHEESE BASED(PS_MOUSE$),
       38     5413    1         2 SIZE UBIN WORD,
       39     5414    1         2 FCGS UBIN WORD,
       40     5415    1         2 FCG (0:0) ALIGNED,
       41     5416    1           3 OFFSET UBIN HALF UNAL,
       42     5417    1           3 BREAKDOWN BIT(1),
       43     5418    1           3 * BIT(8),
       44     5419    1           3 COUNT UBIN BYTE UNAL;
       45     5420
       46     5421    1   DCL 1 CHEDDAR BASED (P$),
       47     5422    1         2 COUNT UBIN WORD,
       48     5423    1         2 CPU UBIN WORD,
       49     5424    1         2 I_O UBIN WORD;
       50     5425
       51     5426    1   DCL 1 SUM_PMME,
       52     5427    1         2 COUNT UBIN WORD,
       53     5428    1         2 CPU UBIN WORD,
       54     5429    1         2 I_O UBIN WORD;
       55     5430
       56     5431    1   DCL 1 OUTPUT STATIC,
       57     5432    1         2 PMME CHAR (16),
       58     5433    1         2 BRKDN CHAR(12),
       59     5434    1         2 COUNT UBIN WORD,
PL6.E3A0      #001=PSD$MOUSE File=PSD$MOUSE.:E05TSI                              WED 07/30/97 04:31 Page:17
       60     5435    1         2 PCT_COUNT,
       61     5436    1           3 INT UBIN,
       62     5437    1           3 FRAC UBIN,
       63     5438    1         2 CPU UBIN,
       64     5439    1         2 PCT_CPU,
       65     5440    1           3 INT UBIN,
       66     5441    1           3 FRAC UBIN,
       67     5442    1         2 AVG_CPU,
       68     5443    1           3 MSEC UBIN WORD,
       69     5444    1           3 USEC UBIN WORD,
       70     5445    1         2 I_O UBIN WORD,
       71     5446    1         2 PCT_IOS,
       72     5447    1           3 INT UBIN,
       73     5448    1           3 FRAC UBIN,
       74     5449    1         2 AVG_I_O,
       75     5450    1           3 INTEGER UBIN WORD,
       76     5451    1           3 FRAC UBIN WORD;
       77     5452
       78     5453        %EQU NULL_ASN=0;
       79     5454        %EQU ALL_ASNS=1;
       80     5455        %EQU THIS_ASN=2;
       81     5456        %EQU ALL_SERVICES=3;
       82     5457        %EJECT;
PL6.E3A0      #001=PSD$MOUSE File=PSD$MOUSE.:E05TSI                              WED 07/30/97 04:31 Page:18
       83     5458        %PM_LIST (NAME=PS_MOUSE_NAMES);
       84     5461           %INCLUDE PM_NAMES;                        /* Magicly created from UD_EQU_E */
       85     6337        %PM_ENDLIST;
       86     6340    1   DCL PS_ASN_NAMES (0:7) CHAR (16) CONSTANT INIT (
       87     6341    1         '(?dryrot?)',
       88     6342    1         '(file)',
       89     6343    1         '(tape)',
       90     6344    1         '(device)',
       91     6345    1         '(comgroup)',
       92     6346    1         '(stream)',
       93     6347    1         '(T&D)',
       94     6348    1         '(FM diag)' );
       95     6349        %EJECT;
PL6.E3A0      #001=PSD$MOUSE File=PSD$MOUSE.:E05TSI                              WED 07/30/97 04:31 Page:19
       96     6350    1   DCL 1 MOUSE_HEAD_FMT CONSTANT,
       97     6351    1         2 P1 CHAR (0) INIT ('%/Service%15-ASN of DCB%31-number%42-%% of   '),
       98     6352    1         2 P2 CHAR (0) INIT ('%49-Msec. of %61-%% of %70-Msec. %81-# of   '),
       99     6353    1         2 P3 CHAR (0) INIT ('%90-%% of %101-I/O''s %/ %16-(if any) %31-'),
      100     6354    1         2 P4 CHAR (0) INIT ('of uses %42-uses %49-CPU time %61-CPU'),
      101     6355    1         2 P5 CHAR (0) INIT (' %69-per use %80-I/O''s %89-I/O''s %100-'),
      102     6356    1         2 P6 CHAR (0) INIT ('per use %2/');
      103     6357
      104     6358    1   DCL 1 OUTPUT_FORMAT CONSTANT,
      105     6359    1         2 P1 CHAR (0) INIT ('%16A %17-%12A %29-%8D %40-%3D.%Z3D %49-%8D '),
      106     6360    1         2 P2 CHAR (0) INIT ('%59-%3D.%Z3D %68-%4D.%Z3D %77-%8D %87-%3D.%Z3D '),
      107     6361    1         2 P3 CHAR (0) INIT ('%99-%3D.%Z3D      ');
      108     6362
      109     6363    1   DCL 1 DASH_FORMAT CONSTANT,
      110     6364    1         2 P1 CHAR (0) INIT ('%29--------- %40-------- %49--------- %59-------- '),
      111     6365    1         2 P2 CHAR (0) INIT ('%68--------- %77--------- %87-------- %99--------');
      112     6366
      113     6367        %INCLUDE XUF_ENTRY;
      114     6375    1   DCL PSD$EJECT ENTRY (1);
      115     6376        %EJECT;
PL6.E3A0      #001=PSD$MOUSE File=PSD$MOUSE.:E05TSI                              WED 07/30/97 04:31 Page:20
      116     6377    1   THURB: PROC (VALUE, WHERE);

   6377 13 000003   200036 741300       THURB        STX1  ! FACTOR+1,,AUTO

      117     6378
      118     6379    2   DCL VALUE UBIN;
      119     6380    2   DCL VALUE_SBIN REDEF VALUE SBIN;
      120     6381
      121     6382    2   DCL 1 WHERE,
      122     6383    2         2 MSEC UBIN WORD,
      123     6384    2         2 USEC UBIN WORD;
      124     6385
      125     6386    2      WHERE.MSEC = VALUE / 1000;

   6386 13 000004   200037 470500                    LDP0    @VALUE,,AUTO
        13 000005   000000 236100                    LDQ     0,,PR0
        13 000006   000001 772000                    QRL     1
        13 000007   000764 506007                    DIV     500,DL
        13 000010   200040 471500                    LDP1    @WHERE,,AUTO
        13 000011   100000 756100                    STQ     0,,PR1

      126     6387    2      WHERE.USEC = MOD(VALUE_SBIN, 1000);

   6387 13 000012   000000 236100                    LDQ     0,,PR0
        13 000013   001750 506007                    DIV     1000,DL
        13 000014   100001 755100                    STA     1,,PR1

      127     6388
      128     6389    2      RETURN;

   6389 13 000015   200036 221300                    LDX1  ! FACTOR+1,,AUTO
        13 000016   000001 702211                    TSX2  ! 1,X1

      129     6390
      130     6391    2   END THURB;
      131     6392
      132     6393    1   FROBB: PROC (I, J, K);
PL6.E3A0      #001=PSD$MOUSE File=PSD$MOUSE.:E05TSI                              WED 07/30/97 04:31 Page:21

   6393 13 000017   200030 741300       FROBB        STX1  ! @ARRAY+2,,AUTO

      133     6394
      134     6395    2   DCL I UBIN;
      135     6396    2   DCL J UBIN;
      136     6397    2   DCL J_SBIN REDEF J SBIN;
      137     6398    2   DCL K UBIN;
      138     6399
      139     6400    2   DCL T UBIN;
      140     6401    2   DCL FACTOR UBIN;
      141     6402    2   DCL FACTOR_SBIN REDEF FACTOR SBIN;
      142     6403
      143     6404    2   DCL 1 BIGGEST SBIN WORD STATIC INIT ( BITBIN('377777777777'O) ) ;
      144     6405        %EQU FUDGE_FACTOR = 100000;
      145     6406
      146     6407    2      FACTOR = %FUDGE_FACTOR;

   6407 13 000020   303240 235007                    LDA     100000,DL
        13 000021   200035 755100                    STA     FACTOR,,AUTO

      147     6408
      148     6409    3      DO WHILE ( FACTOR > 1  AND  I > BIGGEST / FACTOR_SBIN ) ;

   6409 13 000022   000026 710000 13                 TRA     s:6413

      149     6410
      150     6411    3         FACTOR = FACTOR / 2;

   6411 13 000023   200035 236100                    LDQ     FACTOR,,AUTO
        13 000024   000001 772000                    QRL     1
        13 000025   200035 756100                    STQ     FACTOR,,AUTO

      151     6412
      152     6413    3         END;

   6413 13 000026   200035 235100                    LDA     FACTOR,,AUTO
PL6.E3A0      #001=PSD$MOUSE File=PSD$MOUSE.:E05TSI                              WED 07/30/97 04:31 Page:22
        13 000027   000002 115007                    CMPA    2,DL
        13 000030   000040 602000 13                 TNC     s:6415
        13 000031   000024 236000 11                 LDQ     BIGGEST
        13 000032   200035 506100                    DIV     FACTOR,,AUTO
        13 000033   200031 470500                    LDP0    @I,,AUTO
        13 000034   000000 116003                    CMPQ    0,DU
        13 000035   000023 604000 13                 TMI     s:6411
        13 000036   000000 116100                    CMPQ    0,,PR0
        13 000037   000023 602000 13                 TNC     s:6411

      153     6414
      154     6415    2      IF ( J_SBIN / ( %FUDGE_FACTOR / FACTOR_SBIN ) ) = 0

   6415 13 000040   303240 236007                    LDQ     100000,DL
        13 000041   200035 506100                    DIV     FACTOR,,AUTO
        13 000042   200042 756100                    STQ     @WHERE+2,,AUTO
        13 000043   200032 470500                    LDP0    @J,,AUTO
        13 000044   000000 236100                    LDQ     0,,PR0
        13 000045   200042 506100                    DIV     @WHERE+2,,AUTO
        13 000046   000000 116003                    CMPQ    0,DU
        13 000047   000052 601000 13                 TNZ     s:6419

      155     6416    2        THEN
      156     6417    2         T = 0;

   6417 13 000050   200034 450100                    STZ     T,,AUTO
        13 000051   000067 710000 13                 TRA     s:6421

      157     6418    2        ELSE
      158     6419    2         T = ( I * FACTOR_SBIN ) / ( J_SBIN / ( %FUDGE_FACTOR / FACTOR_SBIN ) ) ;

   6419 13 000052   200031 471500                    LDP1    @I,,AUTO
        13 000053   100000 236100                    LDQ     0,,PR1
        13 000054   200035 402100                    MPY     FACTOR,,AUTO
        13 000055   200042 756100                    STQ     @WHERE+2,,AUTO
        13 000056   303240 236007                    LDQ     100000,DL
        13 000057   200035 506100                    DIV     FACTOR,,AUTO
PL6.E3A0      #001=PSD$MOUSE File=PSD$MOUSE.:E05TSI                              WED 07/30/97 04:31 Page:23
        13 000060   200043 756100                    STQ     @WHERE+3,,AUTO
        13 000061   000000 236100                    LDQ     0,,PR0
        13 000062   200043 506100                    DIV     @WHERE+3,,AUTO
        13 000063   200044 756100                    STQ     @WHERE+4,,AUTO
        13 000064   200042 236100                    LDQ     @WHERE+2,,AUTO
        13 000065   200044 506100                    DIV     @WHERE+4,,AUTO
        13 000066   200034 756100                    STQ     T,,AUTO

      159     6420
      160     6421    2      CALL THURB (T, K);

   6421 13 000067   200033 236100                    LDQ     @K,,AUTO
        13 000070   200040 756100                    STQ     @WHERE,,AUTO
        13 000071   200034 631500                    EPPR1   T,,AUTO
        13 000072   200037 451500                    STP1    @VALUE,,AUTO
        13 000073   000003 701000 13                 TSX1    THURB
        13 000074   000000 011000                    NOP     0

      161     6422
      162     6423    2      RETURN;

   6423 13 000075   200030 221300                    LDX1  ! @ARRAY+2,,AUTO
        13 000076   000001 702211                    TSX2  ! 1,X1

      163     6424
      164     6425    2   END FROBB;
      165     6426
      166     6427
      167     6428    1   MARK_LINE: PROC (CODER, ARRAY);

   6428 13 000077   200024 741300       MARK_LINE    STX1  ! SUM_PMME+3,,AUTO

      168     6429
      169     6430    2   DCL 1 ARRAY,
      170     6431    2         2 COUNT UBIN WORD,
      171     6432    2         2 COUNT_SBIN REDEF COUNT SBIN WORD,
      172     6433    2         2 CPU UBIN WORD,
PL6.E3A0      #001=PSD$MOUSE File=PSD$MOUSE.:E05TSI                              WED 07/30/97 04:31 Page:24
      173     6434    2         2 CPU_SBIN REDEF CPU SBIN WORD,
      174     6435    2         2 I_O UBIN WORD,
      175     6436    2         2 I_O_SBIN REDEF I_O SBIN WORD;
      176     6437
      177     6438    2   DCL CODER SBIN WORD;
      178     6439
      179     6440    2      IF CODER = %ALL_SERVICES

   6440 13 000100   200025 470500                    LDP0    @CODER,,AUTO
        13 000101   000000 235100                    LDA     0,,PR0
        13 000102   000003 115007                    CMPA    3,DL
        13 000103   000110 601000 13                 TNZ     s:6444

      180     6441    2        THEN
      181     6442    2         OUTPUT.PMME = '(all services)';

   6442 13 000104   040000 100400                    MLR     fill='040'O
        13 000105   000642 000016 12                 ADSC9   DASH_FORMAT+25           cn=0,n=14
        13 000106   000000 000020 11                 ADSC9   OUTPUT                   cn=0,n=16
        13 000107   000120 710000 13                 TRA     s:6446

      182     6443    2        ELSE
      183     6444    2         OUTPUT.PMME = R$ -> TEXTC.TEXT;

   6444 13 000110   200006 471500                    LDP1    R$,,AUTO
        13 000111   000100 101500                    MRL     fill='000'O
        13 000112   100000 000001                    ADSC9   0,,PR1                   cn=0,n=1
        13 000113   200042 000002                    ADSC9   @WHERE+2,,AUTO           cn=0,n=2
        13 000114   200042 220100                    LDX0    @WHERE+2,,AUTO
        13 000115   040000 100540                    MLR     fill='040'O
        13 000116   100000 200010                    ADSC9   0,,PR1                   cn=1,n=*X0
        13 000117   000000 000020 11                 ADSC9   OUTPUT                   cn=0,n=16

      184     6445
      185     6446    3      DO CASE (CODER);

   6446 13 000120   000000 235100                    LDA     0,,PR0
PL6.E3A0      #001=PSD$MOUSE File=PSD$MOUSE.:E05TSI                              WED 07/30/97 04:31 Page:25
        13 000121   000004 115007                    CMPA    4,DL
        13 000122   000124 602005 13                 TNC     s:6446+4,AL
        13 000123   000145 710000 13                 TRA     s:6462
        13 000124   000130 710000 13                 TRA     s:6450
        13 000125   000134 710000 13                 TRA     s:6454
        13 000126   000140 710000 13                 TRA     s:6458
        13 000127   000130 710000 13                 TRA     s:6450

      186     6447
      187     6448    3       CASE (%NULL_ASN, %ALL_SERVICES);

      188     6449
      189     6450    3         OUTPUT.BRKDN = ' ';

   6450 13 000130   040000 100400                    MLR     fill='040'O
        13 000131   000035 000001 xsym               ADSC9   B_VECTNIL+29             cn=0,n=1
        13 000132   000004 000014 11                 ADSC9   OUTPUT+4                 cn=0,n=12
        13 000133   000145 710000 13                 TRA     s:6462

      190     6451
      191     6452    3       CASE (%ALL_ASNS);

      192     6453
      193     6454    3         OUTPUT.BRKDN = '(all ASNs)';

   6454 13 000134   040000 100400                    MLR     fill='040'O
        13 000135   000646 000012 12                 ADSC9   DASH_FORMAT+29           cn=0,n=10
        13 000136   000004 000014 11                 ADSC9   OUTPUT+4                 cn=0,n=12
        13 000137   000145 710000 13                 TRA     s:6462

      194     6455
      195     6456    3       CASE (%THIS_ASN);

      196     6457
      197     6458    3         OUTPUT.BRKDN = PS_ASN_NAMES(ASN);

   6458 13 000140   200013 236100                    LDQ     ASN,,AUTO
PL6.E3A0      #001=PSD$MOUSE File=PSD$MOUSE.:E05TSI                              WED 07/30/97 04:31 Page:26
        13 000141   000004 736000                    QLS     4
        13 000142   040000 100406                    MLR     fill='040'O
        13 000143   000430 000014 12                 ADSC9   PS_ASN_NAMES,Q           cn=0,n=12
        13 000144   000004 000014 11                 ADSC9   OUTPUT+4                 cn=0,n=12

      198     6459
      199     6460    3       END;

      200     6461
      201     6462    3      IF ARRAY.COUNT > 0 THEN DO;

   6462 13 000145   200026 471500                    LDP1    @ARRAY,,AUTO
        13 000146   100000 235100                    LDA     0,,PR1
        13 000147   000247 600000 13                 TZE     s:6480

      202     6463
      203     6464    3         ITEM_COUNT = ITEM_COUNT + 1;

   6464 13 000150   200017 236100                    LDQ     ITEM_COUNT,,AUTO
        13 000151   000001 036007                    ADLQ    1,DL
        13 000152   200017 756100                    STQ     ITEM_COUNT,,AUTO

      204     6465
      205     6466    3         OUTPUT.COUNT = ARRAY.COUNT;

   6466 13 000153   000007 755000 11                 STA     OUTPUT+7

      206     6467    3         CALL FROBB (ARRAY.COUNT, TOTAL_COUNT, OUTPUT.PCT_COUNT);

   6467 13 000154   000000 236000 14                 LDQ     0
        13 000155   200033 756100                    STQ     @K,,AUTO
        13 000156   200014 633500                    EPPR3   TOTAL_COUNT,,AUTO
        13 000157   200032 453500                    STP3    @J,,AUTO
        13 000160   200026 236100                    LDQ     @ARRAY,,AUTO
        13 000161   200031 756100                    STQ     @I,,AUTO
        13 000162   000017 701000 13                 TSX1    FROBB
        13 000163   000000 011000                    NOP     0
PL6.E3A0      #001=PSD$MOUSE File=PSD$MOUSE.:E05TSI                              WED 07/30/97 04:31 Page:27

      207     6468    3         OUTPUT.CPU = ARRAY.CPU / 1000;

   6468 13 000164   200026 470500                    LDP0    @ARRAY,,AUTO
        13 000165   000001 236100                    LDQ     1,,PR0
        13 000166   000001 772000                    QRL     1
        13 000167   000764 506007                    DIV     500,DL
        13 000170   000012 756000 11                 STQ     OUTPUT+10

      208     6469    3         CALL FROBB (ARRAY.CPU, TOTAL_CPU, OUTPUT.PCT_CPU);

   6469 13 000171   000001 236000 14                 LDQ     1
        13 000172   200033 756100                    STQ     @K,,AUTO
        13 000173   200015 631500                    EPPR1   TOTAL_CPU,,AUTO
        13 000174   200032 451500                    STP1    @J,,AUTO
        13 000175   200026 236100                    LDQ     @ARRAY,,AUTO
        13 000176   000001 036003                    ADLQ    1,DU
        13 000177   200031 756100                    STQ     @I,,AUTO
        13 000200   000017 701000 13                 TSX1    FROBB
        13 000201   000000 011000                    NOP     0

      209     6470    3         CALL THURB ( ARRAY.CPU_SBIN / ARRAY.COUNT_SBIN, OUTPUT.AVG_CPU );

   6470 13 000202   200026 470500                    LDP0    @ARRAY,,AUTO
        13 000203   000001 236100                    LDQ     1,,PR0
        13 000204   000000 506100                    DIV     0,,PR0
        13 000205   200045 756100                    STQ     @WHERE+5,,AUTO
        13 000206   000002 236000 14                 LDQ     2
        13 000207   200040 756100                    STQ     @WHERE,,AUTO
        13 000210   200045 631500                    EPPR1   @WHERE+5,,AUTO
        13 000211   200037 451500                    STP1    @VALUE,,AUTO
        13 000212   000003 701000 13                 TSX1    THURB
        13 000213   000000 011000                    NOP     0

      210     6471    3         OUTPUT.I_O = ARRAY.I_O;

   6471 13 000214   200026 470500                    LDP0    @ARRAY,,AUTO
PL6.E3A0      #001=PSD$MOUSE File=PSD$MOUSE.:E05TSI                              WED 07/30/97 04:31 Page:28
        13 000215   000002 235100                    LDA     2,,PR0
        13 000216   000017 755000 11                 STA     OUTPUT+15

      211     6472    3         CALL FROBB (ARRAY.I_O, TOTAL_IOS, OUTPUT.PCT_IOS);

   6472 13 000217   000003 236000 14                 LDQ     3
        13 000220   200033 756100                    STQ     @K,,AUTO
        13 000221   200016 631500                    EPPR1   TOTAL_IOS,,AUTO
        13 000222   200032 451500                    STP1    @J,,AUTO
        13 000223   200026 236100                    LDQ     @ARRAY,,AUTO
        13 000224   000002 036003                    ADLQ    2,DU
        13 000225   200031 756100                    STQ     @I,,AUTO
        13 000226   000017 701000 13                 TSX1    FROBB
        13 000227   000000 011000                    NOP     0

      212     6473    3         CALL THURB ( ARRAY.I_O_SBIN * 1000 / ARRAY.COUNT_SBIN, OUTPUT.AVG_I_O );

   6473 13 000230   200026 470500                    LDP0    @ARRAY,,AUTO
        13 000231   000002 236100                    LDQ     2,,PR0
        13 000232   001750 402007                    MPY     1000,DL
        13 000233   000000 506100                    DIV     0,,PR0
        13 000234   200046 756100                    STQ     @WHERE+6,,AUTO
        13 000235   000004 236000 14                 LDQ     4
        13 000236   200040 756100                    STQ     @WHERE,,AUTO
        13 000237   200046 631500                    EPPR1   @WHERE+6,,AUTO
        13 000240   200037 451500                    STP1    @VALUE,,AUTO
        13 000241   000003 701000 13                 TSX1    THURB
        13 000242   000000 011000                    NOP     0

      213     6474
      214     6475    3         CALL X$WRITE (PS_FDS, VECTOR(OUTPUT_FORMAT),

   6475 13 000243   000012 630400 14                 EPPR0   10
        13 000244   000021 631400 xsym               EPPR1   B_VECTNIL+17
        13 000245   000000 701000 xent               TSX1    X$WRITE
        13 000246   000000 011000                    NOP     0

PL6.E3A0      #001=PSD$MOUSE File=PSD$MOUSE.:E05TSI                              WED 07/30/97 04:31 Page:29
      215     6476    3          VECTOR(OUTPUT));
      216     6477
      217     6478    3         END;

      218     6479
      219     6480    2      RETURN;

   6480 13 000247   200024 221300                    LDX1  ! SUM_PMME+3,,AUTO
        13 000250   000001 702211                    TSX2  ! 1,X1

      220     6481    2   END MARK_LINE;
      221     6482        %EJECT;
PL6.E3A0      #001=PSD$MOUSE File=PSD$MOUSE.:E05TSI                              WED 07/30/97 04:31 Page:30
      222     6483    1      CALL PSD$EJECT;

   6483 13 000251   000002 631400 xsym               EPPR1   B_VECTNIL+2
        13 000252   000000 701000 xent               TSX1    PSD$EJECT
        13 000253   000000 011000                    NOP     0

      223     6484
      224     6485    1      CALL X$WRITE (PS_FDS, VECTOR(MOUSE_HEAD_FMT));

   6485 13 000254   000020 630400 14                 EPPR0   16
        13 000255   000020 631400 xsym               EPPR1   B_VECTNIL+16
        13 000256   000000 701000 xent               TSX1    X$WRITE
        13 000257   000000 011000                    NOP     0

      225     6486
      226     6487    1      R$ = ADDR(PS_MOUSE_NAMES);

   6487 13 000260   000022 236000 14                 LDQ     18
        13 000261   200006 756100                    STQ     R$,,AUTO

      227     6488
      228     6489    1      TOTAL_COUNT = 0;

   6489 13 000262   200014 450100                    STZ     TOTAL_COUNT,,AUTO

      229     6490    1      TOTAL_CPU = 0;

   6490 13 000263   200015 450100                    STZ     TOTAL_CPU,,AUTO

      230     6491    1      TOTAL_IOS = 0;

   6491 13 000264   200016 450100                    STZ     TOTAL_IOS,,AUTO

      231     6492
      232     6493    1      P$ = PINCRW(PS_MOUSE$, CHEESE.FCG.OFFSET(0));

   6493 13 000265   000000 470400 xsym               LDP0    PS_MOUSE$
PL6.E3A0      #001=PSD$MOUSE File=PSD$MOUSE.:E05TSI                              WED 07/30/97 04:31 Page:31
        13 000266   000002 220100                    LDX0    2,,PR0
        13 000267   000000 636010                    EAQ     0,X0
        13 000270   000000 036000 xsym               ADLQ    PS_MOUSE$
        13 000271   200004 756100                    STQ     P$,,AUTO

      233     6494
      234     6495    2      DO I = 0 TO CHEESE.FCGS;

   6495 13 000272   200007 450100                    STZ     I,,AUTO
        13 000273   000350 710000 13                 TRA     s:6516+3

      235     6496
      236     6497    2         IF CHEESE.FCG.BREAKDOWN(I)

   6497 13 000274   000000 470400 xsym               LDP0    PS_MOUSE$
        13 000275   200007 720100                    LXL0    I,,AUTO
        13 000276   000002 236110                    LDQ     2,X0,PR0
        13 000277   400000 316007                    CANQ    -131072,DL
        13 000300   000304 600000 13                 TZE     s:6501

      237     6498    2           THEN
      238     6499    2            K = 7;

   6499 13 000301   000007 235007                    LDA     7,DL
        13 000302   200011 755100                    STA     K,,AUTO
        13 000303   000305 710000 13                 TRA     s:6503

      239     6500    2           ELSE
      240     6501    2            K = 0;

   6501 13 000304   200011 450100                    STZ     K,,AUTO

      241     6502
      242     6503    3         DO J = 0 TO CHEESE.FCG.COUNT(I);

   6503 13 000305   200010 450100                    STZ     J,,AUTO
        13 000306   000337 710000 13                 TRA     s:6514+3
PL6.E3A0      #001=PSD$MOUSE File=PSD$MOUSE.:E05TSI                              WED 07/30/97 04:31 Page:32

      243     6504
      244     6505    4            DO L = 0 TO K;

   6505 13 000307   200012 450100                    STZ     L,,AUTO
        13 000310   000331 710000 13                 TRA     s:6512+3

      245     6506
      246     6507    4               TOTAL_COUNT = TOTAL_COUNT + CHEDDAR.COUNT;

   6507 13 000311   200004 470500                    LDP0    P$,,AUTO
        13 000312   200014 236100                    LDQ     TOTAL_COUNT,,AUTO
        13 000313   000000 036100                    ADLQ    0,,PR0
        13 000314   200014 756100                    STQ     TOTAL_COUNT,,AUTO

      247     6508    4               TOTAL_CPU = TOTAL_CPU + CHEDDAR.CPU;

   6508 13 000315   200015 236100                    LDQ     TOTAL_CPU,,AUTO
        13 000316   000001 036100                    ADLQ    1,,PR0
        13 000317   200015 756100                    STQ     TOTAL_CPU,,AUTO

      248     6509    4               TOTAL_IOS = TOTAL_IOS + CHEDDAR.I_O;

   6509 13 000320   200016 236100                    LDQ     TOTAL_IOS,,AUTO
        13 000321   000002 036100                    ADLQ    2,,PR0
        13 000322   200016 756100                    STQ     TOTAL_IOS,,AUTO

      249     6510    4               P$ = PINCRW(P$, SIZEW(CHEDDAR));

   6510 13 000323   200004 236100                    LDQ     P$,,AUTO
        13 000324   000003 036003                    ADLQ    3,DU
        13 000325   200004 756100                    STQ     P$,,AUTO

      250     6511
      251     6512    4               END;

   6512 13 000326   200012 235100                    LDA     L,,AUTO
PL6.E3A0      #001=PSD$MOUSE File=PSD$MOUSE.:E05TSI                              WED 07/30/97 04:31 Page:33
        13 000327   000001 035007                    ADLA    1,DL
        13 000330   200012 755100                    STA     L,,AUTO
        13 000331   200011 236100                    LDQ     K,,AUTO
        13 000332   200012 116100                    CMPQ    L,,AUTO
        13 000333   000311 603000 13                 TRC     s:6507

      252     6513
      253     6514    3            END;

   6514 13 000334   200010 235100                    LDA     J,,AUTO
        13 000335   000001 035007                    ADLA    1,DL
        13 000336   200010 755100                    STA     J,,AUTO
        13 000337   000000 470400 xsym               LDP0    PS_MOUSE$
        13 000340   200007 720100                    LXL0    I,,AUTO
        13 000341   000002 236110                    LDQ     2,X0,PR0
        13 000342   000777 376007                    ANQ     511,DL
        13 000343   200010 116100                    CMPQ    J,,AUTO
        13 000344   000307 603000 13                 TRC     s:6505

      254     6515
      255     6516    2         END;

   6516 13 000345   200007 235100                    LDA     I,,AUTO
        13 000346   000001 035007                    ADLA    1,DL
        13 000347   200007 755100                    STA     I,,AUTO
        13 000350   000001 236100                    LDQ     1,,PR0
        13 000351   200007 116100                    CMPQ    I,,AUTO
        13 000352   000274 603000 13                 TRC     s:6497

      256     6517
      257     6518    2      DO I = 0 TO CHEESE.FCGS;

   6518 13 000353   200007 450100                    STZ     I,,AUTO
        13 000354   000500 710000 13                 TRA     s:6556+3

      258     6519
      259     6520    2         P$ = PINCRW(PS_MOUSE$, CHEESE.FCG.OFFSET(I));
PL6.E3A0      #001=PSD$MOUSE File=PSD$MOUSE.:E05TSI                              WED 07/30/97 04:31 Page:34

   6520 13 000355   000000 470400 xsym               LDP0    PS_MOUSE$
        13 000356   200007 720100                    LXL0    I,,AUTO
        13 000357   000002 221110                    LDX1    2,X0,PR0
        13 000360   000000 636011                    EAQ     0,X1
        13 000361   000000 036000 xsym               ADLQ    PS_MOUSE$
        13 000362   200004 756100                    STQ     P$,,AUTO

      260     6521    2         BREAKDN = CHEESE.FCG.BREAKDOWN(I);

   6521 13 000363   000002 236110                    LDQ     2,X0,PR0
        13 000364   000022 736000                    QLS     18
        13 000365   400000 376003                    ANQ     -131072,DU
        13 000366   200020 756100                    STQ     BREAKDN,,AUTO

      261     6522
      262     6523    3         DO J = 0 TO CHEESE.FCG.COUNT(I);

   6523 13 000367   200010 450100                    STZ     J,,AUTO
        13 000370   000467 710000 13                 TRA     s:6554+3

      263     6524
      264     6525    3            IF BREAKDN = '0'B

   6525 13 000371   200020 234100                    SZN     BREAKDN,,AUTO
        13 000372   000405 604000 13                 TMI     s:6534

      265     6526    4              THEN DO;

      266     6527
      267     6528    4               CALL MARK_LINE (%NULL_ASN, CHEDDAR);

   6528 13 000373   200004 236100                    LDQ     P$,,AUTO
        13 000374   200026 756100                    STQ     @CODER+1,,AUTO
        13 000375   000023 236000 14                 LDQ     19
        13 000376   200025 756100                    STQ     SUM_PMME+4,,AUTO
        13 000377   000077 701000 13                 TSX1    MARK_LINE
PL6.E3A0      #001=PSD$MOUSE File=PSD$MOUSE.:E05TSI                              WED 07/30/97 04:31 Page:35
        13 000400   000000 011000                    NOP     0

      268     6529    4               P$ = PINCRW(P$, SIZEW(SUM_PMME));

   6529 13 000401   200004 236100                    LDQ     P$,,AUTO
        13 000402   000003 036003                    ADLQ    3,DU
        13 000403   200004 756100                    STQ     P$,,AUTO

      269     6530    4               END;

   6530 13 000404   000453 710000 13                 TRA     s:6552

      270     6531
      271     6532    4              ELSE DO;

      272     6533
      273     6534    4               SUM_PMME.COUNT = 0;

   6534 13 000405   200021 450100                    STZ     SUM_PMME,,AUTO

      274     6535    4               SUM_PMME.CPU = 0;

   6535 13 000406   200022 450100                    STZ     SUM_PMME+1,,AUTO

      275     6536    4               SUM_PMME.I_O = 0;

   6536 13 000407   200023 450100                    STZ     SUM_PMME+2,,AUTO

      276     6537    4               ITEM_COUNT = 0;

   6537 13 000410   200017 450100                    STZ     ITEM_COUNT,,AUTO

      277     6538    5               DO ASN = 0 TO 7;

   6538 13 000411   200013 450100                    STZ     ASN,,AUTO

      278     6539
PL6.E3A0      #001=PSD$MOUSE File=PSD$MOUSE.:E05TSI                              WED 07/30/97 04:31 Page:36
      279     6540    5                  CALL MARK_LINE (%THIS_ASN, CHEDDAR);

   6540 13 000412   200004 236100                    LDQ     P$,,AUTO
        13 000413   200026 756100                    STQ     @CODER+1,,AUTO
        13 000414   000024 236000 14                 LDQ     20
        13 000415   200025 756100                    STQ     SUM_PMME+4,,AUTO
        13 000416   000077 701000 13                 TSX1    MARK_LINE
        13 000417   000000 011000                    NOP     0

      280     6541    5                  SUM_PMME.COUNT = SUM_PMME.COUNT + CHEDDAR.COUNT;

   6541 13 000420   200004 470500                    LDP0    P$,,AUTO
        13 000421   200021 236100                    LDQ     SUM_PMME,,AUTO
        13 000422   000000 036100                    ADLQ    0,,PR0
        13 000423   200021 756100                    STQ     SUM_PMME,,AUTO

      281     6542    5                  SUM_PMME.CPU = SUM_PMME.CPU + CHEDDAR.CPU;

   6542 13 000424   200022 236100                    LDQ     SUM_PMME+1,,AUTO
        13 000425   000001 036100                    ADLQ    1,,PR0
        13 000426   200022 756100                    STQ     SUM_PMME+1,,AUTO

      282     6543    5                  SUM_PMME.I_O = SUM_PMME.I_O + CHEDDAR.I_O;

   6543 13 000427   200023 236100                    LDQ     SUM_PMME+2,,AUTO
        13 000430   000002 036100                    ADLQ    2,,PR0
        13 000431   200023 756100                    STQ     SUM_PMME+2,,AUTO

      283     6544    5                  P$ = PINCRW(P$, SIZEW(SUM_PMME));

   6544 13 000432   200004 236100                    LDQ     P$,,AUTO
        13 000433   000003 036003                    ADLQ    3,DU
        13 000434   200004 756100                    STQ     P$,,AUTO

      284     6545    5                  END;

   6545 13 000435   200013 235100                    LDA     ASN,,AUTO
PL6.E3A0      #001=PSD$MOUSE File=PSD$MOUSE.:E05TSI                              WED 07/30/97 04:31 Page:37
        13 000436   000001 035007                    ADLA    1,DL
        13 000437   200013 755100                    STA     ASN,,AUTO
        13 000440   000010 115007                    CMPA    8,DL
        13 000441   000412 602000 13                 TNC     s:6540

      285     6546
      286     6547    4               IF ITEM_COUNT > 1 THEN

   6547 13 000442   200017 235100                    LDA     ITEM_COUNT,,AUTO
        13 000443   000002 115007                    CMPA    2,DL
        13 000444   000453 602000 13                 TNC     s:6552

      287     6548    4                  CALL MARK_LINE (%ALL_ASNS, SUM_PMME);

   6548 13 000445   200021 630500                    EPPR0   SUM_PMME,,AUTO
        13 000446   200026 450500                    STP0    @CODER+1,,AUTO
        13 000447   000025 236000 14                 LDQ     21
        13 000450   200025 756100                    STQ     SUM_PMME+4,,AUTO
        13 000451   000077 701000 13                 TSX1    MARK_LINE
        13 000452   000000 011000                    NOP     0

      288     6549
      289     6550    4               END;

      290     6551
      291     6552    3            R$ = PINCRC(R$, R$ -> TEXTC.LEN + 1);

   6552 13 000453   200006 470500                    LDP0    R$,,AUTO
        13 000454   000100 101500                    MRL     fill='000'O
        13 000455   000000 000001                    ADSC9   0,,PR0                   cn=0,n=1
        13 000456   200042 000004                    ADSC9   @WHERE+2,,AUTO           cn=0,n=4
        13 000457   200042 236100                    LDQ     @WHERE+2,,AUTO
        13 000460   000020 736000                    QLS     16
        13 000461   200000 036007                    ADLQ    65536,DL
        13 000462   200006 036100                    ADLQ    R$,,AUTO
        13 000463   200006 756100                    STQ     R$,,AUTO

PL6.E3A0      #001=PSD$MOUSE File=PSD$MOUSE.:E05TSI                              WED 07/30/97 04:31 Page:38
      292     6553
      293     6554    3            END;

   6554 13 000464   200010 235100                    LDA     J,,AUTO
        13 000465   000001 035007                    ADLA    1,DL
        13 000466   200010 755100                    STA     J,,AUTO
        13 000467   000000 470400 xsym               LDP0    PS_MOUSE$
        13 000470   200007 720100                    LXL0    I,,AUTO
        13 000471   000002 236110                    LDQ     2,X0,PR0
        13 000472   000777 376007                    ANQ     511,DL
        13 000473   200010 116100                    CMPQ    J,,AUTO
        13 000474   000371 603000 13                 TRC     s:6525

      294     6555
      295     6556    2         END;

   6556 13 000475   200007 235100                    LDA     I,,AUTO
        13 000476   000001 035007                    ADLA    1,DL
        13 000477   200007 755100                    STA     I,,AUTO
        13 000500   000001 236100                    LDQ     1,,PR0
        13 000501   200007 116100                    CMPQ    I,,AUTO
        13 000502   000355 603000 13                 TRC     s:6520

      296     6557
      297     6558    1      IF TOTAL_COUNT > 0

   6558 13 000503   200014 235100                    LDA     TOTAL_COUNT,,AUTO
        13 000504   000525 600000 13                 TZE     s:6571

      298     6559    2        THEN DO;

      299     6560
      300     6561    2         CALL X$WRITE (PS_FDS, VECTOR(DASH_FORMAT));

   6561 13 000505   000030 630400 14                 EPPR0   24
        13 000506   000020 631400 xsym               EPPR1   B_VECTNIL+16
        13 000507   000000 701000 xent               TSX1    X$WRITE
PL6.E3A0      #001=PSD$MOUSE File=PSD$MOUSE.:E05TSI                              WED 07/30/97 04:31 Page:39
        13 000510   000000 011000                    NOP     0

      301     6562
      302     6563    2         SUM_PMME.COUNT = TOTAL_COUNT;

   6563 13 000511   200014 235100                    LDA     TOTAL_COUNT,,AUTO
        13 000512   200021 755100                    STA     SUM_PMME,,AUTO

      303     6564    2         SUM_PMME.CPU = TOTAL_CPU;

   6564 13 000513   200015 236100                    LDQ     TOTAL_CPU,,AUTO
        13 000514   200022 756100                    STQ     SUM_PMME+1,,AUTO

      304     6565    2         SUM_PMME.I_O = TOTAL_IOS;

   6565 13 000515   200016 235100                    LDA     TOTAL_IOS,,AUTO
        13 000516   200023 755100                    STA     SUM_PMME+2,,AUTO

      305     6566
      306     6567    2         CALL MARK_LINE (%ALL_SERVICES, SUM_PMME);

   6567 13 000517   200021 630500                    EPPR0   SUM_PMME,,AUTO
        13 000520   200026 450500                    STP0    @CODER+1,,AUTO
        13 000521   000032 236000 14                 LDQ     26
        13 000522   200025 756100                    STQ     SUM_PMME+4,,AUTO
        13 000523   000077 701000 13                 TSX1    MARK_LINE
        13 000524   000000 011000                    NOP     0

      307     6568
      308     6569    2         END;

      309     6570
      310     6571    1      CALL PSD$EJECT;

   6571 13 000525   000002 631400 xsym               EPPR1   B_VECTNIL+2
        13 000526   000000 701000 xent               TSX1    PSD$EJECT
        13 000527   000000 011000                    NOP     0
PL6.E3A0      #001=PSD$MOUSE File=PSD$MOUSE.:E05TSI                              WED 07/30/97 04:31 Page:40

      311     6572
      312     6573    1      RETURN;

   6573 13 000530   000000 702200 xent               TSX2  ! X66_ARET
      313     6574
      314     6575    1   END PSD$MOUSE;

PL6.E3A0      #001=PSD$MOUSE File=PSD$MOUSE.:E05TSI                              WED 07/30/97 04:31 Page:41
--  Include file information  --

   XUF_ENTRY.:E05TOU  cannot be made into a system file and is referenced.
   PM_NAMES.:E05TOU  cannot be made into a system file and is referenced.
   KL_MACRO_C.:E05TOU  is referenced.
   KL_AFCN_C.:E05TOU  is referenced.
   P_FEP_M.:E05TOU  is referenced.
   K_ID_E.:E05TOU  is referenced.
   XU_FORMAT_C.:E05TOU  is referenced.
   PM_BUCKET_C.:E05TOU  is referenced.
   PS_SUBS_C.:E05TOU  is referenced.
   PS_DATA_R.:E05TOU  cannot be made into a system file and is referenced.
   CP_6.:E05TOU  cannot be made into a system file and is referenced.
   B$JIT_C.:E05TOU  was found in the system file and is never referenced.
   CP_6_C.:E05TOU  was found in the system file and is referenced.
      No diagnostics issued in procedure PSD$MOUSE.
PL6.E3A0      #001=PSD$MOUSE File=PSD$MOUSE.:E05TSI                              WED 07/30/97 04:31 Page:42

 **** Variables and constants ****

  ****  Section 007 RtLmCm PS_FDS

  ****  Scalars and arrays  ****
OctLoc.c.b A Datatyp(siz) R M Lvl/name                 OctLoc.c.b A Datatyp(siz) R M Lvl/name

     0-0-0/w STRC(1080)  r     1 PS_FDS

  ****  Section 011  Data  PSD$MOUSE

  ****  Scalars and arrays  ****
OctLoc.c.b A Datatyp(siz) R M Lvl/name                 OctLoc.c.b A Datatyp(siz) R M Lvl/name

    24-0-0/w SBIN        r     1 BIGGEST                    0-0-0/w STRC(720)   r     1 OUTPUT

  ****  Section 012 RoData PSD$MOUSE

  ****  Scalars and arrays  ****
OctLoc.c.b A Datatyp(siz) R M Lvl/name                 OctLoc.c.b A Datatyp(siz) R M Lvl/name

   611-0-0/c STRC(891)   r     1 DASH_FORMAT              470-0-0/c STRC(1944)  r     1 MOUSE_HEAD_FMT
   556-0-0/c STRC(972)   r     1 OUTPUT_FORMAT
   430-0-0/c CHAR(16)    r     1 PS_ASN_NAMES(0:7)
     0-0-0/c STRC(10062) r     1 PS_MOUSE_NAMES

  ****  Auto variables  ****

  ****  Scalars and arrays  ****
OctLoc.c.b A Datatyp(siz) R M Lvl/name                 OctLoc.c.b A Datatyp(siz) R M Lvl/name

    26-0-0/w PTR         r     1 @ARRAY                    25-0-0/w PTR         r     1 @CODER
    31-0-0/w PTR         r     1 @I                        32-0-0/w PTR         r     1 @J
    33-0-0/w PTR         r     1 @K                        37-0-0/w PTR         r     1 @VALUE
    40-0-0/w PTR         r     1 @WHERE                    *0-0-0/w STRC(108)   r     1 ARRAY
    13-0-0/w UBIN        r     1 ASN                       20-0-0/b BIT         r     1 BREAKDN
    *0-0-0/w SBIN        r     1 CODER                     35-0-0/w UBIN        r     1 FACTOR
PL6.E3A0      #001=PSD$MOUSE File=PSD$MOUSE.:E05TSI                              WED 07/30/97 04:31 Page:43
    35-0-0/w SBIN        r     1 FACTOR_SBIN                7-0-0/w UBIN        r     1 I
    *0-0-0/w UBIN        r     1 I                         17-0-0/w UBIN        r     1 ITEM_COUNT
    10-0-0/w UBIN        r     1 J                         *0-0-0/w UBIN        r     1 J
    *0-0-0/w SBIN        r     1 J_SBIN                    11-0-0/w UBIN        r     1 K
    *0-0-0/w UBIN        r     1 K                         12-0-0/w UBIN        r     1 L
     4-0-0/w PTR         r     1 P$                         6-0-0/w PTR         r     1 R$
    21-0-0/w STRC(108)   r     1 SUM_PMME                  34-0-0/w UBIN        r     1 T
    14-0-0/w UBIN        r     1 TOTAL_COUNT               15-0-0/w UBIN        r     1 TOTAL_CPU
    16-0-0/w UBIN        r     1 TOTAL_IOS                 *0-0-0/w UBIN        r     1 VALUE
    *0-0-0/w SBIN        r     1 VALUE_SBIN                *0-0-0/w STRC(72)    r     1 WHERE

  ****  SYMREF variables  ****

  ****  Scalars and arrays  ****
OctLoc.c.b A Datatyp(siz) R M Lvl/name                 OctLoc.c.b A Datatyp(siz) R M Lvl/name

     0-0-0/c CHAR(140)   r     1 PS_BUFFER                  0-0-0/w PTR         r     1 PS_MOUSE$
     0-0-0/w PTR         r     1 PS_STATS$

  ****  BASED and DCB variables  ****

  ****  Scalars and arrays  ****
OctLoc.c.b A Datatyp(siz) R M Lvl/name                 OctLoc.c.b A Datatyp(siz) R M Lvl/name

     0-0-0/w STRC(108)   r     1 CHEDDAR                    0-0-0/w STRC(108)   r     1 CHEESE
     0-0-0N  NULL        r     1 M$LO                       0-0-0/c ASTR(9)     r     1 TEXTC


   Procedure PSD$MOUSE requires 345 words for executable code.
   Procedure PSD$MOUSE requires 40 words of local(AUTO) storage.

    No errors detected in file PSD$MOUSE.:E05TSI    .
PL6.E3A0      #001=PSD$MOUSE File=PSD$MOUSE.:E05TSI                              WED 07/30/97 04:31 Page:44
          *** CROSS REFERENCE LISTING ***
**     DENOTES     IDENTIFIER DEFINITION
<<                 IDENTIFIER'S VALUE SET
>>                 IDENTIFIER'S VALUE USED
<>                 IDENTIFIER SET AND/OR USED
--                 IDENTIFIER REFERENCED
PL6.E3A0      #001=PSD$MOUSE File=PSD$MOUSE.:E05TSI                              WED 07/30/97 04:31 Page:45
          MINI XREF LISTING

ARRAY IN PROCEDURE MARK_LINE
      6430**DCL      6428--PROC
ARRAY.COUNT IN PROCEDURE MARK_LINE
      6431**DCL      6432--REDEF    6462>>IF       6466>>ASSIGN   6467<>CALL
ARRAY.COUNT_SBIN IN PROCEDURE MARK_LINE
      6432**DCL      6470>>CALL     6473>>CALL
ARRAY.CPU IN PROCEDURE MARK_LINE
      6433**DCL      6434--REDEF    6468>>ASSIGN   6469<>CALL
ARRAY.CPU_SBIN IN PROCEDURE MARK_LINE
      6434**DCL      6470>>CALL
ARRAY.I_O IN PROCEDURE MARK_LINE
      6435**DCL      6436--REDEF    6471>>ASSIGN   6472<>CALL
ARRAY.I_O_SBIN IN PROCEDURE MARK_LINE
      6436**DCL      6473>>CALL
ASN
      5405**DCL      6458>>ASSIGN   6538<<DOINDEX
BIGGEST IN PROCEDURE FROBB
      6404**DCL      6409>>DOWHILE
BREAKDN
      5410**DCL      6521<<ASSIGN   6525>>IF
CHEDDAR
      5421**DCL      6510--ASSIGN   6528<>CALL     6540<>CALL
CHEDDAR.COUNT
      5422**DCL      6507>>ASSIGN   6541>>ASSIGN
CHEDDAR.CPU
      5423**DCL      6508>>ASSIGN   6542>>ASSIGN
CHEDDAR.I_O
      5424**DCL      6509>>ASSIGN   6543>>ASSIGN
CHEESE.FCG.BREAKDOWN
      5417**DCL      6497>>IF       6521>>ASSIGN
CHEESE.FCG.COUNT
      5419**DCL      6503>>DOINDEX  6523>>DOINDEX
PL6.E3A0      #001=PSD$MOUSE File=PSD$MOUSE.:E05TSI                              WED 07/30/97 04:31 Page:46
CHEESE.FCG.OFFSET
      5416**DCL      6493>>ASSIGN   6520>>ASSIGN
CHEESE.FCGS
      5414**DCL      6495>>DOINDEX  6518>>DOINDEX
CODER IN PROCEDURE MARK_LINE
      6438**DCL      6428--PROC     6440>>IF       6446>>DOCASE
DASH_FORMAT
      6363**DCL      6561--CALL
FACTOR IN PROCEDURE FROBB
      6401**DCL      6402--REDEF    6407<<ASSIGN   6409>>DOWHILE  6411<<ASSIGN   6411>>ASSIGN
FACTOR_SBIN IN PROCEDURE FROBB
      6402**DCL      6409>>DOWHILE  6415>>IF       6419>>ASSIGN   6419>>ASSIGN
FROBB
      6393**PROC     6467--CALL     6469--CALL     6472--CALL
I
      5401**DCL      6495<<DOINDEX  6497>>IF       6503>>DOINDEX  6518<<DOINDEX  6520>>ASSIGN   6521>>ASSIGN
      6523>>DOINDEX
I IN PROCEDURE FROBB
      6395**DCL      6393--PROC     6409>>DOWHILE  6419>>ASSIGN
ITEM_COUNT
      5409**DCL      6464<<ASSIGN   6464>>ASSIGN   6537<<ASSIGN   6547>>IF
J
      5402**DCL      6503<<DOINDEX  6523<<DOINDEX
J IN PROCEDURE FROBB
      6396**DCL      6393--PROC     6397--REDEF
J_SBIN IN PROCEDURE FROBB
      6397**DCL      6415>>IF       6419>>ASSIGN
K
      5403**DCL      6499<<ASSIGN   6501<<ASSIGN   6505>>DOINDEX
K IN PROCEDURE FROBB
      6398**DCL      6393--PROC     6421<>CALL
L
      5404**DCL      6505<<DOINDEX
MARK_LINE
      6428**PROC     6528--CALL     6540--CALL     6548--CALL     6567--CALL
MOUSE_HEAD_FMT
PL6.E3A0      #001=PSD$MOUSE File=PSD$MOUSE.:E05TSI                              WED 07/30/97 04:31 Page:47
      6350**DCL      6485--CALL
OUTPUT
      5431**DCL      6475--CALL
OUTPUT.AVG_CPU
      5442**DCL      6470<>CALL
OUTPUT.AVG_I_O
      5449**DCL      6473<>CALL
OUTPUT.BRKDN
      5433**DCL      6450<<ASSIGN   6454<<ASSIGN   6458<<ASSIGN
OUTPUT.COUNT
      5434**DCL      6466<<ASSIGN
OUTPUT.CPU
      5438**DCL      6468<<ASSIGN
OUTPUT.I_O
      5445**DCL      6471<<ASSIGN
OUTPUT.PCT_COUNT
      5435**DCL      6467<>CALL
OUTPUT.PCT_CPU
      5439**DCL      6469<>CALL
OUTPUT.PCT_IOS
      5446**DCL      6472<>CALL
OUTPUT.PMME
      5432**DCL      6442<<ASSIGN   6444<<ASSIGN
OUTPUT_FORMAT
      6358**DCL      6475--CALL
P$
      5398**DCL      5421--IMP-PTR  6493<<ASSIGN   6507>>ASSIGN   6508>>ASSIGN   6509>>ASSIGN   6510<<ASSIGN
      6510>>ASSIGN   6520<<ASSIGN   6528>>CALL     6529<<ASSIGN   6529>>ASSIGN   6540>>CALL     6541>>ASSIGN
      6542>>ASSIGN   6543>>ASSIGN   6544<<ASSIGN   6544>>ASSIGN
PSD$EJECT
      6375**DCL-ENT  6483--CALL     6571--CALL
PS_ASN_NAMES
      6340**DCL      6458>>ASSIGN
PS_BUFFER
      4921**DCL      4956--DCLINIT  4958--DCLINIT
PS_COLLECT.CALCNT
PL6.E3A0      #001=PSD$MOUSE File=PSD$MOUSE.:E05TSI                              WED 07/30/97 04:31 Page:48
      5076**DCL      5076--REDEF
PS_COLLECT.USRSRV
      5073**DCL      5074--REDEF
PS_FDS
      4938**DCL      6475<>CALL     6485<>CALL     6561<>CALL
PS_HLPCGBUF.DSPMSK
      5333**DCL      5339--REDEF
PS_HLPCGBUF.SLCMSK
      5374**DCL      5381--REDEF
PS_MOUSE$
      4500**DCL      5412--IMP-PTR  6493>>ASSIGN   6493>>ASSIGN   6495>>DOINDEX  6497>>IF       6503>>DOINDEX
      6518>>DOINDEX  6520>>ASSIGN   6520>>ASSIGN   6521>>ASSIGN   6523>>DOINDEX
PS_MOUSE_NAMES
      5459**DCL      6487--ASSIGN
PS_OLD_COLLECT.CALCNT
      5080**DCL      5081--REDEF
PS_OLD_COLLECT.USRSRV
      5078**DCL      5078--REDEF
PS_STATS$
      5082**DCL      5084--IMP-PTR
R$
      5400**DCL      6444>>ASSIGN   6444>>ASSIGN   6487<<ASSIGN   6552<<ASSIGN   6552>>ASSIGN   6552>>ASSIGN
SUM_PMME
      5426**DCL      6529--ASSIGN   6544--ASSIGN   6548<>CALL     6567<>CALL
SUM_PMME.COUNT
      5427**DCL      6534<<ASSIGN   6541<<ASSIGN   6541>>ASSIGN   6563<<ASSIGN
SUM_PMME.CPU
      5428**DCL      6535<<ASSIGN   6542<<ASSIGN   6542>>ASSIGN   6564<<ASSIGN
SUM_PMME.I_O
      5429**DCL      6536<<ASSIGN   6543<<ASSIGN   6543>>ASSIGN   6565<<ASSIGN
T IN PROCEDURE FROBB
      6400**DCL      6417<<ASSIGN   6419<<ASSIGN   6421<>CALL
TEXTC.LEN
      5086**DCL      5086--IMP-SIZ  6444>>ASSIGN   6552>>ASSIGN
TEXTC.TEXT
      5086**DCL      6444>>ASSIGN
PL6.E3A0      #001=PSD$MOUSE File=PSD$MOUSE.:E05TSI                              WED 07/30/97 04:31 Page:49
THURB
      6377**PROC     6421--CALL     6470--CALL     6473--CALL
TOTAL_COUNT
      5406**DCL      6467<>CALL     6489<<ASSIGN   6507<<ASSIGN   6507>>ASSIGN   6558>>IF       6563>>ASSIGN
TOTAL_CPU
      5407**DCL      6469<>CALL     6490<<ASSIGN   6508<<ASSIGN   6508>>ASSIGN   6564>>ASSIGN
TOTAL_IOS
      5408**DCL      6472<>CALL     6491<<ASSIGN   6509<<ASSIGN   6509>>ASSIGN   6565>>ASSIGN
VALUE IN PROCEDURE THURB
      6379**DCL      6377--PROC     6380--REDEF    6386>>ASSIGN
VALUE_SBIN IN PROCEDURE THURB
      6380**DCL      6387>>ASSIGN
WHERE IN PROCEDURE THURB
      6382**DCL      6377--PROC
WHERE.MSEC IN PROCEDURE THURB
      6383**DCL      6386<<ASSIGN
WHERE.USEC IN PROCEDURE THURB
      6384**DCL      6387<<ASSIGN
X$WRITE
      6373**DCL-ENT  6475--CALL     6485--CALL     6561--CALL
