VERSION E05

PL6.E3A0      #001=PSD$SCPU File=PSD$SCPU.:E05TSI                                WED 07/30/97 04:33 Page:1
        1        1        /*M*  PSD$DISPLAY_SCPU     Display slave CPU utilization                      */
        2        2        /*T***********************************************************/
        3        3        /*T*                                                         */
        4        4        /*T* Copyright (c) Bull HN Information Systems Inc., 1997    */
        5        5        /*T*                                                         */
        6        6        /*T***********************************************************/
        7        7        /*X* CLM=77,CRM=80,CRT=1,PLM=3,CTI=1,THI=2                                    */
        8        8        /*P*  NAME:    PSD$DISPLAY_SCPU
        9        9              PURPOSE: Display slave CPU utilization                                  */
       10       10        PSD$SCPU: PROC;
       11       11        %INCLUDE PS_DATA_R;
       12     5307        %INCLUDE CP_6_SUBS;
       13     5847        %INCLUDE CP_6;
       14     5928        %F$DCB;
       15     5985        %EJECT;
PL6.E3A0      #001=PSD$SCPU File=PSD$SCPU.:E05TSI                                WED 07/30/97 04:33 Page:2
       16     5986    1   DCL SCPU_HEAD_ BIT(72) CONSTANT DALIGNED INIT (VECTOR(SCPU_TITLES));
       17     5987
       18     5988    1   DCL 1 SCPU_TITLES STATIC,
       19     5989    1         2 TITLE1 (0:6),
       20     5990    1           3 SLAVE_TAG CHAR(10) INIT (' '*0),
       21     5991    1           3 SLAVE_NUM CHAR(1) INIT (' '*0),
       22     5992    1         2 TITLE1A (0:6) REDEF TITLE1 CHAR(11),
       23     5993    1         2 TITLE2 (0:6) CHAR(12) INIT (' '*0);
       24     5994
       25     5995    1   DCL 1 SCPU_HDR CONSTANT,
       26     5996    1         2 * CHAR (0)
       27     5997    1          INIT ('%/%16X   %11A   %11A   %11A   %11A   %11A   %11A   %11A'),
       28     5998    1         2 * CHAR (0)
       29     5999    1          INIT ('%/%16X   %12A  %12A  %12A  %12A  %12A  %12A  %12A');
       30     6000
       31     6001    1   DCL 1 SCPU_FORMAT STATIC,
       32     6002    1         2 * CHAR (0) INIT ('%16A '),
       33     6003    1         2 * CHAR (0) INIT ('%7(%6D %6D%Q %)');
       34     6004
       35     6005    1   DCL 1 DATA_VECTOR DALIGNED,
       36     6006    1         2 BOUND UBIN (20) UNAL,
       37     6007    1         2 FLAGS BIT (16),
       38     6008    1         2 PTR$ PTR;
       39     6009
       40     6010    1   DCL 1 SCPU_DATA STATIC,
       41     6011    1         2 TITLE CHAR (16),
       42     6012    1         2 CPU,
       43     6013    1           3 N0,
       44     6014    1             4 ALL UBIN,
       45     6015    1             4 SNAP UBIN,
       46     6016    1           3 N1,
       47     6017    1             4 ALL UBIN,
       48     6018    1             4 SNAP UBIN,
       49     6019    1           3 N2,
       50     6020    1             4 ALL UBIN,
       51     6021    1             4 SNAP UBIN,
       52     6022    1           3 N3,
PL6.E3A0      #001=PSD$SCPU File=PSD$SCPU.:E05TSI                                WED 07/30/97 04:33 Page:3
       53     6023    1             4 ALL UBIN,
       54     6024    1             4 SNAP UBIN,
       55     6025    1           3 N4,
       56     6026    1             4 ALL UBIN,
       57     6027    1             4 SNAP UBIN,
       58     6028    1           3 N5,
       59     6029    1             4 ALL UBIN,
       60     6030    1             4 SNAP UBIN,
       61     6031    1           3 N6,
       62     6032    1             4 ALL UBIN,
       63     6033    1             4 SNAP UBIN,
       64     6034    1         2 CPU_NUMBER (0:6) REDEF CPU,
       65     6035    1           3 ALL UBIN,
       66     6036    1           3 SNAP UBIN;
       67     6037
       68     6038    1   DCL NSCPU UBIN;
       69     6039    1   DCL CPUS_PER_LINE SBIN;
       70     6040    1   DCL LINE UBIN;
       71     6041    1   DCL WIDTH UBIN;
       72     6042    1   DCL STARTING_CPU UBIN;
       73     6043    1   DCL ENDING_CPU UBIN;
       74     6044    1   DCL I UBIN;
       75     6045    1   DCL J UBIN;
       76     6046    1   DCL K UBIN;
       77     6047    1   DCL OLD_VAL UBIN;
       78     6048    1   DCL NEW_VAL UBIN;
       79     6049    1   DCL NEW$ PTR;
       80     6050    1   DCL OLD$ PTR;
       81     6051    1   DCL PORT$ PTR;
       82     6052        %INCLUDE XUF_ENTRY;
       83     6060    1   DCL PSL$EVAL ENTRY (3);
       84     6061    1   DCL PSL$LOCATE ENTRY (3);
       85     6062    1   DCL PSL$CHOMP ENTRY (5);
       86     6063    1   DCL PSD$SKIP ENTRY;
       87     6064    1   DCL PSD$EJECT ENTRY (1);
       88     6065        %EJECT;
PL6.E3A0      #001=PSD$SCPU File=PSD$SCPU.:E05TSI                                WED 07/30/97 04:33 Page:4
       89     6066    1   GENERATE: PROC (TITLE, CODE, MODE);
       90     6067
       91     6068    2   DCL TITLE CHAR(16);
       92     6069    2   DCL CODE UBIN;
       93     6070    2   DCL MODE UBIN;
       94     6071
       95     6072    2      CALL PSL$LOCATE (CODE, NEW$, OLD$);
       96     6073
       97     6074    2      SCPU_DATA.TITLE = TITLE;
       98     6075
       99     6076    3      DO I = STARTING_CPU TO ENDING_CPU;
      100     6077
      101     6078    3         IF OLD$ = ADDR(NIL)
      102     6079    3           THEN OLD_VAL = 0;
      103     6080    3           ELSE OLD_VAL = OLD$ -> BLOCK.DATA(I);
      104     6081
      105     6082    3         NEW_VAL = NEW$ -> BLOCK.DATA(I);
      106     6083
      107     6084    3         CALL PSL$CHOMP (OLD_VAL, NEW_VAL, MODE,
      108     6085    3          SCPU_DATA.CPU_NUMBER.ALL(I - STARTING_CPU),
      109     6086    3          SCPU_DATA.CPU_NUMBER.SNAP(I - STARTING_CPU));
      110     6087
      111     6088    3         END;
      112     6089
      113     6090    2      CALL X$WRITE (PS_FDS, VECTOR(SCPU_FORMAT),
      114     6091    2       VECTOR(TITLE), DATA_VECTOR);
      115     6092
      116     6093    2      RETURN;
      117     6094
      118     6095    2   END GENERATE;
      119     6096        %EJECT;
PL6.E3A0      #001=PSD$SCPU File=PSD$SCPU.:E05TSI                                WED 07/30/97 04:33 Page:5
      120     6097    1      CALL PSL$EVAL (S_NSCPU#, NSCPU);
      121     6098    1      CALL PSL$LOCATE (S_PORTNR#, PORT$);
      122     6099
      123     6100    1      WIDTH = DCBADDR(DCBNUM(M$LO)) -> F$DCB.WIDTH#;
      124     6101
      125     6102    1      CPUS_PER_LINE = (WIDTH - 17) / 15;
      126     6103
      127     6104    1      CALL PSD$EJECT (16 * ( ( (NSCPU+1) + (CPUS_PER_LINE-1) ) / CPUS_PER_LINE) );
      128     6105
      129     6106    2      DO STARTING_CPU = 0 TO NSCPU BY CPUS_PER_LINE;
      130     6107
      131     6108    2         ENDING_CPU = STARTING_CPU + CPUS_PER_LINE - 1;
      132     6109
      133     6110    2         IF ENDING_CPU > NSCPU
      134     6111    2           THEN
      135     6112    2            ENDING_CPU = NSCPU;
      136     6113
      137     6114    3         DO I = STARTING_CPU TO ENDING_CPU;
      138     6115
      139     6116    3            IF I = 0
      140     6117    4              THEN DO;
      141     6118    4               SCPU_TITLES.TITLE1A(I - STARTING_CPU) = ' Master CPU';
      142     6119    4               END;
      143     6120
      144     6121    4              ELSE DO;
      145     6122    4               SCPU_TITLES.TITLE1.SLAVE_TAG(I - STARTING_CPU) = 'Slave CPU';
      146     6123    4               CALL BINCHAR(SCPU_TITLES.TITLE1.SLAVE_NUM(I - STARTING_CPU),
      147     6124    4                PORT$ -> BLOCK.DATA(I));
      148     6125    4               END;
      149     6126
      150     6127    3            SCPU_TITLES.TITLE2(I - STARTING_CPU) = '{all} {snap}';
      151     6128
      152     6129    3            END;
      153     6130
      154     6131    3         DO I = (ENDING_CPU - STARTING_CPU + 1) TO 6;
      155     6132
      156     6133    3            SCPU_TITLES.TITLE1A(I) = ' ';
PL6.E3A0      #001=PSD$SCPU File=PSD$SCPU.:E05TSI                                WED 07/30/97 04:33 Page:6
      157     6134    3            SCPU_TITLES.TITLE2(I) = ' ';
      158     6135
      159     6136    3            END;
      160     6137
      161     6138    2         CALL X$WRITE (PS_FDS, VECTOR(SCPU_HDR),
      162     6139    2          VECTOR(SCPU_TITLES));
      163     6140
      164     6141    2         DATA_VECTOR = VECTOR(SCPU_DATA.CPU);
      165     6142
      166     6143    2         DATA_VECTOR.BOUND = (ENDING_CPU - STARTING_CPU + 1) *
      167     6144    2          LENGTHC(SCPU_DATA.CPU.N0) - 1;
      168     6145
      169     6146    2         CALL GENERATE('% user execution', S_UXEQTIME#, PERCENT#);
      170     6147    2         CALL GENERATE('% user service  ', S_USRVTIME#, PERCENT#);
      171     6148    2         CALL GENERATE('% monitor exec. ', S_MXEQTIME#, PERCENT#);
      172     6149    2         CALL GENERATE('% I/O wait      ', S_MIDLWIO#, PERCENT#);
      173     6150    2         CALL GENERATE('% resource wait ', S_MIDLWRES#, PERCENT#);
      174     6151    2         CALL GENERATE('% I/O & res wait', S_MIDLWRESIO#, PERCENT#);
      175     6152    2         CALL GENERATE('% true idle     ', S_MIDLTIME#, PERCENT#);
      176     6153    2         CALL GENERATE('% unaccountable ', P_STOPTIME#, PERCENT#);
      177     6154    2         CALL GENERATE('Schedules/minute', P_SCHD#, RATE#);
      178     6155    2         CALL GENERATE('Events/minute   ', P_RUE#, RATE#);
      179     6156    2         CALL GENERATE('PMME starts/min.', P_CALCNT#, RATE#);
      180     6157    2         CALL GENERATE('PMME ends/min.  ', P_CALCOMP#, RATE#);
      181     6158
      182     6159    2         CALL PSD$SKIP;
      183     6160
      184     6161    2         END;
      185     6162
      186     6163    1      RETURN;
      187     6164
      188     6165    1   END PSD$SCPU;

PL6.E3A0      #001=PSD$SCPU File=PSD$SCPU.:E05TSI                                WED 07/30/97 04:33 Page:7
--  Include file information  --

   XUF_ENTRY.:E05TOU  cannot be made into a system file and is referenced.
   CP_6.:E05TOU  cannot be made into a system file and is referenced.
   CP_6_SUBS.:E05TOU  is referenced.
   KL_MACRO_C.:E05TOU  is referenced.
   KL_AFCN_C.:E05TOU  is referenced.
   P_FEP_M.:E05TOU  is referenced.
   K_ID_E.:E05TOU  is referenced.
   XU_FORMAT_C.:E05TOU  is referenced.
   PM_BUCKET_C.:E05TOU  is referenced.
   PS_SUBS_C.:E05TOU  is referenced.
   PS_DATA_R.:E05TOU  cannot be made into a system file and is referenced.
   B$JIT_C.:E05TOU  was found in the system file and is never referenced.
   CP_6_C.:E05TOU  was found in the system file and is referenced.
      No diagnostics issued in procedure PSD$SCPU.

   Procedure PSD$SCPU requires 279 words for executable code.
   Procedure PSD$SCPU requires 30 words of local(AUTO) storage.

    No errors detected in file PSD$SCPU.:E05TSI    .

PL6.E3A0      #001=PSD$SCPU File=PSD$SCPU.:E05TSI                                WED 07/30/97 04:33 Page:8

 Object Unit name= PSD$SCPU                                   File name= PSD$SCPU.:E05TOU
 UTS= JUL 30 '97 04:33:18.36 WED                              Compiler= PL-6/E31         Sev=      00
 SharedLib= :SHARED_SYSTEM                                    Alt SharedLib=


    ****  Control sections  ****

 Sect   Type Bound  Init  Size OctSiz  Section name(segment info)
    0   DCB   even  none     0      0  M$LO
    1   DCB   even  none     0      0  M$DO
    2   DCB   even  none     0      0  M$SI
    3   DCB   even  none     0      0  F$LOG
    4   DCB   even  none     0      0  M$ME
    5   DCB   even  none     0      0  M$HLPCG
    6  RtLbCm even  none    30     36  PS_FDS
    7  RtLbCm even  none    32     40  PS_SELECT_RPN
    8  RtLbCm even  none    17     21  PS_STATS_RPN
    9  RtLbCm even  none    34     42  PS_STATS_BUCKET
   10   DCB   even  none     0      0  M$UC
   11  RoData even  UTS     85    125  PSD$SCPU
   12   Data  even  none    64    100  PSD$SCPU
   13   Proc  even  none   279    427  PSD$SCPU
   14  RoData even  none    69    105  PSD$SCPU

    ****  Entry defs  ****

                              Check   Calling
                             calling  sequence
  Sect OctLoc Primary Altret sequence   type   Parms  Name
    13      0   yes            yes      Std        0  PSD$SCPU
PL6.E3A0      #001=PSD$SCPU File=PSD$SCPU.:E05TSI                                WED 07/30/97 04:33 Page:9

  ****  Entry refs  ****

         Check        Calling
        calling       sequence
Altret sequence SRef   type   Args  Name
         yes           Std       3 PSL$EVAL
         yes           Std       1 PSD$EJECT
         yes           Std       3 PSL$LOCATE
         yes           Std      22 X$WRITE
         yes           Std       0 PSD$SKIP
         yes           Std       5 PSL$CHOMP
                       nStd      0 X66_AUTO_0
                       Std       0 B_CONSPOOL_D
                       nStd      0 X66_ARET

  ****  Data refs  ****

  Flags:  r = read only, s = secondary
Flgs Name                             Flgs Name                             Flgs Name
     M$LO                                  M$DO                                  M$SI
     F$LOG                                 M$ME                                  M$HLPCG
     PS_BUFFER                             PS_STATS$                             M$UC
     B_VECTNIL

  ****  Segment refs  ****

  Flags:  r = read only, s = secondary
Flgs Name                             Flgs Name                             Flgs Name
     NULLSID                               ISSID                                 ROSID
PL6.E3A0      #001=PSD$SCPU File=PSD$SCPU.:E05TSI                                WED 07/30/97 04:33 Page:10


        1        1        /*M*  PSD$DISPLAY_SCPU     Display slave CPU utilization                      */
        2        2        /*T***********************************************************/
        3        3        /*T*                                                         */
        4        4        /*T* Copyright (c) Bull HN Information Systems Inc., 1997    */
        5        5        /*T*                                                         */
        6        6        /*T***********************************************************/
        7        7        /*X* CLM=77,CRM=80,CRT=1,PLM=3,CTI=1,THI=2                                    */
        8        8        /*P*  NAME:    PSD$DISPLAY_SCPU
        9        9              PURPOSE: Display slave CPU utilization                                  */
       10       10        PSD$SCPU: PROC;

     10 13 000000   000000 700200 xent  PSD$SCPU     TSX0  ! X66_AUTO_0
        13 000001   000036 000000                    ZERO    30,0
        13 000002   000115 710000 13                 TRA     s:6097

       11       11        %INCLUDE PS_DATA_R;
       12     5307        %INCLUDE CP_6_SUBS;
       13     5847        %INCLUDE CP_6;
       14     5928        %F$DCB;
       15     5985        %EJECT;
PL6.E3A0      #001=PSD$SCPU File=PSD$SCPU.:E05TSI                                WED 07/30/97 04:33 Page:11
       16     5986    1   DCL SCPU_HEAD_ BIT(72) CONSTANT DALIGNED INIT (VECTOR(SCPU_TITLES));
       17     5987
       18     5988    1   DCL 1 SCPU_TITLES STATIC,
       19     5989    1         2 TITLE1 (0:6),
       20     5990    1           3 SLAVE_TAG CHAR(10) INIT (' '*0),
       21     5991    1           3 SLAVE_NUM CHAR(1) INIT (' '*0),
       22     5992    1         2 TITLE1A (0:6) REDEF TITLE1 CHAR(11),
       23     5993    1         2 TITLE2 (0:6) CHAR(12) INIT (' '*0);
       24     5994
       25     5995    1   DCL 1 SCPU_HDR CONSTANT,
       26     5996    1         2 * CHAR (0)
       27     5997    1          INIT ('%/%16X   %11A   %11A   %11A   %11A   %11A   %11A   %11A'),
       28     5998    1         2 * CHAR (0)
       29     5999    1          INIT ('%/%16X   %12A  %12A  %12A  %12A  %12A  %12A  %12A');
       30     6000
       31     6001    1   DCL 1 SCPU_FORMAT STATIC,
       32     6002    1         2 * CHAR (0) INIT ('%16A '),
       33     6003    1         2 * CHAR (0) INIT ('%7(%6D %6D%Q %)');
       34     6004
       35     6005    1   DCL 1 DATA_VECTOR DALIGNED,
       36     6006    1         2 BOUND UBIN (20) UNAL,
       37     6007    1         2 FLAGS BIT (16),
       38     6008    1         2 PTR$ PTR;
       39     6009
       40     6010    1   DCL 1 SCPU_DATA STATIC,
       41     6011    1         2 TITLE CHAR (16),
       42     6012    1         2 CPU,
       43     6013    1           3 N0,
       44     6014    1             4 ALL UBIN,
       45     6015    1             4 SNAP UBIN,
       46     6016    1           3 N1,
       47     6017    1             4 ALL UBIN,
       48     6018    1             4 SNAP UBIN,
       49     6019    1           3 N2,
       50     6020    1             4 ALL UBIN,
       51     6021    1             4 SNAP UBIN,
       52     6022    1           3 N3,
PL6.E3A0      #001=PSD$SCPU File=PSD$SCPU.:E05TSI                                WED 07/30/97 04:33 Page:12
       53     6023    1             4 ALL UBIN,
       54     6024    1             4 SNAP UBIN,
       55     6025    1           3 N4,
       56     6026    1             4 ALL UBIN,
       57     6027    1             4 SNAP UBIN,
       58     6028    1           3 N5,
       59     6029    1             4 ALL UBIN,
       60     6030    1             4 SNAP UBIN,
       61     6031    1           3 N6,
       62     6032    1             4 ALL UBIN,
       63     6033    1             4 SNAP UBIN,
       64     6034    1         2 CPU_NUMBER (0:6) REDEF CPU,
       65     6035    1           3 ALL UBIN,
       66     6036    1           3 SNAP UBIN;
       67     6037
       68     6038    1   DCL NSCPU UBIN;
       69     6039    1   DCL CPUS_PER_LINE SBIN;
       70     6040    1   DCL LINE UBIN;
       71     6041    1   DCL WIDTH UBIN;
       72     6042    1   DCL STARTING_CPU UBIN;
       73     6043    1   DCL ENDING_CPU UBIN;
       74     6044    1   DCL I UBIN;
       75     6045    1   DCL J UBIN;
       76     6046    1   DCL K UBIN;
       77     6047    1   DCL OLD_VAL UBIN;
       78     6048    1   DCL NEW_VAL UBIN;
       79     6049    1   DCL NEW$ PTR;
       80     6050    1   DCL OLD$ PTR;
       81     6051    1   DCL PORT$ PTR;
       82     6052        %INCLUDE XUF_ENTRY;
       83     6060    1   DCL PSL$EVAL ENTRY (3);
       84     6061    1   DCL PSL$LOCATE ENTRY (3);
       85     6062    1   DCL PSL$CHOMP ENTRY (5);
       86     6063    1   DCL PSD$SKIP ENTRY;
       87     6064    1   DCL PSD$EJECT ENTRY (1);
       88     6065        %EJECT;
PL6.E3A0      #001=PSD$SCPU File=PSD$SCPU.:E05TSI                                WED 07/30/97 04:33 Page:13
       89     6066    1   GENERATE: PROC (TITLE, CODE, MODE);

   6066 13 000003   200024 741300       GENERATE     STX1  ! PORT$+1,,AUTO

       90     6067
       91     6068    2   DCL TITLE CHAR(16);
       92     6069    2   DCL CODE UBIN;
       93     6070    2   DCL MODE UBIN;
       94     6071
       95     6072    2      CALL PSL$LOCATE (CODE, NEW$, OLD$);

   6072 13 000004   200022 630500                    EPPR0   OLD$,,AUTO
        13 000005   200032 450500                    STP0    @MODE+3,,AUTO
        13 000006   200021 631500                    EPPR1   NEW$,,AUTO
        13 000007   200031 451500                    STP1    @MODE+2,,AUTO
        13 000010   200026 236100                    LDQ     @CODE,,AUTO
        13 000011   200030 756100                    STQ     @MODE+1,,AUTO
        13 000012   200030 630500                    EPPR0   @MODE+1,,AUTO
        13 000013   000021 631400 xsym               EPPR1   B_VECTNIL+17
        13 000014   000000 701000 xent               TSX1    PSL$LOCATE
        13 000015   000000 011000                    NOP     0

       96     6073
       97     6074    2      SCPU_DATA.TITLE = TITLE;

   6074 13 000016   200025 470500                    LDP0    @TITLE,,AUTO
        13 000017   040000 100500                    MLR     fill='040'O
        13 000020   000000 000020                    ADSC9   0,,PR0                   cn=0,n=16
        13 000021   000056 000020 12                 ADSC9   SCPU_DATA                cn=0,n=16

       98     6075
       99     6076    3      DO I = STARTING_CPU TO ENDING_CPU;

   6076 13 000022   200012 235100                    LDA     STARTING_CPU,,AUTO
        13 000023   200014 755100                    STA     I,,AUTO
        13 000024   000073 710000 13                 TRA     s:6088+3

PL6.E3A0      #001=PSD$SCPU File=PSD$SCPU.:E05TSI                                WED 07/30/97 04:33 Page:14
      100     6077
      101     6078    3         IF OLD$ = ADDR(NIL)

   6078 13 000025   200022 236100                    LDQ     OLD$,,AUTO
        13 000026   000001 116000 xsym               CMPQ    B_VECTNIL+1
        13 000027   000032 601000 13                 TNZ     s:6080

      102     6079    3           THEN OLD_VAL = 0;

   6079 13 000030   200017 450100                    STZ     OLD_VAL,,AUTO
        13 000031   000036 710000 13                 TRA     s:6082

      103     6080    3           ELSE OLD_VAL = OLD$ -> BLOCK.DATA(I);

   6080 13 000032   200022 470500                    LDP0    OLD$,,AUTO
        13 000033   200014 720100                    LXL0    I,,AUTO
        13 000034   000002 235110                    LDA     2,X0,PR0
        13 000035   200017 755100                    STA     OLD_VAL,,AUTO

      104     6081
      105     6082    3         NEW_VAL = NEW$ -> BLOCK.DATA(I);

   6082 13 000036   200021 470500                    LDP0    NEW$,,AUTO
        13 000037   200014 720100                    LXL0    I,,AUTO
        13 000040   000002 235110                    LDA     2,X0,PR0
        13 000041   200020 755100                    STA     NEW_VAL,,AUTO

      106     6083
      107     6084    3         CALL PSL$CHOMP (OLD_VAL, NEW_VAL, MODE,

   6084 13 000042   200014 236100                    LDQ     I,,AUTO
        13 000043   200012 136100                    SBLQ    STARTING_CPU,,AUTO
        13 000044   200030 756100                    STQ     @MODE+1,,AUTO
        13 000045   200014 236100                    LDQ     I,,AUTO
        13 000046   200012 136100                    SBLQ    STARTING_CPU,,AUTO
        13 000047   000023 736000                    QLS     19
        13 000050   000000 036000 14                 ADLQ    0
PL6.E3A0      #001=PSD$SCPU File=PSD$SCPU.:E05TSI                                WED 07/30/97 04:33 Page:15
        13 000051   200035 756100                    STQ     @MODE+6,,AUTO
        13 000052   200030 236100                    LDQ     @MODE+1,,AUTO
        13 000053   000023 736000                    QLS     19
        13 000054   000001 036000 14                 ADLQ    1
        13 000055   200034 756100                    STQ     @MODE+5,,AUTO
        13 000056   200027 236100                    LDQ     @MODE,,AUTO
        13 000057   200033 756100                    STQ     @MODE+4,,AUTO
        13 000060   200020 631500                    EPPR1   NEW_VAL,,AUTO
        13 000061   200032 451500                    STP1    @MODE+3,,AUTO
        13 000062   200017 633500                    EPPR3   OLD_VAL,,AUTO
        13 000063   200031 453500                    STP3    @MODE+2,,AUTO
        13 000064   200031 630500                    EPPR0   @MODE+2,,AUTO
        13 000065   000023 631400 xsym               EPPR1   B_VECTNIL+19
        13 000066   000000 701000 xent               TSX1    PSL$CHOMP
        13 000067   000000 011000                    NOP     0

      108     6085    3          SCPU_DATA.CPU_NUMBER.ALL(I - STARTING_CPU),
      109     6086    3          SCPU_DATA.CPU_NUMBER.SNAP(I - STARTING_CPU));
      110     6087
      111     6088    3         END;

   6088 13 000070   200014 235100                    LDA     I,,AUTO
        13 000071   000001 035007                    ADLA    1,DL
        13 000072   200014 755100                    STA     I,,AUTO
        13 000073   200013 236100                    LDQ     ENDING_CPU,,AUTO
        13 000074   200014 116100                    CMPQ    I,,AUTO
        13 000075   000025 603000 13                 TRC     s:6078

      112     6089
      113     6090    2      CALL X$WRITE (PS_FDS, VECTOR(SCPU_FORMAT),

   6090 13 000076   000004 235000 14                 LDA     4
        13 000077   200025 236100                    LDQ     @TITLE,,AUTO
        13 000100   200030 757100                    STAQ    @MODE+1,,AUTO
        13 000101   200004 630500                    EPPR0   DATA_VECTOR,,AUTO
        13 000102   200035 450500                    STP0    @MODE+6,,AUTO
        13 000103   200030 631500                    EPPR1   @MODE+1,,AUTO
PL6.E3A0      #001=PSD$SCPU File=PSD$SCPU.:E05TSI                                WED 07/30/97 04:33 Page:16
        13 000104   200034 451500                    STP1    @MODE+5,,AUTO
        13 000105   000006 237000 14                 LDAQ    6
        13 000106   200032 757100                    STAQ    @MODE+3,,AUTO
        13 000107   200032 630500                    EPPR0   @MODE+3,,AUTO
        13 000110   000022 631400 xsym               EPPR1   B_VECTNIL+18
        13 000111   000000 701000 xent               TSX1    X$WRITE
        13 000112   000000 011000                    NOP     0

      114     6091    2       VECTOR(TITLE), DATA_VECTOR);
      115     6092
      116     6093    2      RETURN;

   6093 13 000113   200024 221300                    LDX1  ! PORT$+1,,AUTO
        13 000114   000001 702211                    TSX2  ! 1,X1

      117     6094
      118     6095    2   END GENERATE;
      119     6096        %EJECT;
PL6.E3A0      #001=PSD$SCPU File=PSD$SCPU.:E05TSI                                WED 07/30/97 04:33 Page:17
      120     6097    1      CALL PSL$EVAL (S_NSCPU#, NSCPU);

   6097 13 000115   200006 630500                    EPPR0   NSCPU,,AUTO
        13 000116   200031 450500                    STP0    @MODE+2,,AUTO
        13 000117   000010 236000 14                 LDQ     8
        13 000120   200030 756100                    STQ     @MODE+1,,AUTO
        13 000121   200030 630500                    EPPR0   @MODE+1,,AUTO
        13 000122   000020 631400 xsym               EPPR1   B_VECTNIL+16
        13 000123   000000 701000 xent               TSX1    PSL$EVAL
        13 000124   000000 011000                    NOP     0

      121     6098    1      CALL PSL$LOCATE (S_PORTNR#, PORT$);

   6098 13 000125   200023 630500                    EPPR0   PORT$,,AUTO
        13 000126   200031 450500                    STP0    @MODE+2,,AUTO
        13 000127   000012 236000 14                 LDQ     10
        13 000130   200030 756100                    STQ     @MODE+1,,AUTO
        13 000131   200030 630500                    EPPR0   @MODE+1,,AUTO
        13 000132   000020 631400 xsym               EPPR1   B_VECTNIL+16
        13 000133   000000 701000 xent               TSX1    PSL$LOCATE
        13 000134   000000 011000                    NOP     0

      122     6099
      123     6100    1      WIDTH = DCBADDR(DCBNUM(M$LO)) -> F$DCB.WIDTH#;

   6100 13 000135   000000 236007 xsym               LDQ     M$LO,DL
        13 000136   000013 470400 14                 LDP0    11
        13 000137   000000 471500                    LDP1    0,,PR0
        13 000140   100000 473506                    LDP3    0,QL,PR1
        13 000141   300004 236100                    LDQ     4,,PR3
        13 000142   000777 376007                    ANQ     511,DL
        13 000143   200011 756100                    STQ     WIDTH,,AUTO

      124     6101
      125     6102    1      CPUS_PER_LINE = (WIDTH - 17) / 15;

   6102 13 000144   000021 136007                    SBLQ    17,DL
PL6.E3A0      #001=PSD$SCPU File=PSD$SCPU.:E05TSI                                WED 07/30/97 04:33 Page:18
        13 000145   000017 506007                    DIV     15,DL
        13 000146   200007 756100                    STQ     CPUS_PER_LINE,,AUTO

      126     6103
      127     6104    1      CALL PSD$EJECT (16 * ( ( (NSCPU+1) + (CPUS_PER_LINE-1) ) / CPUS_PER_LINE) );

   6104 13 000147   200006 036100                    ADLQ    NSCPU,,AUTO
        13 000150   200007 506100                    DIV     CPUS_PER_LINE,,AUTO
        13 000151   000004 736000                    QLS     4
        13 000152   200030 756100                    STQ     @MODE+1,,AUTO
        13 000153   200030 633500                    EPPR3   @MODE+1,,AUTO
        13 000154   200031 453500                    STP3    @MODE+2,,AUTO
        13 000155   200031 630500                    EPPR0   @MODE+2,,AUTO
        13 000156   000017 631400 xsym               EPPR1   B_VECTNIL+15
        13 000157   000000 701000 xent               TSX1    PSD$EJECT
        13 000160   000000 011000                    NOP     0

      128     6105
      129     6106    2      DO STARTING_CPU = 0 TO NSCPU BY CPUS_PER_LINE;

   6106 13 000161   200012 450100                    STZ     STARTING_CPU,,AUTO
        13 000162   000423 710000 13                 TRA     s:6161+3

      130     6107
      131     6108    2         ENDING_CPU = STARTING_CPU + CPUS_PER_LINE - 1;

   6108 13 000163   200012 236100                    LDQ     STARTING_CPU,,AUTO
        13 000164   200007 036100                    ADLQ    CPUS_PER_LINE,,AUTO
        13 000165   000001 136007                    SBLQ    1,DL
        13 000166   200013 756100                    STQ     ENDING_CPU,,AUTO

      132     6109
      133     6110    2         IF ENDING_CPU > NSCPU

   6110 13 000167   200006 116100                    CMPQ    NSCPU,,AUTO
        13 000170   000174 602000 13                 TNC     s:6114
        13 000171   000174 600000 13                 TZE     s:6114
PL6.E3A0      #001=PSD$SCPU File=PSD$SCPU.:E05TSI                                WED 07/30/97 04:33 Page:19

      134     6111    2           THEN
      135     6112    2            ENDING_CPU = NSCPU;

   6112 13 000172   200006 235100                    LDA     NSCPU,,AUTO
        13 000173   200013 755100                    STA     ENDING_CPU,,AUTO

      136     6113
      137     6114    3         DO I = STARTING_CPU TO ENDING_CPU;

   6114 13 000174   200012 235100                    LDA     STARTING_CPU,,AUTO
        13 000175   200014 755100                    STA     I,,AUTO
        13 000176   000240 710000 13                 TRA     s:6129+3

      138     6115
      139     6116    3            IF I = 0

   6116 13 000177   200014 235100                    LDA     I,,AUTO
        13 000200   000210 601000 13                 TNZ     s:6122

      140     6117    4              THEN DO;

      141     6118    4               SCPU_TITLES.TITLE1A(I - STARTING_CPU) = ' Master CPU';

   6118 13 000201   200014 236100                    LDQ     I,,AUTO
        13 000202   200012 136100                    SBLQ    STARTING_CPU,,AUTO
        13 000203   000013 402007                    MPY     11,DL
        13 000204   040006 100400                    MLR     fill='040'O
        13 000205   000034 000013 11                 ADSC9   SCPU_HDR+26              cn=0,n=11
        13 000206   000000 000013 12                 ADSC9   SCPU_TITLES,Q            cn=0,n=11

      142     6119    4               END;

   6119 13 000207   000227 710000 13                 TRA     s:6127

      143     6120
      144     6121    4              ELSE DO;
PL6.E3A0      #001=PSD$SCPU File=PSD$SCPU.:E05TSI                                WED 07/30/97 04:33 Page:20

      145     6122    4               SCPU_TITLES.TITLE1.SLAVE_TAG(I - STARTING_CPU) = 'Slave CPU';

   6122 13 000210   200014 236100                    LDQ     I,,AUTO
        13 000211   200012 136100                    SBLQ    STARTING_CPU,,AUTO
        13 000212   000013 402007                    MPY     11,DL
        13 000213   040006 100400                    MLR     fill='040'O
        13 000214   000037 000011 11                 ADSC9   SCPU_HDR+29              cn=0,n=9
        13 000215   000000 000012 12                 ADSC9   SCPU_TITLES,Q            cn=0,n=10

      146     6123    4               CALL BINCHAR(SCPU_TITLES.TITLE1.SLAVE_NUM(I - STARTING_CPU),

   6123 13 000216   200014 236100                    LDQ     I,,AUTO
        13 000217   200012 136100                    SBLQ    STARTING_CPU,,AUTO
        13 000220   000013 402007                    MPY     11,DL
        13 000221   200014 235100                    LDA     I,,AUTO
        13 000222   000002 735000                    ALS     2
        13 000223   200023 470500                    LDP0    PORT$,,AUTO
        13 000224   000006 301505                    BTD
        13 000225   000002 000004                    NDSC9   2,A,PR0                  cn=0,s=lsgnf,sf=0,n=4
        13 000226   000002 430001 12                 NDSC9   SCPU_TITLES+2,Q          cn=2,s=nosgn,sf=0,n=1

      147     6124    4                PORT$ -> BLOCK.DATA(I));
      148     6125    4               END;

      149     6126
      150     6127    3            SCPU_TITLES.TITLE2(I - STARTING_CPU) = '{all} {snap}';

   6127 13 000227   200014 236100                    LDQ     I,,AUTO
        13 000230   200012 136100                    SBLQ    STARTING_CPU,,AUTO
        13 000231   000014 402007                    MPY     12,DL
        13 000232   040006 100400                    MLR     fill='040'O
        13 000233   000042 000014 11                 ADSC9   SCPU_HDR+32              cn=0,n=12
        13 000234   000023 200014 12                 ADSC9   SCPU_TITLES+19,Q         cn=1,n=12

      151     6128
      152     6129    3            END;
PL6.E3A0      #001=PSD$SCPU File=PSD$SCPU.:E05TSI                                WED 07/30/97 04:33 Page:21

   6129 13 000235   200014 235100                    LDA     I,,AUTO
        13 000236   000001 035007                    ADLA    1,DL
        13 000237   200014 755100                    STA     I,,AUTO
        13 000240   200013 236100                    LDQ     ENDING_CPU,,AUTO
        13 000241   200014 116100                    CMPQ    I,,AUTO
        13 000242   000177 603000 13                 TRC     s:6116

      153     6130
      154     6131    3         DO I = (ENDING_CPU - STARTING_CPU + 1) TO 6;

   6131 13 000243   200012 136100                    SBLQ    STARTING_CPU,,AUTO
        13 000244   000001 036007                    ADLQ    1,DL
        13 000245   200014 756100                    STQ     I,,AUTO
        13 000246   000264 710000 13                 TRA     s:6136+3

      155     6132
      156     6133    3            SCPU_TITLES.TITLE1A(I) = ' ';

   6133 13 000247   200014 236100                    LDQ     I,,AUTO
        13 000250   000013 402007                    MPY     11,DL
        13 000251   040006 100400                    MLR     fill='040'O
        13 000252   000035 000001 xsym               ADSC9   B_VECTNIL+29             cn=0,n=1
        13 000253   000000 000013 12                 ADSC9   SCPU_TITLES,Q            cn=0,n=11

      157     6134    3            SCPU_TITLES.TITLE2(I) = ' ';

   6134 13 000254   200014 236100                    LDQ     I,,AUTO
        13 000255   000014 402007                    MPY     12,DL
        13 000256   040006 100400                    MLR     fill='040'O
        13 000257   000035 000001 xsym               ADSC9   B_VECTNIL+29             cn=0,n=1
        13 000260   000023 200014 12                 ADSC9   SCPU_TITLES+19,Q         cn=1,n=12

      158     6135
      159     6136    3            END;

   6136 13 000261   200014 235100                    LDA     I,,AUTO
PL6.E3A0      #001=PSD$SCPU File=PSD$SCPU.:E05TSI                                WED 07/30/97 04:33 Page:22
        13 000262   000001 035007                    ADLA    1,DL
        13 000263   200014 755100                    STA     I,,AUTO
        13 000264   200014 235100                    LDA     I,,AUTO
        13 000265   000007 115007                    CMPA    7,DL
        13 000266   000247 602000 13                 TNC     s:6133

      160     6137
      161     6138    2         CALL X$WRITE (PS_FDS, VECTOR(SCPU_HDR),

   6138 13 000267   000020 630400 14                 EPPR0   16
        13 000270   000021 631400 xsym               EPPR1   B_VECTNIL+17
        13 000271   000000 701000 xent               TSX1    X$WRITE
        13 000272   000000 011000                    NOP     0

      162     6139    2          VECTOR(SCPU_TITLES));
      163     6140
      164     6141    2         DATA_VECTOR = VECTOR(SCPU_DATA.CPU);

   6141 13 000273   000024 237000 14                 LDAQ    20
        13 000274   200004 757100                    STAQ    DATA_VECTOR,,AUTO

      165     6142
      166     6143    2         DATA_VECTOR.BOUND = (ENDING_CPU - STARTING_CPU + 1) *

   6143 13 000275   200013 236100                    LDQ     ENDING_CPU,,AUTO
        13 000276   200012 136100                    SBLQ    STARTING_CPU,,AUTO
        13 000277   000003 736000                    QLS     3
        13 000300   000007 036007                    ADLQ    7,DL
        13 000301   000020 736000                    QLS     16
        13 000302   200004 676100                    ERQ     DATA_VECTOR,,AUTO
        13 000303   000034 376000 xsym               ANQ     B_VECTNIL+28
        13 000304   200004 656100                    ERSQ    DATA_VECTOR,,AUTO

      167     6144    2          LENGTHC(SCPU_DATA.CPU.N0) - 1;
      168     6145
      169     6146    2         CALL GENERATE('% user execution', S_UXEQTIME#, PERCENT#);

PL6.E3A0      #001=PSD$SCPU File=PSD$SCPU.:E05TSI                                WED 07/30/97 04:33 Page:23
   6146 13 000305   000030 237000 14                 LDAQ    24
        13 000306   200026 757100                    STAQ    @TITLE+1,,AUTO
        13 000307   000027 236000 14                 LDQ     23
        13 000310   200025 756100                    STQ     PORT$+2,,AUTO
        13 000311   000003 701000 13                 TSX1    GENERATE
        13 000312   000000 011000                    NOP     0

      170     6147    2         CALL GENERATE('% user service  ', S_USRVTIME#, PERCENT#);

   6147 13 000313   000034 237000 14                 LDAQ    28
        13 000314   200026 757100                    STAQ    @TITLE+1,,AUTO
        13 000315   000033 236000 14                 LDQ     27
        13 000316   200025 756100                    STQ     PORT$+2,,AUTO
        13 000317   000003 701000 13                 TSX1    GENERATE
        13 000320   000000 011000                    NOP     0

      171     6148    2         CALL GENERATE('% monitor exec. ', S_MXEQTIME#, PERCENT#);

   6148 13 000321   000040 237000 14                 LDAQ    32
        13 000322   200026 757100                    STAQ    @TITLE+1,,AUTO
        13 000323   000037 236000 14                 LDQ     31
        13 000324   200025 756100                    STQ     PORT$+2,,AUTO
        13 000325   000003 701000 13                 TSX1    GENERATE
        13 000326   000000 011000                    NOP     0

      172     6149    2         CALL GENERATE('% I/O wait      ', S_MIDLWIO#, PERCENT#);

   6149 13 000327   000044 237000 14                 LDAQ    36
        13 000330   200026 757100                    STAQ    @TITLE+1,,AUTO
        13 000331   000043 236000 14                 LDQ     35
        13 000332   200025 756100                    STQ     PORT$+2,,AUTO
        13 000333   000003 701000 13                 TSX1    GENERATE
        13 000334   000000 011000                    NOP     0

      173     6150    2         CALL GENERATE('% resource wait ', S_MIDLWRES#, PERCENT#);

   6150 13 000335   000050 237000 14                 LDAQ    40
PL6.E3A0      #001=PSD$SCPU File=PSD$SCPU.:E05TSI                                WED 07/30/97 04:33 Page:24
        13 000336   200026 757100                    STAQ    @TITLE+1,,AUTO
        13 000337   000047 236000 14                 LDQ     39
        13 000340   200025 756100                    STQ     PORT$+2,,AUTO
        13 000341   000003 701000 13                 TSX1    GENERATE
        13 000342   000000 011000                    NOP     0

      174     6151    2         CALL GENERATE('% I/O & res wait', S_MIDLWRESIO#, PERCENT#);

   6151 13 000343   000054 237000 14                 LDAQ    44
        13 000344   200026 757100                    STAQ    @TITLE+1,,AUTO
        13 000345   000053 236000 14                 LDQ     43
        13 000346   200025 756100                    STQ     PORT$+2,,AUTO
        13 000347   000003 701000 13                 TSX1    GENERATE
        13 000350   000000 011000                    NOP     0

      175     6152    2         CALL GENERATE('% true idle     ', S_MIDLTIME#, PERCENT#);

   6152 13 000351   000060 237000 14                 LDAQ    48
        13 000352   200026 757100                    STAQ    @TITLE+1,,AUTO
        13 000353   000057 236000 14                 LDQ     47
        13 000354   200025 756100                    STQ     PORT$+2,,AUTO
        13 000355   000003 701000 13                 TSX1    GENERATE
        13 000356   000000 011000                    NOP     0

      176     6153    2         CALL GENERATE('% unaccountable ', P_STOPTIME#, PERCENT#);

   6153 13 000357   000064 237000 14                 LDAQ    52
        13 000360   200026 757100                    STAQ    @TITLE+1,,AUTO
        13 000361   000063 236000 14                 LDQ     51
        13 000362   200025 756100                    STQ     PORT$+2,,AUTO
        13 000363   000003 701000 13                 TSX1    GENERATE
        13 000364   000000 011000                    NOP     0

      177     6154    2         CALL GENERATE('Schedules/minute', P_SCHD#, RATE#);

   6154 13 000365   000066 237000 14                 LDAQ    54
        13 000366   200026 757100                    STAQ    @TITLE+1,,AUTO
PL6.E3A0      #001=PSD$SCPU File=PSD$SCPU.:E05TSI                                WED 07/30/97 04:33 Page:25
        13 000367   000070 236000 14                 LDQ     56
        13 000370   200025 756100                    STQ     PORT$+2,,AUTO
        13 000371   000003 701000 13                 TSX1    GENERATE
        13 000372   000000 011000                    NOP     0

      178     6155    2         CALL GENERATE('Events/minute   ', P_RUE#, RATE#);

   6155 13 000373   000072 237000 14                 LDAQ    58
        13 000374   200026 757100                    STAQ    @TITLE+1,,AUTO
        13 000375   000074 236000 14                 LDQ     60
        13 000376   200025 756100                    STQ     PORT$+2,,AUTO
        13 000377   000003 701000 13                 TSX1    GENERATE
        13 000400   000000 011000                    NOP     0

      179     6156    2         CALL GENERATE('PMME starts/min.', P_CALCNT#, RATE#);

   6156 13 000401   000076 237000 14                 LDAQ    62
        13 000402   200026 757100                    STAQ    @TITLE+1,,AUTO
        13 000403   000100 236000 14                 LDQ     64
        13 000404   200025 756100                    STQ     PORT$+2,,AUTO
        13 000405   000003 701000 13                 TSX1    GENERATE
        13 000406   000000 011000                    NOP     0

      180     6157    2         CALL GENERATE('PMME ends/min.  ', P_CALCOMP#, RATE#);

   6157 13 000407   000102 237000 14                 LDAQ    66
        13 000410   200026 757100                    STAQ    @TITLE+1,,AUTO
        13 000411   000104 236000 14                 LDQ     68
        13 000412   200025 756100                    STQ     PORT$+2,,AUTO
        13 000413   000003 701000 13                 TSX1    GENERATE
        13 000414   000000 011000                    NOP     0

      181     6158
      182     6159    2         CALL PSD$SKIP;

   6159 13 000415   000002 631400 xsym               EPPR1   B_VECTNIL+2
        13 000416   000000 701000 xent               TSX1    PSD$SKIP
PL6.E3A0      #001=PSD$SCPU File=PSD$SCPU.:E05TSI                                WED 07/30/97 04:33 Page:26
        13 000417   000000 011000                    NOP     0

      183     6160
      184     6161    2         END;

   6161 13 000420   200007 236100                    LDQ     CPUS_PER_LINE,,AUTO
        13 000421   200012 036100                    ADLQ    STARTING_CPU,,AUTO
        13 000422   200012 756100                    STQ     STARTING_CPU,,AUTO
        13 000423   200006 236100                    LDQ     NSCPU,,AUTO
        13 000424   200012 116100                    CMPQ    STARTING_CPU,,AUTO
        13 000425   000163 603000 13                 TRC     s:6108

      185     6162
      186     6163    1      RETURN;

   6163 13 000426   000000 702200 xent               TSX2  ! X66_ARET
      187     6164
      188     6165    1   END PSD$SCPU;

PL6.E3A0      #001=PSD$SCPU File=PSD$SCPU.:E05TSI                                WED 07/30/97 04:33 Page:27
--  Include file information  --

   XUF_ENTRY.:E05TOU  cannot be made into a system file and is referenced.
   CP_6.:E05TOU  cannot be made into a system file and is referenced.
   CP_6_SUBS.:E05TOU  is referenced.
   KL_MACRO_C.:E05TOU  is referenced.
   KL_AFCN_C.:E05TOU  is referenced.
   P_FEP_M.:E05TOU  is referenced.
   K_ID_E.:E05TOU  is referenced.
   XU_FORMAT_C.:E05TOU  is referenced.
   PM_BUCKET_C.:E05TOU  is referenced.
   PS_SUBS_C.:E05TOU  is referenced.
   PS_DATA_R.:E05TOU  cannot be made into a system file and is referenced.
   B$JIT_C.:E05TOU  was found in the system file and is never referenced.
   CP_6_C.:E05TOU  was found in the system file and is referenced.
      No diagnostics issued in procedure PSD$SCPU.
PL6.E3A0      #001=PSD$SCPU File=PSD$SCPU.:E05TSI                                WED 07/30/97 04:33 Page:28

 **** Variables and constants ****

  ****  Section 006 RtLmCm PS_FDS

  ****  Scalars and arrays  ****
OctLoc.c.b A Datatyp(siz) R M Lvl/name                 OctLoc.c.b A Datatyp(siz) R M Lvl/name

     0-0-0/w STRC(1080)  r     1 PS_FDS

  ****  Section 011 RoData PSD$SCPU

  ****  Scalars and arrays  ****
OctLoc.c.b A Datatyp(siz) R M Lvl/name                 OctLoc.c.b A Datatyp(siz) R M Lvl/name

     2-0-0/c STRC(936)   r     1 SCPU_HDR

  ****  Section 012  Data  PSD$SCPU

  ****  Scalars and arrays  ****
OctLoc.c.b A Datatyp(siz) R M Lvl/name                 OctLoc.c.b A Datatyp(siz) R M Lvl/name

    56-0-0/w STRC(648)   r     1 SCPU_DATA                 51-0-0/c STRC(180)   r     1 SCPU_FORMAT
     0-0-0/c STRC(1449)  r     1 SCPU_TITLES

  ****  Auto variables  ****

  ****  Scalars and arrays  ****
OctLoc.c.b A Datatyp(siz) R M Lvl/name                 OctLoc.c.b A Datatyp(siz) R M Lvl/name

    26-0-0/w PTR         r     1 @CODE                     27-0-0/w PTR         r     1 @MODE
    25-0-0/w PTR         r     1 @TITLE                    *0-0-0/w UBIN        r     1 CODE
     7-0-0/w SBIN        r     1 CPUS_PER_LINE              4-0-0/d STRC(72)    r     1 DATA_VECTOR
    13-0-0/w UBIN        r     1 ENDING_CPU                14-0-0/w UBIN        r     1 I
    *0-0-0/w UBIN        r     1 MODE                      21-0-0/w PTR         r     1 NEW$
    20-0-0/w UBIN        r     1 NEW_VAL                    6-0-0/w UBIN        r     1 NSCPU
    22-0-0/w PTR         r     1 OLD$                      17-0-0/w UBIN        r     1 OLD_VAL
    23-0-0/w PTR         r     1 PORT$                     12-0-0/w UBIN        r     1 STARTING_CPU
PL6.E3A0      #001=PSD$SCPU File=PSD$SCPU.:E05TSI                                WED 07/30/97 04:33 Page:29
    *0-0-0/c CHAR(16)    r     1 TITLE                     11-0-0/w UBIN        r     1 WIDTH

  ****  SYMREF variables  ****

  ****  Scalars and arrays  ****
OctLoc.c.b A Datatyp(siz) R M Lvl/name                 OctLoc.c.b A Datatyp(siz) R M Lvl/name

     0-0-0/c CHAR(140)   r     1 PS_BUFFER                  0-0-0/w PTR         r     1 PS_STATS$

  ****  BASED and DCB variables  ****

  ****  Scalars and arrays  ****
OctLoc.c.b A Datatyp(siz) R M Lvl/name                 OctLoc.c.b A Datatyp(siz) R M Lvl/name

     0-0-0/w STRC(108)   r     1 BLOCK                      0-0-0/d ASTR(3528)  r     1 F$DCB
     0-0-0N  NULL        r     1 M$LO                       0-0-0/c ASTR(9)     r     1 TEXTC


   Procedure PSD$SCPU requires 279 words for executable code.
   Procedure PSD$SCPU requires 30 words of local(AUTO) storage.

    No errors detected in file PSD$SCPU.:E05TSI    .
PL6.E3A0      #001=PSD$SCPU File=PSD$SCPU.:E05TSI                                WED 07/30/97 04:33 Page:30
          *** CROSS REFERENCE LISTING ***
**     DENOTES     IDENTIFIER DEFINITION
<<                 IDENTIFIER'S VALUE SET
>>                 IDENTIFIER'S VALUE USED
<>                 IDENTIFIER SET AND/OR USED
--                 IDENTIFIER REFERENCED
PL6.E3A0      #001=PSD$SCPU File=PSD$SCPU.:E05TSI                                WED 07/30/97 04:33 Page:31
          MINI XREF LISTING

BLOCK.DATA
      4839**DCL      6080>>ASSIGN   6082>>ASSIGN   6123>>CALLBLT
CODE IN PROCEDURE GENERATE
      6069**DCL      6066--PROC     6072<>CALL
CPUS_PER_LINE
      6039**DCL      6102<<ASSIGN   6104>>CALL     6104>>CALL     6106>>DOINDEX  6108>>ASSIGN
DATA_VECTOR
      6005**DCL      6090<>CALL     6141<<ASSIGN
DATA_VECTOR.BOUND
      6006**DCL      6143<<ASSIGN
ENDING_CPU
      6043**DCL      6076>>DOINDEX  6108<<ASSIGN   6110>>IF       6112<<ASSIGN   6114>>DOINDEX  6131>>DOINDEX
      6143>>ASSIGN
F$DCB.ACTPOS
      5961**DCL      5961--REDEF
F$DCB.ARS#
      5935**DCL      5935--REDEF
F$DCB.ATTR
      5954**DCL      5955--REDEF
F$DCB.BORROW
      5969**DCL      5969--REDEF    5969--REDEF    5969--REDEF
F$DCB.DCBNAME.L
      5983**DCL      5983--IMP-SIZ
F$DCB.EOMCHAR#
      5939**DCL      5939--REDEF
F$DCB.FLDID
      5964**DCL      5964--REDEF
F$DCB.FORM$
      5958**DCL      5958--REDEF
F$DCB.FSECT
      5974**DCL      5974--REDEF
F$DCB.FSN#
PL6.E3A0      #001=PSD$SCPU File=PSD$SCPU.:E05TSI                                WED 07/30/97 04:33 Page:32
      5951**DCL      5951--REDEF    5951--REDEF    5952--REDEF
F$DCB.HEADER$
      5957**DCL      5957--REDEF
F$DCB.IXTNSIZE#
      5955**DCL      5955--REDEF
F$DCB.LASTSTA$
      5944**DCL      5944--REDEF
F$DCB.LVL
      5970**DCL      5970--REDEF
F$DCB.NAME#.C
      5945**DCL      5945--REDEF
F$DCB.NOEOF
      5967**DCL      5967--REDEF
F$DCB.NRECS#
      5956**DCL      5956--REDEF
F$DCB.NRECX
      5975**DCL      5975--REDEF
F$DCB.OHDR
      5967**DCL      5967--REDEF
F$DCB.ORG#
      5950**DCL      5950--REDEF
F$DCB.PRECNO
      5973**DCL      5973--REDEF
F$DCB.RCSZ
      5979**DCL      5979--REDEF
F$DCB.RES#
      5946**DCL      5946--REDEF
F$DCB.SETX
      5958**DCL      5958--REDEF
F$DCB.TAB$
      5958**DCL      5958--REDEF
F$DCB.TDA
      5972**DCL      5973--REDEF
F$DCB.WIDTH#
      5942**DCL      6100>>ASSIGN
F$DCB.WSN#
PL6.E3A0      #001=PSD$SCPU File=PSD$SCPU.:E05TSI                                WED 07/30/97 04:33 Page:33
      5946**DCL      5946--REDEF
GENERATE
      6066**PROC     6146--CALL     6147--CALL     6148--CALL     6149--CALL     6150--CALL     6151--CALL
      6152--CALL     6153--CALL     6154--CALL     6155--CALL     6156--CALL     6157--CALL
I
      6044**DCL      6076<<DOINDEX  6080>>ASSIGN   6082>>ASSIGN   6084>>CALL     6084>>CALL     6114<<DOINDEX
      6116>>IF       6118>>ASSIGN   6122>>ASSIGN   6123>>CALLBLT  6123>>CALLBLT  6127>>ASSIGN   6131<<DOINDEX
      6133>>ASSIGN   6134>>ASSIGN
M$LO
        19**DCL      6100--ASSIGN
MODE IN PROCEDURE GENERATE
      6070**DCL      6066--PROC     6084<>CALL
NEW$
      6049**DCL      6072<>CALL     6082>>ASSIGN
NEW_VAL
      6048**DCL      6082<<ASSIGN   6084<>CALL
NSCPU
      6038**DCL      6097<>CALL     6104>>CALL     6106>>DOINDEX  6110>>IF       6112>>ASSIGN
OLD$
      6050**DCL      6072<>CALL     6078>>IF       6080>>ASSIGN
OLD_VAL
      6047**DCL      6079<<ASSIGN   6080<<ASSIGN   6084<>CALL
PORT$
      6051**DCL      6098<>CALL     6123>>CALLBLT
PSD$EJECT
      6064**DCL-ENT  6104--CALL
PSD$SKIP
      6063**DCL-ENT  6159--CALL
PSL$CHOMP
      6062**DCL-ENT  6084--CALL
PSL$EVAL
      6060**DCL-ENT  6097--CALL
PSL$LOCATE
      6061**DCL-ENT  6072--CALL     6098--CALL
PS_BUFFER
      4842**DCL      4877--DCLINIT  4879--DCLINIT
PL6.E3A0      #001=PSD$SCPU File=PSD$SCPU.:E05TSI                                WED 07/30/97 04:33 Page:34
PS_COLLECT.CALCNT
      4997**DCL      4997--REDEF
PS_COLLECT.USRSRV
      4994**DCL      4995--REDEF
PS_FDS
      4859**DCL      6090<>CALL     6138<>CALL
PS_HLPCGBUF.DSPMSK
      5254**DCL      5260--REDEF
PS_HLPCGBUF.SLCMSK
      5295**DCL      5302--REDEF
PS_OLD_COLLECT.CALCNT
      5001**DCL      5002--REDEF
PS_OLD_COLLECT.USRSRV
      4999**DCL      4999--REDEF
PS_STATS$
      5003**DCL      5005--IMP-PTR
SCPU_DATA.CPU
      6012**DCL      6034--REDEF    6141--ASSIGN
SCPU_DATA.CPU.N0
      6013**DCL      6143--ASSIGN
SCPU_DATA.CPU_NUMBER.ALL
      6035**DCL      6084<>CALL
SCPU_DATA.CPU_NUMBER.SNAP
      6036**DCL      6084<>CALL
SCPU_DATA.TITLE
      6011**DCL      6074<<ASSIGN
SCPU_FORMAT
      6001**DCL      6090--CALL
SCPU_HDR
      5995**DCL      6138--CALL
SCPU_TITLES
      5988**DCL      5986--DCLINIT  6138--CALL
SCPU_TITLES.TITLE1
      5989**DCL      5992--REDEF
SCPU_TITLES.TITLE1.SLAVE_NUM
      5991**DCL      6123<<CALLBLT
PL6.E3A0      #001=PSD$SCPU File=PSD$SCPU.:E05TSI                                WED 07/30/97 04:33 Page:35
SCPU_TITLES.TITLE1.SLAVE_TAG
      5990**DCL      6122<<ASSIGN
SCPU_TITLES.TITLE1A
      5992**DCL      6118<<ASSIGN   6133<<ASSIGN
SCPU_TITLES.TITLE2
      5993**DCL      6127<<ASSIGN   6134<<ASSIGN
STARTING_CPU
      6042**DCL      6076>>DOINDEX  6084>>CALL     6084>>CALL     6106<<DOINDEX  6108>>ASSIGN   6114>>DOINDEX
      6118>>ASSIGN   6122>>ASSIGN   6123>>CALLBLT  6127>>ASSIGN   6131>>DOINDEX  6143>>ASSIGN
TEXTC.LEN
      5007**DCL      5007--IMP-SIZ
TITLE IN PROCEDURE GENERATE
      6068**DCL      6066--PROC     6074>>ASSIGN   6090--CALL
WIDTH
      6041**DCL      6100<<ASSIGN   6102>>ASSIGN
X$WRITE
      6058**DCL-ENT  6090--CALL     6138--CALL
