VERSION E05

PL6.E3A0      #001=PSD$SUMMARY File=PSD$SUMMARY.:E05TSI                          WED 07/30/97 04:34 Page:1
        1        1        /*M*  PSD$SUMMARY   Generate STATS' one-line "SUMMARY" display                */
        2        2        /*T***********************************************************/
        3        3        /*T*                                                         */
        4        4        /*T* Copyright (c) Bull HN Information Systems Inc., 1997    */
        5        5        /*T*                                                         */
        6        6        /*T***********************************************************/
        7        7        /*X* CLM=77,CRM=80,CRT=1,PLM=3,CTI=1,THI=2                                    */
        8        8        PSD$SUMMARY: PROC;
        9        9        %INCLUDE PS_DATA_R;
       10     5305        %INCLUDE CP_6;
       11     5386        %INCLUDE CP_6_SUBS;
       12     5926    1   DCL SUM_HEADER CHAR (0) CONSTANT INIT ('%/%A');
       13     5927
       14     5928    1   DCL DAY_FORMAT CHAR (0) CONSTANT INIT
       15     5929    1      ('%10X*** Data follows for %A. %A ***     ');
       16     5930    1   DCL SUM_HDR BIT(72) DALIGNED STATIC;
       17     5931    1   DCL PSL$LOCATE ENTRY (3);
       18     5932    1   DCL PSL$EVAL ENTRY (3);
       19     5933    1   DCL PSL$CHOMP ENTRY (5);
       20     5934    1   DCL PSL$TIME ENTRY (2);
       21     5935    1   DCL PSD$SKIP ENTRY;
       22     5936        %INCLUDE XUF_ENTRY;
       23     5944    1   DCL I UBIN;
       24     5945    1   DCL I_PRIME UBIN;
       25     5946    1   DCL NOW_UTS UBIN;
       26     5947    1   DCL THEN_UTS UBIN;
       27     5948    1   DCL J UBIN;
       28     5949    1   DCL TEMP SBIN;
       29     5950    1   DCL P$ PTR;
       30     5951    1   DCL Q$ PTR;
       31     5952    1   DCL VALUE SBIN;
       32     5953    1   DCL OLD_VALUE SBIN;
       33     5954    1   DCL WASTE_CAN UBIN;
       34     5955    1   DCL LEN UBIN;
       35     5956    1   DCL TEXT CHAR (LEN) BASED;
       36     5957    1   DCL SUMMARY_DATA (0:40) UBIN;
       37     5958    1   DCL SUM_INDX UBIN;
PL6.E3A0      #001=PSD$SUMMARY File=PSD$SUMMARY.:E05TSI                          WED 07/30/97 04:34 Page:2
       38     5959    1   DCL ITEM UBIN;
       39     5960    1   DCL HEADER_ BIT (72) DALIGNED;
       40     5961    1   DCL FORMAT_ BIT (72) DALIGNED;
       41     5962
       42     5963        %FPT_DEVICE   (FPTN=SET_HEADER,
       43     5964                       STCLASS=CONSTANT,
       44     5965                       DCB=M$LO,
       45     5966                       HDR=SUMMARY_HEADER);
       46     5984
       47     5985        %VLP_HDR   (FPTN=SUMMARY_HEADER,
       48     5986                    LEN=140);
       49     6002
       50     6003        %EXT_TIME (NAME=SUMMARY_TIME, STCLASS=STATIC);
       51     6011        %EXT_TIME (NAME=THEN_TIME);
       52     6019        %EJECT;
PL6.E3A0      #001=PSD$SUMMARY File=PSD$SUMMARY.:E05TSI                          WED 07/30/97 04:34 Page:3
       53     6020    1   GEN_VECTOR: PROC (STRING, VECT);
       54     6021
       55     6022    2   DCL STRING CHAR (140);
       56     6023    2   DCL VECT BIT (72) DALIGNED;
       57     6024    2   DCL I UBIN;
       58     6025
       59     6026    2      LEN = 0;
       60     6027
       61     6028    3      DO I = 0 TO 139;
       62     6029
       63     6030    3         IF SUBSTR(STRING, I, 1) ~= ' '
       64     6031    3           THEN
       65     6032    3            LEN = I + 1;
       66     6033
       67     6034    3         END;
       68     6035
       69     6036    2      VECT = VECTOR(ADDR(STRING) -> TEXT);
       70     6037
       71     6038    2      RETURN;
       72     6039
       73     6040    2   END GEN_VECTOR;
       74     6041        %EJECT;
PL6.E3A0      #001=PSD$SUMMARY File=PSD$SUMMARY.:E05TSI                          WED 07/30/97 04:34 Page:4
       75     6042    1      CALL GEN_VECTOR (PS_SUMMARY_FORMAT, FORMAT_);
       76     6043    1      CALL GEN_VECTOR (PS_SUMMARY_HEADER, HEADER_);
       77     6044
       78     6045    1      IF NOT PS_SUMMARY_ONLY
       79     6046    1        THEN
       80     6047    1         CALL X$WRITE (PS_FDS, VECTOR(SUM_HEADER),
       81     6048    1          HEADER_);
       82     6049
       83     6050    1      SUM_INDX = 0;
       84     6051
       85     6052    1      CALL PSL$TIME (PS_COLLECT.UTS, SUMMARY_TIME);
       86     6053    1      CALL PSL$TIME (PS_OLD_COLLECT.UTS, THEN_TIME);
       87     6054
       88     6055    1      IF PS_MODE = REPLAY_MODE#
       89     6056    1        THEN
       90     6057    1         IF SUMMARY_TIME.DATE@ ~= THEN_TIME.DATE@
       91     6058    1           THEN
       92     6059    1            CALL X$WRITE (PS_FDS, VECTOR(DAY_FORMAT),
       93     6060    1             VECTOR(SUMMARY_TIME.DAY@), VECTOR(SUMMARY_TIME.DATE@));
       94     6061
       95     6062    2      DO I = 0 TO PS_SUMMARY_ITEMS - 1;
       96     6063
       97     6064    2         ITEM = PS_SUMMARY_LIST(I);
       98     6065
       99     6066    2         IF V_TABLE.VAR$(ITEM) = ADDR(NIL)
      100     6067    3           THEN DO;
      101     6068
      102     6069    3            J = V_TABLE.INDX(ITEM);
      103     6070
      104     6071    3            CALL PSL$LOCATE (J, P$, Q$);
      105     6072
      106     6073    3            VALUE = P$ -> BLOCK.DATA(V_TABLE.OFFSET(ITEM));
      107     6074
      108     6075    3            IF Q$ = ADDR(NIL)
      109     6076    3              THEN
      110     6077    3               OLD_VALUE = 0;
      111     6078    3              ELSE
PL6.E3A0      #001=PSD$SUMMARY File=PSD$SUMMARY.:E05TSI                          WED 07/30/97 04:34 Page:5
      112     6079    3               OLD_VALUE = Q$ -> BLOCK.DATA(V_TABLE.OFFSET(ITEM));
      113     6080
      114     6081    3            END;
      115     6082
      116     6083    3           ELSE DO;
      117     6084
      118     6085    3            VALUE = V_TABLE.VAR$(ITEM) -> SBIN_;
      119     6086    3            OLD_VALUE = PINCRW(ADDR(PS_OLD_COLLECT), POFFW(V_TABLE.VAR$(ITEM),
      120     6087    3             ADDR(PS_COLLECT))) -> SBIN_;
      121     6088
      122     6089    3            IF V_TABLE.MODE(ITEM) = ABS#
      123     6090    3             AND PS_OLD_PMDAT$ = ADDR(NIL)
      124     6091    3              THEN
      125     6092    3               VALUE = OLD_VALUE;
      126     6093
      127     6094    3            END;
      128     6095
      129     6096    2         IF V_TABLE.MODE(ITEM) = PERCENT#
      130     6097    3           THEN DO;
      131     6098
      132     6099    3            CALL PSL$CHOMP (OLD_VALUE * 10, VALUE * 10, PERCENT#,
      133     6100    3             WASTE_CAN, TEMP);
      134     6101
      135     6102    3            SUMMARY_DATA (SUM_INDX) = TEMP / 10;
      136     6103    3            SUMMARY_DATA (SUM_INDX + 1) = MOD(TEMP, 10);
      137     6104    3            SUM_INDX = SUM_INDX + 2;
      138     6105
      139     6106    3            END;
      140     6107
      141     6108    3           ELSE DO;
      142     6109
      143     6110    3            J = V_TABLE.MODE (ITEM);
      144     6111
      145     6112    3            CALL PSL$CHOMP (OLD_VALUE, VALUE, J, WASTE_CAN,
      146     6113    3             SUMMARY_DATA (SUM_INDX));
      147     6114
      148     6115    3            SUM_INDX = SUM_INDX + 1;
PL6.E3A0      #001=PSD$SUMMARY File=PSD$SUMMARY.:E05TSI                          WED 07/30/97 04:34 Page:6
      149     6116
      150     6117    3            END;
      151     6118
      152     6119    2         END;
      153     6120
      154     6121    1      LEN = SUM_INDX * 4;
      155     6122
      156     6123    1      CALL X$WRITE (PS_FDS, FORMAT_,
      157     6124    1       VECTOR(SUMMARY_TIME.TIME@), VECTOR(ADDR(SUMMARY_DATA) -> TEXT));
      158     6125
      159     6126    1      IF PS_WORKING_FLAGS ~= PS_DISPLAY_FLAGS
      160     6127    1        THEN CALL PSD$SKIP;
      161     6128
      162     6129    1      RETURN;
      163     6130
      164     6131    1   PSD$SUM_HEAD: ENTRY;
      165     6132
      166     6133    1      CALL GEN_VECTOR (PS_SUMMARY_HEADER, HEADER_);
      167     6134
      168     6135    1      CALL X$WRITE (PS_FDS, VECTOR(SUM_HEADER),
      169     6136    1       HEADER_);
      170     6137
      171     6138    1      SUMMARY_HEADER.TITL.L# = LEN;
      172     6139
      173     6140    1      SUMMARY_HEADER.TITL.TITLE# = PS_SUMMARY_HEADER;
      174     6141
      175     6142    1      CALL M$DEVICE (SET_HEADER);
      176     6143
      177     6144    1      RETURN;
      178     6145
      179     6146    1   END PSD$SUMMARY;

PL6.E3A0      #001=PSD$SUMMARY File=PSD$SUMMARY.:E05TSI                          WED 07/30/97 04:34 Page:7
--  Include file information  --

   XUF_ENTRY.:E05TOU  cannot be made into a system file and is referenced.
   CP_6_SUBS.:E05TOU  is referenced.
   CP_6.:E05TOU  cannot be made into a system file and is referenced.
   KL_MACRO_C.:E05TOU  is referenced.
   KL_AFCN_C.:E05TOU  is referenced.
   P_FEP_M.:E05TOU  is referenced.
   K_ID_E.:E05TOU  is referenced.
   XU_FORMAT_C.:E05TOU  is referenced.
   PM_BUCKET_C.:E05TOU  is referenced.
   PS_SUBS_C.:E05TOU  is referenced.
   PS_DATA_R.:E05TOU  cannot be made into a system file and is referenced.
   B$JIT_C.:E05TOU  was found in the system file and is never referenced.
   CP_6_C.:E05TOU  was found in the system file and is referenced.
      No diagnostics issued in procedure PSD$SUMMARY.

   Procedure PSD$SUMMARY requires 261 words for executable code.
   Procedure PSD$SUMMARY requires 76 words of local(AUTO) storage.

    No errors detected in file PSD$SUMMARY.:E05TSI    .

PL6.E3A0      #001=PSD$SUMMARY File=PSD$SUMMARY.:E05TSI                          WED 07/30/97 04:34 Page:8

 Object Unit name= PSD$SUMMARY                                File name= PSD$SUMMARY.:E05TOU
 UTS= JUL 30 '97 04:34:04.32 WED                              Compiler= PL-6/E31         Sev=      00
 SharedLib= :SHARED_SYSTEM                                    Alt SharedLib=


    ****  Control sections  ****

 Sect   Type Bound  Init  Size OctSiz  Section name(segment info)
    0   DCB   even  none     0      0  M$LO
    1   DCB   even  none     0      0  M$DO
    2   DCB   even  none     0      0  M$SI
    3   DCB   even  none     0      0  F$LOG
    4   DCB   even  none     0      0  M$ME
    5   DCB   even  none     0      0  M$HLPCG
    6  RtLbCm even  none    30     36  PS_FDS
    7  RtLbCm even  none    32     40  PS_SELECT_RPN
    8  RtLbCm even  none    17     21  PS_STATS_RPN
    9  RtLbCm even  none    34     42  PS_STATS_BUCKET
   10   DCB   even  none     0      0  M$UC
   11  RoData even  UTS     22     26  PSD$SUMMARY
   12   Data  even  none    55     67  PSD$SUMMARY
   13   Proc  even  none   261    405  PSD$SUMMARY
   14  RoData even  none    25     31  PSD$SUMMARY

    ****  Entry defs  ****

                              Check   Calling
                             calling  sequence
  Sect OctLoc Primary Altret sequence   type   Parms  Name
    13      0   yes            yes      Std        0  PSD$SUMMARY
    13    353                  yes      Std        0  PSD$SUM_HEAD
PL6.E3A0      #001=PSD$SUMMARY File=PSD$SUMMARY.:E05TSI                          WED 07/30/97 04:34 Page:9

  ****  Entry refs  ****

         Check        Calling
        calling       sequence
Altret sequence SRef   type   Args  Name
         yes           Std      22 X$WRITE
         yes           Std       2 PSL$TIME
         yes           Std       5 PSL$CHOMP
         yes           Std       3 PSL$LOCATE
         yes           Std       0 PSD$SKIP
                       nStd      0 X66_AUTO_0
                       Std       0 B_CONSPOOL_D
                       nStd      0 X66_ARET

  ****  Data refs  ****

  Flags:  r = read only, s = secondary
Flgs Name                             Flgs Name                             Flgs Name
     M$LO                                  M$DO                                  M$SI
     F$LOG                                 M$ME                                  M$HLPCG
     PS_OLD_PMDAT$                         PS_DISPLAY_FLAGS                      PS_WORKING_FLAGS
     PS_BUFFER                             V_TABLE                               PS_COLLECT
     PS_OLD_COLLECT                        PS_STATS$                             PS_SUMMARY_LIST
     PS_SUMMARY_ITEMS                      PS_SUMMARY_HEADER                     PS_SUMMARY_FORMAT
     PS_SUMMARY_ONLY                       PS_MODE                               M$UC
     B_VECTNIL

  ****  Segment refs  ****

  Flags:  r = read only, s = secondary
Flgs Name                             Flgs Name                             Flgs Name
     NULLSID                               ISSID
PL6.E3A0      #001=PSD$SUMMARY File=PSD$SUMMARY.:E05TSI                          WED 07/30/97 04:34 Page:10


        1        1        /*M*  PSD$SUMMARY   Generate STATS' one-line "SUMMARY" display                */
        2        2        /*T***********************************************************/
        3        3        /*T*                                                         */
        4        4        /*T* Copyright (c) Bull HN Information Systems Inc., 1997    */
        5        5        /*T*                                                         */
        6        6        /*T***********************************************************/
        7        7        /*X* CLM=77,CRM=80,CRT=1,PLM=3,CTI=1,THI=2                                    */
        8        8        PSD$SUMMARY: PROC;

      8 13 000000   000000 700200 xent  PSD$SUMMARY  TSX0  ! X66_AUTO_0
        13 000001   000114 000000                    ZERO    76,0
        13 000002   000033 710000 13                 TRA     s:6042

        9        9        %INCLUDE PS_DATA_R;
       10     5305        %INCLUDE CP_6;
       11     5386        %INCLUDE CP_6_SUBS;
       12     5926    1   DCL SUM_HEADER CHAR (0) CONSTANT INIT ('%/%A');
       13     5927
       14     5928    1   DCL DAY_FORMAT CHAR (0) CONSTANT INIT
       15     5929    1      ('%10X*** Data follows for %A. %A ***     ');
       16     5930    1   DCL SUM_HDR BIT(72) DALIGNED STATIC;
       17     5931    1   DCL PSL$LOCATE ENTRY (3);
       18     5932    1   DCL PSL$EVAL ENTRY (3);
       19     5933    1   DCL PSL$CHOMP ENTRY (5);
       20     5934    1   DCL PSL$TIME ENTRY (2);
       21     5935    1   DCL PSD$SKIP ENTRY;
       22     5936        %INCLUDE XUF_ENTRY;
       23     5944    1   DCL I UBIN;
       24     5945    1   DCL I_PRIME UBIN;
       25     5946    1   DCL NOW_UTS UBIN;
       26     5947    1   DCL THEN_UTS UBIN;
       27     5948    1   DCL J UBIN;
       28     5949    1   DCL TEMP SBIN;
       29     5950    1   DCL P$ PTR;
       30     5951    1   DCL Q$ PTR;
       31     5952    1   DCL VALUE SBIN;
PL6.E3A0      #001=PSD$SUMMARY File=PSD$SUMMARY.:E05TSI                          WED 07/30/97 04:34 Page:11
       32     5953    1   DCL OLD_VALUE SBIN;
       33     5954    1   DCL WASTE_CAN UBIN;
       34     5955    1   DCL LEN UBIN;
       35     5956    1   DCL TEXT CHAR (LEN) BASED;
       36     5957    1   DCL SUMMARY_DATA (0:40) UBIN;
       37     5958    1   DCL SUM_INDX UBIN;
       38     5959    1   DCL ITEM UBIN;
       39     5960    1   DCL HEADER_ BIT (72) DALIGNED;
       40     5961    1   DCL FORMAT_ BIT (72) DALIGNED;
       41     5962
       42     5963        %FPT_DEVICE   (FPTN=SET_HEADER,
       43     5964                       STCLASS=CONSTANT,
       44     5965                       DCB=M$LO,
       45     5966                       HDR=SUMMARY_HEADER);
       46     5984
       47     5985        %VLP_HDR   (FPTN=SUMMARY_HEADER,
       48     5986                    LEN=140);
       49     6002
       50     6003        %EXT_TIME (NAME=SUMMARY_TIME, STCLASS=STATIC);
       51     6011        %EXT_TIME (NAME=THEN_TIME);
       52     6019        %EJECT;
PL6.E3A0      #001=PSD$SUMMARY File=PSD$SUMMARY.:E05TSI                          WED 07/30/97 04:34 Page:12
       53     6020    1   GEN_VECTOR: PROC (STRING, VECT);

   6020 13 000003   200100 741300       GEN_VECTOR   STX1  ! FORMAT_+2,,AUTO

       54     6021
       55     6022    2   DCL STRING CHAR (140);
       56     6023    2   DCL VECT BIT (72) DALIGNED;
       57     6024    2   DCL I UBIN;
       58     6025
       59     6026    2      LEN = 0;

   6026 13 000004   200017 450100                    STZ     LEN,,AUTO

       60     6027
       61     6028    3      DO I = 0 TO 139;

   6028 13 000005   200103 450100                    STZ     I,,AUTO

       62     6029
       63     6030    3         IF SUBSTR(STRING, I, 1) ~= ' '

   6030 13 000006   200101 470500                    LDP0    @STRING,,AUTO
        13 000007   200103 235100                    LDA     I,,AUTO
        13 000010   040000 106505                    CMPC    fill='040'O
        13 000011   000000 000001                    ADSC9   0,A,PR0                  cn=0,n=1
        13 000012   000035 000001 xsym               ADSC9   B_VECTNIL+29             cn=0,n=1
        13 000013   000016 600000 13                 TZE     s:6034

       64     6031    3           THEN
       65     6032    3            LEN = I + 1;

   6032 13 000014   000001 035007                    ADLA    1,DL
        13 000015   200017 755100                    STA     LEN,,AUTO

       66     6033
       67     6034    3         END;

PL6.E3A0      #001=PSD$SUMMARY File=PSD$SUMMARY.:E05TSI                          WED 07/30/97 04:34 Page:13
   6034 13 000016   200103 235100                    LDA     I,,AUTO
        13 000017   000001 035007                    ADLA    1,DL
        13 000020   200103 755100                    STA     I,,AUTO
        13 000021   000214 115007                    CMPA    140,DL
        13 000022   000006 602000 13                 TNC     s:6030

       68     6035
       69     6036    2      VECT = VECTOR(ADDR(STRING) -> TEXT);

   6036 13 000023   200017 236100                    LDQ     LEN,,AUTO
        13 000024   000064 737000                    LLS     52
        13 000025   000140 135007                    SBLA    96,DL
        13 000026   200101 236100                    LDQ     @STRING,,AUTO
        13 000027   200102 471500                    LDP1    @VECT,,AUTO
        13 000030   100000 757100                    STAQ    0,,PR1

       70     6037
       71     6038    2      RETURN;

   6038 13 000031   200100 221300                    LDX1  ! FORMAT_+2,,AUTO
        13 000032   000001 702211                    TSX2  ! 1,X1

       72     6039
       73     6040    2   END GEN_VECTOR;
       74     6041        %EJECT;
PL6.E3A0      #001=PSD$SUMMARY File=PSD$SUMMARY.:E05TSI                          WED 07/30/97 04:34 Page:14
       75     6042    1      CALL GEN_VECTOR (PS_SUMMARY_FORMAT, FORMAT_);

   6042 13 000033   200076 630500                    EPPR0   FORMAT_,,AUTO
        13 000034   200102 450500                    STP0    @STRING+1,,AUTO
        13 000035   000000 236000 14                 LDQ     0
        13 000036   200101 756100                    STQ     FORMAT_+3,,AUTO
        13 000037   000003 701000 13                 TSX1    GEN_VECTOR
        13 000040   000000 011000                    NOP     0

       76     6043    1      CALL GEN_VECTOR (PS_SUMMARY_HEADER, HEADER_);

   6043 13 000041   200074 630500                    EPPR0   HEADER_,,AUTO
        13 000042   200102 450500                    STP0    @STRING+1,,AUTO
        13 000043   000001 236000 14                 LDQ     1
        13 000044   200101 756100                    STQ     FORMAT_+3,,AUTO
        13 000045   000003 701000 13                 TSX1    GEN_VECTOR
        13 000046   000000 011000                    NOP     0

       77     6044
       78     6045    1      IF NOT PS_SUMMARY_ONLY

   6045 13 000047   000000 234000 xsym               SZN     PS_SUMMARY_ONLY
        13 000050   000061 604000 13                 TMI     s:6050

       79     6046    1        THEN
       80     6047    1         CALL X$WRITE (PS_FDS, VECTOR(SUM_HEADER),

   6047 13 000051   200074 630500                    EPPR0   HEADER_,,AUTO
        13 000052   200106 450500                    STP0    I+3,,AUTO
        13 000053   000004 237000 14                 LDAQ    4
        13 000054   200104 757100                    STAQ    I+1,,AUTO
        13 000055   200104 630500                    EPPR0   I+1,,AUTO
        13 000056   000021 631400 xsym               EPPR1   B_VECTNIL+17
        13 000057   000000 701000 xent               TSX1    X$WRITE
        13 000060   000000 011000                    NOP     0

       81     6048    1          HEADER_);
PL6.E3A0      #001=PSD$SUMMARY File=PSD$SUMMARY.:E05TSI                          WED 07/30/97 04:34 Page:15
       82     6049
       83     6050    1      SUM_INDX = 0;

   6050 13 000061   200071 450100                    STZ     SUM_INDX,,AUTO

       84     6051
       85     6052    1      CALL PSL$TIME (PS_COLLECT.UTS, SUMMARY_TIME);

   6052 13 000062   000006 630400 14                 EPPR0   6
        13 000063   000020 631400 xsym               EPPR1   B_VECTNIL+16
        13 000064   000000 701000 xent               TSX1    PSL$TIME
        13 000065   000000 011000                    NOP     0

       86     6053    1      CALL PSL$TIME (PS_OLD_COLLECT.UTS, THEN_TIME);

   6053 13 000066   000010 630400 14                 EPPR0   8
        13 000067   000020 631400 xsym               EPPR1   B_VECTNIL+16
        13 000070   000000 701000 xent               TSX1    PSL$TIME
        13 000071   000000 011000                    NOP     0

       87     6054
       88     6055    1      IF PS_MODE = REPLAY_MODE#

   6055 13 000072   000000 235000 xsym               LDA     PS_MODE
        13 000073   000001 115007                    CMPA    1,DL
        13 000074   000105 601000 13                 TNZ     s:6062

       89     6056    1        THEN
       90     6057    1         IF SUMMARY_TIME.DATE@ ~= THEN_TIME.DATE@

   6057 13 000075   040000 106400                    CMPC    fill='040'O
        13 000076   000050 200012 12                 ADSC9   SUMMARY_TIME+1           cn=1,n=10
        13 000077   000060 200012 12                 ADSC9   THEN_TIME+1              cn=1,n=10
        13 000100   000105 600000 13                 TZE     s:6062

       91     6058    1           THEN
       92     6059    1            CALL X$WRITE (PS_FDS, VECTOR(DAY_FORMAT),
PL6.E3A0      #001=PSD$SUMMARY File=PSD$SUMMARY.:E05TSI                          WED 07/30/97 04:34 Page:16

   6059 13 000101   000020 630400 14                 EPPR0   16
        13 000102   000022 631400 xsym               EPPR1   B_VECTNIL+18
        13 000103   000000 701000 xent               TSX1    X$WRITE
        13 000104   000000 011000                    NOP     0

       93     6060    1             VECTOR(SUMMARY_TIME.DAY@), VECTOR(SUMMARY_TIME.DATE@));
       94     6061
       95     6062    2      DO I = 0 TO PS_SUMMARY_ITEMS - 1;

   6062 13 000105   200004 450100                    STZ     I,,AUTO
        13 000106   000313 710000 13                 TRA     s:6119+3

       96     6063
       97     6064    2         ITEM = PS_SUMMARY_LIST(I);

   6064 13 000107   200004 720100                    LXL0    I,,AUTO
        13 000110   000000 235010 xsym               LDA     PS_SUMMARY_LIST,X0
        13 000111   200072 755100                    STA     ITEM,,AUTO

       98     6065
       99     6066    2         IF V_TABLE.VAR$(ITEM) = ADDR(NIL)

   6066 13 000112   200072 236100                    LDQ     ITEM,,AUTO
        13 000113   000005 402007                    MPY     5,DL
        13 000114   000000 236006 xsym               LDQ     V_TABLE,QL
        13 000115   000001 116000 xsym               CMPQ    B_VECTNIL+1
        13 000116   000162 601000 13                 TNZ     s:6085

      100     6067    3           THEN DO;

      101     6068
      102     6069    3            J = V_TABLE.INDX(ITEM);

   6069 13 000117   200072 236100                    LDQ     ITEM,,AUTO
        13 000120   000005 402007                    MPY     5,DL
        13 000121   000002 236006 xsym               LDQ     V_TABLE+2,QL
PL6.E3A0      #001=PSD$SUMMARY File=PSD$SUMMARY.:E05TSI                          WED 07/30/97 04:34 Page:17
        13 000122   000033 772000                    QRL     27
        13 000123   200010 756100                    STQ     J,,AUTO

      103     6070
      104     6071    3            CALL PSL$LOCATE (J, P$, Q$);

   6071 13 000124   200013 630500                    EPPR0   Q$,,AUTO
        13 000125   200106 450500                    STP0    I+3,,AUTO
        13 000126   200012 631500                    EPPR1   P$,,AUTO
        13 000127   200105 451500                    STP1    I+2,,AUTO
        13 000130   200010 633500                    EPPR3   J,,AUTO
        13 000131   200104 453500                    STP3    I+1,,AUTO
        13 000132   200104 630500                    EPPR0   I+1,,AUTO
        13 000133   000021 631400 xsym               EPPR1   B_VECTNIL+17
        13 000134   000000 701000 xent               TSX1    PSL$LOCATE
        13 000135   000000 011000                    NOP     0

      105     6072
      106     6073    3            VALUE = P$ -> BLOCK.DATA(V_TABLE.OFFSET(ITEM));

   6073 13 000136   200072 236100                    LDQ     ITEM,,AUTO
        13 000137   000005 402007                    MPY     5,DL
        13 000140   000002 220006 xsym               LDX0    V_TABLE+2,QL
        13 000141   000777 360003                    ANX0    511,DU
        13 000142   200012 470500                    LDP0    P$,,AUTO
        13 000143   000002 235110                    LDA     2,X0,PR0
        13 000144   200014 755100                    STA     VALUE,,AUTO

      107     6074
      108     6075    3            IF Q$ = ADDR(NIL)

   6075 13 000145   200013 236100                    LDQ     Q$,,AUTO
        13 000146   000001 116000 xsym               CMPQ    B_VECTNIL+1
        13 000147   000152 601000 13                 TNZ     s:6079

      109     6076    3              THEN
      110     6077    3               OLD_VALUE = 0;
PL6.E3A0      #001=PSD$SUMMARY File=PSD$SUMMARY.:E05TSI                          WED 07/30/97 04:34 Page:18

   6077 13 000150   200015 450100                    STZ     OLD_VALUE,,AUTO
        13 000151   000213 710000 13                 TRA     s:6096

      111     6078    3              ELSE
      112     6079    3               OLD_VALUE = Q$ -> BLOCK.DATA(V_TABLE.OFFSET(ITEM));

   6079 13 000152   200072 236100                    LDQ     ITEM,,AUTO
        13 000153   000005 402007                    MPY     5,DL
        13 000154   000002 220006 xsym               LDX0    V_TABLE+2,QL
        13 000155   000777 360003                    ANX0    511,DU
        13 000156   200013 471500                    LDP1    Q$,,AUTO
        13 000157   100002 235110                    LDA     2,X0,PR1
        13 000160   200015 755100                    STA     OLD_VALUE,,AUTO

      113     6080
      114     6081    3            END;

   6081 13 000161   000213 710000 13                 TRA     s:6096

      115     6082
      116     6083    3           ELSE DO;

      117     6084
      118     6085    3            VALUE = V_TABLE.VAR$(ITEM) -> SBIN_;

   6085 13 000162   200072 236100                    LDQ     ITEM,,AUTO
        13 000163   000005 402007                    MPY     5,DL
        13 000164   000000 470406 xsym               LDP0    V_TABLE,QL
        13 000165   000000 235100                    LDA     0,,PR0
        13 000166   200014 755100                    STA     VALUE,,AUTO

      119     6086    3            OLD_VALUE = PINCRW(ADDR(PS_OLD_COLLECT), POFFW(V_TABLE.VAR$(ITEM),

   6086 13 000167   000024 236000 14                 LDQ     20
        13 000170   000022 772000                    QRL     18
        13 000171   200104 756100                    STQ     I+1,,AUTO
PL6.E3A0      #001=PSD$SUMMARY File=PSD$SUMMARY.:E05TSI                          WED 07/30/97 04:34 Page:19
        13 000172   200072 236100                    LDQ     ITEM,,AUTO
        13 000173   000005 402007                    MPY     5,DL
        13 000174   000000 236006 xsym               LDQ     V_TABLE,QL
        13 000175   000022 772000                    QRL     18
        13 000176   200104 136100                    SBLQ    I+1,,AUTO
        13 000177   000000 235006 xsym               LDA     PS_OLD_COLLECT,QL
        13 000200   200015 755100                    STA     OLD_VALUE,,AUTO

      120     6087    3             ADDR(PS_COLLECT))) -> SBIN_;
      121     6088
      122     6089    3            IF V_TABLE.MODE(ITEM) = ABS#

   6089 13 000201   200072 236100                    LDQ     ITEM,,AUTO
        13 000202   000005 402007                    MPY     5,DL
        13 000203   000002 236006 xsym               LDQ     V_TABLE+2,QL
        13 000204   777000 316007                    CANQ    -512,DL
        13 000205   000213 601000 13                 TNZ     s:6096
        13 000206   000000 236000 xsym               LDQ     PS_OLD_PMDAT$
        13 000207   000001 116000 xsym               CMPQ    B_VECTNIL+1
        13 000210   000213 601000 13                 TNZ     s:6096

      123     6090    3             AND PS_OLD_PMDAT$ = ADDR(NIL)
      124     6091    3              THEN
      125     6092    3               VALUE = OLD_VALUE;

   6092 13 000211   200015 235100                    LDA     OLD_VALUE,,AUTO
        13 000212   200014 755100                    STA     VALUE,,AUTO

      126     6093
      127     6094    3            END;

      128     6095
      129     6096    2         IF V_TABLE.MODE(ITEM) = PERCENT#

   6096 13 000213   200072 236100                    LDQ     ITEM,,AUTO
        13 000214   000005 402007                    MPY     5,DL
        13 000215   000002 236006 xsym               LDQ     V_TABLE+2,QL
PL6.E3A0      #001=PSD$SUMMARY File=PSD$SUMMARY.:E05TSI                          WED 07/30/97 04:34 Page:20
        13 000216   777000 376007                    ANQ     -512,DL
        13 000217   003000 116007                    CMPQ    1536,DL
        13 000220   000260 601000 13                 TNZ     s:6110

      130     6097    3           THEN DO;

      131     6098
      132     6099    3            CALL PSL$CHOMP (OLD_VALUE * 10, VALUE * 10, PERCENT#,

   6099 13 000221   200015 236100                    LDQ     OLD_VALUE,,AUTO
        13 000222   000012 402007                    MPY     10,DL
        13 000223   200104 756100                    STQ     I+1,,AUTO
        13 000224   200014 236100                    LDQ     VALUE,,AUTO
        13 000225   000012 402007                    MPY     10,DL
        13 000226   200105 756100                    STQ     I+2,,AUTO
        13 000227   200011 630500                    EPPR0   TEMP,,AUTO
        13 000230   200112 450500                    STP0    I+7,,AUTO
        13 000231   200016 631500                    EPPR1   WASTE_CAN,,AUTO
        13 000232   200111 451500                    STP1    I+6,,AUTO
        13 000233   000025 236000 14                 LDQ     21
        13 000234   200110 756100                    STQ     I+5,,AUTO
        13 000235   200105 633500                    EPPR3   I+2,,AUTO
        13 000236   200107 453500                    STP3    I+4,,AUTO
        13 000237   200104 634500                    EPPR4   I+1,,AUTO
        13 000240   200106 454500                    STP4    I+3,,AUTO
        13 000241   200106 630500                    EPPR0   I+3,,AUTO
        13 000242   000023 631400 xsym               EPPR1   B_VECTNIL+19
        13 000243   000000 701000 xent               TSX1    PSL$CHOMP
        13 000244   000000 011000                    NOP     0

      133     6100    3             WASTE_CAN, TEMP);
      134     6101
      135     6102    3            SUMMARY_DATA (SUM_INDX) = TEMP / 10;

   6102 13 000245   200011 236100                    LDQ     TEMP,,AUTO
        13 000246   000012 506007                    DIV     10,DL
        13 000247   200071 720100                    LXL0    SUM_INDX,,AUTO
PL6.E3A0      #001=PSD$SUMMARY File=PSD$SUMMARY.:E05TSI                          WED 07/30/97 04:34 Page:21
        13 000250   200020 756110                    STQ     SUMMARY_DATA,X0,AUTO

      136     6103    3            SUMMARY_DATA (SUM_INDX + 1) = MOD(TEMP, 10);

   6103 13 000251   200011 236100                    LDQ     TEMP,,AUTO
        13 000252   000012 506007                    DIV     10,DL
        13 000253   200021 755110                    STA     SUMMARY_DATA+1,X0,AUTO

      137     6104    3            SUM_INDX = SUM_INDX + 2;

   6104 13 000254   200071 236100                    LDQ     SUM_INDX,,AUTO
        13 000255   000002 036007                    ADLQ    2,DL
        13 000256   200071 756100                    STQ     SUM_INDX,,AUTO

      138     6105
      139     6106    3            END;

   6106 13 000257   000310 710000 13                 TRA     s:6119

      140     6107
      141     6108    3           ELSE DO;

      142     6109
      143     6110    3            J = V_TABLE.MODE (ITEM);

   6110 13 000260   200072 236100                    LDQ     ITEM,,AUTO
        13 000261   000005 402007                    MPY     5,DL
        13 000262   000002 236006 xsym               LDQ     V_TABLE+2,QL
        13 000263   000011 772000                    QRL     9
        13 000264   000777 376007                    ANQ     511,DL
        13 000265   200010 756100                    STQ     J,,AUTO

      144     6111
      145     6112    3            CALL PSL$CHOMP (OLD_VALUE, VALUE, J, WASTE_CAN,

   6112 13 000266   200071 720100                    LXL0    SUM_INDX,,AUTO
        13 000267   200020 630510                    EPPR0   SUMMARY_DATA,X0,AUTO
PL6.E3A0      #001=PSD$SUMMARY File=PSD$SUMMARY.:E05TSI                          WED 07/30/97 04:34 Page:22
        13 000270   200110 450500                    STP0    I+5,,AUTO
        13 000271   200016 631500                    EPPR1   WASTE_CAN,,AUTO
        13 000272   200107 451500                    STP1    I+4,,AUTO
        13 000273   200010 633500                    EPPR3   J,,AUTO
        13 000274   200106 453500                    STP3    I+3,,AUTO
        13 000275   200014 634500                    EPPR4   VALUE,,AUTO
        13 000276   200105 454500                    STP4    I+2,,AUTO
        13 000277   200015 635500                    EPPR5   OLD_VALUE,,AUTO
        13 000300   200104 455500                    STP5    I+1,,AUTO
        13 000301   200104 630500                    EPPR0   I+1,,AUTO
        13 000302   000023 631400 xsym               EPPR1   B_VECTNIL+19
        13 000303   000000 701000 xent               TSX1    PSL$CHOMP
        13 000304   000000 011000                    NOP     0

      146     6113    3             SUMMARY_DATA (SUM_INDX));
      147     6114
      148     6115    3            SUM_INDX = SUM_INDX + 1;

   6115 13 000305   200071 235100                    LDA     SUM_INDX,,AUTO
        13 000306   000001 035007                    ADLA    1,DL
        13 000307   200071 755100                    STA     SUM_INDX,,AUTO

      149     6116
      150     6117    3            END;

      151     6118
      152     6119    2         END;

   6119 13 000310   200004 235100                    LDA     I,,AUTO
        13 000311   000001 035007                    ADLA    1,DL
        13 000312   200004 755100                    STA     I,,AUTO
        13 000313   200004 236100                    LDQ     I,,AUTO
        13 000314   000000 116000 xsym               CMPQ    PS_SUMMARY_ITEMS
        13 000315   000107 602000 13                 TNC     s:6064

      153     6120
      154     6121    1      LEN = SUM_INDX * 4;
PL6.E3A0      #001=PSD$SUMMARY File=PSD$SUMMARY.:E05TSI                          WED 07/30/97 04:34 Page:23

   6121 13 000316   200071 235100                    LDA     SUM_INDX,,AUTO
        13 000317   000002 735000                    ALS     2
        13 000320   200017 755100                    STA     LEN,,AUTO

      155     6122
      156     6123    1      CALL X$WRITE (PS_FDS, FORMAT_,

   6123 13 000321   000020 735000                    ALS     16
        13 000322   000140 135007                    SBLA    96,DL
        13 000323   200104 452500                    STP2    I+1,,AUTO
        13 000324   200104 236100                    LDQ     I+1,,AUTO
        13 000325   000020 036003                    ADLQ    16,DU
        13 000326   200106 757100                    STAQ    I+3,,AUTO
        13 000327   200106 630500                    EPPR0   I+3,,AUTO
        13 000330   200113 450500                    STP0    I+8,,AUTO
        13 000331   000030 236000 14                 LDQ     24
        13 000332   200112 756100                    STQ     I+7,,AUTO
        13 000333   200076 631500                    EPPR1   FORMAT_,,AUTO
        13 000334   200111 451500                    STP1    I+6,,AUTO
        13 000335   000004 236000 14                 LDQ     4
        13 000336   200110 756100                    STQ     I+5,,AUTO
        13 000337   200110 630500                    EPPR0   I+5,,AUTO
        13 000340   000022 631400 xsym               EPPR1   B_VECTNIL+18
        13 000341   000000 701000 xent               TSX1    X$WRITE
        13 000342   000000 011000                    NOP     0

      157     6124    1       VECTOR(SUMMARY_TIME.TIME@), VECTOR(ADDR(SUMMARY_DATA) -> TEXT));
      158     6125
      159     6126    1      IF PS_WORKING_FLAGS ~= PS_DISPLAY_FLAGS

   6126 13 000343   000000 236000 xsym               LDQ     PS_WORKING_FLAGS
        13 000344   000000 676000 xsym               ERQ     PS_DISPLAY_FLAGS
        13 000345   777600 376003                    ANQ     -128,DU
        13 000346   000352 600000 13                 TZE     s:6129

      160     6127    1        THEN CALL PSD$SKIP;
PL6.E3A0      #001=PSD$SUMMARY File=PSD$SUMMARY.:E05TSI                          WED 07/30/97 04:34 Page:24

   6127 13 000347   000002 631400 xsym               EPPR1   B_VECTNIL+2
        13 000350   000000 701000 xent               TSX1    PSD$SKIP
        13 000351   000000 011000                    NOP     0

      161     6128
      162     6129    1      RETURN;

   6129 13 000352   000000 702200 xent               TSX2  ! X66_ARET

      163     6130
      164     6131    1   PSD$SUM_HEAD: ENTRY;

   6131 13 000353   000000 700200 xent  PSD$SUM_HEAD TSX0  ! X66_AUTO_0
        13 000354   000114 000000                    ZERO    76,0

      165     6132
      166     6133    1      CALL GEN_VECTOR (PS_SUMMARY_HEADER, HEADER_);

   6133 13 000355   200074 630500                    EPPR0   HEADER_,,AUTO
        13 000356   200102 450500                    STP0    @STRING+1,,AUTO
        13 000357   000001 236000 14                 LDQ     1
        13 000360   200101 756100                    STQ     FORMAT_+3,,AUTO
        13 000361   000003 701000 13                 TSX1    GEN_VECTOR
        13 000362   000000 011000                    NOP     0

      167     6134
      168     6135    1      CALL X$WRITE (PS_FDS, VECTOR(SUM_HEADER),

   6135 13 000363   200074 630500                    EPPR0   HEADER_,,AUTO
        13 000364   200106 450500                    STP0    I+3,,AUTO
        13 000365   000004 237000 14                 LDAQ    4
        13 000366   200104 757100                    STAQ    I+1,,AUTO
        13 000367   200104 630500                    EPPR0   I+1,,AUTO
        13 000370   000021 631400 xsym               EPPR1   B_VECTNIL+17
        13 000371   000000 701000 xent               TSX1    X$WRITE
        13 000372   000000 011000                    NOP     0
PL6.E3A0      #001=PSD$SUMMARY File=PSD$SUMMARY.:E05TSI                          WED 07/30/97 04:34 Page:25

      169     6136    1       HEADER_);
      170     6137
      171     6138    1      SUMMARY_HEADER.TITL.L# = LEN;

   6138 13 000373   200017 236100                    LDQ     LEN,,AUTO
        13 000374   000033 736000                    QLS     27
        13 000375   000003 552040 12                 STBQ    SUMMARY_HEADER+1,'40'O

      172     6139
      173     6140    1      SUMMARY_HEADER.TITL.TITLE# = PS_SUMMARY_HEADER;

   6140 13 000376   040000 100400                    MLR     fill='040'O
        13 000377   000000 000214 xsym               ADSC9   PS_SUMMARY_HEADER        cn=0,n=140
        13 000400   000003 200214 12                 ADSC9   SUMMARY_HEADER+1         cn=1,n=140

      174     6141
      175     6142    1      CALL M$DEVICE (SET_HEADER);

   6142 13 000401   000014 630400 11                 EPPR0   SET_HEADER
        13 000402   050006 713400                    CLIMB   20486
        13 000403   401000 401760                    pmme    nvectors=3

      176     6143
      177     6144    1      RETURN;

   6144 13 000404   000000 702200 xent               TSX2  ! X66_ARET
      178     6145
      179     6146    1   END PSD$SUMMARY;

PL6.E3A0      #001=PSD$SUMMARY File=PSD$SUMMARY.:E05TSI                          WED 07/30/97 04:34 Page:26
--  Include file information  --

   XUF_ENTRY.:E05TOU  cannot be made into a system file and is referenced.
   CP_6_SUBS.:E05TOU  is referenced.
   CP_6.:E05TOU  cannot be made into a system file and is referenced.
   KL_MACRO_C.:E05TOU  is referenced.
   KL_AFCN_C.:E05TOU  is referenced.
   P_FEP_M.:E05TOU  is referenced.
   K_ID_E.:E05TOU  is referenced.
   XU_FORMAT_C.:E05TOU  is referenced.
   PM_BUCKET_C.:E05TOU  is referenced.
   PS_SUBS_C.:E05TOU  is referenced.
   PS_DATA_R.:E05TOU  cannot be made into a system file and is referenced.
   B$JIT_C.:E05TOU  was found in the system file and is never referenced.
   CP_6_C.:E05TOU  was found in the system file and is referenced.
      No diagnostics issued in procedure PSD$SUMMARY.
PL6.E3A0      #001=PSD$SUMMARY File=PSD$SUMMARY.:E05TSI                          WED 07/30/97 04:34 Page:27

 **** Variables and constants ****

  ****  Section 006 RtLmCm PS_FDS

  ****  Scalars and arrays  ****
OctLoc.c.b A Datatyp(siz) R M Lvl/name                 OctLoc.c.b A Datatyp(siz) R M Lvl/name

     0-0-0/w STRC(1080)  r     1 PS_FDS

  ****  Section 011 RoData PSD$SUMMARY

  ****  Scalars and arrays  ****
OctLoc.c.b A Datatyp(siz) R M Lvl/name                 OctLoc.c.b A Datatyp(siz) R M Lvl/name

     1-0-0/c CHAR(40)    r     1 DAY_FORMAT                14-0-0/d STRC(360)   r     1 SET_HEADER
     0-0-0/c CHAR(4)     r     1 SUM_HEADER

  ****  Section 012  Data  PSD$SUMMARY

  ****  Scalars and arrays  ****
OctLoc.c.b A Datatyp(siz) R M Lvl/name                 OctLoc.c.b A Datatyp(siz) R M Lvl/name

     2-0-0/w STRC(1305)  r     1 SUMMARY_HEADER            47-0-0/c STRC(270)   r     1 SUMMARY_TIME
    57-0-0/c STRC(270)   r     1 THEN_TIME

  ****  Auto variables  ****

  ****  Scalars and arrays  ****
OctLoc.c.b A Datatyp(siz) R M Lvl/name                 OctLoc.c.b A Datatyp(siz) R M Lvl/name

   101-0-0/w PTR         r     1 @STRING                  102-0-0/w PTR         r     1 @VECT
    76-0-0/d BIT (72)    r     1 FORMAT_                   74-0-0/d BIT (72)    r     1 HEADER_
     4-0-0/w UBIN        r     1 I                        103-0-0/w UBIN        r     1 I
    72-0-0/w UBIN        r     1 ITEM                      10-0-0/w UBIN        r     1 J
    17-0-0/w UBIN        r     1 LEN                       15-0-0/w SBIN        r     1 OLD_VALUE
    12-0-0/w PTR         r     1 P$                        13-0-0/w PTR         r     1 Q$
    *0-0-0/c CHAR(140)   r     1 STRING
PL6.E3A0      #001=PSD$SUMMARY File=PSD$SUMMARY.:E05TSI                          WED 07/30/97 04:34 Page:28
    20-0-0/w UBIN        r     1 SUMMARY_DATA(0:40)
    71-0-0/w UBIN        r     1 SUM_INDX                  11-0-0/w SBIN        r     1 TEMP
    14-0-0/w SBIN        r     1 VALUE                     *0-0-0/d BIT (72)    r     1 VECT
    16-0-0/w UBIN        r     1 WASTE_CAN

  ****  SYMREF variables  ****

  ****  Scalars and arrays  ****
OctLoc.c.b A Datatyp(siz) R M Lvl/name                 OctLoc.c.b A Datatyp(siz) R M Lvl/name

     0-0-0/c CHAR(140)   r     1 PS_BUFFER                  0-0-0/w STRC(936)   r     1 PS_COLLECT
     0-0-0/w STRC(11)    r     1 PS_DISPLAY_FLAGS           0-0-0/w UBIN        r     1 PS_MODE
     0-0-0/w STRC(936)   r     1 PS_OLD_COLLECT             0-0-0/w PTR         r     1 PS_OLD_PMDAT$
     0-0-0/w PTR         r     1 PS_STATS$                  0-0-0/c CHAR(140)   r     1 PS_SUMMARY_FORMAT
     0-0-0/c CHAR(140)   r     1 PS_SUMMARY_HEADER          0-0-0/w UBIN        r     1 PS_SUMMARY_ITEMS
     0-0-0/w UBIN        r     1 PS_SUMMARY_LIST(0:19)
     0-0-0/b BIT         r     1 PS_SUMMARY_ONLY            0-0-0/w STRC(11)    r     1 PS_WORKING_FLAGS
     0-0-0/w STRC(180)   r     1 V_TABLE(0:0)

  ****  BASED and DCB variables  ****

  ****  Scalars and arrays  ****
OctLoc.c.b A Datatyp(siz) R M Lvl/name                 OctLoc.c.b A Datatyp(siz) R M Lvl/name

     0-0-0/w STRC(108)   r     1 BLOCK                      0-0-0N  NULL        r     1 M$LO
     0-0-0/w SBIN        r     1 SBIN_                      0-0-0/c ACHR        r     1 TEXT
     0-0-0/c ASTR(9)     r     1 TEXTC


   Procedure PSD$SUMMARY requires 261 words for executable code.
   Procedure PSD$SUMMARY requires 76 words of local(AUTO) storage.

    No errors detected in file PSD$SUMMARY.:E05TSI    .
PL6.E3A0      #001=PSD$SUMMARY File=PSD$SUMMARY.:E05TSI                          WED 07/30/97 04:34 Page:29
          *** CROSS REFERENCE LISTING ***
**     DENOTES     IDENTIFIER DEFINITION
<<                 IDENTIFIER'S VALUE SET
>>                 IDENTIFIER'S VALUE USED
<>                 IDENTIFIER SET AND/OR USED
--                 IDENTIFIER REFERENCED
PL6.E3A0      #001=PSD$SUMMARY File=PSD$SUMMARY.:E05TSI                          WED 07/30/97 04:34 Page:30
          MINI XREF LISTING

BLOCK.DATA
      4837**DCL      6073>>ASSIGN   6079>>ASSIGN
DAY_FORMAT
      5928**DCL      6059--CALL
FORMAT_
      5961**DCL      6042<>CALL     6123<>CALL
GEN_VECTOR
      6020**PROC     6042--CALL     6043--CALL     6133--CALL
HEADER_
      5960**DCL      6043<>CALL     6047<>CALL     6133<>CALL     6135<>CALL
I
      5944**DCL      6062<<DOINDEX  6064>>ASSIGN
I IN PROCEDURE GEN_VECTOR
      6024**DCL      6028<<DOINDEX  6030>>IF       6032>>ASSIGN
ITEM
      5959**DCL      6064<<ASSIGN   6066>>IF       6069>>ASSIGN   6073>>ASSIGN   6079>>ASSIGN   6085>>ASSIGN
      6086>>ASSIGN   6089>>IF       6096>>IF       6110>>ASSIGN
J
      5948**DCL      6069<<ASSIGN   6071<>CALL     6110<<ASSIGN   6112<>CALL
LEN
      5955**DCL      5956--IMP-SIZ  6026<<ASSIGN   6032<<ASSIGN   6036>>ASSIGN   6121<<ASSIGN   6123>>CALL
      6138>>ASSIGN
M$DEVICE
      5318**DCL-ENT  6142--CALL
OLD_VALUE
      5953**DCL      6077<<ASSIGN   6079<<ASSIGN   6086<<ASSIGN   6092>>ASSIGN   6099>>CALL     6112<>CALL
P$
      5950**DCL      6071<>CALL     6073>>ASSIGN
PSD$SKIP
      5935**DCL-ENT  6127--CALL
PSL$CHOMP
      5933**DCL-ENT  6099--CALL     6112--CALL
PL6.E3A0      #001=PSD$SUMMARY File=PSD$SUMMARY.:E05TSI                          WED 07/30/97 04:34 Page:31
PSL$LOCATE
      5931**DCL-ENT  6071--CALL
PSL$TIME
      5934**DCL-ENT  6052--CALL     6053--CALL
PS_BUFFER
      4840**DCL      4875--DCLINIT  4877--DCLINIT
PS_COLLECT
      4992**DCL      6086--ASSIGN
PS_COLLECT.CALCNT
      4995**DCL      4995--REDEF
PS_COLLECT.USRSRV
      4992**DCL      4993--REDEF
PS_COLLECT.UTS
      4995**DCL      6052<>CALL
PS_DISPLAY_FLAGS
      4424**DCL      6126>>IF
PS_FDS
      4857**DCL      6047<>CALL     6059<>CALL     6123<>CALL     6135<>CALL
PS_HLPCGBUF.DSPMSK
      5252**DCL      5258--REDEF
PS_HLPCGBUF.SLCMSK
      5293**DCL      5300--REDEF
PS_MODE
      5007**DCL      6055>>IF
PS_OLD_COLLECT
      4996**DCL      6086--ASSIGN
PS_OLD_COLLECT.CALCNT
      4999**DCL      5000--REDEF
PS_OLD_COLLECT.USRSRV
      4997**DCL      4997--REDEF
PS_OLD_COLLECT.UTS
      5000**DCL      6053<>CALL
PS_OLD_PMDAT$
      4419**DCL      6089>>IF
PS_STATS$
      5001**DCL      5003--IMP-PTR
PL6.E3A0      #001=PSD$SUMMARY File=PSD$SUMMARY.:E05TSI                          WED 07/30/97 04:34 Page:32
PS_SUMMARY_FORMAT
      5006**DCL      6042<>CALL
PS_SUMMARY_HEADER
      5006**DCL      6043<>CALL     6133<>CALL     6140>>ASSIGN
PS_SUMMARY_ITEMS
      5006**DCL      6062>>DOINDEX
PS_SUMMARY_LIST
      5005**DCL      6064>>ASSIGN
PS_SUMMARY_ONLY
      5007**DCL      6045>>IF
PS_WORKING_FLAGS
      4431**DCL      6126>>IF
Q$
      5951**DCL      6071<>CALL     6075>>IF       6079>>ASSIGN
SBIN_
      5005**DCL      6085>>ASSIGN   6086>>ASSIGN
SET_HEADER
      5977**DCL      6142<>CALL
SET_HEADER.V
      5978**DCL      5977--DCLINIT
STRING IN PROCEDURE GEN_VECTOR
      6022**DCL      6020--PROC     6030>>IF       6036--ASSIGN
SUMMARY_DATA
      5957**DCL      6102<<ASSIGN   6103<<ASSIGN   6112<>CALL     6123--CALL
SUMMARY_HEADER
      5997**DCL      5978--DCLINIT
SUMMARY_HEADER.TITL.L#
      5999**DCL      6138<<ASSIGN
SUMMARY_HEADER.TITL.TITLE#
      6000**DCL      6140<<ASSIGN
SUMMARY_TIME
      6004**DCL      6052<>CALL
SUMMARY_TIME.DATE@
      6007**DCL      6057>>IF       6059--CALL
SUMMARY_TIME.DAY@
      6005**DCL      6059--CALL
PL6.E3A0      #001=PSD$SUMMARY File=PSD$SUMMARY.:E05TSI                          WED 07/30/97 04:34 Page:33
SUMMARY_TIME.TIME@
      6009**DCL      6123--CALL
SUM_HEADER
      5926**DCL      6047--CALL     6135--CALL
SUM_INDX
      5958**DCL      6050<<ASSIGN   6102>>ASSIGN   6103>>ASSIGN   6104<<ASSIGN   6104>>ASSIGN   6112>>CALL
      6115<<ASSIGN   6115>>ASSIGN   6121>>ASSIGN
TEMP
      5949**DCL      6099<>CALL     6102>>ASSIGN   6103>>ASSIGN
TEXT
      5956**DCL      6036--ASSIGN   6123--CALL
TEXTC.LEN
      5005**DCL      5005--IMP-SIZ
THEN_TIME
      6012**DCL      6053<>CALL
THEN_TIME.DATE@
      6015**DCL      6057>>IF
VALUE
      5952**DCL      6073<<ASSIGN   6085<<ASSIGN   6092<<ASSIGN   6099>>CALL     6112<>CALL
VECT IN PROCEDURE GEN_VECTOR
      6023**DCL      6020--PROC     6036<<ASSIGN
V_TABLE.INDX
      4978**DCL      6069>>ASSIGN
V_TABLE.MODE
      4979**DCL      6089>>IF       6096>>IF       6110>>ASSIGN
V_TABLE.OFFSET
      4978**DCL      6073>>ASSIGN   6079>>ASSIGN
V_TABLE.VAR$
      4978**DCL      6066>>IF       6085>>ASSIGN   6086>>ASSIGN
WASTE_CAN
      5954**DCL      6099<>CALL     6112<>CALL
X$WRITE
      5942**DCL-ENT  6047--CALL     6059--CALL     6123--CALL     6135--CALL
