VERSION E05

PL6.E3A0      #001=PSR$RESULTS File=PSR$RESULTS.:E05TSI                          WED 07/30/97 04:37 Page:1
        1        1        /*M*  PSR$RESULTS    Print results of ANALYZE and PLOT commands               */
        2        2        /*T***********************************************************/
        3        3        /*T*                                                         */
        4        4        /*T* Copyright (c) Bull HN Information Systems Inc., 1997    */
        5        5        /*T*                                                         */
        6        6        /*T***********************************************************/
        7        7        /*X* CLM=77,CRM=80,CRT=1,PLM=3,CTI=1,THI=2                                    */
        8        8        PSR$RESULTS: PROC;
        9        9        %INCLUDE PS_DATA_R;
       10     5305        %INCLUDE CP_6;
       11     5386        %INCLUDE CP_6_SUBS;
       12     5926        %REF_RPN (NAME=BASED_RPN, STCLASS=BASED);
       13     5937        %DUMMY_BUCKET (NAME=BASED_BUCKET, STCLASS=BASED);
       14     5943        %F$DCB;
       15     6000    1   DCL LOWER UBIN STATIC;
       16     6001    1   DCL UPPER UBIN STATIC;
       17     6002    1   DCL LINE_1 (0:39) CHAR(1) STATIC;
       18     6003    1   DCL LINE_2 (0:39) CHAR(1) STATIC;
       19     6004    1   DCL COMMENT CHAR (11) STATIC;
       20     6005    1   DCL FIRST_CHARS CHAR (5) CONSTANT INIT ('-+=#*');
       21     6006    1   DCL SECOND_CHARS CHAR (5) CONSTANT INIT ('    O');
       22     6007    1   DCL FIRST_PRINT CHAR (5) STATIC;
       23     6008    1   DCL SECOND_PRINT CHAR (5) STATIC;
       24     6009    1   DCL PEAK_LIMIT (0:4) UBIN;
       25     6010    1   DCL CHAR_HIT (0:4) LOGICAL;
       26     6011    1   DCL UPPER_LIM (0:4) UBIN;
       27     6012    1   DCL LOWER_LIM (0:4) UBIN;
       28     6013    1   DCL I UBIN;
       29     6014    1   DCL J UBIN;
       30     6015    1   DCL X UBIN;
       31     6016    1   DCL Y UBIN;
       32     6017    1   DCL Y_TEMP UBIN;
       33     6018    1   DCL 1 X_AXIS_CONTROL (0:10) STATIC,
       34     6019    1         2 DIGITS UBIN,
       35     6020    1         2 VALUE UBIN;
       36     6021    1   DCL AXIS_TITLE (0:1) CHAR (40) STATIC;
       37     6022    1   DCL STATISTICS_TITLE CHAR (40) STATIC;
PL6.E3A0      #001=PSR$RESULTS File=PSR$RESULTS.:E05TSI                          WED 07/30/97 04:37 Page:2
       38     6023    1   DCL 1 MEAN STATIC,
       39     6024    1         2 INT SBIN,
       40     6025    1         2 FRAC SBIN;
       41     6026    1   DCL 1 STDDEV STATIC,
       42     6027    1         2 INT UBIN,
       43     6028    1         2 FRAC UBIN;
       44     6029    1   DCL MINVAL SBIN STATIC;
       45     6030    1   DCL MAXVAL SBIN STATIC;
       46     6031    1   DCL POINT UBIN;
       47     6032    1   DCL GRAPH UBIN;
       48     6033
       49     6034        %INCLUDE XUF_ENTRY;
       50     6042    1   DCL PSR$IDENT ENTRY (6);
       51     6043    1   DCL PSR$UN_RPN ENTRY (4);
       52     6044    1   DCL PSD$HIST_BUCKET ENTRY (1);
       53     6045    1   DCL PSD$SKIP ENTRY;
       54     6046    1   DCL PSD$EJECT ENTRY (1);
       55     6047        %EJECT;
PL6.E3A0      #001=PSR$RESULTS File=PSR$RESULTS.:E05TSI                          WED 07/30/97 04:37 Page:3
       56     6048    1   DCL 1 RESULT_FMT CONSTANT,
       57     6049    1         2 LINE1 CHAR (0) INIT
       58     6050    1           ('%2/%15-No intervals met the specified selection criteria.%/');
       59     6051
       60     6052    1   DCL 1 PLOT_HEAD_VECS STATIC,
       61     6053    1         2 T (0:1),
       62     6054    1           3 TITLE_ BIT(72) DALIGNED,
       63     6055    1           3 SCALE_ BIT(72) DALIGNED,
       64     6056    1           3 LOW_ BIT(72) DALIGNED,
       65     6057    1           3 HIGH_ BIT(72) DALIGNED,
       66     6058    1         2 HITS_ BIT(72) DALIGNED INIT (VECTOR(PS_STATS_HITS));
       67     6059
       68     6060    1   DCL 1 PLOT_HEAD_FMT CONSTANT,
       69     6061    1         2 P1 CHAR (0) INIT ('%Vq%/     '),
       70     6062    1         2 P2 CHAR (0) INIT ('%25-Y-axis: %A (%A, %D - %D)%/     '),
       71     6063    1         2 P3 CHAR (0) INIT ('%25-X-axis: %A (%A, %D - %D)%/     '),
       72     6064    1         2 P4 CHAR (0) INIT ('%22-%D intervals met the selection criteria.  %2/'),
       73     6065    1         2 P5 CHAR (0) INIT ('%22-/---|---|---|---|---|---|---|---|---|---|\');
       74     6066
       75     6067    1   DCL PLOT_FMT_1   CHAR(0) CONSTANT
       76     6068    1      INIT ('%V`%8D %A%22-|%A|%/%VA%23-%A          ');
       77     6069
       78     6070    1   DCL PLOT_FMT_2   CHAR(0) CONSTANT
       79     6071    1      INIT ('%V`%8D to %D%22-|%A|%/%VA          %23-%A');
       80     6072
       81     6073    1   DCL 1 PLOT_TRAILER_FMT CONSTANT,
       82     6074    1         2 LINE1 CHAR(0) INIT ('%22-\---|---|---|---|---|---|---|---|---|---|/%/'),
       83     6075    1         2 LINE2 CHAR (0) INIT
       84     6076    1           ('%23-|%ND%30-|%ND%38-|%ND%46-|%ND%54-|%ND%61-|          %/'),
       85     6077    1         2 LINE3 CHAR (0) INIT
       86     6078    1           ('%20-%ND%27-%ND%35-%ND%43-%ND%51-%ND%58-%ND   ');
       87     6079
       88     6080    1   DCL 1 CHAR_FMT_1 CONSTANT,
       89     6081    1         2 LINE1 CHAR (0) INIT ('%Va%23-Character'),
       90     6082    1         2 LINE1A (0:4) CHAR (6) INIT ('%4X%1A'*0),
       91     6083    1         2 LINE2 CHAR (0) INIT ('%/%32-'),
       92     6084    1         2 LINE3 (0:4) CHAR (6) INIT ('%4X%1A'*0);
PL6.E3A0      #001=PSR$RESULTS File=PSR$RESULTS.:E05TSI                          WED 07/30/97 04:37 Page:4
       93     6085
       94     6086    1   DCL CHAR_VECS_2 (0:4) BIT (72) DALIGNED STATIC;
       95     6087
       96     6088    1   DCL 1 CHAR_FMT_2 STATIC,
       97     6089    1         2 L1 CHAR (0) INIT ('%23-Min hits '),
       98     6090    1         2 L2 (0:4) CHAR (5) INIT ('%5D%Q'*0);
       99     6091
      100     6092
      101     6093    1   DCL CHAR_VECS_3 (0:4) BIT (72) DALIGNED STATIC;
      102     6094
      103     6095    1   DCL 1 CHAR_FMT_3 STATIC,
      104     6096    1         2 L1 CHAR (0) INIT ('%23-Max hits '),
      105     6097    1         2 L2 (0:4) CHAR (5) INIT ('%5D%Q'*0);
      106     6098
      107     6099    1   DCL 1 STATISTICS_HEADER_FORMAT CONSTANT,
      108     6100    1         2 P1 CHAR (0) INIT ('%/  Mean%11-Std dev.%22-Minimum%32-Maximum'),
      109     6101    1         2 P2 CHAR (0) INIT ('%45-Item or expression  %/'),
      110     6102    1         2 P3 CHAR (0) INIT ('--------%11---------%22--------%32--------'),
      111     6103    1         2 P4 CHAR (0) INIT ('%45-------------------   %/');
      112     6104
      113     6105    1   DCL STATISTICS_FORMAT CHAR (0) CONSTANT INIT
      114     6106    1      ('%6D.%1D%11-%6D.%1D%21-%8D%31-%8D%45-%A  ');
      115     6107
      116     6108        %EJECT;
PL6.E3A0      #001=PSR$RESULTS File=PSR$RESULTS.:E05TSI                          WED 07/30/97 04:37 Page:5
      117     6109    1   SETUP_HEADER: PROC (NODE, SUBSCR);
      118     6110
      119     6111    2   DCL NODE UBIN;
      120     6112    2   DCL SUBSCR UBIN;
      121     6113
      122     6114    2      CALL PSR$IDENT (NODE, AXIS_TITLE(SUBSCR),
      123     6115    2       PLOT_HEAD_VECS.T.TITLE_(SUBSCR),
      124     6116    2       PLOT_HEAD_VECS.T.SCALE_(SUBSCR),
      125     6117    2       PLOT_HEAD_VECS.T.LOW_(SUBSCR),
      126     6118    2       PLOT_HEAD_VECS.T.HIGH_(SUBSCR));
      127     6119
      128     6120    2   END SETUP_HEADER;
      129     6121        %EJECT;
PL6.E3A0      #001=PSR$RESULTS File=PSR$RESULTS.:E05TSI                          WED 07/30/97 04:37 Page:6
      130     6122    1   PRINT_STATISTICS_HEADER: PROC;
      131     6123
      132     6124    2      CALL X$WRITE (PS_FDS, VECTOR(STATISTICS_HEADER_FORMAT));
      133     6125
      134     6126    2      RETURN;
      135     6127
      136     6128    2   END PRINT_STATISTICS_HEADER;
      137     6129        %EJECT;
PL6.E3A0      #001=PSR$RESULTS File=PSR$RESULTS.:E05TSI                          WED 07/30/97 04:37 Page:7
      138     6130    1   PRINT_STATISTICS: PROC (ITEM);
      139     6131
      140     6132    2   DCL I UBIN;
      141     6133    2   DCL ITEM UBIN;
      142     6134    2   DCL SIGMA_X SBIN;
      143     6135    2   DCL SIGMA_X_SQUARED SBIN;
      144     6136    2   DCL MEAN_TIMES_TEN SBIN;
      145     6137    2   DCL ABS_MEAN_TIMES_TEN SBIN;
      146     6138    2   DCL STDDEV_TIMES_TEN SBIN;
      147     6139    2   DCL STDDEV_SQ_100 UBIN;
      148     6140
      149     6141    2      SIGMA_X = PS_STATS.SIGMA_X(ITEM);
      150     6142    2      SIGMA_X_SQUARED = PS_STATS.SIGMA_X_SQUARED (ITEM);
      151     6143    2      MINVAL = PS_STATS.MIN (ITEM);
      152     6144    2      MAXVAL = PS_STATS.MAX (ITEM);
      153     6145
      154     6146    2      CALL PSR$UN_RPN (PS_STATS.RPN$(ITEM) -> BASED_RPN, STATISTICS_TITLE, I);
      155     6147
      156     6148    2      MEAN_TIMES_TEN = (SIGMA_X * 10 + (PS_STATS_HITS / 2)) /
      157     6149    2       PS_STATS_HITS;
      158     6150
      159     6151    2      IF MEAN_TIMES_TEN >= 0
      160     6152    2        THEN
      161     6153    2         ABS_MEAN_TIMES_TEN = MEAN_TIMES_TEN;
      162     6154    2        ELSE
      163     6155    2         ABS_MEAN_TIMES_TEN = - MEAN_TIMES_TEN;
      164     6156
      165     6157    2      MEAN.FRAC = MOD (ABS_MEAN_TIMES_TEN, 10);
      166     6158    2      MEAN.INT = ABS_MEAN_TIMES_TEN / 10;
      167     6159
      168     6160    2      IF MEAN_TIMES_TEN < 0
      169     6161    2        THEN
      170     6162    2         MEAN.INT = -MEAN.INT;
      171     6163
      172     6164    2      IF PS_STATS_HITS = 1
      173     6165    3        THEN DO;
      174     6166
PL6.E3A0      #001=PSR$RESULTS File=PSR$RESULTS.:E05TSI                          WED 07/30/97 04:37 Page:8
      175     6167    3         STDDEV.INT = 0;
      176     6168    3         STDDEV.FRAC = 0;
      177     6169
      178     6170    3         END;
      179     6171
      180     6172    3        ELSE DO;
      181     6173
      182     6174    3         STDDEV_SQ_100 = ((SIGMA_X_SQUARED * 100) +
      183     6175    3          (PS_STATS_HITS * MEAN_TIMES_TEN * MEAN_TIMES_TEN) -
      184     6176    3          (2 * 10 * MEAN_TIMES_TEN * SIGMA_X)) /
      185     6177    3          (PS_STATS_HITS - 1);
      186     6178
      187     6179    3         CALL SQRT (STDDEV_SQ_100, STDDEV_TIMES_TEN);
      188     6180
      189     6181    3         STDDEV.INT = STDDEV_TIMES_TEN / 10;
      190     6182    3         STDDEV.FRAC = MOD (STDDEV_TIMES_TEN, 10);
      191     6183
      192     6184    3         END;
      193     6185
      194     6186    2      CALL X$WRITE (PS_FDS, VECTOR(STATISTICS_FORMAT),
      195     6187    2       VECTOR(MEAN), VECTOR(STDDEV), VECTOR(MINVAL), VECTOR(MAXVAL),
      196     6188    2       VECTOR(STATISTICS_TITLE));
      197     6189
      198     6190    2      RETURN;
      199     6191
      200     6192    2   END PRINT_STATISTICS;
      201     6193        %EJECT;
PL6.E3A0      #001=PSR$RESULTS File=PSR$RESULTS.:E05TSI                          WED 07/30/97 04:37 Page:9
      202     6194    1   PRINT_HISTOGRAM: PROC (ITEM);
      203     6195
      204     6196    2   DCL ITEM UBIN;
      205     6197
      206     6198    2      CALL PSD$HIST_BUCKET (PS_STATS.BUCKET$(ITEM) -> BASED_BUCKET);
      207     6199
      208     6200    2      RETURN;
      209     6201
      210     6202    2   END PRINT_HISTOGRAM;
      211     6203        %EJECT;
PL6.E3A0      #001=PSR$RESULTS File=PSR$RESULTS.:E05TSI                          WED 07/30/97 04:37 Page:10
      212     6204    1   SQRT: PROC (N_SQUARED, N);
      213     6205
      214     6206    2   DCL N_SQUARED SBIN;
      215     6207    2   DCL N SBIN;
      216     6208    2   DCL PREVIOUS_N UBIN;
      217     6209    2   DCL ITERATIONS UBIN;
      218     6210
      219     6211    2      N = N_SQUARED;
      220     6212    2      PREVIOUS_N = 0;
      221     6213    2      ITERATIONS = 0;
      222     6214
      223     6215    3      DO WHILE (ITERATIONS < 20 AND N ~= PREVIOUS_N);
      224     6216
      225     6217    3         PREVIOUS_N = N;
      226     6218
      227     6219    3         N = (N + (N_SQUARED / N)) / 2;
      228     6220
      229     6221    3         ITERATIONS = ITERATIONS + 1;
      230     6222
      231     6223    3         END;
      232     6224
      233     6225    2      RETURN;
      234     6226
      235     6227    2   END SQRT;
      236     6228        %EJECT;
PL6.E3A0      #001=PSR$RESULTS File=PSR$RESULTS.:E05TSI                          WED 07/30/97 04:37 Page:11
      237     6229    1   PRINT_TRAILER: PROC (NODE);
      238     6230
      239     6231    2   DCL NODE UBIN;
      240     6232    2   DCL I UBIN;
      241     6233    2   DCL J UBIN;
      242     6234    2   DCL VALUE UBIN;
      243     6235    2   DCL K UBIN;
      244     6236
      245     6237    3      DO I = 0 TO 10;
      246     6238
      247     6239    3         IF MOD (I, 2) = 0
      248     6240    3           THEN
      249     6241    3            J = I/2 + 5;
      250     6242    3           ELSE
      251     6243    3            J = I/2;
      252     6244
      253     6245    3         IF I = 10
      254     6246    3           THEN
      255     6247    3            K = 38;
      256     6248    3           ELSE
      257     6249    3            IF I = 0
      258     6250    3              THEN
      259     6251    3               K = 0;
      260     6252    3              ELSE
      261     6253    3               K = I * 4 - 1;
      262     6254
      263     6255    3         VALUE = PS_STATS.PLOT$(NODE) -> PS_PLOT_VALUES(K);
      264     6256
      265     6257    3         X_AXIS_CONTROL.VALUE(J) = VALUE;
      266     6258
      267     6259    3         X_AXIS_CONTROL.DIGITS(J) = 4;
      268     6260
      269     6261    4         DO WHILE (VALUE >= 100 AND X_AXIS_CONTROL.DIGITS(J) < 6);
      270     6262
      271     6263    4            X_AXIS_CONTROL.DIGITS(J) = X_AXIS_CONTROL.DIGITS(J) + 1;
      272     6264    4            VALUE = VALUE / 100;
      273     6265    4            END;
PL6.E3A0      #001=PSR$RESULTS File=PSR$RESULTS.:E05TSI                          WED 07/30/97 04:37 Page:12
      274     6266
      275     6267    3         END;
      276     6268
      277     6269    2      X_AXIS_CONTROL.DIGITS(0) = X_AXIS_CONTROL.DIGITS(0) - 1;
      278     6270
      279     6271    2      CALL X$WRITE (PS_FDS, VECTOR(PLOT_TRAILER_FMT),
      280     6272    2       VECTOR(X_AXIS_CONTROL));
      281     6273
      282     6274    2      RETURN;
      283     6275
      284     6276    2   END PRINT_TRAILER;
      285     6277        %EJECT;
PL6.E3A0      #001=PSR$RESULTS File=PSR$RESULTS.:E05TSI                          WED 07/30/97 04:37 Page:13
      286     6278    1   WRITE_FORMAT_1: PROC;
      287     6279
      288     6280    2      CALL X$WRITE (PS_FDS, VECTOR(PLOT_FMT_1),
      289     6281    2       VECTOR(UPPER), VECTOR(COMMENT), VECTOR(LINE_1), VECTOR(LINE_2));
      290     6282
      291     6283    2      RETURN;
      292     6284
      293     6285    2   END WRITE_FORMAT_1;
      294     6286
      295     6287
      296     6288
      297     6289    1   WRITE_FORMAT_2: PROC;
      298     6290
      299     6291    2      CALL X$WRITE (PS_FDS, VECTOR(PLOT_FMT_2),
      300     6292    2       VECTOR(LOWER), VECTOR(UPPER), VECTOR(LINE_1), VECTOR(LINE_2));
      301     6293
      302     6294    2      RETURN;
      303     6295
      304     6296    2   END WRITE_FORMAT_2;
      305     6297
      306     6298        %EJECT;
PL6.E3A0      #001=PSR$RESULTS File=PSR$RESULTS.:E05TSI                          WED 07/30/97 04:37 Page:14
      307     6299    1      IF PS_STATS_HITS = 0
      308     6300    2        THEN DO;
      309     6301
      310     6302    2         IF PS_PMDAT_FOUND THEN
      311     6303    2            CALL X$WRITE (PS_FDS, VECTOR(RESULT_FMT));
      312     6304
      313     6305    2         RETURN;
      314     6306
      315     6307    2         END;
      316     6308
      317     6309    2      DO CASE (PS_MODE);
      318     6310
      319     6311    2       CASE (PLOT_MODE#);
      320     6312
      321     6313    3         DO GRAPH = 0 TO PS_GRAPHS - 1;
      322     6314
      323     6315    4            DO I = 0 TO 4;
      324     6316
      325     6317    4               PEAK_LIMIT (I) = (I+1) * PS_GRAPH_PEAK(GRAPH) / 5;
      326     6318
      327     6319    4               IF I > 0
      328     6320    4                AND PEAK_LIMIT(I) <= PEAK_LIMIT(I-1)
      329     6321    4                 THEN
      330     6322    4                  PEAK_LIMIT(I) = PEAK_LIMIT(I-1) + 1;
      331     6323
      332     6324    4               END;
      333     6325
      334     6326    3            CALL SETUP_HEADER (GRAPH*2, 0);
      335     6327    3            CALL SETUP_HEADER (GRAPH*2+1, 1);
      336     6328
      337     6329    3            CALL X$WRITE (PS_FDS, VECTOR(PLOT_HEAD_FMT),
      338     6330    3             PLOT_HEAD_VECS.T.TITLE_(0),
      339     6331    3             PLOT_HEAD_VECS.T.SCALE_(0),
      340     6332    3             PLOT_HEAD_VECS.T.LOW_(0),
      341     6333    3             PLOT_HEAD_VECS.T.HIGH_(0),
      342     6334    3             PLOT_HEAD_VECS.T.TITLE_(1),
      343     6335    3             PLOT_HEAD_VECS.T.SCALE_(1),
PL6.E3A0      #001=PSR$RESULTS File=PSR$RESULTS.:E05TSI                          WED 07/30/97 04:37 Page:15
      344     6336    3             PLOT_HEAD_VECS.T.LOW_(1),
      345     6337    3             PLOT_HEAD_VECS.T.HIGH_(1),
      346     6338    3             PLOT_HEAD_VECS.HITS_);
      347     6339
      348     6340    3            CHAR_HIT = %NO#;
      349     6341
      350     6342    4            DO Y = 0 TO Y_AXIS_POINTS# - 1;
      351     6343
      352     6344    4               Y_TEMP = Y_AXIS_POINTS# - Y - 1;
      353     6345
      354     6346    5               DO X = 0 TO X_AXIS_POINTS# - 1;
      355     6347
      356     6348    5                  POINT = PS_GRAPH$(GRAPH) -> PS_GRAPH_POINTS(Y_TEMP *
      357     6349    5                   X_AXIS_POINTS# + X);
      358     6350
      359     6351    5                  IF POINT = 0
      360     6352    6                    THEN DO;
      361     6353
      362     6354    6                     LINE_1(X) = ' ';
      363     6355    6                     LINE_2(X) = ' ';
      364     6356    6                     END;
      365     6357
      366     6358    6                    ELSE DO;
      367     6359
      368     6360    6                     I = 0;
      369     6361
      370     6362    7                     DO WHILE (I < 4 AND
      371     6363    7                      POINT > PEAK_LIMIT(I));
      372     6364
      373     6365    7                        I = I + 1;
      374     6366    7                        END;
      375     6367
      376     6368    6                     LINE_1(X) = SUBSTR(FIRST_CHARS, I, 1);
      377     6369
      378     6370    6                     IF DCBADDR(DCBNUM(M$LO)) -> F$DCB.ATTR.TRUOVRPRT#
      379     6371    6                       THEN
      380     6372    6                        LINE_2(X) = SUBSTR(SECOND_CHARS, I, 1);
PL6.E3A0      #001=PSR$RESULTS File=PSR$RESULTS.:E05TSI                          WED 07/30/97 04:37 Page:16
      381     6373    6                       ELSE
      382     6374    6                        LINE_2(X) = ' ';
      383     6375
      384     6376    6                     CHAR_HIT(I) = %YES#;
      385     6377
      386     6378    6                     END;
      387     6379
      388     6380    5                  END /* do X */;
      389     6381
      390     6382    4               UPPER = PS_STATS.PLOT$(GRAPH*2) -> PS_PLOT_VALUES(Y_TEMP);
      391     6383
      392     6384    4               IF Y_TEMP = 0
      393     6385    4                 THEN
      394     6386    4                  LOWER = 0;
      395     6387    4                 ELSE
      396     6388    4                  LOWER = PS_STATS.PLOT$(GRAPH*2) -> PS_PLOT_VALUES(Y_TEMP - 1)
      397     6389    4                   + 1;
      398     6390
      399     6391    4               IF Y = 0
      400     6392    5                 THEN DO;
      401     6393
      402     6394    5                  UPPER = LOWER;
      403     6395    5                  COMMENT = 'and above';
      404     6396
      405     6397    5                  CALL WRITE_FORMAT_1;
      406     6398
      407     6399    5                  END;
      408     6400
      409     6401    5                 ELSE DO;
      410     6402
      411     6403    5                  IF Y_TEMP = 0
      412     6404    6                    THEN DO;
      413     6405
      414     6406    6                     IF UPPER > 0
      415     6407    6                       THEN
      416     6408    6                        COMMENT = 'and below';
      417     6409    6                       ELSE
PL6.E3A0      #001=PSR$RESULTS File=PSR$RESULTS.:E05TSI                          WED 07/30/97 04:37 Page:17
      418     6410    6                        COMMENT = ' ';
      419     6411
      420     6412    6                     CALL WRITE_FORMAT_1;
      421     6413
      422     6414    6                     END;
      423     6415
      424     6416    6                    ELSE DO;
      425     6417
      426     6418    6                     IF UPPER = LOWER
      427     6419    7                       THEN DO;
      428     6420
      429     6421    7                        COMMENT = ' ';
      430     6422
      431     6423    7                        CALL WRITE_FORMAT_1;
      432     6424
      433     6425    7                        END;
      434     6426
      435     6427    7                       ELSE DO;
      436     6428
      437     6429    7                        CALL WRITE_FORMAT_2;
      438     6430
      439     6431    7                        END;
      440     6432
      441     6433    6                     END;
      442     6434
      443     6435    5                  END;
      444     6436
      445     6437    4               END /* do Y */;
      446     6438
      447     6439    3            CALL PRINT_TRAILER (GRAPH * 2 + 1);
      448     6440
      449     6441    3            FIRST_PRINT = ' ';
      450     6442    3            SECOND_PRINT = ' ';
      451     6443
      452     6444    3            J = 0;
      453     6445
      454     6446    4            DO I = 0 TO 4;
PL6.E3A0      #001=PSR$RESULTS File=PSR$RESULTS.:E05TSI                          WED 07/30/97 04:37 Page:18
      455     6447
      456     6448    4               CHAR_VECS_2(I) = VECTOR(NIL);
      457     6449    4               CHAR_VECS_3(I) = VECTOR(NIL);
      458     6450
      459     6451    4               IF CHAR_HIT(I)
      460     6452    5                 THEN DO;
      461     6453
      462     6454    5                  CALL INSERT (FIRST_PRINT, J, 1, SUBSTR(FIRST_CHARS, I, 1));
      463     6455
      464     6456    5                  IF DCBADDR(DCBNUM(M$LO)) -> F$DCB.ATTR.TRUOVRPRT#
      465     6457    5                    THEN
      466     6458    5                     CALL INSERT (SECOND_PRINT, J, 1, SUBSTR(SECOND_CHARS, I, 1));
      467     6459
      468     6460    5                  UPPER_LIM(J) = PEAK_LIMIT (I);
      469     6461
      470     6462    5                  IF I = 0
      471     6463    5                    THEN
      472     6464    5                     LOWER_LIM(J) = 1;
      473     6465    5                    ELSE
      474     6466    5                     LOWER_LIM(J) = PEAK_LIMIT(I-1) + 1;
      475     6467
      476     6468    5                  CHAR_VECS_2(J) = VECTOR(LOWER_LIM(J));
      477     6469    5                  CHAR_VECS_3(J) = VECTOR(UPPER_LIM(J));
      478     6470
      479     6471    5                  J = J + 1;
      480     6472
      481     6473    5                  END;
      482     6474
      483     6475    4               END;
      484     6476
      485     6477    3            CALL X$WRITE (PS_FDS, VECTOR(CHAR_FMT_1),
      486     6478    3             VECTOR(FIRST_PRINT), VECTOR(SECOND_PRINT));
      487     6479
      488     6480    3            CALL X$WRITE (PS_FDS, VECTOR(CHAR_FMT_2),
      489     6481    3             CHAR_VECS_2(0),
      490     6482    3             CHAR_VECS_2(1),
      491     6483    3             CHAR_VECS_2(2),
PL6.E3A0      #001=PSR$RESULTS File=PSR$RESULTS.:E05TSI                          WED 07/30/97 04:37 Page:19
      492     6484    3             CHAR_VECS_2(3),
      493     6485    3             CHAR_VECS_2(4));
      494     6486
      495     6487    3            CALL X$WRITE (PS_FDS, VECTOR(CHAR_FMT_3),
      496     6488    3             CHAR_VECS_3(0),
      497     6489    3             CHAR_VECS_3(1),
      498     6490    3             CHAR_VECS_3(2),
      499     6491    3             CHAR_VECS_3(3),
      500     6492    3             CHAR_VECS_3(4));
      501     6493
      502     6494    3            END;
      503     6495        %EJECT;
PL6.E3A0      #001=PSR$RESULTS File=PSR$RESULTS.:E05TSI                          WED 07/30/97 04:37 Page:20
      504     6496    2       CASE (BARGRAPH_MODE#);
      505     6497
      506     6498    2         CALL PRINT_TRAILER (0);
      507     6499
      508     6500    2       CASE (STATISTICS_MODE#);
      509     6501
      510     6502    2         CALL PSD$EJECT (PS_STATS_EXPRESSIONS + 7);
      511     6503    2         CALL PRINT_STATISTICS_HEADER;
      512     6504
      513     6505    3         DO I = 0 TO PS_STATS_EXPRESSIONS - 1;
      514     6506
      515     6507    3            CALL PRINT_STATISTICS (I);
      516     6508
      517     6509    3            END;
      518     6510
      519     6511    2       CASE (ANALYZE_MODE#);
      520     6512
      521     6513    3         DO I = 0 TO PS_STATS_EXPRESSIONS - 1;
      522     6514
      523     6515    3            CALL PSD$EJECT (30);
      524     6516    3            CALL PRINT_STATISTICS_HEADER;
      525     6517    3            CALL PRINT_STATISTICS (I);
      526     6518    3            CALL PRINT_HISTOGRAM (I);
      527     6519
      528     6520    3            END;
      529     6521    2       END;
      530     6522
      531     6523    1      CALL PSD$SKIP;
      532     6524
      533     6525    1      RETURN;
      534     6526
      535     6527    1   END PSR$RESULTS;

PL6.E3A0      #001=PSR$RESULTS File=PSR$RESULTS.:E05TSI                          WED 07/30/97 04:37 Page:21
--  Include file information  --

   XUF_ENTRY.:E05TOU  cannot be made into a system file and is referenced.
   CP_6_SUBS.:E05TOU  is referenced.
   CP_6.:E05TOU  cannot be made into a system file and is referenced.
   KL_MACRO_C.:E05TOU  is referenced.
   KL_AFCN_C.:E05TOU  is referenced.
   P_FEP_M.:E05TOU  is referenced.
   K_ID_E.:E05TOU  is referenced.
   XU_FORMAT_C.:E05TOU  is referenced.
   PM_BUCKET_C.:E05TOU  is referenced.
   PS_SUBS_C.:E05TOU  is referenced.
   PS_DATA_R.:E05TOU  cannot be made into a system file and is referenced.
   B$JIT_C.:E05TOU  was found in the system file and is never referenced.
   CP_6_C.:E05TOU  was found in the system file and is referenced.
      No diagnostics issued in procedure PSR$RESULTS.

   Procedure PSR$RESULTS requires 607 words for executable code.
   Procedure PSR$RESULTS requires 54 words of local(AUTO) storage.

    No errors detected in file PSR$RESULTS.:E05TSI    .

PL6.E3A0      #001=PSR$RESULTS File=PSR$RESULTS.:E05TSI                          WED 07/30/97 04:37 Page:22

 Object Unit name= PSR$RESULTS                                File name= PSR$RESULTS.:E05TOU
 UTS= JUL 30 '97 04:37:04.32 WED                              Compiler= PL-6/E31         Sev=      00
 SharedLib= :SHARED_SYSTEM                                    Alt SharedLib=


    ****  Control sections  ****

 Sect   Type Bound  Init  Size OctSiz  Section name(segment info)
    0   DCB   even  none     0      0  M$LO
    1   DCB   even  none     0      0  M$DO
    2   DCB   even  none     0      0  M$SI
    3   DCB   even  none     0      0  F$LOG
    4   DCB   even  none     0      0  M$ME
    5   DCB   even  none     0      0  M$HLPCG
    6  RtLbCm even  none    30     36  PS_FDS
    7  RtLbCm even  none    32     40  PS_SELECT_RPN
    8  RtLbCm even  none    17     21  PS_STATS_RPN
    9  RtLbCm even  none    34     42  PS_STATS_BUCKET
   10   DCB   even  none     0      0  M$UC
   11   Data  even  none   146    222  PSR$RESULTS
   12  RoData even  UTS    194    302  PSR$RESULTS
   13   Proc  even  none   607   1137  PSR$RESULTS
   14  RoData even  none   121    171  PSR$RESULTS

    ****  Entry defs  ****

                              Check   Calling
                             calling  sequence
  Sect OctLoc Primary Altret sequence   type   Parms  Name
    13      0   yes            yes      Std        0  PSR$RESULTS
PL6.E3A0      #001=PSR$RESULTS File=PSR$RESULTS.:E05TSI                          WED 07/30/97 04:37 Page:23

  ****  Entry refs  ****

         Check        Calling
        calling       sequence
Altret sequence SRef   type   Args  Name
         yes           Std      22 X$WRITE
         yes           Std       1 PSD$EJECT
         yes           Std       0 PSD$SKIP
         yes           Std       6 PSR$IDENT
         yes           Std       4 PSR$UN_RPN
         yes           Std       1 PSD$HIST_BUCKET
                       nStd      0 X66_AUTO_0
                       Std       0 B_CONSPOOL_D
                       nStd      0 X66_ARET

  ****  Data refs  ****

  Flags:  r = read only, s = secondary
Flgs Name                             Flgs Name                             Flgs Name
     M$LO                                  M$DO                                  M$SI
     F$LOG                                 M$ME                                  M$HLPCG
     PS_BUFFER                             PS_STATS$                             PS_GRAPH$
     PS_STATS_HITS                         PS_STATS_EXPRESSIONS                  PS_GRAPHS
     PS_GRAPH_PEAK                         PS_MODE                               PS_PMDAT_FOUND
     M$UC                                  B_VECTNIL

  ****  Segment refs  ****

  Flags:  r = read only, s = secondary
Flgs Name                             Flgs Name                             Flgs Name
     NULLSID                               ISSID                                 ROSID
PL6.E3A0      #001=PSR$RESULTS File=PSR$RESULTS.:E05TSI                          WED 07/30/97 04:37 Page:24


        1        1        /*M*  PSR$RESULTS    Print results of ANALYZE and PLOT commands               */
        2        2        /*T***********************************************************/
        3        3        /*T*                                                         */
        4        4        /*T* Copyright (c) Bull HN Information Systems Inc., 1997    */
        5        5        /*T*                                                         */
        6        6        /*T***********************************************************/
        7        7        /*X* CLM=77,CRM=80,CRT=1,PLM=3,CTI=1,THI=2                                    */
        8        8        PSR$RESULTS: PROC;

      8 13 000000   000000 700200 xent  PSR$RESULTS  TSX0  ! X66_AUTO_0
        13 000001   000066 000000                    ZERO    54,0
        13 000002   000413 710000 13                 TRA     s:6299

        9        9        %INCLUDE PS_DATA_R;
       10     5305        %INCLUDE CP_6;
       11     5386        %INCLUDE CP_6_SUBS;
       12     5926        %REF_RPN (NAME=BASED_RPN, STCLASS=BASED);
       13     5937        %DUMMY_BUCKET (NAME=BASED_BUCKET, STCLASS=BASED);
       14     5943        %F$DCB;
       15     6000    1   DCL LOWER UBIN STATIC;
       16     6001    1   DCL UPPER UBIN STATIC;
       17     6002    1   DCL LINE_1 (0:39) CHAR(1) STATIC;
       18     6003    1   DCL LINE_2 (0:39) CHAR(1) STATIC;
       19     6004    1   DCL COMMENT CHAR (11) STATIC;
       20     6005    1   DCL FIRST_CHARS CHAR (5) CONSTANT INIT ('-+=#*');
       21     6006    1   DCL SECOND_CHARS CHAR (5) CONSTANT INIT ('    O');
       22     6007    1   DCL FIRST_PRINT CHAR (5) STATIC;
       23     6008    1   DCL SECOND_PRINT CHAR (5) STATIC;
       24     6009    1   DCL PEAK_LIMIT (0:4) UBIN;
       25     6010    1   DCL CHAR_HIT (0:4) LOGICAL;
       26     6011    1   DCL UPPER_LIM (0:4) UBIN;
       27     6012    1   DCL LOWER_LIM (0:4) UBIN;
       28     6013    1   DCL I UBIN;
       29     6014    1   DCL J UBIN;
       30     6015    1   DCL X UBIN;
       31     6016    1   DCL Y UBIN;
PL6.E3A0      #001=PSR$RESULTS File=PSR$RESULTS.:E05TSI                          WED 07/30/97 04:37 Page:25
       32     6017    1   DCL Y_TEMP UBIN;
       33     6018    1   DCL 1 X_AXIS_CONTROL (0:10) STATIC,
       34     6019    1         2 DIGITS UBIN,
       35     6020    1         2 VALUE UBIN;
       36     6021    1   DCL AXIS_TITLE (0:1) CHAR (40) STATIC;
       37     6022    1   DCL STATISTICS_TITLE CHAR (40) STATIC;
       38     6023    1   DCL 1 MEAN STATIC,
       39     6024    1         2 INT SBIN,
       40     6025    1         2 FRAC SBIN;
       41     6026    1   DCL 1 STDDEV STATIC,
       42     6027    1         2 INT UBIN,
       43     6028    1         2 FRAC UBIN;
       44     6029    1   DCL MINVAL SBIN STATIC;
       45     6030    1   DCL MAXVAL SBIN STATIC;
       46     6031    1   DCL POINT UBIN;
       47     6032    1   DCL GRAPH UBIN;
       48     6033
       49     6034        %INCLUDE XUF_ENTRY;
       50     6042    1   DCL PSR$IDENT ENTRY (6);
       51     6043    1   DCL PSR$UN_RPN ENTRY (4);
       52     6044    1   DCL PSD$HIST_BUCKET ENTRY (1);
       53     6045    1   DCL PSD$SKIP ENTRY;
       54     6046    1   DCL PSD$EJECT ENTRY (1);
       55     6047        %EJECT;
PL6.E3A0      #001=PSR$RESULTS File=PSR$RESULTS.:E05TSI                          WED 07/30/97 04:37 Page:26
       56     6048    1   DCL 1 RESULT_FMT CONSTANT,
       57     6049    1         2 LINE1 CHAR (0) INIT
       58     6050    1           ('%2/%15-No intervals met the specified selection criteria.%/');
       59     6051
       60     6052    1   DCL 1 PLOT_HEAD_VECS STATIC,
       61     6053    1         2 T (0:1),
       62     6054    1           3 TITLE_ BIT(72) DALIGNED,
       63     6055    1           3 SCALE_ BIT(72) DALIGNED,
       64     6056    1           3 LOW_ BIT(72) DALIGNED,
       65     6057    1           3 HIGH_ BIT(72) DALIGNED,
       66     6058    1         2 HITS_ BIT(72) DALIGNED INIT (VECTOR(PS_STATS_HITS));
       67     6059
       68     6060    1   DCL 1 PLOT_HEAD_FMT CONSTANT,
       69     6061    1         2 P1 CHAR (0) INIT ('%Vq%/     '),
       70     6062    1         2 P2 CHAR (0) INIT ('%25-Y-axis: %A (%A, %D - %D)%/     '),
       71     6063    1         2 P3 CHAR (0) INIT ('%25-X-axis: %A (%A, %D - %D)%/     '),
       72     6064    1         2 P4 CHAR (0) INIT ('%22-%D intervals met the selection criteria.  %2/'),
       73     6065    1         2 P5 CHAR (0) INIT ('%22-/---|---|---|---|---|---|---|---|---|---|\');
       74     6066
       75     6067    1   DCL PLOT_FMT_1   CHAR(0) CONSTANT
       76     6068    1      INIT ('%V`%8D %A%22-|%A|%/%VA%23-%A          ');
       77     6069
       78     6070    1   DCL PLOT_FMT_2   CHAR(0) CONSTANT
       79     6071    1      INIT ('%V`%8D to %D%22-|%A|%/%VA          %23-%A');
       80     6072
       81     6073    1   DCL 1 PLOT_TRAILER_FMT CONSTANT,
       82     6074    1         2 LINE1 CHAR(0) INIT ('%22-\---|---|---|---|---|---|---|---|---|---|/%/'),
       83     6075    1         2 LINE2 CHAR (0) INIT
       84     6076    1           ('%23-|%ND%30-|%ND%38-|%ND%46-|%ND%54-|%ND%61-|          %/'),
       85     6077    1         2 LINE3 CHAR (0) INIT
       86     6078    1           ('%20-%ND%27-%ND%35-%ND%43-%ND%51-%ND%58-%ND   ');
       87     6079
       88     6080    1   DCL 1 CHAR_FMT_1 CONSTANT,
       89     6081    1         2 LINE1 CHAR (0) INIT ('%Va%23-Character'),
       90     6082    1         2 LINE1A (0:4) CHAR (6) INIT ('%4X%1A'*0),
       91     6083    1         2 LINE2 CHAR (0) INIT ('%/%32-'),
       92     6084    1         2 LINE3 (0:4) CHAR (6) INIT ('%4X%1A'*0);
PL6.E3A0      #001=PSR$RESULTS File=PSR$RESULTS.:E05TSI                          WED 07/30/97 04:37 Page:27
       93     6085
       94     6086    1   DCL CHAR_VECS_2 (0:4) BIT (72) DALIGNED STATIC;
       95     6087
       96     6088    1   DCL 1 CHAR_FMT_2 STATIC,
       97     6089    1         2 L1 CHAR (0) INIT ('%23-Min hits '),
       98     6090    1         2 L2 (0:4) CHAR (5) INIT ('%5D%Q'*0);
       99     6091
      100     6092
      101     6093    1   DCL CHAR_VECS_3 (0:4) BIT (72) DALIGNED STATIC;
      102     6094
      103     6095    1   DCL 1 CHAR_FMT_3 STATIC,
      104     6096    1         2 L1 CHAR (0) INIT ('%23-Max hits '),
      105     6097    1         2 L2 (0:4) CHAR (5) INIT ('%5D%Q'*0);
      106     6098
      107     6099    1   DCL 1 STATISTICS_HEADER_FORMAT CONSTANT,
      108     6100    1         2 P1 CHAR (0) INIT ('%/  Mean%11-Std dev.%22-Minimum%32-Maximum'),
      109     6101    1         2 P2 CHAR (0) INIT ('%45-Item or expression  %/'),
      110     6102    1         2 P3 CHAR (0) INIT ('--------%11---------%22--------%32--------'),
      111     6103    1         2 P4 CHAR (0) INIT ('%45-------------------   %/');
      112     6104
      113     6105    1   DCL STATISTICS_FORMAT CHAR (0) CONSTANT INIT
      114     6106    1      ('%6D.%1D%11-%6D.%1D%21-%8D%31-%8D%45-%A  ');
      115     6107
      116     6108        %EJECT;
PL6.E3A0      #001=PSR$RESULTS File=PSR$RESULTS.:E05TSI                          WED 07/30/97 04:37 Page:28
      117     6109    1   SETUP_HEADER: PROC (NODE, SUBSCR);

   6109 13 000003   200034 741300       SETUP_HEADER STX1  ! GRAPH+2,,AUTO

      118     6110
      119     6111    2   DCL NODE UBIN;
      120     6112    2   DCL SUBSCR UBIN;
      121     6113
      122     6114    2      CALL PSR$IDENT (NODE, AXIS_TITLE(SUBSCR),

   6114 13 000004   200036 470500                    LDP0    @SUBSCR,,AUTO
        13 000005   000000 236100                    LDQ     0,,PR0
        13 000006   000005 402007                    MPY     5,DL
        13 000007   000000 235100                    LDA     0,,PR0
        13 000010   000002 735000                    ALS     2
        13 000011   000000 620005                    EAX0    0,AL
        13 000012   000000 622006                    EAX2    0,QL
        13 000013   000044 733000                    LRS     36
        13 000014   000023 736000                    QLS     19
        13 000015   000000 036000 14                 ADLQ    0
        13 000016   200061 756100                    STQ     ITERATIONS+7,,AUTO
        13 000017   000000 636010                    EAQ     0,X0
        13 000020   000001 736000                    QLS     1
        13 000021   000001 036000 14                 ADLQ    1
        13 000022   200060 756100                    STQ     ITERATIONS+6,,AUTO
        13 000023   000000 636010                    EAQ     0,X0
        13 000024   000001 736000                    QLS     1
        13 000025   000002 036000 14                 ADLQ    2
        13 000026   200057 756100                    STQ     ITERATIONS+5,,AUTO
        13 000027   000000 636010                    EAQ     0,X0
        13 000030   000001 736000                    QLS     1
        13 000031   000003 036000 14                 ADLQ    3
        13 000032   200056 756100                    STQ     ITERATIONS+4,,AUTO
        13 000033   000000 636012                    EAQ     0,X2
        13 000034   000001 736000                    QLS     1
        13 000035   000004 036000 14                 ADLQ    4
        13 000036   200035 235100                    LDA     @NODE,,AUTO
PL6.E3A0      #001=PSR$RESULTS File=PSR$RESULTS.:E05TSI                          WED 07/30/97 04:37 Page:29
        13 000037   200054 757100                    STAQ    ITERATIONS+2,,AUTO
        13 000040   200054 630500                    EPPR0   ITERATIONS+2,,AUTO
        13 000041   000024 631400 xsym               EPPR1   B_VECTNIL+20
        13 000042   000000 701000 xent               TSX1    PSR$IDENT
        13 000043   000000 011000                    NOP     0

      123     6115    2       PLOT_HEAD_VECS.T.TITLE_(SUBSCR),
      124     6116    2       PLOT_HEAD_VECS.T.SCALE_(SUBSCR),
      125     6117    2       PLOT_HEAD_VECS.T.LOW_(SUBSCR),
      126     6118    2       PLOT_HEAD_VECS.T.HIGH_(SUBSCR));
      127     6119
      128     6120    2   END SETUP_HEADER;

   6120 13 000044   200034 221300                    LDX1  ! GRAPH+2,,AUTO
        13 000045   000001 702211                    TSX2  ! 1,X1

      129     6121        %EJECT;
PL6.E3A0      #001=PSR$RESULTS File=PSR$RESULTS.:E05TSI                          WED 07/30/97 04:37 Page:30
      130     6122    1   PRINT_STATISTICS_HEADER: PROC;

   6122 13 000046   200034 741300       PRINT_STATI* STX1  ! GRAPH+2,,AUTO

      131     6123
      132     6124    2      CALL X$WRITE (PS_FDS, VECTOR(STATISTICS_HEADER_FORMAT));

   6124 13 000047   000010 630400 14                 EPPR0   8
        13 000050   000020 631400 xsym               EPPR1   B_VECTNIL+16
        13 000051   000000 701000 xent               TSX1    X$WRITE
        13 000052   000000 011000                    NOP     0

      133     6125
      134     6126    2      RETURN;

   6126 13 000053   200034 221300                    LDX1  ! GRAPH+2,,AUTO
        13 000054   000001 702211                    TSX2  ! 1,X1

      135     6127
      136     6128    2   END PRINT_STATISTICS_HEADER;
      137     6129        %EJECT;
PL6.E3A0      #001=PSR$RESULTS File=PSR$RESULTS.:E05TSI                          WED 07/30/97 04:37 Page:31
      138     6130    1   PRINT_STATISTICS: PROC (ITEM);

   6130 13 000055   200034 741300       PRINT_STATI* STX1  ! GRAPH+2,,AUTO

      139     6131
      140     6132    2   DCL I UBIN;
      141     6133    2   DCL ITEM UBIN;
      142     6134    2   DCL SIGMA_X SBIN;
      143     6135    2   DCL SIGMA_X_SQUARED SBIN;
      144     6136    2   DCL MEAN_TIMES_TEN SBIN;
      145     6137    2   DCL ABS_MEAN_TIMES_TEN SBIN;
      146     6138    2   DCL STDDEV_TIMES_TEN SBIN;
      147     6139    2   DCL STDDEV_SQ_100 UBIN;
      148     6140
      149     6141    2      SIGMA_X = PS_STATS.SIGMA_X(ITEM);

   6141 13 000056   200035 470500                    LDP0    @ITEM,,AUTO
        13 000057   000000 236100                    LDQ     0,,PR0
        13 000060   000014 402007                    MPY     12,DL
        13 000061   000000 471400 xsym               LDP1    PS_STATS$
        13 000062   100000 235106                    LDA     0,QL,PR1
        13 000063   200037 755100                    STA     SIGMA_X,,AUTO

      150     6142    2      SIGMA_X_SQUARED = PS_STATS.SIGMA_X_SQUARED (ITEM);

   6142 13 000064   100001 235106                    LDA     1,QL,PR1
        13 000065   200040 755100                    STA     SIGMA_X_SQUARED,,AUTO

      151     6143    2      MINVAL = PS_STATS.MIN (ITEM);

   6143 13 000066   100002 235106                    LDA     2,QL,PR1
        13 000067   000125 755000 11                 STA     MINVAL

      152     6144    2      MAXVAL = PS_STATS.MAX (ITEM);

   6144 13 000070   000000 236100                    LDQ     0,,PR0
        13 000071   000014 402007                    MPY     12,DL
PL6.E3A0      #001=PSR$RESULTS File=PSR$RESULTS.:E05TSI                          WED 07/30/97 04:37 Page:32
        13 000072   100003 235106                    LDA     3,QL,PR1
        13 000073   000126 755000 11                 STA     MAXVAL

      153     6145
      154     6146    2      CALL PSR$UN_RPN (PS_STATS.RPN$(ITEM) -> BASED_RPN, STATISTICS_TITLE, I);

   6146 13 000074   000000 236100                    LDQ     0,,PR0
        13 000075   000014 402007                    MPY     12,DL
        13 000076   100013 473506                    LDP3    11,QL,PR1
        13 000077   200036 634500                    EPPR4   I,,AUTO
        13 000100   200056 454500                    STP4    ITERATIONS+4,,AUTO
        13 000101   000012 236000 14                 LDQ     10
        13 000102   200055 756100                    STQ     ITERATIONS+3,,AUTO
        13 000103   200054 453500                    STP3    ITERATIONS+2,,AUTO
        13 000104   200054 630500                    EPPR0   ITERATIONS+2,,AUTO
        13 000105   000021 631400 xsym               EPPR1   B_VECTNIL+17
        13 000106   000000 701000 xent               TSX1    PSR$UN_RPN
        13 000107   000000 011000                    NOP     0

      155     6147
      156     6148    2      MEAN_TIMES_TEN = (SIGMA_X * 10 + (PS_STATS_HITS / 2)) /

   6148 13 000110   000000 236000 xsym               LDQ     PS_STATS_HITS
        13 000111   000002 506007                    DIV     2,DL
        13 000112   200054 756100                    STQ     ITERATIONS+2,,AUTO
        13 000113   200037 236100                    LDQ     SIGMA_X,,AUTO
        13 000114   000012 402007                    MPY     10,DL
        13 000115   200054 036100                    ADLQ    ITERATIONS+2,,AUTO
        13 000116   000000 506000 xsym               DIV     PS_STATS_HITS
        13 000117   200041 756100                    STQ     MEAN_TIMES_TEN,,AUTO

      157     6149    2       PS_STATS_HITS;
      158     6150
      159     6151    2      IF MEAN_TIMES_TEN >= 0

   6151 13 000120   000000 116003                    CMPQ    0,DU
        13 000121   000124 604000 13                 TMI     s:6155
PL6.E3A0      #001=PSR$RESULTS File=PSR$RESULTS.:E05TSI                          WED 07/30/97 04:37 Page:33

      160     6152    2        THEN
      161     6153    2         ABS_MEAN_TIMES_TEN = MEAN_TIMES_TEN;

   6153 13 000122   200042 756100                    STQ     ABS_MEAN_TIMES_TEN,,AUTO
        13 000123   000126 710000 13                 TRA     s:6157

      162     6154    2        ELSE
      163     6155    2         ABS_MEAN_TIMES_TEN = - MEAN_TIMES_TEN;

   6155 13 000124   200041 335100                    LCA     MEAN_TIMES_TEN,,AUTO
        13 000125   200042 755100                    STA     ABS_MEAN_TIMES_TEN,,AUTO

      164     6156
      165     6157    2      MEAN.FRAC = MOD (ABS_MEAN_TIMES_TEN, 10);

   6157 13 000126   200042 236100                    LDQ     ABS_MEAN_TIMES_TEN,,AUTO
        13 000127   000012 506007                    DIV     10,DL
        13 000130   000122 755000 11                 STA     MEAN+1

      166     6158    2      MEAN.INT = ABS_MEAN_TIMES_TEN / 10;

   6158 13 000131   200042 236100                    LDQ     ABS_MEAN_TIMES_TEN,,AUTO
        13 000132   000012 506007                    DIV     10,DL
        13 000133   000121 756000 11                 STQ     MEAN

      167     6159
      168     6160    2      IF MEAN_TIMES_TEN < 0

   6160 13 000134   200041 235100                    LDA     MEAN_TIMES_TEN,,AUTO
        13 000135   000140 605000 13                 TPL     s:6164

      169     6161    2        THEN
      170     6162    2         MEAN.INT = -MEAN.INT;

   6162 13 000136   000121 335000 11                 LCA     MEAN
        13 000137   000121 755000 11                 STA     MEAN
PL6.E3A0      #001=PSR$RESULTS File=PSR$RESULTS.:E05TSI                          WED 07/30/97 04:37 Page:34

      171     6163
      172     6164    2      IF PS_STATS_HITS = 1

   6164 13 000140   000000 235000 xsym               LDA     PS_STATS_HITS
        13 000141   000001 115007                    CMPA    1,DL
        13 000142   000146 601000 13                 TNZ     s:6174

      173     6165    3        THEN DO;

      174     6166
      175     6167    3         STDDEV.INT = 0;

   6167 13 000143   000123 450000 11                 STZ     STDDEV

      176     6168    3         STDDEV.FRAC = 0;

   6168 13 000144   000124 450000 11                 STZ     STDDEV+1

      177     6169
      178     6170    3         END;

   6170 13 000145   000203 710000 13                 TRA     s:6186

      179     6171
      180     6172    3        ELSE DO;

      181     6173
      182     6174    3         STDDEV_SQ_100 = ((SIGMA_X_SQUARED * 100) +

   6174 13 000146   000000 236000 xsym               LDQ     PS_STATS_HITS
        13 000147   200041 402100                    MPY     MEAN_TIMES_TEN,,AUTO
        13 000150   200041 402100                    MPY     MEAN_TIMES_TEN,,AUTO
        13 000151   200054 756100                    STQ     ITERATIONS+2,,AUTO
        13 000152   200040 236100                    LDQ     SIGMA_X_SQUARED,,AUTO
        13 000153   000144 402007                    MPY     100,DL
        13 000154   200054 036100                    ADLQ    ITERATIONS+2,,AUTO
PL6.E3A0      #001=PSR$RESULTS File=PSR$RESULTS.:E05TSI                          WED 07/30/97 04:37 Page:35
        13 000155   200055 756100                    STQ     ITERATIONS+3,,AUTO
        13 000156   200041 236100                    LDQ     MEAN_TIMES_TEN,,AUTO
        13 000157   200037 402100                    MPY     SIGMA_X,,AUTO
        13 000160   000013 402000 14                 MPY     11
        13 000161   200055 036100                    ADLQ    ITERATIONS+3,,AUTO
        13 000162   000000 235000 xsym               LDA     PS_STATS_HITS
        13 000163   000001 135007                    SBLA    1,DL
        13 000164   200056 755100                    STA     ITERATIONS+4,,AUTO
        13 000165   200056 506100                    DIV     ITERATIONS+4,,AUTO
        13 000166   200044 756100                    STQ     STDDEV_SQ_100,,AUTO

      183     6175    3          (PS_STATS_HITS * MEAN_TIMES_TEN * MEAN_TIMES_TEN) -
      184     6176    3          (2 * 10 * MEAN_TIMES_TEN * SIGMA_X)) /
      185     6177    3          (PS_STATS_HITS - 1);
      186     6178
      187     6179    3         CALL SQRT (STDDEV_SQ_100, STDDEV_TIMES_TEN);

   6179 13 000167   200043 630500                    EPPR0   STDDEV_TIMES_TEN,,AUTO
        13 000170   200050 450500                    STP0    @N_SQUARED+1,,AUTO
        13 000171   200044 631500                    EPPR1   STDDEV_SQ_100,,AUTO
        13 000172   200047 451500                    STP1    STDDEV_SQ_100+3,,AUTO
        13 000173   000226 701000 13                 TSX1    SQRT
        13 000174   000000 011000                    NOP     0

      188     6180
      189     6181    3         STDDEV.INT = STDDEV_TIMES_TEN / 10;

   6181 13 000175   200043 236100                    LDQ     STDDEV_TIMES_TEN,,AUTO
        13 000176   000012 506007                    DIV     10,DL
        13 000177   000123 756000 11                 STQ     STDDEV

      190     6182    3         STDDEV.FRAC = MOD (STDDEV_TIMES_TEN, 10);

   6182 13 000200   200043 236100                    LDQ     STDDEV_TIMES_TEN,,AUTO
        13 000201   000012 506007                    DIV     10,DL
        13 000202   000124 755000 11                 STA     STDDEV+1

PL6.E3A0      #001=PSR$RESULTS File=PSR$RESULTS.:E05TSI                          WED 07/30/97 04:37 Page:36
      191     6183
      192     6184    3         END;

      193     6185
      194     6186    2      CALL X$WRITE (PS_FDS, VECTOR(STATISTICS_FORMAT),

   6186 13 000203   000030 630400 14                 EPPR0   24
        13 000204   000025 631400 xsym               EPPR1   B_VECTNIL+21
        13 000205   000000 701000 xent               TSX1    X$WRITE
        13 000206   000000 011000                    NOP     0

      195     6187    2       VECTOR(MEAN), VECTOR(STDDEV), VECTOR(MINVAL), VECTOR(MAXVAL),
      196     6188    2       VECTOR(STATISTICS_TITLE));
      197     6189
      198     6190    2      RETURN;

   6190 13 000207   200034 221300                    LDX1  ! GRAPH+2,,AUTO
        13 000210   000001 702211                    TSX2  ! 1,X1

      199     6191
      200     6192    2   END PRINT_STATISTICS;
      201     6193        %EJECT;
PL6.E3A0      #001=PSR$RESULTS File=PSR$RESULTS.:E05TSI                          WED 07/30/97 04:37 Page:37
      202     6194    1   PRINT_HISTOGRAM: PROC (ITEM);

   6194 13 000211   200034 741300       PRINT_HISTO* STX1  ! GRAPH+2,,AUTO

      203     6195
      204     6196    2   DCL ITEM UBIN;
      205     6197
      206     6198    2      CALL PSD$HIST_BUCKET (PS_STATS.BUCKET$(ITEM) -> BASED_BUCKET);

   6198 13 000212   200035 470500                    LDP0    @ITEM,,AUTO
        13 000213   000000 236100                    LDQ     0,,PR0
        13 000214   000014 402007                    MPY     12,DL
        13 000215   000000 471400 xsym               LDP1    PS_STATS$
        13 000216   100012 473506                    LDP3    10,QL,PR1
        13 000217   200054 453500                    STP3    ITERATIONS+2,,AUTO
        13 000220   200054 630500                    EPPR0   ITERATIONS+2,,AUTO
        13 000221   000017 631400 xsym               EPPR1   B_VECTNIL+15
        13 000222   000000 701000 xent               TSX1    PSD$HIST_BUCKET
        13 000223   000000 011000                    NOP     0

      207     6199
      208     6200    2      RETURN;

   6200 13 000224   200034 221300                    LDX1  ! GRAPH+2,,AUTO
        13 000225   000001 702211                    TSX2  ! 1,X1

      209     6201
      210     6202    2   END PRINT_HISTOGRAM;
      211     6203        %EJECT;
PL6.E3A0      #001=PSR$RESULTS File=PSR$RESULTS.:E05TSI                          WED 07/30/97 04:37 Page:38
      212     6204    1   SQRT: PROC (N_SQUARED, N);

   6204 13 000226   200046 741300       SQRT         STX1  ! STDDEV_SQ_100+2,,AUTO

      213     6205
      214     6206    2   DCL N_SQUARED SBIN;
      215     6207    2   DCL N SBIN;
      216     6208    2   DCL PREVIOUS_N UBIN;
      217     6209    2   DCL ITERATIONS UBIN;
      218     6210
      219     6211    2      N = N_SQUARED;

   6211 13 000227   200047 470500                    LDP0    @N_SQUARED,,AUTO
        13 000230   200050 471500                    LDP1    @N,,AUTO
        13 000231   000000 235100                    LDA     0,,PR0
        13 000232   100000 755100                    STA     0,,PR1

      220     6212    2      PREVIOUS_N = 0;

   6212 13 000233   200051 450100                    STZ     PREVIOUS_N,,AUTO

      221     6213    2      ITERATIONS = 0;

   6213 13 000234   200052 450100                    STZ     ITERATIONS,,AUTO

      222     6214
      223     6215    3      DO WHILE (ITERATIONS < 20 AND N ~= PREVIOUS_N);

   6215 13 000235   000252 710000 13                 TRA     s:6223

      224     6216
      225     6217    3         PREVIOUS_N = N;

   6217 13 000236   200050 470500                    LDP0    @N,,AUTO
        13 000237   000000 235100                    LDA     0,,PR0
        13 000240   200051 755100                    STA     PREVIOUS_N,,AUTO

PL6.E3A0      #001=PSR$RESULTS File=PSR$RESULTS.:E05TSI                          WED 07/30/97 04:37 Page:39
      226     6218
      227     6219    3         N = (N + (N_SQUARED / N)) / 2;

   6219 13 000241   200047 471500                    LDP1    @N_SQUARED,,AUTO
        13 000242   100000 236100                    LDQ     0,,PR1
        13 000243   000000 506100                    DIV     0,,PR0
        13 000244   000000 036100                    ADLQ    0,,PR0
        13 000245   000002 506007                    DIV     2,DL
        13 000246   000000 756100                    STQ     0,,PR0

      228     6220
      229     6221    3         ITERATIONS = ITERATIONS + 1;

   6221 13 000247   200052 235100                    LDA     ITERATIONS,,AUTO
        13 000250   000001 035007                    ADLA    1,DL
        13 000251   200052 755100                    STA     ITERATIONS,,AUTO

      230     6222
      231     6223    3         END;

   6223 13 000252   200052 235100                    LDA     ITERATIONS,,AUTO
        13 000253   000024 115007                    CMPA    20,DL
        13 000254   000262 603000 13                 TRC     s:6225
        13 000255   200050 470500                    LDP0    @N,,AUTO
        13 000256   000000 236100                    LDQ     0,,PR0
        13 000257   000236 604000 13                 TMI     s:6217
        13 000260   200051 116100                    CMPQ    PREVIOUS_N,,AUTO
        13 000261   000236 601000 13                 TNZ     s:6217

      232     6224
      233     6225    2      RETURN;

   6225 13 000262   200046 221300                    LDX1  ! STDDEV_SQ_100+2,,AUTO
        13 000263   000001 702211                    TSX2  ! 1,X1

      234     6226
      235     6227    2   END SQRT;
PL6.E3A0      #001=PSR$RESULTS File=PSR$RESULTS.:E05TSI                          WED 07/30/97 04:37 Page:40
      236     6228        %EJECT;
PL6.E3A0      #001=PSR$RESULTS File=PSR$RESULTS.:E05TSI                          WED 07/30/97 04:37 Page:41
      237     6229    1   PRINT_TRAILER: PROC (NODE);

   6229 13 000264   200034 741300       PRINT_TRAIL* STX1  ! GRAPH+2,,AUTO

      238     6230
      239     6231    2   DCL NODE UBIN;
      240     6232    2   DCL I UBIN;
      241     6233    2   DCL J UBIN;
      242     6234    2   DCL VALUE UBIN;
      243     6235    2   DCL K UBIN;
      244     6236
      245     6237    3      DO I = 0 TO 10;

   6237 13 000265   200036 450100                    STZ     I,,AUTO

      246     6238
      247     6239    3         IF MOD (I, 2) = 0

   6239 13 000266   200036 236100                    LDQ     I,,AUTO
        13 000267   000001 376007                    ANQ     1,DL
        13 000270   000276 601000 13                 TNZ     s:6243

      248     6240    3           THEN
      249     6241    3            J = I/2 + 5;

   6241 13 000271   200036 236100                    LDQ     I,,AUTO
        13 000272   000001 772000                    QRL     1
        13 000273   000005 036007                    ADLQ    5,DL
        13 000274   200037 756100                    STQ     J,,AUTO
        13 000275   000301 710000 13                 TRA     s:6245

      250     6242    3           ELSE
      251     6243    3            J = I/2;

   6243 13 000276   200036 236100                    LDQ     I,,AUTO
        13 000277   000001 772000                    QRL     1
        13 000300   200037 756100                    STQ     J,,AUTO
PL6.E3A0      #001=PSR$RESULTS File=PSR$RESULTS.:E05TSI                          WED 07/30/97 04:37 Page:42

      252     6244
      253     6245    3         IF I = 10

   6245 13 000301   200036 235100                    LDA     I,,AUTO
        13 000302   000012 115007                    CMPA    10,DL
        13 000303   000307 601000 13                 TNZ     s:6249

      254     6246    3           THEN
      255     6247    3            K = 38;

   6247 13 000304   000046 235007                    LDA     38,DL
        13 000305   200041 755100                    STA     K,,AUTO
        13 000306   000316 710000 13                 TRA     s:6255

      256     6248    3           ELSE
      257     6249    3            IF I = 0

   6249 13 000307   000000 115003                    CMPA    0,DU
        13 000310   000313 601000 13                 TNZ     s:6253

      258     6250    3              THEN
      259     6251    3               K = 0;

   6251 13 000311   200041 450100                    STZ     K,,AUTO
        13 000312   000316 710000 13                 TRA     s:6255

      260     6252    3              ELSE
      261     6253    3               K = I * 4 - 1;

   6253 13 000313   000002 735000                    ALS     2
        13 000314   000001 135007                    SBLA    1,DL
        13 000315   200041 755100                    STA     K,,AUTO

      262     6254
      263     6255    3         VALUE = PS_STATS.PLOT$(NODE) -> PS_PLOT_VALUES(K);

PL6.E3A0      #001=PSR$RESULTS File=PSR$RESULTS.:E05TSI                          WED 07/30/97 04:37 Page:43
   6255 13 000316   200035 470500                    LDP0    @NODE,,AUTO
        13 000317   000000 236100                    LDQ     0,,PR0
        13 000320   000014 402007                    MPY     12,DL
        13 000321   000000 471400 xsym               LDP1    PS_STATS$
        13 000322   100011 473506                    LDP3    9,QL,PR1
        13 000323   200041 720100                    LXL0    K,,AUTO
        13 000324   300000 235110                    LDA     0,X0,PR3
        13 000325   200040 755100                    STA     VALUE,,AUTO

      264     6256
      265     6257    3         X_AXIS_CONTROL.VALUE(J) = VALUE;

   6257 13 000326   200037 235100                    LDA     J,,AUTO
        13 000327   000001 735000                    ALS     1
        13 000330   200040 236100                    LDQ     VALUE,,AUTO
        13 000331   000036 756005 11                 STQ     X_AXIS_CONTROL+1,AL

      266     6258
      267     6259    3         X_AXIS_CONTROL.DIGITS(J) = 4;

   6259 13 000332   000004 236007                    LDQ     4,DL
        13 000333   000035 756005 11                 STQ     X_AXIS_CONTROL,AL

      268     6260
      269     6261    4         DO WHILE (VALUE >= 100 AND X_AXIS_CONTROL.DIGITS(J) < 6);

   6261 13 000334   000347 710000 13                 TRA     s:6265

      270     6262
      271     6263    4            X_AXIS_CONTROL.DIGITS(J) = X_AXIS_CONTROL.DIGITS(J) + 1;

   6263 13 000335   200037 235100                    LDA     J,,AUTO
        13 000336   000001 735000                    ALS     1
        13 000337   000000 620005                    EAX0    0,AL
        13 000340   000035 235005 11                 LDA     X_AXIS_CONTROL,AL
        13 000341   000001 035007                    ADLA    1,DL
        13 000342   000035 755010 11                 STA     X_AXIS_CONTROL,X0
PL6.E3A0      #001=PSR$RESULTS File=PSR$RESULTS.:E05TSI                          WED 07/30/97 04:37 Page:44

      272     6264    4            VALUE = VALUE / 100;

   6264 13 000343   200040 236100                    LDQ     VALUE,,AUTO
        13 000344   000001 772000                    QRL     1
        13 000345   000062 506007                    DIV     50,DL
        13 000346   200040 756100                    STQ     VALUE,,AUTO

      273     6265    4            END;

   6265 13 000347   200040 235100                    LDA     VALUE,,AUTO
        13 000350   000144 115007                    CMPA    100,DL
        13 000351   000357 602000 13                 TNC     s:6267
        13 000352   200037 236100                    LDQ     J,,AUTO
        13 000353   000001 736000                    QLS     1
        13 000354   000035 235006 11                 LDA     X_AXIS_CONTROL,QL
        13 000355   000006 115007                    CMPA    6,DL
        13 000356   000335 602000 13                 TNC     s:6263

      274     6266
      275     6267    3         END;

   6267 13 000357   200036 235100                    LDA     I,,AUTO
        13 000360   000001 035007                    ADLA    1,DL
        13 000361   200036 755100                    STA     I,,AUTO
        13 000362   000013 115007                    CMPA    11,DL
        13 000363   000266 602000 13                 TNC     s:6239

      276     6268
      277     6269    2      X_AXIS_CONTROL.DIGITS(0) = X_AXIS_CONTROL.DIGITS(0) - 1;

   6269 13 000364   000035 236000 11                 LDQ     X_AXIS_CONTROL
        13 000365   000001 136007                    SBLQ    1,DL
        13 000366   000035 756000 11                 STQ     X_AXIS_CONTROL

      278     6270
      279     6271    2      CALL X$WRITE (PS_FDS, VECTOR(PLOT_TRAILER_FMT),
PL6.E3A0      #001=PSR$RESULTS File=PSR$RESULTS.:E05TSI                          WED 07/30/97 04:37 Page:45

   6271 13 000367   000044 630400 14                 EPPR0   36
        13 000370   000021 631400 xsym               EPPR1   B_VECTNIL+17
        13 000371   000000 701000 xent               TSX1    X$WRITE
        13 000372   000000 011000                    NOP     0

      280     6272    2       VECTOR(X_AXIS_CONTROL));
      281     6273
      282     6274    2      RETURN;

   6274 13 000373   200034 221300                    LDX1  ! GRAPH+2,,AUTO
        13 000374   000001 702211                    TSX2  ! 1,X1

      283     6275
      284     6276    2   END PRINT_TRAILER;
      285     6277        %EJECT;
PL6.E3A0      #001=PSR$RESULTS File=PSR$RESULTS.:E05TSI                          WED 07/30/97 04:37 Page:46
      286     6278    1   WRITE_FORMAT_1: PROC;

   6278 13 000375   200034 741300       WRITE_FORMA* STX1  ! GRAPH+2,,AUTO

      287     6279
      288     6280    2      CALL X$WRITE (PS_FDS, VECTOR(PLOT_FMT_1),

   6280 13 000376   000062 630400 14                 EPPR0   50
        13 000377   000024 631400 xsym               EPPR1   B_VECTNIL+20
        13 000400   000000 701000 xent               TSX1    X$WRITE
        13 000401   000000 011000                    NOP     0

      289     6281    2       VECTOR(UPPER), VECTOR(COMMENT), VECTOR(LINE_1), VECTOR(LINE_2));
      290     6282
      291     6283    2      RETURN;

   6283 13 000402   200034 221300                    LDX1  ! GRAPH+2,,AUTO
        13 000403   000001 702211                    TSX2  ! 1,X1

      292     6284
      293     6285    2   END WRITE_FORMAT_1;
      294     6286
      295     6287
      296     6288
      297     6289    1   WRITE_FORMAT_2: PROC;

   6289 13 000404   200034 741300       WRITE_FORMA* STX1  ! GRAPH+2,,AUTO

      298     6290
      299     6291    2      CALL X$WRITE (PS_FDS, VECTOR(PLOT_FMT_2),

   6291 13 000405   000074 630400 14                 EPPR0   60
        13 000406   000024 631400 xsym               EPPR1   B_VECTNIL+20
        13 000407   000000 701000 xent               TSX1    X$WRITE
        13 000410   000000 011000                    NOP     0

      300     6292    2       VECTOR(LOWER), VECTOR(UPPER), VECTOR(LINE_1), VECTOR(LINE_2));
PL6.E3A0      #001=PSR$RESULTS File=PSR$RESULTS.:E05TSI                          WED 07/30/97 04:37 Page:47
      301     6293
      302     6294    2      RETURN;

   6294 13 000411   200034 221300                    LDX1  ! GRAPH+2,,AUTO
        13 000412   000001 702211                    TSX2  ! 1,X1

      303     6295
      304     6296    2   END WRITE_FORMAT_2;
      305     6297
      306     6298        %EJECT;
PL6.E3A0      #001=PSR$RESULTS File=PSR$RESULTS.:E05TSI                          WED 07/30/97 04:37 Page:48
      307     6299    1      IF PS_STATS_HITS = 0

   6299 13 000413   000000 235000 xsym               LDA     PS_STATS_HITS
        13 000414   000424 601000 13                 TNZ     s:6309

      308     6300    2        THEN DO;

      309     6301
      310     6302    2         IF PS_PMDAT_FOUND THEN

   6302 13 000415   000000 234000 xsym               SZN     PS_PMDAT_FOUND
        13 000416   000423 605000 13                 TPL     s:6305

      311     6303    2            CALL X$WRITE (PS_FDS, VECTOR(RESULT_FMT));

   6303 13 000417   000104 630400 14                 EPPR0   68
        13 000420   000020 631400 xsym               EPPR1   B_VECTNIL+16
        13 000421   000000 701000 xent               TSX1    X$WRITE
        13 000422   000000 011000                    NOP     0

      312     6304
      313     6305    2         RETURN;

   6305 13 000423   000000 702200 xent               TSX2  ! X66_ARET

      314     6306
      315     6307    2         END;
      316     6308
      317     6309    2      DO CASE (PS_MODE);

   6309 13 000424   000000 236000 xsym               LDQ     PS_MODE
        13 000425   000007 116007                    CMPQ    7,DL
        13 000426   000430 602006 13                 TNC     s:6309+4,QL
        13 000427   001133 710000 13                 TRA     s:6523
        13 000430   001133 710000 13                 TRA     s:6523
        13 000431   001133 710000 13                 TRA     s:6523
        13 000432   001133 710000 13                 TRA     s:6523
PL6.E3A0      #001=PSR$RESULTS File=PSR$RESULTS.:E05TSI                          WED 07/30/97 04:37 Page:49
        13 000433   001055 710000 13                 TRA     s:6502
        13 000434   001105 710000 13                 TRA     s:6513
        13 000435   001050 710000 13                 TRA     s:6498
        13 000436   000437 710000 13                 TRA     s:6313

      318     6310
      319     6311    2       CASE (PLOT_MODE#);

      320     6312
      321     6313    3         DO GRAPH = 0 TO PS_GRAPHS - 1;

   6313 13 000437   200032 450100                    STZ     GRAPH,,AUTO
        13 000440   001044 710000 13                 TRA     s:6494+3

      322     6314
      323     6315    4            DO I = 0 TO 4;

   6315 13 000441   200024 450100                    STZ     I,,AUTO

      324     6316
      325     6317    4               PEAK_LIMIT (I) = (I+1) * PS_GRAPH_PEAK(GRAPH) / 5;

   6317 13 000442   200032 720100                    LXL0    GRAPH,,AUTO
        13 000443   200024 236100                    LDQ     I,,AUTO
        13 000444   000001 036007                    ADLQ    1,DL
        13 000445   000000 402010 xsym               MPY     PS_GRAPH_PEAK,X0
        13 000446   000005 506007                    DIV     5,DL
        13 000447   200024 721100                    LXL1    I,,AUTO
        13 000450   200004 756111                    STQ     PEAK_LIMIT,X1,AUTO

      326     6318
      327     6319    4               IF I > 0

   6319 13 000451   200024 235100                    LDA     I,,AUTO
        13 000452   000460 600000 13                 TZE     s:6324
        13 000453   200003 236111                    LDQ     3,X1,AUTO
        13 000454   200004 116111                    CMPQ    PEAK_LIMIT,X1,AUTO
PL6.E3A0      #001=PSR$RESULTS File=PSR$RESULTS.:E05TSI                          WED 07/30/97 04:37 Page:50
        13 000455   000460 602000 13                 TNC     s:6324

      328     6320    4                AND PEAK_LIMIT(I) <= PEAK_LIMIT(I-1)
      329     6321    4                 THEN
      330     6322    4                  PEAK_LIMIT(I) = PEAK_LIMIT(I-1) + 1;

   6322 13 000456   000001 036007                    ADLQ    1,DL
        13 000457   200004 756111                    STQ     PEAK_LIMIT,X1,AUTO

      331     6323
      332     6324    4               END;

   6324 13 000460   000001 035007                    ADLA    1,DL
        13 000461   200024 755100                    STA     I,,AUTO
        13 000462   000005 115007                    CMPA    5,DL
        13 000463   000442 602000 13                 TNC     s:6317

      333     6325
      334     6326    3            CALL SETUP_HEADER (GRAPH*2, 0);

   6326 13 000464   200032 236100                    LDQ     GRAPH,,AUTO
        13 000465   000001 736000                    QLS     1
        13 000466   200062 756100                    STQ     ITERATIONS+8,,AUTO
        13 000467   000106 236000 14                 LDQ     70
        13 000470   200036 756100                    STQ     @NODE+1,,AUTO
        13 000471   200062 630500                    EPPR0   ITERATIONS+8,,AUTO
        13 000472   200035 450500                    STP0    GRAPH+3,,AUTO
        13 000473   000003 701000 13                 TSX1    SETUP_HEADER
        13 000474   000000 011000                    NOP     0

      335     6327    3            CALL SETUP_HEADER (GRAPH*2+1, 1);

   6327 13 000475   200032 235100                    LDA     GRAPH,,AUTO
        13 000476   000001 735000                    ALS     1
        13 000477   000001 035007                    ADLA    1,DL
        13 000500   200063 755100                    STA     ITERATIONS+9,,AUTO
        13 000501   000107 236000 14                 LDQ     71
PL6.E3A0      #001=PSR$RESULTS File=PSR$RESULTS.:E05TSI                          WED 07/30/97 04:37 Page:51
        13 000502   200036 756100                    STQ     @NODE+1,,AUTO
        13 000503   200063 630500                    EPPR0   ITERATIONS+9,,AUTO
        13 000504   200035 450500                    STP0    GRAPH+3,,AUTO
        13 000505   000003 701000 13                 TSX1    SETUP_HEADER
        13 000506   000000 011000                    NOP     0

      336     6328
      337     6329    3            CALL X$WRITE (PS_FDS, VECTOR(PLOT_HEAD_FMT),
      338     6330    3             PLOT_HEAD_VECS.T.TITLE_(0),
      339     6331    3             PLOT_HEAD_VECS.T.SCALE_(0),
      340     6332    3             PLOT_HEAD_VECS.T.LOW_(0),
      341     6333    3             PLOT_HEAD_VECS.T.HIGH_(0),
      342     6334    3             PLOT_HEAD_VECS.T.TITLE_(1),

   6334 13 000507   000113 630400 14                 EPPR0   75
        13 000510   000112 631400 14                 EPPR1   74
        13 000511   000000 701000 xent               TSX1    X$WRITE
        13 000512   000000 011000                    NOP     0

      343     6335    3             PLOT_HEAD_VECS.T.SCALE_(1),
      344     6336    3             PLOT_HEAD_VECS.T.LOW_(1),
      345     6337    3             PLOT_HEAD_VECS.T.HIGH_(1),
      346     6338    3             PLOT_HEAD_VECS.HITS_);
      347     6339
      348     6340    3            CHAR_HIT = %NO#;

   6340 13 000513   000126 236000 14                 LDQ     86
        13 000514   200011 356100                    ANSQ    CHAR_HIT,,AUTO

      349     6341
      350     6342    4            DO Y = 0 TO Y_AXIS_POINTS# - 1;

   6342 13 000515   200027 450100                    STZ     Y,,AUTO
        13 000516   000703 710000 13                 TRA     s:6437+3

      351     6343
      352     6344    4               Y_TEMP = Y_AXIS_POINTS# - Y - 1;
PL6.E3A0      #001=PSR$RESULTS File=PSR$RESULTS.:E05TSI                          WED 07/30/97 04:37 Page:52

   6344 13 000517   000027 235007                    LDA     23,DL
        13 000520   200027 135100                    SBLA    Y,,AUTO
        13 000521   200030 755100                    STA     Y_TEMP,,AUTO

      353     6345
      354     6346    5               DO X = 0 TO X_AXIS_POINTS# - 1;

   6346 13 000522   200026 450100                    STZ     X,,AUTO
        13 000523   000613 710000 13                 TRA     s:6380+2

      355     6347
      356     6348    5                  POINT = PS_GRAPH$(GRAPH) -> PS_GRAPH_POINTS(Y_TEMP *

   6348 13 000524   200030 236100                    LDQ     Y_TEMP,,AUTO
        13 000525   000050 402007                    MPY     40,DL
        13 000526   200026 036100                    ADLQ    X,,AUTO
        13 000527   200032 720100                    LXL0    GRAPH,,AUTO
        13 000530   000000 470410 xsym               LDP0    PS_GRAPH$,X0
        13 000531   000100 101506                    MRL     fill='000'O
        13 000532   000000 000001                    ADSC9   0,Q,PR0                  cn=0,n=1
        13 000533   200031 000004                    ADSC9   POINT,,AUTO              cn=0,n=4

      357     6349    5                   X_AXIS_POINTS# + X);
      358     6350
      359     6351    5                  IF POINT = 0

   6351 13 000534   200031 235100                    LDA     POINT,,AUTO
        13 000535   000546 601000 13                 TNZ     s:6360

      360     6352    6                    THEN DO;

      361     6353
      362     6354    6                     LINE_1(X) = ' ';

   6354 13 000536   200026 236100                    LDQ     X,,AUTO
        13 000537   040006 100400                    MLR     fill='040'O
PL6.E3A0      #001=PSR$RESULTS File=PSR$RESULTS.:E05TSI                          WED 07/30/97 04:37 Page:53
        13 000540   000035 000001 xsym               ADSC9   B_VECTNIL+29             cn=0,n=1
        13 000541   000002 000001 11                 ADSC9   LINE_1,Q                 cn=0,n=1

      363     6355    6                     LINE_2(X) = ' ';

   6355 13 000542   040006 100400                    MLR     fill='040'O
        13 000543   000035 000001 xsym               ADSC9   B_VECTNIL+29             cn=0,n=1
        13 000544   000014 000001 11                 ADSC9   LINE_2,Q                 cn=0,n=1

      364     6356    6                     END;

   6356 13 000545   000611 710000 13                 TRA     s:6380

      365     6357
      366     6358    6                    ELSE DO;

      367     6359
      368     6360    6                     I = 0;

   6360 13 000546   200024 450100                    STZ     I,,AUTO

      369     6361
      370     6362    7                     DO WHILE (I < 4 AND

   6362 13 000547   000553 710000 13                 TRA     s:6366

      371     6363    7                      POINT > PEAK_LIMIT(I));
      372     6364
      373     6365    7                        I = I + 1;

   6365 13 000550   200024 235100                    LDA     I,,AUTO
        13 000551   000001 035007                    ADLA    1,DL
        13 000552   200024 755100                    STA     I,,AUTO

      374     6366    7                        END;

   6366 13 000553   200024 235100                    LDA     I,,AUTO
PL6.E3A0      #001=PSR$RESULTS File=PSR$RESULTS.:E05TSI                          WED 07/30/97 04:37 Page:54
        13 000554   000004 115007                    CMPA    4,DL
        13 000555   000561 603000 13                 TRC     s:6368
        13 000556   200004 236105                    LDQ     PEAK_LIMIT,AL,AUTO
        13 000557   200031 116100                    CMPQ    POINT,,AUTO
        13 000560   000550 602000 13                 TNC     s:6365

      375     6367
      376     6368    6                     LINE_1(X) = SUBSTR(FIRST_CHARS, I, 1);

   6368 13 000561   200024 235100                    LDA     I,,AUTO
        13 000562   200026 236100                    LDQ     X,,AUTO
        13 000563   040006 100405                    MLR     fill='040'O
        13 000564   000000 000001 12                 ADSC9   FIRST_CHARS,A            cn=0,n=1
        13 000565   000002 000001 11                 ADSC9   LINE_1,Q                 cn=0,n=1

      377     6369
      378     6370    6                     IF DCBADDR(DCBNUM(M$LO)) -> F$DCB.ATTR.TRUOVRPRT#

   6370 13 000566   000000 236007 xsym               LDQ     M$LO,DL
        13 000567   000127 470400 14                 LDP0    87
        13 000570   000000 471500                    LDP1    0,,PR0
        13 000571   100000 473506                    LDP3    0,QL,PR1
        13 000572   300040 236100                    LDQ     32,,PR3
        13 000573   000010 316007                    CANQ    8,DL
        13 000574   000602 600000 13                 TZE     s:6374

      379     6371    6                       THEN
      380     6372    6                        LINE_2(X) = SUBSTR(SECOND_CHARS, I, 1);

   6372 13 000575   200026 236100                    LDQ     X,,AUTO
        13 000576   040006 100405                    MLR     fill='040'O
        13 000577   000002 000001 12                 ADSC9   SECOND_CHARS,A           cn=0,n=1
        13 000600   000014 000001 11                 ADSC9   LINE_2,Q                 cn=0,n=1
        13 000601   000606 710000 13                 TRA     s:6376

      381     6373    6                       ELSE
      382     6374    6                        LINE_2(X) = ' ';
PL6.E3A0      #001=PSR$RESULTS File=PSR$RESULTS.:E05TSI                          WED 07/30/97 04:37 Page:55

   6374 13 000602   200026 236100                    LDQ     X,,AUTO
        13 000603   040006 100400                    MLR     fill='040'O
        13 000604   000035 000001 xsym               ADSC9   B_VECTNIL+29             cn=0,n=1
        13 000605   000014 000001 11                 ADSC9   LINE_2,Q                 cn=0,n=1

      383     6375
      384     6376    6                     CHAR_HIT(I) = %YES#;

   6376 13 000606   003105 060400                    CSL     bolr='003'O
        13 000607   000030 000001 xsym               BDSC    B_VECTNIL+24             by=0,bit=0,n=1
        13 000610   200011 000001                    BDSC    CHAR_HIT,A,AUTO          by=0,bit=0,n=1

      385     6377
      386     6378    6                     END;

      387     6379
      388     6380    5                  END /* do X */;

   6380 13 000611   000001 036007                    ADLQ    1,DL
        13 000612   200026 756100                    STQ     X,,AUTO
        13 000613   200026 235100                    LDA     X,,AUTO
        13 000614   000050 115007                    CMPA    40,DL
        13 000615   000524 602000 13                 TNC     s:6348

      389     6381
      390     6382    4               UPPER = PS_STATS.PLOT$(GRAPH*2) -> PS_PLOT_VALUES(Y_TEMP);

   6382 13 000616   200032 236100                    LDQ     GRAPH,,AUTO
        13 000617   000030 402007                    MPY     24,DL
        13 000620   000000 470400 xsym               LDP0    PS_STATS$
        13 000621   000011 471506                    LDP1    9,QL,PR0
        13 000622   200030 720100                    LXL0    Y_TEMP,,AUTO
        13 000623   100000 235110                    LDA     0,X0,PR1
        13 000624   000001 755000 11                 STA     UPPER

      391     6383
PL6.E3A0      #001=PSR$RESULTS File=PSR$RESULTS.:E05TSI                          WED 07/30/97 04:37 Page:56
      392     6384    4               IF Y_TEMP = 0

   6384 13 000625   200030 235100                    LDA     Y_TEMP,,AUTO
        13 000626   000631 601000 13                 TNZ     s:6388

      393     6385    4                 THEN
      394     6386    4                  LOWER = 0;

   6386 13 000627   000000 450000 11                 STZ     LOWER
        13 000630   000635 710000 13                 TRA     s:6391

      395     6387    4                 ELSE
      396     6388    4                  LOWER = PS_STATS.PLOT$(GRAPH*2) -> PS_PLOT_VALUES(Y_TEMP - 1)

   6388 13 000631   000011 471506                    LDP1    9,QL,PR0
        13 000632   177777 235110                    LDA     -1,X0,PR1
        13 000633   000001 035007                    ADLA    1,DL
        13 000634   000000 755000 11                 STA     LOWER

      397     6389    4                   + 1;
      398     6390
      399     6391    4               IF Y = 0

   6391 13 000635   200027 235100                    LDA     Y,,AUTO
        13 000636   000647 601000 13                 TNZ     s:6403

      400     6392    5                 THEN DO;

      401     6393
      402     6394    5                  UPPER = LOWER;

   6394 13 000637   000000 235000 11                 LDA     LOWER
        13 000640   000001 755000 11                 STA     UPPER

      403     6395    5                  COMMENT = 'and above';

   6395 13 000641   040000 100400                    MLR     fill='040'O
PL6.E3A0      #001=PSR$RESULTS File=PSR$RESULTS.:E05TSI                          WED 07/30/97 04:37 Page:57
        13 000642   000274 000011 12                 ADSC9   STATISTICS_FORMAT+10     cn=0,n=9
        13 000643   000026 000013 11                 ADSC9   COMMENT                  cn=0,n=11

      404     6396
      405     6397    5                  CALL WRITE_FORMAT_1;

   6397 13 000644   000375 701000 13                 TSX1    WRITE_FORMAT_1
        13 000645   000000 011000                    NOP     0

      406     6398
      407     6399    5                  END;

   6399 13 000646   000700 710000 13                 TRA     s:6437

      408     6400
      409     6401    5                 ELSE DO;

      410     6402
      411     6403    5                  IF Y_TEMP = 0

   6403 13 000647   200030 235100                    LDA     Y_TEMP,,AUTO
        13 000650   000665 601000 13                 TNZ     s:6418

      412     6404    6                    THEN DO;

      413     6405
      414     6406    6                     IF UPPER > 0

   6406 13 000651   000001 235000 11                 LDA     UPPER
        13 000652   000657 600000 13                 TZE     s:6410

      415     6407    6                       THEN
      416     6408    6                        COMMENT = 'and below';

   6408 13 000653   040000 100400                    MLR     fill='040'O
        13 000654   000277 000011 12                 ADSC9   STATISTICS_FORMAT+13     cn=0,n=9
        13 000655   000026 000013 11                 ADSC9   COMMENT                  cn=0,n=11
PL6.E3A0      #001=PSR$RESULTS File=PSR$RESULTS.:E05TSI                          WED 07/30/97 04:37 Page:58
        13 000656   000662 710000 13                 TRA     s:6412

      417     6409    6                       ELSE
      418     6410    6                        COMMENT = ' ';

   6410 13 000657   040000 100400                    MLR     fill='040'O
        13 000660   000035 000001 xsym               ADSC9   B_VECTNIL+29             cn=0,n=1
        13 000661   000026 000013 11                 ADSC9   COMMENT                  cn=0,n=11

      419     6411
      420     6412    6                     CALL WRITE_FORMAT_1;

   6412 13 000662   000375 701000 13                 TSX1    WRITE_FORMAT_1
        13 000663   000000 011000                    NOP     0

      421     6413
      422     6414    6                     END;

   6414 13 000664   000700 710000 13                 TRA     s:6437

      423     6415
      424     6416    6                    ELSE DO;

      425     6417
      426     6418    6                     IF UPPER = LOWER

   6418 13 000665   000001 236000 11                 LDQ     UPPER
        13 000666   000000 116000 11                 CMPQ    LOWER
        13 000667   000676 601000 13                 TNZ     s:6429

      427     6419    7                       THEN DO;

      428     6420
      429     6421    7                        COMMENT = ' ';

   6421 13 000670   040000 100400                    MLR     fill='040'O
        13 000671   000035 000001 xsym               ADSC9   B_VECTNIL+29             cn=0,n=1
PL6.E3A0      #001=PSR$RESULTS File=PSR$RESULTS.:E05TSI                          WED 07/30/97 04:37 Page:59
        13 000672   000026 000013 11                 ADSC9   COMMENT                  cn=0,n=11

      430     6422
      431     6423    7                        CALL WRITE_FORMAT_1;

   6423 13 000673   000375 701000 13                 TSX1    WRITE_FORMAT_1
        13 000674   000000 011000                    NOP     0

      432     6424
      433     6425    7                        END;

   6425 13 000675   000700 710000 13                 TRA     s:6437

      434     6426
      435     6427    7                       ELSE DO;

      436     6428
      437     6429    7                        CALL WRITE_FORMAT_2;

   6429 13 000676   000404 701000 13                 TSX1    WRITE_FORMAT_2
        13 000677   000000 011000                    NOP     0

      438     6430
      439     6431    7                        END;

      440     6432
      441     6433    6                     END;

      442     6434
      443     6435    5                  END;

      444     6436
      445     6437    4               END /* do Y */;

   6437 13 000700   200027 235100                    LDA     Y,,AUTO
        13 000701   000001 035007                    ADLA    1,DL
        13 000702   200027 755100                    STA     Y,,AUTO
PL6.E3A0      #001=PSR$RESULTS File=PSR$RESULTS.:E05TSI                          WED 07/30/97 04:37 Page:60
        13 000703   200027 235100                    LDA     Y,,AUTO
        13 000704   000030 115007                    CMPA    24,DL
        13 000705   000517 602000 13                 TNC     s:6344

      446     6438
      447     6439    3            CALL PRINT_TRAILER (GRAPH * 2 + 1);

   6439 13 000706   200032 236100                    LDQ     GRAPH,,AUTO
        13 000707   000001 736000                    QLS     1
        13 000710   000001 036007                    ADLQ    1,DL
        13 000711   200064 756100                    STQ     ITERATIONS+10,,AUTO
        13 000712   200064 630500                    EPPR0   ITERATIONS+10,,AUTO
        13 000713   200035 450500                    STP0    GRAPH+3,,AUTO
        13 000714   000264 701000 13                 TSX1    PRINT_TRAILER
        13 000715   000000 011000                    NOP     0

      448     6440
      449     6441    3            FIRST_PRINT = ' ';

   6441 13 000716   040000 100400                    MLR     fill='040'O
        13 000717   000035 000001 xsym               ADSC9   B_VECTNIL+29             cn=0,n=1
        13 000720   000031 000005 11                 ADSC9   FIRST_PRINT              cn=0,n=5

      450     6442    3            SECOND_PRINT = ' ';

   6442 13 000721   040000 100400                    MLR     fill='040'O
        13 000722   000035 000001 xsym               ADSC9   B_VECTNIL+29             cn=0,n=1
        13 000723   000033 000005 11                 ADSC9   SECOND_PRINT             cn=0,n=5

      451     6443
      452     6444    3            J = 0;

   6444 13 000724   200025 450100                    STZ     J,,AUTO

      453     6445
      454     6446    4            DO I = 0 TO 4;

PL6.E3A0      #001=PSR$RESULTS File=PSR$RESULTS.:E05TSI                          WED 07/30/97 04:37 Page:61
   6446 13 000725   200024 450100                    STZ     I,,AUTO

      455     6447
      456     6448    4               CHAR_VECS_2(I) = VECTOR(NIL);

   6448 13 000726   200024 235100                    LDA     I,,AUTO
        13 000727   000001 735000                    ALS     1
        13 000730   000000 620005                    EAX0    0,AL
        13 000731   000130 237000 14                 LDAQ    88
        13 000732   000152 757010 11                 STAQ    CHAR_VECS_2,X0

      457     6449    4               CHAR_VECS_3(I) = VECTOR(NIL);

   6449 13 000733   000130 237000 14                 LDAQ    88
        13 000734   000176 757010 11                 STAQ    CHAR_VECS_3,X0

      458     6450
      459     6451    4               IF CHAR_HIT(I)

   6451 13 000735   200024 235100                    LDA     I,,AUTO
        13 000736   000000 066505                    CMPB    filb='0'B
        13 000737   200011 000001                    BDSC    CHAR_HIT,A,AUTO          by=0,bit=0,n=1
        13 000740   000002 000022 xsym               BDSC    B_VECTNIL+2              by=0,bit=0,n=18
        13 000741   001020 600000 13                 TZE     s:6475

      460     6452    5                 THEN DO;

      461     6453
      462     6454    5                  CALL INSERT (FIRST_PRINT, J, 1, SUBSTR(FIRST_CHARS, I, 1));

   6454 13 000742   200025 236100                    LDQ     J,,AUTO
        13 000743   040006 100405                    MLR     fill='040'O
        13 000744   000000 000001 12                 ADSC9   FIRST_CHARS,A            cn=0,n=1
        13 000745   000031 000001 11                 ADSC9   FIRST_PRINT,Q            cn=0,n=1

      463     6455
      464     6456    5                  IF DCBADDR(DCBNUM(M$LO)) -> F$DCB.ATTR.TRUOVRPRT#
PL6.E3A0      #001=PSR$RESULTS File=PSR$RESULTS.:E05TSI                          WED 07/30/97 04:37 Page:62

   6456 13 000746   000000 236007 xsym               LDQ     M$LO,DL
        13 000747   000127 470400 14                 LDP0    87
        13 000750   000000 471500                    LDP1    0,,PR0
        13 000751   100000 473506                    LDP3    0,QL,PR1
        13 000752   300040 236100                    LDQ     32,,PR3
        13 000753   000010 316007                    CANQ    8,DL
        13 000754   000761 600000 13                 TZE     s:6460

      465     6457    5                    THEN
      466     6458    5                     CALL INSERT (SECOND_PRINT, J, 1, SUBSTR(SECOND_CHARS, I, 1));

   6458 13 000755   200025 236100                    LDQ     J,,AUTO
        13 000756   040006 100405                    MLR     fill='040'O
        13 000757   000002 000001 12                 ADSC9   SECOND_CHARS,A           cn=0,n=1
        13 000760   000033 000001 11                 ADSC9   SECOND_PRINT,Q           cn=0,n=1

      467     6459
      468     6460    5                  UPPER_LIM(J) = PEAK_LIMIT (I);

   6460 13 000761   200025 721100                    LXL1    J,,AUTO
        13 000762   200004 235105                    LDA     PEAK_LIMIT,AL,AUTO
        13 000763   200012 755111                    STA     UPPER_LIM,X1,AUTO

      469     6461
      470     6462    5                  IF I = 0

   6462 13 000764   200024 236100                    LDQ     I,,AUTO
        13 000765   000771 601000 13                 TNZ     s:6466

      471     6463    5                    THEN
      472     6464    5                     LOWER_LIM(J) = 1;

   6464 13 000766   000001 235007                    LDA     1,DL
        13 000767   200017 755111                    STA     LOWER_LIM,X1,AUTO
        13 000770   000774 710000 13                 TRA     s:6468

PL6.E3A0      #001=PSR$RESULTS File=PSR$RESULTS.:E05TSI                          WED 07/30/97 04:37 Page:63
      473     6465    5                    ELSE
      474     6466    5                     LOWER_LIM(J) = PEAK_LIMIT(I-1) + 1;

   6466 13 000771   200003 235106                    LDA     3,QL,AUTO
        13 000772   000001 035007                    ADLA    1,DL
        13 000773   200017 755111                    STA     LOWER_LIM,X1,AUTO

      475     6467
      476     6468    5                  CHAR_VECS_2(J) = VECTOR(LOWER_LIM(J));

   6468 13 000774   200025 236100                    LDQ     J,,AUTO
        13 000775   000001 736000                    QLS     1
        13 000776   777640 235007                    LDA     -96,DL
        13 000777   200054 452500                    STP2    ITERATIONS+2,,AUTO
        13 001000   000000 620006                    EAX0    0,QL
        13 001001   200025 236100                    LDQ     J,,AUTO
        13 001002   000022 736000                    QLS     18
        13 001003   000017 036003                    ADLQ    15,DU
        13 001004   200054 036100                    ADLQ    ITERATIONS+2,,AUTO
        13 001005   000152 757010 11                 STAQ    CHAR_VECS_2,X0

      477     6469    5                  CHAR_VECS_3(J) = VECTOR(UPPER_LIM(J));

   6469 13 001006   777640 235007                    LDA     -96,DL
        13 001007   200054 452500                    STP2    ITERATIONS+2,,AUTO
        13 001010   200025 236100                    LDQ     J,,AUTO
        13 001011   000022 736000                    QLS     18
        13 001012   000012 036003                    ADLQ    10,DU
        13 001013   200054 036100                    ADLQ    ITERATIONS+2,,AUTO
        13 001014   000176 757010 11                 STAQ    CHAR_VECS_3,X0

      478     6470
      479     6471    5                  J = J + 1;

   6471 13 001015   200025 235100                    LDA     J,,AUTO
        13 001016   000001 035007                    ADLA    1,DL
        13 001017   200025 755100                    STA     J,,AUTO
PL6.E3A0      #001=PSR$RESULTS File=PSR$RESULTS.:E05TSI                          WED 07/30/97 04:37 Page:64

      480     6472
      481     6473    5                  END;

      482     6474
      483     6475    4               END;

   6475 13 001020   200024 235100                    LDA     I,,AUTO
        13 001021   000001 035007                    ADLA    1,DL
        13 001022   200024 755100                    STA     I,,AUTO
        13 001023   000005 115007                    CMPA    5,DL
        13 001024   000726 602000 13                 TNC     s:6448

      484     6476
      485     6477    3            CALL X$WRITE (PS_FDS, VECTOR(CHAR_FMT_1),

   6477 13 001025   000140 630400 14                 EPPR0   96
        13 001026   000022 631400 xsym               EPPR1   B_VECTNIL+18
        13 001027   000000 701000 xent               TSX1    X$WRITE
        13 001030   000000 011000                    NOP     0

      486     6478    3             VECTOR(FIRST_PRINT), VECTOR(SECOND_PRINT));
      487     6479
      488     6480    3            CALL X$WRITE (PS_FDS, VECTOR(CHAR_FMT_2),

   6480 13 001031   000146 630400 14                 EPPR0   102
        13 001032   000025 631400 xsym               EPPR1   B_VECTNIL+21
        13 001033   000000 701000 xent               TSX1    X$WRITE
        13 001034   000000 011000                    NOP     0

      489     6481    3             CHAR_VECS_2(0),
      490     6482    3             CHAR_VECS_2(1),
      491     6483    3             CHAR_VECS_2(2),
      492     6484    3             CHAR_VECS_2(3),
      493     6485    3             CHAR_VECS_2(4));
      494     6486
      495     6487    3            CALL X$WRITE (PS_FDS, VECTOR(CHAR_FMT_3),
PL6.E3A0      #001=PSR$RESULTS File=PSR$RESULTS.:E05TSI                          WED 07/30/97 04:37 Page:65

   6487 13 001035   000160 630400 14                 EPPR0   112
        13 001036   000025 631400 xsym               EPPR1   B_VECTNIL+21
        13 001037   000000 701000 xent               TSX1    X$WRITE
        13 001040   000000 011000                    NOP     0

      496     6488    3             CHAR_VECS_3(0),
      497     6489    3             CHAR_VECS_3(1),
      498     6490    3             CHAR_VECS_3(2),
      499     6491    3             CHAR_VECS_3(3),
      500     6492    3             CHAR_VECS_3(4));
      501     6493
      502     6494    3            END;

   6494 13 001041   200032 235100                    LDA     GRAPH,,AUTO
        13 001042   000001 035007                    ADLA    1,DL
        13 001043   200032 755100                    STA     GRAPH,,AUTO
        13 001044   200032 236100                    LDQ     GRAPH,,AUTO
        13 001045   000000 116000 xsym               CMPQ    PS_GRAPHS
        13 001046   000441 602000 13                 TNC     s:6315
        13 001047   001133 710000 13                 TRA     s:6523

      503     6495        %EJECT;
PL6.E3A0      #001=PSR$RESULTS File=PSR$RESULTS.:E05TSI                          WED 07/30/97 04:37 Page:66
      504     6496    2       CASE (BARGRAPH_MODE#);

      505     6497
      506     6498    2         CALL PRINT_TRAILER (0);

   6498 13 001050   000106 236000 14                 LDQ     70
        13 001051   200035 756100                    STQ     GRAPH+3,,AUTO
        13 001052   000264 701000 13                 TSX1    PRINT_TRAILER
        13 001053   000000 011000                    NOP     0
        13 001054   001133 710000 13                 TRA     s:6523

      507     6499
      508     6500    2       CASE (STATISTICS_MODE#);

      509     6501
      510     6502    2         CALL PSD$EJECT (PS_STATS_EXPRESSIONS + 7);

   6502 13 001055   000000 235000 xsym               LDA     PS_STATS_EXPRESSIONS
        13 001056   000007 035007                    ADLA    7,DL
        13 001057   200054 755100                    STA     ITERATIONS+2,,AUTO
        13 001060   200054 630500                    EPPR0   ITERATIONS+2,,AUTO
        13 001061   200055 450500                    STP0    ITERATIONS+3,,AUTO
        13 001062   200055 630500                    EPPR0   ITERATIONS+3,,AUTO
        13 001063   000017 631400 xsym               EPPR1   B_VECTNIL+15
        13 001064   000000 701000 xent               TSX1    PSD$EJECT
        13 001065   000000 011000                    NOP     0

      511     6503    2         CALL PRINT_STATISTICS_HEADER;

   6503 13 001066   000046 701000 13                 TSX1    PRINT_STATISTICS_HEADER
        13 001067   000000 011000                    NOP     0

      512     6504
      513     6505    3         DO I = 0 TO PS_STATS_EXPRESSIONS - 1;

   6505 13 001070   200024 450100                    STZ     I,,AUTO
        13 001071   001101 710000 13                 TRA     s:6509+3
PL6.E3A0      #001=PSR$RESULTS File=PSR$RESULTS.:E05TSI                          WED 07/30/97 04:37 Page:67

      514     6506
      515     6507    3            CALL PRINT_STATISTICS (I);

   6507 13 001072   200024 630500                    EPPR0   I,,AUTO
        13 001073   200035 450500                    STP0    GRAPH+3,,AUTO
        13 001074   000055 701000 13                 TSX1    PRINT_STATISTICS
        13 001075   000000 011000                    NOP     0

      516     6508
      517     6509    3            END;

   6509 13 001076   200024 235100                    LDA     I,,AUTO
        13 001077   000001 035007                    ADLA    1,DL
        13 001100   200024 755100                    STA     I,,AUTO
        13 001101   200024 236100                    LDQ     I,,AUTO
        13 001102   000000 116000 xsym               CMPQ    PS_STATS_EXPRESSIONS
        13 001103   001072 602000 13                 TNC     s:6507
        13 001104   001133 710000 13                 TRA     s:6523

      518     6510
      519     6511    2       CASE (ANALYZE_MODE#);

      520     6512
      521     6513    3         DO I = 0 TO PS_STATS_EXPRESSIONS - 1;

   6513 13 001105   200024 450100                    STZ     I,,AUTO
        13 001106   001130 710000 13                 TRA     s:6520+3

      522     6514
      523     6515    3            CALL PSD$EJECT (30);

   6515 13 001107   000170 630400 14                 EPPR0   120
        13 001110   000017 631400 xsym               EPPR1   B_VECTNIL+15
        13 001111   000000 701000 xent               TSX1    PSD$EJECT
        13 001112   000000 011000                    NOP     0

PL6.E3A0      #001=PSR$RESULTS File=PSR$RESULTS.:E05TSI                          WED 07/30/97 04:37 Page:68
      524     6516    3            CALL PRINT_STATISTICS_HEADER;

   6516 13 001113   000046 701000 13                 TSX1    PRINT_STATISTICS_HEADER
        13 001114   000000 011000                    NOP     0

      525     6517    3            CALL PRINT_STATISTICS (I);

   6517 13 001115   200024 630500                    EPPR0   I,,AUTO
        13 001116   200035 450500                    STP0    GRAPH+3,,AUTO
        13 001117   000055 701000 13                 TSX1    PRINT_STATISTICS
        13 001120   000000 011000                    NOP     0

      526     6518    3            CALL PRINT_HISTOGRAM (I);

   6518 13 001121   200024 630500                    EPPR0   I,,AUTO
        13 001122   200035 450500                    STP0    GRAPH+3,,AUTO
        13 001123   000211 701000 13                 TSX1    PRINT_HISTOGRAM
        13 001124   000000 011000                    NOP     0

      527     6519
      528     6520    3            END;

   6520 13 001125   200024 235100                    LDA     I,,AUTO
        13 001126   000001 035007                    ADLA    1,DL
        13 001127   200024 755100                    STA     I,,AUTO
        13 001130   200024 236100                    LDQ     I,,AUTO
        13 001131   000000 116000 xsym               CMPQ    PS_STATS_EXPRESSIONS
        13 001132   001107 602000 13                 TNC     s:6515

      529     6521    2       END;

      530     6522
      531     6523    1      CALL PSD$SKIP;

   6523 13 001133   000002 631400 xsym               EPPR1   B_VECTNIL+2
        13 001134   000000 701000 xent               TSX1    PSD$SKIP
        13 001135   000000 011000                    NOP     0
PL6.E3A0      #001=PSR$RESULTS File=PSR$RESULTS.:E05TSI                          WED 07/30/97 04:37 Page:69

      532     6524
      533     6525    1      RETURN;

   6525 13 001136   000000 702200 xent               TSX2  ! X66_ARET
      534     6526
      535     6527    1   END PSR$RESULTS;

PL6.E3A0      #001=PSR$RESULTS File=PSR$RESULTS.:E05TSI                          WED 07/30/97 04:37 Page:70
--  Include file information  --

   XUF_ENTRY.:E05TOU  cannot be made into a system file and is referenced.
   CP_6_SUBS.:E05TOU  is referenced.
   CP_6.:E05TOU  cannot be made into a system file and is referenced.
   KL_MACRO_C.:E05TOU  is referenced.
   KL_AFCN_C.:E05TOU  is referenced.
   P_FEP_M.:E05TOU  is referenced.
   K_ID_E.:E05TOU  is referenced.
   XU_FORMAT_C.:E05TOU  is referenced.
   PM_BUCKET_C.:E05TOU  is referenced.
   PS_SUBS_C.:E05TOU  is referenced.
   PS_DATA_R.:E05TOU  cannot be made into a system file and is referenced.
   B$JIT_C.:E05TOU  was found in the system file and is never referenced.
   CP_6_C.:E05TOU  was found in the system file and is referenced.
      No diagnostics issued in procedure PSR$RESULTS.
PL6.E3A0      #001=PSR$RESULTS File=PSR$RESULTS.:E05TSI                          WED 07/30/97 04:37 Page:71

 **** Variables and constants ****

  ****  Section 006 RtLmCm PS_FDS

  ****  Scalars and arrays  ****
OctLoc.c.b A Datatyp(siz) R M Lvl/name                 OctLoc.c.b A Datatyp(siz) R M Lvl/name

     0-0-0/w STRC(1080)  r     1 PS_FDS

  ****  Section 011  Data  PSR$RESULTS

  ****  Scalars and arrays  ****
OctLoc.c.b A Datatyp(siz) R M Lvl/name                 OctLoc.c.b A Datatyp(siz) R M Lvl/name

    63-0-0/c CHAR(40)    r     1 AXIS_TITLE(0:1)
   164-0-0/c STRC(342)   r     1 CHAR_FMT_2               210-0-0/c STRC(342)   r     1 CHAR_FMT_3
   152-0-0/d BIT (72)    r     1 CHAR_VECS_2(0:4)
   176-0-0/d BIT (72)    r     1 CHAR_VECS_3(0:4)
    26-0-0/c CHAR(11)    r     1 COMMENT                   31-0-0/c CHAR(5)     r     1 FIRST_PRINT
     2-0-0/c CHAR        r     1 LINE_1(0:39)              14-0-0/c CHAR        r     1 LINE_2(0:39)
     0-0-0/w UBIN        r     1 LOWER                    126-0-0/w SBIN        r     1 MAXVAL
   121-0-0/w STRC(72)    r     1 MEAN                     125-0-0/w SBIN        r     1 MINVAL
   130-0-0/d STRC(648)   r     1 PLOT_HEAD_VECS            33-0-0/c CHAR(5)     r     1 SECOND_PRINT
   107-0-0/c CHAR(40)    r     1 STATISTICS_TITLE         123-0-0/w STRC(72)    r     1 STDDEV
     1-0-0/w UBIN        r     1 UPPER
    35-0-0/w STRC(72)    r     1 X_AXIS_CONTROL(0:10)

  ****  Section 012 RoData PSR$RESULTS

  ****  Scalars and arrays  ****
OctLoc.c.b A Datatyp(siz) R M Lvl/name                 OctLoc.c.b A Datatyp(siz) R M Lvl/name

   172-0-0/c STRC(738)   r     1 CHAR_FMT_1                 0-0-0/c CHAR(5)     r     1 FIRST_CHARS
    77-0-0/c CHAR(38)    r     1 PLOT_FMT_1               111-0-0/c CHAR(41)    r     1 PLOT_FMT_2
    23-0-0/c STRC(1575)  r     1 PLOT_HEAD_FMT            124-0-0/c STRC(1350)  r     1 PLOT_TRAILER_FMT
     4-0-0/c STRC(531)   r     1 RESULT_FMT                 2-0-0/c CHAR(5)     r     1 SECOND_CHARS
   262-0-0/c CHAR(40)    r     1 STATISTICS_FORMAT
PL6.E3A0      #001=PSR$RESULTS File=PSR$RESULTS.:E05TSI                          WED 07/30/97 04:37 Page:72
   217-0-0/c STRC(1233)  r     1 STATISTICS_HEADER_FORMAT

  ****  Auto variables  ****

  ****  Scalars and arrays  ****
OctLoc.c.b A Datatyp(siz) R M Lvl/name                 OctLoc.c.b A Datatyp(siz) R M Lvl/name

    35-0-0/w PTR         r     1 @ITEM                     35-0-0/w PTR         r     1 @ITEM
    50-0-0/w PTR         r     1 @N                        35-0-0/w PTR         r     1 @NODE
    35-0-0/w PTR         r     1 @NODE                     47-0-0/w PTR         r     1 @N_SQUARED
    36-0-0/w PTR         r     1 @SUBSCR                   42-0-0/w SBIN        r     1 ABS_MEAN_TIMES_TEN
    11-0-0/b BIT         r     1 CHAR_HIT(0:4)
    32-0-0/w UBIN        r     1 GRAPH                     24-0-0/w UBIN        r     1 I
    36-0-0/w UBIN        r     1 I                         36-0-0/w UBIN        r     1 I
    *0-0-0/w UBIN        r     1 ITEM                      *0-0-0/w UBIN        r     1 ITEM
    52-0-0/w UBIN        r     1 ITERATIONS                25-0-0/w UBIN        r     1 J
    37-0-0/w UBIN        r     1 J                         41-0-0/w UBIN        r     1 K
    17-0-0/w UBIN        r     1 LOWER_LIM(0:4)
    41-0-0/w SBIN        r     1 MEAN_TIMES_TEN            *0-0-0/w SBIN        r     1 N
    *0-0-0/w UBIN        r     1 NODE                      *0-0-0/w UBIN        r     1 NODE
    *0-0-0/w SBIN        r     1 N_SQUARED
     4-0-0/w UBIN        r     1 PEAK_LIMIT(0:4)
    31-0-0/w UBIN        r     1 POINT                     51-0-0/w UBIN        r     1 PREVIOUS_N
    37-0-0/w SBIN        r     1 SIGMA_X                   40-0-0/w SBIN        r     1 SIGMA_X_SQUARED
    44-0-0/w UBIN        r     1 STDDEV_SQ_100             43-0-0/w SBIN        r     1 STDDEV_TIMES_TEN
    *0-0-0/w UBIN        r     1 SUBSCR
    12-0-0/w UBIN        r     1 UPPER_LIM(0:4)
    40-0-0/w UBIN        r     1 VALUE                     26-0-0/w UBIN        r     1 X
    27-0-0/w UBIN        r     1 Y                         30-0-0/w UBIN        r     1 Y_TEMP

  ****  SYMREF variables  ****

  ****  Scalars and arrays  ****
OctLoc.c.b A Datatyp(siz) R M Lvl/name                 OctLoc.c.b A Datatyp(siz) R M Lvl/name

     0-0-0/c CHAR(140)   r     1 PS_BUFFER
     0-0-0/w PTR         r     1 PS_GRAPH$(0:9)
PL6.E3A0      #001=PSR$RESULTS File=PSR$RESULTS.:E05TSI                          WED 07/30/97 04:37 Page:73
     0-0-0/w UBIN        r     1 PS_GRAPHS
     0-0-0/w SBIN        r     1 PS_GRAPH_PEAK(0:9)
     0-0-0/w UBIN        r     1 PS_MODE                    0-0-0/b BIT         r     1 PS_PMDAT_FOUND
     0-0-0/w PTR         r     1 PS_STATS$                  0-0-0/w UBIN        r     1 PS_STATS_EXPRESSIONS
     0-0-0/w SBIN        r     1 PS_STATS_HITS

  ****  BASED and DCB variables  ****

  ****  Scalars and arrays  ****
OctLoc.c.b A Datatyp(siz) R M Lvl/name                 OctLoc.c.b A Datatyp(siz) R M Lvl/name

     0-0-0/d STRC(108)   r     1 BASED_BUCKET               0-0-0/w STRC(72)    r     1 BASED_RPN
     0-0-0/d ASTR(3528)  r     1 F$DCB                      0-0-0N  NULL        r     1 M$LO
     0-0-0/c UBIN(9)     r     1 PS_GRAPH_POINTS(0:0)
     0-0-0/w UBIN        r     1 PS_PLOT_VALUES(0:0)
     0-0-0/w STRC(432)   r     1 PS_STATS(0:0)
     0-0-0/c ASTR(9)     r     1 TEXTC


   Procedure PSR$RESULTS requires 607 words for executable code.
   Procedure PSR$RESULTS requires 54 words of local(AUTO) storage.

    No errors detected in file PSR$RESULTS.:E05TSI    .
PL6.E3A0      #001=PSR$RESULTS File=PSR$RESULTS.:E05TSI                          WED 07/30/97 04:37 Page:74
          *** CROSS REFERENCE LISTING ***
**     DENOTES     IDENTIFIER DEFINITION
<<                 IDENTIFIER'S VALUE SET
>>                 IDENTIFIER'S VALUE USED
<>                 IDENTIFIER SET AND/OR USED
--                 IDENTIFIER REFERENCED
PL6.E3A0      #001=PSR$RESULTS File=PSR$RESULTS.:E05TSI                          WED 07/30/97 04:37 Page:75
          MINI XREF LISTING

ABS_MEAN_TIMES_TEN IN PROCEDURE PRINT_STATISTICS
      6137**DCL      6153<<ASSIGN   6155<<ASSIGN   6157>>ASSIGN   6158>>ASSIGN
AXIS_TITLE
      6021**DCL      6114<>CALL
BASED_BUCKET
      5938**DCL      6198<>CALL
BASED_RPN
      5927**DCL      6146<>CALL
CHAR_FMT_1
      6080**DCL      6477--CALL
CHAR_FMT_2
      6088**DCL      6480--CALL
CHAR_FMT_3
      6095**DCL      6487--CALL
CHAR_HIT
      6010**DCL      6340<<ASSIGN   6376<<ASSIGN   6451>>IF
CHAR_VECS_2
      6086**DCL      6448<<ASSIGN   6468<<ASSIGN   6480<>CALL     6480<>CALL     6480<>CALL     6480<>CALL
      6480<>CALL
CHAR_VECS_3
      6093**DCL      6449<<ASSIGN   6469<<ASSIGN   6487<>CALL     6487<>CALL     6487<>CALL     6487<>CALL
      6487<>CALL
COMMENT
      6004**DCL      6280--CALL     6395<<ASSIGN   6408<<ASSIGN   6410<<ASSIGN   6421<<ASSIGN
F$DCB.ACTPOS
      5976**DCL      5976--REDEF
F$DCB.ARS#
      5950**DCL      5950--REDEF
F$DCB.ATTR
      5969**DCL      5970--REDEF
F$DCB.ATTR.TRUOVRPRT#
      5969**DCL      6370>>IF       6456>>IF
PL6.E3A0      #001=PSR$RESULTS File=PSR$RESULTS.:E05TSI                          WED 07/30/97 04:37 Page:76
F$DCB.BORROW
      5984**DCL      5984--REDEF    5984--REDEF    5984--REDEF
F$DCB.DCBNAME.L
      5998**DCL      5998--IMP-SIZ
F$DCB.EOMCHAR#
      5954**DCL      5954--REDEF
F$DCB.FLDID
      5979**DCL      5979--REDEF
F$DCB.FORM$
      5973**DCL      5973--REDEF
F$DCB.FSECT
      5989**DCL      5989--REDEF
F$DCB.FSN#
      5966**DCL      5966--REDEF    5966--REDEF    5967--REDEF
F$DCB.HEADER$
      5972**DCL      5972--REDEF
F$DCB.IXTNSIZE#
      5970**DCL      5970--REDEF
F$DCB.LASTSTA$
      5959**DCL      5959--REDEF
F$DCB.LVL
      5985**DCL      5985--REDEF
F$DCB.NAME#.C
      5960**DCL      5960--REDEF
F$DCB.NOEOF
      5982**DCL      5982--REDEF
F$DCB.NRECS#
      5971**DCL      5971--REDEF
F$DCB.NRECX
      5990**DCL      5990--REDEF
F$DCB.OHDR
      5982**DCL      5982--REDEF
F$DCB.ORG#
      5965**DCL      5965--REDEF
F$DCB.PRECNO
      5988**DCL      5988--REDEF
PL6.E3A0      #001=PSR$RESULTS File=PSR$RESULTS.:E05TSI                          WED 07/30/97 04:37 Page:77
F$DCB.RCSZ
      5994**DCL      5994--REDEF
F$DCB.RES#
      5961**DCL      5961--REDEF
F$DCB.SETX
      5973**DCL      5973--REDEF
F$DCB.TAB$
      5973**DCL      5973--REDEF
F$DCB.TDA
      5987**DCL      5988--REDEF
F$DCB.WSN#
      5961**DCL      5961--REDEF
FIRST_CHARS
      6005**DCL      6368>>ASSIGN   6454>>CALLBLT
FIRST_PRINT
      6007**DCL      6441<<ASSIGN   6454<<CALLBLT  6477--CALL
GRAPH
      6032**DCL      6313<<DOINDEX  6317>>ASSIGN   6326>>CALL     6327>>CALL     6348>>ASSIGN   6382>>ASSIGN
      6388>>ASSIGN   6439>>CALL
I
      6013**DCL      6315<<DOINDEX  6317>>ASSIGN   6317>>ASSIGN   6319>>IF       6319>>IF       6319>>IF
      6322>>ASSIGN   6322>>ASSIGN   6360<<ASSIGN   6362>>DOWHILE  6362>>DOWHILE  6365<<ASSIGN   6365>>ASSIGN
      6368>>ASSIGN   6372>>ASSIGN   6376>>ASSIGN   6446<<DOINDEX  6448>>ASSIGN   6449>>ASSIGN   6451>>IF
      6454>>CALLBLT  6458>>CALLBLT  6460>>ASSIGN   6462>>IF       6466>>ASSIGN   6505<<DOINDEX  6507<>CALL
      6513<<DOINDEX  6517<>CALL     6518<>CALL
I IN PROCEDURE PRINT_STATISTICS
      6132**DCL      6146<>CALL
I IN PROCEDURE PRINT_TRAILER
      6232**DCL      6237<<DOINDEX  6239>>IF       6241>>ASSIGN   6243>>ASSIGN   6245>>IF       6249>>IF
      6253>>ASSIGN
ITEM IN PROCEDURE PRINT_HISTOGRAM
      6196**DCL      6194--PROC     6198>>CALL
ITEM IN PROCEDURE PRINT_STATISTICS
      6133**DCL      6130--PROC     6141>>ASSIGN   6142>>ASSIGN   6143>>ASSIGN   6144>>ASSIGN   6146>>CALL
ITERATIONS IN PROCEDURE SQRT
      6209**DCL      6213<<ASSIGN   6215>>DOWHILE  6221<<ASSIGN   6221>>ASSIGN
PL6.E3A0      #001=PSR$RESULTS File=PSR$RESULTS.:E05TSI                          WED 07/30/97 04:37 Page:78
J
      6014**DCL      6444<<ASSIGN   6454>>CALLBLT  6458>>CALLBLT  6460>>ASSIGN   6464>>ASSIGN   6466>>ASSIGN
      6468>>ASSIGN   6468>>ASSIGN   6469>>ASSIGN   6469>>ASSIGN   6471<<ASSIGN   6471>>ASSIGN
J IN PROCEDURE PRINT_TRAILER
      6233**DCL      6241<<ASSIGN   6243<<ASSIGN   6257>>ASSIGN   6259>>ASSIGN   6261>>DOWHILE  6263>>ASSIGN
      6263>>ASSIGN
K IN PROCEDURE PRINT_TRAILER
      6235**DCL      6247<<ASSIGN   6251<<ASSIGN   6253<<ASSIGN   6255>>ASSIGN
LINE_1
      6002**DCL      6280--CALL     6291--CALL     6354<<ASSIGN   6368<<ASSIGN
LINE_2
      6003**DCL      6280--CALL     6291--CALL     6355<<ASSIGN   6372<<ASSIGN   6374<<ASSIGN
LOWER
      6000**DCL      6291--CALL     6386<<ASSIGN   6388<<ASSIGN   6394>>ASSIGN   6418>>IF
LOWER_LIM
      6012**DCL      6464<<ASSIGN   6466<<ASSIGN   6468--ASSIGN
M$LO
        17**DCL      6370--IF       6456--IF
MAXVAL
      6030**DCL      6144<<ASSIGN   6186--CALL
MEAN
      6023**DCL      6186--CALL
MEAN.FRAC
      6025**DCL      6157<<ASSIGN
MEAN.INT
      6024**DCL      6158<<ASSIGN   6162<<ASSIGN   6162>>ASSIGN
MEAN_TIMES_TEN IN PROCEDURE PRINT_STATISTICS
      6136**DCL      6148<<ASSIGN   6151>>IF       6153>>ASSIGN   6155>>ASSIGN   6160>>IF       6174>>ASSIGN
      6174>>ASSIGN   6174>>ASSIGN
MINVAL
      6029**DCL      6143<<ASSIGN   6186--CALL
N IN PROCEDURE SQRT
      6207**DCL      6204--PROC     6211<<ASSIGN   6215>>DOWHILE  6217>>ASSIGN   6219<<ASSIGN   6219>>ASSIGN
      6219>>ASSIGN
NODE IN PROCEDURE PRINT_TRAILER
      6231**DCL      6229--PROC     6255>>ASSIGN
PL6.E3A0      #001=PSR$RESULTS File=PSR$RESULTS.:E05TSI                          WED 07/30/97 04:37 Page:79
NODE IN PROCEDURE SETUP_HEADER
      6111**DCL      6109--PROC     6114<>CALL
N_SQUARED IN PROCEDURE SQRT
      6206**DCL      6204--PROC     6211>>ASSIGN   6219>>ASSIGN
PEAK_LIMIT
      6009**DCL      6317<<ASSIGN   6319>>IF       6319>>IF       6322<<ASSIGN   6322>>ASSIGN   6362>>DOWHILE
      6460>>ASSIGN   6466>>ASSIGN
PLOT_FMT_1
      6067**DCL      6280--CALL
PLOT_FMT_2
      6070**DCL      6291--CALL
PLOT_HEAD_FMT
      6060**DCL      6334--CALL
PLOT_HEAD_VECS.HITS_
      6058**DCL      6334<>CALL
PLOT_HEAD_VECS.T.HIGH_
      6057**DCL      6114<>CALL     6334<>CALL     6334<>CALL
PLOT_HEAD_VECS.T.LOW_
      6056**DCL      6114<>CALL     6334<>CALL     6334<>CALL
PLOT_HEAD_VECS.T.SCALE_
      6055**DCL      6114<>CALL     6334<>CALL     6334<>CALL
PLOT_HEAD_VECS.T.TITLE_
      6054**DCL      6114<>CALL     6334<>CALL     6334<>CALL
PLOT_TRAILER_FMT
      6073**DCL      6271--CALL
POINT
      6031**DCL      6348<<ASSIGN   6351>>IF       6362>>DOWHILE
PREVIOUS_N IN PROCEDURE SQRT
      6208**DCL      6212<<ASSIGN   6215>>DOWHILE  6217<<ASSIGN
PRINT_HISTOGRAM
      6194**PROC     6518--CALL
PRINT_STATISTICS
      6130**PROC     6507--CALL     6517--CALL
PRINT_STATISTICS_HEADER
      6122**PROC     6503--CALL     6516--CALL
PRINT_TRAILER
PL6.E3A0      #001=PSR$RESULTS File=PSR$RESULTS.:E05TSI                          WED 07/30/97 04:37 Page:80
      6229**PROC     6439--CALL     6498--CALL
PSD$EJECT
      6046**DCL-ENT  6502--CALL     6515--CALL
PSD$HIST_BUCKET
      6044**DCL-ENT  6198--CALL
PSD$SKIP
      6045**DCL-ENT  6523--CALL
PSR$IDENT
      6042**DCL-ENT  6114--CALL
PSR$UN_RPN
      6043**DCL-ENT  6146--CALL
PS_BUFFER
      4840**DCL      4875--DCLINIT  4877--DCLINIT
PS_COLLECT.CALCNT
      4995**DCL      4995--REDEF
PS_COLLECT.USRSRV
      4992**DCL      4993--REDEF
PS_FDS
      4857**DCL      6124<>CALL     6186<>CALL     6271<>CALL     6280<>CALL     6291<>CALL     6303<>CALL
      6334<>CALL     6477<>CALL     6480<>CALL     6487<>CALL
PS_GRAPH$
      5001**DCL      6348>>ASSIGN
PS_GRAPHS
      5002**DCL      6313>>DOINDEX
PS_GRAPH_PEAK
      5003**DCL      6317>>ASSIGN
PS_GRAPH_POINTS
      5003**DCL      6348>>ASSIGN
PS_HLPCGBUF.DSPMSK
      5252**DCL      5258--REDEF
PS_HLPCGBUF.SLCMSK
      5293**DCL      5300--REDEF
PS_MODE
      5007**DCL      6309>>DOCASE
PS_OLD_COLLECT.CALCNT
      4999**DCL      5000--REDEF
PL6.E3A0      #001=PSR$RESULTS File=PSR$RESULTS.:E05TSI                          WED 07/30/97 04:37 Page:81
PS_OLD_COLLECT.USRSRV
      4997**DCL      4997--REDEF
PS_PLOT_VALUES
      5002**DCL      6255>>ASSIGN   6382>>ASSIGN   6388>>ASSIGN
PS_PMDAT_FOUND
      5010**DCL      6302>>IF
PS_STATS.BUCKET$
      5005**DCL      6198>>CALL
PS_STATS.MAX
      5004**DCL      6144>>ASSIGN
PS_STATS.MIN
      5004**DCL      6143>>ASSIGN
PS_STATS.PLOT$
      5004**DCL      6255>>ASSIGN   6382>>ASSIGN   6388>>ASSIGN
PS_STATS.RPN$
      5005**DCL      6146>>CALL
PS_STATS.SIGMA_X
      5003**DCL      6141>>ASSIGN
PS_STATS.SIGMA_X_SQUARED
      5004**DCL      6142>>ASSIGN
PS_STATS$
      5001**DCL      5003--IMP-PTR  6141>>ASSIGN   6142>>ASSIGN   6143>>ASSIGN   6144>>ASSIGN   6146>>CALL
      6198>>CALL     6255>>ASSIGN   6382>>ASSIGN   6388>>ASSIGN
PS_STATS_EXPRESSIONS
      5002**DCL      6502>>CALL     6505>>DOINDEX  6513>>DOINDEX
PS_STATS_HITS
      5002**DCL      6058--DCLINIT  6148>>ASSIGN   6148>>ASSIGN   6164>>IF       6174>>ASSIGN   6174>>ASSIGN
      6299>>IF
RESULT_FMT
      6048**DCL      6303--CALL
SECOND_CHARS
      6006**DCL      6372>>ASSIGN   6458>>CALLBLT
SECOND_PRINT
      6008**DCL      6442<<ASSIGN   6458<<CALLBLT  6477--CALL
SETUP_HEADER
      6109**PROC     6326--CALL     6327--CALL
PL6.E3A0      #001=PSR$RESULTS File=PSR$RESULTS.:E05TSI                          WED 07/30/97 04:37 Page:82
SIGMA_X IN PROCEDURE PRINT_STATISTICS
      6134**DCL      6141<<ASSIGN   6148>>ASSIGN   6174>>ASSIGN
SIGMA_X_SQUARED IN PROCEDURE PRINT_STATISTICS
      6135**DCL      6142<<ASSIGN   6174>>ASSIGN
SQRT
      6204**PROC     6179--CALL
STATISTICS_FORMAT
      6105**DCL      6186--CALL
STATISTICS_HEADER_FORMAT
      6099**DCL      6124--CALL
STATISTICS_TITLE
      6022**DCL      6146<>CALL     6186--CALL
STDDEV
      6026**DCL      6186--CALL
STDDEV.FRAC
      6028**DCL      6168<<ASSIGN   6182<<ASSIGN
STDDEV.INT
      6027**DCL      6167<<ASSIGN   6181<<ASSIGN
STDDEV_SQ_100 IN PROCEDURE PRINT_STATISTICS
      6139**DCL      6174<<ASSIGN   6179<>CALL
STDDEV_TIMES_TEN IN PROCEDURE PRINT_STATISTICS
      6138**DCL      6179<>CALL     6181>>ASSIGN   6182>>ASSIGN
SUBSCR IN PROCEDURE SETUP_HEADER
      6112**DCL      6109--PROC     6114>>CALL     6114>>CALL     6114>>CALL     6114>>CALL     6114>>CALL
TEXTC.LEN
      5005**DCL      5005--IMP-SIZ
UPPER
      6001**DCL      6280--CALL     6291--CALL     6382<<ASSIGN   6394<<ASSIGN   6406>>IF       6418>>IF
UPPER_LIM
      6011**DCL      6460<<ASSIGN   6469--ASSIGN
VALUE IN PROCEDURE PRINT_TRAILER
      6234**DCL      6255<<ASSIGN   6257>>ASSIGN   6261>>DOWHILE  6264<<ASSIGN   6264>>ASSIGN
WRITE_FORMAT_1
      6278**PROC     6397--CALL     6412--CALL     6423--CALL
WRITE_FORMAT_2
      6289**PROC     6429--CALL
PL6.E3A0      #001=PSR$RESULTS File=PSR$RESULTS.:E05TSI                          WED 07/30/97 04:37 Page:83
X
      6015**DCL      6346<<DOINDEX  6348>>ASSIGN   6354>>ASSIGN   6355>>ASSIGN   6368>>ASSIGN   6372>>ASSIGN
      6374>>ASSIGN
X$WRITE
      6040**DCL-ENT  6124--CALL     6186--CALL     6271--CALL     6280--CALL     6291--CALL     6303--CALL
      6334--CALL     6477--CALL     6480--CALL     6487--CALL
X_AXIS_CONTROL
      6018**DCL      6271--CALL
X_AXIS_CONTROL.DIGITS
      6019**DCL      6259<<ASSIGN   6261>>DOWHILE  6263<<ASSIGN   6263>>ASSIGN   6269<<ASSIGN   6269>>ASSIGN
X_AXIS_CONTROL.VALUE
      6020**DCL      6257<<ASSIGN
Y
      6016**DCL      6342<<DOINDEX  6344>>ASSIGN   6391>>IF
Y_TEMP
      6017**DCL      6344<<ASSIGN   6348>>ASSIGN   6382>>ASSIGN   6384>>IF       6388>>ASSIGN   6403>>IF
