VERSION E05

PL6.E3A0      #001=P_FEP_E File=PS_FEP_E.:E05TSI                                 TUE 07/29/97 07:43 Page:1
        1        1        /*M* P_FEP_E - Generate equates by which STATS references FEP structures */
        2        2        /*T***********************************************************/
        3        3        /*T*                                                         */
        4        4        /*T* Copyright (c) Bull HN Information Systems Inc., 1997    */
        5        5        /*T*                                                         */
        6        6        /*T***********************************************************/
        7        7        /*D* P_FEP_E - Contains %INCLUDES and macro invokations to generate
        8        8             FEP STATS data structures, which are converted by DRAW.X to the
        9        9             EQUates used in STATS to reference the structures.
       10       10
       11       11             The structure macros supposedly generate the right thing based
       12       12             on %MODE_FEP; in practice only the word offsets need be right
       13       13             so those things declared BIT(32) ALIGNED are really OK.
       14       14
       15       15             Several of the structures below are invoked with a shorter name,
       16       16             ie. KZ$SYNC instead of KZ$SYNCSTAT; this is so that the EQUs
       17       17             will end up being within the 31-char limit.
       18       18        */
       19       19        P_FEP_E:PROC;
       20       20        %INCLUDE CP_6;
       21     5579        %INCLUDE KL_AFCN_C;
       22     5680        %INCLUDE KL_MACRO_C;
       23     9032        %INCLUDE K_ID_E;
       24     9082        %INCLUDE KV_GLBCNS_E;
       25     9423        %INCLUDE KV$GLB;
       26     9842        %INCLUDE KH$STT;
       27     9872        %INCLUDE KA_GLB;
       28     9949        %INCLUDE KZ$RBT_M;
       29    10508        %INCLUDE KY_SUBS_C;
       30    10597        %INCLUDE KY_URP_M;
       31    10892        %INCLUDE KZ$BSCSTT;
       32    10998        %INCLUDE KZ$3270STT;
       33    11062        %INCLUDE KX_MACROS_M;
       34    11833        %INCLUDE KXX_MACROS_M;
       35    12175        %INCLUDE P_FEP_M;
       36    12613        %INCLUDE KJ_MACRO_M;
       37    13050        %SET LISTMAC = '1'B;
PL6.E3A0      #001=P_FEP_E File=PS_FEP_E.:E05TSI                                 TUE 07/29/97 07:43 Page:2
       38    13051        %K#ENTID_E;
             13052        %EQU KH#ENTID_ASYNC=1;
             13053        %EQU KH#ENTID_BSC=2;
             13054        %EQU KH#ENTID_FEI=3;
             13055        %EQU KH#ENTID_HDLC=4;
             13056        %EQU KH#ENTID_URP=5;
             13057        %EQU KH#ENTID_3270=6;
             13058        %EQU KH#ENTID_PLDVIP=7;
             13059        %EQU KH#ENTID_RBT=8;
             13060        %EQU KH#ENTID_X25=9;
             13061        %EQU KH#ENTID_VDH=10;
             13062        %EQU KH#ENTID_APE=11;
             13063        %EQU KH#ENTID_NODADM=12;
             13064        %EQU KH#ENTID_IO=13;
             13065        %EQU KH#ENTID_X29=14;
             13066        %EQU KH#ENTID_ML=15;
             13067        %EQU KH#ENTID_MONITOR=16;
             13068        %EQU KH#ENTID_HI=16;
       39    13070        %K#LYRID_E;
             13071        %EQU KH#LYRID_LNK=1;
             13072        %EQU KH#LYRID_NTW=2;
             13073        %EQU KH#LYRID_PRS=3;
             13074        %EQU KH#LYRID_APL=4;
             13075        %EQU KH#LYRID_HI=4;
       40    13077        %K#LYRENTID_E;
             13078        %EQU KH#LNKENTID_ASYNC=1;
             13079        %EQU KH#LNKENTID_BSC=2;
             13080        %EQU KH#LNKENTID_FEI=3;
             13081        %EQU KH#LNKENTID_HDLC=4;
             13082        %EQU KH#LNKENTID_URP=5;
             13083        %EQU KH#NTWENTID_X25=1;
             13084        %EQU KH#NTWENTID_ML=2;
             13085        %EQU KH#PRSENTID_VDH=1;
             13086        %EQU KH#PRSENTID_APE=2;
             13087        %EQU KH#APLENTID_3270=1;
             13088        %EQU KH#APLENTID_PLDVIP=2;
             13089        %EQU KH#APLENTID_RBT=3;
PL6.E3A0      #001=P_FEP_E File=PS_FEP_E.:E05TSI                                 TUE 07/29/97 07:43 Page:3
             13090        %EQU KH#APLENTID_NODADM=4;
             13091        %EQU KH#APLENTID_IO=5;
             13092        %EQU KH#APLENTID_X29=6;
       41    13094        %KV_STRTYP_E;
             13095        %EQU KV_STRTYP_ACTCHR=1;
             13096        %EQU KV_STRTYP_DCB=2;
             13097        %EQU KV_STRTYP_DCBHDN=3;
             13098        %EQU KV_STRTYP_ERR=4;
             13099        %EQU KV_STRTYP_FLD=5;
             13100        %EQU KV_STRTYP_FLDLST=6;
             13101        %EQU KV_STRTYP_INPTAB=7;
             13102        %EQU KV_STRTYP_LIN=8;
             13103        %EQU KV_STRTYP_LINLST=9;
             13104        %EQU KV_STRTYP_MRD=10;
             13105        %EQU KV_STRTYP_MSG=11;
             13106        %EQU KV_STRTYP_MVD=12;
             13107        %EQU KV_STRTYP_OTPTAB=13;
             13108        %EQU KV_STRTYP_PAG=14;
             13109        %EQU KV_STRTYP_PRM=15;
             13110        %EQU KV_STRTYP_PTR=16;
             13111        %EQU KV_STRTYP_REDBFR=17;
             13112        %EQU KV_STRTYP_SRD=18;
             13113        %EQU KV_STRTYP_SSN=19;
             13114        %EQU KV_STRTYP_SSNHDN=20;
             13115        %EQU KV_STRTYP_SSTINPFNCTBL=21;
             13116        %EQU KV_STRTYP_STR=22;
             13117        %EQU KV_STRTYP_TRMTAB=23;
             13118        %EQU KV_STRTYP_TRNTBL=24;
             13119        %EQU KV_STRTYP_TYPAHDBFR=25;
             13120        %EQU KV_STRTYP_USRINPFNCTBL=26;
             13121        %EQU KV_STRTYP_USRBFR=27;
             13122        %EQU KV_STRTYP_USRSHRBFR=28;
             13123        %EQU KV_STRTYP_VDI=29;
             13124        %EQU KV_STRTYP_VFU=30;
             13125        %EQU KV_STRTYP_ERD=31;
             13126        %EQU KV_STRTYP_ENTSRD=32;
             13127        %EQU KV_STRTYP_TRCBFR=33;
PL6.E3A0      #001=P_FEP_E File=PS_FEP_E.:E05TSI                                 TUE 07/29/97 07:43 Page:4
             13128        %EQU KV_STRTYP_X364=34;
             13129        %EQU KV_STRTYP_RCR=35;
             13130        %EQU KV_STRTYP_RCRLST=36;
       42    13132        %KV_VDH_FNC_E;
             13133        %EQU KV_VDH_FNC_CNC=1;
             13134        %EQU KV_VDH_FNC_DAT=2;
             13135        %EQU KV_VDH_FNC_DCLLCLPST=3;
             13136        %EQU KV_VDH_FNC_DSC=4;
             13137        %EQU KV_VDH_FNC_EVT=6;
             13138        %EQU KV_VDH_FNC_FNDINPTAB=7;
             13139        %EQU KV_VDH_FNC_GETBFR=8;
             13140        %EQU KV_VDH_FNC_GETPRM=9;
             13141        %EQU KV_VDH_FNC_INT=10;
             13142        %EQU KV_VDH_FNC_INTINPOPR=11;
             13143        %EQU KV_VDH_FNC_OTPLCL=12;
             13144        %EQU KV_VDH_FNC_OTPMRK=13;
             13145        %EQU KV_VDH_FNC_PST=14;
             13146        %EQU KV_VDH_FNC_RLSBFR=15;
             13147        %EQU KV_VDH_FNC_RQSDAT=16;
             13148        %EQU KV_VDH_FNC_SETCLK=17;
             13149        %EQU KV_VDH_FNC_SETPRM=18;
             13150        %EQU KV_VDH_FNC_SRCINPFNCID=19;
       43    13152        %KV_USR_FNC_E;
             13153        %EQU KV_USR_FNC_DAT=1;
             13154        %EQU KV_USR_FNC_ERS=3;
             13155        %EQU KV_USR_FNC_EVT=4;
             13156        %EQU KV_USR_FNC_EXTINPTRN=5;
             13157        %EQU KV_USR_FNC_EXTOTPTRN=6;
             13158        %EQU KV_USR_FNC_GETOTPBFR=7;
             13159        %EQU KV_USR_FNC_GETPRM=8;
             13160        %EQU KV_USR_FNC_INPPRC=9;
             13161        %EQU KV_USR_FNC_OTPMRK=10;
             13162        %EQU KV_USR_FNC_OTPRPTCHR=11;
             13163        %EQU KV_USR_FNC_PST=12;
             13164        %EQU KV_USR_FNC_RQSDAT=13;
             13165        %EQU KV_USR_FNC_SETATR=14;
             13166        %EQU KV_USR_FNC_SETPRM=15;
PL6.E3A0      #001=P_FEP_E File=PS_FEP_E.:E05TSI                                 TUE 07/29/97 07:43 Page:5
       44    13168        %KV_VDH_EVT_ID_E;
             13169        %EQU KV_VDH_EVT_ID_CMPOTP=1;
             13170        %EQU KV_VDH_EVT_ID_RQSOTP=2;
             13171        %EQU KV_VDH_EVT_ID_RLSVDI=3;
             13172        %EQU KV_VDH_EVT_ID_ATN=4;
       45    13174        %KV_USR_EVT_ID_E;
             13175        %EQU KV_USR_EVT_ID_BGNSETPRM=1;
             13176        %EQU KV_USR_EVT_ID_CLS=2;
             13177        %EQU KV_USR_EVT_ID_DLTOTP=3;
             13178        %EQU KV_USR_EVT_ID_DSC=4;
             13179        %EQU KV_USR_EVT_ID_ENDSETPRM=5;
             13180        %EQU KV_USR_EVT_ID_GETSTR=6;
             13181        %EQU KV_USR_EVT_ID_HLTOTP=7;
             13182        %EQU KV_USR_EVT_ID_LGNACP=8;
             13183        %EQU KV_USR_EVT_ID_LGNRJC=9;
             13184        %EQU KV_USR_EVT_ID_OPN=10;
             13185        %EQU KV_USR_EVT_ID_RLSSTR=11;
             13186        %EQU KV_USR_EVT_ID_SCH=12;
             13187        %EQU KV_USR_EVT_ID_TRMUSRRQSDAT=13;
             13188        %EQU KV_USR_EVT_ID_VDHEXT=14;
             13189        %EQU KV_USR_EVT_ID_RLSVDI=15;
             13190        %EQU KV_USR_EVT_ID_CLKEXP=16;
             13191        %EQU KV_USR_EVT_ID_INHDLTOTP=17;
             13192        %EQU KV_USR_EVT_ID_OTP1_CHR=18;
       46    13194        %KV$STT;
             13195        %LSET LISTDIR='0'B;
             13221    1   DCL 1 KV$STT BASED HALIGNED,
             13379    1         2 REQSTATS WALIGNED,
             13385    1         3 FNC  UBIN BYTE /*(36)*/ UNAL,
             13390    1         3 NODE_NUM UBIN BYTE /*(0)*/ UNAL,
             13391    1         3 SRCE_NODE UBIN BYTE UNAL /*(0)*/,
             13392    1         3 * UBIN BYTE UNAL /*(0)*/,
             13409    1   3 ERRCODE ALIGNED,
             13423    1   4 FCG  BIT(12)/*('0'B)/**/ ,
             13436    1   4 MID  BIT(6)/*('0'B)/**/ ,4 MON  BIT(1)/*('0'B)/**/ ,
             13437    1   4 ERR#  UBIN(14)/*(0)/**/ UNAL,4 SEV  UBIN(3)/*(0)/**/
             13438    1   UNAL ,
PL6.E3A0      #001=P_FEP_E File=PS_FEP_E.:E05TSI                                 TUE 07/29/97 07:43 Page:6
             13443    1         3 STATSSTA CHAR(8) /*(' ')*/,
             13447    1         3 FEPNAME CHAR(8) /*('?')*/,
             13453    1         3 HANDLER CHAR(8) /*('?')*/,
             13464    1         3 * BIT(4) /*('0'B)*/,
             13466    1         3 DSPMSK BIT(32) /*( '00000000000000000000000000000000'B )*/,
             13472    1         3 DSPENT(0:31) REDEF DSPMSK BIT(1),
             13505    1         3 * BIT(4) /*('0'B)*/,
             13507    1         3 SLCMSK BIT(32) /*( '00000000000000000000000000000000'B )*/
             13513    1         ,
             13514    1         3 SLCENT(0:31) REDEF SLCMSK BIT(1)
             13516    1         ,
             13518    1   2 ID UBIN(36)HALIGNED /*(0)*/,
             13540    1   2 RCV,
             13542    1   3 VDOCNT UBIN(36)HALIGNED /*(0)*/,3 VDOBYTCNT UBIN(36)HALIGNED /*(0)*/,
             13543    1   3 DATVDOCNT UBIN(36)HALIGNED /*(0)*/,3 DATVDOBYTCNT UBIN(36)HALIGNED /*(0)*/,
             13544    1   3 DATVDODATBYTCNT UBIN(36)HALIGNED /*(0)*/,3 SSNINTDATUNTCNT UBIN(36)HALIGNED /*
             13545    1   (0)*/,3 SSNINTDATUNTBYTCNT UBIN(36)HALIGNED /*(0)*/ ,
             13568    1   2 SND,
             13570    1   3 VDOCNT UBIN(36)HALIGNED /*(0)*/,3 VDOBYTCNT UBIN(36)HALIGNED /*(0)*/,
             13571    1   3 DATVDOCNT UBIN(36)HALIGNED /*(0)*/,3 DATVDOBYTCNT UBIN(36)HALIGNED /*(0)*/,
             13572    1   3 DATVDODATBYTCNT UBIN(36)HALIGNED /*(0)*/,3 SSNINTDATUNTCNT UBIN(36)HALIGNED /*
             13573    1   (0)*/,3 SSNINTDATUNTBYTCNT UBIN(36)HALIGNED /*(0)*/ ,
             13575    1   2 INPCHRCNT UBIN(36)HALIGNED /*(0)*/,2 OTPCHRCNT UBIN(36)HALIGNED /*(0)*/,
             13576    1   2 CNCEVTCNT UBIN(36)HALIGNED /*(0)*/,2 USRENTCNT UBIN(36)HALIGNED /*(0)*/,
             13577    1   2 USRENTDFRCNT UBIN(36)HALIGNED /*(0)*/,2 SCHEXCTIM UBIN(36)HALIGNED /*(0)*/,
             13578    1   2 * UBIN(36)HALIGNED /*(0)*/,2 * UBIN(36)HALIGNED /*(0)*/,2 * UBIN
             13579    1   (36)HALIGNED /*(0)*/,2 * UBIN(36)HALIGNED /*(0)*/,2 RCVVDOFNCCNT
             13580    1   (0:36)UBIN(36)HALIGNED /*(0*0)*/,2 SNDVDOFNCCNT(0:36)UBIN(36)HALIGNED
             13581    1   /*(0*0)*/,2 BYTUTL(0:36)UBIN(36)HALIGNED /*(0*0)*/,2 BFRGETCNT(0:36)
             13582    1   UBIN(36)HALIGNED /*(0*0)*/,2 BFRCNT(0:36)UBIN(36)HALIGNED /*(0*0)*/,
             13583    1   2 VDIVDHFNCCNT(0:19)UBIN(36)HALIGNED /*(0*0)*/,2 VDIUSRFNCCNT(0:15)UBIN
             13584    1   (36)HALIGNED /*(0*0)*/,2 VDIVDHEVTCNT(0:4)UBIN(36)HALIGNED /*(0*0)*/,
             13585    1   2 VDIUSREVTCNT(0:18)UBIN(36)HALIGNED /*(0*0)*/ ;
       47    13587        %KH$STT;
             13588        %LSET LISTDIR='0'B;
             13601    1   DCL 1 KH$STT BASED ALIGNED,
             13605    1   2 INPINTCNT UBIN(36)/*(0)*/,2 OTPINTCNT UBIN(36)/*(0)*/,
PL6.E3A0      #001=P_FEP_E File=PS_FEP_E.:E05TSI                                 TUE 07/29/97 07:43 Page:7
             13606    1   2 INPINTISATIM UBIN(36)/*(0)*/,2 OTPINTISATIM UBIN(36)/*(0)*/,
             13607    1   2 INPBFRBYTUTL UBIN(36)/*(0)*/,2 OTPBFRBYTUTL UBIN(36)/*(0)*/,
             13608    1   2 CTXBYTUTL UBIN(36)/*(0)*/ ;
       48    13610        %KA_STT;
             13611        %LSET LISTDIR='0'B;
             13625    1   DCL 1 KA_STT WALIGNED SYMREF,
             13783    1         2 REQSTATS WALIGNED,
             13789    1         3 FNC  UBIN BYTE /*(36)*/ UNAL,
             13794    1         3 NODE_NUM UBIN BYTE /*(0)*/ UNAL,
             13795    1         3 SRCE_NODE UBIN BYTE UNAL /*(0)*/,
             13796    1         3 * UBIN BYTE UNAL /*(0)*/,
             13813    1   3 ERRCODE ALIGNED,
             13827    1   4 FCG  BIT(12)/*('0'B)/**/ ,
             13840    1   4 MID  BIT(6)/*('0'B)/**/ ,4 MON  BIT(1)/*('0'B)/**/ ,
             13841    1   4 ERR#  UBIN(14)/*(0)/**/ UNAL,4 SEV  UBIN(3)/*(0)/**/
             13842    1   UNAL ,
             13847    1         3 STATSSTA CHAR(8) /*(' ')*/,
             13851    1         3 FEPNAME CHAR(8) /*('?')*/,
             13857    1         3 HANDLER CHAR(8) /*('?')*/,
             13868    1         3 * BIT(4) /*('0'B)*/,
             13870    1         3 DSPMSK BIT(32) /*( '00000000000000000000000000000000'B )*/,
             13876    1         3 DSPENT(0:31) REDEF DSPMSK BIT(1),
             13909    1         3 * BIT(4) /*('0'B)*/,
             13911    1         3 SLCMSK BIT(32) /*( '00000000000000000000000000000000'B )*/
             13917    1         ,
             13918    1         3 SLCENT(0:31) REDEF SLCMSK BIT(1)
             13920    1         ,
             13938    1   2 KHSTT,
             13940    1   3 INPINTCNT UBIN(36)/*(0)*/,3 OTPINTCNT UBIN(36)/*(0)*/,
             13941    1   3 INPINTISATIM UBIN(36)/*(0)*/,3 OTPINTISATIM UBIN(36)/*(0)*/,
             13942    1   3 INPBFRBYTUTL UBIN(36)/*(0)*/,3 OTPBFRBYTUTL UBIN(36)/*(0)*/,
             13943    1   3 CTXBYTUTL UBIN(36)/*(0)*/ ,
             13945    1   2 DVCDFNBYTUTL UBIN(36)/*(0)*/,2 LINSPDDST(0:15)UBIN(36)/*(0*0
             13946    1   )*/,2 OTPBFRGETCNT_SML UBIN(36)/*(0)*/,2 OTPBFRGETCNT_BIG UBIN(36
             13947    1   )/*(0)*/,2 OTPBFRFULCNT_SML UBIN(36)/*(0)*/,2 OTPBFRFULCNT_BIG UBIN
             13948    1   (36)/*(0)*/,
             13951    1   2 BPSTT,
PL6.E3A0      #001=P_FEP_E File=PS_FEP_E.:E05TSI                                 TUE 07/29/97 07:43 Page:8
             13958    1   3 TOT UBIN,3 USE UBIN,3 MXU UBIN,3 GETC UBIN,3 RLSC UBIN,3 GETT UBIN,3 RLST UBIN,3
             13958            GETF
             13959    1   UBIN,3 FRG UBIN,3 CMB UBIN,3 SCH UBIN,3 CLKCTX UBIN,3 CLKC UBIN,3 CLKE UBIN,
             13961    1   3 COUNT(0:12)UBIN,3 PKCNT(0:12)UBIN,3 MINSIZ UBIN ;
       49    13972        %KZ$SYNCSTAT (NAME=KZ$SYNC);
             13973        %LSET LISTDIR='0'B;
             13992    1   DCL 1 KZ$SYNC BASED ALIGNED,
             14175    1         2 REQSTATS WALIGNED,
             14181    1         3 FNC  UBIN BYTE /*(36)*/ UNAL,
             14186    1         3 NODE_NUM UBIN BYTE /*(0)*/ UNAL,
             14187    1         3 SRCE_NODE UBIN BYTE UNAL /*(0)*/,
             14188    1         3 * UBIN BYTE UNAL /*(0)*/,
             14205    1   3 ERRCODE ALIGNED,
             14219    1   4 FCG  BIT(12)/*('0'B)/**/ ,
             14232    1   4 MID  BIT(6)/*('0'B)/**/ ,4 MON  BIT(1)/*('0'B)/**/ ,
             14233    1   4 ERR#  UBIN(14)/*(0)/**/ UNAL,4 SEV  UBIN(3)/*(0)/**/
             14234    1   UNAL ,
             14239    1         3 STATSSTA CHAR(8) /*(' ')*/,
             14243    1         3 FEPNAME CHAR(8) /*('?')*/,
             14249    1         3 HANDLER CHAR(8) /*('?')*/,
             14260    1         3 * BIT(4) /*('0'B)*/,
             14262    1         3 DSPMSK BIT(32) /*( '00000000000000000000000000000000'B )*/,
             14268    1         3 DSPENT(0:31) REDEF DSPMSK BIT(1),
             14301    1         3 * BIT(4) /*('0'B)*/,
             14303    1         3 SLCMSK BIT(32) /*( '00000000000000000000000000000000'B )*/
             14309    1         ,
             14310    1         3 SLCENT(0:31) REDEF SLCMSK BIT(1)
             14312    1         ,
             14330    1   2 KHSTT,
             14332    1   3 INPINTCNT UBIN(36)/*(0)*/,3 OTPINTCNT UBIN(36)/*(0)*/,
             14333    1   3 INPINTISATIM UBIN(36)/*(0)*/,3 OTPINTISATIM UBIN(36)/*(0)*/,
             14334    1   3 INPBFRBYTUTL UBIN(36)/*(0)*/,3 OTPBFRBYTUTL UBIN(36)/*(0)*/,
             14335    1   3 CTXBYTUTL UBIN(36)/*(0)*/ ,
             14337    1         2 CHROUT UBIN(36) /*(0)/**/,
             14339    1         2 CHRIN  UBIN(36) /*(0)/**/,
             14341    1         2 BLKOUT UBIN(36) /*(0)/**/,
             14343    1         2 BLKIN  UBIN(36) /*(0)/**/,
PL6.E3A0      #001=P_FEP_E File=PS_FEP_E.:E05TSI                                 TUE 07/29/97 07:43 Page:9
             14345    1         2 TRNSCT UBIN(36) /*(0)/**/,
             14348    1         2 TOTCNC UBIN(36) /*(0)/**/,
             14350    1         2 TOTSSN UBIN(36) /*(0)/**/,
             14354    1   2 BPSTT,
             14361    1   3 TOT UBIN,3 USE UBIN,3 MXU UBIN,3 GETC UBIN,3 RLSC UBIN,3 GETT UBIN,3 RLST UBIN,3
             14361            GETF
             14362    1   UBIN,3 FRG UBIN,3 CMB UBIN,3 SCH UBIN,3 CLKCTX UBIN,3 CLKC UBIN,3 CLKE UBIN,
             14364    1   3 COUNT(0:12)UBIN,3 PKCNT(0:12)UBIN,3 MINSIZ UBIN ,
             14376    1           2 ACTSTR UBIN(36) /*(0)*/,
             14379    1             2 PTHTICS  UBIN(36) /*(0)*/ ;
       50    14385        %KY$STT_URP(NAME=KY_URP);
             14386        %LSET LISTDIR='0'B;
             14399    1   DCL 1 KY_URP BASED ALIGNED,
             14557    1         2 REQSTATS WALIGNED,
             14563    1         3 FNC  UBIN BYTE /*(36)*/ UNAL,
             14568    1         3 NODE_NUM UBIN BYTE /*(0)*/ UNAL,
             14569    1         3 SRCE_NODE UBIN BYTE UNAL /*(0)*/,
             14570    1         3 * UBIN BYTE UNAL /*(0)*/,
             14587    1   3 ERRCODE ALIGNED,
             14601    1   4 FCG  BIT(12)/*('0'B)/**/ ,
             14614    1   4 MID  BIT(6)/*('0'B)/**/ ,4 MON  BIT(1)/*('0'B)/**/ ,
             14615    1   4 ERR#  UBIN(14)/*(0)/**/ UNAL,4 SEV  UBIN(3)/*(0)/**/
             14616    1   UNAL ,
             14621    1         3 STATSSTA CHAR(8) /*(' ')*/,
             14625    1         3 FEPNAME CHAR(8) /*('?')*/,
             14631    1         3 HANDLER CHAR(8) /*('?')*/,
             14642    1         3 * BIT(4) /*('0'B)*/,
             14644    1         3 DSPMSK BIT(32) /*( '00000000000000000000000000000000'B )*/,
             14650    1         3 DSPENT(0:31) REDEF DSPMSK BIT(1),
             14683    1         3 * BIT(4) /*('0'B)*/,
             14685    1         3 SLCMSK BIT(32) /*( '00000000000000000000000000000000'B )*/
             14691    1         ,
             14692    1         3 SLCENT(0:31) REDEF SLCMSK BIT(1)
             14694    1         ,
             14712    1   2 USRSTT,
             14714    1   3 INPINTCNT UBIN(36)/*(0)*/,3 OTPINTCNT UBIN(36)/*(0)*/,
             14715    1   3 INPINTISATIM UBIN(36)/*(0)*/,3 OTPINTISATIM UBIN(36)/*(0)*/,
PL6.E3A0      #001=P_FEP_E File=PS_FEP_E.:E05TSI                                 TUE 07/29/97 07:43 Page:10
             14716    1   3 INPBFRBYTUTL UBIN(36)/*(0)*/,3 OTPBFRBYTUTL UBIN(36)/*(0)*/,
             14717    1   3 CTXBYTUTL UBIN(36)/*(0)*/ ,
             14720    1   2 NUMDVC(0:3) UBIN(32) /*(0*0)/**/ ;
       51    14722        %KZ$BSCSTT;
             14723            %LSET LISTDIR = '0'B;
             14740    1       DCL 1 KZ$BSCSTT BASED ALIGNED,
             14901    1         2 REQSTATS WALIGNED,
             14907    1         3 FNC  UBIN BYTE /*(36)*/ UNAL,
             14912    1         3 NODE_NUM UBIN BYTE /*(0)*/ UNAL,
             14913    1         3 SRCE_NODE UBIN BYTE UNAL /*(0)*/,
             14914    1         3 * UBIN BYTE UNAL /*(0)*/,
             14931    1   3 ERRCODE ALIGNED,
             14945    1   4 FCG  BIT(12)/*('0'B)/**/ ,
             14958    1   4 MID  BIT(6)/*('0'B)/**/ ,4 MON  BIT(1)/*('0'B)/**/ ,
             14959    1   4 ERR#  UBIN(14)/*(0)/**/ UNAL,4 SEV  UBIN(3)/*(0)/**/
             14960    1   UNAL ,
             14965    1         3 STATSSTA CHAR(8) /*(' ')*/,
             14969    1         3 FEPNAME CHAR(8) /*('?')*/,
             14975    1         3 HANDLER CHAR(8) /*('?')*/,
             14986    1         3 * BIT(4) /*('0'B)*/,
             14988    1         3 DSPMSK BIT(32) /*( '00000000000000000000000000000000'B )*/,
             14994    1         3 DSPENT(0:31) REDEF DSPMSK BIT(1),
             15027    1         3 * BIT(4) /*('0'B)*/,
             15029    1         3 SLCMSK BIT(32) /*( '00000000000000000000000000000000'B )*/
             15035    1         ,
             15036    1         3 SLCENT(0:31) REDEF SLCMSK BIT(1)
             15038    1         ,
             15056    1   2 KHSTT,
             15058    1   3 INPINTCNT UBIN(36)/*(0)*/,3 OTPINTCNT UBIN(36)/*(0)*/,
             15059    1   3 INPINTISATIM UBIN(36)/*(0)*/,3 OTPINTISATIM UBIN(36)/*(0)*/,
             15060    1   3 INPBFRBYTUTL UBIN(36)/*(0)*/,3 OTPBFRBYTUTL UBIN(36)/*(0)*/,
             15061    1   3 CTXBYTUTL UBIN(36)/*(0)*/ ,
             15063    1         2 CHROUT UBIN(36) /*(0)/**/,
             15065    1         2 CHRIN  UBIN(36) /*(0)/**/,
             15067    1         2 BLKOUT UBIN(36) /*(0)/**/,
             15069    1         2 BLKIN  UBIN(36) /*(0)/**/,
             15071    1         2 TRNSCT UBIN(36) /*(0)/**/,
PL6.E3A0      #001=P_FEP_E File=PS_FEP_E.:E05TSI                                 TUE 07/29/97 07:43 Page:11
             15074    1         2 TOTCNC UBIN(36) /*(0)/**/,
             15076    1         2 TOTSSN UBIN(36) /*(0)/**/,
             15080    1   2 BPSTT,
             15087    1   3 TOT UBIN,3 USE UBIN,3 MXU UBIN,3 GETC UBIN,3 RLSC UBIN,3 GETT UBIN,3 RLST UBIN,3
             15087            GETF
             15088    1   UBIN,3 FRG UBIN,3 CMB UBIN,3 SCH UBIN,3 CLKCTX UBIN,3 CLKC UBIN,3 CLKE UBIN,
             15090    1   3 COUNT(0:12)UBIN,3 PKCNT(0:12)UBIN,3 MINSIZ UBIN ;
       52    15102        %KZ$3270STT;
             15103        %LSET LISTDIR = '0'B;
             15122    1   DCL 1 KZ$3270STT BASED ALIGNED,
             15305    1         2 REQSTATS WALIGNED,
             15311    1         3 FNC  UBIN BYTE /*(36)*/ UNAL,
             15316    1         3 NODE_NUM UBIN BYTE /*(0)*/ UNAL,
             15317    1         3 SRCE_NODE UBIN BYTE UNAL /*(0)*/,
             15318    1         3 * UBIN BYTE UNAL /*(0)*/,
             15335    1   3 ERRCODE ALIGNED,
             15349    1   4 FCG  BIT(12)/*('0'B)/**/ ,
             15362    1   4 MID  BIT(6)/*('0'B)/**/ ,4 MON  BIT(1)/*('0'B)/**/ ,
             15363    1   4 ERR#  UBIN(14)/*(0)/**/ UNAL,4 SEV  UBIN(3)/*(0)/**/
             15364    1   UNAL ,
             15369    1         3 STATSSTA CHAR(8) /*(' ')*/,
             15373    1         3 FEPNAME CHAR(8) /*('?')*/,
             15379    1         3 HANDLER CHAR(8) /*('?')*/,
             15390    1         3 * BIT(4) /*('0'B)*/,
             15392    1         3 DSPMSK BIT(32) /*( '00000000000000000000000000000000'B )*/,
             15398    1         3 DSPENT(0:31) REDEF DSPMSK BIT(1),
             15431    1         3 * BIT(4) /*('0'B)*/,
             15433    1         3 SLCMSK BIT(32) /*( '00000000000000000000000000000000'B )*/
             15439    1         ,
             15440    1         3 SLCENT(0:31) REDEF SLCMSK BIT(1)
             15442    1         ,
             15460    1   2 KHSTT,
             15462    1   3 INPINTCNT UBIN(36)/*(0)*/,3 OTPINTCNT UBIN(36)/*(0)*/,
             15463    1   3 INPINTISATIM UBIN(36)/*(0)*/,3 OTPINTISATIM UBIN(36)/*(0)*/,
             15464    1   3 INPBFRBYTUTL UBIN(36)/*(0)*/,3 OTPBFRBYTUTL UBIN(36)/*(0)*/,
             15465    1   3 CTXBYTUTL UBIN(36)/*(0)*/ ,
             15467    1         2 CHROUT UBIN(36) /*(0)/**/,
PL6.E3A0      #001=P_FEP_E File=PS_FEP_E.:E05TSI                                 TUE 07/29/97 07:43 Page:12
             15469    1         2 CHRIN  UBIN(36) /*(0)/**/,
             15471    1         2 BLKOUT UBIN(36) /*(0)/**/,
             15473    1         2 BLKIN  UBIN(36) /*(0)/**/,
             15475    1         2 TRNSCT UBIN(36) /*(0)/**/,
             15478    1         2 TOTCNC UBIN(36) /*(0)/**/,
             15480    1         2 TOTSSN UBIN(36) /*(0)/**/,
             15484    1   2 BPSTT,
             15491    1   3 TOT UBIN,3 USE UBIN,3 MXU UBIN,3 GETC UBIN,3 RLSC UBIN,3 GETT UBIN,3 RLST UBIN,3
             15491            GETF
             15492    1   UBIN,3 FRG UBIN,3 CMB UBIN,3 SCH UBIN,3 CLKCTX UBIN,3 CLKC UBIN,3 CLKE UBIN,
             15494    1   3 COUNT(0:12)UBIN,3 PKCNT(0:12)UBIN,3 MINSIZ UBIN ,
             15510    1         2 OTPBFRSIZ(0:7) UBIN(36) /*(0*8)*/,
             15514    1         2 GENPOL UBIN(36) /*(0)*/,
             15518    1         2 SNDOTP UBIN(36) /*(0)*/,
             15522    1         2 SEL UBIN(36) /*(0)*/,
             15527    1         2 WAT UBIN(36) /*(0)*/,
             15531    1         2 *(0:5) UBIN(36) /*(0*6)*/ ;
       53    15533        %KX_STATS_HDLC( FPTN=KX_HDLC, STCLASS="STATIC SYMDEF");
             15534        %LSET LISTDIR='0'B;
             15553    1   DCL 1 KX_HDLC STATIC SYMDEF WALIGNED,
             15711    1         2 REQSTATS WALIGNED,
             15717    1         3 FNC  UBIN BYTE INIT(36) UNAL,
             15722    1         3 NODE_NUM UBIN BYTE INIT(0) UNAL,
             15723    1         3 SRCE_NODE UBIN BYTE UNAL INIT(0),
             15724    1         3 * UBIN BYTE UNAL INIT(0),
             15741    1   3 ERRCODE ALIGNED,
             15755    1   4 FCG  BIT(12)INIT('0'B)/**/ ,
             15768    1   4 MID  BIT(6)INIT('0'B)/**/ ,4 MON  BIT(1)INIT('0'B)/**/ ,
             15769    1   4 ERR#  UBIN(14)INIT(0)/**/ UNAL,4 SEV  UBIN(3)INIT(0)/**/
             15770    1   UNAL ,
             15775    1         3 STATSSTA CHAR(8) INIT(' '),
             15779    1         3 FEPNAME CHAR(8) INIT('?'),
             15785    1         3 HANDLER CHAR(8) INIT('?'),
             15796    1         3 * BIT(4) INIT('0'B),
             15798    1         3 DSPMSK BIT(32) INIT( '00000000000000000000000000000000'B ),
             15804    1         3 DSPENT(0:31) REDEF DSPMSK BIT(1),
             15837    1         3 * BIT(4) INIT('0'B),
PL6.E3A0      #001=P_FEP_E File=PS_FEP_E.:E05TSI                                 TUE 07/29/97 07:43 Page:13
             15839    1         3 SLCMSK BIT(32) INIT( '00000000000000000000000000000000'B )
             15845    1         ,
             15846    1         3 SLCENT(0:31) REDEF SLCMSK BIT(1)
             15848    1         ,
             15850    1   2 LINES UBIN(36)INIT(0),2 CONNECTS UBIN(36)INIT(0),2 DISCONNECTS UBIN(36
             15851    1   )INIT(0),2 BYTES_IN UBIN(36)INIT(0),2 BYTES_OUT UBIN(36)INIT(0),2 FRAMES_IN
             15852    1   UBIN(36)INIT(0),2 FRAMES_OUT UBIN(36)INIT(0),2 TIMEOUTS UBIN(36)INIT(0),
             15853    1   2 RESETS UBIN(36)INIT(0),2 F_REJECTS_IN UBIN(36)INIT(0),2 F_REJECTS_OUT UBIN
             15854    1   (36)INIT(0),2 IN_TCB_TICS UBIN(36)INIT(0),2 OUT_TCB_TICS UBIN(36)INIT(0),
             15855    1   2 IN_TCB_COUNT UBIN(36)INIT(0),2 OUT_TCB_COUNT UBIN(36)INIT(0) ;
       54    15857        %KX_STATS_X25( FPTN=KX_X25, STCLASS="STATIC SYMDEF");
             15858        %LSET LISTDIR='0'B;
             15877    1   DCL 1 KX_X25 STATIC SYMDEF WALIGNED,
             16035    1         2 REQSTATS WALIGNED,
             16041    1         3 FNC  UBIN BYTE INIT(36) UNAL,
             16046    1         3 NODE_NUM UBIN BYTE INIT(0) UNAL,
             16047    1         3 SRCE_NODE UBIN BYTE UNAL INIT(0),
             16048    1         3 * UBIN BYTE UNAL INIT(0),
             16065    1   3 ERRCODE ALIGNED,
             16079    1   4 FCG  BIT(12)INIT('0'B)/**/ ,
             16092    1   4 MID  BIT(6)INIT('0'B)/**/ ,4 MON  BIT(1)INIT('0'B)/**/ ,
             16093    1   4 ERR#  UBIN(14)INIT(0)/**/ UNAL,4 SEV  UBIN(3)INIT(0)/**/
             16094    1   UNAL ,
             16099    1         3 STATSSTA CHAR(8) INIT(' '),
             16103    1         3 FEPNAME CHAR(8) INIT('?'),
             16109    1         3 HANDLER CHAR(8) INIT('?'),
             16120    1         3 * BIT(4) INIT('0'B),
             16122    1         3 DSPMSK BIT(32) INIT( '00000000000000000000000000000000'B ),
             16128    1         3 DSPENT(0:31) REDEF DSPMSK BIT(1),
             16161    1         3 * BIT(4) INIT('0'B),
             16163    1         3 SLCMSK BIT(32) INIT( '00000000000000000000000000000000'B )
             16169    1         ,
             16170    1         3 SLCENT(0:31) REDEF SLCMSK BIT(1)
             16172    1         ,
             16174    1   2 BYTES_IN UBIN(36)INIT(0),2 BYTES_OUT UBIN(36)INIT(0),2 PACKETS_IN UBIN(36
             16175    1   )INIT(0),2 PACKETS_OUT UBIN(36)INIT(0),2 D_PACKETS_IN UBIN(36)INIT(0),2
             16176    1   D_PACKETS_OUT UBIN(36)INIT(0),2 RESTART_IN UBIN(36)INIT(0),2 RESTART_OUT UBIN(36
PL6.E3A0      #001=P_FEP_E File=PS_FEP_E.:E05TSI                                 TUE 07/29/97 07:43 Page:14
             16177    1   )INIT(0),2 P_REJECTS_IN UBIN(36)INIT(0),2 P_REJECTS_OUT UBIN(36)INIT(0),2
             16178    1   CALLS_IN UBIN(36)INIT(0),2 CALLS_OUT UBIN(36)INIT(0),2 CLEARS_IN UBIN(36)INIT(0
             16179    1   ),2 CLEARS_OUT UBIN(36)INIT(0),2 D_BYTES_IN UBIN(36)INIT(0),2 D_CMPPACKETS_IN
             16180    1   UBIN(36)INIT(0),2 P_BLK UBIN(36)INIT(0),2 D_CMPPACKETS_OUT UBIN(36)INIT(0),
             16181    1   2 D_BYTES_OUT UBIN(36)INIT(0),2 P_FLOW_IN UBIN(36)INIT(0),2 P_FLOW_OUT UBIN
             16182    1   (36)INIT(0),2 CIRCUITS UBIN(36)INIT(0),2 RESETS UBIN(36)INIT(0),2
             16183    1   F_BLK UBIN(36)INIT(0),2 KXSGET UBIN(36)INIT(0),2 KVBGET UBIN(36)INIT(0),
             16184    1   2 RFU1 UBIN(36)INIT(0),2 RFU2 UBIN(36)INIT(0),2 RFU3 UBIN(36)INIT(0)
             16185    1   ;
       55    16187        %KX_STATS_X29( FPTN=KX_X29, STCLASS="STATIC SYMDEF");
             16188        %LSET LISTDIR='0'B;
             16202    1   DCL 1 KX_X29 WALIGNED STATIC SYMDEF,
             16360    1         2 REQSTATS WALIGNED,
             16366    1         3 FNC  UBIN BYTE INIT(36) UNAL,
             16371    1         3 NODE_NUM UBIN BYTE INIT(0) UNAL,
             16372    1         3 SRCE_NODE UBIN BYTE UNAL INIT(0),
             16373    1         3 * UBIN BYTE UNAL INIT(0),
             16390    1   3 ERRCODE ALIGNED,
             16404    1   4 FCG  BIT(12)INIT('0'B)/**/ ,
             16417    1   4 MID  BIT(6)INIT('0'B)/**/ ,4 MON  BIT(1)INIT('0'B)/**/ ,
             16418    1   4 ERR#  UBIN(14)INIT(0)/**/ UNAL,4 SEV  UBIN(3)INIT(0)/**/
             16419    1   UNAL ,
             16424    1         3 STATSSTA CHAR(8) INIT(' '),
             16428    1         3 FEPNAME CHAR(8) INIT('?'),
             16434    1         3 HANDLER CHAR(8) INIT('?'),
             16445    1         3 * BIT(4) INIT('0'B),
             16447    1         3 DSPMSK BIT(32) INIT( '00000000000000000000000000000000'B ),
             16453    1         3 DSPENT(0:31) REDEF DSPMSK BIT(1),
             16486    1         3 * BIT(4) INIT('0'B),
             16488    1         3 SLCMSK BIT(32) INIT( '00000000000000000000000000000000'B )
             16494    1         ,
             16495    1         3 SLCENT(0:31) REDEF SLCMSK BIT(1)
             16497    1         ,
             16515    1   2 KHSTT,
             16517    1   3 INPINTCNT UBIN(36)INIT(0),3 OTPINTCNT UBIN(36)INIT(0),
             16518    1   3 INPINTISATIM UBIN(36)INIT(0),3 OTPINTISATIM UBIN(36)INIT(0),
             16519    1   3 INPBFRBYTUTL UBIN(36)INIT(0),3 OTPBFRBYTUTL UBIN(36)INIT(0),
PL6.E3A0      #001=P_FEP_E File=PS_FEP_E.:E05TSI                                 TUE 07/29/97 07:43 Page:15
             16520    1   3 CTXBYTUTL UBIN(36)INIT(0) ,
             16522    1   2 LINSPDDST(0:15)UBIN(36) INIT(0*0),2 OTPBFRGETCNT_SML UBIN(36) INIT
             16523    1   (0),2 OTPBFRGETCNT_BIG UBIN(36) INIT(0),2 OTPBFRFULCNT_SML UBIN
             16524    1   (36) INIT(0),2 OTPBFRFULCNT_BIG UBIN(36) INIT(0),2 CIRCUITS UBIN
             16525    1   (36) INIT(0),2 TIMEOUTS UBIN(36) INIT(0) ;
       56    16527        %PS_LCP6STT;
             16528        %LSET LISTDIR = '0'B;
             16547    1   DCL 1 PS_LCP6STT BASED WALIGNED,
             16705    1         2 REQSTATS WALIGNED,
             16711    1         3 FNC  UBIN BYTE /*(36)*/ UNAL,
             16716    1         3 NODE_NUM UBIN BYTE /*(0)*/ UNAL,
             16717    1         3 SRCE_NODE UBIN BYTE UNAL /*(0)*/,
             16718    1         3 * UBIN BYTE UNAL /*(0)*/,
             16735    1   3 ERRCODE ALIGNED,
             16749    1   4 FCG  BIT(12)/*('0'B)/**/ ,
             16762    1   4 MID  BIT(6)/*('0'B)/**/ ,4 MON  BIT(1)/*('0'B)/**/ ,
             16763    1   4 ERR#  UBIN(14)/*(0)/**/ UNAL,4 SEV  UBIN(3)/*(0)/**/
             16764    1   UNAL ,
             16769    1         3 STATSSTA CHAR(8) /*(' ')*/,
             16773    1         3 FEPNAME CHAR(8) /*('?')*/,
             16779    1         3 HANDLER CHAR(8) /*('?')*/,
             16790    1         3 * BIT(4) /*('0'B)*/,
             16792    1         3 DSPMSK BIT(32) /*( '00000000000000000000000000000000'B )*/,
             16798    1         3 DSPENT(0:31) REDEF DSPMSK BIT(1),
             16831    1         3 * BIT(4) /*('0'B)*/,
             16833    1         3 SLCMSK BIT(32) /*( '00000000000000000000000000000000'B )*/
             16839    1         ,
             16840    1         3 SLCENT(0:31) REDEF SLCMSK BIT(1)
             16842    1         ,
             16847    1         2 UXEQTIME(0:3) UBIN(36) /*(0)*/,
             16851    1         2 USRVTIME(0:3) UBIN(36) /*(0)*/ UNAL,
             16855    1         2 MXEQTIME(0:3) UBIN(36) /*(0)*/,
             16858    1         2 MIDLTIME(0:3) UBIN(36) /*(0)*/,
             16861    1         2 BOOT_UTS UBIN(36) /*(0)*/,
             16866    1         2 CURR_UTS UBIN(36) /*(0)*/,
             16868    1         2 PAGES_TOTSHF UBIN(36) /*(0)*/,
             16870    1         2 PAGES_TOTNONSHF UBIN(36) /*(0)*/,
PL6.E3A0      #001=P_FEP_E File=PS_FEP_E.:E05TSI                                 TUE 07/29/97 07:43 Page:16
             16872    1         2 PAGES_FRESHF UBIN(36) /*(0)*/,
             16874    1         2 PAGES_FRENONSHF UBIN(36) /*(0)*/,
             16876    1         2 PAGES_AVLSHF UBIN(36) /*(0)*/,
             16878    1         2 PAGES_CG_FPRG UBIN(36) /*(0)*/,
             16880    1         2 PAGES_TS_FPRG UBIN(36) /*(0)*/,
             16882    1         2 PAGES_HANDLER UBIN(36) /*(0)*/,
             16884    1         2 PAGES_GHOST UBIN(36) /*(0)*/,
             16886    1         2 PAGES_MONITOR UBIN(36) /*(0)*/,
             16888    1         2 PAGES_TOTAL UBIN(36) /*(0)*/,
             16890    1         2 USERS_CG_FPRG UBIN(36) /*(0)*/,
             16892    1         2 USERS_TS_FPRG UBIN(36) /*(0)*/,
             16894    1         2 USERS_HANDLER UBIN(36) /*(0)*/,
             16896    1         2 USERS_GHOST UBIN(36) /*(0)*/,
             16897    1         2 READS_HOST UBIN(36) /*(0)*/,
             16902    1         2 READS_UC UBIN(36) /*(0)*/,
             16907    1         2 READS_LG UBIN(36) /*(0)*/,
             16912    1         2 READS_NA UBIN(36) /*(0)*/,
             16917    1         2 WRITES_HOST UBIN(36) /*(0)*/,
             16922    1         2 WRITES_UC UBIN(36) /*(0)*/,
             16927    1         2 WRITES_LG UBIN(36) /*(0)*/,
             16932    1         2 WRITES_NA UBIN(36) /*(0)*/,
             16937    1         2 BYTES_READ_HOST UBIN(36) /*(0)*/,
             16942    1         2 BYTES_READ_UC UBIN(36) /*(0)*/,
             16947    1         2 BYTES_READ_LG UBIN(36) /*(0)*/,
             16952    1         2 BYTES_READ_NA UBIN(36) /*(0)*/,
             16957    1         2 BYTES_WRT_HOST UBIN(36) /*(0)*/,
             16962    1         2 BYTES_WRT_UC UBIN(36) /*(0)*/,
             16967    1         2 BYTES_WRT_LG UBIN(36) /*(0)*/,
             16972    1         2 BYTES_WRT_NA UBIN(36) /*(0)*/,
             16977    1         2 CURR_USERS UBIN(36) /*(0)*/,
             16982    1         2 CURR_SSN UBIN(36) /*(0)*/,
             16987    1         2 CURR_LDCT UBIN(36) /*(0)*/,
             16992    1         2 CURR_IOP UBIN(36) /*(0)*/,
             16997    1         2 PEAK_USERS UBIN(36) /*(0)*/,
             17002    1         2 PEAK_SSN UBIN(36) /*(0)*/,
             17007    1         2 PEAK_LDCT UBIN(36) /*(0)*/,
             17012    1         2 PEAK_IOP UBIN(36) /*(0)*/,
PL6.E3A0      #001=P_FEP_E File=PS_FEP_E.:E05TSI                                 TUE 07/29/97 07:43 Page:17
             17017    1         2 FPRG_FTCH_HOST UBIN(36) /*(0)*/,
             17022    1         2 FPRG_FTCH_SFILE UBIN(36) /*(0)*/;
       57    17030        %KL_REQSTATS;
             17031        %LSET LISTDIR = '0'B;
             17182    1   DCL 1 KL_REQSTATS BASED WALIGNED,
             17190    1         2 FNC  UBIN BYTE /*(36)*/ UNAL,
             17195    1         2 NODE_NUM UBIN BYTE /*(0)*/ UNAL,
             17196    1         2 SRCE_NODE UBIN BYTE UNAL /*(0)*/,
             17197    1         2 * UBIN BYTE UNAL /*(0)*/,
             17214    1   2 ERRCODE ALIGNED,
             17228    1   3 FCG  BIT(12)/*('0'B)/**/ ,
             17241    1   3 MID  BIT(6)/*('0'B)/**/ ,3 MON  BIT(1)/*('0'B)/**/ ,
             17242    1   3 ERR#  UBIN(14)/*(0)/**/ UNAL,3 SEV  UBIN(3)/*(0)/**/
             17243    1   UNAL ,
             17248    1         2 STATSSTA CHAR(8) /*(' ')*/,
             17252    1         2 FEPNAME CHAR(8) /*('?')*/,
             17258    1         2 HANDLER CHAR(8) /*('?')*/,
             17269    1         2 * BIT(4) /*('0'B)*/,
             17271    1         2 DSPMSK BIT(32) /*( '00000000000000000000000000000000'B )*/,
             17277    1         2 DSPENT(0:31) REDEF DSPMSK BIT(1),
             17310    1         2 * BIT(4) /*('0'B)*/,
             17312    1         2 SLCMSK BIT(32) /*( '00000000000000000000000000000000'B )*/
             17318    1         ,
             17319    1         2 SLCENT(0:31) REDEF SLCMSK BIT(1)
             17321    1         ;
       58    17323        %FEPTEMP;
             17324        %LSET LISTDIR = '0'B;
             17338    1   DCL 1 FEPTEMP STATIC WALIGNED,
             17342    1          2 * UBIN INIT(0),
             17343    1          2 SCHED_TICS UBIN INIT(0),
             17344    1          2 DELTA_MIN UBIN INIT(0),
             17345    1          2 DELTA_HUNDR SBIN INIT(0),
             17346    1          2 TCBCPU UBIN INIT(0),
             17347    1          2 ALLCPU UBIN INIT(0),
             17348    1          2 BFRSIZ(0:12) UBIN INIT(0*0),
             17349    1          2 BFRWRDS(0:12) UBIN INIT(0*0),
             17350    1          2 CURR_UTS UBIN INIT(0),
PL6.E3A0      #001=P_FEP_E File=PS_FEP_E.:E05TSI                                 TUE 07/29/97 07:43 Page:18
             17351    1          2 BOOT_UTS UBIN INIT(0),
             17352    1          2 SPARE(0:10) UBIN INIT(0*0) ;
       59    17354        %KJ$STT_FEI(NAME=KJ_FEI,STCLASS="STATIC SYMDEF");
             17355        %LSET LISTDIR='0'B;
             17368    1   DCL 1 KJ_FEI STATIC SYMDEF ALIGNED,
             17526    1         2 REQSTATS WALIGNED,
             17532    1         3 FNC  UBIN BYTE INIT(36) UNAL,
             17537    1         3 NODE_NUM UBIN BYTE INIT(0) UNAL,
             17538    1         3 SRCE_NODE UBIN BYTE UNAL INIT(0),
             17539    1         3 * UBIN BYTE UNAL INIT(0),
             17556    1   3 ERRCODE ALIGNED,
             17570    1   4 FCG  BIT(12)INIT('0'B)/**/ ,
             17583    1   4 MID  BIT(6)INIT('0'B)/**/ ,4 MON  BIT(1)INIT('0'B)/**/ ,
             17584    1   4 ERR#  UBIN(14)INIT(0)/**/ UNAL,4 SEV  UBIN(3)INIT(0)/**/
             17585    1   UNAL ,
             17590    1         3 STATSSTA CHAR(8) INIT(' '),
             17594    1         3 FEPNAME CHAR(8) INIT('?'),
             17600    1         3 HANDLER CHAR(8) INIT('?'),
             17611    1         3 * BIT(4) INIT('0'B),
             17613    1         3 DSPMSK BIT(32) INIT( '00000000000000000000000000000000'B ),
             17619    1         3 DSPENT(0:31) REDEF DSPMSK BIT(1),
             17652    1         3 * BIT(4) INIT('0'B),
             17654    1         3 SLCMSK BIT(32) INIT( '00000000000000000000000000000000'B )
             17660    1         ,
             17661    1         3 SLCENT(0:31) REDEF SLCMSK BIT(1)
             17663    1         ,
             17681    1   2 USRSTT,
             17683    1   3 INPINTCNT UBIN(36)INIT(0),3 OTPINTCNT UBIN(36)INIT(0),
             17684    1   3 INPINTISATIM UBIN(36)INIT(0),3 OTPINTISATIM UBIN(36)INIT(0),
             17685    1   3 INPBFRBYTUTL UBIN(36)INIT(0),3 OTPBFRBYTUTL UBIN(36)INIT(0),
             17686    1   3 CTXBYTUTL UBIN(36)INIT(0) ,
             17688    1            2 ICQ_MSGS UBIN(32) INIT(0) /**/,
             17689    1            2 OCQ_MSGS UBIN(32) INIT(0) /**/,
             17690    1            2 ICQ_MBC UBIN(32) INIT(0) /**/,
             17691    1            2 OCQ_MBC UBIN(32) INIT(0) /**/,
             17692    1            2 DCW_ABRT UBIN(32) INIT(0) /**/,
             17693    1            2 SCHXEQTIM UBIN(32) INIT(0) /**/,
PL6.E3A0      #001=P_FEP_E File=PS_FEP_E.:E05TSI                                 TUE 07/29/97 07:43 Page:19
             17694    1            2 DATAFNC,
             17695    1                 3 RUOK UBIN(32) INIT(0) /**/,
             17696    1                 3 ODATA UBIN(32) INIT(0) /**/,
             17697    1                 3 NOP UBIN(32) INIT(0) /**/,
             17698    1                 3 TIM UBIN(32) INIT(0) /**/ ;
       60    17700    1   END;

PL6.E3A0      #001=P_FEP_E File=PS_FEP_E.:E05TSI                                 TUE 07/29/97 07:43 Page:20
--  Include file information  --

   KJ_MACRO_M.:E05TOU  is referenced.
   P_FEP_M.:E05TOU  is referenced.
   KXX_MACROS_M.:E05TOU  is referenced.
   KX_MACROS_M.:E05TOU  is referenced.
   KZ$3270STT.:E05TOU  is referenced.
   KV$BPC.:E05TOU  is referenced.
   KZ$BSCSTT.:E05TOU  is referenced.
   KY_URP_M.:E05TOU  is referenced.
   KY_SUBS_C.:E05TOU  is referenced.
   KZ$RBT_M.:E05TOU  is referenced.
   KA_GLB.:E05TOU  is referenced.
   KH$STT.:E05TOU  is referenced.
   KV$GLB.:E05TOU  is referenced.
   KV_GLBCNS_E.:E05TOU  is referenced.
   K_ID_E.:E05TOU  is referenced.
   KL_MACRO_C.:E05TOU  is referenced.
   KL_AFCN_C.:E05TOU  is referenced.
   CP_6_C.:E05TOU  is referenced.
   CP_6.:E05TOU  cannot be made into a system file and is referenced.
      No diagnostics issued in procedure P_FEP_E.

   No code generated for procedure P_FEP_E .
   Procedure P_FEP_E requires 4 words of local(AUTO) storage.

    No errors detected in file PS_FEP_E.:E05TSI    .

PL6.E3A0      #001=P_FEP_E File=PS_FEP_E.:E05TSI                                 TUE 07/29/97 07:43 Page:21
          *** CROSS REFERENCE LISTING ***
**     DENOTES     IDENTIFIER DEFINITION
<<                 IDENTIFIER'S VALUE SET
>>                 IDENTIFIER'S VALUE USED
<>                 IDENTIFIER SET AND/OR USED
--                 IDENTIFIER REFERENCED
PL6.E3A0      #001=P_FEP_E File=PS_FEP_E.:E05TSI                                 TUE 07/29/97 07:43 Page:22
          MINI XREF LISTING

KA_STT.REQSTATS.DSPMSK
     13870**DCL     13876--REDEF
KA_STT.REQSTATS.SLCMSK
     13911**DCL     13918--REDEF
KJ_FEI.REQSTATS.DSPMSK
     17613**DCL     17619--REDEF
KJ_FEI.REQSTATS.SLCMSK
     17654**DCL     17661--REDEF
KL_REQSTATS.DSPMSK
     17271**DCL     17277--REDEF
KL_REQSTATS.SLCMSK
     17312**DCL     17319--REDEF
KV$STT.REQSTATS.DSPMSK
     13466**DCL     13472--REDEF
KV$STT.REQSTATS.SLCMSK
     13507**DCL     13514--REDEF
KX_HDLC.REQSTATS.DSPMSK
     15798**DCL     15804--REDEF
KX_HDLC.REQSTATS.SLCMSK
     15839**DCL     15846--REDEF
KX_X25.REQSTATS.DSPMSK
     16122**DCL     16128--REDEF
KX_X25.REQSTATS.SLCMSK
     16163**DCL     16170--REDEF
KX_X29.REQSTATS.DSPMSK
     16447**DCL     16453--REDEF
KX_X29.REQSTATS.SLCMSK
     16488**DCL     16495--REDEF
KY_URP.REQSTATS.DSPMSK
     14644**DCL     14650--REDEF
KY_URP.REQSTATS.SLCMSK
     14685**DCL     14692--REDEF
PL6.E3A0      #001=P_FEP_E File=PS_FEP_E.:E05TSI                                 TUE 07/29/97 07:43 Page:23
KZ$3270STT.REQSTATS.DSPMSK
     15392**DCL     15398--REDEF
KZ$3270STT.REQSTATS.SLCMSK
     15433**DCL     15440--REDEF
KZ$BSCSTT.REQSTATS.DSPMSK
     14988**DCL     14994--REDEF
KZ$BSCSTT.REQSTATS.SLCMSK
     15029**DCL     15036--REDEF
KZ$SYNC.REQSTATS.DSPMSK
     14262**DCL     14268--REDEF
KZ$SYNC.REQSTATS.SLCMSK
     14303**DCL     14310--REDEF
PS_LCP6STT.REQSTATS.DSPMSK
     16792**DCL     16798--REDEF
PS_LCP6STT.REQSTATS.SLCMSK
     16833**DCL     16840--REDEF


07:44 JUL 29 '97 PS_FEP_E.:E05TOU                                          1
    1      %EQU KV$STT#           =      0;
    2      %EQU KV$STT_REQSTATS#  =      0;
    3      %EQU KV$STT_REQSTATS_FNC#  =      0;
    4      %EQU KV$STT_REQSTATS_NODE_NUM#  =      0;
    5      %EQU KV$STT_REQSTATS_SRCE_NODE#  =      0;
    6      %EQU KV$STT_REQSTATS_ERRCODE#  =      1;
    7      %EQU KV$STT_REQSTATS_STATSSTA#  =      2;
    8      %EQU KV$STT_REQSTATS_FEPNAME#  =      4;
    9      %EQU KV$STT_REQSTATS_HANDLER#  =      6;
   10      %EQU KV$STT_REQSTATS_DSPMSK#  =      8;
   11      %EQU KV$STT_REQSTATS_DSPENT#  =      8;
   12      %EQU KV$STT_REQSTATS_SLCMSK#  =      9;
   13      %EQU KV$STT_REQSTATS_SLCENT#  =      9;
   14      %EQU KV$STT_ID#        =     10;
   15      %EQU KV$STT_RCV#       =     11;
   16      %EQU KV$STT_RCV_VDOCNT#  =     11;
   17      %EQU KV$STT_RCV_VDOBYTCNT#  =     12;
   18      %EQU KV$STT_RCV_DATVDOCNT#  =     13;
   19      %EQU KV$STT_RCV_DATVDOBYTCNT#  =     14;
   20      %EQU KV$STT_RCV_DATVDODATBYTCNT#  =     15;
   21      %EQU KV$STT_RCV_SSNINTDATUNTCNT#  =     16;
   22      %EQU KV$STT_RCV_SSNINTDATUNTBYTCNT#  =     17;
   23      %EQU KV$STT_SND#       =     18;
   24      %EQU KV$STT_SND_VDOCNT#  =     18;
   25      %EQU KV$STT_SND_VDOBYTCNT#  =     19;
   26      %EQU KV$STT_SND_DATVDOCNT#  =     20;
   27      %EQU KV$STT_SND_DATVDOBYTCNT#  =     21;
   28      %EQU KV$STT_SND_DATVDODATBYTCNT#  =     22;
   29      %EQU KV$STT_SND_SSNINTDATUNTCNT#  =     23;
   30      %EQU KV$STT_SND_SSNINTDATUNTBYTCNT#  =     24;
   31      %EQU KV$STT_INPCHRCNT#  =     25;
   32      %EQU KV$STT_OTPCHRCNT#  =     26;
   33      %EQU KV$STT_CNCEVTCNT#  =     27;
   34      %EQU KV$STT_USRENTCNT#  =     28;
   35      %EQU KV$STT_USRENTDFRCNT#  =     29;
   36      %EQU KV$STT_SCHEXCTIM#  =     30;
   37      %EQU KV$STT_RCVVDOFNCCNT#  =     35;
07:44 JUL 29 '97 PS_FEP_E.:E05TOU                                          2
   38      %EQU KV$STT_SNDVDOFNCCNT#  =     72;
   39      %EQU KV$STT_BYTUTL#    =    109;
   40      %EQU KV$STT_BFRGETCNT#  =    146;
   41      %EQU KV$STT_BFRCNT#    =    183;
   42      %EQU KV$STT_VDIVDHFNCCNT#  =    220;
   43      %EQU KV$STT_VDIUSRFNCCNT#  =    240;
   44      %EQU KV$STT_VDIVDHEVTCNT#  =    256;
   45      %EQU KV$STT_VDIUSREVTCNT#  =    261;
   46      %EQU KH$STT#           =      0;
   47      %EQU KH$STT_INPINTCNT#  =      0;
   48      %EQU KH$STT_OTPINTCNT#  =      1;
   49      %EQU KH$STT_INPINTISATIM#  =      2;
   50      %EQU KH$STT_OTPINTISATIM#  =      3;
   51      %EQU KH$STT_INPBFRBYTUTL#  =      4;
   52      %EQU KH$STT_OTPBFRBYTUTL#  =      5;
   53      %EQU KH$STT_CTXBYTUTL#  =      6;
   54      %EQU KA_STT#           =      0;
   55      %EQU KA_STT_REQSTATS#  =      0;
   56      %EQU KA_STT_REQSTATS_FNC#  =      0;
   57      %EQU KA_STT_REQSTATS_NODE_NUM#  =      0;
   58      %EQU KA_STT_REQSTATS_SRCE_NODE#  =      0;
   59      %EQU KA_STT_REQSTATS_ERRCODE#  =      1;
   60      %EQU KA_STT_REQSTATS_STATSSTA#  =      2;
   61      %EQU KA_STT_REQSTATS_FEPNAME#  =      4;
   62      %EQU KA_STT_REQSTATS_HANDLER#  =      6;
   63      %EQU KA_STT_REQSTATS_DSPMSK#  =      8;
   64      %EQU KA_STT_REQSTATS_DSPENT#  =      8;
   65      %EQU KA_STT_REQSTATS_SLCMSK#  =      9;
   66      %EQU KA_STT_REQSTATS_SLCENT#  =      9;
   67      %EQU KA_STT_KHSTT#     =     10;
   68      %EQU KA_STT_KHSTT_INPINTCNT#  =     10;
   69      %EQU KA_STT_KHSTT_OTPINTCNT#  =     11;
   70      %EQU KA_STT_KHSTT_INPINTISATIM#  =     12;
   71      %EQU KA_STT_KHSTT_OTPINTISATIM#  =     13;
   72      %EQU KA_STT_KHSTT_INPBFRBYTUTL#  =     14;
   73      %EQU KA_STT_KHSTT_OTPBFRBYTUTL#  =     15;
   74      %EQU KA_STT_KHSTT_CTXBYTUTL#  =     16;
07:44 JUL 29 '97 PS_FEP_E.:E05TOU                                          3
   75      %EQU KA_STT_DVCDFNBYTUTL#  =     17;
   76      %EQU KA_STT_LINSPDDST#  =     18;
   77      %EQU KA_STT_OTPBFRGETCNT_SML#  =     34;
   78      %EQU KA_STT_OTPBFRGETCNT_BIG#  =     35;
   79      %EQU KA_STT_OTPBFRFULCNT_SML#  =     36;
   80      %EQU KA_STT_OTPBFRFULCNT_BIG#  =     37;
   81      %EQU KA_STT_BPSTT#     =     38;
   82      %EQU KA_STT_BPSTT_TOT#  =     38;
   83      %EQU KA_STT_BPSTT_USE#  =     39;
   84      %EQU KA_STT_BPSTT_MXU#  =     40;
   85      %EQU KA_STT_BPSTT_GETC#  =     41;
   86      %EQU KA_STT_BPSTT_RLSC#  =     42;
   87      %EQU KA_STT_BPSTT_GETT#  =     43;
   88      %EQU KA_STT_BPSTT_RLST#  =     44;
   89      %EQU KA_STT_BPSTT_GETF#  =     45;
   90      %EQU KA_STT_BPSTT_FRG#  =     46;
   91      %EQU KA_STT_BPSTT_CMB#  =     47;
   92      %EQU KA_STT_BPSTT_SCH#  =     48;
   93      %EQU KA_STT_BPSTT_CLKCTX#  =     49;
   94      %EQU KA_STT_BPSTT_CLKC#  =     50;
   95      %EQU KA_STT_BPSTT_CLKE#  =     51;
   96      %EQU KA_STT_BPSTT_COUNT#  =     52;
   97      %EQU KA_STT_BPSTT_PKCNT#  =     65;
   98      %EQU KA_STT_BPSTT_MINSIZ#  =     78;
   99      %EQU KZ$SYNC#          =      0;
  100      %EQU KZ$SYNC_REQSTATS#  =      0;
  101      %EQU KZ$SYNC_REQSTATS_FNC#  =      0;
  102      %EQU KZ$SYNC_REQSTATS_NODE_NUM#  =      0;
  103      %EQU KZ$SYNC_REQSTATS_SRCE_NODE#  =      0;
  104      %EQU KZ$SYNC_REQSTATS_ERRCODE#  =      1;
  105      %EQU KZ$SYNC_REQSTATS_STATSSTA#  =      2;
  106      %EQU KZ$SYNC_REQSTATS_FEPNAME#  =      4;
  107      %EQU KZ$SYNC_REQSTATS_HANDLER#  =      6;
  108      %EQU KZ$SYNC_REQSTATS_DSPMSK#  =      8;
  109      %EQU KZ$SYNC_REQSTATS_DSPENT#  =      8;
  110      %EQU KZ$SYNC_REQSTATS_SLCMSK#  =      9;
  111      %EQU KZ$SYNC_REQSTATS_SLCENT#  =      9;
07:44 JUL 29 '97 PS_FEP_E.:E05TOU                                          4
  112      %EQU KZ$SYNC_KHSTT#    =     10;
  113      %EQU KZ$SYNC_KHSTT_INPINTCNT#  =     10;
  114      %EQU KZ$SYNC_KHSTT_OTPINTCNT#  =     11;
  115      %EQU KZ$SYNC_KHSTT_INPINTISATIM#  =     12;
  116      %EQU KZ$SYNC_KHSTT_OTPINTISATIM#  =     13;
  117      %EQU KZ$SYNC_KHSTT_INPBFRBYTUTL#  =     14;
  118      %EQU KZ$SYNC_KHSTT_OTPBFRBYTUTL#  =     15;
  119      %EQU KZ$SYNC_KHSTT_CTXBYTUTL#  =     16;
  120      %EQU KZ$SYNC_CHROUT#   =     17;
  121      %EQU KZ$SYNC_CHRIN#    =     18;
  122      %EQU KZ$SYNC_BLKOUT#   =     19;
  123      %EQU KZ$SYNC_BLKIN#    =     20;
  124      %EQU KZ$SYNC_TRNSCT#   =     21;
  125      %EQU KZ$SYNC_TOTCNC#   =     22;
  126      %EQU KZ$SYNC_TOTSSN#   =     23;
  127      %EQU KZ$SYNC_BPSTT#    =     24;
  128      %EQU KZ$SYNC_BPSTT_TOT#  =     24;
  129      %EQU KZ$SYNC_BPSTT_USE#  =     25;
  130      %EQU KZ$SYNC_BPSTT_MXU#  =     26;
  131      %EQU KZ$SYNC_BPSTT_GETC#  =     27;
  132      %EQU KZ$SYNC_BPSTT_RLSC#  =     28;
  133      %EQU KZ$SYNC_BPSTT_GETT#  =     29;
  134      %EQU KZ$SYNC_BPSTT_RLST#  =     30;
  135      %EQU KZ$SYNC_BPSTT_GETF#  =     31;
  136      %EQU KZ$SYNC_BPSTT_FRG#  =     32;
  137      %EQU KZ$SYNC_BPSTT_CMB#  =     33;
  138      %EQU KZ$SYNC_BPSTT_SCH#  =     34;
  139      %EQU KZ$SYNC_BPSTT_CLKCTX#  =     35;
  140      %EQU KZ$SYNC_BPSTT_CLKC#  =     36;
  141      %EQU KZ$SYNC_BPSTT_CLKE#  =     37;
  142      %EQU KZ$SYNC_BPSTT_COUNT#  =     38;
  143      %EQU KZ$SYNC_BPSTT_PKCNT#  =     51;
  144      %EQU KZ$SYNC_BPSTT_MINSIZ#  =     64;
  145      %EQU KZ$SYNC_ACTSTR#   =     65;
  146      %EQU KZ$SYNC_PTHTICS#  =     66;
  147      %EQU KY_URP#           =      0;
  148      %EQU KY_URP_REQSTATS#  =      0;
07:44 JUL 29 '97 PS_FEP_E.:E05TOU                                          5
  149      %EQU KY_URP_REQSTATS_FNC#  =      0;
  150      %EQU KY_URP_REQSTATS_NODE_NUM#  =      0;
  151      %EQU KY_URP_REQSTATS_SRCE_NODE#  =      0;
  152      %EQU KY_URP_REQSTATS_ERRCODE#  =      1;
  153      %EQU KY_URP_REQSTATS_STATSSTA#  =      2;
  154      %EQU KY_URP_REQSTATS_FEPNAME#  =      4;
  155      %EQU KY_URP_REQSTATS_HANDLER#  =      6;
  156      %EQU KY_URP_REQSTATS_DSPMSK#  =      8;
  157      %EQU KY_URP_REQSTATS_DSPENT#  =      8;
  158      %EQU KY_URP_REQSTATS_SLCMSK#  =      9;
  159      %EQU KY_URP_REQSTATS_SLCENT#  =      9;
  160      %EQU KY_URP_USRSTT#    =     10;
  161      %EQU KY_URP_USRSTT_INPINTCNT#  =     10;
  162      %EQU KY_URP_USRSTT_OTPINTCNT#  =     11;
  163      %EQU KY_URP_USRSTT_INPINTISATIM#  =     12;
  164      %EQU KY_URP_USRSTT_OTPINTISATIM#  =     13;
  165      %EQU KY_URP_USRSTT_INPBFRBYTUTL#  =     14;
  166      %EQU KY_URP_USRSTT_OTPBFRBYTUTL#  =     15;
  167      %EQU KY_URP_USRSTT_CTXBYTUTL#  =     16;
  168      %EQU KY_URP_NUMDVC#    =     17;
  169      %EQU KZ$BSCSTT#        =      0;
  170      %EQU KZ$BSCSTT_REQSTATS#  =      0;
  171      %EQU KZ$BSCSTT_REQSTATS_FNC#  =      0;
  172      %EQU KZ$BSCSTT_REQSTATS_NODE_NUM#  =      0;
  173      %EQU KZ$BSCSTT_REQSTATS_SRCE_NODE#  =      0;
  174      %EQU KZ$BSCSTT_REQSTATS_ERRCODE#  =      1;
  175      %EQU KZ$BSCSTT_REQSTATS_STATSSTA#  =      2;
  176      %EQU KZ$BSCSTT_REQSTATS_FEPNAME#  =      4;
  177      %EQU KZ$BSCSTT_REQSTATS_HANDLER#  =      6;
  178      %EQU KZ$BSCSTT_REQSTATS_DSPMSK#  =      8;
  179      %EQU KZ$BSCSTT_REQSTATS_DSPENT#  =      8;
  180      %EQU KZ$BSCSTT_REQSTATS_SLCMSK#  =      9;
  181      %EQU KZ$BSCSTT_REQSTATS_SLCENT#  =      9;
  182      %EQU KZ$BSCSTT_KHSTT#  =     10;
  183      %EQU KZ$BSCSTT_KHSTT_INPINTCNT#  =     10;
  184      %EQU KZ$BSCSTT_KHSTT_OTPINTCNT#  =     11;
  185      %EQU KZ$BSCSTT_KHSTT_INPINTISATIM#  =     12;
07:44 JUL 29 '97 PS_FEP_E.:E05TOU                                          6
  186      %EQU KZ$BSCSTT_KHSTT_OTPINTISATIM#  =     13;
  187      %EQU KZ$BSCSTT_KHSTT_INPBFRBYTUTL#  =     14;
  188      %EQU KZ$BSCSTT_KHSTT_OTPBFRBYTUTL#  =     15;
  189      %EQU KZ$BSCSTT_KHSTT_CTXBYTUTL#  =     16;
  190      %EQU KZ$BSCSTT_CHROUT#  =     17;
  191      %EQU KZ$BSCSTT_CHRIN#  =     18;
  192      %EQU KZ$BSCSTT_BLKOUT#  =     19;
  193      %EQU KZ$BSCSTT_BLKIN#  =     20;
  194      %EQU KZ$BSCSTT_TRNSCT#  =     21;
  195      %EQU KZ$BSCSTT_TOTCNC#  =     22;
  196      %EQU KZ$BSCSTT_TOTSSN#  =     23;
  197      %EQU KZ$BSCSTT_BPSTT#  =     24;
  198      %EQU KZ$BSCSTT_BPSTT_TOT#  =     24;
  199      %EQU KZ$BSCSTT_BPSTT_USE#  =     25;
  200      %EQU KZ$BSCSTT_BPSTT_MXU#  =     26;
  201      %EQU KZ$BSCSTT_BPSTT_GETC#  =     27;
  202      %EQU KZ$BSCSTT_BPSTT_RLSC#  =     28;
  203      %EQU KZ$BSCSTT_BPSTT_GETT#  =     29;
  204      %EQU KZ$BSCSTT_BPSTT_RLST#  =     30;
  205      %EQU KZ$BSCSTT_BPSTT_GETF#  =     31;
  206      %EQU KZ$BSCSTT_BPSTT_FRG#  =     32;
  207      %EQU KZ$BSCSTT_BPSTT_CMB#  =     33;
  208      %EQU KZ$BSCSTT_BPSTT_SCH#  =     34;
  209      %EQU KZ$BSCSTT_BPSTT_CLKCTX#  =     35;
  210      %EQU KZ$BSCSTT_BPSTT_CLKC#  =     36;
  211      %EQU KZ$BSCSTT_BPSTT_CLKE#  =     37;
  212      %EQU KZ$BSCSTT_BPSTT_COUNT#  =     38;
  213      %EQU KZ$BSCSTT_BPSTT_PKCNT#  =     51;
  214      %EQU KZ$BSCSTT_BPSTT_MINSIZ#  =     64;
  215      %EQU KZ$3270STT#       =      0;
  216      %EQU KZ$3270STT_REQSTATS#  =      0;
  217      %EQU KZ$3270STT_REQSTATS_FNC#  =      0;
  218      %EQU KZ$3270STT_REQSTATS_NODE_NUM#  =      0;
  219      %EQU KZ$3270STT_REQSTATS_SRCE_NODE#  =      0;
  220      %EQU KZ$3270STT_REQSTATS_ERRCODE#  =      1;
  221      %EQU KZ$3270STT_REQSTATS_STATSSTA#  =      2;
  222      %EQU KZ$3270STT_REQSTATS_FEPNAME#  =      4;
07:44 JUL 29 '97 PS_FEP_E.:E05TOU                                          7
  223      %EQU KZ$3270STT_REQSTATS_HANDLER#  =      6;
  224      %EQU KZ$3270STT_REQSTATS_DSPMSK#  =      8;
  225      %EQU KZ$3270STT_REQSTATS_DSPENT#  =      8;
  226      %EQU KZ$3270STT_REQSTATS_SLCMSK#  =      9;
  227      %EQU KZ$3270STT_REQSTATS_SLCENT#  =      9;
  228      %EQU KZ$3270STT_KHSTT#  =     10;
  229      %EQU KZ$3270STT_KHSTT_INPINTCNT#  =     10;
  230      %EQU KZ$3270STT_KHSTT_OTPINTCNT#  =     11;
  231      %EQU KZ$3270STT_KHSTT_INPINTISATIM#  =     12;
  232      %EQU KZ$3270STT_KHSTT_OTPINTISATIM#  =     13;
  233      %EQU KZ$3270STT_KHSTT_INPBFRBYTUTL#  =     14;
  234      %EQU KZ$3270STT_KHSTT_OTPBFRBYTUTL#  =     15;
  235      %EQU KZ$3270STT_KHSTT_CTXBYTUTL#  =     16;
  236      %EQU KZ$3270STT_CHROUT#  =     17;
  237      %EQU KZ$3270STT_CHRIN#  =     18;
  238      %EQU KZ$3270STT_BLKOUT#  =     19;
  239      %EQU KZ$3270STT_BLKIN#  =     20;
  240      %EQU KZ$3270STT_TRNSCT#  =     21;
  241      %EQU KZ$3270STT_TOTCNC#  =     22;
  242      %EQU KZ$3270STT_TOTSSN#  =     23;
  243      %EQU KZ$3270STT_BPSTT#  =     24;
  244      %EQU KZ$3270STT_BPSTT_TOT#  =     24;
  245      %EQU KZ$3270STT_BPSTT_USE#  =     25;
  246      %EQU KZ$3270STT_BPSTT_MXU#  =     26;
  247      %EQU KZ$3270STT_BPSTT_GETC#  =     27;
  248      %EQU KZ$3270STT_BPSTT_RLSC#  =     28;
  249      %EQU KZ$3270STT_BPSTT_GETT#  =     29;
  250      %EQU KZ$3270STT_BPSTT_RLST#  =     30;
  251      %EQU KZ$3270STT_BPSTT_GETF#  =     31;
  252      %EQU KZ$3270STT_BPSTT_FRG#  =     32;
  253      %EQU KZ$3270STT_BPSTT_CMB#  =     33;
  254      %EQU KZ$3270STT_BPSTT_SCH#  =     34;
  255      %EQU KZ$3270STT_BPSTT_CLKCTX#  =     35;
  256      %EQU KZ$3270STT_BPSTT_CLKC#  =     36;
  257      %EQU KZ$3270STT_BPSTT_CLKE#  =     37;
  258      %EQU KZ$3270STT_BPSTT_COUNT#  =     38;
  259      %EQU KZ$3270STT_BPSTT_PKCNT#  =     51;
07:44 JUL 29 '97 PS_FEP_E.:E05TOU                                          8
  260      %EQU KZ$3270STT_BPSTT_MINSIZ#  =     64;
  261      %EQU KZ$3270STT_OTPBFRSIZ#  =     65;
  262      %EQU KZ$3270STT_GENPOL#  =     73;
  263      %EQU KZ$3270STT_SNDOTP#  =     74;
  264      %EQU KZ$3270STT_SEL#   =     75;
  265      %EQU KZ$3270STT_WAT#   =     76;
  266      %EQU KX_HDLC#          =      0;
  267      %EQU KX_HDLC_REQSTATS#  =      0;
  268      %EQU KX_HDLC_REQSTATS_FNC#  =      0;
  269      %EQU KX_HDLC_REQSTATS_NODE_NUM#  =      0;
  270      %EQU KX_HDLC_REQSTATS_SRCE_NODE#  =      0;
  271      %EQU KX_HDLC_REQSTATS_ERRCODE#  =      1;
  272      %EQU KX_HDLC_REQSTATS_STATSSTA#  =      2;
  273      %EQU KX_HDLC_REQSTATS_FEPNAME#  =      4;
  274      %EQU KX_HDLC_REQSTATS_HANDLER#  =      6;
  275      %EQU KX_HDLC_REQSTATS_DSPMSK#  =      8;
  276      %EQU KX_HDLC_REQSTATS_DSPENT#  =      8;
  277      %EQU KX_HDLC_REQSTATS_SLCMSK#  =      9;
  278      %EQU KX_HDLC_REQSTATS_SLCENT#  =      9;
  279      %EQU KX_HDLC_LINES#    =     10;
  280      %EQU KX_HDLC_CONNECTS#  =     11;
  281      %EQU KX_HDLC_DISCONNECTS#  =     12;
  282      %EQU KX_HDLC_BYTES_IN#  =     13;
  283      %EQU KX_HDLC_BYTES_OUT#  =     14;
  284      %EQU KX_HDLC_FRAMES_IN#  =     15;
  285      %EQU KX_HDLC_FRAMES_OUT#  =     16;
  286      %EQU KX_HDLC_TIMEOUTS#  =     17;
  287      %EQU KX_HDLC_RESETS#   =     18;
  288      %EQU KX_HDLC_F_REJECTS_IN#  =     19;
  289      %EQU KX_HDLC_F_REJECTS_OUT#  =     20;
  290      %EQU KX_HDLC_IN_TCB_TICS#  =     21;
  291      %EQU KX_HDLC_OUT_TCB_TICS#  =     22;
  292      %EQU KX_HDLC_IN_TCB_COUNT#  =     23;
  293      %EQU KX_HDLC_OUT_TCB_COUNT#  =     24;
  294      %EQU KX_X25#           =      0;
  295      %EQU KX_X25_REQSTATS#  =      0;
  296      %EQU KX_X25_REQSTATS_FNC#  =      0;
07:44 JUL 29 '97 PS_FEP_E.:E05TOU                                          9
  297      %EQU KX_X25_REQSTATS_NODE_NUM#  =      0;
  298      %EQU KX_X25_REQSTATS_SRCE_NODE#  =      0;
  299      %EQU KX_X25_REQSTATS_ERRCODE#  =      1;
  300      %EQU KX_X25_REQSTATS_STATSSTA#  =      2;
  301      %EQU KX_X25_REQSTATS_FEPNAME#  =      4;
  302      %EQU KX_X25_REQSTATS_HANDLER#  =      6;
  303      %EQU KX_X25_REQSTATS_DSPMSK#  =      8;
  304      %EQU KX_X25_REQSTATS_DSPENT#  =      8;
  305      %EQU KX_X25_REQSTATS_SLCMSK#  =      9;
  306      %EQU KX_X25_REQSTATS_SLCENT#  =      9;
  307      %EQU KX_X25_BYTES_IN#  =     10;
  308      %EQU KX_X25_BYTES_OUT#  =     11;
  309      %EQU KX_X25_PACKETS_IN#  =     12;
  310      %EQU KX_X25_PACKETS_OUT#  =     13;
  311      %EQU KX_X25_D_PACKETS_IN#  =     14;
  312      %EQU KX_X25_D_PACKETS_OUT#  =     15;
  313      %EQU KX_X25_RESTART_IN#  =     16;
  314      %EQU KX_X25_RESTART_OUT#  =     17;
  315      %EQU KX_X25_P_REJECTS_IN#  =     18;
  316      %EQU KX_X25_P_REJECTS_OUT#  =     19;
  317      %EQU KX_X25_CALLS_IN#  =     20;
  318      %EQU KX_X25_CALLS_OUT#  =     21;
  319      %EQU KX_X25_CLEARS_IN#  =     22;
  320      %EQU KX_X25_CLEARS_OUT#  =     23;
  321      %EQU KX_X25_D_BYTES_IN#  =     24;
  322      %EQU KX_X25_D_CMPPACKETS_IN#  =     25;
  323      %EQU KX_X25_P_BLK#     =     26;
  324      %EQU KX_X25_D_CMPPACKETS_OUT#  =     27;
  325      %EQU KX_X25_D_BYTES_OUT#  =     28;
  326      %EQU KX_X25_P_FLOW_IN#  =     29;
  327      %EQU KX_X25_P_FLOW_OUT#  =     30;
  328      %EQU KX_X25_CIRCUITS#  =     31;
  329      %EQU KX_X25_RESETS#    =     32;
  330      %EQU KX_X25_F_BLK#     =     33;
  331      %EQU KX_X25_KXSGET#    =     34;
  332      %EQU KX_X25_KVBGET#    =     35;
  333      %EQU KX_X25_RFU1#      =     36;
07:44 JUL 29 '97 PS_FEP_E.:E05TOU                                          10
  334      %EQU KX_X25_RFU2#      =     37;
  335      %EQU KX_X25_RFU3#      =     38;
  336      %EQU KX_X29#           =      0;
  337      %EQU KX_X29_REQSTATS#  =      0;
  338      %EQU KX_X29_REQSTATS_FNC#  =      0;
  339      %EQU KX_X29_REQSTATS_NODE_NUM#  =      0;
  340      %EQU KX_X29_REQSTATS_SRCE_NODE#  =      0;
  341      %EQU KX_X29_REQSTATS_ERRCODE#  =      1;
  342      %EQU KX_X29_REQSTATS_STATSSTA#  =      2;
  343      %EQU KX_X29_REQSTATS_FEPNAME#  =      4;
  344      %EQU KX_X29_REQSTATS_HANDLER#  =      6;
  345      %EQU KX_X29_REQSTATS_DSPMSK#  =      8;
  346      %EQU KX_X29_REQSTATS_DSPENT#  =      8;
  347      %EQU KX_X29_REQSTATS_SLCMSK#  =      9;
  348      %EQU KX_X29_REQSTATS_SLCENT#  =      9;
  349      %EQU KX_X29_KHSTT#     =     10;
  350      %EQU KX_X29_KHSTT_INPINTCNT#  =     10;
  351      %EQU KX_X29_KHSTT_OTPINTCNT#  =     11;
  352      %EQU KX_X29_KHSTT_INPINTISATIM#  =     12;
  353      %EQU KX_X29_KHSTT_OTPINTISATIM#  =     13;
  354      %EQU KX_X29_KHSTT_INPBFRBYTUTL#  =     14;
  355      %EQU KX_X29_KHSTT_OTPBFRBYTUTL#  =     15;
  356      %EQU KX_X29_KHSTT_CTXBYTUTL#  =     16;
  357      %EQU KX_X29_LINSPDDST#  =     17;
  358      %EQU KX_X29_OTPBFRGETCNT_SML#  =     33;
  359      %EQU KX_X29_OTPBFRGETCNT_BIG#  =     34;
  360      %EQU KX_X29_OTPBFRFULCNT_SML#  =     35;
  361      %EQU KX_X29_OTPBFRFULCNT_BIG#  =     36;
  362      %EQU KX_X29_CIRCUITS#  =     37;
  363      %EQU KX_X29_TIMEOUTS#  =     38;
  364      %EQU PS_LCP6STT#       =      0;
  365      %EQU PS_LCP6STT_REQSTATS#  =      0;
  366      %EQU PS_LCP6STT_REQSTATS_FNC#  =      0;
  367      %EQU PS_LCP6STT_REQSTATS_NODE_NUM#  =      0;
  368      %EQU PS_LCP6STT_REQSTATS_SRCE_NODE#  =      0;
  369      %EQU PS_LCP6STT_REQSTATS_ERRCODE#  =      1;
  370      %EQU PS_LCP6STT_REQSTATS_STATSSTA#  =      2;
07:44 JUL 29 '97 PS_FEP_E.:E05TOU                                          11
  371      %EQU PS_LCP6STT_REQSTATS_FEPNAME#  =      4;
  372      %EQU PS_LCP6STT_REQSTATS_HANDLER#  =      6;
  373      %EQU PS_LCP6STT_REQSTATS_DSPMSK#  =      8;
  374      %EQU PS_LCP6STT_REQSTATS_DSPENT#  =      8;
  375      %EQU PS_LCP6STT_REQSTATS_SLCMSK#  =      9;
  376      %EQU PS_LCP6STT_REQSTATS_SLCENT#  =      9;
  377      %EQU PS_LCP6STT_UXEQTIME#  =     10;
  378      %EQU PS_LCP6STT_USRVTIME#  =     14;
  379      %EQU PS_LCP6STT_MXEQTIME#  =     18;
  380      %EQU PS_LCP6STT_MIDLTIME#  =     22;
  381      %EQU PS_LCP6STT_BOOT_UTS#  =     26;
  382      %EQU PS_LCP6STT_CURR_UTS#  =     27;
  383      %EQU PS_LCP6STT_PAGES_TOTSHF#  =     28;
  384      %EQU PS_LCP6STT_PAGES_TOTNONSHF#  =     29;
  385      %EQU PS_LCP6STT_PAGES_FRESHF#  =     30;
  386      %EQU PS_LCP6STT_PAGES_FRENONSHF#  =     31;
  387      %EQU PS_LCP6STT_PAGES_AVLSHF#  =     32;
  388      %EQU PS_LCP6STT_PAGES_CG_FPRG#  =     33;
  389      %EQU PS_LCP6STT_PAGES_TS_FPRG#  =     34;
  390      %EQU PS_LCP6STT_PAGES_HANDLER#  =     35;
  391      %EQU PS_LCP6STT_PAGES_GHOST#  =     36;
  392      %EQU PS_LCP6STT_PAGES_MONITOR#  =     37;
  393      %EQU PS_LCP6STT_PAGES_TOTAL#  =     38;
  394      %EQU PS_LCP6STT_USERS_CG_FPRG#  =     39;
  395      %EQU PS_LCP6STT_USERS_TS_FPRG#  =     40;
  396      %EQU PS_LCP6STT_USERS_HANDLER#  =     41;
  397      %EQU PS_LCP6STT_USERS_GHOST#  =     42;
  398      %EQU PS_LCP6STT_READS_HOST#  =     43;
  399      %EQU PS_LCP6STT_READS_UC#  =     44;
  400      %EQU PS_LCP6STT_READS_LG#  =     45;
  401      %EQU PS_LCP6STT_READS_NA#  =     46;
  402      %EQU PS_LCP6STT_WRITES_HOST#  =     47;
  403      %EQU PS_LCP6STT_WRITES_UC#  =     48;
  404      %EQU PS_LCP6STT_WRITES_LG#  =     49;
  405      %EQU PS_LCP6STT_WRITES_NA#  =     50;
  406      %EQU PS_LCP6STT_BYTES_READ_HOST#  =     51;
  407      %EQU PS_LCP6STT_BYTES_READ_UC#  =     52;
07:44 JUL 29 '97 PS_FEP_E.:E05TOU                                          12
  408      %EQU PS_LCP6STT_BYTES_READ_LG#  =     53;
  409      %EQU PS_LCP6STT_BYTES_READ_NA#  =     54;
  410      %EQU PS_LCP6STT_BYTES_WRT_HOST#  =     55;
  411      %EQU PS_LCP6STT_BYTES_WRT_UC#  =     56;
  412      %EQU PS_LCP6STT_BYTES_WRT_LG#  =     57;
  413      %EQU PS_LCP6STT_BYTES_WRT_NA#  =     58;
  414      %EQU PS_LCP6STT_CURR_USERS#  =     59;
  415      %EQU PS_LCP6STT_CURR_SSN#  =     60;
  416      %EQU PS_LCP6STT_CURR_LDCT#  =     61;
  417      %EQU PS_LCP6STT_CURR_IOP#  =     62;
  418      %EQU PS_LCP6STT_PEAK_USERS#  =     63;
  419      %EQU PS_LCP6STT_PEAK_SSN#  =     64;
  420      %EQU PS_LCP6STT_PEAK_LDCT#  =     65;
  421      %EQU PS_LCP6STT_PEAK_IOP#  =     66;
  422      %EQU PS_LCP6STT_FPRG_FTCH_HOST#  =     67;
  423      %EQU PS_LCP6STT_FPRG_FTCH_SFILE#  =     68;
  424      %EQU KL_REQSTATS#      =      0;
  425      %EQU KL_REQSTATS_FNC#  =      0;
  426      %EQU KL_REQSTATS_NODE_NUM#  =      0;
  427      %EQU KL_REQSTATS_SRCE_NODE#  =      0;
  428      %EQU KL_REQSTATS_ERRCODE#  =      1;
  429      %EQU KL_REQSTATS_ERRCODE_FCG#  =      1;
  430      %EQU KL_REQSTATS_ERRCODE_MID#  =      1;
  431      %EQU KL_REQSTATS_ERRCODE_MON#  =      1;
  432      %EQU KL_REQSTATS_ERRCODE_ERR##  =      1;
  433      %EQU KL_REQSTATS_ERRCODE_SEV#  =      1;
  434      %EQU KL_REQSTATS_STATSSTA#  =      2;
  435      %EQU KL_REQSTATS_FEPNAME#  =      4;
  436      %EQU KL_REQSTATS_HANDLER#  =      6;
  437      %EQU KL_REQSTATS_DSPMSK#  =      8;
  438      %EQU KL_REQSTATS_DSPENT#  =      8;
  439      %EQU KL_REQSTATS_SLCMSK#  =      9;
  440      %EQU KL_REQSTATS_SLCENT#  =      9;
  441      %EQU FEPTEMP#          =      0;
  442      %EQU FEPTEMP_SCHED_TICS#  =      1;
  443      %EQU FEPTEMP_DELTA_MIN#  =      2;
  444      %EQU FEPTEMP_DELTA_HUNDR#  =      3;
07:44 JUL 29 '97 PS_FEP_E.:E05TOU                                          13
  445      %EQU FEPTEMP_TCBCPU#   =      4;
  446      %EQU FEPTEMP_ALLCPU#   =      5;
  447      %EQU FEPTEMP_BFRSIZ#   =      6;
  448      %EQU FEPTEMP_BFRWRDS#  =     19;
  449      %EQU FEPTEMP_CURR_UTS#  =     32;
  450      %EQU FEPTEMP_BOOT_UTS#  =     33;
  451      %EQU FEPTEMP_SPARE#    =     34;
  452      %EQU KJ_FEI#           =      0;
  453      %EQU KJ_FEI_REQSTATS#  =      0;
  454      %EQU KJ_FEI_REQSTATS_FNC#  =      0;
  455      %EQU KJ_FEI_REQSTATS_NODE_NUM#  =      0;
  456      %EQU KJ_FEI_REQSTATS_SRCE_NODE#  =      0;
  457      %EQU KJ_FEI_REQSTATS_ERRCODE#  =      1;
  458      %EQU KJ_FEI_REQSTATS_STATSSTA#  =      2;
  459      %EQU KJ_FEI_REQSTATS_FEPNAME#  =      4;
  460      %EQU KJ_FEI_REQSTATS_HANDLER#  =      6;
  461      %EQU KJ_FEI_REQSTATS_DSPMSK#  =      8;
  462      %EQU KJ_FEI_REQSTATS_DSPENT#  =      8;
  463      %EQU KJ_FEI_REQSTATS_SLCMSK#  =      9;
  464      %EQU KJ_FEI_REQSTATS_SLCENT#  =      9;
  465      %EQU KJ_FEI_USRSTT#    =     10;
  466      %EQU KJ_FEI_USRSTT_INPINTCNT#  =     10;
  467      %EQU KJ_FEI_USRSTT_OTPINTCNT#  =     11;
  468      %EQU KJ_FEI_USRSTT_INPINTISATIM#  =     12;
  469      %EQU KJ_FEI_USRSTT_OTPINTISATIM#  =     13;
  470      %EQU KJ_FEI_USRSTT_INPBFRBYTUTL#  =     14;
  471      %EQU KJ_FEI_USRSTT_OTPBFRBYTUTL#  =     15;
  472      %EQU KJ_FEI_USRSTT_CTXBYTUTL#  =     16;
  473      %EQU KJ_FEI_ICQ_MSGS#  =     17;
  474      %EQU KJ_FEI_OCQ_MSGS#  =     18;
  475      %EQU KJ_FEI_ICQ_MBC#   =     19;
  476      %EQU KJ_FEI_OCQ_MBC#   =     20;
  477      %EQU KJ_FEI_DCW_ABRT#  =     21;
  478      %EQU KJ_FEI_SCHXEQTIM#  =     22;
  479      %EQU KJ_FEI_DATAFNC#   =     23;
  480      %EQU KJ_FEI_DATAFNC_RUOK#  =     23;
  481      %EQU KJ_FEI_DATAFNC_ODATA#  =     24;
07:44 JUL 29 '97 PS_FEP_E.:E05TOU                                          14
  482      %EQU KJ_FEI_DATAFNC_NOP#  =     25;
  483      %EQU KJ_FEI_DATAFNC_TIM#  =     26;

