VERSION E05

PL6.E3A0      #001=P_PMDAT_D File=P_PMDAT_D.:E05TSI                              WED 07/30/97 04:38 Page:1
        1        1        /*M* P_PMDAT_D    SYMDEFs for performance monitor data                        */
        2        2        /*T***********************************************************/
        3        3        /*T*                                                         */
        4        4        /*T* Copyright (c) Bull HN Information Systems Inc., 1997    */
        5        5        /*T*                                                         */
        6        6        /*T***********************************************************/
        7        7        /*X* CLM=77,CRM=80,CRT=1,PLM=3,CTI=1,THI=2                                    */
        8        8
        9        9        P_PMDAT_D: PROC;
       10       10
       11       11    1   DCL KI_MXFE UBIN WORD SYMREF;
       12       12
       13       13        %INCLUDE MM_DATA_R;
       14      533        %INCLUDE SS_SCHED_R;
       15      576        %INCLUDE P_PMDAT_C;
       16      696        %INCLUDE PM_BUCKET_C;
       17      781        %INCLUDE KI_SUBS_C;
       18      917        %INCLUDE NI_DATA_R;
       19     1354        %INCLUDE NI_DATA_C;
       20     1467        %INCLUDE B$P;
       21     1551        %INCLUDE HF_DATA_R;
       22     1594        %INCLUDE FM_CACHE_R;
       23     1606        %INCLUDE FM_CACHE_C;
       24     1672        %FMC$STATS;
       25     1681
       26     1682        %NI$DVT;
       27     1689        %NI$DCT;
       28     1737        %NI$DQH;
       29     1760        %NI$CHT (STCLASS=BASED);
       30     1763
       31     1764        %P_RESOURCE;
       32     1878    1   DCL P_SPARE UBIN WORD STATIC SYMDEF INIT(0);
       33     1879    1   DCL P_NSCPU UBIN WORD STATIC SYMDEF INIT(0);
       34     1880    1   DCL P_NSCPU_SBIN REDEF P_NSCPU SBIN WORD ;
       35     1881
       36     1882    1   DCL 1 P$TABLE CONSTANT SYMDEF ALIGNED,
       37     1883        /*B*  P$TABLE is a table containing the addresses (or addresses of addresses),
PL6.E3A0      #001=P_PMDAT_D File=P_PMDAT_D.:E05TSI                              WED 07/30/97 04:38 Page:2
       38     1884              sizes, and repetition counts for performance monitor data items.  It
       39     1885              is used by the M$GETPM PMME to locate and transfer to the user's buffer
       40     1886              the various bits of data collected here and there in the system for
       41     1887              performance monitoring purposes.                                        */
       42     1888
       43     1889        /*
       44     1890              *************************************************************
       45     1891              *                                                           *
       46     1892              *               W A R N I N G ! ! ! !                       *
       47     1893              *                                                           *
       48     1894              *************************************************************
       49     1895                                                                                    *//*
       50     1896                 The data transferred via these table entries is primarily for the
       51     1897              use of the STATS program, although other programs may certainly make
       52     1898              use of it.  The entries are order-sensitive due to the fact that STATS
       53     1899              knows the location of the various data items only through their position
       54     1900              in the table.  STATS has an %INCLUDE file called PS_SUBS_C that contains
       55     1901              (among other things) a set of %SUBs that define the entry offset numbers
       56     1902              for each item of data.  If you add any entries to this table, they should
       57     1903              be added at the end (to save having to change all of those %SUBs) and a
       58     1904              new %SUB should be added to PS_SUBS_C for each entry added to the table.
       59     1905              If you have to delete any items (if, for instance, the variable being
       60     1906              sampled is deleted from the system) you would do well to move the last
       61     1907              entry in the table down into the position formerly occupied by the
       62     1908              deleted item - that way you'll only have to change the moved item's
       63     1909              %SUB rather than all %SUBs after the deleted item.
       64     1910                                                                                      */
       65     1911
       66     1912           %PM_ENTRY  (NAME=P_SPARE);
       67     1921           %PM_ENTRY  (NAME=NI$CHT$,
       68     1922                       INDIRECT=1,
       69     1923                       BASED_IMAGE=NI$CHT,
       70     1924                       ENTRIES$=NI_MAX_CHANS,
       71     1925                       WORDS="SIZEW(NI$DQH)");
       72     1934           %PM_ENTRY  (NAME=N$DCT$$,
       73     1935                       INDIRECT=1,
       74     1936                       BASED_IMAGE=N$DCT$,
PL6.E3A0      #001=P_PMDAT_D File=P_PMDAT_D.:E05TSI                              WED 07/30/97 04:38 Page:3
       75     1937                       ENTRIES$=P_DCTXMAX,
       76     1938                       WORDS="SIZEW(NI$DCT)");
       77     1947           %PM_ENTRY  (NAME=NI$DVT$,
       78     1948                       BASED_IMAGE="NI$DVT$(0)",
       79     1949                       ENTRIES$=NI_NDVTS,
       80     1950                       WORDS=6);
       81     1959           %PM_ENTRY  (NAME=P_RUE#, ENTRIES=8);
       82     1968           %PM_ENTRY  (NAME=P_SCHD#, ENTRIES=8);
       83     1977           %PM_ENTRY  (NAME=P_ETMF);
       84     1986           %PM_ENTRY  (NAME=P_NINTS);
       85     1995           %PM_ENTRY  (NAME=P_RT90);
       86     2004           %PM_ENTRY  (NAME=P_RT,
       87     2005                       WORDS="LENGTHW(P_RT)");
       88     2014           %PM_ENTRY  (NAME=P_STARTUP);
       89     2023           %PM_ENTRY  (NAME=S_CTUIS);
       90     2032           %PM_ENTRY  (NAME=S_NSCPU);
       91     2041           %PM_ENTRY  (NAME=SL_QUAN);
       92     2050           %PM_ENTRY  (NAME=SL_QMIN);
       93     2059           %PM_ENTRY  (NAME=S_CUIS, ENTRIES=5);
       94     2068           %PM_ENTRY  (NAME=S_MUIS, ENTRIES=5);
       95     2077           %PM_ENTRY  (NAME=S_PCU, ENTRIES="SIZEW(S_PCU)");
       96     2086           %PM_ENTRY  (NAME=S_PORTNR, ENTRIES="SIZEW(S_PORTNR)");
       97     2095           %PM_ENTRY  (NAME=S_STOP, ENTRIES="SIZEW(S_STOP)");
       98     2104           %PM_ENTRY  (NAME=P_S_UXEQTIME, ENTRIES="SIZEW(P_S_UXEQTIME)");
       99     2113           %PM_ENTRY  (NAME=P_S_USRVTIME, ENTRIES="SIZEW(P_S_USRVTIME)");
      100     2122           %PM_ENTRY  (NAME=P_S_MXEQTIME, ENTRIES="SIZEW(P_S_MXEQTIME)");
      101     2131           %PM_ENTRY  (NAME=P_S_MIDLTIME, ENTRIES="SIZEW(P_S_MIDLTIME)");
      102     2140           %PM_ENTRY  (NAME=P_S_MIDLWIO, ENTRIES="SIZEW(P_S_MIDLWIO)");
      103     2149           %PM_ENTRY  (NAME=P_UXEQTIME, ENTRIES=5);
      104     2158           %PM_ENTRY  (NAME=P_USRVTIME, ENTRIES=5);
      105     2167           %PM_ENTRY  (NAME=P_RESOURCE$,
      106     2168                       INDIRECT=1,
      107     2169                       WORDS="SIZEW(P_RESOURCE)");
      108     2178           %PM_ENTRY  (NAME=P_PMME_TIME,
      109     2179                       WORDS="LENGTHW(P_PMME_TIME)");
      110     2188           %PM_ENTRY  (NAME=P_IOS,
      111     2189                       ENTRIES="SIZEW(P_IOS)");
PL6.E3A0      #001=P_PMDAT_D File=P_PMDAT_D.:E05TSI                              WED 07/30/97 04:38 Page:4
      112     2198           %PM_ENTRY  (NAME=P_INTCOMP,
      113     2199                       WORDS="SIZEW(P_INTCOMP)");
      114     2208           %PM_ENTRY  (NAME=H_FLTCNT,
      115     2209                       ENTRIES="SIZEW(H_FLTCNT)");
      116     2218           %PM_ENTRY  (NAME=P_CALCNT, ENTRIES="SIZEW(P_CALCNT)");
      117     2227           %PM_ENTRY  (NAME=P_CALCOMP, ENTRIES="SIZEW(P_CALCOMP)");
      118     2236           %PM_ENTRY  (NAME=P_UPTIME);
      119     2245           %PM_ENTRY  (NAME=P_AVGETMF);
      120     2254           %PM_ENTRY  (NAME=P_AVGRT90);
      121     2263           %PM_ENTRY  (NAME=MM_BPPC);
      122     2272           %PM_ENTRY  (NAME=MM_SUSPECTS);
      123     2281           %PM_ENTRY  (NAME=MM_IN_TEST);
      124     2290           %PM_ENTRY  (NAME=P_SPARE);                           /* ENTRY 40 available */
      125     2299           %PM_ENTRY  (NAME=P_IOLOAD);
      126     2308           %PM_ENTRY  (NAME=P_AVGIOL);
      127     2317           %PM_ENTRY  (NAME=P_AUIS, ENTRIES=5);
      128     2326           %PM_ENTRY  (NAME=P_STOPTIME, ENTRIES="SIZEW(P_STOPTIME)");
      129     2335           %PM_ENTRY  (NAME=P_NOW);
      130     2344           %PM_ENTRY  (NAME=P_S_MIDLWRES,ENTRIES="SIZEW(P_S_MIDLWRES)");
      131     2353           %PM_ENTRY  (NAME=P_S_MIDLWRESIO,ENTRIES="SIZEW(P_S_MIDLWRESIO)");
      132     2362           %PM_ENTRY  (NAME=P_USERSIZE, WORDS="LENGTHW(P_USERSIZE)");
      133     2371           %PM_ENTRY  (NAME=B$P$,
      134     2372                       INDIRECT=1,
      135     2373                       ENTRIES$=P_LAST_AUTO,
      136     2374                       WORDS="LENGTHW(B$P)");
      137     2383           %PM_ENTRY  (NAME=NI_IOMS);
      138     2392           %PM_ENTRY  (NAME=P_NSCPU);
      139     2401           %PM_ENTRY  (NAME=FMC_STATS$,
      140     2402                       INDIRECT=1,
      141     2403                       WORDS="SIZEW(FMC$STATS)");
      142     2412           %PM_ENTRY  (NAME=P_AVAIL_MEM);
      143     2421           %PM_ENTRY  (NAME=P_AVGAVAIL_MEM);
      144     2430           %PM_ENTRY  (NAME=MM_SPTRNC);
      145     2439           %PM_ENTRY  (NAME=MM_IOTRNC);
      146     2448           %PM_ENTRY (DELIMIT=";");
      147     2457
      148     2458        /*
PL6.E3A0      #001=P_PMDAT_D File=P_PMDAT_D.:E05TSI                              WED 07/30/97 04:38 Page:5
      149     2459                    Scheduler performance data
      150     2460                                                                                      */
      151     2461    1   DCL P_RUE# (0:7) SBIN STATIC SYMDEF INIT (0*0);  /* Number of events reported */
      152     2462    1   DCL P_SCHD# (0:7) SBIN STATIC SYMDEF INIT (0*0);       /* Number of schedules */
      153     2463    1   DCL   P_ETMF SBIN STATIC SYMDEF INIT(1);                              /* ETMF */
      154     2464    1   DCL   P_NINTS SBIN STATIC SYMDEF INIT(0);           /* Number of interactions */
      155     2465    1   DCL   P_RT90 SBIN STATIC SYMDEF INIT(2);                 /* 90% response time */
      156     2466        /*
      157     2467                    Distribution bucket set for response time measurements
      158     2468                                                                                      */
      159     2469        %BUCKET (NAME=P_RT, #_OF_BUCKETS=11,
      160     2470                 MAX_VALUES="1,2,5,10,20,50,100,200,500,1000,2000,99999");
      161     2477        /*
      162     2478                    Distribution bucket set for user-size measurement
      163     2479                                                                                      */
      164     2480        %BUCKET (NAME=P_USERSIZE, #_OF_BUCKETS=19,
      165     2481                 MAX_VALUES="5,10,15,20,25,30,35,40,45,50,55,60,65,70,75,80,85,90,95,0");
      166     2488        /*
      167     2489                    Distribution bucket set for PMME service time
      168     2490        */
      169     2491        %BUCKET (NAME=P_PMME_TIME, #_OF_BUCKETS=10,
      170     2492                 MAX_VALUES="1000,1500,2750,3375,5050,7500,11500,17000,25000,40000,0");
      171     2499        /*
      172     2500                    Distribution bucket set for interactive-compute requirements
      173     2501        */
      174     2502        %BUCKET (NAME=P_INTCOMP, #_OF_BUCKETS=10,
      175     2503                 MAX_VALUES="10,15,25,45,75,130,215,360,600,1000,0");
      176     2510        /*
      177     2511                    User execution and service times - indexed by MODE
      178     2512                    (0=unused, 1=batch, 2=ghost, 3=online, 4=TP)
      179     2513                                                                                      */
      180     2514    1   DCL P_UXEQTIME (0:4) SBIN STATIC SYMDEF INIT (0*0);
      181     2515    1   DCL P_USRVTIME (0:4) SBIN STATIC SYMDEF INIT (0*0);
      182     2516
      183     2517        /*
      184     2518                 Average # of users in system.  Index 0=all users,
      185     2519                 1=batch, 2=ghost, 3=online, 4=TP.
PL6.E3A0      #001=P_PMDAT_D File=P_PMDAT_D.:E05TSI                              WED 07/30/97 04:38 Page:6
      186     2520                                                                                      */
      187     2521    1   DCL P_AUIS (0:4) UBIN STATIC SYMDEF INIT (0*0);
      188     2522    1   DCL P_STARTUP SBIN STATIC SYMDEF;              /* UTS value at system startup */
      189     2523    1   DCL P_CALCNT (0:7) UBIN STATIC SYMDEF INIT (0*0);       /* # of PMMEs started */
      190     2524    1   DCL P_CALCOMP (0:7) UBIN STATIC SYMDEF INIT (0*0);    /* # of PMMEs completed */
      191     2525    1   DCL P_AVGRT90 UBIN STATIC SYMDEF INIT (1); /* Average 90% response since boot */
      192     2526    1   DCL P_AVGETMF UBIN STATIC SYMDEF INIT (1);         /* Average ETMF since boot */
      193     2527    1   DCL P_UPTIME UBIN STATIC SYMDEF INIT (0);               /* Minutes since boot */
      194     2528    1   DCL P_UPTIME_SBIN REDEF P_UPTIME SBIN ;
      195     2529    1   DCL P_IOLOAD UBIN STATIC SYMDEF INIT (0);                  /* I/O load factor */
      196     2530    1   DCL P_AVGIOL UBIN STATIC SYMDEF INIT (0);          /* Average I/O load factor */
      197     2531    1   DCL P_DCTXMAX UBIN STATIC SYMDEF INIT (0);          /* # of DCT table entries */
      198     2532    1   DCL P_STOPTIME (0:7) SBIN STATIC SYMDEF INIT (0*0);       /* CPU-stopped time */
      199     2533    1   DCL P_S_UXEQTIME (0:7) UBIN WORD STATIC SYMDEF INIT (0*0);
      200     2534    1   DCL P_S_USRVTIME (0:7) UBIN WORD STATIC SYMDEF INIT (0*0);
      201     2535    1   DCL P_S_MXEQTIME (0:7) UBIN WORD STATIC SYMDEF INIT (0*0);
      202     2536    1   DCL P_S_MIDLTIME (0:7) UBIN WORD STATIC SYMDEF INIT (0*0);
      203     2537    1   DCL P_S_MIDLWIO (0:7) UBIN WORD STATIC SYMDEF INIT (0*0);
      204     2538    1   DCL P_S_MIDLWRES (0:7) UBIN WORD STATIC SYMDEF INIT (0*0);
      205     2539    1   DCL P_S_MIDLWRESIO (0:7) UBIN WORD STATIC SYMDEF INIT (0*0);
      206     2540    1   DCL P_IOS (0:9) UBIN STATIC SYMDEF INIT (0*0);     /* connects by device type */
      207     2541    1   DCL P_NOW UBIN STATIC SYMDEF;                 /* Time that M$GETPM was issued */
      208     2542    1   DCL P_GATE BIT(72) STATIC SYMDEF DALIGNED INIT ('1'B);    /* performance gate */
      209     2543    1   DCL P_AVAIL_MEM UBIN STATIC SYMDEF INIT(0);   /* # of mem pages now available */
      210     2544    1   DCL P_AVGAVAIL_MEM UBIN STATIC SYMDEF INIT(0);    /* Avg # of mem pages avail */
      211     2545    1   DCL P_RESOURCE$ PTR STATIC SYMDEF INIT (ADDR(NIL));     /* PTR to P_RESOURCE$ */
      212     2546        /*
      213     2547                 MOUSE-specific stuff
      214     2548        */
      215     2549    1   DCL PH_MUS_PAGES (0:PH_MOUSE_PAGES) UBIN WORD
      216     2550    1        STATIC SYMDEF INIT (0*0);
      217     2551    1   DCL PH_MOUSE_LOCK BIT(72) DALIGNED STATIC SYMDEF INIT ('1'B);
      218     2552    1   DCL PH_MOUSE_USERS SBIN WORD STATIC SYMDEF INIT (0);
      219     2553    1   DCL PH_CPU_MOUSED (0:7) BIT(36) ALIGNED STATIC SYMDEF INIT ('0'B*0);
      220     2554    1   DCL PH_MOUSE_USER_NUMBER UBIN WORD STATIC SYMDEF INIT (0);
      221     2555    1   END P_PMDAT_D;

PL6.E3A0      #001=P_PMDAT_D File=P_PMDAT_D.:E05TSI                              WED 07/30/97 04:38 Page:7
--  Include file information  --

   FM_CACHE_C.:E05TOU  is referenced.
   FM_CACHE_R.:E05TOU  cannot be made into a system file and is referenced.
   HF_DATA_R.:E05TOU  cannot be made into a system file and is referenced.
   B$P.:E05TOU  cannot be made into a system file and is referenced.
   NI_DATA_C.:E05TOU  is referenced.
   NI$TABLES.:E05TOU  is referenced.
   N$REQ.:E05TOU  is referenced.
   NI_DATA_R.:E05TOU  cannot be made into a system file and is referenced.
   KI_SUBS_C.:E05TOU  is referenced.
   PM_BUCKET_C.:E05TOU  is referenced.
   P_PMDAT_C.:E05TOU  is referenced.
   SS_CNTRLD_R.:E05TOU  cannot be made into a system file and is referenced.
   SS_CNTRL_R.:E05TOU  cannot be made into a system file and is referenced.
   SS_SCHED_R.:E05TOU  cannot be made into a system file and is referenced.
   MM_MACRO_M.:E05TOU  is referenced.
   B_STRINGS_C.:E05TOU  is referenced.
   MM$SYSGEN.:E05TOU  is referenced.
   M_INFO_C.:E05TOU  is referenced.
   MM_DATA_R.:E05TOU  cannot be made into a system file and is referenced.
      No diagnostics issued in procedure P_PMDAT_D.

   No code generated for procedure P_PMDAT_D .
   Procedure P_PMDAT_D requires 4 words of local(AUTO) storage.

    No errors detected in file P_PMDAT_D.:E05TSI    .

PL6.E3A0      #001=P_PMDAT_D File=P_PMDAT_D.:E05TSI                              WED 07/30/97 04:38 Page:8

 Object Unit name= P_PMDAT_D                                  File name= P_PMDAT_D.:E05TOU
 UTS= JUL 30 '97 04:38:17.76 WED                              Compiler= PL-6/E31         Sev=      00
 SharedLib= :SHARED_SYSTEM                                    Alt SharedLib=


    ****  Control sections  ****

 Sect   Type Bound  Init  Size OctSiz  Section name(segment info)
    0   Data  even  none   270    416  P_PMDAT_D
    1  RoData even  UTS    174    256  P_PMDAT_D
    2   Proc  even  none     0      0  P_PMDAT_D

    ****  Entry defs  ****

                              Check   Calling
                             calling  sequence
  Sect OctLoc Primary Altret sequence   type   Parms  Name
     2      0   yes            yes     ~proc       0  P_PMDAT_D
PL6.E3A0      #001=P_PMDAT_D File=P_PMDAT_D.:E05TSI                              WED 07/30/97 04:38 Page:9

  ****  Data defs  ****

 Sect OctLoc  Name                           Sect OctLoc  Name
    0      0  P_SPARE                            0      1  P_NSCPU
    1      0  P$TABLE                            0      2  P_RUE#
    0     12  P_SCHD#                            0     22  P_ETMF
    0     23  P_NINTS                            0     24  P_RT90
    0     26  P_RT                               0     60  P_USERSIZE
    0    132  P_PMME_TIME                        0    162  P_INTCOMP
    0    212  P_UXEQTIME                         0    217  P_USRVTIME
    0    224  P_AUIS                             0    231  P_STARTUP
    0    232  P_CALCNT                           0    242  P_CALCOMP
    0    252  P_AVGRT90                          0    253  P_AVGETMF
    0    254  P_UPTIME                           0    255  P_IOLOAD
    0    256  P_AVGIOL                           0    257  P_DCTXMAX
    0    260  P_STOPTIME                         0    270  P_S_UXEQTIME
    0    300  P_S_USRVTIME                       0    310  P_S_MXEQTIME
    0    320  P_S_MIDLTIME                       0    330  P_S_MIDLWIO
    0    340  P_S_MIDLWRES                       0    350  P_S_MIDLWRESIO
    0    360  P_IOS                              0    372  P_NOW
    0    374  P_GATE                             0    376  P_AVAIL_MEM
    0    377  P_AVGAVAIL_MEM                     0    400  P_RESOURCE$
    0    401  PH_MUS_PAGES                       0    402  PH_MOUSE_LOCK
    0    404  PH_MOUSE_USERS                     0    405  PH_CPU_MOUSED
    0    415  PH_MOUSE_USER_NUMBER
PL6.E3A0      #001=P_PMDAT_D File=P_PMDAT_D.:E05TSI                              WED 07/30/97 04:38 Page:10

  ****  Data refs  ****

  Flags:  r = read only, s = secondary
Flgs Name                             Flgs Name                             Flgs Name
     MM_BPPC                               MM_SUSPECTS                           MM_IN_TEST
r    MM_BYP$                               MM_SPTRNC                             MM_IOTRNC
     SL_QUAN                               SL_QMIN                               S_CUIS
     S_MUIS                                S_CTUIS                               S_PCU
     S_PORTNR                              S_STOP                                S_NSCPU
     N$DCT$$                               N$FQ$                                 NI$CHT$
     NI$DVT$                               NI$FQ$                                NI$IBUF$
     NI$RP$                                NI_IOMS                               NI_MAX_CHANS
     NI_NDVTS                              P_LAST_AUTO                           B$P$
     H_FLTCNT                              FMC_STATS$                            FMC_CACHEPGCNT$

  ****  Segment refs  ****

  Flags:  r = read only, s = secondary
Flgs Name                             Flgs Name                             Flgs Name
     ISSID                                 NULLSID
PL6.E3A0      #001=P_PMDAT_D File=P_PMDAT_D.:E05TSI                              WED 07/30/97 04:38 Page:11


P_SPARE
 Sect OctLoc
   0     000   000000 000000                                                    ....

P_NSCPU
 Sect OctLoc
   0     001   000000 000000                                                    ....

P_RUE#
 Sect OctLoc
   0     002   000000 000000   000000 000000   000000 000000   000000 000000    ................
   0     006   000000 000000   000000 000000   000000 000000   000000 000000    ................

P_SCHD#
 Sect OctLoc
   0     012   000000 000000   000000 000000   000000 000000   000000 000000    ................
   0     016   000000 000000   000000 000000   000000 000000   000000 000000    ................

P_ETMF
 Sect OctLoc
   0     022   000000 000001                                                    ....

P_NINTS
 Sect OctLoc
   0     023   000000 000000                                                    ....

P_RT90
 Sect OctLoc
   0     024   000000 000002                                                    ....

P_RT
 Sect OctLoc
   0     026   000000 000013   ****** ******   000000 000001   000000 000002    ................
   0     032   000000 000005   000000 000012   000000 000024   000000 000062    ...............2
   0     036   000000 000144   000000 000310   000000 000764   000000 001750    ...d............
   0     042   000000 003720   000000 303237   000000 000000   000000 000000    ................
PL6.E3A0      #001=P_PMDAT_D File=P_PMDAT_D.:E05TSI                              WED 07/30/97 04:38 Page:12
   0     046   000000 000000   000000 000000   000000 000000   000000 000000    ................
   0     056*  000000 000000   000000 000000                                    ........

P_USERSIZE
 Sect OctLoc
   0     060   000000 000023   ****** ******   000000 000005   000000 000012    ................
   0     064   000000 000017   000000 000024   000000 000031   000000 000036    ................
   0     070   000000 000043   000000 000050   000000 000055   000000 000062    ...#...(...-...2
   0     074   000000 000067   000000 000074   000000 000101   000000 000106    ...7...<...A...F
   0     100   000000 000113   000000 000120   000000 000125   000000 000132    ...K...P...U...Z
   0     104   000000 000137   000000 000000   000000 000000   000000 000000    ..._............
   0     110   000000 000000   000000 000000   000000 000000   000000 000000    ................
   0     130*  000000 000000   000000 000000                                    ........

P_PMME_TIME
 Sect OctLoc
   0     132   000000 000012   ****** ******   000000 001750   000000 002734    ................
   0     136   000000 005276   000000 006457   000000 011672   000000 016514    ................
   0     142   000000 026354   000000 041150   000000 060650   000000 116100    ......!h..0...N@
   0     146   000000 000000   000000 000000   000000 000000   000000 000000    ................
   0     156*  000000 000000   000000 000000   000000 000000   000000 000000    ................

P_INTCOMP
 Sect OctLoc
   0     162   000000 000012   ****** ******   000000 000012   000000 000017    ................
   0     166   000000 000031   000000 000055   000000 000113   000000 000202    .......-...K....
   0     172   000000 000327   000000 000550   000000 001130   000000 001750    ...........X....
   0     176   000000 000000   000000 000000   000000 000000   000000 000000    ................
   0     206*  000000 000000   000000 000000   000000 000000   000000 000000    ................

P_UXEQTIME
 Sect OctLoc
   0     212   000000 000000   000000 000000   000000 000000   000000 000000    ................
   0     216   000000 000000                                                    ....

P_USRVTIME
 Sect OctLoc
PL6.E3A0      #001=P_PMDAT_D File=P_PMDAT_D.:E05TSI                              WED 07/30/97 04:38 Page:13
   0     217   000000 000000   000000 000000   000000 000000   000000 000000    ................
   0     223   000000 000000                                                    ....

P_AUIS
 Sect OctLoc
   0     224   000000 000000   000000 000000   000000 000000   000000 000000    ................
   0     230   000000 000000                                                    ....

P_CALCNT
 Sect OctLoc
   0     232   000000 000000   000000 000000   000000 000000   000000 000000    ................
   0     236   000000 000000   000000 000000   000000 000000   000000 000000    ................

P_CALCOMP
 Sect OctLoc
   0     242   000000 000000   000000 000000   000000 000000   000000 000000    ................
   0     246   000000 000000   000000 000000   000000 000000   000000 000000    ................

P_AVGRT90
 Sect OctLoc
   0     252   000000 000001                                                    ....

P_AVGETMF
 Sect OctLoc
   0     253   000000 000001                                                    ....

P_UPTIME
 Sect OctLoc
   0     254   000000 000000                                                    ....

P_IOLOAD
 Sect OctLoc
   0     255   000000 000000                                                    ....

P_AVGIOL
 Sect OctLoc
   0     256   000000 000000                                                    ....
PL6.E3A0      #001=P_PMDAT_D File=P_PMDAT_D.:E05TSI                              WED 07/30/97 04:38 Page:14

P_DCTXMAX
 Sect OctLoc
   0     257   000000 000000                                                    ....

P_STOPTIME
 Sect OctLoc
   0     260   000000 000000   000000 000000   000000 000000   000000 000000    ................
   0     264   000000 000000   000000 000000   000000 000000   000000 000000    ................

P_S_UXEQTIME
 Sect OctLoc
   0     270   000000 000000   000000 000000   000000 000000   000000 000000    ................
   0     274   000000 000000   000000 000000   000000 000000   000000 000000    ................

P_S_USRVTIME
 Sect OctLoc
   0     300   000000 000000   000000 000000   000000 000000   000000 000000    ................
   0     304   000000 000000   000000 000000   000000 000000   000000 000000    ................

P_S_MXEQTIME
 Sect OctLoc
   0     310   000000 000000   000000 000000   000000 000000   000000 000000    ................
   0     314   000000 000000   000000 000000   000000 000000   000000 000000    ................

P_S_MIDLTIME
 Sect OctLoc
   0     320   000000 000000   000000 000000   000000 000000   000000 000000    ................
   0     324   000000 000000   000000 000000   000000 000000   000000 000000    ................

P_S_MIDLWIO
 Sect OctLoc
   0     330   000000 000000   000000 000000   000000 000000   000000 000000    ................
   0     334   000000 000000   000000 000000   000000 000000   000000 000000    ................

P_S_MIDLWRES
 Sect OctLoc
PL6.E3A0      #001=P_PMDAT_D File=P_PMDAT_D.:E05TSI                              WED 07/30/97 04:38 Page:15
   0     340   000000 000000   000000 000000   000000 000000   000000 000000    ................
   0     344   000000 000000   000000 000000   000000 000000   000000 000000    ................

P_S_MIDLWRESIO
 Sect OctLoc
   0     350   000000 000000   000000 000000   000000 000000   000000 000000    ................
   0     354   000000 000000   000000 000000   000000 000000   000000 000000    ................

P_IOS
 Sect OctLoc
   0     360   000000 000000   000000 000000   000000 000000   000000 000000    ................
   0     370*  000000 000000   000000 000000                                    ........

(unnamed)
 Sect OctLoc
   0     373   ****** ******   400000 000000   000000 000000                    ............

P_AVAIL_MEM
 Sect OctLoc
   0     376   000000 000000                                                    ....

P_AVGAVAIL_MEM
 Sect OctLoc
   0     377   000000 000000                                                    ....

P_RESOURCE$
 Sect OctLoc
   0     400   000000 006014                                                    ....

(unnamed)
 Sect OctLoc
   0     401   000000 000000   400000 000000   000000 000000   000000 000000    ................
   0     405   000000 000000   000000 000000   000000 000000   000000 000000    ................
   0     415*  000000 000000                                                    ....

(unnamed)
 Sect OctLoc
PL6.E3A0      #001=P_PMDAT_D File=P_PMDAT_D.:E05TSI                              WED 07/30/97 04:38 Page:16
   1     000   000000 006000   000000 006014   001001 000000   000000 006000    ................
   1     004   000000 006000   001022 001002   000000 006000   000257 006000    ................
   1     010   001045 001001   000000 006000   000000 006000   001006 000001    .%..............
   1     014   000002 006000   000000 006014   010001 000000   000012 006000    ................
   1     020   000000 006014   010001 000000   000022 006000   000000 006014    ................
   1     024   001001 000000   000023 006000   000000 006014   001001 000000    ................
   1     030   000024 006000   000000 006014   001001 000000   000026 006000    ................
   1     034   000000 006014   001032 000000   000231 006000   000000 006014    ................
   1     040   001001 000000   000000 006000   000000 006014   001001 000000    ................
   1     044   000000 006000   000000 006014   001001 000000   000000 006000    ................
   1     050   000000 006014   001001 000000   000000 006000   000000 006014    ................
   1     054   001001 000000   000000 006000   000000 006014   005001 000000    ................
   1     060   000000 006000   000000 006014   005001 000000   000000 006000    ................
   1     064   000000 006014   010001 000000   000000 006000   000000 006014    ................
   1     070   010001 000000   000000 006000   000000 006014   010001 000000    ................
   1     074   000270 006000   000000 006014   010001 000000   000300 006000    ................
   1     100   000000 006014   010001 000000   000310 006000   000000 006014    ................
   1     104   010001 000000   000320 006000   000000 006014   010001 000000    ................
   1     110   000330 006000   000000 006014   010001 000000   000212 006000    ................
   1     114   000000 006014   005001 000000   000217 006000   000000 006014    ................
   1     120   005001 000000   000400 006000   000000 006014   001077 001000    .............?..
   1     124   000132 006000   000000 006014   001030 000000   000360 006000    .Z..............
   1     130   000000 006014   012001 000000   000162 006000   000000 006014    .........r......
   1     134   001030 000000   000000 006000   000000 006014   027001 000000    ................
   1     140   000232 006000   000000 006014   010001 000000   000242 006000    ................
   1     144   000000 006014   010001 000000   000254 006000   000000 006014    ................
   1     150   001001 000000   000253 006000   000000 006014   001001 000000    ................
   1     154   000252 006000   000000 006014   001001 000000   000000 006000    ................
   1     160   000000 006014   001001 000000   000000 006000   000000 006014    ................
   1     164   001001 000000   000000 006000   000000 006014   001001 000000    ................
   1     170   000000 006000   000000 006014   001001 000000   000255 006000    ................
   1     174   000000 006014   001001 000000   000256 006000   000000 006014    ................
   1     200   001001 000000   000224 006000   000000 006014   005001 000000    ................
   1     204   000260 006000   000000 006014   010001 000000   000372 006000    ................
   1     210   000000 006014   001001 000000   000340 006000   000000 006014    ................
   1     214   010001 000000   000350 006000   000000 006014   010001 000000    ................
   1     220   000060 006000   000000 006014   001052 000000   000000 006000    .0.......*......
PL6.E3A0      #001=P_PMDAT_D File=P_PMDAT_D.:E05TSI                              WED 07/30/97 04:38 Page:17
   1     224   000000 006000   001042 001000   000000 006000   000000 006014    ....."..........
   1     230   001001 000000   000001 006000   000000 006014   001001 000000    ................
   1     234   000000 006000   000000 006014   001102 001000   000376 006000    .........B......
   1     240   000000 006014   001001 000000   000377 006000   000000 006014    ................
   1     244   001001 000000   000000 006000   000000 006014   001001 000000    ................
   1     250   000000 006000   000000 006014   001001 000000   000000 006014    ................
   1     254   000000 006014   001001 000000                                    ........
        1        1        /*M* P_PMDAT_D    SYMDEFs for performance monitor data                        */
        2        2        /*T***********************************************************/
        3        3        /*T*                                                         */
        4        4        /*T* Copyright (c) Bull HN Information Systems Inc., 1997    */
        5        5        /*T*                                                         */
        6        6        /*T***********************************************************/
        7        7        /*X* CLM=77,CRM=80,CRT=1,PLM=3,CTI=1,THI=2                                    */
        8        8
        9        9        P_PMDAT_D: PROC;
       10       10
       11       11    1   DCL KI_MXFE UBIN WORD SYMREF;
       12       12
       13       13        %INCLUDE MM_DATA_R;
       14      533        %INCLUDE SS_SCHED_R;
       15      576        %INCLUDE P_PMDAT_C;
       16      696        %INCLUDE PM_BUCKET_C;
       17      781        %INCLUDE KI_SUBS_C;
       18      917        %INCLUDE NI_DATA_R;
       19     1354        %INCLUDE NI_DATA_C;
       20     1467        %INCLUDE B$P;
       21     1551        %INCLUDE HF_DATA_R;
       22     1594        %INCLUDE FM_CACHE_R;
       23     1606        %INCLUDE FM_CACHE_C;
       24     1672        %FMC$STATS;
       25     1681
       26     1682        %NI$DVT;
       27     1689        %NI$DCT;
       28     1737        %NI$DQH;
       29     1760        %NI$CHT (STCLASS=BASED);
       30     1763
PL6.E3A0      #001=P_PMDAT_D File=P_PMDAT_D.:E05TSI                              WED 07/30/97 04:38 Page:18
       31     1764        %P_RESOURCE;
       32     1878    1   DCL P_SPARE UBIN WORD STATIC SYMDEF INIT(0);
       33     1879    1   DCL P_NSCPU UBIN WORD STATIC SYMDEF INIT(0);
       34     1880    1   DCL P_NSCPU_SBIN REDEF P_NSCPU SBIN WORD ;
       35     1881
       36     1882    1   DCL 1 P$TABLE CONSTANT SYMDEF ALIGNED,
       37     1883        /*B*  P$TABLE is a table containing the addresses (or addresses of addresses),
       38     1884              sizes, and repetition counts for performance monitor data items.  It
       39     1885              is used by the M$GETPM PMME to locate and transfer to the user's buffer
       40     1886              the various bits of data collected here and there in the system for
       41     1887              performance monitoring purposes.                                        */
       42     1888
       43     1889        /*
       44     1890              *************************************************************
       45     1891              *                                                           *
       46     1892              *               W A R N I N G ! ! ! !                       *
       47     1893              *                                                           *
       48     1894              *************************************************************
       49     1895                                                                                    *//*
       50     1896                 The data transferred via these table entries is primarily for the
       51     1897              use of the STATS program, although other programs may certainly make
       52     1898              use of it.  The entries are order-sensitive due to the fact that STATS
       53     1899              knows the location of the various data items only through their position
       54     1900              in the table.  STATS has an %INCLUDE file called PS_SUBS_C that contains
       55     1901              (among other things) a set of %SUBs that define the entry offset numbers
       56     1902              for each item of data.  If you add any entries to this table, they should
       57     1903              be added at the end (to save having to change all of those %SUBs) and a
       58     1904              new %SUB should be added to PS_SUBS_C for each entry added to the table.
       59     1905              If you have to delete any items (if, for instance, the variable being
       60     1906              sampled is deleted from the system) you would do well to move the last
       61     1907              entry in the table down into the position formerly occupied by the
       62     1908              deleted item - that way you'll only have to change the moved item's
       63     1909              %SUB rather than all %SUBs after the deleted item.
       64     1910                                                                                      */
       65     1911
       66     1912           %PM_ENTRY  (NAME=P_SPARE);
       67     1921           %PM_ENTRY  (NAME=NI$CHT$,
PL6.E3A0      #001=P_PMDAT_D File=P_PMDAT_D.:E05TSI                              WED 07/30/97 04:38 Page:19
       68     1922                       INDIRECT=1,
       69     1923                       BASED_IMAGE=NI$CHT,
       70     1924                       ENTRIES$=NI_MAX_CHANS,
       71     1925                       WORDS="SIZEW(NI$DQH)");
       72     1934           %PM_ENTRY  (NAME=N$DCT$$,
       73     1935                       INDIRECT=1,
       74     1936                       BASED_IMAGE=N$DCT$,
       75     1937                       ENTRIES$=P_DCTXMAX,
       76     1938                       WORDS="SIZEW(NI$DCT)");
       77     1947           %PM_ENTRY  (NAME=NI$DVT$,
       78     1948                       BASED_IMAGE="NI$DVT$(0)",
       79     1949                       ENTRIES$=NI_NDVTS,
       80     1950                       WORDS=6);
       81     1959           %PM_ENTRY  (NAME=P_RUE#, ENTRIES=8);
       82     1968           %PM_ENTRY  (NAME=P_SCHD#, ENTRIES=8);
       83     1977           %PM_ENTRY  (NAME=P_ETMF);
       84     1986           %PM_ENTRY  (NAME=P_NINTS);
       85     1995           %PM_ENTRY  (NAME=P_RT90);
       86     2004           %PM_ENTRY  (NAME=P_RT,
       87     2005                       WORDS="LENGTHW(P_RT)");
       88     2014           %PM_ENTRY  (NAME=P_STARTUP);
       89     2023           %PM_ENTRY  (NAME=S_CTUIS);
       90     2032           %PM_ENTRY  (NAME=S_NSCPU);
       91     2041           %PM_ENTRY  (NAME=SL_QUAN);
       92     2050           %PM_ENTRY  (NAME=SL_QMIN);
       93     2059           %PM_ENTRY  (NAME=S_CUIS, ENTRIES=5);
       94     2068           %PM_ENTRY  (NAME=S_MUIS, ENTRIES=5);
       95     2077           %PM_ENTRY  (NAME=S_PCU, ENTRIES="SIZEW(S_PCU)");
       96     2086           %PM_ENTRY  (NAME=S_PORTNR, ENTRIES="SIZEW(S_PORTNR)");
       97     2095           %PM_ENTRY  (NAME=S_STOP, ENTRIES="SIZEW(S_STOP)");
       98     2104           %PM_ENTRY  (NAME=P_S_UXEQTIME, ENTRIES="SIZEW(P_S_UXEQTIME)");
       99     2113           %PM_ENTRY  (NAME=P_S_USRVTIME, ENTRIES="SIZEW(P_S_USRVTIME)");
      100     2122           %PM_ENTRY  (NAME=P_S_MXEQTIME, ENTRIES="SIZEW(P_S_MXEQTIME)");
      101     2131           %PM_ENTRY  (NAME=P_S_MIDLTIME, ENTRIES="SIZEW(P_S_MIDLTIME)");
      102     2140           %PM_ENTRY  (NAME=P_S_MIDLWIO, ENTRIES="SIZEW(P_S_MIDLWIO)");
      103     2149           %PM_ENTRY  (NAME=P_UXEQTIME, ENTRIES=5);
      104     2158           %PM_ENTRY  (NAME=P_USRVTIME, ENTRIES=5);
PL6.E3A0      #001=P_PMDAT_D File=P_PMDAT_D.:E05TSI                              WED 07/30/97 04:38 Page:20
      105     2167           %PM_ENTRY  (NAME=P_RESOURCE$,
      106     2168                       INDIRECT=1,
      107     2169                       WORDS="SIZEW(P_RESOURCE)");
      108     2178           %PM_ENTRY  (NAME=P_PMME_TIME,
      109     2179                       WORDS="LENGTHW(P_PMME_TIME)");
      110     2188           %PM_ENTRY  (NAME=P_IOS,
      111     2189                       ENTRIES="SIZEW(P_IOS)");
      112     2198           %PM_ENTRY  (NAME=P_INTCOMP,
      113     2199                       WORDS="SIZEW(P_INTCOMP)");
      114     2208           %PM_ENTRY  (NAME=H_FLTCNT,
      115     2209                       ENTRIES="SIZEW(H_FLTCNT)");
      116     2218           %PM_ENTRY  (NAME=P_CALCNT, ENTRIES="SIZEW(P_CALCNT)");
      117     2227           %PM_ENTRY  (NAME=P_CALCOMP, ENTRIES="SIZEW(P_CALCOMP)");
      118     2236           %PM_ENTRY  (NAME=P_UPTIME);
      119     2245           %PM_ENTRY  (NAME=P_AVGETMF);
      120     2254           %PM_ENTRY  (NAME=P_AVGRT90);
      121     2263           %PM_ENTRY  (NAME=MM_BPPC);
      122     2272           %PM_ENTRY  (NAME=MM_SUSPECTS);
      123     2281           %PM_ENTRY  (NAME=MM_IN_TEST);
      124     2290           %PM_ENTRY  (NAME=P_SPARE);                           /* ENTRY 40 available */
      125     2299           %PM_ENTRY  (NAME=P_IOLOAD);
      126     2308           %PM_ENTRY  (NAME=P_AVGIOL);
      127     2317           %PM_ENTRY  (NAME=P_AUIS, ENTRIES=5);
      128     2326           %PM_ENTRY  (NAME=P_STOPTIME, ENTRIES="SIZEW(P_STOPTIME)");
      129     2335           %PM_ENTRY  (NAME=P_NOW);
      130     2344           %PM_ENTRY  (NAME=P_S_MIDLWRES,ENTRIES="SIZEW(P_S_MIDLWRES)");
      131     2353           %PM_ENTRY  (NAME=P_S_MIDLWRESIO,ENTRIES="SIZEW(P_S_MIDLWRESIO)");
      132     2362           %PM_ENTRY  (NAME=P_USERSIZE, WORDS="LENGTHW(P_USERSIZE)");
      133     2371           %PM_ENTRY  (NAME=B$P$,
      134     2372                       INDIRECT=1,
      135     2373                       ENTRIES$=P_LAST_AUTO,
      136     2374                       WORDS="LENGTHW(B$P)");
      137     2383           %PM_ENTRY  (NAME=NI_IOMS);
      138     2392           %PM_ENTRY  (NAME=P_NSCPU);
      139     2401           %PM_ENTRY  (NAME=FMC_STATS$,
      140     2402                       INDIRECT=1,
      141     2403                       WORDS="SIZEW(FMC$STATS)");
PL6.E3A0      #001=P_PMDAT_D File=P_PMDAT_D.:E05TSI                              WED 07/30/97 04:38 Page:21
      142     2412           %PM_ENTRY  (NAME=P_AVAIL_MEM);
      143     2421           %PM_ENTRY  (NAME=P_AVGAVAIL_MEM);
      144     2430           %PM_ENTRY  (NAME=MM_SPTRNC);
      145     2439           %PM_ENTRY  (NAME=MM_IOTRNC);
      146     2448           %PM_ENTRY (DELIMIT=";");
      147     2457
      148     2458        /*
      149     2459                    Scheduler performance data
      150     2460                                                                                      */
      151     2461    1   DCL P_RUE# (0:7) SBIN STATIC SYMDEF INIT (0*0);  /* Number of events reported */
      152     2462    1   DCL P_SCHD# (0:7) SBIN STATIC SYMDEF INIT (0*0);       /* Number of schedules */
      153     2463    1   DCL   P_ETMF SBIN STATIC SYMDEF INIT(1);                              /* ETMF */
      154     2464    1   DCL   P_NINTS SBIN STATIC SYMDEF INIT(0);           /* Number of interactions */
      155     2465    1   DCL   P_RT90 SBIN STATIC SYMDEF INIT(2);                 /* 90% response time */
      156     2466        /*
      157     2467                    Distribution bucket set for response time measurements
      158     2468                                                                                      */
      159     2469        %BUCKET (NAME=P_RT, #_OF_BUCKETS=11,
      160     2470                 MAX_VALUES="1,2,5,10,20,50,100,200,500,1000,2000,99999");
      161     2477        /*
      162     2478                    Distribution bucket set for user-size measurement
      163     2479                                                                                      */
      164     2480        %BUCKET (NAME=P_USERSIZE, #_OF_BUCKETS=19,
      165     2481                 MAX_VALUES="5,10,15,20,25,30,35,40,45,50,55,60,65,70,75,80,85,90,95,0");
      166     2488        /*
      167     2489                    Distribution bucket set for PMME service time
      168     2490        */
      169     2491        %BUCKET (NAME=P_PMME_TIME, #_OF_BUCKETS=10,
      170     2492                 MAX_VALUES="1000,1500,2750,3375,5050,7500,11500,17000,25000,40000,0");
      171     2499        /*
      172     2500                    Distribution bucket set for interactive-compute requirements
      173     2501        */
      174     2502        %BUCKET (NAME=P_INTCOMP, #_OF_BUCKETS=10,
      175     2503                 MAX_VALUES="10,15,25,45,75,130,215,360,600,1000,0");
      176     2510        /*
      177     2511                    User execution and service times - indexed by MODE
      178     2512                    (0=unused, 1=batch, 2=ghost, 3=online, 4=TP)
PL6.E3A0      #001=P_PMDAT_D File=P_PMDAT_D.:E05TSI                              WED 07/30/97 04:38 Page:22
      179     2513                                                                                      */
      180     2514    1   DCL P_UXEQTIME (0:4) SBIN STATIC SYMDEF INIT (0*0);
      181     2515    1   DCL P_USRVTIME (0:4) SBIN STATIC SYMDEF INIT (0*0);
      182     2516
      183     2517        /*
      184     2518                 Average # of users in system.  Index 0=all users,
      185     2519                 1=batch, 2=ghost, 3=online, 4=TP.
      186     2520                                                                                      */
      187     2521    1   DCL P_AUIS (0:4) UBIN STATIC SYMDEF INIT (0*0);
      188     2522    1   DCL P_STARTUP SBIN STATIC SYMDEF;              /* UTS value at system startup */
      189     2523    1   DCL P_CALCNT (0:7) UBIN STATIC SYMDEF INIT (0*0);       /* # of PMMEs started */
      190     2524    1   DCL P_CALCOMP (0:7) UBIN STATIC SYMDEF INIT (0*0);    /* # of PMMEs completed */
      191     2525    1   DCL P_AVGRT90 UBIN STATIC SYMDEF INIT (1); /* Average 90% response since boot */
      192     2526    1   DCL P_AVGETMF UBIN STATIC SYMDEF INIT (1);         /* Average ETMF since boot */
      193     2527    1   DCL P_UPTIME UBIN STATIC SYMDEF INIT (0);               /* Minutes since boot */
      194     2528    1   DCL P_UPTIME_SBIN REDEF P_UPTIME SBIN ;
      195     2529    1   DCL P_IOLOAD UBIN STATIC SYMDEF INIT (0);                  /* I/O load factor */
      196     2530    1   DCL P_AVGIOL UBIN STATIC SYMDEF INIT (0);          /* Average I/O load factor */
      197     2531    1   DCL P_DCTXMAX UBIN STATIC SYMDEF INIT (0);          /* # of DCT table entries */
      198     2532    1   DCL P_STOPTIME (0:7) SBIN STATIC SYMDEF INIT (0*0);       /* CPU-stopped time */
      199     2533    1   DCL P_S_UXEQTIME (0:7) UBIN WORD STATIC SYMDEF INIT (0*0);
      200     2534    1   DCL P_S_USRVTIME (0:7) UBIN WORD STATIC SYMDEF INIT (0*0);
      201     2535    1   DCL P_S_MXEQTIME (0:7) UBIN WORD STATIC SYMDEF INIT (0*0);
      202     2536    1   DCL P_S_MIDLTIME (0:7) UBIN WORD STATIC SYMDEF INIT (0*0);
      203     2537    1   DCL P_S_MIDLWIO (0:7) UBIN WORD STATIC SYMDEF INIT (0*0);
      204     2538    1   DCL P_S_MIDLWRES (0:7) UBIN WORD STATIC SYMDEF INIT (0*0);
      205     2539    1   DCL P_S_MIDLWRESIO (0:7) UBIN WORD STATIC SYMDEF INIT (0*0);
      206     2540    1   DCL P_IOS (0:9) UBIN STATIC SYMDEF INIT (0*0);     /* connects by device type */
      207     2541    1   DCL P_NOW UBIN STATIC SYMDEF;                 /* Time that M$GETPM was issued */
      208     2542    1   DCL P_GATE BIT(72) STATIC SYMDEF DALIGNED INIT ('1'B);    /* performance gate */
      209     2543    1   DCL P_AVAIL_MEM UBIN STATIC SYMDEF INIT(0);   /* # of mem pages now available */
      210     2544    1   DCL P_AVGAVAIL_MEM UBIN STATIC SYMDEF INIT(0);    /* Avg # of mem pages avail */
      211     2545    1   DCL P_RESOURCE$ PTR STATIC SYMDEF INIT (ADDR(NIL));     /* PTR to P_RESOURCE$ */
      212     2546        /*
      213     2547                 MOUSE-specific stuff
      214     2548        */
      215     2549    1   DCL PH_MUS_PAGES (0:PH_MOUSE_PAGES) UBIN WORD
PL6.E3A0      #001=P_PMDAT_D File=P_PMDAT_D.:E05TSI                              WED 07/30/97 04:38 Page:23
      216     2550    1        STATIC SYMDEF INIT (0*0);
      217     2551    1   DCL PH_MOUSE_LOCK BIT(72) DALIGNED STATIC SYMDEF INIT ('1'B);
      218     2552    1   DCL PH_MOUSE_USERS SBIN WORD STATIC SYMDEF INIT (0);
      219     2553    1   DCL PH_CPU_MOUSED (0:7) BIT(36) ALIGNED STATIC SYMDEF INIT ('0'B*0);
      220     2554    1   DCL PH_MOUSE_USER_NUMBER UBIN WORD STATIC SYMDEF INIT (0);
      221     2555    1   END P_PMDAT_D;

PL6.E3A0      #001=P_PMDAT_D File=P_PMDAT_D.:E05TSI                              WED 07/30/97 04:38 Page:24
--  Include file information  --

   FM_CACHE_C.:E05TOU  is referenced.
   FM_CACHE_R.:E05TOU  cannot be made into a system file and is referenced.
   HF_DATA_R.:E05TOU  cannot be made into a system file and is referenced.
   B$P.:E05TOU  cannot be made into a system file and is referenced.
   NI_DATA_C.:E05TOU  is referenced.
   NI$TABLES.:E05TOU  is referenced.
   N$REQ.:E05TOU  is referenced.
   NI_DATA_R.:E05TOU  cannot be made into a system file and is referenced.
   KI_SUBS_C.:E05TOU  is referenced.
   PM_BUCKET_C.:E05TOU  is referenced.
   P_PMDAT_C.:E05TOU  is referenced.
   SS_CNTRLD_R.:E05TOU  cannot be made into a system file and is referenced.
   SS_CNTRL_R.:E05TOU  cannot be made into a system file and is referenced.
   SS_SCHED_R.:E05TOU  cannot be made into a system file and is referenced.
   MM_MACRO_M.:E05TOU  is referenced.
   B_STRINGS_C.:E05TOU  is referenced.
   MM$SYSGEN.:E05TOU  is referenced.
   M_INFO_C.:E05TOU  is referenced.
   MM_DATA_R.:E05TOU  cannot be made into a system file and is referenced.
      No diagnostics issued in procedure P_PMDAT_D.
PL6.E3A0      #001=P_PMDAT_D File=P_PMDAT_D.:E05TSI                              WED 07/30/97 04:38 Page:25

 **** Variables and constants ****

  ****  Section 000  Data  P_PMDAT_D

  ****  Scalars and arrays  ****
OctLoc.c.b A Datatyp(siz) R M Lvl/name                 OctLoc.c.b A Datatyp(siz) R M Lvl/name

   224-0-0/w UBIN        r     1 P_AUIS(0:4)              376-0-0/w UBIN        r     1 P_AVAIL_MEM
   377-0-0/w UBIN        r     1 P_AVGAVAIL_MEM           253-0-0/w UBIN        r     1 P_AVGETMF
   256-0-0/w UBIN        r     1 P_AVGIOL                 252-0-0/w UBIN        r     1 P_AVGRT90
   232-0-0/w UBIN        r     1 P_CALCNT(0:7)
   242-0-0/w UBIN        r     1 P_CALCOMP(0:7)
   257-0-0/w UBIN        r     1 P_DCTXMAX                 22-0-0/w SBIN        r     1 P_ETMF
   162-0-0/d STRC(864)   r     1 P_INTCOMP                255-0-0/w UBIN        r     1 P_IOLOAD
   360-0-0/w UBIN        r     1 P_IOS(0:9)                23-0-0/w SBIN        r     1 P_NINTS
   372-0-0/w UBIN        r     1 P_NOW                      1-0-0/w UBIN        r     1 P_NSCPU
   132-0-0/d STRC(864)   r     1 P_PMME_TIME              400-0-0/w PTR         r     1 P_RESOURCE$
    26-0-0/d STRC(936)   r     1 P_RT                      24-0-0/w SBIN        r     1 P_RT90
     2-0-0/w SBIN        r     1 P_RUE#(0:7)
    12-0-0/w SBIN        r     1 P_SCHD#(0:7)
     0-0-0/w UBIN        r     1 P_SPARE                  231-0-0/w SBIN        r     1 P_STARTUP
   260-0-0/w SBIN        r     1 P_STOPTIME(0:7)
   320-0-0/w UBIN        r     1 P_S_MIDLTIME(0:7)
   330-0-0/w UBIN        r     1 P_S_MIDLWIO(0:7)
   340-0-0/w UBIN        r     1 P_S_MIDLWRES(0:7)
   350-0-0/w UBIN        r     1 P_S_MIDLWRESIO(0:7)
   310-0-0/w UBIN        r     1 P_S_MXEQTIME(0:7)
   300-0-0/w UBIN        r     1 P_S_USRVTIME(0:7)
   270-0-0/w UBIN        r     1 P_S_UXEQTIME(0:7)
   254-0-0/w UBIN        r     1 P_UPTIME                  60-0-0/d STRC(1512)  r     1 P_USERSIZE
   217-0-0/w SBIN        r     1 P_USRVTIME(0:4)
   212-0-0/w SBIN        r     1 P_UXEQTIME(0:4)

  ****  SYMREF variables  ****

  ****  Scalars and arrays  ****
OctLoc.c.b A Datatyp(siz) R M Lvl/name                 OctLoc.c.b A Datatyp(siz) R M Lvl/name
PL6.E3A0      #001=P_PMDAT_D File=P_PMDAT_D.:E05TSI                              WED 07/30/97 04:38 Page:26

     0-0-0/w PTR         r     1 B$P$                       0-0-0/w PTR         r     1 FMC_CACHEPGCNT$
     0-0-0/w PTR         r     1 FMC_STATS$
     0-0-0/w SBIN        r     1 H_FLTCNT(0:22)
     0-0-0/w SBIN        r     1 MM_BPPC                    0-0-0/w PTR         r     1 MM_BYP$
     0-0-0/w SBIN        r     1 MM_IN_TEST                 0-0-0/w SBIN        r     1 MM_IOTRNC
     0-0-0/w SBIN        r     1 MM_SPTRNC                  0-0-0/w SBIN        r     1 MM_SUSPECTS
     0-0-0/w PTR         r     1 N$DCT$$                    0-0-0/w PTR         r     1 N$FQ$
     0-0-0/w PTR         r     1 NI$CHT$                    0-0-0/w PTR         r     1 NI$DVT$(0:49)
     0-0-0/w PTR         r     1 NI$FQ$                     0-0-0/w PTR         r     1 NI$IBUF$
     0-0-0/w PTR         r     1 NI$RP$                     0-0-0/w SBIN        r     1 NI_IOMS
     0-0-0/w UBIN        r     1 NI_MAX_CHANS               0-0-0/w UBIN        r     1 NI_NDVTS
     0-0-0/w UBIN        r     1 P_LAST_AUTO
     0-0-0/w SBIN        r     1 SL_QMIN(0:4)
     0-0-0/w SBIN        r     1 SL_QUAN                    0-0-0/w SBIN        r     1 S_CTUIS
     0-0-0/w SBIN        r     1 S_CUIS(0:4)                0-0-0/w SBIN        r     1 S_MUIS(0:4)
     0-0-0/w UBIN        r     1 S_NSCPU                    0-0-0/w SBIN        r     1 S_PCU(0:7)
     0-0-0/w UBIN        r     1 S_PORTNR(0:7)
     0-0-0/w SBIN        r     1 S_STOP(0:7)

  ****  BASED and DCB variables  ****

  ****  Scalars and arrays  ****
OctLoc.c.b A Datatyp(siz) R M Lvl/name                 OctLoc.c.b A Datatyp(siz) R M Lvl/name

     0-0-0/d STRC(1224)  r     1 B$P(0:0)                   0-0-0/w STRC(2376)  r     1 FMC$STATS
     0-0-0/w PTR         r     1 N$DCT$(0:0)                0-0-0/w STRC(72)    r     1 NI$CHT
     0-0-0/w STRC(1332)  r     1 NI$DCT                     0-0-0/w STRC(648)   r     1 NI$DQH
     0-0-0/w STRC(2268)  r     1 P_RESOURCE


   No code generated for procedure P_PMDAT_D .
   Procedure P_PMDAT_D requires 4 words of local(AUTO) storage.

    No errors detected in file P_PMDAT_D.:E05TSI    .
PL6.E3A0      #001=P_PMDAT_D File=P_PMDAT_D.:E05TSI                              WED 07/30/97 04:38 Page:27
          *** CROSS REFERENCE LISTING ***
**     DENOTES     IDENTIFIER DEFINITION
<<                 IDENTIFIER'S VALUE SET
>>                 IDENTIFIER'S VALUE USED
<>                 IDENTIFIER SET AND/OR USED
--                 IDENTIFIER REFERENCED
PL6.E3A0      #001=P_PMDAT_D File=P_PMDAT_D.:E05TSI                              WED 07/30/97 04:38 Page:28
          MINI XREF LISTING

B$P
      1475**DCL      2379--DCLINIT
B$P$
      1529**DCL      2376--DCLINIT
FMC$STATS
      1673**DCL      2408--DCLINIT
FMC_CACHEPGCNT$
      1603**DCL      1603--IMP-PTR  1603--REDEF
FMC_STATS$
      1602**DCL      1673--IMP-PTR  2405--DCLINIT
H_FLTCNT
      1559**DCL      2211--DCLINIT  2213--DCLINIT
MM$DESC.BOUND
       484**DCL       485--REDEF
MM$DESC.FLGS
       485**DCL       485--REDEF
MM$PPUT.USER#
       473**DCL       473--REDEF
MM_BPPC
       403**DCL      2265--DCLINIT
MM_BYP$
       404**DCL       404--IMP-PTR
MM_IN_TEST
       403**DCL      2283--DCLINIT
MM_IOTRNC
       471**DCL      2441--DCLINIT
MM_SPTRNC
       471**DCL      2432--DCLINIT
MM_SUSPECTS
       403**DCL      2274--DCLINIT
N$DCT$
      1349**DCL      1945--DCLINIT
PL6.E3A0      #001=P_PMDAT_D File=P_PMDAT_D.:E05TSI                              WED 07/30/97 04:38 Page:29
N$DCT$$
      1215**DCL      1349--IMP-PTR  1940--DCLINIT
N$FQ$
      1215**DCL      1350--IMP-PTR
N$REQ_INIT.BUFADDR
      1234**DCL      1235--REDEF    1235--REDEF
N$REQ_INIT.DLA.DRELADDR
      1226**DCL      1226--REDEF
N$REQ_INIT.DVE.EOMCHAR
      1263**DCL      1264--REDEF
N$REQ_INIT.EAINFO
      1257**DCL      1257--REDEF
N$REQ_INIT.EAINFOX
      1257**DCL      1258--REDEF
N$REQ_INIT.EVNTINFO
      1258**DCL      1258--REDEF
N$REQ_INIT.STATUS
      1239**DCL      1245--REDEF
NI$CHT
      1761**DCL      1932--DCLINIT
NI$CHT$
      1274**DCL      1927--DCLINIT
NI$DCT
      1698**DCL      1943--DCLINIT
NI$DCT.DP
      1718**DCL      1725--REDEF    1728--REDEF    1729--REDEF    1731--REDEF    1731--REDEF    1732--REDEF
      1733--REDEF    1733--REDEF
NI$DCT.MPC.IOCHANX
      1726**DCL      1726--REDEF
NI$DQH
      1746**DCL      1930--DCLINIT
NI$DQH.IOCHANX
      1748**DCL      1749--REDEF
NI$DQH.MBX$
      1757**DCL      1758--REDEF
NI$DVT.MPC
PL6.E3A0      #001=P_PMDAT_D File=P_PMDAT_D.:E05TSI                              WED 07/30/97 04:38 Page:30
      1685**DCL      1686--REDEF
NI$DVT$
      1274**DCL      1952--DCLINIT  1957--DCLINIT
NI$FQ$
      1275**DCL      1351--IMP-PTR
NI$IBUF$
      1275**DCL      1351--IMP-PTR
NI$IMXMBX_INIT.PAGED_BASE
      1285**DCL      1286--REDEF    1286--REDEF
NI$IMXMBX_INIT.SIZE
      1287**DCL      1287--REDEF
NI$REQ_INIT.DCW
      1309**DCL      1312--REDEF
NI$REQ_INIT.DCW.TALLY
      1310**DCL      1310--REDEF
NI$REQ_INIT.IDCW.EXTA
      1312**DCL      1312--REDEF
NI$REQ_INIT.PCW
      1314**DCL      1318--REDEF
NI$REQ_INIT.SEEK
      1319**DCL      1320--REDEF    1321--REDEF
NI$RP$
      1323**DCL      1353--IMP-PTR
NI_IOMS
      1327**DCL      2385--DCLINIT
NI_MAX_CHANS
      1328**DCL      1928--DCLINIT
NI_MBX_INIT.DCW.CONTROL.AE
      1345**DCL      1345--REDEF
NI_MBX_INIT.LPW.CONTROL.AE
      1341**DCL      1341--REDEF
NI_NDVTS
      1348**DCL      1953--DCLINIT
P_AUIS
      2521**DCL      2319--DCLINIT
P_AVAIL_MEM
PL6.E3A0      #001=P_PMDAT_D File=P_PMDAT_D.:E05TSI                              WED 07/30/97 04:38 Page:31
      2543**DCL      2414--DCLINIT
P_AVGAVAIL_MEM
      2544**DCL      2423--DCLINIT
P_AVGETMF
      2526**DCL      2247--DCLINIT
P_AVGIOL
      2530**DCL      2310--DCLINIT
P_AVGRT90
      2525**DCL      2256--DCLINIT
P_CALCNT
      2523**DCL      2220--DCLINIT  2222--DCLINIT
P_CALCOMP
      2524**DCL      2229--DCLINIT  2231--DCLINIT
P_DCTXMAX
      2531**DCL      1941--DCLINIT
P_ETMF
      2463**DCL      1979--DCLINIT
P_INTCOMP
      2504**DCL      2201--DCLINIT  2204--DCLINIT
P_IOLOAD
      2529**DCL      2301--DCLINIT
P_IOS
      2540**DCL      2191--DCLINIT  2193--DCLINIT
P_LAST_AUTO
      1525**DCL      2377--DCLINIT
P_NINTS
      2464**DCL      1988--DCLINIT
P_NOW
      2541**DCL      2337--DCLINIT
P_NSCPU
      1879**DCL      1880--REDEF    2394--DCLINIT
P_PMME_TIME
      2493**DCL      2181--DCLINIT  2184--DCLINIT
P_RESOURCE
      1766**DCL      2174--DCLINIT
P_RESOURCE.RES
PL6.E3A0      #001=P_PMDAT_D File=P_PMDAT_D.:E05TSI                              WED 07/30/97 04:38 Page:32
      1798**DCL      1865--REDEF
P_RESOURCE$
      2545**DCL      1766--IMP-PTR  2171--DCLINIT
P_RT
      2471**DCL      2007--DCLINIT  2010--DCLINIT
P_RT90
      2465**DCL      1997--DCLINIT
P_RUE#
      2461**DCL      1961--DCLINIT
P_SCHD#
      2462**DCL      1970--DCLINIT
P_SPARE
      1878**DCL      1914--DCLINIT  2292--DCLINIT
P_STARTUP
      2522**DCL      2016--DCLINIT
P_STOPTIME
      2532**DCL      2328--DCLINIT  2330--DCLINIT
P_S_MIDLTIME
      2536**DCL      2133--DCLINIT  2135--DCLINIT
P_S_MIDLWIO
      2537**DCL      2142--DCLINIT  2144--DCLINIT
P_S_MIDLWRES
      2538**DCL      2346--DCLINIT  2348--DCLINIT
P_S_MIDLWRESIO
      2539**DCL      2355--DCLINIT  2357--DCLINIT
P_S_MXEQTIME
      2535**DCL      2124--DCLINIT  2126--DCLINIT
P_S_USRVTIME
      2534**DCL      2115--DCLINIT  2117--DCLINIT
P_S_UXEQTIME
      2533**DCL      2106--DCLINIT  2108--DCLINIT
P_UPTIME
      2527**DCL      2238--DCLINIT  2528--REDEF
P_USERSIZE
      2482**DCL      2364--DCLINIT  2367--DCLINIT
P_USRVTIME
PL6.E3A0      #001=P_PMDAT_D File=P_PMDAT_D.:E05TSI                              WED 07/30/97 04:38 Page:33
      2515**DCL      2160--DCLINIT
P_UXEQTIME
      2514**DCL      2151--DCLINIT
SL_QMIN
       550**DCL      2052--DCLINIT
SL_QUAN
       549**DCL      2043--DCLINIT
S_CTUIS
       559**DCL      2025--DCLINIT
S_CUIS
       559**DCL      2061--DCLINIT
S_MUIS
       559**DCL      2070--DCLINIT
S_NSCPU
       563**DCL      2034--DCLINIT
S_PCU
       562**DCL      2079--DCLINIT  2081--DCLINIT
S_PORTNR
       562**DCL      2088--DCLINIT  2090--DCLINIT
S_STOP
       562**DCL      2097--DCLINIT  2099--DCLINIT
