VERSION E05

PL6.E3A0      #001=QAT$TALLYHO File=QAT$TALLYHO.:E05TSI                          WED 07/30/97 04:38 Page:1
        1        1        /*M* QAT$TALLYHO:  Main loop:  instruction fetch & execute.  */
        2        2        /*T***********************************************************/
        3        3        /*T*                                                         */
        4        4        /*T* Copyright (c) Bull HN Information Systems Inc., 1997    */
        5        5        /*T*                                                         */
        6        6        /*T***********************************************************/
        7        7        /*X* DMC,PLM=4,IND=0,DCI=4,CSI=2,IAD=2,DTI=2,AND,ECI=0,DIN=2,STI=2 */
        8        8
        9        9        /*P*  NAME:         QAT$TALLYHO
       10       10              PURPOSE:      Execute FPL pseudo-op-codes.
       11       11              DESCRIPTION:  This is the FPL interpreter's "main" entry point.
       12       12                            It's LNJ'ed-to by an FPL rununit in the FEP,
       13       13                            after its three parameters are set up.  It goes
       14       14                            merrily along calling routines to execute FPL
       15       15                            op-codes until:
       16       16                            1)  a STOP RUN statement is executed;
       17       17                            2)  an ABORT [ 'literal' | dataname ] statement
       18       18                                is executed;
       19       19                            3)  a user-error condition is encountered
       20       20                                (e.g., "Form not open");
       21       21                            4)  an internal-error condition is encountered
       22       22                                (e.g., "Unexpected M$READ ALTRET").
       23       23              REFERENCE:    You might be amused by a DRAW of QI_DATA_D,
       24       24                            which defines structures for everything
       25       25                            (just about) that the FPL compiler generates.
       26       26        */
       27       27
       28       28        QAT$TALLYHO: PROC ( INITIALIZATION_BLOCK,
       29       29              FIRST_INSTRUCTION,
       30       30              ARGUMENTS_AND_OR_FREE_AUTO_A$ );
       31       31
       32       32        /*D*  NAME:         QAT$TALLYHO
       33       33              CALL:         CALL QAT$TALLYHO
       34       34                            ( INITIALIZATION_BLOCK,
       35       35                              FIRST_INSTRUCTION,
       36       36                              ARGUMENTS_AND_OR_FREE_AUTO_A$ );
       37       37              PARAMETERS:   1)  INITIALIZATION_BLOCK is an FPL compiler
PL6.E3A0      #001=QAT$TALLYHO File=QAT$TALLYHO.:E05TSI                          WED 07/30/97 04:38 Page:2
       38       38                                generated structure containing all kinds
       39       39                                of interesting things that the interpreter
       40       40                                needs to know to start executing.  See
       41       41                                the %QI$INITIALIZATION_BLOCK MACRO in
       42       42                                QI_MACROS_M.
       43       43                            2)  FIRST_INSTRUCTION is the word of the FPL
       44       44                                rununit containing the first op-code.  It's
       45       45                                ADDR is used to initialize the instuction
       46       46                                counter (pointer).
       47       47                            3)  ARGUMENTS_AND_OR_FREE_AUTO_A$ is a pointer
       48       48                                to an auto area which the FPL rununit has
       49       49                                acquired (via X6A_[M]AUTO[_n]) which:
       50       50                                a)  was used already to accept arguments
       51       51                                    from other programs according to the
       52       52                                    general calling sequence formula;
       53       53                                b)  will be used to CALL other programs
       54       54                                    (the compiler reserved enough space
       55       55                                    for the largest CALL statement it
       56       56                                    found within the subroutine which
       57       57                                    QAT$TALLYHO is executing).
       58       58              INTERFACE:    This is called by every FPL main routine and
       59       59                            subroutine in an FPL rununit if and when they're
       60       60                            entered.  See QBC$CALL for a discussion of
       61       61                            calls to subroutines from "below" the QAT$TALLYHO
       62       62                            level.
       63       63              ENVIRONMENT:  At the time this was written, a shared library
       64       64                            living somewhere within an L6 was thought
       65       65                            adequate.
       66       66              INPUT:        QI_1, etc.
       67       67              OUTPUT:       QI_1, etc.
       68       68              SCRATCH:      Various otter stuff.
       69       69              DESCRIPTION:  All the stuff before QAT$TALLYHO_USE is done
       70       70                            only once, to do "initialization" for the
       71       71                            currently executing FPL main routine or
       72       72                            subroutine.  Then a "do forever" loop is entered
       73       73                            for executing all the op-codes within the routine.
       74       74                            An external subroutine is called to execute
PL6.E3A0      #001=QAT$TALLYHO File=QAT$TALLYHO.:E05TSI                          WED 07/30/97 04:38 Page:3
       75       75                            each op-code, and it's that routine's duty to
       76       76                            update the instruction counter to point to the
       77       77                            next op-code.
       78       78        */
       79       79
       80       80          %INCLUDE GM_VIRTUAL_E;
       81      290          %INCLUDE G_JIT_M;
       82      555          %INCLUDE LCP_6;
       83      746          %INCLUDE NK_VFC_C;
       84      820
       85      821            %FPT_DBCONTROL ( FPTN = FPT@DBCONTROL,
       86      822            STCLASS = AUTO );
       87      862    1     DCL NDBCONTROL EPTR CONSTANT INIT(ENTADDR(QCE$ERROR_DBCONTROL));
       88      863          %FPT_INT ( FPTN = FPT@INT,
       89      864                     STCLASS = AUTO );
       90      904    1     DCL NINT EPTR CONSTANT INIT(ENTADDR(QCE$ERROR_INT));
       91      905          %FPT_TRAP ( FPTN = FPT@TRAP,
       92      906                      STCLASS = AUTO );
       93      921          %VLP_TRAP_CONDITIONS ( FPTN = NTC,
       94      922                                 STCLASS = AUTO );
       95     1078          %FPT_GDS ( FPTN = FPT@GDS,
       96     1079                     STCLASS = AUTO );
       97     1103          %G$JIT;
       98     1517    1     DCL G$JIT$ PTR SYMREF;
       99     1518
      100     1519          %INCLUDE QG_MACRO_M;
      101     1656          %INCLUDE QI_EQUATES_E;
      102     2015          %INCLUDE QI_PERR_C;
      103     2183          %INCLUDE QI_MACROS_M;
      104     7241          %QI$ALL;
      105    18354          %QI_FPTS;
      106    20399
      107    20400          /*
      108    20401          DCL QI1$CNVNP ENTRY;
      109    20402          DCL QI1$CNVNB ENTRY;
      110    20403                             */
      111    20404    1     DCL QBC$CNVNBT ENTRY;
PL6.E3A0      #001=QAT$TALLYHO File=QAT$TALLYHO.:E05TSI                          WED 07/30/97 04:38 Page:4
      112    20405    1     DCL QBC$CNVBN ENTRY;
      113    20406    1     DCL QBC$CNVBNX ENTRY;
      114    20407    1     DCL QBC$CNVBPX ENTRY;
      115    20408    1     DCL QBC$CNVPN ENTRY;
      116    20409    1     DCL QBC$CNVPBT ENTRY;
      117    20410    1     DCL QBG$GOTO ENTRY ALTRET;
      118    20411    1     DCL QBG$GOTODP ENTRY ALTRET;
      119    20412    1     DCL QBI$IFRELA ENTRY ALTRET;
      120    20413    1     DCL QBI$IFRELN ENTRY ALTRET;
      121    20414    1     DCL QBI$IFRELG ENTRY ALTRET;
      122    20415    1     DCL QBI$IFCLS ENTRY ALTRET;
      123    20416    1     DCL QBI$IFCNDA ENTRY ALTRET;
      124    20417    1     DCL QBI$IFCNDN ENTRY ALTRET;
      125    20418          /*
      126    20419          DCL QI1$IFIDX ENTRY ALTRET;
      127    20420                            */
      128    20421    1     DCL QBI$IF_INDICATOR ENTRY ALTRET;
      129    20422    1     DCL QBM$MOVA ENTRY;
      130    20423    1     DCL QBM$MOVN ENTRY;
      131    20424    1     DCL QBM$MOVP ENTRY;
      132    20425    1     DCL QBM$MOVB ENTRY;
      133    20426    1     DCL QBM$MOVNA ENTRY;
      134    20427          /*
      135    20428          DCL QI1$MOVN2 ENTRY;
      136    20429                            */
      137    20430    1     DCL QBM$MOVPA ENTRY;
      138    20431    1     DCL QBM$MOVBA ENTRY;
      139    20432    1     DCL QBM$MOVAE ENTRY;
      140    20433    1     DCL QBM$MOVNE ENTRY;
      141    20434    1     DCL QBM$MOVNEA ENTRY;
      142    20435    1     DCL QBM$MOVDE ENTRY;
      143    20436    1     DCL QBM$MOVAJ ENTRY;
      144    20437    1     DCL QBM$MOVG ENTRY;
      145    20438    1     DCL QBP$PERFM ENTRY ALTRET;
      146    20439    1     DCL QBP$PERFMT ENTRY ALTRET;
      147    20440    1     DCL QBX$ADD ENTRY;
      148    20441    1     DCL QBX$SUB ENTRY;
PL6.E3A0      #001=QAT$TALLYHO File=QAT$TALLYHO.:E05TSI                          WED 07/30/97 04:38 Page:5
      149    20442    1     DCL QBX$MULT ENTRY;
      150    20443    1     DCL QBX$DIV ENTRY;
      151    20444    1     DCL QBX$ADDX ENTRY;
      152    20445    1     DCL QBX$SUBX ENTRY;
      153    20446    1     DCL QBX$MULTX ENTRY;
      154    20447    1     DCL QBX$DIVX ENTRY;
      155    20448    1     DCL QBX$ROUND ENTRY;
      156    20449    1     DCL QBJ$JAZ ENTRY ALTRET;
      157    20450    1     DCL QBC$CALL ENTRY;
      158    20451          /*
      159    20452          DCL QI1$SUBRTN ENTRY;
      160    20453                             */
      161    20454    1     DCL QBS$STOP_RUN ENTRY;
      162    20455    1     DCL QBS$STOP_PAUSE ENTRY;
      163    20456    1     DCL QBA$ABORT ENTRY;
      164    20457          /*
      165    20458          DCL QI1$SET ENTRY;
      166    20459          DCL QI1$SETD ENTRY;
      167    20460          DCL QI1$SETX ENTRY;
      168    20461          DCL QI1$SETXUD ENTRY;
      169    20462                             */
      170    20463    1     DCL QBI$INSPECT ENTRY;
      171    20464          /*
      172    20465          DCL QI1$SEARCH ENTRY;
      173    20466                             */
      174    20467    1     DCL QBS$SUBSCRIPT ENTRY;
      175    20468          /*
      176    20469          DCL QI1$INDEX ENTRY;
      177    20470                            */
      178    20471    1     DCL QBA$ALL_LITERAL_MOVE ENTRY;
      179    20472          /*
      180    20473          DCL QB1$INIT ENTRY;
      181    20474                           */
      182    20475    1     DCL QBJ$JND ENTRY ALTRET;
      183    20476    1     DCL QBL$LOAD ENTRY;
      184    20477    1     DCL QBO$OPEN ENTRY;
      185    20478    1     DCL QBC$CLOSE ENTRY;
PL6.E3A0      #001=QAT$TALLYHO File=QAT$TALLYHO.:E05TSI                          WED 07/30/97 04:38 Page:6
      186    20479    1     DCL QBA$APPLY ENTRY;
      187    20480    1     DCL QBA$ACTIVATE ENTRY;
      188    20481    1     DCL QBA$DEACTIVATE ENTRY;
      189    20482    1     DCL QBC$CLEAR ENTRY;
      190    20483    1     DCL QBE$ENABLE ENTRY;
      191    20484    1     DCL QBE$DISABLE ENTRY;
      192    20485    1     DCL QBV$PRESENT ENTRY;
      193    20486    1     DCL QBV$VERIFY ENTRY;
      194    20487    1     DCL QBA$ACCEPT ENTRY;
      195    20488    1     DCL QBD$DISPLAY ENTRY;
      196    20489    1     DCL QBR$READ_TRAN ENTRY;
      197    20490    1     DCL QBW$WRITE_TRAN ENTRY;
      198    20491    1     DCL QBR$READ_FORM ENTRY;
      199    20492    1     DCL QBW$WRITE_FORM ENTRY;
      200    20493          /*
      201    20494          DCL QI1$DELETE ENTRY;
      202    20495                             */
      203    20496
      204    20497    1     DCL QCE$ERROR ENTRY (4);
      205    20498    1     DCL QCE$ERROR_DBCONTROL ENTRY ASYNC;
      206    20499    1     DCL QCE$ERROR_INT ENTRY ASYNC;
      207    20500    1     DCL QCE$ERROR_INTERNAL ENTRY (4);
      208    20501    1     DCL QCE$ERROR_M$INTERNAL ENTRY (4);
      209    20502    1     DCL QCE$ERROR_TRAP ENTRY ASYNC;
      210    20503    1     DCL QCE$EXPERIENCE_M$XBREAK ENTRY;
      211    20504
      212    20505          %SET LISTMAC = '1'B;
      213    20506
      214    20507          %QI$INITIALIZATION_BLOCK ( NAME = INITIALIZATION_BLOCK,
      215    20508                                     STCLASS = PARAM );
             20509            %BEGIN_MACRO ( STCLASS = STCLASS );
             20510            %SET LISTDIR = '0'B;
             20523        /*
             20524           This INITIALIZATION_BLOCK is used by QAT$TALLYHO
             20525           during startup to, well, initialize.
             20526        */
             20527    1     DCL 1 INITIALIZATION_BLOCK PARAM ALIGNED,
PL6.E3A0      #001=QAT$TALLYHO File=QAT$TALLYHO.:E05TSI                          WED 07/30/97 04:38 Page:7
             20528    1           2 DATA_START$ PTR,
             20529    1           2 PROC_START$ PTR,
             20530    1           2 EXPECTED_ARGUMENT_COUNT UBIN,
             20531    1           2 CURRENT_FORM@P UBIN,
             20532    1           2 CURRENT_FRAME@P UBIN,
             20533    1           2 CURRENT_FIELD@P UBIN,
             20534    1           2 RETRY@P UBIN,
             20535    1           2 VERIFY_BUFFER_1@P UBIN,
             20536    1           2 VERIFY_BUFFER_2@P UBIN,
             20537    1           2 VERIFY_BUFFER_3@P UBIN,
             20538    1           2 VERIFY_BUFFER_4@P UBIN,
             20539    1           2 COMPILER_VERSION CHAR(4),
             20540    1           2 OUTPUT_OR_IO_USE_PROCEDURE@P UBIN,
             20541    1           2 INPUT_OR_IO_USE_PROCEDURE@P UBIN,
             20542    1           2 VERIFICATION_USE_PROCEDURE@P UBIN,
             20543    1           2 MESSAGE_LINE_DCB# UBIN,
             20544    1           2 VANILLA_HOST_DCB# UBIN,
             20545    1           2 IS_THIS_A_SUBROUTINE BIT(1) UNAL,
             20546    1           2 * UBIN(15) UNAL;
             20553            %ENDIF;
      216    20556    1     DCL FIRST_INSTRUCTION UBIN PARAM;
      217    20557    1     DCL ARGUMENTS_AND_OR_FREE_AUTO_A$(0:0) PTR PARAM;
      218    20558
      219    20559          %SET LISTMAC = '0'B;
      220    20560
      221    20561    1     DCL QI_OLDEST_COMPILER_VERSION CHAR(4) CONSTANT SYMDEF
      222    20562    1       INIT ( 'C01 ' );
      223    20563        %EJECT;
PL6.E3A0      #001=QAT$TALLYHO File=QAT$TALLYHO.:E05TSI                          WED 07/30/97 04:38 Page:8
      224    20564    1       QI_1.BASE.DATA$ = INITIALIZATION_BLOCK.DATA_START$;
      225    20565    1       QI_1.BASE.PROC$ = INITIALIZATION_BLOCK.PROC_START$;
      226    20566    1       QI_1.INITIALIZATION_BLOCK$ =
      227    20567    1         ADDR ( INITIALIZATION_BLOCK );
      228    20568    1       QI_1.INSTR$ = ADDR ( FIRST_INSTRUCTION );
      229    20569    1       QI_1.ARGUMENTS_AND_OR_FREE_AUTO_A$$ =
      230    20570    1         ADDR ( ARGUMENTS_AND_OR_FREE_AUTO_A$ );
      231    20571            %PROC_ADDRESS ( THING@P = "INITIALIZATION_BLOCK.VERIFY_BUFFER_1@P",
      232    20572            CHECK_FOR_INDIRECTION = NO,
      233    20573            RESULT$ = "QI_1.VERIFY_BUFFER$" );
      234    20610    1       QI_1.VERIFY_BUFFER_SIZE = QI_1.VERIFY_BUFFER$ -> QI$DAD.PSEUDO_CIP.ALPHANUMERIC.
             20610                LEN;
      235    20611            %DATA_ADDRESS ( THING@D = "QI_1.VERIFY_BUFFER$ -> QI$DAD.PSEUDO_CIP.DATA@",
      236    20612            CHECK_FOR_INDIRECTION = NO,
      237    20613            RESULT$ = "QI_1.VERIFY_BUFFER$" );
      238    20650    1       QI_VLP_XBREAK.AUTO$ =
      239    20651    1         ADDR ( ARGUMENTS_AND_OR_FREE_AUTO_A$ );
      240    20652    1       QI_VLP_XBREAK.IC$ = QI_1.INSTR$;
      241    20653    1       QI_VLP_XBREAK.GOBREAK = %YES;
      242    20654
      243    20655            /*  Before we try anything at all, check to see if
      244    20656                this rununit is new enough.  QI_OLDEST_COMPILER_VERSION
      245    20657                contains the oldest allowable FPL compiler version
      246    20658                for running with the current interpreter.
      247    20659                Should the compiler and interpreter change such
      248    20660                as to make an older compiler incompatible,
      249    20661                QI_OLDEST_COMPILER_VERSION should be changed to the
      250    20662                version of the compiler & interpreter in which that
      251    20663                change was made.  */
      252    20664    1       IF INITIALIZATION_BLOCK.COMPILER_VERSION < QI_OLDEST_COMPILER_VERSION
      253    20665    1       THEN
      254    20666    1         CALL QCE$ERROR ( %E$INCOMPATIBLE_VERSION );
      255    20667
      256    20668    1       IF NOT QI_1.HOUSEKEEPING.IS_DBCONTROL_ESTABLISHED
      257    20669    1       THEN
      258    20670    1   ESTABLISH_DBCONTROL:
      259    20671    2         DO;
PL6.E3A0      #001=QAT$TALLYHO File=QAT$TALLYHO.:E05TSI                          WED 07/30/97 04:38 Page:9
      260    20672    2           QI_1.HOUSEKEEPING.IS_DBCONTROL_ESTABLISHED = %YES;
      261    20673    2           FPT@DBCONTROL = QI_FPT_DBCONTROL;
      262    20674    2           FPT@DBCONTROL.NDBCONTROL_ = VECTOR ( NDBCONTROL );
      263    20675
      264    20676    2           CALL M$DBCONTROL ( FPT@DBCONTROL )
      265    20677    2           WHENALTRETURN
      266    20678    3             DO;
      267    20679    3               CALL QCE$ERROR_M$INTERNAL ( %E$UNEXPECTED_ALTRET );
      268    20680    3             END;
      269    20681
      270    20682    2           IF G$JIT$ -> G$JIT.DB# > 0
      271    20683    2           THEN
      272    20684    2   THE_DEBUGGERS_ASSOCIATED:
      273    20685    3             DO;
      274    20686    3               CALL QCE$EXPERIENCE_M$XBREAK;
      275    20687    3             END THE_DEBUGGERS_ASSOCIATED;
      276    20688    2         END ESTABLISH_DBCONTROL;
      277    20689
      278    20690    1       IF NOT QI_1.HOUSEKEEPING.IS_INT_ESTABLISHED
      279    20691    1       THEN
      280    20692    1   ESTABLISH_INT:
      281    20693    2         DO;
      282    20694    2           QI_1.HOUSEKEEPING.IS_INT_ESTABLISHED = %YES;
      283    20695    2           FPT@INT = QI_FPT_INT;
      284    20696    2           FPT@INT.NINT_ = VECTOR ( NINT );
      285    20697
      286    20698    2           CALL M$INT ( FPT@INT )
      287    20699    2           WHENALTRETURN
      288    20700    3             DO;
      289    20701    3               CALL QCE$ERROR_M$INTERNAL ( %E$UNEXPECTED_ALTRET );
      290    20702    3             END;
      291    20703    2         END ESTABLISH_INT;
      292    20704
      293    20705    1       IF NOT QI_1.HOUSEKEEPING.IS_TRAP_ESTABLISHED
      294    20706    1       THEN
      295    20707    1   ESTABLISH_TRAP:
      296    20708    2         DO;
PL6.E3A0      #001=QAT$TALLYHO File=QAT$TALLYHO.:E05TSI                          WED 07/30/97 04:38 Page:10
      297    20709    2           QI_1.HOUSEKEEPING.IS_TRAP_ESTABLISHED = %YES;
      298    20710    2           FPT@TRAP = QI_FPT_TRAP;
      299    20711    2           FPT@TRAP.NTC_ = VECTOR ( NTC );
      300    20712    2           NTC = QI_VLP_TRAP_CONDITIONS;
      301    20713    2           NTC.TRAP$ = ENTADDR ( QCE$ERROR_TRAP );
      302    20714
      303    20715    2           CALL M$TRAP ( FPT@TRAP )
      304    20716    2           WHENALTRETURN
      305    20717    3             DO;
      306    20718    3               CALL QCE$ERROR_M$INTERNAL ( %E$UNEXPECTED_ALTRET );
      307    20719    3             END;
      308    20720    2         END ESTABLISH_TRAP;
      309    20721
      310    20722    1       IF NOT QI_1.HOUSEKEEPING.IS_BUFFER_ALLOCATED
      311    20723    1       THEN
      312    20724    1   ALLOCATE_BUFFER:
      313    20725    2         DO;
      314    20726    2           QI_1.HOUSEKEEPING.IS_BUFFER_ALLOCATED = %YES;
      315    20727                /*  The STATIC QI_VLP_SEGMENT_BUFFER should have the
      316    20728                    right stuff in it to get 4 pages from USRDS2,
      317    20729                    a LITTLE segment:  we'll let the X$whatever
      318    20730                    library services use this space to buffer up some
      319    20731                    of the MCALs we do.  */
      320    20732    2           FPT@GDS = QI_FPT_GDS_BUFFER;
      321    20733    2           VBASE ( FPT@GDS.V_ ) = ADDR ( FPT@GDS.V );
      322    20734
      323    20735    2           QI_VLP_SEGMENT_BUFFER.BASE = %GM_USRDS2_BASE;
      324    20736
      325    20737    2           CALL M$GDS ( FPT@GDS )
      326    20738    2           WHENALTRETURN
      327    20739    3             DO;
      328    20740    3               CALL QCE$ERROR ( %E$INSUFFICIENT_MEMORY );
      329    20741    3             END;
      330    20742
      331    20743    2           VBASE ( QGB_PARAM.BBUF_ ) = QI_VLP_SEGMENT_BUFFER.BASE$;
      332    20744    2           VBOUND ( QGB_PARAM.BBUF_ ) = ( QI_VLP_SEGMENT_BUFFER.PAGES * 256 ) - 1;
      333    20745    2         END ALLOCATE_BUFFER;
PL6.E3A0      #001=QAT$TALLYHO File=QAT$TALLYHO.:E05TSI                          WED 07/30/97 04:38 Page:11
      334    20746
      335    20747    1       IF NOT QI_1.HOUSEKEEPING.IS_MESSAGE_LINE_CREATED
      336    20748    1       THEN
      337    20749    1   CREATE_MESSAGE_LINE:
      338    20750    2         DO;
      339    20751    2           QI_1.HOUSEKEEPING.IS_MESSAGE_LINE_CREATED = %YES;
      340    20752    2           CALL CREATE_THE_MESSAGE_LINE;
      341    20753    2         END CREATE_MESSAGE_LINE;
      342    20754
      343    20755    1       QI_1.CURR_INSTR$ = QI_1.INSTR$;
      344    20756
      345    20757    1   QAT$TALLYHO_USE: ENTRY;
      346    20758
      347    20759    1       REMEMBER QAU$UNWIND IN QI_1.UNWIND$;
      348    20760
      349    20761    1       QI_1.CURRENT.FORM$ = ADDR(NIL);
      350    20762    1       QI_1.CURRENT.FRAME$ = ADDR(NIL);
      351    20763    1       QI_1.CURRENT.NODE$ = ADDR(NIL);
      352    20764
      353    20765    1   QAU$UNWIND:;
      354    20766    1   INSTRUCTION_CYCLE:
      355    20767    2       DO %FOREVER;
      356    20768
      357    20769    2         QI_1.CURR_INSTR$ = QI_1.INSTR$;
      358    20770    2         QI_1.OP_CODE = QI_1.INSTR$ -> QI$OP_SEQUENCE.CODE;
      359    20771    2         QI_1.SOURCE$ = ADDR ( QI_1.INSTR$ -> QI$OP_SEQUENCE.OPERAND_A@P (0) );
      360    20772
      361    20773    2         IF QI_1.HOUSEKEEPING.IS_DEBUGGER_ASSOCIATING
      362    20774    2         THEN
      363    20775    2   POST_ASSOCIATE:
      364    20776    3           DO;
      365    20777                  /*  The debugger is post-associating:  QCE$ERROR_DBCONTROL
      366    20778                      was called, so we're calling M$XBREAK before the
      367    20779                      next "instruction".  */
      368    20780    3             QI_1.HOUSEKEEPING.IS_DEBUGGER_ASSOCIATING = %NO;
      369    20781
      370    20782    3             QI_VLP_XBREAK.IC$ = QI_1.INSTR$;
PL6.E3A0      #001=QAT$TALLYHO File=QAT$TALLYHO.:E05TSI                          WED 07/30/97 04:38 Page:12
      371    20783
      372    20784    3             CALL QCE$EXPERIENCE_M$XBREAK;
      373    20785    3           END POST_ASSOCIATE;
      374    20786
      375    20787
      376    20788              /* Le Big Do Case... */
      377    20789    2   EXECUTE_THE_INSTRUCTION:
      378    20790    3         DO CASE ( QI_1.OP_CODE );
      379    20791
      380    20792    3           CASE ( %QI#OP_BREAK );
      381    20793                  /*  We've hit a BRK instruction which DELTA stuck out in
      382    20794                      the procedure section of the user's FPL program.  */
      383    20795    3             QI_VLP_XBREAK.IC$ = QI_1.INSTR$;
      384    20796    3             QI_VLP_XBREAK.TRAP# = %G_TRACE#;
      385    20797
      386    20798    3             CALL QCE$EXPERIENCE_M$XBREAK;
      387    20799
      388    20800    3             IF QI_VLP_XBREAK.GOBREAK
      389    20801    3             THEN
      390    20802    3   USE_REPLACED_OP_CODE:
      391    20803    4               DO;
      392    20804    4                 QI_1.OP_CODE = QI_VLP_XBREAK.REPLACED.INSTR;
      393    20805    4                 GOTO EXECUTE_THE_INSTRUCTION;
      394    20806    4               END USE_REPLACED_OP_CODE;
      395    20807
      396    20808                /*
      397    20809                CASE ( %QI#OP_CNVNP );
      398    20810                  CALL QI1$CNVNP;
      399    20811
      400    20812                CASE ( %QI#OP_CNVNB );
      401    20813                  CALL QI1$CNVNB;
      402    20814                               */
      403    20815
      404    20816    3           CASE ( %QI#OP_CNVNBT );
      405    20817    3             CALL QBC$CNVNBT;
      406    20818
      407    20819    3           CASE ( %QI#OP_CNVBN );
PL6.E3A0      #001=QAT$TALLYHO File=QAT$TALLYHO.:E05TSI                          WED 07/30/97 04:38 Page:13
      408    20820    3             CALL QBC$CNVBN;
      409    20821
      410    20822    3           CASE ( %QI#OP_CNVBNX );
      411    20823    3             CALL QBC$CNVBNX;
      412    20824
      413    20825    3           CASE ( %QI#OP_CNVBPX );
      414    20826    3             CALL QBC$CNVBPX;
      415    20827
      416    20828    3           CASE ( %QI#OP_CNVPN );
      417    20829    3             CALL QBC$CNVPN;
      418    20830
      419    20831    3           CASE ( %QI#OP_CNVPBT );
      420    20832    3             CALL QBC$CNVPBT;
      421    20833
      422    20834    3           CASE ( %QI#OP_MOVA );
      423    20835    3             CALL QBM$MOVA;
      424    20836
      425    20837    3           CASE ( %QI#OP_MOVN );
      426    20838    3             CALL QBM$MOVN;
      427    20839
      428    20840    3           CASE ( %QI#OP_MOVP );
      429    20841    3             CALL QBM$MOVP;
      430    20842
      431    20843    3           CASE ( %QI#OP_MOVB );
      432    20844    3             CALL QBM$MOVB;
      433    20845
      434    20846    3           CASE ( %QI#OP_MOVNA );
      435    20847    3             CALL QBM$MOVNA;
      436    20848
      437    20849                /*
      438    20850                CASE ( %QI#OP_MOVN2 );
      439    20851                  CALL QI1$MOVN2;
      440    20852                               */
      441    20853
      442    20854    3           CASE ( %QI#OP_MOVPA );
      443    20855    3             CALL QBM$MOVPA;
      444    20856
PL6.E3A0      #001=QAT$TALLYHO File=QAT$TALLYHO.:E05TSI                          WED 07/30/97 04:38 Page:14
      445    20857    3           CASE ( %QI#OP_MOVBA );
      446    20858    3             CALL QBM$MOVBA;
      447    20859
      448    20860    3           CASE ( %QI#OP_MOVAE );
      449    20861    3             CALL QBM$MOVAE;
      450    20862
      451    20863    3           CASE ( %QI#OP_MOVNE );
      452    20864    3             CALL QBM$MOVNE;
      453    20865
      454    20866    3           CASE ( %QI#OP_MOVNEA );
      455    20867    3             CALL QBM$MOVNEA;
      456    20868
      457    20869    3           CASE ( %QI#OP_MOVDE );
      458    20870    3             CALL QBM$MOVDE;
      459    20871
      460    20872    3           CASE ( %QI#OP_MOVAJ );
      461    20873    3             CALL QBM$MOVAJ;
      462    20874
      463    20875    3           CASE ( %QI#OP_MOVG );
      464    20876    3             CALL QBM$MOVG;
      465    20877
      466    20878    3           CASE ( %QI#OP_ADD );
      467    20879    3             CALL QBX$ADD;
      468    20880
      469    20881    3           CASE ( %QI#OP_SUB );
      470    20882    3             CALL QBX$SUB;
      471    20883
      472    20884    3           CASE ( %QI#OP_MULT );
      473    20885    3             CALL QBX$MULT;
      474    20886
      475    20887    3           CASE ( %QI#OP_DIV );
      476    20888    3             CALL QBX$DIV;
      477    20889
      478    20890    3           CASE ( %QI#OP_ADDX );
      479    20891    3             CALL QBX$ADDX;
      480    20892
      481    20893    3           CASE ( %QI#OP_SUBX );
PL6.E3A0      #001=QAT$TALLYHO File=QAT$TALLYHO.:E05TSI                          WED 07/30/97 04:38 Page:15
      482    20894    3             CALL QBX$SUBX;
      483    20895
      484    20896    3           CASE ( %QI#OP_MULTX );
      485    20897    3             CALL QBX$MULTX;
      486    20898
      487    20899    3           CASE ( %QI#OP_DIVX );
      488    20900    3             CALL QBX$DIVX;
      489    20901
      490    20902    3           CASE ( %QI#OP_ROUND );
      491    20903    3             CALL QBX$ROUND;
      492    20904
      493    20905    3           CASE ( %QI#OP_IFRELA );
      494    20906    3             CALL QBI$IFRELA ALTRET ( TRANSFER_OCCURRED );
      495    20907
      496    20908    3           CASE ( %QI#OP_IFRELN );
      497    20909    3             CALL QBI$IFRELN ALTRET ( TRANSFER_OCCURRED );
      498    20910
      499    20911    3           CASE ( %QI#OP_IFRELG );
      500    20912    3             CALL QBI$IFRELG ALTRET ( TRANSFER_OCCURRED );
      501    20913
      502    20914    3           CASE ( %QI#OP_IFCLS );
      503    20915    3             CALL QBI$IFCLS ALTRET ( TRANSFER_OCCURRED );
      504    20916
      505    20917    3           CASE ( %QI#OP_IFCNDA );
      506    20918    3             CALL QBI$IFCNDA ALTRET ( TRANSFER_OCCURRED );
      507    20919
      508    20920    3           CASE ( %QI#OP_IFCNDN );
      509    20921    3             CALL QBI$IFCNDN ALTRET ( TRANSFER_OCCURRED );
      510    20922
      511    20923                /*
      512    20924                CASE ( %QI#OP_IFIDX );
      513    20925                  CALL QI1$IFIDX ALTRET ( TRANSFER_OCCURRED );
      514    20926                               */
      515    20927
      516    20928    3           CASE ( %QI#OP_GOTO );
      517    20929    3             CALL QBG$GOTO ALTRET ( TRANSFER_OCCURRED );
      518    20930
PL6.E3A0      #001=QAT$TALLYHO File=QAT$TALLYHO.:E05TSI                          WED 07/30/97 04:38 Page:16
      519    20931    3           CASE ( %QI#OP_GOTODP );
      520    20932    3             CALL QBG$GOTODP ALTRET ( TRANSFER_OCCURRED );
      521    20933
      522    20934    3           CASE ( %QI#OP_PERFM );
      523    20935    3             CALL QBP$PERFM ALTRET ( TRANSFER_OCCURRED );
      524    20936
      525    20937    3           CASE ( %QI#OP_PERFMT );
      526    20938    3             CALL QBP$PERFMT ALTRET ( TRANSFER_OCCURRED );
      527    20939
      528    20940    3           CASE ( %QI#OP_CALL );
      529    20941    3             CALL QBC$CALL;
      530    20942
      531    20943    3           CASE ( %QI#OP_EXIT );
      532    20944    3             RETURN;
      533    20945
      534    20946    3           CASE ( %QI#OP_STOP_RUN );
      535    20947    3             CALL QBS$STOP_RUN;
      536    20948
      537    20949    3           CASE ( %QI#OP_STOP_1 );
      538    20950    3             CALL QBS$STOP_PAUSE;
      539    20951
      540    20952    3           CASE ( %QI#OP_ABORT );
      541    20953    3             CALL QBA$ABORT;
      542    20954
      543    20955                /*
      544    20956                CASE ( %QI#OP_SET );
      545    20957                  CALL QI1$SET;
      546    20958
      547    20959                CASE ( %QI#OP_SETD );
      548    20960                  CALL QI1$SETD;
      549    20961
      550    20962                CASE ( %QI#OP_SETX );
      551    20963                  CALL QI1$SETX;
      552    20964
      553    20965                CASE ( %QI#OP_SETXUD );
      554    20966                  CALL QI1$SETXUD;
      555    20967                                */
PL6.E3A0      #001=QAT$TALLYHO File=QAT$TALLYHO.:E05TSI                          WED 07/30/97 04:38 Page:17
      556    20968
      557    20969    3           CASE ( %QI#OP_INSPECT );
      558    20970    3             CALL QBI$INSPECT;
      559    20971
      560    20972                /*
      561    20973                CASE ( %QI#OP_SEARCH );
      562    20974                  CALL QI1$SEARCH;
      563    20975                                */
      564    20976
      565    20977    3           CASE ( %QI#OP_SUBSCR );
      566    20978    3             CALL QBS$SUBSCRIPT;
      567    20979
      568    20980                /*
      569    20981                CASE ( %QI#OP_INDEX );
      570    20982                  CALL QI1$INDEX;
      571    20983                               */
      572    20984
      573    20985    3           CASE ( %QI#OP_ALL_LITERAL );
      574    20986    3             CALL QBA$ALL_LITERAL_MOVE;
      575    20987
      576    20988                /*
      577    20989                CASE ( %QI#OP_INIT );
      578    20990                  CALL QB1$INIT;
      579    20991                              */
      580    20992
      581    20993    3           CASE ( %QI#OP_JAZ );
      582    20994    3             CALL QBJ$JAZ ALTRET ( TRANSFER_OCCURRED );
      583    20995
      584    20996    3           CASE ( %QI#OP_JND );
      585    20997    3             CALL QBJ$JND ALTRET ( TRANSFER_OCCURRED );
      586    20998
      587    20999    3           CASE ( %QI#OP_LOAD );
      588    21000    3             CALL QBL$LOAD;
      589    21001
      590    21002    3           CASE ( %QI#OP_OPEN );
      591    21003    3             CALL QBO$OPEN;
      592    21004
PL6.E3A0      #001=QAT$TALLYHO File=QAT$TALLYHO.:E05TSI                          WED 07/30/97 04:38 Page:18
      593    21005    3           CASE ( %QI#OP_CLOSE );
      594    21006    3             CALL QBC$CLOSE;
      595    21007
      596    21008    3           CASE ( %QI#OP_APPLY );
      597    21009    3             CALL QBA$APPLY;
      598    21010
      599    21011    3           CASE ( %QI#OP_ACTIVATE );
      600    21012    3             CALL QBA$ACTIVATE;
      601    21013
      602    21014    3           CASE ( %QI#OP_DEACTIVATE );
      603    21015    3             CALL QBA$DEACTIVATE;
      604    21016
      605    21017    3           CASE ( %QI#OP_CLEAR );
      606    21018    3             CALL QBC$CLEAR;
      607    21019
      608    21020    3           CASE ( %QI#OP_ENABLE );
      609    21021    3             CALL QBE$ENABLE;
      610    21022
      611    21023    3           CASE ( %QI#OP_DISABLE );
      612    21024    3             CALL QBE$DISABLE;
      613    21025
      614    21026    3           CASE ( %QI#OP_PRESENT );
      615    21027    3             CALL QBV$PRESENT;
      616    21028
      617    21029    3           CASE ( %QI#OP_VERIFY );
      618    21030    3             CALL QBV$VERIFY;
      619    21031
      620    21032    3           CASE ( %QI#OP_ACCEPT );
      621    21033    3             CALL QBA$ACCEPT;
      622    21034
      623    21035    3           CASE ( %QI#OP_DISPLAY );
      624    21036    3             CALL QBD$DISPLAY;
      625    21037
      626    21038    3           CASE ( %QI#OP_READ_TRAN );
      627    21039    3             CALL QBR$READ_TRAN;
      628    21040
      629    21041    3           CASE ( %QI#OP_IFINDR );
PL6.E3A0      #001=QAT$TALLYHO File=QAT$TALLYHO.:E05TSI                          WED 07/30/97 04:38 Page:19
      630    21042    3             CALL QBI$IF_INDICATOR ALTRET ( TRANSFER_OCCURRED );
      631    21043
      632    21044    3           CASE ( %QI#OP_WRITE_TRAN );
      633    21045    3             CALL QBW$WRITE_TRAN;
      634    21046
      635    21047    3           CASE ( %QI#OP_READ_FORM );
      636    21048    3             CALL QBR$READ_FORM;
      637    21049
      638    21050    3           CASE ( %QI#OP_WRITE_FORM );
      639    21051    3             CALL QBW$WRITE_FORM;
      640    21052
      641    21053                /*
      642    21054                CASE ( %QI#OP_DELETE );
      643    21055                  CALL QI1$DELETE;
      644    21056                                */
      645    21057
      646    21058    3           CASE ( ELSE );
      647    21059    3             CALL QCE$ERROR_INTERNAL ( %E$INTERNAL_INTERPRETER_ERROR );
      648    21060
      649    21061    3         END;  /* DO CASE ( QI_1.OP_CODE ); */
      650    21062
      651    21063
      652    21064    3         DO %NEVER;
      653    21065
      654    21066    3   TRANSFER_OCCURRED:
      655    21067    3           IF QI_VLP_XBREAK.TT
      656    21068    3           THEN
      657    21069    3   REPORT_TRANSFER:
      658    21070    4             DO;
      659    21071    4               QI_VLP_XBREAK.OLDIC$ = QI_1.CURR_INSTR$;
      660    21072    4               QI_VLP_XBREAK.IC$ = QI_1.INSTR$;
      661    21073    4               QI_VLP_XBREAK.TRAP# = %G_TRACE#;
      662    21074
      663    21075    4               CALL QCE$EXPERIENCE_M$XBREAK;
      664    21076    4             END REPORT_TRANSFER;
      665    21077
      666    21078    3         END;  /* DO %NEVER; */
PL6.E3A0      #001=QAT$TALLYHO File=QAT$TALLYHO.:E05TSI                          WED 07/30/97 04:38 Page:20
      667    21079
      668    21080    2       END INSTRUCTION_CYCLE;
      669    21081
      670    21082        %EJECT;
PL6.E3A0      #001=QAT$TALLYHO File=QAT$TALLYHO.:E05TSI                          WED 07/30/97 04:38 Page:21
      671    21083    1   CREATE_THE_MESSAGE_LINE: PROC;
      672    21084
      673    21085        /*I*  NAME:         CREATE_THE_MESSAGE_LINE
      674    21086              PURPOSE:      OPEN the default MESSAGE LINE.
      675    21087              CALL:         CALL CREATE_THE_MESSAGE_LINE;
      676    21088              PARAMETERS:   None.
      677    21089              DATA:         QI_1.MESSAGE_LINE[_whatever],
      678    21090                            QI_FPT_GDS,
      679    21091                            QI_VLP_SEGMENT.
      680    21092              DESCRIPTION:  Build an entry for the default MESSAGE LINE
      681    21093                            out in GZ-land (dynamic memory), and M$OPEN
      682    21094                            it.  Its position on the screen, length, etc.
      683    21095                            are determined by VDH.
      684    21096        */
      685    21097
      686    21098          %FPT_OPEN ( FPTN = FPT@OPEN,
      687    21099                      STCLASS = AUTO );
      688    21127          %FPT_PROMPT ( FPTN = FPT@PROMPT,
      689    21128                        STCLASS = AUTO );
      690    21156    2     DCL VLP_PROMPT CHAR(1) CONSTANT INIT('@');
      691    21157          %FPT_TRMCTL ( FPTN = FPT@TRMCTL,
      692    21158                        STCLASS = AUTO );
      693    21185          %VLP_TRMCTL ( FPTN = VLP@TRMCTL,
      694    21186                        STCLASS = AUTO );
      695    21226
      696    21227        %EJECT;
PL6.E3A0      #001=QAT$TALLYHO File=QAT$TALLYHO.:E05TSI                          WED 07/30/97 04:38 Page:22
      697    21228    2       FPT@OPEN = QI_FPT_OPEN;
      698    21229    2       VBASE ( FPT@OPEN.V_ ) = ADDR ( FPT@OPEN.V );
      699    21230    2       FPT@OPEN.V.DCB# = INITIALIZATION_BLOCK.MESSAGE_LINE_DCB#;
      700    21231    2       FPT@OPEN.V.ORG = %G_ORG_TERMINAL#;
      701    21232    2       FPT@OPEN.V.RES = 'UC01';
      702    21233    2       FPT@OPEN.V.DVFC = %VFC_TRANSITION0;
      703    21234
      704    21235    2       CALL M$OPEN ( FPT@OPEN )
      705    21236    2       WHENALTRETURN
      706    21237    3         DO;
      707    21238    3           CALL QCE$ERROR_M$INTERNAL ( %E$UNEXPECTED_ALTRET );
      708    21239    3         END;
      709    21240
      710    21241    2       FPT@PROMPT = QI_FPT_PROMPT;
      711    21242    2       VBASE ( FPT@PROMPT.V_ ) = ADDR ( FPT@PROMPT.V );
      712    21243    2       FPT@PROMPT.V.DCB# = INITIALIZATION_BLOCK.MESSAGE_LINE_DCB#;
      713    21244    2       FPT@PROMPT.PROMPT_ = VECTOR ( VLP_PROMPT );
      714    21245
      715    21246    2       CALL M$PROMPT ( FPT@PROMPT )
      716    21247    2       WHENALTRETURN
      717    21248    3         DO;
      718    21249    3           CALL QCE$ERROR_M$INTERNAL ( %E$UNEXPECTED_ALTRET );
      719    21250    3         END;
      720    21251
      721    21252    2       FPT@TRMCTL = QI_FPT_TRMCTL;
      722    21253    2       VBASE ( FPT@TRMCTL.V_ ) = ADDR ( FPT@TRMCTL.V );
      723    21254    2       FPT@TRMCTL.V.DCB# = INITIALIZATION_BLOCK.MESSAGE_LINE_DCB#;
      724    21255    2       FPT@TRMCTL.TRMCTL_ = VECTOR ( VLP@TRMCTL );
      725    21256
      726    21257    2       CALL M$GTRMCTL ( FPT@TRMCTL )
      727    21258    2       WHENALTRETURN
      728    21259    3         DO;
      729    21260    3           CALL QCE$ERROR_M$INTERNAL ( %E$UNEXPECTED_ALTRET );
      730    21261    3         END;
      731    21262
      732    21263    2       QI_1.HOUSEKEEPING.INITIAL_PAGEHALT_SETTING = VLP@TRMCTL.PAGEHALT;
      733    21264    2       VLP@TRMCTL.PAGEHALT = %NO;
PL6.E3A0      #001=QAT$TALLYHO File=QAT$TALLYHO.:E05TSI                          WED 07/30/97 04:38 Page:23
      734    21265
      735    21266    2       CALL M$STRMCTL ( FPT@TRMCTL )
      736    21267    2       WHENALTRETURN
      737    21268    3         DO;
      738    21269    3           CALL QCE$ERROR_M$INTERNAL ( %E$UNEXPECTED_ALTRET );
      739    21270    3         END;
      740    21271
      741    21272        /*
      742    21273            The STATIC QI_VLP_SEGMENT should have the right stuff in it
      743    21274            to get 1 page from USRDS3, a BIG segment.
      744    21275        */
      745    21276    2       FPT@GDS = QI_FPT_GDS;
      746    21277    2       VBASE ( FPT@GDS.V_ ) = ADDR ( FPT@GDS.V );
      747    21278
      748    21279    2       QI_VLP_SEGMENT.BASE = %GM_USRDS3_BASE;
      749    21280
      750    21281    2       CALL M$GDS ( FPT@GDS )
      751    21282    2       WHENALTRETURN
      752    21283    3         DO;
      753    21284    3           CALL QCE$ERROR ( %E$INSUFFICIENT_MEMORY );
      754    21285    3         END;
      755    21286
      756    21287    2       QI_1.GZ.LAST_HEADER$ = QI_VLP_SEGMENT.BASE$;
      757    21288    2       QI_1.GZ.AVAILABLE$ = PINCRW ( QI_1.GZ.LAST_HEADER$,
      758    21289    2         SIZEW (QI$GZ_HEADER) + SIZEW (QI$GZ_FIELD) );
      759    21290
      760    21291    2       QI_1.MESSAGE_LINE_GZ.HEADER$ = QI_VLP_SEGMENT.BASE$;
      761    21292
      762    21293    2       QI_1.MESSAGE_LINE_GZ.HEADER$ -> QI$GZ_HEADER = '0'B;
      763    21294
      764    21295    2       QI_1.MESSAGE_LINE_GZ.HEADER$ -> QI$GZ_HEADER.IS_ACTIVE = %YES;
      765    21296    2       QI_1.MESSAGE_LINE_GZ.HEADER$ -> QI$GZ_HEADER.DCB# = INITIALIZATION_BLOCK.
             21296                MESSAGE_LINE_DCB#;
      766    21297    2       QI_1.MESSAGE_LINE_GZ.HEADER$ -> QI$GZ_HEADER.FIELD_COUNT = 1;
      767    21298    2       QI_1.MESSAGE_LINE_GZ.HEADER$ -> QI$GZ_HEADER.FRAME_DAD$ = ADDR ( NIL );
      768    21299
      769    21300    2       QI_1.MESSAGE_LINE_GZ.START$ =
PL6.E3A0      #001=QAT$TALLYHO File=QAT$TALLYHO.:E05TSI                          WED 07/30/97 04:38 Page:24
      770    21301    2         PINCRW ( QI_1.MESSAGE_LINE_GZ.HEADER$,
      771    21302    2         SIZEW ( QI$GZ_HEADER ) );
      772    21303    2       QI_1.MESSAGE_LINE_GZ.STOP$ = QI_1.MESSAGE_LINE_GZ.START$;
      773    21304
      774    21305    2       QI_1.MESSAGE_LINE_GZ.START$ -> QI$GZ_FIELD = '0'B;
      775    21306    2       QI_1.MESSAGE_LINE_GZ.START$ -> QI$GZ_FIELD.DESCRIPTION.IO_FLAGS.IS_OUTPUT = %YES
             21306                ;
      776    21307    2       QI_1.MESSAGE_LINE_GZ.START$ -> QI$GZ_FIELD.INDICATORS$ = ADDR (NIL);
      777    21308    2       QI_1.MESSAGE_LINE_GZ.START$ -> QI$GZ_FIELD.STATUS.VISUAL_ATTRIBUTE = %
             21308                QI#OUTPUT_VISUAL_ATTRIBUTE;
      778    21309
      779    21310    2       RETURN;
      780    21311
      781    21312    2   END CREATE_THE_MESSAGE_LINE;
      782    21313
      783    21314    1   END QAT$TALLYHO;

PL6.E3A0      #001=QAT$TALLYHO File=QAT$TALLYHO.:E05TSI                          WED 07/30/97 04:38 Page:25
--  Include file information  --

   QI_MACROS_M.:E05TOU  is referenced.
   QI_PERR_C.:E05TOU  is referenced.
   QI_EQUATES_E.:E05TOU  is referenced.
   QG_MACRO_M.:E05TOU  is referenced.
   NK_VFC_C.:E05TOU  is referenced.
   LCP_6.:E05TOU  cannot be made into a system file and is referenced.
   G_JIT_M.:E05TOU  is referenced.
   GM_VIRTUAL_E.:E05TOU  is referenced.
   G_LCP6_E.:E05TOU  was found in the system file and is referenced.
   GT_LCP6_M.:E05TOU  was found in the system file and is referenced.
   KI_CP6.:E05TOU  was found in the system file and is referenced.
   GF_LCP6_M.:E05TOU  was found in the system file and is referenced.
   GM_LCP6_M.:E05TOU  was found in the system file and is referenced.
   GU_LCP6_M.:E05TOU  was found in the system file and is referenced.
   GJ_LCP6_M.:E05TOU  was found in the system file and is referenced.
   GH_LCP6_M.:E05TOU  was found in the system file and is referenced.
      No diagnostics issued in procedure QAT$TALLYHO.

   Procedure QAT$TALLYHO requires 1395 words for executable code.
   Procedure QAT$TALLYHO requires 129 words of local(AUTO) storage.

    No errors detected in file QAT$TALLYHO.:E05TSI    .

PL6.E3A0      #001=QAT$TALLYHO File=QAT$TALLYHO.:E05TSI                          WED 07/30/97 04:38 Page:26

 Object Unit name= QAT$TALLYHO                                File name= QAT$TALLYHO.:E05TOU
 UTS= JUL 30 '97 04:38:52.60 WED                              Compiler= PL-6/E31         Sev=      00
 SharedLib= :SHARED_LCP6_SYSTEM                               Alt SharedLib=


    ****  Control sections  ****

 Sect   Type Bound  Init  Size HexSiz  Section name
    0  RoData even  UTS      9      9  QAT$TALLYHO
    1   Proc  even  none  1395    573  QAT$TALLYHO
    2  RoData even  none    21     15  QAT$TALLYHO

    ****  Entry defs  ****

                              Check   Calling
                             calling  sequence
  Sect HexLoc Primary Altret sequence   type   Parms  Name
     1      0   yes            yes      Std        3  QAT$TALLYHO
     1    148                  yes      Std        0  QAT$TALLYHO_USE

  ****  Data defs  ****

 Sect HexLoc  Name                           Sect HexLoc  Name
    0      4  QI_OLDEST_COMPILER_VERSION
PL6.E3A0      #001=QAT$TALLYHO File=QAT$TALLYHO.:E05TSI                          WED 07/30/97 04:38 Page:27

  ****  Entry refs  ****

         Check        Calling
        calling       sequence
Altret sequence SRef   type   Args  Name
         yes          Async      0 QCE$ERROR_DBCONTROL
         yes          Async      0 QCE$ERROR_TRAP
         yes           Std       0 QBC$CNVBN
         yes           Std       0 QBM$MOVG
 yes     yes           Std       0 QBI$IFRELG
 yes     yes           Std       0 QBI$IFCLS
         yes           Std       0 QBS$STOP_PAUSE
         yes           Std       0 QBC$CNVBPX
         yes           Std       0 QBM$MOVDE
 yes     yes           Std       0 QBG$GOTODP
         yes           Std       0 QBA$APPLY
         yes           Std       0 QBE$ENABLE
         yes           Std       0 QBC$CNVPN
         yes           Std       0 QBM$MOVP
         yes           Std       0 QBM$MOVBA
         yes           Std       0 QBD$DISPLAY
         yes           Std       0 QBM$MOVAE
         yes           Std       0 QBX$MULT
         yes           Std       0 QBW$WRITE_TRAN
 yes     yes           Std       0 QBI$IFRELN
         yes           Std       4 QCE$ERROR_INTERNAL
         yes           Std       0 QBE$DISABLE
         yes           Std       0 QBR$READ_TRAN
         yes           Std       0 QBM$MOVNEA
 yes     yes           Std       0 QBI$IFCNDN
         yes           Std       0 QBI$INSPECT
         yes           Std       0 QBX$DIVX
         yes           Std       0 QBS$STOP_RUN
         yes          Async      0 QCE$ERROR_INT
         yes           Std       4 QCE$ERROR
         yes           Std       4 QCE$ERROR_M$INTERNAL
         yes           Std       0 QCE$EXPERIENCE_M$XBREAK
PL6.E3A0      #001=QAT$TALLYHO File=QAT$TALLYHO.:E05TSI                          WED 07/30/97 04:38 Page:28
 yes     yes           Std       0 QBI$IFCNDA
         yes           Std       0 QBC$CNVPBT
         yes           Std       0 QBM$MOVA
         yes           Std       0 QBM$MOVNA
 yes     yes           Std       0 QBJ$JND
         yes           Std       0 QBW$WRITE_FORM
         yes           Std       0 QBA$DEACTIVATE
         yes           Std       0 QBA$ACCEPT
         yes           Std       0 QBO$OPEN
         yes           Std       0 QBM$MOVAJ
 yes     yes           Std       0 QBP$PERFM
         yes           Std       0 QBX$ROUND
 yes     yes           Std       0 QBG$GOTO
 yes     yes           Std       0 QBJ$JAZ
         yes           Std       0 QBC$CALL
         yes           Std       0 QBS$SUBSCRIPT
         yes           Std       0 QBX$ADD
         yes           Std       0 QBV$PRESENT
 yes     yes           Std       0 QBP$PERFMT
         yes           Std       0 QBC$CLOSE
         yes           Std       0 QBC$CNVBNX
         yes           Std       0 QBM$MOVPA
 yes     yes           Std       0 QBI$IF_INDICATOR
         yes           Std       0 QBA$ACTIVATE
         yes           Std       0 QBC$CLEAR
         yes           Std       0 QBM$MOVNE
         yes           Std       0 QBC$CNVNBT
         yes           Std       0 QBM$MOVB
         yes           Std       0 QBX$DIV
         yes           Std       0 QBX$MULTX
         yes           Std       0 QBA$ABORT
         yes           Std       0 QBR$READ_FORM
         yes           Std       0 QBA$ALL_LITERAL_MOVE
         yes           Std       0 QBL$LOAD
         yes           Std       0 QBM$MOVN
         yes           Std       0 QBX$ADDX
         yes           Std       0 QBV$VERIFY
PL6.E3A0      #001=QAT$TALLYHO File=QAT$TALLYHO.:E05TSI                          WED 07/30/97 04:38 Page:29
         yes           Std       0 QBX$SUB
 yes     yes           Std       0 QBI$IFRELA
         yes           Std       0 QBX$SUBX
                       nStd      0 X6A_AUTO_3
                       nStd      0 X6A_ARET

  ****  Data refs  ****

  Flags:  r = read only, s = secondary
Flgs Name                             Flgs Name                             Flgs Name
     G$JIT$                                QI_1                                  QGB_PARAM
     QI_4_CHAR_ALPHANUMERIC                QI_31_DIGIT_SLS_DISPLAY               QI_16_BIT_BINARY
     QI_32_BIT_BINARY                      QI_31_DIGIT_ST_PACKED                 QI_PICTURE_STRING
     QI_FPT_DBCONTROL                      QI_FPT_GDS                            QI_VLP_SEGMENT
     QI_FPT_GDS_BUFFER                     QI_VLP_SEGMENT_BUFFER                 QI_FPT_INT
     QI_FPT_OPEN                           QI_FPT_PROMPT                         QI_FPT_TRAP
     QI_VLP_TRAP_CONDITIONS                QI_FPT_TRMCTL                         QI_VLP_XBREAK
r    G$ROS$
PL6.E3A0      #001=QAT$TALLYHO File=QAT$TALLYHO.:E05TSI                          WED 07/30/97 04:38 Page:30


        1        1        /*M* QAT$TALLYHO:  Main loop:  instruction fetch & execute.  */
        2        2        /*T***********************************************************/
        3        3        /*T*                                                         */
        4        4        /*T* Copyright (c) Bull HN Information Systems Inc., 1997    */
        5        5        /*T*                                                         */
        6        6        /*T***********************************************************/
        7        7        /*X* DMC,PLM=4,IND=0,DCI=4,CSI=2,IAD=2,DTI=2,AND,ECI=0,DIN=2,STI=2 */
        8        8
        9        9        /*P*  NAME:         QAT$TALLYHO
       10       10              PURPOSE:      Execute FPL pseudo-op-codes.
       11       11              DESCRIPTION:  This is the FPL interpreter's "main" entry point.
       12       12                            It's LNJ'ed-to by an FPL rununit in the FEP,
       13       13                            after its three parameters are set up.  It goes
       14       14                            merrily along calling routines to execute FPL
       15       15                            op-codes until:
       16       16                            1)  a STOP RUN statement is executed;
       17       17                            2)  an ABORT [ 'literal' | dataname ] statement
       18       18                                is executed;
       19       19                            3)  a user-error condition is encountered
       20       20                                (e.g., "Form not open");
       21       21                            4)  an internal-error condition is encountered
       22       22                                (e.g., "Unexpected M$READ ALTRET").
       23       23              REFERENCE:    You might be amused by a DRAW of QI_DATA_D,
       24       24                            which defines structures for everything
       25       25                            (just about) that the FPL compiler generates.
       26       26        */
       27       27
       28       28        QAT$TALLYHO: PROC ( INITIALIZATION_BLOCK,

     28   1 000000  D380 0000 0000  xent QAT$TALLYHO     LNJ,B5   X6A_AUTO_3
          1 000003       0081 0003                       DC       129,3

       29       29              FIRST_INSTRUCTION,
       30       30              ARGUMENTS_AND_OR_FREE_AUTO_A$ );
       31       31
       32       32        /*D*  NAME:         QAT$TALLYHO
PL6.E3A0      #001=QAT$TALLYHO File=QAT$TALLYHO.:E05TSI                          WED 07/30/97 04:38 Page:31
       33       33              CALL:         CALL QAT$TALLYHO
       34       34                            ( INITIALIZATION_BLOCK,
       35       35                              FIRST_INSTRUCTION,
       36       36                              ARGUMENTS_AND_OR_FREE_AUTO_A$ );
       37       37              PARAMETERS:   1)  INITIALIZATION_BLOCK is an FPL compiler
       38       38                                generated structure containing all kinds
       39       39                                of interesting things that the interpreter
       40       40                                needs to know to start executing.  See
       41       41                                the %QI$INITIALIZATION_BLOCK MACRO in
       42       42                                QI_MACROS_M.
       43       43                            2)  FIRST_INSTRUCTION is the word of the FPL
       44       44                                rununit containing the first op-code.  It's
       45       45                                ADDR is used to initialize the instuction
       46       46                                counter (pointer).
       47       47                            3)  ARGUMENTS_AND_OR_FREE_AUTO_A$ is a pointer
       48       48                                to an auto area which the FPL rununit has
       49       49                                acquired (via X6A_[M]AUTO[_n]) which:
       50       50                                a)  was used already to accept arguments
       51       51                                    from other programs according to the
       52       52                                    general calling sequence formula;
       53       53                                b)  will be used to CALL other programs
       54       54                                    (the compiler reserved enough space
       55       55                                    for the largest CALL statement it
       56       56                                    found within the subroutine which
       57       57                                    QAT$TALLYHO is executing).
       58       58              INTERFACE:    This is called by every FPL main routine and
       59       59                            subroutine in an FPL rununit if and when they're
       60       60                            entered.  See QBC$CALL for a discussion of
       61       61                            calls to subroutines from "below" the QAT$TALLYHO
       62       62                            level.
       63       63              ENVIRONMENT:  At the time this was written, a shared library
       64       64                            living somewhere within an L6 was thought
       65       65                            adequate.
       66       66              INPUT:        QI_1, etc.
       67       67              OUTPUT:       QI_1, etc.
       68       68              SCRATCH:      Various otter stuff.
       69       69              DESCRIPTION:  All the stuff before QAT$TALLYHO_USE is done
PL6.E3A0      #001=QAT$TALLYHO File=QAT$TALLYHO.:E05TSI                          WED 07/30/97 04:38 Page:32
       70       70                            only once, to do "initialization" for the
       71       71                            currently executing FPL main routine or
       72       72                            subroutine.  Then a "do forever" loop is entered
       73       73                            for executing all the op-codes within the routine.
       74       74                            An external subroutine is called to execute
       75       75                            each op-code, and it's that routine's duty to
       76       76                            update the instruction counter to point to the
       77       77                            next op-code.
       78       78        */
       79       79
       80       80          %INCLUDE GM_VIRTUAL_E;
       81      290          %INCLUDE G_JIT_M;
       82      555          %INCLUDE LCP_6;
       83      746          %INCLUDE NK_VFC_C;
       84      820
       85      821            %FPT_DBCONTROL ( FPTN = FPT@DBCONTROL,
       86      822            STCLASS = AUTO );
       87      862    1     DCL NDBCONTROL EPTR CONSTANT INIT(ENTADDR(QCE$ERROR_DBCONTROL));
       88      863          %FPT_INT ( FPTN = FPT@INT,
       89      864                     STCLASS = AUTO );
       90      904    1     DCL NINT EPTR CONSTANT INIT(ENTADDR(QCE$ERROR_INT));
       91      905          %FPT_TRAP ( FPTN = FPT@TRAP,
       92      906                      STCLASS = AUTO );
       93      921          %VLP_TRAP_CONDITIONS ( FPTN = NTC,
       94      922                                 STCLASS = AUTO );
       95     1078          %FPT_GDS ( FPTN = FPT@GDS,
       96     1079                     STCLASS = AUTO );
       97     1103          %G$JIT;
       98     1517    1     DCL G$JIT$ PTR SYMREF;
       99     1518
      100     1519          %INCLUDE QG_MACRO_M;
      101     1656          %INCLUDE QI_EQUATES_E;
      102     2015          %INCLUDE QI_PERR_C;
      103     2183          %INCLUDE QI_MACROS_M;
      104     7241          %QI$ALL;
      105    18354          %QI_FPTS;
      106    20399
PL6.E3A0      #001=QAT$TALLYHO File=QAT$TALLYHO.:E05TSI                          WED 07/30/97 04:38 Page:33
      107    20400          /*
      108    20401          DCL QI1$CNVNP ENTRY;
      109    20402          DCL QI1$CNVNB ENTRY;
      110    20403                             */
      111    20404    1     DCL QBC$CNVNBT ENTRY;
      112    20405    1     DCL QBC$CNVBN ENTRY;
      113    20406    1     DCL QBC$CNVBNX ENTRY;
      114    20407    1     DCL QBC$CNVBPX ENTRY;
      115    20408    1     DCL QBC$CNVPN ENTRY;
      116    20409    1     DCL QBC$CNVPBT ENTRY;
      117    20410    1     DCL QBG$GOTO ENTRY ALTRET;
      118    20411    1     DCL QBG$GOTODP ENTRY ALTRET;
      119    20412    1     DCL QBI$IFRELA ENTRY ALTRET;
      120    20413    1     DCL QBI$IFRELN ENTRY ALTRET;
      121    20414    1     DCL QBI$IFRELG ENTRY ALTRET;
      122    20415    1     DCL QBI$IFCLS ENTRY ALTRET;
      123    20416    1     DCL QBI$IFCNDA ENTRY ALTRET;
      124    20417    1     DCL QBI$IFCNDN ENTRY ALTRET;
      125    20418          /*
      126    20419          DCL QI1$IFIDX ENTRY ALTRET;
      127    20420                            */
      128    20421    1     DCL QBI$IF_INDICATOR ENTRY ALTRET;
      129    20422    1     DCL QBM$MOVA ENTRY;
      130    20423    1     DCL QBM$MOVN ENTRY;
      131    20424    1     DCL QBM$MOVP ENTRY;
      132    20425    1     DCL QBM$MOVB ENTRY;
      133    20426    1     DCL QBM$MOVNA ENTRY;
      134    20427          /*
      135    20428          DCL QI1$MOVN2 ENTRY;
      136    20429                            */
      137    20430    1     DCL QBM$MOVPA ENTRY;
      138    20431    1     DCL QBM$MOVBA ENTRY;
      139    20432    1     DCL QBM$MOVAE ENTRY;
      140    20433    1     DCL QBM$MOVNE ENTRY;
      141    20434    1     DCL QBM$MOVNEA ENTRY;
      142    20435    1     DCL QBM$MOVDE ENTRY;
      143    20436    1     DCL QBM$MOVAJ ENTRY;
PL6.E3A0      #001=QAT$TALLYHO File=QAT$TALLYHO.:E05TSI                          WED 07/30/97 04:38 Page:34
      144    20437    1     DCL QBM$MOVG ENTRY;
      145    20438    1     DCL QBP$PERFM ENTRY ALTRET;
      146    20439    1     DCL QBP$PERFMT ENTRY ALTRET;
      147    20440    1     DCL QBX$ADD ENTRY;
      148    20441    1     DCL QBX$SUB ENTRY;
      149    20442    1     DCL QBX$MULT ENTRY;
      150    20443    1     DCL QBX$DIV ENTRY;
      151    20444    1     DCL QBX$ADDX ENTRY;
      152    20445    1     DCL QBX$SUBX ENTRY;
      153    20446    1     DCL QBX$MULTX ENTRY;
      154    20447    1     DCL QBX$DIVX ENTRY;
      155    20448    1     DCL QBX$ROUND ENTRY;
      156    20449    1     DCL QBJ$JAZ ENTRY ALTRET;
      157    20450    1     DCL QBC$CALL ENTRY;
      158    20451          /*
      159    20452          DCL QI1$SUBRTN ENTRY;
      160    20453                             */
      161    20454    1     DCL QBS$STOP_RUN ENTRY;
      162    20455    1     DCL QBS$STOP_PAUSE ENTRY;
      163    20456    1     DCL QBA$ABORT ENTRY;
      164    20457          /*
      165    20458          DCL QI1$SET ENTRY;
      166    20459          DCL QI1$SETD ENTRY;
      167    20460          DCL QI1$SETX ENTRY;
      168    20461          DCL QI1$SETXUD ENTRY;
      169    20462                             */
      170    20463    1     DCL QBI$INSPECT ENTRY;
      171    20464          /*
      172    20465          DCL QI1$SEARCH ENTRY;
      173    20466                             */
      174    20467    1     DCL QBS$SUBSCRIPT ENTRY;
      175    20468          /*
      176    20469          DCL QI1$INDEX ENTRY;
      177    20470                            */
      178    20471    1     DCL QBA$ALL_LITERAL_MOVE ENTRY;
      179    20472          /*
      180    20473          DCL QB1$INIT ENTRY;
PL6.E3A0      #001=QAT$TALLYHO File=QAT$TALLYHO.:E05TSI                          WED 07/30/97 04:38 Page:35
      181    20474                           */
      182    20475    1     DCL QBJ$JND ENTRY ALTRET;
      183    20476    1     DCL QBL$LOAD ENTRY;
      184    20477    1     DCL QBO$OPEN ENTRY;
      185    20478    1     DCL QBC$CLOSE ENTRY;
      186    20479    1     DCL QBA$APPLY ENTRY;
      187    20480    1     DCL QBA$ACTIVATE ENTRY;
      188    20481    1     DCL QBA$DEACTIVATE ENTRY;
      189    20482    1     DCL QBC$CLEAR ENTRY;
      190    20483    1     DCL QBE$ENABLE ENTRY;
      191    20484    1     DCL QBE$DISABLE ENTRY;
      192    20485    1     DCL QBV$PRESENT ENTRY;
      193    20486    1     DCL QBV$VERIFY ENTRY;
      194    20487    1     DCL QBA$ACCEPT ENTRY;
      195    20488    1     DCL QBD$DISPLAY ENTRY;
      196    20489    1     DCL QBR$READ_TRAN ENTRY;
      197    20490    1     DCL QBW$WRITE_TRAN ENTRY;
      198    20491    1     DCL QBR$READ_FORM ENTRY;
      199    20492    1     DCL QBW$WRITE_FORM ENTRY;
      200    20493          /*
      201    20494          DCL QI1$DELETE ENTRY;
      202    20495                             */
      203    20496
      204    20497    1     DCL QCE$ERROR ENTRY (4);
      205    20498    1     DCL QCE$ERROR_DBCONTROL ENTRY ASYNC;
      206    20499    1     DCL QCE$ERROR_INT ENTRY ASYNC;
      207    20500    1     DCL QCE$ERROR_INTERNAL ENTRY (4);
      208    20501    1     DCL QCE$ERROR_M$INTERNAL ENTRY (4);
      209    20502    1     DCL QCE$ERROR_TRAP ENTRY ASYNC;
      210    20503    1     DCL QCE$EXPERIENCE_M$XBREAK ENTRY;
      211    20504
      212    20505          %SET LISTMAC = '1'B;
      213    20506
      214    20507          %QI$INITIALIZATION_BLOCK ( NAME = INITIALIZATION_BLOCK,
      215    20508                                     STCLASS = PARAM );
             20509            %BEGIN_MACRO ( STCLASS = STCLASS );
             20510            %SET LISTDIR = '0'B;
PL6.E3A0      #001=QAT$TALLYHO File=QAT$TALLYHO.:E05TSI                          WED 07/30/97 04:38 Page:36
             20523        /*
             20524           This INITIALIZATION_BLOCK is used by QAT$TALLYHO
             20525           during startup to, well, initialize.
             20526        */
             20527    1     DCL 1 INITIALIZATION_BLOCK PARAM ALIGNED,
             20528    1           2 DATA_START$ PTR,
             20529    1           2 PROC_START$ PTR,
             20530    1           2 EXPECTED_ARGUMENT_COUNT UBIN,
             20531    1           2 CURRENT_FORM@P UBIN,
             20532    1           2 CURRENT_FRAME@P UBIN,
             20533    1           2 CURRENT_FIELD@P UBIN,
             20534    1           2 RETRY@P UBIN,
             20535    1           2 VERIFY_BUFFER_1@P UBIN,
             20536    1           2 VERIFY_BUFFER_2@P UBIN,
             20537    1           2 VERIFY_BUFFER_3@P UBIN,
             20538    1           2 VERIFY_BUFFER_4@P UBIN,
             20539    1           2 COMPILER_VERSION CHAR(4),
             20540    1           2 OUTPUT_OR_IO_USE_PROCEDURE@P UBIN,
             20541    1           2 INPUT_OR_IO_USE_PROCEDURE@P UBIN,
             20542    1           2 VERIFICATION_USE_PROCEDURE@P UBIN,
             20543    1           2 MESSAGE_LINE_DCB# UBIN,
             20544    1           2 VANILLA_HOST_DCB# UBIN,
             20545    1           2 IS_THIS_A_SUBROUTINE BIT(1) UNAL,
             20546    1           2 * UBIN(15) UNAL;
             20553            %ENDIF;
      216    20556    1     DCL FIRST_INSTRUCTION UBIN PARAM;
      217    20557    1     DCL ARGUMENTS_AND_OR_FREE_AUTO_A$(0:0) PTR PARAM;
      218    20558
      219    20559          %SET LISTMAC = '0'B;
      220    20560
      221    20561    1     DCL QI_OLDEST_COMPILER_VERSION CHAR(4) CONSTANT SYMDEF
      222    20562    1       INIT ( 'C01 ' );
      223    20563        %EJECT;
PL6.E3A0      #001=QAT$TALLYHO File=QAT$TALLYHO.:E05TSI                          WED 07/30/97 04:38 Page:37
      224    20564    1       QI_1.BASE.DATA$ = INITIALIZATION_BLOCK.DATA_START$;

  20564   1 000005  ECC7 0004                            LDB,B6   @INITIALIZATION_BLOCK,AUTO
          1 000007  DC86                                 LDB,B5   ,B6
          1 000008  DF80 0000 0000  xsym                 STB,B5   QI_1

      225    20565    1       QI_1.BASE.PROC$ = INITIALIZATION_BLOCK.PROC_START$;

  20565   1 00000B  CCC6 0002                            LDB,B4   2,B6
          1 00000D  CF80 0000 0002  xsym                 STB,B4   QI_1+2

      226    20566    1       QI_1.INITIALIZATION_BLOCK$ =

  20566   1 000010  EF80 0000 000A  xsym                 STB,B6   QI_1+10

      227    20567    1         ADDR ( INITIALIZATION_BLOCK );
      228    20568    1       QI_1.INSTR$ = ADDR ( FIRST_INSTRUCTION );

  20568   1 000013  BCC7 0006                            LDB,B3   @FIRST_INSTRUCTION,AUTO
          1 000015  BF80 0000 0006  xsym                 STB,B3   QI_1+6

      229    20569    1       QI_1.ARGUMENTS_AND_OR_FREE_AUTO_A$$ =

  20569   1 000018  ACC7 0008                            LDB,B2   @ARGUMENTS_AND_OR_FREE_AUTO_A$,AUTO
          1 00001A  AF80 0000 000C  xsym                 STB,B2   QI_1+12

      230    20570    1         ADDR ( ARGUMENTS_AND_OR_FREE_AUTO_A$ );
      231    20571            %PROC_ADDRESS ( THING@P = "INITIALIZATION_BLOCK.VERIFY_BUFFER_1@P",
      232    20572            CHECK_FOR_INDIRECTION = NO,
      233    20573            RESULT$ = "QI_1.VERIFY_BUFFER$" );

  20591   1 00001D  B846 0009                            LDR,R3   9,B6
          1 00001F  F853                                 LDR,R7   R3
          1 000020  6C00                                 LDV,R6   0
          1 000021  8400 0000 0002  xsym                 AID      QI_1+2
          1 000024  8D00 0000 0012  xsym                 SDI      QI_1+18

PL6.E3A0      #001=QAT$TALLYHO File=QAT$TALLYHO.:E05TSI                          WED 07/30/97 04:38 Page:38
      234    20610    1      QI_1.VERIFY_BUFFER_SIZE = QI_1.VERIFY_BUFFER$ -> QI$DAD.PSEUDO_CIP.ALPHANUMERIC.
             20610                LEN;

  20610   1 000027  9C80 0000 0012  xsym                 LDB,B1   QI_1+18
          1 00002A  D841 0001                            LDR,R5   1,B1
          1 00002C  D570 3FFF                            AND,R5   16383,IMO
          1 00002E  DF00 0000 0014  xsym                 STR,R5   QI_1+20

      235    20611            %DATA_ADDRESS ( THING@D = "QI_1.VERIFY_BUFFER$ -> QI$DAD.PSEUDO_CIP.DATA@",
      236    20612            CHECK_FOR_INDIRECTION = NO,
      237    20613            RESULT$ = "QI_1.VERIFY_BUFFER$" );

  20631   1 000031  A841 0002                            LDR,R2   2,B1
          1 000033  F852                                 LDR,R7   R2
          1 000034  6C00                                 LDV,R6   0
          1 000035  8400 0000 0000  xsym                 AID      QI_1
          1 000038  8D00 0000 0012  xsym                 SDI      QI_1+18

      238    20650    1       QI_VLP_XBREAK.AUTO$ =

  20650   1 00003B  AF80 0000 0004  xsym                 STB,B2   QI_VLP_XBREAK+4

      239    20651    1         ADDR ( ARGUMENTS_AND_OR_FREE_AUTO_A$ );
      240    20652    1       QI_VLP_XBREAK.IC$ = QI_1.INSTR$;

  20652   1 00003E  BF80 0000 0000  xsym                 STB,B3   QI_VLP_XBREAK

      241    20653    1       QI_VLP_XBREAK.GOBREAK = %YES;

  20653   1 000041  8900 0000 0006  xsym                 LBT,'0020'X       QI_VLP_XBREAK+6
  20653   1 000044       0020

      242    20654
      243    20655            /*  Before we try anything at all, check to see if
      244    20656                this rununit is new enough.  QI_OLDEST_COMPILER_VERSION
      245    20657                contains the oldest allowable FPL compiler version
      246    20658                for running with the current interpreter.
PL6.E3A0      #001=QAT$TALLYHO File=QAT$TALLYHO.:E05TSI                          WED 07/30/97 04:38 Page:39
      247    20659                Should the compiler and interpreter change such
      248    20660                as to make an older compiler incompatible,
      249    20661                QI_OLDEST_COMPILER_VERSION should be changed to the
      250    20662                version of the compiler & interpreter in which that
      251    20663                change was made.  */
      252    20664    1       IF INITIALIZATION_BLOCK.COMPILER_VERSION < QI_OLDEST_COMPILER_VERSION

  20664   1 000045  9B80 0000 0000  00                   LAB,B1   NDBCONTROL
          1 000048  0022                                 ACM      ;
          1 000049       4406 000D                                ALPHANUM(13,B6,,4,FILL),;
          1 00004B       4401 0004                                ALPHANUM(4,B1,,4,FILL)
          1 00004D  7381 000A                            CBGE     s:20668,PREL

      253    20665    1       THEN
      254    20666    1         CALL QCE$ERROR ( %E$INCOMPATIBLE_VERSION );

  20666   1 00004F  BB80 0000 0001  02                   LAB,B3   +1
          1 000052  CBF0 0100                            LAB,B4   256,IMO
          1 000054  E380 0000 0000  xent                 LNJ,B6   QCE$ERROR
          1 000057       0001                            DC       s:20668,PREL

      255    20667
      256    20668    1       IF NOT QI_1.HOUSEKEEPING.IS_DBCONTROL_ESTABLISHED

  20668   1 000058  8980 0000 0015  xsym                 CMZ      QI_1+21
          1 00005B  0801 0033                            BAL      s:20690,PREL

      257    20669    1       THEN
      258    20670    1   ESTABLISH_DBCONTROL:
      259    20671    2         DO;

  20671   1                              ESTABLISH_DBCON*null
      260    20672    2           QI_1.HOUSEKEEPING.IS_DBCONTROL_ESTABLISHED = %YES;

  20672   1 00005D  8900 0000 0015  xsym ESTABLISH_DBCON*LBT,'8000'X       QI_1+21
  20672   1 000060       8000

PL6.E3A0      #001=QAT$TALLYHO File=QAT$TALLYHO.:E05TSI                          WED 07/30/97 04:38 Page:40
      261    20673    2           FPT@DBCONTROL = QI_FPT_DBCONTROL;

  20673   1 000061  AB80 0000 0000  xsym                 LAB,B2   QI_FPT_DBCONTROL
          1 000064  2C00                                 LDV,R2   0
          1 000065  6C10                                 LDV,R6   16
          1 000066  BB87                                 LAB,B3   ,AUTO
          1 000067  3C14                                 LDV,R3   20
          1 000068  0008                                 MMM

      262    20674    2           FPT@DBCONTROL.NDBCONTROL_ = VECTOR ( NDBCONTROL );

  20674   1 000069  AB80 0000 0000  02                   LAB,B2   0
          1 00006C  2C06                                 LDV,R2   6
          1 00006D  6C06                                 LDV,R6   6
          1 00006E  BB87                                 LAB,B3   ,AUTO
          1 00006F  3C14                                 LDV,R3   20
          1 000070  0008                                 MMM

      263    20675
      264    20676    2           CALL M$DBCONTROL ( FPT@DBCONTROL )

  20676   1 000071  BBC7 000A                            LAB,B3   FPT@DBCONTROL,AUTO
          1 000073  B870 08C4                            LDR,R3   2244,IMO
          1 000075  0001                                 MCL
          1 000076       0003                            DC       s:20679,PREL
          1 000077  0F81 000A                            B        s:20682,PREL

      265    20677    2           WHENALTRETURN
      266    20678    3             DO;

      267    20679    3               CALL QCE$ERROR_M$INTERNAL ( %E$UNEXPECTED_ALTRET );

  20679   1 000079  BB80 0000 0007  02                   LAB,B3   +7
          1 00007C  CBF0 0100                            LAB,B4   256,IMO
          1 00007E  E380 0000 0000  xent                 LNJ,B6   QCE$ERROR_M$INTERNAL
          1 000081       0001                            DC       s:20682,PREL

PL6.E3A0      #001=QAT$TALLYHO File=QAT$TALLYHO.:E05TSI                          WED 07/30/97 04:38 Page:41
      268    20680    3             END;

      269    20681
      270    20682    2           IF G$JIT$ -> G$JIT.DB# > 0

  20682   1 000082  EC80 0000 0000  xsym                 LDB,B6   G$JIT$
          1 000085  E2C6 008D                            LLH,R6   141,B6
          1 000087  6901 0007                            BEZ,R6   s:20690,PREL

      271    20683    2           THEN
      272    20684    2   THE_DEBUGGERS_ASSOCIATED:
      273    20685    3             DO;

  20685   1                              THE_DEBUGGERS_A*null
      274    20686    3               CALL QCE$EXPERIENCE_M$XBREAK;

  20686   1 000089  CBF0 0000            THE_DEBUGGERS_A*LAB,B4   0,IMO
          1 00008B  E380 0000 0000  xent                 LNJ,B6   QCE$EXPERIENCE_M$XBREAK
          1 00008E       0001                            DC       s:20690,PREL

      275    20687    3             END THE_DEBUGGERS_ASSOCIATED;

      276    20688    2         END ESTABLISH_DBCONTROL;

      277    20689
      278    20690    1       IF NOT QI_1.HOUSEKEEPING.IS_INT_ESTABLISHED

  20690   1 00008F  8280 0000 0015  xsym                 LB,'4000'X        QI_1+21
  20690   1 000092       4000
          1 000093  0501 0026                            BBT      s:20705,PREL

      279    20691    1       THEN
      280    20692    1   ESTABLISH_INT:
      281    20693    2         DO;

  20693   1                              ESTABLISH_INT   null
      282    20694    2           QI_1.HOUSEKEEPING.IS_INT_ESTABLISHED = %YES;
PL6.E3A0      #001=QAT$TALLYHO File=QAT$TALLYHO.:E05TSI                          WED 07/30/97 04:38 Page:42

  20694   1 000095  8900 0000 0015  xsym ESTABLISH_INT   LBT,'4000'X       QI_1+21
  20694   1 000098       4000

      283    20695    2           FPT@INT = QI_FPT_INT;

  20695   1 000099  AB80 0000 0000  xsym                 LAB,B2   QI_FPT_INT
          1 00009C  2C00                                 LDV,R2   0
          1 00009D  6C10                                 LDV,R6   16
          1 00009E  BB87                                 LAB,B3   ,AUTO
          1 00009F  3C24                                 LDV,R3   36
          1 0000A0  0008                                 MMM

      284    20696    2           FPT@INT.NINT_ = VECTOR ( NINT );

  20696   1 0000A1  AB80 0000 0000  02                   LAB,B2   0
          1 0000A4  2C12                                 LDV,R2   18
          1 0000A5  6C06                                 LDV,R6   6
          1 0000A6  BB87                                 LAB,B3   ,AUTO
          1 0000A7  3C24                                 LDV,R3   36
          1 0000A8  0008                                 MMM

      285    20697
      286    20698    2           CALL M$INT ( FPT@INT )

  20698   1 0000A9  BBC7 0012                            LAB,B3   FPT@INT,AUTO
          1 0000AB  B870 08C1                            LDR,R3   2241,IMO
          1 0000AD  0001                                 MCL
          1 0000AE       0003                            DC       s:20701,PREL
          1 0000AF  0F81 000A                            B        s:20705,PREL

      287    20699    2           WHENALTRETURN
      288    20700    3             DO;

      289    20701    3               CALL QCE$ERROR_M$INTERNAL ( %E$UNEXPECTED_ALTRET );

  20701   1 0000B1  BB80 0000 0007  02                   LAB,B3   +7
PL6.E3A0      #001=QAT$TALLYHO File=QAT$TALLYHO.:E05TSI                          WED 07/30/97 04:38 Page:43
          1 0000B4  CBF0 0100                            LAB,B4   256,IMO
          1 0000B6  E380 0000 0000  xent                 LNJ,B6   QCE$ERROR_M$INTERNAL
          1 0000B9       0001                            DC       s:20705,PREL

      290    20702    3             END;

      291    20703    2         END ESTABLISH_INT;

      292    20704
      293    20705    1       IF NOT QI_1.HOUSEKEEPING.IS_TRAP_ESTABLISHED

  20705   1 0000BA  8280 0000 0015  xsym                 LB,'2000'X        QI_1+21
  20705   1 0000BD       2000
          1 0000BE  0501 0039                            BBT      s:20722,PREL

      294    20706    1       THEN
      295    20707    1   ESTABLISH_TRAP:
      296    20708    2         DO;

  20708   1                              ESTABLISH_TRAP  null
      297    20709    2           QI_1.HOUSEKEEPING.IS_TRAP_ESTABLISHED = %YES;

  20709   1 0000C0  8900 0000 0015  xsym ESTABLISH_TRAP  LBT,'2000'X       QI_1+21
  20709   1 0000C3       2000

      298    20710    2           FPT@TRAP = QI_FPT_TRAP;

  20710   1 0000C4  AB80 0000 0000  xsym                 LAB,B2   QI_FPT_TRAP
          1 0000C7  2C00                                 LDV,R2   0
          1 0000C8  6C0C                                 LDV,R6   12
          1 0000C9  BB87                                 LAB,B3   ,AUTO
          1 0000CA  3C34                                 LDV,R3   52
          1 0000CB  0008                                 MMM

      299    20711    2           FPT@TRAP.NTC_ = VECTOR ( NTC );

  20711   1 0000CC  EBC7 0020                            LAB,B6   NTC,AUTO
PL6.E3A0      #001=QAT$TALLYHO File=QAT$TALLYHO.:E05TSI                          WED 07/30/97 04:38 Page:44
          1 0000CE  EFC7 007F                            STB,B6   VLP@TRMCTL+10,AUTO
          1 0000D0  6C17                                 LDV,R6   23
          1 0000D1  EF47 007E                            STR,R6   VLP@TRMCTL+9,AUTO
          1 0000D3  ABC7 007E                            LAB,B2   VLP@TRMCTL+9,AUTO
          1 0000D5  2C00                                 LDV,R2   0
          1 0000D6  6C06                                 LDV,R6   6
          1 0000D7  BB87                                 LAB,B3   ,AUTO
          1 0000D8  3C34                                 LDV,R3   52
          1 0000D9  0008                                 MMM

      300    20712    2           NTC = QI_VLP_TRAP_CONDITIONS;

  20712   1 0000DA  AB80 0000 0000  xsym                 LAB,B2   QI_VLP_TRAP_CONDITIONS
          1 0000DD  2C00                                 LDV,R2   0
          1 0000DE  6C18                                 LDV,R6   24
          1 0000DF  BB87                                 LAB,B3   ,AUTO
          1 0000E0  3C40                                 LDV,R3   64
          1 0000E1  0008                                 MMM

      301    20713    2           NTC.TRAP$ = ENTADDR ( QCE$ERROR_TRAP );

  20713   1 0000E2  EB80 0000 0000  xent                 LAB,B6   QCE$ERROR_TRAP
          1 0000E5  EFC7 0020                            STB,B6   NTC,AUTO

      302    20714
      303    20715    2           CALL M$TRAP ( FPT@TRAP )

  20715   1 0000E7  BBC7 001A                            LAB,B3   FPT@TRAP,AUTO
          1 0000E9  B870 08C3                            LDR,R3   2243,IMO
          1 0000EB  0001                                 MCL
          1 0000EC       0003                            DC       s:20718,PREL
          1 0000ED  0F81 000A                            B        s:20722,PREL

      304    20716    2           WHENALTRETURN
      305    20717    3             DO;

      306    20718    3               CALL QCE$ERROR_M$INTERNAL ( %E$UNEXPECTED_ALTRET );
PL6.E3A0      #001=QAT$TALLYHO File=QAT$TALLYHO.:E05TSI                          WED 07/30/97 04:38 Page:45

  20718   1 0000EF  BB80 0000 0007  02                   LAB,B3   +7
          1 0000F2  CBF0 0100                            LAB,B4   256,IMO
          1 0000F4  E380 0000 0000  xent                 LNJ,B6   QCE$ERROR_M$INTERNAL
          1 0000F7       0001                            DC       s:20722,PREL

      307    20719    3             END;

      308    20720    2         END ESTABLISH_TRAP;

      309    20721
      310    20722    1       IF NOT QI_1.HOUSEKEEPING.IS_BUFFER_ALLOCATED

  20722   1 0000F8  8280 0000 0015  xsym                 LB,'1000'X        QI_1+21
  20722   1 0000FB       1000
          1 0000FC  0501 0036                            BBT      s:20747,PREL

      311    20723    1       THEN
      312    20724    1   ALLOCATE_BUFFER:
      313    20725    2         DO;

  20725   1                              ALLOCATE_BUFFER null
      314    20726    2           QI_1.HOUSEKEEPING.IS_BUFFER_ALLOCATED = %YES;

  20726   1 0000FE  8900 0000 0015  xsym ALLOCATE_BUFFER LBT,'1000'X       QI_1+21
  20726   1 000101       1000

      315    20727                /*  The STATIC QI_VLP_SEGMENT_BUFFER should have the
      316    20728                    right stuff in it to get 4 pages from USRDS2,
      317    20729                    a LITTLE segment:  we'll let the X$whatever
      318    20730                    library services use this space to buffer up some
      319    20731                    of the MCALs we do.  */
      320    20732    2           FPT@GDS = QI_FPT_GDS_BUFFER;

  20732   1 000102  AB80 0000 0000  xsym                 LAB,B2   QI_FPT_GDS_BUFFER
          1 000105  2C00                                 LDV,R2   0
          1 000106  6C10                                 LDV,R6   16
PL6.E3A0      #001=QAT$TALLYHO File=QAT$TALLYHO.:E05TSI                          WED 07/30/97 04:38 Page:46
          1 000107  BB87                                 LAB,B3   ,AUTO
          1 000108  3C58                                 LDV,R3   88
          1 000109  0008                                 MMM

      321    20733    2           VBASE ( FPT@GDS.V_ ) = ADDR ( FPT@GDS.V );

  20733   1 00010A  EBC7 0032                            LAB,B6   FPT@GDS+6,AUTO
          1 00010C  EFC7 002D                            STB,B6   FPT@GDS+1,AUTO

      322    20734
      323    20735    2           QI_VLP_SEGMENT_BUFFER.BASE = %GM_USRDS2_BASE;

  20735   1 00010E  8CF0 0000 B000                       LDI      45056,IMO
          1 000111  8D00 0000 0000  xsym                 SDI      QI_VLP_SEGMENT_BUFFER

      324    20736
      325    20737    2           CALL M$GDS ( FPT@GDS )

  20737   1 000114  BBC7 002C                            LAB,B3   FPT@GDS,AUTO
          1 000116  B870 0902                            LDR,R3   2306,IMO
          1 000118  0001                                 MCL
          1 000119       0003                            DC       s:20740,PREL
          1 00011A  0F81 000A                            B        s:20743,PREL

      326    20738    2           WHENALTRETURN
      327    20739    3             DO;

      328    20740    3               CALL QCE$ERROR ( %E$INSUFFICIENT_MEMORY );

  20740   1 00011C  BB80 0000 000D  02                   LAB,B3   +13
          1 00011F  CBF0 0100                            LAB,B4   256,IMO
          1 000121  E380 0000 0000  xent                 LNJ,B6   QCE$ERROR
          1 000124       0001                            DC       s:20743,PREL

      329    20741    3             END;

      330    20742
PL6.E3A0      #001=QAT$TALLYHO File=QAT$TALLYHO.:E05TSI                          WED 07/30/97 04:38 Page:47
      331    20743    2           VBASE ( QGB_PARAM.BBUF_ ) = QI_VLP_SEGMENT_BUFFER.BASE$;

  20743   1 000125  EC80 0000 0000  xsym                 LDB,B6   QI_VLP_SEGMENT_BUFFER
          1 000128  EF80 0000 0001  xsym                 STB,B6   QGB_PARAM+1

      332    20744    2           VBOUND ( QGB_PARAM.BBUF_ ) = ( QI_VLP_SEGMENT_BUFFER.PAGES * 256 ) - 1;

  20744   1 00012B  E800 0000 0002  xsym                 LDR,R6   QI_VLP_SEGMENT_BUFFER+2
          1 00012E  6008                                 SOL,R6   8
          1 00012F  6EFF                                 ADV,R6   -1
          1 000130  EF00 0000 0000  xsym                 STR,R6   QGB_PARAM

      333    20745    2         END ALLOCATE_BUFFER;

      334    20746
      335    20747    1       IF NOT QI_1.HOUSEKEEPING.IS_MESSAGE_LINE_CREATED

  20747   1 000133  8280 0000 0015  xsym                 LB,'0800'X        QI_1+21
  20747   1 000136       0800
          1 000137  0501 0008                            BBT      s:20755,PREL

      336    20748    1       THEN
      337    20749    1   CREATE_MESSAGE_LINE:
      338    20750    2         DO;

  20750   1                              CREATE_MESSAGE_*null
      339    20751    2           QI_1.HOUSEKEEPING.IS_MESSAGE_LINE_CREATED = %YES;

  20751   1 000139  8900 0000 0015  xsym CREATE_MESSAGE_*LBT,'0800'X       QI_1+21
  20751   1 00013C       0800

      340    20752    2           CALL CREATE_THE_MESSAGE_LINE;

  20752   1 00013D  E3C0 0308                            LNJ,B6   s:0,PREL
          1 00013F       0001                            DC       s:20755,PREL

      341    20753    2         END CREATE_MESSAGE_LINE;
PL6.E3A0      #001=QAT$TALLYHO File=QAT$TALLYHO.:E05TSI                          WED 07/30/97 04:38 Page:48

      342    20754
      343    20755    1       QI_1.CURR_INSTR$ = QI_1.INSTR$;

  20755   1 000140  EC80 0000 0006  xsym                 LDB,B6   QI_1+6
          1 000143  EF80 0000 0008  xsym                 STB,B6   QI_1+8
          1 000146  0F81 0006                            B        s:20759,PREL

      344    20756
      345    20757    1   QAT$TALLYHO_USE: ENTRY;

  20757   1 000148  D380 0000 0000  xent QAT$TALLYHO_USE LNJ,B5   X6A_AUTO_3
          1 00014B       0081 0003                       DC       129,3

      346    20758
      347    20759    1       REMEMBER QAU$UNWIND IN QI_1.UNWIND$;

  20759   1 00014D  EBC0 0019                            LAB,B6   s:20763,PREL
          1 00014F  FF80 0000 000E  xsym                 STB,B7   QI_1+14
          1 000152  EF80 0000 0010  xsym                 STB,B6   QI_1+16

      348    20760
      349    20761    1       QI_1.CURRENT.FORM$ = ADDR(NIL);

  20761   1 000155  DB80 0000 0000                       LAB,B5   0
          1 000158  DF80 0000 0076  xsym                 STB,B5   QI_1+118

      350    20762    1       QI_1.CURRENT.FRAME$ = ADDR(NIL);

  20762   1 00015B  CB80 0000 0000                       LAB,B4   0
          1 00015E  CF80 0000 007A  xsym                 STB,B4   QI_1+122

      351    20763    1       QI_1.CURRENT.NODE$ = ADDR(NIL);

  20763   1 000161  BB80 0000 0000                       LAB,B3   0
          1 000164  BF80 0000 0080  xsym                 STB,B3   QI_1+128

PL6.E3A0      #001=QAT$TALLYHO File=QAT$TALLYHO.:E05TSI                          WED 07/30/97 04:38 Page:49
  20763   1                              QAU$UNWIND      null
      352    20764
      353    20765    1   QAU$UNWIND:;
      354    20766    1   INSTRUCTION_CYCLE:
      355    20767    2       DO %FOREVER;

  20767   1                              INSTRUCTION_CYC*null
      356    20768
      357    20769    2         QI_1.CURR_INSTR$ = QI_1.INSTR$;

  20769   1 000167  EC80 0000 0006  xsym INSTRUCTION_CYC*LDB,B6   QI_1+6
          1 00016A  EF80 0000 0008  xsym                 STB,B6   QI_1+8

      358    20770    2         QI_1.OP_CODE = QI_1.INSTR$ -> QI$OP_SEQUENCE.CODE;

  20770   1 00016D  E806                                 LDR,R6   ,B6
          1 00016E  EF00 0000 0053  xsym                 STR,R6   QI_1+83

      359    20771    2         QI_1.SOURCE$ = ADDR ( QI_1.INSTR$ -> QI$OP_SEQUENCE.OPERAND_A@P (0) );

  20771   1 000171  DBC6 0001                            LAB,B5   1,B6
          1 000173  DF80 0000 0018  xsym                 STB,B5   QI_1+24

      360    20772
      361    20773    2         IF QI_1.HOUSEKEEPING.IS_DEBUGGER_ASSOCIATING

  20773   1 000176  8280 0000 0015  xsym                 LB,'0400'X        QI_1+21
  20773   1 000179       0400
          1 00017A  0581 000E                            BBF      s:20785,PREL

      362    20774    2         THEN
      363    20775    2   POST_ASSOCIATE:
      364    20776    3           DO;

  20776   1                              POST_ASSOCIATE  null
      365    20777                  /*  The debugger is post-associating:  QCE$ERROR_DBCONTROL
      366    20778                      was called, so we're calling M$XBREAK before the
PL6.E3A0      #001=QAT$TALLYHO File=QAT$TALLYHO.:E05TSI                          WED 07/30/97 04:38 Page:50
      367    20779                      next "instruction".  */
      368    20780    3             QI_1.HOUSEKEEPING.IS_DEBUGGER_ASSOCIATING = %NO;

  20780   1 00017C  8800 0000 0015  xsym POST_ASSOCIATE  LBF,'0400'X       QI_1+21
  20780   1 00017F       0400

      369    20781
      370    20782    3             QI_VLP_XBREAK.IC$ = QI_1.INSTR$;

  20782   1 000180  EF80 0000 0000  xsym                 STB,B6   QI_VLP_XBREAK

      371    20783
      372    20784    3             CALL QCE$EXPERIENCE_M$XBREAK;

  20784   1 000183  CBF0 0000                            LAB,B4   0,IMO
          1 000185  E380 0000 0000  xent                 LNJ,B6   QCE$EXPERIENCE_M$XBREAK
          1 000188       0001                            DC       s:20785,PREL

      373    20785    3           END POST_ASSOCIATE;

      374    20786
      375    20787
      376    20788              /* Le Big Do Case... */
      377    20789    2   EXECUTE_THE_INSTRUCTION:
      378    20790    3         DO CASE ( QI_1.OP_CODE );

  20790   1 000189  B800 0000 0053  xsym EXECUTE_THE_INS*LDR,R3   QI_1+83
          1 00018C  3D5F                                 CMV,R3   95
          1 00018D  0281 028F                            BGE      s:21059,PREL
          1 00018F  A830 0000 0195  01                   LDR,R2   EXECUTE_THE_INSTRUCTION+12,R3
          1 000192  83A0 0000 01F4  01                   JMP      s:20795,R2
          1 000195       01F1                            DC       s:21033,PREL
          1 000196       0169                            DC       s:20953,PREL
          1 000197       0000                            DC       s:20795,PREL
          1 000198       00B6                            DC       s:20879,PREL
          1 000199       00D6                            DC       s:20891,PREL
          1 00019A       014E                            DC       s:20941,PREL
PL6.E3A0      #001=QAT$TALLYHO File=QAT$TALLYHO.:E05TSI                          WED 07/30/97 04:38 Page:51
          1 00019B       00CE                            DC       s:20888,PREL
          1 00019C       00EE                            DC       s:20900,PREL
          1 00019D       012E                            DC       s:20929,PREL
          1 00019E       0136                            DC       s:20932,PREL
          1 00019F       0106                            DC       s:20909,PREL
          1 0001A0       00FE                            DC       s:20906,PREL
          1 0001A1       0116                            DC       s:20915,PREL
          1 0001A2       0126                            DC       s:20921,PREL
          1 0001A3       011E                            DC       s:20918,PREL
          1 0001A4       0229                            DC       s:21059,PREL
          1 0001A5       0171                            DC       s:20970,PREL
          1 0001A6       00AE                            DC       s:20876,PREL
          1 0001A7       004E                            DC       s:20835,PREL
          1 0001A8       0056                            DC       s:20838,PREL
          1 0001A9       005E                            DC       s:20841,PREL
          1 0001AA       0066                            DC       s:20844,PREL
          1 0001AB       00A6                            DC       s:20873,PREL
          1 0001AC       0086                            DC       s:20861,PREL
          1 0001AD       008E                            DC       s:20864,PREL
          1 0001AE       009E                            DC       s:20870,PREL
          1 0001AF       0229                            DC       s:21059,PREL
          1 0001B0       013E                            DC       s:20935,PREL
          1 0001B1       0229                            DC       s:21059,PREL
          1 0001B2       0146                            DC       s:20938,PREL
          1 0001B3       0229                            DC       s:21059,PREL
          1 0001B4       0229                            DC       s:21059,PREL
          1 0001B5       0229                            DC       s:21059,PREL
          1 0001B6       0229                            DC       s:21059,PREL
          1 0001B7       002E                            DC       s:20823,PREL
          1 0001B8       0036                            DC       s:20826,PREL
          1 0001B9       0229                            DC       s:21059,PREL
          1 0001BA       0159                            DC       s:20947,PREL
          1 0001BB       0161                            DC       s:20950,PREL
          1 0001BC       00BE                            DC       s:20882,PREL
          1 0001BD       00DE                            DC       s:20894,PREL
          1 0001BE       00F6                            DC       s:20903,PREL
          1 0001BF       01A9                            DC       s:21006,PREL
PL6.E3A0      #001=QAT$TALLYHO File=QAT$TALLYHO.:E05TSI                          WED 07/30/97 04:38 Page:52
          1 0001C0       01B9                            DC       s:21012,PREL
          1 0001C1       01C1                            DC       s:21015,PREL
          1 0001C2       0199                            DC       s:21000,PREL
          1 0001C3       01D1                            DC       s:21021,PREL
          1 0001C4       01D9                            DC       s:21024,PREL
          1 0001C5       0229                            DC       s:21059,PREL
          1 0001C6       01A1                            DC       s:21003,PREL
          1 0001C7       0229                            DC       s:21059,PREL
          1 0001C8       0229                            DC       s:21059,PREL
          1 0001C9       0229                            DC       s:21059,PREL
          1 0001CA       0201                            DC       s:21039,PREL
          1 0001CB       0219                            DC       s:21048,PREL
          1 0001CC       0229                            DC       s:21059,PREL
          1 0001CD       00C6                            DC       s:20885,PREL
          1 0001CE       00E6                            DC       s:20897,PREL
          1 0001CF       0181                            DC       s:20986,PREL
          1 0001D0       01B1                            DC       s:21009,PREL
          1 0001D1       0229                            DC       s:21059,PREL
          1 0001D2       0229                            DC       s:21059,PREL
          1 0001D3       0229                            DC       s:21059,PREL
          1 0001D4       0209                            DC       s:21042,PREL
          1 0001D5       0211                            DC       s:21045,PREL
          1 0001D6       0221                            DC       s:21051,PREL
          1 0001D7       01E1                            DC       s:21027,PREL
          1 0001D8       01E9                            DC       s:21030,PREL
          1 0001D9       01C9                            DC       s:21018,PREL
          1 0001DA       01F9                            DC       s:21036,PREL
          1 0001DB       0156                            DC       s:20944,PREL
          1 0001DC       0229                            DC       s:21059,PREL
          1 0001DD       0229                            DC       s:21059,PREL
          1 0001DE       0229                            DC       s:21059,PREL
          1 0001DF       0229                            DC       s:21059,PREL
          1 0001E0       0179                            DC       s:20978,PREL
          1 0001E1       003E                            DC       s:20829,PREL
          1 0001E2       0026                            DC       s:20820,PREL
          1 0001E3       006E                            DC       s:20847,PREL
          1 0001E4       0076                            DC       s:20855,PREL
PL6.E3A0      #001=QAT$TALLYHO File=QAT$TALLYHO.:E05TSI                          WED 07/30/97 04:38 Page:53
          1 0001E5       007E                            DC       s:20858,PREL
          1 0001E6       0096                            DC       s:20867,PREL
          1 0001E7       001E                            DC       s:20817,PREL
          1 0001E8       0046                            DC       s:20832,PREL
          1 0001E9       0229                            DC       s:21059,PREL
          1 0001EA       0229                            DC       s:21059,PREL
          1 0001EB       0229                            DC       s:21059,PREL
          1 0001EC       0229                            DC       s:21059,PREL
          1 0001ED       010E                            DC       s:20912,PREL
          1 0001EE       0229                            DC       s:21059,PREL
          1 0001EF       0229                            DC       s:21059,PREL
          1 0001F0       0189                            DC       s:20994,PREL
          1 0001F1       0229                            DC       s:21059,PREL
          1 0001F2       0229                            DC       s:21059,PREL
          1 0001F3       0191                            DC       s:20997,PREL

      379    20791
      380    20792    3           CASE ( %QI#OP_BREAK );

      381    20793                  /*  We've hit a BRK instruction which DELTA stuck out in
      382    20794                      the procedure section of the user's FPL program.  */
      383    20795    3             QI_VLP_XBREAK.IC$ = QI_1.INSTR$;

  20795   1 0001F4  EC80 0000 0006  xsym                 LDB,B6   QI_1+6
          1 0001F7  EF80 0000 0000  xsym                 STB,B6   QI_VLP_XBREAK

      384    20796    3             QI_VLP_XBREAK.TRAP# = %G_TRACE#;

  20796   1 0001FA  6C02                                 LDV,R6   2
          1 0001FB  E780 0000 0006  xsym                 STH,R6   QI_VLP_XBREAK+6

      385    20797
      386    20798    3             CALL QCE$EXPERIENCE_M$XBREAK;

  20798   1 0001FE  CBF0 0000                            LAB,B4   0,IMO
          1 000200  E380 0000 0000  xent                 LNJ,B6   QCE$EXPERIENCE_M$XBREAK
          1 000203       0001                            DC       s:20800,PREL
PL6.E3A0      #001=QAT$TALLYHO File=QAT$TALLYHO.:E05TSI                          WED 07/30/97 04:38 Page:54

      387    20799
      388    20800    3             IF QI_VLP_XBREAK.GOBREAK

  20800   1 000204  8280 0000 0006  xsym                 LB,'0020'X        QI_VLP_XBREAK+6
  20800   1 000207       0020
          1 000208  0581 021D                            BBF      s:21064,PREL

      389    20801    3             THEN
      390    20802    3   USE_REPLACED_OP_CODE:
      391    20803    4               DO;

  20803   1                              USE_REPLACED_OP*null
      392    20804    4                 QI_1.OP_CODE = QI_VLP_XBREAK.REPLACED.INSTR;

  20804   1 00020A  E800 0000 0003  xsym USE_REPLACED_OP*LDR,R6   QI_VLP_XBREAK+3
          1 00020D  EF00 0000 0053  xsym                 STR,R6   QI_1+83

      393    20805    4                 GOTO EXECUTE_THE_INSTRUCTION;

  20805   1 000210  0F81 FF78                            B        s:20785,PREL

      394    20806    4               END USE_REPLACED_OP_CODE;
      395    20807
      396    20808                /*
      397    20809                CASE ( %QI#OP_CNVNP );
      398    20810                  CALL QI1$CNVNP;
      399    20811
      400    20812                CASE ( %QI#OP_CNVNB );
      401    20813                  CALL QI1$CNVNB;
      402    20814                               */
      403    20815
      404    20816    3           CASE ( %QI#OP_CNVNBT );

      405    20817    3             CALL QBC$CNVNBT;

  20817   1 000212  CBF0 0000                            LAB,B4   0,IMO
PL6.E3A0      #001=QAT$TALLYHO File=QAT$TALLYHO.:E05TSI                          WED 07/30/97 04:38 Page:55
          1 000214  E380 0000 0000  xent                 LNJ,B6   QBC$CNVNBT
          1 000217       0001                            DC       s:20817+6,PREL
          1 000218  0F81 020D                            B        s:21064,PREL

      406    20818
      407    20819    3           CASE ( %QI#OP_CNVBN );

      408    20820    3             CALL QBC$CNVBN;

  20820   1 00021A  CBF0 0000                            LAB,B4   0,IMO
          1 00021C  E380 0000 0000  xent                 LNJ,B6   QBC$CNVBN
          1 00021F       0001                            DC       s:20820+6,PREL
          1 000220  0F81 0205                            B        s:21064,PREL

      409    20821
      410    20822    3           CASE ( %QI#OP_CNVBNX );

      411    20823    3             CALL QBC$CNVBNX;

  20823   1 000222  CBF0 0000                            LAB,B4   0,IMO
          1 000224  E380 0000 0000  xent                 LNJ,B6   QBC$CNVBNX
          1 000227       0001                            DC       s:20823+6,PREL
          1 000228  0F81 01FD                            B        s:21064,PREL

      412    20824
      413    20825    3           CASE ( %QI#OP_CNVBPX );

      414    20826    3             CALL QBC$CNVBPX;

  20826   1 00022A  CBF0 0000                            LAB,B4   0,IMO
          1 00022C  E380 0000 0000  xent                 LNJ,B6   QBC$CNVBPX
          1 00022F       0001                            DC       s:20826+6,PREL
          1 000230  0F81 01F5                            B        s:21064,PREL

      415    20827
      416    20828    3           CASE ( %QI#OP_CNVPN );

PL6.E3A0      #001=QAT$TALLYHO File=QAT$TALLYHO.:E05TSI                          WED 07/30/97 04:38 Page:56
      417    20829    3             CALL QBC$CNVPN;

  20829   1 000232  CBF0 0000                            LAB,B4   0,IMO
          1 000234  E380 0000 0000  xent                 LNJ,B6   QBC$CNVPN
          1 000237       0001                            DC       s:20829+6,PREL
          1 000238  0F81 01ED                            B        s:21064,PREL

      418    20830
      419    20831    3           CASE ( %QI#OP_CNVPBT );

      420    20832    3             CALL QBC$CNVPBT;

  20832   1 00023A  CBF0 0000                            LAB,B4   0,IMO
          1 00023C  E380 0000 0000  xent                 LNJ,B6   QBC$CNVPBT
          1 00023F       0001                            DC       s:20832+6,PREL
          1 000240  0F81 01E5                            B        s:21064,PREL

      421    20833
      422    20834    3           CASE ( %QI#OP_MOVA );

      423    20835    3             CALL QBM$MOVA;

  20835   1 000242  CBF0 0000                            LAB,B4   0,IMO
          1 000244  E380 0000 0000  xent                 LNJ,B6   QBM$MOVA
          1 000247       0001                            DC       s:20835+6,PREL
          1 000248  0F81 01DD                            B        s:21064,PREL

      424    20836
      425    20837    3           CASE ( %QI#OP_MOVN );

      426    20838    3             CALL QBM$MOVN;

  20838   1 00024A  CBF0 0000                            LAB,B4   0,IMO
          1 00024C  E380 0000 0000  xent                 LNJ,B6   QBM$MOVN
          1 00024F       0001                            DC       s:20838+6,PREL
          1 000250  0F81 01D5                            B        s:21064,PREL

PL6.E3A0      #001=QAT$TALLYHO File=QAT$TALLYHO.:E05TSI                          WED 07/30/97 04:38 Page:57
      427    20839
      428    20840    3           CASE ( %QI#OP_MOVP );

      429    20841    3             CALL QBM$MOVP;

  20841   1 000252  CBF0 0000                            LAB,B4   0,IMO
          1 000254  E380 0000 0000  xent                 LNJ,B6   QBM$MOVP
          1 000257       0001                            DC       s:20841+6,PREL
          1 000258  0F81 01CD                            B        s:21064,PREL

      430    20842
      431    20843    3           CASE ( %QI#OP_MOVB );

      432    20844    3             CALL QBM$MOVB;

  20844   1 00025A  CBF0 0000                            LAB,B4   0,IMO
          1 00025C  E380 0000 0000  xent                 LNJ,B6   QBM$MOVB
          1 00025F       0001                            DC       s:20844+6,PREL
          1 000260  0F81 01C5                            B        s:21064,PREL

      433    20845
      434    20846    3           CASE ( %QI#OP_MOVNA );

      435    20847    3             CALL QBM$MOVNA;

  20847   1 000262  CBF0 0000                            LAB,B4   0,IMO
          1 000264  E380 0000 0000  xent                 LNJ,B6   QBM$MOVNA
          1 000267       0001                            DC       s:20847+6,PREL
          1 000268  0F81 01BD                            B        s:21064,PREL

      436    20848
      437    20849                /*
      438    20850                CASE ( %QI#OP_MOVN2 );
      439    20851                  CALL QI1$MOVN2;
      440    20852                               */
      441    20853
      442    20854    3           CASE ( %QI#OP_MOVPA );
PL6.E3A0      #001=QAT$TALLYHO File=QAT$TALLYHO.:E05TSI                          WED 07/30/97 04:38 Page:58

      443    20855    3             CALL QBM$MOVPA;

  20855   1 00026A  CBF0 0000                            LAB,B4   0,IMO
          1 00026C  E380 0000 0000  xent                 LNJ,B6   QBM$MOVPA
          1 00026F       0001                            DC       s:20855+6,PREL
          1 000270  0F81 01B5                            B        s:21064,PREL

      444    20856
      445    20857    3           CASE ( %QI#OP_MOVBA );

      446    20858    3             CALL QBM$MOVBA;

  20858   1 000272  CBF0 0000                            LAB,B4   0,IMO
          1 000274  E380 0000 0000  xent                 LNJ,B6   QBM$MOVBA
          1 000277       0001                            DC       s:20858+6,PREL
          1 000278  0F81 01AD                            B        s:21064,PREL

      447    20859
      448    20860    3           CASE ( %QI#OP_MOVAE );

      449    20861    3             CALL QBM$MOVAE;

  20861   1 00027A  CBF0 0000                            LAB,B4   0,IMO
          1 00027C  E380 0000 0000  xent                 LNJ,B6   QBM$MOVAE
          1 00027F       0001                            DC       s:20861+6,PREL
          1 000280  0F81 01A5                            B        s:21064,PREL

      450    20862
      451    20863    3           CASE ( %QI#OP_MOVNE );

      452    20864    3             CALL QBM$MOVNE;

  20864   1 000282  CBF0 0000                            LAB,B4   0,IMO
          1 000284  E380 0000 0000  xent                 LNJ,B6   QBM$MOVNE
          1 000287       0001                            DC       s:20864+6,PREL
          1 000288  0F81 019D                            B        s:21064,PREL
PL6.E3A0      #001=QAT$TALLYHO File=QAT$TALLYHO.:E05TSI                          WED 07/30/97 04:38 Page:59

      453    20865
      454    20866    3           CASE ( %QI#OP_MOVNEA );

      455    20867    3             CALL QBM$MOVNEA;

  20867   1 00028A  CBF0 0000                            LAB,B4   0,IMO
          1 00028C  E380 0000 0000  xent                 LNJ,B6   QBM$MOVNEA
          1 00028F       0001                            DC       s:20867+6,PREL
          1 000290  0F81 0195                            B        s:21064,PREL

      456    20868
      457    20869    3           CASE ( %QI#OP_MOVDE );

      458    20870    3             CALL QBM$MOVDE;

  20870   1 000292  CBF0 0000                            LAB,B4   0,IMO
          1 000294  E380 0000 0000  xent                 LNJ,B6   QBM$MOVDE
          1 000297       0001                            DC       s:20870+6,PREL
          1 000298  0F81 018D                            B        s:21064,PREL

      459    20871
      460    20872    3           CASE ( %QI#OP_MOVAJ );

      461    20873    3             CALL QBM$MOVAJ;

  20873   1 00029A  CBF0 0000                            LAB,B4   0,IMO
          1 00029C  E380 0000 0000  xent                 LNJ,B6   QBM$MOVAJ
          1 00029F       0001                            DC       s:20873+6,PREL
          1 0002A0  0F81 0185                            B        s:21064,PREL

      462    20874
      463    20875    3           CASE ( %QI#OP_MOVG );

      464    20876    3             CALL QBM$MOVG;

  20876   1 0002A2  CBF0 0000                            LAB,B4   0,IMO
PL6.E3A0      #001=QAT$TALLYHO File=QAT$TALLYHO.:E05TSI                          WED 07/30/97 04:38 Page:60
          1 0002A4  E380 0000 0000  xent                 LNJ,B6   QBM$MOVG
          1 0002A7       0001                            DC       s:20876+6,PREL
          1 0002A8  0F81 017D                            B        s:21064,PREL

      465    20877
      466    20878    3           CASE ( %QI#OP_ADD );

      467    20879    3             CALL QBX$ADD;

  20879   1 0002AA  CBF0 0000                            LAB,B4   0,IMO
          1 0002AC  E380 0000 0000  xent                 LNJ,B6   QBX$ADD
          1 0002AF       0001                            DC       s:20879+6,PREL
          1 0002B0  0F81 0175                            B        s:21064,PREL

      468    20880
      469    20881    3           CASE ( %QI#OP_SUB );

      470    20882    3             CALL QBX$SUB;

  20882   1 0002B2  CBF0 0000                            LAB,B4   0,IMO
          1 0002B4  E380 0000 0000  xent                 LNJ,B6   QBX$SUB
          1 0002B7       0001                            DC       s:20882+6,PREL
          1 0002B8  0F81 016D                            B        s:21064,PREL

      471    20883
      472    20884    3           CASE ( %QI#OP_MULT );

      473    20885    3             CALL QBX$MULT;

  20885   1 0002BA  CBF0 0000                            LAB,B4   0,IMO
          1 0002BC  E380 0000 0000  xent                 LNJ,B6   QBX$MULT
          1 0002BF       0001                            DC       s:20885+6,PREL
          1 0002C0  0F81 0165                            B        s:21064,PREL

      474    20886
      475    20887    3           CASE ( %QI#OP_DIV );

PL6.E3A0      #001=QAT$TALLYHO File=QAT$TALLYHO.:E05TSI                          WED 07/30/97 04:38 Page:61
      476    20888    3             CALL QBX$DIV;

  20888   1 0002C2  CBF0 0000                            LAB,B4   0,IMO
          1 0002C4  E380 0000 0000  xent                 LNJ,B6   QBX$DIV
          1 0002C7       0001                            DC       s:20888+6,PREL
          1 0002C8  0F81 015D                            B        s:21064,PREL

      477    20889
      478    20890    3           CASE ( %QI#OP_ADDX );

      479    20891    3             CALL QBX$ADDX;

  20891   1 0002CA  CBF0 0000                            LAB,B4   0,IMO
          1 0002CC  E380 0000 0000  xent                 LNJ,B6   QBX$ADDX
          1 0002CF       0001                            DC       s:20891+6,PREL
          1 0002D0  0F81 0155                            B        s:21064,PREL

      480    20892
      481    20893    3           CASE ( %QI#OP_SUBX );

      482    20894    3             CALL QBX$SUBX;

  20894   1 0002D2  CBF0 0000                            LAB,B4   0,IMO
          1 0002D4  E380 0000 0000  xent                 LNJ,B6   QBX$SUBX
          1 0002D7       0001                            DC       s:20894+6,PREL
          1 0002D8  0F81 014D                            B        s:21064,PREL

      483    20895
      484    20896    3           CASE ( %QI#OP_MULTX );

      485    20897    3             CALL QBX$MULTX;

  20897   1 0002DA  CBF0 0000                            LAB,B4   0,IMO
          1 0002DC  E380 0000 0000  xent                 LNJ,B6   QBX$MULTX
          1 0002DF       0001                            DC       s:20897+6,PREL
          1 0002E0  0F81 0145                            B        s:21064,PREL

PL6.E3A0      #001=QAT$TALLYHO File=QAT$TALLYHO.:E05TSI                          WED 07/30/97 04:38 Page:62
      486    20898
      487    20899    3           CASE ( %QI#OP_DIVX );

      488    20900    3             CALL QBX$DIVX;

  20900   1 0002E2  CBF0 0000                            LAB,B4   0,IMO
          1 0002E4  E380 0000 0000  xent                 LNJ,B6   QBX$DIVX
          1 0002E7       0001                            DC       s:20900+6,PREL
          1 0002E8  0F81 013D                            B        s:21064,PREL

      489    20901
      490    20902    3           CASE ( %QI#OP_ROUND );

      491    20903    3             CALL QBX$ROUND;

  20903   1 0002EA  CBF0 0000                            LAB,B4   0,IMO
          1 0002EC  E380 0000 0000  xent                 LNJ,B6   QBX$ROUND
          1 0002EF       0001                            DC       s:20903+6,PREL
          1 0002F0  0F81 0135                            B        s:21064,PREL

      492    20904
      493    20905    3           CASE ( %QI#OP_IFRELA );

      494    20906    3             CALL QBI$IFRELA ALTRET ( TRANSFER_OCCURRED );

  20906   1 0002F2  CBF0 0000                            LAB,B4   0,IMO
          1 0002F4  E380 0000 0000  xent                 LNJ,B6   QBI$IFRELA
          1 0002F7       0131                            DC       s:21067,PREL
          1 0002F8  0F81 012D                            B        s:21064,PREL

      495    20907
      496    20908    3           CASE ( %QI#OP_IFRELN );

      497    20909    3             CALL QBI$IFRELN ALTRET ( TRANSFER_OCCURRED );

  20909   1 0002FA  CBF0 0000                            LAB,B4   0,IMO
          1 0002FC  E380 0000 0000  xent                 LNJ,B6   QBI$IFRELN
PL6.E3A0      #001=QAT$TALLYHO File=QAT$TALLYHO.:E05TSI                          WED 07/30/97 04:38 Page:63
          1 0002FF       0129                            DC       s:21067,PREL
          1 000300  0F81 0125                            B        s:21064,PREL

      498    20910
      499    20911    3           CASE ( %QI#OP_IFRELG );

      500    20912    3             CALL QBI$IFRELG ALTRET ( TRANSFER_OCCURRED );

  20912   1 000302  CBF0 0000                            LAB,B4   0,IMO
          1 000304  E380 0000 0000  xent                 LNJ,B6   QBI$IFRELG
          1 000307       0121                            DC       s:21067,PREL
          1 000308  0F81 011D                            B        s:21064,PREL

      501    20913
      502    20914    3           CASE ( %QI#OP_IFCLS );

      503    20915    3             CALL QBI$IFCLS ALTRET ( TRANSFER_OCCURRED );

  20915   1 00030A  CBF0 0000                            LAB,B4   0,IMO
          1 00030C  E380 0000 0000  xent                 LNJ,B6   QBI$IFCLS
          1 00030F       0119                            DC       s:21067,PREL
          1 000310  0F81 0115                            B        s:21064,PREL

      504    20916
      505    20917    3           CASE ( %QI#OP_IFCNDA );

      506    20918    3             CALL QBI$IFCNDA ALTRET ( TRANSFER_OCCURRED );

  20918   1 000312  CBF0 0000                            LAB,B4   0,IMO
          1 000314  E380 0000 0000  xent                 LNJ,B6   QBI$IFCNDA
          1 000317       0111                            DC       s:21067,PREL
          1 000318  0F81 010D                            B        s:21064,PREL

      507    20919
      508    20920    3           CASE ( %QI#OP_IFCNDN );

      509    20921    3             CALL QBI$IFCNDN ALTRET ( TRANSFER_OCCURRED );
PL6.E3A0      #001=QAT$TALLYHO File=QAT$TALLYHO.:E05TSI                          WED 07/30/97 04:38 Page:64

  20921   1 00031A  CBF0 0000                            LAB,B4   0,IMO
          1 00031C  E380 0000 0000  xent                 LNJ,B6   QBI$IFCNDN
          1 00031F       0109                            DC       s:21067,PREL
          1 000320  0F81 0105                            B        s:21064,PREL

      510    20922
      511    20923                /*
      512    20924                CASE ( %QI#OP_IFIDX );
      513    20925                  CALL QI1$IFIDX ALTRET ( TRANSFER_OCCURRED );
      514    20926                               */
      515    20927
      516    20928    3           CASE ( %QI#OP_GOTO );

      517    20929    3             CALL QBG$GOTO ALTRET ( TRANSFER_OCCURRED );

  20929   1 000322  CBF0 0000                            LAB,B4   0,IMO
          1 000324  E380 0000 0000  xent                 LNJ,B6   QBG$GOTO
          1 000327       0101                            DC       s:21067,PREL
          1 000328  0F81 00FD                            B        s:21064,PREL

      518    20930
      519    20931    3           CASE ( %QI#OP_GOTODP );

      520    20932    3             CALL QBG$GOTODP ALTRET ( TRANSFER_OCCURRED );

  20932   1 00032A  CBF0 0000                            LAB,B4   0,IMO
          1 00032C  E380 0000 0000  xent                 LNJ,B6   QBG$GOTODP
          1 00032F       00F9                            DC       s:21067,PREL
          1 000330  0F81 00F5                            B        s:21064,PREL

      521    20933
      522    20934    3           CASE ( %QI#OP_PERFM );

      523    20935    3             CALL QBP$PERFM ALTRET ( TRANSFER_OCCURRED );

  20935   1 000332  CBF0 0000                            LAB,B4   0,IMO
PL6.E3A0      #001=QAT$TALLYHO File=QAT$TALLYHO.:E05TSI                          WED 07/30/97 04:38 Page:65
          1 000334  E380 0000 0000  xent                 LNJ,B6   QBP$PERFM
          1 000337       00F1                            DC       s:21067,PREL
          1 000338  0F81 00ED                            B        s:21064,PREL

      524    20936
      525    20937    3           CASE ( %QI#OP_PERFMT );

      526    20938    3             CALL QBP$PERFMT ALTRET ( TRANSFER_OCCURRED );

  20938   1 00033A  CBF0 0000                            LAB,B4   0,IMO
          1 00033C  E380 0000 0000  xent                 LNJ,B6   QBP$PERFMT
          1 00033F       00E9                            DC       s:21067,PREL
          1 000340  0F81 00E5                            B        s:21064,PREL

      527    20939
      528    20940    3           CASE ( %QI#OP_CALL );

      529    20941    3             CALL QBC$CALL;

  20941   1 000342  CBF0 0000                            LAB,B4   0,IMO
          1 000344  E380 0000 0000  xent                 LNJ,B6   QBC$CALL
          1 000347       0001                            DC       s:20941+6,PREL
          1 000348  0F81 00DD                            B        s:21064,PREL

      530    20942
      531    20943    3           CASE ( %QI#OP_EXIT );

      532    20944    3             RETURN;

  20944   1 00034A  C380 0000 0000  xent                 LNJ,B4   X6A_ARET

      533    20945
      534    20946    3           CASE ( %QI#OP_STOP_RUN );

      535    20947    3             CALL QBS$STOP_RUN;

  20947   1 00034D  CBF0 0000                            LAB,B4   0,IMO
PL6.E3A0      #001=QAT$TALLYHO File=QAT$TALLYHO.:E05TSI                          WED 07/30/97 04:38 Page:66
          1 00034F  E380 0000 0000  xent                 LNJ,B6   QBS$STOP_RUN
          1 000352       0001                            DC       s:20947+6,PREL
          1 000353  0F81 00D2                            B        s:21064,PREL

      536    20948
      537    20949    3           CASE ( %QI#OP_STOP_1 );

      538    20950    3             CALL QBS$STOP_PAUSE;

  20950   1 000355  CBF0 0000                            LAB,B4   0,IMO
          1 000357  E380 0000 0000  xent                 LNJ,B6   QBS$STOP_PAUSE
          1 00035A       0001                            DC       s:20950+6,PREL
          1 00035B  0F81 00CA                            B        s:21064,PREL

      539    20951
      540    20952    3           CASE ( %QI#OP_ABORT );

      541    20953    3             CALL QBA$ABORT;

  20953   1 00035D  CBF0 0000                            LAB,B4   0,IMO
          1 00035F  E380 0000 0000  xent                 LNJ,B6   QBA$ABORT
          1 000362       0001                            DC       s:20953+6,PREL
          1 000363  0F81 00C2                            B        s:21064,PREL

      542    20954
      543    20955                /*
      544    20956                CASE ( %QI#OP_SET );
      545    20957                  CALL QI1$SET;
      546    20958
      547    20959                CASE ( %QI#OP_SETD );
      548    20960                  CALL QI1$SETD;
      549    20961
      550    20962                CASE ( %QI#OP_SETX );
      551    20963                  CALL QI1$SETX;
      552    20964
      553    20965                CASE ( %QI#OP_SETXUD );
      554    20966                  CALL QI1$SETXUD;
PL6.E3A0      #001=QAT$TALLYHO File=QAT$TALLYHO.:E05TSI                          WED 07/30/97 04:38 Page:67
      555    20967                                */
      556    20968
      557    20969    3           CASE ( %QI#OP_INSPECT );

      558    20970    3             CALL QBI$INSPECT;

  20970   1 000365  CBF0 0000                            LAB,B4   0,IMO
          1 000367  E380 0000 0000  xent                 LNJ,B6   QBI$INSPECT
          1 00036A       0001                            DC       s:20970+6,PREL
          1 00036B  0F81 00BA                            B        s:21064,PREL

      559    20971
      560    20972                /*
      561    20973                CASE ( %QI#OP_SEARCH );
      562    20974                  CALL QI1$SEARCH;
      563    20975                                */
      564    20976
      565    20977    3           CASE ( %QI#OP_SUBSCR );

      566    20978    3             CALL QBS$SUBSCRIPT;

  20978   1 00036D  CBF0 0000                            LAB,B4   0,IMO
          1 00036F  E380 0000 0000  xent                 LNJ,B6   QBS$SUBSCRIPT
          1 000372       0001                            DC       s:20978+6,PREL
          1 000373  0F81 00B2                            B        s:21064,PREL

      567    20979
      568    20980                /*
      569    20981                CASE ( %QI#OP_INDEX );
      570    20982                  CALL QI1$INDEX;
      571    20983                               */
      572    20984
      573    20985    3           CASE ( %QI#OP_ALL_LITERAL );

      574    20986    3             CALL QBA$ALL_LITERAL_MOVE;

  20986   1 000375  CBF0 0000                            LAB,B4   0,IMO
PL6.E3A0      #001=QAT$TALLYHO File=QAT$TALLYHO.:E05TSI                          WED 07/30/97 04:38 Page:68
          1 000377  E380 0000 0000  xent                 LNJ,B6   QBA$ALL_LITERAL_MOVE
          1 00037A       0001                            DC       s:20986+6,PREL
          1 00037B  0F81 00AA                            B        s:21064,PREL

      575    20987
      576    20988                /*
      577    20989                CASE ( %QI#OP_INIT );
      578    20990                  CALL QB1$INIT;
      579    20991                              */
      580    20992
      581    20993    3           CASE ( %QI#OP_JAZ );

      582    20994    3             CALL QBJ$JAZ ALTRET ( TRANSFER_OCCURRED );

  20994   1 00037D  CBF0 0000                            LAB,B4   0,IMO
          1 00037F  E380 0000 0000  xent                 LNJ,B6   QBJ$JAZ
          1 000382       00A6                            DC       s:21067,PREL
          1 000383  0F81 00A2                            B        s:21064,PREL

      583    20995
      584    20996    3           CASE ( %QI#OP_JND );

      585    20997    3             CALL QBJ$JND ALTRET ( TRANSFER_OCCURRED );

  20997   1 000385  CBF0 0000                            LAB,B4   0,IMO
          1 000387  E380 0000 0000  xent                 LNJ,B6   QBJ$JND
          1 00038A       009E                            DC       s:21067,PREL
          1 00038B  0F81 009A                            B        s:21064,PREL

      586    20998
      587    20999    3           CASE ( %QI#OP_LOAD );

      588    21000    3             CALL QBL$LOAD;

  21000   1 00038D  CBF0 0000                            LAB,B4   0,IMO
          1 00038F  E380 0000 0000  xent                 LNJ,B6   QBL$LOAD
          1 000392       0001                            DC       s:21000+6,PREL
PL6.E3A0      #001=QAT$TALLYHO File=QAT$TALLYHO.:E05TSI                          WED 07/30/97 04:38 Page:69
          1 000393  0F81 0092                            B        s:21064,PREL

      589    21001
      590    21002    3           CASE ( %QI#OP_OPEN );

      591    21003    3             CALL QBO$OPEN;

  21003   1 000395  CBF0 0000                            LAB,B4   0,IMO
          1 000397  E380 0000 0000  xent                 LNJ,B6   QBO$OPEN
          1 00039A       0001                            DC       s:21003+6,PREL
          1 00039B  0F81 008A                            B        s:21064,PREL

      592    21004
      593    21005    3           CASE ( %QI#OP_CLOSE );

      594    21006    3             CALL QBC$CLOSE;

  21006   1 00039D  CBF0 0000                            LAB,B4   0,IMO
          1 00039F  E380 0000 0000  xent                 LNJ,B6   QBC$CLOSE
          1 0003A2       0001                            DC       s:21006+6,PREL
          1 0003A3  0F81 0082                            B        s:21064,PREL

      595    21007
      596    21008    3           CASE ( %QI#OP_APPLY );

      597    21009    3             CALL QBA$APPLY;

  21009   1 0003A5  CBF0 0000                            LAB,B4   0,IMO
          1 0003A7  E380 0000 0000  xent                 LNJ,B6   QBA$APPLY
          1 0003AA       0001                            DC       s:21009+6,PREL
          1 0003AB  0F81 007A                            B        s:21064,PREL

      598    21010
      599    21011    3           CASE ( %QI#OP_ACTIVATE );

      600    21012    3             CALL QBA$ACTIVATE;

PL6.E3A0      #001=QAT$TALLYHO File=QAT$TALLYHO.:E05TSI                          WED 07/30/97 04:38 Page:70
  21012   1 0003AD  CBF0 0000                            LAB,B4   0,IMO
          1 0003AF  E380 0000 0000  xent                 LNJ,B6   QBA$ACTIVATE
          1 0003B2       0001                            DC       s:21012+6,PREL
          1 0003B3  0F81 0072                            B        s:21064,PREL

      601    21013
      602    21014    3           CASE ( %QI#OP_DEACTIVATE );

      603    21015    3             CALL QBA$DEACTIVATE;

  21015   1 0003B5  CBF0 0000                            LAB,B4   0,IMO
          1 0003B7  E380 0000 0000  xent                 LNJ,B6   QBA$DEACTIVATE
          1 0003BA       0001                            DC       s:21015+6,PREL
          1 0003BB  0F81 006A                            B        s:21064,PREL

      604    21016
      605    21017    3           CASE ( %QI#OP_CLEAR );

      606    21018    3             CALL QBC$CLEAR;

  21018   1 0003BD  CBF0 0000                            LAB,B4   0,IMO
          1 0003BF  E380 0000 0000  xent                 LNJ,B6   QBC$CLEAR
          1 0003C2       0001                            DC       s:21018+6,PREL
          1 0003C3  0F81 0062                            B        s:21064,PREL

      607    21019
      608    21020    3           CASE ( %QI#OP_ENABLE );

      609    21021    3             CALL QBE$ENABLE;

  21021   1 0003C5  CBF0 0000                            LAB,B4   0,IMO
          1 0003C7  E380 0000 0000  xent                 LNJ,B6   QBE$ENABLE
          1 0003CA       0001                            DC       s:21021+6,PREL
          1 0003CB  0F81 005A                            B        s:21064,PREL

      610    21022
      611    21023    3           CASE ( %QI#OP_DISABLE );
PL6.E3A0      #001=QAT$TALLYHO File=QAT$TALLYHO.:E05TSI                          WED 07/30/97 04:38 Page:71

      612    21024    3             CALL QBE$DISABLE;

  21024   1 0003CD  CBF0 0000                            LAB,B4   0,IMO
          1 0003CF  E380 0000 0000  xent                 LNJ,B6   QBE$DISABLE
          1 0003D2       0001                            DC       s:21024+6,PREL
          1 0003D3  0F81 0052                            B        s:21064,PREL

      613    21025
      614    21026    3           CASE ( %QI#OP_PRESENT );

      615    21027    3             CALL QBV$PRESENT;

  21027   1 0003D5  CBF0 0000                            LAB,B4   0,IMO
          1 0003D7  E380 0000 0000  xent                 LNJ,B6   QBV$PRESENT
          1 0003DA       0001                            DC       s:21027+6,PREL
          1 0003DB  0F81 004A                            B        s:21064,PREL

      616    21028
      617    21029    3           CASE ( %QI#OP_VERIFY );

      618    21030    3             CALL QBV$VERIFY;

  21030   1 0003DD  CBF0 0000                            LAB,B4   0,IMO
          1 0003DF  E380 0000 0000  xent                 LNJ,B6   QBV$VERIFY
          1 0003E2       0001                            DC       s:21030+6,PREL
          1 0003E3  0F81 0042                            B        s:21064,PREL

      619    21031
      620    21032    3           CASE ( %QI#OP_ACCEPT );

      621    21033    3             CALL QBA$ACCEPT;

  21033   1 0003E5  CBF0 0000                            LAB,B4   0,IMO
          1 0003E7  E380 0000 0000  xent                 LNJ,B6   QBA$ACCEPT
          1 0003EA       0001                            DC       s:21033+6,PREL
          1 0003EB  0F81 003A                            B        s:21064,PREL
PL6.E3A0      #001=QAT$TALLYHO File=QAT$TALLYHO.:E05TSI                          WED 07/30/97 04:38 Page:72

      622    21034
      623    21035    3           CASE ( %QI#OP_DISPLAY );

      624    21036    3             CALL QBD$DISPLAY;

  21036   1 0003ED  CBF0 0000                            LAB,B4   0,IMO
          1 0003EF  E380 0000 0000  xent                 LNJ,B6   QBD$DISPLAY
          1 0003F2       0001                            DC       s:21036+6,PREL
          1 0003F3  0F81 0032                            B        s:21064,PREL

      625    21037
      626    21038    3           CASE ( %QI#OP_READ_TRAN );

      627    21039    3             CALL QBR$READ_TRAN;

  21039   1 0003F5  CBF0 0000                            LAB,B4   0,IMO
          1 0003F7  E380 0000 0000  xent                 LNJ,B6   QBR$READ_TRAN
          1 0003FA       0001                            DC       s:21039+6,PREL
          1 0003FB  0F81 002A                            B        s:21064,PREL

      628    21040
      629    21041    3           CASE ( %QI#OP_IFINDR );

      630    21042    3             CALL QBI$IF_INDICATOR ALTRET ( TRANSFER_OCCURRED );

  21042   1 0003FD  CBF0 0000                            LAB,B4   0,IMO
          1 0003FF  E380 0000 0000  xent                 LNJ,B6   QBI$IF_INDICATOR
          1 000402       0026                            DC       s:21067,PREL
          1 000403  0F81 0022                            B        s:21064,PREL

      631    21043
      632    21044    3           CASE ( %QI#OP_WRITE_TRAN );

      633    21045    3             CALL QBW$WRITE_TRAN;

  21045   1 000405  CBF0 0000                            LAB,B4   0,IMO
PL6.E3A0      #001=QAT$TALLYHO File=QAT$TALLYHO.:E05TSI                          WED 07/30/97 04:38 Page:73
          1 000407  E380 0000 0000  xent                 LNJ,B6   QBW$WRITE_TRAN
          1 00040A       0001                            DC       s:21045+6,PREL
          1 00040B  0F81 001A                            B        s:21064,PREL

      634    21046
      635    21047    3           CASE ( %QI#OP_READ_FORM );

      636    21048    3             CALL QBR$READ_FORM;

  21048   1 00040D  CBF0 0000                            LAB,B4   0,IMO
          1 00040F  E380 0000 0000  xent                 LNJ,B6   QBR$READ_FORM
          1 000412       0001                            DC       s:21048+6,PREL
          1 000413  0F81 0012                            B        s:21064,PREL

      637    21049
      638    21050    3           CASE ( %QI#OP_WRITE_FORM );

      639    21051    3             CALL QBW$WRITE_FORM;

  21051   1 000415  CBF0 0000                            LAB,B4   0,IMO
          1 000417  E380 0000 0000  xent                 LNJ,B6   QBW$WRITE_FORM
          1 00041A       0001                            DC       s:21051+6,PREL
          1 00041B  0F81 000A                            B        s:21064,PREL

      640    21052
      641    21053                /*
      642    21054                CASE ( %QI#OP_DELETE );
      643    21055                  CALL QI1$DELETE;
      644    21056                                */
      645    21057
      646    21058    3           CASE ( ELSE );

      647    21059    3             CALL QCE$ERROR_INTERNAL ( %E$INTERNAL_INTERPRETER_ERROR );

  21059   1 00041D  BB80 0000 0010  02                   LAB,B3   +16
          1 000420  CBF0 0100                            LAB,B4   256,IMO
          1 000422  E380 0000 0000  xent                 LNJ,B6   QCE$ERROR_INTERNAL
PL6.E3A0      #001=QAT$TALLYHO File=QAT$TALLYHO.:E05TSI                          WED 07/30/97 04:38 Page:74
          1 000425       0001                            DC       s:21064,PREL

      648    21060
      649    21061    3         END;  /* DO CASE ( QI_1.OP_CODE ); */

      650    21062
      651    21063
      652    21064    3         DO %NEVER;

  21064   1 000426  0F81 FD40                            B        s:20763,PREL

      653    21065
      654    21066    3   TRANSFER_OCCURRED:
      655    21067    3           IF QI_VLP_XBREAK.TT

  21067   1 000428  8280 0000 0006  xsym TRANSFER_OCCURR*LB,'0080'X        QI_VLP_XBREAK+6
  21067   1 00042B       0080
          1 00042C  0581 0017                            BBF      s:21080,PREL

      656    21068    3           THEN
      657    21069    3   REPORT_TRANSFER:
      658    21070    4             DO;

  21070   1                              REPORT_TRANSFER null
      659    21071    4               QI_VLP_XBREAK.OLDIC$ = QI_1.CURR_INSTR$;

  21071   1 00042E  EC80 0000 0008  xsym REPORT_TRANSFER LDB,B6   QI_1+8
          1 000431  EF80 0000 0002  xsym                 STB,B6   QI_VLP_XBREAK+2

      660    21072    4               QI_VLP_XBREAK.IC$ = QI_1.INSTR$;

  21072   1 000434  DC80 0000 0006  xsym                 LDB,B5   QI_1+6
          1 000437  DF80 0000 0000  xsym                 STB,B5   QI_VLP_XBREAK

      661    21073    4               QI_VLP_XBREAK.TRAP# = %G_TRACE#;

  21073   1 00043A  6C02                                 LDV,R6   2
PL6.E3A0      #001=QAT$TALLYHO File=QAT$TALLYHO.:E05TSI                          WED 07/30/97 04:38 Page:75
          1 00043B  E780 0000 0006  xsym                 STH,R6   QI_VLP_XBREAK+6

      662    21074
      663    21075    4               CALL QCE$EXPERIENCE_M$XBREAK;

  21075   1 00043E  CBF0 0000                            LAB,B4   0,IMO
          1 000440  E380 0000 0000  xent                 LNJ,B6   QCE$EXPERIENCE_M$XBREAK
          1 000443       0001                            DC       s:21080,PREL

      664    21076    4             END REPORT_TRANSFER;

      665    21077
      666    21078    3         END;  /* DO %NEVER; */

      667    21079
      668    21080    2       END INSTRUCTION_CYCLE;

  21080   1 000444  0F81 FD22                            B        s:20763,PREL

      669    21081
      670    21082        %EJECT;
PL6.E3A0      #001=QAT$TALLYHO File=QAT$TALLYHO.:E05TSI                          WED 07/30/97 04:38 Page:76
      671    21083    1   CREATE_THE_MESSAGE_LINE: PROC;

  21083   1 000446  EFC7 0034            CREATE_THE_MESS*STB,B6   FPT@GDS+8,AUTO

      672    21084
      673    21085        /*I*  NAME:         CREATE_THE_MESSAGE_LINE
      674    21086              PURPOSE:      OPEN the default MESSAGE LINE.
      675    21087              CALL:         CALL CREATE_THE_MESSAGE_LINE;
      676    21088              PARAMETERS:   None.
      677    21089              DATA:         QI_1.MESSAGE_LINE[_whatever],
      678    21090                            QI_FPT_GDS,
      679    21091                            QI_VLP_SEGMENT.
      680    21092              DESCRIPTION:  Build an entry for the default MESSAGE LINE
      681    21093                            out in GZ-land (dynamic memory), and M$OPEN
      682    21094                            it.  Its position on the screen, length, etc.
      683    21095                            are determined by VDH.
      684    21096        */
      685    21097
      686    21098          %FPT_OPEN ( FPTN = FPT@OPEN,
      687    21099                      STCLASS = AUTO );
      688    21127          %FPT_PROMPT ( FPTN = FPT@PROMPT,
      689    21128                        STCLASS = AUTO );
      690    21156    2     DCL VLP_PROMPT CHAR(1) CONSTANT INIT('@');
      691    21157          %FPT_TRMCTL ( FPTN = FPT@TRMCTL,
      692    21158                        STCLASS = AUTO );
      693    21185          %VLP_TRMCTL ( FPTN = VLP@TRMCTL,
      694    21186                        STCLASS = AUTO );
      695    21226
      696    21227        %EJECT;
PL6.E3A0      #001=QAT$TALLYHO File=QAT$TALLYHO.:E05TSI                          WED 07/30/97 04:38 Page:77
      697    21228    2       FPT@OPEN = QI_FPT_OPEN;

  21228   1 000448  AB80 0000 0000  xsym                 LAB,B2   QI_FPT_OPEN
          1 00044B  2C00                                 LDV,R2   0
          1 00044C  6C5E                                 LDV,R6   94
          1 00044D  BB87                                 LAB,B3   ,AUTO
          1 00044E  3C6C                                 LDV,R3   108
          1 00044F  0008                                 MMM

      698    21229    2       VBASE ( FPT@OPEN.V_ ) = ADDR ( FPT@OPEN.V );

  21229   1 000450  EBC7 005D                            LAB,B6   FPT@OPEN+39,AUTO
          1 000452  EFC7 0037                            STB,B6   FPT@OPEN+1,AUTO

      699    21230    2       FPT@OPEN.V.DCB# = INITIALIZATION_BLOCK.MESSAGE_LINE_DCB#;

  21230   1 000454  DCC7 0004                            LDB,B5   @INITIALIZATION_BLOCK,AUTO
          1 000456  E845 0012                            LDR,R6   18,B5
          1 000458  E7C7 005D                            STH,R6   FPT@OPEN+39,AUTO

      700    21231    2       FPT@OPEN.V.ORG = %G_ORG_TERMINAL#;

  21231   1 00045A  6C03                                 LDV,R6   3
          1 00045B  E7C7 005F                            STH,R6   FPT@OPEN+41,AUTO

      701    21232    2       FPT@OPEN.V.RES = 'UC01';

  21232   1 00045D  AB80 0000 0000  00                   LAB,B2   NDBCONTROL
          1 000460  2C0E                                 LDV,R2   14
          1 000461  6C04                                 LDV,R6   4
          1 000462  BBC7 0060                            LAB,B3   FPT@OPEN+42,AUTO
          1 000464  3C00                                 LDV,R3   0
          1 000465  0008                                 MMM

      702    21233    2       FPT@OPEN.V.DVFC = %VFC_TRANSITION0;

  21233   1 000466  6C1E                                 LDV,R6   30
PL6.E3A0      #001=QAT$TALLYHO File=QAT$TALLYHO.:E05TSI                          WED 07/30/97 04:38 Page:78
          1 000467  EAC7 005F                            SRM,R6,'00FF'X    FPT@OPEN+41,AUTO
          1 000469       00FF

      703    21234
      704    21235    2       CALL M$OPEN ( FPT@OPEN )

  21235   1 00046A  BBC7 0036                            LAB,B3   FPT@OPEN,AUTO
          1 00046C  B870 3540                            LDR,R3   13632,IMO
          1 00046E  0001                                 MCL
          1 00046F       0003                            DC       s:21238,PREL
          1 000470  0F81 000A                            B        s:21241,PREL

      705    21236    2       WHENALTRETURN
      706    21237    3         DO;

      707    21238    3           CALL QCE$ERROR_M$INTERNAL ( %E$UNEXPECTED_ALTRET );

  21238   1 000472  BB80 0000 0007  02                   LAB,B3   +7
          1 000475  CBF0 0100                            LAB,B4   256,IMO
          1 000477  E380 0000 0000  xent                 LNJ,B6   QCE$ERROR_M$INTERNAL
          1 00047A       0001                            DC       s:21241,PREL

      708    21239    3         END;

      709    21240
      710    21241    2       FPT@PROMPT = QI_FPT_PROMPT;

  21241   1 00047B  AB80 0000 0000  xsym                 LAB,B2   QI_FPT_PROMPT
          1 00047E  2C00                                 LDV,R2   0
          1 00047F  6C10                                 LDV,R6   16
          1 000480  BBC7 0065                            LAB,B3   FPT@PROMPT,AUTO
          1 000482  3C00                                 LDV,R3   0
          1 000483  0008                                 MMM

      711    21242    2       VBASE ( FPT@PROMPT.V_ ) = ADDR ( FPT@PROMPT.V );

  21242   1 000484  EBC7 006B                            LAB,B6   FPT@PROMPT+6,AUTO
PL6.E3A0      #001=QAT$TALLYHO File=QAT$TALLYHO.:E05TSI                          WED 07/30/97 04:38 Page:79
          1 000486  EFC7 0066                            STB,B6   FPT@PROMPT+1,AUTO

      712    21243    2       FPT@PROMPT.V.DCB# = INITIALIZATION_BLOCK.MESSAGE_LINE_DCB#;

  21243   1 000488  DCC7 0004                            LDB,B5   @INITIALIZATION_BLOCK,AUTO
          1 00048A  E845 0012                            LDR,R6   18,B5
          1 00048C  E7C7 006B                            STH,R6   FPT@PROMPT+6,AUTO

      713    21244    2       FPT@PROMPT.PROMPT_ = VECTOR ( VLP_PROMPT );

  21244   1 00048E  AB80 0000 0000  02                   LAB,B2   0
          1 000491  2C24                                 LDV,R2   36
          1 000492  6C06                                 LDV,R6   6
          1 000493  BBC7 0068                            LAB,B3   FPT@PROMPT+3,AUTO
          1 000495  3C00                                 LDV,R3   0
          1 000496  0008                                 MMM

      714    21245
      715    21246    2       CALL M$PROMPT ( FPT@PROMPT )

  21246   1 000497  BBC7 0065                            LAB,B3   FPT@PROMPT,AUTO
          1 000499  B870 0982                            LDR,R3   2434,IMO
          1 00049B  0001                                 MCL
          1 00049C       0003                            DC       s:21249,PREL
          1 00049D  0F81 000A                            B        s:21252,PREL

      716    21247    2       WHENALTRETURN
      717    21248    3         DO;

      718    21249    3           CALL QCE$ERROR_M$INTERNAL ( %E$UNEXPECTED_ALTRET );

  21249   1 00049F  BB80 0000 0007  02                   LAB,B3   +7
          1 0004A2  CBF0 0100                            LAB,B4   256,IMO
          1 0004A4  E380 0000 0000  xent                 LNJ,B6   QCE$ERROR_M$INTERNAL
          1 0004A7       0001                            DC       s:21252,PREL

      719    21250    3         END;
PL6.E3A0      #001=QAT$TALLYHO File=QAT$TALLYHO.:E05TSI                          WED 07/30/97 04:38 Page:80

      720    21251
      721    21252    2       FPT@TRMCTL = QI_FPT_TRMCTL;

  21252   1 0004A8  AB80 0000 0000  xsym                 LAB,B2   QI_FPT_TRMCTL
          1 0004AB  2C00                                 LDV,R2   0
          1 0004AC  6C10                                 LDV,R6   16
          1 0004AD  BBC7 006D                            LAB,B3   FPT@TRMCTL,AUTO
          1 0004AF  3C00                                 LDV,R3   0
          1 0004B0  0008                                 MMM

      722    21253    2       VBASE ( FPT@TRMCTL.V_ ) = ADDR ( FPT@TRMCTL.V );

  21253   1 0004B1  EBC7 0073                            LAB,B6   FPT@TRMCTL+6,AUTO
          1 0004B3  EFC7 006E                            STB,B6   FPT@TRMCTL+1,AUTO

      723    21254    2       FPT@TRMCTL.V.DCB# = INITIALIZATION_BLOCK.MESSAGE_LINE_DCB#;

  21254   1 0004B5  DCC7 0004                            LDB,B5   @INITIALIZATION_BLOCK,AUTO
          1 0004B7  E845 0012                            LDR,R6   18,B5
          1 0004B9  E7C7 0073                            STH,R6   FPT@TRMCTL+6,AUTO

      724    21255    2       FPT@TRMCTL.TRMCTL_ = VECTOR ( VLP@TRMCTL );

  21255   1 0004BB  CBC7 0075                            LAB,B4   VLP@TRMCTL,AUTO
          1 0004BD  CFC7 007F                            STB,B4   VLP@TRMCTL+10,AUTO
          1 0004BF  6C0F                                 LDV,R6   15
          1 0004C0  EF47 007E                            STR,R6   VLP@TRMCTL+9,AUTO
          1 0004C2  ABC7 007E                            LAB,B2   VLP@TRMCTL+9,AUTO
          1 0004C4  2C00                                 LDV,R2   0
          1 0004C5  6C06                                 LDV,R6   6
          1 0004C6  BBC7 0070                            LAB,B3   FPT@TRMCTL+3,AUTO
          1 0004C8  3C00                                 LDV,R3   0
          1 0004C9  0008                                 MMM

      725    21256
      726    21257    2       CALL M$GTRMCTL ( FPT@TRMCTL )
PL6.E3A0      #001=QAT$TALLYHO File=QAT$TALLYHO.:E05TSI                          WED 07/30/97 04:38 Page:81

  21257   1 0004CA  BBC7 006D                            LAB,B3   FPT@TRMCTL,AUTO
          1 0004CC  B870 0981                            LDR,R3   2433,IMO
          1 0004CE  0001                                 MCL
          1 0004CF       0003                            DC       s:21260,PREL
          1 0004D0  0F81 000A                            B        s:21263,PREL

      727    21258    2       WHENALTRETURN
      728    21259    3         DO;

      729    21260    3           CALL QCE$ERROR_M$INTERNAL ( %E$UNEXPECTED_ALTRET );

  21260   1 0004D2  BB80 0000 0007  02                   LAB,B3   +7
          1 0004D5  CBF0 0100                            LAB,B4   256,IMO
          1 0004D7  E380 0000 0000  xent                 LNJ,B6   QCE$ERROR_M$INTERNAL
          1 0004DA       0001                            DC       s:21263,PREL

      730    21261    3         END;

      731    21262
      732    21263    2       QI_1.HOUSEKEEPING.INITIAL_PAGEHALT_SETTING = VLP@TRMCTL.PAGEHALT;

  21263   1 0004DB  E847 0077                            LDR,R6   VLP@TRMCTL+2,AUTO
          1 0004DD  6044                                 SOR,R6   4
          1 0004DE  EA80 0000 0015  xsym                 SRM,R6,'0300'X    QI_1+21
          1 0004E1       0300

      733    21264    2       VLP@TRMCTL.PAGEHALT = %NO;

  21264   1 0004E2  8847 0077                            LBF,'3000'X       VLP@TRMCTL+2,AUTO
  21264   1 0004E4       3000

      734    21265
      735    21266    2       CALL M$STRMCTL ( FPT@TRMCTL )

  21266   1 0004E5  BBC7 006D                            LAB,B3   FPT@TRMCTL,AUTO
          1 0004E7  B870 0980                            LDR,R3   2432,IMO
PL6.E3A0      #001=QAT$TALLYHO File=QAT$TALLYHO.:E05TSI                          WED 07/30/97 04:38 Page:82
          1 0004E9  0001                                 MCL
          1 0004EA       0003                            DC       s:21269,PREL
          1 0004EB  0F81 000A                            B        s:21276,PREL

      736    21267    2       WHENALTRETURN
      737    21268    3         DO;

      738    21269    3           CALL QCE$ERROR_M$INTERNAL ( %E$UNEXPECTED_ALTRET );

  21269   1 0004ED  BB80 0000 0007  02                   LAB,B3   +7
          1 0004F0  CBF0 0100                            LAB,B4   256,IMO
          1 0004F2  E380 0000 0000  xent                 LNJ,B6   QCE$ERROR_M$INTERNAL
          1 0004F5       0001                            DC       s:21276,PREL

      739    21270    3         END;

      740    21271
      741    21272        /*
      742    21273            The STATIC QI_VLP_SEGMENT should have the right stuff in it
      743    21274            to get 1 page from USRDS3, a BIG segment.
      744    21275        */
      745    21276    2       FPT@GDS = QI_FPT_GDS;

  21276   1 0004F6  AB80 0000 0000  xsym                 LAB,B2   QI_FPT_GDS
          1 0004F9  2C00                                 LDV,R2   0
          1 0004FA  6C10                                 LDV,R6   16
          1 0004FB  BB87                                 LAB,B3   ,AUTO
          1 0004FC  3C58                                 LDV,R3   88
          1 0004FD  0008                                 MMM

      746    21277    2       VBASE ( FPT@GDS.V_ ) = ADDR ( FPT@GDS.V );

  21277   1 0004FE  EBC7 0032                            LAB,B6   FPT@GDS+6,AUTO
          1 000500  EFC7 002D                            STB,B6   FPT@GDS+1,AUTO

      747    21278
      748    21279    2       QI_VLP_SEGMENT.BASE = %GM_USRDS3_BASE;
PL6.E3A0      #001=QAT$TALLYHO File=QAT$TALLYHO.:E05TSI                          WED 07/30/97 04:38 Page:83

  21279   1 000502  8CF0 000B 0000                       LDI      720896,IMO
          1 000505  8D00 0000 0000  xsym                 SDI      QI_VLP_SEGMENT

      749    21280
      750    21281    2       CALL M$GDS ( FPT@GDS )

  21281   1 000508  BBC7 002C                            LAB,B3   FPT@GDS,AUTO
          1 00050A  B870 0902                            LDR,R3   2306,IMO
          1 00050C  0001                                 MCL
          1 00050D       0003                            DC       s:21284,PREL
          1 00050E  0F81 000A                            B        s:21287,PREL

      751    21282    2       WHENALTRETURN
      752    21283    3         DO;

      753    21284    3           CALL QCE$ERROR ( %E$INSUFFICIENT_MEMORY );

  21284   1 000510  BB80 0000 000D  02                   LAB,B3   +13
          1 000513  CBF0 0100                            LAB,B4   256,IMO
          1 000515  E380 0000 0000  xent                 LNJ,B6   QCE$ERROR
          1 000518       0001                            DC       s:21287,PREL

      754    21285    3         END;

      755    21286
      756    21287    2       QI_1.GZ.LAST_HEADER$ = QI_VLP_SEGMENT.BASE$;

  21287   1 000519  EC80 0000 0000  xsym                 LDB,B6   QI_VLP_SEGMENT
          1 00051C  EF80 0000 006A  xsym                 STB,B6   QI_1+106

      757    21288    2       QI_1.GZ.AVAILABLE$ = PINCRW ( QI_1.GZ.LAST_HEADER$,

  21288   1 00051F  DBC6 0017                            LAB,B5   23,B6
          1 000521  DF80 0000 006C  xsym                 STB,B5   QI_1+108

      758    21289    2         SIZEW (QI$GZ_HEADER) + SIZEW (QI$GZ_FIELD) );
PL6.E3A0      #001=QAT$TALLYHO File=QAT$TALLYHO.:E05TSI                          WED 07/30/97 04:38 Page:84
      759    21290
      760    21291    2       QI_1.MESSAGE_LINE_GZ.HEADER$ = QI_VLP_SEGMENT.BASE$;

  21291   1 000524  EF80 0000 0064  xsym                 STB,B6   QI_1+100

      761    21292
      762    21293    2       QI_1.MESSAGE_LINE_GZ.HEADER$ -> QI$GZ_HEADER = '0'B;

  21293   1 000527  5C16                                 LDV,R5   22
          1 000528  0021                                 ALR      ;
          1 000529       4178 0000                                ALPHANUM('0000'X,IMO,,1),;
          1 00052B       4006 0000                                ALPHANUM(0,B6,,R5,FILL)

      763    21294
      764    21295    2       QI_1.MESSAGE_LINE_GZ.HEADER$ -> QI$GZ_HEADER.IS_ACTIVE = %YES;

  21295   1 00052D  437F                                 CSYNC    s:21293+5,SPREL
          1 00052E  EC80 0000 0064  xsym                 LDB,B6   QI_1+100
          1 000531  8906                                 LBT,'8000'X       ,B6
          1 000532       8000

      765    21296    2       QI_1.MESSAGE_LINE_GZ.HEADER$ -> QI$GZ_HEADER.DCB# = INITIALIZATION_BLOCK.
             21296                MESSAGE_LINE_DCB#;

  21296   1 000533  EC80 0000 0064  xsym                 LDB,B6   QI_1+100
          1 000536  DCC7 0004                            LDB,B5   @INITIALIZATION_BLOCK,AUTO
          1 000538  E845 0012                            LDR,R6   18,B5
          1 00053A  EF46 0003                            STR,R6   3,B6

      766    21297    2       QI_1.MESSAGE_LINE_GZ.HEADER$ -> QI$GZ_HEADER.FIELD_COUNT = 1;

  21297   1 00053C  EC80 0000 0064  xsym                 LDB,B6   QI_1+100
          1 00053F  6C01                                 LDV,R6   1
          1 000540  EF46 0004                            STR,R6   4,B6

      767    21298    2       QI_1.MESSAGE_LINE_GZ.HEADER$ -> QI$GZ_HEADER.FRAME_DAD$ = ADDR ( NIL );

PL6.E3A0      #001=QAT$TALLYHO File=QAT$TALLYHO.:E05TSI                          WED 07/30/97 04:38 Page:85
  21298   1 000542  EB80 0000 0000                       LAB,B6   0
          1 000545  CC80 0000 0064  xsym                 LDB,B4   QI_1+100
          1 000548  EFC4 0005                            STB,B6   5,B4

      768    21299
      769    21300    2       QI_1.MESSAGE_LINE_GZ.START$ =

  21300   1 00054A  EC80 0000 0064  xsym                 LDB,B6   QI_1+100
          1 00054D  CBC6 000B                            LAB,B4   11,B6
          1 00054F  CF80 0000 0066  xsym                 STB,B4   QI_1+102

      770    21301    2         PINCRW ( QI_1.MESSAGE_LINE_GZ.HEADER$,
      771    21302    2         SIZEW ( QI$GZ_HEADER ) );
      772    21303    2       QI_1.MESSAGE_LINE_GZ.STOP$ = QI_1.MESSAGE_LINE_GZ.START$;

  21303   1 000552  CF80 0000 0068  xsym                 STB,B4   QI_1+104

      773    21304
      774    21305    2       QI_1.MESSAGE_LINE_GZ.START$ -> QI$GZ_FIELD = '0'B;

  21305   1 000555  5C17                                 LDV,R5   23
          1 000556  0021                                 ALR      ;
          1 000557       4178 0000                                ALPHANUM('0000'X,IMO,,1),;
          1 000559       4004 0000                                ALPHANUM(0,B4,,R5,FILL)

      775    21306    2      QI_1.MESSAGE_LINE_GZ.START$ -> QI$GZ_FIELD.DESCRIPTION.IO_FLAGS.IS_OUTPUT = %YES
             21306                ;

  21306   1 00055B  437F                                 CSYNC    s:21305+5,SPREL
          1 00055C  EC80 0000 0066  xsym                 LDB,B6   QI_1+102
          1 00055F  8946 0002                            LBT,'8000'X       2,B6
          1 000561       8000

      776    21307    2       QI_1.MESSAGE_LINE_GZ.START$ -> QI$GZ_FIELD.INDICATORS$ = ADDR (NIL);

  21307   1 000562  EB80 0000 0000                       LAB,B6   0
          1 000565  CC80 0000 0066  xsym                 LDB,B4   QI_1+102
PL6.E3A0      #001=QAT$TALLYHO File=QAT$TALLYHO.:E05TSI                          WED 07/30/97 04:38 Page:86
          1 000568  EF84                                 STB,B6   ,B4

      777    21308    2       QI_1.MESSAGE_LINE_GZ.START$ -> QI$GZ_FIELD.STATUS.VISUAL_ATTRIBUTE = %
             21308                QI#OUTPUT_VISUAL_ATTRIBUTE;

  21308   1 000569  4C05                                 LDV,R4   5
          1 00056A  EC80 0000 0066  xsym                 LDB,B6   QI_1+102
          1 00056D  C7C6 0007                            STH,R4   7,B6

      778    21309
      779    21310    2       RETURN;

  21310   1 00056F  ECC7 0034                            LDB,B6   FPT@GDS+8,AUTO
          1 000571  C3C6 0001                            LNJ,B4   1,B6
      780    21311
      781    21312    2   END CREATE_THE_MESSAGE_LINE;
      782    21313
      783    21314    1   END QAT$TALLYHO;

PL6.E3A0      #001=QAT$TALLYHO File=QAT$TALLYHO.:E05TSI                          WED 07/30/97 04:38 Page:87
--  Include file information  --

   QI_MACROS_M.:E05TOU  is referenced.
   QI_PERR_C.:E05TOU  is referenced.
   QI_EQUATES_E.:E05TOU  is referenced.
   QG_MACRO_M.:E05TOU  is referenced.
   NK_VFC_C.:E05TOU  is referenced.
   LCP_6.:E05TOU  cannot be made into a system file and is referenced.
   G_JIT_M.:E05TOU  is referenced.
   GM_VIRTUAL_E.:E05TOU  is referenced.
   G_LCP6_E.:E05TOU  was found in the system file and is referenced.
   GT_LCP6_M.:E05TOU  was found in the system file and is referenced.
   KI_CP6.:E05TOU  was found in the system file and is referenced.
   GF_LCP6_M.:E05TOU  was found in the system file and is referenced.
   GM_LCP6_M.:E05TOU  was found in the system file and is referenced.
   GU_LCP6_M.:E05TOU  was found in the system file and is referenced.
   GJ_LCP6_M.:E05TOU  was found in the system file and is referenced.
   GH_LCP6_M.:E05TOU  was found in the system file and is referenced.
      No diagnostics issued in procedure QAT$TALLYHO.
PL6.E3A0      #001=QAT$TALLYHO File=QAT$TALLYHO.:E05TSI                          WED 07/30/97 04:38 Page:88

 **** Variables and constants ****

  ****  Section 000 RoData QAT$TALLYHO

  ****  Scalars and arrays  ****
HexLoc.c.b A Datatyp(siz) R M Lvl/name                 HexLoc.c.b A Datatyp(siz) R M Lvl/name

     0-0-0/w EPTR        r     1 NDBCONTROL                 2-0-0/w EPTR        r     1 NINT
     4-0-0/c CHAR(4)     r     1 QI_OLDEST_COMPILER_VERSION
     6-0-0/c CHAR        r     1 VLP_PROMPT

  ****  Auto variables  ****

  ****  Scalars and arrays  ****
HexLoc.c.b A Datatyp(siz) R M Lvl/name                 HexLoc.c.b A Datatyp(siz) R M Lvl/name

     8-0-0/w PTR         r     1 @ARGUMENTS_AND_OR_FREE_AUTO_A$
     6-0-0/w PTR         r     1 @FIRST_INSTRUCTION
     4-0-0/w PTR         r     1 @INITIALIZATION_BLOCK
    *0-0-0/w PTR         r     1 ARGUMENTS_AND_OR_FREE_AUTO_A$(0:0)
    *0-0-0/w UBIN(16)    r     1 FIRST_INSTRUCTION          A-0-0/w STRC(128)   r     1 FPT@DBCONTROL
    2C-0-0/w STRC(128)   r     1 FPT@GDS                   12-0-0/w STRC(128)   r     1 FPT@INT
    36-0-0/w STRC(752)   r     1 FPT@OPEN                  65-0-0/w STRC(128)   r     1 FPT@PROMPT
    1A-0-0/w STRC(96)    r     1 FPT@TRAP                  6D-0-0/w STRC(128)   r     1 FPT@TRMCTL
    *0-0-0/w STRC(336)   r     1 INITIALIZATION_BLOCK      20-0-0/w STRC(192)   r     1 NTC
    75-0-0/w STRC(128)   r     1 VLP@TRMCTL

  ****  SYMREF variables  ****

  ****  Scalars and arrays  ****
HexLoc.c.b A Datatyp(siz) R M Lvl/name                 HexLoc.c.b A Datatyp(siz) R M Lvl/name

     0-0-0/w PTR         r     1 G$JIT$                     0-0-0/w STRC(432)   r     1 QGB_PARAM
     0-0-0/d STRC(2576)  r     1 QI_1                       0-0-0/w STRC(128)   r     1 QI_FPT_DBCONTROL
     0-0-0/w STRC(128)   r     1 QI_FPT_GDS                 0-0-0/w STRC(128)   r     1 QI_FPT_GDS_BUFFER
     0-0-0/w STRC(128)   r     1 QI_FPT_INT                 0-0-0/w STRC(752)   r     1 QI_FPT_OPEN
     0-0-0/w STRC(128)   r     1 QI_FPT_PROMPT              0-0-0/w STRC(96)    r     1 QI_FPT_TRAP
PL6.E3A0      #001=QAT$TALLYHO File=QAT$TALLYHO.:E05TSI                          WED 07/30/97 04:38 Page:89
     0-0-0/w STRC(128)   r     1 QI_FPT_TRMCTL              0-0-0/w STRC(48)    r     1 QI_VLP_SEGMENT
     0-0-0/w STRC(48)    r     1 QI_VLP_SEGMENT_BUFFER
     0-0-0/w STRC(192)   r     1 QI_VLP_TRAP_CONDITIONS
     0-0-0/w STRC(112)   r     1 QI_VLP_XBREAK

  ****  BASED and DCB variables  ****

  ****  Scalars and arrays  ****
HexLoc.c.b A Datatyp(siz) R M Lvl/name                 HexLoc.c.b A Datatyp(siz) R M Lvl/name

     0-0-0/w STRC(5616)  r     1 G$JIT                      0-0-0/w STRC(48)    r     1 QI$DAD
     0-0-0/w STRC(184)   r     1 QI$GZ_FIELD                0-0-0/w STRC(176)   r     1 QI$GZ_HEADER
     0-0-0/w STRC(32)    r     1 QI$OP_SEQUENCE
     0-0-0/c ASTR(8)     r     1 QI$VARIABLE_IDENTIFIER


   Procedure QAT$TALLYHO requires 1395 words for executable code.
   Procedure QAT$TALLYHO requires 129 words of local(AUTO) storage.

    No errors detected in file QAT$TALLYHO.:E05TSI    .
PL6.E3A0      #001=QAT$TALLYHO File=QAT$TALLYHO.:E05TSI                          WED 07/30/97 04:38 Page:90
          *** CROSS REFERENCE LISTING ***
**     DENOTES     IDENTIFIER DEFINITION
<<                 IDENTIFIER'S VALUE SET
>>                 IDENTIFIER'S VALUE USED
<>                 IDENTIFIER SET AND/OR USED
--                 IDENTIFIER REFERENCED
PL6.E3A0      #001=QAT$TALLYHO File=QAT$TALLYHO.:E05TSI                          WED 07/30/97 04:38 Page:91
          MINI XREF LISTING

ARGUMENTS_AND_OR_FREE_AUTO_A$
     20557**DCL        28--PROC    20569--ASSIGN  20650--ASSIGN
CREATE_THE_MESSAGE_LINE
     21083**PROC    20752--CALL
EXECUTE_THE_INSTRUCTION
     20790**LABEL   20805--GOTO
FIRST_INSTRUCTION
     20556**DCL        28--PROC    20568--ASSIGN
FPT@DBCONTROL
       844**DCL     20673<<ASSIGN  20676<>CALL
FPT@DBCONTROL.NDBCONTROL_
       848**DCL     20674<<ASSIGN
FPT@DBCONTROL.V_
       848**DCL       848--REDEF
FPT@GDS
      1092**DCL     20732<<ASSIGN  20737<>CALL    21276<<ASSIGN  21281<>CALL
FPT@GDS.V
      1095**DCL     20733--ASSIGN  21277--ASSIGN
FPT@GDS.V_
      1095**DCL     20733<<ASSIGN  21277<<ASSIGN
FPT@INT
       886**DCL     20695<<ASSIGN  20698<>CALL
FPT@INT.NINT_
       890**DCL     20696<<ASSIGN
FPT@INT.V_
       890**DCL       890--REDEF
FPT@OPEN IN PROCEDURE CREATE_THE_MESSAGE_LINE
     21112**DCL     21228<<ASSIGN  21235<>CALL
FPT@OPEN.V IN PROCEDURE CREATE_THE_MESSAGE_LINE
     21120**DCL     21229--ASSIGN
FPT@OPEN.V.DCB# IN PROCEDURE CREATE_THE_MESSAGE_LINE
     21120**DCL     21230<<ASSIGN
PL6.E3A0      #001=QAT$TALLYHO File=QAT$TALLYHO.:E05TSI                          WED 07/30/97 04:38 Page:92
FPT@OPEN.V.DVFC IN PROCEDURE CREATE_THE_MESSAGE_LINE
     21123**DCL     21233<<ASSIGN
FPT@OPEN.V.ORG IN PROCEDURE CREATE_THE_MESSAGE_LINE
     21122**DCL     21231<<ASSIGN
FPT@OPEN.V.RES IN PROCEDURE CREATE_THE_MESSAGE_LINE
     21123**DCL     21232<<ASSIGN
FPT@OPEN.V_ IN PROCEDURE CREATE_THE_MESSAGE_LINE
     21114**DCL     21229<<ASSIGN
FPT@PROMPT IN PROCEDURE CREATE_THE_MESSAGE_LINE
     21144**DCL     21241<<ASSIGN  21246<>CALL
FPT@PROMPT.PROMPT_ IN PROCEDURE CREATE_THE_MESSAGE_LINE
     21150**DCL     21244<<ASSIGN
FPT@PROMPT.V IN PROCEDURE CREATE_THE_MESSAGE_LINE
     21152**DCL     21242--ASSIGN
FPT@PROMPT.V.DCB# IN PROCEDURE CREATE_THE_MESSAGE_LINE
     21152**DCL     21243<<ASSIGN
FPT@PROMPT.V_ IN PROCEDURE CREATE_THE_MESSAGE_LINE
     21146**DCL     21242<<ASSIGN
FPT@TRAP
       919**DCL     20710<<ASSIGN  20715<>CALL
FPT@TRAP.NTC_
       919**DCL     20711<<ASSIGN
FPT@TRMCTL IN PROCEDURE CREATE_THE_MESSAGE_LINE
     21174**DCL     21252<<ASSIGN  21257<>CALL    21266<>CALL
FPT@TRMCTL.TRMCTL_ IN PROCEDURE CREATE_THE_MESSAGE_LINE
     21180**DCL     21255<<ASSIGN
FPT@TRMCTL.V IN PROCEDURE CREATE_THE_MESSAGE_LINE
     21182**DCL     21253--ASSIGN
FPT@TRMCTL.V.DCB# IN PROCEDURE CREATE_THE_MESSAGE_LINE
     21182**DCL     21254<<ASSIGN
FPT@TRMCTL.V_ IN PROCEDURE CREATE_THE_MESSAGE_LINE
     21176**DCL     21253<<ASSIGN
G$JIT.DB#
      1298**DCL     20682>>IF
G$JIT.ERRLOG
      1447**DCL      1450--REDEF
PL6.E3A0      #001=QAT$TALLYHO File=QAT$TALLYHO.:E05TSI                          WED 07/30/97 04:38 Page:93
G$JIT.JSUNIT
      1186**DCL      1187--REDEF
G$JIT.MCLS
      1185**DCL      1185--REDEF
G$JIT.TMRZ
      1454**DCL      1455--REDEF
G$JIT.USER_EXTIME
      1178**DCL      1179--REDEF
G$JIT.USER_MEMTIME
      1181**DCL      1181--REDEF
G$JIT.USER_SVTIME
      1180**DCL      1180--REDEF
G$JIT$
      1517**DCL     20682>>IF
INITIALIZATION_BLOCK
     20527**DCL        28--PROC    20566--ASSIGN
INITIALIZATION_BLOCK.COMPILER_VERSION
     20539**DCL     20664>>IF
INITIALIZATION_BLOCK.DATA_START$
     20528**DCL     20564>>ASSIGN
INITIALIZATION_BLOCK.MESSAGE_LINE_DCB#
     20543**DCL     21230>>ASSIGN  21243>>ASSIGN  21254>>ASSIGN  21296>>ASSIGN
INITIALIZATION_BLOCK.PROC_START$
     20529**DCL     20565>>ASSIGN
INITIALIZATION_BLOCK.VERIFY_BUFFER_1@P
     20535**DCL     20591>>ASSIGN
M$DBCONTROL
       711**DCL-ENT 20676--CALL
M$GDS
       722**DCL-ENT 20737--CALL    21281--CALL
M$GTRMCTL
       733**DCL-ENT 21257--CALL
M$INT
       710**DCL-ENT 20698--CALL
M$OPEN
       727**DCL-ENT 21235--CALL
PL6.E3A0      #001=QAT$TALLYHO File=QAT$TALLYHO.:E05TSI                          WED 07/30/97 04:38 Page:94
M$PROMPT
       733**DCL-ENT 21246--CALL
M$STRMCTL
       733**DCL-ENT 21266--CALL
M$TRAP
       711**DCL-ENT 20715--CALL
NDBCONTROL
       862**DCL     20674--ASSIGN
NINT
       904**DCL     20696--ASSIGN
NTC
       935**DCL     20711--ASSIGN  20712<<ASSIGN
NTC.TRAP$
       935**DCL     20713<<ASSIGN
QAU$UNWIND
     20763**LABEL   20759--REMEMBR
QBA$ABORT
     20456**DCL-ENT 20953--CALL
QBA$ACCEPT
     20487**DCL-ENT 21033--CALL
QBA$ACTIVATE
     20480**DCL-ENT 21012--CALL
QBA$ALL_LITERAL_MOVE
     20471**DCL-ENT 20986--CALL
QBA$APPLY
     20479**DCL-ENT 21009--CALL
QBA$DEACTIVATE
     20481**DCL-ENT 21015--CALL
QBC$CALL
     20450**DCL-ENT 20941--CALL
QBC$CLEAR
     20482**DCL-ENT 21018--CALL
QBC$CLOSE
     20478**DCL-ENT 21006--CALL
QBC$CNVBN
     20405**DCL-ENT 20820--CALL
PL6.E3A0      #001=QAT$TALLYHO File=QAT$TALLYHO.:E05TSI                          WED 07/30/97 04:38 Page:95
QBC$CNVBNX
     20406**DCL-ENT 20823--CALL
QBC$CNVBPX
     20407**DCL-ENT 20826--CALL
QBC$CNVNBT
     20404**DCL-ENT 20817--CALL
QBC$CNVPBT
     20409**DCL-ENT 20832--CALL
QBC$CNVPN
     20408**DCL-ENT 20829--CALL
QBD$DISPLAY
     20488**DCL-ENT 21036--CALL
QBE$DISABLE
     20484**DCL-ENT 21024--CALL
QBE$ENABLE
     20483**DCL-ENT 21021--CALL
QBG$GOTO
     20410**DCL-ENT 20929--CALL
QBG$GOTODP
     20411**DCL-ENT 20932--CALL
QBI$IFCLS
     20415**DCL-ENT 20915--CALL
QBI$IFCNDA
     20416**DCL-ENT 20918--CALL
QBI$IFCNDN
     20417**DCL-ENT 20921--CALL
QBI$IFRELA
     20412**DCL-ENT 20906--CALL
QBI$IFRELG
     20414**DCL-ENT 20912--CALL
QBI$IFRELN
     20413**DCL-ENT 20909--CALL
QBI$IF_INDICATOR
     20421**DCL-ENT 21042--CALL
QBI$INSPECT
     20463**DCL-ENT 20970--CALL
PL6.E3A0      #001=QAT$TALLYHO File=QAT$TALLYHO.:E05TSI                          WED 07/30/97 04:38 Page:96
QBJ$JAZ
     20449**DCL-ENT 20994--CALL
QBJ$JND
     20475**DCL-ENT 20997--CALL
QBL$LOAD
     20476**DCL-ENT 21000--CALL
QBM$MOVA
     20422**DCL-ENT 20835--CALL
QBM$MOVAE
     20432**DCL-ENT 20861--CALL
QBM$MOVAJ
     20436**DCL-ENT 20873--CALL
QBM$MOVB
     20425**DCL-ENT 20844--CALL
QBM$MOVBA
     20431**DCL-ENT 20858--CALL
QBM$MOVDE
     20435**DCL-ENT 20870--CALL
QBM$MOVG
     20437**DCL-ENT 20876--CALL
QBM$MOVN
     20423**DCL-ENT 20838--CALL
QBM$MOVNA
     20426**DCL-ENT 20847--CALL
QBM$MOVNE
     20433**DCL-ENT 20864--CALL
QBM$MOVNEA
     20434**DCL-ENT 20867--CALL
QBM$MOVP
     20424**DCL-ENT 20841--CALL
QBM$MOVPA
     20430**DCL-ENT 20855--CALL
QBO$OPEN
     20477**DCL-ENT 21003--CALL
QBP$PERFM
     20438**DCL-ENT 20935--CALL
PL6.E3A0      #001=QAT$TALLYHO File=QAT$TALLYHO.:E05TSI                          WED 07/30/97 04:38 Page:97
QBP$PERFMT
     20439**DCL-ENT 20938--CALL
QBR$READ_FORM
     20491**DCL-ENT 21048--CALL
QBR$READ_TRAN
     20489**DCL-ENT 21039--CALL
QBS$STOP_PAUSE
     20455**DCL-ENT 20950--CALL
QBS$STOP_RUN
     20454**DCL-ENT 20947--CALL
QBS$SUBSCRIPT
     20467**DCL-ENT 20978--CALL
QBV$PRESENT
     20485**DCL-ENT 21027--CALL
QBV$VERIFY
     20486**DCL-ENT 21030--CALL
QBW$WRITE_FORM
     20492**DCL-ENT 21051--CALL
QBW$WRITE_TRAN
     20490**DCL-ENT 21045--CALL
QBX$ADD
     20440**DCL-ENT 20879--CALL
QBX$ADDX
     20444**DCL-ENT 20891--CALL
QBX$DIV
     20443**DCL-ENT 20888--CALL
QBX$DIVX
     20447**DCL-ENT 20900--CALL
QBX$MULT
     20442**DCL-ENT 20885--CALL
QBX$MULTX
     20446**DCL-ENT 20897--CALL
QBX$ROUND
     20448**DCL-ENT 20903--CALL
QBX$SUB
     20441**DCL-ENT 20882--CALL
PL6.E3A0      #001=QAT$TALLYHO File=QAT$TALLYHO.:E05TSI                          WED 07/30/97 04:38 Page:98
QBX$SUBX
     20445**DCL-ENT 20894--CALL
QCE$ERROR
     20497**DCL-ENT 20666--CALL    20740--CALL    21284--CALL
QCE$ERROR_DBCONTROL
     20498**DCL-ENT   862--DCLINIT
QCE$ERROR_INT
     20499**DCL-ENT   904--DCLINIT
QCE$ERROR_INTERNAL
     20500**DCL-ENT 21059--CALL
QCE$ERROR_M$INTERNAL
     20501**DCL-ENT 20679--CALL    20701--CALL    20718--CALL    21238--CALL    21249--CALL    21260--CALL
     21269--CALL
QCE$ERROR_TRAP
     20502**DCL-ENT 20713--ASSIGN
QCE$EXPERIENCE_M$XBREAK
     20503**DCL-ENT 20686--CALL    20784--CALL    20798--CALL    21075--CALL
QGB_PARAM.BBUF_
     12778**DCL     20743<<ASSIGN  20744<<ASSIGN
QGB_PARAM.DVE.DVBYTE.VFC
     12838**DCL     12839--REDEF
QGB_PARAM.DVE.EOMCHAR
     12850**DCL     12851--REDEF
QGB_PARAM.MSG$
     12832**DCL     12833--REDEF
QGB_PARAM.UHDR$
     12857**DCL     12858--REDEF
QI$ACTIVATION_STATUS
     10596**DCL     10602--REDEF
QI$CIP
      9437**DCL      9507--REDEF
QI$CIP.CA
      9442**DCL      9446--REDEF    9449--REDEF    9452--REDEF
QI$COBOL_DAD.PSEUDO_CIP
      9681**DCL      9706--REDEF
QI$COBOL_DAD.PSEUDO_CIP.ALPHANUMERIC
PL6.E3A0      #001=QAT$TALLYHO File=QAT$TALLYHO.:E05TSI                          WED 07/30/97 04:38 Page:99
      9683**DCL      9688--REDEF
QI$COBOL_DAD.PSEUDO_CIP.NUMERIC.CB
      9689**DCL      9692--REDEF    9695--REDEF
QI$COBOL_DAD.VARIABLE_LENGTH_ITEMS
      9717**DCL      9733--REDEF    9741--REDEF    9749--REDEF
QI$COBOL_DAD.VARIABLE_LENGTH_ITEMS.LEVEL_MULTIPLIERS
      9718**DCL      9728--REDEF    9731--REDEF
QI$COBOL_DAD.WORD0
      9645**DCL      9646--REDEF    9660--REDEF
QI$COBOL_DAD_P_BITS.P
      9785**DCL      9791--REDEF
QI$CONDITION_CONTROL_BLOCK.LIST_A@P
      9271**DCL      9272--REDEF
QI$CONDITION_CONTROL_BLOCK.WORD0_FLAGS
      9267**DCL      9270--REDEF
QI$CONDITION_LEGAL_BLOCK.ARRAY@P
      9304**DCL      9305--REDEF    9306--REDEF
QI$DAD.PSEUDO_CIP
      9584**DCL      9609--REDEF
QI$DAD.PSEUDO_CIP.ALPHANUMERIC
      9586**DCL      9591--REDEF
QI$DAD.PSEUDO_CIP.ALPHANUMERIC.LEN
      9590**DCL     20610>>ASSIGN
QI$DAD.PSEUDO_CIP.DATA@
      9608**DCL     20631>>ASSIGN
QI$DAD.PSEUDO_CIP.NUMERIC.CB
      9592**DCL      9595--REDEF    9598--REDEF
QI$DAD.WORD0
      9553**DCL      9554--REDEF
QI$ERROR_MESSAGE_LINE
     12945**DCL     12947--REDEF
QI$ERROR_STATUS
     12942**DCL     12944--REDEF
QI$FIELD_DAD.ELEMENTARY_ITEM.P
      9999**DCL     10006--REDEF
QI$FIELD_DAD.ONE_DIMENSIONAL_ITEM.P
PL6.E3A0      #001=QAT$TALLYHO File=QAT$TALLYHO.:E05TSI                          WED 07/30/97 04:38 Page:100
     10019**DCL     10026--REDEF
QI$FIELD_DAD.PSEUDO_CIP
      9926**DCL      9951--REDEF
QI$FIELD_DAD.PSEUDO_CIP.ALPHANUMERIC
      9928**DCL      9933--REDEF
QI$FIELD_DAD.PSEUDO_CIP.NUMERIC.CB
      9934**DCL      9937--REDEF    9940--REDEF
QI$FIELD_DAD.TWO_DIMENSIONAL_ITEM.P
     10039**DCL     10046--REDEF
QI$FIELD_DAD.VARIABLE_LENGTH_ITEMS
      9982**DCL      9998--REDEF   10016--REDEF   10034--REDEF
QI$FIELD_DAD.VARIABLE_LENGTH_ITEMS.LEVEL_MULTIPLIERS
      9983**DCL      9993--REDEF    9996--REDEF
QI$FIELD_DAD.WORD0
      9878**DCL      9879--REDEF
QI$FIELD_DAD.WORD0_FLAGS.IO_FLAGS
      9882**DCL      9887--REDEF
QI$FIELD_DAD_P.P
     10080**DCL     10087--REDEF
QI$FIELD_STATUS.INDICATORS
     10746**DCL     10778--REDEF
QI$FIELD_STATUS.INDICATORS.ENABLED_FLAGS
     10750**DCL     10755--REDEF
QI$FIELD_STATUS.INDICATORS.OPEN_FLAGS
     10762**DCL     10769--REDEF
QI$FIELD_STATUS.INDICATORS.STATE_FLAGS
     10756**DCL     10761--REDEF
QI$FILE.WORD0
     10202**DCL     10203--REDEF
QI$FILE_STATUS.INDICATORS
     11039**DCL     11071--REDEF
QI$FILE_STATUS.INDICATORS.ENABLED_FLAGS
     11043**DCL     11048--REDEF
QI$FILE_STATUS.INDICATORS.OPEN_FLAGS
     11055**DCL     11062--REDEF
QI$FILE_STATUS.INDICATORS.STATE_FLAGS
PL6.E3A0      #001=QAT$TALLYHO File=QAT$TALLYHO.:E05TSI                          WED 07/30/97 04:38 Page:101
     11049**DCL     11054--REDEF
QI$FORM_FILE.USE_PROCEDURE
     10302**DCL     10309--REDEF
QI$FORM_FILE.WORD0
     10256**DCL     10257--REDEF
QI$FORM_STATUS.INDICATORS
     11160**DCL     11192--REDEF
QI$FORM_STATUS.INDICATORS.ENABLED_FLAGS
     11164**DCL     11169--REDEF
QI$FORM_STATUS.INDICATORS.OPEN_FLAGS
     11176**DCL     11183--REDEF
QI$FORM_STATUS.INDICATORS.STATE_FLAGS
     11170**DCL     11175--REDEF
QI$FRAME.WORD0
     10417**DCL     10418--REDEF
QI$FRAME_STATUS.INDICATORS
     11389**DCL     11421--REDEF
QI$FRAME_STATUS.INDICATORS.ENABLED_FLAGS
     11393**DCL     11398--REDEF
QI$FRAME_STATUS.INDICATORS.OPEN_FLAGS
     11405**DCL     11412--REDEF
QI$FRAME_STATUS.INDICATORS.STATE_FLAGS
     11399**DCL     11404--REDEF
QI$GZ_FIELD
     18268**DCL     21288--ASSIGN  21305<<ASSIGN
QI$GZ_FIELD.DESCRIPTION.IO_FLAGS
     18271**DCL     18276--REDEF
QI$GZ_FIELD.DESCRIPTION.IO_FLAGS.IS_OUTPUT
     18272**DCL     21306<<ASSIGN
QI$GZ_FIELD.INDICATORS$
     18269**DCL     21307<<ASSIGN
QI$GZ_FIELD.STATUS.VISUAL_ATTRIBUTE
     18307**DCL     21308<<ASSIGN
QI$GZ_HEADER
     18219**DCL     21288--ASSIGN  21293<<ASSIGN  21300--ASSIGN
QI$GZ_HEADER.DCB#
PL6.E3A0      #001=QAT$TALLYHO File=QAT$TALLYHO.:E05TSI                          WED 07/30/97 04:38 Page:102
     18225**DCL     21296<<ASSIGN
QI$GZ_HEADER.FIELD_COUNT
     18227**DCL     21297<<ASSIGN
QI$GZ_HEADER.FRAME_DAD$
     18229**DCL     21298<<ASSIGN
QI$GZ_HEADER.IS_ACTIVE
     18220**DCL     21295<<ASSIGN
QI$IDENTIFIER
     12948**DCL     12950--REDEF
QI$INDICATORS
     10660**DCL     10690--REDEF
QI$INDICATORS.ENABLED_FLAGS
     10666**DCL     10671--REDEF
QI$INDICATORS.OPEN_FLAGS
     10678**DCL     10685--REDEF
QI$INDICATORS.STATE_FLAGS
     10672**DCL     10677--REDEF
QI$MAJOR_NODE.WORD0
     10116**DCL     10117--REDEF
QI$MAJOR_STATUS.INDICATORS
     10839**DCL     10871--REDEF
QI$MAJOR_STATUS.INDICATORS.ENABLED_FLAGS
     10843**DCL     10848--REDEF
QI$MAJOR_STATUS.INDICATORS.OPEN_FLAGS
     10855**DCL     10862--REDEF
QI$MAJOR_STATUS.INDICATORS.STATE_FLAGS
     10849**DCL     10854--REDEF
QI$MESSAGE_TYPE
     12939**DCL     12941--REDEF
QI$MINOR_NODE.WORD0
     10159**DCL     10160--REDEF
QI$MINOR_STATUS.INDICATORS
     10932**DCL     10964--REDEF
QI$MINOR_STATUS.INDICATORS.ENABLED_FLAGS
     10936**DCL     10941--REDEF
QI$MINOR_STATUS.INDICATORS.OPEN_FLAGS
PL6.E3A0      #001=QAT$TALLYHO File=QAT$TALLYHO.:E05TSI                          WED 07/30/97 04:38 Page:103
     10948**DCL     10955--REDEF
QI$MINOR_STATUS.INDICATORS.STATE_FLAGS
     10942**DCL     10947--REDEF
QI$OP_ACCEPT.DATANAME@P
      7347**DCL      7348--REDEF
QI$OP_CALL.EPTR$
      7519**DCL      7520--REDEF
QI$OP_CLEAR.IO_FLAGS
      7552**DCL      7555--REDEF
QI$OP_DISPLAY.FIELD_A@P
      7819**DCL      7820--REDEF
QI$OP_ENABLE.IO_FLAGS
      7906**DCL      7909--REDEF
QI$OP_IFCLS.ATTRIBUTE.TYPE
      7999**DCL      8004--REDEF
QI$OP_INSPECT.TALLYING_FOR_ITEM@P
      8233**DCL      8234--REDEF
QI$OP_INSPECT.TALLYING_INITIAL_ITEM@P
      8235**DCL      8236--REDEF
QI$OP_INSPECT.TALLYING_ITEM@P
      8231**DCL      8232--REDEF
QI$OP_OPEN.IO_FLAGS
      8793**DCL      8796--REDEF
QI$OP_PERFM.BINARY_ITERATION_COUNT@P
      8831**DCL      8832--REDEF
QI$OP_SEQUENCE.CODE
      7287**DCL     20770>>ASSIGN
QI$OP_SEQUENCE.OPERAND_A@P
      7289**DCL     20771--ASSIGN
QI$PSEUDO_CIP
      9332**DCL      9356--REDEF
QI$PSEUDO_CIP.ALPHANUMERIC
      9336**DCL      9341--REDEF
QI$PSEUDO_CIP.NUMERIC.CB
      9342**DCL      9345--REDEF    9348--REDEF
QI$TERMINAL_ATTRIBUTES
PL6.E3A0      #001=QAT$TALLYHO File=QAT$TALLYHO.:E05TSI                          WED 07/30/97 04:38 Page:104
     10553**DCL     10566--REDEF
QI$TRAN_FILE.WORD0
     10338**DCL     10339--REDEF
QI$TRAN_STATUS.INDICATORS
     11273**DCL     11305--REDEF
QI$TRAN_STATUS.INDICATORS.ENABLED_FLAGS
     11277**DCL     11282--REDEF
QI$TRAN_STATUS.INDICATORS.OPEN_FLAGS
     11289**DCL     11296--REDEF
QI$TRAN_STATUS.INDICATORS.STATE_FLAGS
     11283**DCL     11288--REDEF
QI$VARIABLE_IDENTIFIER.LENGTH
     12952**DCL     12953--IMP-SIZ
QI_1.ARGUMENTS_AND_OR_FREE_AUTO_A$$
     11495**DCL     20569<<ASSIGN
QI_1.BASE
     11481**DCL     11488--REDEF
QI_1.BASE.DATA$
     11482**DCL     20564<<ASSIGN  20631>>ASSIGN
QI_1.BASE.PROC$
     11484**DCL     20565<<ASSIGN  20591>>ASSIGN
QI_1.CURRENT.FILE$
     12372**DCL     12374--REDEF   12376--REDEF
QI_1.CURRENT.FILE_STATUS$
     12378**DCL     12380--REDEF   12382--REDEF
QI_1.CURRENT.FORM$
     12374**DCL     20761<<ASSIGN
QI_1.CURRENT.FRAME$
     12384**DCL     20762<<ASSIGN
QI_1.CURRENT.NODE$
     12391**DCL     20763<<ASSIGN
QI_1.CURR_INSTR$
     11491**DCL     20755<<ASSIGN  20769<<ASSIGN  21071>>ASSIGN
QI_1.DAD
     12176**DCL     12181--REDEF
QI_1.FILE_HEAD
PL6.E3A0      #001=QAT$TALLYHO File=QAT$TALLYHO.:E05TSI                          WED 07/30/97 04:38 Page:105
     12359**DCL     12366--REDEF
QI_1.GZ.AVAILABLE$
     12351**DCL     21288<<ASSIGN
QI_1.GZ.LAST_HEADER$
     12348**DCL     21287<<ASSIGN  21288>>ASSIGN
QI_1.HOUSEKEEPING.INITIAL_PAGEHALT_SETTING
     11518**DCL     21263<<ASSIGN
QI_1.HOUSEKEEPING.IS_BUFFER_ALLOCATED
     11511**DCL     20722>>IF      20726<<ASSIGN
QI_1.HOUSEKEEPING.IS_DBCONTROL_ESTABLISHED
     11505**DCL     20668>>IF      20672<<ASSIGN
QI_1.HOUSEKEEPING.IS_DEBUGGER_ASSOCIATING
     11515**DCL     20773>>IF      20780<<ASSIGN
QI_1.HOUSEKEEPING.IS_INT_ESTABLISHED
     11507**DCL     20690>>IF      20694<<ASSIGN
QI_1.HOUSEKEEPING.IS_MESSAGE_LINE_CREATED
     11513**DCL     20747>>IF      20751<<ASSIGN
QI_1.HOUSEKEEPING.IS_TRAP_ESTABLISHED
     11509**DCL     20705>>IF      20709<<ASSIGN
QI_1.INITIALIZATION_BLOCK$
     11493**DCL     20566<<ASSIGN
QI_1.INSTR$
     11489**DCL     20568<<ASSIGN  20652>>ASSIGN  20755>>ASSIGN  20769>>ASSIGN  20770>>ASSIGN  20771>>ASSIGN
     20782>>ASSIGN  20795>>ASSIGN  21072>>ASSIGN
QI_1.IS_ALL_LIT
     12182**DCL     12187--REDEF
QI_1.IS_FORM_VARIABLE
     12188**DCL     12193--REDEF
QI_1.IS_TEMP
     12194**DCL     12199--REDEF
QI_1.MESSAGE_LINE_DAD.PSEUDO_CIP
     12292**DCL     12317--REDEF
QI_1.MESSAGE_LINE_DAD.PSEUDO_CIP.ALPHANUMERIC
     12294**DCL     12299--REDEF
QI_1.MESSAGE_LINE_DAD.PSEUDO_CIP.NUMERIC.CB
     12300**DCL     12303--REDEF   12306--REDEF
PL6.E3A0      #001=QAT$TALLYHO File=QAT$TALLYHO.:E05TSI                          WED 07/30/97 04:38 Page:106
QI_1.MESSAGE_LINE_DAD.WORD0
     12261**DCL     12262--REDEF
QI_1.MESSAGE_LINE_GZ.HEADER$
     12338**DCL     21291<<ASSIGN  21293>>ASSIGN  21295>>ASSIGN  21296>>ASSIGN  21297>>ASSIGN  21298>>ASSIGN
     21300>>ASSIGN
QI_1.MESSAGE_LINE_GZ.START$
     12341**DCL     21300<<ASSIGN  21303>>ASSIGN  21305>>ASSIGN  21306>>ASSIGN  21307>>ASSIGN  21308>>ASSIGN
QI_1.MESSAGE_LINE_GZ.STOP$
     12344**DCL     21303<<ASSIGN
QI_1.OFFSET
     12200**DCL     12205--REDEF
QI_1.OP.CIP
     11561**DCL     12012--REDEF
QI_1.OP.CIP.AUX
     11927**DCL     11998--REDEF
QI_1.OP.CIP.AUX.CD
     11972**DCL     11975--REDEF   11979--REDEF   11982--REDEF
QI_1.OP.CIP.S
     11631**DCL     11702--REDEF
QI_1.OP.CIP.S.CD
     11676**DCL     11679--REDEF   11683--REDEF   11686--REDEF
QI_1.OP.CIP.T
     11779**DCL     11850--REDEF
QI_1.OP.CIP.T.CD
     11824**DCL     11827--REDEF   11831--REDEF   11834--REDEF
QI_1.OP.DATA
     12019**DCL     12023--REDEF
QI_1.OP.FILL_CHAR
     12143**DCL     12146--REDEF
QI_1.OP.INX
     12076**DCL     12080--REDEF   12081--REDEF   12085--REDEF
QI_1.OP.LEN
     12059**DCL     12063--REDEF   12064--REDEF   12068--REDEF   12069--REDEF   12073--REDEF
QI_1.OP.LEN.AUX
     12062**DCL     12963--IMP-SIZ
QI_1.OP.LEN.S
PL6.E3A0      #001=QAT$TALLYHO File=QAT$TALLYHO.:E05TSI                          WED 07/30/97 04:38 Page:107
     12060**DCL     12959--IMP-SIZ
QI_1.OP.LEN.T
     12061**DCL     12961--IMP-SIZ
QI_1.OP.PICTURE_STRING
     12129**DCL     12132--REDEF   12133--REDEF   12136--REDEF   12137--REDEF   12140--REDEF
QI_1.OP.ROUND
     12162**DCL     12163--REDEF   12164--REDEF
QI_1.OP.SRCH_VRFY_ELEMS
     12098**DCL     12101--REDEF
QI_1.OPENED_COUNT
     12367**DCL     12370--REDEF
QI_1.OP_CODE
     12224**DCL     20770<<ASSIGN  20790>>DOCASE  20804<<ASSIGN
QI_1.OTTER_SPACE
     12206**DCL     12211--REDEF
QI_1.PICTURE_STRING
     12212**DCL     12217--REDEF
QI_1.SOURCE$
     11532**DCL     20771<<ASSIGN
QI_1.SPECIAL_NAMES
     12395**DCL     12404--REDEF
QI_1.TYPE
     12218**DCL     12223--REDEF
QI_1.UNWIND$
     11497**DCL     20759<<REMEMBR
QI_1.VERIFY_BUFFER$
     11500**DCL     20591<<ASSIGN  20610>>ASSIGN  20631<<ASSIGN  20631>>ASSIGN
QI_1.VERIFY_BUFFER_SIZE
     11502**DCL     20610<<ASSIGN
QI_16_BIT_BINARY
     17408**DCL     17478--REDEF
QI_16_BIT_BINARY.CB
     17427**DCL     17430--REDEF   17434--REDEF   17437--REDEF
QI_31_DIGIT_SLS_DISPLAY
     17241**DCL     17311--REDEF
QI_31_DIGIT_SLS_DISPLAY.CD
PL6.E3A0      #001=QAT$TALLYHO File=QAT$TALLYHO.:E05TSI                          WED 07/30/97 04:38 Page:108
     17288**DCL     17291--REDEF   17295--REDEF   17298--REDEF
QI_31_DIGIT_ST_PACKED
     17743**DCL     17813--REDEF
QI_31_DIGIT_ST_PACKED.CP
     17776**DCL     17779--REDEF   17783--REDEF   17786--REDEF
QI_32_BIT_BINARY
     17575**DCL     17645--REDEF
QI_32_BIT_BINARY.CB
     17594**DCL     17597--REDEF   17601--REDEF   17604--REDEF
QI_4_CHAR_ALPHANUMERIC
     17073**DCL     17143--REDEF
QI_4_CHAR_ALPHANUMERIC.CA
     17078**DCL     17082--REDEF   17085--REDEF   17088--REDEF
QI_ACCUMULATOR_DAD.CIP
     18086**DCL     18157--REDEF
QI_ACCUMULATOR_DAD.CIP.CP
     18117**DCL     18120--REDEF   18124--REDEF   18127--REDEF
QI_ALR.CIP
     13038**DCL     13489--REDEF
QI_ALR.CIP.AUX
     13404**DCL     13475--REDEF
QI_ALR.CIP.AUX.CA
     13407**DCL     13411--REDEF   13414--REDEF   13417--REDEF
QI_ALR.CIP.S
     13108**DCL     13179--REDEF
QI_ALR.CIP.S.CA
     13111**DCL     13115--REDEF   13118--REDEF   13121--REDEF
QI_ALR.CIP.T
     13256**DCL     13327--REDEF
QI_ALR.CIP.T.CA
     13259**DCL     13263--REDEF   13266--REDEF   13269--REDEF
QI_ALR.DATA
     13496**DCL     13500--REDEF
QI_ALR.FILL_CHAR
     13620**DCL     13623--REDEF
QI_ALR.INX
PL6.E3A0      #001=QAT$TALLYHO File=QAT$TALLYHO.:E05TSI                          WED 07/30/97 04:38 Page:109
     13553**DCL     13557--REDEF   13558--REDEF   13562--REDEF
QI_ALR.LEN
     13536**DCL     13540--REDEF   13541--REDEF   13545--REDEF   13546--REDEF   13550--REDEF
QI_ALR.PICTURE_STRING
     13606**DCL     13609--REDEF   13610--REDEF   13613--REDEF   13614--REDEF   13617--REDEF
QI_ALR.ROUND
     13639**DCL     13640--REDEF   13641--REDEF
QI_ALR.SRCH_VRFY_ELEMS
     13575**DCL     13578--REDEF
QI_FPT_DBCONTROL
     18454**DCL     20673>>ASSIGN
QI_FPT_DBCONTROL.V_
     18458**DCL     18458--REDEF
QI_FPT_GDS
     18941**DCL     21276>>ASSIGN
QI_FPT_GDS_BUFFER
     19039**DCL     20732>>ASSIGN
QI_FPT_INT
     19292**DCL     20695>>ASSIGN
QI_FPT_INT.V_
     19296**DCL     19296--REDEF
QI_FPT_OPEN
     19461**DCL     21228>>ASSIGN
QI_FPT_PROMPT
     19519**DCL     21241>>ASSIGN
QI_FPT_TRAP
     19834**DCL     20710>>ASSIGN
QI_FPT_TRMCTL
     20121**DCL     21252>>ASSIGN
QI_MAT.CIP
     16377**DCL     16828--REDEF
QI_MAT.CIP.AUX
     16743**DCL     16814--REDEF
QI_MAT.CIP.AUX.CA
     16746**DCL     16750--REDEF   16753--REDEF   16756--REDEF
QI_MAT.CIP.S
PL6.E3A0      #001=QAT$TALLYHO File=QAT$TALLYHO.:E05TSI                          WED 07/30/97 04:38 Page:110
     16447**DCL     16518--REDEF
QI_MAT.CIP.S.CA
     16450**DCL     16454--REDEF   16457--REDEF   16460--REDEF
QI_MAT.CIP.T
     16595**DCL     16666--REDEF
QI_MAT.CIP.T.CA
     16598**DCL     16602--REDEF   16605--REDEF   16608--REDEF
QI_MAT.DATA
     16835**DCL     16839--REDEF
QI_MAT.DEC
     16903**DCL     16907--REDEF   16908--REDEF   16912--REDEF
QI_MAT.FILL_CHAR
     16959**DCL     16962--REDEF
QI_MAT.LEN
     16875**DCL     16879--REDEF   16880--REDEF   16884--REDEF   16885--REDEF   16889--REDEF
QI_MAT.PICTURE_STRING
     16945**DCL     16948--REDEF   16949--REDEF   16952--REDEF   16953--REDEF   16956--REDEF
QI_MAT.ROUND
     16978**DCL     16979--REDEF   16980--REDEF
QI_MAT.SRCH_VRFY_ELEMS
     16914**DCL     16917--REDEF
QI_OLDEST_COMPILER_VERSION
     20561**DCL     20664>>IF
QI_PICTURE_STRING
     17911**DCL     17981--REDEF
QI_PICTURE_STRING.CA
     17916**DCL     17920--REDEF   17923--REDEF   17926--REDEF
QI_SRCH_VRFY.CIP
     15708**DCL     16159--REDEF
QI_SRCH_VRFY.CIP.AUX
     16074**DCL     16145--REDEF
QI_SRCH_VRFY.CIP.AUX.CA
     16077**DCL     16081--REDEF   16084--REDEF   16087--REDEF
QI_SRCH_VRFY.CIP.S
     15778**DCL     15849--REDEF
QI_SRCH_VRFY.CIP.S.CA
PL6.E3A0      #001=QAT$TALLYHO File=QAT$TALLYHO.:E05TSI                          WED 07/30/97 04:38 Page:111
     15781**DCL     15785--REDEF   15788--REDEF   15791--REDEF
QI_SRCH_VRFY.CIP.T
     15926**DCL     15997--REDEF
QI_SRCH_VRFY.CIP.T.CA
     15929**DCL     15933--REDEF   15936--REDEF   15939--REDEF
QI_SRCH_VRFY.DATA
     16166**DCL     16170--REDEF
QI_SRCH_VRFY.DEC
     16234**DCL     16238--REDEF   16239--REDEF   16243--REDEF
QI_SRCH_VRFY.FILL_CHAR
     16290**DCL     16293--REDEF
QI_SRCH_VRFY.ROUND
     16309**DCL     16310--REDEF   16311--REDEF
QI_SRCH_VRFY.SRCH_RESULT
     16250**DCL     16253--REDEF   16254--REDEF   16257--REDEF   16258--REDEF   16261--REDEF
QI_SRCH_VRFY.SRCH_VRFY_ARGS
     16174**DCL     16178--REDEF   16179--REDEF   16183--REDEF   16184--REDEF   16188--REDEF
QI_SRCH_VRFY.SRCH_VRFY_ELEMS
     16245**DCL     16248--REDEF
QI_TYPE_BINARY_TARGET.CIP
     15035**DCL     15486--REDEF
QI_TYPE_BINARY_TARGET.CIP.AUX
     15401**DCL     15472--REDEF
QI_TYPE_BINARY_TARGET.CIP.AUX.CA
     15404**DCL     15408--REDEF   15411--REDEF   15414--REDEF
QI_TYPE_BINARY_TARGET.CIP.S
     15105**DCL     15176--REDEF
QI_TYPE_BINARY_TARGET.CIP.S.CA
     15108**DCL     15112--REDEF   15115--REDEF   15118--REDEF
QI_TYPE_BINARY_TARGET.CIP.T
     15253**DCL     15324--REDEF
QI_TYPE_BINARY_TARGET.CIP.T.CB
     15270**DCL     15273--REDEF   15277--REDEF   15280--REDEF
QI_TYPE_BINARY_TARGET.DATA
     15493**DCL     15497--REDEF
QI_TYPE_BINARY_TARGET.DEC
PL6.E3A0      #001=QAT$TALLYHO File=QAT$TALLYHO.:E05TSI                          WED 07/30/97 04:38 Page:112
     15561**DCL     15565--REDEF   15566--REDEF   15570--REDEF
QI_TYPE_BINARY_TARGET.LEN
     15533**DCL     15537--REDEF   15538--REDEF   15542--REDEF   15543--REDEF   15547--REDEF
QI_TYPE_BINARY_TARGET.PICTURE_STRING
     15603**DCL     15606--REDEF   15607--REDEF   15610--REDEF   15611--REDEF   15614--REDEF
QI_TYPE_BINARY_TARGET.ROUND
     15636**DCL     15637--REDEF   15638--REDEF
QI_TYPE_BINARY_TARGET.SIZE_ERROR
     15622**DCL     15623--REDEF
QI_TYPE_BINARY_TARGET.SRCH_VRFY_ELEMS
     15572**DCL     15575--REDEF
QI_TYPE_DISPLAY_SOURCE.CIP
     13703**DCL     14154--REDEF
QI_TYPE_DISPLAY_SOURCE.CIP.AUX
     14069**DCL     14140--REDEF
QI_TYPE_DISPLAY_SOURCE.CIP.AUX.CA
     14072**DCL     14076--REDEF   14079--REDEF   14082--REDEF
QI_TYPE_DISPLAY_SOURCE.CIP.S
     13773**DCL     13844--REDEF
QI_TYPE_DISPLAY_SOURCE.CIP.S.CD
     13818**DCL     13821--REDEF   13825--REDEF   13828--REDEF
QI_TYPE_DISPLAY_SOURCE.CIP.T
     13921**DCL     13992--REDEF
QI_TYPE_DISPLAY_SOURCE.CIP.T.CA
     13924**DCL     13928--REDEF   13931--REDEF   13934--REDEF
QI_TYPE_DISPLAY_SOURCE.DATA
     14161**DCL     14165--REDEF
QI_TYPE_DISPLAY_SOURCE.DEC
     14229**DCL     14233--REDEF   14234--REDEF   14238--REDEF
QI_TYPE_DISPLAY_SOURCE.LEN
     14201**DCL     14205--REDEF   14206--REDEF   14210--REDEF   14211--REDEF   14215--REDEF
QI_TYPE_DISPLAY_SOURCE.PICTURE_STRING
     14271**DCL     14274--REDEF   14275--REDEF   14278--REDEF   14279--REDEF   14282--REDEF
QI_TYPE_DISPLAY_SOURCE.ROUND
     14304**DCL     14305--REDEF   14306--REDEF
QI_TYPE_DISPLAY_SOURCE.SIZE_ERROR
PL6.E3A0      #001=QAT$TALLYHO File=QAT$TALLYHO.:E05TSI                          WED 07/30/97 04:38 Page:113
     14290**DCL     14291--REDEF
QI_TYPE_DISPLAY_SOURCE.SRCH_VRFY_ELEMS
     14240**DCL     14243--REDEF
QI_TYPE_DISPLAY_TARGET.CIP
     14369**DCL     14820--REDEF
QI_TYPE_DISPLAY_TARGET.CIP.AUX
     14735**DCL     14806--REDEF
QI_TYPE_DISPLAY_TARGET.CIP.AUX.CA
     14738**DCL     14742--REDEF   14745--REDEF   14748--REDEF
QI_TYPE_DISPLAY_TARGET.CIP.S
     14439**DCL     14510--REDEF
QI_TYPE_DISPLAY_TARGET.CIP.S.CA
     14442**DCL     14446--REDEF   14449--REDEF   14452--REDEF
QI_TYPE_DISPLAY_TARGET.CIP.T
     14587**DCL     14658--REDEF
QI_TYPE_DISPLAY_TARGET.CIP.T.CD
     14632**DCL     14635--REDEF   14639--REDEF   14642--REDEF
QI_TYPE_DISPLAY_TARGET.DATA
     14827**DCL     14831--REDEF
QI_TYPE_DISPLAY_TARGET.DEC
     14895**DCL     14899--REDEF   14900--REDEF   14904--REDEF
QI_TYPE_DISPLAY_TARGET.LEN
     14867**DCL     14871--REDEF   14872--REDEF   14876--REDEF   14877--REDEF   14881--REDEF
QI_TYPE_DISPLAY_TARGET.PICTURE_STRING
     14937**DCL     14940--REDEF   14941--REDEF   14944--REDEF   14945--REDEF   14948--REDEF
QI_TYPE_DISPLAY_TARGET.ROUND
     14970**DCL     14971--REDEF   14972--REDEF
QI_TYPE_DISPLAY_TARGET.SIZE_ERROR
     14956**DCL     14957--REDEF
QI_TYPE_DISPLAY_TARGET.SRCH_VRFY_ELEMS
     14906**DCL     14909--REDEF
QI_VLP_SEGMENT.BASE
     18995**DCL     18995--REDEF   21279<<ASSIGN
QI_VLP_SEGMENT.BASE$
     18995**DCL     21287>>ASSIGN  21291>>ASSIGN
QI_VLP_SEGMENT_BUFFER.BASE
PL6.E3A0      #001=QAT$TALLYHO File=QAT$TALLYHO.:E05TSI                          WED 07/30/97 04:38 Page:114
     19093**DCL     19093--REDEF   20735<<ASSIGN
QI_VLP_SEGMENT_BUFFER.BASE$
     19093**DCL     20743>>ASSIGN
QI_VLP_SEGMENT_BUFFER.PAGES
     19093**DCL     20744>>ASSIGN
QI_VLP_SEGMENT_LOAD.BASE
     19191**DCL     19191--REDEF
QI_VLP_TRAP_CONDITIONS
     19885**DCL     20712>>ASSIGN
QI_VLP_TRMCTL.BREAKCOUNT
     20185**DCL     20186--REDEF
QI_VLP_XBREAK.AUTO$
     20376**DCL     20650<<ASSIGN
QI_VLP_XBREAK.GOBREAK
     20378**DCL     20653<<ASSIGN  20800>>IF
QI_VLP_XBREAK.IC
     20375**DCL     20375--REDEF
QI_VLP_XBREAK.IC$
     20375**DCL     20652<<ASSIGN  20782<<ASSIGN  20795<<ASSIGN  21072<<ASSIGN
QI_VLP_XBREAK.OLDIC
     20375**DCL     20376--REDEF   20376--REDEF
QI_VLP_XBREAK.OLDIC$
     20376**DCL     21071<<ASSIGN
QI_VLP_XBREAK.REPLACED.INSTR
     20376**DCL     20804>>ASSIGN
QI_VLP_XBREAK.TRAP#
     20377**DCL     20796<<ASSIGN  21073<<ASSIGN
QI_VLP_XBREAK.TT
     20377**DCL     21067>>IF
TRANSFER_OCCURRED
     21067**LABEL   20906--CALLALT 20909--CALLALT 20912--CALLALT 20915--CALLALT 20918--CALLALT 20921--CALLALT
     20929--CALLALT 20932--CALLALT 20935--CALLALT 20938--CALLALT 20994--CALLALT 20997--CALLALT 21042--CALLALT
VLP@TRMCTL IN PROCEDURE CREATE_THE_MESSAGE_LINE
     21203**DCL     21255--ASSIGN
VLP@TRMCTL.BREAKCOUNT IN PROCEDURE CREATE_THE_MESSAGE_LINE
     21214**DCL     21215--REDEF
PL6.E3A0      #001=QAT$TALLYHO File=QAT$TALLYHO.:E05TSI                          WED 07/30/97 04:38 Page:115
VLP@TRMCTL.PAGEHALT IN PROCEDURE CREATE_THE_MESSAGE_LINE
     21211**DCL     21263>>ASSIGN  21264<<ASSIGN
VLP_PROMPT IN PROCEDURE CREATE_THE_MESSAGE_LINE
     21156**DCL     21244--ASSIGN
