VERSION E05

PL6.E3A0      #001=QBA$ABORT File=QBA$ABORT.:E05TSI                              WED 07/30/97 04:39 Page:1
        1        1        /*M* QBA$ABORT:  "ABORT dataname", "ABORT 'literal'", and just plain ABORT.  */
        2        2        /*T***********************************************************/
        3        3        /*T*                                                         */
        4        4        /*T* Copyright (c) Bull HN Information Systems Inc., 1997    */
        5        5        /*T*                                                         */
        6        6        /*T***********************************************************/
        7        7        /*X* DMC,PLM=4,IND=0,DCI=4,CSI=2,IAD=2,DTI=2,AND,ECI=0,DIN=2,STI=2 */
        8        8
        9        9        /*P*  NAME:         QBA$ABORT
       10       10              PURPOSE:      Optional write to the MESSAGE LINE, and ABORT.
       11       11              DESCRIPTION:  Execute an ABORT op-code, whose argument may include
       12       12                            a FILE or WORKING-STORAGE SECTION DAD.
       13       13        */
       14       14
       15       15        QBA$ABORT: PROC;
       16       16
       17       17        /*D*  NAME:         QBA$ABORT
       18       18              CALL:         CALL QBA$ABORT;
       19       19              PARAMETERS:   None.
       20       20              INTERFACE:    Called by QAT$TALLYHO when an ABORT
       21       21                            op-code is encountered;
       22       22                            calls QCM$MESS_whatever
       23       23                            to do any actual MESSAGE LINE I-O;
       24       24                            calls QCE$ERROR.
       25       25              ENVIRONMENT:  Ready to abandon ship.
       26       26              INPUT:        QI_1,
       27       27                            FPL rununit static data following the op-code.
       28       28              OUTPUT:       May write to, read from, and erase from the MESSAGE LINE.
       29       29              SCRATCH:      Not a whole lot.
       30       30              DESCRIPTION:  For ABORT statements with dataname or "literal" arguments,
       31       31                            QCM$MESS is called to write the data to the default
       32       32                            MESSAGE LINE (see commentary in QCM$MESS).  QCM$MESS_PAUSE
       33       33                            is called to read 1 byte from the MESSAGE LINE (hence
       34       34                            the "pause"), and finally QCM$MESS_ERASE is called to,
       35       35                            yes, erase the data after the pause.
       36       36                            Then halt and catch fire.
       37       37        */
PL6.E3A0      #001=QBA$ABORT File=QBA$ABORT.:E05TSI                              WED 07/30/97 04:39 Page:2
       38       38
       39       39          %INCLUDE LCP_6;
       40      230
       41      231          %INCLUDE QG_MACRO_M;
       42      368          %INCLUDE QI_EQUATES_E;
       43      727          %INCLUDE QI_PERR_C;
       44      895          %INCLUDE QI_MACROS_M;
       45     5953          %QI$ALL;
       46    17066
       47    17067    1     DCL INSTR$ PTR;
       48    17068
       49    17069    1     DCL QCE$ERROR ENTRY (4);
       50    17070    1     DCL QCM$MESS ENTRY (1);
       51    17071    1     DCL QCM$MESS_ERASE ENTRY (1);
       52    17072    1     DCL QCM$MESS_PAUSE ENTRY (1);
       53    17073    1     DCL QCS$SETUP_SOURCE ENTRY;
       54    17074
       55    17075          %SET LISTMAC = '1'B;
       56    17076
       57    17077          %INCLUDE QCM_MESS_M;
       58    17119          %QCM@MESS;
             17120            %BEGIN_MACRO;
             17121            %SET LISTDIR = '0'B;
             17134    1     DCL 1 QCM@MESS ALIGNED,
             17135    1           2 MESSAGE_LINE_GZ_HEADER$ PTR,
             17136                           /* Pointer to QI$GZ_HEADER for the
             17137                              MESSAGE LINE to use.  */
             17138    1           2 IS_MESSAGE_A_DAD BIT(1) ALIGNED,
             17139                           /* Set if MESSAGE$ points to a DAD,
             17140                              reset if MESSAGE$ points to text
             17141                              (in which case MESSAGE_LENGTH is valid).  */
             17142    1           2 MESSAGE_LENGTH UBIN,
             17143                           /* Length, in bytes, of the error message.  */
             17144    1           2 MESSAGE$ PTR,
             17145                           /* See IS_MESSAGE_A_DAD.  */
             17146    1           2 FRAME_INDEX UBIN,
             17147                           /* Index of the current frame.  */
PL6.E3A0      #001=QBA$ABORT File=QBA$ABORT.:E05TSI                              WED 07/30/97 04:39 Page:3
             17148    1           2 FIELD_INDEX UBIN,
             17149                           /* Index of the field to re-get (if any).  */
             17150    1           2 STATUS UBIN,
             17151                           /* Returned status code:  0 -> Immediate return to level 0;
             17152                                                    >0 -> Status is ok.  */
             17153    1           2 FIELD_ERROR_STOP_INDEX UBIN,
             17154                           /* Passed index for QCG$GET_FIELD processing.  */
             17155    1           2 VISUAL_ATTRIBUTE UBIN;
             17156                           /* Matches %EQUs for QI#xxx_VISUAL_ATTR
             17157                              (currently, blinking or non-blinking message line).  */
             17164            %ENDIF;
       59    17167
       60    17168          %SET LISTMAC = '0'B;
       61    17169        %EJECT;
PL6.E3A0      #001=QBA$ABORT File=QBA$ABORT.:E05TSI                              WED 07/30/97 04:39 Page:4
       62    17170    1       INSTR$ = QI_1.INSTR$;
       63    17171    1       QI_1.INSTR$ = ADDR ( INSTR$ -> QI$OP_ABORT.NEXT_CODE@P );
       64    17172
       65    17173    1       QI_1.A_REG = 0;
       66    17174
       67    17175    1       IF INSTR$ -> QI$OP_ABORT.OPERAND@P ~= 0
       68    17176    1       THEN
       69    17177    1   WE_GOTTA_STOP:
       70    17178    2         DO;
       71    17179
       72    17180    2           CALL QCS$SETUP_SOURCE;
       73    17181
       74    17182    2           QCM@MESS.MESSAGE_LINE_GZ_HEADER$ = QI_1.MESSAGE_LINE_GZ.HEADER$;
       75    17183    2           QCM@MESS.IS_MESSAGE_A_DAD = %YES;
       76    17184    2           QCM@MESS.MESSAGE$ = QI_1.DAD.S$;
       77    17185    2           QCM@MESS.VISUAL_ATTRIBUTE = %QI#OUTPUT_VISUAL_ATTRIBUTE;
       78    17186
       79    17187    2           CALL QCM$MESS ( QCM@MESS );
       80    17188
       81    17189    2           IF QCM@MESS.STATUS = %QI#USE_INVALID_RETURN
       82    17190    2           THEN
       83    17191    3             DO;
       84    17192                /*  Just like STOP_PAUSE, but ignore the ALTRETs.  */
       85    17193    3             END;
       86    17194
       87    17195    2           CALL QCM$MESS_PAUSE ( QCM@MESS );
       88    17196
       89    17197    2           IF QCM@MESS.STATUS = %QI#USE_INVALID_RETURN
       90    17198    2           THEN
       91    17199    3             DO;
       92    17200                /*  Just like STOP_PAUSE, but ignore the ALTRETs.  */
       93    17201    3             END;
       94    17202
       95    17203    2           CALL QCM$MESS_ERASE ( QCM@MESS );
       96    17204
       97    17205    2         END WE_GOTTA_STOP;
       98    17206
PL6.E3A0      #001=QBA$ABORT File=QBA$ABORT.:E05TSI                              WED 07/30/97 04:39 Page:5
       99    17207    1       CALL QCE$ERROR ( %E$ABORT_EXECUTED );
      100    17208
      101    17209    1   END QBA$ABORT;
      102    17210

PL6.E3A0      #001=QBA$ABORT File=QBA$ABORT.:E05TSI                              WED 07/30/97 04:39 Page:6
--  Include file information  --

   QCM_MESS_M.:E05TOU  is referenced.
   QI_MACROS_M.:E05TOU  is referenced.
   QI_PERR_C.:E05TOU  is referenced.
   QI_EQUATES_E.:E05TOU  is referenced.
   QG_MACRO_M.:E05TOU  is referenced.
   LCP_6.:E05TOU  cannot be made into a system file and is referenced.
   G_LCP6_E.:E05TOU  was found in the system file and is referenced.
   GT_LCP6_M.:E05TOU  was found in the system file and is referenced.
   KI_CP6.:E05TOU  was found in the system file and is referenced.
   GF_LCP6_M.:E05TOU  was found in the system file and is referenced.
   GM_LCP6_M.:E05TOU  was found in the system file and is referenced.
   GU_LCP6_M.:E05TOU  was found in the system file and is referenced.
   GJ_LCP6_M.:E05TOU  was found in the system file and is referenced.
   GH_LCP6_M.:E05TOU  was found in the system file and is referenced.
      No diagnostics issued in procedure QBA$ABORT.

   Procedure QBA$ABORT requires 100 words for executable code.
   Procedure QBA$ABORT requires 20 words of local(AUTO) storage.

    No errors detected in file QBA$ABORT.:E05TSI    .

PL6.E3A0      #001=QBA$ABORT File=QBA$ABORT.:E05TSI                              WED 07/30/97 04:39 Page:7

 Object Unit name= QBA$ABORT                                  File name= QBA$ABORT.:E05TOU
 UTS= JUL 30 '97 04:39:15.36 WED                              Compiler= PL-6/E31         Sev=      00
 SharedLib= :SHARED_LCP6_SYSTEM                               Alt SharedLib=


    ****  Control sections  ****

 Sect   Type Bound  Init  Size HexSiz  Section name
    0   Proc  even  none   100     64  QBA$ABORT
    1  RoData even  none     3      3  QBA$ABORT

    ****  Entry defs  ****

                              Check   Calling
                             calling  sequence
  Sect HexLoc Primary Altret sequence   type   Parms  Name
     0      0   yes            yes      Std        0  QBA$ABORT

  ****  Entry refs  ****

         Check        Calling
        calling       sequence
Altret sequence SRef   type   Args  Name
         yes           Std       0 QCS$SETUP_SOURCE
         yes           Std       1 QCM$MESS
         yes           Std       1 QCM$MESS_PAUSE
         yes           Std       4 QCE$ERROR
         yes           Std       1 QCM$MESS_ERASE
                       nStd      0 X6A_AUTO_0
                       nStd      0 X6A_ARET
PL6.E3A0      #001=QBA$ABORT File=QBA$ABORT.:E05TSI                              WED 07/30/97 04:39 Page:8

  ****  Data refs  ****

  Flags:  r = read only, s = secondary
Flgs Name                             Flgs Name                             Flgs Name
     QI_1                                  QI_4_CHAR_ALPHANUMERIC                QI_31_DIGIT_SLS_DISPLAY
     QI_16_BIT_BINARY                      QI_32_BIT_BINARY                      QI_31_DIGIT_ST_PACKED
     QI_PICTURE_STRING                r    G$ROS$
PL6.E3A0      #001=QBA$ABORT File=QBA$ABORT.:E05TSI                              WED 07/30/97 04:39 Page:9


        1        1        /*M* QBA$ABORT:  "ABORT dataname", "ABORT 'literal'", and just plain ABORT.  */
        2        2        /*T***********************************************************/
        3        3        /*T*                                                         */
        4        4        /*T* Copyright (c) Bull HN Information Systems Inc., 1997    */
        5        5        /*T*                                                         */
        6        6        /*T***********************************************************/
        7        7        /*X* DMC,PLM=4,IND=0,DCI=4,CSI=2,IAD=2,DTI=2,AND,ECI=0,DIN=2,STI=2 */
        8        8
        9        9        /*P*  NAME:         QBA$ABORT
       10       10              PURPOSE:      Optional write to the MESSAGE LINE, and ABORT.
       11       11              DESCRIPTION:  Execute an ABORT op-code, whose argument may include
       12       12                            a FILE or WORKING-STORAGE SECTION DAD.
       13       13        */
       14       14
       15       15        QBA$ABORT: PROC;

     15   0 000000  D380 0000 0000  xent QBA$ABORT       LNJ,B5   X6A_AUTO_0
          0 000003       0014 0000                       DC       20,0

       16       16
       17       17        /*D*  NAME:         QBA$ABORT
       18       18              CALL:         CALL QBA$ABORT;
       19       19              PARAMETERS:   None.
       20       20              INTERFACE:    Called by QAT$TALLYHO when an ABORT
       21       21                            op-code is encountered;
       22       22                            calls QCM$MESS_whatever
       23       23                            to do any actual MESSAGE LINE I-O;
       24       24                            calls QCE$ERROR.
       25       25              ENVIRONMENT:  Ready to abandon ship.
       26       26              INPUT:        QI_1,
       27       27                            FPL rununit static data following the op-code.
       28       28              OUTPUT:       May write to, read from, and erase from the MESSAGE LINE.
       29       29              SCRATCH:      Not a whole lot.
       30       30              DESCRIPTION:  For ABORT statements with dataname or "literal" arguments,
       31       31                            QCM$MESS is called to write the data to the default
       32       32                            MESSAGE LINE (see commentary in QCM$MESS).  QCM$MESS_PAUSE
PL6.E3A0      #001=QBA$ABORT File=QBA$ABORT.:E05TSI                              WED 07/30/97 04:39 Page:10
       33       33                            is called to read 1 byte from the MESSAGE LINE (hence
       34       34                            the "pause"), and finally QCM$MESS_ERASE is called to,
       35       35                            yes, erase the data after the pause.
       36       36                            Then halt and catch fire.
       37       37        */
       38       38
       39       39          %INCLUDE LCP_6;
       40      230
       41      231          %INCLUDE QG_MACRO_M;
       42      368          %INCLUDE QI_EQUATES_E;
       43      727          %INCLUDE QI_PERR_C;
       44      895          %INCLUDE QI_MACROS_M;
       45     5953          %QI$ALL;
       46    17066
       47    17067    1     DCL INSTR$ PTR;
       48    17068
       49    17069    1     DCL QCE$ERROR ENTRY (4);
       50    17070    1     DCL QCM$MESS ENTRY (1);
       51    17071    1     DCL QCM$MESS_ERASE ENTRY (1);
       52    17072    1     DCL QCM$MESS_PAUSE ENTRY (1);
       53    17073    1     DCL QCS$SETUP_SOURCE ENTRY;
       54    17074
       55    17075          %SET LISTMAC = '1'B;
       56    17076
       57    17077          %INCLUDE QCM_MESS_M;
       58    17119          %QCM@MESS;
             17120            %BEGIN_MACRO;
             17121            %SET LISTDIR = '0'B;
             17134    1     DCL 1 QCM@MESS ALIGNED,
             17135    1           2 MESSAGE_LINE_GZ_HEADER$ PTR,
             17136                           /* Pointer to QI$GZ_HEADER for the
             17137                              MESSAGE LINE to use.  */
             17138    1           2 IS_MESSAGE_A_DAD BIT(1) ALIGNED,
             17139                           /* Set if MESSAGE$ points to a DAD,
             17140                              reset if MESSAGE$ points to text
             17141                              (in which case MESSAGE_LENGTH is valid).  */
             17142    1           2 MESSAGE_LENGTH UBIN,
PL6.E3A0      #001=QBA$ABORT File=QBA$ABORT.:E05TSI                              WED 07/30/97 04:39 Page:11
             17143                           /* Length, in bytes, of the error message.  */
             17144    1           2 MESSAGE$ PTR,
             17145                           /* See IS_MESSAGE_A_DAD.  */
             17146    1           2 FRAME_INDEX UBIN,
             17147                           /* Index of the current frame.  */
             17148    1           2 FIELD_INDEX UBIN,
             17149                           /* Index of the field to re-get (if any).  */
             17150    1           2 STATUS UBIN,
             17151                           /* Returned status code:  0 -> Immediate return to level 0;
             17152                                                    >0 -> Status is ok.  */
             17153    1           2 FIELD_ERROR_STOP_INDEX UBIN,
             17154                           /* Passed index for QCG$GET_FIELD processing.  */
             17155    1           2 VISUAL_ATTRIBUTE UBIN;
             17156                           /* Matches %EQUs for QI#xxx_VISUAL_ATTR
             17157                              (currently, blinking or non-blinking message line).  */
             17164            %ENDIF;
       59    17167
       60    17168          %SET LISTMAC = '0'B;
       61    17169        %EJECT;
PL6.E3A0      #001=QBA$ABORT File=QBA$ABORT.:E05TSI                              WED 07/30/97 04:39 Page:12
       62    17170    1       INSTR$ = QI_1.INSTR$;

  17170   0 000005  EC80 0000 0006  xsym                 LDB,B6   QI_1+6
          0 000008  EFC7 0004                            STB,B6   INSTR$,AUTO

       63    17171    1       QI_1.INSTR$ = ADDR ( INSTR$ -> QI$OP_ABORT.NEXT_CODE@P );

  17171   0 00000A  DBC6 0002                            LAB,B5   2,B6
          0 00000C  DF80 0000 0006  xsym                 STB,B5   QI_1+6

       64    17172
       65    17173    1       QI_1.A_REG = 0;

  17173   0 00000F  8700 0000 0054  xsym                 CL       QI_1+84

       66    17174
       67    17175    1       IF INSTR$ -> QI$OP_ABORT.OPERAND@P ~= 0

  17175   0 000012  E846 0001                            LDR,R6   1,B6
          0 000014  6901 0043                            BEZ,R6   s:17207,PREL

       68    17176    1       THEN
       69    17177    1   WE_GOTTA_STOP:
       70    17178    2         DO;

  17178   0                              WE_GOTTA_STOP   null
       71    17179
       72    17180    2           CALL QCS$SETUP_SOURCE;

  17180   0 000016  CBF0 0000            WE_GOTTA_STOP   LAB,B4   0,IMO
          0 000018  E380 0000 0000  xent                 LNJ,B6   QCS$SETUP_SOURCE
          0 00001B       0001                            DC       s:17182,PREL

       73    17181
       74    17182    2           QCM@MESS.MESSAGE_LINE_GZ_HEADER$ = QI_1.MESSAGE_LINE_GZ.HEADER$;

  17182   0 00001C  EC80 0000 0064  xsym                 LDB,B6   QI_1+100
PL6.E3A0      #001=QBA$ABORT File=QBA$ABORT.:E05TSI                              WED 07/30/97 04:39 Page:13
          0 00001F  EFC7 0006                            STB,B6   QCM@MESS,AUTO

       75    17183    2           QCM@MESS.IS_MESSAGE_A_DAD = %YES;

  17183   0 000021  8947 0008                            LBT,'8000'X       QCM@MESS+2,AUTO
  17183   0 000023       8000

       76    17184    2           QCM@MESS.MESSAGE$ = QI_1.DAD.S$;

  17184   0 000024  DC80 0000 0032  xsym                 LDB,B5   QI_1+50
          0 000027  DFC7 000A                            STB,B5   QCM@MESS+4,AUTO

       77    17185    2           QCM@MESS.VISUAL_ATTRIBUTE = %QI#OUTPUT_VISUAL_ATTRIBUTE;

  17185   0 000029  6C05                                 LDV,R6   5
          0 00002A  EF47 0010                            STR,R6   QCM@MESS+10,AUTO

       78    17186
       79    17187    2           CALL QCM$MESS ( QCM@MESS );

  17187   0 00002C  CBC7 0006                            LAB,B4   QCM@MESS,AUTO
          0 00002E  CFC7 0012                            STB,B4   QCM@MESS+12,AUTO
          0 000030  BBC7 0012                            LAB,B3   QCM@MESS+12,AUTO
          0 000032  CBF0 0100                            LAB,B4   256,IMO
          0 000034  E380 0000 0000  xent                 LNJ,B6   QCM$MESS
          0 000037       0001                            DC       s:17189,PREL

       80    17188
       81    17189    2           IF QCM@MESS.STATUS = %QI#USE_INVALID_RETURN

  17189   0 000038  E847 000E                            LDR,R6   QCM@MESS+8,AUTO
          0 00003A  6981 0001                            BNEZ,R6  s:17195,PREL

       82    17190    2           THEN
       83    17191    3             DO;

       84    17192                /*  Just like STOP_PAUSE, but ignore the ALTRETs.  */
PL6.E3A0      #001=QBA$ABORT File=QBA$ABORT.:E05TSI                              WED 07/30/97 04:39 Page:14
       85    17193    3             END;

       86    17194
       87    17195    2           CALL QCM$MESS_PAUSE ( QCM@MESS );

  17195   0 00003C  EBC7 0006                            LAB,B6   QCM@MESS,AUTO
          0 00003E  EFC7 0012                            STB,B6   QCM@MESS+12,AUTO
          0 000040  BBC7 0012                            LAB,B3   QCM@MESS+12,AUTO
          0 000042  CBF0 0100                            LAB,B4   256,IMO
          0 000044  E380 0000 0000  xent                 LNJ,B6   QCM$MESS_PAUSE
          0 000047       0001                            DC       s:17197,PREL

       88    17196
       89    17197    2           IF QCM@MESS.STATUS = %QI#USE_INVALID_RETURN

  17197   0 000048  E847 000E                            LDR,R6   QCM@MESS+8,AUTO
          0 00004A  6981 0001                            BNEZ,R6  s:17203,PREL

       90    17198    2           THEN
       91    17199    3             DO;

       92    17200                /*  Just like STOP_PAUSE, but ignore the ALTRETs.  */
       93    17201    3             END;

       94    17202
       95    17203    2           CALL QCM$MESS_ERASE ( QCM@MESS );

  17203   0 00004C  EBC7 0006                            LAB,B6   QCM@MESS,AUTO
          0 00004E  EFC7 0012                            STB,B6   QCM@MESS+12,AUTO
          0 000050  BBC7 0012                            LAB,B3   QCM@MESS+12,AUTO
          0 000052  CBF0 0100                            LAB,B4   256,IMO
          0 000054  E380 0000 0000  xent                 LNJ,B6   QCM$MESS_ERASE
          0 000057       0001                            DC       s:17207,PREL

       96    17204
       97    17205    2         END WE_GOTTA_STOP;

PL6.E3A0      #001=QBA$ABORT File=QBA$ABORT.:E05TSI                              WED 07/30/97 04:39 Page:15
       98    17206
       99    17207    1       CALL QCE$ERROR ( %E$ABORT_EXECUTED );

  17207   0 000058  BB80 0000 0001  01                   LAB,B3   +1
          0 00005B  CBF0 0100                            LAB,B4   256,IMO
          0 00005D  E380 0000 0000  xent                 LNJ,B6   QCE$ERROR
          0 000060       0001                            DC       s:17209,PREL

      100    17208
      101    17209    1   END QBA$ABORT;

  17209   0 000061  C380 0000 0000  xent                 LNJ,B4   X6A_ARET
      102    17210

PL6.E3A0      #001=QBA$ABORT File=QBA$ABORT.:E05TSI                              WED 07/30/97 04:39 Page:16
--  Include file information  --

   QCM_MESS_M.:E05TOU  is referenced.
   QI_MACROS_M.:E05TOU  is referenced.
   QI_PERR_C.:E05TOU  is referenced.
   QI_EQUATES_E.:E05TOU  is referenced.
   QG_MACRO_M.:E05TOU  is referenced.
   LCP_6.:E05TOU  cannot be made into a system file and is referenced.
   G_LCP6_E.:E05TOU  was found in the system file and is referenced.
   GT_LCP6_M.:E05TOU  was found in the system file and is referenced.
   KI_CP6.:E05TOU  was found in the system file and is referenced.
   GF_LCP6_M.:E05TOU  was found in the system file and is referenced.
   GM_LCP6_M.:E05TOU  was found in the system file and is referenced.
   GU_LCP6_M.:E05TOU  was found in the system file and is referenced.
   GJ_LCP6_M.:E05TOU  was found in the system file and is referenced.
   GH_LCP6_M.:E05TOU  was found in the system file and is referenced.
      No diagnostics issued in procedure QBA$ABORT.
PL6.E3A0      #001=QBA$ABORT File=QBA$ABORT.:E05TSI                              WED 07/30/97 04:39 Page:17

 **** Variables and constants ****

  ****  Auto variables  ****

  ****  Scalars and arrays  ****
HexLoc.c.b A Datatyp(siz) R M Lvl/name                 HexLoc.c.b A Datatyp(siz) R M Lvl/name

     4-0-0/w PTR         r     1 INSTR$                     6-0-0/w STRC(176)   r     1 QCM@MESS

  ****  SYMREF variables  ****

  ****  Scalars and arrays  ****
HexLoc.c.b A Datatyp(siz) R M Lvl/name                 HexLoc.c.b A Datatyp(siz) R M Lvl/name

     0-0-0/d STRC(2576)  r     1 QI_1

  ****  BASED and DCB variables  ****

  ****  Scalars and arrays  ****
HexLoc.c.b A Datatyp(siz) R M Lvl/name                 HexLoc.c.b A Datatyp(siz) R M Lvl/name

     0-0-0/w STRC(48)    r     1 QI$OP_ABORT
     0-0-0/c ASTR(8)     r     1 QI$VARIABLE_IDENTIFIER


   Procedure QBA$ABORT requires 100 words for executable code.
   Procedure QBA$ABORT requires 20 words of local(AUTO) storage.

    No errors detected in file QBA$ABORT.:E05TSI    .
PL6.E3A0      #001=QBA$ABORT File=QBA$ABORT.:E05TSI                              WED 07/30/97 04:39 Page:18
          *** CROSS REFERENCE LISTING ***
**     DENOTES     IDENTIFIER DEFINITION
<<                 IDENTIFIER'S VALUE SET
>>                 IDENTIFIER'S VALUE USED
<>                 IDENTIFIER SET AND/OR USED
--                 IDENTIFIER REFERENCED
PL6.E3A0      #001=QBA$ABORT File=QBA$ABORT.:E05TSI                              WED 07/30/97 04:39 Page:19
          MINI XREF LISTING

INSTR$
     17067**DCL     17170<<ASSIGN  17171>>ASSIGN  17175>>IF
QCE$ERROR
     17069**DCL-ENT 17207--CALL
QCM$MESS
     17070**DCL-ENT 17187--CALL
QCM$MESS_ERASE
     17071**DCL-ENT 17203--CALL
QCM$MESS_PAUSE
     17072**DCL-ENT 17195--CALL
QCM@MESS
     17134**DCL     17187<>CALL    17195<>CALL    17203<>CALL
QCM@MESS.IS_MESSAGE_A_DAD
     17138**DCL     17183<<ASSIGN
QCM@MESS.MESSAGE$
     17144**DCL     17184<<ASSIGN
QCM@MESS.MESSAGE_LINE_GZ_HEADER$
     17135**DCL     17182<<ASSIGN
QCM@MESS.STATUS
     17150**DCL     17189>>IF      17197>>IF
QCM@MESS.VISUAL_ATTRIBUTE
     17155**DCL     17185<<ASSIGN
QCS$SETUP_SOURCE
     17073**DCL-ENT 17180--CALL
QGB_PARAM.DVE.DVBYTE.VFC
     11550**DCL     11551--REDEF
QGB_PARAM.DVE.EOMCHAR
     11562**DCL     11563--REDEF
QGB_PARAM.MSG$
     11544**DCL     11545--REDEF
QGB_PARAM.UHDR$
     11569**DCL     11570--REDEF
PL6.E3A0      #001=QBA$ABORT File=QBA$ABORT.:E05TSI                              WED 07/30/97 04:39 Page:20
QI$ACTIVATION_STATUS
      9308**DCL      9314--REDEF
QI$CIP
      8149**DCL      8219--REDEF
QI$CIP.CA
      8154**DCL      8158--REDEF    8161--REDEF    8164--REDEF
QI$COBOL_DAD.PSEUDO_CIP
      8393**DCL      8418--REDEF
QI$COBOL_DAD.PSEUDO_CIP.ALPHANUMERIC
      8395**DCL      8400--REDEF
QI$COBOL_DAD.PSEUDO_CIP.NUMERIC.CB
      8401**DCL      8404--REDEF    8407--REDEF
QI$COBOL_DAD.VARIABLE_LENGTH_ITEMS
      8429**DCL      8445--REDEF    8453--REDEF    8461--REDEF
QI$COBOL_DAD.VARIABLE_LENGTH_ITEMS.LEVEL_MULTIPLIERS
      8430**DCL      8440--REDEF    8443--REDEF
QI$COBOL_DAD.WORD0
      8357**DCL      8358--REDEF    8372--REDEF
QI$COBOL_DAD_P_BITS.P
      8497**DCL      8503--REDEF
QI$CONDITION_CONTROL_BLOCK.LIST_A@P
      7983**DCL      7984--REDEF
QI$CONDITION_CONTROL_BLOCK.WORD0_FLAGS
      7979**DCL      7982--REDEF
QI$CONDITION_LEGAL_BLOCK.ARRAY@P
      8016**DCL      8017--REDEF    8018--REDEF
QI$DAD.PSEUDO_CIP
      8296**DCL      8321--REDEF
QI$DAD.PSEUDO_CIP.ALPHANUMERIC
      8298**DCL      8303--REDEF
QI$DAD.PSEUDO_CIP.NUMERIC.CB
      8304**DCL      8307--REDEF    8310--REDEF
QI$DAD.WORD0
      8265**DCL      8266--REDEF
QI$ERROR_MESSAGE_LINE
     11657**DCL     11659--REDEF
PL6.E3A0      #001=QBA$ABORT File=QBA$ABORT.:E05TSI                              WED 07/30/97 04:39 Page:21
QI$ERROR_STATUS
     11654**DCL     11656--REDEF
QI$FIELD_DAD.ELEMENTARY_ITEM.P
      8711**DCL      8718--REDEF
QI$FIELD_DAD.ONE_DIMENSIONAL_ITEM.P
      8731**DCL      8738--REDEF
QI$FIELD_DAD.PSEUDO_CIP
      8638**DCL      8663--REDEF
QI$FIELD_DAD.PSEUDO_CIP.ALPHANUMERIC
      8640**DCL      8645--REDEF
QI$FIELD_DAD.PSEUDO_CIP.NUMERIC.CB
      8646**DCL      8649--REDEF    8652--REDEF
QI$FIELD_DAD.TWO_DIMENSIONAL_ITEM.P
      8751**DCL      8758--REDEF
QI$FIELD_DAD.VARIABLE_LENGTH_ITEMS
      8694**DCL      8710--REDEF    8728--REDEF    8746--REDEF
QI$FIELD_DAD.VARIABLE_LENGTH_ITEMS.LEVEL_MULTIPLIERS
      8695**DCL      8705--REDEF    8708--REDEF
QI$FIELD_DAD.WORD0
      8590**DCL      8591--REDEF
QI$FIELD_DAD.WORD0_FLAGS.IO_FLAGS
      8594**DCL      8599--REDEF
QI$FIELD_DAD_P.P
      8792**DCL      8799--REDEF
QI$FIELD_STATUS.INDICATORS
      9458**DCL      9490--REDEF
QI$FIELD_STATUS.INDICATORS.ENABLED_FLAGS
      9462**DCL      9467--REDEF
QI$FIELD_STATUS.INDICATORS.OPEN_FLAGS
      9474**DCL      9481--REDEF
QI$FIELD_STATUS.INDICATORS.STATE_FLAGS
      9468**DCL      9473--REDEF
QI$FILE.WORD0
      8914**DCL      8915--REDEF
QI$FILE_STATUS.INDICATORS
      9751**DCL      9783--REDEF
PL6.E3A0      #001=QBA$ABORT File=QBA$ABORT.:E05TSI                              WED 07/30/97 04:39 Page:22
QI$FILE_STATUS.INDICATORS.ENABLED_FLAGS
      9755**DCL      9760--REDEF
QI$FILE_STATUS.INDICATORS.OPEN_FLAGS
      9767**DCL      9774--REDEF
QI$FILE_STATUS.INDICATORS.STATE_FLAGS
      9761**DCL      9766--REDEF
QI$FORM_FILE.USE_PROCEDURE
      9014**DCL      9021--REDEF
QI$FORM_FILE.WORD0
      8968**DCL      8969--REDEF
QI$FORM_STATUS.INDICATORS
      9872**DCL      9904--REDEF
QI$FORM_STATUS.INDICATORS.ENABLED_FLAGS
      9876**DCL      9881--REDEF
QI$FORM_STATUS.INDICATORS.OPEN_FLAGS
      9888**DCL      9895--REDEF
QI$FORM_STATUS.INDICATORS.STATE_FLAGS
      9882**DCL      9887--REDEF
QI$FRAME.WORD0
      9129**DCL      9130--REDEF
QI$FRAME_STATUS.INDICATORS
     10101**DCL     10133--REDEF
QI$FRAME_STATUS.INDICATORS.ENABLED_FLAGS
     10105**DCL     10110--REDEF
QI$FRAME_STATUS.INDICATORS.OPEN_FLAGS
     10117**DCL     10124--REDEF
QI$FRAME_STATUS.INDICATORS.STATE_FLAGS
     10111**DCL     10116--REDEF
QI$GZ_FIELD.DESCRIPTION.IO_FLAGS
     16983**DCL     16988--REDEF
QI$IDENTIFIER
     11660**DCL     11662--REDEF
QI$INDICATORS
      9372**DCL      9402--REDEF
QI$INDICATORS.ENABLED_FLAGS
      9378**DCL      9383--REDEF
PL6.E3A0      #001=QBA$ABORT File=QBA$ABORT.:E05TSI                              WED 07/30/97 04:39 Page:23
QI$INDICATORS.OPEN_FLAGS
      9390**DCL      9397--REDEF
QI$INDICATORS.STATE_FLAGS
      9384**DCL      9389--REDEF
QI$MAJOR_NODE.WORD0
      8828**DCL      8829--REDEF
QI$MAJOR_STATUS.INDICATORS
      9551**DCL      9583--REDEF
QI$MAJOR_STATUS.INDICATORS.ENABLED_FLAGS
      9555**DCL      9560--REDEF
QI$MAJOR_STATUS.INDICATORS.OPEN_FLAGS
      9567**DCL      9574--REDEF
QI$MAJOR_STATUS.INDICATORS.STATE_FLAGS
      9561**DCL      9566--REDEF
QI$MESSAGE_TYPE
     11651**DCL     11653--REDEF
QI$MINOR_NODE.WORD0
      8871**DCL      8872--REDEF
QI$MINOR_STATUS.INDICATORS
      9644**DCL      9676--REDEF
QI$MINOR_STATUS.INDICATORS.ENABLED_FLAGS
      9648**DCL      9653--REDEF
QI$MINOR_STATUS.INDICATORS.OPEN_FLAGS
      9660**DCL      9667--REDEF
QI$MINOR_STATUS.INDICATORS.STATE_FLAGS
      9654**DCL      9659--REDEF
QI$OP_ABORT.NEXT_CODE@P
      6030**DCL     17171--ASSIGN
QI$OP_ABORT.OPERAND@P
      6029**DCL     17175>>IF
QI$OP_ACCEPT.DATANAME@P
      6059**DCL      6060--REDEF
QI$OP_CALL.EPTR$
      6231**DCL      6232--REDEF
QI$OP_CLEAR.IO_FLAGS
      6264**DCL      6267--REDEF
PL6.E3A0      #001=QBA$ABORT File=QBA$ABORT.:E05TSI                              WED 07/30/97 04:39 Page:24
QI$OP_DISPLAY.FIELD_A@P
      6531**DCL      6532--REDEF
QI$OP_ENABLE.IO_FLAGS
      6618**DCL      6621--REDEF
QI$OP_IFCLS.ATTRIBUTE.TYPE
      6711**DCL      6716--REDEF
QI$OP_INSPECT.TALLYING_FOR_ITEM@P
      6945**DCL      6946--REDEF
QI$OP_INSPECT.TALLYING_INITIAL_ITEM@P
      6947**DCL      6948--REDEF
QI$OP_INSPECT.TALLYING_ITEM@P
      6943**DCL      6944--REDEF
QI$OP_OPEN.IO_FLAGS
      7505**DCL      7508--REDEF
QI$OP_PERFM.BINARY_ITERATION_COUNT@P
      7543**DCL      7544--REDEF
QI$PSEUDO_CIP
      8044**DCL      8068--REDEF
QI$PSEUDO_CIP.ALPHANUMERIC
      8048**DCL      8053--REDEF
QI$PSEUDO_CIP.NUMERIC.CB
      8054**DCL      8057--REDEF    8060--REDEF
QI$TERMINAL_ATTRIBUTES
      9265**DCL      9278--REDEF
QI$TRAN_FILE.WORD0
      9050**DCL      9051--REDEF
QI$TRAN_STATUS.INDICATORS
      9985**DCL     10017--REDEF
QI$TRAN_STATUS.INDICATORS.ENABLED_FLAGS
      9989**DCL      9994--REDEF
QI$TRAN_STATUS.INDICATORS.OPEN_FLAGS
     10001**DCL     10008--REDEF
QI$TRAN_STATUS.INDICATORS.STATE_FLAGS
      9995**DCL     10000--REDEF
QI$VARIABLE_IDENTIFIER.LENGTH
     11664**DCL     11665--IMP-SIZ
PL6.E3A0      #001=QBA$ABORT File=QBA$ABORT.:E05TSI                              WED 07/30/97 04:39 Page:25
QI_1.A_REG
     10938**DCL     17173<<ASSIGN
QI_1.BASE
     10193**DCL     10200--REDEF
QI_1.CURRENT.FILE$
     11084**DCL     11086--REDEF   11088--REDEF
QI_1.CURRENT.FILE_STATUS$
     11090**DCL     11092--REDEF   11094--REDEF
QI_1.DAD
     10888**DCL     10893--REDEF
QI_1.DAD.S$
     10890**DCL     17184>>ASSIGN
QI_1.FILE_HEAD
     11071**DCL     11078--REDEF
QI_1.INSTR$
     10201**DCL     17170>>ASSIGN  17171<<ASSIGN
QI_1.IS_ALL_LIT
     10894**DCL     10899--REDEF
QI_1.IS_FORM_VARIABLE
     10900**DCL     10905--REDEF
QI_1.IS_TEMP
     10906**DCL     10911--REDEF
QI_1.MESSAGE_LINE_DAD.PSEUDO_CIP
     11004**DCL     11029--REDEF
QI_1.MESSAGE_LINE_DAD.PSEUDO_CIP.ALPHANUMERIC
     11006**DCL     11011--REDEF
QI_1.MESSAGE_LINE_DAD.PSEUDO_CIP.NUMERIC.CB
     11012**DCL     11015--REDEF   11018--REDEF
QI_1.MESSAGE_LINE_DAD.WORD0
     10973**DCL     10974--REDEF
QI_1.MESSAGE_LINE_GZ.HEADER$
     11050**DCL     17182>>ASSIGN
QI_1.OFFSET
     10912**DCL     10917--REDEF
QI_1.OP.CIP
     10273**DCL     10724--REDEF
PL6.E3A0      #001=QBA$ABORT File=QBA$ABORT.:E05TSI                              WED 07/30/97 04:39 Page:26
QI_1.OP.CIP.AUX
     10639**DCL     10710--REDEF
QI_1.OP.CIP.AUX.CD
     10684**DCL     10687--REDEF   10691--REDEF   10694--REDEF
QI_1.OP.CIP.S
     10343**DCL     10414--REDEF
QI_1.OP.CIP.S.CD
     10388**DCL     10391--REDEF   10395--REDEF   10398--REDEF
QI_1.OP.CIP.T
     10491**DCL     10562--REDEF
QI_1.OP.CIP.T.CD
     10536**DCL     10539--REDEF   10543--REDEF   10546--REDEF
QI_1.OP.DATA
     10731**DCL     10735--REDEF
QI_1.OP.FILL_CHAR
     10855**DCL     10858--REDEF
QI_1.OP.INX
     10788**DCL     10792--REDEF   10793--REDEF   10797--REDEF
QI_1.OP.LEN
     10771**DCL     10775--REDEF   10776--REDEF   10780--REDEF   10781--REDEF   10785--REDEF
QI_1.OP.LEN.AUX
     10774**DCL     11675--IMP-SIZ
QI_1.OP.LEN.S
     10772**DCL     11671--IMP-SIZ
QI_1.OP.LEN.T
     10773**DCL     11673--IMP-SIZ
QI_1.OP.PICTURE_STRING
     10841**DCL     10844--REDEF   10845--REDEF   10848--REDEF   10849--REDEF   10852--REDEF
QI_1.OP.ROUND
     10874**DCL     10875--REDEF   10876--REDEF
QI_1.OP.SRCH_VRFY_ELEMS
     10810**DCL     10813--REDEF
QI_1.OPENED_COUNT
     11079**DCL     11082--REDEF
QI_1.OTTER_SPACE
     10918**DCL     10923--REDEF
PL6.E3A0      #001=QBA$ABORT File=QBA$ABORT.:E05TSI                              WED 07/30/97 04:39 Page:27
QI_1.PICTURE_STRING
     10924**DCL     10929--REDEF
QI_1.SPECIAL_NAMES
     11107**DCL     11116--REDEF
QI_1.TYPE
     10930**DCL     10935--REDEF
QI_16_BIT_BINARY
     16120**DCL     16190--REDEF
QI_16_BIT_BINARY.CB
     16139**DCL     16142--REDEF   16146--REDEF   16149--REDEF
QI_31_DIGIT_SLS_DISPLAY
     15953**DCL     16023--REDEF
QI_31_DIGIT_SLS_DISPLAY.CD
     16000**DCL     16003--REDEF   16007--REDEF   16010--REDEF
QI_31_DIGIT_ST_PACKED
     16455**DCL     16525--REDEF
QI_31_DIGIT_ST_PACKED.CP
     16488**DCL     16491--REDEF   16495--REDEF   16498--REDEF
QI_32_BIT_BINARY
     16287**DCL     16357--REDEF
QI_32_BIT_BINARY.CB
     16306**DCL     16309--REDEF   16313--REDEF   16316--REDEF
QI_4_CHAR_ALPHANUMERIC
     15785**DCL     15855--REDEF
QI_4_CHAR_ALPHANUMERIC.CA
     15790**DCL     15794--REDEF   15797--REDEF   15800--REDEF
QI_ACCUMULATOR_DAD.CIP
     16798**DCL     16869--REDEF
QI_ACCUMULATOR_DAD.CIP.CP
     16829**DCL     16832--REDEF   16836--REDEF   16839--REDEF
QI_ALR.CIP
     11750**DCL     12201--REDEF
QI_ALR.CIP.AUX
     12116**DCL     12187--REDEF
QI_ALR.CIP.AUX.CA
     12119**DCL     12123--REDEF   12126--REDEF   12129--REDEF
PL6.E3A0      #001=QBA$ABORT File=QBA$ABORT.:E05TSI                              WED 07/30/97 04:39 Page:28
QI_ALR.CIP.S
     11820**DCL     11891--REDEF
QI_ALR.CIP.S.CA
     11823**DCL     11827--REDEF   11830--REDEF   11833--REDEF
QI_ALR.CIP.T
     11968**DCL     12039--REDEF
QI_ALR.CIP.T.CA
     11971**DCL     11975--REDEF   11978--REDEF   11981--REDEF
QI_ALR.DATA
     12208**DCL     12212--REDEF
QI_ALR.FILL_CHAR
     12332**DCL     12335--REDEF
QI_ALR.INX
     12265**DCL     12269--REDEF   12270--REDEF   12274--REDEF
QI_ALR.LEN
     12248**DCL     12252--REDEF   12253--REDEF   12257--REDEF   12258--REDEF   12262--REDEF
QI_ALR.PICTURE_STRING
     12318**DCL     12321--REDEF   12322--REDEF   12325--REDEF   12326--REDEF   12329--REDEF
QI_ALR.ROUND
     12351**DCL     12352--REDEF   12353--REDEF
QI_ALR.SRCH_VRFY_ELEMS
     12287**DCL     12290--REDEF
QI_MAT.CIP
     15089**DCL     15540--REDEF
QI_MAT.CIP.AUX
     15455**DCL     15526--REDEF
QI_MAT.CIP.AUX.CA
     15458**DCL     15462--REDEF   15465--REDEF   15468--REDEF
QI_MAT.CIP.S
     15159**DCL     15230--REDEF
QI_MAT.CIP.S.CA
     15162**DCL     15166--REDEF   15169--REDEF   15172--REDEF
QI_MAT.CIP.T
     15307**DCL     15378--REDEF
QI_MAT.CIP.T.CA
     15310**DCL     15314--REDEF   15317--REDEF   15320--REDEF
PL6.E3A0      #001=QBA$ABORT File=QBA$ABORT.:E05TSI                              WED 07/30/97 04:39 Page:29
QI_MAT.DATA
     15547**DCL     15551--REDEF
QI_MAT.DEC
     15615**DCL     15619--REDEF   15620--REDEF   15624--REDEF
QI_MAT.FILL_CHAR
     15671**DCL     15674--REDEF
QI_MAT.LEN
     15587**DCL     15591--REDEF   15592--REDEF   15596--REDEF   15597--REDEF   15601--REDEF
QI_MAT.PICTURE_STRING
     15657**DCL     15660--REDEF   15661--REDEF   15664--REDEF   15665--REDEF   15668--REDEF
QI_MAT.ROUND
     15690**DCL     15691--REDEF   15692--REDEF
QI_MAT.SRCH_VRFY_ELEMS
     15626**DCL     15629--REDEF
QI_PICTURE_STRING
     16623**DCL     16693--REDEF
QI_PICTURE_STRING.CA
     16628**DCL     16632--REDEF   16635--REDEF   16638--REDEF
QI_SRCH_VRFY.CIP
     14420**DCL     14871--REDEF
QI_SRCH_VRFY.CIP.AUX
     14786**DCL     14857--REDEF
QI_SRCH_VRFY.CIP.AUX.CA
     14789**DCL     14793--REDEF   14796--REDEF   14799--REDEF
QI_SRCH_VRFY.CIP.S
     14490**DCL     14561--REDEF
QI_SRCH_VRFY.CIP.S.CA
     14493**DCL     14497--REDEF   14500--REDEF   14503--REDEF
QI_SRCH_VRFY.CIP.T
     14638**DCL     14709--REDEF
QI_SRCH_VRFY.CIP.T.CA
     14641**DCL     14645--REDEF   14648--REDEF   14651--REDEF
QI_SRCH_VRFY.DATA
     14878**DCL     14882--REDEF
QI_SRCH_VRFY.DEC
     14946**DCL     14950--REDEF   14951--REDEF   14955--REDEF
PL6.E3A0      #001=QBA$ABORT File=QBA$ABORT.:E05TSI                              WED 07/30/97 04:39 Page:30
QI_SRCH_VRFY.FILL_CHAR
     15002**DCL     15005--REDEF
QI_SRCH_VRFY.ROUND
     15021**DCL     15022--REDEF   15023--REDEF
QI_SRCH_VRFY.SRCH_RESULT
     14962**DCL     14965--REDEF   14966--REDEF   14969--REDEF   14970--REDEF   14973--REDEF
QI_SRCH_VRFY.SRCH_VRFY_ARGS
     14886**DCL     14890--REDEF   14891--REDEF   14895--REDEF   14896--REDEF   14900--REDEF
QI_SRCH_VRFY.SRCH_VRFY_ELEMS
     14957**DCL     14960--REDEF
QI_TYPE_BINARY_TARGET.CIP
     13747**DCL     14198--REDEF
QI_TYPE_BINARY_TARGET.CIP.AUX
     14113**DCL     14184--REDEF
QI_TYPE_BINARY_TARGET.CIP.AUX.CA
     14116**DCL     14120--REDEF   14123--REDEF   14126--REDEF
QI_TYPE_BINARY_TARGET.CIP.S
     13817**DCL     13888--REDEF
QI_TYPE_BINARY_TARGET.CIP.S.CA
     13820**DCL     13824--REDEF   13827--REDEF   13830--REDEF
QI_TYPE_BINARY_TARGET.CIP.T
     13965**DCL     14036--REDEF
QI_TYPE_BINARY_TARGET.CIP.T.CB
     13982**DCL     13985--REDEF   13989--REDEF   13992--REDEF
QI_TYPE_BINARY_TARGET.DATA
     14205**DCL     14209--REDEF
QI_TYPE_BINARY_TARGET.DEC
     14273**DCL     14277--REDEF   14278--REDEF   14282--REDEF
QI_TYPE_BINARY_TARGET.LEN
     14245**DCL     14249--REDEF   14250--REDEF   14254--REDEF   14255--REDEF   14259--REDEF
QI_TYPE_BINARY_TARGET.PICTURE_STRING
     14315**DCL     14318--REDEF   14319--REDEF   14322--REDEF   14323--REDEF   14326--REDEF
QI_TYPE_BINARY_TARGET.ROUND
     14348**DCL     14349--REDEF   14350--REDEF
QI_TYPE_BINARY_TARGET.SIZE_ERROR
     14334**DCL     14335--REDEF
PL6.E3A0      #001=QBA$ABORT File=QBA$ABORT.:E05TSI                              WED 07/30/97 04:39 Page:31
QI_TYPE_BINARY_TARGET.SRCH_VRFY_ELEMS
     14284**DCL     14287--REDEF
QI_TYPE_DISPLAY_SOURCE.CIP
     12415**DCL     12866--REDEF
QI_TYPE_DISPLAY_SOURCE.CIP.AUX
     12781**DCL     12852--REDEF
QI_TYPE_DISPLAY_SOURCE.CIP.AUX.CA
     12784**DCL     12788--REDEF   12791--REDEF   12794--REDEF
QI_TYPE_DISPLAY_SOURCE.CIP.S
     12485**DCL     12556--REDEF
QI_TYPE_DISPLAY_SOURCE.CIP.S.CD
     12530**DCL     12533--REDEF   12537--REDEF   12540--REDEF
QI_TYPE_DISPLAY_SOURCE.CIP.T
     12633**DCL     12704--REDEF
QI_TYPE_DISPLAY_SOURCE.CIP.T.CA
     12636**DCL     12640--REDEF   12643--REDEF   12646--REDEF
QI_TYPE_DISPLAY_SOURCE.DATA
     12873**DCL     12877--REDEF
QI_TYPE_DISPLAY_SOURCE.DEC
     12941**DCL     12945--REDEF   12946--REDEF   12950--REDEF
QI_TYPE_DISPLAY_SOURCE.LEN
     12913**DCL     12917--REDEF   12918--REDEF   12922--REDEF   12923--REDEF   12927--REDEF
QI_TYPE_DISPLAY_SOURCE.PICTURE_STRING
     12983**DCL     12986--REDEF   12987--REDEF   12990--REDEF   12991--REDEF   12994--REDEF
QI_TYPE_DISPLAY_SOURCE.ROUND
     13016**DCL     13017--REDEF   13018--REDEF
QI_TYPE_DISPLAY_SOURCE.SIZE_ERROR
     13002**DCL     13003--REDEF
QI_TYPE_DISPLAY_SOURCE.SRCH_VRFY_ELEMS
     12952**DCL     12955--REDEF
QI_TYPE_DISPLAY_TARGET.CIP
     13081**DCL     13532--REDEF
QI_TYPE_DISPLAY_TARGET.CIP.AUX
     13447**DCL     13518--REDEF
QI_TYPE_DISPLAY_TARGET.CIP.AUX.CA
     13450**DCL     13454--REDEF   13457--REDEF   13460--REDEF
PL6.E3A0      #001=QBA$ABORT File=QBA$ABORT.:E05TSI                              WED 07/30/97 04:39 Page:32
QI_TYPE_DISPLAY_TARGET.CIP.S
     13151**DCL     13222--REDEF
QI_TYPE_DISPLAY_TARGET.CIP.S.CA
     13154**DCL     13158--REDEF   13161--REDEF   13164--REDEF
QI_TYPE_DISPLAY_TARGET.CIP.T
     13299**DCL     13370--REDEF
QI_TYPE_DISPLAY_TARGET.CIP.T.CD
     13344**DCL     13347--REDEF   13351--REDEF   13354--REDEF
QI_TYPE_DISPLAY_TARGET.DATA
     13539**DCL     13543--REDEF
QI_TYPE_DISPLAY_TARGET.DEC
     13607**DCL     13611--REDEF   13612--REDEF   13616--REDEF
QI_TYPE_DISPLAY_TARGET.LEN
     13579**DCL     13583--REDEF   13584--REDEF   13588--REDEF   13589--REDEF   13593--REDEF
QI_TYPE_DISPLAY_TARGET.PICTURE_STRING
     13649**DCL     13652--REDEF   13653--REDEF   13656--REDEF   13657--REDEF   13660--REDEF
QI_TYPE_DISPLAY_TARGET.ROUND
     13682**DCL     13683--REDEF   13684--REDEF
QI_TYPE_DISPLAY_TARGET.SIZE_ERROR
     13668**DCL     13669--REDEF
QI_TYPE_DISPLAY_TARGET.SRCH_VRFY_ELEMS
     13618**DCL     13621--REDEF
