PL6.E3A0      #002=QBA$DEACTIVATE_FORM File=QBA$ACTIVATE.:E05TSI                 WED 07/30/97 04:44 Page:166
     1213        1        /*M* QBA$DEACTIVATE_FORM:  DEACTIVATE a FORM.  */
     1214        2        /*T***********************************************************/
     1215        3        /*T*                                                         */
     1216        4        /*T* Copyright (c) Bull HN Information Systems Inc., 1997    */
     1217        5        /*T*                                                         */
     1218        6        /*T***********************************************************/
     1219        7        /*X* DMC,PLM=4,IND=0,DCI=4,CSI=2,IAD=2,DTI=2,AND,ECI=0,DIN=2,STI=2 */
     1220        8
     1221        9        /*P*  NAME:         QBA$DEACTIVATE_FORM
     1222       10              PURPOSE:      Deactivate fields within a form.
     1223       11              DESCRIPTION:  Call M$SLCFLD and M$RLSFLD for a form
     1224       12                            identified by QI_1.CURRENT.whatevers.
     1225       13        */
     1226       14
     1227       15        QBA$DEACTIVATE_FORM: PROC ALTRET;
     1228       16
     1229       17        /*D*  NAME:         QBA$DEACTIVATE_FORM
     1230       18              CALL:         CALL QBA$DEACTIVATE_FORM [ALTRET (label)];
     1231       19              PARAMETERS:   None.
     1232       20              INTERFACE:    Called by QBA$DEACTIVATE for
     1233       21                            'DEACTIVATE FORM-NAME'-type statements;
     1234       22                            called by QBC$CLOSE for
     1235       23                            'CLOSE FORM-NAME'-type statments.
     1236       24              ENVIRONMENT:  Nothing unusual.
     1237       25              INPUT:        QI_1.CURRENT.stuff.
     1238       26              OUTPUT:       Mostly affects dynamic memory by deallocating
     1239       27                            it, if deemed necessary.
     1240       28              SCRATCH:      Various otter data.
     1241       29              DESCRIPTION:  Deallocation of dynamic memory occurs only off
     1242       30                            the end of the dynamic segment.  So, if this
     1243       31                            form contains the frame allocated at the end
     1244       32                            of the segment, we'll search backward (to
     1245       33                            lower addresses) in the segment to see how many
     1246       34                            other frames have been deactivated.  If enough
     1247       35                            are deactivated to total 1 page or more (but
     1248       36                            not the first page), M$FDS is called to free the
     1249       37                            excess.  This includes one QI$GZ_HEADER structure
PL6.E3A0      #002=QBA$DEACTIVATE_FORM File=QBA$ACTIVATE.:E05TSI                 WED 07/30/97 04:44 Page:167
     1250       38                            per frame, and one QI$GZ_FIELD structure for
     1251       39                            each field within a frame.
     1252       40                            M$RLSFLD is called for each field whether
     1253       41                            the memory is deallocated or not.
     1254       42        */
     1255       43
     1256       44          %INCLUDE LCP_6;
     1257      235          %FPT_FDS ( FPTN = FPT@FDS,
     1258      236                     STCLASS = AUTO );
     1259      258          %FPT_RLSFLD ( FPTN = FPT@RLSFLD,
     1260      259                        STCLASS = AUTO );
     1261      291          %FPT_SLCFLD ( FPTN = FPT@SLCFLD,
     1262      292                        STCLASS = AUTO );
     1263      324
     1264      325          %INCLUDE QG_MACRO_M;
     1265      462          %QGB_ENTRIES;
     1266      475          %INCLUDE QI_EQUATES_E;
     1267      834          %INCLUDE QI_PERR_C;
     1268     1002          %INCLUDE QI_MACROS_M;
     1269     6060          %QI$ALL;
     1270    17173          %QI_FPTS;
     1271    19218
     1272    19219    1     DCL FIELD_COUNT UBIN;
     1273    19220    1     DCL FRAME_INDEX UBIN;
     1274    19221    1     DCL FRAME_STATUS$ PTR;
     1275    19222    1     DCL GZ_FIELD$ PTR;
     1276    19223    1     DCL GZ_HEADER$ PTR;
     1277    19224    1     DCL ITS_A_DEACTIVATE_FORM BIT(1) UNAL;
     1278    19225    1     DCL MASTER_ALREADY_GOT_EM_FLAG BIT(1) UNAL;
     1279    19226    1     DCL TOTAL_GZ_SPACE_IN_PAGES UBIN;
     1280    19227
     1281    19228    1     DCL QCE$ERROR_INTERNAL ENTRY (4);
     1282    19229    1     DCL QCE$ERROR_M$INTERNAL ENTRY (4);
     1283    19230        %EJECT;
PL6.E3A0      #002=QBA$DEACTIVATE_FORM File=QBA$ACTIVATE.:E05TSI                 WED 07/30/97 04:44 Page:168
     1284    19231    1       ITS_A_DEACTIVATE_FORM = %YES;
     1285    19232    1       MASTER_ALREADY_GOT_EM_FLAG = %NO;
     1286    19233
     1287    19234    2       DO FRAME_INDEX = 0 TO QI_1.CURRENT.FORM$ -> QI$FORM_FILE.FRAME_COUNT - 1;
     1288    19235
     1289    19236              %PROC_ADDRESS ( THING@P =
             19236                  "QI_1.CURRENT.FORM$ -> QI$FORM_FILE.FRAME_LIST_A@P ( FRAME_INDEX )",
     1290    19237              CHECK_FOR_INDIRECTION = NO,
     1291    19238              RESULT$ = "QI_1.CURRENT.FRAME$" );
     1292    19275
     1293    19276              %DATA_ADDRESS ( THING@D = "QI_1.CURRENT.FRAME$ -> QI$FRAME.STATUS_AREA@D",
     1294    19277              CHECK_FOR_INDIRECTION = NO,
     1295    19278              RESULT$ = "QI_1.CURRENT.FRAME_STATUS$" );
     1296    19315
     1297    19316    2         IF QI_1.CURRENT.FRAME_STATUS$ -> QI$FRAME_STATUS.INDICATORS.IS_ACTIVE
     1298    19317    2         THEN
     1299    19318    2   DEACTIVATE_THAT_FRAME:
     1300    19319    3           DO;
     1301    19320
     1302    19321    3             CALL DEACTIVATE_FRAME
     1303    19322    3             WHENALTRETURN
     1304    19323    4               DO;
     1305    19324    4                 CALL QCE$ERROR_INTERNAL ( %E$INTERNAL_INTERPRETER_ERROR );
     1306    19325    4               END;
     1307    19326
     1308    19327    3           END DEACTIVATE_THAT_FRAME;
     1309    19328
     1310    19329    2       END;
     1311    19330
     1312    19331    1       CALL QGB$FLUSH ( , QGB_PARAM )
     1313    19332    1       WHENALTRETURN
     1314    19333    2         DO;
     1315    19334    2           CALL QCE$ERROR_M$INTERNAL ( %E$UNEXPECTED_ALTRET );
     1316    19335    2         END;
     1317    19336
     1318    19337    1       RETURN;
     1319    19338
PL6.E3A0      #002=QBA$DEACTIVATE_FORM File=QBA$ACTIVATE.:E05TSI                 WED 07/30/97 04:44 Page:169
     1320    19339        %EJECT;
PL6.E3A0      #002=QBA$DEACTIVATE_FORM File=QBA$ACTIVATE.:E05TSI                 WED 07/30/97 04:44 Page:170
     1321    19340    1   QBA$DEACTIVATE_FRAME: ENTRY ALTRET;
     1322    19341
     1323    19342        /*D*  NAME:         QBA$DEACTIVATE_FRAME
     1324    19343              CALL:         CALL QBA$DEACTIVATE_FRAME [ALTRET (label)];
     1325    19344              PARAMETERS:   None.
     1326    19345              INTERFACE:    Called by QBA$DEACTIVATE for
     1327    19346                            'DEACTIVATE FRAME-NAME'-type statements.
     1328    19347              ENVIRONMENT:  Nothing unusual.
     1329    19348              INPUT:        QI_1.CURRENT.stuff.
     1330    19349              OUTPUT:       Mostly affects dynamic memory by deallocating
     1331    19350                            it, if deemed necessary.
     1332    19351              SCRATCH:      Various otter data.
     1333    19352              DESCRIPTION:  See QBA$DEACTIVATE_FORM.
     1334    19353        */
     1335    19354
     1336    19355    1       ITS_A_DEACTIVATE_FORM = %NO;
     1337    19356    1       MASTER_ALREADY_GOT_EM_FLAG = %NO;
     1338    19357
     1339    19358    1       CALL DEACTIVATE_FRAME
     1340    19359    1       WHENALTRETURN
     1341    19360    2         DO;
     1342    19361    2           ALTRETURN;
     1343    19362    2         END;
     1344    19363
     1345    19364    1       CALL QGB$FLUSH ( , QGB_PARAM )
     1346    19365    1       WHENALTRETURN
     1347    19366    2         DO;
     1348    19367    2           CALL QCE$ERROR_M$INTERNAL ( %E$UNEXPECTED_ALTRET );
     1349    19368    2         END;
     1350    19369
     1351    19370    1       RETURN;
     1352    19371
     1353    19372        %EJECT;
PL6.E3A0      #002=QBA$DEACTIVATE_FORM File=QBA$ACTIVATE.:E05TSI                 WED 07/30/97 04:44 Page:171
     1354    19373    1   DEACTIVATE_FRAME: PROC ALTRET;
     1355    19374
     1356    19375        /*I*  NAME:         DEACTIVATE_FRAME
     1357    19376              PURPOSE:      RLSFLD all the fields in a frame.
     1358    19377              PARAMETERS:   None.
     1359    19378              DATA:         The usual global stuff.
     1360    19379              PURPOSE:      May deallocate dynamic memory for GZ$whatevers for
     1361    19380                            a frame.  (See *D* for QBA$DEACTIVATE_FORM).
     1362    19381                            M$RLSFLD is called for each field; M$SLCFLD may
     1363    19382                            be called without a key (SeLeCting all fields
     1364    19383                            on the screen) if we're deactivating an entire
     1365    19384                            form and it's the only one open.
     1366    19385        */
     1367    19386
     1368    19387    2       IF NOT QI_1.CURRENT.FRAME_STATUS$ -> QI$FRAME_STATUS.INDICATORS.IS_ACTIVE
     1369    19388    2       THEN
     1370    19389    3         DO;
     1371    19390    3           QI_1.ERROR_STATUS = %E$FRAME_ALREADY_DEACTIVATED;
     1372    19391    3           ALTRETURN;
     1373    19392    3         END;
     1374    19393
     1375    19394    2       GZ_HEADER$ = QI_1.CURRENT.FRAME_STATUS$ -> QI$FRAME_STATUS.GZ.HEADER$;
     1376    19395    2       GZ_FIELD$ = PINCRW ( GZ_HEADER$, SIZEW (QI$GZ_HEADER) );
     1377    19396
     1378    19397    2       IF NOT MASTER_ALREADY_GOT_EM_FLAG
     1379    19398    2       THEN
     1380    19399    2   RELEASE_ALL_THE_FIELDS:
     1381    19400    3         DO;
     1382    19401
     1383    19402    3           FPT@SLCFLD = QI_FPT_SLCFLD;
     1384    19403    3           VBASE ( FPT@SLCFLD.V_ ) = ADDR ( FPT@SLCFLD.V );
     1385    19404    3           FPT@SLCFLD.V.DCB# = QI_1.CURRENT.FORM$ -> QI$FORM_FILE.DCB#;
     1386    19405
     1387    19406                /*  If we're deactivating a form, and it's the only form
     1388    19407                    open, we can do a SELECT of all the fields at once.  */
     1389    19408    3           IF ITS_A_DEACTIVATE_FORM
     1390    19409    3             AND QI_1.OPENED_COUNT.FORM = 1
PL6.E3A0      #002=QBA$DEACTIVATE_FORM File=QBA$ACTIVATE.:E05TSI                 WED 07/30/97 04:44 Page:172
     1391    19410    3           THEN
     1392    19411    3   SELECT_ALL_OF_EM_AT_ONCE:
     1393    19412    4             DO;
     1394    19413
     1395    19414    4               MASTER_ALREADY_GOT_EM_FLAG = %YES;
     1396    19415
     1397    19416    4               CALL QGB$SLCFLD ( FPT@SLCFLD, QGB_PARAM )
     1398    19417    4               WHENALTRETURN
     1399    19418    5                 DO;
     1400    19419    5                   CALL QCE$ERROR_M$INTERNAL ( %E$UNEXPECTED_ALTRET );
     1401    19420    5                 END;
     1402    19421
     1403    19422    4             END SELECT_ALL_OF_EM_AT_ONCE;
     1404    19423    3           ELSE
     1405    19424    3   SELECT_ONE_OF_EM_AT_A_TIME:
     1406    19425    4             DO;
     1407    19426
     1408    19427    5               DO FIELD_COUNT = 1 TO GZ_HEADER$ -> QI$GZ_HEADER.FIELD_COUNT;
     1409    19428
     1410    19429    5                 FPT@SLCFLD.KEY_ = VECTOR ( GZ_FIELD$ -> QI$GZ_FIELD.DESCRIPTION.
             19429                          POSITION );
     1411    19430
     1412    19431    5                 CALL QGB$SLCFLD ( FPT@SLCFLD, QGB_PARAM )
     1413    19432    5                 WHENALTRETURN
     1414    19433    6                   DO;
     1415    19434    6                     CALL QCE$ERROR_M$INTERNAL ( %E$UNEXPECTED_ALTRET );
     1416    19435    6                   END;
     1417    19436
     1418    19437    5                 GZ_FIELD$ = PINCRW ( GZ_FIELD$, SIZEW (QI$GZ_FIELD) );
     1419    19438
     1420    19439    5               END;
     1421    19440
     1422    19441    4             END SELECT_ONE_OF_EM_AT_A_TIME;
     1423    19442
     1424    19443    3           FPT@RLSFLD = QI_FPT_RLSFLD;
     1425    19444    3           VBASE ( FPT@RLSFLD.V_ ) = ADDR ( FPT@RLSFLD.V );
     1426    19445    3           FPT@RLSFLD.V.DCB# = FPT@SLCFLD.V.DCB#;
PL6.E3A0      #002=QBA$DEACTIVATE_FORM File=QBA$ACTIVATE.:E05TSI                 WED 07/30/97 04:44 Page:173
     1427    19446
     1428    19447    3           CALL QGB$RLSFLD ( FPT@RLSFLD, QGB_PARAM )
     1429    19448    3           WHENALTRETURN
     1430    19449    4             DO;
     1431    19450    4               CALL QCE$ERROR_M$INTERNAL ( %E$UNEXPECTED_ALTRET );
     1432    19451    4             END;
     1433    19452
     1434    19453    3           QI_1.SCREEN_UPDATE_FLAGS.WAS_DEACTIVATED = %YES;
     1435    19454
     1436    19455    3         END RELEASE_ALL_THE_FIELDS;
     1437    19456
     1438    19457    2       GZ_HEADER$ -> QI$GZ_HEADER.IS_ACTIVE = %NO;
     1439    19458
     1440    19459    2       IF GZ_HEADER$ = QI_1.GZ.LAST_HEADER$
     1441    19460    2       THEN
     1442    19461    2   PRUNE_BACK_THE_SEGMENT_SOME:
     1443    19462    3         DO;
     1444    19463
     1445    19464    3   PRUNE_BACK_THE_SEGMENT_MORE:
     1446    19465    4           DO WHILE ( GZ_HEADER$ -> QI$GZ_HEADER.IS_ACTIVE = %NO );
     1447    19466
     1448    19467    4             QI_1.GZ.AVAILABLE$ = GZ_HEADER$;
     1449    19468    4             QI_1.GZ.LAST_HEADER$ = GZ_HEADER$ -> QI$GZ_HEADER.BACK_LINK$;
     1450    19469                  %DATA_ADDRESS ( THING@D =
             19469                      "GZ_HEADER$ -> QI$GZ_HEADER.FRAME_DAD$ -> QI$FRAME.STATUS_AREA@D",
     1451    19470                  CHECK_FOR_INDIRECTION = NO,
     1452    19471                  RESULT$ = FRAME_STATUS$ );
     1453    19508    4             FRAME_STATUS$ -> QI$FRAME_STATUS.GZ.HEADER$ = ADDR (NIL);
     1454    19509    4             GZ_HEADER$ = QI_1.GZ.LAST_HEADER$;
     1455    19510
     1456    19511    4           END PRUNE_BACK_THE_SEGMENT_MORE;
     1457    19512
     1458    19513    3           TOTAL_GZ_SPACE_IN_PAGES = ( ( QI_VLP_SEGMENT.PAGES * 256 )
     1459    19514    3             - POFFW ( QI_1.GZ.AVAILABLE$, QI_VLP_SEGMENT.BASE$ ) )
     1460    19515    3             / 256;
     1461    19516
     1462    19517    3           IF TOTAL_GZ_SPACE_IN_PAGES > 0
PL6.E3A0      #002=QBA$DEACTIVATE_FORM File=QBA$ACTIVATE.:E05TSI                 WED 07/30/97 04:44 Page:174
     1463    19518    3           THEN
     1464    19519    3   FDS_SOME_MEMORY:
     1465    19520    4             DO;
     1466    19521
     1467    19522    4               FPT@FDS = QI_FPT_FDS;
     1468    19523    4               VBASE ( FPT@FDS.V_ ) = ADDR ( FPT@FDS.V );
     1469    19524    4               FPT@FDS.V.PAGES = TOTAL_GZ_SPACE_IN_PAGES;
     1470    19525
     1471    19526    4               CALL M$FDS ( FPT@FDS )
     1472    19527    4               WHENALTRETURN
     1473    19528    5                 DO;
     1474    19529    5                   CALL QCE$ERROR_M$INTERNAL ( %E$UNEXPECTED_ALTRET );
     1475    19530    5                 END;
     1476    19531
     1477    19532    4             END FDS_SOME_MEMORY;
     1478    19533
     1479    19534    3         END PRUNE_BACK_THE_SEGMENT_SOME;
     1480    19535
     1481    19536    2       QI_1.CURRENT.FRAME_STATUS$ -> QI$FRAME_STATUS.INDICATORS.IS_ACTIVE = %NO;
     1482    19537    2       QI_1.CURRENT.FRAME_STATUS$ -> QI$FRAME_STATUS.CURRENT.USAGE.DEACTIVATED = %YES;
     1483    19538
     1484    19539    2       RETURN;
     1485    19540
     1486    19541    2   END DEACTIVATE_FRAME;
     1487    19542
     1488    19543    1   END QBA$DEACTIVATE_FORM;

PL6.E3A0      #002=QBA$DEACTIVATE_FORM File=QBA$ACTIVATE.:E05TSI                 WED 07/30/97 04:44 Page:175
--  Include file information  --

   QI_MACROS_M.:E05TOU  is referenced.
   QI_PERR_C.:E05TOU  is referenced.
   QI_EQUATES_E.:E05TOU  is referenced.
   QG_MACRO_M.:E05TOU  is referenced.
   LCP_6.:E05TOU  cannot be made into a system file and is referenced.
   G_LCP6_E.:E05TOU  was found in the system file and is referenced.
   GT_LCP6_M.:E05TOU  was found in the system file and is referenced.
   KI_CP6.:E05TOU  was found in the system file and is referenced.
   GF_LCP6_M.:E05TOU  was found in the system file and is referenced.
   GM_LCP6_M.:E05TOU  was found in the system file and is referenced.
   GU_LCP6_M.:E05TOU  was found in the system file and is referenced.
   GJ_LCP6_M.:E05TOU  was found in the system file and is referenced.
   GH_LCP6_M.:E05TOU  was found in the system file and is referenced.
      No diagnostics issued in procedure QBA$DEACTIVATE_FORM.

   Procedure QBA$DEACTIVATE_FORM requires 511 words for executable code.
   Procedure QBA$DEACTIVATE_FORM requires 66 words of local(AUTO) storage.

    No errors detected in file QBA$ACTIVATE.:E05TSI    .

PL6.E3A0      #002=QBA$DEACTIVATE_FORM File=QBA$ACTIVATE.:E05TSI                 WED 07/30/97 04:44 Page:176

 Object Unit name= QBA$DEACTIVATE_FORM                        File name= QBA$ACTIVATE.:E05TOU
 UTS= JUL 30 '97 04:44:12.72 WED                              Compiler= PL-6/E31         Sev=      00
 SharedLib= :SHARED_LCP6_SYSTEM                               Alt SharedLib=


    ****  Control sections  ****

 Sect   Type Bound  Init  Size HexSiz  Section name
    0   Proc  even  none   511    1FF  QBA$DEACTIVATE_FORM
    1  RoData even  none     7      7  QBA$DEACTIVATE_FORM

    ****  Entry defs  ****

                              Check   Calling
                             calling  sequence
  Sect HexLoc Primary Altret sequence   type   Parms  Name
     0      0   yes    yes     yes      Std        0  QBA$DEACTIVATE_FORM
     0     69          yes     yes      Std        0  QBA$DEACTIVATE_FRAME

  ****  Entry refs  ****

         Check        Calling
        calling       sequence
Altret sequence SRef   type   Args  Name
         yes           Std       4 QCE$ERROR_INTERNAL
         yes           Std       4 QCE$ERROR_M$INTERNAL
 yes     yes           Std       2 QGB$FLUSH
 yes     yes           Std       2 QGB$SLCFLD
 yes     yes           Std       2 QGB$RLSFLD
                       nStd      0 X6A_AUTO_0
                       nStd      0 X6A_ARET
                       nStd      0 X6A_AALT
PL6.E3A0      #002=QBA$DEACTIVATE_FORM File=QBA$ACTIVATE.:E05TSI                 WED 07/30/97 04:44 Page:177

  ****  Data refs  ****

  Flags:  r = read only, s = secondary
Flgs Name                             Flgs Name                             Flgs Name
     QI_1                                  QGB_PARAM                             QI_4_CHAR_ALPHANUMERIC
     QI_31_DIGIT_SLS_DISPLAY               QI_16_BIT_BINARY                      QI_32_BIT_BINARY
     QI_31_DIGIT_ST_PACKED                 QI_PICTURE_STRING                     QI_FPT_FDS
     QI_VLP_SEGMENT                        QI_FPT_RLSFLD                         QI_FPT_SLCFLD
r    G$ROS$
PL6.E3A0      #002=QBA$DEACTIVATE_FORM File=QBA$ACTIVATE.:E05TSI                 WED 07/30/97 04:44 Page:178


     1213        1        /*M* QBA$DEACTIVATE_FORM:  DEACTIVATE a FORM.  */
     1214        2        /*T***********************************************************/
     1215        3        /*T*                                                         */
     1216        4        /*T* Copyright (c) Bull HN Information Systems Inc., 1997    */
     1217        5        /*T*                                                         */
     1218        6        /*T***********************************************************/
     1219        7        /*X* DMC,PLM=4,IND=0,DCI=4,CSI=2,IAD=2,DTI=2,AND,ECI=0,DIN=2,STI=2 */
     1220        8
     1221        9        /*P*  NAME:         QBA$DEACTIVATE_FORM
     1222       10              PURPOSE:      Deactivate fields within a form.
     1223       11              DESCRIPTION:  Call M$SLCFLD and M$RLSFLD for a form
     1224       12                            identified by QI_1.CURRENT.whatevers.
     1225       13        */
     1226       14
     1227       15        QBA$DEACTIVATE_FORM: PROC ALTRET;

     15   0 000000  D380 0000 0000  xent QBA$DEACTIVATE_*LNJ,B5   X6A_AUTO_0
          0 000003       0042 0000                       DC       66,0

     1228       16
     1229       17        /*D*  NAME:         QBA$DEACTIVATE_FORM
     1230       18              CALL:         CALL QBA$DEACTIVATE_FORM [ALTRET (label)];
     1231       19              PARAMETERS:   None.
     1232       20              INTERFACE:    Called by QBA$DEACTIVATE for
     1233       21                            'DEACTIVATE FORM-NAME'-type statements;
     1234       22                            called by QBC$CLOSE for
     1235       23                            'CLOSE FORM-NAME'-type statments.
     1236       24              ENVIRONMENT:  Nothing unusual.
     1237       25              INPUT:        QI_1.CURRENT.stuff.
     1238       26              OUTPUT:       Mostly affects dynamic memory by deallocating
     1239       27                            it, if deemed necessary.
     1240       28              SCRATCH:      Various otter data.
     1241       29              DESCRIPTION:  Deallocation of dynamic memory occurs only off
     1242       30                            the end of the dynamic segment.  So, if this
     1243       31                            form contains the frame allocated at the end
     1244       32                            of the segment, we'll search backward (to
PL6.E3A0      #002=QBA$DEACTIVATE_FORM File=QBA$ACTIVATE.:E05TSI                 WED 07/30/97 04:44 Page:179
     1245       33                            lower addresses) in the segment to see how many
     1246       34                            other frames have been deactivated.  If enough
     1247       35                            are deactivated to total 1 page or more (but
     1248       36                            not the first page), M$FDS is called to free the
     1249       37                            excess.  This includes one QI$GZ_HEADER structure
     1250       38                            per frame, and one QI$GZ_FIELD structure for
     1251       39                            each field within a frame.
     1252       40                            M$RLSFLD is called for each field whether
     1253       41                            the memory is deallocated or not.
     1254       42        */
     1255       43
     1256       44          %INCLUDE LCP_6;
     1257      235          %FPT_FDS ( FPTN = FPT@FDS,
     1258      236                     STCLASS = AUTO );
     1259      258          %FPT_RLSFLD ( FPTN = FPT@RLSFLD,
     1260      259                        STCLASS = AUTO );
     1261      291          %FPT_SLCFLD ( FPTN = FPT@SLCFLD,
     1262      292                        STCLASS = AUTO );
     1263      324
     1264      325          %INCLUDE QG_MACRO_M;
     1265      462          %QGB_ENTRIES;
     1266      475          %INCLUDE QI_EQUATES_E;
     1267      834          %INCLUDE QI_PERR_C;
     1268     1002          %INCLUDE QI_MACROS_M;
     1269     6060          %QI$ALL;
     1270    17173          %QI_FPTS;
     1271    19218
     1272    19219    1     DCL FIELD_COUNT UBIN;
     1273    19220    1     DCL FRAME_INDEX UBIN;
     1274    19221    1     DCL FRAME_STATUS$ PTR;
     1275    19222    1     DCL GZ_FIELD$ PTR;
     1276    19223    1     DCL GZ_HEADER$ PTR;
     1277    19224    1     DCL ITS_A_DEACTIVATE_FORM BIT(1) UNAL;
     1278    19225    1     DCL MASTER_ALREADY_GOT_EM_FLAG BIT(1) UNAL;
     1279    19226    1     DCL TOTAL_GZ_SPACE_IN_PAGES UBIN;
     1280    19227
     1281    19228    1     DCL QCE$ERROR_INTERNAL ENTRY (4);
PL6.E3A0      #002=QBA$DEACTIVATE_FORM File=QBA$ACTIVATE.:E05TSI                 WED 07/30/97 04:44 Page:180
     1282    19229    1     DCL QCE$ERROR_M$INTERNAL ENTRY (4);
     1283    19230        %EJECT;
PL6.E3A0      #002=QBA$DEACTIVATE_FORM File=QBA$ACTIVATE.:E05TSI                 WED 07/30/97 04:44 Page:181
     1284    19231    1       ITS_A_DEACTIVATE_FORM = %YES;

  19231   0 000005  8947 0024                            LBT,'8000'X       ITS_A_DEACTIVATE_FORM,AUTO
  19231   0 000007       8000

     1285    19232    1       MASTER_ALREADY_GOT_EM_FLAG = %NO;

  19232   0 000008  8747 0025                            CL       MASTER_ALREADY_GOT_EM_FLAG,AUTO

     1286    19233
     1287    19234    2       DO FRAME_INDEX = 0 TO QI_1.CURRENT.FORM$ -> QI$FORM_FILE.FRAME_COUNT - 1;

  19234   0 00000A  8747 001D                            CL       FRAME_INDEX,AUTO
          0 00000C  0F81 0034                            B        s:19329+2,PREL

     1288    19235
     1289    19236              %PROC_ADDRESS ( THING@P =
             19236                  "QI_1.CURRENT.FORM$ -> QI$FORM_FILE.FRAME_LIST_A@P ( FRAME_INDEX )",
     1290    19237              CHECK_FOR_INDIRECTION = NO,
     1291    19238              RESULT$ = "QI_1.CURRENT.FRAME$" );

  19256   0 00000E  EC80 0000 0076  xsym                 LDB,B6   QI_1+118
          0 000011  B847 001D                            LDR,R3   FRAME_INDEX,AUTO
          0 000013  3E0B                                 ADV,R3   11
          0 000014  A836                                 LDR,R2   ,B6,R3
          0 000015  F852                                 LDR,R7   R2
          0 000016  6C00                                 LDV,R6   0
          0 000017  8400 0000 0002  xsym                 AID      QI_1+2
          0 00001A  8D00 0000 007A  xsym                 SDI      QI_1+122

     1292    19275
     1293    19276              %DATA_ADDRESS ( THING@D = "QI_1.CURRENT.FRAME$ -> QI$FRAME.STATUS_AREA@D",
     1294    19277              CHECK_FOR_INDIRECTION = NO,
     1295    19278              RESULT$ = "QI_1.CURRENT.FRAME_STATUS$" );

  19296   0 00001D  DC80 0000 007A  xsym                 LDB,B5   QI_1+122
          0 000020  9845 0006                            LDR,R1   6,B5
PL6.E3A0      #002=QBA$DEACTIVATE_FORM File=QBA$ACTIVATE.:E05TSI                 WED 07/30/97 04:44 Page:182
          0 000022  F851                                 LDR,R7   R1
          0 000023  6C00                                 LDV,R6   0
          0 000024  8400 0000 0000  xsym                 AID      QI_1
          0 000027  8D00 0000 007C  xsym                 SDI      QI_1+124

     1296    19315
     1297    19316    2         IF QI_1.CURRENT.FRAME_STATUS$ -> QI$FRAME_STATUS.INDICATORS.IS_ACTIVE

  19316   0 00002A  CC80 0000 007C  xsym                 LDB,B4   QI_1+124
          0 00002D  89C4 000C                            CMZ      12,B4
          0 00002F  0881 000F                            BAGE     s:19329,PREL

     1298    19317    2         THEN
     1299    19318    2   DEACTIVATE_THAT_FRAME:
     1300    19319    3           DO;

  19319   0                              DEACTIVATE_THAT*null
     1301    19320
     1302    19321    3             CALL DEACTIVATE_FRAME

  19321   0 000031  E3C0 0068            DEACTIVATE_THAT*LNJ,B6   s:0,PREL
          0 000033       0003                            DC       s:19324,PREL
          0 000034  0F81 000A                            B        s:19329,PREL

     1303    19322    3             WHENALTRETURN
     1304    19323    4               DO;

     1305    19324    4                 CALL QCE$ERROR_INTERNAL ( %E$INTERNAL_INTERPRETER_ERROR );

  19324   0 000036  BB80 0000 0001  01                   LAB,B3   +1
          0 000039  CBF0 0100                            LAB,B4   256,IMO
          0 00003B  E380 0000 0000  xent                 LNJ,B6   QCE$ERROR_INTERNAL
          0 00003E       0001                            DC       s:19329,PREL

     1306    19325    4               END;

     1307    19326
PL6.E3A0      #002=QBA$DEACTIVATE_FORM File=QBA$ACTIVATE.:E05TSI                 WED 07/30/97 04:44 Page:183
     1308    19327    3           END DEACTIVATE_THAT_FRAME;

     1309    19328
     1310    19329    2       END;

  19329   0 00003F  8AC7 001D                            INC      FRAME_INDEX,AUTO
          0 000041  EC80 0000 0076  xsym                 LDB,B6   QI_1+118
          0 000044  E847 001D                            LDR,R6   FRAME_INDEX,AUTO
          0 000046  E946 0001                            CMR,R6   1,B6
          0 000048  0246                                 BL       s:19256,SPREL

     1311    19330
     1312    19331    1       CALL QGB$FLUSH ( , QGB_PARAM )

  19331   0 000049  DB80 0000 0000  xsym                 LAB,B5   QGB_PARAM
          0 00004C  DFC7 002C                            STB,B5   TOTAL_GZ_SPACE_IN_PAGES+6,AUTO
          0 00004E  CB80 0000 0000                       LAB,B4   0
          0 000051  CFC7 002A                            STB,B4   TOTAL_GZ_SPACE_IN_PAGES+4,AUTO
          0 000053  BBC7 002A                            LAB,B3   TOTAL_GZ_SPACE_IN_PAGES+4,AUTO
          0 000055  CBF0 0200                            LAB,B4   512,IMO
          0 000057  E380 0000 0000  xent                 LNJ,B6   QGB$FLUSH
          0 00005A       0003                            DC       s:19334,PREL
          0 00005B  0F81 000A                            B        s:19337,PREL

     1313    19332    1       WHENALTRETURN
     1314    19333    2         DO;

     1315    19334    2           CALL QCE$ERROR_M$INTERNAL ( %E$UNEXPECTED_ALTRET );

  19334   0 00005D  BB80 0000 0004  01                   LAB,B3   +4
          0 000060  CBF0 0100                            LAB,B4   256,IMO
          0 000062  E380 0000 0000  xent                 LNJ,B6   QCE$ERROR_M$INTERNAL
          0 000065       0001                            DC       s:19337,PREL

     1316    19335    2         END;

     1317    19336
PL6.E3A0      #002=QBA$DEACTIVATE_FORM File=QBA$ACTIVATE.:E05TSI                 WED 07/30/97 04:44 Page:184
     1318    19337    1       RETURN;

  19337   0 000066  C380 0000 0000  xent                 LNJ,B4   X6A_ARET

     1319    19338
     1320    19339        %EJECT;
PL6.E3A0      #002=QBA$DEACTIVATE_FORM File=QBA$ACTIVATE.:E05TSI                 WED 07/30/97 04:44 Page:185
     1321    19340    1   QBA$DEACTIVATE_FRAME: ENTRY ALTRET;

  19340   0 000069  D380 0000 0000  xent QBA$DEACTIVATE_*LNJ,B5   X6A_AUTO_0
          0 00006C       0042 0000                       DC       66,0

     1322    19341
     1323    19342        /*D*  NAME:         QBA$DEACTIVATE_FRAME
     1324    19343              CALL:         CALL QBA$DEACTIVATE_FRAME [ALTRET (label)];
     1325    19344              PARAMETERS:   None.
     1326    19345              INTERFACE:    Called by QBA$DEACTIVATE for
     1327    19346                            'DEACTIVATE FRAME-NAME'-type statements.
     1328    19347              ENVIRONMENT:  Nothing unusual.
     1329    19348              INPUT:        QI_1.CURRENT.stuff.
     1330    19349              OUTPUT:       Mostly affects dynamic memory by deallocating
     1331    19350                            it, if deemed necessary.
     1332    19351              SCRATCH:      Various otter data.
     1333    19352              DESCRIPTION:  See QBA$DEACTIVATE_FORM.
     1334    19353        */
     1335    19354
     1336    19355    1       ITS_A_DEACTIVATE_FORM = %NO;

  19355   0 00006E  8747 0024                            CL       ITS_A_DEACTIVATE_FORM,AUTO

     1337    19356    1       MASTER_ALREADY_GOT_EM_FLAG = %NO;

  19356   0 000070  8747 0025                            CL       MASTER_ALREADY_GOT_EM_FLAG,AUTO

     1338    19357
     1339    19358    1       CALL DEACTIVATE_FRAME

  19358   0 000072  E3C0 0027                            LNJ,B6   s:0,PREL
          0 000074       0003                            DC       s:19361,PREL
          0 000075  0F81 0004                            B        s:19364,PREL

     1340    19359    1       WHENALTRETURN
     1341    19360    2         DO;

PL6.E3A0      #002=QBA$DEACTIVATE_FORM File=QBA$ACTIVATE.:E05TSI                 WED 07/30/97 04:44 Page:186
     1342    19361    2           ALTRETURN;

  19361   0 000077  C380 0000 0000  xent                 LNJ,B4   X6A_AALT

     1343    19362    2         END;
     1344    19363
     1345    19364    1       CALL QGB$FLUSH ( , QGB_PARAM )

  19364   0 00007A  EB80 0000 0000  xsym                 LAB,B6   QGB_PARAM
          0 00007D  EFC7 002C                            STB,B6   TOTAL_GZ_SPACE_IN_PAGES+6,AUTO
          0 00007F  DB80 0000 0000                       LAB,B5   0
          0 000082  DFC7 002A                            STB,B5   TOTAL_GZ_SPACE_IN_PAGES+4,AUTO
          0 000084  BBC7 002A                            LAB,B3   TOTAL_GZ_SPACE_IN_PAGES+4,AUTO
          0 000086  CBF0 0200                            LAB,B4   512,IMO
          0 000088  E380 0000 0000  xent                 LNJ,B6   QGB$FLUSH
          0 00008B       0003                            DC       s:19367,PREL
          0 00008C  0F81 000A                            B        s:19370,PREL

     1346    19365    1       WHENALTRETURN
     1347    19366    2         DO;

     1348    19367    2           CALL QCE$ERROR_M$INTERNAL ( %E$UNEXPECTED_ALTRET );

  19367   0 00008E  BB80 0000 0004  01                   LAB,B3   +4
          0 000091  CBF0 0100                            LAB,B4   256,IMO
          0 000093  E380 0000 0000  xent                 LNJ,B6   QCE$ERROR_M$INTERNAL
          0 000096       0001                            DC       s:19370,PREL

     1349    19368    2         END;

     1350    19369
     1351    19370    1       RETURN;

  19370   0 000097  C380 0000 0000  xent                 LNJ,B4   X6A_ARET

     1352    19371
     1353    19372        %EJECT;
PL6.E3A0      #002=QBA$DEACTIVATE_FORM File=QBA$ACTIVATE.:E05TSI                 WED 07/30/97 04:44 Page:187
     1354    19373    1   DEACTIVATE_FRAME: PROC ALTRET;

  19373   0 00009A  EFC7 0028            DEACTIVATE_FRAMESTB,B6   TOTAL_GZ_SPACE_IN_PAGES+2,AUTO

     1355    19374
     1356    19375        /*I*  NAME:         DEACTIVATE_FRAME
     1357    19376              PURPOSE:      RLSFLD all the fields in a frame.
     1358    19377              PARAMETERS:   None.
     1359    19378              DATA:         The usual global stuff.
     1360    19379              PURPOSE:      May deallocate dynamic memory for GZ$whatevers for
     1361    19380                            a frame.  (See *D* for QBA$DEACTIVATE_FORM).
     1362    19381                            M$RLSFLD is called for each field; M$SLCFLD may
     1363    19382                            be called without a key (SeLeCting all fields
     1364    19383                            on the screen) if we're deactivating an entire
     1365    19384                            form and it's the only one open.
     1366    19385        */
     1367    19386
     1368    19387    2       IF NOT QI_1.CURRENT.FRAME_STATUS$ -> QI$FRAME_STATUS.INDICATORS.IS_ACTIVE

  19387   0 00009C  DC80 0000 007C  xsym                 LDB,B5   QI_1+124
          0 00009F  89C5 000C                            CMZ      12,B5
          0 0000A1  0801 0009                            BAL      s:19394,PREL

     1369    19388    2       THEN
     1370    19389    3         DO;

     1371    19390    3           QI_1.ERROR_STATUS = %E$FRAME_ALREADY_DEACTIVATED;

  19390   0 0000A3  6C0D                                 LDV,R6   13
          0 0000A4  EF00 0000 008C  xsym                 STR,R6   QI_1+140

     1372    19391    3           ALTRETURN;

  19391   0 0000A7  ECC7 0028                            LDB,B6   TOTAL_GZ_SPACE_IN_PAGES+2,AUTO
          0 0000A9  B806                                 LDR,R3   ,B6
          0 0000AA  C3B6                                 LNJ,B4   ,B6,R3

PL6.E3A0      #002=QBA$DEACTIVATE_FORM File=QBA$ACTIVATE.:E05TSI                 WED 07/30/97 04:44 Page:188
     1373    19392    3         END;
     1374    19393
     1375    19394    2       GZ_HEADER$ = QI_1.CURRENT.FRAME_STATUS$ -> QI$FRAME_STATUS.GZ.HEADER$;

  19394   0 0000AB  CCC5 0004                            LDB,B4   4,B5
          0 0000AD  CFC7 0022                            STB,B4   GZ_HEADER$,AUTO

     1376    19395    2       GZ_FIELD$ = PINCRW ( GZ_HEADER$, SIZEW (QI$GZ_HEADER) );

  19395   0 0000AF  BBC4 000B                            LAB,B3   11,B4
          0 0000B1  BFC7 0020                            STB,B3   GZ_FIELD$,AUTO

     1377    19396
     1378    19397    2       IF NOT MASTER_ALREADY_GOT_EM_FLAG

  19397   0 0000B3  89C7 0025                            CMZ      MASTER_ALREADY_GOT_EM_FLAG,AUTO
          0 0000B5  0801 00AF                            BAL      s:19457,PREL

     1379    19398    2       THEN
     1380    19399    2   RELEASE_ALL_THE_FIELDS:
     1381    19400    3         DO;

  19400   0                              RELEASE_ALL_THE*null
     1382    19401
     1383    19402    3           FPT@SLCFLD = QI_FPT_SLCFLD;

  19402   0 0000B7  AB80 0000 0000  xsym RELEASE_ALL_THE*LAB,B2   QI_FPT_SLCFLD
          0 0000BA  2C00                                 LDV,R2   0
          0 0000BB  6C10                                 LDV,R6   16
          0 0000BC  BB87                                 LAB,B3   ,AUTO
          0 0000BD  3C28                                 LDV,R3   40
          0 0000BE  0008                                 MMM

     1384    19403    3           VBASE ( FPT@SLCFLD.V_ ) = ADDR ( FPT@SLCFLD.V );

  19403   0 0000BF  EBC7 001A                            LAB,B6   FPT@SLCFLD+6,AUTO
          0 0000C1  EFC7 0015                            STB,B6   FPT@SLCFLD+1,AUTO
PL6.E3A0      #002=QBA$DEACTIVATE_FORM File=QBA$ACTIVATE.:E05TSI                 WED 07/30/97 04:44 Page:189

     1385    19404    3           FPT@SLCFLD.V.DCB# = QI_1.CURRENT.FORM$ -> QI$FORM_FILE.DCB#;

  19404   0 0000C3  DC80 0000 0076  xsym                 LDB,B5   QI_1+118
          0 0000C6  E845 0008                            LDR,R6   8,B5
          0 0000C8  E7C7 001A                            STH,R6   FPT@SLCFLD+6,AUTO

     1386    19405
     1387    19406                /*  If we're deactivating a form, and it's the only form
     1388    19407                    open, we can do a SELECT of all the fields at once.  */
     1389    19408    3           IF ITS_A_DEACTIVATE_FORM

  19408   0 0000CA  89C7 0024                            CMZ      ITS_A_DEACTIVATE_FORM,AUTO
          0 0000CC  0881 0028                            BAGE     s:19425,PREL
          0 0000CE  E800 0000 0074  xsym                 LDR,R6   QI_1+116
          0 0000D1  6D01                                 CMV,R6   1
          0 0000D2  0981 0022                            BNE      s:19425,PREL

     1390    19409    3             AND QI_1.OPENED_COUNT.FORM = 1
     1391    19410    3           THEN
     1392    19411    3   SELECT_ALL_OF_EM_AT_ONCE:
     1393    19412    4             DO;

  19412   0                              SELECT_ALL_OF_E*null
     1394    19413
     1395    19414    4               MASTER_ALREADY_GOT_EM_FLAG = %YES;

  19414   0 0000D4  8947 0025            SELECT_ALL_OF_E*LBT,'8000'X       MASTER_ALREADY_GOT_EM_FLAG,AUTO
  19414   0 0000D6       8000

     1396    19415
     1397    19416    4               CALL QGB$SLCFLD ( FPT@SLCFLD, QGB_PARAM )

  19416   0 0000D7  CB80 0000 0000  xsym                 LAB,B4   QGB_PARAM
          0 0000DA  CFC7 002C                            STB,B4   TOTAL_GZ_SPACE_IN_PAGES+6,AUTO
          0 0000DC  ABC7 0014                            LAB,B2   FPT@SLCFLD,AUTO
          0 0000DE  AFC7 002A                            STB,B2   TOTAL_GZ_SPACE_IN_PAGES+4,AUTO
PL6.E3A0      #002=QBA$DEACTIVATE_FORM File=QBA$ACTIVATE.:E05TSI                 WED 07/30/97 04:44 Page:190
          0 0000E0  BBC7 002A                            LAB,B3   TOTAL_GZ_SPACE_IN_PAGES+4,AUTO
          0 0000E2  CBF0 0200                            LAB,B4   512,IMO
          0 0000E4  E380 0000 0000  xent                 LNJ,B6   QGB$SLCFLD
          0 0000E7       0003                            DC       s:19419,PREL
          0 0000E8  0F81 000A                            B        s:19422,PREL

     1398    19417    4               WHENALTRETURN
     1399    19418    5                 DO;

     1400    19419    5                   CALL QCE$ERROR_M$INTERNAL ( %E$UNEXPECTED_ALTRET );

  19419   0 0000EA  BB80 0000 0004  01                   LAB,B3   +4
          0 0000ED  CBF0 0100                            LAB,B4   256,IMO
          0 0000EF  E380 0000 0000  xent                 LNJ,B6   QCE$ERROR_M$INTERNAL
          0 0000F2       0001                            DC       s:19422,PREL

     1401    19420    5                 END;

     1402    19421
     1403    19422    4             END SELECT_ALL_OF_EM_AT_ONCE;

  19422   0 0000F3  0F81 0041                            B        s:19443,PREL

     1404    19423    3           ELSE
     1405    19424    3   SELECT_ONE_OF_EM_AT_A_TIME:
     1406    19425    4             DO;

  19425   0                              SELECT_ONE_OF_E*null
     1407    19426
     1408    19427    5               DO FIELD_COUNT = 1 TO GZ_HEADER$ -> QI$GZ_HEADER.FIELD_COUNT;

  19427   0 0000F5  6C01                 SELECT_ONE_OF_E*LDV,R6   1
          0 0000F6  EF47 001C                            STR,R6   FIELD_COUNT,AUTO
          0 0000F8  0F81 0035                            B        s:19439+2,PREL

     1409    19428
     1410    19429    5                 FPT@SLCFLD.KEY_ = VECTOR ( GZ_FIELD$ -> QI$GZ_FIELD.DESCRIPTION.
PL6.E3A0      #002=QBA$DEACTIVATE_FORM File=QBA$ACTIVATE.:E05TSI                 WED 07/30/97 04:44 Page:191
             19429                          POSITION );

  19429   0 0000FA  ECC7 0020                            LDB,B6   GZ_FIELD$,AUTO
          0 0000FC  DBC6 0003                            LAB,B5   3,B6
          0 0000FE  DFC7 002B                            STB,B5   TOTAL_GZ_SPACE_IN_PAGES+5,AUTO
          0 000100  6C01                                 LDV,R6   1
          0 000101  EF47 002A                            STR,R6   TOTAL_GZ_SPACE_IN_PAGES+4,AUTO
          0 000103  ABC7 002A                            LAB,B2   TOTAL_GZ_SPACE_IN_PAGES+4,AUTO
          0 000105  2C00                                 LDV,R2   0
          0 000106  6C06                                 LDV,R6   6
          0 000107  BB87                                 LAB,B3   ,AUTO
          0 000108  3C2E                                 LDV,R3   46
          0 000109  0008                                 MMM

     1411    19430
     1412    19431    5                 CALL QGB$SLCFLD ( FPT@SLCFLD, QGB_PARAM )

  19431   0 00010A  EB80 0000 0000  xsym                 LAB,B6   QGB_PARAM
          0 00010D  EFC7 002C                            STB,B6   TOTAL_GZ_SPACE_IN_PAGES+6,AUTO
          0 00010F  DBC7 0014                            LAB,B5   FPT@SLCFLD,AUTO
          0 000111  DFC7 002A                            STB,B5   TOTAL_GZ_SPACE_IN_PAGES+4,AUTO
          0 000113  BBC7 002A                            LAB,B3   TOTAL_GZ_SPACE_IN_PAGES+4,AUTO
          0 000115  CBF0 0200                            LAB,B4   512,IMO
          0 000117  E380 0000 0000  xent                 LNJ,B6   QGB$SLCFLD
          0 00011A       0003                            DC       s:19434,PREL
          0 00011B  0F81 000A                            B        s:19437,PREL

     1413    19432    5                 WHENALTRETURN
     1414    19433    6                   DO;

     1415    19434    6                     CALL QCE$ERROR_M$INTERNAL ( %E$UNEXPECTED_ALTRET );

  19434   0 00011D  BB80 0000 0004  01                   LAB,B3   +4
          0 000120  CBF0 0100                            LAB,B4   256,IMO
          0 000122  E380 0000 0000  xent                 LNJ,B6   QCE$ERROR_M$INTERNAL
          0 000125       0001                            DC       s:19437,PREL

PL6.E3A0      #002=QBA$DEACTIVATE_FORM File=QBA$ACTIVATE.:E05TSI                 WED 07/30/97 04:44 Page:192
     1416    19435    6                   END;

     1417    19436
     1418    19437    5                 GZ_FIELD$ = PINCRW ( GZ_FIELD$, SIZEW (QI$GZ_FIELD) );

  19437   0 000126  ECC7 0020                            LDB,B6   GZ_FIELD$,AUTO
          0 000128  DBC6 000C                            LAB,B5   12,B6
          0 00012A  DFC7 0020                            STB,B5   GZ_FIELD$,AUTO

     1419    19438
     1420    19439    5               END;

  19439   0 00012C  8AC7 001C                            INC      FIELD_COUNT,AUTO
          0 00012E  ECC7 0022                            LDB,B6   GZ_HEADER$,AUTO
          0 000130  E847 001C                            LDR,R6   FIELD_COUNT,AUTO
          0 000132  E946 0004                            CMR,R6   4,B6
          0 000134  03C6                                 BLE      s:19429,SPREL

     1421    19440
     1422    19441    4             END SELECT_ONE_OF_EM_AT_A_TIME;

     1423    19442
     1424    19443    3           FPT@RLSFLD = QI_FPT_RLSFLD;

  19443   0 000135  AB80 0000 0000  xsym                 LAB,B2   QI_FPT_RLSFLD
          0 000138  2C00                                 LDV,R2   0
          0 000139  6C10                                 LDV,R6   16
          0 00013A  BB87                                 LAB,B3   ,AUTO
          0 00013B  3C18                                 LDV,R3   24
          0 00013C  0008                                 MMM

     1425    19444    3           VBASE ( FPT@RLSFLD.V_ ) = ADDR ( FPT@RLSFLD.V );

  19444   0 00013D  EBC7 0012                            LAB,B6   FPT@RLSFLD+6,AUTO
          0 00013F  EFC7 000D                            STB,B6   FPT@RLSFLD+1,AUTO

     1426    19445    3           FPT@RLSFLD.V.DCB# = FPT@SLCFLD.V.DCB#;
PL6.E3A0      #002=QBA$DEACTIVATE_FORM File=QBA$ACTIVATE.:E05TSI                 WED 07/30/97 04:44 Page:193

  19445   0 000141  E2C7 001A                            LLH,R6   FPT@SLCFLD+6,AUTO
          0 000143  E7C7 0012                            STH,R6   FPT@RLSFLD+6,AUTO

     1427    19446
     1428    19447    3           CALL QGB$RLSFLD ( FPT@RLSFLD, QGB_PARAM )

  19447   0 000145  DB80 0000 0000  xsym                 LAB,B5   QGB_PARAM
          0 000148  DFC7 002C                            STB,B5   TOTAL_GZ_SPACE_IN_PAGES+6,AUTO
          0 00014A  CBC7 000C                            LAB,B4   FPT@RLSFLD,AUTO
          0 00014C  CFC7 002A                            STB,B4   TOTAL_GZ_SPACE_IN_PAGES+4,AUTO
          0 00014E  BBC7 002A                            LAB,B3   TOTAL_GZ_SPACE_IN_PAGES+4,AUTO
          0 000150  CBF0 0200                            LAB,B4   512,IMO
          0 000152  E380 0000 0000  xent                 LNJ,B6   QGB$RLSFLD
          0 000155       0003                            DC       s:19450,PREL
          0 000156  0F81 000A                            B        s:19453,PREL

     1429    19448    3           WHENALTRETURN
     1430    19449    4             DO;

     1431    19450    4               CALL QCE$ERROR_M$INTERNAL ( %E$UNEXPECTED_ALTRET );

  19450   0 000158  BB80 0000 0004  01                   LAB,B3   +4
          0 00015B  CBF0 0100                            LAB,B4   256,IMO
          0 00015D  E380 0000 0000  xent                 LNJ,B6   QCE$ERROR_M$INTERNAL
          0 000160       0001                            DC       s:19453,PREL

     1432    19451    4             END;

     1433    19452
     1434    19453    3           QI_1.SCREEN_UPDATE_FLAGS.WAS_DEACTIVATED = %YES;

  19453   0 000161  8900 0000 0016  xsym                 LBT,'2000'X       QI_1+22
  19453   0 000164       2000

     1435    19454
     1436    19455    3         END RELEASE_ALL_THE_FIELDS;
PL6.E3A0      #002=QBA$DEACTIVATE_FORM File=QBA$ACTIVATE.:E05TSI                 WED 07/30/97 04:44 Page:194

     1437    19456
     1438    19457    2       GZ_HEADER$ -> QI$GZ_HEADER.IS_ACTIVE = %NO;

  19457   0 000165  ECC7 0022                            LDB,B6   GZ_HEADER$,AUTO
          0 000167  8706                                 CL       ,B6

     1439    19458
     1440    19459    2       IF GZ_HEADER$ = QI_1.GZ.LAST_HEADER$

  19459   0 000168  ED80 0000 006A  xsym                 CMB,B6   QI_1+106
          0 00016B  0981 0083                            BNE      s:19536,PREL

     1441    19460    2       THEN
     1442    19461    2   PRUNE_BACK_THE_SEGMENT_SOME:
     1443    19462    3         DO;

  19462   0                              PRUNE_BACK_THE_*null
     1444    19463
     1445    19464    3   PRUNE_BACK_THE_SEGMENT_MORE:
     1446    19465    4           DO WHILE ( GZ_HEADER$ -> QI$GZ_HEADER.IS_ACTIVE = %NO );

  19465   0 00016D  8986                 PRUNE_BACK_THE_*CMZ      ,B6
          0 00016E  0801 0024                            BAL      s:19513,PREL

     1447    19466
     1448    19467    4             QI_1.GZ.AVAILABLE$ = GZ_HEADER$;

  19467   0 000170  ECC7 0022                            LDB,B6   GZ_HEADER$,AUTO
          0 000172  EF80 0000 006C  xsym                 STB,B6   QI_1+108

     1449    19468    4             QI_1.GZ.LAST_HEADER$ = GZ_HEADER$ -> QI$GZ_HEADER.BACK_LINK$;

  19468   0 000175  DCC6 0001                            LDB,B5   1,B6
          0 000177  DF80 0000 006A  xsym                 STB,B5   QI_1+106

     1450    19469                  %DATA_ADDRESS ( THING@D =
PL6.E3A0      #002=QBA$DEACTIVATE_FORM File=QBA$ACTIVATE.:E05TSI                 WED 07/30/97 04:44 Page:195
             19469                      "GZ_HEADER$ -> QI$GZ_HEADER.FRAME_DAD$ -> QI$FRAME.STATUS_AREA@D",
     1451    19470                  CHECK_FOR_INDIRECTION = NO,
     1452    19471                  RESULT$ = FRAME_STATUS$ );

  19489   0 00017A  CCC6 0005                            LDB,B4   5,B6
          0 00017C  B844 0006                            LDR,R3   6,B4
          0 00017E  F853                                 LDR,R7   R3
          0 00017F  6C00                                 LDV,R6   0
          0 000180  8400 0000 0000  xsym                 AID      QI_1
          0 000183  8D47 001E                            SDI      FRAME_STATUS$,AUTO

     1453    19508    4             FRAME_STATUS$ -> QI$FRAME_STATUS.GZ.HEADER$ = ADDR (NIL);

  19508   0 000185  BB80 0000 0000                       LAB,B3   0
          0 000188  ACC7 001E                            LDB,B2   FRAME_STATUS$,AUTO
          0 00018A  BFC2 0004                            STB,B3   4,B2

     1454    19509    4             GZ_HEADER$ = QI_1.GZ.LAST_HEADER$;

  19509   0 00018C  DC80 0000 006A  xsym                 LDB,B5   QI_1+106
          0 00018F  DFC7 0022                            STB,B5   GZ_HEADER$,AUTO

     1455    19510
     1456    19511    4           END PRUNE_BACK_THE_SEGMENT_MORE;

  19511   0 000191  8985                                 CMZ      ,B5
          0 000192  08DE                                 BAGE     s:19467,SPREL

     1457    19512
     1458    19513    3           TOTAL_GZ_SPACE_IN_PAGES = ( ( QI_VLP_SEGMENT.PAGES * 256 )

  19513   0 000193  8C80 0000 006C  xsym                 LDI      QI_1+108
          0 000196  8480 0000 0000  xsym                 SID      QI_VLP_SEGMENT
          0 000199  8D47 002A                            SDI      TOTAL_GZ_SPACE_IN_PAGES+4,AUTO
          0 00019B  F800 0000 0002  xsym                 LDR,R7   QI_VLP_SEGMENT+2
          0 00019E  6C00                                 LDV,R6   0
          0 00019F  7088                                 DOL,R7   8
PL6.E3A0      #002=QBA$DEACTIVATE_FORM File=QBA$ACTIVATE.:E05TSI                 WED 07/30/97 04:44 Page:196
          0 0001A0  8656                                 CPL      R6
          0 0001A1  8657                                 CPL      R7
          0 0001A2  8470 0000 0001                       AID      1,IMO
          0 0001A5  8447 002A                            AID      TOTAL_GZ_SPACE_IN_PAGES+4,AUTO
          0 0001A7  8656                                 CPL      R6
          0 0001A8  8657                                 CPL      R7
          0 0001A9  8470 0000 0001                       AID      1,IMO
          0 0001AC  8D47 003E                            SDI      TOTAL_GZ_SPACE_IN_PAGES+24,AUTO
          0 0001AE  EB80 0000 0000  01                   LAB,B6   0
          0 0001B1  0027                                 CBD      ;
          0 0001B2       0206 0006                                BINARY(6,B6,,2),;
          0 0001B4       4C07 002C                       UNPACKED(TOTAL_GZ_SPACE_IN_PAGES+6,AUTO,,12,LEADING)
          0 0001B6  0027                                 CBD      ;
          0 0001B7       0407 003E                               BINARY(TOTAL_GZ_SPACE_IN_PAGES+24,AUTO,,4),;
          0 0001B9       4C07 0032                      UNPACKED(TOTAL_GZ_SPACE_IN_PAGES+12,AUTO,,12,LEADING)
          0 0001BB  002B                                 DDV      ;
          0 0001BC       4C07 002C                     UNPACKED(TOTAL_GZ_SPACE_IN_PAGES+6,AUTO,,12,LEADING),;
          0 0001BE       4C07 0032                    UNPACKED(TOTAL_GZ_SPACE_IN_PAGES+12,AUTO,,12,LEADING),;
          0 0001C0       4C07 0038                      UNPACKED(TOTAL_GZ_SPACE_IN_PAGES+18,AUTO,,12,LEADING)
          0 0001C2  002A                                 CDB      ;
          0 0001C3       4C07 0038                    UNPACKED(TOTAL_GZ_SPACE_IN_PAGES+18,AUTO,,12,LEADING),;
          0 0001C5       0407 0040                                BINARY(TOTAL_GZ_SPACE_IN_PAGES+26,AUTO,,4)
          0 0001C7  437F                                 CSYNC    s:19513+51,SPREL
          0 0001C8  D847 0041                            LDR,R5   TOTAL_GZ_SPACE_IN_PAGES+27,AUTO
          0 0001CA  DF47 0026                            STR,R5   TOTAL_GZ_SPACE_IN_PAGES,AUTO

     1459    19514    3             - POFFW ( QI_1.GZ.AVAILABLE$, QI_VLP_SEGMENT.BASE$ ) )
     1460    19515    3             / 256;
     1461    19516
     1462    19517    3           IF TOTAL_GZ_SPACE_IN_PAGES > 0

  19517   0 0001CC  5901 0022                            BEZ,R5   s:19536,PREL

     1463    19518    3           THEN
     1464    19519    3   FDS_SOME_MEMORY:
     1465    19520    4             DO;

PL6.E3A0      #002=QBA$DEACTIVATE_FORM File=QBA$ACTIVATE.:E05TSI                 WED 07/30/97 04:44 Page:197
  19520   0                              FDS_SOME_MEMORY null
     1466    19521
     1467    19522    4               FPT@FDS = QI_FPT_FDS;

  19522   0 0001CE  AB80 0000 0000  xsym FDS_SOME_MEMORY LAB,B2   QI_FPT_FDS
          0 0001D1  2C00                                 LDV,R2   0
          0 0001D2  6C10                                 LDV,R6   16
          0 0001D3  BB87                                 LAB,B3   ,AUTO
          0 0001D4  3C08                                 LDV,R3   8
          0 0001D5  0008                                 MMM

     1468    19523    4               VBASE ( FPT@FDS.V_ ) = ADDR ( FPT@FDS.V );

  19523   0 0001D6  EBC7 000A                            LAB,B6   FPT@FDS+6,AUTO
          0 0001D8  EFC7 0005                            STB,B6   FPT@FDS+1,AUTO

     1469    19524    4               FPT@FDS.V.PAGES = TOTAL_GZ_SPACE_IN_PAGES;

  19524   0 0001DA  E847 0026                            LDR,R6   TOTAL_GZ_SPACE_IN_PAGES,AUTO
          0 0001DC  EF47 000A                            STR,R6   FPT@FDS+6,AUTO

     1470    19525
     1471    19526    4               CALL M$FDS ( FPT@FDS )

  19526   0 0001DE  BBC7 0004                            LAB,B3   FPT@FDS,AUTO
          0 0001E0  B870 0903                            LDR,R3   2307,IMO
          0 0001E2  0001                                 MCL
          0 0001E3       0003                            DC       s:19529,PREL
          0 0001E4  0F81 000A                            B        s:19536,PREL

     1472    19527    4               WHENALTRETURN
     1473    19528    5                 DO;

     1474    19529    5                   CALL QCE$ERROR_M$INTERNAL ( %E$UNEXPECTED_ALTRET );

  19529   0 0001E6  BB80 0000 0004  01                   LAB,B3   +4
          0 0001E9  CBF0 0100                            LAB,B4   256,IMO
PL6.E3A0      #002=QBA$DEACTIVATE_FORM File=QBA$ACTIVATE.:E05TSI                 WED 07/30/97 04:44 Page:198
          0 0001EB  E380 0000 0000  xent                 LNJ,B6   QCE$ERROR_M$INTERNAL
          0 0001EE       0001                            DC       s:19536,PREL

     1475    19530    5                 END;

     1476    19531
     1477    19532    4             END FDS_SOME_MEMORY;

     1478    19533
     1479    19534    3         END PRUNE_BACK_THE_SEGMENT_SOME;

     1480    19535
     1481    19536    2       QI_1.CURRENT.FRAME_STATUS$ -> QI$FRAME_STATUS.INDICATORS.IS_ACTIVE = %NO;

  19536   0 0001EF  EC80 0000 007C  xsym                 LDB,B6   QI_1+124
          0 0001F2  8846 000C                            LBF,'8000'X       12,B6
          0 0001F4       8000

     1482    19537    2       QI_1.CURRENT.FRAME_STATUS$ -> QI$FRAME_STATUS.CURRENT.USAGE.DEACTIVATED = %YES;

  19537   0 0001F5  EC80 0000 007C  xsym                 LDB,B6   QI_1+124
          0 0001F8  8946 000A                            LBT,'0200'X       10,B6
          0 0001FA       0200

     1483    19538
     1484    19539    2       RETURN;

  19539   0 0001FB  ECC7 0028                            LDB,B6   TOTAL_GZ_SPACE_IN_PAGES+2,AUTO
          0 0001FD  C3C6 0001                            LNJ,B4   1,B6
     1485    19540
     1486    19541    2   END DEACTIVATE_FRAME;
     1487    19542
     1488    19543    1   END QBA$DEACTIVATE_FORM;

PL6.E3A0      #002=QBA$DEACTIVATE_FORM File=QBA$ACTIVATE.:E05TSI                 WED 07/30/97 04:44 Page:199
--  Include file information  --

   QI_MACROS_M.:E05TOU  is referenced.
   QI_PERR_C.:E05TOU  is referenced.
   QI_EQUATES_E.:E05TOU  is referenced.
   QG_MACRO_M.:E05TOU  is referenced.
   LCP_6.:E05TOU  cannot be made into a system file and is referenced.
   G_LCP6_E.:E05TOU  was found in the system file and is referenced.
   GT_LCP6_M.:E05TOU  was found in the system file and is referenced.
   KI_CP6.:E05TOU  was found in the system file and is referenced.
   GF_LCP6_M.:E05TOU  was found in the system file and is referenced.
   GM_LCP6_M.:E05TOU  was found in the system file and is referenced.
   GU_LCP6_M.:E05TOU  was found in the system file and is referenced.
   GJ_LCP6_M.:E05TOU  was found in the system file and is referenced.
   GH_LCP6_M.:E05TOU  was found in the system file and is referenced.
      No diagnostics issued in procedure QBA$DEACTIVATE_FORM.
PL6.E3A0      #002=QBA$DEACTIVATE_FORM File=QBA$ACTIVATE.:E05TSI                 WED 07/30/97 04:44 Page:200

 **** Variables and constants ****

  ****  Auto variables  ****

  ****  Scalars and arrays  ****
HexLoc.c.b A Datatyp(siz) R M Lvl/name                 HexLoc.c.b A Datatyp(siz) R M Lvl/name

    1C-0-0/w UBIN(16)    r     1 FIELD_COUNT                4-0-0/w STRC(128)   r     1 FPT@FDS
     C-0-0/w STRC(128)   r     1 FPT@RLSFLD                14-0-0/w STRC(128)   r     1 FPT@SLCFLD
    1D-0-0/w UBIN(16)    r     1 FRAME_INDEX               1E-0-0/w PTR         r     1 FRAME_STATUS$
    20-0-0/w PTR         r     1 GZ_FIELD$                 22-0-0/w PTR         r     1 GZ_HEADER$
    24-0-0/b BIT         r     1 ITS_A_DEACTIVATE_FORM
    25-0-0/b BIT         r     1 MASTER_ALREADY_GOT_EM_FLAG
    26-0-0/w UBIN(16)    r     1 TOTAL_GZ_SPACE_IN_PAGES

  ****  SYMREF variables  ****

  ****  Scalars and arrays  ****
HexLoc.c.b A Datatyp(siz) R M Lvl/name                 HexLoc.c.b A Datatyp(siz) R M Lvl/name

     0-0-0/w STRC(432)   r     1 QGB_PARAM                  0-0-0/d STRC(2576)  r     1 QI_1
     0-0-0/w STRC(128)   r     1 QI_FPT_FDS                 0-0-0/w STRC(128)   r     1 QI_FPT_RLSFLD
     0-0-0/w STRC(128)   r     1 QI_FPT_SLCFLD              0-0-0/w STRC(48)    r     1 QI_VLP_SEGMENT

  ****  BASED and DCB variables  ****

  ****  Scalars and arrays  ****
HexLoc.c.b A Datatyp(siz) R M Lvl/name                 HexLoc.c.b A Datatyp(siz) R M Lvl/name

     0-0-0/w STRC(192)   r     1 QI$FORM_FILE               0-0-0/w STRC(128)   r     1 QI$FRAME
     0-0-0/w STRC(208)   r     1 QI$FRAME_STATUS            0-0-0/w STRC(184)   r     1 QI$GZ_FIELD
     0-0-0/w STRC(176)   r     1 QI$GZ_HEADER
     0-0-0/c ASTR(8)     r     1 QI$VARIABLE_IDENTIFIER


   Procedure QBA$DEACTIVATE_FORM requires 511 words for executable code.
PL6.E3A0      #002=QBA$DEACTIVATE_FORM File=QBA$ACTIVATE.:E05TSI                 WED 07/30/97 04:44 Page:201
   Procedure QBA$DEACTIVATE_FORM requires 66 words of local(AUTO) storage.

    No errors detected in file QBA$ACTIVATE.:E05TSI    .
PL6.E3A0      #002=QBA$DEACTIVATE_FORM File=QBA$ACTIVATE.:E05TSI                 WED 07/30/97 04:44 Page:202
          *** CROSS REFERENCE LISTING ***
**     DENOTES     IDENTIFIER DEFINITION
<<                 IDENTIFIER'S VALUE SET
>>                 IDENTIFIER'S VALUE USED
<>                 IDENTIFIER SET AND/OR USED
--                 IDENTIFIER REFERENCED
PL6.E3A0      #002=QBA$DEACTIVATE_FORM File=QBA$ACTIVATE.:E05TSI                 WED 07/30/97 04:44 Page:203
          MINI XREF LISTING

DEACTIVATE_FRAME
     19373**PROC    19321--CALL    19358--CALL
FIELD_COUNT
     19219**DCL     19427<<DOINDEX
FPT@FDS
       249**DCL     19522<<ASSIGN  19526<>CALL
FPT@FDS.V
       252**DCL     19523--ASSIGN
FPT@FDS.V.PAGES
       256**DCL     19524<<ASSIGN
FPT@FDS.V_
       252**DCL     19523<<ASSIGN
FPT@RLSFLD
       275**DCL     19443<<ASSIGN  19447<>CALL
FPT@RLSFLD.V
       283**DCL     19444--ASSIGN
FPT@RLSFLD.V.DCB#
       283**DCL     19445<<ASSIGN
FPT@RLSFLD.V_
       277**DCL     19444<<ASSIGN
FPT@SLCFLD
       308**DCL     19402<<ASSIGN  19416<>CALL    19431<>CALL
FPT@SLCFLD.KEY_
       314**DCL     19429<<ASSIGN
FPT@SLCFLD.V
       316**DCL     19403--ASSIGN
FPT@SLCFLD.V.DCB#
       316**DCL     19404<<ASSIGN  19445>>ASSIGN
FPT@SLCFLD.V_
       310**DCL     19403<<ASSIGN
FRAME_INDEX
     19220**DCL     19234<<DOINDEX 19256>>ASSIGN
PL6.E3A0      #002=QBA$DEACTIVATE_FORM File=QBA$ACTIVATE.:E05TSI                 WED 07/30/97 04:44 Page:204
FRAME_STATUS$
     19221**DCL     19489<<ASSIGN  19508>>ASSIGN
GZ_FIELD$
     19222**DCL     19395<<ASSIGN  19429>>ASSIGN  19437<<ASSIGN  19437>>ASSIGN
GZ_HEADER$
     19223**DCL     19394<<ASSIGN  19395>>ASSIGN  19427>>DOINDEX 19457>>ASSIGN  19459>>IF      19465>>DOWHILE
     19467>>ASSIGN  19468>>ASSIGN  19489>>ASSIGN  19509<<ASSIGN
ITS_A_DEACTIVATE_FORM
     19224**DCL     19231<<ASSIGN  19355<<ASSIGN  19408>>IF
M$FDS
       211**DCL-ENT 19526--CALL
MASTER_ALREADY_GOT_EM_FLAG
     19225**DCL     19232<<ASSIGN  19356<<ASSIGN  19397>>IF      19414<<ASSIGN
QCE$ERROR_INTERNAL
     19228**DCL-ENT 19324--CALL
QCE$ERROR_M$INTERNAL
     19229**DCL-ENT 19334--CALL    19367--CALL    19419--CALL    19434--CALL    19450--CALL    19529--CALL
QGB$FLUSH
       473**DCL-ENT 19331--CALL    19364--CALL
QGB$RLSFLD
       468**DCL-ENT 19447--CALL
QGB$SLCFLD
       467**DCL-ENT 19416--CALL    19431--CALL
QGB_PARAM
     11589**DCL     19331<>CALL    19364<>CALL    19416<>CALL    19431<>CALL    19447<>CALL
QGB_PARAM.DVE.DVBYTE.VFC
     11657**DCL     11658--REDEF
QGB_PARAM.DVE.EOMCHAR
     11669**DCL     11670--REDEF
QGB_PARAM.MSG$
     11651**DCL     11652--REDEF
QGB_PARAM.UHDR$
     11676**DCL     11677--REDEF
QI$ACTIVATION_STATUS
      9415**DCL      9421--REDEF
QI$CIP
PL6.E3A0      #002=QBA$DEACTIVATE_FORM File=QBA$ACTIVATE.:E05TSI                 WED 07/30/97 04:44 Page:205
      8256**DCL      8326--REDEF
QI$CIP.CA
      8261**DCL      8265--REDEF    8268--REDEF    8271--REDEF
QI$COBOL_DAD.PSEUDO_CIP
      8500**DCL      8525--REDEF
QI$COBOL_DAD.PSEUDO_CIP.ALPHANUMERIC
      8502**DCL      8507--REDEF
QI$COBOL_DAD.PSEUDO_CIP.NUMERIC.CB
      8508**DCL      8511--REDEF    8514--REDEF
QI$COBOL_DAD.VARIABLE_LENGTH_ITEMS
      8536**DCL      8552--REDEF    8560--REDEF    8568--REDEF
QI$COBOL_DAD.VARIABLE_LENGTH_ITEMS.LEVEL_MULTIPLIERS
      8537**DCL      8547--REDEF    8550--REDEF
QI$COBOL_DAD.WORD0
      8464**DCL      8465--REDEF    8479--REDEF
QI$COBOL_DAD_P_BITS.P
      8604**DCL      8610--REDEF
QI$CONDITION_CONTROL_BLOCK.LIST_A@P
      8090**DCL      8091--REDEF
QI$CONDITION_CONTROL_BLOCK.WORD0_FLAGS
      8086**DCL      8089--REDEF
QI$CONDITION_LEGAL_BLOCK.ARRAY@P
      8123**DCL      8124--REDEF    8125--REDEF
QI$DAD.PSEUDO_CIP
      8403**DCL      8428--REDEF
QI$DAD.PSEUDO_CIP.ALPHANUMERIC
      8405**DCL      8410--REDEF
QI$DAD.PSEUDO_CIP.NUMERIC.CB
      8411**DCL      8414--REDEF    8417--REDEF
QI$DAD.WORD0
      8372**DCL      8373--REDEF
QI$ERROR_MESSAGE_LINE
     11764**DCL     11766--REDEF
QI$ERROR_STATUS
     11761**DCL     11763--REDEF
QI$FIELD_DAD.ELEMENTARY_ITEM.P
PL6.E3A0      #002=QBA$DEACTIVATE_FORM File=QBA$ACTIVATE.:E05TSI                 WED 07/30/97 04:44 Page:206
      8818**DCL      8825--REDEF
QI$FIELD_DAD.ONE_DIMENSIONAL_ITEM.P
      8838**DCL      8845--REDEF
QI$FIELD_DAD.PSEUDO_CIP
      8745**DCL      8770--REDEF
QI$FIELD_DAD.PSEUDO_CIP.ALPHANUMERIC
      8747**DCL      8752--REDEF
QI$FIELD_DAD.PSEUDO_CIP.NUMERIC.CB
      8753**DCL      8756--REDEF    8759--REDEF
QI$FIELD_DAD.TWO_DIMENSIONAL_ITEM.P
      8858**DCL      8865--REDEF
QI$FIELD_DAD.VARIABLE_LENGTH_ITEMS
      8801**DCL      8817--REDEF    8835--REDEF    8853--REDEF
QI$FIELD_DAD.VARIABLE_LENGTH_ITEMS.LEVEL_MULTIPLIERS
      8802**DCL      8812--REDEF    8815--REDEF
QI$FIELD_DAD.WORD0
      8697**DCL      8698--REDEF
QI$FIELD_DAD.WORD0_FLAGS.IO_FLAGS
      8701**DCL      8706--REDEF
QI$FIELD_DAD_P.P
      8899**DCL      8906--REDEF
QI$FIELD_STATUS.INDICATORS
      9565**DCL      9597--REDEF
QI$FIELD_STATUS.INDICATORS.ENABLED_FLAGS
      9569**DCL      9574--REDEF
QI$FIELD_STATUS.INDICATORS.OPEN_FLAGS
      9581**DCL      9588--REDEF
QI$FIELD_STATUS.INDICATORS.STATE_FLAGS
      9575**DCL      9580--REDEF
QI$FILE.WORD0
      9021**DCL      9022--REDEF
QI$FILE_STATUS.INDICATORS
      9858**DCL      9890--REDEF
QI$FILE_STATUS.INDICATORS.ENABLED_FLAGS
      9862**DCL      9867--REDEF
QI$FILE_STATUS.INDICATORS.OPEN_FLAGS
PL6.E3A0      #002=QBA$DEACTIVATE_FORM File=QBA$ACTIVATE.:E05TSI                 WED 07/30/97 04:44 Page:207
      9874**DCL      9881--REDEF
QI$FILE_STATUS.INDICATORS.STATE_FLAGS
      9868**DCL      9873--REDEF
QI$FORM_FILE.DCB#
      9119**DCL     19404>>ASSIGN
QI$FORM_FILE.FRAME_COUNT
      9100**DCL     19234>>DOINDEX
QI$FORM_FILE.FRAME_LIST_A@P
      9129**DCL     19256>>ASSIGN
QI$FORM_FILE.USE_PROCEDURE
      9121**DCL      9128--REDEF
QI$FORM_FILE.WORD0
      9075**DCL      9076--REDEF
QI$FORM_STATUS.INDICATORS
      9979**DCL     10011--REDEF
QI$FORM_STATUS.INDICATORS.ENABLED_FLAGS
      9983**DCL      9988--REDEF
QI$FORM_STATUS.INDICATORS.OPEN_FLAGS
      9995**DCL     10002--REDEF
QI$FORM_STATUS.INDICATORS.STATE_FLAGS
      9989**DCL      9994--REDEF
QI$FRAME.STATUS_AREA@D
      9252**DCL     19296>>ASSIGN  19489>>ASSIGN
QI$FRAME.WORD0
      9236**DCL      9237--REDEF
QI$FRAME_STATUS.CURRENT.USAGE.DEACTIVATED
     10181**DCL     19537<<ASSIGN
QI$FRAME_STATUS.GZ.HEADER$
     10169**DCL     19394>>ASSIGN  19508<<ASSIGN
QI$FRAME_STATUS.INDICATORS
     10208**DCL     10240--REDEF
QI$FRAME_STATUS.INDICATORS.ENABLED_FLAGS
     10212**DCL     10217--REDEF
QI$FRAME_STATUS.INDICATORS.IS_ACTIVE
     10210**DCL     19316>>IF      19387>>IF      19536<<ASSIGN
QI$FRAME_STATUS.INDICATORS.OPEN_FLAGS
PL6.E3A0      #002=QBA$DEACTIVATE_FORM File=QBA$ACTIVATE.:E05TSI                 WED 07/30/97 04:44 Page:208
     10224**DCL     10231--REDEF
QI$FRAME_STATUS.INDICATORS.STATE_FLAGS
     10218**DCL     10223--REDEF
QI$GZ_FIELD
     17087**DCL     19437--ASSIGN
QI$GZ_FIELD.DESCRIPTION.IO_FLAGS
     17090**DCL     17095--REDEF
QI$GZ_FIELD.DESCRIPTION.POSITION
     17106**DCL     19429--ASSIGN
QI$GZ_HEADER
     17038**DCL     19395--ASSIGN
QI$GZ_HEADER.BACK_LINK$
     17042**DCL     19468>>ASSIGN
QI$GZ_HEADER.FIELD_COUNT
     17046**DCL     19427>>DOINDEX
QI$GZ_HEADER.FRAME_DAD$
     17048**DCL     19489>>ASSIGN
QI$GZ_HEADER.IS_ACTIVE
     17039**DCL     19457<<ASSIGN  19465>>DOWHILE
QI$IDENTIFIER
     11767**DCL     11769--REDEF
QI$INDICATORS
      9479**DCL      9509--REDEF
QI$INDICATORS.ENABLED_FLAGS
      9485**DCL      9490--REDEF
QI$INDICATORS.OPEN_FLAGS
      9497**DCL      9504--REDEF
QI$INDICATORS.STATE_FLAGS
      9491**DCL      9496--REDEF
QI$MAJOR_NODE.WORD0
      8935**DCL      8936--REDEF
QI$MAJOR_STATUS.INDICATORS
      9658**DCL      9690--REDEF
QI$MAJOR_STATUS.INDICATORS.ENABLED_FLAGS
      9662**DCL      9667--REDEF
QI$MAJOR_STATUS.INDICATORS.OPEN_FLAGS
PL6.E3A0      #002=QBA$DEACTIVATE_FORM File=QBA$ACTIVATE.:E05TSI                 WED 07/30/97 04:44 Page:209
      9674**DCL      9681--REDEF
QI$MAJOR_STATUS.INDICATORS.STATE_FLAGS
      9668**DCL      9673--REDEF
QI$MESSAGE_TYPE
     11758**DCL     11760--REDEF
QI$MINOR_NODE.WORD0
      8978**DCL      8979--REDEF
QI$MINOR_STATUS.INDICATORS
      9751**DCL      9783--REDEF
QI$MINOR_STATUS.INDICATORS.ENABLED_FLAGS
      9755**DCL      9760--REDEF
QI$MINOR_STATUS.INDICATORS.OPEN_FLAGS
      9767**DCL      9774--REDEF
QI$MINOR_STATUS.INDICATORS.STATE_FLAGS
      9761**DCL      9766--REDEF
QI$OP_ACCEPT.DATANAME@P
      6166**DCL      6167--REDEF
QI$OP_CALL.EPTR$
      6338**DCL      6339--REDEF
QI$OP_CLEAR.IO_FLAGS
      6371**DCL      6374--REDEF
QI$OP_DISPLAY.FIELD_A@P
      6638**DCL      6639--REDEF
QI$OP_ENABLE.IO_FLAGS
      6725**DCL      6728--REDEF
QI$OP_IFCLS.ATTRIBUTE.TYPE
      6818**DCL      6823--REDEF
QI$OP_INSPECT.TALLYING_FOR_ITEM@P
      7052**DCL      7053--REDEF
QI$OP_INSPECT.TALLYING_INITIAL_ITEM@P
      7054**DCL      7055--REDEF
QI$OP_INSPECT.TALLYING_ITEM@P
      7050**DCL      7051--REDEF
QI$OP_OPEN.IO_FLAGS
      7612**DCL      7615--REDEF
QI$OP_PERFM.BINARY_ITERATION_COUNT@P
PL6.E3A0      #002=QBA$DEACTIVATE_FORM File=QBA$ACTIVATE.:E05TSI                 WED 07/30/97 04:44 Page:210
      7650**DCL      7651--REDEF
QI$PSEUDO_CIP
      8151**DCL      8175--REDEF
QI$PSEUDO_CIP.ALPHANUMERIC
      8155**DCL      8160--REDEF
QI$PSEUDO_CIP.NUMERIC.CB
      8161**DCL      8164--REDEF    8167--REDEF
QI$TERMINAL_ATTRIBUTES
      9372**DCL      9385--REDEF
QI$TRAN_FILE.WORD0
      9157**DCL      9158--REDEF
QI$TRAN_STATUS.INDICATORS
     10092**DCL     10124--REDEF
QI$TRAN_STATUS.INDICATORS.ENABLED_FLAGS
     10096**DCL     10101--REDEF
QI$TRAN_STATUS.INDICATORS.OPEN_FLAGS
     10108**DCL     10115--REDEF
QI$TRAN_STATUS.INDICATORS.STATE_FLAGS
     10102**DCL     10107--REDEF
QI$VARIABLE_IDENTIFIER.LENGTH
     11771**DCL     11772--IMP-SIZ
QI_1.BASE
     10300**DCL     10307--REDEF
QI_1.BASE.DATA$
     10301**DCL     19296>>ASSIGN  19489>>ASSIGN
QI_1.BASE.PROC$
     10303**DCL     19256>>ASSIGN
QI_1.CURRENT.FILE$
     11191**DCL     11193--REDEF   11195--REDEF
QI_1.CURRENT.FILE_STATUS$
     11197**DCL     11199--REDEF   11201--REDEF
QI_1.CURRENT.FORM$
     11193**DCL     19234>>DOINDEX 19256>>ASSIGN  19404>>ASSIGN
QI_1.CURRENT.FRAME$
     11203**DCL     19256<<ASSIGN  19296>>ASSIGN
QI_1.CURRENT.FRAME_STATUS$
PL6.E3A0      #002=QBA$DEACTIVATE_FORM File=QBA$ACTIVATE.:E05TSI                 WED 07/30/97 04:44 Page:211
     11205**DCL     19296<<ASSIGN  19316>>IF      19387>>IF      19394>>ASSIGN  19536>>ASSIGN  19537>>ASSIGN
QI_1.DAD
     10995**DCL     11000--REDEF
QI_1.ERROR_STATUS
     11225**DCL     19390<<ASSIGN
QI_1.FILE_HEAD
     11178**DCL     11185--REDEF
QI_1.GZ.AVAILABLE$
     11170**DCL     19467<<ASSIGN  19513>>ASSIGN
QI_1.GZ.LAST_HEADER$
     11167**DCL     19459>>IF      19468<<ASSIGN  19509>>ASSIGN
QI_1.IS_ALL_LIT
     11001**DCL     11006--REDEF
QI_1.IS_FORM_VARIABLE
     11007**DCL     11012--REDEF
QI_1.IS_TEMP
     11013**DCL     11018--REDEF
QI_1.MESSAGE_LINE_DAD.PSEUDO_CIP
     11111**DCL     11136--REDEF
QI_1.MESSAGE_LINE_DAD.PSEUDO_CIP.ALPHANUMERIC
     11113**DCL     11118--REDEF
QI_1.MESSAGE_LINE_DAD.PSEUDO_CIP.NUMERIC.CB
     11119**DCL     11122--REDEF   11125--REDEF
QI_1.MESSAGE_LINE_DAD.WORD0
     11080**DCL     11081--REDEF
QI_1.OFFSET
     11019**DCL     11024--REDEF
QI_1.OP.CIP
     10380**DCL     10831--REDEF
QI_1.OP.CIP.AUX
     10746**DCL     10817--REDEF
QI_1.OP.CIP.AUX.CD
     10791**DCL     10794--REDEF   10798--REDEF   10801--REDEF
QI_1.OP.CIP.S
     10450**DCL     10521--REDEF
QI_1.OP.CIP.S.CD
PL6.E3A0      #002=QBA$DEACTIVATE_FORM File=QBA$ACTIVATE.:E05TSI                 WED 07/30/97 04:44 Page:212
     10495**DCL     10498--REDEF   10502--REDEF   10505--REDEF
QI_1.OP.CIP.T
     10598**DCL     10669--REDEF
QI_1.OP.CIP.T.CD
     10643**DCL     10646--REDEF   10650--REDEF   10653--REDEF
QI_1.OP.DATA
     10838**DCL     10842--REDEF
QI_1.OP.FILL_CHAR
     10962**DCL     10965--REDEF
QI_1.OP.INX
     10895**DCL     10899--REDEF   10900--REDEF   10904--REDEF
QI_1.OP.LEN
     10878**DCL     10882--REDEF   10883--REDEF   10887--REDEF   10888--REDEF   10892--REDEF
QI_1.OP.LEN.AUX
     10881**DCL     11782--IMP-SIZ
QI_1.OP.LEN.S
     10879**DCL     11778--IMP-SIZ
QI_1.OP.LEN.T
     10880**DCL     11780--IMP-SIZ
QI_1.OP.PICTURE_STRING
     10948**DCL     10951--REDEF   10952--REDEF   10955--REDEF   10956--REDEF   10959--REDEF
QI_1.OP.ROUND
     10981**DCL     10982--REDEF   10983--REDEF
QI_1.OP.SRCH_VRFY_ELEMS
     10917**DCL     10920--REDEF
QI_1.OPENED_COUNT
     11186**DCL     11189--REDEF
QI_1.OPENED_COUNT.FORM
     11187**DCL     19408>>IF
QI_1.OTTER_SPACE
     11025**DCL     11030--REDEF
QI_1.PICTURE_STRING
     11031**DCL     11036--REDEF
QI_1.SCREEN_UPDATE_FLAGS.WAS_DEACTIVATED
     10347**DCL     19453<<ASSIGN
QI_1.SPECIAL_NAMES
PL6.E3A0      #002=QBA$DEACTIVATE_FORM File=QBA$ACTIVATE.:E05TSI                 WED 07/30/97 04:44 Page:213
     11214**DCL     11223--REDEF
QI_1.TYPE
     11037**DCL     11042--REDEF
QI_16_BIT_BINARY
     16227**DCL     16297--REDEF
QI_16_BIT_BINARY.CB
     16246**DCL     16249--REDEF   16253--REDEF   16256--REDEF
QI_31_DIGIT_SLS_DISPLAY
     16060**DCL     16130--REDEF
QI_31_DIGIT_SLS_DISPLAY.CD
     16107**DCL     16110--REDEF   16114--REDEF   16117--REDEF
QI_31_DIGIT_ST_PACKED
     16562**DCL     16632--REDEF
QI_31_DIGIT_ST_PACKED.CP
     16595**DCL     16598--REDEF   16602--REDEF   16605--REDEF
QI_32_BIT_BINARY
     16394**DCL     16464--REDEF
QI_32_BIT_BINARY.CB
     16413**DCL     16416--REDEF   16420--REDEF   16423--REDEF
QI_4_CHAR_ALPHANUMERIC
     15892**DCL     15962--REDEF
QI_4_CHAR_ALPHANUMERIC.CA
     15897**DCL     15901--REDEF   15904--REDEF   15907--REDEF
QI_ACCUMULATOR_DAD.CIP
     16905**DCL     16976--REDEF
QI_ACCUMULATOR_DAD.CIP.CP
     16936**DCL     16939--REDEF   16943--REDEF   16946--REDEF
QI_ALR.CIP
     11857**DCL     12308--REDEF
QI_ALR.CIP.AUX
     12223**DCL     12294--REDEF
QI_ALR.CIP.AUX.CA
     12226**DCL     12230--REDEF   12233--REDEF   12236--REDEF
QI_ALR.CIP.S
     11927**DCL     11998--REDEF
QI_ALR.CIP.S.CA
PL6.E3A0      #002=QBA$DEACTIVATE_FORM File=QBA$ACTIVATE.:E05TSI                 WED 07/30/97 04:44 Page:214
     11930**DCL     11934--REDEF   11937--REDEF   11940--REDEF
QI_ALR.CIP.T
     12075**DCL     12146--REDEF
QI_ALR.CIP.T.CA
     12078**DCL     12082--REDEF   12085--REDEF   12088--REDEF
QI_ALR.DATA
     12315**DCL     12319--REDEF
QI_ALR.FILL_CHAR
     12439**DCL     12442--REDEF
QI_ALR.INX
     12372**DCL     12376--REDEF   12377--REDEF   12381--REDEF
QI_ALR.LEN
     12355**DCL     12359--REDEF   12360--REDEF   12364--REDEF   12365--REDEF   12369--REDEF
QI_ALR.PICTURE_STRING
     12425**DCL     12428--REDEF   12429--REDEF   12432--REDEF   12433--REDEF   12436--REDEF
QI_ALR.ROUND
     12458**DCL     12459--REDEF   12460--REDEF
QI_ALR.SRCH_VRFY_ELEMS
     12394**DCL     12397--REDEF
QI_FPT_DBCONTROL.V_
     17277**DCL     17277--REDEF
QI_FPT_FDS
     17662**DCL     19522>>ASSIGN
QI_FPT_INT.V_
     18115**DCL     18115--REDEF
QI_FPT_RLSFLD
     18489**DCL     19443>>ASSIGN
QI_FPT_SLCFLD
     18547**DCL     19402>>ASSIGN
QI_MAT.CIP
     15196**DCL     15647--REDEF
QI_MAT.CIP.AUX
     15562**DCL     15633--REDEF
QI_MAT.CIP.AUX.CA
     15565**DCL     15569--REDEF   15572--REDEF   15575--REDEF
QI_MAT.CIP.S
PL6.E3A0      #002=QBA$DEACTIVATE_FORM File=QBA$ACTIVATE.:E05TSI                 WED 07/30/97 04:44 Page:215
     15266**DCL     15337--REDEF
QI_MAT.CIP.S.CA
     15269**DCL     15273--REDEF   15276--REDEF   15279--REDEF
QI_MAT.CIP.T
     15414**DCL     15485--REDEF
QI_MAT.CIP.T.CA
     15417**DCL     15421--REDEF   15424--REDEF   15427--REDEF
QI_MAT.DATA
     15654**DCL     15658--REDEF
QI_MAT.DEC
     15722**DCL     15726--REDEF   15727--REDEF   15731--REDEF
QI_MAT.FILL_CHAR
     15778**DCL     15781--REDEF
QI_MAT.LEN
     15694**DCL     15698--REDEF   15699--REDEF   15703--REDEF   15704--REDEF   15708--REDEF
QI_MAT.PICTURE_STRING
     15764**DCL     15767--REDEF   15768--REDEF   15771--REDEF   15772--REDEF   15775--REDEF
QI_MAT.ROUND
     15797**DCL     15798--REDEF   15799--REDEF
QI_MAT.SRCH_VRFY_ELEMS
     15733**DCL     15736--REDEF
QI_PICTURE_STRING
     16730**DCL     16800--REDEF
QI_PICTURE_STRING.CA
     16735**DCL     16739--REDEF   16742--REDEF   16745--REDEF
QI_SRCH_VRFY.CIP
     14527**DCL     14978--REDEF
QI_SRCH_VRFY.CIP.AUX
     14893**DCL     14964--REDEF
QI_SRCH_VRFY.CIP.AUX.CA
     14896**DCL     14900--REDEF   14903--REDEF   14906--REDEF
QI_SRCH_VRFY.CIP.S
     14597**DCL     14668--REDEF
QI_SRCH_VRFY.CIP.S.CA
     14600**DCL     14604--REDEF   14607--REDEF   14610--REDEF
QI_SRCH_VRFY.CIP.T
PL6.E3A0      #002=QBA$DEACTIVATE_FORM File=QBA$ACTIVATE.:E05TSI                 WED 07/30/97 04:44 Page:216
     14745**DCL     14816--REDEF
QI_SRCH_VRFY.CIP.T.CA
     14748**DCL     14752--REDEF   14755--REDEF   14758--REDEF
QI_SRCH_VRFY.DATA
     14985**DCL     14989--REDEF
QI_SRCH_VRFY.DEC
     15053**DCL     15057--REDEF   15058--REDEF   15062--REDEF
QI_SRCH_VRFY.FILL_CHAR
     15109**DCL     15112--REDEF
QI_SRCH_VRFY.ROUND
     15128**DCL     15129--REDEF   15130--REDEF
QI_SRCH_VRFY.SRCH_RESULT
     15069**DCL     15072--REDEF   15073--REDEF   15076--REDEF   15077--REDEF   15080--REDEF
QI_SRCH_VRFY.SRCH_VRFY_ARGS
     14993**DCL     14997--REDEF   14998--REDEF   15002--REDEF   15003--REDEF   15007--REDEF
QI_SRCH_VRFY.SRCH_VRFY_ELEMS
     15064**DCL     15067--REDEF
QI_TYPE_BINARY_TARGET.CIP
     13854**DCL     14305--REDEF
QI_TYPE_BINARY_TARGET.CIP.AUX
     14220**DCL     14291--REDEF
QI_TYPE_BINARY_TARGET.CIP.AUX.CA
     14223**DCL     14227--REDEF   14230--REDEF   14233--REDEF
QI_TYPE_BINARY_TARGET.CIP.S
     13924**DCL     13995--REDEF
QI_TYPE_BINARY_TARGET.CIP.S.CA
     13927**DCL     13931--REDEF   13934--REDEF   13937--REDEF
QI_TYPE_BINARY_TARGET.CIP.T
     14072**DCL     14143--REDEF
QI_TYPE_BINARY_TARGET.CIP.T.CB
     14089**DCL     14092--REDEF   14096--REDEF   14099--REDEF
QI_TYPE_BINARY_TARGET.DATA
     14312**DCL     14316--REDEF
QI_TYPE_BINARY_TARGET.DEC
     14380**DCL     14384--REDEF   14385--REDEF   14389--REDEF
QI_TYPE_BINARY_TARGET.LEN
PL6.E3A0      #002=QBA$DEACTIVATE_FORM File=QBA$ACTIVATE.:E05TSI                 WED 07/30/97 04:44 Page:217
     14352**DCL     14356--REDEF   14357--REDEF   14361--REDEF   14362--REDEF   14366--REDEF
QI_TYPE_BINARY_TARGET.PICTURE_STRING
     14422**DCL     14425--REDEF   14426--REDEF   14429--REDEF   14430--REDEF   14433--REDEF
QI_TYPE_BINARY_TARGET.ROUND
     14455**DCL     14456--REDEF   14457--REDEF
QI_TYPE_BINARY_TARGET.SIZE_ERROR
     14441**DCL     14442--REDEF
QI_TYPE_BINARY_TARGET.SRCH_VRFY_ELEMS
     14391**DCL     14394--REDEF
QI_TYPE_DISPLAY_SOURCE.CIP
     12522**DCL     12973--REDEF
QI_TYPE_DISPLAY_SOURCE.CIP.AUX
     12888**DCL     12959--REDEF
QI_TYPE_DISPLAY_SOURCE.CIP.AUX.CA
     12891**DCL     12895--REDEF   12898--REDEF   12901--REDEF
QI_TYPE_DISPLAY_SOURCE.CIP.S
     12592**DCL     12663--REDEF
QI_TYPE_DISPLAY_SOURCE.CIP.S.CD
     12637**DCL     12640--REDEF   12644--REDEF   12647--REDEF
QI_TYPE_DISPLAY_SOURCE.CIP.T
     12740**DCL     12811--REDEF
QI_TYPE_DISPLAY_SOURCE.CIP.T.CA
     12743**DCL     12747--REDEF   12750--REDEF   12753--REDEF
QI_TYPE_DISPLAY_SOURCE.DATA
     12980**DCL     12984--REDEF
QI_TYPE_DISPLAY_SOURCE.DEC
     13048**DCL     13052--REDEF   13053--REDEF   13057--REDEF
QI_TYPE_DISPLAY_SOURCE.LEN
     13020**DCL     13024--REDEF   13025--REDEF   13029--REDEF   13030--REDEF   13034--REDEF
QI_TYPE_DISPLAY_SOURCE.PICTURE_STRING
     13090**DCL     13093--REDEF   13094--REDEF   13097--REDEF   13098--REDEF   13101--REDEF
QI_TYPE_DISPLAY_SOURCE.ROUND
     13123**DCL     13124--REDEF   13125--REDEF
QI_TYPE_DISPLAY_SOURCE.SIZE_ERROR
     13109**DCL     13110--REDEF
QI_TYPE_DISPLAY_SOURCE.SRCH_VRFY_ELEMS
PL6.E3A0      #002=QBA$DEACTIVATE_FORM File=QBA$ACTIVATE.:E05TSI                 WED 07/30/97 04:44 Page:218
     13059**DCL     13062--REDEF
QI_TYPE_DISPLAY_TARGET.CIP
     13188**DCL     13639--REDEF
QI_TYPE_DISPLAY_TARGET.CIP.AUX
     13554**DCL     13625--REDEF
QI_TYPE_DISPLAY_TARGET.CIP.AUX.CA
     13557**DCL     13561--REDEF   13564--REDEF   13567--REDEF
QI_TYPE_DISPLAY_TARGET.CIP.S
     13258**DCL     13329--REDEF
QI_TYPE_DISPLAY_TARGET.CIP.S.CA
     13261**DCL     13265--REDEF   13268--REDEF   13271--REDEF
QI_TYPE_DISPLAY_TARGET.CIP.T
     13406**DCL     13477--REDEF
QI_TYPE_DISPLAY_TARGET.CIP.T.CD
     13451**DCL     13454--REDEF   13458--REDEF   13461--REDEF
QI_TYPE_DISPLAY_TARGET.DATA
     13646**DCL     13650--REDEF
QI_TYPE_DISPLAY_TARGET.DEC
     13714**DCL     13718--REDEF   13719--REDEF   13723--REDEF
QI_TYPE_DISPLAY_TARGET.LEN
     13686**DCL     13690--REDEF   13691--REDEF   13695--REDEF   13696--REDEF   13700--REDEF
QI_TYPE_DISPLAY_TARGET.PICTURE_STRING
     13756**DCL     13759--REDEF   13760--REDEF   13763--REDEF   13764--REDEF   13767--REDEF
QI_TYPE_DISPLAY_TARGET.ROUND
     13789**DCL     13790--REDEF   13791--REDEF
QI_TYPE_DISPLAY_TARGET.SIZE_ERROR
     13775**DCL     13776--REDEF
QI_TYPE_DISPLAY_TARGET.SRCH_VRFY_ELEMS
     13725**DCL     13728--REDEF
QI_VLP_SEGMENT.BASE
     17814**DCL     17814--REDEF
QI_VLP_SEGMENT.BASE$
     17814**DCL     19513>>ASSIGN
QI_VLP_SEGMENT.PAGES
     17814**DCL     19513>>ASSIGN
QI_VLP_SEGMENT_BUFFER.BASE
PL6.E3A0      #002=QBA$DEACTIVATE_FORM File=QBA$ACTIVATE.:E05TSI                 WED 07/30/97 04:44 Page:219
     17912**DCL     17912--REDEF
QI_VLP_SEGMENT_LOAD.BASE
     18010**DCL     18010--REDEF
QI_VLP_TRMCTL.BREAKCOUNT
     19004**DCL     19005--REDEF
QI_VLP_XBREAK.IC
     19194**DCL     19194--REDEF
QI_VLP_XBREAK.OLDIC
     19194**DCL     19195--REDEF   19195--REDEF
TOTAL_GZ_SPACE_IN_PAGES
     19226**DCL     19513<<ASSIGN  19517>>IF      19524>>ASSIGN
