VERSION E05

PL6.E3A0      #001=QBC$CALL File=QBC$CALL.:E05TSI                                WED 07/30/97 04:43 Page:1
        1        1        /*M* QBC$CALL:  CALL another external routine.  */
        2        2        /*T***********************************************************/
        3        3        /*T*                                                         */
        4        4        /*T* Copyright (c) Bull HN Information Systems Inc., 1997    */
        5        5        /*T*                                                         */
        6        6        /*T***********************************************************/
        7        7        /*X* DMC,PLM=4,IND=0,DCI=4,CSI=2,IAD=2,DTI=2,AND,ECI=0,DIN=2,STI=2 */
        8        8
        9        9        /*P*  NAME:         QBC$CALL
       10       10              PURPOSE:      CALL another external routine.
       11       11              DESCRIPTION:  The currently executing routine wishes to enter
       12       12                            another external routine (within the same rununit).
       13       13                            The routine may be FPL or PL6.
       14       14        */
       15       15
       16       16        QBC$CALL: PROC;
       17       17
       18       18        /*D*  NAME:         QBC$CALL
       19       19              CALL:         CALL QBC$CALL;
       20       20              PARAMETERS:   None.
       21       21              INTERFACE:    Called by QAT$TALLYHO when a CALL op-code is
       22       22                            encountered.
       23       23                            Further, calls QCC$CALL to do the actual exit to
       24       24                            the called routine.
       25       25              ENVIRONMENT:  Note that the called routine will be acquiring
       26       26                            AUTO storage through the same mechanism as the
       27       27                            interpreter, so the stacks will be "merged".
       28       28                            Maybe that isn't right?
       29       29              INPUT:        QI_1,
       30       30                            FPL rununit static data following the op-code.
       31       31              OUTPUT:       Surprise, new routine.
       32       32              SCRATCH:      Various otter data,
       33       33                            saves a copy of the current state of QI_1.
       34       34              DESCRIPTION:  The compiler has been generous enough to generate
       35       35                            interpreter-entering code which, when calling
       36       36                            X6A_[M]AUTO[_n], asked for enough room to contain
       37       37                            not only the arguments being passed to the currently
PL6.E3A0      #001=QBC$CALL File=QBC$CALL.:E05TSI                                WED 07/30/97 04:43 Page:2
       38       38                            executing routine, but also enough room for
       39       39                            the largest number of arguments passed to other
       40       40                            routines by any CALL statements within the currently
       41       41                            executing routine.  Sooo, we'll find that extra
       42       42                            few words of auto left behind and use them to set up
       43       43                            the arguments to the routine we're entering.
       44       44                            QCC$CALL (an assembly routine) is called to do the
       45       45                            appropriate register-loading and the actual LNJ to
       46       46                            the new routine.
       47       47        */
       48       48
       49       49          %INCLUDE LCP_6;
       50      240
       51      241          %INCLUDE QG_MACRO_M;
       52      378          %INCLUDE QI_EQUATES_E;
       53      737          %INCLUDE QI_PERR_C;
       54      905          %INCLUDE QI_MACROS_M;
       55     5963          %QI$ALL;
       56    17076          %QI_FPTS;
       57    19121
       58    19122          %QI@OTTER_SPACE ( NAME = QI@1_SAVE,
       59    19123                            BYTE_SIZE = 44 );
       60    19151          %QI@OTTER_SPACE ( NAME = QI$1,
       61    19152                            BYTE_SIZE = 44,
       62    19153                            STCLASS = "BASED" );
       63    19181
       64    19182    1     DCL ARGUMENT_COUNT UBIN;
       65    19183    1     DCL ARGUMENT_INDEX UBIN;
       66    19184    1     DCL 1 CALL_STRUCTURE,
       67    19185    1           2 PTR_LIST$ PTR,
       68    19186    1           2 DESCRIPTOR_LIST$ PTR,
       69    19187    1           2 EPTR$ EPTR,
       70    19188    1           2 PTR$ REDEF EPTR$ PTR;
       71    19189    1     DCL FREE_AUTO$ PTR;
       72    19190    1     DCL INSTR$ PTR;
       73    19191
       74    19192    1     DCL QCC$CALL ENTRY (2);
PL6.E3A0      #001=QBC$CALL File=QBC$CALL.:E05TSI                                WED 07/30/97 04:43 Page:3
       75    19193    1     DCL QCE$ERROR ENTRY (4);
       76    19194    1     DCL QCE$EXPERIENCE_M$XBREAK ENTRY;
       77    19195    1     DCL QCS$SETUP_SOURCE ENTRY;
       78    19196        %EJECT;
PL6.E3A0      #001=QBC$CALL File=QBC$CALL.:E05TSI                                WED 07/30/97 04:43 Page:4
       79    19197    1       INSTR$ = QI_1.INSTR$;
       80    19198    1       ARGUMENT_COUNT = INSTR$ -> QI$OP_CALL.DESCRIPTOR_LIST.ARGUMENT_COUNT;
       81    19199    1       QI_1.INSTR$ = PINCRW ( INSTR$, ARGUMENT_COUNT + 4 );
       82    19200
       83    19201    1       IF INSTR$ -> QI$OP_CALL.EPTR$ = ENTADDR ( NIL )
       84    19202    1       THEN
       85    19203    2         DO;
       86    19204                /*  Attempt to CALL an undefined entry.  */
       87    19205    2           CALL QCE$ERROR ( %E$CALL_UNSATISFIED_REFERENCE );
       88    19206    2         END;
       89    19207
       90    19208    1       QI_1.SOURCE$ = ADDR ( INSTR$ -> QI$OP_CALL.ARGUMENT_A@P (0) );
       91    19209
       92    19210    1       FREE_AUTO$ = ADDR ( QI_1.ARGUMENTS_AND_OR_FREE_AUTO_A$$ ->
       93    19211    1         QI$PTR_A$ ( QI_1.INITIALIZATION_BLOCK$ -> QI$INITIALIZATION_BLOCK.
             19211                  EXPECTED_ARGUMENT_COUNT ) );
       94    19212
       95    19213    2       DO ARGUMENT_INDEX = 0 TO ARGUMENT_COUNT - 1;
       96    19214
       97    19215    2         CALL QCS$SETUP_SOURCE;
       98    19216
       99    19217    2         FREE_AUTO$ -> QI$PTR_A$ ( ARGUMENT_INDEX ) = QI_1.OP.DATA.S$;
      100    19218
      101    19219    2       END;
      102    19220
      103    19221    1       CALL_STRUCTURE.PTR_LIST$ =
      104    19222    1         ADDR ( FREE_AUTO$ -> QI$PTR_A$ (0) );
      105    19223    1       CALL_STRUCTURE.DESCRIPTOR_LIST$ =
      106    19224    1         ADDR ( INSTR$ -> QI$OP_CALL.DESCRIPTOR_LIST );
      107    19225    1       CALL_STRUCTURE.EPTR$ = INSTR$ -> QI$OP_CALL.EPTR$;
      108    19226
      109    19227            /*  If the debugger wants to TRACE CALLS,
      110    19228                give it the old IC (INSTR$) and the new IC (EPTR$).  */
      111    19229    1       IF QI_VLP_XBREAK.TC
      112    19230    1       THEN
      113    19231    1   REPORT_CALL:
      114    19232    2         DO;
PL6.E3A0      #001=QBC$CALL File=QBC$CALL.:E05TSI                                WED 07/30/97 04:43 Page:5
      115    19233    2           QI_VLP_XBREAK.OLDIC$ = INSTR$;
      116    19234    2           QI_VLP_XBREAK.IC$ = CALL_STRUCTURE.PTR$;
      117    19235    2           QI_VLP_XBREAK.TRAP# = %G_TRACE#;
      118    19236
      119    19237    2           CALL QCE$EXPERIENCE_M$XBREAK;
      120    19238    2         END REPORT_CALL;
      121    19239
      122    19240            /*  There are a few items, like the beginning addresses of
      123    19241                PROCedure and DATA, the INSTRuction$, etc., which need
      124    19242                to be saved away before entering a subroutine.
      125    19243                QI@1 will stash away everything from the beginning of
      126    19244                the QI_1 structure up to, but not including,
      127    19245                QI_1.SCREEN_UPDATE_FLAGS.  */
      128    19246    1       QI@1_SAVE = QI_1;
      129    19247
      130    19248    1       CALL QCC$CALL ( CALL_STRUCTURE );
      131    19249
      132    19250            /*  Put back the saved stuff.  Notice that we won't put back
      133    19251                global things which could have been updated by the CALLer,
      134    19252                such as the chain of open files.
      135    19253                Hope we haven't forgotten anything.  */
      136    19254    1       ADDR ( QI_1 ) -> QI$1 = QI@1_SAVE;
      137    19255
      138    19256    1       RETURN;
      139    19257
      140    19258    1   END QBC$CALL;

PL6.E3A0      #001=QBC$CALL File=QBC$CALL.:E05TSI                                WED 07/30/97 04:43 Page:6
--  Include file information  --

   QI_MACROS_M.:E05TOU  is referenced.
   QI_PERR_C.:E05TOU  is referenced.
   QI_EQUATES_E.:E05TOU  is referenced.
   QG_MACRO_M.:E05TOU  is referenced.
   LCP_6.:E05TOU  cannot be made into a system file and is referenced.
   G_LCP6_E.:E05TOU  was found in the system file and is referenced.
   GT_LCP6_M.:E05TOU  was found in the system file and is referenced.
   KI_CP6.:E05TOU  was found in the system file and is referenced.
   GF_LCP6_M.:E05TOU  was found in the system file and is referenced.
   GM_LCP6_M.:E05TOU  was found in the system file and is referenced.
   GU_LCP6_M.:E05TOU  was found in the system file and is referenced.
   GJ_LCP6_M.:E05TOU  was found in the system file and is referenced.
   GH_LCP6_M.:E05TOU  was found in the system file and is referenced.
      No diagnostics issued in procedure QBC$CALL.

   Procedure QBC$CALL requires 153 words for executable code.
   Procedure QBC$CALL requires 40 words of local(AUTO) storage.

    No errors detected in file QBC$CALL.:E05TSI    .

PL6.E3A0      #001=QBC$CALL File=QBC$CALL.:E05TSI                                WED 07/30/97 04:43 Page:7

 Object Unit name= QBC$CALL                                   File name= QBC$CALL.:E05TOU
 UTS= JUL 30 '97 04:43:06.84 WED                              Compiler= PL-6/E31         Sev=      00
 SharedLib= :SHARED_LCP6_SYSTEM                               Alt SharedLib=


    ****  Control sections  ****

 Sect   Type Bound  Init  Size HexSiz  Section name
    0   Proc  even  none   153     99  QBC$CALL
    1  RoData even  none     5      5  QBC$CALL

    ****  Entry defs  ****

                              Check   Calling
                             calling  sequence
  Sect HexLoc Primary Altret sequence   type   Parms  Name
     0      0   yes            yes      Std        0  QBC$CALL

  ****  Entry refs  ****

         Check        Calling
        calling       sequence
Altret sequence SRef   type   Args  Name
         yes           Std       4 QCE$ERROR
         yes           Std       0 QCS$SETUP_SOURCE
         yes           Std       0 QCE$EXPERIENCE_M$XBREAK
         yes           Std       2 QCC$CALL
                       nStd      0 X6A_AUTO_0
                       nStd      0 X6A_ARET
PL6.E3A0      #001=QBC$CALL File=QBC$CALL.:E05TSI                                WED 07/30/97 04:43 Page:8

  ****  Data refs  ****

  Flags:  r = read only, s = secondary
Flgs Name                             Flgs Name                             Flgs Name
     QI_1                                  QI_4_CHAR_ALPHANUMERIC                QI_31_DIGIT_SLS_DISPLAY
     QI_16_BIT_BINARY                      QI_32_BIT_BINARY                      QI_31_DIGIT_ST_PACKED
     QI_PICTURE_STRING                     QI_VLP_XBREAK                    r    G$ROS$
PL6.E3A0      #001=QBC$CALL File=QBC$CALL.:E05TSI                                WED 07/30/97 04:43 Page:9


        1        1        /*M* QBC$CALL:  CALL another external routine.  */
        2        2        /*T***********************************************************/
        3        3        /*T*                                                         */
        4        4        /*T* Copyright (c) Bull HN Information Systems Inc., 1997    */
        5        5        /*T*                                                         */
        6        6        /*T***********************************************************/
        7        7        /*X* DMC,PLM=4,IND=0,DCI=4,CSI=2,IAD=2,DTI=2,AND,ECI=0,DIN=2,STI=2 */
        8        8
        9        9        /*P*  NAME:         QBC$CALL
       10       10              PURPOSE:      CALL another external routine.
       11       11              DESCRIPTION:  The currently executing routine wishes to enter
       12       12                            another external routine (within the same rununit).
       13       13                            The routine may be FPL or PL6.
       14       14        */
       15       15
       16       16        QBC$CALL: PROC;

     16   0 000000  D380 0000 0000  xent QBC$CALL        LNJ,B5   X6A_AUTO_0
          0 000003       0028 0000                       DC       40,0

       17       17
       18       18        /*D*  NAME:         QBC$CALL
       19       19              CALL:         CALL QBC$CALL;
       20       20              PARAMETERS:   None.
       21       21              INTERFACE:    Called by QAT$TALLYHO when a CALL op-code is
       22       22                            encountered.
       23       23                            Further, calls QCC$CALL to do the actual exit to
       24       24                            the called routine.
       25       25              ENVIRONMENT:  Note that the called routine will be acquiring
       26       26                            AUTO storage through the same mechanism as the
       27       27                            interpreter, so the stacks will be "merged".
       28       28                            Maybe that isn't right?
       29       29              INPUT:        QI_1,
       30       30                            FPL rununit static data following the op-code.
       31       31              OUTPUT:       Surprise, new routine.
       32       32              SCRATCH:      Various otter data,
PL6.E3A0      #001=QBC$CALL File=QBC$CALL.:E05TSI                                WED 07/30/97 04:43 Page:10
       33       33                            saves a copy of the current state of QI_1.
       34       34              DESCRIPTION:  The compiler has been generous enough to generate
       35       35                            interpreter-entering code which, when calling
       36       36                            X6A_[M]AUTO[_n], asked for enough room to contain
       37       37                            not only the arguments being passed to the currently
       38       38                            executing routine, but also enough room for
       39       39                            the largest number of arguments passed to other
       40       40                            routines by any CALL statements within the currently
       41       41                            executing routine.  Sooo, we'll find that extra
       42       42                            few words of auto left behind and use them to set up
       43       43                            the arguments to the routine we're entering.
       44       44                            QCC$CALL (an assembly routine) is called to do the
       45       45                            appropriate register-loading and the actual LNJ to
       46       46                            the new routine.
       47       47        */
       48       48
       49       49          %INCLUDE LCP_6;
       50      240
       51      241          %INCLUDE QG_MACRO_M;
       52      378          %INCLUDE QI_EQUATES_E;
       53      737          %INCLUDE QI_PERR_C;
       54      905          %INCLUDE QI_MACROS_M;
       55     5963          %QI$ALL;
       56    17076          %QI_FPTS;
       57    19121
       58    19122          %QI@OTTER_SPACE ( NAME = QI@1_SAVE,
       59    19123                            BYTE_SIZE = 44 );
       60    19151          %QI@OTTER_SPACE ( NAME = QI$1,
       61    19152                            BYTE_SIZE = 44,
       62    19153                            STCLASS = "BASED" );
       63    19181
       64    19182    1     DCL ARGUMENT_COUNT UBIN;
       65    19183    1     DCL ARGUMENT_INDEX UBIN;
       66    19184    1     DCL 1 CALL_STRUCTURE,
       67    19185    1           2 PTR_LIST$ PTR,
       68    19186    1           2 DESCRIPTOR_LIST$ PTR,
       69    19187    1           2 EPTR$ EPTR,
PL6.E3A0      #001=QBC$CALL File=QBC$CALL.:E05TSI                                WED 07/30/97 04:43 Page:11
       70    19188    1           2 PTR$ REDEF EPTR$ PTR;
       71    19189    1     DCL FREE_AUTO$ PTR;
       72    19190    1     DCL INSTR$ PTR;
       73    19191
       74    19192    1     DCL QCC$CALL ENTRY (2);
       75    19193    1     DCL QCE$ERROR ENTRY (4);
       76    19194    1     DCL QCE$EXPERIENCE_M$XBREAK ENTRY;
       77    19195    1     DCL QCS$SETUP_SOURCE ENTRY;
       78    19196        %EJECT;
PL6.E3A0      #001=QBC$CALL File=QBC$CALL.:E05TSI                                WED 07/30/97 04:43 Page:12
       79    19197    1       INSTR$ = QI_1.INSTR$;

  19197   0 000005  EC80 0000 0006  xsym                 LDB,B6   QI_1+6
          0 000008  EFC7 0024                            STB,B6   INSTR$,AUTO

       80    19198    1       ARGUMENT_COUNT = INSTR$ -> QI$OP_CALL.DESCRIPTOR_LIST.ARGUMENT_COUNT;

  19198   0 00000A  E2C6 0003                            LLH,R6   3,B6
          0 00000C  EF47 001A                            STR,R6   ARGUMENT_COUNT,AUTO

       81    19199    1       QI_1.INSTR$ = PINCRW ( INSTR$, ARGUMENT_COUNT + 4 );

  19199   0 00000E  F856                                 LDR,R7   R6
          0 00000F  6C00                                 LDV,R6   0
          0 000010  8447 0024                            AID      INSTR$,AUTO
          0 000012  8470 0000 0004                       AID      4,IMO
          0 000015  8D00 0000 0006  xsym                 SDI      QI_1+6

       82    19200
       83    19201    1       IF INSTR$ -> QI$OP_CALL.EPTR$ = ENTADDR ( NIL )

  19201   0 000018  DCC6 0001                            LDB,B5   1,B6
          0 00001A  DD80 0000 0000  01                   CMB,B5   0
          0 00001D  0981 000A                            BNE      s:19208,PREL

       84    19202    1       THEN
       85    19203    2         DO;

       86    19204                /*  Attempt to CALL an undefined entry.  */
       87    19205    2           CALL QCE$ERROR ( %E$CALL_UNSATISFIED_REFERENCE );

  19205   0 00001F  BB80 0000 0003  01                   LAB,B3   +3
          0 000022  CBF0 0100                            LAB,B4   256,IMO
          0 000024  E380 0000 0000  xent                 LNJ,B6   QCE$ERROR
          0 000027       0001                            DC       s:19208,PREL

       88    19206    2         END;
PL6.E3A0      #001=QBC$CALL File=QBC$CALL.:E05TSI                                WED 07/30/97 04:43 Page:13

       89    19207
       90    19208    1       QI_1.SOURCE$ = ADDR ( INSTR$ -> QI$OP_CALL.ARGUMENT_A@P (0) );

  19208   0 000028  ECC7 0024                            LDB,B6   INSTR$,AUTO
          0 00002A  DBC6 0004                            LAB,B5   4,B6
          0 00002C  DF80 0000 0018  xsym                 STB,B5   QI_1+24

       91    19209
       92    19210    1       FREE_AUTO$ = ADDR ( QI_1.ARGUMENTS_AND_OR_FREE_AUTO_A$$ ->

  19210   0 00002F  CC80 0000 000A  xsym                 LDB,B4   QI_1+10
          0 000032  B844 0004                            LDR,R3   4,B4
          0 000034  BC80 0000 000C  xsym                 LDB,B3   QI_1+12
          0 000037  3001                                 SOL,R3   1
          0 000038  ABB3                                 LAB,B2   ,B3,R3
          0 000039  AFC7 0022                            STB,B2   FREE_AUTO$,AUTO

       93    19211    1         QI$PTR_A$ ( QI_1.INITIALIZATION_BLOCK$ -> QI$INITIALIZATION_BLOCK.
             19211                  EXPECTED_ARGUMENT_COUNT ) );
       94    19212
       95    19213    2       DO ARGUMENT_INDEX = 0 TO ARGUMENT_COUNT - 1;

  19213   0 00003B  8747 001B                            CL       ARGUMENT_INDEX,AUTO
          0 00003D  0F81 0011                            B        s:19219+2,PREL

       96    19214
       97    19215    2         CALL QCS$SETUP_SOURCE;

  19215   0 00003F  CBF0 0000                            LAB,B4   0,IMO
          0 000041  E380 0000 0000  xent                 LNJ,B6   QCS$SETUP_SOURCE
          0 000044       0001                            DC       s:19217,PREL

       98    19216
       99    19217    2         FREE_AUTO$ -> QI$PTR_A$ ( ARGUMENT_INDEX ) = QI_1.OP.DATA.S$;

  19217   0 000045  EC80 0000 0020  xsym                 LDB,B6   QI_1+32
PL6.E3A0      #001=QBC$CALL File=QBC$CALL.:E05TSI                                WED 07/30/97 04:43 Page:14
          0 000048  DCC7 0022                            LDB,B5   FREE_AUTO$,AUTO
          0 00004A  B847 001B                            LDR,R3   ARGUMENT_INDEX,AUTO
          0 00004C  EFB5                                 STB,B6   ,B5,R3

      100    19218
      101    19219    2       END;

  19219   0 00004D  8AC7 001B                            INC      ARGUMENT_INDEX,AUTO
          0 00004F  E847 001B                            LDR,R6   ARGUMENT_INDEX,AUTO
          0 000051  E947 001A                            CMR,R6   ARGUMENT_COUNT,AUTO
          0 000053  026C                                 BL       s:19215,SPREL

      102    19220
      103    19221    1       CALL_STRUCTURE.PTR_LIST$ =

  19221   0 000054  ECC7 0022                            LDB,B6   FREE_AUTO$,AUTO
          0 000056  EFC7 001C                            STB,B6   CALL_STRUCTURE,AUTO

      104    19222    1         ADDR ( FREE_AUTO$ -> QI$PTR_A$ (0) );
      105    19223    1       CALL_STRUCTURE.DESCRIPTOR_LIST$ =

  19223   0 000058  DCC7 0024                            LDB,B5   INSTR$,AUTO
          0 00005A  CBC5 0003                            LAB,B4   3,B5
          0 00005C  CFC7 001E                            STB,B4   CALL_STRUCTURE+2,AUTO

      106    19224    1         ADDR ( INSTR$ -> QI$OP_CALL.DESCRIPTOR_LIST );
      107    19225    1       CALL_STRUCTURE.EPTR$ = INSTR$ -> QI$OP_CALL.EPTR$;

  19225   0 00005E  BCC5 0001                            LDB,B3   1,B5
          0 000060  BFC7 0020                            STB,B3   CALL_STRUCTURE+4,AUTO

      108    19226
      109    19227            /*  If the debugger wants to TRACE CALLS,
      110    19228                give it the old IC (INSTR$) and the new IC (EPTR$).  */
      111    19229    1       IF QI_VLP_XBREAK.TC

  19229   0 000062  8280 0000 0006  xsym                 LB,'0010'X        QI_VLP_XBREAK+6
PL6.E3A0      #001=QBC$CALL File=QBC$CALL.:E05TSI                                WED 07/30/97 04:43 Page:15
  19229   0 000065       0010
          0 000066  0581 0013                            BBF      s:19246,PREL

      112    19230    1       THEN
      113    19231    1   REPORT_CALL:
      114    19232    2         DO;

  19232   0                              REPORT_CALL     null
      115    19233    2           QI_VLP_XBREAK.OLDIC$ = INSTR$;

  19233   0 000068  DF80 0000 0002  xsym REPORT_CALL     STB,B5   QI_VLP_XBREAK+2

      116    19234    2           QI_VLP_XBREAK.IC$ = CALL_STRUCTURE.PTR$;

  19234   0 00006B  ACC7 0020                            LDB,B2   CALL_STRUCTURE+4,AUTO
          0 00006D  AF80 0000 0000  xsym                 STB,B2   QI_VLP_XBREAK

      117    19235    2           QI_VLP_XBREAK.TRAP# = %G_TRACE#;

  19235   0 000070  5C02                                 LDV,R5   2
          0 000071  D780 0000 0006  xsym                 STH,R5   QI_VLP_XBREAK+6

      118    19236
      119    19237    2           CALL QCE$EXPERIENCE_M$XBREAK;

  19237   0 000074  CBF0 0000                            LAB,B4   0,IMO
          0 000076  E380 0000 0000  xent                 LNJ,B6   QCE$EXPERIENCE_M$XBREAK
          0 000079       0001                            DC       s:19246,PREL

      120    19238    2         END REPORT_CALL;

      121    19239
      122    19240            /*  There are a few items, like the beginning addresses of
      123    19241                PROCedure and DATA, the INSTRuction$, etc., which need
      124    19242                to be saved away before entering a subroutine.
      125    19243                QI@1 will stash away everything from the beginning of
      126    19244                the QI_1 structure up to, but not including,
PL6.E3A0      #001=QBC$CALL File=QBC$CALL.:E05TSI                                WED 07/30/97 04:43 Page:16
      127    19245                QI_1.SCREEN_UPDATE_FLAGS.  */
      128    19246    1       QI@1_SAVE = QI_1;

  19246   0 00007A  AB80 0000 0000  xsym                 LAB,B2   QI_1
          0 00007D  2C00                                 LDV,R2   0
          0 00007E  6C2C                                 LDV,R6   44
          0 00007F  BB87                                 LAB,B3   ,AUTO
          0 000080  3C08                                 LDV,R3   8
          0 000081  0008                                 MMM

      129    19247
      130    19248    1       CALL QCC$CALL ( CALL_STRUCTURE );

  19248   0 000082  EBC7 001C                            LAB,B6   CALL_STRUCTURE,AUTO
          0 000084  EFC7 0026                            STB,B6   INSTR$+2,AUTO
          0 000086  BBC7 0026                            LAB,B3   INSTR$+2,AUTO
          0 000088  CBF0 0100                            LAB,B4   256,IMO
          0 00008A  E380 0000 0000  xent                 LNJ,B6   QCC$CALL
          0 00008D       0001                            DC       s:19254,PREL

      131    19249
      132    19250            /*  Put back the saved stuff.  Notice that we won't put back
      133    19251                global things which could have been updated by the CALLer,
      134    19252                such as the chain of open files.
      135    19253                Hope we haven't forgotten anything.  */
      136    19254    1       ADDR ( QI_1 ) -> QI$1 = QI@1_SAVE;

  19254   0 00008E  AB87                                 LAB,B2   ,AUTO
          0 00008F  2C08                                 LDV,R2   8
          0 000090  6C2C                                 LDV,R6   44
          0 000091  BB80 0000 0000  xsym                 LAB,B3   QI_1
          0 000094  3C00                                 LDV,R3   0
          0 000095  0008                                 MMM

      137    19255
      138    19256    1       RETURN;

PL6.E3A0      #001=QBC$CALL File=QBC$CALL.:E05TSI                                WED 07/30/97 04:43 Page:17
  19256   0 000096  C380 0000 0000  xent                 LNJ,B4   X6A_ARET
      139    19257
      140    19258    1   END QBC$CALL;

PL6.E3A0      #001=QBC$CALL File=QBC$CALL.:E05TSI                                WED 07/30/97 04:43 Page:18
--  Include file information  --

   QI_MACROS_M.:E05TOU  is referenced.
   QI_PERR_C.:E05TOU  is referenced.
   QI_EQUATES_E.:E05TOU  is referenced.
   QG_MACRO_M.:E05TOU  is referenced.
   LCP_6.:E05TOU  cannot be made into a system file and is referenced.
   G_LCP6_E.:E05TOU  was found in the system file and is referenced.
   GT_LCP6_M.:E05TOU  was found in the system file and is referenced.
   KI_CP6.:E05TOU  was found in the system file and is referenced.
   GF_LCP6_M.:E05TOU  was found in the system file and is referenced.
   GM_LCP6_M.:E05TOU  was found in the system file and is referenced.
   GU_LCP6_M.:E05TOU  was found in the system file and is referenced.
   GJ_LCP6_M.:E05TOU  was found in the system file and is referenced.
   GH_LCP6_M.:E05TOU  was found in the system file and is referenced.
      No diagnostics issued in procedure QBC$CALL.
PL6.E3A0      #001=QBC$CALL File=QBC$CALL.:E05TSI                                WED 07/30/97 04:43 Page:19

 **** Variables and constants ****

  ****  Auto variables  ****

  ****  Scalars and arrays  ****
HexLoc.c.b A Datatyp(siz) R M Lvl/name                 HexLoc.c.b A Datatyp(siz) R M Lvl/name

    1A-0-0/w UBIN(16)    r     1 ARGUMENT_COUNT            1B-0-0/w UBIN(16)    r     1 ARGUMENT_INDEX
    1C-0-0/w STRC(96)    r     1 CALL_STRUCTURE            22-0-0/w PTR         r     1 FREE_AUTO$
    24-0-0/w PTR         r     1 INSTR$                     4-0-0/w STRC(352)   r     1 QI@1_SAVE

  ****  SYMREF variables  ****

  ****  Scalars and arrays  ****
HexLoc.c.b A Datatyp(siz) R M Lvl/name                 HexLoc.c.b A Datatyp(siz) R M Lvl/name

     0-0-0/d STRC(2576)  r     1 QI_1                       0-0-0/w STRC(112)   r     1 QI_VLP_XBREAK

  ****  BASED and DCB variables  ****

  ****  Scalars and arrays  ****
HexLoc.c.b A Datatyp(siz) R M Lvl/name                 HexLoc.c.b A Datatyp(siz) R M Lvl/name

     0-0-0/w STRC(352)   r     1 QI$1
     0-0-0/w STRC(336)   r     1 QI$INITIALIZATION_BLOCK
     0-0-0/w STRC(80)    r     1 QI$OP_CALL
     0-0-0/w PTR         r     1 QI$PTR_A$(0:0)
     0-0-0/c ASTR(8)     r     1 QI$VARIABLE_IDENTIFIER


   Procedure QBC$CALL requires 153 words for executable code.
   Procedure QBC$CALL requires 40 words of local(AUTO) storage.

    No errors detected in file QBC$CALL.:E05TSI    .
PL6.E3A0      #001=QBC$CALL File=QBC$CALL.:E05TSI                                WED 07/30/97 04:43 Page:20
          *** CROSS REFERENCE LISTING ***
**     DENOTES     IDENTIFIER DEFINITION
<<                 IDENTIFIER'S VALUE SET
>>                 IDENTIFIER'S VALUE USED
<>                 IDENTIFIER SET AND/OR USED
--                 IDENTIFIER REFERENCED
PL6.E3A0      #001=QBC$CALL File=QBC$CALL.:E05TSI                                WED 07/30/97 04:43 Page:21
          MINI XREF LISTING

ARGUMENT_COUNT
     19182**DCL     19198<<ASSIGN  19199>>ASSIGN  19213>>DOINDEX
ARGUMENT_INDEX
     19183**DCL     19213<<DOINDEX 19217>>ASSIGN
CALL_STRUCTURE
     19184**DCL     19248<>CALL
CALL_STRUCTURE.DESCRIPTOR_LIST$
     19186**DCL     19223<<ASSIGN
CALL_STRUCTURE.EPTR$
     19187**DCL     19188--REDEF   19225<<ASSIGN
CALL_STRUCTURE.PTR$
     19188**DCL     19234>>ASSIGN
CALL_STRUCTURE.PTR_LIST$
     19185**DCL     19221<<ASSIGN
FREE_AUTO$
     19189**DCL     19210<<ASSIGN  19217>>ASSIGN  19221>>ASSIGN
INSTR$
     19190**DCL     19197<<ASSIGN  19198>>ASSIGN  19199>>ASSIGN  19201>>IF      19208>>ASSIGN  19223>>ASSIGN
     19225>>ASSIGN  19233>>ASSIGN
QCC$CALL
     19192**DCL-ENT 19248--CALL
QCE$ERROR
     19193**DCL-ENT 19205--CALL
QCE$EXPERIENCE_M$XBREAK
     19194**DCL-ENT 19237--CALL
QCS$SETUP_SOURCE
     19195**DCL-ENT 19215--CALL
QGB_PARAM.DVE.DVBYTE.VFC
     11560**DCL     11561--REDEF
QGB_PARAM.DVE.EOMCHAR
     11572**DCL     11573--REDEF
QGB_PARAM.MSG$
PL6.E3A0      #001=QBC$CALL File=QBC$CALL.:E05TSI                                WED 07/30/97 04:43 Page:22
     11554**DCL     11555--REDEF
QGB_PARAM.UHDR$
     11579**DCL     11580--REDEF
QI$1
     19168**DCL     19170--REDEF   19171--REDEF   19254<<ASSIGN
QI$ACTIVATION_STATUS
      9318**DCL      9324--REDEF
QI$CIP
      8159**DCL      8229--REDEF
QI$CIP.CA
      8164**DCL      8168--REDEF    8171--REDEF    8174--REDEF
QI$COBOL_DAD.PSEUDO_CIP
      8403**DCL      8428--REDEF
QI$COBOL_DAD.PSEUDO_CIP.ALPHANUMERIC
      8405**DCL      8410--REDEF
QI$COBOL_DAD.PSEUDO_CIP.NUMERIC.CB
      8411**DCL      8414--REDEF    8417--REDEF
QI$COBOL_DAD.VARIABLE_LENGTH_ITEMS
      8439**DCL      8455--REDEF    8463--REDEF    8471--REDEF
QI$COBOL_DAD.VARIABLE_LENGTH_ITEMS.LEVEL_MULTIPLIERS
      8440**DCL      8450--REDEF    8453--REDEF
QI$COBOL_DAD.WORD0
      8367**DCL      8368--REDEF    8382--REDEF
QI$COBOL_DAD_P_BITS.P
      8507**DCL      8513--REDEF
QI$CONDITION_CONTROL_BLOCK.LIST_A@P
      7993**DCL      7994--REDEF
QI$CONDITION_CONTROL_BLOCK.WORD0_FLAGS
      7989**DCL      7992--REDEF
QI$CONDITION_LEGAL_BLOCK.ARRAY@P
      8026**DCL      8027--REDEF    8028--REDEF
QI$DAD.PSEUDO_CIP
      8306**DCL      8331--REDEF
QI$DAD.PSEUDO_CIP.ALPHANUMERIC
      8308**DCL      8313--REDEF
QI$DAD.PSEUDO_CIP.NUMERIC.CB
PL6.E3A0      #001=QBC$CALL File=QBC$CALL.:E05TSI                                WED 07/30/97 04:43 Page:23
      8314**DCL      8317--REDEF    8320--REDEF
QI$DAD.WORD0
      8275**DCL      8276--REDEF
QI$ERROR_MESSAGE_LINE
     11667**DCL     11669--REDEF
QI$ERROR_STATUS
     11664**DCL     11666--REDEF
QI$FIELD_DAD.ELEMENTARY_ITEM.P
      8721**DCL      8728--REDEF
QI$FIELD_DAD.ONE_DIMENSIONAL_ITEM.P
      8741**DCL      8748--REDEF
QI$FIELD_DAD.PSEUDO_CIP
      8648**DCL      8673--REDEF
QI$FIELD_DAD.PSEUDO_CIP.ALPHANUMERIC
      8650**DCL      8655--REDEF
QI$FIELD_DAD.PSEUDO_CIP.NUMERIC.CB
      8656**DCL      8659--REDEF    8662--REDEF
QI$FIELD_DAD.TWO_DIMENSIONAL_ITEM.P
      8761**DCL      8768--REDEF
QI$FIELD_DAD.VARIABLE_LENGTH_ITEMS
      8704**DCL      8720--REDEF    8738--REDEF    8756--REDEF
QI$FIELD_DAD.VARIABLE_LENGTH_ITEMS.LEVEL_MULTIPLIERS
      8705**DCL      8715--REDEF    8718--REDEF
QI$FIELD_DAD.WORD0
      8600**DCL      8601--REDEF
QI$FIELD_DAD.WORD0_FLAGS.IO_FLAGS
      8604**DCL      8609--REDEF
QI$FIELD_DAD_P.P
      8802**DCL      8809--REDEF
QI$FIELD_STATUS.INDICATORS
      9468**DCL      9500--REDEF
QI$FIELD_STATUS.INDICATORS.ENABLED_FLAGS
      9472**DCL      9477--REDEF
QI$FIELD_STATUS.INDICATORS.OPEN_FLAGS
      9484**DCL      9491--REDEF
QI$FIELD_STATUS.INDICATORS.STATE_FLAGS
PL6.E3A0      #001=QBC$CALL File=QBC$CALL.:E05TSI                                WED 07/30/97 04:43 Page:24
      9478**DCL      9483--REDEF
QI$FILE.WORD0
      8924**DCL      8925--REDEF
QI$FILE_STATUS.INDICATORS
      9761**DCL      9793--REDEF
QI$FILE_STATUS.INDICATORS.ENABLED_FLAGS
      9765**DCL      9770--REDEF
QI$FILE_STATUS.INDICATORS.OPEN_FLAGS
      9777**DCL      9784--REDEF
QI$FILE_STATUS.INDICATORS.STATE_FLAGS
      9771**DCL      9776--REDEF
QI$FORM_FILE.USE_PROCEDURE
      9024**DCL      9031--REDEF
QI$FORM_FILE.WORD0
      8978**DCL      8979--REDEF
QI$FORM_STATUS.INDICATORS
      9882**DCL      9914--REDEF
QI$FORM_STATUS.INDICATORS.ENABLED_FLAGS
      9886**DCL      9891--REDEF
QI$FORM_STATUS.INDICATORS.OPEN_FLAGS
      9898**DCL      9905--REDEF
QI$FORM_STATUS.INDICATORS.STATE_FLAGS
      9892**DCL      9897--REDEF
QI$FRAME.WORD0
      9139**DCL      9140--REDEF
QI$FRAME_STATUS.INDICATORS
     10111**DCL     10143--REDEF
QI$FRAME_STATUS.INDICATORS.ENABLED_FLAGS
     10115**DCL     10120--REDEF
QI$FRAME_STATUS.INDICATORS.OPEN_FLAGS
     10127**DCL     10134--REDEF
QI$FRAME_STATUS.INDICATORS.STATE_FLAGS
     10121**DCL     10126--REDEF
QI$GZ_FIELD.DESCRIPTION.IO_FLAGS
     16993**DCL     16998--REDEF
QI$IDENTIFIER
PL6.E3A0      #001=QBC$CALL File=QBC$CALL.:E05TSI                                WED 07/30/97 04:43 Page:25
     11670**DCL     11672--REDEF
QI$INDICATORS
      9382**DCL      9412--REDEF
QI$INDICATORS.ENABLED_FLAGS
      9388**DCL      9393--REDEF
QI$INDICATORS.OPEN_FLAGS
      9400**DCL      9407--REDEF
QI$INDICATORS.STATE_FLAGS
      9394**DCL      9399--REDEF
QI$INITIALIZATION_BLOCK.EXPECTED_ARGUMENT_COUNT
      7943**DCL     19210>>ASSIGN
QI$MAJOR_NODE.WORD0
      8838**DCL      8839--REDEF
QI$MAJOR_STATUS.INDICATORS
      9561**DCL      9593--REDEF
QI$MAJOR_STATUS.INDICATORS.ENABLED_FLAGS
      9565**DCL      9570--REDEF
QI$MAJOR_STATUS.INDICATORS.OPEN_FLAGS
      9577**DCL      9584--REDEF
QI$MAJOR_STATUS.INDICATORS.STATE_FLAGS
      9571**DCL      9576--REDEF
QI$MESSAGE_TYPE
     11661**DCL     11663--REDEF
QI$MINOR_NODE.WORD0
      8881**DCL      8882--REDEF
QI$MINOR_STATUS.INDICATORS
      9654**DCL      9686--REDEF
QI$MINOR_STATUS.INDICATORS.ENABLED_FLAGS
      9658**DCL      9663--REDEF
QI$MINOR_STATUS.INDICATORS.OPEN_FLAGS
      9670**DCL      9677--REDEF
QI$MINOR_STATUS.INDICATORS.STATE_FLAGS
      9664**DCL      9669--REDEF
QI$OP_ACCEPT.DATANAME@P
      6069**DCL      6070--REDEF
QI$OP_CALL.ARGUMENT_A@P
PL6.E3A0      #001=QBC$CALL File=QBC$CALL.:E05TSI                                WED 07/30/97 04:43 Page:26
      6246**DCL     19208--ASSIGN
QI$OP_CALL.DESCRIPTOR_LIST
      6243**DCL     19223--ASSIGN
QI$OP_CALL.DESCRIPTOR_LIST.ARGUMENT_COUNT
      6244**DCL     19198>>ASSIGN
QI$OP_CALL.EPTR$
      6241**DCL      6242--REDEF   19201>>IF      19225>>ASSIGN
QI$OP_CLEAR.IO_FLAGS
      6274**DCL      6277--REDEF
QI$OP_DISPLAY.FIELD_A@P
      6541**DCL      6542--REDEF
QI$OP_ENABLE.IO_FLAGS
      6628**DCL      6631--REDEF
QI$OP_IFCLS.ATTRIBUTE.TYPE
      6721**DCL      6726--REDEF
QI$OP_INSPECT.TALLYING_FOR_ITEM@P
      6955**DCL      6956--REDEF
QI$OP_INSPECT.TALLYING_INITIAL_ITEM@P
      6957**DCL      6958--REDEF
QI$OP_INSPECT.TALLYING_ITEM@P
      6953**DCL      6954--REDEF
QI$OP_OPEN.IO_FLAGS
      7515**DCL      7518--REDEF
QI$OP_PERFM.BINARY_ITERATION_COUNT@P
      7553**DCL      7554--REDEF
QI$PSEUDO_CIP
      8054**DCL      8078--REDEF
QI$PSEUDO_CIP.ALPHANUMERIC
      8058**DCL      8063--REDEF
QI$PSEUDO_CIP.NUMERIC.CB
      8064**DCL      8067--REDEF    8070--REDEF
QI$PTR_A$
     11660**DCL     19210--ASSIGN  19217<<ASSIGN  19221--ASSIGN
QI$TERMINAL_ATTRIBUTES
      9275**DCL      9288--REDEF
QI$TRAN_FILE.WORD0
PL6.E3A0      #001=QBC$CALL File=QBC$CALL.:E05TSI                                WED 07/30/97 04:43 Page:27
      9060**DCL      9061--REDEF
QI$TRAN_STATUS.INDICATORS
      9995**DCL     10027--REDEF
QI$TRAN_STATUS.INDICATORS.ENABLED_FLAGS
      9999**DCL     10004--REDEF
QI$TRAN_STATUS.INDICATORS.OPEN_FLAGS
     10011**DCL     10018--REDEF
QI$TRAN_STATUS.INDICATORS.STATE_FLAGS
     10005**DCL     10010--REDEF
QI$VARIABLE_IDENTIFIER.LENGTH
     11674**DCL     11675--IMP-SIZ
QI@1_SAVE
     19138**DCL     19140--REDEF   19141--REDEF   19246<<ASSIGN  19254>>ASSIGN
QI_1
     10202**DCL     19246>>ASSIGN  19254--ASSIGN
QI_1.ARGUMENTS_AND_OR_FREE_AUTO_A$$
     10217**DCL     19210>>ASSIGN
QI_1.BASE
     10203**DCL     10210--REDEF
QI_1.CURRENT.FILE$
     11094**DCL     11096--REDEF   11098--REDEF
QI_1.CURRENT.FILE_STATUS$
     11100**DCL     11102--REDEF   11104--REDEF
QI_1.DAD
     10898**DCL     10903--REDEF
QI_1.FILE_HEAD
     11081**DCL     11088--REDEF
QI_1.INITIALIZATION_BLOCK$
     10215**DCL     19210>>ASSIGN
QI_1.INSTR$
     10211**DCL     19197>>ASSIGN  19199<<ASSIGN
QI_1.IS_ALL_LIT
     10904**DCL     10909--REDEF
QI_1.IS_FORM_VARIABLE
     10910**DCL     10915--REDEF
QI_1.IS_TEMP
PL6.E3A0      #001=QBC$CALL File=QBC$CALL.:E05TSI                                WED 07/30/97 04:43 Page:28
     10916**DCL     10921--REDEF
QI_1.MESSAGE_LINE_DAD.PSEUDO_CIP
     11014**DCL     11039--REDEF
QI_1.MESSAGE_LINE_DAD.PSEUDO_CIP.ALPHANUMERIC
     11016**DCL     11021--REDEF
QI_1.MESSAGE_LINE_DAD.PSEUDO_CIP.NUMERIC.CB
     11022**DCL     11025--REDEF   11028--REDEF
QI_1.MESSAGE_LINE_DAD.WORD0
     10983**DCL     10984--REDEF
QI_1.OFFSET
     10922**DCL     10927--REDEF
QI_1.OP.CIP
     10283**DCL     10734--REDEF
QI_1.OP.CIP.AUX
     10649**DCL     10720--REDEF
QI_1.OP.CIP.AUX.CD
     10694**DCL     10697--REDEF   10701--REDEF   10704--REDEF
QI_1.OP.CIP.S
     10353**DCL     10424--REDEF
QI_1.OP.CIP.S.CD
     10398**DCL     10401--REDEF   10405--REDEF   10408--REDEF
QI_1.OP.CIP.T
     10501**DCL     10572--REDEF
QI_1.OP.CIP.T.CD
     10546**DCL     10549--REDEF   10553--REDEF   10556--REDEF
QI_1.OP.DATA
     10741**DCL     10745--REDEF
QI_1.OP.DATA.S$
     10742**DCL     19217>>ASSIGN
QI_1.OP.FILL_CHAR
     10865**DCL     10868--REDEF
QI_1.OP.INX
     10798**DCL     10802--REDEF   10803--REDEF   10807--REDEF
QI_1.OP.LEN
     10781**DCL     10785--REDEF   10786--REDEF   10790--REDEF   10791--REDEF   10795--REDEF
QI_1.OP.LEN.AUX
PL6.E3A0      #001=QBC$CALL File=QBC$CALL.:E05TSI                                WED 07/30/97 04:43 Page:29
     10784**DCL     11685--IMP-SIZ
QI_1.OP.LEN.S
     10782**DCL     11681--IMP-SIZ
QI_1.OP.LEN.T
     10783**DCL     11683--IMP-SIZ
QI_1.OP.PICTURE_STRING
     10851**DCL     10854--REDEF   10855--REDEF   10858--REDEF   10859--REDEF   10862--REDEF
QI_1.OP.ROUND
     10884**DCL     10885--REDEF   10886--REDEF
QI_1.OP.SRCH_VRFY_ELEMS
     10820**DCL     10823--REDEF
QI_1.OPENED_COUNT
     11089**DCL     11092--REDEF
QI_1.OTTER_SPACE
     10928**DCL     10933--REDEF
QI_1.PICTURE_STRING
     10934**DCL     10939--REDEF
QI_1.SOURCE$
     10254**DCL     19208<<ASSIGN
QI_1.SPECIAL_NAMES
     11117**DCL     11126--REDEF
QI_1.TYPE
     10940**DCL     10945--REDEF
QI_16_BIT_BINARY
     16130**DCL     16200--REDEF
QI_16_BIT_BINARY.CB
     16149**DCL     16152--REDEF   16156--REDEF   16159--REDEF
QI_31_DIGIT_SLS_DISPLAY
     15963**DCL     16033--REDEF
QI_31_DIGIT_SLS_DISPLAY.CD
     16010**DCL     16013--REDEF   16017--REDEF   16020--REDEF
QI_31_DIGIT_ST_PACKED
     16465**DCL     16535--REDEF
QI_31_DIGIT_ST_PACKED.CP
     16498**DCL     16501--REDEF   16505--REDEF   16508--REDEF
QI_32_BIT_BINARY
PL6.E3A0      #001=QBC$CALL File=QBC$CALL.:E05TSI                                WED 07/30/97 04:43 Page:30
     16297**DCL     16367--REDEF
QI_32_BIT_BINARY.CB
     16316**DCL     16319--REDEF   16323--REDEF   16326--REDEF
QI_4_CHAR_ALPHANUMERIC
     15795**DCL     15865--REDEF
QI_4_CHAR_ALPHANUMERIC.CA
     15800**DCL     15804--REDEF   15807--REDEF   15810--REDEF
QI_ACCUMULATOR_DAD.CIP
     16808**DCL     16879--REDEF
QI_ACCUMULATOR_DAD.CIP.CP
     16839**DCL     16842--REDEF   16846--REDEF   16849--REDEF
QI_ALR.CIP
     11760**DCL     12211--REDEF
QI_ALR.CIP.AUX
     12126**DCL     12197--REDEF
QI_ALR.CIP.AUX.CA
     12129**DCL     12133--REDEF   12136--REDEF   12139--REDEF
QI_ALR.CIP.S
     11830**DCL     11901--REDEF
QI_ALR.CIP.S.CA
     11833**DCL     11837--REDEF   11840--REDEF   11843--REDEF
QI_ALR.CIP.T
     11978**DCL     12049--REDEF
QI_ALR.CIP.T.CA
     11981**DCL     11985--REDEF   11988--REDEF   11991--REDEF
QI_ALR.DATA
     12218**DCL     12222--REDEF
QI_ALR.FILL_CHAR
     12342**DCL     12345--REDEF
QI_ALR.INX
     12275**DCL     12279--REDEF   12280--REDEF   12284--REDEF
QI_ALR.LEN
     12258**DCL     12262--REDEF   12263--REDEF   12267--REDEF   12268--REDEF   12272--REDEF
QI_ALR.PICTURE_STRING
     12328**DCL     12331--REDEF   12332--REDEF   12335--REDEF   12336--REDEF   12339--REDEF
QI_ALR.ROUND
PL6.E3A0      #001=QBC$CALL File=QBC$CALL.:E05TSI                                WED 07/30/97 04:43 Page:31
     12361**DCL     12362--REDEF   12363--REDEF
QI_ALR.SRCH_VRFY_ELEMS
     12297**DCL     12300--REDEF
QI_FPT_DBCONTROL.V_
     17180**DCL     17180--REDEF
QI_FPT_INT.V_
     18018**DCL     18018--REDEF
QI_MAT.CIP
     15099**DCL     15550--REDEF
QI_MAT.CIP.AUX
     15465**DCL     15536--REDEF
QI_MAT.CIP.AUX.CA
     15468**DCL     15472--REDEF   15475--REDEF   15478--REDEF
QI_MAT.CIP.S
     15169**DCL     15240--REDEF
QI_MAT.CIP.S.CA
     15172**DCL     15176--REDEF   15179--REDEF   15182--REDEF
QI_MAT.CIP.T
     15317**DCL     15388--REDEF
QI_MAT.CIP.T.CA
     15320**DCL     15324--REDEF   15327--REDEF   15330--REDEF
QI_MAT.DATA
     15557**DCL     15561--REDEF
QI_MAT.DEC
     15625**DCL     15629--REDEF   15630--REDEF   15634--REDEF
QI_MAT.FILL_CHAR
     15681**DCL     15684--REDEF
QI_MAT.LEN
     15597**DCL     15601--REDEF   15602--REDEF   15606--REDEF   15607--REDEF   15611--REDEF
QI_MAT.PICTURE_STRING
     15667**DCL     15670--REDEF   15671--REDEF   15674--REDEF   15675--REDEF   15678--REDEF
QI_MAT.ROUND
     15700**DCL     15701--REDEF   15702--REDEF
QI_MAT.SRCH_VRFY_ELEMS
     15636**DCL     15639--REDEF
QI_PICTURE_STRING
PL6.E3A0      #001=QBC$CALL File=QBC$CALL.:E05TSI                                WED 07/30/97 04:43 Page:32
     16633**DCL     16703--REDEF
QI_PICTURE_STRING.CA
     16638**DCL     16642--REDEF   16645--REDEF   16648--REDEF
QI_SRCH_VRFY.CIP
     14430**DCL     14881--REDEF
QI_SRCH_VRFY.CIP.AUX
     14796**DCL     14867--REDEF
QI_SRCH_VRFY.CIP.AUX.CA
     14799**DCL     14803--REDEF   14806--REDEF   14809--REDEF
QI_SRCH_VRFY.CIP.S
     14500**DCL     14571--REDEF
QI_SRCH_VRFY.CIP.S.CA
     14503**DCL     14507--REDEF   14510--REDEF   14513--REDEF
QI_SRCH_VRFY.CIP.T
     14648**DCL     14719--REDEF
QI_SRCH_VRFY.CIP.T.CA
     14651**DCL     14655--REDEF   14658--REDEF   14661--REDEF
QI_SRCH_VRFY.DATA
     14888**DCL     14892--REDEF
QI_SRCH_VRFY.DEC
     14956**DCL     14960--REDEF   14961--REDEF   14965--REDEF
QI_SRCH_VRFY.FILL_CHAR
     15012**DCL     15015--REDEF
QI_SRCH_VRFY.ROUND
     15031**DCL     15032--REDEF   15033--REDEF
QI_SRCH_VRFY.SRCH_RESULT
     14972**DCL     14975--REDEF   14976--REDEF   14979--REDEF   14980--REDEF   14983--REDEF
QI_SRCH_VRFY.SRCH_VRFY_ARGS
     14896**DCL     14900--REDEF   14901--REDEF   14905--REDEF   14906--REDEF   14910--REDEF
QI_SRCH_VRFY.SRCH_VRFY_ELEMS
     14967**DCL     14970--REDEF
QI_TYPE_BINARY_TARGET.CIP
     13757**DCL     14208--REDEF
QI_TYPE_BINARY_TARGET.CIP.AUX
     14123**DCL     14194--REDEF
QI_TYPE_BINARY_TARGET.CIP.AUX.CA
PL6.E3A0      #001=QBC$CALL File=QBC$CALL.:E05TSI                                WED 07/30/97 04:43 Page:33
     14126**DCL     14130--REDEF   14133--REDEF   14136--REDEF
QI_TYPE_BINARY_TARGET.CIP.S
     13827**DCL     13898--REDEF
QI_TYPE_BINARY_TARGET.CIP.S.CA
     13830**DCL     13834--REDEF   13837--REDEF   13840--REDEF
QI_TYPE_BINARY_TARGET.CIP.T
     13975**DCL     14046--REDEF
QI_TYPE_BINARY_TARGET.CIP.T.CB
     13992**DCL     13995--REDEF   13999--REDEF   14002--REDEF
QI_TYPE_BINARY_TARGET.DATA
     14215**DCL     14219--REDEF
QI_TYPE_BINARY_TARGET.DEC
     14283**DCL     14287--REDEF   14288--REDEF   14292--REDEF
QI_TYPE_BINARY_TARGET.LEN
     14255**DCL     14259--REDEF   14260--REDEF   14264--REDEF   14265--REDEF   14269--REDEF
QI_TYPE_BINARY_TARGET.PICTURE_STRING
     14325**DCL     14328--REDEF   14329--REDEF   14332--REDEF   14333--REDEF   14336--REDEF
QI_TYPE_BINARY_TARGET.ROUND
     14358**DCL     14359--REDEF   14360--REDEF
QI_TYPE_BINARY_TARGET.SIZE_ERROR
     14344**DCL     14345--REDEF
QI_TYPE_BINARY_TARGET.SRCH_VRFY_ELEMS
     14294**DCL     14297--REDEF
QI_TYPE_DISPLAY_SOURCE.CIP
     12425**DCL     12876--REDEF
QI_TYPE_DISPLAY_SOURCE.CIP.AUX
     12791**DCL     12862--REDEF
QI_TYPE_DISPLAY_SOURCE.CIP.AUX.CA
     12794**DCL     12798--REDEF   12801--REDEF   12804--REDEF
QI_TYPE_DISPLAY_SOURCE.CIP.S
     12495**DCL     12566--REDEF
QI_TYPE_DISPLAY_SOURCE.CIP.S.CD
     12540**DCL     12543--REDEF   12547--REDEF   12550--REDEF
QI_TYPE_DISPLAY_SOURCE.CIP.T
     12643**DCL     12714--REDEF
QI_TYPE_DISPLAY_SOURCE.CIP.T.CA
PL6.E3A0      #001=QBC$CALL File=QBC$CALL.:E05TSI                                WED 07/30/97 04:43 Page:34
     12646**DCL     12650--REDEF   12653--REDEF   12656--REDEF
QI_TYPE_DISPLAY_SOURCE.DATA
     12883**DCL     12887--REDEF
QI_TYPE_DISPLAY_SOURCE.DEC
     12951**DCL     12955--REDEF   12956--REDEF   12960--REDEF
QI_TYPE_DISPLAY_SOURCE.LEN
     12923**DCL     12927--REDEF   12928--REDEF   12932--REDEF   12933--REDEF   12937--REDEF
QI_TYPE_DISPLAY_SOURCE.PICTURE_STRING
     12993**DCL     12996--REDEF   12997--REDEF   13000--REDEF   13001--REDEF   13004--REDEF
QI_TYPE_DISPLAY_SOURCE.ROUND
     13026**DCL     13027--REDEF   13028--REDEF
QI_TYPE_DISPLAY_SOURCE.SIZE_ERROR
     13012**DCL     13013--REDEF
QI_TYPE_DISPLAY_SOURCE.SRCH_VRFY_ELEMS
     12962**DCL     12965--REDEF
QI_TYPE_DISPLAY_TARGET.CIP
     13091**DCL     13542--REDEF
QI_TYPE_DISPLAY_TARGET.CIP.AUX
     13457**DCL     13528--REDEF
QI_TYPE_DISPLAY_TARGET.CIP.AUX.CA
     13460**DCL     13464--REDEF   13467--REDEF   13470--REDEF
QI_TYPE_DISPLAY_TARGET.CIP.S
     13161**DCL     13232--REDEF
QI_TYPE_DISPLAY_TARGET.CIP.S.CA
     13164**DCL     13168--REDEF   13171--REDEF   13174--REDEF
QI_TYPE_DISPLAY_TARGET.CIP.T
     13309**DCL     13380--REDEF
QI_TYPE_DISPLAY_TARGET.CIP.T.CD
     13354**DCL     13357--REDEF   13361--REDEF   13364--REDEF
QI_TYPE_DISPLAY_TARGET.DATA
     13549**DCL     13553--REDEF
QI_TYPE_DISPLAY_TARGET.DEC
     13617**DCL     13621--REDEF   13622--REDEF   13626--REDEF
QI_TYPE_DISPLAY_TARGET.LEN
     13589**DCL     13593--REDEF   13594--REDEF   13598--REDEF   13599--REDEF   13603--REDEF
QI_TYPE_DISPLAY_TARGET.PICTURE_STRING
PL6.E3A0      #001=QBC$CALL File=QBC$CALL.:E05TSI                                WED 07/30/97 04:43 Page:35
     13659**DCL     13662--REDEF   13663--REDEF   13666--REDEF   13667--REDEF   13670--REDEF
QI_TYPE_DISPLAY_TARGET.ROUND
     13692**DCL     13693--REDEF   13694--REDEF
QI_TYPE_DISPLAY_TARGET.SIZE_ERROR
     13678**DCL     13679--REDEF
QI_TYPE_DISPLAY_TARGET.SRCH_VRFY_ELEMS
     13628**DCL     13631--REDEF
QI_VLP_SEGMENT.BASE
     17717**DCL     17717--REDEF
QI_VLP_SEGMENT_BUFFER.BASE
     17815**DCL     17815--REDEF
QI_VLP_SEGMENT_LOAD.BASE
     17913**DCL     17913--REDEF
QI_VLP_TRMCTL.BREAKCOUNT
     18907**DCL     18908--REDEF
QI_VLP_XBREAK.IC
     19097**DCL     19097--REDEF
QI_VLP_XBREAK.IC$
     19097**DCL     19234<<ASSIGN
QI_VLP_XBREAK.OLDIC
     19097**DCL     19098--REDEF   19098--REDEF
QI_VLP_XBREAK.OLDIC$
     19098**DCL     19233<<ASSIGN
QI_VLP_XBREAK.TC
     19100**DCL     19229>>IF
QI_VLP_XBREAK.TRAP#
     19099**DCL     19235<<ASSIGN
