VERSION E05

PL6.E3A0      #001=QBC$CLEAR File=QBC$CLEAR.:E05TSI                              WED 07/30/97 04:44 Page:1
        1        1        /*M* QBC$CLEAR:  CLEAR [ALL] IO-type FOR field.  */
        2        2        /*T***********************************************************/
        3        3        /*T*                                                         */
        4        4        /*T* Copyright (c) Bull HN Information Systems Inc., 1997    */
        5        5        /*T*                                                         */
        6        6        /*T***********************************************************/
        7        7        /*X* DMC,PLM=4,IND=0,DCI=4,CSI=2,IAD=2,DTI=2,AND,ECI=0,DIN=2,STI=2 */
        8        8
        9        9        /*P*  NAME:         QBC$CLEAR
       10       10              PURPOSE:      CLEAR a form, frame, or field.
       11       11              DESCRIPTION:  Execute a CLEAR op-code, whose argument may
       12       12                            be a field, a list of fields, a frame, a list of
       13       13                            frames, and/or a form, together with the
       14       14                            I-O and constant/static types of the fields
       15       15                            to be CLEARed.
       16       16        */
       17       17
       18       18        QBC$CLEAR: PROC;
       19       19
       20       20        /*D*  NAME:         QBC$CLEAR
       21       21              CALL:         CALL QBC$CLEAR;
       22       22              PARAMETERS:   None.
       23       23              INTERFACE:    Called by QAT$TALLYHO when a CLEAR op-code is
       24       24                            encountered.
       25       25                            Calls M$ERASE.
       26       26              ENVIRONMENT:  Nothing unusual.
       27       27              INPUT:        QI_1,
       28       28                            FPL rununit static data following the op-code.
       29       29              OUTPUT:       Toins the field(s) imbisiwel.
       30       30              SCRATCH:      Various otter data.
       31       31              DESCRIPTION:  M$ERASEs the appropriate fields, depending on
       32       32                            both the I-O type of the field, and whether or
       33       33                            not it has a CONSTANT VALUE clause associated
       34       34                            with it.
       35       35        */
       36       36
       37       37          %INCLUDE LCP_6;
PL6.E3A0      #001=QBC$CLEAR File=QBC$CLEAR.:E05TSI                              WED 07/30/97 04:44 Page:2
       38      228
       39      229          %INCLUDE QG_MACRO_M;
       40      366          %QGB_ENTRIES;
       41      379          %INCLUDE QI_EQUATES_E;
       42      738          %INCLUDE QI_PERR_C;
       43      906          %INCLUDE QI_MACROS_M;
       44     5964          %QI$ALL;
       45    17077          %QI_FPTS;
       46    19122
       47    19123    1     DCL OPERAND_COUNT UBIN;
       48    19124    1     DCL OPERAND_INDEX UBIN;
       49    19125    1     DCL FIELD_START_INDEX UBIN;
       50    19126    1     DCL FIELD_STOP_INDEX UBIN;
       51    19127    1     DCL FRAME$ PTR;
       52    19128    1     DCL FRAME_INDEX UBIN;
       53    19129    1     DCL FRAME_STATUS$ PTR;
       54    19130    1     DCL GZ_FIELD$ PTR;
       55    19131    1     DCL GZ_HEADER$ PTR;
       56    19132    1     DCL INSTR$ PTR;
       57    19133    1     DCL LAST_FILE$ PTR;
       58    19134
       59    19135    1     DCL QCE$ERROR_INTERNAL ENTRY (4);
       60    19136    1     DCL QCF$FIND_CURRENTS ENTRY;
       61    19137    1     DCL QCU$USE_IO ENTRY (1);
       62    19138
       63    19139          %SET LISTMAC = '1'B;
       64    19140
       65    19141          %INCLUDE QCU_USE_M;
       66    19195          %QCU@USE;
             19196            %BEGIN_MACRO;
             19197            %SET LISTDIR = '0'B;
             19210    1     DCL 1 QCU@USE AUTO ALIGNED,
             19211    1           2 CURR_FRAME$ PTR,
             19212                          /* Pointer to DAD of current frame or ADDR (NIL).  */
             19213    1           2 CURR_NODE$ PTR,
             19214                          /* Pointer to current node or ADDR (NIL).  */
             19215    1           2 USE_DEFAULT_IO UBIN,
PL6.E3A0      #001=QBC$CLEAR File=QBC$CLEAR.:E05TSI                              WED 07/30/97 04:44 Page:3
             19216                          /* For USE procedures which default applies
             19217                             (see corresponding EQUs).  */
             19218    1           2 IS_TIME_TO_SAVE_AWAY_FIELDS BIT(1) ALIGNED,
             19219                          /* If IS_TIME_TO_SAVE_AWAY_FIELDS, then
             19220                             save the fields within the bounds of
             19221                             FRAME_START_INDEX, FRAME_STOP_INDEX,
             19222                             FIELD_START_INDEX, and FIELD_STOP_INDEX
             19223                             before calling the USE procedure.  */
             19224    1           2 FRAME_START_INDEX UBIN,
             19225                          /* Foist frame of the CURRENT.FORM$
             19226                             involved with the I-O error.  */
             19227    1           2 FRAME_STOP_INDEX UBIN,
             19228                          /* Larst frame of the CURRENT.FORM$
             19229                             involved with the I-O error.  */
             19230    1           2 IS_FIELD_INDEXES_VALID BIT(1) ALIGNED,
             19231                          /* If IS_FIELD_INDEXES_VALID, use them;
             19232                             else use all the fields in the frame.  */
             19233    1           2 FIELD_START_INDEX UBIN,
             19234                          /* Starting index into QI$GZ_FIELD
             19235                             which may have values "pushed".  */
             19236    1           2 FIELD_STOP_INDEX UBIN,
             19237                          /* Stopping index into QI$GZ_FIELD
             19238                             which may have values "pushed".  */
             19239    1           2 IS_CURSOR_POSITION_VALID BIT(1) ALIGNED,
             19240                          /* If IS_CURSOR_POSITION_VALID, use it;
             19241                             else allow cursor to default to upper-left-most field.  */
             19242    1           2 CURSOR_POSITION BIT(16) ALIGNED,
             19243                          /* POSition of the field on which to place the cursor.  */
             19244    1           2 STATUS UBIN;
             19245                          /* Returned action code; see corresponding EQUs.  */
             19252            %ENDIF;
       67    19255
       68    19256          %SET LISTMAC = '0'B;
       69    19257        %EJECT;
PL6.E3A0      #001=QBC$CLEAR File=QBC$CLEAR.:E05TSI                              WED 07/30/97 04:44 Page:4
       70    19258    1       OPERAND_COUNT = QI_1.INSTR$ -> QI$OP_CLEAR.OPERAND_COUNT;
       71    19259    1       INSTR$ = QI_1.INSTR$;
       72    19260    1       QI_1.INSTR$ = PINCRW ( QI_1.INSTR$, OPERAND_COUNT + 2 );
       73    19261
       74    19262    1       LAST_FILE$ = ADDR (NIL);
       75    19263
       76    19264    1   CLEAR_FORM_FRAME_FIELD:
       77    19265    2       DO OPERAND_INDEX = 0 TO OPERAND_COUNT - 1;
       78    19266
       79    19267              %PROC_ADDRESS ( THING@P =
             19267                  "INSTR$ -> QI$OP_CLEAR.OPERAND_A@P ( OPERAND_INDEX )",
       80    19268              CHECK_FOR_INDIRECTION = YES,
       81    19269              RESULT$ = "QI_1.CURRENT.NODE$" );
       82    19306
       83    19307    2   RETRY_NODE_CLEAR:
       84    19308    2         CALL QCF$FIND_CURRENTS;
       85    19309
       86    19310    2         IF QI_1.CURRENT.NODE$ -> QI$DAD.WORD0_FLAGS.TYPE = %QI#TYPE_FORM
       87    19311    2         THEN
       88    19312    2   CLEAR_FORM:
       89    19313    3           DO;
       90    19314
       91    19315    3             IF NOT QI_1.CURRENT.FORM_STATUS$ -> QI$FORM_STATUS.INDICATORS.OPEN_FLAGS.
             19315                      IS_OUTPUT
       92    19316    3               AND NOT QI_1.CURRENT.FORM_STATUS$ -> QI$FORM_STATUS.INDICATORS.
             19316                        OPEN_FLAGS.IS_INPUT
       93    19317    3             THEN
       94    19318    4               DO;
       95    19319    4                 QI_1.ERROR_STATUS = %E$FILE_NOT_OPEN;
       96    19320    4                 GOTO CHECK_USE_PROCEDURE_OR_INVALID;
       97    19321    4               END;
       98    19322
       99    19323    3   CHECK_ALL_THE_FRAMES:
      100    19324    3             DO FRAME_INDEX =
      101    19325    4               0 TO QI_1.CURRENT.FORM$ -> QI$FORM_FILE.FRAME_COUNT - 1;
      102    19326
      103    19327                    %PROC_ADDRESS ( THING@P =
PL6.E3A0      #001=QBC$CLEAR File=QBC$CLEAR.:E05TSI                              WED 07/30/97 04:44 Page:5
             19327                        "QI_1.CURRENT.FORM$ -> QI$FORM_FILE.FRAME_LIST_A@P ( FRAME_INDEX )",
      104    19328                    CHECK_FOR_INDIRECTION = NO,
      105    19329                    RESULT$ = FRAME$ );
      106    19366
      107    19367                    %DATA_ADDRESS ( THING@D = "FRAME$ -> QI$FRAME.STATUS_AREA@D",
      108    19368                    CHECK_FOR_INDIRECTION = NO,
      109    19369                    RESULT$ = FRAME_STATUS$ );
      110    19406
      111    19407    4               IF FRAME_STATUS$ -> QI$FRAME_STATUS.INDICATORS.IS_ACTIVE
      112    19408    4               THEN
      113    19409    4   CLEAR_THAT_FRAME:
      114    19410    5                 DO;
      115    19411    5                   FIELD_START_INDEX = FRAME_STATUS$ -> QI$FRAME_STATUS.GZ.
             19411                            FIELD_START_INDEX;
      116    19412    5                   FIELD_STOP_INDEX = FRAME_STATUS$ -> QI$FRAME_STATUS.GZ.
             19412                            FIELD_STOP_INDEX;
      117    19413    5                   GZ_HEADER$ = FRAME_STATUS$ -> QI$FRAME_STATUS.GZ.HEADER$;
      118    19414    5                   GZ_FIELD$ = FRAME_STATUS$ -> QI$FRAME_STATUS.GZ.START$;
      119    19415
      120    19416    5                   CALL CLEAR_SELECTED_FIELDS;
      121    19417    5                 END CLEAR_THAT_FRAME;
      122    19418
      123    19419    4             END CHECK_ALL_THE_FRAMES;
      124    19420
      125    19421    3           END CLEAR_FORM;
      126    19422    2         ELSE
      127    19423    2   CLEAR_FRAME_OR_LESS:
      128    19424    3           DO;
      129    19425    3             IF NOT QI_1.CURRENT.FRAME_STATUS$ -> QI$FRAME_STATUS.INDICATORS.IS_ACTIVE
      130    19426    3             THEN
      131    19427    4               DO;
      132    19428    4                 QI_1.ERROR_STATUS = %E$FRAME_NOT_ACTIVE;
      133    19429    4                 GOTO CHECK_USE_PROCEDURE_OR_INVALID;
      134    19430    4               END;
      135    19431
      136    19432    3             IF NOT QI_1.CURRENT.FORM_STATUS$ -> QI$FORM_STATUS.INDICATORS.OPEN_FLAGS.
             19432                      IS_OUTPUT
PL6.E3A0      #001=QBC$CLEAR File=QBC$CLEAR.:E05TSI                              WED 07/30/97 04:44 Page:6
      137    19433    3               AND NOT QI_1.CURRENT.FORM_STATUS$ -> QI$FORM_STATUS.INDICATORS.
             19433                        OPEN_FLAGS.IS_INPUT
      138    19434    3             THEN
      139    19435    4               DO;
      140    19436    4                 QI_1.ERROR_STATUS = %E$FILE_NOT_OPEN;
      141    19437    4                 GOTO CHECK_USE_PROCEDURE_OR_INVALID;
      142    19438    4               END;
      143    19439
      144    19440    3             FIELD_START_INDEX = QI_1.CURRENT.NODE_STATUS$ -> QI$MAJOR_STATUS.GZ.
             19440                      FIELD_START_INDEX;
      145    19441    3             FIELD_STOP_INDEX = QI_1.CURRENT.NODE_STATUS$ -> QI$MAJOR_STATUS.GZ.
             19441                      FIELD_STOP_INDEX;
      146    19442    3             GZ_HEADER$ = QI_1.CURRENT.FRAME_STATUS$ -> QI$FRAME_STATUS.GZ.HEADER$;
      147    19443    3             GZ_FIELD$ = PINCRW ( QI_1.CURRENT.FRAME_STATUS$ -> QI$FRAME_STATUS.GZ.
             19443                      START$,
      148    19444    3               FIELD_START_INDEX * SIZEW (QI$GZ_FIELD) );
      149    19445
      150    19446    3             CALL CLEAR_SELECTED_FIELDS;
      151    19447    3           END CLEAR_FRAME_OR_LESS;
      152    19448
      153    19449    2   NEXT_NODE_PLEASE:
      154    19450
      155    19451    2       END CLEAR_FORM_FRAME_FIELD;
      156    19452
      157    19453    1       RETURN;
      158    19454
      159    19455        %EJECT;
PL6.E3A0      #001=QBC$CLEAR File=QBC$CLEAR.:E05TSI                              WED 07/30/97 04:44 Page:7
      160    19456    1   CHECK_USE_PROCEDURE_OR_INVALID:
      161    19457    1       QCU@USE.USE_DEFAULT_IO = %QI#USE_DEFAULT_NONE;
      162    19458    1       QCU@USE.IS_TIME_TO_SAVE_AWAY_FIELDS = %NO;
      163    19459    1       QCU@USE.CURR_FRAME$ = QI_1.CURRENT.FRAME$;
      164    19460
      165    19461    1       IF QI_1.CURRENT.NODE$ -> QI$DAD.WORD0_FLAGS.TYPE < %QI#TYPE_MINOR
      166    19462    1       THEN
      167    19463    1         QCU@USE.CURR_NODE$ = QI_1.CURRENT.NODE$;
      168    19464    1       ELSE
      169    19465    1         QCU@USE.CURR_NODE$ = ADDR (NIL);
      170    19466
      171    19467    1       CALL QCU$USE_IO ( QCU@USE );
      172    19468
      173    19469    2       DO CASE ( QCU@USE.STATUS );
      174    19470
      175    19471    2         CASE ( %QI#USE_INVALID_RETURN );
      176    19472    2           RETURN;
      177    19473
      178    19474    2         CASE ( %QI#USE_INVALID_RETRY );
      179    19475    2           GOTO RETRY_NODE_CLEAR;
      180    19476
      181    19477    2         CASE ( %QI#USE_INVALID_SKIP_TO_NEXT );
      182    19478    2           LAST_FILE$ = ADDR (NIL);
      183    19479    2           GOTO NEXT_NODE_PLEASE;
      184    19480
      185    19481    2         CASE ( ELSE );
      186    19482    2           CALL QCE$ERROR_INTERNAL ( %E$INTERNAL_INTERPRETER_ERROR );
      187    19483
      188    19484    2       END;
      189    19485
      190    19486        %EJECT;
PL6.E3A0      #001=QBC$CLEAR File=QBC$CLEAR.:E05TSI                              WED 07/30/97 04:44 Page:8
      191    19487    1   CLEAR_SELECTED_FIELDS: PROC;
      192    19488
      193    19489          %FPT_ERASE ( FPTN = FPT@ERASE,
      194    19490                       STCLASS = AUTO );
      195    19523
      196    19524    2     DCL ERROR_STATUS$ PTR;
      197    19525    2     DCL FIELD_INDEX UBIN;
      198    19526
      199    19527    2     DCL QCE$ERROR_M$INTERNAL ENTRY (4);
      200    19528
      201    19529            /*  The CONSTANT copy has CNS and PRT set...
      202    19530                (we'll assume we know what we're doing).  */
      203    19531    2       FPT@ERASE = QI_FPT_ERASE;
      204    19532    2       VBASE ( FPT@ERASE.V_ ) = ADDR ( FPT@ERASE.V );
      205    19533    2       FPT@ERASE.V.DCB# = GZ_HEADER$ -> QI$GZ_HEADER.DCB#;
      206    19534
      207    19535    2   CHECK_SELECTED_FIELDS:
      208    19536    3       DO FIELD_INDEX = FIELD_START_INDEX TO FIELD_STOP_INDEX;
      209    19537
      210    19538    3         IF INSTR$ -> QI$OP_CLEAR.IO_FLAGS
      211    19539    3           & GZ_FIELD$ -> QI$GZ_FIELD.DESCRIPTION.IO_FLAGS
      212    19540    3         THEN
      213    19541    3   FIELD_IS_CORRECT_IO_TYPE:
      214    19542    4           DO;
      215    19543
      216    19544    5             DO CASE ( GZ_FIELD$ -> QI$GZ_FIELD.DESCRIPTION.IO_VALUE );
      217    19545
      218    19546    5               CASE ( %QI#IO_VALUE_INPUT );
      219    19547    5                 IF NOT GZ_FIELD$ -> QI$GZ_FIELD.INDICATORS$ -> QI$INDICATORS.
             19547                          ENABLED_FLAGS.IS_INPUT
      220    19548    5                 THEN
      221    19549    5                   EXIT FIELD_IS_CORRECT_IO_TYPE;
      222    19550
      223    19551    5               CASE ( %QI#IO_VALUE_OUTPUT );
      224    19552    5                 IF ( NOT GZ_FIELD$ -> QI$GZ_FIELD.INDICATORS$ -> QI$INDICATORS.
             19552                          ENABLED_FLAGS.IS_OUTPUT )
      225    19553    5                   OR ( GZ_FIELD$ -> QI$GZ_FIELD.DESCRIPTION.IS_OUTPUT_CONSTANT
PL6.E3A0      #001=QBC$CLEAR File=QBC$CLEAR.:E05TSI                              WED 07/30/97 04:44 Page:9
      226    19554    5                   AND NOT INSTR$ -> QI$OP_CLEAR.IS_CLEAR_ALL )
      227    19555    5                 THEN
      228    19556    5                   EXIT FIELD_IS_CORRECT_IO_TYPE;
      229    19557
      230    19558    5               CASE ( %QI#IO_VALUE_IO );
      231    19559    5                 IF ( ( INSTR$ -> QI$OP_CLEAR.IO_VALUE = %QI#IO_VALUE_INPUT )
      232    19560    5                   AND NOT GZ_FIELD$ -> QI$GZ_FIELD.INDICATORS$ -> QI$INDICATORS.
             19560                            ENABLED_FLAGS.IS_INPUT )
      233    19561    5                   OR ( ( INSTR$ -> QI$OP_CLEAR.IO_VALUE = %QI#IO_VALUE_OUTPUT )
      234    19562    5                   AND NOT GZ_FIELD$ -> QI$GZ_FIELD.INDICATORS$ -> QI$INDICATORS.
             19562                            ENABLED_FLAGS.IS_OUTPUT )
      235    19563    5                   OR ( ( INSTR$ -> QI$OP_CLEAR.IO_VALUE = %QI#IO_VALUE_IO )
      236    19564    5                   AND NOT GZ_FIELD$ -> QI$GZ_FIELD.INDICATORS$ -> QI$INDICATORS.
             19564                            ENABLED_FLAGS.IS_INPUT
      237    19565    5                   AND NOT GZ_FIELD$ -> QI$GZ_FIELD.INDICATORS$ -> QI$INDICATORS.
             19565                            ENABLED_FLAGS.IS_OUTPUT )
      238    19566    5                 THEN
      239    19567    5                   EXIT FIELD_IS_CORRECT_IO_TYPE;
      240    19568
      241    19569    5             END;
      242    19570
      243    19571                  /*  Don't bother CLEARing fields with no data...they're already clear.
      244    19572                      See also OUTPUT CONSTANT optimization in QCI$IO_WRITE.  */
      245    19573    4             IF GZ_FIELD$ -> QI$GZ_FIELD.STATUS.LENGTH = 0
      246    19574    4             THEN
      247    19575    4               EXIT FIELD_IS_CORRECT_IO_TYPE;
      248    19576
      249    19577    4             FPT@ERASE.KEY_ = VECTOR ( GZ_FIELD$ -> QI$GZ_FIELD.DESCRIPTION.POSITION );
      250    19578
      251    19579    4             CALL QGB$ERASE ( FPT@ERASE, QGB_PARAM )
      252    19580    4             WHENALTRETURN
      253    19581    5               DO;
      254    19582    5                 CALL QCE$ERROR_M$INTERNAL ( %E$UNEXPECTED_ALTRET );
      255    19583    5               END;
      256    19584
      257    19585    4             GZ_FIELD$ -> QI$GZ_FIELD.STATUS.LENGTH = 0;
      258    19586
PL6.E3A0      #001=QBC$CLEAR File=QBC$CLEAR.:E05TSI                              WED 07/30/97 04:44 Page:10
      259    19587    4             IF NOT GZ_FIELD$ -> QI$GZ_FIELD.DESCRIPTION.IS_OUTPUT_CONSTANT
      260    19588    4             THEN
      261    19589    4               GZ_FIELD$ -> QI$GZ_FIELD.INDICATORS$ -> QI$INDICATORS.STATE_VALUE = %
             19589                        QI#STATE_NULL;
      262    19590
      263    19591    4             QI_1.SCREEN_UPDATE_FLAGS.WAS_CLEARED = %YES;
      264    19592
      265    19593    4             IF QI_1.CURRENT.FORM$ -> QI$FORM_FILE.WORD0_FLAGS.IS_ERROR_STATUS_VALID
      266    19594    4             THEN
      267    19595    5               DO;
      268    19596    5                 IF QI_1.CURRENT.FORM$ ~= LAST_FILE$
      269    19597    5                 THEN
      270    19598    6                   DO;
      271    19599    6                     LAST_FILE$ = QI_1.CURRENT.FORM$;
      272    19600
      273    19601                          %DATA_ADDRESS ( THING@D =
             19601                              "QI_1.CURRENT.FORM$ -> QI$FORM_FILE.ERROR_STATUS@D",
      274    19602                          CHECK_FOR_INDIRECTION = NO,
      275    19603                          RESULT$ = ERROR_STATUS$ );
      276    19640
      277    19641    6                     ERROR_STATUS$ -> QI$ERROR_STATUS.TEXT = %QI#OP_CLEAR_TEXT;
      278    19642    6                   END;
      279    19643    5               END;
      280    19644
      281    19645    4           END FIELD_IS_CORRECT_IO_TYPE;
      282    19646
      283    19647    3         GZ_FIELD$ = PINCRW ( GZ_FIELD$, SIZEW (QI$GZ_FIELD) );
      284    19648
      285    19649    3       END CHECK_SELECTED_FIELDS;
      286    19650
      287    19651    2       RETURN;
      288    19652
      289    19653    2   END CLEAR_SELECTED_FIELDS;
      290    19654
      291    19655    1   END QBC$CLEAR;

PL6.E3A0      #001=QBC$CLEAR File=QBC$CLEAR.:E05TSI                              WED 07/30/97 04:44 Page:11
--  Include file information  --

   QCU_USE_M.:E05TOU  is referenced.
   QI_MACROS_M.:E05TOU  is referenced.
   QI_PERR_C.:E05TOU  is referenced.
   QI_EQUATES_E.:E05TOU  is referenced.
   QG_MACRO_M.:E05TOU  is referenced.
   LCP_6.:E05TOU  cannot be made into a system file and is referenced.
   G_LCP6_E.:E05TOU  was found in the system file and is referenced.
   GT_LCP6_M.:E05TOU  was found in the system file and is referenced.
   KI_CP6.:E05TOU  was found in the system file and is referenced.
   GF_LCP6_M.:E05TOU  was found in the system file and is referenced.
   GM_LCP6_M.:E05TOU  was found in the system file and is referenced.
   GU_LCP6_M.:E05TOU  was found in the system file and is referenced.
   GJ_LCP6_M.:E05TOU  was found in the system file and is referenced.
   GH_LCP6_M.:E05TOU  was found in the system file and is referenced.
      No diagnostics issued in procedure QBC$CLEAR.

   Procedure QBC$CLEAR requires 563 words for executable code.
   Procedure QBC$CLEAR requires 54 words of local(AUTO) storage.

    No errors detected in file QBC$CLEAR.:E05TSI    .

PL6.E3A0      #001=QBC$CLEAR File=QBC$CLEAR.:E05TSI                              WED 07/30/97 04:44 Page:12

 Object Unit name= QBC$CLEAR                                  File name= QBC$CLEAR.:E05TOU
 UTS= JUL 30 '97 04:44:16.16 WED                              Compiler= PL-6/E31         Sev=      00
 SharedLib= :SHARED_LCP6_SYSTEM                               Alt SharedLib=


    ****  Control sections  ****

 Sect   Type Bound  Init  Size HexSiz  Section name
    0  RoData even  UTS      1      1  QBC$CLEAR
    1   Proc  even  none   563    233  QBC$CLEAR
    2  RoData even  none     8      8  QBC$CLEAR

    ****  Entry defs  ****

                              Check   Calling
                             calling  sequence
  Sect HexLoc Primary Altret sequence   type   Parms  Name
     1      0   yes            yes      Std        0  QBC$CLEAR

  ****  Entry refs  ****

         Check        Calling
        calling       sequence
Altret sequence SRef   type   Args  Name
         yes           Std       0 QCF$FIND_CURRENTS
         yes           Std       4 QCE$ERROR_INTERNAL
         yes           Std       1 QCU$USE_IO
 yes     yes           Std       2 QGB$ERASE
         yes           Std       4 QCE$ERROR_M$INTERNAL
                       nStd      0 X6A_AUTO_0
                       nStd      0 X6D_MID
                       nStd      0 X6A_ARET
PL6.E3A0      #001=QBC$CLEAR File=QBC$CLEAR.:E05TSI                              WED 07/30/97 04:44 Page:13

  ****  Data refs  ****

  Flags:  r = read only, s = secondary
Flgs Name                             Flgs Name                             Flgs Name
     QI_1                                  QGB_PARAM                             QI_4_CHAR_ALPHANUMERIC
     QI_31_DIGIT_SLS_DISPLAY               QI_16_BIT_BINARY                      QI_32_BIT_BINARY
     QI_31_DIGIT_ST_PACKED                 QI_PICTURE_STRING                     QI_FPT_ERASE
r    G$ROS$
PL6.E3A0      #001=QBC$CLEAR File=QBC$CLEAR.:E05TSI                              WED 07/30/97 04:44 Page:14


        1        1        /*M* QBC$CLEAR:  CLEAR [ALL] IO-type FOR field.  */
        2        2        /*T***********************************************************/
        3        3        /*T*                                                         */
        4        4        /*T* Copyright (c) Bull HN Information Systems Inc., 1997    */
        5        5        /*T*                                                         */
        6        6        /*T***********************************************************/
        7        7        /*X* DMC,PLM=4,IND=0,DCI=4,CSI=2,IAD=2,DTI=2,AND,ECI=0,DIN=2,STI=2 */
        8        8
        9        9        /*P*  NAME:         QBC$CLEAR
       10       10              PURPOSE:      CLEAR a form, frame, or field.
       11       11              DESCRIPTION:  Execute a CLEAR op-code, whose argument may
       12       12                            be a field, a list of fields, a frame, a list of
       13       13                            frames, and/or a form, together with the
       14       14                            I-O and constant/static types of the fields
       15       15                            to be CLEARed.
       16       16        */
       17       17
       18       18        QBC$CLEAR: PROC;

     18   1 000000  D380 0000 0000  xent QBC$CLEAR       LNJ,B5   X6A_AUTO_0
          1 000003       0036 0000                       DC       54,0

       19       19
       20       20        /*D*  NAME:         QBC$CLEAR
       21       21              CALL:         CALL QBC$CLEAR;
       22       22              PARAMETERS:   None.
       23       23              INTERFACE:    Called by QAT$TALLYHO when a CLEAR op-code is
       24       24                            encountered.
       25       25                            Calls M$ERASE.
       26       26              ENVIRONMENT:  Nothing unusual.
       27       27              INPUT:        QI_1,
       28       28                            FPL rununit static data following the op-code.
       29       29              OUTPUT:       Toins the field(s) imbisiwel.
       30       30              SCRATCH:      Various otter data.
       31       31              DESCRIPTION:  M$ERASEs the appropriate fields, depending on
       32       32                            both the I-O type of the field, and whether or
PL6.E3A0      #001=QBC$CLEAR File=QBC$CLEAR.:E05TSI                              WED 07/30/97 04:44 Page:15
       33       33                            not it has a CONSTANT VALUE clause associated
       34       34                            with it.
       35       35        */
       36       36
       37       37          %INCLUDE LCP_6;
       38      228
       39      229          %INCLUDE QG_MACRO_M;
       40      366          %QGB_ENTRIES;
       41      379          %INCLUDE QI_EQUATES_E;
       42      738          %INCLUDE QI_PERR_C;
       43      906          %INCLUDE QI_MACROS_M;
       44     5964          %QI$ALL;
       45    17077          %QI_FPTS;
       46    19122
       47    19123    1     DCL OPERAND_COUNT UBIN;
       48    19124    1     DCL OPERAND_INDEX UBIN;
       49    19125    1     DCL FIELD_START_INDEX UBIN;
       50    19126    1     DCL FIELD_STOP_INDEX UBIN;
       51    19127    1     DCL FRAME$ PTR;
       52    19128    1     DCL FRAME_INDEX UBIN;
       53    19129    1     DCL FRAME_STATUS$ PTR;
       54    19130    1     DCL GZ_FIELD$ PTR;
       55    19131    1     DCL GZ_HEADER$ PTR;
       56    19132    1     DCL INSTR$ PTR;
       57    19133    1     DCL LAST_FILE$ PTR;
       58    19134
       59    19135    1     DCL QCE$ERROR_INTERNAL ENTRY (4);
       60    19136    1     DCL QCF$FIND_CURRENTS ENTRY;
       61    19137    1     DCL QCU$USE_IO ENTRY (1);
       62    19138
       63    19139          %SET LISTMAC = '1'B;
       64    19140
       65    19141          %INCLUDE QCU_USE_M;
       66    19195          %QCU@USE;
             19196            %BEGIN_MACRO;
             19197            %SET LISTDIR = '0'B;
             19210    1     DCL 1 QCU@USE AUTO ALIGNED,
PL6.E3A0      #001=QBC$CLEAR File=QBC$CLEAR.:E05TSI                              WED 07/30/97 04:44 Page:16
             19211    1           2 CURR_FRAME$ PTR,
             19212                          /* Pointer to DAD of current frame or ADDR (NIL).  */
             19213    1           2 CURR_NODE$ PTR,
             19214                          /* Pointer to current node or ADDR (NIL).  */
             19215    1           2 USE_DEFAULT_IO UBIN,
             19216                          /* For USE procedures which default applies
             19217                             (see corresponding EQUs).  */
             19218    1           2 IS_TIME_TO_SAVE_AWAY_FIELDS BIT(1) ALIGNED,
             19219                          /* If IS_TIME_TO_SAVE_AWAY_FIELDS, then
             19220                             save the fields within the bounds of
             19221                             FRAME_START_INDEX, FRAME_STOP_INDEX,
             19222                             FIELD_START_INDEX, and FIELD_STOP_INDEX
             19223                             before calling the USE procedure.  */
             19224    1           2 FRAME_START_INDEX UBIN,
             19225                          /* Foist frame of the CURRENT.FORM$
             19226                             involved with the I-O error.  */
             19227    1           2 FRAME_STOP_INDEX UBIN,
             19228                          /* Larst frame of the CURRENT.FORM$
             19229                             involved with the I-O error.  */
             19230    1           2 IS_FIELD_INDEXES_VALID BIT(1) ALIGNED,
             19231                          /* If IS_FIELD_INDEXES_VALID, use them;
             19232                             else use all the fields in the frame.  */
             19233    1           2 FIELD_START_INDEX UBIN,
             19234                          /* Starting index into QI$GZ_FIELD
             19235                             which may have values "pushed".  */
             19236    1           2 FIELD_STOP_INDEX UBIN,
             19237                          /* Stopping index into QI$GZ_FIELD
             19238                             which may have values "pushed".  */
             19239    1           2 IS_CURSOR_POSITION_VALID BIT(1) ALIGNED,
             19240                          /* If IS_CURSOR_POSITION_VALID, use it;
             19241                             else allow cursor to default to upper-left-most field.  */
             19242    1           2 CURSOR_POSITION BIT(16) ALIGNED,
             19243                          /* POSition of the field on which to place the cursor.  */
             19244    1           2 STATUS UBIN;
             19245                          /* Returned action code; see corresponding EQUs.  */
             19252            %ENDIF;
       67    19255
PL6.E3A0      #001=QBC$CLEAR File=QBC$CLEAR.:E05TSI                              WED 07/30/97 04:44 Page:17
       68    19256          %SET LISTMAC = '0'B;
       69    19257        %EJECT;
PL6.E3A0      #001=QBC$CLEAR File=QBC$CLEAR.:E05TSI                              WED 07/30/97 04:44 Page:18
       70    19258    1       OPERAND_COUNT = QI_1.INSTR$ -> QI$OP_CLEAR.OPERAND_COUNT;

  19258   1 000005  EC80 0000 0006  xsym                 LDB,B6   QI_1+6
          1 000008  E846 0001                            LDR,R6   1,B6
          1 00000A  E570 1FFF                            AND,R6   8191,IMO
          1 00000C  EF47 0004                            STR,R6   OPERAND_COUNT,AUTO

       71    19259    1       INSTR$ = QI_1.INSTR$;

  19259   1 00000E  EFC7 0011                            STB,B6   INSTR$,AUTO

       72    19260    1       QI_1.INSTR$ = PINCRW ( QI_1.INSTR$, OPERAND_COUNT + 2 );

  19260   1 000010  F856                                 LDR,R7   R6
          1 000011  6C00                                 LDV,R6   0
          1 000012  8400 0000 0006  xsym                 AID      QI_1+6
          1 000015  8470 0000 0002                       AID      2,IMO
          1 000018  8D00 0000 0006  xsym                 SDI      QI_1+6

       73    19261
       74    19262    1       LAST_FILE$ = ADDR (NIL);

  19262   1 00001B  DB80 0000 0000                       LAB,B5   0
          1 00001E  DFC7 0013                            STB,B5   LAST_FILE$,AUTO

       75    19263
       76    19264    1   CLEAR_FORM_FRAME_FIELD:
       77    19265    2       DO OPERAND_INDEX = 0 TO OPERAND_COUNT - 1;

  19265   1 000020  8747 0005            CLEAR_FORM_FRAM*CL       OPERAND_INDEX,AUTO
          1 000022  0F81 00D6                            B        s:19447+2,PREL

       78    19266
       79    19267              %PROC_ADDRESS ( THING@P =
             19267                  "INSTR$ -> QI$OP_CLEAR.OPERAND_A@P ( OPERAND_INDEX )",
       80    19268              CHECK_FOR_INDIRECTION = YES,
       81    19269              RESULT$ = "QI_1.CURRENT.NODE$" );
PL6.E3A0      #001=QBC$CLEAR File=QBC$CLEAR.:E05TSI                              WED 07/30/97 04:44 Page:19

  19287   1 000024  ECC7 0011                            LDB,B6   INSTR$,AUTO
          1 000026  B847 0005                            LDR,R3   OPERAND_INDEX,AUTO
          1 000028  3E02                                 ADV,R3   2
          1 000029  A836                                 LDR,R2   ,B6,R3
          1 00002A  F852                                 LDR,R7   R2
          1 00002B  6C00                                 LDV,R6   0
          1 00002C  8400 0000 0002  xsym                 AID      QI_1+2
          1 00002F  8D00 0000 0080  xsym                 SDI      QI_1+128

  19289   1 000032  DC80 0000 0080  xsym                 LDB,B5   QI_1+128
          1 000035  8985                                 CMZ      ,B5
          1 000036  0881 001C                            BAGE     s:19296,PREL

  19290   1 000038  EC80 0000 0080  xsym                 LDB,B6   QI_1+128
          1 00003B  E806                                 LDR,R6   ,B6
          1 00003C  6046                                 SOR,R6   6
          1 00003D  E570 0001                            AND,R6   1,IMO
          1 00003F  B846 0002                            LDR,R3   2,B6
          1 000041  A856                                 LDR,R2   R6
          1 000042  DCA0 0000 0000  xsym                 LDB,B5   QI_1,R2
          1 000045  DFC7 0032                            STB,B5   FIELD_INDEX+1,AUTO
          1 000047  F853                                 LDR,R7   R3
          1 000048  6C00                                 LDV,R6   0
          1 000049  8447 0032                            AID      FIELD_INDEX+1,AUTO
          1 00004B  8D00 0000 0080  xsym                 SDI      QI_1+128

  19294   1 00004E  EC80 0000 0080  xsym                 LDB,B6   QI_1+128
          1 000051  8986                                 CMZ      ,B6
          1 000052  0866                                 BAL      s:19290,SPREL

       82    19306
       83    19307    2   RETRY_NODE_CLEAR:
       84    19308    2         CALL QCF$FIND_CURRENTS;

  19308   1 000053  CBF0 0000            RETRY_NODE_CLEARLAB,B4   0,IMO
          1 000055  E380 0000 0000  xent                 LNJ,B6   QCF$FIND_CURRENTS
PL6.E3A0      #001=QBC$CLEAR File=QBC$CLEAR.:E05TSI                              WED 07/30/97 04:44 Page:20
          1 000058       0001                            DC       s:19310,PREL

       85    19309
       86    19310    2         IF QI_1.CURRENT.NODE$ -> QI$DAD.WORD0_FLAGS.TYPE = %QI#TYPE_FORM

  19310   1 000059  EC80 0000 0080  xsym                 LDB,B6   QI_1+128
          1 00005C  E806                                 LDR,R6   ,B6
          1 00005D  E570 000F                            AND,R6   15,IMO
          1 00005F  6D0B                                 CMV,R6   11
          1 000060  0981 0055                            BNE      s:19424,PREL

       87    19311    2         THEN
       88    19312    2   CLEAR_FORM:
       89    19313    3           DO;

  19313   1                              CLEAR_FORM      null
       90    19314
       91    19315    3             IF NOT QI_1.CURRENT.FORM_STATUS$ -> QI$FORM_STATUS.INDICATORS.OPEN_FLAGS.
             19315                      IS_OUTPUT

  19315   1 000062  DC80 0000 0078  xsym CLEAR_FORM      LDB,B5   QI_1+120
          1 000065  82C5 0008                            LB,'0400'X        8,B5
          1 000067       0400
          1 000068  0501 000C                            BBT      s:19325,PREL
          1 00006A  82C5 0008                            LB,'0200'X        8,B5
          1 00006C       0200
          1 00006D  0501 0007                            BBT      s:19325,PREL

       92    19316    3               AND NOT QI_1.CURRENT.FORM_STATUS$ -> QI$FORM_STATUS.INDICATORS.
             19316                        OPEN_FLAGS.IS_INPUT
       93    19317    3             THEN
       94    19318    4               DO;

       95    19319    4                 QI_1.ERROR_STATUS = %E$FILE_NOT_OPEN;

  19319   1 00006F  5C01                                 LDV,R5   1
          1 000070  DF00 0000 008C  xsym                 STR,R5   QI_1+140
PL6.E3A0      #001=QBC$CLEAR File=QBC$CLEAR.:E05TSI                              WED 07/30/97 04:44 Page:21

       96    19320    4                 GOTO CHECK_USE_PROCEDURE_OR_INVALID;

  19320   1 000073  0F81 008E                            B        s:19457,PREL

       97    19321    4               END;
       98    19322
       99    19323    3   CHECK_ALL_THE_FRAMES:
      100    19324    3             DO FRAME_INDEX =
      101    19325    4               0 TO QI_1.CURRENT.FORM$ -> QI$FORM_FILE.FRAME_COUNT - 1;

  19325   1 000075  8747 000A            CHECK_ALL_THE_F*CL       FRAME_INDEX,AUTO
          1 000077  0F81 0034                            B        s:19419+2,PREL

      102    19326
      103    19327                    %PROC_ADDRESS ( THING@P =
             19327                       "QI_1.CURRENT.FORM$ -> QI$FORM_FILE.FRAME_LIST_A@P ( FRAME_INDEX )",
      104    19328                    CHECK_FOR_INDIRECTION = NO,
      105    19329                    RESULT$ = FRAME$ );

  19347   1 000079  EC80 0000 0076  xsym                 LDB,B6   QI_1+118
          1 00007C  B847 000A                            LDR,R3   FRAME_INDEX,AUTO
          1 00007E  3E0B                                 ADV,R3   11
          1 00007F  A836                                 LDR,R2   ,B6,R3
          1 000080  F852                                 LDR,R7   R2
          1 000081  6C00                                 LDV,R6   0
          1 000082  8400 0000 0002  xsym                 AID      QI_1+2
          1 000085  8D47 0008                            SDI      FRAME$,AUTO

      106    19366
      107    19367                    %DATA_ADDRESS ( THING@D = "FRAME$ -> QI$FRAME.STATUS_AREA@D",
      108    19368                    CHECK_FOR_INDIRECTION = NO,
      109    19369                    RESULT$ = FRAME_STATUS$ );

  19387   1 000087  DCC7 0008                            LDB,B5   FRAME$,AUTO
          1 000089  9845 0006                            LDR,R1   6,B5
          1 00008B  F851                                 LDR,R7   R1
PL6.E3A0      #001=QBC$CLEAR File=QBC$CLEAR.:E05TSI                              WED 07/30/97 04:44 Page:22
          1 00008C  6C00                                 LDV,R6   0
          1 00008D  8400 0000 0000  xsym                 AID      QI_1
          1 000090  8D47 000B                            SDI      FRAME_STATUS$,AUTO

      110    19406
      111    19407    4               IF FRAME_STATUS$ -> QI$FRAME_STATUS.INDICATORS.IS_ACTIVE

  19407   1 000092  CCC7 000B                            LDB,B4   FRAME_STATUS$,AUTO
          1 000094  89C4 000C                            CMZ      12,B4
          1 000096  0881 0013                            BAGE     s:19419,PREL

      112    19408    4               THEN
      113    19409    4   CLEAR_THAT_FRAME:
      114    19410    5                 DO;

  19410   1                              CLEAR_THAT_FRAMEnull
      115    19411    5                   FIELD_START_INDEX = FRAME_STATUS$ -> QI$FRAME_STATUS.GZ.
             19411                            FIELD_START_INDEX;

  19411   1 000098  D804                 CLEAR_THAT_FRAMELDR,R5   ,B4
          1 000099  DF47 0006                            STR,R5   FIELD_START_INDEX,AUTO

      116    19412    5                   FIELD_STOP_INDEX = FRAME_STATUS$ -> QI$FRAME_STATUS.GZ.
             19412                            FIELD_STOP_INDEX;

  19412   1 00009B  C844 0001                            LDR,R4   1,B4
          1 00009D  CF47 0007                            STR,R4   FIELD_STOP_INDEX,AUTO

      117    19413    5                   GZ_HEADER$ = FRAME_STATUS$ -> QI$FRAME_STATUS.GZ.HEADER$;

  19413   1 00009F  BCC4 0004                            LDB,B3   4,B4
          1 0000A1  BFC7 000F                            STB,B3   GZ_HEADER$,AUTO

      118    19414    5                   GZ_FIELD$ = FRAME_STATUS$ -> QI$FRAME_STATUS.GZ.START$;

  19414   1 0000A3  ACC4 0006                            LDB,B2   6,B4
          1 0000A5  AFC7 000D                            STB,B2   GZ_FIELD$,AUTO
PL6.E3A0      #001=QBC$CLEAR File=QBC$CLEAR.:E05TSI                              WED 07/30/97 04:44 Page:23

      119    19415
      120    19416    5                   CALL CLEAR_SELECTED_FIELDS;

  19416   1 0000A7  E3C0 00A3                            LNJ,B6   s:0,PREL
          1 0000A9       0001                            DC       s:19419,PREL

      121    19417    5                 END CLEAR_THAT_FRAME;

      122    19418
      123    19419    4             END CHECK_ALL_THE_FRAMES;

  19419   1 0000AA  8AC7 000A                            INC      FRAME_INDEX,AUTO
          1 0000AC  EC80 0000 0076  xsym                 LDB,B6   QI_1+118
          1 0000AF  E847 000A                            LDR,R6   FRAME_INDEX,AUTO
          1 0000B1  E946 0001                            CMR,R6   1,B6
          1 0000B3  0246                                 BL       s:19347,SPREL

      124    19420
      125    19421    3           END CLEAR_FORM;

  19421   1 0000B4  0F81 0042                            B        s:19447,PREL

      126    19422    2         ELSE
      127    19423    2   CLEAR_FRAME_OR_LESS:
      128    19424    3           DO;

  19424   1                              CLEAR_FRAME_OR_*null
      129    19425    3             IF NOT QI_1.CURRENT.FRAME_STATUS$ -> QI$FRAME_STATUS.INDICATORS.IS_ACTIVE

  19425   1 0000B6  DC80 0000 007C  xsym CLEAR_FRAME_OR_*LDB,B5   QI_1+124
          1 0000B9  89C5 000C                            CMZ      12,B5
          1 0000BB  0801 0007                            BAL      s:19432,PREL

      130    19426    3             THEN
      131    19427    4               DO;

PL6.E3A0      #001=QBC$CLEAR File=QBC$CLEAR.:E05TSI                              WED 07/30/97 04:44 Page:24
      132    19428    4                 QI_1.ERROR_STATUS = %E$FRAME_NOT_ACTIVE;

  19428   1 0000BD  5C07                                 LDV,R5   7
          1 0000BE  DF00 0000 008C  xsym                 STR,R5   QI_1+140

      133    19429    4                 GOTO CHECK_USE_PROCEDURE_OR_INVALID;

  19429   1 0000C1  0F81 0040                            B        s:19457,PREL

      134    19430    4               END;
      135    19431
      136    19432    3             IF NOT QI_1.CURRENT.FORM_STATUS$ -> QI$FORM_STATUS.INDICATORS.OPEN_FLAGS.
             19432                      IS_OUTPUT

  19432   1 0000C3  CC80 0000 0078  xsym                 LDB,B4   QI_1+120
          1 0000C6  82C4 0008                            LB,'0400'X        8,B4
          1 0000C8       0400
          1 0000C9  0501 000C                            BBT      s:19440,PREL
          1 0000CB  82C4 0008                            LB,'0200'X        8,B4
          1 0000CD       0200
          1 0000CE  0501 0007                            BBT      s:19440,PREL

      137    19433    3               AND NOT QI_1.CURRENT.FORM_STATUS$ -> QI$FORM_STATUS.INDICATORS.
             19433                        OPEN_FLAGS.IS_INPUT
      138    19434    3             THEN
      139    19435    4               DO;

      140    19436    4                 QI_1.ERROR_STATUS = %E$FILE_NOT_OPEN;

  19436   1 0000D0  5C01                                 LDV,R5   1
          1 0000D1  DF00 0000 008C  xsym                 STR,R5   QI_1+140

      141    19437    4                 GOTO CHECK_USE_PROCEDURE_OR_INVALID;

  19437   1 0000D4  0F81 002D                            B        s:19457,PREL

      142    19438    4               END;
PL6.E3A0      #001=QBC$CLEAR File=QBC$CLEAR.:E05TSI                              WED 07/30/97 04:44 Page:25
      143    19439
      144    19440    3             FIELD_START_INDEX = QI_1.CURRENT.NODE_STATUS$ -> QI$MAJOR_STATUS.GZ.
             19440                      FIELD_START_INDEX;

  19440   1 0000D6  BC80 0000 0082  xsym                 LDB,B3   QI_1+130
          1 0000D9  D803                                 LDR,R5   ,B3
          1 0000DA  DF47 0006                            STR,R5   FIELD_START_INDEX,AUTO

      145    19441    3             FIELD_STOP_INDEX = QI_1.CURRENT.NODE_STATUS$ -> QI$MAJOR_STATUS.GZ.
             19441                      FIELD_STOP_INDEX;

  19441   1 0000DC  C843 0001                            LDR,R4   1,B3
          1 0000DE  CF47 0007                            STR,R4   FIELD_STOP_INDEX,AUTO

      146    19442    3             GZ_HEADER$ = QI_1.CURRENT.FRAME_STATUS$ -> QI$FRAME_STATUS.GZ.HEADER$;

  19442   1 0000E0  ACC5 0004                            LDB,B2   4,B5
          1 0000E2  AFC7 000F                            STB,B2   GZ_HEADER$,AUTO

      147    19443    3             GZ_FIELD$ = PINCRW ( QI_1.CURRENT.FRAME_STATUS$ -> QI$FRAME_STATUS.GZ.
             19443                      START$,

  19443   1 0000E4  9CC5 0006                            LDB,B1   6,B5
          1 0000E6  9FC7 0032                            STB,B1   FIELD_INDEX+1,AUTO
          1 0000E8  F855                                 LDR,R7   R5
          1 0000E9  6C00                                 LDV,R6   0
          1 0000EA  9B80 0000 0000  02                   LAB,B1   0
          1 0000ED  D380 0000 0000  xent                 LNJ,B5   X6D_MID
          1 0000F0  8447 0032                            AID      FIELD_INDEX+1,AUTO
          1 0000F2  8D47 000D                            SDI      GZ_FIELD$,AUTO

      148    19444    3               FIELD_START_INDEX * SIZEW (QI$GZ_FIELD) );
      149    19445
      150    19446    3             CALL CLEAR_SELECTED_FIELDS;

  19446   1 0000F4  E3C0 0056                            LNJ,B6   s:0,PREL
          1 0000F6       0001                            DC       s:19447,PREL
PL6.E3A0      #001=QBC$CLEAR File=QBC$CLEAR.:E05TSI                              WED 07/30/97 04:44 Page:26

      151    19447    3           END CLEAR_FRAME_OR_LESS;

      152    19448
      153    19449    2   NEXT_NODE_PLEASE:
      154    19450
      155    19451    2       END CLEAR_FORM_FRAME_FIELD;

  19451   1 0000F7  8AC7 0005            NEXT_NODE_PLEASEINC      OPERAND_INDEX,AUTO
          1 0000F9  E847 0005                            LDR,R6   OPERAND_INDEX,AUTO
          1 0000FB  E947 0004                            CMR,R6   OPERAND_COUNT,AUTO
          1 0000FD  0201 FF26                            BL       s:19287,PREL

      156    19452
      157    19453    1       RETURN;

  19453   1 0000FF  C380 0000 0000  xent                 LNJ,B4   X6A_ARET

      158    19454
      159    19455        %EJECT;
PL6.E3A0      #001=QBC$CLEAR File=QBC$CLEAR.:E05TSI                              WED 07/30/97 04:44 Page:27
      160    19456    1   CHECK_USE_PROCEDURE_OR_INVALID:
      161    19457    1       QCU@USE.USE_DEFAULT_IO = %QI#USE_DEFAULT_NONE;

  19457   1 000102  8747 0019            CHECK_USE_PROCE*CL       QCU@USE+4,AUTO

      162    19458    1       QCU@USE.IS_TIME_TO_SAVE_AWAY_FIELDS = %NO;

  19458   1 000104  8747 001A                            CL       QCU@USE+5,AUTO

      163    19459    1       QCU@USE.CURR_FRAME$ = QI_1.CURRENT.FRAME$;

  19459   1 000106  DC80 0000 007A  xsym                 LDB,B5   QI_1+122
          1 000109  DFC7 0015                            STB,B5   QCU@USE,AUTO

      164    19460
      165    19461    1       IF QI_1.CURRENT.NODE$ -> QI$DAD.WORD0_FLAGS.TYPE < %QI#TYPE_MINOR

  19461   1 00010B  E806                                 LDR,R6   ,B6
          1 00010C  E570 000F                            AND,R6   15,IMO
          1 00010E  6D08                                 CMV,R6   8
          1 00010F  0281 0005                            BGE      s:19465,PREL

      166    19462    1       THEN
      167    19463    1         QCU@USE.CURR_NODE$ = QI_1.CURRENT.NODE$;

  19463   1 000111  EFC7 0017                            STB,B6   QCU@USE+2,AUTO
          1 000113  0F81 0006                            B        s:19467,PREL

      168    19464    1       ELSE
      169    19465    1         QCU@USE.CURR_NODE$ = ADDR (NIL);

  19465   1 000115  CB80 0000 0000                       LAB,B4   0
          1 000118  CFC7 0017                            STB,B4   QCU@USE+2,AUTO

      170    19466
      171    19467    1       CALL QCU$USE_IO ( QCU@USE );

PL6.E3A0      #001=QBC$CLEAR File=QBC$CLEAR.:E05TSI                              WED 07/30/97 04:44 Page:28
  19467   1 00011A  CBC7 0015                            LAB,B4   QCU@USE,AUTO
          1 00011C  CFC7 0032                            STB,B4   FIELD_INDEX+1,AUTO
          1 00011E  BBC7 0032                            LAB,B3   FIELD_INDEX+1,AUTO
          1 000120  CBF0 0100                            LAB,B4   256,IMO
          1 000122  E380 0000 0000  xent                 LNJ,B6   QCU$USE_IO
          1 000125       0001                            DC       s:19469,PREL

      172    19468
      173    19469    2       DO CASE ( QCU@USE.STATUS );

  19469   1 000126  B847 0022                            LDR,R3   QCU@USE+13,AUTO
          1 000128  3D03                                 CMV,R3   3
          1 000129  0281 0016                            BGE      s:19482,PREL
          1 00012B  A830 0000 0131  01                   LDR,R2   s:19469+11,R3
          1 00012E  83A0 0000 0134  01                   JMP      s:19472,R2
          1 000131       0000                            DC       s:19472,PREL
          1 000132       0003                            DC       s:19475,PREL
          1 000133       0005                            DC       s:19478,PREL

      174    19470
      175    19471    2         CASE ( %QI#USE_INVALID_RETURN );

      176    19472    2           RETURN;

  19472   1 000134  C380 0000 0000  xent                 LNJ,B4   X6A_ARET

      177    19473
      178    19474    2         CASE ( %QI#USE_INVALID_RETRY );

      179    19475    2           GOTO RETRY_NODE_CLEAR;

  19475   1 000137  0F81 FF1B                            B        s:19296,PREL

      180    19476
      181    19477    2         CASE ( %QI#USE_INVALID_SKIP_TO_NEXT );

      182    19478    2           LAST_FILE$ = ADDR (NIL);
PL6.E3A0      #001=QBC$CLEAR File=QBC$CLEAR.:E05TSI                              WED 07/30/97 04:44 Page:29

  19478   1 000139  EB80 0000 0000                       LAB,B6   0
          1 00013C  EFC7 0013                            STB,B6   LAST_FILE$,AUTO

      183    19479    2           GOTO NEXT_NODE_PLEASE;

  19479   1 00013E  0F81 FFB8                            B        s:19447,PREL

      184    19480
      185    19481    2         CASE ( ELSE );

      186    19482    2           CALL QCE$ERROR_INTERNAL ( %E$INTERNAL_INTERPRETER_ERROR );

  19482   1 000140  BB80 0000 0003  02                   LAB,B3   +3
          1 000143  CBF0 0100                            LAB,B4   256,IMO
          1 000145  E380 0000 0000  xent                 LNJ,B6   QCE$ERROR_INTERNAL
          1 000148       0001                            DC       s:19484,PREL

      187    19483
      188    19484    2       END;

  19484   1 000149  0F81 00E6                            B        s:19655,PREL

      189    19485
      190    19486        %EJECT;
PL6.E3A0      #001=QBC$CLEAR File=QBC$CLEAR.:E05TSI                              WED 07/30/97 04:44 Page:30
      191    19487    1   CLEAR_SELECTED_FIELDS: PROC;

  19487   1 00014B  EFC7 0024            CLEAR_SELECTED_*STB,B6   QCU@USE+15,AUTO

      192    19488
      193    19489          %FPT_ERASE ( FPTN = FPT@ERASE,
      194    19490                       STCLASS = AUTO );
      195    19523
      196    19524    2     DCL ERROR_STATUS$ PTR;
      197    19525    2     DCL FIELD_INDEX UBIN;
      198    19526
      199    19527    2     DCL QCE$ERROR_M$INTERNAL ENTRY (4);
      200    19528
      201    19529            /*  The CONSTANT copy has CNS and PRT set...
      202    19530                (we'll assume we know what we're doing).  */
      203    19531    2       FPT@ERASE = QI_FPT_ERASE;

  19531   1 00014D  AB80 0000 0000  xsym                 LAB,B2   QI_FPT_ERASE
          1 000150  2C00                                 LDV,R2   0
          1 000151  6C12                                 LDV,R6   18
          1 000152  BB87                                 LAB,B3   ,AUTO
          1 000153  3C4C                                 LDV,R3   76
          1 000154  0008                                 MMM

      204    19532    2       VBASE ( FPT@ERASE.V_ ) = ADDR ( FPT@ERASE.V );

  19532   1 000155  EBC7 002C                            LAB,B6   FPT@ERASE+6,AUTO
          1 000157  EFC7 0027                            STB,B6   FPT@ERASE+1,AUTO

      205    19533    2       FPT@ERASE.V.DCB# = GZ_HEADER$ -> QI$GZ_HEADER.DCB#;

  19533   1 000159  DCC7 000F                            LDB,B5   GZ_HEADER$,AUTO
          1 00015B  E845 0003                            LDR,R6   3,B5
          1 00015D  E7C7 002C                            STH,R6   FPT@ERASE+6,AUTO

      206    19534
      207    19535    2   CHECK_SELECTED_FIELDS:
PL6.E3A0      #001=QBC$CLEAR File=QBC$CLEAR.:E05TSI                              WED 07/30/97 04:44 Page:31
      208    19536    3       DO FIELD_INDEX = FIELD_START_INDEX TO FIELD_STOP_INDEX;

  19536   1 00015F  E847 0006            CHECK_SELECTED_*LDR,R6   FIELD_START_INDEX,AUTO
          1 000161  EF47 0031                            STR,R6   FIELD_INDEX,AUTO
          1 000163  0F81 00C2                            B        s:19649+2,PREL

      209    19537
      210    19538    3         IF INSTR$ -> QI$OP_CLEAR.IO_FLAGS

  19538   1 000165  ECC7 0011                            LDB,B6   INSTR$,AUTO
          1 000167  E846 0001                            LDR,R6   1,B6
          1 000169  6001                                 SOL,R6   1
          1 00016A  E570 C000                            AND,R6   -16384,IMO
          1 00016C  DCC7 000D                            LDB,B5   GZ_FIELD$,AUTO
          1 00016E  D845 0002                            LDR,R5   2,B5
          1 000170  D570 C000                            AND,R5   -16384,IMO
          1 000172  E555                                 AND,R6   R5
          1 000173  6901 00A9                            BEZ,R6   s:19647,PREL

      211    19539    3           & GZ_FIELD$ -> QI$GZ_FIELD.DESCRIPTION.IO_FLAGS
      212    19540    3         THEN
      213    19541    3   FIELD_IS_CORRECT_IO_TYPE:
      214    19542    4           DO;

  19542   1                              FIELD_IS_CORREC*null
      215    19543
      216    19544    5             DO CASE ( GZ_FIELD$ -> QI$GZ_FIELD.DESCRIPTION.IO_VALUE );

  19544   1 000175  B845 0002            FIELD_IS_CORREC*LDR,R3   2,B5
          1 000177  304E                                 SOR,R3   14
          1 000178  3D04                                 CMV,R3   4
          1 000179  0281 0043                            BGE      s:19573,PREL
          1 00017B  A830 0000 0181  01                   LDR,R2   FIELD_IS_CORRECT_IO_TYPE+12,R3
          1 00017E  83A0 0000 0185  01                   JMP      s:19547,R2
          1 000181       0038                            DC       s:19573,PREL
          1 000182       0000                            DC       s:19547,PREL
          1 000183       0007                            DC       s:19552,PREL
PL6.E3A0      #001=QBC$CLEAR File=QBC$CLEAR.:E05TSI                              WED 07/30/97 04:44 Page:32
          1 000184       0017                            DC       s:19559,PREL

      217    19545
      218    19546    5               CASE ( %QI#IO_VALUE_INPUT );

      219    19547    5                 IF NOT GZ_FIELD$ -> QI$GZ_FIELD.INDICATORS$ -> QI$INDICATORS.
             19547                          ENABLED_FLAGS.IS_INPUT

  19547   1 000185  CC85                                 LDB,B4   ,B5
          1 000186  8284                                 LB,'2000'X        ,B4
          1 000187       2000
          1 000188  0581 0094                            BBF      s:19647,PREL
          1 00018A  0F81 0032                            B        s:19573,PREL

      220    19548    5                 THEN
      221    19549    5                   EXIT FIELD_IS_CORRECT_IO_TYPE;
      222    19550
      223    19551    5               CASE ( %QI#IO_VALUE_OUTPUT );

      224    19552    5                 IF ( NOT GZ_FIELD$ -> QI$GZ_FIELD.INDICATORS$ -> QI$INDICATORS.
             19552                          ENABLED_FLAGS.IS_OUTPUT )

  19552   1 00018C  CC85                                 LDB,B4   ,B5
          1 00018D  8284                                 LB,'4000'X        ,B4
          1 00018E       4000
          1 00018F  0581 008D                            BBF      s:19647,PREL
          1 000191  82C5 0002                            LB,'1000'X        2,B5
          1 000193       1000
          1 000194  0581 0005                            BBF      s:19552+14,PREL
          1 000196  89C6 0001                            CMZ      1,B6
          1 000198  0881 0084                            BAGE     s:19647,PREL
          1 00019A  0F81 0022                            B        s:19573,PREL

      225    19553    5                   OR ( GZ_FIELD$ -> QI$GZ_FIELD.DESCRIPTION.IS_OUTPUT_CONSTANT
      226    19554    5                   AND NOT INSTR$ -> QI$OP_CLEAR.IS_CLEAR_ALL )
      227    19555    5                 THEN
      228    19556    5                   EXIT FIELD_IS_CORRECT_IO_TYPE;
PL6.E3A0      #001=QBC$CLEAR File=QBC$CLEAR.:E05TSI                              WED 07/30/97 04:44 Page:33
      229    19557
      230    19558    5               CASE ( %QI#IO_VALUE_IO );

      231    19559    5                 IF ( ( INSTR$ -> QI$OP_CLEAR.IO_VALUE = %QI#IO_VALUE_INPUT )

  19559   1 00019C  E846 0001                            LDR,R6   1,B6
          1 00019E  604D                                 SOR,R6   13
          1 00019F  E570 0003                            AND,R6   3,IMO
          1 0001A1  6D01                                 CMV,R6   1
          1 0001A2  0981 0006                            BNE      s:19559+13,PREL
          1 0001A4  CC85                                 LDB,B4   ,B5
          1 0001A5  8284                                 LB,'2000'X        ,B4
          1 0001A6       2000
          1 0001A7  0581 0075                            BBF      s:19647,PREL
          1 0001A9  6D02                                 CMV,R6   2
          1 0001AA  0981 0006                            BNE      s:19559+21,PREL
          1 0001AC  CC85                                 LDB,B4   ,B5
          1 0001AD  8284                                 LB,'4000'X        ,B4
          1 0001AE       4000
          1 0001AF  0581 006D                            BBF      s:19647,PREL
          1 0001B1  6D03                                 CMV,R6   3
          1 0001B2  0981 000A                            BNE      s:19573,PREL
          1 0001B4  CC85                                 LDB,B4   ,B5
          1 0001B5  8284                                 LB,'2000'X        ,B4
          1 0001B6       2000
          1 0001B7  0501 0005                            BBT      s:19573,PREL
          1 0001B9  8284                                 LB,'4000'X        ,B4
          1 0001BA       4000
          1 0001BB  0581 0061                            BBF      s:19647,PREL

      232    19560    5                   AND NOT GZ_FIELD$ -> QI$GZ_FIELD.INDICATORS$ -> QI$INDICATORS.
             19560                            ENABLED_FLAGS.IS_INPUT )
      233    19561    5                   OR ( ( INSTR$ -> QI$OP_CLEAR.IO_VALUE = %QI#IO_VALUE_OUTPUT )
      234    19562    5                   AND NOT GZ_FIELD$ -> QI$GZ_FIELD.INDICATORS$ -> QI$INDICATORS.
             19562                            ENABLED_FLAGS.IS_OUTPUT )
      235    19563    5                   OR ( ( INSTR$ -> QI$OP_CLEAR.IO_VALUE = %QI#IO_VALUE_IO )
      236    19564    5                   AND NOT GZ_FIELD$ -> QI$GZ_FIELD.INDICATORS$ -> QI$INDICATORS.
PL6.E3A0      #001=QBC$CLEAR File=QBC$CLEAR.:E05TSI                              WED 07/30/97 04:44 Page:34
             19564                            ENABLED_FLAGS.IS_INPUT
      237    19565    5                   AND NOT GZ_FIELD$ -> QI$GZ_FIELD.INDICATORS$ -> QI$INDICATORS.
             19565                            ENABLED_FLAGS.IS_OUTPUT )
      238    19566    5                 THEN
      239    19567    5                   EXIT FIELD_IS_CORRECT_IO_TYPE;
      240    19568
      241    19569    5             END;

      242    19570
      243    19571                  /*  Don't bother CLEARing fields with no data...they're already clear.
      244    19572                      See also OUTPUT CONSTANT optimization in QCI$IO_WRITE.  */
      245    19573    4             IF GZ_FIELD$ -> QI$GZ_FIELD.STATUS.LENGTH = 0

  19573   1 0001BD  82C5 0006                            LB,'00FF'X        6,B5
  19573   1 0001BF       00FF
          1 0001C0  0581 005C                            BBF      s:19647,PREL

      246    19574    4             THEN
      247    19575    4               EXIT FIELD_IS_CORRECT_IO_TYPE;
      248    19576
      249    19577    4            FPT@ERASE.KEY_ = VECTOR ( GZ_FIELD$ -> QI$GZ_FIELD.DESCRIPTION.POSITION );

  19577   1 0001C2  CBC5 0003                            LAB,B4   3,B5
          1 0001C4  CFC7 0033                            STB,B4   FIELD_INDEX+2,AUTO
          1 0001C6  6C01                                 LDV,R6   1
          1 0001C7  EF47 0032                            STR,R6   FIELD_INDEX+1,AUTO
          1 0001C9  ABC7 0032                            LAB,B2   FIELD_INDEX+1,AUTO
          1 0001CB  2C00                                 LDV,R2   0
          1 0001CC  6C06                                 LDV,R6   6
          1 0001CD  BB87                                 LAB,B3   ,AUTO
          1 0001CE  3C52                                 LDV,R3   82
          1 0001CF  0008                                 MMM

      250    19578
      251    19579    4             CALL QGB$ERASE ( FPT@ERASE, QGB_PARAM )

  19579   1 0001D0  EB80 0000 0000  xsym                 LAB,B6   QGB_PARAM
PL6.E3A0      #001=QBC$CLEAR File=QBC$CLEAR.:E05TSI                              WED 07/30/97 04:44 Page:35
          1 0001D3  EFC7 0034                            STB,B6   FIELD_INDEX+3,AUTO
          1 0001D5  DBC7 0026                            LAB,B5   FPT@ERASE,AUTO
          1 0001D7  DFC7 0032                            STB,B5   FIELD_INDEX+1,AUTO
          1 0001D9  BBC7 0032                            LAB,B3   FIELD_INDEX+1,AUTO
          1 0001DB  CBF0 0200                            LAB,B4   512,IMO
          1 0001DD  E380 0000 0000  xent                 LNJ,B6   QGB$ERASE
          1 0001E0       0003                            DC       s:19582,PREL
          1 0001E1  0F81 000A                            B        s:19585,PREL

      252    19580    4             WHENALTRETURN
      253    19581    5               DO;

      254    19582    5                 CALL QCE$ERROR_M$INTERNAL ( %E$UNEXPECTED_ALTRET );

  19582   1 0001E3  BB80 0000 0006  02                   LAB,B3   +6
          1 0001E6  CBF0 0100                            LAB,B4   256,IMO
          1 0001E8  E380 0000 0000  xent                 LNJ,B6   QCE$ERROR_M$INTERNAL
          1 0001EB       0001                            DC       s:19585,PREL

      255    19583    5               END;

      256    19584
      257    19585    4             GZ_FIELD$ -> QI$GZ_FIELD.STATUS.LENGTH = 0;

  19585   1 0001EC  ECC7 000D                            LDB,B6   GZ_FIELD$,AUTO
          1 0001EE  8846 0006                            LBF,'00FF'X       6,B6
          1 0001F0       00FF

      258    19586
      259    19587    4             IF NOT GZ_FIELD$ -> QI$GZ_FIELD.DESCRIPTION.IS_OUTPUT_CONSTANT

  19587   1 0001F1  82C6 0002                            LB,'1000'X        2,B6
  19587   1 0001F3       1000
          1 0001F4  0501 0004                            BBT      s:19591,PREL

      260    19588    4             THEN
      261    19589    4               GZ_FIELD$ -> QI$GZ_FIELD.INDICATORS$ -> QI$INDICATORS.STATE_VALUE = %
PL6.E3A0      #001=QBC$CLEAR File=QBC$CLEAR.:E05TSI                              WED 07/30/97 04:44 Page:36
             19589                        QI#STATE_NULL;

  19589   1 0001F6  DC86                                 LDB,B5   ,B6
          1 0001F7  8805                                 LBF,'1800'X       ,B5
          1 0001F8       1800

      262    19590
      263    19591    4             QI_1.SCREEN_UPDATE_FLAGS.WAS_CLEARED = %YES;

  19591   1 0001F9  8900 0000 0016  xsym                 LBT,'4000'X       QI_1+22
  19591   1 0001FC       4000

      264    19592
      265    19593    4             IF QI_1.CURRENT.FORM$ -> QI$FORM_FILE.WORD0_FLAGS.IS_ERROR_STATUS_VALID

  19593   1 0001FD  DC80 0000 0076  xsym                 LDB,B5   QI_1+118
          1 000200  8285                                 LB,'4000'X        ,B5
          1 000201       4000
          1 000202  0581 001A                            BBF      s:19647,PREL

      266    19594    4             THEN
      267    19595    5               DO;

      268    19596    5                 IF QI_1.CURRENT.FORM$ ~= LAST_FILE$

  19596   1 000204  DDC7 0013                            CMB,B5   LAST_FILE$,AUTO
          1 000206  0901 0016                            BE       s:19647,PREL

      269    19597    5                 THEN
      270    19598    6                   DO;

      271    19599    6                     LAST_FILE$ = QI_1.CURRENT.FORM$;

  19599   1 000208  DFC7 0013                            STB,B5   LAST_FILE$,AUTO

      272    19600
      273    19601                          %DATA_ADDRESS ( THING@D =
PL6.E3A0      #001=QBC$CLEAR File=QBC$CLEAR.:E05TSI                              WED 07/30/97 04:44 Page:37
             19601                              "QI_1.CURRENT.FORM$ -> QI$FORM_FILE.ERROR_STATUS@D",
      274    19602                          CHECK_FOR_INDIRECTION = NO,
      275    19603                          RESULT$ = ERROR_STATUS$ );

  19621   1 00020A  B845 0003                            LDR,R3   3,B5
          1 00020C  F853                                 LDR,R7   R3
          1 00020D  6C00                                 LDV,R6   0
          1 00020E  8400 0000 0000  xsym                 AID      QI_1
          1 000211  8D47 002F                            SDI      ERROR_STATUS$,AUTO

      276    19640
      277    19641    6                     ERROR_STATUS$ -> QI$ERROR_STATUS.TEXT = %QI#OP_CLEAR_TEXT;

  19641   1 000213  CB80 0000 0000  00                   LAB,B4   0
          1 000216  BCC7 002F                            LDB,B3   ERROR_STATUS$,AUTO
          1 000218  0021                                 ALR      ;
          1 000219       4204 0000                                ALPHANUM(0,B4,,2),;
          1 00021B       4803 0000                                ALPHANUM(0,B3,,8,FILL)

      278    19642    6                   END;

      279    19643    5               END;

      280    19644
      281    19645    4           END FIELD_IS_CORRECT_IO_TYPE;

      282    19646
      283    19647    3         GZ_FIELD$ = PINCRW ( GZ_FIELD$, SIZEW (QI$GZ_FIELD) );

  19647   1 00021D  437F                                 CSYNC    s:19641+9,SPREL
          1 00021E  ECC7 000D                            LDB,B6   GZ_FIELD$,AUTO
          1 000220  DBC6 000C                            LAB,B5   12,B6
          1 000222  DFC7 000D                            STB,B5   GZ_FIELD$,AUTO

      284    19648
      285    19649    3       END CHECK_SELECTED_FIELDS;

PL6.E3A0      #001=QBC$CLEAR File=QBC$CLEAR.:E05TSI                              WED 07/30/97 04:44 Page:38
  19649   1 000224  8AC7 0031                            INC      FIELD_INDEX,AUTO
          1 000226  E847 0031                            LDR,R6   FIELD_INDEX,AUTO
          1 000228  E947 0007                            CMR,R6   FIELD_STOP_INDEX,AUTO
          1 00022A  0381 FF3A                            BLE      s:19538,PREL

      286    19650
      287    19651    2       RETURN;

  19651   1 00022C  ECC7 0024                            LDB,B6   QCU@USE+15,AUTO
          1 00022E  C3C6 0001                            LNJ,B4   1,B6

      288    19652
      289    19653    2   END CLEAR_SELECTED_FIELDS;
      290    19654
      291    19655    1   END QBC$CLEAR;

  19655   1 000230  C380 0000 0000  xent                 LNJ,B4   X6A_ARET

PL6.E3A0      #001=QBC$CLEAR File=QBC$CLEAR.:E05TSI                              WED 07/30/97 04:44 Page:39
--  Include file information  --

   QCU_USE_M.:E05TOU  is referenced.
   QI_MACROS_M.:E05TOU  is referenced.
   QI_PERR_C.:E05TOU  is referenced.
   QI_EQUATES_E.:E05TOU  is referenced.
   QG_MACRO_M.:E05TOU  is referenced.
   LCP_6.:E05TOU  cannot be made into a system file and is referenced.
   G_LCP6_E.:E05TOU  was found in the system file and is referenced.
   GT_LCP6_M.:E05TOU  was found in the system file and is referenced.
   KI_CP6.:E05TOU  was found in the system file and is referenced.
   GF_LCP6_M.:E05TOU  was found in the system file and is referenced.
   GM_LCP6_M.:E05TOU  was found in the system file and is referenced.
   GU_LCP6_M.:E05TOU  was found in the system file and is referenced.
   GJ_LCP6_M.:E05TOU  was found in the system file and is referenced.
   GH_LCP6_M.:E05TOU  was found in the system file and is referenced.
      No diagnostics issued in procedure QBC$CLEAR.
PL6.E3A0      #001=QBC$CLEAR File=QBC$CLEAR.:E05TSI                              WED 07/30/97 04:44 Page:40

 **** Variables and constants ****

  ****  Auto variables  ****

  ****  Scalars and arrays  ****
HexLoc.c.b A Datatyp(siz) R M Lvl/name                 HexLoc.c.b A Datatyp(siz) R M Lvl/name

    2F-0-0/w PTR         r     1 ERROR_STATUS$             31-0-0/w UBIN(16)    r     1 FIELD_INDEX
     6-0-0/w UBIN(16)    r     1 FIELD_START_INDEX          7-0-0/w UBIN(16)    r     1 FIELD_STOP_INDEX
    26-0-0/w STRC(144)   r     1 FPT@ERASE                  8-0-0/w PTR         r     1 FRAME$
     A-0-0/w UBIN(16)    r     1 FRAME_INDEX                B-0-0/w PTR         r     1 FRAME_STATUS$
     D-0-0/w PTR         r     1 GZ_FIELD$                  F-0-0/w PTR         r     1 GZ_HEADER$
    11-0-0/w PTR         r     1 INSTR$                    13-0-0/w PTR         r     1 LAST_FILE$
     4-0-0/w UBIN(16)    r     1 OPERAND_COUNT              5-0-0/w UBIN(16)    r     1 OPERAND_INDEX
    15-0-0/w STRC(224)   r     1 QCU@USE

  ****  SYMREF variables  ****

  ****  Scalars and arrays  ****
HexLoc.c.b A Datatyp(siz) R M Lvl/name                 HexLoc.c.b A Datatyp(siz) R M Lvl/name

     0-0-0/w STRC(432)   r     1 QGB_PARAM                  0-0-0/d STRC(2576)  r     1 QI_1
     0-0-0/w STRC(144)   r     1 QI_FPT_ERASE

  ****  BASED and DCB variables  ****

  ****  Scalars and arrays  ****
HexLoc.c.b A Datatyp(siz) R M Lvl/name                 HexLoc.c.b A Datatyp(siz) R M Lvl/name

     0-0-0/w STRC(48)    r     1 QI$DAD                     0-0-0/c STRC(64)    r     1 QI$ERROR_STATUS
     0-0-0/w STRC(192)   r     1 QI$FORM_FILE               0-0-0/w STRC(144)   r     1 QI$FORM_STATUS
     0-0-0/w STRC(128)   r     1 QI$FRAME                   0-0-0/w STRC(208)   r     1 QI$FRAME_STATUS
     0-0-0/w STRC(184)   r     1 QI$GZ_FIELD                0-0-0/w STRC(176)   r     1 QI$GZ_HEADER
     0-0-0/w STRC(16)    r     1 QI$INDICATORS              0-0-0/w STRC(48)    r     1 QI$MAJOR_STATUS
     0-0-0/w STRC(48)    r     1 QI$OP_CLEAR
     0-0-0/c ASTR(8)     r     1 QI$VARIABLE_IDENTIFIER

PL6.E3A0      #001=QBC$CLEAR File=QBC$CLEAR.:E05TSI                              WED 07/30/97 04:44 Page:41

   Procedure QBC$CLEAR requires 563 words for executable code.
   Procedure QBC$CLEAR requires 54 words of local(AUTO) storage.

    No errors detected in file QBC$CLEAR.:E05TSI    .
PL6.E3A0      #001=QBC$CLEAR File=QBC$CLEAR.:E05TSI                              WED 07/30/97 04:44 Page:42
          *** CROSS REFERENCE LISTING ***
**     DENOTES     IDENTIFIER DEFINITION
<<                 IDENTIFIER'S VALUE SET
>>                 IDENTIFIER'S VALUE USED
<>                 IDENTIFIER SET AND/OR USED
--                 IDENTIFIER REFERENCED
PL6.E3A0      #001=QBC$CLEAR File=QBC$CLEAR.:E05TSI                              WED 07/30/97 04:44 Page:43
          MINI XREF LISTING

CHECK_USE_PROCEDURE_OR_INVALID
     19457**LABEL   19320--GOTO    19429--GOTO    19437--GOTO
CLEAR_SELECTED_FIELDS
     19487**PROC    19416--CALL    19446--CALL
ERROR_STATUS$ IN PROCEDURE CLEAR_SELECTED_FIELDS
     19524**DCL     19621<<ASSIGN  19641>>ASSIGN
FIELD_INDEX IN PROCEDURE CLEAR_SELECTED_FIELDS
     19525**DCL     19536<<DOINDEX
FIELD_IS_CORRECT_IO_TYPE IN PROCEDURE CLEAR_SELECTED_FIELDS
     19542**LABEL   19549--EXIT    19556--EXIT    19567--EXIT    19575--EXIT
FIELD_START_INDEX
     19125**DCL     19411<<ASSIGN  19440<<ASSIGN  19443>>ASSIGN  19536>>DOINDEX
FIELD_STOP_INDEX
     19126**DCL     19412<<ASSIGN  19441<<ASSIGN  19536>>DOINDEX
FPT@ERASE IN PROCEDURE CLEAR_SELECTED_FIELDS
     19506**DCL     19531<<ASSIGN  19579<>CALL
FPT@ERASE.KEY_ IN PROCEDURE CLEAR_SELECTED_FIELDS
     19512**DCL     19577<<ASSIGN
FPT@ERASE.V IN PROCEDURE CLEAR_SELECTED_FIELDS
     19514**DCL     19532--ASSIGN
FPT@ERASE.V.DCB# IN PROCEDURE CLEAR_SELECTED_FIELDS
     19514**DCL     19533<<ASSIGN
FPT@ERASE.V_ IN PROCEDURE CLEAR_SELECTED_FIELDS
     19508**DCL     19532<<ASSIGN
FRAME$
     19127**DCL     19347<<ASSIGN  19387>>ASSIGN
FRAME_INDEX
     19128**DCL     19325<<DOINDEX 19347>>ASSIGN
FRAME_STATUS$
     19129**DCL     19387<<ASSIGN  19407>>IF      19411>>ASSIGN  19412>>ASSIGN  19413>>ASSIGN  19414>>ASSIGN
GZ_FIELD$
     19130**DCL     19414<<ASSIGN  19443<<ASSIGN  19538>>IF      19544>>DOCASE  19547>>IF      19552>>IF
PL6.E3A0      #001=QBC$CLEAR File=QBC$CLEAR.:E05TSI                              WED 07/30/97 04:44 Page:44
     19552>>IF      19559>>IF      19559>>IF      19559>>IF      19559>>IF      19573>>IF      19577>>ASSIGN
     19585>>ASSIGN  19587>>IF      19589>>ASSIGN  19647<<ASSIGN  19647>>ASSIGN
GZ_HEADER$
     19131**DCL     19413<<ASSIGN  19442<<ASSIGN  19533>>ASSIGN
INSTR$
     19132**DCL     19259<<ASSIGN  19287>>ASSIGN  19538>>IF      19552>>IF      19559>>IF      19559>>IF
     19559>>IF
LAST_FILE$
     19133**DCL     19262<<ASSIGN  19478<<ASSIGN  19596>>IF      19599<<ASSIGN
NEXT_NODE_PLEASE
     19451**LABEL   19479--GOTO
OPERAND_COUNT
     19123**DCL     19258<<ASSIGN  19260>>ASSIGN  19265>>DOINDEX
OPERAND_INDEX
     19124**DCL     19265<<DOINDEX 19287>>ASSIGN
QCE$ERROR_INTERNAL
     19135**DCL-ENT 19482--CALL
QCE$ERROR_M$INTERNAL IN PROCEDURE CLEAR_SELECTED_FIELDS
     19527**DCL-ENT 19582--CALL
QCF$FIND_CURRENTS
     19136**DCL-ENT 19308--CALL
QCU$USE_IO
     19137**DCL-ENT 19467--CALL
QCU@USE
     19210**DCL     19467<>CALL
QCU@USE.CURR_FRAME$
     19211**DCL     19459<<ASSIGN
QCU@USE.CURR_NODE$
     19213**DCL     19463<<ASSIGN  19465<<ASSIGN
QCU@USE.IS_TIME_TO_SAVE_AWAY_FIELDS
     19218**DCL     19458<<ASSIGN
QCU@USE.STATUS
     19244**DCL     19469>>DOCASE
QCU@USE.USE_DEFAULT_IO
     19215**DCL     19457<<ASSIGN
QGB$ERASE
PL6.E3A0      #001=QBC$CLEAR File=QBC$CLEAR.:E05TSI                              WED 07/30/97 04:44 Page:45
       373**DCL-ENT 19579--CALL
QGB_PARAM
     11493**DCL     19579<>CALL
QGB_PARAM.DVE.DVBYTE.VFC
     11561**DCL     11562--REDEF
QGB_PARAM.DVE.EOMCHAR
     11573**DCL     11574--REDEF
QGB_PARAM.MSG$
     11555**DCL     11556--REDEF
QGB_PARAM.UHDR$
     11580**DCL     11581--REDEF
QI$ACTIVATION_STATUS
      9319**DCL      9325--REDEF
QI$CIP
      8160**DCL      8230--REDEF
QI$CIP.CA
      8165**DCL      8169--REDEF    8172--REDEF    8175--REDEF
QI$COBOL_DAD.PSEUDO_CIP
      8404**DCL      8429--REDEF
QI$COBOL_DAD.PSEUDO_CIP.ALPHANUMERIC
      8406**DCL      8411--REDEF
QI$COBOL_DAD.PSEUDO_CIP.NUMERIC.CB
      8412**DCL      8415--REDEF    8418--REDEF
QI$COBOL_DAD.VARIABLE_LENGTH_ITEMS
      8440**DCL      8456--REDEF    8464--REDEF    8472--REDEF
QI$COBOL_DAD.VARIABLE_LENGTH_ITEMS.LEVEL_MULTIPLIERS
      8441**DCL      8451--REDEF    8454--REDEF
QI$COBOL_DAD.WORD0
      8368**DCL      8369--REDEF    8383--REDEF
QI$COBOL_DAD_P_BITS.P
      8508**DCL      8514--REDEF
QI$CONDITION_CONTROL_BLOCK.LIST_A@P
      7994**DCL      7995--REDEF
QI$CONDITION_CONTROL_BLOCK.WORD0_FLAGS
      7990**DCL      7993--REDEF
QI$CONDITION_LEGAL_BLOCK.ARRAY@P
PL6.E3A0      #001=QBC$CLEAR File=QBC$CLEAR.:E05TSI                              WED 07/30/97 04:44 Page:46
      8027**DCL      8028--REDEF    8029--REDEF
QI$DAD.PSEUDO_CIP
      8307**DCL      8332--REDEF
QI$DAD.PSEUDO_CIP.ALPHANUMERIC
      8309**DCL      8314--REDEF
QI$DAD.PSEUDO_CIP.DATA@
      8331**DCL     19290>>ASSIGN
QI$DAD.PSEUDO_CIP.NUMERIC.CB
      8315**DCL      8318--REDEF    8321--REDEF
QI$DAD.WORD0
      8276**DCL      8277--REDEF
QI$DAD.WORD0_FLAGS.INDIRECT
      8278**DCL     19289>>DOWHILE
QI$DAD.WORD0_FLAGS.IS_CONSTANT
      8283**DCL     19290>>ASSIGN
QI$DAD.WORD0_FLAGS.TYPE
      8285**DCL     19310>>IF      19461>>IF
QI$ERROR_MESSAGE_LINE
     11668**DCL     11670--REDEF
QI$ERROR_STATUS
     11665**DCL     11667--REDEF
QI$ERROR_STATUS.TEXT
     11666**DCL     19641<<ASSIGN
QI$FIELD_DAD.ELEMENTARY_ITEM.P
      8722**DCL      8729--REDEF
QI$FIELD_DAD.ONE_DIMENSIONAL_ITEM.P
      8742**DCL      8749--REDEF
QI$FIELD_DAD.PSEUDO_CIP
      8649**DCL      8674--REDEF
QI$FIELD_DAD.PSEUDO_CIP.ALPHANUMERIC
      8651**DCL      8656--REDEF
QI$FIELD_DAD.PSEUDO_CIP.NUMERIC.CB
      8657**DCL      8660--REDEF    8663--REDEF
QI$FIELD_DAD.TWO_DIMENSIONAL_ITEM.P
      8762**DCL      8769--REDEF
QI$FIELD_DAD.VARIABLE_LENGTH_ITEMS
PL6.E3A0      #001=QBC$CLEAR File=QBC$CLEAR.:E05TSI                              WED 07/30/97 04:44 Page:47
      8705**DCL      8721--REDEF    8739--REDEF    8757--REDEF
QI$FIELD_DAD.VARIABLE_LENGTH_ITEMS.LEVEL_MULTIPLIERS
      8706**DCL      8716--REDEF    8719--REDEF
QI$FIELD_DAD.WORD0
      8601**DCL      8602--REDEF
QI$FIELD_DAD.WORD0_FLAGS.IO_FLAGS
      8605**DCL      8610--REDEF
QI$FIELD_DAD_P.P
      8803**DCL      8810--REDEF
QI$FIELD_STATUS.INDICATORS
      9469**DCL      9501--REDEF
QI$FIELD_STATUS.INDICATORS.ENABLED_FLAGS
      9473**DCL      9478--REDEF
QI$FIELD_STATUS.INDICATORS.OPEN_FLAGS
      9485**DCL      9492--REDEF
QI$FIELD_STATUS.INDICATORS.STATE_FLAGS
      9479**DCL      9484--REDEF
QI$FILE.WORD0
      8925**DCL      8926--REDEF
QI$FILE_STATUS.INDICATORS
      9762**DCL      9794--REDEF
QI$FILE_STATUS.INDICATORS.ENABLED_FLAGS
      9766**DCL      9771--REDEF
QI$FILE_STATUS.INDICATORS.OPEN_FLAGS
      9778**DCL      9785--REDEF
QI$FILE_STATUS.INDICATORS.STATE_FLAGS
      9772**DCL      9777--REDEF
QI$FORM_FILE.ERROR_STATUS@D
      9009**DCL     19621>>ASSIGN
QI$FORM_FILE.FRAME_COUNT
      9004**DCL     19325>>DOINDEX
QI$FORM_FILE.FRAME_LIST_A@P
      9033**DCL     19347>>ASSIGN
QI$FORM_FILE.USE_PROCEDURE
      9025**DCL      9032--REDEF
QI$FORM_FILE.WORD0
PL6.E3A0      #001=QBC$CLEAR File=QBC$CLEAR.:E05TSI                              WED 07/30/97 04:44 Page:48
      8979**DCL      8980--REDEF
QI$FORM_FILE.WORD0_FLAGS.IS_ERROR_STATUS_VALID
      8984**DCL     19593>>IF
QI$FORM_STATUS.INDICATORS
      9883**DCL      9915--REDEF
QI$FORM_STATUS.INDICATORS.ENABLED_FLAGS
      9887**DCL      9892--REDEF
QI$FORM_STATUS.INDICATORS.OPEN_FLAGS
      9899**DCL      9906--REDEF
QI$FORM_STATUS.INDICATORS.OPEN_FLAGS.IS_INPUT
      9903**DCL     19315>>IF      19432>>IF
QI$FORM_STATUS.INDICATORS.OPEN_FLAGS.IS_OUTPUT
      9900**DCL     19315>>IF      19432>>IF
QI$FORM_STATUS.INDICATORS.STATE_FLAGS
      9893**DCL      9898--REDEF
QI$FRAME.STATUS_AREA@D
      9156**DCL     19387>>ASSIGN
QI$FRAME.WORD0
      9140**DCL      9141--REDEF
QI$FRAME_STATUS.GZ.FIELD_START_INDEX
     10065**DCL     19411>>ASSIGN
QI$FRAME_STATUS.GZ.FIELD_STOP_INDEX
     10067**DCL     19412>>ASSIGN
QI$FRAME_STATUS.GZ.HEADER$
     10073**DCL     19413>>ASSIGN  19442>>ASSIGN
QI$FRAME_STATUS.GZ.START$
     10075**DCL     19414>>ASSIGN  19443>>ASSIGN
QI$FRAME_STATUS.INDICATORS
     10112**DCL     10144--REDEF
QI$FRAME_STATUS.INDICATORS.ENABLED_FLAGS
     10116**DCL     10121--REDEF
QI$FRAME_STATUS.INDICATORS.IS_ACTIVE
     10114**DCL     19407>>IF      19425>>IF
QI$FRAME_STATUS.INDICATORS.OPEN_FLAGS
     10128**DCL     10135--REDEF
QI$FRAME_STATUS.INDICATORS.STATE_FLAGS
PL6.E3A0      #001=QBC$CLEAR File=QBC$CLEAR.:E05TSI                              WED 07/30/97 04:44 Page:49
     10122**DCL     10127--REDEF
QI$GZ_FIELD
     16991**DCL     19443--ASSIGN  19647--ASSIGN
QI$GZ_FIELD.DESCRIPTION.IO_FLAGS
     16994**DCL     16999--REDEF   19538>>IF
QI$GZ_FIELD.DESCRIPTION.IO_VALUE
     16999**DCL     19544>>DOCASE
QI$GZ_FIELD.DESCRIPTION.IS_OUTPUT_CONSTANT
     17003**DCL     19552>>IF      19587>>IF
QI$GZ_FIELD.DESCRIPTION.POSITION
     17010**DCL     19577--ASSIGN
QI$GZ_FIELD.INDICATORS$
     16992**DCL     19547>>IF      19552>>IF      19559>>IF      19559>>IF      19559>>IF      19559>>IF
     19589>>ASSIGN
QI$GZ_FIELD.STATUS.LENGTH
     17028**DCL     19573>>IF      19585<<ASSIGN
QI$GZ_HEADER.DCB#
     16948**DCL     19533>>ASSIGN
QI$IDENTIFIER
     11671**DCL     11673--REDEF
QI$INDICATORS
      9383**DCL      9413--REDEF
QI$INDICATORS.ENABLED_FLAGS
      9389**DCL      9394--REDEF
QI$INDICATORS.ENABLED_FLAGS.IS_INPUT
      9392**DCL     19547>>IF      19559>>IF      19559>>IF
QI$INDICATORS.ENABLED_FLAGS.IS_OUTPUT
      9390**DCL     19552>>IF      19559>>IF      19559>>IF
QI$INDICATORS.OPEN_FLAGS
      9401**DCL      9408--REDEF
QI$INDICATORS.STATE_FLAGS
      9395**DCL      9400--REDEF
QI$INDICATORS.STATE_VALUE
      9400**DCL     19589<<ASSIGN
QI$MAJOR_NODE.WORD0
      8839**DCL      8840--REDEF
PL6.E3A0      #001=QBC$CLEAR File=QBC$CLEAR.:E05TSI                              WED 07/30/97 04:44 Page:50
QI$MAJOR_STATUS.GZ.FIELD_START_INDEX
      9538**DCL     19440>>ASSIGN
QI$MAJOR_STATUS.GZ.FIELD_STOP_INDEX
      9540**DCL     19441>>ASSIGN
QI$MAJOR_STATUS.INDICATORS
      9562**DCL      9594--REDEF
QI$MAJOR_STATUS.INDICATORS.ENABLED_FLAGS
      9566**DCL      9571--REDEF
QI$MAJOR_STATUS.INDICATORS.OPEN_FLAGS
      9578**DCL      9585--REDEF
QI$MAJOR_STATUS.INDICATORS.STATE_FLAGS
      9572**DCL      9577--REDEF
QI$MESSAGE_TYPE
     11662**DCL     11664--REDEF
QI$MINOR_NODE.WORD0
      8882**DCL      8883--REDEF
QI$MINOR_STATUS.INDICATORS
      9655**DCL      9687--REDEF
QI$MINOR_STATUS.INDICATORS.ENABLED_FLAGS
      9659**DCL      9664--REDEF
QI$MINOR_STATUS.INDICATORS.OPEN_FLAGS
      9671**DCL      9678--REDEF
QI$MINOR_STATUS.INDICATORS.STATE_FLAGS
      9665**DCL      9670--REDEF
QI$OP_ACCEPT.DATANAME@P
      6070**DCL      6071--REDEF
QI$OP_CALL.EPTR$
      6242**DCL      6243--REDEF
QI$OP_CLEAR.IO_FLAGS
      6275**DCL      6278--REDEF   19538>>IF
QI$OP_CLEAR.IO_VALUE
      6278**DCL     19559>>IF      19559>>IF      19559>>IF
QI$OP_CLEAR.IS_CLEAR_ALL
      6274**DCL     19552>>IF
QI$OP_CLEAR.OPERAND_A@P
      6280**DCL     19287>>ASSIGN
PL6.E3A0      #001=QBC$CLEAR File=QBC$CLEAR.:E05TSI                              WED 07/30/97 04:44 Page:51
QI$OP_CLEAR.OPERAND_COUNT
      6279**DCL     19258>>ASSIGN
QI$OP_DISPLAY.FIELD_A@P
      6542**DCL      6543--REDEF
QI$OP_ENABLE.IO_FLAGS
      6629**DCL      6632--REDEF
QI$OP_IFCLS.ATTRIBUTE.TYPE
      6722**DCL      6727--REDEF
QI$OP_INSPECT.TALLYING_FOR_ITEM@P
      6956**DCL      6957--REDEF
QI$OP_INSPECT.TALLYING_INITIAL_ITEM@P
      6958**DCL      6959--REDEF
QI$OP_INSPECT.TALLYING_ITEM@P
      6954**DCL      6955--REDEF
QI$OP_OPEN.IO_FLAGS
      7516**DCL      7519--REDEF
QI$OP_PERFM.BINARY_ITERATION_COUNT@P
      7554**DCL      7555--REDEF
QI$PSEUDO_CIP
      8055**DCL      8079--REDEF
QI$PSEUDO_CIP.ALPHANUMERIC
      8059**DCL      8064--REDEF
QI$PSEUDO_CIP.NUMERIC.CB
      8065**DCL      8068--REDEF    8071--REDEF
QI$TERMINAL_ATTRIBUTES
      9276**DCL      9289--REDEF
QI$TRAN_FILE.WORD0
      9061**DCL      9062--REDEF
QI$TRAN_STATUS.INDICATORS
      9996**DCL     10028--REDEF
QI$TRAN_STATUS.INDICATORS.ENABLED_FLAGS
     10000**DCL     10005--REDEF
QI$TRAN_STATUS.INDICATORS.OPEN_FLAGS
     10012**DCL     10019--REDEF
QI$TRAN_STATUS.INDICATORS.STATE_FLAGS
     10006**DCL     10011--REDEF
PL6.E3A0      #001=QBC$CLEAR File=QBC$CLEAR.:E05TSI                              WED 07/30/97 04:44 Page:52
QI$VARIABLE_IDENTIFIER.LENGTH
     11675**DCL     11676--IMP-SIZ
QI_1.BASE
     10204**DCL     10211--REDEF
QI_1.BASE.DATA$
     10205**DCL     19387>>ASSIGN  19621>>ASSIGN
QI_1.BASE.PROC$
     10207**DCL     19287>>ASSIGN  19347>>ASSIGN
QI_1.BASE_A$
     10211**DCL     19290>>ASSIGN
QI_1.CURRENT.FILE$
     11095**DCL     11097--REDEF   11099--REDEF
QI_1.CURRENT.FILE_STATUS$
     11101**DCL     11103--REDEF   11105--REDEF
QI_1.CURRENT.FORM$
     11097**DCL     19325>>DOINDEX 19347>>ASSIGN  19593>>IF      19596>>IF      19599>>ASSIGN  19621>>ASSIGN
QI_1.CURRENT.FORM_STATUS$
     11103**DCL     19315>>IF      19315>>IF      19432>>IF      19432>>IF
QI_1.CURRENT.FRAME$
     11107**DCL     19459>>ASSIGN
QI_1.CURRENT.FRAME_STATUS$
     11109**DCL     19425>>IF      19442>>ASSIGN  19443>>ASSIGN
QI_1.CURRENT.NODE$
     11114**DCL     19287<<ASSIGN  19289>>DOWHILE 19290<<ASSIGN  19290>>ASSIGN  19290>>ASSIGN  19310>>IF
     19461>>IF      19463>>ASSIGN
QI_1.CURRENT.NODE_STATUS$
     11116**DCL     19440>>ASSIGN  19441>>ASSIGN
QI_1.DAD
     10899**DCL     10904--REDEF
QI_1.ERROR_STATUS
     11129**DCL     19319<<ASSIGN  19428<<ASSIGN  19436<<ASSIGN
QI_1.FILE_HEAD
     11082**DCL     11089--REDEF
QI_1.INSTR$
     10212**DCL     19258>>ASSIGN  19259>>ASSIGN  19260<<ASSIGN  19260>>ASSIGN
QI_1.IS_ALL_LIT
PL6.E3A0      #001=QBC$CLEAR File=QBC$CLEAR.:E05TSI                              WED 07/30/97 04:44 Page:53
     10905**DCL     10910--REDEF
QI_1.IS_FORM_VARIABLE
     10911**DCL     10916--REDEF
QI_1.IS_TEMP
     10917**DCL     10922--REDEF
QI_1.MESSAGE_LINE_DAD.PSEUDO_CIP
     11015**DCL     11040--REDEF
QI_1.MESSAGE_LINE_DAD.PSEUDO_CIP.ALPHANUMERIC
     11017**DCL     11022--REDEF
QI_1.MESSAGE_LINE_DAD.PSEUDO_CIP.NUMERIC.CB
     11023**DCL     11026--REDEF   11029--REDEF
QI_1.MESSAGE_LINE_DAD.WORD0
     10984**DCL     10985--REDEF
QI_1.OFFSET
     10923**DCL     10928--REDEF
QI_1.OP.CIP
     10284**DCL     10735--REDEF
QI_1.OP.CIP.AUX
     10650**DCL     10721--REDEF
QI_1.OP.CIP.AUX.CD
     10695**DCL     10698--REDEF   10702--REDEF   10705--REDEF
QI_1.OP.CIP.S
     10354**DCL     10425--REDEF
QI_1.OP.CIP.S.CD
     10399**DCL     10402--REDEF   10406--REDEF   10409--REDEF
QI_1.OP.CIP.T
     10502**DCL     10573--REDEF
QI_1.OP.CIP.T.CD
     10547**DCL     10550--REDEF   10554--REDEF   10557--REDEF
QI_1.OP.DATA
     10742**DCL     10746--REDEF
QI_1.OP.FILL_CHAR
     10866**DCL     10869--REDEF
QI_1.OP.INX
     10799**DCL     10803--REDEF   10804--REDEF   10808--REDEF
QI_1.OP.LEN
PL6.E3A0      #001=QBC$CLEAR File=QBC$CLEAR.:E05TSI                              WED 07/30/97 04:44 Page:54
     10782**DCL     10786--REDEF   10787--REDEF   10791--REDEF   10792--REDEF   10796--REDEF
QI_1.OP.LEN.AUX
     10785**DCL     11686--IMP-SIZ
QI_1.OP.LEN.S
     10783**DCL     11682--IMP-SIZ
QI_1.OP.LEN.T
     10784**DCL     11684--IMP-SIZ
QI_1.OP.PICTURE_STRING
     10852**DCL     10855--REDEF   10856--REDEF   10859--REDEF   10860--REDEF   10863--REDEF
QI_1.OP.ROUND
     10885**DCL     10886--REDEF   10887--REDEF
QI_1.OP.SRCH_VRFY_ELEMS
     10821**DCL     10824--REDEF
QI_1.OPENED_COUNT
     11090**DCL     11093--REDEF
QI_1.OTTER_SPACE
     10929**DCL     10934--REDEF
QI_1.PICTURE_STRING
     10935**DCL     10940--REDEF
QI_1.SCREEN_UPDATE_FLAGS.WAS_CLEARED
     10249**DCL     19591<<ASSIGN
QI_1.SPECIAL_NAMES
     11118**DCL     11127--REDEF
QI_1.TYPE
     10941**DCL     10946--REDEF
QI_16_BIT_BINARY
     16131**DCL     16201--REDEF
QI_16_BIT_BINARY.CB
     16150**DCL     16153--REDEF   16157--REDEF   16160--REDEF
QI_31_DIGIT_SLS_DISPLAY
     15964**DCL     16034--REDEF
QI_31_DIGIT_SLS_DISPLAY.CD
     16011**DCL     16014--REDEF   16018--REDEF   16021--REDEF
QI_31_DIGIT_ST_PACKED
     16466**DCL     16536--REDEF
QI_31_DIGIT_ST_PACKED.CP
PL6.E3A0      #001=QBC$CLEAR File=QBC$CLEAR.:E05TSI                              WED 07/30/97 04:44 Page:55
     16499**DCL     16502--REDEF   16506--REDEF   16509--REDEF
QI_32_BIT_BINARY
     16298**DCL     16368--REDEF
QI_32_BIT_BINARY.CB
     16317**DCL     16320--REDEF   16324--REDEF   16327--REDEF
QI_4_CHAR_ALPHANUMERIC
     15796**DCL     15866--REDEF
QI_4_CHAR_ALPHANUMERIC.CA
     15801**DCL     15805--REDEF   15808--REDEF   15811--REDEF
QI_ACCUMULATOR_DAD.CIP
     16809**DCL     16880--REDEF
QI_ACCUMULATOR_DAD.CIP.CP
     16840**DCL     16843--REDEF   16847--REDEF   16850--REDEF
QI_ALR.CIP
     11761**DCL     12212--REDEF
QI_ALR.CIP.AUX
     12127**DCL     12198--REDEF
QI_ALR.CIP.AUX.CA
     12130**DCL     12134--REDEF   12137--REDEF   12140--REDEF
QI_ALR.CIP.S
     11831**DCL     11902--REDEF
QI_ALR.CIP.S.CA
     11834**DCL     11838--REDEF   11841--REDEF   11844--REDEF
QI_ALR.CIP.T
     11979**DCL     12050--REDEF
QI_ALR.CIP.T.CA
     11982**DCL     11986--REDEF   11989--REDEF   11992--REDEF
QI_ALR.DATA
     12219**DCL     12223--REDEF
QI_ALR.FILL_CHAR
     12343**DCL     12346--REDEF
QI_ALR.INX
     12276**DCL     12280--REDEF   12281--REDEF   12285--REDEF
QI_ALR.LEN
     12259**DCL     12263--REDEF   12264--REDEF   12268--REDEF   12269--REDEF   12273--REDEF
QI_ALR.PICTURE_STRING
PL6.E3A0      #001=QBC$CLEAR File=QBC$CLEAR.:E05TSI                              WED 07/30/97 04:44 Page:56
     12329**DCL     12332--REDEF   12333--REDEF   12336--REDEF   12337--REDEF   12340--REDEF
QI_ALR.ROUND
     12362**DCL     12363--REDEF   12364--REDEF
QI_ALR.SRCH_VRFY_ELEMS
     12298**DCL     12301--REDEF
QI_FPT_DBCONTROL.V_
     17181**DCL     17181--REDEF
QI_FPT_ERASE
     17408**DCL     19531>>ASSIGN
QI_FPT_INT.V_
     18019**DCL     18019--REDEF
QI_MAT.CIP
     15100**DCL     15551--REDEF
QI_MAT.CIP.AUX
     15466**DCL     15537--REDEF
QI_MAT.CIP.AUX.CA
     15469**DCL     15473--REDEF   15476--REDEF   15479--REDEF
QI_MAT.CIP.S
     15170**DCL     15241--REDEF
QI_MAT.CIP.S.CA
     15173**DCL     15177--REDEF   15180--REDEF   15183--REDEF
QI_MAT.CIP.T
     15318**DCL     15389--REDEF
QI_MAT.CIP.T.CA
     15321**DCL     15325--REDEF   15328--REDEF   15331--REDEF
QI_MAT.DATA
     15558**DCL     15562--REDEF
QI_MAT.DEC
     15626**DCL     15630--REDEF   15631--REDEF   15635--REDEF
QI_MAT.FILL_CHAR
     15682**DCL     15685--REDEF
QI_MAT.LEN
     15598**DCL     15602--REDEF   15603--REDEF   15607--REDEF   15608--REDEF   15612--REDEF
QI_MAT.PICTURE_STRING
     15668**DCL     15671--REDEF   15672--REDEF   15675--REDEF   15676--REDEF   15679--REDEF
QI_MAT.ROUND
PL6.E3A0      #001=QBC$CLEAR File=QBC$CLEAR.:E05TSI                              WED 07/30/97 04:44 Page:57
     15701**DCL     15702--REDEF   15703--REDEF
QI_MAT.SRCH_VRFY_ELEMS
     15637**DCL     15640--REDEF
QI_PICTURE_STRING
     16634**DCL     16704--REDEF
QI_PICTURE_STRING.CA
     16639**DCL     16643--REDEF   16646--REDEF   16649--REDEF
QI_SRCH_VRFY.CIP
     14431**DCL     14882--REDEF
QI_SRCH_VRFY.CIP.AUX
     14797**DCL     14868--REDEF
QI_SRCH_VRFY.CIP.AUX.CA
     14800**DCL     14804--REDEF   14807--REDEF   14810--REDEF
QI_SRCH_VRFY.CIP.S
     14501**DCL     14572--REDEF
QI_SRCH_VRFY.CIP.S.CA
     14504**DCL     14508--REDEF   14511--REDEF   14514--REDEF
QI_SRCH_VRFY.CIP.T
     14649**DCL     14720--REDEF
QI_SRCH_VRFY.CIP.T.CA
     14652**DCL     14656--REDEF   14659--REDEF   14662--REDEF
QI_SRCH_VRFY.DATA
     14889**DCL     14893--REDEF
QI_SRCH_VRFY.DEC
     14957**DCL     14961--REDEF   14962--REDEF   14966--REDEF
QI_SRCH_VRFY.FILL_CHAR
     15013**DCL     15016--REDEF
QI_SRCH_VRFY.ROUND
     15032**DCL     15033--REDEF   15034--REDEF
QI_SRCH_VRFY.SRCH_RESULT
     14973**DCL     14976--REDEF   14977--REDEF   14980--REDEF   14981--REDEF   14984--REDEF
QI_SRCH_VRFY.SRCH_VRFY_ARGS
     14897**DCL     14901--REDEF   14902--REDEF   14906--REDEF   14907--REDEF   14911--REDEF
QI_SRCH_VRFY.SRCH_VRFY_ELEMS
     14968**DCL     14971--REDEF
QI_TYPE_BINARY_TARGET.CIP
PL6.E3A0      #001=QBC$CLEAR File=QBC$CLEAR.:E05TSI                              WED 07/30/97 04:44 Page:58
     13758**DCL     14209--REDEF
QI_TYPE_BINARY_TARGET.CIP.AUX
     14124**DCL     14195--REDEF
QI_TYPE_BINARY_TARGET.CIP.AUX.CA
     14127**DCL     14131--REDEF   14134--REDEF   14137--REDEF
QI_TYPE_BINARY_TARGET.CIP.S
     13828**DCL     13899--REDEF
QI_TYPE_BINARY_TARGET.CIP.S.CA
     13831**DCL     13835--REDEF   13838--REDEF   13841--REDEF
QI_TYPE_BINARY_TARGET.CIP.T
     13976**DCL     14047--REDEF
QI_TYPE_BINARY_TARGET.CIP.T.CB
     13993**DCL     13996--REDEF   14000--REDEF   14003--REDEF
QI_TYPE_BINARY_TARGET.DATA
     14216**DCL     14220--REDEF
QI_TYPE_BINARY_TARGET.DEC
     14284**DCL     14288--REDEF   14289--REDEF   14293--REDEF
QI_TYPE_BINARY_TARGET.LEN
     14256**DCL     14260--REDEF   14261--REDEF   14265--REDEF   14266--REDEF   14270--REDEF
QI_TYPE_BINARY_TARGET.PICTURE_STRING
     14326**DCL     14329--REDEF   14330--REDEF   14333--REDEF   14334--REDEF   14337--REDEF
QI_TYPE_BINARY_TARGET.ROUND
     14359**DCL     14360--REDEF   14361--REDEF
QI_TYPE_BINARY_TARGET.SIZE_ERROR
     14345**DCL     14346--REDEF
QI_TYPE_BINARY_TARGET.SRCH_VRFY_ELEMS
     14295**DCL     14298--REDEF
QI_TYPE_DISPLAY_SOURCE.CIP
     12426**DCL     12877--REDEF
QI_TYPE_DISPLAY_SOURCE.CIP.AUX
     12792**DCL     12863--REDEF
QI_TYPE_DISPLAY_SOURCE.CIP.AUX.CA
     12795**DCL     12799--REDEF   12802--REDEF   12805--REDEF
QI_TYPE_DISPLAY_SOURCE.CIP.S
     12496**DCL     12567--REDEF
QI_TYPE_DISPLAY_SOURCE.CIP.S.CD
PL6.E3A0      #001=QBC$CLEAR File=QBC$CLEAR.:E05TSI                              WED 07/30/97 04:44 Page:59
     12541**DCL     12544--REDEF   12548--REDEF   12551--REDEF
QI_TYPE_DISPLAY_SOURCE.CIP.T
     12644**DCL     12715--REDEF
QI_TYPE_DISPLAY_SOURCE.CIP.T.CA
     12647**DCL     12651--REDEF   12654--REDEF   12657--REDEF
QI_TYPE_DISPLAY_SOURCE.DATA
     12884**DCL     12888--REDEF
QI_TYPE_DISPLAY_SOURCE.DEC
     12952**DCL     12956--REDEF   12957--REDEF   12961--REDEF
QI_TYPE_DISPLAY_SOURCE.LEN
     12924**DCL     12928--REDEF   12929--REDEF   12933--REDEF   12934--REDEF   12938--REDEF
QI_TYPE_DISPLAY_SOURCE.PICTURE_STRING
     12994**DCL     12997--REDEF   12998--REDEF   13001--REDEF   13002--REDEF   13005--REDEF
QI_TYPE_DISPLAY_SOURCE.ROUND
     13027**DCL     13028--REDEF   13029--REDEF
QI_TYPE_DISPLAY_SOURCE.SIZE_ERROR
     13013**DCL     13014--REDEF
QI_TYPE_DISPLAY_SOURCE.SRCH_VRFY_ELEMS
     12963**DCL     12966--REDEF
QI_TYPE_DISPLAY_TARGET.CIP
     13092**DCL     13543--REDEF
QI_TYPE_DISPLAY_TARGET.CIP.AUX
     13458**DCL     13529--REDEF
QI_TYPE_DISPLAY_TARGET.CIP.AUX.CA
     13461**DCL     13465--REDEF   13468--REDEF   13471--REDEF
QI_TYPE_DISPLAY_TARGET.CIP.S
     13162**DCL     13233--REDEF
QI_TYPE_DISPLAY_TARGET.CIP.S.CA
     13165**DCL     13169--REDEF   13172--REDEF   13175--REDEF
QI_TYPE_DISPLAY_TARGET.CIP.T
     13310**DCL     13381--REDEF
QI_TYPE_DISPLAY_TARGET.CIP.T.CD
     13355**DCL     13358--REDEF   13362--REDEF   13365--REDEF
QI_TYPE_DISPLAY_TARGET.DATA
     13550**DCL     13554--REDEF
QI_TYPE_DISPLAY_TARGET.DEC
PL6.E3A0      #001=QBC$CLEAR File=QBC$CLEAR.:E05TSI                              WED 07/30/97 04:44 Page:60
     13618**DCL     13622--REDEF   13623--REDEF   13627--REDEF
QI_TYPE_DISPLAY_TARGET.LEN
     13590**DCL     13594--REDEF   13595--REDEF   13599--REDEF   13600--REDEF   13604--REDEF
QI_TYPE_DISPLAY_TARGET.PICTURE_STRING
     13660**DCL     13663--REDEF   13664--REDEF   13667--REDEF   13668--REDEF   13671--REDEF
QI_TYPE_DISPLAY_TARGET.ROUND
     13693**DCL     13694--REDEF   13695--REDEF
QI_TYPE_DISPLAY_TARGET.SIZE_ERROR
     13679**DCL     13680--REDEF
QI_TYPE_DISPLAY_TARGET.SRCH_VRFY_ELEMS
     13629**DCL     13632--REDEF
QI_VLP_SEGMENT.BASE
     17718**DCL     17718--REDEF
QI_VLP_SEGMENT_BUFFER.BASE
     17816**DCL     17816--REDEF
QI_VLP_SEGMENT_LOAD.BASE
     17914**DCL     17914--REDEF
QI_VLP_TRMCTL.BREAKCOUNT
     18908**DCL     18909--REDEF
QI_VLP_XBREAK.IC
     19098**DCL     19098--REDEF
QI_VLP_XBREAK.OLDIC
     19098**DCL     19099--REDEF   19099--REDEF
RETRY_NODE_CLEAR
     19308**LABEL   19475--GOTO
