VERSION E05

PL6.E3A0      #001=QBC$CONVERSIONS File=QBC$CONVERSIONS.:E05TSI                  WED 07/30/97 04:46 Page:1
        1        1        /*M* QBC$CONVERSIONS:  Convert datatypes to-and-from others.  */
        2        2        /*T***********************************************************/
        3        3        /*T*                                                         */
        4        4        /*T* Copyright (c) Bull HN Information Systems Inc., 1997    */
        5        5        /*T*                                                         */
        6        6        /*T***********************************************************/
        7        7        /*X* DMC,PLM=4,IND=0,DCI=4,CSI=2,IAD=2,DTI=2,AND,ECI=0,DIN=2,STI=2 */
        8        8
        9        9        /*P*  NAME:         QBC$CONVERSIONS
       10       10              PURPOSE:      Convert datatypes to-and-from others.
       11       11              DESCRIPTION:  Several combinations of conversions to-and-from the
       12       12                            BINARY datatype are done, and one PACKED
       13       13                            (packed decimal) to DISPLAY (unpacked decimal)
       14       14                            is included just to make everything lopsided.
       15       15        */
       16       16
       17       17        QBC$CONVERSIONS: PROC;
       18       18
       19       19          %INCLUDE LCP_6;
       20      210
       21      211          %INCLUDE QI_PERR_C;
       22      379          %INCLUDE QG_MACRO_M;
       23      516          %INCLUDE QI_EQUATES_E;
       24      875          %INCLUDE QI_MACROS_M;
       25     5933          %QI$ALL;
       26    17046
       27    17047          %QI@OTTER_SPACE;
       28    17075
       29    17076    1     DCL QCC$CBD ENTRY (1) ALTRET;
       30    17077    1     DCL QCC$CDB ENTRY (1) ALTRET;
       31    17078    1     DCL QCC$DMC ENTRY (1) ALTRET;
       32    17079    1     DCL QCE$ERROR ENTRY (4);
       33    17080    1     DCL QCS$SETUP_SOURCE ENTRY;
       34    17081    1     DCL QCS$SETUP_TARGET ENTRY;
       35    17082
       36    17083        %EJECT;
PL6.E3A0      #001=QBC$CONVERSIONS File=QBC$CONVERSIONS.:E05TSI                  WED 07/30/97 04:46 Page:2
       37    17084    1   QBC$CNVBN: ENTRY;
       38    17085
       39    17086        /*D*  NAME:         QBC$CNVBN
       40    17087              CALL:         CALL QBC$CNVBN;
       41    17088              PARAMETERS:   None.
       42    17089              INTERFACE:    Called by QAT$TALLYHO when a CNVBN op-code is
       43    17090                            encountered.
       44    17091                            Calls QCS$SETUP_SOURCE,
       45    17092                                  QCS$SETUP_TARGET,
       46    17093                                  QCC$CBD.
       47    17094              ENVIRONMENT:  Nothing unusual.
       48    17095              INPUT:        QI_1,
       49    17096                            FPL rununit static data following the op-code.
       50    17097              OUTPUT:       Target DAD contains the DISPLAY (unpacked decimal)
       51    17098                            equivalent of the BINARY source DAD.
       52    17099              SCRATCH:      Various otter data.
       53    17100              DESCRIPTION:  We're going from a BINARY DAD
       54    17101                            to a (temp) DISPLAY DAD.
       55    17102        */
       56    17103
       57    17104    1       QI_1.INSTR$ = ADDR ( QI_1.INSTR$ -> QI$OP_CNVBN.NEXT_CODE@P );
       58    17105
       59    17106    1       CALL QCS$SETUP_SOURCE;
       60    17107    1       CALL QCS$SETUP_TARGET;
       61    17108
       62    17109    1       IF QI_1.OP.LEN.S = %QI#MIN_BINARY_LENGTH
       63    17110    1       THEN
       64    17111    1         QI_1.OP.CIP.T.LEN = %QI#MIN_BINARY_DIGIT_COUNT;
       65    17112    1       ELSE
       66    17113    1         QI_1.OP.CIP.T.LEN = %QI#MAX_BINARY_DIGIT_COUNT;
       67    17114
       68    17115    1       QI_1.OP.CIP.T.CD.SIGN = %QI#CD_SIGN_TRAILING_OVER;
       69    17116    1       QI_1.OP.DEC.T = 0;
       70    17117
       71    17118    1       QI_1.DAD.T$ -> QI$DAD.WORD0 = %( QI#IS_TEMP_BIT_MASK + QI#TYPE_DISPLAY );
       72    17119    1       QI_1.DAD.T$ -> QI$DAD.PSEUDO_CIP_A (0) = QI_1.OP.CIP.T_A (0);
       73    17120    1       QI_1.DAD.T$ -> QI$DAD.PSEUDO_CIP.NUMERIC.DEC = 0;
PL6.E3A0      #001=QBC$CONVERSIONS File=QBC$CONVERSIONS.:E05TSI                  WED 07/30/97 04:46 Page:3
       74    17121
       75    17122    1       GOTO SO_DO_THE_FROM_BINARY_ALREADY;
       76    17123
       77    17124    1   QBC$CNVBNX: ENTRY;
       78    17125
       79    17126        /*D*  NAME:         QBC$CNVBNX
       80    17127              CALL:         CALL QBC$CNVBNX;
       81    17128              PARAMETERS:   None.
       82    17129              INTERFACE:    Called by QAT$TALLYHO when a CNVBNX op-code is
       83    17130                            encountered.
       84    17131                            Calls QCS$SETUP_SOURCE,
       85    17132                                  QCS$SETUP_TARGET,
       86    17133                                  QCC$CBD.
       87    17134              ENVIRONMENT:  Nothing unusual.
       88    17135              INPUT:        QI_1,
       89    17136                            FPL rununit static data following the op-code.
       90    17137              OUTPUT:       Target DAD contains the DISPLAY (unpacked decimal)
       91    17138                            equivalent of the BINARY source DAD.
       92    17139              SCRATCH:      Various otter data.
       93    17140              DESCRIPTION:  We're going from a (temp) BINARY DAD
       94    17141                            to a DISPLAY DAD.
       95    17142        */
       96    17143
       97    17144    1       QI_1.INSTR$ = ADDR ( QI_1.INSTR$ -> QI$OP_CNVBNX.NEXT_CODE@P );
       98    17145
       99    17146    1       CALL QCS$SETUP_SOURCE;
      100    17147    1       CALL QCS$SETUP_TARGET;
      101    17148
      102    17149    1       GOTO SO_DO_THE_FROM_BINARY_ALREADY;
      103    17150
      104    17151    1   QBC$CNVBPX: ENTRY;
      105    17152
      106    17153        /*D*  NAME:         QBC$CNVBPX
      107    17154              CALL:         CALL QBC$CNVBPX;
      108    17155              PARAMETERS:   None.
      109    17156              INTERFACE:    Called by QAT$TALLYHO when a CNVBPX op-code is
      110    17157                            encountered.
PL6.E3A0      #001=QBC$CONVERSIONS File=QBC$CONVERSIONS.:E05TSI                  WED 07/30/97 04:46 Page:4
      111    17158                            Calls QCS$SETUP_SOURCE,
      112    17159                                  QCS$SETUP_TARGET,
      113    17160                                  QCC$CBD.
      114    17161              ENVIRONMENT:  Nothing unusual.
      115    17162              INPUT:        QI_1,
      116    17163                            FPL rununit static data following the op-code.
      117    17164              OUTPUT:       Target DAD contains the PACKED (packed decimal)
      118    17165                            equivalent of the BINARY source DAD.
      119    17166              SCRATCH:      Various otter data.
      120    17167              DESCRIPTION:  We're going from a (temp) BINARY DAD
      121    17168                            to a PACKED DAD.
      122    17169        */
      123    17170
      124    17171    1       QI_1.INSTR$ = ADDR ( QI_1.INSTR$ -> QI$OP_CNVBPX.NEXT_CODE@P );
      125    17172
      126    17173    1       CALL QCS$SETUP_SOURCE;
      127    17174    1       CALL QCS$SETUP_TARGET;
      128    17175
      129    17176    1   SO_DO_THE_FROM_BINARY_ALREADY:
      130    17177
      131    17178    1       QI_1.OP.SIZE_ERROR = %QI#CHECK_FOR_SIZE_ERROR;
      132    17179
      133    17180    1       CALL QCC$CBD ( QI_1.OP )
      134    17181    1         ALTRET ( OVERFLOW );
      135    17182
      136    17183    1       RETURN;
      137    17184        %EJECT;
PL6.E3A0      #001=QBC$CONVERSIONS File=QBC$CONVERSIONS.:E05TSI                  WED 07/30/97 04:46 Page:5
      138    17185    1   QBC$CNVBBX: ENTRY;
      139    17186
      140    17187        /*D*  NAME:         QBC$CNVBBX
      141    17188              CALL:         CALL QBC$CNVBBX;
      142    17189              PARAMETERS:   None.
      143    17190              INTERFACE:    Called by QAT$TALLYHO when a CNVBBX op-code is
      144    17191                            encountered.
      145    17192                            Calls QCS$SETUP_SOURCE,
      146    17193                                  QCS$SETUP_TARGET,
      147    17194                                  QCC$CBD,
      148    17195                                  QCC$CDB.
      149    17196              ENVIRONMENT:  Nothing unusual.
      150    17197              INPUT:        QI_1,
      151    17198                            FPL rununit static data following the op-code.
      152    17199              OUTPUT:       Target DAD contains the BINARY
      153    17200                            equivalent of the BINARY source DAD.
      154    17201              SCRATCH:      Various otter data.
      155    17202              DESCRIPTION:  We're going from a (temp) BINARY DAD
      156    17203                            to a BINARY DAD.
      157    17204                            The intermediate conversion is to detect overflow;
      158    17205                            the source and target BINARY items may be COMP-1 (16-bit),
      159    17206                            COMP-2 (32-bit), or any combination.
      160    17207        */
      161    17208
      162    17209    1       QI_1.INSTR$ = ADDR ( QI_1.INSTR$ -> QI$OP_CNVBBX.NEXT_CODE@P );
      163    17210
      164    17211    1       CALL QCS$SETUP_SOURCE;
      165    17212
      166    17213    1       QI_1.OP.CIP.T_A (0) = QI_31_DIGIT_SLS_DISPLAY_A (0);
      167    17214    1       QI_1.OP.CIP.T.CD.SIGN = %QI#CD_SIGN_TRAILING_OVER;
      168    17215    1       QI_1.OP.DATA.T$ = ADDR ( QI@OTTER_SPACE );
      169    17216
      170    17217    1       IF QI_1.OP.LEN.S = %QI#MIN_BINARY_LENGTH
      171    17218    1       THEN
      172    17219    1         QI_1.OP.CIP.T.LEN = %QI#MIN_BINARY_DIGIT_COUNT;
      173    17220    1       ELSE
      174    17221    1         QI_1.OP.CIP.T.LEN = %QI#MAX_BINARY_DIGIT_COUNT;
PL6.E3A0      #001=QBC$CONVERSIONS File=QBC$CONVERSIONS.:E05TSI                  WED 07/30/97 04:46 Page:6
      175    17222
      176    17223    1       QI_1.OP.SIZE_ERROR = %QI#CHECK_FOR_SIZE_ERROR;
      177    17224
      178    17225    1       CALL QCC$CBD ( QI_1.OP )
      179    17226    1         ALTRET ( OVERFLOW );
      180    17227
      181    17228    1       QI_1.OP.CIP.S_A (0) = QI_1.OP.CIP.T_A (0);
      182    17229    1       QI_1.OP.DATA.S$ = QI_1.OP.DATA.T$;
      183    17230
      184    17231    1       CALL QCS$SETUP_TARGET;
      185    17232
      186    17233    1       CALL QCC$CDB ( QI_1.OP )
      187    17234    1         ALTRET ( OVERFLOW );
      188    17235
      189    17236    1       RETURN;
      190    17237        %EJECT;
PL6.E3A0      #001=QBC$CONVERSIONS File=QBC$CONVERSIONS.:E05TSI                  WED 07/30/97 04:46 Page:7
      191    17238    1   QBC$CNVNBT: ENTRY;
      192    17239
      193    17240        /*D*  NAME:         QBC$CNVNBT
      194    17241              CALL:         CALL QBC$CNVNBT;
      195    17242              PARAMETERS:   None.
      196    17243              INTERFACE:    Called by QAT$TALLYHO when a CNVNBT op-code is
      197    17244                            encountered.
      198    17245                            Calls QCS$SETUP_SOURCE,
      199    17246                                  QCS$SETUP_TARGET,
      200    17247                                  QCC$CDB.
      201    17248              ENVIRONMENT:  Nothing unusual.
      202    17249              INPUT:        QI_1,
      203    17250                            FPL rununit static data following the op-code.
      204    17251              OUTPUT:       Target DAD contains the BINARY
      205    17252                            equivalent of the DISPLAY (unpacked decimal) source DAD.
      206    17253              SCRATCH:      Various otter data.
      207    17254              DESCRIPTION:  We're going from a DISPLAY DAD
      208    17255                            to a (temp) BINARY DAD.
      209    17256        */
      210    17257
      211    17258    1       QI_1.INSTR$ = ADDR ( QI_1.INSTR$ -> QI$OP_CNVNBT.NEXT_CODE@P );
      212    17259
      213    17260    1       GOTO SO_DO_THE_TO_BINARY_ALREADY;
      214    17261
      215    17262    1   QBC$CNVPBT: ENTRY;
      216    17263
      217    17264        /*D*  NAME:         QBC$CNVPBT
      218    17265              CALL:         CALL QBC$CNVPBT;
      219    17266              PARAMETERS:   None.
      220    17267              INTERFACE:    Called by QAT$TALLYHO when a CNVPBT op-code is
      221    17268                            encountered.
      222    17269                            Calls QCS$SETUP_SOURCE,
      223    17270                                  QCS$SETUP_TARGET,
      224    17271                                  QCC$CDB.
      225    17272              ENVIRONMENT:  Nothing unusual.
      226    17273              INPUT:        QI_1,
      227    17274                            FPL rununit static data following the op-code.
PL6.E3A0      #001=QBC$CONVERSIONS File=QBC$CONVERSIONS.:E05TSI                  WED 07/30/97 04:46 Page:8
      228    17275              OUTPUT:       Target DAD contains the BINARY
      229    17276                            equivalent of the PACKED (packed decimal) source DAD.
      230    17277              SCRATCH:      Various otter data.
      231    17278              DESCRIPTION:  We're going from a PACKED DAD
      232    17279                            to a (temp) BINARY DAD.
      233    17280        */
      234    17281
      235    17282    1       QI_1.INSTR$ = ADDR ( QI_1.INSTR$ -> QI$OP_CNVPBT.NEXT_CODE@P );
      236    17283
      237    17284    1   SO_DO_THE_TO_BINARY_ALREADY:
      238    17285
      239    17286    1       CALL QCS$SETUP_SOURCE;
      240    17287    1       CALL QCS$SETUP_TARGET;
      241    17288
      242    17289    1       QI_1.OP.CIP.T_A (0) = QI_16_BIT_BINARY_A (0);
      243    17290    1       QI_1.OP.SIZE_ERROR = %QI#CHECK_FOR_SIZE_ERROR;
      244    17291
      245    17292    1       CALL QCC$CDB ( QI_1.OP )
      246    17293    2       WHENALTRETURN DO;
      247    17294
      248    17295    2           QI_1.OP.CIP.T.LEN = %QI#MAX_BINARY_LENGTH;
      249    17296
      250    17297    2           CALL QCC$CDB ( QI_1.OP )
      251    17298    2             ALTRET ( OVERFLOW );
      252    17299
      253    17300    2         END;
      254    17301
      255    17302    1       QI_1.DAD.T$ -> QI$DAD.WORD0 = %( QI#IS_TEMP_BIT_MASK + QI#TYPE_BINARY );
      256    17303    1       QI_1.DAD.T$ -> QI$DAD.PSEUDO_CIP_A (0) = QI_1.OP.CIP.T_A (0);
      257    17304    1       QI_1.DAD.T$ -> QI$DAD.PSEUDO_CIP.NUMERIC.DEC = 0;
      258    17305
      259    17306    1       RETURN;
      260    17307        %EJECT;
PL6.E3A0      #001=QBC$CONVERSIONS File=QBC$CONVERSIONS.:E05TSI                  WED 07/30/97 04:46 Page:9
      261    17308    1   QBC$CNVPN: ENTRY;
      262    17309
      263    17310        /*D*  NAME:         QBC$CNVPN
      264    17311              CALL:         CALL QBC$CNVPN;
      265    17312              PARAMETERS:   None.
      266    17313              INTERFACE:    Called by QAT$TALLYHO when a CNVPN op-code is
      267    17314                            encountered.
      268    17315                            Calls QCS$SETUP_SOURCE,
      269    17316                                  QCS$SETUP_TARGET,
      270    17317                                  QCC$DMC.
      271    17318              ENVIRONMENT:  Nothing unusual.
      272    17319              INPUT:        QI_1,
      273    17320                            FPL rununit static data following the op-code.
      274    17321              OUTPUT:       Target DAD contains the DISPLAY (unpacked decimal)
      275    17322                            equivalent of the PACKED (packed decimal) source DAD.
      276    17323              SCRATCH:      Various otter data.
      277    17324              DESCRIPTION:  We're going from a PACKED DAD
      278    17325                            to a (temp) DISPLAY DAD.
      279    17326        */
      280    17327
      281    17328    1       QI_1.INSTR$ = ADDR ( QI_1.INSTR$ -> QI$OP_CNVPN.NEXT_CODE@P );
      282    17329
      283    17330    1       CALL QCS$SETUP_SOURCE;
      284    17331    1       CALL QCS$SETUP_TARGET;
      285    17332
      286    17333    1       QI_1.OP.CIP.T.LEN = QI_1.OP.LEN.S;
      287    17334
      288    17335    1       IF QI_1.OP.CIP.S.CP.SIGN = %QI#CP_SIGN_TRAILING
      289    17336    1       THEN
      290    17337    1         QI_1.OP.CIP.T.CD.SIGN = %QI#CD_SIGN_TRAILING_OVER;
      291    17338    1       ELSE
      292    17339    1         QI_1.OP.CIP.T.CD.SIGN = %QI#CD_UNSIGNED;
      293    17340
      294    17341    1       QI_1.DAD.T$ -> QI$DAD.WORD0 = %( QI#IS_TEMP_BIT_MASK + QI#TYPE_DISPLAY );
      295    17342    1       QI_1.DAD.T$ -> QI$DAD.PSEUDO_CIP_A (0) = QI_1.OP.CIP.T_A (0);
      296    17343    1       QI_1.DAD.T$ -> QI$DAD.PSEUDO_CIP.NUMERIC.DEC = QI_1.OP.DEC.S;
      297    17344
PL6.E3A0      #001=QBC$CONVERSIONS File=QBC$CONVERSIONS.:E05TSI                  WED 07/30/97 04:46 Page:10
      298    17345    1       QI_1.OP.SIZE_ERROR = %QI#CHECK_FOR_SIZE_ERROR;
      299    17346
      300    17347    1       CALL QCC$DMC ( QI_1.OP )
      301    17348    1         ALTRET ( OVERFLOW );
      302    17349
      303    17350    1       RETURN;
      304    17351        %EJECT;
PL6.E3A0      #001=QBC$CONVERSIONS File=QBC$CONVERSIONS.:E05TSI                  WED 07/30/97 04:46 Page:11
      305    17352    1   OVERFLOW:
      306    17353            /*  Ick.  Something overflowed while moving into, out of,
      307    17354                or around in some BINARY operand.  */
      308    17355    1       CALL QCE$ERROR ( %E$BINARY_OVERFLOW );
      309    17356
      310    17357    1   END QBC$CONVERSIONS;

PL6.E3A0      #001=QBC$CONVERSIONS File=QBC$CONVERSIONS.:E05TSI                  WED 07/30/97 04:46 Page:12
--  Include file information  --

   QI_MACROS_M.:E05TOU  is referenced.
   QI_EQUATES_E.:E05TOU  is referenced.
   QG_MACRO_M.:E05TOU  is referenced.
   QI_PERR_C.:E05TOU  is referenced.
   LCP_6.:E05TOU  cannot be made into a system file and is referenced.
   G_LCP6_E.:E05TOU  was found in the system file and is referenced.
   GT_LCP6_M.:E05TOU  was found in the system file and is referenced.
   KI_CP6.:E05TOU  was found in the system file and is referenced.
   GF_LCP6_M.:E05TOU  was found in the system file and is referenced.
   GM_LCP6_M.:E05TOU  was found in the system file and is referenced.
   GU_LCP6_M.:E05TOU  was found in the system file and is referenced.
   GJ_LCP6_M.:E05TOU  was found in the system file and is referenced.
   GH_LCP6_M.:E05TOU  was found in the system file and is referenced.
      No diagnostics issued in procedure QBC$CONVERSIONS.

   Procedure QBC$CONVERSIONS requires 454 words for executable code.
   Procedure QBC$CONVERSIONS requires 12 words of local(AUTO) storage.

    No errors detected in file QBC$CONVERSIONS.:E05TSI    .

PL6.E3A0      #001=QBC$CONVERSIONS File=QBC$CONVERSIONS.:E05TSI                  WED 07/30/97 04:46 Page:13

 Object Unit name= QBC$CONVERSIONS                            File name= QBC$CONVERSIONS.:E05TOU
 UTS= JUL 30 '97 04:46:25.36 WED                              Compiler= PL-6/E31         Sev=      00
 SharedLib= :SHARED_LCP6_SYSTEM                               Alt SharedLib=


    ****  Control sections  ****

 Sect   Type Bound  Init  Size HexSiz  Section name
    0   Proc  even  none   454    1C6  QBC$CONVERSIONS
    1  RoData even  none     5      5  QBC$CONVERSIONS

    ****  Entry defs  ****

                              Check   Calling
                             calling  sequence
  Sect HexLoc Primary Altret sequence   type   Parms  Name
     0      0   yes            yes      Std        0  QBC$CONVERSIONS
     0      7                  yes      Std        0  QBC$CNVBN
     0     53                  yes      Std        0  QBC$CNVBNX
     0     6E                  yes      Std        0  QBC$CNVBPX
     0     97                  yes      Std        0  QBC$CNVBBX
     0     FA                  yes      Std        0  QBC$CNVNBT
     0    109                  yes      Std        0  QBC$CNVPBT
     0    15D                  yes      Std        0  QBC$CNVPN
PL6.E3A0      #001=QBC$CONVERSIONS File=QBC$CONVERSIONS.:E05TSI                  WED 07/30/97 04:46 Page:14

  ****  Entry refs  ****

         Check        Calling
        calling       sequence
Altret sequence SRef   type   Args  Name
         yes           Std       0 QCS$SETUP_SOURCE
         yes           Std       0 QCS$SETUP_TARGET
 yes     yes           Std       1 QCC$CBD
 yes     yes           Std       1 QCC$CDB
 yes     yes           Std       1 QCC$DMC
         yes           Std       4 QCE$ERROR
                       nStd      0 X6A_AUTO_0
                       nStd      0 X6A_ARET

  ****  Data refs  ****

  Flags:  r = read only, s = secondary
Flgs Name                             Flgs Name                             Flgs Name
     QI_1                                  QI_4_CHAR_ALPHANUMERIC                QI_31_DIGIT_SLS_DISPLAY
     QI_16_BIT_BINARY                      QI_32_BIT_BINARY                      QI_31_DIGIT_ST_PACKED
     QI_PICTURE_STRING                r    G$ROS$
PL6.E3A0      #001=QBC$CONVERSIONS File=QBC$CONVERSIONS.:E05TSI                  WED 07/30/97 04:46 Page:15


        1        1        /*M* QBC$CONVERSIONS:  Convert datatypes to-and-from others.  */
        2        2        /*T***********************************************************/
        3        3        /*T*                                                         */
        4        4        /*T* Copyright (c) Bull HN Information Systems Inc., 1997    */
        5        5        /*T*                                                         */
        6        6        /*T***********************************************************/
        7        7        /*X* DMC,PLM=4,IND=0,DCI=4,CSI=2,IAD=2,DTI=2,AND,ECI=0,DIN=2,STI=2 */
        8        8
        9        9        /*P*  NAME:         QBC$CONVERSIONS
       10       10              PURPOSE:      Convert datatypes to-and-from others.
       11       11              DESCRIPTION:  Several combinations of conversions to-and-from the
       12       12                            BINARY datatype are done, and one PACKED
       13       13                            (packed decimal) to DISPLAY (unpacked decimal)
       14       14                            is included just to make everything lopsided.
       15       15        */
       16       16
       17       17        QBC$CONVERSIONS: PROC;

     17   0 000000  D380 0000 0000  xent QBC$CONVERSIONS LNJ,B5   X6A_AUTO_0
          0 000003       000C 0000                       DC       12,0
          0 000005  0F81 0006                            B        s:17104,PREL

       18       18
       19       19          %INCLUDE LCP_6;
       20      210
       21      211          %INCLUDE QI_PERR_C;
       22      379          %INCLUDE QG_MACRO_M;
       23      516          %INCLUDE QI_EQUATES_E;
       24      875          %INCLUDE QI_MACROS_M;
       25     5933          %QI$ALL;
       26    17046
       27    17047          %QI@OTTER_SPACE;
       28    17075
       29    17076    1     DCL QCC$CBD ENTRY (1) ALTRET;
       30    17077    1     DCL QCC$CDB ENTRY (1) ALTRET;
       31    17078    1     DCL QCC$DMC ENTRY (1) ALTRET;
PL6.E3A0      #001=QBC$CONVERSIONS File=QBC$CONVERSIONS.:E05TSI                  WED 07/30/97 04:46 Page:16
       32    17079    1     DCL QCE$ERROR ENTRY (4);
       33    17080    1     DCL QCS$SETUP_SOURCE ENTRY;
       34    17081    1     DCL QCS$SETUP_TARGET ENTRY;
       35    17082
       36    17083        %EJECT;
PL6.E3A0      #001=QBC$CONVERSIONS File=QBC$CONVERSIONS.:E05TSI                  WED 07/30/97 04:46 Page:17
       37    17084    1   QBC$CNVBN: ENTRY;

  17084   0 000007  D380 0000 0000  xent QBC$CNVBN       LNJ,B5   X6A_AUTO_0
          0 00000A       000C 0000                       DC       12,0

       38    17085
       39    17086        /*D*  NAME:         QBC$CNVBN
       40    17087              CALL:         CALL QBC$CNVBN;
       41    17088              PARAMETERS:   None.
       42    17089              INTERFACE:    Called by QAT$TALLYHO when a CNVBN op-code is
       43    17090                            encountered.
       44    17091                            Calls QCS$SETUP_SOURCE,
       45    17092                                  QCS$SETUP_TARGET,
       46    17093                                  QCC$CBD.
       47    17094              ENVIRONMENT:  Nothing unusual.
       48    17095              INPUT:        QI_1,
       49    17096                            FPL rununit static data following the op-code.
       50    17097              OUTPUT:       Target DAD contains the DISPLAY (unpacked decimal)
       51    17098                            equivalent of the BINARY source DAD.
       52    17099              SCRATCH:      Various otter data.
       53    17100              DESCRIPTION:  We're going from a BINARY DAD
       54    17101                            to a (temp) DISPLAY DAD.
       55    17102        */
       56    17103
       57    17104    1       QI_1.INSTR$ = ADDR ( QI_1.INSTR$ -> QI$OP_CNVBN.NEXT_CODE@P );

  17104   0 00000C  EC80 0000 0006  xsym                 LDB,B6   QI_1+6
          0 00000F  DBC6 0003                            LAB,B5   3,B6
          0 000011  DF80 0000 0006  xsym                 STB,B5   QI_1+6

       58    17105
       59    17106    1       CALL QCS$SETUP_SOURCE;

  17106   0 000014  CBF0 0000                            LAB,B4   0,IMO
          0 000016  E380 0000 0000  xent                 LNJ,B6   QCS$SETUP_SOURCE
          0 000019       0001                            DC       s:17107,PREL

PL6.E3A0      #001=QBC$CONVERSIONS File=QBC$CONVERSIONS.:E05TSI                  WED 07/30/97 04:46 Page:18
       60    17107    1       CALL QCS$SETUP_TARGET;

  17107   0 00001A  CBF0 0000                            LAB,B4   0,IMO
          0 00001C  E380 0000 0000  xent                 LNJ,B6   QCS$SETUP_TARGET
          0 00001F       0001                            DC       s:17109,PREL

       61    17108
       62    17109    1       IF QI_1.OP.LEN.S = %QI#MIN_BINARY_LENGTH

  17109   0 000020  E800 0000 0026  xsym                 LDR,R6   QI_1+38
          0 000023  6D02                                 CMV,R6   2
          0 000024  0981 0009                            BNE      s:17113,PREL

       63    17110    1       THEN
       64    17111    1         QI_1.OP.CIP.T.LEN = %QI#MIN_BINARY_DIGIT_COUNT;

  17111   0 000026  D870 0500                            LDR,R5   1280,IMO
          0 000028  DA80 0000 001C  xsym                 SRM,R5,'1F00'X    QI_1+28
          0 00002B       1F00
          0 00002C  0F81 0007                            B        s:17115,PREL

       65    17112    1       ELSE
       66    17113    1         QI_1.OP.CIP.T.LEN = %QI#MAX_BINARY_DIGIT_COUNT;

  17113   0 00002E  D870 0A00                            LDR,R5   2560,IMO
          0 000030  DA80 0000 001C  xsym                 SRM,R5,'1F00'X    QI_1+28
          0 000033       1F00

       67    17114
       68    17115    1       QI_1.OP.CIP.T.CD.SIGN = %QI#CD_SIGN_TRAILING_OVER;

  17115   0 000034  D870 2000                            LDR,R5   8192,IMO
          0 000036  DA80 0000 001C  xsym                 SRM,R5,'6000'X    QI_1+28
          0 000039       6000

       69    17116    1       QI_1.OP.DEC.T = 0;

PL6.E3A0      #001=QBC$CONVERSIONS File=QBC$CONVERSIONS.:E05TSI                  WED 07/30/97 04:46 Page:19
  17116   0 00003A  8700 0000 002A  xsym                 CL       QI_1+42

       70    17117
       71    17118    1       QI_1.DAD.T$ -> QI$DAD.WORD0 = %( QI#IS_TEMP_BIT_MASK + QI#TYPE_DISPLAY );

  17118   0 00003D  EC80 0000 0034  xsym                 LDB,B6   QI_1+52
          0 000040  C870 0200                            LDR,R4   512,IMO
          0 000042  CF06                                 STR,R4   ,B6

       72    17119    1       QI_1.DAD.T$ -> QI$DAD.PSEUDO_CIP_A (0) = QI_1.OP.CIP.T_A (0);

  17119   0 000043  EC80 0000 0034  xsym                 LDB,B6   QI_1+52
          0 000046  E800 0000 001C  xsym                 LDR,R6   QI_1+28
          0 000049  EF46 0001                            STR,R6   1,B6

       73    17120    1       QI_1.DAD.T$ -> QI$DAD.PSEUDO_CIP.NUMERIC.DEC = 0;

  17120   0 00004B  EC80 0000 0034  xsym                 LDB,B6   QI_1+52
          0 00004E  8846 0001                            LBF,'003F'X       1,B6
          0 000050       003F

       74    17121
       75    17122    1       GOTO SO_DO_THE_FROM_BINARY_ALREADY;

  17122   0 000051  0F81 0035                            B        s:17178,PREL

       76    17123
       77    17124    1   QBC$CNVBNX: ENTRY;

  17124   0 000053  D380 0000 0000  xent QBC$CNVBNX      LNJ,B5   X6A_AUTO_0
          0 000056       000C 0000                       DC       12,0

       78    17125
       79    17126        /*D*  NAME:         QBC$CNVBNX
       80    17127              CALL:         CALL QBC$CNVBNX;
       81    17128              PARAMETERS:   None.
       82    17129              INTERFACE:    Called by QAT$TALLYHO when a CNVBNX op-code is
PL6.E3A0      #001=QBC$CONVERSIONS File=QBC$CONVERSIONS.:E05TSI                  WED 07/30/97 04:46 Page:20
       83    17130                            encountered.
       84    17131                            Calls QCS$SETUP_SOURCE,
       85    17132                                  QCS$SETUP_TARGET,
       86    17133                                  QCC$CBD.
       87    17134              ENVIRONMENT:  Nothing unusual.
       88    17135              INPUT:        QI_1,
       89    17136                            FPL rununit static data following the op-code.
       90    17137              OUTPUT:       Target DAD contains the DISPLAY (unpacked decimal)
       91    17138                            equivalent of the BINARY source DAD.
       92    17139              SCRATCH:      Various otter data.
       93    17140              DESCRIPTION:  We're going from a (temp) BINARY DAD
       94    17141                            to a DISPLAY DAD.
       95    17142        */
       96    17143
       97    17144    1       QI_1.INSTR$ = ADDR ( QI_1.INSTR$ -> QI$OP_CNVBNX.NEXT_CODE@P );

  17144   0 000058  EC80 0000 0006  xsym                 LDB,B6   QI_1+6
          0 00005B  DBC6 0003                            LAB,B5   3,B6
          0 00005D  DF80 0000 0006  xsym                 STB,B5   QI_1+6

       98    17145
       99    17146    1       CALL QCS$SETUP_SOURCE;

  17146   0 000060  CBF0 0000                            LAB,B4   0,IMO
          0 000062  E380 0000 0000  xent                 LNJ,B6   QCS$SETUP_SOURCE
          0 000065       0001                            DC       s:17147,PREL

      100    17147    1       CALL QCS$SETUP_TARGET;

  17147   0 000066  CBF0 0000                            LAB,B4   0,IMO
          0 000068  E380 0000 0000  xent                 LNJ,B6   QCS$SETUP_TARGET
          0 00006B       0001                            DC       s:17149,PREL

      101    17148
      102    17149    1       GOTO SO_DO_THE_FROM_BINARY_ALREADY;

  17149   0 00006C  0F81 001A                            B        s:17178,PREL
PL6.E3A0      #001=QBC$CONVERSIONS File=QBC$CONVERSIONS.:E05TSI                  WED 07/30/97 04:46 Page:21

      103    17150
      104    17151    1   QBC$CNVBPX: ENTRY;

  17151   0 00006E  D380 0000 0000  xent QBC$CNVBPX      LNJ,B5   X6A_AUTO_0
          0 000071       000C 0000                       DC       12,0

      105    17152
      106    17153        /*D*  NAME:         QBC$CNVBPX
      107    17154              CALL:         CALL QBC$CNVBPX;
      108    17155              PARAMETERS:   None.
      109    17156              INTERFACE:    Called by QAT$TALLYHO when a CNVBPX op-code is
      110    17157                            encountered.
      111    17158                            Calls QCS$SETUP_SOURCE,
      112    17159                                  QCS$SETUP_TARGET,
      113    17160                                  QCC$CBD.
      114    17161              ENVIRONMENT:  Nothing unusual.
      115    17162              INPUT:        QI_1,
      116    17163                            FPL rununit static data following the op-code.
      117    17164              OUTPUT:       Target DAD contains the PACKED (packed decimal)
      118    17165                            equivalent of the BINARY source DAD.
      119    17166              SCRATCH:      Various otter data.
      120    17167              DESCRIPTION:  We're going from a (temp) BINARY DAD
      121    17168                            to a PACKED DAD.
      122    17169        */
      123    17170
      124    17171    1       QI_1.INSTR$ = ADDR ( QI_1.INSTR$ -> QI$OP_CNVBPX.NEXT_CODE@P );

  17171   0 000073  EC80 0000 0006  xsym                 LDB,B6   QI_1+6
          0 000076  DBC6 0003                            LAB,B5   3,B6
          0 000078  DF80 0000 0006  xsym                 STB,B5   QI_1+6

      125    17172
      126    17173    1       CALL QCS$SETUP_SOURCE;

  17173   0 00007B  CBF0 0000                            LAB,B4   0,IMO
          0 00007D  E380 0000 0000  xent                 LNJ,B6   QCS$SETUP_SOURCE
PL6.E3A0      #001=QBC$CONVERSIONS File=QBC$CONVERSIONS.:E05TSI                  WED 07/30/97 04:46 Page:22
          0 000080       0001                            DC       s:17174,PREL

      127    17174    1       CALL QCS$SETUP_TARGET;

  17174   0 000081  CBF0 0000                            LAB,B4   0,IMO
          0 000083  E380 0000 0000  xent                 LNJ,B6   QCS$SETUP_TARGET
          0 000086       0001                            DC       s:17178,PREL

      128    17175
      129    17176    1   SO_DO_THE_FROM_BINARY_ALREADY:
      130    17177
      131    17178    1       QI_1.OP.SIZE_ERROR = %QI#CHECK_FOR_SIZE_ERROR;

  17178   0 000087  6C01                 SO_DO_THE_FROM_*LDV,R6   1
          0 000088  EF00 0000 0030  xsym                 STR,R6   QI_1+48

      132    17179
      133    17180    1       CALL QCC$CBD ( QI_1.OP )

  17180   0 00008B  BB80 0000 0000  01                   LAB,B3   0
          0 00008E  CBF0 0100                            LAB,B4   256,IMO
          0 000090  E380 0000 0000  xent                 LNJ,B6   QCC$CBD
          0 000093       0127                            DC       s:17355,PREL

      134    17181    1         ALTRET ( OVERFLOW );
      135    17182
      136    17183    1       RETURN;

  17183   0 000094  C380 0000 0000  xent                 LNJ,B4   X6A_ARET

      137    17184        %EJECT;
PL6.E3A0      #001=QBC$CONVERSIONS File=QBC$CONVERSIONS.:E05TSI                  WED 07/30/97 04:46 Page:23
      138    17185    1   QBC$CNVBBX: ENTRY;

  17185   0 000097  D380 0000 0000  xent QBC$CNVBBX      LNJ,B5   X6A_AUTO_0
          0 00009A       000C 0000                       DC       12,0

      139    17186
      140    17187        /*D*  NAME:         QBC$CNVBBX
      141    17188              CALL:         CALL QBC$CNVBBX;
      142    17189              PARAMETERS:   None.
      143    17190              INTERFACE:    Called by QAT$TALLYHO when a CNVBBX op-code is
      144    17191                            encountered.
      145    17192                            Calls QCS$SETUP_SOURCE,
      146    17193                                  QCS$SETUP_TARGET,
      147    17194                                  QCC$CBD,
      148    17195                                  QCC$CDB.
      149    17196              ENVIRONMENT:  Nothing unusual.
      150    17197              INPUT:        QI_1,
      151    17198                            FPL rununit static data following the op-code.
      152    17199              OUTPUT:       Target DAD contains the BINARY
      153    17200                            equivalent of the BINARY source DAD.
      154    17201              SCRATCH:      Various otter data.
      155    17202              DESCRIPTION:  We're going from a (temp) BINARY DAD
      156    17203                            to a BINARY DAD.
      157    17204                            The intermediate conversion is to detect overflow;
      158    17205                            the source and target BINARY items may be COMP-1 (16-bit),
      159    17206                            COMP-2 (32-bit), or any combination.
      160    17207        */
      161    17208
      162    17209    1       QI_1.INSTR$ = ADDR ( QI_1.INSTR$ -> QI$OP_CNVBBX.NEXT_CODE@P );

  17209   0 00009C  EC80 0000 0006  xsym                 LDB,B6   QI_1+6
          0 00009F  DBC6 0003                            LAB,B5   3,B6
          0 0000A1  DF80 0000 0006  xsym                 STB,B5   QI_1+6

      163    17210
      164    17211    1       CALL QCS$SETUP_SOURCE;

PL6.E3A0      #001=QBC$CONVERSIONS File=QBC$CONVERSIONS.:E05TSI                  WED 07/30/97 04:46 Page:24
  17211   0 0000A4  CBF0 0000                            LAB,B4   0,IMO
          0 0000A6  E380 0000 0000  xent                 LNJ,B6   QCS$SETUP_SOURCE
          0 0000A9       0001                            DC       s:17213,PREL

      165    17212
      166    17213    1       QI_1.OP.CIP.T_A (0) = QI_31_DIGIT_SLS_DISPLAY_A (0);

  17213   0 0000AA  E800 0000 0000  xsym                 LDR,R6   QI_31_DIGIT_SLS_DISPLAY
          0 0000AD  EF00 0000 001C  xsym                 STR,R6   QI_1+28

      167    17214    1       QI_1.OP.CIP.T.CD.SIGN = %QI#CD_SIGN_TRAILING_OVER;

  17214   0 0000B0  D870 2000                            LDR,R5   8192,IMO
          0 0000B2  DA80 0000 001C  xsym                 SRM,R5,'6000'X    QI_1+28
          0 0000B5       6000

      168    17215    1       QI_1.OP.DATA.T$ = ADDR ( QI@OTTER_SPACE );

  17215   0 0000B6  EBC7 0004                            LAB,B6   QI@OTTER_SPACE,AUTO
          0 0000B8  EF80 0000 0022  xsym                 STB,B6   QI_1+34

      169    17216
      170    17217    1       IF QI_1.OP.LEN.S = %QI#MIN_BINARY_LENGTH

  17217   0 0000BB  C800 0000 0026  xsym                 LDR,R4   QI_1+38
          0 0000BE  4D02                                 CMV,R4   2
          0 0000BF  0981 0009                            BNE      s:17221,PREL

      171    17218    1       THEN
      172    17219    1         QI_1.OP.CIP.T.LEN = %QI#MIN_BINARY_DIGIT_COUNT;

  17219   0 0000C1  B870 0500                            LDR,R3   1280,IMO
          0 0000C3  BA80 0000 001C  xsym                 SRM,R3,'1F00'X    QI_1+28
          0 0000C6       1F00
          0 0000C7  0F81 0007                            B        s:17223,PREL

      173    17220    1       ELSE
PL6.E3A0      #001=QBC$CONVERSIONS File=QBC$CONVERSIONS.:E05TSI                  WED 07/30/97 04:46 Page:25
      174    17221    1         QI_1.OP.CIP.T.LEN = %QI#MAX_BINARY_DIGIT_COUNT;

  17221   0 0000C9  B870 0A00                            LDR,R3   2560,IMO
          0 0000CB  BA80 0000 001C  xsym                 SRM,R3,'1F00'X    QI_1+28
          0 0000CE       1F00

      175    17222
      176    17223    1       QI_1.OP.SIZE_ERROR = %QI#CHECK_FOR_SIZE_ERROR;

  17223   0 0000CF  3C01                                 LDV,R3   1
          0 0000D0  BF00 0000 0030  xsym                 STR,R3   QI_1+48

      177    17224
      178    17225    1       CALL QCC$CBD ( QI_1.OP )

  17225   0 0000D3  BB80 0000 0000  01                   LAB,B3   0
          0 0000D6  CBF0 0100                            LAB,B4   256,IMO
          0 0000D8  E380 0000 0000  xent                 LNJ,B6   QCC$CBD
          0 0000DB       00DF                            DC       s:17355,PREL

      179    17226    1         ALTRET ( OVERFLOW );
      180    17227
      181    17228    1       QI_1.OP.CIP.S_A (0) = QI_1.OP.CIP.T_A (0);

  17228   0 0000DC  E800 0000 001C  xsym                 LDR,R6   QI_1+28
          0 0000DF  EF00 0000 001A  xsym                 STR,R6   QI_1+26

      182    17229    1       QI_1.OP.DATA.S$ = QI_1.OP.DATA.T$;

  17229   0 0000E2  EC80 0000 0022  xsym                 LDB,B6   QI_1+34
          0 0000E5  EF80 0000 0020  xsym                 STB,B6   QI_1+32

      183    17230
      184    17231    1       CALL QCS$SETUP_TARGET;

  17231   0 0000E8  CBF0 0000                            LAB,B4   0,IMO
          0 0000EA  E380 0000 0000  xent                 LNJ,B6   QCS$SETUP_TARGET
PL6.E3A0      #001=QBC$CONVERSIONS File=QBC$CONVERSIONS.:E05TSI                  WED 07/30/97 04:46 Page:26
          0 0000ED       0001                            DC       s:17233,PREL

      185    17232
      186    17233    1       CALL QCC$CDB ( QI_1.OP )

  17233   0 0000EE  BB80 0000 0000  01                   LAB,B3   0
          0 0000F1  CBF0 0100                            LAB,B4   256,IMO
          0 0000F3  E380 0000 0000  xent                 LNJ,B6   QCC$CDB
          0 0000F6       00C4                            DC       s:17355,PREL

      187    17234    1         ALTRET ( OVERFLOW );
      188    17235
      189    17236    1       RETURN;

  17236   0 0000F7  C380 0000 0000  xent                 LNJ,B4   X6A_ARET

      190    17237        %EJECT;
PL6.E3A0      #001=QBC$CONVERSIONS File=QBC$CONVERSIONS.:E05TSI                  WED 07/30/97 04:46 Page:27
      191    17238    1   QBC$CNVNBT: ENTRY;

  17238   0 0000FA  D380 0000 0000  xent QBC$CNVNBT      LNJ,B5   X6A_AUTO_0
          0 0000FD       000C 0000                       DC       12,0

      192    17239
      193    17240        /*D*  NAME:         QBC$CNVNBT
      194    17241              CALL:         CALL QBC$CNVNBT;
      195    17242              PARAMETERS:   None.
      196    17243              INTERFACE:    Called by QAT$TALLYHO when a CNVNBT op-code is
      197    17244                            encountered.
      198    17245                            Calls QCS$SETUP_SOURCE,
      199    17246                                  QCS$SETUP_TARGET,
      200    17247                                  QCC$CDB.
      201    17248              ENVIRONMENT:  Nothing unusual.
      202    17249              INPUT:        QI_1,
      203    17250                            FPL rununit static data following the op-code.
      204    17251              OUTPUT:       Target DAD contains the BINARY
      205    17252                            equivalent of the DISPLAY (unpacked decimal) source DAD.
      206    17253              SCRATCH:      Various otter data.
      207    17254              DESCRIPTION:  We're going from a DISPLAY DAD
      208    17255                            to a (temp) BINARY DAD.
      209    17256        */
      210    17257
      211    17258    1       QI_1.INSTR$ = ADDR ( QI_1.INSTR$ -> QI$OP_CNVNBT.NEXT_CODE@P );

  17258   0 0000FF  EC80 0000 0006  xsym                 LDB,B6   QI_1+6
          0 000102  DBC6 0003                            LAB,B5   3,B6
          0 000104  DF80 0000 0006  xsym                 STB,B5   QI_1+6

      212    17259
      213    17260    1       GOTO SO_DO_THE_TO_BINARY_ALREADY;

  17260   0 000107  0F81 000E                            B        s:17286,PREL

      214    17261
      215    17262    1   QBC$CNVPBT: ENTRY;
PL6.E3A0      #001=QBC$CONVERSIONS File=QBC$CONVERSIONS.:E05TSI                  WED 07/30/97 04:46 Page:28

  17262   0 000109  D380 0000 0000  xent QBC$CNVPBT      LNJ,B5   X6A_AUTO_0
          0 00010C       000C 0000                       DC       12,0

      216    17263
      217    17264        /*D*  NAME:         QBC$CNVPBT
      218    17265              CALL:         CALL QBC$CNVPBT;
      219    17266              PARAMETERS:   None.
      220    17267              INTERFACE:    Called by QAT$TALLYHO when a CNVPBT op-code is
      221    17268                            encountered.
      222    17269                            Calls QCS$SETUP_SOURCE,
      223    17270                                  QCS$SETUP_TARGET,
      224    17271                                  QCC$CDB.
      225    17272              ENVIRONMENT:  Nothing unusual.
      226    17273              INPUT:        QI_1,
      227    17274                            FPL rununit static data following the op-code.
      228    17275              OUTPUT:       Target DAD contains the BINARY
      229    17276                            equivalent of the PACKED (packed decimal) source DAD.
      230    17277              SCRATCH:      Various otter data.
      231    17278              DESCRIPTION:  We're going from a PACKED DAD
      232    17279                            to a (temp) BINARY DAD.
      233    17280        */
      234    17281
      235    17282    1       QI_1.INSTR$ = ADDR ( QI_1.INSTR$ -> QI$OP_CNVPBT.NEXT_CODE@P );

  17282   0 00010E  EC80 0000 0006  xsym                 LDB,B6   QI_1+6
          0 000111  DBC6 0003                            LAB,B5   3,B6
          0 000113  DF80 0000 0006  xsym                 STB,B5   QI_1+6

      236    17283
      237    17284    1   SO_DO_THE_TO_BINARY_ALREADY:
      238    17285
      239    17286    1       CALL QCS$SETUP_SOURCE;

  17286   0 000116  CBF0 0000            SO_DO_THE_TO_BI*LAB,B4   0,IMO
          0 000118  E380 0000 0000  xent                 LNJ,B6   QCS$SETUP_SOURCE
          0 00011B       0001                            DC       s:17287,PREL
PL6.E3A0      #001=QBC$CONVERSIONS File=QBC$CONVERSIONS.:E05TSI                  WED 07/30/97 04:46 Page:29

      240    17287    1       CALL QCS$SETUP_TARGET;

  17287   0 00011C  CBF0 0000                            LAB,B4   0,IMO
          0 00011E  E380 0000 0000  xent                 LNJ,B6   QCS$SETUP_TARGET
          0 000121       0001                            DC       s:17289,PREL

      241    17288
      242    17289    1       QI_1.OP.CIP.T_A (0) = QI_16_BIT_BINARY_A (0);

  17289   0 000122  E800 0000 0000  xsym                 LDR,R6   QI_16_BIT_BINARY
          0 000125  EF00 0000 001C  xsym                 STR,R6   QI_1+28

      243    17290    1       QI_1.OP.SIZE_ERROR = %QI#CHECK_FOR_SIZE_ERROR;

  17290   0 000128  5C01                                 LDV,R5   1
          0 000129  DF00 0000 0030  xsym                 STR,R5   QI_1+48

      244    17291
      245    17292    1       CALL QCC$CDB ( QI_1.OP )

  17292   0 00012C  BB80 0000 0000  01                   LAB,B3   0
          0 00012F  CBF0 0100                            LAB,B4   256,IMO
          0 000131  E380 0000 0000  xent                 LNJ,B6   QCC$CDB
          0 000134       0003                            DC       s:17295,PREL
          0 000135  0F81 0010                            B        s:17302,PREL

      246    17293    2       WHENALTRETURN DO;

      247    17294
      248    17295    2           QI_1.OP.CIP.T.LEN = %QI#MAX_BINARY_LENGTH;

  17295   0 000137  E870 0400                            LDR,R6   1024,IMO
          0 000139  EA80 0000 001C  xsym                 SRM,R6,'1F00'X    QI_1+28
          0 00013C       1F00

      249    17296
PL6.E3A0      #001=QBC$CONVERSIONS File=QBC$CONVERSIONS.:E05TSI                  WED 07/30/97 04:46 Page:30
      250    17297    2           CALL QCC$CDB ( QI_1.OP )

  17297   0 00013D  BB80 0000 0000  01                   LAB,B3   0
          0 000140  CBF0 0100                            LAB,B4   256,IMO
          0 000142  E380 0000 0000  xent                 LNJ,B6   QCC$CDB
          0 000145       0075                            DC       s:17355,PREL

      251    17298    2             ALTRET ( OVERFLOW );
      252    17299
      253    17300    2         END;

      254    17301
      255    17302    1       QI_1.DAD.T$ -> QI$DAD.WORD0 = %( QI#IS_TEMP_BIT_MASK + QI#TYPE_BINARY );

  17302   0 000146  EC80 0000 0034  xsym                 LDB,B6   QI_1+52
          0 000149  E870 0202                            LDR,R6   514,IMO
          0 00014B  EF06                                 STR,R6   ,B6

      256    17303    1       QI_1.DAD.T$ -> QI$DAD.PSEUDO_CIP_A (0) = QI_1.OP.CIP.T_A (0);

  17303   0 00014C  EC80 0000 0034  xsym                 LDB,B6   QI_1+52
          0 00014F  D800 0000 001C  xsym                 LDR,R5   QI_1+28
          0 000152  DF46 0001                            STR,R5   1,B6

      257    17304    1       QI_1.DAD.T$ -> QI$DAD.PSEUDO_CIP.NUMERIC.DEC = 0;

  17304   0 000154  EC80 0000 0034  xsym                 LDB,B6   QI_1+52
          0 000157  8846 0001                            LBF,'003F'X       1,B6
          0 000159       003F

      258    17305
      259    17306    1       RETURN;

  17306   0 00015A  C380 0000 0000  xent                 LNJ,B4   X6A_ARET

      260    17307        %EJECT;
PL6.E3A0      #001=QBC$CONVERSIONS File=QBC$CONVERSIONS.:E05TSI                  WED 07/30/97 04:46 Page:31
      261    17308    1   QBC$CNVPN: ENTRY;

  17308   0 00015D  D380 0000 0000  xent QBC$CNVPN       LNJ,B5   X6A_AUTO_0
          0 000160       000C 0000                       DC       12,0

      262    17309
      263    17310        /*D*  NAME:         QBC$CNVPN
      264    17311              CALL:         CALL QBC$CNVPN;
      265    17312              PARAMETERS:   None.
      266    17313              INTERFACE:    Called by QAT$TALLYHO when a CNVPN op-code is
      267    17314                            encountered.
      268    17315                            Calls QCS$SETUP_SOURCE,
      269    17316                                  QCS$SETUP_TARGET,
      270    17317                                  QCC$DMC.
      271    17318              ENVIRONMENT:  Nothing unusual.
      272    17319              INPUT:        QI_1,
      273    17320                            FPL rununit static data following the op-code.
      274    17321              OUTPUT:       Target DAD contains the DISPLAY (unpacked decimal)
      275    17322                            equivalent of the PACKED (packed decimal) source DAD.
      276    17323              SCRATCH:      Various otter data.
      277    17324              DESCRIPTION:  We're going from a PACKED DAD
      278    17325                            to a (temp) DISPLAY DAD.
      279    17326        */
      280    17327
      281    17328    1       QI_1.INSTR$ = ADDR ( QI_1.INSTR$ -> QI$OP_CNVPN.NEXT_CODE@P );

  17328   0 000162  EC80 0000 0006  xsym                 LDB,B6   QI_1+6
          0 000165  DBC6 0003                            LAB,B5   3,B6
          0 000167  DF80 0000 0006  xsym                 STB,B5   QI_1+6

      282    17329
      283    17330    1       CALL QCS$SETUP_SOURCE;

  17330   0 00016A  CBF0 0000                            LAB,B4   0,IMO
          0 00016C  E380 0000 0000  xent                 LNJ,B6   QCS$SETUP_SOURCE
          0 00016F       0001                            DC       s:17331,PREL

PL6.E3A0      #001=QBC$CONVERSIONS File=QBC$CONVERSIONS.:E05TSI                  WED 07/30/97 04:46 Page:32
      284    17331    1       CALL QCS$SETUP_TARGET;

  17331   0 000170  CBF0 0000                            LAB,B4   0,IMO
          0 000172  E380 0000 0000  xent                 LNJ,B6   QCS$SETUP_TARGET
          0 000175       0001                            DC       s:17333,PREL

      285    17332
      286    17333    1       QI_1.OP.CIP.T.LEN = QI_1.OP.LEN.S;

  17333   0 000176  E800 0000 0026  xsym                 LDR,R6   QI_1+38
          0 000179  6008                                 SOL,R6   8
          0 00017A  EA80 0000 001C  xsym                 SRM,R6,'1F00'X    QI_1+28
          0 00017D       1F00

      287    17334
      288    17335    1       IF QI_1.OP.CIP.S.CP.SIGN = %QI#CP_SIGN_TRAILING

  17335   0 00017E  E800 0000 001A  xsym                 LDR,R6   QI_1+26
          0 000181  604D                                 SOR,R6   13
          0 000182  E570 0001                            AND,R6   1,IMO
          0 000184  6D01                                 CMV,R6   1
          0 000185  0981 0009                            BNE      s:17339,PREL

      289    17336    1       THEN
      290    17337    1         QI_1.OP.CIP.T.CD.SIGN = %QI#CD_SIGN_TRAILING_OVER;

  17337   0 000187  D870 2000                            LDR,R5   8192,IMO
          0 000189  DA80 0000 001C  xsym                 SRM,R5,'6000'X    QI_1+28
          0 00018C       6000
          0 00018D  0F81 0005                            B        s:17341,PREL

      291    17338    1       ELSE
      292    17339    1         QI_1.OP.CIP.T.CD.SIGN = %QI#CD_UNSIGNED;

  17339   0 00018F  8800 0000 001C  xsym                 LBF,'6000'X       QI_1+28
  17339   0 000192       6000

PL6.E3A0      #001=QBC$CONVERSIONS File=QBC$CONVERSIONS.:E05TSI                  WED 07/30/97 04:46 Page:33
      293    17340
      294    17341    1       QI_1.DAD.T$ -> QI$DAD.WORD0 = %( QI#IS_TEMP_BIT_MASK + QI#TYPE_DISPLAY );

  17341   0 000193  EC80 0000 0034  xsym                 LDB,B6   QI_1+52
          0 000196  D870 0200                            LDR,R5   512,IMO
          0 000198  DF06                                 STR,R5   ,B6

      295    17342    1       QI_1.DAD.T$ -> QI$DAD.PSEUDO_CIP_A (0) = QI_1.OP.CIP.T_A (0);

  17342   0 000199  EC80 0000 0034  xsym                 LDB,B6   QI_1+52
          0 00019C  E800 0000 001C  xsym                 LDR,R6   QI_1+28
          0 00019F  EF46 0001                            STR,R6   1,B6

      296    17343    1       QI_1.DAD.T$ -> QI$DAD.PSEUDO_CIP.NUMERIC.DEC = QI_1.OP.DEC.S;

  17343   0 0001A1  E800 0000 0029  xsym                 LDR,R6   QI_1+41
          0 0001A4  EC80 0000 0034  xsym                 LDB,B6   QI_1+52
          0 0001A7  EAC6 0001                            SRM,R6,'003F'X    1,B6
          0 0001A9       003F

      297    17344
      298    17345    1       QI_1.OP.SIZE_ERROR = %QI#CHECK_FOR_SIZE_ERROR;

  17345   0 0001AA  6C01                                 LDV,R6   1
          0 0001AB  EF00 0000 0030  xsym                 STR,R6   QI_1+48

      299    17346
      300    17347    1       CALL QCC$DMC ( QI_1.OP )

  17347   0 0001AE  BB80 0000 0000  01                   LAB,B3   0
          0 0001B1  CBF0 0100                            LAB,B4   256,IMO
          0 0001B3  E380 0000 0000  xent                 LNJ,B6   QCC$DMC
          0 0001B6       0004                            DC       s:17355,PREL

      301    17348    1         ALTRET ( OVERFLOW );
      302    17349
      303    17350    1       RETURN;
PL6.E3A0      #001=QBC$CONVERSIONS File=QBC$CONVERSIONS.:E05TSI                  WED 07/30/97 04:46 Page:34

  17350   0 0001B7  C380 0000 0000  xent                 LNJ,B4   X6A_ARET

      304    17351        %EJECT;
PL6.E3A0      #001=QBC$CONVERSIONS File=QBC$CONVERSIONS.:E05TSI                  WED 07/30/97 04:46 Page:35
      305    17352    1   OVERFLOW:
      306    17353            /*  Ick.  Something overflowed while moving into, out of,
      307    17354                or around in some BINARY operand.  */
      308    17355    1       CALL QCE$ERROR ( %E$BINARY_OVERFLOW );

  17355   0 0001BA  BB80 0000 0003  01   OVERFLOW        LAB,B3   +3
          0 0001BD  CBF0 0100                            LAB,B4   256,IMO
          0 0001BF  E380 0000 0000  xent                 LNJ,B6   QCE$ERROR
          0 0001C2       0001                            DC       s:17357,PREL

      309    17356
      310    17357    1   END QBC$CONVERSIONS;

  17357   0 0001C3  C380 0000 0000  xent                 LNJ,B4   X6A_ARET

PL6.E3A0      #001=QBC$CONVERSIONS File=QBC$CONVERSIONS.:E05TSI                  WED 07/30/97 04:46 Page:36
--  Include file information  --

   QI_MACROS_M.:E05TOU  is referenced.
   QI_EQUATES_E.:E05TOU  is referenced.
   QG_MACRO_M.:E05TOU  is referenced.
   QI_PERR_C.:E05TOU  is referenced.
   LCP_6.:E05TOU  cannot be made into a system file and is referenced.
   G_LCP6_E.:E05TOU  was found in the system file and is referenced.
   GT_LCP6_M.:E05TOU  was found in the system file and is referenced.
   KI_CP6.:E05TOU  was found in the system file and is referenced.
   GF_LCP6_M.:E05TOU  was found in the system file and is referenced.
   GM_LCP6_M.:E05TOU  was found in the system file and is referenced.
   GU_LCP6_M.:E05TOU  was found in the system file and is referenced.
   GJ_LCP6_M.:E05TOU  was found in the system file and is referenced.
   GH_LCP6_M.:E05TOU  was found in the system file and is referenced.
      No diagnostics issued in procedure QBC$CONVERSIONS.
PL6.E3A0      #001=QBC$CONVERSIONS File=QBC$CONVERSIONS.:E05TSI                  WED 07/30/97 04:46 Page:37

 **** Variables and constants ****

  ****  Auto variables  ****

  ****  Scalars and arrays  ****
HexLoc.c.b A Datatyp(siz) R M Lvl/name                 HexLoc.c.b A Datatyp(siz) R M Lvl/name

     4-0-0/w STRC(128)   r     1 QI@OTTER_SPACE

  ****  SYMREF variables  ****

  ****  Scalars and arrays  ****
HexLoc.c.b A Datatyp(siz) R M Lvl/name                 HexLoc.c.b A Datatyp(siz) R M Lvl/name

     0-0-0/d STRC(2576)  r     1 QI_1                       0-0-0/d STRC(32)    r     1 QI_16_BIT_BINARY
     0-0-0/d UBIN(16)    r     1 QI_16_BIT_BINARY_A(0:1)
     0-0-0/d STRC(32)    r     1 QI_31_DIGIT_SLS_DISPLAY
     0-0-0/d UBIN(16)    r     1 QI_31_DIGIT_SLS_DISPLAY_A(0:1)

  ****  BASED and DCB variables  ****

  ****  Scalars and arrays  ****
HexLoc.c.b A Datatyp(siz) R M Lvl/name                 HexLoc.c.b A Datatyp(siz) R M Lvl/name

     0-0-0/w STRC(48)    r     1 QI$DAD                     0-0-0/w STRC(64)    r     1 QI$OP_CNVBBX
     0-0-0/w STRC(64)    r     1 QI$OP_CNVBN                0-0-0/w STRC(64)    r     1 QI$OP_CNVBNX
     0-0-0/w STRC(64)    r     1 QI$OP_CNVBPX               0-0-0/w STRC(64)    r     1 QI$OP_CNVNBT
     0-0-0/w STRC(64)    r     1 QI$OP_CNVPBT               0-0-0/w STRC(64)    r     1 QI$OP_CNVPN
     0-0-0/c ASTR(8)     r     1 QI$VARIABLE_IDENTIFIER


   Procedure QBC$CONVERSIONS requires 454 words for executable code.
   Procedure QBC$CONVERSIONS requires 12 words of local(AUTO) storage.

    No errors detected in file QBC$CONVERSIONS.:E05TSI    .
PL6.E3A0      #001=QBC$CONVERSIONS File=QBC$CONVERSIONS.:E05TSI                  WED 07/30/97 04:46 Page:38
          *** CROSS REFERENCE LISTING ***
**     DENOTES     IDENTIFIER DEFINITION
<<                 IDENTIFIER'S VALUE SET
>>                 IDENTIFIER'S VALUE USED
<>                 IDENTIFIER SET AND/OR USED
--                 IDENTIFIER REFERENCED
PL6.E3A0      #001=QBC$CONVERSIONS File=QBC$CONVERSIONS.:E05TSI                  WED 07/30/97 04:46 Page:39
          MINI XREF LISTING

OVERFLOW
     17355**LABEL   17180--CALLALT 17225--CALLALT 17233--CALLALT 17297--CALLALT 17347--CALLALT
QCC$CBD
     17076**DCL-ENT 17180--CALL    17225--CALL
QCC$CDB
     17077**DCL-ENT 17233--CALL    17292--CALL    17297--CALL
QCC$DMC
     17078**DCL-ENT 17347--CALL
QCE$ERROR
     17079**DCL-ENT 17355--CALL
QCS$SETUP_SOURCE
     17080**DCL-ENT 17106--CALL    17146--CALL    17173--CALL    17211--CALL    17286--CALL    17330--CALL
QCS$SETUP_TARGET
     17081**DCL-ENT 17107--CALL    17147--CALL    17174--CALL    17231--CALL    17287--CALL    17331--CALL
QGB_PARAM.DVE.DVBYTE.VFC
     11530**DCL     11531--REDEF
QGB_PARAM.DVE.EOMCHAR
     11542**DCL     11543--REDEF
QGB_PARAM.MSG$
     11524**DCL     11525--REDEF
QGB_PARAM.UHDR$
     11549**DCL     11550--REDEF
QI$ACTIVATION_STATUS
      9288**DCL      9294--REDEF
QI$CIP
      8129**DCL      8199--REDEF
QI$CIP.CA
      8134**DCL      8138--REDEF    8141--REDEF    8144--REDEF
QI$COBOL_DAD.PSEUDO_CIP
      8373**DCL      8398--REDEF
QI$COBOL_DAD.PSEUDO_CIP.ALPHANUMERIC
      8375**DCL      8380--REDEF
PL6.E3A0      #001=QBC$CONVERSIONS File=QBC$CONVERSIONS.:E05TSI                  WED 07/30/97 04:46 Page:40
QI$COBOL_DAD.PSEUDO_CIP.NUMERIC.CB
      8381**DCL      8384--REDEF    8387--REDEF
QI$COBOL_DAD.VARIABLE_LENGTH_ITEMS
      8409**DCL      8425--REDEF    8433--REDEF    8441--REDEF
QI$COBOL_DAD.VARIABLE_LENGTH_ITEMS.LEVEL_MULTIPLIERS
      8410**DCL      8420--REDEF    8423--REDEF
QI$COBOL_DAD.WORD0
      8337**DCL      8338--REDEF    8352--REDEF
QI$COBOL_DAD_P_BITS.P
      8477**DCL      8483--REDEF
QI$CONDITION_CONTROL_BLOCK.LIST_A@P
      7963**DCL      7964--REDEF
QI$CONDITION_CONTROL_BLOCK.WORD0_FLAGS
      7959**DCL      7962--REDEF
QI$CONDITION_LEGAL_BLOCK.ARRAY@P
      7996**DCL      7997--REDEF    7998--REDEF
QI$DAD.PSEUDO_CIP
      8276**DCL      8301--REDEF
QI$DAD.PSEUDO_CIP.ALPHANUMERIC
      8278**DCL      8283--REDEF
QI$DAD.PSEUDO_CIP.NUMERIC.CB
      8284**DCL      8287--REDEF    8290--REDEF
QI$DAD.PSEUDO_CIP.NUMERIC.DEC
      8295**DCL     17120<<ASSIGN  17304<<ASSIGN  17343<<ASSIGN
QI$DAD.PSEUDO_CIP_A
      8301**DCL     17119<<ASSIGN  17303<<ASSIGN  17342<<ASSIGN
QI$DAD.WORD0
      8245**DCL      8246--REDEF   17118<<ASSIGN  17302<<ASSIGN  17341<<ASSIGN
QI$ERROR_MESSAGE_LINE
     11637**DCL     11639--REDEF
QI$ERROR_STATUS
     11634**DCL     11636--REDEF
QI$FIELD_DAD.ELEMENTARY_ITEM.P
      8691**DCL      8698--REDEF
QI$FIELD_DAD.ONE_DIMENSIONAL_ITEM.P
      8711**DCL      8718--REDEF
PL6.E3A0      #001=QBC$CONVERSIONS File=QBC$CONVERSIONS.:E05TSI                  WED 07/30/97 04:46 Page:41
QI$FIELD_DAD.PSEUDO_CIP
      8618**DCL      8643--REDEF
QI$FIELD_DAD.PSEUDO_CIP.ALPHANUMERIC
      8620**DCL      8625--REDEF
QI$FIELD_DAD.PSEUDO_CIP.NUMERIC.CB
      8626**DCL      8629--REDEF    8632--REDEF
QI$FIELD_DAD.TWO_DIMENSIONAL_ITEM.P
      8731**DCL      8738--REDEF
QI$FIELD_DAD.VARIABLE_LENGTH_ITEMS
      8674**DCL      8690--REDEF    8708--REDEF    8726--REDEF
QI$FIELD_DAD.VARIABLE_LENGTH_ITEMS.LEVEL_MULTIPLIERS
      8675**DCL      8685--REDEF    8688--REDEF
QI$FIELD_DAD.WORD0
      8570**DCL      8571--REDEF
QI$FIELD_DAD.WORD0_FLAGS.IO_FLAGS
      8574**DCL      8579--REDEF
QI$FIELD_DAD_P.P
      8772**DCL      8779--REDEF
QI$FIELD_STATUS.INDICATORS
      9438**DCL      9470--REDEF
QI$FIELD_STATUS.INDICATORS.ENABLED_FLAGS
      9442**DCL      9447--REDEF
QI$FIELD_STATUS.INDICATORS.OPEN_FLAGS
      9454**DCL      9461--REDEF
QI$FIELD_STATUS.INDICATORS.STATE_FLAGS
      9448**DCL      9453--REDEF
QI$FILE.WORD0
      8894**DCL      8895--REDEF
QI$FILE_STATUS.INDICATORS
      9731**DCL      9763--REDEF
QI$FILE_STATUS.INDICATORS.ENABLED_FLAGS
      9735**DCL      9740--REDEF
QI$FILE_STATUS.INDICATORS.OPEN_FLAGS
      9747**DCL      9754--REDEF
QI$FILE_STATUS.INDICATORS.STATE_FLAGS
      9741**DCL      9746--REDEF
PL6.E3A0      #001=QBC$CONVERSIONS File=QBC$CONVERSIONS.:E05TSI                  WED 07/30/97 04:46 Page:42
QI$FORM_FILE.USE_PROCEDURE
      8994**DCL      9001--REDEF
QI$FORM_FILE.WORD0
      8948**DCL      8949--REDEF
QI$FORM_STATUS.INDICATORS
      9852**DCL      9884--REDEF
QI$FORM_STATUS.INDICATORS.ENABLED_FLAGS
      9856**DCL      9861--REDEF
QI$FORM_STATUS.INDICATORS.OPEN_FLAGS
      9868**DCL      9875--REDEF
QI$FORM_STATUS.INDICATORS.STATE_FLAGS
      9862**DCL      9867--REDEF
QI$FRAME.WORD0
      9109**DCL      9110--REDEF
QI$FRAME_STATUS.INDICATORS
     10081**DCL     10113--REDEF
QI$FRAME_STATUS.INDICATORS.ENABLED_FLAGS
     10085**DCL     10090--REDEF
QI$FRAME_STATUS.INDICATORS.OPEN_FLAGS
     10097**DCL     10104--REDEF
QI$FRAME_STATUS.INDICATORS.STATE_FLAGS
     10091**DCL     10096--REDEF
QI$GZ_FIELD.DESCRIPTION.IO_FLAGS
     16963**DCL     16968--REDEF
QI$IDENTIFIER
     11640**DCL     11642--REDEF
QI$INDICATORS
      9352**DCL      9382--REDEF
QI$INDICATORS.ENABLED_FLAGS
      9358**DCL      9363--REDEF
QI$INDICATORS.OPEN_FLAGS
      9370**DCL      9377--REDEF
QI$INDICATORS.STATE_FLAGS
      9364**DCL      9369--REDEF
QI$MAJOR_NODE.WORD0
      8808**DCL      8809--REDEF
PL6.E3A0      #001=QBC$CONVERSIONS File=QBC$CONVERSIONS.:E05TSI                  WED 07/30/97 04:46 Page:43
QI$MAJOR_STATUS.INDICATORS
      9531**DCL      9563--REDEF
QI$MAJOR_STATUS.INDICATORS.ENABLED_FLAGS
      9535**DCL      9540--REDEF
QI$MAJOR_STATUS.INDICATORS.OPEN_FLAGS
      9547**DCL      9554--REDEF
QI$MAJOR_STATUS.INDICATORS.STATE_FLAGS
      9541**DCL      9546--REDEF
QI$MESSAGE_TYPE
     11631**DCL     11633--REDEF
QI$MINOR_NODE.WORD0
      8851**DCL      8852--REDEF
QI$MINOR_STATUS.INDICATORS
      9624**DCL      9656--REDEF
QI$MINOR_STATUS.INDICATORS.ENABLED_FLAGS
      9628**DCL      9633--REDEF
QI$MINOR_STATUS.INDICATORS.OPEN_FLAGS
      9640**DCL      9647--REDEF
QI$MINOR_STATUS.INDICATORS.STATE_FLAGS
      9634**DCL      9639--REDEF
QI$OP_ACCEPT.DATANAME@P
      6039**DCL      6040--REDEF
QI$OP_CALL.EPTR$
      6211**DCL      6212--REDEF
QI$OP_CLEAR.IO_FLAGS
      6244**DCL      6247--REDEF
QI$OP_CNVBBX.NEXT_CODE@P
      6308**DCL     17209--ASSIGN
QI$OP_CNVBN.NEXT_CODE@P
      6337**DCL     17104--ASSIGN
QI$OP_CNVBNX.NEXT_CODE@P
      6366**DCL     17144--ASSIGN
QI$OP_CNVBPX.NEXT_CODE@P
      6395**DCL     17171--ASSIGN
QI$OP_CNVNBT.NEXT_CODE@P
      6424**DCL     17258--ASSIGN
PL6.E3A0      #001=QBC$CONVERSIONS File=QBC$CONVERSIONS.:E05TSI                  WED 07/30/97 04:46 Page:44
QI$OP_CNVPBT.NEXT_CODE@P
      6453**DCL     17282--ASSIGN
QI$OP_CNVPN.NEXT_CODE@P
      6482**DCL     17328--ASSIGN
QI$OP_DISPLAY.FIELD_A@P
      6511**DCL      6512--REDEF
QI$OP_ENABLE.IO_FLAGS
      6598**DCL      6601--REDEF
QI$OP_IFCLS.ATTRIBUTE.TYPE
      6691**DCL      6696--REDEF
QI$OP_INSPECT.TALLYING_FOR_ITEM@P
      6925**DCL      6926--REDEF
QI$OP_INSPECT.TALLYING_INITIAL_ITEM@P
      6927**DCL      6928--REDEF
QI$OP_INSPECT.TALLYING_ITEM@P
      6923**DCL      6924--REDEF
QI$OP_OPEN.IO_FLAGS
      7485**DCL      7488--REDEF
QI$OP_PERFM.BINARY_ITERATION_COUNT@P
      7523**DCL      7524--REDEF
QI$PSEUDO_CIP
      8024**DCL      8048--REDEF
QI$PSEUDO_CIP.ALPHANUMERIC
      8028**DCL      8033--REDEF
QI$PSEUDO_CIP.NUMERIC.CB
      8034**DCL      8037--REDEF    8040--REDEF
QI$TERMINAL_ATTRIBUTES
      9245**DCL      9258--REDEF
QI$TRAN_FILE.WORD0
      9030**DCL      9031--REDEF
QI$TRAN_STATUS.INDICATORS
      9965**DCL      9997--REDEF
QI$TRAN_STATUS.INDICATORS.ENABLED_FLAGS
      9969**DCL      9974--REDEF
QI$TRAN_STATUS.INDICATORS.OPEN_FLAGS
      9981**DCL      9988--REDEF
PL6.E3A0      #001=QBC$CONVERSIONS File=QBC$CONVERSIONS.:E05TSI                  WED 07/30/97 04:46 Page:45
QI$TRAN_STATUS.INDICATORS.STATE_FLAGS
      9975**DCL      9980--REDEF
QI$VARIABLE_IDENTIFIER.LENGTH
     11644**DCL     11645--IMP-SIZ
QI@OTTER_SPACE
     17062**DCL     17064--REDEF   17065--REDEF   17215--ASSIGN
QI_1.BASE
     10173**DCL     10180--REDEF
QI_1.CURRENT.FILE$
     11064**DCL     11066--REDEF   11068--REDEF
QI_1.CURRENT.FILE_STATUS$
     11070**DCL     11072--REDEF   11074--REDEF
QI_1.DAD
     10868**DCL     10873--REDEF
QI_1.DAD.T$
     10871**DCL     17118>>ASSIGN  17119>>ASSIGN  17120>>ASSIGN  17302>>ASSIGN  17303>>ASSIGN  17304>>ASSIGN
     17341>>ASSIGN  17342>>ASSIGN  17343>>ASSIGN
QI_1.FILE_HEAD
     11051**DCL     11058--REDEF
QI_1.INSTR$
     10181**DCL     17104<<ASSIGN  17104>>ASSIGN  17144<<ASSIGN  17144>>ASSIGN  17171<<ASSIGN  17171>>ASSIGN
     17209<<ASSIGN  17209>>ASSIGN  17258<<ASSIGN  17258>>ASSIGN  17282<<ASSIGN  17282>>ASSIGN  17328<<ASSIGN
     17328>>ASSIGN
QI_1.IS_ALL_LIT
     10874**DCL     10879--REDEF
QI_1.IS_FORM_VARIABLE
     10880**DCL     10885--REDEF
QI_1.IS_TEMP
     10886**DCL     10891--REDEF
QI_1.MESSAGE_LINE_DAD.PSEUDO_CIP
     10984**DCL     11009--REDEF
QI_1.MESSAGE_LINE_DAD.PSEUDO_CIP.ALPHANUMERIC
     10986**DCL     10991--REDEF
QI_1.MESSAGE_LINE_DAD.PSEUDO_CIP.NUMERIC.CB
     10992**DCL     10995--REDEF   10998--REDEF
QI_1.MESSAGE_LINE_DAD.WORD0
PL6.E3A0      #001=QBC$CONVERSIONS File=QBC$CONVERSIONS.:E05TSI                  WED 07/30/97 04:46 Page:46
     10953**DCL     10954--REDEF
QI_1.OFFSET
     10892**DCL     10897--REDEF
QI_1.OP
     10251**DCL     17180<>CALL    17225<>CALL    17233<>CALL    17292<>CALL    17297<>CALL    17347<>CALL
QI_1.OP.CIP
     10253**DCL     10704--REDEF
QI_1.OP.CIP.AUX
     10619**DCL     10690--REDEF
QI_1.OP.CIP.AUX.CD
     10664**DCL     10667--REDEF   10671--REDEF   10674--REDEF
QI_1.OP.CIP.S
     10323**DCL     10394--REDEF
QI_1.OP.CIP.S.CD
     10368**DCL     10371--REDEF   10375--REDEF   10378--REDEF
QI_1.OP.CIP.S.CP.SIGN
     10380**DCL     17335>>IF
QI_1.OP.CIP.S_A
     10394**DCL     17228<<ASSIGN
QI_1.OP.CIP.T
     10471**DCL     10542--REDEF
QI_1.OP.CIP.T.CD
     10516**DCL     10519--REDEF   10523--REDEF   10526--REDEF
QI_1.OP.CIP.T.CD.SIGN
     10518**DCL     17115<<ASSIGN  17214<<ASSIGN  17337<<ASSIGN  17339<<ASSIGN
QI_1.OP.CIP.T.LEN
     10530**DCL     17111<<ASSIGN  17113<<ASSIGN  17219<<ASSIGN  17221<<ASSIGN  17295<<ASSIGN  17333<<ASSIGN
QI_1.OP.CIP.T_A
     10542**DCL     17119>>ASSIGN  17213<<ASSIGN  17228>>ASSIGN  17289<<ASSIGN  17303>>ASSIGN  17342>>ASSIGN
QI_1.OP.DATA
     10711**DCL     10715--REDEF
QI_1.OP.DATA.S$
     10712**DCL     17229<<ASSIGN
QI_1.OP.DATA.T$
     10713**DCL     17215<<ASSIGN  17229>>ASSIGN
QI_1.OP.DEC.S
PL6.E3A0      #001=QBC$CONVERSIONS File=QBC$CONVERSIONS.:E05TSI                  WED 07/30/97 04:46 Page:47
     10774**DCL     17343>>ASSIGN
QI_1.OP.DEC.T
     10775**DCL     17116<<ASSIGN
QI_1.OP.FILL_CHAR
     10835**DCL     10838--REDEF
QI_1.OP.INX
     10768**DCL     10772--REDEF   10773--REDEF   10777--REDEF
QI_1.OP.LEN
     10751**DCL     10755--REDEF   10756--REDEF   10760--REDEF   10761--REDEF   10765--REDEF
QI_1.OP.LEN.AUX
     10754**DCL     11655--IMP-SIZ
QI_1.OP.LEN.S
     10752**DCL     11651--IMP-SIZ 17109>>IF      17217>>IF      17333>>ASSIGN
QI_1.OP.LEN.T
     10753**DCL     11653--IMP-SIZ
QI_1.OP.PICTURE_STRING
     10821**DCL     10824--REDEF   10825--REDEF   10828--REDEF   10829--REDEF   10832--REDEF
QI_1.OP.ROUND
     10854**DCL     10855--REDEF   10856--REDEF
QI_1.OP.SIZE_ERROR
     10838**DCL     17178<<ASSIGN  17223<<ASSIGN  17290<<ASSIGN  17345<<ASSIGN
QI_1.OP.SRCH_VRFY_ELEMS
     10790**DCL     10793--REDEF
QI_1.OPENED_COUNT
     11059**DCL     11062--REDEF
QI_1.OTTER_SPACE
     10898**DCL     10903--REDEF
QI_1.PICTURE_STRING
     10904**DCL     10909--REDEF
QI_1.SPECIAL_NAMES
     11087**DCL     11096--REDEF
QI_1.TYPE
     10910**DCL     10915--REDEF
QI_16_BIT_BINARY
     16100**DCL     16170--REDEF
QI_16_BIT_BINARY.CB
PL6.E3A0      #001=QBC$CONVERSIONS File=QBC$CONVERSIONS.:E05TSI                  WED 07/30/97 04:46 Page:48
     16119**DCL     16122--REDEF   16126--REDEF   16129--REDEF
QI_16_BIT_BINARY_A
     16170**DCL     17289>>ASSIGN
QI_31_DIGIT_SLS_DISPLAY
     15933**DCL     16003--REDEF
QI_31_DIGIT_SLS_DISPLAY.CD
     15980**DCL     15983--REDEF   15987--REDEF   15990--REDEF
QI_31_DIGIT_SLS_DISPLAY_A
     16003**DCL     17213>>ASSIGN
QI_31_DIGIT_ST_PACKED
     16435**DCL     16505--REDEF
QI_31_DIGIT_ST_PACKED.CP
     16468**DCL     16471--REDEF   16475--REDEF   16478--REDEF
QI_32_BIT_BINARY
     16267**DCL     16337--REDEF
QI_32_BIT_BINARY.CB
     16286**DCL     16289--REDEF   16293--REDEF   16296--REDEF
QI_4_CHAR_ALPHANUMERIC
     15765**DCL     15835--REDEF
QI_4_CHAR_ALPHANUMERIC.CA
     15770**DCL     15774--REDEF   15777--REDEF   15780--REDEF
QI_ACCUMULATOR_DAD.CIP
     16778**DCL     16849--REDEF
QI_ACCUMULATOR_DAD.CIP.CP
     16809**DCL     16812--REDEF   16816--REDEF   16819--REDEF
QI_ALR.CIP
     11730**DCL     12181--REDEF
QI_ALR.CIP.AUX
     12096**DCL     12167--REDEF
QI_ALR.CIP.AUX.CA
     12099**DCL     12103--REDEF   12106--REDEF   12109--REDEF
QI_ALR.CIP.S
     11800**DCL     11871--REDEF
QI_ALR.CIP.S.CA
     11803**DCL     11807--REDEF   11810--REDEF   11813--REDEF
QI_ALR.CIP.T
PL6.E3A0      #001=QBC$CONVERSIONS File=QBC$CONVERSIONS.:E05TSI                  WED 07/30/97 04:46 Page:49
     11948**DCL     12019--REDEF
QI_ALR.CIP.T.CA
     11951**DCL     11955--REDEF   11958--REDEF   11961--REDEF
QI_ALR.DATA
     12188**DCL     12192--REDEF
QI_ALR.FILL_CHAR
     12312**DCL     12315--REDEF
QI_ALR.INX
     12245**DCL     12249--REDEF   12250--REDEF   12254--REDEF
QI_ALR.LEN
     12228**DCL     12232--REDEF   12233--REDEF   12237--REDEF   12238--REDEF   12242--REDEF
QI_ALR.PICTURE_STRING
     12298**DCL     12301--REDEF   12302--REDEF   12305--REDEF   12306--REDEF   12309--REDEF
QI_ALR.ROUND
     12331**DCL     12332--REDEF   12333--REDEF
QI_ALR.SRCH_VRFY_ELEMS
     12267**DCL     12270--REDEF
QI_MAT.CIP
     15069**DCL     15520--REDEF
QI_MAT.CIP.AUX
     15435**DCL     15506--REDEF
QI_MAT.CIP.AUX.CA
     15438**DCL     15442--REDEF   15445--REDEF   15448--REDEF
QI_MAT.CIP.S
     15139**DCL     15210--REDEF
QI_MAT.CIP.S.CA
     15142**DCL     15146--REDEF   15149--REDEF   15152--REDEF
QI_MAT.CIP.T
     15287**DCL     15358--REDEF
QI_MAT.CIP.T.CA
     15290**DCL     15294--REDEF   15297--REDEF   15300--REDEF
QI_MAT.DATA
     15527**DCL     15531--REDEF
QI_MAT.DEC
     15595**DCL     15599--REDEF   15600--REDEF   15604--REDEF
QI_MAT.FILL_CHAR
PL6.E3A0      #001=QBC$CONVERSIONS File=QBC$CONVERSIONS.:E05TSI                  WED 07/30/97 04:46 Page:50
     15651**DCL     15654--REDEF
QI_MAT.LEN
     15567**DCL     15571--REDEF   15572--REDEF   15576--REDEF   15577--REDEF   15581--REDEF
QI_MAT.PICTURE_STRING
     15637**DCL     15640--REDEF   15641--REDEF   15644--REDEF   15645--REDEF   15648--REDEF
QI_MAT.ROUND
     15670**DCL     15671--REDEF   15672--REDEF
QI_MAT.SRCH_VRFY_ELEMS
     15606**DCL     15609--REDEF
QI_PICTURE_STRING
     16603**DCL     16673--REDEF
QI_PICTURE_STRING.CA
     16608**DCL     16612--REDEF   16615--REDEF   16618--REDEF
QI_SRCH_VRFY.CIP
     14400**DCL     14851--REDEF
QI_SRCH_VRFY.CIP.AUX
     14766**DCL     14837--REDEF
QI_SRCH_VRFY.CIP.AUX.CA
     14769**DCL     14773--REDEF   14776--REDEF   14779--REDEF
QI_SRCH_VRFY.CIP.S
     14470**DCL     14541--REDEF
QI_SRCH_VRFY.CIP.S.CA
     14473**DCL     14477--REDEF   14480--REDEF   14483--REDEF
QI_SRCH_VRFY.CIP.T
     14618**DCL     14689--REDEF
QI_SRCH_VRFY.CIP.T.CA
     14621**DCL     14625--REDEF   14628--REDEF   14631--REDEF
QI_SRCH_VRFY.DATA
     14858**DCL     14862--REDEF
QI_SRCH_VRFY.DEC
     14926**DCL     14930--REDEF   14931--REDEF   14935--REDEF
QI_SRCH_VRFY.FILL_CHAR
     14982**DCL     14985--REDEF
QI_SRCH_VRFY.ROUND
     15001**DCL     15002--REDEF   15003--REDEF
QI_SRCH_VRFY.SRCH_RESULT
PL6.E3A0      #001=QBC$CONVERSIONS File=QBC$CONVERSIONS.:E05TSI                  WED 07/30/97 04:46 Page:51
     14942**DCL     14945--REDEF   14946--REDEF   14949--REDEF   14950--REDEF   14953--REDEF
QI_SRCH_VRFY.SRCH_VRFY_ARGS
     14866**DCL     14870--REDEF   14871--REDEF   14875--REDEF   14876--REDEF   14880--REDEF
QI_SRCH_VRFY.SRCH_VRFY_ELEMS
     14937**DCL     14940--REDEF
QI_TYPE_BINARY_TARGET.CIP
     13727**DCL     14178--REDEF
QI_TYPE_BINARY_TARGET.CIP.AUX
     14093**DCL     14164--REDEF
QI_TYPE_BINARY_TARGET.CIP.AUX.CA
     14096**DCL     14100--REDEF   14103--REDEF   14106--REDEF
QI_TYPE_BINARY_TARGET.CIP.S
     13797**DCL     13868--REDEF
QI_TYPE_BINARY_TARGET.CIP.S.CA
     13800**DCL     13804--REDEF   13807--REDEF   13810--REDEF
QI_TYPE_BINARY_TARGET.CIP.T
     13945**DCL     14016--REDEF
QI_TYPE_BINARY_TARGET.CIP.T.CB
     13962**DCL     13965--REDEF   13969--REDEF   13972--REDEF
QI_TYPE_BINARY_TARGET.DATA
     14185**DCL     14189--REDEF
QI_TYPE_BINARY_TARGET.DEC
     14253**DCL     14257--REDEF   14258--REDEF   14262--REDEF
QI_TYPE_BINARY_TARGET.LEN
     14225**DCL     14229--REDEF   14230--REDEF   14234--REDEF   14235--REDEF   14239--REDEF
QI_TYPE_BINARY_TARGET.PICTURE_STRING
     14295**DCL     14298--REDEF   14299--REDEF   14302--REDEF   14303--REDEF   14306--REDEF
QI_TYPE_BINARY_TARGET.ROUND
     14328**DCL     14329--REDEF   14330--REDEF
QI_TYPE_BINARY_TARGET.SIZE_ERROR
     14314**DCL     14315--REDEF
QI_TYPE_BINARY_TARGET.SRCH_VRFY_ELEMS
     14264**DCL     14267--REDEF
QI_TYPE_DISPLAY_SOURCE.CIP
     12395**DCL     12846--REDEF
QI_TYPE_DISPLAY_SOURCE.CIP.AUX
PL6.E3A0      #001=QBC$CONVERSIONS File=QBC$CONVERSIONS.:E05TSI                  WED 07/30/97 04:46 Page:52
     12761**DCL     12832--REDEF
QI_TYPE_DISPLAY_SOURCE.CIP.AUX.CA
     12764**DCL     12768--REDEF   12771--REDEF   12774--REDEF
QI_TYPE_DISPLAY_SOURCE.CIP.S
     12465**DCL     12536--REDEF
QI_TYPE_DISPLAY_SOURCE.CIP.S.CD
     12510**DCL     12513--REDEF   12517--REDEF   12520--REDEF
QI_TYPE_DISPLAY_SOURCE.CIP.T
     12613**DCL     12684--REDEF
QI_TYPE_DISPLAY_SOURCE.CIP.T.CA
     12616**DCL     12620--REDEF   12623--REDEF   12626--REDEF
QI_TYPE_DISPLAY_SOURCE.DATA
     12853**DCL     12857--REDEF
QI_TYPE_DISPLAY_SOURCE.DEC
     12921**DCL     12925--REDEF   12926--REDEF   12930--REDEF
QI_TYPE_DISPLAY_SOURCE.LEN
     12893**DCL     12897--REDEF   12898--REDEF   12902--REDEF   12903--REDEF   12907--REDEF
QI_TYPE_DISPLAY_SOURCE.PICTURE_STRING
     12963**DCL     12966--REDEF   12967--REDEF   12970--REDEF   12971--REDEF   12974--REDEF
QI_TYPE_DISPLAY_SOURCE.ROUND
     12996**DCL     12997--REDEF   12998--REDEF
QI_TYPE_DISPLAY_SOURCE.SIZE_ERROR
     12982**DCL     12983--REDEF
QI_TYPE_DISPLAY_SOURCE.SRCH_VRFY_ELEMS
     12932**DCL     12935--REDEF
QI_TYPE_DISPLAY_TARGET.CIP
     13061**DCL     13512--REDEF
QI_TYPE_DISPLAY_TARGET.CIP.AUX
     13427**DCL     13498--REDEF
QI_TYPE_DISPLAY_TARGET.CIP.AUX.CA
     13430**DCL     13434--REDEF   13437--REDEF   13440--REDEF
QI_TYPE_DISPLAY_TARGET.CIP.S
     13131**DCL     13202--REDEF
QI_TYPE_DISPLAY_TARGET.CIP.S.CA
     13134**DCL     13138--REDEF   13141--REDEF   13144--REDEF
QI_TYPE_DISPLAY_TARGET.CIP.T
PL6.E3A0      #001=QBC$CONVERSIONS File=QBC$CONVERSIONS.:E05TSI                  WED 07/30/97 04:46 Page:53
     13279**DCL     13350--REDEF
QI_TYPE_DISPLAY_TARGET.CIP.T.CD
     13324**DCL     13327--REDEF   13331--REDEF   13334--REDEF
QI_TYPE_DISPLAY_TARGET.DATA
     13519**DCL     13523--REDEF
QI_TYPE_DISPLAY_TARGET.DEC
     13587**DCL     13591--REDEF   13592--REDEF   13596--REDEF
QI_TYPE_DISPLAY_TARGET.LEN
     13559**DCL     13563--REDEF   13564--REDEF   13568--REDEF   13569--REDEF   13573--REDEF
QI_TYPE_DISPLAY_TARGET.PICTURE_STRING
     13629**DCL     13632--REDEF   13633--REDEF   13636--REDEF   13637--REDEF   13640--REDEF
QI_TYPE_DISPLAY_TARGET.ROUND
     13662**DCL     13663--REDEF   13664--REDEF
QI_TYPE_DISPLAY_TARGET.SIZE_ERROR
     13648**DCL     13649--REDEF
QI_TYPE_DISPLAY_TARGET.SRCH_VRFY_ELEMS
     13598**DCL     13601--REDEF
SO_DO_THE_FROM_BINARY_ALREADY
     17178**LABEL   17122--GOTO    17149--GOTO
SO_DO_THE_TO_BINARY_ALREADY
     17286**LABEL   17260--GOTO
