VERSION E05

PL6.E3A0      #001=QBE$ENABLE File=QBE$ENABLE.:E05TSI                            WED 07/30/97 04:47 Page:1
        1        1        /*M* QBE$ENABLE:  ENABLE a field, frame or form.  */
        2        2        /*T***********************************************************/
        3        3        /*T*                                                         */
        4        4        /*T* Copyright (c) Bull HN Information Systems Inc., 1997    */
        5        5        /*T*                                                         */
        6        6        /*T***********************************************************/
        7        7        /*X* DMC,PLM=4,IND=0,DCI=4,CSI=2,IAD=2,DTI=2,AND,ECI=0,DIN=2,STI=2 */
        8        8
        9        9        /*P*  NAME:         QBE$ENABLE
       10       10              PURPOSE:      ENABLE a field, frame, or form.
       11       11              DESCRIPTION:  Execute an ENABLE or DISABLE op-code, whose
       12       12                            argument may be a form, a frame, a list of frames,
       13       13                            a field, or a list of fields, together with the
       14       14                            IO-type which the argument is to be ENABLEd or
       15       15                            DISABLEd for.
       16       16        */
       17       17
       18       18        QBE$ENABLE: PROC;
       19       19
       20       20        /*D*  NAME:         QBE$ENABLE
       21       21              CALL:         CALL QBE$ENABLE
       22       22              PARAMETERS:   None.
       23       23              INTERFACE:    Called by QAT$TALLYHO when a ENABLE
       24       24                            op-code is encountered.
       25       25              ENVIRONMENT:  Nothing unusual.
       26       26              INPUT:        QI_1,
       27       27                            FPL rununit static data following the op-code.
       28       28              OUTPUT:       Turns on the QI$GZ_FIELD.INDICATORS$ ->
       29       29                                         QI$INDICATORS.ENABLED_FLAGS.
       30       30              SCRATCH:      Various otter data.
       31       31              DESCRIPTION:  Go after the ENABLED_FLAGS.
       32       32        */
       33       33
       34       34          %INCLUDE LCP_6;
       35      225
       36      226          %INCLUDE QG_MACRO_M;
       37      363          %INCLUDE QI_EQUATES_E;
PL6.E3A0      #001=QBE$ENABLE File=QBE$ENABLE.:E05TSI                            WED 07/30/97 04:47 Page:2
       38      722          %INCLUDE QI_PERR_C;
       39      890          %INCLUDE QI_MACROS_M;
       40     5948          %QI$ALL;
       41    17061
       42    17062    1     DCL FIELD_INDEX UBIN;
       43    17063    1     DCL FIELD_START_INDEX UBIN;
       44    17064    1     DCL FIELD_STOP_INDEX UBIN;
       45    17065    1     DCL FRAME$ PTR;
       46    17066    1     DCL FRAME_INDEX UBIN;
       47    17067    1     DCL FRAME_STATUS$ PTR;
       48    17068    1     DCL GZ_FIELD$ PTR;
       49    17069    1     DCL INSTR$ PTR;
       50    17070    1     DCL NEW_STATUS BIT(1) ALIGNED;
       51    17071    1     DCL OPERAND_COUNT UBIN;
       52    17072    1     DCL OPERAND_INDEX UBIN;
       53    17073
       54    17074    1     DCL QCE$ERROR_INTERNAL ENTRY (4);
       55    17075    1     DCL QCF$FIND_CURRENTS ENTRY;
       56    17076    1     DCL QCU$USE_IO ENTRY (1);
       57    17077
       58    17078          %SET LISTMAC = '1'B;
       59    17079
       60    17080          %INCLUDE QCU_USE_M;
       61    17134          %QCU@USE;
             17135            %BEGIN_MACRO;
             17136            %SET LISTDIR = '0'B;
             17149    1     DCL 1 QCU@USE AUTO ALIGNED,
             17150    1           2 CURR_FRAME$ PTR,
             17151                          /* Pointer to DAD of current frame or ADDR (NIL).  */
             17152    1           2 CURR_NODE$ PTR,
             17153                          /* Pointer to current node or ADDR (NIL).  */
             17154    1           2 USE_DEFAULT_IO UBIN,
             17155                          /* For USE procedures which default applies
             17156                             (see corresponding EQUs).  */
             17157    1           2 IS_TIME_TO_SAVE_AWAY_FIELDS BIT(1) ALIGNED,
             17158                          /* If IS_TIME_TO_SAVE_AWAY_FIELDS, then
             17159                             save the fields within the bounds of
PL6.E3A0      #001=QBE$ENABLE File=QBE$ENABLE.:E05TSI                            WED 07/30/97 04:47 Page:3
             17160                             FRAME_START_INDEX, FRAME_STOP_INDEX,
             17161                             FIELD_START_INDEX, and FIELD_STOP_INDEX
             17162                             before calling the USE procedure.  */
             17163    1           2 FRAME_START_INDEX UBIN,
             17164                          /* Foist frame of the CURRENT.FORM$
             17165                             involved with the I-O error.  */
             17166    1           2 FRAME_STOP_INDEX UBIN,
             17167                          /* Larst frame of the CURRENT.FORM$
             17168                             involved with the I-O error.  */
             17169    1           2 IS_FIELD_INDEXES_VALID BIT(1) ALIGNED,
             17170                          /* If IS_FIELD_INDEXES_VALID, use them;
             17171                             else use all the fields in the frame.  */
             17172    1           2 FIELD_START_INDEX UBIN,
             17173                          /* Starting index into QI$GZ_FIELD
             17174                             which may have values "pushed".  */
             17175    1           2 FIELD_STOP_INDEX UBIN,
             17176                          /* Stopping index into QI$GZ_FIELD
             17177                             which may have values "pushed".  */
             17178    1           2 IS_CURSOR_POSITION_VALID BIT(1) ALIGNED,
             17179                          /* If IS_CURSOR_POSITION_VALID, use it;
             17180                             else allow cursor to default to upper-left-most field.  */
             17181    1           2 CURSOR_POSITION BIT(16) ALIGNED,
             17182                          /* POSition of the field on which to place the cursor.  */
             17183    1           2 STATUS UBIN;
             17184                          /* Returned action code; see corresponding EQUs.  */
             17191            %ENDIF;
       62    17194
       63    17195          %SET LISTMAC = '0'B;
       64    17196        %EJECT;
PL6.E3A0      #001=QBE$ENABLE File=QBE$ENABLE.:E05TSI                            WED 07/30/97 04:47 Page:4
       65    17197    1       NEW_STATUS = %YES;
       66    17198
       67    17199    1       GOTO SO_ENABLE_IT_ALREADY;
       68    17200
       69    17201    1   QBE$DISABLE: ENTRY;
       70    17202
       71    17203        /*D*  NAME:         QBE$DISABLE
       72    17204              CALL:         CALL QBE$DISABLE
       73    17205              PARAMETERS:   None.
       74    17206              INTERFACE:    Called by QAT$TALLYHO when a DISABLE
       75    17207                            op-code is encountered.
       76    17208              ENVIRONMENT:  Nothing unusual.
       77    17209              INPUT:        QI_1,
       78    17210                            FPL rununit static data following the op-code.
       79    17211              OUTPUT:       Turns off the QI$GZ_FIELD.INDICATORS$ ->
       80    17212                                          QI$INDICATORS.ENABLED_FLAGS.
       81    17213              SCRATCH:      Various otter data.
       82    17214              DESCRIPTION:  Go after the ENABLED_FLAGS.
       83    17215        */
       84    17216
       85    17217    1       NEW_STATUS = %NO;
       86    17218
       87    17219    1   SO_ENABLE_IT_ALREADY:
       88    17220    1       INSTR$ = QI_1.INSTR$;
       89    17221    1       OPERAND_COUNT = INSTR$ -> QI$OP_ENABLE.OPERAND_COUNT;
       90    17222    1       QI_1.INSTR$ = PINCRW ( INSTR$, OPERAND_COUNT + 2 );
       91    17223
       92    17224    1   EN_DIS_ABLE_FORM_FRAME_FIELD:
       93    17225    2       DO OPERAND_INDEX = 0 TO OPERAND_COUNT - 1;
       94    17226
       95    17227    2   RETRY_CURRENT_FORM_FRAME_FIELD:
       96    17228              %PROC_ADDRESS ( THING@P =
             17228                  "INSTR$ -> QI$OP_ENABLE.OPERAND_A@P ( OPERAND_INDEX )",
       97    17229              CHECK_FOR_INDIRECTION = YES,
       98    17230              RESULT$ = "QI_1.CURRENT.NODE$" );
       99    17267
      100    17268    2         CALL QCF$FIND_CURRENTS;
PL6.E3A0      #001=QBE$ENABLE File=QBE$ENABLE.:E05TSI                            WED 07/30/97 04:47 Page:5
      101    17269
      102    17270    2         IF QI_1.CURRENT.NODE$ -> QI$FORM_FILE.WORD0_FLAGS.TYPE = %QI#TYPE_FORM
      103    17271    2         THEN
      104    17272    2   ENABLE_DISABLE_FORM:
      105    17273    3           DO;
      106    17274
      107    17275    3             IF NOT QI_1.CURRENT.FORM_STATUS$ -> QI$FORM_STATUS.INDICATORS.OPEN_FLAGS.
             17275                      IS_OUTPUT
      108    17276    3               AND NOT QI_1.CURRENT.FORM_STATUS$ -> QI$FORM_STATUS.INDICATORS.
             17276                        OPEN_FLAGS.IS_INPUT
      109    17277    3             THEN
      110    17278    4               DO;
      111    17279    4                 QI_1.ERROR_STATUS = %E$FILE_NOT_OPEN;
      112    17280    4                 GOTO CHECK_USE_PROCEDURE;
      113    17281    4               END;
      114    17282
      115    17283    3   CHECK_ALL_THE_FRAMES:
      116    17284    4             DO FRAME_INDEX = 0 TO QI_1.CURRENT.FORM$ -> QI$FORM_FILE.FRAME_COUNT - 1;
      117    17285
      118    17286                    %PROC_ADDRESS ( THING@P =
             17286                        "QI_1.CURRENT.FORM$ -> QI$FORM_FILE.FRAME_LIST_A@P ( FRAME_INDEX )",
      119    17287                    CHECK_FOR_INDIRECTION = NO,
      120    17288                    RESULT$ = "FRAME$" );
      121    17325
      122    17326                    %DATA_ADDRESS ( THING@D = "FRAME$ -> QI$FRAME.STATUS_AREA@D",
      123    17327                    CHECK_FOR_INDIRECTION = NO,
      124    17328                    RESULT$ = "FRAME_STATUS$" );
      125    17365
      126    17366    4               IF FRAME_STATUS$ -> QI$FRAME_STATUS.INDICATORS.IS_ACTIVE
      127    17367    4               THEN
      128    17368    4   ENABLE_DISABLE_THAT_FRAME:
      129    17369    5                 DO;
      130    17370    5                   FIELD_START_INDEX = FRAME_STATUS$ -> QI$FRAME_STATUS.GZ.
             17370                            FIELD_START_INDEX;
      131    17371    5                   FIELD_STOP_INDEX = FRAME_STATUS$ -> QI$FRAME_STATUS.GZ.
             17371                            FIELD_STOP_INDEX;
      132    17372    5                   GZ_FIELD$ = FRAME_STATUS$ -> QI$FRAME_STATUS.GZ.START$;
PL6.E3A0      #001=QBE$ENABLE File=QBE$ENABLE.:E05TSI                            WED 07/30/97 04:47 Page:6
      133    17373
      134    17374    5                   CALL ENABLE_DISABLE_SELECTED_FIELDS;
      135    17375    5                 END ENABLE_DISABLE_THAT_FRAME;
      136    17376
      137    17377    4             END CHECK_ALL_THE_FRAMES;
      138    17378
      139    17379    3           END ENABLE_DISABLE_FORM;
      140    17380    2         ELSE
      141    17381    2   ENABLE_DISABLE_FRAME_OR_LESS:
      142    17382    3           DO;
      143    17383    3             IF NOT QI_1.CURRENT.FRAME_STATUS$ -> QI$FRAME_STATUS.INDICATORS.IS_ACTIVE
      144    17384    3             THEN
      145    17385    4               DO;
      146    17386    4                 QI_1.ERROR_STATUS = %E$FRAME_NOT_ACTIVE;
      147    17387    4                 GOTO CHECK_USE_PROCEDURE;
      148    17388    4               END;
      149    17389
      150    17390    3             IF NOT QI_1.CURRENT.FORM_STATUS$ -> QI$FORM_STATUS.INDICATORS.OPEN_FLAGS.
             17390                      IS_OUTPUT
      151    17391    3               AND NOT QI_1.CURRENT.FORM_STATUS$ -> QI$FORM_STATUS.INDICATORS.
             17391                        OPEN_FLAGS.IS_INPUT
      152    17392    3             THEN
      153    17393    4               DO;
      154    17394    4                 QI_1.ERROR_STATUS = %E$FILE_NOT_OPEN;
      155    17395    4                 GOTO CHECK_USE_PROCEDURE;
      156    17396    4               END;
      157    17397
      158    17398    3             FIELD_START_INDEX = QI_1.CURRENT.NODE_STATUS$ -> QI$MAJOR_STATUS.GZ.
             17398                      FIELD_START_INDEX;
      159    17399    3             FIELD_STOP_INDEX = QI_1.CURRENT.NODE_STATUS$ -> QI$MAJOR_STATUS.GZ.
             17399                      FIELD_STOP_INDEX;
      160    17400    3             GZ_FIELD$ = PINCRW ( QI_1.CURRENT.FRAME_STATUS$ -> QI$FRAME_STATUS.GZ.
             17400                      START$,
      161    17401    3               FIELD_START_INDEX * SIZEW (QI$GZ_FIELD) );
      162    17402
      163    17403    3             CALL ENABLE_DISABLE_SELECTED_FIELDS;
      164    17404    3           END ENABLE_DISABLE_FRAME_OR_LESS;
PL6.E3A0      #001=QBE$ENABLE File=QBE$ENABLE.:E05TSI                            WED 07/30/97 04:47 Page:7
      165    17405
      166    17406    2   NEXT_FIELD_FRAME_FORM_PLEASE:
      167    17407
      168    17408    2       END EN_DIS_ABLE_FORM_FRAME_FIELD;
      169    17409
      170    17410    1       RETURN;
      171    17411
      172    17412        %EJECT;
PL6.E3A0      #001=QBE$ENABLE File=QBE$ENABLE.:E05TSI                            WED 07/30/97 04:47 Page:8
      173    17413    1   CHECK_USE_PROCEDURE:
      174    17414    1       QCU@USE.USE_DEFAULT_IO = %QI#USE_DEFAULT_NONE;
      175    17415    1       QCU@USE.IS_TIME_TO_SAVE_AWAY_FIELDS = %NO;
      176    17416    1       QCU@USE.CURR_FRAME$ = QI_1.CURRENT.FRAME$;
      177    17417    1       QCU@USE.CURR_NODE$ = QI_1.CURRENT.NODE$;
      178    17418
      179    17419    1       CALL QCU$USE_IO ( QCU@USE );
      180    17420
      181    17421    2       DO CASE ( QCU@USE.STATUS );
      182    17422
      183    17423    2         CASE ( %QI#USE_INVALID_RETURN );
      184    17424    2           RETURN;
      185    17425
      186    17426    2         CASE ( %QI#USE_INVALID_RETRY );
      187    17427    2           GOTO RETRY_CURRENT_FORM_FRAME_FIELD;
      188    17428
      189    17429    2         CASE ( %QI#USE_INVALID_SKIP_TO_NEXT );
      190    17430    2           GOTO NEXT_FIELD_FRAME_FORM_PLEASE;
      191    17431
      192    17432    2         CASE ( ELSE );
      193    17433    2           CALL QCE$ERROR_INTERNAL ( %E$INTERNAL_INTERPRETER_ERROR );
      194    17434
      195    17435    2       END;
      196    17436
      197    17437        %EJECT;
PL6.E3A0      #001=QBE$ENABLE File=QBE$ENABLE.:E05TSI                            WED 07/30/97 04:47 Page:9
      198    17438    1   ENABLE_DISABLE_SELECTED_FIELDS: PROC;
      199    17439
      200    17440    2   CHECK_SELECTED_FIELDS:
      201    17441    3       DO FIELD_INDEX = FIELD_START_INDEX TO FIELD_STOP_INDEX;
      202    17442
      203    17443    3         IF GZ_FIELD$ -> QI$GZ_FIELD.DESCRIPTION.IO_FLAGS.IS_OUTPUT
      204    17444    3           AND INSTR$ -> QI$OP_ENABLE.IO_FLAGS.IS_OUTPUT
      205    17445    3         THEN
      206    17446    3           GZ_FIELD$ -> QI$GZ_FIELD.INDICATORS$ -> QI$INDICATORS.ENABLED_FLAGS.
             17446                    IS_OUTPUT = NEW_STATUS;
      207    17447
      208    17448    3         IF GZ_FIELD$ -> QI$GZ_FIELD.DESCRIPTION.IO_FLAGS.IS_INPUT
      209    17449    3           AND INSTR$ -> QI$OP_ENABLE.IO_FLAGS.IS_INPUT
      210    17450    3         THEN
      211    17451    3           GZ_FIELD$ -> QI$GZ_FIELD.INDICATORS$ -> QI$INDICATORS.ENABLED_FLAGS.IS_INPUT
             17451                    = NEW_STATUS;
      212    17452
      213    17453    3         GZ_FIELD$ = PINCRW ( GZ_FIELD$, SIZEW (QI$GZ_FIELD) );
      214    17454
      215    17455    3       END CHECK_SELECTED_FIELDS;
      216    17456
      217    17457    2       RETURN;
      218    17458
      219    17459    2   END ENABLE_DISABLE_SELECTED_FIELDS;
      220    17460
      221    17461    1   END QBE$ENABLE;

PL6.E3A0      #001=QBE$ENABLE File=QBE$ENABLE.:E05TSI                            WED 07/30/97 04:47 Page:10
--  Include file information  --

   QCU_USE_M.:E05TOU  is referenced.
   QI_MACROS_M.:E05TOU  is referenced.
   QI_PERR_C.:E05TOU  is referenced.
   QI_EQUATES_E.:E05TOU  is referenced.
   QG_MACRO_M.:E05TOU  is referenced.
   LCP_6.:E05TOU  cannot be made into a system file and is referenced.
   G_LCP6_E.:E05TOU  was found in the system file and is referenced.
   GT_LCP6_M.:E05TOU  was found in the system file and is referenced.
   KI_CP6.:E05TOU  was found in the system file and is referenced.
   GF_LCP6_M.:E05TOU  was found in the system file and is referenced.
   GM_LCP6_M.:E05TOU  was found in the system file and is referenced.
   GU_LCP6_M.:E05TOU  was found in the system file and is referenced.
   GJ_LCP6_M.:E05TOU  was found in the system file and is referenced.
   GH_LCP6_M.:E05TOU  was found in the system file and is referenced.
      No diagnostics issued in procedure QBE$ENABLE.

   Procedure QBE$ENABLE requires 373 words for executable code.
   Procedure QBE$ENABLE requires 38 words of local(AUTO) storage.

    No errors detected in file QBE$ENABLE.:E05TSI    .

PL6.E3A0      #001=QBE$ENABLE File=QBE$ENABLE.:E05TSI                            WED 07/30/97 04:47 Page:11

 Object Unit name= QBE$ENABLE                                 File name= QBE$ENABLE.:E05TOU
 UTS= JUL 30 '97 04:47:22.92 WED                              Compiler= PL-6/E31         Sev=      00
 SharedLib= :SHARED_LCP6_SYSTEM                               Alt SharedLib=


    ****  Control sections  ****

 Sect   Type Bound  Init  Size HexSiz  Section name
    0   Proc  even  none   373    175  QBE$ENABLE
    1  RoData even  none     5      5  QBE$ENABLE

    ****  Entry defs  ****

                              Check   Calling
                             calling  sequence
  Sect HexLoc Primary Altret sequence   type   Parms  Name
     0      0   yes            yes      Std        0  QBE$ENABLE
     0      A                  yes      Std        0  QBE$DISABLE

  ****  Entry refs  ****

         Check        Calling
        calling       sequence
Altret sequence SRef   type   Args  Name
         yes           Std       0 QCF$FIND_CURRENTS
         yes           Std       1 QCU$USE_IO
         yes           Std       4 QCE$ERROR_INTERNAL
                       nStd      0 X6A_AUTO_0
                       nStd      0 X6D_MID
                       nStd      0 X6A_ARET
PL6.E3A0      #001=QBE$ENABLE File=QBE$ENABLE.:E05TSI                            WED 07/30/97 04:47 Page:12

  ****  Data refs  ****

  Flags:  r = read only, s = secondary
Flgs Name                             Flgs Name                             Flgs Name
     QI_1                                  QI_4_CHAR_ALPHANUMERIC                QI_31_DIGIT_SLS_DISPLAY
     QI_16_BIT_BINARY                      QI_32_BIT_BINARY                      QI_31_DIGIT_ST_PACKED
     QI_PICTURE_STRING                r    G$ROS$
PL6.E3A0      #001=QBE$ENABLE File=QBE$ENABLE.:E05TSI                            WED 07/30/97 04:47 Page:13


        1        1        /*M* QBE$ENABLE:  ENABLE a field, frame or form.  */
        2        2        /*T***********************************************************/
        3        3        /*T*                                                         */
        4        4        /*T* Copyright (c) Bull HN Information Systems Inc., 1997    */
        5        5        /*T*                                                         */
        6        6        /*T***********************************************************/
        7        7        /*X* DMC,PLM=4,IND=0,DCI=4,CSI=2,IAD=2,DTI=2,AND,ECI=0,DIN=2,STI=2 */
        8        8
        9        9        /*P*  NAME:         QBE$ENABLE
       10       10              PURPOSE:      ENABLE a field, frame, or form.
       11       11              DESCRIPTION:  Execute an ENABLE or DISABLE op-code, whose
       12       12                            argument may be a form, a frame, a list of frames,
       13       13                            a field, or a list of fields, together with the
       14       14                            IO-type which the argument is to be ENABLEd or
       15       15                            DISABLEd for.
       16       16        */
       17       17
       18       18        QBE$ENABLE: PROC;

     18   0 000000  D380 0000 0000  xent QBE$ENABLE      LNJ,B5   X6A_AUTO_0
          0 000003       0026 0000                       DC       38,0

       19       19
       20       20        /*D*  NAME:         QBE$ENABLE
       21       21              CALL:         CALL QBE$ENABLE
       22       22              PARAMETERS:   None.
       23       23              INTERFACE:    Called by QAT$TALLYHO when a ENABLE
       24       24                            op-code is encountered.
       25       25              ENVIRONMENT:  Nothing unusual.
       26       26              INPUT:        QI_1,
       27       27                            FPL rununit static data following the op-code.
       28       28              OUTPUT:       Turns on the QI$GZ_FIELD.INDICATORS$ ->
       29       29                                         QI$INDICATORS.ENABLED_FLAGS.
       30       30              SCRATCH:      Various otter data.
       31       31              DESCRIPTION:  Go after the ENABLED_FLAGS.
       32       32        */
PL6.E3A0      #001=QBE$ENABLE File=QBE$ENABLE.:E05TSI                            WED 07/30/97 04:47 Page:14
       33       33
       34       34          %INCLUDE LCP_6;
       35      225
       36      226          %INCLUDE QG_MACRO_M;
       37      363          %INCLUDE QI_EQUATES_E;
       38      722          %INCLUDE QI_PERR_C;
       39      890          %INCLUDE QI_MACROS_M;
       40     5948          %QI$ALL;
       41    17061
       42    17062    1     DCL FIELD_INDEX UBIN;
       43    17063    1     DCL FIELD_START_INDEX UBIN;
       44    17064    1     DCL FIELD_STOP_INDEX UBIN;
       45    17065    1     DCL FRAME$ PTR;
       46    17066    1     DCL FRAME_INDEX UBIN;
       47    17067    1     DCL FRAME_STATUS$ PTR;
       48    17068    1     DCL GZ_FIELD$ PTR;
       49    17069    1     DCL INSTR$ PTR;
       50    17070    1     DCL NEW_STATUS BIT(1) ALIGNED;
       51    17071    1     DCL OPERAND_COUNT UBIN;
       52    17072    1     DCL OPERAND_INDEX UBIN;
       53    17073
       54    17074    1     DCL QCE$ERROR_INTERNAL ENTRY (4);
       55    17075    1     DCL QCF$FIND_CURRENTS ENTRY;
       56    17076    1     DCL QCU$USE_IO ENTRY (1);
       57    17077
       58    17078          %SET LISTMAC = '1'B;
       59    17079
       60    17080          %INCLUDE QCU_USE_M;
       61    17134          %QCU@USE;
             17135            %BEGIN_MACRO;
             17136            %SET LISTDIR = '0'B;
             17149    1     DCL 1 QCU@USE AUTO ALIGNED,
             17150    1           2 CURR_FRAME$ PTR,
             17151                          /* Pointer to DAD of current frame or ADDR (NIL).  */
             17152    1           2 CURR_NODE$ PTR,
             17153                          /* Pointer to current node or ADDR (NIL).  */
             17154    1           2 USE_DEFAULT_IO UBIN,
PL6.E3A0      #001=QBE$ENABLE File=QBE$ENABLE.:E05TSI                            WED 07/30/97 04:47 Page:15
             17155                          /* For USE procedures which default applies
             17156                             (see corresponding EQUs).  */
             17157    1           2 IS_TIME_TO_SAVE_AWAY_FIELDS BIT(1) ALIGNED,
             17158                          /* If IS_TIME_TO_SAVE_AWAY_FIELDS, then
             17159                             save the fields within the bounds of
             17160                             FRAME_START_INDEX, FRAME_STOP_INDEX,
             17161                             FIELD_START_INDEX, and FIELD_STOP_INDEX
             17162                             before calling the USE procedure.  */
             17163    1           2 FRAME_START_INDEX UBIN,
             17164                          /* Foist frame of the CURRENT.FORM$
             17165                             involved with the I-O error.  */
             17166    1           2 FRAME_STOP_INDEX UBIN,
             17167                          /* Larst frame of the CURRENT.FORM$
             17168                             involved with the I-O error.  */
             17169    1           2 IS_FIELD_INDEXES_VALID BIT(1) ALIGNED,
             17170                          /* If IS_FIELD_INDEXES_VALID, use them;
             17171                             else use all the fields in the frame.  */
             17172    1           2 FIELD_START_INDEX UBIN,
             17173                          /* Starting index into QI$GZ_FIELD
             17174                             which may have values "pushed".  */
             17175    1           2 FIELD_STOP_INDEX UBIN,
             17176                          /* Stopping index into QI$GZ_FIELD
             17177                             which may have values "pushed".  */
             17178    1           2 IS_CURSOR_POSITION_VALID BIT(1) ALIGNED,
             17179                          /* If IS_CURSOR_POSITION_VALID, use it;
             17180                             else allow cursor to default to upper-left-most field.  */
             17181    1           2 CURSOR_POSITION BIT(16) ALIGNED,
             17182                          /* POSition of the field on which to place the cursor.  */
             17183    1           2 STATUS UBIN;
             17184                          /* Returned action code; see corresponding EQUs.  */
             17191            %ENDIF;
       62    17194
       63    17195          %SET LISTMAC = '0'B;
       64    17196        %EJECT;
PL6.E3A0      #001=QBE$ENABLE File=QBE$ENABLE.:E05TSI                            WED 07/30/97 04:47 Page:16
       65    17197    1       NEW_STATUS = %YES;

  17197   0 000005  8947 0010                            LBT,'8000'X       NEW_STATUS,AUTO
  17197   0 000007       8000

       66    17198
       67    17199    1       GOTO SO_ENABLE_IT_ALREADY;

  17199   0 000008  0F81 0008                            B        s:17220,PREL

       68    17200
       69    17201    1   QBE$DISABLE: ENTRY;

  17201   0 00000A  D380 0000 0000  xent QBE$DISABLE     LNJ,B5   X6A_AUTO_0
          0 00000D       0026 0000                       DC       38,0

       70    17202
       71    17203        /*D*  NAME:         QBE$DISABLE
       72    17204              CALL:         CALL QBE$DISABLE
       73    17205              PARAMETERS:   None.
       74    17206              INTERFACE:    Called by QAT$TALLYHO when a DISABLE
       75    17207                            op-code is encountered.
       76    17208              ENVIRONMENT:  Nothing unusual.
       77    17209              INPUT:        QI_1,
       78    17210                            FPL rununit static data following the op-code.
       79    17211              OUTPUT:       Turns off the QI$GZ_FIELD.INDICATORS$ ->
       80    17212                                          QI$INDICATORS.ENABLED_FLAGS.
       81    17213              SCRATCH:      Various otter data.
       82    17214              DESCRIPTION:  Go after the ENABLED_FLAGS.
       83    17215        */
       84    17216
       85    17217    1       NEW_STATUS = %NO;

  17217   0 00000F  8747 0010                            CL       NEW_STATUS,AUTO

       86    17218
       87    17219    1   SO_ENABLE_IT_ALREADY:
PL6.E3A0      #001=QBE$ENABLE File=QBE$ENABLE.:E05TSI                            WED 07/30/97 04:47 Page:17
       88    17220    1       INSTR$ = QI_1.INSTR$;

  17220   0 000011  EC80 0000 0006  xsym SO_ENABLE_IT_AL*LDB,B6   QI_1+6
          0 000014  EFC7 000E                            STB,B6   INSTR$,AUTO

       89    17221    1       OPERAND_COUNT = INSTR$ -> QI$OP_ENABLE.OPERAND_COUNT;

  17221   0 000016  E846 0001                            LDR,R6   1,B6
          0 000018  E570 1FFF                            AND,R6   8191,IMO
          0 00001A  EF47 0011                            STR,R6   OPERAND_COUNT,AUTO

       90    17222    1       QI_1.INSTR$ = PINCRW ( INSTR$, OPERAND_COUNT + 2 );

  17222   0 00001C  F856                                 LDR,R7   R6
          0 00001D  6C00                                 LDV,R6   0
          0 00001E  8447 000E                            AID      INSTR$,AUTO
          0 000020  8470 0000 0002                       AID      2,IMO
          0 000023  8D00 0000 0006  xsym                 SDI      QI_1+6

       91    17223
       92    17224    1   EN_DIS_ABLE_FORM_FRAME_FIELD:
       93    17225    2       DO OPERAND_INDEX = 0 TO OPERAND_COUNT - 1;

  17225   0 000026  8747 0012            EN_DIS_ABLE_FOR*CL       OPERAND_INDEX,AUTO
          0 000028  0F81 00CE                            B        s:17404+2,PREL

       94    17226
       95    17227    2   RETRY_CURRENT_FORM_FRAME_FIELD:
       96    17228              %PROC_ADDRESS ( THING@P =
             17228                  "INSTR$ -> QI$OP_ENABLE.OPERAND_A@P ( OPERAND_INDEX )",
       97    17229              CHECK_FOR_INDIRECTION = YES,
       98    17230              RESULT$ = "QI_1.CURRENT.NODE$" );

  17247   0                              RETRY_CURRENT_F*null
  17248   0 00002A  ECC7 000E            RETRY_CURRENT_F*LDB,B6   INSTR$,AUTO
          0 00002C  B847 0012                            LDR,R3   OPERAND_INDEX,AUTO
          0 00002E  3E02                                 ADV,R3   2
PL6.E3A0      #001=QBE$ENABLE File=QBE$ENABLE.:E05TSI                            WED 07/30/97 04:47 Page:18
          0 00002F  A836                                 LDR,R2   ,B6,R3
          0 000030  F852                                 LDR,R7   R2
          0 000031  6C00                                 LDV,R6   0
          0 000032  8400 0000 0002  xsym                 AID      QI_1+2
          0 000035  8D00 0000 0080  xsym                 SDI      QI_1+128

  17250   0 000038  DC80 0000 0080  xsym                 LDB,B5   QI_1+128
          0 00003B  8985                                 CMZ      ,B5
          0 00003C  0881 001C                            BAGE     s:17268,PREL

  17251   0 00003E  EC80 0000 0080  xsym                 LDB,B6   QI_1+128
          0 000041  E806                                 LDR,R6   ,B6
          0 000042  6046                                 SOR,R6   6
          0 000043  E570 0001                            AND,R6   1,IMO
          0 000045  B846 0002                            LDR,R3   2,B6
          0 000047  A856                                 LDR,R2   R6
          0 000048  DCA0 0000 0000  xsym                 LDB,B5   QI_1,R2
          0 00004B  DFC7 0024                            STB,B5   QCU@USE+17,AUTO
          0 00004D  F853                                 LDR,R7   R3
          0 00004E  6C00                                 LDV,R6   0
          0 00004F  8447 0024                            AID      QCU@USE+17,AUTO
          0 000051  8D00 0000 0080  xsym                 SDI      QI_1+128

  17255   0 000054  EC80 0000 0080  xsym                 LDB,B6   QI_1+128
          0 000057  8986                                 CMZ      ,B6
          0 000058  0866                                 BAL      s:17251,SPREL

       99    17267
      100    17268    2         CALL QCF$FIND_CURRENTS;

  17268   0 000059  CBF0 0000                            LAB,B4   0,IMO
          0 00005B  E380 0000 0000  xent                 LNJ,B6   QCF$FIND_CURRENTS
          0 00005E       0001                            DC       s:17270,PREL

      101    17269
      102    17270    2         IF QI_1.CURRENT.NODE$ -> QI$FORM_FILE.WORD0_FLAGS.TYPE = %QI#TYPE_FORM

PL6.E3A0      #001=QBE$ENABLE File=QBE$ENABLE.:E05TSI                            WED 07/30/97 04:47 Page:19
  17270   0 00005F  EC80 0000 0080  xsym                 LDB,B6   QI_1+128
          0 000062  E806                                 LDR,R6   ,B6
          0 000063  E570 000F                            AND,R6   15,IMO
          0 000065  6D0B                                 CMV,R6   11
          0 000066  0981 0051                            BNE      s:17382,PREL

      103    17271    2         THEN
      104    17272    2   ENABLE_DISABLE_FORM:
      105    17273    3           DO;

  17273   0                              ENABLE_DISABLE_*null
      106    17274
      107    17275    3             IF NOT QI_1.CURRENT.FORM_STATUS$ -> QI$FORM_STATUS.INDICATORS.OPEN_FLAGS.
             17275                      IS_OUTPUT

  17275   0 000068  DC80 0000 0078  xsym ENABLE_DISABLE_*LDB,B5   QI_1+120
          0 00006B  82C5 0008                            LB,'0400'X        8,B5
          0 00006D       0400
          0 00006E  0501 000C                            BBT      s:17284,PREL
          0 000070  82C5 0008                            LB,'0200'X        8,B5
          0 000072       0200
          0 000073  0501 0007                            BBT      s:17284,PREL

      108    17276    3               AND NOT QI_1.CURRENT.FORM_STATUS$ -> QI$FORM_STATUS.INDICATORS.
             17276                        OPEN_FLAGS.IS_INPUT
      109    17277    3             THEN
      110    17278    4               DO;

      111    17279    4                 QI_1.ERROR_STATUS = %E$FILE_NOT_OPEN;

  17279   0 000075  5C01                                 LDV,R5   1
          0 000076  DF00 0000 008C  xsym                 STR,R5   QI_1+140

      112    17280    4                 GOTO CHECK_USE_PROCEDURE;

  17280   0 000079  0F81 0086                            B        s:17414,PREL

PL6.E3A0      #001=QBE$ENABLE File=QBE$ENABLE.:E05TSI                            WED 07/30/97 04:47 Page:20
      113    17281    4               END;
      114    17282
      115    17283    3   CHECK_ALL_THE_FRAMES:
      116    17284    4             DO FRAME_INDEX = 0 TO QI_1.CURRENT.FORM$ -> QI$FORM_FILE.FRAME_COUNT - 1;

  17284   0 00007B  8747 0009            CHECK_ALL_THE_F*CL       FRAME_INDEX,AUTO
          0 00007D  0F81 0030                            B        s:17377+2,PREL

      117    17285
      118    17286                    %PROC_ADDRESS ( THING@P =
             17286                       "QI_1.CURRENT.FORM$ -> QI$FORM_FILE.FRAME_LIST_A@P ( FRAME_INDEX )",
      119    17287                    CHECK_FOR_INDIRECTION = NO,
      120    17288                    RESULT$ = "FRAME$" );

  17306   0 00007F  EC80 0000 0076  xsym                 LDB,B6   QI_1+118
          0 000082  B847 0009                            LDR,R3   FRAME_INDEX,AUTO
          0 000084  3E0B                                 ADV,R3   11
          0 000085  A836                                 LDR,R2   ,B6,R3
          0 000086  F852                                 LDR,R7   R2
          0 000087  6C00                                 LDV,R6   0
          0 000088  8400 0000 0002  xsym                 AID      QI_1+2
          0 00008B  8D47 0007                            SDI      FRAME$,AUTO

      121    17325
      122    17326                    %DATA_ADDRESS ( THING@D = "FRAME$ -> QI$FRAME.STATUS_AREA@D",
      123    17327                    CHECK_FOR_INDIRECTION = NO,
      124    17328                    RESULT$ = "FRAME_STATUS$" );

  17346   0 00008D  DCC7 0007                            LDB,B5   FRAME$,AUTO
          0 00008F  9845 0006                            LDR,R1   6,B5
          0 000091  F851                                 LDR,R7   R1
          0 000092  6C00                                 LDV,R6   0
          0 000093  8400 0000 0000  xsym                 AID      QI_1
          0 000096  8D47 000A                            SDI      FRAME_STATUS$,AUTO

      125    17365
      126    17366    4               IF FRAME_STATUS$ -> QI$FRAME_STATUS.INDICATORS.IS_ACTIVE
PL6.E3A0      #001=QBE$ENABLE File=QBE$ENABLE.:E05TSI                            WED 07/30/97 04:47 Page:21

  17366   0 000098  CCC7 000A                            LDB,B4   FRAME_STATUS$,AUTO
          0 00009A  89C4 000C                            CMZ      12,B4
          0 00009C  0881 000F                            BAGE     s:17377,PREL

      127    17367    4               THEN
      128    17368    4   ENABLE_DISABLE_THAT_FRAME:
      129    17369    5                 DO;

  17369   0                              ENABLE_DISABLE_*null
      130    17370    5                   FIELD_START_INDEX = FRAME_STATUS$ -> QI$FRAME_STATUS.GZ.
             17370                            FIELD_START_INDEX;

  17370   0 00009E  D804                 ENABLE_DISABLE_*LDR,R5   ,B4
          0 00009F  DF47 0005                            STR,R5   FIELD_START_INDEX,AUTO

      131    17371    5                   FIELD_STOP_INDEX = FRAME_STATUS$ -> QI$FRAME_STATUS.GZ.
             17371                            FIELD_STOP_INDEX;

  17371   0 0000A1  C844 0001                            LDR,R4   1,B4
          0 0000A3  CF47 0006                            STR,R4   FIELD_STOP_INDEX,AUTO

      132    17372    5                   GZ_FIELD$ = FRAME_STATUS$ -> QI$FRAME_STATUS.GZ.START$;

  17372   0 0000A5  BCC4 0006                            LDB,B3   6,B4
          0 0000A7  BFC7 000C                            STB,B3   GZ_FIELD$,AUTO

      133    17373
      134    17374    5                   CALL ENABLE_DISABLE_SELECTED_FIELDS;

  17374   0 0000A9  E3C0 008C                            LNJ,B6   s:0,PREL
          0 0000AB       0001                            DC       s:17377,PREL

      135    17375    5                 END ENABLE_DISABLE_THAT_FRAME;

      136    17376
      137    17377    4             END CHECK_ALL_THE_FRAMES;
PL6.E3A0      #001=QBE$ENABLE File=QBE$ENABLE.:E05TSI                            WED 07/30/97 04:47 Page:22

  17377   0 0000AC  8AC7 0009                            INC      FRAME_INDEX,AUTO
          0 0000AE  EC80 0000 0076  xsym                 LDB,B6   QI_1+118
          0 0000B1  E847 0009                            LDR,R6   FRAME_INDEX,AUTO
          0 0000B3  E946 0001                            CMR,R6   1,B6
          0 0000B5  024A                                 BL       s:17306,SPREL

      138    17378
      139    17379    3           END ENABLE_DISABLE_FORM;

  17379   0 0000B6  0F81 003E                            B        s:17404,PREL

      140    17380    2         ELSE
      141    17381    2   ENABLE_DISABLE_FRAME_OR_LESS:
      142    17382    3           DO;

  17382   0                              ENABLE_DISABLE_*null
      143    17383    3             IF NOT QI_1.CURRENT.FRAME_STATUS$ -> QI$FRAME_STATUS.INDICATORS.IS_ACTIVE

  17383   0 0000B8  DC80 0000 007C  xsym ENABLE_DISABLE_*LDB,B5   QI_1+124
          0 0000BB  89C5 000C                            CMZ      12,B5
          0 0000BD  0801 0007                            BAL      s:17390,PREL

      144    17384    3             THEN
      145    17385    4               DO;

      146    17386    4                 QI_1.ERROR_STATUS = %E$FRAME_NOT_ACTIVE;

  17386   0 0000BF  5C07                                 LDV,R5   7
          0 0000C0  DF00 0000 008C  xsym                 STR,R5   QI_1+140

      147    17387    4                 GOTO CHECK_USE_PROCEDURE;

  17387   0 0000C3  0F81 003C                            B        s:17414,PREL

      148    17388    4               END;
      149    17389
PL6.E3A0      #001=QBE$ENABLE File=QBE$ENABLE.:E05TSI                            WED 07/30/97 04:47 Page:23
      150    17390    3             IF NOT QI_1.CURRENT.FORM_STATUS$ -> QI$FORM_STATUS.INDICATORS.OPEN_FLAGS.
             17390                      IS_OUTPUT

  17390   0 0000C5  CC80 0000 0078  xsym                 LDB,B4   QI_1+120
          0 0000C8  82C4 0008                            LB,'0400'X        8,B4
          0 0000CA       0400
          0 0000CB  0501 000C                            BBT      s:17398,PREL
          0 0000CD  82C4 0008                            LB,'0200'X        8,B4
          0 0000CF       0200
          0 0000D0  0501 0007                            BBT      s:17398,PREL

      151    17391    3               AND NOT QI_1.CURRENT.FORM_STATUS$ -> QI$FORM_STATUS.INDICATORS.
             17391                        OPEN_FLAGS.IS_INPUT
      152    17392    3             THEN
      153    17393    4               DO;

      154    17394    4                 QI_1.ERROR_STATUS = %E$FILE_NOT_OPEN;

  17394   0 0000D2  5C01                                 LDV,R5   1
          0 0000D3  DF00 0000 008C  xsym                 STR,R5   QI_1+140

      155    17395    4                 GOTO CHECK_USE_PROCEDURE;

  17395   0 0000D6  0F81 0029                            B        s:17414,PREL

      156    17396    4               END;
      157    17397
      158    17398    3             FIELD_START_INDEX = QI_1.CURRENT.NODE_STATUS$ -> QI$MAJOR_STATUS.GZ.
             17398                      FIELD_START_INDEX;

  17398   0 0000D8  BC80 0000 0082  xsym                 LDB,B3   QI_1+130
          0 0000DB  D803                                 LDR,R5   ,B3
          0 0000DC  DF47 0005                            STR,R5   FIELD_START_INDEX,AUTO

      159    17399    3             FIELD_STOP_INDEX = QI_1.CURRENT.NODE_STATUS$ -> QI$MAJOR_STATUS.GZ.
             17399                      FIELD_STOP_INDEX;

PL6.E3A0      #001=QBE$ENABLE File=QBE$ENABLE.:E05TSI                            WED 07/30/97 04:47 Page:24
  17399   0 0000DE  C843 0001                            LDR,R4   1,B3
          0 0000E0  CF47 0006                            STR,R4   FIELD_STOP_INDEX,AUTO

      160    17400    3             GZ_FIELD$ = PINCRW ( QI_1.CURRENT.FRAME_STATUS$ -> QI$FRAME_STATUS.GZ.
             17400                      START$,

  17400   0 0000E2  ACC5 0006                            LDB,B2   6,B5
          0 0000E4  AFC7 0024                            STB,B2   QCU@USE+17,AUTO
          0 0000E6  F855                                 LDR,R7   R5
          0 0000E7  6C00                                 LDV,R6   0
          0 0000E8  9B80 0000 0000  01                   LAB,B1   0
          0 0000EB  D380 0000 0000  xent                 LNJ,B5   X6D_MID
          0 0000EE  8447 0024                            AID      QCU@USE+17,AUTO
          0 0000F0  8D47 000C                            SDI      GZ_FIELD$,AUTO

      161    17401    3               FIELD_START_INDEX * SIZEW (QI$GZ_FIELD) );
      162    17402
      163    17403    3             CALL ENABLE_DISABLE_SELECTED_FIELDS;

  17403   0 0000F2  E3C0 0043                            LNJ,B6   s:0,PREL
          0 0000F4       0001                            DC       s:17404,PREL

      164    17404    3           END ENABLE_DISABLE_FRAME_OR_LESS;

      165    17405
      166    17406    2   NEXT_FIELD_FRAME_FORM_PLEASE:
      167    17407
      168    17408    2       END EN_DIS_ABLE_FORM_FRAME_FIELD;

  17408   0 0000F5  8AC7 0012            NEXT_FIELD_FRAM*INC      OPERAND_INDEX,AUTO
          0 0000F7  E847 0012                            LDR,R6   OPERAND_INDEX,AUTO
          0 0000F9  E947 0011                            CMR,R6   OPERAND_COUNT,AUTO
          0 0000FB  0201 FF2E                            BL       s:17247,PREL

      169    17409
      170    17410    1       RETURN;

PL6.E3A0      #001=QBE$ENABLE File=QBE$ENABLE.:E05TSI                            WED 07/30/97 04:47 Page:25
  17410   0 0000FD  C380 0000 0000  xent                 LNJ,B4   X6A_ARET

      171    17411
      172    17412        %EJECT;
PL6.E3A0      #001=QBE$ENABLE File=QBE$ENABLE.:E05TSI                            WED 07/30/97 04:47 Page:26
      173    17413    1   CHECK_USE_PROCEDURE:
      174    17414    1       QCU@USE.USE_DEFAULT_IO = %QI#USE_DEFAULT_NONE;

  17414   0 000100  8747 0017            CHECK_USE_PROCE*CL       QCU@USE+4,AUTO

      175    17415    1       QCU@USE.IS_TIME_TO_SAVE_AWAY_FIELDS = %NO;

  17415   0 000102  8747 0018                            CL       QCU@USE+5,AUTO

      176    17416    1       QCU@USE.CURR_FRAME$ = QI_1.CURRENT.FRAME$;

  17416   0 000104  DC80 0000 007A  xsym                 LDB,B5   QI_1+122
          0 000107  DFC7 0013                            STB,B5   QCU@USE,AUTO

      177    17417    1       QCU@USE.CURR_NODE$ = QI_1.CURRENT.NODE$;

  17417   0 000109  EFC7 0015                            STB,B6   QCU@USE+2,AUTO

      178    17418
      179    17419    1       CALL QCU$USE_IO ( QCU@USE );

  17419   0 00010B  CBC7 0013                            LAB,B4   QCU@USE,AUTO
          0 00010D  CFC7 0024                            STB,B4   QCU@USE+17,AUTO
          0 00010F  BBC7 0024                            LAB,B3   QCU@USE+17,AUTO
          0 000111  CBF0 0100                            LAB,B4   256,IMO
          0 000113  E380 0000 0000  xent                 LNJ,B6   QCU$USE_IO
          0 000116       0001                            DC       s:17421,PREL

      180    17420
      181    17421    2       DO CASE ( QCU@USE.STATUS );

  17421   0 000117  B847 0020                            LDR,R3   QCU@USE+13,AUTO
          0 000119  3D03                                 CMV,R3   3
          0 00011A  0281 0010                            BGE      s:17433,PREL
          0 00011C  A830 0000 0122  00                   LDR,R2   s:17421+11,R3
          0 00011F  83A0 0000 0125  00                   JMP      s:17424,R2
          0 000122       0000                            DC       s:17424,PREL
PL6.E3A0      #001=QBE$ENABLE File=QBE$ENABLE.:E05TSI                            WED 07/30/97 04:47 Page:27
          0 000123       0003                            DC       s:17427,PREL
          0 000124       0005                            DC       s:17430,PREL

      182    17422
      183    17423    2         CASE ( %QI#USE_INVALID_RETURN );

      184    17424    2           RETURN;

  17424   0 000125  C380 0000 0000  xent                 LNJ,B4   X6A_ARET

      185    17425
      186    17426    2         CASE ( %QI#USE_INVALID_RETRY );

      187    17427    2           GOTO RETRY_CURRENT_FORM_FRAME_FIELD;

  17427   0 000128  0F81 FF01                            B        s:17247,PREL

      188    17428
      189    17429    2         CASE ( %QI#USE_INVALID_SKIP_TO_NEXT );

      190    17430    2           GOTO NEXT_FIELD_FRAME_FORM_PLEASE;

  17430   0 00012A  0FCB                                 B        s:17404,SPREL

      191    17431
      192    17432    2         CASE ( ELSE );

      193    17433    2           CALL QCE$ERROR_INTERNAL ( %E$INTERNAL_INTERPRETER_ERROR );

  17433   0 00012B  BB80 0000 0003  01                   LAB,B3   +3
          0 00012E  CBF0 0100                            LAB,B4   256,IMO
          0 000130  E380 0000 0000  xent                 LNJ,B6   QCE$ERROR_INTERNAL
          0 000133       0001                            DC       s:17435,PREL

      194    17434
      195    17435    2       END;

PL6.E3A0      #001=QBE$ENABLE File=QBE$ENABLE.:E05TSI                            WED 07/30/97 04:47 Page:28
  17435   0 000134  0F81 003D                            B        s:17461,PREL

      196    17436
      197    17437        %EJECT;
PL6.E3A0      #001=QBE$ENABLE File=QBE$ENABLE.:E05TSI                            WED 07/30/97 04:47 Page:29
      198    17438    1   ENABLE_DISABLE_SELECTED_FIELDS: PROC;

  17438   0 000136  EFC7 0022            ENABLE_DISABLE_*STB,B6   QCU@USE+15,AUTO

      199    17439
      200    17440    2   CHECK_SELECTED_FIELDS:
      201    17441    3       DO FIELD_INDEX = FIELD_START_INDEX TO FIELD_STOP_INDEX;

  17441   0 000138  E847 0005            CHECK_SELECTED_*LDR,R6   FIELD_START_INDEX,AUTO
          0 00013A  EF47 0004                            STR,R6   FIELD_INDEX,AUTO
          0 00013C  0F81 002C                            B        s:17455+2,PREL

      202    17442
      203    17443    3         IF GZ_FIELD$ -> QI$GZ_FIELD.DESCRIPTION.IO_FLAGS.IS_OUTPUT

  17443   0 00013E  ECC7 000C                            LDB,B6   GZ_FIELD$,AUTO
          0 000140  89C6 0002                            CMZ      2,B6
          0 000142  0881 000E                            BAGE     s:17448,PREL
          0 000144  DCC7 000E                            LDB,B5   INSTR$,AUTO
          0 000146  82C5 0001                            LB,'4000'X        1,B5
          0 000148       4000
          0 000149  0581 0007                            BBF      s:17448,PREL

      204    17444    3           AND INSTR$ -> QI$OP_ENABLE.IO_FLAGS.IS_OUTPUT
      205    17445    3         THEN
      206    17446    3           GZ_FIELD$ -> QI$GZ_FIELD.INDICATORS$ -> QI$INDICATORS.ENABLED_FLAGS.
             17446                    IS_OUTPUT = NEW_STATUS;

  17446   0 00014B  CC86                                 LDB,B4   ,B6
          0 00014C  E847 0010                            LDR,R6   NEW_STATUS,AUTO
          0 00014E  6041                                 SOR,R6   1
          0 00014F  EA84                                 SRM,R6,'4000'X    ,B4
          0 000150       4000

      207    17447
      208    17448    3         IF GZ_FIELD$ -> QI$GZ_FIELD.DESCRIPTION.IO_FLAGS.IS_INPUT

PL6.E3A0      #001=QBE$ENABLE File=QBE$ENABLE.:E05TSI                            WED 07/30/97 04:47 Page:30
  17448   0 000151  82C6 0002                            LB,'4000'X        2,B6
  17448   0 000153       4000
          0 000154  0581 000E                            BBF      s:17453,PREL
          0 000156  DCC7 000E                            LDB,B5   INSTR$,AUTO
          0 000158  82C5 0001                            LB,'2000'X        1,B5
          0 00015A       2000
          0 00015B  0581 0007                            BBF      s:17453,PREL

      209    17449    3           AND INSTR$ -> QI$OP_ENABLE.IO_FLAGS.IS_INPUT
      210    17450    3         THEN
      211    17451    3          GZ_FIELD$ -> QI$GZ_FIELD.INDICATORS$ -> QI$INDICATORS.ENABLED_FLAGS.IS_INPUT
             17451                    = NEW_STATUS;

  17451   0 00015D  CC86                                 LDB,B4   ,B6
          0 00015E  E847 0010                            LDR,R6   NEW_STATUS,AUTO
          0 000160  6042                                 SOR,R6   2
          0 000161  EA84                                 SRM,R6,'2000'X    ,B4
          0 000162       2000

      212    17452
      213    17453    3         GZ_FIELD$ = PINCRW ( GZ_FIELD$, SIZEW (QI$GZ_FIELD) );

  17453   0 000163  DBC6 000C                            LAB,B5   12,B6
          0 000165  DFC7 000C                            STB,B5   GZ_FIELD$,AUTO

      214    17454
      215    17455    3       END CHECK_SELECTED_FIELDS;

  17455   0 000167  8AC7 0004                            INC      FIELD_INDEX,AUTO
          0 000169  E847 0004                            LDR,R6   FIELD_INDEX,AUTO
          0 00016B  E947 0006                            CMR,R6   FIELD_STOP_INDEX,AUTO
          0 00016D  03D1                                 BLE      s:17443,SPREL

      216    17456
      217    17457    2       RETURN;

  17457   0 00016E  ECC7 0022                            LDB,B6   QCU@USE+15,AUTO
PL6.E3A0      #001=QBE$ENABLE File=QBE$ENABLE.:E05TSI                            WED 07/30/97 04:47 Page:31
          0 000170  C3C6 0001                            LNJ,B4   1,B6

      218    17458
      219    17459    2   END ENABLE_DISABLE_SELECTED_FIELDS;
      220    17460
      221    17461    1   END QBE$ENABLE;

  17461   0 000172  C380 0000 0000  xent                 LNJ,B4   X6A_ARET

PL6.E3A0      #001=QBE$ENABLE File=QBE$ENABLE.:E05TSI                            WED 07/30/97 04:47 Page:32
--  Include file information  --

   QCU_USE_M.:E05TOU  is referenced.
   QI_MACROS_M.:E05TOU  is referenced.
   QI_PERR_C.:E05TOU  is referenced.
   QI_EQUATES_E.:E05TOU  is referenced.
   QG_MACRO_M.:E05TOU  is referenced.
   LCP_6.:E05TOU  cannot be made into a system file and is referenced.
   G_LCP6_E.:E05TOU  was found in the system file and is referenced.
   GT_LCP6_M.:E05TOU  was found in the system file and is referenced.
   KI_CP6.:E05TOU  was found in the system file and is referenced.
   GF_LCP6_M.:E05TOU  was found in the system file and is referenced.
   GM_LCP6_M.:E05TOU  was found in the system file and is referenced.
   GU_LCP6_M.:E05TOU  was found in the system file and is referenced.
   GJ_LCP6_M.:E05TOU  was found in the system file and is referenced.
   GH_LCP6_M.:E05TOU  was found in the system file and is referenced.
      No diagnostics issued in procedure QBE$ENABLE.
PL6.E3A0      #001=QBE$ENABLE File=QBE$ENABLE.:E05TSI                            WED 07/30/97 04:47 Page:33

 **** Variables and constants ****

  ****  Auto variables  ****

  ****  Scalars and arrays  ****
HexLoc.c.b A Datatyp(siz) R M Lvl/name                 HexLoc.c.b A Datatyp(siz) R M Lvl/name

     4-0-0/w UBIN(16)    r     1 FIELD_INDEX                5-0-0/w UBIN(16)    r     1 FIELD_START_INDEX
     6-0-0/w UBIN(16)    r     1 FIELD_STOP_INDEX           7-0-0/w PTR         r     1 FRAME$
     9-0-0/w UBIN(16)    r     1 FRAME_INDEX                A-0-0/w PTR         r     1 FRAME_STATUS$
     C-0-0/w PTR         r     1 GZ_FIELD$                  E-0-0/w PTR         r     1 INSTR$
    10-0-0/w BIT         r     1 NEW_STATUS                11-0-0/w UBIN(16)    r     1 OPERAND_COUNT
    12-0-0/w UBIN(16)    r     1 OPERAND_INDEX             13-0-0/w STRC(224)   r     1 QCU@USE

  ****  SYMREF variables  ****

  ****  Scalars and arrays  ****
HexLoc.c.b A Datatyp(siz) R M Lvl/name                 HexLoc.c.b A Datatyp(siz) R M Lvl/name

     0-0-0/d STRC(2576)  r     1 QI_1

  ****  BASED and DCB variables  ****

  ****  Scalars and arrays  ****
HexLoc.c.b A Datatyp(siz) R M Lvl/name                 HexLoc.c.b A Datatyp(siz) R M Lvl/name

     0-0-0/w STRC(48)    r     1 QI$DAD                     0-0-0/w STRC(192)   r     1 QI$FORM_FILE
     0-0-0/w STRC(144)   r     1 QI$FORM_STATUS             0-0-0/w STRC(128)   r     1 QI$FRAME
     0-0-0/w STRC(208)   r     1 QI$FRAME_STATUS            0-0-0/w STRC(184)   r     1 QI$GZ_FIELD
     0-0-0/w STRC(16)    r     1 QI$INDICATORS              0-0-0/w STRC(48)    r     1 QI$MAJOR_STATUS
     0-0-0/w STRC(48)    r     1 QI$OP_ENABLE
     0-0-0/c ASTR(8)     r     1 QI$VARIABLE_IDENTIFIER


   Procedure QBE$ENABLE requires 373 words for executable code.
   Procedure QBE$ENABLE requires 38 words of local(AUTO) storage.
PL6.E3A0      #001=QBE$ENABLE File=QBE$ENABLE.:E05TSI                            WED 07/30/97 04:47 Page:34

    No errors detected in file QBE$ENABLE.:E05TSI    .
PL6.E3A0      #001=QBE$ENABLE File=QBE$ENABLE.:E05TSI                            WED 07/30/97 04:47 Page:35
          *** CROSS REFERENCE LISTING ***
**     DENOTES     IDENTIFIER DEFINITION
<<                 IDENTIFIER'S VALUE SET
>>                 IDENTIFIER'S VALUE USED
<>                 IDENTIFIER SET AND/OR USED
--                 IDENTIFIER REFERENCED
PL6.E3A0      #001=QBE$ENABLE File=QBE$ENABLE.:E05TSI                            WED 07/30/97 04:47 Page:36
          MINI XREF LISTING

CHECK_USE_PROCEDURE
     17414**LABEL   17280--GOTO    17387--GOTO    17395--GOTO
ENABLE_DISABLE_SELECTED_FIELDS
     17438**PROC    17374--CALL    17403--CALL
FIELD_INDEX
     17062**DCL     17441<<DOINDEX
FIELD_START_INDEX
     17063**DCL     17370<<ASSIGN  17398<<ASSIGN  17400>>ASSIGN  17441>>DOINDEX
FIELD_STOP_INDEX
     17064**DCL     17371<<ASSIGN  17399<<ASSIGN  17441>>DOINDEX
FRAME$
     17065**DCL     17306<<ASSIGN  17346>>ASSIGN
FRAME_INDEX
     17066**DCL     17284<<DOINDEX 17306>>ASSIGN
FRAME_STATUS$
     17067**DCL     17346<<ASSIGN  17366>>IF      17370>>ASSIGN  17371>>ASSIGN  17372>>ASSIGN
GZ_FIELD$
     17068**DCL     17372<<ASSIGN  17400<<ASSIGN  17443>>IF      17446>>ASSIGN  17448>>IF      17451>>ASSIGN
     17453<<ASSIGN  17453>>ASSIGN
INSTR$
     17069**DCL     17220<<ASSIGN  17221>>ASSIGN  17222>>ASSIGN  17248>>ASSIGN  17443>>IF      17448>>IF
NEW_STATUS
     17070**DCL     17197<<ASSIGN  17217<<ASSIGN  17446>>ASSIGN  17451>>ASSIGN
NEXT_FIELD_FRAME_FORM_PLEASE
     17408**LABEL   17430--GOTO
OPERAND_COUNT
     17071**DCL     17221<<ASSIGN  17222>>ASSIGN  17225>>DOINDEX
OPERAND_INDEX
     17072**DCL     17225<<DOINDEX 17248>>ASSIGN
QCE$ERROR_INTERNAL
     17074**DCL-ENT 17433--CALL
QCF$FIND_CURRENTS
PL6.E3A0      #001=QBE$ENABLE File=QBE$ENABLE.:E05TSI                            WED 07/30/97 04:47 Page:37
     17075**DCL-ENT 17268--CALL
QCU$USE_IO
     17076**DCL-ENT 17419--CALL
QCU@USE
     17149**DCL     17419<>CALL
QCU@USE.CURR_FRAME$
     17150**DCL     17416<<ASSIGN
QCU@USE.CURR_NODE$
     17152**DCL     17417<<ASSIGN
QCU@USE.IS_TIME_TO_SAVE_AWAY_FIELDS
     17157**DCL     17415<<ASSIGN
QCU@USE.STATUS
     17183**DCL     17421>>DOCASE
QCU@USE.USE_DEFAULT_IO
     17154**DCL     17414<<ASSIGN
QGB_PARAM.DVE.DVBYTE.VFC
     11545**DCL     11546--REDEF
QGB_PARAM.DVE.EOMCHAR
     11557**DCL     11558--REDEF
QGB_PARAM.MSG$
     11539**DCL     11540--REDEF
QGB_PARAM.UHDR$
     11564**DCL     11565--REDEF
QI$ACTIVATION_STATUS
      9303**DCL      9309--REDEF
QI$CIP
      8144**DCL      8214--REDEF
QI$CIP.CA
      8149**DCL      8153--REDEF    8156--REDEF    8159--REDEF
QI$COBOL_DAD.PSEUDO_CIP
      8388**DCL      8413--REDEF
QI$COBOL_DAD.PSEUDO_CIP.ALPHANUMERIC
      8390**DCL      8395--REDEF
QI$COBOL_DAD.PSEUDO_CIP.NUMERIC.CB
      8396**DCL      8399--REDEF    8402--REDEF
QI$COBOL_DAD.VARIABLE_LENGTH_ITEMS
PL6.E3A0      #001=QBE$ENABLE File=QBE$ENABLE.:E05TSI                            WED 07/30/97 04:47 Page:38
      8424**DCL      8440--REDEF    8448--REDEF    8456--REDEF
QI$COBOL_DAD.VARIABLE_LENGTH_ITEMS.LEVEL_MULTIPLIERS
      8425**DCL      8435--REDEF    8438--REDEF
QI$COBOL_DAD.WORD0
      8352**DCL      8353--REDEF    8367--REDEF
QI$COBOL_DAD_P_BITS.P
      8492**DCL      8498--REDEF
QI$CONDITION_CONTROL_BLOCK.LIST_A@P
      7978**DCL      7979--REDEF
QI$CONDITION_CONTROL_BLOCK.WORD0_FLAGS
      7974**DCL      7977--REDEF
QI$CONDITION_LEGAL_BLOCK.ARRAY@P
      8011**DCL      8012--REDEF    8013--REDEF
QI$DAD.PSEUDO_CIP
      8291**DCL      8316--REDEF
QI$DAD.PSEUDO_CIP.ALPHANUMERIC
      8293**DCL      8298--REDEF
QI$DAD.PSEUDO_CIP.DATA@
      8315**DCL     17251>>ASSIGN
QI$DAD.PSEUDO_CIP.NUMERIC.CB
      8299**DCL      8302--REDEF    8305--REDEF
QI$DAD.WORD0
      8260**DCL      8261--REDEF
QI$DAD.WORD0_FLAGS.INDIRECT
      8262**DCL     17250>>DOWHILE
QI$DAD.WORD0_FLAGS.IS_CONSTANT
      8267**DCL     17251>>ASSIGN
QI$ERROR_MESSAGE_LINE
     11652**DCL     11654--REDEF
QI$ERROR_STATUS
     11649**DCL     11651--REDEF
QI$FIELD_DAD.ELEMENTARY_ITEM.P
      8706**DCL      8713--REDEF
QI$FIELD_DAD.ONE_DIMENSIONAL_ITEM.P
      8726**DCL      8733--REDEF
QI$FIELD_DAD.PSEUDO_CIP
PL6.E3A0      #001=QBE$ENABLE File=QBE$ENABLE.:E05TSI                            WED 07/30/97 04:47 Page:39
      8633**DCL      8658--REDEF
QI$FIELD_DAD.PSEUDO_CIP.ALPHANUMERIC
      8635**DCL      8640--REDEF
QI$FIELD_DAD.PSEUDO_CIP.NUMERIC.CB
      8641**DCL      8644--REDEF    8647--REDEF
QI$FIELD_DAD.TWO_DIMENSIONAL_ITEM.P
      8746**DCL      8753--REDEF
QI$FIELD_DAD.VARIABLE_LENGTH_ITEMS
      8689**DCL      8705--REDEF    8723--REDEF    8741--REDEF
QI$FIELD_DAD.VARIABLE_LENGTH_ITEMS.LEVEL_MULTIPLIERS
      8690**DCL      8700--REDEF    8703--REDEF
QI$FIELD_DAD.WORD0
      8585**DCL      8586--REDEF
QI$FIELD_DAD.WORD0_FLAGS.IO_FLAGS
      8589**DCL      8594--REDEF
QI$FIELD_DAD_P.P
      8787**DCL      8794--REDEF
QI$FIELD_STATUS.INDICATORS
      9453**DCL      9485--REDEF
QI$FIELD_STATUS.INDICATORS.ENABLED_FLAGS
      9457**DCL      9462--REDEF
QI$FIELD_STATUS.INDICATORS.OPEN_FLAGS
      9469**DCL      9476--REDEF
QI$FIELD_STATUS.INDICATORS.STATE_FLAGS
      9463**DCL      9468--REDEF
QI$FILE.WORD0
      8909**DCL      8910--REDEF
QI$FILE_STATUS.INDICATORS
      9746**DCL      9778--REDEF
QI$FILE_STATUS.INDICATORS.ENABLED_FLAGS
      9750**DCL      9755--REDEF
QI$FILE_STATUS.INDICATORS.OPEN_FLAGS
      9762**DCL      9769--REDEF
QI$FILE_STATUS.INDICATORS.STATE_FLAGS
      9756**DCL      9761--REDEF
QI$FORM_FILE.FRAME_COUNT
PL6.E3A0      #001=QBE$ENABLE File=QBE$ENABLE.:E05TSI                            WED 07/30/97 04:47 Page:40
      8988**DCL     17284>>DOINDEX
QI$FORM_FILE.FRAME_LIST_A@P
      9017**DCL     17306>>ASSIGN
QI$FORM_FILE.USE_PROCEDURE
      9009**DCL      9016--REDEF
QI$FORM_FILE.WORD0
      8963**DCL      8964--REDEF
QI$FORM_FILE.WORD0_FLAGS.TYPE
      8985**DCL     17270>>IF
QI$FORM_STATUS.INDICATORS
      9867**DCL      9899--REDEF
QI$FORM_STATUS.INDICATORS.ENABLED_FLAGS
      9871**DCL      9876--REDEF
QI$FORM_STATUS.INDICATORS.OPEN_FLAGS
      9883**DCL      9890--REDEF
QI$FORM_STATUS.INDICATORS.OPEN_FLAGS.IS_INPUT
      9887**DCL     17275>>IF      17390>>IF
QI$FORM_STATUS.INDICATORS.OPEN_FLAGS.IS_OUTPUT
      9884**DCL     17275>>IF      17390>>IF
QI$FORM_STATUS.INDICATORS.STATE_FLAGS
      9877**DCL      9882--REDEF
QI$FRAME.STATUS_AREA@D
      9140**DCL     17346>>ASSIGN
QI$FRAME.WORD0
      9124**DCL      9125--REDEF
QI$FRAME_STATUS.GZ.FIELD_START_INDEX
     10049**DCL     17370>>ASSIGN
QI$FRAME_STATUS.GZ.FIELD_STOP_INDEX
     10051**DCL     17371>>ASSIGN
QI$FRAME_STATUS.GZ.START$
     10059**DCL     17372>>ASSIGN  17400>>ASSIGN
QI$FRAME_STATUS.INDICATORS
     10096**DCL     10128--REDEF
QI$FRAME_STATUS.INDICATORS.ENABLED_FLAGS
     10100**DCL     10105--REDEF
QI$FRAME_STATUS.INDICATORS.IS_ACTIVE
PL6.E3A0      #001=QBE$ENABLE File=QBE$ENABLE.:E05TSI                            WED 07/30/97 04:47 Page:41
     10098**DCL     17366>>IF      17383>>IF
QI$FRAME_STATUS.INDICATORS.OPEN_FLAGS
     10112**DCL     10119--REDEF
QI$FRAME_STATUS.INDICATORS.STATE_FLAGS
     10106**DCL     10111--REDEF
QI$GZ_FIELD
     16975**DCL     17400--ASSIGN  17453--ASSIGN
QI$GZ_FIELD.DESCRIPTION.IO_FLAGS
     16978**DCL     16983--REDEF
QI$GZ_FIELD.DESCRIPTION.IO_FLAGS.IS_INPUT
     16981**DCL     17448>>IF
QI$GZ_FIELD.DESCRIPTION.IO_FLAGS.IS_OUTPUT
     16979**DCL     17443>>IF
QI$GZ_FIELD.INDICATORS$
     16976**DCL     17446>>ASSIGN  17451>>ASSIGN
QI$IDENTIFIER
     11655**DCL     11657--REDEF
QI$INDICATORS
      9367**DCL      9397--REDEF
QI$INDICATORS.ENABLED_FLAGS
      9373**DCL      9378--REDEF
QI$INDICATORS.ENABLED_FLAGS.IS_INPUT
      9376**DCL     17451<<ASSIGN
QI$INDICATORS.ENABLED_FLAGS.IS_OUTPUT
      9374**DCL     17446<<ASSIGN
QI$INDICATORS.OPEN_FLAGS
      9385**DCL      9392--REDEF
QI$INDICATORS.STATE_FLAGS
      9379**DCL      9384--REDEF
QI$MAJOR_NODE.WORD0
      8823**DCL      8824--REDEF
QI$MAJOR_STATUS.GZ.FIELD_START_INDEX
      9522**DCL     17398>>ASSIGN
QI$MAJOR_STATUS.GZ.FIELD_STOP_INDEX
      9524**DCL     17399>>ASSIGN
QI$MAJOR_STATUS.INDICATORS
PL6.E3A0      #001=QBE$ENABLE File=QBE$ENABLE.:E05TSI                            WED 07/30/97 04:47 Page:42
      9546**DCL      9578--REDEF
QI$MAJOR_STATUS.INDICATORS.ENABLED_FLAGS
      9550**DCL      9555--REDEF
QI$MAJOR_STATUS.INDICATORS.OPEN_FLAGS
      9562**DCL      9569--REDEF
QI$MAJOR_STATUS.INDICATORS.STATE_FLAGS
      9556**DCL      9561--REDEF
QI$MESSAGE_TYPE
     11646**DCL     11648--REDEF
QI$MINOR_NODE.WORD0
      8866**DCL      8867--REDEF
QI$MINOR_STATUS.INDICATORS
      9639**DCL      9671--REDEF
QI$MINOR_STATUS.INDICATORS.ENABLED_FLAGS
      9643**DCL      9648--REDEF
QI$MINOR_STATUS.INDICATORS.OPEN_FLAGS
      9655**DCL      9662--REDEF
QI$MINOR_STATUS.INDICATORS.STATE_FLAGS
      9649**DCL      9654--REDEF
QI$OP_ACCEPT.DATANAME@P
      6054**DCL      6055--REDEF
QI$OP_CALL.EPTR$
      6226**DCL      6227--REDEF
QI$OP_CLEAR.IO_FLAGS
      6259**DCL      6262--REDEF
QI$OP_DISPLAY.FIELD_A@P
      6526**DCL      6527--REDEF
QI$OP_ENABLE.IO_FLAGS
      6613**DCL      6616--REDEF
QI$OP_ENABLE.IO_FLAGS.IS_INPUT
      6615**DCL     17448>>IF
QI$OP_ENABLE.IO_FLAGS.IS_OUTPUT
      6614**DCL     17443>>IF
QI$OP_ENABLE.OPERAND_A@P
      6618**DCL     17248>>ASSIGN
QI$OP_ENABLE.OPERAND_COUNT
PL6.E3A0      #001=QBE$ENABLE File=QBE$ENABLE.:E05TSI                            WED 07/30/97 04:47 Page:43
      6617**DCL     17221>>ASSIGN
QI$OP_IFCLS.ATTRIBUTE.TYPE
      6706**DCL      6711--REDEF
QI$OP_INSPECT.TALLYING_FOR_ITEM@P
      6940**DCL      6941--REDEF
QI$OP_INSPECT.TALLYING_INITIAL_ITEM@P
      6942**DCL      6943--REDEF
QI$OP_INSPECT.TALLYING_ITEM@P
      6938**DCL      6939--REDEF
QI$OP_OPEN.IO_FLAGS
      7500**DCL      7503--REDEF
QI$OP_PERFM.BINARY_ITERATION_COUNT@P
      7538**DCL      7539--REDEF
QI$PSEUDO_CIP
      8039**DCL      8063--REDEF
QI$PSEUDO_CIP.ALPHANUMERIC
      8043**DCL      8048--REDEF
QI$PSEUDO_CIP.NUMERIC.CB
      8049**DCL      8052--REDEF    8055--REDEF
QI$TERMINAL_ATTRIBUTES
      9260**DCL      9273--REDEF
QI$TRAN_FILE.WORD0
      9045**DCL      9046--REDEF
QI$TRAN_STATUS.INDICATORS
      9980**DCL     10012--REDEF
QI$TRAN_STATUS.INDICATORS.ENABLED_FLAGS
      9984**DCL      9989--REDEF
QI$TRAN_STATUS.INDICATORS.OPEN_FLAGS
      9996**DCL     10003--REDEF
QI$TRAN_STATUS.INDICATORS.STATE_FLAGS
      9990**DCL      9995--REDEF
QI$VARIABLE_IDENTIFIER.LENGTH
     11659**DCL     11660--IMP-SIZ
QI_1.BASE
     10188**DCL     10195--REDEF
QI_1.BASE.DATA$
PL6.E3A0      #001=QBE$ENABLE File=QBE$ENABLE.:E05TSI                            WED 07/30/97 04:47 Page:44
     10189**DCL     17346>>ASSIGN
QI_1.BASE.PROC$
     10191**DCL     17248>>ASSIGN  17306>>ASSIGN
QI_1.BASE_A$
     10195**DCL     17251>>ASSIGN
QI_1.CURRENT.FILE$
     11079**DCL     11081--REDEF   11083--REDEF
QI_1.CURRENT.FILE_STATUS$
     11085**DCL     11087--REDEF   11089--REDEF
QI_1.CURRENT.FORM$
     11081**DCL     17284>>DOINDEX 17306>>ASSIGN
QI_1.CURRENT.FORM_STATUS$
     11087**DCL     17275>>IF      17275>>IF      17390>>IF      17390>>IF
QI_1.CURRENT.FRAME$
     11091**DCL     17416>>ASSIGN
QI_1.CURRENT.FRAME_STATUS$
     11093**DCL     17383>>IF      17400>>ASSIGN
QI_1.CURRENT.NODE$
     11098**DCL     17248<<ASSIGN  17250>>DOWHILE 17251<<ASSIGN  17251>>ASSIGN  17251>>ASSIGN  17270>>IF
     17417>>ASSIGN
QI_1.CURRENT.NODE_STATUS$
     11100**DCL     17398>>ASSIGN  17399>>ASSIGN
QI_1.DAD
     10883**DCL     10888--REDEF
QI_1.ERROR_STATUS
     11113**DCL     17279<<ASSIGN  17386<<ASSIGN  17394<<ASSIGN
QI_1.FILE_HEAD
     11066**DCL     11073--REDEF
QI_1.INSTR$
     10196**DCL     17220>>ASSIGN  17222<<ASSIGN
QI_1.IS_ALL_LIT
     10889**DCL     10894--REDEF
QI_1.IS_FORM_VARIABLE
     10895**DCL     10900--REDEF
QI_1.IS_TEMP
     10901**DCL     10906--REDEF
PL6.E3A0      #001=QBE$ENABLE File=QBE$ENABLE.:E05TSI                            WED 07/30/97 04:47 Page:45
QI_1.MESSAGE_LINE_DAD.PSEUDO_CIP
     10999**DCL     11024--REDEF
QI_1.MESSAGE_LINE_DAD.PSEUDO_CIP.ALPHANUMERIC
     11001**DCL     11006--REDEF
QI_1.MESSAGE_LINE_DAD.PSEUDO_CIP.NUMERIC.CB
     11007**DCL     11010--REDEF   11013--REDEF
QI_1.MESSAGE_LINE_DAD.WORD0
     10968**DCL     10969--REDEF
QI_1.OFFSET
     10907**DCL     10912--REDEF
QI_1.OP.CIP
     10268**DCL     10719--REDEF
QI_1.OP.CIP.AUX
     10634**DCL     10705--REDEF
QI_1.OP.CIP.AUX.CD
     10679**DCL     10682--REDEF   10686--REDEF   10689--REDEF
QI_1.OP.CIP.S
     10338**DCL     10409--REDEF
QI_1.OP.CIP.S.CD
     10383**DCL     10386--REDEF   10390--REDEF   10393--REDEF
QI_1.OP.CIP.T
     10486**DCL     10557--REDEF
QI_1.OP.CIP.T.CD
     10531**DCL     10534--REDEF   10538--REDEF   10541--REDEF
QI_1.OP.DATA
     10726**DCL     10730--REDEF
QI_1.OP.FILL_CHAR
     10850**DCL     10853--REDEF
QI_1.OP.INX
     10783**DCL     10787--REDEF   10788--REDEF   10792--REDEF
QI_1.OP.LEN
     10766**DCL     10770--REDEF   10771--REDEF   10775--REDEF   10776--REDEF   10780--REDEF
QI_1.OP.LEN.AUX
     10769**DCL     11670--IMP-SIZ
QI_1.OP.LEN.S
     10767**DCL     11666--IMP-SIZ
PL6.E3A0      #001=QBE$ENABLE File=QBE$ENABLE.:E05TSI                            WED 07/30/97 04:47 Page:46
QI_1.OP.LEN.T
     10768**DCL     11668--IMP-SIZ
QI_1.OP.PICTURE_STRING
     10836**DCL     10839--REDEF   10840--REDEF   10843--REDEF   10844--REDEF   10847--REDEF
QI_1.OP.ROUND
     10869**DCL     10870--REDEF   10871--REDEF
QI_1.OP.SRCH_VRFY_ELEMS
     10805**DCL     10808--REDEF
QI_1.OPENED_COUNT
     11074**DCL     11077--REDEF
QI_1.OTTER_SPACE
     10913**DCL     10918--REDEF
QI_1.PICTURE_STRING
     10919**DCL     10924--REDEF
QI_1.SPECIAL_NAMES
     11102**DCL     11111--REDEF
QI_1.TYPE
     10925**DCL     10930--REDEF
QI_16_BIT_BINARY
     16115**DCL     16185--REDEF
QI_16_BIT_BINARY.CB
     16134**DCL     16137--REDEF   16141--REDEF   16144--REDEF
QI_31_DIGIT_SLS_DISPLAY
     15948**DCL     16018--REDEF
QI_31_DIGIT_SLS_DISPLAY.CD
     15995**DCL     15998--REDEF   16002--REDEF   16005--REDEF
QI_31_DIGIT_ST_PACKED
     16450**DCL     16520--REDEF
QI_31_DIGIT_ST_PACKED.CP
     16483**DCL     16486--REDEF   16490--REDEF   16493--REDEF
QI_32_BIT_BINARY
     16282**DCL     16352--REDEF
QI_32_BIT_BINARY.CB
     16301**DCL     16304--REDEF   16308--REDEF   16311--REDEF
QI_4_CHAR_ALPHANUMERIC
     15780**DCL     15850--REDEF
PL6.E3A0      #001=QBE$ENABLE File=QBE$ENABLE.:E05TSI                            WED 07/30/97 04:47 Page:47
QI_4_CHAR_ALPHANUMERIC.CA
     15785**DCL     15789--REDEF   15792--REDEF   15795--REDEF
QI_ACCUMULATOR_DAD.CIP
     16793**DCL     16864--REDEF
QI_ACCUMULATOR_DAD.CIP.CP
     16824**DCL     16827--REDEF   16831--REDEF   16834--REDEF
QI_ALR.CIP
     11745**DCL     12196--REDEF
QI_ALR.CIP.AUX
     12111**DCL     12182--REDEF
QI_ALR.CIP.AUX.CA
     12114**DCL     12118--REDEF   12121--REDEF   12124--REDEF
QI_ALR.CIP.S
     11815**DCL     11886--REDEF
QI_ALR.CIP.S.CA
     11818**DCL     11822--REDEF   11825--REDEF   11828--REDEF
QI_ALR.CIP.T
     11963**DCL     12034--REDEF
QI_ALR.CIP.T.CA
     11966**DCL     11970--REDEF   11973--REDEF   11976--REDEF
QI_ALR.DATA
     12203**DCL     12207--REDEF
QI_ALR.FILL_CHAR
     12327**DCL     12330--REDEF
QI_ALR.INX
     12260**DCL     12264--REDEF   12265--REDEF   12269--REDEF
QI_ALR.LEN
     12243**DCL     12247--REDEF   12248--REDEF   12252--REDEF   12253--REDEF   12257--REDEF
QI_ALR.PICTURE_STRING
     12313**DCL     12316--REDEF   12317--REDEF   12320--REDEF   12321--REDEF   12324--REDEF
QI_ALR.ROUND
     12346**DCL     12347--REDEF   12348--REDEF
QI_ALR.SRCH_VRFY_ELEMS
     12282**DCL     12285--REDEF
QI_MAT.CIP
     15084**DCL     15535--REDEF
PL6.E3A0      #001=QBE$ENABLE File=QBE$ENABLE.:E05TSI                            WED 07/30/97 04:47 Page:48
QI_MAT.CIP.AUX
     15450**DCL     15521--REDEF
QI_MAT.CIP.AUX.CA
     15453**DCL     15457--REDEF   15460--REDEF   15463--REDEF
QI_MAT.CIP.S
     15154**DCL     15225--REDEF
QI_MAT.CIP.S.CA
     15157**DCL     15161--REDEF   15164--REDEF   15167--REDEF
QI_MAT.CIP.T
     15302**DCL     15373--REDEF
QI_MAT.CIP.T.CA
     15305**DCL     15309--REDEF   15312--REDEF   15315--REDEF
QI_MAT.DATA
     15542**DCL     15546--REDEF
QI_MAT.DEC
     15610**DCL     15614--REDEF   15615--REDEF   15619--REDEF
QI_MAT.FILL_CHAR
     15666**DCL     15669--REDEF
QI_MAT.LEN
     15582**DCL     15586--REDEF   15587--REDEF   15591--REDEF   15592--REDEF   15596--REDEF
QI_MAT.PICTURE_STRING
     15652**DCL     15655--REDEF   15656--REDEF   15659--REDEF   15660--REDEF   15663--REDEF
QI_MAT.ROUND
     15685**DCL     15686--REDEF   15687--REDEF
QI_MAT.SRCH_VRFY_ELEMS
     15621**DCL     15624--REDEF
QI_PICTURE_STRING
     16618**DCL     16688--REDEF
QI_PICTURE_STRING.CA
     16623**DCL     16627--REDEF   16630--REDEF   16633--REDEF
QI_SRCH_VRFY.CIP
     14415**DCL     14866--REDEF
QI_SRCH_VRFY.CIP.AUX
     14781**DCL     14852--REDEF
QI_SRCH_VRFY.CIP.AUX.CA
     14784**DCL     14788--REDEF   14791--REDEF   14794--REDEF
PL6.E3A0      #001=QBE$ENABLE File=QBE$ENABLE.:E05TSI                            WED 07/30/97 04:47 Page:49
QI_SRCH_VRFY.CIP.S
     14485**DCL     14556--REDEF
QI_SRCH_VRFY.CIP.S.CA
     14488**DCL     14492--REDEF   14495--REDEF   14498--REDEF
QI_SRCH_VRFY.CIP.T
     14633**DCL     14704--REDEF
QI_SRCH_VRFY.CIP.T.CA
     14636**DCL     14640--REDEF   14643--REDEF   14646--REDEF
QI_SRCH_VRFY.DATA
     14873**DCL     14877--REDEF
QI_SRCH_VRFY.DEC
     14941**DCL     14945--REDEF   14946--REDEF   14950--REDEF
QI_SRCH_VRFY.FILL_CHAR
     14997**DCL     15000--REDEF
QI_SRCH_VRFY.ROUND
     15016**DCL     15017--REDEF   15018--REDEF
QI_SRCH_VRFY.SRCH_RESULT
     14957**DCL     14960--REDEF   14961--REDEF   14964--REDEF   14965--REDEF   14968--REDEF
QI_SRCH_VRFY.SRCH_VRFY_ARGS
     14881**DCL     14885--REDEF   14886--REDEF   14890--REDEF   14891--REDEF   14895--REDEF
QI_SRCH_VRFY.SRCH_VRFY_ELEMS
     14952**DCL     14955--REDEF
QI_TYPE_BINARY_TARGET.CIP
     13742**DCL     14193--REDEF
QI_TYPE_BINARY_TARGET.CIP.AUX
     14108**DCL     14179--REDEF
QI_TYPE_BINARY_TARGET.CIP.AUX.CA
     14111**DCL     14115--REDEF   14118--REDEF   14121--REDEF
QI_TYPE_BINARY_TARGET.CIP.S
     13812**DCL     13883--REDEF
QI_TYPE_BINARY_TARGET.CIP.S.CA
     13815**DCL     13819--REDEF   13822--REDEF   13825--REDEF
QI_TYPE_BINARY_TARGET.CIP.T
     13960**DCL     14031--REDEF
QI_TYPE_BINARY_TARGET.CIP.T.CB
     13977**DCL     13980--REDEF   13984--REDEF   13987--REDEF
PL6.E3A0      #001=QBE$ENABLE File=QBE$ENABLE.:E05TSI                            WED 07/30/97 04:47 Page:50
QI_TYPE_BINARY_TARGET.DATA
     14200**DCL     14204--REDEF
QI_TYPE_BINARY_TARGET.DEC
     14268**DCL     14272--REDEF   14273--REDEF   14277--REDEF
QI_TYPE_BINARY_TARGET.LEN
     14240**DCL     14244--REDEF   14245--REDEF   14249--REDEF   14250--REDEF   14254--REDEF
QI_TYPE_BINARY_TARGET.PICTURE_STRING
     14310**DCL     14313--REDEF   14314--REDEF   14317--REDEF   14318--REDEF   14321--REDEF
QI_TYPE_BINARY_TARGET.ROUND
     14343**DCL     14344--REDEF   14345--REDEF
QI_TYPE_BINARY_TARGET.SIZE_ERROR
     14329**DCL     14330--REDEF
QI_TYPE_BINARY_TARGET.SRCH_VRFY_ELEMS
     14279**DCL     14282--REDEF
QI_TYPE_DISPLAY_SOURCE.CIP
     12410**DCL     12861--REDEF
QI_TYPE_DISPLAY_SOURCE.CIP.AUX
     12776**DCL     12847--REDEF
QI_TYPE_DISPLAY_SOURCE.CIP.AUX.CA
     12779**DCL     12783--REDEF   12786--REDEF   12789--REDEF
QI_TYPE_DISPLAY_SOURCE.CIP.S
     12480**DCL     12551--REDEF
QI_TYPE_DISPLAY_SOURCE.CIP.S.CD
     12525**DCL     12528--REDEF   12532--REDEF   12535--REDEF
QI_TYPE_DISPLAY_SOURCE.CIP.T
     12628**DCL     12699--REDEF
QI_TYPE_DISPLAY_SOURCE.CIP.T.CA
     12631**DCL     12635--REDEF   12638--REDEF   12641--REDEF
QI_TYPE_DISPLAY_SOURCE.DATA
     12868**DCL     12872--REDEF
QI_TYPE_DISPLAY_SOURCE.DEC
     12936**DCL     12940--REDEF   12941--REDEF   12945--REDEF
QI_TYPE_DISPLAY_SOURCE.LEN
     12908**DCL     12912--REDEF   12913--REDEF   12917--REDEF   12918--REDEF   12922--REDEF
QI_TYPE_DISPLAY_SOURCE.PICTURE_STRING
     12978**DCL     12981--REDEF   12982--REDEF   12985--REDEF   12986--REDEF   12989--REDEF
PL6.E3A0      #001=QBE$ENABLE File=QBE$ENABLE.:E05TSI                            WED 07/30/97 04:47 Page:51
QI_TYPE_DISPLAY_SOURCE.ROUND
     13011**DCL     13012--REDEF   13013--REDEF
QI_TYPE_DISPLAY_SOURCE.SIZE_ERROR
     12997**DCL     12998--REDEF
QI_TYPE_DISPLAY_SOURCE.SRCH_VRFY_ELEMS
     12947**DCL     12950--REDEF
QI_TYPE_DISPLAY_TARGET.CIP
     13076**DCL     13527--REDEF
QI_TYPE_DISPLAY_TARGET.CIP.AUX
     13442**DCL     13513--REDEF
QI_TYPE_DISPLAY_TARGET.CIP.AUX.CA
     13445**DCL     13449--REDEF   13452--REDEF   13455--REDEF
QI_TYPE_DISPLAY_TARGET.CIP.S
     13146**DCL     13217--REDEF
QI_TYPE_DISPLAY_TARGET.CIP.S.CA
     13149**DCL     13153--REDEF   13156--REDEF   13159--REDEF
QI_TYPE_DISPLAY_TARGET.CIP.T
     13294**DCL     13365--REDEF
QI_TYPE_DISPLAY_TARGET.CIP.T.CD
     13339**DCL     13342--REDEF   13346--REDEF   13349--REDEF
QI_TYPE_DISPLAY_TARGET.DATA
     13534**DCL     13538--REDEF
QI_TYPE_DISPLAY_TARGET.DEC
     13602**DCL     13606--REDEF   13607--REDEF   13611--REDEF
QI_TYPE_DISPLAY_TARGET.LEN
     13574**DCL     13578--REDEF   13579--REDEF   13583--REDEF   13584--REDEF   13588--REDEF
QI_TYPE_DISPLAY_TARGET.PICTURE_STRING
     13644**DCL     13647--REDEF   13648--REDEF   13651--REDEF   13652--REDEF   13655--REDEF
QI_TYPE_DISPLAY_TARGET.ROUND
     13677**DCL     13678--REDEF   13679--REDEF
QI_TYPE_DISPLAY_TARGET.SIZE_ERROR
     13663**DCL     13664--REDEF
QI_TYPE_DISPLAY_TARGET.SRCH_VRFY_ELEMS
     13613**DCL     13616--REDEF
RETRY_CURRENT_FORM_FRAME_FIELD
     17247**LABEL   17427--GOTO
PL6.E3A0      #001=QBE$ENABLE File=QBE$ENABLE.:E05TSI                            WED 07/30/97 04:47 Page:52
SO_ENABLE_IT_ALREADY
     17220**LABEL   17199--GOTO
