VERSION E05

PL6.E3A0      #001=QBG$GOTOS File=QBG$GOTOS.:E05TSI                              WED 07/30/97 04:48 Page:1
        1        1        /*M* QBG$GOTOS:  GOTO paragraph-name or section-name [DEPENDING ON...].  */
        2        2        /*T***********************************************************/
        3        3        /*T*                                                         */
        4        4        /*T* Copyright (c) Bull HN Information Systems Inc., 1997    */
        5        5        /*T*                                                         */
        6        6        /*T***********************************************************/
        7        7        /*X* DMC,PLM=4,IND=0,DCI=4,CSI=2,IAD=2,DTI=2,AND,ECI=0,DIN=2,STI=2 */
        8        8
        9        9        /*D*    NAME: QBG$GOTOS
       10       10             PURPOSE: To provide a common module for all GOTO entry points.
       11       11           INTERFACE: QCC$CBD, QCC$CDB
       12       12             ENTRIES: QBG$GOTO, and QBG$GOTODP
       13       13                                               */
       14       14
       15       15        QBG$GOTOS: PROC ALTRET;
       16       16
       17       17        %INCLUDE QI_PERR_C;
       18      185          %INCLUDE LCP_6;
       19      376
       20      377          %INCLUDE QG_MACRO_M;
       21      514          %INCLUDE QI_EQUATES_E;
       22      873        %INCLUDE QI_MACROS_M;
       23     5931        %QI$ALL;
       24    17044
       25    17045    1     DCL QCC$CBD ENTRY(1) ALTRET;
       26    17046    1     DCL QCC$CDB ENTRY(1) ALTRET;
       27    17047    1     DCL QCE$ERROR_INTERNAL ENTRY (4);
       28    17048    1     DCL QCS$SETUP_SOURCE ENTRY;
       29    17049    1     DCL QCS$SETUP_TARGET ENTRY;
       30    17050
       31    17051    1     DCL JUMP_INDEX SBIN;
       32    17052          %QI@OTTER_SPACE;
       33    17080
       34    17081    1   QBG$GOTO: ENTRY ALTRET;
       35    17082                                                /**/
       36    17083        /*D*    NAME: QBG$GOTO
       37    17084             PURPOSE: To transfer control to another location.
PL6.E3A0      #001=QBG$GOTOS File=QBG$GOTOS.:E05TSI                              WED 07/30/97 04:48 Page:2
       38    17085           INTERFACE: None
       39    17086         DESCRIPTION: QBG$GOTO provides FPL with an unconditional transfer
       40    17087                      of control to another location. */
       41    17088                                                /**/
       42    17089
       43    17090
       44    17091            %PROC_ADDRESS ( THING@P = "QI_1.INSTR$ -> QI$OP_GOTO.GOTO@P",
       45    17092            CHECK_FOR_INDIRECTION = NO,
       46    17093            RESULT$ = "QI_1.INSTR$" );
       47    17130                                                /**/
       48    17131                                                /* Set flag for 6FOX                  */
       49    17132                                                /**/
       50    17133    1       ALTRETURN;
       51    17134
       52    17135    1   QBG$GOTODP: ENTRY ALTRET;
       53    17136                                                /**/
       54    17137        /*D*     NAME: QBG$GOTODP
       55    17138              PURPOSE: To handle FPL "go to depending on" clause.
       56    17139            INTERFACE: QCC$CBD, QCC$CDB
       57    17140          DESCRIPTION: This is the FPL go-to-depending-on routine.  If the
       58    17141                       destination transgresses the bounds of the program,
       59    17142                       the instruction pointer is advanced to the next
       60    17143                       instruction, and a return is taken. */
       61    17144                                                /**/
       62    17145
       63    17146    1       CALL QCS$SETUP_SOURCE;
       64    17147
       65    17148    1       QI_1.OP.SIZE_ERROR = %QI#CHECK_FOR_SIZE_ERROR;
       66    17149
       67    17150                                                /**/
       68    17151                                       /* If type is binary, item is COMP-1,
       69    17152                                          or COMP-2, but not necessarily
       70    17153                                          word aligned.  JUMP_INDEX is the
       71    17154                                          (aligned) binary offset into the
       72    17155                                          procedure-name array. */
       73    17156                                                /**/
       74    17157    2       DO CASE ( QI_1.TYPE.S );
PL6.E3A0      #001=QBG$GOTOS File=QBG$GOTOS.:E05TSI                              WED 07/30/97 04:48 Page:3
       75    17158
       76    17159    2         CASE ( %QI#TYPE_BINARY );
       77    17160    2           QI_1.OP.CIP.T_A (0) = QI_31_DIGIT_ST_PACKED_A (0);
       78    17161    2           QI_1.OP.DEC.T = 0;
       79    17162    2           QI_1.OP.DATA.T$ = ADDR ( QI@OTTER_SPACE );
       80    17163    2           CALL QCC$CBD ( QI_1.OP )
       81    17164    2           WHENALTRETURN
       82    17165    3             DO;
       83    17166    3               CALL QCE$ERROR_INTERNAL ( %E$UNEXPECTED_QCC_ALTRET );
       84    17167    3             END;
       85    17168
       86    17169    2           QI_1.OP.CIP.S_A (0) = QI_1.OP.CIP.T_A (0);
       87    17170    2           QI_1.OP.DEC.S = 0;
       88    17171    2           QI_1.OP.DATA.S$ = QI_1.OP.DATA.T$;
       89    17172
       90    17173    2           QI_1.OP.CIP.T_A (0) = QI_16_BIT_BINARY_A (0);
       91    17174    2           QI_1.OP.DATA.T$ = ADDR ( JUMP_INDEX );
       92    17175    2           CALL QCC$CDB ( QI_1.OP ) ALTRET ( DONT_TRANSFER );
       93    17176
       94    17177    2         CASE ( %QI#TYPE_DISPLAY, %QI#TYPE_PACKED );
       95    17178                                                /**/
       96    17179                                                /* Not binary, MUST convert           */
       97    17180                                                /**/
       98    17181    2           QI_1.OP.CIP.T_A (0) = QI_16_BIT_BINARY_A (0);
       99    17182    2           QI_1.OP.DEC.T = 0;
      100    17183    2           QI_1.OP.DATA.T$ = ADDR ( JUMP_INDEX );
      101    17184    2           CALL QCC$CDB ( QI_1.OP ) ALTRET ( DONT_TRANSFER );
      102    17185
      103    17186    2         CASE ( ELSE );
      104    17187                                                /* Internal error:  Barf out.         */
      105    17188    2           CALL QCE$ERROR_INTERNAL ( %E$INTERNAL_COMPILER_ERROR );
      106    17189
      107    17190    2       END;
      108    17191
      109    17192                                                /**/
      110    17193                                       /* If the destination is beyond the
      111    17194                                          boundaries of the program, skip
PL6.E3A0      #001=QBG$GOTOS File=QBG$GOTOS.:E05TSI                              WED 07/30/97 04:48 Page:4
      112    17195                                          to the next instruction. */
      113    17196                                                /**/
      114    17197    1       IF ( JUMP_INDEX > QI_1.INSTR$ -> QI$OP_GOTODP.PROCEDURE_NAME_COUNT )
      115    17198    1         OR ( JUMP_INDEX <= 0 )
      116    17199    1       THEN
      117    17200    1   DONT_TRANSFER:
      118    17201    2         DO;
      119    17202    2           QI_1.INSTR$ = PINCRW ( QI_1.INSTR$,
      120    17203    2             QI_1.INSTR$ -> QI$OP_GOTODP.PROCEDURE_NAME_COUNT
      121    17204    2             + 3 );
      122    17205    2           RETURN;
      123    17206    2         END DONT_TRANSFER;
      124    17207
      125    17208                                                /**/
      126    17209                                       /* Go to the desired location.  First,
      127    17210                                          increment the source descriptor
      128    17211                                          pointer by the destination procedure
      129    17212                                          offset.  Then set the instruction
      130    17213                                          pointer to the new instruction. */
      131    17214                                                /**/
      132    17215
      133    17216            %PROC_ADDRESS ( THING@P =
      134    17217            "QI_1.INSTR$ -> QI$OP_GOTODP.PROCEDURE_NAME_A@P ( JUMP_INDEX - 1 )",
      135    17218            CHECK_FOR_INDIRECTION = NO,
      136    17219            RESULT$ = "QI_1.INSTR$" );
      137    17256
      138    17257    1       ALTRETURN;
      139    17258
      140    17259    1   END QBG$GOTOS;

PL6.E3A0      #001=QBG$GOTOS File=QBG$GOTOS.:E05TSI                              WED 07/30/97 04:48 Page:5
--  Include file information  --

   QI_MACROS_M.:E05TOU  is referenced.
   QI_EQUATES_E.:E05TOU  is referenced.
   QG_MACRO_M.:E05TOU  is referenced.
   LCP_6.:E05TOU  cannot be made into a system file and is referenced.
   QI_PERR_C.:E05TOU  is referenced.
   G_LCP6_E.:E05TOU  was found in the system file and is referenced.
   GT_LCP6_M.:E05TOU  was found in the system file and is referenced.
   KI_CP6.:E05TOU  was found in the system file and is referenced.
   GF_LCP6_M.:E05TOU  was found in the system file and is referenced.
   GM_LCP6_M.:E05TOU  was found in the system file and is referenced.
   GU_LCP6_M.:E05TOU  was found in the system file and is referenced.
   GJ_LCP6_M.:E05TOU  was found in the system file and is referenced.
   GH_LCP6_M.:E05TOU  was found in the system file and is referenced.
      No diagnostics issued in procedure QBG$GOTOS.

   Procedure QBG$GOTOS requires 209 words for executable code.
   Procedure QBG$GOTOS requires 14 words of local(AUTO) storage.

    No errors detected in file QBG$GOTOS.:E05TSI    .

PL6.E3A0      #001=QBG$GOTOS File=QBG$GOTOS.:E05TSI                              WED 07/30/97 04:48 Page:6

 Object Unit name= QBG$GOTOS                                  File name= QBG$GOTOS.:E05TOU
 UTS= JUL 30 '97 04:48:19.68 WED                              Compiler= PL-6/E31         Sev=      00
 SharedLib= :SHARED_LCP6_SYSTEM                               Alt SharedLib=


    ****  Control sections  ****

 Sect   Type Bound  Init  Size HexSiz  Section name
    0   Proc  even  none   209     D1  QBG$GOTOS
    1  RoData even  none     8      8  QBG$GOTOS

    ****  Entry defs  ****

                              Check   Calling
                             calling  sequence
  Sect HexLoc Primary Altret sequence   type   Parms  Name
     0      0   yes    yes     yes      Std        0  QBG$GOTOS
     0      7          yes     yes      Std        0  QBG$GOTO
     0     1C          yes     yes      Std        0  QBG$GOTODP

  ****  Entry refs  ****

         Check        Calling
        calling       sequence
Altret sequence SRef   type   Args  Name
         yes           Std       0 QCS$SETUP_SOURCE
 yes     yes           Std       1 QCC$CBD
         yes           Std       4 QCE$ERROR_INTERNAL
 yes     yes           Std       1 QCC$CDB
                       nStd      0 X6A_AUTO_0
                       nStd      0 X6A_AALT
                       nStd      0 X6A_ARET
PL6.E3A0      #001=QBG$GOTOS File=QBG$GOTOS.:E05TSI                              WED 07/30/97 04:48 Page:7

  ****  Data refs  ****

  Flags:  r = read only, s = secondary
Flgs Name                             Flgs Name                             Flgs Name
     QI_1                                  QI_4_CHAR_ALPHANUMERIC                QI_31_DIGIT_SLS_DISPLAY
     QI_16_BIT_BINARY                      QI_32_BIT_BINARY                      QI_31_DIGIT_ST_PACKED
     QI_PICTURE_STRING                r    G$ROS$
PL6.E3A0      #001=QBG$GOTOS File=QBG$GOTOS.:E05TSI                              WED 07/30/97 04:48 Page:8


        1        1        /*M* QBG$GOTOS:  GOTO paragraph-name or section-name [DEPENDING ON...].  */
        2        2        /*T***********************************************************/
        3        3        /*T*                                                         */
        4        4        /*T* Copyright (c) Bull HN Information Systems Inc., 1997    */
        5        5        /*T*                                                         */
        6        6        /*T***********************************************************/
        7        7        /*X* DMC,PLM=4,IND=0,DCI=4,CSI=2,IAD=2,DTI=2,AND,ECI=0,DIN=2,STI=2 */
        8        8
        9        9        /*D*    NAME: QBG$GOTOS
       10       10             PURPOSE: To provide a common module for all GOTO entry points.
       11       11           INTERFACE: QCC$CBD, QCC$CDB
       12       12             ENTRIES: QBG$GOTO, and QBG$GOTODP
       13       13                                               */
       14       14
       15       15        QBG$GOTOS: PROC ALTRET;

     15   0 000000  D380 0000 0000  xent QBG$GOTOS       LNJ,B5   X6A_AUTO_0
          0 000003       000E 0000                       DC       14,0
          0 000005  0F81 0006                            B        s:17111,PREL

       16       16
       17       17        %INCLUDE QI_PERR_C;
       18      185          %INCLUDE LCP_6;
       19      376
       20      377          %INCLUDE QG_MACRO_M;
       21      514          %INCLUDE QI_EQUATES_E;
       22      873        %INCLUDE QI_MACROS_M;
       23     5931        %QI$ALL;
       24    17044
       25    17045    1     DCL QCC$CBD ENTRY(1) ALTRET;
       26    17046    1     DCL QCC$CDB ENTRY(1) ALTRET;
       27    17047    1     DCL QCE$ERROR_INTERNAL ENTRY (4);
       28    17048    1     DCL QCS$SETUP_SOURCE ENTRY;
       29    17049    1     DCL QCS$SETUP_TARGET ENTRY;
       30    17050
       31    17051    1     DCL JUMP_INDEX SBIN;
PL6.E3A0      #001=QBG$GOTOS File=QBG$GOTOS.:E05TSI                              WED 07/30/97 04:48 Page:9
       32    17052          %QI@OTTER_SPACE;
       33    17080
       34    17081    1   QBG$GOTO: ENTRY ALTRET;

  17081   0 000007  D380 0000 0000  xent QBG$GOTO        LNJ,B5   X6A_AUTO_0
          0 00000A       000E 0000                       DC       14,0

       35    17082                                                /**/
       36    17083        /*D*    NAME: QBG$GOTO
       37    17084             PURPOSE: To transfer control to another location.
       38    17085           INTERFACE: None
       39    17086         DESCRIPTION: QBG$GOTO provides FPL with an unconditional transfer
       40    17087                      of control to another location. */
       41    17088                                                /**/
       42    17089
       43    17090
       44    17091            %PROC_ADDRESS ( THING@P = "QI_1.INSTR$ -> QI$OP_GOTO.GOTO@P",
       45    17092            CHECK_FOR_INDIRECTION = NO,
       46    17093            RESULT$ = "QI_1.INSTR$" );

  17111   0 00000C  EC80 0000 0006  xsym                 LDB,B6   QI_1+6
          0 00000F  B846 0001                            LDR,R3   1,B6
          0 000011  F853                                 LDR,R7   R3
          0 000012  6C00                                 LDV,R6   0
          0 000013  8400 0000 0002  xsym                 AID      QI_1+2
          0 000016  8D00 0000 0006  xsym                 SDI      QI_1+6

       47    17130                                                /**/
       48    17131                                                /* Set flag for 6FOX                  */
       49    17132                                                /**/
       50    17133    1       ALTRETURN;

  17133   0 000019  C380 0000 0000  xent                 LNJ,B4   X6A_AALT

       51    17134
       52    17135    1   QBG$GOTODP: ENTRY ALTRET;

PL6.E3A0      #001=QBG$GOTOS File=QBG$GOTOS.:E05TSI                              WED 07/30/97 04:48 Page:10
  17135   0 00001C  D380 0000 0000  xent QBG$GOTODP      LNJ,B5   X6A_AUTO_0
          0 00001F       000E 0000                       DC       14,0

       53    17136                                                /**/
       54    17137        /*D*     NAME: QBG$GOTODP
       55    17138              PURPOSE: To handle FPL "go to depending on" clause.
       56    17139            INTERFACE: QCC$CBD, QCC$CDB
       57    17140          DESCRIPTION: This is the FPL go-to-depending-on routine.  If the
       58    17141                       destination transgresses the bounds of the program,
       59    17142                       the instruction pointer is advanced to the next
       60    17143                       instruction, and a return is taken. */
       61    17144                                                /**/
       62    17145
       63    17146    1       CALL QCS$SETUP_SOURCE;

  17146   0 000021  CBF0 0000                            LAB,B4   0,IMO
          0 000023  E380 0000 0000  xent                 LNJ,B6   QCS$SETUP_SOURCE
          0 000026       0001                            DC       s:17148,PREL

       64    17147
       65    17148    1       QI_1.OP.SIZE_ERROR = %QI#CHECK_FOR_SIZE_ERROR;

  17148   0 000027  6C01                                 LDV,R6   1
          0 000028  EF00 0000 0030  xsym                 STR,R6   QI_1+48

       66    17149
       67    17150                                                /**/
       68    17151                                       /* If type is binary, item is COMP-1,
       69    17152                                          or COMP-2, but not necessarily
       70    17153                                          word aligned.  JUMP_INDEX is the
       71    17154                                          (aligned) binary offset into the
       72    17155                                          procedure-name array. */
       73    17156                                                /**/
       74    17157    2       DO CASE ( QI_1.TYPE.S );

  17157   0 00002B  B800 0000 0050  xsym                 LDR,R3   QI_1+80
          0 00002E  3D03                                 CMV,R3   3
PL6.E3A0      #001=QBG$GOTOS File=QBG$GOTOS.:E05TSI                              WED 07/30/97 04:48 Page:11
          0 00002F  0281 006A                            BGE      s:17188,PREL
          0 000031  A830 0000 0037  00                   LDR,R2   s:17157+12,R3
          0 000034  83A0 0000 003A  00                   JMP      s:17160,R2
          0 000037       0047                            DC       s:17181,PREL
          0 000038       0047                            DC       s:17181,PREL
          0 000039       0000                            DC       s:17160,PREL

       75    17158
       76    17159    2         CASE ( %QI#TYPE_BINARY );

       77    17160    2           QI_1.OP.CIP.T_A (0) = QI_31_DIGIT_ST_PACKED_A (0);

  17160   0 00003A  D800 0000 0000  xsym                 LDR,R5   QI_31_DIGIT_ST_PACKED
          0 00003D  DF00 0000 001C  xsym                 STR,R5   QI_1+28

       78    17161    2           QI_1.OP.DEC.T = 0;

  17161   0 000040  8700 0000 002A  xsym                 CL       QI_1+42

       79    17162    2           QI_1.OP.DATA.T$ = ADDR ( QI@OTTER_SPACE );

  17162   0 000043  EBC7 0005                            LAB,B6   QI@OTTER_SPACE,AUTO
          0 000045  EF80 0000 0022  xsym                 STB,B6   QI_1+34

       80    17163    2           CALL QCC$CBD ( QI_1.OP )

  17163   0 000048  BB80 0000 0000  01                   LAB,B3   0
          0 00004B  CBF0 0100                            LAB,B4   256,IMO
          0 00004D  E380 0000 0000  xent                 LNJ,B6   QCC$CBD
          0 000050       0003                            DC       s:17166,PREL
          0 000051  0F81 000A                            B        s:17169,PREL

       81    17164    2           WHENALTRETURN
       82    17165    3             DO;

       83    17166    3               CALL QCE$ERROR_INTERNAL ( %E$UNEXPECTED_QCC_ALTRET );

PL6.E3A0      #001=QBG$GOTOS File=QBG$GOTOS.:E05TSI                              WED 07/30/97 04:48 Page:12
  17166   0 000053  BB80 0000 0003  01                   LAB,B3   +3
          0 000056  CBF0 0100                            LAB,B4   256,IMO
          0 000058  E380 0000 0000  xent                 LNJ,B6   QCE$ERROR_INTERNAL
          0 00005B       0001                            DC       s:17169,PREL

       84    17167    3             END;

       85    17168
       86    17169    2           QI_1.OP.CIP.S_A (0) = QI_1.OP.CIP.T_A (0);

  17169   0 00005C  E800 0000 001C  xsym                 LDR,R6   QI_1+28
          0 00005F  EF00 0000 001A  xsym                 STR,R6   QI_1+26

       87    17170    2           QI_1.OP.DEC.S = 0;

  17170   0 000062  8700 0000 0029  xsym                 CL       QI_1+41

       88    17171    2           QI_1.OP.DATA.S$ = QI_1.OP.DATA.T$;

  17171   0 000065  EC80 0000 0022  xsym                 LDB,B6   QI_1+34
          0 000068  EF80 0000 0020  xsym                 STB,B6   QI_1+32

       89    17172
       90    17173    2           QI_1.OP.CIP.T_A (0) = QI_16_BIT_BINARY_A (0);

  17173   0 00006B  E800 0000 0000  xsym                 LDR,R6   QI_16_BIT_BINARY
          0 00006E  EF00 0000 001C  xsym                 STR,R6   QI_1+28

       91    17174    2           QI_1.OP.DATA.T$ = ADDR ( JUMP_INDEX );

  17174   0 000071  DBC7 0004                            LAB,B5   JUMP_INDEX,AUTO
          0 000073  DF80 0000 0022  xsym                 STB,B5   QI_1+34

       92    17175    2           CALL QCC$CDB ( QI_1.OP ) ALTRET ( DONT_TRANSFER );

  17175   0 000076  BB80 0000 0000  01                   LAB,B3   0
          0 000079  CBF0 0100                            LAB,B4   256,IMO
PL6.E3A0      #001=QBG$GOTOS File=QBG$GOTOS.:E05TSI                              WED 07/30/97 04:48 Page:13
          0 00007B  E380 0000 0000  xent                 LNJ,B6   QCC$CDB
          0 00007E       0032                            DC       s:17201,PREL
          0 00007F  0F81 0023                            B        s:17197,PREL

       93    17176
       94    17177    2         CASE ( %QI#TYPE_DISPLAY, %QI#TYPE_PACKED );

       95    17178                                                /**/
       96    17179                                                /* Not binary, MUST convert           */
       97    17180                                                /**/
       98    17181    2           QI_1.OP.CIP.T_A (0) = QI_16_BIT_BINARY_A (0);

  17181   0 000081  D800 0000 0000  xsym                 LDR,R5   QI_16_BIT_BINARY
          0 000084  DF00 0000 001C  xsym                 STR,R5   QI_1+28

       99    17182    2           QI_1.OP.DEC.T = 0;

  17182   0 000087  8700 0000 002A  xsym                 CL       QI_1+42

      100    17183    2           QI_1.OP.DATA.T$ = ADDR ( JUMP_INDEX );

  17183   0 00008A  EBC7 0004                            LAB,B6   JUMP_INDEX,AUTO
          0 00008C  EF80 0000 0022  xsym                 STB,B6   QI_1+34

      101    17184    2           CALL QCC$CDB ( QI_1.OP ) ALTRET ( DONT_TRANSFER );

  17184   0 00008F  BB80 0000 0000  01                   LAB,B3   0
          0 000092  CBF0 0100                            LAB,B4   256,IMO
          0 000094  E380 0000 0000  xent                 LNJ,B6   QCC$CDB
          0 000097       0019                            DC       s:17201,PREL
          0 000098  0F81 000A                            B        s:17197,PREL

      102    17185
      103    17186    2         CASE ( ELSE );

      104    17187                                                /* Internal error:  Barf out.         */
      105    17188    2           CALL QCE$ERROR_INTERNAL ( %E$INTERNAL_COMPILER_ERROR );
PL6.E3A0      #001=QBG$GOTOS File=QBG$GOTOS.:E05TSI                              WED 07/30/97 04:48 Page:14

  17188   0 00009A  BB80 0000 0006  01                   LAB,B3   +6
          0 00009D  CBF0 0100                            LAB,B4   256,IMO
          0 00009F  E380 0000 0000  xent                 LNJ,B6   QCE$ERROR_INTERNAL
          0 0000A2       0001                            DC       s:17197,PREL

      106    17189
      107    17190    2       END;

      108    17191
      109    17192                                                /**/
      110    17193                                       /* If the destination is beyond the
      111    17194                                          boundaries of the program, skip
      112    17195                                          to the next instruction. */
      113    17196                                                /**/
      114    17197    1       IF ( JUMP_INDEX > QI_1.INSTR$ -> QI$OP_GOTODP.PROCEDURE_NAME_COUNT )

  17197   0 0000A3  EC80 0000 0006  xsym                 LDB,B6   QI_1+6
          0 0000A6  E847 0004                            LDR,R6   JUMP_INDEX,AUTO
          0 0000A8  6801 0005                            BLZ,R6   s:17197+11,PREL
          0 0000AA  E946 0002                            CMR,R6   2,B6
          0 0000AC  0301 0003                            BG       s:17201,PREL
          0 0000AE  6A01 0014                            BGZ,R6   s:17237,PREL

      115    17198    1         OR ( JUMP_INDEX <= 0 )
      116    17199    1       THEN
      117    17200    1   DONT_TRANSFER:
      118    17201    2         DO;

  17201   0                              DONT_TRANSFER   null
      119    17202    2           QI_1.INSTR$ = PINCRW ( QI_1.INSTR$,

  17202   0 0000B0  EC80 0000 0006  xsym DONT_TRANSFER   LDB,B6   QI_1+6
          0 0000B3  B846 0002                            LDR,R3   2,B6
          0 0000B5  F853                                 LDR,R7   R3
          0 0000B6  6C00                                 LDV,R6   0
          0 0000B7  8400 0000 0006  xsym                 AID      QI_1+6
PL6.E3A0      #001=QBG$GOTOS File=QBG$GOTOS.:E05TSI                              WED 07/30/97 04:48 Page:15
          0 0000BA  8470 0000 0003                       AID      3,IMO
          0 0000BD  8D00 0000 0006  xsym                 SDI      QI_1+6

      120    17203    2             QI_1.INSTR$ -> QI$OP_GOTODP.PROCEDURE_NAME_COUNT
      121    17204    2             + 3 );
      122    17205    2           RETURN;

  17205   0 0000C0  C380 0000 0000  xent                 LNJ,B4   X6A_ARET

      123    17206    2         END DONT_TRANSFER;
      124    17207
      125    17208                                                /**/
      126    17209                                       /* Go to the desired location.  First,
      127    17210                                          increment the source descriptor
      128    17211                                          pointer by the destination procedure
      129    17212                                          offset.  Then set the instruction
      130    17213                                          pointer to the new instruction. */
      131    17214                                                /**/
      132    17215
      133    17216            %PROC_ADDRESS ( THING@P =
      134    17217            "QI_1.INSTR$ -> QI$OP_GOTODP.PROCEDURE_NAME_A@P ( JUMP_INDEX - 1 )",
      135    17218            CHECK_FOR_INDIRECTION = NO,
      136    17219            RESULT$ = "QI_1.INSTR$" );

  17237   0 0000C3  B856                                 LDR,R3   R6
          0 0000C4  3E02                                 ADV,R3   2
          0 0000C5  A836                                 LDR,R2   ,B6,R3
          0 0000C6  F852                                 LDR,R7   R2
          0 0000C7  6C00                                 LDV,R6   0
          0 0000C8  8400 0000 0002  xsym                 AID      QI_1+2
          0 0000CB  8D00 0000 0006  xsym                 SDI      QI_1+6

      137    17256
      138    17257    1       ALTRETURN;

  17257   0 0000CE  C380 0000 0000  xent                 LNJ,B4   X6A_AALT
      139    17258
PL6.E3A0      #001=QBG$GOTOS File=QBG$GOTOS.:E05TSI                              WED 07/30/97 04:48 Page:16
      140    17259    1   END QBG$GOTOS;

PL6.E3A0      #001=QBG$GOTOS File=QBG$GOTOS.:E05TSI                              WED 07/30/97 04:48 Page:17
--  Include file information  --

   QI_MACROS_M.:E05TOU  is referenced.
   QI_EQUATES_E.:E05TOU  is referenced.
   QG_MACRO_M.:E05TOU  is referenced.
   LCP_6.:E05TOU  cannot be made into a system file and is referenced.
   QI_PERR_C.:E05TOU  is referenced.
   G_LCP6_E.:E05TOU  was found in the system file and is referenced.
   GT_LCP6_M.:E05TOU  was found in the system file and is referenced.
   KI_CP6.:E05TOU  was found in the system file and is referenced.
   GF_LCP6_M.:E05TOU  was found in the system file and is referenced.
   GM_LCP6_M.:E05TOU  was found in the system file and is referenced.
   GU_LCP6_M.:E05TOU  was found in the system file and is referenced.
   GJ_LCP6_M.:E05TOU  was found in the system file and is referenced.
   GH_LCP6_M.:E05TOU  was found in the system file and is referenced.
      No diagnostics issued in procedure QBG$GOTOS.
PL6.E3A0      #001=QBG$GOTOS File=QBG$GOTOS.:E05TSI                              WED 07/30/97 04:48 Page:18

 **** Variables and constants ****

  ****  Auto variables  ****

  ****  Scalars and arrays  ****
HexLoc.c.b A Datatyp(siz) R M Lvl/name                 HexLoc.c.b A Datatyp(siz) R M Lvl/name

     4-0-0/w SBIN(16)    r     1 JUMP_INDEX                 5-0-0/w STRC(128)   r     1 QI@OTTER_SPACE

  ****  SYMREF variables  ****

  ****  Scalars and arrays  ****
HexLoc.c.b A Datatyp(siz) R M Lvl/name                 HexLoc.c.b A Datatyp(siz) R M Lvl/name

     0-0-0/d STRC(2576)  r     1 QI_1                       0-0-0/d STRC(32)    r     1 QI_16_BIT_BINARY
     0-0-0/d UBIN(16)    r     1 QI_16_BIT_BINARY_A(0:1)
     0-0-0/d STRC(32)    r     1 QI_31_DIGIT_ST_PACKED
     0-0-0/d UBIN(16)    r     1 QI_31_DIGIT_ST_PACKED_A(0:1)

  ****  BASED and DCB variables  ****

  ****  Scalars and arrays  ****
HexLoc.c.b A Datatyp(siz) R M Lvl/name                 HexLoc.c.b A Datatyp(siz) R M Lvl/name

     0-0-0/w STRC(48)    r     1 QI$OP_GOTO                 0-0-0/w STRC(64)    r     1 QI$OP_GOTODP
     0-0-0/c ASTR(8)     r     1 QI$VARIABLE_IDENTIFIER


   Procedure QBG$GOTOS requires 209 words for executable code.
   Procedure QBG$GOTOS requires 14 words of local(AUTO) storage.

    No errors detected in file QBG$GOTOS.:E05TSI    .
PL6.E3A0      #001=QBG$GOTOS File=QBG$GOTOS.:E05TSI                              WED 07/30/97 04:48 Page:19
          *** CROSS REFERENCE LISTING ***
**     DENOTES     IDENTIFIER DEFINITION
<<                 IDENTIFIER'S VALUE SET
>>                 IDENTIFIER'S VALUE USED
<>                 IDENTIFIER SET AND/OR USED
--                 IDENTIFIER REFERENCED
PL6.E3A0      #001=QBG$GOTOS File=QBG$GOTOS.:E05TSI                              WED 07/30/97 04:48 Page:20
          MINI XREF LISTING

DONT_TRANSFER
     17201**LABEL   17175--CALLALT 17184--CALLALT
JUMP_INDEX
     17051**DCL     17174--ASSIGN  17183--ASSIGN  17197>>IF      17197>>IF      17237>>ASSIGN
QCC$CBD
     17045**DCL-ENT 17163--CALL
QCC$CDB
     17046**DCL-ENT 17175--CALL    17184--CALL
QCE$ERROR_INTERNAL
     17047**DCL-ENT 17166--CALL    17188--CALL
QCS$SETUP_SOURCE
     17048**DCL-ENT 17146--CALL
QGB_PARAM.DVE.DVBYTE.VFC
     11528**DCL     11529--REDEF
QGB_PARAM.DVE.EOMCHAR
     11540**DCL     11541--REDEF
QGB_PARAM.MSG$
     11522**DCL     11523--REDEF
QGB_PARAM.UHDR$
     11547**DCL     11548--REDEF
QI$ACTIVATION_STATUS
      9286**DCL      9292--REDEF
QI$CIP
      8127**DCL      8197--REDEF
QI$CIP.CA
      8132**DCL      8136--REDEF    8139--REDEF    8142--REDEF
QI$COBOL_DAD.PSEUDO_CIP
      8371**DCL      8396--REDEF
QI$COBOL_DAD.PSEUDO_CIP.ALPHANUMERIC
      8373**DCL      8378--REDEF
QI$COBOL_DAD.PSEUDO_CIP.NUMERIC.CB
      8379**DCL      8382--REDEF    8385--REDEF
PL6.E3A0      #001=QBG$GOTOS File=QBG$GOTOS.:E05TSI                              WED 07/30/97 04:48 Page:21
QI$COBOL_DAD.VARIABLE_LENGTH_ITEMS
      8407**DCL      8423--REDEF    8431--REDEF    8439--REDEF
QI$COBOL_DAD.VARIABLE_LENGTH_ITEMS.LEVEL_MULTIPLIERS
      8408**DCL      8418--REDEF    8421--REDEF
QI$COBOL_DAD.WORD0
      8335**DCL      8336--REDEF    8350--REDEF
QI$COBOL_DAD_P_BITS.P
      8475**DCL      8481--REDEF
QI$CONDITION_CONTROL_BLOCK.LIST_A@P
      7961**DCL      7962--REDEF
QI$CONDITION_CONTROL_BLOCK.WORD0_FLAGS
      7957**DCL      7960--REDEF
QI$CONDITION_LEGAL_BLOCK.ARRAY@P
      7994**DCL      7995--REDEF    7996--REDEF
QI$DAD.PSEUDO_CIP
      8274**DCL      8299--REDEF
QI$DAD.PSEUDO_CIP.ALPHANUMERIC
      8276**DCL      8281--REDEF
QI$DAD.PSEUDO_CIP.NUMERIC.CB
      8282**DCL      8285--REDEF    8288--REDEF
QI$DAD.WORD0
      8243**DCL      8244--REDEF
QI$ERROR_MESSAGE_LINE
     11635**DCL     11637--REDEF
QI$ERROR_STATUS
     11632**DCL     11634--REDEF
QI$FIELD_DAD.ELEMENTARY_ITEM.P
      8689**DCL      8696--REDEF
QI$FIELD_DAD.ONE_DIMENSIONAL_ITEM.P
      8709**DCL      8716--REDEF
QI$FIELD_DAD.PSEUDO_CIP
      8616**DCL      8641--REDEF
QI$FIELD_DAD.PSEUDO_CIP.ALPHANUMERIC
      8618**DCL      8623--REDEF
QI$FIELD_DAD.PSEUDO_CIP.NUMERIC.CB
      8624**DCL      8627--REDEF    8630--REDEF
PL6.E3A0      #001=QBG$GOTOS File=QBG$GOTOS.:E05TSI                              WED 07/30/97 04:48 Page:22
QI$FIELD_DAD.TWO_DIMENSIONAL_ITEM.P
      8729**DCL      8736--REDEF
QI$FIELD_DAD.VARIABLE_LENGTH_ITEMS
      8672**DCL      8688--REDEF    8706--REDEF    8724--REDEF
QI$FIELD_DAD.VARIABLE_LENGTH_ITEMS.LEVEL_MULTIPLIERS
      8673**DCL      8683--REDEF    8686--REDEF
QI$FIELD_DAD.WORD0
      8568**DCL      8569--REDEF
QI$FIELD_DAD.WORD0_FLAGS.IO_FLAGS
      8572**DCL      8577--REDEF
QI$FIELD_DAD_P.P
      8770**DCL      8777--REDEF
QI$FIELD_STATUS.INDICATORS
      9436**DCL      9468--REDEF
QI$FIELD_STATUS.INDICATORS.ENABLED_FLAGS
      9440**DCL      9445--REDEF
QI$FIELD_STATUS.INDICATORS.OPEN_FLAGS
      9452**DCL      9459--REDEF
QI$FIELD_STATUS.INDICATORS.STATE_FLAGS
      9446**DCL      9451--REDEF
QI$FILE.WORD0
      8892**DCL      8893--REDEF
QI$FILE_STATUS.INDICATORS
      9729**DCL      9761--REDEF
QI$FILE_STATUS.INDICATORS.ENABLED_FLAGS
      9733**DCL      9738--REDEF
QI$FILE_STATUS.INDICATORS.OPEN_FLAGS
      9745**DCL      9752--REDEF
QI$FILE_STATUS.INDICATORS.STATE_FLAGS
      9739**DCL      9744--REDEF
QI$FORM_FILE.USE_PROCEDURE
      8992**DCL      8999--REDEF
QI$FORM_FILE.WORD0
      8946**DCL      8947--REDEF
QI$FORM_STATUS.INDICATORS
      9850**DCL      9882--REDEF
PL6.E3A0      #001=QBG$GOTOS File=QBG$GOTOS.:E05TSI                              WED 07/30/97 04:48 Page:23
QI$FORM_STATUS.INDICATORS.ENABLED_FLAGS
      9854**DCL      9859--REDEF
QI$FORM_STATUS.INDICATORS.OPEN_FLAGS
      9866**DCL      9873--REDEF
QI$FORM_STATUS.INDICATORS.STATE_FLAGS
      9860**DCL      9865--REDEF
QI$FRAME.WORD0
      9107**DCL      9108--REDEF
QI$FRAME_STATUS.INDICATORS
     10079**DCL     10111--REDEF
QI$FRAME_STATUS.INDICATORS.ENABLED_FLAGS
     10083**DCL     10088--REDEF
QI$FRAME_STATUS.INDICATORS.OPEN_FLAGS
     10095**DCL     10102--REDEF
QI$FRAME_STATUS.INDICATORS.STATE_FLAGS
     10089**DCL     10094--REDEF
QI$GZ_FIELD.DESCRIPTION.IO_FLAGS
     16961**DCL     16966--REDEF
QI$IDENTIFIER
     11638**DCL     11640--REDEF
QI$INDICATORS
      9350**DCL      9380--REDEF
QI$INDICATORS.ENABLED_FLAGS
      9356**DCL      9361--REDEF
QI$INDICATORS.OPEN_FLAGS
      9368**DCL      9375--REDEF
QI$INDICATORS.STATE_FLAGS
      9362**DCL      9367--REDEF
QI$MAJOR_NODE.WORD0
      8806**DCL      8807--REDEF
QI$MAJOR_STATUS.INDICATORS
      9529**DCL      9561--REDEF
QI$MAJOR_STATUS.INDICATORS.ENABLED_FLAGS
      9533**DCL      9538--REDEF
QI$MAJOR_STATUS.INDICATORS.OPEN_FLAGS
      9545**DCL      9552--REDEF
PL6.E3A0      #001=QBG$GOTOS File=QBG$GOTOS.:E05TSI                              WED 07/30/97 04:48 Page:24
QI$MAJOR_STATUS.INDICATORS.STATE_FLAGS
      9539**DCL      9544--REDEF
QI$MESSAGE_TYPE
     11629**DCL     11631--REDEF
QI$MINOR_NODE.WORD0
      8849**DCL      8850--REDEF
QI$MINOR_STATUS.INDICATORS
      9622**DCL      9654--REDEF
QI$MINOR_STATUS.INDICATORS.ENABLED_FLAGS
      9626**DCL      9631--REDEF
QI$MINOR_STATUS.INDICATORS.OPEN_FLAGS
      9638**DCL      9645--REDEF
QI$MINOR_STATUS.INDICATORS.STATE_FLAGS
      9632**DCL      9637--REDEF
QI$OP_ACCEPT.DATANAME@P
      6037**DCL      6038--REDEF
QI$OP_CALL.EPTR$
      6209**DCL      6210--REDEF
QI$OP_CLEAR.IO_FLAGS
      6242**DCL      6245--REDEF
QI$OP_DISPLAY.FIELD_A@P
      6509**DCL      6510--REDEF
QI$OP_ENABLE.IO_FLAGS
      6596**DCL      6599--REDEF
QI$OP_GOTO.GOTO@P
      6628**DCL     17111>>ASSIGN
QI$OP_GOTODP.PROCEDURE_NAME_A@P
      6658**DCL     17237>>ASSIGN
QI$OP_GOTODP.PROCEDURE_NAME_COUNT
      6657**DCL     17197>>IF      17202>>ASSIGN
QI$OP_IFCLS.ATTRIBUTE.TYPE
      6689**DCL      6694--REDEF
QI$OP_INSPECT.TALLYING_FOR_ITEM@P
      6923**DCL      6924--REDEF
QI$OP_INSPECT.TALLYING_INITIAL_ITEM@P
      6925**DCL      6926--REDEF
PL6.E3A0      #001=QBG$GOTOS File=QBG$GOTOS.:E05TSI                              WED 07/30/97 04:48 Page:25
QI$OP_INSPECT.TALLYING_ITEM@P
      6921**DCL      6922--REDEF
QI$OP_OPEN.IO_FLAGS
      7483**DCL      7486--REDEF
QI$OP_PERFM.BINARY_ITERATION_COUNT@P
      7521**DCL      7522--REDEF
QI$PSEUDO_CIP
      8022**DCL      8046--REDEF
QI$PSEUDO_CIP.ALPHANUMERIC
      8026**DCL      8031--REDEF
QI$PSEUDO_CIP.NUMERIC.CB
      8032**DCL      8035--REDEF    8038--REDEF
QI$TERMINAL_ATTRIBUTES
      9243**DCL      9256--REDEF
QI$TRAN_FILE.WORD0
      9028**DCL      9029--REDEF
QI$TRAN_STATUS.INDICATORS
      9963**DCL      9995--REDEF
QI$TRAN_STATUS.INDICATORS.ENABLED_FLAGS
      9967**DCL      9972--REDEF
QI$TRAN_STATUS.INDICATORS.OPEN_FLAGS
      9979**DCL      9986--REDEF
QI$TRAN_STATUS.INDICATORS.STATE_FLAGS
      9973**DCL      9978--REDEF
QI$VARIABLE_IDENTIFIER.LENGTH
     11642**DCL     11643--IMP-SIZ
QI@OTTER_SPACE
     17067**DCL     17069--REDEF   17070--REDEF   17162--ASSIGN
QI_1.BASE
     10171**DCL     10178--REDEF
QI_1.BASE.PROC$
     10174**DCL     17111>>ASSIGN  17237>>ASSIGN
QI_1.CURRENT.FILE$
     11062**DCL     11064--REDEF   11066--REDEF
QI_1.CURRENT.FILE_STATUS$
     11068**DCL     11070--REDEF   11072--REDEF
PL6.E3A0      #001=QBG$GOTOS File=QBG$GOTOS.:E05TSI                              WED 07/30/97 04:48 Page:26
QI_1.DAD
     10866**DCL     10871--REDEF
QI_1.FILE_HEAD
     11049**DCL     11056--REDEF
QI_1.INSTR$
     10179**DCL     17111<<ASSIGN  17111>>ASSIGN  17197>>IF      17202<<ASSIGN  17202>>ASSIGN  17202>>ASSIGN
     17237<<ASSIGN  17237>>ASSIGN
QI_1.IS_ALL_LIT
     10872**DCL     10877--REDEF
QI_1.IS_FORM_VARIABLE
     10878**DCL     10883--REDEF
QI_1.IS_TEMP
     10884**DCL     10889--REDEF
QI_1.MESSAGE_LINE_DAD.PSEUDO_CIP
     10982**DCL     11007--REDEF
QI_1.MESSAGE_LINE_DAD.PSEUDO_CIP.ALPHANUMERIC
     10984**DCL     10989--REDEF
QI_1.MESSAGE_LINE_DAD.PSEUDO_CIP.NUMERIC.CB
     10990**DCL     10993--REDEF   10996--REDEF
QI_1.MESSAGE_LINE_DAD.WORD0
     10951**DCL     10952--REDEF
QI_1.OFFSET
     10890**DCL     10895--REDEF
QI_1.OP
     10249**DCL     17163<>CALL    17175<>CALL    17184<>CALL
QI_1.OP.CIP
     10251**DCL     10702--REDEF
QI_1.OP.CIP.AUX
     10617**DCL     10688--REDEF
QI_1.OP.CIP.AUX.CD
     10662**DCL     10665--REDEF   10669--REDEF   10672--REDEF
QI_1.OP.CIP.S
     10321**DCL     10392--REDEF
QI_1.OP.CIP.S.CD
     10366**DCL     10369--REDEF   10373--REDEF   10376--REDEF
QI_1.OP.CIP.S_A
PL6.E3A0      #001=QBG$GOTOS File=QBG$GOTOS.:E05TSI                              WED 07/30/97 04:48 Page:27
     10392**DCL     17169<<ASSIGN
QI_1.OP.CIP.T
     10469**DCL     10540--REDEF
QI_1.OP.CIP.T.CD
     10514**DCL     10517--REDEF   10521--REDEF   10524--REDEF
QI_1.OP.CIP.T_A
     10540**DCL     17160<<ASSIGN  17169>>ASSIGN  17173<<ASSIGN  17181<<ASSIGN
QI_1.OP.DATA
     10709**DCL     10713--REDEF
QI_1.OP.DATA.S$
     10710**DCL     17171<<ASSIGN
QI_1.OP.DATA.T$
     10711**DCL     17162<<ASSIGN  17171>>ASSIGN  17174<<ASSIGN  17183<<ASSIGN
QI_1.OP.DEC.S
     10772**DCL     17170<<ASSIGN
QI_1.OP.DEC.T
     10773**DCL     17161<<ASSIGN  17182<<ASSIGN
QI_1.OP.FILL_CHAR
     10833**DCL     10836--REDEF
QI_1.OP.INX
     10766**DCL     10770--REDEF   10771--REDEF   10775--REDEF
QI_1.OP.LEN
     10749**DCL     10753--REDEF   10754--REDEF   10758--REDEF   10759--REDEF   10763--REDEF
QI_1.OP.LEN.AUX
     10752**DCL     11653--IMP-SIZ
QI_1.OP.LEN.S
     10750**DCL     11649--IMP-SIZ
QI_1.OP.LEN.T
     10751**DCL     11651--IMP-SIZ
QI_1.OP.PICTURE_STRING
     10819**DCL     10822--REDEF   10823--REDEF   10826--REDEF   10827--REDEF   10830--REDEF
QI_1.OP.ROUND
     10852**DCL     10853--REDEF   10854--REDEF
QI_1.OP.SIZE_ERROR
     10836**DCL     17148<<ASSIGN
QI_1.OP.SRCH_VRFY_ELEMS
PL6.E3A0      #001=QBG$GOTOS File=QBG$GOTOS.:E05TSI                              WED 07/30/97 04:48 Page:28
     10788**DCL     10791--REDEF
QI_1.OPENED_COUNT
     11057**DCL     11060--REDEF
QI_1.OTTER_SPACE
     10896**DCL     10901--REDEF
QI_1.PICTURE_STRING
     10902**DCL     10907--REDEF
QI_1.SPECIAL_NAMES
     11085**DCL     11094--REDEF
QI_1.TYPE
     10908**DCL     10913--REDEF
QI_1.TYPE.S
     10910**DCL     17157>>DOCASE
QI_16_BIT_BINARY
     16098**DCL     16168--REDEF
QI_16_BIT_BINARY.CB
     16117**DCL     16120--REDEF   16124--REDEF   16127--REDEF
QI_16_BIT_BINARY_A
     16168**DCL     17173>>ASSIGN  17181>>ASSIGN
QI_31_DIGIT_SLS_DISPLAY
     15931**DCL     16001--REDEF
QI_31_DIGIT_SLS_DISPLAY.CD
     15978**DCL     15981--REDEF   15985--REDEF   15988--REDEF
QI_31_DIGIT_ST_PACKED
     16433**DCL     16503--REDEF
QI_31_DIGIT_ST_PACKED.CP
     16466**DCL     16469--REDEF   16473--REDEF   16476--REDEF
QI_31_DIGIT_ST_PACKED_A
     16503**DCL     17160>>ASSIGN
QI_32_BIT_BINARY
     16265**DCL     16335--REDEF
QI_32_BIT_BINARY.CB
     16284**DCL     16287--REDEF   16291--REDEF   16294--REDEF
QI_4_CHAR_ALPHANUMERIC
     15763**DCL     15833--REDEF
QI_4_CHAR_ALPHANUMERIC.CA
PL6.E3A0      #001=QBG$GOTOS File=QBG$GOTOS.:E05TSI                              WED 07/30/97 04:48 Page:29
     15768**DCL     15772--REDEF   15775--REDEF   15778--REDEF
QI_ACCUMULATOR_DAD.CIP
     16776**DCL     16847--REDEF
QI_ACCUMULATOR_DAD.CIP.CP
     16807**DCL     16810--REDEF   16814--REDEF   16817--REDEF
QI_ALR.CIP
     11728**DCL     12179--REDEF
QI_ALR.CIP.AUX
     12094**DCL     12165--REDEF
QI_ALR.CIP.AUX.CA
     12097**DCL     12101--REDEF   12104--REDEF   12107--REDEF
QI_ALR.CIP.S
     11798**DCL     11869--REDEF
QI_ALR.CIP.S.CA
     11801**DCL     11805--REDEF   11808--REDEF   11811--REDEF
QI_ALR.CIP.T
     11946**DCL     12017--REDEF
QI_ALR.CIP.T.CA
     11949**DCL     11953--REDEF   11956--REDEF   11959--REDEF
QI_ALR.DATA
     12186**DCL     12190--REDEF
QI_ALR.FILL_CHAR
     12310**DCL     12313--REDEF
QI_ALR.INX
     12243**DCL     12247--REDEF   12248--REDEF   12252--REDEF
QI_ALR.LEN
     12226**DCL     12230--REDEF   12231--REDEF   12235--REDEF   12236--REDEF   12240--REDEF
QI_ALR.PICTURE_STRING
     12296**DCL     12299--REDEF   12300--REDEF   12303--REDEF   12304--REDEF   12307--REDEF
QI_ALR.ROUND
     12329**DCL     12330--REDEF   12331--REDEF
QI_ALR.SRCH_VRFY_ELEMS
     12265**DCL     12268--REDEF
QI_MAT.CIP
     15067**DCL     15518--REDEF
QI_MAT.CIP.AUX
PL6.E3A0      #001=QBG$GOTOS File=QBG$GOTOS.:E05TSI                              WED 07/30/97 04:48 Page:30
     15433**DCL     15504--REDEF
QI_MAT.CIP.AUX.CA
     15436**DCL     15440--REDEF   15443--REDEF   15446--REDEF
QI_MAT.CIP.S
     15137**DCL     15208--REDEF
QI_MAT.CIP.S.CA
     15140**DCL     15144--REDEF   15147--REDEF   15150--REDEF
QI_MAT.CIP.T
     15285**DCL     15356--REDEF
QI_MAT.CIP.T.CA
     15288**DCL     15292--REDEF   15295--REDEF   15298--REDEF
QI_MAT.DATA
     15525**DCL     15529--REDEF
QI_MAT.DEC
     15593**DCL     15597--REDEF   15598--REDEF   15602--REDEF
QI_MAT.FILL_CHAR
     15649**DCL     15652--REDEF
QI_MAT.LEN
     15565**DCL     15569--REDEF   15570--REDEF   15574--REDEF   15575--REDEF   15579--REDEF
QI_MAT.PICTURE_STRING
     15635**DCL     15638--REDEF   15639--REDEF   15642--REDEF   15643--REDEF   15646--REDEF
QI_MAT.ROUND
     15668**DCL     15669--REDEF   15670--REDEF
QI_MAT.SRCH_VRFY_ELEMS
     15604**DCL     15607--REDEF
QI_PICTURE_STRING
     16601**DCL     16671--REDEF
QI_PICTURE_STRING.CA
     16606**DCL     16610--REDEF   16613--REDEF   16616--REDEF
QI_SRCH_VRFY.CIP
     14398**DCL     14849--REDEF
QI_SRCH_VRFY.CIP.AUX
     14764**DCL     14835--REDEF
QI_SRCH_VRFY.CIP.AUX.CA
     14767**DCL     14771--REDEF   14774--REDEF   14777--REDEF
QI_SRCH_VRFY.CIP.S
PL6.E3A0      #001=QBG$GOTOS File=QBG$GOTOS.:E05TSI                              WED 07/30/97 04:48 Page:31
     14468**DCL     14539--REDEF
QI_SRCH_VRFY.CIP.S.CA
     14471**DCL     14475--REDEF   14478--REDEF   14481--REDEF
QI_SRCH_VRFY.CIP.T
     14616**DCL     14687--REDEF
QI_SRCH_VRFY.CIP.T.CA
     14619**DCL     14623--REDEF   14626--REDEF   14629--REDEF
QI_SRCH_VRFY.DATA
     14856**DCL     14860--REDEF
QI_SRCH_VRFY.DEC
     14924**DCL     14928--REDEF   14929--REDEF   14933--REDEF
QI_SRCH_VRFY.FILL_CHAR
     14980**DCL     14983--REDEF
QI_SRCH_VRFY.ROUND
     14999**DCL     15000--REDEF   15001--REDEF
QI_SRCH_VRFY.SRCH_RESULT
     14940**DCL     14943--REDEF   14944--REDEF   14947--REDEF   14948--REDEF   14951--REDEF
QI_SRCH_VRFY.SRCH_VRFY_ARGS
     14864**DCL     14868--REDEF   14869--REDEF   14873--REDEF   14874--REDEF   14878--REDEF
QI_SRCH_VRFY.SRCH_VRFY_ELEMS
     14935**DCL     14938--REDEF
QI_TYPE_BINARY_TARGET.CIP
     13725**DCL     14176--REDEF
QI_TYPE_BINARY_TARGET.CIP.AUX
     14091**DCL     14162--REDEF
QI_TYPE_BINARY_TARGET.CIP.AUX.CA
     14094**DCL     14098--REDEF   14101--REDEF   14104--REDEF
QI_TYPE_BINARY_TARGET.CIP.S
     13795**DCL     13866--REDEF
QI_TYPE_BINARY_TARGET.CIP.S.CA
     13798**DCL     13802--REDEF   13805--REDEF   13808--REDEF
QI_TYPE_BINARY_TARGET.CIP.T
     13943**DCL     14014--REDEF
QI_TYPE_BINARY_TARGET.CIP.T.CB
     13960**DCL     13963--REDEF   13967--REDEF   13970--REDEF
QI_TYPE_BINARY_TARGET.DATA
PL6.E3A0      #001=QBG$GOTOS File=QBG$GOTOS.:E05TSI                              WED 07/30/97 04:48 Page:32
     14183**DCL     14187--REDEF
QI_TYPE_BINARY_TARGET.DEC
     14251**DCL     14255--REDEF   14256--REDEF   14260--REDEF
QI_TYPE_BINARY_TARGET.LEN
     14223**DCL     14227--REDEF   14228--REDEF   14232--REDEF   14233--REDEF   14237--REDEF
QI_TYPE_BINARY_TARGET.PICTURE_STRING
     14293**DCL     14296--REDEF   14297--REDEF   14300--REDEF   14301--REDEF   14304--REDEF
QI_TYPE_BINARY_TARGET.ROUND
     14326**DCL     14327--REDEF   14328--REDEF
QI_TYPE_BINARY_TARGET.SIZE_ERROR
     14312**DCL     14313--REDEF
QI_TYPE_BINARY_TARGET.SRCH_VRFY_ELEMS
     14262**DCL     14265--REDEF
QI_TYPE_DISPLAY_SOURCE.CIP
     12393**DCL     12844--REDEF
QI_TYPE_DISPLAY_SOURCE.CIP.AUX
     12759**DCL     12830--REDEF
QI_TYPE_DISPLAY_SOURCE.CIP.AUX.CA
     12762**DCL     12766--REDEF   12769--REDEF   12772--REDEF
QI_TYPE_DISPLAY_SOURCE.CIP.S
     12463**DCL     12534--REDEF
QI_TYPE_DISPLAY_SOURCE.CIP.S.CD
     12508**DCL     12511--REDEF   12515--REDEF   12518--REDEF
QI_TYPE_DISPLAY_SOURCE.CIP.T
     12611**DCL     12682--REDEF
QI_TYPE_DISPLAY_SOURCE.CIP.T.CA
     12614**DCL     12618--REDEF   12621--REDEF   12624--REDEF
QI_TYPE_DISPLAY_SOURCE.DATA
     12851**DCL     12855--REDEF
QI_TYPE_DISPLAY_SOURCE.DEC
     12919**DCL     12923--REDEF   12924--REDEF   12928--REDEF
QI_TYPE_DISPLAY_SOURCE.LEN
     12891**DCL     12895--REDEF   12896--REDEF   12900--REDEF   12901--REDEF   12905--REDEF
QI_TYPE_DISPLAY_SOURCE.PICTURE_STRING
     12961**DCL     12964--REDEF   12965--REDEF   12968--REDEF   12969--REDEF   12972--REDEF
QI_TYPE_DISPLAY_SOURCE.ROUND
PL6.E3A0      #001=QBG$GOTOS File=QBG$GOTOS.:E05TSI                              WED 07/30/97 04:48 Page:33
     12994**DCL     12995--REDEF   12996--REDEF
QI_TYPE_DISPLAY_SOURCE.SIZE_ERROR
     12980**DCL     12981--REDEF
QI_TYPE_DISPLAY_SOURCE.SRCH_VRFY_ELEMS
     12930**DCL     12933--REDEF
QI_TYPE_DISPLAY_TARGET.CIP
     13059**DCL     13510--REDEF
QI_TYPE_DISPLAY_TARGET.CIP.AUX
     13425**DCL     13496--REDEF
QI_TYPE_DISPLAY_TARGET.CIP.AUX.CA
     13428**DCL     13432--REDEF   13435--REDEF   13438--REDEF
QI_TYPE_DISPLAY_TARGET.CIP.S
     13129**DCL     13200--REDEF
QI_TYPE_DISPLAY_TARGET.CIP.S.CA
     13132**DCL     13136--REDEF   13139--REDEF   13142--REDEF
QI_TYPE_DISPLAY_TARGET.CIP.T
     13277**DCL     13348--REDEF
QI_TYPE_DISPLAY_TARGET.CIP.T.CD
     13322**DCL     13325--REDEF   13329--REDEF   13332--REDEF
QI_TYPE_DISPLAY_TARGET.DATA
     13517**DCL     13521--REDEF
QI_TYPE_DISPLAY_TARGET.DEC
     13585**DCL     13589--REDEF   13590--REDEF   13594--REDEF
QI_TYPE_DISPLAY_TARGET.LEN
     13557**DCL     13561--REDEF   13562--REDEF   13566--REDEF   13567--REDEF   13571--REDEF
QI_TYPE_DISPLAY_TARGET.PICTURE_STRING
     13627**DCL     13630--REDEF   13631--REDEF   13634--REDEF   13635--REDEF   13638--REDEF
QI_TYPE_DISPLAY_TARGET.ROUND
     13660**DCL     13661--REDEF   13662--REDEF
QI_TYPE_DISPLAY_TARGET.SIZE_ERROR
     13646**DCL     13647--REDEF
QI_TYPE_DISPLAY_TARGET.SRCH_VRFY_ELEMS
     13596**DCL     13599--REDEF
