VERSION E05

PL6.E3A0      #001=QBI$IF_INDICATOR File=QBI$IF_INDICATOR.:E05TSI                WED 07/30/97 04:49 Page:1
        1        1        /*M* QBI$IF_INDICATOR:  IF frame-or-field-indicator.  */
        2        2        /*T***********************************************************/
        3        3        /*T*                                                         */
        4        4        /*T* Copyright (c) Bull HN Information Systems Inc., 1997    */
        5        5        /*T*                                                         */
        6        6        /*T***********************************************************/
        7        7        /*X* DMC,PLM=4,IND=0,DCI=4,CSI=2,IAD=2,DTI=2,AND,ECI=0,DIN=2,STI=2 */
        8        8
        9        9        /*P*  NAME:         QBI$IF_INDICATOR
       10       10              PURPOSE:      Transfer control according to the settings of
       11       11                            various frame and field STATUSes.
       12       12              DESCRIPTION:  Execute an IF_INDICATOR (IFINDR) op-code, whose
       13       13                            argument may be a frame or field.
       14       14        */
       15       15
       16       16        QBI$IF_INDICATOR: PROC ALTRET;
       17       17
       18       18        /*D*  NAME:         QBI$IF_INDICATOR
       19       19              CALL:         CALL QBI$IF_INDICATOR;
       20       20              PARAMETERS:   None.
       21       21              INTERFACE:    Called by QAT$TALLYHO when an IF_INDICATOR (IFINDR)
       22       22                            op-code is encountered.
       23       23              ENVIRONMENT:  Nothing unusual.
       24       24              INPUT:        QI_1,
       25       25                            FPL rununit static data following the op-code.
       26       26              OUTPUT:       Transfers control within the FPL rununit according
       27       27                            to the status which was checked for.
       28       28              SCRATCH:      Various otter stuff.
       29       29              DESCRIPTION:  A block of op-codes is either executed or skipped
       30       30                            according to the status of the argument variable:
       31       31                            the block of op-codes is plunged into if the
       32       32                            condition checked for is true; otherwise, the
       33       33                            block is skipped (there may be an ELSE block, too).
       34       34                            For a frame argument, the status checked is for:
       35       35                            1)  IS ACTIVE.
       36       36                            For a field argument, the status checked is for:
       37       37                            1)  IS ENABLED FOR INPUT;
PL6.E3A0      #001=QBI$IF_INDICATOR File=QBI$IF_INDICATOR.:E05TSI                WED 07/30/97 04:49 Page:2
       38       38                            2)  IS ENABLED FOR OUTPUT;
       39       39                            3)  IS ENABLED FOR I-O;
       40       40                            4)  IS PRESENTED;
       41       41                            5)  IS AVAILABLE.
       42       42        */
       43       43
       44       44          %INCLUDE LCP_6;
       45      235
       46      236          %INCLUDE QG_MACRO_M;
       47      373          %INCLUDE QI_EQUATES_E;
       48      732          %INCLUDE QI_PERR_C;
       49      900          %INCLUDE QI_MACROS_M;
       50     5958          %QI$ALL;
       51    17071
       52    17072    1     DCL GZ_FIELD$ PTR;
       53    17073    1     DCL INSTR$ PTR;
       54    17074
       55    17075    1     DCL QCE$ERROR_INTERNAL ENTRY (4);
       56    17076    1     DCL QCF$FIND_CURRENTS ENTRY;
       57    17077    1     DCL QCU$USE_IO ENTRY (1);
       58    17078
       59    17079          %SET LISTMAC = '1'B;
       60    17080
       61    17081          %INCLUDE QCU_USE_M;
       62    17135          %QCU@USE;
             17136            %BEGIN_MACRO;
             17137            %SET LISTDIR = '0'B;
             17150    1     DCL 1 QCU@USE AUTO ALIGNED,
             17151    1           2 CURR_FRAME$ PTR,
             17152                          /* Pointer to DAD of current frame or ADDR (NIL).  */
             17153    1           2 CURR_NODE$ PTR,
             17154                          /* Pointer to current node or ADDR (NIL).  */
             17155    1           2 USE_DEFAULT_IO UBIN,
             17156                          /* For USE procedures which default applies
             17157                             (see corresponding EQUs).  */
             17158    1           2 IS_TIME_TO_SAVE_AWAY_FIELDS BIT(1) ALIGNED,
             17159                          /* If IS_TIME_TO_SAVE_AWAY_FIELDS, then
PL6.E3A0      #001=QBI$IF_INDICATOR File=QBI$IF_INDICATOR.:E05TSI                WED 07/30/97 04:49 Page:3
             17160                             save the fields within the bounds of
             17161                             FRAME_START_INDEX, FRAME_STOP_INDEX,
             17162                             FIELD_START_INDEX, and FIELD_STOP_INDEX
             17163                             before calling the USE procedure.  */
             17164    1           2 FRAME_START_INDEX UBIN,
             17165                          /* Foist frame of the CURRENT.FORM$
             17166                             involved with the I-O error.  */
             17167    1           2 FRAME_STOP_INDEX UBIN,
             17168                          /* Larst frame of the CURRENT.FORM$
             17169                             involved with the I-O error.  */
             17170    1           2 IS_FIELD_INDEXES_VALID BIT(1) ALIGNED,
             17171                          /* If IS_FIELD_INDEXES_VALID, use them;
             17172                             else use all the fields in the frame.  */
             17173    1           2 FIELD_START_INDEX UBIN,
             17174                          /* Starting index into QI$GZ_FIELD
             17175                             which may have values "pushed".  */
             17176    1           2 FIELD_STOP_INDEX UBIN,
             17177                          /* Stopping index into QI$GZ_FIELD
             17178                             which may have values "pushed".  */
             17179    1           2 IS_CURSOR_POSITION_VALID BIT(1) ALIGNED,
             17180                          /* If IS_CURSOR_POSITION_VALID, use it;
             17181                             else allow cursor to default to upper-left-most field.  */
             17182    1           2 CURSOR_POSITION BIT(16) ALIGNED,
             17183                          /* POSition of the field on which to place the cursor.  */
             17184    1           2 STATUS UBIN;
             17185                          /* Returned action code; see corresponding EQUs.  */
             17192            %ENDIF;
       63    17195
       64    17196          %SET LISTMAC = '0'B;
       65    17197        %EJECT;
PL6.E3A0      #001=QBI$IF_INDICATOR File=QBI$IF_INDICATOR.:E05TSI                WED 07/30/97 04:49 Page:4
       66    17198    1       INSTR$ = QI_1.INSTR$;
       67    17199    1       QI_1.INSTR$ = ADDR ( INSTR$ -> QI$OP_IFINDR.NEXT_CODE@P );
       68    17200
       69    17201    1   RETRY_WHATEVER_FLAGS:
       70    17202            %PROC_ADDRESS ( THING@P = "INSTR$ -> QI$OP_IFINDR.FRAME_OR_FIELD@P",
       71    17203            CHECK_FOR_INDIRECTION = YES,
       72    17204            RESULT$ = "QI_1.CURRENT.NODE$" );
       73    17241
       74    17242    1       CALL QCF$FIND_CURRENTS;
       75    17243
       76    17244            /*  If QI_1.CURRENT.FORM_STATUS$ = ADDR (NIL), we were unable
       77    17245                to trace backwards from the given NODE to its corresponding
       78    17246                FORM.  This is because the FRAME which was at or above the
       79    17247                given NODE was not ACTIVATEd.
       80    17248                We can't assume that the FORM is closed (we don't know
       81    17249                which FORM the FRAME was intended to be used under), so we'll
       82    17250                fall through to code that will result in a return status
       83    17251                of FALSE for ACTIVE or ENABLED checks.  */
       84    17252    1       IF QI_1.CURRENT.FORM_STATUS$ ~= ADDR (NIL)
       85    17253    1       THEN
       86    17254    1         IF NOT QI_1.CURRENT.FORM_STATUS$ -> QI$FORM_STATUS.INDICATORS.OPEN_FLAGS.
             17254                  IS_INPUT
       87    17255    1           AND NOT QI_1.CURRENT.FORM_STATUS$ -> QI$FORM_STATUS.INDICATORS.OPEN_FLAGS.
             17255                    IS_OUTPUT
       88    17256    1         THEN
       89    17257    2           DO;
       90    17258    2             QI_1.ERROR_STATUS = %E$FILE_NOT_OPEN;
       91    17259    2             GOTO CHECK_USE_PROCEDURE;
       92    17260    2           END;
       93    17261
       94    17262    1       IF INSTR$ -> QI$OP_IFINDR.ATTRIBUTE.STATUS_TYPE = %QI#IF_INDICATOR_ACTIVE
       95    17263    1       THEN
       96    17264    1   WE_GOTTA_FRAME:
       97    17265    2         DO;
       98    17266
       99    17267    2           IF QI_1.CURRENT.FRAME_STATUS$ -> QI$FRAME_STATUS.INDICATORS.IS_ACTIVE
      100    17268    2           THEN
PL6.E3A0      #001=QBI$IF_INDICATOR File=QBI$IF_INDICATOR.:E05TSI                WED 07/30/97 04:49 Page:5
      101    17269    2             GOTO SUCCEED;
      102    17270    2           ELSE
      103    17271    2             GOTO FAIL;
      104    17272
      105    17273    2         END WE_GOTTA_FRAME;
      106    17274    1       ELSE
      107    17275    1   WE_GOTTA_FIELD:
      108    17276    2         DO;
      109    17277
      110    17278    2           IF NOT QI_1.CURRENT.FRAME_STATUS$ -> QI$FRAME_STATUS.INDICATORS.IS_ACTIVE
      111    17279    2           THEN
      112    17280    2             GOTO FAIL;
      113    17281
      114    17282    2           GZ_FIELD$ = PINCRW ( QI_1.CURRENT.FRAME_STATUS$ -> QI$FRAME_STATUS.GZ.START$
             17282                    ,
      115    17283    2             QI_1.CURRENT.NODE_STATUS$ -> QI$MAJOR_STATUS.GZ.FIELD_START_INDEX * SIZEW
             17283                      (QI$GZ_FIELD) );
      116    17284
      117    17285    3           DO CASE ( INSTR$ -> QI$OP_IFINDR.ATTRIBUTE.STATUS_TYPE );
      118    17286
      119    17287    3             CASE ( %QI#IF_INDICATOR_ENABLED_INPUT );
      120    17288    3               IF GZ_FIELD$ -> QI$GZ_FIELD.INDICATORS$ -> QI$INDICATORS.ENABLED_FLAGS.
             17288                        IS_INPUT
      121    17289    3               THEN
      122    17290    3                 GOTO SUCCEED;
      123    17291    3               ELSE
      124    17292    3                 GOTO FAIL;
      125    17293
      126    17294    3             CASE ( %QI#IF_INDICATOR_ENABLED_OUTPUT );
      127    17295    3               IF GZ_FIELD$ -> QI$GZ_FIELD.INDICATORS$ -> QI$INDICATORS.ENABLED_FLAGS.
             17295                        IS_OUTPUT
      128    17296    3               THEN
      129    17297    3                 GOTO SUCCEED;
      130    17298    3               ELSE
      131    17299    3                 GOTO FAIL;
      132    17300
      133    17301    3             CASE ( %QI#IF_INDICATOR_ENABLED_IO );
PL6.E3A0      #001=QBI$IF_INDICATOR File=QBI$IF_INDICATOR.:E05TSI                WED 07/30/97 04:49 Page:6
      134    17302    3               IF GZ_FIELD$ -> QI$GZ_FIELD.INDICATORS$ -> QI$INDICATORS.ENABLED_FLAGS.
             17302                        IS_INPUT
      135    17303    3                 AND GZ_FIELD$ -> QI$GZ_FIELD.INDICATORS$ -> QI$INDICATORS.
             17303                          ENABLED_FLAGS.IS_OUTPUT
      136    17304    3               THEN
      137    17305    3                 GOTO SUCCEED;
      138    17306    3               ELSE
      139    17307    3                 GOTO FAIL;
      140    17308
      141    17309    3             CASE ( %QI#IF_INDICATOR_PRESENTED );
      142    17310    3               IF GZ_FIELD$ -> QI$GZ_FIELD.INDICATORS$ -> QI$INDICATORS.STATE_FLAGS.
             17310                        IS_PRESENTED
      143    17311    3               THEN
      144    17312    3                 GOTO SUCCEED;
      145    17313    3               ELSE
      146    17314    3                 GOTO FAIL;
      147    17315
      148    17316    3             CASE ( %QI#IF_INDICATOR_AVAILABLE );
      149    17317    3               IF GZ_FIELD$ -> QI$GZ_FIELD.INDICATORS$ -> QI$INDICATORS.STATE_FLAGS.
             17317                        IS_AVAILABLE
      150    17318    3               THEN
      151    17319    3                 GOTO SUCCEED;
      152    17320    3               ELSE
      153    17321    3                 GOTO FAIL;
      154    17322
      155    17323    3           END;
      156    17324
      157    17325    2         END WE_GOTTA_FIELD;
      158    17326
      159    17327    1   SUCCEED:
      160    17328    1       IF INSTR$ -> QI$OP_IFINDR.ATTRIBUTE.IS_NOT
      161    17329    1       THEN
      162    17330    1         GOTO BRANCH_AROUND_TRUE_STATEMENTS;
      163    17331
      164    17332    1       RETURN;
      165    17333
      166    17334    1   FAIL:
PL6.E3A0      #001=QBI$IF_INDICATOR File=QBI$IF_INDICATOR.:E05TSI                WED 07/30/97 04:49 Page:7
      167    17335    1       IF INSTR$ -> QI$OP_IFINDR.ATTRIBUTE.IS_NOT
      168    17336    1       THEN
      169    17337    1         RETURN;
      170    17338
      171    17339    1   BRANCH_AROUND_TRUE_STATEMENTS:
      172    17340            %PROC_ADDRESS ( THING@P = "INSTR$ -> QI$OP_IFINDR.FALSE_CONDITION@P",
      173    17341            CHECK_FOR_INDIRECTION = NO,
      174    17342            RESULT$ = "QI_1.INSTR$" );
      175    17379
      176    17380    1       ALTRETURN;
      177    17381
      178    17382        %EJECT;
PL6.E3A0      #001=QBI$IF_INDICATOR File=QBI$IF_INDICATOR.:E05TSI                WED 07/30/97 04:49 Page:8
      179    17383    1   CHECK_USE_PROCEDURE:
      180    17384    1       QCU@USE.USE_DEFAULT_IO = %QI#USE_DEFAULT_NONE;
      181    17385    1       QCU@USE.IS_TIME_TO_SAVE_AWAY_FIELDS = %NO;
      182    17386    1       QCU@USE.CURR_FRAME$ = QI_1.CURRENT.FRAME$;
      183    17387    1       QCU@USE.CURR_NODE$ = QI_1.CURRENT.NODE$;
      184    17388
      185    17389    1       CALL QCU$USE_IO ( QCU@USE );
      186    17390
      187    17391    2       DO CASE ( QCU@USE.STATUS );
      188    17392
      189    17393    2         CASE ( %QI#USE_INVALID_RETURN );
      190    17394    2           RETURN;
      191    17395
      192    17396    2         CASE ( %QI#USE_INVALID_RETRY );
      193    17397    2           GOTO RETRY_WHATEVER_FLAGS;
      194    17398
      195    17399    2         CASE ( %QI#USE_INVALID_SKIP_TO_NEXT );
      196    17400    2           RETURN;
      197    17401
      198    17402    2         CASE ( ELSE );
      199    17403    2           CALL QCE$ERROR_INTERNAL ( %E$INTERNAL_INTERPRETER_ERROR );
      200    17404
      201    17405    2       END;
      202    17406
      203    17407    1   END QBI$IF_INDICATOR;

PL6.E3A0      #001=QBI$IF_INDICATOR File=QBI$IF_INDICATOR.:E05TSI                WED 07/30/97 04:49 Page:9
--  Include file information  --

   QCU_USE_M.:E05TOU  is referenced.
   QI_MACROS_M.:E05TOU  is referenced.
   QI_PERR_C.:E05TOU  is referenced.
   QI_EQUATES_E.:E05TOU  is referenced.
   QG_MACRO_M.:E05TOU  is referenced.
   LCP_6.:E05TOU  cannot be made into a system file and is referenced.
   G_LCP6_E.:E05TOU  was found in the system file and is referenced.
   GT_LCP6_M.:E05TOU  was found in the system file and is referenced.
   KI_CP6.:E05TOU  was found in the system file and is referenced.
   GF_LCP6_M.:E05TOU  was found in the system file and is referenced.
   GM_LCP6_M.:E05TOU  was found in the system file and is referenced.
   GU_LCP6_M.:E05TOU  was found in the system file and is referenced.
   GJ_LCP6_M.:E05TOU  was found in the system file and is referenced.
   GH_LCP6_M.:E05TOU  was found in the system file and is referenced.
      No diagnostics issued in procedure QBI$IF_INDICATOR.

   Procedure QBI$IF_INDICATOR requires 292 words for executable code.
   Procedure QBI$IF_INDICATOR requires 24 words of local(AUTO) storage.

    No errors detected in file QBI$IF_INDICATOR.:E05TSI    .

PL6.E3A0      #001=QBI$IF_INDICATOR File=QBI$IF_INDICATOR.:E05TSI                WED 07/30/97 04:49 Page:10

 Object Unit name= QBI$IF_INDICATOR                           File name= QBI$IF_INDICATOR.:E05TOU
 UTS= JUL 30 '97 04:49:19.40 WED                              Compiler= PL-6/E31         Sev=      00
 SharedLib= :SHARED_LCP6_SYSTEM                               Alt SharedLib=


    ****  Control sections  ****

 Sect   Type Bound  Init  Size HexSiz  Section name
    0   Proc  even  none   292    124  QBI$IF_INDICATOR
    1  RoData even  none     5      5  QBI$IF_INDICATOR

    ****  Entry defs  ****

                              Check   Calling
                             calling  sequence
  Sect HexLoc Primary Altret sequence   type   Parms  Name
     0      0   yes    yes     yes      Std        0  QBI$IF_INDICATOR

  ****  Entry refs  ****

         Check        Calling
        calling       sequence
Altret sequence SRef   type   Args  Name
         yes           Std       0 QCF$FIND_CURRENTS
         yes           Std       1 QCU$USE_IO
         yes           Std       4 QCE$ERROR_INTERNAL
                       nStd      0 X6A_AUTO_0
                       nStd      0 X6D_MID
                       nStd      0 X6A_ARET
                       nStd      0 X6A_AALT
PL6.E3A0      #001=QBI$IF_INDICATOR File=QBI$IF_INDICATOR.:E05TSI                WED 07/30/97 04:49 Page:11

  ****  Data refs  ****

  Flags:  r = read only, s = secondary
Flgs Name                             Flgs Name                             Flgs Name
     QI_1                                  QI_4_CHAR_ALPHANUMERIC                QI_31_DIGIT_SLS_DISPLAY
     QI_16_BIT_BINARY                      QI_32_BIT_BINARY                      QI_31_DIGIT_ST_PACKED
     QI_PICTURE_STRING                r    G$ROS$
PL6.E3A0      #001=QBI$IF_INDICATOR File=QBI$IF_INDICATOR.:E05TSI                WED 07/30/97 04:49 Page:12


        1        1        /*M* QBI$IF_INDICATOR:  IF frame-or-field-indicator.  */
        2        2        /*T***********************************************************/
        3        3        /*T*                                                         */
        4        4        /*T* Copyright (c) Bull HN Information Systems Inc., 1997    */
        5        5        /*T*                                                         */
        6        6        /*T***********************************************************/
        7        7        /*X* DMC,PLM=4,IND=0,DCI=4,CSI=2,IAD=2,DTI=2,AND,ECI=0,DIN=2,STI=2 */
        8        8
        9        9        /*P*  NAME:         QBI$IF_INDICATOR
       10       10              PURPOSE:      Transfer control according to the settings of
       11       11                            various frame and field STATUSes.
       12       12              DESCRIPTION:  Execute an IF_INDICATOR (IFINDR) op-code, whose
       13       13                            argument may be a frame or field.
       14       14        */
       15       15
       16       16        QBI$IF_INDICATOR: PROC ALTRET;

     16   0 000000  D380 0000 0000  xent QBI$IF_INDICATORLNJ,B5   X6A_AUTO_0
          0 000003       0018 0000                       DC       24,0

       17       17
       18       18        /*D*  NAME:         QBI$IF_INDICATOR
       19       19              CALL:         CALL QBI$IF_INDICATOR;
       20       20              PARAMETERS:   None.
       21       21              INTERFACE:    Called by QAT$TALLYHO when an IF_INDICATOR (IFINDR)
       22       22                            op-code is encountered.
       23       23              ENVIRONMENT:  Nothing unusual.
       24       24              INPUT:        QI_1,
       25       25                            FPL rununit static data following the op-code.
       26       26              OUTPUT:       Transfers control within the FPL rununit according
       27       27                            to the status which was checked for.
       28       28              SCRATCH:      Various otter stuff.
       29       29              DESCRIPTION:  A block of op-codes is either executed or skipped
       30       30                            according to the status of the argument variable:
       31       31                            the block of op-codes is plunged into if the
       32       32                            condition checked for is true; otherwise, the
PL6.E3A0      #001=QBI$IF_INDICATOR File=QBI$IF_INDICATOR.:E05TSI                WED 07/30/97 04:49 Page:13
       33       33                            block is skipped (there may be an ELSE block, too).
       34       34                            For a frame argument, the status checked is for:
       35       35                            1)  IS ACTIVE.
       36       36                            For a field argument, the status checked is for:
       37       37                            1)  IS ENABLED FOR INPUT;
       38       38                            2)  IS ENABLED FOR OUTPUT;
       39       39                            3)  IS ENABLED FOR I-O;
       40       40                            4)  IS PRESENTED;
       41       41                            5)  IS AVAILABLE.
       42       42        */
       43       43
       44       44          %INCLUDE LCP_6;
       45      235
       46      236          %INCLUDE QG_MACRO_M;
       47      373          %INCLUDE QI_EQUATES_E;
       48      732          %INCLUDE QI_PERR_C;
       49      900          %INCLUDE QI_MACROS_M;
       50     5958          %QI$ALL;
       51    17071
       52    17072    1     DCL GZ_FIELD$ PTR;
       53    17073    1     DCL INSTR$ PTR;
       54    17074
       55    17075    1     DCL QCE$ERROR_INTERNAL ENTRY (4);
       56    17076    1     DCL QCF$FIND_CURRENTS ENTRY;
       57    17077    1     DCL QCU$USE_IO ENTRY (1);
       58    17078
       59    17079          %SET LISTMAC = '1'B;
       60    17080
       61    17081          %INCLUDE QCU_USE_M;
       62    17135          %QCU@USE;
             17136            %BEGIN_MACRO;
             17137            %SET LISTDIR = '0'B;
             17150    1     DCL 1 QCU@USE AUTO ALIGNED,
             17151    1           2 CURR_FRAME$ PTR,
             17152                          /* Pointer to DAD of current frame or ADDR (NIL).  */
             17153    1           2 CURR_NODE$ PTR,
             17154                          /* Pointer to current node or ADDR (NIL).  */
PL6.E3A0      #001=QBI$IF_INDICATOR File=QBI$IF_INDICATOR.:E05TSI                WED 07/30/97 04:49 Page:14
             17155    1           2 USE_DEFAULT_IO UBIN,
             17156                          /* For USE procedures which default applies
             17157                             (see corresponding EQUs).  */
             17158    1           2 IS_TIME_TO_SAVE_AWAY_FIELDS BIT(1) ALIGNED,
             17159                          /* If IS_TIME_TO_SAVE_AWAY_FIELDS, then
             17160                             save the fields within the bounds of
             17161                             FRAME_START_INDEX, FRAME_STOP_INDEX,
             17162                             FIELD_START_INDEX, and FIELD_STOP_INDEX
             17163                             before calling the USE procedure.  */
             17164    1           2 FRAME_START_INDEX UBIN,
             17165                          /* Foist frame of the CURRENT.FORM$
             17166                             involved with the I-O error.  */
             17167    1           2 FRAME_STOP_INDEX UBIN,
             17168                          /* Larst frame of the CURRENT.FORM$
             17169                             involved with the I-O error.  */
             17170    1           2 IS_FIELD_INDEXES_VALID BIT(1) ALIGNED,
             17171                          /* If IS_FIELD_INDEXES_VALID, use them;
             17172                             else use all the fields in the frame.  */
             17173    1           2 FIELD_START_INDEX UBIN,
             17174                          /* Starting index into QI$GZ_FIELD
             17175                             which may have values "pushed".  */
             17176    1           2 FIELD_STOP_INDEX UBIN,
             17177                          /* Stopping index into QI$GZ_FIELD
             17178                             which may have values "pushed".  */
             17179    1           2 IS_CURSOR_POSITION_VALID BIT(1) ALIGNED,
             17180                          /* If IS_CURSOR_POSITION_VALID, use it;
             17181                             else allow cursor to default to upper-left-most field.  */
             17182    1           2 CURSOR_POSITION BIT(16) ALIGNED,
             17183                          /* POSition of the field on which to place the cursor.  */
             17184    1           2 STATUS UBIN;
             17185                          /* Returned action code; see corresponding EQUs.  */
             17192            %ENDIF;
       63    17195
       64    17196          %SET LISTMAC = '0'B;
       65    17197        %EJECT;
PL6.E3A0      #001=QBI$IF_INDICATOR File=QBI$IF_INDICATOR.:E05TSI                WED 07/30/97 04:49 Page:15
       66    17198    1       INSTR$ = QI_1.INSTR$;

  17198   0 000005  EC80 0000 0006  xsym                 LDB,B6   QI_1+6
          0 000008  EFC7 0006                            STB,B6   INSTR$,AUTO

       67    17199    1       QI_1.INSTR$ = ADDR ( INSTR$ -> QI$OP_IFINDR.NEXT_CODE@P );

  17199   0 00000A  DBC6 0004                            LAB,B5   4,B6
          0 00000C  DF80 0000 0006  xsym                 STB,B5   QI_1+6

       68    17200
       69    17201    1   RETRY_WHATEVER_FLAGS:
       70    17202            %PROC_ADDRESS ( THING@P = "INSTR$ -> QI$OP_IFINDR.FRAME_OR_FIELD@P",
       71    17203            CHECK_FOR_INDIRECTION = YES,
       72    17204            RESULT$ = "QI_1.CURRENT.NODE$" );

  17221   0                              RETRY_WHATEVER_*null
  17222   0 00000F  ECC7 0006            RETRY_WHATEVER_*LDB,B6   INSTR$,AUTO
          0 000011  B846 0001                            LDR,R3   1,B6
          0 000013  F853                                 LDR,R7   R3
          0 000014  6C00                                 LDV,R6   0
          0 000015  8400 0000 0002  xsym                 AID      QI_1+2
          0 000018  8D00 0000 0080  xsym                 SDI      QI_1+128

  17224   0 00001B  DC80 0000 0080  xsym                 LDB,B5   QI_1+128
          0 00001E  8985                                 CMZ      ,B5
          0 00001F  0881 001C                            BAGE     s:17242,PREL

  17225   0 000021  EC80 0000 0080  xsym                 LDB,B6   QI_1+128
          0 000024  E806                                 LDR,R6   ,B6
          0 000025  6046                                 SOR,R6   6
          0 000026  E570 0001                            AND,R6   1,IMO
          0 000028  B846 0002                            LDR,R3   2,B6
          0 00002A  A856                                 LDR,R2   R6
          0 00002B  DCA0 0000 0000  xsym                 LDB,B5   QI_1,R2
          0 00002E  DFC7 0016                            STB,B5   QCU@USE+14,AUTO
          0 000030  F853                                 LDR,R7   R3
PL6.E3A0      #001=QBI$IF_INDICATOR File=QBI$IF_INDICATOR.:E05TSI                WED 07/30/97 04:49 Page:16
          0 000031  6C00                                 LDV,R6   0
          0 000032  8447 0016                            AID      QCU@USE+14,AUTO
          0 000034  8D00 0000 0080  xsym                 SDI      QI_1+128

  17229   0 000037  EC80 0000 0080  xsym                 LDB,B6   QI_1+128
          0 00003A  8986                                 CMZ      ,B6
          0 00003B  0866                                 BAL      s:17225,SPREL

       73    17241
       74    17242    1       CALL QCF$FIND_CURRENTS;

  17242   0 00003C  CBF0 0000                            LAB,B4   0,IMO
          0 00003E  E380 0000 0000  xent                 LNJ,B6   QCF$FIND_CURRENTS
          0 000041       0001                            DC       s:17252,PREL

       75    17243
       76    17244            /*  If QI_1.CURRENT.FORM_STATUS$ = ADDR (NIL), we were unable
       77    17245                to trace backwards from the given NODE to its corresponding
       78    17246                FORM.  This is because the FRAME which was at or above the
       79    17247                given NODE was not ACTIVATEd.
       80    17248                We can't assume that the FORM is closed (we don't know
       81    17249                which FORM the FRAME was intended to be used under), so we'll
       82    17250                fall through to code that will result in a return status
       83    17251                of FALSE for ACTIVE or ENABLED checks.  */
       84    17252    1       IF QI_1.CURRENT.FORM_STATUS$ ~= ADDR (NIL)

  17252   0 000042  8D80 0000 0078  xsym                 CMN      QI_1+120
          0 000045  0901 0014                            BE       s:17262,PREL

       85    17253    1       THEN
       86    17254    1         IF NOT QI_1.CURRENT.FORM_STATUS$ -> QI$FORM_STATUS.INDICATORS.OPEN_FLAGS.
             17254                  IS_INPUT

  17254   0 000047  EC80 0000 0078  xsym                 LDB,B6   QI_1+120
          0 00004A  82C6 0008                            LB,'0200'X        8,B6
          0 00004C       0200
          0 00004D  0501 000C                            BBT      s:17262,PREL
PL6.E3A0      #001=QBI$IF_INDICATOR File=QBI$IF_INDICATOR.:E05TSI                WED 07/30/97 04:49 Page:17
          0 00004F  82C6 0008                            LB,'0400'X        8,B6
          0 000051       0400
          0 000052  0501 0007                            BBT      s:17262,PREL

       87    17255    1           AND NOT QI_1.CURRENT.FORM_STATUS$ -> QI$FORM_STATUS.INDICATORS.OPEN_FLAGS.
             17255                    IS_OUTPUT
       88    17256    1         THEN
       89    17257    2           DO;

       90    17258    2             QI_1.ERROR_STATUS = %E$FILE_NOT_OPEN;

  17258   0 000054  6C01                                 LDV,R6   1
          0 000055  EF00 0000 008C  xsym                 STR,R6   QI_1+140

       91    17259    2             GOTO CHECK_USE_PROCEDURE;

  17259   0 000058  0F81 008F                            B        s:17384,PREL

       92    17260    2           END;
       93    17261
       94    17262    1       IF INSTR$ -> QI$OP_IFINDR.ATTRIBUTE.STATUS_TYPE = %QI#IF_INDICATOR_ACTIVE

  17262   0 00005A  ECC7 0006                            LDB,B6   INSTR$,AUTO
          0 00005C  82C6 0002                            LB,'000F'X        2,B6
          0 00005E       000F
          0 00005F  0501 000A                            BBT      s:17276,PREL

       95    17263    1       THEN
       96    17264    1   WE_GOTTA_FRAME:
       97    17265    2         DO;

  17265   0                              WE_GOTTA_FRAME  null
       98    17266
       99    17267    2           IF QI_1.CURRENT.FRAME_STATUS$ -> QI$FRAME_STATUS.INDICATORS.IS_ACTIVE

  17267   0 000061  DC80 0000 007C  xsym WE_GOTTA_FRAME  LDB,B5   QI_1+124
          0 000064  89C5 000C                            CMZ      12,B5
PL6.E3A0      #001=QBI$IF_INDICATOR File=QBI$IF_INDICATOR.:E05TSI                WED 07/30/97 04:49 Page:18
          0 000066  0801 0064                            BAL      s:17325,PREL

      100    17268    2           THEN
      101    17269    2             GOTO SUCCEED;
      102    17270    2           ELSE
      103    17271    2             GOTO FAIL;

  17271   0 000068  0F81 006A                            B        s:17335,PREL

      104    17272
      105    17273    2         END WE_GOTTA_FRAME;
      106    17274    1       ELSE
      107    17275    1   WE_GOTTA_FIELD:
      108    17276    2         DO;

  17276   0                              WE_GOTTA_FIELD  null
      109    17277
      110    17278    2           IF NOT QI_1.CURRENT.FRAME_STATUS$ -> QI$FRAME_STATUS.INDICATORS.IS_ACTIVE

  17278   0 00006A  DC80 0000 007C  xsym WE_GOTTA_FIELD  LDB,B5   QI_1+124
          0 00006D  89C5 000C                            CMZ      12,B5
          0 00006F  0881 0063                            BAGE     s:17335,PREL

      111    17279    2           THEN
      112    17280    2             GOTO FAIL;
      113    17281
      114    17282    2          GZ_FIELD$ = PINCRW ( QI_1.CURRENT.FRAME_STATUS$ -> QI$FRAME_STATUS.GZ.START$
             17282                    ,

  17282   0 000071  CC80 0000 0082  xsym                 LDB,B4   QI_1+130
          0 000074  B804                                 LDR,R3   ,B4
          0 000075  BCC5 0006                            LDB,B3   6,B5
          0 000077  BFC7 0016                            STB,B3   QCU@USE+14,AUTO
          0 000079  F853                                 LDR,R7   R3
          0 00007A  6C00                                 LDV,R6   0
          0 00007B  9B80 0000 0000  01                   LAB,B1   0
          0 00007E  D380 0000 0000  xent                 LNJ,B5   X6D_MID
PL6.E3A0      #001=QBI$IF_INDICATOR File=QBI$IF_INDICATOR.:E05TSI                WED 07/30/97 04:49 Page:19
          0 000081  8447 0016                            AID      QCU@USE+14,AUTO
          0 000083  8D47 0004                            SDI      GZ_FIELD$,AUTO

      115    17283    2             QI_1.CURRENT.NODE_STATUS$ -> QI$MAJOR_STATUS.GZ.FIELD_START_INDEX * SIZEW
             17283                      (QI$GZ_FIELD) );
      116    17284
      117    17285    3           DO CASE ( INSTR$ -> QI$OP_IFINDR.ATTRIBUTE.STATUS_TYPE );

  17285   0 000085  ECC7 0006                            LDB,B6   INSTR$,AUTO
          0 000087  B846 0002                            LDR,R3   2,B6
          0 000089  B570 000F                            AND,R3   15,IMO
          0 00008B  3D06                                 CMV,R3   6
          0 00008C  0281 003E                            BGE      s:17325,PREL
          0 00008E  A830 0000 0094  00                   LDR,R2   s:17285+15,R3
          0 000091  83A0 0000 009A  00                   JMP      s:17288,R2
          0 000094       0031                            DC       s:17325,PREL
          0 000095       0000                            DC       s:17288,PREL
          0 000096       0009                            DC       s:17295,PREL
          0 000097       0012                            DC       s:17302,PREL
          0 000098       001F                            DC       s:17310,PREL
          0 000099       0028                            DC       s:17317,PREL

      118    17286
      119    17287    3             CASE ( %QI#IF_INDICATOR_ENABLED_INPUT );

      120    17288    3               IF GZ_FIELD$ -> QI$GZ_FIELD.INDICATORS$ -> QI$INDICATORS.ENABLED_FLAGS.
             17288                        IS_INPUT

  17288   0 00009A  DCC7 0004                            LDB,B5   GZ_FIELD$,AUTO
          0 00009C  CC85                                 LDB,B4   ,B5
          0 00009D  8284                                 LB,'2000'X        ,B4
          0 00009E       2000
          0 00009F  0501 002B                            BBT      s:17325,PREL

      121    17289    3               THEN
      122    17290    3                 GOTO SUCCEED;
      123    17291    3               ELSE
PL6.E3A0      #001=QBI$IF_INDICATOR File=QBI$IF_INDICATOR.:E05TSI                WED 07/30/97 04:49 Page:20
      124    17292    3                 GOTO FAIL;

  17292   0 0000A1  0F81 0031                            B        s:17335,PREL

      125    17293
      126    17294    3             CASE ( %QI#IF_INDICATOR_ENABLED_OUTPUT );

      127    17295    3               IF GZ_FIELD$ -> QI$GZ_FIELD.INDICATORS$ -> QI$INDICATORS.ENABLED_FLAGS.
             17295                        IS_OUTPUT

  17295   0 0000A3  DCC7 0004                            LDB,B5   GZ_FIELD$,AUTO
          0 0000A5  CC85                                 LDB,B4   ,B5
          0 0000A6  8284                                 LB,'4000'X        ,B4
          0 0000A7       4000
          0 0000A8  0501 0022                            BBT      s:17325,PREL

      128    17296    3               THEN
      129    17297    3                 GOTO SUCCEED;
      130    17298    3               ELSE
      131    17299    3                 GOTO FAIL;

  17299   0 0000AA  0F81 0028                            B        s:17335,PREL

      132    17300
      133    17301    3             CASE ( %QI#IF_INDICATOR_ENABLED_IO );

      134    17302    3               IF GZ_FIELD$ -> QI$GZ_FIELD.INDICATORS$ -> QI$INDICATORS.ENABLED_FLAGS.
             17302                        IS_INPUT

  17302   0 0000AC  DCC7 0004                            LDB,B5   GZ_FIELD$,AUTO
          0 0000AE  CC85                                 LDB,B4   ,B5
          0 0000AF  8284                                 LB,'2000'X        ,B4
          0 0000B0       2000
          0 0000B1  0581 0005                            BBF      s:17307,PREL
          0 0000B3  8284                                 LB,'4000'X        ,B4
          0 0000B4       4000
          0 0000B5  0501 0015                            BBT      s:17325,PREL
PL6.E3A0      #001=QBI$IF_INDICATOR File=QBI$IF_INDICATOR.:E05TSI                WED 07/30/97 04:49 Page:21

      135    17303    3                 AND GZ_FIELD$ -> QI$GZ_FIELD.INDICATORS$ -> QI$INDICATORS.
             17303                          ENABLED_FLAGS.IS_OUTPUT
      136    17304    3               THEN
      137    17305    3                 GOTO SUCCEED;
      138    17306    3               ELSE
      139    17307    3                 GOTO FAIL;

  17307   0 0000B7  0F81 001B                            B        s:17335,PREL

      140    17308
      141    17309    3             CASE ( %QI#IF_INDICATOR_PRESENTED );

      142    17310    3               IF GZ_FIELD$ -> QI$GZ_FIELD.INDICATORS$ -> QI$INDICATORS.STATE_FLAGS.
             17310                        IS_PRESENTED

  17310   0 0000B9  DCC7 0004                            LDB,B5   GZ_FIELD$,AUTO
          0 0000BB  CC85                                 LDB,B4   ,B5
          0 0000BC  8284                                 LB,'0800'X        ,B4
          0 0000BD       0800
          0 0000BE  0501 000C                            BBT      s:17325,PREL

      143    17311    3               THEN
      144    17312    3                 GOTO SUCCEED;
      145    17313    3               ELSE
      146    17314    3                 GOTO FAIL;

  17314   0 0000C0  0F81 0012                            B        s:17335,PREL

      147    17315
      148    17316    3             CASE ( %QI#IF_INDICATOR_AVAILABLE );

      149    17317    3               IF GZ_FIELD$ -> QI$GZ_FIELD.INDICATORS$ -> QI$INDICATORS.STATE_FLAGS.
             17317                        IS_AVAILABLE

  17317   0 0000C2  DCC7 0004                            LDB,B5   GZ_FIELD$,AUTO
          0 0000C4  CC85                                 LDB,B4   ,B5
PL6.E3A0      #001=QBI$IF_INDICATOR File=QBI$IF_INDICATOR.:E05TSI                WED 07/30/97 04:49 Page:22
          0 0000C5  8284                                 LB,'1000'X        ,B4
          0 0000C6       1000
          0 0000C7  0501 0003                            BBT      s:17325,PREL

      150    17318    3               THEN
      151    17319    3                 GOTO SUCCEED;
      152    17320    3               ELSE
      153    17321    3                 GOTO FAIL;

  17321   0 0000C9  0F81 0009                            B        s:17335,PREL

      154    17322
      155    17323    3           END;

      156    17324
      157    17325    2         END WE_GOTTA_FIELD;

      158    17326
      159    17327    1   SUCCEED:
      160    17328    1       IF INSTR$ -> QI$OP_IFINDR.ATTRIBUTE.IS_NOT

  17328   0 0000CB  82C6 0002            SUCCEED         LB,'0010'X        2,B6
  17328   0 0000CD       0010
          0 0000CE  0501 000C                            BBT      s:17359,PREL

      161    17329    1       THEN
      162    17330    1         GOTO BRANCH_AROUND_TRUE_STATEMENTS;
      163    17331
      164    17332    1       RETURN;

  17332   0 0000D0  C380 0000 0000  xent                 LNJ,B4   X6A_ARET

      165    17333
      166    17334    1   FAIL:
      167    17335    1       IF INSTR$ -> QI$OP_IFINDR.ATTRIBUTE.IS_NOT

  17335   0 0000D3  82C6 0002            FAIL            LB,'0010'X        2,B6
PL6.E3A0      #001=QBI$IF_INDICATOR File=QBI$IF_INDICATOR.:E05TSI                WED 07/30/97 04:49 Page:23
  17335   0 0000D5       0010
          0 0000D6  0581 0004                            BBF      s:17359,PREL

      168    17336    1       THEN
      169    17337    1         RETURN;

  17337   0 0000D8  C380 0000 0000  xent                 LNJ,B4   X6A_ARET

      170    17338
      171    17339    1   BRANCH_AROUND_TRUE_STATEMENTS:
      172    17340            %PROC_ADDRESS ( THING@P = "INSTR$ -> QI$OP_IFINDR.FALSE_CONDITION@P",
      173    17341            CHECK_FOR_INDIRECTION = NO,
      174    17342            RESULT$ = "QI_1.INSTR$" );

  17359   0                              BRANCH_AROUND_T*null
  17360   0 0000DB  B846 0003            BRANCH_AROUND_T*LDR,R3   3,B6
          0 0000DD  F853                                 LDR,R7   R3
          0 0000DE  6C00                                 LDV,R6   0
          0 0000DF  8400 0000 0002  xsym                 AID      QI_1+2
          0 0000E2  8D00 0000 0006  xsym                 SDI      QI_1+6

      175    17379
      176    17380    1       ALTRETURN;

  17380   0 0000E5  C380 0000 0000  xent                 LNJ,B4   X6A_AALT

      177    17381
      178    17382        %EJECT;
PL6.E3A0      #001=QBI$IF_INDICATOR File=QBI$IF_INDICATOR.:E05TSI                WED 07/30/97 04:49 Page:24
      179    17383    1   CHECK_USE_PROCEDURE:
      180    17384    1       QCU@USE.USE_DEFAULT_IO = %QI#USE_DEFAULT_NONE;

  17384   0 0000E8  8747 000C            CHECK_USE_PROCE*CL       QCU@USE+4,AUTO

      181    17385    1       QCU@USE.IS_TIME_TO_SAVE_AWAY_FIELDS = %NO;

  17385   0 0000EA  8747 000D                            CL       QCU@USE+5,AUTO

      182    17386    1       QCU@USE.CURR_FRAME$ = QI_1.CURRENT.FRAME$;

  17386   0 0000EC  DC80 0000 007A  xsym                 LDB,B5   QI_1+122
          0 0000EF  DFC7 0008                            STB,B5   QCU@USE,AUTO

      183    17387    1       QCU@USE.CURR_NODE$ = QI_1.CURRENT.NODE$;

  17387   0 0000F1  CC80 0000 0080  xsym                 LDB,B4   QI_1+128
          0 0000F4  CFC7 000A                            STB,B4   QCU@USE+2,AUTO

      184    17388
      185    17389    1       CALL QCU$USE_IO ( QCU@USE );

  17389   0 0000F6  BBC7 0008                            LAB,B3   QCU@USE,AUTO
          0 0000F8  BFC7 0016                            STB,B3   QCU@USE+14,AUTO
          0 0000FA  BBC7 0016                            LAB,B3   QCU@USE+14,AUTO
          0 0000FC  CBF0 0100                            LAB,B4   256,IMO
          0 0000FE  E380 0000 0000  xent                 LNJ,B6   QCU$USE_IO
          0 000101       0001                            DC       s:17391,PREL

      186    17390
      187    17391    2       DO CASE ( QCU@USE.STATUS );

  17391   0 000102  B847 0015                            LDR,R3   QCU@USE+13,AUTO
          0 000104  3D03                                 CMV,R3   3
          0 000105  0281 0012                            BGE      s:17403,PREL
          0 000107  A830 0000 010D  00                   LDR,R2   s:17391+11,R3
          0 00010A  83A0 0000 0110  00                   JMP      s:17394,R2
PL6.E3A0      #001=QBI$IF_INDICATOR File=QBI$IF_INDICATOR.:E05TSI                WED 07/30/97 04:49 Page:25
          0 00010D       0000                            DC       s:17394,PREL
          0 00010E       0003                            DC       s:17397,PREL
          0 00010F       0005                            DC       s:17400,PREL

      188    17392
      189    17393    2         CASE ( %QI#USE_INVALID_RETURN );

      190    17394    2           RETURN;

  17394   0 000110  C380 0000 0000  xent                 LNJ,B4   X6A_ARET

      191    17395
      192    17396    2         CASE ( %QI#USE_INVALID_RETRY );

      193    17397    2           GOTO RETRY_WHATEVER_FLAGS;

  17397   0 000113  0F81 FEFB                            B        s:17221,PREL

      194    17398
      195    17399    2         CASE ( %QI#USE_INVALID_SKIP_TO_NEXT );

      196    17400    2           RETURN;

  17400   0 000115  C380 0000 0000  xent                 LNJ,B4   X6A_ARET

      197    17401
      198    17402    2         CASE ( ELSE );

      199    17403    2           CALL QCE$ERROR_INTERNAL ( %E$INTERNAL_INTERPRETER_ERROR );

  17403   0 000118  BB80 0000 0003  01                   LAB,B3   +3
          0 00011B  CBF0 0100                            LAB,B4   256,IMO
          0 00011D  E380 0000 0000  xent                 LNJ,B6   QCE$ERROR_INTERNAL
          0 000120       0001                            DC       s:17407,PREL

      200    17404
      201    17405    2       END;
PL6.E3A0      #001=QBI$IF_INDICATOR File=QBI$IF_INDICATOR.:E05TSI                WED 07/30/97 04:49 Page:26

      202    17406
      203    17407    1   END QBI$IF_INDICATOR;

  17407   0 000121  C380 0000 0000  xent                 LNJ,B4   X6A_ARET

PL6.E3A0      #001=QBI$IF_INDICATOR File=QBI$IF_INDICATOR.:E05TSI                WED 07/30/97 04:49 Page:27
--  Include file information  --

   QCU_USE_M.:E05TOU  is referenced.
   QI_MACROS_M.:E05TOU  is referenced.
   QI_PERR_C.:E05TOU  is referenced.
   QI_EQUATES_E.:E05TOU  is referenced.
   QG_MACRO_M.:E05TOU  is referenced.
   LCP_6.:E05TOU  cannot be made into a system file and is referenced.
   G_LCP6_E.:E05TOU  was found in the system file and is referenced.
   GT_LCP6_M.:E05TOU  was found in the system file and is referenced.
   KI_CP6.:E05TOU  was found in the system file and is referenced.
   GF_LCP6_M.:E05TOU  was found in the system file and is referenced.
   GM_LCP6_M.:E05TOU  was found in the system file and is referenced.
   GU_LCP6_M.:E05TOU  was found in the system file and is referenced.
   GJ_LCP6_M.:E05TOU  was found in the system file and is referenced.
   GH_LCP6_M.:E05TOU  was found in the system file and is referenced.
      No diagnostics issued in procedure QBI$IF_INDICATOR.
PL6.E3A0      #001=QBI$IF_INDICATOR File=QBI$IF_INDICATOR.:E05TSI                WED 07/30/97 04:49 Page:28

 **** Variables and constants ****

  ****  Auto variables  ****

  ****  Scalars and arrays  ****
HexLoc.c.b A Datatyp(siz) R M Lvl/name                 HexLoc.c.b A Datatyp(siz) R M Lvl/name

     4-0-0/w PTR         r     1 GZ_FIELD$                  6-0-0/w PTR         r     1 INSTR$
     8-0-0/w STRC(224)   r     1 QCU@USE

  ****  SYMREF variables  ****

  ****  Scalars and arrays  ****
HexLoc.c.b A Datatyp(siz) R M Lvl/name                 HexLoc.c.b A Datatyp(siz) R M Lvl/name

     0-0-0/d STRC(2576)  r     1 QI_1

  ****  BASED and DCB variables  ****

  ****  Scalars and arrays  ****
HexLoc.c.b A Datatyp(siz) R M Lvl/name                 HexLoc.c.b A Datatyp(siz) R M Lvl/name

     0-0-0/w STRC(48)    r     1 QI$DAD                     0-0-0/w STRC(144)   r     1 QI$FORM_STATUS
     0-0-0/w STRC(208)   r     1 QI$FRAME_STATUS            0-0-0/w STRC(184)   r     1 QI$GZ_FIELD
     0-0-0/w STRC(16)    r     1 QI$INDICATORS              0-0-0/w STRC(48)    r     1 QI$MAJOR_STATUS
     0-0-0/w STRC(80)    r     1 QI$OP_IFINDR
     0-0-0/c ASTR(8)     r     1 QI$VARIABLE_IDENTIFIER


   Procedure QBI$IF_INDICATOR requires 292 words for executable code.
   Procedure QBI$IF_INDICATOR requires 24 words of local(AUTO) storage.

    No errors detected in file QBI$IF_INDICATOR.:E05TSI    .
PL6.E3A0      #001=QBI$IF_INDICATOR File=QBI$IF_INDICATOR.:E05TSI                WED 07/30/97 04:49 Page:29
          *** CROSS REFERENCE LISTING ***
**     DENOTES     IDENTIFIER DEFINITION
<<                 IDENTIFIER'S VALUE SET
>>                 IDENTIFIER'S VALUE USED
<>                 IDENTIFIER SET AND/OR USED
--                 IDENTIFIER REFERENCED
PL6.E3A0      #001=QBI$IF_INDICATOR File=QBI$IF_INDICATOR.:E05TSI                WED 07/30/97 04:49 Page:30
          MINI XREF LISTING

BRANCH_AROUND_TRUE_STATEMENTS
     17359**LABEL   17330--GOTO
CHECK_USE_PROCEDURE
     17384**LABEL   17259--GOTO
FAIL
     17335**LABEL   17271--GOTO    17280--GOTO    17292--GOTO    17299--GOTO    17307--GOTO    17314--GOTO
     17321--GOTO
GZ_FIELD$
     17072**DCL     17282<<ASSIGN  17288>>IF      17295>>IF      17302>>IF      17302>>IF      17310>>IF
     17317>>IF
INSTR$
     17073**DCL     17198<<ASSIGN  17199>>ASSIGN  17222>>ASSIGN  17262>>IF      17285>>DOCASE  17328>>IF
     17335>>IF      17360>>ASSIGN
QCE$ERROR_INTERNAL
     17075**DCL-ENT 17403--CALL
QCF$FIND_CURRENTS
     17076**DCL-ENT 17242--CALL
QCU$USE_IO
     17077**DCL-ENT 17389--CALL
QCU@USE
     17150**DCL     17389<>CALL
QCU@USE.CURR_FRAME$
     17151**DCL     17386<<ASSIGN
QCU@USE.CURR_NODE$
     17153**DCL     17387<<ASSIGN
QCU@USE.IS_TIME_TO_SAVE_AWAY_FIELDS
     17158**DCL     17385<<ASSIGN
QCU@USE.STATUS
     17184**DCL     17391>>DOCASE
QCU@USE.USE_DEFAULT_IO
     17155**DCL     17384<<ASSIGN
QGB_PARAM.DVE.DVBYTE.VFC
PL6.E3A0      #001=QBI$IF_INDICATOR File=QBI$IF_INDICATOR.:E05TSI                WED 07/30/97 04:49 Page:31
     11555**DCL     11556--REDEF
QGB_PARAM.DVE.EOMCHAR
     11567**DCL     11568--REDEF
QGB_PARAM.MSG$
     11549**DCL     11550--REDEF
QGB_PARAM.UHDR$
     11574**DCL     11575--REDEF
QI$ACTIVATION_STATUS
      9313**DCL      9319--REDEF
QI$CIP
      8154**DCL      8224--REDEF
QI$CIP.CA
      8159**DCL      8163--REDEF    8166--REDEF    8169--REDEF
QI$COBOL_DAD.PSEUDO_CIP
      8398**DCL      8423--REDEF
QI$COBOL_DAD.PSEUDO_CIP.ALPHANUMERIC
      8400**DCL      8405--REDEF
QI$COBOL_DAD.PSEUDO_CIP.NUMERIC.CB
      8406**DCL      8409--REDEF    8412--REDEF
QI$COBOL_DAD.VARIABLE_LENGTH_ITEMS
      8434**DCL      8450--REDEF    8458--REDEF    8466--REDEF
QI$COBOL_DAD.VARIABLE_LENGTH_ITEMS.LEVEL_MULTIPLIERS
      8435**DCL      8445--REDEF    8448--REDEF
QI$COBOL_DAD.WORD0
      8362**DCL      8363--REDEF    8377--REDEF
QI$COBOL_DAD_P_BITS.P
      8502**DCL      8508--REDEF
QI$CONDITION_CONTROL_BLOCK.LIST_A@P
      7988**DCL      7989--REDEF
QI$CONDITION_CONTROL_BLOCK.WORD0_FLAGS
      7984**DCL      7987--REDEF
QI$CONDITION_LEGAL_BLOCK.ARRAY@P
      8021**DCL      8022--REDEF    8023--REDEF
QI$DAD.PSEUDO_CIP
      8301**DCL      8326--REDEF
QI$DAD.PSEUDO_CIP.ALPHANUMERIC
PL6.E3A0      #001=QBI$IF_INDICATOR File=QBI$IF_INDICATOR.:E05TSI                WED 07/30/97 04:49 Page:32
      8303**DCL      8308--REDEF
QI$DAD.PSEUDO_CIP.DATA@
      8325**DCL     17225>>ASSIGN
QI$DAD.PSEUDO_CIP.NUMERIC.CB
      8309**DCL      8312--REDEF    8315--REDEF
QI$DAD.WORD0
      8270**DCL      8271--REDEF
QI$DAD.WORD0_FLAGS.INDIRECT
      8272**DCL     17224>>DOWHILE
QI$DAD.WORD0_FLAGS.IS_CONSTANT
      8277**DCL     17225>>ASSIGN
QI$ERROR_MESSAGE_LINE
     11662**DCL     11664--REDEF
QI$ERROR_STATUS
     11659**DCL     11661--REDEF
QI$FIELD_DAD.ELEMENTARY_ITEM.P
      8716**DCL      8723--REDEF
QI$FIELD_DAD.ONE_DIMENSIONAL_ITEM.P
      8736**DCL      8743--REDEF
QI$FIELD_DAD.PSEUDO_CIP
      8643**DCL      8668--REDEF
QI$FIELD_DAD.PSEUDO_CIP.ALPHANUMERIC
      8645**DCL      8650--REDEF
QI$FIELD_DAD.PSEUDO_CIP.NUMERIC.CB
      8651**DCL      8654--REDEF    8657--REDEF
QI$FIELD_DAD.TWO_DIMENSIONAL_ITEM.P
      8756**DCL      8763--REDEF
QI$FIELD_DAD.VARIABLE_LENGTH_ITEMS
      8699**DCL      8715--REDEF    8733--REDEF    8751--REDEF
QI$FIELD_DAD.VARIABLE_LENGTH_ITEMS.LEVEL_MULTIPLIERS
      8700**DCL      8710--REDEF    8713--REDEF
QI$FIELD_DAD.WORD0
      8595**DCL      8596--REDEF
QI$FIELD_DAD.WORD0_FLAGS.IO_FLAGS
      8599**DCL      8604--REDEF
QI$FIELD_DAD_P.P
PL6.E3A0      #001=QBI$IF_INDICATOR File=QBI$IF_INDICATOR.:E05TSI                WED 07/30/97 04:49 Page:33
      8797**DCL      8804--REDEF
QI$FIELD_STATUS.INDICATORS
      9463**DCL      9495--REDEF
QI$FIELD_STATUS.INDICATORS.ENABLED_FLAGS
      9467**DCL      9472--REDEF
QI$FIELD_STATUS.INDICATORS.OPEN_FLAGS
      9479**DCL      9486--REDEF
QI$FIELD_STATUS.INDICATORS.STATE_FLAGS
      9473**DCL      9478--REDEF
QI$FILE.WORD0
      8919**DCL      8920--REDEF
QI$FILE_STATUS.INDICATORS
      9756**DCL      9788--REDEF
QI$FILE_STATUS.INDICATORS.ENABLED_FLAGS
      9760**DCL      9765--REDEF
QI$FILE_STATUS.INDICATORS.OPEN_FLAGS
      9772**DCL      9779--REDEF
QI$FILE_STATUS.INDICATORS.STATE_FLAGS
      9766**DCL      9771--REDEF
QI$FORM_FILE.USE_PROCEDURE
      9019**DCL      9026--REDEF
QI$FORM_FILE.WORD0
      8973**DCL      8974--REDEF
QI$FORM_STATUS.INDICATORS
      9877**DCL      9909--REDEF
QI$FORM_STATUS.INDICATORS.ENABLED_FLAGS
      9881**DCL      9886--REDEF
QI$FORM_STATUS.INDICATORS.OPEN_FLAGS
      9893**DCL      9900--REDEF
QI$FORM_STATUS.INDICATORS.OPEN_FLAGS.IS_INPUT
      9897**DCL     17254>>IF
QI$FORM_STATUS.INDICATORS.OPEN_FLAGS.IS_OUTPUT
      9894**DCL     17254>>IF
QI$FORM_STATUS.INDICATORS.STATE_FLAGS
      9887**DCL      9892--REDEF
QI$FRAME.WORD0
PL6.E3A0      #001=QBI$IF_INDICATOR File=QBI$IF_INDICATOR.:E05TSI                WED 07/30/97 04:49 Page:34
      9134**DCL      9135--REDEF
QI$FRAME_STATUS.GZ.START$
     10069**DCL     17282>>ASSIGN
QI$FRAME_STATUS.INDICATORS
     10106**DCL     10138--REDEF
QI$FRAME_STATUS.INDICATORS.ENABLED_FLAGS
     10110**DCL     10115--REDEF
QI$FRAME_STATUS.INDICATORS.IS_ACTIVE
     10108**DCL     17267>>IF      17278>>IF
QI$FRAME_STATUS.INDICATORS.OPEN_FLAGS
     10122**DCL     10129--REDEF
QI$FRAME_STATUS.INDICATORS.STATE_FLAGS
     10116**DCL     10121--REDEF
QI$GZ_FIELD
     16985**DCL     17282--ASSIGN
QI$GZ_FIELD.DESCRIPTION.IO_FLAGS
     16988**DCL     16993--REDEF
QI$GZ_FIELD.INDICATORS$
     16986**DCL     17288>>IF      17295>>IF      17302>>IF      17302>>IF      17310>>IF      17317>>IF
QI$IDENTIFIER
     11665**DCL     11667--REDEF
QI$INDICATORS
      9377**DCL      9407--REDEF
QI$INDICATORS.ENABLED_FLAGS
      9383**DCL      9388--REDEF
QI$INDICATORS.ENABLED_FLAGS.IS_INPUT
      9386**DCL     17288>>IF      17302>>IF
QI$INDICATORS.ENABLED_FLAGS.IS_OUTPUT
      9384**DCL     17295>>IF      17302>>IF
QI$INDICATORS.OPEN_FLAGS
      9395**DCL      9402--REDEF
QI$INDICATORS.STATE_FLAGS
      9389**DCL      9394--REDEF
QI$INDICATORS.STATE_FLAGS.IS_AVAILABLE
      9390**DCL     17317>>IF
QI$INDICATORS.STATE_FLAGS.IS_PRESENTED
PL6.E3A0      #001=QBI$IF_INDICATOR File=QBI$IF_INDICATOR.:E05TSI                WED 07/30/97 04:49 Page:35
      9392**DCL     17310>>IF
QI$MAJOR_NODE.WORD0
      8833**DCL      8834--REDEF
QI$MAJOR_STATUS.GZ.FIELD_START_INDEX
      9532**DCL     17282>>ASSIGN
QI$MAJOR_STATUS.INDICATORS
      9556**DCL      9588--REDEF
QI$MAJOR_STATUS.INDICATORS.ENABLED_FLAGS
      9560**DCL      9565--REDEF
QI$MAJOR_STATUS.INDICATORS.OPEN_FLAGS
      9572**DCL      9579--REDEF
QI$MAJOR_STATUS.INDICATORS.STATE_FLAGS
      9566**DCL      9571--REDEF
QI$MESSAGE_TYPE
     11656**DCL     11658--REDEF
QI$MINOR_NODE.WORD0
      8876**DCL      8877--REDEF
QI$MINOR_STATUS.INDICATORS
      9649**DCL      9681--REDEF
QI$MINOR_STATUS.INDICATORS.ENABLED_FLAGS
      9653**DCL      9658--REDEF
QI$MINOR_STATUS.INDICATORS.OPEN_FLAGS
      9665**DCL      9672--REDEF
QI$MINOR_STATUS.INDICATORS.STATE_FLAGS
      9659**DCL      9664--REDEF
QI$OP_ACCEPT.DATANAME@P
      6064**DCL      6065--REDEF
QI$OP_CALL.EPTR$
      6236**DCL      6237--REDEF
QI$OP_CLEAR.IO_FLAGS
      6269**DCL      6272--REDEF
QI$OP_DISPLAY.FIELD_A@P
      6536**DCL      6537--REDEF
QI$OP_ENABLE.IO_FLAGS
      6623**DCL      6626--REDEF
QI$OP_IFCLS.ATTRIBUTE.TYPE
PL6.E3A0      #001=QBI$IF_INDICATOR File=QBI$IF_INDICATOR.:E05TSI                WED 07/30/97 04:49 Page:36
      6716**DCL      6721--REDEF
QI$OP_IFINDR.ATTRIBUTE.IS_NOT
      6821**DCL     17328>>IF      17335>>IF
QI$OP_IFINDR.ATTRIBUTE.STATUS_TYPE
      6822**DCL     17262>>IF      17285>>DOCASE
QI$OP_IFINDR.FALSE_CONDITION@P
      6823**DCL     17360>>ASSIGN
QI$OP_IFINDR.FRAME_OR_FIELD@P
      6818**DCL     17222>>ASSIGN
QI$OP_IFINDR.NEXT_CODE@P
      6824**DCL     17199--ASSIGN
QI$OP_INSPECT.TALLYING_FOR_ITEM@P
      6950**DCL      6951--REDEF
QI$OP_INSPECT.TALLYING_INITIAL_ITEM@P
      6952**DCL      6953--REDEF
QI$OP_INSPECT.TALLYING_ITEM@P
      6948**DCL      6949--REDEF
QI$OP_OPEN.IO_FLAGS
      7510**DCL      7513--REDEF
QI$OP_PERFM.BINARY_ITERATION_COUNT@P
      7548**DCL      7549--REDEF
QI$PSEUDO_CIP
      8049**DCL      8073--REDEF
QI$PSEUDO_CIP.ALPHANUMERIC
      8053**DCL      8058--REDEF
QI$PSEUDO_CIP.NUMERIC.CB
      8059**DCL      8062--REDEF    8065--REDEF
QI$TERMINAL_ATTRIBUTES
      9270**DCL      9283--REDEF
QI$TRAN_FILE.WORD0
      9055**DCL      9056--REDEF
QI$TRAN_STATUS.INDICATORS
      9990**DCL     10022--REDEF
QI$TRAN_STATUS.INDICATORS.ENABLED_FLAGS
      9994**DCL      9999--REDEF
QI$TRAN_STATUS.INDICATORS.OPEN_FLAGS
PL6.E3A0      #001=QBI$IF_INDICATOR File=QBI$IF_INDICATOR.:E05TSI                WED 07/30/97 04:49 Page:37
     10006**DCL     10013--REDEF
QI$TRAN_STATUS.INDICATORS.STATE_FLAGS
     10000**DCL     10005--REDEF
QI$VARIABLE_IDENTIFIER.LENGTH
     11669**DCL     11670--IMP-SIZ
QI_1.BASE
     10198**DCL     10205--REDEF
QI_1.BASE.PROC$
     10201**DCL     17222>>ASSIGN  17360>>ASSIGN
QI_1.BASE_A$
     10205**DCL     17225>>ASSIGN
QI_1.CURRENT.FILE$
     11089**DCL     11091--REDEF   11093--REDEF
QI_1.CURRENT.FILE_STATUS$
     11095**DCL     11097--REDEF   11099--REDEF
QI_1.CURRENT.FORM_STATUS$
     11097**DCL     17252>>IF      17254>>IF      17254>>IF
QI_1.CURRENT.FRAME$
     11101**DCL     17386>>ASSIGN
QI_1.CURRENT.FRAME_STATUS$
     11103**DCL     17267>>IF      17278>>IF      17282>>ASSIGN
QI_1.CURRENT.NODE$
     11108**DCL     17222<<ASSIGN  17224>>DOWHILE 17225<<ASSIGN  17225>>ASSIGN  17225>>ASSIGN  17387>>ASSIGN
QI_1.CURRENT.NODE_STATUS$
     11110**DCL     17282>>ASSIGN
QI_1.DAD
     10893**DCL     10898--REDEF
QI_1.ERROR_STATUS
     11123**DCL     17258<<ASSIGN
QI_1.FILE_HEAD
     11076**DCL     11083--REDEF
QI_1.INSTR$
     10206**DCL     17198>>ASSIGN  17199<<ASSIGN  17360<<ASSIGN
QI_1.IS_ALL_LIT
     10899**DCL     10904--REDEF
QI_1.IS_FORM_VARIABLE
PL6.E3A0      #001=QBI$IF_INDICATOR File=QBI$IF_INDICATOR.:E05TSI                WED 07/30/97 04:49 Page:38
     10905**DCL     10910--REDEF
QI_1.IS_TEMP
     10911**DCL     10916--REDEF
QI_1.MESSAGE_LINE_DAD.PSEUDO_CIP
     11009**DCL     11034--REDEF
QI_1.MESSAGE_LINE_DAD.PSEUDO_CIP.ALPHANUMERIC
     11011**DCL     11016--REDEF
QI_1.MESSAGE_LINE_DAD.PSEUDO_CIP.NUMERIC.CB
     11017**DCL     11020--REDEF   11023--REDEF
QI_1.MESSAGE_LINE_DAD.WORD0
     10978**DCL     10979--REDEF
QI_1.OFFSET
     10917**DCL     10922--REDEF
QI_1.OP.CIP
     10278**DCL     10729--REDEF
QI_1.OP.CIP.AUX
     10644**DCL     10715--REDEF
QI_1.OP.CIP.AUX.CD
     10689**DCL     10692--REDEF   10696--REDEF   10699--REDEF
QI_1.OP.CIP.S
     10348**DCL     10419--REDEF
QI_1.OP.CIP.S.CD
     10393**DCL     10396--REDEF   10400--REDEF   10403--REDEF
QI_1.OP.CIP.T
     10496**DCL     10567--REDEF
QI_1.OP.CIP.T.CD
     10541**DCL     10544--REDEF   10548--REDEF   10551--REDEF
QI_1.OP.DATA
     10736**DCL     10740--REDEF
QI_1.OP.FILL_CHAR
     10860**DCL     10863--REDEF
QI_1.OP.INX
     10793**DCL     10797--REDEF   10798--REDEF   10802--REDEF
QI_1.OP.LEN
     10776**DCL     10780--REDEF   10781--REDEF   10785--REDEF   10786--REDEF   10790--REDEF
QI_1.OP.LEN.AUX
PL6.E3A0      #001=QBI$IF_INDICATOR File=QBI$IF_INDICATOR.:E05TSI                WED 07/30/97 04:49 Page:39
     10779**DCL     11680--IMP-SIZ
QI_1.OP.LEN.S
     10777**DCL     11676--IMP-SIZ
QI_1.OP.LEN.T
     10778**DCL     11678--IMP-SIZ
QI_1.OP.PICTURE_STRING
     10846**DCL     10849--REDEF   10850--REDEF   10853--REDEF   10854--REDEF   10857--REDEF
QI_1.OP.ROUND
     10879**DCL     10880--REDEF   10881--REDEF
QI_1.OP.SRCH_VRFY_ELEMS
     10815**DCL     10818--REDEF
QI_1.OPENED_COUNT
     11084**DCL     11087--REDEF
QI_1.OTTER_SPACE
     10923**DCL     10928--REDEF
QI_1.PICTURE_STRING
     10929**DCL     10934--REDEF
QI_1.SPECIAL_NAMES
     11112**DCL     11121--REDEF
QI_1.TYPE
     10935**DCL     10940--REDEF
QI_16_BIT_BINARY
     16125**DCL     16195--REDEF
QI_16_BIT_BINARY.CB
     16144**DCL     16147--REDEF   16151--REDEF   16154--REDEF
QI_31_DIGIT_SLS_DISPLAY
     15958**DCL     16028--REDEF
QI_31_DIGIT_SLS_DISPLAY.CD
     16005**DCL     16008--REDEF   16012--REDEF   16015--REDEF
QI_31_DIGIT_ST_PACKED
     16460**DCL     16530--REDEF
QI_31_DIGIT_ST_PACKED.CP
     16493**DCL     16496--REDEF   16500--REDEF   16503--REDEF
QI_32_BIT_BINARY
     16292**DCL     16362--REDEF
QI_32_BIT_BINARY.CB
PL6.E3A0      #001=QBI$IF_INDICATOR File=QBI$IF_INDICATOR.:E05TSI                WED 07/30/97 04:49 Page:40
     16311**DCL     16314--REDEF   16318--REDEF   16321--REDEF
QI_4_CHAR_ALPHANUMERIC
     15790**DCL     15860--REDEF
QI_4_CHAR_ALPHANUMERIC.CA
     15795**DCL     15799--REDEF   15802--REDEF   15805--REDEF
QI_ACCUMULATOR_DAD.CIP
     16803**DCL     16874--REDEF
QI_ACCUMULATOR_DAD.CIP.CP
     16834**DCL     16837--REDEF   16841--REDEF   16844--REDEF
QI_ALR.CIP
     11755**DCL     12206--REDEF
QI_ALR.CIP.AUX
     12121**DCL     12192--REDEF
QI_ALR.CIP.AUX.CA
     12124**DCL     12128--REDEF   12131--REDEF   12134--REDEF
QI_ALR.CIP.S
     11825**DCL     11896--REDEF
QI_ALR.CIP.S.CA
     11828**DCL     11832--REDEF   11835--REDEF   11838--REDEF
QI_ALR.CIP.T
     11973**DCL     12044--REDEF
QI_ALR.CIP.T.CA
     11976**DCL     11980--REDEF   11983--REDEF   11986--REDEF
QI_ALR.DATA
     12213**DCL     12217--REDEF
QI_ALR.FILL_CHAR
     12337**DCL     12340--REDEF
QI_ALR.INX
     12270**DCL     12274--REDEF   12275--REDEF   12279--REDEF
QI_ALR.LEN
     12253**DCL     12257--REDEF   12258--REDEF   12262--REDEF   12263--REDEF   12267--REDEF
QI_ALR.PICTURE_STRING
     12323**DCL     12326--REDEF   12327--REDEF   12330--REDEF   12331--REDEF   12334--REDEF
QI_ALR.ROUND
     12356**DCL     12357--REDEF   12358--REDEF
QI_ALR.SRCH_VRFY_ELEMS
PL6.E3A0      #001=QBI$IF_INDICATOR File=QBI$IF_INDICATOR.:E05TSI                WED 07/30/97 04:49 Page:41
     12292**DCL     12295--REDEF
QI_MAT.CIP
     15094**DCL     15545--REDEF
QI_MAT.CIP.AUX
     15460**DCL     15531--REDEF
QI_MAT.CIP.AUX.CA
     15463**DCL     15467--REDEF   15470--REDEF   15473--REDEF
QI_MAT.CIP.S
     15164**DCL     15235--REDEF
QI_MAT.CIP.S.CA
     15167**DCL     15171--REDEF   15174--REDEF   15177--REDEF
QI_MAT.CIP.T
     15312**DCL     15383--REDEF
QI_MAT.CIP.T.CA
     15315**DCL     15319--REDEF   15322--REDEF   15325--REDEF
QI_MAT.DATA
     15552**DCL     15556--REDEF
QI_MAT.DEC
     15620**DCL     15624--REDEF   15625--REDEF   15629--REDEF
QI_MAT.FILL_CHAR
     15676**DCL     15679--REDEF
QI_MAT.LEN
     15592**DCL     15596--REDEF   15597--REDEF   15601--REDEF   15602--REDEF   15606--REDEF
QI_MAT.PICTURE_STRING
     15662**DCL     15665--REDEF   15666--REDEF   15669--REDEF   15670--REDEF   15673--REDEF
QI_MAT.ROUND
     15695**DCL     15696--REDEF   15697--REDEF
QI_MAT.SRCH_VRFY_ELEMS
     15631**DCL     15634--REDEF
QI_PICTURE_STRING
     16628**DCL     16698--REDEF
QI_PICTURE_STRING.CA
     16633**DCL     16637--REDEF   16640--REDEF   16643--REDEF
QI_SRCH_VRFY.CIP
     14425**DCL     14876--REDEF
QI_SRCH_VRFY.CIP.AUX
PL6.E3A0      #001=QBI$IF_INDICATOR File=QBI$IF_INDICATOR.:E05TSI                WED 07/30/97 04:49 Page:42
     14791**DCL     14862--REDEF
QI_SRCH_VRFY.CIP.AUX.CA
     14794**DCL     14798--REDEF   14801--REDEF   14804--REDEF
QI_SRCH_VRFY.CIP.S
     14495**DCL     14566--REDEF
QI_SRCH_VRFY.CIP.S.CA
     14498**DCL     14502--REDEF   14505--REDEF   14508--REDEF
QI_SRCH_VRFY.CIP.T
     14643**DCL     14714--REDEF
QI_SRCH_VRFY.CIP.T.CA
     14646**DCL     14650--REDEF   14653--REDEF   14656--REDEF
QI_SRCH_VRFY.DATA
     14883**DCL     14887--REDEF
QI_SRCH_VRFY.DEC
     14951**DCL     14955--REDEF   14956--REDEF   14960--REDEF
QI_SRCH_VRFY.FILL_CHAR
     15007**DCL     15010--REDEF
QI_SRCH_VRFY.ROUND
     15026**DCL     15027--REDEF   15028--REDEF
QI_SRCH_VRFY.SRCH_RESULT
     14967**DCL     14970--REDEF   14971--REDEF   14974--REDEF   14975--REDEF   14978--REDEF
QI_SRCH_VRFY.SRCH_VRFY_ARGS
     14891**DCL     14895--REDEF   14896--REDEF   14900--REDEF   14901--REDEF   14905--REDEF
QI_SRCH_VRFY.SRCH_VRFY_ELEMS
     14962**DCL     14965--REDEF
QI_TYPE_BINARY_TARGET.CIP
     13752**DCL     14203--REDEF
QI_TYPE_BINARY_TARGET.CIP.AUX
     14118**DCL     14189--REDEF
QI_TYPE_BINARY_TARGET.CIP.AUX.CA
     14121**DCL     14125--REDEF   14128--REDEF   14131--REDEF
QI_TYPE_BINARY_TARGET.CIP.S
     13822**DCL     13893--REDEF
QI_TYPE_BINARY_TARGET.CIP.S.CA
     13825**DCL     13829--REDEF   13832--REDEF   13835--REDEF
QI_TYPE_BINARY_TARGET.CIP.T
PL6.E3A0      #001=QBI$IF_INDICATOR File=QBI$IF_INDICATOR.:E05TSI                WED 07/30/97 04:49 Page:43
     13970**DCL     14041--REDEF
QI_TYPE_BINARY_TARGET.CIP.T.CB
     13987**DCL     13990--REDEF   13994--REDEF   13997--REDEF
QI_TYPE_BINARY_TARGET.DATA
     14210**DCL     14214--REDEF
QI_TYPE_BINARY_TARGET.DEC
     14278**DCL     14282--REDEF   14283--REDEF   14287--REDEF
QI_TYPE_BINARY_TARGET.LEN
     14250**DCL     14254--REDEF   14255--REDEF   14259--REDEF   14260--REDEF   14264--REDEF
QI_TYPE_BINARY_TARGET.PICTURE_STRING
     14320**DCL     14323--REDEF   14324--REDEF   14327--REDEF   14328--REDEF   14331--REDEF
QI_TYPE_BINARY_TARGET.ROUND
     14353**DCL     14354--REDEF   14355--REDEF
QI_TYPE_BINARY_TARGET.SIZE_ERROR
     14339**DCL     14340--REDEF
QI_TYPE_BINARY_TARGET.SRCH_VRFY_ELEMS
     14289**DCL     14292--REDEF
QI_TYPE_DISPLAY_SOURCE.CIP
     12420**DCL     12871--REDEF
QI_TYPE_DISPLAY_SOURCE.CIP.AUX
     12786**DCL     12857--REDEF
QI_TYPE_DISPLAY_SOURCE.CIP.AUX.CA
     12789**DCL     12793--REDEF   12796--REDEF   12799--REDEF
QI_TYPE_DISPLAY_SOURCE.CIP.S
     12490**DCL     12561--REDEF
QI_TYPE_DISPLAY_SOURCE.CIP.S.CD
     12535**DCL     12538--REDEF   12542--REDEF   12545--REDEF
QI_TYPE_DISPLAY_SOURCE.CIP.T
     12638**DCL     12709--REDEF
QI_TYPE_DISPLAY_SOURCE.CIP.T.CA
     12641**DCL     12645--REDEF   12648--REDEF   12651--REDEF
QI_TYPE_DISPLAY_SOURCE.DATA
     12878**DCL     12882--REDEF
QI_TYPE_DISPLAY_SOURCE.DEC
     12946**DCL     12950--REDEF   12951--REDEF   12955--REDEF
QI_TYPE_DISPLAY_SOURCE.LEN
PL6.E3A0      #001=QBI$IF_INDICATOR File=QBI$IF_INDICATOR.:E05TSI                WED 07/30/97 04:49 Page:44
     12918**DCL     12922--REDEF   12923--REDEF   12927--REDEF   12928--REDEF   12932--REDEF
QI_TYPE_DISPLAY_SOURCE.PICTURE_STRING
     12988**DCL     12991--REDEF   12992--REDEF   12995--REDEF   12996--REDEF   12999--REDEF
QI_TYPE_DISPLAY_SOURCE.ROUND
     13021**DCL     13022--REDEF   13023--REDEF
QI_TYPE_DISPLAY_SOURCE.SIZE_ERROR
     13007**DCL     13008--REDEF
QI_TYPE_DISPLAY_SOURCE.SRCH_VRFY_ELEMS
     12957**DCL     12960--REDEF
QI_TYPE_DISPLAY_TARGET.CIP
     13086**DCL     13537--REDEF
QI_TYPE_DISPLAY_TARGET.CIP.AUX
     13452**DCL     13523--REDEF
QI_TYPE_DISPLAY_TARGET.CIP.AUX.CA
     13455**DCL     13459--REDEF   13462--REDEF   13465--REDEF
QI_TYPE_DISPLAY_TARGET.CIP.S
     13156**DCL     13227--REDEF
QI_TYPE_DISPLAY_TARGET.CIP.S.CA
     13159**DCL     13163--REDEF   13166--REDEF   13169--REDEF
QI_TYPE_DISPLAY_TARGET.CIP.T
     13304**DCL     13375--REDEF
QI_TYPE_DISPLAY_TARGET.CIP.T.CD
     13349**DCL     13352--REDEF   13356--REDEF   13359--REDEF
QI_TYPE_DISPLAY_TARGET.DATA
     13544**DCL     13548--REDEF
QI_TYPE_DISPLAY_TARGET.DEC
     13612**DCL     13616--REDEF   13617--REDEF   13621--REDEF
QI_TYPE_DISPLAY_TARGET.LEN
     13584**DCL     13588--REDEF   13589--REDEF   13593--REDEF   13594--REDEF   13598--REDEF
QI_TYPE_DISPLAY_TARGET.PICTURE_STRING
     13654**DCL     13657--REDEF   13658--REDEF   13661--REDEF   13662--REDEF   13665--REDEF
QI_TYPE_DISPLAY_TARGET.ROUND
     13687**DCL     13688--REDEF   13689--REDEF
QI_TYPE_DISPLAY_TARGET.SIZE_ERROR
     13673**DCL     13674--REDEF
QI_TYPE_DISPLAY_TARGET.SRCH_VRFY_ELEMS
PL6.E3A0      #001=QBI$IF_INDICATOR File=QBI$IF_INDICATOR.:E05TSI                WED 07/30/97 04:49 Page:45
     13623**DCL     13626--REDEF
RETRY_WHATEVER_FLAGS
     17221**LABEL   17397--GOTO
SUCCEED
     17328**LABEL   17269--GOTO    17290--GOTO    17297--GOTO    17305--GOTO    17312--GOTO    17319--GOTO
