VERSION E05

PL6.E3A0      #001=QBI$INSPECT File=QBI$INSPECT.:E05TSI                          WED 07/30/97 04:50 Page:1
        1        1        /*M* QBI$INSPECT:  INSPECT some dataname for things.  */
        2        2        /*T***********************************************************/
        3        3        /*T*                                                         */
        4        4        /*T* Copyright (c) Bull HN Information Systems Inc., 1997    */
        5        5        /*T*                                                         */
        6        6        /*T***********************************************************/
        7        7        /*X* DMC,PLM=4,IND=0,DCI=4,CSI=2,IAD=2,DTI=2,AND,ECI=0,DIN=2,STI=2 */
        8        8
        9        9        /*P*  NAME:         QBI$INSPECT
       10       10              PURPOSE:      INSPECT some dataname for things.
       11       11              DESCRIPTION:  Consult the FPL manual and the QI$OP_INSPECT %MACRO
       12       12                            for the various options on the INSPECT statement.
       13       13        */
       14       14
       15       15        QBI$INSPECT: PROC;
       16       16
       17       17        /*D*  NAME:         QBI$INSPECT
       18       18              CALL:         CALL QBI$INSPECT;
       19       19              PARAMETERS:   None.
       20       20              INTERFACE:    Called by QAT$TALLYHO when an INSPECT op-code is
       21       21                            encountered.
       22       22                            Calls QCS$SETUP_whatever,
       23       23                            all kinds of comparison, conversion, and move QCCs.
       24       24              ENVIRONMENT:  Nothing unusual.
       25       25              INPUT:        QI_1,
       26       26                            FPL rununit static data following the op-code.
       27       27              OUTPUT:       TALLY-ed data item; REPLACE-d data item.
       28       28              SCRATCH:      Various otter data.
       29       29              DESCRIPTION:  All sorts of convolutions of options are possible.
       30       30                            The noteable weird things include overpunched signs
       31       31                            within the dataname being INSPECT-ed, and a BINARY
       32       32                            item as the TALLY destination.
       33       33                            Although the compiler currently doesn't allow the
       34       34                            use of comparison strings longer than 1 character,
       35       35                            this code is (supposedly) able to handle longer
       36       36                            strings.  Someday, the compiler should be changed
       37       37                            to check only that the INSPECT-ed string and any
PL6.E3A0      #001=QBI$INSPECT File=QBI$INSPECT.:E05TSI                          WED 07/30/97 04:50 Page:2
       38       38                            REPLACE-ing strings are the same length.
       39       39                            There still exists some doubt as to what exactly
       40       40                            is to be done with signed DISPLAY items that are:
       41       41                            1)  being inspected;
       42       42                            2)  being inspected for.
       43       43                            COBOL seems inconsistent, but won't admit it
       44       44                            (a STAR against this was hastily, and I believe
       45       45                            wrongly, closed).
       46       46                            What's currently done is:
       47       47                            1)  the item being inspected has its sign stripped
       48       48                                and replaced again ONLY if it's overpunched;
       49       49                            2)  the item being inspected for is left alone
       50       50                                (currently, it can only be one digit long,
       51       51                                which excludes "SIGN ... SEPARATE" items).
       52       52        */
       53       53
       54       54          %INCLUDE LCP_6;
       55      245
       56      246          %INCLUDE QG_MACRO_M;
       57      383          %INCLUDE QI_EQUATES_E;
       58      742          %INCLUDE QI_MACROS_M;
       59     5800          %QI$ALL;
       60    16913
       61    16914    1     DCL QCS$SETUP_SOURCE ENTRY;
       62    16915    1     DCL QCS$SETUP_TARGET ENTRY;
       63    16916    1     DCL QCS$SETUP_AUX ENTRY;
       64    16917    1     DCL QCC$CBD ENTRY (1) ALTRET;
       65    16918    1     DCL QCC$CDB ENTRY (1) ALTRET;
       66    16919    1     DCL QCC$DAD ENTRY (1) ALTRET;
       67    16920    1     DCL QCC$DMC ENTRY (1) ALTRET;
       68    16921
       69    16922    1     DCL ENDING_INDEX SBIN;
       70    16923    1     DCL INSTR$ PTR;
       71    16924    1     DCL IT_WAS_OVERPUNCHED BIT(1) ALIGNED;
       72    16925    1     DCL IT_WAS_POSITIVE BIT(1) ALIGNED;
       73    16926    1     DCL ORIGINAL_TARGET_LENGTH UBIN;
       74    16927    1     DCL OVERPUNCHED_CHAR UBIN BYTE ALIGNED;
PL6.E3A0      #001=QBI$INSPECT File=QBI$INSPECT.:E05TSI                          WED 07/30/97 04:50 Page:3
       75    16928    1     DCL STARTING_INDEX SBIN;
       76    16929    1     DCL TALLIED_ITEM_IS_A_TEMP BIT(1) ALIGNED;
       77    16930    1     DCL TALLIED_ITEM_DAD$ PTR;
       78    16931    1     DCL TALLIED_ITEM_TYPE UBIN;
       79    16932    1     DCL TALLY UBIN;
       80    16933    1     DCL VARIABLE_SOURCE$ CPTR;
       81    16934    1     DCL VARIABLE_TARGET$ CPTR;
       82    16935
       83    16936          %QI@CIP_OPERATION ( NAME = QI@OP_ID_2_OR_5,
       84    16937                              STCLASS = "AUTO" );
       85    17573          %QI@CIP_OPERATION ( NAME = QI@OP_ID_3_OR_6,
       86    17574                              STCLASS = "AUTO" );
       87    18210          %QI@OTTER_SPACE;
       88    18238          %QI@OTTER_SPACE ( NAME = QI@OTTER_SPACE_2 );
       89    18266        %EJECT;
PL6.E3A0      #001=QBI$INSPECT File=QBI$INSPECT.:E05TSI                          WED 07/30/97 04:50 Page:4
       90    18267    1       INSTR$ = QI_1.INSTR$;
       91    18268    1       QI_1.INSTR$ = ADDR ( INSTR$ -> QI$OP_INSPECT.NEXT_CODE@P );
       92    18269
       93    18270    1       TALLY = 0;
       94    18271
       95    18272    1       CALL QCS$SETUP_TARGET;
       96    18273
       97    18274            /*  Assume it's normal...  */
       98    18275    1       IT_WAS_OVERPUNCHED = %NO;
       99    18276
      100    18277            /*  This stuff tries to 'un-sign' a signed numeric item.
      101    18278                QCU$UNSIGN isn't used because it doesn't worry about
      102    18279                trying to remember what the sign was to begin with,
      103    18280                and because it extends P-scaled items.  */
      104    18281    1       IF QI_1.TYPE.T = %QI#TYPE_DISPLAY
      105    18282    1       THEN
      106    18283    2         DO;
      107    18284                /*  Tweak the necessary bits to make this thing look
      108    18285                    ALPHANUMERIC and INDEXED.  */
      109    18286    2           QI_1.OP.CIP.T.CD.SIGN = %QI#CD_UNSIGNED;
      110    18287    2           QI_1.OP.CIP.T.LEN = 0;
      111    18288    2           QI_1.OP.CIP.T.AS = %QI#CIP_INDEXED_TARGET_AS;
      112    18289    2           QI_1.OP.INX.T = 0;
      113    18290
      114    18291    3           DO CASE ( QI_1.OP.CIP.T.CD.SIGN );
      115    18292
      116    18293    3             CASE ( %QI#CD_SIGN_LEADING_SEPARATE );
      117    18294        /*N*
      118    18295              Do we really not do this?
      119    18296                    QI_1.OP.INX.T = QI_1.OP.INX.T + 1;
      120    18297                    QI_1.OP.LEN.T = QI_1.OP.LEN.T - 1;
      121    18298        */
      122    18299
      123    18300    3             CASE ( %QI#CD_SIGN_TRAILING_SEPARATE );
      124    18301        /*N*
      125    18302              Do we really not do this?
      126    18303                    QI_1.OP.LEN.T = QI_1.OP.LEN.T - 1;
PL6.E3A0      #001=QBI$INSPECT File=QBI$INSPECT.:E05TSI                          WED 07/30/97 04:50 Page:5
      127    18304        */
      128    18305
      129    18306    3             CASE ( %QI#CD_SIGN_TRAILING_OVER );
      130    18307    3               IT_WAS_OVERPUNCHED = %YES;
      131    18308    3               OVERPUNCHED_CHAR = QI_1.OP.DATA.T$ ->
      132    18309    3                 QI$UBYTE_A ( QI_1.OFFSET.T + QI_1.OP.LEN.T - 1 );
      133    18310
      134    18311    4               DO CASE ( OVERPUNCHED_CHAR );
      135    18312
      136    18313    4                 CASE ( %ASCBIN('{') );
      137    18314    4                   OVERPUNCHED_CHAR = %QI#ZERO;
      138    18315    4                   IT_WAS_POSITIVE = %YES;
      139    18316
      140    18317    4                 CASE ( %ASCBIN('}') );
      141    18318    4                   OVERPUNCHED_CHAR = %QI#ZERO;
      142    18319    4                   IT_WAS_POSITIVE = %NO;
      143    18320
      144    18321    4                 CASE ( ELSE );
      145    18322    4                   IF  OVERPUNCHED_CHAR >= %ASCBIN('A')
      146    18323    4                     AND OVERPUNCHED_CHAR <= %ASCBIN('I')
      147    18324    4                   THEN
      148    18325    5                     DO;
      149    18326    5                       OVERPUNCHED_CHAR = OVERPUNCHED_CHAR
      150    18327    5                         + %(ASCBIN('1') - ASCBIN('A'));
      151    18328    5                       IT_WAS_POSITIVE = %YES;
      152    18329    5                     END;
      153    18330    4                   ELSE
      154    18331    5                     DO;
      155    18332    5                       OVERPUNCHED_CHAR = OVERPUNCHED_CHAR
      156    18333    5                         + %(ASCBIN('1') - ASCBIN('J'));
      157    18334    5                       IT_WAS_POSITIVE = %NO;
      158    18335    5                     END;
      159    18336
      160    18337    4               END;
      161    18338
      162    18339    3               QI_1.OP.DATA.T$ -> QI$UBYTE_A ( QI_1.OFFSET.T + QI_1.OP.LEN.T - 1 ) =
      163    18340    3                 OVERPUNCHED_CHAR;
PL6.E3A0      #001=QBI$INSPECT File=QBI$INSPECT.:E05TSI                          WED 07/30/97 04:50 Page:6
      164    18341
      165    18342    3           END;
      166    18343
      167    18344    2         END;
      168    18345
      169    18346            /*  We may need the original length of the
      170    18347                thing-to-be-inspected later on.  */
      171    18348    1       ORIGINAL_TARGET_LENGTH = QI_1.OP.LEN.T;
      172    18349
      173    18350            /*  If this item's ~= 0, then it's either TALLYING_ITEM@P:
      174    18351                "INSPECT ... TALLYING TALLYING_ITEM@P FOR ...";
      175    18352
      176    18353                or REPLACING_OLD_ITEM@P:
      177    18354                "INSPECT ... REPLACING REPLACING_OLD_ITEM@P WITH ...".  */
      178    18355    1       IF INSTR$ -> QI$OP_INSPECT.TALLYING_ITEM@P ~= 0
      179    18356    1       THEN
      180    18357    2         DO;
      181    18358    2           QI_1.SOURCE$ = ADDR ( INSTR$ -> QI$OP_INSPECT.TALLYING_ITEM@P );
      182    18359    2           CALL QCS$SETUP_SOURCE;
      183    18360    2           QI@OP_ID_2_OR_5 = QI_1.OP;
      184    18361    2           TALLIED_ITEM_IS_A_TEMP = QI_1.IS_TEMP.S;
      185    18362    2           TALLIED_ITEM_DAD$ = QI_1.DAD.S$;
      186    18363    2         END;
      187    18364    1       ELSE
      188    18365    2         DO;
      189    18366                /*  It's zero, which means:
      190    18367                    "INSPECT ... REPLACING CHARACTERS WITH ...".
      191    18368                    Setup a fake 1-character thing for "CHARACTERS".  */
      192    18369    2           QI@OP_ID_2_OR_5.DATA.S$ = ADDR (NIL);
      193    18370    2           QI@OP_ID_2_OR_5.LEN.S = 1;
      194    18371    2         END;
      195    18372
      196    18373            /*  If this item's ~= 0, then it's either TALLYING_FOR_ITEM@P:
      197    18374                "INSPECT ... TALLYING ... FOR TALLYING_FOR_ITEM@P ...";
      198    18375
      199    18376                or REPLACING_NEW_ITEM@P:
      200    18377                "INSPECT ... REPLACING ... WITH REPLACING_NEW_ITEM@P ...".  */
PL6.E3A0      #001=QBI$INSPECT File=QBI$INSPECT.:E05TSI                          WED 07/30/97 04:50 Page:7
      201    18378    1       IF INSTR$ -> QI$OP_INSPECT.TALLYING_FOR_ITEM@P ~= 0
      202    18379    1       THEN
      203    18380    2         DO;
      204    18381    2           QI_1.SOURCE$ = ADDR ( INSTR$ -> QI$OP_INSPECT.TALLYING_FOR_ITEM@P );
      205    18382    2           CALL QCS$SETUP_SOURCE;
      206    18383    2           QI@OP_ID_3_OR_6 = QI_1.OP;
      207    18384    2         END;
      208    18385    1       ELSE
      209    18386    2         DO;
      210    18387                /*  It's zero, which means:
      211    18388                    "INSPECT ... TALLYING ... FOR CHARACTERS ...".
      212    18389                    Setup a fake 1-character thing for "CHARACTERS".  */
      213    18390    2           QI@OP_ID_3_OR_6.DATA.S$ = ADDR (NIL);
      214    18391    2           QI@OP_ID_3_OR_6.LEN.S = 1;
      215    18392    2         END;
      216    18393
      217    18394            /*  If this item's ~= 0, then it's:
      218    18395                "INSPECT ... { TALLYING | REPLACING } ...
      219    18396                     ... { BEFORE | AFTER } INITIAL ...".  */
      220    18397    1       IF INSTR$ -> QI$OP_INSPECT.TALLYING_INITIAL_ITEM@P ~= 0
      221    18398    1       THEN
      222    18399    1   INITIAL_STUFF:
      223    18400    2         DO;
      224    18401    2           QI_1.SOURCE$ = ADDR ( INSTR$ -> QI$OP_INSPECT.TALLYING_INITIAL_ITEM@P );
      225    18402    2           CALL QCS$SETUP_SOURCE;
      226    18403
      227    18404    2           STARTING_INDEX = QI_1.OP.INX.T;
      228    18405    2           ENDING_INDEX = QI_1.OP.LEN.T + QI_1.OP.INX.T
      229    18406    2             - QI_1.OP.LEN.S;
      230    18407    2           QI_1.OP.LEN.T = QI_1.OP.LEN.S;
      231    18408
      232    18409    2   FIND_INITIAL_STRING:
      233    18410    3           DO QI_1.OP.INX.T = STARTING_INDEX TO ENDING_INDEX;
      234    18411
      235    18412    3             VARIABLE_SOURCE$ = PINCRC ( QI_1.OP.DATA.S$,
      236    18413    3               QI_1.OFFSET.S
      237    18414    3               + QI_1.OP.INX.S );
PL6.E3A0      #001=QBI$INSPECT File=QBI$INSPECT.:E05TSI                          WED 07/30/97 04:50 Page:8
      238    18415    3             VARIABLE_TARGET$ = PINCRC ( QI_1.OP.DATA.T$,
      239    18416    3               QI_1.OFFSET.T
      240    18417    3               + QI_1.OP.INX.T );
      241    18418
      242    18419    3             IF VARIABLE_SOURCE$ -> QI$VARIABLE_STRING_SOURCE.TEXT =
      243    18420    3               VARIABLE_TARGET$ -> QI$VARIABLE_STRING_TARGET.TEXT
      244    18421    3             THEN
      245    18422    4               DO;
      246    18423    4                 IF INSTR$ -> QI$OP_INSPECT.ATTRIBUTE.BEFORE_AFTER =
      247    18424    4                   %QI#INSPECT_AFTER_INITIAL
      248    18425    4                 THEN
      249    18426    4                   STARTING_INDEX = QI_1.OP.INX.T + QI_1.OP.LEN.T;
      250    18427    4                 ELSE
      251    18428    4                   IF INSTR$ -> QI$OP_INSPECT.ATTRIBUTE.IS_REPLACING
      252    18429    4                   THEN
      253    18430    4                     ENDING_INDEX = QI_1.OP.INX.T - QI_1.OP.LEN.T
      254    18431    4                       - QI@OP_ID_2_OR_5.LEN.S + 1;
      255    18432    4                   ELSE
      256    18433    4                     ENDING_INDEX = QI_1.OP.INX.T - QI_1.OP.LEN.T
      257    18434    4                       - QI@OP_ID_3_OR_6.LEN.S + 1;
      258    18435    4                 EXIT INITIAL_STUFF;
      259    18436    4               END;
      260    18437
      261    18438    3           END FIND_INITIAL_STRING;
      262    18439
      263    18440                /* Oops.  The string we're inspecting has no match for
      264    18441                   the INITIAL string.  If it's an AFTER INITIAL clause,
      265    18442                   give up.  Otherwise, pretend the BEFORE INITIAL clause
      266    18443                   never existed.  (More COBOL wierdness.)  */
      267    18444    2           IF INSTR$ -> QI$OP_INSPECT.ATTRIBUTE.BEFORE_AFTER =
      268    18445    2             %QI#INSPECT_AFTER_INITIAL
      269    18446    2           THEN
      270    18447    2             GOTO EL_FINISHO;
      271    18448
      272    18449    2           IF INSTR$ -> QI$OP_INSPECT.ATTRIBUTE.IS_REPLACING
      273    18450    2           THEN
      274    18451    2             ENDING_INDEX = ORIGINAL_TARGET_LENGTH + STARTING_INDEX
PL6.E3A0      #001=QBI$INSPECT File=QBI$INSPECT.:E05TSI                          WED 07/30/97 04:50 Page:9
      275    18452    2               - QI@OP_ID_2_OR_5.LEN.S;
      276    18453    2           ELSE
      277    18454    2             ENDING_INDEX = ORIGINAL_TARGET_LENGTH + STARTING_INDEX
      278    18455    2               - QI@OP_ID_3_OR_6.LEN.S;
      279    18456
      280    18457    2         END INITIAL_STUFF;
      281    18458    1       ELSE
      282    18459    1   NO_INITIAL_STUFF:
      283    18460    2         DO;
      284    18461
      285    18462    2           STARTING_INDEX = QI_1.OP.INX.T;
      286    18463    2           IF INSTR$ -> QI$OP_INSPECT.ATTRIBUTE.IS_REPLACING
      287    18464    2           THEN
      288    18465    2             ENDING_INDEX = QI_1.OP.LEN.T + QI_1.OP.INX.T
      289    18466    2               - QI@OP_ID_2_OR_5.LEN.S;
      290    18467    2           ELSE
      291    18468    2             ENDING_INDEX = QI_1.OP.LEN.T + QI_1.OP.INX.T
      292    18469    2               - QI@OP_ID_3_OR_6.LEN.S;
      293    18470
      294    18471    2         END NO_INITIAL_STUFF;
      295    18472
      296    18473    1       IF INSTR$ -> QI$OP_INSPECT.ATTRIBUTE.IS_REPLACING
      297    18474    1       THEN
      298    18475    2         DO;
      299    18476    2           QI_1.OP.LEN.S = QI@OP_ID_2_OR_5.LEN.S;
      300    18477    2           VARIABLE_SOURCE$ = PINCRC ( QI@OP_ID_2_OR_5.DATA.S$,
      301    18478    2             QI@OP_ID_2_OR_5.CIP.S.CA.OFFSET
      302    18479    2             + QI@OP_ID_2_OR_5.INX.S );
      303    18480    2         END;
      304    18481    1       ELSE
      305    18482    2         DO;
      306    18483    2           QI_1.OP.LEN.S = QI@OP_ID_3_OR_6.LEN.S;
      307    18484    2           VARIABLE_SOURCE$ = PINCRC ( QI@OP_ID_3_OR_6.DATA.S$,
      308    18485    2             QI@OP_ID_3_OR_6.CIP.S.CA.OFFSET
      309    18486    2             + QI@OP_ID_3_OR_6.INX.S );
      310    18487    2         END;
      311    18488
PL6.E3A0      #001=QBI$INSPECT File=QBI$INSPECT.:E05TSI                          WED 07/30/97 04:50 Page:10
      312    18489    1       QI_1.OP.LEN.T = QI_1.OP.LEN.S;
      313    18490
      314    18491    1   TALLY_OR_REPLACE_N_STRINGS:
      315    18492    2       DO QI_1.OP.INX.T = STARTING_INDEX TO ENDING_INDEX;
      316    18493
      317    18494    2   TALLY_OR_REPLACE_1_STRING:
      318    18495    3         DO;
      319    18496    3           IF INSTR$ -> QI$OP_INSPECT.ATTRIBUTE.WHICH_CHARS ~= %QI#INSPECT_CHARACTERS
      320    18497    3           THEN
      321    18498    3   CHECK_1_STRING_FOR_EQUALNESS:
      322    18499    4             DO;
      323    18500    4               VARIABLE_TARGET$ = PINCRC ( QI_1.OP.DATA.T$,
      324    18501    4                 QI_1.OFFSET.T
      325    18502    4                 + QI_1.OP.INX.T );
      326    18503    4               IF VARIABLE_SOURCE$ -> QI$VARIABLE_STRING_SOURCE.TEXT ~=
      327    18504    4                 VARIABLE_TARGET$ -> QI$VARIABLE_STRING_TARGET.TEXT
      328    18505    4               THEN
      329    18506    4   NOT_EQUAL:
      330    18507    5                 DO;
      331    18508    5                   IF INSTR$ -> QI$OP_INSPECT.ATTRIBUTE.WHICH_CHARS = %
             18508                            QI#INSPECT_LEADING
      332    18509    5                   THEN
      333    18510    5                     EXIT TALLY_OR_REPLACE_N_STRINGS;
      334    18511    5                   ELSE
      335    18512    5                     EXIT TALLY_OR_REPLACE_1_STRING;
      336    18513    5                 END NOT_EQUAL;
      337    18514    4             END CHECK_1_STRING_FOR_EQUALNESS;
      338    18515
      339    18516    3           IF INSTR$ -> QI$OP_INSPECT.ATTRIBUTE.IS_REPLACING
      340    18517    3           THEN
      341    18518    4             DO;
      342    18519
      343    18520    4               VARIABLE_SOURCE$ = PINCRC ( QI@OP_ID_3_OR_6.DATA.S$,
      344    18521    4                 QI@OP_ID_3_OR_6.CIP.S.CA.OFFSET
      345    18522    4                 + QI@OP_ID_3_OR_6.INX.S );
      346    18523    4               VARIABLE_TARGET$ = PINCRC ( QI_1.OP.DATA.T$,
      347    18524    4                 QI_1.OFFSET.T
PL6.E3A0      #001=QBI$INSPECT File=QBI$INSPECT.:E05TSI                          WED 07/30/97 04:50 Page:11
      348    18525    4                 + QI_1.OP.INX.T );
      349    18526
      350    18527    4               VARIABLE_TARGET$ -> QI$VARIABLE_STRING_TARGET.TEXT =
      351    18528    4                 VARIABLE_SOURCE$ -> QI$VARIABLE_STRING_SOURCE.TEXT;
      352    18529
      353    18530    4               VARIABLE_SOURCE$ = PINCRC ( QI@OP_ID_2_OR_5.DATA.S$,
      354    18531    4                 QI@OP_ID_2_OR_5.CIP.S.CA.OFFSET
      355    18532    4                 + QI@OP_ID_2_OR_5.INX.S );
      356    18533
      357    18534    4             END;
      358    18535    3           ELSE
      359    18536    4             DO;
      360    18537
      361    18538    4               TALLY = TALLY + 1;
      362    18539
      363    18540    4             END;
      364    18541
      365    18542    3           IF INSTR$ -> QI$OP_INSPECT.ATTRIBUTE.WHICH_CHARS =
      366    18543    3             %QI#INSPECT_FIRST
      367    18544    3           THEN
      368    18545    3             EXIT TALLY_OR_REPLACE_N_STRINGS;
      369    18546
      370    18547    3           QI_1.OP.INX.T = QI_1.OP.INX.T + QI_1.OP.LEN.T - 1;
      371    18548
      372    18549    3         END TALLY_OR_REPLACE_1_STRING;
      373    18550
      374    18551    2       END TALLY_OR_REPLACE_N_STRINGS;
      375    18552
      376    18553            /* All done REPLACING or TALLYING. */
      377    18554    1   EL_FINISHO:
      378    18555            /*  Don't forget to put back the poor fellow's
      379    18556                overpunched signs.  */
      380    18557    1       IF IT_WAS_OVERPUNCHED
      381    18558    1       THEN
      382    18559    2         DO;
      383    18560    2           OVERPUNCHED_CHAR = QI_1.OP.DATA.T$ ->
      384    18561    2             QI$UBYTE_A ( QI_1.OFFSET.T + ORIGINAL_TARGET_LENGTH - 1 );
PL6.E3A0      #001=QBI$INSPECT File=QBI$INSPECT.:E05TSI                          WED 07/30/97 04:50 Page:12
      385    18562    2           IF IT_WAS_POSITIVE
      386    18563    2           THEN
      387    18564    2             OVERPUNCHED_CHAR = OVERPUNCHED_CHAR - %(ASCBIN('1') - ASCBIN('A'));
      388    18565    2           ELSE
      389    18566    2             OVERPUNCHED_CHAR = OVERPUNCHED_CHAR - %(ASCBIN('1') - ASCBIN('J'));
      390    18567    2           QI_1.OP.DATA.T$ ->
      391    18568    2             QI$UBYTE_A ( QI_1.OFFSET.T + ORIGINAL_TARGET_LENGTH - 1 ) =
      392    18569    2             OVERPUNCHED_CHAR;
      393    18570    2         END;
      394    18571
      395    18572    1       IF NOT INSTR$ -> QI$OP_INSPECT.ATTRIBUTE.IS_REPLACING
      396    18573    1       THEN
      397    18574    2         DO;
      398    18575
      399    18576                /* If the compiler pointed us at a temp, move the
      400    18577                   tally in (don't add it in).  */
      401    18578    2           IF TALLIED_ITEM_IS_A_TEMP
      402    18579    2           THEN
      403    18580    3             DO;
      404    18581                    /* Foist, convert TALLY to PACKED in the temp's
      405    18582                       data area...  */
      406    18583    3               QI_1.OP.CIP.S_A (0) = QI_16_BIT_BINARY_A (0);
      407    18584    3               QI_1.OP.DATA.S$ = ADDR ( TALLY );
      408    18585    3               QI_1.OP.CIP.T_A (0) = QI_31_DIGIT_ST_PACKED_A (0);
      409    18586    3               QI_1.OP.CIP.T.LEN = %QI#MIN_BINARY_DIGIT_COUNT;
      410    18587    3               QI_1.OP.DATA.T$ = QI@OP_ID_2_OR_5.DATA.S$;
      411    18588    3               QI_1.OP.DEC.T = 0;
      412    18589
      413    18590    3               QI_1.OP.SIZE_ERROR = %QI#DONT_CHECK_FOR_SIZE_ERROR;
      414    18591
      415    18592    3               CALL QCC$CBD ( QI_1.OP );
      416    18593
      417    18594                    /* ...then point the temp's DAD at the result.  */
      418    18595    3               TALLIED_ITEM_DAD$ -> QI$DAD.WORD0 = %( QI#IS_TEMP_BIT_MASK +
             18595                        QI#TYPE_PACKED );
      419    18596    3               TALLIED_ITEM_DAD$ -> QI$DAD.PSEUDO_CIP_A (0) = QI_1.OP.CIP.T_A (0);
      420    18597    3               TALLIED_ITEM_DAD$ -> QI$DAD.PSEUDO_CIP.NUMERIC.DEC = 0;
PL6.E3A0      #001=QBI$INSPECT File=QBI$INSPECT.:E05TSI                          WED 07/30/97 04:50 Page:13
      421    18598    3             END;
      422    18599    2           ELSE
      423    18600                  /* It's knot a temp.  Believe what it has to say.  */
      424    18601    3             DO CASE ( TALLIED_ITEM_TYPE );
      425    18602
      426    18603    3               CASE ( %QI#TYPE_DISPLAY, %QI#TYPE_PACKED );
      427    18604                      /* First, convert TALLY to PACKED in OTTER_SPACE.  */
      428    18605    3                 QI_1.OP.CIP.S_A (0) = QI_16_BIT_BINARY_A (0);
      429    18606    3                 QI_1.OP.DATA.S$ = ADDR ( TALLY );
      430    18607    3                 QI_1.OP.CIP.T_A (0) = QI_31_DIGIT_ST_PACKED_A (0);
      431    18608    3                 QI_1.OP.DATA.T$ = ADDR ( QI@OTTER_SPACE );
      432    18609    3                 QI_1.OP.DEC.T = 0;
      433    18610
      434    18611    3                 QI_1.OP.SIZE_ERROR = %QI#DONT_CHECK_FOR_SIZE_ERROR;
      435    18612
      436    18613    3                 CALL QCC$CBD ( QI_1.OP );
      437    18614
      438    18615                      /* Den add dat result to duh original target
      439    18616                         still lying dormant in QI@OP_ID_2_OR_5 (Source).  */
      440    18617    3                 QI_1.OP.CIP.S_A (0) = QI_1.OP.CIP.T_A (0);
      441    18618    3                 QI_1.OP.DATA.S$ = QI_1.OP.DATA.T$;
      442    18619    3                 QI_1.OP.DEC.S = 0;
      443    18620    3                 QI_1.OP.CIP.T_A (0) = QI@OP_ID_2_OR_5.CIP.S_A (0);
      444    18621    3                 QI_1.OP.DATA.T$ = QI@OP_ID_2_OR_5.DATA.S$;
      445    18622    3                 QI_1.OP.DEC.T = QI@OP_ID_2_OR_5.DEC.S;
      446    18623
      447    18624    3                 CALL QCC$DAD ( QI_1.OP );
      448    18625
      449    18626    3               CASE ( %QI#TYPE_BINARY );
      450    18627                      /* Convoit duh (eventual) binary target to
      451    18628                         PACKED in OTTER_SPACE...  */
      452    18629    3                 QI@OP_ID_2_OR_5.CIP.T_A (0) = QI_31_DIGIT_ST_PACKED_A (0);
      453    18630    3                 QI@OP_ID_2_OR_5.DATA.T$ = ADDR ( QI@OTTER_SPACE );
      454    18631
      455    18632    3                 CALL QCC$CBD ( QI@OP_ID_2_OR_5 );
      456    18633
      457    18634                      /* ...den stick TALLY out dere, too.  */
PL6.E3A0      #001=QBI$INSPECT File=QBI$INSPECT.:E05TSI                          WED 07/30/97 04:50 Page:14
      458    18635    3                 QI_1.OP.CIP.S_A (0) = QI_16_BIT_BINARY_A (0);
      459    18636    3                 QI_1.OP.DATA.S$ = ADDR ( TALLY );
      460    18637    3                 QI_1.OP.CIP.T_A (0) = QI_31_DIGIT_ST_PACKED_A (0);
      461    18638    3                 QI_1.OP.DATA.T$ = ADDR ( QI@OTTER_SPACE_2 );
      462    18639    3                 QI_1.OP.DEC.T = 0;
      463    18640
      464    18641    3                 QI_1.OP.SIZE_ERROR = %QI#DONT_CHECK_FOR_SIZE_ERROR;
      465    18642
      466    18643    3                 CALL QCC$CBD ( QI_1.OP );
      467    18644
      468    18645                      /* The next two assignments just grab QI@OP_ID_2_OR_5
      469    18646                         (Source) before it gets demolished.  (It's the stuff
      470    18647                         that describes the tally item to add to.)  */
      471    18648    3                 QI_1.OP.CIP.T_A (0) = QI@OP_ID_2_OR_5.CIP.S_A (0);
      472    18649    3                 QI_1.OP.DATA.T$ = QI@OP_ID_2_OR_5.DATA.S$;
      473    18650
      474    18651                      /* We have the PACKED version of the item to tally
      475    18652                         into already in QI@OP_ID_2_OR_5 (Target), so we'll
      476    18653                         move the PACKED version of TALLY to QI@OP_ID_2_OR_5
      477    18654                         (Source).  */
      478    18655    3                 QI@OP_ID_2_OR_5.CIP.S_A (0) = QI_1.OP.CIP.T_A (0);
      479    18656    3                 QI@OP_ID_2_OR_5.DATA.S$ = QI_1.OP.DATA.T$;
      480    18657
      481    18658    3                 CALL QCC$DAD ( QI@OP_ID_2_OR_5 );
      482    18659
      483    18660                      /* Having craftily saved away the eventual destination
      484    18661                         to tally into in QI_1 (Target), we can stick the
      485    18662                         result of the last add into QI_1 (Source) and
      486    18663                         convert our labors back into BINARY.  */
      487    18664    3                 QI_1.OP.CIP.S_A (0) = QI@OP_ID_2_OR_5.CIP.T_A (0);
      488    18665    3                 QI_1.OP.DATA.S$ = QI@OP_ID_2_OR_5.DATA.T$;
      489    18666    3                 QI_1.OP.DEC.S = 0;
      490    18667
      491    18668    3                 CALL QCC$CDB ( QI_1.OP );
      492    18669
      493    18670    3             END;
      494    18671
PL6.E3A0      #001=QBI$INSPECT File=QBI$INSPECT.:E05TSI                          WED 07/30/97 04:50 Page:15
      495    18672    2         END;
      496    18673
      497    18674    1       RETURN;
      498    18675
      499    18676    1   END QBI$INSPECT;

PL6.E3A0      #001=QBI$INSPECT File=QBI$INSPECT.:E05TSI                          WED 07/30/97 04:50 Page:16
--  Include file information  --

   QI_MACROS_M.:E05TOU  is referenced.
   QI_EQUATES_E.:E05TOU  is referenced.
   QG_MACRO_M.:E05TOU  is referenced.
   LCP_6.:E05TOU  cannot be made into a system file and is referenced.
   G_LCP6_E.:E05TOU  was found in the system file and is referenced.
   GT_LCP6_M.:E05TOU  was found in the system file and is referenced.
   KI_CP6.:E05TOU  was found in the system file and is referenced.
   GF_LCP6_M.:E05TOU  was found in the system file and is referenced.
   GM_LCP6_M.:E05TOU  was found in the system file and is referenced.
   GU_LCP6_M.:E05TOU  was found in the system file and is referenced.
   GJ_LCP6_M.:E05TOU  was found in the system file and is referenced.
   GH_LCP6_M.:E05TOU  was found in the system file and is referenced.
      No diagnostics issued in procedure QBI$INSPECT.

   Procedure QBI$INSPECT requires 1078 words for executable code.
   Procedure QBI$INSPECT requires 96 words of local(AUTO) storage.

    No errors detected in file QBI$INSPECT.:E05TSI    .

PL6.E3A0      #001=QBI$INSPECT File=QBI$INSPECT.:E05TSI                          WED 07/30/97 04:50 Page:17

 Object Unit name= QBI$INSPECT                                File name= QBI$INSPECT.:E05TOU
 UTS= JUL 30 '97 04:50:32.12 WED                              Compiler= PL-6/E31         Sev=      00
 SharedLib= :SHARED_LCP6_SYSTEM                               Alt SharedLib=


    ****  Control sections  ****

 Sect   Type Bound  Init  Size HexSiz  Section name
    0   Proc  even  none  1078    436  QBI$INSPECT
    1  RoData even  none     2      2  QBI$INSPECT

    ****  Entry defs  ****

                              Check   Calling
                             calling  sequence
  Sect HexLoc Primary Altret sequence   type   Parms  Name
     0      0   yes            yes      Std        0  QBI$INSPECT

  ****  Entry refs  ****

         Check        Calling
        calling       sequence
Altret sequence SRef   type   Args  Name
         yes           Std       0 QCS$SETUP_TARGET
         yes           Std       0 QCS$SETUP_SOURCE
 yes     yes           Std       1 QCC$CBD
 yes     yes           Std       1 QCC$DAD
 yes     yes           Std       1 QCC$CDB
                       nStd      0 X6A_AUTO_0
                       nStd      0 X6C_ACM
                       nStd      0 X6C_ALR
                       nStd      0 X6A_ARET
PL6.E3A0      #001=QBI$INSPECT File=QBI$INSPECT.:E05TSI                          WED 07/30/97 04:50 Page:18

  ****  Data refs  ****

  Flags:  r = read only, s = secondary
Flgs Name                             Flgs Name                             Flgs Name
     QI_1                                  QI_4_CHAR_ALPHANUMERIC                QI_31_DIGIT_SLS_DISPLAY
     QI_16_BIT_BINARY                      QI_32_BIT_BINARY                      QI_31_DIGIT_ST_PACKED
     QI_PICTURE_STRING                r    G$ROS$
PL6.E3A0      #001=QBI$INSPECT File=QBI$INSPECT.:E05TSI                          WED 07/30/97 04:50 Page:19


        1        1        /*M* QBI$INSPECT:  INSPECT some dataname for things.  */
        2        2        /*T***********************************************************/
        3        3        /*T*                                                         */
        4        4        /*T* Copyright (c) Bull HN Information Systems Inc., 1997    */
        5        5        /*T*                                                         */
        6        6        /*T***********************************************************/
        7        7        /*X* DMC,PLM=4,IND=0,DCI=4,CSI=2,IAD=2,DTI=2,AND,ECI=0,DIN=2,STI=2 */
        8        8
        9        9        /*P*  NAME:         QBI$INSPECT
       10       10              PURPOSE:      INSPECT some dataname for things.
       11       11              DESCRIPTION:  Consult the FPL manual and the QI$OP_INSPECT %MACRO
       12       12                            for the various options on the INSPECT statement.
       13       13        */
       14       14
       15       15        QBI$INSPECT: PROC;

     15   0 000000  D380 0000 0000  xent QBI$INSPECT     LNJ,B5   X6A_AUTO_0
          0 000003       0060 0000                       DC       96,0

       16       16
       17       17        /*D*  NAME:         QBI$INSPECT
       18       18              CALL:         CALL QBI$INSPECT;
       19       19              PARAMETERS:   None.
       20       20              INTERFACE:    Called by QAT$TALLYHO when an INSPECT op-code is
       21       21                            encountered.
       22       22                            Calls QCS$SETUP_whatever,
       23       23                            all kinds of comparison, conversion, and move QCCs.
       24       24              ENVIRONMENT:  Nothing unusual.
       25       25              INPUT:        QI_1,
       26       26                            FPL rununit static data following the op-code.
       27       27              OUTPUT:       TALLY-ed data item; REPLACE-d data item.
       28       28              SCRATCH:      Various otter data.
       29       29              DESCRIPTION:  All sorts of convolutions of options are possible.
       30       30                            The noteable weird things include overpunched signs
       31       31                            within the dataname being INSPECT-ed, and a BINARY
       32       32                            item as the TALLY destination.
PL6.E3A0      #001=QBI$INSPECT File=QBI$INSPECT.:E05TSI                          WED 07/30/97 04:50 Page:20
       33       33                            Although the compiler currently doesn't allow the
       34       34                            use of comparison strings longer than 1 character,
       35       35                            this code is (supposedly) able to handle longer
       36       36                            strings.  Someday, the compiler should be changed
       37       37                            to check only that the INSPECT-ed string and any
       38       38                            REPLACE-ing strings are the same length.
       39       39                            There still exists some doubt as to what exactly
       40       40                            is to be done with signed DISPLAY items that are:
       41       41                            1)  being inspected;
       42       42                            2)  being inspected for.
       43       43                            COBOL seems inconsistent, but won't admit it
       44       44                            (a STAR against this was hastily, and I believe
       45       45                            wrongly, closed).
       46       46                            What's currently done is:
       47       47                            1)  the item being inspected has its sign stripped
       48       48                                and replaced again ONLY if it's overpunched;
       49       49                            2)  the item being inspected for is left alone
       50       50                                (currently, it can only be one digit long,
       51       51                                which excludes "SIGN ... SEPARATE" items).
       52       52        */
       53       53
       54       54          %INCLUDE LCP_6;
       55      245
       56      246          %INCLUDE QG_MACRO_M;
       57      383          %INCLUDE QI_EQUATES_E;
       58      742          %INCLUDE QI_MACROS_M;
       59     5800          %QI$ALL;
       60    16913
       61    16914    1     DCL QCS$SETUP_SOURCE ENTRY;
       62    16915    1     DCL QCS$SETUP_TARGET ENTRY;
       63    16916    1     DCL QCS$SETUP_AUX ENTRY;
       64    16917    1     DCL QCC$CBD ENTRY (1) ALTRET;
       65    16918    1     DCL QCC$CDB ENTRY (1) ALTRET;
       66    16919    1     DCL QCC$DAD ENTRY (1) ALTRET;
       67    16920    1     DCL QCC$DMC ENTRY (1) ALTRET;
       68    16921
       69    16922    1     DCL ENDING_INDEX SBIN;
PL6.E3A0      #001=QBI$INSPECT File=QBI$INSPECT.:E05TSI                          WED 07/30/97 04:50 Page:21
       70    16923    1     DCL INSTR$ PTR;
       71    16924    1     DCL IT_WAS_OVERPUNCHED BIT(1) ALIGNED;
       72    16925    1     DCL IT_WAS_POSITIVE BIT(1) ALIGNED;
       73    16926    1     DCL ORIGINAL_TARGET_LENGTH UBIN;
       74    16927    1     DCL OVERPUNCHED_CHAR UBIN BYTE ALIGNED;
       75    16928    1     DCL STARTING_INDEX SBIN;
       76    16929    1     DCL TALLIED_ITEM_IS_A_TEMP BIT(1) ALIGNED;
       77    16930    1     DCL TALLIED_ITEM_DAD$ PTR;
       78    16931    1     DCL TALLIED_ITEM_TYPE UBIN;
       79    16932    1     DCL TALLY UBIN;
       80    16933    1     DCL VARIABLE_SOURCE$ CPTR;
       81    16934    1     DCL VARIABLE_TARGET$ CPTR;
       82    16935
       83    16936          %QI@CIP_OPERATION ( NAME = QI@OP_ID_2_OR_5,
       84    16937                              STCLASS = "AUTO" );
       85    17573          %QI@CIP_OPERATION ( NAME = QI@OP_ID_3_OR_6,
       86    17574                              STCLASS = "AUTO" );
       87    18210          %QI@OTTER_SPACE;
       88    18238          %QI@OTTER_SPACE ( NAME = QI@OTTER_SPACE_2 );
       89    18266        %EJECT;
PL6.E3A0      #001=QBI$INSPECT File=QBI$INSPECT.:E05TSI                          WED 07/30/97 04:50 Page:22
       90    18267    1       INSTR$ = QI_1.INSTR$;

  18267   0 000005  EC80 0000 0006  xsym                 LDB,B6   QI_1+6
          0 000008  EFC7 0005                            STB,B6   INSTR$,AUTO

       91    18268    1       QI_1.INSTR$ = ADDR ( INSTR$ -> QI$OP_INSPECT.NEXT_CODE@P );

  18268   0 00000A  DBC6 0006                            LAB,B5   6,B6
          0 00000C  DF80 0000 0006  xsym                 STB,B5   QI_1+6

       92    18269
       93    18270    1       TALLY = 0;

  18270   0 00000F  8747 0010                            CL       TALLY,AUTO

       94    18271
       95    18272    1       CALL QCS$SETUP_TARGET;

  18272   0 000011  CBF0 0000                            LAB,B4   0,IMO
          0 000013  E380 0000 0000  xent                 LNJ,B6   QCS$SETUP_TARGET
          0 000016       0001                            DC       s:18275,PREL

       96    18273
       97    18274            /*  Assume it's normal...  */
       98    18275    1       IT_WAS_OVERPUNCHED = %NO;

  18275   0 000017  8747 0007                            CL       IT_WAS_OVERPUNCHED,AUTO

       99    18276
      100    18277            /*  This stuff tries to 'un-sign' a signed numeric item.
      101    18278                QCU$UNSIGN isn't used because it doesn't worry about
      102    18279                trying to remember what the sign was to begin with,
      103    18280                and because it extends P-scaled items.  */
      104    18281    1       IF QI_1.TYPE.T = %QI#TYPE_DISPLAY

  18281   0 000019  E800 0000 0051  xsym                 LDR,R6   QI_1+81
          0 00001C  6981 0071                            BNEZ,R6  s:18348,PREL
PL6.E3A0      #001=QBI$INSPECT File=QBI$INSPECT.:E05TSI                          WED 07/30/97 04:50 Page:23

      105    18282    1       THEN
      106    18283    2         DO;

      107    18284                /*  Tweak the necessary bits to make this thing look
      108    18285                    ALPHANUMERIC and INDEXED.  */
      109    18286    2           QI_1.OP.CIP.T.CD.SIGN = %QI#CD_UNSIGNED;

  18286   0 00001E  8800 0000 001C  xsym                 LBF,'6000'X       QI_1+28
  18286   0 000021       6000

      110    18287    2           QI_1.OP.CIP.T.LEN = 0;

  18287   0 000022  8800 0000 001C  xsym                 LBF,'1F00'X       QI_1+28
  18287   0 000025       1F00

      111    18288    2           QI_1.OP.CIP.T.AS = %QI#CIP_INDEXED_TARGET_AS;

  18288   0 000026  5C2B                                 LDV,R5   43
          0 000027  DA80 0000 001C  xsym                 SRM,R5,'007F'X    QI_1+28
          0 00002A       007F

      112    18289    2           QI_1.OP.INX.T = 0;

  18289   0 00002B  8700 0000 002A  xsym                 CL       QI_1+42

      113    18290
      114    18291    3           DO CASE ( QI_1.OP.CIP.T.CD.SIGN );

  18291   0 00002E  B800 0000 001C  xsym                 LDR,R3   QI_1+28
          0 000031  304D                                 SOR,R3   13
          0 000032  B570 0003                            AND,R3   3,IMO
          0 000034  3D02                                 CMV,R3   2
          0 000035  0281 0058                            BGE      s:18348,PREL
          0 000037  A830 0000 003D  00                   LDR,R2   s:18291+15,R3
          0 00003A  83A0 0000 003F  00                   JMP      s:18307,R2
          0 00003D       004F                            DC       s:18348,PREL
PL6.E3A0      #001=QBI$INSPECT File=QBI$INSPECT.:E05TSI                          WED 07/30/97 04:50 Page:24
          0 00003E       0000                            DC       s:18307,PREL

      115    18292
      116    18293    3             CASE ( %QI#CD_SIGN_LEADING_SEPARATE );

      117    18294        /*N*
      118    18295              Do we really not do this?
      119    18296                    QI_1.OP.INX.T = QI_1.OP.INX.T + 1;
      120    18297                    QI_1.OP.LEN.T = QI_1.OP.LEN.T - 1;
      121    18298        */
      122    18299
      123    18300    3             CASE ( %QI#CD_SIGN_TRAILING_SEPARATE );

      124    18301        /*N*
      125    18302              Do we really not do this?
      126    18303                    QI_1.OP.LEN.T = QI_1.OP.LEN.T - 1;
      127    18304        */
      128    18305
      129    18306    3             CASE ( %QI#CD_SIGN_TRAILING_OVER );

      130    18307    3               IT_WAS_OVERPUNCHED = %YES;

  18307   0 00003F  8947 0007                            LBT,'8000'X       IT_WAS_OVERPUNCHED,AUTO
  18307   0 000041       8000

      131    18308    3               OVERPUNCHED_CHAR = QI_1.OP.DATA.T$ ->

  18308   0 000042  C800 0000 0042  xsym                 LDR,R4   QI_1+66
          0 000045  CA00 0000 0027  xsym                 ADD,R4   QI_1+39
          0 000048  EC80 0000 0022  xsym                 LDB,B6   QI_1+34
          0 00004B  9854                                 LDR,R1   R4
          0 00004C  1EFF                                 ADV,R1   -1
          0 00004D  C296                                 LLH,R4   ,B6,R1
          0 00004E  C7C7 000A                            STH,R4   OVERPUNCHED_CHAR,AUTO

      132    18309    3                 QI$UBYTE_A ( QI_1.OFFSET.T + QI_1.OP.LEN.T - 1 );
      133    18310
PL6.E3A0      #001=QBI$INSPECT File=QBI$INSPECT.:E05TSI                          WED 07/30/97 04:50 Page:25
      134    18311    4               DO CASE ( OVERPUNCHED_CHAR );

  18311   0 000050  92C7 000A                            LLH,R1   OVERPUNCHED_CHAR,AUTO
          0 000052  1E85                                 ADV,R1   -123
          0 000053  1D03                                 CMV,R1   3
          0 000054  0281 0019                            BGE      s:18322,PREL
          0 000056  B810 0000 005C  00                   LDR,R3   s:18311+12,R1
          0 000059  83B0 0000 005F  00                   JMP      s:18314,R3
          0 00005C       0000                            DC       s:18314,PREL
          0 00005D       000F                            DC       s:18322,PREL
          0 00005E       0008                            DC       s:18318,PREL

      135    18312
      136    18313    4                 CASE ( %ASCBIN('{') );

      137    18314    4                   OVERPUNCHED_CHAR = %QI#ZERO;

  18314   0 00005F  4C30                                 LDV,R4   48
          0 000060  C7C7 000A                            STH,R4   OVERPUNCHED_CHAR,AUTO

      138    18315    4                   IT_WAS_POSITIVE = %YES;

  18315   0 000062  8947 0008                            LBT,'8000'X       IT_WAS_POSITIVE,AUTO
  18315   0 000064       8000
          0 000065  0F81 001D                            B        s:18339,PREL

      139    18316
      140    18317    4                 CASE ( %ASCBIN('}') );

      141    18318    4                   OVERPUNCHED_CHAR = %QI#ZERO;

  18318   0 000067  4C30                                 LDV,R4   48
          0 000068  C7C7 000A                            STH,R4   OVERPUNCHED_CHAR,AUTO

      142    18319    4                   IT_WAS_POSITIVE = %NO;

  18319   0 00006A  8747 0008                            CL       IT_WAS_POSITIVE,AUTO
PL6.E3A0      #001=QBI$INSPECT File=QBI$INSPECT.:E05TSI                          WED 07/30/97 04:50 Page:26
          0 00006C  0F81 0016                            B        s:18339,PREL

      143    18320
      144    18321    4                 CASE ( ELSE );

      145    18322    4                   IF  OVERPUNCHED_CHAR >= %ASCBIN('A')

  18322   0 00006E  C2C7 000A                            LLH,R4   OVERPUNCHED_CHAR,AUTO
          0 000070  4D41                                 CMV,R4   65
          0 000071  0201 000C                            BL       s:18332,PREL
          0 000073  4D49                                 CMV,R4   73
          0 000074  0301 0009                            BG       s:18332,PREL

      146    18323    4                     AND OVERPUNCHED_CHAR <= %ASCBIN('I')
      147    18324    4                   THEN
      148    18325    5                     DO;

      149    18326    5                       OVERPUNCHED_CHAR = OVERPUNCHED_CHAR

  18326   0 000076  4EF0                                 ADV,R4   -16
          0 000077  C7C7 000A                            STH,R4   OVERPUNCHED_CHAR,AUTO

      150    18327    5                         + %(ASCBIN('1') - ASCBIN('A'));
      151    18328    5                       IT_WAS_POSITIVE = %YES;

  18328   0 000079  8947 0008                            LBT,'8000'X       IT_WAS_POSITIVE,AUTO
  18328   0 00007B       8000

      152    18329    5                     END;

  18329   0 00007C  0F81 0006                            B        s:18339,PREL

      153    18330    4                   ELSE
      154    18331    5                     DO;

      155    18332    5                       OVERPUNCHED_CHAR = OVERPUNCHED_CHAR

PL6.E3A0      #001=QBI$INSPECT File=QBI$INSPECT.:E05TSI                          WED 07/30/97 04:50 Page:27
  18332   0 00007E  4EE7                                 ADV,R4   -25
          0 00007F  C7C7 000A                            STH,R4   OVERPUNCHED_CHAR,AUTO

      156    18333    5                         + %(ASCBIN('1') - ASCBIN('J'));
      157    18334    5                       IT_WAS_POSITIVE = %NO;

  18334   0 000081  8747 0008                            CL       IT_WAS_POSITIVE,AUTO

      158    18335    5                     END;

      159    18336
      160    18337    4               END;

      161    18338
      162    18339    3               QI_1.OP.DATA.T$ -> QI$UBYTE_A ( QI_1.OFFSET.T + QI_1.OP.LEN.T - 1 ) =

  18339   0 000083  C800 0000 0042  xsym                 LDR,R4   QI_1+66
          0 000086  CA00 0000 0027  xsym                 ADD,R4   QI_1+39
          0 000089  B2C7 000A                            LLH,R3   OVERPUNCHED_CHAR,AUTO
          0 00008B  A854                                 LDR,R2   R4
          0 00008C  2EFF                                 ADV,R2   -1
          0 00008D  B7A6                                 STH,R3   ,B6,R2

      163    18340    3                 OVERPUNCHED_CHAR;
      164    18341
      165    18342    3           END;

      166    18343
      167    18344    2         END;

      168    18345
      169    18346            /*  We may need the original length of the
      170    18347                thing-to-be-inspected later on.  */
      171    18348    1       ORIGINAL_TARGET_LENGTH = QI_1.OP.LEN.T;

  18348   0 00008E  E800 0000 0027  xsym                 LDR,R6   QI_1+39
          0 000091  EF47 0009                            STR,R6   ORIGINAL_TARGET_LENGTH,AUTO
PL6.E3A0      #001=QBI$INSPECT File=QBI$INSPECT.:E05TSI                          WED 07/30/97 04:50 Page:28

      172    18349
      173    18350            /*  If this item's ~= 0, then it's either TALLYING_ITEM@P:
      174    18351                "INSPECT ... TALLYING TALLYING_ITEM@P FOR ...";
      175    18352
      176    18353                or REPLACING_OLD_ITEM@P:
      177    18354                "INSPECT ... REPLACING REPLACING_OLD_ITEM@P WITH ...".  */
      178    18355    1       IF INSTR$ -> QI$OP_INSPECT.TALLYING_ITEM@P ~= 0

  18355   0 000093  ECC7 0005                            LDB,B6   INSTR$,AUTO
          0 000095  D846 0002                            LDR,R5   2,B6
          0 000097  5901 0022                            BEZ,R5   s:18369,PREL

      179    18356    1       THEN
      180    18357    2         DO;

      181    18358    2           QI_1.SOURCE$ = ADDR ( INSTR$ -> QI$OP_INSPECT.TALLYING_ITEM@P );

  18358   0 000099  DBC6 0002                            LAB,B5   2,B6
          0 00009B  DF80 0000 0018  xsym                 STB,B5   QI_1+24

      182    18359    2           CALL QCS$SETUP_SOURCE;

  18359   0 00009E  CBF0 0000                            LAB,B4   0,IMO
          0 0000A0  E380 0000 0000  xent                 LNJ,B6   QCS$SETUP_SOURCE
          0 0000A3       0001                            DC       s:18360,PREL

      183    18360    2           QI@OP_ID_2_OR_5 = QI_1.OP;

  18360   0 0000A4  AB80 0000 0000  xsym                 LAB,B2   QI_1
          0 0000A7  2C34                                 LDV,R2   52
          0 0000A8  6C30                                 LDV,R6   48
          0 0000A9  BB87                                 LAB,B3   ,AUTO
          0 0000AA  3C2C                                 LDV,R3   44
          0 0000AB  0008                                 MMM

      184    18361    2           TALLIED_ITEM_IS_A_TEMP = QI_1.IS_TEMP.S;
PL6.E3A0      #001=QBI$INSPECT File=QBI$INSPECT.:E05TSI                          WED 07/30/97 04:50 Page:29

  18361   0 0000AC  E800 0000 003E  xsym                 LDR,R6   QI_1+62
          0 0000AF  E570 8000                            AND,R6   -32768,IMO
          0 0000B1  EF47 000C                            STR,R6   TALLIED_ITEM_IS_A_TEMP,AUTO

      185    18362    2           TALLIED_ITEM_DAD$ = QI_1.DAD.S$;

  18362   0 0000B3  EC80 0000 0032  xsym                 LDB,B6   QI_1+50
          0 0000B6  EFC7 000D                            STB,B6   TALLIED_ITEM_DAD$,AUTO

      186    18363    2         END;

  18363   0 0000B8  0F81 0009                            B        s:18378,PREL

      187    18364    1       ELSE
      188    18365    2         DO;

      189    18366                /*  It's zero, which means:
      190    18367                    "INSPECT ... REPLACING CHARACTERS WITH ...".
      191    18368                    Setup a fake 1-character thing for "CHARACTERS".  */
      192    18369    2           QI@OP_ID_2_OR_5.DATA.S$ = ADDR (NIL);

  18369   0 0000BA  DB80 0000 0000                       LAB,B5   0
          0 0000BD  DFC7 001C                            STB,B5   QI@OP_ID_2_OR_5+6,AUTO

      193    18370    2           QI@OP_ID_2_OR_5.LEN.S = 1;

  18370   0 0000BF  5C01                                 LDV,R5   1
          0 0000C0  DF47 0022                            STR,R5   QI@OP_ID_2_OR_5+12,AUTO

      194    18371    2         END;

      195    18372
      196    18373            /*  If this item's ~= 0, then it's either TALLYING_FOR_ITEM@P:
      197    18374                "INSPECT ... TALLYING ... FOR TALLYING_FOR_ITEM@P ...";
      198    18375
      199    18376                or REPLACING_NEW_ITEM@P:
PL6.E3A0      #001=QBI$INSPECT File=QBI$INSPECT.:E05TSI                          WED 07/30/97 04:50 Page:30
      200    18377                "INSPECT ... REPLACING ... WITH REPLACING_NEW_ITEM@P ...".  */
      201    18378    1       IF INSTR$ -> QI$OP_INSPECT.TALLYING_FOR_ITEM@P ~= 0

  18378   0 0000C2  ECC7 0005                            LDB,B6   INSTR$,AUTO
          0 0000C4  E846 0003                            LDR,R6   3,B6
          0 0000C6  6901 0016                            BEZ,R6   s:18390,PREL

      202    18379    1       THEN
      203    18380    2         DO;

      204    18381    2           QI_1.SOURCE$ = ADDR ( INSTR$ -> QI$OP_INSPECT.TALLYING_FOR_ITEM@P );

  18381   0 0000C8  DBC6 0003                            LAB,B5   3,B6
          0 0000CA  DF80 0000 0018  xsym                 STB,B5   QI_1+24

      205    18382    2           CALL QCS$SETUP_SOURCE;

  18382   0 0000CD  CBF0 0000                            LAB,B4   0,IMO
          0 0000CF  E380 0000 0000  xent                 LNJ,B6   QCS$SETUP_SOURCE
          0 0000D2       0001                            DC       s:18383,PREL

      206    18383    2           QI@OP_ID_3_OR_6 = QI_1.OP;

  18383   0 0000D3  AB80 0000 0000  xsym                 LAB,B2   QI_1
          0 0000D6  2C34                                 LDV,R2   52
          0 0000D7  6C30                                 LDV,R6   48
          0 0000D8  BB87                                 LAB,B3   ,AUTO
          0 0000D9  3C5C                                 LDV,R3   92
          0 0000DA  0008                                 MMM

      207    18384    2         END;

  18384   0 0000DB  0F81 0009                            B        s:18397,PREL

      208    18385    1       ELSE
      209    18386    2         DO;

PL6.E3A0      #001=QBI$INSPECT File=QBI$INSPECT.:E05TSI                          WED 07/30/97 04:50 Page:31
      210    18387                /*  It's zero, which means:
      211    18388                    "INSPECT ... TALLYING ... FOR CHARACTERS ...".
      212    18389                    Setup a fake 1-character thing for "CHARACTERS".  */
      213    18390    2           QI@OP_ID_3_OR_6.DATA.S$ = ADDR (NIL);

  18390   0 0000DD  DB80 0000 0000                       LAB,B5   0
          0 0000E0  DFC7 0034                            STB,B5   QI@OP_ID_3_OR_6+6,AUTO

      214    18391    2           QI@OP_ID_3_OR_6.LEN.S = 1;

  18391   0 0000E2  5C01                                 LDV,R5   1
          0 0000E3  DF47 003A                            STR,R5   QI@OP_ID_3_OR_6+12,AUTO

      215    18392    2         END;

      216    18393
      217    18394            /*  If this item's ~= 0, then it's:
      218    18395                "INSPECT ... { TALLYING | REPLACING } ...
      219    18396                     ... { BEFORE | AFTER } INITIAL ...".  */
      220    18397    1       IF INSTR$ -> QI$OP_INSPECT.TALLYING_INITIAL_ITEM@P ~= 0

  18397   0 0000E5  ECC7 0005                            LDB,B6   INSTR$,AUTO
          0 0000E7  E846 0004                            LDR,R6   4,B6
          0 0000E9  6901 00DD                            BEZ,R6   s:18460,PREL

      221    18398    1       THEN
      222    18399    1   INITIAL_STUFF:
      223    18400    2         DO;

  18400   0                              INITIAL_STUFF   null
      224    18401    2           QI_1.SOURCE$ = ADDR ( INSTR$ -> QI$OP_INSPECT.TALLYING_INITIAL_ITEM@P );

  18401   0 0000EB  DBC6 0004            INITIAL_STUFF   LAB,B5   4,B6
          0 0000ED  DF80 0000 0018  xsym                 STB,B5   QI_1+24

      225    18402    2           CALL QCS$SETUP_SOURCE;

PL6.E3A0      #001=QBI$INSPECT File=QBI$INSPECT.:E05TSI                          WED 07/30/97 04:50 Page:32
  18402   0 0000F0  CBF0 0000                            LAB,B4   0,IMO
          0 0000F2  E380 0000 0000  xent                 LNJ,B6   QCS$SETUP_SOURCE
          0 0000F5       0001                            DC       s:18404,PREL

      226    18403
      227    18404    2           STARTING_INDEX = QI_1.OP.INX.T;

  18404   0 0000F6  E800 0000 002A  xsym                 LDR,R6   QI_1+42
          0 0000F9  EF47 000B                            STR,R6   STARTING_INDEX,AUTO

      228    18405    2           ENDING_INDEX = QI_1.OP.LEN.T + QI_1.OP.INX.T

  18405   0 0000FB  EA00 0000 0027  xsym                 ADD,R6   QI_1+39
          0 0000FE  E200 0000 0026  xsym                 SUB,R6   QI_1+38
          0 000101  EF47 0004                            STR,R6   ENDING_INDEX,AUTO

      229    18406    2             - QI_1.OP.LEN.S;
      230    18407    2           QI_1.OP.LEN.T = QI_1.OP.LEN.S;

  18407   0 000103  D800 0000 0026  xsym                 LDR,R5   QI_1+38
          0 000106  DF00 0000 0027  xsym                 STR,R5   QI_1+39

      231    18408
      232    18409    2   FIND_INITIAL_STRING:
      233    18410    3           DO QI_1.OP.INX.T = STARTING_INDEX TO ENDING_INDEX;

  18410   0 000109  C847 000B            FIND_INITIAL_ST*LDR,R4   STARTING_INDEX,AUTO
          0 00010B  CF00 0000 002A  xsym                 STR,R4   QI_1+42
          0 00010E  0F81 008C                            B        s:18438+3,PREL

      234    18411
      235    18412    3             VARIABLE_SOURCE$ = PINCRC ( QI_1.OP.DATA.S$,

  18412   0 000110  E800 0000 0041  xsym                 LDR,R6   QI_1+65
          0 000113  EA00 0000 0029  xsym                 ADD,R6   QI_1+41
          0 000116  EF47 0056                            STR,R6   QI@OTTER_SPACE_2+8,AUTO
          0 000118  8C80 0000 0020  xsym                 LDI      QI_1+32
PL6.E3A0      #001=QBI$INSPECT File=QBI$INSPECT.:E05TSI                          WED 07/30/97 04:50 Page:33
          0 00011B  7031                                 DCL,R7   1
          0 00011C  8D47 0057                            SDI      QI@OTTER_SPACE_2+9,AUTO
          0 00011E  F847 0056                            LDR,R7   QI@OTTER_SPACE_2+8,AUTO
          0 000120  6C00                                 LDV,R6   0
          0 000121  8447 0057                            AID      QI@OTTER_SPACE_2+9,AUTO
          0 000123  7071                                 DCR,R7   1
          0 000124  8D47 0011                            SDI      VARIABLE_SOURCE$,AUTO

      236    18413    3               QI_1.OFFSET.S
      237    18414    3               + QI_1.OP.INX.S );
      238    18415    3             VARIABLE_TARGET$ = PINCRC ( QI_1.OP.DATA.T$,

  18415   0 000126  D800 0000 0042  xsym                 LDR,R5   QI_1+66
          0 000129  DA00 0000 002A  xsym                 ADD,R5   QI_1+42
          0 00012C  8C80 0000 0022  xsym                 LDI      QI_1+34
          0 00012F  7031                                 DCL,R7   1
          0 000130  8D47 0056                            SDI      QI@OTTER_SPACE_2+8,AUTO
          0 000132  F855                                 LDR,R7   R5
          0 000133  6C00                                 LDV,R6   0
          0 000134  8447 0056                            AID      QI@OTTER_SPACE_2+8,AUTO
          0 000136  7071                                 DCR,R7   1
          0 000137  8D47 0013                            SDI      VARIABLE_TARGET$,AUTO

      239    18416    3               QI_1.OFFSET.T
      240    18417    3               + QI_1.OP.INX.T );
      241    18418
      242    18419    3             IF VARIABLE_SOURCE$ -> QI$VARIABLE_STRING_SOURCE.TEXT =

  18419   0 000139  8CC7 0011                            LDI      VARIABLE_SOURCE$,AUTO
          0 00013B  B856                                 LDR,R3   R6
          0 00013C  E570 7FFF                            AND,R6   32767,IMO
          0 00013E  8D47 0056                            SDI      QI@OTTER_SPACE_2+8,AUTO
          0 000140  ECC7 0056                            LDB,B6   QI@OTTER_SPACE_2+8,AUTO
          0 000142  304F                                 SOR,R3   15
          0 000143  8CC7 0013                            LDI      VARIABLE_TARGET$,AUTO
          0 000145  A856                                 LDR,R2   R6
          0 000146  E570 7FFF                            AND,R6   32767,IMO
PL6.E3A0      #001=QBI$INSPECT File=QBI$INSPECT.:E05TSI                          WED 07/30/97 04:50 Page:34
          0 000148  8D47 0058                            SDI      QI@OTTER_SPACE_2+10,AUTO
          0 00014A  DCC7 0058                            LDB,B5   QI@OTTER_SPACE_2+10,AUTO
          0 00014C  204F                                 SOR,R2   15
          0 00014D  AF47 005A                            STR,R2   QI@OTTER_SPACE_2+12,AUTO
          0 00014F  BF47 005B                            STR,R3   QI@OTTER_SPACE_2+13,AUTO
          0 000151  DFC7 005C                            STB,B5   QI@OTTER_SPACE_2+14,AUTO
          0 000153  EFC7 005E                            STB,B6   QI@OTTER_SPACE_2+16,AUTO
          0 000155  AB86                                 LAB,B2   ,B6
          0 000156  A853                                 LDR,R2   R3
          0 000157  E800 0000 0026  xsym                 LDR,R6   QI_1+38
          0 00015A  BB85                                 LAB,B3   ,B5
          0 00015B  B847 005A                            LDR,R3   QI@OTTER_SPACE_2+12,AUTO
          0 00015D  F800 0000 0027  xsym                 LDR,R7   QI_1+39
          0 000160  D380 0000 0000  xent                 LNJ,B5   X6C_ACM
          0 000163  5301 0034                            CBNE     s:18438,PREL

      243    18420    3               VARIABLE_TARGET$ -> QI$VARIABLE_STRING_TARGET.TEXT
      244    18421    3             THEN
      245    18422    4               DO;

      246    18423    4                 IF INSTR$ -> QI$OP_INSPECT.ATTRIBUTE.BEFORE_AFTER =

  18423   0 000165  ECC7 0005                            LDB,B6   INSTR$,AUTO
          0 000167  E846 0005                            LDR,R6   5,B6
          0 000169  6043                                 SOR,R6   3
          0 00016A  E570 0003                            AND,R6   3,IMO
          0 00016C  6D02                                 CMV,R6   2
          0 00016D  0981 000B                            BNE      s:18428,PREL

      247    18424    4                   %QI#INSPECT_AFTER_INITIAL
      248    18425    4                 THEN
      249    18426    4                   STARTING_INDEX = QI_1.OP.INX.T + QI_1.OP.LEN.T;

  18426   0 00016F  D800 0000 002A  xsym                 LDR,R5   QI_1+42
          0 000172  DA00 0000 0027  xsym                 ADD,R5   QI_1+39
          0 000175  DF47 000B                            STR,R5   STARTING_INDEX,AUTO
          0 000177  0F81 001E                            B        s:18435,PREL
PL6.E3A0      #001=QBI$INSPECT File=QBI$INSPECT.:E05TSI                          WED 07/30/97 04:50 Page:35

      250    18427    4                 ELSE
      251    18428    4                   IF INSTR$ -> QI$OP_INSPECT.ATTRIBUTE.IS_REPLACING

  18428   0 000179  82C6 0005                            LB,'0020'X        5,B6
  18428   0 00017B       0020
          0 00017C  0581 000E                            BBF      s:18433,PREL

      252    18429    4                   THEN
      253    18430    4                     ENDING_INDEX = QI_1.OP.INX.T - QI_1.OP.LEN.T

  18430   0 00017E  D800 0000 002A  xsym                 LDR,R5   QI_1+42
          0 000181  D200 0000 0027  xsym                 SUB,R5   QI_1+39
          0 000184  D247 0022                            SUB,R5   QI@OP_ID_2_OR_5+12,AUTO
          0 000186  5E01                                 ADV,R5   1
          0 000187  DF47 0004                            STR,R5   ENDING_INDEX,AUTO
          0 000189  0F81 000C                            B        s:18435,PREL

      254    18431    4                       - QI@OP_ID_2_OR_5.LEN.S + 1;
      255    18432    4                   ELSE
      256    18433    4                     ENDING_INDEX = QI_1.OP.INX.T - QI_1.OP.LEN.T

  18433   0 00018B  D800 0000 002A  xsym                 LDR,R5   QI_1+42
          0 00018E  D200 0000 0027  xsym                 SUB,R5   QI_1+39
          0 000191  D247 003A                            SUB,R5   QI@OP_ID_3_OR_6+12,AUTO
          0 000193  5E01                                 ADV,R5   1
          0 000194  DF47 0004                            STR,R5   ENDING_INDEX,AUTO

      257    18434    4                       - QI@OP_ID_3_OR_6.LEN.S + 1;
      258    18435    4                 EXIT INITIAL_STUFF;

  18435   0 000196  0F81 002E                            B        s:18457,PREL

      259    18436    4               END;
      260    18437
      261    18438    3           END FIND_INITIAL_STRING;

PL6.E3A0      #001=QBI$INSPECT File=QBI$INSPECT.:E05TSI                          WED 07/30/97 04:50 Page:36
  18438   0 000198  8A80 0000 002A  xsym                 INC      QI_1+42
          0 00019B  E800 0000 002A  xsym                 LDR,R6   QI_1+42
          0 00019E  6801 0005                            BLZ,R6   s:18444,PREL
          0 0001A0  E947 0004                            CMR,R6   ENDING_INDEX,AUTO
          0 0001A2  0A81 FF6D                            BALE     s:18412,PREL

      262    18439
      263    18440                /* Oops.  The string we're inspecting has no match for
      264    18441                   the INITIAL string.  If it's an AFTER INITIAL clause,
      265    18442                   give up.  Otherwise, pretend the BEFORE INITIAL clause
      266    18443                   never existed.  (More COBOL wierdness.)  */
      267    18444    2           IF INSTR$ -> QI$OP_INSPECT.ATTRIBUTE.BEFORE_AFTER =

  18444   0 0001A4  ECC7 0005                            LDB,B6   INSTR$,AUTO
          0 0001A6  D846 0005                            LDR,R5   5,B6
          0 0001A8  5043                                 SOR,R5   3
          0 0001A9  D570 0003                            AND,R5   3,IMO
          0 0001AB  5D02                                 CMV,R5   2
          0 0001AC  0901 0152                            BE       s:18557,PREL

      268    18445    2             %QI#INSPECT_AFTER_INITIAL
      269    18446    2           THEN
      270    18447    2             GOTO EL_FINISHO;
      271    18448
      272    18449    2           IF INSTR$ -> QI$OP_INSPECT.ATTRIBUTE.IS_REPLACING

  18449   0 0001AE  82C6 0005                            LB,'0020'X        5,B6
  18449   0 0001B0       0020
          0 0001B1  0581 000B                            BBF      s:18454,PREL

      273    18450    2           THEN
      274    18451    2             ENDING_INDEX = ORIGINAL_TARGET_LENGTH + STARTING_INDEX

  18451   0 0001B3  C847 0009                            LDR,R4   ORIGINAL_TARGET_LENGTH,AUTO
          0 0001B5  CA47 000B                            ADD,R4   STARTING_INDEX,AUTO
          0 0001B7  C247 0022                            SUB,R4   QI@OP_ID_2_OR_5+12,AUTO
          0 0001B9  CF47 0004                            STR,R4   ENDING_INDEX,AUTO
PL6.E3A0      #001=QBI$INSPECT File=QBI$INSPECT.:E05TSI                          WED 07/30/97 04:50 Page:37
          0 0001BB  0F81 0025                            B        s:18473,PREL

      275    18452    2               - QI@OP_ID_2_OR_5.LEN.S;
      276    18453    2           ELSE
      277    18454    2             ENDING_INDEX = ORIGINAL_TARGET_LENGTH + STARTING_INDEX

  18454   0 0001BD  C847 0009                            LDR,R4   ORIGINAL_TARGET_LENGTH,AUTO
          0 0001BF  CA47 000B                            ADD,R4   STARTING_INDEX,AUTO
          0 0001C1  C247 003A                            SUB,R4   QI@OP_ID_3_OR_6+12,AUTO
          0 0001C3  CF47 0004                            STR,R4   ENDING_INDEX,AUTO

      278    18455    2               - QI@OP_ID_3_OR_6.LEN.S;
      279    18456
      280    18457    2         END INITIAL_STUFF;

  18457   0 0001C5  0F81 001B                            B        s:18473,PREL

      281    18458    1       ELSE
      282    18459    1   NO_INITIAL_STUFF:
      283    18460    2         DO;

  18460   0                              NO_INITIAL_STUFFnull
      284    18461
      285    18462    2           STARTING_INDEX = QI_1.OP.INX.T;

  18462   0 0001C7  D800 0000 002A  xsym NO_INITIAL_STUFFLDR,R5   QI_1+42
          0 0001CA  DF47 000B                            STR,R5   STARTING_INDEX,AUTO

      286    18463    2           IF INSTR$ -> QI$OP_INSPECT.ATTRIBUTE.IS_REPLACING

  18463   0 0001CC  82C6 0005                            LB,'0020'X        5,B6
  18463   0 0001CE       0020
          0 0001CF  0581 000A                            BBF      s:18468,PREL

      287    18464    2           THEN
      288    18465    2             ENDING_INDEX = QI_1.OP.LEN.T + QI_1.OP.INX.T

PL6.E3A0      #001=QBI$INSPECT File=QBI$INSPECT.:E05TSI                          WED 07/30/97 04:50 Page:38
  18465   0 0001D1  DA00 0000 0027  xsym                 ADD,R5   QI_1+39
          0 0001D4  D247 0022                            SUB,R5   QI@OP_ID_2_OR_5+12,AUTO
          0 0001D6  DF47 0004                            STR,R5   ENDING_INDEX,AUTO
          0 0001D8  0F81 0008                            B        s:18473,PREL

      289    18466    2               - QI@OP_ID_2_OR_5.LEN.S;
      290    18467    2           ELSE
      291    18468    2             ENDING_INDEX = QI_1.OP.LEN.T + QI_1.OP.INX.T

  18468   0 0001DA  DA00 0000 0027  xsym                 ADD,R5   QI_1+39
          0 0001DD  D247 003A                            SUB,R5   QI@OP_ID_3_OR_6+12,AUTO
          0 0001DF  DF47 0004                            STR,R5   ENDING_INDEX,AUTO

      292    18469    2               - QI@OP_ID_3_OR_6.LEN.S;
      293    18470
      294    18471    2         END NO_INITIAL_STUFF;

      295    18472
      296    18473    1       IF INSTR$ -> QI$OP_INSPECT.ATTRIBUTE.IS_REPLACING

  18473   0 0001E1  82C6 0005                            LB,'0020'X        5,B6
  18473   0 0001E3       0020
          0 0001E4  0581 0019                            BBF      s:18483,PREL

      297    18474    1       THEN
      298    18475    2         DO;

      299    18476    2           QI_1.OP.LEN.S = QI@OP_ID_2_OR_5.LEN.S;

  18476   0 0001E6  E847 0022                            LDR,R6   QI@OP_ID_2_OR_5+12,AUTO
          0 0001E8  EF00 0000 0026  xsym                 STR,R6   QI_1+38

      300    18477    2           VARIABLE_SOURCE$ = PINCRC ( QI@OP_ID_2_OR_5.DATA.S$,

  18477   0 0001EB  D847 0016                            LDR,R5   QI@OP_ID_2_OR_5,AUTO
          0 0001ED  504F                                 SOR,R5   15
          0 0001EE  DA47 0025                            ADD,R5   QI@OP_ID_2_OR_5+15,AUTO
PL6.E3A0      #001=QBI$INSPECT File=QBI$INSPECT.:E05TSI                          WED 07/30/97 04:50 Page:39
          0 0001F0  8CC7 001C                            LDI      QI@OP_ID_2_OR_5+6,AUTO
          0 0001F2  7031                                 DCL,R7   1
          0 0001F3  8D47 0056                            SDI      QI@OTTER_SPACE_2+8,AUTO
          0 0001F5  F855                                 LDR,R7   R5
          0 0001F6  6C00                                 LDV,R6   0
          0 0001F7  8447 0056                            AID      QI@OTTER_SPACE_2+8,AUTO
          0 0001F9  7071                                 DCR,R7   1
          0 0001FA  8D47 0011                            SDI      VARIABLE_SOURCE$,AUTO

      301    18478    2             QI@OP_ID_2_OR_5.CIP.S.CA.OFFSET
      302    18479    2             + QI@OP_ID_2_OR_5.INX.S );
      303    18480    2         END;

  18480   0 0001FC  0F81 0017                            B        s:18489,PREL

      304    18481    1       ELSE
      305    18482    2         DO;

      306    18483    2           QI_1.OP.LEN.S = QI@OP_ID_3_OR_6.LEN.S;

  18483   0 0001FE  E847 003A                            LDR,R6   QI@OP_ID_3_OR_6+12,AUTO
          0 000200  EF00 0000 0026  xsym                 STR,R6   QI_1+38

      307    18484    2           VARIABLE_SOURCE$ = PINCRC ( QI@OP_ID_3_OR_6.DATA.S$,

  18484   0 000203  D847 002E                            LDR,R5   QI@OP_ID_3_OR_6,AUTO
          0 000205  504F                                 SOR,R5   15
          0 000206  DA47 003D                            ADD,R5   QI@OP_ID_3_OR_6+15,AUTO
          0 000208  8CC7 0034                            LDI      QI@OP_ID_3_OR_6+6,AUTO
          0 00020A  7031                                 DCL,R7   1
          0 00020B  8D47 0056                            SDI      QI@OTTER_SPACE_2+8,AUTO
          0 00020D  F855                                 LDR,R7   R5
          0 00020E  6C00                                 LDV,R6   0
          0 00020F  8447 0056                            AID      QI@OTTER_SPACE_2+8,AUTO
          0 000211  7071                                 DCR,R7   1
          0 000212  8D47 0011                            SDI      VARIABLE_SOURCE$,AUTO

PL6.E3A0      #001=QBI$INSPECT File=QBI$INSPECT.:E05TSI                          WED 07/30/97 04:50 Page:40
      308    18485    2             QI@OP_ID_3_OR_6.CIP.S.CA.OFFSET
      309    18486    2             + QI@OP_ID_3_OR_6.INX.S );
      310    18487    2         END;

      311    18488
      312    18489    1       QI_1.OP.LEN.T = QI_1.OP.LEN.S;

  18489   0 000214  D800 0000 0026  xsym                 LDR,R5   QI_1+38
          0 000217  DF00 0000 0027  xsym                 STR,R5   QI_1+39

      313    18490
      314    18491    1   TALLY_OR_REPLACE_N_STRINGS:
      315    18492    2       DO QI_1.OP.INX.T = STARTING_INDEX TO ENDING_INDEX;

  18492   0 00021A  C847 000B            TALLY_OR_REPLAC*LDR,R4   STARTING_INDEX,AUTO
          0 00021C  CF00 0000 002A  xsym                 STR,R4   QI_1+42
          0 00021F  0F81 00D6                            B        s:18551+3,PREL

      316    18493
      317    18494    2   TALLY_OR_REPLACE_1_STRING:
      318    18495    3         DO;

  18495   0                              TALLY_OR_REPLAC*null
      319    18496    3           IF INSTR$ -> QI$OP_INSPECT.ATTRIBUTE.WHICH_CHARS ~= %QI#INSPECT_CHARACTERS

  18496   0 000221  ECC7 0005            TALLY_OR_REPLAC*LDB,B6   INSTR$,AUTO
          0 000223  82C6 0005                            LB,'0007'X        5,B6
          0 000225       0007
          0 000226  0581 004E                            BBF      s:18516,PREL

      320    18497    3           THEN
      321    18498    3   CHECK_1_STRING_FOR_EQUALNESS:
      322    18499    4             DO;

  18499   0                              CHECK_1_STRING_*null
      323    18500    4               VARIABLE_TARGET$ = PINCRC ( QI_1.OP.DATA.T$,

PL6.E3A0      #001=QBI$INSPECT File=QBI$INSPECT.:E05TSI                          WED 07/30/97 04:50 Page:41
  18500   0 000228  E800 0000 0042  xsym CHECK_1_STRING_*LDR,R6   QI_1+66
          0 00022B  EA00 0000 002A  xsym                 ADD,R6   QI_1+42
          0 00022E  EF47 0056                            STR,R6   QI@OTTER_SPACE_2+8,AUTO
          0 000230  8C80 0000 0022  xsym                 LDI      QI_1+34
          0 000233  7031                                 DCL,R7   1
          0 000234  8D47 0057                            SDI      QI@OTTER_SPACE_2+9,AUTO
          0 000236  F847 0056                            LDR,R7   QI@OTTER_SPACE_2+8,AUTO
          0 000238  6C00                                 LDV,R6   0
          0 000239  8447 0057                            AID      QI@OTTER_SPACE_2+9,AUTO
          0 00023B  7071                                 DCR,R7   1
          0 00023C  8D47 0013                            SDI      VARIABLE_TARGET$,AUTO

      324    18501    4                 QI_1.OFFSET.T
      325    18502    4                 + QI_1.OP.INX.T );
      326    18503    4               IF VARIABLE_SOURCE$ -> QI$VARIABLE_STRING_SOURCE.TEXT ~=

  18503   0 00023E  8CC7 0011                            LDI      VARIABLE_SOURCE$,AUTO
          0 000240  B856                                 LDR,R3   R6
          0 000241  E570 7FFF                            AND,R6   32767,IMO
          0 000243  8D47 0056                            SDI      QI@OTTER_SPACE_2+8,AUTO
          0 000245  DCC7 0056                            LDB,B5   QI@OTTER_SPACE_2+8,AUTO
          0 000247  304F                                 SOR,R3   15
          0 000248  8CC7 0013                            LDI      VARIABLE_TARGET$,AUTO
          0 00024A  A856                                 LDR,R2   R6
          0 00024B  E570 7FFF                            AND,R6   32767,IMO
          0 00024D  8D47 0058                            SDI      QI@OTTER_SPACE_2+10,AUTO
          0 00024F  CCC7 0058                            LDB,B4   QI@OTTER_SPACE_2+10,AUTO
          0 000251  204F                                 SOR,R2   15
          0 000252  AF47 005A                            STR,R2   QI@OTTER_SPACE_2+12,AUTO
          0 000254  BF47 005B                            STR,R3   QI@OTTER_SPACE_2+13,AUTO
          0 000256  CFC7 005C                            STB,B4   QI@OTTER_SPACE_2+14,AUTO
          0 000258  DFC7 005E                            STB,B5   QI@OTTER_SPACE_2+16,AUTO
          0 00025A  AB85                                 LAB,B2   ,B5
          0 00025B  A853                                 LDR,R2   R3
          0 00025C  E800 0000 0026  xsym                 LDR,R6   QI_1+38
          0 00025F  BB84                                 LAB,B3   ,B4
          0 000260  B847 005A                            LDR,R3   QI@OTTER_SPACE_2+12,AUTO
PL6.E3A0      #001=QBI$INSPECT File=QBI$INSPECT.:E05TSI                          WED 07/30/97 04:50 Page:42
          0 000262  F800 0000 0027  xsym                 LDR,R7   QI_1+39
          0 000265  D380 0000 0000  xent                 LNJ,B5   X6C_ACM
          0 000268  5381 000C                            CBE      s:18516,PREL

      327    18504    4                 VARIABLE_TARGET$ -> QI$VARIABLE_STRING_TARGET.TEXT
      328    18505    4               THEN
      329    18506    4   NOT_EQUAL:
      330    18507    5                 DO;

  18507   0                              NOT_EQUAL       null
      331    18508    5                   IF INSTR$ -> QI$OP_INSPECT.ATTRIBUTE.WHICH_CHARS = %
             18508                            QI#INSPECT_LEADING

  18508   0 00026A  ECC7 0005            NOT_EQUAL       LDB,B6   INSTR$,AUTO
          0 00026C  E846 0005                            LDR,R6   5,B6
          0 00026E  E570 0007                            AND,R6   7,IMO
          0 000270  6D02                                 CMV,R6   2
          0 000271  0901 008D                            BE       s:18557,PREL

      332    18509    5                   THEN
      333    18510    5                     EXIT TALLY_OR_REPLACE_N_STRINGS;
      334    18511    5                   ELSE
      335    18512    5                     EXIT TALLY_OR_REPLACE_1_STRING;

  18512   0 000273  0F81 007F                            B        s:18551,PREL

      336    18513    5                 END NOT_EQUAL;
      337    18514    4             END CHECK_1_STRING_FOR_EQUALNESS;
      338    18515
      339    18516    3           IF INSTR$ -> QI$OP_INSPECT.ATTRIBUTE.IS_REPLACING

  18516   0 000275  ECC7 0005                            LDB,B6   INSTR$,AUTO
          0 000277  82C6 0005                            LB,'0020'X        5,B6
          0 000279       0020
          0 00027A  0581 0063                            BBF      s:18538,PREL

      340    18517    3           THEN
PL6.E3A0      #001=QBI$INSPECT File=QBI$INSPECT.:E05TSI                          WED 07/30/97 04:50 Page:43
      341    18518    4             DO;

      342    18519
      343    18520    4               VARIABLE_SOURCE$ = PINCRC ( QI@OP_ID_3_OR_6.DATA.S$,

  18520   0 00027C  E847 002E                            LDR,R6   QI@OP_ID_3_OR_6,AUTO
          0 00027E  604F                                 SOR,R6   15
          0 00027F  EA47 003D                            ADD,R6   QI@OP_ID_3_OR_6+15,AUTO
          0 000281  EF47 0056                            STR,R6   QI@OTTER_SPACE_2+8,AUTO
          0 000283  8CC7 0034                            LDI      QI@OP_ID_3_OR_6+6,AUTO
          0 000285  7031                                 DCL,R7   1
          0 000286  8D47 0057                            SDI      QI@OTTER_SPACE_2+9,AUTO
          0 000288  F847 0056                            LDR,R7   QI@OTTER_SPACE_2+8,AUTO
          0 00028A  6C00                                 LDV,R6   0
          0 00028B  8447 0057                            AID      QI@OTTER_SPACE_2+9,AUTO
          0 00028D  7071                                 DCR,R7   1
          0 00028E  8D47 0011                            SDI      VARIABLE_SOURCE$,AUTO

      344    18521    4                 QI@OP_ID_3_OR_6.CIP.S.CA.OFFSET
      345    18522    4                 + QI@OP_ID_3_OR_6.INX.S );
      346    18523    4               VARIABLE_TARGET$ = PINCRC ( QI_1.OP.DATA.T$,

  18523   0 000290  D800 0000 0042  xsym                 LDR,R5   QI_1+66
          0 000293  DA00 0000 002A  xsym                 ADD,R5   QI_1+42
          0 000296  8C80 0000 0022  xsym                 LDI      QI_1+34
          0 000299  7031                                 DCL,R7   1
          0 00029A  8D47 0056                            SDI      QI@OTTER_SPACE_2+8,AUTO
          0 00029C  F855                                 LDR,R7   R5
          0 00029D  6C00                                 LDV,R6   0
          0 00029E  8447 0056                            AID      QI@OTTER_SPACE_2+8,AUTO
          0 0002A0  7071                                 DCR,R7   1
          0 0002A1  8D47 0013                            SDI      VARIABLE_TARGET$,AUTO

      347    18524    4                 QI_1.OFFSET.T
      348    18525    4                 + QI_1.OP.INX.T );
      349    18526
      350    18527    4               VARIABLE_TARGET$ -> QI$VARIABLE_STRING_TARGET.TEXT =
PL6.E3A0      #001=QBI$INSPECT File=QBI$INSPECT.:E05TSI                          WED 07/30/97 04:50 Page:44

  18527   0 0002A3  B856                                 LDR,R3   R6
          0 0002A4  E570 7FFF                            AND,R6   32767,IMO
          0 0002A6  8D47 0056                            SDI      QI@OTTER_SPACE_2+8,AUTO
          0 0002A8  DCC7 0056                            LDB,B5   QI@OTTER_SPACE_2+8,AUTO
          0 0002AA  304F                                 SOR,R3   15
          0 0002AB  8CC7 0011                            LDI      VARIABLE_SOURCE$,AUTO
          0 0002AD  A856                                 LDR,R2   R6
          0 0002AE  E570 7FFF                            AND,R6   32767,IMO
          0 0002B0  8D47 0058                            SDI      QI@OTTER_SPACE_2+10,AUTO
          0 0002B2  CCC7 0058                            LDB,B4   QI@OTTER_SPACE_2+10,AUTO
          0 0002B4  204F                                 SOR,R2   15
          0 0002B5  AF47 005A                            STR,R2   QI@OTTER_SPACE_2+12,AUTO
          0 0002B7  BF47 005B                            STR,R3   QI@OTTER_SPACE_2+13,AUTO
          0 0002B9  CFC7 005C                            STB,B4   QI@OTTER_SPACE_2+14,AUTO
          0 0002BB  DFC7 005E                            STB,B5   QI@OTTER_SPACE_2+16,AUTO
          0 0002BD  AB84                                 LAB,B2   ,B4
          0 0002BE  E800 0000 0026  xsym                 LDR,R6   QI_1+38
          0 0002C1  BB85                                 LAB,B3   ,B5
          0 0002C2  F800 0000 0027  xsym                 LDR,R7   QI_1+39
          0 0002C5  D380 0000 0000  xent                 LNJ,B5   X6C_ALR

      351    18528    4                 VARIABLE_SOURCE$ -> QI$VARIABLE_STRING_SOURCE.TEXT;
      352    18529
      353    18530    4               VARIABLE_SOURCE$ = PINCRC ( QI@OP_ID_2_OR_5.DATA.S$,

  18530   0 0002C8  E847 0016                            LDR,R6   QI@OP_ID_2_OR_5,AUTO
          0 0002CA  604F                                 SOR,R6   15
          0 0002CB  EA47 0025                            ADD,R6   QI@OP_ID_2_OR_5+15,AUTO
          0 0002CD  EF47 0056                            STR,R6   QI@OTTER_SPACE_2+8,AUTO
          0 0002CF  8CC7 001C                            LDI      QI@OP_ID_2_OR_5+6,AUTO
          0 0002D1  7031                                 DCL,R7   1
          0 0002D2  8D47 0057                            SDI      QI@OTTER_SPACE_2+9,AUTO
          0 0002D4  F847 0056                            LDR,R7   QI@OTTER_SPACE_2+8,AUTO
          0 0002D6  6C00                                 LDV,R6   0
          0 0002D7  8447 0057                            AID      QI@OTTER_SPACE_2+9,AUTO
          0 0002D9  7071                                 DCR,R7   1
PL6.E3A0      #001=QBI$INSPECT File=QBI$INSPECT.:E05TSI                          WED 07/30/97 04:50 Page:45
          0 0002DA  8D47 0011                            SDI      VARIABLE_SOURCE$,AUTO

      354    18531    4                 QI@OP_ID_2_OR_5.CIP.S.CA.OFFSET
      355    18532    4                 + QI@OP_ID_2_OR_5.INX.S );
      356    18533
      357    18534    4             END;

  18534   0 0002DC  0F81 0003                            B        s:18542,PREL

      358    18535    3           ELSE
      359    18536    4             DO;

      360    18537
      361    18538    4               TALLY = TALLY + 1;

  18538   0 0002DE  8AC7 0010                            INC      TALLY,AUTO

      362    18539
      363    18540    4             END;

      364    18541
      365    18542    3           IF INSTR$ -> QI$OP_INSPECT.ATTRIBUTE.WHICH_CHARS =

  18542   0 0002E0  ECC7 0005                            LDB,B6   INSTR$,AUTO
          0 0002E2  E846 0005                            LDR,R6   5,B6
          0 0002E4  E570 0007                            AND,R6   7,IMO
          0 0002E6  6D04                                 CMV,R6   4
          0 0002E7  0901 0017                            BE       s:18557,PREL

      366    18543    3             %QI#INSPECT_FIRST
      367    18544    3           THEN
      368    18545    3             EXIT TALLY_OR_REPLACE_N_STRINGS;
      369    18546
      370    18547    3           QI_1.OP.INX.T = QI_1.OP.INX.T + QI_1.OP.LEN.T - 1;

  18547   0 0002E9  D800 0000 002A  xsym                 LDR,R5   QI_1+42
          0 0002EC  DA00 0000 0027  xsym                 ADD,R5   QI_1+39
PL6.E3A0      #001=QBI$INSPECT File=QBI$INSPECT.:E05TSI                          WED 07/30/97 04:50 Page:46
          0 0002EF  5EFF                                 ADV,R5   -1
          0 0002F0  DF00 0000 002A  xsym                 STR,R5   QI_1+42

      371    18548
      372    18549    3         END TALLY_OR_REPLACE_1_STRING;

      373    18550
      374    18551    2       END TALLY_OR_REPLACE_N_STRINGS;

  18551   0 0002F3  8A80 0000 002A  xsym                 INC      QI_1+42
          0 0002F6  E800 0000 002A  xsym                 LDR,R6   QI_1+42
          0 0002F9  6801 0005                            BLZ,R6   s:18557,PREL
          0 0002FB  E947 0004                            CMR,R6   ENDING_INDEX,AUTO
          0 0002FD  0A81 FF23                            BALE     s:18495,PREL

      375    18552
      376    18553            /* All done REPLACING or TALLYING. */
      377    18554    1   EL_FINISHO:
      378    18555            /*  Don't forget to put back the poor fellow's
      379    18556                overpunched signs.  */
      380    18557    1       IF IT_WAS_OVERPUNCHED

  18557   0 0002FF  89C7 0007            EL_FINISHO      CMZ      IT_WAS_OVERPUNCHED,AUTO
          0 000301  0881 0028                            BAGE     s:18572,PREL

      381    18558    1       THEN
      382    18559    2         DO;

      383    18560    2           OVERPUNCHED_CHAR = QI_1.OP.DATA.T$ ->

  18560   0 000303  E800 0000 0042  xsym                 LDR,R6   QI_1+66
          0 000306  EA47 0009                            ADD,R6   ORIGINAL_TARGET_LENGTH,AUTO
          0 000308  DC80 0000 0022  xsym                 LDB,B5   QI_1+34
          0 00030B  B856                                 LDR,R3   R6
          0 00030C  3EFF                                 ADV,R3   -1
          0 00030D  E2B5                                 LLH,R6   ,B5,R3
          0 00030E  E7C7 000A                            STH,R6   OVERPUNCHED_CHAR,AUTO
PL6.E3A0      #001=QBI$INSPECT File=QBI$INSPECT.:E05TSI                          WED 07/30/97 04:50 Page:47

      384    18561    2             QI$UBYTE_A ( QI_1.OFFSET.T + ORIGINAL_TARGET_LENGTH - 1 );
      385    18562    2           IF IT_WAS_POSITIVE

  18562   0 000310  89C7 0008                            CMZ      IT_WAS_POSITIVE,AUTO
          0 000312  0881 0008                            BAGE     s:18566,PREL

      386    18563    2           THEN
      387    18564    2             OVERPUNCHED_CHAR = OVERPUNCHED_CHAR - %(ASCBIN('1') - ASCBIN('A'));

  18564   0 000314  E2C7 000A                            LLH,R6   OVERPUNCHED_CHAR,AUTO
          0 000316  6E10                                 ADV,R6   16
          0 000317  E7C7 000A                            STH,R6   OVERPUNCHED_CHAR,AUTO
          0 000319  0F81 0006                            B        s:18567,PREL

      388    18565    2           ELSE
      389    18566    2             OVERPUNCHED_CHAR = OVERPUNCHED_CHAR - %(ASCBIN('1') - ASCBIN('J'));

  18566   0 00031B  E2C7 000A                            LLH,R6   OVERPUNCHED_CHAR,AUTO
          0 00031D  6E19                                 ADV,R6   25
          0 00031E  E7C7 000A                            STH,R6   OVERPUNCHED_CHAR,AUTO

      390    18567    2           QI_1.OP.DATA.T$ ->

  18567   0 000320  E800 0000 0042  xsym                 LDR,R6   QI_1+66
          0 000323  EA47 0009                            ADD,R6   ORIGINAL_TARGET_LENGTH,AUTO
          0 000325  D2C7 000A                            LLH,R5   OVERPUNCHED_CHAR,AUTO
          0 000327  B856                                 LDR,R3   R6
          0 000328  3EFF                                 ADV,R3   -1
          0 000329  D7B5                                 STH,R5   ,B5,R3

      391    18568    2             QI$UBYTE_A ( QI_1.OFFSET.T + ORIGINAL_TARGET_LENGTH - 1 ) =
      392    18569    2             OVERPUNCHED_CHAR;
      393    18570    2         END;

      394    18571
      395    18572    1       IF NOT INSTR$ -> QI$OP_INSPECT.ATTRIBUTE.IS_REPLACING
PL6.E3A0      #001=QBI$INSPECT File=QBI$INSPECT.:E05TSI                          WED 07/30/97 04:50 Page:48

  18572   0 00032A  82C6 0005                            LB,'0020'X        5,B6
  18572   0 00032C       0020
          0 00032D  0501 0105                            BBT      s:18674,PREL

      396    18573    1       THEN
      397    18574    2         DO;

      398    18575
      399    18576                /* If the compiler pointed us at a temp, move the
      400    18577                   tally in (don't add it in).  */
      401    18578    2           IF TALLIED_ITEM_IS_A_TEMP

  18578   0 00032F  89C7 000C                            CMZ      TALLIED_ITEM_IS_A_TEMP,AUTO
          0 000331  0881 003B                            BAGE     s:18601,PREL

      402    18579    2           THEN
      403    18580    3             DO;

      404    18581                    /* Foist, convert TALLY to PACKED in the temp's
      405    18582                       data area...  */
      406    18583    3               QI_1.OP.CIP.S_A (0) = QI_16_BIT_BINARY_A (0);

  18583   0 000333  E800 0000 0000  xsym                 LDR,R6   QI_16_BIT_BINARY
          0 000336  EF00 0000 001A  xsym                 STR,R6   QI_1+26

      407    18584    3               QI_1.OP.DATA.S$ = ADDR ( TALLY );

  18584   0 000339  DBC7 0010                            LAB,B5   TALLY,AUTO
          0 00033B  DF80 0000 0020  xsym                 STB,B5   QI_1+32

      408    18585    3               QI_1.OP.CIP.T_A (0) = QI_31_DIGIT_ST_PACKED_A (0);

  18585   0 00033E  D800 0000 0000  xsym                 LDR,R5   QI_31_DIGIT_ST_PACKED
          0 000341  DF00 0000 001C  xsym                 STR,R5   QI_1+28

      409    18586    3               QI_1.OP.CIP.T.LEN = %QI#MIN_BINARY_DIGIT_COUNT;
PL6.E3A0      #001=QBI$INSPECT File=QBI$INSPECT.:E05TSI                          WED 07/30/97 04:50 Page:49

  18586   0 000344  C870 0500                            LDR,R4   1280,IMO
          0 000346  CA80 0000 001C  xsym                 SRM,R4,'1F00'X    QI_1+28
          0 000349       1F00

      410    18587    3               QI_1.OP.DATA.T$ = QI@OP_ID_2_OR_5.DATA.S$;

  18587   0 00034A  CCC7 001C                            LDB,B4   QI@OP_ID_2_OR_5+6,AUTO
          0 00034C  CF80 0000 0022  xsym                 STB,B4   QI_1+34

      411    18588    3               QI_1.OP.DEC.T = 0;

  18588   0 00034F  8700 0000 002A  xsym                 CL       QI_1+42

      412    18589
      413    18590    3               QI_1.OP.SIZE_ERROR = %QI#DONT_CHECK_FOR_SIZE_ERROR;

  18590   0 000352  8700 0000 0030  xsym                 CL       QI_1+48

      414    18591
      415    18592    3               CALL QCC$CBD ( QI_1.OP );

  18592   0 000355  BB80 0000 0000  01                   LAB,B3   0
          0 000358  CBF0 0100                            LAB,B4   256,IMO
          0 00035A  E380 0000 0000  xent                 LNJ,B6   QCC$CBD
          0 00035D       0001                            DC       s:18595,PREL

      416    18593
      417    18594                    /* ...then point the temp's DAD at the result.  */
      418    18595    3               TALLIED_ITEM_DAD$ -> QI$DAD.WORD0 = %( QI#IS_TEMP_BIT_MASK +
             18595                        QI#TYPE_PACKED );

  18595   0 00035E  ECC7 000D                            LDB,B6   TALLIED_ITEM_DAD$,AUTO
          0 000360  E870 0201                            LDR,R6   513,IMO
          0 000362  EF06                                 STR,R6   ,B6

      419    18596    3               TALLIED_ITEM_DAD$ -> QI$DAD.PSEUDO_CIP_A (0) = QI_1.OP.CIP.T_A (0);
PL6.E3A0      #001=QBI$INSPECT File=QBI$INSPECT.:E05TSI                          WED 07/30/97 04:50 Page:50

  18596   0 000363  D800 0000 001C  xsym                 LDR,R5   QI_1+28
          0 000366  DF46 0001                            STR,R5   1,B6

      420    18597    3               TALLIED_ITEM_DAD$ -> QI$DAD.PSEUDO_CIP.NUMERIC.DEC = 0;

  18597   0 000368  8846 0001                            LBF,'003F'X       1,B6
  18597   0 00036A       003F

      421    18598    3             END;

  18598   0 00036B  0F81 00C7                            B        s:18674,PREL

      422    18599    2           ELSE
      423    18600                  /* It's knot a temp.  Believe what it has to say.  */
      424    18601    3             DO CASE ( TALLIED_ITEM_TYPE );

  18601   0 00036D  B847 000F                            LDR,R3   TALLIED_ITEM_TYPE,AUTO
          0 00036F  3D03                                 CMV,R3   3
          0 000370  0281 00C2                            BGE      s:18674,PREL
          0 000372  A830 0000 0378  00                   LDR,R2   s:18601+11,R3
          0 000375  83A0 0000 037B  00                   JMP      s:18605,R2
          0 000378       0000                            DC       s:18605,PREL
          0 000379       0000                            DC       s:18605,PREL
          0 00037A       004E                            DC       s:18629,PREL

      425    18602
      426    18603    3               CASE ( %QI#TYPE_DISPLAY, %QI#TYPE_PACKED );

      427    18604                      /* First, convert TALLY to PACKED in OTTER_SPACE.  */
      428    18605    3                 QI_1.OP.CIP.S_A (0) = QI_16_BIT_BINARY_A (0);

  18605   0 00037B  E800 0000 0000  xsym                 LDR,R6   QI_16_BIT_BINARY
          0 00037E  EF00 0000 001A  xsym                 STR,R6   QI_1+26

      429    18606    3                 QI_1.OP.DATA.S$ = ADDR ( TALLY );

PL6.E3A0      #001=QBI$INSPECT File=QBI$INSPECT.:E05TSI                          WED 07/30/97 04:50 Page:51
  18606   0 000381  DBC7 0010                            LAB,B5   TALLY,AUTO
          0 000383  DF80 0000 0020  xsym                 STB,B5   QI_1+32

      430    18607    3                 QI_1.OP.CIP.T_A (0) = QI_31_DIGIT_ST_PACKED_A (0);

  18607   0 000386  D800 0000 0000  xsym                 LDR,R5   QI_31_DIGIT_ST_PACKED
          0 000389  DF00 0000 001C  xsym                 STR,R5   QI_1+28

      431    18608    3                 QI_1.OP.DATA.T$ = ADDR ( QI@OTTER_SPACE );

  18608   0 00038C  CBC7 0046                            LAB,B4   QI@OTTER_SPACE,AUTO
          0 00038E  CF80 0000 0022  xsym                 STB,B4   QI_1+34

      432    18609    3                 QI_1.OP.DEC.T = 0;

  18609   0 000391  8700 0000 002A  xsym                 CL       QI_1+42

      433    18610
      434    18611    3                 QI_1.OP.SIZE_ERROR = %QI#DONT_CHECK_FOR_SIZE_ERROR;

  18611   0 000394  8700 0000 0030  xsym                 CL       QI_1+48

      435    18612
      436    18613    3                 CALL QCC$CBD ( QI_1.OP );

  18613   0 000397  BB80 0000 0000  01                   LAB,B3   0
          0 00039A  CBF0 0100                            LAB,B4   256,IMO
          0 00039C  E380 0000 0000  xent                 LNJ,B6   QCC$CBD
          0 00039F       0001                            DC       s:18617,PREL

      437    18614
      438    18615                      /* Den add dat result to duh original target
      439    18616                         still lying dormant in QI@OP_ID_2_OR_5 (Source).  */
      440    18617    3                 QI_1.OP.CIP.S_A (0) = QI_1.OP.CIP.T_A (0);

  18617   0 0003A0  E800 0000 001C  xsym                 LDR,R6   QI_1+28
          0 0003A3  EF00 0000 001A  xsym                 STR,R6   QI_1+26
PL6.E3A0      #001=QBI$INSPECT File=QBI$INSPECT.:E05TSI                          WED 07/30/97 04:50 Page:52

      441    18618    3                 QI_1.OP.DATA.S$ = QI_1.OP.DATA.T$;

  18618   0 0003A6  EC80 0000 0022  xsym                 LDB,B6   QI_1+34
          0 0003A9  EF80 0000 0020  xsym                 STB,B6   QI_1+32

      442    18619    3                 QI_1.OP.DEC.S = 0;

  18619   0 0003AC  8700 0000 0029  xsym                 CL       QI_1+41

      443    18620    3                 QI_1.OP.CIP.T_A (0) = QI@OP_ID_2_OR_5.CIP.S_A (0);

  18620   0 0003AF  E847 0016                            LDR,R6   QI@OP_ID_2_OR_5,AUTO
          0 0003B1  EF00 0000 001C  xsym                 STR,R6   QI_1+28

      444    18621    3                 QI_1.OP.DATA.T$ = QI@OP_ID_2_OR_5.DATA.S$;

  18621   0 0003B4  DCC7 001C                            LDB,B5   QI@OP_ID_2_OR_5+6,AUTO
          0 0003B6  DF80 0000 0022  xsym                 STB,B5   QI_1+34

      445    18622    3                 QI_1.OP.DEC.T = QI@OP_ID_2_OR_5.DEC.S;

  18622   0 0003B9  D847 0025                            LDR,R5   QI@OP_ID_2_OR_5+15,AUTO
          0 0003BB  DF00 0000 002A  xsym                 STR,R5   QI_1+42

      446    18623
      447    18624    3                 CALL QCC$DAD ( QI_1.OP );

  18624   0 0003BE  BB80 0000 0000  01                   LAB,B3   0
          0 0003C1  CBF0 0100                            LAB,B4   256,IMO
          0 0003C3  E380 0000 0000  xent                 LNJ,B6   QCC$DAD
          0 0003C6       0001                            DC       s:18624+9,PREL
          0 0003C7  0F81 006B                            B        s:18674,PREL

      448    18625
      449    18626    3               CASE ( %QI#TYPE_BINARY );

PL6.E3A0      #001=QBI$INSPECT File=QBI$INSPECT.:E05TSI                          WED 07/30/97 04:50 Page:53
      450    18627                      /* Convoit duh (eventual) binary target to
      451    18628                         PACKED in OTTER_SPACE...  */
      452    18629    3                 QI@OP_ID_2_OR_5.CIP.T_A (0) = QI_31_DIGIT_ST_PACKED_A (0);

  18629   0 0003C9  E800 0000 0000  xsym                 LDR,R6   QI_31_DIGIT_ST_PACKED
          0 0003CC  EF47 0018                            STR,R6   QI@OP_ID_2_OR_5+2,AUTO

      453    18630    3                 QI@OP_ID_2_OR_5.DATA.T$ = ADDR ( QI@OTTER_SPACE );

  18630   0 0003CE  DBC7 0046                            LAB,B5   QI@OTTER_SPACE,AUTO
          0 0003D0  DFC7 001E                            STB,B5   QI@OP_ID_2_OR_5+8,AUTO

      454    18631
      455    18632    3                 CALL QCC$CBD ( QI@OP_ID_2_OR_5 );

  18632   0 0003D2  CBC7 0016                            LAB,B4   QI@OP_ID_2_OR_5,AUTO
          0 0003D4  CFC7 0056                            STB,B4   QI@OTTER_SPACE_2+8,AUTO
          0 0003D6  BBC7 0056                            LAB,B3   QI@OTTER_SPACE_2+8,AUTO
          0 0003D8  CBF0 0100                            LAB,B4   256,IMO
          0 0003DA  E380 0000 0000  xent                 LNJ,B6   QCC$CBD
          0 0003DD       0001                            DC       s:18635,PREL

      456    18633
      457    18634                      /* ...den stick TALLY out dere, too.  */
      458    18635    3                 QI_1.OP.CIP.S_A (0) = QI_16_BIT_BINARY_A (0);

  18635   0 0003DE  E800 0000 0000  xsym                 LDR,R6   QI_16_BIT_BINARY
          0 0003E1  EF00 0000 001A  xsym                 STR,R6   QI_1+26

      459    18636    3                 QI_1.OP.DATA.S$ = ADDR ( TALLY );

  18636   0 0003E4  EBC7 0010                            LAB,B6   TALLY,AUTO
          0 0003E6  EF80 0000 0020  xsym                 STB,B6   QI_1+32

      460    18637    3                 QI_1.OP.CIP.T_A (0) = QI_31_DIGIT_ST_PACKED_A (0);

  18637   0 0003E9  D800 0000 0000  xsym                 LDR,R5   QI_31_DIGIT_ST_PACKED
PL6.E3A0      #001=QBI$INSPECT File=QBI$INSPECT.:E05TSI                          WED 07/30/97 04:50 Page:54
          0 0003EC  DF00 0000 001C  xsym                 STR,R5   QI_1+28

      461    18638    3                 QI_1.OP.DATA.T$ = ADDR ( QI@OTTER_SPACE_2 );

  18638   0 0003EF  DBC7 004E                            LAB,B5   QI@OTTER_SPACE_2,AUTO
          0 0003F1  DF80 0000 0022  xsym                 STB,B5   QI_1+34

      462    18639    3                 QI_1.OP.DEC.T = 0;

  18639   0 0003F4  8700 0000 002A  xsym                 CL       QI_1+42

      463    18640
      464    18641    3                 QI_1.OP.SIZE_ERROR = %QI#DONT_CHECK_FOR_SIZE_ERROR;

  18641   0 0003F7  8700 0000 0030  xsym                 CL       QI_1+48

      465    18642
      466    18643    3                 CALL QCC$CBD ( QI_1.OP );

  18643   0 0003FA  BB80 0000 0000  01                   LAB,B3   0
          0 0003FD  CBF0 0100                            LAB,B4   256,IMO
          0 0003FF  E380 0000 0000  xent                 LNJ,B6   QCC$CBD
          0 000402       0001                            DC       s:18648,PREL

      467    18644
      468    18645                      /* The next two assignments just grab QI@OP_ID_2_OR_5
      469    18646                         (Source) before it gets demolished.  (It's the stuff
      470    18647                         that describes the tally item to add to.)  */
      471    18648    3                 QI_1.OP.CIP.T_A (0) = QI@OP_ID_2_OR_5.CIP.S_A (0);

  18648   0 000403  E847 0016                            LDR,R6   QI@OP_ID_2_OR_5,AUTO
          0 000405  EF00 0000 001C  xsym                 STR,R6   QI_1+28

      472    18649    3                 QI_1.OP.DATA.T$ = QI@OP_ID_2_OR_5.DATA.S$;

  18649   0 000408  ECC7 001C                            LDB,B6   QI@OP_ID_2_OR_5+6,AUTO
          0 00040A  EF80 0000 0022  xsym                 STB,B6   QI_1+34
PL6.E3A0      #001=QBI$INSPECT File=QBI$INSPECT.:E05TSI                          WED 07/30/97 04:50 Page:55

      473    18650
      474    18651                      /* We have the PACKED version of the item to tally
      475    18652                         into already in QI@OP_ID_2_OR_5 (Target), so we'll
      476    18653                         move the PACKED version of TALLY to QI@OP_ID_2_OR_5
      477    18654                         (Source).  */
      478    18655    3                 QI@OP_ID_2_OR_5.CIP.S_A (0) = QI_1.OP.CIP.T_A (0);

  18655   0 00040D  EF47 0016                            STR,R6   QI@OP_ID_2_OR_5,AUTO

      479    18656    3                 QI@OP_ID_2_OR_5.DATA.S$ = QI_1.OP.DATA.T$;

  18656   0 00040F  EFC7 001C                            STB,B6   QI@OP_ID_2_OR_5+6,AUTO

      480    18657
      481    18658    3                 CALL QCC$DAD ( QI@OP_ID_2_OR_5 );

  18658   0 000411  DBC7 0016                            LAB,B5   QI@OP_ID_2_OR_5,AUTO
          0 000413  DFC7 0056                            STB,B5   QI@OTTER_SPACE_2+8,AUTO
          0 000415  BBC7 0056                            LAB,B3   QI@OTTER_SPACE_2+8,AUTO
          0 000417  CBF0 0100                            LAB,B4   256,IMO
          0 000419  E380 0000 0000  xent                 LNJ,B6   QCC$DAD
          0 00041C       0001                            DC       s:18664,PREL

      482    18659
      483    18660                      /* Having craftily saved away the eventual destination
      484    18661                         to tally into in QI_1 (Target), we can stick the
      485    18662                         result of the last add into QI_1 (Source) and
      486    18663                         convert our labors back into BINARY.  */
      487    18664    3                 QI_1.OP.CIP.S_A (0) = QI@OP_ID_2_OR_5.CIP.T_A (0);

  18664   0 00041D  E847 0018                            LDR,R6   QI@OP_ID_2_OR_5+2,AUTO
          0 00041F  EF00 0000 001A  xsym                 STR,R6   QI_1+26

      488    18665    3                 QI_1.OP.DATA.S$ = QI@OP_ID_2_OR_5.DATA.T$;

  18665   0 000422  ECC7 001E                            LDB,B6   QI@OP_ID_2_OR_5+8,AUTO
PL6.E3A0      #001=QBI$INSPECT File=QBI$INSPECT.:E05TSI                          WED 07/30/97 04:50 Page:56
          0 000424  EF80 0000 0020  xsym                 STB,B6   QI_1+32

      489    18666    3                 QI_1.OP.DEC.S = 0;

  18666   0 000427  8700 0000 0029  xsym                 CL       QI_1+41

      490    18667
      491    18668    3                 CALL QCC$CDB ( QI_1.OP );

  18668   0 00042A  BB80 0000 0000  01                   LAB,B3   0
          0 00042D  CBF0 0100                            LAB,B4   256,IMO
          0 00042F  E380 0000 0000  xent                 LNJ,B6   QCC$CDB
          0 000432       0001                            DC       s:18674,PREL

      492    18669
      493    18670    3             END;

      494    18671
      495    18672    2         END;

      496    18673
      497    18674    1       RETURN;

  18674   0 000433  C380 0000 0000  xent                 LNJ,B4   X6A_ARET
      498    18675
      499    18676    1   END QBI$INSPECT;

PL6.E3A0      #001=QBI$INSPECT File=QBI$INSPECT.:E05TSI                          WED 07/30/97 04:50 Page:57
--  Include file information  --

   QI_MACROS_M.:E05TOU  is referenced.
   QI_EQUATES_E.:E05TOU  is referenced.
   QG_MACRO_M.:E05TOU  is referenced.
   LCP_6.:E05TOU  cannot be made into a system file and is referenced.
   G_LCP6_E.:E05TOU  was found in the system file and is referenced.
   GT_LCP6_M.:E05TOU  was found in the system file and is referenced.
   KI_CP6.:E05TOU  was found in the system file and is referenced.
   GF_LCP6_M.:E05TOU  was found in the system file and is referenced.
   GM_LCP6_M.:E05TOU  was found in the system file and is referenced.
   GU_LCP6_M.:E05TOU  was found in the system file and is referenced.
   GJ_LCP6_M.:E05TOU  was found in the system file and is referenced.
   GH_LCP6_M.:E05TOU  was found in the system file and is referenced.
      No diagnostics issued in procedure QBI$INSPECT.
PL6.E3A0      #001=QBI$INSPECT File=QBI$INSPECT.:E05TSI                          WED 07/30/97 04:50 Page:58

 **** Variables and constants ****

  ****  Auto variables  ****

  ****  Scalars and arrays  ****
HexLoc.c.b A Datatyp(siz) R M Lvl/name                 HexLoc.c.b A Datatyp(siz) R M Lvl/name

     4-0-0/w SBIN(16)    r     1 ENDING_INDEX               5-0-0/w PTR         r     1 INSTR$
     7-0-0/w BIT         r     1 IT_WAS_OVERPUNCHED         8-0-0/w BIT         r     1 IT_WAS_POSITIVE
     9-0-0/w UBIN(16)    r     1 ORIGINAL_TARGET_LENGTH
     A-0-0/w UBIN(8)     r     1 OVERPUNCHED_CHAR          16-0-0/d STRC(384)   r     1 QI@OP_ID_2_OR_5
    2E-0-0/d STRC(384)   r     1 QI@OP_ID_3_OR_6           46-0-0/w STRC(128)   r     1 QI@OTTER_SPACE
    4E-0-0/w STRC(128)   r     1 QI@OTTER_SPACE_2           B-0-0/w SBIN(16)    r     1 STARTING_INDEX
     D-0-0/w PTR         r     1 TALLIED_ITEM_DAD$
     C-0-0/w BIT         r     1 TALLIED_ITEM_IS_A_TEMP
     F-0-0/w UBIN(16)    r     1 TALLIED_ITEM_TYPE         10-0-0/w UBIN(16)    r     1 TALLY
    11-0-0/w PTR         r     1 VARIABLE_SOURCE$          13-0-0/w PTR         r     1 VARIABLE_TARGET$

  ****  SYMREF variables  ****

  ****  Scalars and arrays  ****
HexLoc.c.b A Datatyp(siz) R M Lvl/name                 HexLoc.c.b A Datatyp(siz) R M Lvl/name

     0-0-0/d STRC(2576)  r     1 QI_1                       0-0-0/d STRC(32)    r     1 QI_16_BIT_BINARY
     0-0-0/d UBIN(16)    r     1 QI_16_BIT_BINARY_A(0:1)
     0-0-0/d STRC(32)    r     1 QI_31_DIGIT_ST_PACKED
     0-0-0/d UBIN(16)    r     1 QI_31_DIGIT_ST_PACKED_A(0:1)

  ****  BASED and DCB variables  ****

  ****  Scalars and arrays  ****
HexLoc.c.b A Datatyp(siz) R M Lvl/name                 HexLoc.c.b A Datatyp(siz) R M Lvl/name

     0-0-0/w STRC(48)    r     1 QI$DAD                     0-0-0/w STRC(112)   r     1 QI$OP_INSPECT
     0-0-0/c UBIN(8)     r     1 QI$UBYTE_A(0:0)
     0-0-0/c ASTR(8)     r     1 QI$VARIABLE_IDENTIFIER
     0-0-0/c ASTR(0)     r     1 QI$VARIABLE_STRING_SOURCE
PL6.E3A0      #001=QBI$INSPECT File=QBI$INSPECT.:E05TSI                          WED 07/30/97 04:50 Page:59
     0-0-0/c ASTR(0)     r     1 QI$VARIABLE_STRING_TARGET


   Procedure QBI$INSPECT requires 1078 words for executable code.
   Procedure QBI$INSPECT requires 96 words of local(AUTO) storage.

    No errors detected in file QBI$INSPECT.:E05TSI    .
PL6.E3A0      #001=QBI$INSPECT File=QBI$INSPECT.:E05TSI                          WED 07/30/97 04:50 Page:60
          *** CROSS REFERENCE LISTING ***
**     DENOTES     IDENTIFIER DEFINITION
<<                 IDENTIFIER'S VALUE SET
>>                 IDENTIFIER'S VALUE USED
<>                 IDENTIFIER SET AND/OR USED
--                 IDENTIFIER REFERENCED
PL6.E3A0      #001=QBI$INSPECT File=QBI$INSPECT.:E05TSI                          WED 07/30/97 04:50 Page:61
          MINI XREF LISTING

EL_FINISHO
     18557**LABEL   18447--GOTO
ENDING_INDEX
     16922**DCL     18405<<ASSIGN  18410>>DOINDEX 18430<<ASSIGN  18433<<ASSIGN  18451<<ASSIGN  18454<<ASSIGN
     18465<<ASSIGN  18468<<ASSIGN  18492>>DOINDEX
INITIAL_STUFF
     18400**LABEL   18435--EXIT
INSTR$
     16923**DCL     18267<<ASSIGN  18268>>ASSIGN  18355>>IF      18358>>ASSIGN  18378>>IF      18381>>ASSIGN
     18397>>IF      18401>>ASSIGN  18423>>IF      18428>>IF      18444>>IF      18449>>IF      18463>>IF
     18473>>IF      18496>>IF      18508>>IF      18516>>IF      18542>>IF      18572>>IF
IT_WAS_OVERPUNCHED
     16924**DCL     18275<<ASSIGN  18307<<ASSIGN  18557>>IF
IT_WAS_POSITIVE
     16925**DCL     18315<<ASSIGN  18319<<ASSIGN  18328<<ASSIGN  18334<<ASSIGN  18562>>IF
ORIGINAL_TARGET_LENGTH
     16926**DCL     18348<<ASSIGN  18451>>ASSIGN  18454>>ASSIGN  18560>>ASSIGN  18567>>ASSIGN
OVERPUNCHED_CHAR
     16927**DCL     18308<<ASSIGN  18311>>DOCASE  18314<<ASSIGN  18318<<ASSIGN  18322>>IF      18322>>IF
     18326<<ASSIGN  18326>>ASSIGN  18332<<ASSIGN  18332>>ASSIGN  18339>>ASSIGN  18560<<ASSIGN  18564<<ASSIGN
     18564>>ASSIGN  18566<<ASSIGN  18566>>ASSIGN  18567>>ASSIGN
QCC$CBD
     16917**DCL-ENT 18592--CALL    18613--CALL    18632--CALL    18643--CALL
QCC$CDB
     16918**DCL-ENT 18668--CALL
QCC$DAD
     16919**DCL-ENT 18624--CALL    18658--CALL
QCS$SETUP_SOURCE
     16914**DCL-ENT 18359--CALL    18382--CALL    18402--CALL
QCS$SETUP_TARGET
     16915**DCL-ENT 18272--CALL
QGB_PARAM.DVE.DVBYTE.VFC
PL6.E3A0      #001=QBI$INSPECT File=QBI$INSPECT.:E05TSI                          WED 07/30/97 04:50 Page:62
     11397**DCL     11398--REDEF
QGB_PARAM.DVE.EOMCHAR
     11409**DCL     11410--REDEF
QGB_PARAM.MSG$
     11391**DCL     11392--REDEF
QGB_PARAM.UHDR$
     11416**DCL     11417--REDEF
QI$ACTIVATION_STATUS
      9155**DCL      9161--REDEF
QI$CIP
      7996**DCL      8066--REDEF
QI$CIP.CA
      8001**DCL      8005--REDEF    8008--REDEF    8011--REDEF
QI$COBOL_DAD.PSEUDO_CIP
      8240**DCL      8265--REDEF
QI$COBOL_DAD.PSEUDO_CIP.ALPHANUMERIC
      8242**DCL      8247--REDEF
QI$COBOL_DAD.PSEUDO_CIP.NUMERIC.CB
      8248**DCL      8251--REDEF    8254--REDEF
QI$COBOL_DAD.VARIABLE_LENGTH_ITEMS
      8276**DCL      8292--REDEF    8300--REDEF    8308--REDEF
QI$COBOL_DAD.VARIABLE_LENGTH_ITEMS.LEVEL_MULTIPLIERS
      8277**DCL      8287--REDEF    8290--REDEF
QI$COBOL_DAD.WORD0
      8204**DCL      8205--REDEF    8219--REDEF
QI$COBOL_DAD_P_BITS.P
      8344**DCL      8350--REDEF
QI$CONDITION_CONTROL_BLOCK.LIST_A@P
      7830**DCL      7831--REDEF
QI$CONDITION_CONTROL_BLOCK.WORD0_FLAGS
      7826**DCL      7829--REDEF
QI$CONDITION_LEGAL_BLOCK.ARRAY@P
      7863**DCL      7864--REDEF    7865--REDEF
QI$DAD.PSEUDO_CIP
      8143**DCL      8168--REDEF
QI$DAD.PSEUDO_CIP.ALPHANUMERIC
PL6.E3A0      #001=QBI$INSPECT File=QBI$INSPECT.:E05TSI                          WED 07/30/97 04:50 Page:63
      8145**DCL      8150--REDEF
QI$DAD.PSEUDO_CIP.NUMERIC.CB
      8151**DCL      8154--REDEF    8157--REDEF
QI$DAD.PSEUDO_CIP.NUMERIC.DEC
      8162**DCL     18597<<ASSIGN
QI$DAD.PSEUDO_CIP_A
      8168**DCL     18596<<ASSIGN
QI$DAD.WORD0
      8112**DCL      8113--REDEF   18595<<ASSIGN
QI$ERROR_MESSAGE_LINE
     11504**DCL     11506--REDEF
QI$ERROR_STATUS
     11501**DCL     11503--REDEF
QI$FIELD_DAD.ELEMENTARY_ITEM.P
      8558**DCL      8565--REDEF
QI$FIELD_DAD.ONE_DIMENSIONAL_ITEM.P
      8578**DCL      8585--REDEF
QI$FIELD_DAD.PSEUDO_CIP
      8485**DCL      8510--REDEF
QI$FIELD_DAD.PSEUDO_CIP.ALPHANUMERIC
      8487**DCL      8492--REDEF
QI$FIELD_DAD.PSEUDO_CIP.NUMERIC.CB
      8493**DCL      8496--REDEF    8499--REDEF
QI$FIELD_DAD.TWO_DIMENSIONAL_ITEM.P
      8598**DCL      8605--REDEF
QI$FIELD_DAD.VARIABLE_LENGTH_ITEMS
      8541**DCL      8557--REDEF    8575--REDEF    8593--REDEF
QI$FIELD_DAD.VARIABLE_LENGTH_ITEMS.LEVEL_MULTIPLIERS
      8542**DCL      8552--REDEF    8555--REDEF
QI$FIELD_DAD.WORD0
      8437**DCL      8438--REDEF
QI$FIELD_DAD.WORD0_FLAGS.IO_FLAGS
      8441**DCL      8446--REDEF
QI$FIELD_DAD_P.P
      8639**DCL      8646--REDEF
QI$FIELD_STATUS.INDICATORS
PL6.E3A0      #001=QBI$INSPECT File=QBI$INSPECT.:E05TSI                          WED 07/30/97 04:50 Page:64
      9305**DCL      9337--REDEF
QI$FIELD_STATUS.INDICATORS.ENABLED_FLAGS
      9309**DCL      9314--REDEF
QI$FIELD_STATUS.INDICATORS.OPEN_FLAGS
      9321**DCL      9328--REDEF
QI$FIELD_STATUS.INDICATORS.STATE_FLAGS
      9315**DCL      9320--REDEF
QI$FILE.WORD0
      8761**DCL      8762--REDEF
QI$FILE_STATUS.INDICATORS
      9598**DCL      9630--REDEF
QI$FILE_STATUS.INDICATORS.ENABLED_FLAGS
      9602**DCL      9607--REDEF
QI$FILE_STATUS.INDICATORS.OPEN_FLAGS
      9614**DCL      9621--REDEF
QI$FILE_STATUS.INDICATORS.STATE_FLAGS
      9608**DCL      9613--REDEF
QI$FORM_FILE.USE_PROCEDURE
      8861**DCL      8868--REDEF
QI$FORM_FILE.WORD0
      8815**DCL      8816--REDEF
QI$FORM_STATUS.INDICATORS
      9719**DCL      9751--REDEF
QI$FORM_STATUS.INDICATORS.ENABLED_FLAGS
      9723**DCL      9728--REDEF
QI$FORM_STATUS.INDICATORS.OPEN_FLAGS
      9735**DCL      9742--REDEF
QI$FORM_STATUS.INDICATORS.STATE_FLAGS
      9729**DCL      9734--REDEF
QI$FRAME.WORD0
      8976**DCL      8977--REDEF
QI$FRAME_STATUS.INDICATORS
      9948**DCL      9980--REDEF
QI$FRAME_STATUS.INDICATORS.ENABLED_FLAGS
      9952**DCL      9957--REDEF
QI$FRAME_STATUS.INDICATORS.OPEN_FLAGS
PL6.E3A0      #001=QBI$INSPECT File=QBI$INSPECT.:E05TSI                          WED 07/30/97 04:50 Page:65
      9964**DCL      9971--REDEF
QI$FRAME_STATUS.INDICATORS.STATE_FLAGS
      9958**DCL      9963--REDEF
QI$GZ_FIELD.DESCRIPTION.IO_FLAGS
     16830**DCL     16835--REDEF
QI$IDENTIFIER
     11507**DCL     11509--REDEF
QI$INDICATORS
      9219**DCL      9249--REDEF
QI$INDICATORS.ENABLED_FLAGS
      9225**DCL      9230--REDEF
QI$INDICATORS.OPEN_FLAGS
      9237**DCL      9244--REDEF
QI$INDICATORS.STATE_FLAGS
      9231**DCL      9236--REDEF
QI$MAJOR_NODE.WORD0
      8675**DCL      8676--REDEF
QI$MAJOR_STATUS.INDICATORS
      9398**DCL      9430--REDEF
QI$MAJOR_STATUS.INDICATORS.ENABLED_FLAGS
      9402**DCL      9407--REDEF
QI$MAJOR_STATUS.INDICATORS.OPEN_FLAGS
      9414**DCL      9421--REDEF
QI$MAJOR_STATUS.INDICATORS.STATE_FLAGS
      9408**DCL      9413--REDEF
QI$MESSAGE_TYPE
     11498**DCL     11500--REDEF
QI$MINOR_NODE.WORD0
      8718**DCL      8719--REDEF
QI$MINOR_STATUS.INDICATORS
      9491**DCL      9523--REDEF
QI$MINOR_STATUS.INDICATORS.ENABLED_FLAGS
      9495**DCL      9500--REDEF
QI$MINOR_STATUS.INDICATORS.OPEN_FLAGS
      9507**DCL      9514--REDEF
QI$MINOR_STATUS.INDICATORS.STATE_FLAGS
PL6.E3A0      #001=QBI$INSPECT File=QBI$INSPECT.:E05TSI                          WED 07/30/97 04:50 Page:66
      9501**DCL      9506--REDEF
QI$OP_ACCEPT.DATANAME@P
      5906**DCL      5907--REDEF
QI$OP_CALL.EPTR$
      6078**DCL      6079--REDEF
QI$OP_CLEAR.IO_FLAGS
      6111**DCL      6114--REDEF
QI$OP_DISPLAY.FIELD_A@P
      6378**DCL      6379--REDEF
QI$OP_ENABLE.IO_FLAGS
      6465**DCL      6468--REDEF
QI$OP_IFCLS.ATTRIBUTE.TYPE
      6558**DCL      6563--REDEF
QI$OP_INSPECT.ATTRIBUTE.BEFORE_AFTER
      6799**DCL     18423>>IF      18444>>IF
QI$OP_INSPECT.ATTRIBUTE.IS_REPLACING
      6798**DCL     18428>>IF      18449>>IF      18463>>IF      18473>>IF      18516>>IF      18572>>IF
QI$OP_INSPECT.ATTRIBUTE.WHICH_CHARS
      6800**DCL     18496>>IF      18508>>IF      18542>>IF
QI$OP_INSPECT.NEXT_CODE@P
      6801**DCL     18268--ASSIGN
QI$OP_INSPECT.TALLYING_FOR_ITEM@P
      6792**DCL      6793--REDEF   18378>>IF      18381--ASSIGN
QI$OP_INSPECT.TALLYING_INITIAL_ITEM@P
      6794**DCL      6795--REDEF   18397>>IF      18401--ASSIGN
QI$OP_INSPECT.TALLYING_ITEM@P
      6790**DCL      6791--REDEF   18355>>IF      18358--ASSIGN
QI$OP_OPEN.IO_FLAGS
      7352**DCL      7355--REDEF
QI$OP_PERFM.BINARY_ITERATION_COUNT@P
      7390**DCL      7391--REDEF
QI$PSEUDO_CIP
      7891**DCL      7915--REDEF
QI$PSEUDO_CIP.ALPHANUMERIC
      7895**DCL      7900--REDEF
QI$PSEUDO_CIP.NUMERIC.CB
PL6.E3A0      #001=QBI$INSPECT File=QBI$INSPECT.:E05TSI                          WED 07/30/97 04:50 Page:67
      7901**DCL      7904--REDEF    7907--REDEF
QI$TERMINAL_ATTRIBUTES
      9112**DCL      9125--REDEF
QI$TRAN_FILE.WORD0
      8897**DCL      8898--REDEF
QI$TRAN_STATUS.INDICATORS
      9832**DCL      9864--REDEF
QI$TRAN_STATUS.INDICATORS.ENABLED_FLAGS
      9836**DCL      9841--REDEF
QI$TRAN_STATUS.INDICATORS.OPEN_FLAGS
      9848**DCL      9855--REDEF
QI$TRAN_STATUS.INDICATORS.STATE_FLAGS
      9842**DCL      9847--REDEF
QI$UBYTE_A
     11492**DCL     18308>>ASSIGN  18339<<ASSIGN  18560>>ASSIGN  18567<<ASSIGN
QI$VARIABLE_IDENTIFIER.LENGTH
     11511**DCL     11512--IMP-SIZ
QI$VARIABLE_STRING_SOURCE.TEXT
     11518**DCL     18419>>IF      18503>>IF      18527>>ASSIGN
QI$VARIABLE_STRING_TARGET.TEXT
     11520**DCL     18419>>IF      18503>>IF      18527<<ASSIGN
QI@OP_ID_2_OR_5
     16954**DCL     18360<<ASSIGN  18632<>CALL    18658<>CALL
QI@OP_ID_2_OR_5.CIP
     16958**DCL     17409--REDEF
QI@OP_ID_2_OR_5.CIP.AUX
     17324**DCL     17395--REDEF
QI@OP_ID_2_OR_5.CIP.AUX.CA
     17327**DCL     17331--REDEF   17334--REDEF   17337--REDEF
QI@OP_ID_2_OR_5.CIP.S
     17028**DCL     17099--REDEF
QI@OP_ID_2_OR_5.CIP.S.CA
     17031**DCL     17035--REDEF   17038--REDEF   17041--REDEF
QI@OP_ID_2_OR_5.CIP.S.CA.OFFSET
     17032**DCL     18477>>ASSIGN  18530>>ASSIGN
QI@OP_ID_2_OR_5.CIP.S_A
PL6.E3A0      #001=QBI$INSPECT File=QBI$INSPECT.:E05TSI                          WED 07/30/97 04:50 Page:68
     17099**DCL     18620>>ASSIGN  18648>>ASSIGN  18655<<ASSIGN
QI@OP_ID_2_OR_5.CIP.T
     17176**DCL     17247--REDEF
QI@OP_ID_2_OR_5.CIP.T.CA
     17179**DCL     17183--REDEF   17186--REDEF   17189--REDEF
QI@OP_ID_2_OR_5.CIP.T_A
     17247**DCL     18629<<ASSIGN  18664>>ASSIGN
QI@OP_ID_2_OR_5.DATA
     17416**DCL     17420--REDEF
QI@OP_ID_2_OR_5.DATA.S$
     17417**DCL     18369<<ASSIGN  18477>>ASSIGN  18530>>ASSIGN  18587>>ASSIGN  18621>>ASSIGN  18649>>ASSIGN
     18656<<ASSIGN
QI@OP_ID_2_OR_5.DATA.T$
     17418**DCL     18630<<ASSIGN  18665>>ASSIGN
QI@OP_ID_2_OR_5.DEC.S
     17479**DCL     18622>>ASSIGN
QI@OP_ID_2_OR_5.FILL_CHAR
     17540**DCL     17543--REDEF
QI@OP_ID_2_OR_5.INX
     17473**DCL     17477--REDEF   17478--REDEF   17482--REDEF
QI@OP_ID_2_OR_5.INX.S
     17474**DCL     18477>>ASSIGN  18530>>ASSIGN
QI@OP_ID_2_OR_5.LEN
     17456**DCL     17460--REDEF   17461--REDEF   17465--REDEF   17466--REDEF   17470--REDEF
QI@OP_ID_2_OR_5.LEN.S
     17457**DCL     18370<<ASSIGN  18430>>ASSIGN  18451>>ASSIGN  18465>>ASSIGN  18476>>ASSIGN
QI@OP_ID_2_OR_5.PICTURE_STRING
     17526**DCL     17529--REDEF   17530--REDEF   17533--REDEF   17534--REDEF   17537--REDEF
QI@OP_ID_2_OR_5.ROUND
     17559**DCL     17560--REDEF   17561--REDEF
QI@OP_ID_2_OR_5.SRCH_VRFY_ELEMS
     17495**DCL     17498--REDEF
QI@OP_ID_3_OR_6
     17591**DCL     18383<<ASSIGN
QI@OP_ID_3_OR_6.CIP
     17595**DCL     18046--REDEF
PL6.E3A0      #001=QBI$INSPECT File=QBI$INSPECT.:E05TSI                          WED 07/30/97 04:50 Page:69
QI@OP_ID_3_OR_6.CIP.AUX
     17961**DCL     18032--REDEF
QI@OP_ID_3_OR_6.CIP.AUX.CA
     17964**DCL     17968--REDEF   17971--REDEF   17974--REDEF
QI@OP_ID_3_OR_6.CIP.S
     17665**DCL     17736--REDEF
QI@OP_ID_3_OR_6.CIP.S.CA
     17668**DCL     17672--REDEF   17675--REDEF   17678--REDEF
QI@OP_ID_3_OR_6.CIP.S.CA.OFFSET
     17669**DCL     18484>>ASSIGN  18520>>ASSIGN
QI@OP_ID_3_OR_6.CIP.T
     17813**DCL     17884--REDEF
QI@OP_ID_3_OR_6.CIP.T.CA
     17816**DCL     17820--REDEF   17823--REDEF   17826--REDEF
QI@OP_ID_3_OR_6.DATA
     18053**DCL     18057--REDEF
QI@OP_ID_3_OR_6.DATA.S$
     18054**DCL     18390<<ASSIGN  18484>>ASSIGN  18520>>ASSIGN
QI@OP_ID_3_OR_6.FILL_CHAR
     18177**DCL     18180--REDEF
QI@OP_ID_3_OR_6.INX
     18110**DCL     18114--REDEF   18115--REDEF   18119--REDEF
QI@OP_ID_3_OR_6.INX.S
     18111**DCL     18484>>ASSIGN  18520>>ASSIGN
QI@OP_ID_3_OR_6.LEN
     18093**DCL     18097--REDEF   18098--REDEF   18102--REDEF   18103--REDEF   18107--REDEF
QI@OP_ID_3_OR_6.LEN.S
     18094**DCL     18391<<ASSIGN  18433>>ASSIGN  18454>>ASSIGN  18468>>ASSIGN  18483>>ASSIGN
QI@OP_ID_3_OR_6.PICTURE_STRING
     18163**DCL     18166--REDEF   18167--REDEF   18170--REDEF   18171--REDEF   18174--REDEF
QI@OP_ID_3_OR_6.ROUND
     18196**DCL     18197--REDEF   18198--REDEF
QI@OP_ID_3_OR_6.SRCH_VRFY_ELEMS
     18132**DCL     18135--REDEF
QI@OTTER_SPACE
     18225**DCL     18227--REDEF   18228--REDEF   18608--ASSIGN  18630--ASSIGN
PL6.E3A0      #001=QBI$INSPECT File=QBI$INSPECT.:E05TSI                          WED 07/30/97 04:50 Page:70
QI@OTTER_SPACE_2
     18253**DCL     18255--REDEF   18256--REDEF   18638--ASSIGN
QI_1.BASE
     10040**DCL     10047--REDEF
QI_1.CURRENT.FILE$
     10931**DCL     10933--REDEF   10935--REDEF
QI_1.CURRENT.FILE_STATUS$
     10937**DCL     10939--REDEF   10941--REDEF
QI_1.DAD
     10735**DCL     10740--REDEF
QI_1.DAD.S$
     10737**DCL     18362>>ASSIGN
QI_1.FILE_HEAD
     10918**DCL     10925--REDEF
QI_1.INSTR$
     10048**DCL     18267>>ASSIGN  18268<<ASSIGN
QI_1.IS_ALL_LIT
     10741**DCL     10746--REDEF
QI_1.IS_FORM_VARIABLE
     10747**DCL     10752--REDEF
QI_1.IS_TEMP
     10753**DCL     10758--REDEF
QI_1.IS_TEMP.S
     10755**DCL     18361>>ASSIGN
QI_1.MESSAGE_LINE_DAD.PSEUDO_CIP
     10851**DCL     10876--REDEF
QI_1.MESSAGE_LINE_DAD.PSEUDO_CIP.ALPHANUMERIC
     10853**DCL     10858--REDEF
QI_1.MESSAGE_LINE_DAD.PSEUDO_CIP.NUMERIC.CB
     10859**DCL     10862--REDEF   10865--REDEF
QI_1.MESSAGE_LINE_DAD.WORD0
     10820**DCL     10821--REDEF
QI_1.OFFSET
     10759**DCL     10764--REDEF
QI_1.OFFSET.S
     10761**DCL     18412>>ASSIGN
PL6.E3A0      #001=QBI$INSPECT File=QBI$INSPECT.:E05TSI                          WED 07/30/97 04:50 Page:71
QI_1.OFFSET.T
     10762**DCL     18308>>ASSIGN  18339>>ASSIGN  18415>>ASSIGN  18500>>ASSIGN  18523>>ASSIGN  18560>>ASSIGN
     18567>>ASSIGN
QI_1.OP
     10118**DCL     18360>>ASSIGN  18383>>ASSIGN  18592<>CALL    18613<>CALL    18624<>CALL    18643<>CALL
     18668<>CALL
QI_1.OP.CIP
     10120**DCL     10571--REDEF
QI_1.OP.CIP.AUX
     10486**DCL     10557--REDEF
QI_1.OP.CIP.AUX.CD
     10531**DCL     10534--REDEF   10538--REDEF   10541--REDEF
QI_1.OP.CIP.S
     10190**DCL     10261--REDEF
QI_1.OP.CIP.S.CD
     10235**DCL     10238--REDEF   10242--REDEF   10245--REDEF
QI_1.OP.CIP.S_A
     10261**DCL     18583<<ASSIGN  18605<<ASSIGN  18617<<ASSIGN  18635<<ASSIGN  18664<<ASSIGN
QI_1.OP.CIP.T
     10338**DCL     10409--REDEF
QI_1.OP.CIP.T.AS
     10403**DCL     18288<<ASSIGN
QI_1.OP.CIP.T.CD
     10383**DCL     10386--REDEF   10390--REDEF   10393--REDEF
QI_1.OP.CIP.T.CD.SIGN
     10385**DCL     18286<<ASSIGN  18291>>DOCASE
QI_1.OP.CIP.T.LEN
     10397**DCL     18287<<ASSIGN  18586<<ASSIGN
QI_1.OP.CIP.T_A
     10409**DCL     18585<<ASSIGN  18596>>ASSIGN  18607<<ASSIGN  18617>>ASSIGN  18620<<ASSIGN  18637<<ASSIGN
     18648<<ASSIGN  18655>>ASSIGN
QI_1.OP.DATA
     10578**DCL     10582--REDEF
QI_1.OP.DATA.S$
     10579**DCL     18412>>ASSIGN  18584<<ASSIGN  18606<<ASSIGN  18618<<ASSIGN  18636<<ASSIGN  18665<<ASSIGN
QI_1.OP.DATA.T$
PL6.E3A0      #001=QBI$INSPECT File=QBI$INSPECT.:E05TSI                          WED 07/30/97 04:50 Page:72
     10580**DCL     18308>>ASSIGN  18339>>ASSIGN  18415>>ASSIGN  18500>>ASSIGN  18523>>ASSIGN  18560>>ASSIGN
     18567>>ASSIGN  18587<<ASSIGN  18608<<ASSIGN  18618>>ASSIGN  18621<<ASSIGN  18638<<ASSIGN  18649<<ASSIGN
     18656>>ASSIGN
QI_1.OP.DEC.S
     10641**DCL     18619<<ASSIGN  18666<<ASSIGN
QI_1.OP.DEC.T
     10642**DCL     18588<<ASSIGN  18609<<ASSIGN  18622<<ASSIGN  18639<<ASSIGN
QI_1.OP.FILL_CHAR
     10702**DCL     10705--REDEF
QI_1.OP.INX
     10635**DCL     10639--REDEF   10640--REDEF   10644--REDEF
QI_1.OP.INX.S
     10636**DCL     18412>>ASSIGN
QI_1.OP.INX.T
     10637**DCL     18289<<ASSIGN  18404>>ASSIGN  18405>>ASSIGN  18410<<DOINDEX 18415>>ASSIGN  18426>>ASSIGN
     18430>>ASSIGN  18433>>ASSIGN  18462>>ASSIGN  18465>>ASSIGN  18468>>ASSIGN  18492<<DOINDEX 18500>>ASSIGN
     18523>>ASSIGN  18547<<ASSIGN  18547>>ASSIGN
QI_1.OP.LEN
     10618**DCL     10622--REDEF   10623--REDEF   10627--REDEF   10628--REDEF   10632--REDEF
QI_1.OP.LEN.AUX
     10621**DCL     11522--IMP-SIZ
QI_1.OP.LEN.S
     10619**DCL     11518--IMP-SIZ 18405>>ASSIGN  18407>>ASSIGN  18419>>IF      18476<<ASSIGN  18483<<ASSIGN
     18489>>ASSIGN  18503>>IF      18527>>ASSIGN
QI_1.OP.LEN.T
     10620**DCL     11520--IMP-SIZ 18308>>ASSIGN  18339>>ASSIGN  18348>>ASSIGN  18405>>ASSIGN  18407<<ASSIGN
     18419>>IF      18426>>ASSIGN  18430>>ASSIGN  18433>>ASSIGN  18465>>ASSIGN  18468>>ASSIGN  18489<<ASSIGN
     18503>>IF      18527>>ASSIGN  18547>>ASSIGN
QI_1.OP.PICTURE_STRING
     10688**DCL     10691--REDEF   10692--REDEF   10695--REDEF   10696--REDEF   10699--REDEF
QI_1.OP.ROUND
     10721**DCL     10722--REDEF   10723--REDEF
QI_1.OP.SIZE_ERROR
     10705**DCL     18590<<ASSIGN  18611<<ASSIGN  18641<<ASSIGN
QI_1.OP.SRCH_VRFY_ELEMS
     10657**DCL     10660--REDEF
PL6.E3A0      #001=QBI$INSPECT File=QBI$INSPECT.:E05TSI                          WED 07/30/97 04:50 Page:73
QI_1.OPENED_COUNT
     10926**DCL     10929--REDEF
QI_1.OTTER_SPACE
     10765**DCL     10770--REDEF
QI_1.PICTURE_STRING
     10771**DCL     10776--REDEF
QI_1.SOURCE$
     10091**DCL     18358<<ASSIGN  18381<<ASSIGN  18401<<ASSIGN
QI_1.SPECIAL_NAMES
     10954**DCL     10963--REDEF
QI_1.TYPE
     10777**DCL     10782--REDEF
QI_1.TYPE.T
     10780**DCL     18281>>IF
QI_16_BIT_BINARY
     15967**DCL     16037--REDEF
QI_16_BIT_BINARY.CB
     15986**DCL     15989--REDEF   15993--REDEF   15996--REDEF
QI_16_BIT_BINARY_A
     16037**DCL     18583>>ASSIGN  18605>>ASSIGN  18635>>ASSIGN
QI_31_DIGIT_SLS_DISPLAY
     15800**DCL     15870--REDEF
QI_31_DIGIT_SLS_DISPLAY.CD
     15847**DCL     15850--REDEF   15854--REDEF   15857--REDEF
QI_31_DIGIT_ST_PACKED
     16302**DCL     16372--REDEF
QI_31_DIGIT_ST_PACKED.CP
     16335**DCL     16338--REDEF   16342--REDEF   16345--REDEF
QI_31_DIGIT_ST_PACKED_A
     16372**DCL     18585>>ASSIGN  18607>>ASSIGN  18629>>ASSIGN  18637>>ASSIGN
QI_32_BIT_BINARY
     16134**DCL     16204--REDEF
QI_32_BIT_BINARY.CB
     16153**DCL     16156--REDEF   16160--REDEF   16163--REDEF
QI_4_CHAR_ALPHANUMERIC
     15632**DCL     15702--REDEF
PL6.E3A0      #001=QBI$INSPECT File=QBI$INSPECT.:E05TSI                          WED 07/30/97 04:50 Page:74
QI_4_CHAR_ALPHANUMERIC.CA
     15637**DCL     15641--REDEF   15644--REDEF   15647--REDEF
QI_ACCUMULATOR_DAD.CIP
     16645**DCL     16716--REDEF
QI_ACCUMULATOR_DAD.CIP.CP
     16676**DCL     16679--REDEF   16683--REDEF   16686--REDEF
QI_ALR.CIP
     11597**DCL     12048--REDEF
QI_ALR.CIP.AUX
     11963**DCL     12034--REDEF
QI_ALR.CIP.AUX.CA
     11966**DCL     11970--REDEF   11973--REDEF   11976--REDEF
QI_ALR.CIP.S
     11667**DCL     11738--REDEF
QI_ALR.CIP.S.CA
     11670**DCL     11674--REDEF   11677--REDEF   11680--REDEF
QI_ALR.CIP.T
     11815**DCL     11886--REDEF
QI_ALR.CIP.T.CA
     11818**DCL     11822--REDEF   11825--REDEF   11828--REDEF
QI_ALR.DATA
     12055**DCL     12059--REDEF
QI_ALR.FILL_CHAR
     12179**DCL     12182--REDEF
QI_ALR.INX
     12112**DCL     12116--REDEF   12117--REDEF   12121--REDEF
QI_ALR.LEN
     12095**DCL     12099--REDEF   12100--REDEF   12104--REDEF   12105--REDEF   12109--REDEF
QI_ALR.PICTURE_STRING
     12165**DCL     12168--REDEF   12169--REDEF   12172--REDEF   12173--REDEF   12176--REDEF
QI_ALR.ROUND
     12198**DCL     12199--REDEF   12200--REDEF
QI_ALR.SRCH_VRFY_ELEMS
     12134**DCL     12137--REDEF
QI_MAT.CIP
     14936**DCL     15387--REDEF
PL6.E3A0      #001=QBI$INSPECT File=QBI$INSPECT.:E05TSI                          WED 07/30/97 04:50 Page:75
QI_MAT.CIP.AUX
     15302**DCL     15373--REDEF
QI_MAT.CIP.AUX.CA
     15305**DCL     15309--REDEF   15312--REDEF   15315--REDEF
QI_MAT.CIP.S
     15006**DCL     15077--REDEF
QI_MAT.CIP.S.CA
     15009**DCL     15013--REDEF   15016--REDEF   15019--REDEF
QI_MAT.CIP.T
     15154**DCL     15225--REDEF
QI_MAT.CIP.T.CA
     15157**DCL     15161--REDEF   15164--REDEF   15167--REDEF
QI_MAT.DATA
     15394**DCL     15398--REDEF
QI_MAT.DEC
     15462**DCL     15466--REDEF   15467--REDEF   15471--REDEF
QI_MAT.FILL_CHAR
     15518**DCL     15521--REDEF
QI_MAT.LEN
     15434**DCL     15438--REDEF   15439--REDEF   15443--REDEF   15444--REDEF   15448--REDEF
QI_MAT.PICTURE_STRING
     15504**DCL     15507--REDEF   15508--REDEF   15511--REDEF   15512--REDEF   15515--REDEF
QI_MAT.ROUND
     15537**DCL     15538--REDEF   15539--REDEF
QI_MAT.SRCH_VRFY_ELEMS
     15473**DCL     15476--REDEF
QI_PICTURE_STRING
     16470**DCL     16540--REDEF
QI_PICTURE_STRING.CA
     16475**DCL     16479--REDEF   16482--REDEF   16485--REDEF
QI_SRCH_VRFY.CIP
     14267**DCL     14718--REDEF
QI_SRCH_VRFY.CIP.AUX
     14633**DCL     14704--REDEF
QI_SRCH_VRFY.CIP.AUX.CA
     14636**DCL     14640--REDEF   14643--REDEF   14646--REDEF
PL6.E3A0      #001=QBI$INSPECT File=QBI$INSPECT.:E05TSI                          WED 07/30/97 04:50 Page:76
QI_SRCH_VRFY.CIP.S
     14337**DCL     14408--REDEF
QI_SRCH_VRFY.CIP.S.CA
     14340**DCL     14344--REDEF   14347--REDEF   14350--REDEF
QI_SRCH_VRFY.CIP.T
     14485**DCL     14556--REDEF
QI_SRCH_VRFY.CIP.T.CA
     14488**DCL     14492--REDEF   14495--REDEF   14498--REDEF
QI_SRCH_VRFY.DATA
     14725**DCL     14729--REDEF
QI_SRCH_VRFY.DEC
     14793**DCL     14797--REDEF   14798--REDEF   14802--REDEF
QI_SRCH_VRFY.FILL_CHAR
     14849**DCL     14852--REDEF
QI_SRCH_VRFY.ROUND
     14868**DCL     14869--REDEF   14870--REDEF
QI_SRCH_VRFY.SRCH_RESULT
     14809**DCL     14812--REDEF   14813--REDEF   14816--REDEF   14817--REDEF   14820--REDEF
QI_SRCH_VRFY.SRCH_VRFY_ARGS
     14733**DCL     14737--REDEF   14738--REDEF   14742--REDEF   14743--REDEF   14747--REDEF
QI_SRCH_VRFY.SRCH_VRFY_ELEMS
     14804**DCL     14807--REDEF
QI_TYPE_BINARY_TARGET.CIP
     13594**DCL     14045--REDEF
QI_TYPE_BINARY_TARGET.CIP.AUX
     13960**DCL     14031--REDEF
QI_TYPE_BINARY_TARGET.CIP.AUX.CA
     13963**DCL     13967--REDEF   13970--REDEF   13973--REDEF
QI_TYPE_BINARY_TARGET.CIP.S
     13664**DCL     13735--REDEF
QI_TYPE_BINARY_TARGET.CIP.S.CA
     13667**DCL     13671--REDEF   13674--REDEF   13677--REDEF
QI_TYPE_BINARY_TARGET.CIP.T
     13812**DCL     13883--REDEF
QI_TYPE_BINARY_TARGET.CIP.T.CB
     13829**DCL     13832--REDEF   13836--REDEF   13839--REDEF
PL6.E3A0      #001=QBI$INSPECT File=QBI$INSPECT.:E05TSI                          WED 07/30/97 04:50 Page:77
QI_TYPE_BINARY_TARGET.DATA
     14052**DCL     14056--REDEF
QI_TYPE_BINARY_TARGET.DEC
     14120**DCL     14124--REDEF   14125--REDEF   14129--REDEF
QI_TYPE_BINARY_TARGET.LEN
     14092**DCL     14096--REDEF   14097--REDEF   14101--REDEF   14102--REDEF   14106--REDEF
QI_TYPE_BINARY_TARGET.PICTURE_STRING
     14162**DCL     14165--REDEF   14166--REDEF   14169--REDEF   14170--REDEF   14173--REDEF
QI_TYPE_BINARY_TARGET.ROUND
     14195**DCL     14196--REDEF   14197--REDEF
QI_TYPE_BINARY_TARGET.SIZE_ERROR
     14181**DCL     14182--REDEF
QI_TYPE_BINARY_TARGET.SRCH_VRFY_ELEMS
     14131**DCL     14134--REDEF
QI_TYPE_DISPLAY_SOURCE.CIP
     12262**DCL     12713--REDEF
QI_TYPE_DISPLAY_SOURCE.CIP.AUX
     12628**DCL     12699--REDEF
QI_TYPE_DISPLAY_SOURCE.CIP.AUX.CA
     12631**DCL     12635--REDEF   12638--REDEF   12641--REDEF
QI_TYPE_DISPLAY_SOURCE.CIP.S
     12332**DCL     12403--REDEF
QI_TYPE_DISPLAY_SOURCE.CIP.S.CD
     12377**DCL     12380--REDEF   12384--REDEF   12387--REDEF
QI_TYPE_DISPLAY_SOURCE.CIP.T
     12480**DCL     12551--REDEF
QI_TYPE_DISPLAY_SOURCE.CIP.T.CA
     12483**DCL     12487--REDEF   12490--REDEF   12493--REDEF
QI_TYPE_DISPLAY_SOURCE.DATA
     12720**DCL     12724--REDEF
QI_TYPE_DISPLAY_SOURCE.DEC
     12788**DCL     12792--REDEF   12793--REDEF   12797--REDEF
QI_TYPE_DISPLAY_SOURCE.LEN
     12760**DCL     12764--REDEF   12765--REDEF   12769--REDEF   12770--REDEF   12774--REDEF
QI_TYPE_DISPLAY_SOURCE.PICTURE_STRING
     12830**DCL     12833--REDEF   12834--REDEF   12837--REDEF   12838--REDEF   12841--REDEF
PL6.E3A0      #001=QBI$INSPECT File=QBI$INSPECT.:E05TSI                          WED 07/30/97 04:50 Page:78
QI_TYPE_DISPLAY_SOURCE.ROUND
     12863**DCL     12864--REDEF   12865--REDEF
QI_TYPE_DISPLAY_SOURCE.SIZE_ERROR
     12849**DCL     12850--REDEF
QI_TYPE_DISPLAY_SOURCE.SRCH_VRFY_ELEMS
     12799**DCL     12802--REDEF
QI_TYPE_DISPLAY_TARGET.CIP
     12928**DCL     13379--REDEF
QI_TYPE_DISPLAY_TARGET.CIP.AUX
     13294**DCL     13365--REDEF
QI_TYPE_DISPLAY_TARGET.CIP.AUX.CA
     13297**DCL     13301--REDEF   13304--REDEF   13307--REDEF
QI_TYPE_DISPLAY_TARGET.CIP.S
     12998**DCL     13069--REDEF
QI_TYPE_DISPLAY_TARGET.CIP.S.CA
     13001**DCL     13005--REDEF   13008--REDEF   13011--REDEF
QI_TYPE_DISPLAY_TARGET.CIP.T
     13146**DCL     13217--REDEF
QI_TYPE_DISPLAY_TARGET.CIP.T.CD
     13191**DCL     13194--REDEF   13198--REDEF   13201--REDEF
QI_TYPE_DISPLAY_TARGET.DATA
     13386**DCL     13390--REDEF
QI_TYPE_DISPLAY_TARGET.DEC
     13454**DCL     13458--REDEF   13459--REDEF   13463--REDEF
QI_TYPE_DISPLAY_TARGET.LEN
     13426**DCL     13430--REDEF   13431--REDEF   13435--REDEF   13436--REDEF   13440--REDEF
QI_TYPE_DISPLAY_TARGET.PICTURE_STRING
     13496**DCL     13499--REDEF   13500--REDEF   13503--REDEF   13504--REDEF   13507--REDEF
QI_TYPE_DISPLAY_TARGET.ROUND
     13529**DCL     13530--REDEF   13531--REDEF
QI_TYPE_DISPLAY_TARGET.SIZE_ERROR
     13515**DCL     13516--REDEF
QI_TYPE_DISPLAY_TARGET.SRCH_VRFY_ELEMS
     13465**DCL     13468--REDEF
STARTING_INDEX
     16928**DCL     18404<<ASSIGN  18410>>DOINDEX 18426<<ASSIGN  18451>>ASSIGN  18454>>ASSIGN  18462<<ASSIGN
PL6.E3A0      #001=QBI$INSPECT File=QBI$INSPECT.:E05TSI                          WED 07/30/97 04:50 Page:79
     18492>>DOINDEX
TALLIED_ITEM_DAD$
     16930**DCL     18362<<ASSIGN  18595>>ASSIGN  18596>>ASSIGN  18597>>ASSIGN
TALLIED_ITEM_IS_A_TEMP
     16929**DCL     18361<<ASSIGN  18578>>IF
TALLIED_ITEM_TYPE
     16931**DCL     18601>>DOCASE
TALLY
     16932**DCL     18270<<ASSIGN  18538<<ASSIGN  18538>>ASSIGN  18584--ASSIGN  18606--ASSIGN  18636--ASSIGN
TALLY_OR_REPLACE_1_STRING
     18495**LABEL   18512--EXIT
TALLY_OR_REPLACE_N_STRINGS
     18492**LABEL   18510--EXIT    18545--EXIT
VARIABLE_SOURCE$
     16933**DCL     18412<<ASSIGN  18419>>IF      18477<<ASSIGN  18484<<ASSIGN  18503>>IF      18520<<ASSIGN
     18527>>ASSIGN  18530<<ASSIGN
VARIABLE_TARGET$
     16934**DCL     18415<<ASSIGN  18419>>IF      18500<<ASSIGN  18503>>IF      18523<<ASSIGN  18527>>ASSIGN
