VERSION E05

PL6.E3A0      #001=QBJ$JUMPS File=QBJ$JUMPS.:E05TSI                              WED 07/30/97 04:50 Page:1
        1        1        /*M* QBJ$JUMPS:  jump according to an internal indicator.  */
        2        2        /*T***********************************************************/
        3        3        /*T*                                                         */
        4        4        /*T* Copyright (c) Bull HN Information Systems Inc., 1997    */
        5        5        /*T*                                                         */
        6        6        /*T***********************************************************/
        7        7        /*X* DMC,PLM=4,IND=0,DCI=4,CSI=2,IAD=2,DTI=2,AND,ECI=0,DIN=2,STI=2 */
        8        8
        9        9        QBJ$JUMPS: PROC ALTRET;
       10       10
       11       11          %INCLUDE LCP_6;
       12      202
       13      203          %INCLUDE QG_MACRO_M;
       14      340          %INCLUDE QI_EQUATES_E;
       15      699        %INCLUDE QI_MACROS_M;
       16     5757        %QI$ALL;
       17    16870
       18    16871        %EJECT;
PL6.E3A0      #001=QBJ$JUMPS File=QBJ$JUMPS.:E05TSI                              WED 07/30/97 04:50 Page:2
       19    16872    1   QBJ$JAZ: ENTRY ALTRET;
       20    16873                                           /**/
       21    16874        /*D*       NAME: QBJ$JAZ
       22    16875                PURPOSE: FPL size error branch routine.
       23    16876              INTERFACE: None
       24    16877            DESCRIPTION: This routine either branches to, or around the
       25    16878                            instructions associated with the ON SIZE ERROR
       26    16879                            clause.  */
       27    16880                                           /**/
       28    16881                                           /**/
       29    16882                                           /*
       30    16883                                              Was there a SIZE_ERROR? If not,
       31    16884                                              jump around the conditional
       32    16885                                              size error code, else fall
       33    16886                                              through into it.
       34    16887                                           */
       35    16888                                           /**/
       36    16889           /*  Winton, you weasel!
       37    16890               It's not just ON SIZE ERROR:
       38    16891               it's also NO PROGRAM and INVALID.  */
       39    16892
       40    16893    1       IF QI_1.A_REG = 0
       41    16894    1       THEN
       42    16895    2         DO;
       43    16896                %PROC_ADDRESS ( THING@P = "QI_1.INSTR$ -> QI$OP_JAZ.EVERYTHINGS_PEACHY@P",
       44    16897                CHECK_FOR_INDIRECTION = NO,
       45    16898                RESULT$ = "QI_1.INSTR$" );
       46    16935
       47    16936    2           ALTRETURN;
       48    16937    2         END;
       49    16938    1       ELSE
       50    16939    1         QI_1.INSTR$ = ADDR ( QI_1.INSTR$ -> QI$OP_JAZ.NEXT_CODE@P );
       51    16940
       52    16941    1       RETURN;
       53    16942
       54    16943        %EJECT;
PL6.E3A0      #001=QBJ$JUMPS File=QBJ$JUMPS.:E05TSI                              WED 07/30/97 04:50 Page:3
       55    16944    1   QBJ$JND: ENTRY ALTRET;
       56    16945
       57    16946        /*D*       NAME: QBJ$JND
       58    16947                PURPOSE: FPL NO DATA branch routine.
       59    16948              INTERFACE: None
       60    16949            DESCRIPTION: This routine either branches to, or around the
       61    16950                            instructions associated with the NO DATA
       62    16951                            clause.  */
       63    16952
       64    16953    1       IF QI_1.NO_DATA = 0
       65    16954    1       THEN
       66    16955    2         DO;
       67    16956                %PROC_ADDRESS ( THING@P = "QI_1.INSTR$ -> QI$OP_JND.EVERYTHINGS_PEACHY@P",
       68    16957                CHECK_FOR_INDIRECTION = NO,
       69    16958                RESULT$ = "QI_1.INSTR$" );
       70    16995
       71    16996    2           ALTRETURN;
       72    16997    2         END;
       73    16998    1       ELSE
       74    16999    1         QI_1.INSTR$ = ADDR ( QI_1.INSTR$ -> QI$OP_JND.NEXT_CODE@P );
       75    17000
       76    17001    1       RETURN;
       77    17002
       78    17003    1   END QBJ$JUMPS;

PL6.E3A0      #001=QBJ$JUMPS File=QBJ$JUMPS.:E05TSI                              WED 07/30/97 04:50 Page:4
--  Include file information  --

   QI_MACROS_M.:E05TOU  is referenced.
   QI_EQUATES_E.:E05TOU  is referenced.
   QG_MACRO_M.:E05TOU  is referenced.
   LCP_6.:E05TOU  cannot be made into a system file and is referenced.
   G_LCP6_E.:E05TOU  was found in the system file and is referenced.
   GT_LCP6_M.:E05TOU  was found in the system file and is referenced.
   KI_CP6.:E05TOU  was found in the system file and is referenced.
   GF_LCP6_M.:E05TOU  was found in the system file and is referenced.
   GM_LCP6_M.:E05TOU  was found in the system file and is referenced.
   GU_LCP6_M.:E05TOU  was found in the system file and is referenced.
   GJ_LCP6_M.:E05TOU  was found in the system file and is referenced.
   GH_LCP6_M.:E05TOU  was found in the system file and is referenced.
      No diagnostics issued in procedure QBJ$JUMPS.

   Procedure QBJ$JUMPS requires 81 words for executable code.
   Procedure QBJ$JUMPS requires 4 words of local(AUTO) storage.

    No errors detected in file QBJ$JUMPS.:E05TSI    .

PL6.E3A0      #001=QBJ$JUMPS File=QBJ$JUMPS.:E05TSI                              WED 07/30/97 04:50 Page:5

 Object Unit name= QBJ$JUMPS                                  File name= QBJ$JUMPS.:E05TOU
 UTS= JUL 30 '97 04:50:49.72 WED                              Compiler= PL-6/E31         Sev=      00
 SharedLib= :SHARED_LCP6_SYSTEM                               Alt SharedLib=


    ****  Control sections  ****

 Sect   Type Bound  Init  Size HexSiz  Section name
    0   Proc  even  none    81     51  QBJ$JUMPS

    ****  Entry defs  ****

                              Check   Calling
                             calling  sequence
  Sect HexLoc Primary Altret sequence   type   Parms  Name
     0      0   yes    yes     yes      Std        0  QBJ$JUMPS
     0      7          yes     yes      Std        0  QBJ$JAZ
     0     2C          yes     yes      Std        0  QBJ$JND

  ****  Entry refs  ****

         Check        Calling
        calling       sequence
Altret sequence SRef   type   Args  Name
                       nStd      0 X6A_AUTO_0
                       nStd      0 X6A_AALT
                       nStd      0 X6A_ARET

  ****  Data refs  ****

  Flags:  r = read only, s = secondary
Flgs Name                             Flgs Name                             Flgs Name
     QI_1                                  QI_4_CHAR_ALPHANUMERIC                QI_31_DIGIT_SLS_DISPLAY
     QI_16_BIT_BINARY                      QI_32_BIT_BINARY                      QI_31_DIGIT_ST_PACKED
     QI_PICTURE_STRING                r    G$ROS$
PL6.E3A0      #001=QBJ$JUMPS File=QBJ$JUMPS.:E05TSI                              WED 07/30/97 04:50 Page:6


        1        1        /*M* QBJ$JUMPS:  jump according to an internal indicator.  */
        2        2        /*T***********************************************************/
        3        3        /*T*                                                         */
        4        4        /*T* Copyright (c) Bull HN Information Systems Inc., 1997    */
        5        5        /*T*                                                         */
        6        6        /*T***********************************************************/
        7        7        /*X* DMC,PLM=4,IND=0,DCI=4,CSI=2,IAD=2,DTI=2,AND,ECI=0,DIN=2,STI=2 */
        8        8
        9        9        QBJ$JUMPS: PROC ALTRET;

      9   0 000000  D380 0000 0000  xent QBJ$JUMPS       LNJ,B5   X6A_AUTO_0
          0 000003       0004 0000                       DC       4,0
          0 000005  0F81 0006                            B        s:16893,PREL

       10       10
       11       11          %INCLUDE LCP_6;
       12      202
       13      203          %INCLUDE QG_MACRO_M;
       14      340          %INCLUDE QI_EQUATES_E;
       15      699        %INCLUDE QI_MACROS_M;
       16     5757        %QI$ALL;
       17    16870
       18    16871        %EJECT;
PL6.E3A0      #001=QBJ$JUMPS File=QBJ$JUMPS.:E05TSI                              WED 07/30/97 04:50 Page:7
       19    16872    1   QBJ$JAZ: ENTRY ALTRET;

  16872   0 000007  D380 0000 0000  xent QBJ$JAZ         LNJ,B5   X6A_AUTO_0
          0 00000A       0004 0000                       DC       4,0

       20    16873                                           /**/
       21    16874        /*D*       NAME: QBJ$JAZ
       22    16875                PURPOSE: FPL size error branch routine.
       23    16876              INTERFACE: None
       24    16877            DESCRIPTION: This routine either branches to, or around the
       25    16878                            instructions associated with the ON SIZE ERROR
       26    16879                            clause.  */
       27    16880                                           /**/
       28    16881                                           /**/
       29    16882                                           /*
       30    16883                                              Was there a SIZE_ERROR? If not,
       31    16884                                              jump around the conditional
       32    16885                                              size error code, else fall
       33    16886                                              through into it.
       34    16887                                           */
       35    16888                                           /**/
       36    16889           /*  Winton, you weasel!
       37    16890               It's not just ON SIZE ERROR:
       38    16891               it's also NO PROGRAM and INVALID.  */
       39    16892
       40    16893    1       IF QI_1.A_REG = 0

  16893   0 00000C  E800 0000 0054  xsym                 LDR,R6   QI_1+84
          0 00000F  6981 0011                            BNEZ,R6  s:16939,PREL

       41    16894    1       THEN
       42    16895    2         DO;

       43    16896                %PROC_ADDRESS ( THING@P = "QI_1.INSTR$ -> QI$OP_JAZ.EVERYTHINGS_PEACHY@P",
       44    16897                CHECK_FOR_INDIRECTION = NO,
       45    16898                RESULT$ = "QI_1.INSTR$" );

PL6.E3A0      #001=QBJ$JUMPS File=QBJ$JUMPS.:E05TSI                              WED 07/30/97 04:50 Page:8
  16916   0 000011  EC80 0000 0006  xsym                 LDB,B6   QI_1+6
          0 000014  B846 0001                            LDR,R3   1,B6
          0 000016  F853                                 LDR,R7   R3
          0 000017  6C00                                 LDV,R6   0
          0 000018  8400 0000 0002  xsym                 AID      QI_1+2
          0 00001B  8D00 0000 0006  xsym                 SDI      QI_1+6

       46    16935
       47    16936    2           ALTRETURN;

  16936   0 00001E  C380 0000 0000  xent                 LNJ,B4   X6A_AALT

       48    16937    2         END;
       49    16938    1       ELSE
       50    16939    1         QI_1.INSTR$ = ADDR ( QI_1.INSTR$ -> QI$OP_JAZ.NEXT_CODE@P );

  16939   0 000021  EC80 0000 0006  xsym                 LDB,B6   QI_1+6
          0 000024  DBC6 0002                            LAB,B5   2,B6
          0 000026  DF80 0000 0006  xsym                 STB,B5   QI_1+6

       51    16940
       52    16941    1       RETURN;

  16941   0 000029  C380 0000 0000  xent                 LNJ,B4   X6A_ARET

       53    16942
       54    16943        %EJECT;
PL6.E3A0      #001=QBJ$JUMPS File=QBJ$JUMPS.:E05TSI                              WED 07/30/97 04:50 Page:9
       55    16944    1   QBJ$JND: ENTRY ALTRET;

  16944   0 00002C  D380 0000 0000  xent QBJ$JND         LNJ,B5   X6A_AUTO_0
          0 00002F       0004 0000                       DC       4,0

       56    16945
       57    16946        /*D*       NAME: QBJ$JND
       58    16947                PURPOSE: FPL NO DATA branch routine.
       59    16948              INTERFACE: None
       60    16949            DESCRIPTION: This routine either branches to, or around the
       61    16950                            instructions associated with the NO DATA
       62    16951                            clause.  */
       63    16952
       64    16953    1       IF QI_1.NO_DATA = 0

  16953   0 000031  E800 0000 0060  xsym                 LDR,R6   QI_1+96
          0 000034  6981 0011                            BNEZ,R6  s:16999,PREL

       65    16954    1       THEN
       66    16955    2         DO;

       67    16956                %PROC_ADDRESS ( THING@P = "QI_1.INSTR$ -> QI$OP_JND.EVERYTHINGS_PEACHY@P",
       68    16957                CHECK_FOR_INDIRECTION = NO,
       69    16958                RESULT$ = "QI_1.INSTR$" );

  16976   0 000036  EC80 0000 0006  xsym                 LDB,B6   QI_1+6
          0 000039  B846 0001                            LDR,R3   1,B6
          0 00003B  F853                                 LDR,R7   R3
          0 00003C  6C00                                 LDV,R6   0
          0 00003D  8400 0000 0002  xsym                 AID      QI_1+2
          0 000040  8D00 0000 0006  xsym                 SDI      QI_1+6

       70    16995
       71    16996    2           ALTRETURN;

  16996   0 000043  C380 0000 0000  xent                 LNJ,B4   X6A_AALT

PL6.E3A0      #001=QBJ$JUMPS File=QBJ$JUMPS.:E05TSI                              WED 07/30/97 04:50 Page:10
       72    16997    2         END;
       73    16998    1       ELSE
       74    16999    1         QI_1.INSTR$ = ADDR ( QI_1.INSTR$ -> QI$OP_JND.NEXT_CODE@P );

  16999   0 000046  EC80 0000 0006  xsym                 LDB,B6   QI_1+6
          0 000049  DBC6 0002                            LAB,B5   2,B6
          0 00004B  DF80 0000 0006  xsym                 STB,B5   QI_1+6

       75    17000
       76    17001    1       RETURN;

  17001   0 00004E  C380 0000 0000  xent                 LNJ,B4   X6A_ARET
       77    17002
       78    17003    1   END QBJ$JUMPS;

PL6.E3A0      #001=QBJ$JUMPS File=QBJ$JUMPS.:E05TSI                              WED 07/30/97 04:50 Page:11
--  Include file information  --

   QI_MACROS_M.:E05TOU  is referenced.
   QI_EQUATES_E.:E05TOU  is referenced.
   QG_MACRO_M.:E05TOU  is referenced.
   LCP_6.:E05TOU  cannot be made into a system file and is referenced.
   G_LCP6_E.:E05TOU  was found in the system file and is referenced.
   GT_LCP6_M.:E05TOU  was found in the system file and is referenced.
   KI_CP6.:E05TOU  was found in the system file and is referenced.
   GF_LCP6_M.:E05TOU  was found in the system file and is referenced.
   GM_LCP6_M.:E05TOU  was found in the system file and is referenced.
   GU_LCP6_M.:E05TOU  was found in the system file and is referenced.
   GJ_LCP6_M.:E05TOU  was found in the system file and is referenced.
   GH_LCP6_M.:E05TOU  was found in the system file and is referenced.
      No diagnostics issued in procedure QBJ$JUMPS.
PL6.E3A0      #001=QBJ$JUMPS File=QBJ$JUMPS.:E05TSI                              WED 07/30/97 04:50 Page:12

 **** Variables and constants ****

  ****  SYMREF variables  ****

  ****  Scalars and arrays  ****
HexLoc.c.b A Datatyp(siz) R M Lvl/name                 HexLoc.c.b A Datatyp(siz) R M Lvl/name

     0-0-0/d STRC(2576)  r     1 QI_1

  ****  BASED and DCB variables  ****

  ****  Scalars and arrays  ****
HexLoc.c.b A Datatyp(siz) R M Lvl/name                 HexLoc.c.b A Datatyp(siz) R M Lvl/name

     0-0-0/w STRC(48)    r     1 QI$OP_JAZ                  0-0-0/w STRC(48)    r     1 QI$OP_JND
     0-0-0/c ASTR(8)     r     1 QI$VARIABLE_IDENTIFIER


   Procedure QBJ$JUMPS requires 81 words for executable code.
   Procedure QBJ$JUMPS requires 4 words of local(AUTO) storage.

    No errors detected in file QBJ$JUMPS.:E05TSI    .
PL6.E3A0      #001=QBJ$JUMPS File=QBJ$JUMPS.:E05TSI                              WED 07/30/97 04:50 Page:13
          *** CROSS REFERENCE LISTING ***
**     DENOTES     IDENTIFIER DEFINITION
<<                 IDENTIFIER'S VALUE SET
>>                 IDENTIFIER'S VALUE USED
<>                 IDENTIFIER SET AND/OR USED
--                 IDENTIFIER REFERENCED
PL6.E3A0      #001=QBJ$JUMPS File=QBJ$JUMPS.:E05TSI                              WED 07/30/97 04:50 Page:14
          MINI XREF LISTING

QGB_PARAM.DVE.DVBYTE.VFC
     11354**DCL     11355--REDEF
QGB_PARAM.DVE.EOMCHAR
     11366**DCL     11367--REDEF
QGB_PARAM.MSG$
     11348**DCL     11349--REDEF
QGB_PARAM.UHDR$
     11373**DCL     11374--REDEF
QI$ACTIVATION_STATUS
      9112**DCL      9118--REDEF
QI$CIP
      7953**DCL      8023--REDEF
QI$CIP.CA
      7958**DCL      7962--REDEF    7965--REDEF    7968--REDEF
QI$COBOL_DAD.PSEUDO_CIP
      8197**DCL      8222--REDEF
QI$COBOL_DAD.PSEUDO_CIP.ALPHANUMERIC
      8199**DCL      8204--REDEF
QI$COBOL_DAD.PSEUDO_CIP.NUMERIC.CB
      8205**DCL      8208--REDEF    8211--REDEF
QI$COBOL_DAD.VARIABLE_LENGTH_ITEMS
      8233**DCL      8249--REDEF    8257--REDEF    8265--REDEF
QI$COBOL_DAD.VARIABLE_LENGTH_ITEMS.LEVEL_MULTIPLIERS
      8234**DCL      8244--REDEF    8247--REDEF
QI$COBOL_DAD.WORD0
      8161**DCL      8162--REDEF    8176--REDEF
QI$COBOL_DAD_P_BITS.P
      8301**DCL      8307--REDEF
QI$CONDITION_CONTROL_BLOCK.LIST_A@P
      7787**DCL      7788--REDEF
QI$CONDITION_CONTROL_BLOCK.WORD0_FLAGS
      7783**DCL      7786--REDEF
PL6.E3A0      #001=QBJ$JUMPS File=QBJ$JUMPS.:E05TSI                              WED 07/30/97 04:50 Page:15
QI$CONDITION_LEGAL_BLOCK.ARRAY@P
      7820**DCL      7821--REDEF    7822--REDEF
QI$DAD.PSEUDO_CIP
      8100**DCL      8125--REDEF
QI$DAD.PSEUDO_CIP.ALPHANUMERIC
      8102**DCL      8107--REDEF
QI$DAD.PSEUDO_CIP.NUMERIC.CB
      8108**DCL      8111--REDEF    8114--REDEF
QI$DAD.WORD0
      8069**DCL      8070--REDEF
QI$ERROR_MESSAGE_LINE
     11461**DCL     11463--REDEF
QI$ERROR_STATUS
     11458**DCL     11460--REDEF
QI$FIELD_DAD.ELEMENTARY_ITEM.P
      8515**DCL      8522--REDEF
QI$FIELD_DAD.ONE_DIMENSIONAL_ITEM.P
      8535**DCL      8542--REDEF
QI$FIELD_DAD.PSEUDO_CIP
      8442**DCL      8467--REDEF
QI$FIELD_DAD.PSEUDO_CIP.ALPHANUMERIC
      8444**DCL      8449--REDEF
QI$FIELD_DAD.PSEUDO_CIP.NUMERIC.CB
      8450**DCL      8453--REDEF    8456--REDEF
QI$FIELD_DAD.TWO_DIMENSIONAL_ITEM.P
      8555**DCL      8562--REDEF
QI$FIELD_DAD.VARIABLE_LENGTH_ITEMS
      8498**DCL      8514--REDEF    8532--REDEF    8550--REDEF
QI$FIELD_DAD.VARIABLE_LENGTH_ITEMS.LEVEL_MULTIPLIERS
      8499**DCL      8509--REDEF    8512--REDEF
QI$FIELD_DAD.WORD0
      8394**DCL      8395--REDEF
QI$FIELD_DAD.WORD0_FLAGS.IO_FLAGS
      8398**DCL      8403--REDEF
QI$FIELD_DAD_P.P
      8596**DCL      8603--REDEF
PL6.E3A0      #001=QBJ$JUMPS File=QBJ$JUMPS.:E05TSI                              WED 07/30/97 04:50 Page:16
QI$FIELD_STATUS.INDICATORS
      9262**DCL      9294--REDEF
QI$FIELD_STATUS.INDICATORS.ENABLED_FLAGS
      9266**DCL      9271--REDEF
QI$FIELD_STATUS.INDICATORS.OPEN_FLAGS
      9278**DCL      9285--REDEF
QI$FIELD_STATUS.INDICATORS.STATE_FLAGS
      9272**DCL      9277--REDEF
QI$FILE.WORD0
      8718**DCL      8719--REDEF
QI$FILE_STATUS.INDICATORS
      9555**DCL      9587--REDEF
QI$FILE_STATUS.INDICATORS.ENABLED_FLAGS
      9559**DCL      9564--REDEF
QI$FILE_STATUS.INDICATORS.OPEN_FLAGS
      9571**DCL      9578--REDEF
QI$FILE_STATUS.INDICATORS.STATE_FLAGS
      9565**DCL      9570--REDEF
QI$FORM_FILE.USE_PROCEDURE
      8818**DCL      8825--REDEF
QI$FORM_FILE.WORD0
      8772**DCL      8773--REDEF
QI$FORM_STATUS.INDICATORS
      9676**DCL      9708--REDEF
QI$FORM_STATUS.INDICATORS.ENABLED_FLAGS
      9680**DCL      9685--REDEF
QI$FORM_STATUS.INDICATORS.OPEN_FLAGS
      9692**DCL      9699--REDEF
QI$FORM_STATUS.INDICATORS.STATE_FLAGS
      9686**DCL      9691--REDEF
QI$FRAME.WORD0
      8933**DCL      8934--REDEF
QI$FRAME_STATUS.INDICATORS
      9905**DCL      9937--REDEF
QI$FRAME_STATUS.INDICATORS.ENABLED_FLAGS
      9909**DCL      9914--REDEF
PL6.E3A0      #001=QBJ$JUMPS File=QBJ$JUMPS.:E05TSI                              WED 07/30/97 04:50 Page:17
QI$FRAME_STATUS.INDICATORS.OPEN_FLAGS
      9921**DCL      9928--REDEF
QI$FRAME_STATUS.INDICATORS.STATE_FLAGS
      9915**DCL      9920--REDEF
QI$GZ_FIELD.DESCRIPTION.IO_FLAGS
     16787**DCL     16792--REDEF
QI$IDENTIFIER
     11464**DCL     11466--REDEF
QI$INDICATORS
      9176**DCL      9206--REDEF
QI$INDICATORS.ENABLED_FLAGS
      9182**DCL      9187--REDEF
QI$INDICATORS.OPEN_FLAGS
      9194**DCL      9201--REDEF
QI$INDICATORS.STATE_FLAGS
      9188**DCL      9193--REDEF
QI$MAJOR_NODE.WORD0
      8632**DCL      8633--REDEF
QI$MAJOR_STATUS.INDICATORS
      9355**DCL      9387--REDEF
QI$MAJOR_STATUS.INDICATORS.ENABLED_FLAGS
      9359**DCL      9364--REDEF
QI$MAJOR_STATUS.INDICATORS.OPEN_FLAGS
      9371**DCL      9378--REDEF
QI$MAJOR_STATUS.INDICATORS.STATE_FLAGS
      9365**DCL      9370--REDEF
QI$MESSAGE_TYPE
     11455**DCL     11457--REDEF
QI$MINOR_NODE.WORD0
      8675**DCL      8676--REDEF
QI$MINOR_STATUS.INDICATORS
      9448**DCL      9480--REDEF
QI$MINOR_STATUS.INDICATORS.ENABLED_FLAGS
      9452**DCL      9457--REDEF
QI$MINOR_STATUS.INDICATORS.OPEN_FLAGS
      9464**DCL      9471--REDEF
PL6.E3A0      #001=QBJ$JUMPS File=QBJ$JUMPS.:E05TSI                              WED 07/30/97 04:50 Page:18
QI$MINOR_STATUS.INDICATORS.STATE_FLAGS
      9458**DCL      9463--REDEF
QI$OP_ACCEPT.DATANAME@P
      5863**DCL      5864--REDEF
QI$OP_CALL.EPTR$
      6035**DCL      6036--REDEF
QI$OP_CLEAR.IO_FLAGS
      6068**DCL      6071--REDEF
QI$OP_DISPLAY.FIELD_A@P
      6335**DCL      6336--REDEF
QI$OP_ENABLE.IO_FLAGS
      6422**DCL      6425--REDEF
QI$OP_IFCLS.ATTRIBUTE.TYPE
      6515**DCL      6520--REDEF
QI$OP_INSPECT.TALLYING_FOR_ITEM@P
      6749**DCL      6750--REDEF
QI$OP_INSPECT.TALLYING_INITIAL_ITEM@P
      6751**DCL      6752--REDEF
QI$OP_INSPECT.TALLYING_ITEM@P
      6747**DCL      6748--REDEF
QI$OP_JAZ.EVERYTHINGS_PEACHY@P
      6785**DCL     16916>>ASSIGN
QI$OP_JAZ.NEXT_CODE@P
      6786**DCL     16939--ASSIGN
QI$OP_JND.EVERYTHINGS_PEACHY@P
      6813**DCL     16976>>ASSIGN
QI$OP_JND.NEXT_CODE@P
      6814**DCL     16999--ASSIGN
QI$OP_OPEN.IO_FLAGS
      7309**DCL      7312--REDEF
QI$OP_PERFM.BINARY_ITERATION_COUNT@P
      7347**DCL      7348--REDEF
QI$PSEUDO_CIP
      7848**DCL      7872--REDEF
QI$PSEUDO_CIP.ALPHANUMERIC
      7852**DCL      7857--REDEF
PL6.E3A0      #001=QBJ$JUMPS File=QBJ$JUMPS.:E05TSI                              WED 07/30/97 04:50 Page:19
QI$PSEUDO_CIP.NUMERIC.CB
      7858**DCL      7861--REDEF    7864--REDEF
QI$TERMINAL_ATTRIBUTES
      9069**DCL      9082--REDEF
QI$TRAN_FILE.WORD0
      8854**DCL      8855--REDEF
QI$TRAN_STATUS.INDICATORS
      9789**DCL      9821--REDEF
QI$TRAN_STATUS.INDICATORS.ENABLED_FLAGS
      9793**DCL      9798--REDEF
QI$TRAN_STATUS.INDICATORS.OPEN_FLAGS
      9805**DCL      9812--REDEF
QI$TRAN_STATUS.INDICATORS.STATE_FLAGS
      9799**DCL      9804--REDEF
QI$VARIABLE_IDENTIFIER.LENGTH
     11468**DCL     11469--IMP-SIZ
QI_1.A_REG
     10742**DCL     16893>>IF
QI_1.BASE
      9997**DCL     10004--REDEF
QI_1.BASE.PROC$
     10000**DCL     16916>>ASSIGN  16976>>ASSIGN
QI_1.CURRENT.FILE$
     10888**DCL     10890--REDEF   10892--REDEF
QI_1.CURRENT.FILE_STATUS$
     10894**DCL     10896--REDEF   10898--REDEF
QI_1.DAD
     10692**DCL     10697--REDEF
QI_1.FILE_HEAD
     10875**DCL     10882--REDEF
QI_1.INSTR$
     10005**DCL     16916<<ASSIGN  16916>>ASSIGN  16939<<ASSIGN  16939>>ASSIGN  16976<<ASSIGN  16976>>ASSIGN
     16999<<ASSIGN  16999>>ASSIGN
QI_1.IS_ALL_LIT
     10698**DCL     10703--REDEF
QI_1.IS_FORM_VARIABLE
PL6.E3A0      #001=QBJ$JUMPS File=QBJ$JUMPS.:E05TSI                              WED 07/30/97 04:50 Page:20
     10704**DCL     10709--REDEF
QI_1.IS_TEMP
     10710**DCL     10715--REDEF
QI_1.MESSAGE_LINE_DAD.PSEUDO_CIP
     10808**DCL     10833--REDEF
QI_1.MESSAGE_LINE_DAD.PSEUDO_CIP.ALPHANUMERIC
     10810**DCL     10815--REDEF
QI_1.MESSAGE_LINE_DAD.PSEUDO_CIP.NUMERIC.CB
     10816**DCL     10819--REDEF   10822--REDEF
QI_1.MESSAGE_LINE_DAD.WORD0
     10777**DCL     10778--REDEF
QI_1.NO_DATA
     10752**DCL     16953>>IF
QI_1.OFFSET
     10716**DCL     10721--REDEF
QI_1.OP.CIP
     10077**DCL     10528--REDEF
QI_1.OP.CIP.AUX
     10443**DCL     10514--REDEF
QI_1.OP.CIP.AUX.CD
     10488**DCL     10491--REDEF   10495--REDEF   10498--REDEF
QI_1.OP.CIP.S
     10147**DCL     10218--REDEF
QI_1.OP.CIP.S.CD
     10192**DCL     10195--REDEF   10199--REDEF   10202--REDEF
QI_1.OP.CIP.T
     10295**DCL     10366--REDEF
QI_1.OP.CIP.T.CD
     10340**DCL     10343--REDEF   10347--REDEF   10350--REDEF
QI_1.OP.DATA
     10535**DCL     10539--REDEF
QI_1.OP.FILL_CHAR
     10659**DCL     10662--REDEF
QI_1.OP.INX
     10592**DCL     10596--REDEF   10597--REDEF   10601--REDEF
QI_1.OP.LEN
PL6.E3A0      #001=QBJ$JUMPS File=QBJ$JUMPS.:E05TSI                              WED 07/30/97 04:50 Page:21
     10575**DCL     10579--REDEF   10580--REDEF   10584--REDEF   10585--REDEF   10589--REDEF
QI_1.OP.LEN.AUX
     10578**DCL     11479--IMP-SIZ
QI_1.OP.LEN.S
     10576**DCL     11475--IMP-SIZ
QI_1.OP.LEN.T
     10577**DCL     11477--IMP-SIZ
QI_1.OP.PICTURE_STRING
     10645**DCL     10648--REDEF   10649--REDEF   10652--REDEF   10653--REDEF   10656--REDEF
QI_1.OP.ROUND
     10678**DCL     10679--REDEF   10680--REDEF
QI_1.OP.SRCH_VRFY_ELEMS
     10614**DCL     10617--REDEF
QI_1.OPENED_COUNT
     10883**DCL     10886--REDEF
QI_1.OTTER_SPACE
     10722**DCL     10727--REDEF
QI_1.PICTURE_STRING
     10728**DCL     10733--REDEF
QI_1.SPECIAL_NAMES
     10911**DCL     10920--REDEF
QI_1.TYPE
     10734**DCL     10739--REDEF
QI_16_BIT_BINARY
     15924**DCL     15994--REDEF
QI_16_BIT_BINARY.CB
     15943**DCL     15946--REDEF   15950--REDEF   15953--REDEF
QI_31_DIGIT_SLS_DISPLAY
     15757**DCL     15827--REDEF
QI_31_DIGIT_SLS_DISPLAY.CD
     15804**DCL     15807--REDEF   15811--REDEF   15814--REDEF
QI_31_DIGIT_ST_PACKED
     16259**DCL     16329--REDEF
QI_31_DIGIT_ST_PACKED.CP
     16292**DCL     16295--REDEF   16299--REDEF   16302--REDEF
QI_32_BIT_BINARY
PL6.E3A0      #001=QBJ$JUMPS File=QBJ$JUMPS.:E05TSI                              WED 07/30/97 04:50 Page:22
     16091**DCL     16161--REDEF
QI_32_BIT_BINARY.CB
     16110**DCL     16113--REDEF   16117--REDEF   16120--REDEF
QI_4_CHAR_ALPHANUMERIC
     15589**DCL     15659--REDEF
QI_4_CHAR_ALPHANUMERIC.CA
     15594**DCL     15598--REDEF   15601--REDEF   15604--REDEF
QI_ACCUMULATOR_DAD.CIP
     16602**DCL     16673--REDEF
QI_ACCUMULATOR_DAD.CIP.CP
     16633**DCL     16636--REDEF   16640--REDEF   16643--REDEF
QI_ALR.CIP
     11554**DCL     12005--REDEF
QI_ALR.CIP.AUX
     11920**DCL     11991--REDEF
QI_ALR.CIP.AUX.CA
     11923**DCL     11927--REDEF   11930--REDEF   11933--REDEF
QI_ALR.CIP.S
     11624**DCL     11695--REDEF
QI_ALR.CIP.S.CA
     11627**DCL     11631--REDEF   11634--REDEF   11637--REDEF
QI_ALR.CIP.T
     11772**DCL     11843--REDEF
QI_ALR.CIP.T.CA
     11775**DCL     11779--REDEF   11782--REDEF   11785--REDEF
QI_ALR.DATA
     12012**DCL     12016--REDEF
QI_ALR.FILL_CHAR
     12136**DCL     12139--REDEF
QI_ALR.INX
     12069**DCL     12073--REDEF   12074--REDEF   12078--REDEF
QI_ALR.LEN
     12052**DCL     12056--REDEF   12057--REDEF   12061--REDEF   12062--REDEF   12066--REDEF
QI_ALR.PICTURE_STRING
     12122**DCL     12125--REDEF   12126--REDEF   12129--REDEF   12130--REDEF   12133--REDEF
QI_ALR.ROUND
PL6.E3A0      #001=QBJ$JUMPS File=QBJ$JUMPS.:E05TSI                              WED 07/30/97 04:50 Page:23
     12155**DCL     12156--REDEF   12157--REDEF
QI_ALR.SRCH_VRFY_ELEMS
     12091**DCL     12094--REDEF
QI_MAT.CIP
     14893**DCL     15344--REDEF
QI_MAT.CIP.AUX
     15259**DCL     15330--REDEF
QI_MAT.CIP.AUX.CA
     15262**DCL     15266--REDEF   15269--REDEF   15272--REDEF
QI_MAT.CIP.S
     14963**DCL     15034--REDEF
QI_MAT.CIP.S.CA
     14966**DCL     14970--REDEF   14973--REDEF   14976--REDEF
QI_MAT.CIP.T
     15111**DCL     15182--REDEF
QI_MAT.CIP.T.CA
     15114**DCL     15118--REDEF   15121--REDEF   15124--REDEF
QI_MAT.DATA
     15351**DCL     15355--REDEF
QI_MAT.DEC
     15419**DCL     15423--REDEF   15424--REDEF   15428--REDEF
QI_MAT.FILL_CHAR
     15475**DCL     15478--REDEF
QI_MAT.LEN
     15391**DCL     15395--REDEF   15396--REDEF   15400--REDEF   15401--REDEF   15405--REDEF
QI_MAT.PICTURE_STRING
     15461**DCL     15464--REDEF   15465--REDEF   15468--REDEF   15469--REDEF   15472--REDEF
QI_MAT.ROUND
     15494**DCL     15495--REDEF   15496--REDEF
QI_MAT.SRCH_VRFY_ELEMS
     15430**DCL     15433--REDEF
QI_PICTURE_STRING
     16427**DCL     16497--REDEF
QI_PICTURE_STRING.CA
     16432**DCL     16436--REDEF   16439--REDEF   16442--REDEF
QI_SRCH_VRFY.CIP
PL6.E3A0      #001=QBJ$JUMPS File=QBJ$JUMPS.:E05TSI                              WED 07/30/97 04:50 Page:24
     14224**DCL     14675--REDEF
QI_SRCH_VRFY.CIP.AUX
     14590**DCL     14661--REDEF
QI_SRCH_VRFY.CIP.AUX.CA
     14593**DCL     14597--REDEF   14600--REDEF   14603--REDEF
QI_SRCH_VRFY.CIP.S
     14294**DCL     14365--REDEF
QI_SRCH_VRFY.CIP.S.CA
     14297**DCL     14301--REDEF   14304--REDEF   14307--REDEF
QI_SRCH_VRFY.CIP.T
     14442**DCL     14513--REDEF
QI_SRCH_VRFY.CIP.T.CA
     14445**DCL     14449--REDEF   14452--REDEF   14455--REDEF
QI_SRCH_VRFY.DATA
     14682**DCL     14686--REDEF
QI_SRCH_VRFY.DEC
     14750**DCL     14754--REDEF   14755--REDEF   14759--REDEF
QI_SRCH_VRFY.FILL_CHAR
     14806**DCL     14809--REDEF
QI_SRCH_VRFY.ROUND
     14825**DCL     14826--REDEF   14827--REDEF
QI_SRCH_VRFY.SRCH_RESULT
     14766**DCL     14769--REDEF   14770--REDEF   14773--REDEF   14774--REDEF   14777--REDEF
QI_SRCH_VRFY.SRCH_VRFY_ARGS
     14690**DCL     14694--REDEF   14695--REDEF   14699--REDEF   14700--REDEF   14704--REDEF
QI_SRCH_VRFY.SRCH_VRFY_ELEMS
     14761**DCL     14764--REDEF
QI_TYPE_BINARY_TARGET.CIP
     13551**DCL     14002--REDEF
QI_TYPE_BINARY_TARGET.CIP.AUX
     13917**DCL     13988--REDEF
QI_TYPE_BINARY_TARGET.CIP.AUX.CA
     13920**DCL     13924--REDEF   13927--REDEF   13930--REDEF
QI_TYPE_BINARY_TARGET.CIP.S
     13621**DCL     13692--REDEF
QI_TYPE_BINARY_TARGET.CIP.S.CA
PL6.E3A0      #001=QBJ$JUMPS File=QBJ$JUMPS.:E05TSI                              WED 07/30/97 04:50 Page:25
     13624**DCL     13628--REDEF   13631--REDEF   13634--REDEF
QI_TYPE_BINARY_TARGET.CIP.T
     13769**DCL     13840--REDEF
QI_TYPE_BINARY_TARGET.CIP.T.CB
     13786**DCL     13789--REDEF   13793--REDEF   13796--REDEF
QI_TYPE_BINARY_TARGET.DATA
     14009**DCL     14013--REDEF
QI_TYPE_BINARY_TARGET.DEC
     14077**DCL     14081--REDEF   14082--REDEF   14086--REDEF
QI_TYPE_BINARY_TARGET.LEN
     14049**DCL     14053--REDEF   14054--REDEF   14058--REDEF   14059--REDEF   14063--REDEF
QI_TYPE_BINARY_TARGET.PICTURE_STRING
     14119**DCL     14122--REDEF   14123--REDEF   14126--REDEF   14127--REDEF   14130--REDEF
QI_TYPE_BINARY_TARGET.ROUND
     14152**DCL     14153--REDEF   14154--REDEF
QI_TYPE_BINARY_TARGET.SIZE_ERROR
     14138**DCL     14139--REDEF
QI_TYPE_BINARY_TARGET.SRCH_VRFY_ELEMS
     14088**DCL     14091--REDEF
QI_TYPE_DISPLAY_SOURCE.CIP
     12219**DCL     12670--REDEF
QI_TYPE_DISPLAY_SOURCE.CIP.AUX
     12585**DCL     12656--REDEF
QI_TYPE_DISPLAY_SOURCE.CIP.AUX.CA
     12588**DCL     12592--REDEF   12595--REDEF   12598--REDEF
QI_TYPE_DISPLAY_SOURCE.CIP.S
     12289**DCL     12360--REDEF
QI_TYPE_DISPLAY_SOURCE.CIP.S.CD
     12334**DCL     12337--REDEF   12341--REDEF   12344--REDEF
QI_TYPE_DISPLAY_SOURCE.CIP.T
     12437**DCL     12508--REDEF
QI_TYPE_DISPLAY_SOURCE.CIP.T.CA
     12440**DCL     12444--REDEF   12447--REDEF   12450--REDEF
QI_TYPE_DISPLAY_SOURCE.DATA
     12677**DCL     12681--REDEF
QI_TYPE_DISPLAY_SOURCE.DEC
PL6.E3A0      #001=QBJ$JUMPS File=QBJ$JUMPS.:E05TSI                              WED 07/30/97 04:50 Page:26
     12745**DCL     12749--REDEF   12750--REDEF   12754--REDEF
QI_TYPE_DISPLAY_SOURCE.LEN
     12717**DCL     12721--REDEF   12722--REDEF   12726--REDEF   12727--REDEF   12731--REDEF
QI_TYPE_DISPLAY_SOURCE.PICTURE_STRING
     12787**DCL     12790--REDEF   12791--REDEF   12794--REDEF   12795--REDEF   12798--REDEF
QI_TYPE_DISPLAY_SOURCE.ROUND
     12820**DCL     12821--REDEF   12822--REDEF
QI_TYPE_DISPLAY_SOURCE.SIZE_ERROR
     12806**DCL     12807--REDEF
QI_TYPE_DISPLAY_SOURCE.SRCH_VRFY_ELEMS
     12756**DCL     12759--REDEF
QI_TYPE_DISPLAY_TARGET.CIP
     12885**DCL     13336--REDEF
QI_TYPE_DISPLAY_TARGET.CIP.AUX
     13251**DCL     13322--REDEF
QI_TYPE_DISPLAY_TARGET.CIP.AUX.CA
     13254**DCL     13258--REDEF   13261--REDEF   13264--REDEF
QI_TYPE_DISPLAY_TARGET.CIP.S
     12955**DCL     13026--REDEF
QI_TYPE_DISPLAY_TARGET.CIP.S.CA
     12958**DCL     12962--REDEF   12965--REDEF   12968--REDEF
QI_TYPE_DISPLAY_TARGET.CIP.T
     13103**DCL     13174--REDEF
QI_TYPE_DISPLAY_TARGET.CIP.T.CD
     13148**DCL     13151--REDEF   13155--REDEF   13158--REDEF
QI_TYPE_DISPLAY_TARGET.DATA
     13343**DCL     13347--REDEF
QI_TYPE_DISPLAY_TARGET.DEC
     13411**DCL     13415--REDEF   13416--REDEF   13420--REDEF
QI_TYPE_DISPLAY_TARGET.LEN
     13383**DCL     13387--REDEF   13388--REDEF   13392--REDEF   13393--REDEF   13397--REDEF
QI_TYPE_DISPLAY_TARGET.PICTURE_STRING
     13453**DCL     13456--REDEF   13457--REDEF   13460--REDEF   13461--REDEF   13464--REDEF
QI_TYPE_DISPLAY_TARGET.ROUND
     13486**DCL     13487--REDEF   13488--REDEF
QI_TYPE_DISPLAY_TARGET.SIZE_ERROR
PL6.E3A0      #001=QBJ$JUMPS File=QBJ$JUMPS.:E05TSI                              WED 07/30/97 04:50 Page:27
     13472**DCL     13473--REDEF
QI_TYPE_DISPLAY_TARGET.SRCH_VRFY_ELEMS
     13422**DCL     13425--REDEF
