VERSION E05

PL6.E3A0      #001=QBR$READ_FORM File=QBR$READ_FORM.:E05TSI                      WED 07/30/97 04:54 Page:1
        1        1        /*M* QBR$READ_FORM:  READ form-name.  */
        2        2        /*T***********************************************************/
        3        3        /*T*                                                         */
        4        4        /*T* Copyright (c) Bull HN Information Systems Inc., 1997    */
        5        5        /*T*                                                         */
        6        6        /*T***********************************************************/
        7        7        /*X* DMC,PLM=4,IND=0,DCI=4,CSI=2,IAD=2,DTI=2,AND,ECI=0,DIN=2,STI=2 */
        8        8
        9        9        /*P*  NAME:         QBR$READ_FORM
       10       10              PURPOSE:      Read fields within a form.
       11       11              DESCRIPTION:  Execute a READ_FORM op-code, whose argument is
       12       12                            a QI$FORM_FILE-type DAD.
       13       13        */
       14       14
       15       15        QBR$READ_FORM: PROC;
       16       16
       17       17        /*D*  NAME:         QBR$READ_FORM
       18       18              CALL:         CALL QBR$READ_FORM;
       19       19              PARAMETERS:   None.
       20       20              INTERFACE:    Called by QAT$TALLYHO when a READ_FORM op-code
       21       21                            is encountered.
       22       22              ENVIRONMENT:  Nothing unusual.
       23       23              INPUT:        QI_1,
       24       24                            FPL rununit statis data following the op-code.
       25       25              OUTPUT:       Fills the appropriate field buffers with data read
       26       26                            from a terminal.
       27       27              SCRATCH:      Various otter data.
       28       28              DESCRIPTION:  Checks to see if the FORM to be read is open; if so,
       29       29                            calls QCI$IO_READ to read the appropriate fields
       30       30                            (see commentary in that module).
       31       31        */
       32       32
       33       33          %INCLUDE LCP_6;
       34      224
       35      225          %INCLUDE QG_MACRO_M;
       36      362          %INCLUDE QI_EQUATES_E;
       37      721          %INCLUDE QI_PERR_C;
PL6.E3A0      #001=QBR$READ_FORM File=QBR$READ_FORM.:E05TSI                      WED 07/30/97 04:54 Page:2
       38      889          %INCLUDE QI_MACROS_M;
       39     5947          %QI$ALL;
       40    17060
       41    17061    1     DCL ERROR_STATUS$ PTR;
       42    17062    1     DCL INSTR$ PTR;
       43    17063
       44    17064    1     DCL QCE$ERROR_INTERNAL ENTRY (4);
       45    17065    1     DCL QCF$FIND_CURRENTS ENTRY;
       46    17066    1     DCL QCR$READ ENTRY (1);
       47    17067    1     DCL QCU$USE_INVALID_IO ENTRY (1);
       48    17068
       49    17069          %SET LISTMAC = '1'B;
       50    17070
       51    17071          %INCLUDE QCR_READ_M;
       52    17111          %QCR@READ;
             17112            %BEGIN_MACRO ( STCLASS = STCLASS );
             17113            %SET LISTDIR = '0'B;
             17126    1     DCL 1 QCR@READ ALIGNED,
             17127    1           2 FRAME_START_INDEX UBIN,
             17128                          /* Starting index into QI$FORM_FILE.FRAME_LIST_A@P.  */
             17129    1           2 FRAME_STOP_INDEX UBIN,
             17130                          /* Starting index into QI$FORM_FILE.FRAME_LIST_A@P.  */
             17131    1           2 IS_FIELD_INDEXES_VALID BIT(1) ALIGNED,
             17132                          /* If IS_FIELD_INDEXES_VALID, use them;
             17133                             else use all the fields in the frame.  */
             17134    1           2 FIELD_START_INDEX UBIN,
             17135                          /* Starting index into QI$GZ_FIELD table.  */
             17136    1           2 FIELD_STOP_INDEX UBIN,
             17137                          /* Stopping index into QI$GZ_FIELD table.  */
             17138    1           2 IS_CURSOR_POSITION_VALID BIT(1) ALIGNED,
             17139                          /* If IS_CURSOR_POSITION_VALID, use it;
             17140                             else allow cursor to default to upper-left-most field.  */
             17141    1           2 CURSOR_POSITION BIT(16) ALIGNED,
             17142                          /* POSition of the field on which to place the cursor.  */
             17143    1           2 STATUS UBIN,
             17144                          /* Returned status code:  0 -> Immediate return to level 0;
             17145                                                   >0 -> Status is ok.  */
PL6.E3A0      #001=QBR$READ_FORM File=QBR$READ_FORM.:E05TSI                      WED 07/30/97 04:54 Page:3
             17146    1           2 FIELD_ERROR_STOP_INDEX UBIN;
             17147                          /* Passed index for QCG$GET_FIELD processing.  */
             17154            %ENDIF;
       53    17157
       54    17158          %INCLUDE QCU_USE_M;
       55    17212          %QCU@USE;
             17213            %BEGIN_MACRO;
             17214            %SET LISTDIR = '0'B;
             17227    1     DCL 1 QCU@USE AUTO ALIGNED,
             17228    1           2 CURR_FRAME$ PTR,
             17229                          /* Pointer to DAD of current frame or ADDR (NIL).  */
             17230    1           2 CURR_NODE$ PTR,
             17231                          /* Pointer to current node or ADDR (NIL).  */
             17232    1           2 USE_DEFAULT_IO UBIN,
             17233                          /* For USE procedures which default applies
             17234                             (see corresponding EQUs).  */
             17235    1           2 IS_TIME_TO_SAVE_AWAY_FIELDS BIT(1) ALIGNED,
             17236                          /* If IS_TIME_TO_SAVE_AWAY_FIELDS, then
             17237                             save the fields within the bounds of
             17238                             FRAME_START_INDEX, FRAME_STOP_INDEX,
             17239                             FIELD_START_INDEX, and FIELD_STOP_INDEX
             17240                             before calling the USE procedure.  */
             17241    1           2 FRAME_START_INDEX UBIN,
             17242                          /* Foist frame of the CURRENT.FORM$
             17243                             involved with the I-O error.  */
             17244    1           2 FRAME_STOP_INDEX UBIN,
             17245                          /* Larst frame of the CURRENT.FORM$
             17246                             involved with the I-O error.  */
             17247    1           2 IS_FIELD_INDEXES_VALID BIT(1) ALIGNED,
             17248                          /* If IS_FIELD_INDEXES_VALID, use them;
             17249                             else use all the fields in the frame.  */
             17250    1           2 FIELD_START_INDEX UBIN,
             17251                          /* Starting index into QI$GZ_FIELD
             17252                             which may have values "pushed".  */
             17253    1           2 FIELD_STOP_INDEX UBIN,
             17254                          /* Stopping index into QI$GZ_FIELD
             17255                             which may have values "pushed".  */
PL6.E3A0      #001=QBR$READ_FORM File=QBR$READ_FORM.:E05TSI                      WED 07/30/97 04:54 Page:4
             17256    1           2 IS_CURSOR_POSITION_VALID BIT(1) ALIGNED,
             17257                          /* If IS_CURSOR_POSITION_VALID, use it;
             17258                             else allow cursor to default to upper-left-most field.  */
             17259    1           2 CURSOR_POSITION BIT(16) ALIGNED,
             17260                          /* POSition of the field on which to place the cursor.  */
             17261    1           2 STATUS UBIN;
             17262                          /* Returned action code; see corresponding EQUs.  */
             17269            %ENDIF;
       56    17272
       57    17273          %SET LISTMAC = '0'B;
       58    17274        %EJECT;
PL6.E3A0      #001=QBR$READ_FORM File=QBR$READ_FORM.:E05TSI                      WED 07/30/97 04:54 Page:5
       59    17275    1       INSTR$ = QI_1.INSTR$;
       60    17276    1       QI_1.INSTR$ = ADDR ( INSTR$ -> QI$OP_READ_FORM.NEXT_CODE@P );
       61    17277
       62    17278    1   RETRY_FORM_READ:
       63    17279    1       QI_1.A_REG = 0;
       64    17280
       65    17281    1       IF INSTR$ -> QI$OP_READ_FORM.IS_POSITIONING_CURSOR
       66    17282    1       THEN
       67    17283    1   PREPARE_CURSOR_FIELD:
       68    17284    2         DO;
       69    17285                %PROC_ADDRESS ( THING@P = "INSTR$ -> QI$OP_READ_FORM.CURSOR_FIELD@P",
       70    17286                CHECK_FOR_INDIRECTION = YES,
       71    17287                RESULT$ = "QI_1.CURRENT.NODE$" );
       72    17324
       73    17325    2           CALL QCF$FIND_CURRENTS;
       74    17326
       75    17327    2           IF NOT QI_1.CURRENT.FRAME_STATUS$ -> QI$FRAME_STATUS.INDICATORS.IS_ACTIVE
       76    17328    2           THEN
       77    17329    3             DO;
       78    17330    3               QI_1.ERROR_STATUS = %E$FRAME_NOT_ACTIVE;
       79    17331    3               GOTO CHECK_USE_PROCEDURE_OR_INVALID;
       80    17332    3             END;
       81    17333
       82    17334                %IF QI#DEBUG;
       83    17335
       84    17336    3           DO CASE ( QI_1.CURRENT.NODE$ -> QI$FIELD_DAD.WORD0_FLAGS.TYPE );
       85    17337
       86    17338    3             CASE ( %QI#TYPE_DISPLAY,
       87    17339    3             %QI#TYPE_ALPHANUMERIC );
       88    17340
       89    17341    3             CASE ( ELSE );
       90    17342    3               CALL QCE$ERROR_INTERNAL ( %E$INTERNAL_COMPILER_ERROR );
       91    17343
       92    17344    3           END;
       93    17345
       94    17346    2           IF QI_1.CURRENT.NODE_STATUS$ -> QI$FIELD_STATUS.GZ.FIELD_START_INDEX ~=
       95    17347    2             QI_1.CURRENT.NODE_STATUS$ -> QI$FIELD_STATUS.GZ.FIELD_STOP_INDEX
PL6.E3A0      #001=QBR$READ_FORM File=QBR$READ_FORM.:E05TSI                      WED 07/30/97 04:54 Page:6
       96    17348    2           THEN
       97    17349    2             CALL QCE$ERROR_INTERNAL ( %E$INTERNAL_INTERPRETER_ERROR );
       98    17350
       99    17351                %ENDIF;
      100    17352
      101    17353    2           QCR@READ.CURSOR_POSITION = PINCRW ( QI_1.CURRENT.FRAME_STATUS$ ->
             17353                    QI$FRAME_STATUS.GZ.START$,
      102    17354    2             QI_1.CURRENT.NODE_STATUS$ -> QI$FIELD_STATUS.GZ.FIELD_START_INDEX * SIZEW
             17354                      (QI$GZ_FIELD) ) ->
      103    17355    2             QI$GZ_FIELD.DESCRIPTION.POSITION;
      104    17356    2           QCR@READ.IS_CURSOR_POSITION_VALID = %YES;
      105    17357    2         END PREPARE_CURSOR_FIELD;
      106    17358    1       ELSE
      107    17359    1         QCR@READ.IS_CURSOR_POSITION_VALID = %NO;
      108    17360
      109    17361            %PROC_ADDRESS ( THING@P = "INSTR$ -> QI$OP_READ_FORM.FORM_FILE@P",
      110    17362            CHECK_FOR_INDIRECTION = YES,
      111    17363            RESULT$ = "QI_1.CURRENT.NODE$" );
      112    17400
      113    17401    1       CALL QCF$FIND_CURRENTS;
      114    17402
      115    17403    1       IF NOT QI_1.CURRENT.FORM_STATUS$ -> QI$FORM_STATUS.INDICATORS.OPEN_FLAGS.
             17403                IS_INPUT
      116    17404    1       THEN
      117    17405    2         DO;
      118    17406    2           IF QI_1.CURRENT.FORM_STATUS$ -> QI$FORM_STATUS.INDICATORS.OPEN_FLAGS.
             17406                    IS_OUTPUT
      119    17407    2           THEN
      120    17408    2             QI_1.ERROR_STATUS = %E$FILE_NOT_OPEN_INPUT;
      121    17409    2           ELSE
      122    17410    2             QI_1.ERROR_STATUS = %E$FILE_NOT_OPEN;
      123    17411    2           GOTO CHECK_USE_PROCEDURE_OR_INVALID;
      124    17412    2         END;
      125    17413
      126    17414    1       QCR@READ.FRAME_START_INDEX = 0;
      127    17415    1       QCR@READ.FRAME_STOP_INDEX = QI_1.CURRENT.FORM$ -> QI$FORM_FILE.FRAME_COUNT - 1;
      128    17416    1       QCR@READ.IS_FIELD_INDEXES_VALID = %NO;
PL6.E3A0      #001=QBR$READ_FORM File=QBR$READ_FORM.:E05TSI                      WED 07/30/97 04:54 Page:7
      129    17417
      130    17418    1       CALL QCR$READ ( QCR@READ );
      131    17419
      132    17420        /*  Check return status  */
      133    17421    1       IF QCR@READ.STATUS = %QI#USE_INVALID_RETURN
      134    17422    1       THEN
      135    17423    1         RETURN;
      136    17424
      137    17425    1       IF QI_1.CURRENT.FORM$ -> QI$FORM_FILE.WORD0_FLAGS.IS_ERROR_STATUS_VALID
      138    17426    1       THEN
      139    17427    2         DO;
      140    17428
      141    17429                %DATA_ADDRESS ( THING@D =
             17429                    "QI_1.CURRENT.FORM$ -> QI$FORM_FILE.ERROR_STATUS@D",
      142    17430                CHECK_FOR_INDIRECTION = NO,
      143    17431                RESULT$ = ERROR_STATUS$ );
      144    17468
      145    17469    2           ERROR_STATUS$ -> QI$ERROR_STATUS.TEXT = %QI#OP_READ_FORM_TEXT;
      146    17470
      147    17471    2         END;
      148    17472
      149    17473    1       RETURN;
      150    17474
      151    17475        %EJECT;
PL6.E3A0      #001=QBR$READ_FORM File=QBR$READ_FORM.:E05TSI                      WED 07/30/97 04:54 Page:8
      152    17476    1   CHECK_USE_PROCEDURE_OR_INVALID:
      153    17477    1       QCU@USE.USE_DEFAULT_IO = %QI#USE_DEFAULT_NONE;
      154    17478    1       QCU@USE.IS_TIME_TO_SAVE_AWAY_FIELDS = %NO;
      155    17479    1       QCU@USE.CURR_NODE$ = QI_1.CURRENT.FORM$;
      156    17480    1       QCU@USE.CURR_FRAME$ = ADDR (NIL);
      157    17481
      158    17482    1       CALL QCU$USE_INVALID_IO ( QCU@USE );
      159    17483
      160    17484    2       DO CASE ( QCU@USE.STATUS );
      161    17485
      162    17486    2         CASE ( %QI#USE_INVALID_RETURN );
      163    17487    2           RETURN;
      164    17488
      165    17489    2         CASE ( %QI#USE_INVALID_RETRY );
      166    17490    2           GOTO RETRY_FORM_READ;
      167    17491
      168    17492    2         CASE ( %QI#USE_INVALID_SKIP_TO_NEXT );
      169    17493    2           RETURN;
      170    17494
      171    17495    2         CASE ( ELSE );
      172    17496    2           CALL QCE$ERROR_INTERNAL ( %E$INTERNAL_INTERPRETER_ERROR );
      173    17497
      174    17498    2       END;
      175    17499
      176    17500    1   END QBR$READ_FORM;

PL6.E3A0      #001=QBR$READ_FORM File=QBR$READ_FORM.:E05TSI                      WED 07/30/97 04:54 Page:9
--  Include file information  --

   QCU_USE_M.:E05TOU  is referenced.
   QCR_READ_M.:E05TOU  is referenced.
   QI_MACROS_M.:E05TOU  is referenced.
   QI_PERR_C.:E05TOU  is referenced.
   QI_EQUATES_E.:E05TOU  is referenced.
   QG_MACRO_M.:E05TOU  is referenced.
   LCP_6.:E05TOU  cannot be made into a system file and is referenced.
   G_LCP6_E.:E05TOU  was found in the system file and is referenced.
   GT_LCP6_M.:E05TOU  was found in the system file and is referenced.
   KI_CP6.:E05TOU  was found in the system file and is referenced.
   GF_LCP6_M.:E05TOU  was found in the system file and is referenced.
   GM_LCP6_M.:E05TOU  was found in the system file and is referenced.
   GU_LCP6_M.:E05TOU  was found in the system file and is referenced.
   GJ_LCP6_M.:E05TOU  was found in the system file and is referenced.
   GH_LCP6_M.:E05TOU  was found in the system file and is referenced.
      No diagnostics issued in procedure QBR$READ_FORM.

   Procedure QBR$READ_FORM requires 364 words for executable code.
   Procedure QBR$READ_FORM requires 36 words of local(AUTO) storage.

    No errors detected in file QBR$READ_FORM.:E05TSI    .

PL6.E3A0      #001=QBR$READ_FORM File=QBR$READ_FORM.:E05TSI                      WED 07/30/97 04:54 Page:10

 Object Unit name= QBR$READ_FORM                              File name= QBR$READ_FORM.:E05TOU
 UTS= JUL 30 '97 04:54:57.80 WED                              Compiler= PL-6/E31         Sev=      00
 SharedLib= :SHARED_LCP6_SYSTEM                               Alt SharedLib=


    ****  Control sections  ****

 Sect   Type Bound  Init  Size HexSiz  Section name
    0  RoData even  UTS      1      1  QBR$READ_FORM
    1   Proc  even  none   364    16C  QBR$READ_FORM
    2  RoData even  none     8      8  QBR$READ_FORM

    ****  Entry defs  ****

                              Check   Calling
                             calling  sequence
  Sect HexLoc Primary Altret sequence   type   Parms  Name
     1      0   yes            yes      Std        0  QBR$READ_FORM

  ****  Entry refs  ****

         Check        Calling
        calling       sequence
Altret sequence SRef   type   Args  Name
         yes           Std       0 QCF$FIND_CURRENTS
         yes           Std       4 QCE$ERROR_INTERNAL
         yes           Std       1 QCR$READ
         yes           Std       1 QCU$USE_INVALID_IO
                       nStd      0 X6A_AUTO_0
                       nStd      0 X6D_MID
                       nStd      0 X6A_ARET
PL6.E3A0      #001=QBR$READ_FORM File=QBR$READ_FORM.:E05TSI                      WED 07/30/97 04:54 Page:11

  ****  Data refs  ****

  Flags:  r = read only, s = secondary
Flgs Name                             Flgs Name                             Flgs Name
     QI_1                                  QI_4_CHAR_ALPHANUMERIC                QI_31_DIGIT_SLS_DISPLAY
     QI_16_BIT_BINARY                      QI_32_BIT_BINARY                      QI_31_DIGIT_ST_PACKED
     QI_PICTURE_STRING                r    G$ROS$
PL6.E3A0      #001=QBR$READ_FORM File=QBR$READ_FORM.:E05TSI                      WED 07/30/97 04:54 Page:12


        1        1        /*M* QBR$READ_FORM:  READ form-name.  */
        2        2        /*T***********************************************************/
        3        3        /*T*                                                         */
        4        4        /*T* Copyright (c) Bull HN Information Systems Inc., 1997    */
        5        5        /*T*                                                         */
        6        6        /*T***********************************************************/
        7        7        /*X* DMC,PLM=4,IND=0,DCI=4,CSI=2,IAD=2,DTI=2,AND,ECI=0,DIN=2,STI=2 */
        8        8
        9        9        /*P*  NAME:         QBR$READ_FORM
       10       10              PURPOSE:      Read fields within a form.
       11       11              DESCRIPTION:  Execute a READ_FORM op-code, whose argument is
       12       12                            a QI$FORM_FILE-type DAD.
       13       13        */
       14       14
       15       15        QBR$READ_FORM: PROC;

     15   1 000000  D380 0000 0000  xent QBR$READ_FORM   LNJ,B5   X6A_AUTO_0
          1 000003       0024 0000                       DC       36,0

       16       16
       17       17        /*D*  NAME:         QBR$READ_FORM
       18       18              CALL:         CALL QBR$READ_FORM;
       19       19              PARAMETERS:   None.
       20       20              INTERFACE:    Called by QAT$TALLYHO when a READ_FORM op-code
       21       21                            is encountered.
       22       22              ENVIRONMENT:  Nothing unusual.
       23       23              INPUT:        QI_1,
       24       24                            FPL rununit statis data following the op-code.
       25       25              OUTPUT:       Fills the appropriate field buffers with data read
       26       26                            from a terminal.
       27       27              SCRATCH:      Various otter data.
       28       28              DESCRIPTION:  Checks to see if the FORM to be read is open; if so,
       29       29                            calls QCI$IO_READ to read the appropriate fields
       30       30                            (see commentary in that module).
       31       31        */
       32       32
PL6.E3A0      #001=QBR$READ_FORM File=QBR$READ_FORM.:E05TSI                      WED 07/30/97 04:54 Page:13
       33       33          %INCLUDE LCP_6;
       34      224
       35      225          %INCLUDE QG_MACRO_M;
       36      362          %INCLUDE QI_EQUATES_E;
       37      721          %INCLUDE QI_PERR_C;
       38      889          %INCLUDE QI_MACROS_M;
       39     5947          %QI$ALL;
       40    17060
       41    17061    1     DCL ERROR_STATUS$ PTR;
       42    17062    1     DCL INSTR$ PTR;
       43    17063
       44    17064    1     DCL QCE$ERROR_INTERNAL ENTRY (4);
       45    17065    1     DCL QCF$FIND_CURRENTS ENTRY;
       46    17066    1     DCL QCR$READ ENTRY (1);
       47    17067    1     DCL QCU$USE_INVALID_IO ENTRY (1);
       48    17068
       49    17069          %SET LISTMAC = '1'B;
       50    17070
       51    17071          %INCLUDE QCR_READ_M;
       52    17111          %QCR@READ;
             17112            %BEGIN_MACRO ( STCLASS = STCLASS );
             17113            %SET LISTDIR = '0'B;
             17126    1     DCL 1 QCR@READ ALIGNED,
             17127    1           2 FRAME_START_INDEX UBIN,
             17128                          /* Starting index into QI$FORM_FILE.FRAME_LIST_A@P.  */
             17129    1           2 FRAME_STOP_INDEX UBIN,
             17130                          /* Starting index into QI$FORM_FILE.FRAME_LIST_A@P.  */
             17131    1           2 IS_FIELD_INDEXES_VALID BIT(1) ALIGNED,
             17132                          /* If IS_FIELD_INDEXES_VALID, use them;
             17133                             else use all the fields in the frame.  */
             17134    1           2 FIELD_START_INDEX UBIN,
             17135                          /* Starting index into QI$GZ_FIELD table.  */
             17136    1           2 FIELD_STOP_INDEX UBIN,
             17137                          /* Stopping index into QI$GZ_FIELD table.  */
             17138    1           2 IS_CURSOR_POSITION_VALID BIT(1) ALIGNED,
             17139                          /* If IS_CURSOR_POSITION_VALID, use it;
             17140                             else allow cursor to default to upper-left-most field.  */
PL6.E3A0      #001=QBR$READ_FORM File=QBR$READ_FORM.:E05TSI                      WED 07/30/97 04:54 Page:14
             17141    1           2 CURSOR_POSITION BIT(16) ALIGNED,
             17142                          /* POSition of the field on which to place the cursor.  */
             17143    1           2 STATUS UBIN,
             17144                          /* Returned status code:  0 -> Immediate return to level 0;
             17145                                                   >0 -> Status is ok.  */
             17146    1           2 FIELD_ERROR_STOP_INDEX UBIN;
             17147                          /* Passed index for QCG$GET_FIELD processing.  */
             17154            %ENDIF;
       53    17157
       54    17158          %INCLUDE QCU_USE_M;
       55    17212          %QCU@USE;
             17213            %BEGIN_MACRO;
             17214            %SET LISTDIR = '0'B;
             17227    1     DCL 1 QCU@USE AUTO ALIGNED,
             17228    1           2 CURR_FRAME$ PTR,
             17229                          /* Pointer to DAD of current frame or ADDR (NIL).  */
             17230    1           2 CURR_NODE$ PTR,
             17231                          /* Pointer to current node or ADDR (NIL).  */
             17232    1           2 USE_DEFAULT_IO UBIN,
             17233                          /* For USE procedures which default applies
             17234                             (see corresponding EQUs).  */
             17235    1           2 IS_TIME_TO_SAVE_AWAY_FIELDS BIT(1) ALIGNED,
             17236                          /* If IS_TIME_TO_SAVE_AWAY_FIELDS, then
             17237                             save the fields within the bounds of
             17238                             FRAME_START_INDEX, FRAME_STOP_INDEX,
             17239                             FIELD_START_INDEX, and FIELD_STOP_INDEX
             17240                             before calling the USE procedure.  */
             17241    1           2 FRAME_START_INDEX UBIN,
             17242                          /* Foist frame of the CURRENT.FORM$
             17243                             involved with the I-O error.  */
             17244    1           2 FRAME_STOP_INDEX UBIN,
             17245                          /* Larst frame of the CURRENT.FORM$
             17246                             involved with the I-O error.  */
             17247    1           2 IS_FIELD_INDEXES_VALID BIT(1) ALIGNED,
             17248                          /* If IS_FIELD_INDEXES_VALID, use them;
             17249                             else use all the fields in the frame.  */
             17250    1           2 FIELD_START_INDEX UBIN,
PL6.E3A0      #001=QBR$READ_FORM File=QBR$READ_FORM.:E05TSI                      WED 07/30/97 04:54 Page:15
             17251                          /* Starting index into QI$GZ_FIELD
             17252                             which may have values "pushed".  */
             17253    1           2 FIELD_STOP_INDEX UBIN,
             17254                          /* Stopping index into QI$GZ_FIELD
             17255                             which may have values "pushed".  */
             17256    1           2 IS_CURSOR_POSITION_VALID BIT(1) ALIGNED,
             17257                          /* If IS_CURSOR_POSITION_VALID, use it;
             17258                             else allow cursor to default to upper-left-most field.  */
             17259    1           2 CURSOR_POSITION BIT(16) ALIGNED,
             17260                          /* POSition of the field on which to place the cursor.  */
             17261    1           2 STATUS UBIN;
             17262                          /* Returned action code; see corresponding EQUs.  */
             17269            %ENDIF;
       56    17272
       57    17273          %SET LISTMAC = '0'B;
       58    17274        %EJECT;
PL6.E3A0      #001=QBR$READ_FORM File=QBR$READ_FORM.:E05TSI                      WED 07/30/97 04:54 Page:16
       59    17275    1       INSTR$ = QI_1.INSTR$;

  17275   1 000005  EC80 0000 0006  xsym                 LDB,B6   QI_1+6
          1 000008  EFC7 0006                            STB,B6   INSTR$,AUTO

       60    17276    1       QI_1.INSTR$ = ADDR ( INSTR$ -> QI$OP_READ_FORM.NEXT_CODE@P );

  17276   1 00000A  DBC6 0004                            LAB,B5   4,B6
          1 00000C  DF80 0000 0006  xsym                 STB,B5   QI_1+6

       61    17277
       62    17278    1   RETRY_FORM_READ:
       63    17279    1       QI_1.A_REG = 0;

  17279   1 00000F  8700 0000 0054  xsym RETRY_FORM_READ CL       QI_1+84

       64    17280
       65    17281    1       IF INSTR$ -> QI$OP_READ_FORM.IS_POSITIONING_CURSOR

  17281   1 000012  ECC7 0006                            LDB,B6   INSTR$,AUTO
          1 000014  89C6 0002                            CMZ      2,B6
          1 000016  0881 008E                            BAGE     s:17359,PREL

       66    17282    1       THEN
       67    17283    1   PREPARE_CURSOR_FIELD:
       68    17284    2         DO;

  17284   1                              PREPARE_CURSOR_*null
       69    17285                %PROC_ADDRESS ( THING@P = "INSTR$ -> QI$OP_READ_FORM.CURSOR_FIELD@P",
       70    17286                CHECK_FOR_INDIRECTION = YES,
       71    17287                RESULT$ = "QI_1.CURRENT.NODE$" );

  17305   1 000018  B846 0003            PREPARE_CURSOR_*LDR,R3   3,B6
          1 00001A  F853                                 LDR,R7   R3
          1 00001B  6C00                                 LDV,R6   0
          1 00001C  8400 0000 0002  xsym                 AID      QI_1+2
          1 00001F  8D00 0000 0080  xsym                 SDI      QI_1+128
PL6.E3A0      #001=QBR$READ_FORM File=QBR$READ_FORM.:E05TSI                      WED 07/30/97 04:54 Page:17

  17307   1 000022  DC80 0000 0080  xsym                 LDB,B5   QI_1+128
          1 000025  8985                                 CMZ      ,B5
          1 000026  0881 001C                            BAGE     s:17325,PREL

  17308   1 000028  EC80 0000 0080  xsym                 LDB,B6   QI_1+128
          1 00002B  E806                                 LDR,R6   ,B6
          1 00002C  6046                                 SOR,R6   6
          1 00002D  E570 0001                            AND,R6   1,IMO
          1 00002F  B846 0002                            LDR,R3   2,B6
          1 000031  A856                                 LDR,R2   R6
          1 000032  DCA0 0000 0000  xsym                 LDB,B5   QI_1,R2
          1 000035  DFC7 0020                            STB,B5   QCU@USE+15,AUTO
          1 000037  F853                                 LDR,R7   R3
          1 000038  6C00                                 LDV,R6   0
          1 000039  8447 0020                            AID      QCU@USE+15,AUTO
          1 00003B  8D00 0000 0080  xsym                 SDI      QI_1+128

  17312   1 00003E  EC80 0000 0080  xsym                 LDB,B6   QI_1+128
          1 000041  8986                                 CMZ      ,B6
          1 000042  0866                                 BAL      s:17308,SPREL

       72    17324
       73    17325    2           CALL QCF$FIND_CURRENTS;

  17325   1 000043  CBF0 0000                            LAB,B4   0,IMO
          1 000045  E380 0000 0000  xent                 LNJ,B6   QCF$FIND_CURRENTS
          1 000048       0001                            DC       s:17327,PREL

       74    17326
       75    17327    2           IF NOT QI_1.CURRENT.FRAME_STATUS$ -> QI$FRAME_STATUS.INDICATORS.IS_ACTIVE

  17327   1 000049  EC80 0000 007C  xsym                 LDB,B6   QI_1+124
          1 00004C  89C6 000C                            CMZ      12,B6
          1 00004E  0801 0007                            BAL      s:17336,PREL

       76    17328    2           THEN
PL6.E3A0      #001=QBR$READ_FORM File=QBR$READ_FORM.:E05TSI                      WED 07/30/97 04:54 Page:18
       77    17329    3             DO;

       78    17330    3               QI_1.ERROR_STATUS = %E$FRAME_NOT_ACTIVE;

  17330   1 000050  6C07                                 LDV,R6   7
          1 000051  EF00 0000 008C  xsym                 STR,R6   QI_1+140

       79    17331    3               GOTO CHECK_USE_PROCEDURE_OR_INVALID;

  17331   1 000054  0F81 00DB                            B        s:17477,PREL

       80    17332    3             END;
       81    17333
       82    17334                %IF QI#DEBUG;
       83    17335
       84    17336    3           DO CASE ( QI_1.CURRENT.NODE$ -> QI$FIELD_DAD.WORD0_FLAGS.TYPE );

  17336   1 000056  DC80 0000 0080  xsym                 LDB,B5   QI_1+128
          1 000059  B805                                 LDR,R3   ,B5
          1 00005A  B570 000F                            AND,R3   15,IMO
          1 00005C  3D04                                 CMV,R3   4
          1 00005D  0281 000B                            BGE      s:17342,PREL
          1 00005F  A830 0000 0065  01                   LDR,R2   s:17336+15,R3
          1 000062  83A0 0000 0069  01                   JMP      s:17342,R2
          1 000065       0009                            DC       s:17346,PREL
          1 000066       0000                            DC       s:17342,PREL
          1 000067       0000                            DC       s:17342,PREL
          1 000068       0009                            DC       s:17346,PREL

       85    17337
       86    17338    3             CASE ( %QI#TYPE_DISPLAY,

       87    17339    3             %QI#TYPE_ALPHANUMERIC );
       88    17340
       89    17341    3             CASE ( ELSE );

       90    17342    3               CALL QCE$ERROR_INTERNAL ( %E$INTERNAL_COMPILER_ERROR );
PL6.E3A0      #001=QBR$READ_FORM File=QBR$READ_FORM.:E05TSI                      WED 07/30/97 04:54 Page:19

  17342   1 000069  BB80 0000 0001  02                   LAB,B3   +1
          1 00006C  CBF0 0100                            LAB,B4   256,IMO
          1 00006E  E380 0000 0000  xent                 LNJ,B6   QCE$ERROR_INTERNAL
          1 000071       0001                            DC       s:17346,PREL

       91    17343
       92    17344    3           END;

       93    17345
       94    17346    2           IF QI_1.CURRENT.NODE_STATUS$ -> QI$FIELD_STATUS.GZ.FIELD_START_INDEX ~=

  17346   1 000072  EC80 0000 0082  xsym                 LDB,B6   QI_1+130
          1 000075  E806                                 LDR,R6   ,B6
          1 000076  E946 0001                            CMR,R6   1,B6
          1 000078  0901 000A                            BE       s:17353,PREL

       95    17347    2             QI_1.CURRENT.NODE_STATUS$ -> QI$FIELD_STATUS.GZ.FIELD_STOP_INDEX
       96    17348    2           THEN
       97    17349    2             CALL QCE$ERROR_INTERNAL ( %E$INTERNAL_INTERPRETER_ERROR );

  17349   1 00007A  BB80 0000 0004  02                   LAB,B3   +4
          1 00007D  CBF0 0100                            LAB,B4   256,IMO
          1 00007F  E380 0000 0000  xent                 LNJ,B6   QCE$ERROR_INTERNAL
          1 000082       0001                            DC       s:17353,PREL

       98    17350
       99    17351                %ENDIF;
      100    17352
      101    17353    2           QCR@READ.CURSOR_POSITION = PINCRW ( QI_1.CURRENT.FRAME_STATUS$ ->
             17353                    QI$FRAME_STATUS.GZ.START$,

  17353   1 000083  EC80 0000 0082  xsym                 LDB,B6   QI_1+130
          1 000086  B806                                 LDR,R3   ,B6
          1 000087  DC80 0000 007C  xsym                 LDB,B5   QI_1+124
          1 00008A  CCC5 0006                            LDB,B4   6,B5
          1 00008C  CFC7 0020                            STB,B4   QCU@USE+15,AUTO
PL6.E3A0      #001=QBR$READ_FORM File=QBR$READ_FORM.:E05TSI                      WED 07/30/97 04:54 Page:20
          1 00008E  F853                                 LDR,R7   R3
          1 00008F  6C00                                 LDV,R6   0
          1 000090  9B80 0000 0006  02                   LAB,B1   +6
          1 000093  D380 0000 0000  xent                 LNJ,B5   X6D_MID
          1 000096  8447 0020                            AID      QCU@USE+15,AUTO
          1 000098  8D47 0022                            SDI      QCU@USE+17,AUTO
          1 00009A  ECC7 0022                            LDB,B6   QCU@USE+17,AUTO
          1 00009C  D846 0003                            LDR,R5   3,B6
          1 00009E  DF47 000E                            STR,R5   QCR@READ+6,AUTO

      102    17354    2             QI_1.CURRENT.NODE_STATUS$ -> QI$FIELD_STATUS.GZ.FIELD_START_INDEX * SIZEW
             17354                      (QI$GZ_FIELD) ) ->
      103    17355    2             QI$GZ_FIELD.DESCRIPTION.POSITION;
      104    17356    2           QCR@READ.IS_CURSOR_POSITION_VALID = %YES;

  17356   1 0000A0  8947 000D                            LBT,'8000'X       QCR@READ+5,AUTO
  17356   1 0000A2       8000

      105    17357    2         END PREPARE_CURSOR_FIELD;

  17357   1 0000A3  0F81 0003                            B        s:17381,PREL

      106    17358    1       ELSE
      107    17359    1         QCR@READ.IS_CURSOR_POSITION_VALID = %NO;

  17359   1 0000A5  8747 000D                            CL       QCR@READ+5,AUTO

      108    17360
      109    17361            %PROC_ADDRESS ( THING@P = "INSTR$ -> QI$OP_READ_FORM.FORM_FILE@P",
      110    17362            CHECK_FOR_INDIRECTION = YES,
      111    17363            RESULT$ = "QI_1.CURRENT.NODE$" );

  17381   1 0000A7  ECC7 0006                            LDB,B6   INSTR$,AUTO
          1 0000A9  B846 0001                            LDR,R3   1,B6
          1 0000AB  F853                                 LDR,R7   R3
          1 0000AC  6C00                                 LDV,R6   0
          1 0000AD  8400 0000 0002  xsym                 AID      QI_1+2
PL6.E3A0      #001=QBR$READ_FORM File=QBR$READ_FORM.:E05TSI                      WED 07/30/97 04:54 Page:21
          1 0000B0  8D00 0000 0080  xsym                 SDI      QI_1+128

  17383   1 0000B3  DC80 0000 0080  xsym                 LDB,B5   QI_1+128
          1 0000B6  8985                                 CMZ      ,B5
          1 0000B7  0881 001C                            BAGE     s:17401,PREL

  17384   1 0000B9  EC80 0000 0080  xsym                 LDB,B6   QI_1+128
          1 0000BC  E806                                 LDR,R6   ,B6
          1 0000BD  6046                                 SOR,R6   6
          1 0000BE  E570 0001                            AND,R6   1,IMO
          1 0000C0  B846 0002                            LDR,R3   2,B6
          1 0000C2  A856                                 LDR,R2   R6
          1 0000C3  DCA0 0000 0000  xsym                 LDB,B5   QI_1,R2
          1 0000C6  DFC7 0020                            STB,B5   QCU@USE+15,AUTO
          1 0000C8  F853                                 LDR,R7   R3
          1 0000C9  6C00                                 LDV,R6   0
          1 0000CA  8447 0020                            AID      QCU@USE+15,AUTO
          1 0000CC  8D00 0000 0080  xsym                 SDI      QI_1+128

  17388   1 0000CF  EC80 0000 0080  xsym                 LDB,B6   QI_1+128
          1 0000D2  8986                                 CMZ      ,B6
          1 0000D3  0866                                 BAL      s:17384,SPREL

      112    17400
      113    17401    1       CALL QCF$FIND_CURRENTS;

  17401   1 0000D4  CBF0 0000                            LAB,B4   0,IMO
          1 0000D6  E380 0000 0000  xent                 LNJ,B6   QCF$FIND_CURRENTS
          1 0000D9       0001                            DC       s:17403,PREL

      114    17402
      115    17403    1       IF NOT QI_1.CURRENT.FORM_STATUS$ -> QI$FORM_STATUS.INDICATORS.OPEN_FLAGS.
             17403                IS_INPUT

  17403   1 0000DA  EC80 0000 0078  xsym                 LDB,B6   QI_1+120
          1 0000DD  82C6 0008                            LB,'0200'X        8,B6
          1 0000DF       0200
PL6.E3A0      #001=QBR$READ_FORM File=QBR$READ_FORM.:E05TSI                      WED 07/30/97 04:54 Page:22
          1 0000E0  0501 0012                            BBT      s:17414,PREL

      116    17404    1       THEN
      117    17405    2         DO;

      118    17406    2           IF QI_1.CURRENT.FORM_STATUS$ -> QI$FORM_STATUS.INDICATORS.OPEN_FLAGS.
             17406                    IS_OUTPUT

  17406   1 0000E2  82C6 0008                            LB,'0400'X        8,B6
  17406   1 0000E4       0400
          1 0000E5  0581 0007                            BBF      s:17410,PREL

      119    17407    2           THEN
      120    17408    2             QI_1.ERROR_STATUS = %E$FILE_NOT_OPEN_INPUT;

  17408   1 0000E7  6C05                                 LDV,R6   5
          1 0000E8  EF00 0000 008C  xsym                 STR,R6   QI_1+140
          1 0000EB  0F81 0005                            B        s:17411,PREL

      121    17409    2           ELSE
      122    17410    2             QI_1.ERROR_STATUS = %E$FILE_NOT_OPEN;

  17410   1 0000ED  6C01                                 LDV,R6   1
          1 0000EE  EF00 0000 008C  xsym                 STR,R6   QI_1+140

      123    17411    2           GOTO CHECK_USE_PROCEDURE_OR_INVALID;

  17411   1 0000F1  0F81 003E                            B        s:17477,PREL

      124    17412    2         END;
      125    17413
      126    17414    1       QCR@READ.FRAME_START_INDEX = 0;

  17414   1 0000F3  8747 0008                            CL       QCR@READ,AUTO

      127    17415    1       QCR@READ.FRAME_STOP_INDEX = QI_1.CURRENT.FORM$ -> QI$FORM_FILE.FRAME_COUNT - 1;

PL6.E3A0      #001=QBR$READ_FORM File=QBR$READ_FORM.:E05TSI                      WED 07/30/97 04:54 Page:23
  17415   1 0000F5  DC80 0000 0076  xsym                 LDB,B5   QI_1+118
          1 0000F8  E845 0001                            LDR,R6   1,B5
          1 0000FA  6EFF                                 ADV,R6   -1
          1 0000FB  EF47 0009                            STR,R6   QCR@READ+1,AUTO

      128    17416    1       QCR@READ.IS_FIELD_INDEXES_VALID = %NO;

  17416   1 0000FD  8747 000A                            CL       QCR@READ+2,AUTO

      129    17417
      130    17418    1       CALL QCR$READ ( QCR@READ );

  17418   1 0000FF  CBC7 0008                            LAB,B4   QCR@READ,AUTO
          1 000101  CFC7 0020                            STB,B4   QCU@USE+15,AUTO
          1 000103  BBC7 0020                            LAB,B3   QCU@USE+15,AUTO
          1 000105  CBF0 0100                            LAB,B4   256,IMO
          1 000107  E380 0000 0000  xent                 LNJ,B6   QCR$READ
          1 00010A       0001                            DC       s:17421,PREL

      131    17419
      132    17420        /*  Check return status  */
      133    17421    1       IF QCR@READ.STATUS = %QI#USE_INVALID_RETURN

  17421   1 00010B  E847 000F                            LDR,R6   QCR@READ+7,AUTO
          1 00010D  6981 0004                            BNEZ,R6  s:17425,PREL

      134    17422    1       THEN
      135    17423    1         RETURN;

  17423   1 00010F  C380 0000 0000  xent                 LNJ,B4   X6A_ARET

      136    17424
      137    17425    1       IF QI_1.CURRENT.FORM$ -> QI$FORM_FILE.WORD0_FLAGS.IS_ERROR_STATUS_VALID

  17425   1 000112  EC80 0000 0076  xsym                 LDB,B6   QI_1+118
          1 000115  8286                                 LB,'4000'X        ,B6
          1 000116       4000
PL6.E3A0      #001=QBR$READ_FORM File=QBR$READ_FORM.:E05TSI                      WED 07/30/97 04:54 Page:24
          1 000117  0581 0014                            BBF      s:17473,PREL

      138    17426    1       THEN
      139    17427    2         DO;

      140    17428
      141    17429                %DATA_ADDRESS ( THING@D =
             17429                    "QI_1.CURRENT.FORM$ -> QI$FORM_FILE.ERROR_STATUS@D",
      142    17430                CHECK_FOR_INDIRECTION = NO,
      143    17431                RESULT$ = ERROR_STATUS$ );

  17449   1 000119  B846 0003                            LDR,R3   3,B6
          1 00011B  F853                                 LDR,R7   R3
          1 00011C  6C00                                 LDV,R6   0
          1 00011D  8400 0000 0000  xsym                 AID      QI_1
          1 000120  8D47 0004                            SDI      ERROR_STATUS$,AUTO

      144    17468
      145    17469    2           ERROR_STATUS$ -> QI$ERROR_STATUS.TEXT = %QI#OP_READ_FORM_TEXT;

  17469   1 000122  DB80 0000 0000  00                   LAB,B5   0
          1 000125  CCC7 0004                            LDB,B4   ERROR_STATUS$,AUTO
          1 000127  0021                                 ALR      ;
          1 000128       4205 0000                                ALPHANUM(0,B5,,2),;
          1 00012A       4804 0000                                ALPHANUM(0,B4,,8,FILL)

      146    17470
      147    17471    2         END;

      148    17472
      149    17473    1       RETURN;

  17473   1 00012C  437F                                 CSYNC    s:17469+9,SPREL
          1 00012D  C380 0000 0000  xent                 LNJ,B4   X6A_ARET

      150    17474
      151    17475        %EJECT;
PL6.E3A0      #001=QBR$READ_FORM File=QBR$READ_FORM.:E05TSI                      WED 07/30/97 04:54 Page:25
      152    17476    1   CHECK_USE_PROCEDURE_OR_INVALID:
      153    17477    1       QCU@USE.USE_DEFAULT_IO = %QI#USE_DEFAULT_NONE;

  17477   1 000130  8747 0015            CHECK_USE_PROCE*CL       QCU@USE+4,AUTO

      154    17478    1       QCU@USE.IS_TIME_TO_SAVE_AWAY_FIELDS = %NO;

  17478   1 000132  8747 0016                            CL       QCU@USE+5,AUTO

      155    17479    1       QCU@USE.CURR_NODE$ = QI_1.CURRENT.FORM$;

  17479   1 000134  EC80 0000 0076  xsym                 LDB,B6   QI_1+118
          1 000137  EFC7 0013                            STB,B6   QCU@USE+2,AUTO

      156    17480    1       QCU@USE.CURR_FRAME$ = ADDR (NIL);

  17480   1 000139  DB80 0000 0000                       LAB,B5   0
          1 00013C  DFC7 0011                            STB,B5   QCU@USE,AUTO

      157    17481
      158    17482    1       CALL QCU$USE_INVALID_IO ( QCU@USE );

  17482   1 00013E  CBC7 0011                            LAB,B4   QCU@USE,AUTO
          1 000140  CFC7 0020                            STB,B4   QCU@USE+15,AUTO
          1 000142  BBC7 0020                            LAB,B3   QCU@USE+15,AUTO
          1 000144  CBF0 0100                            LAB,B4   256,IMO
          1 000146  E380 0000 0000  xent                 LNJ,B6   QCU$USE_INVALID_IO
          1 000149       0001                            DC       s:17484,PREL

      159    17483
      160    17484    2       DO CASE ( QCU@USE.STATUS );

  17484   1 00014A  B847 001E                            LDR,R3   QCU@USE+13,AUTO
          1 00014C  3D03                                 CMV,R3   3
          1 00014D  0281 0012                            BGE      s:17496,PREL
          1 00014F  A830 0000 0155  01                   LDR,R2   s:17484+11,R3
          1 000152  83A0 0000 0158  01                   JMP      s:17487,R2
PL6.E3A0      #001=QBR$READ_FORM File=QBR$READ_FORM.:E05TSI                      WED 07/30/97 04:54 Page:26
          1 000155       0000                            DC       s:17487,PREL
          1 000156       0003                            DC       s:17490,PREL
          1 000157       0005                            DC       s:17493,PREL

      161    17485
      162    17486    2         CASE ( %QI#USE_INVALID_RETURN );

      163    17487    2           RETURN;

  17487   1 000158  C380 0000 0000  xent                 LNJ,B4   X6A_ARET

      164    17488
      165    17489    2         CASE ( %QI#USE_INVALID_RETRY );

      166    17490    2           GOTO RETRY_FORM_READ;

  17490   1 00015B  0F81 FEB3                            B        s:17279,PREL

      167    17491
      168    17492    2         CASE ( %QI#USE_INVALID_SKIP_TO_NEXT );

      169    17493    2           RETURN;

  17493   1 00015D  C380 0000 0000  xent                 LNJ,B4   X6A_ARET

      170    17494
      171    17495    2         CASE ( ELSE );

      172    17496    2           CALL QCE$ERROR_INTERNAL ( %E$INTERNAL_INTERPRETER_ERROR );

  17496   1 000160  BB80 0000 0004  02                   LAB,B3   +4
          1 000163  CBF0 0100                            LAB,B4   256,IMO
          1 000165  E380 0000 0000  xent                 LNJ,B6   QCE$ERROR_INTERNAL
          1 000168       0001                            DC       s:17500,PREL

      173    17497
      174    17498    2       END;
PL6.E3A0      #001=QBR$READ_FORM File=QBR$READ_FORM.:E05TSI                      WED 07/30/97 04:54 Page:27

      175    17499
      176    17500    1   END QBR$READ_FORM;

  17500   1 000169  C380 0000 0000  xent                 LNJ,B4   X6A_ARET

PL6.E3A0      #001=QBR$READ_FORM File=QBR$READ_FORM.:E05TSI                      WED 07/30/97 04:54 Page:28
--  Include file information  --

   QCU_USE_M.:E05TOU  is referenced.
   QCR_READ_M.:E05TOU  is referenced.
   QI_MACROS_M.:E05TOU  is referenced.
   QI_PERR_C.:E05TOU  is referenced.
   QI_EQUATES_E.:E05TOU  is referenced.
   QG_MACRO_M.:E05TOU  is referenced.
   LCP_6.:E05TOU  cannot be made into a system file and is referenced.
   G_LCP6_E.:E05TOU  was found in the system file and is referenced.
   GT_LCP6_M.:E05TOU  was found in the system file and is referenced.
   KI_CP6.:E05TOU  was found in the system file and is referenced.
   GF_LCP6_M.:E05TOU  was found in the system file and is referenced.
   GM_LCP6_M.:E05TOU  was found in the system file and is referenced.
   GU_LCP6_M.:E05TOU  was found in the system file and is referenced.
   GJ_LCP6_M.:E05TOU  was found in the system file and is referenced.
   GH_LCP6_M.:E05TOU  was found in the system file and is referenced.
      No diagnostics issued in procedure QBR$READ_FORM.
PL6.E3A0      #001=QBR$READ_FORM File=QBR$READ_FORM.:E05TSI                      WED 07/30/97 04:54 Page:29

 **** Variables and constants ****

  ****  Auto variables  ****

  ****  Scalars and arrays  ****
HexLoc.c.b A Datatyp(siz) R M Lvl/name                 HexLoc.c.b A Datatyp(siz) R M Lvl/name

     4-0-0/w PTR         r     1 ERROR_STATUS$              6-0-0/w PTR         r     1 INSTR$
     8-0-0/w STRC(144)   r     1 QCR@READ                  11-0-0/w STRC(224)   r     1 QCU@USE

  ****  SYMREF variables  ****

  ****  Scalars and arrays  ****
HexLoc.c.b A Datatyp(siz) R M Lvl/name                 HexLoc.c.b A Datatyp(siz) R M Lvl/name

     0-0-0/d STRC(2576)  r     1 QI_1

  ****  BASED and DCB variables  ****

  ****  Scalars and arrays  ****
HexLoc.c.b A Datatyp(siz) R M Lvl/name                 HexLoc.c.b A Datatyp(siz) R M Lvl/name

     0-0-0/w STRC(48)    r     1 QI$DAD                     0-0-0/c STRC(64)    r     1 QI$ERROR_STATUS
     0-0-0/w STRC(384)   r     1 QI$FIELD_DAD               0-0-0/w STRC(48)    r     1 QI$FIELD_STATUS
     0-0-0/w STRC(192)   r     1 QI$FORM_FILE               0-0-0/w STRC(144)   r     1 QI$FORM_STATUS
     0-0-0/w STRC(208)   r     1 QI$FRAME_STATUS            0-0-0/w STRC(184)   r     1 QI$GZ_FIELD
     0-0-0/w STRC(80)    r     1 QI$OP_READ_FORM
     0-0-0/c ASTR(8)     r     1 QI$VARIABLE_IDENTIFIER


   Procedure QBR$READ_FORM requires 364 words for executable code.
   Procedure QBR$READ_FORM requires 36 words of local(AUTO) storage.

    No errors detected in file QBR$READ_FORM.:E05TSI    .
PL6.E3A0      #001=QBR$READ_FORM File=QBR$READ_FORM.:E05TSI                      WED 07/30/97 04:54 Page:30
          *** CROSS REFERENCE LISTING ***
**     DENOTES     IDENTIFIER DEFINITION
<<                 IDENTIFIER'S VALUE SET
>>                 IDENTIFIER'S VALUE USED
<>                 IDENTIFIER SET AND/OR USED
--                 IDENTIFIER REFERENCED
PL6.E3A0      #001=QBR$READ_FORM File=QBR$READ_FORM.:E05TSI                      WED 07/30/97 04:54 Page:31
          MINI XREF LISTING

CHECK_USE_PROCEDURE_OR_INVALID
     17477**LABEL   17331--GOTO    17411--GOTO
ERROR_STATUS$
     17061**DCL     17449<<ASSIGN  17469>>ASSIGN
INSTR$
     17062**DCL     17275<<ASSIGN  17276>>ASSIGN  17281>>IF      17305>>ASSIGN  17381>>ASSIGN
QCE$ERROR_INTERNAL
     17064**DCL-ENT 17342--CALL    17349--CALL    17496--CALL
QCF$FIND_CURRENTS
     17065**DCL-ENT 17325--CALL    17401--CALL
QCR$READ
     17066**DCL-ENT 17418--CALL
QCR@READ
     17126**DCL     17418<>CALL
QCR@READ.CURSOR_POSITION
     17141**DCL     17353<<ASSIGN
QCR@READ.FRAME_START_INDEX
     17127**DCL     17414<<ASSIGN
QCR@READ.FRAME_STOP_INDEX
     17129**DCL     17415<<ASSIGN
QCR@READ.IS_CURSOR_POSITION_VALID
     17138**DCL     17356<<ASSIGN  17359<<ASSIGN
QCR@READ.IS_FIELD_INDEXES_VALID
     17131**DCL     17416<<ASSIGN
QCR@READ.STATUS
     17143**DCL     17421>>IF
QCU$USE_INVALID_IO
     17067**DCL-ENT 17482--CALL
QCU@USE
     17227**DCL     17482<>CALL
QCU@USE.CURR_FRAME$
     17228**DCL     17480<<ASSIGN
PL6.E3A0      #001=QBR$READ_FORM File=QBR$READ_FORM.:E05TSI                      WED 07/30/97 04:54 Page:32
QCU@USE.CURR_NODE$
     17230**DCL     17479<<ASSIGN
QCU@USE.IS_TIME_TO_SAVE_AWAY_FIELDS
     17235**DCL     17478<<ASSIGN
QCU@USE.STATUS
     17261**DCL     17484>>DOCASE
QCU@USE.USE_DEFAULT_IO
     17232**DCL     17477<<ASSIGN
QGB_PARAM.DVE.DVBYTE.VFC
     11544**DCL     11545--REDEF
QGB_PARAM.DVE.EOMCHAR
     11556**DCL     11557--REDEF
QGB_PARAM.MSG$
     11538**DCL     11539--REDEF
QGB_PARAM.UHDR$
     11563**DCL     11564--REDEF
QI$ACTIVATION_STATUS
      9302**DCL      9308--REDEF
QI$CIP
      8143**DCL      8213--REDEF
QI$CIP.CA
      8148**DCL      8152--REDEF    8155--REDEF    8158--REDEF
QI$COBOL_DAD.PSEUDO_CIP
      8387**DCL      8412--REDEF
QI$COBOL_DAD.PSEUDO_CIP.ALPHANUMERIC
      8389**DCL      8394--REDEF
QI$COBOL_DAD.PSEUDO_CIP.NUMERIC.CB
      8395**DCL      8398--REDEF    8401--REDEF
QI$COBOL_DAD.VARIABLE_LENGTH_ITEMS
      8423**DCL      8439--REDEF    8447--REDEF    8455--REDEF
QI$COBOL_DAD.VARIABLE_LENGTH_ITEMS.LEVEL_MULTIPLIERS
      8424**DCL      8434--REDEF    8437--REDEF
QI$COBOL_DAD.WORD0
      8351**DCL      8352--REDEF    8366--REDEF
QI$COBOL_DAD_P_BITS.P
      8491**DCL      8497--REDEF
PL6.E3A0      #001=QBR$READ_FORM File=QBR$READ_FORM.:E05TSI                      WED 07/30/97 04:54 Page:33
QI$CONDITION_CONTROL_BLOCK.LIST_A@P
      7977**DCL      7978--REDEF
QI$CONDITION_CONTROL_BLOCK.WORD0_FLAGS
      7973**DCL      7976--REDEF
QI$CONDITION_LEGAL_BLOCK.ARRAY@P
      8010**DCL      8011--REDEF    8012--REDEF
QI$DAD.PSEUDO_CIP
      8290**DCL      8315--REDEF
QI$DAD.PSEUDO_CIP.ALPHANUMERIC
      8292**DCL      8297--REDEF
QI$DAD.PSEUDO_CIP.DATA@
      8314**DCL     17308>>ASSIGN  17384>>ASSIGN
QI$DAD.PSEUDO_CIP.NUMERIC.CB
      8298**DCL      8301--REDEF    8304--REDEF
QI$DAD.WORD0
      8259**DCL      8260--REDEF
QI$DAD.WORD0_FLAGS.INDIRECT
      8261**DCL     17307>>DOWHILE 17383>>DOWHILE
QI$DAD.WORD0_FLAGS.IS_CONSTANT
      8266**DCL     17308>>ASSIGN  17384>>ASSIGN
QI$ERROR_MESSAGE_LINE
     11651**DCL     11653--REDEF
QI$ERROR_STATUS
     11648**DCL     11650--REDEF
QI$ERROR_STATUS.TEXT
     11649**DCL     17469<<ASSIGN
QI$FIELD_DAD.ELEMENTARY_ITEM.P
      8705**DCL      8712--REDEF
QI$FIELD_DAD.ONE_DIMENSIONAL_ITEM.P
      8725**DCL      8732--REDEF
QI$FIELD_DAD.PSEUDO_CIP
      8632**DCL      8657--REDEF
QI$FIELD_DAD.PSEUDO_CIP.ALPHANUMERIC
      8634**DCL      8639--REDEF
QI$FIELD_DAD.PSEUDO_CIP.NUMERIC.CB
      8640**DCL      8643--REDEF    8646--REDEF
PL6.E3A0      #001=QBR$READ_FORM File=QBR$READ_FORM.:E05TSI                      WED 07/30/97 04:54 Page:34
QI$FIELD_DAD.TWO_DIMENSIONAL_ITEM.P
      8745**DCL      8752--REDEF
QI$FIELD_DAD.VARIABLE_LENGTH_ITEMS
      8688**DCL      8704--REDEF    8722--REDEF    8740--REDEF
QI$FIELD_DAD.VARIABLE_LENGTH_ITEMS.LEVEL_MULTIPLIERS
      8689**DCL      8699--REDEF    8702--REDEF
QI$FIELD_DAD.WORD0
      8584**DCL      8585--REDEF
QI$FIELD_DAD.WORD0_FLAGS.IO_FLAGS
      8588**DCL      8593--REDEF
QI$FIELD_DAD.WORD0_FLAGS.TYPE
      8610**DCL     17336>>DOCASE
QI$FIELD_DAD_P.P
      8786**DCL      8793--REDEF
QI$FIELD_STATUS.GZ.FIELD_START_INDEX
      9428**DCL     17346>>IF      17353>>ASSIGN
QI$FIELD_STATUS.GZ.FIELD_STOP_INDEX
      9430**DCL     17346>>IF
QI$FIELD_STATUS.INDICATORS
      9452**DCL      9484--REDEF
QI$FIELD_STATUS.INDICATORS.ENABLED_FLAGS
      9456**DCL      9461--REDEF
QI$FIELD_STATUS.INDICATORS.OPEN_FLAGS
      9468**DCL      9475--REDEF
QI$FIELD_STATUS.INDICATORS.STATE_FLAGS
      9462**DCL      9467--REDEF
QI$FILE.WORD0
      8908**DCL      8909--REDEF
QI$FILE_STATUS.INDICATORS
      9745**DCL      9777--REDEF
QI$FILE_STATUS.INDICATORS.ENABLED_FLAGS
      9749**DCL      9754--REDEF
QI$FILE_STATUS.INDICATORS.OPEN_FLAGS
      9761**DCL      9768--REDEF
QI$FILE_STATUS.INDICATORS.STATE_FLAGS
      9755**DCL      9760--REDEF
PL6.E3A0      #001=QBR$READ_FORM File=QBR$READ_FORM.:E05TSI                      WED 07/30/97 04:54 Page:35
QI$FORM_FILE.ERROR_STATUS@D
      8992**DCL     17449>>ASSIGN
QI$FORM_FILE.FRAME_COUNT
      8987**DCL     17415>>ASSIGN
QI$FORM_FILE.USE_PROCEDURE
      9008**DCL      9015--REDEF
QI$FORM_FILE.WORD0
      8962**DCL      8963--REDEF
QI$FORM_FILE.WORD0_FLAGS.IS_ERROR_STATUS_VALID
      8967**DCL     17425>>IF
QI$FORM_STATUS.INDICATORS
      9866**DCL      9898--REDEF
QI$FORM_STATUS.INDICATORS.ENABLED_FLAGS
      9870**DCL      9875--REDEF
QI$FORM_STATUS.INDICATORS.OPEN_FLAGS
      9882**DCL      9889--REDEF
QI$FORM_STATUS.INDICATORS.OPEN_FLAGS.IS_INPUT
      9886**DCL     17403>>IF
QI$FORM_STATUS.INDICATORS.OPEN_FLAGS.IS_OUTPUT
      9883**DCL     17406>>IF
QI$FORM_STATUS.INDICATORS.STATE_FLAGS
      9876**DCL      9881--REDEF
QI$FRAME.WORD0
      9123**DCL      9124--REDEF
QI$FRAME_STATUS.GZ.START$
     10058**DCL     17353>>ASSIGN
QI$FRAME_STATUS.INDICATORS
     10095**DCL     10127--REDEF
QI$FRAME_STATUS.INDICATORS.ENABLED_FLAGS
     10099**DCL     10104--REDEF
QI$FRAME_STATUS.INDICATORS.IS_ACTIVE
     10097**DCL     17327>>IF
QI$FRAME_STATUS.INDICATORS.OPEN_FLAGS
     10111**DCL     10118--REDEF
QI$FRAME_STATUS.INDICATORS.STATE_FLAGS
     10105**DCL     10110--REDEF
PL6.E3A0      #001=QBR$READ_FORM File=QBR$READ_FORM.:E05TSI                      WED 07/30/97 04:54 Page:36
QI$GZ_FIELD
     16974**DCL     17353--ASSIGN
QI$GZ_FIELD.DESCRIPTION.IO_FLAGS
     16977**DCL     16982--REDEF
QI$GZ_FIELD.DESCRIPTION.POSITION
     16993**DCL     17353>>ASSIGN
QI$IDENTIFIER
     11654**DCL     11656--REDEF
QI$INDICATORS
      9366**DCL      9396--REDEF
QI$INDICATORS.ENABLED_FLAGS
      9372**DCL      9377--REDEF
QI$INDICATORS.OPEN_FLAGS
      9384**DCL      9391--REDEF
QI$INDICATORS.STATE_FLAGS
      9378**DCL      9383--REDEF
QI$MAJOR_NODE.WORD0
      8822**DCL      8823--REDEF
QI$MAJOR_STATUS.INDICATORS
      9545**DCL      9577--REDEF
QI$MAJOR_STATUS.INDICATORS.ENABLED_FLAGS
      9549**DCL      9554--REDEF
QI$MAJOR_STATUS.INDICATORS.OPEN_FLAGS
      9561**DCL      9568--REDEF
QI$MAJOR_STATUS.INDICATORS.STATE_FLAGS
      9555**DCL      9560--REDEF
QI$MESSAGE_TYPE
     11645**DCL     11647--REDEF
QI$MINOR_NODE.WORD0
      8865**DCL      8866--REDEF
QI$MINOR_STATUS.INDICATORS
      9638**DCL      9670--REDEF
QI$MINOR_STATUS.INDICATORS.ENABLED_FLAGS
      9642**DCL      9647--REDEF
QI$MINOR_STATUS.INDICATORS.OPEN_FLAGS
      9654**DCL      9661--REDEF
PL6.E3A0      #001=QBR$READ_FORM File=QBR$READ_FORM.:E05TSI                      WED 07/30/97 04:54 Page:37
QI$MINOR_STATUS.INDICATORS.STATE_FLAGS
      9648**DCL      9653--REDEF
QI$OP_ACCEPT.DATANAME@P
      6053**DCL      6054--REDEF
QI$OP_CALL.EPTR$
      6225**DCL      6226--REDEF
QI$OP_CLEAR.IO_FLAGS
      6258**DCL      6261--REDEF
QI$OP_DISPLAY.FIELD_A@P
      6525**DCL      6526--REDEF
QI$OP_ENABLE.IO_FLAGS
      6612**DCL      6615--REDEF
QI$OP_IFCLS.ATTRIBUTE.TYPE
      6705**DCL      6710--REDEF
QI$OP_INSPECT.TALLYING_FOR_ITEM@P
      6939**DCL      6940--REDEF
QI$OP_INSPECT.TALLYING_INITIAL_ITEM@P
      6941**DCL      6942--REDEF
QI$OP_INSPECT.TALLYING_ITEM@P
      6937**DCL      6938--REDEF
QI$OP_OPEN.IO_FLAGS
      7499**DCL      7502--REDEF
QI$OP_PERFM.BINARY_ITERATION_COUNT@P
      7537**DCL      7538--REDEF
QI$OP_READ_FORM.CURSOR_FIELD@P
      7597**DCL     17305>>ASSIGN
QI$OP_READ_FORM.FORM_FILE@P
      7594**DCL     17381>>ASSIGN
QI$OP_READ_FORM.IS_POSITIONING_CURSOR
      7595**DCL     17281>>IF
QI$OP_READ_FORM.NEXT_CODE@P
      7598**DCL     17276--ASSIGN
QI$PSEUDO_CIP
      8038**DCL      8062--REDEF
QI$PSEUDO_CIP.ALPHANUMERIC
      8042**DCL      8047--REDEF
PL6.E3A0      #001=QBR$READ_FORM File=QBR$READ_FORM.:E05TSI                      WED 07/30/97 04:54 Page:38
QI$PSEUDO_CIP.NUMERIC.CB
      8048**DCL      8051--REDEF    8054--REDEF
QI$TERMINAL_ATTRIBUTES
      9259**DCL      9272--REDEF
QI$TRAN_FILE.WORD0
      9044**DCL      9045--REDEF
QI$TRAN_STATUS.INDICATORS
      9979**DCL     10011--REDEF
QI$TRAN_STATUS.INDICATORS.ENABLED_FLAGS
      9983**DCL      9988--REDEF
QI$TRAN_STATUS.INDICATORS.OPEN_FLAGS
      9995**DCL     10002--REDEF
QI$TRAN_STATUS.INDICATORS.STATE_FLAGS
      9989**DCL      9994--REDEF
QI$VARIABLE_IDENTIFIER.LENGTH
     11658**DCL     11659--IMP-SIZ
QI_1.A_REG
     10932**DCL     17279<<ASSIGN
QI_1.BASE
     10187**DCL     10194--REDEF
QI_1.BASE.DATA$
     10188**DCL     17449>>ASSIGN
QI_1.BASE.PROC$
     10190**DCL     17305>>ASSIGN  17381>>ASSIGN
QI_1.BASE_A$
     10194**DCL     17308>>ASSIGN  17384>>ASSIGN
QI_1.CURRENT.FILE$
     11078**DCL     11080--REDEF   11082--REDEF
QI_1.CURRENT.FILE_STATUS$
     11084**DCL     11086--REDEF   11088--REDEF
QI_1.CURRENT.FORM$
     11080**DCL     17415>>ASSIGN  17425>>IF      17449>>ASSIGN  17479>>ASSIGN
QI_1.CURRENT.FORM_STATUS$
     11086**DCL     17403>>IF      17406>>IF
QI_1.CURRENT.FRAME_STATUS$
     11092**DCL     17327>>IF      17353>>ASSIGN
PL6.E3A0      #001=QBR$READ_FORM File=QBR$READ_FORM.:E05TSI                      WED 07/30/97 04:54 Page:39
QI_1.CURRENT.NODE$
     11097**DCL     17305<<ASSIGN  17307>>DOWHILE 17308<<ASSIGN  17308>>ASSIGN  17308>>ASSIGN  17336>>DOCASE
     17381<<ASSIGN  17383>>DOWHILE 17384<<ASSIGN  17384>>ASSIGN  17384>>ASSIGN
QI_1.CURRENT.NODE_STATUS$
     11099**DCL     17346>>IF      17346>>IF      17353>>ASSIGN
QI_1.DAD
     10882**DCL     10887--REDEF
QI_1.ERROR_STATUS
     11112**DCL     17330<<ASSIGN  17408<<ASSIGN  17410<<ASSIGN
QI_1.FILE_HEAD
     11065**DCL     11072--REDEF
QI_1.INSTR$
     10195**DCL     17275>>ASSIGN  17276<<ASSIGN
QI_1.IS_ALL_LIT
     10888**DCL     10893--REDEF
QI_1.IS_FORM_VARIABLE
     10894**DCL     10899--REDEF
QI_1.IS_TEMP
     10900**DCL     10905--REDEF
QI_1.MESSAGE_LINE_DAD.PSEUDO_CIP
     10998**DCL     11023--REDEF
QI_1.MESSAGE_LINE_DAD.PSEUDO_CIP.ALPHANUMERIC
     11000**DCL     11005--REDEF
QI_1.MESSAGE_LINE_DAD.PSEUDO_CIP.NUMERIC.CB
     11006**DCL     11009--REDEF   11012--REDEF
QI_1.MESSAGE_LINE_DAD.WORD0
     10967**DCL     10968--REDEF
QI_1.OFFSET
     10906**DCL     10911--REDEF
QI_1.OP.CIP
     10267**DCL     10718--REDEF
QI_1.OP.CIP.AUX
     10633**DCL     10704--REDEF
QI_1.OP.CIP.AUX.CD
     10678**DCL     10681--REDEF   10685--REDEF   10688--REDEF
QI_1.OP.CIP.S
PL6.E3A0      #001=QBR$READ_FORM File=QBR$READ_FORM.:E05TSI                      WED 07/30/97 04:54 Page:40
     10337**DCL     10408--REDEF
QI_1.OP.CIP.S.CD
     10382**DCL     10385--REDEF   10389--REDEF   10392--REDEF
QI_1.OP.CIP.T
     10485**DCL     10556--REDEF
QI_1.OP.CIP.T.CD
     10530**DCL     10533--REDEF   10537--REDEF   10540--REDEF
QI_1.OP.DATA
     10725**DCL     10729--REDEF
QI_1.OP.FILL_CHAR
     10849**DCL     10852--REDEF
QI_1.OP.INX
     10782**DCL     10786--REDEF   10787--REDEF   10791--REDEF
QI_1.OP.LEN
     10765**DCL     10769--REDEF   10770--REDEF   10774--REDEF   10775--REDEF   10779--REDEF
QI_1.OP.LEN.AUX
     10768**DCL     11669--IMP-SIZ
QI_1.OP.LEN.S
     10766**DCL     11665--IMP-SIZ
QI_1.OP.LEN.T
     10767**DCL     11667--IMP-SIZ
QI_1.OP.PICTURE_STRING
     10835**DCL     10838--REDEF   10839--REDEF   10842--REDEF   10843--REDEF   10846--REDEF
QI_1.OP.ROUND
     10868**DCL     10869--REDEF   10870--REDEF
QI_1.OP.SRCH_VRFY_ELEMS
     10804**DCL     10807--REDEF
QI_1.OPENED_COUNT
     11073**DCL     11076--REDEF
QI_1.OTTER_SPACE
     10912**DCL     10917--REDEF
QI_1.PICTURE_STRING
     10918**DCL     10923--REDEF
QI_1.SPECIAL_NAMES
     11101**DCL     11110--REDEF
QI_1.TYPE
PL6.E3A0      #001=QBR$READ_FORM File=QBR$READ_FORM.:E05TSI                      WED 07/30/97 04:54 Page:41
     10924**DCL     10929--REDEF
QI_16_BIT_BINARY
     16114**DCL     16184--REDEF
QI_16_BIT_BINARY.CB
     16133**DCL     16136--REDEF   16140--REDEF   16143--REDEF
QI_31_DIGIT_SLS_DISPLAY
     15947**DCL     16017--REDEF
QI_31_DIGIT_SLS_DISPLAY.CD
     15994**DCL     15997--REDEF   16001--REDEF   16004--REDEF
QI_31_DIGIT_ST_PACKED
     16449**DCL     16519--REDEF
QI_31_DIGIT_ST_PACKED.CP
     16482**DCL     16485--REDEF   16489--REDEF   16492--REDEF
QI_32_BIT_BINARY
     16281**DCL     16351--REDEF
QI_32_BIT_BINARY.CB
     16300**DCL     16303--REDEF   16307--REDEF   16310--REDEF
QI_4_CHAR_ALPHANUMERIC
     15779**DCL     15849--REDEF
QI_4_CHAR_ALPHANUMERIC.CA
     15784**DCL     15788--REDEF   15791--REDEF   15794--REDEF
QI_ACCUMULATOR_DAD.CIP
     16792**DCL     16863--REDEF
QI_ACCUMULATOR_DAD.CIP.CP
     16823**DCL     16826--REDEF   16830--REDEF   16833--REDEF
QI_ALR.CIP
     11744**DCL     12195--REDEF
QI_ALR.CIP.AUX
     12110**DCL     12181--REDEF
QI_ALR.CIP.AUX.CA
     12113**DCL     12117--REDEF   12120--REDEF   12123--REDEF
QI_ALR.CIP.S
     11814**DCL     11885--REDEF
QI_ALR.CIP.S.CA
     11817**DCL     11821--REDEF   11824--REDEF   11827--REDEF
QI_ALR.CIP.T
PL6.E3A0      #001=QBR$READ_FORM File=QBR$READ_FORM.:E05TSI                      WED 07/30/97 04:54 Page:42
     11962**DCL     12033--REDEF
QI_ALR.CIP.T.CA
     11965**DCL     11969--REDEF   11972--REDEF   11975--REDEF
QI_ALR.DATA
     12202**DCL     12206--REDEF
QI_ALR.FILL_CHAR
     12326**DCL     12329--REDEF
QI_ALR.INX
     12259**DCL     12263--REDEF   12264--REDEF   12268--REDEF
QI_ALR.LEN
     12242**DCL     12246--REDEF   12247--REDEF   12251--REDEF   12252--REDEF   12256--REDEF
QI_ALR.PICTURE_STRING
     12312**DCL     12315--REDEF   12316--REDEF   12319--REDEF   12320--REDEF   12323--REDEF
QI_ALR.ROUND
     12345**DCL     12346--REDEF   12347--REDEF
QI_ALR.SRCH_VRFY_ELEMS
     12281**DCL     12284--REDEF
QI_MAT.CIP
     15083**DCL     15534--REDEF
QI_MAT.CIP.AUX
     15449**DCL     15520--REDEF
QI_MAT.CIP.AUX.CA
     15452**DCL     15456--REDEF   15459--REDEF   15462--REDEF
QI_MAT.CIP.S
     15153**DCL     15224--REDEF
QI_MAT.CIP.S.CA
     15156**DCL     15160--REDEF   15163--REDEF   15166--REDEF
QI_MAT.CIP.T
     15301**DCL     15372--REDEF
QI_MAT.CIP.T.CA
     15304**DCL     15308--REDEF   15311--REDEF   15314--REDEF
QI_MAT.DATA
     15541**DCL     15545--REDEF
QI_MAT.DEC
     15609**DCL     15613--REDEF   15614--REDEF   15618--REDEF
QI_MAT.FILL_CHAR
PL6.E3A0      #001=QBR$READ_FORM File=QBR$READ_FORM.:E05TSI                      WED 07/30/97 04:54 Page:43
     15665**DCL     15668--REDEF
QI_MAT.LEN
     15581**DCL     15585--REDEF   15586--REDEF   15590--REDEF   15591--REDEF   15595--REDEF
QI_MAT.PICTURE_STRING
     15651**DCL     15654--REDEF   15655--REDEF   15658--REDEF   15659--REDEF   15662--REDEF
QI_MAT.ROUND
     15684**DCL     15685--REDEF   15686--REDEF
QI_MAT.SRCH_VRFY_ELEMS
     15620**DCL     15623--REDEF
QI_PICTURE_STRING
     16617**DCL     16687--REDEF
QI_PICTURE_STRING.CA
     16622**DCL     16626--REDEF   16629--REDEF   16632--REDEF
QI_SRCH_VRFY.CIP
     14414**DCL     14865--REDEF
QI_SRCH_VRFY.CIP.AUX
     14780**DCL     14851--REDEF
QI_SRCH_VRFY.CIP.AUX.CA
     14783**DCL     14787--REDEF   14790--REDEF   14793--REDEF
QI_SRCH_VRFY.CIP.S
     14484**DCL     14555--REDEF
QI_SRCH_VRFY.CIP.S.CA
     14487**DCL     14491--REDEF   14494--REDEF   14497--REDEF
QI_SRCH_VRFY.CIP.T
     14632**DCL     14703--REDEF
QI_SRCH_VRFY.CIP.T.CA
     14635**DCL     14639--REDEF   14642--REDEF   14645--REDEF
QI_SRCH_VRFY.DATA
     14872**DCL     14876--REDEF
QI_SRCH_VRFY.DEC
     14940**DCL     14944--REDEF   14945--REDEF   14949--REDEF
QI_SRCH_VRFY.FILL_CHAR
     14996**DCL     14999--REDEF
QI_SRCH_VRFY.ROUND
     15015**DCL     15016--REDEF   15017--REDEF
QI_SRCH_VRFY.SRCH_RESULT
PL6.E3A0      #001=QBR$READ_FORM File=QBR$READ_FORM.:E05TSI                      WED 07/30/97 04:54 Page:44
     14956**DCL     14959--REDEF   14960--REDEF   14963--REDEF   14964--REDEF   14967--REDEF
QI_SRCH_VRFY.SRCH_VRFY_ARGS
     14880**DCL     14884--REDEF   14885--REDEF   14889--REDEF   14890--REDEF   14894--REDEF
QI_SRCH_VRFY.SRCH_VRFY_ELEMS
     14951**DCL     14954--REDEF
QI_TYPE_BINARY_TARGET.CIP
     13741**DCL     14192--REDEF
QI_TYPE_BINARY_TARGET.CIP.AUX
     14107**DCL     14178--REDEF
QI_TYPE_BINARY_TARGET.CIP.AUX.CA
     14110**DCL     14114--REDEF   14117--REDEF   14120--REDEF
QI_TYPE_BINARY_TARGET.CIP.S
     13811**DCL     13882--REDEF
QI_TYPE_BINARY_TARGET.CIP.S.CA
     13814**DCL     13818--REDEF   13821--REDEF   13824--REDEF
QI_TYPE_BINARY_TARGET.CIP.T
     13959**DCL     14030--REDEF
QI_TYPE_BINARY_TARGET.CIP.T.CB
     13976**DCL     13979--REDEF   13983--REDEF   13986--REDEF
QI_TYPE_BINARY_TARGET.DATA
     14199**DCL     14203--REDEF
QI_TYPE_BINARY_TARGET.DEC
     14267**DCL     14271--REDEF   14272--REDEF   14276--REDEF
QI_TYPE_BINARY_TARGET.LEN
     14239**DCL     14243--REDEF   14244--REDEF   14248--REDEF   14249--REDEF   14253--REDEF
QI_TYPE_BINARY_TARGET.PICTURE_STRING
     14309**DCL     14312--REDEF   14313--REDEF   14316--REDEF   14317--REDEF   14320--REDEF
QI_TYPE_BINARY_TARGET.ROUND
     14342**DCL     14343--REDEF   14344--REDEF
QI_TYPE_BINARY_TARGET.SIZE_ERROR
     14328**DCL     14329--REDEF
QI_TYPE_BINARY_TARGET.SRCH_VRFY_ELEMS
     14278**DCL     14281--REDEF
QI_TYPE_DISPLAY_SOURCE.CIP
     12409**DCL     12860--REDEF
QI_TYPE_DISPLAY_SOURCE.CIP.AUX
PL6.E3A0      #001=QBR$READ_FORM File=QBR$READ_FORM.:E05TSI                      WED 07/30/97 04:54 Page:45
     12775**DCL     12846--REDEF
QI_TYPE_DISPLAY_SOURCE.CIP.AUX.CA
     12778**DCL     12782--REDEF   12785--REDEF   12788--REDEF
QI_TYPE_DISPLAY_SOURCE.CIP.S
     12479**DCL     12550--REDEF
QI_TYPE_DISPLAY_SOURCE.CIP.S.CD
     12524**DCL     12527--REDEF   12531--REDEF   12534--REDEF
QI_TYPE_DISPLAY_SOURCE.CIP.T
     12627**DCL     12698--REDEF
QI_TYPE_DISPLAY_SOURCE.CIP.T.CA
     12630**DCL     12634--REDEF   12637--REDEF   12640--REDEF
QI_TYPE_DISPLAY_SOURCE.DATA
     12867**DCL     12871--REDEF
QI_TYPE_DISPLAY_SOURCE.DEC
     12935**DCL     12939--REDEF   12940--REDEF   12944--REDEF
QI_TYPE_DISPLAY_SOURCE.LEN
     12907**DCL     12911--REDEF   12912--REDEF   12916--REDEF   12917--REDEF   12921--REDEF
QI_TYPE_DISPLAY_SOURCE.PICTURE_STRING
     12977**DCL     12980--REDEF   12981--REDEF   12984--REDEF   12985--REDEF   12988--REDEF
QI_TYPE_DISPLAY_SOURCE.ROUND
     13010**DCL     13011--REDEF   13012--REDEF
QI_TYPE_DISPLAY_SOURCE.SIZE_ERROR
     12996**DCL     12997--REDEF
QI_TYPE_DISPLAY_SOURCE.SRCH_VRFY_ELEMS
     12946**DCL     12949--REDEF
QI_TYPE_DISPLAY_TARGET.CIP
     13075**DCL     13526--REDEF
QI_TYPE_DISPLAY_TARGET.CIP.AUX
     13441**DCL     13512--REDEF
QI_TYPE_DISPLAY_TARGET.CIP.AUX.CA
     13444**DCL     13448--REDEF   13451--REDEF   13454--REDEF
QI_TYPE_DISPLAY_TARGET.CIP.S
     13145**DCL     13216--REDEF
QI_TYPE_DISPLAY_TARGET.CIP.S.CA
     13148**DCL     13152--REDEF   13155--REDEF   13158--REDEF
QI_TYPE_DISPLAY_TARGET.CIP.T
PL6.E3A0      #001=QBR$READ_FORM File=QBR$READ_FORM.:E05TSI                      WED 07/30/97 04:54 Page:46
     13293**DCL     13364--REDEF
QI_TYPE_DISPLAY_TARGET.CIP.T.CD
     13338**DCL     13341--REDEF   13345--REDEF   13348--REDEF
QI_TYPE_DISPLAY_TARGET.DATA
     13533**DCL     13537--REDEF
QI_TYPE_DISPLAY_TARGET.DEC
     13601**DCL     13605--REDEF   13606--REDEF   13610--REDEF
QI_TYPE_DISPLAY_TARGET.LEN
     13573**DCL     13577--REDEF   13578--REDEF   13582--REDEF   13583--REDEF   13587--REDEF
QI_TYPE_DISPLAY_TARGET.PICTURE_STRING
     13643**DCL     13646--REDEF   13647--REDEF   13650--REDEF   13651--REDEF   13654--REDEF
QI_TYPE_DISPLAY_TARGET.ROUND
     13676**DCL     13677--REDEF   13678--REDEF
QI_TYPE_DISPLAY_TARGET.SIZE_ERROR
     13662**DCL     13663--REDEF
QI_TYPE_DISPLAY_TARGET.SRCH_VRFY_ELEMS
     13612**DCL     13615--REDEF
RETRY_FORM_READ
     17279**LABEL   17490--GOTO
