VERSION E05

PL6.E3A0      #001=QBS$STOP_PAUSE File=QBS$STOP_PAUSE.:E05TSI                    WED 07/30/97 04:55 Page:1
        1        1        /*M* QBS$STOP_PAUSE:  "STOP dataname" and "STOP 'literal'".  */
        2        2        /*T***********************************************************/
        3        3        /*T*                                                         */
        4        4        /*T* Copyright (c) Bull HN Information Systems Inc., 1997    */
        5        5        /*T*                                                         */
        6        6        /*T***********************************************************/
        7        7        /*X* DMC,PLM=4,IND=0,DCI=4,CSI=2,IAD=2,DTI=2,AND,ECI=0,DIN=2,STI=2 */
        8        8
        9        9        /*P*  NAME:         QBS$STOP_PAUSE
       10       10              PURPOSE:      Write to the MESSAGE LINE, and STOP (for a while).
       11       11              DESCRIPTION:  Execute a STOP_PAUSE op-code, whose argument
       12       12                            is a FILE or WORKING-STORAGE SECTION DAD.
       13       13        */
       14       14
       15       15        QBS$STOP_PAUSE: PROC;
       16       16
       17       17        /*D*  NAME:         QBS$STOP_PAUSE
       18       18              CALL:         CALL QBS$STOP_PAUSE;
       19       19              PARAMETERS:   None.
       20       20              INTERFACE:    Called by QAT$TALLYHO when a STOP_PAUSE
       21       21                            op-code is encountered.  Calls QCM$MESS_whatever
       22       22                            to do the actual MESSAGE LINE I-O.
       23       23              ENVIRONMENT:  Nothing unusual.
       24       24              INPUT:        QI_1,
       25       25                            FPL rununit static data following the op-code.
       26       26              OUTPUT:       Writes to, reads from, and erases from the MESSAGE LINE.
       27       27              SCRATCH:      Not a whole lot.
       28       28              DESCRIPTION:  QCM$MESS is called to write the data to the default
       29       29                            MESSAGE LINE (see commentary in QCM$MESS).  QCM$MESS_PAUSE
       30       30                            is called to read 1 byte from the MESSAGE LINE (hence
       31       31                            the "pause"), and finally QCM$MESS_ERASE is called to,
       32       32                            yes, erase the data after the pause.
       33       33        */
       34       34
       35       35          %INCLUDE LCP_6;
       36      226          %INCLUDE NK_VFC_C;
       37      300          %FPT_DEVICE ( FPTN = FPT@DEVICE,
PL6.E3A0      #001=QBS$STOP_PAUSE File=QBS$STOP_PAUSE.:E05TSI                    WED 07/30/97 04:55 Page:2
       38      301                        STCLASS = AUTO );
       39      328          %FPT_WAIT ( FPTN = FPT@WAIT,
       40      329                      STCLASS = AUTO );
       41      353          %FPT_WRITE ( FPTN = FPT@WRITE,
       42      354                       STCLASS = AUTO );
       43      378
       44      379          %INCLUDE QG_MACRO_M;
       45      516          %QGB_ENTRIES;
       46      529          %INCLUDE QI_EQUATES_E;
       47      888          %INCLUDE QI_PERR_C;
       48     1056          %INCLUDE QI_MACROS_M;
       49     6114          %QI$ALL;
       50    17227          %QI_FPTS;
       51    19272
       52    19273    1     DCL INSTR$ PTR;
       53    19274    1     DCL TIME_TO_WAIT_IN_SECONDS UBIN;
       54    19275
       55    19276    1     DCL VFC_OVERPRINT CHAR(1) ALIGNED CONSTANT INIT(%VFC_OVR);
       56    19277    1     DCL QCC$CBD ENTRY (1) ALTRET;
       57    19278    1     DCL QCC$CDB ENTRY (1) ALTRET;
       58    19279    1     DCL QCE$ERROR_INTERNAL ENTRY (4);
       59    19280    1     DCL QCE$ERROR_M$INTERNAL ENTRY (4);
       60    19281    1     DCL QCM$MESS ENTRY (1);
       61    19282    1     DCL QCM$MESS_ERASE ENTRY (1);
       62    19283    1     DCL QCM$MESS_PAUSE ENTRY (1);
       63    19284    1     DCL QCS$SETUP_SOURCE ENTRY;
       64    19285    1     DCL QCU$UPDATE_SCREEN ENTRY;
       65    19286
       66    19287          %QI@OTTER_SPACE;
       67    19315
       68    19316          %SET LISTMAC = '1'B;
       69    19317
       70    19318          %INCLUDE QCM_MESS_M;
       71    19360          %QCM@MESS;
             19361            %BEGIN_MACRO;
             19362            %SET LISTDIR = '0'B;
             19375    1     DCL 1 QCM@MESS ALIGNED,
PL6.E3A0      #001=QBS$STOP_PAUSE File=QBS$STOP_PAUSE.:E05TSI                    WED 07/30/97 04:55 Page:3
             19376    1           2 MESSAGE_LINE_GZ_HEADER$ PTR,
             19377                           /* Pointer to QI$GZ_HEADER for the
             19378                              MESSAGE LINE to use.  */
             19379    1           2 IS_MESSAGE_A_DAD BIT(1) ALIGNED,
             19380                           /* Set if MESSAGE$ points to a DAD,
             19381                              reset if MESSAGE$ points to text
             19382                              (in which case MESSAGE_LENGTH is valid).  */
             19383    1           2 MESSAGE_LENGTH UBIN,
             19384                           /* Length, in bytes, of the error message.  */
             19385    1           2 MESSAGE$ PTR,
             19386                           /* See IS_MESSAGE_A_DAD.  */
             19387    1           2 FRAME_INDEX UBIN,
             19388                           /* Index of the current frame.  */
             19389    1           2 FIELD_INDEX UBIN,
             19390                           /* Index of the field to re-get (if any).  */
             19391    1           2 STATUS UBIN,
             19392                           /* Returned status code:  0 -> Immediate return to level 0;
             19393                                                    >0 -> Status is ok.  */
             19394    1           2 FIELD_ERROR_STOP_INDEX UBIN,
             19395                           /* Passed index for QCG$GET_FIELD processing.  */
             19396    1           2 VISUAL_ATTRIBUTE UBIN;
             19397                           /* Matches %EQUs for QI#xxx_VISUAL_ATTR
             19398                              (currently, blinking or non-blinking message line).  */
             19405            %ENDIF;
       72    19408
       73    19409          %SET LISTMAC = '0'B;
       74    19410        %EJECT;
PL6.E3A0      #001=QBS$STOP_PAUSE File=QBS$STOP_PAUSE.:E05TSI                    WED 07/30/97 04:55 Page:4
       75    19411    1       INSTR$ = QI_1.INSTR$;
       76    19412    1       QI_1.INSTR$ = ADDR ( INSTR$ -> QI$OP_STOP_PAUSE.NEXT_CODE@P );
       77    19413
       78    19414    1       QI_1.A_REG = 0;
       79    19415
       80    19416    1       IF INSTR$ -> QI$OP_STOP_PAUSE.IS_EXPLICIT_POSTING
       81    19417    1         OR INSTR$ -> QI$OP_STOP_PAUSE.IS_IMPLICIT_POSTING
       82    19418    1       THEN
       83    19419    1   POST_THE_MESSAGE:
       84    19420    2         DO;
       85    19421    2           QI_1.SOURCE$ = ADDR ( INSTR$ -> QI$OP_STOP_PAUSE.POSTING_OPERAND@P );
       86    19422
       87    19423    2           CALL QCS$SETUP_SOURCE;
       88    19424
       89    19425    2           QCM@MESS.MESSAGE_LINE_GZ_HEADER$ = QI_1.MESSAGE_LINE_GZ.HEADER$;
       90    19426    2           QCM@MESS.IS_MESSAGE_A_DAD = %YES;
       91    19427    2           QCM@MESS.MESSAGE$ = QI_1.DAD.S$;
       92    19428    2           QCM@MESS.VISUAL_ATTRIBUTE = %QI#OUTPUT_VISUAL_ATTRIBUTE;
       93    19429
       94    19430    2           CALL QCM$MESS ( QCM@MESS );
       95    19431
       96    19432    2           IF QCM@MESS.STATUS = %QI#USE_INVALID_RETURN
       97    19433    2           THEN
       98    19434    2             RETURN;
       99    19435    2         END POST_THE_MESSAGE;
      100    19436
      101    19437    1       IF INSTR$ -> QI$OP_STOP_PAUSE.IS_PAUSING
      102    19438    1       THEN
      103    19439    1   PAUSE_THE_TIME:
      104    19440    2         DO;
      105    19441                /*  First, update the screen.  */
      106    19442    2           IF QI_1.SCREEN_UPDATE_FLAGS
      107    19443    2           THEN
      108    19444    2             CALL QCU$UPDATE_SCREEN;
      109    19445                /*  Then, reposition the cursor to column 1.  */
      110    19446    2           FPT@WRITE = QI_FPT_WRITE;
      111    19447    2           VBASE ( FPT@WRITE.V_ ) = ADDR ( FPT@WRITE.V );
PL6.E3A0      #001=QBS$STOP_PAUSE File=QBS$STOP_PAUSE.:E05TSI                    WED 07/30/97 04:55 Page:5
      112    19448    2           FPT@WRITE.V.DCB# = QI_1.MESSAGE_LINE_GZ.HEADER$ -> QI$GZ_HEADER.DCB#;
      113    19449    2           FPT@WRITE.V.DVBYTE.VFC = %YES;
      114    19450    2           FPT@WRITE.BUF_ = VECTOR ( VFC_OVERPRINT );
      115    19451
      116    19452    2           CALL QGB$WRITE ( FPT@WRITE, QGB_PARAM )
      117    19453    2           WHENALTRETURN
      118    19454    3             DO;
      119    19455    3               CALL QCE$ERROR_M$INTERNAL ( %E$UNEXPECTED_ALTRET );
      120    19456    3             END;
      121    19457
      122    19458                /*  Update the MESSAGE-LINE with any IMPLICIT/EXPLICIT messages
      123    19459                    from above, and with the repositioning information.  */
      124    19460    2           FPT@DEVICE = QI_FPT_DEVICE;
      125    19461    2           VBASE ( FPT@DEVICE.V_ ) = ADDR ( FPT@DEVICE.V );
      126    19462    2           FPT@DEVICE.V.DCB# = QI_1.MESSAGE_LINE_GZ.HEADER$ -> QI$GZ_HEADER.DCB#;
      127    19463
      128    19464    2           CALL QGB$DEVICE ( FPT@DEVICE, QGB_PARAM )
      129    19465    2           WHENALTRETURN
      130    19466    3             DO;
      131    19467    3               CALL QCE$ERROR_M$INTERNAL ( %E$UNEXPECTED_ALTRET );
      132    19468    3             END;
      133    19469
      134    19470                /*  Finally, wait for the PAUSING interval.  */
      135    19471    2           QI_1.SOURCE$ = ADDR ( INSTR$ -> QI$OP_STOP_PAUSE.PAUSING_OPERAND@P );
      136    19472
      137    19473    2           CALL QCS$SETUP_SOURCE;
      138    19474
      139    19475    2           QI_1.OP.SIZE_ERROR = %QI#DONT_CHECK_FOR_SIZE_ERROR;
      140    19476
      141    19477    3           DO CASE ( QI_1.TYPE.S );
      142    19478
      143    19479    3             CASE ( %QI#TYPE_BINARY );
      144    19480    3               QI_1.OP.CIP.T_A (0) = QI_31_DIGIT_ST_PACKED_A (0);
      145    19481    3               QI_1.OP.DEC.T = 0;
      146    19482    3               QI_1.OP.DATA.T$ = ADDR ( QI@OTTER_SPACE );
      147    19483    3               CALL QCC$CBD ( QI_1.OP )
      148    19484    3               WHENALTRETURN
PL6.E3A0      #001=QBS$STOP_PAUSE File=QBS$STOP_PAUSE.:E05TSI                    WED 07/30/97 04:55 Page:6
      149    19485    4                 DO;
      150    19486    4                   CALL QCE$ERROR_INTERNAL ( %E$UNEXPECTED_QCC_ALTRET );
      151    19487    4                 END;
      152    19488
      153    19489    3               QI_1.OP.CIP.S_A (0) = QI_1.OP.CIP.T_A (0);
      154    19490    3               QI_1.OP.DEC.S = 0;
      155    19491    3               QI_1.OP.DATA.S$ = QI_1.OP.DATA.T$;
      156    19492
      157    19493    3               QI_1.OP.CIP.T_A (0) = QI_16_BIT_BINARY_A (0);
      158    19494    3               QI_1.OP.DATA.T$ = ADDR ( TIME_TO_WAIT_IN_SECONDS );
      159    19495    3               CALL QCC$CDB ( QI_1.OP )
      160    19496    3               WHENALTRETURN
      161    19497    4                 DO;
      162    19498    4                   CALL QCE$ERROR_INTERNAL ( %E$UNEXPECTED_QCC_ALTRET );
      163    19499    4                 END;
      164    19500
      165    19501    3             CASE ( %QI#TYPE_DISPLAY, %QI#TYPE_PACKED );
      166    19502    3               QI_1.OP.CIP.T_A (0) = QI_16_BIT_BINARY_A (0);
      167    19503    3               QI_1.OP.DEC.T = 0;
      168    19504    3               QI_1.OP.DATA.T$ = ADDR ( TIME_TO_WAIT_IN_SECONDS );
      169    19505    3               CALL QCC$CDB ( QI_1.OP )
      170    19506    3               WHENALTRETURN
      171    19507    4                 DO;
      172    19508    4                   CALL QCE$ERROR_INTERNAL ( %E$UNEXPECTED_QCC_ALTRET );
      173    19509    4                 END;
      174    19510
      175    19511    3             CASE ( ELSE );
      176    19512    3               CALL QCE$ERROR_INTERNAL ( %E$INTERNAL_COMPILER_ERROR );
      177    19513
      178    19514    3           END;
      179    19515
      180    19516    2           FPT@WAIT = QI_FPT_WAIT;
      181    19517    2           VBASE ( FPT@WAIT.V_ ) = ADDR ( FPT@WAIT.V );
      182    19518    2           FPT@WAIT.UNITS = VECTOR ( TIME_TO_WAIT_IN_SECONDS );
      183    19519
      184    19520    2           CALL M$WAIT ( FPT@WAIT )
      185    19521    2           WHENALTRETURN
PL6.E3A0      #001=QBS$STOP_PAUSE File=QBS$STOP_PAUSE.:E05TSI                    WED 07/30/97 04:55 Page:7
      186    19522    3             DO;
      187    19523    3               CALL QCE$ERROR_M$INTERNAL ( %E$UNEXPECTED_ALTRET );
      188    19524    3             END;
      189    19525    2         END PAUSE_THE_TIME;
      190    19526    1       ELSE
      191    19527    1   READ_THE_MESSAGE_LINE:
      192    19528    2         DO;
      193    19529    2           CALL QCM$MESS_PAUSE ( QCM@MESS );
      194    19530
      195    19531    2           IF QCM@MESS.STATUS = %QI#USE_INVALID_RETURN
      196    19532    2           THEN
      197    19533    2             RETURN;
      198    19534    2         END READ_THE_MESSAGE_LINE;
      199    19535
      200    19536    1       IF INSTR$ -> QI$OP_STOP_PAUSE.IS_IMPLICIT_POSTING
      201    19537    1       THEN
      202    19538    1         CALL QCM$MESS_ERASE ( QCM@MESS );
      203    19539
      204    19540    1       RETURN;
      205    19541
      206    19542    1   END QBS$STOP_PAUSE;
      207    19543

PL6.E3A0      #001=QBS$STOP_PAUSE File=QBS$STOP_PAUSE.:E05TSI                    WED 07/30/97 04:55 Page:8
--  Include file information  --

   QCM_MESS_M.:E05TOU  is referenced.
   QI_MACROS_M.:E05TOU  is referenced.
   QI_PERR_C.:E05TOU  is referenced.
   QI_EQUATES_E.:E05TOU  is referenced.
   QG_MACRO_M.:E05TOU  is referenced.
   NK_VFC_C.:E05TOU  is referenced.
   LCP_6.:E05TOU  cannot be made into a system file and is referenced.
   G_LCP6_E.:E05TOU  was found in the system file and is referenced.
   GT_LCP6_M.:E05TOU  was found in the system file and is referenced.
   KI_CP6.:E05TOU  was found in the system file and is referenced.
   GF_LCP6_M.:E05TOU  was found in the system file and is referenced.
   GM_LCP6_M.:E05TOU  was found in the system file and is referenced.
   GU_LCP6_M.:E05TOU  was found in the system file and is referenced.
   GJ_LCP6_M.:E05TOU  was found in the system file and is referenced.
   GH_LCP6_M.:E05TOU  was found in the system file and is referenced.
      No diagnostics issued in procedure QBS$STOP_PAUSE.

   Procedure QBS$STOP_PAUSE requires 442 words for executable code.
   Procedure QBS$STOP_PAUSE requires 74 words of local(AUTO) storage.

    No errors detected in file QBS$STOP_PAUSE.:E05TSI    .

PL6.E3A0      #001=QBS$STOP_PAUSE File=QBS$STOP_PAUSE.:E05TSI                    WED 07/30/97 04:55 Page:9

 Object Unit name= QBS$STOP_PAUSE                             File name= QBS$STOP_PAUSE.:E05TOU
 UTS= JUL 30 '97 04:55:41.96 WED                              Compiler= PL-6/E31         Sev=      00
 SharedLib= :SHARED_LCP6_SYSTEM                               Alt SharedLib=


    ****  Control sections  ****

 Sect   Type Bound  Init  Size HexSiz  Section name
    0  RoData even  UTS      1      1  QBS$STOP_PAUSE
    1   Proc  even  none   442    1BA  QBS$STOP_PAUSE
    2  RoData even  none    14      E  QBS$STOP_PAUSE

    ****  Entry defs  ****

                              Check   Calling
                             calling  sequence
  Sect HexLoc Primary Altret sequence   type   Parms  Name
     1      0   yes            yes      Std        0  QBS$STOP_PAUSE

  ****  Entry refs  ****

         Check        Calling
        calling       sequence
Altret sequence SRef   type   Args  Name
         yes           Std       0 QCS$SETUP_SOURCE
 yes     yes           Std       2 QGB$DEVICE
         yes           Std       1 QCM$MESS
         yes           Std       0 QCU$UPDATE_SCREEN
         yes           Std       4 QCE$ERROR_M$INTERNAL
 yes     yes           Std       1 QCC$CBD
         yes           Std       4 QCE$ERROR_INTERNAL
 yes     yes           Std       1 QCC$CDB
 yes     yes           Std       2 QGB$WRITE
         yes           Std       1 QCM$MESS_PAUSE
         yes           Std       1 QCM$MESS_ERASE
                       nStd      0 X6A_AUTO_0
                       nStd      0 X6A_ARET
PL6.E3A0      #001=QBS$STOP_PAUSE File=QBS$STOP_PAUSE.:E05TSI                    WED 07/30/97 04:55 Page:10

  ****  Data refs  ****

  Flags:  r = read only, s = secondary
Flgs Name                             Flgs Name                             Flgs Name
     QI_1                                  QGB_PARAM                             QI_4_CHAR_ALPHANUMERIC
     QI_31_DIGIT_SLS_DISPLAY               QI_16_BIT_BINARY                      QI_32_BIT_BINARY
     QI_31_DIGIT_ST_PACKED                 QI_PICTURE_STRING                     QI_FPT_DEVICE
     QI_FPT_WAIT                           QI_FPT_WRITE                     r    G$ROS$
PL6.E3A0      #001=QBS$STOP_PAUSE File=QBS$STOP_PAUSE.:E05TSI                    WED 07/30/97 04:55 Page:11


        1        1        /*M* QBS$STOP_PAUSE:  "STOP dataname" and "STOP 'literal'".  */
        2        2        /*T***********************************************************/
        3        3        /*T*                                                         */
        4        4        /*T* Copyright (c) Bull HN Information Systems Inc., 1997    */
        5        5        /*T*                                                         */
        6        6        /*T***********************************************************/
        7        7        /*X* DMC,PLM=4,IND=0,DCI=4,CSI=2,IAD=2,DTI=2,AND,ECI=0,DIN=2,STI=2 */
        8        8
        9        9        /*P*  NAME:         QBS$STOP_PAUSE
       10       10              PURPOSE:      Write to the MESSAGE LINE, and STOP (for a while).
       11       11              DESCRIPTION:  Execute a STOP_PAUSE op-code, whose argument
       12       12                            is a FILE or WORKING-STORAGE SECTION DAD.
       13       13        */
       14       14
       15       15        QBS$STOP_PAUSE: PROC;

     15   1 000000  D380 0000 0000  xent QBS$STOP_PAUSE  LNJ,B5   X6A_AUTO_0
          1 000003       004A 0000                       DC       74,0

       16       16
       17       17        /*D*  NAME:         QBS$STOP_PAUSE
       18       18              CALL:         CALL QBS$STOP_PAUSE;
       19       19              PARAMETERS:   None.
       20       20              INTERFACE:    Called by QAT$TALLYHO when a STOP_PAUSE
       21       21                            op-code is encountered.  Calls QCM$MESS_whatever
       22       22                            to do the actual MESSAGE LINE I-O.
       23       23              ENVIRONMENT:  Nothing unusual.
       24       24              INPUT:        QI_1,
       25       25                            FPL rununit static data following the op-code.
       26       26              OUTPUT:       Writes to, reads from, and erases from the MESSAGE LINE.
       27       27              SCRATCH:      Not a whole lot.
       28       28              DESCRIPTION:  QCM$MESS is called to write the data to the default
       29       29                            MESSAGE LINE (see commentary in QCM$MESS).  QCM$MESS_PAUSE
       30       30                            is called to read 1 byte from the MESSAGE LINE (hence
       31       31                            the "pause"), and finally QCM$MESS_ERASE is called to,
       32       32                            yes, erase the data after the pause.
PL6.E3A0      #001=QBS$STOP_PAUSE File=QBS$STOP_PAUSE.:E05TSI                    WED 07/30/97 04:55 Page:12
       33       33        */
       34       34
       35       35          %INCLUDE LCP_6;
       36      226          %INCLUDE NK_VFC_C;
       37      300          %FPT_DEVICE ( FPTN = FPT@DEVICE,
       38      301                        STCLASS = AUTO );
       39      328          %FPT_WAIT ( FPTN = FPT@WAIT,
       40      329                      STCLASS = AUTO );
       41      353          %FPT_WRITE ( FPTN = FPT@WRITE,
       42      354                       STCLASS = AUTO );
       43      378
       44      379          %INCLUDE QG_MACRO_M;
       45      516          %QGB_ENTRIES;
       46      529          %INCLUDE QI_EQUATES_E;
       47      888          %INCLUDE QI_PERR_C;
       48     1056          %INCLUDE QI_MACROS_M;
       49     6114          %QI$ALL;
       50    17227          %QI_FPTS;
       51    19272
       52    19273    1     DCL INSTR$ PTR;
       53    19274    1     DCL TIME_TO_WAIT_IN_SECONDS UBIN;
       54    19275
       55    19276    1     DCL VFC_OVERPRINT CHAR(1) ALIGNED CONSTANT INIT(%VFC_OVR);
       56    19277    1     DCL QCC$CBD ENTRY (1) ALTRET;
       57    19278    1     DCL QCC$CDB ENTRY (1) ALTRET;
       58    19279    1     DCL QCE$ERROR_INTERNAL ENTRY (4);
       59    19280    1     DCL QCE$ERROR_M$INTERNAL ENTRY (4);
       60    19281    1     DCL QCM$MESS ENTRY (1);
       61    19282    1     DCL QCM$MESS_ERASE ENTRY (1);
       62    19283    1     DCL QCM$MESS_PAUSE ENTRY (1);
       63    19284    1     DCL QCS$SETUP_SOURCE ENTRY;
       64    19285    1     DCL QCU$UPDATE_SCREEN ENTRY;
       65    19286
       66    19287          %QI@OTTER_SPACE;
       67    19315
       68    19316          %SET LISTMAC = '1'B;
       69    19317
PL6.E3A0      #001=QBS$STOP_PAUSE File=QBS$STOP_PAUSE.:E05TSI                    WED 07/30/97 04:55 Page:13
       70    19318          %INCLUDE QCM_MESS_M;
       71    19360          %QCM@MESS;
             19361            %BEGIN_MACRO;
             19362            %SET LISTDIR = '0'B;
             19375    1     DCL 1 QCM@MESS ALIGNED,
             19376    1           2 MESSAGE_LINE_GZ_HEADER$ PTR,
             19377                           /* Pointer to QI$GZ_HEADER for the
             19378                              MESSAGE LINE to use.  */
             19379    1           2 IS_MESSAGE_A_DAD BIT(1) ALIGNED,
             19380                           /* Set if MESSAGE$ points to a DAD,
             19381                              reset if MESSAGE$ points to text
             19382                              (in which case MESSAGE_LENGTH is valid).  */
             19383    1           2 MESSAGE_LENGTH UBIN,
             19384                           /* Length, in bytes, of the error message.  */
             19385    1           2 MESSAGE$ PTR,
             19386                           /* See IS_MESSAGE_A_DAD.  */
             19387    1           2 FRAME_INDEX UBIN,
             19388                           /* Index of the current frame.  */
             19389    1           2 FIELD_INDEX UBIN,
             19390                           /* Index of the field to re-get (if any).  */
             19391    1           2 STATUS UBIN,
             19392                           /* Returned status code:  0 -> Immediate return to level 0;
             19393                                                    >0 -> Status is ok.  */
             19394    1           2 FIELD_ERROR_STOP_INDEX UBIN,
             19395                           /* Passed index for QCG$GET_FIELD processing.  */
             19396    1           2 VISUAL_ATTRIBUTE UBIN;
             19397                           /* Matches %EQUs for QI#xxx_VISUAL_ATTR
             19398                              (currently, blinking or non-blinking message line).  */
             19405            %ENDIF;
       72    19408
       73    19409          %SET LISTMAC = '0'B;
       74    19410        %EJECT;
PL6.E3A0      #001=QBS$STOP_PAUSE File=QBS$STOP_PAUSE.:E05TSI                    WED 07/30/97 04:55 Page:14
       75    19411    1       INSTR$ = QI_1.INSTR$;

  19411   1 000005  EC80 0000 0006  xsym                 LDB,B6   QI_1+6
          1 000008  EFC7 002F                            STB,B6   INSTR$,AUTO

       76    19412    1       QI_1.INSTR$ = ADDR ( INSTR$ -> QI$OP_STOP_PAUSE.NEXT_CODE@P );

  19412   1 00000A  DBC6 0004                            LAB,B5   4,B6
          1 00000C  DF80 0000 0006  xsym                 STB,B5   QI_1+6

       77    19413
       78    19414    1       QI_1.A_REG = 0;

  19414   1 00000F  8700 0000 0054  xsym                 CL       QI_1+84

       79    19415
       80    19416    1       IF INSTR$ -> QI$OP_STOP_PAUSE.IS_EXPLICIT_POSTING

  19416   1 000012  82C6 0001                            LB,'0002'X        1,B6
  19416   1 000014       0002
          1 000015  0501 0006                            BBT      s:19420,PREL
          1 000017  82C6 0001                            LB,'0004'X        1,B6
          1 000019       0004
          1 00001A  0581 002F                            BBF      s:19437,PREL

       81    19417    1         OR INSTR$ -> QI$OP_STOP_PAUSE.IS_IMPLICIT_POSTING
       82    19418    1       THEN
       83    19419    1   POST_THE_MESSAGE:
       84    19420    2         DO;

  19420   1                              POST_THE_MESSAGEnull
       85    19421    2           QI_1.SOURCE$ = ADDR ( INSTR$ -> QI$OP_STOP_PAUSE.POSTING_OPERAND@P );

  19421   1 00001C  CBC6 0003            POST_THE_MESSAGELAB,B4   3,B6
          1 00001E  CF80 0000 0018  xsym                 STB,B4   QI_1+24

       86    19422
PL6.E3A0      #001=QBS$STOP_PAUSE File=QBS$STOP_PAUSE.:E05TSI                    WED 07/30/97 04:55 Page:15
       87    19423    2           CALL QCS$SETUP_SOURCE;

  19423   1 000021  CBF0 0000                            LAB,B4   0,IMO
          1 000023  E380 0000 0000  xent                 LNJ,B6   QCS$SETUP_SOURCE
          1 000026       0001                            DC       s:19425,PREL

       88    19424
       89    19425    2           QCM@MESS.MESSAGE_LINE_GZ_HEADER$ = QI_1.MESSAGE_LINE_GZ.HEADER$;

  19425   1 000027  EC80 0000 0064  xsym                 LDB,B6   QI_1+100
          1 00002A  EFC7 003A                            STB,B6   QCM@MESS,AUTO

       90    19426    2           QCM@MESS.IS_MESSAGE_A_DAD = %YES;

  19426   1 00002C  8947 003C                            LBT,'8000'X       QCM@MESS+2,AUTO
  19426   1 00002E       8000

       91    19427    2           QCM@MESS.MESSAGE$ = QI_1.DAD.S$;

  19427   1 00002F  DC80 0000 0032  xsym                 LDB,B5   QI_1+50
          1 000032  DFC7 003E                            STB,B5   QCM@MESS+4,AUTO

       92    19428    2           QCM@MESS.VISUAL_ATTRIBUTE = %QI#OUTPUT_VISUAL_ATTRIBUTE;

  19428   1 000034  6C05                                 LDV,R6   5
          1 000035  EF47 0044                            STR,R6   QCM@MESS+10,AUTO

       93    19429
       94    19430    2           CALL QCM$MESS ( QCM@MESS );

  19430   1 000037  CBC7 003A                            LAB,B4   QCM@MESS,AUTO
          1 000039  CFC7 0046                            STB,B4   QCM@MESS+12,AUTO
          1 00003B  BBC7 0046                            LAB,B3   QCM@MESS+12,AUTO
          1 00003D  CBF0 0100                            LAB,B4   256,IMO
          1 00003F  E380 0000 0000  xent                 LNJ,B6   QCM$MESS
          1 000042       0001                            DC       s:19432,PREL

PL6.E3A0      #001=QBS$STOP_PAUSE File=QBS$STOP_PAUSE.:E05TSI                    WED 07/30/97 04:55 Page:16
       95    19431
       96    19432    2           IF QCM@MESS.STATUS = %QI#USE_INVALID_RETURN

  19432   1 000043  E847 0042                            LDR,R6   QCM@MESS+8,AUTO
          1 000045  6981 0004                            BNEZ,R6  s:19437,PREL

       97    19433    2           THEN
       98    19434    2             RETURN;

  19434   1 000047  C380 0000 0000  xent                 LNJ,B4   X6A_ARET

       99    19435    2         END POST_THE_MESSAGE;
      100    19436
      101    19437    1       IF INSTR$ -> QI$OP_STOP_PAUSE.IS_PAUSING

  19437   1 00004A  ECC7 002F                            LDB,B6   INSTR$,AUTO
          1 00004C  82C6 0001                            LB,'0001'X        1,B6
          1 00004E       0001
          1 00004F  0581 0141                            BBF      s:19528,PREL

      102    19438    1       THEN
      103    19439    1   PAUSE_THE_TIME:
      104    19440    2         DO;

  19440   1                              PAUSE_THE_TIME  null
      105    19441                /*  First, update the screen.  */
      106    19442    2           IF QI_1.SCREEN_UPDATE_FLAGS

  19442   1 000051  8280 0000 0016  xsym PAUSE_THE_TIME  LB,'F000'X        QI_1+22
  19442   1 000054       F000
          1 000055  0581 0007                            BBF      s:19446,PREL

      107    19443    2           THEN
      108    19444    2             CALL QCU$UPDATE_SCREEN;

  19444   1 000057  CBF0 0000                            LAB,B4   0,IMO
          1 000059  E380 0000 0000  xent                 LNJ,B6   QCU$UPDATE_SCREEN
PL6.E3A0      #001=QBS$STOP_PAUSE File=QBS$STOP_PAUSE.:E05TSI                    WED 07/30/97 04:55 Page:17
          1 00005C       0001                            DC       s:19446,PREL

      109    19445                /*  Then, reposition the cursor to column 1.  */
      110    19446    2           FPT@WRITE = QI_FPT_WRITE;

  19446   1 00005D  AB80 0000 0000  xsym                 LAB,B2   QI_FPT_WRITE
          1 000060  2C00                                 LDV,R2   0
          1 000061  6C24                                 LDV,R6   36
          1 000062  BB87                                 LAB,B3   ,AUTO
          1 000063  3C3A                                 LDV,R3   58
          1 000064  0008                                 MMM

      111    19447    2           VBASE ( FPT@WRITE.V_ ) = ADDR ( FPT@WRITE.V );

  19447   1 000065  EBC7 002C                            LAB,B6   FPT@WRITE+15,AUTO
          1 000067  EFC7 001E                            STB,B6   FPT@WRITE+1,AUTO

      112    19448    2           FPT@WRITE.V.DCB# = QI_1.MESSAGE_LINE_GZ.HEADER$ -> QI$GZ_HEADER.DCB#;

  19448   1 000069  DC80 0000 0064  xsym                 LDB,B5   QI_1+100
          1 00006C  E845 0003                            LDR,R6   3,B5
          1 00006E  E7C7 002C                            STH,R6   FPT@WRITE+15,AUTO

      113    19449    2           FPT@WRITE.V.DVBYTE.VFC = %YES;

  19449   1 000070  8947 002E                            LBT,'4000'X       FPT@WRITE+17,AUTO
  19449   1 000072       4000

      114    19450    2           FPT@WRITE.BUF_ = VECTOR ( VFC_OVERPRINT );

  19450   1 000073  AB80 0000 0000  02                   LAB,B2   0
          1 000076  2C00                                 LDV,R2   0
          1 000077  6C06                                 LDV,R6   6
          1 000078  BB87                                 LAB,B3   ,AUTO
          1 000079  3C46                                 LDV,R3   70
          1 00007A  0008                                 MMM

PL6.E3A0      #001=QBS$STOP_PAUSE File=QBS$STOP_PAUSE.:E05TSI                    WED 07/30/97 04:55 Page:18
      115    19451
      116    19452    2           CALL QGB$WRITE ( FPT@WRITE, QGB_PARAM )

  19452   1 00007B  EB80 0000 0000  xsym                 LAB,B6   QGB_PARAM
          1 00007E  EFC7 0048                            STB,B6   QCM@MESS+14,AUTO
          1 000080  DBC7 001D                            LAB,B5   FPT@WRITE,AUTO
          1 000082  DFC7 0046                            STB,B5   QCM@MESS+12,AUTO
          1 000084  BBC7 0046                            LAB,B3   QCM@MESS+12,AUTO
          1 000086  CBF0 0200                            LAB,B4   512,IMO
          1 000088  E380 0000 0000  xent                 LNJ,B6   QGB$WRITE
          1 00008B       0003                            DC       s:19455,PREL
          1 00008C  0F81 000A                            B        s:19460,PREL

      117    19453    2           WHENALTRETURN
      118    19454    3             DO;

      119    19455    3               CALL QCE$ERROR_M$INTERNAL ( %E$UNEXPECTED_ALTRET );

  19455   1 00008E  BB80 0000 0004  02                   LAB,B3   +4
          1 000091  CBF0 0100                            LAB,B4   256,IMO
          1 000093  E380 0000 0000  xent                 LNJ,B6   QCE$ERROR_M$INTERNAL
          1 000096       0001                            DC       s:19460,PREL

      120    19456    3             END;

      121    19457
      122    19458                /*  Update the MESSAGE-LINE with any IMPLICIT/EXPLICIT messages
      123    19459                    from above, and with the repositioning information.  */
      124    19460    2           FPT@DEVICE = QI_FPT_DEVICE;

  19460   1 000097  AB80 0000 0000  xsym                 LAB,B2   QI_FPT_DEVICE
          1 00009A  2C00                                 LDV,R2   0
          1 00009B  6C1E                                 LDV,R6   30
          1 00009C  BB87                                 LAB,B3   ,AUTO
          1 00009D  3C08                                 LDV,R3   8
          1 00009E  0008                                 MMM

PL6.E3A0      #001=QBS$STOP_PAUSE File=QBS$STOP_PAUSE.:E05TSI                    WED 07/30/97 04:55 Page:19
      125    19461    2           VBASE ( FPT@DEVICE.V_ ) = ADDR ( FPT@DEVICE.V );

  19461   1 00009F  EBC7 000D                            LAB,B6   FPT@DEVICE+9,AUTO
          1 0000A1  EFC7 0005                            STB,B6   FPT@DEVICE+1,AUTO

      126    19462    2           FPT@DEVICE.V.DCB# = QI_1.MESSAGE_LINE_GZ.HEADER$ -> QI$GZ_HEADER.DCB#;

  19462   1 0000A3  DC80 0000 0064  xsym                 LDB,B5   QI_1+100
          1 0000A6  E845 0003                            LDR,R6   3,B5
          1 0000A8  E7C7 000D                            STH,R6   FPT@DEVICE+9,AUTO

      127    19463
      128    19464    2           CALL QGB$DEVICE ( FPT@DEVICE, QGB_PARAM )

  19464   1 0000AA  CB80 0000 0000  xsym                 LAB,B4   QGB_PARAM
          1 0000AD  CFC7 0048                            STB,B4   QCM@MESS+14,AUTO
          1 0000AF  ABC7 0004                            LAB,B2   FPT@DEVICE,AUTO
          1 0000B1  AFC7 0046                            STB,B2   QCM@MESS+12,AUTO
          1 0000B3  BBC7 0046                            LAB,B3   QCM@MESS+12,AUTO
          1 0000B5  CBF0 0200                            LAB,B4   512,IMO
          1 0000B7  E380 0000 0000  xent                 LNJ,B6   QGB$DEVICE
          1 0000BA       0003                            DC       s:19467,PREL
          1 0000BB  0F81 000A                            B        s:19471,PREL

      129    19465    2           WHENALTRETURN
      130    19466    3             DO;

      131    19467    3               CALL QCE$ERROR_M$INTERNAL ( %E$UNEXPECTED_ALTRET );

  19467   1 0000BD  BB80 0000 0004  02                   LAB,B3   +4
          1 0000C0  CBF0 0100                            LAB,B4   256,IMO
          1 0000C2  E380 0000 0000  xent                 LNJ,B6   QCE$ERROR_M$INTERNAL
          1 0000C5       0001                            DC       s:19471,PREL

      132    19468    3             END;

      133    19469
PL6.E3A0      #001=QBS$STOP_PAUSE File=QBS$STOP_PAUSE.:E05TSI                    WED 07/30/97 04:55 Page:20
      134    19470                /*  Finally, wait for the PAUSING interval.  */
      135    19471    2           QI_1.SOURCE$ = ADDR ( INSTR$ -> QI$OP_STOP_PAUSE.PAUSING_OPERAND@P );

  19471   1 0000C6  ECC7 002F                            LDB,B6   INSTR$,AUTO
          1 0000C8  DBC6 0002                            LAB,B5   2,B6
          1 0000CA  DF80 0000 0018  xsym                 STB,B5   QI_1+24

      136    19472
      137    19473    2           CALL QCS$SETUP_SOURCE;

  19473   1 0000CD  CBF0 0000                            LAB,B4   0,IMO
          1 0000CF  E380 0000 0000  xent                 LNJ,B6   QCS$SETUP_SOURCE
          1 0000D2       0001                            DC       s:19475,PREL

      138    19474
      139    19475    2           QI_1.OP.SIZE_ERROR = %QI#DONT_CHECK_FOR_SIZE_ERROR;

  19475   1 0000D3  8700 0000 0030  xsym                 CL       QI_1+48

      140    19476
      141    19477    3           DO CASE ( QI_1.TYPE.S );

  19477   1 0000D6  B800 0000 0050  xsym                 LDR,R3   QI_1+80
          1 0000D9  3D03                                 CMV,R3   3
          1 0000DA  0281 0080                            BGE      s:19512,PREL
          1 0000DC  A830 0000 00E2  01                   LDR,R2   s:19477+12,R3
          1 0000DF  83A0 0000 00E5  01                   JMP      s:19480,R2
          1 0000E2       0052                            DC       s:19502,PREL
          1 0000E3       0052                            DC       s:19502,PREL
          1 0000E4       0000                            DC       s:19480,PREL

      142    19478
      143    19479    3             CASE ( %QI#TYPE_BINARY );

      144    19480    3               QI_1.OP.CIP.T_A (0) = QI_31_DIGIT_ST_PACKED_A (0);

  19480   1 0000E5  E800 0000 0000  xsym                 LDR,R6   QI_31_DIGIT_ST_PACKED
PL6.E3A0      #001=QBS$STOP_PAUSE File=QBS$STOP_PAUSE.:E05TSI                    WED 07/30/97 04:55 Page:21
          1 0000E8  EF00 0000 001C  xsym                 STR,R6   QI_1+28

      145    19481    3               QI_1.OP.DEC.T = 0;

  19481   1 0000EB  8700 0000 002A  xsym                 CL       QI_1+42

      146    19482    3               QI_1.OP.DATA.T$ = ADDR ( QI@OTTER_SPACE );

  19482   1 0000EE  EBC7 0032                            LAB,B6   QI@OTTER_SPACE,AUTO
          1 0000F0  EF80 0000 0022  xsym                 STB,B6   QI_1+34

      147    19483    3               CALL QCC$CBD ( QI_1.OP )

  19483   1 0000F3  BB80 0000 0006  02                   LAB,B3   +6
          1 0000F6  CBF0 0100                            LAB,B4   256,IMO
          1 0000F8  E380 0000 0000  xent                 LNJ,B6   QCC$CBD
          1 0000FB       0003                            DC       s:19486,PREL
          1 0000FC  0F81 000A                            B        s:19489,PREL

      148    19484    3               WHENALTRETURN
      149    19485    4                 DO;

      150    19486    4                   CALL QCE$ERROR_INTERNAL ( %E$UNEXPECTED_QCC_ALTRET );

  19486   1 0000FE  BB80 0000 0009  02                   LAB,B3   +9
          1 000101  CBF0 0100                            LAB,B4   256,IMO
          1 000103  E380 0000 0000  xent                 LNJ,B6   QCE$ERROR_INTERNAL
          1 000106       0001                            DC       s:19489,PREL

      151    19487    4                 END;

      152    19488
      153    19489    3               QI_1.OP.CIP.S_A (0) = QI_1.OP.CIP.T_A (0);

  19489   1 000107  E800 0000 001C  xsym                 LDR,R6   QI_1+28
          1 00010A  EF00 0000 001A  xsym                 STR,R6   QI_1+26

PL6.E3A0      #001=QBS$STOP_PAUSE File=QBS$STOP_PAUSE.:E05TSI                    WED 07/30/97 04:55 Page:22
      154    19490    3               QI_1.OP.DEC.S = 0;

  19490   1 00010D  8700 0000 0029  xsym                 CL       QI_1+41

      155    19491    3               QI_1.OP.DATA.S$ = QI_1.OP.DATA.T$;

  19491   1 000110  EC80 0000 0022  xsym                 LDB,B6   QI_1+34
          1 000113  EF80 0000 0020  xsym                 STB,B6   QI_1+32

      156    19492
      157    19493    3               QI_1.OP.CIP.T_A (0) = QI_16_BIT_BINARY_A (0);

  19493   1 000116  E800 0000 0000  xsym                 LDR,R6   QI_16_BIT_BINARY
          1 000119  EF00 0000 001C  xsym                 STR,R6   QI_1+28

      158    19494    3               QI_1.OP.DATA.T$ = ADDR ( TIME_TO_WAIT_IN_SECONDS );

  19494   1 00011C  DBC7 0031                            LAB,B5   TIME_TO_WAIT_IN_SECONDS,AUTO
          1 00011E  DF80 0000 0022  xsym                 STB,B5   QI_1+34

      159    19495    3               CALL QCC$CDB ( QI_1.OP )

  19495   1 000121  BB80 0000 0006  02                   LAB,B3   +6
          1 000124  CBF0 0100                            LAB,B4   256,IMO
          1 000126  E380 0000 0000  xent                 LNJ,B6   QCC$CDB
          1 000129       0003                            DC       s:19498,PREL
          1 00012A  0F81 000A                            B        s:19499,PREL

      160    19496    3               WHENALTRETURN
      161    19497    4                 DO;

      162    19498    4                   CALL QCE$ERROR_INTERNAL ( %E$UNEXPECTED_QCC_ALTRET );

  19498   1 00012C  BB80 0000 0009  02                   LAB,B3   +9
          1 00012F  CBF0 0100                            LAB,B4   256,IMO
          1 000131  E380 0000 0000  xent                 LNJ,B6   QCE$ERROR_INTERNAL
          1 000134       0001                            DC       s:19499,PREL
PL6.E3A0      #001=QBS$STOP_PAUSE File=QBS$STOP_PAUSE.:E05TSI                    WED 07/30/97 04:55 Page:23

      163    19499    4                 END;

  19499   1 000135  0F81 002E                            B        s:19516,PREL

      164    19500
      165    19501    3             CASE ( %QI#TYPE_DISPLAY, %QI#TYPE_PACKED );

      166    19502    3               QI_1.OP.CIP.T_A (0) = QI_16_BIT_BINARY_A (0);

  19502   1 000137  E800 0000 0000  xsym                 LDR,R6   QI_16_BIT_BINARY
          1 00013A  EF00 0000 001C  xsym                 STR,R6   QI_1+28

      167    19503    3               QI_1.OP.DEC.T = 0;

  19503   1 00013D  8700 0000 002A  xsym                 CL       QI_1+42

      168    19504    3               QI_1.OP.DATA.T$ = ADDR ( TIME_TO_WAIT_IN_SECONDS );

  19504   1 000140  EBC7 0031                            LAB,B6   TIME_TO_WAIT_IN_SECONDS,AUTO
          1 000142  EF80 0000 0022  xsym                 STB,B6   QI_1+34

      169    19505    3               CALL QCC$CDB ( QI_1.OP )

  19505   1 000145  BB80 0000 0006  02                   LAB,B3   +6
          1 000148  CBF0 0100                            LAB,B4   256,IMO
          1 00014A  E380 0000 0000  xent                 LNJ,B6   QCC$CDB
          1 00014D       0003                            DC       s:19508,PREL
          1 00014E  0F81 000A                            B        s:19509,PREL

      170    19506    3               WHENALTRETURN
      171    19507    4                 DO;

      172    19508    4                   CALL QCE$ERROR_INTERNAL ( %E$UNEXPECTED_QCC_ALTRET );

  19508   1 000150  BB80 0000 0009  02                   LAB,B3   +9
          1 000153  CBF0 0100                            LAB,B4   256,IMO
PL6.E3A0      #001=QBS$STOP_PAUSE File=QBS$STOP_PAUSE.:E05TSI                    WED 07/30/97 04:55 Page:24
          1 000155  E380 0000 0000  xent                 LNJ,B6   QCE$ERROR_INTERNAL
          1 000158       0001                            DC       s:19509,PREL

      173    19509    4                 END;

  19509   1 000159  0F81 000A                            B        s:19516,PREL

      174    19510
      175    19511    3             CASE ( ELSE );

      176    19512    3               CALL QCE$ERROR_INTERNAL ( %E$INTERNAL_COMPILER_ERROR );

  19512   1 00015B  BB80 0000 000C  02                   LAB,B3   +12
          1 00015E  CBF0 0100                            LAB,B4   256,IMO
          1 000160  E380 0000 0000  xent                 LNJ,B6   QCE$ERROR_INTERNAL
          1 000163       0001                            DC       s:19516,PREL

      177    19513
      178    19514    3           END;

      179    19515
      180    19516    2           FPT@WAIT = QI_FPT_WAIT;

  19516   1 000164  AB80 0000 0000  xsym                 LAB,B2   QI_FPT_WAIT
          1 000167  2C00                                 LDV,R2   0
          1 000168  6C14                                 LDV,R6   20
          1 000169  BB87                                 LAB,B3   ,AUTO
          1 00016A  3C26                                 LDV,R3   38
          1 00016B  0008                                 MMM

      181    19517    2           VBASE ( FPT@WAIT.V_ ) = ADDR ( FPT@WAIT.V );

  19517   1 00016C  EBC7 001C                            LAB,B6   FPT@WAIT+9,AUTO
          1 00016E  EFC7 0014                            STB,B6   FPT@WAIT+1,AUTO

      182    19518    2           FPT@WAIT.UNITS = VECTOR ( TIME_TO_WAIT_IN_SECONDS );

PL6.E3A0      #001=QBS$STOP_PAUSE File=QBS$STOP_PAUSE.:E05TSI                    WED 07/30/97 04:55 Page:25
  19518   1 000170  DBC7 0031                            LAB,B5   TIME_TO_WAIT_IN_SECONDS,AUTO
          1 000172  DFC7 0047                            STB,B5   QCM@MESS+13,AUTO
          1 000174  6C01                                 LDV,R6   1
          1 000175  EF47 0046                            STR,R6   QCM@MESS+12,AUTO
          1 000177  ABC7 0046                            LAB,B2   QCM@MESS+12,AUTO
          1 000179  2C00                                 LDV,R2   0
          1 00017A  6C06                                 LDV,R6   6
          1 00017B  BB87                                 LAB,B3   ,AUTO
          1 00017C  3C2C                                 LDV,R3   44
          1 00017D  0008                                 MMM

      183    19519
      184    19520    2           CALL M$WAIT ( FPT@WAIT )

  19520   1 00017E  BBC7 0013                            LAB,B3   FPT@WAIT,AUTO
          1 000180  B870 0CC5                            LDR,R3   3269,IMO
          1 000182  0001                                 MCL
          1 000183       0003                            DC       s:19523,PREL
          1 000184  0F81 000A                            B        s:19525,PREL

      185    19521    2           WHENALTRETURN
      186    19522    3             DO;

      187    19523    3               CALL QCE$ERROR_M$INTERNAL ( %E$UNEXPECTED_ALTRET );

  19523   1 000186  BB80 0000 0004  02                   LAB,B3   +4
          1 000189  CBF0 0100                            LAB,B4   256,IMO
          1 00018B  E380 0000 0000  xent                 LNJ,B6   QCE$ERROR_M$INTERNAL
          1 00018E       0001                            DC       s:19525,PREL

      188    19524    3             END;

      189    19525    2         END PAUSE_THE_TIME;

  19525   1 00018F  0F81 0014                            B        s:19536,PREL

      190    19526    1       ELSE
PL6.E3A0      #001=QBS$STOP_PAUSE File=QBS$STOP_PAUSE.:E05TSI                    WED 07/30/97 04:55 Page:26
      191    19527    1   READ_THE_MESSAGE_LINE:
      192    19528    2         DO;

  19528   1                              READ_THE_MESSAG*null
      193    19529    2           CALL QCM$MESS_PAUSE ( QCM@MESS );

  19529   1 000191  DBC7 003A            READ_THE_MESSAG*LAB,B5   QCM@MESS,AUTO
          1 000193  DFC7 0046                            STB,B5   QCM@MESS+12,AUTO
          1 000195  BBC7 0046                            LAB,B3   QCM@MESS+12,AUTO
          1 000197  CBF0 0100                            LAB,B4   256,IMO
          1 000199  E380 0000 0000  xent                 LNJ,B6   QCM$MESS_PAUSE
          1 00019C       0001                            DC       s:19531,PREL

      194    19530
      195    19531    2           IF QCM@MESS.STATUS = %QI#USE_INVALID_RETURN

  19531   1 00019D  E847 0042                            LDR,R6   QCM@MESS+8,AUTO
          1 00019F  6981 0004                            BNEZ,R6  s:19536,PREL

      196    19532    2           THEN
      197    19533    2             RETURN;

  19533   1 0001A1  C380 0000 0000  xent                 LNJ,B4   X6A_ARET

      198    19534    2         END READ_THE_MESSAGE_LINE;
      199    19535
      200    19536    1       IF INSTR$ -> QI$OP_STOP_PAUSE.IS_IMPLICIT_POSTING

  19536   1 0001A4  ECC7 002F                            LDB,B6   INSTR$,AUTO
          1 0001A6  82C6 0001                            LB,'0004'X        1,B6
          1 0001A8       0004
          1 0001A9  0581 000D                            BBF      s:19540,PREL

      201    19537    1       THEN
      202    19538    1         CALL QCM$MESS_ERASE ( QCM@MESS );

  19538   1 0001AB  DBC7 003A                            LAB,B5   QCM@MESS,AUTO
PL6.E3A0      #001=QBS$STOP_PAUSE File=QBS$STOP_PAUSE.:E05TSI                    WED 07/30/97 04:55 Page:27
          1 0001AD  DFC7 0046                            STB,B5   QCM@MESS+12,AUTO
          1 0001AF  BBC7 0046                            LAB,B3   QCM@MESS+12,AUTO
          1 0001B1  CBF0 0100                            LAB,B4   256,IMO
          1 0001B3  E380 0000 0000  xent                 LNJ,B6   QCM$MESS_ERASE
          1 0001B6       0001                            DC       s:19540,PREL

      203    19539
      204    19540    1       RETURN;

  19540   1 0001B7  C380 0000 0000  xent                 LNJ,B4   X6A_ARET
      205    19541
      206    19542    1   END QBS$STOP_PAUSE;
      207    19543

PL6.E3A0      #001=QBS$STOP_PAUSE File=QBS$STOP_PAUSE.:E05TSI                    WED 07/30/97 04:55 Page:28
--  Include file information  --

   QCM_MESS_M.:E05TOU  is referenced.
   QI_MACROS_M.:E05TOU  is referenced.
   QI_PERR_C.:E05TOU  is referenced.
   QI_EQUATES_E.:E05TOU  is referenced.
   QG_MACRO_M.:E05TOU  is referenced.
   NK_VFC_C.:E05TOU  is referenced.
   LCP_6.:E05TOU  cannot be made into a system file and is referenced.
   G_LCP6_E.:E05TOU  was found in the system file and is referenced.
   GT_LCP6_M.:E05TOU  was found in the system file and is referenced.
   KI_CP6.:E05TOU  was found in the system file and is referenced.
   GF_LCP6_M.:E05TOU  was found in the system file and is referenced.
   GM_LCP6_M.:E05TOU  was found in the system file and is referenced.
   GU_LCP6_M.:E05TOU  was found in the system file and is referenced.
   GJ_LCP6_M.:E05TOU  was found in the system file and is referenced.
   GH_LCP6_M.:E05TOU  was found in the system file and is referenced.
      No diagnostics issued in procedure QBS$STOP_PAUSE.
PL6.E3A0      #001=QBS$STOP_PAUSE File=QBS$STOP_PAUSE.:E05TSI                    WED 07/30/97 04:55 Page:29

 **** Variables and constants ****

  ****  Section 000 RoData QBS$STOP_PAUSE

  ****  Scalars and arrays  ****
HexLoc.c.b A Datatyp(siz) R M Lvl/name                 HexLoc.c.b A Datatyp(siz) R M Lvl/name

     0-0-0/w CHAR        r     1 VFC_OVERPRINT

  ****  Auto variables  ****

  ****  Scalars and arrays  ****
HexLoc.c.b A Datatyp(siz) R M Lvl/name                 HexLoc.c.b A Datatyp(siz) R M Lvl/name

     4-0-0/w STRC(240)   r     1 FPT@DEVICE                13-0-0/w STRC(160)   r     1 FPT@WAIT
    1D-0-0/w STRC(288)   r     1 FPT@WRITE                 2F-0-0/w PTR         r     1 INSTR$
    3A-0-0/w STRC(176)   r     1 QCM@MESS                  32-0-0/w STRC(128)   r     1 QI@OTTER_SPACE
    31-0-0/w UBIN(16)    r     1 TIME_TO_WAIT_IN_SECONDS

  ****  SYMREF variables  ****

  ****  Scalars and arrays  ****
HexLoc.c.b A Datatyp(siz) R M Lvl/name                 HexLoc.c.b A Datatyp(siz) R M Lvl/name

     0-0-0/w STRC(432)   r     1 QGB_PARAM                  0-0-0/d STRC(2576)  r     1 QI_1
     0-0-0/d STRC(32)    r     1 QI_16_BIT_BINARY
     0-0-0/d UBIN(16)    r     1 QI_16_BIT_BINARY_A(0:1)
     0-0-0/d STRC(32)    r     1 QI_31_DIGIT_ST_PACKED
     0-0-0/d UBIN(16)    r     1 QI_31_DIGIT_ST_PACKED_A(0:1)
     0-0-0/w STRC(240)   r     1 QI_FPT_DEVICE              0-0-0/w STRC(160)   r     1 QI_FPT_WAIT
     0-0-0/w STRC(288)   r     1 QI_FPT_WRITE

  ****  BASED and DCB variables  ****

  ****  Scalars and arrays  ****
HexLoc.c.b A Datatyp(siz) R M Lvl/name                 HexLoc.c.b A Datatyp(siz) R M Lvl/name

PL6.E3A0      #001=QBS$STOP_PAUSE File=QBS$STOP_PAUSE.:E05TSI                    WED 07/30/97 04:55 Page:30
     0-0-0/w STRC(176)   r     1 QI$GZ_HEADER               0-0-0/w STRC(80)    r     1 QI$OP_STOP_PAUSE
     0-0-0/c ASTR(8)     r     1 QI$VARIABLE_IDENTIFIER


   Procedure QBS$STOP_PAUSE requires 442 words for executable code.
   Procedure QBS$STOP_PAUSE requires 74 words of local(AUTO) storage.

    No errors detected in file QBS$STOP_PAUSE.:E05TSI    .
PL6.E3A0      #001=QBS$STOP_PAUSE File=QBS$STOP_PAUSE.:E05TSI                    WED 07/30/97 04:55 Page:31
          *** CROSS REFERENCE LISTING ***
**     DENOTES     IDENTIFIER DEFINITION
<<                 IDENTIFIER'S VALUE SET
>>                 IDENTIFIER'S VALUE USED
<>                 IDENTIFIER SET AND/OR USED
--                 IDENTIFIER REFERENCED
PL6.E3A0      #001=QBS$STOP_PAUSE File=QBS$STOP_PAUSE.:E05TSI                    WED 07/30/97 04:55 Page:32
          MINI XREF LISTING

FPT@DEVICE
       318**DCL     19460<<ASSIGN  19464<>CALL
FPT@DEVICE.V
       322**DCL     19461--ASSIGN
FPT@DEVICE.V.DCB#
       322**DCL     19462<<ASSIGN
FPT@DEVICE.V_
       320**DCL     19461<<ASSIGN
FPT@WAIT
       342**DCL     19516<<ASSIGN  19520<>CALL
FPT@WAIT.UNITS
       345**DCL     19518<<ASSIGN
FPT@WAIT.V
       346**DCL     19517--ASSIGN
FPT@WAIT.V_
       345**DCL     19517<<ASSIGN
FPT@WRITE
       367**DCL     19446<<ASSIGN  19452<>CALL
FPT@WRITE.BUF_
       369**DCL     19450<<ASSIGN
FPT@WRITE.V
       372**DCL     19447--ASSIGN
FPT@WRITE.V.DCB#
       372**DCL     19448<<ASSIGN
FPT@WRITE.V.DVBYTE.VFC
       373**DCL     19449<<ASSIGN
FPT@WRITE.V_
       369**DCL     19447<<ASSIGN
INSTR$
     19273**DCL     19411<<ASSIGN  19412>>ASSIGN  19416>>IF      19416>>IF      19421>>ASSIGN  19437>>IF
     19471>>ASSIGN  19536>>IF
M$WAIT
PL6.E3A0      #001=QBS$STOP_PAUSE File=QBS$STOP_PAUSE.:E05TSI                    WED 07/30/97 04:55 Page:33
       191**DCL-ENT 19520--CALL
QCC$CBD
     19277**DCL-ENT 19483--CALL
QCC$CDB
     19278**DCL-ENT 19495--CALL    19505--CALL
QCE$ERROR_INTERNAL
     19279**DCL-ENT 19486--CALL    19498--CALL    19508--CALL    19512--CALL
QCE$ERROR_M$INTERNAL
     19280**DCL-ENT 19455--CALL    19467--CALL    19523--CALL
QCM$MESS
     19281**DCL-ENT 19430--CALL
QCM$MESS_ERASE
     19282**DCL-ENT 19538--CALL
QCM$MESS_PAUSE
     19283**DCL-ENT 19529--CALL
QCM@MESS
     19375**DCL     19430<>CALL    19529<>CALL    19538<>CALL
QCM@MESS.IS_MESSAGE_A_DAD
     19379**DCL     19426<<ASSIGN
QCM@MESS.MESSAGE$
     19385**DCL     19427<<ASSIGN
QCM@MESS.MESSAGE_LINE_GZ_HEADER$
     19376**DCL     19425<<ASSIGN
QCM@MESS.STATUS
     19391**DCL     19432>>IF      19531>>IF
QCM@MESS.VISUAL_ATTRIBUTE
     19396**DCL     19428<<ASSIGN
QCS$SETUP_SOURCE
     19284**DCL-ENT 19423--CALL    19473--CALL
QCU$UPDATE_SCREEN
     19285**DCL-ENT 19444--CALL
QGB$DEVICE
       526**DCL-ENT 19464--CALL
QGB$WRITE
       524**DCL-ENT 19452--CALL
QGB_PARAM
PL6.E3A0      #001=QBS$STOP_PAUSE File=QBS$STOP_PAUSE.:E05TSI                    WED 07/30/97 04:55 Page:34
     11643**DCL     19452<>CALL    19464<>CALL
QGB_PARAM.DVE.DVBYTE.VFC
     11711**DCL     11712--REDEF
QGB_PARAM.DVE.EOMCHAR
     11723**DCL     11724--REDEF
QGB_PARAM.MSG$
     11705**DCL     11706--REDEF
QGB_PARAM.UHDR$
     11730**DCL     11731--REDEF
QI$ACTIVATION_STATUS
      9469**DCL      9475--REDEF
QI$CIP
      8310**DCL      8380--REDEF
QI$CIP.CA
      8315**DCL      8319--REDEF    8322--REDEF    8325--REDEF
QI$COBOL_DAD.PSEUDO_CIP
      8554**DCL      8579--REDEF
QI$COBOL_DAD.PSEUDO_CIP.ALPHANUMERIC
      8556**DCL      8561--REDEF
QI$COBOL_DAD.PSEUDO_CIP.NUMERIC.CB
      8562**DCL      8565--REDEF    8568--REDEF
QI$COBOL_DAD.VARIABLE_LENGTH_ITEMS
      8590**DCL      8606--REDEF    8614--REDEF    8622--REDEF
QI$COBOL_DAD.VARIABLE_LENGTH_ITEMS.LEVEL_MULTIPLIERS
      8591**DCL      8601--REDEF    8604--REDEF
QI$COBOL_DAD.WORD0
      8518**DCL      8519--REDEF    8533--REDEF
QI$COBOL_DAD_P_BITS.P
      8658**DCL      8664--REDEF
QI$CONDITION_CONTROL_BLOCK.LIST_A@P
      8144**DCL      8145--REDEF
QI$CONDITION_CONTROL_BLOCK.WORD0_FLAGS
      8140**DCL      8143--REDEF
QI$CONDITION_LEGAL_BLOCK.ARRAY@P
      8177**DCL      8178--REDEF    8179--REDEF
QI$DAD.PSEUDO_CIP
PL6.E3A0      #001=QBS$STOP_PAUSE File=QBS$STOP_PAUSE.:E05TSI                    WED 07/30/97 04:55 Page:35
      8457**DCL      8482--REDEF
QI$DAD.PSEUDO_CIP.ALPHANUMERIC
      8459**DCL      8464--REDEF
QI$DAD.PSEUDO_CIP.NUMERIC.CB
      8465**DCL      8468--REDEF    8471--REDEF
QI$DAD.WORD0
      8426**DCL      8427--REDEF
QI$ERROR_MESSAGE_LINE
     11818**DCL     11820--REDEF
QI$ERROR_STATUS
     11815**DCL     11817--REDEF
QI$FIELD_DAD.ELEMENTARY_ITEM.P
      8872**DCL      8879--REDEF
QI$FIELD_DAD.ONE_DIMENSIONAL_ITEM.P
      8892**DCL      8899--REDEF
QI$FIELD_DAD.PSEUDO_CIP
      8799**DCL      8824--REDEF
QI$FIELD_DAD.PSEUDO_CIP.ALPHANUMERIC
      8801**DCL      8806--REDEF
QI$FIELD_DAD.PSEUDO_CIP.NUMERIC.CB
      8807**DCL      8810--REDEF    8813--REDEF
QI$FIELD_DAD.TWO_DIMENSIONAL_ITEM.P
      8912**DCL      8919--REDEF
QI$FIELD_DAD.VARIABLE_LENGTH_ITEMS
      8855**DCL      8871--REDEF    8889--REDEF    8907--REDEF
QI$FIELD_DAD.VARIABLE_LENGTH_ITEMS.LEVEL_MULTIPLIERS
      8856**DCL      8866--REDEF    8869--REDEF
QI$FIELD_DAD.WORD0
      8751**DCL      8752--REDEF
QI$FIELD_DAD.WORD0_FLAGS.IO_FLAGS
      8755**DCL      8760--REDEF
QI$FIELD_DAD_P.P
      8953**DCL      8960--REDEF
QI$FIELD_STATUS.INDICATORS
      9619**DCL      9651--REDEF
QI$FIELD_STATUS.INDICATORS.ENABLED_FLAGS
PL6.E3A0      #001=QBS$STOP_PAUSE File=QBS$STOP_PAUSE.:E05TSI                    WED 07/30/97 04:55 Page:36
      9623**DCL      9628--REDEF
QI$FIELD_STATUS.INDICATORS.OPEN_FLAGS
      9635**DCL      9642--REDEF
QI$FIELD_STATUS.INDICATORS.STATE_FLAGS
      9629**DCL      9634--REDEF
QI$FILE.WORD0
      9075**DCL      9076--REDEF
QI$FILE_STATUS.INDICATORS
      9912**DCL      9944--REDEF
QI$FILE_STATUS.INDICATORS.ENABLED_FLAGS
      9916**DCL      9921--REDEF
QI$FILE_STATUS.INDICATORS.OPEN_FLAGS
      9928**DCL      9935--REDEF
QI$FILE_STATUS.INDICATORS.STATE_FLAGS
      9922**DCL      9927--REDEF
QI$FORM_FILE.USE_PROCEDURE
      9175**DCL      9182--REDEF
QI$FORM_FILE.WORD0
      9129**DCL      9130--REDEF
QI$FORM_STATUS.INDICATORS
     10033**DCL     10065--REDEF
QI$FORM_STATUS.INDICATORS.ENABLED_FLAGS
     10037**DCL     10042--REDEF
QI$FORM_STATUS.INDICATORS.OPEN_FLAGS
     10049**DCL     10056--REDEF
QI$FORM_STATUS.INDICATORS.STATE_FLAGS
     10043**DCL     10048--REDEF
QI$FRAME.WORD0
      9290**DCL      9291--REDEF
QI$FRAME_STATUS.INDICATORS
     10262**DCL     10294--REDEF
QI$FRAME_STATUS.INDICATORS.ENABLED_FLAGS
     10266**DCL     10271--REDEF
QI$FRAME_STATUS.INDICATORS.OPEN_FLAGS
     10278**DCL     10285--REDEF
QI$FRAME_STATUS.INDICATORS.STATE_FLAGS
PL6.E3A0      #001=QBS$STOP_PAUSE File=QBS$STOP_PAUSE.:E05TSI                    WED 07/30/97 04:55 Page:37
     10272**DCL     10277--REDEF
QI$GZ_FIELD.DESCRIPTION.IO_FLAGS
     17144**DCL     17149--REDEF
QI$GZ_HEADER.DCB#
     17098**DCL     19448>>ASSIGN  19462>>ASSIGN
QI$IDENTIFIER
     11821**DCL     11823--REDEF
QI$INDICATORS
      9533**DCL      9563--REDEF
QI$INDICATORS.ENABLED_FLAGS
      9539**DCL      9544--REDEF
QI$INDICATORS.OPEN_FLAGS
      9551**DCL      9558--REDEF
QI$INDICATORS.STATE_FLAGS
      9545**DCL      9550--REDEF
QI$MAJOR_NODE.WORD0
      8989**DCL      8990--REDEF
QI$MAJOR_STATUS.INDICATORS
      9712**DCL      9744--REDEF
QI$MAJOR_STATUS.INDICATORS.ENABLED_FLAGS
      9716**DCL      9721--REDEF
QI$MAJOR_STATUS.INDICATORS.OPEN_FLAGS
      9728**DCL      9735--REDEF
QI$MAJOR_STATUS.INDICATORS.STATE_FLAGS
      9722**DCL      9727--REDEF
QI$MESSAGE_TYPE
     11812**DCL     11814--REDEF
QI$MINOR_NODE.WORD0
      9032**DCL      9033--REDEF
QI$MINOR_STATUS.INDICATORS
      9805**DCL      9837--REDEF
QI$MINOR_STATUS.INDICATORS.ENABLED_FLAGS
      9809**DCL      9814--REDEF
QI$MINOR_STATUS.INDICATORS.OPEN_FLAGS
      9821**DCL      9828--REDEF
QI$MINOR_STATUS.INDICATORS.STATE_FLAGS
PL6.E3A0      #001=QBS$STOP_PAUSE File=QBS$STOP_PAUSE.:E05TSI                    WED 07/30/97 04:55 Page:38
      9815**DCL      9820--REDEF
QI$OP_ACCEPT.DATANAME@P
      6220**DCL      6221--REDEF
QI$OP_CALL.EPTR$
      6392**DCL      6393--REDEF
QI$OP_CLEAR.IO_FLAGS
      6425**DCL      6428--REDEF
QI$OP_DISPLAY.FIELD_A@P
      6692**DCL      6693--REDEF
QI$OP_ENABLE.IO_FLAGS
      6779**DCL      6782--REDEF
QI$OP_IFCLS.ATTRIBUTE.TYPE
      6872**DCL      6877--REDEF
QI$OP_INSPECT.TALLYING_FOR_ITEM@P
      7106**DCL      7107--REDEF
QI$OP_INSPECT.TALLYING_INITIAL_ITEM@P
      7108**DCL      7109--REDEF
QI$OP_INSPECT.TALLYING_ITEM@P
      7104**DCL      7105--REDEF
QI$OP_OPEN.IO_FLAGS
      7666**DCL      7669--REDEF
QI$OP_PERFM.BINARY_ITERATION_COUNT@P
      7704**DCL      7705--REDEF
QI$OP_STOP_PAUSE.IS_EXPLICIT_POSTING
      7852**DCL     19416>>IF
QI$OP_STOP_PAUSE.IS_IMPLICIT_POSTING
      7851**DCL     19416>>IF      19536>>IF
QI$OP_STOP_PAUSE.IS_PAUSING
      7853**DCL     19437>>IF
QI$OP_STOP_PAUSE.NEXT_CODE@P
      7856**DCL     19412--ASSIGN
QI$OP_STOP_PAUSE.PAUSING_OPERAND@P
      7854**DCL     19471--ASSIGN
QI$OP_STOP_PAUSE.POSTING_OPERAND@P
      7855**DCL     19421--ASSIGN
QI$PSEUDO_CIP
PL6.E3A0      #001=QBS$STOP_PAUSE File=QBS$STOP_PAUSE.:E05TSI                    WED 07/30/97 04:55 Page:39
      8205**DCL      8229--REDEF
QI$PSEUDO_CIP.ALPHANUMERIC
      8209**DCL      8214--REDEF
QI$PSEUDO_CIP.NUMERIC.CB
      8215**DCL      8218--REDEF    8221--REDEF
QI$TERMINAL_ATTRIBUTES
      9426**DCL      9439--REDEF
QI$TRAN_FILE.WORD0
      9211**DCL      9212--REDEF
QI$TRAN_STATUS.INDICATORS
     10146**DCL     10178--REDEF
QI$TRAN_STATUS.INDICATORS.ENABLED_FLAGS
     10150**DCL     10155--REDEF
QI$TRAN_STATUS.INDICATORS.OPEN_FLAGS
     10162**DCL     10169--REDEF
QI$TRAN_STATUS.INDICATORS.STATE_FLAGS
     10156**DCL     10161--REDEF
QI$VARIABLE_IDENTIFIER.LENGTH
     11825**DCL     11826--IMP-SIZ
QI@OTTER_SPACE
     19302**DCL     19304--REDEF   19305--REDEF   19482--ASSIGN
QI_1.A_REG
     11099**DCL     19414<<ASSIGN
QI_1.BASE
     10354**DCL     10361--REDEF
QI_1.CURRENT.FILE$
     11245**DCL     11247--REDEF   11249--REDEF
QI_1.CURRENT.FILE_STATUS$
     11251**DCL     11253--REDEF   11255--REDEF
QI_1.DAD
     11049**DCL     11054--REDEF
QI_1.DAD.S$
     11051**DCL     19427>>ASSIGN
QI_1.FILE_HEAD
     11232**DCL     11239--REDEF
QI_1.INSTR$
PL6.E3A0      #001=QBS$STOP_PAUSE File=QBS$STOP_PAUSE.:E05TSI                    WED 07/30/97 04:55 Page:40
     10362**DCL     19411>>ASSIGN  19412<<ASSIGN
QI_1.IS_ALL_LIT
     11055**DCL     11060--REDEF
QI_1.IS_FORM_VARIABLE
     11061**DCL     11066--REDEF
QI_1.IS_TEMP
     11067**DCL     11072--REDEF
QI_1.MESSAGE_LINE_DAD.PSEUDO_CIP
     11165**DCL     11190--REDEF
QI_1.MESSAGE_LINE_DAD.PSEUDO_CIP.ALPHANUMERIC
     11167**DCL     11172--REDEF
QI_1.MESSAGE_LINE_DAD.PSEUDO_CIP.NUMERIC.CB
     11173**DCL     11176--REDEF   11179--REDEF
QI_1.MESSAGE_LINE_DAD.WORD0
     11134**DCL     11135--REDEF
QI_1.MESSAGE_LINE_GZ.HEADER$
     11211**DCL     19425>>ASSIGN  19448>>ASSIGN  19462>>ASSIGN
QI_1.OFFSET
     11073**DCL     11078--REDEF
QI_1.OP
     10432**DCL     19483<>CALL    19495<>CALL    19505<>CALL
QI_1.OP.CIP
     10434**DCL     10885--REDEF
QI_1.OP.CIP.AUX
     10800**DCL     10871--REDEF
QI_1.OP.CIP.AUX.CD
     10845**DCL     10848--REDEF   10852--REDEF   10855--REDEF
QI_1.OP.CIP.S
     10504**DCL     10575--REDEF
QI_1.OP.CIP.S.CD
     10549**DCL     10552--REDEF   10556--REDEF   10559--REDEF
QI_1.OP.CIP.S_A
     10575**DCL     19489<<ASSIGN
QI_1.OP.CIP.T
     10652**DCL     10723--REDEF
QI_1.OP.CIP.T.CD
PL6.E3A0      #001=QBS$STOP_PAUSE File=QBS$STOP_PAUSE.:E05TSI                    WED 07/30/97 04:55 Page:41
     10697**DCL     10700--REDEF   10704--REDEF   10707--REDEF
QI_1.OP.CIP.T_A
     10723**DCL     19480<<ASSIGN  19489>>ASSIGN  19493<<ASSIGN  19502<<ASSIGN
QI_1.OP.DATA
     10892**DCL     10896--REDEF
QI_1.OP.DATA.S$
     10893**DCL     19491<<ASSIGN
QI_1.OP.DATA.T$
     10894**DCL     19482<<ASSIGN  19491>>ASSIGN  19494<<ASSIGN  19504<<ASSIGN
QI_1.OP.DEC.S
     10955**DCL     19490<<ASSIGN
QI_1.OP.DEC.T
     10956**DCL     19481<<ASSIGN  19503<<ASSIGN
QI_1.OP.FILL_CHAR
     11016**DCL     11019--REDEF
QI_1.OP.INX
     10949**DCL     10953--REDEF   10954--REDEF   10958--REDEF
QI_1.OP.LEN
     10932**DCL     10936--REDEF   10937--REDEF   10941--REDEF   10942--REDEF   10946--REDEF
QI_1.OP.LEN.AUX
     10935**DCL     11836--IMP-SIZ
QI_1.OP.LEN.S
     10933**DCL     11832--IMP-SIZ
QI_1.OP.LEN.T
     10934**DCL     11834--IMP-SIZ
QI_1.OP.PICTURE_STRING
     11002**DCL     11005--REDEF   11006--REDEF   11009--REDEF   11010--REDEF   11013--REDEF
QI_1.OP.ROUND
     11035**DCL     11036--REDEF   11037--REDEF
QI_1.OP.SIZE_ERROR
     11019**DCL     19475<<ASSIGN
QI_1.OP.SRCH_VRFY_ELEMS
     10971**DCL     10974--REDEF
QI_1.OPENED_COUNT
     11240**DCL     11243--REDEF
QI_1.OTTER_SPACE
PL6.E3A0      #001=QBS$STOP_PAUSE File=QBS$STOP_PAUSE.:E05TSI                    WED 07/30/97 04:55 Page:42
     11079**DCL     11084--REDEF
QI_1.PICTURE_STRING
     11085**DCL     11090--REDEF
QI_1.SCREEN_UPDATE_FLAGS
     10393**DCL     19442>>IF
QI_1.SOURCE$
     10405**DCL     19421<<ASSIGN  19471<<ASSIGN
QI_1.SPECIAL_NAMES
     11268**DCL     11277--REDEF
QI_1.TYPE
     11091**DCL     11096--REDEF
QI_1.TYPE.S
     11093**DCL     19477>>DOCASE
QI_16_BIT_BINARY
     16281**DCL     16351--REDEF
QI_16_BIT_BINARY.CB
     16300**DCL     16303--REDEF   16307--REDEF   16310--REDEF
QI_16_BIT_BINARY_A
     16351**DCL     19493>>ASSIGN  19502>>ASSIGN
QI_31_DIGIT_SLS_DISPLAY
     16114**DCL     16184--REDEF
QI_31_DIGIT_SLS_DISPLAY.CD
     16161**DCL     16164--REDEF   16168--REDEF   16171--REDEF
QI_31_DIGIT_ST_PACKED
     16616**DCL     16686--REDEF
QI_31_DIGIT_ST_PACKED.CP
     16649**DCL     16652--REDEF   16656--REDEF   16659--REDEF
QI_31_DIGIT_ST_PACKED_A
     16686**DCL     19480>>ASSIGN
QI_32_BIT_BINARY
     16448**DCL     16518--REDEF
QI_32_BIT_BINARY.CB
     16467**DCL     16470--REDEF   16474--REDEF   16477--REDEF
QI_4_CHAR_ALPHANUMERIC
     15946**DCL     16016--REDEF
QI_4_CHAR_ALPHANUMERIC.CA
PL6.E3A0      #001=QBS$STOP_PAUSE File=QBS$STOP_PAUSE.:E05TSI                    WED 07/30/97 04:55 Page:43
     15951**DCL     15955--REDEF   15958--REDEF   15961--REDEF
QI_ACCUMULATOR_DAD.CIP
     16959**DCL     17030--REDEF
QI_ACCUMULATOR_DAD.CIP.CP
     16990**DCL     16993--REDEF   16997--REDEF   17000--REDEF
QI_ALR.CIP
     11911**DCL     12362--REDEF
QI_ALR.CIP.AUX
     12277**DCL     12348--REDEF
QI_ALR.CIP.AUX.CA
     12280**DCL     12284--REDEF   12287--REDEF   12290--REDEF
QI_ALR.CIP.S
     11981**DCL     12052--REDEF
QI_ALR.CIP.S.CA
     11984**DCL     11988--REDEF   11991--REDEF   11994--REDEF
QI_ALR.CIP.T
     12129**DCL     12200--REDEF
QI_ALR.CIP.T.CA
     12132**DCL     12136--REDEF   12139--REDEF   12142--REDEF
QI_ALR.DATA
     12369**DCL     12373--REDEF
QI_ALR.FILL_CHAR
     12493**DCL     12496--REDEF
QI_ALR.INX
     12426**DCL     12430--REDEF   12431--REDEF   12435--REDEF
QI_ALR.LEN
     12409**DCL     12413--REDEF   12414--REDEF   12418--REDEF   12419--REDEF   12423--REDEF
QI_ALR.PICTURE_STRING
     12479**DCL     12482--REDEF   12483--REDEF   12486--REDEF   12487--REDEF   12490--REDEF
QI_ALR.ROUND
     12512**DCL     12513--REDEF   12514--REDEF
QI_ALR.SRCH_VRFY_ELEMS
     12448**DCL     12451--REDEF
QI_FPT_DBCONTROL.V_
     17331**DCL     17331--REDEF
QI_FPT_DEVICE
PL6.E3A0      #001=QBS$STOP_PAUSE File=QBS$STOP_PAUSE.:E05TSI                    WED 07/30/97 04:55 Page:44
     17504**DCL     19460>>ASSIGN
QI_FPT_INT.V_
     18169**DCL     18169--REDEF
QI_FPT_WAIT
     19108**DCL     19516>>ASSIGN
QI_FPT_WRITE
     19158**DCL     19446>>ASSIGN
QI_MAT.CIP
     15250**DCL     15701--REDEF
QI_MAT.CIP.AUX
     15616**DCL     15687--REDEF
QI_MAT.CIP.AUX.CA
     15619**DCL     15623--REDEF   15626--REDEF   15629--REDEF
QI_MAT.CIP.S
     15320**DCL     15391--REDEF
QI_MAT.CIP.S.CA
     15323**DCL     15327--REDEF   15330--REDEF   15333--REDEF
QI_MAT.CIP.T
     15468**DCL     15539--REDEF
QI_MAT.CIP.T.CA
     15471**DCL     15475--REDEF   15478--REDEF   15481--REDEF
QI_MAT.DATA
     15708**DCL     15712--REDEF
QI_MAT.DEC
     15776**DCL     15780--REDEF   15781--REDEF   15785--REDEF
QI_MAT.FILL_CHAR
     15832**DCL     15835--REDEF
QI_MAT.LEN
     15748**DCL     15752--REDEF   15753--REDEF   15757--REDEF   15758--REDEF   15762--REDEF
QI_MAT.PICTURE_STRING
     15818**DCL     15821--REDEF   15822--REDEF   15825--REDEF   15826--REDEF   15829--REDEF
QI_MAT.ROUND
     15851**DCL     15852--REDEF   15853--REDEF
QI_MAT.SRCH_VRFY_ELEMS
     15787**DCL     15790--REDEF
QI_PICTURE_STRING
PL6.E3A0      #001=QBS$STOP_PAUSE File=QBS$STOP_PAUSE.:E05TSI                    WED 07/30/97 04:55 Page:45
     16784**DCL     16854--REDEF
QI_PICTURE_STRING.CA
     16789**DCL     16793--REDEF   16796--REDEF   16799--REDEF
QI_SRCH_VRFY.CIP
     14581**DCL     15032--REDEF
QI_SRCH_VRFY.CIP.AUX
     14947**DCL     15018--REDEF
QI_SRCH_VRFY.CIP.AUX.CA
     14950**DCL     14954--REDEF   14957--REDEF   14960--REDEF
QI_SRCH_VRFY.CIP.S
     14651**DCL     14722--REDEF
QI_SRCH_VRFY.CIP.S.CA
     14654**DCL     14658--REDEF   14661--REDEF   14664--REDEF
QI_SRCH_VRFY.CIP.T
     14799**DCL     14870--REDEF
QI_SRCH_VRFY.CIP.T.CA
     14802**DCL     14806--REDEF   14809--REDEF   14812--REDEF
QI_SRCH_VRFY.DATA
     15039**DCL     15043--REDEF
QI_SRCH_VRFY.DEC
     15107**DCL     15111--REDEF   15112--REDEF   15116--REDEF
QI_SRCH_VRFY.FILL_CHAR
     15163**DCL     15166--REDEF
QI_SRCH_VRFY.ROUND
     15182**DCL     15183--REDEF   15184--REDEF
QI_SRCH_VRFY.SRCH_RESULT
     15123**DCL     15126--REDEF   15127--REDEF   15130--REDEF   15131--REDEF   15134--REDEF
QI_SRCH_VRFY.SRCH_VRFY_ARGS
     15047**DCL     15051--REDEF   15052--REDEF   15056--REDEF   15057--REDEF   15061--REDEF
QI_SRCH_VRFY.SRCH_VRFY_ELEMS
     15118**DCL     15121--REDEF
QI_TYPE_BINARY_TARGET.CIP
     13908**DCL     14359--REDEF
QI_TYPE_BINARY_TARGET.CIP.AUX
     14274**DCL     14345--REDEF
QI_TYPE_BINARY_TARGET.CIP.AUX.CA
PL6.E3A0      #001=QBS$STOP_PAUSE File=QBS$STOP_PAUSE.:E05TSI                    WED 07/30/97 04:55 Page:46
     14277**DCL     14281--REDEF   14284--REDEF   14287--REDEF
QI_TYPE_BINARY_TARGET.CIP.S
     13978**DCL     14049--REDEF
QI_TYPE_BINARY_TARGET.CIP.S.CA
     13981**DCL     13985--REDEF   13988--REDEF   13991--REDEF
QI_TYPE_BINARY_TARGET.CIP.T
     14126**DCL     14197--REDEF
QI_TYPE_BINARY_TARGET.CIP.T.CB
     14143**DCL     14146--REDEF   14150--REDEF   14153--REDEF
QI_TYPE_BINARY_TARGET.DATA
     14366**DCL     14370--REDEF
QI_TYPE_BINARY_TARGET.DEC
     14434**DCL     14438--REDEF   14439--REDEF   14443--REDEF
QI_TYPE_BINARY_TARGET.LEN
     14406**DCL     14410--REDEF   14411--REDEF   14415--REDEF   14416--REDEF   14420--REDEF
QI_TYPE_BINARY_TARGET.PICTURE_STRING
     14476**DCL     14479--REDEF   14480--REDEF   14483--REDEF   14484--REDEF   14487--REDEF
QI_TYPE_BINARY_TARGET.ROUND
     14509**DCL     14510--REDEF   14511--REDEF
QI_TYPE_BINARY_TARGET.SIZE_ERROR
     14495**DCL     14496--REDEF
QI_TYPE_BINARY_TARGET.SRCH_VRFY_ELEMS
     14445**DCL     14448--REDEF
QI_TYPE_DISPLAY_SOURCE.CIP
     12576**DCL     13027--REDEF
QI_TYPE_DISPLAY_SOURCE.CIP.AUX
     12942**DCL     13013--REDEF
QI_TYPE_DISPLAY_SOURCE.CIP.AUX.CA
     12945**DCL     12949--REDEF   12952--REDEF   12955--REDEF
QI_TYPE_DISPLAY_SOURCE.CIP.S
     12646**DCL     12717--REDEF
QI_TYPE_DISPLAY_SOURCE.CIP.S.CD
     12691**DCL     12694--REDEF   12698--REDEF   12701--REDEF
QI_TYPE_DISPLAY_SOURCE.CIP.T
     12794**DCL     12865--REDEF
QI_TYPE_DISPLAY_SOURCE.CIP.T.CA
PL6.E3A0      #001=QBS$STOP_PAUSE File=QBS$STOP_PAUSE.:E05TSI                    WED 07/30/97 04:55 Page:47
     12797**DCL     12801--REDEF   12804--REDEF   12807--REDEF
QI_TYPE_DISPLAY_SOURCE.DATA
     13034**DCL     13038--REDEF
QI_TYPE_DISPLAY_SOURCE.DEC
     13102**DCL     13106--REDEF   13107--REDEF   13111--REDEF
QI_TYPE_DISPLAY_SOURCE.LEN
     13074**DCL     13078--REDEF   13079--REDEF   13083--REDEF   13084--REDEF   13088--REDEF
QI_TYPE_DISPLAY_SOURCE.PICTURE_STRING
     13144**DCL     13147--REDEF   13148--REDEF   13151--REDEF   13152--REDEF   13155--REDEF
QI_TYPE_DISPLAY_SOURCE.ROUND
     13177**DCL     13178--REDEF   13179--REDEF
QI_TYPE_DISPLAY_SOURCE.SIZE_ERROR
     13163**DCL     13164--REDEF
QI_TYPE_DISPLAY_SOURCE.SRCH_VRFY_ELEMS
     13113**DCL     13116--REDEF
QI_TYPE_DISPLAY_TARGET.CIP
     13242**DCL     13693--REDEF
QI_TYPE_DISPLAY_TARGET.CIP.AUX
     13608**DCL     13679--REDEF
QI_TYPE_DISPLAY_TARGET.CIP.AUX.CA
     13611**DCL     13615--REDEF   13618--REDEF   13621--REDEF
QI_TYPE_DISPLAY_TARGET.CIP.S
     13312**DCL     13383--REDEF
QI_TYPE_DISPLAY_TARGET.CIP.S.CA
     13315**DCL     13319--REDEF   13322--REDEF   13325--REDEF
QI_TYPE_DISPLAY_TARGET.CIP.T
     13460**DCL     13531--REDEF
QI_TYPE_DISPLAY_TARGET.CIP.T.CD
     13505**DCL     13508--REDEF   13512--REDEF   13515--REDEF
QI_TYPE_DISPLAY_TARGET.DATA
     13700**DCL     13704--REDEF
QI_TYPE_DISPLAY_TARGET.DEC
     13768**DCL     13772--REDEF   13773--REDEF   13777--REDEF
QI_TYPE_DISPLAY_TARGET.LEN
     13740**DCL     13744--REDEF   13745--REDEF   13749--REDEF   13750--REDEF   13754--REDEF
QI_TYPE_DISPLAY_TARGET.PICTURE_STRING
PL6.E3A0      #001=QBS$STOP_PAUSE File=QBS$STOP_PAUSE.:E05TSI                    WED 07/30/97 04:55 Page:48
     13810**DCL     13813--REDEF   13814--REDEF   13817--REDEF   13818--REDEF   13821--REDEF
QI_TYPE_DISPLAY_TARGET.ROUND
     13843**DCL     13844--REDEF   13845--REDEF
QI_TYPE_DISPLAY_TARGET.SIZE_ERROR
     13829**DCL     13830--REDEF
QI_TYPE_DISPLAY_TARGET.SRCH_VRFY_ELEMS
     13779**DCL     13782--REDEF
QI_VLP_SEGMENT.BASE
     17868**DCL     17868--REDEF
QI_VLP_SEGMENT_BUFFER.BASE
     17966**DCL     17966--REDEF
QI_VLP_SEGMENT_LOAD.BASE
     18064**DCL     18064--REDEF
QI_VLP_TRMCTL.BREAKCOUNT
     19058**DCL     19059--REDEF
QI_VLP_XBREAK.IC
     19248**DCL     19248--REDEF
QI_VLP_XBREAK.OLDIC
     19248**DCL     19249--REDEF   19249--REDEF
TIME_TO_WAIT_IN_SECONDS
     19274**DCL     19494--ASSIGN  19504--ASSIGN  19518--ASSIGN
VFC_OVERPRINT
     19276**DCL     19450--ASSIGN
