VERSION E05

PL6.E3A0      #001=QBS$STOP_RUN File=QBS$STOP_RUN.:E05TSI                        WED 07/30/97 04:56 Page:1
        1        1        /*M* QBS$STOP_RUN:  Execute a STOP RUN statement.  */
        2        2        /*T***********************************************************/
        3        3        /*T*                                                         */
        4        4        /*T* Copyright (c) Bull HN Information Systems Inc., 1997    */
        5        5        /*T*                                                         */
        6        6        /*T***********************************************************/
        7        7        /*X* DMC,PLM=4,IND=0,DCI=4,CSI=2,IAD=2,DTI=2,AND,ECI=0,DIN=2,STI=2 */
        8        8
        9        9        /*P*  NAME:         QBS$STOP_RUN
       10       10              PURPOSE:      Stop the program (exit).
       11       11              DESCRIPTION:  Execute a STOP_RUN op-code (no arguments).
       12       12        */
       13       13
       14       14        QBS$STOP_RUN: PROC;
       15       15
       16       16        /*D*  NAME:         QBS$STOP_RUN
       17       17              CALL:         CALL QBS$STOP_RUN;
       18       18              PARAMETERS:   None.
       19       19              INTERFACE:    Called by QAT$TALLYHO when a STOP_RUN
       20       20                            op-code is encountered.  Calls M$EXIT.
       21       21              ENVIRONMENT:  Nothing unusual; ready to exit.
       22       22              INPUT:        QI_1.
       23       23              OUTPUT:       Stops.
       24       24              SCRATCH:      Not a whole lot.
       25       25              DESCRIPTION:  Call M$EXIT.
       26       26                            (Any cleanup required?)
       27       27        */
       28       28
       29       29          %INCLUDE LCP_6;
       30      220
       31      221          %INCLUDE QG_MACRO_M;
       32      358          %INCLUDE QI_EQUATES_E;
       33      717          %INCLUDE QI_MACROS_M;
       34     5775          %QI$ALL;
       35    16888
       36    16889    1     DCL QCU$RESTORE_PAGEHALT ENTRY;
       37    16890
PL6.E3A0      #001=QBS$STOP_RUN File=QBS$STOP_RUN.:E05TSI                        WED 07/30/97 04:56 Page:2
       38    16891    1       CALL QCU$RESTORE_PAGEHALT;
       39    16892    1       CALL M$EXIT;
       40    16893
       41    16894    1   END QBS$STOP_RUN;

PL6.E3A0      #001=QBS$STOP_RUN File=QBS$STOP_RUN.:E05TSI                        WED 07/30/97 04:56 Page:3
--  Include file information  --

   QI_MACROS_M.:E05TOU  is referenced.
   QI_EQUATES_E.:E05TOU  is referenced.
   QG_MACRO_M.:E05TOU  is referenced.
   LCP_6.:E05TOU  cannot be made into a system file and is referenced.
   G_LCP6_E.:E05TOU  was found in the system file and is referenced.
   GT_LCP6_M.:E05TOU  was found in the system file and is referenced.
   KI_CP6.:E05TOU  was found in the system file and is referenced.
   GF_LCP6_M.:E05TOU  was found in the system file and is referenced.
   GM_LCP6_M.:E05TOU  was found in the system file and is referenced.
   GU_LCP6_M.:E05TOU  was found in the system file and is referenced.
   GJ_LCP6_M.:E05TOU  was found in the system file and is referenced.
   GH_LCP6_M.:E05TOU  was found in the system file and is referenced.
      No diagnostics issued in procedure QBS$STOP_RUN.

   Procedure QBS$STOP_RUN requires 18 words for executable code.
   Procedure QBS$STOP_RUN requires 4 words of local(AUTO) storage.

    No errors detected in file QBS$STOP_RUN.:E05TSI    .

PL6.E3A0      #001=QBS$STOP_RUN File=QBS$STOP_RUN.:E05TSI                        WED 07/30/97 04:56 Page:4

 Object Unit name= QBS$STOP_RUN                               File name= QBS$STOP_RUN.:E05TOU
 UTS= JUL 30 '97 04:56:52.12 WED                              Compiler= PL-6/E31         Sev=      00
 SharedLib= :SHARED_LCP6_SYSTEM                               Alt SharedLib=


    ****  Control sections  ****

 Sect   Type Bound  Init  Size HexSiz  Section name
    0   Proc  even  none    18     12  QBS$STOP_RUN

    ****  Entry defs  ****

                              Check   Calling
                             calling  sequence
  Sect HexLoc Primary Altret sequence   type   Parms  Name
     0      0   yes            yes      Std        0  QBS$STOP_RUN

  ****  Entry refs  ****

         Check        Calling
        calling       sequence
Altret sequence SRef   type   Args  Name
         yes           Std       0 QCU$RESTORE_PAGEHALT
                       nStd      0 X6A_AUTO_0
                       nStd      0 X6A_ARET

  ****  Data refs  ****

  Flags:  r = read only, s = secondary
Flgs Name                             Flgs Name                             Flgs Name
     QI_1                                  QI_4_CHAR_ALPHANUMERIC                QI_31_DIGIT_SLS_DISPLAY
     QI_16_BIT_BINARY                      QI_32_BIT_BINARY                      QI_31_DIGIT_ST_PACKED
     QI_PICTURE_STRING                r    G$ROS$
PL6.E3A0      #001=QBS$STOP_RUN File=QBS$STOP_RUN.:E05TSI                        WED 07/30/97 04:56 Page:5


        1        1        /*M* QBS$STOP_RUN:  Execute a STOP RUN statement.  */
        2        2        /*T***********************************************************/
        3        3        /*T*                                                         */
        4        4        /*T* Copyright (c) Bull HN Information Systems Inc., 1997    */
        5        5        /*T*                                                         */
        6        6        /*T***********************************************************/
        7        7        /*X* DMC,PLM=4,IND=0,DCI=4,CSI=2,IAD=2,DTI=2,AND,ECI=0,DIN=2,STI=2 */
        8        8
        9        9        /*P*  NAME:         QBS$STOP_RUN
       10       10              PURPOSE:      Stop the program (exit).
       11       11              DESCRIPTION:  Execute a STOP_RUN op-code (no arguments).
       12       12        */
       13       13
       14       14        QBS$STOP_RUN: PROC;

     14   0 000000  D380 0000 0000  xent QBS$STOP_RUN    LNJ,B5   X6A_AUTO_0
          0 000003       0004 0000                       DC       4,0

       15       15
       16       16        /*D*  NAME:         QBS$STOP_RUN
       17       17              CALL:         CALL QBS$STOP_RUN;
       18       18              PARAMETERS:   None.
       19       19              INTERFACE:    Called by QAT$TALLYHO when a STOP_RUN
       20       20                            op-code is encountered.  Calls M$EXIT.
       21       21              ENVIRONMENT:  Nothing unusual; ready to exit.
       22       22              INPUT:        QI_1.
       23       23              OUTPUT:       Stops.
       24       24              SCRATCH:      Not a whole lot.
       25       25              DESCRIPTION:  Call M$EXIT.
       26       26                            (Any cleanup required?)
       27       27        */
       28       28
       29       29          %INCLUDE LCP_6;
       30      220
       31      221          %INCLUDE QG_MACRO_M;
       32      358          %INCLUDE QI_EQUATES_E;
PL6.E3A0      #001=QBS$STOP_RUN File=QBS$STOP_RUN.:E05TSI                        WED 07/30/97 04:56 Page:6
       33      717          %INCLUDE QI_MACROS_M;
       34     5775          %QI$ALL;
       35    16888
       36    16889    1     DCL QCU$RESTORE_PAGEHALT ENTRY;
       37    16890
       38    16891    1       CALL QCU$RESTORE_PAGEHALT;

  16891   0 000005  CBF0 0000                            LAB,B4   0,IMO
          0 000007  E380 0000 0000  xent                 LNJ,B6   QCU$RESTORE_PAGEHALT
          0 00000A       0001                            DC       s:16892,PREL

       39    16892    1       CALL M$EXIT;

  16892   0 00000B  B870 0080                            LDR,R3   128,IMO
          0 00000D  0001                                 MCL
          0 00000E       0000                            DC       s:16892+3,PREL

       40    16893
       41    16894    1   END QBS$STOP_RUN;

  16894   0 00000F  C380 0000 0000  xent                 LNJ,B4   X6A_ARET

PL6.E3A0      #001=QBS$STOP_RUN File=QBS$STOP_RUN.:E05TSI                        WED 07/30/97 04:56 Page:7
--  Include file information  --

   QI_MACROS_M.:E05TOU  is referenced.
   QI_EQUATES_E.:E05TOU  is referenced.
   QG_MACRO_M.:E05TOU  is referenced.
   LCP_6.:E05TOU  cannot be made into a system file and is referenced.
   G_LCP6_E.:E05TOU  was found in the system file and is referenced.
   GT_LCP6_M.:E05TOU  was found in the system file and is referenced.
   KI_CP6.:E05TOU  was found in the system file and is referenced.
   GF_LCP6_M.:E05TOU  was found in the system file and is referenced.
   GM_LCP6_M.:E05TOU  was found in the system file and is referenced.
   GU_LCP6_M.:E05TOU  was found in the system file and is referenced.
   GJ_LCP6_M.:E05TOU  was found in the system file and is referenced.
   GH_LCP6_M.:E05TOU  was found in the system file and is referenced.
      No diagnostics issued in procedure QBS$STOP_RUN.
PL6.E3A0      #001=QBS$STOP_RUN File=QBS$STOP_RUN.:E05TSI                        WED 07/30/97 04:56 Page:8

 **** Variables and constants ****

  ****  SYMREF variables  ****

  ****  Scalars and arrays  ****
HexLoc.c.b A Datatyp(siz) R M Lvl/name                 HexLoc.c.b A Datatyp(siz) R M Lvl/name

     0-0-0/d STRC(2576)  r     1 QI_1

  ****  BASED and DCB variables  ****

  ****  Scalars and arrays  ****
HexLoc.c.b A Datatyp(siz) R M Lvl/name                 HexLoc.c.b A Datatyp(siz) R M Lvl/name

     0-0-0/c ASTR(8)     r     1 QI$VARIABLE_IDENTIFIER


   Procedure QBS$STOP_RUN requires 18 words for executable code.
   Procedure QBS$STOP_RUN requires 4 words of local(AUTO) storage.

    No errors detected in file QBS$STOP_RUN.:E05TSI    .
PL6.E3A0      #001=QBS$STOP_RUN File=QBS$STOP_RUN.:E05TSI                        WED 07/30/97 04:56 Page:9
          *** CROSS REFERENCE LISTING ***
**     DENOTES     IDENTIFIER DEFINITION
<<                 IDENTIFIER'S VALUE SET
>>                 IDENTIFIER'S VALUE USED
<>                 IDENTIFIER SET AND/OR USED
--                 IDENTIFIER REFERENCED
PL6.E3A0      #001=QBS$STOP_RUN File=QBS$STOP_RUN.:E05TSI                        WED 07/30/97 04:56 Page:10
          MINI XREF LISTING

M$EXIT
       179**DCL-ENT 16892--CALL
QCU$RESTORE_PAGEHALT
     16889**DCL-ENT 16891--CALL
QGB_PARAM.DVE.DVBYTE.VFC
     11372**DCL     11373--REDEF
QGB_PARAM.DVE.EOMCHAR
     11384**DCL     11385--REDEF
QGB_PARAM.MSG$
     11366**DCL     11367--REDEF
QGB_PARAM.UHDR$
     11391**DCL     11392--REDEF
QI$ACTIVATION_STATUS
      9130**DCL      9136--REDEF
QI$CIP
      7971**DCL      8041--REDEF
QI$CIP.CA
      7976**DCL      7980--REDEF    7983--REDEF    7986--REDEF
QI$COBOL_DAD.PSEUDO_CIP
      8215**DCL      8240--REDEF
QI$COBOL_DAD.PSEUDO_CIP.ALPHANUMERIC
      8217**DCL      8222--REDEF
QI$COBOL_DAD.PSEUDO_CIP.NUMERIC.CB
      8223**DCL      8226--REDEF    8229--REDEF
QI$COBOL_DAD.VARIABLE_LENGTH_ITEMS
      8251**DCL      8267--REDEF    8275--REDEF    8283--REDEF
QI$COBOL_DAD.VARIABLE_LENGTH_ITEMS.LEVEL_MULTIPLIERS
      8252**DCL      8262--REDEF    8265--REDEF
QI$COBOL_DAD.WORD0
      8179**DCL      8180--REDEF    8194--REDEF
QI$COBOL_DAD_P_BITS.P
      8319**DCL      8325--REDEF
PL6.E3A0      #001=QBS$STOP_RUN File=QBS$STOP_RUN.:E05TSI                        WED 07/30/97 04:56 Page:11
QI$CONDITION_CONTROL_BLOCK.LIST_A@P
      7805**DCL      7806--REDEF
QI$CONDITION_CONTROL_BLOCK.WORD0_FLAGS
      7801**DCL      7804--REDEF
QI$CONDITION_LEGAL_BLOCK.ARRAY@P
      7838**DCL      7839--REDEF    7840--REDEF
QI$DAD.PSEUDO_CIP
      8118**DCL      8143--REDEF
QI$DAD.PSEUDO_CIP.ALPHANUMERIC
      8120**DCL      8125--REDEF
QI$DAD.PSEUDO_CIP.NUMERIC.CB
      8126**DCL      8129--REDEF    8132--REDEF
QI$DAD.WORD0
      8087**DCL      8088--REDEF
QI$ERROR_MESSAGE_LINE
     11479**DCL     11481--REDEF
QI$ERROR_STATUS
     11476**DCL     11478--REDEF
QI$FIELD_DAD.ELEMENTARY_ITEM.P
      8533**DCL      8540--REDEF
QI$FIELD_DAD.ONE_DIMENSIONAL_ITEM.P
      8553**DCL      8560--REDEF
QI$FIELD_DAD.PSEUDO_CIP
      8460**DCL      8485--REDEF
QI$FIELD_DAD.PSEUDO_CIP.ALPHANUMERIC
      8462**DCL      8467--REDEF
QI$FIELD_DAD.PSEUDO_CIP.NUMERIC.CB
      8468**DCL      8471--REDEF    8474--REDEF
QI$FIELD_DAD.TWO_DIMENSIONAL_ITEM.P
      8573**DCL      8580--REDEF
QI$FIELD_DAD.VARIABLE_LENGTH_ITEMS
      8516**DCL      8532--REDEF    8550--REDEF    8568--REDEF
QI$FIELD_DAD.VARIABLE_LENGTH_ITEMS.LEVEL_MULTIPLIERS
      8517**DCL      8527--REDEF    8530--REDEF
QI$FIELD_DAD.WORD0
      8412**DCL      8413--REDEF
PL6.E3A0      #001=QBS$STOP_RUN File=QBS$STOP_RUN.:E05TSI                        WED 07/30/97 04:56 Page:12
QI$FIELD_DAD.WORD0_FLAGS.IO_FLAGS
      8416**DCL      8421--REDEF
QI$FIELD_DAD_P.P
      8614**DCL      8621--REDEF
QI$FIELD_STATUS.INDICATORS
      9280**DCL      9312--REDEF
QI$FIELD_STATUS.INDICATORS.ENABLED_FLAGS
      9284**DCL      9289--REDEF
QI$FIELD_STATUS.INDICATORS.OPEN_FLAGS
      9296**DCL      9303--REDEF
QI$FIELD_STATUS.INDICATORS.STATE_FLAGS
      9290**DCL      9295--REDEF
QI$FILE.WORD0
      8736**DCL      8737--REDEF
QI$FILE_STATUS.INDICATORS
      9573**DCL      9605--REDEF
QI$FILE_STATUS.INDICATORS.ENABLED_FLAGS
      9577**DCL      9582--REDEF
QI$FILE_STATUS.INDICATORS.OPEN_FLAGS
      9589**DCL      9596--REDEF
QI$FILE_STATUS.INDICATORS.STATE_FLAGS
      9583**DCL      9588--REDEF
QI$FORM_FILE.USE_PROCEDURE
      8836**DCL      8843--REDEF
QI$FORM_FILE.WORD0
      8790**DCL      8791--REDEF
QI$FORM_STATUS.INDICATORS
      9694**DCL      9726--REDEF
QI$FORM_STATUS.INDICATORS.ENABLED_FLAGS
      9698**DCL      9703--REDEF
QI$FORM_STATUS.INDICATORS.OPEN_FLAGS
      9710**DCL      9717--REDEF
QI$FORM_STATUS.INDICATORS.STATE_FLAGS
      9704**DCL      9709--REDEF
QI$FRAME.WORD0
      8951**DCL      8952--REDEF
PL6.E3A0      #001=QBS$STOP_RUN File=QBS$STOP_RUN.:E05TSI                        WED 07/30/97 04:56 Page:13
QI$FRAME_STATUS.INDICATORS
      9923**DCL      9955--REDEF
QI$FRAME_STATUS.INDICATORS.ENABLED_FLAGS
      9927**DCL      9932--REDEF
QI$FRAME_STATUS.INDICATORS.OPEN_FLAGS
      9939**DCL      9946--REDEF
QI$FRAME_STATUS.INDICATORS.STATE_FLAGS
      9933**DCL      9938--REDEF
QI$GZ_FIELD.DESCRIPTION.IO_FLAGS
     16805**DCL     16810--REDEF
QI$IDENTIFIER
     11482**DCL     11484--REDEF
QI$INDICATORS
      9194**DCL      9224--REDEF
QI$INDICATORS.ENABLED_FLAGS
      9200**DCL      9205--REDEF
QI$INDICATORS.OPEN_FLAGS
      9212**DCL      9219--REDEF
QI$INDICATORS.STATE_FLAGS
      9206**DCL      9211--REDEF
QI$MAJOR_NODE.WORD0
      8650**DCL      8651--REDEF
QI$MAJOR_STATUS.INDICATORS
      9373**DCL      9405--REDEF
QI$MAJOR_STATUS.INDICATORS.ENABLED_FLAGS
      9377**DCL      9382--REDEF
QI$MAJOR_STATUS.INDICATORS.OPEN_FLAGS
      9389**DCL      9396--REDEF
QI$MAJOR_STATUS.INDICATORS.STATE_FLAGS
      9383**DCL      9388--REDEF
QI$MESSAGE_TYPE
     11473**DCL     11475--REDEF
QI$MINOR_NODE.WORD0
      8693**DCL      8694--REDEF
QI$MINOR_STATUS.INDICATORS
      9466**DCL      9498--REDEF
PL6.E3A0      #001=QBS$STOP_RUN File=QBS$STOP_RUN.:E05TSI                        WED 07/30/97 04:56 Page:14
QI$MINOR_STATUS.INDICATORS.ENABLED_FLAGS
      9470**DCL      9475--REDEF
QI$MINOR_STATUS.INDICATORS.OPEN_FLAGS
      9482**DCL      9489--REDEF
QI$MINOR_STATUS.INDICATORS.STATE_FLAGS
      9476**DCL      9481--REDEF
QI$OP_ACCEPT.DATANAME@P
      5881**DCL      5882--REDEF
QI$OP_CALL.EPTR$
      6053**DCL      6054--REDEF
QI$OP_CLEAR.IO_FLAGS
      6086**DCL      6089--REDEF
QI$OP_DISPLAY.FIELD_A@P
      6353**DCL      6354--REDEF
QI$OP_ENABLE.IO_FLAGS
      6440**DCL      6443--REDEF
QI$OP_IFCLS.ATTRIBUTE.TYPE
      6533**DCL      6538--REDEF
QI$OP_INSPECT.TALLYING_FOR_ITEM@P
      6767**DCL      6768--REDEF
QI$OP_INSPECT.TALLYING_INITIAL_ITEM@P
      6769**DCL      6770--REDEF
QI$OP_INSPECT.TALLYING_ITEM@P
      6765**DCL      6766--REDEF
QI$OP_OPEN.IO_FLAGS
      7327**DCL      7330--REDEF
QI$OP_PERFM.BINARY_ITERATION_COUNT@P
      7365**DCL      7366--REDEF
QI$PSEUDO_CIP
      7866**DCL      7890--REDEF
QI$PSEUDO_CIP.ALPHANUMERIC
      7870**DCL      7875--REDEF
QI$PSEUDO_CIP.NUMERIC.CB
      7876**DCL      7879--REDEF    7882--REDEF
QI$TERMINAL_ATTRIBUTES
      9087**DCL      9100--REDEF
PL6.E3A0      #001=QBS$STOP_RUN File=QBS$STOP_RUN.:E05TSI                        WED 07/30/97 04:56 Page:15
QI$TRAN_FILE.WORD0
      8872**DCL      8873--REDEF
QI$TRAN_STATUS.INDICATORS
      9807**DCL      9839--REDEF
QI$TRAN_STATUS.INDICATORS.ENABLED_FLAGS
      9811**DCL      9816--REDEF
QI$TRAN_STATUS.INDICATORS.OPEN_FLAGS
      9823**DCL      9830--REDEF
QI$TRAN_STATUS.INDICATORS.STATE_FLAGS
      9817**DCL      9822--REDEF
QI$VARIABLE_IDENTIFIER.LENGTH
     11486**DCL     11487--IMP-SIZ
QI_1.BASE
     10015**DCL     10022--REDEF
QI_1.CURRENT.FILE$
     10906**DCL     10908--REDEF   10910--REDEF
QI_1.CURRENT.FILE_STATUS$
     10912**DCL     10914--REDEF   10916--REDEF
QI_1.DAD
     10710**DCL     10715--REDEF
QI_1.FILE_HEAD
     10893**DCL     10900--REDEF
QI_1.IS_ALL_LIT
     10716**DCL     10721--REDEF
QI_1.IS_FORM_VARIABLE
     10722**DCL     10727--REDEF
QI_1.IS_TEMP
     10728**DCL     10733--REDEF
QI_1.MESSAGE_LINE_DAD.PSEUDO_CIP
     10826**DCL     10851--REDEF
QI_1.MESSAGE_LINE_DAD.PSEUDO_CIP.ALPHANUMERIC
     10828**DCL     10833--REDEF
QI_1.MESSAGE_LINE_DAD.PSEUDO_CIP.NUMERIC.CB
     10834**DCL     10837--REDEF   10840--REDEF
QI_1.MESSAGE_LINE_DAD.WORD0
     10795**DCL     10796--REDEF
PL6.E3A0      #001=QBS$STOP_RUN File=QBS$STOP_RUN.:E05TSI                        WED 07/30/97 04:56 Page:16
QI_1.OFFSET
     10734**DCL     10739--REDEF
QI_1.OP.CIP
     10095**DCL     10546--REDEF
QI_1.OP.CIP.AUX
     10461**DCL     10532--REDEF
QI_1.OP.CIP.AUX.CD
     10506**DCL     10509--REDEF   10513--REDEF   10516--REDEF
QI_1.OP.CIP.S
     10165**DCL     10236--REDEF
QI_1.OP.CIP.S.CD
     10210**DCL     10213--REDEF   10217--REDEF   10220--REDEF
QI_1.OP.CIP.T
     10313**DCL     10384--REDEF
QI_1.OP.CIP.T.CD
     10358**DCL     10361--REDEF   10365--REDEF   10368--REDEF
QI_1.OP.DATA
     10553**DCL     10557--REDEF
QI_1.OP.FILL_CHAR
     10677**DCL     10680--REDEF
QI_1.OP.INX
     10610**DCL     10614--REDEF   10615--REDEF   10619--REDEF
QI_1.OP.LEN
     10593**DCL     10597--REDEF   10598--REDEF   10602--REDEF   10603--REDEF   10607--REDEF
QI_1.OP.LEN.AUX
     10596**DCL     11497--IMP-SIZ
QI_1.OP.LEN.S
     10594**DCL     11493--IMP-SIZ
QI_1.OP.LEN.T
     10595**DCL     11495--IMP-SIZ
QI_1.OP.PICTURE_STRING
     10663**DCL     10666--REDEF   10667--REDEF   10670--REDEF   10671--REDEF   10674--REDEF
QI_1.OP.ROUND
     10696**DCL     10697--REDEF   10698--REDEF
QI_1.OP.SRCH_VRFY_ELEMS
     10632**DCL     10635--REDEF
PL6.E3A0      #001=QBS$STOP_RUN File=QBS$STOP_RUN.:E05TSI                        WED 07/30/97 04:56 Page:17
QI_1.OPENED_COUNT
     10901**DCL     10904--REDEF
QI_1.OTTER_SPACE
     10740**DCL     10745--REDEF
QI_1.PICTURE_STRING
     10746**DCL     10751--REDEF
QI_1.SPECIAL_NAMES
     10929**DCL     10938--REDEF
QI_1.TYPE
     10752**DCL     10757--REDEF
QI_16_BIT_BINARY
     15942**DCL     16012--REDEF
QI_16_BIT_BINARY.CB
     15961**DCL     15964--REDEF   15968--REDEF   15971--REDEF
QI_31_DIGIT_SLS_DISPLAY
     15775**DCL     15845--REDEF
QI_31_DIGIT_SLS_DISPLAY.CD
     15822**DCL     15825--REDEF   15829--REDEF   15832--REDEF
QI_31_DIGIT_ST_PACKED
     16277**DCL     16347--REDEF
QI_31_DIGIT_ST_PACKED.CP
     16310**DCL     16313--REDEF   16317--REDEF   16320--REDEF
QI_32_BIT_BINARY
     16109**DCL     16179--REDEF
QI_32_BIT_BINARY.CB
     16128**DCL     16131--REDEF   16135--REDEF   16138--REDEF
QI_4_CHAR_ALPHANUMERIC
     15607**DCL     15677--REDEF
QI_4_CHAR_ALPHANUMERIC.CA
     15612**DCL     15616--REDEF   15619--REDEF   15622--REDEF
QI_ACCUMULATOR_DAD.CIP
     16620**DCL     16691--REDEF
QI_ACCUMULATOR_DAD.CIP.CP
     16651**DCL     16654--REDEF   16658--REDEF   16661--REDEF
QI_ALR.CIP
     11572**DCL     12023--REDEF
PL6.E3A0      #001=QBS$STOP_RUN File=QBS$STOP_RUN.:E05TSI                        WED 07/30/97 04:56 Page:18
QI_ALR.CIP.AUX
     11938**DCL     12009--REDEF
QI_ALR.CIP.AUX.CA
     11941**DCL     11945--REDEF   11948--REDEF   11951--REDEF
QI_ALR.CIP.S
     11642**DCL     11713--REDEF
QI_ALR.CIP.S.CA
     11645**DCL     11649--REDEF   11652--REDEF   11655--REDEF
QI_ALR.CIP.T
     11790**DCL     11861--REDEF
QI_ALR.CIP.T.CA
     11793**DCL     11797--REDEF   11800--REDEF   11803--REDEF
QI_ALR.DATA
     12030**DCL     12034--REDEF
QI_ALR.FILL_CHAR
     12154**DCL     12157--REDEF
QI_ALR.INX
     12087**DCL     12091--REDEF   12092--REDEF   12096--REDEF
QI_ALR.LEN
     12070**DCL     12074--REDEF   12075--REDEF   12079--REDEF   12080--REDEF   12084--REDEF
QI_ALR.PICTURE_STRING
     12140**DCL     12143--REDEF   12144--REDEF   12147--REDEF   12148--REDEF   12151--REDEF
QI_ALR.ROUND
     12173**DCL     12174--REDEF   12175--REDEF
QI_ALR.SRCH_VRFY_ELEMS
     12109**DCL     12112--REDEF
QI_MAT.CIP
     14911**DCL     15362--REDEF
QI_MAT.CIP.AUX
     15277**DCL     15348--REDEF
QI_MAT.CIP.AUX.CA
     15280**DCL     15284--REDEF   15287--REDEF   15290--REDEF
QI_MAT.CIP.S
     14981**DCL     15052--REDEF
QI_MAT.CIP.S.CA
     14984**DCL     14988--REDEF   14991--REDEF   14994--REDEF
PL6.E3A0      #001=QBS$STOP_RUN File=QBS$STOP_RUN.:E05TSI                        WED 07/30/97 04:56 Page:19
QI_MAT.CIP.T
     15129**DCL     15200--REDEF
QI_MAT.CIP.T.CA
     15132**DCL     15136--REDEF   15139--REDEF   15142--REDEF
QI_MAT.DATA
     15369**DCL     15373--REDEF
QI_MAT.DEC
     15437**DCL     15441--REDEF   15442--REDEF   15446--REDEF
QI_MAT.FILL_CHAR
     15493**DCL     15496--REDEF
QI_MAT.LEN
     15409**DCL     15413--REDEF   15414--REDEF   15418--REDEF   15419--REDEF   15423--REDEF
QI_MAT.PICTURE_STRING
     15479**DCL     15482--REDEF   15483--REDEF   15486--REDEF   15487--REDEF   15490--REDEF
QI_MAT.ROUND
     15512**DCL     15513--REDEF   15514--REDEF
QI_MAT.SRCH_VRFY_ELEMS
     15448**DCL     15451--REDEF
QI_PICTURE_STRING
     16445**DCL     16515--REDEF
QI_PICTURE_STRING.CA
     16450**DCL     16454--REDEF   16457--REDEF   16460--REDEF
QI_SRCH_VRFY.CIP
     14242**DCL     14693--REDEF
QI_SRCH_VRFY.CIP.AUX
     14608**DCL     14679--REDEF
QI_SRCH_VRFY.CIP.AUX.CA
     14611**DCL     14615--REDEF   14618--REDEF   14621--REDEF
QI_SRCH_VRFY.CIP.S
     14312**DCL     14383--REDEF
QI_SRCH_VRFY.CIP.S.CA
     14315**DCL     14319--REDEF   14322--REDEF   14325--REDEF
QI_SRCH_VRFY.CIP.T
     14460**DCL     14531--REDEF
QI_SRCH_VRFY.CIP.T.CA
     14463**DCL     14467--REDEF   14470--REDEF   14473--REDEF
PL6.E3A0      #001=QBS$STOP_RUN File=QBS$STOP_RUN.:E05TSI                        WED 07/30/97 04:56 Page:20
QI_SRCH_VRFY.DATA
     14700**DCL     14704--REDEF
QI_SRCH_VRFY.DEC
     14768**DCL     14772--REDEF   14773--REDEF   14777--REDEF
QI_SRCH_VRFY.FILL_CHAR
     14824**DCL     14827--REDEF
QI_SRCH_VRFY.ROUND
     14843**DCL     14844--REDEF   14845--REDEF
QI_SRCH_VRFY.SRCH_RESULT
     14784**DCL     14787--REDEF   14788--REDEF   14791--REDEF   14792--REDEF   14795--REDEF
QI_SRCH_VRFY.SRCH_VRFY_ARGS
     14708**DCL     14712--REDEF   14713--REDEF   14717--REDEF   14718--REDEF   14722--REDEF
QI_SRCH_VRFY.SRCH_VRFY_ELEMS
     14779**DCL     14782--REDEF
QI_TYPE_BINARY_TARGET.CIP
     13569**DCL     14020--REDEF
QI_TYPE_BINARY_TARGET.CIP.AUX
     13935**DCL     14006--REDEF
QI_TYPE_BINARY_TARGET.CIP.AUX.CA
     13938**DCL     13942--REDEF   13945--REDEF   13948--REDEF
QI_TYPE_BINARY_TARGET.CIP.S
     13639**DCL     13710--REDEF
QI_TYPE_BINARY_TARGET.CIP.S.CA
     13642**DCL     13646--REDEF   13649--REDEF   13652--REDEF
QI_TYPE_BINARY_TARGET.CIP.T
     13787**DCL     13858--REDEF
QI_TYPE_BINARY_TARGET.CIP.T.CB
     13804**DCL     13807--REDEF   13811--REDEF   13814--REDEF
QI_TYPE_BINARY_TARGET.DATA
     14027**DCL     14031--REDEF
QI_TYPE_BINARY_TARGET.DEC
     14095**DCL     14099--REDEF   14100--REDEF   14104--REDEF
QI_TYPE_BINARY_TARGET.LEN
     14067**DCL     14071--REDEF   14072--REDEF   14076--REDEF   14077--REDEF   14081--REDEF
QI_TYPE_BINARY_TARGET.PICTURE_STRING
     14137**DCL     14140--REDEF   14141--REDEF   14144--REDEF   14145--REDEF   14148--REDEF
PL6.E3A0      #001=QBS$STOP_RUN File=QBS$STOP_RUN.:E05TSI                        WED 07/30/97 04:56 Page:21
QI_TYPE_BINARY_TARGET.ROUND
     14170**DCL     14171--REDEF   14172--REDEF
QI_TYPE_BINARY_TARGET.SIZE_ERROR
     14156**DCL     14157--REDEF
QI_TYPE_BINARY_TARGET.SRCH_VRFY_ELEMS
     14106**DCL     14109--REDEF
QI_TYPE_DISPLAY_SOURCE.CIP
     12237**DCL     12688--REDEF
QI_TYPE_DISPLAY_SOURCE.CIP.AUX
     12603**DCL     12674--REDEF
QI_TYPE_DISPLAY_SOURCE.CIP.AUX.CA
     12606**DCL     12610--REDEF   12613--REDEF   12616--REDEF
QI_TYPE_DISPLAY_SOURCE.CIP.S
     12307**DCL     12378--REDEF
QI_TYPE_DISPLAY_SOURCE.CIP.S.CD
     12352**DCL     12355--REDEF   12359--REDEF   12362--REDEF
QI_TYPE_DISPLAY_SOURCE.CIP.T
     12455**DCL     12526--REDEF
QI_TYPE_DISPLAY_SOURCE.CIP.T.CA
     12458**DCL     12462--REDEF   12465--REDEF   12468--REDEF
QI_TYPE_DISPLAY_SOURCE.DATA
     12695**DCL     12699--REDEF
QI_TYPE_DISPLAY_SOURCE.DEC
     12763**DCL     12767--REDEF   12768--REDEF   12772--REDEF
QI_TYPE_DISPLAY_SOURCE.LEN
     12735**DCL     12739--REDEF   12740--REDEF   12744--REDEF   12745--REDEF   12749--REDEF
QI_TYPE_DISPLAY_SOURCE.PICTURE_STRING
     12805**DCL     12808--REDEF   12809--REDEF   12812--REDEF   12813--REDEF   12816--REDEF
QI_TYPE_DISPLAY_SOURCE.ROUND
     12838**DCL     12839--REDEF   12840--REDEF
QI_TYPE_DISPLAY_SOURCE.SIZE_ERROR
     12824**DCL     12825--REDEF
QI_TYPE_DISPLAY_SOURCE.SRCH_VRFY_ELEMS
     12774**DCL     12777--REDEF
QI_TYPE_DISPLAY_TARGET.CIP
     12903**DCL     13354--REDEF
PL6.E3A0      #001=QBS$STOP_RUN File=QBS$STOP_RUN.:E05TSI                        WED 07/30/97 04:56 Page:22
QI_TYPE_DISPLAY_TARGET.CIP.AUX
     13269**DCL     13340--REDEF
QI_TYPE_DISPLAY_TARGET.CIP.AUX.CA
     13272**DCL     13276--REDEF   13279--REDEF   13282--REDEF
QI_TYPE_DISPLAY_TARGET.CIP.S
     12973**DCL     13044--REDEF
QI_TYPE_DISPLAY_TARGET.CIP.S.CA
     12976**DCL     12980--REDEF   12983--REDEF   12986--REDEF
QI_TYPE_DISPLAY_TARGET.CIP.T
     13121**DCL     13192--REDEF
QI_TYPE_DISPLAY_TARGET.CIP.T.CD
     13166**DCL     13169--REDEF   13173--REDEF   13176--REDEF
QI_TYPE_DISPLAY_TARGET.DATA
     13361**DCL     13365--REDEF
QI_TYPE_DISPLAY_TARGET.DEC
     13429**DCL     13433--REDEF   13434--REDEF   13438--REDEF
QI_TYPE_DISPLAY_TARGET.LEN
     13401**DCL     13405--REDEF   13406--REDEF   13410--REDEF   13411--REDEF   13415--REDEF
QI_TYPE_DISPLAY_TARGET.PICTURE_STRING
     13471**DCL     13474--REDEF   13475--REDEF   13478--REDEF   13479--REDEF   13482--REDEF
QI_TYPE_DISPLAY_TARGET.ROUND
     13504**DCL     13505--REDEF   13506--REDEF
QI_TYPE_DISPLAY_TARGET.SIZE_ERROR
     13490**DCL     13491--REDEF
QI_TYPE_DISPLAY_TARGET.SRCH_VRFY_ELEMS
     13440**DCL     13443--REDEF
